# 17805339

## Common Data

| Field            | Value                      |
|------------------|----------------------------|
| Zone             | Hall of the Gods (ID: 251) |
| Block Size       | 13208 bytes                |
| Total Events     | 5                          |
| References Count | 283                        |

## List of Events

| Event ID              | Entrypoint   |   Size |   Instructions |
|-----------------------|--------------|--------|----------------|
| [65535](#event-65535) | 0x0000       |      1 |              1 |
| [6](#event-6)         | 0x0001       |   3968 |            503 |
| [7](#event-7)         | 0x0F81       |   4014 |            511 |
| [8](#event-8)         | 0x1F2F       |   1753 |            233 |
| [9](#event-9)         | 0x2608       |   2304 |            285 |

## DAT References (imed_data)

|   Index | Hex Value   |   Dec Value |
|---------|-------------|-------------|
|       0 | 0x0013      |          19 |
|       1 | 0x0000      |           0 |
|       2 | 0x0012      |          18 |
|       3 | 0x00FF      |         255 |
|       4 | 0x0001      |           1 |
|       5 | 0x0016      |          22 |
|       6 | 0xFFFF536D  |  4294923117 |
|       7 | 0xFFFFCFF4  |  4294954996 |
|       8 | 0x0C00      |        3072 |
|       9 | 0xFFFFF07A  |  4294963322 |
|      10 | 0xFFFFFF3F  |  4294967103 |
|      11 | 0xFFFFCD39  |  4294954297 |
|      12 | 0x072C      |        1836 |
|      13 | 0x0068      |         104 |
|      14 | 0x0400      |        1024 |
|      15 | 0x0236      |         566 |
|      16 | 0x001E      |          30 |
|      17 | 0x022F      |         559 |
|      18 | 0x003C      |          60 |
|      19 | 0x0078      |         120 |
|      20 | 0xFFFFF51F  |  4294964511 |
|      21 | 0xFFFFEA55  |  4294961749 |
|      22 | 0x0C01      |        3073 |
|      23 | 0x1C1E      |        7198 |
|      24 | 0x1CF7      |        7415 |
|      25 | 0x1CF8      |        7416 |
|      26 | 0x1CF9      |        7417 |
|      27 | 0x012C      |         300 |
|      28 | 0x1CFA      |        7418 |
|      29 | 0x1CFB      |        7419 |
|      30 | 0x1CFC      |        7420 |
|      31 | 0x00F6      |         246 |
|      32 | 0x0096      |         150 |
|      33 | 0x0168      |         360 |
|      34 | 0x1CFD      |        7421 |
|      35 | 0x1CFE      |        7422 |
|      36 | 0x1CFF      |        7423 |
|      37 | 0x1D00      |        7424 |
|      38 | 0x01BD      |         445 |
|      39 | 0x1D01      |        7425 |
|      40 | 0x002D      |          45 |
|      41 | 0x1D02      |        7426 |
|      42 | 0x1D03      |        7427 |
|      43 | 0x1D04      |        7428 |
|      44 | 0x1D05      |        7429 |
|      45 | 0x1D06      |        7430 |
|      46 | 0x1D07      |        7431 |
|      47 | 0x1D08      |        7432 |
|      48 | 0x1D09      |        7433 |
|      49 | 0x1D0A      |        7434 |
|      50 | 0x0033      |          51 |
|      51 | 0x1D0B      |        7435 |
|      52 | 0x1D0C      |        7436 |
|      53 | 0x1D0D      |        7437 |
|      54 | 0x01E0      |         480 |
|      55 | 0x1D0E      |        7438 |
|      56 | 0x00F0      |         240 |
|      57 | 0x1D0F      |        7439 |
|      58 | 0x1D10      |        7440 |
|      59 | 0x1D11      |        7441 |
|      60 | 0x1D12      |        7442 |
|      61 | 0x1D13      |        7443 |
|      62 | 0x1D14      |        7444 |
|      63 | 0x1D15      |        7445 |
|      64 | 0x1D16      |        7446 |
|      65 | 0x1D17      |        7447 |
|      66 | 0x1D18      |        7448 |
|      67 | 0x1D19      |        7449 |
|      68 | 0x1D1A      |        7450 |
|      69 | 0x1D1B      |        7451 |
|      70 | 0x1D1C      |        7452 |
|      71 | 0x005A      |          90 |
|      72 | 0x1D1D      |        7453 |
|      73 | 0x1D1E      |        7454 |
|      74 | 0x1D1F      |        7455 |
|      75 | 0x0258      |         600 |
|      76 | 0x1D20      |        7456 |
|      77 | 0x1D21      |        7457 |
|      78 | 0x1D22      |        7458 |
|      79 | 0x1D23      |        7459 |
|      80 | 0x0002      |           2 |
|      81 | 0x0003      |           3 |
|      82 | 0x0004      |           4 |
|      83 | 0x0005      |           5 |
|      84 | 0x0006      |           6 |
|      85 | 0x0007      |           7 |
|      86 | 0x0008      |           8 |
|      87 | 0x1D24      |        7460 |
|      88 | 0x1D25      |        7461 |
|      89 | 0x1D26      |        7462 |
|      90 | 0x1D27      |        7463 |
|      91 | 0x1D28      |        7464 |
|      92 | 0x007C      |         124 |
|      93 | 0x1D29      |        7465 |
|      94 | 0x1D2A      |        7466 |
|      95 | 0x1D2B      |        7467 |
|      96 | 0x1D2C      |        7468 |
|      97 | 0x1D2D      |        7469 |
|      98 | 0x1D2E      |        7470 |
|      99 | 0x1D2F      |        7471 |
|     100 | 0x1D30      |        7472 |
|     101 | 0x1D31      |        7473 |
|     102 | 0x1D32      |        7474 |
|     103 | 0x1D33      |        7475 |
|     104 | 0x1D34      |        7476 |
|     105 | 0x1D35      |        7477 |
|     106 | 0x000C      |          12 |
|     107 | 0x1D36      |        7478 |
|     108 | 0x1D37      |        7479 |
|     109 | 0x1D38      |        7480 |
|     110 | 0x1D39      |        7481 |
|     111 | 0x1D3A      |        7482 |
|     112 | 0x1D3B      |        7483 |
|     113 | 0x1D3C      |        7484 |
|     114 | 0x1D3D      |        7485 |
|     115 | 0x1D3E      |        7486 |
|     116 | 0x1D3F      |        7487 |
|     117 | 0x00D5      |         213 |
|     118 | 0x00C8      |         200 |
|     119 | 0xFFFFF968  |  4294965608 |
|     120 | 0xFFFFECB9  |  4294962361 |
|     121 | 0x0C03      |        3075 |
|     122 | 0xFFFFF8AB  |  4294965419 |
|     123 | 0xFFFFFE31  |  4294966833 |
|     124 | 0xFFFFCD38  |  4294954296 |
|     125 | 0x0C19      |        3097 |
|     126 | 0xFFFFFB42  |  4294966082 |
|     127 | 0x0088      |         136 |
|     128 | 0xFFFEC3FC  |  4294886396 |
|     129 | 0xFFFFF6D9  |  4294964953 |
|     130 | 0xFFFFFC54  |  4294966356 |
|     131 | 0xFFFFFD69  |  4294966633 |
|     132 | 0xFFFFF3A3  |  4294964131 |
|     133 | 0xFFFFF4B1  |  4294964401 |
|     134 | 0xFFFFF615  |  4294964757 |
|     135 | 0xFFFFF870  |  4294965360 |
|     136 | 0xFFFFE3A5  |  4294960037 |
|     137 | 0xFFFEC015  |  4294885397 |
|     138 | 0xFFFFF91B  |  4294965531 |
|     139 | 0xFFFFF1C8  |  4294963656 |
|     140 | 0xFFFEC399  |  4294886297 |
|     141 | 0x1D40      |        7488 |
|     142 | 0x1D41      |        7489 |
|     143 | 0x1D42      |        7490 |
|     144 | 0x1D43      |        7491 |
|     145 | 0x1D44      |        7492 |
|     146 | 0x1D45      |        7493 |
|     147 | 0x1D46      |        7494 |
|     148 | 0x1D47      |        7495 |
|     149 | 0x1D48      |        7496 |
|     150 | 0x1D49      |        7497 |
|     151 | 0x1D4A      |        7498 |
|     152 | 0x1D4B      |        7499 |
|     153 | 0x1D4C      |        7500 |
|     154 | 0x1D4D      |        7501 |
|     155 | 0x1D4E      |        7502 |
|     156 | 0x1D4F      |        7503 |
|     157 | 0x1D50      |        7504 |
|     158 | 0x1D51      |        7505 |
|     159 | 0x1D52      |        7506 |
|     160 | 0x1D53      |        7507 |
|     161 | 0x1D54      |        7508 |
|     162 | 0x1D55      |        7509 |
|     163 | 0x1D56      |        7510 |
|     164 | 0x1D57      |        7511 |
|     165 | 0x1D58      |        7512 |
|     166 | 0x1D59      |        7513 |
|     167 | 0x1D5A      |        7514 |
|     168 | 0x1D5B      |        7515 |
|     169 | 0x1D5C      |        7516 |
|     170 | 0x1D5D      |        7517 |
|     171 | 0x1D5E      |        7518 |
|     172 | 0x1D5F      |        7519 |
|     173 | 0x1D60      |        7520 |
|     174 | 0x1D61      |        7521 |
|     175 | 0x1D62      |        7522 |
|     176 | 0x1D63      |        7523 |
|     177 | 0x1D64      |        7524 |
|     178 | 0x1D65      |        7525 |
|     179 | 0x1D66      |        7526 |
|     180 | 0x1D67      |        7527 |
|     181 | 0x1D68      |        7528 |
|     182 | 0x1D69      |        7529 |
|     183 | 0x00F9      |         249 |
|     184 | 0x1D6A      |        7530 |
|     185 | 0x000F      |          15 |
|     186 | 0x1D6B      |        7531 |
|     187 | 0x0300      |         768 |
|     188 | 0x1D6C      |        7532 |
|     189 | 0x1D6D      |        7533 |
|     190 | 0x1D6E      |        7534 |
|     191 | 0x1D6F      |        7535 |
|     192 | 0x1D70      |        7536 |
|     193 | 0x1D71      |        7537 |
|     194 | 0x1D72      |        7538 |
|     195 | 0x1D73      |        7539 |
|     196 | 0x1D74      |        7540 |
|     197 | 0x1D75      |        7541 |
|     198 | 0x000E      |          14 |
|     199 | 0x1D76      |        7542 |
|     200 | 0x1D77      |        7543 |
|     201 | 0x00B4      |         180 |
|     202 | 0x1D78      |        7544 |
|     203 | 0x1D79      |        7545 |
|     204 | 0x1D7A      |        7546 |
|     205 | 0x1D7B      |        7547 |
|     206 | 0x1D7C      |        7548 |
|     207 | 0x1D7D      |        7549 |
|     208 | 0x1D7E      |        7550 |
|     209 | 0x1D7F      |        7551 |
|     210 | 0x1D80      |        7552 |
|     211 | 0x1D81      |        7553 |
|     212 | 0x1D82      |        7554 |
|     213 | 0x1D83      |        7555 |
|     214 | 0x1D84      |        7556 |
|     215 | 0x1D85      |        7557 |
|     216 | 0x1D86      |        7558 |
|     217 | 0x1D87      |        7559 |
|     218 | 0x1D88      |        7560 |
|     219 | 0x1D89      |        7561 |
|     220 | 0x1D8A      |        7562 |
|     221 | 0x1D8B      |        7563 |
|     222 | 0x1D8C      |        7564 |
|     223 | 0x1D8D      |        7565 |
|     224 | 0x1D8E      |        7566 |
|     225 | 0x00CF      |         207 |
|     226 | 0x1D8F      |        7567 |
|     227 | 0x1D90      |        7568 |
|     228 | 0x1D91      |        7569 |
|     229 | 0x1D92      |        7570 |
|     230 | 0x1D93      |        7571 |
|     231 | 0x1D94      |        7572 |
|     232 | 0x1D95      |        7573 |
|     233 | 0x1D96      |        7574 |
|     234 | 0x1D97      |        7575 |
|     235 | 0x1D98      |        7576 |
|     236 | 0x1D99      |        7577 |
|     237 | 0x1D9A      |        7578 |
|     238 | 0x1D9B      |        7579 |
|     239 | 0x002A      |          42 |
|     240 | 0xFFFFAC84  |  4294945924 |
|     241 | 0xFFFFD508  |  4294956296 |
|     242 | 0xFFFFF63F  |  4294964799 |
|     243 | 0xFFFFEDB2  |  4294962610 |
|     244 | 0xFFFFFA2B  |  4294965803 |
|     245 | 0xFFFFF55F  |  4294964575 |
|     246 | 0x1D9C      |        7580 |
|     247 | 0x1D9D      |        7581 |
|     248 | 0x1D9E      |        7582 |
|     249 | 0x0030      |          48 |
|     250 | 0x1D9F      |        7583 |
|     251 | 0x1DA0      |        7584 |
|     252 | 0x1DA1      |        7585 |
|     253 | 0xFFFFE624  |  4294960676 |
|     254 | 0xFFFFFF44  |  4294967108 |
|     255 | 0x0816      |        2070 |
|     256 | 0x1DA2      |        7586 |
|     257 | 0x1DA3      |        7587 |
|     258 | 0x1DA4      |        7588 |
|     259 | 0x1DA5      |        7589 |
|     260 | 0x1DA6      |        7590 |
|     261 | 0x1DA7      |        7591 |
|     262 | 0x1DA8      |        7592 |
|     263 | 0x1DA9      |        7593 |
|     264 | 0x1DAA      |        7594 |
|     265 | 0x1DAB      |        7595 |
|     266 | 0x1DAC      |        7596 |
|     267 | 0x1DAD      |        7597 |
|     268 | 0x1DAE      |        7598 |
|     269 | 0xFFFFFBBE  |  4294966206 |
|     270 | 0xFFFFFAC1  |  4294965953 |
|     271 | 0x0362      |         866 |
|     272 | 0x001D      |          29 |
|     273 | 0x1DAF      |        7599 |
|     274 | 0x1DB0      |        7600 |
|     275 | 0x1DB1      |        7601 |
|     276 | 0x1DB2      |        7602 |
|     277 | 0x1DB3      |        7603 |
|     278 | 0x1DB4      |        7604 |
|     279 | 0x1DB5      |        7605 |
|     280 | 0x1DB6      |        7606 |
|     281 | 0x00C9      |         201 |
|     282 | 0x00D7      |         215 |

## String References

- **7198**: 
- **7460**: What will you say? [That's not true!/...]
- **7477**: Do you have faith in Esha'ntarl? [Aye, with all me heart!/...Huh?]
- **7491**: What's Abyssea's current state? [It's...uh, bad?/I...have no idea.]

## Events

### Event 65535

#### Metadata

| Field        | Value   |
|--------------|---------|
| Entrypoint   | 0x0000  |
| Data Size    | 1 bytes |
| Instructions | 1       |

```
      00 01 02 03 04 05 06 07  08 09 0A 0B 0C 0D 0E 0F
      -- -- -- -- -- -- -- --  -- -- -- -- -- -- -- --
0000: 00                                                .               
```

#### Opcodes

```
  0: 0x0000 [0x00] END_REQSTACK()
```

### Event 6

#### Metadata

| Field        | Value      |
|--------------|------------|
| Entrypoint   | 0x0001     |
| Data Size    | 3968 bytes |
| Instructions | 502        |

```
      00 01 02 03 04 05 06 07  08 09 0A 0B 0C 0D 0E 0F
      -- -- -- -- -- -- -- --  -- -- -- -- -- -- -- --
0000:    42 1A DA 2C 46 01 38  00 80 4E 00 F0 FF FF 7F   B..,F.8..N.....
0010: 02 02 00 01 80 00 1B 00  01 25 00 77 02 80 03 80  .........%.w....
0020: 1C 04 80 AB 09 27 10 1C  B0 0F 01 04 27 10 1D B0  .....'......'...
0030: 0F 01 04 92 01 1C B0 0F  01 94 01 F0 FF FF 7F 94  ................
0040: 01 1C B0 0F 01 94 01 1D  B0 0F 01 BA F0 FF FF 7F  ................
0050: 05 80 06 80 07 80 08 80  BA 1C B0 0F 01 09 80 0A  ................
0060: 80 0B 80 0C 80 BA 1D B0  0F 01 01 80 0D 80 0B 80  ................
0070: 0E 80 29 10 1C B0 0F 01  08 29 10 1D B0 0F 01 08  ..)......)......
0080: 29 10 1C B0 0F 01 0A 29  10 1D B0 0F 01 09 80 F0  )......)........
0090: FF FF 7F 80 1C B0 0F 01  80 1D B0 0F 01 5B 0F 80  .............[..
00A0: 1C B0 0F 01 1C B0 0F 01  74 68 6B 30 29 10 F0 FF  ........thk0)...
00B0: FF 7F 16 03 03 00 02 10  6C 1D B0 0F 01 01 80 04  ........l.......
00C0: 80 1C 10 80 27 10 F0 FF  FF 7F 1D 45 11 80 F0 FF  ....'......E....
00D0: FF 7F F0 FF FF 7F 33 32  30 30 01 80 1A B9 2C 2A  ......3200....,*
00E0: 10 F0 FF FF 7F 1C 12 80  52 11 80 F0 FF FF 7F F0  ........R.......
00F0: FF FF 7F 33 32 30 30 45  11 80 F0 FF FF 7F F0 FF  ...3200E........
0100: FF 7F 33 32 30 31 01 80  1C 13 80 1A DA 2C 1C 10  ..3201.......,..
0110: 80 6B 69 64 6C 30 1C B0  0F 01 BA F0 FF FF 7F 14  .kidl0..........
0120: 80 15 80 0B 80 16 80 4A  F0 FF FF 7F 1C B0 0F 01  .......J........
0130: 4A 1C B0 0F 01 F0 FF FF  7F 7B 1C B0 0F 01 48 17  J........{....H.
0140: 80 23 52 11 80 F0 FF FF  7F F0 FF FF 7F 33 32 30  .#R..........320
0150: 31 45 11 80 F0 FF FF 7F  F0 FF FF 7F 33 32 30 32  1E..........3202
0160: 01 80 1A B9 2C 2B 1C B0  0F 01 18 80 23 52 11 80  ....,+......#R..
0170: F0 FF FF 7F F0 FF FF 7F  33 32 30 32 45 11 80 F0  ........3202E...
0180: FF FF 7F F0 FF FF 7F 33  32 30 33 01 80 5B 0F 80  .......3203..[..
0190: 1C B0 0F 01 1C B0 0F 01  74 6C 6B 30 2B 1C B0 0F  ........tlk0+...
01A0: 01 19 80 23 2B 1C B0 0F  01 1A 80 23 52 11 80 F0  ...#+......#R...
01B0: FF FF 7F F0 FF FF 7F 33  32 30 33 45 11 80 F0 FF  .......3203E....
01C0: FF 7F F0 FF FF 7F 33 32  30 34 01 80 5B 0F 80 1C  ......3204..[...
01D0: B0 0F 01 1C B0 0F 01 74  6C 6B 31 1C 10 80 5D 01  .......tlk1...].
01E0: 80 1B 80 2B 1C B0 0F 01  1C 80 23 53 1C B0 0F 01  ...+......#S....
01F0: 1C B0 0F 01 74 6C 6B 31  27 10 1C B0 0F 01 0F 2B  ....tlk1'......+
0200: 1C B0 0F 01 1D 80 1C 12  80 27 10 F0 FF FF 7F 1E  .........'......
0210: 23 2A 10 1C B0 0F 01 52  11 80 F0 FF FF 7F F0 FF  #*.....R........
0220: FF 7F 33 32 30 34 45 11  80 F0 FF FF 7F F0 FF FF  ..3204E.........
0230: 7F 33 32 30 35 01 80 2B  1C B0 0F 01 1E 80 23 52  .3205..+......#R
0240: 11 80 F0 FF FF 7F F0 FF  FF 7F 33 32 30 35 45 11  ..........3205E.
0250: 80 F0 FF FF 7F F0 FF FF  7F 33 32 30 36 01 80 27  .........3206..'
0260: 10 1C B0 0F 01 10 9F 1F  80 1D B0 0F 01 1D B0 0F  ................
0270: 01 6D 61 69 6E 01 80 1C  20 80 4A F0 FF FF 7F 1D  .main... .J.....
0280: B0 0F 01 1C 21 80 2B 1D  B0 0F 01 22 80 1C 13 80  ....!.+...."....
0290: 23 52 11 80 F0 FF FF 7F  F0 FF FF 7F 33 32 30 36  #R..........3206
02A0: 45 11 80 F0 FF FF 7F F0  FF FF 7F 33 32 30 39 01  E..........3209.
02B0: 80 2B 1C B0 0F 01 23 80  23 52 11 80 F0 FF FF 7F  .+....#.#R......
02C0: F0 FF FF 7F 33 32 30 39  45 11 80 F0 FF FF 7F F0  ....3209E.......
02D0: FF FF 7F 33 32 31 30 01  80 03 02 10 1B 80 27 10  ...3210.......'.
02E0: 1E B0 0F 01 01 29 10 1D  B0 0F 01 0A 2B 1D B0 0F  .....)......+...
02F0: 01 24 80 23 2B 1D B0 0F  01 25 80 23 2A 10 1E B0  .$.#+....%.#*...
0300: 0F 01 52 11 80 F0 FF FF  7F F0 FF FF 7F 33 32 31  ..R..........321
0310: 30 45 11 80 F0 FF FF 7F  F0 FF FF 7F 33 32 31 32  0E..........3212
0320: 01 80 5B 26 80 1D B0 0F  01 1D B0 0F 01 74 6C 6B  ..[&.........tlk
0330: 30 2B 1D B0 0F 01 27 80  1C 20 80 23 52 11 80 F0  0+....'.. .#R...
0340: FF FF 7F F0 FF FF 7F 33  32 31 32 45 11 80 F0 FF  .......3212E....
0350: FF 7F F0 FF FF 7F 33 32  31 33 01 80 5B 26 80 1D  ......3213..[&..
0360: B0 0F 01 1D B0 0F 01 74  6C 6B 31 1C 28 80 03 01  .......tlk1.(...
0370: 10 04 80 43 00 43 01 02  09 10 04 80 00 8A 03 2B  ...C.C.........+
0380: 1D B0 0F 01 29 80 23 01  9A 03 2B 1D B0 0F 01 2A  ....).#...+....*
0390: 80 23 2B 1D B0 0F 01 2B  80 23 52 11 80 F0 FF FF  .#+....+.#R.....
03A0: 7F F0 FF FF 7F 33 32 31  33 45 11 80 F0 FF FF 7F  .....3213E......
03B0: F0 FF FF 7F 33 32 31 34  01 80 5B 26 80 1D B0 0F  ....3214..[&....
03C0: 01 1D B0 0F 01 74 6C 6B  30 1C 10 80 2B 1D B0 0F  .....tlk0...+...
03D0: 01 2C 80 23 2B 1D B0 0F  01 2D 80 23 52 11 80 F0  .,.#+....-.#R...
03E0: FF FF 7F F0 FF FF 7F 33  32 31 34 45 11 80 F0 FF  .......3214E....
03F0: FF 7F F0 FF FF 7F 33 32  31 35 01 80 2B 1D B0 0F  ......3215..+...
0400: 01 2E 80 23 5B 26 80 1D  B0 0F 01 1D B0 0F 01 74  ...#[&.........t
0410: 6C 6B 31 1C 12 80 2B 1D  B0 0F 01 2F 80 23 52 11  lk1...+..../.#R.
0420: 80 F0 FF FF 7F F0 FF FF  7F 33 32 31 35 45 11 80  .........3215E..
0430: F0 FF FF 7F F0 FF FF 7F  33 32 31 36 01 80 1C 12  ........3216....
0440: 80 7C 00 1D B0 0F 01 2B  1D B0 0F 01 30 80 1C 12  .|.....+....0...
0450: 80 23 7C 01 1D B0 0F 01  27 10 1D B0 0F 01 0F 1C  .#|.....'.......
0460: 10 80 5B 0F 80 1C B0 0F  01 1C B0 0F 01 74 68 6B  ..[..........thk
0470: 31 2B 1D B0 0F 01 31 80  1C 10 80 4A F0 FF FF 7F  1+....1....J....
0480: 1D B0 0F 01 23 2A 10 1D  B0 0F 01 5C 00 32 80 5C  ....#*.....\.2.\
0490: 01 32 80 9A 52 11 80 F0  FF FF 7F F0 FF FF 7F 33  .2..R..........3
04A0: 32 31 36 45 11 80 F0 FF  FF 7F F0 FF FF 7F 33 32  216E..........32
04B0: 31 37 01 80 2B 1D B0 0F  01 33 80 23 4A 1C B0 0F  17..+....3.#J...
04C0: 01 1D B0 0F 01 52 11 80  F0 FF FF 7F F0 FF FF 7F  .....R..........
04D0: 33 32 31 37 45 11 80 F0  FF FF 7F F0 FF FF 7F 33  3217E..........3
04E0: 32 31 38 01 80 2B 1C B0  0F 01 34 80 23 52 11 80  218..+....4.#R..
04F0: F0 FF FF 7F F0 FF FF 7F  33 32 31 38 45 11 80 F0  ........3218E...
0500: FF FF 7F F0 FF FF 7F 33  32 31 39 01 80 1C 10 80  .......3219.....
0510: 2B 1D B0 0F 01 35 80 23  52 11 80 F0 FF FF 7F F0  +....5.#R.......
0520: FF FF 7F 33 32 31 39 45  11 80 F0 FF FF 7F F0 FF  ...3219E........
0530: FF 7F 33 32 32 30 01 80  03 02 10 36 80 27 10 1E  ..3220.....6.'..
0540: B0 0F 01 01 2B 1D B0 0F  01 37 80 1C 12 80 9F 1F  ....+....7......
0550: 80 1D B0 0F 01 1D B0 0F  01 6B 69 6C 6C 01 80 9F  .........kill...
0560: 38 80 1D B0 0F 01 1D B0  0F 01 6D 61 69 6E 01 80  8.........main..
0570: 1C 12 80 23 2B 1D B0 0F  01 39 80 23 2B 1D B0 0F  ...#+....9.#+...
0580: 01 3A 80 23 2A 10 1E B0  0F 01 52 11 80 F0 FF FF  .:.#*.....R.....
0590: 7F F0 FF FF 7F 33 32 32  30 45 11 80 F0 FF FF 7F  .....3220E......
05A0: F0 FF FF 7F 33 32 32 32  01 80 2B 1C B0 0F 01 3B  ....3222..+....;
05B0: 80 23 5B 26 80 1D B0 0F  01 1D B0 0F 01 74 68 6B  .#[&.........thk
05C0: 30 1C 12 80 2B 1D B0 0F  01 3C 80 23 52 11 80 F0  0...+....<.#R...
05D0: FF FF 7F F0 FF FF 7F 33  32 32 32 45 11 80 F0 FF  .......3222E....
05E0: FF 7F F0 FF FF 7F 33 32  32 39 01 80 1C 12 80 2B  ......3229.....+
05F0: 1D B0 0F 01 3D 80 23 2B  1D B0 0F 01 3E 80 23 52  ....=.#+....>.#R
0600: 11 80 F0 FF FF 7F F0 FF  FF 7F 33 32 32 39 45 11  ..........3229E.
0610: 80 F0 FF FF 7F F0 FF FF  7F 33 32 32 33 01 80 5B  .........3223..[
0620: 26 80 1D B0 0F 01 1D B0  0F 01 74 68 6B 31 1C 12  &.........thk1..
0630: 80 2B 1D B0 0F 01 3F 80  23 52 11 80 F0 FF FF 7F  .+....?.#R......
0640: F0 FF FF 7F 33 32 32 33  45 11 80 F0 FF FF 7F F0  ....3223E.......
0650: FF FF 7F 33 32 32 34 01  80 1C 12 80 2B 1D B0 0F  ...3224.....+...
0660: 01 40 80 23 2B 1C B0 0F  01 41 80 23 52 11 80 F0  .@.#+....A.#R...
0670: FF FF 7F F0 FF FF 7F 33  32 32 34 45 11 80 F0 FF  .......3224E....
0680: FF 7F F0 FF FF 7F 33 32  32 35 01 80 5B 0F 80 1C  ......3225..[...
0690: B0 0F 01 1C B0 0F 01 74  6C 6B 30 2B 1C B0 0F 01  .......tlk0+....
06A0: 42 80 23 1C 13 80 23 5B  0F 80 1C B0 0F 01 1C B0  B.#...#[........
06B0: 0F 01 74 6C 6B 31 2B 1C  B0 0F 01 43 80 23 4A 1D  ..tlk1+....C.#J.
06C0: B0 0F 01 1C B0 0F 01 52  11 80 F0 FF FF 7F F0 FF  .......R........
06D0: FF 7F 33 32 32 35 45 11  80 F0 FF FF 7F F0 FF FF  ..3225E.........
06E0: 7F 33 32 32 36 01 80 1C  10 80 2B 1D B0 0F 01 44  .3226.....+....D
06F0: 80 23 2B 1C B0 0F 01 45  80 23 2B 1D B0 0F 01 46  .#+....E.#+....F
0700: 80 23 52 11 80 F0 FF FF  7F F0 FF FF 7F 33 32 32  .#R..........322
0710: 36 45 11 80 F0 FF FF 7F  F0 FF FF 7F 33 32 32 37  6E..........3227
0720: 01 80 1C 47 80 2B 1D B0  0F 01 48 80 23 27 10 1C  ...G.+....H.#'..
0730: B0 0F 01 11 1C 10 80 52  11 80 F0 FF FF 7F F0 FF  .......R........
0740: FF 7F 33 32 32 37 45 11  80 F0 FF FF 7F F0 FF FF  ..3227E.........
0750: 7F 33 32 32 38 01 80 1C  10 80 2B 1C B0 0F 01 49  .3228.....+....I
0760: 80 1C 10 80 4A F0 FF FF  7F 1C B0 0F 01 1C 13 80  ....J...........
0770: 23 2A 10 1C B0 0F 01 52  11 80 F0 FF FF 7F F0 FF  #*.....R........
0780: FF 7F 33 32 32 38 45 11  80 F0 FF FF 7F F0 FF FF  ..3228E.........
0790: 7F 33 32 33 30 01 80 2B  1D B0 0F 01 4A 80 23 52  .3230..+....J.#R
07A0: 11 80 F0 FF FF 7F F0 FF  FF 7F 33 32 33 30 45 11  ..........3230E.
07B0: 80 F0 FF FF 7F F0 FF FF  7F 33 32 33 31 01 80 1C  .........3231...
07C0: 12 80 5D 01 80 4B 80 2B  1D B0 0F 01 4C 80 1C 10  ..]..K.+....L...
07D0: 80 4A F0 FF FF 7F 1D B0  0F 01 1C 13 80 23 2B 1D  .J...........#+.
07E0: B0 0F 01 4D 80 23 5B 0F  80 1C B0 0F 01 1C B0 0F  ...M.#[.........
07F0: 01 74 68 6B 30 2B 1D B0  0F 01 4E 80 23 52 11 80  .thk0+....N.#R..
0800: F0 FF FF 7F F0 FF FF 7F  33 32 33 31 45 11 80 F0  ........3231E...
0810: FF FF 7F F0 FF FF 7F 33  32 33 32 01 80 2B 1D B0  .......3232..+..
0820: 0F 01 4F 80 23 52 11 80  F0 FF FF 7F F0 FF FF 7F  ..O.#R..........
0830: 33 32 33 32 02 03 00 04  80 80 50 08 45 11 80 F0  3232......P.E...
0840: FF FF 7F F0 FF FF 7F 33  32 68 6D 01 80 01 14 09  .......32hm.....
0850: 02 03 00 50 80 80 6C 08  45 11 80 F0 FF FF 7F F0  ...P..l.E.......
0860: FF FF 7F 33 32 68 66 01  80 01 14 09 02 03 00 51  ...32hf........Q
0870: 80 80 88 08 45 11 80 F0  FF FF 7F F0 FF FF 7F 33  ....E..........3
0880: 32 65 6D 01 80 01 14 09  02 03 00 52 80 80 A4 08  2em........R....
0890: 45 11 80 F0 FF FF 7F F0  FF FF 7F 33 32 65 66 01  E..........32ef.
08A0: 80 01 14 09 02 03 00 53  80 80 C0 08 45 11 80 F0  .......S....E...
08B0: FF FF 7F F0 FF FF 7F 33  32 74 72 01 80 01 14 09  .......32tr.....
08C0: 02 03 00 54 80 80 DC 08  45 11 80 F0 FF FF 7F F0  ...T....E.......
08D0: FF FF 7F 33 32 74 72 01  80 01 14 09 02 03 00 55  ...32tr........U
08E0: 80 80 F8 08 45 11 80 F0  FF FF 7F F0 FF FF 7F 33  ....E..........3
08F0: 32 6D 74 01 80 01 14 09  02 03 00 56 80 80 14 09  2mt........V....
0900: 45 11 80 F0 FF FF 7F F0  FF FF 7F 33 32 67 6C 01  E..........32gl.
0910: 80 01 14 09 24 57 80 01  80 01 80 25 02 00 10 01  ....$W.....%....
0920: 80 00 FD 09 6E F0 FF FF  7F 54 80 99 F0 FF FF 7F  ....n....T......
0930: 1C 47 80 79 00 1D B0 0F  01 F0 FF FF 7F 52 11 80  .G.y.........R..
0940: F0 FF FF 7F F0 FF FF 7F  33 32 68 6D 52 11 80 F0  ........32hmR...
0950: FF FF 7F F0 FF FF 7F 33  32 68 66 52 11 80 F0 FF  .......32hfR....
0960: FF 7F F0 FF FF 7F 33 32  65 6D 52 11 80 F0 FF FF  ......32emR.....
0970: 7F F0 FF FF 7F 33 32 65  66 52 11 80 F0 FF FF 7F  .....32efR......
0980: F0 FF FF 7F 33 32 74 72  52 11 80 F0 FF FF 7F F0  ....32trR.......
0990: FF FF 7F 33 32 6D 74 52  11 80 F0 FF FF 7F F0 FF  ...32mtR........
09A0: FF 7F 33 32 67 6C 45 11  80 F0 FF FF 7F F0 FF FF  ..32glE.........
09B0: 7F 33 32 33 33 01 80 1C  10 80 2B 1D B0 0F 01 58  .3233.....+....X
09C0: 80 23 52 11 80 F0 FF FF  7F F0 FF FF 7F 33 32 33  .#R..........323
09D0: 33 45 11 80 F0 FF FF 7F  F0 FF FF 7F 33 32 33 34  3E..........3234
09E0: 01 80 2B 1C B0 0F 01 59  80 1C 10 80 79 00 1D B0  ..+....Y....y...
09F0: 0F 01 1C B0 0F 01 1C 13  80 23 01 98 0A 02 00 10  .........#......
0A00: 04 80 00 98 0A 1C 12 80  52 11 80 F0 FF FF 7F F0  ........R.......
0A10: FF FF 7F 33 32 68 6D 52  11 80 F0 FF FF 7F F0 FF  ...32hmR........
0A20: FF 7F 33 32 68 66 52 11  80 F0 FF FF 7F F0 FF FF  ..32hfR.........
0A30: 7F 33 32 65 6D 52 11 80  F0 FF FF 7F F0 FF FF 7F  .32emR..........
0A40: 33 32 65 66 52 11 80 F0  FF FF 7F F0 FF FF 7F 33  32efR..........3
0A50: 32 74 72 52 11 80 F0 FF  FF 7F F0 FF FF 7F 33 32  2trR..........32
0A60: 6D 74 52 11 80 F0 FF FF  7F F0 FF FF 7F 33 32 67  mtR..........32g
0A70: 6C 45 11 80 F0 FF FF 7F  F0 FF FF 7F 33 32 33 34  lE..........3234
0A80: 01 80 1C 12 80 2B 1C B0  0F 01 5A 80 23 2B 1C B0  .....+....Z.#+..
0A90: 0F 01 5B 80 23 01 98 0A  5C 00 5C 80 5C 01 5C 80  ..[.#...\.\.\.\.
0AA0: 9A 4A F0 FF FF 7F 1C B0  0F 01 52 11 80 F0 FF FF  .J........R.....
0AB0: 7F F0 FF FF 7F 33 32 33  34 45 11 80 F0 FF FF 7F  .....3234E......
0AC0: F0 FF FF 7F 33 32 33 35  01 80 2B 1C B0 0F 01 5D  ....3235..+....]
0AD0: 80 23 5B 0F 80 1C B0 0F  01 1C B0 0F 01 74 68 6B  .#[..........thk
0AE0: 31 1C 12 80 2B 1C B0 0F  01 5E 80 23 53 1C B0 0F  1...+....^.#S...
0AF0: 01 1C B0 0F 01 74 68 6B  31 4A 1C B0 0F 01 1D B0  .....thk1J......
0B00: 0F 01 6F 76 1C B0 0F 01  52 11 80 F0 FF FF 7F F0  ..ov....R.......
0B10: FF FF 7F 33 32 33 35 45  11 80 F0 FF FF 7F F0 FF  ...3235E........
0B20: FF 7F 33 32 33 36 01 80  27 10 1C B0 0F 01 10 1C  ..3236..'.......
0B30: 10 80 2B 1C B0 0F 01 5F  80 23 2A 10 1C B0 0F 01  ..+...._.#*.....
0B40: 2B 1C B0 0F 01 60 80 23  52 11 80 F0 FF FF 7F F0  +....`.#R.......
0B50: FF FF 7F 33 32 33 36 45  11 80 F0 FF FF 7F F0 FF  ...3236E........
0B60: FF 7F 33 32 33 37 01 80  1C 10 80 4A F0 FF FF 7F  ..3237.....J....
0B70: 1C B0 0F 01 2B 1D B0 0F  01 61 80 1C 47 80 23 52  ....+....a..G.#R
0B80: 11 80 F0 FF FF 7F F0 FF  FF 7F 33 32 33 37 45 11  ..........3237E.
0B90: 80 F0 FF FF 7F F0 FF FF  7F 33 32 33 38 01 80 79  .........3238..y
0BA0: 00 1C B0 0F 01 F0 FF FF  7F 2B 1C B0 0F 01 62 80  .........+....b.
0BB0: 23 5B 0F 80 1C B0 0F 01  1C B0 0F 01 74 68 6B 31  #[..........thk1
0BC0: 1C 10 80 2B 1C B0 0F 01  63 80 23 52 11 80 F0 FF  ...+....c.#R....
0BD0: FF 7F F0 FF FF 7F 33 32  33 38 45 11 80 F0 FF FF  ......3238E.....
0BE0: 7F F0 FF FF 7F 33 32 33  39 01 80 7B 1C B0 0F 01  .....3239..{....
0BF0: 2B 1C B0 0F 01 64 80 23  2B 1D B0 0F 01 65 80 23  +....d.#+....e.#
0C00: 53 1C B0 0F 01 1C B0 0F  01 74 68 6B 31 5B 0F 80  S........thk1[..
0C10: 1C B0 0F 01 1C B0 0F 01  74 6C 6B 30 2B 1C B0 0F  ........tlk0+...
0C20: 01 66 80 1C 13 80 23 52  11 80 F0 FF FF 7F F0 FF  .f....#R........
0C30: FF 7F 33 32 33 39 45 11  80 F0 FF FF 7F F0 FF FF  ..3239E.........
0C40: 7F 33 32 34 30 01 80 5B  0F 80 1C B0 0F 01 1C B0  .3240..[........
0C50: 0F 01 74 6C 6B 31 2B 1C  B0 0F 01 67 80 23 53 1C  ..tlk1+....g.#S.
0C60: B0 0F 01 1C B0 0F 01 74  6C 6B 31 52 11 80 F0 FF  .......tlk1R....
0C70: FF 7F F0 FF FF 7F 33 32  34 30 45 11 80 F0 FF FF  ......3240E.....
0C80: 7F F0 FF FF 7F 33 32 34  31 01 80 4A 1C B0 0F 01  .....3241..J....
0C90: F0 FF FF 7F 7B 1C B0 0F  01 1C 10 80 2B 1C B0 0F  ....{.......+...
0CA0: 01 68 80 23 6F 76 1C B0  0F 01 24 69 80 01 80 01  .h.#ov....$i....
0CB0: 80 25 02 00 10 01 80 00  1F 0D 6E F0 FF FF 7F 6A  .%........n....j
0CC0: 80 99 F0 FF FF 7F 1C 47  80 52 11 80 F0 FF FF 7F  .......G.R......
0CD0: F0 FF FF 7F 33 32 34 31  45 11 80 F0 FF FF 7F F0  ....3241E.......
0CE0: FF FF 7F 33 32 34 32 01  80 1C 12 80 2B 1D B0 0F  ...3242.....+...
0CF0: 01 58 80 23 52 11 80 F0  FF FF 7F F0 FF FF 7F 33  .X.#R..........3
0D00: 32 34 32 45 11 80 F0 FF  FF 7F F0 FF FF 7F 33 32  242E..........32
0D10: 34 33 01 80 2B 1C B0 0F  01 6B 80 23 01 A5 0D 02  43..+....k.#....
0D20: 00 10 04 80 00 A5 0D 6E  F0 FF FF 7F 54 80 99 F0  .......n....T...
0D30: FF FF 7F 1C 28 80 52 11  80 F0 FF FF 7F F0 FF FF  ....(.R.........
0D40: 7F 33 32 34 31 45 11 80  F0 FF FF 7F F0 FF FF 7F  .3241E..........
0D50: 33 32 34 34 01 80 5B 0F  80 1C B0 0F 01 1C B0 0F  3244..[.........
0D60: 01 74 6C 6B 30 2B 1C B0  0F 01 6C 80 1C 13 80 23  .tlk0+....l....#
0D70: 5B 0F 80 1C B0 0F 01 1C  B0 0F 01 74 6C 6B 31 52  [..........tlk1R
0D80: 11 80 F0 FF FF 7F F0 FF  FF 7F 33 32 34 34 45 11  ..........3244E.
0D90: 80 F0 FF FF 7F F0 FF FF  7F 33 32 34 31 01 80 01  .........3241...
0DA0: AA 0C 01 A5 0D 52 11 80  F0 FF FF 7F F0 FF FF 7F  .....R..........
0DB0: 33 32 34 33 45 11 80 F0  FF FF 7F F0 FF FF 7F 33  3243E..........3
0DC0: 32 34 35 01 80 2B 1D B0  0F 01 6D 80 79 00 1C B0  245..+....m.y...
0DD0: 0F 01 1D B0 0F 01 1C 10  80 4A F0 FF FF 7F 1D B0  .........J......
0DE0: 0F 01 1C 47 80 23 52 11  80 F0 FF FF 7F F0 FF FF  ...G.#R.........
0DF0: 7F 33 32 34 35 45 11 80  F0 FF FF 7F F0 FF FF 7F  .3245E..........
0E00: 33 32 34 36 01 80 2B 1D  B0 0F 01 6E 80 23 2B 1D  3246..+....n.#+.
0E10: B0 0F 01 6F 80 23 5D 01  80 4B 80 52 11 80 F0 FF  ...o.#]..K.R....
0E20: FF 7F F0 FF FF 7F 33 32  34 36 45 11 80 F0 FF FF  ......3246E.....
0E30: 7F F0 FF FF 7F 33 32 34  37 01 80 4A 1C B0 0F 01  .....3247..J....
0E40: 1D B0 0F 01 1C 10 80 27  10 1F B0 0F 01 05 1C 47  .......'.......G
0E50: 80 9F 38 80 1D B0 0F 01  1D B0 0F 01 6B 69 65 30  ..8.........kie0
0E60: 01 80 1C 13 80 4A 1C B0  0F 01 F0 FF FF 7F 1C 10  .....J..........
0E70: 80 52 11 80 F0 FF FF 7F  F0 FF FF 7F 33 32 34 37  .R..........3247
0E80: 45 11 80 F0 FF FF 7F F0  FF FF 7F 33 32 34 38 01  E..........3248.
0E90: 80 2B 1C B0 0F 01 70 80  1C 10 80 4A F0 FF FF 7F  .+....p....J....
0EA0: 1C B0 0F 01 1C 13 80 23  52 11 80 F0 FF FF 7F F0  .......#R.......
0EB0: FF FF 7F 33 32 34 38 45  11 80 F0 FF FF 7F F0 FF  ...3248E........
0EC0: FF 7F 33 32 34 39 01 80  5B 0F 80 1C B0 0F 01 1C  ..3249..[.......
0ED0: B0 0F 01 74 68 6B 30 1C  28 80 2B 1C B0 0F 01 71  ...thk0.(.+....q
0EE0: 80 23 2B 1C B0 0F 01 72  80 23 52 11 80 F0 FF FF  .#+....r.#R.....
0EF0: 7F F0 FF FF 7F 33 32 34  39 45 11 80 F0 FF FF 7F  .....3249E......
0F00: F0 FF FF 7F 33 32 35 30  01 80 5B 0F 80 1C B0 0F  ....3250..[.....
0F10: 01 1C B0 0F 01 74 68 6B  31 1C 12 80 2B 1C B0 0F  .....thk1...+...
0F20: 01 73 80 23 2B 1C B0 0F  01 74 80 23 1A DA 2C 1C  .s.#+....t.#..,.
0F30: 10 80 52 11 80 F0 FF FF  7F F0 FF FF 7F 33 32 35  ..R..........325
0F40: 30 45 11 80 F0 FF FF 7F  F0 FF FF 7F 30 62 6C 66  0E..........0blf
0F50: 01 80 02 02 00 01 80 00  5D 0F 01 63 0F 78 1C 04  ........]..c.x..
0F60: 80 AB 0A 5C 00 75 80 5C  01 75 80 9A 46 00 45 76  ...\.u.\.u..F.Ev
0F70: 80 F0 FF FF 7F F0 FF FF  7F 66 64 69 32 01 80 21  .........fdi2..!
0F80: 00                                                .               
```

#### Opcodes

```
  0: 0x0001 [0x42] SET_CLI_EVENT_CANCEL_DATA()
  1: 0x0002 [0x1A] CALL_SUBROUTINE(address=0x2CDA)
  2: 0x0005 [0x46] CAMERA_CONTROL: Disable user control
  3: 0x0007 [0x38] SET_CLIENT_EVENT_MODE(mode=19*)
  4: 0x000A [0x4E] SET_ENTITY_HIDE_FLAG: Show LocalPlayer
  5: 0x0010 [0x02] IF !(ExtData[1]->WorkLocal[2] == 0*) GOTO 0x001B
  6: 0x0018 [0x01] GOTO 0x0025
  7: 0x001B [0x77] SET_EVENT_TIME_WEATHER(hour=18*, weather=255*)
  8: 0x0020 [0x1C] WAIT(1* ticks)
  9: 0x0023 [0xAB] EventEntity->UnknownFlag = 1 // Enable unknown flag

SUBROUTINE_0025:
 10: 0x0025 [0x27] REQ_SET(priority=0x10, entity_id=Unnamed NPC (ID: 17805340/0x010FB01C), tag_num=0x04)
 11: 0x002C [0x27] REQ_SET(priority=0x10, entity_id=Unnamed NPC (ID: 17805341/0x010FB01D), tag_num=0x04)
 12: 0x0033 [0x92] Unnamed NPC (ID: 17805340/0x010FB01C)->Render.Flags3 ^= 0x01
 13: 0x0039 [0x94] LocalPlayer->Render.Flags3 ^= 0x01
 14: 0x003F [0x94] Unnamed NPC (ID: 17805340/0x010FB01C)->Render.Flags3 ^= 0x01
 15: 0x0045 [0x94] Unnamed NPC (ID: 17805341/0x010FB01D)->Render.Flags3 ^= 0x01
 16: 0x004B [0xBA] SET_ENTITY_POSITION(entity_id=LocalPlayer, pos_x=0.022*, pos_z=-44.179*, pos_y=-12.300*, direction=270.0°*)
 17: 0x0058 [0xBA] SET_ENTITY_POSITION(entity_id=Unnamed NPC (ID: 17805340/0x010FB01C), pos_x=-3.974*, pos_z=-0.193*, pos_y=-12.999*, direction=161.4°*)
 18: 0x0065 [0xBA] SET_ENTITY_POSITION(entity_id=Unnamed NPC (ID: 17805341/0x010FB01D), pos_x=0.000*, pos_z=0.104*, pos_y=-12.999*, direction=90.0°*)
 19: 0x0072 [0x29] REQ_SET_WAIT(priority=0x10, entity_id=Unnamed NPC (ID: 17805340/0x010FB01C), tag_num=0x08)
 20: 0x0079 [0x29] REQ_SET_WAIT(priority=0x10, entity_id=Unnamed NPC (ID: 17805341/0x010FB01D), tag_num=0x08)
 21: 0x0080 [0x29] REQ_SET_WAIT(priority=0x10, entity_id=Unnamed NPC (ID: 17805340/0x010FB01C), tag_num=0x0A)
 22: 0x0087 [0x29] REQ_SET_WAIT(priority=0x10, entity_id=Unnamed NPC (ID: 17805341/0x010FB01D), tag_num=0x09)
 23: 0x008E [0x80] LOAD_WAIT(entity=LocalPlayer)
 24: 0x0093 [0x80] LOAD_WAIT(entity=Unnamed NPC (ID: 17805340/0x010FB01C))
 25: 0x0098 [0x80] LOAD_WAIT(entity=Unnamed NPC (ID: 17805341/0x010FB01D))
 26: 0x009D [0x5B] LOAD_EXT_SCHEDULER: Load scheduler "thk0" with entities [Unnamed NPC (ID: 17805340/0x010FB01C), Unnamed NPC (ID: 17805340/0x010FB01C)], work=566*
 27: 0x00AC [0x29] REQ_SET_WAIT(priority=0x10, entity_id=LocalPlayer, tag_num=0x16)
 28: 0x00B3 [0x03] ExtData[1]->WorkLocal[3] = Work_Zone[2]
 29: 0x00B8 [0x6C] FADE_ENTITY_COLOR(entity_id=Unnamed NPC (ID: 17805341/0x010FB01D), end_alpha=0*, fade_time=1*)
 30: 0x00C1 [0x1C] WAIT(30* ticks)
 31: 0x00C4 [0x27] REQ_SET(priority=0x10, entity_id=LocalPlayer, tag_num=0x1D)
 32: 0x00CB [0x45] LOAD_SCHEDULED_TASK: Load scheduler "3200" with entities [LocalPlayer, LocalPlayer], work=[559*, 0*]
 33: 0x00DC [0x1A] CALL_SUBROUTINE(address=0x2CB9)
 34: 0x00DF [0x2A] GET_REQ_LEVEL(level=16, entity_id=LocalPlayer)
 35: 0x00E5 [0x1C] WAIT(60* ticks)
 36: 0x00E8 [0x52] END_LOAD_SCHEDULER: End scheduler "3200" with entities [LocalPlayer, LocalPlayer], work=559*
 37: 0x00F7 [0x45] LOAD_SCHEDULED_TASK: Load scheduler "3201" with entities [LocalPlayer, LocalPlayer], work=[559*, 0*]
 38: 0x0108 [0x1C] WAIT(120* ticks)
 39: 0x010B [0x1A] CALL_SUBROUTINE(address=0x2CDA)
 40: 0x010E [0x1C] WAIT(30* ticks)
 41: 0x0111 [0x6B] STOP_AND_IDLE: Unnamed NPC (ID: 17805340/0x010FB01C) stops current action and resets to idle (animation="idl0")
 42: 0x011A [0xBA] SET_ENTITY_POSITION(entity_id=LocalPlayer, pos_x=-2.785*, pos_z=-5.547*, pos_y=-12.999*, direction=270.1°*)
 43: 0x0127 [0x4A] LocalPlayer looks at Unnamed NPC (ID: 17805340/0x010FB01C)
 44: 0x0130 [0x4A] Unnamed NPC (ID: 17805340/0x010FB01C) looks at LocalPlayer
 45: 0x0139 [0x7B] Unnamed NPC (ID: 17805340/0x010FB01C) stops talking
 46: 0x013E [0x48] [System] [7198*]:
    → ""
 47: 0x0141 [0x23] WAIT_FOR_DIALOG_INTERACTION
 48: 0x0142 [0x52] END_LOAD_SCHEDULER: End scheduler "3201" with entities [LocalPlayer, LocalPlayer], work=559*
 49: 0x0151 [0x45] LOAD_SCHEDULED_TASK: Load scheduler "3202" with entities [LocalPlayer, LocalPlayer], work=[559*, 0*]
 50: 0x0162 [0x1A] CALL_SUBROUTINE(address=0x2CB9)
 51: 0x0165 [0x2B] Unnamed NPC (ID: 17805340/0x010FB01C) [7415*]:
    → "Arrrg, <Player>. Mighty good o' ye t' oblige me invite t' this out-o'-the-way place, matey."
 52: 0x016C [0x23] WAIT_FOR_DIALOG_INTERACTION
 53: 0x016D [0x52] END_LOAD_SCHEDULER: End scheduler "3202" with entities [LocalPlayer, LocalPlayer], work=559*
 54: 0x017C [0x45] LOAD_SCHEDULED_TASK: Load scheduler "3203" with entities [LocalPlayer, LocalPlayer], work=[559*, 0*]
 55: 0x018D [0x5B] LOAD_EXT_SCHEDULER: Load scheduler "tlk0" with entities [Unnamed NPC (ID: 17805340/0x010FB01C), Unnamed NPC (ID: 17805340/0x010FB01C)], work=566*
 56: 0x019C [0x2B] Unnamed NPC (ID: 17805340/0x010FB01C) [7416*]:
    → "Y'see, we be needin' the...errr, somethin' 'r whats hereabouts. Magenta field or some magnetic feel or some such. The sciency stuff be way off me maps. Here be monsters, yarrr."
 57: 0x01A3 [0x23] WAIT_FOR_DIALOG_INTERACTION
 58: 0x01A4 [0x2B] Unnamed NPC (ID: 17805340/0x010FB01C) [7417*]:
    → "Last we spoke--last I prrrattled, more like--I ga'e ye me solemn word I'd cork up me ramblin'. An' a pirate's word be as good as the gold he hoards. Arrrg."
 59: 0x01AB [0x23] WAIT_FOR_DIALOG_INTERACTION
 60: 0x01AC [0x52] END_LOAD_SCHEDULER: End scheduler "3203" with entities [LocalPlayer, LocalPlayer], work=559*
 61: 0x01BB [0x45] LOAD_SCHEDULED_TASK: Load scheduler "3204" with entities [LocalPlayer, LocalPlayer], work=[559*, 0*]
 62: 0x01CC [0x5B] LOAD_EXT_SCHEDULER: Load scheduler "tlk1" with entities [Unnamed NPC (ID: 17805340/0x010FB01C), Unnamed NPC (ID: 17805340/0x010FB01C)], work=566*
 63: 0x01DB [0x1C] WAIT(30* ticks)
 64: 0x01DE [0x5D] SET_MUSIC_VOLUME(volume=0*, fade_time=300*)
 65: 0x01E3 [0x2B] Unnamed NPC (ID: 17805340/0x010FB01C) [7418*]:
    → "So it oughta please ye t' know someone else'll do most o' the talkin' today."
 66: 0x01EA [0x23] WAIT_FOR_DIALOG_INTERACTION
 67: 0x01EB [0x53] WAIT_SCHEDULER_TASK: Wait for scheduler "tlk1" with entities [Unnamed NPC (ID: 17805340/0x010FB01C), Unnamed NPC (ID: 17805340/0x010FB01C)]
 68: 0x01F8 [0x27] REQ_SET(priority=0x10, entity_id=Unnamed NPC (ID: 17805340/0x010FB01C), tag_num=0x0F)
 69: 0x01FF [0x2B] Unnamed NPC (ID: 17805340/0x010FB01C) [7419*]:
    → "Who be the special guest, ye ask? Why, none other'n the lil' mistress ye'd shown so much interrrest in, matey. As it happens, the feelin' be mutual, an' she been askin' after ye too."
 70: 0x0206 [0x1C] WAIT(60* ticks)
 71: 0x0209 [0x27] REQ_SET(priority=0x10, entity_id=LocalPlayer, tag_num=0x1E)
 72: 0x0210 [0x23] WAIT_FOR_DIALOG_INTERACTION
 73: 0x0211 [0x2A] GET_REQ_LEVEL(level=16, entity_id=Unnamed NPC (ID: 17805340/0x010FB01C))
 74: 0x0217 [0x52] END_LOAD_SCHEDULER: End scheduler "3204" with entities [LocalPlayer, LocalPlayer], work=559*
 75: 0x0226 [0x45] LOAD_SCHEDULED_TASK: Load scheduler "3205" with entities [LocalPlayer, LocalPlayer], work=[559*, 0*]
 76: 0x0237 [0x2B] Unnamed NPC (ID: 17805340/0x010FB01C) [7420*]:
    → "Out ye come now, lil' missy. <Player>'s here an' awaitin' yer pleasurrre."
 77: 0x023E [0x23] WAIT_FOR_DIALOG_INTERACTION
 78: 0x023F [0x52] END_LOAD_SCHEDULER: End scheduler "3205" with entities [LocalPlayer, LocalPlayer], work=559*
 79: 0x024E [0x45] LOAD_SCHEDULED_TASK: Load scheduler "3206" with entities [LocalPlayer, LocalPlayer], work=[559*, 0*]
 80: 0x025F [0x27] REQ_SET(priority=0x10, entity_id=Unnamed NPC (ID: 17805340/0x010FB01C), tag_num=0x10)
 81: 0x0266 [0x9F] LOAD_SCHEDULED_TASK_ALT: Load scheduler "main" with entities [Unnamed NPC (ID: 17805341/0x010FB01D), Unnamed NPC (ID: 17805341/0x010FB01D)], work=[246*, 0*]
 82: 0x0277 [0x1C] WAIT(150* ticks)
 83: 0x027A [0x4A] LocalPlayer looks at Unnamed NPC (ID: 17805341/0x010FB01D)
 84: 0x0283 [0x1C] WAIT(360* ticks)
 85: 0x0286 [0x2B] Unnamed NPC (ID: 17805341/0x010FB01D) [7421*]:
    → "My gratitude for this favor, Gilgamesh."
 86: 0x028D [0x1C] WAIT(120* ticks)
 87: 0x0290 [0x23] WAIT_FOR_DIALOG_INTERACTION
 88: 0x0291 [0x52] END_LOAD_SCHEDULER: End scheduler "3206" with entities [LocalPlayer, LocalPlayer], work=559*
 89: 0x02A0 [0x45] LOAD_SCHEDULED_TASK: Load scheduler "3209" with entities [LocalPlayer, LocalPlayer], work=[559*, 0*]
 90: 0x02B1 [0x2B] Unnamed NPC (ID: 17805340/0x010FB01C) [7422*]:
    → "No call fer thanks, now. Hearin' out the whims o' peppy young lasses be as much a hobby o' mine as borin' hapless adventurers t' tears with me inane blatherin'. Arrrg."
 91: 0x02B8 [0x23] WAIT_FOR_DIALOG_INTERACTION
 92: 0x02B9 [0x52] END_LOAD_SCHEDULER: End scheduler "3209" with entities [LocalPlayer, LocalPlayer], work=559*
 93: 0x02C8 [0x45] LOAD_SCHEDULED_TASK: Load scheduler "3210" with entities [LocalPlayer, LocalPlayer], work=[559*, 0*]
 94: 0x02D9 [0x03] Work_Zone[2] = 300*
 95: 0x02DE [0x27] REQ_SET(priority=0x10, entity_id=??? (ID: 17805342/0x010FB01E), tag_num=0x01)
 96: 0x02E5 [0x29] REQ_SET_WAIT(priority=0x10, entity_id=Unnamed NPC (ID: 17805341/0x010FB01D), tag_num=0x0A)
 97: 0x02EC [0x2B] Unnamed NPC (ID: 17805341/0x010FB01D) [7423*]:
    → "Greetings, <Player>. My name is Esha'ntarl. Before I begin, please accept my apologies for having to appear before you in this unseemly state."
 98: 0x02F3 [0x23] WAIT_FOR_DIALOG_INTERACTION
 99: 0x02F4 [0x2B] Unnamed NPC (ID: 17805341/0x010FB01D) [7424*]:
    → "Unlike a chosen few, I do not possess the power to traverse worlds. For this reason, I requested that our meeting take place within the Hall of the Gods, that we might harness the energy that permeates these sacred grounds."
100: 0x02FB [0x23] WAIT_FOR_DIALOG_INTERACTION
101: 0x02FC [0x2A] GET_REQ_LEVEL(level=16, entity_id=??? (ID: 17805342/0x010FB01E))
102: 0x0302 [0x52] END_LOAD_SCHEDULER: End scheduler "3210" with entities [LocalPlayer, LocalPlayer], work=559*
103: 0x0311 [0x45] LOAD_SCHEDULED_TASK: Load scheduler "3212" with entities [LocalPlayer, LocalPlayer], work=[559*, 0*]
104: 0x0322 [0x5B] LOAD_EXT_SCHEDULER: Load scheduler "tlk0" with entities [Unnamed NPC (ID: 17805341/0x010FB01D), Unnamed NPC (ID: 17805341/0x010FB01D)], work=445*
105: 0x0331 [0x2B] Unnamed NPC (ID: 17805341/0x010FB01D) [7425*]:
    → "Never before had a partial dimensional crossing such as this been attempted. I must express my relief that the experiment is a success, else we might never have had the opportunity to speak."
106: 0x0338 [0x1C] WAIT(150* ticks)
107: 0x033B [0x23] WAIT_FOR_DIALOG_INTERACTION
108: 0x033C [0x52] END_LOAD_SCHEDULER: End scheduler "3212" with entities [LocalPlayer, LocalPlayer], work=559*
109: 0x034B [0x45] LOAD_SCHEDULED_TASK: Load scheduler "3213" with entities [LocalPlayer, LocalPlayer], work=[559*, 0*]
110: 0x035C [0x5B] LOAD_EXT_SCHEDULER: Load scheduler "tlk1" with entities [Unnamed NPC (ID: 17805341/0x010FB01D), Unnamed NPC (ID: 17805341/0x010FB01D)], work=445*
111: 0x036B [0x1C] WAIT(45* ticks)
112: 0x036E [0x03] Work_Zone[1] = 1*
113: 0x0373 [0x43] SEND_EVENT_UPDATE: Send pending tag to server (packet 0x005B)
114: 0x0375 [0x43] SEND_EVENT_UPDATE: Check pending flag (skip if not pending)
115: 0x0377 [0x02] IF !(Work_Zone[9] == 1*) GOTO 0x038A
116: 0x037F [0x2B] Unnamed NPC (ID: 17805341/0x010FB01D) [7426*]:
    → "Judging by your expression, I gather we are already acquainted in your world. It would seem fate has had a hand in bringing us together once more."
117: 0x0386 [0x23] WAIT_FOR_DIALOG_INTERACTION
118: 0x0387 [0x01] GOTO 0x039A
119: 0x038A [0x2B] Unnamed NPC (ID: 17805341/0x010FB01D) [7427*]:
    → "Your wary expression tells me you have yet to cross paths with my counterpart in Vana'diel."
120: 0x0391 [0x23] WAIT_FOR_DIALOG_INTERACTION
121: 0x0392 [0x2B] Unnamed NPC (ID: 17805341/0x010FB01D) [7428*]:
    → "Nevertheless, fate has now deemed it fit that we meet."
122: 0x0399 [0x23] WAIT_FOR_DIALOG_INTERACTION

SUBROUTINE_039A:
123: 0x039A [0x52] END_LOAD_SCHEDULER: End scheduler "3213" with entities [LocalPlayer, LocalPlayer], work=559*
124: 0x03A9 [0x45] LOAD_SCHEDULED_TASK: Load scheduler "3214" with entities [LocalPlayer, LocalPlayer], work=[559*, 0*]
125: 0x03BA [0x5B] LOAD_EXT_SCHEDULER: Load scheduler "tlk0" with entities [Unnamed NPC (ID: 17805341/0x010FB01D), Unnamed NPC (ID: 17805341/0x010FB01D)], work=445*
126: 0x03C9 [0x1C] WAIT(30* ticks)
127: 0x03CC [0x2B] Unnamed NPC (ID: 17805341/0x010FB01D) [7429*]:
    → "The world of mortals--the collective lives of men--is as a great river, formed of innumerable tributaries converging upon a single, torrential flow."
128: 0x03D3 [0x23] WAIT_FOR_DIALOG_INTERACTION
129: 0x03D4 [0x2B] Unnamed NPC (ID: 17805341/0x010FB01D) [7430*]:
    → "And you, <Player>, are as a single leaf borne on the current...a current that brings together fellow drifters as often as it parts them."
130: 0x03DB [0x23] WAIT_FOR_DIALOG_INTERACTION
131: 0x03DC [0x52] END_LOAD_SCHEDULER: End scheduler "3214" with entities [LocalPlayer, LocalPlayer], work=559*
132: 0x03EB [0x45] LOAD_SCHEDULED_TASK: Load scheduler "3215" with entities [LocalPlayer, LocalPlayer], work=[559*, 0*]
133: 0x03FC [0x2B] Unnamed NPC (ID: 17805341/0x010FB01D) [7431*]:
    → "Be it distant future or forgotten past, such is your destiny as is writ in the stars."
134: 0x0403 [0x23] WAIT_FOR_DIALOG_INTERACTION
135: 0x0404 [0x5B] LOAD_EXT_SCHEDULER: Load scheduler "tlk1" with entities [Unnamed NPC (ID: 17805341/0x010FB01D), Unnamed NPC (ID: 17805341/0x010FB01D)], work=445*
136: 0x0413 [0x1C] WAIT(60* ticks)
137: 0x0416 [0x2B] Unnamed NPC (ID: 17805341/0x010FB01D) [7432*]:
    → "A destiny you share with your counterpart in Abyssea..."
138: 0x041D [0x23] WAIT_FOR_DIALOG_INTERACTION
139: 0x041E [0x52] END_LOAD_SCHEDULER: End scheduler "3215" with entities [LocalPlayer, LocalPlayer], work=559*
140: 0x042D [0x45] LOAD_SCHEDULED_TASK: Load scheduler "3216" with entities [LocalPlayer, LocalPlayer], work=[559*, 0*]
141: 0x043E [0x1C] WAIT(60* ticks)
142: 0x0441 [0x7C] Unnamed NPC (ID: 17805341/0x010FB01D)->Render.Flags2 |= 0x00
143: 0x0447 [0x2B] Unnamed NPC (ID: 17805341/0x010FB01D) [7433*]:
    → "..."
144: 0x044E [0x1C] WAIT(60* ticks)
145: 0x0451 [0x23] WAIT_FOR_DIALOG_INTERACTION
146: 0x0452 [0x7C] Unnamed NPC (ID: 17805341/0x010FB01D)->Render.Flags2 |= 0x01
147: 0x0458 [0x27] REQ_SET(priority=0x10, entity_id=Unnamed NPC (ID: 17805341/0x010FB01D), tag_num=0x0F)
148: 0x045F [0x1C] WAIT(30* ticks)
149: 0x0462 [0x5B] LOAD_EXT_SCHEDULER: Load scheduler "thk1" with entities [Unnamed NPC (ID: 17805340/0x010FB01C), Unnamed NPC (ID: 17805340/0x010FB01C)], work=566*
150: 0x0471 [0x2B] Unnamed NPC (ID: 17805341/0x010FB01D) [7434*]:
    → "Well do I know of your valor, <Player>, the selfless actions you have taken on our world's behalf. To you I would entrust the truth of Abyssea, a secret I have kept closely guarded for the longest time."
151: 0x0478 [0x1C] WAIT(30* ticks)
152: 0x047B [0x4A] LocalPlayer looks at Unnamed NPC (ID: 17805341/0x010FB01D)
153: 0x0484 [0x23] WAIT_FOR_DIALOG_INTERACTION
154: 0x0485 [0x2A] GET_REQ_LEVEL(level=16, entity_id=Unnamed NPC (ID: 17805341/0x010FB01D))
155: 0x048B [0x5C] MUSIC_CONTROL: Set Idle (Day) music to song 51*
156: 0x048F [0x5C] MUSIC_CONTROL: Set Idle (Night) music to song 51*
157: 0x0493 [0x9A] WAIT_MUSIC_SERVER()
158: 0x0494 [0x52] END_LOAD_SCHEDULER: End scheduler "3216" with entities [LocalPlayer, LocalPlayer], work=559*
159: 0x04A3 [0x45] LOAD_SCHEDULED_TASK: Load scheduler "3217" with entities [LocalPlayer, LocalPlayer], work=[559*, 0*]
160: 0x04B4 [0x2B] Unnamed NPC (ID: 17805341/0x010FB01D) [7435*]:
    → "The cataclysm that has ravaged the land--it is a thing spawned from the will of Promathia, a primeval divinity who has stirred to wakefulness with the coming of His worldly avatar."
161: 0x04BB [0x23] WAIT_FOR_DIALOG_INTERACTION
162: 0x04BC [0x4A] Unnamed NPC (ID: 17805340/0x010FB01C) looks at Unnamed NPC (ID: 17805341/0x010FB01D)
163: 0x04C5 [0x52] END_LOAD_SCHEDULER: End scheduler "3217" with entities [LocalPlayer, LocalPlayer], work=559*
164: 0x04D4 [0x45] LOAD_SCHEDULED_TASK: Load scheduler "3218" with entities [LocalPlayer, LocalPlayer], work=[559*, 0*]
165: 0x04E5 [0x2B] Unnamed NPC (ID: 17805340/0x010FB01C) [7436*]:
    → "Eh? A man-god? I gone me entirrre life thinkin' there be jus' the Goddess. Now ye say there also be a "He"?"
166: 0x04EC [0x23] WAIT_FOR_DIALOG_INTERACTION
167: 0x04ED [0x52] END_LOAD_SCHEDULER: End scheduler "3218" with entities [LocalPlayer, LocalPlayer], work=559*
168: 0x04FC [0x45] LOAD_SCHEDULED_TASK: Load scheduler "3219" with entities [LocalPlayer, LocalPlayer], work=[559*, 0*]
169: 0x050D [0x1C] WAIT(30* ticks)
170: 0x0510 [0x2B] Unnamed NPC (ID: 17805341/0x010FB01D) [7437*]:
    → "Correct. Also known as the Twilight God, Promathia has existed alongside the Dawn Goddess Altana since the beginning of time."
171: 0x0517 [0x23] WAIT_FOR_DIALOG_INTERACTION
172: 0x0518 [0x52] END_LOAD_SCHEDULER: End scheduler "3219" with entities [LocalPlayer, LocalPlayer], work=559*
173: 0x0527 [0x45] LOAD_SCHEDULED_TASK: Load scheduler "3220" with entities [LocalPlayer, LocalPlayer], work=[559*, 0*]
174: 0x0538 [0x03] Work_Zone[2] = 480*
175: 0x053D [0x27] REQ_SET(priority=0x10, entity_id=??? (ID: 17805342/0x010FB01E), tag_num=0x01)
176: 0x0544 [0x2B] Unnamed NPC (ID: 17805341/0x010FB01D) [7438*]:
    → "The statue erected within this hall, standing opposed to that of the Goddess, is none other than His likeness."
177: 0x054B [0x1C] WAIT(60* ticks)
178: 0x054E [0x9F] LOAD_SCHEDULED_TASK_ALT: Load scheduler "kill" with entities [Unnamed NPC (ID: 17805341/0x010FB01D), Unnamed NPC (ID: 17805341/0x010FB01D)], work=[246*, 0*]
179: 0x055F [0x9F] LOAD_SCHEDULED_TASK_ALT: Load scheduler "main" with entities [Unnamed NPC (ID: 17805341/0x010FB01D), Unnamed NPC (ID: 17805341/0x010FB01D)], work=[240*, 0*]
180: 0x0570 [0x1C] WAIT(60* ticks)
181: 0x0573 [0x23] WAIT_FOR_DIALOG_INTERACTION
182: 0x0574 [0x2B] Unnamed NPC (ID: 17805341/0x010FB01D) [7439*]:
    → "Much knowledge pertaining to Promathia's existence has long lain hidden from the prying eyes of mortals."
183: 0x057B [0x23] WAIT_FOR_DIALOG_INTERACTION
184: 0x057C [0x2B] Unnamed NPC (ID: 17805341/0x010FB01D) [7440*]:
    → "Indeed, that the world was born from the tragedy that befell the two divinities is known only to a select few."
185: 0x0583 [0x23] WAIT_FOR_DIALOG_INTERACTION
186: 0x0584 [0x2A] GET_REQ_LEVEL(level=16, entity_id=??? (ID: 17805342/0x010FB01E))
187: 0x058A [0x52] END_LOAD_SCHEDULER: End scheduler "3220" with entities [LocalPlayer, LocalPlayer], work=559*
188: 0x0599 [0x45] LOAD_SCHEDULED_TASK: Load scheduler "3222" with entities [LocalPlayer, LocalPlayer], work=[559*, 0*]
189: 0x05AA [0x2B] Unnamed NPC (ID: 17805340/0x010FB01C) [7441*]:
    → "Arrrg, this careerrr pirate ain't sure he follows..."
190: 0x05B1 [0x23] WAIT_FOR_DIALOG_INTERACTION
191: 0x05B2 [0x5B] LOAD_EXT_SCHEDULER: Load scheduler "thk0" with entities [Unnamed NPC (ID: 17805341/0x010FB01D), Unnamed NPC (ID: 17805341/0x010FB01D)], work=445*
192: 0x05C1 [0x1C] WAIT(60* ticks)
193: 0x05C4 [0x2B] Unnamed NPC (ID: 17805341/0x010FB01D) [7442*]:
    → "It was the Age of Gods. The Lord of Chaos, Promathia, desired and succumbed to complete death."
194: 0x05CB [0x23] WAIT_FOR_DIALOG_INTERACTION
195: 0x05CC [0x52] END_LOAD_SCHEDULER: End scheduler "3222" with entities [LocalPlayer, LocalPlayer], work=559*
196: 0x05DB [0x45] LOAD_SCHEDULED_TASK: Load scheduler "3229" with entities [LocalPlayer, LocalPlayer], work=[559*, 0*]
197: 0x05EC [0x1C] WAIT(60* ticks)
198: 0x05EF [0x2B] Unnamed NPC (ID: 17805341/0x010FB01D) [7443*]:
    → "In Her grief, Altana bestowed upon the fallen deity the light of the true crystal, and in so doing gave birth to life. Thus was mankind created."
199: 0x05F6 [0x23] WAIT_FOR_DIALOG_INTERACTION
200: 0x05F7 [0x2B] Unnamed NPC (ID: 17805341/0x010FB01D) [7444*]:
    → "The true crystal, drained of its power, shattered into five parts. Bereft of its blessed light, the realm of gods was reduced into the world of mortals, Abyssea."
201: 0x05FE [0x23] WAIT_FOR_DIALOG_INTERACTION
202: 0x05FF [0x52] END_LOAD_SCHEDULER: End scheduler "3229" with entities [LocalPlayer, LocalPlayer], work=559*
203: 0x060E [0x45] LOAD_SCHEDULED_TASK: Load scheduler "3223" with entities [LocalPlayer, LocalPlayer], work=[559*, 0*]
204: 0x061F [0x5B] LOAD_EXT_SCHEDULER: Load scheduler "thk1" with entities [Unnamed NPC (ID: 17805341/0x010FB01D), Unnamed NPC (ID: 17805341/0x010FB01D)], work=445*
205: 0x062E [0x1C] WAIT(60* ticks)
206: 0x0631 [0x2B] Unnamed NPC (ID: 17805341/0x010FB01D) [7445*]:
    → "Yet the will of the gods persisted, graven deep within mankind. And with it, the dream that the world be returned to its former state...that Paradise, the realm of gods, be restored."
207: 0x0638 [0x23] WAIT_FOR_DIALOG_INTERACTION
208: 0x0639 [0x52] END_LOAD_SCHEDULER: End scheduler "3223" with entities [LocalPlayer, LocalPlayer], work=559*
209: 0x0648 [0x45] LOAD_SCHEDULED_TASK: Load scheduler "3224" with entities [LocalPlayer, LocalPlayer], work=[559*, 0*]
210: 0x0659 [0x1C] WAIT(60* ticks)
211: 0x065C [0x2B] Unnamed NPC (ID: 17805341/0x010FB01D) [7446*]:
    → "So too did the desire for death live on unfading, a smoldering darkness--an Emptiness--within the souls of mortals."
212: 0x0663 [0x23] WAIT_FOR_DIALOG_INTERACTION
213: 0x0664 [0x2B] Unnamed NPC (ID: 17805340/0x010FB01C) [7447*]:
    → "Blimey..."
214: 0x066B [0x23] WAIT_FOR_DIALOG_INTERACTION
215: 0x066C [0x52] END_LOAD_SCHEDULER: End scheduler "3224" with entities [LocalPlayer, LocalPlayer], work=559*
216: 0x067B [0x45] LOAD_SCHEDULED_TASK: Load scheduler "3225" with entities [LocalPlayer, LocalPlayer], work=[559*, 0*]
217: 0x068C [0x5B] LOAD_EXT_SCHEDULER: Load scheduler "tlk0" with entities [Unnamed NPC (ID: 17805340/0x010FB01C), Unnamed NPC (ID: 17805340/0x010FB01C)], work=566*
218: 0x069B [0x2B] Unnamed NPC (ID: 17805340/0x010FB01C) [7448*]:
    → "I won't lie t' ye, missy. The bulk o' yer tale flew right over me head like a scrrreechin' gull. I think I grasp the meat o' it, though. This Proma...somethin'-or-other be the reason behind Abyssea's wretched state, aye?"
219: 0x06A2 [0x23] WAIT_FOR_DIALOG_INTERACTION
220: 0x06A3 [0x1C] WAIT(120* ticks)
221: 0x06A6 [0x23] WAIT_FOR_DIALOG_INTERACTION
222: 0x06A7 [0x5B] LOAD_EXT_SCHEDULER: Load scheduler "tlk1" with entities [Unnamed NPC (ID: 17805340/0x010FB01C), Unnamed NPC (ID: 17805340/0x010FB01C)], work=566*
223: 0x06B6 [0x2B] Unnamed NPC (ID: 17805340/0x010FB01C) [7449*]:
    → "But what be so terrible 'bout a dead deity bein' restored to life? Wouldn't a livin' god serve better'n a stiff one?"
224: 0x06BD [0x23] WAIT_FOR_DIALOG_INTERACTION
225: 0x06BE [0x4A] Unnamed NPC (ID: 17805341/0x010FB01D) looks at Unnamed NPC (ID: 17805340/0x010FB01C)
226: 0x06C7 [0x52] END_LOAD_SCHEDULER: End scheduler "3225" with entities [LocalPlayer, LocalPlayer], work=559*
227: 0x06D6 [0x45] LOAD_SCHEDULED_TASK: Load scheduler "3226" with entities [LocalPlayer, LocalPlayer], work=[559*, 0*]
228: 0x06E7 [0x1C] WAIT(30* ticks)
229: 0x06EA [0x2B] Unnamed NPC (ID: 17805341/0x010FB01D) [7450*]:
    → "That is not the case, I fear, for it was the Twilight God's death that brought forth mankind. His resurrection would therefore spell our demise."
230: 0x06F1 [0x23] WAIT_FOR_DIALOG_INTERACTION
231: 0x06F2 [0x2B] Unnamed NPC (ID: 17805340/0x010FB01C) [7451*]:
    → "By Leviathan's whiskers!"
232: 0x06F9 [0x23] WAIT_FOR_DIALOG_INTERACTION
233: 0x06FA [0x2B] Unnamed NPC (ID: 17805341/0x010FB01D) [7452*]:
    → "The disfiguring metamorphosis of the land is a manifestation of lives being reclaimed by Promathia. Drained of its power for eons, the true crystal, too, has begun to regain its erstwhile form and light."
234: 0x0701 [0x23] WAIT_FOR_DIALOG_INTERACTION
235: 0x0702 [0x52] END_LOAD_SCHEDULER: End scheduler "3226" with entities [LocalPlayer, LocalPlayer], work=559*
236: 0x0711 [0x45] LOAD_SCHEDULED_TASK: Load scheduler "3227" with entities [LocalPlayer, LocalPlayer], work=[559*, 0*]
237: 0x0722 [0x1C] WAIT(90* ticks)
238: 0x0725 [0x2B] Unnamed NPC (ID: 17805341/0x010FB01D) [7453*]:
    → "The wheels of the world's rebirth have been set in motion."
239: 0x072C [0x23] WAIT_FOR_DIALOG_INTERACTION
240: 0x072D [0x27] REQ_SET(priority=0x10, entity_id=Unnamed NPC (ID: 17805340/0x010FB01C), tag_num=0x11)
241: 0x0734 [0x1C] WAIT(30* ticks)
242: 0x0737 [0x52] END_LOAD_SCHEDULER: End scheduler "3227" with entities [LocalPlayer, LocalPlayer], work=559*
243: 0x0746 [0x45] LOAD_SCHEDULED_TASK: Load scheduler "3228" with entities [LocalPlayer, LocalPlayer], work=[559*, 0*]
244: 0x0757 [0x1C] WAIT(30* ticks)
245: 0x075A [0x2B] Unnamed NPC (ID: 17805340/0x010FB01C) [7454*]:
    → "Arrrg, so this be the culprit behind the reddenin' sky an' the earthquakes, among a host o' other things..."
246: 0x0761 [0x1C] WAIT(30* ticks)
247: 0x0764 [0x4A] LocalPlayer looks at Unnamed NPC (ID: 17805340/0x010FB01C)
248: 0x076D [0x1C] WAIT(120* ticks)
249: 0x0770 [0x23] WAIT_FOR_DIALOG_INTERACTION
250: 0x0771 [0x2A] GET_REQ_LEVEL(level=16, entity_id=Unnamed NPC (ID: 17805340/0x010FB01C))
251: 0x0777 [0x52] END_LOAD_SCHEDULER: End scheduler "3228" with entities [LocalPlayer, LocalPlayer], work=559*
252: 0x0786 [0x45] LOAD_SCHEDULED_TASK: Load scheduler "3230" with entities [LocalPlayer, LocalPlayer], work=[559*, 0*]
253: 0x0797 [0x2B] Unnamed NPC (ID: 17805341/0x010FB01D) [7455*]:
    → "Correct. The lattice-shaped breakdown of the land is proof positive of this reversion."
254: 0x079E [0x23] WAIT_FOR_DIALOG_INTERACTION
255: 0x079F [0x52] END_LOAD_SCHEDULER: End scheduler "3230" with entities [LocalPlayer, LocalPlayer], work=559*
256: 0x07AE [0x45] LOAD_SCHEDULED_TASK: Load scheduler "3231" with entities [LocalPlayer, LocalPlayer], work=[559*, 0*]
257: 0x07BF [0x1C] WAIT(60* ticks)
258: 0x07C2 [0x5D] SET_MUSIC_VOLUME(volume=0*, fade_time=600*)
259: 0x07C7 [0x2B] Unnamed NPC (ID: 17805341/0x010FB01D) [7456*]:
    → "<Player>. Gilgamesh. I must beg for your forgiveness."
260: 0x07CE [0x1C] WAIT(30* ticks)
261: 0x07D1 [0x4A] LocalPlayer looks at Unnamed NPC (ID: 17805341/0x010FB01D)
262: 0x07DA [0x1C] WAIT(120* ticks)
263: 0x07DD [0x23] WAIT_FOR_DIALOG_INTERACTION
264: 0x07DE [0x2B] Unnamed NPC (ID: 17805341/0x010FB01D) [7457*]:
    → "That this event would come to pass had been foretold since ancient times. It was my intent to be fully prepared when the day came--to be ready to avert disaster."
265: 0x07E5 [0x23] WAIT_FOR_DIALOG_INTERACTION
266: 0x07E6 [0x5B] LOAD_EXT_SCHEDULER: Load scheduler "thk0" with entities [Unnamed NPC (ID: 17805340/0x010FB01C), Unnamed NPC (ID: 17805340/0x010FB01C)], work=566*
267: 0x07F5 [0x2B] Unnamed NPC (ID: 17805341/0x010FB01D) [7458*]:
    → "But in the end, I was powerless before the unyielding avalanche of fate."
268: 0x07FC [0x23] WAIT_FOR_DIALOG_INTERACTION
269: 0x07FD [0x52] END_LOAD_SCHEDULER: End scheduler "3231" with entities [LocalPlayer, LocalPlayer], work=559*
270: 0x080C [0x45] LOAD_SCHEDULED_TASK: Load scheduler "3232" with entities [LocalPlayer, LocalPlayer], work=[559*, 0*]
271: 0x081D [0x2B] Unnamed NPC (ID: 17805341/0x010FB01D) [7459*]:
    → "That the people now suffer so is due to my impotence. The blame lies with me."
272: 0x0824 [0x23] WAIT_FOR_DIALOG_INTERACTION
273: 0x0825 [0x52] END_LOAD_SCHEDULER: End scheduler "3232" with entities [LocalPlayer, LocalPlayer], work=559*
274: 0x0834 [0x02] IF !(ExtData[1]->WorkLocal[3] == 1*) GOTO 0x0850
275: 0x083C [0x45] LOAD_SCHEDULED_TASK: Load scheduler "32hm" with entities [LocalPlayer, LocalPlayer], work=[559*, 0*]
276: 0x084D [0x01] GOTO 0x0914
277: 0x0850 [0x02] IF !(ExtData[1]->WorkLocal[3] == 2*) GOTO 0x086C
278: 0x0858 [0x45] LOAD_SCHEDULED_TASK: Load scheduler "32hf" with entities [LocalPlayer, LocalPlayer], work=[559*, 0*]
279: 0x0869 [0x01] GOTO 0x0914
280: 0x086C [0x02] IF !(ExtData[1]->WorkLocal[3] == 3*) GOTO 0x0888
281: 0x0874 [0x45] LOAD_SCHEDULED_TASK: Load scheduler "32em" with entities [LocalPlayer, LocalPlayer], work=[559*, 0*]
282: 0x0885 [0x01] GOTO 0x0914
283: 0x0888 [0x02] IF !(ExtData[1]->WorkLocal[3] == 4*) GOTO 0x08A4
284: 0x0890 [0x45] LOAD_SCHEDULED_TASK: Load scheduler "32ef" with entities [LocalPlayer, LocalPlayer], work=[559*, 0*]
285: 0x08A1 [0x01] GOTO 0x0914
286: 0x08A4 [0x02] IF !(ExtData[1]->WorkLocal[3] == 5*) GOTO 0x08C0
287: 0x08AC [0x45] LOAD_SCHEDULED_TASK: Load scheduler "32tr" with entities [LocalPlayer, LocalPlayer], work=[559*, 0*]
288: 0x08BD [0x01] GOTO 0x0914
289: 0x08C0 [0x02] IF !(ExtData[1]->WorkLocal[3] == 6*) GOTO 0x08DC
290: 0x08C8 [0x45] LOAD_SCHEDULED_TASK: Load scheduler "32tr" with entities [LocalPlayer, LocalPlayer], work=[559*, 0*]
291: 0x08D9 [0x01] GOTO 0x0914
292: 0x08DC [0x02] IF !(ExtData[1]->WorkLocal[3] == 7*) GOTO 0x08F8
293: 0x08E4 [0x45] LOAD_SCHEDULED_TASK: Load scheduler "32mt" with entities [LocalPlayer, LocalPlayer], work=[559*, 0*]
294: 0x08F5 [0x01] GOTO 0x0914
295: 0x08F8 [0x02] IF !(ExtData[1]->WorkLocal[3] == 8*) GOTO 0x0914
296: 0x0900 [0x45] LOAD_SCHEDULED_TASK: Load scheduler "32gl" with entities [LocalPlayer, LocalPlayer], work=[559*, 0*]
297: 0x0911 [0x01] GOTO 0x0914

SUBROUTINE_0914:
298: 0x0914 [0x24] CREATE_DIALOG(message_id=7460*, default_option=0*, option_flags=0*)
    → "What will you say? [That's not true!/...]"
299: 0x091B [0x25] WAIT_DIALOG_SELECT()
300: 0x091C [0x02] IF !(Work_Zone[0] == 0*) GOTO 0x09FD
301: 0x0924 [0x6E] LocalPlayer uses emote 6*
302: 0x092B [0x99] Wait for LocalPlayer animation to complete
303: 0x0930 [0x1C] WAIT(90* ticks)
304: 0x0933 [0x79] Unnamed NPC (ID: 17805341/0x010FB01D) looks at LocalPlayer (Basic look)
305: 0x093D [0x52] END_LOAD_SCHEDULER: End scheduler "32hm" with entities [LocalPlayer, LocalPlayer], work=559*
306: 0x094C [0x52] END_LOAD_SCHEDULER: End scheduler "32hf" with entities [LocalPlayer, LocalPlayer], work=559*
307: 0x095B [0x52] END_LOAD_SCHEDULER: End scheduler "32em" with entities [LocalPlayer, LocalPlayer], work=559*
308: 0x096A [0x52] END_LOAD_SCHEDULER: End scheduler "32ef" with entities [LocalPlayer, LocalPlayer], work=559*
309: 0x0979 [0x52] END_LOAD_SCHEDULER: End scheduler "32tr" with entities [LocalPlayer, LocalPlayer], work=559*
310: 0x0988 [0x52] END_LOAD_SCHEDULER: End scheduler "32mt" with entities [LocalPlayer, LocalPlayer], work=559*
311: 0x0997 [0x52] END_LOAD_SCHEDULER: End scheduler "32gl" with entities [LocalPlayer, LocalPlayer], work=559*
312: 0x09A6 [0x45] LOAD_SCHEDULED_TASK: Load scheduler "3233" with entities [LocalPlayer, LocalPlayer], work=[559*, 0*]
313: 0x09B7 [0x1C] WAIT(30* ticks)
314: 0x09BA [0x2B] Unnamed NPC (ID: 17805341/0x010FB01D) [7461*]:
    → "<Player>..."
315: 0x09C1 [0x23] WAIT_FOR_DIALOG_INTERACTION
316: 0x09C2 [0x52] END_LOAD_SCHEDULER: End scheduler "3233" with entities [LocalPlayer, LocalPlayer], work=559*
317: 0x09D1 [0x45] LOAD_SCHEDULED_TASK: Load scheduler "3234" with entities [LocalPlayer, LocalPlayer], work=[559*, 0*]
318: 0x09E2 [0x2B] Unnamed NPC (ID: 17805340/0x010FB01C) [7462*]:
    → "Arrrg, I wholeheartedly second <Player>. There be no call fer beatin' yerself up on this, lass."
319: 0x09E9 [0x1C] WAIT(30* ticks)
320: 0x09EC [0x79] Unnamed NPC (ID: 17805341/0x010FB01D) looks at Unnamed NPC (ID: 17805340/0x010FB01C) (Basic look)
321: 0x09F6 [0x1C] WAIT(120* ticks)
322: 0x09F9 [0x23] WAIT_FOR_DIALOG_INTERACTION
323: 0x09FA [0x01] GOTO 0x0A98
324: 0x09FD [0x02] IF !(Work_Zone[0] == 1*) GOTO 0x0A98
325: 0x0A05 [0x1C] WAIT(60* ticks)
326: 0x0A08 [0x52] END_LOAD_SCHEDULER: End scheduler "32hm" with entities [LocalPlayer, LocalPlayer], work=559*
327: 0x0A17 [0x52] END_LOAD_SCHEDULER: End scheduler "32hf" with entities [LocalPlayer, LocalPlayer], work=559*
328: 0x0A26 [0x52] END_LOAD_SCHEDULER: End scheduler "32em" with entities [LocalPlayer, LocalPlayer], work=559*
329: 0x0A35 [0x52] END_LOAD_SCHEDULER: End scheduler "32ef" with entities [LocalPlayer, LocalPlayer], work=559*
330: 0x0A44 [0x52] END_LOAD_SCHEDULER: End scheduler "32tr" with entities [LocalPlayer, LocalPlayer], work=559*
331: 0x0A53 [0x52] END_LOAD_SCHEDULER: End scheduler "32mt" with entities [LocalPlayer, LocalPlayer], work=559*
332: 0x0A62 [0x52] END_LOAD_SCHEDULER: End scheduler "32gl" with entities [LocalPlayer, LocalPlayer], work=559*
333: 0x0A71 [0x45] LOAD_SCHEDULED_TASK: Load scheduler "3234" with entities [LocalPlayer, LocalPlayer], work=[559*, 0*]
334: 0x0A82 [0x1C] WAIT(60* ticks)
335: 0x0A85 [0x2B] Unnamed NPC (ID: 17805340/0x010FB01C) [7463*]:
    → "Arrrg, there be no call fer beatin' yerself up on this, lass. Bearin' the burden o' this terrible knowledge, ye did what ye could."
336: 0x0A8C [0x23] WAIT_FOR_DIALOG_INTERACTION
337: 0x0A8D [0x2B] Unnamed NPC (ID: 17805340/0x010FB01C) [7464*]:
    → "The rest o' us, on the other hand, we been blissful in our ignorance all our lives, clueless 'bout our origin."
338: 0x0A94 [0x23] WAIT_FOR_DIALOG_INTERACTION
339: 0x0A95 [0x01] GOTO 0x0A98

SUBROUTINE_0A98:
340: 0x0A98 [0x5C] MUSIC_CONTROL: Set Idle (Day) music to song 124*
341: 0x0A9C [0x5C] MUSIC_CONTROL: Set Idle (Night) music to song 124*
342: 0x0AA0 [0x9A] WAIT_MUSIC_SERVER()
343: 0x0AA1 [0x4A] LocalPlayer looks at Unnamed NPC (ID: 17805340/0x010FB01C)
344: 0x0AAA [0x52] END_LOAD_SCHEDULER: End scheduler "3234" with entities [LocalPlayer, LocalPlayer], work=559*
345: 0x0AB9 [0x45] LOAD_SCHEDULED_TASK: Load scheduler "3235" with entities [LocalPlayer, LocalPlayer], work=[559*, 0*]
346: 0x0ACA [0x2B] Unnamed NPC (ID: 17805340/0x010FB01C) [7465*]:
    → "By me measure, things wouldn't of turned out so pretty if ye hadn't done the drudgery belowdecks."
347: 0x0AD1 [0x23] WAIT_FOR_DIALOG_INTERACTION
348: 0x0AD2 [0x5B] LOAD_EXT_SCHEDULER: Load scheduler "thk1" with entities [Unnamed NPC (ID: 17805340/0x010FB01C), Unnamed NPC (ID: 17805340/0x010FB01C)], work=566*
349: 0x0AE1 [0x1C] WAIT(60* ticks)
350: 0x0AE4 [0x2B] Unnamed NPC (ID: 17805340/0x010FB01C) [7466*]:
    → "Ye can be proud o' yer efforts, lil' missy."
351: 0x0AEB [0x23] WAIT_FOR_DIALOG_INTERACTION
352: 0x0AEC [0x53] WAIT_SCHEDULER_TASK: Wait for scheduler "thk1" with entities [Unnamed NPC (ID: 17805340/0x010FB01C), Unnamed NPC (ID: 17805340/0x010FB01C)]
353: 0x0AF9 [0x4A] Unnamed NPC (ID: 17805340/0x010FB01C) looks at Unnamed NPC (ID: 17805341/0x010FB01D)
354: 0x0B02 [0x6F] WAIT_FRAME_DELAY: Yield until WaitTime reaches zero
355: 0x0B03 [0x76] CHECK_ENTITY_RENDER_FLAGS: Wait until Unnamed NPC (ID: 17805340/0x010FB01C) Render.Flags0 and Render.Flags3 conditions are met
356: 0x0B08 [0x52] END_LOAD_SCHEDULER: End scheduler "3235" with entities [LocalPlayer, LocalPlayer], work=559*
357: 0x0B17 [0x45] LOAD_SCHEDULED_TASK: Load scheduler "3236" with entities [LocalPlayer, LocalPlayer], work=[559*, 0*]
358: 0x0B28 [0x27] REQ_SET(priority=0x10, entity_id=Unnamed NPC (ID: 17805340/0x010FB01C), tag_num=0x10)
359: 0x0B2F [0x1C] WAIT(30* ticks)
360: 0x0B32 [0x2B] Unnamed NPC (ID: 17805340/0x010FB01C) [7467*]:
    → "Abyssea might never be her scenic old self again, but we're still standin' here, alive an' kickin'. The world's rebirth's begun, there be no denyin' that, but it ain't over either."
361: 0x0B39 [0x23] WAIT_FOR_DIALOG_INTERACTION
362: 0x0B3A [0x2A] GET_REQ_LEVEL(level=16, entity_id=Unnamed NPC (ID: 17805340/0x010FB01C))
363: 0x0B40 [0x2B] Unnamed NPC (ID: 17805340/0x010FB01C) [7468*]:
    → "The situation ain't improvin' much, true, but neither has it been deterioratin'. If I ain't mistaken, there be some kind o' anchor keepin' this ship from smashin' into the jagged rocks o' apocalypse."
364: 0x0B47 [0x23] WAIT_FOR_DIALOG_INTERACTION
365: 0x0B48 [0x52] END_LOAD_SCHEDULER: End scheduler "3236" with entities [LocalPlayer, LocalPlayer], work=559*
366: 0x0B57 [0x45] LOAD_SCHEDULED_TASK: Load scheduler "3237" with entities [LocalPlayer, LocalPlayer], work=[559*, 0*]
367: 0x0B68 [0x1C] WAIT(30* ticks)
368: 0x0B6B [0x4A] LocalPlayer looks at Unnamed NPC (ID: 17805340/0x010FB01C)
369: 0x0B74 [0x2B] Unnamed NPC (ID: 17805341/0x010FB01D) [7469*]:
    → "What do you mean?"
370: 0x0B7B [0x1C] WAIT(90* ticks)
371: 0x0B7E [0x23] WAIT_FOR_DIALOG_INTERACTION
372: 0x0B7F [0x52] END_LOAD_SCHEDULER: End scheduler "3237" with entities [LocalPlayer, LocalPlayer], work=559*
373: 0x0B8E [0x45] LOAD_SCHEDULED_TASK: Load scheduler "3238" with entities [LocalPlayer, LocalPlayer], work=[559*, 0*]
374: 0x0B9F [0x79] Unnamed NPC (ID: 17805340/0x010FB01C) looks at LocalPlayer (Basic look)
375: 0x0BA9 [0x2B] Unnamed NPC (ID: 17805340/0x010FB01C) [7470*]:
    → "I'd stake me one good peeper them Champions o' Abyssea had somethin' t' do with it."
376: 0x0BB0 [0x23] WAIT_FOR_DIALOG_INTERACTION
377: 0x0BB1 [0x5B] LOAD_EXT_SCHEDULER: Load scheduler "thk1" with entities [Unnamed NPC (ID: 17805340/0x010FB01C), Unnamed NPC (ID: 17805340/0x010FB01C)], work=566*
378: 0x0BC0 [0x1C] WAIT(30* ticks)
379: 0x0BC3 [0x2B] Unnamed NPC (ID: 17805340/0x010FB01C) [7471*]:
    → "Might be they went an' met their maker--an' in more ways'n one, heh--but that don't mean their efforts were fer naught."
380: 0x0BCA [0x23] WAIT_FOR_DIALOG_INTERACTION
381: 0x0BCB [0x52] END_LOAD_SCHEDULER: End scheduler "3238" with entities [LocalPlayer, LocalPlayer], work=559*
382: 0x0BDA [0x45] LOAD_SCHEDULED_TASK: Load scheduler "3239" with entities [LocalPlayer, LocalPlayer], work=[559*, 0*]
383: 0x0BEB [0x7B] Unnamed NPC (ID: 17805340/0x010FB01C) stops talking
384: 0x0BF0 [0x2B] Unnamed NPC (ID: 17805340/0x010FB01C) [7472*]:
    → "So where the hell did they go, an' what the devil did they do? Now I gots a nose fer treasure an' an eye fer booty, an' they're sayin' if we follow the trail we jus' might hit gold."
385: 0x0BF7 [0x23] WAIT_FOR_DIALOG_INTERACTION
386: 0x0BF8 [0x2B] Unnamed NPC (ID: 17805341/0x010FB01D) [7473*]:
    → "Gilgamesh..."
387: 0x0BFF [0x23] WAIT_FOR_DIALOG_INTERACTION
388: 0x0C00 [0x53] WAIT_SCHEDULER_TASK: Wait for scheduler "thk1" with entities [Unnamed NPC (ID: 17805340/0x010FB01C), Unnamed NPC (ID: 17805340/0x010FB01C)]
389: 0x0C0D [0x5B] LOAD_EXT_SCHEDULER: Load scheduler "tlk0" with entities [Unnamed NPC (ID: 17805340/0x010FB01C), Unnamed NPC (ID: 17805340/0x010FB01C)], work=566*
390: 0x0C1C [0x2B] Unnamed NPC (ID: 17805340/0x010FB01C) [7474*]:
    → "Now, I be jus' a simple sailor, but I pride meself on bein' a good judge o' folk."
391: 0x0C23 [0x1C] WAIT(120* ticks)
392: 0x0C26 [0x23] WAIT_FOR_DIALOG_INTERACTION
393: 0x0C27 [0x52] END_LOAD_SCHEDULER: End scheduler "3239" with entities [LocalPlayer, LocalPlayer], work=559*
394: 0x0C36 [0x45] LOAD_SCHEDULED_TASK: Load scheduler "3240" with entities [LocalPlayer, LocalPlayer], work=[559*, 0*]
395: 0x0C47 [0x5B] LOAD_EXT_SCHEDULER: Load scheduler "tlk1" with entities [Unnamed NPC (ID: 17805340/0x010FB01C), Unnamed NPC (ID: 17805340/0x010FB01C)], work=566*
396: 0x0C56 [0x2B] Unnamed NPC (ID: 17805340/0x010FB01C) [7475*]:
    → "An' I judge ye well as well gets, lil' missy. I be on this ship with ye t' the bloody end, whether it takes us t' treasures untold, or Davy Jones's locker."
397: 0x0C5D [0x23] WAIT_FOR_DIALOG_INTERACTION
398: 0x0C5E [0x53] WAIT_SCHEDULER_TASK: Wait for scheduler "tlk1" with entities [Unnamed NPC (ID: 17805340/0x010FB01C), Unnamed NPC (ID: 17805340/0x010FB01C)]
399: 0x0C6B [0x52] END_LOAD_SCHEDULER: End scheduler "3240" with entities [LocalPlayer, LocalPlayer], work=559*
400: 0x0C7A [0x45] LOAD_SCHEDULED_TASK: Load scheduler "3241" with entities [LocalPlayer, LocalPlayer], work=[559*, 0*]
401: 0x0C8B [0x4A] Unnamed NPC (ID: 17805340/0x010FB01C) looks at LocalPlayer
402: 0x0C94 [0x7B] Unnamed NPC (ID: 17805340/0x010FB01C) stops talking
403: 0x0C99 [0x1C] WAIT(30* ticks)
404: 0x0C9C [0x2B] Unnamed NPC (ID: 17805340/0x010FB01C) [7476*]:
    → "An' I know <Player> shares the same sentiments. Ain't that right, matey?"
405: 0x0CA3 [0x23] WAIT_FOR_DIALOG_INTERACTION
406: 0x0CA4 [0x6F] WAIT_FRAME_DELAY: Yield until WaitTime reaches zero
407: 0x0CA5 [0x76] CHECK_ENTITY_RENDER_FLAGS: Wait until Unnamed NPC (ID: 17805340/0x010FB01C) Render.Flags0 and Render.Flags3 conditions are met

SUBROUTINE_0CAA:
408: 0x0CAA [0x24] CREATE_DIALOG(message_id=7477*, default_option=0*, option_flags=0*)
    → "Do you have faith in Esha'ntarl? [Aye, with all me heart!/...Huh?]"
409: 0x0CB1 [0x25] WAIT_DIALOG_SELECT()
410: 0x0CB2 [0x02] IF !(Work_Zone[0] == 0*) GOTO 0x0D1F
411: 0x0CBA [0x6E] LocalPlayer uses emote 12*
412: 0x0CC1 [0x99] Wait for LocalPlayer animation to complete
413: 0x0CC6 [0x1C] WAIT(90* ticks)
414: 0x0CC9 [0x52] END_LOAD_SCHEDULER: End scheduler "3241" with entities [LocalPlayer, LocalPlayer], work=559*
415: 0x0CD8 [0x45] LOAD_SCHEDULED_TASK: Load scheduler "3242" with entities [LocalPlayer, LocalPlayer], work=[559*, 0*]
416: 0x0CE9 [0x1C] WAIT(60* ticks)
417: 0x0CEC [0x2B] Unnamed NPC (ID: 17805341/0x010FB01D) [7461*]:
    → "<Player>..."
418: 0x0CF3 [0x23] WAIT_FOR_DIALOG_INTERACTION
419: 0x0CF4 [0x52] END_LOAD_SCHEDULER: End scheduler "3242" with entities [LocalPlayer, LocalPlayer], work=559*
420: 0x0D03 [0x45] LOAD_SCHEDULED_TASK: Load scheduler "3243" with entities [LocalPlayer, LocalPlayer], work=[559*, 0*]
421: 0x0D14 [0x2B] Unnamed NPC (ID: 17805340/0x010FB01C) [7478*]:
    → "Harharhar! That be the spirit, matey! Fer one not even o' our world, ye sure be dependable!"
422: 0x0D1B [0x23] WAIT_FOR_DIALOG_INTERACTION
423: 0x0D1C [0x01] GOTO 0x0DA5
424: 0x0D1F [0x02] IF !(Work_Zone[0] == 1*) GOTO 0x0DA5
425: 0x0D27 [0x6E] LocalPlayer uses emote 6*
426: 0x0D2E [0x99] Wait for LocalPlayer animation to complete
427: 0x0D33 [0x1C] WAIT(45* ticks)
428: 0x0D36 [0x52] END_LOAD_SCHEDULER: End scheduler "3241" with entities [LocalPlayer, LocalPlayer], work=559*
429: 0x0D45 [0x45] LOAD_SCHEDULED_TASK: Load scheduler "3244" with entities [LocalPlayer, LocalPlayer], work=[559*, 0*]
430: 0x0D56 [0x5B] LOAD_EXT_SCHEDULER: Load scheduler "tlk0" with entities [Unnamed NPC (ID: 17805340/0x010FB01C), Unnamed NPC (ID: 17805340/0x010FB01C)], work=566*
431: 0x0D65 [0x2B] Unnamed NPC (ID: 17805340/0x010FB01C) [7479*]:
    → "Crikey, matey! Haven't ye got eyes t' read between the lines? The lil' missy, she be in dire need o' cheer, now!"
432: 0x0D6C [0x1C] WAIT(120* ticks)
433: 0x0D6F [0x23] WAIT_FOR_DIALOG_INTERACTION
434: 0x0D70 [0x5B] LOAD_EXT_SCHEDULER: Load scheduler "tlk1" with entities [Unnamed NPC (ID: 17805340/0x010FB01C), Unnamed NPC (ID: 17805340/0x010FB01C)], work=566*
435: 0x0D7F [0x52] END_LOAD_SCHEDULER: End scheduler "3244" with entities [LocalPlayer, LocalPlayer], work=559*
436: 0x0D8E [0x45] LOAD_SCHEDULED_TASK: Load scheduler "3241" with entities [LocalPlayer, LocalPlayer], work=[559*, 0*]
437: 0x0D9F [0x01] GOTO 0x0CAA

SUBROUTINE_0DA5:
438: 0x0DA5 [0x52] END_LOAD_SCHEDULER: End scheduler "3243" with entities [LocalPlayer, LocalPlayer], work=559*
439: 0x0DB4 [0x45] LOAD_SCHEDULED_TASK: Load scheduler "3245" with entities [LocalPlayer, LocalPlayer], work=[559*, 0*]
440: 0x0DC5 [0x2B] Unnamed NPC (ID: 17805341/0x010FB01D) [7480*]:
    → "Thank you, Gilgamesh, <Player>. It has done my spirit well to have spoken with the two of you."
441: 0x0DCC [0x79] Unnamed NPC (ID: 17805340/0x010FB01C) looks at Unnamed NPC (ID: 17805341/0x010FB01D) (Basic look)
442: 0x0DD6 [0x1C] WAIT(30* ticks)
443: 0x0DD9 [0x4A] LocalPlayer looks at Unnamed NPC (ID: 17805341/0x010FB01D)
444: 0x0DE2 [0x1C] WAIT(90* ticks)
445: 0x0DE5 [0x23] WAIT_FOR_DIALOG_INTERACTION
446: 0x0DE6 [0x52] END_LOAD_SCHEDULER: End scheduler "3245" with entities [LocalPlayer, LocalPlayer], work=559*
447: 0x0DF5 [0x45] LOAD_SCHEDULED_TASK: Load scheduler "3246" with entities [LocalPlayer, LocalPlayer], work=[559*, 0*]
448: 0x0E06 [0x2B] Unnamed NPC (ID: 17805341/0x010FB01D) [7481*]:
    → "Your theory in particular, Gilgamesh, bears further investigation. I, too, shall do what I can on this quarter."
449: 0x0E0D [0x23] WAIT_FOR_DIALOG_INTERACTION
450: 0x0E0E [0x2B] Unnamed NPC (ID: 17805341/0x010FB01D) [7482*]:
    → "For now, I take my leave of you. Fare you well."
451: 0x0E15 [0x23] WAIT_FOR_DIALOG_INTERACTION
452: 0x0E16 [0x5D] SET_MUSIC_VOLUME(volume=0*, fade_time=600*)
453: 0x0E1B [0x52] END_LOAD_SCHEDULER: End scheduler "3246" with entities [LocalPlayer, LocalPlayer], work=559*
454: 0x0E2A [0x45] LOAD_SCHEDULED_TASK: Load scheduler "3247" with entities [LocalPlayer, LocalPlayer], work=[559*, 0*]
455: 0x0E3B [0x4A] Unnamed NPC (ID: 17805340/0x010FB01C) looks at Unnamed NPC (ID: 17805341/0x010FB01D)
456: 0x0E44 [0x1C] WAIT(30* ticks)
457: 0x0E47 [0x27] REQ_SET(priority=0x10, entity_id=Unnamed NPC (ID: 17805343/0x010FB01F), tag_num=0x05)
458: 0x0E4E [0x1C] WAIT(90* ticks)
459: 0x0E51 [0x9F] LOAD_SCHEDULED_TASK_ALT: Load scheduler "kie0" with entities [Unnamed NPC (ID: 17805341/0x010FB01D), Unnamed NPC (ID: 17805341/0x010FB01D)], work=[240*, 0*]
460: 0x0E62 [0x1C] WAIT(120* ticks)
461: 0x0E65 [0x4A] Unnamed NPC (ID: 17805340/0x010FB01C) looks at LocalPlayer
462: 0x0E6E [0x1C] WAIT(30* ticks)
463: 0x0E71 [0x52] END_LOAD_SCHEDULER: End scheduler "3247" with entities [LocalPlayer, LocalPlayer], work=559*
464: 0x0E80 [0x45] LOAD_SCHEDULED_TASK: Load scheduler "3248" with entities [LocalPlayer, LocalPlayer], work=[559*, 0*]
465: 0x0E91 [0x2B] Unnamed NPC (ID: 17805340/0x010FB01C) [7483*]:
    → "...An' there ye have it. If I find out anythin', ye'll be the first t' know, matey. Through Joachim, o' course."
466: 0x0E98 [0x1C] WAIT(30* ticks)
467: 0x0E9B [0x4A] LocalPlayer looks at Unnamed NPC (ID: 17805340/0x010FB01C)
468: 0x0EA4 [0x1C] WAIT(120* ticks)
469: 0x0EA7 [0x23] WAIT_FOR_DIALOG_INTERACTION
470: 0x0EA8 [0x52] END_LOAD_SCHEDULER: End scheduler "3248" with entities [LocalPlayer, LocalPlayer], work=559*
471: 0x0EB7 [0x45] LOAD_SCHEDULED_TASK: Load scheduler "3249" with entities [LocalPlayer, LocalPlayer], work=[559*, 0*]
472: 0x0EC8 [0x5B] LOAD_EXT_SCHEDULER: Load scheduler "thk0" with entities [Unnamed NPC (ID: 17805340/0x010FB01C), Unnamed NPC (ID: 17805340/0x010FB01C)], work=566*
473: 0x0ED7 [0x1C] WAIT(45* ticks)
474: 0x0EDA [0x2B] Unnamed NPC (ID: 17805340/0x010FB01C) [7484*]:
    → "I mus' say, all o' this gets me buccaneer's blood pumpin'."
475: 0x0EE1 [0x23] WAIT_FOR_DIALOG_INTERACTION
476: 0x0EE2 [0x2B] Unnamed NPC (ID: 17805340/0x010FB01C) [7485*]:
    → "After all, it ain't everyday ye get t' stick it t' the man! Well, a god in this case...an' one who chooses death, t' boot."
477: 0x0EE9 [0x23] WAIT_FOR_DIALOG_INTERACTION
478: 0x0EEA [0x52] END_LOAD_SCHEDULER: End scheduler "3249" with entities [LocalPlayer, LocalPlayer], work=559*
479: 0x0EF9 [0x45] LOAD_SCHEDULED_TASK: Load scheduler "3250" with entities [LocalPlayer, LocalPlayer], work=[559*, 0*]
480: 0x0F0A [0x5B] LOAD_EXT_SCHEDULER: Load scheduler "thk1" with entities [Unnamed NPC (ID: 17805340/0x010FB01C), Unnamed NPC (ID: 17805340/0x010FB01C)], work=566*
481: 0x0F19 [0x1C] WAIT(60* ticks)
482: 0x0F1C [0x2B] Unnamed NPC (ID: 17805340/0x010FB01C) [7486*]:
    → "There be no guarantees t' be had that a happy endin' awaits us. But it gives me heart, <Player>, knowin' ye're fightin' on our side."
483: 0x0F23 [0x23] WAIT_FOR_DIALOG_INTERACTION
484: 0x0F24 [0x2B] Unnamed NPC (ID: 17805340/0x010FB01C) [7487*]:
    → "Till next time, promise me ye won't go gettin' yerself killed."
485: 0x0F2B [0x23] WAIT_FOR_DIALOG_INTERACTION
486: 0x0F2C [0x1A] CALL_SUBROUTINE(address=0x2CDA)
487: 0x0F2F [0x1C] WAIT(30* ticks)
488: 0x0F32 [0x52] END_LOAD_SCHEDULER: End scheduler "3250" with entities [LocalPlayer, LocalPlayer], work=559*
489: 0x0F41 [0x45] LOAD_SCHEDULED_TASK: Load scheduler "0blf" with entities [LocalPlayer, LocalPlayer], work=[559*, 0*]
490: 0x0F52 [0x02] IF !(ExtData[1]->WorkLocal[2] == 0*) GOTO 0x0F5D
491: 0x0F5A [0x01] GOTO 0x0F63
492: 0x0F5D [0x78] ENABLE_GAME_TIMER_RESET_WEATHER()
493: 0x0F5E [0x1C] WAIT(1* ticks)
494: 0x0F61 [0xAB] EventEntity->UnknownFlag = 0 // Disable unknown flag

SUBROUTINE_0F63:
495: 0x0F63 [0x5C] MUSIC_CONTROL: Set Idle (Day) music to song 213*
496: 0x0F67 [0x5C] MUSIC_CONTROL: Set Idle (Night) music to song 213*
497: 0x0F6B [0x9A] WAIT_MUSIC_SERVER()
498: 0x0F6C [0x46] CAMERA_CONTROL: Restore default settings
499: 0x0F6E [0x45] LOAD_SCHEDULED_TASK: Load scheduler "fdi2" with entities [LocalPlayer, LocalPlayer], work=[200*, 0*]
500: 0x0F7F [0x21] END_EVENT
501: 0x0F80 [0x00] END_REQSTACK()
```

#### Data or dead code:

```
# Dead code (unreachable instructions):
     0x0DA2 [0x01] GOTO 0x0DA5
```

### Event 7

#### Metadata

| Field        | Value      |
|--------------|------------|
| Entrypoint   | 0x0F81     |
| Data Size    | 4014 bytes |
| Instructions | 511        |

```
      00 01 02 03 04 05 06 07  08 09 0A 0B 0C 0D 0E 0F
      -- -- -- -- -- -- -- --  -- -- -- -- -- -- -- --
0F80:    42 1A DA 2C 46 01 38  00 80 4E 00 F0 FF FF 7F   B..,F.8..N.....
0F90: 02 02 00 01 80 00 9B 0F  01 A5 0F 77 02 80 03 80  ...........w....
0FA0: 1C 04 80 AB 09 27 10 1C  B0 0F 01 04 27 10 1D B0  .....'......'...
0FB0: 0F 01 04 27 10 20 B0 0F  01 04 27 10 21 B0 0F 01  ...'. ....'.!...
0FC0: 04 27 10 22 B0 0F 01 04  27 10 23 B0 0F 01 04 4E  .'."....'.#....N
0FD0: 00 1E B0 0F 01 4E 00 1F  B0 0F 01 92 01 1C B0 0F  .....N..........
0FE0: 01 94 01 F0 FF FF 7F 94  01 1C B0 0F 01 94 01 1D  ................
0FF0: B0 0F 01 94 01 20 B0 0F  01 94 01 21 B0 0F 01 94  ..... .....!....
1000: 01 22 B0 0F 01 94 01 23  B0 0F 01 94 01 1E B0 0F  .".....#........
1010: 01 94 01 1F B0 0F 01 59  05 20 B0 0F 01 01 59 05  .......Y. ....Y.
1020: 21 B0 0F 01 01 59 05 22  B0 0F 01 01 59 05 23 B0  !....Y."....Y.#.
1030: 0F 01 01 59 05 1E B0 0F  01 01 59 05 1F B0 0F 01  ...Y......Y.....
1040: 01 BA F0 FF FF 7F 77 80  78 80 0B 80 79 80 BA 1C  ......w.x...y...
1050: B0 0F 01 7A 80 7B 80 7C  80 7D 80 BA 1D B0 0F 01  ...z.{.|.}......
1060: 01 80 0D 80 0B 80 0E 80  BA 20 B0 0F 01 7E 80 7F  ......... ...~..
1070: 80 80 80 79 80 BA 21 B0  0F 01 81 80 82 80 80 80  ...y..!.........
1080: 79 80 BA 22 B0 0F 01 83  80 84 80 80 80 79 80 BA  y..".........y..
1090: 23 B0 0F 01 85 80 86 80  80 80 79 80 BA 1E B0 0F  #.........y.....
10A0: 01 87 80 88 80 89 80 79  80 BA 1F B0 0F 01 8A 80  .......y........
10B0: 8B 80 8C 80 79 80 29 10  1C B0 0F 01 08 29 10 1D  ....y.)......)..
10C0: B0 0F 01 08 29 10 1C B0  0F 01 0A 29 10 1D B0 0F  ....)......)....
10D0: 01 0A 29 10 20 B0 0F 01  08 29 10 21 B0 0F 01 08  ..). ....).!....
10E0: 29 10 22 B0 0F 01 08 29  10 23 B0 0F 01 08 29 10  )."....).#....).
10F0: 1E B0 0F 01 06 2C 20 B0  0F 01 20 B0 0F 01 70 6F  ....., ... ...po
1100: 70 30 2C 21 B0 0F 01 21  B0 0F 01 70 6F 70 30 2C  p0,!...!...pop0,
1110: 22 B0 0F 01 22 B0 0F 01  70 6F 70 30 2C 23 B0 0F  "..."...pop0,#..
1120: 01 23 B0 0F 01 70 6F 70  30 2C 1E B0 0F 01 1E B0  .#...pop0,......
1130: 0F 01 70 6F 70 30 80 F0  FF FF 7F 80 1C B0 0F 01  ..pop0..........
1140: 80 1D B0 0F 01 80 20 B0  0F 01 80 21 B0 0F 01 80  ...... ....!....
1150: 22 B0 0F 01 80 23 B0 0F  01 80 1E B0 0F 01 1C 10  "....#..........
1160: 80 6C 20 B0 0F 01 01 80  04 80 6C 21 B0 0F 01 01  .l .......l!....
1170: 80 04 80 6C 22 B0 0F 01  01 80 04 80 6C 23 B0 0F  ...l".......l#..
1180: 01 01 80 04 80 6C 1E B0  0F 01 01 80 04 80 4A 1C  .....l........J.
1190: B0 0F 01 F0 FF FF 7F 4A  F0 FF FF 7F 1D B0 0F 01  .......J........
11A0: 6F 76 F0 FF FF 7F 9F 38  80 1D B0 0F 01 1D B0 0F  ov.....8........
11B0: 01 6D 61 69 6E 01 80 5B  0F 80 1C B0 0F 01 1C B0  .main..[........
11C0: 0F 01 74 68 6B 30 1C 10  80 27 10 F0 FF FF 7F 1F  ..thk0...'......
11D0: 45 11 80 F0 FF FF 7F F0  FF FF 7F 33 34 30 30 01  E..........3400.
11E0: 80 1A B9 2C 1C 13 80 52  11 80 F0 FF FF 7F F0 FF  ...,...R........
11F0: FF 7F 33 34 30 30 45 11  80 F0 FF FF 7F F0 FF FF  ..3400E.........
1200: 7F 33 34 30 31 01 80 2B  1C B0 0F 01 8D 80 23 52  .3401..+......#R
1210: 11 80 F0 FF FF 7F F0 FF  FF 7F 33 34 30 31 45 11  ..........3401E.
1220: 80 F0 FF FF 7F F0 FF FF  7F 33 34 30 32 01 80 5B  .........3402..[
1230: 0F 80 1C B0 0F 01 1C B0  0F 01 74 68 6B 31 2B 1D  ..........thk1+.
1240: B0 0F 01 8E 80 23 2B 1D  B0 0F 01 8F 80 23 5D 01  .....#+......#].
1250: 80 1B 80 52 11 80 F0 FF  FF 7F F0 FF FF 7F 33 34  ...R..........34
1260: 30 32 45 11 80 F0 FF FF  7F F0 FF FF 7F 33 34 30  02E..........340
1270: 33 01 80 4A 1C B0 0F 01  F0 FF FF 7F 24 90 80 01  3..J........$...
1280: 80 01 80 25 02 00 10 01  80 00 96 12 29 10 F0 FF  ...%........)...
1290: FF 7F 1C 01 B0 12 02 00  10 04 80 00 B0 12 6E F0  ..............n.
12A0: FF FF 7F 54 80 99 F0 FF  FF 7F 1C 47 80 01 B0 12  ...T.......G....
12B0: 4A 1C B0 0F 01 1D B0 0F  01 1C 10 80 2B 1C B0 0F  J...........+...
12C0: 01 91 80 23 6F 76 1C B0  0F 01 52 11 80 F0 FF FF  ...#ov....R.....
12D0: 7F F0 FF FF 7F 33 34 30  34 45 11 80 F0 FF FF 7F  .....3404E......
12E0: F0 FF FF 7F 33 34 30 35  01 80 5B 0F 80 1C B0 0F  ....3405..[.....
12F0: 01 1C B0 0F 01 74 6C 6B  30 2B 1C B0 0F 01 92 80  .....tlk0+......
1300: 23 1C 12 80 23 5B 0F 80  1C B0 0F 01 1C B0 0F 01  #...#[..........
1310: 74 6C 6B 31 79 00 1D B0  0F 01 1C B0 0F 01 1C 10  tlk1y...........
1320: 80 2B 1D B0 0F 01 93 80  23 5C 00 32 80 5C 01 32  .+......#\.2.\.2
1330: 80 9A 27 10 1D B0 0F 01  12 1C 10 80 52 11 80 F0  ..'.........R...
1340: FF FF 7F F0 FF FF 7F 33  34 30 35 45 11 80 F0 FF  .......3405E....
1350: FF 7F F0 FF FF 7F 33 34  30 36 01 80 2B 1D B0 0F  ......3406..+...
1360: 01 94 80 1C 12 80 4A 1C  B0 0F 01 1D B0 0F 01 23  ......J........#
1370: 2A 10 1D B0 0F 01 1C 10  80 5B 26 80 1D B0 0F 01  *........[&.....
1380: 1D B0 0F 01 74 68 6B 30  1C 10 80 2B 1D B0 0F 01  ....thk0...+....
1390: 95 80 1C 13 80 23 52 11  80 F0 FF FF 7F F0 FF FF  .....#R.........
13A0: 7F 33 34 30 36 45 11 80  F0 FF FF 7F F0 FF FF 7F  .3406E..........
13B0: 33 34 30 37 01 80 2B 1D  B0 0F 01 96 80 23 5B 26  3407..+......#[&
13C0: 80 1D B0 0F 01 1D B0 0F  01 74 68 6B 31 1C 12 80  .........thk1...
13D0: 2B 1D B0 0F 01 97 80 23  53 1D B0 0F 01 1D B0 0F  +......#S.......
13E0: 01 74 68 6B 31 4A 1D B0  0F 01 F0 FF FF 7F 6F 76  .thk1J........ov
13F0: 1D B0 0F 01 52 11 80 F0  FF FF 7F F0 FF FF 7F 33  ....R..........3
1400: 34 30 37 45 11 80 F0 FF  FF 7F F0 FF FF 7F 33 34  407E..........34
1410: 30 38 01 80 2B 1D B0 0F  01 98 80 23 52 11 80 F0  08..+......#R...
1420: FF FF 7F F0 FF FF 7F 33  34 30 38 45 11 80 F0 FF  .......3408E....
1430: FF 7F F0 FF FF 7F 33 34  30 39 01 80 1C 10 80 2B  ......3409.....+
1440: 1C B0 0F 01 99 80 23 52  11 80 F0 FF FF 7F F0 FF  ......#R........
1450: FF 7F 33 34 30 39 45 11  80 F0 FF FF 7F F0 FF FF  ..3409E.........
1460: 7F 33 34 31 30 01 80 1C  10 80 79 00 1D B0 0F 01  .3410.....y.....
1470: 1C B0 0F 01 2B 1D B0 0F  01 9A 80 23 5B 0F 80 1C  ....+......#[...
1480: B0 0F 01 1C B0 0F 01 74  6B 62 30 03 02 10 1B 80  .......tkb0.....
1490: 27 10 1E B0 0F 01 01 2B  1C B0 0F 01 9B 80 1C 13  '......+........
14A0: 80 23 2B 1C B0 0F 01 9C  80 23 2A 10 1E B0 0F 01  .#+......#*.....
14B0: 5C 00 32 80 5C 01 32 80  9A 5B 0F 80 1C B0 0F 01  \.2.\.2..[......
14C0: 1C B0 0F 01 74 6B 62 31  52 11 80 F0 FF FF 7F F0  ....tkb1R.......
14D0: FF FF 7F 33 34 31 30 45  11 80 F0 FF FF 7F F0 FF  ...3410E........
14E0: FF 7F 33 34 31 31 01 80  2B 1D B0 0F 01 9D 80 23  ..3411..+......#
14F0: 2B 1D B0 0F 01 9E 80 23  52 11 80 F0 FF FF 7F F0  +......#R.......
1500: FF FF 7F 33 34 31 31 45  11 80 F0 FF FF 7F F0 FF  ...3411E........
1510: FF 7F 33 34 31 32 01 80  7B 1D B0 0F 01 1C 28 80  ..3412..{.....(.
1520: 2B 1D B0 0F 01 9F 80 23  2B 1D B0 0F 01 A0 80 23  +......#+......#
1530: 52 11 80 F0 FF FF 7F F0  FF FF 7F 33 34 31 32 45  R..........3412E
1540: 11 80 F0 FF FF 7F F0 FF  FF 7F 33 34 31 33 01 80  ..........3413..
1550: 5B 0F 80 1C B0 0F 01 1C  B0 0F 01 66 74 6B 30 2B  [..........ftk0+
1560: 1C B0 0F 01 A1 80 1C 13  80 23 52 11 80 F0 FF FF  .........#R.....
1570: 7F F0 FF FF 7F 33 34 31  33 45 11 80 F0 FF FF 7F  .....3413E......
1580: F0 FF FF 7F 33 34 31 34  01 80 5B 26 80 1D B0 0F  ....3414..[&....
1590: 01 1D B0 0F 01 74 68 6B  30 1C 12 80 2B 1D B0 0F  .....thk0...+...
15A0: 01 A2 80 23 5B 0F 80 1C  B0 0F 01 1C B0 0F 01 66  ...#[..........f
15B0: 74 6B 31 2B 1C B0 0F 01  A3 80 23 52 11 80 F0 FF  tk1+......#R....
15C0: FF 7F F0 FF FF 7F 33 34  31 34 45 11 80 F0 FF FF  ......3414E.....
15D0: 7F F0 FF FF 7F 33 34 32  35 01 80 1C 10 80 2B 1D  .....3425.....+.
15E0: B0 0F 01 A4 80 1C 47 80  23 52 11 80 F0 FF FF 7F  ......G.#R......
15F0: F0 FF FF 7F 33 34 32 35  45 11 80 F0 FF FF 7F F0  ....3425E.......
1600: FF FF 7F 33 34 31 35 01  80 1C 10 80 2B 1C B0 0F  ...3415.....+...
1610: 01 A5 80 23 52 11 80 F0  FF FF 7F F0 FF FF 7F 33  ...#R..........3
1620: 34 31 35 45 11 80 F0 FF  FF 7F F0 FF FF 7F 33 34  415E..........34
1630: 31 36 01 80 5B 26 80 1D  B0 0F 01 1D B0 0F 01 74  16..[&.........t
1640: 68 6B 31 79 00 1D B0 0F  01 1C B0 0F 01 1C 12 80  hk1y............
1650: 2B 1D B0 0F 01 A6 80 23  5B 26 80 1D B0 0F 01 1D  +......#[&......
1660: B0 0F 01 74 6C 6B 30 2B  1D B0 0F 01 A7 80 1C 13  ...tlk0+........
1670: 80 23 5B 26 80 1D B0 0F  01 1D B0 0F 01 74 6C 6B  .#[&.........tlk
1680: 31 52 11 80 F0 FF FF 7F  F0 FF FF 7F 33 34 31 36  1R..........3416
1690: 45 11 80 F0 FF FF 7F F0  FF FF 7F 33 34 31 38 01  E..........3418.
16A0: 80 2B 1C B0 0F 01 A8 80  23 52 11 80 F0 FF FF 7F  .+......#R......
16B0: F0 FF FF 7F 33 34 31 38  45 11 80 F0 FF FF 7F F0  ....3418E.......
16C0: FF FF 7F 33 34 31 37 01  80 7B 1D B0 0F 01 27 10  ...3417..{....'.
16D0: 1D B0 0F 01 13 1C 12 80  2B 1D B0 0F 01 A9 80 23  ........+......#
16E0: 2A 10 1D B0 0F 01 4A 1C  B0 0F 01 1D B0 0F 01 52  *.....J........R
16F0: 11 80 F0 FF FF 7F F0 FF  FF 7F 33 34 31 37 45 11  ..........3417E.
1700: 80 F0 FF FF 7F F0 FF FF  7F 33 34 31 39 01 80 1C  .........3419...
1710: 10 80 2B 1D B0 0F 01 AA  80 23 52 11 80 F0 FF FF  ..+......#R.....
1720: 7F F0 FF FF 7F 33 34 31  39 45 11 80 F0 FF FF 7F  .....3419E......
1730: F0 FF FF 7F 33 34 32 30  01 80 5B 0F 80 1C B0 0F  ....3420..[.....
1740: 01 1C B0 0F 01 66 74 6B  30 1C 28 80 2B 1C B0 0F  .....ftk0.(.+...
1750: 01 AB 80 23 5B 26 80 1D  B0 0F 01 1D B0 0F 01 74  ...#[&.........t
1760: 68 6B 30 1C 12 80 2B 1D  B0 0F 01 AC 80 23 52 11  hk0...+......#R.
1770: 80 F0 FF FF 7F F0 FF FF  7F 33 34 32 30 45 11 80  .........3420E..
1780: F0 FF FF 7F F0 FF FF 7F  33 34 32 31 01 80 2B 1D  ........3421..+.
1790: B0 0F 01 AD 80 23 2B 1D  B0 0F 01 AE 80 23 5D 01  .....#+......#].
17A0: 80 1B 80 2B 1D B0 0F 01  AF 80 23 52 11 80 F0 FF  ...+......#R....
17B0: FF 7F F0 FF FF 7F 33 34  32 31 45 11 80 F0 FF FF  ......3421E.....
17C0: 7F F0 FF FF 7F 33 34 32  32 01 80 1C 10 80 2B 1C  .....3422.....+.
17D0: B0 0F 01 B0 80 23 52 11  80 F0 FF FF 7F F0 FF FF  .....#R.........
17E0: 7F 33 34 32 32 45 11 80  F0 FF FF 7F F0 FF FF 7F  .3422E..........
17F0: 33 34 32 33 01 80 5B 26  80 1D B0 0F 01 1D B0 0F  3423..[&........
1800: 01 74 68 6B 31 1C 28 80  2B 1D B0 0F 01 B1 80 23  .thk1.(.+......#
1810: 5B 0F 80 1C B0 0F 01 1C  B0 0F 01 66 74 6B 31 1C  [..........ftk1.
1820: 10 80 2B 1C B0 0F 01 B2  80 23 79 00 1D B0 0F 01  ..+......#y.....
1830: 1C B0 0F 01 1C 10 80 2B  1D B0 0F 01 B3 80 23 52  .......+......#R
1840: 11 80 F0 FF FF 7F F0 FF  FF 7F 33 34 32 33 45 11  ..........3423E.
1850: 80 F0 FF FF 7F F0 FF FF  7F 33 34 32 34 01 80 2B  .........3424..+
1860: 1D B0 0F 01 B4 80 23 2B  1D B0 0F 01 B5 80 23 2B  ......#+......#+
1870: 1C B0 0F 01 B6 80 23 7B  1D B0 0F 01 1C 12 80 5C  ......#{.......\
1880: 00 B7 80 5C 01 B7 80 9A  2B 1D B0 0F 01 B8 80 23  ...\....+......#
1890: 52 11 80 F0 FF FF 7F F0  FF FF 7F 33 34 32 34 45  R..........3424E
18A0: 11 80 F0 FF FF 7F F0 FF  FF 7F 33 34 32 36 01 80  ..........3426..
18B0: 1C B9 80 2B 1C B0 0F 01  BA 80 23 52 11 80 F0 FF  ...+......#R....
18C0: FF 7F F0 FF FF 7F 33 34  32 36 45 11 80 F0 FF FF  ......3426E.....
18D0: 7F F0 FF FF 7F 33 34 32  37 01 80 79 02 1D B0 0F  .....3427..y....
18E0: 01 BB 80 01 80 1C 10 80  2B 1D B0 0F 01 BC 80 23  ........+......#
18F0: 2B 1D B0 0F 01 BD 80 23  5B 0F 80 1C B0 0F 01 1C  +......#[.......
1900: B0 0F 01 66 74 6B 30 2B  1C B0 0F 01 BE 80 1C 10  ...ftk0+........
1910: 80 79 00 F0 FF FF 7F 1C  B0 0F 01 1C 12 80 23 52  .y............#R
1920: 11 80 F0 FF FF 7F F0 FF  FF 7F 33 34 32 37 45 11  ..........3427E.
1930: 80 F0 FF FF 7F F0 FF FF  7F 33 34 32 38 01 80 1C  .........3428...
1940: 12 80 2B 1D B0 0F 01 BF  80 23 52 11 80 F0 FF FF  ..+......#R.....
1950: 7F F0 FF FF 7F 33 34 32  38 45 11 80 F0 FF FF 7F  .....3428E......
1960: F0 FF FF 7F 33 34 32 39  01 80 5B 0F 80 1C B0 0F  ....3429..[.....
1970: 01 1C B0 0F 01 66 74 6B  31 1C 10 80 79 00 1D B0  .....ftk1...y...
1980: 0F 01 1C B0 0F 01 2B 1C  B0 0F 01 C0 80 23 52 11  ......+......#R.
1990: 80 F0 FF FF 7F F0 FF FF  7F 33 34 32 39 45 11 80  .........3429E..
19A0: F0 FF FF 7F F0 FF FF 7F  33 34 33 30 01 80 79 00  ........3430..y.
19B0: F0 FF FF 7F 1D B0 0F 01  2B 1D B0 0F 01 C1 80 23  ........+......#
19C0: 5B 0F 80 1C B0 0F 01 1C  B0 0F 01 74 68 6B 30 2B  [..........thk0+
19D0: 1C B0 0F 01 C2 80 23 C5  75 80 1F B0 0F 01 1F B0  ......#.u.......
19E0: 0F 01 73 30 30 30 01 80  52 11 80 F0 FF FF 7F F0  ..s000..R.......
19F0: FF FF 7F 33 34 33 30 45  11 80 F0 FF FF 7F F0 FF  ...3430E........
1A00: FF 7F 33 34 33 31 01 80  7B 1D B0 0F 01 1C 10 80  ..3431..{.......
1A10: 2B 1D B0 0F 01 C3 80 23  2B 1C B0 0F 01 C4 80 23  +......#+......#
1A20: 52 11 80 F0 FF FF 7F F0  FF FF 7F 33 34 33 31 45  R..........3431E
1A30: 11 80 F0 FF FF 7F F0 FF  FF 7F 33 34 33 32 01 80  ..........3432..
1A40: 5B 26 80 1D B0 0F 01 1D  B0 0F 01 74 68 6B 30 7B  [&.........thk0{
1A50: 1C B0 0F 01 1C 10 80 2B  1D B0 0F 01 C5 80 1C 13  .......+........
1A60: 80 23 52 11 80 F0 FF FF  7F F0 FF FF 7F 33 34 33  .#R..........343
1A70: 32 45 11 80 F0 FF FF 7F  F0 FF FF 7F 33 34 34 32  2E..........3442
1A80: 01 80 77 02 80 C6 80 AB  09 1C 12 80 27 10 1F B0  ..w.........'...
1A90: 0F 01 06 2B 1D B0 0F 01  C7 80 23 2A 10 1F B0 0F  ...+......#*....
1AA0: 01 52 11 80 F0 FF FF 7F  F0 FF FF 7F 33 34 34 32  .R..........3442
1AB0: 45 11 80 F0 FF FF 7F F0  FF FF 7F 33 34 34 31 01  E..........3441.
1AC0: 80 1C 12 80 27 10 1E B0  0F 01 07 27 10 1F B0 0F  ....'......'....
1AD0: 01 07 2B 1D B0 0F 01 C8  80 1C C9 80 23 52 11 80  ..+.........#R..
1AE0: F0 FF FF 7F F0 FF FF 7F  33 34 34 31 45 11 80 F0  ........3441E...
1AF0: FF FF 7F F0 FF FF 7F 33  34 34 36 01 80 5B 26 80  .......3446..[&.
1B00: 1D B0 0F 01 1D B0 0F 01  74 68 6B 31 1C 28 80 2B  ........thk1.(.+
1B10: 1D B0 0F 01 CA 80 1C 38  80 23 52 11 80 F0 FF FF  .......8.#R.....
1B20: 7F F0 FF FF 7F 33 34 34  36 45 11 80 F0 FF FF 7F  .....3446E......
1B30: F0 FF FF 7F 33 34 33 33  01 80 02 02 00 01 80 00  ....3433........
1B40: 46 1B 78 01 4B 1B 77 02  80 03 80 79 00 1D B0 0F  F.x.K.w....y....
1B50: 01 1C B0 0F 01 1C 12 80  C5 75 80 1F B0 0F 01 1F  .........u......
1B60: B0 0F 01 6B 69 6C 30 01  80 4E 01 1E B0 0F 01 2B  ...kil0..N.....+
1B70: 1C B0 0F 01 CB 80 23 52  11 80 F0 FF FF 7F F0 FF  ......#R........
1B80: FF 7F 33 34 33 33 45 11  80 F0 FF FF 7F F0 FF FF  ..3433E.........
1B90: 7F 33 34 33 34 01 80 5B  0F 80 1C B0 0F 01 1C B0  .3434..[........
1BA0: 0F 01 74 68 6B 31 1C 12  80 2B 1C B0 0F 01 CC 80  ..thk1...+......
1BB0: 23 53 1C B0 0F 01 1C B0  0F 01 74 68 6B 31 2B 1C  #S........thk1+.
1BC0: B0 0F 01 CD 80 1C 10 80  79 00 1C B0 0F 01 F0 FF  ........y.......
1BD0: FF 7F 1C 10 80 7B 1D B0  0F 01 1C 10 80 23 52 11  .....{.......#R.
1BE0: 80 F0 FF FF 7F F0 FF FF  7F 33 34 33 34 45 11 80  .........3434E..
1BF0: F0 FF FF 7F F0 FF FF 7F  33 34 33 35 01 80 5B 26  ........3435..[&
1C00: 80 1D B0 0F 01 1D B0 0F  01 74 6C 6B 30 03 02 10  .........tlk0...
1C10: 13 80 27 10 1E B0 0F 01  01 2B 1D B0 0F 01 CE 80  ..'......+......
1C20: 23 4A 1C B0 0F 01 F0 FF  FF 7F 2B 1D B0 0F 01 CF  #J........+.....
1C30: 80 23 2A 10 1E B0 0F 01  52 11 80 F0 FF FF 7F F0  .#*.....R.......
1C40: FF FF 7F 33 34 33 35 45  11 80 F0 FF FF 7F F0 FF  ...3435E........
1C50: FF 7F 33 34 33 36 01 80  5B 26 80 1D B0 0F 01 1D  ..3436..[&......
1C60: B0 0F 01 74 6C 6B 31 1C  12 80 7B 1C B0 0F 01 2B  ...tlk1...{....+
1C70: 1D B0 0F 01 D0 80 23 29  10 F0 FF FF 7F 16 52 11  ......#)......R.
1C80: 80 F0 FF FF 7F F0 FF FF  7F 33 34 33 36 02 02 10  .........3436...
1C90: 04 80 80 A9 1C 45 11 80  F0 FF FF 7F F0 FF FF 7F  .....E..........
1CA0: 33 34 68 6D 01 80 01 6D  1D 02 02 10 50 80 80 C5  34hm...m....P...
1CB0: 1C 45 11 80 F0 FF FF 7F  F0 FF FF 7F 33 34 68 66  .E..........34hf
1CC0: 01 80 01 6D 1D 02 02 10  51 80 80 E1 1C 45 11 80  ...m....Q....E..
1CD0: F0 FF FF 7F F0 FF FF 7F  33 34 65 6D 01 80 01 6D  ........34em...m
1CE0: 1D 02 02 10 52 80 80 FD  1C 45 11 80 F0 FF FF 7F  ....R....E......
1CF0: F0 FF FF 7F 33 34 65 66  01 80 01 6D 1D 02 02 10  ....34ef...m....
1D00: 53 80 80 19 1D 45 11 80  F0 FF FF 7F F0 FF FF 7F  S....E..........
1D10: 33 34 74 72 01 80 01 6D  1D 02 02 10 54 80 80 35  34tr...m....T..5
1D20: 1D 45 11 80 F0 FF FF 7F  F0 FF FF 7F 33 34 74 72  .E..........34tr
1D30: 01 80 01 6D 1D 02 02 10  55 80 80 51 1D 45 11 80  ...m....U..Q.E..
1D40: F0 FF FF 7F F0 FF FF 7F  33 34 6D 74 01 80 01 6D  ........34mt...m
1D50: 1D 02 02 10 56 80 80 6D  1D 45 11 80 F0 FF FF 7F  ....V..m.E......
1D60: F0 FF FF 7F 33 34 67 6C  01 80 01 6D 1D 6E F0 FF  ....34gl...m.n..
1D70: FF 7F 55 80 99 F0 FF FF  7F 1C 13 80 52 11 80 F0  ..U.........R...
1D80: FF FF 7F F0 FF FF 7F 33  34 68 6D 52 11 80 F0 FF  .......34hmR....
1D90: FF 7F F0 FF FF 7F 33 34  68 66 52 11 80 F0 FF FF  ......34hfR.....
1DA0: 7F F0 FF FF 7F 33 34 65  6D 52 11 80 F0 FF FF 7F  .....34emR......
1DB0: F0 FF FF 7F 33 34 65 66  52 11 80 F0 FF FF 7F F0  ....34efR.......
1DC0: FF FF 7F 33 34 74 72 52  11 80 F0 FF FF 7F F0 FF  ...34trR........
1DD0: FF 7F 33 34 6D 74 52 11  80 F0 FF FF 7F F0 FF FF  ..34mtR.........
1DE0: 7F 33 34 67 6C 45 11 80  F0 FF FF 7F F0 FF FF 7F  .34glE..........
1DF0: 33 34 33 37 01 80 1C 12  80 2B 1D B0 0F 01 D1 80  3437.....+......
1E00: 23 5B 0F 80 1C B0 0F 01  1C B0 0F 01 66 74 6B 30  #[..........ftk0
1E10: 2B 1C B0 0F 01 D2 80 23  52 11 80 F0 FF FF 7F F0  +......#R.......
1E20: FF FF 7F 33 34 33 37 45  11 80 F0 FF FF 7F F0 FF  ...3437E........
1E30: FF 7F 33 34 33 38 01 80  5B 26 80 1D B0 0F 01 1D  ..3438..[&......
1E40: B0 0F 01 74 6C 6B 30 2B  1D B0 0F 01 D3 80 1C 13  ...tlk0+........
1E50: 80 23 5B 26 80 1D B0 0F  01 1D B0 0F 01 74 6C 6B  .#[&.........tlk
1E60: 31 1C 10 80 2B 1D B0 0F  01 D4 80 23 52 11 80 F0  1...+......#R...
1E70: FF FF 7F F0 FF FF 7F 33  34 33 38 45 11 80 F0 FF  .......3438E....
1E80: FF 7F F0 FF FF 7F 33 34  33 39 01 80 5B 0F 80 1C  ......3439..[...
1E90: B0 0F 01 1C B0 0F 01 66  74 6B 31 1C 28 80 2B 1C  .......ftk1.(.+.
1EA0: B0 0F 01 D5 80 23 52 11  80 F0 FF FF 7F F0 FF FF  .....#R.........
1EB0: 7F 33 34 33 39 45 11 80  F0 FF FF 7F F0 FF FF 7F  .3439E..........
1EC0: 33 34 34 30 01 80 5D 01  80 1B 80 6E F0 FF FF 7F  3440..]....n....
1ED0: 55 80 99 F0 FF FF 7F 1C  13 80 1A DA 2C 1C 10 80  U...........,...
1EE0: 52 11 80 F0 FF FF 7F F0  FF FF 7F 33 34 34 30 45  R..........3440E
1EF0: 11 80 F0 FF FF 7F F0 FF  FF 7F 30 62 6C 66 01 80  ..........0blf..
1F00: 02 02 00 01 80 00 0B 1F  01 11 1F 78 1C 04 80 AB  ...........x....
1F10: 0A 5C 00 75 80 5C 01 75  80 9A 46 00 45 76 80 F0  .\.u.\.u..F.Ev..
1F20: FF FF 7F F0 FF FF 7F 66  64 69 32 01 80 21 00     .......fdi2..!. 
```

#### Opcodes

```
  0: 0x0F81 [0x42] SET_CLI_EVENT_CANCEL_DATA()
  1: 0x0F82 [0x1A] CALL_SUBROUTINE(address=0x2CDA)
  2: 0x0F85 [0x46] CAMERA_CONTROL: Disable user control
  3: 0x0F87 [0x38] SET_CLIENT_EVENT_MODE(mode=19*)
  4: 0x0F8A [0x4E] SET_ENTITY_HIDE_FLAG: Show LocalPlayer
  5: 0x0F90 [0x02] IF !(ExtData[1]->WorkLocal[2] == 0*) GOTO 0x0F9B
  6: 0x0F98 [0x01] GOTO 0x0FA5
  7: 0x0F9B [0x77] SET_EVENT_TIME_WEATHER(hour=18*, weather=255*)
  8: 0x0FA0 [0x1C] WAIT(1* ticks)
  9: 0x0FA3 [0xAB] EventEntity->UnknownFlag = 1 // Enable unknown flag

SUBROUTINE_0FA5:
 10: 0x0FA5 [0x27] REQ_SET(priority=0x10, entity_id=Unnamed NPC (ID: 17805340/0x010FB01C), tag_num=0x04)
 11: 0x0FAC [0x27] REQ_SET(priority=0x10, entity_id=Unnamed NPC (ID: 17805341/0x010FB01D), tag_num=0x04)
 12: 0x0FB3 [0x27] REQ_SET(priority=0x10, entity_id=Unnamed NPC (ID: 17805344/0x010FB020), tag_num=0x04)
 13: 0x0FBA [0x27] REQ_SET(priority=0x10, entity_id=Unnamed NPC (ID: 17805345/0x010FB021), tag_num=0x04)
 14: 0x0FC1 [0x27] REQ_SET(priority=0x10, entity_id=Unnamed NPC (ID: 17805346/0x010FB022), tag_num=0x04)
 15: 0x0FC8 [0x27] REQ_SET(priority=0x10, entity_id=Unnamed NPC (ID: 17805347/0x010FB023), tag_num=0x04)
 16: 0x0FCF [0x4E] SET_ENTITY_HIDE_FLAG: Show ??? (ID: 17805342/0x010FB01E)
 17: 0x0FD5 [0x4E] SET_ENTITY_HIDE_FLAG: Show Unnamed NPC (ID: 17805343/0x010FB01F)
 18: 0x0FDB [0x92] Unnamed NPC (ID: 17805340/0x010FB01C)->Render.Flags3 ^= 0x01
 19: 0x0FE1 [0x94] LocalPlayer->Render.Flags3 ^= 0x01
 20: 0x0FE7 [0x94] Unnamed NPC (ID: 17805340/0x010FB01C)->Render.Flags3 ^= 0x01
