# 17805337

## Common Data

| Field            | Value                      |
|------------------|----------------------------|
| Zone             | Hall of the Gods (ID: 251) |
| Block Size       | 336 bytes                  |
| Total Events     | 16                         |
| References Count | 19                         |

## List of Events

| Event ID                   | Entrypoint   |   Size |   Instructions |
|----------------------------|--------------|--------|----------------|
| [65535](#event-65535)      | 0x0000       |      1 |              1 |
| [5](#event-5)              | 0x0001       |      4 |              2 |
| [65535.1](#event-655351)   | 0x0005       |      5 |              2 |
| [65535.2](#event-655352)   | 0x000A       |      5 |              2 |
| [65535.3](#event-655353)   | 0x000F       |      5 |              2 |
| [65535.4](#event-655354)   | 0x0014       |      5 |              2 |
| [65535.5](#event-655355)   | 0x0019       |     16 |              2 |
| [65535.6](#event-655356)   | 0x0029       |     34 |              4 |
| [65535.7](#event-655357)   | 0x004B       |     21 |              3 |
| [65535.8](#event-655358)   | 0x0060       |     21 |              3 |
| [65535.9](#event-655359)   | 0x0075       |     10 |              2 |
| [65535.10](#event-6553510) | 0x007F       |     10 |              2 |
| [65535.11](#event-6553511) | 0x0089       |     10 |              2 |
| [65535.12](#event-6553512) | 0x0093       |     10 |              2 |
| [65535.13](#event-6553513) | 0x009D       |     10 |              2 |
| [65535.14](#event-6553514) | 0x00A7       |     10 |              2 |

## DAT References (imed_data)

|   Index | Hex Value   |   Dec Value |
|---------|-------------|-------------|
|       0 | 0x0001      |           1 |
|       1 | 0x092F      |        2351 |
|       2 | 0x004E      |          78 |
|       3 | 0x0034      |          52 |
|       4 | 0x092E      |        2350 |
|       5 | 0x0A38      |        2616 |
|       6 | 0xFFFFFFD8  |  4294967256 |
|       7 | 0xFFFFFFCA  |  4294967242 |
|       8 | 0xFFFFCD39  |  4294954297 |
|       9 | 0x0320      |         800 |
|      10 | 0x0A3E      |        2622 |
|      11 | 0x0050      |          80 |
|      12 | 0x00B4      |         180 |
|      13 | 0x0030      |          48 |
|      14 | 0x012C      |         300 |
|      15 | 0x0000      |           0 |
|      16 | 0x0168      |         360 |
|      17 | 0x0080      |         128 |
|      18 | 0x0078      |         120 |

## Events

### Event 65535

#### Metadata

| Field        | Value   |
|--------------|---------|
| Entrypoint   | 0x0000  |
| Data Size    | 1 bytes |
| Instructions | 1       |

```
      00 01 02 03 04 05 06 07  08 09 0A 0B 0C 0D 0E 0F
      -- -- -- -- -- -- -- --  -- -- -- -- -- -- -- --
0000: 00                                                .               
```

#### Opcodes

```
  0: 0x0000 [0x00] END_REQSTACK()
```

### Event 5

#### Metadata

| Field        | Value   |
|--------------|---------|
| Entrypoint   | 0x0001  |
| Data Size    | 4 bytes |
| Instructions | 2       |

```
      00 01 02 03 04 05 06 07  08 09 0A 0B 0C 0D 0E 0F
      -- -- -- -- -- -- -- --  -- -- -- -- -- -- -- --
0000:    C0 00 80 00                                     ....           
```

#### Opcodes

```
  0: 0x0001 [0xC0] EventEntity->Render.Flags3 |= 0x1000 // Set bit 12 (from 1*)
  1: 0x0004 [0x00] END_REQSTACK()
```

### Event 65535.1

#### Metadata

| Field        | Value   |
|--------------|---------|
| Entrypoint   | 0x0005  |
| Data Size    | 5 bytes |
| Instructions | 2       |

```
      00 01 02 03 04 05 06 07  08 09 0A 0B 0C 0D 0E 0F
      -- -- -- -- -- -- -- --  -- -- -- -- -- -- -- --
0000:                B6 00 01  80 00                         .....      
```

#### Opcodes

```
  0: 0x0005 [0xB6] ENTITY_APPEARANCE_HANDLER(case=Hair style, value=2351*)
  1: 0x0009 [0x00] END_REQSTACK()
```

### Event 65535.2

#### Metadata

| Field        | Value   |
|--------------|---------|
| Entrypoint   | 0x000A  |
| Data Size    | 5 bytes |
| Instructions | 2       |

```
      00 01 02 03 04 05 06 07  08 09 0A 0B 0C 0D 0E 0F
      -- -- -- -- -- -- -- --  -- -- -- -- -- -- -- --
0000:                                B6 00 02 80 00               ..... 
```

#### Opcodes

```
  0: 0x000A [0xB6] ENTITY_APPEARANCE_HANDLER(case=Hair style, value=78*)
  1: 0x000E [0x00] END_REQSTACK()
```

### Event 65535.3

#### Metadata

| Field        | Value   |
|--------------|---------|
| Entrypoint   | 0x000F  |
| Data Size    | 5 bytes |
| Instructions | 2       |

```
      00 01 02 03 04 05 06 07  08 09 0A 0B 0C 0D 0E 0F
      -- -- -- -- -- -- -- --  -- -- -- -- -- -- -- --
0000:                                               B6                 .
0010: 00 03 80 00                                       ....            
```

#### Opcodes

```
  0: 0x000F [0xB6] ENTITY_APPEARANCE_HANDLER(case=Hair style, value=52*)
  1: 0x0013 [0x00] END_REQSTACK()
```

### Event 65535.4

#### Metadata

| Field        | Value   |
|--------------|---------|
| Entrypoint   | 0x0014  |
| Data Size    | 5 bytes |
| Instructions | 2       |

```
      00 01 02 03 04 05 06 07  08 09 0A 0B 0C 0D 0E 0F
      -- -- -- -- -- -- -- --  -- -- -- -- -- -- -- --
0010:             B6 00 04 80  00                           .....       
```

#### Opcodes

```
  0: 0x0014 [0xB6] ENTITY_APPEARANCE_HANDLER(case=Hair style, value=2350*)
  1: 0x0018 [0x00] END_REQSTACK()
```

### Event 65535.5

#### Metadata

| Field        | Value    |
|--------------|----------|
| Entrypoint   | 0x0019   |
| Data Size    | 16 bytes |
| Instructions | 2        |

```
      00 01 02 03 04 05 06 07  08 09 0A 0B 0C 0D 0E 0F
      -- -- -- -- -- -- -- --  -- -- -- -- -- -- -- --
0010:                             5B 05 80 19 B0 0F 01           [......
0020: 19 B0 0F 01 65 6D 65 31  00                       ....eme1.       
```

#### Opcodes

```
  0: 0x0019 [0x5B] LOAD_EXT_SCHEDULER: Load scheduler "eme1" with entities [??? (ID: 17805337/0x010FB019), ??? (ID: 17805337/0x010FB019)], work=2616*
  1: 0x0028 [0x00] END_REQSTACK()
```

### Event 65535.6

#### Metadata

| Field        | Value    |
|--------------|----------|
| Entrypoint   | 0x0029   |
| Data Size    | 34 bytes |
| Instructions | 4        |

```
      00 01 02 03 04 05 06 07  08 09 0A 0B 0C 0D 0E 0F
      -- -- -- -- -- -- -- --  -- -- -- -- -- -- -- --
0020:                             BA 19 B0 0F 01 06 80           .......
0030: 07 80 08 80 09 80 5B 05  80 19 B0 0F 01 19 B0 0F  ......[.........
0040: 01 65 6D 6C 31 7B 19 B0  0F 01 00                 .eml1{.....     
```

#### Opcodes

```
  0: 0x0029 [0xBA] SET_ENTITY_POSITION(entity_id=??? (ID: 17805337/0x010FB019), pos_x=-0.040*, pos_z=-0.054*, pos_y=-12.999*, direction=70.3°*)
  1: 0x0036 [0x5B] LOAD_EXT_SCHEDULER: Load scheduler "eml1" with entities [??? (ID: 17805337/0x010FB019), ??? (ID: 17805337/0x010FB019)], work=2616*
  2: 0x0045 [0x7B] ??? (ID: 17805337/0x010FB019) stops talking
  3: 0x004A [0x00] END_REQSTACK()
```

### Event 65535.7

#### Metadata

| Field        | Value    |
|--------------|----------|
| Entrypoint   | 0x004B   |
| Data Size    | 21 bytes |
| Instructions | 3        |

```
      00 01 02 03 04 05 06 07  08 09 0A 0B 0C 0D 0E 0F
      -- -- -- -- -- -- -- --  -- -- -- -- -- -- -- --
0040:                                   7B 19 B0 0F 01             {....
0050: 5B 0A 80 19 B0 0F 01 19  B0 0F 01 65 64 30 30 00  [..........ed00.
```

#### Opcodes

```
  0: 0x004B [0x7B] ??? (ID: 17805337/0x010FB019) stops talking
  1: 0x0050 [0x5B] LOAD_EXT_SCHEDULER: Load scheduler "ed00" with entities [??? (ID: 17805337/0x010FB019), ??? (ID: 17805337/0x010FB019)], work=2622*
  2: 0x005F [0x00] END_REQSTACK()
```

### Event 65535.8

#### Metadata

| Field        | Value    |
|--------------|----------|
| Entrypoint   | 0x0060   |
| Data Size    | 21 bytes |
| Instructions | 3        |

```
      00 01 02 03 04 05 06 07  08 09 0A 0B 0C 0D 0E 0F
      -- -- -- -- -- -- -- --  -- -- -- -- -- -- -- --
0060: 7B 19 B0 0F 01 5B 0A 80  19 B0 0F 01 19 B0 0F 01  {....[..........
0070: 65 64 30 31 00                                    ed01.           
```

#### Opcodes

```
  0: 0x0060 [0x7B] ??? (ID: 17805337/0x010FB019) stops talking
  1: 0x0065 [0x5B] LOAD_EXT_SCHEDULER: Load scheduler "ed01" with entities [??? (ID: 17805337/0x010FB019), ??? (ID: 17805337/0x010FB019)], work=2622*
  2: 0x0074 [0x00] END_REQSTACK()
```

### Event 65535.9

#### Metadata

| Field        | Value    |
|--------------|----------|
| Entrypoint   | 0x0075   |
| Data Size    | 10 bytes |
| Instructions | 2        |

```
      00 01 02 03 04 05 06 07  08 09 0A 0B 0C 0D 0E 0F
      -- -- -- -- -- -- -- --  -- -- -- -- -- -- -- --
0070:                6C 16 B0  0F 01 0B 80 0C 80 00          l......... 
```

#### Opcodes

```
  0: 0x0075 [0x6C] FADE_ENTITY_COLOR(entity_id=Mathilde (ID: 17805334/0x010FB016), end_alpha=80*, fade_time=180*)
  1: 0x007E [0x00] END_REQSTACK()
```

### Event 65535.10

#### Metadata

| Field        | Value    |
|--------------|----------|
| Entrypoint   | 0x007F   |
| Data Size    | 10 bytes |
| Instructions | 2        |

```
      00 01 02 03 04 05 06 07  08 09 0A 0B 0C 0D 0E 0F
      -- -- -- -- -- -- -- --  -- -- -- -- -- -- -- --
0070:                                               6C                 l
0080: 16 B0 0F 01 0D 80 0E 80  00                       .........       
```

#### Opcodes

```
  0: 0x007F [0x6C] FADE_ENTITY_COLOR(entity_id=Mathilde (ID: 17805334/0x010FB016), end_alpha=48*, fade_time=300*)
  1: 0x0088 [0x00] END_REQSTACK()
```

### Event 65535.11

#### Metadata

| Field        | Value    |
|--------------|----------|
| Entrypoint   | 0x0089   |
| Data Size    | 10 bytes |
| Instructions | 2        |

```
      00 01 02 03 04 05 06 07  08 09 0A 0B 0C 0D 0E 0F
      -- -- -- -- -- -- -- --  -- -- -- -- -- -- -- --
0080:                             6C 16 B0 0F 01 0F 80           l......
0090: 10 80 00                                          ...             
```

#### Opcodes

```
  0: 0x0089 [0x6C] FADE_ENTITY_COLOR(entity_id=Mathilde (ID: 17805334/0x010FB016), end_alpha=0*, fade_time=360*)
  1: 0x0092 [0x00] END_REQSTACK()
```

### Event 65535.12

#### Metadata

| Field        | Value    |
|--------------|----------|
| Entrypoint   | 0x0093   |
| Data Size    | 10 bytes |
| Instructions | 2        |

```
      00 01 02 03 04 05 06 07  08 09 0A 0B 0C 0D 0E 0F
      -- -- -- -- -- -- -- --  -- -- -- -- -- -- -- --
0090:          6C 18 B0 0F 01  11 80 12 80 00              l.........   
```

#### Opcodes

```
  0: 0x0093 [0x6C] FADE_ENTITY_COLOR(entity_id=Young Aldo (ID: 17805336/0x010FB018), end_alpha=128*, fade_time=120*)
  1: 0x009C [0x00] END_REQSTACK()
```

### Event 65535.13

#### Metadata

| Field        | Value    |
|--------------|----------|
| Entrypoint   | 0x009D   |
| Data Size    | 10 bytes |
| Instructions | 2        |

```
      00 01 02 03 04 05 06 07  08 09 0A 0B 0C 0D 0E 0F
      -- -- -- -- -- -- -- --  -- -- -- -- -- -- -- --
0090:                                         6C 18 B0               l..
00A0: 0F 01 0F 80 12 80 00                              .......         
```

#### Opcodes

```
  0: 0x009D [0x6C] FADE_ENTITY_COLOR(entity_id=Young Aldo (ID: 17805336/0x010FB018), end_alpha=0*, fade_time=120*)
  1: 0x00A6 [0x00] END_REQSTACK()
```

### Event 65535.14

#### Metadata

| Field        | Value    |
|--------------|----------|
| Entrypoint   | 0x00A7   |
| Data Size    | 10 bytes |
| Instructions | 2        |

```
      00 01 02 03 04 05 06 07  08 09 0A 0B 0C 0D 0E 0F
      -- -- -- -- -- -- -- --  -- -- -- -- -- -- -- --
00A0:                      6C  F8 FF FF 7F 0F 80 00 80         l........
00B0: 00                                                .               
```

#### Opcodes

```
  0: 0x00A7 [0x6C] FADE_ENTITY_COLOR(entity_id=EventEntity, end_alpha=0*, fade_time=1*)
  1: 0x00B0 [0x00] END_REQSTACK()
```
