# 0x7FFFFFF0 - Zone Events

## Common Data

| Field            | Value                      |
|------------------|----------------------------|
| Zone             | Hall of the Gods (ID: 251) |
| Block Size       | 1876 bytes                 |
| Total Events     | 42                         |
| References Count | 85                         |

## List of Events

| Event ID                   | Entrypoint   |   Size |   Instructions |
|----------------------------|--------------|--------|----------------|
| [65535](#event-65535)      | 0x0000       |      1 |              1 |
| [65534](#event-65534)      | 0x0001       |      1 |              1 |
| [65535.1](#event-655351)   | 0x0002       |     10 |              2 |
| [65535.2](#event-655352)   | 0x000C       |     10 |              2 |
| [65535.3](#event-655353)   | 0x0016       |     15 |              5 |
| [65535.4](#event-655354)   | 0x0025       |     15 |              5 |
| [65535.5](#event-655355)   | 0x0034       |     10 |              2 |
| [65535.6](#event-655356)   | 0x003E       |     15 |              5 |
| [65535.7](#event-655357)   | 0x004D       |     20 |              3 |
| [65535.8](#event-655358)   | 0x0061       |     20 |              3 |
| [65535.9](#event-655359)   | 0x0075       |     37 |              5 |
| [65535.10](#event-6553510) | 0x009A       |     37 |              5 |
| [65535.11](#event-6553511) | 0x00BF       |      7 |              3 |
| [65535.12](#event-6553512) | 0x00C6       |    155 |             35 |
| [65535.13](#event-6553513) | 0x0161       |     15 |              5 |
| [65535.14](#event-6553514) | 0x0170       |     15 |              5 |
| [65535.15](#event-6553515) | 0x017F       |     15 |              5 |
| [65535.16](#event-6553516) | 0x018E       |     10 |              2 |
| [65535.17](#event-6553517) | 0x0198       |     15 |              5 |
| [65535.18](#event-6553518) | 0x01A7       |     10 |              2 |
| [65535.19](#event-6553519) | 0x01B1       |     15 |              5 |
| [65535.20](#event-6553520) | 0x01C0       |     15 |              5 |
| [65535.21](#event-6553521) | 0x01CF       |      6 |              2 |
| [65535.22](#event-6553522) | 0x01D5       |      6 |              2 |
| [65535.23](#event-6553523) | 0x01DB       |     24 |              4 |
| [65535.24](#event-6553524) | 0x01F3       |     24 |              4 |
| [65535.25](#event-6553525) | 0x020B       |     37 |              5 |
| [65535.26](#event-6553526) | 0x0230       |     37 |              5 |
| [65535.27](#event-6553527) | 0x0255       |     42 |              6 |
| [65535.28](#event-6553528) | 0x027F       |     15 |              5 |
| [65535.29](#event-6553529) | 0x028E       |     20 |              6 |
| [65535.30](#event-6553530) | 0x02A2       |     20 |              6 |
| [65535.31](#event-6553531) | 0x02B6       |     15 |              5 |
| [65535.32](#event-6553532) | 0x02C5       |     14 |              4 |
| [65535.33](#event-6553533) | 0x02D3       |    217 |             25 |
| [65535.34](#event-6553534) | 0x03AC       |      5 |              2 |
| [65535.35](#event-6553535) | 0x03B1       |      5 |              2 |
| [65535.36](#event-6553536) | 0x03B6       |      5 |              2 |
| [65535.37](#event-6553537) | 0x03BB       |      5 |              2 |
| [65535.38](#event-6553538) | 0x03C0       |     14 |              4 |
| [65535.39](#event-6553539) | 0x03CE       |     32 |              8 |
| [65535.40](#event-6553540) | 0x03EE       |    345 |             33 |

## DAT References (imed_data)

|   Index | Hex Value   |   Dec Value |
|---------|-------------|-------------|
|       0 | 0x0000      |           0 |
|       1 | 0xBB87      |       48007 |
|       2 | 0xFFFFCFF4  |  4294954996 |
|       3 | 0x0C00      |        3072 |
|       4 | 0xCAE1      |       51937 |
|       5 | 0x0400      |        1024 |
|       6 | 0x000D      |          13 |
|       7 | 0x000F      |          15 |
|       8 | 0x2335C     |      144220 |
|       9 | 0xFFFFAF2B  |  4294946603 |
|      10 | 0x0BE9      |        3049 |
|      11 | 0x000B      |          11 |
|      12 | 0x0019      |          25 |
|      13 | 0x23E0E     |      146958 |
|      14 | 0x0044      |          68 |
|      15 | 0x2472F     |      149295 |
|      16 | 0x0057      |          87 |
|      17 | 0x3D344     |      250692 |
|      18 | 0x006D      |         109 |
|      19 | 0x0C01      |        3073 |
|      20 | 0x0001      |           1 |
|      21 | 0x0005      |           5 |
|      22 | 0x0002      |           2 |
|      23 | 0x000A      |          10 |
|      24 | 0x0009      |           9 |
|      25 | 0x0046      |          70 |
|      26 | 0x008C      |         140 |
|      27 | 0x00D2      |         210 |
|      28 | 0x0028      |          40 |
|      29 | 0xFFFFFE06  |  4294966790 |
|      30 | 0xFFFE7258  |  4294865496 |
|      31 | 0xFFFFDCB8  |  4294958264 |
|      32 | 0xFFFFFCBC  |  4294966460 |
|      33 | 0xFFFF4C64  |  4294921316 |
|      34 | 0xFFFF7950  |  4294932816 |
|      35 | 0xFFFFF20E  |  4294963726 |
|      36 | 0xFFFFCF19  |  4294954777 |
|      37 | 0xFFFFD509  |  4294956297 |
|      38 | 0x0BC6      |        3014 |
|      39 | 0xFFFFF52B  |  4294964523 |
|      40 | 0xFFFFE17D  |  4294959485 |
|      41 | 0xFFFFCD39  |  4294954297 |
|      42 | 0x0B2D      |        2861 |
|      43 | 0xFFFFCC02  |  4294953986 |
|      44 | 0xFFFFC914  |  4294953236 |
|      45 | 0x0C5D      |        3165 |
|      46 | 0x0D68      |        3432 |
|      47 | 0xFFFFEBCC  |  4294962124 |
|      48 | 0xFFFFF29A  |  4294963866 |
|      49 | 0xFFFFEC21  |  4294962209 |
|      50 | 0x003C      |          60 |
|      51 | 0x0029      |          41 |
|      52 | 0xFFFF620E  |  4294926862 |
|      53 | 0xFFFFFF51  |  4294967121 |
|      54 | 0xFFFFEE3E  |  4294962750 |
|      55 | 0xFFFFCD38  |  4294954296 |
|      56 | 0xFFFFFFF4  |  4294967284 |
|      57 | 0xFFFFF5E7  |  4294964711 |
|      58 | 0xFFFFFFFF  |  4294967295 |
|      59 | 0xFFFF5F8F  |  4294926223 |
|      60 | 0xFFFFFC74  |  4294966388 |
|      61 | 0xA8CA      |       43210 |
|      62 | 0x008D      |         141 |
|      63 | 0x0097      |         151 |
|      64 | 0x0003      |           3 |
|      65 | 0x00A1      |         161 |
|      66 | 0x0004      |           4 |
|      67 | 0x00AB      |         171 |
|      68 | 0x00B5      |         181 |
|      69 | 0x0006      |           6 |
|      70 | 0x0007      |           7 |
|      71 | 0x00BF      |         191 |
|      72 | 0x0008      |           8 |
|      73 | 0x00C9      |         201 |
|      74 | 0x005D      |          93 |
|      75 | 0x0060      |          96 |
|      76 | 0x0064      |         100 |
|      77 | 0x03AA      |         938 |
|      78 | 0xD818      |       55320 |
|      79 | 0xFFFFFFDB  |  4294967259 |
|      80 | 0x22EEF     |      143087 |
|      81 | 0x0480      |        1152 |
|      82 | 0x23A42     |      145986 |
|      83 | 0x001E      |          30 |
|      84 | 0x0F26      |        3878 |

## Events

### Event 65535

#### Metadata

| Field        | Value   |
|--------------|---------|
| Entrypoint   | 0x0000  |
| Data Size    | 1 bytes |
| Instructions | 1       |

```
      00 01 02 03 04 05 06 07  08 09 0A 0B 0C 0D 0E 0F
      -- -- -- -- -- -- -- --  -- -- -- -- -- -- -- --
0000: 00                                                .               
```

#### Opcodes

```
  0: 0x0000 [0x00] END_REQSTACK()
```

### Event 65534

#### Metadata

| Field        | Value   |
|--------------|---------|
| Entrypoint   | 0x0001  |
| Data Size    | 1 bytes |
| Instructions | 1       |

```
      00 01 02 03 04 05 06 07  08 09 0A 0B 0C 0D 0E 0F
      -- -- -- -- -- -- -- --  -- -- -- -- -- -- -- --
0000:    00                                              .              
```

#### Opcodes

```
  0: 0x0001 [0x00] END_REQSTACK()
```

### Event 65535.1

#### Metadata

| Field        | Value    |
|--------------|----------|
| Entrypoint   | 0x0002   |
| Data Size    | 10 bytes |
| Instructions | 2        |

```
      00 01 02 03 04 05 06 07  08 09 0A 0B 0C 0D 0E 0F
      -- -- -- -- -- -- -- --  -- -- -- -- -- -- -- --
0000:       37 00 80 01 80 02  80 03 80 00                7.........    
```

#### Opcodes

```
  0: 0x0002 [0x37] UPDATE_EVENT_POSITION_AND_DIR: x=0.000*, z=48.007*, y=-12.300*, direction=270.0°*
  1: 0x000B [0x00] END_REQSTACK()
```

### Event 65535.2

#### Metadata

| Field        | Value    |
|--------------|----------|
| Entrypoint   | 0x000C   |
| Data Size    | 10 bytes |
| Instructions | 2        |

```
      00 01 02 03 04 05 06 07  08 09 0A 0B 0C 0D 0E 0F
      -- -- -- -- -- -- -- --  -- -- -- -- -- -- -- --
0000:                                      37 00 80 04              7...
0010: 80 02 80 05 80 00                                 ......          
```

#### Opcodes

```
  0: 0x000C [0x37] UPDATE_EVENT_POSITION_AND_DIR: x=0.000*, z=51.937*, y=-12.300*, direction=90.0°*
  1: 0x0015 [0x00] END_REQSTACK()
```

### Event 65535.3

#### Metadata

| Field        | Value    |
|--------------|----------|
| Entrypoint   | 0x0016   |
| Data Size    | 15 bytes |
| Instructions | 5        |

```
      00 01 02 03 04 05 06 07  08 09 0A 0B 0C 0D 0E 0F
      -- -- -- -- -- -- -- --  -- -- -- -- -- -- -- --
0010:                   32 06  80 1F 00 00 80 04 80 02        2.........
0020: 80 1F 01 6F 00                                    ...o.           
```

#### Opcodes

```
  0: 0x0016 [0x32] ExtData[1]->MainSpeed = 13* * 0.1
  1: 0x0019 [0x1F] MOVE_ENTITY: EventEntity moves to X=0.000*, Z=51.937*, Y=-12.300*
  2: 0x0021 [0x1F] MOVE_ENTITY: Update entity position (mode=1)
  3: 0x0023 [0x6F] WAIT_FRAME_DELAY: Yield until WaitTime reaches zero
  4: 0x0024 [0x00] END_REQSTACK()
```

### Event 65535.4

#### Metadata

| Field        | Value    |
|--------------|----------|
| Entrypoint   | 0x0025   |
| Data Size    | 15 bytes |
| Instructions | 5        |

```
      00 01 02 03 04 05 06 07  08 09 0A 0B 0C 0D 0E 0F
      -- -- -- -- -- -- -- --  -- -- -- -- -- -- -- --
0020:                32 06 80  1F 00 00 80 01 80 02 80       2..........
0030: 1F 01 6F 00                                       ..o.            
```

#### Opcodes

```
  0: 0x0025 [0x32] ExtData[1]->MainSpeed = 13* * 0.1
  1: 0x0028 [0x1F] MOVE_ENTITY: EventEntity moves to X=0.000*, Z=48.007*, Y=-12.300*
  2: 0x0030 [0x1F] MOVE_ENTITY: Update entity position (mode=1)
  3: 0x0032 [0x6F] WAIT_FRAME_DELAY: Yield until WaitTime reaches zero
  4: 0x0033 [0x00] END_REQSTACK()
```

### Event 65535.5

#### Metadata

| Field        | Value    |
|--------------|----------|
| Entrypoint   | 0x0034   |
| Data Size    | 10 bytes |
| Instructions | 2        |

```
      00 01 02 03 04 05 06 07  08 09 0A 0B 0C 0D 0E 0F
      -- -- -- -- -- -- -- --  -- -- -- -- -- -- -- --
0030:             37 07 80 08  80 09 80 0A 80 00            7.........  
```

#### Opcodes

```
  0: 0x0034 [0x37] UPDATE_EVENT_POSITION_AND_DIR: x=0.015*, z=144.220*, y=-20.693*, direction=268.0°*
  1: 0x003D [0x00] END_REQSTACK()
```

### Event 65535.6

#### Metadata

| Field        | Value    |
|--------------|----------|
| Entrypoint   | 0x003E   |
| Data Size    | 15 bytes |
| Instructions | 5        |

```
      00 01 02 03 04 05 06 07  08 09 0A 0B 0C 0D 0E 0F
      -- -- -- -- -- -- -- --  -- -- -- -- -- -- -- --
0030:                                            32 0B                2.
0040: 80 1F 00 0C 80 0D 80 09  80 1F 01 6F 00           ...........o.   
```

#### Opcodes

```
  0: 0x003E [0x32] ExtData[1]->MainSpeed = 11* * 0.1
  1: 0x0041 [0x1F] MOVE_ENTITY: EventEntity moves to X=0.025*, Z=146.958*, Y=-20.693*
  2: 0x0049 [0x1F] MOVE_ENTITY: Update entity position (mode=1)
  3: 0x004B [0x6F] WAIT_FRAME_DELAY: Yield until WaitTime reaches zero
  4: 0x004C [0x00] END_REQSTACK()
```

### Event 65535.7

#### Metadata

| Field        | Value    |
|--------------|----------|
| Entrypoint   | 0x004D   |
| Data Size    | 20 bytes |
| Instructions | 3        |

```
      00 01 02 03 04 05 06 07  08 09 0A 0B 0C 0D 0E 0F
      -- -- -- -- -- -- -- --  -- -- -- -- -- -- -- --
0040:                                         79 00 F8               y..
0050: FF FF 7F F8 FF FF 7F 37  0E 80 0F 80 09 80 05 80  .......7........
0060: 00                                                .               
```

#### Opcodes

```
  0: 0x004D [0x79] EventEntity looks at EventEntity (Basic look)
  1: 0x0057 [0x37] UPDATE_EVENT_POSITION_AND_DIR: x=0.068*, z=149.295*, y=-20.693*, direction=90.0°*
  2: 0x0060 [0x00] END_REQSTACK()
```

### Event 65535.8

#### Metadata

| Field        | Value    |
|--------------|----------|
| Entrypoint   | 0x0061   |
| Data Size    | 20 bytes |
| Instructions | 3        |

```
      00 01 02 03 04 05 06 07  08 09 0A 0B 0C 0D 0E 0F
      -- -- -- -- -- -- -- --  -- -- -- -- -- -- -- --
0060:    79 00 F8 FF FF 7F F8  FF FF 7F 37 10 80 11 80   y.........7....
0070: 12 80 13 80 00                                    .....           
```

#### Opcodes

```
  0: 0x0061 [0x79] EventEntity looks at EventEntity (Basic look)
  1: 0x006B [0x37] UPDATE_EVENT_POSITION_AND_DIR: x=0.087*, z=250.692*, y=0.109*, direction=270.1°*
  2: 0x0074 [0x00] END_REQSTACK()
```

### Event 65535.9

#### Metadata

| Field        | Value    |
|--------------|----------|
| Entrypoint   | 0x0075   |
| Data Size    | 37 bytes |
| Instructions | 5        |

```
      00 01 02 03 04 05 06 07  08 09 0A 0B 0C 0D 0E 0F
      -- -- -- -- -- -- -- --  -- -- -- -- -- -- -- --
0070:                03 00 00  07 7F 1A CD 00 66 01 00       ........f..
0080: F8 FF FF 7F F8 FF FF 7F  73 68 61 30 53 F8 FF FF  ........sha0S...
0090: 7F F8 FF FF 7F 73 68 61  30 00                    .....sha0.      
```

#### Opcodes

```
  0: 0x0075 [0x03] ExtData[1]->WorkLocal[0] = Entity->Race
  1: 0x007A [0x1A] CALL_SUBROUTINE(address=0x00CD)
  2: 0x007D [0x66] LOAD_EXT_SCHEDULER_MAIN: Load scheduler "sha0" with entities [EventEntity, EventEntity], work=ExtData[1]->WorkLocal[1]
  3: 0x008C [0x53] WAIT_SCHEDULER_TASK: Wait for scheduler "sha0" with entities [EventEntity, EventEntity]
  4: 0x0099 [0x00] END_REQSTACK()
```

### Event 65535.10

#### Metadata

| Field        | Value    |
|--------------|----------|
| Entrypoint   | 0x009A   |
| Data Size    | 37 bytes |
| Instructions | 5        |

```
      00 01 02 03 04 05 06 07  08 09 0A 0B 0C 0D 0E 0F
      -- -- -- -- -- -- -- --  -- -- -- -- -- -- -- --
0090:                                03 00 00 07 7F 1A            ......
00A0: CD 00 66 01 00 F8 FF FF  7F F8 FF FF 7F 73 68 61  ..f..........sha
00B0: 31 53 F8 FF FF 7F F8 FF  FF 7F 73 68 61 31 00     1S........sha1. 
```

#### Opcodes

```
  0: 0x009A [0x03] ExtData[1]->WorkLocal[0] = Entity->Race
  1: 0x009F [0x1A] CALL_SUBROUTINE(address=0x00CD)
  2: 0x00A2 [0x66] LOAD_EXT_SCHEDULER_MAIN: Load scheduler "sha1" with entities [EventEntity, EventEntity], work=ExtData[1]->WorkLocal[1]
  3: 0x00B1 [0x53] WAIT_SCHEDULER_TASK: Wait for scheduler "sha1" with entities [EventEntity, EventEntity]
  4: 0x00BE [0x00] END_REQSTACK()
```

### Event 65535.11

#### Metadata

| Field        | Value   |
|--------------|---------|
| Entrypoint   | 0x00BF  |
| Data Size    | 7 bytes |
| Instructions | 3       |

```
      00 01 02 03 04 05 06 07  08 09 0A 0B 0C 0D 0E 0F
      -- -- -- -- -- -- -- --  -- -- -- -- -- -- -- --
00B0:                                               AB                 .
00C0: 03 AC 01 14 80 00                                 ......          
```

#### Opcodes

```
  0: 0x00BF [0xAB] EventEntity->Render.Flags0 ^= 0x20000 // Toggle bit 17
  1: 0x00C1 [0xAC] EventEntity->StatusEvent = 1*
  2: 0x00C5 [0x00] END_REQSTACK()
```

### Event 65535.12

#### Metadata

| Field        | Value     |
|--------------|-----------|
| Entrypoint   | 0x00C6    |
| Data Size    | 155 bytes |
| Instructions | 3         |

```
      00 01 02 03 04 05 06 07  08 09 0A 0B 0C 0D 0E 0F
      -- -- -- -- -- -- -- --  -- -- -- -- -- -- -- --
00C0:                   AC 01  00 80 AB 04 00 03 01 00        ..........
00D0: 00 00 02 01 00 15 80 05  E2 00 08 01 00 14 80 01  ................
00E0: E7 00 08 01 00 16 80 14  01 00 17 80 07 01 00 18  ................
00F0: 80 1B 03 01 00 00 00 02  01 00 15 80 05 07 01 08  ................
0100: 01 00 14 80 01 0C 01 08  01 00 16 80 14 01 00 17  ................
0110: 80 07 01 00 19 80 1B 03  01 00 00 00 02 01 00 15  ................
0120: 80 05 2C 01 08 01 00 14  80 01 31 01 08 01 00 16  ..,.......1.....
0130: 80 14 01 00 17 80 07 01  00 1A 80 1B 03 01 00 00  ................
0140: 00 02 01 00 15 80 05 51  01 08 01 00 14 80 01 56  .......Q.......V
0150: 01 08 01 00 16 80 14 01  00 17 80 07 01 00 1B 80  ................
0160: 1B                                                .               
```

#### Opcodes

```
  0: 0x00C6 [0xAC] EventEntity->StatusEvent = 0*
  1: 0x00CA [0xAB] EventEntity->Render.Flags0 |= 0x40000 // Set bit 18
  2: 0x00CC [0x00] END_REQSTACK()
```

#### Data or dead code:

```
# Dead code (unreachable instructions):
     0x00CD [0x03] ExtData[1]->WorkLocal[1] = ExtData[1]->WorkLocal[0]
     0x00D2 [0x02] IF !(ExtData[1]->WorkLocal[1] > 5*) GOTO 0x00E2
     0x00DA [0x08] ExtData[1]->WorkLocal[1] -= 1*
     0x00DF [0x01] GOTO 0x00E7
     0x00E2 [0x08] ExtData[1]->WorkLocal[1] -= 2*
     0x00E7 [0x14] ExtData[1]->WorkLocal[1] *= 10*
     0x00EC [0x07] ExtData[1]->WorkLocal[1] += 9*
     0x00F1 [0x1B] RETURN
     0x00F2 [0x03] ExtData[1]->WorkLocal[1] = ExtData[1]->WorkLocal[0]
     0x00F7 [0x02] IF !(ExtData[1]->WorkLocal[1] > 5*) GOTO 0x0107
     0x00FF [0x08] ExtData[1]->WorkLocal[1] -= 1*
     0x0104 [0x01] GOTO 0x010C
     0x0107 [0x08] ExtData[1]->WorkLocal[1] -= 2*
     0x010C [0x14] ExtData[1]->WorkLocal[1] *= 10*
     0x0111 [0x07] ExtData[1]->WorkLocal[1] += 70*
     0x0116 [0x1B] RETURN
     0x0117 [0x03] ExtData[1]->WorkLocal[1] = ExtData[1]->WorkLocal[0]
     0x011C [0x02] IF !(ExtData[1]->WorkLocal[1] > 5*) GOTO 0x012C
     0x0124 [0x08] ExtData[1]->WorkLocal[1] -= 1*
     0x0129 [0x01] GOTO 0x0131
     0x012C [0x08] ExtData[1]->WorkLocal[1] -= 2*
     0x0131 [0x14] ExtData[1]->WorkLocal[1] *= 10*
     0x0136 [0x07] ExtData[1]->WorkLocal[1] += 140*
     0x013B [0x1B] RETURN
     0x013C [0x03] ExtData[1]->WorkLocal[1] = ExtData[1]->WorkLocal[0]
     0x0141 [0x02] IF !(ExtData[1]->WorkLocal[1] > 5*) GOTO 0x0151
     0x0149 [0x08] ExtData[1]->WorkLocal[1] -= 1*
     0x014E [0x01] GOTO 0x0156
     0x0151 [0x08] ExtData[1]->WorkLocal[1] -= 2*
     0x0156 [0x14] ExtData[1]->WorkLocal[1] *= 10*
     0x015B [0x07] ExtData[1]->WorkLocal[1] += 210*
     0x0160 [0x1B] RETURN
```

### Event 65535.13

#### Metadata

| Field        | Value    |
|--------------|----------|
| Entrypoint   | 0x0161   |
| Data Size    | 15 bytes |
| Instructions | 5        |

```
      00 01 02 03 04 05 06 07  08 09 0A 0B 0C 0D 0E 0F
      -- -- -- -- -- -- -- --  -- -- -- -- -- -- -- --
0160:    32 1C 80 1F 00 1D 80  1E 80 1F 80 1F 01 6F 00   2............o.
```

#### Opcodes

```
  0: 0x0161 [0x32] ExtData[1]->MainSpeed = 40* * 0.1
  1: 0x0164 [0x1F] MOVE_ENTITY: EventEntity moves to X=-0.506*, Z=-101.800*, Y=-9.032*
  2: 0x016C [0x1F] MOVE_ENTITY: Update entity position (mode=1)
  3: 0x016E [0x6F] WAIT_FRAME_DELAY: Yield until WaitTime reaches zero
  4: 0x016F [0x00] END_REQSTACK()
```

### Event 65535.14

#### Metadata

| Field        | Value    |
|--------------|----------|
| Entrypoint   | 0x0170   |
| Data Size    | 15 bytes |
| Instructions | 5        |

```
      00 01 02 03 04 05 06 07  08 09 0A 0B 0C 0D 0E 0F
      -- -- -- -- -- -- -- --  -- -- -- -- -- -- -- --
0170: 32 1C 80 1F 00 20 80 21  80 02 80 1F 01 6F 00     2.... .!.....o. 
```

#### Opcodes

```
  0: 0x0170 [0x32] ExtData[1]->MainSpeed = 40* * 0.1
  1: 0x0173 [0x1F] MOVE_ENTITY: EventEntity moves to X=-0.836*, Z=-45.980*, Y=-12.300*
  2: 0x017B [0x1F] MOVE_ENTITY: Update entity position (mode=1)
  3: 0x017D [0x6F] WAIT_FRAME_DELAY: Yield until WaitTime reaches zero
  4: 0x017E [0x00] END_REQSTACK()
```

### Event 65535.15

#### Metadata

| Field        | Value    |
|--------------|----------|
| Entrypoint   | 0x017F   |
| Data Size    | 15 bytes |
| Instructions | 5        |

```
      00 01 02 03 04 05 06 07  08 09 0A 0B 0C 0D 0E 0F
      -- -- -- -- -- -- -- --  -- -- -- -- -- -- -- --
0170:                                               32                 2
0180: 1C 80 1F 00 20 80 22 80  02 80 1F 01 6F 00        .... .".....o.  
```

#### Opcodes

```
  0: 0x017F [0x32] ExtData[1]->MainSpeed = 40* * 0.1
  1: 0x0182 [0x1F] MOVE_ENTITY: EventEntity moves to X=-0.836*, Z=-34.480*, Y=-12.300*
  2: 0x018A [0x1F] MOVE_ENTITY: Update entity position (mode=1)
  3: 0x018C [0x6F] WAIT_FRAME_DELAY: Yield until WaitTime reaches zero
  4: 0x018D [0x00] END_REQSTACK()
```

### Event 65535.16

#### Metadata

| Field        | Value    |
|--------------|----------|
| Entrypoint   | 0x018E   |
| Data Size    | 10 bytes |
| Instructions | 2        |

```
      00 01 02 03 04 05 06 07  08 09 0A 0B 0C 0D 0E 0F
      -- -- -- -- -- -- -- --  -- -- -- -- -- -- -- --
0180:                                            37 23                7#
0190: 80 24 80 25 80 26 80 00                           .$.%.&..        
```

#### Opcodes

```
  0: 0x018E [0x37] UPDATE_EVENT_POSITION_AND_DIR: x=-3.570*, z=-12.519*, y=-10.999*, direction=264.9°*
  1: 0x0197 [0x00] END_REQSTACK()
```

### Event 65535.17

#### Metadata

| Field        | Value    |
|--------------|----------|
| Entrypoint   | 0x0198   |
| Data Size    | 15 bytes |
| Instructions | 5        |

```
      00 01 02 03 04 05 06 07  08 09 0A 0B 0C 0D 0E 0F
      -- -- -- -- -- -- -- --  -- -- -- -- -- -- -- --
0190:                          32 1C 80 1F 00 27 80 28          2....'.(
01A0: 80 29 80 1F 01 6F 00                              .)...o.         
```

#### Opcodes

```
  0: 0x0198 [0x32] ExtData[1]->MainSpeed = 40* * 0.1
  1: 0x019B [0x1F] MOVE_ENTITY: EventEntity moves to X=-2.773*, Z=-7.811*, Y=-12.999*
  2: 0x01A3 [0x1F] MOVE_ENTITY: Update entity position (mode=1)
  3: 0x01A5 [0x6F] WAIT_FRAME_DELAY: Yield until WaitTime reaches zero
  4: 0x01A6 [0x00] END_REQSTACK()
```

### Event 65535.18

#### Metadata

| Field        | Value    |
|--------------|----------|
| Entrypoint   | 0x01A7   |
| Data Size    | 10 bytes |
| Instructions | 2        |

```
      00 01 02 03 04 05 06 07  08 09 0A 0B 0C 0D 0E 0F
      -- -- -- -- -- -- -- --  -- -- -- -- -- -- -- --
01A0:                      37  2A 80 2B 80 2C 80 2D 80         7*.+.,.-.
01B0: 00                                                .               
```

#### Opcodes

```
  0: 0x01A7 [0x37] UPDATE_EVENT_POSITION_AND_DIR: x=2.861*, z=-13.310*, y=-14.060*, direction=278.2°*
  1: 0x01B0 [0x00] END_REQSTACK()
```

### Event 65535.19

#### Metadata

| Field        | Value    |
|--------------|----------|
| Entrypoint   | 0x01B1   |
| Data Size    | 15 bytes |
| Instructions | 5        |

```
      00 01 02 03 04 05 06 07  08 09 0A 0B 0C 0D 0E 0F
      -- -- -- -- -- -- -- --  -- -- -- -- -- -- -- --
01B0:    32 1C 80 1F 00 2E 80  2F 80 29 80 1F 01 6F 00   2....../.)...o.
```

#### Opcodes

```
  0: 0x01B1 [0x32] ExtData[1]->MainSpeed = 40* * 0.1
  1: 0x01B4 [0x1F] MOVE_ENTITY: EventEntity moves to X=3.432*, Z=-5.172*, Y=-12.999*
  2: 0x01BC [0x1F] MOVE_ENTITY: Update entity position (mode=1)
  3: 0x01BE [0x6F] WAIT_FRAME_DELAY: Yield until WaitTime reaches zero
  4: 0x01BF [0x00] END_REQSTACK()
```

### Event 65535.20

#### Metadata

| Field        | Value    |
|--------------|----------|
| Entrypoint   | 0x01C0   |
| Data Size    | 15 bytes |
| Instructions | 5        |

```
      00 01 02 03 04 05 06 07  08 09 0A 0B 0C 0D 0E 0F
      -- -- -- -- -- -- -- --  -- -- -- -- -- -- -- --
01C0: 32 06 80 1F 00 30 80 31  80 29 80 1F 01 6F 00     2....0.1.)...o. 
```

#### Opcodes

```
  0: 0x01C0 [0x32] ExtData[1]->MainSpeed = 13* * 0.1
  1: 0x01C3 [0x1F] MOVE_ENTITY: EventEntity moves to X=-3.430*, Z=-5.087*, Y=-12.999*
  2: 0x01CB [0x1F] MOVE_ENTITY: Update entity position (mode=1)
  3: 0x01CD [0x6F] WAIT_FRAME_DELAY: Yield until WaitTime reaches zero
  4: 0x01CE [0x00] END_REQSTACK()
```

### Event 65535.21

#### Metadata

| Field        | Value   |
|--------------|---------|
| Entrypoint   | 0x01CF  |
| Data Size    | 6 bytes |
| Instructions | 2       |

```
      00 01 02 03 04 05 06 07  08 09 0A 0B 0C 0D 0E 0F
      -- -- -- -- -- -- -- --  -- -- -- -- -- -- -- --
01C0:                                               03                 .
01D0: 02 10 07 7F 00                                    .....           
```

#### Opcodes

```
  0: 0x01CF [0x03] Work_Zone[2] = Entity->Race
  1: 0x01D4 [0x00] END_REQSTACK()
```

### Event 65535.22

#### Metadata

| Field        | Value   |
|--------------|---------|
| Entrypoint   | 0x01D5  |
| Data Size    | 6 bytes |
| Instructions | 2       |

```
      00 01 02 03 04 05 06 07  08 09 0A 0B 0C 0D 0E 0F
      -- -- -- -- -- -- -- --  -- -- -- -- -- -- -- --
01D0:                03 02 10  0B 7F 00                      ......     
```

#### Opcodes

```
  0: 0x01D5 [0x03] Work_Zone[2] = (Entity->Render.Flags01 >> 25) & 1
  1: 0x01DA [0x00] END_REQSTACK()
```

### Event 65535.23

#### Metadata

| Field        | Value    |
|--------------|----------|
| Entrypoint   | 0x01DB   |
| Data Size    | 24 bytes |
| Instructions | 4        |

```
      00 01 02 03 04 05 06 07  08 09 0A 0B 0C 0D 0E 0F
      -- -- -- -- -- -- -- --  -- -- -- -- -- -- -- --
01D0:                                   03 00 00 07 7F             .....
01E0: 1A CD 00 66 01 00 F8 FF  FF 7F F8 FF FF 7F 74 6C  ...f..........tl
01F0: 6B 30 00                                          k0.             
```

#### Opcodes

```
  0: 0x01DB [0x03] ExtData[1]->WorkLocal[0] = Entity->Race
  1: 0x01E0 [0x1A] CALL_SUBROUTINE(address=0x00CD)
  2: 0x01E3 [0x66] LOAD_EXT_SCHEDULER_MAIN: Load scheduler "tlk0" with entities [EventEntity, EventEntity], work=ExtData[1]->WorkLocal[1]
  3: 0x01F2 [0x00] END_REQSTACK()
```

### Event 65535.24

#### Metadata

| Field        | Value    |
|--------------|----------|
| Entrypoint   | 0x01F3   |
| Data Size    | 24 bytes |
| Instructions | 4        |

```
      00 01 02 03 04 05 06 07  08 09 0A 0B 0C 0D 0E 0F
      -- -- -- -- -- -- -- --  -- -- -- -- -- -- -- --
01F0:          03 00 00 07 7F  1A CD 00 66 01 00 F8 FF     ........f....
0200: FF 7F F8 FF FF 7F 74 6C  6B 31 00                 ......tlk1.     
```

#### Opcodes

```
  0: 0x01F3 [0x03] ExtData[1]->WorkLocal[0] = Entity->Race
  1: 0x01F8 [0x1A] CALL_SUBROUTINE(address=0x00CD)
  2: 0x01FB [0x66] LOAD_EXT_SCHEDULER_MAIN: Load scheduler "tlk1" with entities [EventEntity, EventEntity], work=ExtData[1]->WorkLocal[1]
  3: 0x020A [0x00] END_REQSTACK()
```

### Event 65535.25

#### Metadata

| Field        | Value    |
|--------------|----------|
| Entrypoint   | 0x020B   |
| Data Size    | 37 bytes |
| Instructions | 5        |

```
      00 01 02 03 04 05 06 07  08 09 0A 0B 0C 0D 0E 0F
      -- -- -- -- -- -- -- --  -- -- -- -- -- -- -- --
0200:                                   03 00 00 07 7F             .....
0210: 1A CD 00 66 01 00 F8 FF  FF 7F F8 FF FF 7F 73 69  ...f..........si
0220: 74 30 53 F8 FF FF 7F F8  FF FF 7F 73 69 74 30 00  t0S........sit0.
```

#### Opcodes

```
  0: 0x020B [0x03] ExtData[1]->WorkLocal[0] = Entity->Race
  1: 0x0210 [0x1A] CALL_SUBROUTINE(address=0x00CD)
  2: 0x0213 [0x66] LOAD_EXT_SCHEDULER_MAIN: Load scheduler "sit0" with entities [EventEntity, EventEntity], work=ExtData[1]->WorkLocal[1]
  3: 0x0222 [0x53] WAIT_SCHEDULER_TASK: Wait for scheduler "sit0" with entities [EventEntity, EventEntity]
  4: 0x022F [0x00] END_REQSTACK()
```

### Event 65535.26

#### Metadata

| Field        | Value    |
|--------------|----------|
| Entrypoint   | 0x0230   |
| Data Size    | 37 bytes |
| Instructions | 5        |

```
      00 01 02 03 04 05 06 07  08 09 0A 0B 0C 0D 0E 0F
      -- -- -- -- -- -- -- --  -- -- -- -- -- -- -- --
0230: 03 00 00 07 7F 1A CD 00  66 01 00 F8 FF FF 7F F8  ........f.......
0240: FF FF 7F 73 69 74 31 53  F8 FF FF 7F F8 FF FF 7F  ...sit1S........
0250: 73 69 74 31 00                                    sit1.           
```

#### Opcodes

```
  0: 0x0230 [0x03] ExtData[1]->WorkLocal[0] = Entity->Race
  1: 0x0235 [0x1A] CALL_SUBROUTINE(address=0x00CD)
  2: 0x0238 [0x66] LOAD_EXT_SCHEDULER_MAIN: Load scheduler "sit1" with entities [EventEntity, EventEntity], work=ExtData[1]->WorkLocal[1]
  3: 0x0247 [0x53] WAIT_SCHEDULER_TASK: Wait for scheduler "sit1" with entities [EventEntity, EventEntity]
  4: 0x0254 [0x00] END_REQSTACK()
```

### Event 65535.27

#### Metadata

| Field        | Value    |
|--------------|----------|
| Entrypoint   | 0x0255   |
| Data Size    | 42 bytes |
| Instructions | 6        |

```
      00 01 02 03 04 05 06 07  08 09 0A 0B 0C 0D 0E 0F
      -- -- -- -- -- -- -- --  -- -- -- -- -- -- -- --
0250:                03 00 00  07 7F 1A CD 00 66 01 00       ........f..
0260: F8 FF FF 7F F8 FF FF 7F  74 6C 6B 30 1C 32 80 66  ........tlk0.2.f
0270: 01 00 F8 FF FF 7F F8 FF  FF 7F 74 6C 6B 31 00     ..........tlk1. 
```

#### Opcodes

```
  0: 0x0255 [0x03] ExtData[1]->WorkLocal[0] = Entity->Race
  1: 0x025A [0x1A] CALL_SUBROUTINE(address=0x00CD)
  2: 0x025D [0x66] LOAD_EXT_SCHEDULER_MAIN: Load scheduler "tlk0" with entities [EventEntity, EventEntity], work=ExtData[1]->WorkLocal[1]
  3: 0x026C [0x1C] WAIT(60* ticks)
  4: 0x026F [0x66] LOAD_EXT_SCHEDULER_MAIN: Load scheduler "tlk1" with entities [EventEntity, EventEntity], work=ExtData[1]->WorkLocal[1]
  5: 0x027E [0x00] END_REQSTACK()
```

### Event 65535.28

#### Metadata

| Field        | Value    |
|--------------|----------|
| Entrypoint   | 0x027F   |
| Data Size    | 15 bytes |
| Instructions | 5        |

```
      00 01 02 03 04 05 06 07  08 09 0A 0B 0C 0D 0E 0F
      -- -- -- -- -- -- -- --  -- -- -- -- -- -- -- --
0270:                                               32                 2
0280: 0B 80 1F 00 33 80 34 80  02 80 1F 01 6F 00        ....3.4.....o.  
```

#### Opcodes

```
  0: 0x027F [0x32] ExtData[1]->MainSpeed = 11* * 0.1
  1: 0x0282 [0x1F] MOVE_ENTITY: EventEntity moves to X=0.041*, Z=-40.434*, Y=-12.300*
  2: 0x028A [0x1F] MOVE_ENTITY: Update entity position (mode=1)
  3: 0x028C [0x6F] WAIT_FRAME_DELAY: Yield until WaitTime reaches zero
  4: 0x028D [0x00] END_REQSTACK()
```

### Event 65535.29

#### Metadata

| Field        | Value    |
|--------------|----------|
| Entrypoint   | 0x028E   |
| Data Size    | 20 bytes |
| Instructions | 6        |

```
      00 01 02 03 04 05 06 07  08 09 0A 0B 0C 0D 0E 0F
      -- -- -- -- -- -- -- --  -- -- -- -- -- -- -- --
0280:                                            32 0B                2.
0290: 80 1F 00 35 80 36 80 37  80 1F 01 6F 1E 1C B0 0F  ...5.6.7...o....
02A0: 01 00                                             ..              
```

#### Opcodes

```
  0: 0x028E [0x32] ExtData[1]->MainSpeed = 11* * 0.1
  1: 0x0291 [0x1F] MOVE_ENTITY: EventEntity moves to X=-0.175*, Z=-4.546*, Y=-13.000*
  2: 0x0299 [0x1F] MOVE_ENTITY: Update entity position (mode=1)
  3: 0x029B [0x6F] WAIT_FRAME_DELAY: Yield until WaitTime reaches zero
  4: 0x029C [0x1E] EventEntity looks at Unnamed NPC (ID: 17805340/0x010FB01C) and starts talking
  5: 0x02A1 [0x00] END_REQSTACK()
```

### Event 65535.30

#### Metadata

| Field        | Value    |
|--------------|----------|
| Entrypoint   | 0x02A2   |
| Data Size    | 20 bytes |
| Instructions | 6        |

```
      00 01 02 03 04 05 06 07  08 09 0A 0B 0C 0D 0E 0F
      -- -- -- -- -- -- -- --  -- -- -- -- -- -- -- --
02A0:       32 0B 80 1F 00 38  80 39 80 37 80 1F 01 6F    2....8.9.7...o
02B0: 1E 1D B0 0F 01 00                                 ......          
```

#### Opcodes

```
  0: 0x02A2 [0x32] ExtData[1]->MainSpeed = 11* * 0.1
  1: 0x02A5 [0x1F] MOVE_ENTITY: EventEntity moves to X=-0.012*, Z=-2.585*, Y=-13.000*
  2: 0x02AD [0x1F] MOVE_ENTITY: Update entity position (mode=1)
  3: 0x02AF [0x6F] WAIT_FRAME_DELAY: Yield until WaitTime reaches zero
  4: 0x02B0 [0x1E] EventEntity looks at Unnamed NPC (ID: 17805341/0x010FB01D) and starts talking
  5: 0x02B5 [0x00] END_REQSTACK()
```

### Event 65535.31

#### Metadata

| Field        | Value    |
|--------------|----------|
| Entrypoint   | 0x02B6   |
| Data Size    | 15 bytes |
| Instructions | 5        |

```
      00 01 02 03 04 05 06 07  08 09 0A 0B 0C 0D 0E 0F
      -- -- -- -- -- -- -- --  -- -- -- -- -- -- -- --
02B0:                   32 0B  80 1F 00 3A 80 3B 80 02        2....:.;..
02C0: 80 1F 01 6F 00                                    ...o.           
```

#### Opcodes

```
  0: 0x02B6 [0x32] ExtData[1]->MainSpeed = 11* * 0.1
  1: 0x02B9 [0x1F] MOVE_ENTITY: EventEntity moves to X=-0.001*, Z=-41.073*, Y=-12.300*
  2: 0x02C1 [0x1F] MOVE_ENTITY: Update entity position (mode=1)
  3: 0x02C3 [0x6F] WAIT_FRAME_DELAY: Yield until WaitTime reaches zero
  4: 0x02C4 [0x00] END_REQSTACK()
```

### Event 65535.32

#### Metadata

| Field        | Value    |
|--------------|----------|
| Entrypoint   | 0x02C5   |
| Data Size    | 14 bytes |
| Instructions | 4        |

```
      00 01 02 03 04 05 06 07  08 09 0A 0B 0C 0D 0E 0F
      -- -- -- -- -- -- -- --  -- -- -- -- -- -- -- --
02C0:                32 06 80  1F 00 3C 80 3D 80 02 80       2....<.=...
02D0: 1F 01 00                                          ...             
```

#### Opcodes

```
  0: 0x02C5 [0x32] ExtData[1]->MainSpeed = 13* * 0.1
  1: 0x02C8 [0x1F] MOVE_ENTITY: EventEntity moves to X=-0.908*, Z=43.210*, Y=-12.300*
  2: 0x02D0 [0x1F] MOVE_ENTITY: Update entity position (mode=1)
  3: 0x02D2 [0x00] END_REQSTACK()
```

### Event 65535.33

#### Metadata

| Field        | Value     |
|--------------|-----------|
| Entrypoint   | 0x02D3    |
| Data Size    | 217 bytes |
| Instructions | 25        |

```
      00 01 02 03 04 05 06 07  08 09 0A 0B 0C 0D 0E 0F
      -- -- -- -- -- -- -- --  -- -- -- -- -- -- -- --
02D0:          02 87 7F 14 80  80 EE 02 5F 04 3E 80 F0     ........_.>..
02E0: FF FF 7F F0 FF FF 7F 6B  69 7A 30 01 AB 03 02 87  .......kiz0.....
02F0: 7F 16 80 80 09 03 5F 04  3F 80 F0 FF FF 7F F0 FF  ......_.?.......
0300: FF 7F 6B 69 7A 30 01 AB  03 02 87 7F 40 80 80 24  ..kiz0......@..$
0310: 03 5F 04 41 80 F0 FF FF  7F F0 FF FF 7F 6B 69 7A  ._.A.........kiz
0320: 30 01 AB 03 02 87 7F 42  80 80 3F 03 5F 04 43 80  0......B..?._.C.
0330: F0 FF FF 7F F0 FF FF 7F  6B 69 7A 30 01 AB 03 02  ........kiz0....
0340: 87 7F 15 80 80 5A 03 5F  04 44 80 F0 FF FF 7F F0  .....Z._.D......
0350: FF FF 7F 6B 69 7A 30 01  AB 03 02 87 7F 45 80 80  ...kiz0......E..
0360: 75 03 5F 04 44 80 F0 FF  FF 7F F0 FF FF 7F 6B 69  u._.D.........ki
0370: 7A 30 01 AB 03 02 87 7F  46 80 80 90 03 5F 04 47  z0......F...._.G
0380: 80 F0 FF FF 7F F0 FF FF  7F 6B 69 7A 30 01 AB 03  .........kiz0...
0390: 02 87 7F 48 80 80 AB 03  5F 04 49 80 F0 FF FF 7F  ...H...._.I.....
03A0: F0 FF FF 7F 6B 69 7A 30  01 AB 03 00              ....kiz0....    
```

#### Opcodes

```
  0: 0x02D3 [0x02] IF !(LocalPlayer->Race == 1*) GOTO 0x02EE
  1: 0x02DB [0x5F] MULTI_HANDLER_COMPLEX(mode=0x04 - Load ext scheduler (OpCode 0x5B mode 1), ref=141*, entity1=LocalPlayer, entity2=LocalPlayer, string="kiz0")
  2: 0x02EB [0x01] GOTO 0x03AB
  3: 0x02EE [0x02] IF !(LocalPlayer->Race == 2*) GOTO 0x0309
  4: 0x02F6 [0x5F] MULTI_HANDLER_COMPLEX(mode=0x04 - Load ext scheduler (OpCode 0x5B mode 1), ref=151*, entity1=LocalPlayer, entity2=LocalPlayer, string="kiz0")
  5: 0x0306 [0x01] GOTO 0x03AB
  6: 0x0309 [0x02] IF !(LocalPlayer->Race == 3*) GOTO 0x0324
  7: 0x0311 [0x5F] MULTI_HANDLER_COMPLEX(mode=0x04 - Load ext scheduler (OpCode 0x5B mode 1), ref=161*, entity1=LocalPlayer, entity2=LocalPlayer, string="kiz0")
  8: 0x0321 [0x01] GOTO 0x03AB
  9: 0x0324 [0x02] IF !(LocalPlayer->Race == 4*) GOTO 0x033F
 10: 0x032C [0x5F] MULTI_HANDLER_COMPLEX(mode=0x04 - Load ext scheduler (OpCode 0x5B mode 1), ref=171*, entity1=LocalPlayer, entity2=LocalPlayer, string="kiz0")
 11: 0x033C [0x01] GOTO 0x03AB
 12: 0x033F [0x02] IF !(LocalPlayer->Race == 5*) GOTO 0x035A
 13: 0x0347 [0x5F] MULTI_HANDLER_COMPLEX(mode=0x04 - Load ext scheduler (OpCode 0x5B mode 1), ref=181*, entity1=LocalPlayer, entity2=LocalPlayer, string="kiz0")
 14: 0x0357 [0x01] GOTO 0x03AB
 15: 0x035A [0x02] IF !(LocalPlayer->Race == 6*) GOTO 0x0375
 16: 0x0362 [0x5F] MULTI_HANDLER_COMPLEX(mode=0x04 - Load ext scheduler (OpCode 0x5B mode 1), ref=181*, entity1=LocalPlayer, entity2=LocalPlayer, string="kiz0")
 17: 0x0372 [0x01] GOTO 0x03AB
 18: 0x0375 [0x02] IF !(LocalPlayer->Race == 7*) GOTO 0x0390
 19: 0x037D [0x5F] MULTI_HANDLER_COMPLEX(mode=0x04 - Load ext scheduler (OpCode 0x5B mode 1), ref=191*, entity1=LocalPlayer, entity2=LocalPlayer, string="kiz0")
 20: 0x038D [0x01] GOTO 0x03AB
 21: 0x0390 [0x02] IF !(LocalPlayer->Race == 8*) GOTO 0x03AB
 22: 0x0398 [0x5F] MULTI_HANDLER_COMPLEX(mode=0x04 - Load ext scheduler (OpCode 0x5B mode 1), ref=201*, entity1=LocalPlayer, entity2=LocalPlayer, string="kiz0")
 23: 0x03A8 [0x01] GOTO 0x03AB

SUBROUTINE_03AB:
 24: 0x03AB [0x00] END_REQSTACK()
```

### Event 65535.34

#### Metadata

| Field        | Value   |
|--------------|---------|
| Entrypoint   | 0x03AC  |
| Data Size    | 5 bytes |
| Instructions | 2       |

```
      00 01 02 03 04 05 06 07  08 09 0A 0B 0C 0D 0E 0F
      -- -- -- -- -- -- -- --  -- -- -- -- -- -- -- --
03A0:                                      B6 0F 10 80              ....
03B0: 00                                                .               
```

#### Opcodes

```
  0: 0x03AC [0xB6] ENTITY_APPEARANCE_HANDLER(case=Model size, value=87*)
  1: 0x03B0 [0x00] END_REQSTACK()
```

### Event 65535.35

#### Metadata

| Field        | Value   |
|--------------|---------|
| Entrypoint   | 0x03B1  |
| Data Size    | 5 bytes |
| Instructions | 2       |

```
      00 01 02 03 04 05 06 07  08 09 0A 0B 0C 0D 0E 0F
      -- -- -- -- -- -- -- --  -- -- -- -- -- -- -- --
03B0:    B6 0F 4A 80 00                                  ..J..          
```

#### Opcodes

```
  0: 0x03B1 [0xB6] ENTITY_APPEARANCE_HANDLER(case=Model size, value=93*)
  1: 0x03B5 [0x00] END_REQSTACK()
```

### Event 65535.36

#### Metadata

| Field        | Value   |
|--------------|---------|
| Entrypoint   | 0x03B6  |
| Data Size    | 5 bytes |
| Instructions | 2       |

```
      00 01 02 03 04 05 06 07  08 09 0A 0B 0C 0D 0E 0F
      -- -- -- -- -- -- -- --  -- -- -- -- -- -- -- --
03B0:                   B6 0F  4B 80 00                       ..K..     
```

#### Opcodes

```
  0: 0x03B6 [0xB6] ENTITY_APPEARANCE_HANDLER(case=Model size, value=96*)
  1: 0x03BA [0x00] END_REQSTACK()
```

### Event 65535.37

#### Metadata

| Field        | Value   |
|--------------|---------|
| Entrypoint   | 0x03BB  |
| Data Size    | 5 bytes |
| Instructions | 2       |

```
      00 01 02 03 04 05 06 07  08 09 0A 0B 0C 0D 0E 0F
      -- -- -- -- -- -- -- --  -- -- -- -- -- -- -- --
03B0:                                   B6 0F 4C 80 00             ..L..
```

#### Opcodes

```
  0: 0x03BB [0xB6] ENTITY_APPEARANCE_HANDLER(case=Model size, value=100*)
  1: 0x03BF [0x00] END_REQSTACK()
```

### Event 65535.38

#### Metadata

| Field        | Value    |
|--------------|----------|
| Entrypoint   | 0x03C0   |
| Data Size    | 14 bytes |
| Instructions | 4        |

```
      00 01 02 03 04 05 06 07  08 09 0A 0B 0C 0D 0E 0F
      -- -- -- -- -- -- -- --  -- -- -- -- -- -- -- --
03C0: 32 06 80 1F 00 4D 80 4E  80 02 80 1F 01 00        2....M.N......  
```

#### Opcodes

```
  0: 0x03C0 [0x32] ExtData[1]->MainSpeed = 13* * 0.1
  1: 0x03C3 [0x1F] MOVE_ENTITY: EventEntity moves to X=0.938*, Z=55.320*, Y=-12.300*
  2: 0x03CB [0x1F] MOVE_ENTITY: Update entity position (mode=1)
  3: 0x03CD [0x00] END_REQSTACK()
```

### Event 65535.39

#### Metadata

| Field        | Value    |
|--------------|----------|
| Entrypoint   | 0x03CE   |
| Data Size    | 32 bytes |
| Instructions | 8        |

```
      00 01 02 03 04 05 06 07  08 09 0A 0B 0C 0D 0E 0F
      -- -- -- -- -- -- -- --  -- -- -- -- -- -- -- --
03C0:                                            32 06                2.
03D0: 80 1F 00 4F 80 50 80 09  80 1F 01 1F 00 51 80 52  ...O.P.......Q.R
03E0: 80 09 80 1F 01 1E 03 B0  0F 01 1C 53 80 00        ...........S..  
```

#### Opcodes

```
  0: 0x03CE [0x32] ExtData[1]->MainSpeed = 13* * 0.1
  1: 0x03D1 [0x1F] MOVE_ENTITY: EventEntity moves to X=-0.037*, Z=143.087*, Y=-20.693*
  2: 0x03D9 [0x1F] MOVE_ENTITY: Update entity position (mode=1)
  3: 0x03DB [0x1F] MOVE_ENTITY: EventEntity moves to X=1.152*, Z=145.986*, Y=-20.693*
  4: 0x03E3 [0x1F] MOVE_ENTITY: Update entity position (mode=1)
  5: 0x03E5 [0x1E] EventEntity looks at Yve'noile (ID: 17805315/0x010FB003) and starts talking
  6: 0x03EA [0x1C] WAIT(30* ticks)
  7: 0x03ED [0x00] END_REQSTACK()
```

### Event 65535.40

#### Metadata

| Field        | Value     |
|--------------|-----------|
| Entrypoint   | 0x03EE    |
| Data Size    | 345 bytes |
| Instructions | 33        |

```
      00 01 02 03 04 05 06 07  08 09 0A 0B 0C 0D 0E 0F
      -- -- -- -- -- -- -- --  -- -- -- -- -- -- -- --
03E0:                                            02 87                ..
03F0: 7F 14 80 80 19 04 5F 04  3E 80 F0 FF FF 7F F0 FF  ......_.>.......
0400: FF 7F 6B 69 7A 30 5F 03  54 80 29 B0 0F 01 29 B0  ..kiz0_.T.)...).
0410: 0F 01 68 6D 6D 30 01 46  05 02 87 7F 16 80 80 44  ..hmm0.F.......D
0420: 04 5F 04 3F 80 F0 FF FF  7F F0 FF FF 7F 6B 69 7A  ._.?.........kiz
0430: 30 5F 03 54 80 29 B0 0F  01 29 B0 0F 01 68 66 6D  0_.T.)...)...hfm
0440: 30 01 46 05 02 87 7F 40  80 80 6F 04 5F 04 41 80  0.F....@..o._.A.
0450: F0 FF FF 7F F0 FF FF 7F  6B 69 7A 30 5F 03 54 80  ........kiz0_.T.
0460: 29 B0 0F 01 29 B0 0F 01  65 6D 6D 30 01 46 05 02  )...)...emm0.F..
0470: 87 7F 42 80 80 9A 04 5F  04 43 80 F0 FF FF 7F F0  ..B...._.C......
0480: FF FF 7F 6B 69 7A 30 5F  03 54 80 29 B0 0F 01 29  ...kiz0_.T.)...)
0490: B0 0F 01 65 66 6D 30 01  46 05 02 87 7F 15 80 80  ...efm0.F.......
04A0: C5 04 5F 04 44 80 F0 FF  FF 7F F0 FF FF 7F 6B 69  .._.D.........ki
04B0: 7A 30 5F 03 54 80 29 B0  0F 01 29 B0 0F 01 74 6D  z0_.T.)...)...tm
04C0: 61 30 01 46 05 02 87 7F  45 80 80 F0 04 5F 04 44  a0.F....E...._.D
04D0: 80 F0 FF FF 7F F0 FF FF  7F 6B 69 7A 30 5F 03 54  .........kiz0_.T
04E0: 80 29 B0 0F 01 29 B0 0F  01 74 6D 61 30 01 46 05  .)...)...tma0.F.
04F0: 02 87 7F 46 80 80 1B 05  5F 04 47 80 F0 FF FF 7F  ...F...._.G.....
0500: F0 FF FF 7F 6B 69 7A 30  5F 03 54 80 29 B0 0F 01  ....kiz0_.T.)...
0510: 29 B0 0F 01 6D 6D 61 30  01 46 05 02 87 7F 48 80  )...mma0.F....H.
0520: 80 46 05 5F 04 49 80 F0  FF FF 7F F0 FF FF 7F 6B  .F._.I.........k
0530: 69 7A 30 5F 03 54 80 29  B0 0F 01 29 B0 0F 01 67  iz0_.T.)...)...g
0540: 6D 61 30 01 46 05 00                              ma0.F..         
```

#### Opcodes

```
  0: 0x03EE [0x02] IF !(LocalPlayer->Race == 1*) GOTO 0x0419
  1: 0x03F6 [0x5F] MULTI_HANDLER_COMPLEX(mode=0x04 - Load ext scheduler (OpCode 0x5B mode 1), ref=141*, entity1=LocalPlayer, entity2=LocalPlayer, string="kiz0")
  2: 0x0406 [0x5F] MULTI_HANDLER_COMPLEX(mode=0x03 - Load ext scheduler (OpCode 0x5B mode 0), ref=3878*, entity1=??? (ID: 17805353/0x010FB029), entity2=??? (ID: 17805353/0x010FB029), string="hmm0")
  3: 0x0416 [0x01] GOTO 0x0546
  4: 0x0419 [0x02] IF !(LocalPlayer->Race == 2*) GOTO 0x0444
  5: 0x0421 [0x5F] MULTI_HANDLER_COMPLEX(mode=0x04 - Load ext scheduler (OpCode 0x5B mode 1), ref=151*, entity1=LocalPlayer, entity2=LocalPlayer, string="kiz0")
  6: 0x0431 [0x5F] MULTI_HANDLER_COMPLEX(mode=0x03 - Load ext scheduler (OpCode 0x5B mode 0), ref=3878*, entity1=??? (ID: 17805353/0x010FB029), entity2=??? (ID: 17805353/0x010FB029), string="hfm0")
  7: 0x0441 [0x01] GOTO 0x0546
  8: 0x0444 [0x02] IF !(LocalPlayer->Race == 3*) GOTO 0x046F
  9: 0x044C [0x5F] MULTI_HANDLER_COMPLEX(mode=0x04 - Load ext scheduler (OpCode 0x5B mode 1), ref=161*, entity1=LocalPlayer, entity2=LocalPlayer, string="kiz0")
 10: 0x045C [0x5F] MULTI_HANDLER_COMPLEX(mode=0x03 - Load ext scheduler (OpCode 0x5B mode 0), ref=3878*, entity1=??? (ID: 17805353/0x010FB029), entity2=??? (ID: 17805353/0x010FB029), string="emm0")
 11: 0x046C [0x01] GOTO 0x0546
 12: 0x046F [0x02] IF !(LocalPlayer->Race == 4*) GOTO 0x049A
 13: 0x0477 [0x5F] MULTI_HANDLER_COMPLEX(mode=0x04 - Load ext scheduler (OpCode 0x5B mode 1), ref=171*, entity1=LocalPlayer, entity2=LocalPlayer, string="kiz0")
 14: 0x0487 [0x5F] MULTI_HANDLER_COMPLEX(mode=0x03 - Load ext scheduler (OpCode 0x5B mode 0), ref=3878*, entity1=??? (ID: 17805353/0x010FB029), entity2=??? (ID: 17805353/0x010FB029), string="efm0")
 15: 0x0497 [0x01] GOTO 0x0546
 16: 0x049A [0x02] IF !(LocalPlayer->Race == 5*) GOTO 0x04C5
 17: 0x04A2 [0x5F] MULTI_HANDLER_COMPLEX(mode=0x04 - Load ext scheduler (OpCode 0x5B mode 1), ref=181*, entity1=LocalPlayer, entity2=LocalPlayer, string="kiz0")
 18: 0x04B2 [0x5F] MULTI_HANDLER_COMPLEX(mode=0x03 - Load ext scheduler (OpCode 0x5B mode 0), ref=3878*, entity1=??? (ID: 17805353/0x010FB029), entity2=??? (ID: 17805353/0x010FB029), string="tma0")
 19: 0x04C2 [0x01] GOTO 0x0546
 20: 0x04C5 [0x02] IF !(LocalPlayer->Race == 6*) GOTO 0x04F0
 21: 0x04CD [0x5F] MULTI_HANDLER_COMPLEX(mode=0x04 - Load ext scheduler (OpCode 0x5B mode 1), ref=181*, entity1=LocalPlayer, entity2=LocalPlayer, string="kiz0")
 22: 0x04DD [0x5F] MULTI_HANDLER_COMPLEX(mode=0x03 - Load ext scheduler (OpCode 0x5B mode 0), ref=3878*, entity1=??? (ID: 17805353/0x010FB029), entity2=??? (ID: 17805353/0x010FB029), string="tma0")
 23: 0x04ED [0x01] GOTO 0x0546
 24: 0x04F0 [0x02] IF !(LocalPlayer->Race == 7*) GOTO 0x051B
 25: 0x04F8 [0x5F] MULTI_HANDLER_COMPLEX(mode=0x04 - Load ext scheduler (OpCode 0x5B mode 1), ref=191*, entity1=LocalPlayer, entity2=LocalPlayer, string="kiz0")
 26: 0x0508 [0x5F] MULTI_HANDLER_COMPLEX(mode=0x03 - Load ext scheduler (OpCode 0x5B mode 0), ref=3878*, entity1=??? (ID: 17805353/0x010FB029), entity2=??? (ID: 17805353/0x010FB029), string="mma0")
 27: 0x0518 [0x01] GOTO 0x0546
 28: 0x051B [0x02] IF !(LocalPlayer->Race == 8*) GOTO 0x0546
 29: 0x0523 [0x5F] MULTI_HANDLER_COMPLEX(mode=0x04 - Load ext scheduler (OpCode 0x5B mode 1), ref=201*, entity1=LocalPlayer, entity2=LocalPlayer, string="kiz0")
 30: 0x0533 [0x5F] MULTI_HANDLER_COMPLEX(mode=0x03 - Load ext scheduler (OpCode 0x5B mode 0), ref=3878*, entity1=??? (ID: 17805353/0x010FB029), entity2=??? (ID: 17805353/0x010FB029), string="gma0")
 31: 0x0543 [0x01] GOTO 0x0546

SUBROUTINE_0546:
 32: 0x0546 [0x00] END_REQSTACK()
```
