# Event 65535

## Metadata

| Field           | Value    |
|-----------------|----------|
| Event Index     | 10/17    |
| Offset          | 0x0039   |
| Data Size       | 58 bytes |
| Calculated Size | 58 bytes |
| Instructions    | 6        |

```
      00 01 02 03 04 05 06 07  08 09 0A 0B 0C 0D 0E 0F
      -- -- -- -- -- -- -- --  -- -- -- -- -- -- -- --
0030:                             1C 03 80 45 01 80 F0           ...E...
0040: FF FF 7F F0 FF FF 7F 68  6E 64 32 02 80 1C 04 80  .......hnd2.....
0050: 45 01 80 F0 FF FF 7F F0  FF FF 7F 6B 69 72 61 02  E..........kira.
0060: 80 9F 05 80 91 42 04 01  91 42 04 01 73 74 72 30  .....B...B..str0
0070: 02 80 00                                          ...             
```

## Opcodes

```
  0: 0x0039 [0x1C] WAIT(30* ticks)
  1: 0x003C [0x45] LOAD_SCHEDULED_TASK: Load scheduler "hnd2" with entities [LocalPlayer, LocalPlayer], work=[258*, 0*]
  2: 0x004D [0x1C] WAIT(90* ticks)
  3: 0x0050 [0x45] LOAD_SCHEDULED_TASK: Load scheduler "kira" with entities [LocalPlayer, LocalPlayer], work=[258*, 0*]
  4: 0x0061 [0x9F] LOAD_SCHEDULED_TASK_ALT: Load scheduler "str0" with entities [??? (ID: 17056401/0x01044291), ??? (ID: 17056401/0x01044291)], work=[220*, 0*]
  5: 0x0072 [0x00] END_REQSTACK()
```
