# Event 65535

## Metadata

| Field           | Value    |
|-----------------|----------|
| Event Index     | 10/10    |
| Offset          | 0x00AE   |
| Data Size       | 37 bytes |
| Calculated Size | 37 bytes |
| Instructions    | 8        |

```
      00 01 02 03 04 05 06 07  08 09 0A 0B 0C 0D 0E 0F
      -- -- -- -- -- -- -- --  -- -- -- -- -- -- -- --
00A0:                                            37 11                7.
00B0: 80 12 80 02 80 13 80 1C  14 80 32 15 80 1F 00 16  ..........2.....
00C0: 80 17 80 02 80 1F 01 6F  79 00 F8 FF FF 7F 83 C0  .......oy.......
00D0: 0E 01 00                                          ...             
```

## Opcodes

```
  0: 0x00AE [0x37] UPDATE_EVENT_POSITION_AND_DIR: x=137.230*, z=-2.766*, y=8.499*, direction=145.5°*
  1: 0x00B7 [0x1C] WAIT(1* ticks)
  2: 0x00BA [0x32] ExtData[1]->MainSpeed = 10* * 0.1
  3: 0x00BD [0x1F] MOVE_ENTITY: EventEntity moves to X=133.271*, Z=-4.106*, Y=8.499*
  4: 0x00C5 [0x1F] MOVE_ENTITY: Update entity position (mode=1)
  5: 0x00C7 [0x6F] WAIT_FRAME_DELAY: Yield until WaitTime reaches zero
  6: 0x00C8 [0x79] EventEntity looks at Ayame (ID: 17744003/0x010EC083) (Basic look)
  7: 0x00D2 [0x00] END_REQSTACK()
```
