# Event 1

## Metadata

| Field           | Value    |
|-----------------|----------|
| Event Index     | 3/10     |
| Offset          | 0x0002   |
| Data Size       | 48 bytes |
| Calculated Size | 48 bytes |
| Instructions    | 11       |

```
      00 01 02 03 04 05 06 07  08 09 0A 0B 0C 0D 0E 0F
      -- -- -- -- -- -- -- --  -- -- -- -- -- -- -- --
0000:       24 00 80 01 80 01  80 25 02 00 10 02 80 00    $......%......
0010: 1C 00 29 0D DB 00 0C 01  04 01 2E 00 02 00 10 03  ..).............
0020: 80 00 2E 00 29 0D DB 00  0C 01 03 01 2E 00 20 00  ....)......... .
0030: 21 00                                             !.              
```

## Opcodes

```
  0: 0x0002 [0x24] CREATE_DIALOG(message_id=7247*, default_option=0*, option_flags=0*)
    → " WHAT YOU WANNA DO?\u0007\u000B(EMPTY).\u0007EVENTS.\u0007GO TO TOWN.\u0007WARP.\u0007LEAVE ZONE ONCE.\u0007RESET QUEST FLAGS ONLY.\u007F1\u0000\u0007"
  1: 0x0009 [0x25] WAIT_DIALOG_SELECT()
  2: 0x000A [0x02] IF !(Work_Zone[0] == 1*) GOTO 0x001C
  3: 0x0012 [0x29] REQ_SET_WAIT(priority=0x0D, entity_id=DIRECTOR (ID: 17563867/0x010C00DB), tag_num=0x04)
  4: 0x0019 [0x01] GOTO 0x002E
  5: 0x001C [0x02] IF !(Work_Zone[0] == 3*) GOTO 0x002E
  6: 0x0024 [0x29] REQ_SET_WAIT(priority=0x0D, entity_id=DIRECTOR (ID: 17563867/0x010C00DB), tag_num=0x03)
  7: 0x002B [0x01] GOTO 0x002E

SUBROUTINE_002E:
  8: 0x002E [0x20] SET_CLI_EVENT_UC_FLAG: Unlock player control
  9: 0x0030 [0x21] END_EVENT
 10: 0x0031 [0x00] END_REQSTACK()
```
