# Event 4

## Metadata

| Field           | Value    |
|-----------------|----------|
| Event Index     | 9/10     |
| Offset          | 0x0377   |
| Data Size       | 75 bytes |
| Calculated Size | 75 bytes |
| Instructions    | 10       |

```
      00 01 02 03 04 05 06 07  08 09 0A 0B 0C 0D 0E 0F
      -- -- -- -- -- -- -- --  -- -- -- -- -- -- -- --
0370:                      51  DB 00 0C 01 DB 00 0C 01         Q........
0380: 6B 62 61 73 51 DB 00 0C  01 DB 00 0C 01 6B 6B 69  kbasQ........kki
0390: 64 51 DB 00 0C 01 DB 00  0C 01 6B 6B 61 69 2D DB  dQ........kkai-.
03A0: 00 0C 01 DB 00 0C 01 73  6B 69 64 1C 1F 80 51 DB  .......skid...Q.
03B0: 00 0C 01 DB 00 0C 01 6B  6B 69 64 1C 1F 80 20 00  .......kkid... .
03C0: 21 00                                             !.              
```

## Opcodes

```
  0: 0x0377 [0x51] END_MAP_SCHEDULER: End scheduler "kbas" with entities [DIRECTOR (ID: 17563867/0x010C00DB), DIRECTOR (ID: 17563867/0x010C00DB)]
  1: 0x0384 [0x51] END_MAP_SCHEDULER: End scheduler "kkid" with entities [DIRECTOR (ID: 17563867/0x010C00DB), DIRECTOR (ID: 17563867/0x010C00DB)]
  2: 0x0391 [0x51] END_MAP_SCHEDULER: End scheduler "kkai" with entities [DIRECTOR (ID: 17563867/0x010C00DB), DIRECTOR (ID: 17563867/0x010C00DB)]
  3: 0x039E [0x2D] CREATE_ZONE_SCHEDULER_TASK: Create scheduler "skid" with entities [DIRECTOR (ID: 17563867/0x010C00DB), DIRECTOR (ID: 17563867/0x010C00DB)]
  4: 0x03AB [0x1C] WAIT(1200* ticks)
  5: 0x03AE [0x51] END_MAP_SCHEDULER: End scheduler "kkid" with entities [DIRECTOR (ID: 17563867/0x010C00DB), DIRECTOR (ID: 17563867/0x010C00DB)]
  6: 0x03BB [0x1C] WAIT(1200* ticks)
  7: 0x03BE [0x20] SET_CLI_EVENT_UC_FLAG: Unlock player control
  8: 0x03C0 [0x21] END_EVENT
  9: 0x03C1 [0x00] END_REQSTACK()
```
