# Event 65535

## Metadata

| Field           | Value    |
|-----------------|----------|
| Event Index     | 7/10     |
| Offset          | 0x02DE   |
| Data Size       | 74 bytes |
| Calculated Size | 74 bytes |
| Instructions    | 16       |

```
      00 01 02 03 04 05 06 07  08 09 0A 0B 0C 0D 0E 0F
      -- -- -- -- -- -- -- --  -- -- -- -- -- -- -- --
02D0:                                            24 1C                $.
02E0: 80 01 80 01 80 25 02 00  10 01 80 00 FD 02 29 09  .....%........).
02F0: F0 FF FF 7F 16 03 01 10  1D 80 01 24 03 02 00 10  ...........$....
0300: 02 80 00 14 03 29 09 F0  FF FF 7F 16 03 01 10 1E  .....)..........
0310: 80 01 24 03 02 00 10 03  80 00 24 03 03 01 10 1B  ..$.......$.....
0320: 80 01 24 03 20 00 21 00                           ..$. .!.        
```

## Opcodes

```
  0: 0x02DE [0x24] CREATE_DIALOG(message_id=7250*, default_option=0*, option_flags=0*)
    → " WELL, WELL...\u0007\u000BOK\u0007DONE\u0007RESET QUEST FLAGS ONLY.\u007F1\u0000\u0007"
  1: 0x02E5 [0x25] WAIT_DIALOG_SELECT()
  2: 0x02E6 [0x02] IF !(Work_Zone[0] == 0*) GOTO 0x02FD
  3: 0x02EE [0x29] REQ_SET_WAIT(priority=0x09, entity_id=LocalPlayer, tag_num=0x16)
  4: 0x02F5 [0x03] Work_Zone[1] = 19*
  5: 0x02FA [0x01] GOTO 0x0324
  6: 0x02FD [0x02] IF !(Work_Zone[0] == 1*) GOTO 0x0314
  7: 0x0305 [0x29] REQ_SET_WAIT(priority=0x09, entity_id=LocalPlayer, tag_num=0x16)
  8: 0x030C [0x03] Work_Zone[1] = 20*
  9: 0x0311 [0x01] GOTO 0x0324
 10: 0x0314 [0x02] IF !(Work_Zone[0] == 3*) GOTO 0x0324
 11: 0x031C [0x03] Work_Zone[1] = 100*
 12: 0x0321 [0x01] GOTO 0x0324

SUBROUTINE_0324:
 13: 0x0324 [0x20] SET_CLI_EVENT_UC_FLAG: Unlock player control
 14: 0x0326 [0x21] END_EVENT
 15: 0x0327 [0x00] END_REQSTACK()
```
