# Event 65535

## Metadata

| Field           | Value    |
|-----------------|----------|
| Event Index     | 7/7      |
| Offset          | 0x007D   |
| Data Size       | 80 bytes |
| Calculated Size | 80 bytes |
| Instructions    | 8        |

```
      00 01 02 03 04 05 06 07  08 09 0A 0B 0C 0D 0E 0F
      -- -- -- -- -- -- -- --  -- -- -- -- -- -- -- --
0070:                                         45 09 80               E..
0080: F8 FF FF 7F F8 FF FF 7F  73 30 31 30 06 80 45 0B  ........s010..E.
0090: 80 F8 FF FF 7F F8 FF FF  7F 66 64 69 31 06 80 55  .........fdi1..U
00A0: 09 80 F8 FF FF 7F F8 FF  FF 7F 73 30 31 30 27 0A  ..........s010'.
00B0: CB E0 0E 01 02 1C 0C 80  45 0D 80 F0 FF FF 7F F0  ........E.......
00C0: FF FF 7F 77 68 6F 31 06  80 1C 0C 80 00           ...who1......   
```

## Opcodes

```
  0: 0x007D [0x45] LOAD_SCHEDULED_TASK(work_offset1=211*, entity1=EventEntity, entity2=EventEntity, scheduler_id="s010", work_offset2=0*)
  1: 0x008E [0x45] LOAD_SCHEDULED_TASK(work_offset1=200*, entity1=EventEntity, entity2=EventEntity, scheduler_id="fdi1", work_offset2=0*)
  2: 0x009F [0x55] WAIT_LOAD_SCHEDULER(work_offset=211*, entity1=EventEntity, entity2=EventEntity, scheduler_id="s010")
  3: 0x00AE [0x27] REQ_SET(priority=0x0A, entity_id=Marble Door (ID: 17752267/0x010EE0CB), tag_num=0x02)
  4: 0x00B5 [0x1C] WAIT(60* ticks)
  5: 0x00B8 [0x45] LOAD_SCHEDULED_TASK(work_offset1=201*, entity1=LocalPlayer, entity2=LocalPlayer, scheduler_id="who1", work_offset2=0*)
  6: 0x00C9 [0x1C] WAIT(60* ticks)
  7: 0x00CC [0x00] END_REQSTACK()
```
