# Event 65535

## Metadata

| Field           | Value     |
|-----------------|-----------|
| Event Index     | 53/55     |
| Offset          | 0x0305    |
| Data Size       | 107 bytes |
| Calculated Size | 107 bytes |
| Instructions    | 9         |

```
      00 01 02 03 04 05 06 07  08 09 0A 0B 0C 0D 0E 0F
      -- -- -- -- -- -- -- --  -- -- -- -- -- -- -- --
0300:                45 0A 80  F0 FF FF 7F F0 FF FF 7F       E..........
0310: 6F 76 6C 31 0B 80 45 0C  80 F8 FF FF 7F F8 FF FF  ovl1..E.........
0320: 7F 73 30 34 39 0B 80 1C  0D 80 55 0C 80 F8 FF FF  .s049.....U.....
0330: 7F F8 FF FF 7F 73 30 34  39 9F 0E 80 A2 00 02 01  .....s049.......
0340: A2 00 02 01 6B 69 6C 6C  0B 80 45 0A 80 F0 FF FF  ....kill..E.....
0350: 7F F0 FF FF 7F 6F 76 6C  31 0B 80 45 0C 80 F8 FF  .....ovl1..E....
0360: FF 7F F8 FF FF 7F 73 30  35 30 0B 80 1C 0F 80 00  ......s050......
```

## Opcodes

```
  0: 0x0305 [0x45] LOAD_SCHEDULED_TASK: Load scheduler "ovl1" with entities [LocalPlayer, LocalPlayer], work=[200*, 0*]
  1: 0x0316 [0x45] LOAD_SCHEDULED_TASK: Load scheduler "s049" with entities [EventEntity, EventEntity], work=[171*, 0*]
  2: 0x0327 [0x1C] WAIT(90* ticks)
  3: 0x032A [0x55] WAIT_LOAD_SCHEDULER: Wait for scheduler "s049" with entities [EventEntity, EventEntity], work=171*
  4: 0x0339 [0x9F] LOAD_SCHEDULED_TASK_ALT: Load scheduler "kill" with entities [??? (ID: 16908450/0x010200A2), ??? (ID: 16908450/0x010200A2)], work=[115*, 0*]
  5: 0x034A [0x45] LOAD_SCHEDULED_TASK: Load scheduler "ovl1" with entities [LocalPlayer, LocalPlayer], work=[200*, 0*]
  6: 0x035B [0x45] LOAD_SCHEDULED_TASK: Load scheduler "s050" with entities [EventEntity, EventEntity], work=[171*, 0*]
  7: 0x036C [0x1C] WAIT(50* ticks)
  8: 0x036F [0x00] END_REQSTACK()
```
