# Event 65535

## Metadata

| Field           | Value    |
|-----------------|----------|
| Event Index     | 13/17    |
| Offset          | 0x00B1   |
| Data Size       | 69 bytes |
| Calculated Size | 69 bytes |
| Instructions    | 17       |

```
      00 01 02 03 04 05 06 07  08 09 0A 0B 0C 0D 0E 0F
      -- -- -- -- -- -- -- --  -- -- -- -- -- -- -- --
00B0:    1E F0 FF FF 7F 1C 02  80 29 08 C3 A0 0A 01 07   ........)......
00C0: 1E F0 FF FF 7F 1C 02 80  1E F0 FF FF 7F 1C 02 80  ................
00D0: 1E F0 FF FF 7F 1C 02 80  1E F0 FF FF 7F 1C 02 80  ................
00E0: 1E F0 FF FF 7F 1C 02 80  1E F0 FF FF 7F 1C 02 80  ................
00F0: 1E F0 FF FF 7F 00                                 ......          
```

## Opcodes

```
  0: 0x00B1 [0x1E] EventEntity looks at LocalPlayer and starts talking
  1: 0x00B6 [0x1C] WAIT(30* ticks)
  2: 0x00B9 [0x29] REQ_SET_WAIT(priority=0x08, entity_id=20 (ID: 17473731/0x010AA0C3), tag_num=0x07)
  3: 0x00C0 [0x1E] EventEntity looks at LocalPlayer and starts talking
  4: 0x00C5 [0x1C] WAIT(30* ticks)
  5: 0x00C8 [0x1E] EventEntity looks at LocalPlayer and starts talking
  6: 0x00CD [0x1C] WAIT(30* ticks)
  7: 0x00D0 [0x1E] EventEntity looks at LocalPlayer and starts talking
  8: 0x00D5 [0x1C] WAIT(30* ticks)
  9: 0x00D8 [0x1E] EventEntity looks at LocalPlayer and starts talking
 10: 0x00DD [0x1C] WAIT(30* ticks)
 11: 0x00E0 [0x1E] EventEntity looks at LocalPlayer and starts talking
 12: 0x00E5 [0x1C] WAIT(30* ticks)
 13: 0x00E8 [0x1E] EventEntity looks at LocalPlayer and starts talking
 14: 0x00ED [0x1C] WAIT(30* ticks)
 15: 0x00F0 [0x1E] EventEntity looks at LocalPlayer and starts talking
 16: 0x00F5 [0x00] END_REQSTACK()
```
