# 17850917

## Common Data

| Field            | Value                        |
|------------------|------------------------------|
| Zone             | Foret de Hennetiel (ID: 262) |
| Block Size       | 244 bytes                    |
| Total Events     | 12                           |
| References Count | 10                           |

## List of Events

| Event ID                   | Entrypoint   |   Size |   Instructions |
|----------------------------|--------------|--------|----------------|
| [65535](#event-65535)      | 0x0000       |      1 |              1 |
| [518](#event-518)          | 0x0001       |      7 |              3 |
| [65535.1](#event-655351)   | 0x0008       |     26 |              4 |
| [65535.2](#event-655352)   | 0x0022       |     25 |              5 |
| [65535.3](#event-655353)   | 0x003B       |     12 |              3 |
| [65535.4](#event-655354)   | 0x0047       |      1 |              1 |
| [65535.5](#event-655355)   | 0x0048       |     18 |              4 |
| [65535.6](#event-655356)   | 0x005A       |     10 |              2 |
| [65535.7](#event-655357)   | 0x0064       |      9 |              3 |
| [65535.8](#event-655358)   | 0x006D       |      9 |              3 |
| [65535.9](#event-655359)   | 0x0076       |     10 |              2 |
| [65535.10](#event-6553510) | 0x0080       |     10 |              2 |

## DAT References (imed_data)

|   Index | Hex Value   |   Dec Value |
|---------|-------------|-------------|
|       0 | 0x0A05      |        2565 |
|       1 | 0x01C2      |         450 |
|       2 | 0x0000      |           0 |
|       3 | 0x0078      |         120 |
|       4 | 0x0916      |        2326 |
|       5 | 0x0001      |           1 |
|       6 | 0x88CB2     |      560306 |
|       7 | 0xFFFC5A4C  |  4294728268 |
|       8 | 0xFFFFF830  |  4294965296 |
|       9 | 0x0080      |         128 |

## Events

### Event 65535

#### Metadata

| Field        | Value   |
|--------------|---------|
| Entrypoint   | 0x0000  |
| Data Size    | 1 bytes |
| Instructions | 1       |

```
      00 01 02 03 04 05 06 07  08 09 0A 0B 0C 0D 0E 0F
      -- -- -- -- -- -- -- --  -- -- -- -- -- -- -- --
0000: 00                                                .               
```

#### Opcodes

```
  0: 0x0000 [0x00] END_REQSTACK()
```

### Event 518

#### Metadata

| Field        | Value   |
|--------------|---------|
| Entrypoint   | 0x0001  |
| Data Size    | 7 bytes |
| Instructions | 3       |

```
      00 01 02 03 04 05 06 07  08 09 0A 0B 0C 0D 0E 0F
      -- -- -- -- -- -- -- --  -- -- -- -- -- -- -- --
0000:    B6 00 00 80 A5 01 00                            .......        
```

#### Opcodes

```
  0: 0x0001 [0xB6] ENTITY_APPEARANCE_HANDLER(case=Hair style, value=2565*)
  1: 0x0005 [0xA5] EventEntity->Flags3.BallistaTeam |= 0x08  // Set bit 3 of BallistaTeam
  2: 0x0007 [0x00] END_REQSTACK()
```

### Event 65535.1

#### Metadata

| Field        | Value    |
|--------------|----------|
| Entrypoint   | 0x0008   |
| Data Size    | 26 bytes |
| Instructions | 4        |

```
      00 01 02 03 04 05 06 07  08 09 0A 0B 0C 0D 0E 0F
      -- -- -- -- -- -- -- --  -- -- -- -- -- -- -- --
0000:                          2C F8 FF FF 7F F8 FF FF          ,.......
0010: 7F 64 65 61 64 1C 01 80  6C F8 FF FF 7F 02 80 03  .dead...l.......
0020: 80 00                                             ..              
```

#### Opcodes

```
  0: 0x0008 [0x2C] CREATE_SCHEDULER_TASK: Create scheduler "dead" with entities [EventEntity, EventEntity]
  1: 0x0015 [0x1C] WAIT(450* ticks)
  2: 0x0018 [0x6C] FADE_ENTITY_COLOR(entity_id=EventEntity, end_alpha=0*, fade_time=120*)
  3: 0x0021 [0x00] END_REQSTACK()
```

### Event 65535.2

#### Metadata

| Field        | Value    |
|--------------|----------|
| Entrypoint   | 0x0022   |
| Data Size    | 25 bytes |
| Instructions | 5        |

```
      00 01 02 03 04 05 06 07  08 09 0A 0B 0C 0D 0E 0F
      -- -- -- -- -- -- -- --  -- -- -- -- -- -- -- --
0020:       B6 00 04 80 22 01  6C F8 FF FF 7F 02 80 05    ....".l.......
0030: 80 37 06 80 07 80 08 80  02 80 00                 .7.........     
```

#### Opcodes

```
  0: 0x0022 [0xB6] ENTITY_APPEARANCE_HANDLER(case=Hair style, value=2326*)
  1: 0x0026 [0x22] ENTITY_HIDE_FLAG(enabled=0x01)
  2: 0x0028 [0x6C] FADE_ENTITY_COLOR(entity_id=EventEntity, end_alpha=0*, fade_time=1*)
  3: 0x0031 [0x37] UPDATE_EVENT_POSITION_AND_DIR: x=560.306*, z=-239.028*, y=-2.000*, direction=0.0°*
  4: 0x003A [0x00] END_REQSTACK()
```

### Event 65535.3

#### Metadata

| Field        | Value    |
|--------------|----------|
| Entrypoint   | 0x003B   |
| Data Size    | 12 bytes |
| Instructions | 3        |

```
      00 01 02 03 04 05 06 07  08 09 0A 0B 0C 0D 0E 0F
      -- -- -- -- -- -- -- --  -- -- -- -- -- -- -- --
0030:                                   22 00 6C 25 62             ".l%b
0040: 10 01 09 80 03 80 00                              .......         
```

#### Opcodes

```
  0: 0x003B [0x22] ENTITY_HIDE_FLAG(enabled=0x00)
  1: 0x003D [0x6C] FADE_ENTITY_COLOR(entity_id=Unnamed NPC (ID: 17850917/0x01106225), end_alpha=128*, fade_time=120*)
  2: 0x0046 [0x00] END_REQSTACK()
```

### Event 65535.4

#### Metadata

| Field        | Value   |
|--------------|---------|
| Entrypoint   | 0x0047  |
| Data Size    | 1 bytes |
| Instructions | 1       |

```
      00 01 02 03 04 05 06 07  08 09 0A 0B 0C 0D 0E 0F
      -- -- -- -- -- -- -- --  -- -- -- -- -- -- -- --
0040:                      00                                  .        
```

#### Opcodes

```
  0: 0x0047 [0x00] END_REQSTACK()
```

### Event 65535.5

#### Metadata

| Field        | Value    |
|--------------|----------|
| Entrypoint   | 0x0048   |
| Data Size    | 18 bytes |
| Instructions | 4        |

```
      00 01 02 03 04 05 06 07  08 09 0A 0B 0C 0D 0E 0F
      -- -- -- -- -- -- -- --  -- -- -- -- -- -- -- --
0040:                          22 00 2F 00 F8 FF FF 7F          "./.....
0050: 6C F8 FF FF 7F 02 80 05  80 00                    l.........      
```

#### Opcodes

```
  0: 0x0048 [0x22] ENTITY_HIDE_FLAG(enabled=0x00)
  1: 0x004A [0x2F] EventEntity->Render.Flags0 &= ~0x80000 // Bit 19
  2: 0x0050 [0x6C] FADE_ENTITY_COLOR(entity_id=EventEntity, end_alpha=0*, fade_time=1*)
  3: 0x0059 [0x00] END_REQSTACK()
```

### Event 65535.6

#### Metadata

| Field        | Value    |
|--------------|----------|
| Entrypoint   | 0x005A   |
| Data Size    | 10 bytes |
| Instructions | 2        |

```
      00 01 02 03 04 05 06 07  08 09 0A 0B 0C 0D 0E 0F
      -- -- -- -- -- -- -- --  -- -- -- -- -- -- -- --
0050:                                6C F8 FF FF 7F 09            l.....
0060: 80 05 80 00                                       ....            
```

#### Opcodes

```
  0: 0x005A [0x6C] FADE_ENTITY_COLOR(entity_id=EventEntity, end_alpha=128*, fade_time=1*)
  1: 0x0063 [0x00] END_REQSTACK()
```

### Event 65535.7

#### Metadata

| Field        | Value   |
|--------------|---------|
| Entrypoint   | 0x0064  |
| Data Size    | 9 bytes |
| Instructions | 3       |

```
      00 01 02 03 04 05 06 07  08 09 0A 0B 0C 0D 0E 0F
      -- -- -- -- -- -- -- --  -- -- -- -- -- -- -- --
0060:             22 00 2F 00  F8 FF FF 7F 00               "./......   
```

#### Opcodes

```
  0: 0x0064 [0x22] ENTITY_HIDE_FLAG(enabled=0x00)
  1: 0x0066 [0x2F] EventEntity->Render.Flags0 &= ~0x80000 // Bit 19
  2: 0x006C [0x00] END_REQSTACK()
```

### Event 65535.8

#### Metadata

| Field        | Value   |
|--------------|---------|
| Entrypoint   | 0x006D  |
| Data Size    | 9 bytes |
| Instructions | 3       |

```
      00 01 02 03 04 05 06 07  08 09 0A 0B 0C 0D 0E 0F
      -- -- -- -- -- -- -- --  -- -- -- -- -- -- -- --
0060:                                         22 01 2F               "./
0070: 01 F8 FF FF 7F 00                                 ......          
```

#### Opcodes

```
  0: 0x006D [0x22] ENTITY_HIDE_FLAG(enabled=0x01)
  1: 0x006F [0x2F] EventEntity->Render.Flags0 |= 0x80000 // Bit 19
  2: 0x0075 [0x00] END_REQSTACK()
```

### Event 65535.9

#### Metadata

| Field        | Value    |
|--------------|----------|
| Entrypoint   | 0x0076   |
| Data Size    | 10 bytes |
| Instructions | 2        |

```
      00 01 02 03 04 05 06 07  08 09 0A 0B 0C 0D 0E 0F
      -- -- -- -- -- -- -- --  -- -- -- -- -- -- -- --
0070:                   6C F8  FF FF 7F 02 80 05 80 00        l.........
```

#### Opcodes

```
  0: 0x0076 [0x6C] FADE_ENTITY_COLOR(entity_id=EventEntity, end_alpha=0*, fade_time=1*)
  1: 0x007F [0x00] END_REQSTACK()
```

### Event 65535.10

#### Metadata

| Field        | Value    |
|--------------|----------|
| Entrypoint   | 0x0080   |
| Data Size    | 10 bytes |
| Instructions | 2        |

```
      00 01 02 03 04 05 06 07  08 09 0A 0B 0C 0D 0E 0F
      -- -- -- -- -- -- -- --  -- -- -- -- -- -- -- --
0080: 6C F8 FF FF 7F 09 80 05  80 00                    l.........      
```

#### Opcodes

```
  0: 0x0080 [0x6C] FADE_ENTITY_COLOR(entity_id=EventEntity, end_alpha=128*, fade_time=1*)
  1: 0x0089 [0x00] END_REQSTACK()
```
