# 17850912

## Common Data

| Field            | Value                        |
|------------------|------------------------------|
| Zone             | Foret de Hennetiel (ID: 262) |
| Block Size       | 772 bytes                    |
| Total Events     | 25                           |
| References Count | 34                           |

## List of Events

| Event ID                   | Entrypoint   |   Size |   Instructions |
|----------------------------|--------------|--------|----------------|
| [65535](#event-65535)      | 0x0000       |      1 |              1 |
| [65535.1](#event-655351)   | 0x0001       |      1 |              1 |
| [65535.2](#event-655352)   | 0x0002       |     18 |              4 |
| [65535.3](#event-655353)   | 0x0014       |     10 |              2 |
| [65535.4](#event-655354)   | 0x001E       |      9 |              3 |
| [65535.5](#event-655355)   | 0x0027       |      9 |              3 |
| [65535.6](#event-655356)   | 0x0030       |     10 |              2 |
| [65535.7](#event-655357)   | 0x003A       |    158 |             34 |
| [516](#event-516)          | 0x00D8       |      1 |              1 |
| [65535.8](#event-655358)   | 0x00D9       |     45 |              4 |
| [65535.9](#event-655359)   | 0x0106       |      7 |              3 |
| [65535.10](#event-6553510) | 0x010D       |      7 |              3 |
| [65535.11](#event-6553511) | 0x0114       |     37 |              5 |
| [65535.12](#event-6553512) | 0x0139       |     37 |              5 |
| [65535.13](#event-6553513) | 0x015E       |     14 |              4 |
| [65535.14](#event-6553514) | 0x016C       |     14 |              4 |
| [65535.15](#event-6553515) | 0x017A       |     14 |              4 |
| [65535.16](#event-6553516) | 0x0188       |     14 |              4 |
| [65535.17](#event-6553517) | 0x0196       |     14 |              4 |
| [65535.18](#event-6553518) | 0x01A4       |     14 |              4 |
| [65535.19](#event-6553519) | 0x01B2       |      5 |              2 |
| [65535.20](#event-6553520) | 0x01B7       |      5 |              2 |
| [518](#event-518)          | 0x01BC       |     45 |              4 |
| [65535.21](#event-6553521) | 0x01E9       |     14 |              2 |
| [65535.22](#event-6553522) | 0x01F7       |     15 |              5 |

## DAT References (imed_data)

|   Index | Hex Value   |   Dec Value |
|---------|-------------|-------------|
|       0 | 0x0000      |           0 |
|       1 | 0x0001      |           1 |
|       2 | 0x0080      |         128 |
|       3 | 0x0005      |           5 |
|       4 | 0x0002      |           2 |
|       5 | 0x000A      |          10 |
|       6 | 0x0009      |           9 |
|       7 | 0x0046      |          70 |
|       8 | 0x008C      |         140 |
|       9 | 0x00D2      |         210 |
|      10 | 0x0008      |           8 |
|      11 | 0x0030      |          48 |
|      12 | 0x0152      |         338 |
|      13 | 0x0260      |         608 |
|      14 | 0x000D      |          13 |
|      15 | 0x7201C     |      466972 |
|      16 | 0xFFF9F1B9  |  4294570425 |
|      17 | 0x0028      |          40 |
|      18 | 0x72717     |      468759 |
|      19 | 0xFFFA0B9A  |  4294577050 |
|      20 | 0x716AB     |      464555 |
|      21 | 0xFFF9FBCC  |  4294573004 |
|      22 | 0x71C07     |      465927 |
|      23 | 0xFFF9F4CF  |  4294571215 |
|      24 | 0x71AAB     |      465579 |
|      25 | 0xFFF9F85B  |  4294572123 |
|      26 | 0x716DA     |      464602 |
|      27 | 0xFFF9F976  |  4294572406 |
|      28 | 0x0106      |         262 |
|      29 | 0x00B7      |         183 |
|      30 | 0x00B5      |         181 |
|      31 | 0xFFF8A08F  |  4294484111 |
|      32 | 0x14611     |       83473 |
|      33 | 0xFFFFD550  |  4294956368 |

## Events

### Event 65535

#### Metadata

| Field        | Value   |
|--------------|---------|
| Entrypoint   | 0x0000  |
| Data Size    | 1 bytes |
| Instructions | 1       |

```
      00 01 02 03 04 05 06 07  08 09 0A 0B 0C 0D 0E 0F
      -- -- -- -- -- -- -- --  -- -- -- -- -- -- -- --
0000: 00                                                .               
```

#### Opcodes

```
  0: 0x0000 [0x00] END_REQSTACK()
```

### Event 65535.1

#### Metadata

| Field        | Value   |
|--------------|---------|
| Entrypoint   | 0x0001  |
| Data Size    | 1 bytes |
| Instructions | 1       |

```
      00 01 02 03 04 05 06 07  08 09 0A 0B 0C 0D 0E 0F
      -- -- -- -- -- -- -- --  -- -- -- -- -- -- -- --
0000:    00                                              .              
```

#### Opcodes

```
  0: 0x0001 [0x00] END_REQSTACK()
```

### Event 65535.2

#### Metadata

| Field        | Value    |
|--------------|----------|
| Entrypoint   | 0x0002   |
| Data Size    | 18 bytes |
| Instructions | 4        |

```
      00 01 02 03 04 05 06 07  08 09 0A 0B 0C 0D 0E 0F
      -- -- -- -- -- -- -- --  -- -- -- -- -- -- -- --
0000:       22 00 2F 00 F8 FF  FF 7F 6C F8 FF FF 7F 00    "./.....l.....
0010: 80 01 80 00                                       ....            
```

#### Opcodes

```
  0: 0x0002 [0x22] ENTITY_HIDE_FLAG(enabled=0x00)
  1: 0x0004 [0x2F] EventEntity->Render.Flags0 &= ~0x80000 // Bit 19
  2: 0x000A [0x6C] FADE_ENTITY_COLOR(entity_id=EventEntity, end_alpha=0*, fade_time=1*)
  3: 0x0013 [0x00] END_REQSTACK()
```

### Event 65535.3

#### Metadata

| Field        | Value    |
|--------------|----------|
| Entrypoint   | 0x0014   |
| Data Size    | 10 bytes |
| Instructions | 2        |

```
      00 01 02 03 04 05 06 07  08 09 0A 0B 0C 0D 0E 0F
      -- -- -- -- -- -- -- --  -- -- -- -- -- -- -- --
0010:             6C F8 FF FF  7F 02 80 01 80 00            l.........  
```

#### Opcodes

```
  0: 0x0014 [0x6C] FADE_ENTITY_COLOR(entity_id=EventEntity, end_alpha=128*, fade_time=1*)
  1: 0x001D [0x00] END_REQSTACK()
```

### Event 65535.4

#### Metadata

| Field        | Value   |
|--------------|---------|
| Entrypoint   | 0x001E  |
| Data Size    | 9 bytes |
| Instructions | 3       |

```
      00 01 02 03 04 05 06 07  08 09 0A 0B 0C 0D 0E 0F
      -- -- -- -- -- -- -- --  -- -- -- -- -- -- -- --
0010:                                            22 00                ".
0020: 2F 00 F8 FF FF 7F 00                              /......         
```

#### Opcodes

```
  0: 0x001E [0x22] ENTITY_HIDE_FLAG(enabled=0x00)
  1: 0x0020 [0x2F] EventEntity->Render.Flags0 &= ~0x80000 // Bit 19
  2: 0x0026 [0x00] END_REQSTACK()
```

### Event 65535.5

#### Metadata

| Field        | Value   |
|--------------|---------|
| Entrypoint   | 0x0027  |
| Data Size    | 9 bytes |
| Instructions | 3       |

```
      00 01 02 03 04 05 06 07  08 09 0A 0B 0C 0D 0E 0F
      -- -- -- -- -- -- -- --  -- -- -- -- -- -- -- --
0020:                      22  01 2F 01 F8 FF FF 7F 00         "./......
```

#### Opcodes

```
  0: 0x0027 [0x22] ENTITY_HIDE_FLAG(enabled=0x01)
  1: 0x0029 [0x2F] EventEntity->Render.Flags0 |= 0x80000 // Bit 19
  2: 0x002F [0x00] END_REQSTACK()
```

### Event 65535.6

#### Metadata

| Field        | Value    |
|--------------|----------|
| Entrypoint   | 0x0030   |
| Data Size    | 10 bytes |
| Instructions | 2        |

```
      00 01 02 03 04 05 06 07  08 09 0A 0B 0C 0D 0E 0F
      -- -- -- -- -- -- -- --  -- -- -- -- -- -- -- --
0030: 6C F8 FF FF 7F 00 80 01  80 00                    l.........      
```

#### Opcodes

```
  0: 0x0030 [0x6C] FADE_ENTITY_COLOR(entity_id=EventEntity, end_alpha=0*, fade_time=1*)
  1: 0x0039 [0x00] END_REQSTACK()
```

### Event 65535.7

#### Metadata

| Field        | Value     |
|--------------|-----------|
| Entrypoint   | 0x003A    |
| Data Size    | 158 bytes |
| Instructions | 2         |

```
      00 01 02 03 04 05 06 07  08 09 0A 0B 0C 0D 0E 0F
      -- -- -- -- -- -- -- --  -- -- -- -- -- -- -- --
0030:                                6C F8 FF FF 7F 02            l.....
0040: 80 01 80 00 03 02 00 01  00 02 02 00 03 80 05 59  ...............Y
0050: 00 08 02 00 01 80 01 5E  00 08 02 00 04 80 14 02  .......^........
0060: 00 05 80 07 02 00 06 80  1B 03 02 00 01 00 02 02  ................
0070: 00 03 80 05 7E 00 08 02  00 01 80 01 83 00 08 02  ....~...........
0080: 00 04 80 14 02 00 05 80  07 02 00 07 80 1B 03 02  ................
0090: 00 01 00 02 02 00 03 80  05 A3 00 08 02 00 01 80  ................
00A0: 01 A8 00 08 02 00 04 80  14 02 00 05 80 07 02 00  ................
00B0: 08 80 1B 03 02 00 01 00  02 02 00 03 80 05 C8 00  ................
00C0: 08 02 00 01 80 01 CD 00  08 02 00 04 80 14 02 00  ................
00D0: 05 80 07 02 00 09 80 1B                           ........        
```

#### Opcodes

```
  0: 0x003A [0x6C] FADE_ENTITY_COLOR(entity_id=EventEntity, end_alpha=128*, fade_time=1*)
  1: 0x0043 [0x00] END_REQSTACK()
```

#### Data or dead code:

```
# Dead code (unreachable instructions):
     0x0044 [0x03] ExtData[1]->WorkLocal[2] = ExtData[1]->WorkLocal[1]
     0x0049 [0x02] IF !(ExtData[1]->WorkLocal[2] > 5*) GOTO 0x0059
     0x0051 [0x08] ExtData[1]->WorkLocal[2] -= 1*
     0x0056 [0x01] GOTO 0x005E
     0x0059 [0x08] ExtData[1]->WorkLocal[2] -= 2*
     0x005E [0x14] ExtData[1]->WorkLocal[2] *= 10*
     0x0063 [0x07] ExtData[1]->WorkLocal[2] += 9*
     0x0068 [0x1B] RETURN
     0x0069 [0x03] ExtData[1]->WorkLocal[2] = ExtData[1]->WorkLocal[1]
     0x006E [0x02] IF !(ExtData[1]->WorkLocal[2] > 5*) GOTO 0x007E
     0x0076 [0x08] ExtData[1]->WorkLocal[2] -= 1*
     0x007B [0x01] GOTO 0x0083
     0x007E [0x08] ExtData[1]->WorkLocal[2] -= 2*
     0x0083 [0x14] ExtData[1]->WorkLocal[2] *= 10*
     0x0088 [0x07] ExtData[1]->WorkLocal[2] += 70*
     0x008D [0x1B] RETURN
     0x008E [0x03] ExtData[1]->WorkLocal[2] = ExtData[1]->WorkLocal[1]
     0x0093 [0x02] IF !(ExtData[1]->WorkLocal[2] > 5*) GOTO 0x00A3
     0x009B [0x08] ExtData[1]->WorkLocal[2] -= 1*
     0x00A0 [0x01] GOTO 0x00A8
     0x00A3 [0x08] ExtData[1]->WorkLocal[2] -= 2*
     0x00A8 [0x14] ExtData[1]->WorkLocal[2] *= 10*
     0x00AD [0x07] ExtData[1]->WorkLocal[2] += 140*
     0x00B2 [0x1B] RETURN
     0x00B3 [0x03] ExtData[1]->WorkLocal[2] = ExtData[1]->WorkLocal[1]
     0x00B8 [0x02] IF !(ExtData[1]->WorkLocal[2] > 5*) GOTO 0x00C8
     0x00C0 [0x08] ExtData[1]->WorkLocal[2] -= 1*
     0x00C5 [0x01] GOTO 0x00CD
     0x00C8 [0x08] ExtData[1]->WorkLocal[2] -= 2*
     0x00CD [0x14] ExtData[1]->WorkLocal[2] *= 10*
     0x00D2 [0x07] ExtData[1]->WorkLocal[2] += 210*
     0x00D7 [0x1B] RETURN
```

### Event 516

#### Metadata

| Field        | Value   |
|--------------|---------|
| Entrypoint   | 0x00D8  |
| Data Size    | 1 bytes |
| Instructions | 1       |

```
      00 01 02 03 04 05 06 07  08 09 0A 0B 0C 0D 0E 0F
      -- -- -- -- -- -- -- --  -- -- -- -- -- -- -- --
00D0:                          00                               .       
```

#### Opcodes

```
  0: 0x00D8 [0x00] END_REQSTACK()
```

### Event 65535.8

#### Metadata

| Field        | Value    |
|--------------|----------|
| Entrypoint   | 0x00D9   |
| Data Size    | 45 bytes |
| Instructions | 4        |

```
      00 01 02 03 04 05 06 07  08 09 0A 0B 0C 0D 0E 0F
      -- -- -- -- -- -- -- --  -- -- -- -- -- -- -- --
00D0:                             B6 0B 03 80 0A 80 00           .......
00E0: 80 0B 80 0C 80 0C 80 0C  80 0D 80 00 80 B4 00 00  ................
00F0: 00 5A 75 72 6B 6F 2D 42  61 7A 75 72 6B 6F 00 00  .Zurko-Bazurko..
0100: 00 B5 00 00 00 00                                 ......          
```

#### Opcodes

```
  0: 0x00D9 [0xB6] ENTITY_APPEARANCE_HANDLER(case=Full entity look, race=5*, hair=8*, head=0*, body=48*, hands=338*, legs=338*, feet=338*, main=608*, sub=0*)
  1: 0x00ED [0xB4] UI_WINDOW_STRING_HANDLER(case=0x00 - Copy string from opcode, work_offset=ExtData[1]->WorkLocal[0], string="Zurko-Bazurko")
  2: 0x0101 [0xB5] SET_EVENT_ENTITY_NAME: Change EventEntity name to ExtData[1]->WorkLocal[0]
  3: 0x0105 [0x00] END_REQSTACK()
```

### Event 65535.9

#### Metadata

| Field        | Value   |
|--------------|---------|
| Entrypoint   | 0x0106  |
| Data Size    | 7 bytes |
| Instructions | 3       |

```
      00 01 02 03 04 05 06 07  08 09 0A 0B 0C 0D 0E 0F
      -- -- -- -- -- -- -- --  -- -- -- -- -- -- -- --
0100:                   AB 03  AC 01 01 80 00                 .......   
```

#### Opcodes

```
  0: 0x0106 [0xAB] EventEntity->Render.Flags0 ^= 0x20000 // Toggle bit 17
  1: 0x0108 [0xAC] EventEntity->StatusEvent = 1*
  2: 0x010C [0x00] END_REQSTACK()
```

### Event 65535.10

#### Metadata

| Field        | Value   |
|--------------|---------|
| Entrypoint   | 0x010D  |
| Data Size    | 7 bytes |
| Instructions | 3       |

```
      00 01 02 03 04 05 06 07  08 09 0A 0B 0C 0D 0E 0F
      -- -- -- -- -- -- -- --  -- -- -- -- -- -- -- --
0100:                                         AC 01 00               ...
0110: 80 AB 04 00                                       ....            
```

#### Opcodes

```
  0: 0x010D [0xAC] EventEntity->StatusEvent = 0*
  1: 0x0111 [0xAB] EventEntity->Render.Flags0 |= 0x40000 // Set bit 18
  2: 0x0113 [0x00] END_REQSTACK()
```

### Event 65535.11

#### Metadata

| Field        | Value    |
|--------------|----------|
| Entrypoint   | 0x0114   |
| Data Size    | 37 bytes |
| Instructions | 5        |

```
      00 01 02 03 04 05 06 07  08 09 0A 0B 0C 0D 0E 0F
      -- -- -- -- -- -- -- --  -- -- -- -- -- -- -- --
0110:             03 01 00 07  7F 1A 44 00 66 02 00 F8      ......D.f...
0120: FF FF 7F F8 FF FF 7F 73  68 61 30 53 F8 FF FF 7F  .......sha0S....
0130: F8 FF FF 7F 73 68 61 30  00                       ....sha0.       
```

#### Opcodes

```
  0: 0x0114 [0x03] ExtData[1]->WorkLocal[1] = Entity->Race
  1: 0x0119 [0x1A] CALL_SUBROUTINE(address=0x0044)
  2: 0x011C [0x66] LOAD_EXT_SCHEDULER_MAIN: Load scheduler "sha0" with entities [EventEntity, EventEntity], work=ExtData[1]->WorkLocal[2]
  3: 0x012B [0x53] WAIT_SCHEDULER_TASK: Wait for scheduler "sha0" with entities [EventEntity, EventEntity]
  4: 0x0138 [0x00] END_REQSTACK()
```

### Event 65535.12

#### Metadata

| Field        | Value    |
|--------------|----------|
| Entrypoint   | 0x0139   |
| Data Size    | 37 bytes |
| Instructions | 5        |

```
      00 01 02 03 04 05 06 07  08 09 0A 0B 0C 0D 0E 0F
      -- -- -- -- -- -- -- --  -- -- -- -- -- -- -- --
0130:                             03 01 00 07 7F 1A 44           ......D
0140: 00 66 02 00 F8 FF FF 7F  F8 FF FF 7F 73 68 61 31  .f..........sha1
0150: 53 F8 FF FF 7F F8 FF FF  7F 73 68 61 31 00        S........sha1.  
```

#### Opcodes

```
  0: 0x0139 [0x03] ExtData[1]->WorkLocal[1] = Entity->Race
  1: 0x013E [0x1A] CALL_SUBROUTINE(address=0x0044)
  2: 0x0141 [0x66] LOAD_EXT_SCHEDULER_MAIN: Load scheduler "sha1" with entities [EventEntity, EventEntity], work=ExtData[1]->WorkLocal[2]
  3: 0x0150 [0x53] WAIT_SCHEDULER_TASK: Wait for scheduler "sha1" with entities [EventEntity, EventEntity]
  4: 0x015D [0x00] END_REQSTACK()
```

### Event 65535.13

#### Metadata

| Field        | Value    |
|--------------|----------|
| Entrypoint   | 0x015E   |
| Data Size    | 14 bytes |
| Instructions | 4        |

```
      00 01 02 03 04 05 06 07  08 09 0A 0B 0C 0D 0E 0F
      -- -- -- -- -- -- -- --  -- -- -- -- -- -- -- --
0150:                                            32 0E                2.
0160: 80 1F 00 0F 80 10 80 00  80 1F 01 00              ............    
```

#### Opcodes

```
  0: 0x015E [0x32] ExtData[1]->MainSpeed = 13* * 0.1
  1: 0x0161 [0x1F] MOVE_ENTITY: EventEntity moves to X=466.972*, Z=-396.871*, Y=0.000*
  2: 0x0169 [0x1F] MOVE_ENTITY: Update entity position (mode=1)
  3: 0x016B [0x00] END_REQSTACK()
```

### Event 65535.14

#### Metadata

| Field        | Value    |
|--------------|----------|
| Entrypoint   | 0x016C   |
| Data Size    | 14 bytes |
| Instructions | 4        |

```
      00 01 02 03 04 05 06 07  08 09 0A 0B 0C 0D 0E 0F
      -- -- -- -- -- -- -- --  -- -- -- -- -- -- -- --
0160:                                      32 11 80 1F              2...
0170: 00 12 80 13 80 00 80 1F  01 00                    ..........      
```

#### Opcodes

```
  0: 0x016C [0x32] ExtData[1]->MainSpeed = 40* * 0.1
  1: 0x016F [0x1F] MOVE_ENTITY: EventEntity moves to X=468.759*, Z=-390.246*, Y=0.000*
  2: 0x0177 [0x1F] MOVE_ENTITY: Update entity position (mode=1)
  3: 0x0179 [0x00] END_REQSTACK()
```

### Event 65535.15

#### Metadata

| Field        | Value    |
|--------------|----------|
| Entrypoint   | 0x017A   |
| Data Size    | 14 bytes |
| Instructions | 4        |

```
      00 01 02 03 04 05 06 07  08 09 0A 0B 0C 0D 0E 0F
      -- -- -- -- -- -- -- --  -- -- -- -- -- -- -- --
0170:                                32 11 80 1F 00 14            2.....
0180: 80 15 80 00 80 1F 01 00                           ........        
```

#### Opcodes

```
  0: 0x017A [0x32] ExtData[1]->MainSpeed = 40* * 0.1
  1: 0x017D [0x1F] MOVE_ENTITY: EventEntity moves to X=464.555*, Z=-394.292*, Y=0.000*
  2: 0x0185 [0x1F] MOVE_ENTITY: Update entity position (mode=1)
  3: 0x0187 [0x00] END_REQSTACK()
```

### Event 65535.16

#### Metadata

| Field        | Value    |
|--------------|----------|
| Entrypoint   | 0x0188   |
| Data Size    | 14 bytes |
| Instructions | 4        |

```
      00 01 02 03 04 05 06 07  08 09 0A 0B 0C 0D 0E 0F
      -- -- -- -- -- -- -- --  -- -- -- -- -- -- -- --
0180:                          32 11 80 1F 00 16 80 17          2.......
0190: 80 00 80 1F 01 00                                 ......          
```

#### Opcodes

```
  0: 0x0188 [0x32] ExtData[1]->MainSpeed = 40* * 0.1
  1: 0x018B [0x1F] MOVE_ENTITY: EventEntity moves to X=465.927*, Z=-396.081*, Y=0.000*
  2: 0x0193 [0x1F] MOVE_ENTITY: Update entity position (mode=1)
  3: 0x0195 [0x00] END_REQSTACK()
```

### Event 65535.17

#### Metadata

| Field        | Value    |
|--------------|----------|
| Entrypoint   | 0x0196   |
| Data Size    | 14 bytes |
| Instructions | 4        |

```
      00 01 02 03 04 05 06 07  08 09 0A 0B 0C 0D 0E 0F
      -- -- -- -- -- -- -- --  -- -- -- -- -- -- -- --
0190:                   32 0E  80 1F 00 18 80 19 80 00        2.........
01A0: 80 1F 01 00                                       ....            
```

#### Opcodes

```
  0: 0x0196 [0x32] ExtData[1]->MainSpeed = 13* * 0.1
  1: 0x0199 [0x1F] MOVE_ENTITY: EventEntity moves to X=465.579*, Z=-395.173*, Y=0.000*
  2: 0x01A1 [0x1F] MOVE_ENTITY: Update entity position (mode=1)
  3: 0x01A3 [0x00] END_REQSTACK()
```

### Event 65535.18

#### Metadata

| Field        | Value    |
|--------------|----------|
| Entrypoint   | 0x01A4   |
| Data Size    | 14 bytes |
| Instructions | 4        |

```
      00 01 02 03 04 05 06 07  08 09 0A 0B 0C 0D 0E 0F
      -- -- -- -- -- -- -- --  -- -- -- -- -- -- -- --
01A0:             32 0E 80 1F  00 1A 80 1B 80 00 80 1F      2...........
01B0: 01 00                                             ..              
```

#### Opcodes

```
  0: 0x01A4 [0x32] ExtData[1]->MainSpeed = 13* * 0.1
  1: 0x01A7 [0x1F] MOVE_ENTITY: EventEntity moves to X=464.602*, Z=-394.890*, Y=0.000*
  2: 0x01AF [0x1F] MOVE_ENTITY: Update entity position (mode=1)
  3: 0x01B1 [0x00] END_REQSTACK()
```

### Event 65535.19

#### Metadata

| Field        | Value   |
|--------------|---------|
| Entrypoint   | 0x01B2  |
| Data Size    | 5 bytes |
| Instructions | 2       |

```
      00 01 02 03 04 05 06 07  08 09 0A 0B 0C 0D 0E 0F
      -- -- -- -- -- -- -- --  -- -- -- -- -- -- -- --
01B0:       AC 01 01 80 00                                .....         
```

#### Opcodes

```
  0: 0x01B2 [0xAC] EventEntity->StatusEvent = 1*
  1: 0x01B6 [0x00] END_REQSTACK()
```

### Event 65535.20

#### Metadata

| Field        | Value   |
|--------------|---------|
| Entrypoint   | 0x01B7  |
| Data Size    | 5 bytes |
| Instructions | 2       |

```
      00 01 02 03 04 05 06 07  08 09 0A 0B 0C 0D 0E 0F
      -- -- -- -- -- -- -- --  -- -- -- -- -- -- -- --
01B0:                      AC  01 00 80 00                     .....    
```

#### Opcodes

```
  0: 0x01B7 [0xAC] EventEntity->StatusEvent = 0*
  1: 0x01BB [0x00] END_REQSTACK()
```

### Event 518

#### Metadata

| Field        | Value    |
|--------------|----------|
| Entrypoint   | 0x01BC   |
| Data Size    | 45 bytes |
| Instructions | 4        |

```
      00 01 02 03 04 05 06 07  08 09 0A 0B 0C 0D 0E 0F
      -- -- -- -- -- -- -- --  -- -- -- -- -- -- -- --
01B0:                                      B6 0B 04 80              ....
01C0: 04 80 00 80 1C 80 1C 80  1C 80 1C 80 1D 80 1E 80  ................
01D0: B4 00 00 00 4D 61 72 6A  61 6D 69 00 00 00 00 00  ....Marjami.....
01E0: 00 00 00 00 B5 00 00 00  00                       .........       
```

#### Opcodes

```
  0: 0x01BC [0xB6] ENTITY_APPEARANCE_HANDLER(case=Full entity look, race=2*, hair=2*, head=0*, body=262*, hands=262*, legs=262*, feet=262*, main=183*, sub=181*)
  1: 0x01D0 [0xB4] UI_WINDOW_STRING_HANDLER(case=0x00 - Copy string from opcode, work_offset=ExtData[1]->WorkLocal[0], string="Marjami")
  2: 0x01E4 [0xB5] SET_EVENT_ENTITY_NAME: Change EventEntity name to ExtData[1]->WorkLocal[0]
  3: 0x01E8 [0x00] END_REQSTACK()
```

### Event 65535.21

#### Metadata

| Field        | Value    |
|--------------|----------|
| Entrypoint   | 0x01E9   |
| Data Size    | 14 bytes |
| Instructions | 2        |

```
      00 01 02 03 04 05 06 07  08 09 0A 0B 0C 0D 0E 0F
      -- -- -- -- -- -- -- --  -- -- -- -- -- -- -- --
01E0:                             2C F8 FF FF 7F F8 FF           ,......
01F0: FF 7F 63 61 62 6B 00                              ..cabk.         
```

#### Opcodes

```
  0: 0x01E9 [0x2C] CREATE_SCHEDULER_TASK: Create scheduler "cabk" with entities [EventEntity, EventEntity]
  1: 0x01F6 [0x00] END_REQSTACK()
```

### Event 65535.22

#### Metadata

| Field        | Value    |
|--------------|----------|
| Entrypoint   | 0x01F7   |
| Data Size    | 15 bytes |
| Instructions | 5        |

```
      00 01 02 03 04 05 06 07  08 09 0A 0B 0C 0D 0E 0F
      -- -- -- -- -- -- -- --  -- -- -- -- -- -- -- --
01F0:                      32  0E 80 1F 00 1F 80 20 80         2...... .
0200: 21 80 1F 01 6F 00                                 !...o.          
```

#### Opcodes

```
  0: 0x01F7 [0x32] ExtData[1]->MainSpeed = 13* * 0.1
  1: 0x01FA [0x1F] MOVE_ENTITY: EventEntity moves to X=-483.185*, Z=83.473*, Y=-10.928*
  2: 0x0202 [0x1F] MOVE_ENTITY: Update entity position (mode=1)
  3: 0x0204 [0x6F] WAIT_FRAME_DELAY: Yield until WaitTime reaches zero
  4: 0x0205 [0x00] END_REQSTACK()
```
