# 17850929 - Jeggim

## Common Data

| Field            | Value                        |
|------------------|------------------------------|
| Zone             | Foret de Hennetiel (ID: 262) |
| Block Size       | 332 bytes                    |
| Total Events     | 10                           |
| References Count | 22                           |

## List of Events

| Event ID                 | Entrypoint   |   Size |   Instructions |
|--------------------------|--------------|--------|----------------|
| [65535](#event-65535)    | 0x0000       |      1 |              1 |
| [510](#event-510)        | 0x0001       |     60 |             13 |
| [65535.1](#event-655351) | 0x003D       |      1 |              1 |
| [65535.2](#event-655352) | 0x003E       |      1 |              1 |
| [65535.3](#event-655353) | 0x003F       |     24 |              3 |
| [65535.4](#event-655354) | 0x0057       |     21 |              2 |
| [65535.5](#event-655355) | 0x006C       |     25 |              3 |
| [65535.6](#event-655356) | 0x0085       |     25 |              3 |
| [65535.7](#event-655357) | 0x009E       |     15 |              5 |
| [65535.8](#event-655358) | 0x00AD       |     15 |              5 |

## DAT References (imed_data)

|   Index | Hex Value   |   Dec Value |
|---------|-------------|-------------|
|       0 | 0x0009      |           9 |
|       1 | 0x0877      |        2167 |
|       2 | 0x1F04      |        7940 |
|       3 | 0x0000      |           0 |
|       4 | 0x1F05      |        7941 |
|       5 | 0x0001      |           1 |
|       6 | 0x000A      |          10 |
|       7 | 0x0067      |         103 |
|       8 | 0x0066      |         102 |
|       9 | 0x0003      |           3 |
|      10 | 0x0006      |           6 |
|      11 | 0x0014      |          20 |
|      12 | 0x008E      |         142 |
|      13 | 0x0039      |          57 |
|      14 | 0x0028      |          40 |
|      15 | 0xFFFDCAF9  |  4294822649 |
|      16 | 0x515E7     |      333287 |
|      17 | 0xFFFFEFF3  |  4294963187 |
|      18 | 0x000D      |          13 |
|      19 | 0xFFFDE325  |  4294828837 |
|      20 | 0x57153     |      356691 |
|      21 | 0xFFFFE758  |  4294960984 |

## String References

- **7940**: Without $6, no one can hope to survive the trek across the toxic Zoldeff River. Its poisoned waters can eat through clothes and cause communicable illnesses that take weeks to recover from.
- **7941**: Choubollet has braved the waters many times, so I'm sure he'll be willing to lend you a hand. He should be found in the frontier station.

## Events

### Event 65535

#### Metadata

| Field        | Value   |
|--------------|---------|
| Entrypoint   | 0x0000  |
| Data Size    | 1 bytes |
| Instructions | 1       |

```
      00 01 02 03 04 05 06 07  08 09 0A 0B 0C 0D 0E 0F
      -- -- -- -- -- -- -- --  -- -- -- -- -- -- -- --
0000: 00                                                .               
```

#### Opcodes

```
  0: 0x0000 [0x00] END_REQSTACK()
```

### Event 510

#### Metadata

| Field        | Value    |
|--------------|----------|
| Entrypoint   | 0x0001   |
| Data Size    | 60 bytes |
| Instructions | 13       |

```
      00 01 02 03 04 05 06 07  08 09 0A 0B 0C 0D 0E 0F
      -- -- -- -- -- -- -- --  -- -- -- -- -- -- -- --
0000:    1E F0 FF FF 7F 6F 70  66 00 80 F8 FF FF 7F F8   .....opf.......
0010: FF FF 7F 74 6C 6B 30 03  02 10 01 80 1D 02 80 23  ...tlk0........#
0020: 02 03 10 03 80 00 2C 00  1D 04 80 23 66 00 80 F8  ......,....#f...
0030: FF FF 7F F8 FF FF 7F 74  6C 6B 31 21 00           .......tlk1!.   
```

#### Opcodes

```
  0: 0x0001 [0x1E] EventEntity looks at LocalPlayer and starts talking
  1: 0x0006 [0x6F] WAIT_FRAME_DELAY: Yield until WaitTime reaches zero
  2: 0x0007 [0x70] WAIT_ENTITY_RENDER_FLAG: Wait while EventEntity->Render.Flags3 bit 2 is set (cancel turn if not)
  3: 0x0008 [0x66] LOAD_EXT_SCHEDULER_MAIN: Load scheduler "tlk0" with entities [EventEntity, EventEntity], work=9*
  4: 0x0017 [0x03] Work_Zone[2] = 2167*
  5: 0x001C [0x1D] PRINT_EVENT_MESSAGE(message_id=7940*)
    → "Without $6, no one can hope to survive the trek across the toxic Zoldeff River. Its poisoned waters can eat through clothes and cause communicable illnesses that take weeks to recover from."
  6: 0x001F [0x23] WAIT_FOR_DIALOG_INTERACTION
  7: 0x0020 [0x02] IF !(Work_Zone[3] == 0*) GOTO 0x002C
  8: 0x0028 [0x1D] PRINT_EVENT_MESSAGE(message_id=7941*)
    → "Choubollet has braved the waters many times, so I'm sure he'll be willing to lend you a hand. He should be found in the frontier station."
  9: 0x002B [0x23] WAIT_FOR_DIALOG_INTERACTION
 10: 0x002C [0x66] LOAD_EXT_SCHEDULER_MAIN: Load scheduler "tlk1" with entities [EventEntity, EventEntity], work=9*
 11: 0x003B [0x21] END_EVENT
 12: 0x003C [0x00] END_REQSTACK()
```

### Event 65535.1

#### Metadata

| Field        | Value   |
|--------------|---------|
| Entrypoint   | 0x003D  |
| Data Size    | 1 bytes |
| Instructions | 1       |

```
      00 01 02 03 04 05 06 07  08 09 0A 0B 0C 0D 0E 0F
      -- -- -- -- -- -- -- --  -- -- -- -- -- -- -- --
0030:                                         00                     .  
```

#### Opcodes

```
  0: 0x003D [0x00] END_REQSTACK()
```

### Event 65535.2

#### Metadata

| Field        | Value   |
|--------------|---------|
| Entrypoint   | 0x003E  |
| Data Size    | 1 bytes |
| Instructions | 1       |

```
      00 01 02 03 04 05 06 07  08 09 0A 0B 0C 0D 0E 0F
      -- -- -- -- -- -- -- --  -- -- -- -- -- -- -- --
0030:                                            00                   . 
```

#### Opcodes

```
  0: 0x003E [0x00] END_REQSTACK()
```

### Event 65535.3

#### Metadata

| Field        | Value    |
|--------------|----------|
| Entrypoint   | 0x003F   |
| Data Size    | 24 bytes |
| Instructions | 3        |

```
      00 01 02 03 04 05 06 07  08 09 0A 0B 0C 0D 0E 0F
      -- -- -- -- -- -- -- --  -- -- -- -- -- -- -- --
0030:                                               B6                 .
0040: 0B 05 80 06 80 03 80 07  80 03 80 08 80 09 80 03  ................
0050: 80 03 80 C0 05 80 00                              .......         
```

#### Opcodes

```
  0: 0x003F [0xB6] ENTITY_APPEARANCE_HANDLER(case=Full entity look, race=1*, hair=10*, head=0*, body=103*, hands=0*, legs=102*, feet=3*, main=0*, sub=0*)
  1: 0x0053 [0xC0] EventEntity->Render.Flags3 |= 0x1000 // Set bit 12 (from 1*)
  2: 0x0056 [0x00] END_REQSTACK()
```

### Event 65535.4

#### Metadata

| Field        | Value    |
|--------------|----------|
| Entrypoint   | 0x0057   |
| Data Size    | 21 bytes |
| Instructions | 2        |

```
      00 01 02 03 04 05 06 07  08 09 0A 0B 0C 0D 0E 0F
      -- -- -- -- -- -- -- --  -- -- -- -- -- -- -- --
0050:                      B6  0B 05 80 0A 80 0B 80 0C         .........
0060: 80 03 80 0D 80 0D 80 03  80 03 80 00              ............    
```

#### Opcodes

```
  0: 0x0057 [0xB6] ENTITY_APPEARANCE_HANDLER(case=Full entity look, race=1*, hair=6*, head=20*, body=142*, hands=0*, legs=57*, feet=57*, main=0*, sub=0*)
  1: 0x006B [0x00] END_REQSTACK()
```

### Event 65535.5

#### Metadata

| Field        | Value    |
|--------------|----------|
| Entrypoint   | 0x006C   |
| Data Size    | 25 bytes |
| Instructions | 3        |

```
      00 01 02 03 04 05 06 07  08 09 0A 0B 0C 0D 0E 0F
      -- -- -- -- -- -- -- --  -- -- -- -- -- -- -- --
0060:                                      B4 00 00 00              ....
0070: 56 69 63 74 69 6D 00 00  00 00 00 00 00 00 00 00  Victim..........
0080: B5 00 00 00 00                                    .....           
```

#### Opcodes

```
  0: 0x006C [0xB4] UI_WINDOW_STRING_HANDLER(case=0x00 - Copy string from opcode, work_offset=ExtData[1]->WorkLocal[0], string="Victim")
  1: 0x0080 [0xB5] SET_EVENT_ENTITY_NAME: Change EventEntity name to ExtData[1]->WorkLocal[0]
  2: 0x0084 [0x00] END_REQSTACK()
```

### Event 65535.6

#### Metadata

| Field        | Value    |
|--------------|----------|
| Entrypoint   | 0x0085   |
| Data Size    | 25 bytes |
| Instructions | 3        |

```
      00 01 02 03 04 05 06 07  08 09 0A 0B 0C 0D 0E 0F
      -- -- -- -- -- -- -- --  -- -- -- -- -- -- -- --
0080:                B4 00 00  00 4A 65 67 67 69 6D 00       ....Jeggim.
0090: 00 00 00 00 00 00 00 00  00 B5 00 00 00 00        ..............  
```

#### Opcodes

```
  0: 0x0085 [0xB4] UI_WINDOW_STRING_HANDLER(case=0x00 - Copy string from opcode, work_offset=ExtData[1]->WorkLocal[0], string="Jeggim")
  1: 0x0099 [0xB5] SET_EVENT_ENTITY_NAME: Change EventEntity name to ExtData[1]->WorkLocal[0]
  2: 0x009D [0x00] END_REQSTACK()
```

### Event 65535.7

#### Metadata

| Field        | Value    |
|--------------|----------|
| Entrypoint   | 0x009E   |
| Data Size    | 15 bytes |
| Instructions | 5        |

```
      00 01 02 03 04 05 06 07  08 09 0A 0B 0C 0D 0E 0F
      -- -- -- -- -- -- -- --  -- -- -- -- -- -- -- --
0090:                                            32 0E                2.
00A0: 80 1F 00 0F 80 10 80 11  80 1F 01 6F 00           ...........o.   
```

#### Opcodes

```
  0: 0x009E [0x32] ExtData[1]->MainSpeed = 40* * 0.1
  1: 0x00A1 [0x1F] MOVE_ENTITY: EventEntity moves to X=-144.647*, Z=333.287*, Y=-4.109*
  2: 0x00A9 [0x1F] MOVE_ENTITY: Update entity position (mode=1)
  3: 0x00AB [0x6F] WAIT_FRAME_DELAY: Yield until WaitTime reaches zero
  4: 0x00AC [0x00] END_REQSTACK()
```

### Event 65535.8

#### Metadata

| Field        | Value    |
|--------------|----------|
| Entrypoint   | 0x00AD   |
| Data Size    | 15 bytes |
| Instructions | 5        |

```
      00 01 02 03 04 05 06 07  08 09 0A 0B 0C 0D 0E 0F
      -- -- -- -- -- -- -- --  -- -- -- -- -- -- -- --
00A0:                                         32 12 80               2..
00B0: 1F 00 13 80 14 80 15 80  1F 01 6F 00              ..........o.    
```

#### Opcodes

```
  0: 0x00AD [0x32] ExtData[1]->MainSpeed = 13* * 0.1
  1: 0x00B0 [0x1F] MOVE_ENTITY: EventEntity moves to X=-138.459*, Z=356.691*, Y=-6.312*
  2: 0x00B8 [0x1F] MOVE_ENTITY: Update entity position (mode=1)
  3: 0x00BA [0x6F] WAIT_FRAME_DELAY: Yield until WaitTime reaches zero
  4: 0x00BB [0x00] END_REQSTACK()
```
