# 17850909

## Common Data

| Field            | Value                        |
|------------------|------------------------------|
| Zone             | Foret de Hennetiel (ID: 262) |
| Block Size       | 3440 bytes                   |
| Total Events     | 4                            |
| References Count | 105                          |

## List of Events

| Event ID              | Entrypoint   |   Size |   Instructions |
|-----------------------|--------------|--------|----------------|
| [65535](#event-65535) | 0x0000       |      1 |              1 |
| [516](#event-516)     | 0x0001       |   1072 |            206 |
| [514](#event-514)     | 0x0431       |   1033 |            147 |
| [515](#event-515)     | 0x083A       |    879 |            105 |

## DAT References (imed_data)

|   Index | Hex Value   |   Dec Value |
|---------|-------------|-------------|
|       0 | 0x0001      |           1 |
|       1 | 0x0013      |          19 |
|       2 | 0x000F      |          15 |
|       3 | 0x0007      |           7 |
|       4 | 0x70AA4     |      461476 |
|       5 | 0xFFF9F229  |  4294570537 |
|       6 | 0x0000      |           0 |
|       7 | 0x000B      |          11 |
|       8 | 0x7163D     |      464445 |
|       9 | 0xFFF9FED3  |  4294573779 |
|      10 | 0x035A      |         858 |
|      11 | 0x003D      |          61 |
|      12 | 0x0264      |         612 |
|      13 | 0x0096      |         150 |
|      14 | 0x1DB8      |        7608 |
|      15 | 0x0078      |         120 |
|      16 | 0x0106      |         262 |
|      17 | 0x1DB9      |        7609 |
|      18 | 0x7396F     |      473455 |
|      19 | 0xFFF9C82E  |  4294559790 |
|      20 | 0x00D2      |         210 |
|      21 | 0x0AC5      |        2757 |
|      22 | 0x003C      |          60 |
|      23 | 0x0022      |          34 |
|      24 | 0x1DBA      |        7610 |
|      25 | 0x1DBB      |        7611 |
|      26 | 0x0028      |          40 |
|      27 | 0x1DBC      |        7612 |
|      28 | 0x0015      |          21 |
|      29 | 0x1DBD      |        7613 |
|      30 | 0x005A      |          90 |
|      31 | 0x1DBE      |        7614 |
|      32 | 0x001E      |          30 |
|      33 | 0x048C      |        1164 |
|      34 | 0x714A8     |      464040 |
|      35 | 0xFFF9FA70  |  4294572656 |
|      36 | 0x0359      |         857 |
|      37 | 0x0050      |          80 |
|      38 | 0x0064      |         100 |
|      39 | 0x1DBF      |        7615 |
|      40 | 0x0031      |          49 |
|      41 | 0x1DC0      |        7616 |
|      42 | 0x0044      |          68 |
|      43 | 0x1DC1      |        7617 |
|      44 | 0x000A      |          10 |
|      45 | 0x1DC2      |        7618 |
|      46 | 0x002D      |          45 |
|      47 | 0x072B      |        1835 |
|      48 | 0x1DC3      |        7619 |
|      49 | 0x1DC4      |        7620 |
|      50 | 0x004B      |          75 |
|      51 | 0x1DC5      |        7621 |
|      52 | 0x1DC6      |        7622 |
|      53 | 0x0014      |          20 |
|      54 | 0x1DC7      |        7623 |
|      55 | 0x1DC8      |        7624 |
|      56 | 0x1DC9      |        7625 |
|      57 | 0x1DCA      |        7626 |
|      58 | 0x0005      |           5 |
|      59 | 0x0008      |           8 |
|      60 | 0x0004      |           4 |
|      61 | 0x0942      |        2370 |
|      62 | 0x1DD6      |        7638 |
|      63 | 0x0039      |          57 |
|      64 | 0x00C8      |         200 |
|      65 | 0x74362     |      476002 |
|      66 | 0xFFF9F1D1  |  4294570449 |
|      67 | 0x042C      |        1068 |
|      68 | 0x7E8D3     |      518355 |
|      69 | 0xFFF9FA57  |  4294572631 |
|      70 | 0xFFFFD4C7  |  4294956231 |
|      71 | 0x07BB      |        1979 |
|      72 | 0x74235     |      475701 |
|      73 | 0xFFFA0404  |  4294575108 |
|      74 | 0x031C      |         796 |
|      75 | 0x0265      |         613 |
|      76 | 0x006E      |         110 |
|      77 | 0x1DCC      |        7628 |
|      78 | 0x0046      |          70 |
|      79 | 0x1DCD      |        7629 |
|      80 | 0x005F      |          95 |
|      81 | 0x1DCE      |        7630 |
|      82 | 0x1DCF      |        7631 |
|      83 | 0x762E1     |      484065 |
|      84 | 0xFFF9C5A4  |  4294559140 |
|      85 | 0x012C      |         300 |
|      86 | 0x0A48      |        2632 |
|      87 | 0x0006      |           6 |
|      88 | 0x1DD0      |        7632 |
|      89 | 0x001D      |          29 |
|      90 | 0x1DD1      |        7633 |
|      91 | 0x00AA      |         170 |
|      92 | 0x007F      |         127 |
|      93 | 0x0069      |         105 |
|      94 | 0x1DD2      |        7634 |
|      95 | 0x00BE      |         190 |
|      96 | 0x1DD3      |        7635 |
|      97 | 0x1DD4      |        7636 |
|      98 | 0x00B4      |         180 |
|      99 | 0x1DD5      |        7637 |
|     100 | 0x0262      |         610 |
|     101 | 0x0003      |           3 |
|     102 | 0x00C9      |         201 |
|     103 | 0x0002      |           2 |
|     104 | 0x00D7      |         215 |

## String References

- **7637**: Zurko-Bazurko ran off into the ravine's meandering labyrinth and is nowhere to be seen.
- **7638**: <Ka-chink> You may use the $3 [no more/one/two][/ more time/ more times].

## Events

### Event 65535

#### Metadata

| Field        | Value   |
|--------------|---------|
| Entrypoint   | 0x0000  |
| Data Size    | 1 bytes |
| Instructions | 1       |

```
      00 01 02 03 04 05 06 07  08 09 0A 0B 0C 0D 0E 0F
      -- -- -- -- -- -- -- --  -- -- -- -- -- -- -- --
0000: 00                                                .               
```

#### Opcodes

```
  0: 0x0000 [0x00] END_REQSTACK()
```

### Event 516

#### Metadata

| Field        | Value      |
|--------------|------------|
| Entrypoint   | 0x0001     |
| Data Size    | 1072 bytes |
| Instructions | 206        |

```
      00 01 02 03 04 05 06 07  08 09 0A 0B 0C 0D 0E 0F
      -- -- -- -- -- -- -- --  -- -- -- -- -- -- -- --
0000:    42 1A 7B 09 46 01 03  00 00 02 10 06 01 00 06   B.{.F..........
0010: 01 10 02 00 00 00 80 00  1D 00 01 29 00 05 01 10  ...........)....
0020: 43 00 43 01 03 01 00 03  10 38 01 80 77 02 80 03  C.C......8..w...
0030: 80 4E 00 F0 FF FF 7F 27  10 20 62 10 01 04 27 10  .N.....'. b...'.
0040: 21 62 10 01 04 29 10 20  62 10 01 09 29 10 21 62  !b...). b...).!b
0050: 10 01 09 92 01 20 62 10  01 92 01 21 62 10 01 92  ..... b....!b...
0060: 01 23 62 10 01 94 01 20  62 10 01 94 01 21 62 10  .#b.... b....!b.
0070: 01 94 01 23 62 10 01 29  10 20 62 10 01 0B BA 20  ...#b..). b.... 
0080: 62 10 01 04 80 05 80 06  80 07 80 BA 21 62 10 01  b...........!b..
0090: 08 80 09 80 06 80 0A 80  4E 01 F0 FF FF 7F 80 20  ........N...... 
00A0: 62 10 01 80 21 62 10 01  80 F0 FF FF 7F 5C 00 0B  b...!b.......\..
00B0: 80 5C 01 0B 80 5C 02 06  80 5C 03 06 80 9A 45 0C  .\...\...\....E.
00C0: 80 F0 FF FF 7F F0 FF FF  7F 73 30 31 33 06 80 27  .........s013..'
00D0: 10 20 62 10 01 0E 1A EF  0A 1C 0D 80 2B 20 62 10  . b.........+ b.
00E0: 01 0E 80 23 52 0C 80 F0  FF FF 7F F0 FF FF 7F 73  ...#R..........s
00F0: 30 31 33 45 0C 80 F0 FF  FF 7F F0 FF FF 7F 73 30  013E..........s0
0100: 31 37 06 80 1C 0F 80 4A  20 62 10 01 21 62 10 01  17.....J b..!b..
0110: 6F 70 03 03 10 10 80 2B  21 62 10 01 11 80 23 BA  op.....+!b....#.
0120: 23 62 10 01 12 80 13 80  14 80 15 80 4E 00 23 62  #b..........N.#b
0130: 10 01 4A 23 62 10 01 21  62 10 01 6F 70 80 23 62  ..J#b..!b..op.#b
0140: 10 01 1C 16 80 52 0C 80  F0 FF FF 7F F0 FF FF 7F  .....R..........
0150: 73 30 31 37 45 0C 80 F0  FF FF 7F F0 FF FF 7F 73  s017E..........s
0160: 30 31 38 06 80 1C 0F 80  5C 00 06 80 5C 01 06 80  018.....\...\...
0170: 6E 20 62 10 01 17 80 99  20 62 10 01 2B 20 62 10  n b..... b..+ b.
0180: 01 18 80 23 1C 16 80 2B  21 62 10 01 19 80 23 1C  ...#...+!b....#.
0190: 1A 80 2B 20 62 10 01 1B  80 23 4A 20 62 10 01 23  ..+ b....#J b..#
01A0: 62 10 01 6F 70 1C 1A 80  6E 20 62 10 01 1C 80 99  b..op...n b.....
01B0: 20 62 10 01 2B 20 62 10  01 1D 80 23 1C 16 80 27   b..+ b....#...'
01C0: 10 20 62 10 01 0F 27 10  23 62 10 01 03 52 0C 80  . b...'.#b...R..
01D0: F0 FF FF 7F F0 FF FF 7F  73 30 31 38 45 0C 80 F0  ........s018E...
01E0: FF FF 7F F0 FF FF 7F 73  30 32 31 06 80 1C 1E 80  .......s021.....
01F0: 2B 21 62 10 01 1F 80 23  4A 20 62 10 01 21 62 10  +!b....#J b..!b.
0200: 01 6F 70 1C 20 80 C4 02  21 80 23 62 10 01 21 62  .op. ...!.#b..!b
0210: 10 01 BA 21 62 10 01 22  80 23 80 06 80 24 80 27  ...!b..".#...$.'
0220: 10 21 62 10 01 0A 1C 25  80 52 0C 80 F0 FF FF 7F  .!b....%.R......
0230: F0 FF FF 7F 73 30 32 31  45 0C 80 F0 FF FF 7F F0  ....s021E.......
0240: FF FF 7F 73 30 32 32 06  80 1C 26 80 29 10 20 62  ...s022...&.). b
0250: 10 01 10 2B 20 62 10 01  27 80 23 1C 20 80 29 10  ...+ b..'.#. .).
0260: 20 62 10 01 0C 1C 02 80  66 28 80 20 62 10 01 20   b......f(. b.. 
0270: 62 10 01 73 69 72 30 1C  16 80 2B 20 62 10 01 29  b..sir0...+ b..)
0280: 80 23 5C 00 2A 80 5C 01  2A 80 9A 1C 20 80 2B 21  .#\.*.\.*... .+!
0290: 62 10 01 2B 80 23 1C 20  80 66 28 80 20 62 10 01  b..+.#. .f(. b..
02A0: 20 62 10 01 73 69 72 31  1C 02 80 29 10 20 62 10   b..sir1...). b.
02B0: 01 0D 1C 16 80 4A 20 62  10 01 23 62 10 01 6F 70  .....J b..#b..op
02C0: 1C 2C 80 29 10 20 62 10  01 0A 2B 20 62 10 01 2D  .,.). b...+ b..-
02D0: 80 23 1C 1E 80 27 10 20  62 10 01 11 1C 2E 80 C4  .#...'. b.......
02E0: 02 2F 80 23 62 10 01 20  62 10 01 2B 20 62 10 01  ./.#b.. b..+ b..
02F0: 30 80 23 1C 1E 80 29 10  20 62 10 01 15 4A 20 62  0.#...). b...J b
0300: 10 01 21 62 10 01 6F 70  2B 20 62 10 01 31 80 23  ..!b..op+ b..1.#
0310: 1C 32 80 2B 21 62 10 01  33 80 23 1C 16 80 2B 20  .2.+!b..3.#...+ 
0320: 62 10 01 34 80 23 29 10  20 62 10 01 14 4A 20 62  b..4.#). b...J b
0330: 10 01 21 62 10 01 6F 70  1C 35 80 2B 21 62 10 01  ..!b..op.5.+!b..
0340: 36 80 23 29 10 20 62 10  01 12 4A 20 62 10 01 21  6.#). b...J b..!
0350: 62 10 01 6F 70 2B 20 62  10 01 37 80 23 2B 21 62  b..op+ b..7.#+!b
0360: 10 01 38 80 23 29 10 20  62 10 01 13 4A 20 62 10  ..8.#). b...J b.
0370: 01 21 62 10 01 6F 70 1C  1E 80 2B 20 62 10 01 39  .!b..op...+ b..9
0380: 80 23 1C 14 80 52 0C 80  F0 FF FF 7F F0 FF FF 7F  .#...R..........
0390: 73 30 32 32 5D 06 80 06  80 5C 00 06 80 5C 01 06  s022]....\...\..
03A0: 80 45 0C 80 F0 FF FF 7F  F0 FF FF 7F 73 31 32 30  .E..........s120
03B0: 06 80 1C 3A 80 45 0C 80  F0 FF FF 7F F0 FF FF 7F  ...:.E..........
03C0: 73 30 32 34 06 80 6A 06  80 1E 80 3B 80 6A 06 80  s024..j....;.j..
03D0: 1E 80 3C 80 78 1C 02 80  AB 11 06 80 1C 00 80 AB  ..<.x...........
03E0: 04 AB 0A 02 01 00 00 80  00 03 04 1C 0D 80 03 02  ................
03F0: 10 3D 80 03 03 10 00 80  48 3E 80 23 1C 20 80 30  .=......H>.#. .0
0400: 01 2F 04 69 00 3B 80 69  00 3C 80 5C 00 16 80 5C  ./.i.;.i.<.\...\
0410: 01 16 80 5C 02 3F 80 5C  03 3F 80 9A 46 00 45 40  ...\.?.\.?..F.E@
0420: 80 F0 FF FF 7F F0 FF FF  7F 66 64 69 32 06 80 21  .........fdi2..!
0430: 00                                                .               
```

#### Opcodes

```
  0: 0x0001 [0x42] SET_CLI_EVENT_CANCEL_DATA()
  1: 0x0002 [0x1A] CALL_SUBROUTINE(address=0x097B)
  2: 0x0005 [0x46] CAMERA_CONTROL: Disable user control
  3: 0x0007 [0x03] ExtData[1]->WorkLocal[0] = Work_Zone[2]
  4: 0x000C [0x06] ExtData[1]->WorkLocal[1] = 0
  5: 0x000F [0x06] Work_Zone[1] = 0
  6: 0x0012 [0x02] IF !(ExtData[1]->WorkLocal[0] == 1*) GOTO 0x001D
  7: 0x001A [0x01] GOTO 0x0029
  8: 0x001D [0x05] Work_Zone[1] = 1
  9: 0x0020 [0x43] SEND_EVENT_UPDATE: Send pending tag to server (packet 0x005B)
 10: 0x0022 [0x43] SEND_EVENT_UPDATE: Check pending flag (skip if not pending)
 11: 0x0024 [0x03] ExtData[1]->WorkLocal[1] = Work_Zone[3]

SUBROUTINE_0029:
 12: 0x0029 [0x38] SET_CLIENT_EVENT_MODE(mode=19*)
 13: 0x002C [0x77] SET_EVENT_TIME_WEATHER(hour=15*, weather=7*)
 14: 0x0031 [0x4E] SET_ENTITY_HIDE_FLAG: Show LocalPlayer
 15: 0x0037 [0x27] REQ_SET(priority=0x10, entity_id=Unnamed NPC (ID: 17850912/0x01106220), tag_num=0x04)
 16: 0x003E [0x27] REQ_SET(priority=0x10, entity_id=Unnamed NPC (ID: 17850913/0x01106221), tag_num=0x04)
 17: 0x0045 [0x29] REQ_SET_WAIT(priority=0x10, entity_id=Unnamed NPC (ID: 17850912/0x01106220), tag_num=0x09)
 18: 0x004C [0x29] REQ_SET_WAIT(priority=0x10, entity_id=Unnamed NPC (ID: 17850913/0x01106221), tag_num=0x09)
 19: 0x0053 [0x92] Unnamed NPC (ID: 17850912/0x01106220)->Render.Flags3 ^= 0x01
 20: 0x0059 [0x92] Unnamed NPC (ID: 17850913/0x01106221)->Render.Flags3 ^= 0x01
 21: 0x005F [0x92] Insidio (ID: 17850915/0x01106223)->Render.Flags3 ^= 0x01
 22: 0x0065 [0x94] Unnamed NPC (ID: 17850912/0x01106220)->Render.Flags3 ^= 0x01
 23: 0x006B [0x94] Unnamed NPC (ID: 17850913/0x01106221)->Render.Flags3 ^= 0x01
 24: 0x0071 [0x94] Insidio (ID: 17850915/0x01106223)->Render.Flags3 ^= 0x01
 25: 0x0077 [0x29] REQ_SET_WAIT(priority=0x10, entity_id=Unnamed NPC (ID: 17850912/0x01106220), tag_num=0x0B)
 26: 0x007E [0xBA] SET_ENTITY_POSITION(entity_id=Unnamed NPC (ID: 17850912/0x01106220), pos_x=461.476*, pos_z=-396.759*, pos_y=0.000*, direction=1.0°*)
 27: 0x008B [0xBA] SET_ENTITY_POSITION(entity_id=Unnamed NPC (ID: 17850913/0x01106221), pos_x=464.445*, pos_z=-393.517*, pos_y=0.000*, direction=75.4°*)
 28: 0x0098 [0x4E] SET_ENTITY_HIDE_FLAG: Hide LocalPlayer
 29: 0x009E [0x80] LOAD_WAIT(entity=Unnamed NPC (ID: 17850912/0x01106220))
 30: 0x00A3 [0x80] LOAD_WAIT(entity=Unnamed NPC (ID: 17850913/0x01106221))
 31: 0x00A8 [0x80] LOAD_WAIT(entity=LocalPlayer)
 32: 0x00AD [0x5C] MUSIC_CONTROL: Set Idle (Day) music to song 61*
 33: 0x00B1 [0x5C] MUSIC_CONTROL: Set Idle (Night) music to song 61*
 34: 0x00B5 [0x5C] MUSIC_CONTROL: Set Combat (Solo) music to song 0*
 35: 0x00B9 [0x5C] MUSIC_CONTROL: Set Combat (Party) music to song 0*
 36: 0x00BD [0x9A] WAIT_MUSIC_SERVER()
 37: 0x00BE [0x45] LOAD_SCHEDULED_TASK: Load scheduler "s013" with entities [LocalPlayer, LocalPlayer], work=[612*, 0*]
 38: 0x00CF [0x27] REQ_SET(priority=0x10, entity_id=Unnamed NPC (ID: 17850912/0x01106220), tag_num=0x0E)
 39: 0x00D6 [0x1A] CALL_SUBROUTINE(address=0x0AEF)
 40: 0x00D9 [0x1C] WAIT(150* ticks)
 41: 0x00DC [0x2B] Unnamed NPC (ID: 17850912/0x01106220) [7608*]:
    → "Hm... The Zurk's inner demons tell him he's going the rightaru way..."
 42: 0x00E3 [0x23] WAIT_FOR_DIALOG_INTERACTION
 43: 0x00E4 [0x52] END_LOAD_SCHEDULER: End scheduler "s013" with entities [LocalPlayer, LocalPlayer], work=612*
 44: 0x00F3 [0x45] LOAD_SCHEDULED_TASK: Load scheduler "s017" with entities [LocalPlayer, LocalPlayer], work=[612*, 0*]
 45: 0x0104 [0x1C] WAIT(120* ticks)
 46: 0x0107 [0x4A] Unnamed NPC (ID: 17850912/0x01106220) looks at Unnamed NPC (ID: 17850913/0x01106221)
 47: 0x0110 [0x6F] WAIT_FRAME_DELAY: Yield until WaitTime reaches zero
 48: 0x0111 [0x70] WAIT_ENTITY_RENDER_FLAG: Wait while EventEntity->Render.Flags3 bit 2 is set (cancel turn if not)
 49: 0x0112 [0x03] Work_Zone[3] = 262*
 50: 0x0117 [0x2B] Unnamed NPC (ID: 17850913/0x01106221) [7609*]:
    → "I'm not so sure. We're deep-weep into $8, you know."
 51: 0x011E [0x23] WAIT_FOR_DIALOG_INTERACTION
 52: 0x011F [0xBA] SET_ENTITY_POSITION(entity_id=Insidio (ID: 17850915/0x01106223), pos_x=473.455*, pos_z=-407.506*, pos_y=0.210*, direction=242.3°*)
 53: 0x012C [0x4E] SET_ENTITY_HIDE_FLAG: Show Insidio (ID: 17850915/0x01106223)
 54: 0x0132 [0x4A] Insidio (ID: 17850915/0x01106223) looks at Unnamed NPC (ID: 17850913/0x01106221)
 55: 0x013B [0x6F] WAIT_FRAME_DELAY: Yield until WaitTime reaches zero
 56: 0x013C [0x70] WAIT_ENTITY_RENDER_FLAG: Wait while EventEntity->Render.Flags3 bit 2 is set (cancel turn if not)
 57: 0x013D [0x80] LOAD_WAIT(entity=Insidio (ID: 17850915/0x01106223))
 58: 0x0142 [0x1C] WAIT(60* ticks)
 59: 0x0145 [0x52] END_LOAD_SCHEDULER: End scheduler "s017" with entities [LocalPlayer, LocalPlayer], work=612*
 60: 0x0154 [0x45] LOAD_SCHEDULED_TASK: Load scheduler "s018" with entities [LocalPlayer, LocalPlayer], work=[612*, 0*]
 61: 0x0165 [0x1C] WAIT(120* ticks)
 62: 0x0168 [0x5C] MUSIC_CONTROL: Set Idle (Day) music to song 0*
 63: 0x016C [0x5C] MUSIC_CONTROL: Set Idle (Night) music to song 0*
 64: 0x0170 [0x6E] Unnamed NPC (ID: 17850912/0x01106220) uses emote 34*
 65: 0x0177 [0x99] Wait for Unnamed NPC (ID: 17850912/0x01106220) animation to complete
 66: 0x017C [0x2B] Unnamed NPC (ID: 17850912/0x01106220) [7610*]:
    → "That's why the Zurk suggestarus exercising caution. Not even the Pioneers' Coalition has trekked this far into the jungle-wungle, so there's no telling what--"
 67: 0x0183 [0x23] WAIT_FOR_DIALOG_INTERACTION
 68: 0x0184 [0x1C] WAIT(60* ticks)
 69: 0x0187 [0x2B] Unnamed NPC (ID: 17850913/0x01106221) [7611*]:
    → "Zurko, look out! Something-womething's there!"
 70: 0x018E [0x23] WAIT_FOR_DIALOG_INTERACTION
 71: 0x018F [0x1C] WAIT(40* ticks)
 72: 0x0192 [0x2B] Unnamed NPC (ID: 17850912/0x01106220) [7612*]:
    → "Huh?"
 73: 0x0199 [0x23] WAIT_FOR_DIALOG_INTERACTION
 74: 0x019A [0x4A] Unnamed NPC (ID: 17850912/0x01106220) looks at Insidio (ID: 17850915/0x01106223)
 75: 0x01A3 [0x6F] WAIT_FRAME_DELAY: Yield until WaitTime reaches zero
 76: 0x01A4 [0x70] WAIT_ENTITY_RENDER_FLAG: Wait while EventEntity->Render.Flags3 bit 2 is set (cancel turn if not)
 77: 0x01A5 [0x1C] WAIT(40* ticks)
 78: 0x01A8 [0x6E] Unnamed NPC (ID: 17850912/0x01106220) uses emote 21*
 79: 0x01AF [0x99] Wait for Unnamed NPC (ID: 17850912/0x01106220) animation to complete
 80: 0x01B4 [0x2B] Unnamed NPC (ID: 17850912/0x01106220) [7613*]:
    → "Aaah! What sort of baneful-waneful netherworld spawn is that!?"
 81: 0x01BB [0x23] WAIT_FOR_DIALOG_INTERACTION
 82: 0x01BC [0x1C] WAIT(60* ticks)
 83: 0x01BF [0x27] REQ_SET(priority=0x10, entity_id=Unnamed NPC (ID: 17850912/0x01106220), tag_num=0x0F)
 84: 0x01C6 [0x27] REQ_SET(priority=0x10, entity_id=Insidio (ID: 17850915/0x01106223), tag_num=0x03)
 85: 0x01CD [0x52] END_LOAD_SCHEDULER: End scheduler "s018" with entities [LocalPlayer, LocalPlayer], work=612*
 86: 0x01DC [0x45] LOAD_SCHEDULED_TASK: Load scheduler "s021" with entities [LocalPlayer, LocalPlayer], work=[612*, 0*]
 87: 0x01ED [0x1C] WAIT(90* ticks)
 88: 0x01F0 [0x2B] Unnamed NPC (ID: 17850913/0x01106221) [7614*]:
    → "Oh no, it's coming-woming this way..."
 89: 0x01F7 [0x23] WAIT_FOR_DIALOG_INTERACTION
 90: 0x01F8 [0x4A] Unnamed NPC (ID: 17850912/0x01106220) looks at Unnamed NPC (ID: 17850913/0x01106221)
 91: 0x0201 [0x6F] WAIT_FRAME_DELAY: Yield until WaitTime reaches zero
 92: 0x0202 [0x70] WAIT_ENTITY_RENDER_FLAG: Wait while EventEntity->Render.Flags3 bit 2 is set (cancel turn if not)
 93: 0x0203 [0x1C] WAIT(30* ticks)
 94: 0x0206 [0xC4] SCHEDULE_MAGIC_CASTING_ALT (arg=18): Insidio (ID: 17850915/0x01106223) casts magic 1164* on Unnamed NPC (ID: 17850913/0x01106221)
 95: 0x0212 [0xBA] SET_ENTITY_POSITION(entity_id=Unnamed NPC (ID: 17850913/0x01106221), pos_x=464.040*, pos_z=-394.640*, pos_y=0.000*, direction=75.3°*)
 96: 0x021F [0x27] REQ_SET(priority=0x10, entity_id=Unnamed NPC (ID: 17850913/0x01106221), tag_num=0x0A)
 97: 0x0226 [0x1C] WAIT(80* ticks)
 98: 0x0229 [0x52] END_LOAD_SCHEDULER: End scheduler "s021" with entities [LocalPlayer, LocalPlayer], work=612*
 99: 0x0238 [0x45] LOAD_SCHEDULED_TASK: Load scheduler "s022" with entities [LocalPlayer, LocalPlayer], work=[612*, 0*]
100: 0x0249 [0x1C] WAIT(100* ticks)
101: 0x024C [0x29] REQ_SET_WAIT(priority=0x10, entity_id=Unnamed NPC (ID: 17850912/0x01106220), tag_num=0x10)
102: 0x0253 [0x2B] Unnamed NPC (ID: 17850912/0x01106220) [7615*]:
    → "Ah, uh...uh..."
103: 0x025A [0x23] WAIT_FOR_DIALOG_INTERACTION
104: 0x025B [0x1C] WAIT(30* ticks)
105: 0x025E [0x29] REQ_SET_WAIT(priority=0x10, entity_id=Unnamed NPC (ID: 17850912/0x01106220), tag_num=0x0C)
106: 0x0265 [0x1C] WAIT(15* ticks)
107: 0x0268 [0x66] LOAD_EXT_SCHEDULER_MAIN: Load scheduler "sir0" with entities [Unnamed NPC (ID: 17850912/0x01106220), Unnamed NPC (ID: 17850912/0x01106220)], work=49*
108: 0x0277 [0x1C] WAIT(60* ticks)
109: 0x027A [0x2B] Unnamed NPC (ID: 17850912/0x01106220) [7616*]:
    → "Maniacal maesters... What the...?"
110: 0x0281 [0x23] WAIT_FOR_DIALOG_INTERACTION
111: 0x0282 [0x5C] MUSIC_CONTROL: Set Idle (Day) music to song 68*
112: 0x0286 [0x5C] MUSIC_CONTROL: Set Idle (Night) music to song 68*
113: 0x028A [0x9A] WAIT_MUSIC_SERVER()
114: 0x028B [0x1C] WAIT(30* ticks)
115: 0x028E [0x2B] Unnamed NPC (ID: 17850913/0x01106221) [7617*]:
    → "Zurko...I'm begging-wegging you...get out of here..."
116: 0x0295 [0x23] WAIT_FOR_DIALOG_INTERACTION
117: 0x0296 [0x1C] WAIT(30* ticks)
118: 0x0299 [0x66] LOAD_EXT_SCHEDULER_MAIN: Load scheduler "sir1" with entities [Unnamed NPC (ID: 17850912/0x01106220), Unnamed NPC (ID: 17850912/0x01106220)], work=49*
119: 0x02A8 [0x1C] WAIT(15* ticks)
120: 0x02AB [0x29] REQ_SET_WAIT(priority=0x10, entity_id=Unnamed NPC (ID: 17850912/0x01106220), tag_num=0x0D)
121: 0x02B2 [0x1C] WAIT(60* ticks)
122: 0x02B5 [0x4A] Unnamed NPC (ID: 17850912/0x01106220) looks at Insidio (ID: 17850915/0x01106223)
123: 0x02BE [0x6F] WAIT_FRAME_DELAY: Yield until WaitTime reaches zero
124: 0x02BF [0x70] WAIT_ENTITY_RENDER_FLAG: Wait while EventEntity->Render.Flags3 bit 2 is set (cancel turn if not)
125: 0x02C0 [0x1C] WAIT(10* ticks)
126: 0x02C3 [0x29] REQ_SET_WAIT(priority=0x10, entity_id=Unnamed NPC (ID: 17850912/0x01106220), tag_num=0x0A)
127: 0x02CA [0x2B] Unnamed NPC (ID: 17850912/0x01106220) [7618*]:
    → "You slimy sea bastard!"
128: 0x02D1 [0x23] WAIT_FOR_DIALOG_INTERACTION
129: 0x02D2 [0x1C] WAIT(90* ticks)
130: 0x02D5 [0x27] REQ_SET(priority=0x10, entity_id=Unnamed NPC (ID: 17850912/0x01106220), tag_num=0x11)
131: 0x02DC [0x1C] WAIT(45* ticks)
132: 0x02DF [0xC4] SCHEDULE_MAGIC_CASTING_ALT (arg=18): Insidio (ID: 17850915/0x01106223) casts magic 1835* on Unnamed NPC (ID: 17850912/0x01106220)
133: 0x02EB [0x2B] Unnamed NPC (ID: 17850912/0x01106220) [7619*]:
    → "Grk!"
134: 0x02F2 [0x23] WAIT_FOR_DIALOG_INTERACTION
135: 0x02F3 [0x1C] WAIT(90* ticks)
136: 0x02F6 [0x29] REQ_SET_WAIT(priority=0x10, entity_id=Unnamed NPC (ID: 17850912/0x01106220), tag_num=0x15)
137: 0x02FD [0x4A] Unnamed NPC (ID: 17850912/0x01106220) looks at Unnamed NPC (ID: 17850913/0x01106221)
138: 0x0306 [0x6F] WAIT_FRAME_DELAY: Yield until WaitTime reaches zero
139: 0x0307 [0x70] WAIT_ENTITY_RENDER_FLAG: Wait while EventEntity->Render.Flags3 bit 2 is set (cancel turn if not)
140: 0x0308 [0x2B] Unnamed NPC (ID: 17850912/0x01106220) [7620*]:
    → "Urrrg..."
141: 0x030F [0x23] WAIT_FOR_DIALOG_INTERACTION
142: 0x0310 [0x1C] WAIT(75* ticks)
143: 0x0313 [0x2B] Unnamed NPC (ID: 17850913/0x01106221) [7621*]:
    → "Zurko, promise-womise me one thing."
144: 0x031A [0x23] WAIT_FOR_DIALOG_INTERACTION
145: 0x031B [0x1C] WAIT(60* ticks)
146: 0x031E [0x2B] Unnamed NPC (ID: 17850912/0x01106220) [7622*]:
    → "Concentrate! Must...liberataru Mikolulu...from the clutches...of evil!"
147: 0x0325 [0x23] WAIT_FOR_DIALOG_INTERACTION
148: 0x0326 [0x29] REQ_SET_WAIT(priority=0x10, entity_id=Unnamed NPC (ID: 17850912/0x01106220), tag_num=0x14)
149: 0x032D [0x4A] Unnamed NPC (ID: 17850912/0x01106220) looks at Unnamed NPC (ID: 17850913/0x01106221)
150: 0x0336 [0x6F] WAIT_FRAME_DELAY: Yield until WaitTime reaches zero
151: 0x0337 [0x70] WAIT_ENTITY_RENDER_FLAG: Wait while EventEntity->Render.Flags3 bit 2 is set (cancel turn if not)
152: 0x0338 [0x1C] WAIT(20* ticks)
153: 0x033B [0x2B] Unnamed NPC (ID: 17850913/0x01106221) [7623*]:
    → "Promise me...you won't blame-wame yourself...please?"
154: 0x0342 [0x23] WAIT_FOR_DIALOG_INTERACTION
155: 0x0343 [0x29] REQ_SET_WAIT(priority=0x10, entity_id=Unnamed NPC (ID: 17850912/0x01106220), tag_num=0x12)
156: 0x034A [0x4A] Unnamed NPC (ID: 17850912/0x01106220) looks at Unnamed NPC (ID: 17850913/0x01106221)
157: 0x0353 [0x6F] WAIT_FRAME_DELAY: Yield until WaitTime reaches zero
158: 0x0354 [0x70] WAIT_ENTITY_RENDER_FLAG: Wait while EventEntity->Render.Flags3 bit 2 is set (cancel turn if not)
159: 0x0355 [0x2B] Unnamed NPC (ID: 17850912/0x01106220) [7624*]:
    → "Stop! Don't make me do this! Stoooooop!"
160: 0x035C [0x23] WAIT_FOR_DIALOG_INTERACTION
161: 0x035D [0x2B] Unnamed NPC (ID: 17850913/0x01106221) [7625*]:
    → "It's not...your faultaru..."
162: 0x0364 [0x23] WAIT_FOR_DIALOG_INTERACTION
163: 0x0365 [0x29] REQ_SET_WAIT(priority=0x10, entity_id=Unnamed NPC (ID: 17850912/0x01106220), tag_num=0x13)
164: 0x036C [0x4A] Unnamed NPC (ID: 17850912/0x01106220) looks at Unnamed NPC (ID: 17850913/0x01106221)
165: 0x0375 [0x6F] WAIT_FRAME_DELAY: Yield until WaitTime reaches zero
166: 0x0376 [0x70] WAIT_ENTITY_RENDER_FLAG: Wait while EventEntity->Render.Flags3 bit 2 is set (cancel turn if not)
167: 0x0377 [0x1C] WAIT(90* ticks)
168: 0x037A [0x2B] Unnamed NPC (ID: 17850912/0x01106220) [7626*]:
    → "Noooooooooooo!"
169: 0x0381 [0x23] WAIT_FOR_DIALOG_INTERACTION
170: 0x0382 [0x1C] WAIT(210* ticks)
171: 0x0385 [0x52] END_LOAD_SCHEDULER: End scheduler "s022" with entities [LocalPlayer, LocalPlayer], work=612*
172: 0x0394 [0x5D] SET_MUSIC_VOLUME(volume=0*, fade_time=0*)
173: 0x0399 [0x5C] MUSIC_CONTROL: Set Idle (Day) music to song 0*
174: 0x039D [0x5C] MUSIC_CONTROL: Set Idle (Night) music to song 0*
175: 0x03A1 [0x45] LOAD_SCHEDULED_TASK: Load scheduler "s120" with entities [LocalPlayer, LocalPlayer], work=[612*, 0*]
176: 0x03B2 [0x1C] WAIT(5* ticks)
177: 0x03B5 [0x45] LOAD_SCHEDULED_TASK: Load scheduler "s024" with entities [LocalPlayer, LocalPlayer], work=[612*, 0*]
178: 0x03C6 [0x6A] CHANGE_SOUND_VOLUME: Set (Master)* volume to 0*, fade_time=90*
179: 0x03CD [0x6A] CHANGE_SOUND_VOLUME: Set (Zone)* volume to 0*, fade_time=90*
180: 0x03D4 [0x78] ENABLE_GAME_TIMER_RESET_WEATHER()
181: 0x03D5 [0x1C] WAIT(15* ticks)
182: 0x03D8 [0xAB] EventEntity->DespawnValue = 0* // Set despawn value
183: 0x03DC [0x1C] WAIT(1* ticks)
184: 0x03DF [0xAB] EventEntity->Render.Flags0 |= 0x40000 // Set bit 18
185: 0x03E1 [0xAB] EventEntity->UnknownFlag = 0 // Disable unknown flag
186: 0x03E3 [0x02] IF !(ExtData[1]->WorkLocal[1] == 1*) GOTO 0x0403
187: 0x03EB [0x1C] WAIT(150* ticks)
188: 0x03EE [0x03] Work_Zone[2] = 2370*
189: 0x03F3 [0x03] Work_Zone[3] = 1*
190: 0x03F8 [0x48] [System] [7638*]:
    → "<Ka-chink> You may use the $3 [no more/one/two][/ more time/ more times]."
191: 0x03FB [0x23] WAIT_FOR_DIALOG_INTERACTION
192: 0x03FC [0x1C] WAIT(30* ticks)
193: 0x03FF [0x30] SET_UCOFF_CONTINUE_ZERO()
194: 0x0400 [0x01] GOTO 0x042F
195: 0x0403 [0x69] SET_SOUND_VOLUME: Unmute Effects/System/Master/SpecialChat
196: 0x0407 [0x69] SET_SOUND_VOLUME: Unmute Zone/Master/SpecialChat
197: 0x040B [0x5C] MUSIC_CONTROL: Set Idle (Day) music to song 60*
198: 0x040F [0x5C] MUSIC_CONTROL: Set Idle (Night) music to song 60*
199: 0x0413 [0x5C] MUSIC_CONTROL: Set Combat (Solo) music to song 57*
200: 0x0417 [0x5C] MUSIC_CONTROL: Set Combat (Party) music to song 57*
201: 0x041B [0x9A] WAIT_MUSIC_SERVER()
202: 0x041C [0x46] CAMERA_CONTROL: Restore default settings
203: 0x041E [0x45] LOAD_SCHEDULED_TASK: Load scheduler "fdi2" with entities [LocalPlayer, LocalPlayer], work=[200*, 0*]

SUBROUTINE_042F:
204: 0x042F [0x21] END_EVENT
205: 0x0430 [0x00] END_REQSTACK()
```

### Event 514

#### Metadata

| Field        | Value      |
|--------------|------------|
| Entrypoint   | 0x0431     |
| Data Size    | 1033 bytes |
| Instructions | 147        |

```
      00 01 02 03 04 05 06 07  08 09 0A 0B 0C 0D 0E 0F
      -- -- -- -- -- -- -- --  -- -- -- -- -- -- -- --
0430:    42 1A 7B 09 46 01 38  01 80 27 10 22 62 10 01   B.{.F.8..'."b..
0440: 04 29 10 22 62 10 01 09  4E 00 23 62 10 01 92 01  .)."b...N.#b....
0450: 22 62 10 01 92 01 23 62  10 01 94 01 22 62 10 01  "b....#b...."b..
0460: 94 01 23 62 10 01 BA 22  62 10 01 41 80 42 80 06  ..#b..."b..A.B..
0470: 80 43 80 BA 23 62 10 01  44 80 45 80 46 80 47 80  .C..#b..D.E.F.G.
0480: BA F0 FF FF 7F 48 80 49  80 06 80 4A 80 4A F0 FF  .....H.I...J.J..
0490: FF 7F 22 62 10 01 80 22  62 10 01 80 23 62 10 01  .."b..."b...#b..
04A0: 80 F0 FF FF 7F 27 10 F0  FF FF 7F 0A 5C 00 0B 80  .....'......\...
04B0: 5C 01 0B 80 5C 02 06 80  5C 03 06 80 9A 45 4B 80  \...\...\....EK.
04C0: F0 FF FF 7F F0 FF FF 7F  73 30 33 36 06 80 1A 5A  ........s036...Z
04D0: 09 1C 4C 80 2B 22 62 10  01 4D 80 23 1C 35 80 4A  ..L.+"b..M.#.5.J
04E0: 22 62 10 01 F0 FF FF 7F  1C 02 80 52 4B 80 F0 FF  "b.........RK...
04F0: FF 7F F0 FF FF 7F 73 30  33 36 45 4B 80 F0 FF FF  ......s036EK....
0500: 7F F0 FF FF 7F 73 30 33  37 06 80 1C 4E 80 66 28  .....s037...N.f(
0510: 80 22 62 10 01 22 62 10  01 74 6C 6B 30 1C 02 80  ."b.."b..tlk0...
0520: 2B 22 62 10 01 4F 80 23  1C 20 80 66 28 80 22 62  +"b..O.#. .f(."b
0530: 10 01 22 62 10 01 74 6C  6B 31 1C 02 80 52 4B 80  .."b..tlk1...RK.
0540: F0 FF FF 7F F0 FF FF 7F  73 30 33 37 1A CA 08 02  ........s037....
0550: 02 00 00 80 00 6B 05 45  4B 80 F0 FF FF 7F F0 FF  .....k.EK.......
0560: FF 7F 73 30 33 38 06 80  01 98 05 02 03 00 00 80  ..s038..........
0570: 00 87 05 45 4B 80 F0 FF  FF 7F F0 FF FF 7F 73 30  ...EK.........s0
0580: 33 39 06 80 01 98 05 45  4B 80 F0 FF FF 7F F0 FF  39.....EK.......
0590: FF 7F 73 30 34 38 06 80  27 10 F0 FF FF 7F 02 1C  ..s048..'.......
05A0: 50 80 7B 22 62 10 01 66  1A 80 22 62 10 01 22 62  P.{"b..f.."b.."b
05B0: 10 01 67 6B 72 30 27 10  F0 FF FF 7F 03 1C 20 80  ..gkr0'....... .
05C0: 2B 22 62 10 01 51 80 23  52 4B 80 F0 FF FF 7F F0  +"b..Q.#RK......
05D0: FF FF 7F 73 30 33 39 52  4B 80 F0 FF FF 7F F0 FF  ...s039RK.......
05E0: FF 7F 73 30 33 38 45 4B  80 F0 FF FF 7F F0 FF FF  ..s038EK........
05F0: 7F 73 30 34 30 06 80 2B  22 62 10 01 52 80 23 1C  .s040..+"b..R.#.
0600: 2E 80 66 1A 80 22 62 10  01 22 62 10 01 67 6B 72  ..f.."b.."b..gkr
0610: 31 79 00 22 62 10 01 F0  FF FF 7F 1C 02 80 52 4B  1y."b.........RK
0620: 80 F0 FF FF 7F F0 FF FF  7F 73 30 34 30 45 4B 80  .........s040EK.
0630: F0 FF FF 7F F0 FF FF 7F  73 30 34 31 06 80 BA 23  ........s041...#
0640: 62 10 01 53 80 54 80 55  80 56 80 4A 23 62 10 01  b..S.T.U.V.J#b..
0650: 22 62 10 01 1C 02 80 6E  22 62 10 01 57 80 99 22  "b.....n"b..W.."
0660: 62 10 01 1C 20 80 2B 22  62 10 01 58 80 23 4A F0  b... .+"b..X.#J.
0670: FF FF 7F 23 62 10 01 1C  20 80 52 4B 80 F0 FF FF  ...#b... .RK....
0680: 7F F0 FF FF 7F 73 30 34  31 1A CA 08 02 02 00 00  .....s041.......
0690: 80 00 A8 06 45 4B 80 F0  FF FF 7F F0 FF FF 7F 73  ....EK.........s
06A0: 30 34 32 06 80 01 D5 06  02 03 00 00 80 00 C4 06  042.............
06B0: 45 4B 80 F0 FF FF 7F F0  FF FF 7F 73 30 34 33 06  EK.........s043.
06C0: 80 01 D5 06 45 4B 80 F0  FF FF 7F F0 FF FF 7F 73  ....EK.........s
06D0: 30 34 39 06 80 6E F0 FF  FF 7F 59 80 99 F0 FF FF  049..n....Y.....
06E0: 7F 1C 32 80 52 4B 80 F0  FF FF 7F F0 FF FF 7F 73  ..2.RK.........s
06F0: 30 34 33 52 4B 80 F0 FF  FF 7F F0 FF FF 7F 73 30  043RK.........s0
0700: 34 32 45 4B 80 F0 FF FF  7F F0 FF FF 7F 73 30 34  42EK.........s04
0710: 34 06 80 1C 20 80 4A 22  62 10 01 23 62 10 01 6F  4... .J"b..#b..o
0720: 70 1C 35 80 5D 06 80 06  80 6E 22 62 10 01 1C 80  p.5.]....n"b....
0730: 99 22 62 10 01 2B 22 62  10 01 5A 80 23 5C 00 5B  ."b..+"b..Z.#\.[
0740: 80 5C 01 5B 80 5D 5C 80  0F 80 9A 1C 1A 80 27 10  .\.[.]\.......'.
0750: 22 62 10 01 0A 1C 5D 80  52 4B 80 F0 FF FF 7F F0  "b....].RK......
0760: FF FF 7F 73 30 34 34 45  4B 80 F0 FF FF 7F F0 FF  ...s044EK.......
0770: FF 7F 73 30 34 35 06 80  1C 20 80 2B 22 62 10 01  ..s045... .+"b..
0780: 5E 80 23 1C 5F 80 52 4B  80 F0 FF FF 7F F0 FF FF  ^.#._.RK........
0790: 7F 73 30 34 35 45 4B 80  F0 FF FF 7F F0 FF FF 7F  .s045EK.........
07A0: 73 30 34 37 06 80 2B 22  62 10 01 60 80 23 27 10  s047..+"b..`.#'.
07B0: 23 62 10 01 05 1C 20 80  52 4B 80 F0 FF FF 7F F0  #b.... .RK......
07C0: FF FF 7F 73 30 34 37 45  4B 80 F0 FF FF 7F F0 FF  ...s047EK.......
07D0: FF 7F 73 30 34 36 06 80  5D 06 80 0F 80 2B 22 62  ..s046..]....+"b
07E0: 10 01 61 80 1C 62 80 1A  7B 09 1C 20 80 52 4B 80  ..a..b..{.. .RK.
07F0: F0 FF FF 7F F0 FF FF 7F  73 30 34 36 5C 00 16 80  ........s046\...
0800: 5C 01 16 80 5C 02 3F 80  5C 03 3F 80 9A 5D 5C 80  \...\.?.\.?..]\.
0810: 0F 80 27 10 22 62 10 01  0B 1C 02 80 AB 11 06 80  ..'."b..........
0820: 1C 00 80 AB 0A 46 00 45  40 80 F0 FF FF 7F F0 FF  .....F.E@.......
0830: FF 7F 66 64 69 32 06 80  21 00                    ..fdi2..!.      
```

#### Opcodes

```
  0: 0x0431 [0x42] SET_CLI_EVENT_CANCEL_DATA()
  1: 0x0432 [0x1A] CALL_SUBROUTINE(address=0x097B)
  2: 0x0435 [0x46] CAMERA_CONTROL: Disable user control
  3: 0x0437 [0x38] SET_CLIENT_EVENT_MODE(mode=19*)
  4: 0x043A [0x27] REQ_SET(priority=0x10, entity_id=Unnamed NPC (ID: 17850914/0x01106222), tag_num=0x04)
  5: 0x0441 [0x29] REQ_SET_WAIT(priority=0x10, entity_id=Unnamed NPC (ID: 17850914/0x01106222), tag_num=0x09)
  6: 0x0448 [0x4E] SET_ENTITY_HIDE_FLAG: Show Insidio (ID: 17850915/0x01106223)
  7: 0x044E [0x92] Unnamed NPC (ID: 17850914/0x01106222)->Render.Flags3 ^= 0x01
  8: 0x0454 [0x92] Insidio (ID: 17850915/0x01106223)->Render.Flags3 ^= 0x01
  9: 0x045A [0x94] Unnamed NPC (ID: 17850914/0x01106222)->Render.Flags3 ^= 0x01
 10: 0x0460 [0x94] Insidio (ID: 17850915/0x01106223)->Render.Flags3 ^= 0x01
 11: 0x0466 [0xBA] SET_ENTITY_POSITION(entity_id=Unnamed NPC (ID: 17850914/0x01106222), pos_x=476.002*, pos_z=-396.847*, pos_y=0.000*, direction=93.9°*)
 12: 0x0473 [0xBA] SET_ENTITY_POSITION(entity_id=Insidio (ID: 17850915/0x01106223), pos_x=518.355*, pos_z=-394.665*, pos_y=-11.065*, direction=173.9°*)
 13: 0x0480 [0xBA] SET_ENTITY_POSITION(entity_id=LocalPlayer, pos_x=475.701*, pos_z=-392.188*, pos_y=0.000*, direction=70.0°*)
 14: 0x048D [0x4A] LocalPlayer looks at Unnamed NPC (ID: 17850914/0x01106222)
 15: 0x0496 [0x80] LOAD_WAIT(entity=Unnamed NPC (ID: 17850914/0x01106222))
 16: 0x049B [0x80] LOAD_WAIT(entity=Insidio (ID: 17850915/0x01106223))
 17: 0x04A0 [0x80] LOAD_WAIT(entity=LocalPlayer)
 18: 0x04A5 [0x27] REQ_SET(priority=0x10, entity_id=LocalPlayer, tag_num=0x0A)
 19: 0x04AC [0x5C] MUSIC_CONTROL: Set Idle (Day) music to song 61*
 20: 0x04B0 [0x5C] MUSIC_CONTROL: Set Idle (Night) music to song 61*
 21: 0x04B4 [0x5C] MUSIC_CONTROL: Set Combat (Solo) music to song 0*
 22: 0x04B8 [0x5C] MUSIC_CONTROL: Set Combat (Party) music to song 0*
 23: 0x04BC [0x9A] WAIT_MUSIC_SERVER()
 24: 0x04BD [0x45] LOAD_SCHEDULED_TASK: Load scheduler "s036" with entities [LocalPlayer, LocalPlayer], work=[613*, 0*]
 25: 0x04CE [0x1A] CALL_SUBROUTINE(address=0x095A)
 26: 0x04D1 [0x1C] WAIT(110* ticks)
 27: 0x04D4 [0x2B] Unnamed NPC (ID: 17850914/0x01106222) [7628*]:
    → "What sort of half-brained demon did you let possess-wess you!?"
 28: 0x04DB [0x23] WAIT_FOR_DIALOG_INTERACTION
 29: 0x04DC [0x1C] WAIT(20* ticks)
 30: 0x04DF [0x4A] Unnamed NPC (ID: 17850914/0x01106222) looks at LocalPlayer
 31: 0x04E8 [0x1C] WAIT(15* ticks)
 32: 0x04EB [0x52] END_LOAD_SCHEDULER: End scheduler "s036" with entities [LocalPlayer, LocalPlayer], work=613*
 33: 0x04FA [0x45] LOAD_SCHEDULED_TASK: Load scheduler "s037" with entities [LocalPlayer, LocalPlayer], work=[613*, 0*]
 34: 0x050B [0x1C] WAIT(70* ticks)
 35: 0x050E [0x66] LOAD_EXT_SCHEDULER_MAIN: Load scheduler "tlk0" with entities [Unnamed NPC (ID: 17850914/0x01106222), Unnamed NPC (ID: 17850914/0x01106222)], work=49*
 36: 0x051D [0x1C] WAIT(15* ticks)
 37: 0x0520 [0x2B] Unnamed NPC (ID: 17850914/0x01106222) [7629*]:
    → "This place is full of dangers and horrors too terrible-werrible of which to speak! Retreataru before there's less of you left than the glove you just picked up!"
 38: 0x0527 [0x23] WAIT_FOR_DIALOG_INTERACTION
 39: 0x0528 [0x1C] WAIT(30* ticks)
 40: 0x052B [0x66] LOAD_EXT_SCHEDULER_MAIN: Load scheduler "tlk1" with entities [Unnamed NPC (ID: 17850914/0x01106222), Unnamed NPC (ID: 17850914/0x01106222)], work=49*
 41: 0x053A [0x1C] WAIT(15* ticks)
 42: 0x053D [0x52] END_LOAD_SCHEDULER: End scheduler "s037" with entities [LocalPlayer, LocalPlayer], work=613*
 43: 0x054C [0x1A] CALL_SUBROUTINE(address=0x08CA)
 44: 0x054F [0x02] IF !(ExtData[1]->WorkLocal[2] == 1*) GOTO 0x056B
 45: 0x0557 [0x45] LOAD_SCHEDULED_TASK: Load scheduler "s038" with entities [LocalPlayer, LocalPlayer], work=[613*, 0*]
 46: 0x0568 [0x01] GOTO 0x0598
 47: 0x056B [0x02] IF !(ExtData[1]->WorkLocal[3] == 1*) GOTO 0x0587
 48: 0x0573 [0x45] LOAD_SCHEDULED_TASK: Load scheduler "s039" with entities [LocalPlayer, LocalPlayer], work=[613*, 0*]
 49: 0x0584 [0x01] GOTO 0x0598
 50: 0x0587 [0x45] LOAD_SCHEDULED_TASK: Load scheduler "s048" with entities [LocalPlayer, LocalPlayer], work=[613*, 0*]

SUBROUTINE_0598:
 51: 0x0598 [0x27] REQ_SET(priority=0x10, entity_id=LocalPlayer, tag_num=0x02)
 52: 0x059F [0x1C] WAIT(95* ticks)
 53: 0x05A2 [0x7B] Unnamed NPC (ID: 17850914/0x01106222) stops talking
 54: 0x05A7 [0x66] LOAD_EXT_SCHEDULER_MAIN: Load scheduler "gkr0" with entities [Unnamed NPC (ID: 17850914/0x01106222), Unnamed NPC (ID: 17850914/0x01106222)], work=40*
 55: 0x05B6 [0x27] REQ_SET(priority=0x10, entity_id=LocalPlayer, tag_num=0x03)
 56: 0x05BD [0x1C] WAIT(30* ticks)
 57: 0x05C0 [0x2B] Unnamed NPC (ID: 17850914/0x01106222) [7630*]:
    → "Urk... So, you've witnessed it...the pathos of a traitor who dared violataru the most sacred of familial writs."
 58: 0x05C7 [0x23] WAIT_FOR_DIALOG_INTERACTION
 59: 0x05C8 [0x52] END_LOAD_SCHEDULER: End scheduler "s039" with entities [LocalPlayer, LocalPlayer], work=613*
 60: 0x05D7 [0x52] END_LOAD_SCHEDULER: End scheduler "s038" with entities [LocalPlayer, LocalPlayer], work=613*
 61: 0x05E6 [0x45] LOAD_SCHEDULED_TASK: Load scheduler "s040" with entities [LocalPlayer, LocalPlayer], work=[613*, 0*]
 62: 0x05F7 [0x2B] Unnamed NPC (ID: 17850914/0x01106222) [7631*]:
    → "Yes... The Zurk's committed unspeakable-weakable crimes for which he must forever atone."
 63: 0x05FE [0x23] WAIT_FOR_DIALOG_INTERACTION
 64: 0x05FF [0x1C] WAIT(45* ticks)
 65: 0x0602 [0x66] LOAD_EXT_SCHEDULER_MAIN: Load scheduler "gkr1" with entities [Unnamed NPC (ID: 17850914/0x01106222), Unnamed NPC (ID: 17850914/0x01106222)], work=40*
 66: 0x0611 [0x79] Unnamed NPC (ID: 17850914/0x01106222) looks at LocalPlayer (Basic look)
 67: 0x061B [0x1C] WAIT(15* ticks)
 68: 0x061E [0x52] END_LOAD_SCHEDULER: End scheduler "s040" with entities [LocalPlayer, LocalPlayer], work=613*
 69: 0x062D [0x45] LOAD_SCHEDULED_TASK: Load scheduler "s041" with entities [LocalPlayer, LocalPlayer], work=[613*, 0*]
 70: 0x063E [0xBA] SET_ENTITY_POSITION(entity_id=Insidio (ID: 17850915/0x01106223), pos_x=484.065*, pos_z=-408.156*, pos_y=0.300*, direction=231.3°*)
 71: 0x064B [0x4A] Insidio (ID: 17850915/0x01106223) looks at Unnamed NPC (ID: 17850914/0x01106222)
 72: 0x0654 [0x1C] WAIT(15* ticks)
 73: 0x0657 [0x6E] Unnamed NPC (ID: 17850914/0x01106222) uses emote 6*
 74: 0x065E [0x99] Wait for Unnamed NPC (ID: 17850914/0x01106222) animation to complete
 75: 0x0663 [0x1C] WAIT(30* ticks)
 76: 0x0666 [0x2B] Unnamed NPC (ID: 17850914/0x01106222) [7632*]:
    → "He cannot even find solace in a scapegoat or straw man, for the totality of blame falls solely upon him. If only this rune were not cursed so!"
 77: 0x066D [0x23] WAIT_FOR_DIALOG_INTERACTION
 78: 0x066E [0x4A] LocalPlayer looks at Insidio (ID: 17850915/0x01106223)
 79: 0x0677 [0x1C] WAIT(30* ticks)
 80: 0x067A [0x52] END_LOAD_SCHEDULER: End scheduler "s041" with entities [LocalPlayer, LocalPlayer], work=613*
 81: 0x0689 [0x1A] CALL_SUBROUTINE(address=0x08CA)
 82: 0x068C [0x02] IF !(ExtData[1]->WorkLocal[2] == 1*) GOTO 0x06A8
 83: 0x0694 [0x45] LOAD_SCHEDULED_TASK: Load scheduler "s042" with entities [LocalPlayer, LocalPlayer], work=[613*, 0*]
 84: 0x06A5 [0x01] GOTO 0x06D5
 85: 0x06A8 [0x02] IF !(ExtData[1]->WorkLocal[3] == 1*) GOTO 0x06C4
 86: 0x06B0 [0x45] LOAD_SCHEDULED_TASK: Load scheduler "s043" with entities [LocalPlayer, LocalPlayer], work=[613*, 0*]
 87: 0x06C1 [0x01] GOTO 0x06D5
 88: 0x06C4 [0x45] LOAD_SCHEDULED_TASK: Load scheduler "s049" with entities [LocalPlayer, LocalPlayer], work=[613*, 0*]

SUBROUTINE_06D5:
 89: 0x06D5 [0x6E] LocalPlayer uses emote 29*
 90: 0x06DC [0x99] Wait for LocalPlayer animation to complete
 91: 0x06E1 [0x1C] WAIT(75* ticks)
 92: 0x06E4 [0x52] END_LOAD_SCHEDULER: End scheduler "s043" with entities [LocalPlayer, LocalPlayer], work=613*
 93: 0x06F3 [0x52] END_LOAD_SCHEDULER: End scheduler "s042" with entities [LocalPlayer, LocalPlayer], work=613*
 94: 0x0702 [0x45] LOAD_SCHEDULED_TASK: Load scheduler "s044" with entities [LocalPlayer, LocalPlayer], work=[613*, 0*]
 95: 0x0713 [0x1C] WAIT(30* ticks)
 96: 0x0716 [0x4A] Unnamed NPC (ID: 17850914/0x01106222) looks at Insidio (ID: 17850915/0x01106223)
 97: 0x071F [0x6F] WAIT_FRAME_DELAY: Yield until WaitTime reaches zero
 98: 0x0720 [0x70] WAIT_ENTITY_RENDER_FLAG: Wait while EventEntity->Render.Flags3 bit 2 is set (cancel turn if not)
 99: 0x0721 [0x1C] WAIT(20* ticks)
100: 0x0724 [0x5D] SET_MUSIC_VOLUME(volume=0*, fade_time=0*)
101: 0x0729 [0x6E] Unnamed NPC (ID: 17850914/0x01106222) uses emote 21*
102: 0x0730 [0x99] Wait for Unnamed NPC (ID: 17850914/0x01106222) animation to complete
103: 0x0735 [0x2B] Unnamed NPC (ID: 17850914/0x01106222) [7633*]:
    → "Wha... Uh... Ack..."
104: 0x073C [0x23] WAIT_FOR_DIALOG_INTERACTION
105: 0x073D [0x5C] MUSIC_CONTROL: Set Idle (Day) music to song 170*
106: 0x0741 [0x5C] MUSIC_CONTROL: Set Idle (Night) music to song 170*
107: 0x0745 [0x5D] SET_MUSIC_VOLUME(volume=127*, fade_time=120*)
108: 0x074A [0x9A] WAIT_MUSIC_SERVER()
109: 0x074B [0x1C] WAIT(40* ticks)
110: 0x074E [0x27] REQ_SET(priority=0x10, entity_id=Unnamed NPC (ID: 17850914/0x01106222), tag_num=0x0A)
111: 0x0755 [0x1C] WAIT(105* ticks)
112: 0x0758 [0x52] END_LOAD_SCHEDULER: End scheduler "s044" with entities [LocalPlayer, LocalPlayer], work=613*
113: 0x0767 [0x45] LOAD_SCHEDULED_TASK: Load scheduler "s045" with entities [LocalPlayer, LocalPlayer], work=[613*, 0*]
114: 0x0778 [0x1C] WAIT(30* ticks)
115: 0x077B [0x2B] Unnamed NPC (ID: 17850914/0x01106222) [7634*]:
    → "Harken, legs...! Attention, arms! The Zurk begs of you, synchronize your movementarus like you've done countless times before and carry him to safety!"
116: 0x0782 [0x23] WAIT_FOR_DIALOG_INTERACTION
117: 0x0783 [0x1C] WAIT(190* ticks)
118: 0x0786 [0x52] END_LOAD_SCHEDULER: End scheduler "s045" with entities [LocalPlayer, LocalPlayer], work=613*
119: 0x0795 [0x45] LOAD_SCHEDULED_TASK: Load scheduler "s047" with entities [LocalPlayer, LocalPlayer], work=[613*, 0*]
120: 0x07A6 [0x2B] Unnamed NPC (ID: 17850914/0x01106222) [7635*]:
    → "Ha, hahaha... To think that the Zurk would be less useful than a wingless tulfaire at the deciding-widing moment..."
121: 0x07AD [0x23] WAIT_FOR_DIALOG_INTERACTION
122: 0x07AE [0x27] REQ_SET(priority=0x10, entity_id=Insidio (ID: 17850915/0x01106223), tag_num=0x05)
123: 0x07B5 [0x1C] WAIT(30* ticks)
124: 0x07B8 [0x52] END_LOAD_SCHEDULER: End scheduler "s047" with entities [LocalPlayer, LocalPlayer], work=613*
125: 0x07C7 [0x45] LOAD_SCHEDULED_TASK: Load scheduler "s046" with entities [LocalPlayer, LocalPlayer], work=[613*, 0*]
126: 0x07D8 [0x5D] SET_MUSIC_VOLUME(volume=0*, fade_time=120*)
127: 0x07DD [0x2B] Unnamed NPC (ID: 17850914/0x01106222) [7636*]:
    → "<Player>...departaru at once, while you still have your life!"
128: 0x07E4 [0x1C] WAIT(180* ticks)
129: 0x07E7 [0x1A] CALL_SUBROUTINE(address=0x097B)
130: 0x07EA [0x1C] WAIT(30* ticks)
131: 0x07ED [0x52] END_LOAD_SCHEDULER: End scheduler "s046" with entities [LocalPlayer, LocalPlayer], work=613*
132: 0x07FC [0x5C] MUSIC_CONTROL: Set Idle (Day) music to song 60*
133: 0x0800 [0x5C] MUSIC_CONTROL: Set Idle (Night) music to song 60*
134: 0x0804 [0x5C] MUSIC_CONTROL: Set Combat (Solo) music to song 57*
135: 0x0808 [0x5C] MUSIC_CONTROL: Set Combat (Party) music to song 57*
136: 0x080C [0x9A] WAIT_MUSIC_SERVER()
137: 0x080D [0x5D] SET_MUSIC_VOLUME(volume=127*, fade_time=120*)
138: 0x0812 [0x27] REQ_SET(priority=0x10, entity_id=Unnamed NPC (ID: 17850914/0x01106222), tag_num=0x0B)
139: 0x0819 [0x1C] WAIT(15* ticks)
140: 0x081C [0xAB] EventEntity->DespawnValue = 0* // Set despawn value
141: 0x0820 [0x1C] WAIT(1* ticks)
142: 0x0823 [0xAB] EventEntity->UnknownFlag = 0 // Disable unknown flag
143: 0x0825 [0x46] CAMERA_CONTROL: Restore default settings
144: 0x0827 [0x45] LOAD_SCHEDULED_TASK: Load scheduler "fdi2" with entities [LocalPlayer, LocalPlayer], work=[200*, 0*]
145: 0x0838 [0x21] END_EVENT
146: 0x0839 [0x00] END_REQSTACK()
```

### Event 515

#### Metadata

| Field        | Value     |
|--------------|-----------|
| Entrypoint   | 0x083A    |
| Data Size    | 879 bytes |
| Instructions | 30        |

```
      00 01 02 03 04 05 06 07  08 09 0A 0B 0C 0D 0E 0F
      -- -- -- -- -- -- -- --  -- -- -- -- -- -- -- --
0830:                                42 1A 7B 09 5D 06            B.{.].
0840: 80 0F 80 46 01 38 01 80  4E 01 F0 FF FF 7F 80 F0  ...F.8..N.......
0850: FF FF 7F 45 0C 80 F0 FF  FF 7F F0 FF FF 7F 73 30  ...E..........s0
0860: 31 35 06 80 1A 5A 09 48  63 80 23 1C 20 80 1A 7B  15...Z.Hc.#. ..{
0870: 09 1C 20 80 52 0C 80 F0  FF FF 7F F0 FF FF 7F 73  .. .R..........s
0880: 30 31 35 5D 5C 80 0F 80  1C 02 80 AB 11 06 80 1C  015]\...........
0890: 00 80 AB 0A 46 00 45 40  80 F0 FF FF 7F F0 FF FF  ....F.E@........
08A0: 7F 66 64 69 32 06 80 21  00 45 64 80 F0 FF FF 7F  .fdi2..!.Ed.....
08B0: F0 FF FF 7F 30 30 62 6C  06 80 55 64 80 F0 FF FF  ....00bl..Ud....
08C0: 7F F0 FF FF 7F 30 30 62  6C 1B 29 10 F0 FF FF 7F  .....00bl.).....
08D0: 0B 02 02 10 65 80 80 DF  08 05 02 00 01 17 09 02  ....e...........
08E0: 02 10 3C 80 80 ED 08 05  02 00 01 17 09 02 02 10  ..<.............
08F0: 3A 80 80 FB 08 05 03 00  01 17 09 02 02 10 57 80  :.............W.
0900: 80 09 09 05 03 00 01 17  09 02 02 10 3B 80 80 17  ............;...
0910: 09 05 02 00 01 17 09 1B  45 40 80 F0 FF FF 7F F0  ........E@......
0920: FF FF 7F 66 64 69 30 06  80 55 40 80 F0 FF FF 7F  ...fdi0..U@.....
0930: F0 FF FF 7F 66 64 69 30  1B 45 40 80 F0 FF FF 7F  ....fdi0.E@.....
0940: F0 FF FF 7F 66 64 6F 30  06 80 55 40 80 F0 FF FF  ....fdo0..U@....
0950: 7F F0 FF FF 7F 66 64 6F  30 1B 45 40 80 F0 FF FF  .....fdo0.E@....
0960: 7F F0 FF FF 7F 66 64 69  31 06 80 55 40 80 F0 FF  .....fdi1..U@...
0970: FF 7F F0 FF FF 7F 66 64  69 31 1B 45 40 80 F0 FF  ......fdi1.E@...
0980: FF 7F F0 FF FF 7F 66 64  6F 31 06 80 55 40 80 F0  ......fdo1..U@..
0990: FF FF 7F F0 FF FF 7F 66  64 6F 31 1B 45 66 80 F0  .......fdo1.Ef..
09A0: FF FF 7F F0 FF FF 7F 77  68 69 31 06 80 55 66 80  .......whi1..Uf.
09B0: F0 FF FF 7F F0 FF FF 7F  77 68 69 31 1B 45 66 80  ........whi1.Ef.
09C0: F0 FF FF 7F F0 FF FF 7F  77 68 6F 31 06 80 55 66  ........who1..Uf
09D0: 80 F0 FF FF 7F F0 FF FF  7F 77 68 6F 31 1B 45 66  .........who1.Ef
09E0: 80 F0 FF FF 7F F0 FF FF  7F 77 68 6F 32 06 80 55  .........who2..U
09F0: 66 80 F0 FF FF 7F F0 FF  FF 7F 77 68 6F 32 1B 45  f.........who2.E
0A00: 66 80 F0 FF FF 7F F0 FF  FF 7F 77 68 6F 33 06 80  f.........who3..
0A10: 55 66 80 F0 FF FF 7F F0  FF FF 7F 77 68 6F 33 1B  Uf.........who3.
0A20: 62 00 80 F0 FF FF 7F F0  FF FF 7F 6D 61 69 6E 06  b..........main.
0A30: 80 1C 2E 80 45 40 80 F0  FF FF 7F F0 FF FF 7F 66  ....E@.........f
0A40: 64 6F 31 06 80 55 40 80  F0 FF FF 7F F0 FF FF 7F  do1..U@.........
0A50: 66 64 6F 31 1B 45 40 80  F0 FF FF 7F F0 FF FF 7F  fdo1.E@.........
0A60: 66 64 69 31 06 80 62 67  80 F0 FF FF 7F F0 FF FF  fdi1..bg........
0A70: 7F 6D 61 69 6E 06 80 1C  20 80 55 40 80 F0 FF FF  .main... .U@....
0A80: 7F F0 FF FF 7F 66 64 69  31 1B 45 40 80 F0 FF FF  .....fdi1.E@....
0A90: 7F F0 FF FF 7F 62 6C 6F  6E 06 80 45 66 80 F0 FF  .....blon..Ef...
0AA0: FF 7F F0 FF FF 7F 62 6C  6F 6E 06 80 1B 45 66 80  ......blon...Ef.
0AB0: F0 FF FF 7F F0 FF FF 7F  77 68 69 30 06 80 55 66  ........whi0..Uf
0AC0: 80 F0 FF FF 7F F0 FF FF  7F 77 68 69 30 1B 45 66  .........whi0.Ef
0AD0: 80 F0 FF FF 7F F0 FF FF  7F 77 68 6F 30 06 80 55  .........who0..U
0AE0: 66 80 F0 FF FF 7F F0 FF  FF 7F 77 68 6F 30 1B 45  f.........who0.E
0AF0: 68 80 F0 FF FF 7F F0 FF  FF 7F 65 66 6F 6E 06 80  h.........efon..
0B00: 55 68 80 F0 FF FF 7F F0  FF FF 7F 65 66 6F 6E 1B  Uh.........efon.
0B10: 45 40 80 F0 FF FF 7F F0  FF FF 7F 66 64 69 73 06  E@.........fdis.
0B20: 80 1B 45 40 80 F0 FF FF  7F F0 FF FF 7F 66 64 6F  ..E@.........fdo
0B30: 73 06 80 55 40 80 F0 FF  FF 7F F0 FF FF 7F 66 64  s..U@.........fd
0B40: 6F 73 1B 45 40 80 F0 FF  FF 7F F0 FF FF 7F 66 64  os.E@.........fd
0B50: 69 66 06 80 1B 45 40 80  F0 FF FF 7F F0 FF FF 7F  if...E@.........
0B60: 66 64 6F 66 06 80 55 40  80 F0 FF FF 7F F0 FF FF  fdof..U@........
0B70: 7F 66 64 6F 66 1B 45 40  80 F0 FF FF 7F F0 FF FF  .fdof.E@........
0B80: 7F 66 64 69 70 06 80 1B  45 40 80 F0 FF FF 7F F0  .fdip...E@......
0B90: FF FF 7F 66 64 6F 70 06  80 55 40 80 F0 FF FF 7F  ...fdop..U@.....
0BA0: F0 FF FF 7F 66 64 6F 70  1B                       ....fdop.       
```

#### Opcodes

```
  0: 0x083A [0x42] SET_CLI_EVENT_CANCEL_DATA()
  1: 0x083B [0x1A] CALL_SUBROUTINE(address=0x097B)
  2: 0x083E [0x5D] SET_MUSIC_VOLUME(volume=0*, fade_time=120*)
  3: 0x0843 [0x46] CAMERA_CONTROL: Disable user control
  4: 0x0845 [0x38] SET_CLIENT_EVENT_MODE(mode=19*)
  5: 0x0848 [0x4E] SET_ENTITY_HIDE_FLAG: Hide LocalPlayer
  6: 0x084E [0x80] LOAD_WAIT(entity=LocalPlayer)
  7: 0x0853 [0x45] LOAD_SCHEDULED_TASK: Load scheduler "s015" with entities [LocalPlayer, LocalPlayer], work=[612*, 0*]
  8: 0x0864 [0x1A] CALL_SUBROUTINE(address=0x095A)
  9: 0x0867 [0x48] [System] [7637*]:
    → "Zurko-Bazurko ran off into the ravine's meandering labyrinth and is nowhere to be seen."
 10: 0x086A [0x23] WAIT_FOR_DIALOG_INTERACTION
 11: 0x086B [0x1C] WAIT(30* ticks)
 12: 0x086E [0x1A] CALL_SUBROUTINE(address=0x097B)
 13: 0x0871 [0x1C] WAIT(30* ticks)
 14: 0x0874 [0x52] END_LOAD_SCHEDULER: End scheduler "s015" with entities [LocalPlayer, LocalPlayer], work=612*
 15: 0x0883 [0x5D] SET_MUSIC_VOLUME(volume=127*, fade_time=120*)
 16: 0x0888 [0x1C] WAIT(15* ticks)
 17: 0x088B [0xAB] EventEntity->DespawnValue = 0* // Set despawn value
 18: 0x088F [0x1C] WAIT(1* ticks)
 19: 0x0892 [0xAB] EventEntity->UnknownFlag = 0 // Disable unknown flag
 20: 0x0894 [0x46] CAMERA_CONTROL: Restore default settings
 21: 0x0896 [0x45] LOAD_SCHEDULED_TASK: Load scheduler "fdi2" with entities [LocalPlayer, LocalPlayer], work=[200*, 0*]
 22: 0x08A7 [0x21] END_EVENT
 23: 0x08A8 [0x00] END_REQSTACK()

SUBROUTINE_095A:
 24: 0x095A [0x45] LOAD_SCHEDULED_TASK: Load scheduler "fdi1" with entities [LocalPlayer, LocalPlayer], work=[200*, 0*]
 25: 0x096B [0x55] WAIT_LOAD_SCHEDULER: Wait for scheduler "fdi1" with entities [LocalPlayer, LocalPlayer], work=200*
 26: 0x097A [0x1B] RETURN

SUBROUTINE_097B:
 27: 0x097B [0x45] LOAD_SCHEDULED_TASK: Load scheduler "fdo1" with entities [LocalPlayer, LocalPlayer], work=[200*, 0*]
 28: 0x098C [0x55] WAIT_LOAD_SCHEDULER: Wait for scheduler "fdo1" with entities [LocalPlayer, LocalPlayer], work=200*
 29: 0x099B [0x1B] RETURN
```

#### Data or dead code:

```
# Dead code (unreachable instructions):
     0x08A9 [0x45] LOAD_SCHEDULED_TASK: Load scheduler "00bl" with entities [LocalPlayer, LocalPlayer], work=[610*, 0*]
     0x08BA [0x55] WAIT_LOAD_SCHEDULER: Wait for scheduler "00bl" with entities [LocalPlayer, LocalPlayer], work=610*
     0x08C9 [0x1B] RETURN
     0x08CA [0x29] REQ_SET_WAIT(priority=0x10, entity_id=LocalPlayer, tag_num=0x0B)
     0x08D1 [0x02] IF !(Work_Zone[2] == 3*) GOTO 0x08DF
     0x08D9 [0x05] ExtData[1]->WorkLocal[2] = 1
     0x08DC [0x01] GOTO 0x0917
     0x08DF [0x02] IF !(Work_Zone[2] == 4*) GOTO 0x08ED
     0x08E7 [0x05] ExtData[1]->WorkLocal[2] = 1
     0x08EA [0x01] GOTO 0x0917
     0x08ED [0x02] IF !(Work_Zone[2] == 5*) GOTO 0x08FB
     0x08F5 [0x05] ExtData[1]->WorkLocal[3] = 1
     0x08F8 [0x01] GOTO 0x0917
     0x08FB [0x02] IF !(Work_Zone[2] == 6*) GOTO 0x0909
     0x0903 [0x05] ExtData[1]->WorkLocal[3] = 1
     0x0906 [0x01] GOTO 0x0917
     0x0909 [0x02] IF !(Work_Zone[2] == 8*) GOTO 0x0917
     0x0911 [0x05] ExtData[1]->WorkLocal[2] = 1
     0x0914 [0x01] GOTO 0x0917
     0x0917 [0x1B] RETURN
     0x0918 [0x45] LOAD_SCHEDULED_TASK: Load scheduler "fdi0" with entities [LocalPlayer, LocalPlayer], work=[200*, 0*]
     0x0929 [0x55] WAIT_LOAD_SCHEDULER: Wait for scheduler "fdi0" with entities [LocalPlayer, LocalPlayer], work=200*
     0x0938 [0x1B] RETURN
     0x0939 [0x45] LOAD_SCHEDULED_TASK: Load scheduler "fdo0" with entities [LocalPlayer, LocalPlayer], work=[200*, 0*]
     0x094A [0x55] WAIT_LOAD_SCHEDULER: Wait for scheduler "fdo0" with entities [LocalPlayer, LocalPlayer], work=200*
     0x0959 [0x1B] RETURN
# Dead code (unreachable instructions):
     0x099C [0x45] LOAD_SCHEDULED_TASK: Load scheduler "whi1" with entities [LocalPlayer, LocalPlayer], work=[201*, 0*]
     0x09AD [0x55] WAIT_LOAD_SCHEDULER: Wait for scheduler "whi1" with entities [LocalPlayer, LocalPlayer], work=201*
     0x09BC [0x1B] RETURN
     0x09BD [0x45] LOAD_SCHEDULED_TASK: Load scheduler "who1" with entities [LocalPlayer, LocalPlayer], work=[201*, 0*]
     0x09CE [0x55] WAIT_LOAD_SCHEDULER: Wait for scheduler "who1" with entities [LocalPlayer, LocalPlayer], work=201*
     0x09DD [0x1B] RETURN
     0x09DE [0x45] LOAD_SCHEDULED_TASK: Load scheduler "who2" with entities [LocalPlayer, LocalPlayer], work=[201*, 0*]
     0x09EF [0x55] WAIT_LOAD_SCHEDULER: Wait for scheduler "who2" with entities [LocalPlayer, LocalPlayer], work=201*
     0x09FE [0x1B] RETURN
     0x09FF [0x45] LOAD_SCHEDULED_TASK: Load scheduler "who3" with entities [LocalPlayer, LocalPlayer], work=[201*, 0*]
     0x0A10 [0x55] WAIT_LOAD_SCHEDULER: Wait for scheduler "who3" with entities [LocalPlayer, LocalPlayer], work=201*
     0x0A1F [0x1B] RETURN
     0x0A20 [0x62] LOAD_EVENT_SCHEDULER: Load scheduler "main" with entities [LocalPlayer, LocalPlayer], work=[1*, 0*]
     0x0A31 [0x1C] WAIT(45* ticks)
     0x0A34 [0x45] LOAD_SCHEDULED_TASK: Load scheduler "fdo1" with entities [LocalPlayer, LocalPlayer], work=[200*, 0*]
     0x0A45 [0x55] WAIT_LOAD_SCHEDULER: Wait for scheduler "fdo1" with entities [LocalPlayer, LocalPlayer], work=200*
     0x0A54 [0x1B] RETURN
     0x0A55 [0x45] LOAD_SCHEDULED_TASK: Load scheduler "fdi1" with entities [LocalPlayer, LocalPlayer], work=[200*, 0*]
     0x0A66 [0x62] LOAD_EVENT_SCHEDULER: Load scheduler "main" with entities [LocalPlayer, LocalPlayer], work=[2*, 0*]
     0x0A77 [0x1C] WAIT(30* ticks)
     0x0A7A [0x55] WAIT_LOAD_SCHEDULER: Wait for scheduler "fdi1" with entities [LocalPlayer, LocalPlayer], work=200*
     0x0A89 [0x1B] RETURN
     0x0A8A [0x45] LOAD_SCHEDULED_TASK: Load scheduler "blon" with entities [LocalPlayer, LocalPlayer], work=[200*, 0*]
     0x0A9B [0x45] LOAD_SCHEDULED_TASK: Load scheduler "blon" with entities [LocalPlayer, LocalPlayer], work=[201*, 0*]
     0x0AAC [0x1B] RETURN
     0x0AAD [0x45] LOAD_SCHEDULED_TASK: Load scheduler "whi0" with entities [LocalPlayer, LocalPlayer], work=[201*, 0*]
     0x0ABE [0x55] WAIT_LOAD_SCHEDULER: Wait for scheduler "whi0" with entities [LocalPlayer, LocalPlayer], work=201*
     0x0ACD [0x1B] RETURN
     0x0ACE [0x45] LOAD_SCHEDULED_TASK: Load scheduler "who0" with entities [LocalPlayer, LocalPlayer], work=[201*, 0*]
     0x0ADF [0x55] WAIT_LOAD_SCHEDULER: Wait for scheduler "who0" with entities [LocalPlayer, LocalPlayer], work=201*
     0x0AEE [0x1B] RETURN
     0x0AEF [0x45] LOAD_SCHEDULED_TASK: Load scheduler "efon" with entities [LocalPlayer, LocalPlayer], work=[215*, 0*]
     0x0B00 [0x55] WAIT_LOAD_SCHEDULER: Wait for scheduler "efon" with entities [LocalPlayer, LocalPlayer], work=215*
     0x0B0F [0x1B] RETURN
     0x0B10 [0x45] LOAD_SCHEDULED_TASK: Load scheduler "fdis" with entities [LocalPlayer, LocalPlayer], work=[200*, 0*]
     0x0B21 [0x1B] RETURN
     0x0B22 [0x45] LOAD_SCHEDULED_TASK: Load scheduler "fdos" with entities [LocalPlayer, LocalPlayer], work=[200*, 0*]
     0x0B33 [0x55] WAIT_LOAD_SCHEDULER: Wait for scheduler "fdos" with entities [LocalPlayer, LocalPlayer], work=200*
     0x0B42 [0x1B] RETURN
     0x0B43 [0x45] LOAD_SCHEDULED_TASK: Load scheduler "fdif" with entities [LocalPlayer, LocalPlayer], work=[200*, 0*]
     0x0B54 [0x1B] RETURN
     0x0B55 [0x45] LOAD_SCHEDULED_TASK: Load scheduler "fdof" with entities [LocalPlayer, LocalPlayer], work=[200*, 0*]
     0x0B66 [0x55] WAIT_LOAD_SCHEDULER: Wait for scheduler "fdof" with entities [LocalPlayer, LocalPlayer], work=200*
     0x0B75 [0x1B] RETURN
     0x0B76 [0x45] LOAD_SCHEDULED_TASK: Load scheduler "fdip" with entities [LocalPlayer, LocalPlayer], work=[200*, 0*]
     0x0B87 [0x1B] RETURN
     0x0B88 [0x45] LOAD_SCHEDULED_TASK: Load scheduler "fdop" with entities [LocalPlayer, LocalPlayer], work=[200*, 0*]
     0x0B99 [0x55] WAIT_LOAD_SCHEDULER: Wait for scheduler "fdop" with entities [LocalPlayer, LocalPlayer], work=200*
     0x0BA8 [0x1B] RETURN
```
