# 17850937

## Common Data

| Field            | Value                        |
|------------------|------------------------------|
| Zone             | Foret de Hennetiel (ID: 262) |
| Block Size       | 148 bytes                    |
| Total Events     | 8                            |
| References Count | 12                           |

## List of Events

| Event ID                 | Entrypoint   |   Size |   Instructions |
|--------------------------|--------------|--------|----------------|
| [65535](#event-65535)    | 0x0000       |      1 |              1 |
| [18](#event-18)          | 0x0001       |      1 |              1 |
| [65535.1](#event-655351) | 0x0002       |     14 |              4 |
| [65535.2](#event-655352) | 0x0010       |      3 |              2 |
| [2006](#event-2006)      | 0x0013       |      1 |              1 |
| [65535.3](#event-655353) | 0x0014       |     14 |              4 |
| [2007](#event-2007)      | 0x0022       |      1 |              1 |
| [65535.4](#event-655354) | 0x0023       |     14 |              4 |

## DAT References (imed_data)

|   Index | Hex Value   |   Dec Value |
|---------|-------------|-------------|
|       0 | 0xFFFFC650  |  4294952528 |
|       1 | 0xE82C      |       59436 |
|       2 | 0x0000      |           0 |
|       3 | 0x0200      |         512 |
|       4 | 0xFFFD3EDD  |  4294786781 |
|       5 | 0xFFFC1EE7  |  4294713063 |
|       6 | 0xFFFFFF8F  |  4294967183 |
|       7 | 0x0FED      |        4077 |
|       8 | 0xFFFE753D  |  4294866237 |
|       9 | 0xFFFABA4E  |  4294621774 |
|      10 | 0xFFFFFFFC  |  4294967292 |
|      11 | 0x07C1      |        1985 |

## Events

### Event 65535

#### Metadata

| Field        | Value   |
|--------------|---------|
| Entrypoint   | 0x0000  |
| Data Size    | 1 bytes |
| Instructions | 1       |

```
      00 01 02 03 04 05 06 07  08 09 0A 0B 0C 0D 0E 0F
      -- -- -- -- -- -- -- --  -- -- -- -- -- -- -- --
0000: 00                                                .               
```

#### Opcodes

```
  0: 0x0000 [0x00] END_REQSTACK()
```

### Event 18

#### Metadata

| Field        | Value   |
|--------------|---------|
| Entrypoint   | 0x0001  |
| Data Size    | 1 bytes |
| Instructions | 1       |

```
      00 01 02 03 04 05 06 07  08 09 0A 0B 0C 0D 0E 0F
      -- -- -- -- -- -- -- --  -- -- -- -- -- -- -- --
0000:    00                                              .              
```

#### Opcodes

```
  0: 0x0001 [0x00] END_REQSTACK()
```

### Event 65535.1

#### Metadata

| Field        | Value    |
|--------------|----------|
| Entrypoint   | 0x0002   |
| Data Size    | 14 bytes |
| Instructions | 4        |

```
      00 01 02 03 04 05 06 07  08 09 0A 0B 0C 0D 0E 0F
      -- -- -- -- -- -- -- --  -- -- -- -- -- -- -- --
0000:       22 00 37 00 80 01  80 02 80 03 80 A5 01 00    ".7...........
```

#### Opcodes

```
  0: 0x0002 [0x22] ENTITY_HIDE_FLAG(enabled=0x00)
  1: 0x0004 [0x37] UPDATE_EVENT_POSITION_AND_DIR: x=-14.768*, z=59.436*, y=0.000*, direction=45.0°*
  2: 0x000D [0xA5] EventEntity->Flags3.BallistaTeam |= 0x08  // Set bit 3 of BallistaTeam
  3: 0x000F [0x00] END_REQSTACK()
```

### Event 65535.2

#### Metadata

| Field        | Value   |
|--------------|---------|
| Entrypoint   | 0x0010  |
| Data Size    | 3 bytes |
| Instructions | 2       |

```
      00 01 02 03 04 05 06 07  08 09 0A 0B 0C 0D 0E 0F
      -- -- -- -- -- -- -- --  -- -- -- -- -- -- -- --
0010: 22 01 00                                          "..             
```

#### Opcodes

```
  0: 0x0010 [0x22] ENTITY_HIDE_FLAG(enabled=0x01)
  1: 0x0012 [0x00] END_REQSTACK()
```

### Event 2006

#### Metadata

| Field        | Value   |
|--------------|---------|
| Entrypoint   | 0x0013  |
| Data Size    | 1 bytes |
| Instructions | 1       |

```
      00 01 02 03 04 05 06 07  08 09 0A 0B 0C 0D 0E 0F
      -- -- -- -- -- -- -- --  -- -- -- -- -- -- -- --
0010:          00                                          .            
```

#### Opcodes

```
  0: 0x0013 [0x00] END_REQSTACK()
```

### Event 65535.3

#### Metadata

| Field        | Value    |
|--------------|----------|
| Entrypoint   | 0x0014   |
| Data Size    | 14 bytes |
| Instructions | 4        |

```
      00 01 02 03 04 05 06 07  08 09 0A 0B 0C 0D 0E 0F
      -- -- -- -- -- -- -- --  -- -- -- -- -- -- -- --
0010:             22 00 37 04  80 05 80 06 80 07 80 A5      ".7.........
0020: 01 00                                             ..              
```

#### Opcodes

```
  0: 0x0014 [0x22] ENTITY_HIDE_FLAG(enabled=0x00)
  1: 0x0016 [0x37] UPDATE_EVENT_POSITION_AND_DIR: x=-180.515*, z=-254.233*, y=-0.113*, direction=358.3°*
  2: 0x001F [0xA5] EventEntity->Flags3.BallistaTeam |= 0x08  // Set bit 3 of BallistaTeam
  3: 0x0021 [0x00] END_REQSTACK()
```

### Event 2007

#### Metadata

| Field        | Value   |
|--------------|---------|
| Entrypoint   | 0x0022  |
| Data Size    | 1 bytes |
| Instructions | 1       |

```
      00 01 02 03 04 05 06 07  08 09 0A 0B 0C 0D 0E 0F
      -- -- -- -- -- -- -- --  -- -- -- -- -- -- -- --
0020:       00                                            .             
```

#### Opcodes

```
  0: 0x0022 [0x00] END_REQSTACK()
```

### Event 65535.4

#### Metadata

| Field        | Value    |
|--------------|----------|
| Entrypoint   | 0x0023   |
| Data Size    | 14 bytes |
| Instructions | 4        |

```
      00 01 02 03 04 05 06 07  08 09 0A 0B 0C 0D 0E 0F
      -- -- -- -- -- -- -- --  -- -- -- -- -- -- -- --
0020:          22 00 37 08 80  09 80 0A 80 0B 80 A5 01     ".7..........
0030: 00                                                .               
```

#### Opcodes

```
  0: 0x0023 [0x22] ENTITY_HIDE_FLAG(enabled=0x00)
  1: 0x0025 [0x37] UPDATE_EVENT_POSITION_AND_DIR: x=-101.059*, z=-345.522*, y=-0.004*, direction=174.5°*
  2: 0x002E [0xA5] EventEntity->Flags3.BallistaTeam |= 0x08  // Set bit 3 of BallistaTeam
  3: 0x0030 [0x00] END_REQSTACK()
```
