# 17850986 - Alianne

## Common Data

| Field            | Value                        |
|------------------|------------------------------|
| Zone             | Foret de Hennetiel (ID: 262) |
| Block Size       | 628 bytes                    |
| Total Events     | 15                           |
| References Count | 37                           |

## List of Events

| Event ID                 | Entrypoint   |   Size |   Instructions |
|--------------------------|--------------|--------|----------------|
| [65535](#event-65535)    | 0x0000       |      1 |              1 |
| [519](#event-519)        | 0x0001       |      1 |              1 |
| [65535.1](#event-655351) | 0x0002       |     14 |              4 |
| [65535.2](#event-655352) | 0x0010       |     22 |              6 |
| [65535.3](#event-655353) | 0x0026       |     40 |              8 |
| [521](#event-521)        | 0x004E       |      1 |              1 |
| [65535.4](#event-655354) | 0x004F       |     14 |              4 |
| [65535.5](#event-655355) | 0x005D       |     22 |              6 |
| [525](#event-525)        | 0x0073       |     45 |              4 |
| [65535.6](#event-655356) | 0x00A0       |     22 |              6 |
| [527](#event-527)        | 0x00B6       |     45 |              4 |
| [65535.7](#event-655357) | 0x00E3       |     40 |              8 |
| [528](#event-528)        | 0x010B       |     45 |              4 |
| [65535.8](#event-655358) | 0x0138       |     45 |              4 |
| [65535.9](#event-655359) | 0x0165       |     45 |              4 |

## DAT References (imed_data)

|   Index | Hex Value   |   Dec Value |
|---------|-------------|-------------|
|       0 | 0x0028      |          40 |
|       1 | 0x61B06     |      400134 |
|       2 | 0x40036     |      262198 |
|       3 | 0xFFFFFBAA  |  4294966186 |
|       4 | 0x636CA     |      407242 |
|       5 | 0x41E41     |      269889 |
|       6 | 0xFFFFF810  |  4294965264 |
|       7 | 0x001E      |          30 |
|       8 | 0x63ACA     |      408266 |
|       9 | 0x42053     |      270419 |
|      10 | 0xFFFFF77C  |  4294965116 |
|      11 | 0x0013      |          19 |
|      12 | 0x0078      |         120 |
|      13 | 0x633E4     |      406500 |
|      14 | 0x41FD1     |      270289 |
|      15 | 0xFFFFF824  |  4294965284 |
|      16 | 0x61EF2     |      401138 |
|      17 | 0x4373A     |      276282 |
|      18 | 0xFFFFF822  |  4294965282 |
|      19 | 0x0001      |           1 |
|      20 | 0x0000      |           0 |
|      21 | 0x0039      |          57 |
|      22 | 0x0018      |          24 |
|      23 | 0x0014      |          20 |
|      24 | 0x0073      |         115 |
|      25 | 0x63D1C     |      408860 |
|      26 | 0x41F7D     |      270205 |
|      27 | 0xFFFFF73B  |  4294965051 |
|      28 | 0x6B37B     |      439163 |
|      29 | 0xFFFBBFDC  |  4294688732 |
|      30 | 0xFFFFF830  |  4294965296 |
|      31 | 0x0009      |           9 |
|      32 | 0x005A      |          90 |
|      33 | 0x0002      |           2 |
|      34 | 0x000F      |          15 |
|      35 | 0x008E      |         142 |
|      36 | 0x0083      |         131 |

## Events

### Event 65535

#### Metadata

| Field        | Value   |
|--------------|---------|
| Entrypoint   | 0x0000  |
| Data Size    | 1 bytes |
| Instructions | 1       |

```
      00 01 02 03 04 05 06 07  08 09 0A 0B 0C 0D 0E 0F
      -- -- -- -- -- -- -- --  -- -- -- -- -- -- -- --
0000: 00                                                .               
```

#### Opcodes

```
  0: 0x0000 [0x00] END_REQSTACK()
```

### Event 519

#### Metadata

| Field        | Value   |
|--------------|---------|
| Entrypoint   | 0x0001  |
| Data Size    | 1 bytes |
| Instructions | 1       |

```
      00 01 02 03 04 05 06 07  08 09 0A 0B 0C 0D 0E 0F
      -- -- -- -- -- -- -- --  -- -- -- -- -- -- -- --
0000:    00                                              .              
```

#### Opcodes

```
  0: 0x0001 [0x00] END_REQSTACK()
```

### Event 65535.1

#### Metadata

| Field        | Value    |
|--------------|----------|
| Entrypoint   | 0x0002   |
| Data Size    | 14 bytes |
| Instructions | 4        |

```
      00 01 02 03 04 05 06 07  08 09 0A 0B 0C 0D 0E 0F
      -- -- -- -- -- -- -- --  -- -- -- -- -- -- -- --
0000:       32 00 80 1F 00 01  80 02 80 03 80 1F 01 00    2.............
```

#### Opcodes

```
  0: 0x0002 [0x32] ExtData[1]->MainSpeed = 40* * 0.1
  1: 0x0005 [0x1F] MOVE_ENTITY: EventEntity moves to X=400.134*, Z=262.198*, Y=-1.110*
  2: 0x000D [0x1F] MOVE_ENTITY: Update entity position (mode=1)
  3: 0x000F [0x00] END_REQSTACK()
```

### Event 65535.2

#### Metadata

| Field        | Value    |
|--------------|----------|
| Entrypoint   | 0x0010   |
| Data Size    | 22 bytes |
| Instructions | 6        |

```
      00 01 02 03 04 05 06 07  08 09 0A 0B 0C 0D 0E 0F
      -- -- -- -- -- -- -- --  -- -- -- -- -- -- -- --
0010: 32 00 80 1F 00 04 80 05  80 06 80 1F 01 1E 29 62  2.............)b
0020: 10 01 1C 07 80 00                                 ......          
```

#### Opcodes

```
  0: 0x0010 [0x32] ExtData[1]->MainSpeed = 40* * 0.1
  1: 0x0013 [0x1F] MOVE_ENTITY: EventEntity moves to X=407.242*, Z=269.889*, Y=-2.032*
  2: 0x001B [0x1F] MOVE_ENTITY: Update entity position (mode=1)
  3: 0x001D [0x1E] EventEntity looks at Fritha (ID: 17850921/0x01106229) and starts talking
  4: 0x0022 [0x1C] WAIT(30* ticks)
  5: 0x0025 [0x00] END_REQSTACK()
```

### Event 65535.3

#### Metadata

| Field        | Value    |
|--------------|----------|
| Entrypoint   | 0x0026   |
| Data Size    | 40 bytes |
| Instructions | 8        |

```
      00 01 02 03 04 05 06 07  08 09 0A 0B 0C 0D 0E 0F
      -- -- -- -- -- -- -- --  -- -- -- -- -- -- -- --
0020:                   32 00  80 1F 00 08 80 09 80 0A        2.........
0030: 80 1F 01 1E 6B 62 10 01  1C 07 80 66 0B 80 6A 62  ....kb.....f..jb
0040: 10 01 6A 62 10 01 73 68  61 30 1C 0C 80 00        ..jb..sha0....  
```

#### Opcodes

```
  0: 0x0026 [0x32] ExtData[1]->MainSpeed = 40* * 0.1
  1: 0x0029 [0x1F] MOVE_ENTITY: EventEntity moves to X=408.266*, Z=270.419*, Y=-2.180*
  2: 0x0031 [0x1F] MOVE_ENTITY: Update entity position (mode=1)
  3: 0x0033 [0x1E] EventEntity looks at Davengrot (ID: 17850987/0x0110626B) and starts talking
  4: 0x0038 [0x1C] WAIT(30* ticks)
  5: 0x003B [0x66] LOAD_EXT_SCHEDULER_MAIN: Load scheduler "sha0" with entities [Alianne (ID: 17850986/0x0110626A), Alianne (ID: 17850986/0x0110626A)], work=19*
  6: 0x004A [0x1C] WAIT(120* ticks)
  7: 0x004D [0x00] END_REQSTACK()
```

### Event 521

#### Metadata

| Field        | Value   |
|--------------|---------|
| Entrypoint   | 0x004E  |
| Data Size    | 1 bytes |
| Instructions | 1       |

```
      00 01 02 03 04 05 06 07  08 09 0A 0B 0C 0D 0E 0F
      -- -- -- -- -- -- -- --  -- -- -- -- -- -- -- --
0040:                                            00                   . 
```

#### Opcodes

```
  0: 0x004E [0x00] END_REQSTACK()
```

### Event 65535.4

#### Metadata

| Field        | Value    |
|--------------|----------|
| Entrypoint   | 0x004F   |
| Data Size    | 14 bytes |
| Instructions | 4        |

```
      00 01 02 03 04 05 06 07  08 09 0A 0B 0C 0D 0E 0F
      -- -- -- -- -- -- -- --  -- -- -- -- -- -- -- --
0040:                                               32                 2
0050: 00 80 1F 00 0D 80 0E 80  0F 80 1F 01 00           .............   
```

#### Opcodes

```
  0: 0x004F [0x32] ExtData[1]->MainSpeed = 40* * 0.1
  1: 0x0052 [0x1F] MOVE_ENTITY: EventEntity moves to X=406.500*, Z=270.289*, Y=-2.012*
  2: 0x005A [0x1F] MOVE_ENTITY: Update entity position (mode=1)
  3: 0x005C [0x00] END_REQSTACK()
```

### Event 65535.5

#### Metadata

| Field        | Value    |
|--------------|----------|
| Entrypoint   | 0x005D   |
| Data Size    | 22 bytes |
| Instructions | 6        |

```
      00 01 02 03 04 05 06 07  08 09 0A 0B 0C 0D 0E 0F
      -- -- -- -- -- -- -- --  -- -- -- -- -- -- -- --
0050:                                         32 00 80               2..
0060: 1F 00 10 80 11 80 12 80  1F 01 1E 69 62 10 01 1C  ...........ib...
0070: 07 80 00                                          ...             
```

#### Opcodes

```
  0: 0x005D [0x32] ExtData[1]->MainSpeed = 40* * 0.1
  1: 0x0060 [0x1F] MOVE_ENTITY: EventEntity moves to X=401.138*, Z=276.282*, Y=-2.014*
  2: 0x0068 [0x1F] MOVE_ENTITY: Update entity position (mode=1)
  3: 0x006A [0x1E] EventEntity looks at Unnamed NPC (ID: 17850985/0x01106269) and starts talking
  4: 0x006F [0x1C] WAIT(30* ticks)
  5: 0x0072 [0x00] END_REQSTACK()
```

### Event 525

#### Metadata

| Field        | Value    |
|--------------|----------|
| Entrypoint   | 0x0073   |
| Data Size    | 45 bytes |
| Instructions | 4        |

```
      00 01 02 03 04 05 06 07  08 09 0A 0B 0C 0D 0E 0F
      -- -- -- -- -- -- -- --  -- -- -- -- -- -- -- --
0070:          B4 00 00 00 4F  74 68 65 6C 6C 69 75 73     ....Othellius
0080: 00 00 00 00 00 00 00 B5  00 00 00 B6 0B 13 80 14  ................
0090: 80 14 80 15 80 16 80 17  80 18 80 14 80 14 80 00  ................
```

#### Opcodes

```
  0: 0x0073 [0xB4] UI_WINDOW_STRING_HANDLER(case=0x00 - Copy string from opcode, work_offset=ExtData[1]->WorkLocal[0], string="Othellius")
  1: 0x0087 [0xB5] SET_EVENT_ENTITY_NAME: Change EventEntity name to ExtData[1]->WorkLocal[0]
  2: 0x008B [0xB6] ENTITY_APPEARANCE_HANDLER(case=Full entity look, race=1*, hair=0*, head=0*, body=57*, hands=24*, legs=20*, feet=115*, main=0*, sub=0*)
  3: 0x009F [0x00] END_REQSTACK()
```

### Event 65535.6

#### Metadata

| Field        | Value    |
|--------------|----------|
| Entrypoint   | 0x00A0   |
| Data Size    | 22 bytes |
| Instructions | 6        |

```
      00 01 02 03 04 05 06 07  08 09 0A 0B 0C 0D 0E 0F
      -- -- -- -- -- -- -- --  -- -- -- -- -- -- -- --
00A0: 32 00 80 1F 00 19 80 1A  80 1B 80 1F 01 1E 29 62  2.............)b
00B0: 10 01 1C 07 80 00                                 ......          
```

#### Opcodes

```
  0: 0x00A0 [0x32] ExtData[1]->MainSpeed = 40* * 0.1
  1: 0x00A3 [0x1F] MOVE_ENTITY: EventEntity moves to X=408.860*, Z=270.205*, Y=-2.245*
  2: 0x00AB [0x1F] MOVE_ENTITY: Update entity position (mode=1)
  3: 0x00AD [0x1E] EventEntity looks at Fritha (ID: 17850921/0x01106229) and starts talking
  4: 0x00B2 [0x1C] WAIT(30* ticks)
  5: 0x00B5 [0x00] END_REQSTACK()
```

### Event 527

#### Metadata

| Field        | Value    |
|--------------|----------|
| Entrypoint   | 0x00B6   |
| Data Size    | 45 bytes |
| Instructions | 4        |

```
      00 01 02 03 04 05 06 07  08 09 0A 0B 0C 0D 0E 0F
      -- -- -- -- -- -- -- --  -- -- -- -- -- -- -- --
00B0:                   B4 00  00 00 4F 74 68 65 6C 6C        ....Othell
00C0: 69 75 73 00 00 00 00 00  00 00 B5 00 00 00 B6 0B  ius.............
00D0: 13 80 14 80 14 80 15 80  16 80 17 80 18 80 14 80  ................
00E0: 14 80 00                                          ...             
```

#### Opcodes

```
  0: 0x00B6 [0xB4] UI_WINDOW_STRING_HANDLER(case=0x00 - Copy string from opcode, work_offset=ExtData[1]->WorkLocal[0], string="Othellius")
  1: 0x00CA [0xB5] SET_EVENT_ENTITY_NAME: Change EventEntity name to ExtData[1]->WorkLocal[0]
  2: 0x00CE [0xB6] ENTITY_APPEARANCE_HANDLER(case=Full entity look, race=1*, hair=0*, head=0*, body=57*, hands=24*, legs=20*, feet=115*, main=0*, sub=0*)
  3: 0x00E2 [0x00] END_REQSTACK()
```

### Event 65535.7

#### Metadata

| Field        | Value    |
|--------------|----------|
| Entrypoint   | 0x00E3   |
| Data Size    | 40 bytes |
| Instructions | 8        |

```
      00 01 02 03 04 05 06 07  08 09 0A 0B 0C 0D 0E 0F
      -- -- -- -- -- -- -- --  -- -- -- -- -- -- -- --
00E0:          32 00 80 1F 00  1C 80 1D 80 1E 80 1F 01     2............
00F0: 1E 6B 62 10 01 1C 07 80  66 1F 80 F8 FF FF 7F F8  .kb.....f.......
0100: FF FF 7F 73 68 61 30 1C  20 80 00                 ...sha0. ..     
```

#### Opcodes

```
  0: 0x00E3 [0x32] ExtData[1]->MainSpeed = 40* * 0.1
  1: 0x00E6 [0x1F] MOVE_ENTITY: EventEntity moves to X=439.163*, Z=-278.564*, Y=-2.000*
  2: 0x00EE [0x1F] MOVE_ENTITY: Update entity position (mode=1)
  3: 0x00F0 [0x1E] EventEntity looks at Davengrot (ID: 17850987/0x0110626B) and starts talking
  4: 0x00F5 [0x1C] WAIT(30* ticks)
  5: 0x00F8 [0x66] LOAD_EXT_SCHEDULER_MAIN: Load scheduler "sha0" with entities [EventEntity, EventEntity], work=9*
  6: 0x0107 [0x1C] WAIT(90* ticks)
  7: 0x010A [0x00] END_REQSTACK()
```

### Event 528

#### Metadata

| Field        | Value    |
|--------------|----------|
| Entrypoint   | 0x010B   |
| Data Size    | 45 bytes |
| Instructions | 4        |

```
      00 01 02 03 04 05 06 07  08 09 0A 0B 0C 0D 0E 0F
      -- -- -- -- -- -- -- --  -- -- -- -- -- -- -- --
0100:                                   B4 00 00 00 4F             ....O
0110: 74 68 65 6C 6C 69 75 73  00 00 00 00 00 00 00 B5  thellius........
0120: 00 00 00 B6 0B 13 80 14  80 14 80 15 80 16 80 17  ................
0130: 80 18 80 14 80 14 80 00                           ........        
```

#### Opcodes

```
  0: 0x010B [0xB4] UI_WINDOW_STRING_HANDLER(case=0x00 - Copy string from opcode, work_offset=ExtData[1]->WorkLocal[0], string="Othellius")
  1: 0x011F [0xB5] SET_EVENT_ENTITY_NAME: Change EventEntity name to ExtData[1]->WorkLocal[0]
  2: 0x0123 [0xB6] ENTITY_APPEARANCE_HANDLER(case=Full entity look, race=1*, hair=0*, head=0*, body=57*, hands=24*, legs=20*, feet=115*, main=0*, sub=0*)
  3: 0x0137 [0x00] END_REQSTACK()
```

### Event 65535.8

#### Metadata

| Field        | Value    |
|--------------|----------|
| Entrypoint   | 0x0138   |
| Data Size    | 45 bytes |
| Instructions | 4        |

```
      00 01 02 03 04 05 06 07  08 09 0A 0B 0C 0D 0E 0F
      -- -- -- -- -- -- -- --  -- -- -- -- -- -- -- --
0130:                          B4 00 00 00 4F 74 68 65          ....Othe
0140: 6C 6C 69 75 73 00 00 00  00 00 00 00 B5 00 00 00  llius...........
0150: B6 0B 13 80 14 80 14 80  15 80 16 80 17 80 18 80  ................
0160: 14 80 14 80 00                                    .....           
```

#### Opcodes

```
  0: 0x0138 [0xB4] UI_WINDOW_STRING_HANDLER(case=0x00 - Copy string from opcode, work_offset=ExtData[1]->WorkLocal[0], string="Othellius")
  1: 0x014C [0xB5] SET_EVENT_ENTITY_NAME: Change EventEntity name to ExtData[1]->WorkLocal[0]
  2: 0x0150 [0xB6] ENTITY_APPEARANCE_HANDLER(case=Full entity look, race=1*, hair=0*, head=0*, body=57*, hands=24*, legs=20*, feet=115*, main=0*, sub=0*)
  3: 0x0164 [0x00] END_REQSTACK()
```

### Event 65535.9

#### Metadata

| Field        | Value    |
|--------------|----------|
| Entrypoint   | 0x0165   |
| Data Size    | 45 bytes |
| Instructions | 4        |

```
      00 01 02 03 04 05 06 07  08 09 0A 0B 0C 0D 0E 0F
      -- -- -- -- -- -- -- --  -- -- -- -- -- -- -- --
0160:                B4 00 00  00 41 6C 69 61 6E 6E 65       ....Alianne
0170: 00 00 00 00 00 00 00 00  00 B5 00 00 00 B6 0B 21  ...............!
0180: 80 22 80 14 80 23 80 14  80 17 80 24 80 14 80 14  ."...#.....$....
0190: 80 00                                             ..              
```

#### Opcodes

```
  0: 0x0165 [0xB4] UI_WINDOW_STRING_HANDLER(case=0x00 - Copy string from opcode, work_offset=ExtData[1]->WorkLocal[0], string="Alianne")
  1: 0x0179 [0xB5] SET_EVENT_ENTITY_NAME: Change EventEntity name to ExtData[1]->WorkLocal[0]
  2: 0x017D [0xB6] ENTITY_APPEARANCE_HANDLER(case=Full entity look, race=2*, hair=15*, head=0*, body=142*, hands=0*, legs=20*, feet=131*, main=0*, sub=0*)
  3: 0x0191 [0x00] END_REQSTACK()
```
