# 17850927 - Nestroh

## Common Data

| Field            | Value                        |
|------------------|------------------------------|
| Zone             | Foret de Hennetiel (ID: 262) |
| Block Size       | 1240 bytes                   |
| Total Events     | 18                           |
| References Count | 43                           |

## List of Events

| Event ID                   | Entrypoint   |   Size |   Instructions |
|----------------------------|--------------|--------|----------------|
| [65535](#event-65535)      | 0x0000       |      1 |              1 |
| [65535.1](#event-655351)   | 0x0001       |     47 |              5 |
| [65535.2](#event-655352)   | 0x0030       |     16 |              2 |
| [65535.3](#event-655353)   | 0x0040       |     14 |              2 |
| [65535.4](#event-655354)   | 0x004E       |     16 |              2 |
| [65535.5](#event-655355)   | 0x005E       |     14 |              2 |
| [65535.6](#event-655356)   | 0x006C       |     16 |              2 |
| [65535.7](#event-655357)   | 0x007C       |     14 |              2 |
| [65535.8](#event-655358)   | 0x008A       |     16 |              2 |
| [65535.9](#event-655359)   | 0x009A       |     14 |              2 |
| [65535.10](#event-6553510) | 0x00A8       |      9 |              3 |
| [65535.11](#event-6553511) | 0x00B1       |     16 |              4 |
| [2570](#event-2570)        | 0x00C1       |     31 |             10 |
| [2571](#event-2571)        | 0x00E0       |     71 |             21 |
| [2572](#event-2572)        | 0x0127       |     31 |             10 |
| [2573](#event-2573)        | 0x0146       |    238 |             51 |
| [2574](#event-2574)        | 0x0234       |    389 |             59 |
| [2575](#event-2575)        | 0x03B9       |     26 |              9 |

## DAT References (imed_data)

|   Index | Hex Value   |   Dec Value |
|---------|-------------|-------------|
|       0 | 0x0009      |           9 |
|       1 | 0x0028      |          40 |
|       2 | 0x0095      |         149 |
|       3 | 0x001E      |          30 |
|       4 | 0x0004      |           4 |
|       5 | 0x0032      |          50 |
|       6 | 0x086D      |        2157 |
|       7 | 0x1D6F      |        7535 |
|       8 | 0x000B      |          11 |
|       9 | 0x0F77      |        3959 |
|      10 | 0x1D70      |        7536 |
|      11 | 0x1D71      |        7537 |
|      12 | 0x1D72      |        7538 |
|      13 | 0x1D73      |        7539 |
|      14 | 0x1D74      |        7540 |
|      15 | 0x0001      |           1 |
|      16 | 0x1D75      |        7541 |
|      17 | 0x1D7D      |        7549 |
|      18 | 0x00C8      |         200 |
|      19 | 0x0000      |           0 |
|      20 | 0x1D76      |        7542 |
|      21 | 0x1D77      |        7543 |
|      22 | 0x0002      |           2 |
|      23 | 0x1D78      |        7544 |
|      24 | 0x0003      |           3 |
|      25 | 0x1D79      |        7545 |
|      26 | 0x1D7A      |        7546 |
|      27 | 0x1D7B      |        7547 |
|      28 | 0x1D7C      |        7548 |
|      29 | 0x0024      |          36 |
|      30 | 0x1D7E      |        7550 |
|      31 | 0x1D7F      |        7551 |
|      32 | 0x1D80      |        7552 |
|      33 | 0x00C9      |         201 |
|      34 | 0x1D81      |        7553 |
|      35 | 0x0245      |         581 |
|      36 | 0x00B4      |         180 |
|      37 | 0x1D82      |        7554 |
|      38 | 0x1D83      |        7555 |
|      39 | 0x1D84      |        7556 |
|      40 | 0x1D85      |        7557 |
|      41 | 0x1D86      |        7558 |
|      42 | 0x1D87      |        7559 |

## String References

- **7535**: <Sigh> I'm sick of turning away all these pretenders. Not a one with $6!
- **7536**: Me? Why, I'm only the best fisherman in all of Ulbuka! All I need to do is look at a lake or river funny and all the fish jump out and start flopping around!
- **7537**: Since I'm so good, you must be itching to know what I'm doing all the way out here! Well, I've been trying all day to stare these out-of-this-world Delectable Orobons into submission, but--can you believe this--I've caught not a one!
- **7538**: They thrash about, making it impossible to get so much as one bucketful of bycatch! But that's neither here nor there--I want to taste succulent orobon flesh!
- **7539**: It should be beneath me to ask a tenderfin like yourself for assistance, but if for some reason you happen to find $0, could you stop by here?
- **7540**: Well? Did you find $0?
- **7541**: Hmm...this meat is from the [liver/cheeks/stomach/back/tail] of the creature.
- **7542**: Let's tear into this sucker! ...<Chomp>...<chew>...mmm...
- **7543**: The firm, crunchy texture is like munching on hard candy...and the savoriness! By Altana, the savoriness!
- **7544**: The fatty section melts in my mouth like warm butter, and the rich taste lingers like soft cream!
- **7545**: The flesh is so delicate it almost falls off the bone, and the mouthwatering flavor dances like a fluttering twitherym!
- **7546**: The refined, thick taste slides right down my throat, coating it with a scrumptious sheen!
- **7547**: Hmmm...mmm...
- **7548**: Delightful, to be sure, but not the "out-of-this-world" bounty I was expecting. Come back if you find a more select choice of orobon meat for me.
- **7549**: I know I've already tried this part, but who am I to say no to a good thing! Return to me with any $2 you find.
- **7550**: This...this is... Unbelievable! The strong aroma and ambrosial flavor! It rushes straight to my head like blood when you stand up too fast!
- **7551**: Yes! This is it! The out-of-this-world flavor I have been seeking! It sends shivers down my spine! Here, you absolutely have to try this!
- **7552**: Nestroh practically shoves the meat down your throat!
- **7553**: It is quite good, but...the pins and needles prickling your throat indicate this may not have been such a good idea.
- **7554**: Outstanding, isn't it? Isn't it!?
- **7555**: <Huff> I thought I was shaking because of the taste, but it might have just been all the toxins that had accumulated in the liver...
- **7556**: If someone from the Scouts' Coalition hadn't showed up at that exact moment, I'd have gone belly-up. Bwahaha!
- **7557**: But fortunately for me, the guy mentioned something about being more resistant to paresis thanks to eating that delightful dish.
- **7558**: The perfect combination of provisions and protection, wouldn't you say?
- **7559**: The next time I get me ahold of that sucker, it'll be more delicious than ever!

## Events

### Event 65535

#### Metadata

| Field        | Value   |
|--------------|---------|
| Entrypoint   | 0x0000  |
| Data Size    | 1 bytes |
| Instructions | 1       |

```
      00 01 02 03 04 05 06 07  08 09 0A 0B 0C 0D 0E 0F
      -- -- -- -- -- -- -- --  -- -- -- -- -- -- -- --
0000: 00                                                .               
```

#### Opcodes

```
  0: 0x0000 [0x00] END_REQSTACK()
```

### Event 65535.1

#### Metadata

| Field        | Value    |
|--------------|----------|
| Entrypoint   | 0x0001   |
| Data Size    | 47 bytes |
| Instructions | 5        |

```
      00 01 02 03 04 05 06 07  08 09 0A 0B 0C 0D 0E 0F
      -- -- -- -- -- -- -- --  -- -- -- -- -- -- -- --
0000:    66 00 80 F8 FF FF 7F  F8 FF FF 7F 74 6C 6B 30   f..........tlk0
0010: 1C 01 80 66 00 80 F8 FF  FF 7F F8 FF FF 7F 74 6C  ...f..........tl
0020: 6B 31 53 F8 FF FF 7F F8  FF FF 7F 74 6C 6B 31 00  k1S........tlk1.
```

#### Opcodes

```
  0: 0x0001 [0x66] LOAD_EXT_SCHEDULER_MAIN: Load scheduler "tlk0" with entities [EventEntity, EventEntity], work=9*
  1: 0x0010 [0x1C] WAIT(40* ticks)
  2: 0x0013 [0x66] LOAD_EXT_SCHEDULER_MAIN: Load scheduler "tlk1" with entities [EventEntity, EventEntity], work=9*
  3: 0x0022 [0x53] WAIT_SCHEDULER_TASK: Wait for scheduler "tlk1" with entities [EventEntity, EventEntity]
  4: 0x002F [0x00] END_REQSTACK()
```

### Event 65535.2

#### Metadata

| Field        | Value    |
|--------------|----------|
| Entrypoint   | 0x0030   |
| Data Size    | 16 bytes |
| Instructions | 2        |

```
      00 01 02 03 04 05 06 07  08 09 0A 0B 0C 0D 0E 0F
      -- -- -- -- -- -- -- --  -- -- -- -- -- -- -- --
0030: 66 00 80 F8 FF FF 7F F8  FF FF 7F 74 68 6B 31 00  f..........thk1.
```

#### Opcodes

```
  0: 0x0030 [0x66] LOAD_EXT_SCHEDULER_MAIN: Load scheduler "thk1" with entities [EventEntity, EventEntity], work=9*
  1: 0x003F [0x00] END_REQSTACK()
```

### Event 65535.3

#### Metadata

| Field        | Value    |
|--------------|----------|
| Entrypoint   | 0x0040   |
| Data Size    | 14 bytes |
| Instructions | 2        |

```
      00 01 02 03 04 05 06 07  08 09 0A 0B 0C 0D 0E 0F
      -- -- -- -- -- -- -- --  -- -- -- -- -- -- -- --
0040: 53 F8 FF FF 7F F8 FF FF  7F 74 68 6B 31 00        S........thk1.  
```

#### Opcodes

```
  0: 0x0040 [0x53] WAIT_SCHEDULER_TASK: Wait for scheduler "thk1" with entities [EventEntity, EventEntity]
  1: 0x004D [0x00] END_REQSTACK()
```

### Event 65535.4

#### Metadata

| Field        | Value    |
|--------------|----------|
| Entrypoint   | 0x004E   |
| Data Size    | 16 bytes |
| Instructions | 2        |

```
      00 01 02 03 04 05 06 07  08 09 0A 0B 0C 0D 0E 0F
      -- -- -- -- -- -- -- --  -- -- -- -- -- -- -- --
0040:                                            66 00                f.
0050: 80 F8 FF FF 7F F8 FF FF  7F 74 68 6B 32 00        .........thk2.  
```

#### Opcodes

```
  0: 0x004E [0x66] LOAD_EXT_SCHEDULER_MAIN: Load scheduler "thk2" with entities [EventEntity, EventEntity], work=9*
  1: 0x005D [0x00] END_REQSTACK()
```

### Event 65535.5

#### Metadata

| Field        | Value    |
|--------------|----------|
| Entrypoint   | 0x005E   |
| Data Size    | 14 bytes |
| Instructions | 2        |

```
      00 01 02 03 04 05 06 07  08 09 0A 0B 0C 0D 0E 0F
      -- -- -- -- -- -- -- --  -- -- -- -- -- -- -- --
0050:                                            53 F8                S.
0060: FF FF 7F F8 FF FF 7F 74  68 6B 32 00              .......thk2.    
```

#### Opcodes

```
  0: 0x005E [0x53] WAIT_SCHEDULER_TASK: Wait for scheduler "thk2" with entities [EventEntity, EventEntity]
  1: 0x006B [0x00] END_REQSTACK()
```

### Event 65535.6

#### Metadata

| Field        | Value    |
|--------------|----------|
| Entrypoint   | 0x006C   |
| Data Size    | 16 bytes |
| Instructions | 2        |

```
      00 01 02 03 04 05 06 07  08 09 0A 0B 0C 0D 0E 0F
      -- -- -- -- -- -- -- --  -- -- -- -- -- -- -- --
0060:                                      66 02 80 F8              f...
0070: FF FF 7F F8 FF FF 7F 74  6C 6B 30 00              .......tlk0.    
```

#### Opcodes

```
  0: 0x006C [0x66] LOAD_EXT_SCHEDULER_MAIN: Load scheduler "tlk0" with entities [EventEntity, EventEntity], work=149*
  1: 0x007B [0x00] END_REQSTACK()
```

### Event 65535.7

#### Metadata

| Field        | Value    |
|--------------|----------|
| Entrypoint   | 0x007C   |
| Data Size    | 14 bytes |
| Instructions | 2        |

```
      00 01 02 03 04 05 06 07  08 09 0A 0B 0C 0D 0E 0F
      -- -- -- -- -- -- -- --  -- -- -- -- -- -- -- --
0070:                                      53 F8 FF FF              S...
0080: 7F F8 FF FF 7F 74 6C 6B  30 00                    .....tlk0.      
```

#### Opcodes

```
  0: 0x007C [0x53] WAIT_SCHEDULER_TASK: Wait for scheduler "tlk0" with entities [EventEntity, EventEntity]
  1: 0x0089 [0x00] END_REQSTACK()
```

### Event 65535.8

#### Metadata

| Field        | Value    |
|--------------|----------|
| Entrypoint   | 0x008A   |
| Data Size    | 16 bytes |
| Instructions | 2        |

```
      00 01 02 03 04 05 06 07  08 09 0A 0B 0C 0D 0E 0F
      -- -- -- -- -- -- -- --  -- -- -- -- -- -- -- --
0080:                                66 02 80 F8 FF FF            f.....
0090: 7F F8 FF FF 7F 74 6C 6B  31 00                    .....tlk1.      
```

#### Opcodes

```
  0: 0x008A [0x66] LOAD_EXT_SCHEDULER_MAIN: Load scheduler "tlk1" with entities [EventEntity, EventEntity], work=149*
  1: 0x0099 [0x00] END_REQSTACK()
```

### Event 65535.9

#### Metadata

| Field        | Value    |
|--------------|----------|
| Entrypoint   | 0x009A   |
| Data Size    | 14 bytes |
| Instructions | 2        |

```
      00 01 02 03 04 05 06 07  08 09 0A 0B 0C 0D 0E 0F
      -- -- -- -- -- -- -- --  -- -- -- -- -- -- -- --
0090:                                53 F8 FF FF 7F F8            S.....
00A0: FF FF 7F 74 6C 6B 31 00                           ...tlk1.        
```

#### Opcodes

```
  0: 0x009A [0x53] WAIT_SCHEDULER_TASK: Wait for scheduler "tlk1" with entities [EventEntity, EventEntity]
  1: 0x00A7 [0x00] END_REQSTACK()
```

### Event 65535.10

#### Metadata

| Field        | Value   |
|--------------|---------|
| Entrypoint   | 0x00A8  |
| Data Size    | 9 bytes |
| Instructions | 3       |

```
      00 01 02 03 04 05 06 07  08 09 0A 0B 0C 0D 0E 0F
      -- -- -- -- -- -- -- --  -- -- -- -- -- -- -- --
00A0:                          5E 69 64 6C 30 1C 03 80          ^idl0...
00B0: 00                                                .               
```

#### Opcodes

```
  0: 0x00A8 [0x5E] EventEntity goes idle (kills current action) (animation: "idl0")
  1: 0x00AD [0x1C] WAIT(30* ticks)
  2: 0x00B0 [0x00] END_REQSTACK()
```

### Event 65535.11

#### Metadata

| Field        | Value    |
|--------------|----------|
| Entrypoint   | 0x00B1   |
| Data Size    | 16 bytes |
| Instructions | 4        |

```
      00 01 02 03 04 05 06 07  08 09 0A 0B 0C 0D 0E 0F
      -- -- -- -- -- -- -- --  -- -- -- -- -- -- -- --
00B0:    6E 2F 62 10 01 04 80  99 2F 62 10 01 1C 05 80   n/b...../b.....
00C0: 00                                                .               
```

#### Opcodes

```
  0: 0x00B1 [0x6E] Nestroh (ID: 17850927/0x0110622F) uses emote 4*
  1: 0x00B8 [0x99] Wait for Nestroh (ID: 17850927/0x0110622F) animation to complete
  2: 0x00BD [0x1C] WAIT(50* ticks)
  3: 0x00C0 [0x00] END_REQSTACK()
```

### Event 2570

#### Metadata

| Field        | Value    |
|--------------|----------|
| Entrypoint   | 0x00C1   |
| Data Size    | 31 bytes |
| Instructions | 10       |

```
      00 01 02 03 04 05 06 07  08 09 0A 0B 0C 0D 0E 0F
      -- -- -- -- -- -- -- --  -- -- -- -- -- -- -- --
00C0:    1E F0 FF FF 7F 6F 70  27 08 2F 62 10 01 01 03   .....op'./b....
00D0: 02 10 06 80 1D 07 80 23  2A 08 2F 62 10 01 21 00  .......#*./b..!.
```

#### Opcodes

```
  0: 0x00C1 [0x1E] EventEntity looks at LocalPlayer and starts talking
  1: 0x00C6 [0x6F] WAIT_FRAME_DELAY: Yield until WaitTime reaches zero
  2: 0x00C7 [0x70] WAIT_ENTITY_RENDER_FLAG: Wait while EventEntity->Render.Flags3 bit 2 is set (cancel turn if not)
  3: 0x00C8 [0x27] REQ_SET(priority=0x08, entity_id=Nestroh (ID: 17850927/0x0110622F), tag_num=0x01)
  4: 0x00CF [0x03] Work_Zone[2] = 2157*
  5: 0x00D4 [0x1D] PRINT_EVENT_MESSAGE(message_id=7535*)
    → "<Sigh> I'm sick of turning away all these pretenders. Not a one with $6!"
  6: 0x00D7 [0x23] WAIT_FOR_DIALOG_INTERACTION
  7: 0x00D8 [0x2A] GET_REQ_LEVEL(level=8, entity_id=Nestroh (ID: 17850927/0x0110622F))
  8: 0x00DE [0x21] END_EVENT
  9: 0x00DF [0x00] END_REQSTACK()
```

### Event 2571

#### Metadata

| Field        | Value    |
|--------------|----------|
| Entrypoint   | 0x00E0   |
| Data Size    | 71 bytes |
| Instructions | 21       |

```
      00 01 02 03 04 05 06 07  08 09 0A 0B 0C 0D 0E 0F
      -- -- -- -- -- -- -- --  -- -- -- -- -- -- -- --
00E0: 42 1E F0 FF FF 7F 6F 70  6E 2F 62 10 01 08 80 99  B.....opn/b.....
00F0: 2F 62 10 01 03 02 10 09  80 1D 0A 80 23 29 08 2F  /b..........#)./
0100: 62 10 01 06 1D 0B 80 23  1D 0C 80 23 29 08 2F 62  b......#...#)./b
0110: 10 01 07 29 08 2F 62 10  01 08 1D 0D 80 23 29 08  ...)./b......#).
0120: 2F 62 10 01 09 21 00                              /b...!.         
```

#### Opcodes

```
  0: 0x00E0 [0x42] SET_CLI_EVENT_CANCEL_DATA()
  1: 0x00E1 [0x1E] EventEntity looks at LocalPlayer and starts talking
  2: 0x00E6 [0x6F] WAIT_FRAME_DELAY: Yield until WaitTime reaches zero
  3: 0x00E7 [0x70] WAIT_ENTITY_RENDER_FLAG: Wait while EventEntity->Render.Flags3 bit 2 is set (cancel turn if not)
  4: 0x00E8 [0x6E] Nestroh (ID: 17850927/0x0110622F) uses emote 11*
  5: 0x00EF [0x99] Wait for Nestroh (ID: 17850927/0x0110622F) animation to complete
  6: 0x00F4 [0x03] Work_Zone[2] = 3959*
  7: 0x00F9 [0x1D] PRINT_EVENT_MESSAGE(message_id=7536*)
    → "Me? Why, I'm only the best fisherman in all of Ulbuka! All I need to do is look at a lake or river funny and all the fish jump out and start flopping around!"
  8: 0x00FC [0x23] WAIT_FOR_DIALOG_INTERACTION
  9: 0x00FD [0x29] REQ_SET_WAIT(priority=0x08, entity_id=Nestroh (ID: 17850927/0x0110622F), tag_num=0x06)
 10: 0x0104 [0x1D] PRINT_EVENT_MESSAGE(message_id=7537*)
    → "Since I'm so good, you must be itching to know what I'm doing all the way out here! Well, I've been trying all day to stare these out-of-this-world Delectable Orobons into submission, but--can you believe this--I've caught not a one!"
 11: 0x0107 [0x23] WAIT_FOR_DIALOG_INTERACTION
 12: 0x0108 [0x1D] PRINT_EVENT_MESSAGE(message_id=7538*)
    → "They thrash about, making it impossible to get so much as one bucketful of bycatch! But that's neither here nor there--I want to taste succulent orobon flesh!"
 13: 0x010B [0x23] WAIT_FOR_DIALOG_INTERACTION
 14: 0x010C [0x29] REQ_SET_WAIT(priority=0x08, entity_id=Nestroh (ID: 17850927/0x0110622F), tag_num=0x07)
 15: 0x0113 [0x29] REQ_SET_WAIT(priority=0x08, entity_id=Nestroh (ID: 17850927/0x0110622F), tag_num=0x08)
 16: 0x011A [0x1D] PRINT_EVENT_MESSAGE(message_id=7539*)
    → "It should be beneath me to ask a tenderfin like yourself for assistance, but if for some reason you happen to find $0, could you stop by here?"
 17: 0x011D [0x23] WAIT_FOR_DIALOG_INTERACTION
 18: 0x011E [0x29] REQ_SET_WAIT(priority=0x08, entity_id=Nestroh (ID: 17850927/0x0110622F), tag_num=0x09)
 19: 0x0125 [0x21] END_EVENT
 20: 0x0126 [0x00] END_REQSTACK()
```

### Event 2572

#### Metadata

| Field        | Value    |
|--------------|----------|
| Entrypoint   | 0x0127   |
| Data Size    | 31 bytes |
| Instructions | 10       |

```
      00 01 02 03 04 05 06 07  08 09 0A 0B 0C 0D 0E 0F
      -- -- -- -- -- -- -- --  -- -- -- -- -- -- -- --
0120:                      1E  F0 FF FF 7F 6F 70 27 08         .....op'.
0130: 2F 62 10 01 01 03 02 10  09 80 1D 0E 80 23 2A 08  /b...........#*.
0140: 2F 62 10 01 21 00                                 /b..!.          
```

#### Opcodes

```
  0: 0x0127 [0x1E] EventEntity looks at LocalPlayer and starts talking
  1: 0x012C [0x6F] WAIT_FRAME_DELAY: Yield until WaitTime reaches zero
  2: 0x012D [0x70] WAIT_ENTITY_RENDER_FLAG: Wait while EventEntity->Render.Flags3 bit 2 is set (cancel turn if not)
  3: 0x012E [0x27] REQ_SET(priority=0x08, entity_id=Nestroh (ID: 17850927/0x0110622F), tag_num=0x01)
  4: 0x0135 [0x03] Work_Zone[2] = 3959*
  5: 0x013A [0x1D] PRINT_EVENT_MESSAGE(message_id=7540*)
    → "Well? Did you find $0?"
  6: 0x013D [0x23] WAIT_FOR_DIALOG_INTERACTION
  7: 0x013E [0x2A] GET_REQ_LEVEL(level=8, entity_id=Nestroh (ID: 17850927/0x0110622F))
  8: 0x0144 [0x21] END_EVENT
  9: 0x0145 [0x00] END_REQSTACK()
```

### Event 2573

#### Metadata

| Field        | Value     |
|--------------|-----------|
| Entrypoint   | 0x0146    |
| Data Size    | 238 bytes |
| Instructions | 51        |

```
      00 01 02 03 04 05 06 07  08 09 0A 0B 0C 0D 0E 0F
      -- -- -- -- -- -- -- --  -- -- -- -- -- -- -- --
0140:                   42 1E  F0 FF FF 7F 6F 70 02 03        B.....op..
0150: 10 0F 80 00 73 01 27 08  2F 62 10 01 01 1D 10 80  ....s.'./b......
0160: 23 03 04 10 09 80 1D 11  80 23 2A 08 2F 62 10 01  #........#*./b..
0170: 01 32 02 1D 10 80 23 45  12 80 F0 FF FF 7F F0 FF  .2....#E........
0180: FF 7F 66 64 6F 31 13 80  1D 14 80 23 55 12 80 F0  ..fdo1.....#U...
0190: FF FF 7F F0 FF FF 7F 66  64 6F 31 45 12 80 F0 FF  .......fdo1E....
01A0: FF 7F F0 FF FF 7F 66 64  69 30 13 80 55 12 80 F0  ......fdi0..U...
01B0: FF FF 7F F0 FF FF 7F 66  64 69 30 6E 2F 62 10 01  .......fdi0n/b..
01C0: 08 80 99 2F 62 10 01 02  02 10 13 80 80 D2 01 01  .../b...........
01D0: 0E 02 02 02 10 0F 80 80  E1 01 1D 15 80 23 01 0E  .............#..
01E0: 02 02 02 10 16 80 80 F0  01 1D 17 80 23 01 0E 02  ............#...
01F0: 02 02 10 18 80 80 FF 01  1D 19 80 23 01 0E 02 02  ...........#....
0200: 02 10 04 80 80 0E 02 1D  1A 80 23 01 0E 02 29 08  ..........#...).
0210: 2F 62 10 01 02 1D 1B 80  23 29 08 2F 62 10 01 03  /b......#)./b...
0220: 29 08 2F 62 10 01 04 1D  1C 80 23 29 08 2F 62 10  )./b......#)./b.
0230: 01 05 21 00                                       ..!.            
```

#### Opcodes

```
  0: 0x0146 [0x42] SET_CLI_EVENT_CANCEL_DATA()
  1: 0x0147 [0x1E] EventEntity looks at LocalPlayer and starts talking
  2: 0x014C [0x6F] WAIT_FRAME_DELAY: Yield until WaitTime reaches zero
  3: 0x014D [0x70] WAIT_ENTITY_RENDER_FLAG: Wait while EventEntity->Render.Flags3 bit 2 is set (cancel turn if not)
  4: 0x014E [0x02] IF !(Work_Zone[3] == 1*) GOTO 0x0173
  5: 0x0156 [0x27] REQ_SET(priority=0x08, entity_id=Nestroh (ID: 17850927/0x0110622F), tag_num=0x01)
  6: 0x015D [0x1D] PRINT_EVENT_MESSAGE(message_id=7541*)
    → "Hmm...this meat is from the [liver/cheeks/stomach/back/tail] of the creature."
  7: 0x0160 [0x23] WAIT_FOR_DIALOG_INTERACTION
  8: 0x0161 [0x03] Work_Zone[4] = 3959*
  9: 0x0166 [0x1D] PRINT_EVENT_MESSAGE(message_id=7549*)
    → "I know I've already tried this part, but who am I to say no to a good thing! Return to me with any $2 you find."
 10: 0x0169 [0x23] WAIT_FOR_DIALOG_INTERACTION
 11: 0x016A [0x2A] GET_REQ_LEVEL(level=8, entity_id=Nestroh (ID: 17850927/0x0110622F))
 12: 0x0170 [0x01] GOTO 0x0232
 13: 0x0173 [0x1D] PRINT_EVENT_MESSAGE(message_id=7541*)
    → "Hmm...this meat is from the [liver/cheeks/stomach/back/tail] of the creature."
 14: 0x0176 [0x23] WAIT_FOR_DIALOG_INTERACTION
 15: 0x0177 [0x45] LOAD_SCHEDULED_TASK: Load scheduler "fdo1" with entities [LocalPlayer, LocalPlayer], work=[200*, 0*]
 16: 0x0188 [0x1D] PRINT_EVENT_MESSAGE(message_id=7542*)
    → "Let's tear into this sucker! ...<Chomp>...<chew>...mmm..."
 17: 0x018B [0x23] WAIT_FOR_DIALOG_INTERACTION
 18: 0x018C [0x55] WAIT_LOAD_SCHEDULER: Wait for scheduler "fdo1" with entities [LocalPlayer, LocalPlayer], work=200*
 19: 0x019B [0x45] LOAD_SCHEDULED_TASK: Load scheduler "fdi0" with entities [LocalPlayer, LocalPlayer], work=[200*, 0*]
 20: 0x01AC [0x55] WAIT_LOAD_SCHEDULER: Wait for scheduler "fdi0" with entities [LocalPlayer, LocalPlayer], work=200*
 21: 0x01BB [0x6E] Nestroh (ID: 17850927/0x0110622F) uses emote 11*
 22: 0x01C2 [0x99] Wait for Nestroh (ID: 17850927/0x0110622F) animation to complete
 23: 0x01C7 [0x02] IF !(Work_Zone[2] == 0*) GOTO 0x01D2
 24: 0x01CF [0x01] GOTO 0x020E
 25: 0x01D2 [0x02] IF !(Work_Zone[2] == 1*) GOTO 0x01E1
 26: 0x01DA [0x1D] PRINT_EVENT_MESSAGE(message_id=7543*)
    → "The firm, crunchy texture is like munching on hard candy...and the savoriness! By Altana, the savoriness!"
 27: 0x01DD [0x23] WAIT_FOR_DIALOG_INTERACTION
 28: 0x01DE [0x01] GOTO 0x020E
 29: 0x01E1 [0x02] IF !(Work_Zone[2] == 2*) GOTO 0x01F0
 30: 0x01E9 [0x1D] PRINT_EVENT_MESSAGE(message_id=7544*)
    → "The fatty section melts in my mouth like warm butter, and the rich taste lingers like soft cream!"
 31: 0x01EC [0x23] WAIT_FOR_DIALOG_INTERACTION
 32: 0x01ED [0x01] GOTO 0x020E
 33: 0x01F0 [0x02] IF !(Work_Zone[2] == 3*) GOTO 0x01FF
 34: 0x01F8 [0x1D] PRINT_EVENT_MESSAGE(message_id=7545*)
    → "The flesh is so delicate it almost falls off the bone, and the mouthwatering flavor dances like a fluttering twitherym!"
 35: 0x01FB [0x23] WAIT_FOR_DIALOG_INTERACTION
 36: 0x01FC [0x01] GOTO 0x020E
 37: 0x01FF [0x02] IF !(Work_Zone[2] == 4*) GOTO 0x020E
 38: 0x0207 [0x1D] PRINT_EVENT_MESSAGE(message_id=7546*)
    → "The refined, thick taste slides right down my throat, coating it with a scrumptious sheen!"
 39: 0x020A [0x23] WAIT_FOR_DIALOG_INTERACTION
 40: 0x020B [0x01] GOTO 0x020E

SUBROUTINE_020E:
 41: 0x020E [0x29] REQ_SET_WAIT(priority=0x08, entity_id=Nestroh (ID: 17850927/0x0110622F), tag_num=0x02)
 42: 0x0215 [0x1D] PRINT_EVENT_MESSAGE(message_id=7547*)
    → "Hmmm...mmm..."
 43: 0x0218 [0x23] WAIT_FOR_DIALOG_INTERACTION
 44: 0x0219 [0x29] REQ_SET_WAIT(priority=0x08, entity_id=Nestroh (ID: 17850927/0x0110622F), tag_num=0x03)
 45: 0x0220 [0x29] REQ_SET_WAIT(priority=0x08, entity_id=Nestroh (ID: 17850927/0x0110622F), tag_num=0x04)
 46: 0x0227 [0x1D] PRINT_EVENT_MESSAGE(message_id=7548*)
    → "Delightful, to be sure, but not the "out-of-this-world" bounty I was expecting. Come back if you find a more select choice of orobon meat for me."
 47: 0x022A [0x23] WAIT_FOR_DIALOG_INTERACTION
 48: 0x022B [0x29] REQ_SET_WAIT(priority=0x08, entity_id=Nestroh (ID: 17850927/0x0110622F), tag_num=0x05)

SUBROUTINE_0232:
 49: 0x0232 [0x21] END_EVENT
 50: 0x0233 [0x00] END_REQSTACK()
```

### Event 2574

#### Metadata

| Field        | Value     |
|--------------|-----------|
| Entrypoint   | 0x0234    |
| Data Size    | 389 bytes |
| Instructions | 59        |

```
      00 01 02 03 04 05 06 07  08 09 0A 0B 0C 0D 0E 0F
      -- -- -- -- -- -- -- --  -- -- -- -- -- -- -- --
0230:             42 03 02 10  13 80 1E F0 FF FF 7F 6F      B..........o
0240: 70 1D 10 80 23 45 12 80  F0 FF FF 7F F0 FF FF 7F  p...#E..........
0250: 66 64 6F 31 13 80 1D 14  80 23 55 12 80 F0 FF FF  fdo1.....#U.....
0260: 7F F0 FF FF 7F 66 64 6F  31 45 12 80 F0 FF FF 7F  .....fdo1E......
0270: F0 FF FF 7F 66 64 69 30  13 80 55 12 80 F0 FF FF  ....fdi0..U.....
0280: 7F F0 FF FF 7F 66 64 69  30 6E 2F 62 10 01 1D 80  .....fdi0n/b....
0290: 99 2F 62 10 01 1D 1E 80  23 1D 1F 80 23 48 20 80  ./b.....#...#H .
02A0: 23 45 12 80 F0 FF FF 7F  F0 FF FF 7F 62 6C 6F 6E  #E..........blon
02B0: 13 80 45 21 80 F0 FF FF  7F F0 FF FF 7F 62 6C 6F  ..E!.........blo
02C0: 6E 13 80 48 22 80 23 27  08 F0 FF FF 7F 10 45 12  n..H".#'......E.
02D0: 80 F0 FF FF 7F F0 FF FF  7F 66 64 6F 31 13 80 55  .........fdo1..U
02E0: 12 80 F0 FF FF 7F F0 FF  FF 7F 66 64 6F 31 45 23  ..........fdo1E#
02F0: 80 F8 FF FF 7F F8 FF FF  7F 61 33 32 30 13 80 55  .........a320..U
0300: 23 80 F8 FF FF 7F F8 FF  FF 7F 61 33 32 30 2A 08  #.........a320*.
0310: F0 FF FF 7F 29 08 F0 FF  FF 7F 11 29 08 2F 62 10  ....)......)./b.
0320: 01 02 1C 24 80 29 08 2F  62 10 01 03 45 12 80 F0  ...$.)./b...E...
0330: FF FF 7F F0 FF FF 7F 62  6C 6F 66 13 80 45 12 80  .......blof..E..
0340: F0 FF FF 7F F0 FF FF 7F  66 64 69 30 13 80 55 12  ........fdi0..U.
0350: 80 F0 FF FF 7F F0 FF FF  7F 66 64 69 30 29 08 2F  .........fdi0)./
0360: 62 10 01 04 1D 25 80 23  29 08 2F 62 10 01 05 27  b....%.#)./b...'
0370: 08 2F 62 10 01 01 1D 26  80 23 2A 08 2F 62 10 01  ./b....&.#*./b..
0380: 27 08 2F 62 10 01 0B 1D  27 80 23 1D 28 80 23 2A  './b....'.#.(.#*
0390: 08 2F 62 10 01 27 08 2F  62 10 01 0B 1D 29 80 23  ./b..'./b....).#
03A0: 2A 08 2F 62 10 01 45 21  80 F8 FF FF 7F F8 FF FF  *./b..E!........
03B0: 7F 71 73 74 63 13 80 21  00                       .qstc..!.       
```

#### Opcodes

```
  0: 0x0234 [0x42] SET_CLI_EVENT_CANCEL_DATA()
  1: 0x0235 [0x03] Work_Zone[2] = 0*
  2: 0x023A [0x1E] EventEntity looks at LocalPlayer and starts talking
  3: 0x023F [0x6F] WAIT_FRAME_DELAY: Yield until WaitTime reaches zero
  4: 0x0240 [0x70] WAIT_ENTITY_RENDER_FLAG: Wait while EventEntity->Render.Flags3 bit 2 is set (cancel turn if not)
  5: 0x0241 [0x1D] PRINT_EVENT_MESSAGE(message_id=7541*)
    → "Hmm...this meat is from the [liver/cheeks/stomach/back/tail] of the creature."
  6: 0x0244 [0x23] WAIT_FOR_DIALOG_INTERACTION
  7: 0x0245 [0x45] LOAD_SCHEDULED_TASK: Load scheduler "fdo1" with entities [LocalPlayer, LocalPlayer], work=[200*, 0*]
  8: 0x0256 [0x1D] PRINT_EVENT_MESSAGE(message_id=7542*)
    → "Let's tear into this sucker! ...<Chomp>...<chew>...mmm..."
  9: 0x0259 [0x23] WAIT_FOR_DIALOG_INTERACTION
 10: 0x025A [0x55] WAIT_LOAD_SCHEDULER: Wait for scheduler "fdo1" with entities [LocalPlayer, LocalPlayer], work=200*
 11: 0x0269 [0x45] LOAD_SCHEDULED_TASK: Load scheduler "fdi0" with entities [LocalPlayer, LocalPlayer], work=[200*, 0*]
 12: 0x027A [0x55] WAIT_LOAD_SCHEDULER: Wait for scheduler "fdi0" with entities [LocalPlayer, LocalPlayer], work=200*
 13: 0x0289 [0x6E] Nestroh (ID: 17850927/0x0110622F) uses emote 36*
 14: 0x0290 [0x99] Wait for Nestroh (ID: 17850927/0x0110622F) animation to complete
 15: 0x0295 [0x1D] PRINT_EVENT_MESSAGE(message_id=7550*)
    → "This...this is... Unbelievable! The strong aroma and ambrosial flavor! It rushes straight to my head like blood when you stand up too fast!"
 16: 0x0298 [0x23] WAIT_FOR_DIALOG_INTERACTION
 17: 0x0299 [0x1D] PRINT_EVENT_MESSAGE(message_id=7551*)
    → "Yes! This is it! The out-of-this-world flavor I have been seeking! It sends shivers down my spine! Here, you absolutely have to try this!"
 18: 0x029C [0x23] WAIT_FOR_DIALOG_INTERACTION
 19: 0x029D [0x48] [System] [7552*]:
    → "Nestroh practically shoves the meat down your throat!"
 20: 0x02A0 [0x23] WAIT_FOR_DIALOG_INTERACTION
 21: 0x02A1 [0x45] LOAD_SCHEDULED_TASK: Load scheduler "blon" with entities [LocalPlayer, LocalPlayer], work=[200*, 0*]
 22: 0x02B2 [0x45] LOAD_SCHEDULED_TASK: Load scheduler "blon" with entities [LocalPlayer, LocalPlayer], work=[201*, 0*]
 23: 0x02C3 [0x48] [System] [7553*]:
    → "It is quite good, but...the pins and needles prickling your throat indicate this may not have been such a good idea."
 24: 0x02C6 [0x23] WAIT_FOR_DIALOG_INTERACTION
 25: 0x02C7 [0x27] REQ_SET(priority=0x08, entity_id=LocalPlayer, tag_num=0x10)
 26: 0x02CE [0x45] LOAD_SCHEDULED_TASK: Load scheduler "fdo1" with entities [LocalPlayer, LocalPlayer], work=[200*, 0*]
 27: 0x02DF [0x55] WAIT_LOAD_SCHEDULER: Wait for scheduler "fdo1" with entities [LocalPlayer, LocalPlayer], work=200*
 28: 0x02EE [0x45] LOAD_SCHEDULED_TASK: Load scheduler "a320" with entities [EventEntity, EventEntity], work=[581*, 0*]
 29: 0x02FF [0x55] WAIT_LOAD_SCHEDULER: Wait for scheduler "a320" with entities [EventEntity, EventEntity], work=581*
 30: 0x030E [0x2A] GET_REQ_LEVEL(level=8, entity_id=LocalPlayer)
 31: 0x0314 [0x29] REQ_SET_WAIT(priority=0x08, entity_id=LocalPlayer, tag_num=0x11)
 32: 0x031B [0x29] REQ_SET_WAIT(priority=0x08, entity_id=Nestroh (ID: 17850927/0x0110622F), tag_num=0x02)
 33: 0x0322 [0x1C] WAIT(180* ticks)
 34: 0x0325 [0x29] REQ_SET_WAIT(priority=0x08, entity_id=Nestroh (ID: 17850927/0x0110622F), tag_num=0x03)
 35: 0x032C [0x45] LOAD_SCHEDULED_TASK: Load scheduler "blof" with entities [LocalPlayer, LocalPlayer], work=[200*, 0*]
 36: 0x033D [0x45] LOAD_SCHEDULED_TASK: Load scheduler "fdi0" with entities [LocalPlayer, LocalPlayer], work=[200*, 0*]
 37: 0x034E [0x55] WAIT_LOAD_SCHEDULER: Wait for scheduler "fdi0" with entities [LocalPlayer, LocalPlayer], work=200*
 38: 0x035D [0x29] REQ_SET_WAIT(priority=0x08, entity_id=Nestroh (ID: 17850927/0x0110622F), tag_num=0x04)
 39: 0x0364 [0x1D] PRINT_EVENT_MESSAGE(message_id=7554*)
    → "Outstanding, isn't it? Isn't it!?"
 40: 0x0367 [0x23] WAIT_FOR_DIALOG_INTERACTION
 41: 0x0368 [0x29] REQ_SET_WAIT(priority=0x08, entity_id=Nestroh (ID: 17850927/0x0110622F), tag_num=0x05)
 42: 0x036F [0x27] REQ_SET(priority=0x08, entity_id=Nestroh (ID: 17850927/0x0110622F), tag_num=0x01)
 43: 0x0376 [0x1D] PRINT_EVENT_MESSAGE(message_id=7555*)
    → "<Huff> I thought I was shaking because of the taste, but it might have just been all the toxins that had accumulated in the liver..."
 44: 0x0379 [0x23] WAIT_FOR_DIALOG_INTERACTION
 45: 0x037A [0x2A] GET_REQ_LEVEL(level=8, entity_id=Nestroh (ID: 17850927/0x0110622F))
 46: 0x0380 [0x27] REQ_SET(priority=0x08, entity_id=Nestroh (ID: 17850927/0x0110622F), tag_num=0x0B)
 47: 0x0387 [0x1D] PRINT_EVENT_MESSAGE(message_id=7556*)
    → "If someone from the Scouts' Coalition hadn't showed up at that exact moment, I'd have gone belly-up. Bwahaha!"
 48: 0x038A [0x23] WAIT_FOR_DIALOG_INTERACTION
 49: 0x038B [0x1D] PRINT_EVENT_MESSAGE(message_id=7557*)
    → "But fortunately for me, the guy mentioned something about being more resistant to paresis thanks to eating that delightful dish."
 50: 0x038E [0x23] WAIT_FOR_DIALOG_INTERACTION
 51: 0x038F [0x2A] GET_REQ_LEVEL(level=8, entity_id=Nestroh (ID: 17850927/0x0110622F))
 52: 0x0395 [0x27] REQ_SET(priority=0x08, entity_id=Nestroh (ID: 17850927/0x0110622F), tag_num=0x0B)
 53: 0x039C [0x1D] PRINT_EVENT_MESSAGE(message_id=7558*)
    → "The perfect combination of provisions and protection, wouldn't you say?"
 54: 0x039F [0x23] WAIT_FOR_DIALOG_INTERACTION
 55: 0x03A0 [0x2A] GET_REQ_LEVEL(level=8, entity_id=Nestroh (ID: 17850927/0x0110622F))
 56: 0x03A6 [0x45] LOAD_SCHEDULED_TASK: Load scheduler "qstc" with entities [EventEntity, EventEntity], work=[201*, 0*]
 57: 0x03B7 [0x21] END_EVENT
 58: 0x03B8 [0x00] END_REQSTACK()
```

### Event 2575

#### Metadata

| Field        | Value    |
|--------------|----------|
| Entrypoint   | 0x03B9   |
| Data Size    | 26 bytes |
| Instructions | 9        |

```
      00 01 02 03 04 05 06 07  08 09 0A 0B 0C 0D 0E 0F
      -- -- -- -- -- -- -- --  -- -- -- -- -- -- -- --
03B0:                             1E F0 FF FF 7F 6F 70           .....op
03C0: 27 08 2F 62 10 01 01 1D  2A 80 23 2A 08 2F 62 10  './b....*.#*./b.
03D0: 01 21 00                                          .!.             
```

#### Opcodes

```
  0: 0x03B9 [0x1E] EventEntity looks at LocalPlayer and starts talking
  1: 0x03BE [0x6F] WAIT_FRAME_DELAY: Yield until WaitTime reaches zero
  2: 0x03BF [0x70] WAIT_ENTITY_RENDER_FLAG: Wait while EventEntity->Render.Flags3 bit 2 is set (cancel turn if not)
  3: 0x03C0 [0x27] REQ_SET(priority=0x08, entity_id=Nestroh (ID: 17850927/0x0110622F), tag_num=0x01)
  4: 0x03C7 [0x1D] PRINT_EVENT_MESSAGE(message_id=7559*)
    → "The next time I get me ahold of that sucker, it'll be more delicious than ever!"
  5: 0x03CA [0x23] WAIT_FOR_DIALOG_INTERACTION
  6: 0x03CB [0x2A] GET_REQ_LEVEL(level=8, entity_id=Nestroh (ID: 17850927/0x0110622F))
  7: 0x03D1 [0x21] END_EVENT
  8: 0x03D2 [0x00] END_REQSTACK()
```
