# 17850985

## Common Data

| Field            | Value                        |
|------------------|------------------------------|
| Zone             | Foret de Hennetiel (ID: 262) |
| Block Size       | 11288 bytes                  |
| Total Events     | 7                            |
| References Count | 274                          |

## List of Events

| Event ID              | Entrypoint   |   Size |   Instructions |
|-----------------------|--------------|--------|----------------|
| [65535](#event-65535) | 0x0000       |      1 |              1 |
| [519](#event-519)     | 0x0001       |    990 |            119 |
| [521](#event-521)     | 0x03DF       |   2260 |            256 |
| [525](#event-525)     | 0x0CB3       |   1038 |            110 |
| [527](#event-527)     | 0x10C1       |   1109 |            126 |
| [528](#event-528)     | 0x1516       |   4457 |            518 |
| [529](#event-529)     | 0x267F       |    290 |             34 |

## DAT References (imed_data)

|   Index | Hex Value   |   Dec Value |
|---------|-------------|-------------|
|       0 | 0x00C8      |         200 |
|       1 | 0x0000      |           0 |
|       2 | 0x0013      |          19 |
|       3 | 0x60BCA     |      396234 |
|       4 | 0x3ECE2     |      257250 |
|       5 | 0xFFFFFB8A  |  4294966154 |
|       6 | 0x0DFB      |        3579 |
|       7 | 0x60DD5     |      396757 |
|       8 | 0x3E3A1     |      254881 |
|       9 | 0xFFFFFADC  |  4294965980 |
|      10 | 0x0E1F      |        3615 |
|      11 | 0x63CFC     |      408828 |
|      12 | 0x4234B     |      271179 |
|      13 | 0xFFFFF72E  |  4294965038 |
|      14 | 0x0245      |         581 |
|      15 | 0x63E97     |      409239 |
|      16 | 0x42693     |      272019 |
|      17 | 0xFFFFF713  |  4294965011 |
|      18 | 0x058D      |        1421 |
|      19 | 0x63F79     |      409465 |
|      20 | 0x41C32     |      269362 |
|      21 | 0x0D73      |        3443 |
|      22 | 0x001E      |          30 |
|      23 | 0x001D      |          29 |
|      24 | 0x005A      |          90 |
|      25 | 0x0278      |         632 |
|      26 | 0x000F      |          15 |
|      27 | 0x003C      |          60 |
|      28 | 0x1F64      |        8036 |
|      29 | 0x1F65      |        8037 |
|      30 | 0x000A      |          10 |
|      31 | 0x1F66      |        8038 |
|      32 | 0x1F67      |        8039 |
|      33 | 0x1F68      |        8040 |
|      34 | 0x0050      |          80 |
|      35 | 0x0028      |          40 |
|      36 | 0x1F69      |        8041 |
|      37 | 0x000B      |          11 |
|      38 | 0x1F6A      |        8042 |
|      39 | 0x1F6B      |        8043 |
|      40 | 0x1F6C      |        8044 |
|      41 | 0x0927      |        2343 |
|      42 | 0x1F6D      |        8045 |
|      43 | 0x00FF      |         255 |
|      44 | 0x0002      |           2 |
|      45 | 0x612E6     |      398054 |
|      46 | 0x43C7F     |      277631 |
|      47 | 0xFFFFF830  |  4294965296 |
|      48 | 0x0A63      |        2659 |
|      49 | 0x6100A     |      397322 |
|      50 | 0x43F3E     |      278334 |
|      51 | 0x0EF6      |        3830 |
|      52 | 0x63CEF     |      408815 |
|      53 | 0x3E78B     |      255883 |
|      54 | 0xFFFFF9FE  |  4294965758 |
|      55 | 0x0BA1      |        2977 |
|      56 | 0x63684     |      407172 |
|      57 | 0x429D6     |      272854 |
|      58 | 0xFFFFF756  |  4294965078 |
|      59 | 0x04E8      |        1256 |
|      60 | 0x633E4     |      406500 |
|      61 | 0x41FD1     |      270289 |
|      62 | 0xFFFFF824  |  4294965284 |
|      63 | 0x1F70      |        8048 |
|      64 | 0x0032      |          50 |
|      65 | 0x632C4     |      406212 |
|      66 | 0x4281C     |      272412 |
|      67 | 0xFFFFF7DC  |  4294965212 |
|      68 | 0x03A8      |         936 |
|      69 | 0x0096      |         150 |
|      70 | 0x0007      |           7 |
|      71 | 0x1F71      |        8049 |
|      72 | 0x00C2      |         194 |
|      73 | 0x00B4      |         180 |
|      74 | 0x0A11      |        2577 |
|      75 | 0x1F72      |        8050 |
|      76 | 0x1F73      |        8051 |
|      77 | 0x0078      |         120 |
|      78 | 0x00C9      |         201 |
|      79 | 0x63F5C     |      409436 |
|      80 | 0x41B9A     |      269210 |
|      81 | 0xFFFFF73F  |  4294965055 |
|      82 | 0x1F74      |        8052 |
|      83 | 0x00EA      |         234 |
|      84 | 0x0039      |          57 |
|      85 | 0x0058      |          88 |
|      86 | 0x0015      |          21 |
|      87 | 0x1F75      |        8053 |
|      88 | 0x1F76      |        8054 |
|      89 | 0x0003      |           3 |
|      90 | 0x1F77      |        8055 |
|      91 | 0x1F78      |        8056 |
|      92 | 0x61F1C     |      401180 |
|      93 | 0x436A2     |      276130 |
|      94 | 0xFFFFF829  |  4294965289 |
|      95 | 0x0A2C      |        2604 |
|      96 | 0x60D38     |      396600 |
|      97 | 0x42E83     |      274051 |
|      98 | 0xFFFFF891  |  4294965393 |
|      99 | 0x020F      |         527 |
|     100 | 0x63AEC     |      408300 |
|     101 | 0x3F7A0     |      260000 |
|     102 | 0xFFFFF95C  |  4294965596 |
|     103 | 0x1F79      |        8057 |
|     104 | 0x1F7A      |        8058 |
|     105 | 0x1F7B      |        8059 |
|     106 | 0x61B06     |      400134 |
|     107 | 0x40036     |      262198 |
|     108 | 0xFFFFFBAA  |  4294966186 |
|     109 | 0x0E7F      |        3711 |
|     110 | 0x61B40     |      400192 |
|     111 | 0x3F8AC     |      260268 |
|     112 | 0xFFFFFC0A  |  4294966282 |
|     113 | 0x0DE3      |        3555 |
|     114 | 0x02EB      |         747 |
|     115 | 0x1F7D      |        8061 |
|     116 | 0x1F7E      |        8062 |
|     117 | 0x0009      |           9 |
|     118 | 0x1F7F      |        8063 |
|     119 | 0x1F80      |        8064 |
|     120 | 0x1F81      |        8065 |
|     121 | 0x0005      |           5 |
|     122 | 0x0006      |           6 |
|     123 | 0x1F82      |        8066 |
|     124 | 0x1F83      |        8067 |
|     125 | 0x1F84      |        8068 |
|     126 | 0x1F85      |        8069 |
|     127 | 0x1F86      |        8070 |
|     128 | 0x1F87      |        8071 |
|     129 | 0x1F88      |        8072 |
|     130 | 0x1F89      |        8073 |
|     131 | 0x1F8A      |        8074 |
|     132 | 0x6AB2A     |      437034 |
|     133 | 0xFFFBE6EF  |  4294698735 |
|     134 | 0xFFFFF9A2  |  4294965666 |
|     135 | 0x04D5      |        1237 |
|     136 | 0x6A5DF     |      435679 |
|     137 | 0xFFFBE36D  |  4294697837 |
|     138 | 0xFFFFF90F  |  4294965519 |
|     139 | 0x6AC58     |      437336 |
|     140 | 0xFFFBF09A  |  4294701210 |
|     141 | 0xFFFFFA7C  |  4294965884 |
|     142 | 0x037C      |         892 |
|     143 | 0x6AF56     |      438102 |
|     144 | 0xFFFBA2C0  |  4294681280 |
|     145 | 0xFFFFF7A8  |  4294965160 |
|     146 | 0x1F8C      |        8076 |
|     147 | 0x0001      |           1 |
|     148 | 0x1F8D      |        8077 |
|     149 | 0x004F      |          79 |
|     150 | 0x1F8E      |        8078 |
|     151 | 0x6AF53     |      438099 |
|     152 | 0xFFFBBDC7  |  4294688199 |
|     153 | 0x03E9      |        1001 |
|     154 | 0x1F8F      |        8079 |
|     155 | 0x0014      |          20 |
|     156 | 0x1F90      |        8080 |
|     157 | 0x6CA73     |      445043 |
|     158 | 0xFFFBB14A  |  4294685002 |
|     159 | 0xFFFFF7EE  |  4294965230 |
|     160 | 0x03FF      |        1023 |
|     161 | 0x6C69A     |      444058 |
|     162 | 0xFFFBB883  |  4294686851 |
|     163 | 0xFFFFF82B  |  4294965291 |
|     164 | 0x06F8      |        1784 |
|     165 | 0x6A5C9     |      435657 |
|     166 | 0xFFFBD781  |  4294694785 |
|     167 | 0xFFFFF88D  |  4294965389 |
|     168 | 0x69EA3     |      433827 |
|     169 | 0xFFFBDB03  |  4294695683 |
|     170 | 0xFFFFF74A  |  4294965066 |
|     171 | 0x6A3F5     |      435189 |
|     172 | 0xFFFBE420  |  4294698016 |
|     173 | 0xFFFFF8A2  |  4294965410 |
|     174 | 0x1F91      |        8081 |
|     175 | 0x1F92      |        8082 |
|     176 | 0x6A79F     |      436127 |
|     177 | 0xFFFBA8A8  |  4294682792 |
|     178 | 0xFFFFF836  |  4294965302 |
|     179 | 0x6B007     |      438279 |
|     180 | 0xFFFBAA41  |  4294683201 |
|     181 | 0x1F93      |        8083 |
|     182 | 0x1F94      |        8084 |
|     183 | 0x1F95      |        8085 |
|     184 | 0x1F96      |        8086 |
|     185 | 0x1F97      |        8087 |
|     186 | 0x0045      |          69 |
|     187 | 0x1F98      |        8088 |
|     188 | 0x1F99      |        8089 |
|     189 | 0x0016      |          22 |
|     190 | 0x1F9A      |        8090 |
|     191 | 0x1F9B      |        8091 |
|     192 | 0x0024      |          36 |
|     193 | 0x1F9C      |        8092 |
|     194 | 0x1F9D      |        8093 |
|     195 | 0x1F9E      |        8094 |
|     196 | 0x1F9F      |        8095 |
|     197 | 0x1FA0      |        8096 |
|     198 | 0x1FA1      |        8097 |
|     199 | 0x1FA2      |        8098 |
|     200 | 0x1FA3      |        8099 |
|     201 | 0x1FA4      |        8100 |
|     202 | 0x1FA5      |        8101 |
|     203 | 0x1FA6      |        8102 |
|     204 | 0x1FA7      |        8103 |
|     205 | 0x1FA8      |        8104 |
|     206 | 0x6B7B7     |      440247 |
|     207 | 0xFFFBB464  |  4294685796 |
|     208 | 0x6AA2A     |      436778 |
|     209 | 0xFFFBB693  |  4294686355 |
|     210 | 0x6B18D     |      438669 |
|     211 | 0xFFFBB863  |  4294686819 |
|     212 | 0x6AAB6     |      436918 |
|     213 | 0xFFFBC2D9  |  4294689497 |
|     214 | 0x03E0      |         992 |
|     215 | 0x0020      |          32 |
|     216 | 0x1FA9      |        8105 |
|     217 | 0x0031      |          49 |
|     218 | 0x1FAA      |        8106 |
|     219 | 0x1FAB      |        8107 |
|     220 | 0x0868      |        2152 |
|     221 | 0x00A0      |         160 |
|     222 | 0x1FAC      |        8108 |
|     223 | 0x008C      |         140 |
|     224 | 0x1FAD      |        8109 |
|     225 | 0x0048      |          72 |
|     226 | 0x0004      |           4 |
|     227 | 0x00AA      |         170 |
|     228 | 0x00BE      |         190 |
|     229 | 0x0008      |           8 |
|     230 | 0x1FAE      |        8110 |
|     231 | 0x1FAF      |        8111 |
|     232 | 0x1FB0      |        8112 |
|     233 | 0x1FB1      |        8113 |
|     234 | 0x1FB2      |        8114 |
|     235 | 0x1FB3      |        8115 |
|     236 | 0x1FB4      |        8116 |
|     237 | 0x1FB5      |        8117 |
|     238 | 0x1FB6      |        8118 |
|     239 | 0x1FB7      |        8119 |
|     240 | 0x6C4BD     |      443581 |
|     241 | 0xFFFBB280  |  4294685312 |
|     242 | 0x00E7      |         231 |
|     243 | 0x6B31C     |      439068 |
|     244 | 0xFFFBBC6E  |  4294687854 |
|     245 | 0x1FB8      |        8120 |
|     246 | 0x1FB9      |        8121 |
|     247 | 0x1FBA      |        8122 |
|     248 | 0x1FBB      |        8123 |
|     249 | 0x1FBC      |        8124 |
|     250 | 0x1FBD      |        8125 |
|     251 | 0x1FBE      |        8126 |
|     252 | 0x1FBF      |        8127 |
|     253 | 0x1FC0      |        8128 |
|     254 | 0x66BAE     |      420782 |
|     255 | 0xFFFBF104  |  4294701316 |
|     256 | 0xFFFE8D4C  |  4294872396 |
|     257 | 0x0375      |         885 |
|     258 | 0x00AD      |         173 |
|     259 | 0x009F      |         159 |
|     260 | 0x00D7      |         215 |
|     261 | 0x1FC1      |        8129 |
|     262 | 0x1FC2      |        8130 |
|     263 | 0x6AF64     |      438116 |
|     264 | 0xFFFBBAF8  |  4294687480 |
|     265 | 0x0149      |         329 |
|     266 | 0x1FC3      |        8131 |
|     267 | 0x1FC4      |        8132 |
|     268 | 0x1FC5      |        8133 |
|     269 | 0x1FC6      |        8134 |
|     270 | 0x1FC7      |        8135 |
|     271 | 0x1FC8      |        8136 |
|     272 | 0x1FC9      |        8137 |
|     273 | 0x1FCA      |        8138 |

## Events

### Event 65535

#### Metadata

| Field        | Value   |
|--------------|---------|
| Entrypoint   | 0x0000  |
| Data Size    | 1 bytes |
| Instructions | 1       |

```
      00 01 02 03 04 05 06 07  08 09 0A 0B 0C 0D 0E 0F
      -- -- -- -- -- -- -- --  -- -- -- -- -- -- -- --
0000: 00                                                .               
```

#### Opcodes

```
  0: 0x0000 [0x00] END_REQSTACK()
```

### Event 519

#### Metadata

| Field        | Value     |
|--------------|-----------|
| Entrypoint   | 0x0001    |
| Data Size    | 990 bytes |
| Instructions | 119       |

```
      00 01 02 03 04 05 06 07  08 09 0A 0B 0C 0D 0E 0F
      -- -- -- -- -- -- -- --  -- -- -- -- -- -- -- --
0000:    42 45 00 80 F8 FF FF  7F F8 FF FF 7F 66 64 6F   BE..........fdo
0010: 31 01 80 55 00 80 F8 FF  FF 7F F8 FF FF 7F 66 64  1..U..........fd
0020: 6F 31 46 01 38 02 80 2F  00 6A 62 10 01 2F 00 6B  o1F.8../.jb../.k
0030: 62 10 01 92 01 6A 62 10  01 92 01 29 62 10 01 92  b....jb....)b...
0040: 01 6B 62 10 01 92 01 30  62 10 01 94 01 6A 62 10  .kb....0b....jb.
0050: 01 94 01 F0 FF FF 7F 94  01 29 62 10 01 94 01 6B  .........)b....k
0060: 62 10 01 94 01 30 62 10  01 4E 00 6A 62 10 01 4E  b....0b..N.jb..N
0070: 00 6B 62 10 01 BA 6A 62  10 01 03 80 04 80 05 80  .kb...jb........
0080: 06 80 BA F0 FF FF 7F 07  80 08 80 09 80 0A 80 BA  ................
0090: 6B 62 10 01 0B 80 0C 80  0D 80 0E 80 BA 30 62 10  kb...........0b.
00A0: 01 0F 80 10 80 11 80 12  80 BA 29 62 10 01 13 80  ..........)b....
00B0: 14 80 0D 80 15 80 80 6A  62 10 01 80 F0 FF FF 7F  .......jb.......
00C0: 80 29 62 10 01 80 6B 62  10 01 80 30 62 10 01 4A  .)b...kb...0b..J
00D0: 29 62 10 01 6B 62 10 01  79 00 30 62 10 01 6B 62  )b..kb..y.0b..kb
00E0: 10 01 1C 16 80 2C 6B 62  10 01 6B 62 10 01 63 6F  .....,kb..kb..co
00F0: 72 70 66 17 80 30 62 10  01 30 62 10 01 73 68 61  rpf..0b..0b..sha
0100: 30 1C 18 80 45 19 80 F8  FF FF 7F F8 FF FF 7F 73  0...E..........s
0110: 30 33 36 01 80 1C 1A 80  45 00 80 F8 FF FF 7F F8  036.....E.......
0120: FF FF 7F 66 64 69 31 01  80 1C 1B 80 27 05 6A 62  ...fdi1.....'.jb
0130: 10 01 02 1C 16 80 27 05  F0 FF FF 7F 21 1C 16 80  ......'.....!...
0140: 52 19 80 F8 FF FF 7F F8  FF FF 7F 73 30 33 36 45  R..........s036E
0150: 19 80 F8 FF FF 7F F8 FF  FF 7F 73 30 33 37 01 80  ..........s037..
0160: 7C 00 6A 62 10 01 2B 6A  62 10 01 1C 80 23 7C 01  |.jb..+jb....#|.
0170: 6A 62 10 01 2A 05 6A 62  10 01 2A 05 F0 FF FF 7F  jb..*.jb..*.....
0180: 27 05 6A 62 10 01 03 1C  1A 80 27 05 F0 FF FF 7F  '.jb......'.....
0190: 22 52 19 80 F8 FF FF 7F  F8 FF FF 7F 73 30 33 37  "R..........s037
01A0: 45 19 80 F8 FF FF 7F F8  FF FF 7F 73 30 33 39 01  E..........s039.
01B0: 80 2B 6A 62 10 01 1D 80  1C 18 80 52 19 80 F8 FF  .+jb.......R....
01C0: FF 7F F8 FF FF 7F 73 30  33 39 45 19 80 F8 FF FF  ......s039E.....
01D0: 7F F8 FF FF 7F 73 30 33  38 01 80 23 4A 29 62 10  .....s038..#J)b.
01E0: 01 6A 62 10 01 1C 16 80  66 1E 80 29 62 10 01 29  .jb.....f..)b..)
01F0: 62 10 01 74 6C 6B 30 2B  29 62 10 01 1F 80 23 2B  b..tlk0+)b....#+
0200: 29 62 10 01 20 80 23 66  1E 80 29 62 10 01 29 62  )b.. .#f..)b..)b
0210: 10 01 74 6C 6B 31 52 19  80 F8 FF FF 7F F8 FF FF  ..tlk1R.........
0220: 7F 73 30 33 38 45 19 80  F8 FF FF 7F F8 FF FF 7F  .s038E..........
0230: 73 30 34 30 01 80 27 05  6A 62 10 01 04 2B 6A 62  s040..'.jb...+jb
0240: 10 01 21 80 23 2A 05 6A  62 10 01 52 19 80 F8 FF  ..!.#*.jb..R....
0250: FF 7F F8 FF FF 7F 73 30  34 30 45 19 80 F8 FF FF  ......s040E.....
0260: 7F F8 FF FF 7F 73 30 34  31 01 80 4A 29 62 10 01  .....s041..J)b..
0270: F0 FF FF 7F 27 05 F0 FF  FF 7F 02 1C 22 80 27 05  ....'.......".'.
0280: F0 FF FF 7F 03 1C 23 80  52 19 80 F8 FF FF 7F F8  ......#.R.......
0290: FF FF 7F 73 30 34 31 45  19 80 F8 FF FF 7F F8 FF  ...s041E........
02A0: FF 7F 73 30 34 32 01 80  2B 29 62 10 01 24 80 23  ..s042..+)b..$.#
02B0: 55 19 80 F8 FF FF 7F F8  FF FF 7F 73 30 34 32 66  U..........s042f
02C0: 25 80 29 62 10 01 29 62  10 01 75 74 6C 30 2B 29  %.)b..)b..utl0+)
02D0: 62 10 01 26 80 23 66 25  80 29 62 10 01 29 62 10  b..&.#f%.)b..)b.
02E0: 01 75 74 6C 31 45 19 80  F8 FF FF 7F F8 FF FF 7F  .utl1E..........
02F0: 73 30 34 33 01 80 1C 1A  80 4A F0 FF FF 7F 6A 62  s043.....J....jb
0300: 10 01 4A 29 62 10 01 6A  62 10 01 2B 6B 62 10 01  ..J)b..jb..+kb..
0310: 27 80 23 1C 16 80 52 19  80 F8 FF FF 7F F8 FF FF  '.#...R.........
0320: 7F 73 30 34 33 45 19 80  F8 FF FF 7F F8 FF FF 7F  .s043E..........
0330: 73 30 34 34 01 80 2B 6A  62 10 01 28 80 23 66 02  s044..+jb..(.#f.
0340: 80 6A 62 10 01 6A 62 10  01 73 68 61 31 52 19 80  .jb..jb..sha1R..
0350: F8 FF FF 7F F8 FF FF 7F  73 30 34 34 45 19 80 F8  ........s044E...
0360: FF FF 7F F8 FF FF 7F 73  30 34 35 01 80 1C 18 80  .......s045.....
0370: 4A 6A 62 10 01 F0 FF FF  7F 1C 16 80 66 02 80 6A  Jjb.........f..j
0380: 62 10 01 6A 62 10 01 74  6C 6B 30 03 02 10 29 80  b..jb..tlk0...).
0390: 2B 6A 62 10 01 2A 80 23  45 00 80 F8 FF FF 7F F8  +jb..*.#E.......
03A0: FF FF 7F 66 64 6F 31 01  80 55 00 80 F8 FF FF 7F  ...fdo1..U......
03B0: F8 FF FF 7F 66 64 6F 31  52 19 80 F8 FF FF 7F F8  ....fdo1R.......
03C0: FF FF 7F 73 30 34 35 46  00 1C 1B 80 45 00 80 F8  ...s045F....E...
03D0: FF FF 7F F8 FF FF 7F 66  64 69 32 01 80 21 00     .......fdi2..!. 
```

#### Opcodes

```
  0: 0x0001 [0x42] SET_CLI_EVENT_CANCEL_DATA()
  1: 0x0002 [0x45] LOAD_SCHEDULED_TASK: Load scheduler "fdo1" with entities [EventEntity, EventEntity], work=[200*, 0*]
  2: 0x0013 [0x55] WAIT_LOAD_SCHEDULER: Wait for scheduler "fdo1" with entities [EventEntity, EventEntity], work=200*
  3: 0x0022 [0x46] CAMERA_CONTROL: Disable user control
  4: 0x0024 [0x38] SET_CLIENT_EVENT_MODE(mode=19*)
  5: 0x0027 [0x2F] Alianne (ID: 17850986/0x0110626A)->Render.Flags0 &= ~0x80000 // Bit 19
  6: 0x002D [0x2F] Davengrot (ID: 17850987/0x0110626B)->Render.Flags0 &= ~0x80000 // Bit 19
  7: 0x0033 [0x92] Alianne (ID: 17850986/0x0110626A)->Render.Flags3 ^= 0x01
  8: 0x0039 [0x92] Fritha (ID: 17850921/0x01106229)->Render.Flags3 ^= 0x01
  9: 0x003F [0x92] Davengrot (ID: 17850987/0x0110626B)->Render.Flags3 ^= 0x01
 10: 0x0045 [0x92] Deumagneot (ID: 17850928/0x01106230)->Render.Flags3 ^= 0x01
 11: 0x004B [0x94] Alianne (ID: 17850986/0x0110626A)->Render.Flags3 ^= 0x01
 12: 0x0051 [0x94] LocalPlayer->Render.Flags3 ^= 0x01
 13: 0x0057 [0x94] Fritha (ID: 17850921/0x01106229)->Render.Flags3 ^= 0x01
 14: 0x005D [0x94] Davengrot (ID: 17850987/0x0110626B)->Render.Flags3 ^= 0x01
 15: 0x0063 [0x94] Deumagneot (ID: 17850928/0x01106230)->Render.Flags3 ^= 0x01
 16: 0x0069 [0x4E] SET_ENTITY_HIDE_FLAG: Show Alianne (ID: 17850986/0x0110626A)
 17: 0x006F [0x4E] SET_ENTITY_HIDE_FLAG: Show Davengrot (ID: 17850987/0x0110626B)
 18: 0x0075 [0xBA] SET_ENTITY_POSITION(entity_id=Alianne (ID: 17850986/0x0110626A), pos_x=396.234*, pos_z=257.250*, pos_y=-1.142*, direction=314.6°*)
 19: 0x0082 [0xBA] SET_ENTITY_POSITION(entity_id=LocalPlayer, pos_x=396.757*, pos_z=254.881*, pos_y=-1.316*, direction=317.7°*)
 20: 0x008F [0xBA] SET_ENTITY_POSITION(entity_id=Davengrot (ID: 17850987/0x0110626B), pos_x=408.828*, pos_z=271.179*, pos_y=-2.258*, direction=51.1°*)
 21: 0x009C [0xBA] SET_ENTITY_POSITION(entity_id=Deumagneot (ID: 17850928/0x01106230), pos_x=409.239*, pos_z=272.019*, pos_y=-2.285*, direction=124.9°*)
 22: 0x00A9 [0xBA] SET_ENTITY_POSITION(entity_id=Fritha (ID: 17850921/0x01106229), pos_x=409.465*, pos_z=269.362*, pos_y=-2.258*, direction=302.6°*)
 23: 0x00B6 [0x80] LOAD_WAIT(entity=Alianne (ID: 17850986/0x0110626A))
 24: 0x00BB [0x80] LOAD_WAIT(entity=LocalPlayer)
 25: 0x00C0 [0x80] LOAD_WAIT(entity=Fritha (ID: 17850921/0x01106229))
 26: 0x00C5 [0x80] LOAD_WAIT(entity=Davengrot (ID: 17850987/0x0110626B))
 27: 0x00CA [0x80] LOAD_WAIT(entity=Deumagneot (ID: 17850928/0x01106230))
 28: 0x00CF [0x4A] Fritha (ID: 17850921/0x01106229) looks at Davengrot (ID: 17850987/0x0110626B)
 29: 0x00D8 [0x79] Deumagneot (ID: 17850928/0x01106230) looks at Davengrot (ID: 17850987/0x0110626B) (Basic look)
 30: 0x00E2 [0x1C] WAIT(30* ticks)
 31: 0x00E5 [0x2C] CREATE_SCHEDULER_TASK: Create scheduler "corp" with entities [Davengrot (ID: 17850987/0x0110626B), Davengrot (ID: 17850987/0x0110626B)]
 32: 0x00F2 [0x66] LOAD_EXT_SCHEDULER_MAIN: Load scheduler "sha0" with entities [Deumagneot (ID: 17850928/0x01106230), Deumagneot (ID: 17850928/0x01106230)], work=29*
 33: 0x0101 [0x1C] WAIT(90* ticks)
 34: 0x0104 [0x45] LOAD_SCHEDULED_TASK: Load scheduler "s036" with entities [EventEntity, EventEntity], work=[632*, 0*]
 35: 0x0115 [0x1C] WAIT(15* ticks)
 36: 0x0118 [0x45] LOAD_SCHEDULED_TASK: Load scheduler "fdi1" with entities [EventEntity, EventEntity], work=[200*, 0*]
 37: 0x0129 [0x1C] WAIT(60* ticks)
 38: 0x012C [0x27] REQ_SET(priority=0x05, entity_id=Alianne (ID: 17850986/0x0110626A), tag_num=0x02)
 39: 0x0133 [0x1C] WAIT(30* ticks)
 40: 0x0136 [0x27] REQ_SET(priority=0x05, entity_id=LocalPlayer, tag_num=0x21)
 41: 0x013D [0x1C] WAIT(30* ticks)
 42: 0x0140 [0x52] END_LOAD_SCHEDULER: End scheduler "s036" with entities [EventEntity, EventEntity], work=632*
 43: 0x014F [0x45] LOAD_SCHEDULED_TASK: Load scheduler "s037" with entities [EventEntity, EventEntity], work=[632*, 0*]
 44: 0x0160 [0x7C] Alianne (ID: 17850986/0x0110626A)->Render.Flags2 |= 0x00
 45: 0x0166 [0x2B] Alianne (ID: 17850986/0x0110626A) [8036*]:
    → "Oh no...!"
 46: 0x016D [0x23] WAIT_FOR_DIALOG_INTERACTION
 47: 0x016E [0x7C] Alianne (ID: 17850986/0x0110626A)->Render.Flags2 |= 0x01
 48: 0x0174 [0x2A] GET_REQ_LEVEL(level=5, entity_id=Alianne (ID: 17850986/0x0110626A))
 49: 0x017A [0x2A] GET_REQ_LEVEL(level=5, entity_id=LocalPlayer)
 50: 0x0180 [0x27] REQ_SET(priority=0x05, entity_id=Alianne (ID: 17850986/0x0110626A), tag_num=0x03)
 51: 0x0187 [0x1C] WAIT(15* ticks)
 52: 0x018A [0x27] REQ_SET(priority=0x05, entity_id=LocalPlayer, tag_num=0x22)
 53: 0x0191 [0x52] END_LOAD_SCHEDULER: End scheduler "s037" with entities [EventEntity, EventEntity], work=632*
 54: 0x01A0 [0x45] LOAD_SCHEDULED_TASK: Load scheduler "s039" with entities [EventEntity, EventEntity], work=[632*, 0*]
 55: 0x01B1 [0x2B] Alianne (ID: 17850986/0x0110626A) [8037*]:
    → "What happened out here!?"
 56: 0x01B8 [0x1C] WAIT(90* ticks)
 57: 0x01BB [0x52] END_LOAD_SCHEDULER: End scheduler "s039" with entities [EventEntity, EventEntity], work=632*
 58: 0x01CA [0x45] LOAD_SCHEDULED_TASK: Load scheduler "s038" with entities [EventEntity, EventEntity], work=[632*, 0*]
 59: 0x01DB [0x23] WAIT_FOR_DIALOG_INTERACTION
 60: 0x01DC [0x4A] Fritha (ID: 17850921/0x01106229) looks at Alianne (ID: 17850986/0x0110626A)
 61: 0x01E5 [0x1C] WAIT(30* ticks)
 62: 0x01E8 [0x66] LOAD_EXT_SCHEDULER_MAIN: Load scheduler "tlk0" with entities [Fritha (ID: 17850921/0x01106229), Fritha (ID: 17850921/0x01106229)], work=10*
 63: 0x01F7 [0x2B] Fritha (ID: 17850921/0x01106229) [8038*]:
    → "Excuse me, miss--were you sent by the Order of Janniston?"
 64: 0x01FE [0x23] WAIT_FOR_DIALOG_INTERACTION
 65: 0x01FF [0x2B] Fritha (ID: 17850921/0x01106229) [8039*]:
    → "Oh, thank Altana! These pioneers, always so hardy and capable, just...collapsed! For no particular reason! I had sent word to the hospital back in the city hours ago, but received no response..."
 66: 0x0206 [0x23] WAIT_FOR_DIALOG_INTERACTION
 67: 0x0207 [0x66] LOAD_EXT_SCHEDULER_MAIN: Load scheduler "tlk1" with entities [Fritha (ID: 17850921/0x01106229), Fritha (ID: 17850921/0x01106229)], work=10*
 68: 0x0216 [0x52] END_LOAD_SCHEDULER: End scheduler "s038" with entities [EventEntity, EventEntity], work=632*
 69: 0x0225 [0x45] LOAD_SCHEDULED_TASK: Load scheduler "s040" with entities [EventEntity, EventEntity], work=[632*, 0*]
 70: 0x0236 [0x27] REQ_SET(priority=0x05, entity_id=Alianne (ID: 17850986/0x0110626A), tag_num=0x04)
 71: 0x023D [0x2B] Alianne (ID: 17850986/0x0110626A) [8040*]:
    → "Perhaps I can be of aid."
 72: 0x0244 [0x23] WAIT_FOR_DIALOG_INTERACTION
 73: 0x0245 [0x2A] GET_REQ_LEVEL(level=5, entity_id=Alianne (ID: 17850986/0x0110626A))
 74: 0x024B [0x52] END_LOAD_SCHEDULER: End scheduler "s040" with entities [EventEntity, EventEntity], work=632*
 75: 0x025A [0x45] LOAD_SCHEDULED_TASK: Load scheduler "s041" with entities [EventEntity, EventEntity], work=[632*, 0*]
 76: 0x026B [0x4A] Fritha (ID: 17850921/0x01106229) looks at LocalPlayer
 77: 0x0274 [0x27] REQ_SET(priority=0x05, entity_id=LocalPlayer, tag_num=0x02)
 78: 0x027B [0x1C] WAIT(80* ticks)
 79: 0x027E [0x27] REQ_SET(priority=0x05, entity_id=LocalPlayer, tag_num=0x03)
 80: 0x0285 [0x1C] WAIT(40* ticks)
 81: 0x0288 [0x52] END_LOAD_SCHEDULER: End scheduler "s041" with entities [EventEntity, EventEntity], work=632*
 82: 0x0297 [0x45] LOAD_SCHEDULED_TASK: Load scheduler "s042" with entities [EventEntity, EventEntity], work=[632*, 0*]
 83: 0x02A8 [0x2B] Fritha (ID: 17850921/0x01106229) [8041*]:
    → "There's some horrible disease making the rounds!? And no one knows why!?"
 84: 0x02AF [0x23] WAIT_FOR_DIALOG_INTERACTION
 85: 0x02B0 [0x55] WAIT_LOAD_SCHEDULER: Wait for scheduler "s042" with entities [EventEntity, EventEntity], work=632*
 86: 0x02BF [0x66] LOAD_EXT_SCHEDULER_MAIN: Load scheduler "utl0" with entities [Fritha (ID: 17850921/0x01106229), Fritha (ID: 17850921/0x01106229)], work=11*
 87: 0x02CE [0x2B] Fritha (ID: 17850921/0x01106229) [8042*]:
    → "So Hennetiel was not the only place stricken. The woods of Yorcia and the darkened fields of Morimar also report infections. We...we will assist to the best of our ability."
 88: 0x02D5 [0x23] WAIT_FOR_DIALOG_INTERACTION
 89: 0x02D6 [0x66] LOAD_EXT_SCHEDULER_MAIN: Load scheduler "utl1" with entities [Fritha (ID: 17850921/0x01106229), Fritha (ID: 17850921/0x01106229)], work=11*
 90: 0x02E5 [0x45] LOAD_SCHEDULED_TASK: Load scheduler "s043" with entities [EventEntity, EventEntity], work=[632*, 0*]
 91: 0x02F6 [0x1C] WAIT(15* ticks)
 92: 0x02F9 [0x4A] LocalPlayer looks at Alianne (ID: 17850986/0x0110626A)
 93: 0x0302 [0x4A] Fritha (ID: 17850921/0x01106229) looks at Alianne (ID: 17850986/0x0110626A)
 94: 0x030B [0x2B] Davengrot (ID: 17850987/0x0110626B) [8043*]:
    → "Ooof... Ugh..."
 95: 0x0312 [0x23] WAIT_FOR_DIALOG_INTERACTION
 96: 0x0313 [0x1C] WAIT(30* ticks)
 97: 0x0316 [0x52] END_LOAD_SCHEDULER: End scheduler "s043" with entities [EventEntity, EventEntity], work=632*
 98: 0x0325 [0x45] LOAD_SCHEDULED_TASK: Load scheduler "s044" with entities [EventEntity, EventEntity], work=[632*, 0*]
 99: 0x0336 [0x2B] Alianne (ID: 17850986/0x0110626A) [8044*]:
    → "His symptoms are far more advanced than those suffering in Yorcia. Perhaps I can concoct a tincture to ease the pain..."
100: 0x033D [0x23] WAIT_FOR_DIALOG_INTERACTION
101: 0x033E [0x66] LOAD_EXT_SCHEDULER_MAIN: Load scheduler "sha1" with entities [Alianne (ID: 17850986/0x0110626A), Alianne (ID: 17850986/0x0110626A)], work=19*
102: 0x034D [0x52] END_LOAD_SCHEDULER: End scheduler "s044" with entities [EventEntity, EventEntity], work=632*
103: 0x035C [0x45] LOAD_SCHEDULED_TASK: Load scheduler "s045" with entities [EventEntity, EventEntity], work=[632*, 0*]
104: 0x036D [0x1C] WAIT(90* ticks)
105: 0x0370 [0x4A] Alianne (ID: 17850986/0x0110626A) looks at LocalPlayer
106: 0x0379 [0x1C] WAIT(30* ticks)
107: 0x037C [0x66] LOAD_EXT_SCHEDULER_MAIN: Load scheduler "tlk0" with entities [Alianne (ID: 17850986/0x0110626A), Alianne (ID: 17850986/0x0110626A)], work=19*
108: 0x038B [0x03] Work_Zone[2] = 2343*
109: 0x0390 [0x2B] Alianne (ID: 17850986/0x0110626A) [8045*]:
    → "<Player>, do you remember that time you brought back $6? I have need of more, and quickly!"
110: 0x0397 [0x23] WAIT_FOR_DIALOG_INTERACTION
111: 0x0398 [0x45] LOAD_SCHEDULED_TASK: Load scheduler "fdo1" with entities [EventEntity, EventEntity], work=[200*, 0*]
112: 0x03A9 [0x55] WAIT_LOAD_SCHEDULER: Wait for scheduler "fdo1" with entities [EventEntity, EventEntity], work=200*
113: 0x03B8 [0x52] END_LOAD_SCHEDULER: End scheduler "s045" with entities [EventEntity, EventEntity], work=632*
114: 0x03C7 [0x46] CAMERA_CONTROL: Restore default settings
115: 0x03C9 [0x1C] WAIT(60* ticks)
116: 0x03CC [0x45] LOAD_SCHEDULED_TASK: Load scheduler "fdi2" with entities [EventEntity, EventEntity], work=[200*, 0*]
117: 0x03DD [0x21] END_EVENT
118: 0x03DE [0x00] END_REQSTACK()
```

### Event 521

#### Metadata

| Field        | Value      |
|--------------|------------|
| Entrypoint   | 0x03DF     |
| Data Size    | 2260 bytes |
| Instructions | 256        |

```
      00 01 02 03 04 05 06 07  08 09 0A 0B 0C 0D 0E 0F
      -- -- -- -- -- -- -- --  -- -- -- -- -- -- -- --
03D0:                                               42                 B
03E0: 45 00 80 F8 FF FF 7F F8  FF FF 7F 66 64 6F 31 01  E..........fdo1.
03F0: 80 55 00 80 F8 FF FF 7F  F8 FF FF 7F 66 64 6F 31  .U..........fdo1
0400: 46 01 38 02 80 77 2B 80  2C 80 2F 00 6A 62 10 01  F.8..w+.,./.jb..
0410: 2F 00 6B 62 10 01 2F 00  6C 62 10 01 92 01 6A 62  /.kb../.lb....jb
0420: 10 01 92 01 29 62 10 01  92 01 6B 62 10 01 92 01  ....)b....kb....
0430: 30 62 10 01 94 01 6A 62  10 01 94 01 F0 FF FF 7F  0b....jb........
0440: 94 01 29 62 10 01 94 01  6B 62 10 01 94 01 6C 62  ..)b....kb....lb
0450: 10 01 94 01 30 62 10 01  22 00 4E 00 6B 62 10 01  ....0b..".N.kb..
0460: 4E 00 6A 62 10 01 BA 6A  62 10 01 2D 80 2E 80 2F  N.jb...jb..-.../
0470: 80 30 80 BA F0 FF FF 7F  07 80 08 80 09 80 0A 80  .0..............
0480: BA 6B 62 10 01 31 80 32  80 2F 80 33 80 BA 6C 62  .kb..1.2./.3..lb
0490: 10 01 34 80 35 80 36 80  37 80 BA 30 62 10 01 38  ..4.5.6.7..0b..8
04A0: 80 39 80 3A 80 3B 80 37  3C 80 3D 80 3E 80 33 80  .9.:.;.7<.=.>.3.
04B0: 80 6A 62 10 01 80 F0 FF  FF 7F 80 29 62 10 01 80  .jb........)b...
04C0: 6B 62 10 01 80 30 62 10  01 80 F8 FF FF 7F 1C 16  kb...0b.........
04D0: 80 2C 6B 62 10 01 6B 62  10 01 63 6F 72 70 66 02  .,kb..kb..corpf.
04E0: 80 6A 62 10 01 6A 62 10  01 73 68 61 30 27 05 F0  .jb..jb..sha0'..
04F0: FF FF 7F 22 1C 1B 80 45  19 80 F8 FF FF 7F F8 FF  ..."...E........
0500: FF 7F 73 30 34 36 01 80  1C 1A 80 45 00 80 F8 FF  ..s046.....E....
0510: FF 7F F8 FF FF 7F 66 64  69 31 01 80 1C 16 80 79  ......fdi1.....y
0520: 00 29 62 10 01 F0 FF FF  7F 1C 1B 80 2B 29 62 10  .)b.........+)b.
0530: 01 3F 80 1C 16 80 52 19  80 F8 FF FF 7F F8 FF FF  .?....R.........
0540: 7F 73 30 34 36 45 19 80  F8 FF FF 7F F8 FF FF 7F  .s046E..........
0550: 73 30 34 37 01 80 4A 29  62 10 01 6A 62 10 01 23  s047..J)b..jb..#
0560: 55 19 80 F8 FF FF 7F F8  FF FF 7F 73 30 34 37 66  U..........s047f
0570: 02 80 6A 62 10 01 6A 62  10 01 73 68 61 31 1C 40  ..jb..jb..sha1.@
0580: 80 45 19 80 F8 FF FF 7F  F8 FF FF 7F 73 30 34 38  .E..........s048
0590: 01 80 1C 1A 80 BA 6A 62  10 01 41 80 42 80 43 80  ......jb..A.B.C.
05A0: 44 80 27 05 6A 62 10 01  06 4A F0 FF FF 7F 6A 62  D.'.jb...J....jb
05B0: 10 01 2A 05 6A 62 10 01  79 00 30 62 10 01 6A 62  ..*.jb..y.0b..jb
05C0: 10 01 4A 6A 62 10 01 F0  FF FF 7F 1C 16 80 27 05  ..Jjb.........'.
05D0: F0 FF FF 7F 14 1C 45 80  52 19 80 F8 FF FF 7F F8  ......E.R.......
05E0: FF FF 7F 73 30 34 38 45  19 80 F8 FF FF 7F F8 FF  ...s048E........
05F0: FF 7F 73 30 34 39 01 80  6E 6A 62 10 01 46 80 99  ..s049..njb..F..
0600: 6A 62 10 01 2B 6A 62 10  01 47 80 23 52 19 80 F8  jb..+jb..G.#R...
0610: FF FF 7F F8 FF FF 7F 73  30 34 39 45 19 80 F8 FF  .......s049E....
0620: FF 7F F8 FF FF 7F 73 30  35 30 01 80 9F 48 80 6A  ......s050...H.j
0630: 62 10 01 6A 62 10 01 66  72 73 74 01 80 1C 49 80  b..jb..frst...I.
0640: 9F 48 80 6A 62 10 01 6A  62 10 01 6F 6B 65 78 01  .H.jb..jb..okex.
0650: 80 52 19 80 F8 FF FF 7F  F8 FF FF 7F 73 30 35 30  .R..........s050
0660: 45 19 80 F8 FF FF 7F F8  FF FF 7F 73 30 35 31 01  E..........s051.
0670: 80 4A F0 FF FF 7F 29 62  10 01 1C 16 80 79 00 29  .J....)b.....y.)
0680: 62 10 01 F0 FF FF 7F 27  05 F0 FF FF 7F 02 1C 22  b......'......."
0690: 80 27 05 F0 FF FF 7F 03  66 02 80 6A 62 10 01 6A  .'......f..jb..j
06A0: 62 10 01 73 68 61 30 1C  23 80 52 19 80 F8 FF FF  b..sha0.#.R.....
06B0: 7F F8 FF FF 7F 73 30 35  31 45 19 80 F8 FF FF 7F  .....s051E......
06C0: F8 FF FF 7F 73 30 35 32  01 80 03 02 10 29 80 03  ....s052.....)..
06D0: 03 10 4A 80 2B 29 62 10  01 4B 80 23 66 1E 80 29  ..J.+)b..K.#f..)
06E0: 62 10 01 29 62 10 01 74  68 6B 31 2B 29 62 10 01  b..)b..thk1+)b..
06F0: 4C 80 23 5D 01 80 4D 80  45 4E 80 F0 FF FF 7F F0  L.#]..M.EN......
0700: FF FF 7F 77 68 6F 30 01  80 52 19 80 F8 FF FF 7F  ...who0..R......
0710: F8 FF FF 7F 73 30 35 32  4E 00 6C 62 10 01 80 6C  ....s052N.lb...l
0720: 62 10 01 1C 1E 80 45 19  80 F8 FF FF 7F F8 FF FF  b.....E.........
0730: 7F 73 30 35 33 01 80 45  4E 80 F0 FF FF 7F F0 FF  .s053..EN.......
0740: FF 7F 77 68 69 30 01 80  1C 23 80 45 4E 80 F0 FF  ..whi0...#.EN...
0750: FF 7F F0 FF FF 7F 77 68  6F 30 01 80 52 19 80 F8  ......who0..R...
0760: FF FF 7F F8 FF FF 7F 73  30 35 33 BA 29 62 10 01  .......s053.)b..
0770: 4F 80 50 80 51 80 44 80  4A 29 62 10 01 6C 62 10  O.P.Q.D.J)b..lb.
0780: 01 4A F0 FF FF 7F 6C 62  10 01 4A 30 62 10 01 6C  .J....lb..J0b..l
0790: 62 10 01 1C 1E 80 45 19  80 F8 FF FF 7F F8 FF FF  b.....E.........
07A0: 7F 73 30 36 30 01 80 45  4E 80 F0 FF FF 7F F0 FF  .s060..EN.......
07B0: FF 7F 77 68 69 30 01 80  1C 23 80 52 19 80 F8 FF  ..whi0...#.R....
07C0: FF 7F F8 FF FF 7F 73 30  36 30 45 19 80 F8 FF FF  ......s060E.....
07D0: 7F F8 FF FF 7F 73 30 35  34 01 80 66 1E 80 29 62  .....s054..f..)b
07E0: 10 01 29 62 10 01 74 68  6B 32 7C 00 29 62 10 01  ..)b..thk2|.)b..
07F0: 2B 29 62 10 01 52 80 23  7C 01 29 62 10 01 CD 53  +)b..R.#|.)b...S
0800: 80 6C 62 10 01 6C 62 10  01 65 31 6F 6E 01 80 5C  .lb..lb..e1on..\
0810: 00 54 80 5C 01 54 80 9A  52 19 80 F8 FF FF 7F F8  .T.\.T..R.......
0820: FF FF 7F 73 30 35 34 45  19 80 F8 FF FF 7F F8 FF  ...s054E........
0830: FF 7F 73 30 35 35 01 80  66 55 80 29 62 10 01 29  ..s055..fU.)b..)
0840: 62 10 01 73 69 6E 30 6E  F0 FF FF 7F 56 80 99 F0  b..sin0n....V...
0850: FF FF 7F 2B 29 62 10 01  57 80 1C 18 80 23 66 02  ...+)b..W....#f.
0860: 80 6A 62 10 01 6A 62 10  01 73 68 61 31 52 19 80  .jb..jb..sha1R..
0870: F8 FF FF 7F F8 FF FF 7F  73 30 35 35 45 19 80 F8  ........s055E...
0880: FF FF 7F F8 FF FF 7F 73  30 35 36 01 80 6E 30 62  .......s056..n0b
0890: 10 01 17 80 99 30 62 10  01 1C 1A 80 6B 69 64 6C  .....0b.....kidl
08A0: 30 29 62 10 01 7C 00 6A  62 10 01 2B 6A 62 10 01  0)b..|.jb..+jb..
08B0: 1C 80 23 7C 01 6A 62 10  01 52 19 80 F8 FF FF 7F  ..#|.jb..R......
08C0: F8 FF FF 7F 73 30 35 36  45 19 80 F8 FF FF 7F F8  ....s056E.......
08D0: FF FF 7F 73 30 35 37 01  80 4A 29 62 10 01 6A 62  ...s057..J)b..jb
08E0: 10 01 2B 29 62 10 01 58  80 23 27 05 30 62 10 01  ..+)b..X.#'.0b..
08F0: 03 1C 16 80 52 19 80 F8  FF FF 7F F8 FF FF 7F 73  ....R..........s
0900: 30 35 37 45 19 80 F8 FF  FF 7F F8 FF FF 7F 73 30  057E..........s0
0910: 35 38 01 80 27 05 29 62  10 01 09 1C 1A 80 27 05  58..'.)b......'.
0920: F0 FF FF 7F 23 1C 1A 80  27 05 6A 62 10 01 07 27  ....#...'.jb...'
0930: 05 6C 62 10 01 02 1C 18  80 52 19 80 F8 FF FF 7F  .lb......R......
0940: F8 FF FF 7F 73 30 35 38  45 19 80 F8 FF FF 7F F8  ....s058E.......
0950: FF FF 7F 73 30 35 39 01  80 62 59 80 F8 FF FF 7F  ...s059..bY.....
0960: F8 FF FF 7F 6D 61 69 6E  01 80 1C 18 80 52 19 80  ....main.....R..
0970: F8 FF FF 7F F8 FF FF 7F  73 30 35 39 45 19 80 F8  ........s059E...
0980: FF FF 7F F8 FF FF 7F 73  30 36 31 01 80 2B 6A 62  .......s061..+jb
0990: 10 01 5A 80 23 52 19 80  F8 FF FF 7F F8 FF FF 7F  ..Z.#R..........
09A0: 73 30 36 31 45 19 80 F8  FF FF 7F F8 FF FF 7F 73  s061E..........s
09B0: 30 36 32 01 80 1C 1A 80  BA 6A 62 10 01 41 80 42  062......jb..A.B
09C0: 80 43 80 44 80 29 05 6A  62 10 01 06 1C 16 80 66  .C.D.).jb......f
09D0: 02 80 6A 62 10 01 6A 62  10 01 73 68 61 30 1C 4D  ..jb..jb..sha0.M
09E0: 80 52 19 80 F8 FF FF 7F  F8 FF FF 7F 73 30 36 32  .R..........s062
09F0: 45 19 80 F8 FF FF 7F F8  FF FF 7F 73 30 36 33 01  E..........s063.
0A00: 80 66 02 80 6A 62 10 01  6A 62 10 01 73 68 61 31  .f..jb..jb..sha1
0A10: CD 53 80 6C 62 10 01 6C  62 10 01 65 32 6F 6E 01  .S.lb..lb..e2on.
0A20: 80 1C 4D 80 66 45 80 6A  62 10 01 6A 62 10 01 6D  ..M.fE.jb..jb..m
0A30: 61 62 30 52 19 80 F8 FF  FF 7F F8 FF FF 7F 73 30  ab0R..........s0
0A40: 36 33 45 19 80 F8 FF FF  7F F8 FF FF 7F 73 30 36  63E..........s06
0A50: 35 01 80 7C 00 6A 62 10  01 2B 6A 62 10 01 5B 80  5..|.jb..+jb..[.
0A60: 7C 01 6A 62 10 01 1C 16  80 45 4E 80 F0 FF FF 7F  |.jb.....EN.....
0A70: F0 FF FF 7F 77 68 6F 30  01 80 55 4E 80 F0 FF FF  ....who0..UN....
0A80: 7F F0 FF FF 7F 77 68 6F  30 52 19 80 F8 FF FF 7F  .....who0R......
0A90: F8 FF FF 7F 73 30 36 35  7B F0 FF FF 7F 6B 69 64  ....s065{....kid
0AA0: 6C 30 6A 62 10 01 59 05  6C 62 10 01 01 BA 29 62  l0jb..Y.lb....)b
0AB0: 10 01 5C 80 5D 80 5E 80  5F 80 BA F0 FF FF 7F 60  ..\.].^._......`
0AC0: 80 61 80 62 80 63 80 BA  6C 62 10 01 64 80 65 80  .a.b.c..lb..d.e.
0AD0: 66 80 37 80 80 29 62 10  01 80 F0 FF FF 7F 80 6C  f.7..)b........l
0AE0: 62 10 01 79 00 29 62 10  01 6A 62 10 01 4E 01 30  b..y.)b..jb..N.0
0AF0: 62 10 01 1C 16 80 2C 6A  62 10 01 6A 62 10 01 63  b.....,jb..jb..c
0B00: 6F 72 70 45 19 80 F8 FF  FF 7F F8 FF FF 7F 73 30  orpE..........s0
0B10: 36 36 01 80 1C 1A 80 45  4E 80 F0 FF FF 7F F0 FF  66.....EN.......
0B20: FF 7F 77 68 69 31 01 80  CD 53 80 6C 62 10 01 6C  ..whi1...S.lb..l
0B30: 62 10 01 65 32 6F 66 01  80 1C 45 80 27 05 6C 62  b..e2of...E.'.lb
0B40: 10 01 03 52 19 80 F8 FF  FF 7F F8 FF FF 7F 73 30  ...R..........s0
0B50: 36 36 45 19 80 F8 FF FF  7F F8 FF FF 7F 73 30 36  66E..........s06
0B60: 34 01 80 1C 49 80 27 05  29 62 10 01 0A 1C 1E 80  4...I.'.)b......
0B70: 27 05 F0 FF FF 7F 24 1C  1E 80 52 19 80 F8 FF FF  '.....$...R.....
0B80: 7F F8 FF FF 7F 73 30 36  34 45 19 80 F8 FF FF 7F  .....s064E......
0B90: F8 FF FF 7F 73 30 36 37  01 80 2B 29 62 10 01 67  ....s067..+)b..g
0BA0: 80 2A 05 29 62 10 01 2A  05 F0 FF FF 7F 29 05 F0  .*.)b..*.....)..
0BB0: FF FF 7F 12 23 52 19 80  F8 FF FF 7F F8 FF FF 7F  ....#R..........
0BC0: 73 30 36 37 45 19 80 F8  FF FF 7F F8 FF FF 7F 73  s067E..........s
0BD0: 30 36 38 01 80 66 55 80  29 62 10 01 29 62 10 01  068..fU.)b..)b..
0BE0: 73 69 6E 30 2B 29 62 10  01 68 80 23 66 55 80 29  sin0+)b..h.#fU.)
0BF0: 62 10 01 29 62 10 01 73  69 6E 31 52 19 80 F8 FF  b..)b..sin1R....
0C00: FF 7F F8 FF FF 7F 73 30  36 38 45 19 80 F8 FF FF  ......s068E.....
0C10: 7F F8 FF FF 7F 73 30 36  39 01 80 27 05 F0 FF FF  .....s069..'....
0C20: 7F 13 1C 1B 80 4A 29 62  10 01 F0 FF FF 7F 1C 16  .....J)b........
0C30: 80 66 25 80 29 62 10 01  29 62 10 01 61 69 67 30  .f%.)b..)b..aig0
0C40: 2B 29 62 10 01 69 80 2A  05 F0 FF FF 7F 4A F0 FF  +)b..i.*.....J..
0C50: FF 7F 29 62 10 01 1C 16  80 23 5D 01 80 4D 80 45  ..)b.....#]..M.E
0C60: 00 80 F8 FF FF 7F F8 FF  FF 7F 66 64 6F 31 01 80  ..........fdo1..
0C70: 55 00 80 F8 FF FF 7F F8  FF FF 7F 66 64 6F 31 52  U..........fdo1R
0C80: 19 80 F8 FF FF 7F F8 FF  FF 7F 73 30 36 39 78 1C  ..........s069x.
0C90: 4D 80 5C 00 1B 80 5C 01  1B 80 9A 46 00 1C 1B 80  M.\...\....F....
0CA0: 45 00 80 F8 FF FF 7F F8  FF FF 7F 66 64 69 32 01  E..........fdi2.
0CB0: 80 21 00                                          .!.             
```

#### Opcodes

```
  0: 0x03DF [0x42] SET_CLI_EVENT_CANCEL_DATA()
  1: 0x03E0 [0x45] LOAD_SCHEDULED_TASK: Load scheduler "fdo1" with entities [EventEntity, EventEntity], work=[200*, 0*]
  2: 0x03F1 [0x55] WAIT_LOAD_SCHEDULER: Wait for scheduler "fdo1" with entities [EventEntity, EventEntity], work=200*
  3: 0x0400 [0x46] CAMERA_CONTROL: Disable user control
  4: 0x0402 [0x38] SET_CLIENT_EVENT_MODE(mode=19*)
  5: 0x0405 [0x77] SET_EVENT_TIME_WEATHER(hour=255*, weather=2*)
  6: 0x040A [0x2F] Alianne (ID: 17850986/0x0110626A)->Render.Flags0 &= ~0x80000 // Bit 19
  7: 0x0410 [0x2F] Davengrot (ID: 17850987/0x0110626B)->Render.Flags0 &= ~0x80000 // Bit 19
  8: 0x0416 [0x2F] Unnamed NPC (ID: 17850988/0x0110626C)->Render.Flags0 &= ~0x80000 // Bit 19
  9: 0x041C [0x92] Alianne (ID: 17850986/0x0110626A)->Render.Flags3 ^= 0x01
 10: 0x0422 [0x92] Fritha (ID: 17850921/0x01106229)->Render.Flags3 ^= 0x01
 11: 0x0428 [0x92] Davengrot (ID: 17850987/0x0110626B)->Render.Flags3 ^= 0x01
 12: 0x042E [0x92] Deumagneot (ID: 17850928/0x01106230)->Render.Flags3 ^= 0x01
 13: 0x0434 [0x94] Alianne (ID: 17850986/0x0110626A)->Render.Flags3 ^= 0x01
 14: 0x043A [0x94] LocalPlayer->Render.Flags3 ^= 0x01
 15: 0x0440 [0x94] Fritha (ID: 17850921/0x01106229)->Render.Flags3 ^= 0x01
 16: 0x0446 [0x94] Davengrot (ID: 17850987/0x0110626B)->Render.Flags3 ^= 0x01
 17: 0x044C [0x94] Unnamed NPC (ID: 17850988/0x0110626C)->Render.Flags3 ^= 0x01
 18: 0x0452 [0x94] Deumagneot (ID: 17850928/0x01106230)->Render.Flags3 ^= 0x01
 19: 0x0458 [0x22] ENTITY_HIDE_FLAG(enabled=0x00)
 20: 0x045A [0x4E] SET_ENTITY_HIDE_FLAG: Show Davengrot (ID: 17850987/0x0110626B)
 21: 0x0460 [0x4E] SET_ENTITY_HIDE_FLAG: Show Alianne (ID: 17850986/0x0110626A)
 22: 0x0466 [0xBA] SET_ENTITY_POSITION(entity_id=Alianne (ID: 17850986/0x0110626A), pos_x=398.054*, pos_z=277.631*, pos_y=-2.000*, direction=233.7°*)
 23: 0x0473 [0xBA] SET_ENTITY_POSITION(entity_id=LocalPlayer, pos_x=396.757*, pos_z=254.881*, pos_y=-1.316*, direction=317.7°*)
 24: 0x0480 [0xBA] SET_ENTITY_POSITION(entity_id=Davengrot (ID: 17850987/0x0110626B), pos_x=397.322*, pos_z=278.334*, pos_y=-2.000*, direction=336.6°*)
 25: 0x048D [0xBA] SET_ENTITY_POSITION(entity_id=Unnamed NPC (ID: 17850988/0x0110626C), pos_x=408.815*, pos_z=255.883*, pos_y=-1.538*, direction=261.6°*)
 26: 0x049A [0xBA] SET_ENTITY_POSITION(entity_id=Deumagneot (ID: 17850928/0x01106230), pos_x=407.172*, pos_z=272.854*, pos_y=-2.218*, direction=110.4°*)
 27: 0x04A7 [0x37] UPDATE_EVENT_POSITION_AND_DIR: x=406.500*, z=270.289*, y=-2.012*, direction=336.6°*
 28: 0x04B0 [0x80] LOAD_WAIT(entity=Alianne (ID: 17850986/0x0110626A))
 29: 0x04B5 [0x80] LOAD_WAIT(entity=LocalPlayer)
 30: 0x04BA [0x80] LOAD_WAIT(entity=Fritha (ID: 17850921/0x01106229))
 31: 0x04BF [0x80] LOAD_WAIT(entity=Davengrot (ID: 17850987/0x0110626B))
 32: 0x04C4 [0x80] LOAD_WAIT(entity=Deumagneot (ID: 17850928/0x01106230))
 33: 0x04C9 [0x80] LOAD_WAIT(entity=EventEntity)
 34: 0x04CE [0x1C] WAIT(30* ticks)
 35: 0x04D1 [0x2C] CREATE_SCHEDULER_TASK: Create scheduler "corp" with entities [Davengrot (ID: 17850987/0x0110626B), Davengrot (ID: 17850987/0x0110626B)]
 36: 0x04DE [0x66] LOAD_EXT_SCHEDULER_MAIN: Load scheduler "sha0" with entities [Alianne (ID: 17850986/0x0110626A), Alianne (ID: 17850986/0x0110626A)], work=19*
 37: 0x04ED [0x27] REQ_SET(priority=0x05, entity_id=LocalPlayer, tag_num=0x22)
 38: 0x04F4 [0x1C] WAIT(60* ticks)
 39: 0x04F7 [0x45] LOAD_SCHEDULED_TASK: Load scheduler "s046" with entities [EventEntity, EventEntity], work=[632*, 0*]
 40: 0x0508 [0x1C] WAIT(15* ticks)
 41: 0x050B [0x45] LOAD_SCHEDULED_TASK: Load scheduler "fdi1" with entities [EventEntity, EventEntity], work=[200*, 0*]
 42: 0x051C [0x1C] WAIT(30* ticks)
 43: 0x051F [0x79] Fritha (ID: 17850921/0x01106229) looks at LocalPlayer (Basic look)
 44: 0x0529 [0x1C] WAIT(60* ticks)
 45: 0x052C [0x2B] Fritha (ID: 17850921/0x01106229) [8048*]:
    → "Alianne, your comrade has returned!"
 46: 0x0533 [0x1C] WAIT(30* ticks)
 47: 0x0536 [0x52] END_LOAD_SCHEDULER: End scheduler "s046" with entities [EventEntity, EventEntity], work=632*
 48: 0x0545 [0x45] LOAD_SCHEDULED_TASK: Load scheduler "s047" with entities [EventEntity, EventEntity], work=[632*, 0*]
 49: 0x0556 [0x4A] Fritha (ID: 17850921/0x01106229) looks at Alianne (ID: 17850986/0x0110626A)
 50: 0x055F [0x23] WAIT_FOR_DIALOG_INTERACTION
 51: 0x0560 [0x55] WAIT_LOAD_SCHEDULER: Wait for scheduler "s047" with entities [EventEntity, EventEntity], work=632*
 52: 0x056F [0x66] LOAD_EXT_SCHEDULER_MAIN: Load scheduler "sha1" with entities [Alianne (ID: 17850986/0x0110626A), Alianne (ID: 17850986/0x0110626A)], work=19*
 53: 0x057E [0x1C] WAIT(50* ticks)
 54: 0x0581 [0x45] LOAD_SCHEDULED_TASK: Load scheduler "s048" with entities [EventEntity, EventEntity], work=[632*, 0*]
 55: 0x0592 [0x1C] WAIT(15* ticks)
 56: 0x0595 [0xBA] SET_ENTITY_POSITION(entity_id=Alianne (ID: 17850986/0x0110626A), pos_x=406.212*, pos_z=272.412*, pos_y=-2.084*, direction=82.3°*)
 57: 0x05A2 [0x27] REQ_SET(priority=0x05, entity_id=Alianne (ID: 17850986/0x0110626A), tag_num=0x06)
 58: 0x05A9 [0x4A] LocalPlayer looks at Alianne (ID: 17850986/0x0110626A)
 59: 0x05B2 [0x2A] GET_REQ_LEVEL(level=5, entity_id=Alianne (ID: 17850986/0x0110626A))
 60: 0x05B8 [0x79] Deumagneot (ID: 17850928/0x01106230) looks at Alianne (ID: 17850986/0x0110626A) (Basic look)
 61: 0x05C2 [0x4A] Alianne (ID: 17850986/0x0110626A) looks at LocalPlayer
 62: 0x05CB [0x1C] WAIT(30* ticks)
 63: 0x05CE [0x27] REQ_SET(priority=0x05, entity_id=LocalPlayer, tag_num=0x14)
 64: 0x05D5 [0x1C] WAIT(150* ticks)
 65: 0x05D8 [0x52] END_LOAD_SCHEDULER: End scheduler "s048" with entities [EventEntity, EventEntity], work=632*
 66: 0x05E7 [0x45] LOAD_SCHEDULED_TASK: Load scheduler "s049" with entities [EventEntity, EventEntity], work=[632*, 0*]
 67: 0x05F8 [0x6E] Alianne (ID: 17850986/0x0110626A) uses emote 7*
 68: 0x05FF [0x99] Wait for Alianne (ID: 17850986/0x0110626A) animation to complete
 69: 0x0604 [0x2B] Alianne (ID: 17850986/0x0110626A) [8049*]:
    → "Let me take a look... Yes, this specimen should be large enough to work with."
 70: 0x060B [0x23] WAIT_FOR_DIALOG_INTERACTION
 71: 0x060C [0x52] END_LOAD_SCHEDULER: End scheduler "s049" with entities [EventEntity, EventEntity], work=632*
 72: 0x061B [0x45] LOAD_SCHEDULED_TASK: Load scheduler "s050" with entities [EventEntity, EventEntity], work=[632*, 0*]
 73: 0x062C [0x9F] LOAD_SCHEDULED_TASK_ALT: Load scheduler "frst" with entities [Alianne (ID: 17850986/0x0110626A), Alianne (ID: 17850986/0x0110626A)], work=[194*, 0*]
 74: 0x063D [0x1C] WAIT(180* ticks)
 75: 0x0640 [0x9F] LOAD_SCHEDULED_TASK_ALT: Load scheduler "okex" with entities [Alianne (ID: 17850986/0x0110626A), Alianne (ID: 17850986/0x0110626A)], work=[194*, 0*]
 76: 0x0651 [0x52] END_LOAD_SCHEDULER: End scheduler "s050" with entities [EventEntity, EventEntity], work=632*
 77: 0x0660 [0x45] LOAD_SCHEDULED_TASK: Load scheduler "s051" with entities [EventEntity, EventEntity], work=[632*, 0*]
 78: 0x0671 [0x4A] LocalPlayer looks at Fritha (ID: 17850921/0x01106229)
 79: 0x067A [0x1C] WAIT(30* ticks)
 80: 0x067D [0x79] Fritha (ID: 17850921/0x01106229) looks at LocalPlayer (Basic look)
 81: 0x0687 [0x27] REQ_SET(priority=0x05, entity_id=LocalPlayer, tag_num=0x02)
 82: 0x068E [0x1C] WAIT(80* ticks)
 83: 0x0691 [0x27] REQ_SET(priority=0x05, entity_id=LocalPlayer, tag_num=0x03)
 84: 0x0698 [0x66] LOAD_EXT_SCHEDULER_MAIN: Load scheduler "sha0" with entities [Alianne (ID: 17850986/0x0110626A), Alianne (ID: 17850986/0x0110626A)], work=19*
 85: 0x06A7 [0x1C] WAIT(40* ticks)
 86: 0x06AA [0x52] END_LOAD_SCHEDULER: End scheduler "s051" with entities [EventEntity, EventEntity], work=632*
 87: 0x06B9 [0x45] LOAD_SCHEDULED_TASK: Load scheduler "s052" with entities [EventEntity, EventEntity], work=[632*, 0*]
 88: 0x06CA [0x03] Work_Zone[2] = 2343*
 89: 0x06CF [0x03] Work_Zone[3] = 2577*
 90: 0x06D4 [0x2B] Fritha (ID: 17850921/0x01106229) [8050*]:
    → "What's this? You found $6 while you were out foraging, too?"
 91: 0x06DB [0x23] WAIT_FOR_DIALOG_INTERACTION
 92: 0x06DC [0x66] LOAD_EXT_SCHEDULER_MAIN: Load scheduler "thk1" with entities [Fritha (ID: 17850921/0x01106229), Fritha (ID: 17850921/0x01106229)], work=10*
 93: 0x06EB [0x2B] Fritha (ID: 17850921/0x01106229) [8051*]:
    → "How peculiar. No one mentioned losing a blade--or weapon of any kind--in at least a fortnight."
 94: 0x06F2 [0x23] WAIT_FOR_DIALOG_INTERACTION
 95: 0x06F3 [0x5D] SET_MUSIC_VOLUME(volume=0*, fade_time=120*)
 96: 0x06F8 [0x45] LOAD_SCHEDULED_TASK: Load scheduler "who0" with entities [LocalPlayer, LocalPlayer], work=[201*, 0*]
 97: 0x0709 [0x52] END_LOAD_SCHEDULER: End scheduler "s052" with entities [EventEntity, EventEntity], work=632*
 98: 0x0718 [0x4E] SET_ENTITY_HIDE_FLAG: Show Unnamed NPC (ID: 17850988/0x0110626C)
 99: 0x071E [0x80] LOAD_WAIT(entity=Unnamed NPC (ID: 17850988/0x0110626C))
100: 0x0723 [0x1C] WAIT(10* ticks)
101: 0x0726 [0x45] LOAD_SCHEDULED_TASK: Load scheduler "s053" with entities [EventEntity, EventEntity], work=[632*, 0*]
102: 0x0737 [0x45] LOAD_SCHEDULED_TASK: Load scheduler "whi0" with entities [LocalPlayer, LocalPlayer], work=[201*, 0*]
103: 0x0748 [0x1C] WAIT(40* ticks)
104: 0x074B [0x45] LOAD_SCHEDULED_TASK: Load scheduler "who0" with entities [LocalPlayer, LocalPlayer], work=[201*, 0*]
105: 0x075C [0x52] END_LOAD_SCHEDULER: End scheduler "s053" with entities [EventEntity, EventEntity], work=632*
106: 0x076B [0xBA] SET_ENTITY_POSITION(entity_id=Fritha (ID: 17850921/0x01106229), pos_x=409.436*, pos_z=269.210*, pos_y=-2.241*, direction=82.3°*)
107: 0x0778 [0x4A] Fritha (ID: 17850921/0x01106229) looks at Unnamed NPC (ID: 17850988/0x0110626C)
108: 0x0781 [0x4A] LocalPlayer looks at Unnamed NPC (ID: 17850988/0x0110626C)
109: 0x078A [0x4A] Deumagneot (ID: 17850928/0x01106230) looks at Unnamed NPC (ID: 17850988/0x0110626C)
110: 0x0793 [0x1C] WAIT(10* ticks)
111: 0x0796 [0x45] LOAD_SCHEDULED_TASK: Load scheduler "s060" with entities [EventEntity, EventEntity], work=[632*, 0*]
112: 0x07A7 [0x45] LOAD_SCHEDULED_TASK: Load scheduler "whi0" with entities [LocalPlayer, LocalPlayer], work=[201*, 0*]
113: 0x07B8 [0x1C] WAIT(40* ticks)
114: 0x07BB [0x52] END_LOAD_SCHEDULER: End scheduler "s060" with entities [EventEntity, EventEntity], work=632*
115: 0x07CA [0x45] LOAD_SCHEDULED_TASK: Load scheduler "s054" with entities [EventEntity, EventEntity], work=[632*, 0*]
116: 0x07DB [0x66] LOAD_EXT_SCHEDULER_MAIN: Load scheduler "thk2" with entities [Fritha (ID: 17850921/0x01106229), Fritha (ID: 17850921/0x01106229)], work=10*
117: 0x07EA [0x7C] Fritha (ID: 17850921/0x01106229)->Render.Flags2 |= 0x00
118: 0x07F0 [0x2B] Fritha (ID: 17850921/0x01106229) [8052*]:
    → "What's that noise?"
119: 0x07F7 [0x23] WAIT_FOR_DIALOG_INTERACTION
120: 0x07F8 [0x7C] Fritha (ID: 17850921/0x01106229)->Render.Flags2 |= 0x01
121: 0x07FE [0xCD] LOAD_SCHEDULED_TASK_ALT4: Load scheduler "e1on" with entities [Unnamed NPC (ID: 17850988/0x0110626C), Unnamed NPC (ID: 17850988/0x0110626C)], work=[234*, 0*]
122: 0x080F [0x5C] MUSIC_CONTROL: Set Idle (Day) music to song 57*
123: 0x0813 [0x5C] MUSIC_CONTROL: Set Idle (Night) music to song 57*
124: 0x0817 [0x9A] WAIT_MUSIC_SERVER()
125: 0x0818 [0x52] END_LOAD_SCHEDULER: End scheduler "s054" with entities [EventEntity, EventEntity], work=632*
126: 0x0827 [0x45] LOAD_SCHEDULED_TASK: Load scheduler "s055" with entities [EventEntity, EventEntity], work=[632*, 0*]
127: 0x0838 [0x66] LOAD_EXT_SCHEDULER_MAIN: Load scheduler "sin0" with entities [Fritha (ID: 17850921/0x01106229), Fritha (ID: 17850921/0x01106229)], work=88*
128: 0x0847 [0x6E] LocalPlayer uses emote 21*
129: 0x084E [0x99] Wait for LocalPlayer animation to complete
130: 0x0853 [0x2B] Fritha (ID: 17850921/0x01106229) [8053*]:
    → "Eeeeeeeeek!!!"
131: 0x085A [0x1C] WAIT(90* ticks)
132: 0x085D [0x23] WAIT_FOR_DIALOG_INTERACTION
133: 0x085E [0x66] LOAD_EXT_SCHEDULER_MAIN: Load scheduler "sha1" with entities [Alianne (ID: 17850986/0x0110626A), Alianne (ID: 17850986/0x0110626A)], work=19*
134: 0x086D [0x52] END_LOAD_SCHEDULER: End scheduler "s055" with entities [EventEntity, EventEntity], work=632*
135: 0x087C [0x45] LOAD_SCHEDULED_TASK: Load scheduler "s056" with entities [EventEntity, EventEntity], work=[632*, 0*]
136: 0x088D [0x6E] Deumagneot (ID: 17850928/0x01106230) uses emote 29*
137: 0x0894 [0x99] Wait for Deumagneot (ID: 17850928/0x01106230) animation to complete
138: 0x0899 [0x1C] WAIT(15* ticks)
139: 0x089C [0x6B] STOP_AND_IDLE: Fritha (ID: 17850921/0x01106229) stops current action and resets to idle (animation="idl0")
140: 0x08A5 [0x7C] Alianne (ID: 17850986/0x0110626A)->Render.Flags2 |= 0x00
141: 0x08AB [0x2B] Alianne (ID: 17850986/0x0110626A) [8036*]:
    → "Oh no...!"
142: 0x08B2 [0x23] WAIT_FOR_DIALOG_INTERACTION
143: 0x08B3 [0x7C] Alianne (ID: 17850986/0x0110626A)->Render.Flags2 |= 0x01
144: 0x08B9 [0x52] END_LOAD_SCHEDULER: End scheduler "s056" with entities [EventEntity, EventEntity], work=632*
145: 0x08C8 [0x45] LOAD_SCHEDULED_TASK: Load scheduler "s057" with entities [EventEntity, EventEntity], work=[632*, 0*]
146: 0x08D9 [0x4A] Fritha (ID: 17850921/0x01106229) looks at Alianne (ID: 17850986/0x0110626A)
147: 0x08E2 [0x2B] Fritha (ID: 17850921/0x01106229) [8054*]:
    → "It's going to eat us alive!"
148: 0x08E9 [0x23] WAIT_FOR_DIALOG_INTERACTION
149: 0x08EA [0x27] REQ_SET(priority=0x05, entity_id=Deumagneot (ID: 17850928/0x01106230), tag_num=0x03)
150: 0x08F1 [0x1C] WAIT(30* ticks)
151: 0x08F4 [0x52] END_LOAD_SCHEDULER: End scheduler "s057" with entities [EventEntity, EventEntity], work=632*
152: 0x0903 [0x45] LOAD_SCHEDULED_TASK: Load scheduler "s058" with entities [EventEntity, EventEntity], work=[632*, 0*]
153: 0x0914 [0x27] REQ_SET(priority=0x05, entity_id=Fritha (ID: 17850921/0x01106229), tag_num=0x09)
154: 0x091B [0x1C] WAIT(15* ticks)
155: 0x091E [0x27] REQ_SET(priority=0x05, entity_id=LocalPlayer, tag_num=0x23)
156: 0x0925 [0x1C] WAIT(15* ticks)
157: 0x0928 [0x27] REQ_SET(priority=0x05, entity_id=Alianne (ID: 17850986/0x0110626A), tag_num=0x07)
158: 0x092F [0x27] REQ_SET(priority=0x05, entity_id=Unnamed NPC (ID: 17850988/0x0110626C), tag_num=0x02)
159: 0x0936 [0x1C] WAIT(90* ticks)
160: 0x0939 [0x52] END_LOAD_SCHEDULER: End scheduler "s058" with entities [EventEntity, EventEntity], work=632*
161: 0x0948 [0x45] LOAD_SCHEDULED_TASK: Load scheduler "s059" with entities [EventEntity, EventEntity], work=[632*, 0*]
162: 0x0959 [0x62] LOAD_EVENT_SCHEDULER: Load scheduler "main" with entities [EventEntity, EventEntity], work=[3*, 0*]
163: 0x096A [0x1C] WAIT(90* ticks)
164: 0x096D [0x52] END_LOAD_SCHEDULER: End scheduler "s059" with entities [EventEntity, EventEntity], work=632*
165: 0x097C [0x45] LOAD_SCHEDULED_TASK: Load scheduler "s061" with entities [EventEntity, EventEntity], work=[632*, 0*]
166: 0x098D [0x2B] Alianne (ID: 17850986/0x0110626A) [8055*]:
    → "The medicine!"
167: 0x0994 [0x23] WAIT_FOR_DIALOG_INTERACTION
168: 0x0995 [0x52] END_LOAD_SCHEDULER: End scheduler "s061" with entities [EventEntity, EventEntity], work=632*
169: 0x09A4 [0x45] LOAD_SCHEDULED_TASK: Load scheduler "s062" with entities [EventEntity, EventEntity], work=[632*, 0*]
170: 0x09B5 [0x1C] WAIT(15* ticks)
171: 0x09B8 [0xBA] SET_ENTITY_POSITION(entity_id=Alianne (ID: 17850986/0x0110626A), pos_x=406.212*, pos_z=272.412*, pos_y=-2.084*, direction=82.3°*)
172: 0x09C5 [0x29] REQ_SET_WAIT(priority=0x05, entity_id=Alianne (ID: 17850986/0x0110626A), tag_num=0x06)
173: 0x09CC [0x1C] WAIT(30* ticks)
174: 0x09CF [0x66] LOAD_EXT_SCHEDULER_MAIN: Load scheduler "sha0" with entities [Alianne (ID: 17850986/0x0110626A), Alianne (ID: 17850986/0x0110626A)], work=19*
175: 0x09DE [0x1C] WAIT(120* ticks)
176: 0x09E1 [0x52] END_LOAD_SCHEDULER: End scheduler "s062" with entities [EventEntity, EventEntity], work=632*
177: 0x09F0 [0x45] LOAD_SCHEDULED_TASK: Load scheduler "s063" with entities [EventEntity, EventEntity], work=[632*, 0*]
178: 0x0A01 [0x66] LOAD_EXT_SCHEDULER_MAIN: Load scheduler "sha1" with entities [Alianne (ID: 17850986/0x0110626A), Alianne (ID: 17850986/0x0110626A)], work=19*
179: 0x0A10 [0xCD] LOAD_SCHEDULED_TASK_ALT4: Load scheduler "e2on" with entities [Unnamed NPC (ID: 17850988/0x0110626C), Unnamed NPC (ID: 17850988/0x0110626C)], work=[234*, 0*]
180: 0x0A21 [0x1C] WAIT(120* ticks)
181: 0x0A24 [0x66] LOAD_EXT_SCHEDULER_MAIN: Load scheduler "mab0" with entities [Alianne (ID: 17850986/0x0110626A), Alianne (ID: 17850986/0x0110626A)], work=150*
182: 0x0A33 [0x52] END_LOAD_SCHEDULER: End scheduler "s063" with entities [EventEntity, EventEntity], work=632*
183: 0x0A42 [0x45] LOAD_SCHEDULED_TASK: Load scheduler "s065" with entities [EventEntity, EventEntity], work=[632*, 0*]
184: 0x0A53 [0x7C] Alianne (ID: 17850986/0x0110626A)->Render.Flags2 |= 0x00
185: 0x0A59 [0x2B] Alianne (ID: 17850986/0x0110626A) [8056*]:
    → "No!!!"
186: 0x0A60 [0x7C] Alianne (ID: 17850986/0x0110626A)->Render.Flags2 |= 0x01
187: 0x0A66 [0x1C] WAIT(30* ticks)
188: 0x0A69 [0x45] LOAD_SCHEDULED_TASK: Load scheduler "who0" with entities [LocalPlayer, LocalPlayer], work=[201*, 0*]
189: 0x0A7A [0x55] WAIT_LOAD_SCHEDULER: Wait for scheduler "who0" with entities [LocalPlayer, LocalPlayer], work=201*
190: 0x0A89 [0x52] END_LOAD_SCHEDULER: End scheduler "s065" with entities [EventEntity, EventEntity], work=632*
191: 0x0A98 [0x7B] LocalPlayer stops talking
192: 0x0A9D [0x6B] STOP_AND_IDLE: Alianne (ID: 17850986/0x0110626A) stops current action and resets to idle (animation="idl0")
193: 0x0AA6 [0x59] UPDATE_ENTITY_DATA: Unnamed NPC (ID: 17850988/0x0110626C)->Render.Flags0 |= 0x200000
194: 0x0AAD [0xBA] SET_ENTITY_POSITION(entity_id=Fritha (ID: 17850921/0x01106229), pos_x=401.180*, pos_z=276.130*, pos_y=-2.007*, direction=228.9°*)
195: 0x0ABA [0xBA] SET_ENTITY_POSITION(entity_id=LocalPlayer, pos_x=396.600*, pos_z=274.051*, pos_y=-1.903*, direction=46.3°*)
196: 0x0AC7 [0xBA] SET_ENTITY_POSITION(entity_id=Unnamed NPC (ID: 17850988/0x0110626C), pos_x=408.300*, pos_z=260.000*, pos_y=-1.700*, direction=261.6°*)
197: 0x0AD4 [0x80] LOAD_WAIT(entity=Fritha (ID: 17850921/0x01106229))
198: 0x0AD9 [0x80] LOAD_WAIT(entity=LocalPlayer)
199: 0x0ADE [0x80] LOAD_WAIT(entity=Unnamed NPC (ID: 17850988/0x0110626C))
200: 0x0AE3 [0x79] Fritha (ID: 17850921/0x01106229) looks at Alianne (ID: 17850986/0x0110626A) (Basic look)
201: 0x0AED [0x4E] SET_ENTITY_HIDE_FLAG: Hide Deumagneot (ID: 17850928/0x01106230)
202: 0x0AF3 [0x1C] WAIT(30* ticks)
203: 0x0AF6 [0x2C] CREATE_SCHEDULER_TASK: Create scheduler "corp" with entities [Alianne (ID: 17850986/0x0110626A), Alianne (ID: 17850986/0x0110626A)]
204: 0x0B03 [0x45] LOAD_SCHEDULED_TASK: Load scheduler "s066" with entities [EventEntity, EventEntity], work=[632*, 0*]
205: 0x0B14 [0x1C] WAIT(15* ticks)
206: 0x0B17 [0x45] LOAD_SCHEDULED_TASK: Load scheduler "whi1" with entities [LocalPlayer, LocalPlayer], work=[201*, 0*]
207: 0x0B28 [0xCD] LOAD_SCHEDULED_TASK_ALT4: Load scheduler "e2of" with entities [Unnamed NPC (ID: 17850988/0x0110626C), Unnamed NPC (ID: 17850988/0x0110626C)], work=[234*, 0*]
208: 0x0B39 [0x1C] WAIT(150* ticks)
209: 0x0B3C [0x27] REQ_SET(priority=0x05, entity_id=Unnamed NPC (ID: 17850988/0x0110626C), tag_num=0x03)
210: 0x0B43 [0x52] END_LOAD_SCHEDULER: End scheduler "s066" with entities [EventEntity, EventEntity], work=632*
211: 0x0B52 [0x45] LOAD_SCHEDULED_TASK: Load scheduler "s064" with entities [EventEntity, EventEntity], work=[632*, 0*]
212: 0x0B63 [0x1C] WAIT(180* ticks)
213: 0x0B66 [0x27] REQ_SET(priority=0x05, entity_id=Fritha (ID: 17850921/0x01106229), tag_num=0x0A)
214: 0x0B6D [0x1C] WAIT(10* ticks)
215: 0x0B70 [0x27] REQ_SET(priority=0x05, entity_id=LocalPlayer, tag_num=0x24)
216: 0x0B77 [0x1C] WAIT(10* ticks)
217: 0x0B7A [0x52] END_LOAD_SCHEDULER: End scheduler "s064" with entities [EventEntity, EventEntity], work=632*
218: 0x0B89 [0x45] LOAD_SCHEDULED_TASK: Load scheduler "s067" with entities [EventEntity, EventEntity], work=[632*, 0*]
219: 0x0B9A [0x2B] Fritha (ID: 17850921/0x01106229) [8057*]:
    → "Alianne!!!"
220: 0x0BA1 [0x2A] GET_REQ_LEVEL(level=5, entity_id=Fritha (ID: 17850921/0x01106229))
221: 0x0BA7 [0x2A] GET_REQ_LEVEL(level=5, entity_id=LocalPlayer)
222: 0x0BAD [0x29] REQ_SET_WAIT(priority=0x05, entity_id=LocalPlayer, tag_num=0x12)
223: 0x0BB4 [0x23] WAIT_FOR_DIALOG_INTERACTION
224: 0x0BB5 [0x52] END_LOAD_SCHEDULER: End scheduler "s067" with entities [EventEntity, EventEntity], work=632*
225: 0x0BC4 [0x45] LOAD_SCHEDULED_TASK: Load scheduler "s068" with entities [EventEntity, EventEntity], work=[632*, 0*]
226: 0x0BD5 [0x66] LOAD_EXT_SCHEDULER_MAIN: Load scheduler "sin0" with entities [Fritha (ID: 17850921/0x01106229), Fritha (ID: 17850921/0x01106229)], work=88*
227: 0x0BE4 [0x2B] Fritha (ID: 17850921/0x01106229) [8058*]:
    → "What bitter irony. She who only sought to aid others now needs aid herself."
228: 0x0BEB [0x23] WAIT_FOR_DIALOG_INTERACTION
229: 0x0BEC [0x66] LOAD_EXT_SCHEDULER_MAIN: Load scheduler "sin1" with entities [Fritha (ID: 17850921/0x01106229), Fritha (ID: 17850921/0x01106229)], work=88*
230: 0x0BFB [0x52] END_LOAD_SCHEDULER: End scheduler "s068" with entities [EventEntity, EventEntity], work=632*
231: 0x0C0A [0x45] LOAD_SCHEDULED_TASK: Load scheduler "s069" with entities [EventEntity, EventEntity], work=[632*, 0*]
232: 0x0C1B [0x27] REQ_SET(priority=0x05, entity_id=LocalPlayer, tag_num=0x13)
233: 0x0C22 [0x1C] WAIT(60* ticks)
234: 0x0C25 [0x4A] Fritha (ID: 17850921/0x01106229) looks at LocalPlayer
235: 0x0C2E [0x1C] WAIT(30* ticks)
236: 0x0C31 [0x66] LOAD_EXT_SCHEDULER_MAIN: Load scheduler "aig0" with entities [Fritha (ID: 17850921/0x01106229), Fritha (ID: 17850921/0x01106229)], work=11*
237: 0x0C40 [0x2B] Fritha (ID: 17850921/0x01106229) [8059*]:
    → "<Player>, Mistress Svenja must be apprised of the situation forthwith!"
238: 0x0C47 [0x2A] GET_REQ_LEVEL(level=5, entity_id=LocalPlayer)
239: 0x0C4D [0x4A] LocalPlayer looks at Fritha (ID: 17850921/0x01106229)
240: 0x0C56 [0x1C] WAIT(30* ticks)
241: 0x0C59 [0x23] WAIT_FOR_DIALOG_INTERACTION
242: 0x0C5A [0x5D] SET_MUSIC_VOLUME(volume=0*, fade_time=120*)
243: 0x0C5F [0x45] LOAD_SCHEDULED_TASK: Load scheduler "fdo1" with entities [EventEntity, EventEntity], work=[200*, 0*]
244: 0x0C70 [0x55] WAIT_LOAD_SCHEDULER: Wait for scheduler "fdo1" with entities [EventEntity, EventEntity], work=200*
245: 0x0C7F [0x52] END_LOAD_SCHEDULER: End scheduler "s069" with entities [EventEntity, EventEntity], work=632*
246: 0x0C8E [0x78] ENABLE_GAME_TIMER_RESET_WEATHER()
247: 0x0C8F [0x1C] WAIT(120* ticks)
248: 0x0C92 [0x5C] MUSIC_CONTROL: Set Idle (Day) music to song 60*
249: 0x0C96 [0x5C] MUSIC_CONTROL: Set Idle (Night) music to song 60*
250: 0x0C9A [0x9A] WAIT_MUSIC_SERVER()
251: 0x0C9B [0x46] CAMERA_CONTROL: Restore default settings
252: 0x0C9D [0x1C] WAIT(60* ticks)
253: 0x0CA0 [0x45] LOAD_SCHEDULED_TASK: Load scheduler "fdi2" with entities [EventEntity, EventEntity], work=[200*, 0*]
254: 0x0CB1 [0x21] END_EVENT
255: 0x0CB2 [0x00] END_REQSTACK()
```

### Event 525

#### Metadata

| Field        | Value      |
|--------------|------------|
| Entrypoint   | 0x0CB3     |
| Data Size    | 1038 bytes |
| Instructions | 110        |

```
      00 01 02 03 04 05 06 07  08 09 0A 0B 0C 0D 0E 0F
      -- -- -- -- -- -- -- --  -- -- -- -- -- -- -- --
0CB0:          42 45 00 80 F8  FF FF 7F F8 FF FF 7F 66     BE..........f
0CC0: 64 6F 31 01 80 55 00 80  F8 FF FF 7F F8 FF FF 7F  do1..U..........
0CD0: 66 64 6F 31 46 01 38 02  80 2F 00 6A 62 10 01 92  fdo1F.8../.jb...
0CE0: 01 6A 62 10 01 92 01 29  62 10 01 94 01 6A 62 10  .jb....)b....jb.
0CF0: 01 94 01 F0 FF FF 7F 94  01 29 62 10 01 4E 00 6A  .........)b..N.j
0D00: 62 10 01 BA 6A 62 10 01  6A 80 6B 80 6C 80 6D 80  b...jb..j.k.l.m.
0D10: BA F0 FF FF 7F 6E 80 6F  80 70 80 71 80 80 6A 62  .....n.o.p.q..jb
0D20: 10 01 80 F0 FF FF 7F 80  29 62 10 01 27 05 F0 FF  ........)b..'...
0D30: FF 7F 25 1C 23 80 27 05  6A 62 10 01 09 1C 23 80  ..%.#.'.jb....#.
0D40: 45 72 80 F8 FF FF 7F F8  FF FF 7F 73 30 34 38 01  Er.........s048.
0D50: 80 1C 1A 80 45 00 80 F8  FF FF 7F F8 FF FF 7F 66  ....E..........f
0D60: 64 69 31 01 80 1C 1B 80  66 1E 80 29 62 10 01 29  di1.....f..)b..)
0D70: 62 10 01 74 6C 6B 30 79  00 29 62 10 01 6A 62 10  b..tlk0y.)b..jb.
0D80: 01 2B 29 62 10 01 73 80  23 52 72 80 F8 FF FF 7F  .+)b..s.#Rr.....
0D90: F8 FF FF 7F 73 30 34 38  45 72 80 F8 FF FF 7F F8  ....s048Er......
0DA0: FF FF 7F 73 30 35 33 01  80 2B 29 62 10 01 74 80  ...s053..+)b..t.
0DB0: 23 66 1E 80 29 62 10 01  29 62 10 01 74 6C 6B 31  #f..)b..)b..tlk1
0DC0: 52 72 80 F8 FF FF 7F F8  FF FF 7F 73 30 35 33 45  Rr.........s053E
0DD0: 72 80 F8 FF FF 7F F8 FF  FF 7F 73 30 34 39 01 80  r.........s049..
0DE0: 66 75 80 6A 62 10 01 6A  62 10 01 74 6C 6B 30 2B  fu.jb..jb..tlk0+
0DF0: 6A 62 10 01 76 80 23 66  75 80 6A 62 10 01 6A 62  jb..v.#fu.jb..jb
0E00: 10 01 74 6C 6B 31 52 72  80 F8 FF FF 7F F8 FF FF  ..tlk1Rr........
0E10: 7F 73 30 34 39 45 72 80  F8 FF FF 7F F8 FF FF 7F  .s049Er.........
0E20: 73 30 35 30 01 80 66 1E  80 29 62 10 01 29 62 10  s050..f..)b..)b.
0E30: 01 74 6C 6B 30 2B 29 62  10 01 77 80 23 2B 29 62  .tlk0+)b..w.#+)b
0E40: 10 01 78 80 23 66 1E 80  29 62 10 01 29 62 10 01  ..x.#f..)b..)b..
0E50: 74 6C 6B 31 52 72 80 F8  FF FF 7F F8 FF FF 7F 73  tlk1Rr.........s
0E60: 30 35 30 02 87 7F 79 80  80 7F 0E 45 72 80 F8 FF  050...y....Er...
0E70: FF 7F F8 FF FF 7F 73 30  35 32 01 80 01 AC 0E 02  ......s052......
0E80: 87 7F 7A 80 80 9B 0E 45  72 80 F8 FF FF 7F F8 FF  ..z....Er.......
0E90: FF 7F 73 30 35 32 01 80  01 AC 0E 45 72 80 F8 FF  ..s052.....Er...
0EA0: FF 7F F8 FF FF 7F 73 30  35 31 01 80 79 00 6A 62  ......s051..y.jb
0EB0: 10 01 F0 FF FF 7F 79 00  F0 FF FF 7F 6A 62 10 01  ......y.....jb..
0EC0: 2B 6A 62 10 01 7B 80 23  79 00 6A 62 10 01 29 62  +jb..{.#y.jb..)b
0ED0: 10 01 1C 16 80 79 00 F0  FF FF 7F 29 62 10 01 66  .....y.....)b..f
0EE0: 75 80 6A 62 10 01 6A 62  10 01 74 6C 6B 30 2B 6A  u.jb..jb..tlk0+j
0EF0: 62 10 01 7C 80 23 66 75  80 6A 62 10 01 6A 62 10  b..|.#fu.jb..jb.
0F00: 01 74 6C 6B 31 52 72 80  F8 FF FF 7F F8 FF FF 7F  .tlk1Rr.........
0F10: 73 30 35 31 52 72 80 F8  FF FF 7F F8 FF FF 7F 73  s051Rr.........s
0F20: 30 35 32 45 72 80 F8 FF  FF 7F F8 FF FF 7F 73 30  052Er.........s0
0F30: 35 34 01 80 66 1E 80 29  62 10 01 29 62 10 01 74  54..f..)b..)b..t
0F40: 6C 6B 30 2B 29 62 10 01  7D 80 23 2B 29 62 10 01  lk0+)b..}.#+)b..
0F50: 7E 80 23 66 1E 80 29 62  10 01 29 62 10 01 74 6C  ~.#f..)b..)b..tl
0F60: 6B 31 52 72 80 F8 FF FF  7F F8 FF FF 7F 73 30 35  k1Rr.........s05
0F70: 34 45 72 80 F8 FF FF 7F  F8 FF FF 7F 73 30 35 35  4Er.........s055
0F80: 01 80 66 75 80 6A 62 10  01 6A 62 10 01 74 6C 6B  ..fu.jb..jb..tlk
0F90: 30 2B 6A 62 10 01 7F 80  23 66 75 80 6A 62 10 01  0+jb....#fu.jb..
0FA0: 6A 62 10 01 74 6C 6B 31  52 72 80 F8 FF FF 7F F8  jb..tlk1Rr......
0FB0: FF FF 7F 73 30 35 35 45  72 80 F8 FF FF 7F F8 FF  ...s055Er.......
0FC0: FF 7F 73 30 35 36 01 80  66 1E 80 29 62 10 01 29  ..s056..f..)b..)
0FD0: 62 10 01 74 6C 6B 30 2B  29 62 10 01 80 80 23 66  b..tlk0+)b....#f
0FE0: 1E 80 29 62 10 01 29 62  10 01 74 6C 6B 31 52 72  ..)b..)b..tlk1Rr
0FF0: 80 F8 FF FF 7F F8 FF FF  7F 73 30 35 36 45 72 80  .........s056Er.
1000: F8 FF FF 7F F8 FF FF 7F  73 30 35 37 01 80 66 75  ........s057..fu
1010: 80 6A 62 10 01 6A 62 10  01 74 6C 6B 30 2B 6A 62  .jb..jb..tlk0+jb
1020: 10 01 81 80 23 2B 6A 62  10 01 82 80 23 66 75 80  ....#+jb....#fu.
1030: 6A 62 10 01 6A 62 10 01  74 6C 6B 31 52 72 80 F8  jb..jb..tlk1Rr..
1040: FF FF 7F F8 FF FF 7F 73  30 35 37 45 72 80 F8 FF  .......s057Er...
1050: FF 7F F8 FF FF 7F 73 30  35 38 01 80 66 1E 80 29  ......s058..f..)
1060: 62 10 01 29 62 10 01 74  6C 6B 30 2B 29 62 10 01  b..)b..tlk0+)b..
1070: 83 80 23 45 00 80 F8 FF  FF 7F F8 FF FF 7F 66 64  ..#E..........fd
1080: 6F 31 01 80 55 00 80 F8  FF FF 7F F8 FF FF 7F 66  o1..U..........f
1090: 64 6F 31 52 72 80 F8 FF  FF 7F F8 FF FF 7F 73 30  do1Rr.........s0
10A0: 35 38 27 05 6A 62 10 01  0E 46 00 1C 1B 80 45 00  58'.jb...F....E.
10B0: 80 F8 FF FF 7F F8 FF FF  7F 66 64 69 32 01 80 21  .........fdi2..!
10C0: 00                                                .               
```

#### Opcodes

```
  0: 0x0CB3 [0x42] SET_CLI_EVENT_CANCEL_DATA()
  1: 0x0CB4 [0x45] LOAD_SCHEDULED_TASK: Load scheduler "fdo1" with entities [EventEntity, EventEntity], work=[200*, 0*]
  2: 0x0CC5 [0x55] WAIT_LOAD_SCHEDULER: Wait for scheduler "fdo1" with entities [EventEntity, EventEntity], work=200*
  3: 0x0CD4 [0x46] CAMERA_CONTROL: Disable user control
  4: 0x0CD6 [0x38] SET_CLIENT_EVENT_MODE(mode=19*)
  5: 0x0CD9 [0x2F] Alianne (ID: 17850986/0x0110626A)->Render.Flags0 &= ~0x80000 // Bit 19
  6: 0x0CDF [0x92] Alianne (ID: 17850986/0x0110626A)->Render.Flags3 ^= 0x01
  7: 0x0CE5 [0x92] Fritha (ID: 17850921/0x01106229)->Render.Flags3 ^= 0x01
  8: 0x0CEB [0x94] Alianne (ID: 17850986/0x0110626A)->Render.Flags3 ^= 0x01
  9: 0x0CF1 [0x94] LocalPlayer->Render.Flags3 ^= 0x01
 10: 0x0CF7 [0x94] Fritha (ID: 17850921/0x01106229)->Render.Flags3 ^= 0x01
 11: 0x0CFD [0x4E] SET_ENTITY_HIDE_FLAG: Show Alianne (ID: 17850986/0x0110626A)
 12: 0x0D03 [0xBA] SET_ENTITY_POSITION(entity_id=Alianne (ID: 17850986/0x0110626A), pos_x=400.134*, pos_z=262.198*, pos_y=-1.110*, direction=326.2°*)
 13: 0x0D10 [0xBA] SET_ENTITY_POSITION(entity_id=LocalPlayer, pos_x=400.192*, pos_z=260.268*, pos_y=-1.014*, direction=312.4°*)
 14: 0x0D1D [0x80] LOAD_WAIT(entity=Alianne (ID: 17850986/0x0110626A))
 15: 0x0D22 [0x80] LOAD_WAIT(entity=LocalPlayer)
 16: 0x0D27 [0x80] LOAD_WAIT(entity=Fritha (ID: 17850921/0x01106229))
 17: 0x0D2C [0x27] REQ_SET(priority=0x05, entity_id=LocalPlayer, tag_num=0x25)
 18: 0x0D33 [0x1C] WAIT(40* ticks)
 19: 0x0D36 [0x27] REQ_SET(priority=0x05, entity_id=Alianne (ID: 17850986/0x0110626A), tag_num=0x09)
 20: 0x0D3D [0x1C] WAIT(40* ticks)
 21: 0x0D40 [0x45] LOAD_SCHEDULED_TASK: Load scheduler "s048" with entities [EventEntity, EventEntity], work=[747*, 0*]
 22: 0x0D51 [0x1C] WAIT(15* ticks)
 23: 0x0D54 [0x45] LOAD_SCHEDULED_TASK: Load scheduler "fdi1" with entities [EventEntity, EventEntity], work=[200*, 0*]
 24: 0x0D65 [0x1C] WAIT(60* ticks)
 25: 0x0D68 [0x66] LOAD_EXT_SCHEDULER_MAIN: Load scheduler "tlk0" with entities [Fritha (ID: 17850921/0x01106229), Fritha (ID: 17850921/0x01106229)], work=10*
 26: 0x0D77 [0x79] Fritha (ID: 17850921/0x01106229) looks at Alianne (ID: 17850986/0x0110626A) (Basic look)
 27: 0x0D81 [0x2B] Fritha (ID: 17850921/0x01106229) [8061*]:
    → "Ah, a pleasant surprise to find you and Othellius out here! Hopefully the trip didn't overly exhaust you."
 28: 0x0D88 [0x23] WAIT_FOR_DIALOG_INTERACTION
 29: 0x0D89 [0x52] END_LOAD_SCHEDULER: End scheduler "s048" with entities [EventEntity, EventEntity], work=747*
 30: 0x0D98 [0x45] LOAD_SCHEDULED_TASK: Load scheduler "s053" with entities [EventEntity, EventEntity], work=[747*, 0*]
 31: 0x0DA9 [0x2B] Fritha (ID: 17850921/0x01106229) [8062*]:
    → "What news of Alianne?"
 32: 0x0DB0 [0x23] WAIT_FOR_DIALOG_INTERACTION
 33: 0x0DB1 [0x66] LOAD_EXT_SCHEDULER_MAIN: Load scheduler "tlk1" with entities [Fritha (ID: 17850921/0x01106229), Fritha (ID: 17850921/0x01106229)], work=10*
 34: 0x0DC0 [0x52] END_LOAD_SCHEDULER: End scheduler "s053" with entities [EventEntity, EventEntity], work=747*
 35: 0x0DCF [0x45] LOAD_SCHEDULED_TASK: Load scheduler "s049" with entities [EventEntity, EventEntity], work=[747*, 0*]
 36: 0x0DE0 [0x66] LOAD_EXT_SCHEDULER_MAIN: Load scheduler "tlk0" with entities [Alianne (ID: 17850986/0x0110626A), Alianne (ID: 17850986/0x0110626A)], work=9*
 37: 0x0DEF [0x2B] Alianne (ID: 17850986/0x0110626A) [8063*]:
    → "I'm afraid she remains in a catatonic state. Forgive me for cutting to the quick, but I must inquire--have there been any reports of a morbol sighting?"
 38: 0x0DF6 [0x23] WAIT_FOR_DIALOG_INTERACTION
 39: 0x0DF7 [0x66] LOAD_EXT_SCHEDULER_MAIN: Load scheduler "tlk1" with entities [Alianne (ID: 17850986/0x0110626A), Alianne (ID: 17850986/0x0110626A)], work=9*
 40: 0x0E06 [0x52] END_LOAD_SCHEDULER: End scheduler "s049" with entities [EventEntity, EventEntity], work=747*
 41: 0x0E15 [0x45] LOAD_SCHEDULED_TASK: Load scheduler "s050" with entities [EventEntity, EventEntity], work=[747*, 0*]
 42: 0x0E26 [0x66] LOAD_EXT_SCHEDULER_MAIN: Load scheduler "tlk0" with entities [Fritha (ID: 17850921/0x01106229), Fritha (ID: 17850921/0x01106229)], work=10*
 43: 0x0E35 [0x2B] Fritha (ID: 17850921/0x01106229) [8064*]:
    → "What a peculiar question. A young man, barely outgrown his school britches, came here not two hours ago asking the same thing."
 44: 0x0E3C [0x23] WAIT_FOR_DIALOG_INTERACTION
 45: 0x0E3D [0x2B] Fritha (ID: 17850921/0x01106229) [8065*]:
    → "I'll tell you what I told him. Yes, we have heard about one of their ilk ravaging the area."
 46: 0x0E44 [0x23] WAIT_FOR_DIALOG_INTERACTION
 47: 0x0E45 [0x66] LOAD_EXT_SCHEDULER_MAIN: Load scheduler "tlk1" with entities [Fritha (ID: 17850921/0x01106229), Fritha (ID: 17850921/0x01106229)], work=10*
 48: 0x0E54 [0x52] END_LOAD_SCHEDULER: End scheduler "s050" with entities [EventEntity, EventEntity], work=747*
 49: 0x0E63 [0x02] IF !(LocalPlayer->Race == 5*) GOTO 0x0E7F
 50: 0x0E6B [0x45] LOAD_SCHEDULED_TASK: Load scheduler "s052" with entities [EventEntity, EventEntity], work=[747*, 0*]
 51: 0x0E7C [0x01] GOTO 0x0EAC
 52: 0x0E7F [0x02] IF !(LocalPlayer->Race == 6*) GOTO 0x0E9B
 53: 0x0E87 [0x45] LOAD_SCHEDULED_TASK: Load scheduler "s052" with entities [EventEntity, EventEntity], work=[747*, 0*]
 54: 0x0E98 [0x01] GOTO 0x0EAC
 55: 0x0E9B [0x45] LOAD_SCHEDULED_TASK: Load scheduler "s051" with entities [EventEntity, EventEntity], work=[747*, 0*]

SUBROUTINE_0EAC:
 56: 0x0EAC [0x79] Alianne (ID: 17850986/0x0110626A) looks at LocalPlayer (Basic look)
 57: 0x0EB6 [0x79] LocalPlayer looks at Alianne (ID: 17850986/0x0110626A) (Basic look)
 58: 0x0EC0 [0x2B] Alianne (ID: 17850986/0x0110626A) [8066*]:
    → "That young man must be Logan!"
 59: 0x0EC7 [0x23] WAIT_FOR_DIALOG_INTERACTION
 60: 0x0EC8 [0x79] Alianne (ID: 17850986/0x0110626A) looks at Fritha (ID: 17850921/0x01106229) (Basic look)
 61: 0x0ED2 [0x1C] WAIT(30* ticks)
 62: 0x0ED5 [0x79] LocalPlayer looks at Fritha (ID: 17850921/0x01106229) (Basic look)
 63: 0x0EDF [0x66] LOAD_EXT_SCHEDULER_MAIN: Load scheduler "tlk0" with entities [Alianne (ID: 17850986/0x0110626A), Alianne (ID: 17850986/0x0110626A)], work=9*
 64: 0x0EEE [0x2B] Alianne (ID: 17850986/0x0110626A) [8067*]:
    → "What direction did he head in? It's imperative that we find out quickly!"
 65: 0x0EF5 [0x23] WAIT_FOR_DIALOG_INTERACTION
 66: 0x0EF6 [0x66] LOAD_EXT_SCHEDULER_MAIN: Load scheduler "tlk1" with entities [Alianne (ID: 17850986/0x0110626A), Alianne (ID: 17850986/0x0110626A)], work=9*
 67: 0x0F05 [0x52] END_LOAD_SCHEDULER: End scheduler "s051" with entities [EventEntity, EventEntity], work=747*
 68: 0x0F14 [0x52] END_LOAD_SCHEDULER: End scheduler "s052" with entities [EventEntity, EventEntity], work=747*
 69: 0x0F23 [0x45] LOAD_SCHEDULED_TASK: Load scheduler "s054" with entities [EventEntity, EventEntity], work=[747*, 0*]
 70: 0x0F34 [0x66] LOAD_EXT_SCHEDULER_MAIN: Load scheduler "tlk0" with entities [Fritha (ID: 17850921/0x01106229), Fritha (ID: 17850921/0x01106229)], work=10*
 71: 0x0F43 [0x2B] Fritha (ID: 17850921/0x01106229) [8068*]:
    → "The last known location of the morbol was around J-10, so I presume he's somewhere around there."
 72: 0x0F4A [0x23] WAIT_FOR_DIALOG_INTERACTION
 73: 0x0F4B [0x2B] Fritha (ID: 17850921/0x01106229) [8069*]:
    → "Though your Logan was not the picture of good health, he positively sprinted when he heard the news."
 74: 0x0F52 [0x23] WAIT_FOR_DIALOG_INTERACTION
 75: 0x0F53 [0x66] LOAD_EXT_SCHEDULER_MAIN: Load scheduler "tlk1" with entities [Fritha (ID: 17850921/0x01106229), Fritha (ID: 17850921/0x01106229)], work=10*
 76: 0x0F62 [0x52] END_LOAD_SCHEDULER: End scheduler "s054" with entities [EventEntity, EventEntity], work=747*
 77: 0x0F71 [0x45] LOAD_SCHEDULED_TASK: Load scheduler "s055" with entities [EventEntity, EventEntity], work=[747*, 0*]
 78: 0x0F82 [0x66] LOAD_EXT_SCHEDULER_MAIN: Load scheduler "tlk0" with entities [Alianne (ID: 17850986/0x0110626A), Alianne (ID: 17850986/0x0110626A)], work=9*
 79: 0x0F91 [0x2B] Alianne (ID: 17850986/0x0110626A) [8070*]:
    → "Well...he came down with the affliction that has taken many pioneers of late, and I fear has gotten in over his head."
 80: 0x0F98 [0x23] WAIT_FOR_DIALOG_INTERACTION
 81: 0x0F99 [0x66] LOAD_EXT_SCHEDULER_MAIN: Load scheduler "tlk1" with entities [Alianne (ID: 17850986/0x0110626A), Alianne (ID: 17850986/0x0110626A)], work=9*
 82: 0x0FA8 [0x52] END_LOAD_SCHEDULER: End scheduler "s055" with entities [EventEntity, EventEntity], work=747*
 83: 0x0FB7 [0x45] LOAD_SCHEDULED_TASK: Load scheduler "s056" with entities [EventEntity, EventEntity], work=[747*, 0*]
 84: 0x0FC8 [0x66] LOAD_EXT_SCHEDULER_MAIN: Load scheduler "tlk0" with entities [Fritha (ID: 17850921/0x01106229), Fritha (ID: 17850921/0x01106229)], work=10*
 85: 0x0FD7 [0x2B] Fritha (ID: 17850921/0x01106229) [8071*]:
    → "Surely you can't mean to search for him with just the two of you?"
 86: 0x0FDE [0x23] WAIT_FOR_DIALOG_INTERACTION
 87: 0x0FDF [0x66] LOAD_EXT_SCHEDULER_MAIN: Load scheduler "tlk1" with entities [Fritha (ID: 17850921/0x01106229), Fritha (ID: 17850921/0x01106229)], work=10*
 88: 0x0FEE [0x52] END_LOAD_SCHEDULER: End scheduler "s056" with entities [EventEntity, EventEntity], work=747*
 89: 0x0FFD [0x45] LOAD_SCHEDULED_TASK: Load scheduler "s057" with entities [EventEntity, EventEntity], work=[747*, 0*]
 90: 0x100E [0x66] LOAD_EXT_SCHEDULER_MAIN: Load scheduler "tlk0" with entities [Alianne (ID: 17850986/0x0110626A), Alianne (ID: 17850986/0x0110626A)], work=9*
 91: 0x101D [0x2B] Alianne (ID: 17850986/0x0110626A) [8072*]:
    → "If you cannot spare men for a search party, then I implore you to dispatch at least one person to the frontier station in Yorcia Weald and tell Borghest exactly what you've told us."
 92: 0x1024 [0x23] WAIT_FOR_DIALOG_INTERACTION
 93: 0x1025 [0x2B] Alianne (ID: 17850986/0x0110626A) [8073*]:
    → "We'll scout ahead and clear a path!"
 94: 0x102C [0x23] WAIT_FOR_DIALOG_INTERACTION
 95: 0x102D [0x66] LOAD_EXT_SCHEDULER_MAIN: Load scheduler "tlk1" with entities [Alianne (ID: 17850986/0x0110626A), Alianne (ID: 17850986/0x0110626A)], work=9*
 96: 0x103C [0x52] END_LOAD_SCHEDULER: End scheduler "s057" with entities [EventEntity, EventEntity], work=747*
 97: 0x104B [0x45] LOAD_SCHEDULED_TASK: Load scheduler "s058" with entities [EventEntity, EventEntity], work=[747*, 0*]
 98: 0x105C [0x66] LOAD_EXT_SCHEDULER_MAIN: Load scheduler "tlk0" with entities [Fritha (ID: 17850921/0x01106229), Fritha (ID: 17850921/0x01106229)], work=10*
 99: 0x106B [0x2B] Fritha (ID: 17850921/0x01106229) [8074*]:
    → "Your brashness may get the better of you one day, Othellius. Please be careful."
100: 0x1072 [0x23] WAIT_FOR_DIALOG_INTERACTION
101: 0x1073 [0x45] LOAD_SCHEDULED_TASK: Load scheduler "fdo1" with entities [EventEntity, EventEntity], work=[200*, 0*]
102: 0x1084 [0x55] WAIT_LOAD_SCHEDULER: Wait for scheduler "fdo1" with entities [EventEntity, EventEntity], work=200*
103: 0x1093 [0x52] END_LOAD_SCHEDULER: End scheduler "s058" with entities [EventEntity, EventEntity], work=747*
104: 0x10A2 [0x27] REQ_SET(priority=0x05, entity_id=Alianne (ID: 17850986/0x0110626A), tag_num=0x0E)
105: 0x10A9 [0x46] CAMERA_CONTROL: Restore default settings
106: 0x10AB [0x1C] WAIT(60* ticks)
107: 0x10AE [0x45] LOAD_SCHEDULED_TASK: Load scheduler "fdi2" with entities [EventEntity, EventEntity], work=[200*, 0*]
108: 0x10BF [0x21] END_EVENT
109: 0x10C0 [0x00] END_REQSTACK()
```

### Event 527

#### Metadata

| Field        | Value      |
|--------------|------------|
| Entrypoint   | 0x10C1     |
| Data Size    | 1109 bytes |
| Instructions | 126        |

```
      00 01 02 03 04 05 06 07  08 09 0A 0B 0C 0D 0E 0F
      -- -- -- -- -- -- -- --  -- -- -- -- -- -- -- --
10C0:    42 5D 01 80 4D 80 45  00 80 F8 FF FF 7F F8 FF   B]..M.E........
10D0: FF 7F 66 64 6F 31 01 80  55 00 80 F8 FF FF 7F F8  ..fdo1..U.......
10E0: FF FF 7F 66 64 6F 31 46  01 38 02 80 77 2B 80 2C  ...fdo1F.8..w+.,
10F0: 80 2F 00 6A 62 10 01 2F  00 6B 62 10 01 2F 00 6C  ./.jb../.kb../.l
1100: 62 10 01 92 01 6A 62 10  01 92 01 6B 62 10 01 94  b....jb....kb...
1110: 01 6A 62 10 01 94 01 F0  FF FF 7F 94 01 6B 62 10  .jb..........kb.
1120: 01 94 01 6C 62 10 01 4E  00 6B 62 10 01 4E 00 6C  ...lb..N.kb..N.l
1130: 62 10 01 4E 01 F0 FF FF  7F BA 6A 62 10 01 84 80  b..N......jb....
1140: 85 80 86 80 87 80 BA F0  FF FF 7F 88 80 89 80 8A  ................
1150: 80 87 80 BA 6B 62 10 01  8B 80 8C 80 8D 80 8E 80  ....kb..........
1160: BA 6C 62 10 01 8F 80 90  80 91 80 8E 80 80 6B 62  .lb...........kb
1170: 10 01 80 6C 62 10 01 1C  16 80 CD 53 80 6C 62 10  ...lb......S.lb.
1180: 01 6C 62 10 01 65 31 6F  6E 01 80 45 72 80 F8 FF  .lb..e1on..Er...
1190: FF 7F F8 FF FF 7F 73 31  32 32 01 80 1C 1A 80 45  ......s122.....E
11A0: 00 80 F8 FF FF 7F F8 FF  FF 7F 66 64 69 31 01 80  ..........fdi1..
11B0: 55 72 80 F8 FF FF 7F F8  FF FF 7F 73 31 32 32 1C  Ur.........s122.
11C0: 16 80 45 72 80 F8 FF FF  7F F8 FF FF 7F 73 31 32  ..Er.........s12
11D0: 33 01 80 1C 16 80 2B 6B  62 10 01 92 80 23 55 72  3.....+kb....#Ur
11E0: 80 F8 FF FF 7F F8 FF FF  7F 73 31 32 33 45 72 80  .........s123Er.
11F0: F8 FF FF 7F F8 FF FF 7F  73 31 32 34 01 80 1C 16  ........s124....
1200: 80 59 05 6B 62 10 01 01  BA 6B 62 10 01 8B 80 8C  .Y.kb....kb.....
1210: 80 66 80 8E 80 66 93 80  6B 62 10 01 6B 62 10 01  .f...f..kb..kb..
1220: 69 6E 30 30 1C 18 80 52  72 80 F8 FF FF 7F F8 FF  in00...Rr.......
1230: FF 7F 73 31 32 34 45 72  80 F8 FF FF 7F F8 FF FF  ..s124Er........
1240: 7F 73 31 32 35 01 80 2B  6B 62 10 01 94 80 23 5C  .s125..+kb....#\
1250: 00 54 80 5C 01 54 80 9A  66 95 80 6B 62 10 01 6B  .T.\.T..f..kb..k
1260: 62 10 01 62 72 6E 30 1C  1E 80 52 72 80 F8 FF FF  b..brn0...Rr....
1270: 7F F8 FF FF 7F 73 31 32  35 45 72 80 F8 FF FF 7F  .....s125Er.....
1280: F8 FF FF 7F 73 31 32 36  01 80 2B 6B 62 10 01 96  ....s126..+kb...
1290: 80 1C 16 80 CD 53 80 6C  62 10 01 6C 62 10 01 65  .....S.lb..lb..e
12A0: 31 6F 66 01 80 4A 6C 62  10 01 6B 62 10 01 1C 16  1of..Jlb..kb....
12B0: 80 CD 53 80 6C 62 10 01  6C 62 10 01 65 31 6F 6E  ..S.lb..lb..e1on
12C0: 01 80 1C 16 80 52 72 80  F8 FF FF 7F F8 FF FF 7F  .....Rr.........
12D0: 73 31 32 36 45 72 80 F8  FF FF 7F F8 FF FF 7F 73  s126Er.........s
12E0: 31 32 37 01 80 1C 16 80  C4 01 01 80 6C 62 10 01  127.........lb..
12F0: 6B 62 10 01 1C 16 80 45  4E 80 F0 FF FF 7F F0 FF  kb.....EN.......
1300: FF 7F 77 68 6F 30 01 80  55 4E 80 F0 FF FF 7F F0  ..who0..UN......
1310: FF FF 7F 77 68 6F 30 52  72 80 F8 FF FF 7F F8 FF  ...who0Rr.......
1320: FF 7F 73 31 32 37 6B 69  64 6C 30 6B 62 10 01 6B  ..s127kidl0kb..k
1330: 69 64 6C 30 6C 62 10 01  29 05 6B 62 10 01 05 4E  idl0lb..).kb...N
1340: 00 6A 62 10 01 4E 00 F0  FF FF 7F BA 6B 62 10 01  .jb..N......kb..
1350: 97 80 98 80 2F 80 99 80  80 6A 62 10 01 80 6B 62  ..../....jb...kb
1360: 10 01 80 F0 FF FF 7F 1C  1B 80 45 72 80 F8 FF FF  ..........Er....
1370: 7F F8 FF FF 7F 73 31 32  38 01 80 1C 1A 80 45 4E  .....s128.....EN
1380: 80 F0 FF FF 7F F0 FF FF  7F 77 68 69 30 01 80 2C  .........whi0..,
1390: 6B 62 10 01 6B 62 10 01  64 65 61 64 2B 6B 62 10  kb..kb..dead+kb.
13A0: 01 9A 80 1C 9B 80 27 05  6A 62 10 01 0B 1C 1E 80  ......'.jb......
13B0: 27 05 F0 FF FF 7F 26 1C  9B 80 52 72 80 F8 FF FF  '.....&...Rr....
13C0: 7F F8 FF FF 7F 73 31 32  38 45 72 80 F8 FF FF 7F  .....s128Er.....
13D0: F8 FF FF 7F 73 31 32 39  01 80 2B 6A 62 10 01 9C  ....s129..+jb...
13E0: 80 23 2A 05 6A 62 10 01  2A 05 F0 FF FF 7F 52 72  .#*.jb..*.....Rr
13F0: 80 F8 FF FF 7F F8 FF FF  7F 73 31 32 39 45 72 80  .........s129Er.
1400: F8 FF FF 7F F8 FF FF 7F  73 31 33 30 01 80 4A F0  ........s130..J.
1410: FF FF 7F 6C 62 10 01 1C  16 80 27 05 F0 FF FF 7F  ...lb.....'.....
1420: 0D 1C 4D 80 45 00 80 F0  FF FF 7F F0 FF FF 7F 6F  ..M.E..........o
1430: 76 6C 31 01 80 52 72 80  F8 FF FF 7F F8 FF FF 7F  vl1..Rr.........
1440: 73 31 33 30 45 72 80 F8  FF FF 7F F8 FF FF 7F 73  s130Er.........s
1450: 31 33 31 01 80 1C 16 80  5D 01 80 4D 80 45 4E 80  131.....]..M.EN.
1460: F0 FF FF 7F F0 FF FF 7F  77 68 6F 30 01 80 55 4E  ........who0..UN
1470: 80 F0 FF FF 7F F0 FF FF  7F 77 68 6F 30 45 00 80  .........who0E..
1480: F8 FF FF 7F F8 FF FF 7F  66 64 6F 31 01 80 55 00  ........fdo1..U.
1490: 80 F8 FF FF 7F F8 FF FF  7F 66 64 6F 31 52 72 80  .........fdo1Rr.
14A0: F8 FF FF 7F F8 FF FF 7F  73 31 33 31 45 72 80 F8  ........s131Er..
14B0: FF FF 7F F8 FF FF 7F 62  6C 6F 66 01 80 45 4E 80  .......blof..EN.
14C0: F0 FF FF 7F F0 FF FF 7F  77 68 69 30 01 80 CD 53  ........whi0...S
14D0: 80 6C 62 10 01 6C 62 10  01 65 31 6F 66 01 80 78  .lb..lb..e1of..x
14E0: 27 05 F0 FF FF 7F 0E 27  05 6A 62 10 01 0E 27 05  '......'.jb...'.
14F0: 6B 62 10 01 06 5C 00 1B  80 5C 01 1B 80 9A 46 00  kb...\...\....F.
1500: 1C 1B 80 45 00 80 F8 FF  FF 7F F8 FF FF 7F 66 64  ...E..........fd
1510: 69 32 01 80 21 00                                 i2..!.          
```

#### Opcodes

```
  0: 0x10C1 [0x42] SET_CLI_EVENT_CANCEL_DATA()
  1: 0x10C2 [0x5D] SET_MUSIC_VOLUME(volume=0*, fade_time=120*)
  2: 0x10C7 [0x45] LOAD_SCHEDULED_TASK: Load scheduler "fdo1" with entities [EventEntity, EventEntity], work=[200*, 0*]
  3: 0x10D8 [0x55] WAIT_LOAD_SCHEDULER: Wait for scheduler "fdo1" with entities [EventEntity, EventEntity], work=200*
  4: 0x10E7 [0x46] CAMERA_CONTROL: Disable user control
  5: 0x10E9 [0x38] SET_CLIENT_EVENT_MODE(mode=19*)
  6: 0x10EC [0x77] SET_EVENT_TIME_WEATHER(hour=255*, weather=2*)
  7: 0x10F1 [0x2F] Alianne (ID: 17850986/0x0110626A)->Render.Flags0 &= ~0x80000 // Bit 19
  8: 0x10F7 [0x2F] Davengrot (ID: 17850987/0x0110626B)->Render.Flags0 &= ~0x80000 // Bit 19
  9: 0x10FD [0x2F] Unnamed NPC (ID: 17850988/0x0110626C)->Render.Flags0 &= ~0x80000 // Bit 19
 10: 0x1103 [0x92] Alianne (ID: 17850986/0x0110626A)->Render.Flags3 ^= 0x01
 11: 0x1109 [0x92] Davengrot (ID: 17850987/0x0110626B)->Render.Flags3 ^= 0x01
 12: 0x110F [0x94] Alianne (ID: 17850986/0x0110626A)->Render.Flags3 ^= 0x01
 13: 0x1115 [0x94] LocalPlayer->Render.Flags3 ^= 0x01
 14: 0x111B [0x94] Davengrot (ID: 17850987/0x0110626B)->Render.Flags3 ^= 0x01
 15: 0x1121 [0x94] Unnamed NPC (ID: 17850988/0x0110626C)->Render.Flags3 ^= 0x01
 16: 0x1127 [0x4E] SET_ENTITY_HIDE_FLAG: Show Davengrot (ID: 17850987/0x0110626B)
 17: 0x112D [0x4E] SET_ENTITY_HIDE_FLAG: Show Unnamed NPC (ID: 17850988/0x0110626C)
 18: 0x1133 [0x4E] SET_ENTITY_HIDE_FLAG: Hide LocalPlayer
 19: 0x1139 [0xBA] SET_ENTITY_POSITION(entity_id=Alianne (ID: 17850986/0x0110626A), pos_x=437.034*, pos_z=-268.561*, pos_y=-1.630*, direction=108.7°*)
 20: 0x1146 [0xBA] SET_ENTITY_POSITION(entity_id=LocalPlayer, pos_x=435.679*, pos_z=-269.459*, pos_y=-1.777*, direction=108.7°*)
 21: 0x1153 [0xBA] SET_ENTITY_POSITION(entity_id=Davengrot (ID: 17850987/0x0110626B), pos_x=437.336*, pos_z=-266.086*, pos_y=-1.412*, direction=78.4°*)
 22: 0x1160 [0xBA] SET_ENTITY_POSITION(entity_id=Unnamed NPC (ID: 17850988/0x0110626C), pos_x=438.102*, pos_z=-286.016*, pos_y=-2.136*, direction=78.4°*)
 23: 0x116D [0x80] LOAD_WAIT(entity=Davengrot (ID: 17850987/0x0110626B))
 24: 0x1172 [0x80] LOAD_WAIT(entity=Unnamed NPC (ID: 17850988/0x0110626C))
 25: 0x1177 [0x1C] WAIT(30* ticks)
 26: 0x117A [0xCD] LOAD_SCHEDULED_TASK_ALT4: Load scheduler "e1on" with entities [Unnamed NPC (ID: 17850988/0x0110626C), Unnamed NPC (ID: 17850988/0x0110626C)], work=[234*, 0*]
 27: 0x118B [0x45] LOAD_SCHEDULED_TASK: Load scheduler "s122" with entities [EventEntity, EventEntity], work=[747*, 0*]
 28: 0x119C [0x1C] WAIT(15* ticks)
 29: 0x119F [0x45] LOAD_SCHEDULED_TASK: Load scheduler "fdi1" with entities [EventEntity, EventEntity], work=[200*, 0*]
 30: 0x11B0 [0x55] WAIT_LOAD_SCHEDULER: Wait for scheduler "s122" with entities [EventEntity, EventEntity], work=747*
 31: 0x11BF [0x1C] WAIT(30* ticks)
 32: 0x11C2 [0x45] LOAD_SCHEDULED_TASK: Load scheduler "s123" with entities [EventEntity, EventEntity], work=[747*, 0*]
 33: 0x11D3 [0x1C] WAIT(30* ticks)
 34: 0x11D6 [0x2B] Davengrot (ID: 17850987/0x0110626B) [8076*]:
    → "Hah! Cornered now, beast!"
 35: 0x11DD [0x23] WAIT_FOR_DIALOG_INTERACTION
 36: 0x11DE [0x55] WAIT_LOAD_SCHEDULER: Wait for scheduler "s123" with entities [EventEntity, EventEntity], work=747*
 37: 0x11ED [0x45] LOAD_SCHEDULED_TASK: Load scheduler "s124" with entities [EventEntity, EventEntity], work=[747*, 0*]
 38: 0x11FE [0x1C] WAIT(30* ticks)
 39: 0x1201 [0x59] UPDATE_ENTITY_DATA: Davengrot (ID: 17850987/0x0110626B)->Render.Flags0 |= 0x200000
 40: 0x1208 [0xBA] SET_ENTITY_POSITION(entity_id=Davengrot (ID: 17850987/0x0110626B), pos_x=437.336*, pos_z=-266.086*, pos_y=-1.700*, direction=78.4°*)
 41: 0x1215 [0x66] LOAD_EXT_SCHEDULER_MAIN: Load scheduler "in00" with entities [Davengrot (ID: 17850987/0x0110626B), Davengrot (ID: 17850987/0x0110626B)], work=1*
 42: 0x1224 [0x1C] WAIT(90* ticks)
 43: 0x1227 [0x52] END_LOAD_SCHEDULER: End scheduler "s124" with entities [EventEntity, EventEntity], work=747*
 44: 0x1236 [0x45] LOAD_SCHEDULED_TASK: Load scheduler "s125" with entities [EventEntity, EventEntity], work=[747*, 0*]
 45: 0x1247 [0x2B] Davengrot (ID: 17850987/0x0110626B) [8077*]:
    → "Let's get a good look at that gaping wound of yours."
 46: 0x124E [0x23] WAIT_FOR_DIALOG_INTERACTION
 47: 0x124F [0x5C] MUSIC_CONTROL: Set Idle (Day) music to song 57*
 48: 0x1253 [0x5C] MUSIC_CONTROL: Set Idle (Night) music to song 57*
 49: 0x1257 [0x9A] WAIT_MUSIC_SERVER()
 50: 0x1258 [0x66] LOAD_EXT_SCHEDULER_MAIN: Load scheduler "brn0" with entities [Davengrot (ID: 17850987/0x0110626B), Davengrot (ID: 17850987/0x0110626B)], work=79*
 51: 0x1267 [0x1C] WAIT(10* ticks)
 52: 0x126A [0x52] END_LOAD_SCHEDULER: End scheduler "s125" with entities [EventEntity, EventEntity], work=747*
 53: 0x1279 [0x45] LOAD_SCHEDULED_TASK: Load scheduler "s126" with entities [EventEntity, EventEntity], work=[747*, 0*]
 54: 0x128A [0x2B] Davengrot (ID: 17850987/0x0110626B) [8078*]:
    → "Now hold still, you--"
 55: 0x1291 [0x1C] WAIT(30* ticks)
 56: 0x1294 [0xCD] LOAD_SCHEDULED_TASK_ALT4: Load scheduler "e1of" with entities [Unnamed NPC (ID: 17850988/0x0110626C), Unnamed NPC (ID: 17850988/0x0110626C)], work=[234*, 0*]
 57: 0x12A5 [0x4A] Unnamed NPC (ID: 17850988/0x0110626C) looks at Davengrot (ID: 17850987/0x0110626B)
 58: 0x12AE [0x1C] WAIT(30* ticks)
 59: 0x12B1 [0xCD] LOAD_SCHEDULED_TASK_ALT4: Load scheduler "e1on" with entities [Unnamed NPC (ID: 17850988/0x0110626C), Unnamed NPC (ID: 17850988/0x0110626C)], work=[234*, 0*]
 60: 0x12C2 [0x1C] WAIT(30* ticks)
 61: 0x12C5 [0x52] END_LOAD_SCHEDULER: End scheduler "s126" with entities [EventEntity, EventEntity], work=747*
 62: 0x12D4 [0x45] LOAD_SCHEDULED_TASK: Load scheduler "s127" with entities [EventEntity, EventEntity], work=[747*, 0*]
 63: 0x12E5 [0x1C] WAIT(30* ticks)
 64: 0x12E8 [0xC4] SCHEDULE_MAGIC_CASTING_ALT (arg=17): Unnamed NPC (ID: 17850988/0x0110626C) casts magic 0* on Davengrot (ID: 17850987/0x0110626B)
 65: 0x12F4 [0x1C] WAIT(30* ticks)
 66: 0x12F7 [0x45] LOAD_SCHEDULED_TASK: Load scheduler "who0" with entities [LocalPlayer, LocalPlayer], work=[201*, 0*]
 67: 0x1308 [0x55] WAIT_LOAD_SCHEDULER: Wait for scheduler "who0" with entities [LocalPlayer, LocalPlayer], work=201*
 68: 0x1317 [0x52] END_LOAD_SCHEDULER: End scheduler "s127" with entities [EventEntity, EventEntity], work=747*
 69: 0x1326 [0x6B] STOP_AND_IDLE: Davengrot (ID: 17850987/0x0110626B) stops current action and resets to idle (animation="idl0")
 70: 0x132F [0x6B] STOP_AND_IDLE: Unnamed NPC (ID: 17850988/0x0110626C) stops current action and resets to idle (animation="idl0")
 71: 0x1338 [0x29] REQ_SET_WAIT(priority=0x05, entity_id=Davengrot (ID: 17850987/0x0110626B), tag_num=0x05)
 72: 0x133F [0x4E] SET_ENTITY_HIDE_FLAG: Show Alianne (ID: 17850986/0x0110626A)
 73: 0x1345 [0x4E] SET_ENTITY_HIDE_FLAG: Show LocalPlayer
 74: 0x134B [0xBA] SET_ENTITY_POSITION(entity_id=Davengrot (ID: 17850987/0x0110626B), pos_x=438.099*, pos_z=-279.097*, pos_y=-2.000*, direction=88.0°*)
 75: 0x1358 [0x80] LOAD_WAIT(entity=Alianne (ID: 17850986/0x0110626A))
 76: 0x135D [0x80] LOAD_WAIT(entity=Davengrot (ID: 17850987/0x0110626B))
 77: 0x1362 [0x80] LOAD_WAIT(entity=LocalPlayer)
 78: 0x1367 [0x1C] WAIT(60* ticks)
 79: 0x136A [0x45] LOAD_SCHEDULED_TASK: Load scheduler "s128" with entities [EventEntity, EventEntity], work=[747*, 0*]
 80: 0x137B [0x1C] WAIT(15* ticks)
 81: 0x137E [0x45] LOAD_SCHEDULED_TASK: Load scheduler "whi0" with entities [LocalPlayer, LocalPlayer], work=[201*, 0*]
 82: 0x138F [0x2C] CREATE_SCHEDULER_TASK: Create scheduler "dead" with entities [Davengrot (ID: 17850987/0x0110626B), Davengrot (ID: 17850987/0x0110626B)]
 83: 0x139C [0x2B] Davengrot (ID: 17850987/0x0110626B) [8079*]:
    → "Urk..."
 84: 0x13A3 [0x1C] WAIT(20* ticks)
 85: 0x13A6 [0x27] REQ_SET(priority=0x05, entity_id=Alianne (ID: 17850986/0x0110626A), tag_num=0x0B)
 86: 0x13AD [0x1C] WAIT(10* ticks)
 87: 0x13B0 [0x27] REQ_SET(priority=0x05, entity_id=LocalPlayer, tag_num=0x26)
 88: 0x13B7 [0x1C] WAIT(20* ticks)
 89: 0x13BA [0x52] END_LOAD_SCHEDULER: End scheduler "s128" with entities [EventEntity, EventEntity], work=747*
 90: 0x13C9 [0x45] LOAD_SCHEDULED_TASK: Load scheduler "s129" with entities [EventEntity, EventEntity], work=[747*, 0*]
 91: 0x13DA [0x2B] Alianne (ID: 17850986/0x0110626A) [8080*]:
    → "Logan!"
 92: 0x13E1 [0x23] WAIT_FOR_DIALOG_INTERACTION
 93: 0x13E2 [0x2A] GET_REQ_LEVEL(level=5, entity_id=Alianne (ID: 17850986/0x0110626A))
 94: 0x13E8 [0x2A] GET_REQ_LEVEL(level=5, entity_id=LocalPlayer)
 95: 0x13EE [0x52] END_LOAD_SCHEDULER: End scheduler "s129" with entities [EventEntity, EventEntity], work=747*
 96: 0x13FD [0x45] LOAD_SCHEDULED_TASK: Load scheduler "s130" with entities [EventEntity, EventEntity], work=[747*, 0*]
 97: 0x140E [0x4A] LocalPlayer looks at Unnamed NPC (ID: 17850988/0x0110626C)
 98: 0x1417 [0x1C] WAIT(30* ticks)
 99: 0x141A [0x27] REQ_SET(priority=0x05, entity_id=LocalPlayer, tag_num=0x0D)
100: 0x1421 [0x1C] WAIT(120* ticks)
101: 0x1424 [0x45] LOAD_SCHEDULED_TASK: Load scheduler "ovl1" with entities [LocalPlayer, LocalPlayer], work=[200*, 0*]
102: 0x1435 [0x52] END_LOAD_SCHEDULER: End scheduler "s130" with entities [EventEntity, EventEntity], work=747*
103: 0x1444 [0x45] LOAD_SCHEDULED_TASK: Load scheduler "s131" with entities [EventEntity, EventEntity], work=[747*, 0*]
104: 0x1455 [0x1C] WAIT(30* ticks)
105: 0x1458 [0x5D] SET_MUSIC_VOLUME(volume=0*, fade_time=120*)
106: 0x145D [0x45] LOAD_SCHEDULED_TASK: Load scheduler "who0" with entities [LocalPlayer, LocalPlayer], work=[201*, 0*]
107: 0x146E [0x55] WAIT_LOAD_SCHEDULER: Wait for scheduler "who0" with entities [LocalPlayer, LocalPlayer], work=201*
108: 0x147D [0x45] LOAD_SCHEDULED_TASK: Load scheduler "fdo1" with entities [EventEntity, EventEntity], work=[200*, 0*]
109: 0x148E [0x55] WAIT_LOAD_SCHEDULER: Wait for scheduler "fdo1" with entities [EventEntity, EventEntity], work=200*
110: 0x149D [0x52] END_LOAD_SCHEDULER: End scheduler "s131" with entities [EventEntity, EventEntity], work=747*
111: 0x14AC [0x45] LOAD_SCHEDULED_TASK: Load scheduler "blof" with entities [EventEntity, EventEntity], work=[747*, 0*]
112: 0x14BD [0x45] LOAD_SCHEDULED_TASK: Load scheduler "whi0" with entities [LocalPlayer, LocalPlayer], work=[201*, 0*]
113: 0x14CE [0xCD] LOAD_SCHEDULED_TASK_ALT4: Load scheduler "e1of" with entities [Unnamed NPC (ID: 17850988/0x0110626C), Unnamed NPC (ID: 17850988/0x0110626C)], work=[234*, 0*]
114: 0x14DF [0x78] ENABLE_GAME_TIMER_RESET_WEATHER()
115: 0x14E0 [0x27] REQ_SET(priority=0x05, entity_id=LocalPlayer, tag_num=0x0E)
116: 0x14E7 [0x27] REQ_SET(priority=0x05, entity_id=Alianne (ID: 17850986/0x0110626A), tag_num=0x0E)
117: 0x14EE [0x27] REQ_SET(priority=0x05, entity_id=Davengrot (ID: 17850987/0x0110626B), tag_num=0x06)
118: 0x14F5 [0x5C] MUSIC_CONTROL: Set Idle (Day) music to song 60*
119: 0x14F9 [0x5C] MUSIC_CONTROL: Set Idle (Night) music to song 60*
120: 0x14FD [0x9A] WAIT_MUSIC_SERVER()
121: 0x14FE [0x46] CAMERA_CONTROL: Restore default settings
122: 0x1500 [0x1C] WAIT(60* ticks)
123: 0x1503 [0x45] LOAD_SCHEDULED_TASK: Load scheduler "fdi2" with entities [EventEntity, EventEntity], work=[200*, 0*]
124: 0x1514 [0x21] END_EVENT
125: 0x1515 [0x00] END_REQSTACK()
```

### Event 528

#### Metadata

| Field        | Value      |
|--------------|------------|
| Entrypoint   | 0x1516     |
| Data Size    | 4457 bytes |
| Instructions | 518        |

```
      00 01 02 03 04 05 06 07  08 09 0A 0B 0C 0D 0E 0F
      -- -- -- -- -- -- -- --  -- -- -- -- -- -- -- --
1510:                   42 5D  01 80 4D 80 45 00 80 F8        B]..M.E...
1520: FF FF 7F F8 FF FF 7F 66  64 6F 31 01 80 55 00 80  .......fdo1..U..
1530: F8 FF FF 7F F8 FF FF 7F  66 64 6F 31 46 01 38 02  ........fdo1F.8.
1540: 80 77 2B 80 2C 80 2F 00  6A 62 10 01 2F 00 6B 62  .w+.,./.jb../.kb
1550: 10 01 2F 00 6E 62 10 01  2F 00 6F 62 10 01 2F 00  ../.nb../.ob../.
1560: 70 62 10 01 2F 00 6C 62  10 01 92 01 6A 62 10 01  pb../.lb....jb..
1570: 92 01 6B 62 10 01 92 01  6E 62 10 01 92 01 6F 62  ..kb....nb....ob
1580: 10 01 92 01 70 62 10 01  94 01 6A 62 10 01 94 01  ....pb....jb....
1590: F0 FF FF 7F 94 01 6B 62  10 01 94 01 6C 62 10 01  ......kb....lb..
15A0: 94 01 6E 62 10 01 94 01  6F 62 10 01 94 01 70 62  ..nb....ob....pb
15B0: 10 01 4E 00 6A 62 10 01  4E 00 6B 62 10 01 4E 00  ..N.jb..N.kb..N.
15C0: 6E 62 10 01 4E 00 6F 62  10 01 4E 00 70 62 10 01  nb..N.ob..N.pb..
15D0: 4E 00 6C 62 10 01 BA 6A  62 10 01 9D 80 9E 80 9F  N.lb...jb.......
15E0: 80 A0 80 BA F0 FF FF 7F  97 80 98 80 2F 80 99 80  ............/...
15F0: BA 6B 62 10 01 A1 80 A2  80 A3 80 A4 80 BA 6E 62  .kb...........nb
1600: 10 01 A5 80 A6 80 A7 80  A0 80 BA 6F 62 10 01 A8  ...........ob...
1610: 80 A9 80 AA 80 A0 80 BA  70 62 10 01 AB 80 AC 80  ........pb......
1620: AD 80 A0 80 BA 6C 62 10  01 8F 80 90 80 91 80 8E  .....lb.........
1630: 80 80 F0 FF FF 7F 80 6B  62 10 01 80 6C 62 10 01  .......kb...lb..
1640: 80 6E 62 10 01 80 6F 62  10 01 80 70 62 10 01 80  .nb...ob...pb...
1650: 6A 62 10 01 4A F0 FF FF  7F 6C 62 10 01 4A 6C 62  jb..J....lb..Jlb
1660: 10 01 F0 FF FF 7F 4A 6A  62 10 01 6B 62 10 01 1C  ......Jjb..kb...
1670: 16 80 27 05 F0 FF FF 7F  0D 66 75 80 6A 62 10 01  ..'......fu.jb..
1680: 6A 62 10 01 73 68 61 30  2C 6B 62 10 01 6B 62 10  jb..sha0,kb..kb.
1690: 01 63 6F 72 70 1C 1B 80  5C 00 01 80 5C 01 01 80  .corp...\...\...
16A0: 5C 02 01 80 5C 03 01 80  9A 45 72 80 F8 FF FF 7F  \...\....Er.....
16B0: F8 FF FF 7F 73 31 33 34  01 80 1C 1A 80 45 00 80  ....s134.....E..
16C0: F8 FF FF 7F F8 FF FF 7F  66 64 69 31 01 80 2C 6C  ........fdi1..,l
16D0: 62 10 01 6C 62 10 01 64  65 61 64 1C 4D 80 52 72  b..lb..dead.M.Rr
16E0: 80 F8 FF FF 7F F8 FF FF  7F 73 31 33 34 45 72 80  .........s134Er.
16F0: F8 FF FF 7F F8 FF FF 7F  73 31 33 35 01 80 27 05  ........s135..'.
1700: F0 FF FF 7F 0E 1C 18 80  27 05 6E 62 10 01 03 1C  ........'.nb....
1710: 1E 80 27 05 6F 62 10 01  02 1C 1E 80 27 05 70 62  ..'.ob......'.pb
1720: 10 01 02 1C 1E 80 52 72  80 F8 FF FF 7F F8 FF FF  ......Rr........
1730: 7F 73 31 33 35 45 72 80  F8 FF FF 7F F8 FF FF 7F  .s135Er.........
1740: 73 31 33 36 01 80 4A F0  FF FF 7F 6B 62 10 01 2B  s136..J....kb..+
1750: 6E 62 10 01 AE 80 23 2B  6E 62 10 01 AF 80 23 2A  nb....#+nb....#*
1760: 05 6E 62 10 01 52 72 80  F8 FF FF 7F F8 FF FF 7F  .nb..Rr.........
1770: 73 31 33 36 45 72 80 F8  FF FF 7F F8 FF FF 7F 73  s136Er.........s
1780: 31 33 37 01 80 1C 9B 80  BA 6F 62 10 01 B0 80 B1  137......ob.....
1790: 80 B2 80 A0 80 BA 70 62  10 01 B3 80 B4 80 5E 80  ......pb......^.
17A0: A0 80 66 17 80 70 62 10  01 70 62 10 01 73 68 61  ..f..pb..pb..sha
17B0: 30 2B 6B 62 10 01 B5 80  23 52 72 80 F8 FF FF 7F  0+kb....#Rr.....
17C0: F8 FF FF 7F 73 31 33 37  45 72 80 F8 FF FF 7F F8  ....s137Er......
17D0: FF FF 7F 73 31 33 38 01  80 2B 6A 62 10 01 B6 80  ...s138..+jb....
17E0: 23 52 72 80 F8 FF FF 7F  F8 FF FF 7F 73 31 33 38  #Rr.........s138
17F0: 45 72 80 F8 FF FF 7F F8  FF FF 7F 73 31 33 39 01  Er.........s139.
1800: 80 2B 6B 62 10 01 B7 80  23 52 72 80 F8 FF FF 7F  .+kb....#Rr.....
1810: F8 FF FF 7F 73 31 33 39  45 72 80 F8 FF FF 7F F8  ....s139Er......
1820: FF FF 7F 73 31 34 30 01  80 2B 6E 62 10 01 B8 80  ...s140..+nb....
1830: 23 52 72 80 F8 FF FF 7F  F8 FF FF 7F 73 31 34 30  #Rr.........s140
1840: 45 72 80 F8 FF FF 7F F8  FF FF 7F 73 31 34 31 01  Er.........s141.
1850: 80 66 75 80 6A 62 10 01  6A 62 10 01 73 68 61 31  .fu.jb..jb..sha1
1860: 2B 6A 62 10 01 B9 80 1C  18 80 23 52 72 80 F8 FF  +jb.......#Rr...
1870: FF 7F F8 FF FF 7F 73 31  34 31 45 72 80 F8 FF FF  ......s141Er....
1880: 7F F8 FF FF 7F 73 31 34  32 01 80 66 BA 80 6E 62  .....s142..f..nb
1890: 10 01 6E 62 10 01 73 68  61 31 1C 18 80 4A 6E 62  ..nb..sha1...Jnb
18A0: 10 01 F0 FF FF 7F 79 00  6A 62 10 01 F0 FF FF 7F  ......y.jb......
18B0: 79 00 F0 FF FF 7F 6E 62  10 01 1C 16 80 66 BA 80  y.....nb.....f..
18C0: 6E 62 10 01 6E 62 10 01  74 6C 6B 30 2B 6E 62 10  nb..nb..tlk0+nb.
18D0: 01 BB 80 23 66 BA 80 6E  62 10 01 6E 62 10 01 74  ...#f..nb..nb..t
18E0: 6C 6B 31 5C 00 1B 80 5C  01 1B 80 5C 02 54 80 5C  lk1\...\...\.T.\
18F0: 03 54 80 9A 52 72 80 F8  FF FF 7F F8 FF FF 7F 73  .T..Rr.........s
