# 17850921 - Fritha

## Common Data

| Field            | Value                        |
|------------------|------------------------------|
| Zone             | Foret de Hennetiel (ID: 262) |
| Block Size       | 520 bytes                    |
| Total Events     | 14                           |
| References Count | 24                           |

## List of Events

| Event ID                 | Entrypoint   |   Size |   Instructions |
|--------------------------|--------------|--------|----------------|
| [65535](#event-65535)    | 0x0000       |      1 |              1 |
| [2500](#event-2500)      | 0x0001       |     52 |             14 |
| [2501](#event-2501)      | 0x0035       |     44 |             10 |
| [2502](#event-2502)      | 0x0061       |     69 |             15 |
| [2504](#event-2504)      | 0x00A6       |     44 |             10 |
| [2503](#event-2503)      | 0x00D2       |     11 |              7 |
| [519](#event-519)        | 0x00DD       |      1 |              1 |
| [520](#event-520)        | 0x00DE       |     37 |             11 |
| [521](#event-521)        | 0x0103       |      1 |              1 |
| [65535.1](#event-655351) | 0x0104       |     14 |              4 |
| [65535.2](#event-655352) | 0x0112       |     14 |              4 |
| [522](#event-522)        | 0x0120       |     32 |             10 |
| [525](#event-525)        | 0x0140       |      1 |              1 |
| [526](#event-526)        | 0x0141       |     28 |              8 |

## DAT References (imed_data)

|   Index | Hex Value   |   Dec Value |
|---------|-------------|-------------|
|       0 | 0x000D      |          13 |
|       1 | 0x1D49      |        7497 |
|       2 | 0x1D4A      |        7498 |
|       3 | 0x1D4B      |        7499 |
|       4 | 0x1D4C      |        7500 |
|       5 | 0x1D4D      |        7501 |
|       6 | 0x1D4E      |        7502 |
|       7 | 0x00C9      |         201 |
|       8 | 0x0000      |           0 |
|       9 | 0x1D4F      |        7503 |
|      10 | 0x1D50      |        7504 |
|      11 | 0x1F6E      |        8046 |
|      12 | 0x0927      |        2343 |
|      13 | 0x1F6F      |        8047 |
|      14 | 0x0028      |          40 |
|      15 | 0x5DEA3     |      384675 |
|      16 | 0x47949     |      293193 |
|      17 | 0xFFFFF89E  |  4294965406 |
|      18 | 0x62D68     |      404840 |
|      19 | 0x4276F     |      272239 |
|      20 | 0xFFFFF883  |  4294965379 |
|      21 | 0x1F7C      |        8060 |
|      22 | 0x1F7B      |        8059 |
|      23 | 0x1F8B      |        8075 |

## String References

- **7497**: Pardon me. You are a pioneer, are you not? If you would indulge me for a moment...
- **7498**: I am a researcher, sent here by order of the Scouts' Coalition to survey the water quality in the area. Yet the lurid monstrosities of the forest are too much for me to handle on my own. I am loath to impose, but will you take a sample of water from the river's mouth for me?
- **7499**: Your assistance would be greatly appreciated. Any water from the river will do, as long as it's from the mouth. Thank you again, and stay safe.
- **7500**: This is perfect! I should be able to continue my research without issue.
- **7501**: Hmm... So the same poisoned water runs through the river after all. The contamination must be welling up from a spring of some sort.
- **7502**: I may require your services again in the future, should you be in the area. Until then, I bid you goddess-speed on your journey.
- **7503**: Some foul-looking water bubbles forth at the mouth of the river.
- **7504**: Something approaches from behind as you bend down to take a sample!
- **8046**: A healer I am not, but my information-gathering capabilities are second to none. Perhaps I can find the cause of this illness.
- **8047**: The $3 that Alianne requested might not be a permanent cure, but it should buy us some time.
- **8059**: <Player>, Mistress Svenja must be apprised of the situation forthwith!
- **8060**: Alianne's condition will only worsen if she does not receive aid soon.
- **8075**: Logan headed to the place where the morbol was last sighted, somewhere around J-10. Stay alert.

## Events

### Event 65535

#### Metadata

| Field        | Value   |
|--------------|---------|
| Entrypoint   | 0x0000  |
| Data Size    | 1 bytes |
| Instructions | 1       |

```
      00 01 02 03 04 05 06 07  08 09 0A 0B 0C 0D 0E 0F
      -- -- -- -- -- -- -- --  -- -- -- -- -- -- -- --
0000: 00                                                .               
```

#### Opcodes

```
  0: 0x0000 [0x00] END_REQSTACK()
```

### Event 2500

#### Metadata

| Field        | Value    |
|--------------|----------|
| Entrypoint   | 0x0001   |
| Data Size    | 52 bytes |
| Instructions | 14       |

```
      00 01 02 03 04 05 06 07  08 09 0A 0B 0C 0D 0E 0F
      -- -- -- -- -- -- -- --  -- -- -- -- -- -- -- --
0000:    42 1E F0 FF FF 7F 6F  70 66 00 80 F8 FF FF 7F   B.....opf......
0010: F8 FF FF 7F 74 6C 62 30  1D 01 80 23 1D 02 80 23  ....tlb0...#...#
0020: 1D 03 80 23 66 00 80 F8  FF FF 7F F8 FF FF 7F 74  ...#f..........t
0030: 6C 62 31 21 00                                    lb1!.           
```

#### Opcodes

```
  0: 0x0001 [0x42] SET_CLI_EVENT_CANCEL_DATA()
  1: 0x0002 [0x1E] EventEntity looks at LocalPlayer and starts talking
  2: 0x0007 [0x6F] WAIT_FRAME_DELAY: Yield until WaitTime reaches zero
  3: 0x0008 [0x70] WAIT_ENTITY_RENDER_FLAG: Wait while EventEntity->Render.Flags3 bit 2 is set (cancel turn if not)
  4: 0x0009 [0x66] LOAD_EXT_SCHEDULER_MAIN: Load scheduler "tlb0" with entities [EventEntity, EventEntity], work=13*
  5: 0x0018 [0x1D] PRINT_EVENT_MESSAGE(message_id=7497*)
    → "Pardon me. You are a pioneer, are you not? If you would indulge me for a moment..."
  6: 0x001B [0x23] WAIT_FOR_DIALOG_INTERACTION
  7: 0x001C [0x1D] PRINT_EVENT_MESSAGE(message_id=7498*)
    → "I am a researcher, sent here by order of the Scouts' Coalition to survey the water quality in the area. Yet the lurid monstrosities of the forest are too much for me to handle on my own. I am loath to impose, but will you take a sample of water from the river's mouth for me?"
  8: 0x001F [0x23] WAIT_FOR_DIALOG_INTERACTION
  9: 0x0020 [0x1D] PRINT_EVENT_MESSAGE(message_id=7499*)
    → "Your assistance would be greatly appreciated. Any water from the river will do, as long as it's from the mouth. Thank you again, and stay safe."
 10: 0x0023 [0x23] WAIT_FOR_DIALOG_INTERACTION
 11: 0x0024 [0x66] LOAD_EXT_SCHEDULER_MAIN: Load scheduler "tlb1" with entities [EventEntity, EventEntity], work=13*
 12: 0x0033 [0x21] END_EVENT
 13: 0x0034 [0x00] END_REQSTACK()
```

### Event 2501

#### Metadata

| Field        | Value    |
|--------------|----------|
| Entrypoint   | 0x0035   |
| Data Size    | 44 bytes |
| Instructions | 10       |

```
      00 01 02 03 04 05 06 07  08 09 0A 0B 0C 0D 0E 0F
      -- -- -- -- -- -- -- --  -- -- -- -- -- -- -- --
0030:                42 1E F0  FF FF 7F 6F 70 66 00 80       B.....opf..
0040: F8 FF FF 7F F8 FF FF 7F  74 6C 62 30 1D 03 80 23  ........tlb0...#
0050: 66 00 80 F8 FF FF 7F F8  FF FF 7F 74 6C 62 31 21  f..........tlb1!
0060: 00                                                .               
```

#### Opcodes

```
  0: 0x0035 [0x42] SET_CLI_EVENT_CANCEL_DATA()
  1: 0x0036 [0x1E] EventEntity looks at LocalPlayer and starts talking
  2: 0x003B [0x6F] WAIT_FRAME_DELAY: Yield until WaitTime reaches zero
  3: 0x003C [0x70] WAIT_ENTITY_RENDER_FLAG: Wait while EventEntity->Render.Flags3 bit 2 is set (cancel turn if not)
  4: 0x003D [0x66] LOAD_EXT_SCHEDULER_MAIN: Load scheduler "tlb0" with entities [EventEntity, EventEntity], work=13*
  5: 0x004C [0x1D] PRINT_EVENT_MESSAGE(message_id=7499*)
    → "Your assistance would be greatly appreciated. Any water from the river will do, as long as it's from the mouth. Thank you again, and stay safe."
  6: 0x004F [0x23] WAIT_FOR_DIALOG_INTERACTION
  7: 0x0050 [0x66] LOAD_EXT_SCHEDULER_MAIN: Load scheduler "tlb1" with entities [EventEntity, EventEntity], work=13*
  8: 0x005F [0x21] END_EVENT
  9: 0x0060 [0x00] END_REQSTACK()
```

### Event 2502

#### Metadata

| Field        | Value    |
|--------------|----------|
| Entrypoint   | 0x0061   |
| Data Size    | 69 bytes |
| Instructions | 15       |

```
      00 01 02 03 04 05 06 07  08 09 0A 0B 0C 0D 0E 0F
      -- -- -- -- -- -- -- --  -- -- -- -- -- -- -- --
0060:    42 1E F0 FF FF 7F 6F  70 66 00 80 F8 FF FF 7F   B.....opf......
0070: F8 FF FF 7F 74 6C 62 30  1D 04 80 23 1D 05 80 23  ....tlb0...#...#
0080: 1D 06 80 23 66 00 80 F8  FF FF 7F F8 FF FF 7F 74  ...#f..........t
0090: 6C 62 31 45 07 80 F0 FF  FF 7F F0 FF FF 7F 71 73  lb1E..........qs
00A0: 74 63 08 80 21 00                                 tc..!.          
```

#### Opcodes

```
  0: 0x0061 [0x42] SET_CLI_EVENT_CANCEL_DATA()
  1: 0x0062 [0x1E] EventEntity looks at LocalPlayer and starts talking
  2: 0x0067 [0x6F] WAIT_FRAME_DELAY: Yield until WaitTime reaches zero
  3: 0x0068 [0x70] WAIT_ENTITY_RENDER_FLAG: Wait while EventEntity->Render.Flags3 bit 2 is set (cancel turn if not)
  4: 0x0069 [0x66] LOAD_EXT_SCHEDULER_MAIN: Load scheduler "tlb0" with entities [EventEntity, EventEntity], work=13*
  5: 0x0078 [0x1D] PRINT_EVENT_MESSAGE(message_id=7500*)
    → "This is perfect! I should be able to continue my research without issue."
  6: 0x007B [0x23] WAIT_FOR_DIALOG_INTERACTION
  7: 0x007C [0x1D] PRINT_EVENT_MESSAGE(message_id=7501*)
    → "Hmm... So the same poisoned water runs through the river after all. The contamination must be welling up from a spring of some sort."
  8: 0x007F [0x23] WAIT_FOR_DIALOG_INTERACTION
  9: 0x0080 [0x1D] PRINT_EVENT_MESSAGE(message_id=7502*)
    → "I may require your services again in the future, should you be in the area. Until then, I bid you goddess-speed on your journey."
 10: 0x0083 [0x23] WAIT_FOR_DIALOG_INTERACTION
 11: 0x0084 [0x66] LOAD_EXT_SCHEDULER_MAIN: Load scheduler "tlb1" with entities [EventEntity, EventEntity], work=13*
 12: 0x0093 [0x45] LOAD_SCHEDULED_TASK: Load scheduler "qstc" with entities [LocalPlayer, LocalPlayer], work=[201*, 0*]
 13: 0x00A4 [0x21] END_EVENT
 14: 0x00A5 [0x00] END_REQSTACK()
```

### Event 2504

#### Metadata

| Field        | Value    |
|--------------|----------|
| Entrypoint   | 0x00A6   |
| Data Size    | 44 bytes |
| Instructions | 10       |

```
      00 01 02 03 04 05 06 07  08 09 0A 0B 0C 0D 0E 0F
      -- -- -- -- -- -- -- --  -- -- -- -- -- -- -- --
00A0:                   42 1E  F0 FF FF 7F 6F 70 66 00        B.....opf.
00B0: 80 F8 FF FF 7F F8 FF FF  7F 74 6C 62 30 1D 06 80  .........tlb0...
00C0: 23 66 00 80 F8 FF FF 7F  F8 FF FF 7F 74 6C 62 31  #f..........tlb1
00D0: 21 00                                             !.              
```

#### Opcodes

```
  0: 0x00A6 [0x42] SET_CLI_EVENT_CANCEL_DATA()
  1: 0x00A7 [0x1E] EventEntity looks at LocalPlayer and starts talking
  2: 0x00AC [0x6F] WAIT_FRAME_DELAY: Yield until WaitTime reaches zero
  3: 0x00AD [0x70] WAIT_ENTITY_RENDER_FLAG: Wait while EventEntity->Render.Flags3 bit 2 is set (cancel turn if not)
  4: 0x00AE [0x66] LOAD_EXT_SCHEDULER_MAIN: Load scheduler "tlb0" with entities [EventEntity, EventEntity], work=13*
  5: 0x00BD [0x1D] PRINT_EVENT_MESSAGE(message_id=7502*)
    → "I may require your services again in the future, should you be in the area. Until then, I bid you goddess-speed on your journey."
  6: 0x00C0 [0x23] WAIT_FOR_DIALOG_INTERACTION
  7: 0x00C1 [0x66] LOAD_EXT_SCHEDULER_MAIN: Load scheduler "tlb1" with entities [EventEntity, EventEntity], work=13*
  8: 0x00D0 [0x21] END_EVENT
  9: 0x00D1 [0x00] END_REQSTACK()
```

### Event 2503

#### Metadata

| Field        | Value    |
|--------------|----------|
| Entrypoint   | 0x00D2   |
| Data Size    | 11 bytes |
| Instructions | 7        |

```
      00 01 02 03 04 05 06 07  08 09 0A 0B 0C 0D 0E 0F
      -- -- -- -- -- -- -- --  -- -- -- -- -- -- -- --
00D0:       42 48 09 80 23 48  0A 80 23 21 00             BH..#H..#!.   
```

#### Opcodes

```
  0: 0x00D2 [0x42] SET_CLI_EVENT_CANCEL_DATA()
  1: 0x00D3 [0x48] [System] [7503*]:
    → "Some foul-looking water bubbles forth at the mouth of the river."
  2: 0x00D6 [0x23] WAIT_FOR_DIALOG_INTERACTION
  3: 0x00D7 [0x48] [System] [7504*]:
    → "Something approaches from behind as you bend down to take a sample!"
  4: 0x00DA [0x23] WAIT_FOR_DIALOG_INTERACTION
  5: 0x00DB [0x21] END_EVENT
  6: 0x00DC [0x00] END_REQSTACK()
```

### Event 519

#### Metadata

| Field        | Value   |
|--------------|---------|
| Entrypoint   | 0x00DD  |
| Data Size    | 1 bytes |
| Instructions | 1       |

```
      00 01 02 03 04 05 06 07  08 09 0A 0B 0C 0D 0E 0F
      -- -- -- -- -- -- -- --  -- -- -- -- -- -- -- --
00D0:                                         00                     .  
```

#### Opcodes

```
  0: 0x00DD [0x00] END_REQSTACK()
```

### Event 520

#### Metadata

| Field        | Value    |
|--------------|----------|
| Entrypoint   | 0x00DE   |
| Data Size    | 37 bytes |
| Instructions | 11       |

```
      00 01 02 03 04 05 06 07  08 09 0A 0B 0C 0D 0E 0F
      -- -- -- -- -- -- -- --  -- -- -- -- -- -- -- --
00D0:                                            1E F0                ..
00E0: FF FF 7F 6F 70 66 00 80  F8 FF FF 7F F8 FF FF 7F  ...opf..........
00F0: 74 6C 62 30 1D 0B 80 23  03 02 10 0C 80 1D 0D 80  tlb0...#........
0100: 23 21 00                                          #!.             
```

#### Opcodes

```
  0: 0x00DE [0x1E] EventEntity looks at LocalPlayer and starts talking
  1: 0x00E3 [0x6F] WAIT_FRAME_DELAY: Yield until WaitTime reaches zero
  2: 0x00E4 [0x70] WAIT_ENTITY_RENDER_FLAG: Wait while EventEntity->Render.Flags3 bit 2 is set (cancel turn if not)
  3: 0x00E5 [0x66] LOAD_EXT_SCHEDULER_MAIN: Load scheduler "tlb0" with entities [EventEntity, EventEntity], work=13*
  4: 0x00F4 [0x1D] PRINT_EVENT_MESSAGE(message_id=8046*)
    → "A healer I am not, but my information-gathering capabilities are second to none. Perhaps I can find the cause of this illness."
  5: 0x00F7 [0x23] WAIT_FOR_DIALOG_INTERACTION
  6: 0x00F8 [0x03] Work_Zone[2] = 2343*
  7: 0x00FD [0x1D] PRINT_EVENT_MESSAGE(message_id=8047*)
    → "The $3 that Alianne requested might not be a permanent cure, but it should buy us some time."
  8: 0x0100 [0x23] WAIT_FOR_DIALOG_INTERACTION
  9: 0x0101 [0x21] END_EVENT
 10: 0x0102 [0x00] END_REQSTACK()
```

### Event 521

#### Metadata

| Field        | Value   |
|--------------|---------|
| Entrypoint   | 0x0103  |
| Data Size    | 1 bytes |
| Instructions | 1       |

```
      00 01 02 03 04 05 06 07  08 09 0A 0B 0C 0D 0E 0F
      -- -- -- -- -- -- -- --  -- -- -- -- -- -- -- --
0100:          00                                          .            
```

#### Opcodes

```
  0: 0x0103 [0x00] END_REQSTACK()
```

### Event 65535.1

#### Metadata

| Field        | Value    |
|--------------|----------|
| Entrypoint   | 0x0104   |
| Data Size    | 14 bytes |
| Instructions | 4        |

```
      00 01 02 03 04 05 06 07  08 09 0A 0B 0C 0D 0E 0F
      -- -- -- -- -- -- -- --  -- -- -- -- -- -- -- --
0100:             32 0E 80 1F  00 0F 80 10 80 11 80 1F      2...........
0110: 01 00                                             ..              
```

#### Opcodes

```
  0: 0x0104 [0x32] ExtData[1]->MainSpeed = 40* * 0.1
  1: 0x0107 [0x1F] MOVE_ENTITY: EventEntity moves to X=384.675*, Z=293.193*, Y=-1.890*
  2: 0x010F [0x1F] MOVE_ENTITY: Update entity position (mode=1)
  3: 0x0111 [0x00] END_REQSTACK()
```

### Event 65535.2

#### Metadata

| Field        | Value    |
|--------------|----------|
| Entrypoint   | 0x0112   |
| Data Size    | 14 bytes |
| Instructions | 4        |

```
      00 01 02 03 04 05 06 07  08 09 0A 0B 0C 0D 0E 0F
      -- -- -- -- -- -- -- --  -- -- -- -- -- -- -- --
0110:       32 0E 80 1F 00 12  80 13 80 14 80 1F 01 00    2.............
```

#### Opcodes

```
  0: 0x0112 [0x32] ExtData[1]->MainSpeed = 40* * 0.1
  1: 0x0115 [0x1F] MOVE_ENTITY: EventEntity moves to X=404.840*, Z=272.239*, Y=-1.917*
  2: 0x011D [0x1F] MOVE_ENTITY: Update entity position (mode=1)
  3: 0x011F [0x00] END_REQSTACK()
```

### Event 522

#### Metadata

| Field        | Value    |
|--------------|----------|
| Entrypoint   | 0x0120   |
| Data Size    | 32 bytes |
| Instructions | 10       |

```
      00 01 02 03 04 05 06 07  08 09 0A 0B 0C 0D 0E 0F
      -- -- -- -- -- -- -- --  -- -- -- -- -- -- -- --
0120: 1E F0 FF FF 7F 6F 70 66  00 80 F8 FF FF 7F F8 FF  .....opf........
0130: FF 7F 74 6C 62 30 1D 15  80 23 1D 16 80 23 21 00  ..tlb0...#...#!.
```

#### Opcodes

```
  0: 0x0120 [0x1E] EventEntity looks at LocalPlayer and starts talking
  1: 0x0125 [0x6F] WAIT_FRAME_DELAY: Yield until WaitTime reaches zero
  2: 0x0126 [0x70] WAIT_ENTITY_RENDER_FLAG: Wait while EventEntity->Render.Flags3 bit 2 is set (cancel turn if not)
  3: 0x0127 [0x66] LOAD_EXT_SCHEDULER_MAIN: Load scheduler "tlb0" with entities [EventEntity, EventEntity], work=13*
  4: 0x0136 [0x1D] PRINT_EVENT_MESSAGE(message_id=8060*)
    → "Alianne's condition will only worsen if she does not receive aid soon."
  5: 0x0139 [0x23] WAIT_FOR_DIALOG_INTERACTION
  6: 0x013A [0x1D] PRINT_EVENT_MESSAGE(message_id=8059*)
    → "<Player>, Mistress Svenja must be apprised of the situation forthwith!"
  7: 0x013D [0x23] WAIT_FOR_DIALOG_INTERACTION
  8: 0x013E [0x21] END_EVENT
  9: 0x013F [0x00] END_REQSTACK()
```

### Event 525

#### Metadata

| Field        | Value   |
|--------------|---------|
| Entrypoint   | 0x0140  |
| Data Size    | 1 bytes |
| Instructions | 1       |

```
      00 01 02 03 04 05 06 07  08 09 0A 0B 0C 0D 0E 0F
      -- -- -- -- -- -- -- --  -- -- -- -- -- -- -- --
0140: 00                                                .               
```

#### Opcodes

```
  0: 0x0140 [0x00] END_REQSTACK()
```

### Event 526

#### Metadata

| Field        | Value    |
|--------------|----------|
| Entrypoint   | 0x0141   |
| Data Size    | 28 bytes |
| Instructions | 8        |

```
      00 01 02 03 04 05 06 07  08 09 0A 0B 0C 0D 0E 0F
      -- -- -- -- -- -- -- --  -- -- -- -- -- -- -- --
0140:    1E F0 FF FF 7F 6F 70  66 00 80 F8 FF FF 7F F8   .....opf.......
0150: FF FF 7F 74 6C 62 30 1D  17 80 23 21 00           ...tlb0...#!.   
```

#### Opcodes

```
  0: 0x0141 [0x1E] EventEntity looks at LocalPlayer and starts talking
  1: 0x0146 [0x6F] WAIT_FRAME_DELAY: Yield until WaitTime reaches zero
  2: 0x0147 [0x70] WAIT_ENTITY_RENDER_FLAG: Wait while EventEntity->Render.Flags3 bit 2 is set (cancel turn if not)
  3: 0x0148 [0x66] LOAD_EXT_SCHEDULER_MAIN: Load scheduler "tlb0" with entities [EventEntity, EventEntity], work=13*
  4: 0x0157 [0x1D] PRINT_EVENT_MESSAGE(message_id=8075*)
    → "Logan headed to the place where the morbol was last sighted, somewhere around J-10. Stay alert."
  5: 0x015A [0x23] WAIT_FOR_DIALOG_INTERACTION
  6: 0x015B [0x21] END_EVENT
  7: 0x015C [0x00] END_REQSTACK()
```
