# 17850975 - Nyline

## Common Data

| Field            | Value                        |
|------------------|------------------------------|
| Zone             | Foret de Hennetiel (ID: 262) |
| Block Size       | 1884 bytes                   |
| Total Events     | 86                           |
| References Count | 37                           |

## List of Events

| Event ID                   | Entrypoint   |   Size |   Instructions |
|----------------------------|--------------|--------|----------------|
| [65535](#event-65535)      | 0x0000       |      1 |              1 |
| [65535.1](#event-655351)   | 0x0001       |     16 |              2 |
| [65535.2](#event-655352)   | 0x0011       |     14 |              2 |
| [65535.3](#event-655353)   | 0x001F       |     16 |              2 |
| [65535.4](#event-655354)   | 0x002F       |     14 |              2 |
| [65535.5](#event-655355)   | 0x003D       |     57 |              5 |
| [65535.6](#event-655356)   | 0x0076       |     16 |              2 |
| [65535.7](#event-655357)   | 0x0086       |     14 |              2 |
| [65535.8](#event-655358)   | 0x0094       |     16 |              2 |
| [65535.9](#event-655359)   | 0x00A4       |     14 |              2 |
| [65535.10](#event-6553510) | 0x00B2       |     16 |              2 |
| [65535.11](#event-6553511) | 0x00C2       |     14 |              2 |
| [65535.12](#event-6553512) | 0x00D0       |     16 |              2 |
| [65535.13](#event-6553513) | 0x00E0       |     14 |              2 |
| [65535.14](#event-6553514) | 0x00EE       |     16 |              2 |
| [65535.15](#event-6553515) | 0x00FE       |     14 |              2 |
| [65535.16](#event-6553516) | 0x010C       |     16 |              2 |
| [65535.17](#event-6553517) | 0x011C       |     14 |              2 |
| [65535.18](#event-6553518) | 0x012A       |     16 |              2 |
| [65535.19](#event-6553519) | 0x013A       |     14 |              2 |
| [65535.20](#event-6553520) | 0x0148       |     16 |              2 |
| [65535.21](#event-6553521) | 0x0158       |     14 |              2 |
| [65535.22](#event-6553522) | 0x0166       |     16 |              2 |
| [65535.23](#event-6553523) | 0x0176       |     14 |              2 |
| [65535.24](#event-6553524) | 0x0184       |     16 |              2 |
| [65535.25](#event-6553525) | 0x0194       |     14 |              2 |
| [65535.26](#event-6553526) | 0x01A2       |     16 |              2 |
| [65535.27](#event-6553527) | 0x01B2       |     14 |              2 |
| [65535.28](#event-6553528) | 0x01C0       |     16 |              2 |
| [65535.29](#event-6553529) | 0x01D0       |     14 |              2 |
| [65535.30](#event-6553530) | 0x01DE       |     16 |              2 |
| [65535.31](#event-6553531) | 0x01EE       |     14 |              2 |
| [65535.32](#event-6553532) | 0x01FC       |     16 |              2 |
| [65535.33](#event-6553533) | 0x020C       |     14 |              2 |
| [65535.34](#event-6553534) | 0x021A       |     16 |              2 |
| [65535.35](#event-6553535) | 0x022A       |     14 |              2 |
| [65535.36](#event-6553536) | 0x0238       |     16 |              2 |
| [65535.37](#event-6553537) | 0x0248       |     14 |              2 |
| [65535.38](#event-6553538) | 0x0256       |     16 |              2 |
| [65535.39](#event-6553539) | 0x0266       |     14 |              2 |
| [65535.40](#event-6553540) | 0x0274       |     16 |              2 |
| [65535.41](#event-6553541) | 0x0284       |     14 |              2 |
| [65535.42](#event-6553542) | 0x0292       |     16 |              2 |
| [65535.43](#event-6553543) | 0x02A2       |     14 |              2 |
| [65535.44](#event-6553544) | 0x02B0       |     16 |              2 |
| [65535.45](#event-6553545) | 0x02C0       |     14 |              2 |
| [65535.46](#event-6553546) | 0x02CE       |     16 |              2 |
| [65535.47](#event-6553547) | 0x02DE       |     14 |              2 |
| [65535.48](#event-6553548) | 0x02EC       |     16 |              2 |
| [65535.49](#event-6553549) | 0x02FC       |     14 |              2 |
| [65535.50](#event-6553550) | 0x030A       |     16 |              2 |
| [65535.51](#event-6553551) | 0x031A       |     14 |              2 |
| [65535.52](#event-6553552) | 0x0328       |     16 |              2 |
| [65535.53](#event-6553553) | 0x0338       |     14 |              2 |
| [65535.54](#event-6553554) | 0x0346       |     16 |              2 |
| [65535.55](#event-6553555) | 0x0356       |     14 |              2 |
| [65535.56](#event-6553556) | 0x0364       |     16 |              4 |
| [65535.57](#event-6553557) | 0x0374       |     16 |              4 |
| [65535.58](#event-6553558) | 0x0384       |     16 |              4 |
| [65535.59](#event-6553559) | 0x0394       |     16 |              4 |
| [65535.60](#event-6553560) | 0x03A4       |     16 |              4 |
| [65535.61](#event-6553561) | 0x03B4       |     16 |              4 |
| [65535.62](#event-6553562) | 0x03C4       |     16 |              4 |
| [65535.63](#event-6553563) | 0x03D4       |     16 |              4 |
| [65535.64](#event-6553564) | 0x03E4       |     16 |              4 |
| [65535.65](#event-6553565) | 0x03F4       |     53 |              5 |
| [65535.66](#event-6553566) | 0x0429       |     16 |              2 |
| [65535.67](#event-6553567) | 0x0439       |     14 |              2 |
| [65535.68](#event-6553568) | 0x0447       |     16 |              2 |
| [65535.69](#event-6553569) | 0x0457       |     14 |              2 |
| [65535.70](#event-6553570) | 0x0465       |     16 |              2 |
| [65535.71](#event-6553571) | 0x0475       |     14 |              2 |
| [65535.72](#event-6553572) | 0x0483       |     16 |              2 |
| [65535.73](#event-6553573) | 0x0493       |     14 |              2 |
| [65535.74](#event-6553574) | 0x04A1       |     18 |              3 |
| [65535.75](#event-6553575) | 0x04B3       |     14 |              2 |
| [65535.76](#event-6553576) | 0x04C1       |      3 |              2 |
| [65535.77](#event-6553577) | 0x04C4       |      3 |              2 |
| [65535.78](#event-6553578) | 0x04C7       |      3 |              2 |
| [517](#event-517)          | 0x04CA       |      1 |              1 |
| [65535.79](#event-6553579) | 0x04CB       |     18 |              4 |
| [65535.80](#event-6553580) | 0x04DD       |     14 |              4 |
| [65535.81](#event-6553581) | 0x04EB       |     24 |              7 |
| [65535.82](#event-6553582) | 0x0503       |     16 |              5 |
| [65535.83](#event-6553583) | 0x0513       |     53 |              5 |
| [65535.84](#event-6553584) | 0x0548       |     24 |              5 |

## DAT References (imed_data)

|   Index | Hex Value   |   Dec Value |
|---------|-------------|-------------|
|       0 | 0x009F      |         159 |
|       1 | 0x009E      |         158 |
|       2 | 0x0051      |          81 |
|       3 | 0x0058      |          88 |
|       4 | 0x0097      |         151 |
|       5 | 0x0013      |          19 |
|       6 | 0x009D      |         157 |
|       7 | 0x0012      |          18 |
|       8 | 0x003C      |          60 |
|       9 | 0x0015      |          21 |
|      10 | 0x0020      |          32 |
|      11 | 0x0005      |           5 |
|      12 | 0x0007      |           7 |
|      13 | 0x0006      |           6 |
|      14 | 0x0019      |          25 |
|      15 | 0x0008      |           8 |
|      16 | 0x008C      |         140 |
|      17 | 0x000A      |          10 |
|      18 | 0x0BD3      |        3027 |
|      19 | 0x0D1F      |        3359 |
|      20 | 0x7C2A5     |      508581 |
|      21 | 0x2699A     |      158106 |
|      22 | 0xFFFFF9A2  |  4294965666 |
|      23 | 0xFFFFFF38  |  4294967096 |
|      24 | 0x000D      |          13 |
|      25 | 0x7F79D     |      522141 |
|      26 | 0x269E7     |      158183 |
|      27 | 0xFFFFFFFE  |  4294967294 |
|      28 | 0x7DCAF     |      515247 |
|      29 | 0x26ACD     |      158413 |
|      30 | 0xFFFFF8F5  |  4294965493 |
|      31 | 0x0800      |        2048 |
|      32 | 0x0069      |         105 |
|      33 | 0x7F301     |      520961 |
|      34 | 0x26A63     |      158307 |
|      35 | 0xFFFFF830  |  4294965296 |
|      36 | 0x0642      |        1602 |

## Events

### Event 65535

#### Metadata

| Field        | Value   |
|--------------|---------|
| Entrypoint   | 0x0000  |
| Data Size    | 1 bytes |
| Instructions | 1       |

```
      00 01 02 03 04 05 06 07  08 09 0A 0B 0C 0D 0E 0F
      -- -- -- -- -- -- -- --  -- -- -- -- -- -- -- --
0000: 00                                                .               
```

#### Opcodes

```
  0: 0x0000 [0x00] END_REQSTACK()
```

### Event 65535.1

#### Metadata

| Field        | Value    |
|--------------|----------|
| Entrypoint   | 0x0001   |
| Data Size    | 16 bytes |
| Instructions | 2        |

```
      00 01 02 03 04 05 06 07  08 09 0A 0B 0C 0D 0E 0F
      -- -- -- -- -- -- -- --  -- -- -- -- -- -- -- --
0000:    66 00 80 F8 FF FF 7F  F8 FF FF 7F 74 6C 6B 30   f..........tlk0
0010: 00                                                .               
```

#### Opcodes

```
  0: 0x0001 [0x66] LOAD_EXT_SCHEDULER_MAIN: Load scheduler "tlk0" with entities [EventEntity, EventEntity], work=159*
  1: 0x0010 [0x00] END_REQSTACK()
```

### Event 65535.2

#### Metadata

| Field        | Value    |
|--------------|----------|
| Entrypoint   | 0x0011   |
| Data Size    | 14 bytes |
| Instructions | 2        |

```
      00 01 02 03 04 05 06 07  08 09 0A 0B 0C 0D 0E 0F
      -- -- -- -- -- -- -- --  -- -- -- -- -- -- -- --
0010:    53 F8 FF FF 7F F8 FF  FF 7F 74 6C 6B 30 00      S........tlk0. 
```

#### Opcodes

```
  0: 0x0011 [0x53] WAIT_SCHEDULER_TASK: Wait for scheduler "tlk0" with entities [EventEntity, EventEntity]
  1: 0x001E [0x00] END_REQSTACK()
```

### Event 65535.3

#### Metadata

| Field        | Value    |
|--------------|----------|
| Entrypoint   | 0x001F   |
| Data Size    | 16 bytes |
| Instructions | 2        |

```
      00 01 02 03 04 05 06 07  08 09 0A 0B 0C 0D 0E 0F
      -- -- -- -- -- -- -- --  -- -- -- -- -- -- -- --
0010:                                               66                 f
0020: 00 80 F8 FF FF 7F F8 FF  FF 7F 74 6C 6B 31 00     ..........tlk1. 
```

#### Opcodes

```
  0: 0x001F [0x66] LOAD_EXT_SCHEDULER_MAIN: Load scheduler "tlk1" with entities [EventEntity, EventEntity], work=159*
  1: 0x002E [0x00] END_REQSTACK()
```

### Event 65535.4

#### Metadata

| Field        | Value    |
|--------------|----------|
| Entrypoint   | 0x002F   |
| Data Size    | 14 bytes |
| Instructions | 2        |

```
      00 01 02 03 04 05 06 07  08 09 0A 0B 0C 0D 0E 0F
      -- -- -- -- -- -- -- --  -- -- -- -- -- -- -- --
0020:                                               53                 S
0030: F8 FF FF 7F F8 FF FF 7F  74 6C 6B 31 00           ........tlk1.   
```

#### Opcodes

```
  0: 0x002F [0x53] WAIT_SCHEDULER_TASK: Wait for scheduler "tlk1" with entities [EventEntity, EventEntity]
  1: 0x003C [0x00] END_REQSTACK()
```

### Event 65535.5

#### Metadata

| Field        | Value    |
|--------------|----------|
| Entrypoint   | 0x003D   |
| Data Size    | 57 bytes |
| Instructions | 5        |

```
      00 01 02 03 04 05 06 07  08 09 0A 0B 0C 0D 0E 0F
      -- -- -- -- -- -- -- --  -- -- -- -- -- -- -- --
0030:                                         66 00 80               f..
0040: F8 FF FF 7F F8 FF FF 7F  74 6C 6B 30 53 F8 FF FF  ........tlk0S...
0050: 7F F8 FF FF 7F 74 6C 6B  30 66 00 80 F8 FF FF 7F  .....tlk0f......
0060: F8 FF FF 7F 74 6C 6B 31  53 F8 FF FF 7F F8 FF FF  ....tlk1S.......
0070: 7F 74 6C 6B 31 00                                 .tlk1.          
```

#### Opcodes

```
  0: 0x003D [0x66] LOAD_EXT_SCHEDULER_MAIN: Load scheduler "tlk0" with entities [EventEntity, EventEntity], work=159*
  1: 0x004C [0x53] WAIT_SCHEDULER_TASK: Wait for scheduler "tlk0" with entities [EventEntity, EventEntity]
  2: 0x0059 [0x66] LOAD_EXT_SCHEDULER_MAIN: Load scheduler "tlk1" with entities [EventEntity, EventEntity], work=159*
  3: 0x0068 [0x53] WAIT_SCHEDULER_TASK: Wait for scheduler "tlk1" with entities [EventEntity, EventEntity]
  4: 0x0075 [0x00] END_REQSTACK()
```

### Event 65535.6

#### Metadata

| Field        | Value    |
|--------------|----------|
| Entrypoint   | 0x0076   |
| Data Size    | 16 bytes |
| Instructions | 2        |

```
      00 01 02 03 04 05 06 07  08 09 0A 0B 0C 0D 0E 0F
      -- -- -- -- -- -- -- --  -- -- -- -- -- -- -- --
0070:                   66 00  80 F8 FF FF 7F F8 FF FF        f.........
0080: 7F 70 6E 74 30 00                                 .pnt0.          
```

#### Opcodes

```
  0: 0x0076 [0x66] LOAD_EXT_SCHEDULER_MAIN: Load scheduler "pnt0" with entities [EventEntity, EventEntity], work=159*
  1: 0x0085 [0x00] END_REQSTACK()
```

### Event 65535.7

#### Metadata

| Field        | Value    |
|--------------|----------|
| Entrypoint   | 0x0086   |
| Data Size    | 14 bytes |
| Instructions | 2        |

```
      00 01 02 03 04 05 06 07  08 09 0A 0B 0C 0D 0E 0F
      -- -- -- -- -- -- -- --  -- -- -- -- -- -- -- --
0080:                   53 F8  FF FF 7F F8 FF FF 7F 70        S........p
0090: 6E 74 30 00                                       nt0.            
```

#### Opcodes

```
  0: 0x0086 [0x53] WAIT_SCHEDULER_TASK: Wait for scheduler "pnt0" with entities [EventEntity, EventEntity]
  1: 0x0093 [0x00] END_REQSTACK()
```

### Event 65535.8

#### Metadata

| Field        | Value    |
|--------------|----------|
| Entrypoint   | 0x0094   |
| Data Size    | 16 bytes |
| Instructions | 2        |

```
      00 01 02 03 04 05 06 07  08 09 0A 0B 0C 0D 0E 0F
      -- -- -- -- -- -- -- --  -- -- -- -- -- -- -- --
0090:             66 00 80 F8  FF FF 7F F8 FF FF 7F 70      f..........p
00A0: 6E 74 31 00                                       nt1.            
```

#### Opcodes

```
  0: 0x0094 [0x66] LOAD_EXT_SCHEDULER_MAIN: Load scheduler "pnt1" with entities [EventEntity, EventEntity], work=159*
  1: 0x00A3 [0x00] END_REQSTACK()
```

### Event 65535.9

#### Metadata

| Field        | Value    |
|--------------|----------|
| Entrypoint   | 0x00A4   |
| Data Size    | 14 bytes |
| Instructions | 2        |

```
      00 01 02 03 04 05 06 07  08 09 0A 0B 0C 0D 0E 0F
      -- -- -- -- -- -- -- --  -- -- -- -- -- -- -- --
00A0:             53 F8 FF FF  7F F8 FF FF 7F 70 6E 74      S........pnt
00B0: 31 00                                             1.              
```

#### Opcodes

```
  0: 0x00A4 [0x53] WAIT_SCHEDULER_TASK: Wait for scheduler "pnt1" with entities [EventEntity, EventEntity]
  1: 0x00B1 [0x00] END_REQSTACK()
```

### Event 65535.10

#### Metadata

| Field        | Value    |
|--------------|----------|
| Entrypoint   | 0x00B2   |
| Data Size    | 16 bytes |
| Instructions | 2        |

```
      00 01 02 03 04 05 06 07  08 09 0A 0B 0C 0D 0E 0F
      -- -- -- -- -- -- -- --  -- -- -- -- -- -- -- --
00B0:       66 01 80 F8 FF FF  7F F8 FF FF 7F 74 6C 61    f..........tla
00C0: 30 00                                             0.              
```

#### Opcodes

```
  0: 0x00B2 [0x66] LOAD_EXT_SCHEDULER_MAIN: Load scheduler "tla0" with entities [EventEntity, EventEntity], work=158*
  1: 0x00C1 [0x00] END_REQSTACK()
```

### Event 65535.11

#### Metadata

| Field        | Value    |
|--------------|----------|
| Entrypoint   | 0x00C2   |
| Data Size    | 14 bytes |
| Instructions | 2        |

```
      00 01 02 03 04 05 06 07  08 09 0A 0B 0C 0D 0E 0F
      -- -- -- -- -- -- -- --  -- -- -- -- -- -- -- --
00C0:       53 F8 FF FF 7F F8  FF FF 7F 74 6C 61 30 00    S........tla0.
```

#### Opcodes

```
  0: 0x00C2 [0x53] WAIT_SCHEDULER_TASK: Wait for scheduler "tla0" with entities [EventEntity, EventEntity]
  1: 0x00CF [0x00] END_REQSTACK()
```

### Event 65535.12

#### Metadata

| Field        | Value    |
|--------------|----------|
| Entrypoint   | 0x00D0   |
| Data Size    | 16 bytes |
| Instructions | 2        |

```
      00 01 02 03 04 05 06 07  08 09 0A 0B 0C 0D 0E 0F
      -- -- -- -- -- -- -- --  -- -- -- -- -- -- -- --
00D0: 66 01 80 F8 FF FF 7F F8  FF FF 7F 74 6C 61 31 00  f..........tla1.
```

#### Opcodes

```
  0: 0x00D0 [0x66] LOAD_EXT_SCHEDULER_MAIN: Load scheduler "tla1" with entities [EventEntity, EventEntity], work=158*
  1: 0x00DF [0x00] END_REQSTACK()
```

### Event 65535.13

#### Metadata

| Field        | Value    |
|--------------|----------|
| Entrypoint   | 0x00E0   |
| Data Size    | 14 bytes |
| Instructions | 2        |

```
      00 01 02 03 04 05 06 07  08 09 0A 0B 0C 0D 0E 0F
      -- -- -- -- -- -- -- --  -- -- -- -- -- -- -- --
00E0: 53 F8 FF FF 7F F8 FF FF  7F 74 6C 61 31 00        S........tla1.  
```

#### Opcodes

```
  0: 0x00E0 [0x53] WAIT_SCHEDULER_TASK: Wait for scheduler "tla1" with entities [EventEntity, EventEntity]
  1: 0x00ED [0x00] END_REQSTACK()
```

### Event 65535.14

#### Metadata

| Field        | Value    |
|--------------|----------|
| Entrypoint   | 0x00EE   |
| Data Size    | 16 bytes |
| Instructions | 2        |

```
      00 01 02 03 04 05 06 07  08 09 0A 0B 0C 0D 0E 0F
      -- -- -- -- -- -- -- --  -- -- -- -- -- -- -- --
00E0:                                            66 01                f.
00F0: 80 F8 FF FF 7F F8 FF FF  7F 74 6C 61 32 00        .........tla2.  
```

#### Opcodes

```
  0: 0x00EE [0x66] LOAD_EXT_SCHEDULER_MAIN: Load scheduler "tla2" with entities [EventEntity, EventEntity], work=158*
  1: 0x00FD [0x00] END_REQSTACK()
```

### Event 65535.15

#### Metadata

| Field        | Value    |
|--------------|----------|
| Entrypoint   | 0x00FE   |
| Data Size    | 14 bytes |
| Instructions | 2        |

```
      00 01 02 03 04 05 06 07  08 09 0A 0B 0C 0D 0E 0F
      -- -- -- -- -- -- -- --  -- -- -- -- -- -- -- --
00F0:                                            53 F8                S.
0100: FF FF 7F F8 FF FF 7F 74  6C 61 32 00              .......tla2.    
```

#### Opcodes

```
  0: 0x00FE [0x53] WAIT_SCHEDULER_TASK: Wait for scheduler "tla2" with entities [EventEntity, EventEntity]
  1: 0x010B [0x00] END_REQSTACK()
```

### Event 65535.16

#### Metadata

| Field        | Value    |
|--------------|----------|
| Entrypoint   | 0x010C   |
| Data Size    | 16 bytes |
| Instructions | 2        |

```
      00 01 02 03 04 05 06 07  08 09 0A 0B 0C 0D 0E 0F
      -- -- -- -- -- -- -- --  -- -- -- -- -- -- -- --
0100:                                      66 01 80 F8              f...
0110: FF FF 7F F8 FF FF 7F 74  6C 6B 30 00              .......tlk0.    
```

#### Opcodes

```
  0: 0x010C [0x66] LOAD_EXT_SCHEDULER_MAIN: Load scheduler "tlk0" with entities [EventEntity, EventEntity], work=158*
  1: 0x011B [0x00] END_REQSTACK()
```

### Event 65535.17

#### Metadata

| Field        | Value    |
|--------------|----------|
| Entrypoint   | 0x011C   |
| Data Size    | 14 bytes |
| Instructions | 2        |

```
      00 01 02 03 04 05 06 07  08 09 0A 0B 0C 0D 0E 0F
      -- -- -- -- -- -- -- --  -- -- -- -- -- -- -- --
0110:                                      53 F8 FF FF              S...
0120: 7F F8 FF FF 7F 74 6C 6B  30 00                    .....tlk0.      
```

#### Opcodes

```
  0: 0x011C [0x53] WAIT_SCHEDULER_TASK: Wait for scheduler "tlk0" with entities [EventEntity, EventEntity]
  1: 0x0129 [0x00] END_REQSTACK()
```

### Event 65535.18

#### Metadata

| Field        | Value    |
|--------------|----------|
| Entrypoint   | 0x012A   |
| Data Size    | 16 bytes |
| Instructions | 2        |

```
      00 01 02 03 04 05 06 07  08 09 0A 0B 0C 0D 0E 0F
      -- -- -- -- -- -- -- --  -- -- -- -- -- -- -- --
0120:                                66 01 80 F8 FF FF            f.....
0130: 7F F8 FF FF 7F 74 6C 6B  31 00                    .....tlk1.      
```

#### Opcodes

```
  0: 0x012A [0x66] LOAD_EXT_SCHEDULER_MAIN: Load scheduler "tlk1" with entities [EventEntity, EventEntity], work=158*
  1: 0x0139 [0x00] END_REQSTACK()
```

### Event 65535.19

#### Metadata

| Field        | Value    |
|--------------|----------|
| Entrypoint   | 0x013A   |
| Data Size    | 14 bytes |
| Instructions | 2        |

```
      00 01 02 03 04 05 06 07  08 09 0A 0B 0C 0D 0E 0F
      -- -- -- -- -- -- -- --  -- -- -- -- -- -- -- --
0130:                                53 F8 FF FF 7F F8            S.....
0140: FF FF 7F 74 6C 6B 31 00                           ...tlk1.        
```

#### Opcodes

```
  0: 0x013A [0x53] WAIT_SCHEDULER_TASK: Wait for scheduler "tlk1" with entities [EventEntity, EventEntity]
  1: 0x0147 [0x00] END_REQSTACK()
```

### Event 65535.20

#### Metadata

| Field        | Value    |
|--------------|----------|
| Entrypoint   | 0x0148   |
| Data Size    | 16 bytes |
| Instructions | 2        |

```
      00 01 02 03 04 05 06 07  08 09 0A 0B 0C 0D 0E 0F
      -- -- -- -- -- -- -- --  -- -- -- -- -- -- -- --
0140:                          66 01 80 F8 FF FF 7F F8          f.......
0150: FF FF 7F 74 6C 6B 32 00                           ...tlk2.        
```

#### Opcodes

```
  0: 0x0148 [0x66] LOAD_EXT_SCHEDULER_MAIN: Load scheduler "tlk2" with entities [EventEntity, EventEntity], work=158*
  1: 0x0157 [0x00] END_REQSTACK()
```

### Event 65535.21

#### Metadata

| Field        | Value    |
|--------------|----------|
| Entrypoint   | 0x0158   |
| Data Size    | 14 bytes |
| Instructions | 2        |

```
      00 01 02 03 04 05 06 07  08 09 0A 0B 0C 0D 0E 0F
      -- -- -- -- -- -- -- --  -- -- -- -- -- -- -- --
0150:                          53 F8 FF FF 7F F8 FF FF          S.......
0160: 7F 74 6C 6B 32 00                                 .tlk2.          
```

#### Opcodes

```
  0: 0x0158 [0x53] WAIT_SCHEDULER_TASK: Wait for scheduler "tlk2" with entities [EventEntity, EventEntity]
  1: 0x0165 [0x00] END_REQSTACK()
```

### Event 65535.22

#### Metadata

| Field        | Value    |
|--------------|----------|
| Entrypoint   | 0x0166   |
| Data Size    | 16 bytes |
| Instructions | 2        |

```
      00 01 02 03 04 05 06 07  08 09 0A 0B 0C 0D 0E 0F
      -- -- -- -- -- -- -- --  -- -- -- -- -- -- -- --
0160:                   66 02  80 F8 FF FF 7F F8 FF FF        f.........
0170: 7F 70 61 73 30 00                                 .pas0.          
```

#### Opcodes

```
  0: 0x0166 [0x66] LOAD_EXT_SCHEDULER_MAIN: Load scheduler "pas0" with entities [EventEntity, EventEntity], work=81*
  1: 0x0175 [0x00] END_REQSTACK()
```

### Event 65535.23

#### Metadata

| Field        | Value    |
|--------------|----------|
| Entrypoint   | 0x0176   |
| Data Size    | 14 bytes |
| Instructions | 2        |

```
      00 01 02 03 04 05 06 07  08 09 0A 0B 0C 0D 0E 0F
      -- -- -- -- -- -- -- --  -- -- -- -- -- -- -- --
0170:                   53 F8  FF FF 7F F8 FF FF 7F 70        S........p
0180: 61 73 30 00                                       as0.            
```

#### Opcodes

```
  0: 0x0176 [0x53] WAIT_SCHEDULER_TASK: Wait for scheduler "pas0" with entities [EventEntity, EventEntity]
  1: 0x0183 [0x00] END_REQSTACK()
```

### Event 65535.24

#### Metadata

| Field        | Value    |
|--------------|----------|
| Entrypoint   | 0x0184   |
| Data Size    | 16 bytes |
| Instructions | 2        |

```
      00 01 02 03 04 05 06 07  08 09 0A 0B 0C 0D 0E 0F
      -- -- -- -- -- -- -- --  -- -- -- -- -- -- -- --
0180:             66 03 80 F8  FF FF 7F F8 FF FF 7F 73      f..........s
0190: 69 6E 30 00                                       in0.            
```

#### Opcodes

```
  0: 0x0184 [0x66] LOAD_EXT_SCHEDULER_MAIN: Load scheduler "sin0" with entities [EventEntity, EventEntity], work=88*
  1: 0x0193 [0x00] END_REQSTACK()
```

### Event 65535.25

#### Metadata

| Field        | Value    |
|--------------|----------|
| Entrypoint   | 0x0194   |
| Data Size    | 14 bytes |
| Instructions | 2        |

```
      00 01 02 03 04 05 06 07  08 09 0A 0B 0C 0D 0E 0F
      -- -- -- -- -- -- -- --  -- -- -- -- -- -- -- --
0190:             53 F8 FF FF  7F F8 FF FF 7F 73 69 6E      S........sin
01A0: 30 00                                             0.              
```

#### Opcodes

```
  0: 0x0194 [0x53] WAIT_SCHEDULER_TASK: Wait for scheduler "sin0" with entities [EventEntity, EventEntity]
  1: 0x01A1 [0x00] END_REQSTACK()
```

### Event 65535.26

#### Metadata

| Field        | Value    |
|--------------|----------|
| Entrypoint   | 0x01A2   |
| Data Size    | 16 bytes |
| Instructions | 2        |

```
      00 01 02 03 04 05 06 07  08 09 0A 0B 0C 0D 0E 0F
      -- -- -- -- -- -- -- --  -- -- -- -- -- -- -- --
01A0:       66 03 80 F8 FF FF  7F F8 FF FF 7F 73 69 6E    f..........sin
01B0: 31 00                                             1.              
```

#### Opcodes

```
  0: 0x01A2 [0x66] LOAD_EXT_SCHEDULER_MAIN: Load scheduler "sin1" with entities [EventEntity, EventEntity], work=88*
  1: 0x01B1 [0x00] END_REQSTACK()
```

### Event 65535.27

#### Metadata

| Field        | Value    |
|--------------|----------|
| Entrypoint   | 0x01B2   |
| Data Size    | 14 bytes |
| Instructions | 2        |

```
      00 01 02 03 04 05 06 07  08 09 0A 0B 0C 0D 0E 0F
      -- -- -- -- -- -- -- --  -- -- -- -- -- -- -- --
01B0:       53 F8 FF FF 7F F8  FF FF 7F 73 69 6E 31 00    S........sin1.
```

#### Opcodes

```
  0: 0x01B2 [0x53] WAIT_SCHEDULER_TASK: Wait for scheduler "sin1" with entities [EventEntity, EventEntity]
  1: 0x01BF [0x00] END_REQSTACK()
```

### Event 65535.28

#### Metadata

| Field        | Value    |
|--------------|----------|
| Entrypoint   | 0x01C0   |
| Data Size    | 16 bytes |
| Instructions | 2        |

```
      00 01 02 03 04 05 06 07  08 09 0A 0B 0C 0D 0E 0F
      -- -- -- -- -- -- -- --  -- -- -- -- -- -- -- --
01C0: 66 03 80 F8 FF FF 7F F8  FF FF 7F 73 69 61 30 00  f..........sia0.
```

#### Opcodes

```
  0: 0x01C0 [0x66] LOAD_EXT_SCHEDULER_MAIN: Load scheduler "sia0" with entities [EventEntity, EventEntity], work=88*
  1: 0x01CF [0x00] END_REQSTACK()
```

### Event 65535.29

#### Metadata

| Field        | Value    |
|--------------|----------|
| Entrypoint   | 0x01D0   |
| Data Size    | 14 bytes |
| Instructions | 2        |

```
      00 01 02 03 04 05 06 07  08 09 0A 0B 0C 0D 0E 0F
      -- -- -- -- -- -- -- --  -- -- -- -- -- -- -- --
01D0: 53 F8 FF FF 7F F8 FF FF  7F 73 69 61 30 00        S........sia0.  
```

#### Opcodes

```
  0: 0x01D0 [0x53] WAIT_SCHEDULER_TASK: Wait for scheduler "sia0" with entities [EventEntity, EventEntity]
  1: 0x01DD [0x00] END_REQSTACK()
```

### Event 65535.30

#### Metadata

| Field        | Value    |
|--------------|----------|
| Entrypoint   | 0x01DE   |
| Data Size    | 16 bytes |
| Instructions | 2        |

```
      00 01 02 03 04 05 06 07  08 09 0A 0B 0C 0D 0E 0F
      -- -- -- -- -- -- -- --  -- -- -- -- -- -- -- --
01D0:                                            66 03                f.
01E0: 80 F8 FF FF 7F F8 FF FF  7F 73 69 61 31 00        .........sia1.  
```

#### Opcodes

```
  0: 0x01DE [0x66] LOAD_EXT_SCHEDULER_MAIN: Load scheduler "sia1" with entities [EventEntity, EventEntity], work=88*
  1: 0x01ED [0x00] END_REQSTACK()
```

### Event 65535.31

#### Metadata

| Field        | Value    |
|--------------|----------|
| Entrypoint   | 0x01EE   |
| Data Size    | 14 bytes |
| Instructions | 2        |

```
      00 01 02 03 04 05 06 07  08 09 0A 0B 0C 0D 0E 0F
      -- -- -- -- -- -- -- --  -- -- -- -- -- -- -- --
01E0:                                            53 F8                S.
01F0: FF FF 7F F8 FF FF 7F 73  69 61 31 00              .......sia1.    
```

#### Opcodes

```
  0: 0x01EE [0x53] WAIT_SCHEDULER_TASK: Wait for scheduler "sia1" with entities [EventEntity, EventEntity]
  1: 0x01FB [0x00] END_REQSTACK()
```

### Event 65535.32

#### Metadata

| Field        | Value    |
|--------------|----------|
| Entrypoint   | 0x01FC   |
| Data Size    | 16 bytes |
| Instructions | 2        |

```
      00 01 02 03 04 05 06 07  08 09 0A 0B 0C 0D 0E 0F
      -- -- -- -- -- -- -- --  -- -- -- -- -- -- -- --
01F0:                                      66 03 80 F8              f...
0200: FF FF 7F F8 FF FF 7F 73  69 62 30 00              .......sib0.    
```

#### Opcodes

```
  0: 0x01FC [0x66] LOAD_EXT_SCHEDULER_MAIN: Load scheduler "sib0" with entities [EventEntity, EventEntity], work=88*
  1: 0x020B [0x00] END_REQSTACK()
```

### Event 65535.33

#### Metadata

| Field        | Value    |
|--------------|----------|
| Entrypoint   | 0x020C   |
| Data Size    | 14 bytes |
| Instructions | 2        |

```
      00 01 02 03 04 05 06 07  08 09 0A 0B 0C 0D 0E 0F
      -- -- -- -- -- -- -- --  -- -- -- -- -- -- -- --
0200:                                      53 F8 FF FF              S...
0210: 7F F8 FF FF 7F 73 69 62  30 00                    .....sib0.      
```

#### Opcodes

```
  0: 0x020C [0x53] WAIT_SCHEDULER_TASK: Wait for scheduler "sib0" with entities [EventEntity, EventEntity]
  1: 0x0219 [0x00] END_REQSTACK()
```

### Event 65535.34

#### Metadata

| Field        | Value    |
|--------------|----------|
| Entrypoint   | 0x021A   |
| Data Size    | 16 bytes |
| Instructions | 2        |

```
      00 01 02 03 04 05 06 07  08 09 0A 0B 0C 0D 0E 0F
      -- -- -- -- -- -- -- --  -- -- -- -- -- -- -- --
0210:                                66 04 80 F8 FF FF            f.....
0220: 7F F8 FF FF 7F 6F 6F 75  30 00                    .....oou0.      
```

#### Opcodes

```
  0: 0x021A [0x66] LOAD_EXT_SCHEDULER_MAIN: Load scheduler "oou0" with entities [EventEntity, EventEntity], work=151*
  1: 0x0229 [0x00] END_REQSTACK()
```

### Event 65535.35

#### Metadata

| Field        | Value    |
|--------------|----------|
| Entrypoint   | 0x022A   |
| Data Size    | 14 bytes |
| Instructions | 2        |

```
      00 01 02 03 04 05 06 07  08 09 0A 0B 0C 0D 0E 0F
      -- -- -- -- -- -- -- --  -- -- -- -- -- -- -- --
0220:                                53 F8 FF FF 7F F8            S.....
0230: FF FF 7F 6F 6F 75 30 00                           ...oou0.        
```

#### Opcodes

```
  0: 0x022A [0x53] WAIT_SCHEDULER_TASK: Wait for scheduler "oou0" with entities [EventEntity, EventEntity]
  1: 0x0237 [0x00] END_REQSTACK()
```

### Event 65535.36

#### Metadata

| Field        | Value    |
|--------------|----------|
| Entrypoint   | 0x0238   |
| Data Size    | 16 bytes |
| Instructions | 2        |

```
      00 01 02 03 04 05 06 07  08 09 0A 0B 0C 0D 0E 0F
      -- -- -- -- -- -- -- --  -- -- -- -- -- -- -- --
0230:                          66 04 80 F8 FF FF 7F F8          f.......
0240: FF FF 7F 6F 6F 75 31 00                           ...oou1.        
```

#### Opcodes

```
  0: 0x0238 [0x66] LOAD_EXT_SCHEDULER_MAIN: Load scheduler "oou1" with entities [EventEntity, EventEntity], work=151*
  1: 0x0247 [0x00] END_REQSTACK()
```

### Event 65535.37

#### Metadata

| Field        | Value    |
|--------------|----------|
| Entrypoint   | 0x0248   |
| Data Size    | 14 bytes |
| Instructions | 2        |

```
      00 01 02 03 04 05 06 07  08 09 0A 0B 0C 0D 0E 0F
      -- -- -- -- -- -- -- --  -- -- -- -- -- -- -- --
0240:                          53 F8 FF FF 7F F8 FF FF          S.......
0250: 7F 6F 6F 75 31 00                                 .oou1.          
```

#### Opcodes

```
  0: 0x0248 [0x53] WAIT_SCHEDULER_TASK: Wait for scheduler "oou1" with entities [EventEntity, EventEntity]
  1: 0x0255 [0x00] END_REQSTACK()
```

### Event 65535.38

#### Metadata

| Field        | Value    |
|--------------|----------|
| Entrypoint   | 0x0256   |
| Data Size    | 16 bytes |
| Instructions | 2        |

```
      00 01 02 03 04 05 06 07  08 09 0A 0B 0C 0D 0E 0F
      -- -- -- -- -- -- -- --  -- -- -- -- -- -- -- --
0250:                   66 04  80 F8 FF FF 7F F8 FF FF        f.........
0260: 7F 6F 6F 75 32 00                                 .oou2.          
```

#### Opcodes

```
  0: 0x0256 [0x66] LOAD_EXT_SCHEDULER_MAIN: Load scheduler "oou2" with entities [EventEntity, EventEntity], work=151*
  1: 0x0265 [0x00] END_REQSTACK()
```

### Event 65535.39

#### Metadata

| Field        | Value    |
|--------------|----------|
| Entrypoint   | 0x0266   |
| Data Size    | 14 bytes |
| Instructions | 2        |

```
      00 01 02 03 04 05 06 07  08 09 0A 0B 0C 0D 0E 0F
      -- -- -- -- -- -- -- --  -- -- -- -- -- -- -- --
0260:                   53 F8  FF FF 7F F8 FF FF 7F 6F        S........o
0270: 6F 75 32 00                                       ou2.            
```

#### Opcodes

```
  0: 0x0266 [0x53] WAIT_SCHEDULER_TASK: Wait for scheduler "oou2" with entities [EventEntity, EventEntity]
  1: 0x0273 [0x00] END_REQSTACK()
```

### Event 65535.40

#### Metadata

| Field        | Value    |
|--------------|----------|
| Entrypoint   | 0x0274   |
| Data Size    | 16 bytes |
| Instructions | 2        |

```
      00 01 02 03 04 05 06 07  08 09 0A 0B 0C 0D 0E 0F
      -- -- -- -- -- -- -- --  -- -- -- -- -- -- -- --
0270:             66 05 80 F8  FF FF 7F F8 FF FF 7F 73      f..........s
0280: 68 61 30 00                                       ha0.            
```

#### Opcodes

```
  0: 0x0274 [0x66] LOAD_EXT_SCHEDULER_MAIN: Load scheduler "sha0" with entities [EventEntity, EventEntity], work=19*
  1: 0x0283 [0x00] END_REQSTACK()
```

### Event 65535.41

#### Metadata

| Field        | Value    |
|--------------|----------|
| Entrypoint   | 0x0284   |
| Data Size    | 14 bytes |
| Instructions | 2        |

```
      00 01 02 03 04 05 06 07  08 09 0A 0B 0C 0D 0E 0F
      -- -- -- -- -- -- -- --  -- -- -- -- -- -- -- --
0280:             53 F8 FF FF  7F F8 FF FF 7F 73 68 61      S........sha
0290: 30 00                                             0.              
```

#### Opcodes

```
  0: 0x0284 [0x53] WAIT_SCHEDULER_TASK: Wait for scheduler "sha0" with entities [EventEntity, EventEntity]
  1: 0x0291 [0x00] END_REQSTACK()
```

### Event 65535.42

#### Metadata

| Field        | Value    |
|--------------|----------|
| Entrypoint   | 0x0292   |
| Data Size    | 16 bytes |
| Instructions | 2        |

```
      00 01 02 03 04 05 06 07  08 09 0A 0B 0C 0D 0E 0F
      -- -- -- -- -- -- -- --  -- -- -- -- -- -- -- --
0290:       66 05 80 F8 FF FF  7F F8 FF FF 7F 73 68 61    f..........sha
02A0: 31 00                                             1.              
```

#### Opcodes

```
  0: 0x0292 [0x66] LOAD_EXT_SCHEDULER_MAIN: Load scheduler "sha1" with entities [EventEntity, EventEntity], work=19*
  1: 0x02A1 [0x00] END_REQSTACK()
```

### Event 65535.43

#### Metadata

| Field        | Value    |
|--------------|----------|
| Entrypoint   | 0x02A2   |
| Data Size    | 14 bytes |
| Instructions | 2        |

```
      00 01 02 03 04 05 06 07  08 09 0A 0B 0C 0D 0E 0F
      -- -- -- -- -- -- -- --  -- -- -- -- -- -- -- --
02A0:       53 F8 FF FF 7F F8  FF FF 7F 73 68 61 31 00    S........sha1.
```

#### Opcodes

```
  0: 0x02A2 [0x53] WAIT_SCHEDULER_TASK: Wait for scheduler "sha1" with entities [EventEntity, EventEntity]
  1: 0x02AF [0x00] END_REQSTACK()
```

### Event 65535.44

#### Metadata

| Field        | Value    |
|--------------|----------|
| Entrypoint   | 0x02B0   |
| Data Size    | 16 bytes |
| Instructions | 2        |

```
      00 01 02 03 04 05 06 07  08 09 0A 0B 0C 0D 0E 0F
      -- -- -- -- -- -- -- --  -- -- -- -- -- -- -- --
02B0: 66 05 80 F8 FF FF 7F F8  FF FF 7F 74 68 73 31 00  f..........ths1.
```

#### Opcodes

```
  0: 0x02B0 [0x66] LOAD_EXT_SCHEDULER_MAIN: Load scheduler "ths1" with entities [EventEntity, EventEntity], work=19*
  1: 0x02BF [0x00] END_REQSTACK()
```

### Event 65535.45

#### Metadata

| Field        | Value    |
|--------------|----------|
| Entrypoint   | 0x02C0   |
| Data Size    | 14 bytes |
| Instructions | 2        |

```
      00 01 02 03 04 05 06 07  08 09 0A 0B 0C 0D 0E 0F
      -- -- -- -- -- -- -- --  -- -- -- -- -- -- -- --
02C0: 53 F8 FF FF 7F F8 FF FF  7F 74 68 73 31 00        S........ths1.  
```

#### Opcodes

```
  0: 0x02C0 [0x53] WAIT_SCHEDULER_TASK: Wait for scheduler "ths1" with entities [EventEntity, EventEntity]
  1: 0x02CD [0x00] END_REQSTACK()
```

### Event 65535.46

#### Metadata

| Field        | Value    |
|--------------|----------|
| Entrypoint   | 0x02CE   |
| Data Size    | 16 bytes |
| Instructions | 2        |

```
      00 01 02 03 04 05 06 07  08 09 0A 0B 0C 0D 0E 0F
      -- -- -- -- -- -- -- --  -- -- -- -- -- -- -- --
02C0:                                            66 05                f.
02D0: 80 F8 FF FF 7F F8 FF FF  7F 74 68 73 32 00        .........ths2.  
```

#### Opcodes

```
  0: 0x02CE [0x66] LOAD_EXT_SCHEDULER_MAIN: Load scheduler "ths2" with entities [EventEntity, EventEntity], work=19*
  1: 0x02DD [0x00] END_REQSTACK()
```

### Event 65535.47

#### Metadata

| Field        | Value    |
|--------------|----------|
| Entrypoint   | 0x02DE   |
| Data Size    | 14 bytes |
| Instructions | 2        |

```
      00 01 02 03 04 05 06 07  08 09 0A 0B 0C 0D 0E 0F
      -- -- -- -- -- -- -- --  -- -- -- -- -- -- -- --
02D0:                                            53 F8                S.
02E0: FF FF 7F F8 FF FF 7F 74  68 73 32 00              .......ths2.    
```

#### Opcodes

```
  0: 0x02DE [0x53] WAIT_SCHEDULER_TASK: Wait for scheduler "ths2" with entities [EventEntity, EventEntity]
  1: 0x02EB [0x00] END_REQSTACK()
```

### Event 65535.48

#### Metadata

| Field        | Value    |
|--------------|----------|
| Entrypoint   | 0x02EC   |
| Data Size    | 16 bytes |
| Instructions | 2        |

```
      00 01 02 03 04 05 06 07  08 09 0A 0B 0C 0D 0E 0F
      -- -- -- -- -- -- -- --  -- -- -- -- -- -- -- --
02E0:                                      66 06 80 F8              f...
02F0: FF FF 7F F8 FF FF 7F 63  72 79 30 00              .......cry0.    
```

#### Opcodes

```
  0: 0x02EC [0x66] LOAD_EXT_SCHEDULER_MAIN: Load scheduler "cry0" with entities [EventEntity, EventEntity], work=157*
  1: 0x02FB [0x00] END_REQSTACK()
```

### Event 65535.49

#### Metadata

| Field        | Value    |
|--------------|----------|
| Entrypoint   | 0x02FC   |
| Data Size    | 14 bytes |
| Instructions | 2        |

```
      00 01 02 03 04 05 06 07  08 09 0A 0B 0C 0D 0E 0F
      -- -- -- -- -- -- -- --  -- -- -- -- -- -- -- --
02F0:                                      53 F8 FF FF              S...
0300: 7F F8 FF FF 7F 63 72 79  30 00                    .....cry0.      
```

#### Opcodes

```
  0: 0x02FC [0x53] WAIT_SCHEDULER_TASK: Wait for scheduler "cry0" with entities [EventEntity, EventEntity]
  1: 0x0309 [0x00] END_REQSTACK()
```

### Event 65535.50

#### Metadata

| Field        | Value    |
|--------------|----------|
| Entrypoint   | 0x030A   |
| Data Size    | 16 bytes |
| Instructions | 2        |

```
      00 01 02 03 04 05 06 07  08 09 0A 0B 0C 0D 0E 0F
      -- -- -- -- -- -- -- --  -- -- -- -- -- -- -- --
0300:                                66 06 80 F8 FF FF            f.....
0310: 7F F8 FF FF 7F 63 72 79  31 00                    .....cry1.      
```

#### Opcodes

```
  0: 0x030A [0x66] LOAD_EXT_SCHEDULER_MAIN: Load scheduler "cry1" with entities [EventEntity, EventEntity], work=157*
  1: 0x0319 [0x00] END_REQSTACK()
```

### Event 65535.51

#### Metadata

| Field        | Value    |
|--------------|----------|
| Entrypoint   | 0x031A   |
| Data Size    | 14 bytes |
| Instructions | 2        |

```
      00 01 02 03 04 05 06 07  08 09 0A 0B 0C 0D 0E 0F
      -- -- -- -- -- -- -- --  -- -- -- -- -- -- -- --
0310:                                53 F8 FF FF 7F F8            S.....
0320: FF FF 7F 63 72 79 31 00                           ...cry1.        
```

#### Opcodes

```
  0: 0x031A [0x53] WAIT_SCHEDULER_TASK: Wait for scheduler "cry1" with entities [EventEntity, EventEntity]
  1: 0x0327 [0x00] END_REQSTACK()
```

### Event 65535.52

#### Metadata

| Field        | Value    |
|--------------|----------|
| Entrypoint   | 0x0328   |
| Data Size    | 16 bytes |
| Instructions | 2        |

```
      00 01 02 03 04 05 06 07  08 09 0A 0B 0C 0D 0E 0F
      -- -- -- -- -- -- -- --  -- -- -- -- -- -- -- --
0320:                          66 06 80 F8 FF FF 7F F8          f.......
0330: FF FF 7F 73 61 64 30 00                           ...sad0.        
```

#### Opcodes

```
  0: 0x0328 [0x66] LOAD_EXT_SCHEDULER_MAIN: Load scheduler "sad0" with entities [EventEntity, EventEntity], work=157*
  1: 0x0337 [0x00] END_REQSTACK()
```

### Event 65535.53

#### Metadata

| Field        | Value    |
|--------------|----------|
| Entrypoint   | 0x0338   |
| Data Size    | 14 bytes |
| Instructions | 2        |

```
      00 01 02 03 04 05 06 07  08 09 0A 0B 0C 0D 0E 0F
      -- -- -- -- -- -- -- --  -- -- -- -- -- -- -- --
0330:                          53 F8 FF FF 7F F8 FF FF          S.......
0340: 7F 73 61 64 30 00                                 .sad0.          
```

#### Opcodes

```
  0: 0x0338 [0x53] WAIT_SCHEDULER_TASK: Wait for scheduler "sad0" with entities [EventEntity, EventEntity]
  1: 0x0345 [0x00] END_REQSTACK()
```

### Event 65535.54

#### Metadata

| Field        | Value    |
|--------------|----------|
| Entrypoint   | 0x0346   |
| Data Size    | 16 bytes |
| Instructions | 2        |

```
      00 01 02 03 04 05 06 07  08 09 0A 0B 0C 0D 0E 0F
      -- -- -- -- -- -- -- --  -- -- -- -- -- -- -- --
0340:                   66 06  80 F8 FF FF 7F F8 FF FF        f.........
0350: 7F 73 61 64 31 00                                 .sad1.          
```

#### Opcodes

```
  0: 0x0346 [0x66] LOAD_EXT_SCHEDULER_MAIN: Load scheduler "sad1" with entities [EventEntity, EventEntity], work=157*
  1: 0x0355 [0x00] END_REQSTACK()
```

### Event 65535.55

#### Metadata

| Field        | Value    |
|--------------|----------|
| Entrypoint   | 0x0356   |
| Data Size    | 14 bytes |
| Instructions | 2        |

```
      00 01 02 03 04 05 06 07  08 09 0A 0B 0C 0D 0E 0F
      -- -- -- -- -- -- -- --  -- -- -- -- -- -- -- --
0350:                   53 F8  FF FF 7F F8 FF FF 7F 73        S........s
0360: 61 64 31 00                                       ad1.            
```

#### Opcodes

```
  0: 0x0356 [0x53] WAIT_SCHEDULER_TASK: Wait for scheduler "sad1" with entities [EventEntity, EventEntity]
  1: 0x0363 [0x00] END_REQSTACK()
```

### Event 65535.56

#### Metadata

| Field        | Value    |
|--------------|----------|
| Entrypoint   | 0x0364   |
| Data Size    | 16 bytes |
| Instructions | 4        |

```
      00 01 02 03 04 05 06 07  08 09 0A 0B 0C 0D 0E 0F
      -- -- -- -- -- -- -- --  -- -- -- -- -- -- -- --
0360:             6E F8 FF FF  7F 07 80 99 F8 FF FF 7F      n...........
0370: 1C 08 80 00                                       ....            
```

#### Opcodes

```
  0: 0x0364 [0x6E] EventEntity uses emote 18*
  1: 0x036B [0x99] Wait for EventEntity animation to complete
  2: 0x0370 [0x1C] WAIT(60* ticks)
  3: 0x0373 [0x00] END_REQSTACK()
```

### Event 65535.57

#### Metadata

| Field        | Value    |
|--------------|----------|
| Entrypoint   | 0x0374   |
| Data Size    | 16 bytes |
| Instructions | 4        |

```
      00 01 02 03 04 05 06 07  08 09 0A 0B 0C 0D 0E 0F
      -- -- -- -- -- -- -- --  -- -- -- -- -- -- -- --
0370:             6E F8 FF FF  7F 09 80 99 F8 FF FF 7F      n...........
0380: 1C 08 80 00                                       ....            
```

#### Opcodes

```
  0: 0x0374 [0x6E] EventEntity uses emote 21*
  1: 0x037B [0x99] Wait for EventEntity animation to complete
  2: 0x0380 [0x1C] WAIT(60* ticks)
  3: 0x0383 [0x00] END_REQSTACK()
```

### Event 65535.58

#### Metadata

| Field        | Value    |
|--------------|----------|
| Entrypoint   | 0x0384   |
| Data Size    | 16 bytes |
| Instructions | 4        |

```
      00 01 02 03 04 05 06 07  08 09 0A 0B 0C 0D 0E 0F
      -- -- -- -- -- -- -- --  -- -- -- -- -- -- -- --
0380:             6E F8 FF FF  7F 0A 80 99 F8 FF FF 7F      n...........
0390: 1C 08 80 00                                       ....            
```

#### Opcodes

```
  0: 0x0384 [0x6E] EventEntity uses emote 32*
  1: 0x038B [0x99] Wait for EventEntity animation to complete
  2: 0x0390 [0x1C] WAIT(60* ticks)
  3: 0x0393 [0x00] END_REQSTACK()
```

### Event 65535.59

#### Metadata

| Field        | Value    |
|--------------|----------|
| Entrypoint   | 0x0394   |
| Data Size    | 16 bytes |
| Instructions | 4        |

```
      00 01 02 03 04 05 06 07  08 09 0A 0B 0C 0D 0E 0F
      -- -- -- -- -- -- -- --  -- -- -- -- -- -- -- --
0390:             6E F8 FF FF  7F 0B 80 99 F8 FF FF 7F      n...........
03A0: 1C 08 80 00                                       ....            
```

#### Opcodes

```
  0: 0x0394 [0x6E] EventEntity uses emote 5*
  1: 0x039B [0x99] Wait for EventEntity animation to complete
  2: 0x03A0 [0x1C] WAIT(60* ticks)
  3: 0x03A3 [0x00] END_REQSTACK()
```

### Event 65535.60

#### Metadata

| Field        | Value    |
|--------------|----------|
| Entrypoint   | 0x03A4   |
| Data Size    | 16 bytes |
| Instructions | 4        |

```
      00 01 02 03 04 05 06 07  08 09 0A 0B 0C 0D 0E 0F
      -- -- -- -- -- -- -- --  -- -- -- -- -- -- -- --
03A0:             6E F8 FF FF  7F 0C 80 99 F8 FF FF 7F      n...........
03B0: 1C 08 80 00                                       ....            
```

#### Opcodes

```
  0: 0x03A4 [0x6E] EventEntity uses emote 7*
  1: 0x03AB [0x99] Wait for EventEntity animation to complete
  2: 0x03B0 [0x1C] WAIT(60* ticks)
  3: 0x03B3 [0x00] END_REQSTACK()
```

### Event 65535.61

#### Metadata

| Field        | Value    |
|--------------|----------|
| Entrypoint   | 0x03B4   |
| Data Size    | 16 bytes |
| Instructions | 4        |

```
      00 01 02 03 04 05 06 07  08 09 0A 0B 0C 0D 0E 0F
      -- -- -- -- -- -- -- --  -- -- -- -- -- -- -- --
03B0:             6E F8 FF FF  7F 0D 80 99 F8 FF FF 7F      n...........
03C0: 1C 08 80 00                                       ....            
```

#### Opcodes

```
  0: 0x03B4 [0x6E] EventEntity uses emote 6*
  1: 0x03BB [0x99] Wait for EventEntity animation to complete
  2: 0x03C0 [0x1C] WAIT(60* ticks)
  3: 0x03C3 [0x00] END_REQSTACK()
```

### Event 65535.62

#### Metadata

| Field        | Value    |
|--------------|----------|
| Entrypoint   | 0x03C4   |
| Data Size    | 16 bytes |
| Instructions | 4        |

```
      00 01 02 03 04 05 06 07  08 09 0A 0B 0C 0D 0E 0F
      -- -- -- -- -- -- -- --  -- -- -- -- -- -- -- --
03C0:             6E F8 FF FF  7F 0E 80 99 F8 FF FF 7F      n...........
03D0: 1C 08 80 00                                       ....            
```

#### Opcodes

```
  0: 0x03C4 [0x6E] EventEntity uses emote 25*
  1: 0x03CB [0x99] Wait for EventEntity animation to complete
  2: 0x03D0 [0x1C] WAIT(60* ticks)
  3: 0x03D3 [0x00] END_REQSTACK()
```

### Event 65535.63

#### Metadata

| Field        | Value    |
|--------------|----------|
| Entrypoint   | 0x03D4   |
| Data Size    | 16 bytes |
| Instructions | 4        |

```
      00 01 02 03 04 05 06 07  08 09 0A 0B 0C 0D 0E 0F
      -- -- -- -- -- -- -- --  -- -- -- -- -- -- -- --
03D0:             6E F8 FF FF  7F 0F 80 99 F8 FF FF 7F      n...........
03E0: 1C 10 80 00                                       ....            
```

#### Opcodes

```
  0: 0x03D4 [0x6E] EventEntity uses emote 8*
  1: 0x03DB [0x99] Wait for EventEntity animation to complete
  2: 0x03E0 [0x1C] WAIT(140* ticks)
  3: 0x03E3 [0x00] END_REQSTACK()
```

### Event 65535.64

#### Metadata

| Field        | Value    |
|--------------|----------|
| Entrypoint   | 0x03E4   |
| Data Size    | 16 bytes |
| Instructions | 4        |

```
      00 01 02 03 04 05 06 07  08 09 0A 0B 0C 0D 0E 0F
      -- -- -- -- -- -- -- --  -- -- -- -- -- -- -- --
03E0:             6E F8 FF FF  7F 11 80 99 F8 FF FF 7F      n...........
03F0: 1C 10 80 00                                       ....            
```

#### Opcodes

```
  0: 0x03E4 [0x6E] EventEntity uses emote 10*
  1: 0x03EB [0x99] Wait for EventEntity animation to complete
  2: 0x03F0 [0x1C] WAIT(140* ticks)
  3: 0x03F3 [0x00] END_REQSTACK()
```

### Event 65535.65

#### Metadata

| Field        | Value    |
|--------------|----------|
| Entrypoint   | 0x03F4   |
| Data Size    | 53 bytes |
| Instructions | 5        |

```
      00 01 02 03 04 05 06 07  08 09 0A 0B 0C 0D 0E 0F
      -- -- -- -- -- -- -- --  -- -- -- -- -- -- -- --
03F0:             2C F8 FF FF  7F F8 FF FF 7F 64 65 61      ,........dea
0400: 64 53 F8 FF FF 7F F8 FF  FF 7F 64 65 61 64 2C F8  dS........dead,.
0410: FF FF 7F F8 FF FF 7F 63  6F 72 70 53 F8 FF FF 7F  .......corpS....
0420: F8 FF FF 7F 63 6F 72 70  00                       ....corp.       
```

#### Opcodes

```
  0: 0x03F4 [0x2C] CREATE_SCHEDULER_TASK: Create scheduler "dead" with entities [EventEntity, EventEntity]
  1: 0x0401 [0x53] WAIT_SCHEDULER_TASK: Wait for scheduler "dead" with entities [EventEntity, EventEntity]
  2: 0x040E [0x2C] CREATE_SCHEDULER_TASK: Create scheduler "corp" with entities [EventEntity, EventEntity]
  3: 0x041B [0x53] WAIT_SCHEDULER_TASK: Wait for scheduler "corp" with entities [EventEntity, EventEntity]
  4: 0x0428 [0x00] END_REQSTACK()
```

### Event 65535.66

#### Metadata

| Field        | Value    |
|--------------|----------|
| Entrypoint   | 0x0429   |
| Data Size    | 16 bytes |
| Instructions | 2        |

```
      00 01 02 03 04 05 06 07  08 09 0A 0B 0C 0D 0E 0F
      -- -- -- -- -- -- -- --  -- -- -- -- -- -- -- --
0420:                             5B 12 80 F8 FF FF 7F           [......
0430: F8 FF FF 7F 73 74 6F 30  00                       ....sto0.       
```

#### Opcodes

```
  0: 0x0429 [0x5B] LOAD_EXT_SCHEDULER: Load scheduler "sto0" with entities [EventEntity, EventEntity], work=3027*
  1: 0x0438 [0x00] END_REQSTACK()
```

### Event 65535.67

#### Metadata

| Field        | Value    |
|--------------|----------|
| Entrypoint   | 0x0439   |
| Data Size    | 14 bytes |
| Instructions | 2        |

```
      00 01 02 03 04 05 06 07  08 09 0A 0B 0C 0D 0E 0F
      -- -- -- -- -- -- -- --  -- -- -- -- -- -- -- --
0430:                             53 F8 FF FF 7F F8 FF           S......
0440: FF 7F 73 74 6F 30 00                              ..sto0.         
```

#### Opcodes

```
  0: 0x0439 [0x53] WAIT_SCHEDULER_TASK: Wait for scheduler "sto0" with entities [EventEntity, EventEntity]
  1: 0x0446 [0x00] END_REQSTACK()
```

### Event 65535.68

#### Metadata

| Field        | Value    |
|--------------|----------|
| Entrypoint   | 0x0447   |
| Data Size    | 16 bytes |
| Instructions | 2        |

```
      00 01 02 03 04 05 06 07  08 09 0A 0B 0C 0D 0E 0F
      -- -- -- -- -- -- -- --  -- -- -- -- -- -- -- --
0440:                      5B  12 80 F8 FF FF 7F F8 FF         [........
0450: FF 7F 73 74 6F 31 00                              ..sto1.         
```

#### Opcodes

```
  0: 0x0447 [0x5B] LOAD_EXT_SCHEDULER: Load scheduler "sto1" with entities [EventEntity, EventEntity], work=3027*
  1: 0x0456 [0x00] END_REQSTACK()
```

### Event 65535.69

#### Metadata

| Field        | Value    |
|--------------|----------|
| Entrypoint   | 0x0457   |
| Data Size    | 14 bytes |
| Instructions | 2        |

```
      00 01 02 03 04 05 06 07  08 09 0A 0B 0C 0D 0E 0F
      -- -- -- -- -- -- -- --  -- -- -- -- -- -- -- --
0450:                      53  F8 FF FF 7F F8 FF FF 7F         S........
0460: 73 74 6F 31 00                                    sto1.           
```

#### Opcodes

```
  0: 0x0457 [0x53] WAIT_SCHEDULER_TASK: Wait for scheduler "sto1" with entities [EventEntity, EventEntity]
  1: 0x0464 [0x00] END_REQSTACK()
```

### Event 65535.70

#### Metadata

| Field        | Value    |
|--------------|----------|
| Entrypoint   | 0x0465   |
| Data Size    | 16 bytes |
| Instructions | 2        |

```
      00 01 02 03 04 05 06 07  08 09 0A 0B 0C 0D 0E 0F
      -- -- -- -- -- -- -- --  -- -- -- -- -- -- -- --
0460:                5B 12 80  F8 FF FF 7F F8 FF FF 7F       [..........
0470: 73 69 74 30 00                                    sit0.           
```

#### Opcodes

```
  0: 0x0465 [0x5B] LOAD_EXT_SCHEDULER: Load scheduler "sit0" with entities [EventEntity, EventEntity], work=3027*
  1: 0x0474 [0x00] END_REQSTACK()
```

### Event 65535.71

#### Metadata

| Field        | Value    |
|--------------|----------|
| Entrypoint   | 0x0475   |
| Data Size    | 14 bytes |
| Instructions | 2        |

```
      00 01 02 03 04 05 06 07  08 09 0A 0B 0C 0D 0E 0F
      -- -- -- -- -- -- -- --  -- -- -- -- -- -- -- --
0470:                53 F8 FF  FF 7F F8 FF FF 7F 73 69       S........si
0480: 74 30 00                                          t0.             
```

#### Opcodes

```
  0: 0x0475 [0x53] WAIT_SCHEDULER_TASK: Wait for scheduler "sit0" with entities [EventEntity, EventEntity]
  1: 0x0482 [0x00] END_REQSTACK()
```

### Event 65535.72

#### Metadata

| Field        | Value    |
|--------------|----------|
| Entrypoint   | 0x0483   |
| Data Size    | 16 bytes |
| Instructions | 2        |

```
      00 01 02 03 04 05 06 07  08 09 0A 0B 0C 0D 0E 0F
      -- -- -- -- -- -- -- --  -- -- -- -- -- -- -- --
0480:          5B 12 80 F8 FF  FF 7F F8 FF FF 7F 73 69     [..........si
0490: 74 31 00                                          t1.             
```

#### Opcodes

```
  0: 0x0483 [0x5B] LOAD_EXT_SCHEDULER: Load scheduler "sit1" with entities [EventEntity, EventEntity], work=3027*
  1: 0x0492 [0x00] END_REQSTACK()
```

### Event 65535.73

#### Metadata

| Field        | Value    |
|--------------|----------|
| Entrypoint   | 0x0493   |
| Data Size    | 14 bytes |
| Instructions | 2        |

```
      00 01 02 03 04 05 06 07  08 09 0A 0B 0C 0D 0E 0F
      -- -- -- -- -- -- -- --  -- -- -- -- -- -- -- --
0490:          53 F8 FF FF 7F  F8 FF FF 7F 73 69 74 31     S........sit1
04A0: 00                                                .               
```

#### Opcodes

```
  0: 0x0493 [0x53] WAIT_SCHEDULER_TASK: Wait for scheduler "sit1" with entities [EventEntity, EventEntity]
  1: 0x04A0 [0x00] END_REQSTACK()
```

### Event 65535.74

#### Metadata

| Field        | Value    |
|--------------|----------|
| Entrypoint   | 0x04A1   |
| Data Size    | 18 bytes |
| Instructions | 3        |

```
      00 01 02 03 04 05 06 07  08 09 0A 0B 0C 0D 0E 0F
      -- -- -- -- -- -- -- --  -- -- -- -- -- -- -- --
04A0:    AB 08 5B 13 80 F8 FF  FF 7F F8 FF FF 7F 66 72   ..[..........fr
04B0: 61 30 00                                          a0.             
```

#### Opcodes

```
  0: 0x04A1 [0xAB] EventEntity->Render.Flags2 |= 0x02 // Set bit 1
  1: 0x04A3 [0x5B] LOAD_EXT_SCHEDULER: Load scheduler "fra0" with entities [EventEntity, EventEntity], work=3359*
  2: 0x04B2 [0x00] END_REQSTACK()
```

### Event 65535.75

#### Metadata

| Field        | Value    |
|--------------|----------|
| Entrypoint   | 0x04B3   |
| Data Size    | 14 bytes |
| Instructions | 2        |

```
      00 01 02 03 04 05 06 07  08 09 0A 0B 0C 0D 0E 0F
      -- -- -- -- -- -- -- --  -- -- -- -- -- -- -- --
04B0:          53 F8 FF FF 7F  F8 FF FF 7F 66 72 61 30     S........fra0
04C0: 00                                                .               
```

#### Opcodes

```
  0: 0x04B3 [0x53] WAIT_SCHEDULER_TASK: Wait for scheduler "fra0" with entities [EventEntity, EventEntity]
  1: 0x04C0 [0x00] END_REQSTACK()
```

### Event 65535.76

#### Metadata

| Field        | Value   |
|--------------|---------|
| Entrypoint   | 0x04C1  |
| Data Size    | 3 bytes |
| Instructions | 2       |

```
      00 01 02 03 04 05 06 07  08 09 0A 0B 0C 0D 0E 0F
      -- -- -- -- -- -- -- --  -- -- -- -- -- -- -- --
04C0:    AB 07 00                                        ...            
```

#### Opcodes

```
  0: 0x04C1 [0xAB] EventEntity->Render.Flags2 |= 0x01 // Set bit 0
  1: 0x04C3 [0x00] END_REQSTACK()
```

### Event 65535.77

#### Metadata

| Field        | Value   |
|--------------|---------|
| Entrypoint   | 0x04C4  |
| Data Size    | 3 bytes |
| Instructions | 2       |

```
      00 01 02 03 04 05 06 07  08 09 0A 0B 0C 0D 0E 0F
      -- -- -- -- -- -- -- --  -- -- -- -- -- -- -- --
04C0:             A5 01 00                                  ...         
```

#### Opcodes

```
  0: 0x04C4 [0xA5] EventEntity->Flags3.BallistaTeam |= 0x08  // Set bit 3 of BallistaTeam
  1: 0x04C6 [0x00] END_REQSTACK()
```

### Event 65535.78

#### Metadata

| Field        | Value   |
|--------------|---------|
| Entrypoint   | 0x04C7  |
| Data Size    | 3 bytes |
| Instructions | 2       |

```
      00 01 02 03 04 05 06 07  08 09 0A 0B 0C 0D 0E 0F
      -- -- -- -- -- -- -- --  -- -- -- -- -- -- -- --
04C0:                      A5  00 00                           ...      
```

#### Opcodes

```
  0: 0x04C7 [0xA5] EventEntity->Flags3.BallistaTeam &= ~0x08  // Clear bit 3 of BallistaTeam
  1: 0x04C9 [0x00] END_REQSTACK()
```

### Event 517

#### Metadata

| Field        | Value   |
|--------------|---------|
| Entrypoint   | 0x04CA  |
| Data Size    | 1 bytes |
| Instructions | 1       |

```
      00 01 02 03 04 05 06 07  08 09 0A 0B 0C 0D 0E 0F
      -- -- -- -- -- -- -- --  -- -- -- -- -- -- -- --
04C0:                                00                           .     
```

#### Opcodes

```
  0: 0x04CA [0x00] END_REQSTACK()
```

### Event 65535.79

#### Metadata

| Field        | Value    |
|--------------|----------|
| Entrypoint   | 0x04CB   |
| Data Size    | 18 bytes |
| Instructions | 4        |

```
      00 01 02 03 04 05 06 07  08 09 0A 0B 0C 0D 0E 0F
      -- -- -- -- -- -- -- --  -- -- -- -- -- -- -- --
04C0:                                   37 14 80 15 80             7....
04D0: 16 80 17 80 2F 00 F8 FF  FF 7F 22 00 00           ..../....."..   
```

#### Opcodes

```
  0: 0x04CB [0x37] UPDATE_EVENT_POSITION_AND_DIR: x=508.581*, z=158.106*, y=-1.630*, direction=377476201.6*
  1: 0x04D4 [0x2F] EventEntity->Render.Flags0 &= ~0x80000 // Bit 19
  2: 0x04DA [0x22] ENTITY_HIDE_FLAG(enabled=0x00)
  3: 0x04DC [0x00] END_REQSTACK()
```

### Event 65535.80

#### Metadata

| Field        | Value    |
|--------------|----------|
| Entrypoint   | 0x04DD   |
| Data Size    | 14 bytes |
| Instructions | 4        |

```
      00 01 02 03 04 05 06 07  08 09 0A 0B 0C 0D 0E 0F
      -- -- -- -- -- -- -- --  -- -- -- -- -- -- -- --
04D0:                                         32 18 80               2..
04E0: 1F 00 19 80 1A 80 1B 80  1F 01 00                 ...........     
```

#### Opcodes

```
  0: 0x04DD [0x32] ExtData[1]->MainSpeed = 13* * 0.1
  1: 0x04E0 [0x1F] MOVE_ENTITY: EventEntity moves to X=522.141*, Z=158.183*, Y=-0.002*
  2: 0x04E8 [0x1F] MOVE_ENTITY: Update entity position (mode=1)
  3: 0x04EA [0x00] END_REQSTACK()
```

### Event 65535.81

#### Metadata

| Field        | Value    |
|--------------|----------|
| Entrypoint   | 0x04EB   |
| Data Size    | 24 bytes |
| Instructions | 7        |

```
      00 01 02 03 04 05 06 07  08 09 0A 0B 0C 0D 0E 0F
      -- -- -- -- -- -- -- --  -- -- -- -- -- -- -- --
04E0:                                   2F 00 F8 FF FF             /....
04F0: 7F 22 00 33 01 37 1C 80  1D 80 1E 80 1F 80 33 01  .".3.7........3.
0500: A5 01 00                                          ...             
```

#### Opcodes

```
  0: 0x04EB [0x2F] EventEntity->Render.Flags0 &= ~0x80000 // Bit 19
  1: 0x04F1 [0x22] ENTITY_HIDE_FLAG(enabled=0x00)
  2: 0x04F3 [0x33] EventEntity->Render.Flags0 |= 0x200000 // Bit 21 (flag=0x01)
  3: 0x04F5 [0x37] UPDATE_EVENT_POSITION_AND_DIR: x=515.247*, z=158.413*, y=-1.803*, direction=180.0*
  4: 0x04FE [0x33] EventEntity->Render.Flags0 |= 0x200000 // Bit 21 (flag=0x01)
  5: 0x0500 [0xA5] EventEntity->Flags3.BallistaTeam |= 0x08  // Set bit 3 of BallistaTeam
  6: 0x0502 [0x00] END_REQSTACK()
```

### Event 65535.82

#### Metadata

| Field        | Value    |
|--------------|----------|
| Entrypoint   | 0x0503   |
| Data Size    | 16 bytes |
| Instructions | 5        |

```
      00 01 02 03 04 05 06 07  08 09 0A 0B 0C 0D 0E 0F
      -- -- -- -- -- -- -- --  -- -- -- -- -- -- -- --
0500:          33 00 37 19 80  1A 80 1B 80 20 80 33 00     3.7...... .3.
0510: A5 00 00                                          ...             
```

#### Opcodes

```
  0: 0x0503 [0x33] EventEntity->Render.Flags0 &= ~ 0x200000 // Bit 21 (flag=0x00)
  1: 0x0505 [0x37] UPDATE_EVENT_POSITION_AND_DIR: x=522.141*, z=158.183*, y=-0.002*, direction=9.2*
  2: 0x050E [0x33] EventEntity->Render.Flags0 &= ~ 0x200000 // Bit 21 (flag=0x00)
  3: 0x0510 [0xA5] EventEntity->Flags3.BallistaTeam &= ~0x08  // Clear bit 3 of BallistaTeam
  4: 0x0512 [0x00] END_REQSTACK()
```

### Event 65535.83

#### Metadata

| Field        | Value    |
|--------------|----------|
| Entrypoint   | 0x0513   |
| Data Size    | 53 bytes |
| Instructions | 5        |

```
      00 01 02 03 04 05 06 07  08 09 0A 0B 0C 0D 0E 0F
      -- -- -- -- -- -- -- --  -- -- -- -- -- -- -- --
0510:          2C F8 FF FF 7F  F8 FF FF 7F 64 65 61 64     ,........dead
0520: 53 F8 FF FF 7F F8 FF FF  7F 64 65 61 64 2C F8 FF  S........dead,..
0530: FF 7F F8 FF FF 7F 63 6F  72 70 53 F8 FF FF 7F F8  ......corpS.....
0540: FF FF 7F 63 6F 72 70 00                           ...corp.        
```

#### Opcodes

```
  0: 0x0513 [0x2C] CREATE_SCHEDULER_TASK: Create scheduler "dead" with entities [EventEntity, EventEntity]
  1: 0x0520 [0x53] WAIT_SCHEDULER_TASK: Wait for scheduler "dead" with entities [EventEntity, EventEntity]
  2: 0x052D [0x2C] CREATE_SCHEDULER_TASK: Create scheduler "corp" with entities [EventEntity, EventEntity]
  3: 0x053A [0x53] WAIT_SCHEDULER_TASK: Wait for scheduler "corp" with entities [EventEntity, EventEntity]
  4: 0x0547 [0x00] END_REQSTACK()
```

### Event 65535.84

#### Metadata

| Field        | Value    |
|--------------|----------|
| Entrypoint   | 0x0548   |
| Data Size    | 24 bytes |
| Instructions | 5        |

```
      00 01 02 03 04 05 06 07  08 09 0A 0B 0C 0D 0E 0F
      -- -- -- -- -- -- -- --  -- -- -- -- -- -- -- --
0540:                          33 00 32 18 80 37 21 80          3.2..7!.
0550: 22 80 23 80 24 80 4A F8  FF FF 7F 5E 62 10 01 00  ".#.$.J....^b...
```

#### Opcodes

```
  0: 0x0548 [0x33] EventEntity->Render.Flags0 &= ~ 0x200000 // Bit 21 (flag=0x00)
  1: 0x054A [0x32] ExtData[1]->MainSpeed = 13* * 0.1
  2: 0x054D [0x37] UPDATE_EVENT_POSITION_AND_DIR: x=520.961*, z=158.307*, y=-2.000*, direction=140.8*
  3: 0x0556 [0x4A] EventEntity looks at Arciela (ID: 17850974/0x0110625E)
  4: 0x055F [0x00] END_REQSTACK()
```
