# 17850919

## Common Data

| Field            | Value                        |
|------------------|------------------------------|
| Zone             | Foret de Hennetiel (ID: 262) |
| Block Size       | 184 bytes                    |
| Total Events     | 3                            |
| References Count | 8                            |

## List of Events

| Event ID              | Entrypoint   |   Size |   Instructions |
|-----------------------|--------------|--------|----------------|
| [65535](#event-65535) | 0x0000       |      1 |              1 |
| [523](#event-523)     | 0x0001       |     56 |             15 |
| [524](#event-524)     | 0x0039       |     65 |             18 |

## DAT References (imed_data)

|   Index | Hex Value   |   Dec Value |
|---------|-------------|-------------|
|       0 | 0x0014      |          20 |
|       1 | 0x0050      |          80 |
|       2 | 0x0A20      |        2592 |
|       3 | 0x1DFA      |        7674 |
|       4 | 0x001E      |          30 |
|       5 | 0x0AFB      |        2811 |
|       6 | 0x1DDF      |        7647 |
|       7 | 0x0AFF      |        2815 |

## String References

- **7647**: You have obtained new information regarding your $3.
- **7674**: A few letters reveal themselves against the corn silk background of your $3 after dipping it in the river.

## Events

### Event 65535

#### Metadata

| Field        | Value   |
|--------------|---------|
| Entrypoint   | 0x0000  |
| Data Size    | 1 bytes |
| Instructions | 1       |

```
      00 01 02 03 04 05 06 07  08 09 0A 0B 0C 0D 0E 0F
      -- -- -- -- -- -- -- --  -- -- -- -- -- -- -- --
0000: 00                                                .               
```

#### Opcodes

```
  0: 0x0000 [0x00] END_REQSTACK()
```

### Event 523

#### Metadata

| Field        | Value    |
|--------------|----------|
| Entrypoint   | 0x0001   |
| Data Size    | 56 bytes |
| Instructions | 15       |

```
      00 01 02 03 04 05 06 07  08 09 0A 0B 0C 0D 0E 0F
      -- -- -- -- -- -- -- --  -- -- -- -- -- -- -- --
0000:    42 4A F0 FF FF 7F F8  FF FF 7F 6F 76 F0 FF FF   BJ........ov...
0010: 7F 1C 00 80 29 08 F0 FF  FF 7F 12 1C 01 80 2A 08  ....).........*.
0020: F0 FF FF 7F 03 02 10 02  80 48 03 80 23 29 08 F0  .........H..#)..
0030: FF FF 7F 13 1C 04 80 21  00                       .......!.       
```

#### Opcodes

```
  0: 0x0001 [0x42] SET_CLI_EVENT_CANCEL_DATA()
  1: 0x0002 [0x4A] LocalPlayer looks at EventEntity
  2: 0x000B [0x6F] WAIT_FRAME_DELAY: Yield until WaitTime reaches zero
  3: 0x000C [0x76] CHECK_ENTITY_RENDER_FLAGS: Wait until LocalPlayer Render.Flags0 and Render.Flags3 conditions are met
  4: 0x0011 [0x1C] WAIT(20* ticks)
  5: 0x0014 [0x29] REQ_SET_WAIT(priority=0x08, entity_id=LocalPlayer, tag_num=0x12)
  6: 0x001B [0x1C] WAIT(80* ticks)
  7: 0x001E [0x2A] GET_REQ_LEVEL(level=8, entity_id=LocalPlayer)
  8: 0x0024 [0x03] Work_Zone[2] = 2592*
  9: 0x0029 [0x48] [System] [7674*]:
    → "A few letters reveal themselves against the corn silk background of your $3 after dipping it in the river."
 10: 0x002C [0x23] WAIT_FOR_DIALOG_INTERACTION
 11: 0x002D [0x29] REQ_SET_WAIT(priority=0x08, entity_id=LocalPlayer, tag_num=0x13)
 12: 0x0034 [0x1C] WAIT(30* ticks)
 13: 0x0037 [0x21] END_EVENT
 14: 0x0038 [0x00] END_REQSTACK()
```

### Event 524

#### Metadata

| Field        | Value    |
|--------------|----------|
| Entrypoint   | 0x0039   |
| Data Size    | 65 bytes |
| Instructions | 18       |

```
      00 01 02 03 04 05 06 07  08 09 0A 0B 0C 0D 0E 0F
      -- -- -- -- -- -- -- --  -- -- -- -- -- -- -- --
0030:                             42 4A F0 FF FF 7F F8           BJ.....
0040: FF FF 7F 6F 76 F0 FF FF  7F 1C 00 80 29 08 F0 FF  ...ov.......)...
0050: FF 7F 12 1C 01 80 2A 08  F0 FF FF 7F 03 02 10 05  ......*.........
0060: 80 48 06 80 23 03 02 10  07 80 48 06 80 23 29 08  .H..#.....H..#).
0070: F0 FF FF 7F 13 1C 04 80  21 00                    ........!.      
```

#### Opcodes

```
  0: 0x0039 [0x42] SET_CLI_EVENT_CANCEL_DATA()
  1: 0x003A [0x4A] LocalPlayer looks at EventEntity
  2: 0x0043 [0x6F] WAIT_FRAME_DELAY: Yield until WaitTime reaches zero
  3: 0x0044 [0x76] CHECK_ENTITY_RENDER_FLAGS: Wait until LocalPlayer Render.Flags0 and Render.Flags3 conditions are met
  4: 0x0049 [0x1C] WAIT(20* ticks)
  5: 0x004C [0x29] REQ_SET_WAIT(priority=0x08, entity_id=LocalPlayer, tag_num=0x12)
  6: 0x0053 [0x1C] WAIT(80* ticks)
  7: 0x0056 [0x2A] GET_REQ_LEVEL(level=8, entity_id=LocalPlayer)
  8: 0x005C [0x03] Work_Zone[2] = 2811*
  9: 0x0061 [0x48] [System] [7647*]:
    → "You have obtained new information regarding your $3."
 10: 0x0064 [0x23] WAIT_FOR_DIALOG_INTERACTION
 11: 0x0065 [0x03] Work_Zone[2] = 2815*
 12: 0x006A [0x48] [System] [7647*]:
    → "You have obtained new information regarding your $3."
 13: 0x006D [0x23] WAIT_FOR_DIALOG_INTERACTION
 14: 0x006E [0x29] REQ_SET_WAIT(priority=0x08, entity_id=LocalPlayer, tag_num=0x13)
 15: 0x0075 [0x1C] WAIT(30* ticks)
 16: 0x0078 [0x21] END_EVENT
 17: 0x0079 [0x00] END_REQSTACK()
```
