# 0x7FFFFFF0 - Zone Events

## Common Data

| Field            | Value                        |
|------------------|------------------------------|
| Zone             | Foret de Hennetiel (ID: 262) |
| Block Size       | 1564 bytes                   |
| Total Events     | 39                           |
| References Count | 68                           |

## List of Events

| Event ID                   | Entrypoint   |   Size |   Instructions |
|----------------------------|--------------|--------|----------------|
| [65535](#event-65535)      | 0x0000       |      1 |              1 |
| [65534](#event-65534)      | 0x0001       |      1 |              1 |
| [65535.1](#event-655351)   | 0x0002       |     24 |              4 |
| [65535.2](#event-655352)   | 0x001A       |     24 |              4 |
| [65535.3](#event-655353)   | 0x0032       |     38 |              5 |
| [65535.4](#event-655354)   | 0x0058       |     38 |              5 |
| [65535.5](#event-655355)   | 0x007E       |     38 |              5 |
| [65535.6](#event-655356)   | 0x00A4       |     37 |              5 |
| [65535.7](#event-655357)   | 0x00C9       |     37 |              5 |
| [65535.8](#event-655358)   | 0x00EE       |     42 |              6 |
| [65535.9](#event-655359)   | 0x0118       |    162 |             36 |
| [65535.10](#event-6553510) | 0x01BA       |      6 |              2 |
| [65535.11](#event-6553511) | 0x01C0       |      6 |              2 |
| [65535.12](#event-6553512) | 0x01C6       |      7 |              3 |
| [65535.13](#event-6553513) | 0x01CD       |      7 |              3 |
| [65535.14](#event-6553514) | 0x01D4       |     15 |              5 |
| [65535.15](#event-6553515) | 0x01E3       |     66 |              6 |
| [65535.16](#event-6553516) | 0x0225       |     13 |              3 |
| [65535.17](#event-6553517) | 0x0232       |     37 |              5 |
| [65535.18](#event-6553518) | 0x0257       |     37 |              5 |
| [65535.19](#event-6553519) | 0x027C       |     27 |              5 |
| [65535.20](#event-6553520) | 0x0297       |     16 |              4 |
| [513](#event-513)          | 0x02A7       |    109 |             15 |
| [5504](#event-5504)        | 0x0314       |    128 |             14 |
| [65535.21](#event-6553521) | 0x0394       |      6 |              2 |
| [65535.22](#event-6553522) | 0x039A       |      6 |              2 |
| [65535.23](#event-6553523) | 0x03A0       |      6 |              2 |
| [65535.24](#event-6553524) | 0x03A6       |      6 |              2 |
| [65535.25](#event-6553525) | 0x03AC       |     10 |              2 |
| [65535.26](#event-6553526) | 0x03B6       |     14 |              4 |
| [65535.27](#event-6553527) | 0x03C4       |     14 |              4 |
| [65535.28](#event-6553528) | 0x03D2       |     10 |              2 |
| [65535.29](#event-6553529) | 0x03DC       |     14 |              4 |
| [65535.30](#event-6553530) | 0x03EA       |     14 |              4 |
| [65535.31](#event-6553531) | 0x03F8       |     22 |              6 |
| [65535.32](#event-6553532) | 0x040E       |     14 |              4 |
| [65535.33](#event-6553533) | 0x041C       |     22 |              6 |
| [65535.34](#event-6553534) | 0x0432       |     22 |              6 |
| [65535.35](#event-6553535) | 0x0448       |     22 |              6 |

## DAT References (imed_data)

|   Index | Hex Value   |   Dec Value |
|---------|-------------|-------------|
|       0 | 0x0008      |           8 |
|       1 | 0x0007      |           7 |
|       2 | 0x0091      |         145 |
|       3 | 0x004F      |          79 |
|       4 | 0x004C      |          76 |
|       5 | 0x00C9      |         201 |
|       6 | 0x0018      |          24 |
|       7 | 0x0020      |          32 |
|       8 | 0x0001      |           1 |
|       9 | 0x0030      |          48 |
|      10 | 0x0005      |           5 |
|      11 | 0x0040      |          64 |
|      12 | 0x003C      |          60 |
|      13 | 0x000D      |          13 |
|      14 | 0x744FB     |      476411 |
|      15 | 0xFFF9F947  |  4294572359 |
|      16 | 0x0000      |           0 |
|      17 | 0x0002      |           2 |
|      18 | 0x000A      |          10 |
|      19 | 0x0009      |           9 |
|      20 | 0x0046      |          70 |
|      21 | 0x008C      |         140 |
|      22 | 0x00D2      |         210 |
|      23 | 0x0028      |          40 |
|      24 | 0xFFFDD836  |  4294826038 |
|      25 | 0x52930     |      338224 |
|      26 | 0xFFFFE8DE  |  4294961374 |
|      27 | 0x0015      |          21 |
|      28 | 0x0014      |          20 |
|      29 | 0x00C8      |         200 |
|      30 | 0x0078      |         120 |
|      31 | 0x005A      |          90 |
|      32 | 0x002D      |          45 |
|      33 | 0x000F      |          15 |
|      34 | 0x7A15B     |      500059 |
|      35 | 0x2742D     |      160813 |
|      36 | 0xFFFFFC15  |  4294966293 |
|      37 | 0x007A      |         122 |
|      38 | 0x7B471     |      504945 |
|      39 | 0x27447     |      160839 |
|      40 | 0xFFFFFAED  |  4294965997 |
|      41 | 0x7E583     |      517507 |
|      42 | 0x267A6     |      157606 |
|      43 | 0xFFFFF831  |  4294965297 |
|      44 | 0x7FD29     |      523561 |
|      45 | 0x26CE9     |      158953 |
|      46 | 0xFFFFF830  |  4294965296 |
|      47 | 0x0643      |        1603 |
|      48 | 0x7EB82     |      519042 |
|      49 | 0x2638D     |      156557 |
|      50 | 0x61B40     |      400192 |
|      51 | 0x3F8AC     |      260268 |
|      52 | 0xFFFFFC0A  |  4294966282 |
|      53 | 0x636BA     |      407226 |
|      54 | 0x415B3     |      267699 |
|      55 | 0xFFFFF8B0  |  4294965424 |
|      56 | 0x001E      |          30 |
|      57 | 0x5DEA3     |      384675 |
|      58 | 0x47949     |      293193 |
|      59 | 0xFFFFF89E  |  4294965406 |
|      60 | 0x62BCE     |      404430 |
|      61 | 0x420F2     |      270578 |
|      62 | 0xFFFFF906  |  4294965510 |
|      63 | 0x63E22     |      409122 |
|      64 | 0x41807     |      268295 |
|      65 | 0xFFFFF7B8  |  4294965176 |
|      66 | 0x6AA1E     |      436766 |
|      67 | 0xFFFBC170  |  4294689136 |

## Events

### Event 65535

#### Metadata

| Field        | Value   |
|--------------|---------|
| Entrypoint   | 0x0000  |
| Data Size    | 1 bytes |
| Instructions | 1       |

```
      00 01 02 03 04 05 06 07  08 09 0A 0B 0C 0D 0E 0F
      -- -- -- -- -- -- -- --  -- -- -- -- -- -- -- --
0000: 00                                                .               
```

#### Opcodes

```
  0: 0x0000 [0x00] END_REQSTACK()
```

### Event 65534

#### Metadata

| Field        | Value   |
|--------------|---------|
| Entrypoint   | 0x0001  |
| Data Size    | 1 bytes |
| Instructions | 1       |

```
      00 01 02 03 04 05 06 07  08 09 0A 0B 0C 0D 0E 0F
      -- -- -- -- -- -- -- --  -- -- -- -- -- -- -- --
0000:    00                                              .              
```

#### Opcodes

```
  0: 0x0001 [0x00] END_REQSTACK()
```

### Event 65535.1

#### Metadata

| Field        | Value    |
|--------------|----------|
| Entrypoint   | 0x0002   |
| Data Size    | 24 bytes |
| Instructions | 4        |

```
      00 01 02 03 04 05 06 07  08 09 0A 0B 0C 0D 0E 0F
      -- -- -- -- -- -- -- --  -- -- -- -- -- -- -- --
0000:       03 04 00 07 7F 1A  26 01 66 05 00 F8 FF FF    ......&.f.....
0010: 7F F8 FF FF 7F 74 6C 6B  30 00                    .....tlk0.      
```

#### Opcodes

```
  0: 0x0002 [0x03] ExtData[1]->WorkLocal[4] = Entity->Race
  1: 0x0007 [0x1A] CALL_SUBROUTINE(address=0x0126)
  2: 0x000A [0x66] LOAD_EXT_SCHEDULER_MAIN: Load scheduler "tlk0" with entities [EventEntity, EventEntity], work=ExtData[1]->WorkLocal[5]
  3: 0x0019 [0x00] END_REQSTACK()
```

### Event 65535.2

#### Metadata

| Field        | Value    |
|--------------|----------|
| Entrypoint   | 0x001A   |
| Data Size    | 24 bytes |
| Instructions | 4        |

```
      00 01 02 03 04 05 06 07  08 09 0A 0B 0C 0D 0E 0F
      -- -- -- -- -- -- -- --  -- -- -- -- -- -- -- --
0010:                                03 04 00 07 7F 1A            ......
0020: 26 01 66 05 00 F8 FF FF  7F F8 FF FF 7F 74 6C 6B  &.f..........tlk
0030: 31 00                                             1.              
```

#### Opcodes

```
  0: 0x001A [0x03] ExtData[1]->WorkLocal[4] = Entity->Race
  1: 0x001F [0x1A] CALL_SUBROUTINE(address=0x0126)
  2: 0x0022 [0x66] LOAD_EXT_SCHEDULER_MAIN: Load scheduler "tlk1" with entities [EventEntity, EventEntity], work=ExtData[1]->WorkLocal[5]
  3: 0x0031 [0x00] END_REQSTACK()
```

### Event 65535.3

#### Metadata

| Field        | Value    |
|--------------|----------|
| Entrypoint   | 0x0032   |
| Data Size    | 38 bytes |
| Instructions | 5        |

```
      00 01 02 03 04 05 06 07  08 09 0A 0B 0C 0D 0E 0F
      -- -- -- -- -- -- -- --  -- -- -- -- -- -- -- --
0030:       22 00 2F 00 F8 FF  FF 7F B6 0B 00 80 01 80    "./...........
0040: 02 80 03 80 04 80 04 80  04 80 05 80 06 80 6C F8  ..............l.
0050: FF FF 7F 07 80 08 80 00                           ........        
```

#### Opcodes

```
  0: 0x0032 [0x22] ENTITY_HIDE_FLAG(enabled=0x00)
  1: 0x0034 [0x2F] EventEntity->Render.Flags0 &= ~0x80000 // Bit 19
  2: 0x003A [0xB6] ENTITY_APPEARANCE_HANDLER(case=Full entity look, race=8*, hair=7*, head=145*, body=79*, hands=76*, legs=76*, feet=76*, main=201*, sub=24*)
  3: 0x004E [0x6C] FADE_ENTITY_COLOR(entity_id=EventEntity, end_alpha=32*, fade_time=1*)
  4: 0x0057 [0x00] END_REQSTACK()
```

### Event 65535.4

#### Metadata

| Field        | Value    |
|--------------|----------|
| Entrypoint   | 0x0058   |
| Data Size    | 38 bytes |
| Instructions | 5        |

```
      00 01 02 03 04 05 06 07  08 09 0A 0B 0C 0D 0E 0F
      -- -- -- -- -- -- -- --  -- -- -- -- -- -- -- --
0050:                          22 00 2F 00 F8 FF FF 7F          "./.....
0060: B6 0B 01 80 01 80 02 80  03 80 04 80 04 80 04 80  ................
0070: 05 80 06 80 6C F8 FF FF  7F 09 80 08 80 00        ....l.........  
```

#### Opcodes

```
  0: 0x0058 [0x22] ENTITY_HIDE_FLAG(enabled=0x00)
  1: 0x005A [0x2F] EventEntity->Render.Flags0 &= ~0x80000 // Bit 19
  2: 0x0060 [0xB6] ENTITY_APPEARANCE_HANDLER(case=Full entity look, race=7*, hair=7*, head=145*, body=79*, hands=76*, legs=76*, feet=76*, main=201*, sub=24*)
  3: 0x0074 [0x6C] FADE_ENTITY_COLOR(entity_id=EventEntity, end_alpha=48*, fade_time=1*)
  4: 0x007D [0x00] END_REQSTACK()
```

### Event 65535.5

#### Metadata

| Field        | Value    |
|--------------|----------|
| Entrypoint   | 0x007E   |
| Data Size    | 38 bytes |
| Instructions | 5        |

```
      00 01 02 03 04 05 06 07  08 09 0A 0B 0C 0D 0E 0F
      -- -- -- -- -- -- -- --  -- -- -- -- -- -- -- --
0070:                                            22 00                ".
0080: 2F 00 F8 FF FF 7F B6 0B  0A 80 01 80 02 80 03 80  /...............
0090: 04 80 04 80 04 80 05 80  06 80 6C F8 FF FF 7F 0B  ..........l.....
00A0: 80 08 80 00                                       ....            
```

#### Opcodes

```
  0: 0x007E [0x22] ENTITY_HIDE_FLAG(enabled=0x00)
  1: 0x0080 [0x2F] EventEntity->Render.Flags0 &= ~0x80000 // Bit 19
  2: 0x0086 [0xB6] ENTITY_APPEARANCE_HANDLER(case=Full entity look, race=5*, hair=7*, head=145*, body=79*, hands=76*, legs=76*, feet=76*, main=201*, sub=24*)
  3: 0x009A [0x6C] FADE_ENTITY_COLOR(entity_id=EventEntity, end_alpha=64*, fade_time=1*)
  4: 0x00A3 [0x00] END_REQSTACK()
```

### Event 65535.6

#### Metadata

| Field        | Value    |
|--------------|----------|
| Entrypoint   | 0x00A4   |
| Data Size    | 37 bytes |
| Instructions | 5        |

```
      00 01 02 03 04 05 06 07  08 09 0A 0B 0C 0D 0E 0F
      -- -- -- -- -- -- -- --  -- -- -- -- -- -- -- --
00A0:             03 04 00 07  7F 1A 26 01 66 05 00 F8      ......&.f...
00B0: FF FF 7F F8 FF FF 7F 73  69 74 30 53 F8 FF FF 7F  .......sit0S....
00C0: F8 FF FF 7F 73 69 74 30  00                       ....sit0.       
```

#### Opcodes

```
  0: 0x00A4 [0x03] ExtData[1]->WorkLocal[4] = Entity->Race
  1: 0x00A9 [0x1A] CALL_SUBROUTINE(address=0x0126)
  2: 0x00AC [0x66] LOAD_EXT_SCHEDULER_MAIN: Load scheduler "sit0" with entities [EventEntity, EventEntity], work=ExtData[1]->WorkLocal[5]
  3: 0x00BB [0x53] WAIT_SCHEDULER_TASK: Wait for scheduler "sit0" with entities [EventEntity, EventEntity]
  4: 0x00C8 [0x00] END_REQSTACK()
```

### Event 65535.7

#### Metadata

| Field        | Value    |
|--------------|----------|
| Entrypoint   | 0x00C9   |
| Data Size    | 37 bytes |
| Instructions | 5        |

```
      00 01 02 03 04 05 06 07  08 09 0A 0B 0C 0D 0E 0F
      -- -- -- -- -- -- -- --  -- -- -- -- -- -- -- --
00C0:                             03 04 00 07 7F 1A 26           ......&
00D0: 01 66 05 00 F8 FF FF 7F  F8 FF FF 7F 73 69 74 31  .f..........sit1
00E0: 53 F8 FF FF 7F F8 FF FF  7F 73 69 74 31 00        S........sit1.  
```

#### Opcodes

```
  0: 0x00C9 [0x03] ExtData[1]->WorkLocal[4] = Entity->Race
  1: 0x00CE [0x1A] CALL_SUBROUTINE(address=0x0126)
  2: 0x00D1 [0x66] LOAD_EXT_SCHEDULER_MAIN: Load scheduler "sit1" with entities [EventEntity, EventEntity], work=ExtData[1]->WorkLocal[5]
  3: 0x00E0 [0x53] WAIT_SCHEDULER_TASK: Wait for scheduler "sit1" with entities [EventEntity, EventEntity]
  4: 0x00ED [0x00] END_REQSTACK()
```

### Event 65535.8

#### Metadata

| Field        | Value    |
|--------------|----------|
| Entrypoint   | 0x00EE   |
| Data Size    | 42 bytes |
| Instructions | 6        |

```
      00 01 02 03 04 05 06 07  08 09 0A 0B 0C 0D 0E 0F
      -- -- -- -- -- -- -- --  -- -- -- -- -- -- -- --
00E0:                                            03 04                ..
00F0: 00 07 7F 1A 26 01 66 05  00 F8 FF FF 7F F8 FF FF  ....&.f.........
0100: 7F 74 6C 6B 30 1C 0C 80  66 05 00 F8 FF FF 7F F8  .tlk0...f.......
0110: FF FF 7F 74 6C 6B 31 00                           ...tlk1.        
```

#### Opcodes

```
  0: 0x00EE [0x03] ExtData[1]->WorkLocal[4] = Entity->Race
  1: 0x00F3 [0x1A] CALL_SUBROUTINE(address=0x0126)
  2: 0x00F6 [0x66] LOAD_EXT_SCHEDULER_MAIN: Load scheduler "tlk0" with entities [EventEntity, EventEntity], work=ExtData[1]->WorkLocal[5]
  3: 0x0105 [0x1C] WAIT(60* ticks)
  4: 0x0108 [0x66] LOAD_EXT_SCHEDULER_MAIN: Load scheduler "tlk1" with entities [EventEntity, EventEntity], work=ExtData[1]->WorkLocal[5]
  5: 0x0117 [0x00] END_REQSTACK()
```

### Event 65535.9

#### Metadata

| Field        | Value     |
|--------------|-----------|
| Entrypoint   | 0x0118    |
| Data Size    | 162 bytes |
| Instructions | 4         |

```
      00 01 02 03 04 05 06 07  08 09 0A 0B 0C 0D 0E 0F
      -- -- -- -- -- -- -- --  -- -- -- -- -- -- -- --
0110:                          32 0D 80 1F 00 0E 80 0F          2.......
0120: 80 10 80 1F 01 00 03 05  00 04 00 02 05 00 0A 80  ................
0130: 05 3B 01 08 05 00 08 80  01 40 01 08 05 00 11 80  .;.......@......
0140: 14 05 00 12 80 07 05 00  13 80 1B 03 05 00 04 00  ................
0150: 02 05 00 0A 80 05 60 01  08 05 00 08 80 01 65 01  ......`.......e.
0160: 08 05 00 11 80 14 05 00  12 80 07 05 00 14 80 1B  ................
0170: 03 05 00 04 00 02 05 00  0A 80 05 85 01 08 05 00  ................
0180: 08 80 01 8A 01 08 05 00  11 80 14 05 00 12 80 07  ................
0190: 05 00 15 80 1B 03 05 00  04 00 02 05 00 0A 80 05  ................
01A0: AA 01 08 05 00 08 80 01  AF 01 08 05 00 11 80 14  ................
01B0: 05 00 12 80 07 05 00 16  80 1B                    ..........      
```

#### Opcodes

```
  0: 0x0118 [0x32] ExtData[1]->MainSpeed = 13* * 0.1
  1: 0x011B [0x1F] MOVE_ENTITY: EventEntity moves to X=476.411*, Z=-394.937*, Y=0.000*
  2: 0x0123 [0x1F] MOVE_ENTITY: Update entity position (mode=1)
  3: 0x0125 [0x00] END_REQSTACK()
```

#### Data or dead code:

```
# Dead code (unreachable instructions):
     0x0126 [0x03] ExtData[1]->WorkLocal[5] = ExtData[1]->WorkLocal[4]
     0x012B [0x02] IF !(ExtData[1]->WorkLocal[5] > 5*) GOTO 0x013B
     0x0133 [0x08] ExtData[1]->WorkLocal[5] -= 1*
     0x0138 [0x01] GOTO 0x0140
     0x013B [0x08] ExtData[1]->WorkLocal[5] -= 2*
     0x0140 [0x14] ExtData[1]->WorkLocal[5] *= 10*
     0x0145 [0x07] ExtData[1]->WorkLocal[5] += 9*
     0x014A [0x1B] RETURN
     0x014B [0x03] ExtData[1]->WorkLocal[5] = ExtData[1]->WorkLocal[4]
     0x0150 [0x02] IF !(ExtData[1]->WorkLocal[5] > 5*) GOTO 0x0160
     0x0158 [0x08] ExtData[1]->WorkLocal[5] -= 1*
     0x015D [0x01] GOTO 0x0165
     0x0160 [0x08] ExtData[1]->WorkLocal[5] -= 2*
     0x0165 [0x14] ExtData[1]->WorkLocal[5] *= 10*
     0x016A [0x07] ExtData[1]->WorkLocal[5] += 70*
     0x016F [0x1B] RETURN
     0x0170 [0x03] ExtData[1]->WorkLocal[5] = ExtData[1]->WorkLocal[4]
     0x0175 [0x02] IF !(ExtData[1]->WorkLocal[5] > 5*) GOTO 0x0185
     0x017D [0x08] ExtData[1]->WorkLocal[5] -= 1*
     0x0182 [0x01] GOTO 0x018A
     0x0185 [0x08] ExtData[1]->WorkLocal[5] -= 2*
     0x018A [0x14] ExtData[1]->WorkLocal[5] *= 10*
     0x018F [0x07] ExtData[1]->WorkLocal[5] += 140*
     0x0194 [0x1B] RETURN
     0x0195 [0x03] ExtData[1]->WorkLocal[5] = ExtData[1]->WorkLocal[4]
     0x019A [0x02] IF !(ExtData[1]->WorkLocal[5] > 5*) GOTO 0x01AA
     0x01A2 [0x08] ExtData[1]->WorkLocal[5] -= 1*
     0x01A7 [0x01] GOTO 0x01AF
     0x01AA [0x08] ExtData[1]->WorkLocal[5] -= 2*
     0x01AF [0x14] ExtData[1]->WorkLocal[5] *= 10*
     0x01B4 [0x07] ExtData[1]->WorkLocal[5] += 210*
     0x01B9 [0x1B] RETURN
```

### Event 65535.10

#### Metadata

| Field        | Value   |
|--------------|---------|
| Entrypoint   | 0x01BA  |
| Data Size    | 6 bytes |
| Instructions | 2       |

```
      00 01 02 03 04 05 06 07  08 09 0A 0B 0C 0D 0E 0F
      -- -- -- -- -- -- -- --  -- -- -- -- -- -- -- --
01B0:                                03 02 10 07 7F 00            ......
```

#### Opcodes

```
  0: 0x01BA [0x03] Work_Zone[2] = Entity->Race
  1: 0x01BF [0x00] END_REQSTACK()
```

### Event 65535.11

#### Metadata

| Field        | Value   |
|--------------|---------|
| Entrypoint   | 0x01C0  |
| Data Size    | 6 bytes |
| Instructions | 2       |

```
      00 01 02 03 04 05 06 07  08 09 0A 0B 0C 0D 0E 0F
      -- -- -- -- -- -- -- --  -- -- -- -- -- -- -- --
01C0: 03 02 10 0B 7F 00                                 ......          
```

#### Opcodes

```
  0: 0x01C0 [0x03] Work_Zone[2] = (Entity->Render.Flags01 >> 25) & 1
  1: 0x01C5 [0x00] END_REQSTACK()
```

### Event 65535.12

#### Metadata

| Field        | Value   |
|--------------|---------|
| Entrypoint   | 0x01C6  |
| Data Size    | 7 bytes |
| Instructions | 3       |

```
      00 01 02 03 04 05 06 07  08 09 0A 0B 0C 0D 0E 0F
      -- -- -- -- -- -- -- --  -- -- -- -- -- -- -- --
01C0:                   AB 03  AC 01 08 80 00                 .......   
```

#### Opcodes

```
  0: 0x01C6 [0xAB] EventEntity->Render.Flags0 ^= 0x20000 // Toggle bit 17
  1: 0x01C8 [0xAC] EventEntity->StatusEvent = 1*
  2: 0x01CC [0x00] END_REQSTACK()
```

### Event 65535.13

#### Metadata

| Field        | Value   |
|--------------|---------|
| Entrypoint   | 0x01CD  |
| Data Size    | 7 bytes |
| Instructions | 3       |

```
      00 01 02 03 04 05 06 07  08 09 0A 0B 0C 0D 0E 0F
      -- -- -- -- -- -- -- --  -- -- -- -- -- -- -- --
01C0:                                         AC 01 10               ...
01D0: 80 AB 04 00                                       ....            
```

#### Opcodes

```
  0: 0x01CD [0xAC] EventEntity->StatusEvent = 0*
  1: 0x01D1 [0xAB] EventEntity->Render.Flags0 |= 0x40000 // Set bit 18
  2: 0x01D3 [0x00] END_REQSTACK()
```

### Event 65535.14

#### Metadata

| Field        | Value    |
|--------------|----------|
| Entrypoint   | 0x01D4   |
| Data Size    | 15 bytes |
| Instructions | 5        |

```
      00 01 02 03 04 05 06 07  08 09 0A 0B 0C 0D 0E 0F
      -- -- -- -- -- -- -- --  -- -- -- -- -- -- -- --
01D0:             32 17 80 1F  00 18 80 19 80 1A 80 1F      2...........
01E0: 01 6F 00                                          .o.             
```

#### Opcodes

```
  0: 0x01D4 [0x32] ExtData[1]->MainSpeed = 40* * 0.1
  1: 0x01D7 [0x1F] MOVE_ENTITY: EventEntity moves to X=-141.258*, Z=338.224*, Y=-5.922*
  2: 0x01DF [0x1F] MOVE_ENTITY: Update entity position (mode=1)
  3: 0x01E1 [0x6F] WAIT_FRAME_DELAY: Yield until WaitTime reaches zero
  4: 0x01E2 [0x00] END_REQSTACK()
```

### Event 65535.15

#### Metadata

| Field        | Value    |
|--------------|----------|
| Entrypoint   | 0x01E3   |
| Data Size    | 66 bytes |
| Instructions | 6        |

```
      00 01 02 03 04 05 06 07  08 09 0A 0B 0C 0D 0E 0F
      -- -- -- -- -- -- -- --  -- -- -- -- -- -- -- --
01E0:          53 F8 FF FF 7F  F0 FF FF 7F 64 61 6D 67     S........damg
01F0: 2C F0 FF FF 7F F0 FF FF  7F 64 65 61 64 53 F0 FF  ,........deadS..
0200: FF 7F F0 FF FF 7F 64 65  61 64 2C F0 FF FF 7F F0  ......dead,.....
0210: FF FF 7F 63 6F 72 70 53  F0 FF FF 7F F0 FF FF 7F  ...corpS........
0220: 63 6F 72 70 00                                    corp.           
```

#### Opcodes

```
  0: 0x01E3 [0x53] WAIT_SCHEDULER_TASK: Wait for scheduler "damg" with entities [EventEntity, LocalPlayer]
  1: 0x01F0 [0x2C] CREATE_SCHEDULER_TASK: Create scheduler "dead" with entities [LocalPlayer, LocalPlayer]
  2: 0x01FD [0x53] WAIT_SCHEDULER_TASK: Wait for scheduler "dead" with entities [LocalPlayer, LocalPlayer]
  3: 0x020A [0x2C] CREATE_SCHEDULER_TASK: Create scheduler "corp" with entities [LocalPlayer, LocalPlayer]
  4: 0x0217 [0x53] WAIT_SCHEDULER_TASK: Wait for scheduler "corp" with entities [LocalPlayer, LocalPlayer]
  5: 0x0224 [0x00] END_REQSTACK()
```

### Event 65535.16

#### Metadata

| Field        | Value    |
|--------------|----------|
| Entrypoint   | 0x0225   |
| Data Size    | 13 bytes |
| Instructions | 3        |

```
      00 01 02 03 04 05 06 07  08 09 0A 0B 0C 0D 0E 0F
      -- -- -- -- -- -- -- --  -- -- -- -- -- -- -- --
0220:                6E F0 FF  FF 7F 01 80 99 F0 FF FF       n..........
0230: 7F 00                                             ..              
```

#### Opcodes

```
  0: 0x0225 [0x6E] LocalPlayer uses emote 7*
  1: 0x022C [0x99] Wait for LocalPlayer animation to complete
  2: 0x0231 [0x00] END_REQSTACK()
```

### Event 65535.17

#### Metadata

| Field        | Value    |
|--------------|----------|
| Entrypoint   | 0x0232   |
| Data Size    | 37 bytes |
| Instructions | 5        |

```
      00 01 02 03 04 05 06 07  08 09 0A 0B 0C 0D 0E 0F
      -- -- -- -- -- -- -- --  -- -- -- -- -- -- -- --
0230:       03 04 00 07 7F 1A  26 01 66 05 00 F8 FF FF    ......&.f.....
0240: 7F F8 FF FF 7F 73 68 61  30 53 F8 FF FF 7F F8 FF  .....sha0S......
0250: FF 7F 73 68 61 30 00                              ..sha0.         
```

#### Opcodes

```
  0: 0x0232 [0x03] ExtData[1]->WorkLocal[4] = Entity->Race
  1: 0x0237 [0x1A] CALL_SUBROUTINE(address=0x0126)
  2: 0x023A [0x66] LOAD_EXT_SCHEDULER_MAIN: Load scheduler "sha0" with entities [EventEntity, EventEntity], work=ExtData[1]->WorkLocal[5]
  3: 0x0249 [0x53] WAIT_SCHEDULER_TASK: Wait for scheduler "sha0" with entities [EventEntity, EventEntity]
  4: 0x0256 [0x00] END_REQSTACK()
```

### Event 65535.18

#### Metadata

| Field        | Value    |
|--------------|----------|
| Entrypoint   | 0x0257   |
| Data Size    | 37 bytes |
| Instructions | 5        |

```
      00 01 02 03 04 05 06 07  08 09 0A 0B 0C 0D 0E 0F
      -- -- -- -- -- -- -- --  -- -- -- -- -- -- -- --
0250:                      03  04 00 07 7F 1A 26 01 66         ......&.f
0260: 05 00 F8 FF FF 7F F8 FF  FF 7F 73 68 61 31 53 F8  ..........sha1S.
0270: FF FF 7F F8 FF FF 7F 73  68 61 31 00              .......sha1.    
```

#### Opcodes

```
  0: 0x0257 [0x03] ExtData[1]->WorkLocal[4] = Entity->Race
  1: 0x025C [0x1A] CALL_SUBROUTINE(address=0x0126)
  2: 0x025F [0x66] LOAD_EXT_SCHEDULER_MAIN: Load scheduler "sha1" with entities [EventEntity, EventEntity], work=ExtData[1]->WorkLocal[5]
  3: 0x026E [0x53] WAIT_SCHEDULER_TASK: Wait for scheduler "sha1" with entities [EventEntity, EventEntity]
  4: 0x027B [0x00] END_REQSTACK()
```

### Event 65535.19

#### Metadata

| Field        | Value    |
|--------------|----------|
| Entrypoint   | 0x027C   |
| Data Size    | 27 bytes |
| Instructions | 5        |

```
      00 01 02 03 04 05 06 07  08 09 0A 0B 0C 0D 0E 0F
      -- -- -- -- -- -- -- --  -- -- -- -- -- -- -- --
0270:                                      03 04 00 07              ....
0280: 7F 1A 4B 01 0B 05 00 66  05 00 F8 FF FF 7F F8 FF  ..K....f........
0290: FF 7F 70 61 73 30 00                              ..pas0.         
```

#### Opcodes

```
  0: 0x027C [0x03] ExtData[1]->WorkLocal[4] = Entity->Race
  1: 0x0281 [0x1A] CALL_SUBROUTINE(address=0x014B)
  2: 0x0284 [0x0B] ExtData[1]->WorkLocal[5]++
  3: 0x0287 [0x66] LOAD_EXT_SCHEDULER_MAIN: Load scheduler "pas0" with entities [EventEntity, EventEntity], work=ExtData[1]->WorkLocal[5]
  4: 0x0296 [0x00] END_REQSTACK()
```

### Event 65535.20

#### Metadata

| Field        | Value    |
|--------------|----------|
| Entrypoint   | 0x0297   |
| Data Size    | 16 bytes |
| Instructions | 4        |

```
      00 01 02 03 04 05 06 07  08 09 0A 0B 0C 0D 0E 0F
      -- -- -- -- -- -- -- --  -- -- -- -- -- -- -- --
0290:                      6E  F8 FF FF 7F 1B 80 99 F8         n........
02A0: FF FF 7F 1C 0C 80 00                              .......         
```

#### Opcodes

```
  0: 0x0297 [0x6E] EventEntity uses emote 21*
  1: 0x029E [0x99] Wait for EventEntity animation to complete
  2: 0x02A3 [0x1C] WAIT(60* ticks)
  3: 0x02A6 [0x00] END_REQSTACK()
```

### Event 513

#### Metadata

| Field        | Value     |
|--------------|-----------|
| Entrypoint   | 0x02A7    |
| Data Size    | 109 bytes |
| Instructions | 15        |

```
      00 01 02 03 04 05 06 07  08 09 0A 0B 0C 0D 0E 0F
      -- -- -- -- -- -- -- --  -- -- -- -- -- -- -- --
02A0:                      42  03 00 00 02 10 03 01 00         B........
02B0: 03 10 03 02 00 04 10 03  03 00 05 10 62 08 80 F0  ............b...
02C0: FF FF 7F F0 FF FF 7F 6D  61 69 6E 10 80 1C 1C 80  .......main.....
02D0: 45 1D 80 F0 FF FF 7F F0  FF FF 7F 66 64 6F 31 10  E..........fdo1.
02E0: 80 1C 1E 80 47 00 00 00  02 00 01 00 03 00 47 01  ....G.........G.
02F0: 45 1D 80 F0 FF FF 7F F0  FF FF 7F 66 64 69 31 10  E..........fdi1.
0300: 80 62 11 80 F0 FF FF 7F  F0 FF FF 7F 6D 61 69 6E  .b..........main
0310: 10 80 21 00                                       ..!.            
```

#### Opcodes

```
  0: 0x02A7 [0x42] SET_CLI_EVENT_CANCEL_DATA()
  1: 0x02A8 [0x03] ExtData[1]->WorkLocal[0] = Work_Zone[2]
  2: 0x02AD [0x03] ExtData[1]->WorkLocal[1] = Work_Zone[3]
  3: 0x02B2 [0x03] ExtData[1]->WorkLocal[2] = Work_Zone[4]
  4: 0x02B7 [0x03] ExtData[1]->WorkLocal[3] = Work_Zone[5]
  5: 0x02BC [0x62] LOAD_EVENT_SCHEDULER: Load scheduler "main" with entities [LocalPlayer, LocalPlayer], work=[1*, 0*]
  6: 0x02CD [0x1C] WAIT(20* ticks)
  7: 0x02D0 [0x45] LOAD_SCHEDULED_TASK: Load scheduler "fdo1" with entities [LocalPlayer, LocalPlayer], work=[200*, 0*]
  8: 0x02E1 [0x1C] WAIT(120* ticks)
  9: 0x02E4 [0x47] UPDATE_PLAYER_POS(ExtData[1]->WorkLocal[0], ExtData[1]->WorkLocal[2], ExtData[1]->WorkLocal[1], yaw=ExtData[1]->WorkLocal[3])
 10: 0x02EE [0x47] WAIT_PLAYER_POS_UPDATE
 11: 0x02F0 [0x45] LOAD_SCHEDULED_TASK: Load scheduler "fdi1" with entities [LocalPlayer, LocalPlayer], work=[200*, 0*]
 12: 0x0301 [0x62] LOAD_EVENT_SCHEDULER: Load scheduler "main" with entities [LocalPlayer, LocalPlayer], work=[2*, 0*]
 13: 0x0312 [0x21] END_EVENT
 14: 0x0313 [0x00] END_REQSTACK()
```

### Event 5504

#### Metadata

| Field        | Value     |
|--------------|-----------|
| Entrypoint   | 0x0314    |
| Data Size    | 128 bytes |
| Instructions | 14        |

```
      00 01 02 03 04 05 06 07  08 09 0A 0B 0C 0D 0E 0F
      -- -- -- -- -- -- -- --  -- -- -- -- -- -- -- --
0310:             42 45 1D 80  F0 FF FF 7F F0 FF FF 7F      BE..........
0320: 66 64 6F 31 10 80 62 08  80 F0 FF FF 7F F0 FF FF  fdo1..b.........
0330: 7F 6D 61 69 6E 10 80 1C  1F 80 45 05 80 F0 FF FF  .main.....E.....
0340: 7F F0 FF FF 7F 77 68 6F  31 10 80 55 05 80 F0 FF  .....who1..U....
0350: FF 7F F0 FF FF 7F 77 68  6F 31 1C 20 80 45 1D 80  ......who1. .E..
0360: F0 FF FF 7F F0 FF FF 7F  66 64 6F 31 10 80 55 1D  ........fdo1..U.
0370: 80 F0 FF FF 7F F0 FF FF  7F 66 64 6F 31 45 05 80  .........fdo1E..
0380: F0 FF FF 7F F0 FF FF 7F  77 68 69 31 10 80 1C 21  ........whi1...!
0390: 80 30 21 00                                       .0!.            
```

#### Opcodes

```
  0: 0x0314 [0x42] SET_CLI_EVENT_CANCEL_DATA()
  1: 0x0315 [0x45] LOAD_SCHEDULED_TASK: Load scheduler "fdo1" with entities [LocalPlayer, LocalPlayer], work=[200*, 0*]
  2: 0x0326 [0x62] LOAD_EVENT_SCHEDULER: Load scheduler "main" with entities [LocalPlayer, LocalPlayer], work=[1*, 0*]
  3: 0x0337 [0x1C] WAIT(90* ticks)
  4: 0x033A [0x45] LOAD_SCHEDULED_TASK: Load scheduler "who1" with entities [LocalPlayer, LocalPlayer], work=[201*, 0*]
  5: 0x034B [0x55] WAIT_LOAD_SCHEDULER: Wait for scheduler "who1" with entities [LocalPlayer, LocalPlayer], work=201*
  6: 0x035A [0x1C] WAIT(45* ticks)
  7: 0x035D [0x45] LOAD_SCHEDULED_TASK: Load scheduler "fdo1" with entities [LocalPlayer, LocalPlayer], work=[200*, 0*]
  8: 0x036E [0x55] WAIT_LOAD_SCHEDULER: Wait for scheduler "fdo1" with entities [LocalPlayer, LocalPlayer], work=200*
  9: 0x037D [0x45] LOAD_SCHEDULED_TASK: Load scheduler "whi1" with entities [LocalPlayer, LocalPlayer], work=[201*, 0*]
 10: 0x038E [0x1C] WAIT(15* ticks)
 11: 0x0391 [0x30] SET_UCOFF_CONTINUE_ZERO()
 12: 0x0392 [0x21] END_EVENT
 13: 0x0393 [0x00] END_REQSTACK()
```

### Event 65535.21

#### Metadata

| Field        | Value   |
|--------------|---------|
| Entrypoint   | 0x0394  |
| Data Size    | 6 bytes |
| Instructions | 2       |

```
      00 01 02 03 04 05 06 07  08 09 0A 0B 0C 0D 0E 0F
      -- -- -- -- -- -- -- --  -- -- -- -- -- -- -- --
0390:             03 02 10 0B  7F 00                        ......      
```

#### Opcodes

```
  0: 0x0394 [0x03] Work_Zone[2] = (Entity->Render.Flags01 >> 25) & 1
  1: 0x0399 [0x00] END_REQSTACK()
```

### Event 65535.22

#### Metadata

| Field        | Value   |
|--------------|---------|
| Entrypoint   | 0x039A  |
| Data Size    | 6 bytes |
| Instructions | 2       |

```
      00 01 02 03 04 05 06 07  08 09 0A 0B 0C 0D 0E 0F
      -- -- -- -- -- -- -- --  -- -- -- -- -- -- -- --
0390:                                03 02 10 07 7F 00            ......
```

#### Opcodes

```
  0: 0x039A [0x03] Work_Zone[2] = Entity->Race
  1: 0x039F [0x00] END_REQSTACK()
```

### Event 65535.23

#### Metadata

| Field        | Value   |
|--------------|---------|
| Entrypoint   | 0x03A0  |
| Data Size    | 6 bytes |
| Instructions | 2       |

```
      00 01 02 03 04 05 06 07  08 09 0A 0B 0C 0D 0E 0F
      -- -- -- -- -- -- -- --  -- -- -- -- -- -- -- --
03A0: 03 09 10 07 7F 00                                 ......          
```

#### Opcodes

```
  0: 0x03A0 [0x03] Work_Zone[9] = Entity->Race
  1: 0x03A5 [0x00] END_REQSTACK()
```

### Event 65535.24

#### Metadata

| Field        | Value   |
|--------------|---------|
| Entrypoint   | 0x03A6  |
| Data Size    | 6 bytes |
| Instructions | 2       |

```
      00 01 02 03 04 05 06 07  08 09 0A 0B 0C 0D 0E 0F
      -- -- -- -- -- -- -- --  -- -- -- -- -- -- -- --
03A0:                   03 02  10 06 7F 00                    ......    
```

#### Opcodes

```
  0: 0x03A6 [0x03] Work_Zone[2] = Entity->JobId (if LocalPlayer)
  1: 0x03AB [0x00] END_REQSTACK()
```

### Event 65535.25

#### Metadata

| Field        | Value    |
|--------------|----------|
| Entrypoint   | 0x03AC   |
| Data Size    | 10 bytes |
| Instructions | 2        |

```
      00 01 02 03 04 05 06 07  08 09 0A 0B 0C 0D 0E 0F
      -- -- -- -- -- -- -- --  -- -- -- -- -- -- -- --
03A0:                                      37 22 80 23              7".#
03B0: 80 24 80 25 80 00                                 .$.%..          
```

#### Opcodes

```
  0: 0x03AC [0x37] UPDATE_EVENT_POSITION_AND_DIR: x=500.059*, z=160.813*, y=-1.003*, direction=10.7°*
  1: 0x03B5 [0x00] END_REQSTACK()
```

### Event 65535.26

#### Metadata

| Field        | Value    |
|--------------|----------|
| Entrypoint   | 0x03B6   |
| Data Size    | 14 bytes |
| Instructions | 4        |

```
      00 01 02 03 04 05 06 07  08 09 0A 0B 0C 0D 0E 0F
      -- -- -- -- -- -- -- --  -- -- -- -- -- -- -- --
03B0:                   32 0D  80 1F 00 26 80 27 80 28        2....&.'.(
03C0: 80 1F 01 00                                       ....            
```

#### Opcodes

```
  0: 0x03B6 [0x32] ExtData[1]->MainSpeed = 13* * 0.1
  1: 0x03B9 [0x1F] MOVE_ENTITY: EventEntity moves to X=504.945*, Z=160.839*, Y=-1.299*
  2: 0x03C1 [0x1F] MOVE_ENTITY: Update entity position (mode=1)
  3: 0x03C3 [0x00] END_REQSTACK()
```

### Event 65535.27

#### Metadata

| Field        | Value    |
|--------------|----------|
| Entrypoint   | 0x03C4   |
| Data Size    | 14 bytes |
| Instructions | 4        |

```
      00 01 02 03 04 05 06 07  08 09 0A 0B 0C 0D 0E 0F
      -- -- -- -- -- -- -- --  -- -- -- -- -- -- -- --
03C0:             32 17 80 1F  00 29 80 2A 80 2B 80 1F      2....).*.+..
03D0: 01 00                                             ..              
```

#### Opcodes

```
  0: 0x03C4 [0x32] ExtData[1]->MainSpeed = 40* * 0.1
  1: 0x03C7 [0x1F] MOVE_ENTITY: EventEntity moves to X=517.507*, Z=157.606*, Y=-1.999*
  2: 0x03CF [0x1F] MOVE_ENTITY: Update entity position (mode=1)
  3: 0x03D1 [0x00] END_REQSTACK()
```

### Event 65535.28

#### Metadata

| Field        | Value    |
|--------------|----------|
| Entrypoint   | 0x03D2   |
| Data Size    | 10 bytes |
| Instructions | 2        |

```
      00 01 02 03 04 05 06 07  08 09 0A 0B 0C 0D 0E 0F
      -- -- -- -- -- -- -- --  -- -- -- -- -- -- -- --
03D0:       37 2C 80 2D 80 2E  80 2F 80 00                7,.-.../..    
```

#### Opcodes

```
  0: 0x03D2 [0x37] UPDATE_EVENT_POSITION_AND_DIR: x=523.561*, z=158.953*, y=-2.000*, direction=140.9°*
  1: 0x03DB [0x00] END_REQSTACK()
```

### Event 65535.29

#### Metadata

| Field        | Value    |
|--------------|----------|
| Entrypoint   | 0x03DC   |
| Data Size    | 14 bytes |
| Instructions | 4        |

```
      00 01 02 03 04 05 06 07  08 09 0A 0B 0C 0D 0E 0F
      -- -- -- -- -- -- -- --  -- -- -- -- -- -- -- --
03D0:                                      32 0D 80 1F              2...
03E0: 00 30 80 31 80 2E 80 1F  01 00                    .0.1......      
```

#### Opcodes

```
  0: 0x03DC [0x32] ExtData[1]->MainSpeed = 13* * 0.1
  1: 0x03DF [0x1F] MOVE_ENTITY: EventEntity moves to X=519.042*, Z=156.557*, Y=-2.000*
  2: 0x03E7 [0x1F] MOVE_ENTITY: Update entity position (mode=1)
  3: 0x03E9 [0x00] END_REQSTACK()
```

### Event 65535.30

#### Metadata

| Field        | Value    |
|--------------|----------|
| Entrypoint   | 0x03EA   |
| Data Size    | 14 bytes |
| Instructions | 4        |

```
      00 01 02 03 04 05 06 07  08 09 0A 0B 0C 0D 0E 0F
      -- -- -- -- -- -- -- --  -- -- -- -- -- -- -- --
03E0:                                32 17 80 1F 00 32            2....2
03F0: 80 33 80 34 80 1F 01 00                           .3.4....        
```

#### Opcodes

```
  0: 0x03EA [0x32] ExtData[1]->MainSpeed = 40* * 0.1
  1: 0x03ED [0x1F] MOVE_ENTITY: EventEntity moves to X=400.192*, Z=260.268*, Y=-1.014*
  2: 0x03F5 [0x1F] MOVE_ENTITY: Update entity position (mode=1)
  3: 0x03F7 [0x00] END_REQSTACK()
```

### Event 65535.31

#### Metadata

| Field        | Value    |
|--------------|----------|
| Entrypoint   | 0x03F8   |
| Data Size    | 22 bytes |
| Instructions | 6        |

```
      00 01 02 03 04 05 06 07  08 09 0A 0B 0C 0D 0E 0F
      -- -- -- -- -- -- -- --  -- -- -- -- -- -- -- --
03F0:                          32 17 80 1F 00 35 80 36          2....5.6
0400: 80 37 80 1F 01 1E 29 62  10 01 1C 38 80 00        .7....)b...8..  
```

#### Opcodes

```
  0: 0x03F8 [0x32] ExtData[1]->MainSpeed = 40* * 0.1
  1: 0x03FB [0x1F] MOVE_ENTITY: EventEntity moves to X=407.226*, Z=267.699*, Y=-1.872*
  2: 0x0403 [0x1F] MOVE_ENTITY: Update entity position (mode=1)
  3: 0x0405 [0x1E] EventEntity looks at Fritha (ID: 17850921/0x01106229) and starts talking
  4: 0x040A [0x1C] WAIT(30* ticks)
  5: 0x040D [0x00] END_REQSTACK()
```

### Event 65535.32

#### Metadata

| Field        | Value    |
|--------------|----------|
| Entrypoint   | 0x040E   |
| Data Size    | 14 bytes |
| Instructions | 4        |

```
      00 01 02 03 04 05 06 07  08 09 0A 0B 0C 0D 0E 0F
      -- -- -- -- -- -- -- --  -- -- -- -- -- -- -- --
0400:                                            32 17                2.
0410: 80 1F 00 39 80 3A 80 3B  80 1F 01 00              ...9.:.;....    
```

#### Opcodes

```
  0: 0x040E [0x32] ExtData[1]->MainSpeed = 40* * 0.1
  1: 0x0411 [0x1F] MOVE_ENTITY: EventEntity moves to X=384.675*, Z=293.193*, Y=-1.890*
  2: 0x0419 [0x1F] MOVE_ENTITY: Update entity position (mode=1)
  3: 0x041B [0x00] END_REQSTACK()
```

### Event 65535.33

#### Metadata

| Field        | Value    |
|--------------|----------|
| Entrypoint   | 0x041C   |
| Data Size    | 22 bytes |
| Instructions | 6        |

```
      00 01 02 03 04 05 06 07  08 09 0A 0B 0C 0D 0E 0F
      -- -- -- -- -- -- -- --  -- -- -- -- -- -- -- --
0410:                                      32 17 80 1F              2...
0420: 00 3C 80 3D 80 3E 80 1F  01 1E 6A 62 10 01 1C 38  .<.=.>....jb...8
0430: 80 00                                             ..              
```

#### Opcodes

```
  0: 0x041C [0x32] ExtData[1]->MainSpeed = 40* * 0.1
  1: 0x041F [0x1F] MOVE_ENTITY: EventEntity moves to X=404.430*, Z=270.578*, Y=-1.786*
  2: 0x0427 [0x1F] MOVE_ENTITY: Update entity position (mode=1)
  3: 0x0429 [0x1E] EventEntity looks at Alianne (ID: 17850986/0x0110626A) and starts talking
  4: 0x042E [0x1C] WAIT(30* ticks)
  5: 0x0431 [0x00] END_REQSTACK()
```

### Event 65535.34

#### Metadata

| Field        | Value    |
|--------------|----------|
| Entrypoint   | 0x0432   |
| Data Size    | 22 bytes |
| Instructions | 6        |

```
      00 01 02 03 04 05 06 07  08 09 0A 0B 0C 0D 0E 0F
      -- -- -- -- -- -- -- --  -- -- -- -- -- -- -- --
0430:       32 17 80 1F 00 3F  80 40 80 41 80 1F 01 1E    2....?.@.A....
0440: 29 62 10 01 1C 38 80 00                           )b...8..        
```

#### Opcodes

```
  0: 0x0432 [0x32] ExtData[1]->MainSpeed = 40* * 0.1
  1: 0x0435 [0x1F] MOVE_ENTITY: EventEntity moves to X=409.122*, Z=268.295*, Y=-2.120*
  2: 0x043D [0x1F] MOVE_ENTITY: Update entity position (mode=1)
  3: 0x043F [0x1E] EventEntity looks at Fritha (ID: 17850921/0x01106229) and starts talking
  4: 0x0444 [0x1C] WAIT(30* ticks)
  5: 0x0447 [0x00] END_REQSTACK()
```

### Event 65535.35

#### Metadata

| Field        | Value    |
|--------------|----------|
| Entrypoint   | 0x0448   |
| Data Size    | 22 bytes |
| Instructions | 6        |

```
      00 01 02 03 04 05 06 07  08 09 0A 0B 0C 0D 0E 0F
      -- -- -- -- -- -- -- --  -- -- -- -- -- -- -- --
0440:                          32 17 80 1F 00 42 80 43          2....B.C
0450: 80 2B 80 1F 01 1E 6B 62  10 01 1C 38 80 00        .+....kb...8..  
```

#### Opcodes

```
  0: 0x0448 [0x32] ExtData[1]->MainSpeed = 40* * 0.1
  1: 0x044B [0x1F] MOVE_ENTITY: EventEntity moves to X=436.766*, Z=-278.160*, Y=-1.999*
  2: 0x0453 [0x1F] MOVE_ENTITY: Update entity position (mode=1)
  3: 0x0455 [0x1E] EventEntity looks at Davengrot (ID: 17850987/0x0110626B) and starts talking
  4: 0x045A [0x1C] WAIT(30* ticks)
  5: 0x045D [0x00] END_REQSTACK()
```
