# Event 65535

## Metadata

| Field           | Value    |
|-----------------|----------|
| Event Index     | 45/48    |
| Offset          | 0x038B   |
| Data Size       | 56 bytes |
| Calculated Size | 56 bytes |
| Instructions    | 6        |

```
      00 01 02 03 04 05 06 07  08 09 0A 0B 0C 0D 0E 0F
      -- -- -- -- -- -- -- --  -- -- -- -- -- -- -- --
0380:                                   45 33 80 F8 FF             E3...
0390: FF 7F F8 FF FF 7F 73 30  36 36 19 80 1C 34 80 52  ......s066...4.R
03A0: 33 80 F8 FF FF 7F F8 FF  FF 7F 73 30 36 36 45 33  3.........s066E3
03B0: 80 F8 FF FF 7F F8 FF FF  7F 73 30 36 37 19 80 1C  .........s067...
03C0: 35 80 00                                          5..             
```

## Opcodes

```
  0: 0x038B [0x45] LOAD_SCHEDULED_TASK: Load scheduler "s066" with entities [EventEntity, EventEntity], work=[249*, 0*]
  1: 0x039C [0x1C] WAIT(180* ticks)
  2: 0x039F [0x52] END_LOAD_SCHEDULER: End scheduler "s066" with entities [EventEntity, EventEntity], work=249*
  3: 0x03AE [0x45] LOAD_SCHEDULED_TASK: Load scheduler "s067" with entities [EventEntity, EventEntity], work=[249*, 0*]
  4: 0x03BF [0x1C] WAIT(120* ticks)
  5: 0x03C2 [0x00] END_REQSTACK()
```
