# Event 65535

## Metadata

| Field           | Value    |
|-----------------|----------|
| Event Index     | 30/48    |
| Offset          | 0x01B1   |
| Data Size       | 66 bytes |
| Calculated Size | 66 bytes |
| Instructions    | 15       |

```
      00 01 02 03 04 05 06 07  08 09 0A 0B 0C 0D 0E 0F
      -- -- -- -- -- -- -- --  -- -- -- -- -- -- -- --
01B0:    32 05 80 1F 00 06 80  07 80 08 80 1F 01 1F 00   2..............
01C0: 09 80 0A 80 08 80 1F 01  1F 00 0B 80 0C 80 0D 80  ................
01D0: 1F 01 1F 00 0E 80 0F 80  0D 80 1F 01 1F 00 10 80  ................
01E0: 11 80 0D 80 1F 01 1F 00  12 80 13 80 14 80 1F 01  ................
01F0: 22 01 00                                          "..             
```

## Opcodes

```
  0: 0x01B1 [0x32] ExtData[1]->MainSpeed = 40* * 0.1
  1: 0x01B4 [0x1F] MOVE_ENTITY: EventEntity moves to X=-4.836*, Z=50.988*, Y=-61.000*
  2: 0x01BC [0x1F] MOVE_ENTITY: Update entity position (mode=1)
  3: 0x01BE [0x1F] MOVE_ENTITY: EventEntity moves to X=-5.660*, Z=53.579*, Y=-61.000*
  4: 0x01C6 [0x1F] MOVE_ENTITY: Update entity position (mode=1)
  5: 0x01C8 [0x1F] MOVE_ENTITY: EventEntity moves to X=-5.278*, Z=60.847*, Y=-60.500*
  6: 0x01D0 [0x1F] MOVE_ENTITY: Update entity position (mode=1)
  7: 0x01D2 [0x1F] MOVE_ENTITY: EventEntity moves to X=-3.604*, Z=62.167*, Y=-60.500*
  8: 0x01DA [0x1F] MOVE_ENTITY: Update entity position (mode=1)
  9: 0x01DC [0x1F] MOVE_ENTITY: EventEntity moves to X=-1.459*, Z=61.798*, Y=-60.500*
 10: 0x01E4 [0x1F] MOVE_ENTITY: Update entity position (mode=1)
 11: 0x01E6 [0x1F] MOVE_ENTITY: EventEntity moves to X=-0.889*, Z=45.230*, Y=-50.000*
 12: 0x01EE [0x1F] MOVE_ENTITY: Update entity position (mode=1)
 13: 0x01F0 [0x22] ENTITY_HIDE_FLAG(enabled=0x01)
 14: 0x01F2 [0x00] END_REQSTACK()
```
