# Event 65535

## Metadata

| Field           | Value    |
|-----------------|----------|
| Event Index     | 31/48    |
| Offset          | 0x01F3   |
| Data Size       | 37 bytes |
| Calculated Size | 37 bytes |
| Instructions    | 9        |

```
      00 01 02 03 04 05 06 07  08 09 0A 0B 0C 0D 0E 0F
      -- -- -- -- -- -- -- --  -- -- -- -- -- -- -- --
01F0:          29 08 5F 20 0F  01 0B 1D 15 80 23 29 08     )._ ......#).
0200: 5F 20 0F 01 0C 29 08 5F  20 0F 01 01 1D 16 80 23  _ ...)._ ......#
0210: 29 08 5F 20 0F 01 02 00                           )._ ....        
```

## Opcodes

```
  0: 0x01F3 [0x29] REQ_SET_WAIT(priority=0x08, entity_id=Apururu (ID: 17768543/0x010F205F), tag_num=0x0B)
  1: 0x01FA [0x1D] PRINT_EVENT_MESSAGE(message_id=8165*)
    → "But, Star Sibyl!\u0007Windurst was saved from devastation twenty years ago when Karaha-Baruha used that very same summoning magic!\u007F1\u0000\u0007"
  2: 0x01FD [0x23] WAIT_FOR_DIALOG_INTERACTION
  3: 0x01FE [0x29] REQ_SET_WAIT(priority=0x08, entity_id=Apururu (ID: 17768543/0x010F205F), tag_num=0x0C)
  4: 0x0205 [0x29] REQ_SET_WAIT(priority=0x08, entity_id=Apururu (ID: 17768543/0x010F205F), tag_num=0x01)
  5: 0x020C [0x1D] PRINT_EVENT_MESSAGE(message_id=8166*)
    → "Of course, I understand that summoning is not to be taken lightly! But if my deary-weary brother is able to master that magic as he believes he can...\u007F1\u0000\u0007"
  6: 0x020F [0x23] WAIT_FOR_DIALOG_INTERACTION
  7: 0x0210 [0x29] REQ_SET_WAIT(priority=0x08, entity_id=Apururu (ID: 17768543/0x010F205F), tag_num=0x02)
  8: 0x0217 [0x00] END_REQSTACK()
```
