# Event 65535

## Metadata

| Field           | Value     |
|-----------------|-----------|
| Event Index     | 13/15     |
| Offset          | 0x0239    |
| Data Size       | 155 bytes |
| Calculated Size | 155 bytes |
| Instructions    | 4         |

```
      00 01 02 03 04 05 06 07  08 09 0A 0B 0C 0D 0E 0F
      -- -- -- -- -- -- -- --  -- -- -- -- -- -- -- --
0230:                             AC 01 01 80 AB 04 00           .......
0240: 03 01 00 00 00 02 01 00  09 80 05 55 02 08 01 00  ...........U....
0250: 00 80 01 5A 02 08 01 00  06 80 14 01 00 10 80 07  ...Z............
0260: 01 00 11 80 1B 03 01 00  00 00 02 01 00 09 80 05  ................
0270: 7A 02 08 01 00 00 80 01  7F 02 08 01 00 06 80 14  z...............
0280: 01 00 10 80 07 01 00 12  80 1B 03 01 00 00 00 02  ................
0290: 01 00 09 80 05 9F 02 08  01 00 00 80 01 A4 02 08  ................
02A0: 01 00 06 80 14 01 00 10  80 07 01 00 13 80 1B 03  ................
02B0: 01 00 00 00 02 01 00 09  80 05 C4 02 08 01 00 00  ................
02C0: 80 01 C9 02 08 01 00 06  80 14 01 00 10 80 07 01  ................
02D0: 00 14 80 1B                                       ....            
```

## Opcodes

```
  0: 0x0239 [0xAC] EventEntity->StatusEvent = 0*
  1: 0x023D [0xAB] EventEntity->Render.Flags0 |= 0x40000 // Set bit 18
  2: 0x023F [0x00] END_REQSTACK()
```

## Data or dead code:

```
# Data Section: 0x0240 (148 bytes)
     0x0240: 03 01 00 00 00 02 01 00 09 80 05 55 02 08 01 00
     0x0250: 00 80 01 5A 02 08 01 00 06 80 14 01 00 10 80 07
     0x0260: 01 00 11 80 1B 03 01 00 00 00 02 01 00 09 80 05
     0x0270: 7A 02 08 01 00 00 80 01 7F 02 08 01 00 06 80 14
     0x0280: 01 00 10 80 07 01 00 12 80 1B 03 01 00 00 00 02
     0x0290: 01 00 09 80 05 9F 02 08 01 00 00 80 01 A4 02 08
     0x02A0: 01 00 06 80 14 01 00 10 80 07 01 00 13 80 1B 03
     0x02B0: 01 00 00 00 02 01 00 09 80 05 C4 02 08 01 00 00
     0x02C0: 80 01 C9 02 08 01 00 06 80 14 01 00 10 80 07 01
     0x02D0: 00 14 80 1B
```