# Event 65535

## Metadata

| Field           | Value     |
|-----------------|-----------|
| Event Index     | 13/15     |
| Offset          | 0x0239    |
| Data Size       | 155 bytes |
| Calculated Size | 155 bytes |
| Instructions    | 3         |

```
      00 01 02 03 04 05 06 07  08 09 0A 0B 0C 0D 0E 0F
      -- -- -- -- -- -- -- --  -- -- -- -- -- -- -- --
0230:                             AC 01 01 80 AB 04 00           .......
0240: 03 01 00 00 00 02 01 00  09 80 05 55 02 08 01 00  ...........U....
0250: 00 80 01 5A 02 08 01 00  06 80 14 01 00 10 80 07  ...Z............
0260: 01 00 11 80 1B 03 01 00  00 00 02 01 00 09 80 05  ................
0270: 7A 02 08 01 00 00 80 01  7F 02 08 01 00 06 80 14  z...............
0280: 01 00 10 80 07 01 00 12  80 1B 03 01 00 00 00 02  ................
0290: 01 00 09 80 05 9F 02 08  01 00 00 80 01 A4 02 08  ................
02A0: 01 00 06 80 14 01 00 10  80 07 01 00 13 80 1B 03  ................
02B0: 01 00 00 00 02 01 00 09  80 05 C4 02 08 01 00 00  ................
02C0: 80 01 C9 02 08 01 00 06  80 14 01 00 10 80 07 01  ................
02D0: 00 14 80 1B                                       ....            
```

## Opcodes

```
  0: 0x0239 [0xAC] EventEntity->StatusEvent = 0*
  1: 0x023D [0xAB] EventEntity->Render.Flags0 |= 0x40000 // Set bit 18
  2: 0x023F [0x00] END_REQSTACK()
```

## Data or dead code:

```
# Dead code (unreachable instructions):
     0x0240 [0x03] ExtData[1]->WorkLocal[1] = ExtData[1]->WorkLocal[0]
     0x0245 [0x02] IF !(ExtData[1]->WorkLocal[1] > 5*) GOTO 0x0255
     0x024D [0x08] ExtData[1]->WorkLocal[1] -= 1*
     0x0252 [0x01] GOTO 0x025A
     0x0255 [0x08] ExtData[1]->WorkLocal[1] -= 2*
     0x025A [0x14] ExtData[1]->WorkLocal[1] *= 10*
     0x025F [0x07] ExtData[1]->WorkLocal[1] += 9*
     0x0264 [0x1B] RETURN
     0x0265 [0x03] ExtData[1]->WorkLocal[1] = ExtData[1]->WorkLocal[0]
     0x026A [0x02] IF !(ExtData[1]->WorkLocal[1] > 5*) GOTO 0x027A
     0x0272 [0x08] ExtData[1]->WorkLocal[1] -= 1*
     0x0277 [0x01] GOTO 0x027F
     0x027A [0x08] ExtData[1]->WorkLocal[1] -= 2*
     0x027F [0x14] ExtData[1]->WorkLocal[1] *= 10*
     0x0284 [0x07] ExtData[1]->WorkLocal[1] += 70*
     0x0289 [0x1B] RETURN
     0x028A [0x03] ExtData[1]->WorkLocal[1] = ExtData[1]->WorkLocal[0]
     0x028F [0x02] IF !(ExtData[1]->WorkLocal[1] > 5*) GOTO 0x029F
     0x0297 [0x08] ExtData[1]->WorkLocal[1] -= 1*
     0x029C [0x01] GOTO 0x02A4
     0x029F [0x08] ExtData[1]->WorkLocal[1] -= 2*
     0x02A4 [0x14] ExtData[1]->WorkLocal[1] *= 10*
     0x02A9 [0x07] ExtData[1]->WorkLocal[1] += 140*
     0x02AE [0x1B] RETURN
     0x02AF [0x03] ExtData[1]->WorkLocal[1] = ExtData[1]->WorkLocal[0]
     0x02B4 [0x02] IF !(ExtData[1]->WorkLocal[1] > 5*) GOTO 0x02C4
     0x02BC [0x08] ExtData[1]->WorkLocal[1] -= 1*
     0x02C1 [0x01] GOTO 0x02C9
     0x02C4 [0x08] ExtData[1]->WorkLocal[1] -= 2*
     0x02C9 [0x14] ExtData[1]->WorkLocal[1] *= 10*
     0x02CE [0x07] ExtData[1]->WorkLocal[1] += 210*
     0x02D3 [0x1B] RETURN
```