# 0x7FFFFFF0 - Zone Events

## Common Data

| Field            | Value                           |
|------------------|---------------------------------|
| Zone             | Western Altepa Desert (ID: 125) |
| Block Size       | 788 bytes                       |
| Total Events     | 19                              |
| References Count | 76                              |

## List of Events

| Event ID                   | Entrypoint   |   Size |   Instructions |
|----------------------------|--------------|--------|----------------|
| [65535](#event-65535)      | 0x0000       |      1 |              1 |
| [65534](#event-65534)      | 0x0001       |      1 |              1 |
| [105](#event-105)          | 0x0002       |    105 |             19 |
| [65535.1](#event-655351)   | 0x006B       |     10 |              2 |
| [65535.2](#event-655352)   | 0x0075       |     10 |              2 |
| [65535.3](#event-655353)   | 0x007F       |     10 |              2 |
| [65535.4](#event-655354)   | 0x0089       |     10 |              2 |
| [65535.5](#event-655355)   | 0x0093       |     10 |              2 |
| [65535.6](#event-655356)   | 0x009D       |     10 |              2 |
| [65535.7](#event-655357)   | 0x00A7       |     10 |              2 |
| [65535.8](#event-655358)   | 0x00B1       |     10 |              2 |
| [65535.9](#event-655359)   | 0x00BB       |     10 |              2 |
| [65535.10](#event-6553510) | 0x00C5       |     10 |              2 |
| [65535.11](#event-6553511) | 0x00CF       |     10 |              2 |
| [65535.12](#event-6553512) | 0x00D9       |     10 |              2 |
| [65535.13](#event-6553513) | 0x00E3       |     10 |              2 |
| [65535.14](#event-6553514) | 0x00ED       |     10 |              2 |
| [65535.15](#event-6553515) | 0x00F7       |     10 |              2 |
| [217](#event-217)          | 0x0101       |    135 |             31 |

## DAT References (imed_data)

|   Index | Hex Value   |   Dec Value |
|---------|-------------|-------------|
|       0 | 0x0029      |          41 |
|       1 | 0x00C9      |         201 |
|       2 | 0x0000      |           0 |
|       3 | 0x003C      |          60 |
|       4 | 0x001E      |          30 |
|       5 | 0x1D04      |        7428 |
|       6 | 0x0027      |          39 |
|       7 | 0x00C8      |         200 |
|       8 | 0x007D      |         125 |
|       9 | 0xFFFE6D84  |  4294864260 |
|      10 | 0x1521D     |       86557 |
|      11 | 0xFFFEE6C0  |  4294895296 |
|      12 | 0x064C      |        1612 |
|      13 | 0x9DC49     |      646217 |
|      14 | 0xFFFD6E64  |  4294798948 |
|      15 | 0x00A1      |         161 |
|      16 | 0x0C85      |        3205 |
|      17 | 0xFFFFADA3  |  4294946211 |
|      18 | 0xE9CA      |       59850 |
|      19 | 0xFFFFF799  |  4294965145 |
|      20 | 0x0D28      |        3368 |
|      21 | 0xFFFEABF4  |  4294880244 |
|      22 | 0xFFFA4EB6  |  4294594230 |
|      23 | 0x012D      |         301 |
|      24 | 0x06A4      |        1700 |
|      25 | 0xFFFDB3A7  |  4294816679 |
|      26 | 0x4EF1      |       20209 |
|      27 | 0xFFFFBFF4  |  4294950900 |
|      28 | 0x084E      |        2126 |
|      29 | 0x000A      |          10 |
|      30 | 0xFFFF6A35  |  4294928949 |
|      31 | 0x2327      |        8999 |
|      32 | 0x03ED      |        1005 |
|      33 | 0xFFFCAEE9  |  4294749929 |
|      34 | 0x70C05     |      461829 |
|      35 | 0x17BF0     |       97264 |
|      36 | 0x08E7      |        2279 |
|      37 | 0xFFFC4F0B  |  4294725387 |
|      38 | 0x51564     |      333156 |
|      39 | 0xFFFFD0E8  |  4294955240 |
|      40 | 0x0278      |         632 |
|      41 | 0xFFFA9423  |  4294612003 |
|      42 | 0xFFFE6DB2  |  4294864306 |
|      43 | 0x3C71      |       15473 |
|      44 | 0x08EC      |        2284 |
|      45 | 0x6D91F     |      448799 |
|      46 | 0xFFFF8D5B  |  4294937947 |
|      47 | 0xFFFF64E1  |  4294927585 |
|      48 | 0x0240      |         576 |
|      49 | 0xFFFFBB04  |  4294949636 |
|      50 | 0xD3E9      |       54249 |
|      51 | 0xFFFFFE47  |  4294966855 |
|      52 | 0x0AC4      |        2756 |
|      53 | 0xFFFFB53C  |  4294948156 |
|      54 | 0x4B66      |       19302 |
|      55 | 0x9EA9      |       40617 |
|      56 | 0x03A7      |         935 |
|      57 | 0x11D84     |       73092 |
|      58 | 0xFFFD607B  |  4294795387 |
|      59 | 0x0F9F      |        3999 |
|      60 | 0x0402      |        1026 |
|      61 | 0xFFFFB137  |  4294947127 |
|      62 | 0x7A43      |       31299 |
|      63 | 0xFFFFD8F2  |  4294957298 |
|      64 | 0x0D4B      |        3403 |
|      65 | 0xFFFFC860  |  4294953056 |
|      66 | 0xD01B      |       53275 |
|      67 | 0xFFFFFD7F  |  4294966655 |
|      68 | 0x0BF0      |        3056 |
|      69 | 0x0001      |           1 |
|      70 | 0x000F      |          15 |
|      71 | 0x1DCD      |        7629 |
|      72 | 0x0090      |         144 |
|      73 | 0x1DD9      |        7641 |
|      74 | 0x0063      |          99 |
|      75 | 0x1DDA      |        7642 |

## String References

- **7428**: You dig up a strange wooden casket!
- **7629**: There is treasure somewhere in the vicinity of this marker...
- **7641**: Your chocobo seems especially sharp today!
- **7642**: Your chocobo seems especially energetic today!

## Events

### Event 65535

#### Metadata

| Field        | Value   |
|--------------|---------|
| Entrypoint   | 0x0000  |
| Data Size    | 1 bytes |
| Instructions | 1       |

```
      00 01 02 03 04 05 06 07  08 09 0A 0B 0C 0D 0E 0F
      -- -- -- -- -- -- -- --  -- -- -- -- -- -- -- --
0000: 00                                                .               
```

#### Opcodes

```
  0: 0x0000 [0x00] END_REQSTACK()
```

### Event 65534

#### Metadata

| Field        | Value   |
|--------------|---------|
| Entrypoint   | 0x0001  |
| Data Size    | 1 bytes |
| Instructions | 1       |

```
      00 01 02 03 04 05 06 07  08 09 0A 0B 0C 0D 0E 0F
      -- -- -- -- -- -- -- --  -- -- -- -- -- -- -- --
0000:    00                                              .              
```

#### Opcodes

```
  0: 0x0001 [0x00] END_REQSTACK()
```

### Event 105

#### Metadata

| Field        | Value     |
|--------------|-----------|
| Entrypoint   | 0x0002    |
| Data Size    | 105 bytes |
| Instructions | 19        |

```
      00 01 02 03 04 05 06 07  08 09 0A 0B 0C 0D 0E 0F
      -- -- -- -- -- -- -- --  -- -- -- -- -- -- -- --
0000:       20 01 42 6E F0 FF  FF 7F 00 80 99 F0 FF FF     .Bn..........
0010: 7F 45 01 80 F0 FF FF 7F  F0 FF FF 7F 77 68 6F 31  .E..........who1
0020: 02 80 1C 03 80 29 01 2D  D2 07 01 02 1C 04 80 45  .....).-.......E
0030: 01 80 F0 FF FF 7F F0 FF  FF 7F 77 68 69 31 02 80  ..........whi1..
0040: 48 05 80 1C 03 80 6E F0  FF FF 7F 06 80 99 F0 FF  H.....n.........
0050: FF 7F 29 01 2D D2 07 01  03 1C 07 80 29 01 2D D2  ..).-.......).-.
0060: 07 01 04 A8 00 08 80 02  80 21 00                 .........!.     
```

#### Opcodes

```
  0: 0x0002 [0x20] SET_CLI_EVENT_UC_FLAG: Lock player control
  1: 0x0004 [0x42] SET_CLI_EVENT_CANCEL_DATA()
  2: 0x0005 [0x6E] LocalPlayer uses emote 41*
  3: 0x000C [0x99] Wait for LocalPlayer animation to complete
  4: 0x0011 [0x45] LOAD_SCHEDULED_TASK: Load scheduler "who1" with entities [LocalPlayer, LocalPlayer], work=[201*, 0*]
  5: 0x0022 [0x1C] WAIT(60* ticks)
  6: 0x0025 [0x29] REQ_SET_WAIT(priority=0x01, entity_id=Casket (ID: 17289773/0x0107D22D), tag_num=0x02)
  7: 0x002C [0x1C] WAIT(30* ticks)
  8: 0x002F [0x45] LOAD_SCHEDULED_TASK: Load scheduler "whi1" with entities [LocalPlayer, LocalPlayer], work=[201*, 0*]
  9: 0x0040 [0x48] [System] [7428*]:
    → "You dig up a strange wooden casket!"
 10: 0x0043 [0x1C] WAIT(60* ticks)
 11: 0x0046 [0x6E] LocalPlayer uses emote 39*
 12: 0x004D [0x99] Wait for LocalPlayer animation to complete
 13: 0x0052 [0x29] REQ_SET_WAIT(priority=0x01, entity_id=Casket (ID: 17289773/0x0107D22D), tag_num=0x03)
 14: 0x0059 [0x1C] WAIT(200* ticks)
 15: 0x005C [0x29] REQ_SET_WAIT(priority=0x01, entity_id=Casket (ID: 17289773/0x0107D22D), tag_num=0x04)
 16: 0x0063 [0xA8] MAP_MARKER_CONTROL: Reset/unlock markers (no map display), zone=125*, marker=0*
 17: 0x0069 [0x21] END_EVENT
 18: 0x006A [0x00] END_REQSTACK()
```

### Event 65535.1

#### Metadata

| Field        | Value    |
|--------------|----------|
| Entrypoint   | 0x006B   |
| Data Size    | 10 bytes |
| Instructions | 2        |

```
      00 01 02 03 04 05 06 07  08 09 0A 0B 0C 0D 0E 0F
      -- -- -- -- -- -- -- --  -- -- -- -- -- -- -- --
0060:                                   37 09 80 0A 80             7....
0070: 0B 80 0C 80 00                                    .....           
```

#### Opcodes

```
  0: 0x006B [0x37] UPDATE_EVENT_POSITION_AND_DIR: x=-103.036*, z=86.557*, y=-72.000*, direction=141.7°*
  1: 0x0074 [0x00] END_REQSTACK()
```

### Event 65535.2

#### Metadata

| Field        | Value    |
|--------------|----------|
| Entrypoint   | 0x0075   |
| Data Size    | 10 bytes |
| Instructions | 2        |

```
      00 01 02 03 04 05 06 07  08 09 0A 0B 0C 0D 0E 0F
      -- -- -- -- -- -- -- --  -- -- -- -- -- -- -- --
0070:                37 0D 80  0E 80 0F 80 10 80 00          7......... 
```

#### Opcodes

```
  0: 0x0075 [0x37] UPDATE_EVENT_POSITION_AND_DIR: x=646.217*, z=-168.348*, y=0.161*, direction=281.7°*
  1: 0x007E [0x00] END_REQSTACK()
```

### Event 65535.3

#### Metadata

| Field        | Value    |
|--------------|----------|
| Entrypoint   | 0x007F   |
| Data Size    | 10 bytes |
| Instructions | 2        |

```
      00 01 02 03 04 05 06 07  08 09 0A 0B 0C 0D 0E 0F
      -- -- -- -- -- -- -- --  -- -- -- -- -- -- -- --
0070:                                               37                 7
0080: 11 80 12 80 13 80 14 80  00                       .........       
```

#### Opcodes

```
  0: 0x007F [0x37] UPDATE_EVENT_POSITION_AND_DIR: x=-21.085*, z=59.850*, y=-2.151*, direction=296.0°*
  1: 0x0088 [0x00] END_REQSTACK()
```

### Event 65535.4

#### Metadata

| Field        | Value    |
|--------------|----------|
| Entrypoint   | 0x0089   |
| Data Size    | 10 bytes |
| Instructions | 2        |

```
      00 01 02 03 04 05 06 07  08 09 0A 0B 0C 0D 0E 0F
      -- -- -- -- -- -- -- --  -- -- -- -- -- -- -- --
0080:                             37 15 80 16 80 17 80           7......
0090: 18 80 00                                          ...             
```

#### Opcodes

```
  0: 0x0089 [0x37] UPDATE_EVENT_POSITION_AND_DIR: x=-87.052*, z=-373.066*, y=0.301*, direction=149.4°*
  1: 0x0092 [0x00] END_REQSTACK()
```

### Event 65535.5

#### Metadata

| Field        | Value    |
|--------------|----------|
| Entrypoint   | 0x0093   |
| Data Size    | 10 bytes |
| Instructions | 2        |

```
      00 01 02 03 04 05 06 07  08 09 0A 0B 0C 0D 0E 0F
      -- -- -- -- -- -- -- --  -- -- -- -- -- -- -- --
0090:          37 19 80 1A 80  1B 80 1C 80 00              7.........   
```

#### Opcodes

```
  0: 0x0093 [0x37] UPDATE_EVENT_POSITION_AND_DIR: x=-150.617*, z=20.209*, y=-16.396*, direction=186.8°*
  1: 0x009C [0x00] END_REQSTACK()
```

### Event 65535.6

#### Metadata

| Field        | Value    |
|--------------|----------|
| Entrypoint   | 0x009D   |
| Data Size    | 10 bytes |
| Instructions | 2        |

```
      00 01 02 03 04 05 06 07  08 09 0A 0B 0C 0D 0E 0F
      -- -- -- -- -- -- -- --  -- -- -- -- -- -- -- --
0090:                                         37 1D 80               7..
00A0: 1E 80 1F 80 20 80 00                              .... ..         
```

#### Opcodes

```
  0: 0x009D [0x37] UPDATE_EVENT_POSITION_AND_DIR: x=0.010*, z=-38.347*, y=8.999*, direction=88.3°*
  1: 0x00A6 [0x00] END_REQSTACK()
```

### Event 65535.7

#### Metadata

| Field        | Value    |
|--------------|----------|
| Entrypoint   | 0x00A7   |
| Data Size    | 10 bytes |
| Instructions | 2        |

```
      00 01 02 03 04 05 06 07  08 09 0A 0B 0C 0D 0E 0F
      -- -- -- -- -- -- -- --  -- -- -- -- -- -- -- --
00A0:                      37  21 80 22 80 23 80 24 80         7!.".#.$.
00B0: 00                                                .               
```

#### Opcodes

```
  0: 0x00A7 [0x37] UPDATE_EVENT_POSITION_AND_DIR: x=-217.367*, z=461.829*, y=97.264*, direction=200.3°*
  1: 0x00B0 [0x00] END_REQSTACK()
```

### Event 65535.8

#### Metadata

| Field        | Value    |
|--------------|----------|
| Entrypoint   | 0x00B1   |
| Data Size    | 10 bytes |
| Instructions | 2        |

```
      00 01 02 03 04 05 06 07  08 09 0A 0B 0C 0D 0E 0F
      -- -- -- -- -- -- -- --  -- -- -- -- -- -- -- --
00B0:    37 25 80 26 80 27 80  28 80 00                  7%.&.'.(..     
```

#### Opcodes

```
  0: 0x00B1 [0x37] UPDATE_EVENT_POSITION_AND_DIR: x=-241.909*, z=333.156*, y=-12.056*, direction=55.5°*
  1: 0x00BA [0x00] END_REQSTACK()
```

### Event 65535.9

#### Metadata

| Field        | Value    |
|--------------|----------|
| Entrypoint   | 0x00BB   |
| Data Size    | 10 bytes |
| Instructions | 2        |

```
      00 01 02 03 04 05 06 07  08 09 0A 0B 0C 0D 0E 0F
      -- -- -- -- -- -- -- --  -- -- -- -- -- -- -- --
00B0:                                   37 29 80 2A 80             7).*.
00C0: 2B 80 2C 80 00                                    +.,..           
```

#### Opcodes

```
  0: 0x00BB [0x37] UPDATE_EVENT_POSITION_AND_DIR: x=-355.293*, z=-102.990*, y=15.473*, direction=200.7°*
  1: 0x00C4 [0x00] END_REQSTACK()
```

### Event 65535.10

#### Metadata

| Field        | Value    |
|--------------|----------|
| Entrypoint   | 0x00C5   |
| Data Size    | 10 bytes |
| Instructions | 2        |

```
      00 01 02 03 04 05 06 07  08 09 0A 0B 0C 0D 0E 0F
      -- -- -- -- -- -- -- --  -- -- -- -- -- -- -- --
00C0:                37 2D 80  2E 80 2F 80 30 80 00          7-.../.0.. 
```

#### Opcodes

```
  0: 0x00C5 [0x37] UPDATE_EVENT_POSITION_AND_DIR: x=448.799*, z=-29.349*, y=-39.711*, direction=50.6°*
  1: 0x00CE [0x00] END_REQSTACK()
```

### Event 65535.11

#### Metadata

| Field        | Value    |
|--------------|----------|
| Entrypoint   | 0x00CF   |
| Data Size    | 10 bytes |
| Instructions | 2        |

```
      00 01 02 03 04 05 06 07  08 09 0A 0B 0C 0D 0E 0F
      -- -- -- -- -- -- -- --  -- -- -- -- -- -- -- --
00C0:                                               37                 7
00D0: 31 80 32 80 33 80 34 80  00                       1.2.3.4..       
```

#### Opcodes

```
  0: 0x00CF [0x37] UPDATE_EVENT_POSITION_AND_DIR: x=-17.660*, z=54.249*, y=-0.441*, direction=242.2°*
  1: 0x00D8 [0x00] END_REQSTACK()
```

### Event 65535.12

#### Metadata

| Field        | Value    |
|--------------|----------|
| Entrypoint   | 0x00D9   |
| Data Size    | 10 bytes |
| Instructions | 2        |

```
      00 01 02 03 04 05 06 07  08 09 0A 0B 0C 0D 0E 0F
      -- -- -- -- -- -- -- --  -- -- -- -- -- -- -- --
00D0:                             37 35 80 36 80 37 80           75.6.7.
00E0: 38 80 00                                          8..             
```

#### Opcodes

```
  0: 0x00D9 [0x37] UPDATE_EVENT_POSITION_AND_DIR: x=-19.140*, z=19.302*, y=40.617*, direction=82.2°*
  1: 0x00E2 [0x00] END_REQSTACK()
```

### Event 65535.13

#### Metadata

| Field        | Value    |
|--------------|----------|
| Entrypoint   | 0x00E3   |
| Data Size    | 10 bytes |
| Instructions | 2        |

```
      00 01 02 03 04 05 06 07  08 09 0A 0B 0C 0D 0E 0F
      -- -- -- -- -- -- -- --  -- -- -- -- -- -- -- --
00E0:          37 39 80 3A 80  3B 80 3C 80 00              79.:.;.<..   
```

#### Opcodes

```
  0: 0x00E3 [0x37] UPDATE_EVENT_POSITION_AND_DIR: x=73.092*, z=-171.909*, y=3.999*, direction=90.2°*
  1: 0x00EC [0x00] END_REQSTACK()
```

### Event 65535.14

#### Metadata

| Field        | Value    |
|--------------|----------|
| Entrypoint   | 0x00ED   |
| Data Size    | 10 bytes |
| Instructions | 2        |

```
      00 01 02 03 04 05 06 07  08 09 0A 0B 0C 0D 0E 0F
      -- -- -- -- -- -- -- --  -- -- -- -- -- -- -- --
00E0:                                         37 3D 80               7=.
00F0: 3E 80 3F 80 40 80 00                              >.?.@..         
```

#### Opcodes

```
  0: 0x00ED [0x37] UPDATE_EVENT_POSITION_AND_DIR: x=-20.169*, z=31.299*, y=-9.998*, direction=299.1°*
  1: 0x00F6 [0x00] END_REQSTACK()
```

### Event 65535.15

#### Metadata

| Field        | Value    |
|--------------|----------|
| Entrypoint   | 0x00F7   |
| Data Size    | 10 bytes |
| Instructions | 2        |

```
      00 01 02 03 04 05 06 07  08 09 0A 0B 0C 0D 0E 0F
      -- -- -- -- -- -- -- --  -- -- -- -- -- -- -- --
00F0:                      37  41 80 42 80 43 80 44 80         7A.B.C.D.
0100: 00                                                .               
```

#### Opcodes

```
  0: 0x00F7 [0x37] UPDATE_EVENT_POSITION_AND_DIR: x=-14.240*, z=53.275*, y=-0.641*, direction=268.6°*
  1: 0x0100 [0x00] END_REQSTACK()
```

### Event 217

#### Metadata

| Field        | Value     |
|--------------|-----------|
| Entrypoint   | 0x0101    |
| Data Size    | 135 bytes |
| Instructions | 9         |

```
      00 01 02 03 04 05 06 07  08 09 0A 0B 0C 0D 0E 0F
      -- -- -- -- -- -- -- --  -- -- -- -- -- -- -- --
0100:    42 5D 02 80 03 80 02  05 10 02 80 00 18 01 A8   B].............
0110: 00 04 10 45 80 1C 46 80  89 04 10 8B 04 10 05 10  ...E..F.........
0120: 02 10 03 10 3F 3F 3F 00  00 00 00 00 00 00 00 00  ....???.........
0130: 00 00 00 00 45 01 80 F8  FF FF 7F F8 FF FF 7F 63  ....E..........c
0140: 68 63 6F 02 80 48 47 80  23 02 06 10 45 80 00 66  hco..HG.#...E..f
0150: 01 45 48 80 F8 FF FF 7F  F8 FF FF 7F 6E 61 6B 31  .EH.........nak1
0160: 02 80 48 49 80 23 02 07  10 4A 80 00 83 01 45 48  ..HI.#...J....EH
0170: 80 F8 FF FF 7F F8 FF FF  7F 6E 61 6B 32 02 80 48  .........nak2..H
0180: 4B 80 23 1C 45 80 21 00                           K.#.E.!.        
```

#### Opcodes

```
  0: 0x0101 [0x42] SET_CLI_EVENT_CANCEL_DATA()
  1: 0x0102 [0x5D] SET_MUSIC_VOLUME(volume=0*, fade_time=60*)
  2: 0x0107 [0x02] IF !(Work_Zone[5] == 0*) GOTO 0x0118
  3: 0x010F [0xA8] MAP_MARKER_CONTROL: Reset/unlock markers (no map display), zone=Work_Zone[4], marker=1*
  4: 0x0115 [0x1C] WAIT(15* ticks)
  5: 0x0118 [0x89] OPEN_MAP(map_id=0x00001004)
  6: 0x011B [0x8B] SET_EVENT_MARK: Add/update map marker on map Work_Zone[4] at (Work_Zone[2], Work_Zone[3]), index=Work_Zone[5], name=(no name)
  7: 0x0124 [0x3F] 0x3F3F = ExtData[1]->WorkLocal[0] % ExtData[1]->WorkLocal[0]
  8: 0x012B [0x00] END_REQSTACK()
```

#### Data or dead code:

```
# Dead code (unreachable instructions):
     0x012C [0x00] END_REQSTACK()
     0x012D [0x00] END_REQSTACK()
     0x012E [0x00] END_REQSTACK()
     0x012F [0x00] END_REQSTACK()
     0x0130 [0x00] END_REQSTACK()
     0x0131 [0x00] END_REQSTACK()
     0x0132 [0x00] END_REQSTACK()
     0x0133 [0x00] END_REQSTACK()
     0x0134 [0x45] LOAD_SCHEDULED_TASK: Load scheduler "chco" with entities [EventEntity, EventEntity], work=[201*, 0*]
     0x0145 [0x48] [System] [7629*]:
    → "There is treasure somewhere in the vicinity of this marker..."
     0x0148 [0x23] WAIT_FOR_DIALOG_INTERACTION
     0x0149 [0x02] IF !(Work_Zone[6] == 1*) GOTO 0x0166
     0x0151 [0x45] LOAD_SCHEDULED_TASK: Load scheduler "nak1" with entities [EventEntity, EventEntity], work=[144*, 0*]
     0x0162 [0x48] [System] [7641*]:
    → "Your chocobo seems especially sharp today!"
     0x0165 [0x23] WAIT_FOR_DIALOG_INTERACTION
     0x0166 [0x02] IF !(Work_Zone[7] == 99*) GOTO 0x0183
     0x016E [0x45] LOAD_SCHEDULED_TASK: Load scheduler "nak2" with entities [EventEntity, EventEntity], work=[144*, 0*]
     0x017F [0x48] [System] [7642*]:
    → "Your chocobo seems especially energetic today!"
     0x0182 [0x23] WAIT_FOR_DIALOG_INTERACTION
     0x0183 [0x1C] WAIT(1* ticks)
     0x0186 [0x21] END_EVENT
     0x0187 [0x00] END_REQSTACK()
```
