# Event 113

## Metadata

| Field           | Value    |
|-----------------|----------|
| Event Index     | 6/7      |
| Offset          | 0x011A   |
| Data Size       | 53 bytes |
| Calculated Size | 53 bytes |
| Instructions    | 12       |

```
      00 01 02 03 04 05 06 07  08 09 0A 0B 0C 0D 0E 0F
      -- -- -- -- -- -- -- --  -- -- -- -- -- -- -- --
0110:                                20 01 42 1E F0 FF             .B...
0120: FF 7F 6F 70 5B 00 80 F8  FF FF 7F F8 FF FF 7F 74  ..op[..........t
0130: 6C 6B 30 1D 13 80 23 03  01 10 14 80 45 15 80 F0  lk0...#.....E...
0140: FF FF 7F F0 FF FF 7F 71  73 74 63 06 80 21 00     .......qstc..!. 
```

## Opcodes

```
  0: 0x011A [0x20] SET_CLI_EVENT_UC_FLAG: Lock player control
  1: 0x011C [0x42] SET_CLI_EVENT_CANCEL_DATA()
  2: 0x011D [0x1E] EventEntity looks at LocalPlayer and starts talking
  3: 0x0122 [0x6F] WAIT_FRAME_DELAY: Yield until WaitTime reaches zero
  4: 0x0123 [0x70] WAIT_ENTITY_RENDER_FLAG: Wait while EventEntity->Render.Flags3 bit 2 is set (cancel turn if not)
  5: 0x0124 [0x5B] LOAD_EXT_SCHEDULER(work_offset=60*, entity1=EventEntity, entity2=EventEntity, action="tlk0")
  6: 0x0133 [0x1D] PRINT_EVENT_MESSAGE(message_id=7034*)
    → "Oho! Well done!\u0007A genuine \u0001\u0005#\u0002\u0001\u0000\u0000, at last! Here's something for your troubles. Heh-heh.\u007F1\u0000\u0007"
  7: 0x0136 [0x23] WAIT_FOR_DIALOG_INTERACTION
  8: 0x0137 [0x03] Work_Zone[1] = 100*
  9: 0x013C [0x45] LOAD_SCHEDULED_TASK(work_offset1=201*, entity1=LocalPlayer, entity2=LocalPlayer, scheduler_id="qstc", work_offset2=0*)
 10: 0x014D [0x21] END_EVENT
 11: 0x014E [0x00] END_REQSTACK()
```
