# Event 65535

## Metadata

| Field           | Value    |
|-----------------|----------|
| Event Index     | 45/57    |
| Offset          | 0x0450   |
| Data Size       | 66 bytes |
| Calculated Size | 66 bytes |
| Instructions    | 16       |

```
      00 01 02 03 04 05 06 07  08 09 0A 0B 0C 0D 0E 0F
      -- -- -- -- -- -- -- --  -- -- -- -- -- -- -- --
0450: 32 33 80 1F 00 92 80 93  80 94 80 1F 01 1C 9E 80  23..............
0460: 1F 00 95 80 96 80 97 80  1F 01 1C 9E 80 1F 00 98  ................
0470: 80 99 80 9A 80 1F 01 1C  9E 80 1F 00 9B 80 9C 80  ................
0480: 9D 80 1F 01 1C 9E 80 1F  00 8E 80 8F 80 90 80 1F  ................
0490: 01 00                                             ..              
```

## Opcodes

```
  0: 0x0450 [0x32] ExtData[1]->MainSpeed = 19* * 0.1
  1: 0x0453 [0x1F] MOVE_ENTITY: EventEntity moves to X=-601.910*, Z=587.743*, Y=0.274*
  2: 0x045B [0x1F] MOVE_ENTITY: Update entity position (mode=1)
  3: 0x045D [0x1C] WAIT(30* ticks)
  4: 0x0460 [0x1F] MOVE_ENTITY: EventEntity moves to X=-600.199*, Z=588.994*, Y=0.347*
  5: 0x0468 [0x1F] MOVE_ENTITY: Update entity position (mode=1)
  6: 0x046A [0x1C] WAIT(30* ticks)
  7: 0x046D [0x1F] MOVE_ENTITY: EventEntity moves to X=-599.211*, Z=586.089*, Y=0.586*
  8: 0x0475 [0x1F] MOVE_ENTITY: Update entity position (mode=1)
  9: 0x0477 [0x1C] WAIT(30* ticks)
 10: 0x047A [0x1F] MOVE_ENTITY: EventEntity moves to X=-599.391*, Z=583.375*, Y=0.830*
 11: 0x0482 [0x1F] MOVE_ENTITY: Update entity position (mode=1)
 12: 0x0484 [0x1C] WAIT(30* ticks)
 13: 0x0487 [0x1F] MOVE_ENTITY: EventEntity moves to X=-600.128*, Z=585.578*, Y=0.628*
 14: 0x048F [0x1F] MOVE_ENTITY: Update entity position (mode=1)
 15: 0x0491 [0x00] END_REQSTACK()
```
