# Event 65535

## Metadata

| Field           | Value    |
|-----------------|----------|
| Event Index     | 44/57    |
| Offset          | 0x041A   |
| Data Size       | 54 bytes |
| Calculated Size | 54 bytes |
| Instructions    | 12       |

```
      00 01 02 03 04 05 06 07  08 09 0A 0B 0C 0D 0E 0F
      -- -- -- -- -- -- -- --  -- -- -- -- -- -- -- --
0410:                                32 2B 80 1F 00 92            2+....
0420: 80 93 80 94 80 1F 01 1F  00 95 80 96 80 97 80 1F  ................
0430: 01 1F 00 98 80 99 80 9A  80 1F 01 1F 00 9B 80 9C  ................
0440: 80 9D 80 1F 01 1F 00 8E  80 8F 80 90 80 1F 01 00  ................
```

## Opcodes

```
  0: 0x041A [0x32] ExtData[1]->MainSpeed = 10* * 0.1
  1: 0x041D [0x1F] MOVE_ENTITY: EventEntity moves to X=-601.910*, Z=587.743*, Y=0.274*
  2: 0x0425 [0x1F] MOVE_ENTITY: Update entity position (mode=1)
  3: 0x0427 [0x1F] MOVE_ENTITY: EventEntity moves to X=-600.199*, Z=588.994*, Y=0.347*
  4: 0x042F [0x1F] MOVE_ENTITY: Update entity position (mode=1)
  5: 0x0431 [0x1F] MOVE_ENTITY: EventEntity moves to X=-599.211*, Z=586.089*, Y=0.586*
  6: 0x0439 [0x1F] MOVE_ENTITY: Update entity position (mode=1)
  7: 0x043B [0x1F] MOVE_ENTITY: EventEntity moves to X=-599.391*, Z=583.375*, Y=0.830*
  8: 0x0443 [0x1F] MOVE_ENTITY: Update entity position (mode=1)
  9: 0x0445 [0x1F] MOVE_ENTITY: EventEntity moves to X=-600.128*, Z=585.578*, Y=0.628*
 10: 0x044D [0x1F] MOVE_ENTITY: Update entity position (mode=1)
 11: 0x044F [0x00] END_REQSTACK()
```
