# Event 65535

## Metadata

| Field           | Value    |
|-----------------|----------|
| Event Index     | 55/57    |
| Offset          | 0x0613   |
| Data Size       | 59 bytes |
| Calculated Size | 59 bytes |
| Instructions    | 13       |

```
      00 01 02 03 04 05 06 07  08 09 0A 0B 0C 0D 0E 0F
      -- -- -- -- -- -- -- --  -- -- -- -- -- -- -- --
0610:          32 2B 80 1F 00  C9 80 CA 80 CB 80 1F 01     2+...........
0620: 1F 00 CC 80 CD 80 CE 80  1F 01 1F 00 CF 80 D0 80  ................
0630: D1 80 1F 01 1F 00 D2 80  D3 80 D4 80 1F 01 1F 00  ................
0640: D5 80 D6 80 D7 80 1F 01  1E 44 10 0F 01 00        .........D....  
```

## Opcodes

```
  0: 0x0613 [0x32] ExtData[1]->MainSpeed = 10* * 0.1
  1: 0x0616 [0x1F] MOVE_ENTITY: EventEntity moves to X=-601.361*, Z=584.507*, Y=0.542*
  2: 0x061E [0x1F] MOVE_ENTITY: Update entity position (mode=1)
  3: 0x0620 [0x1F] MOVE_ENTITY: EventEntity moves to X=-600.414*, Z=583.859*, Y=0.704*
  4: 0x0628 [0x1F] MOVE_ENTITY: Update entity position (mode=1)
  5: 0x062A [0x1F] MOVE_ENTITY: EventEntity moves to X=-599.376*, Z=585.276*, Y=0.668*
  6: 0x0632 [0x1F] MOVE_ENTITY: Update entity position (mode=1)
  7: 0x0634 [0x1F] MOVE_ENTITY: EventEntity moves to X=-598.992*, Z=587.260*, Y=0.468*
  8: 0x063C [0x1F] MOVE_ENTITY: Update entity position (mode=1)
  9: 0x063E [0x1F] MOVE_ENTITY: EventEntity moves to X=-599.942*, Z=587.474*, Y=0.447*
 10: 0x0646 [0x1F] MOVE_ENTITY: Update entity position (mode=1)
 11: 0x0648 [0x1E] EventEntity looks at Unnamed NPC (ID: 17764420/0x010F1044) and starts talking
 12: 0x064D [0x00] END_REQSTACK()
```
