# Event 65535

## Metadata

| Field           | Value    |
|-----------------|----------|
| Event Index     | 49/57    |
| Offset          | 0x051C   |
| Data Size       | 50 bytes |
| Calculated Size | 50 bytes |
| Instructions    | 12       |

```
      00 01 02 03 04 05 06 07  08 09 0A 0B 0C 0D 0E 0F
      -- -- -- -- -- -- -- --  -- -- -- -- -- -- -- --
0510:                                      32 33 80 1F              23..
0520: 00 AE 80 AF 80 B0 80 1F  01 1C 8A 80 1F 00 AA 80  ................
0530: AB 80 AC 80 1F 01 1C 8A  80 1F 00 8E 80 8F 80 90  ................
0540: 80 1F 01 4B 45 10 0F 01  AD 80 1C 8A 80 00        ...KE.........  
```

## Opcodes

```
  0: 0x051C [0x32] ExtData[1]->MainSpeed = 19* * 0.1
  1: 0x051F [0x1F] MOVE_ENTITY: EventEntity moves to X=-599.892*, Z=588.477*, Y=0.373*
  2: 0x0527 [0x1F] MOVE_ENTITY: Update entity position (mode=1)
  3: 0x0529 [0x1C] WAIT(60* ticks)
  4: 0x052C [0x1F] MOVE_ENTITY: EventEntity moves to X=-602.144*, Z=586.825*, Y=0.376*
  5: 0x0534 [0x1F] MOVE_ENTITY: Update entity position (mode=1)
  6: 0x0536 [0x1C] WAIT(60* ticks)
  7: 0x0539 [0x1F] MOVE_ENTITY: EventEntity moves to X=-600.128*, Z=585.578*, Y=0.628*
  8: 0x0541 [0x1F] MOVE_ENTITY: Update entity position (mode=1)
  9: 0x0543 [0x4B] UPDATE_ENTITY_YAW(entity=Unnamed NPC (ID: 17764421/0x010F1045), yaw=11.8°*)
 10: 0x054A [0x1C] WAIT(60* ticks)
 11: 0x054D [0x00] END_REQSTACK()
```
