# Event 65535

## Metadata

| Field           | Value    |
|-----------------|----------|
| Event Index     | 41/57    |
| Offset          | 0x03D5   |
| Data Size       | 48 bytes |
| Calculated Size | 48 bytes |
| Instructions    | 11       |

```
      00 01 02 03 04 05 06 07  08 09 0A 0B 0C 0D 0E 0F
      -- -- -- -- -- -- -- --  -- -- -- -- -- -- -- --
03D0:                02 04 00  83 80 01 04 04 32 33 80       ........23.
03E0: 1F 00 84 80 85 80 86 80  1F 01 1F 00 87 80 88 80  ................
03F0: 89 80 1F 01 1C 8A 80 1F  00 8B 80 8C 80 8D 80 1F  ................
0400: 01 01 D5 03 00                                    .....           
```

## Opcodes

```
  0: 0x03D5 [0x02] IF !(ExtData[1]->WorkLocal[4] == 2*) GOTO 0x0404
  1: 0x03DD [0x32] ExtData[1]->MainSpeed = 19* * 0.1
  2: 0x03E0 [0x1F] MOVE_ENTITY: EventEntity moves to X=-605.972*, Z=607.697*, Y=0.004*
  3: 0x03E8 [0x1F] MOVE_ENTITY: Update entity position (mode=1)
  4: 0x03EA [0x1F] MOVE_ENTITY: EventEntity moves to X=-608.286*, Z=606.788*, Y=-0.064*
  5: 0x03F2 [0x1F] MOVE_ENTITY: Update entity position (mode=1)
  6: 0x03F4 [0x1C] WAIT(60* ticks)
  7: 0x03F7 [0x1F] MOVE_ENTITY: EventEntity moves to X=-606.508*, Z=607.958*, Y=-0.049*
  8: 0x03FF [0x1F] MOVE_ENTITY: Update entity position (mode=1)
  9: 0x0401 [0x01] GOTO 0x03D5

SUBROUTINE_0404:
 10: 0x0404 [0x00] END_REQSTACK()
```
