# Event 65535

## Metadata

| Field           | Value    |
|-----------------|----------|
| Event Index     | 48/57    |
| Offset          | 0x04EA   |
| Data Size       | 50 bytes |
| Calculated Size | 50 bytes |
| Instructions    | 12       |

```
      00 01 02 03 04 05 06 07  08 09 0A 0B 0C 0D 0E 0F
      -- -- -- -- -- -- -- --  -- -- -- -- -- -- -- --
04E0:                                32 2B 80 1F 00 A7            2+....
04F0: 80 A8 80 A9 80 1F 01 1C  8A 80 1F 00 AA 80 AB 80  ................
0500: AC 80 1F 01 1C 8A 80 1F  00 8E 80 8F 80 90 80 1F  ................
0510: 01 4B 45 10 0F 01 AD 80  1C 8A 80 00              .KE.........    
```

## Opcodes

```
  0: 0x04EA [0x32] ExtData[1]->MainSpeed = 10* * 0.1
  1: 0x04ED [0x1F] MOVE_ENTITY: EventEntity moves to X=-600.221*, Z=588.558*, Y=0.369*
  2: 0x04F5 [0x1F] MOVE_ENTITY: Update entity position (mode=1)
  3: 0x04F7 [0x1C] WAIT(60* ticks)
  4: 0x04FA [0x1F] MOVE_ENTITY: EventEntity moves to X=-602.144*, Z=586.825*, Y=0.376*
  5: 0x0502 [0x1F] MOVE_ENTITY: Update entity position (mode=1)
  6: 0x0504 [0x1C] WAIT(60* ticks)
  7: 0x0507 [0x1F] MOVE_ENTITY: EventEntity moves to X=-600.128*, Z=585.578*, Y=0.628*
  8: 0x050F [0x1F] MOVE_ENTITY: Update entity position (mode=1)
  9: 0x0511 [0x4B] UPDATE_ENTITY_YAW(entity=Unnamed NPC (ID: 17764421/0x010F1045), yaw=11.8°*)
 10: 0x0518 [0x1C] WAIT(60* ticks)
 11: 0x051B [0x00] END_REQSTACK()
```
