# Event 65535

## Metadata

| Field           | Value    |
|-----------------|----------|
| Event Index     | 50/57    |
| Offset          | 0x054E   |
| Data Size       | 67 bytes |
| Calculated Size | 67 bytes |
| Instructions    | 15       |

```
      00 01 02 03 04 05 06 07  08 09 0A 0B 0C 0D 0E 0F
      -- -- -- -- -- -- -- --  -- -- -- -- -- -- -- --
0540:                                            32 05                2.
0550: 80 1F 00 B1 80 B2 80 B3  80 1F 01 4B 45 10 0F 01  ...........KE...
0560: B4 80 1C 8A 80 1F 00 B5  80 B6 80 B7 80 1F 01 4B  ...............K
0570: 45 10 0F 01 B8 80 1C B9  80 1F 00 BA 80 BB 80 BC  E...............
0580: 80 1F 01 1C 9E 80 4B 45  10 0F 01 BD 80 1C 8A 80  ......KE........
0590: 00                                                .               
```

## Opcodes

```
  0: 0x054E [0x32] ExtData[1]->MainSpeed = 57* * 0.1
  1: 0x0551 [0x1F] MOVE_ENTITY: EventEntity moves to X=-599.295*, Z=590.678*, Y=0.264*
  2: 0x0559 [0x1F] MOVE_ENTITY: Update entity position (mode=1)
  3: 0x055B [0x4B] UPDATE_ENTITY_YAW(entity=Unnamed NPC (ID: 17764421/0x010F1045), yaw=5.27°*)
  4: 0x0562 [0x1C] WAIT(60* ticks)
  5: 0x0565 [0x1F] MOVE_ENTITY: EventEntity moves to X=-604.353*, Z=586.292*, Y=0.138*
  6: 0x056D [0x1F] MOVE_ENTITY: Update entity position (mode=1)
  7: 0x056F [0x4B] UPDATE_ENTITY_YAW(entity=Unnamed NPC (ID: 17764421/0x010F1045), yaw=0.20°*)
  8: 0x0576 [0x1C] WAIT(240* ticks)
  9: 0x0579 [0x1F] MOVE_ENTITY: EventEntity moves to X=-600.328*, Z=582.410*, Y=0.802*
 10: 0x0581 [0x1F] MOVE_ENTITY: Update entity position (mode=1)
 11: 0x0583 [0x1C] WAIT(30* ticks)
 12: 0x0586 [0x4B] UPDATE_ENTITY_YAW(entity=Unnamed NPC (ID: 17764421/0x010F1045), yaw=16.63°*)
 13: 0x058D [0x1C] WAIT(60* ticks)
 14: 0x0590 [0x00] END_REQSTACK()
```
