# Event 65535

## Metadata

| Field           | Value    |
|-----------------|----------|
| Event Index     | 54/57    |
| Offset          | 0x05E0   |
| Data Size       | 51 bytes |
| Calculated Size | 51 bytes |
| Instructions    | 11       |

```
      00 01 02 03 04 05 06 07  08 09 0A 0B 0C 0D 0E 0F
      -- -- -- -- -- -- -- --  -- -- -- -- -- -- -- --
05E0: 32 05 80 1F 00 C1 80 C2  80 05 80 1F 01 1F 00 C3  2...............
05F0: 80 C4 80 C5 80 1F 01 1F  00 C6 80 C7 80 C8 80 1F  ................
0600: 01 1E 44 10 0F 01 1C 9E  80 4A 44 10 0F 01 45 10  ..D......JD...E.
0610: 0F 01 00                                          ...             
```

## Opcodes

```
  0: 0x05E0 [0x32] ExtData[1]->MainSpeed = 57* * 0.1
  1: 0x05E3 [0x1F] MOVE_ENTITY: EventEntity moves to X=-604.257*, Z=586.573*, Y=0.057*
  2: 0x05EB [0x1F] MOVE_ENTITY: Update entity position (mode=1)
  3: 0x05ED [0x1F] MOVE_ENTITY: EventEntity moves to X=-603.318*, Z=588.527*, Y=0.196*
  4: 0x05F5 [0x1F] MOVE_ENTITY: Update entity position (mode=1)
  5: 0x05F7 [0x1F] MOVE_ENTITY: EventEntity moves to X=-601.495*, Z=586.040*, Y=0.496*
  6: 0x05FF [0x1F] MOVE_ENTITY: Update entity position (mode=1)
  7: 0x0601 [0x1E] EventEntity looks at Unnamed NPC (ID: 17764420/0x010F1044) and starts talking
  8: 0x0606 [0x1C] WAIT(30* ticks)
  9: 0x0609 [0x4A] Unnamed NPC (ID: 17764420/0x010F1044) looks at Unnamed NPC (ID: 17764421/0x010F1045)
 10: 0x0612 [0x00] END_REQSTACK()
```
