# Event 607

## Metadata

| Field           | Value    |
|-----------------|----------|
| Event Index     | 5/8      |
| Offset          | 0x6315   |
| Data Size       | 48 bytes |
| Calculated Size | 48 bytes |
| Instructions    | 11       |

```
      00 01 02 03 04 05 06 07  08 09 0A 0B 0C 0D 0E 0F
      -- -- -- -- -- -- -- --  -- -- -- -- -- -- -- --
6310:                4A 07 90  0E 01 F0 FF FF 7F 6F 76       J........ov
6320: 07 90 0E 01 02 02 10 7B  81 00 43 63 29 10 07 90  .......{..Cc)...
6330: 0E 01 40 2B 07 90 0E 01  7C 81 23 2B 07 90 0E 01  ..@+....|.#+....
6340: 7D 81 23 21 00                                    }.#!.           
```

## Opcodes

```
  0: 0x6315 [0x4A] Halver (ID: 17731591/0x010E9007) looks at LocalPlayer
  1: 0x631E [0x6F] WAIT_FRAME_DELAY: Yield until WaitTime reaches zero
  2: 0x631F [0x76] CHECK_ENTITY_RENDER_FLAGS: Wait until Halver (ID: 17731591/0x010E9007) Render.Flags0 and Render.Flags3 conditions are met
  3: 0x6324 [0x02] IF !(Work_Zone[2] == 462*) GOTO 0x6343
  4: 0x632C [0x29] REQ_SET_WAIT(priority=0x10, entity_id=Halver (ID: 17731591/0x010E9007), tag_num=0x40)
  5: 0x6333 [0x2B] Halver (ID: 17731591/0x010E9007) [9200*]:
    → "You have been entrusted with orders directly from Prince Trion.\u007F1\u0000\u0007"
  6: 0x633A [0x23] WAIT_FOR_DIALOG_INTERACTION
  7: 0x633B [0x2B] Halver (ID: 17731591/0x010E9007) [9201*]:
    → "If they are addressed to Rahal, the leader of the Royal Knights, you should head to the Royal Knights' Quarters as soon as possible.\u007F1\u0000\u0007"
  8: 0x6342 [0x23] WAIT_FOR_DIALOG_INTERACTION
  9: 0x6343 [0x21] END_EVENT
 10: 0x6344 [0x00] END_REQSTACK()
```
