# Event 901

## Metadata

| Field           | Value     |
|-----------------|-----------|
| Event Index     | 45/45     |
| Offset          | 0x8C42    |
| Data Size       | 135 bytes |
| Calculated Size | 135 bytes |
| Instructions    | 9         |

```
      00 01 02 03 04 05 06 07  08 09 0A 0B 0C 0D 0E 0F
      -- -- -- -- -- -- -- --  -- -- -- -- -- -- -- --
8C40:       42 5D 02 80 73 80  02 05 10 02 80 00 59 8C    B]..s.......Y.
8C50: A8 00 04 10 05 80 1C 21  80 89 04 10 8B 04 10 05  .......!........
8C60: 10 02 10 03 10 3F 3F 3F  00 00 00 00 00 00 00 00  .....???........
8C70: 00 00 00 00 00 45 62 81  F8 FF FF 7F F8 FF FF 7F  .....Eb.........
8C80: 63 68 63 6F 02 80 48 41  82 23 02 06 10 05 80 00  chco..HA.#......
8C90: A7 8C 45 42 82 F8 FF FF  7F F8 FF FF 7F 6E 61 6B  ..EB.........nak
8CA0: 31 02 80 48 43 82 23 02  07 10 44 82 00 C4 8C 45  1..HC.#...D....E
8CB0: 42 82 F8 FF FF 7F F8 FF  FF 7F 6E 61 6B 32 02 80  B.........nak2..
8CC0: 48 45 82 23 1C 05 80 21  00                       HE.#...!.       
```

## Opcodes

```
  0: 0x8C42 [0x42] SET_CLI_EVENT_CANCEL_DATA()
  1: 0x8C43 [0x5D] SET_MUSIC_VOLUME(volume=0*, fade_time=60*)
  2: 0x8C48 [0x02] IF !(Work_Zone[5] == 0*) GOTO 0x8C59
  3: 0x8C50 [0xA8] MAP_MARKER_CONTROL: Reset/unlock markers (no map display), zone=Work_Zone[4], marker=1*
  4: 0x8C56 [0x1C] WAIT(15* ticks)
  5: 0x8C59 [0x89] OPEN_MAP(map_id=0x00001004)
  6: 0x8C5C [0x8B] SET_EVENT_MARK: Add/update map marker on map Work_Zone[4] at (4.1, 4.1), index=Work_Zone[5], name=(no name)
  7: 0x8C65 [0x3F] 0x3F3F = ExtData[1]->WorkLocal[0] % ExtData[1]->WorkLocal[0]
  8: 0x8C6C [0x00] END_REQSTACK()
```

## Data or dead code:

```
# Dead code (unreachable instructions):
     0x8C6D [0x00] END_REQSTACK()
     0x8C6E [0x00] END_REQSTACK()
     0x8C6F [0x00] END_REQSTACK()
     0x8C70 [0x00] END_REQSTACK()
     0x8C71 [0x00] END_REQSTACK()
     0x8C72 [0x00] END_REQSTACK()
     0x8C73 [0x00] END_REQSTACK()
     0x8C74 [0x00] END_REQSTACK()
     0x8C75 [0x45] LOAD_SCHEDULED_TASK: Load scheduler "chco" with entities [EventEntity, EventEntity], work=[201*, 0*]
     0x8C86 [0x48] [System] [8640*]:
    → "There is treasure somewhere in the vicinity of this marker...\u007F1\u0000\u0007"
     0x8C89 [0x23] WAIT_FOR_DIALOG_INTERACTION
     0x8C8A [0x02] IF !(Work_Zone[6] == 1*) GOTO 0x8CA7
     0x8C92 [0x45] LOAD_SCHEDULED_TASK: Load scheduler "nak1" with entities [EventEntity, EventEntity], work=[144*, 0*]
     0x8CA3 [0x48] [System] [8652*]:
    → "Your chocobo seems especially sharp today!\u007F1\u0000\u0007"
     0x8CA6 [0x23] WAIT_FOR_DIALOG_INTERACTION
     0x8CA7 [0x02] IF !(Work_Zone[7] == 99*) GOTO 0x8CC4
     0x8CAF [0x45] LOAD_SCHEDULED_TASK: Load scheduler "nak2" with entities [EventEntity, EventEntity], work=[144*, 0*]
     0x8CC0 [0x48] [System] [8653*]:
    → "Your chocobo seems especially energetic today!\u007F1\u0000\u0007"
     0x8CC3 [0x23] WAIT_FOR_DIALOG_INTERACTION
     0x8CC4 [0x1C] WAIT(1* ticks)
     0x8CC7 [0x21] END_EVENT
     0x8CC8 [0x00] END_REQSTACK()
```