# Event 200

## Metadata

| Field           | Value    |
|-----------------|----------|
| Event Index     | 9/10     |
| Offset          | 0x0071   |
| Data Size       | 33 bytes |
| Calculated Size | 33 bytes |
| Instructions    | 12       |

```
      00 01 02 03 04 05 06 07  08 09 0A 0B 0C 0D 0E 0F
      -- -- -- -- -- -- -- --  -- -- -- -- -- -- -- --
0070:    1E F0 FF FF 7F 6F 70  29 08 22 F0 0E 01 01 1D   .....op).".....
0080: 0B 80 23 1D 0C 80 23 29  08 22 F0 0E 01 02 20 00  ..#...#).".... .
0090: 21 00                                             !.              
```

## Opcodes

```
  0: 0x0071 [0x1E] EventEntity looks at LocalPlayer and starts talking
  1: 0x0076 [0x6F] WAIT_FRAME_DELAY: Yield until WaitTime reaches zero
  2: 0x0077 [0x70] WAIT_ENTITY_RENDER_FLAG: Wait while EventEntity->Render.Flags3 bit 2 is set (cancel turn if not)
  3: 0x0078 [0x29] REQ_SET_WAIT(priority=0x08, entity_id=Luuh Koplehn (ID: 17756194/0x010EF022), tag_num=0x01)
  4: 0x007F [0x1D] PRINT_EVENT_MESSAGE(message_id=7547*)
    → "A rough black stone?\u0007Yeah, the professorrr who lives in this manorrr once tried to give me one of those in lieu of his debts.\u007F1\u0000\u0007"
  5: 0x0082 [0x23] WAIT_FOR_DIALOG_INTERACTION
  6: 0x0083 [0x1D] PRINT_EVENT_MESSAGE(message_id=7548*)
    → "Grrrowl! Just remembering it rubs my furrr the wrong way! The old fool claims those strange stones are really starrrs that fell from the sky or some such nonsense.\u007F1\u0000\u0007"
  7: 0x0086 [0x23] WAIT_FOR_DIALOG_INTERACTION
  8: 0x0087 [0x29] REQ_SET_WAIT(priority=0x08, entity_id=Luuh Koplehn (ID: 17756194/0x010EF022), tag_num=0x02)
  9: 0x008E [0x20] SET_CLI_EVENT_UC_FLAG: Unlock player control
 10: 0x0090 [0x21] END_EVENT
 11: 0x0091 [0x00] END_REQSTACK()
```
