# Event 65535

## Metadata

| Field           | Value    |
|-----------------|----------|
| Event Index     | 59/72    |
| Offset          | 0x0421   |
| Data Size       | 50 bytes |
| Calculated Size | 50 bytes |
| Instructions    | 12       |

```
      00 01 02 03 04 05 06 07  08 09 0A 0B 0C 0D 0E 0F
      -- -- -- -- -- -- -- --  -- -- -- -- -- -- -- --
0420:    32 13 80 39 31 80 1C  0A 80 1F 00 37 80 3B 80   2..91......7.;.
0430: 09 80 1F 01 1F 00 39 80  3C 80 36 80 1F 01 1F 00  ......9.<.6.....
0440: 3D 80 3E 80 36 80 1F 01  1F 00 3F 80 40 80 36 80  =.>.6.....?.@.6.
0450: 1F 01 00                                          ...             
```

## Opcodes

```
  0: 0x0421 [0x32] ExtData[1]->MainSpeed = 40* * 0.1
  1: 0x0424 [0x39] SET_ENTITY_DIRECTION(direction=22.1°*)
  2: 0x0427 [0x1C] WAIT(15* ticks)
  3: 0x042A [0x1F] MOVE_ENTITY: EventEntity moves to X=107.180*, Z=-64.000*, Y=-40.150*
  4: 0x0432 [0x1F] MOVE_ENTITY: Update entity position (mode=1)
  5: 0x0434 [0x1F] MOVE_ENTITY: EventEntity moves to X=112.800*, Z=-62.820*, Y=-40.000*
  6: 0x043C [0x1F] MOVE_ENTITY: Update entity position (mode=1)
  7: 0x043E [0x1F] MOVE_ENTITY: EventEntity moves to X=118.650*, Z=-60.930*, Y=-40.000*
  8: 0x0446 [0x1F] MOVE_ENTITY: Update entity position (mode=1)
  9: 0x0448 [0x1F] MOVE_ENTITY: EventEntity moves to X=131.050*, Z=-56.740*, Y=-40.000*
 10: 0x0450 [0x1F] MOVE_ENTITY: Update entity position (mode=1)
 11: 0x0452 [0x00] END_REQSTACK()
```
