# Event 432

## Metadata

| Field           | Value    |
|-----------------|----------|
| Event Index     | 7/7      |
| Offset          | 0x00B9   |
| Data Size       | 60 bytes |
| Calculated Size | 60 bytes |
| Instructions    | 7        |

```
      00 01 02 03 04 05 06 07  08 09 0A 0B 0C 0D 0E 0F
      -- -- -- -- -- -- -- --  -- -- -- -- -- -- -- --
00B0:                             B6 0B 01 80 02 80 03           .......
00C0: 80 03 80 00 80 04 80 04  80 00 80 00 80 B4 00 00  ................
00D0: 00 4D 69 6B 6F 6C 75 6C  75 00 00 00 00 00 00 00  .Mikolulu.......
00E0: 00 B5 00 00 00 36 06 80  08 80 00 80 22 01 92 01  .....6......"...
00F0: F8 FF FF 7F 00                                    .....           
```

## Opcodes

```
  0: 0x00B9 [0xB6] ENTITY_APPEARANCE_HANDLER(case=Full entity look, race=6*, hair=4*, head=139*, body=139*, hands=0*, legs=2*, feet=2*, main=0*, sub=0*)
  1: 0x00CD [0xB4] UI_WINDOW_STRING_HANDLER(case=0x00 - Copy string from opcode, work_offset=ExtData[1]->WorkLocal[0], string="Mikolulu")
  2: 0x00E1 [0xB5] SET_EVENT_ENTITY_NAME: Change EventEntity name to ExtData[1]->WorkLocal[0]
  3: 0x00E5 [0x36] SET_ENTITY_EVENT_POSITION(pos_x=-90.000*, pos_z=-9.500*, pos_y=0.000*)
  4: 0x00EC [0x22] ENTITY_HIDE_FLAG(enabled=0x01)
  5: 0x00EE [0x92] EventEntity->Render.Flags3 ^= 0x01
  6: 0x00F4 [0x00] END_REQSTACK()
```
