# Event 65535

## Metadata

| Field           | Value    |
|-----------------|----------|
| Event Index     | 6/7      |
| Offset          | 0x0079   |
| Data Size       | 64 bytes |
| Calculated Size | 64 bytes |
| Instructions    | 14       |

```
      00 01 02 03 04 05 06 07  08 09 0A 0B 0C 0D 0E 0F
      -- -- -- -- -- -- -- --  -- -- -- -- -- -- -- --
0070:                             32 09 80 1F 00 0A 80           2......
0080: 0B 80 00 80 1F 01 1F 00  0C 80 0D 80 00 80 1F 01  ................
0090: 1F 00 0E 80 0F 80 00 80  1F 01 1F 00 10 80 11 80  ................
00A0: 00 80 1F 01 1F 00 12 80  13 80 00 80 1F 01 1F 00  ................
00B0: 14 80 15 80 00 80 1F 01  00                       .........       
```

## Opcodes

```
  0: 0x0079 [0x32] ExtData[1]->MainSpeed = 40* * 0.1
  1: 0x007C [0x1F] MOVE_ENTITY: EventEntity moves to X=-87.500*, Z=-8.380*, Y=0.000*
  2: 0x0084 [0x1F] MOVE_ENTITY: Update entity position (mode=1)
  3: 0x0086 [0x1F] MOVE_ENTITY: EventEntity moves to X=-83.900*, Z=-8.000*, Y=0.000*
  4: 0x008E [0x1F] MOVE_ENTITY: Update entity position (mode=1)
  5: 0x0090 [0x1F] MOVE_ENTITY: EventEntity moves to X=-82.000*, Z=-8.950*, Y=0.000*
  6: 0x0098 [0x1F] MOVE_ENTITY: Update entity position (mode=1)
  7: 0x009A [0x1F] MOVE_ENTITY: EventEntity moves to X=-80.500*, Z=-13.100*, Y=0.000*
  8: 0x00A2 [0x1F] MOVE_ENTITY: Update entity position (mode=1)
  9: 0x00A4 [0x1F] MOVE_ENTITY: EventEntity moves to X=-78.200*, Z=-15.400*, Y=0.000*
 10: 0x00AC [0x1F] MOVE_ENTITY: Update entity position (mode=1)
 11: 0x00AE [0x1F] MOVE_ENTITY: EventEntity moves to X=-72.650*, Z=-15.920*, Y=0.000*
 12: 0x00B6 [0x1F] MOVE_ENTITY: Update entity position (mode=1)
 13: 0x00B8 [0x00] END_REQSTACK()
```
