# Event 51

## Metadata

| Field           | Value    |
|-----------------|----------|
| Event Index     | 8/14     |
| Offset          | 0x00AD   |
| Data Size       | 55 bytes |
| Calculated Size | 55 bytes |
| Instructions    | 11       |

```
      00 01 02 03 04 05 06 07  08 09 0A 0B 0C 0D 0E 0F
      -- -- -- -- -- -- -- --  -- -- -- -- -- -- -- --
00A0:                                         20 01 42                .B
00B0: 43 00 43 01 45 00 80 F0  FF FF 7F F0 FF FF 7F 66  C.C.E..........f
00C0: 64 6F 31 01 80 1C 02 80  29 01 30 D3 04 01 02 45  do1.....).0....E
00D0: 00 80 F0 FF FF 7F F0 FF  FF 7F 66 64 69 31 01 80  ..........fdi1..
00E0: 20 00 21 00                                        .!.            
```

## Opcodes

```
  0: 0x00AD [0x20] SET_CLI_EVENT_UC_FLAG: Lock player control
  1: 0x00AF [0x42] SET_CLI_EVENT_CANCEL_DATA()
  2: 0x00B0 [0x43] SEND_EVENT_UPDATE: Send pending tag to server (packet 0x005B)
  3: 0x00B2 [0x43] SEND_EVENT_UPDATE: Check pending flag (skip if not pending)
  4: 0x00B4 [0x45] LOAD_SCHEDULED_TASK: Load scheduler "fdo1" with entities [LocalPlayer, LocalPlayer], work=[200*, 0*]
  5: 0x00C5 [0x1C] WAIT(60* ticks)
  6: 0x00C8 [0x29] REQ_SET_WAIT(priority=0x01, entity_id=Weather (ID: 17093424/0x0104D330), tag_num=0x02)
  7: 0x00CF [0x45] LOAD_SCHEDULED_TASK: Load scheduler "fdi1" with entities [LocalPlayer, LocalPlayer], work=[200*, 0*]
  8: 0x00E0 [0x20] SET_CLI_EVENT_UC_FLAG: Unlock player control
  9: 0x00E2 [0x21] END_EVENT
 10: 0x00E3 [0x00] END_REQSTACK()
```
