# Event 65535

## Metadata

| Field           | Value    |
|-----------------|----------|
| Event Index     | 5/5      |
| Offset          | 0x0044   |
| Data Size       | 51 bytes |
| Calculated Size | 51 bytes |
| Instructions    | 13       |

```
      00 01 02 03 04 05 06 07  08 09 0A 0B 0C 0D 0E 0F
      -- -- -- -- -- -- -- --  -- -- -- -- -- -- -- --
0040:             86 01 18 01  10 01 32 04 80 1C 05 80      ......2.....
0050: 1F 00 06 80 07 80 08 80  1F 01 1C 09 80 39 0A 80  .............9..
0060: 1C 05 80 1F 00 06 80 0B  80 08 80 1F 01 1C 09 80  ................
0070: 39 0C 80 01 44 00 00                              9...D..         
```

## Opcodes

```
  0: 0x0044 [0x86] Noan (ID: 17826072/0x01100118)->Render.Flags3 ^= 0x01
  1: 0x004A [0x32] ExtData[1]->MainSpeed = 40* * 0.1
  2: 0x004D [0x1C] WAIT(30* ticks)
  3: 0x0050 [0x1F] MOVE_ENTITY: EventEntity moves to X=23.697*, Z=-58.660*, Y=0.000*
  4: 0x0058 [0x1F] MOVE_ENTITY: Update entity position (mode=1)
  5: 0x005A [0x1C] WAIT(300* ticks)
  6: 0x005D [0x39] SET_ENTITY_DIRECTION(direction=16.9°*)
  7: 0x0060 [0x1C] WAIT(30* ticks)
  8: 0x0063 [0x1F] MOVE_ENTITY: EventEntity moves to X=23.697*, Z=-110.136*, Y=0.000*
  9: 0x006B [0x1F] MOVE_ENTITY: Update entity position (mode=1)
 10: 0x006D [0x1C] WAIT(300* ticks)
 11: 0x0070 [0x39] SET_ENTITY_DIRECTION(direction=5.6°*)
 12: 0x0073 [0x01] GOTO 0x0044
```

## Data or dead code:

```
# Dead code (unreachable instructions):
     0x0076 [0x00] END_REQSTACK()
```