# Event 98

## Metadata

| Field           | Value    |
|-----------------|----------|
| Event Index     | 12/13    |
| Offset          | 0x0798   |
| Data Size       | 40 bytes |
| Calculated Size | 40 bytes |
| Instructions    | 10       |

```
      00 01 02 03 04 05 06 07  08 09 0A 0B 0C 0D 0E 0F
      -- -- -- -- -- -- -- --  -- -- -- -- -- -- -- --
0790:                          03 09 10 1B 80 03 08 10          ........
07A0: 1C 80 1E F0 FF FF 7F 1D  4D 80 23 66 09 80 F8 FF  ........M.#f....
07B0: FF 7F F8 FF FF 7F 74 6C  6B 30 1D 4E 80 23 21 00  ......tlk0.N.#!.
```

## Opcodes

```
  0: 0x0798 [0x03] Work_Zone[9] = 470*
  1: 0x079D [0x03] Work_Zone[8] = 471*
  2: 0x07A2 [0x1E] EventEntity looks at LocalPlayer and starts talking
  3: 0x07A7 [0x1D] PRINT_EVENT_MESSAGE(message_id=10318*)
    → "Long ago, my grandfather hid his \u0001\u00053\u0002\u0006\u0000\u0000 inside a treasure chest deep within the Kuftal Tunnel. After looking at this \u0001\u00053\u0002\u0007\u0000\u0000, I think I can open it now.\u007F1\u0000\u0007"
  4: 0x07AA [0x23] WAIT_FOR_DIALOG_INTERACTION
  5: 0x07AB [0x66] LOAD_EXT_SCHEDULER_MAIN: Load scheduler "tlk0" with entities [EventEntity, EventEntity], work=20*
  6: 0x07BA [0x1D] PRINT_EVENT_MESSAGE(message_id=10319*)
    → "If you bring it to me, I'll give you whatever's inside. What do you say?\u007F1\u0000\u0007"
  7: 0x07BD [0x23] WAIT_FOR_DIALOG_INTERACTION
  8: 0x07BE [0x21] END_EVENT
  9: 0x07BF [0x00] END_REQSTACK()
```
