# 17793042 - Romeo

## Common Data

| Field            | Value             |
|------------------|-------------------|
| Zone             | Selbina (ID: 248) |
| Block Size       | 376 bytes         |
| Total Events     | 5                 |
| References Count | 13                |

## List of Events

| Event ID              | Entrypoint   |   Size |   Instructions |
|-----------------------|--------------|--------|----------------|
| [65535](#event-65535) | 0x0000       |      1 |              1 |
| [20](#event-20)       | 0x0001       |    109 |             23 |
| [22](#event-22)       | 0x006E       |     28 |              8 |
| [21](#event-21)       | 0x008A       |     89 |             18 |
| [23](#event-23)       | 0x00E3       |     60 |             12 |

## DAT References (imed_data)

|   Index | Hex Value   |   Dec Value |
|---------|-------------|-------------|
|       0 | 0x0000      |           0 |
|       1 | 0x1A37      |        6711 |
|       2 | 0x1A38      |        6712 |
|       3 | 0x1A39      |        6713 |
|       4 | 0x1A3A      |        6714 |
|       5 | 0x1A3B      |        6715 |
|       6 | 0x1A3C      |        6716 |
|       7 | 0x000A      |          10 |
|       8 | 0x1A3D      |        6717 |
|       9 | 0x1A3E      |        6718 |
|      10 | 0x1A3F      |        6719 |
|      11 | 0x000B      |          11 |
|      12 | 0x00C9      |         201 |

## String References

- **6711**: Another adventurer in Selbina? I don't know where you come from, but you must be quite resourceful to make it this far out.
- **6712**: These days, folks like you spend every hard-earned gil on shiny new weapons and armor.
- **6713**: And then they just toss out their old onion-gear as if it were rubbish!
- **6714**: Why, my father always scolded me whenever I left trash about! Indeed, a true adventurer would not litter, and neither should you!
- **6715**: That's why I thought of a plan: I'd gather old, worn-out onion equipment and recycle them.
- **6716**: That's where you come in! Bring me five pieces of onion equipment, and I'll reward you for your efforts.
- **6717**: Yes, these will do nicely! Take this as a token of my thanks.
- **6718**: Remember, never just throw anything away. There is always a use for things!
- **6719**: Now, once I get these little onions mended and polished, I'll send them off for sale abroad. I'm sure new recruits will find them useful.

## Events

### Event 65535

#### Metadata

| Field        | Value   |
|--------------|---------|
| Entrypoint   | 0x0000  |
| Data Size    | 1 bytes |
| Instructions | 1       |

```
      00 01 02 03 04 05 06 07  08 09 0A 0B 0C 0D 0E 0F
      -- -- -- -- -- -- -- --  -- -- -- -- -- -- -- --
0000: 00                                                .               
```

#### Opcodes

```
  0: 0x0000 [0x00] END_REQSTACK()
```

### Event 20

#### Metadata

| Field        | Value     |
|--------------|-----------|
| Entrypoint   | 0x0001    |
| Data Size    | 109 bytes |
| Instructions | 23        |

```
      00 01 02 03 04 05 06 07  08 09 0A 0B 0C 0D 0E 0F
      -- -- -- -- -- -- -- --  -- -- -- -- -- -- -- --
0000:    1E F0 FF FF 7F 6F 70  66 00 80 F8 FF FF 7F F8   .....opf.......
0010: FF FF 7F 74 6C 6B 32 1D  01 80 23 1D 02 80 23 53  ...tlk2...#...#S
0020: F8 FF FF 7F F8 FF FF 7F  74 6C 6B 32 66 00 80 F8  ........tlk2f...
0030: FF FF 7F F8 FF FF 7F 74  6C 6B 31 1D 03 80 23 1D  .......tlk1...#.
0040: 04 80 23 53 F8 FF FF 7F  F8 FF FF 7F 74 6C 6B 31  ..#S........tlk1
0050: 66 00 80 F8 FF FF 7F F8  FF FF 7F 74 6C 6B 30 1D  f..........tlk0.
0060: 05 80 23 1D 06 80 23 03  01 10 07 80 21 00        ..#...#.....!.  
```

#### Opcodes

```
  0: 0x0001 [0x1E] EventEntity looks at LocalPlayer and starts talking
  1: 0x0006 [0x6F] WAIT_FRAME_DELAY: Yield until WaitTime reaches zero
  2: 0x0007 [0x70] WAIT_ENTITY_RENDER_FLAG: Wait while EventEntity->Render.Flags3 bit 2 is set (cancel turn if not)
  3: 0x0008 [0x66] LOAD_EXT_SCHEDULER_MAIN: Load scheduler "tlk2" with entities [EventEntity, EventEntity], work=0*
  4: 0x0017 [0x1D] PRINT_EVENT_MESSAGE(message_id=6711*)
    → "Another adventurer in Selbina? I don't know where you come from, but you must be quite resourceful to make it this far out."
  5: 0x001A [0x23] WAIT_FOR_DIALOG_INTERACTION
  6: 0x001B [0x1D] PRINT_EVENT_MESSAGE(message_id=6712*)
    → "These days, folks like you spend every hard-earned gil on shiny new weapons and armor."
  7: 0x001E [0x23] WAIT_FOR_DIALOG_INTERACTION
  8: 0x001F [0x53] WAIT_SCHEDULER_TASK: Wait for scheduler "tlk2" with entities [EventEntity, EventEntity]
  9: 0x002C [0x66] LOAD_EXT_SCHEDULER_MAIN: Load scheduler "tlk1" with entities [EventEntity, EventEntity], work=0*
 10: 0x003B [0x1D] PRINT_EVENT_MESSAGE(message_id=6713*)
    → "And then they just toss out their old onion-gear as if it were rubbish!"
 11: 0x003E [0x23] WAIT_FOR_DIALOG_INTERACTION
 12: 0x003F [0x1D] PRINT_EVENT_MESSAGE(message_id=6714*)
    → "Why, my father always scolded me whenever I left trash about! Indeed, a true adventurer would not litter, and neither should you!"
 13: 0x0042 [0x23] WAIT_FOR_DIALOG_INTERACTION
 14: 0x0043 [0x53] WAIT_SCHEDULER_TASK: Wait for scheduler "tlk1" with entities [EventEntity, EventEntity]
 15: 0x0050 [0x66] LOAD_EXT_SCHEDULER_MAIN: Load scheduler "tlk0" with entities [EventEntity, EventEntity], work=0*
 16: 0x005F [0x1D] PRINT_EVENT_MESSAGE(message_id=6715*)
    → "That's why I thought of a plan: I'd gather old, worn-out onion equipment and recycle them."
 17: 0x0062 [0x23] WAIT_FOR_DIALOG_INTERACTION
 18: 0x0063 [0x1D] PRINT_EVENT_MESSAGE(message_id=6716*)
    → "That's where you come in! Bring me five pieces of onion equipment, and I'll reward you for your efforts."
 19: 0x0066 [0x23] WAIT_FOR_DIALOG_INTERACTION
 20: 0x0067 [0x03] Work_Zone[1] = 10*
 21: 0x006C [0x21] END_EVENT
 22: 0x006D [0x00] END_REQSTACK()
```

### Event 22

#### Metadata

| Field        | Value    |
|--------------|----------|
| Entrypoint   | 0x006E   |
| Data Size    | 28 bytes |
| Instructions | 8        |

```
      00 01 02 03 04 05 06 07  08 09 0A 0B 0C 0D 0E 0F
      -- -- -- -- -- -- -- --  -- -- -- -- -- -- -- --
0060:                                            1E F0                ..
0070: FF FF 7F 6F 70 66 00 80  F8 FF FF 7F F8 FF FF 7F  ...opf..........
0080: 74 6C 6B 30 1D 06 80 23  21 00                    tlk0...#!.      
```

#### Opcodes

```
  0: 0x006E [0x1E] EventEntity looks at LocalPlayer and starts talking
  1: 0x0073 [0x6F] WAIT_FRAME_DELAY: Yield until WaitTime reaches zero
  2: 0x0074 [0x70] WAIT_ENTITY_RENDER_FLAG: Wait while EventEntity->Render.Flags3 bit 2 is set (cancel turn if not)
  3: 0x0075 [0x66] LOAD_EXT_SCHEDULER_MAIN: Load scheduler "tlk0" with entities [EventEntity, EventEntity], work=0*
  4: 0x0084 [0x1D] PRINT_EVENT_MESSAGE(message_id=6716*)
    → "That's where you come in! Bring me five pieces of onion equipment, and I'll reward you for your efforts."
  5: 0x0087 [0x23] WAIT_FOR_DIALOG_INTERACTION
  6: 0x0088 [0x21] END_EVENT
  7: 0x0089 [0x00] END_REQSTACK()
```

### Event 21

#### Metadata

| Field        | Value    |
|--------------|----------|
| Entrypoint   | 0x008A   |
| Data Size    | 89 bytes |
| Instructions | 18       |

```
      00 01 02 03 04 05 06 07  08 09 0A 0B 0C 0D 0E 0F
      -- -- -- -- -- -- -- --  -- -- -- -- -- -- -- --
0080:                                42 20 01 1E F0 FF            B ....
0090: FF 7F 6F 70 66 00 80 F8  FF FF 7F F8 FF FF 7F 74  ..opf..........t
00A0: 6C 6B 31 1D 08 80 23 1D  09 80 23 53 F8 FF FF 7F  lk1...#...#S....
00B0: F8 FF FF 7F 74 6C 6B 31  66 00 80 F8 FF FF 7F F8  ....tlk1f.......
00C0: FF FF 7F 74 6C 6B 32 1D  0A 80 23 03 01 10 0B 80  ...tlk2...#.....
00D0: 45 0C 80 F0 FF FF 7F F0  FF FF 7F 71 73 74 63 00  E..........qstc.
00E0: 80 21 00                                          .!.             
```

#### Opcodes

```
  0: 0x008A [0x42] SET_CLI_EVENT_CANCEL_DATA()
  1: 0x008B [0x20] SET_CLI_EVENT_UC_FLAG: Lock player control
  2: 0x008D [0x1E] EventEntity looks at LocalPlayer and starts talking
  3: 0x0092 [0x6F] WAIT_FRAME_DELAY: Yield until WaitTime reaches zero
  4: 0x0093 [0x70] WAIT_ENTITY_RENDER_FLAG: Wait while EventEntity->Render.Flags3 bit 2 is set (cancel turn if not)
  5: 0x0094 [0x66] LOAD_EXT_SCHEDULER_MAIN: Load scheduler "tlk1" with entities [EventEntity, EventEntity], work=0*
  6: 0x00A3 [0x1D] PRINT_EVENT_MESSAGE(message_id=6717*)
    → "Yes, these will do nicely! Take this as a token of my thanks."
  7: 0x00A6 [0x23] WAIT_FOR_DIALOG_INTERACTION
  8: 0x00A7 [0x1D] PRINT_EVENT_MESSAGE(message_id=6718*)
    → "Remember, never just throw anything away. There is always a use for things!"
  9: 0x00AA [0x23] WAIT_FOR_DIALOG_INTERACTION
 10: 0x00AB [0x53] WAIT_SCHEDULER_TASK: Wait for scheduler "tlk1" with entities [EventEntity, EventEntity]
 11: 0x00B8 [0x66] LOAD_EXT_SCHEDULER_MAIN: Load scheduler "tlk2" with entities [EventEntity, EventEntity], work=0*
 12: 0x00C7 [0x1D] PRINT_EVENT_MESSAGE(message_id=6719*)
    → "Now, once I get these little onions mended and polished, I'll send them off for sale abroad. I'm sure new recruits will find them useful."
 13: 0x00CA [0x23] WAIT_FOR_DIALOG_INTERACTION
 14: 0x00CB [0x03] Work_Zone[1] = 11*
 15: 0x00D0 [0x45] LOAD_SCHEDULED_TASK: Load scheduler "qstc" with entities [LocalPlayer, LocalPlayer], work=[201*, 0*]
 16: 0x00E1 [0x21] END_EVENT
 17: 0x00E2 [0x00] END_REQSTACK()
```

### Event 23

#### Metadata

| Field        | Value    |
|--------------|----------|
| Entrypoint   | 0x00E3   |
| Data Size    | 60 bytes |
| Instructions | 12       |

```
      00 01 02 03 04 05 06 07  08 09 0A 0B 0C 0D 0E 0F
      -- -- -- -- -- -- -- --  -- -- -- -- -- -- -- --
00E0:          1E F0 FF FF 7F  6F 70 66 00 80 F8 FF FF     .....opf.....
00F0: 7F F8 FF FF 7F 74 6C 6B  32 1D 04 80 23 53 F8 FF  .....tlk2...#S..
0100: FF 7F F8 FF FF 7F 74 6C  6B 32 66 00 80 F8 FF FF  ......tlk2f.....
0110: 7F F8 FF FF 7F 74 6C 6B  31 1D 09 80 23 21 00     .....tlk1...#!. 
```

#### Opcodes

```
  0: 0x00E3 [0x1E] EventEntity looks at LocalPlayer and starts talking
  1: 0x00E8 [0x6F] WAIT_FRAME_DELAY: Yield until WaitTime reaches zero
  2: 0x00E9 [0x70] WAIT_ENTITY_RENDER_FLAG: Wait while EventEntity->Render.Flags3 bit 2 is set (cancel turn if not)
  3: 0x00EA [0x66] LOAD_EXT_SCHEDULER_MAIN: Load scheduler "tlk2" with entities [EventEntity, EventEntity], work=0*
  4: 0x00F9 [0x1D] PRINT_EVENT_MESSAGE(message_id=6714*)
    → "Why, my father always scolded me whenever I left trash about! Indeed, a true adventurer would not litter, and neither should you!"
  5: 0x00FC [0x23] WAIT_FOR_DIALOG_INTERACTION
  6: 0x00FD [0x53] WAIT_SCHEDULER_TASK: Wait for scheduler "tlk2" with entities [EventEntity, EventEntity]
  7: 0x010A [0x66] LOAD_EXT_SCHEDULER_MAIN: Load scheduler "tlk1" with entities [EventEntity, EventEntity], work=0*
  8: 0x0119 [0x1D] PRINT_EVENT_MESSAGE(message_id=6718*)
    → "Remember, never just throw anything away. There is always a use for things!"
  9: 0x011C [0x23] WAIT_FOR_DIALOG_INTERACTION
 10: 0x011D [0x21] END_EVENT
 11: 0x011E [0x00] END_REQSTACK()
```
