# 17793143

## Common Data

| Field            | Value             |
|------------------|-------------------|
| Zone             | Selbina (ID: 248) |
| Block Size       | 3764 bytes        |
| Total Events     | 13                |
| References Count | 97                |

## List of Events

| Event ID              | Entrypoint   |   Size |   Instructions |
|-----------------------|--------------|--------|----------------|
| [65535](#event-65535) | 0x0000       |      1 |              1 |
| [10024](#event-10024) | 0x0001       |   1375 |            202 |
| [10025](#event-10025) | 0x0560       |    515 |             99 |
| [10033](#event-10033) | 0x0763       |    377 |             80 |
| [10026](#event-10026) | 0x08DC       |    101 |             22 |
| [10027](#event-10027) | 0x0941       |    101 |             22 |
| [10028](#event-10028) | 0x09A6       |    101 |             22 |
| [10029](#event-10029) | 0x0A0B       |    101 |             22 |
| [10030](#event-10030) | 0x0A70       |    101 |             22 |
| [10034](#event-10034) | 0x0AD5       |     43 |             11 |
| [10035](#event-10035) | 0x0B00       |     87 |             18 |
| [10023](#event-10023) | 0x0B57       |     43 |             11 |
| [10022](#event-10022) | 0x0B82       |    359 |             62 |

## DAT References (imed_data)

|   Index | Hex Value   |   Dec Value |
|---------|-------------|-------------|
|       0 | 0x00C8      |         200 |
|       1 | 0x0000      |           0 |
|       2 | 0x001B      |          27 |
|       3 | 0x01E1      |         481 |
|       4 | 0x6FDF      |       28639 |
|       5 | 0x1DD9      |        7641 |
|       6 | 0xFFFFE662  |  4294960738 |
|       7 | 0x07FF      |        2047 |
|       8 | 0x4661      |       18017 |
|       9 | 0x299C      |       10652 |
|      10 | 0xFFFFE389  |  4294960009 |
|      11 | 0x0E4B      |        3659 |
|      12 | 0x02C6      |         710 |
|      13 | 0x000F      |          15 |
|      14 | 0x0078      |         120 |
|      15 | 0x0014      |          20 |
|      16 | 0x1F08      |        7944 |
|      17 | 0x003C      |          60 |
|      18 | 0x0082      |         130 |
|      19 | 0x1F09      |        7945 |
|      20 | 0x0046      |          70 |
|      21 | 0x1F0A      |        7946 |
|      22 | 0x1F0B      |        7947 |
|      23 | 0x1F0C      |        7948 |
|      24 | 0x1F0D      |        7949 |
|      25 | 0x1F0E      |        7950 |
|      26 | 0x1F0F      |        7951 |
|      27 | 0x693A      |       26938 |
|      28 | 0x1F10      |        7952 |
|      29 | 0x1F11      |        7953 |
|      30 | 0x001E      |          30 |
|      31 | 0x0005      |           5 |
|      32 | 0x0006      |           6 |
|      33 | 0x1F12      |        7954 |
|      34 | 0x1F13      |        7955 |
|      35 | 0x0002      |           2 |
|      36 | 0x0004      |           4 |
|      37 | 0x0007      |           7 |
|      38 | 0x1F14      |        7956 |
|      39 | 0x0032      |          50 |
|      40 | 0x1F15      |        7957 |
|      41 | 0x1F16      |        7958 |
|      42 | 0x1F17      |        7959 |
|      43 | 0x0003      |           3 |
|      44 | 0x0008      |           8 |
|      45 | 0x0001      |           1 |
|      46 | 0x1F18      |        7960 |
|      47 | 0x1F19      |        7961 |
|      48 | 0x00C9      |         201 |
|      49 | 0x1F1B      |        7963 |
|      50 | 0x689C      |       26780 |
|      51 | 0x69D4      |       27092 |
|      52 | 0x6A8D      |       27277 |
|      53 | 0x6B3B      |       27451 |
|      54 | 0x1F1C      |        7964 |
|      55 | 0x1F1D      |        7965 |
|      56 | 0x1F1E      |        7966 |
|      57 | 0x0521      |        1313 |
|      58 | 0x02AD      |         685 |
|      59 | 0x050E      |        1294 |
|      60 | 0x0937      |        2359 |
|      61 | 0x1F1F      |        7967 |
|      62 | 0x1F20      |        7968 |
|      63 | 0x088D      |        2189 |
|      64 | 0x1F21      |        7969 |
|      65 | 0x1F22      |        7970 |
|      66 | 0x000A      |          10 |
|      67 | 0x1F23      |        7971 |
|      68 | 0x1F24      |        7972 |
|      69 | 0x0019      |          25 |
|      70 | 0x0CD8      |        3288 |
|      71 | 0x1F27      |        7975 |
|      72 | 0x1F28      |        7976 |
|      73 | 0x1F29      |        7977 |
|      74 | 0x1F25      |        7973 |
|      75 | 0x1F26      |        7974 |
|      76 | 0x225E      |        8798 |
|      77 | 0x1F2A      |        7978 |
|      78 | 0x1F2B      |        7979 |
|      79 | 0x1F2C      |        7980 |
|      80 | 0x1F2D      |        7981 |
|      81 | 0x0009      |           9 |
|      82 | 0x1F2E      |        7982 |
|      83 | 0x1F2F      |        7983 |
|      84 | 0x1F30      |        7984 |
|      85 | 0x1F1A      |        7962 |
|      86 | 0x1F07      |        7943 |
|      87 | 0x02C5      |         709 |
|      88 | 0x1F00      |        7936 |
|      89 | 0x0AEA      |        2794 |
|      90 | 0x0AEE      |        2798 |
|      91 | 0x1F01      |        7937 |
|      92 | 0x1F03      |        7939 |
|      93 | 0x1F04      |        7940 |
|      94 | 0x1F05      |        7941 |
|      95 | 0x1F06      |        7942 |
|      96 | 0x1F02      |        7938 |

## String References

- **7937**: Give her Hostenn's effects? [Here you go./No. I want to hold onto them.]
- **7983**: Have Helina craft $0? [Yes, please./No, thank you.]

## Events

### Event 65535

#### Metadata

| Field        | Value   |
|--------------|---------|
| Entrypoint   | 0x0000  |
| Data Size    | 1 bytes |
| Instructions | 1       |

```
      00 01 02 03 04 05 06 07  08 09 0A 0B 0C 0D 0E 0F
      -- -- -- -- -- -- -- --  -- -- -- -- -- -- -- --
0000: 00                                                .               
```

#### Opcodes

```
  0: 0x0000 [0x00] END_REQSTACK()
```

### Event 10024

#### Metadata

| Field        | Value      |
|--------------|------------|
| Entrypoint   | 0x0001     |
| Data Size    | 1375 bytes |
| Instructions | 202        |

```
      00 01 02 03 04 05 06 07  08 09 0A 0B 0C 0D 0E 0F
      -- -- -- -- -- -- -- --  -- -- -- -- -- -- -- --
0000:    42 45 00 80 F0 FF FF  7F F0 FF FF 7F 66 64 6F   BE..........fdo
0010: 31 01 80 55 00 80 F0 FF  FF 7F F0 FF FF 7F 66 64  1..U..........fd
0020: 6F 31 46 01 38 02 80 75  00 03 80 75 01 4E 00 F0  o1F.8..u...u.N..
0030: FF FF 7F 4E 00 79 80 0F  01 2F 00 79 80 0F 01 94  ...N.y.../.y....
0040: 01 78 80 0F 01 94 01 79  80 0F 01 94 01 F0 FF FF  .x.....y........
0050: 7F 92 01 78 80 0F 01 92  01 79 80 0F 01 BA 79 80  ...x.....y....y.
0060: 0F 01 04 80 05 80 06 80  07 80 BA F0 FF FF 7F 08  ................
0070: 80 09 80 0A 80 0B 80 80  78 80 0F 01 80 79 80 0F  ........x....y..
0080: 01 80 F0 FF FF 7F 4A F0  FF FF 7F 78 80 0F 01 45  ......J....x...E
0090: 0C 80 F8 FF FF 7F F8 FF  FF 7F 73 30 34 32 01 80  ..........s042..
00A0: 1C 0D 80 45 00 80 F0 FF  FF 7F F0 FF FF 7F 66 64  ...E..........fd
00B0: 69 31 01 80 1C 0E 80 4A  78 80 0F 01 F0 FF FF 7F  i1.....Jx.......
00C0: 6F 76 78 80 0F 01 1C 0F  80 27 08 78 80 0F 01 15  ovx......'.x....
00D0: 2B 78 80 0F 01 10 80 2A  08 78 80 0F 01 23 27 08  +x.....*.x...#'.
00E0: 79 80 0F 01 16 1C 11 80  52 0C 80 F8 FF FF 7F F8  y.......R.......
00F0: FF FF 7F 73 30 34 32 45  0C 80 F8 FF FF 7F F8 FF  ...s042E........
0100: FF 7F 73 30 34 34 01 80  1C 12 80 2A 08 79 80 0F  ..s044.....*.y..
0110: 01 52 0C 80 F8 FF FF 7F  F8 FF FF 7F 73 30 34 34  .R..........s044
0120: 45 0C 80 F8 FF FF 7F F8  FF FF 7F 73 30 34 33 01  E..........s043.
0130: 80 29 08 34 80 0F 01 05  29 08 79 80 0F 01 17 52  .).4....).y....R
0140: 0C 80 F8 FF FF 7F F8 FF  FF 7F 73 30 34 33 45 0C  ..........s043E.
0150: 80 F8 FF FF 7F F8 FF FF  7F 73 30 34 35 01 80 2B  .........s045..+
0160: 79 80 0F 01 13 80 4A F0  FF FF 7F 79 80 0F 01 4A  y.....J....y...J
0170: 78 80 0F 01 79 80 0F 01  1C 14 80 27 08 34 80 0F  x...y......'.4..
0180: 01 06 23 2B 79 80 0F 01  15 80 1C 11 80 23 4A 79  ..#+y........#Jy
0190: 80 0F 01 78 80 0F 01 52  0C 80 F8 FF FF 7F F8 FF  ...x...R........
01A0: FF 7F 73 30 34 35 45 0C  80 F8 FF FF 7F F8 FF FF  ..s045E.........
01B0: 7F 73 30 34 36 01 80 6F  76 79 80 0F 01 27 08 79  .s046..ovy...'.y
01C0: 80 0F 01 15 2B 79 80 0F  01 16 80 2A 08 79 80 0F  ....+y.....*.y..
01D0: 01 23 2B 79 80 0F 01 17  80 1C 11 80 23 4A F0 FF  .#+y........#J..
01E0: FF 7F 78 80 0F 01 1C 0F  80 52 0C 80 F8 FF FF 7F  ..x......R......
01F0: F8 FF FF 7F 73 30 34 36  45 0C 80 F8 FF FF 7F F8  ....s046E.......
0200: FF FF 7F 73 30 34 37 01  80 6F 76 F0 FF FF 7F 27  ...s047..ov....'
0210: 08 78 80 0F 01 15 2B 78  80 0F 01 18 80 2A 08 78  .x....+x.....*.x
0220: 80 0F 01 23 27 08 78 80  0F 01 0E 2B 78 80 0F 01  ...#'.x....+x...
0230: 19 80 23 2B 78 80 0F 01  1A 80 23 2A 08 78 80 0F  ..#+x.....#*.x..
0240: 01 23 03 02 10 1B 80 2B  78 80 0F 01 1C 80 23 27  .#.....+x.....#'
0250: 08 78 80 0F 01 0F 2B 78  80 0F 01 1D 80 2A 08 78  .x....+x.....*.x
0260: 80 0F 01 23 1C 1E 80 4A  78 80 0F 01 F0 FF FF 7F  ...#...Jx.......
0270: 52 0C 80 F8 FF FF 7F F8  FF FF 7F 73 30 34 37 02  R..........s047.
0280: 87 7F 1F 80 80 9B 02 45  0C 80 F8 FF FF 7F F8 FF  .......E........
0290: FF 7F 73 30 34 39 01 80  01 C8 02 02 87 7F 20 80  ..s049........ .
02A0: 80 B7 02 45 0C 80 F8 FF  FF 7F F8 FF FF 7F 73 30  ...E..........s0
02B0: 34 39 01 80 01 C8 02 45  0C 80 F8 FF FF 7F F8 FF  49.....E........
02C0: FF 7F 73 30 34 38 01 80  6F 76 78 80 0F 01 1C 0F  ..s048..ovx.....
02D0: 80 4A 79 80 0F 01 F0 FF  FF 7F 6F 76 79 80 0F 01  .Jy.......ovy...
02E0: 2B 78 80 0F 01 21 80 1C  11 80 23 27 08 79 80 0F  +x...!....#'.y..
02F0: 01 14 03 02 10 1B 80 2B  79 80 0F 01 22 80 1C 14  .......+y..."...
0300: 80 4A F0 FF FF 7F 79 80  0F 01 6F 76 F0 FF FF 7F  .J....y...ov....
0310: 2A 08 79 80 0F 01 23 4A  79 80 0F 01 78 80 0F 01  *.y...#Jy...x...
0320: 52 0C 80 F8 FF FF 7F F8  FF FF 7F 73 30 34 38 52  R..........s048R
0330: 0C 80 F8 FF FF 7F F8 FF  FF 7F 73 30 34 39 45 0C  ..........s049E.
0340: 80 F8 FF FF 7F F8 FF FF  7F 73 30 34 39 01 80 6F  .........s049..o
0350: 76 79 80 0F 01 02 87 7F  23 80 80 63 03 05 02 10  vy......#..c....
0360: 01 90 03 02 87 7F 24 80  80 71 03 05 02 10 01 90  ......$..q......
0370: 03 02 87 7F 20 80 80 7F  03 05 02 10 01 90 03 02  .... ...........
0380: 87 7F 25 80 80 8D 03 05  02 10 01 90 03 06 02 10  ..%.............
0390: 2B 79 80 0F 01 26 80 1C  0F 80 4A 78 80 0F 01 79  +y...&....Jx...y
03A0: 80 0F 01 6F 76 78 80 0F  01 1C 27 80 23 27 08 79  ...ovx....'.#'.y
03B0: 80 0F 01 07 2B 79 80 0F  01 28 80 23 2B 79 80 0F  ....+y...(.#+y..
03C0: 01 29 80 2A 08 79 80 0F  01 23 27 08 79 80 0F 01  .).*.y...#'.y...
03D0: 08 27 08 78 80 0F 01 15  2B 78 80 0F 01 2A 80 2A  .'.x....+x...*.*
03E0: 08 78 80 0F 01 2A 08 79  80 0F 01 23 4A 78 80 0F  .x...*.y...#Jx..
03F0: 01 F0 FF FF 7F 52 0C 80  F8 FF FF 7F F8 FF FF 7F  .....R..........
0400: 73 30 34 39 02 87 7F 2B  80 80 20 04 45 0C 80 F8  s049...+.. .E...
0410: FF FF 7F F8 FF FF 7F 73  30 35 30 01 80 01 A1 04  .......s050.....
0420: 02 87 7F 24 80 80 3C 04  45 0C 80 F8 FF FF 7F F8  ...$..<.E.......
0430: FF FF 7F 73 30 35 30 01  80 01 A1 04 02 87 7F 1F  ...s050.........
0440: 80 80 58 04 45 0C 80 F8  FF FF 7F F8 FF FF 7F 73  ..X.E..........s
0450: 30 35 32 01 80 01 A1 04  02 87 7F 20 80 80 74 04  052........ ..t.
0460: 45 0C 80 F8 FF FF 7F F8  FF FF 7F 73 30 35 32 01  E..........s052.
0470: 80 01 A1 04 02 87 7F 2C  80 80 90 04 45 0C 80 F8  .......,....E...
0480: FF FF 7F F8 FF FF 7F 73  30 35 30 01 80 01 A1 04  .......s050.....
0490: 45 0C 80 F8 FF FF 7F F8  FF FF 7F 73 30 35 31 01  E..........s051.
04A0: 80 6F 76 78 80 0F 01 1C  0F 80 4A F0 FF FF 7F 78  .ovx......J....x
04B0: 80 0F 01 6F 76 F0 FF FF  7F 03 02 10 2D 80 27 08  ...ov.......-.'.
04C0: 78 80 0F 01 14 2B 78 80  0F 01 2E 80 23 2B 78 80  x....+x.....#+x.
04D0: 0F 01 2F 80 2A 08 78 80  0F 01 23 45 00 80 F0 FF  ../.*.x...#E....
04E0: FF 7F F0 FF FF 7F 66 64  6F 31 01 80 55 00 80 F0  ......fdo1..U...
04F0: FF FF 7F F0 FF FF 7F 66  64 6F 31 52 0C 80 F8 FF  .......fdo1R....
0500: FF 7F F8 FF FF 7F 73 30  35 30 52 0C 80 F8 FF FF  ......s050R.....
0510: 7F F8 FF FF 7F 73 30 35  31 52 0C 80 F8 FF FF 7F  .....s051R......
0520: F8 FF FF 7F 73 30 35 32  4E 01 79 80 0F 01 1C 0D  ....s052N.y.....
0530: 80 AB 11 01 80 1C 2D 80  AB 0A 46 00 45 00 80 F0  ......-...F.E...
0540: FF FF 7F F0 FF FF 7F 66  64 69 32 01 80 45 30 80  .......fdi2..E0.
0550: F0 FF FF 7F F0 FF FF 7F  71 73 74 63 01 80 21 00  ........qstc..!.
```

#### Opcodes

```
  0: 0x0001 [0x42] SET_CLI_EVENT_CANCEL_DATA()
  1: 0x0002 [0x45] LOAD_SCHEDULED_TASK: Load scheduler "fdo1" with entities [LocalPlayer, LocalPlayer], work=[200*, 0*]
  2: 0x0013 [0x55] WAIT_LOAD_SCHEDULER: Wait for scheduler "fdo1" with entities [LocalPlayer, LocalPlayer], work=200*
  3: 0x0022 [0x46] CAMERA_CONTROL: Disable user control
  4: 0x0024 [0x38] SET_CLIENT_EVENT_MODE(mode=27*)
  5: 0x0027 [0x75] LOAD_ROOM(Load indoor room, room=481*)
  6: 0x002B [0x75] LOAD_ROOM(No action)
  7: 0x002D [0x4E] SET_ENTITY_HIDE_FLAG: Show LocalPlayer
  8: 0x0033 [0x4E] SET_ENTITY_HIDE_FLAG: Show Sylvie (ID: 17793145/0x010F8079)
  9: 0x0039 [0x2F] Sylvie (ID: 17793145/0x010F8079)->Render.Flags0 &= ~0x80000 // Bit 19
 10: 0x003F [0x94] Helina (ID: 17793144/0x010F8078)->Render.Flags3 ^= 0x01
 11: 0x0045 [0x94] Sylvie (ID: 17793145/0x010F8079)->Render.Flags3 ^= 0x01
 12: 0x004B [0x94] LocalPlayer->Render.Flags3 ^= 0x01
 13: 0x0051 [0x92] Helina (ID: 17793144/0x010F8078)->Render.Flags3 ^= 0x01
 14: 0x0057 [0x92] Sylvie (ID: 17793145/0x010F8079)->Render.Flags3 ^= 0x01
 15: 0x005D [0xBA] SET_ENTITY_POSITION(entity_id=Sylvie (ID: 17793145/0x010F8079), pos_x=28.639*, pos_z=7.641*, pos_y=-6.558*, direction=179.9°*)
 16: 0x006A [0xBA] SET_ENTITY_POSITION(entity_id=LocalPlayer, pos_x=18.017*, pos_z=10.652*, pos_y=-7.287*, direction=321.6°*)
 17: 0x0077 [0x80] LOAD_WAIT(entity=Helina (ID: 17793144/0x010F8078))
 18: 0x007C [0x80] LOAD_WAIT(entity=Sylvie (ID: 17793145/0x010F8079))
 19: 0x0081 [0x80] LOAD_WAIT(entity=LocalPlayer)
 20: 0x0086 [0x4A] LocalPlayer looks at Helina (ID: 17793144/0x010F8078)
 21: 0x008F [0x45] LOAD_SCHEDULED_TASK: Load scheduler "s042" with entities [EventEntity, EventEntity], work=[710*, 0*]
 22: 0x00A0 [0x1C] WAIT(15* ticks)
 23: 0x00A3 [0x45] LOAD_SCHEDULED_TASK: Load scheduler "fdi1" with entities [LocalPlayer, LocalPlayer], work=[200*, 0*]
 24: 0x00B4 [0x1C] WAIT(120* ticks)
 25: 0x00B7 [0x4A] Helina (ID: 17793144/0x010F8078) looks at LocalPlayer
 26: 0x00C0 [0x6F] WAIT_FRAME_DELAY: Yield until WaitTime reaches zero
 27: 0x00C1 [0x76] CHECK_ENTITY_RENDER_FLAGS: Wait until Helina (ID: 17793144/0x010F8078) Render.Flags0 and Render.Flags3 conditions are met
 28: 0x00C6 [0x1C] WAIT(20* ticks)
 29: 0x00C9 [0x27] REQ_SET(priority=0x08, entity_id=Helina (ID: 17793144/0x010F8078), tag_num=0x15)
 30: 0x00D0 [0x2B] Helina (ID: 17793144/0x010F8078) [7944*]:
    → "Here you are, my geomancer friend. Fine work, if I do say so myself."
 31: 0x00D7 [0x2A] GET_REQ_LEVEL(level=8, entity_id=Helina (ID: 17793144/0x010F8078))
 32: 0x00DD [0x23] WAIT_FOR_DIALOG_INTERACTION
 33: 0x00DE [0x27] REQ_SET(priority=0x08, entity_id=Sylvie (ID: 17793145/0x010F8079), tag_num=0x16)
 34: 0x00E5 [0x1C] WAIT(60* ticks)
 35: 0x00E8 [0x52] END_LOAD_SCHEDULER: End scheduler "s042" with entities [EventEntity, EventEntity], work=710*
 36: 0x00F7 [0x45] LOAD_SCHEDULED_TASK: Load scheduler "s044" with entities [EventEntity, EventEntity], work=[710*, 0*]
 37: 0x0108 [0x1C] WAIT(130* ticks)
 38: 0x010B [0x2A] GET_REQ_LEVEL(level=8, entity_id=Sylvie (ID: 17793145/0x010F8079))
 39: 0x0111 [0x52] END_LOAD_SCHEDULER: End scheduler "s044" with entities [EventEntity, EventEntity], work=710*
 40: 0x0120 [0x45] LOAD_SCHEDULED_TASK: Load scheduler "s043" with entities [EventEntity, EventEntity], work=[710*, 0*]
 41: 0x0131 [0x29] REQ_SET_WAIT(priority=0x08, entity_id=Door:Weavers' Guild (ID: 17793076/0x010F8034), tag_num=0x05)
 42: 0x0138 [0x29] REQ_SET_WAIT(priority=0x08, entity_id=Sylvie (ID: 17793145/0x010F8079), tag_num=0x17)
 43: 0x013F [0x52] END_LOAD_SCHEDULER: End scheduler "s043" with entities [EventEntity, EventEntity], work=710*
 44: 0x014E [0x45] LOAD_SCHEDULED_TASK: Load scheduler "s045" with entities [EventEntity, EventEntity], work=[710*, 0*]
 45: 0x015F [0x2B] Sylvie (ID: 17793145/0x010F8079) [7945*]:
    → "<Player>!"
 46: 0x0166 [0x4A] LocalPlayer looks at Sylvie (ID: 17793145/0x010F8079)
 47: 0x016F [0x4A] Helina (ID: 17793144/0x010F8078) looks at Sylvie (ID: 17793145/0x010F8079)
 48: 0x0178 [0x1C] WAIT(70* ticks)
 49: 0x017B [0x27] REQ_SET(priority=0x08, entity_id=Door:Weavers' Guild (ID: 17793076/0x010F8034), tag_num=0x06)
 50: 0x0182 [0x23] WAIT_FOR_DIALOG_INTERACTION
 51: 0x0183 [0x2B] Sylvie (ID: 17793145/0x010F8079) [7946*]:
    → "I got special permission from Ikhi to make the trip down here, and boy, are my legs tired!"
 52: 0x018A [0x1C] WAIT(60* ticks)
 53: 0x018D [0x23] WAIT_FOR_DIALOG_INTERACTION
 54: 0x018E [0x4A] Sylvie (ID: 17793145/0x010F8079) looks at Helina (ID: 17793144/0x010F8078)
 55: 0x0197 [0x52] END_LOAD_SCHEDULER: End scheduler "s045" with entities [EventEntity, EventEntity], work=710*
 56: 0x01A6 [0x45] LOAD_SCHEDULED_TASK: Load scheduler "s046" with entities [EventEntity, EventEntity], work=[710*, 0*]
 57: 0x01B7 [0x6F] WAIT_FRAME_DELAY: Yield until WaitTime reaches zero
 58: 0x01B8 [0x76] CHECK_ENTITY_RENDER_FLAGS: Wait until Sylvie (ID: 17793145/0x010F8079) Render.Flags0 and Render.Flags3 conditions are met
 59: 0x01BD [0x27] REQ_SET(priority=0x08, entity_id=Sylvie (ID: 17793145/0x010F8079), tag_num=0x15)
 60: 0x01C4 [0x2B] Sylvie (ID: 17793145/0x010F8079) [7947*]:
    → "Ah, pardon me. The name's Sylvie. I am one of Zacariah's descendants."
 61: 0x01CB [0x2A] GET_REQ_LEVEL(level=8, entity_id=Sylvie (ID: 17793145/0x010F8079))
 62: 0x01D1 [0x23] WAIT_FOR_DIALOG_INTERACTION
 63: 0x01D2 [0x2B] Sylvie (ID: 17793145/0x010F8079) [7948*]:
    → "I understand that you're the one who crafted these beautiful garments."
 64: 0x01D9 [0x1C] WAIT(60* ticks)
 65: 0x01DC [0x23] WAIT_FOR_DIALOG_INTERACTION
 66: 0x01DD [0x4A] LocalPlayer looks at Helina (ID: 17793144/0x010F8078)
 67: 0x01E6 [0x1C] WAIT(20* ticks)
 68: 0x01E9 [0x52] END_LOAD_SCHEDULER: End scheduler "s046" with entities [EventEntity, EventEntity], work=710*
 69: 0x01F8 [0x45] LOAD_SCHEDULED_TASK: Load scheduler "s047" with entities [EventEntity, EventEntity], work=[710*, 0*]
 70: 0x0209 [0x6F] WAIT_FRAME_DELAY: Yield until WaitTime reaches zero
 71: 0x020A [0x76] CHECK_ENTITY_RENDER_FLAGS: Wait until LocalPlayer Render.Flags0 and Render.Flags3 conditions are met
 72: 0x020F [0x27] REQ_SET(priority=0x08, entity_id=Helina (ID: 17793144/0x010F8078), tag_num=0x15)
 73: 0x0216 [0x2B] Helina (ID: 17793144/0x010F8078) [7949*]:
    → "I am, and I consider it an honor to be able to work with such ancient, almost-forgotten weaving methods."
 74: 0x021D [0x2A] GET_REQ_LEVEL(level=8, entity_id=Helina (ID: 17793144/0x010F8078))
 75: 0x0223 [0x23] WAIT_FOR_DIALOG_INTERACTION
 76: 0x0224 [0x27] REQ_SET(priority=0x08, entity_id=Helina (ID: 17793144/0x010F8078), tag_num=0x0E)
 77: 0x022B [0x2B] Helina (ID: 17793144/0x010F8078) [7950*]:
    → "The vibrant blue hue of the cloth...the bottomless depth of directional magic."
 78: 0x0232 [0x23] WAIT_FOR_DIALOG_INTERACTION
 79: 0x0233 [0x2B] Helina (ID: 17793144/0x010F8078) [7951*]:
    → "From my apprenticeship to this very day, never have I set needle to pieces of cloth quite like these."
 80: 0x023A [0x23] WAIT_FOR_DIALOG_INTERACTION
 81: 0x023B [0x2A] GET_REQ_LEVEL(level=8, entity_id=Helina (ID: 17793144/0x010F8078))
 82: 0x0241 [0x23] WAIT_FOR_DIALOG_INTERACTION
 83: 0x0242 [0x03] Work_Zone[2] = 26938*
 84: 0x0247 [0x2B] Helina (ID: 17793144/0x010F8078) [7952*]:
    → "This $0 is blessed with the gravitas of nature."
 85: 0x024E [0x23] WAIT_FOR_DIALOG_INTERACTION
 86: 0x024F [0x27] REQ_SET(priority=0x08, entity_id=Helina (ID: 17793144/0x010F8078), tag_num=0x0F)
 87: 0x0256 [0x2B] Helina (ID: 17793144/0x010F8078) [7953*]:
    → "It also borrows from the power of elementals to harmonize the physical with the magical."
 88: 0x025D [0x2A] GET_REQ_LEVEL(level=8, entity_id=Helina (ID: 17793144/0x010F8078))
 89: 0x0263 [0x23] WAIT_FOR_DIALOG_INTERACTION
 90: 0x0264 [0x1C] WAIT(30* ticks)
 91: 0x0267 [0x4A] Helina (ID: 17793144/0x010F8078) looks at LocalPlayer
 92: 0x0270 [0x52] END_LOAD_SCHEDULER: End scheduler "s047" with entities [EventEntity, EventEntity], work=710*
 93: 0x027F [0x02] IF !(LocalPlayer->Race == 5*) GOTO 0x029B
 94: 0x0287 [0x45] LOAD_SCHEDULED_TASK: Load scheduler "s049" with entities [EventEntity, EventEntity], work=[710*, 0*]
 95: 0x0298 [0x01] GOTO 0x02C8
 96: 0x029B [0x02] IF !(LocalPlayer->Race == 6*) GOTO 0x02B7
 97: 0x02A3 [0x45] LOAD_SCHEDULED_TASK: Load scheduler "s049" with entities [EventEntity, EventEntity], work=[710*, 0*]
 98: 0x02B4 [0x01] GOTO 0x02C8
 99: 0x02B7 [0x45] LOAD_SCHEDULED_TASK: Load scheduler "s048" with entities [EventEntity, EventEntity], work=[710*, 0*]

SUBROUTINE_02C8:
100: 0x02C8 [0x6F] WAIT_FRAME_DELAY: Yield until WaitTime reaches zero
101: 0x02C9 [0x76] CHECK_ENTITY_RENDER_FLAGS: Wait until Helina (ID: 17793144/0x010F8078) Render.Flags0 and Render.Flags3 conditions are met
102: 0x02CE [0x1C] WAIT(20* ticks)
103: 0x02D1 [0x4A] Sylvie (ID: 17793145/0x010F8079) looks at LocalPlayer
104: 0x02DA [0x6F] WAIT_FRAME_DELAY: Yield until WaitTime reaches zero
105: 0x02DB [0x76] CHECK_ENTITY_RENDER_FLAGS: Wait until Sylvie (ID: 17793145/0x010F8079) Render.Flags0 and Render.Flags3 conditions are met
106: 0x02E0 [0x2B] Helina (ID: 17793144/0x010F8078) [7954*]:
    → "And this piece is intended for you, Sylvie?"
107: 0x02E7 [0x1C] WAIT(60* ticks)
108: 0x02EA [0x23] WAIT_FOR_DIALOG_INTERACTION
109: 0x02EB [0x27] REQ_SET(priority=0x08, entity_id=Sylvie (ID: 17793145/0x010F8079), tag_num=0x14)
110: 0x02F2 [0x03] Work_Zone[2] = 26938*
111: 0x02F7 [0x2B] Sylvie (ID: 17793145/0x010F8079) [7955*]:
    → "Me? Oh, no. I would like <Player> to have it."
112: 0x02FE [0x1C] WAIT(70* ticks)
113: 0x0301 [0x4A] LocalPlayer looks at Sylvie (ID: 17793145/0x010F8079)
114: 0x030A [0x6F] WAIT_FRAME_DELAY: Yield until WaitTime reaches zero
115: 0x030B [0x76] CHECK_ENTITY_RENDER_FLAGS: Wait until LocalPlayer Render.Flags0 and Render.Flags3 conditions are met
116: 0x0310 [0x2A] GET_REQ_LEVEL(level=8, entity_id=Sylvie (ID: 17793145/0x010F8079))
117: 0x0316 [0x23] WAIT_FOR_DIALOG_INTERACTION
118: 0x0317 [0x4A] Sylvie (ID: 17793145/0x010F8079) looks at Helina (ID: 17793144/0x010F8078)
119: 0x0320 [0x52] END_LOAD_SCHEDULER: End scheduler "s048" with entities [EventEntity, EventEntity], work=710*
120: 0x032F [0x52] END_LOAD_SCHEDULER: End scheduler "s049" with entities [EventEntity, EventEntity], work=710*
121: 0x033E [0x45] LOAD_SCHEDULED_TASK: Load scheduler "s049" with entities [EventEntity, EventEntity], work=[710*, 0*]
122: 0x034F [0x6F] WAIT_FRAME_DELAY: Yield until WaitTime reaches zero
123: 0x0350 [0x76] CHECK_ENTITY_RENDER_FLAGS: Wait until Sylvie (ID: 17793145/0x010F8079) Render.Flags0 and Render.Flags3 conditions are met
124: 0x0355 [0x02] IF !(LocalPlayer->Race == 2*) GOTO 0x0363
125: 0x035D [0x05] Work_Zone[2] = 1
126: 0x0360 [0x01] GOTO 0x0390
127: 0x0363 [0x02] IF !(LocalPlayer->Race == 4*) GOTO 0x0371
128: 0x036B [0x05] Work_Zone[2] = 1
129: 0x036E [0x01] GOTO 0x0390
130: 0x0371 [0x02] IF !(LocalPlayer->Race == 6*) GOTO 0x037F
131: 0x0379 [0x05] Work_Zone[2] = 1
132: 0x037C [0x01] GOTO 0x0390
133: 0x037F [0x02] IF !(LocalPlayer->Race == 7*) GOTO 0x038D
134: 0x0387 [0x05] Work_Zone[2] = 1
135: 0x038A [0x01] GOTO 0x0390
136: 0x038D [0x06] Work_Zone[2] = 0

SUBROUTINE_0390:
137: 0x0390 [0x2B] Sylvie (ID: 17793145/0x010F8079) [7956*]:
    → "Zacariah's will would never have been carried out if not for [him/her]."
138: 0x0397 [0x1C] WAIT(20* ticks)
139: 0x039A [0x4A] Helina (ID: 17793144/0x010F8078) looks at Sylvie (ID: 17793145/0x010F8079)
140: 0x03A3 [0x6F] WAIT_FRAME_DELAY: Yield until WaitTime reaches zero
141: 0x03A4 [0x76] CHECK_ENTITY_RENDER_FLAGS: Wait until Helina (ID: 17793144/0x010F8078) Render.Flags0 and Render.Flags3 conditions are met
142: 0x03A9 [0x1C] WAIT(50* ticks)
143: 0x03AC [0x23] WAIT_FOR_DIALOG_INTERACTION
144: 0x03AD [0x27] REQ_SET(priority=0x08, entity_id=Sylvie (ID: 17793145/0x010F8079), tag_num=0x07)
145: 0x03B4 [0x2B] Sylvie (ID: 17793145/0x010F8079) [7957*]:
    → "I can't think of anyone more suited to don this attire."
146: 0x03BB [0x23] WAIT_FOR_DIALOG_INTERACTION
147: 0x03BC [0x2B] Sylvie (ID: 17793145/0x010F8079) [7958*]:
    → "Please, <Player>. Take it as a sign of my thanks."
148: 0x03C3 [0x2A] GET_REQ_LEVEL(level=8, entity_id=Sylvie (ID: 17793145/0x010F8079))
149: 0x03C9 [0x23] WAIT_FOR_DIALOG_INTERACTION
150: 0x03CA [0x27] REQ_SET(priority=0x08, entity_id=Sylvie (ID: 17793145/0x010F8079), tag_num=0x08)
151: 0x03D1 [0x27] REQ_SET(priority=0x08, entity_id=Helina (ID: 17793144/0x010F8078), tag_num=0x15)
152: 0x03D8 [0x2B] Helina (ID: 17793144/0x010F8078) [7959*]:
    → "Then the matter is settled."
153: 0x03DF [0x2A] GET_REQ_LEVEL(level=8, entity_id=Helina (ID: 17793144/0x010F8078))
154: 0x03E5 [0x2A] GET_REQ_LEVEL(level=8, entity_id=Sylvie (ID: 17793145/0x010F8079))
155: 0x03EB [0x23] WAIT_FOR_DIALOG_INTERACTION
156: 0x03EC [0x4A] Helina (ID: 17793144/0x010F8078) looks at LocalPlayer
157: 0x03F5 [0x52] END_LOAD_SCHEDULER: End scheduler "s049" with entities [EventEntity, EventEntity], work=710*
158: 0x0404 [0x02] IF !(LocalPlayer->Race == 3*) GOTO 0x0420
159: 0x040C [0x45] LOAD_SCHEDULED_TASK: Load scheduler "s050" with entities [EventEntity, EventEntity], work=[710*, 0*]
160: 0x041D [0x01] GOTO 0x04A1
161: 0x0420 [0x02] IF !(LocalPlayer->Race == 4*) GOTO 0x043C
162: 0x0428 [0x45] LOAD_SCHEDULED_TASK: Load scheduler "s050" with entities [EventEntity, EventEntity], work=[710*, 0*]
163: 0x0439 [0x01] GOTO 0x04A1
164: 0x043C [0x02] IF !(LocalPlayer->Race == 5*) GOTO 0x0458
165: 0x0444 [0x45] LOAD_SCHEDULED_TASK: Load scheduler "s052" with entities [EventEntity, EventEntity], work=[710*, 0*]
166: 0x0455 [0x01] GOTO 0x04A1
167: 0x0458 [0x02] IF !(LocalPlayer->Race == 6*) GOTO 0x0474
168: 0x0460 [0x45] LOAD_SCHEDULED_TASK: Load scheduler "s052" with entities [EventEntity, EventEntity], work=[710*, 0*]
169: 0x0471 [0x01] GOTO 0x04A1
170: 0x0474 [0x02] IF !(LocalPlayer->Race == 8*) GOTO 0x0490
171: 0x047C [0x45] LOAD_SCHEDULED_TASK: Load scheduler "s050" with entities [EventEntity, EventEntity], work=[710*, 0*]
172: 0x048D [0x01] GOTO 0x04A1
173: 0x0490 [0x45] LOAD_SCHEDULED_TASK: Load scheduler "s051" with entities [EventEntity, EventEntity], work=[710*, 0*]

SUBROUTINE_04A1:
174: 0x04A1 [0x6F] WAIT_FRAME_DELAY: Yield until WaitTime reaches zero
175: 0x04A2 [0x76] CHECK_ENTITY_RENDER_FLAGS: Wait until Helina (ID: 17793144/0x010F8078) Render.Flags0 and Render.Flags3 conditions are met
176: 0x04A7 [0x1C] WAIT(20* ticks)
177: 0x04AA [0x4A] LocalPlayer looks at Helina (ID: 17793144/0x010F8078)
178: 0x04B3 [0x6F] WAIT_FRAME_DELAY: Yield until WaitTime reaches zero
179: 0x04B4 [0x76] CHECK_ENTITY_RENDER_FLAGS: Wait until LocalPlayer Render.Flags0 and Render.Flags3 conditions are met
180: 0x04B9 [0x03] Work_Zone[2] = 1*
181: 0x04BE [0x27] REQ_SET(priority=0x08, entity_id=Helina (ID: 17793144/0x010F8078), tag_num=0x14)
182: 0x04C5 [0x2B] Helina (ID: 17793144/0x010F8078) [7960*]:
    → "Let the [senses/movements/fortitude/wildness/natural grace] of Sih Renaye embrace you."
183: 0x04CC [0x23] WAIT_FOR_DIALOG_INTERACTION
184: 0x04CD [0x2B] Helina (ID: 17793144/0x010F8078) [7961*]:
    → "Feel the [scent/life/power/rhythm/warmth] of nature emanating from its azure cloth."
185: 0x04D4 [0x2A] GET_REQ_LEVEL(level=8, entity_id=Helina (ID: 17793144/0x010F8078))
186: 0x04DA [0x23] WAIT_FOR_DIALOG_INTERACTION
187: 0x04DB [0x45] LOAD_SCHEDULED_TASK: Load scheduler "fdo1" with entities [LocalPlayer, LocalPlayer], work=[200*, 0*]
188: 0x04EC [0x55] WAIT_LOAD_SCHEDULER: Wait for scheduler "fdo1" with entities [LocalPlayer, LocalPlayer], work=200*
189: 0x04FB [0x52] END_LOAD_SCHEDULER: End scheduler "s050" with entities [EventEntity, EventEntity], work=710*
190: 0x050A [0x52] END_LOAD_SCHEDULER: End scheduler "s051" with entities [EventEntity, EventEntity], work=710*
191: 0x0519 [0x52] END_LOAD_SCHEDULER: End scheduler "s052" with entities [EventEntity, EventEntity], work=710*
192: 0x0528 [0x4E] SET_ENTITY_HIDE_FLAG: Hide Sylvie (ID: 17793145/0x010F8079)
193: 0x052E [0x1C] WAIT(15* ticks)
194: 0x0531 [0xAB] EventEntity->DespawnValue = 0* // Set despawn value
195: 0x0535 [0x1C] WAIT(1* ticks)
196: 0x0538 [0xAB] EventEntity->UnknownFlag = 0 // Disable unknown flag
197: 0x053A [0x46] CAMERA_CONTROL: Restore default settings
198: 0x053C [0x45] LOAD_SCHEDULED_TASK: Load scheduler "fdi2" with entities [LocalPlayer, LocalPlayer], work=[200*, 0*]
199: 0x054D [0x45] LOAD_SCHEDULED_TASK: Load scheduler "qstc" with entities [LocalPlayer, LocalPlayer], work=[201*, 0*]
200: 0x055E [0x21] END_EVENT
201: 0x055F [0x00] END_REQSTACK()
```

### Event 10025

#### Metadata

| Field        | Value     |
|--------------|-----------|
| Entrypoint   | 0x0560    |
| Data Size    | 515 bytes |
| Instructions | 46        |

```
      00 01 02 03 04 05 06 07  08 09 0A 0B 0C 0D 0E 0F
      -- -- -- -- -- -- -- --  -- -- -- -- -- -- -- --
0560: 03 00 00 04 10 4A F0 FF  FF 7F 78 80 0F 01 6F 76  .....J....x...ov
0570: F0 FF FF 7F 1C 0F 80 4A  78 80 0F 01 F0 FF FF 7F  .......Jx.......
0580: 6F 76 78 80 0F 01 2B 78  80 0F 01 31 80 23 D4 03  ovx...+x...1.#..
0590: 2D 80 32 80 D4 03 23 80  1B 80 D4 03 2B 80 33 80  -.2...#.....+.3.
05A0: D4 03 24 80 34 80 D4 03  1F 80 35 80 D4 02 36 80  ..$.4.....5...6.
05B0: 01 80 00 00 25 02 00 10  01 80 00 C2 05 21 00 01  ....%........!..
05C0: CB 06 02 00 10 2D 80 00  F7 05 27 08 78 80 0F 01  .....-....'.x...
05D0: 10 03 02 10 32 80 2B 78  80 0F 01 37 80 23 2B 78  ....2.+x...7.#+x
05E0: 80 0F 01 38 80 03 03 10  39 80 03 04 10 3A 80 03  ...8....9....:..
05F0: 06 10 0F 80 01 CB 06 02  00 10 23 80 00 2C 06 27  ..........#..,.'
0600: 08 78 80 0F 01 10 03 02  10 1B 80 2B 78 80 0F 01  .x.........+x...
0610: 1C 80 23 2B 78 80 0F 01  1D 80 03 03 10 3B 80 03  ..#+x........;..
0620: 04 10 3C 80 03 06 10 1E  80 01 CB 06 02 00 10 2B  ..<............+
0630: 80 00 61 06 27 08 78 80  0F 01 10 03 02 10 33 80  ..a.'.x.......3.
0640: 2B 78 80 0F 01 3D 80 23  2B 78 80 0F 01 3E 80 03  +x...=.#+x...>..
0650: 03 10 39 80 03 04 10 3F  80 03 06 10 0D 80 01 CB  ..9....?........
0660: 06 02 00 10 24 80 00 96  06 27 08 78 80 0F 01 10  ....$....'.x....
0670: 03 02 10 34 80 2B 78 80  0F 01 40 80 23 2B 78 80  ...4.+x...@.#+x.
0680: 0F 01 41 80 03 03 10 39  80 03 04 10 3B 80 03 06  ..A....9....;...
0690: 10 42 80 01 CB 06 02 00  10 1F 80 00 CB 06 27 08  .B............'.
06A0: 78 80 0F 01 10 03 02 10  35 80 2B 78 80 0F 01 43  x.......5.+x...C
06B0: 80 23 2B 78 80 0F 01 44  80 03 03 10 3F 80 03 04  .#+x...D....?...
06C0: 10 3B 80 03 06 10 45 80  01 CB 06 2A 08 78 80 0F  .;....E....*.x..
06D0: 01 23 27 08 78 80 0F 01  11 03 02 10 46 80 02 09  .#'.x.......F...
06E0: 10 2D 80 00 19 07 2B 78  80 0F 01 47 80 2A 08 78  .-....+x...G.*.x
06F0: 80 0F 01 23 2B 78 80 0F  01 48 80 23 27 08 78 80  ...#+x...H.#'.x.
0700: 0F 01 0E 2B 78 80 0F 01  49 80 2A 08 78 80 0F 01  ...+x...I.*.x...
0710: 23 15 06 10 23 80 01 3C  07 2B 78 80 0F 01 4A 80  #...#..<.+x...J.
0720: 2A 08 78 80 0F 01 23 27  08 78 80 0F 01 0E 2B 78  *.x...#'.x....+x
0730: 80 0F 01 4B 80 2A 08 78  80 0F 01 23 03 05 10 4C  ...K.*.x...#...L
0740: 80 2B 78 80 0F 01 4D 80  23 27 08 78 80 0F 01 0F  .+x...M.#'.x....
0750: 2B 78 80 0F 01 4E 80 2A  08 78 80 0F 01 23 01 8E  +x...N.*.x...#..
0760: 05 21 00                                          .!.             
```

#### Opcodes

```
  0: 0x0560 [0x03] ExtData[1]->WorkLocal[0] = Work_Zone[4]
  1: 0x0565 [0x4A] LocalPlayer looks at Helina (ID: 17793144/0x010F8078)
  2: 0x056E [0x6F] WAIT_FRAME_DELAY: Yield until WaitTime reaches zero
  3: 0x056F [0x76] CHECK_ENTITY_RENDER_FLAGS: Wait until LocalPlayer Render.Flags0 and Render.Flags3 conditions are met
  4: 0x0574 [0x1C] WAIT(20* ticks)
  5: 0x0577 [0x4A] Helina (ID: 17793144/0x010F8078) looks at LocalPlayer
  6: 0x0580 [0x6F] WAIT_FRAME_DELAY: Yield until WaitTime reaches zero
  7: 0x0581 [0x76] CHECK_ENTITY_RENDER_FLAGS: Wait until Helina (ID: 17793144/0x010F8078) Render.Flags0 and Render.Flags3 conditions are met
  8: 0x0586 [0x2B] Helina (ID: 17793144/0x010F8078) [7963*]:
    → "I can stitch together other materials for you...but I may or may not have the materials in stock."
  9: 0x058D [0x23] WAIT_FOR_DIALOG_INTERACTION
 10: 0x058E [0xD4] MAP_QUERY_WINDOW: Prepare buffer configuration A (buffer=[2D 80 32 80 D4 03 23 80...])
 11: 0x05AC [0xD4] MAP_QUERY_WINDOW: Test and open query window (flag=0x36, work=[0x0180, 0x80, 0x2500])
 12: 0x05B5 [0x02] IF !(Work_Zone[0] == 0*) GOTO 0x05C2
 13: 0x05BD [0x21] END_EVENT
 14: 0x05BE [0x00] END_REQSTACK()

SUBROUTINE_06CB:
 15: 0x06CB [0x2A] GET_REQ_LEVEL(level=8, entity_id=Helina (ID: 17793144/0x010F8078))
 16: 0x06D1 [0x23] WAIT_FOR_DIALOG_INTERACTION
 17: 0x06D2 [0x27] REQ_SET(priority=0x08, entity_id=Helina (ID: 17793144/0x010F8078), tag_num=0x11)
 18: 0x06D9 [0x03] Work_Zone[2] = 3288*
 19: 0x06DE [0x02] IF !(Work_Zone[9] == 1*) GOTO 0x0719
 20: 0x06E6 [0x2B] Helina (ID: 17793144/0x010F8078) [7975*]:
    → "I am led to understand that your skills rival those of the primal geomancer herself, and that you were able to ring her bell in a time of great need."
 21: 0x06ED [0x2A] GET_REQ_LEVEL(level=8, entity_id=Helina (ID: 17793144/0x010F8078))
 22: 0x06F3 [0x23] WAIT_FOR_DIALOG_INTERACTION
 23: 0x06F4 [0x2B] Helina (ID: 17793144/0x010F8078) [7976*]:
    → "Perhaps a more simple material would bring out the same effects, given that you are starting with a leg up."
 24: 0x06FB [0x23] WAIT_FOR_DIALOG_INTERACTION
 25: 0x06FC [0x27] REQ_SET(priority=0x08, entity_id=Helina (ID: 17793144/0x010F8078), tag_num=0x0E)
 26: 0x0703 [0x2B] Helina (ID: 17793144/0x010F8078) [7977*]:
    → "In that case, $0 should be all I need to work my magic."
 27: 0x070A [0x2A] GET_REQ_LEVEL(level=8, entity_id=Helina (ID: 17793144/0x010F8078))
 28: 0x0710 [0x23] WAIT_FOR_DIALOG_INTERACTION
 29: 0x0711 [0x15] Work_Zone[6] /= 2*
 30: 0x0716 [0x01] GOTO 0x073C
 31: 0x0719 [0x2B] Helina (ID: 17793144/0x010F8078) [7973*]:
    → "I can certainly craft that for you, but I don't have the materials on hand."
 32: 0x0720 [0x2A] GET_REQ_LEVEL(level=8, entity_id=Helina (ID: 17793144/0x010F8078))
 33: 0x0726 [0x23] WAIT_FOR_DIALOG_INTERACTION
 34: 0x0727 [0x27] REQ_SET(priority=0x08, entity_id=Helina (ID: 17793144/0x010F8078), tag_num=0x0E)
 35: 0x072E [0x2B] Helina (ID: 17793144/0x010F8078) [7974*]:
    → "Three things should suffice: $0, $1, and $2."
 36: 0x0735 [0x2A] GET_REQ_LEVEL(level=8, entity_id=Helina (ID: 17793144/0x010F8078))
 37: 0x073B [0x23] WAIT_FOR_DIALOG_INTERACTION

SUBROUTINE_073C:
 38: 0x073C [0x03] Work_Zone[5] = 8798*
 39: 0x0741 [0x2B] Helina (ID: 17793144/0x010F8078) [7978*]:
    → "Of course, if you have problems procuring what you need, then I will accept payment of $4 $0$3 ."
 40: 0x0748 [0x23] WAIT_FOR_DIALOG_INTERACTION
 41: 0x0749 [0x27] REQ_SET(priority=0x08, entity_id=Helina (ID: 17793144/0x010F8078), tag_num=0x0F)
 42: 0x0750 [0x2B] Helina (ID: 17793144/0x010F8078) [7979*]:
    → "That should be sufficient recompense for me finding the materials myself."
 43: 0x0757 [0x2A] GET_REQ_LEVEL(level=8, entity_id=Helina (ID: 17793144/0x010F8078))
 44: 0x075D [0x23] WAIT_FOR_DIALOG_INTERACTION
 45: 0x075E [0x01] GOTO 0x058E
```

#### Data or dead code:

```
# Dead code (unreachable instructions):
     0x05BF [0x01] GOTO 0x06CB
# Dead code (unreachable instructions):
     0x0761 [0x21] END_EVENT
     0x0762 [0x00] END_REQSTACK()
```

### Event 10033

#### Metadata

| Field        | Value     |
|--------------|-----------|
| Entrypoint   | 0x0763    |
| Data Size    | 377 bytes |
| Instructions | 49        |

```
      00 01 02 03 04 05 06 07  08 09 0A 0B 0C 0D 0E 0F
      -- -- -- -- -- -- -- --  -- -- -- -- -- -- -- --
0760:          42 06 01 10 4A  F0 FF FF 7F 78 80 0F 01     B...J....x...
0770: 6F 76 F0 FF FF 7F 1C 0F  80 4A 78 80 0F 01 F0 FF  ov.......Jx.....
0780: FF 7F 6F 76 78 80 0F 01  02 03 10 23 80 00 51 08  ..ovx......#..Q.
0790: 2B 78 80 0F 01 4F 80 23  D4 03 2D 80 32 80 D4 03  +x...O.#..-.2...
07A0: 23 80 1B 80 D4 03 2B 80  33 80 D4 03 24 80 34 80  #.....+.3...$.4.
07B0: D4 03 1F 80 35 80 D4 02  50 80 01 80 05 10 25 02  ....5...P.....%.
07C0: 00 10 01 80 00 D1 07 03  01 10 51 80 21 00 01 4E  ..........Q.!..N
07D0: 08 02 00 10 2D 80 00 EA  07 03 01 10 2D 80 43 00  ....-.......-.C.
07E0: 43 01 03 02 10 32 80 01  4E 08 02 00 10 23 80 00  C....2..N....#..
07F0: 03 08 03 01 10 23 80 43  00 43 01 03 02 10 1B 80  .....#.C.C......
0800: 01 4E 08 02 00 10 2B 80  00 1C 08 03 01 10 2B 80  .N....+.......+.
0810: 43 00 43 01 03 02 10 33  80 01 4E 08 02 00 10 24  C.C....3..N....$
0820: 80 00 35 08 03 01 10 24  80 43 00 43 01 03 02 10  ..5....$.C.C....
0830: 34 80 01 4E 08 02 00 10  1F 80 00 4E 08 03 01 10  4..N.......N....
0840: 1F 80 43 00 43 01 03 02  10 35 80 01 4E 08 01 A1  ..C.C....5..N...
0850: 08 02 04 10 2D 80 80 61  08 03 02 10 32 80 01 A1  ....-..a....2...
0860: 08 02 04 10 23 80 80 71  08 03 02 10 1B 80 01 A1  ....#..q........
0870: 08 02 04 10 2B 80 80 81  08 03 02 10 33 80 01 A1  ....+.......3...
0880: 08 02 04 10 24 80 80 91  08 03 02 10 34 80 01 A1  ....$.......4...
0890: 08 02 04 10 1F 80 80 A1  08 03 02 10 35 80 01 A1  ............5...
08A0: 08 93 02 10 2B 78 80 0F  01 52 80 23 93 01 80 24  ....+x...R.#...$
08B0: 53 80 01 80 01 80 25 02  00 10 01 80 00 CA 08 2B  S.....%........+
08C0: 78 80 0F 01 54 80 23 01  DA 08 02 00 10 2D 80 00  x...T.#......-..
08D0: DA 08 03 01 10 51 80 01  DA 08 21 00              .....Q....!.    
```

#### Opcodes

```
  0: 0x0763 [0x42] SET_CLI_EVENT_CANCEL_DATA()
  1: 0x0764 [0x06] Work_Zone[1] = 0
  2: 0x0767 [0x4A] LocalPlayer looks at Helina (ID: 17793144/0x010F8078)
  3: 0x0770 [0x6F] WAIT_FRAME_DELAY: Yield until WaitTime reaches zero
  4: 0x0771 [0x76] CHECK_ENTITY_RENDER_FLAGS: Wait until LocalPlayer Render.Flags0 and Render.Flags3 conditions are met
  5: 0x0776 [0x1C] WAIT(20* ticks)
  6: 0x0779 [0x4A] Helina (ID: 17793144/0x010F8078) looks at LocalPlayer
  7: 0x0782 [0x6F] WAIT_FRAME_DELAY: Yield until WaitTime reaches zero
  8: 0x0783 [0x76] CHECK_ENTITY_RENDER_FLAGS: Wait until Helina (ID: 17793144/0x010F8078) Render.Flags0 and Render.Flags3 conditions are met
  9: 0x0788 [0x02] IF !(Work_Zone[3] == 2*) GOTO 0x0851
 10: 0x0790 [0x2B] Helina (ID: 17793144/0x010F8078) [7980*]:
    → "Much obliged. Which piece are you interested in?"
 11: 0x0797 [0x23] WAIT_FOR_DIALOG_INTERACTION
 12: 0x0798 [0xD4] MAP_QUERY_WINDOW: Prepare buffer configuration A (buffer=[2D 80 32 80 D4 03 23 80...])
 13: 0x07B6 [0xD4] MAP_QUERY_WINDOW: Test and open query window (flag=0x50, work=[0x0180, 0x0580, 0x2510])
 14: 0x07BF [0x02] IF !(Work_Zone[0] == 0*) GOTO 0x07D1
 15: 0x07C7 [0x03] Work_Zone[1] = 9*
 16: 0x07CC [0x21] END_EVENT
 17: 0x07CD [0x00] END_REQSTACK()

SUBROUTINE_084E:
 18: 0x084E [0x01] GOTO 0x08A1
 19: 0x0851 [0x02] IF !(Work_Zone[4] == 1*) GOTO 0x0861
 20: 0x0859 [0x03] Work_Zone[2] = 26780*
 21: 0x085E [0x01] GOTO 0x08A1
 22: 0x0861 [0x02] IF !(Work_Zone[4] == 2*) GOTO 0x0871
 23: 0x0869 [0x03] Work_Zone[2] = 26938*
 24: 0x086E [0x01] GOTO 0x08A1
 25: 0x0871 [0x02] IF !(Work_Zone[4] == 3*) GOTO 0x0881
 26: 0x0879 [0x03] Work_Zone[2] = 27092*
 27: 0x087E [0x01] GOTO 0x08A1
 28: 0x0881 [0x02] IF !(Work_Zone[4] == 4*) GOTO 0x0891
 29: 0x0889 [0x03] Work_Zone[2] = 27277*
 30: 0x088E [0x01] GOTO 0x08A1
 31: 0x0891 [0x02] IF !(Work_Zone[4] == 5*) GOTO 0x08A1
 32: 0x0899 [0x03] Work_Zone[2] = 27451*
 33: 0x089E [0x01] GOTO 0x08A1

SUBROUTINE_08A1:
 34: 0x08A1 [0x93] DISPLAY_ITEM_INFO(item_id=Work_Zone[2])
 35: 0x08A4 [0x2B] Helina (ID: 17793144/0x010F8078) [7982*]:
    → "$0, correct?"
 36: 0x08AB [0x23] WAIT_FOR_DIALOG_INTERACTION
 37: 0x08AC [0x93] DISPLAY_ITEM_INFO(item_id=0*)
 38: 0x08AF [0x24] CREATE_DIALOG(message_id=7983*, default_option=0*, option_flags=0*)
    → "Have Helina craft $0? [Yes, please./No, thank you.]"
 39: 0x08B6 [0x25] WAIT_DIALOG_SELECT()
 40: 0x08B7 [0x02] IF !(Work_Zone[0] == 0*) GOTO 0x08CA
 41: 0x08BF [0x2B] Helina (ID: 17793144/0x010F8078) [7984*]:
    → "I will get started right away. Be advised that the process is quite intricate, and thus may take a little while."
 42: 0x08C6 [0x23] WAIT_FOR_DIALOG_INTERACTION
 43: 0x08C7 [0x01] GOTO 0x08DA
 44: 0x08CA [0x02] IF !(Work_Zone[0] == 1*) GOTO 0x08DA
 45: 0x08D2 [0x03] Work_Zone[1] = 9*
 46: 0x08D7 [0x01] GOTO 0x08DA

SUBROUTINE_08DA:
 47: 0x08DA [0x21] END_EVENT
 48: 0x08DB [0x00] END_REQSTACK()
```

#### Data or dead code:

```
# Dead code (unreachable instructions):
     0x07CE [0x01] GOTO 0x084E
```

### Event 10026

#### Metadata

| Field        | Value     |
|--------------|-----------|
| Entrypoint   | 0x08DC    |
| Data Size    | 101 bytes |
| Instructions | 22        |

```
      00 01 02 03 04 05 06 07  08 09 0A 0B 0C 0D 0E 0F
      -- -- -- -- -- -- -- --  -- -- -- -- -- -- -- --
08D0:                                      42 4A F0 FF              BJ..
08E0: FF 7F 78 80 0F 01 6F 76  F0 FF FF 7F 1C 0F 80 4A  ..x...ov.......J
08F0: 78 80 0F 01 F0 FF FF 7F  6F 76 78 80 0F 01 93 32  x.......ovx....2
0900: 80 2B 78 80 0F 01 10 80  23 93 01 80 03 02 10 01  .+x.....#.......
0910: 80 2B 78 80 0F 01 2E 80  23 27 08 78 80 0F 01 14  .+x.....#'.x....
0920: 2B 78 80 0F 01 2F 80 2A  08 78 80 0F 01 23 45 30  +x.../.*.x...#E0
0930: 80 F0 FF FF 7F F0 FF FF  7F 71 73 74 63 01 80 21  .........qstc..!
0940: 00                                                .               
```

#### Opcodes

```
  0: 0x08DC [0x42] SET_CLI_EVENT_CANCEL_DATA()
  1: 0x08DD [0x4A] LocalPlayer looks at Helina (ID: 17793144/0x010F8078)
  2: 0x08E6 [0x6F] WAIT_FRAME_DELAY: Yield until WaitTime reaches zero
  3: 0x08E7 [0x76] CHECK_ENTITY_RENDER_FLAGS: Wait until LocalPlayer Render.Flags0 and Render.Flags3 conditions are met
  4: 0x08EC [0x1C] WAIT(20* ticks)
  5: 0x08EF [0x4A] Helina (ID: 17793144/0x010F8078) looks at LocalPlayer
  6: 0x08F8 [0x6F] WAIT_FRAME_DELAY: Yield until WaitTime reaches zero
  7: 0x08F9 [0x76] CHECK_ENTITY_RENDER_FLAGS: Wait until Helina (ID: 17793144/0x010F8078) Render.Flags0 and Render.Flags3 conditions are met
  8: 0x08FE [0x93] DISPLAY_ITEM_INFO(item_id=26780*)
  9: 0x0901 [0x2B] Helina (ID: 17793144/0x010F8078) [7944*]:
    → "Here you are, my geomancer friend. Fine work, if I do say so myself."
 10: 0x0908 [0x23] WAIT_FOR_DIALOG_INTERACTION
 11: 0x0909 [0x93] DISPLAY_ITEM_INFO(item_id=0*)
 12: 0x090C [0x03] Work_Zone[2] = 0*
 13: 0x0911 [0x2B] Helina (ID: 17793144/0x010F8078) [7960*]:
    → "Let the [senses/movements/fortitude/wildness/natural grace] of Sih Renaye embrace you."
 14: 0x0918 [0x23] WAIT_FOR_DIALOG_INTERACTION
 15: 0x0919 [0x27] REQ_SET(priority=0x08, entity_id=Helina (ID: 17793144/0x010F8078), tag_num=0x14)
 16: 0x0920 [0x2B] Helina (ID: 17793144/0x010F8078) [7961*]:
    → "Feel the [scent/life/power/rhythm/warmth] of nature emanating from its azure cloth."
 17: 0x0927 [0x2A] GET_REQ_LEVEL(level=8, entity_id=Helina (ID: 17793144/0x010F8078))
 18: 0x092D [0x23] WAIT_FOR_DIALOG_INTERACTION
 19: 0x092E [0x45] LOAD_SCHEDULED_TASK: Load scheduler "qstc" with entities [LocalPlayer, LocalPlayer], work=[201*, 0*]
 20: 0x093F [0x21] END_EVENT
 21: 0x0940 [0x00] END_REQSTACK()
```

### Event 10027

#### Metadata

| Field        | Value     |
|--------------|-----------|
| Entrypoint   | 0x0941    |
| Data Size    | 101 bytes |
| Instructions | 22        |

```
      00 01 02 03 04 05 06 07  08 09 0A 0B 0C 0D 0E 0F
      -- -- -- -- -- -- -- --  -- -- -- -- -- -- -- --
0940:    42 4A F0 FF FF 7F 78  80 0F 01 6F 76 F0 FF FF   BJ....x...ov...
0950: 7F 1C 0F 80 4A 78 80 0F  01 F0 FF FF 7F 6F 76 78  ....Jx.......ovx
0960: 80 0F 01 93 1B 80 2B 78  80 0F 01 10 80 23 93 01  ......+x.....#..
0970: 80 03 02 10 2D 80 2B 78  80 0F 01 2E 80 23 27 08  ....-.+x.....#'.
0980: 78 80 0F 01 14 2B 78 80  0F 01 2F 80 2A 08 78 80  x....+x.../.*.x.
0990: 0F 01 23 45 30 80 F0 FF  FF 7F F0 FF FF 7F 71 73  ..#E0.........qs
09A0: 74 63 01 80 21 00                                 tc..!.          
```

#### Opcodes

```
  0: 0x0941 [0x42] SET_CLI_EVENT_CANCEL_DATA()
  1: 0x0942 [0x4A] LocalPlayer looks at Helina (ID: 17793144/0x010F8078)
  2: 0x094B [0x6F] WAIT_FRAME_DELAY: Yield until WaitTime reaches zero
  3: 0x094C [0x76] CHECK_ENTITY_RENDER_FLAGS: Wait until LocalPlayer Render.Flags0 and Render.Flags3 conditions are met
  4: 0x0951 [0x1C] WAIT(20* ticks)
  5: 0x0954 [0x4A] Helina (ID: 17793144/0x010F8078) looks at LocalPlayer
  6: 0x095D [0x6F] WAIT_FRAME_DELAY: Yield until WaitTime reaches zero
  7: 0x095E [0x76] CHECK_ENTITY_RENDER_FLAGS: Wait until Helina (ID: 17793144/0x010F8078) Render.Flags0 and Render.Flags3 conditions are met
  8: 0x0963 [0x93] DISPLAY_ITEM_INFO(item_id=26938*)
  9: 0x0966 [0x2B] Helina (ID: 17793144/0x010F8078) [7944*]:
    → "Here you are, my geomancer friend. Fine work, if I do say so myself."
 10: 0x096D [0x23] WAIT_FOR_DIALOG_INTERACTION
 11: 0x096E [0x93] DISPLAY_ITEM_INFO(item_id=0*)
 12: 0x0971 [0x03] Work_Zone[2] = 1*
 13: 0x0976 [0x2B] Helina (ID: 17793144/0x010F8078) [7960*]:
    → "Let the [senses/movements/fortitude/wildness/natural grace] of Sih Renaye embrace you."
 14: 0x097D [0x23] WAIT_FOR_DIALOG_INTERACTION
 15: 0x097E [0x27] REQ_SET(priority=0x08, entity_id=Helina (ID: 17793144/0x010F8078), tag_num=0x14)
 16: 0x0985 [0x2B] Helina (ID: 17793144/0x010F8078) [7961*]:
    → "Feel the [scent/life/power/rhythm/warmth] of nature emanating from its azure cloth."
 17: 0x098C [0x2A] GET_REQ_LEVEL(level=8, entity_id=Helina (ID: 17793144/0x010F8078))
 18: 0x0992 [0x23] WAIT_FOR_DIALOG_INTERACTION
 19: 0x0993 [0x45] LOAD_SCHEDULED_TASK: Load scheduler "qstc" with entities [LocalPlayer, LocalPlayer], work=[201*, 0*]
 20: 0x09A4 [0x21] END_EVENT
 21: 0x09A5 [0x00] END_REQSTACK()
```

### Event 10028

#### Metadata

| Field        | Value     |
|--------------|-----------|
| Entrypoint   | 0x09A6    |
| Data Size    | 101 bytes |
| Instructions | 22        |

```
      00 01 02 03 04 05 06 07  08 09 0A 0B 0C 0D 0E 0F
      -- -- -- -- -- -- -- --  -- -- -- -- -- -- -- --
09A0:                   42 4A  F0 FF FF 7F 78 80 0F 01        BJ....x...
09B0: 6F 76 F0 FF FF 7F 1C 0F  80 4A 78 80 0F 01 F0 FF  ov.......Jx.....
09C0: FF 7F 6F 76 78 80 0F 01  93 33 80 2B 78 80 0F 01  ..ovx....3.+x...
09D0: 10 80 23 93 01 80 03 02  10 23 80 2B 78 80 0F 01  ..#......#.+x...
09E0: 2E 80 23 27 08 78 80 0F  01 14 2B 78 80 0F 01 2F  ..#'.x....+x.../
09F0: 80 2A 08 78 80 0F 01 23  45 30 80 F0 FF FF 7F F0  .*.x...#E0......
0A00: FF FF 7F 71 73 74 63 01  80 21 00                 ...qstc..!.     
```

#### Opcodes

```
  0: 0x09A6 [0x42] SET_CLI_EVENT_CANCEL_DATA()
  1: 0x09A7 [0x4A] LocalPlayer looks at Helina (ID: 17793144/0x010F8078)
  2: 0x09B0 [0x6F] WAIT_FRAME_DELAY: Yield until WaitTime reaches zero
  3: 0x09B1 [0x76] CHECK_ENTITY_RENDER_FLAGS: Wait until LocalPlayer Render.Flags0 and Render.Flags3 conditions are met
  4: 0x09B6 [0x1C] WAIT(20* ticks)
  5: 0x09B9 [0x4A] Helina (ID: 17793144/0x010F8078) looks at LocalPlayer
  6: 0x09C2 [0x6F] WAIT_FRAME_DELAY: Yield until WaitTime reaches zero
  7: 0x09C3 [0x76] CHECK_ENTITY_RENDER_FLAGS: Wait until Helina (ID: 17793144/0x010F8078) Render.Flags0 and Render.Flags3 conditions are met
  8: 0x09C8 [0x93] DISPLAY_ITEM_INFO(item_id=27092*)
  9: 0x09CB [0x2B] Helina (ID: 17793144/0x010F8078) [7944*]:
    → "Here you are, my geomancer friend. Fine work, if I do say so myself."
 10: 0x09D2 [0x23] WAIT_FOR_DIALOG_INTERACTION
 11: 0x09D3 [0x93] DISPLAY_ITEM_INFO(item_id=0*)
 12: 0x09D6 [0x03] Work_Zone[2] = 2*
 13: 0x09DB [0x2B] Helina (ID: 17793144/0x010F8078) [7960*]:
    → "Let the [senses/movements/fortitude/wildness/natural grace] of Sih Renaye embrace you."
 14: 0x09E2 [0x23] WAIT_FOR_DIALOG_INTERACTION
 15: 0x09E3 [0x27] REQ_SET(priority=0x08, entity_id=Helina (ID: 17793144/0x010F8078), tag_num=0x14)
 16: 0x09EA [0x2B] Helina (ID: 17793144/0x010F8078) [7961*]:
    → "Feel the [scent/life/power/rhythm/warmth] of nature emanating from its azure cloth."
 17: 0x09F1 [0x2A] GET_REQ_LEVEL(level=8, entity_id=Helina (ID: 17793144/0x010F8078))
 18: 0x09F7 [0x23] WAIT_FOR_DIALOG_INTERACTION
 19: 0x09F8 [0x45] LOAD_SCHEDULED_TASK: Load scheduler "qstc" with entities [LocalPlayer, LocalPlayer], work=[201*, 0*]
 20: 0x0A09 [0x21] END_EVENT
 21: 0x0A0A [0x00] END_REQSTACK()
```

### Event 10029

#### Metadata

| Field        | Value     |
|--------------|-----------|
| Entrypoint   | 0x0A0B    |
| Data Size    | 101 bytes |
| Instructions | 22        |

```
      00 01 02 03 04 05 06 07  08 09 0A 0B 0C 0D 0E 0F
      -- -- -- -- -- -- -- --  -- -- -- -- -- -- -- --
0A00:                                   42 4A F0 FF FF             BJ...
0A10: 7F 78 80 0F 01 6F 76 F0  FF FF 7F 1C 0F 80 4A 78  .x...ov.......Jx
0A20: 80 0F 01 F0 FF FF 7F 6F  76 78 80 0F 01 93 34 80  .......ovx....4.
0A30: 2B 78 80 0F 01 10 80 23  93 01 80 03 02 10 2B 80  +x.....#......+.
0A40: 2B 78 80 0F 01 2E 80 23  27 08 78 80 0F 01 14 2B  +x.....#'.x....+
0A50: 78 80 0F 01 2F 80 2A 08  78 80 0F 01 23 45 30 80  x.../.*.x...#E0.
0A60: F0 FF FF 7F F0 FF FF 7F  71 73 74 63 01 80 21 00  ........qstc..!.
```

#### Opcodes

```
  0: 0x0A0B [0x42] SET_CLI_EVENT_CANCEL_DATA()
  1: 0x0A0C [0x4A] LocalPlayer looks at Helina (ID: 17793144/0x010F8078)
  2: 0x0A15 [0x6F] WAIT_FRAME_DELAY: Yield until WaitTime reaches zero
  3: 0x0A16 [0x76] CHECK_ENTITY_RENDER_FLAGS: Wait until LocalPlayer Render.Flags0 and Render.Flags3 conditions are met
  4: 0x0A1B [0x1C] WAIT(20* ticks)
  5: 0x0A1E [0x4A] Helina (ID: 17793144/0x010F8078) looks at LocalPlayer
  6: 0x0A27 [0x6F] WAIT_FRAME_DELAY: Yield until WaitTime reaches zero
  7: 0x0A28 [0x76] CHECK_ENTITY_RENDER_FLAGS: Wait until Helina (ID: 17793144/0x010F8078) Render.Flags0 and Render.Flags3 conditions are met
  8: 0x0A2D [0x93] DISPLAY_ITEM_INFO(item_id=27277*)
  9: 0x0A30 [0x2B] Helina (ID: 17793144/0x010F8078) [7944*]:
    → "Here you are, my geomancer friend. Fine work, if I do say so myself."
 10: 0x0A37 [0x23] WAIT_FOR_DIALOG_INTERACTION
 11: 0x0A38 [0x93] DISPLAY_ITEM_INFO(item_id=0*)
 12: 0x0A3B [0x03] Work_Zone[2] = 3*
 13: 0x0A40 [0x2B] Helina (ID: 17793144/0x010F8078) [7960*]:
    → "Let the [senses/movements/fortitude/wildness/natural grace] of Sih Renaye embrace you."
 14: 0x0A47 [0x23] WAIT_FOR_DIALOG_INTERACTION
 15: 0x0A48 [0x27] REQ_SET(priority=0x08, entity_id=Helina (ID: 17793144/0x010F8078), tag_num=0x14)
 16: 0x0A4F [0x2B] Helina (ID: 17793144/0x010F8078) [7961*]:
    → "Feel the [scent/life/power/rhythm/warmth] of nature emanating from its azure cloth."
 17: 0x0A56 [0x2A] GET_REQ_LEVEL(level=8, entity_id=Helina (ID: 17793144/0x010F8078))
 18: 0x0A5C [0x23] WAIT_FOR_DIALOG_INTERACTION
 19: 0x0A5D [0x45] LOAD_SCHEDULED_TASK: Load scheduler "qstc" with entities [LocalPlayer, LocalPlayer], work=[201*, 0*]
 20: 0x0A6E [0x21] END_EVENT
 21: 0x0A6F [0x00] END_REQSTACK()
```

### Event 10030

#### Metadata

| Field        | Value     |
|--------------|-----------|
| Entrypoint   | 0x0A70    |
| Data Size    | 101 bytes |
| Instructions | 22        |

```
      00 01 02 03 04 05 06 07  08 09 0A 0B 0C 0D 0E 0F
      -- -- -- -- -- -- -- --  -- -- -- -- -- -- -- --
0A70: 42 4A F0 FF FF 7F 78 80  0F 01 6F 76 F0 FF FF 7F  BJ....x...ov....
0A80: 1C 0F 80 4A 78 80 0F 01  F0 FF FF 7F 6F 76 78 80  ...Jx.......ovx.
0A90: 0F 01 93 35 80 2B 78 80  0F 01 10 80 23 93 01 80  ...5.+x.....#...
0AA0: 03 02 10 24 80 2B 78 80  0F 01 2E 80 23 27 08 78  ...$.+x.....#'.x
0AB0: 80 0F 01 14 2B 78 80 0F  01 2F 80 2A 08 78 80 0F  ....+x.../.*.x..
0AC0: 01 23 45 30 80 F0 FF FF  7F F0 FF FF 7F 71 73 74  .#E0.........qst
0AD0: 63 01 80 21 00                                    c..!.           
```

#### Opcodes

```
  0: 0x0A70 [0x42] SET_CLI_EVENT_CANCEL_DATA()
  1: 0x0A71 [0x4A] LocalPlayer looks at Helina (ID: 17793144/0x010F8078)
  2: 0x0A7A [0x6F] WAIT_FRAME_DELAY: Yield until WaitTime reaches zero
  3: 0x0A7B [0x76] CHECK_ENTITY_RENDER_FLAGS: Wait until LocalPlayer Render.Flags0 and Render.Flags3 conditions are met
  4: 0x0A80 [0x1C] WAIT(20* ticks)
  5: 0x0A83 [0x4A] Helina (ID: 17793144/0x010F8078) looks at LocalPlayer
  6: 0x0A8C [0x6F] WAIT_FRAME_DELAY: Yield until WaitTime reaches zero
  7: 0x0A8D [0x76] CHECK_ENTITY_RENDER_FLAGS: Wait until Helina (ID: 17793144/0x010F8078) Render.Flags0 and Render.Flags3 conditions are met
  8: 0x0A92 [0x93] DISPLAY_ITEM_INFO(item_id=27451*)
  9: 0x0A95 [0x2B] Helina (ID: 17793144/0x010F8078) [7944*]:
    → "Here you are, my geomancer friend. Fine work, if I do say so myself."
 10: 0x0A9C [0x23] WAIT_FOR_DIALOG_INTERACTION
 11: 0x0A9D [0x93] DISPLAY_ITEM_INFO(item_id=0*)
 12: 0x0AA0 [0x03] Work_Zone[2] = 4*
 13: 0x0AA5 [0x2B] Helina (ID: 17793144/0x010F8078) [7960*]:
    → "Let the [senses/movements/fortitude/wildness/natural grace] of Sih Renaye embrace you."
 14: 0x0AAC [0x23] WAIT_FOR_DIALOG_INTERACTION
 15: 0x0AAD [0x27] REQ_SET(priority=0x08, entity_id=Helina (ID: 17793144/0x010F8078), tag_num=0x14)
 16: 0x0AB4 [0x2B] Helina (ID: 17793144/0x010F8078) [7961*]:
    → "Feel the [scent/life/power/rhythm/warmth] of nature emanating from its azure cloth."
 17: 0x0ABB [0x2A] GET_REQ_LEVEL(level=8, entity_id=Helina (ID: 17793144/0x010F8078))
 18: 0x0AC1 [0x23] WAIT_FOR_DIALOG_INTERACTION
 19: 0x0AC2 [0x45] LOAD_SCHEDULED_TASK: Load scheduler "qstc" with entities [LocalPlayer, LocalPlayer], work=[201*, 0*]
 20: 0x0AD3 [0x21] END_EVENT
 21: 0x0AD4 [0x00] END_REQSTACK()
```

### Event 10034

#### Metadata

| Field        | Value    |
|--------------|----------|
| Entrypoint   | 0x0AD5   |
| Data Size    | 43 bytes |
| Instructions | 11       |

```
      00 01 02 03 04 05 06 07  08 09 0A 0B 0C 0D 0E 0F
      -- -- -- -- -- -- -- --  -- -- -- -- -- -- -- --
0AD0:                4A F0 FF  FF 7F 78 80 0F 01 6F 76       J....x...ov
0AE0: F0 FF FF 7F 1C 0F 80 4A  78 80 0F 01 F0 FF FF 7F  .......Jx.......
0AF0: 6F 76 78 80 0F 01 2B 78  80 0F 01 55 80 23 21 00  ovx...+x...U.#!.
```

#### Opcodes

```
  0: 0x0AD5 [0x4A] LocalPlayer looks at Helina (ID: 17793144/0x010F8078)
  1: 0x0ADE [0x6F] WAIT_FRAME_DELAY: Yield until WaitTime reaches zero
  2: 0x0ADF [0x76] CHECK_ENTITY_RENDER_FLAGS: Wait until LocalPlayer Render.Flags0 and Render.Flags3 conditions are met
  3: 0x0AE4 [0x1C] WAIT(20* ticks)
  4: 0x0AE7 [0x4A] Helina (ID: 17793144/0x010F8078) looks at LocalPlayer
  5: 0x0AF0 [0x6F] WAIT_FRAME_DELAY: Yield until WaitTime reaches zero
  6: 0x0AF1 [0x76] CHECK_ENTITY_RENDER_FLAGS: Wait until Helina (ID: 17793144/0x010F8078) Render.Flags0 and Render.Flags3 conditions are met
  7: 0x0AF6 [0x2B] Helina (ID: 17793144/0x010F8078) [7962*]:
    → "I have completed all pieces of this geomantic attire, and will be more than willing to provide you with another should you lose the original."
  8: 0x0AFD [0x23] WAIT_FOR_DIALOG_INTERACTION
  9: 0x0AFE [0x21] END_EVENT
 10: 0x0AFF [0x00] END_REQSTACK()
```

### Event 10035

#### Metadata

| Field        | Value    |
|--------------|----------|
| Entrypoint   | 0x0B00   |
| Data Size    | 87 bytes |
| Instructions | 18       |

```
      00 01 02 03 04 05 06 07  08 09 0A 0B 0C 0D 0E 0F
      -- -- -- -- -- -- -- --  -- -- -- -- -- -- -- --
0B00: 42 4A F0 FF FF 7F 78 80  0F 01 6F 76 F0 FF FF 7F  BJ....x...ov....
0B10: 1C 0F 80 4A 78 80 0F 01  F0 FF FF 7F 6F 76 78 80  ...Jx.......ovx.
0B20: 0F 01 27 08 78 80 0F 01  14 03 02 10 2D 80 2B 78  ..'.x.......-.+x
0B30: 80 0F 01 2E 80 23 2B 78  80 0F 01 2F 80 2A 08 78  .....#+x.../.*.x
0B40: 80 0F 01 23 45 30 80 F0  FF FF 7F F0 FF FF 7F 71  ...#E0.........q
0B50: 73 74 63 01 80 21 00                              stc..!.         
```

#### Opcodes

```
  0: 0x0B00 [0x42] SET_CLI_EVENT_CANCEL_DATA()
  1: 0x0B01 [0x4A] LocalPlayer looks at Helina (ID: 17793144/0x010F8078)
  2: 0x0B0A [0x6F] WAIT_FRAME_DELAY: Yield until WaitTime reaches zero
  3: 0x0B0B [0x76] CHECK_ENTITY_RENDER_FLAGS: Wait until LocalPlayer Render.Flags0 and Render.Flags3 conditions are met
  4: 0x0B10 [0x1C] WAIT(20* ticks)
  5: 0x0B13 [0x4A] Helina (ID: 17793144/0x010F8078) looks at LocalPlayer
  6: 0x0B1C [0x6F] WAIT_FRAME_DELAY: Yield until WaitTime reaches zero
  7: 0x0B1D [0x76] CHECK_ENTITY_RENDER_FLAGS: Wait until Helina (ID: 17793144/0x010F8078) Render.Flags0 and Render.Flags3 conditions are met
  8: 0x0B22 [0x27] REQ_SET(priority=0x08, entity_id=Helina (ID: 17793144/0x010F8078), tag_num=0x14)
  9: 0x0B29 [0x03] Work_Zone[2] = 1*
 10: 0x0B2E [0x2B] Helina (ID: 17793144/0x010F8078) [7960*]:
    → "Let the [senses/movements/fortitude/wildness/natural grace] of Sih Renaye embrace you."
 11: 0x0B35 [0x23] WAIT_FOR_DIALOG_INTERACTION
 12: 0x0B36 [0x2B] Helina (ID: 17793144/0x010F8078) [7961*]:
    → "Feel the [scent/life/power/rhythm/warmth] of nature emanating from its azure cloth."
 13: 0x0B3D [0x2A] GET_REQ_LEVEL(level=8, entity_id=Helina (ID: 17793144/0x010F8078))
 14: 0x0B43 [0x23] WAIT_FOR_DIALOG_INTERACTION
 15: 0x0B44 [0x45] LOAD_SCHEDULED_TASK: Load scheduler "qstc" with entities [LocalPlayer, LocalPlayer], work=[201*, 0*]
 16: 0x0B55 [0x21] END_EVENT
 17: 0x0B56 [0x00] END_REQSTACK()
```

### Event 10023

#### Metadata

| Field        | Value    |
|--------------|----------|
| Entrypoint   | 0x0B57   |
| Data Size    | 43 bytes |
| Instructions | 11       |

```
      00 01 02 03 04 05 06 07  08 09 0A 0B 0C 0D 0E 0F
      -- -- -- -- -- -- -- --  -- -- -- -- -- -- -- --
0B50:                      4A  F0 FF FF 7F 78 80 0F 01         J....x...
0B60: 6F 76 F0 FF FF 7F 1C 0F  80 4A 78 80 0F 01 F0 FF  ov.......Jx.....
0B70: FF 7F 6F 76 78 80 0F 01  2B 78 80 0F 01 56 80 23  ..ovx...+x...V.#
0B80: 21 00                                             !.              
```

#### Opcodes

```
  0: 0x0B57 [0x4A] LocalPlayer looks at Helina (ID: 17793144/0x010F8078)
  1: 0x0B60 [0x6F] WAIT_FRAME_DELAY: Yield until WaitTime reaches zero
  2: 0x0B61 [0x76] CHECK_ENTITY_RENDER_FLAGS: Wait until LocalPlayer Render.Flags0 and Render.Flags3 conditions are met
  3: 0x0B66 [0x1C] WAIT(20* ticks)
  4: 0x0B69 [0x4A] Helina (ID: 17793144/0x010F8078) looks at LocalPlayer
  5: 0x0B72 [0x6F] WAIT_FRAME_DELAY: Yield until WaitTime reaches zero
  6: 0x0B73 [0x76] CHECK_ENTITY_RENDER_FLAGS: Wait until Helina (ID: 17793144/0x010F8078) Render.Flags0 and Render.Flags3 conditions are met
  7: 0x0B78 [0x2B] Helina (ID: 17793144/0x010F8078) [7943*]:
    → "Sorry to disappoint you, but your garments aren't ready yet."
  8: 0x0B7F [0x23] WAIT_FOR_DIALOG_INTERACTION
  9: 0x0B80 [0x21] END_EVENT
 10: 0x0B81 [0x00] END_REQSTACK()
```

### Event 10022

#### Metadata

| Field        | Value     |
|--------------|-----------|
| Entrypoint   | 0x0B82    |
| Data Size    | 359 bytes |
| Instructions | 62        |

```
      00 01 02 03 04 05 06 07  08 09 0A 0B 0C 0D 0E 0F
      -- -- -- -- -- -- -- --  -- -- -- -- -- -- -- --
0B80:       42 45 00 80 F0 FF  FF 7F F0 FF FF 7F 66 64    BE..........fd
0B90: 6F 31 01 80 55 00 80 F0  FF FF 7F F0 FF FF 7F 66  o1..U..........f
0BA0: 64 6F 31 46 01 38 02 80  75 00 03 80 75 01 92 01  do1F.8..u...u...
0BB0: 78 80 0F 01 94 01 78 80  0F 01 94 01 F0 FF FF 7F  x.....x.........
0BC0: BA F0 FF FF 7F 08 80 09  80 0A 80 0B 80 80 78 80  ..............x.
0BD0: 0F 01 80 F0 FF FF 7F 45  57 80 F0 FF FF 7F F0 FF  .......EW.......
0BE0: FF 7F 67 65 6F 33 01 80  1C 0D 80 45 00 80 F0 FF  ..geo3.....E....
0BF0: FF 7F F0 FF FF 7F 66 64  69 31 01 80 06 01 10 4A  ......fdi1.....J
0C00: F0 FF FF 7F 78 80 0F 01  6F 76 F0 FF FF 7F 1C 0F  ....x...ov......
0C10: 80 4A 78 80 0F 01 F0 FF  FF 7F 6F 76 78 80 0F 01  .Jx.......ovx...
0C20: 2B 78 80 0F 01 58 80 23  03 02 10 59 80 03 03 10  +x...X.#...Y....
0C30: 5A 80 24 5B 80 01 80 01  80 25 02 00 10 01 80 00  Z.$[.....%......
0C40: 83 0C 42 27 08 78 80 0F  01 10 2B 78 80 0F 01 5C  ..B'.x....+x...\
0C50: 80 23 2B 78 80 0F 01 5D  80 2A 08 78 80 0F 01 23  .#+x...].*.x...#
0C60: 27 08 78 80 0F 01 11 2B  78 80 0F 01 5E 80 23 2B  '.x....+x...^.#+
0C70: 78 80 0F 01 5F 80 2A 08  78 80 0F 01 23 05 01 10  x..._.*.x...#...
0C80: 01 99 0C 02 00 10 2D 80  00 99 0C 2B 78 80 0F 01  ......-....+x...
0C90: 60 80 23 06 01 10 01 99  0C 45 00 80 F0 FF FF 7F  `.#......E......
0CA0: F0 FF FF 7F 66 64 6F 31  01 80 55 00 80 F0 FF FF  ....fdo1..U.....
0CB0: 7F F0 FF FF 7F 66 64 6F  31 52 57 80 F8 FF FF 7F  .....fdo1RW.....
0CC0: F8 FF FF 7F 67 65 6F 33  1C 0D 80 AB 11 01 80 1C  ....geo3........
0CD0: 2D 80 AB 0A 46 00 45 00  80 F0 FF FF 7F F0 FF FF  -...F.E.........
0CE0: 7F 66 64 69 32 01 80 21  00                       .fdi2..!.       
```

#### Opcodes

```
  0: 0x0B82 [0x42] SET_CLI_EVENT_CANCEL_DATA()
  1: 0x0B83 [0x45] LOAD_SCHEDULED_TASK: Load scheduler "fdo1" with entities [LocalPlayer, LocalPlayer], work=[200*, 0*]
  2: 0x0B94 [0x55] WAIT_LOAD_SCHEDULER: Wait for scheduler "fdo1" with entities [LocalPlayer, LocalPlayer], work=200*
  3: 0x0BA3 [0x46] CAMERA_CONTROL: Disable user control
  4: 0x0BA5 [0x38] SET_CLIENT_EVENT_MODE(mode=27*)
  5: 0x0BA8 [0x75] LOAD_ROOM(Load indoor room, room=481*)
  6: 0x0BAC [0x75] LOAD_ROOM(No action)
  7: 0x0BAE [0x92] Helina (ID: 17793144/0x010F8078)->Render.Flags3 ^= 0x01
  8: 0x0BB4 [0x94] Helina (ID: 17793144/0x010F8078)->Render.Flags3 ^= 0x01
  9: 0x0BBA [0x94] LocalPlayer->Render.Flags3 ^= 0x01
 10: 0x0BC0 [0xBA] SET_ENTITY_POSITION(entity_id=LocalPlayer, pos_x=18.017*, pos_z=10.652*, pos_y=-7.287*, direction=321.6°*)
 11: 0x0BCD [0x80] LOAD_WAIT(entity=Helina (ID: 17793144/0x010F8078))
 12: 0x0BD2 [0x80] LOAD_WAIT(entity=LocalPlayer)
 13: 0x0BD7 [0x45] LOAD_SCHEDULED_TASK: Load scheduler "geo3" with entities [LocalPlayer, LocalPlayer], work=[709*, 0*]
 14: 0x0BE8 [0x1C] WAIT(15* ticks)
 15: 0x0BEB [0x45] LOAD_SCHEDULED_TASK: Load scheduler "fdi1" with entities [LocalPlayer, LocalPlayer], work=[200*, 0*]
 16: 0x0BFC [0x06] Work_Zone[1] = 0
 17: 0x0BFF [0x4A] LocalPlayer looks at Helina (ID: 17793144/0x010F8078)
 18: 0x0C08 [0x6F] WAIT_FRAME_DELAY: Yield until WaitTime reaches zero
 19: 0x0C09 [0x76] CHECK_ENTITY_RENDER_FLAGS: Wait until LocalPlayer Render.Flags0 and Render.Flags3 conditions are met
 20: 0x0C0E [0x1C] WAIT(20* ticks)
 21: 0x0C11 [0x4A] Helina (ID: 17793144/0x010F8078) looks at LocalPlayer
 22: 0x0C1A [0x6F] WAIT_FRAME_DELAY: Yield until WaitTime reaches zero
 23: 0x0C1B [0x76] CHECK_ENTITY_RENDER_FLAGS: Wait until Helina (ID: 17793144/0x010F8078) Render.Flags0 and Render.Flags3 conditions are met
 24: 0x0C20 [0x2B] Helina (ID: 17793144/0x010F8078) [7936*]:
    → "Tell me, adventurer. What use do you have for a humble seamstress?"
 25: 0x0C27 [0x23] WAIT_FOR_DIALOG_INTERACTION
 26: 0x0C28 [0x03] Work_Zone[2] = 2794*
 27: 0x0C2D [0x03] Work_Zone[3] = 2798*
 28: 0x0C32 [0x24] CREATE_DIALOG(message_id=7937*, default_option=0*, option_flags=0*)
    → "Give her Hostenn's effects? [Here you go./No. I want to hold onto them.]"
 29: 0x0C39 [0x25] WAIT_DIALOG_SELECT()
 30: 0x0C3A [0x02] IF !(Work_Zone[0] == 0*) GOTO 0x0C83
 31: 0x0C42 [0x42] SET_CLI_EVENT_CANCEL_DATA()
 32: 0x0C43 [0x27] REQ_SET(priority=0x08, entity_id=Helina (ID: 17793144/0x010F8078), tag_num=0x10)
 33: 0x0C4A [0x2B] Helina (ID: 17793144/0x010F8078) [7939*]:
    → "Well, well, you bring me a most intriguing specimen. You must be quite the accomplished geomancer to have come across such materials and methods."
 34: 0x0C51 [0x23] WAIT_FOR_DIALOG_INTERACTION
 35: 0x0C52 [0x2B] Helina (ID: 17793144/0x010F8078) [7940*]:
    → "And here I thought such techniques had been lost to the ages."
 36: 0x0C59 [0x2A] GET_REQ_LEVEL(level=8, entity_id=Helina (ID: 17793144/0x010F8078))
 37: 0x0C5F [0x23] WAIT_FOR_DIALOG_INTERACTION
 38: 0x0C60 [0x27] REQ_SET(priority=0x08, entity_id=Helina (ID: 17793144/0x010F8078), tag_num=0x11)
 39: 0x0C67 [0x2B] Helina (ID: 17793144/0x010F8078) [7941*]:
    → "Don't worry--I have no plans to bombard you with tales of how to cut the cloth, or how my ancestors toiled endless hours to craft even the slightest..."
 40: 0x0C6E [0x23] WAIT_FOR_DIALOG_INTERACTION
 41: 0x0C6F [0x2B] Helina (ID: 17793144/0x010F8078) [7942*]:
    → "Oops! Sorry about that. I'll get started right away, although it may take a short while before your piece is complete."
 42: 0x0C76 [0x2A] GET_REQ_LEVEL(level=8, entity_id=Helina (ID: 17793144/0x010F8078))
 43: 0x0C7C [0x23] WAIT_FOR_DIALOG_INTERACTION
 44: 0x0C7D [0x05] Work_Zone[1] = 1
 45: 0x0C80 [0x01] GOTO 0x0C99
 46: 0x0C83 [0x02] IF !(Work_Zone[0] == 1*) GOTO 0x0C99
 47: 0x0C8B [0x2B] Helina (ID: 17793144/0x010F8078) [7938*]:
    → "The guild has all manner of wares for sale. Let me know if any pique your interest."
 48: 0x0C92 [0x23] WAIT_FOR_DIALOG_INTERACTION
 49: 0x0C93 [0x06] Work_Zone[1] = 0
 50: 0x0C96 [0x01] GOTO 0x0C99

SUBROUTINE_0C99:
 51: 0x0C99 [0x45] LOAD_SCHEDULED_TASK: Load scheduler "fdo1" with entities [LocalPlayer, LocalPlayer], work=[200*, 0*]
 52: 0x0CAA [0x55] WAIT_LOAD_SCHEDULER: Wait for scheduler "fdo1" with entities [LocalPlayer, LocalPlayer], work=200*
 53: 0x0CB9 [0x52] END_LOAD_SCHEDULER: End scheduler "geo3" with entities [EventEntity, EventEntity], work=709*
 54: 0x0CC8 [0x1C] WAIT(15* ticks)
 55: 0x0CCB [0xAB] EventEntity->DespawnValue = 0* // Set despawn value
 56: 0x0CCF [0x1C] WAIT(1* ticks)
 57: 0x0CD2 [0xAB] EventEntity->UnknownFlag = 0 // Disable unknown flag
 58: 0x0CD4 [0x46] CAMERA_CONTROL: Restore default settings
 59: 0x0CD6 [0x45] LOAD_SCHEDULED_TASK: Load scheduler "fdi2" with entities [LocalPlayer, LocalPlayer], work=[200*, 0*]
 60: 0x0CE7 [0x21] END_EVENT
 61: 0x0CE8 [0x00] END_REQSTACK()
```
