# 17793057 - Vuntar

## Common Data

| Field            | Value             |
|------------------|-------------------|
| Zone             | Selbina (ID: 248) |
| Block Size       | 440 bytes         |
| Total Events     | 6                 |
| References Count | 13                |

## List of Events

| Event ID              | Entrypoint   |   Size |   Instructions |
|-----------------------|--------------|--------|----------------|
| [65535](#event-65535) | 0x0000       |      1 |              1 |
| [53](#event-53)       | 0x0001       |    124 |             22 |
| [50](#event-50)       | 0x007D       |    129 |             21 |
| [51](#event-51)       | 0x00FE       |     28 |              8 |
| [52](#event-52)       | 0x011A       |     53 |             12 |
| [1134](#event-1134)   | 0x014F       |     11 |              5 |

## DAT References (imed_data)

|   Index | Hex Value   |   Dec Value |
|---------|-------------|-------------|
|       0 | 0x0002      |           2 |
|       1 | 0x0000      |           0 |
|       2 | 0x0037      |          55 |
|       3 | 0x1A7E      |        6782 |
|       4 | 0x1A7F      |        6783 |
|       5 | 0x0001      |           1 |
|       6 | 0x1A7D      |        6781 |
|       7 | 0x1A80      |        6784 |
|       8 | 0x1A81      |        6785 |
|       9 | 0x000A      |          10 |
|      10 | 0x1A82      |        6786 |
|      11 | 0x00C9      |         201 |
|      12 | 0x1A83      |        6787 |

## String References

- **6781**: Yeah? Who the heck are you? If you wanna be somebody, get some more experience under your belt!
- **6782**: We work the docks, loading the ships with cargo. You know, ships can't sail without food and water, but they take up precious cargo space.
- **6783**: So, long ago one sea dog had an idea. He figured that $0 are loaded with water and nutrition. He could kill two birds with one stone.
- **6784**: The thing was, regular $0 didn't work! He needed the ones crawlers like to hoard in their nests. The more aged, the better!
- **6785**: If you ever get your hands on some $0, bring them on back to me here. And the older they are, the more I'll pay!
- **6786**: Hey, thanks a lot. Bring me all you find; there's more gil where that came from!
- **6787**: I'm a little short on gil at the moment. I'll buy your $0 once my wages come in...

## Events

### Event 65535

#### Metadata

| Field        | Value   |
|--------------|---------|
| Entrypoint   | 0x0000  |
| Data Size    | 1 bytes |
| Instructions | 1       |

```
      00 01 02 03 04 05 06 07  08 09 0A 0B 0C 0D 0E 0F
      -- -- -- -- -- -- -- --  -- -- -- -- -- -- -- --
0000: 00                                                .               
```

#### Opcodes

```
  0: 0x0000 [0x00] END_REQSTACK()
```

### Event 53

#### Metadata

| Field        | Value     |
|--------------|-----------|
| Entrypoint   | 0x0001    |
| Data Size    | 124 bytes |
| Instructions | 22        |

```
      00 01 02 03 04 05 06 07  08 09 0A 0B 0C 0D 0E 0F
      -- -- -- -- -- -- -- --  -- -- -- -- -- -- -- --
0000:    1E F0 FF FF 7F 12 00  00 3F 00 00 00 00 00 80   ........?......
0010: 6F 70 02 00 00 01 80 80  5D 00 5B 02 80 F8 FF FF  op......].[.....
0020: 7F F8 FF FF 7F 74 6C 6B  30 1D 03 80 23 53 F8 FF  .....tlk0...#S..
0030: FF 7F F8 FF FF 7F 74 6C  6B 30 5B 02 80 F8 FF FF  ......tlk0[.....
0040: 7F F8 FF FF 7F 74 68 61  31 1D 04 80 23 53 F8 FF  .....tha1...#S..
0050: FF 7F F8 FF FF 7F 74 68  61 31 01 7B 00 02 00 00  ......tha1.{....
0060: 05 80 80 7B 00 5B 02 80  F8 FF FF 7F F8 FF FF 7F  ...{.[..........
0070: 74 6C 6B 30 1D 06 80 23  01 7B 00 21 00           tlk0...#.{.!.   
```

#### Opcodes

```
  0: 0x0001 [0x1E] EventEntity looks at LocalPlayer and starts talking
  1: 0x0006 [0x12] ExtData[1]->WorkLocal[0] = rand()
  2: 0x0009 [0x3F] ExtData[1]->WorkLocal[0] = ExtData[1]->WorkLocal[0] % 2*
  3: 0x0010 [0x6F] WAIT_FRAME_DELAY: Yield until WaitTime reaches zero
  4: 0x0011 [0x70] WAIT_ENTITY_RENDER_FLAG: Wait while EventEntity->Render.Flags3 bit 2 is set (cancel turn if not)
  5: 0x0012 [0x02] IF !(ExtData[1]->WorkLocal[0] == 0*) GOTO 0x005D
  6: 0x001A [0x5B] LOAD_EXT_SCHEDULER: Load scheduler "tlk0" with entities [EventEntity, EventEntity], work=55*
  7: 0x0029 [0x1D] PRINT_EVENT_MESSAGE(message_id=6782*)
    → "We work the docks, loading the ships with cargo. You know, ships can't sail without food and water, but they take up precious cargo space."
  8: 0x002C [0x23] WAIT_FOR_DIALOG_INTERACTION
  9: 0x002D [0x53] WAIT_SCHEDULER_TASK: Wait for scheduler "tlk0" with entities [EventEntity, EventEntity]
 10: 0x003A [0x5B] LOAD_EXT_SCHEDULER: Load scheduler "tha1" with entities [EventEntity, EventEntity], work=55*
 11: 0x0049 [0x1D] PRINT_EVENT_MESSAGE(message_id=6783*)
    → "So, long ago one sea dog had an idea. He figured that $0 are loaded with water and nutrition. He could kill two birds with one stone."
 12: 0x004C [0x23] WAIT_FOR_DIALOG_INTERACTION
 13: 0x004D [0x53] WAIT_SCHEDULER_TASK: Wait for scheduler "tha1" with entities [EventEntity, EventEntity]
 14: 0x005A [0x01] GOTO 0x007B
 15: 0x005D [0x02] IF !(ExtData[1]->WorkLocal[0] == 1*) GOTO 0x007B
 16: 0x0065 [0x5B] LOAD_EXT_SCHEDULER: Load scheduler "tlk0" with entities [EventEntity, EventEntity], work=55*
 17: 0x0074 [0x1D] PRINT_EVENT_MESSAGE(message_id=6781*)
    → "Yeah? Who the heck are you? If you wanna be somebody, get some more experience under your belt!"
 18: 0x0077 [0x23] WAIT_FOR_DIALOG_INTERACTION
 19: 0x0078 [0x01] GOTO 0x007B

SUBROUTINE_007B:
 20: 0x007B [0x21] END_EVENT
 21: 0x007C [0x00] END_REQSTACK()
```

### Event 50

#### Metadata

| Field        | Value     |
|--------------|-----------|
| Entrypoint   | 0x007D    |
| Data Size    | 129 bytes |
| Instructions | 21        |

```
      00 01 02 03 04 05 06 07  08 09 0A 0B 0C 0D 0E 0F
      -- -- -- -- -- -- -- --  -- -- -- -- -- -- -- --
0070:                                         1E F0 FF               ...
0080: FF 7F 6F 70 5B 02 80 F8  FF FF 7F F8 FF FF 7F 74  ..op[..........t
0090: 6C 6B 30 1D 03 80 23 53  F8 FF FF 7F F8 FF FF 7F  lk0...#S........
00A0: 74 6C 6B 30 5B 02 80 F8  FF FF 7F F8 FF FF 7F 74  tlk0[..........t
00B0: 68 61 31 1D 04 80 23 53  F8 FF FF 7F F8 FF FF 7F  ha1...#S........
00C0: 74 68 61 31 5B 02 80 F8  FF FF 7F F8 FF FF 7F 74  tha1[..........t
00D0: 68 61 32 53 F8 FF FF 7F  F8 FF FF 7F 74 68 61 32  ha2S........tha2
00E0: 5B 02 80 F8 FF FF 7F F8  FF FF 7F 74 6C 6B 30 1D  [..........tlk0.
00F0: 07 80 23 1D 08 80 23 03  01 10 09 80 21 00        ..#...#.....!.  
```

#### Opcodes

```
  0: 0x007D [0x1E] EventEntity looks at LocalPlayer and starts talking
  1: 0x0082 [0x6F] WAIT_FRAME_DELAY: Yield until WaitTime reaches zero
  2: 0x0083 [0x70] WAIT_ENTITY_RENDER_FLAG: Wait while EventEntity->Render.Flags3 bit 2 is set (cancel turn if not)
  3: 0x0084 [0x5B] LOAD_EXT_SCHEDULER: Load scheduler "tlk0" with entities [EventEntity, EventEntity], work=55*
  4: 0x0093 [0x1D] PRINT_EVENT_MESSAGE(message_id=6782*)
    → "We work the docks, loading the ships with cargo. You know, ships can't sail without food and water, but they take up precious cargo space."
  5: 0x0096 [0x23] WAIT_FOR_DIALOG_INTERACTION
  6: 0x0097 [0x53] WAIT_SCHEDULER_TASK: Wait for scheduler "tlk0" with entities [EventEntity, EventEntity]
  7: 0x00A4 [0x5B] LOAD_EXT_SCHEDULER: Load scheduler "tha1" with entities [EventEntity, EventEntity], work=55*
  8: 0x00B3 [0x1D] PRINT_EVENT_MESSAGE(message_id=6783*)
    → "So, long ago one sea dog had an idea. He figured that $0 are loaded with water and nutrition. He could kill two birds with one stone."
  9: 0x00B6 [0x23] WAIT_FOR_DIALOG_INTERACTION
 10: 0x00B7 [0x53] WAIT_SCHEDULER_TASK: Wait for scheduler "tha1" with entities [EventEntity, EventEntity]
 11: 0x00C4 [0x5B] LOAD_EXT_SCHEDULER: Load scheduler "tha2" with entities [EventEntity, EventEntity], work=55*
 12: 0x00D3 [0x53] WAIT_SCHEDULER_TASK: Wait for scheduler "tha2" with entities [EventEntity, EventEntity]
 13: 0x00E0 [0x5B] LOAD_EXT_SCHEDULER: Load scheduler "tlk0" with entities [EventEntity, EventEntity], work=55*
 14: 0x00EF [0x1D] PRINT_EVENT_MESSAGE(message_id=6784*)
    → "The thing was, regular $0 didn't work! He needed the ones crawlers like to hoard in their nests. The more aged, the better!"
 15: 0x00F2 [0x23] WAIT_FOR_DIALOG_INTERACTION
 16: 0x00F3 [0x1D] PRINT_EVENT_MESSAGE(message_id=6785*)
    → "If you ever get your hands on some $0, bring them on back to me here. And the older they are, the more I'll pay!"
 17: 0x00F6 [0x23] WAIT_FOR_DIALOG_INTERACTION
 18: 0x00F7 [0x03] Work_Zone[1] = 10*
 19: 0x00FC [0x21] END_EVENT
 20: 0x00FD [0x00] END_REQSTACK()
```

### Event 51

#### Metadata

| Field        | Value    |
|--------------|----------|
| Entrypoint   | 0x00FE   |
| Data Size    | 28 bytes |
| Instructions | 8        |

```
      00 01 02 03 04 05 06 07  08 09 0A 0B 0C 0D 0E 0F
      -- -- -- -- -- -- -- --  -- -- -- -- -- -- -- --
00F0:                                            1E F0                ..
0100: FF FF 7F 6F 70 5B 02 80  F8 FF FF 7F F8 FF FF 7F  ...op[..........
0110: 74 6C 6B 30 1D 08 80 23  21 00                    tlk0...#!.      
```

#### Opcodes

```
  0: 0x00FE [0x1E] EventEntity looks at LocalPlayer and starts talking
  1: 0x0103 [0x6F] WAIT_FRAME_DELAY: Yield until WaitTime reaches zero
  2: 0x0104 [0x70] WAIT_ENTITY_RENDER_FLAG: Wait while EventEntity->Render.Flags3 bit 2 is set (cancel turn if not)
  3: 0x0105 [0x5B] LOAD_EXT_SCHEDULER: Load scheduler "tlk0" with entities [EventEntity, EventEntity], work=55*
  4: 0x0114 [0x1D] PRINT_EVENT_MESSAGE(message_id=6785*)
    → "If you ever get your hands on some $0, bring them on back to me here. And the older they are, the more I'll pay!"
  5: 0x0117 [0x23] WAIT_FOR_DIALOG_INTERACTION
  6: 0x0118 [0x21] END_EVENT
  7: 0x0119 [0x00] END_REQSTACK()
```

### Event 52

#### Metadata

| Field        | Value    |
|--------------|----------|
| Entrypoint   | 0x011A   |
| Data Size    | 53 bytes |
| Instructions | 12       |

```
      00 01 02 03 04 05 06 07  08 09 0A 0B 0C 0D 0E 0F
      -- -- -- -- -- -- -- --  -- -- -- -- -- -- -- --
0110:                                42 20 01 03 01 10            B ....
0120: 02 10 1E F0 FF FF 7F 6F  70 5B 02 80 F8 FF FF 7F  .......op[......
0130: F8 FF FF 7F 74 6C 6B 30  1D 0A 80 23 45 0B 80 F0  ....tlk0...#E...
0140: FF FF 7F F0 FF FF 7F 71  73 74 63 01 80 21 00     .......qstc..!. 
```

#### Opcodes

```
  0: 0x011A [0x42] SET_CLI_EVENT_CANCEL_DATA()
  1: 0x011B [0x20] SET_CLI_EVENT_UC_FLAG: Lock player control
  2: 0x011D [0x03] Work_Zone[1] = Work_Zone[2]
  3: 0x0122 [0x1E] EventEntity looks at LocalPlayer and starts talking
  4: 0x0127 [0x6F] WAIT_FRAME_DELAY: Yield until WaitTime reaches zero
  5: 0x0128 [0x70] WAIT_ENTITY_RENDER_FLAG: Wait while EventEntity->Render.Flags3 bit 2 is set (cancel turn if not)
  6: 0x0129 [0x5B] LOAD_EXT_SCHEDULER: Load scheduler "tlk0" with entities [EventEntity, EventEntity], work=55*
  7: 0x0138 [0x1D] PRINT_EVENT_MESSAGE(message_id=6786*)
    → "Hey, thanks a lot. Bring me all you find; there's more gil where that came from!"
  8: 0x013B [0x23] WAIT_FOR_DIALOG_INTERACTION
  9: 0x013C [0x45] LOAD_SCHEDULED_TASK: Load scheduler "qstc" with entities [LocalPlayer, LocalPlayer], work=[201*, 0*]
 10: 0x014D [0x21] END_EVENT
 11: 0x014E [0x00] END_REQSTACK()
```

### Event 1134

#### Metadata

| Field        | Value    |
|--------------|----------|
| Entrypoint   | 0x014F   |
| Data Size    | 11 bytes |
| Instructions | 5        |

```
      00 01 02 03 04 05 06 07  08 09 0A 0B 0C 0D 0E 0F
      -- -- -- -- -- -- -- --  -- -- -- -- -- -- -- --
0140:                                               1E                 .
0150: F0 FF FF 7F 1D 0C 80 23  21 00                    .......#!.      
```

#### Opcodes

```
  0: 0x014F [0x1E] EventEntity looks at LocalPlayer and starts talking
  1: 0x0154 [0x1D] PRINT_EVENT_MESSAGE(message_id=6787*)
    → "I'm a little short on gil at the moment. I'll buy your $0 once my wages come in..."
  2: 0x0157 [0x23] WAIT_FOR_DIALOG_INTERACTION
  3: 0x0158 [0x21] END_EVENT
  4: 0x0159 [0x00] END_REQSTACK()
```
