# 17793030 - Velema

## Common Data

| Field            | Value             |
|------------------|-------------------|
| Zone             | Selbina (ID: 248) |
| Block Size       | 420 bytes         |
| Total Events     | 3                 |
| References Count | 14                |

## List of Events

| Event ID              | Entrypoint   |   Size |   Instructions |
|-----------------------|--------------|--------|----------------|
| [65535](#event-65535) | 0x0000       |      1 |              1 |
| [10](#event-10)       | 0x0001       |    260 |             36 |
| [11](#event-11)       | 0x0105       |     74 |             19 |

## DAT References (imed_data)

|   Index | Hex Value   |   Dec Value |
|---------|-------------|-------------|
|       0 | 0x001E      |          30 |
|       1 | 0x1A26      |        6694 |
|       2 | 0x1A21      |        6689 |
|       3 | 0x0000      |           0 |
|       4 | 0x1A27      |        6695 |
|       5 | 0x00C8      |         200 |
|       6 | 0x0094      |         148 |
|       7 | 0x1A28      |        6696 |
|       8 | 0x0001      |           1 |
|       9 | 0x1A29      |        6697 |
|      10 | 0x0002      |           2 |
|      11 | 0x1B5E      |        7006 |
|      12 | 0x1B5F      |        7007 |
|      13 | 0x1B60      |        7008 |

## String References

- **6689**: Well, is it? [Why, yes./No, I come here all the time.]
- **6694**: Well, well. Nice to see a new face. This your first time to Selbina?
- **6695**: Oh. I think you should go see the mayor.
- **6696**: His office is way over on the west side of town, atop the tallest hill.
- **6697**: Oh. By the way, it's a good idea to show your face to our mayor if you still haven't.
- **7006**: I'm Velema. I keep watch over the docks.
- **7007**: Is there a problem? See the mayor if you have any questions.
- **7008**: Visitors often ask me how to find the mines of Palborough. What could they want from its dark and twisting tunnels?

## Events

### Event 65535

#### Metadata

| Field        | Value   |
|--------------|---------|
| Entrypoint   | 0x0000  |
| Data Size    | 1 bytes |
| Instructions | 1       |

```
      00 01 02 03 04 05 06 07  08 09 0A 0B 0C 0D 0E 0F
      -- -- -- -- -- -- -- --  -- -- -- -- -- -- -- --
0000: 00                                                .               
```

#### Opcodes

```
  0: 0x0000 [0x00] END_REQSTACK()
```

### Event 10

#### Metadata

| Field        | Value     |
|--------------|-----------|
| Entrypoint   | 0x0001    |
| Data Size    | 260 bytes |
| Instructions | 36        |

```
      00 01 02 03 04 05 06 07  08 09 0A 0B 0C 0D 0E 0F
      -- -- -- -- -- -- -- --  -- -- -- -- -- -- -- --
0000:    1E F0 FF FF 7F 6F 70  66 00 80 F8 FF FF 7F F8   .....opf.......
0010: FF FF 7F 74 6C 6B 30 1D  01 80 23 5E 69 64 6C 30  ...tlk0...#^idl0
0020: 24 02 80 03 80 03 80 25  02 00 10 03 80 00 E0 00  $......%........
0030: 42 1D 04 80 23 45 05 80  F0 FF FF 7F F0 FF FF 7F  B...#E..........
0040: 66 64 6F 31 03 80 55 05  80 F0 FF FF 7F F0 FF FF  fdo1..U.........
0050: 7F 66 64 6F 31 46 01 45  06 80 F0 FF FF 7F F0 FF  .fdo1F.E........
0060: FF 7F 73 65 30 33 03 80  45 05 80 F0 FF FF 7F F0  ..se03..E.......
0070: FF FF 7F 66 64 69 31 03  80 55 05 80 F0 FF FF 7F  ...fdi1..U......
0080: F0 FF FF 7F 66 64 69 31  1D 07 80 23 55 06 80 F0  ....fdi1...#U...
0090: FF FF 7F F0 FF FF 7F 73  65 30 33 45 05 80 F0 FF  .......se03E....
00A0: FF 7F F0 FF FF 7F 66 64  6F 31 03 80 55 05 80 F0  ......fdo1..U...
00B0: FF FF 7F F0 FF FF 7F 66  64 6F 31 46 00 55 05 80  .......fdo1F.U..
00C0: F0 FF FF 7F F0 FF FF 7F  66 64 69 31 45 05 80 F0  ........fdi1E...
00D0: FF FF 7F F0 FF FF 7F 66  64 69 31 03 80 01 FE 00  .......fdi1.....
00E0: 02 00 10 08 80 00 FE 00  66 00 80 F8 FF FF 7F F8  ........f.......
00F0: FF FF 7F 74 6C 6B 30 1D  09 80 23 01 FE 00 03 01  ...tlk0...#.....
0100: 10 0A 80 21 00                                    ...!.           
```

#### Opcodes

```
  0: 0x0001 [0x1E] EventEntity looks at LocalPlayer and starts talking
  1: 0x0006 [0x6F] WAIT_FRAME_DELAY: Yield until WaitTime reaches zero
  2: 0x0007 [0x70] WAIT_ENTITY_RENDER_FLAG: Wait while EventEntity->Render.Flags3 bit 2 is set (cancel turn if not)
  3: 0x0008 [0x66] LOAD_EXT_SCHEDULER_MAIN: Load scheduler "tlk0" with entities [EventEntity, EventEntity], work=30*
  4: 0x0017 [0x1D] PRINT_EVENT_MESSAGE(message_id=6694*)
    → "Well, well. Nice to see a new face. This your first time to Selbina?"
  5: 0x001A [0x23] WAIT_FOR_DIALOG_INTERACTION
  6: 0x001B [0x5E] EventEntity goes idle (kills current action) (animation: "idl0")
  7: 0x0020 [0x24] CREATE_DIALOG(message_id=6689*, default_option=0*, option_flags=0*)
    → "Well, is it? [Why, yes./No, I come here all the time.]"
  8: 0x0027 [0x25] WAIT_DIALOG_SELECT()
  9: 0x0028 [0x02] IF !(Work_Zone[0] == 0*) GOTO 0x00E0
 10: 0x0030 [0x42] SET_CLI_EVENT_CANCEL_DATA()
 11: 0x0031 [0x1D] PRINT_EVENT_MESSAGE(message_id=6695*)
    → "Oh. I think you should go see the mayor."
 12: 0x0034 [0x23] WAIT_FOR_DIALOG_INTERACTION
 13: 0x0035 [0x45] LOAD_SCHEDULED_TASK: Load scheduler "fdo1" with entities [LocalPlayer, LocalPlayer], work=[200*, 0*]
 14: 0x0046 [0x55] WAIT_LOAD_SCHEDULER: Wait for scheduler "fdo1" with entities [LocalPlayer, LocalPlayer], work=200*
 15: 0x0055 [0x46] CAMERA_CONTROL: Disable user control
 16: 0x0057 [0x45] LOAD_SCHEDULED_TASK: Load scheduler "se03" with entities [LocalPlayer, LocalPlayer], work=[148*, 0*]
 17: 0x0068 [0x45] LOAD_SCHEDULED_TASK: Load scheduler "fdi1" with entities [LocalPlayer, LocalPlayer], work=[200*, 0*]
 18: 0x0079 [0x55] WAIT_LOAD_SCHEDULER: Wait for scheduler "fdi1" with entities [LocalPlayer, LocalPlayer], work=200*
 19: 0x0088 [0x1D] PRINT_EVENT_MESSAGE(message_id=6696*)
    → "His office is way over on the west side of town, atop the tallest hill."
 20: 0x008B [0x23] WAIT_FOR_DIALOG_INTERACTION
 21: 0x008C [0x55] WAIT_LOAD_SCHEDULER: Wait for scheduler "se03" with entities [LocalPlayer, LocalPlayer], work=148*
 22: 0x009B [0x45] LOAD_SCHEDULED_TASK: Load scheduler "fdo1" with entities [LocalPlayer, LocalPlayer], work=[200*, 0*]
 23: 0x00AC [0x55] WAIT_LOAD_SCHEDULER: Wait for scheduler "fdo1" with entities [LocalPlayer, LocalPlayer], work=200*
 24: 0x00BB [0x46] CAMERA_CONTROL: Restore default settings
 25: 0x00BD [0x55] WAIT_LOAD_SCHEDULER: Wait for scheduler "fdi1" with entities [LocalPlayer, LocalPlayer], work=200*
 26: 0x00CC [0x45] LOAD_SCHEDULED_TASK: Load scheduler "fdi1" with entities [LocalPlayer, LocalPlayer], work=[200*, 0*]
 27: 0x00DD [0x01] GOTO 0x00FE
 28: 0x00E0 [0x02] IF !(Work_Zone[0] == 1*) GOTO 0x00FE
 29: 0x00E8 [0x66] LOAD_EXT_SCHEDULER_MAIN: Load scheduler "tlk0" with entities [EventEntity, EventEntity], work=30*
 30: 0x00F7 [0x1D] PRINT_EVENT_MESSAGE(message_id=6697*)
    → "Oh. By the way, it's a good idea to show your face to our mayor if you still haven't."
 31: 0x00FA [0x23] WAIT_FOR_DIALOG_INTERACTION
 32: 0x00FB [0x01] GOTO 0x00FE

SUBROUTINE_00FE:
 33: 0x00FE [0x03] Work_Zone[1] = 2*
 34: 0x0103 [0x21] END_EVENT
 35: 0x0104 [0x00] END_REQSTACK()
```

### Event 11

#### Metadata

| Field        | Value    |
|--------------|----------|
| Entrypoint   | 0x0105   |
| Data Size    | 74 bytes |
| Instructions | 19       |

```
      00 01 02 03 04 05 06 07  08 09 0A 0B 0C 0D 0E 0F
      -- -- -- -- -- -- -- --  -- -- -- -- -- -- -- --
0100:                1E F0 FF  FF 7F 13 00 00 0A 80 6F       ..........o
0110: 70 66 00 80 F8 FF FF 7F  F8 FF FF 7F 74 6C 6B 30  pf..........tlk0
0120: 02 00 00 03 80 80 2F 01  1D 0B 80 23 01 4D 01 02  ....../....#.M..
0130: 00 00 08 80 80 3E 01 1D  0C 80 23 01 4D 01 02 00  .....>....#.M...
0140: 00 0A 80 80 4D 01 1D 0D  80 23 01 4D 01 21 00     ....M....#.M.!. 
```

#### Opcodes

```
  0: 0x0105 [0x1E] EventEntity looks at LocalPlayer and starts talking
  1: 0x010A [0x13] ExtData[1]->WorkLocal[0] = rand() % 2*
  2: 0x010F [0x6F] WAIT_FRAME_DELAY: Yield until WaitTime reaches zero
  3: 0x0110 [0x70] WAIT_ENTITY_RENDER_FLAG: Wait while EventEntity->Render.Flags3 bit 2 is set (cancel turn if not)
  4: 0x0111 [0x66] LOAD_EXT_SCHEDULER_MAIN: Load scheduler "tlk0" with entities [EventEntity, EventEntity], work=30*
  5: 0x0120 [0x02] IF !(ExtData[1]->WorkLocal[0] == 0*) GOTO 0x012F
  6: 0x0128 [0x1D] PRINT_EVENT_MESSAGE(message_id=7006*)
    → "I'm Velema. I keep watch over the docks."
  7: 0x012B [0x23] WAIT_FOR_DIALOG_INTERACTION
  8: 0x012C [0x01] GOTO 0x014D
  9: 0x012F [0x02] IF !(ExtData[1]->WorkLocal[0] == 1*) GOTO 0x013E
 10: 0x0137 [0x1D] PRINT_EVENT_MESSAGE(message_id=7007*)
    → "Is there a problem? See the mayor if you have any questions."
 11: 0x013A [0x23] WAIT_FOR_DIALOG_INTERACTION
 12: 0x013B [0x01] GOTO 0x014D
 13: 0x013E [0x02] IF !(ExtData[1]->WorkLocal[0] == 2*) GOTO 0x014D
 14: 0x0146 [0x1D] PRINT_EVENT_MESSAGE(message_id=7008*)
    → "Visitors often ask me how to find the mines of Palborough. What could they want from its dark and twisting tunnels?"
 15: 0x0149 [0x23] WAIT_FOR_DIALOG_INTERACTION
 16: 0x014A [0x01] GOTO 0x014D

SUBROUTINE_014D:
 17: 0x014D [0x21] END_EVENT
 18: 0x014E [0x00] END_REQSTACK()
```
