# 17793045 - Jimaida

## Common Data

| Field            | Value             |
|------------------|-------------------|
| Zone             | Selbina (ID: 248) |
| Block Size       | 456 bytes         |
| Total Events     | 5                 |
| References Count | 16                |

## List of Events

| Event ID                 | Entrypoint   |   Size |   Instructions |
|--------------------------|--------------|--------|----------------|
| [65535](#event-65535)    | 0x0000       |      1 |              1 |
| [152](#event-152)        | 0x0001       |     78 |             21 |
| [31](#event-31)          | 0x004F       |      1 |              1 |
| [65535.1](#event-655351) | 0x0050       |    158 |             22 |
| [33](#event-33)          | 0x00EE       |    116 |             20 |

## DAT References (imed_data)

|   Index | Hex Value   |   Dec Value |
|---------|-------------|-------------|
|       0 | 0x0002      |           2 |
|       1 | 0x0037      |          55 |
|       2 | 0x0000      |           0 |
|       3 | 0x1B4B      |        6987 |
|       4 | 0x0001      |           1 |
|       5 | 0x1B4C      |        6988 |
|       6 | 0x1B4D      |        6989 |
|       7 | 0x1B4E      |        6990 |
|       8 | 0x1A42      |        6722 |
|       9 | 0x0005      |           5 |
|      10 | 0x1A43      |        6723 |
|      11 | 0x1A44      |        6724 |
|      12 | 0x1A48      |        6728 |
|      13 | 0x1A49      |        6729 |
|      14 | 0x1A4A      |        6730 |
|      15 | 0x0033      |          51 |

## String References

- **6722**: Say, did you hear? Oswald, that traveling merchant... He said he lost a ring out in the harbor some time ago.
- **6724**: Yes...poor chap! It must be at the bottom of the sea by now. I feel awful for him, but he'll never see it again.
- **6728**: What!? You want me to look for a ring? Oh, my! You ask the impossible.
- **6730**: Wait! Maybe Zaldon knows something. That old angler's the most knowledgeable man in this here whole village.
- **6987**: We work the docks. Trade ships couldn't sail without us, but I guess we'd starve without them, too.
- **6988**: Keep a sharp eye out for pirates. Word is they strike using uncanny powers. They say it's the truth, believe it or not.
- **6989**: I hear many Humes in Bastok look down on us Galka.
- **6990**: Nobody is like that here in Selbina. Here, race is no issue. All that matters is an open mind.

## Events

### Event 65535

#### Metadata

| Field        | Value   |
|--------------|---------|
| Entrypoint   | 0x0000  |
| Data Size    | 1 bytes |
| Instructions | 1       |

```
      00 01 02 03 04 05 06 07  08 09 0A 0B 0C 0D 0E 0F
      -- -- -- -- -- -- -- --  -- -- -- -- -- -- -- --
0000: 00                                                .               
```

#### Opcodes

```
  0: 0x0000 [0x00] END_REQSTACK()
```

### Event 152

#### Metadata

| Field        | Value    |
|--------------|----------|
| Entrypoint   | 0x0001   |
| Data Size    | 78 bytes |
| Instructions | 21       |

```
      00 01 02 03 04 05 06 07  08 09 0A 0B 0C 0D 0E 0F
      -- -- -- -- -- -- -- --  -- -- -- -- -- -- -- --
0000:    1E F0 FF FF 7F 13 00  00 00 80 6F 70 5B 01 80   ..........op[..
0010: F8 FF FF 7F F8 FF FF 7F  74 6C 6B 30 02 00 00 02  ........tlk0....
0020: 80 80 2B 00 1D 03 80 23  01 4D 00 02 00 00 04 80  ..+....#.M......
0030: 80 3A 00 1D 05 80 23 01  4D 00 02 00 00 00 80 80  .:....#.M.......
0040: 4D 00 1D 06 80 23 1D 07  80 23 01 4D 00 21 00     M....#...#.M.!. 
```

#### Opcodes

```
  0: 0x0001 [0x1E] EventEntity looks at LocalPlayer and starts talking
  1: 0x0006 [0x13] ExtData[1]->WorkLocal[0] = rand() % 2*
  2: 0x000B [0x6F] WAIT_FRAME_DELAY: Yield until WaitTime reaches zero
  3: 0x000C [0x70] WAIT_ENTITY_RENDER_FLAG: Wait while EventEntity->Render.Flags3 bit 2 is set (cancel turn if not)
  4: 0x000D [0x5B] LOAD_EXT_SCHEDULER: Load scheduler "tlk0" with entities [EventEntity, EventEntity], work=55*
  5: 0x001C [0x02] IF !(ExtData[1]->WorkLocal[0] == 0*) GOTO 0x002B
  6: 0x0024 [0x1D] PRINT_EVENT_MESSAGE(message_id=6987*)
    → "We work the docks. Trade ships couldn't sail without us, but I guess we'd starve without them, too."
  7: 0x0027 [0x23] WAIT_FOR_DIALOG_INTERACTION
  8: 0x0028 [0x01] GOTO 0x004D
  9: 0x002B [0x02] IF !(ExtData[1]->WorkLocal[0] == 1*) GOTO 0x003A
 10: 0x0033 [0x1D] PRINT_EVENT_MESSAGE(message_id=6988*)
    → "Keep a sharp eye out for pirates. Word is they strike using uncanny powers. They say it's the truth, believe it or not."
 11: 0x0036 [0x23] WAIT_FOR_DIALOG_INTERACTION
 12: 0x0037 [0x01] GOTO 0x004D
 13: 0x003A [0x02] IF !(ExtData[1]->WorkLocal[0] == 2*) GOTO 0x004D
 14: 0x0042 [0x1D] PRINT_EVENT_MESSAGE(message_id=6989*)
    → "I hear many Humes in Bastok look down on us Galka."
 15: 0x0045 [0x23] WAIT_FOR_DIALOG_INTERACTION
 16: 0x0046 [0x1D] PRINT_EVENT_MESSAGE(message_id=6990*)
    → "Nobody is like that here in Selbina. Here, race is no issue. All that matters is an open mind."
 17: 0x0049 [0x23] WAIT_FOR_DIALOG_INTERACTION
 18: 0x004A [0x01] GOTO 0x004D

SUBROUTINE_004D:
 19: 0x004D [0x21] END_EVENT
 20: 0x004E [0x00] END_REQSTACK()
```

### Event 31

#### Metadata

| Field        | Value   |
|--------------|---------|
| Entrypoint   | 0x004F  |
| Data Size    | 1 bytes |
| Instructions | 1       |

```
      00 01 02 03 04 05 06 07  08 09 0A 0B 0C 0D 0E 0F
      -- -- -- -- -- -- -- --  -- -- -- -- -- -- -- --
0040:                                               00                 .
```

#### Opcodes

```
  0: 0x004F [0x00] END_REQSTACK()
```

### Event 65535.1

#### Metadata

| Field        | Value     |
|--------------|-----------|
| Entrypoint   | 0x0050    |
| Data Size    | 158 bytes |
| Instructions | 22        |

```
      00 01 02 03 04 05 06 07  08 09 0A 0B 0C 0D 0E 0F
      -- -- -- -- -- -- -- --  -- -- -- -- -- -- -- --
0050: 1E 14 80 0F 01 6F 70 5B  01 80 F8 FF FF 7F F8 FF  .....op[........
0060: FF 7F 74 6C 6B 30 1D 08  80 4A 14 80 0F 01 15 80  ..tlk0...J......
0070: 0F 01 23 6F 76 14 80 0F  01 53 F8 FF FF 7F F8 FF  ..#ov....S......
0080: FF 7F 74 6C 6B 30 5E 69  64 6C 30 5B 09 80 14 80  ..tlk0^idl0[....
0090: 0F 01 14 80 0F 01 74 6C  6B 30 2B 14 80 0F 01 0A  ......tlk0+.....
00A0: 80 23 5B 09 80 14 80 0F  01 14 80 0F 01 74 68 6B  .#[..........thk
00B0: 31 1D 0B 80 5B 01 80 F8  FF FF 7F F8 FF FF 7F 64  1...[..........d
00C0: 69 73 30 53 F8 FF FF 7F  F8 FF FF 7F 64 69 73 30  is0S........dis0
00D0: 5B 01 80 F8 FF FF 7F F8  FF FF 7F 74 68 62 31 53  [..........thb1S
00E0: F8 FF FF 7F F8 FF FF 7F  74 68 62 31 23 00        ........thb1#.  
```

#### Opcodes

```
  0: 0x0050 [0x1E] EventEntity looks at Oleg (ID: 17793044/0x010F8014) and starts talking
  1: 0x0055 [0x6F] WAIT_FRAME_DELAY: Yield until WaitTime reaches zero
  2: 0x0056 [0x70] WAIT_ENTITY_RENDER_FLAG: Wait while EventEntity->Render.Flags3 bit 2 is set (cancel turn if not)
  3: 0x0057 [0x5B] LOAD_EXT_SCHEDULER: Load scheduler "tlk0" with entities [EventEntity, EventEntity], work=55*
  4: 0x0066 [0x1D] PRINT_EVENT_MESSAGE(message_id=6722*)
    → "Say, did you hear? Oswald, that traveling merchant... He said he lost a ring out in the harbor some time ago."
  5: 0x0069 [0x4A] Oleg (ID: 17793044/0x010F8014) looks at Jimaida (ID: 17793045/0x010F8015)
  6: 0x0072 [0x23] WAIT_FOR_DIALOG_INTERACTION
  7: 0x0073 [0x6F] WAIT_FRAME_DELAY: Yield until WaitTime reaches zero
  8: 0x0074 [0x76] CHECK_ENTITY_RENDER_FLAGS: Wait until Oleg (ID: 17793044/0x010F8014) Render.Flags0 and Render.Flags3 conditions are met
  9: 0x0079 [0x53] WAIT_SCHEDULER_TASK: Wait for scheduler "tlk0" with entities [EventEntity, EventEntity]
 10: 0x0086 [0x5E] EventEntity goes idle (kills current action) (animation: "idl0")
 11: 0x008B [0x5B] LOAD_EXT_SCHEDULER: Load scheduler "tlk0" with entities [Oleg (ID: 17793044/0x010F8014), Oleg (ID: 17793044/0x010F8014)], work=5*
 12: 0x009A [0x2B] Oleg (ID: 17793044/0x010F8014) [6723*]:
    → "Of course I've heard the news. He said it was so precious to him, his face turned blue!"
 13: 0x00A1 [0x23] WAIT_FOR_DIALOG_INTERACTION
 14: 0x00A2 [0x5B] LOAD_EXT_SCHEDULER: Load scheduler "thk1" with entities [Oleg (ID: 17793044/0x010F8014), Oleg (ID: 17793044/0x010F8014)], work=5*
 15: 0x00B1 [0x1D] PRINT_EVENT_MESSAGE(message_id=6724*)
    → "Yes...poor chap! It must be at the bottom of the sea by now. I feel awful for him, but he'll never see it again."
 16: 0x00B4 [0x5B] LOAD_EXT_SCHEDULER: Load scheduler "dis0" with entities [EventEntity, EventEntity], work=55*
 17: 0x00C3 [0x53] WAIT_SCHEDULER_TASK: Wait for scheduler "dis0" with entities [EventEntity, EventEntity]
 18: 0x00D0 [0x5B] LOAD_EXT_SCHEDULER: Load scheduler "thb1" with entities [EventEntity, EventEntity], work=55*
 19: 0x00DF [0x53] WAIT_SCHEDULER_TASK: Wait for scheduler "thb1" with entities [EventEntity, EventEntity]
 20: 0x00EC [0x23] WAIT_FOR_DIALOG_INTERACTION
 21: 0x00ED [0x00] END_REQSTACK()
```

### Event 33

#### Metadata

| Field        | Value     |
|--------------|-----------|
| Entrypoint   | 0x00EE    |
| Data Size    | 116 bytes |
| Instructions | 20        |

```
      00 01 02 03 04 05 06 07  08 09 0A 0B 0C 0D 0E 0F
      -- -- -- -- -- -- -- --  -- -- -- -- -- -- -- --
00E0:                                            1E F0                ..
00F0: FF FF 7F 4A 14 80 0F 01  F0 FF FF 7F 6F 70 6F 76  ...J........opov
0100: 14 80 0F 01 5B 01 80 F8  FF FF 7F F8 FF FF 7F 74  ....[..........t
0110: 6C 6B 30 1D 0C 80 23 66  02 80 14 80 0F 01 14 80  lk0...#f........
0120: 0F 01 74 6C 6B 31 2B 14  80 0F 01 0D 80 53 F8 FF  ..tlk1+......S..
0130: FF 7F F8 FF FF 7F 74 6C  6B 30 5B 01 80 F8 FF FF  ......tlk0[.....
0140: 7F F8 FF FF 7F 74 68 62  31 23 53 14 80 0F 01 14  .....thb1#S.....
0150: 80 0F 01 74 6C 6B 30 1D  0E 80 23 03 01 10 0F 80  ...tlk0...#.....
0160: 21 00                                             !.              
```

#### Opcodes

```
  0: 0x00EE [0x1E] EventEntity looks at LocalPlayer and starts talking
  1: 0x00F3 [0x4A] Oleg (ID: 17793044/0x010F8014) looks at LocalPlayer
  2: 0x00FC [0x6F] WAIT_FRAME_DELAY: Yield until WaitTime reaches zero
  3: 0x00FD [0x70] WAIT_ENTITY_RENDER_FLAG: Wait while EventEntity->Render.Flags3 bit 2 is set (cancel turn if not)
  4: 0x00FE [0x6F] WAIT_FRAME_DELAY: Yield until WaitTime reaches zero
  5: 0x00FF [0x76] CHECK_ENTITY_RENDER_FLAGS: Wait until Oleg (ID: 17793044/0x010F8014) Render.Flags0 and Render.Flags3 conditions are met
  6: 0x0104 [0x5B] LOAD_EXT_SCHEDULER: Load scheduler "tlk0" with entities [EventEntity, EventEntity], work=55*
  7: 0x0113 [0x1D] PRINT_EVENT_MESSAGE(message_id=6728*)
    → "What!? You want me to look for a ring? Oh, my! You ask the impossible."
  8: 0x0116 [0x23] WAIT_FOR_DIALOG_INTERACTION
  9: 0x0117 [0x66] LOAD_EXT_SCHEDULER_MAIN: Load scheduler "tlk1" with entities [Oleg (ID: 17793044/0x010F8014), Oleg (ID: 17793044/0x010F8014)], work=0*
 10: 0x0126 [0x2B] Oleg (ID: 17793044/0x010F8014) [6729*]:
    → "Oswald's ring, eh? I'd sure like to help him out, but there's no way I could find a ring on the bottom of the sea."
 11: 0x012D [0x53] WAIT_SCHEDULER_TASK: Wait for scheduler "tlk0" with entities [EventEntity, EventEntity]
 12: 0x013A [0x5B] LOAD_EXT_SCHEDULER: Load scheduler "thb1" with entities [EventEntity, EventEntity], work=55*
 13: 0x0149 [0x23] WAIT_FOR_DIALOG_INTERACTION
 14: 0x014A [0x53] WAIT_SCHEDULER_TASK: Wait for scheduler "tlk0" with entities [Oleg (ID: 17793044/0x010F8014), Oleg (ID: 17793044/0x010F8014)]
 15: 0x0157 [0x1D] PRINT_EVENT_MESSAGE(message_id=6730*)
    → "Wait! Maybe Zaldon knows something. That old angler's the most knowledgeable man in this here whole village."
 16: 0x015A [0x23] WAIT_FOR_DIALOG_INTERACTION
 17: 0x015B [0x03] Work_Zone[1] = 51*
 18: 0x0160 [0x21] END_EVENT
 19: 0x0161 [0x00] END_REQSTACK()
```
