# 17793121 - Diederik

## Common Data

| Field            | Value             |
|------------------|-------------------|
| Zone             | Selbina (ID: 248) |
| Block Size       | 29576 bytes       |
| Total Events     | 17                |
| References Count | 457               |

## List of Events

| Event ID                 | Entrypoint   |   Size |   Instructions |
|--------------------------|--------------|--------|----------------|
| [65535](#event-65535)    | 0x0000       |      1 |              1 |
| [1111](#event-1111)      | 0x0001       |     15 |              7 |
| [1110](#event-1110)      | 0x0010       |   6608 |           1012 |
| [1112](#event-1112)      | 0x19E0       |     32 |             10 |
| [1113](#event-1113)      | 0x1A00       |     32 |             10 |
| [1114](#event-1114)      | 0x1A20       |   2271 |            286 |
| [1119](#event-1119)      | 0x22FF       |     28 |             10 |
| [1115](#event-1115)      | 0x231B       |     18 |              8 |
| [1116](#event-1116)      | 0x232D       |     14 |              6 |
| [1120](#event-1120)      | 0x233B       |     14 |              6 |
| [1117](#event-1117)      | 0x2349       |     18 |              8 |
| [1118](#event-1118)      | 0x235B       |     18 |              8 |
| [65535.1](#event-655351) | 0x236D       |     14 |              4 |
| [65535.2](#event-655352) | 0x237B       |     14 |              4 |
| [65535.3](#event-655353) | 0x2389       |     14 |              4 |
| [65535.4](#event-655354) | 0x2397       |     14 |              4 |
| [1121](#event-1121)      | 0x23A5       |  18538 |           3188 |

## DAT References (imed_data)

|   Index | Hex Value   |   Dec Value |
|---------|-------------|-------------|
|       0 | 0x1CF9      |        7417 |
|       1 | 0x1CFA      |        7418 |
|       2 | 0x001B      |          27 |
|       3 | 0x007B      |         123 |
|       4 | 0x0000      |           0 |
|       5 | 0x003C      |          60 |
|       6 | 0x00EE      |         238 |
|       7 | 0x1CFB      |        7419 |
|       8 | 0x1CFC      |        7420 |
|       9 | 0x1CFD      |        7421 |
|      10 | 0x1CFE      |        7422 |
|      11 | 0x000F      |          15 |
|      12 | 0x0007      |           7 |
|      13 | 0x001E      |          30 |
|      14 | 0x1CFF      |        7423 |
|      15 | 0x1D00      |        7424 |
|      16 | 0x1D01      |        7425 |
|      17 | 0x00C8      |         200 |
|      18 | 0x1D02      |        7426 |
|      19 | 0x1D04      |        7428 |
|      20 | 0x1D05      |        7429 |
|      21 | 0x1D06      |        7430 |
|      22 | 0x1D07      |        7431 |
|      23 | 0x1D08      |        7432 |
|      24 | 0x1D09      |        7433 |
|      25 | 0x1D0A      |        7434 |
|      26 | 0x1D0B      |        7435 |
|      27 | 0x1D0C      |        7436 |
|      28 | 0x1D0D      |        7437 |
|      29 | 0x1D0E      |        7438 |
|      30 | 0x1D0F      |        7439 |
|      31 | 0x1D10      |        7440 |
|      32 | 0x1D11      |        7441 |
|      33 | 0x1D12      |        7442 |
|      34 | 0x1D13      |        7443 |
|      35 | 0x002D      |          45 |
|      36 | 0x1D14      |        7444 |
|      37 | 0x1D15      |        7445 |
|      38 | 0x1D16      |        7446 |
|      39 | 0x0005      |           5 |
|      40 | 0x0006      |           6 |
|      41 | 0x1D17      |        7447 |
|      42 | 0x1D18      |        7448 |
|      43 | 0x1D19      |        7449 |
|      44 | 0x0001      |           1 |
|      45 | 0x1D1A      |        7450 |
|      46 | 0x0002      |           2 |
|      47 | 0x1D1B      |        7451 |
|      48 | 0x0003      |           3 |
|      49 | 0x1D1C      |        7452 |
|      50 | 0x0004      |           4 |
|      51 | 0x1D1D      |        7453 |
|      52 | 0x1D20      |        7456 |
|      53 | 0x1D21      |        7457 |
|      54 | 0x1D22      |        7458 |
|      55 | 0x0008      |           8 |
|      56 | 0x1D23      |        7459 |
|      57 | 0x0009      |           9 |
|      58 | 0x1D24      |        7460 |
|      59 | 0x000A      |          10 |
|      60 | 0x1D1E      |        7454 |
|      61 | 0x000B      |          11 |
|      62 | 0x1D1F      |        7455 |
|      63 | 0x000C      |          12 |
|      64 | 0x1D25      |        7461 |
|      65 | 0x0078      |         120 |
|      66 | 0x1D26      |        7462 |
|      67 | 0x1D27      |        7463 |
|      68 | 0x1D28      |        7464 |
|      69 | 0x1D29      |        7465 |
|      70 | 0x1D2A      |        7466 |
|      71 | 0x1D2D      |        7469 |
|      72 | 0x1D2E      |        7470 |
|      73 | 0x1D2F      |        7471 |
|      74 | 0x1D30      |        7472 |
|      75 | 0x1D31      |        7473 |
|      76 | 0x1D2B      |        7467 |
|      77 | 0x1D2C      |        7468 |
|      78 | 0x1D32      |        7474 |
|      79 | 0x1D33      |        7475 |
|      80 | 0x1D34      |        7476 |
|      81 | 0x1D40      |        7488 |
|      82 | 0x1D35      |        7477 |
|      83 | 0x1D41      |        7489 |
|      84 | 0x1D36      |        7478 |
|      85 | 0x1D42      |        7490 |
|      86 | 0x1D37      |        7479 |
|      87 | 0x1D43      |        7491 |
|      88 | 0x1D3A      |        7482 |
|      89 | 0x1D46      |        7494 |
|      90 | 0x1D3B      |        7483 |
|      91 | 0x1D47      |        7495 |
|      92 | 0x1D3C      |        7484 |
|      93 | 0x1D48      |        7496 |
|      94 | 0x1D3D      |        7485 |
|      95 | 0x1D49      |        7497 |
|      96 | 0x1D3E      |        7486 |
|      97 | 0x1D4A      |        7498 |
|      98 | 0x1D38      |        7480 |
|      99 | 0x1D44      |        7492 |
|     100 | 0x1D39      |        7481 |
|     101 | 0x1D45      |        7493 |
|     102 | 0x1D3F      |        7487 |
|     103 | 0x1D4B      |        7499 |
|     104 | 0x1D4C      |        7500 |
|     105 | 0x1D4D      |        7501 |
|     106 | 0x1D4E      |        7502 |
|     107 | 0x1D4F      |        7503 |
|     108 | 0x1D50      |        7504 |
|     109 | 0x1D51      |        7505 |
|     110 | 0x1D54      |        7508 |
|     111 | 0x1D55      |        7509 |
|     112 | 0x1D56      |        7510 |
|     113 | 0x1D57      |        7511 |
|     114 | 0x1D58      |        7512 |
|     115 | 0x1D52      |        7506 |
|     116 | 0x1D53      |        7507 |
|     117 | 0x1D59      |        7513 |
|     118 | 0x1D5A      |        7514 |
|     119 | 0x1D5B      |        7515 |
|     120 | 0x1D5C      |        7516 |
|     121 | 0x1D5D      |        7517 |
|     122 | 0x1D5E      |        7518 |
|     123 | 0x1D5F      |        7519 |
|     124 | 0x1D60      |        7520 |
|     125 | 0x1D61      |        7521 |
|     126 | 0x1D6D      |        7533 |
|     127 | 0x1D62      |        7522 |
|     128 | 0x1D6E      |        7534 |
|     129 | 0x1D63      |        7523 |
|     130 | 0x1D6F      |        7535 |
|     131 | 0x1D64      |        7524 |
|     132 | 0x1D70      |        7536 |
|     133 | 0x1D67      |        7527 |
|     134 | 0x1D73      |        7539 |
|     135 | 0x1D68      |        7528 |
|     136 | 0x1D74      |        7540 |
|     137 | 0x1D69      |        7529 |
|     138 | 0x1D75      |        7541 |
|     139 | 0x1D6A      |        7530 |
|     140 | 0x1D76      |        7542 |
|     141 | 0x1D6B      |        7531 |
|     142 | 0x1D77      |        7543 |
|     143 | 0x1D65      |        7525 |
|     144 | 0x1D71      |        7537 |
|     145 | 0x1D66      |        7526 |
|     146 | 0x1D72      |        7538 |
|     147 | 0x1D6C      |        7532 |
|     148 | 0x1D78      |        7544 |
|     149 | 0x1D79      |        7545 |
|     150 | 0x1D7A      |        7546 |
|     151 | 0x1D7B      |        7547 |
|     152 | 0x1D7C      |        7548 |
|     153 | 0x1D7D      |        7549 |
|     154 | 0x1D7E      |        7550 |
|     155 | 0x1D7F      |        7551 |
|     156 | 0x1D80      |        7552 |
|     157 | 0x1D83      |        7555 |
|     158 | 0x1D84      |        7556 |
|     159 | 0x1D85      |        7557 |
|     160 | 0x1D86      |        7558 |
|     161 | 0x1D87      |        7559 |
|     162 | 0x1D81      |        7553 |
|     163 | 0x1D82      |        7554 |
|     164 | 0x1D88      |        7560 |
|     165 | 0x1D89      |        7561 |
|     166 | 0x1D8A      |        7562 |
|     167 | 0x1D8B      |        7563 |
|     168 | 0x1D8C      |        7564 |
|     169 | 0x1D8F      |        7567 |
|     170 | 0x1D90      |        7568 |
|     171 | 0x1D91      |        7569 |
|     172 | 0x1D92      |        7570 |
|     173 | 0x1D93      |        7571 |
|     174 | 0x1D8D      |        7565 |
|     175 | 0x1D8E      |        7566 |
|     176 | 0x1D94      |        7572 |
|     177 | 0x1D95      |        7573 |
|     178 | 0x1D96      |        7574 |
|     179 | 0x1D97      |        7575 |
|     180 | 0x1D03      |        7427 |
|     181 | 0x1D98      |        7576 |
|     182 | 0x1D99      |        7577 |
|     183 | 0x1D9A      |        7578 |
|     184 | 0x1D9B      |        7579 |
|     185 | 0x0024      |          36 |
|     186 | 0x1D9E      |        7582 |
|     187 | 0x1D9F      |        7583 |
|     188 | 0x1DA0      |        7584 |
|     189 | 0x1DA1      |        7585 |
|     190 | 0x1DA2      |        7586 |
|     191 | 0x1DA3      |        7587 |
|     192 | 0x1DA4      |        7588 |
|     193 | 0x1DA5      |        7589 |
|     194 | 0x1DA6      |        7590 |
|     195 | 0x005A      |          90 |
|     196 | 0x00B4      |         180 |
|     197 | 0x012C      |         300 |
|     198 | 0x0020      |          32 |
|     199 | 0x00C9      |         201 |
|     200 | 0x0097      |         151 |
|     201 | 0x007F      |         127 |
|     202 | 0x00F8      |         248 |
|     203 | 0x1DA7      |        7591 |
|     204 | 0x1DA8      |        7592 |
|     205 | 0x1DA9      |        7593 |
|     206 | 0x1DAA      |        7594 |
|     207 | 0x0070      |         112 |
|     208 | 0x0096      |         150 |
|     209 | 0x072E      |        1838 |
|     210 | 0x1D9C      |        7580 |
|     211 | 0x1D9D      |        7581 |
|     212 | 0x1DAB      |        7595 |
|     213 | 0x1DAC      |        7596 |
|     214 | 0x1DAD      |        7597 |
|     215 | 0x1DAE      |        7598 |
|     216 | 0x1DAF      |        7599 |
|     217 | 0x1DB0      |        7600 |
|     218 | 0x1DB1      |        7601 |
|     219 | 0x000D      |          13 |
|     220 | 0xFFFF817F  |  4294934911 |
|     221 | 0xFFFF8C85  |  4294937733 |
|     222 | 0xFFFFFCF6  |  4294966518 |
|     223 | 0xFFFF7CE5  |  4294933733 |
|     224 | 0xFFFF8866  |  4294936678 |
|     225 | 0xFFFFFD66  |  4294966630 |
|     226 | 0xFFFF70A6  |  4294930598 |
|     227 | 0xFFFF896B  |  4294936939 |
|     228 | 0xFFFFFCB3  |  4294966451 |
|     229 | 0xFFFF8222  |  4294935074 |
|     230 | 0xFFFF887B  |  4294936699 |
|     231 | 0xFFFFFD77  |  4294966647 |
|     232 | 0x1DB2      |        7602 |
|     233 | 0x1DB3      |        7603 |
|     234 | 0x005F      |          95 |
|     235 | 0x0064      |         100 |
|     236 | 0x0069      |         105 |
|     237 | 0x0052      |          82 |
|     238 | 0x0057      |          87 |
|     239 | 0x005C      |          92 |
|     240 | 0x0059      |          89 |
|     241 | 0x005D      |          93 |
|     242 | 0x0061      |          97 |
|     243 | 0x0060      |          96 |
|     244 | 0x0012      |          18 |
|     245 | 0x0013      |          19 |
|     246 | 0x0014      |          20 |
|     247 | 0x0017      |          23 |
|     248 | 0x000E      |          14 |
|     249 | 0x0018      |          24 |
|     250 | 0x001F      |          31 |
|     251 | 0x0010      |          16 |
|     252 | 0x0015      |          21 |
|     253 | 0x018D      |         397 |
|     254 | 0x0175      |         373 |
|     255 | 0x0170      |         368 |
|     256 | 0x0171      |         369 |
|     257 | 0x014C      |         332 |
|     258 | 0x01C1      |         449 |
|     259 | 0x027C      |         636 |
|     260 | 0x027B      |         635 |
|     261 | 0x027D      |         637 |
|     262 | 0x02D3      |         723 |
|     263 | 0x0321      |         801 |
|     264 | 0x0326      |         806 |
|     265 | 0x01E1      |         481 |
|     266 | 0x0343      |         835 |
|     267 | 0x0386      |         902 |
|     268 | 0x0388      |         904 |
|     269 | 0x0361      |         865 |
|     270 | 0x0387      |         903 |
|     271 | 0x038A      |         906 |
|     272 | 0x003F      |          63 |
|     273 | 0x0282      |         642 |
|     274 | 0x0283      |         643 |
|     275 | 0x0288      |         648 |
|     276 | 0x0289      |         649 |
|     277 | 0x028A      |         650 |
|     278 | 0x028B      |         651 |
|     279 | 0x029E      |         670 |
|     280 | 0x0019      |          25 |
|     281 | 0x00C6      |         198 |
|     282 | 0x0032      |          50 |
|     283 | 0x00B5      |         181 |
|     284 | 0x008C      |         140 |
|     285 | 0x008E      |         142 |
|     286 | 0x007A      |         122 |
|     287 | 0x014B      |         331 |
|     288 | 0x0148      |         328 |
|     289 | 0x0166      |         358 |
|     290 | 0x017A      |         378 |
|     291 | 0x0182      |         386 |
|     292 | 0x0183      |         387 |
|     293 | 0x0192      |         402 |
|     294 | 0x01DF      |         479 |
|     295 | 0x01E9      |         489 |
|     296 | 0x001C      |          28 |
|     297 | 0x00E6      |         230 |
|     298 | 0x00EB      |         235 |
|     299 | 0x00F5      |         245 |
|     300 | 0x007E      |         126 |
|     301 | 0x00F3      |         243 |
|     302 | 0x00F4      |         244 |
|     303 | 0x00E0      |         224 |
|     304 | 0x00E9      |         233 |
|     305 | 0x009E      |         158 |
|     306 | 0x009D      |         157 |
|     307 | 0x00E2      |         226 |
|     308 | 0x00E1      |         225 |
|     309 | 0x014F      |         335 |
|     310 | 0x014E      |         334 |
|     311 | 0x0167      |         359 |
|     312 | 0x00E5      |         229 |
|     313 | 0x0169      |         361 |
|     314 | 0x016A      |         362 |
|     315 | 0x0168      |         360 |
|     316 | 0x0133      |         307 |
|     317 | 0x0174      |         372 |
|     318 | 0x018C      |         396 |
|     319 | 0x0194      |         404 |
|     320 | 0x0195      |         405 |
|     321 | 0x0178      |         376 |
|     322 | 0x0240      |         576 |
|     323 | 0x0197      |         407 |
|     324 | 0x0198      |         408 |
|     325 | 0x01A3      |         419 |
|     326 | 0x019E      |         414 |
|     327 | 0x0246      |         582 |
|     328 | 0x0247      |         583 |
|     329 | 0x0248      |         584 |
|     330 | 0x024B      |         587 |
|     331 | 0x024A      |         586 |
|     332 | 0x0011      |          17 |
|     333 | 0x024F      |         591 |
|     334 | 0x01C3      |         451 |
|     335 | 0x01C4      |         452 |
|     336 | 0x01EF      |         495 |
|     337 | 0x01F0      |         496 |
|     338 | 0x001A      |          26 |
|     339 | 0x0095      |         149 |
|     340 | 0x001D      |          29 |
|     341 | 0x0073      |         115 |
|     342 | 0x0034      |          52 |
|     343 | 0x005E      |          94 |
|     344 | 0x0072      |         114 |
|     345 | 0x0031      |          49 |
|     346 | 0x006C      |         108 |
|     347 | 0x003A      |          58 |
|     348 | 0x0016      |          22 |
|     349 | 0x0035      |          53 |
|     350 | 0x0085      |         133 |
|     351 | 0x0081      |         129 |
|     352 | 0x0023      |          35 |
|     353 | 0x0033      |          51 |
|     354 | 0x0082      |         130 |
|     355 | 0x0039      |          57 |
|     356 | 0x0038      |          56 |
|     357 | 0x0036      |          54 |
|     358 | 0x0083      |         131 |
|     359 | 0x00A2      |         162 |
|     360 | 0x0022      |          34 |
|     361 | 0x0021      |          33 |
|     362 | 0x0065      |         101 |
|     363 | 0x0086      |         134 |
|     364 | 0x0062      |          98 |
|     365 | 0x008D      |         141 |
|     366 | 0x0037      |          55 |
|     367 | 0x008A      |         138 |
|     368 | 0x008B      |         139 |
|     369 | 0x002B      |          43 |
|     370 | 0x0067      |         103 |
|     371 | 0x0030      |          48 |
|     372 | 0x00A1      |         161 |
|     373 | 0x0066      |         102 |
|     374 | 0x0075      |         117 |
|     375 | 0x0068      |         104 |
|     376 | 0x0077      |         119 |
|     377 | 0x01FE      |         510 |
|     378 | 0x009F      |         159 |
|     379 | 0x00A4      |         164 |
|     380 | 0x00A9      |         169 |
|     381 | 0x00AC      |         172 |
|     382 | 0x00B2      |         178 |
|     383 | 0x00B0      |         176 |
|     384 | 0x013D      |         317 |
|     385 | 0x0108      |         264 |
|     386 | 0x010C      |         268 |
|     387 | 0x0100      |         256 |
|     388 | 0x00FB      |         251 |
|     389 | 0x00B8      |         184 |
|     390 | 0x011C      |         284 |
|     391 | 0x0041      |          65 |
|     392 | 0x0042      |          66 |
|     393 | 0x0047      |          71 |
|     394 | 0x0160      |         352 |
|     395 | 0x0043      |          67 |
|     396 | 0x0048      |          72 |
|     397 | 0x004B      |          75 |
|     398 | 0x004C      |          76 |
|     399 | 0x004D      |          77 |
|     400 | 0x005B      |          91 |
|     401 | 0x0058      |          88 |
|     402 | 0x0053      |          83 |
|     403 | 0x0054      |          84 |
|     404 | 0x0161      |         353 |
|     405 | 0x015C      |         348 |
|     406 | 0x016D      |         365 |
|     407 | 0x00C5      |         197 |
|     408 | 0x00C3      |         195 |
|     409 | 0x00C7      |         199 |
|     410 | 0x015E      |         350 |
|     411 | 0x00C4      |         196 |
|     412 | 0x016E      |         366 |
|     413 | 0x00D0      |         208 |
|     414 | 0x00CD      |         205 |
|     415 | 0x00CA      |         202 |
|     416 | 0x00D2      |         210 |
|     417 | 0x00D8      |         216 |
|     418 | 0x00D5      |         213 |
|     419 | 0x00D6      |         214 |
|     420 | 0x013B      |         315 |
|     421 | 0x0136      |         310 |
|     422 | 0x013A      |         314 |
|     423 | 0x0137      |         311 |
|     424 | 0x016F      |         367 |
|     425 | 0x0138      |         312 |
|     426 | 0x0139      |         313 |
|     427 | 0x009A      |         154 |
|     428 | 0x0091      |         145 |
|     429 | 0x009B      |         155 |
|     430 | 0x0099      |         153 |
|     431 | 0x0093      |         147 |
|     432 | 0x0092      |         146 |
|     433 | 0x0098      |         152 |
|     434 | 0x0071      |         113 |
|     435 | 0x00E8      |         232 |
|     436 | 0x00DD      |         221 |
|     437 | 0x00F1      |         241 |
|     438 | 0x0124      |         292 |
|     439 | 0x012E      |         302 |
|     440 | 0x0129      |         297 |
|     441 | 0x0122      |         290 |
|     442 | 0x0132      |         306 |
|     443 | 0x0126      |         294 |
|     444 | 0x0155      |         341 |
|     445 | 0x0025      |          37 |
|     446 | 0x0029      |          41 |
|     447 | 0x0028      |          40 |
|     448 | 0x007D      |         125 |
|     449 | 0x0079      |         121 |
|     450 | 0x007C      |         124 |
|     451 | 0x0074      |         116 |
|     452 | 0x00EC      |         236 |
|     453 | 0x019C      |         412 |
|     454 | 0x0193      |         403 |
|     455 | 0x01C6      |         454 |
|     456 | 0x01C7      |         455 |

## String References

- **7417**: I've got me a painting on the way from an artist named Angelica.
- **7418**: She's pretty well known among adventurers, so I can't wait to see her work.
- **7419**: I've really gone and landed myself in it this time...
- **7420**: I've got to... No, I can't. This is awful!
- **7421**: Oh, sorry. I didn't see you there. I was just thinking.
- **7422**: Hey, would you happen to be an adventurer?
- **7423**: I knew it!
- **7424**: If you have a moment, could you listen to what I have to say?
- **7425**: Listen to Diederik's problems? [Sure./I'm busy right now.]
- **7426**: Oh, thank you! I was starting to get desperate!
- **7427**: Well, be on with your work, then. Sorry for bothering you!
- **7428**: I've been working knots in my stomach worrying about this...
- **7429**: Anyway, I guess I'd better start from the beginning.
- **7430**: The name's Diederik. I'm currently working as a middleman to fulfill my customers' needs.
- **7431**: The other day, one of my clients, an old man in Bastok, said he wanted a painting. So I put in an order with a painter from Windurst.
- **7432**: Her name was...Angelica, I think it was. She seems to be rather well known among adventurers.
- **7433**: Anyway, I picked up the finished painting and everything seemed to be going fine...
- **7434**: That is, until my ship was attacked by pirates.
- **7435**: We were lucky that no one on board was harmed. But afterwards, I couldn't find the painting anywhere.
- **7436**: I'm supposed to deliver it soon, though, and it puts me in a sweat just thinking about it!
- **7437**: Not only that, but my client is a cranky old man who'll string me up by the ears if he doesn't get what he wants! I can't face that!
- **7438**: He's not going to let me off easy after losing his precious painting.
- **7439**: Even explaining what happened wouldn't do any good with such a sour person.
- **7440**: That's why I can't go to him. I don't know what I'd say! I was about to go back to Angelica and see if she would redo the painting for me...
- **7441**: ...but I can't tell her, either! She's so passionate and loves her craft so much, I'm afraid I'd break down if I saw the disappointment on her face when I told her I lost the painting.
- **7442**: You see, I'm hopeless. I can't carry this burden alone!
- **7443**: Hey! You're an adventurer, so I bet you know Angelica, don't you?
- **7444**: You even modeled for one of her paintings? Excellent!
- **7445**: I bet she would listen to you if you asked her to redo a painting...
- **7446**: Hey! I just got a brilliant idea! Why don't you go and ask Angelica to redo the painting?
- **7447**: You just heard why I couldn't go! You're my only option!
- **7448**: You're her friend, so of course she'll listen to you!
- **7449**: Not that I have the courage to face that old scrooge alone, either...
- **7462**: This a friend of yours?
- **7475**: Well, actually, I'm in a bit of a fix. I'd appreciate it if you could hear me out, too.
- **7500**: Wait a minute. Since there are two of you now, I've got one more thing I wonder if you could do for me.
- **7501**: I want one of you to earn me time while Angelica is redoing the painting.
- **7514**: I want you to bring that old crank an empty box...
- **7515**: And I want you to tell him that it holds the painting, but that he can't open it until you say he can, because the painting is so delicate, you see?
- **7516**: That scrooge'll believe that the painting is in the box, and we'll have earned enough time to get the real thing!
- **7517**: When Angelica finishes the painting, we can just exchange it for the empty box, and the old man will be none the wiser!
- **7518**: That way, I won't have to tell him I lost the painting...
- **7519**: ...and I can avoid punishment...
- **7520**: However, I can't do it alone! That's right! I need your help, brave adventurers!
- **7545**: Really? Oh, thank you!
- **7546**: So, <Player>, which will it be?
- **7547**: Would you rather go to Angelica to reorder the painting, or would you rather come with me to the old man's place to earn time?
- **7548**: What will you do? [Go to Angelica./Go to the old man with Diederik.]
- **7573**: Well then, it's decided. Thanks--this is a big load off my back. Things are starting to look up for me!
- **7574**: We should be fine, with all three of us working together!
- **7575**: I'll go get ready now.
- **7576**: Oh, it's you again. Angelica should be at the hostelry in Windurst.
- **7577**: Please get her to redo the painting for me!
- **7578**: Oh, it's you again. The old man's name is Umberto, and you should be able to find him in Bastok.
- **7579**: If you don't hurry, the delivery date is going to come and go! Now get out there, already!
- **7580**: Sorry, but you're the only one I can count on. Please find the $0 for me.
- **7581**: Back when I used to stock them, my supplier said he got them from the Korroloka Tunnel.
- **7582**: I've been waiting for you! I've got big news!
- **7583**: I found the painting that I thought I lost to the pirates!
- **7584**: I'm so relieved. Now I can just put it in that old man's box and be done with it all.
- **7585**: Eh? What'd you mean, asking me what I'm going to do with the redone painting? We've found the original, so we don't need it!
- **7586**: Think you could just hop over to Windurst for me real quick and let Angelica know she doesn't have to redo it?
- **7587**: I mean, I won't force you or anything...
- **7588**: But I've got to go pick up that original painting, you know, so it would be really nice of you if you could help me out.
- **7589**: It's not like I don't want to meet her or anything! Of course not.
- **7590**: I would be so grateful if you went and told Angelica for me.
- **7591**: What's wrong? You don't look so good. Run into trouble somewhere?
- **7592**: What!? Your friend is in trouble?
- **7593**: So what are you doing standing around here for?
- **7594**: Go and save your friend!
- **7595**: Don't you care what happens to your friend? Get out there and be brave!
- **7596**: Your friend is okay? What a relief!
- **7597**: Could you hop over to see Angelica and tell her that we don't need her to redo the painting after all?
- **7598**: She redid the painting already!? Why would she do that?
- **7599**: Anyway, I guess I'd better go slip the original painting in the box before the old man notices...
- **7600**: Thanks for all your help.
- **7601**: I'm sure your good deeds will come back to you someday. I won't forget this!
- **7602**: So what's your friend up to now?
- **7603**: If you don't know, maybe you should find out!

## Events

### Event 65535

#### Metadata

| Field        | Value   |
|--------------|---------|
| Entrypoint   | 0x0000  |
| Data Size    | 1 bytes |
| Instructions | 1       |

```
      00 01 02 03 04 05 06 07  08 09 0A 0B 0C 0D 0E 0F
      -- -- -- -- -- -- -- --  -- -- -- -- -- -- -- --
0000: 00                                                .               
```

#### Opcodes

```
  0: 0x0000 [0x00] END_REQSTACK()
```

### Event 1111

#### Metadata

| Field        | Value    |
|--------------|----------|
| Entrypoint   | 0x0001   |
| Data Size    | 15 bytes |
| Instructions | 7        |

```
      00 01 02 03 04 05 06 07  08 09 0A 0B 0C 0D 0E 0F
      -- -- -- -- -- -- -- --  -- -- -- -- -- -- -- --
0000:    1E F0 FF FF 7F 1D 00  80 23 1D 01 80 23 21 00   ........#...#!.
```

#### Opcodes

```
  0: 0x0001 [0x1E] EventEntity looks at LocalPlayer and starts talking
  1: 0x0006 [0x1D] PRINT_EVENT_MESSAGE(message_id=7417*)
    → "I've got me a painting on the way from an artist named Angelica."
  2: 0x0009 [0x23] WAIT_FOR_DIALOG_INTERACTION
  3: 0x000A [0x1D] PRINT_EVENT_MESSAGE(message_id=7418*)
    → "She's pretty well known among adventurers, so I can't wait to see her work."
  4: 0x000D [0x23] WAIT_FOR_DIALOG_INTERACTION
  5: 0x000E [0x21] END_EVENT
  6: 0x000F [0x00] END_REQSTACK()
```

### Event 1110

#### Metadata

| Field        | Value      |
|--------------|------------|
| Entrypoint   | 0x0010     |
| Data Size    | 6608 bytes |
| Instructions | 982        |

```
      00 01 02 03 04 05 06 07  08 09 0A 0B 0C 0D 0E 0F
      -- -- -- -- -- -- -- --  -- -- -- -- -- -- -- --
0010: 42 1A 72 22 46 01 92 01  F8 FF FF 7F 2F 00 62 80  B.r"F......./.b.
0020: 0F 01 27 0A 62 80 0F 01  02 38 02 80 29 0A F0 FF  ..'.b....8..)...
0030: FF 7F 21 1E F0 FF FF 7F  6F 70 4E 01 F0 FF FF 7F  ..!.....opN.....
0040: 45 03 80 F0 FF FF 7F F0  FF FF 7F 73 30 30 30 04  E..........s000.
0050: 80 1C 05 80 1A DB 22 5B  06 80 F8 FF FF 7F F8 FF  ......"[........
0060: FF 7F 74 68 6B 31 1D 07  80 23 1D 08 80 23 5B 06  ..thk1...#...#[.
0070: 80 F8 FF FF 7F F8 FF FF  7F 74 68 6B 32 52 03 80  .........thk2R..
0080: F0 FF FF 7F F0 FF FF 7F  73 30 30 30 4E 00 F0 FF  ........s000N...
0090: FF 7F 45 03 80 F0 FF FF  7F F0 FF FF 7F 73 30 30  ..E..........s00
00A0: 31 04 80 1C 05 80 5B 06  80 F8 FF FF 7F F8 FF FF  1.....[.........
00B0: 7F 74 6C 6B 30 79 00 F0  FF FF 7F 61 80 0F 01 1C  .tlk0y.....a....
00C0: 05 80 1D 09 80 23 1D 0A  80 23 1C 0B 80 6E F0 FF  .....#...#...n..
00D0: FF 7F 0C 80 99 F0 FF FF  7F 1C 05 80 52 03 80 F0  ............R...
00E0: FF FF 7F F0 FF FF 7F 73  30 30 31 45 03 80 F0 FF  .......s001E....
00F0: FF 7F F0 FF FF 7F 73 30  30 33 04 80 1C 0D 80 1D  ......s003......
0100: 0E 80 23 1D 0F 80 23 03  00 00 04 80 24 10 80 04  ..#...#.....$...
0110: 80 04 80 25 02 00 10 04  80 00 A1 19 1C 0D 80 5B  ...%...........[
0120: 06 80 F8 FF FF 7F F8 FF  FF 7F 74 6C 6B 31 52 03  ..........tlk1R.
0130: 80 F0 FF FF 7F F0 FF FF  7F 73 30 30 33 45 11 80  .........s003E..
0140: F8 FF FF 7F F8 FF FF 7F  6F 76 6C 31 04 80 45 03  ........ovl1..E.
0150: 80 F0 FF FF 7F F0 FF FF  7F 73 30 30 32 04 80 1C  .........s002...
0160: 05 80 1D 12 80 23 1C 0B  80 1D 13 80 23 1D 14 80  .....#......#...
0170: 23 52 03 80 F0 FF FF 7F  F0 FF FF 7F 73 30 30 32  #R..........s002
0180: 45 11 80 F8 FF FF 7F F8  FF FF 7F 6F 76 6C 32 04  E..........ovl2.
0190: 80 45 03 80 F0 FF FF 7F  F0 FF FF 7F 73 30 36 37  .E..........s067
01A0: 04 80 79 00 F0 FF FF 7F  61 80 0F 01 1C 0D 80 1D  ..y.....a.......
01B0: 15 80 23 1C 0D 80 1D 16  80 23 5B 06 80 F8 FF FF  ..#......#[.....
01C0: 7F F8 FF FF 7F 74 68 6B  31 1D 17 80 23 52 03 80  .....thk1...#R..
01D0: F0 FF FF 7F F0 FF FF 7F  73 30 36 37 45 11 80 F8  ........s067E...
01E0: FF FF 7F F8 FF FF 7F 6F  76 6C 32 04 80 45 03 80  .......ovl2..E..
01F0: F0 FF FF 7F F0 FF FF 7F  73 30 30 34 04 80 1C 0D  ........s004....
0200: 80 5B 06 80 F8 FF FF 7F  F8 FF FF 7F 74 68 6B 32  .[..........thk2
0210: 1C 0D 80 27 0A 61 80 0F  01 0C 79 00 F0 FF FF 7F  ...'.a....y.....
0220: 61 80 0F 01 1D 18 80 23  1C 0D 80 1D 19 80 23 52  a......#......#R
0230: 03 80 F0 FF FF 7F F0 FF  FF 7F 73 30 30 34 45 03  ..........s004E.
0240: 80 F0 FF FF 7F F0 FF FF  7F 73 30 30 35 04 80 4A  .........s005..J
0250: F0 FF FF 7F 61 80 0F 01  6F 70 1D 1A 80 23 5B 06  ....a...op...#[.
0260: 80 F8 FF FF 7F F8 FF FF  7F 74 68 6B 31 1D 1B 80  .........thk1...
0270: 23 5B 06 80 F8 FF FF 7F  F8 FF FF 7F 74 68 6B 32  #[..........thk2
0280: 52 03 80 F0 FF FF 7F F0  FF FF 7F 73 30 30 35 27  R..........s005'
0290: 14 F0 FF FF 7F 22 45 03  80 F0 FF FF 7F F0 FF FF  ....."E.........
02A0: 7F 73 30 30 36 04 80 79  00 F0 FF FF 7F 61 80 0F  .s006..y.....a..
02B0: 01 1C 05 80 1D 1C 80 23  1D 1D 80 23 1D 1E 80 23  .......#...#...#
02C0: 5B 06 80 F8 FF FF 7F F8  FF FF 7F 74 68 6B 32 2A  [..........thk2*
02D0: 0A 61 80 0F 01 5B 06 80  F8 FF FF 7F F8 FF FF 7F  .a...[..........
02E0: 74 6C 6B 30 52 03 80 F0  FF FF 7F F0 FF FF 7F 73  tlk0R..........s
02F0: 30 30 36 27 0A 61 80 0F  01 0D 45 03 80 F0 FF FF  006'.a....E.....
0300: 7F F0 FF FF 7F 73 30 30  37 04 80 79 00 F0 FF FF  .....s007..y....
0310: 7F 61 80 0F 01 1D 1F 80  23 1C 0D 80 4A F0 FF FF  .a......#...J...
0320: 7F 61 80 0F 01 6F 70 5B  06 80 F8 FF FF 7F F8 FF  .a...op[........
0330: FF 7F 74 65 6E 30 1D 20  80 23 1C 0D 80 52 03 80  ..ten0. .#...R..
0340: F0 FF FF 7F F0 FF FF 7F  73 30 30 37 2A 0A 61 80  ........s007*.a.
0350: 0F 01 45 03 80 F0 FF FF  7F F0 FF FF 7F 73 30 30  ..E..........s00
0360: 38 04 80 1C 0D 80 1D 21  80 23 1C 0D 80 1E F0 FF  8......!.#......
0370: FF 7F 6F 70 79 00 61 80  0F 01 F0 FF FF 7F 79 00  ..opy.a.......y.
0380: F0 FF FF 7F 61 80 0F 01  2A 0A 61 80 0F 01 1D 22  ....a...*.a...."
0390: 80 23 1C 23 80 5B 06 80  F8 FF FF 7F F8 FF FF 7F  .#.#.[..........
03A0: 74 6C 6B 30 1D 24 80 23  5B 06 80 F8 FF FF 7F F8  tlk0.$.#[.......
03B0: FF FF 7F 74 68 6B 31 1D  25 80 23 5B 06 80 F8 FF  ...thk1.%.#[....
03C0: FF 7F F8 FF FF 7F 74 68  6B 32 5B 06 80 F8 FF FF  ......thk2[.....
03D0: 7F F8 FF FF 7F 74 6C 6B  30 1C 0D 80 1D 26 80 23  .....tlk0....&.#
03E0: 1C 0D 80 52 03 80 F0 FF  FF 7F F0 FF FF 7F 73 30  ...R..........s0
03F0: 30 38 02 87 7F 27 80 00  04 04 27 14 F0 FF FF 7F  08...'....'.....
0400: 25 01 13 04 02 87 7F 28  80 00 13 04 27 14 F0 FF  %......(....'...
0410: FF 7F 25 45 03 80 F0 FF  FF 7F F0 FF FF 7F 73 30  ..%E..........s0
0420: 30 39 04 80 1D 29 80 23  1D 2A 80 23 29 0F 62 80  09...).#.*.#).b.
0430: 0F 01 03 1C 0D 80 5B 06  80 F8 FF FF 7F F8 FF FF  ......[.........
0440: 7F 74 65 6E 30 5B 06 80  F8 FF FF 7F F8 FF FF 7F  .ten0[..........
0450: 74 68 6B 31 1D 2B 80 23  5B 06 80 F8 FF FF 7F F8  thk1.+.#[.......
0460: FF FF 7F 74 68 6B 32 1C  23 80 1A EA 38 02 09 00  ...thk2.#...8...
0470: 2C 80 80 80 04 2B 62 80  0F 01 2D 80 23 01 51 05  ,....+b...-.#.Q.
0480: 02 09 00 2E 80 80 93 04  2B 62 80 0F 01 2F 80 23  ........+b.../.#
0490: 01 51 05 02 09 00 30 80  80 A6 04 2B 62 80 0F 01  .Q....0....+b...
04A0: 31 80 23 01 51 05 02 09  00 32 80 80 B9 04 2B 62  1.#.Q....2....+b
04B0: 80 0F 01 33 80 23 01 51  05 02 09 00 27 80 80 CC  ...3.#.Q....'...
04C0: 04 2B 62 80 0F 01 34 80  23 01 51 05 02 09 00 28  .+b...4.#.Q....(
04D0: 80 80 DF 04 2B 62 80 0F  01 35 80 23 01 51 05 02  ....+b...5.#.Q..
04E0: 09 00 0C 80 80 F2 04 2B  62 80 0F 01 36 80 23 01  .......+b...6.#.
04F0: 51 05 02 09 00 37 80 80  05 05 2B 62 80 0F 01 38  Q....7....+b...8
0500: 80 23 01 51 05 02 09 00  39 80 80 18 05 2B 62 80  .#.Q....9....+b.
0510: 0F 01 3A 80 23 01 51 05  02 09 00 3B 80 80 2B 05  ..:.#.Q....;..+.
0520: 2B 62 80 0F 01 3C 80 23  01 51 05 02 09 00 3D 80  +b...<.#.Q....=.
0530: 80 3E 05 2B 62 80 0F 01  3E 80 23 01 51 05 02 09  .>.+b...>.#.Q...
0540: 00 3F 80 80 51 05 2B 62  80 0F 01 40 80 23 01 51  .?..Q.+b...@.#.Q
0550: 05 4A F0 FF FF 7F 62 80  0F 01 1C 0B 80 1E 62 80  .J....b.......b.
0560: 0F 01 6F 70 79 00 62 80  0F 01 F0 FF FF 7F 1C 0D  ..opy.b.........
0570: 80 52 03 80 F0 FF FF 7F  F0 FF FF 7F 73 30 30 39  .R..........s009
0580: 1A 09 38 02 0C 00 04 80  80 9F 05 45 03 80 F0 FF  ..8........E....
0590: FF 7F F0 FF FF 7F 73 30  36 38 04 80 01 7F 06 02  ......s068......
05A0: 0C 00 2C 80 80 BB 05 45  03 80 F0 FF FF 7F F0 FF  ..,....E........
05B0: FF 7F 73 30 36 38 04 80  01 7F 06 02 0C 00 2E 80  ..s068..........
05C0: 80 D7 05 45 03 80 F0 FF  FF 7F F0 FF FF 7F 73 30  ...E..........s0
05D0: 37 32 04 80 01 7F 06 02  0C 00 30 80 80 F3 05 45  72........0....E
05E0: 03 80 F0 FF FF 7F F0 FF  FF 7F 73 30 37 32 04 80  ..........s072..
05F0: 01 7F 06 02 0C 00 32 80  80 0F 06 45 03 80 F0 FF  ......2....E....
0600: FF 7F F0 FF FF 7F 73 30  36 39 04 80 01 7F 06 02  ......s069......
0610: 0C 00 27 80 80 2B 06 45  03 80 F0 FF FF 7F F0 FF  ..'..+.E........
0620: FF 7F 73 30 36 39 04 80  01 7F 06 02 0C 00 28 80  ..s069........(.
0630: 80 47 06 45 03 80 F0 FF  FF 7F F0 FF FF 7F 73 30  .G.E..........s0
0640: 36 38 04 80 01 7F 06 02  0C 00 0C 80 80 63 06 45  68...........c.E
0650: 03 80 F0 FF FF 7F F0 FF  FF 7F 73 30 37 32 04 80  ..........s072..
0660: 01 7F 06 02 0C 00 37 80  80 7F 06 45 03 80 F0 FF  ......7....E....
0670: FF 7F F0 FF FF 7F 73 30  36 38 04 80 01 7F 06 27  ......s068.....'
0680: 0F 62 80 0F 01 04 2A 0F  62 80 0F 01 1C 41 80 1A  .b....*.b....A..
0690: 09 38 02 0C 00 04 80 80  AC 06 52 03 80 F0 FF FF  .8........R.....
06A0: 7F F0 FF FF 7F 73 30 36  38 01 7C 07 02 0C 00 2C  .....s068.|....,
06B0: 80 80 C6 06 52 03 80 F0  FF FF 7F F0 FF FF 7F 73  ....R..........s
06C0: 30 36 38 01 7C 07 02 0C  00 2E 80 80 E0 06 52 03  068.|.........R.
06D0: 80 F0 FF FF 7F F0 FF FF  7F 73 30 37 32 01 7C 07  .........s072.|.
06E0: 02 0C 00 30 80 80 FA 06  52 03 80 F0 FF FF 7F F0  ...0....R.......
06F0: FF FF 7F 73 30 37 32 01  7C 07 02 0C 00 32 80 80  ...s072.|....2..
0700: 14 07 52 03 80 F0 FF FF  7F F0 FF FF 7F 73 30 36  ..R..........s06
0710: 39 01 7C 07 02 0C 00 27  80 80 2E 07 52 03 80 F0  9.|....'....R...
0720: FF FF 7F F0 FF FF 7F 73  30 36 39 01 7C 07 02 0C  .......s069.|...
0730: 00 28 80 80 48 07 52 03  80 F0 FF FF 7F F0 FF FF  .(..H.R.........
0740: 7F 73 30 36 38 01 7C 07  02 0C 00 0C 80 80 62 07  .s068.|.......b.
0750: 52 03 80 F0 FF FF 7F F0  FF FF 7F 73 30 37 32 01  R..........s072.
0760: 7C 07 02 0C 00 37 80 80  7C 07 52 03 80 F0 FF FF  |....7..|.R.....
0770: 7F F0 FF FF 7F 73 30 36  38 01 7C 07 02 87 7F 27  .....s068.|....'
0780: 80 00 97 07 27 14 F0 FF  FF 7F 24 4A F0 FF FF 7F  ....'.....$J....
0790: 62 80 0F 01 01 C2 07 02  87 7F 28 80 00 B2 07 27  b.........(....'
07A0: 14 F0 FF FF 7F 24 4A F0  FF FF 7F 62 80 0F 01 01  .....$J....b....
07B0: C2 07 27 14 F0 FF FF 7F  22 4A F0 FF FF 7F 62 80  ..'....."J....b.
07C0: 0F 01 45 03 80 F0 FF FF  7F F0 FF FF 7F 73 30 31  ..E..........s01
07D0: 30 04 80 5B 06 80 F8 FF  FF 7F F8 FF FF 7F 74 6C  0..[..........tl
07E0: 62 30 1D 42 80 23 5B 06  80 F8 FF FF 7F F8 FF FF  b0.B.#[.........
07F0: 7F 74 6C 62 31 79 00 62  80 0F 01 61 80 0F 01 4A  .tlb1y.b...a...J
0800: F0 FF FF 7F 61 80 0F 01  1C 0D 80 6E F0 FF FF 7F  ....a......n....
0810: 0C 80 99 F0 FF FF 7F 1C  05 80 27 0F 62 80 0F 01  ..........'.b...
0820: 06 1A EA 38 02 09 00 2C  80 80 37 08 2B 62 80 0F  ...8...,..7.+b..
0830: 01 43 80 23 01 08 09 02  09 00 2E 80 80 4A 08 2B  .C.#.........J.+
0840: 62 80 0F 01 44 80 23 01  08 09 02 09 00 30 80 80  b...D.#......0..
0850: 5D 08 2B 62 80 0F 01 45  80 23 01 08 09 02 09 00  ].+b...E.#......
0860: 32 80 80 70 08 2B 62 80  0F 01 46 80 23 01 08 09  2..p.+b...F.#...
0870: 02 09 00 27 80 80 83 08  2B 62 80 0F 01 47 80 23  ...'....+b...G.#
0880: 01 08 09 02 09 00 28 80  80 96 08 2B 62 80 0F 01  ......(....+b...
0890: 48 80 23 01 08 09 02 09  00 0C 80 80 A9 08 2B 62  H.#...........+b
08A0: 80 0F 01 49 80 23 01 08  09 02 09 00 37 80 80 BC  ...I.#......7...
08B0: 08 2B 62 80 0F 01 4A 80  23 01 08 09 02 09 00 39  .+b...J.#......9
08C0: 80 80 CF 08 2B 62 80 0F  01 4B 80 23 01 08 09 02  ....+b...K.#....
08D0: 09 00 3B 80 80 E2 08 2B  62 80 0F 01 4C 80 23 01  ..;....+b...L.#.
08E0: 08 09 02 09 00 3D 80 80  F5 08 2B 62 80 0F 01 4D  .....=....+b...M
08F0: 80 23 01 08 09 02 09 00  3F 80 80 08 09 2B 62 80  .#......?....+b.
0900: 0F 01 4E 80 23 01 08 09  5B 06 80 F8 FF FF 7F F8  ..N.#...[.......
0910: FF FF 7F 74 6C 6B 30 1D  4F 80 23 5B 06 80 F8 FF  ...tlk0.O.#[....
0920: FF 7F F8 FF FF 7F 74 65  6E 30 1C 05 80 1A A8 22  ......ten0....."
0930: 1C 41 80 1A DB 22 52 03  80 F0 FF FF 7F F0 FF FF  .A..."R.........
0940: 7F 73 30 31 30 27 0F 62  80 0F 01 07 45 11 80 F8  .s010'.b....E...
0950: FF FF 7F F8 FF FF 7F 6F  76 6C 32 04 80 1A 09 38  .......ovl2....8
0960: 02 0C 00 04 80 80 7C 09  45 03 80 F0 FF FF 7F F0  ......|.E.......
0970: FF FF 7F 73 30 31 31 04  80 01 5C 0A 02 0C 00 2C  ...s011...\....,
0980: 80 80 98 09 45 03 80 F0  FF FF 7F F0 FF FF 7F 73  ....E..........s
0990: 30 31 31 04 80 01 5C 0A  02 0C 00 2E 80 80 B4 09  011...\.........
09A0: 45 03 80 F0 FF FF 7F F0  FF FF 7F 73 30 32 30 04  E..........s020.
09B0: 80 01 5C 0A 02 0C 00 30  80 80 D0 09 45 03 80 F0  ..\....0....E...
09C0: FF FF 7F F0 FF FF 7F 73  30 32 30 04 80 01 5C 0A  .......s020...\.
09D0: 02 0C 00 32 80 80 EC 09  45 03 80 F0 FF FF 7F F0  ...2....E.......
09E0: FF FF 7F 73 30 32 32 04  80 01 5C 0A 02 0C 00 27  ...s022...\....'
09F0: 80 80 08 0A 45 03 80 F0  FF FF 7F F0 FF FF 7F 73  ....E..........s
0A00: 30 32 32 04 80 01 5C 0A  02 0C 00 28 80 80 24 0A  022...\....(..$.
0A10: 45 03 80 F0 FF FF 7F F0  FF FF 7F 73 30 31 31 04  E..........s011.
0A20: 80 01 5C 0A 02 0C 00 0C  80 80 40 0A 45 03 80 F0  ..\.......@.E...
0A30: FF FF 7F F0 FF FF 7F 73  30 32 31 04 80 01 5C 0A  .......s021...\.
0A40: 02 0C 00 37 80 80 5C 0A  45 03 80 F0 FF FF 7F F0  ...7..\.E.......
0A50: FF FF 7F 73 30 32 31 04  80 01 5C 0A 1A EA 38 02  ...s021...\...8.
0A60: 09 00 2C 80 80 7A 0A 2B  62 80 0F 01 50 80 23 2B  ..,..z.+b...P.#+
0A70: 62 80 0F 01 51 80 23 01  A3 0B 02 09 00 2E 80 80  b...Q.#.........
0A80: 95 0A 2B 62 80 0F 01 52  80 23 2B 62 80 0F 01 53  ..+b...R.#+b...S
0A90: 80 23 01 A3 0B 02 09 00  30 80 80 B0 0A 2B 62 80  .#......0....+b.
0AA0: 0F 01 54 80 23 2B 62 80  0F 01 55 80 23 01 A3 0B  ..T.#+b...U.#...
0AB0: 02 09 00 32 80 80 CB 0A  2B 62 80 0F 01 56 80 23  ...2....+b...V.#
0AC0: 2B 62 80 0F 01 57 80 23  01 A3 0B 02 09 00 27 80  +b...W.#......'.
0AD0: 80 E6 0A 2B 62 80 0F 01  58 80 23 2B 62 80 0F 01  ...+b...X.#+b...
0AE0: 59 80 23 01 A3 0B 02 09  00 28 80 80 01 0B 2B 62  Y.#......(....+b
0AF0: 80 0F 01 5A 80 23 2B 62  80 0F 01 5B 80 23 01 A3  ...Z.#+b...[.#..
0B00: 0B 02 09 00 0C 80 80 1C  0B 2B 62 80 0F 01 5C 80  .........+b...\.
0B10: 23 2B 62 80 0F 01 5D 80  23 01 A3 0B 02 09 00 37  #+b...].#......7
0B20: 80 80 37 0B 2B 62 80 0F  01 5E 80 23 2B 62 80 0F  ..7.+b...^.#+b..
0B30: 01 5F 80 23 01 A3 0B 02  09 00 39 80 80 52 0B 2B  ._.#......9..R.+
0B40: 62 80 0F 01 60 80 23 2B  62 80 0F 01 61 80 23 01  b...`.#+b...a.#.
0B50: A3 0B 02 09 00 3B 80 80  6D 0B 2B 62 80 0F 01 62  .....;..m.+b...b
0B60: 80 23 2B 62 80 0F 01 63  80 23 01 A3 0B 02 09 00  .#+b...c.#......
0B70: 3D 80 80 88 0B 2B 62 80  0F 01 64 80 23 2B 62 80  =....+b...d.#+b.
0B80: 0F 01 65 80 23 01 A3 0B  02 09 00 3F 80 80 A3 0B  ..e.#......?....
0B90: 2B 62 80 0F 01 66 80 23  2B 62 80 0F 01 67 80 23  +b...f.#+b...g.#
0BA0: 01 A3 0B 1A 09 38 02 0C  00 04 80 80 C0 0B 52 03  .....8........R.
0BB0: 80 F0 FF FF 7F F0 FF FF  7F 73 30 31 31 01 90 0C  .........s011...
0BC0: 02 0C 00 2C 80 80 DA 0B  52 03 80 F0 FF FF 7F F0  ...,....R.......
0BD0: FF FF 7F 73 30 31 31 01  90 0C 02 0C 00 2E 80 80  ...s011.........
0BE0: F4 0B 52 03 80 F0 FF FF  7F F0 FF FF 7F 73 30 32  ..R..........s02
0BF0: 30 01 90 0C 02 0C 00 30  80 80 0E 0C 52 03 80 F0  0......0....R...
0C00: FF FF 7F F0 FF FF 7F 73  30 32 30 01 90 0C 02 0C  .......s020.....
0C10: 00 32 80 80 28 0C 52 03  80 F0 FF FF 7F F0 FF FF  .2..(.R.........
0C20: 7F 73 30 32 32 01 90 0C  02 0C 00 27 80 80 42 0C  .s022......'..B.
0C30: 52 03 80 F0 FF FF 7F F0  FF FF 7F 73 30 32 32 01  R..........s022.
0C40: 90 0C 02 0C 00 28 80 80  5C 0C 52 03 80 F0 FF FF  .....(..\.R.....
0C50: 7F F0 FF FF 7F 73 30 31  31 01 90 0C 02 0C 00 0C  .....s011.......
0C60: 80 80 76 0C 52 03 80 F0  FF FF 7F F0 FF FF 7F 73  ..v.R..........s
0C70: 30 32 31 01 90 0C 02 0C  00 37 80 80 90 0C 52 03  021......7....R.
0C80: 80 F0 FF FF 7F F0 FF FF  7F 73 30 32 31 01 90 0C  .........s021...
0C90: 1A 09 38 02 0C 00 04 80  80 AF 0C 45 03 80 F0 FF  ..8........E....
0CA0: FF 7F F0 FF FF 7F 73 30  31 32 04 80 01 8F 0D 02  ......s012......
0CB0: 0C 00 2C 80 80 CB 0C 45  03 80 F0 FF FF 7F F0 FF  ..,....E........
0CC0: FF 7F 73 30 31 32 04 80  01 8F 0D 02 0C 00 2E 80  ..s012..........
0CD0: 80 E7 0C 45 03 80 F0 FF  FF 7F F0 FF FF 7F 73 30  ...E..........s0
0CE0: 31 32 04 80 01 8F 0D 02  0C 00 30 80 80 03 0D 45  12........0....E
0CF0: 03 80 F0 FF FF 7F F0 FF  FF 7F 73 30 31 32 04 80  ..........s012..
0D00: 01 8F 0D 02 0C 00 32 80  80 1F 0D 45 03 80 F0 FF  ......2....E....
0D10: FF 7F F0 FF FF 7F 73 30  31 39 04 80 01 8F 0D 02  ......s019......
0D20: 0C 00 27 80 80 3B 0D 45  03 80 F0 FF FF 7F F0 FF  ..'..;.E........
0D30: FF 7F 73 30 31 39 04 80  01 8F 0D 02 0C 00 28 80  ..s019........(.
0D40: 80 57 0D 45 03 80 F0 FF  FF 7F F0 FF FF 7F 73 30  .W.E..........s0
0D50: 31 32 04 80 01 8F 0D 02  0C 00 0C 80 80 73 0D 45  12...........s.E
0D60: 03 80 F0 FF FF 7F F0 FF  FF 7F 73 30 31 32 04 80  ..........s012..
0D70: 01 8F 0D 02 0C 00 37 80  80 8F 0D 45 03 80 F0 FF  ......7....E....
0D80: FF 7F F0 FF FF 7F 73 30  31 32 04 80 01 8F 0D 4A  ......s012.....J
0D90: F0 FF FF 7F 61 80 0F 01  6F 70 5B 06 80 F8 FF FF  ....a...op[.....
0DA0: 7F F8 FF FF 7F 74 68 6B  31 1C 0D 80 1D 68 80 23  .....thk1....h.#
0DB0: 5B 06 80 F8 FF FF 7F F8  FF FF 7F 74 68 6B 32 5B  [..........thk2[
0DC0: 06 80 F8 FF FF 7F F8 FF  FF 7F 74 6C 6B 32 1D 69  ..........tlk2.i
0DD0: 80 23 5B 06 80 F8 FF FF  7F F8 FF FF 7F 74 65 6E  .#[..........ten
0DE0: 32 27 0F 62 80 0F 01 06  1A EA 38 02 09 00 2C 80  2'.b......8...,.
0DF0: 80 FE 0D 2B 62 80 0F 01  6A 80 23 01 CF 0E 02 09  ...+b...j.#.....
0E00: 00 2E 80 80 11 0E 2B 62  80 0F 01 6B 80 23 01 CF  ......+b...k.#..
0E10: 0E 02 09 00 30 80 80 24  0E 2B 62 80 0F 01 6C 80  ....0..$.+b...l.
0E20: 23 01 CF 0E 02 09 00 32  80 80 37 0E 2B 62 80 0F  #......2..7.+b..
0E30: 01 6D 80 23 01 CF 0E 02  09 00 27 80 80 4A 0E 2B  .m.#......'..J.+
0E40: 62 80 0F 01 6E 80 23 01  CF 0E 02 09 00 28 80 80  b...n.#......(..
0E50: 5D 0E 2B 62 80 0F 01 6F  80 23 01 CF 0E 02 09 00  ].+b...o.#......
0E60: 0C 80 80 70 0E 2B 62 80  0F 01 70 80 23 01 CF 0E  ...p.+b...p.#...
0E70: 02 09 00 37 80 80 83 0E  2B 62 80 0F 01 71 80 23  ...7....+b...q.#
0E80: 01 CF 0E 02 09 00 39 80  80 96 0E 2B 62 80 0F 01  ......9....+b...
0E90: 72 80 23 01 CF 0E 02 09  00 3B 80 80 A9 0E 2B 62  r.#......;....+b
0EA0: 80 0F 01 73 80 23 01 CF  0E 02 09 00 3D 80 80 BC  ...s.#......=...
0EB0: 0E 2B 62 80 0F 01 74 80  23 01 CF 0E 02 09 00 3F  .+b...t.#......?
0EC0: 80 80 CF 0E 2B 62 80 0F  01 75 80 23 01 CF 0E 1A  ....+b...u.#....
0ED0: 09 38 02 0C 00 04 80 80  EC 0E 52 03 80 F0 FF FF  .8........R.....
0EE0: 7F F0 FF FF 7F 73 30 31  32 01 BC 0F 02 0C 00 2C  .....s012......,
0EF0: 80 80 06 0F 52 03 80 F0  FF FF 7F F0 FF FF 7F 73  ....R..........s
0F00: 30 31 32 01 BC 0F 02 0C  00 2E 80 80 20 0F 52 03  012......... .R.
0F10: 80 F0 FF FF 7F F0 FF FF  7F 73 30 31 32 01 BC 0F  .........s012...
0F20: 02 0C 00 30 80 80 3A 0F  52 03 80 F0 FF FF 7F F0  ...0..:.R.......
0F30: FF FF 7F 73 30 31 32 01  BC 0F 02 0C 00 32 80 80  ...s012......2..
0F40: 54 0F 52 03 80 F0 FF FF  7F F0 FF FF 7F 73 30 31  T.R..........s01
0F50: 39 01 BC 0F 02 0C 00 27  80 80 6E 0F 52 03 80 F0  9......'..n.R...
0F60: FF FF 7F F0 FF FF 7F 73  30 31 39 01 BC 0F 02 0C  .......s019.....
0F70: 00 28 80 80 88 0F 52 03  80 F0 FF FF 7F F0 FF FF  .(....R.........
0F80: 7F 73 30 31 32 01 BC 0F  02 0C 00 0C 80 80 A2 0F  .s012...........
0F90: 52 03 80 F0 FF FF 7F F0  FF FF 7F 73 30 31 32 01  R..........s012.
0FA0: BC 0F 02 0C 00 37 80 80  BC 0F 52 03 80 F0 FF FF  .....7....R.....
0FB0: 7F F0 FF FF 7F 73 30 31  32 01 BC 0F 5B 06 80 F8  .....s012...[...
0FC0: FF FF 7F F8 FF FF 7F 74  6C 6B 30 4E 01 62 80 0F  .......tlk0N.b..
0FD0: 01 45 03 80 F0 FF FF 7F  F0 FF FF 7F 73 30 31 33  .E..........s013
0FE0: 04 80 79 00 61 80 0F 01  F0 FF FF 7F 79 00 61 80  ..y.a.......y.a.
0FF0: 0F 01 62 80 0F 01 5B 06  80 F8 FF FF 7F F8 FF FF  ..b...[.........
1000: 7F 74 6C 6B 32 1D 76 80  23 1D 77 80 23 1D 78 80  .tlk2.v.#.w.#.x.
1010: 23 5B 06 80 F8 FF FF 7F  F8 FF FF 7F 74 65 6E 32  #[..........ten2
1020: 52 03 80 F0 FF FF 7F F0  FF FF 7F 73 30 31 33 4E  R..........s013N
1030: 00 62 80 0F 01 80 62 80  0F 01 2F 00 62 80 0F 01  .b....b.../.b...
1040: 45 03 80 F0 FF FF 7F F0  FF FF 7F 73 30 36 36 04  E..........s066.
1050: 80 1D 79 80 23 1D 7A 80  23 52 03 80 F0 FF FF 7F  ..y.#.z.#R......
1060: F0 FF FF 7F 73 30 36 36  45 03 80 F0 FF FF 7F F0  ....s066E.......
1070: FF FF 7F 73 30 31 34 04  80 1C 0D 80 5B 06 80 F8  ...s014.....[...
1080: FF FF 7F F8 FF FF 7F 74  68 6B 31 1D 7B 80 23 5B  .......thk1.{.#[
1090: 06 80 F8 FF FF 7F F8 FF  FF 7F 74 68 6B 32 5B 06  ..........thk2[.
10A0: 80 F8 FF FF 7F F8 FF FF  7F 74 6C 6B 30 1D 7C 80  .........tlk0.|.
10B0: 23 5B 06 80 F8 FF FF 7F  F8 FF FF 7F 74 65 6E 31  #[..........ten1
10C0: 52 03 80 F0 FF FF 7F F0  FF FF 7F 73 30 31 34 27  R..........s014'
10D0: 14 F0 FF FF 7F 23 22 01  45 03 80 F0 FF FF 7F F0  .....#".E.......
10E0: FF FF 7F 73 30 31 37 04  80 79 00 62 80 0F 01 F0  ...s017..y.b....
10F0: FF FF 7F 1C 0B 80 79 00  F0 FF FF 7F 62 80 0F 01  ......y.....b...
1100: 1C 05 80 1A EA 38 02 09  00 2C 80 80 38 11 2B 62  .....8...,..8.+b
1110: 80 0F 01 7D 80 23 1C 05  80 79 00 62 80 0F 01 61  ...}.#...y.b...a
1120: 80 0F 01 79 00 F0 FF FF  7F 61 80 0F 01 2B 62 80  ...y.....a...+b.
1130: 0F 01 7E 80 23 01 5E 13  02 09 00 2E 80 80 6A 11  ..~.#.^.......j.
1140: 2B 62 80 0F 01 7F 80 23  1C 05 80 79 00 62 80 0F  +b.....#...y.b..
1150: 01 61 80 0F 01 79 00 F0  FF FF 7F 61 80 0F 01 2B  .a...y.....a...+
1160: 62 80 0F 01 80 80 23 01  5E 13 02 09 00 30 80 80  b.....#.^....0..
1170: 9C 11 2B 62 80 0F 01 81  80 23 1C 05 80 79 00 62  ..+b.....#...y.b
1180: 80 0F 01 61 80 0F 01 79  00 F0 FF FF 7F 61 80 0F  ...a...y.....a..
1190: 01 2B 62 80 0F 01 82 80  23 01 5E 13 02 09 00 32  .+b.....#.^....2
11A0: 80 80 CE 11 2B 62 80 0F  01 83 80 23 1C 05 80 79  ....+b.....#...y
11B0: 00 62 80 0F 01 61 80 0F  01 79 00 F0 FF FF 7F 61  .b...a...y.....a
11C0: 80 0F 01 2B 62 80 0F 01  84 80 23 01 5E 13 02 09  ...+b.....#.^...
11D0: 00 27 80 80 00 12 2B 62  80 0F 01 85 80 23 1C 05  .'....+b.....#..
11E0: 80 79 00 62 80 0F 01 61  80 0F 01 79 00 F0 FF FF  .y.b...a...y....
11F0: 7F 61 80 0F 01 2B 62 80  0F 01 86 80 23 01 5E 13  .a...+b.....#.^.
1200: 02 09 00 28 80 80 32 12  2B 62 80 0F 01 87 80 23  ...(..2.+b.....#
1210: 1C 05 80 79 00 62 80 0F  01 61 80 0F 01 79 00 F0  ...y.b...a...y..
1220: FF FF 7F 61 80 0F 01 2B  62 80 0F 01 88 80 23 01  ...a...+b.....#.
1230: 5E 13 02 09 00 0C 80 80  64 12 2B 62 80 0F 01 89  ^.......d.+b....
1240: 80 23 1C 05 80 79 00 62  80 0F 01 61 80 0F 01 79  .#...y.b...a...y
1250: 00 F0 FF FF 7F 61 80 0F  01 2B 62 80 0F 01 8A 80  .....a...+b.....
1260: 23 01 5E 13 02 09 00 37  80 80 96 12 2B 62 80 0F  #.^....7....+b..
1270: 01 8B 80 23 1C 05 80 79  00 62 80 0F 01 61 80 0F  ...#...y.b...a..
1280: 01 79 00 F0 FF FF 7F 61  80 0F 01 2B 62 80 0F 01  .y.....a...+b...
1290: 8C 80 23 01 5E 13 02 09  00 39 80 80 C8 12 2B 62  ..#.^....9....+b
12A0: 80 0F 01 8D 80 23 1C 05  80 79 00 62 80 0F 01 61  .....#...y.b...a
12B0: 80 0F 01 79 00 F0 FF FF  7F 61 80 0F 01 2B 62 80  ...y.....a...+b.
12C0: 0F 01 8E 80 23 01 5E 13  02 09 00 3B 80 80 FA 12  ....#.^....;....
12D0: 2B 62 80 0F 01 8F 80 23  1C 05 80 79 00 62 80 0F  +b.....#...y.b..
12E0: 01 61 80 0F 01 79 00 F0  FF FF 7F 61 80 0F 01 2B  .a...y.....a...+
12F0: 62 80 0F 01 90 80 23 01  5E 13 02 09 00 3D 80 80  b.....#.^....=..
1300: 2C 13 2B 62 80 0F 01 91  80 23 1C 05 80 79 00 62  ,.+b.....#...y.b
1310: 80 0F 01 61 80 0F 01 79  00 F0 FF FF 7F 61 80 0F  ...a...y.....a..
1320: 01 2B 62 80 0F 01 92 80  23 01 5E 13 02 09 00 3F  .+b.....#.^....?
1330: 80 80 5E 13 2B 62 80 0F  01 93 80 23 1C 05 80 79  ..^.+b.....#...y
1340: 00 62 80 0F 01 61 80 0F  01 79 00 F0 FF FF 7F 61  .b...a...y.....a
1350: 80 0F 01 2B 62 80 0F 01  94 80 23 01 5E 13 52 03  ...+b.....#.^.R.
1360: 80 F0 FF FF 7F F0 FF FF  7F 73 30 31 37 22 00 45  .........s017".E
1370: 03 80 F0 FF FF 7F F0 FF  FF 7F 73 30 31 36 04 80  ..........s016..
1380: 5B 06 80 F8 FF FF 7F F8  FF FF 7F 74 6C 6B 30 1C  [..........tlk0.
1390: 05 80 1D 95 80 23 1C 05  80 1D 96 80 23 1C 0D 80  .....#......#...
13A0: 1D 97 80 23 5B 06 80 F8  FF FF 7F F8 FF FF 7F 74  ...#[..........t
13B0: 65 6E 30 24 98 80 04 80  04 80 25 02 00 10 04 80  en0$......%.....
13C0: 00 C7 15 52 03 80 F0 FF  FF 7F F0 FF FF 7F 73 30  ...R..........s0
13D0: 31 36 1A 09 38 02 0C 00  04 80 80 F1 13 45 03 80  16..8........E..
13E0: F0 FF FF 7F F0 FF FF 7F  73 30 37 30 04 80 01 B5  ........s070....
13F0: 14 02 0C 00 2C 80 80 0D  14 45 03 80 F0 FF FF 7F  ....,....E......
1400: F0 FF FF 7F 73 30 37 30  04 80 01 B5 14 02 0C 00  ....s070........
1410: 2E 80 80 29 14 45 03 80  F0 FF FF 7F F0 FF FF 7F  ...).E..........
1420: 73 30 37 33 04 80 01 B5  14 02 0C 00 30 80 80 45  s073........0..E
1430: 14 45 03 80 F0 FF FF 7F  F0 FF FF 7F 73 30 37 30  .E..........s070
1440: 04 80 01 B5 14 02 0C 00  32 80 80 61 14 45 03 80  ........2..a.E..
1450: F0 FF FF 7F F0 FF FF 7F  73 30 37 31 04 80 01 B5  ........s071....
1460: 14 02 0C 00 27 80 80 7D  14 45 03 80 F0 FF FF 7F  ....'..}.E......
1470: F0 FF FF 7F 73 30 37 31  04 80 01 B5 14 02 0C 00  ....s071........
1480: 28 80 80 99 14 45 03 80  F0 FF FF 7F F0 FF FF 7F  (....E..........
1490: 73 30 37 36 04 80 01 B5  14 02 0C 00 0C 80 80 B5  s076............
14A0: 14 45 03 80 F0 FF FF 7F  F0 FF FF 7F 73 30 37 33  .E..........s073
14B0: 04 80 01 B5 14 1C 0D 80  79 00 62 80 0F 01 F0 FF  ........y.b.....
14C0: FF 7F 1A EA 38 02 09 00  2C 80 80 D8 14 2B 62 80  ....8...,....+b.
14D0: 0F 01 99 80 23 01 A9 15  02 09 00 2E 80 80 EB 14  ....#...........
14E0: 2B 62 80 0F 01 9A 80 23  01 A9 15 02 09 00 30 80  +b.....#......0.
14F0: 80 FE 14 2B 62 80 0F 01  9B 80 23 01 A9 15 02 09  ...+b.....#.....
1500: 00 32 80 80 11 15 2B 62  80 0F 01 9C 80 23 01 A9  .2....+b.....#..
1510: 15 02 09 00 27 80 80 24  15 2B 62 80 0F 01 9D 80  ....'..$.+b.....
1520: 23 01 A9 15 02 09 00 28  80 80 37 15 2B 62 80 0F  #......(..7.+b..
1530: 01 9E 80 23 01 A9 15 02  09 00 0C 80 80 4A 15 2B  ...#.........J.+
1540: 62 80 0F 01 9F 80 23 01  A9 15 02 09 00 37 80 80  b.....#......7..
1550: 5D 15 2B 62 80 0F 01 A0  80 23 01 A9 15 02 09 00  ].+b.....#......
1560: 39 80 80 70 15 2B 62 80  0F 01 A1 80 23 01 A9 15  9..p.+b.....#...
1570: 02 09 00 3B 80 80 83 15  2B 62 80 0F 01 A2 80 23  ...;....+b.....#
1580: 01 A9 15 02 09 00 3D 80  80 96 15 2B 62 80 0F 01  ......=....+b...
1590: A3 80 23 01 A9 15 02 09  00 3F 80 80 A9 15 2B 62  ..#......?....+b
15A0: 80 0F 01 A4 80 23 01 A9  15 03 00 00 2C 80 01 D3  .....#......,...
15B0: 17 4A 62 80 0F 01 F0 FF  FF 7F 1C 0D 80 79 00 F0  .Jb..........y..
15C0: FF FF 7F 62 80 0F 01 02  00 10 2C 80 00 D3 17 52  ...b......,....R
15D0: 03 80 F0 FF FF 7F F0 FF  FF 7F 73 30 31 36 1A 09  ..........s016..
15E0: 38 02 0C 00 04 80 80 FD  15 45 03 80 F0 FF FF 7F  8........E......
15F0: F0 FF FF 7F 73 30 37 30  04 80 01 C1 16 02 0C 00  ....s070........
1600: 2C 80 80 19 16 45 03 80  F0 FF FF 7F F0 FF FF 7F  ,....E..........
1610: 73 30 37 30 04 80 01 C1  16 02 0C 00 2E 80 80 35  s070...........5
1620: 16 45 03 80 F0 FF FF 7F  F0 FF FF 7F 73 30 37 33  .E..........s073
1630: 04 80 01 C1 16 02 0C 00  30 80 80 51 16 45 03 80  ........0..Q.E..
1640: F0 FF FF 7F F0 FF FF 7F  73 30 37 30 04 80 01 C1  ........s070....
1650: 16 02 0C 00 32 80 80 6D  16 45 03 80 F0 FF FF 7F  ....2..m.E......
1660: F0 FF FF 7F 73 30 37 31  04 80 01 C1 16 02 0C 00  ....s071........
1670: 27 80 80 89 16 45 03 80  F0 FF FF 7F F0 FF FF 7F  '....E..........
1680: 73 30 37 31 04 80 01 C1  16 02 0C 00 28 80 80 A5  s071........(...
1690: 16 45 03 80 F0 FF FF 7F  F0 FF FF 7F 73 30 37 36  .E..........s076
16A0: 04 80 01 C1 16 02 0C 00  0C 80 80 C1 16 45 03 80  .............E..
16B0: F0 FF FF 7F F0 FF FF 7F  73 30 37 37 04 80 01 C1  ........s077....
16C0: 16 1C 0D 80 79 00 62 80  0F 01 F0 FF FF 7F 4A 62  ....y.b.......Jb
16D0: 80 0F 01 F0 FF FF 7F 1C  0D 80 79 00 F0 FF FF 7F  ..........y.....
16E0: 62 80 0F 01 1A EA 38 02  09 00 2C 80 80 FA 16 2B  b.....8...,....+
16F0: 62 80 0F 01 A5 80 23 01  CB 17 02 09 00 2E 80 80  b.....#.........
1700: 0D 17 2B 62 80 0F 01 A6  80 23 01 CB 17 02 09 00  ..+b.....#......
1710: 30 80 80 20 17 2B 62 80  0F 01 A7 80 23 01 CB 17  0.. .+b.....#...
1720: 02 09 00 32 80 80 33 17  2B 62 80 0F 01 A8 80 23  ...2..3.+b.....#
1730: 01 CB 17 02 09 00 27 80  80 46 17 2B 62 80 0F 01  ......'..F.+b...
1740: A9 80 23 01 CB 17 02 09  00 28 80 80 59 17 2B 62  ..#......(..Y.+b
1750: 80 0F 01 AA 80 23 01 CB  17 02 09 00 0C 80 80 6C  .....#.........l
1760: 17 2B 62 80 0F 01 AB 80  23 01 CB 17 02 09 00 37  .+b.....#......7
1770: 80 80 7F 17 2B 62 80 0F  01 AC 80 23 01 CB 17 02  ....+b.....#....
1780: 09 00 39 80 80 92 17 2B  62 80 0F 01 AD 80 23 01  ..9....+b.....#.
1790: CB 17 02 09 00 3B 80 80  A5 17 2B 62 80 0F 01 AE  .....;....+b....
17A0: 80 23 01 CB 17 02 09 00  3D 80 80 B8 17 2B 62 80  .#......=....+b.
17B0: 0F 01 AF 80 23 01 CB 17  02 09 00 3F 80 80 CB 17  ....#......?....
17C0: 2B 62 80 0F 01 B0 80 23  01 CB 17 03 00 00 2E 80  +b.....#........
17D0: 01 D3 17 1A 09 38 02 0C  00 04 80 80 01 18 45 11  .....8........E.
17E0: 80 F8 FF FF 7F F8 FF FF  7F 6F 76 6C 32 04 80 52  .........ovl2..R
17F0: 03 80 F0 FF FF 7F F0 FF  FF 7F 73 30 37 30 01 59  ..........s070.Y
1800: 19 02 0C 00 2C 80 80 2C  18 45 11 80 F8 FF FF 7F  ....,..,.E......
1810: F8 FF FF 7F 6F 76 6C 32  04 80 52 03 80 F0 FF FF  ....ovl2..R.....
1820: 7F F0 FF FF 7F 73 30 37  30 01 59 19 02 0C 00 2E  .....s070.Y.....
1830: 80 80 57 18 45 11 80 F8  FF FF 7F F8 FF FF 7F 6F  ..W.E..........o
1840: 76 6C 32 04 80 52 03 80  F0 FF FF 7F F0 FF FF 7F  vl2..R..........
1850: 73 30 37 33 01 59 19 02  0C 00 30 80 80 82 18 45  s073.Y....0....E
1860: 11 80 F8 FF FF 7F F8 FF  FF 7F 6F 76 6C 32 04 80  ..........ovl2..
1870: 52 03 80 F0 FF FF 7F F0  FF FF 7F 73 30 37 33 01  R..........s073.
1880: 59 19 02 0C 00 32 80 80  AD 18 45 11 80 F8 FF FF  Y....2....E.....
1890: 7F F8 FF FF 7F 6F 76 6C  32 04 80 52 03 80 F0 FF  .....ovl2..R....
18A0: FF 7F F0 FF FF 7F 73 30  37 31 01 59 19 02 0C 00  ......s071.Y....
18B0: 27 80 80 D8 18 45 11 80  F8 FF FF 7F F8 FF FF 7F  '....E..........
18C0: 6F 76 6C 32 04 80 52 03  80 F0 FF FF 7F F0 FF FF  ovl2..R.........
18D0: 7F 73 30 37 31 01 59 19  02 0C 00 28 80 80 03 19  .s071.Y....(....
18E0: 45 11 80 F8 FF FF 7F F8  FF FF 7F 6F 76 6C 32 04  E..........ovl2.
18F0: 80 52 03 80 F0 FF FF 7F  F0 FF FF 7F 73 30 37 30  .R..........s070
1900: 01 59 19 02 0C 00 0C 80  80 2E 19 45 11 80 F8 FF  .Y.........E....
1910: FF 7F F8 FF FF 7F 6F 76  6C 32 04 80 52 03 80 F0  ......ovl2..R...
1920: FF FF 7F F0 FF FF 7F 73  30 37 33 01 59 19 02 0C  .......s073.Y...
1930: 00 37 80 80 59 19 45 11  80 F8 FF FF 7F F8 FF FF  .7..Y.E.........
1940: 7F 6F 76 6C 32 04 80 52  03 80 F0 FF FF 7F F0 FF  .ovl2..R........
1950: FF 7F 73 30 37 37 01 59  19 45 03 80 F0 FF FF 7F  ..s077.Y.E......
1960: F0 FF FF 7F 73 30 31 38  04 80 4A 62 80 0F 01 61  ....s018..Jb...a
1970: 80 0F 01 1C 0B 80 79 00  F0 FF FF 7F 61 80 0F 01  ......y.....a...
1980: 1D B1 80 23 1C 0D 80 1D  B2 80 23 1D B3 80 23 52  ...#......#...#R
1990: 03 80 F0 FF FF 7F F0 FF  FF 7F 73 30 31 38 01 CE  ..........s018..
19A0: 19 02 00 10 2C 80 00 CE  19 5B 06 80 F8 FF FF 7F  ....,....[......
19B0: F8 FF FF 7F 74 68 6B 31  1D B4 80 23 5B 06 80 F8  ....thk1...#[...
19C0: FF FF 7F F8 FF FF 7F 74  68 6B 32 01 CE 19 1A 87  .......thk2.....
19D0: 22 46 00 1C 41 80 1A C9  22 03 01 10 00 00 21 00  "F..A...".....!.
```

#### Opcodes

```
  0: 0x0010 [0x42] SET_CLI_EVENT_CANCEL_DATA()
  1: 0x0011 [0x1A] CALL_SUBROUTINE(address=0x2272)
  2: 0x0014 [0x46] CAMERA_CONTROL: Disable user control
  3: 0x0016 [0x92] EventEntity->Render.Flags3 ^= 0x01
  4: 0x001C [0x2F] Unnamed NPC (ID: 17793122/0x010F8062)->Render.Flags0 &= ~0x80000 // Bit 19
  5: 0x0022 [0x27] REQ_SET(priority=0x0A, entity_id=Unnamed NPC (ID: 17793122/0x010F8062), tag_num=0x02)
  6: 0x0029 [0x38] SET_CLIENT_EVENT_MODE(mode=27*)
  7: 0x002C [0x29] REQ_SET_WAIT(priority=0x0A, entity_id=LocalPlayer, tag_num=0x21)
  8: 0x0033 [0x1E] EventEntity looks at LocalPlayer and starts talking
  9: 0x0038 [0x6F] WAIT_FRAME_DELAY: Yield until WaitTime reaches zero
 10: 0x0039 [0x70] WAIT_ENTITY_RENDER_FLAG: Wait while EventEntity->Render.Flags3 bit 2 is set (cancel turn if not)
 11: 0x003A [0x4E] SET_ENTITY_HIDE_FLAG: Hide LocalPlayer
 12: 0x0040 [0x45] LOAD_SCHEDULED_TASK: Load scheduler "s000" with entities [LocalPlayer, LocalPlayer], work=[123*, 0*]
 13: 0x0051 [0x1C] WAIT(60* ticks)
 14: 0x0054 [0x1A] CALL_SUBROUTINE(address=0x22DB)
 15: 0x0057 [0x5B] LOAD_EXT_SCHEDULER: Load scheduler "thk1" with entities [EventEntity, EventEntity], work=238*
 16: 0x0066 [0x1D] PRINT_EVENT_MESSAGE(message_id=7419*)
    → "I've really gone and landed myself in it this time..."
 17: 0x0069 [0x23] WAIT_FOR_DIALOG_INTERACTION
 18: 0x006A [0x1D] PRINT_EVENT_MESSAGE(message_id=7420*)
    → "I've got to... No, I can't. This is awful!"
 19: 0x006D [0x23] WAIT_FOR_DIALOG_INTERACTION
 20: 0x006E [0x5B] LOAD_EXT_SCHEDULER: Load scheduler "thk2" with entities [EventEntity, EventEntity], work=238*
 21: 0x007D [0x52] END_LOAD_SCHEDULER: End scheduler "s000" with entities [LocalPlayer, LocalPlayer], work=123*
 22: 0x008C [0x4E] SET_ENTITY_HIDE_FLAG: Show LocalPlayer
 23: 0x0092 [0x45] LOAD_SCHEDULED_TASK: Load scheduler "s001" with entities [LocalPlayer, LocalPlayer], work=[123*, 0*]
 24: 0x00A3 [0x1C] WAIT(60* ticks)
 25: 0x00A6 [0x5B] LOAD_EXT_SCHEDULER: Load scheduler "tlk0" with entities [EventEntity, EventEntity], work=238*
 26: 0x00B5 [0x79] LocalPlayer looks at Diederik (ID: 17793121/0x010F8061) (Basic look)
 27: 0x00BF [0x1C] WAIT(60* ticks)
 28: 0x00C2 [0x1D] PRINT_EVENT_MESSAGE(message_id=7421*)
    → "Oh, sorry. I didn't see you there. I was just thinking."
 29: 0x00C5 [0x23] WAIT_FOR_DIALOG_INTERACTION
 30: 0x00C6 [0x1D] PRINT_EVENT_MESSAGE(message_id=7422*)
    → "Hey, would you happen to be an adventurer?"
 31: 0x00C9 [0x23] WAIT_FOR_DIALOG_INTERACTION
 32: 0x00CA [0x1C] WAIT(15* ticks)
 33: 0x00CD [0x6E] LocalPlayer uses emote 7*
 34: 0x00D4 [0x99] Wait for LocalPlayer animation to complete
 35: 0x00D9 [0x1C] WAIT(60* ticks)
 36: 0x00DC [0x52] END_LOAD_SCHEDULER: End scheduler "s001" with entities [LocalPlayer, LocalPlayer], work=123*
 37: 0x00EB [0x45] LOAD_SCHEDULED_TASK: Load scheduler "s003" with entities [LocalPlayer, LocalPlayer], work=[123*, 0*]
 38: 0x00FC [0x1C] WAIT(30* ticks)
 39: 0x00FF [0x1D] PRINT_EVENT_MESSAGE(message_id=7423*)
    → "I knew it!"
 40: 0x0102 [0x23] WAIT_FOR_DIALOG_INTERACTION
 41: 0x0103 [0x1D] PRINT_EVENT_MESSAGE(message_id=7424*)
    → "If you have a moment, could you listen to what I have to say?"
 42: 0x0106 [0x23] WAIT_FOR_DIALOG_INTERACTION
 43: 0x0107 [0x03] ExtData[1]->WorkLocal[0] = 0*
 44: 0x010C [0x24] CREATE_DIALOG(message_id=7425*, default_option=0*, option_flags=0*)
    → "Listen to Diederik's problems? [Sure./I'm busy right now.]"
 45: 0x0113 [0x25] WAIT_DIALOG_SELECT()
 46: 0x0114 [0x02] IF !(Work_Zone[0] == 0*) GOTO 0x19A1
 47: 0x011C [0x1C] WAIT(30* ticks)
 48: 0x011F [0x5B] LOAD_EXT_SCHEDULER: Load scheduler "tlk1" with entities [EventEntity, EventEntity], work=238*
 49: 0x012E [0x52] END_LOAD_SCHEDULER: End scheduler "s003" with entities [LocalPlayer, LocalPlayer], work=123*
 50: 0x013D [0x45] LOAD_SCHEDULED_TASK: Load scheduler "ovl1" with entities [EventEntity, EventEntity], work=[200*, 0*]
 51: 0x014E [0x45] LOAD_SCHEDULED_TASK: Load scheduler "s002" with entities [LocalPlayer, LocalPlayer], work=[123*, 0*]
 52: 0x015F [0x1C] WAIT(60* ticks)
 53: 0x0162 [0x1D] PRINT_EVENT_MESSAGE(message_id=7426*)
    → "Oh, thank you! I was starting to get desperate!"
 54: 0x0165 [0x23] WAIT_FOR_DIALOG_INTERACTION
 55: 0x0166 [0x1C] WAIT(15* ticks)
 56: 0x0169 [0x1D] PRINT_EVENT_MESSAGE(message_id=7428*)
    → "I've been working knots in my stomach worrying about this..."
 57: 0x016C [0x23] WAIT_FOR_DIALOG_INTERACTION
 58: 0x016D [0x1D] PRINT_EVENT_MESSAGE(message_id=7429*)
    → "Anyway, I guess I'd better start from the beginning."
 59: 0x0170 [0x23] WAIT_FOR_DIALOG_INTERACTION
 60: 0x0171 [0x52] END_LOAD_SCHEDULER: End scheduler "s002" with entities [LocalPlayer, LocalPlayer], work=123*
 61: 0x0180 [0x45] LOAD_SCHEDULED_TASK: Load scheduler "ovl2" with entities [EventEntity, EventEntity], work=[200*, 0*]
 62: 0x0191 [0x45] LOAD_SCHEDULED_TASK: Load scheduler "s067" with entities [LocalPlayer, LocalPlayer], work=[123*, 0*]
 63: 0x01A2 [0x79] LocalPlayer looks at Diederik (ID: 17793121/0x010F8061) (Basic look)
 64: 0x01AC [0x1C] WAIT(30* ticks)
 65: 0x01AF [0x1D] PRINT_EVENT_MESSAGE(message_id=7430*)
    → "The name's Diederik. I'm currently working as a middleman to fulfill my customers' needs."
 66: 0x01B2 [0x23] WAIT_FOR_DIALOG_INTERACTION
 67: 0x01B3 [0x1C] WAIT(30* ticks)
 68: 0x01B6 [0x1D] PRINT_EVENT_MESSAGE(message_id=7431*)
    → "The other day, one of my clients, an old man in Bastok, said he wanted a painting. So I put in an order with a painter from Windurst."
 69: 0x01B9 [0x23] WAIT_FOR_DIALOG_INTERACTION
 70: 0x01BA [0x5B] LOAD_EXT_SCHEDULER: Load scheduler "thk1" with entities [EventEntity, EventEntity], work=238*
 71: 0x01C9 [0x1D] PRINT_EVENT_MESSAGE(message_id=7432*)
    → "Her name was...Angelica, I think it was. She seems to be rather well known among adventurers."
 72: 0x01CC [0x23] WAIT_FOR_DIALOG_INTERACTION
 73: 0x01CD [0x52] END_LOAD_SCHEDULER: End scheduler "s067" with entities [LocalPlayer, LocalPlayer], work=123*
 74: 0x01DC [0x45] LOAD_SCHEDULED_TASK: Load scheduler "ovl2" with entities [EventEntity, EventEntity], work=[200*, 0*]
 75: 0x01ED [0x45] LOAD_SCHEDULED_TASK: Load scheduler "s004" with entities [LocalPlayer, LocalPlayer], work=[123*, 0*]
 76: 0x01FE [0x1C] WAIT(30* ticks)
 77: 0x0201 [0x5B] LOAD_EXT_SCHEDULER: Load scheduler "thk2" with entities [EventEntity, EventEntity], work=238*
 78: 0x0210 [0x1C] WAIT(30* ticks)
 79: 0x0213 [0x27] REQ_SET(priority=0x0A, entity_id=Diederik (ID: 17793121/0x010F8061), tag_num=0x0C)
 80: 0x021A [0x79] LocalPlayer looks at Diederik (ID: 17793121/0x010F8061) (Basic look)
 81: 0x0224 [0x1D] PRINT_EVENT_MESSAGE(message_id=7433*)
    → "Anyway, I picked up the finished painting and everything seemed to be going fine..."
 82: 0x0227 [0x23] WAIT_FOR_DIALOG_INTERACTION
 83: 0x0228 [0x1C] WAIT(30* ticks)
 84: 0x022B [0x1D] PRINT_EVENT_MESSAGE(message_id=7434*)
    → "That is, until my ship was attacked by pirates."
 85: 0x022E [0x23] WAIT_FOR_DIALOG_INTERACTION
 86: 0x022F [0x52] END_LOAD_SCHEDULER: End scheduler "s004" with entities [LocalPlayer, LocalPlayer], work=123*
 87: 0x023E [0x45] LOAD_SCHEDULED_TASK: Load scheduler "s005" with entities [LocalPlayer, LocalPlayer], work=[123*, 0*]
 88: 0x024F [0x4A] LocalPlayer looks at Diederik (ID: 17793121/0x010F8061)
 89: 0x0258 [0x6F] WAIT_FRAME_DELAY: Yield until WaitTime reaches zero
 90: 0x0259 [0x70] WAIT_ENTITY_RENDER_FLAG: Wait while EventEntity->Render.Flags3 bit 2 is set (cancel turn if not)
 91: 0x025A [0x1D] PRINT_EVENT_MESSAGE(message_id=7435*)
    → "We were lucky that no one on board was harmed. But afterwards, I couldn't find the painting anywhere."
 92: 0x025D [0x23] WAIT_FOR_DIALOG_INTERACTION
 93: 0x025E [0x5B] LOAD_EXT_SCHEDULER: Load scheduler "thk1" with entities [EventEntity, EventEntity], work=238*
 94: 0x026D [0x1D] PRINT_EVENT_MESSAGE(message_id=7436*)
    → "I'm supposed to deliver it soon, though, and it puts me in a sweat just thinking about it!"
 95: 0x0270 [0x23] WAIT_FOR_DIALOG_INTERACTION
 96: 0x0271 [0x5B] LOAD_EXT_SCHEDULER: Load scheduler "thk2" with entities [EventEntity, EventEntity], work=238*
 97: 0x0280 [0x52] END_LOAD_SCHEDULER: End scheduler "s005" with entities [LocalPlayer, LocalPlayer], work=123*
 98: 0x028F [0x27] REQ_SET(priority=0x14, entity_id=LocalPlayer, tag_num=0x22)
 99: 0x0296 [0x45] LOAD_SCHEDULED_TASK: Load scheduler "s006" with entities [LocalPlayer, LocalPlayer], work=[123*, 0*]
100: 0x02A7 [0x79] LocalPlayer looks at Diederik (ID: 17793121/0x010F8061) (Basic look)
101: 0x02B1 [0x1C] WAIT(60* ticks)
102: 0x02B4 [0x1D] PRINT_EVENT_MESSAGE(message_id=7437*)
    → "Not only that, but my client is a cranky old man who'll string me up by the ears if he doesn't get what he wants! I can't face that!"
103: 0x02B7 [0x23] WAIT_FOR_DIALOG_INTERACTION
104: 0x02B8 [0x1D] PRINT_EVENT_MESSAGE(message_id=7438*)
    → "He's not going to let me off easy after losing his precious painting."
105: 0x02BB [0x23] WAIT_FOR_DIALOG_INTERACTION
106: 0x02BC [0x1D] PRINT_EVENT_MESSAGE(message_id=7439*)
    → "Even explaining what happened wouldn't do any good with such a sour person."
107: 0x02BF [0x23] WAIT_FOR_DIALOG_INTERACTION
108: 0x02C0 [0x5B] LOAD_EXT_SCHEDULER: Load scheduler "thk2" with entities [EventEntity, EventEntity], work=238*
109: 0x02CF [0x2A] GET_REQ_LEVEL(level=10, entity_id=Diederik (ID: 17793121/0x010F8061))
110: 0x02D5 [0x5B] LOAD_EXT_SCHEDULER: Load scheduler "tlk0" with entities [EventEntity, EventEntity], work=238*
111: 0x02E4 [0x52] END_LOAD_SCHEDULER: End scheduler "s006" with entities [LocalPlayer, LocalPlayer], work=123*
112: 0x02F3 [0x27] REQ_SET(priority=0x0A, entity_id=Diederik (ID: 17793121/0x010F8061), tag_num=0x0D)
113: 0x02FA [0x45] LOAD_SCHEDULED_TASK: Load scheduler "s007" with entities [LocalPlayer, LocalPlayer], work=[123*, 0*]
114: 0x030B [0x79] LocalPlayer looks at Diederik (ID: 17793121/0x010F8061) (Basic look)
115: 0x0315 [0x1D] PRINT_EVENT_MESSAGE(message_id=7440*)
    → "That's why I can't go to him. I don't know what I'd say! I was about to go back to Angelica and see if she would redo the painting for me..."
116: 0x0318 [0x23] WAIT_FOR_DIALOG_INTERACTION
117: 0x0319 [0x1C] WAIT(30* ticks)
118: 0x031C [0x4A] LocalPlayer looks at Diederik (ID: 17793121/0x010F8061)
119: 0x0325 [0x6F] WAIT_FRAME_DELAY: Yield until WaitTime reaches zero
120: 0x0326 [0x70] WAIT_ENTITY_RENDER_FLAG: Wait while EventEntity->Render.Flags3 bit 2 is set (cancel turn if not)
121: 0x0327 [0x5B] LOAD_EXT_SCHEDULER: Load scheduler "ten0" with entities [EventEntity, EventEntity], work=238*
122: 0x0336 [0x1D] PRINT_EVENT_MESSAGE(message_id=7441*)
    → "...but I can't tell her, either! She's so passionate and loves her craft so much, I'm afraid I'd break down if I saw the disappointment on her face when I told her I lost the painting."
123: 0x0339 [0x23] WAIT_FOR_DIALOG_INTERACTION
124: 0x033A [0x1C] WAIT(30* ticks)
125: 0x033D [0x52] END_LOAD_SCHEDULER: End scheduler "s007" with entities [LocalPlayer, LocalPlayer], work=123*
126: 0x034C [0x2A] GET_REQ_LEVEL(level=10, entity_id=Diederik (ID: 17793121/0x010F8061))
127: 0x0352 [0x45] LOAD_SCHEDULED_TASK: Load scheduler "s008" with entities [LocalPlayer, LocalPlayer], work=[123*, 0*]
128: 0x0363 [0x1C] WAIT(30* ticks)
129: 0x0366 [0x1D] PRINT_EVENT_MESSAGE(message_id=7442*)
    → "You see, I'm hopeless. I can't carry this burden alone!"
130: 0x0369 [0x23] WAIT_FOR_DIALOG_INTERACTION
131: 0x036A [0x1C] WAIT(30* ticks)
132: 0x036D [0x1E] EventEntity looks at LocalPlayer and starts talking
133: 0x0372 [0x6F] WAIT_FRAME_DELAY: Yield until WaitTime reaches zero
134: 0x0373 [0x70] WAIT_ENTITY_RENDER_FLAG: Wait while EventEntity->Render.Flags3 bit 2 is set (cancel turn if not)
135: 0x0374 [0x79] Diederik (ID: 17793121/0x010F8061) looks at LocalPlayer (Basic look)
136: 0x037E [0x79] LocalPlayer looks at Diederik (ID: 17793121/0x010F8061) (Basic look)
137: 0x0388 [0x2A] GET_REQ_LEVEL(level=10, entity_id=Diederik (ID: 17793121/0x010F8061))
138: 0x038E [0x1D] PRINT_EVENT_MESSAGE(message_id=7443*)
    → "Hey! You're an adventurer, so I bet you know Angelica, don't you?"
139: 0x0391 [0x23] WAIT_FOR_DIALOG_INTERACTION
140: 0x0392 [0x1C] WAIT(45* ticks)
141: 0x0395 [0x5B] LOAD_EXT_SCHEDULER: Load scheduler "tlk0" with entities [EventEntity, EventEntity], work=238*
142: 0x03A4 [0x1D] PRINT_EVENT_MESSAGE(message_id=7444*)
    → "You even modeled for one of her paintings? Excellent!"
143: 0x03A7 [0x23] WAIT_FOR_DIALOG_INTERACTION
144: 0x03A8 [0x5B] LOAD_EXT_SCHEDULER: Load scheduler "thk1" with entities [EventEntity, EventEntity], work=238*
145: 0x03B7 [0x1D] PRINT_EVENT_MESSAGE(message_id=7445*)
    → "I bet she would listen to you if you asked her to redo a painting..."
146: 0x03BA [0x23] WAIT_FOR_DIALOG_INTERACTION
147: 0x03BB [0x5B] LOAD_EXT_SCHEDULER: Load scheduler "thk2" with entities [EventEntity, EventEntity], work=238*
148: 0x03CA [0x5B] LOAD_EXT_SCHEDULER: Load scheduler "tlk0" with entities [EventEntity, EventEntity], work=238*
149: 0x03D9 [0x1C] WAIT(30* ticks)
150: 0x03DC [0x1D] PRINT_EVENT_MESSAGE(message_id=7446*)
    → "Hey! I just got a brilliant idea! Why don't you go and ask Angelica to redo the painting?"
151: 0x03DF [0x23] WAIT_FOR_DIALOG_INTERACTION
152: 0x03E0 [0x1C] WAIT(30* ticks)
153: 0x03E3 [0x52] END_LOAD_SCHEDULER: End scheduler "s008" with entities [LocalPlayer, LocalPlayer], work=123*
154: 0x03F2 [0x02] IF !(LocalPlayer->Race == 5*) GOTO 0x0404
155: 0x03FA [0x27] REQ_SET(priority=0x14, entity_id=LocalPlayer, tag_num=0x25)
156: 0x0401 [0x01] GOTO 0x0413
157: 0x0404 [0x02] IF !(LocalPlayer->Race == 6*) GOTO 0x0413
158: 0x040C [0x27] REQ_SET(priority=0x14, entity_id=LocalPlayer, tag_num=0x25)

SUBROUTINE_0413:
159: 0x0413 [0x45] LOAD_SCHEDULED_TASK: Load scheduler "s009" with entities [LocalPlayer, LocalPlayer], work=[123*, 0*]
160: 0x0424 [0x1D] PRINT_EVENT_MESSAGE(message_id=7447*)
    → "You just heard why I couldn't go! You're my only option!"
161: 0x0427 [0x23] WAIT_FOR_DIALOG_INTERACTION
162: 0x0428 [0x1D] PRINT_EVENT_MESSAGE(message_id=7448*)
    → "You're her friend, so of course she'll listen to you!"
163: 0x042B [0x23] WAIT_FOR_DIALOG_INTERACTION
164: 0x042C [0x29] REQ_SET_WAIT(priority=0x0F, entity_id=Unnamed NPC (ID: 17793122/0x010F8062), tag_num=0x03)
165: 0x0433 [0x1C] WAIT(30* ticks)
166: 0x0436 [0x5B] LOAD_EXT_SCHEDULER: Load scheduler "ten0" with entities [EventEntity, EventEntity], work=238*
167: 0x0445 [0x5B] LOAD_EXT_SCHEDULER: Load scheduler "thk1" with entities [EventEntity, EventEntity], work=238*
168: 0x0454 [0x1D] PRINT_EVENT_MESSAGE(message_id=7449*)
    → "Not that I have the courage to face that old scrooge alone, either..."
169: 0x0457 [0x23] WAIT_FOR_DIALOG_INTERACTION
170: 0x0458 [0x5B] LOAD_EXT_SCHEDULER: Load scheduler "thk2" with entities [EventEntity, EventEntity], work=238*
171: 0x0467 [0x1C] WAIT(45* ticks)
172: 0x046A [0x1A] CALL_SUBROUTINE(address=0x38EA)
173: 0x046D [0x02] IF !(ExtData[1]->WorkLocal[9] == 1*) GOTO 0x0480
174: 0x0475 [0x2B] Unnamed NPC (ID: 17793122/0x010F8062) [7450*]:
    → "Oh hey, <Player>."
175: 0x047C [0x23] WAIT_FOR_DIALOG_INTERACTION
176: 0x047D [0x01] GOTO 0x0551
177: 0x0480 [0x02] IF !(ExtData[1]->WorkLocal[9] == 2*) GOTO 0x0493
178: 0x0488 [0x2B] Unnamed NPC (ID: 17793122/0x010F8062) [7451*]:
    → "Hey, <Player>, what are you doing here?"
179: 0x048F [0x23] WAIT_FOR_DIALOG_INTERACTION
180: 0x0490 [0x01] GOTO 0x0551
181: 0x0493 [0x02] IF !(ExtData[1]->WorkLocal[9] == 3*) GOTO 0x04A6
182: 0x049B [0x2B] Unnamed NPC (ID: 17793122/0x010F8062) [7452*]:
    → "...<Player>?"
183: 0x04A2 [0x23] WAIT_FOR_DIALOG_INTERACTION
184: 0x04A3 [0x01] GOTO 0x0551
185: 0x04A6 [0x02] IF !(ExtData[1]->WorkLocal[9] == 4*) GOTO 0x04B9
186: 0x04AE [0x2B] Unnamed NPC (ID: 17793122/0x010F8062) [7453*]:
    → "Greetings, <Player>."
187: 0x04B5 [0x23] WAIT_FOR_DIALOG_INTERACTION
188: 0x04B6 [0x01] GOTO 0x0551
189: 0x04B9 [0x02] IF !(ExtData[1]->WorkLocal[9] == 5*) GOTO 0x04CC
190: 0x04C1 [0x2B] Unnamed NPC (ID: 17793122/0x010F8062) [7456*]:
    → "Hello, <Player>!"
191: 0x04C8 [0x23] WAIT_FOR_DIALOG_INTERACTION
192: 0x04C9 [0x01] GOTO 0x0551
193: 0x04CC [0x02] IF !(ExtData[1]->WorkLocal[9] == 6*) GOTO 0x04DF
194: 0x04D4 [0x2B] Unnamed NPC (ID: 17793122/0x010F8062) [7457*]:
    → "Hey, it's <Player>!"
195: 0x04DB [0x23] WAIT_FOR_DIALOG_INTERACTION
196: 0x04DC [0x01] GOTO 0x0551
197: 0x04DF [0x02] IF !(ExtData[1]->WorkLocal[9] == 7*) GOTO 0x04F2
198: 0x04E7 [0x2B] Unnamed NPC (ID: 17793122/0x010F8062) [7458*]:
    → "Oh, it's <Player>."
199: 0x04EE [0x23] WAIT_FOR_DIALOG_INTERACTION
200: 0x04EF [0x01] GOTO 0x0551
201: 0x04F2 [0x02] IF !(ExtData[1]->WorkLocal[9] == 8*) GOTO 0x0505
202: 0x04FA [0x2B] Unnamed NPC (ID: 17793122/0x010F8062) [7459*]:
    → "Oh, hi, <Player>!"
203: 0x0501 [0x23] WAIT_FOR_DIALOG_INTERACTION
204: 0x0502 [0x01] GOTO 0x0551
205: 0x0505 [0x02] IF !(ExtData[1]->WorkLocal[9] == 9*) GOTO 0x0518
206: 0x050D [0x2B] Unnamed NPC (ID: 17793122/0x010F8062) [7460*]:
    → "Greetings, <Player>."
207: 0x0514 [0x23] WAIT_FOR_DIALOG_INTERACTION
208: 0x0515 [0x01] GOTO 0x0551
209: 0x0518 [0x02] IF !(ExtData[1]->WorkLocal[9] == 10*) GOTO 0x052B
210: 0x0520 [0x2B] Unnamed NPC (ID: 17793122/0x010F8062) [7454*]:
    → "Oh, it's you, <Player>."
211: 0x0527 [0x23] WAIT_FOR_DIALOG_INTERACTION
212: 0x0528 [0x01] GOTO 0x0551
213: 0x052B [0x02] IF !(ExtData[1]->WorkLocal[9] == 11*) GOTO 0x053E
214: 0x0533 [0x2B] Unnamed NPC (ID: 17793122/0x010F8062) [7455*]:
    → "<Player>, you came here, too?"
215: 0x053A [0x23] WAIT_FOR_DIALOG_INTERACTION
216: 0x053B [0x01] GOTO 0x0551
217: 0x053E [0x02] IF !(ExtData[1]->WorkLocal[9] == 12*) GOTO 0x0551
218: 0x0546 [0x2B] Unnamed NPC (ID: 17793122/0x010F8062) [7461*]:
    → "Hm? <Player>?"
219: 0x054D [0x23] WAIT_FOR_DIALOG_INTERACTION
220: 0x054E [0x01] GOTO 0x0551

SUBROUTINE_0551:
221: 0x0551 [0x4A] LocalPlayer looks at Unnamed NPC (ID: 17793122/0x010F8062)
222: 0x055A [0x1C] WAIT(15* ticks)
223: 0x055D [0x1E] EventEntity looks at Unnamed NPC (ID: 17793122/0x010F8062) and starts talking
224: 0x0562 [0x6F] WAIT_FRAME_DELAY: Yield until WaitTime reaches zero
225: 0x0563 [0x70] WAIT_ENTITY_RENDER_FLAG: Wait while EventEntity->Render.Flags3 bit 2 is set (cancel turn if not)
226: 0x0564 [0x79] Unnamed NPC (ID: 17793122/0x010F8062) looks at LocalPlayer (Basic look)
227: 0x056E [0x1C] WAIT(30* ticks)
228: 0x0571 [0x52] END_LOAD_SCHEDULER: End scheduler "s009" with entities [LocalPlayer, LocalPlayer], work=123*
229: 0x0580 [0x1A] CALL_SUBROUTINE(address=0x3809)
230: 0x0583 [0x02] IF !(ExtData[1]->WorkLocal[12] == 0*) GOTO 0x059F
231: 0x058B [0x45] LOAD_SCHEDULED_TASK: Load scheduler "s068" with entities [LocalPlayer, LocalPlayer], work=[123*, 0*]
232: 0x059C [0x01] GOTO 0x067F
233: 0x059F [0x02] IF !(ExtData[1]->WorkLocal[12] == 1*) GOTO 0x05BB
234: 0x05A7 [0x45] LOAD_SCHEDULED_TASK: Load scheduler "s068" with entities [LocalPlayer, LocalPlayer], work=[123*, 0*]
235: 0x05B8 [0x01] GOTO 0x067F
236: 0x05BB [0x02] IF !(ExtData[1]->WorkLocal[12] == 2*) GOTO 0x05D7
237: 0x05C3 [0x45] LOAD_SCHEDULED_TASK: Load scheduler "s072" with entities [LocalPlayer, LocalPlayer], work=[123*, 0*]
238: 0x05D4 [0x01] GOTO 0x067F
239: 0x05D7 [0x02] IF !(ExtData[1]->WorkLocal[12] == 3*) GOTO 0x05F3
240: 0x05DF [0x45] LOAD_SCHEDULED_TASK: Load scheduler "s072" with entities [LocalPlayer, LocalPlayer], work=[123*, 0*]
241: 0x05F0 [0x01] GOTO 0x067F
242: 0x05F3 [0x02] IF !(ExtData[1]->WorkLocal[12] == 4*) GOTO 0x060F
243: 0x05FB [0x45] LOAD_SCHEDULED_TASK: Load scheduler "s069" with entities [LocalPlayer, LocalPlayer], work=[123*, 0*]
244: 0x060C [0x01] GOTO 0x067F
245: 0x060F [0x02] IF !(ExtData[1]->WorkLocal[12] == 5*) GOTO 0x062B
246: 0x0617 [0x45] LOAD_SCHEDULED_TASK: Load scheduler "s069" with entities [LocalPlayer, LocalPlayer], work=[123*, 0*]
247: 0x0628 [0x01] GOTO 0x067F
248: 0x062B [0x02] IF !(ExtData[1]->WorkLocal[12] == 6*) GOTO 0x0647
249: 0x0633 [0x45] LOAD_SCHEDULED_TASK: Load scheduler "s068" with entities [LocalPlayer, LocalPlayer], work=[123*, 0*]
250: 0x0644 [0x01] GOTO 0x067F
251: 0x0647 [0x02] IF !(ExtData[1]->WorkLocal[12] == 7*) GOTO 0x0663
252: 0x064F [0x45] LOAD_SCHEDULED_TASK: Load scheduler "s072" with entities [LocalPlayer, LocalPlayer], work=[123*, 0*]
253: 0x0660 [0x01] GOTO 0x067F
254: 0x0663 [0x02] IF !(ExtData[1]->WorkLocal[12] == 8*) GOTO 0x067F
255: 0x066B [0x45] LOAD_SCHEDULED_TASK: Load scheduler "s068" with entities [LocalPlayer, LocalPlayer], work=[123*, 0*]
256: 0x067C [0x01] GOTO 0x067F

SUBROUTINE_067F:
257: 0x067F [0x27] REQ_SET(priority=0x0F, entity_id=Unnamed NPC (ID: 17793122/0x010F8062), tag_num=0x04)
258: 0x0686 [0x2A] GET_REQ_LEVEL(level=15, entity_id=Unnamed NPC (ID: 17793122/0x010F8062))
259: 0x068C [0x1C] WAIT(120* ticks)
260: 0x068F [0x1A] CALL_SUBROUTINE(address=0x3809)
261: 0x0692 [0x02] IF !(ExtData[1]->WorkLocal[12] == 0*) GOTO 0x06AC
262: 0x069A [0x52] END_LOAD_SCHEDULER: End scheduler "s068" with entities [LocalPlayer, LocalPlayer], work=123*
263: 0x06A9 [0x01] GOTO 0x077C
264: 0x06AC [0x02] IF !(ExtData[1]->WorkLocal[12] == 1*) GOTO 0x06C6
265: 0x06B4 [0x52] END_LOAD_SCHEDULER: End scheduler "s068" with entities [LocalPlayer, LocalPlayer], work=123*
266: 0x06C3 [0x01] GOTO 0x077C
267: 0x06C6 [0x02] IF !(ExtData[1]->WorkLocal[12] == 2*) GOTO 0x06E0
268: 0x06CE [0x52] END_LOAD_SCHEDULER: End scheduler "s072" with entities [LocalPlayer, LocalPlayer], work=123*
269: 0x06DD [0x01] GOTO 0x077C
270: 0x06E0 [0x02] IF !(ExtData[1]->WorkLocal[12] == 3*) GOTO 0x06FA
271: 0x06E8 [0x52] END_LOAD_SCHEDULER: End scheduler "s072" with entities [LocalPlayer, LocalPlayer], work=123*
272: 0x06F7 [0x01] GOTO 0x077C
273: 0x06FA [0x02] IF !(ExtData[1]->WorkLocal[12] == 4*) GOTO 0x0714
274: 0x0702 [0x52] END_LOAD_SCHEDULER: End scheduler "s069" with entities [LocalPlayer, LocalPlayer], work=123*
275: 0x0711 [0x01] GOTO 0x077C
276: 0x0714 [0x02] IF !(ExtData[1]->WorkLocal[12] == 5*) GOTO 0x072E
277: 0x071C [0x52] END_LOAD_SCHEDULER: End scheduler "s069" with entities [LocalPlayer, LocalPlayer], work=123*
278: 0x072B [0x01] GOTO 0x077C
279: 0x072E [0x02] IF !(ExtData[1]->WorkLocal[12] == 6*) GOTO 0x0748
280: 0x0736 [0x52] END_LOAD_SCHEDULER: End scheduler "s068" with entities [LocalPlayer, LocalPlayer], work=123*
281: 0x0745 [0x01] GOTO 0x077C
282: 0x0748 [0x02] IF !(ExtData[1]->WorkLocal[12] == 7*) GOTO 0x0762
283: 0x0750 [0x52] END_LOAD_SCHEDULER: End scheduler "s072" with entities [LocalPlayer, LocalPlayer], work=123*
284: 0x075F [0x01] GOTO 0x077C
285: 0x0762 [0x02] IF !(ExtData[1]->WorkLocal[12] == 8*) GOTO 0x077C
286: 0x076A [0x52] END_LOAD_SCHEDULER: End scheduler "s068" with entities [LocalPlayer, LocalPlayer], work=123*
287: 0x0779 [0x01] GOTO 0x077C

SUBROUTINE_077C:
288: 0x077C [0x02] IF !(LocalPlayer->Race == 5*) GOTO 0x0797
289: 0x0784 [0x27] REQ_SET(priority=0x14, entity_id=LocalPlayer, tag_num=0x24)
290: 0x078B [0x4A] LocalPlayer looks at Unnamed NPC (ID: 17793122/0x010F8062)
291: 0x0794 [0x01] GOTO 0x07C2
292: 0x0797 [0x02] IF !(LocalPlayer->Race == 6*) GOTO 0x07B2
293: 0x079F [0x27] REQ_SET(priority=0x14, entity_id=LocalPlayer, tag_num=0x24)
294: 0x07A6 [0x4A] LocalPlayer looks at Unnamed NPC (ID: 17793122/0x010F8062)
295: 0x07AF [0x01] GOTO 0x07C2
296: 0x07B2 [0x27] REQ_SET(priority=0x14, entity_id=LocalPlayer, tag_num=0x22)
297: 0x07B9 [0x4A] LocalPlayer looks at Unnamed NPC (ID: 17793122/0x010F8062)

SUBROUTINE_07C2:
298: 0x07C2 [0x45] LOAD_SCHEDULED_TASK: Load scheduler "s010" with entities [LocalPlayer, LocalPlayer], work=[123*, 0*]
299: 0x07D3 [0x5B] LOAD_EXT_SCHEDULER: Load scheduler "tlb0" with entities [EventEntity, EventEntity], work=238*
300: 0x07E2 [0x1D] PRINT_EVENT_MESSAGE(message_id=7462*)
    → "This a friend of yours?"
301: 0x07E5 [0x23] WAIT_FOR_DIALOG_INTERACTION
302: 0x07E6 [0x5B] LOAD_EXT_SCHEDULER: Load scheduler "tlb1" with entities [EventEntity, EventEntity], work=238*
303: 0x07F5 [0x79] Unnamed NPC (ID: 17793122/0x010F8062) looks at Diederik (ID: 17793121/0x010F8061) (Basic look)
304: 0x07FF [0x4A] LocalPlayer looks at Diederik (ID: 17793121/0x010F8061)
305: 0x0808 [0x1C] WAIT(30* ticks)
306: 0x080B [0x6E] LocalPlayer uses emote 7*
307: 0x0812 [0x99] Wait for LocalPlayer animation to complete
308: 0x0817 [0x1C] WAIT(60* ticks)
309: 0x081A [0x27] REQ_SET(priority=0x0F, entity_id=Unnamed NPC (ID: 17793122/0x010F8062), tag_num=0x06)
310: 0x0821 [0x1A] CALL_SUBROUTINE(address=0x38EA)
311: 0x0824 [0x02] IF !(ExtData[1]->WorkLocal[9] == 1*) GOTO 0x0837
312: 0x082C [0x2B] Unnamed NPC (ID: 17793122/0x010F8062) [7463*]:
    → "Yeah, sometimes [he/she] and I go on adventures together. So what's up? I miss something?"
313: 0x0833 [0x23] WAIT_FOR_DIALOG_INTERACTION
314: 0x0834 [0x01] GOTO 0x0908
315: 0x0837 [0x02] IF !(ExtData[1]->WorkLocal[9] == 2*) GOTO 0x084A
316: 0x083F [0x2B] Unnamed NPC (ID: 17793122/0x010F8062) [7464*]:
    → "Of course! <Player> and I are always up for an adventure together! Hey, what were you guys just talking about?"
317: 0x0846 [0x23] WAIT_FOR_DIALOG_INTERACTION
318: 0x0847 [0x01] GOTO 0x0908
319: 0x084A [0x02] IF !(ExtData[1]->WorkLocal[9] == 3*) GOTO 0x085D
320: 0x0852 [0x2B] Unnamed NPC (ID: 17793122/0x010F8062) [7465*]:
    → "You might say that. Anyway, what were you just talking about?"
321: 0x0859 [0x23] WAIT_FOR_DIALOG_INTERACTION
322: 0x085A [0x01] GOTO 0x0908
323: 0x085D [0x02] IF !(ExtData[1]->WorkLocal[9] == 4*) GOTO 0x0870
324: 0x0865 [0x2B] Unnamed NPC (ID: 17793122/0x010F8062) [7466*]:
    → "<Player> and I occasionally adventure together. Were you discussing important matters?"
325: 0x086C [0x23] WAIT_FOR_DIALOG_INTERACTION
326: 0x086D [0x01] GOTO 0x0908
327: 0x0870 [0x02] IF !(ExtData[1]->WorkLocal[9] == 5*) GOTO 0x0883
328: 0x0878 [0x2B] Unnamed NPC (ID: 17793122/0x010F8062) [7469*]:
    → "Yes, we sometimes adventure together. Anyway, is something up?"
329: 0x087F [0x23] WAIT_FOR_DIALOG_INTERACTION
330: 0x0880 [0x01] GOTO 0x0908
331: 0x0883 [0x02] IF !(ExtData[1]->WorkLocal[9] == 6*) GOTO 0x0896
332: 0x088B [0x2B] Unnamed NPC (ID: 17793122/0x010F8062) [7470*]:
    → "Yeah! We like to go on adventures together! Hey, what were you guys talking about a second ago?"
333: 0x0892 [0x23] WAIT_FOR_DIALOG_INTERACTION
334: 0x0893 [0x01] GOTO 0x0908
335: 0x0896 [0x02] IF !(ExtData[1]->WorkLocal[9] == 7*) GOTO 0x08A9
336: 0x089E [0x2B] Unnamed NPC (ID: 17793122/0x010F8062) [7471*]:
    → "Yes, <Player> and I occasionally adventure together. Anyway, what were you just talking about?"
337: 0x08A5 [0x23] WAIT_FOR_DIALOG_INTERACTION
338: 0x08A6 [0x01] GOTO 0x0908
339: 0x08A9 [0x02] IF !(ExtData[1]->WorkLocal[9] == 8*) GOTO 0x08BC
340: 0x08B1 [0x2B] Unnamed NPC (ID: 17793122/0x010F8062) [7472*]:
    → "Yep, we sometimes go on adventures together! Um, what were you just talking about?"
341: 0x08B8 [0x23] WAIT_FOR_DIALOG_INTERACTION
342: 0x08B9 [0x01] GOTO 0x0908
343: 0x08BC [0x02] IF !(ExtData[1]->WorkLocal[9] == 9*) GOTO 0x08CF
344: 0x08C4 [0x2B] Unnamed NPC (ID: 17793122/0x010F8062) [7473*]:
    → "<Player> and I occasionally adventure together. Were you discussing important matters?"
345: 0x08CB [0x23] WAIT_FOR_DIALOG_INTERACTION
346: 0x08CC [0x01] GOTO 0x0908
347: 0x08CF [0x02] IF !(ExtData[1]->WorkLocal[9] == 10*) GOTO 0x08E2
348: 0x08D7 [0x2B] Unnamed NPC (ID: 17793122/0x010F8062) [7467*]:
    → "We adventure together sometimes. What were you two talking about just now? Sounded serious..."
349: 0x08DE [0x23] WAIT_FOR_DIALOG_INTERACTION
350: 0x08DF [0x01] GOTO 0x0908
351: 0x08E2 [0x02] IF !(ExtData[1]->WorkLocal[9] == 11*) GOTO 0x08F5
352: 0x08EA [0x2B] Unnamed NPC (ID: 17793122/0x010F8062) [7468*]:
    → "Yeah, we're sort of like adventuring partners. Did I butt in on an important discussion?"
353: 0x08F1 [0x23] WAIT_FOR_DIALOG_INTERACTION
354: 0x08F2 [0x01] GOTO 0x0908
355: 0x08F5 [0x02] IF !(ExtData[1]->WorkLocal[9] == 12*) GOTO 0x0908
356: 0x08FD [0x2B] Unnamed NPC (ID: 17793122/0x010F8062) [7474*]:
    → "<Player> and I occasionally journey together. It appears I interrupted your conversation. Carry on."
357: 0x0904 [0x23] WAIT_FOR_DIALOG_INTERACTION
358: 0x0905 [0x01] GOTO 0x0908

SUBROUTINE_0908:
359: 0x0908 [0x5B] LOAD_EXT_SCHEDULER: Load scheduler "tlk0" with entities [EventEntity, EventEntity], work=238*
360: 0x0917 [0x1D] PRINT_EVENT_MESSAGE(message_id=7475*)
    → "Well, actually, I'm in a bit of a fix. I'd appreciate it if you could hear me out, too."
361: 0x091A [0x23] WAIT_FOR_DIALOG_INTERACTION
362: 0x091B [0x5B] LOAD_EXT_SCHEDULER: Load scheduler "ten0" with entities [EventEntity, EventEntity], work=238*
363: 0x092A [0x1C] WAIT(60* ticks)
364: 0x092D [0x1A] CALL_SUBROUTINE(address=0x22A8)
365: 0x0930 [0x1C] WAIT(120* ticks)
366: 0x0933 [0x1A] CALL_SUBROUTINE(address=0x22DB)
367: 0x0936 [0x52] END_LOAD_SCHEDULER: End scheduler "s010" with entities [LocalPlayer, LocalPlayer], work=123*
368: 0x0945 [0x27] REQ_SET(priority=0x0F, entity_id=Unnamed NPC (ID: 17793122/0x010F8062), tag_num=0x07)
369: 0x094C [0x45] LOAD_SCHEDULED_TASK: Load scheduler "ovl2" with entities [EventEntity, EventEntity], work=[200*, 0*]
370: 0x095D [0x1A] CALL_SUBROUTINE(address=0x3809)
371: 0x0960 [0x02] IF !(ExtData[1]->WorkLocal[12] == 0*) GOTO 0x097C
372: 0x0968 [0x45] LOAD_SCHEDULED_TASK: Load scheduler "s011" with entities [LocalPlayer, LocalPlayer], work=[123*, 0*]
373: 0x0979 [0x01] GOTO 0x0A5C
374: 0x097C [0x02] IF !(ExtData[1]->WorkLocal[12] == 1*) GOTO 0x0998
375: 0x0984 [0x45] LOAD_SCHEDULED_TASK: Load scheduler "s011" with entities [LocalPlayer, LocalPlayer], work=[123*, 0*]
376: 0x0995 [0x01] GOTO 0x0A5C
377: 0x0998 [0x02] IF !(ExtData[1]->WorkLocal[12] == 2*) GOTO 0x09B4
378: 0x09A0 [0x45] LOAD_SCHEDULED_TASK: Load scheduler "s020" with entities [LocalPlayer, LocalPlayer], work=[123*, 0*]
379: 0x09B1 [0x01] GOTO 0x0A5C
380: 0x09B4 [0x02] IF !(ExtData[1]->WorkLocal[12] == 3*) GOTO 0x09D0
381: 0x09BC [0x45] LOAD_SCHEDULED_TASK: Load scheduler "s020" with entities [LocalPlayer, LocalPlayer], work=[123*, 0*]
382: 0x09CD [0x01] GOTO 0x0A5C
383: 0x09D0 [0x02] IF !(ExtData[1]->WorkLocal[12] == 4*) GOTO 0x09EC
384: 0x09D8 [0x45] LOAD_SCHEDULED_TASK: Load scheduler "s022" with entities [LocalPlayer, LocalPlayer], work=[123*, 0*]
385: 0x09E9 [0x01] GOTO 0x0A5C
386: 0x09EC [0x02] IF !(ExtData[1]->WorkLocal[12] == 5*) GOTO 0x0A08
387: 0x09F4 [0x45] LOAD_SCHEDULED_TASK: Load scheduler "s022" with entities [LocalPlayer, LocalPlayer], work=[123*, 0*]
388: 0x0A05 [0x01] GOTO 0x0A5C
389: 0x0A08 [0x02] IF !(ExtData[1]->WorkLocal[12] == 6*) GOTO 0x0A24
390: 0x0A10 [0x45] LOAD_SCHEDULED_TASK: Load scheduler "s011" with entities [LocalPlayer, LocalPlayer], work=[123*, 0*]
391: 0x0A21 [0x01] GOTO 0x0A5C
392: 0x0A24 [0x02] IF !(ExtData[1]->WorkLocal[12] == 7*) GOTO 0x0A40
393: 0x0A2C [0x45] LOAD_SCHEDULED_TASK: Load scheduler "s021" with entities [LocalPlayer, LocalPlayer], work=[123*, 0*]
394: 0x0A3D [0x01] GOTO 0x0A5C
395: 0x0A40 [0x02] IF !(ExtData[1]->WorkLocal[12] == 8*) GOTO 0x0A5C
396: 0x0A48 [0x45] LOAD_SCHEDULED_TASK: Load scheduler "s021" with entities [LocalPlayer, LocalPlayer], work=[123*, 0*]
397: 0x0A59 [0x01] GOTO 0x0A5C

SUBROUTINE_0A5C:
398: 0x0A5C [0x1A] CALL_SUBROUTINE(address=0x38EA)
399: 0x0A5F [0x02] IF !(ExtData[1]->WorkLocal[9] == 1*) GOTO 0x0A7A
400: 0x0A67 [0x2B] Unnamed NPC (ID: 17793122/0x010F8062) [7476*]:
    → "Losing the painting on top of getting attacked by pirates? That's rough."
401: 0x0A6E [0x23] WAIT_FOR_DIALOG_INTERACTION
402: 0x0A6F [0x2B] Unnamed NPC (ID: 17793122/0x010F8062) [7488*]:
    → "If <Player>'s okay with it, I'd like to go with [him/her]."
403: 0x0A76 [0x23] WAIT_FOR_DIALOG_INTERACTION
404: 0x0A77 [0x01] GOTO 0x0BA3
405: 0x0A7A [0x02] IF !(ExtData[1]->WorkLocal[9] == 2*) GOTO 0x0A95
406: 0x0A82 [0x2B] Unnamed NPC (ID: 17793122/0x010F8062) [7477*]:
    → "You got attacked by pirates and lost the painting? What bad luck!"
407: 0x0A89 [0x23] WAIT_FOR_DIALOG_INTERACTION
408: 0x0A8A [0x2B] Unnamed NPC (ID: 17793122/0x010F8062) [7489*]:
    → "If <Player> doesn't mind, I'd also like to help!"
409: 0x0A91 [0x23] WAIT_FOR_DIALOG_INTERACTION
410: 0x0A92 [0x01] GOTO 0x0BA3
411: 0x0A95 [0x02] IF !(ExtData[1]->WorkLocal[9] == 3*) GOTO 0x0AB0
412: 0x0A9D [0x2B] Unnamed NPC (ID: 17793122/0x010F8062) [7478*]:
    → "So you lost the painting to pirates. Hm, not your lucky day."
413: 0x0AA4 [0x23] WAIT_FOR_DIALOG_INTERACTION
414: 0x0AA5 [0x2B] Unnamed NPC (ID: 17793122/0x010F8062) [7490*]:
    → "If <Player> doesn't mind, I suppose I should join [him/her]."
415: 0x0AAC [0x23] WAIT_FOR_DIALOG_INTERACTION
416: 0x0AAD [0x01] GOTO 0x0BA3
417: 0x0AB0 [0x02] IF !(ExtData[1]->WorkLocal[9] == 4*) GOTO 0x0ACB
418: 0x0AB8 [0x2B] Unnamed NPC (ID: 17793122/0x010F8062) [7479*]:
    → "I see. You must have been disappointed to lose the painting to pirates."
419: 0x0ABF [0x23] WAIT_FOR_DIALOG_INTERACTION
420: 0x0AC0 [0x2B] Unnamed NPC (ID: 17793122/0x010F8062) [7491*]:
    → "I suppose I should accompany <Player> on [his/her] journey."
421: 0x0AC7 [0x23] WAIT_FOR_DIALOG_INTERACTION
422: 0x0AC8 [0x01] GOTO 0x0BA3
423: 0x0ACB [0x02] IF !(ExtData[1]->WorkLocal[9] == 5*) GOTO 0x0AE6
424: 0x0AD3 [0x2B] Unnamed NPC (ID: 17793122/0x010F8062) [7482*]:
    → "You got attacked by pirates and lost the painting? That's not good."
425: 0x0ADA [0x23] WAIT_FOR_DIALOG_INTERACTION
426: 0x0ADB [0x2B] Unnamed NPC (ID: 17793122/0x010F8062) [7494*]:
    → "If <Player> doesn't mind, do you think I could come along, too?"
427: 0x0AE2 [0x23] WAIT_FOR_DIALOG_INTERACTION
428: 0x0AE3 [0x01] GOTO 0x0BA3
429: 0x0AE6 [0x02] IF !(ExtData[1]->WorkLocal[9] == 6*) GOTO 0x0B01
430: 0x0AEE [0x2B] Unnamed NPC (ID: 17793122/0x010F8062) [7483*]:
    → "You got attacked by pirates and lost the painting? Oh, that's too bad!"
431: 0x0AF5 [0x23] WAIT_FOR_DIALOG_INTERACTION
432: 0x0AF6 [0x2B] Unnamed NPC (ID: 17793122/0x010F8062) [7495*]:
    → "If <Player> doesn't mind, I'd like to come along, too!"
433: 0x0AFD [0x23] WAIT_FOR_DIALOG_INTERACTION
434: 0x0AFE [0x01] GOTO 0x0BA3
435: 0x0B01 [0x02] IF !(ExtData[1]->WorkLocal[9] == 7*) GOTO 0x0B1C
436: 0x0B09 [0x2B] Unnamed NPC (ID: 17793122/0x010F8062) [7484*]:
    → "So you lost the painting to pirates. Lady Luck smiles upon you not."
437: 0x0B10 [0x23] WAIT_FOR_DIALOG_INTERACTION
438: 0x0B11 [0x2B] Unnamed NPC (ID: 17793122/0x010F8062) [7496*]:
    → "If <Player> doesn't mind, I suppose I should join [him/her]."
439: 0x0B18 [0x23] WAIT_FOR_DIALOG_INTERACTION
440: 0x0B19 [0x01] GOTO 0x0BA3
441: 0x0B1C [0x02] IF !(ExtData[1]->WorkLocal[9] == 8*) GOTO 0x0B37
442: 0x0B24 [0x2B] Unnamed NPC (ID: 17793122/0x010F8062) [7485*]:
    → "You got attacked by pirates? And lost the painting? I'm sooo sorry!"
443: 0x0B2B [0x23] WAIT_FOR_DIALOG_INTERACTION
444: 0x0B2C [0x2B] Unnamed NPC (ID: 17793122/0x010F8062) [7497*]:
    → "Think I could come along too, <Player>?"
445: 0x0B33 [0x23] WAIT_FOR_DIALOG_INTERACTION
446: 0x0B34 [0x01] GOTO 0x0BA3
447: 0x0B37 [0x02] IF !(ExtData[1]->WorkLocal[9] == 9*) GOTO 0x0B52
448: 0x0B3F [0x2B] Unnamed NPC (ID: 17793122/0x010F8062) [7486*]:
    → "I see. You must have been disappointed to lose the painting to pirates."
449: 0x0B46 [0x23] WAIT_FOR_DIALOG_INTERACTION
450: 0x0B47 [0x2B] Unnamed NPC (ID: 17793122/0x010F8062) [7498*]:
    → "I suppose I should accompany <Player> on [his/her] journey."
451: 0x0B4E [0x23] WAIT_FOR_DIALOG_INTERACTION
452: 0x0B4F [0x01] GOTO 0x0BA3
453: 0x0B52 [0x02] IF !(ExtData[1]->WorkLocal[9] == 10*) GOTO 0x0B6D
454: 0x0B5A [0x2B] Unnamed NPC (ID: 17793122/0x010F8062) [7480*]:
    → "Pirates attacked your ship, and took your painting? Oh no!"
455: 0x0B61 [0x23] WAIT_FOR_DIALOG_INTERACTION
456: 0x0B62 [0x2B] Unnamed NPC (ID: 17793122/0x010F8062) [7492*]:
    → "I know! How about I go to Windurst with <Player>?"
457: 0x0B69 [0x23] WAIT_FOR_DIALOG_INTERACTION
458: 0x0B6A [0x01] GOTO 0x0BA3
459: 0x0B6D [0x02] IF !(ExtData[1]->WorkLocal[9] == 11*) GOTO 0x0B88
460: 0x0B75 [0x2B] Unnamed NPC (ID: 17793122/0x010F8062) [7481*]:
    → "Having the painting taken by pirates like that... I can't imagine how frustrated you must have felt."
461: 0x0B7C [0x23] WAIT_FOR_DIALOG_INTERACTION
462: 0x0B7D [0x2B] Unnamed NPC (ID: 17793122/0x010F8062) [7493*]:
    → "Hey, how about I go to Windurst, too? I'm sure <Player> won't mind."
463: 0x0B84 [0x23] WAIT_FOR_DIALOG_INTERACTION
464: 0x0B85 [0x01] GOTO 0x0BA3
465: 0x0B88 [0x02] IF !(ExtData[1]->WorkLocal[9] == 12*) GOTO 0x0BA3
466: 0x0B90 [0x2B] Unnamed NPC (ID: 17793122/0x010F8062) [7487*]:
    → "So the pirates went so far as to single out your painting. It seems you chose the wrong day to be at sea."
467: 0x0B97 [0x23] WAIT_FOR_DIALOG_INTERACTION
468: 0x0B98 [0x2B] Unnamed NPC (ID: 17793122/0x010F8062) [7499*]:
    → "I can accompany <Player> on [his/her] journey. [He/She] won't mind."
469: 0x0B9F [0x23] WAIT_FOR_DIALOG_INTERACTION
470: 0x0BA0 [0x01] GOTO 0x0BA3

SUBROUTINE_0BA3:
471: 0x0BA3 [0x1A] CALL_SUBROUTINE(address=0x3809)
472: 0x0BA6 [0x02] IF !(ExtData[1]->WorkLocal[12] == 0*) GOTO 0x0BC0
473: 0x0BAE [0x52] END_LOAD_SCHEDULER: End scheduler "s011" with entities [LocalPlayer, LocalPlayer], work=123*
474: 0x0BBD [0x01] GOTO 0x0C90
475: 0x0BC0 [0x02] IF !(ExtData[1]->WorkLocal[12] == 1*) GOTO 0x0BDA
476: 0x0BC8 [0x52] END_LOAD_SCHEDULER: End scheduler "s011" with entities [LocalPlayer, LocalPlayer], work=123*
477: 0x0BD7 [0x01] GOTO 0x0C90
478: 0x0BDA [0x02] IF !(ExtData[1]->WorkLocal[12] == 2*) GOTO 0x0BF4
479: 0x0BE2 [0x52] END_LOAD_SCHEDULER: End scheduler "s020" with entities [LocalPlayer, LocalPlayer], work=123*
480: 0x0BF1 [0x01] GOTO 0x0C90
481: 0x0BF4 [0x02] IF !(ExtData[1]->WorkLocal[12] == 3*) GOTO 0x0C0E
482: 0x0BFC [0x52] END_LOAD_SCHEDULER: End scheduler "s020" with entities [LocalPlayer, LocalPlayer], work=123*
483: 0x0C0B [0x01] GOTO 0x0C90
484: 0x0C0E [0x02] IF !(ExtData[1]->WorkLocal[12] == 4*) GOTO 0x0C28
485: 0x0C16 [0x52] END_LOAD_SCHEDULER: End scheduler "s022" with entities [LocalPlayer, LocalPlayer], work=123*
486: 0x0C25 [0x01] GOTO 0x0C90
487: 0x0C28 [0x02] IF !(ExtData[1]->WorkLocal[12] == 5*) GOTO 0x0C42
488: 0x0C30 [0x52] END_LOAD_SCHEDULER: End scheduler "s022" with entities [LocalPlayer, LocalPlayer], work=123*
489: 0x0C3F [0x01] GOTO 0x0C90
490: 0x0C42 [0x02] IF !(ExtData[1]->WorkLocal[12] == 6*) GOTO 0x0C5C
491: 0x0C4A [0x52] END_LOAD_SCHEDULER: End scheduler "s011" with entities [LocalPlayer, LocalPlayer], work=123*
492: 0x0C59 [0x01] GOTO 0x0C90
493: 0x0C5C [0x02] IF !(ExtData[1]->WorkLocal[12] == 7*) GOTO 0x0C76
494: 0x0C64 [0x52] END_LOAD_SCHEDULER: End scheduler "s021" with entities [LocalPlayer, LocalPlayer], work=123*
495: 0x0C73 [0x01] GOTO 0x0C90
496: 0x0C76 [0x02] IF !(ExtData[1]->WorkLocal[12] == 8*) GOTO 0x0C90
497: 0x0C7E [0x52] END_LOAD_SCHEDULER: End scheduler "s021" with entities [LocalPlayer, LocalPlayer], work=123*
498: 0x0C8D [0x01] GOTO 0x0C90

SUBROUTINE_0C90:
499: 0x0C90 [0x1A] CALL_SUBROUTINE(address=0x3809)
500: 0x0C93 [0x02] IF !(ExtData[1]->WorkLocal[12] == 0*) GOTO 0x0CAF
501: 0x0C9B [0x45] LOAD_SCHEDULED_TASK: Load scheduler "s012" with entities [LocalPlayer, LocalPlayer], work=[123*, 0*]
502: 0x0CAC [0x01] GOTO 0x0D8F
503: 0x0CAF [0x02] IF !(ExtData[1]->WorkLocal[12] == 1*) GOTO 0x0CCB
504: 0x0CB7 [0x45] LOAD_SCHEDULED_TASK: Load scheduler "s012" with entities [LocalPlayer, LocalPlayer], work=[123*, 0*]
505: 0x0CC8 [0x01] GOTO 0x0D8F
506: 0x0CCB [0x02] IF !(ExtData[1]->WorkLocal[12] == 2*) GOTO 0x0CE7
507: 0x0CD3 [0x45] LOAD_SCHEDULED_TASK: Load scheduler "s012" with entities [LocalPlayer, LocalPlayer], work=[123*, 0*]
508: 0x0CE4 [0x01] GOTO 0x0D8F
509: 0x0CE7 [0x02] IF !(ExtData[1]->WorkLocal[12] == 3*) GOTO 0x0D03
510: 0x0CEF [0x45] LOAD_SCHEDULED_TASK: Load scheduler "s012" with entities [LocalPlayer, LocalPlayer], work=[123*, 0*]
511: 0x0D00 [0x01] GOTO 0x0D8F
512: 0x0D03 [0x02] IF !(ExtData[1]->WorkLocal[12] == 4*) GOTO 0x0D1F
513: 0x0D0B [0x45] LOAD_SCHEDULED_TASK: Load scheduler "s019" with entities [LocalPlayer, LocalPlayer], work=[123*, 0*]
514: 0x0D1C [0x01] GOTO 0x0D8F
515: 0x0D1F [0x02] IF !(ExtData[1]->WorkLocal[12] == 5*) GOTO 0x0D3B
516: 0x0D27 [0x45] LOAD_SCHEDULED_TASK: Load scheduler "s019" with entities [LocalPlayer, LocalPlayer], work=[123*, 0*]
517: 0x0D38 [0x01] GOTO 0x0D8F
518: 0x0D3B [0x02] IF !(ExtData[1]->WorkLocal[12] == 6*) GOTO 0x0D57
519: 0x0D43 [0x45] LOAD_SCHEDULED_TASK: Load scheduler "s012" with entities [LocalPlayer, LocalPlayer], work=[123*, 0*]
520: 0x0D54 [0x01] GOTO 0x0D8F
521: 0x0D57 [0x02] IF !(ExtData[1]->WorkLocal[12] == 7*) GOTO 0x0D73
522: 0x0D5F [0x45] LOAD_SCHEDULED_TASK: Load scheduler "s012" with entities [LocalPlayer, LocalPlayer], work=[123*, 0*]
523: 0x0D70 [0x01] GOTO 0x0D8F
524: 0x0D73 [0x02] IF !(ExtData[1]->WorkLocal[12] == 8*) GOTO 0x0D8F
525: 0x0D7B [0x45] LOAD_SCHEDULED_TASK: Load scheduler "s012" with entities [LocalPlayer, LocalPlayer], work=[123*, 0*]
526: 0x0D8C [0x01] GOTO 0x0D8F

SUBROUTINE_0D8F:
527: 0x0D8F [0x4A] LocalPlayer looks at Diederik (ID: 17793121/0x010F8061)
528: 0x0D98 [0x6F] WAIT_FRAME_DELAY: Yield until WaitTime reaches zero
529: 0x0D99 [0x70] WAIT_ENTITY_RENDER_FLAG: Wait while EventEntity->Render.Flags3 bit 2 is set (cancel turn if not)
530: 0x0D9A [0x5B] LOAD_EXT_SCHEDULER: Load scheduler "thk1" with entities [EventEntity, EventEntity], work=238*
531: 0x0DA9 [0x1C] WAIT(30* ticks)
532: 0x0DAC [0x1D] PRINT_EVENT_MESSAGE(message_id=7500*)
    → "Wait a minute. Since there are two of you now, I've got one more thing I wonder if you could do for me."
533: 0x0DAF [0x23] WAIT_FOR_DIALOG_INTERACTION
