# 17793107

## Common Data

| Field            | Value             |
|------------------|-------------------|
| Zone             | Selbina (ID: 248) |
| Block Size       | 5340 bytes        |
| Total Events     | 5                 |
| References Count | 101               |

## List of Events

| Event ID              | Entrypoint   |   Size |   Instructions |
|-----------------------|--------------|--------|----------------|
| [65535](#event-65535) | 0x0000       |      1 |              1 |
| [10005](#event-10005) | 0x0001       |   2793 |            364 |
| [1104](#event-1104)   | 0x0AEA       |    735 |            107 |
| [1106](#event-1106)   | 0x0DC9       |    854 |            116 |
| [1108](#event-1108)   | 0x111F       |    515 |             81 |

## DAT References (imed_data)

|   Index | Hex Value   |   Dec Value |
|---------|-------------|-------------|
|       0 | 0x0000      |           0 |
|       1 | 0x0078      |         120 |
|       2 | 0x00C8      |         200 |
|       3 | 0x0013      |          19 |
|       4 | 0x01E1      |         481 |
|       5 | 0x007C      |         124 |
|       6 | 0x012C      |         300 |
|       7 | 0x00AF      |         175 |
|       8 | 0x1CB4      |        7348 |
|       9 | 0x1CB5      |        7349 |
|      10 | 0x1CB6      |        7350 |
|      11 | 0x1CB7      |        7351 |
|      12 | 0x1CB8      |        7352 |
|      13 | 0x1CB9      |        7353 |
|      14 | 0x1CBA      |        7354 |
|      15 | 0x1CBB      |        7355 |
|      16 | 0x1CBC      |        7356 |
|      17 | 0x1CBD      |        7357 |
|      18 | 0x1CBE      |        7358 |
|      19 | 0x001E      |          30 |
|      20 | 0x1CBF      |        7359 |
|      21 | 0x1CC0      |        7360 |
|      22 | 0x1CC1      |        7361 |
|      23 | 0x1CC2      |        7362 |
|      24 | 0x1CC3      |        7363 |
|      25 | 0x1CC4      |        7364 |
|      26 | 0x1CC5      |        7365 |
|      27 | 0x00C9      |         201 |
|      28 | 0x005A      |          90 |
|      29 | 0x003C      |          60 |
|      30 | 0x0006      |           6 |
|      31 | 0x0002      |           2 |
|      32 | 0x0001      |           1 |
|      33 | 0x000F      |          15 |
|      34 | 0x0067      |         103 |
|      35 | 0x009B      |         155 |
|      36 | 0x00F1      |         241 |
|      37 | 0x1CC6      |        7366 |
|      38 | 0x1CC7      |        7367 |
|      39 | 0x1CD4      |        7380 |
|      40 | 0x00F8      |         248 |
|      41 | 0x0384      |         900 |
|      42 | 0x0258      |         600 |
|      43 | 0x0190      |         400 |
|      44 | 0x1CC8      |        7368 |
|      45 | 0x1CC9      |        7369 |
|      46 | 0x0BB8      |        3000 |
|      47 | 0x1CCA      |        7370 |
|      48 | 0x1CCB      |        7371 |
|      49 | 0x1CCC      |        7372 |
|      50 | 0x1CCD      |        7373 |
|      51 | 0x1CCE      |        7374 |
|      52 | 0x0070      |         112 |
|      53 | 0x1CCF      |        7375 |
|      54 | 0x1CD0      |        7376 |
|      55 | 0x1CD1      |        7377 |
|      56 | 0x1CD2      |        7378 |
|      57 | 0x1CD3      |        7379 |
|      58 | 0x002D      |          45 |
|      59 | 0x00D7      |         215 |
|      60 | 0x01E4      |         484 |
|      61 | 0x00A3      |         163 |
|      62 | 0x0018      |          24 |
|      63 | 0x1CD5      |        7381 |
|      64 | 0x1CD6      |        7382 |
|      65 | 0x008E      |         142 |
|      66 | 0x1CD7      |        7383 |
|      67 | 0x1CD8      |        7384 |
|      68 | 0x0005      |           5 |
|      69 | 0x1CD9      |        7385 |
|      70 | 0x1CDA      |        7386 |
|      71 | 0x1CDB      |        7387 |
|      72 | 0x1CDC      |        7388 |
|      73 | 0x1CDD      |        7389 |
|      74 | 0x1CDE      |        7390 |
|      75 | 0x1CDF      |        7391 |
|      76 | 0x1CE0      |        7392 |
|      77 | 0x1CE1      |        7393 |
|      78 | 0x00EA      |         234 |
|      79 | 0x1CE2      |        7394 |
|      80 | 0x1CE3      |        7395 |
|      81 | 0x1CE4      |        7396 |
|      82 | 0x1CE5      |        7397 |
|      83 | 0x1CE6      |        7398 |
|      84 | 0x1CE7      |        7399 |
|      85 | 0x1CE8      |        7400 |
|      86 | 0x1CE9      |        7401 |
|      87 | 0x1CEA      |        7402 |
|      88 | 0x1CEB      |        7403 |
|      89 | 0x1CEC      |        7404 |
|      90 | 0x1CED      |        7405 |
|      91 | 0x007F      |         127 |
|      92 | 0x1CEE      |        7406 |
|      93 | 0x1CEF      |        7407 |
|      94 | 0x1CF0      |        7408 |
|      95 | 0x1CF1      |        7409 |
|      96 | 0x1CF2      |        7410 |
|      97 | 0x1CF3      |        7411 |
|      98 | 0x1CF4      |        7412 |
|      99 | 0x1CF5      |        7413 |
|     100 | 0x1CF6      |        7414 |

## String References

- **7366**: @ And so the legend ends...
- **7367**: @ ...began......crystal......
- **7380**: @@

## Events

### Event 65535

#### Metadata

| Field        | Value   |
|--------------|---------|
| Entrypoint   | 0x0000  |
| Data Size    | 1 bytes |
| Instructions | 1       |

```
      00 01 02 03 04 05 06 07  08 09 0A 0B 0C 0D 0E 0F
      -- -- -- -- -- -- -- --  -- -- -- -- -- -- -- --
0000: 00                                                .               
```

#### Opcodes

```
  0: 0x0000 [0x00] END_REQSTACK()
```

### Event 10005

#### Metadata

| Field        | Value      |
|--------------|------------|
| Entrypoint   | 0x0001     |
| Data Size    | 2793 bytes |
| Instructions | 309        |

```
      00 01 02 03 04 05 06 07  08 09 0A 0B 0C 0D 0E 0F
      -- -- -- -- -- -- -- --  -- -- -- -- -- -- -- --
0000:    20 01 42 46 01 4A 1B  80 0F 01 F0 FF FF 7F 5D    .BF.J........]
0010: 00 80 01 80 45 02 80 F8  FF FF 7F F8 FF FF 7F 66  ....E..........f
0020: 64 6F 31 00 80 1C 01 80  38 03 80 29 08 F0 FF FF  do1.....8..)....
0030: 7F 19 75 00 04 80 75 01  92 01 1B 80 0F 01 4E 00  ..u...u.......N.
0040: 54 80 0F 01 4E 00 55 80  0F 01 80 54 80 0F 01 80  T...N.U....T....
0050: 55 80 0F 01 29 0B 1B 80  0F 01 39 29 0B F0 FF FF  U...).....9)....
0060: 7F 1C 29 0B 54 80 0F 01  43 29 0B 55 80 0F 01 3F  ..).T...C).U...?
0070: 4A 1B 80 0F 01 54 80 0F  01 7B 1B 80 0F 01 4A F0  J....T...{....J.
0080: FF FF 7F 1B 80 0F 01 4A  54 80 0F 01 1B 80 0F 01  .......JT.......
0090: 4A 55 80 0F 01 1B 80 0F  01 6F 76 F0 FF FF 7F 6F  JU.......ov....o
00A0: 76 1B 80 0F 01 6F 76 55  80 0F 01 6F 76 54 80 0F  v....ovU...ovT..
00B0: 01 4E 01 40 80 0F 01 5C  00 05 80 5C 01 05 80 1C  .N.@...\...\....
00C0: 06 80 45 07 80 F8 FF FF  7F F8 FF FF 7F 73 30 33  ..E..........s03
00D0: 33 00 80 45 02 80 F8 FF  FF 7F F8 FF FF 7F 66 64  3..E..........fd
00E0: 69 31 00 80 2B 1B 80 0F  01 08 80 23 52 07 80 F8  i1..+......#R...
00F0: FF FF 7F F8 FF FF 7F 73  30 33 33 45 07 80 F8 FF  .......s033E....
0100: FF 7F F8 FF FF 7F 73 30  33 34 00 80 27 0B 54 80  ......s034..'.T.
0110: 0F 01 44 2B 54 80 0F 01  09 80 23 2A 0B 54 80 0F  ..D+T.....#*.T..
0120: 01 29 08 54 80 0F 01 01  2B 54 80 0F 01 0A 80 23  .).T....+T.....#
0130: 29 08 54 80 0F 01 02 52  07 80 F8 FF FF 7F F8 FF  ).T....R........
0140: FF 7F 73 30 33 34 45 07  80 F8 FF FF 7F F8 FF FF  ..s034E.........
0150: 7F 73 30 33 35 00 80 29  08 1B 80 0F 01 10 2B 1B  .s035..)......+.
0160: 80 0F 01 0B 80 23 29 08  1B 80 0F 01 11 29 08 1B  .....#)......)..
0170: 80 0F 01 12 2B 1B 80 0F  01 0C 80 23 29 08 1B 80  ....+......#)...
0180: 0F 01 13 52 07 80 F8 FF  FF 7F F8 FF FF 7F 73 30  ...R..........s0
0190: 33 35 45 07 80 F8 FF FF  7F F8 FF FF 7F 73 30 33  35E..........s03
01A0: 36 00 80 79 00 1B 80 0F  01 54 80 0F 01 29 08 54  6..y.....T...).T
01B0: 80 0F 01 03 2B 1B 80 0F  01 0D 80 23 29 08 54 80  ....+......#).T.
01C0: 0F 01 04 52 07 80 F8 FF  FF 7F F8 FF FF 7F 73 30  ...R..........s0
01D0: 33 36 45 07 80 F8 FF FF  7F F8 FF FF 7F 73 30 33  36E..........s03
01E0: 37 00 80 79 00 55 80 0F  01 54 80 0F 01 29 08 54  7..y.U...T...).T
01F0: 80 0F 01 2B 2B 54 80 0F  01 0E 80 23 29 08 1B 80  ...++T.....#)...
0200: 0F 01 07 2B 54 80 0F 01  0F 80 23 29 08 54 80 0F  ...+T.....#).T..
0210: 01 2C 29 08 54 80 0F 01  2D 2B 54 80 0F 01 10 80  .,).T...-+T.....
0220: 23 52 07 80 F8 FF FF 7F  F8 FF FF 7F 73 30 33 37  #R..........s037
0230: 45 07 80 F8 FF FF 7F F8  FF FF 7F 73 30 33 38 00  E..........s038.
0240: 80 7B 1B 80 0F 01 2B 1B  80 0F 01 11 80 23 29 08  .{....+......#).
0250: 1B 80 0F 01 1E 2B 1B 80  0F 01 12 80 23 29 08 1B  .....+......#)..
0260: 80 0F 01 1F 29 08 54 80  0F 01 05 1C 13 80 52 07  ....).T.......R.
0270: 80 F8 FF FF 7F F8 FF FF  7F 73 30 33 38 45 07 80  .........s038E..
0280: F8 FF FF 7F F8 FF FF 7F  73 30 33 39 00 80 29 08  ........s039..).
0290: 1B 80 0F 01 20 2B 54 80  0F 01 14 80 23 29 08 54  .... +T.....#).T
02A0: 80 0F 01 06 29 08 54 80  0F 01 07 79 00 54 80 0F  ....).T....y.T..
02B0: 01 55 80 0F 01 79 00 F0  FF FF 7F 55 80 0F 01 27  .U...y.....U...'
02C0: 0B 55 80 0F 01 40 2B 55  80 0F 01 15 80 23 2A 0B  .U...@+U.....#*.
02D0: 55 80 0F 01 29 08 1B 80  0F 01 21 4A 1B 80 0F 01  U...).....!J....
02E0: 55 80 0F 01 6F 76 1B 80  0F 01 52 07 80 F8 FF FF  U...ov....R.....
02F0: 7F F8 FF FF 7F 73 30 33  39 45 07 80 F8 FF FF 7F  .....s039E......
0300: F8 FF FF 7F 73 30 34 30  00 80 29 08 55 80 0F 01  ....s040..).U...
0310: 2C 2B 55 80 0F 01 16 80  23 29 08 55 80 0F 01 2D  ,+U.....#).U...-
0320: 7B 1B 80 0F 01 27 08 1B  80 0F 01 2E 2B 1B 80 0F  {....'......+...
0330: 01 17 80 23 2A 08 1B 80  0F 01 29 08 54 80 0F 01  ...#*.....).T...
0340: 08 52 07 80 F8 FF FF 7F  F8 FF FF 7F 73 30 34 30  .R..........s040
0350: 45 07 80 F8 FF FF 7F F8  FF FF 7F 73 30 34 31 00  E..........s041.
0360: 80 79 00 54 80 0F 01 1B  80 0F 01 2B 55 80 0F 01  .y.T.......+U...
0370: 18 80 23 2B 55 80 0F 01  19 80 23 55 07 80 F8 FF  ..#+U.....#U....
0380: FF 7F F8 FF FF 7F 73 30  34 31 5D 00 80 01 80 45  ......s041]....E
0390: 07 80 F8 FF FF 7F F8 FF  FF 7F 73 30 34 32 00 80  ..........s042..
03A0: 2B 55 80 0F 01 1A 80 23  1C 01 80 45 1B 80 F0 FF  +U.....#...E....
03B0: FF 7F F0 FF FF 7F 77 68  6F 31 00 80 1C 1C 80 52  ......who1.....R
03C0: 07 80 F8 FF FF 7F F8 FF  FF 7F 73 30 34 32 5D 00  ..........s042].
03D0: 80 1D 80 38 03 80 79 00  F0 FF FF 7F F0 FF FF 7F  ...8..y.........
03E0: 34 1E 80 77 1F 80 20 80  1C 21 80 AB 09 27 10 56  4..w.. ..!...'.V
03F0: 80 0F 01 02 27 10 57 80  0F 01 04 27 10 58 80 0F  ....'.W....'.X..
0400: 01 04 27 10 59 80 0F 01  04 27 10 5A 80 0F 01 04  ..'.Y....'.Z....
0410: 27 10 5B 80 0F 01 04 27  10 5C 80 0F 01 04 27 10  '.[....'.\....'.
0420: 5D 80 0F 01 04 27 10 5E  80 0F 01 04 27 10 5F 80  ]....'.^....'._.
0430: 0F 01 04 27 10 60 80 0F  01 04 27 10 56 80 0F 01  ...'.`....'.V...
0440: 09 27 10 57 80 0F 01 09  27 10 58 80 0F 01 09 27  .'.W....'.X....'
0450: 10 59 80 0F 01 09 27 10  5A 80 0F 01 09 27 10 5B  .Y....'.Z....'.[
0460: 80 0F 01 09 27 10 5C 80  0F 01 09 27 10 5D 80 0F  ....'.\....'.]..
0470: 01 09 27 10 5E 80 0F 01  09 27 10 5F 80 0F 01 09  ..'.^....'._....
0480: 27 10 60 80 0F 01 09 80  56 80 0F 01 1C 13 80 9F  '.`.....V.......
0490: 22 80 56 80 0F 01 56 80  0F 01 6D 61 69 6E 00 80  ".V...V...main..
04A0: 27 10 60 80 0F 01 0A 45  23 80 F0 FF FF 7F F0 FF  '.`....E#.......
04B0: FF 7F 70 64 30 30 00 80  1A DD 08 55 23 80 F0 FF  ..pd00.....U#...
04C0: FF 7F F0 FF FF 7F 70 64  30 30 1A BC 08 1C 1C 80  ......pd00......
04D0: 45 23 80 F0 FF FF 7F F0  FF FF 7F 62 6C 6F 66 00  E#.........blof.
04E0: 80 9F 22 80 56 80 0F 01  56 80 0F 01 6B 69 6C 6C  ..".V...V...kill
04F0: 00 80 5C 00 24 80 5C 01  24 80 9A 48 25 80 23 48  ..\.$.\.$..H%.#H
0500: 26 80 23 48 27 80 23 35  28 80 78 1C 21 80 27 10  &.#H'.#5(.x.!.'.
0510: 56 80 0F 01 05 27 10 57  80 0F 01 05 27 10 58 80  V....'.W....'.X.
0520: 0F 01 05 27 10 59 80 0F  01 05 27 10 5A 80 0F 01  ...'.Y....'.Z...
0530: 05 27 10 5B 80 0F 01 05  27 10 5C 80 0F 01 05 27  .'.[....'.\....'
0540: 10 5D 80 0F 01 05 27 10  5E 80 0F 01 05 27 10 5F  .]....'.^....'._
0550: 80 0F 01 05 27 10 60 80  0F 01 05 AB 0A 75 00 04  ....'.`......u..
0560: 80 75 01 29 0B 54 80 0F  01 45 29 0B 55 80 0F 01  .u.).T...E).U...
0570: 41 29 0B F0 FF FF 7F 1D  4E 00 55 80 0F 01 4E 00  A)......N.U...N.
0580: 54 80 0F 01 4E 00 F0 FF  FF 7F 80 55 80 0F 01 80  T...N......U....
0590: 54 80 0F 01 80 F0 FF FF  7F 29 0B 34 80 0F 01 02  T........).4....
05A0: 79 00 F0 FF FF 7F 55 80  0F 01 79 00 54 80 0F 01  y.....U...y.T...
05B0: 55 80 0F 01 45 07 80 F8  FF FF 7F F8 FF FF 7F 73  U...E..........s
05C0: 30 38 39 00 80 45 02 80  F8 FF FF 7F F8 FF FF 7F  089..E..........
05D0: 66 64 69 31 00 80 5D 00  80 29 80 1C 2A 80 27 0B  fdi1..]..)..*.'.
05E0: 54 80 0F 01 46 27 0B 55  80 0F 01 42 27 0B F0 FF  T...F'.U...B'...
05F0: FF 7F 1E 52 07 80 F8 FF  FF 7F F8 FF FF 7F 73 30  ...R..........s0
0600: 38 39 45 02 80 F0 FF FF  7F F0 FF FF 7F 6F 76 6C  89E..........ovl
0610: 31 00 80 45 07 80 F8 FF  FF 7F F8 FF FF 7F 73 30  1..E..........s0
0620: 34 33 00 80 1C 2B 80 29  0B 34 80 0F 01 03 52 07  43...+.).4....R.
0630: 80 F8 FF FF 7F F8 FF FF  7F 73 30 34 33 45 02 80  .........s043E..
0640: F0 FF FF 7F F0 FF FF 7F  6F 76 6C 31 00 80 45 07  ........ovl1..E.
0650: 80 F8 FF FF 7F F8 FF FF  7F 73 30 34 34 00 80 2B  .........s044..+
0660: 54 80 0F 01 2C 80 23 2A  0B F0 FF FF 7F 2A 0B 54  T...,.#*.....*.T
0670: 80 0F 01 2B 55 80 0F 01  2D 80 23 2A 0B 55 80 0F  ...+U...-.#*.U..
0680: 01 52 07 80 F8 FF FF 7F  F8 FF FF 7F 73 30 34 34  .R..........s044
0690: 45 07 80 F8 FF FF 7F F8  FF FF 7F 73 30 34 35 00  E..........s045.
06A0: 80 79 00 55 80 0F 01 54  80 0F 01 4B 55 80 0F 01  .y.U...T...KU...
06B0: 2E 80 6F 76 55 80 0F 01  2B 55 80 0F 01 2F 80 23  ..ovU...+U.../.#
06C0: 29 08 54 80 0F 01 09 2B  54 80 0F 01 30 80 23 29  ).T....+T...0.#)
06D0: 08 54 80 0F 01 0A 52 07  80 F8 FF FF 7F F8 FF FF  .T....R.........
06E0: 7F 73 30 34 35 45 07 80  F8 FF FF 7F F8 FF FF 7F  .s045E..........
06F0: 73 30 34 36 00 80 29 08  54 80 0F 01 0B 27 0B 55  s046..).T....'.U
0700: 80 0F 01 43 2B 55 80 0F  01 31 80 23 2A 0B 55 80  ...C+U...1.#*.U.
0710: 0F 01 29 08 55 80 0F 01  13 2B 55 80 0F 01 32 80  ..).U....+U...2.
0720: 23 29 08 55 80 0F 01 14  29 08 54 80 0F 01 0C 29  #).U....).T....)
0730: 08 54 80 0F 01 01 2B 54  80 0F 01 33 80 23 29 08  .T....+T...3.#).
0740: 54 80 0F 01 02 52 07 80  F8 FF FF 7F F8 FF FF 7F  T....R..........
0750: 73 30 34 36 45 07 80 F8  FF FF 7F F8 FF FF 7F 73  s046E..........s
0760: 30 34 37 00 80 5C 00 34  80 5C 01 34 80 2B 55 80  047..\.4.\.4.+U.
0770: 0F 01 35 80 23 29 08 55  80 0F 01 15 2B 55 80 0F  ..5.#).U....+U..
0780: 01 36 80 23 29 08 55 80  0F 01 16 52 07 80 F8 FF  .6.#).U....R....
0790: FF 7F F8 FF FF 7F 73 30  34 37 45 07 80 F8 FF FF  ......s047E.....
07A0: 7F F8 FF FF 7F 73 30 34  38 00 80 29 08 54 80 0F  .....s048..).T..
07B0: 01 03 2B 54 80 0F 01 37  80 23 29 08 54 80 0F 01  ..+T...7.#).T...
07C0: 04 52 07 80 F8 FF FF 7F  F8 FF FF 7F 73 30 34 38  .R..........s048
07D0: 45 07 80 F8 FF FF 7F F8  FF FF 7F 73 30 34 39 00  E..........s049.
07E0: 80 4A 55 80 0F 01 54 80  0F 01 6F 76 55 80 0F 01  .JU...T...ovU...
07F0: 2B 55 80 0F 01 38 80 23  29 08 55 80 0F 01 30 2B  +U...8.#).U...0+
0800: 55 80 0F 01 39 80 23 29  08 55 80 0F 01 31 45 02  U...9.#).U...1E.
0810: 80 F0 FF FF 7F F0 FF FF  7F 66 64 6F 31 00 80 1C  .........fdo1...
0820: 1D 80 4E 00 40 80 0F 01  52 07 80 F8 FF FF 7F F8  ..N.@...R.......
0830: FF FF 7F 73 30 34 39 4E  00 F0 FF FF 7F 80 F0 FF  ...s049N........
0840: FF 7F 46 00 45 02 80 F0  FF FF 7F F0 FF FF 7F 66  ..F.E..........f
0850: 64 69 31 00 80 20 00 21  00 45 02 80 F0 FF FF 7F  di1.. .!.E......
0860: F0 FF FF 7F 66 64 69 30  00 80 55 02 80 F0 FF FF  ....fdi0..U.....
0870: 7F F0 FF FF 7F 66 64 69  30 1B 45 02 80 F0 FF FF  .....fdi0.E.....
0880: 7F F0 FF FF 7F 66 64 6F  30 00 80 55 02 80 F0 FF  .....fdo0..U....
0890: FF 7F F0 FF FF 7F 66 64  6F 30 1B 45 02 80 F0 FF  ......fdo0.E....
08A0: FF 7F F0 FF FF 7F 66 64  69 31 00 80 55 02 80 F0  ......fdi1..U...
08B0: FF FF 7F F0 FF FF 7F 66  64 69 31 1B 45 02 80 F0  .......fdi1.E...
08C0: FF FF 7F F0 FF FF 7F 66  64 6F 31 00 80 55 02 80  .......fdo1..U..
08D0: F0 FF FF 7F F0 FF FF 7F  66 64 6F 31 1B 45 1B 80  ........fdo1.E..
08E0: F0 FF FF 7F F0 FF FF 7F  77 68 69 31 00 80 55 1B  ........whi1..U.
08F0: 80 F0 FF FF 7F F0 FF FF  7F 77 68 69 31 1B 45 1B  .........whi1.E.
0900: 80 F0 FF FF 7F F0 FF FF  7F 77 68 6F 31 00 80 55  .........who1..U
0910: 1B 80 F0 FF FF 7F F0 FF  FF 7F 77 68 6F 31 1B 45  ..........who1.E
0920: 1B 80 F0 FF FF 7F F0 FF  FF 7F 77 68 6F 32 00 80  ..........who2..
0930: 55 1B 80 F0 FF FF 7F F0  FF FF 7F 77 68 6F 32 1B  U..........who2.
0940: 45 1B 80 F0 FF FF 7F F0  FF FF 7F 77 68 6F 33 00  E..........who3.
0950: 80 55 1B 80 F0 FF FF 7F  F0 FF FF 7F 77 68 6F 33  .U..........who3
0960: 1B 62 20 80 F0 FF FF 7F  F0 FF FF 7F 6D 61 69 6E  .b .........main
0970: 00 80 1C 3A 80 45 02 80  F0 FF FF 7F F0 FF FF 7F  ...:.E..........
0980: 66 64 6F 31 00 80 55 02  80 F0 FF FF 7F F0 FF FF  fdo1..U.........
0990: 7F 66 64 6F 31 1B 45 02  80 F0 FF FF 7F F0 FF FF  .fdo1.E.........
09A0: 7F 66 64 69 31 00 80 62  1F 80 F0 FF FF 7F F0 FF  .fdi1..b........
09B0: FF 7F 6D 61 69 6E 00 80  1C 13 80 55 02 80 F0 FF  ..main.....U....
09C0: FF 7F F0 FF FF 7F 66 64  69 31 1B 45 02 80 F0 FF  ......fdi1.E....
09D0: FF 7F F0 FF FF 7F 62 6C  6F 6E 00 80 45 1B 80 F0  ......blon..E...
09E0: FF FF 7F F0 FF FF 7F 62  6C 6F 6E 00 80 1B 45 1B  .......blon...E.
09F0: 80 F0 FF FF 7F F0 FF FF  7F 77 68 69 30 00 80 55  .........whi0..U
0A00: 1B 80 F0 FF FF 7F F0 FF  FF 7F 77 68 69 30 1B 45  ..........whi0.E
0A10: 1B 80 F0 FF FF 7F F0 FF  FF 7F 77 68 6F 30 00 80  ..........who0..
0A20: 55 1B 80 F0 FF FF 7F F0  FF FF 7F 77 68 6F 30 1B  U..........who0.
0A30: 45 3B 80 F0 FF FF 7F F0  FF FF 7F 65 66 6F 6E 00  E;.........efon.
0A40: 80 55 3B 80 F0 FF FF 7F  F0 FF FF 7F 65 66 6F 6E  .U;.........efon
0A50: 1B 45 02 80 F0 FF FF 7F  F0 FF FF 7F 66 64 69 73  .E..........fdis
0A60: 00 80 1B 45 02 80 F0 FF  FF 7F F0 FF FF 7F 66 64  ...E..........fd
0A70: 6F 73 00 80 55 02 80 F0  FF FF 7F F0 FF FF 7F 66  os..U..........f
0A80: 64 6F 73 1B 45 02 80 F0  FF FF 7F F0 FF FF 7F 66  dos.E..........f
0A90: 64 69 66 00 80 1B 45 02  80 F0 FF FF 7F F0 FF FF  dif...E.........
0AA0: 7F 66 64 6F 66 00 80 55  02 80 F0 FF FF 7F F0 FF  .fdof..U........
0AB0: FF 7F 66 64 6F 66 1B 45  02 80 F0 FF FF 7F F0 FF  ..fdof.E........
0AC0: FF 7F 66 64 69 70 00 80  1B 45 02 80 F0 FF FF 7F  ..fdip...E......
0AD0: F0 FF FF 7F 66 64 6F 70  00 80 55 02 80 F0 FF FF  ....fdop..U.....
0AE0: 7F F0 FF FF 7F 66 64 6F  70 1B                    .....fdop.      
```

#### Opcodes

```
  0: 0x0001 [0x20] SET_CLI_EVENT_UC_FLAG: Lock player control
  1: 0x0003 [0x42] SET_CLI_EVENT_CANCEL_DATA()
  2: 0x0004 [0x46] CAMERA_CONTROL: Disable user control
  3: 0x0006 [0x4A] Mathilde (ID: 17793051/0x010F801B) looks at LocalPlayer
  4: 0x000F [0x5D] SET_MUSIC_VOLUME(volume=0*, fade_time=120*)
  5: 0x0014 [0x45] LOAD_SCHEDULED_TASK: Load scheduler "fdo1" with entities [EventEntity, EventEntity], work=[200*, 0*]
  6: 0x0025 [0x1C] WAIT(120* ticks)
  7: 0x0028 [0x38] SET_CLIENT_EVENT_MODE(mode=19*)
  8: 0x002B [0x29] REQ_SET_WAIT(priority=0x08, entity_id=LocalPlayer, tag_num=0x19)
  9: 0x0032 [0x75] LOAD_ROOM(Load indoor room, room=481*)
 10: 0x0036 [0x75] LOAD_ROOM(No action)
 11: 0x0038 [0x92] Mathilde (ID: 17793051/0x010F801B)->Render.Flags3 ^= 0x01
 12: 0x003E [0x4E] SET_ENTITY_HIDE_FLAG: Show Ulmia (ID: 17793108/0x010F8054)
 13: 0x0044 [0x4E] SET_ENTITY_HIDE_FLAG: Show Louverance (ID: 17793109/0x010F8055)
 14: 0x004A [0x80] LOAD_WAIT(entity=Ulmia (ID: 17793108/0x010F8054))
 15: 0x004F [0x80] LOAD_WAIT(entity=Louverance (ID: 17793109/0x010F8055))
 16: 0x0054 [0x29] REQ_SET_WAIT(priority=0x0B, entity_id=Mathilde (ID: 17793051/0x010F801B), tag_num=0x39)
 17: 0x005B [0x29] REQ_SET_WAIT(priority=0x0B, entity_id=LocalPlayer, tag_num=0x1C)
 18: 0x0062 [0x29] REQ_SET_WAIT(priority=0x0B, entity_id=Ulmia (ID: 17793108/0x010F8054), tag_num=0x43)
 19: 0x0069 [0x29] REQ_SET_WAIT(priority=0x0B, entity_id=Louverance (ID: 17793109/0x010F8055), tag_num=0x3F)
 20: 0x0070 [0x4A] Mathilde (ID: 17793051/0x010F801B) looks at Ulmia (ID: 17793108/0x010F8054)
 21: 0x0079 [0x7B] Mathilde (ID: 17793051/0x010F801B) stops talking
 22: 0x007E [0x4A] LocalPlayer looks at Mathilde (ID: 17793051/0x010F801B)
 23: 0x0087 [0x4A] Ulmia (ID: 17793108/0x010F8054) looks at Mathilde (ID: 17793051/0x010F801B)
 24: 0x0090 [0x4A] Louverance (ID: 17793109/0x010F8055) looks at Mathilde (ID: 17793051/0x010F801B)
 25: 0x0099 [0x6F] WAIT_FRAME_DELAY: Yield until WaitTime reaches zero
 26: 0x009A [0x76] CHECK_ENTITY_RENDER_FLAGS: Wait until LocalPlayer Render.Flags0 and Render.Flags3 conditions are met
 27: 0x009F [0x6F] WAIT_FRAME_DELAY: Yield until WaitTime reaches zero
 28: 0x00A0 [0x76] CHECK_ENTITY_RENDER_FLAGS: Wait until Mathilde (ID: 17793051/0x010F801B) Render.Flags0 and Render.Flags3 conditions are met
 29: 0x00A5 [0x6F] WAIT_FRAME_DELAY: Yield until WaitTime reaches zero
 30: 0x00A6 [0x76] CHECK_ENTITY_RENDER_FLAGS: Wait until Louverance (ID: 17793109/0x010F8055) Render.Flags0 and Render.Flags3 conditions are met
 31: 0x00AB [0x6F] WAIT_FRAME_DELAY: Yield until WaitTime reaches zero
 32: 0x00AC [0x76] CHECK_ENTITY_RENDER_FLAGS: Wait until Ulmia (ID: 17793108/0x010F8054) Render.Flags0 and Render.Flags3 conditions are met
 33: 0x00B1 [0x4E] SET_ENTITY_HIDE_FLAG: Hide Unknown NPC (ID: 17793088/0x010F8040)
 34: 0x00B7 [0x5C] MUSIC_CONTROL: Set Idle (Day) music to song 124*
 35: 0x00BB [0x5C] MUSIC_CONTROL: Set Idle (Night) music to song 124*
 36: 0x00BF [0x1C] WAIT(300* ticks)
 37: 0x00C2 [0x45] LOAD_SCHEDULED_TASK: Load scheduler "s033" with entities [EventEntity, EventEntity], work=[175*, 0*]
 38: 0x00D3 [0x45] LOAD_SCHEDULED_TASK: Load scheduler "fdi1" with entities [EventEntity, EventEntity], work=[200*, 0*]
 39: 0x00E4 [0x2B] Mathilde (ID: 17793051/0x010F801B) [7348*]:
    → "Hello? Can I help you...?"
 40: 0x00EB [0x23] WAIT_FOR_DIALOG_INTERACTION
 41: 0x00EC [0x52] END_LOAD_SCHEDULER: End scheduler "s033" with entities [EventEntity, EventEntity], work=175*
 42: 0x00FB [0x45] LOAD_SCHEDULED_TASK: Load scheduler "s034" with entities [EventEntity, EventEntity], work=[175*, 0*]
 43: 0x010C [0x27] REQ_SET(priority=0x0B, entity_id=Ulmia (ID: 17793108/0x010F8054), tag_num=0x44)
 44: 0x0113 [0x2B] Ulmia (ID: 17793108/0x010F8054) [7349*]:
    → "Your name wouldn't be Emeline, by any chance?"
 45: 0x011A [0x23] WAIT_FOR_DIALOG_INTERACTION
 46: 0x011B [0x2A] GET_REQ_LEVEL(level=11, entity_id=Ulmia (ID: 17793108/0x010F8054))
 47: 0x0121 [0x29] REQ_SET_WAIT(priority=0x08, entity_id=Ulmia (ID: 17793108/0x010F8054), tag_num=0x01)
 48: 0x0128 [0x2B] Ulmia (ID: 17793108/0x010F8054) [7350*]:
    → "My name is Ulmia. We were in the choir together, do you remember...?"
 49: 0x012F [0x23] WAIT_FOR_DIALOG_INTERACTION
 50: 0x0130 [0x29] REQ_SET_WAIT(priority=0x08, entity_id=Ulmia (ID: 17793108/0x010F8054), tag_num=0x02)
 51: 0x0137 [0x52] END_LOAD_SCHEDULER: End scheduler "s034" with entities [EventEntity, EventEntity], work=175*
 52: 0x0146 [0x45] LOAD_SCHEDULED_TASK: Load scheduler "s035" with entities [EventEntity, EventEntity], work=[175*, 0*]
 53: 0x0157 [0x29] REQ_SET_WAIT(priority=0x08, entity_id=Mathilde (ID: 17793051/0x010F801B), tag_num=0x10)
 54: 0x015E [0x2B] Mathilde (ID: 17793051/0x010F801B) [7351*]:
    → "...?"
 55: 0x0165 [0x23] WAIT_FOR_DIALOG_INTERACTION
 56: 0x0166 [0x29] REQ_SET_WAIT(priority=0x08, entity_id=Mathilde (ID: 17793051/0x010F801B), tag_num=0x11)
 57: 0x016D [0x29] REQ_SET_WAIT(priority=0x08, entity_id=Mathilde (ID: 17793051/0x010F801B), tag_num=0x12)
 58: 0x0174 [0x2B] Mathilde (ID: 17793051/0x010F801B) [7352*]:
    → "I'm sorry, I don't remember much about my childhood."
 59: 0x017B [0x23] WAIT_FOR_DIALOG_INTERACTION
 60: 0x017C [0x29] REQ_SET_WAIT(priority=0x08, entity_id=Mathilde (ID: 17793051/0x010F801B), tag_num=0x13)
 61: 0x0183 [0x52] END_LOAD_SCHEDULER: End scheduler "s035" with entities [EventEntity, EventEntity], work=175*
 62: 0x0192 [0x45] LOAD_SCHEDULED_TASK: Load scheduler "s036" with entities [EventEntity, EventEntity], work=[175*, 0*]
 63: 0x01A3 [0x79] Mathilde (ID: 17793051/0x010F801B) looks at Ulmia (ID: 17793108/0x010F8054) (Basic look)
 64: 0x01AD [0x29] REQ_SET_WAIT(priority=0x08, entity_id=Ulmia (ID: 17793108/0x010F8054), tag_num=0x03)
 65: 0x01B4 [0x2B] Mathilde (ID: 17793051/0x010F801B) [7353*]:
    → "But I'm sure you must be mistaken. My name is Mathilde. I work here at the Weavers' Guild."
 66: 0x01BB [0x23] WAIT_FOR_DIALOG_INTERACTION
 67: 0x01BC [0x29] REQ_SET_WAIT(priority=0x08, entity_id=Ulmia (ID: 17793108/0x010F8054), tag_num=0x04)
 68: 0x01C3 [0x52] END_LOAD_SCHEDULER: End scheduler "s036" with entities [EventEntity, EventEntity], work=175*
 69: 0x01D2 [0x45] LOAD_SCHEDULED_TASK: Load scheduler "s037" with entities [EventEntity, EventEntity], work=[175*, 0*]
 70: 0x01E3 [0x79] Louverance (ID: 17793109/0x010F8055) looks at Ulmia (ID: 17793108/0x010F8054) (Basic look)
 71: 0x01ED [0x29] REQ_SET_WAIT(priority=0x08, entity_id=Ulmia (ID: 17793108/0x010F8054), tag_num=0x2B)
 72: 0x01F4 [0x2B] Ulmia (ID: 17793108/0x010F8054) [7354*]:
    → "... Yes, you're right, I must be mistaken. Please accept my apologies."
 73: 0x01FB [0x23] WAIT_FOR_DIALOG_INTERACTION
 74: 0x01FC [0x29] REQ_SET_WAIT(priority=0x08, entity_id=Mathilde (ID: 17793051/0x010F801B), tag_num=0x07)
 75: 0x0203 [0x2B] Ulmia (ID: 17793108/0x010F8054) [7355*]:
    → "You so resemble a girl that used to sing in the choir with me, I just..."
 76: 0x020A [0x23] WAIT_FOR_DIALOG_INTERACTION
 77: 0x020B [0x29] REQ_SET_WAIT(priority=0x08, entity_id=Ulmia (ID: 17793108/0x010F8054), tag_num=0x2C)
 78: 0x0212 [0x29] REQ_SET_WAIT(priority=0x08, entity_id=Ulmia (ID: 17793108/0x010F8054), tag_num=0x2D)
 79: 0x0219 [0x2B] Ulmia (ID: 17793108/0x010F8054) [7356*]:
    → "You don't happen to have a younger brother, do you?"
 80: 0x0220 [0x23] WAIT_FOR_DIALOG_INTERACTION
 81: 0x0221 [0x52] END_LOAD_SCHEDULER: End scheduler "s037" with entities [EventEntity, EventEntity], work=175*
 82: 0x0230 [0x45] LOAD_SCHEDULED_TASK: Load scheduler "s038" with entities [EventEntity, EventEntity], work=[175*, 0*]
 83: 0x0241 [0x7B] Mathilde (ID: 17793051/0x010F801B) stops talking
 84: 0x0246 [0x2B] Mathilde (ID: 17793051/0x010F801B) [7357*]:
    → "A younger brother... Why, yes, I did have a younger brother, only... We were separated in the war."
 85: 0x024D [0x23] WAIT_FOR_DIALOG_INTERACTION
 86: 0x024E [0x29] REQ_SET_WAIT(priority=0x08, entity_id=Mathilde (ID: 17793051/0x010F801B), tag_num=0x1E)
 87: 0x0255 [0x2B] Mathilde (ID: 17793051/0x010F801B) [7358*]:
    → "But I believe he is still out there...somewhere... I do hope he is happy..."
 88: 0x025C [0x23] WAIT_FOR_DIALOG_INTERACTION
 89: 0x025D [0x29] REQ_SET_WAIT(priority=0x08, entity_id=Mathilde (ID: 17793051/0x010F801B), tag_num=0x1F)
 90: 0x0264 [0x29] REQ_SET_WAIT(priority=0x08, entity_id=Ulmia (ID: 17793108/0x010F8054), tag_num=0x05)
 91: 0x026B [0x1C] WAIT(30* ticks)
 92: 0x026E [0x52] END_LOAD_SCHEDULER: End scheduler "s038" with entities [EventEntity, EventEntity], work=175*
 93: 0x027D [0x45] LOAD_SCHEDULED_TASK: Load scheduler "s039" with entities [EventEntity, EventEntity], work=[175*, 0*]
 94: 0x028E [0x29] REQ_SET_WAIT(priority=0x08, entity_id=Mathilde (ID: 17793051/0x010F801B), tag_num=0x20)
 95: 0x0295 [0x2B] Ulmia (ID: 17793108/0x010F8054) [7359*]:
    → "I am sorry to have brought up this painful subject. I'll be on my way..."
 96: 0x029C [0x23] WAIT_FOR_DIALOG_INTERACTION
 97: 0x029D [0x29] REQ_SET_WAIT(priority=0x08, entity_id=Ulmia (ID: 17793108/0x010F8054), tag_num=0x06)
 98: 0x02A4 [0x29] REQ_SET_WAIT(priority=0x08, entity_id=Ulmia (ID: 17793108/0x010F8054), tag_num=0x07)
 99: 0x02AB [0x79] Ulmia (ID: 17793108/0x010F8054) looks at Louverance (ID: 17793109/0x010F8055) (Basic look)
100: 0x02B5 [0x79] LocalPlayer looks at Louverance (ID: 17793109/0x010F8055) (Basic look)
101: 0x02BF [0x27] REQ_SET(priority=0x0B, entity_id=Louverance (ID: 17793109/0x010F8055), tag_num=0x40)
102: 0x02C6 [0x2B] Louverance (ID: 17793109/0x010F8055) [7360*]:
    → "I have one last request for you."
103: 0x02CD [0x23] WAIT_FOR_DIALOG_INTERACTION
104: 0x02CE [0x2A] GET_REQ_LEVEL(level=11, entity_id=Louverance (ID: 17793109/0x010F8055))
105: 0x02D4 [0x29] REQ_SET_WAIT(priority=0x08, entity_id=Mathilde (ID: 17793051/0x010F801B), tag_num=0x21)
106: 0x02DB [0x4A] Mathilde (ID: 17793051/0x010F801B) looks at Louverance (ID: 17793109/0x010F8055)
107: 0x02E4 [0x6F] WAIT_FRAME_DELAY: Yield until WaitTime reaches zero
108: 0x02E5 [0x76] CHECK_ENTITY_RENDER_FLAGS: Wait until Mathilde (ID: 17793051/0x010F801B) Render.Flags0 and Render.Flags3 conditions are met
109: 0x02EA [0x52] END_LOAD_SCHEDULER: End scheduler "s039" with entities [EventEntity, EventEntity], work=175*
110: 0x02F9 [0x45] LOAD_SCHEDULED_TASK: Load scheduler "s040" with entities [EventEntity, EventEntity], work=[175*, 0*]
111: 0x030A [0x29] REQ_SET_WAIT(priority=0x08, entity_id=Louverance (ID: 17793109/0x010F8055), tag_num=0x2C)
112: 0x0311 [0x2B] Louverance (ID: 17793109/0x010F8055) [7361*]:
    → "There is a certain song that you might know. Will you sing it for us?"
113: 0x0318 [0x23] WAIT_FOR_DIALOG_INTERACTION
114: 0x0319 [0x29] REQ_SET_WAIT(priority=0x08, entity_id=Louverance (ID: 17793109/0x010F8055), tag_num=0x2D)
115: 0x0320 [0x7B] Mathilde (ID: 17793051/0x010F801B) stops talking
116: 0x0325 [0x27] REQ_SET(priority=0x08, entity_id=Mathilde (ID: 17793051/0x010F801B), tag_num=0x2E)
117: 0x032C [0x2B] Mathilde (ID: 17793051/0x010F801B) [7362*]:
    → "A...song?"
118: 0x0333 [0x23] WAIT_FOR_DIALOG_INTERACTION
119: 0x0334 [0x2A] GET_REQ_LEVEL(level=8, entity_id=Mathilde (ID: 17793051/0x010F801B))
120: 0x033A [0x29] REQ_SET_WAIT(priority=0x08, entity_id=Ulmia (ID: 17793108/0x010F8054), tag_num=0x08)
121: 0x0341 [0x52] END_LOAD_SCHEDULER: End scheduler "s040" with entities [EventEntity, EventEntity], work=175*
122: 0x0350 [0x45] LOAD_SCHEDULED_TASK: Load scheduler "s041" with entities [EventEntity, EventEntity], work=[175*, 0*]
123: 0x0361 [0x79] Ulmia (ID: 17793108/0x010F8054) looks at Mathilde (ID: 17793051/0x010F801B) (Basic look)
124: 0x036B [0x2B] Louverance (ID: 17793109/0x010F8055) [7363*]:
    → "I am sure you have this song locked somewhere in your heart. Please try to remember."
125: 0x0372 [0x23] WAIT_FOR_DIALOG_INTERACTION
126: 0x0373 [0x2B] Louverance (ID: 17793109/0x010F8055) [7364*]:
    → "The Tavnazian Cathedral... Cardinal Mildaurion... A song known as the "Lay of the Immortals"..."
127: 0x037A [0x23] WAIT_FOR_DIALOG_INTERACTION
128: 0x037B [0x55] WAIT_LOAD_SCHEDULER: Wait for scheduler "s041" with entities [EventEntity, EventEntity], work=175*
129: 0x038A [0x5D] SET_MUSIC_VOLUME(volume=0*, fade_time=120*)
130: 0x038F [0x45] LOAD_SCHEDULED_TASK: Load scheduler "s042" with entities [EventEntity, EventEntity], work=[175*, 0*]
131: 0x03A0 [0x2B] Louverance (ID: 17793109/0x010F8055) [7365*]:
    → "The fifth verse..."
132: 0x03A7 [0x23] WAIT_FOR_DIALOG_INTERACTION
133: 0x03A8 [0x1C] WAIT(120* ticks)
134: 0x03AB [0x45] LOAD_SCHEDULED_TASK: Load scheduler "who1" with entities [LocalPlayer, LocalPlayer], work=[201*, 0*]
135: 0x03BC [0x1C] WAIT(90* ticks)
136: 0x03BF [0x52] END_LOAD_SCHEDULER: End scheduler "s042" with entities [EventEntity, EventEntity], work=175*
137: 0x03CE [0x5D] SET_MUSIC_VOLUME(volume=0*, fade_time=60*)
138: 0x03D3 [0x38] SET_CLIENT_EVENT_MODE(mode=19*)
139: 0x03D6 [0x79] LocalPlayer looks at LocalPlayer (Basic look)
140: 0x03E0 [0x34] LOAD_UNLOAD_ZONE(zone_id=6*)
141: 0x03E3 [0x77] SET_EVENT_TIME_WEATHER(hour=2*, weather=1*)
142: 0x03E8 [0x1C] WAIT(15* ticks)
143: 0x03EB [0xAB] EventEntity->UnknownFlag = 1 // Enable unknown flag
144: 0x03ED [0x27] REQ_SET(priority=0x10, entity_id=Unnamed NPC (ID: 17793110/0x010F8056), tag_num=0x02)
145: 0x03F4 [0x27] REQ_SET(priority=0x10, entity_id=Unnamed NPC (ID: 17793111/0x010F8057), tag_num=0x04)
146: 0x03FB [0x27] REQ_SET(priority=0x10, entity_id=Unnamed NPC (ID: 17793112/0x010F8058), tag_num=0x04)
147: 0x0402 [0x27] REQ_SET(priority=0x10, entity_id=Unnamed NPC (ID: 17793113/0x010F8059), tag_num=0x04)
148: 0x0409 [0x27] REQ_SET(priority=0x10, entity_id=Unnamed NPC (ID: 17793114/0x010F805A), tag_num=0x04)
149: 0x0410 [0x27] REQ_SET(priority=0x10, entity_id=Unnamed NPC (ID: 17793115/0x010F805B), tag_num=0x04)
150: 0x0417 [0x27] REQ_SET(priority=0x10, entity_id=Unnamed NPC (ID: 17793116/0x010F805C), tag_num=0x04)
151: 0x041E [0x27] REQ_SET(priority=0x10, entity_id=Unnamed NPC (ID: 17793117/0x010F805D), tag_num=0x04)
152: 0x0425 [0x27] REQ_SET(priority=0x10, entity_id=Unnamed NPC (ID: 17793118/0x010F805E), tag_num=0x04)
153: 0x042C [0x27] REQ_SET(priority=0x10, entity_id=Unnamed NPC (ID: 17793119/0x010F805F), tag_num=0x04)
154: 0x0433 [0x27] REQ_SET(priority=0x10, entity_id=Unnamed NPC (ID: 17793120/0x010F8060), tag_num=0x04)
155: 0x043A [0x27] REQ_SET(priority=0x10, entity_id=Unnamed NPC (ID: 17793110/0x010F8056), tag_num=0x09)
156: 0x0441 [0x27] REQ_SET(priority=0x10, entity_id=Unnamed NPC (ID: 17793111/0x010F8057), tag_num=0x09)
157: 0x0448 [0x27] REQ_SET(priority=0x10, entity_id=Unnamed NPC (ID: 17793112/0x010F8058), tag_num=0x09)
158: 0x044F [0x27] REQ_SET(priority=0x10, entity_id=Unnamed NPC (ID: 17793113/0x010F8059), tag_num=0x09)
159: 0x0456 [0x27] REQ_SET(priority=0x10, entity_id=Unnamed NPC (ID: 17793114/0x010F805A), tag_num=0x09)
160: 0x045D [0x27] REQ_SET(priority=0x10, entity_id=Unnamed NPC (ID: 17793115/0x010F805B), tag_num=0x09)
161: 0x0464 [0x27] REQ_SET(priority=0x10, entity_id=Unnamed NPC (ID: 17793116/0x010F805C), tag_num=0x09)
162: 0x046B [0x27] REQ_SET(priority=0x10, entity_id=Unnamed NPC (ID: 17793117/0x010F805D), tag_num=0x09)
163: 0x0472 [0x27] REQ_SET(priority=0x10, entity_id=Unnamed NPC (ID: 17793118/0x010F805E), tag_num=0x09)
164: 0x0479 [0x27] REQ_SET(priority=0x10, entity_id=Unnamed NPC (ID: 17793119/0x010F805F), tag_num=0x09)
165: 0x0480 [0x27] REQ_SET(priority=0x10, entity_id=Unnamed NPC (ID: 17793120/0x010F8060), tag_num=0x09)
166: 0x0487 [0x80] LOAD_WAIT(entity=Unnamed NPC (ID: 17793110/0x010F8056))
167: 0x048C [0x1C] WAIT(30* ticks)
168: 0x048F [0x9F] LOAD_SCHEDULED_TASK_ALT: Load scheduler "main" with entities [Unnamed NPC (ID: 17793110/0x010F8056), Unnamed NPC (ID: 17793110/0x010F8056)], work=[103*, 0*]
169: 0x04A0 [0x27] REQ_SET(priority=0x10, entity_id=Unnamed NPC (ID: 17793120/0x010F8060), tag_num=0x0A)
170: 0x04A7 [0x45] LOAD_SCHEDULED_TASK: Load scheduler "pd00" with entities [LocalPlayer, LocalPlayer], work=[155*, 0*]
171: 0x04B8 [0x1A] CALL_SUBROUTINE(address=0x08DD)
172: 0x04BB [0x55] WAIT_LOAD_SCHEDULER: Wait for scheduler "pd00" with entities [LocalPlayer, LocalPlayer], work=155*
173: 0x04CA [0x1A] CALL_SUBROUTINE(address=0x08BC)
174: 0x04CD [0x1C] WAIT(90* ticks)
175: 0x04D0 [0x45] LOAD_SCHEDULED_TASK: Load scheduler "blof" with entities [LocalPlayer, LocalPlayer], work=[155*, 0*]
176: 0x04E1 [0x9F] LOAD_SCHEDULED_TASK_ALT: Load scheduler "kill" with entities [Unnamed NPC (ID: 17793110/0x010F8056), Unnamed NPC (ID: 17793110/0x010F8056)], work=[103*, 0*]
177: 0x04F2 [0x5C] MUSIC_CONTROL: Set Idle (Day) music to song 241*
178: 0x04F6 [0x5C] MUSIC_CONTROL: Set Idle (Night) music to song 241*
179: 0x04FA [0x9A] WAIT_MUSIC_SERVER()
180: 0x04FB [0x48] [System] [7366*]:
    → "@ And so the legend ends..."
181: 0x04FE [0x23] WAIT_FOR_DIALOG_INTERACTION
182: 0x04FF [0x48] [System] [7367*]:
    → "@ ...began......crystal......"
183: 0x0502 [0x23] WAIT_FOR_DIALOG_INTERACTION
184: 0x0503 [0x48] [System] [7380*]:
    → "@@"
185: 0x0506 [0x23] WAIT_FOR_DIALOG_INTERACTION
186: 0x0507 [0x35] LOAD_ZONE_NO_CLOSE(zone_id=248*)
187: 0x050A [0x78] ENABLE_GAME_TIMER_RESET_WEATHER()
188: 0x050B [0x1C] WAIT(15* ticks)
189: 0x050E [0x27] REQ_SET(priority=0x10, entity_id=Unnamed NPC (ID: 17793110/0x010F8056), tag_num=0x05)
190: 0x0515 [0x27] REQ_SET(priority=0x10, entity_id=Unnamed NPC (ID: 17793111/0x010F8057), tag_num=0x05)
191: 0x051C [0x27] REQ_SET(priority=0x10, entity_id=Unnamed NPC (ID: 17793112/0x010F8058), tag_num=0x05)
192: 0x0523 [0x27] REQ_SET(priority=0x10, entity_id=Unnamed NPC (ID: 17793113/0x010F8059), tag_num=0x05)
193: 0x052A [0x27] REQ_SET(priority=0x10, entity_id=Unnamed NPC (ID: 17793114/0x010F805A), tag_num=0x05)
194: 0x0531 [0x27] REQ_SET(priority=0x10, entity_id=Unnamed NPC (ID: 17793115/0x010F805B), tag_num=0x05)
195: 0x0538 [0x27] REQ_SET(priority=0x10, entity_id=Unnamed NPC (ID: 17793116/0x010F805C), tag_num=0x05)
196: 0x053F [0x27] REQ_SET(priority=0x10, entity_id=Unnamed NPC (ID: 17793117/0x010F805D), tag_num=0x05)
197: 0x0546 [0x27] REQ_SET(priority=0x10, entity_id=Unnamed NPC (ID: 17793118/0x010F805E), tag_num=0x05)
198: 0x054D [0x27] REQ_SET(priority=0x10, entity_id=Unnamed NPC (ID: 17793119/0x010F805F), tag_num=0x05)
199: 0x0554 [0x27] REQ_SET(priority=0x10, entity_id=Unnamed NPC (ID: 17793120/0x010F8060), tag_num=0x05)
200: 0x055B [0xAB] EventEntity->UnknownFlag = 0 // Disable unknown flag
201: 0x055D [0x75] LOAD_ROOM(Load indoor room, room=481*)
202: 0x0561 [0x75] LOAD_ROOM(No action)
203: 0x0563 [0x29] REQ_SET_WAIT(priority=0x0B, entity_id=Ulmia (ID: 17793108/0x010F8054), tag_num=0x45)
204: 0x056A [0x29] REQ_SET_WAIT(priority=0x0B, entity_id=Louverance (ID: 17793109/0x010F8055), tag_num=0x41)
205: 0x0571 [0x29] REQ_SET_WAIT(priority=0x0B, entity_id=LocalPlayer, tag_num=0x1D)
206: 0x0578 [0x4E] SET_ENTITY_HIDE_FLAG: Show Louverance (ID: 17793109/0x010F8055)
207: 0x057E [0x4E] SET_ENTITY_HIDE_FLAG: Show Ulmia (ID: 17793108/0x010F8054)
208: 0x0584 [0x4E] SET_ENTITY_HIDE_FLAG: Show LocalPlayer
209: 0x058A [0x80] LOAD_WAIT(entity=Louverance (ID: 17793109/0x010F8055))
210: 0x058F [0x80] LOAD_WAIT(entity=Ulmia (ID: 17793108/0x010F8054))
211: 0x0594 [0x80] LOAD_WAIT(entity=LocalPlayer)
212: 0x0599 [0x29] REQ_SET_WAIT(priority=0x0B, entity_id=Door:Weavers' Guild (ID: 17793076/0x010F8034), tag_num=0x02)
213: 0x05A0 [0x79] LocalPlayer looks at Louverance (ID: 17793109/0x010F8055) (Basic look)
214: 0x05AA [0x79] Ulmia (ID: 17793108/0x010F8054) looks at Louverance (ID: 17793109/0x010F8055) (Basic look)
215: 0x05B4 [0x45] LOAD_SCHEDULED_TASK: Load scheduler "s089" with entities [EventEntity, EventEntity], work=[175*, 0*]
216: 0x05C5 [0x45] LOAD_SCHEDULED_TASK: Load scheduler "fdi1" with entities [EventEntity, EventEntity], work=[200*, 0*]
217: 0x05D6 [0x5D] SET_MUSIC_VOLUME(volume=0*, fade_time=900*)
218: 0x05DB [0x1C] WAIT(600* ticks)
219: 0x05DE [0x27] REQ_SET(priority=0x0B, entity_id=Ulmia (ID: 17793108/0x010F8054), tag_num=0x46)
220: 0x05E5 [0x27] REQ_SET(priority=0x0B, entity_id=Louverance (ID: 17793109/0x010F8055), tag_num=0x42)
221: 0x05EC [0x27] REQ_SET(priority=0x0B, entity_id=LocalPlayer, tag_num=0x1E)
222: 0x05F3 [0x52] END_LOAD_SCHEDULER: End scheduler "s089" with entities [EventEntity, EventEntity], work=175*
223: 0x0602 [0x45] LOAD_SCHEDULED_TASK: Load scheduler "ovl1" with entities [LocalPlayer, LocalPlayer], work=[200*, 0*]
224: 0x0613 [0x45] LOAD_SCHEDULED_TASK: Load scheduler "s043" with entities [EventEntity, EventEntity], work=[175*, 0*]
225: 0x0624 [0x1C] WAIT(400* ticks)
226: 0x0627 [0x29] REQ_SET_WAIT(priority=0x0B, entity_id=Door:Weavers' Guild (ID: 17793076/0x010F8034), tag_num=0x03)
227: 0x062E [0x52] END_LOAD_SCHEDULER: End scheduler "s043" with entities [EventEntity, EventEntity], work=175*
228: 0x063D [0x45] LOAD_SCHEDULED_TASK: Load scheduler "ovl1" with entities [LocalPlayer, LocalPlayer], work=[200*, 0*]
229: 0x064E [0x45] LOAD_SCHEDULED_TASK: Load scheduler "s044" with entities [EventEntity, EventEntity], work=[175*, 0*]
230: 0x065F [0x2B] Ulmia (ID: 17793108/0x010F8054) [7368*]:
    → "... Was that some kind of spell...?"
231: 0x0666 [0x23] WAIT_FOR_DIALOG_INTERACTION
232: 0x0667 [0x2A] GET_REQ_LEVEL(level=11, entity_id=LocalPlayer)
233: 0x066D [0x2A] GET_REQ_LEVEL(level=11, entity_id=Ulmia (ID: 17793108/0x010F8054))
234: 0x0673 [0x2B] Louverance (ID: 17793109/0x010F8055) [7369*]:
    → "The Mimeo Mirror is a device known by any self-respecting rogue. It was finally returned to me."
235: 0x067A [0x23] WAIT_FOR_DIALOG_INTERACTION
236: 0x067B [0x2A] GET_REQ_LEVEL(level=11, entity_id=Louverance (ID: 17793109/0x010F8055))
237: 0x0681 [0x52] END_LOAD_SCHEDULER: End scheduler "s044" with entities [EventEntity, EventEntity], work=175*
238: 0x0690 [0x45] LOAD_SCHEDULED_TASK: Load scheduler "s045" with entities [EventEntity, EventEntity], work=[175*, 0*]
239: 0x06A1 [0x79] Louverance (ID: 17793109/0x010F8055) looks at Ulmia (ID: 17793108/0x010F8054) (Basic look)
240: 0x06AB [0x4B] UPDATE_ENTITY_YAW(entity=Louverance (ID: 17793109/0x010F8055), yaw=16.5°*)
241: 0x06B2 [0x6F] WAIT_FRAME_DELAY: Yield until WaitTime reaches zero
242: 0x06B3 [0x76] CHECK_ENTITY_RENDER_FLAGS: Wait until Louverance (ID: 17793109/0x010F8055) Render.Flags0 and Render.Flags3 conditions are met
243: 0x06B8 [0x2B] Louverance (ID: 17793109/0x010F8055) [7370*]:
    → "Ulmia, are you able to sing the verse we just heard?"
244: 0x06BF [0x23] WAIT_FOR_DIALOG_INTERACTION
245: 0x06C0 [0x29] REQ_SET_WAIT(priority=0x08, entity_id=Ulmia (ID: 17793108/0x010F8054), tag_num=0x09)
246: 0x06C7 [0x2B] Ulmia (ID: 17793108/0x010F8054) [7371*]:
    → "But, I...!"
247: 0x06CE [0x23] WAIT_FOR_DIALOG_INTERACTION
248: 0x06CF [0x29] REQ_SET_WAIT(priority=0x08, entity_id=Ulmia (ID: 17793108/0x010F8054), tag_num=0x0A)
249: 0x06D6 [0x52] END_LOAD_SCHEDULER: End scheduler "s045" with entities [EventEntity, EventEntity], work=175*
250: 0x06E5 [0x45] LOAD_SCHEDULED_TASK: Load scheduler "s046" with entities [EventEntity, EventEntity], work=[175*, 0*]
251: 0x06F6 [0x29] REQ_SET_WAIT(priority=0x08, entity_id=Ulmia (ID: 17793108/0x010F8054), tag_num=0x0B)
252: 0x06FD [0x27] REQ_SET(priority=0x0B, entity_id=Louverance (ID: 17793109/0x010F8055), tag_num=0x43)
253: 0x0704 [0x2B] Louverance (ID: 17793109/0x010F8055) [7372*]:
    → "You do have a penchant for expecting the worst, dear Ulmia."
254: 0x070B [0x23] WAIT_FOR_DIALOG_INTERACTION
255: 0x070C [0x2A] GET_REQ_LEVEL(level=11, entity_id=Louverance (ID: 17793109/0x010F8055))
256: 0x0712 [0x29] REQ_SET_WAIT(priority=0x08, entity_id=Louverance (ID: 17793109/0x010F8055), tag_num=0x13)
257: 0x0719 [0x2B] Louverance (ID: 17793109/0x010F8055) [7373*]:
    → "There may not be a need for that melody at all."
258: 0x0720 [0x23] WAIT_FOR_DIALOG_INTERACTION
259: 0x0721 [0x29] REQ_SET_WAIT(priority=0x08, entity_id=Louverance (ID: 17793109/0x010F8055), tag_num=0x14)
260: 0x0728 [0x29] REQ_SET_WAIT(priority=0x08, entity_id=Ulmia (ID: 17793108/0x010F8054), tag_num=0x0C)
261: 0x072F [0x29] REQ_SET_WAIT(priority=0x08, entity_id=Ulmia (ID: 17793108/0x010F8054), tag_num=0x01)
262: 0x0736 [0x2B] Ulmia (ID: 17793108/0x010F8054) [7374*]:
    → "I...!? Why would that be?"
263: 0x073D [0x23] WAIT_FOR_DIALOG_INTERACTION
264: 0x073E [0x29] REQ_SET_WAIT(priority=0x08, entity_id=Ulmia (ID: 17793108/0x010F8054), tag_num=0x02)
265: 0x0745 [0x52] END_LOAD_SCHEDULER: End scheduler "s046" with entities [EventEntity, EventEntity], work=175*
266: 0x0754 [0x45] LOAD_SCHEDULED_TASK: Load scheduler "s047" with entities [EventEntity, EventEntity], work=[175*, 0*]
267: 0x0765 [0x5C] MUSIC_CONTROL: Set Idle (Day) music to song 112*
268: 0x0769 [0x5C] MUSIC_CONTROL: Set Idle (Night) music to song 112*
269: 0x076D [0x2B] Louverance (ID: 17793109/0x010F8055) [7375*]:
    → "Once Lord Bahamut sees Prishe's magicite, it may be enough to convince him. And..."
270: 0x0774 [0x23] WAIT_FOR_DIALOG_INTERACTION
271: 0x0775 [0x29] REQ_SET_WAIT(priority=0x08, entity_id=Louverance (ID: 17793109/0x010F8055), tag_num=0x15)
272: 0x077C [0x2B] Louverance (ID: 17793109/0x010F8055) [7376*]:
    → "And we would not want to lose the Star of Tavnazia..."
273: 0x0783 [0x23] WAIT_FOR_DIALOG_INTERACTION
274: 0x0784 [0x29] REQ_SET_WAIT(priority=0x08, entity_id=Louverance (ID: 17793109/0x010F8055), tag_num=0x16)
275: 0x078B [0x52] END_LOAD_SCHEDULER: End scheduler "s047" with entities [EventEntity, EventEntity], work=175*
276: 0x079A [0x45] LOAD_SCHEDULED_TASK: Load scheduler "s048" with entities [EventEntity, EventEntity], work=[175*, 0*]
277: 0x07AB [0x29] REQ_SET_WAIT(priority=0x08, entity_id=Ulmia (ID: 17793108/0x010F8054), tag_num=0x03)
278: 0x07B2 [0x2B] Ulmia (ID: 17793108/0x010F8054) [7377*]:
    → "...? What do you mean?"
279: 0x07B9 [0x23] WAIT_FOR_DIALOG_INTERACTION
280: 0x07BA [0x29] REQ_SET_WAIT(priority=0x08, entity_id=Ulmia (ID: 17793108/0x010F8054), tag_num=0x04)
281: 0x07C1 [0x52] END_LOAD_SCHEDULER: End scheduler "s048" with entities [EventEntity, EventEntity], work=175*
282: 0x07D0 [0x45] LOAD_SCHEDULED_TASK: Load scheduler "s049" with entities [EventEntity, EventEntity], work=[175*, 0*]
283: 0x07E1 [0x4A] Louverance (ID: 17793109/0x010F8055) looks at Ulmia (ID: 17793108/0x010F8054)
284: 0x07EA [0x6F] WAIT_FRAME_DELAY: Yield until WaitTime reaches zero
285: 0x07EB [0x76] CHECK_ENTITY_RENDER_FLAGS: Wait until Louverance (ID: 17793109/0x010F8055) Render.Flags0 and Render.Flags3 conditions are met
286: 0x07F0 [0x2B] Louverance (ID: 17793109/0x010F8055) [7378*]:
    → "... There is something I would like to ask Prishe. Ulmia, let us meet with her in Jeuno."
287: 0x07F7 [0x23] WAIT_FOR_DIALOG_INTERACTION
288: 0x07F8 [0x29] REQ_SET_WAIT(priority=0x08, entity_id=Louverance (ID: 17793109/0x010F8055), tag_num=0x30)
289: 0x07FF [0x2B] Louverance (ID: 17793109/0x010F8055) [7379*]:
    → "<Player>, please go on ahead to Bastok."
290: 0x0806 [0x23] WAIT_FOR_DIALOG_INTERACTION
291: 0x0807 [0x29] REQ_SET_WAIT(priority=0x08, entity_id=Louverance (ID: 17793109/0x010F8055), tag_num=0x31)
292: 0x080E [0x45] LOAD_SCHEDULED_TASK: Load scheduler "fdo1" with entities [LocalPlayer, LocalPlayer], work=[200*, 0*]
293: 0x081F [0x1C] WAIT(60* ticks)
294: 0x0822 [0x4E] SET_ENTITY_HIDE_FLAG: Show Unknown NPC (ID: 17793088/0x010F8040)
295: 0x0828 [0x52] END_LOAD_SCHEDULER: End scheduler "s049" with entities [EventEntity, EventEntity], work=175*
296: 0x0837 [0x4E] SET_ENTITY_HIDE_FLAG: Show LocalPlayer
297: 0x083D [0x80] LOAD_WAIT(entity=LocalPlayer)
298: 0x0842 [0x46] CAMERA_CONTROL: Restore default settings
299: 0x0844 [0x45] LOAD_SCHEDULED_TASK: Load scheduler "fdi1" with entities [LocalPlayer, LocalPlayer], work=[200*, 0*]
300: 0x0855 [0x20] SET_CLI_EVENT_UC_FLAG: Unlock player control
301: 0x0857 [0x21] END_EVENT
302: 0x0858 [0x00] END_REQSTACK()

SUBROUTINE_08BC:
303: 0x08BC [0x45] LOAD_SCHEDULED_TASK: Load scheduler "fdo1" with entities [LocalPlayer, LocalPlayer], work=[200*, 0*]
304: 0x08CD [0x55] WAIT_LOAD_SCHEDULER: Wait for scheduler "fdo1" with entities [LocalPlayer, LocalPlayer], work=200*
305: 0x08DC [0x1B] RETURN

SUBROUTINE_08DD:
306: 0x08DD [0x45] LOAD_SCHEDULED_TASK: Load scheduler "whi1" with entities [LocalPlayer, LocalPlayer], work=[201*, 0*]
307: 0x08EE [0x55] WAIT_LOAD_SCHEDULER: Wait for scheduler "whi1" with entities [LocalPlayer, LocalPlayer], work=201*
308: 0x08FD [0x1B] RETURN
```

#### Data or dead code:

```
# Dead code (unreachable instructions):
     0x0859 [0x45] LOAD_SCHEDULED_TASK: Load scheduler "fdi0" with entities [LocalPlayer, LocalPlayer], work=[200*, 0*]
     0x086A [0x55] WAIT_LOAD_SCHEDULER: Wait for scheduler "fdi0" with entities [LocalPlayer, LocalPlayer], work=200*
     0x0879 [0x1B] RETURN
     0x087A [0x45] LOAD_SCHEDULED_TASK: Load scheduler "fdo0" with entities [LocalPlayer, LocalPlayer], work=[200*, 0*]
     0x088B [0x55] WAIT_LOAD_SCHEDULER: Wait for scheduler "fdo0" with entities [LocalPlayer, LocalPlayer], work=200*
     0x089A [0x1B] RETURN
     0x089B [0x45] LOAD_SCHEDULED_TASK: Load scheduler "fdi1" with entities [LocalPlayer, LocalPlayer], work=[200*, 0*]
     0x08AC [0x55] WAIT_LOAD_SCHEDULER: Wait for scheduler "fdi1" with entities [LocalPlayer, LocalPlayer], work=200*
     0x08BB [0x1B] RETURN
# Dead code (unreachable instructions):
     0x08FE [0x45] LOAD_SCHEDULED_TASK: Load scheduler "who1" with entities [LocalPlayer, LocalPlayer], work=[201*, 0*]
     0x090F [0x55] WAIT_LOAD_SCHEDULER: Wait for scheduler "who1" with entities [LocalPlayer, LocalPlayer], work=201*
     0x091E [0x1B] RETURN
     0x091F [0x45] LOAD_SCHEDULED_TASK: Load scheduler "who2" with entities [LocalPlayer, LocalPlayer], work=[201*, 0*]
     0x0930 [0x55] WAIT_LOAD_SCHEDULER: Wait for scheduler "who2" with entities [LocalPlayer, LocalPlayer], work=201*
     0x093F [0x1B] RETURN
     0x0940 [0x45] LOAD_SCHEDULED_TASK: Load scheduler "who3" with entities [LocalPlayer, LocalPlayer], work=[201*, 0*]
     0x0951 [0x55] WAIT_LOAD_SCHEDULER: Wait for scheduler "who3" with entities [LocalPlayer, LocalPlayer], work=201*
     0x0960 [0x1B] RETURN
     0x0961 [0x62] LOAD_EVENT_SCHEDULER: Load scheduler "main" with entities [LocalPlayer, LocalPlayer], work=[1*, 0*]
     0x0972 [0x1C] WAIT(45* ticks)
     0x0975 [0x45] LOAD_SCHEDULED_TASK: Load scheduler "fdo1" with entities [LocalPlayer, LocalPlayer], work=[200*, 0*]
     0x0986 [0x55] WAIT_LOAD_SCHEDULER: Wait for scheduler "fdo1" with entities [LocalPlayer, LocalPlayer], work=200*
     0x0995 [0x1B] RETURN
     0x0996 [0x45] LOAD_SCHEDULED_TASK: Load scheduler "fdi1" with entities [LocalPlayer, LocalPlayer], work=[200*, 0*]
     0x09A7 [0x62] LOAD_EVENT_SCHEDULER: Load scheduler "main" with entities [LocalPlayer, LocalPlayer], work=[2*, 0*]
     0x09B8 [0x1C] WAIT(30* ticks)
     0x09BB [0x55] WAIT_LOAD_SCHEDULER: Wait for scheduler "fdi1" with entities [LocalPlayer, LocalPlayer], work=200*
     0x09CA [0x1B] RETURN
     0x09CB [0x45] LOAD_SCHEDULED_TASK: Load scheduler "blon" with entities [LocalPlayer, LocalPlayer], work=[200*, 0*]
     0x09DC [0x45] LOAD_SCHEDULED_TASK: Load scheduler "blon" with entities [LocalPlayer, LocalPlayer], work=[201*, 0*]
     0x09ED [0x1B] RETURN
     0x09EE [0x45] LOAD_SCHEDULED_TASK: Load scheduler "whi0" with entities [LocalPlayer, LocalPlayer], work=[201*, 0*]
     0x09FF [0x55] WAIT_LOAD_SCHEDULER: Wait for scheduler "whi0" with entities [LocalPlayer, LocalPlayer], work=201*
     0x0A0E [0x1B] RETURN
     0x0A0F [0x45] LOAD_SCHEDULED_TASK: Load scheduler "who0" with entities [LocalPlayer, LocalPlayer], work=[201*, 0*]
     0x0A20 [0x55] WAIT_LOAD_SCHEDULER: Wait for scheduler "who0" with entities [LocalPlayer, LocalPlayer], work=201*
     0x0A2F [0x1B] RETURN
     0x0A30 [0x45] LOAD_SCHEDULED_TASK: Load scheduler "efon" with entities [LocalPlayer, LocalPlayer], work=[215*, 0*]
     0x0A41 [0x55] WAIT_LOAD_SCHEDULER: Wait for scheduler "efon" with entities [LocalPlayer, LocalPlayer], work=215*
     0x0A50 [0x1B] RETURN
     0x0A51 [0x45] LOAD_SCHEDULED_TASK: Load scheduler "fdis" with entities [LocalPlayer, LocalPlayer], work=[200*, 0*]
     0x0A62 [0x1B] RETURN
     0x0A63 [0x45] LOAD_SCHEDULED_TASK: Load scheduler "fdos" with entities [LocalPlayer, LocalPlayer], work=[200*, 0*]
     0x0A74 [0x55] WAIT_LOAD_SCHEDULER: Wait for scheduler "fdos" with entities [LocalPlayer, LocalPlayer], work=200*
     0x0A83 [0x1B] RETURN
     0x0A84 [0x45] LOAD_SCHEDULED_TASK: Load scheduler "fdif" with entities [LocalPlayer, LocalPlayer], work=[200*, 0*]
     0x0A95 [0x1B] RETURN
     0x0A96 [0x45] LOAD_SCHEDULED_TASK: Load scheduler "fdof" with entities [LocalPlayer, LocalPlayer], work=[200*, 0*]
     0x0AA7 [0x55] WAIT_LOAD_SCHEDULER: Wait for scheduler "fdof" with entities [LocalPlayer, LocalPlayer], work=200*
     0x0AB6 [0x1B] RETURN
     0x0AB7 [0x45] LOAD_SCHEDULED_TASK: Load scheduler "fdip" with entities [LocalPlayer, LocalPlayer], work=[200*, 0*]
     0x0AC8 [0x1B] RETURN
     0x0AC9 [0x45] LOAD_SCHEDULED_TASK: Load scheduler "fdop" with entities [LocalPlayer, LocalPlayer], work=[200*, 0*]
     0x0ADA [0x55] WAIT_LOAD_SCHEDULER: Wait for scheduler "fdop" with entities [LocalPlayer, LocalPlayer], work=200*
     0x0AE9 [0x1B] RETURN
```

### Event 1104

#### Metadata

| Field        | Value     |
|--------------|-----------|
| Entrypoint   | 0x0AEA    |
| Data Size    | 735 bytes |
| Instructions | 107       |

```
      00 01 02 03 04 05 06 07  08 09 0A 0B 0C 0D 0E 0F
      -- -- -- -- -- -- -- --  -- -- -- -- -- -- -- --
0AE0:                                20 01 42 46 01 5D             .BF.]
0AF0: 00 80 01 80 45 02 80 F8  FF FF 7F F8 FF FF 7F 66  ....E..........f
0B00: 64 6F 31 00 80 1C 01 80  38 03 80 29 08 F0 FF FF  do1.....8..)....
0B10: 7F 19 75 00 3C 80 75 01  29 0B F0 FF FF 7F 1F 4E  ..u.<.u.)......N
0B20: 00 0F 80 0F 01 80 0F 80  0F 01 4A 0F 80 0F 01 F0  ..........J.....
0B30: FF FF 7F 4A F0 FF FF 7F  0F 80 0F 01 6F 76 0F 80  ...J........ov..
0B40: 0F 01 6F 76 F0 FF FF 7F  92 01 0F 80 0F 01 5C 00  ..ov..........\.
0B50: 3D 80 5C 01 3D 80 45 3E  80 F8 FF FF 7F F8 FF FF  =.\.=.E>........
0B60: 7F 73 30 31 38 00 80 45  02 80 F8 FF FF 7F F8 FF  .s018..E........
0B70: FF 7F 66 64 69 31 00 80  29 08 0F 80 0F 01 13 2B  ..fdi1..)......+
0B80: 0F 80 0F 01 3F 80 23 29  08 0F 80 0F 01 14 29 08  ....?.#)......).
0B90: 0F 80 0F 01 15 2B 0F 80  0F 01 40 80 23 29 08 0F  .....+....@.#)..
0BA0: 80 0F 01 16 52 3E 80 F8  FF FF 7F F8 FF FF 7F 73  ....R>.........s
0BB0: 30 31 38 45 3E 80 F8 FF  FF 7F F8 FF FF 7F 73 30  018E>.........s0
0BC0: 31 39 00 80 4B 0F 80 0F  01 41 80 6F 76 0F 80 0F  19..K....A.ov...
0BD0: 01 29 08 0F 80 0F 01 0F  2B 0F 80 0F 01 42 80 23  .)......+....B.#
0BE0: 2B 0F 80 0F 01 43 80 23  29 08 0F 80 0F 01 10 52  +....C.#)......R
0BF0: 3E 80 F8 FF FF 7F F8 FF  FF 7F 73 30 31 39 02 09  >.........s019..
0C00: 10 44 80 00 1A 0C 45 3E  80 F8 FF FF 7F F8 FF FF  .D....E>........
0C10: 7F 73 30 32 33 00 80 01  47 0C 02 09 10 1E 80 00  .s023...G.......
0C20: 36 0C 45 3E 80 F8 FF FF  7F F8 FF FF 7F 73 30 32  6.E>.........s02
0C30: 33 00 80 01 47 0C 45 3E  80 F8 FF FF 7F F8 FF FF  3...G.E>........
0C40: 7F 73 30 32 30 00 80 29  08 0F 80 0F 01 11 29 08  .s020..)......).
0C50: 0F 80 0F 01 12 4A 0F 80  0F 01 F0 FF FF 7F 02 08  .....J..........
0C60: 10 20 80 00 71 0C 2B 0F  80 0F 01 45 80 23 01 79  . ..q.+....E.#.y
0C70: 0C 2B 0F 80 0F 01 46 80  23 6F 76 0F 80 0F 01 29  .+....F.#ov....)
0C80: 08 0F 80 0F 01 13 2B 0F  80 0F 01 47 80 23 2B 0F  ......+....G.#+.
0C90: 80 0F 01 48 80 23 29 08  0F 80 0F 01 14 02 09 10  ...H.#).........
0CA0: 44 80 00 B7 0C 52 3E 80  F8 FF FF 7F F8 FF FF 7F  D....R>.........
0CB0: 73 30 32 33 01 E0 0C 02  09 10 1E 80 00 D1 0C 52  s023...........R
0CC0: 3E 80 F8 FF FF 7F F8 FF  FF 7F 73 30 32 33 01 E0  >.........s023..
0CD0: 0C 52 3E 80 F8 FF FF 7F  F8 FF FF 7F 73 30 32 30  .R>.........s020
0CE0: 45 02 80 F0 FF FF 7F F0  FF FF 7F 6F 76 6C 31 00  E..........ovl1.
0CF0: 80 45 3E 80 F8 FF FF 7F  F8 FF FF 7F 73 30 32 32  .E>.........s022
0D00: 00 80 2B 0F 80 0F 01 49  80 23 2B 0F 80 0F 01 4A  ..+....I.#+....J
0D10: 80 23 52 3E 80 F8 FF FF  7F F8 FF FF 7F 73 30 32  .#R>.........s02
0D20: 32 45 02 80 F0 FF FF 7F  F0 FF FF 7F 6F 76 6C 31  2E..........ovl1
0D30: 00 80 45 3E 80 F8 FF FF  7F F8 FF FF 7F 73 30 32  ..E>.........s02
0D40: 31 00 80 29 08 0F 80 0F  01 0F 2B 0F 80 0F 01 4B  1..)......+....K
0D50: 80 23 2B 0F 80 0F 01 4C  80 23 29 08 0F 80 0F 01  .#+....L.#).....
0D60: 10 52 3E 80 F8 FF FF 7F  F8 FF FF 7F 73 30 32 31  .R>.........s021
0D70: 29 08 0F 80 0F 01 19 2B  0F 80 0F 01 4D 80 23 29  )......+....M.#)
0D80: 08 0F 80 0F 01 1A 5D 00  80 01 80 45 02 80 F0 FF  ......]....E....
0D90: FF 7F F0 FF FF 7F 66 64  6F 31 00 80 1C 01 80 4E  ......fdo1.....N
0DA0: 00 F0 FF FF 7F 80 F0 FF  FF 7F 46 00 5C 00 34 80  ..........F.\.4.
0DB0: 5C 01 34 80 45 02 80 F0  FF FF 7F F0 FF FF 7F 66  \.4.E..........f
0DC0: 64 69 31 00 80 20 00 21  00                       di1.. .!.       
```

#### Opcodes

```
  0: 0x0AEA [0x20] SET_CLI_EVENT_UC_FLAG: Lock player control
  1: 0x0AEC [0x42] SET_CLI_EVENT_CANCEL_DATA()
  2: 0x0AED [0x46] CAMERA_CONTROL: Disable user control
  3: 0x0AEF [0x5D] SET_MUSIC_VOLUME(volume=0*, fade_time=120*)
  4: 0x0AF4 [0x45] LOAD_SCHEDULED_TASK: Load scheduler "fdo1" with entities [EventEntity, EventEntity], work=[200*, 0*]
  5: 0x0B05 [0x1C] WAIT(120* ticks)
  6: 0x0B08 [0x38] SET_CLIENT_EVENT_MODE(mode=19*)
  7: 0x0B0B [0x29] REQ_SET_WAIT(priority=0x08, entity_id=LocalPlayer, tag_num=0x19)
  8: 0x0B12 [0x75] LOAD_ROOM(Load indoor room, room=484*)
  9: 0x0B16 [0x75] LOAD_ROOM(No action)
 10: 0x0B18 [0x29] REQ_SET_WAIT(priority=0x0B, entity_id=LocalPlayer, tag_num=0x1F)
 11: 0x0B1F [0x4E] SET_ENTITY_HIDE_FLAG: Show Abelard (ID: 17793039/0x010F800F)
 12: 0x0B25 [0x80] LOAD_WAIT(entity=Abelard (ID: 17793039/0x010F800F))
 13: 0x0B2A [0x4A] Abelard (ID: 17793039/0x010F800F) looks at LocalPlayer
 14: 0x0B33 [0x4A] LocalPlayer looks at Abelard (ID: 17793039/0x010F800F)
 15: 0x0B3C [0x6F] WAIT_FRAME_DELAY: Yield until WaitTime reaches zero
 16: 0x0B3D [0x76] CHECK_ENTITY_RENDER_FLAGS: Wait until Abelard (ID: 17793039/0x010F800F) Render.Flags0 and Render.Flags3 conditions are met
 17: 0x0B42 [0x6F] WAIT_FRAME_DELAY: Yield until WaitTime reaches zero
 18: 0x0B43 [0x76] CHECK_ENTITY_RENDER_FLAGS: Wait until LocalPlayer Render.Flags0 and Render.Flags3 conditions are met
 19: 0x0B48 [0x92] Abelard (ID: 17793039/0x010F800F)->Render.Flags3 ^= 0x01
 20: 0x0B4E [0x5C] MUSIC_CONTROL: Set Idle (Day) music to song 163*
 21: 0x0B52 [0x5C] MUSIC_CONTROL: Set Idle (Night) music to song 163*
 22: 0x0B56 [0x45] LOAD_SCHEDULED_TASK: Load scheduler "s018" with entities [EventEntity, EventEntity], work=[24*, 0*]
 23: 0x0B67 [0x45] LOAD_SCHEDULED_TASK: Load scheduler "fdi1" with entities [EventEntity, EventEntity], work=[200*, 0*]
 24: 0x0B78 [0x29] REQ_SET_WAIT(priority=0x08, entity_id=Abelard (ID: 17793039/0x010F800F), tag_num=0x13)
 25: 0x0B7F [0x2B] Abelard (ID: 17793039/0x010F800F) [7381*]:
    → "I'm Abelard, mayor of this village."
 26: 0x0B86 [0x23] WAIT_FOR_DIALOG_INTERACTION
 27: 0x0B87 [0x29] REQ_SET_WAIT(priority=0x08, entity_id=Abelard (ID: 17793039/0x010F800F), tag_num=0x14)
 28: 0x0B8E [0x29] REQ_SET_WAIT(priority=0x08, entity_id=Abelard (ID: 17793039/0x010F800F), tag_num=0x15)
 29: 0x0B95 [0x2B] Abelard (ID: 17793039/0x010F800F) [7382*]:
    → "You say you're looking for Lady Leffine?"
 30: 0x0B9C [0x23] WAIT_FOR_DIALOG_INTERACTION
 31: 0x0B9D [0x29] REQ_SET_WAIT(priority=0x08, entity_id=Abelard (ID: 17793039/0x010F800F), tag_num=0x16)
 32: 0x0BA4 [0x52] END_LOAD_SCHEDULER: End scheduler "s018" with entities [EventEntity, EventEntity], work=24*
 33: 0x0BB3 [0x45] LOAD_SCHEDULED_TASK: Load scheduler "s019" with entities [EventEntity, EventEntity], work=[24*, 0*]
 34: 0x0BC4 [0x4B] UPDATE_ENTITY_YAW(entity=Abelard (ID: 17793039/0x010F800F), yaw=0.8°*)
 35: 0x0BCB [0x6F] WAIT_FRAME_DELAY: Yield until WaitTime reaches zero
 36: 0x0BCC [0x76] CHECK_ENTITY_RENDER_FLAGS: Wait until Abelard (ID: 17793039/0x010F800F) Render.Flags0 and Render.Flags3 conditions are met
 37: 0x0BD1 [0x29] REQ_SET_WAIT(priority=0x08, entity_id=Abelard (ID: 17793039/0x010F800F), tag_num=0x0F)
 38: 0x0BD8 [0x2B] Abelard (ID: 17793039/0x010F800F) [7383*]:
    → "You're not the first to ask that question, but I'm sorry to say there's no one here by that name."
 39: 0x0BDF [0x23] WAIT_FOR_DIALOG_INTERACTION
 40: 0x0BE0 [0x2B] Abelard (ID: 17793039/0x010F800F) [7384*]:
    → "Even if you've been requested to do so, you shouldn't be poking around into other people's pasts."
 41: 0x0BE7 [0x23] WAIT_FOR_DIALOG_INTERACTION
 42: 0x0BE8 [0x29] REQ_SET_WAIT(priority=0x08, entity_id=Abelard (ID: 17793039/0x010F800F), tag_num=0x10)
 43: 0x0BEF [0x52] END_LOAD_SCHEDULER: End scheduler "s019" with entities [EventEntity, EventEntity], work=24*
 44: 0x0BFE [0x02] IF !(Work_Zone[9] == 5*) GOTO 0x0C1A
 45: 0x0C06 [0x45] LOAD_SCHEDULED_TASK: Load scheduler "s023" with entities [EventEntity, EventEntity], work=[24*, 0*]
 46: 0x0C17 [0x01] GOTO 0x0C47
 47: 0x0C1A [0x02] IF !(Work_Zone[9] == 6*) GOTO 0x0C36
 48: 0x0C22 [0x45] LOAD_SCHEDULED_TASK: Load scheduler "s023" with entities [EventEntity, EventEntity], work=[24*, 0*]
 49: 0x0C33 [0x01] GOTO 0x0C47
 50: 0x0C36 [0x45] LOAD_SCHEDULED_TASK: Load scheduler "s020" with entities [EventEntity, EventEntity], work=[24*, 0*]

SUBROUTINE_0C47:
 51: 0x0C47 [0x29] REQ_SET_WAIT(priority=0x08, entity_id=Abelard (ID: 17793039/0x010F800F), tag_num=0x11)
 52: 0x0C4E [0x29] REQ_SET_WAIT(priority=0x08, entity_id=Abelard (ID: 17793039/0x010F800F), tag_num=0x12)
 53: 0x0C55 [0x4A] Abelard (ID: 17793039/0x010F800F) looks at LocalPlayer
 54: 0x0C5E [0x02] IF !(Work_Zone[8] == 1*) GOTO 0x0C71
 55: 0x0C66 [0x2B] Abelard (ID: 17793039/0x010F800F) [7385*]:
    → "What's that? So why am I trying to find out about Gwynham Ironheart, you ask?"
 56: 0x0C6D [0x23] WAIT_FOR_DIALOG_INTERACTION
 57: 0x0C6E [0x01] GOTO 0x0C79
 58: 0x0C71 [0x2B] Abelard (ID: 17793039/0x010F800F) [7386*]:
    → "Sure, I've been doing research into Ironheart's past, but..."
 59: 0x0C78 [0x23] WAIT_FOR_DIALOG_INTERACTION

SUBROUTINE_0C79:
 60: 0x0C79 [0x6F] WAIT_FRAME_DELAY: Yield until WaitTime reaches zero
 61: 0x0C7A [0x76] CHECK_ENTITY_RENDER_FLAGS: Wait until Abelard (ID: 17793039/0x010F800F) Render.Flags0 and Render.Flags3 conditions are met
 62: 0x0C7F [0x29] REQ_SET_WAIT(priority=0x08, entity_id=Abelard (ID: 17793039/0x010F800F), tag_num=0x13)
 63: 0x0C86 [0x2B] Abelard (ID: 17793039/0x010F800F) [7387*]:
    → "That's not the same thing, [sonny/lass]. I haven't got the slightest interest in his private life."
 64: 0x0C8D [0x23] WAIT_FOR_DIALOG_INTERACTION
 65: 0x0C8E [0x2B] Abelard (ID: 17793039/0x010F800F) [7388*]:
    → "I already know all there is to know about him, in any case."
 66: 0x0C95 [0x23] WAIT_FOR_DIALOG_INTERACTION
 67: 0x0C96 [0x29] REQ_SET_WAIT(priority=0x08, entity_id=Abelard (ID: 17793039/0x010F800F), tag_num=0x14)
 68: 0x0C9D [0x02] IF !(Work_Zone[9] == 5*) GOTO 0x0CB7
 69: 0x0CA5 [0x52] END_LOAD_SCHEDULER: End scheduler "s023" with entities [EventEntity, EventEntity], work=24*
 70: 0x0CB4 [0x01] GOTO 0x0CE0
 71: 0x0CB7 [0x02] IF !(Work_Zone[9] == 6*) GOTO 0x0CD1
 72: 0x0CBF [0x52] END_LOAD_SCHEDULER: End scheduler "s023" with entities [EventEntity, EventEntity], work=24*
 73: 0x0CCE [0x01] GOTO 0x0CE0
 74: 0x0CD1 [0x52] END_LOAD_SCHEDULER: End scheduler "s020" with entities [EventEntity, EventEntity], work=24*

SUBROUTINE_0CE0:
 75: 0x0CE0 [0x45] LOAD_SCHEDULED_TASK: Load scheduler "ovl1" with entities [LocalPlayer, LocalPlayer], work=[200*, 0*]
 76: 0x0CF1 [0x45] LOAD_SCHEDULED_TASK: Load scheduler "s022" with entities [EventEntity, EventEntity], work=[24*, 0*]
 77: 0x0D02 [0x2B] Abelard (ID: 17793039/0x010F800F) [7389*]:
    → "Have you heard of Lord Torresapet B Ordelle? It was feared he would die a demented death in Ordelle's Caves before he completed the map of those twisted tunnels."
 78: 0x0D09 [0x23] WAIT_FOR_DIALOG_INTERACTION
 79: 0x0D0A [0x2B] Abelard (ID: 17793039/0x010F800F) [7390*]:
    → "He gathered the facts about Gwynham Ironheart's life into a single volume. I have the book right there."
 80: 0x0D11 [0x23] WAIT_FOR_DIALOG_INTERACTION
 81: 0x0D12 [0x52] END_LOAD_SCHEDULER: End scheduler "s022" with entities [EventEntity, EventEntity], work=24*
 82: 0x0D21 [0x45] LOAD_SCHEDULED_TASK: Load scheduler "ovl1" with entities [LocalPlayer, LocalPlayer], work=[200*, 0*]
 83: 0x0D32 [0x45] LOAD_SCHEDULED_TASK: Load scheduler "s021" with entities [EventEntity, EventEntity], work=[24*, 0*]
 84: 0x0D43 [0x29] REQ_SET_WAIT(priority=0x08, entity_id=Abelard (ID: 17793039/0x010F800F), tag_num=0x0F)
 85: 0x0D4A [0x2B] Abelard (ID: 17793039/0x010F800F) [7391*]:
    → "It's just that... Before that book came into my possession, Gwynham's daughter, Enid, tore out several pages and threw them away."
 86: 0x0D51 [0x23] WAIT_FOR_DIALOG_INTERACTION
 87: 0x0D52 [0x2B] Abelard (ID: 17793039/0x010F800F) [7392*]:
    → "I'm curious as to what was written on those pages, but I suppose there's a reason Enid removed them in the first place."
 88: 0x0D59 [0x23] WAIT_FOR_DIALOG_INTERACTION
 89: 0x0D5A [0x29] REQ_SET_WAIT(priority=0x08, entity_id=Abelard (ID: 17793039/0x010F800F), tag_num=0x10)
 90: 0x0D61 [0x52] END_LOAD_SCHEDULER: End scheduler "s021" with entities [EventEntity, EventEntity], work=24*
 91: 0x0D70 [0x29] REQ_SET_WAIT(priority=0x08, entity_id=Abelard (ID: 17793039/0x010F800F), tag_num=0x19)
 92: 0x0D77 [0x2B] Abelard (ID: 17793039/0x010F800F) [7393*]:
    → "I guess I should respect that. Besides, I doubt anyone could find them anyway..."
 93: 0x0D7E [0x23] WAIT_FOR_DIALOG_INTERACTION
 94: 0x0D7F [0x29] REQ_SET_WAIT(priority=0x08, entity_id=Abelard (ID: 17793039/0x010F800F), tag_num=0x1A)
 95: 0x0D86 [0x5D] SET_MUSIC_VOLUME(volume=0*, fade_time=120*)
 96: 0x0D8B [0x45] LOAD_SCHEDULED_TASK: Load scheduler "fdo1" with entities [LocalPlayer, LocalPlayer], work=[200*, 0*]
 97: 0x0D9C [0x1C] WAIT(120* ticks)
 98: 0x0D9F [0x4E] SET_ENTITY_HIDE_FLAG: Show LocalPlayer
 99: 0x0DA5 [0x80] LOAD_WAIT(entity=LocalPlayer)
100: 0x0DAA [0x46] CAMERA_CONTROL: Restore default settings
101: 0x0DAC [0x5C] MUSIC_CONTROL: Set Idle (Day) music to song 112*
102: 0x0DB0 [0x5C] MUSIC_CONTROL: Set Idle (Night) music to song 112*
103: 0x0DB4 [0x45] LOAD_SCHEDULED_TASK: Load scheduler "fdi1" with entities [LocalPlayer, LocalPlayer], work=[200*, 0*]
104: 0x0DC5 [0x20] SET_CLI_EVENT_UC_FLAG: Unlock player control
105: 0x0DC7 [0x21] END_EVENT
106: 0x0DC8 [0x00] END_REQSTACK()
```

### Event 1106

#### Metadata

| Field        | Value     |
|--------------|-----------|
| Entrypoint   | 0x0DC9    |
| Data Size    | 854 bytes |
| Instructions | 116       |

```
      00 01 02 03 04 05 06 07  08 09 0A 0B 0C 0D 0E 0F
      -- -- -- -- -- -- -- --  -- -- -- -- -- -- -- --
0DC0:                             20 01 42 46 01 5D 00            .BF.].
0DD0: 80 01 80 45 02 80 F8 FF  FF 7F F8 FF FF 7F 66 64  ...E..........fd
0DE0: 6F 31 00 80 1C 01 80 38  03 80 29 08 F0 FF FF 7F  o1.....8..).....
0DF0: 19 75 00 3C 80 75 01 29  0B F0 FF FF 7F 1F 4E 00  .u.<.u.)......N.
0E00: 0F 80 0F 01 80 0F 80 0F  01 4A 0F 80 0F 01 F0 FF  .........J......
0E10: FF 7F 4A F0 FF FF 7F 0F  80 0F 01 6F 76 0F 80 0F  ..J........ov...
0E20: 01 6F 76 F0 FF FF 7F 92  01 0F 80 0F 01 5C 00 4E  .ov..........\.N
0E30: 80 5C 01 4E 80 02 09 10  44 80 00 51 0E 45 3E 80  .\.N....D..Q.E>.
0E40: F8 FF FF 7F F8 FF FF 7F  73 30 32 33 00 80 01 7E  ........s023...~
0E50: 0E 02 09 10 1E 80 00 6D  0E 45 3E 80 F8 FF FF 7F  .......m.E>.....
0E60: F8 FF FF 7F 73 30 32 33  00 80 01 7E 0E 45 3E 80  ....s023...~.E>.
0E70: F8 FF FF 7F F8 FF FF 7F  73 30 32 30 00 80 45 02  ........s020..E.
0E80: 80 F8 FF FF 7F F8 FF FF  7F 66 64 69 31 00 80 29  .........fdi1..)
0E90: 08 0F 80 0F 01 13 2B 0F  80 0F 01 4F 80 23 29 08  ......+....O.#).
0EA0: 0F 80 0F 01 14 02 09 10  44 80 00 BF 0E 52 3E 80  ........D....R>.
0EB0: F8 FF FF 7F F8 FF FF 7F  73 30 32 33 01 E8 0E 02  ........s023....
0EC0: 09 10 1E 80 00 D9 0E 52  3E 80 F8 FF FF 7F F8 FF  .......R>.......
0ED0: FF 7F 73 30 32 33 01 E8  0E 52 3E 80 F8 FF FF 7F  ..s023...R>.....
0EE0: F8 FF FF 7F 73 30 32 30  45 3E 80 F8 FF FF 7F F8  ....s020E>......
0EF0: FF FF 7F 73 30 32 31 00  80 7B 0F 80 0F 01 29 08  ...s021..{....).
0F00: 0F 80 0F 01 0F 2B 0F 80  0F 01 50 80 23 2B 0F 80  .....+....P.#+..
0F10: 0F 01 51 80 23 29 08 0F  80 0F 01 10 52 3E 80 F8  ..Q.#)......R>..
0F20: FF FF 7F F8 FF FF 7F 73  30 32 31 45 3E 80 F8 FF  .......s021E>...
0F30: FF 7F F8 FF FF 7F 73 30  32 34 00 80 79 00 0F 80  ......s024..y...
0F40: 0F 01 F0 FF FF 7F 29 08  0F 80 0F 01 11 2B 0F 80  ......)......+..
0F50: 0F 01 52 80 23 29 08 0F  80 0F 01 12 29 08 0F 80  ..R.#)......)...
0F60: 0F 01 13 2B 0F 80 0F 01  53 80 23 29 08 0F 80 0F  ...+....S.#)....
0F70: 01 14 52 3E 80 F8 FF FF  7F F8 FF FF 7F 73 30 32  ..R>.........s02
0F80: 34 45 02 80 F0 FF FF 7F  F0 FF FF 7F 6F 76 6C 31  4E..........ovl1
0F90: 00 80 45 3E 80 F8 FF FF  7F F8 FF FF 7F 73 30 32  ..E>.........s02
0FA0: 35 00 80 29 08 0F 80 0F  01 0F 2B 0F 80 0F 01 54  5..)......+....T
0FB0: 80 23 2B 0F 80 0F 01 55  80 23 29 08 0F 80 0F 01  .#+....U.#).....
0FC0: 10 52 3E 80 F8 FF FF 7F  F8 FF FF 7F 73 30 32 35  .R>.........s025
0FD0: 02 09 10 44 80 00 EC 0F  45 3E 80 F8 FF FF 7F F8  ...D....E>......
0FE0: FF FF 7F 73 30 32 33 00  80 01 19 10 02 09 10 1E  ...s023.........
0FF0: 80 00 08 10 45 3E 80 F8  FF FF 7F F8 FF FF 7F 73  ....E>.........s
1000: 30 32 33 00 80 01 19 10  45 3E 80 F8 FF FF 7F F8  023.....E>......
1010: FF FF 7F 73 30 32 30 00  80 29 08 0F 80 0F 01 11  ...s020..)......
1020: 29 08 0F 80 0F 01 12 29  08 0F 80 0F 01 17 2B 0F  )......)......+.
1030: 80 0F 01 56 80 23 2B 0F  80 0F 01 57 80 23 29 08  ...V.#+....W.#).
1040: 0F 80 0F 01 18 02 09 10  44 80 00 5F 10 52 3E 80  ........D.._.R>.
1050: F8 FF FF 7F F8 FF FF 7F  73 30 32 33 01 88 10 02  ........s023....
1060: 09 10 1E 80 00 79 10 52  3E 80 F8 FF FF 7F F8 FF  .....y.R>.......
1070: FF 7F 73 30 32 33 01 88  10 52 3E 80 F8 FF FF 7F  ..s023...R>.....
1080: F8 FF FF 7F 73 30 32 30  45 3E 80 F8 FF FF 7F F8  ....s020E>......
1090: FF FF 7F 73 30 32 31 00  80 29 08 0F 80 0F 01 19  ...s021..)......
10A0: 2B 0F 80 0F 01 58 80 23  29 08 0F 80 0F 01 1A 29  +....X.#)......)
10B0: 08 0F 80 0F 01 13 2B 0F  80 0F 01 59 80 23 2B 0F  ......+....Y.#+.
10C0: 80 0F 01 5A 80 23 5D 00  80 01 80 45 02 80 F0 FF  ...Z.#]....E....
10D0: FF 7F F0 FF FF 7F 66 64  6F 31 00 80 1C 01 80 29  ......fdo1.....)
10E0: 08 0F 80 0F 01 14 52 3E  80 F8 FF FF 7F F8 FF FF  ......R>........
10F0: 7F 73 30 32 31 4E 00 F0  FF FF 7F 80 F0 FF FF 7F  .s021N..........
1100: 46 00 5C 00 34 80 5C 01  34 80 45 02 80 F0 FF FF  F.\.4.\.4.E.....
1110: 7F F0 FF FF 7F 66 64 69  31 00 80 20 00 21 00     .....fdi1.. .!. 
```

#### Opcodes

```
  0: 0x0DC9 [0x20] SET_CLI_EVENT_UC_FLAG: Lock player control
  1: 0x0DCB [0x42] SET_CLI_EVENT_CANCEL_DATA()
  2: 0x0DCC [0x46] CAMERA_CONTROL: Disable user control
  3: 0x0DCE [0x5D] SET_MUSIC_VOLUME(volume=0*, fade_time=120*)
  4: 0x0DD3 [0x45] LOAD_SCHEDULED_TASK: Load scheduler "fdo1" with entities [EventEntity, EventEntity], work=[200*, 0*]
  5: 0x0DE4 [0x1C] WAIT(120* ticks)
  6: 0x0DE7 [0x38] SET_CLIENT_EVENT_MODE(mode=19*)
  7: 0x0DEA [0x29] REQ_SET_WAIT(priority=0x08, entity_id=LocalPlayer, tag_num=0x19)
  8: 0x0DF1 [0x75] LOAD_ROOM(Load indoor room, room=484*)
  9: 0x0DF5 [0x75] LOAD_ROOM(No action)
 10: 0x0DF7 [0x29] REQ_SET_WAIT(priority=0x0B, entity_id=LocalPlayer, tag_num=0x1F)
 11: 0x0DFE [0x4E] SET_ENTITY_HIDE_FLAG: Show Abelard (ID: 17793039/0x010F800F)
 12: 0x0E04 [0x80] LOAD_WAIT(entity=Abelard (ID: 17793039/0x010F800F))
 13: 0x0E09 [0x4A] Abelard (ID: 17793039/0x010F800F) looks at LocalPlayer
 14: 0x0E12 [0x4A] LocalPlayer looks at Abelard (ID: 17793039/0x010F800F)
 15: 0x0E1B [0x6F] WAIT_FRAME_DELAY: Yield until WaitTime reaches zero
 16: 0x0E1C [0x76] CHECK_ENTITY_RENDER_FLAGS: Wait until Abelard (ID: 17793039/0x010F800F) Render.Flags0 and Render.Flags3 conditions are met
 17: 0x0E21 [0x6F] WAIT_FRAME_DELAY: Yield until WaitTime reaches zero
 18: 0x0E22 [0x76] CHECK_ENTITY_RENDER_FLAGS: Wait until LocalPlayer Render.Flags0 and Render.Flags3 conditions are met
 19: 0x0E27 [0x92] Abelard (ID: 17793039/0x010F800F)->Render.Flags3 ^= 0x01
 20: 0x0E2D [0x5C] MUSIC_CONTROL: Set Idle (Day) music to song 234*
 21: 0x0E31 [0x5C] MUSIC_CONTROL: Set Idle (Night) music to song 234*
 22: 0x0E35 [0x02] IF !(Work_Zone[9] == 5*) GOTO 0x0E51
 23: 0x0E3D [0x45] LOAD_SCHEDULED_TASK: Load scheduler "s023" with entities [EventEntity, EventEntity], work=[24*, 0*]
 24: 0x0E4E [0x01] GOTO 0x0E7E
 25: 0x0E51 [0x02] IF !(Work_Zone[9] == 6*) GOTO 0x0E6D
 26: 0x0E59 [0x45] LOAD_SCHEDULED_TASK: Load scheduler "s023" with entities [EventEntity, EventEntity], work=[24*, 0*]
 27: 0x0E6A [0x01] GOTO 0x0E7E
 28: 0x0E6D [0x45] LOAD_SCHEDULED_TASK: Load scheduler "s020" with entities [EventEntity, EventEntity], work=[24*, 0*]

SUBROUTINE_0E7E:
 29: 0x0E7E [0x45] LOAD_SCHEDULED_TASK: Load scheduler "fdi1" with entities [EventEntity, EventEntity], work=[200*, 0*]
 30: 0x0E8F [0x29] REQ_SET_WAIT(priority=0x08, entity_id=Abelard (ID: 17793039/0x010F800F), tag_num=0x13)
 31: 0x0E96 [0x2B] Abelard (ID: 17793039/0x010F800F) [7394*]:
    → "Th-these are the missing pages! Where did you find them!?"
 32: 0x0E9D [0x23] WAIT_FOR_DIALOG_INTERACTION
 33: 0x0E9E [0x29] REQ_SET_WAIT(priority=0x08, entity_id=Abelard (ID: 17793039/0x010F800F), tag_num=0x14)
 34: 0x0EA5 [0x02] IF !(Work_Zone[9] == 5*) GOTO 0x0EBF
 35: 0x0EAD [0x52] END_LOAD_SCHEDULER: End scheduler "s023" with entities [EventEntity, EventEntity], work=24*
 36: 0x0EBC [0x01] GOTO 0x0EE8
 37: 0x0EBF [0x02] IF !(Work_Zone[9] == 6*) GOTO 0x0ED9
 38: 0x0EC7 [0x52] END_LOAD_SCHEDULER: End scheduler "s023" with entities [EventEntity, EventEntity], work=24*
 39: 0x0ED6 [0x01] GOTO 0x0EE8
 40: 0x0ED9 [0x52] END_LOAD_SCHEDULER: End scheduler "s020" with entities [EventEntity, EventEntity], work=24*

SUBROUTINE_0EE8:
 41: 0x0EE8 [0x45] LOAD_SCHEDULED_TASK: Load scheduler "s021" with entities [EventEntity, EventEntity], work=[24*, 0*]
 42: 0x0EF9 [0x7B] Abelard (ID: 17793039/0x010F800F) stops talking
 43: 0x0EFE [0x29] REQ_SET_WAIT(priority=0x08, entity_id=Abelard (ID: 17793039/0x010F800F), tag_num=0x0F)
 44: 0x0F05 [0x2B] Abelard (ID: 17793039/0x010F800F) [7395*]:
    → "They were left inside Ordelle's Caves...?"
 45: 0x0F0C [0x23] WAIT_FOR_DIALOG_INTERACTION
 46: 0x0F0D [0x2B] Abelard (ID: 17793039/0x010F800F) [7396*]:
    → "If somebody left these pages on purpose, then we have a duty to read them. Seems that Enid didn't throw them away after all."
 47: 0x0F14 [0x23] WAIT_FOR_DIALOG_INTERACTION
 48: 0x0F15 [0x29] REQ_SET_WAIT(priority=0x08, entity_id=Abelard (ID: 17793039/0x010F800F), tag_num=0x10)
 49: 0x0F1C [0x52] END_LOAD_SCHEDULER: End scheduler "s021" with entities [EventEntity, EventEntity], work=24*
 50: 0x0F2B [0x45] LOAD_SCHEDULED_TASK: Load scheduler "s024" with entities [EventEntity, EventEntity], work=[24*, 0*]
 51: 0x0F3C [0x79] Abelard (ID: 17793039/0x010F800F) looks at LocalPlayer (Basic look)
 52: 0x0F46 [0x29] REQ_SET_WAIT(priority=0x08, entity_id=Abelard (ID: 17793039/0x010F800F), tag_num=0x11)
 53: 0x0F4D [0x2B] Abelard (ID: 17793039/0x010F800F) [7397*]:
    → "Hm? If I'm going to read these pages, then I should tell you where to find Lady Leffine?"
 54: 0x0F54 [0x23] WAIT_FOR_DIALOG_INTERACTION
 55: 0x0F55 [0x29] REQ_SET_WAIT(priority=0x08, entity_id=Abelard (ID: 17793039/0x010F800F), tag_num=0x12)
 56: 0x0F5C [0x29] REQ_SET_WAIT(priority=0x08, entity_id=Abelard (ID: 17793039/0x010F800F), tag_num=0x13)
 57: 0x0F63 [0x2B] Abelard (ID: 17793039/0x010F800F) [7398*]:
    → "Fair enough. As did the great Gwynham Ironheart, Lady Leffine passed away many years ago."
 58: 0x0F6A [0x23] WAIT_FOR_DIALOG_INTERACTION
 59: 0x0F6B [0x29] REQ_SET_WAIT(priority=0x08, entity_id=Abelard (ID: 17793039/0x010F800F), tag_num=0x14)
 60: 0x0F72 [0x52] END_LOAD_SCHEDULER: End scheduler "s024" with entities [EventEntity, EventEntity], work=24*
 61: 0x0F81 [0x45] LOAD_SCHEDULED_TASK: Load scheduler "ovl1" with entities [LocalPlayer, LocalPlayer], work=[200*, 0*]
 62: 0x0F92 [0x45] LOAD_SCHEDULED_TASK: Load scheduler "s025" with entities [EventEntity, EventEntity], work=[24*, 0*]
 63: 0x0FA3 [0x29] REQ_SET_WAIT(priority=0x08, entity_id=Abelard (ID: 17793039/0x010F800F), tag_num=0x0F)
 64: 0x0FAA [0x2B] Abelard (ID: 17793039/0x010F800F) [7399*]:
    → "However, her son, Louverance, grew up to become a fine young man. Last I heard, he joined the Royal Knights of San d'Oria."
 65: 0x0FB1 [0x23] WAIT_FOR_DIALOG_INTERACTION
 66: 0x0FB2 [0x2B] Abelard (ID: 17793039/0x010F800F) [7400*]:
    → "I haven't seen him visit his mother's grave lately, though. Has something happened to him, I wonder."
 67: 0x0FB9 [0x23] WAIT_FOR_DIALOG_INTERACTION
 68: 0x0FBA [0x29] REQ_SET_WAIT(priority=0x08, entity_id=Abelard (ID: 17793039/0x010F800F), tag_num=0x10)
 69: 0x0FC1 [0x52] END_LOAD_SCHEDULER: End scheduler "s025" with entities [EventEntity, EventEntity], work=24*
 70: 0x0FD0 [0x02] IF !(Work_Zone[9] == 5*) GOTO 0x0FEC
 71: 0x0FD8 [0x45] LOAD_SCHEDULED_TASK: Load scheduler "s023" with entities [EventEntity, EventEntity], work=[24*, 0*]
 72: 0x0FE9 [0x01] GOTO 0x1019
 73: 0x0FEC [0x02] IF !(Work_Zone[9] == 6*) GOTO 0x1008
 74: 0x0FF4 [0x45] LOAD_SCHEDULED_TASK: Load scheduler "s023" with entities [EventEntity, EventEntity], work=[24*, 0*]
 75: 0x1005 [0x01] GOTO 0x1019
 76: 0x1008 [0x45] LOAD_SCHEDULED_TASK: Load scheduler "s020" with entities [EventEntity, EventEntity], work=[24*, 0*]

SUBROUTINE_1019:
 77: 0x1019 [0x29] REQ_SET_WAIT(priority=0x08, entity_id=Abelard (ID: 17793039/0x010F800F), tag_num=0x11)
 78: 0x1020 [0x29] REQ_SET_WAIT(priority=0x08, entity_id=Abelard (ID: 17793039/0x010F800F), tag_num=0x12)
 79: 0x1027 [0x29] REQ_SET_WAIT(priority=0x08, entity_id=Abelard (ID: 17793039/0x010F800F), tag_num=0x17)
 80: 0x102E [0x2B] Abelard (ID: 17793039/0x010F800F) [7401*]:
    → "Speaking of which, there's another thing that's been bugging me."
 81: 0x1035 [0x23] WAIT_FOR_DIALOG_INTERACTION
 82: 0x1036 [0x2B] Abelard (ID: 17793039/0x010F800F) [7402*]:
    → "Earlier, I had another visitor looking for Louverance."
 83: 0x103D [0x23] WAIT_FOR_DIALOG_INTERACTION
 84: 0x103E [0x29] REQ_SET_WAIT(priority=0x08, entity_id=Abelard (ID: 17793039/0x010F800F), tag_num=0x18)
 85: 0x1045 [0x02] IF !(Work_Zone[9] == 5*) GOTO 0x105F
 86: 0x104D [0x52] END_LOAD_SCHEDULER: End scheduler "s023" with entities [EventEntity, EventEntity], work=24*
 87: 0x105C [0x01] GOTO 0x1088
 88: 0x105F [0x02] IF !(Work_Zone[9] == 6*) GOTO 0x1079
 89: 0x1067 [0x52] END_LOAD_SCHEDULER: End scheduler "s023" with entities [EventEntity, EventEntity], work=24*
 90: 0x1076 [0x01] GOTO 0x1088
 91: 0x1079 [0x52] END_LOAD_SCHEDULER: End scheduler "s020" with entities [EventEntity, EventEntity], work=24*

SUBROUTINE_1088:
 92: 0x1088 [0x45] LOAD_SCHEDULED_TASK: Load scheduler "s021" with entities [EventEntity, EventEntity], work=[24*, 0*]
 93: 0x1099 [0x29] REQ_SET_WAIT(priority=0x08, entity_id=Abelard (ID: 17793039/0x010F800F), tag_num=0x19)
 94: 0x10A0 [0x2B] Abelard (ID: 17793039/0x010F800F) [7403*]:
    → "It was a young Hume lady. Made some mention of Atarefaunet's Band."
 95: 0x10A7 [0x23] WAIT_FOR_DIALOG_INTERACTION
 96: 0x10A8 [0x29] REQ_SET_WAIT(priority=0x08, entity_id=Abelard (ID: 17793039/0x010F800F), tag_num=0x1A)
 97: 0x10AF [0x29] REQ_SET_WAIT(priority=0x08, entity_id=Abelard (ID: 17793039/0x010F800F), tag_num=0x13)
 98: 0x10B6 [0x2B] Abelard (ID: 17793039/0x010F800F) [7404*]:
    → "In any case, she left Selbina after discovering Lady Leffine was no longer with us."
 99: 0x10BD [0x23] WAIT_FOR_DIALOG_INTERACTION
100: 0x10BE [0x2B] Abelard (ID: 17793039/0x010F800F) [7405*]:
    → "Is that all you wanted to know? Now if you don't mind, I'll get to reading these pages you retrieved."
101: 0x10C5 [0x23] WAIT_FOR_DIALOG_INTERACTION
102: 0x10C6 [0x5D] SET_MUSIC_VOLUME(volume=0*, fade_time=120*)
103: 0x10CB [0x45] LOAD_SCHEDULED_TASK: Load scheduler "fdo1" with entities [LocalPlayer, LocalPlayer], work=[200*, 0*]
104: 0x10DC [0x1C] WAIT(120* ticks)
105: 0x10DF [0x29] REQ_SET_WAIT(priority=0x08, entity_id=Abelard (ID: 17793039/0x010F800F), tag_num=0x14)
106: 0x10E6 [0x52] END_LOAD_SCHEDULER: End scheduler "s021" with entities [EventEntity, EventEntity], work=24*
107: 0x10F5 [0x4E] SET_ENTITY_HIDE_FLAG: Show LocalPlayer
108: 0x10FB [0x80] LOAD_WAIT(entity=LocalPlayer)
109: 0x1100 [0x46] CAMERA_CONTROL: Restore default settings
110: 0x1102 [0x5C] MUSIC_CONTROL: Set Idle (Day) music to song 112*
111: 0x1106 [0x5C] MUSIC_CONTROL: Set Idle (Night) music to song 112*
112: 0x110A [0x45] LOAD_SCHEDULED_TASK: Load scheduler "fdi1" with entities [LocalPlayer, LocalPlayer], work=[200*, 0*]
113: 0x111B [0x20] SET_CLI_EVENT_UC_FLAG: Unlock player control
114: 0x111D [0x21] END_EVENT
115: 0x111E [0x00] END_REQSTACK()
```

### Event 1108

#### Metadata

| Field        | Value     |
|--------------|-----------|
| Entrypoint   | 0x111F    |
| Data Size    | 515 bytes |
| Instructions | 81        |

```
      00 01 02 03 04 05 06 07  08 09 0A 0B 0C 0D 0E 0F
      -- -- -- -- -- -- -- --  -- -- -- -- -- -- -- --
1110:                                               20                  
1120: 01 42 46 01 5D 00 80 01  80 45 02 80 F8 FF FF 7F  .BF.]....E......
1130: F8 FF FF 7F 66 64 6F 31  00 80 1C 01 80 38 03 80  ....fdo1.....8..
1140: 29 08 F0 FF FF 7F 19 75  00 3C 80 75 01 29 0B F0  )......u.<.u.)..
1150: FF FF 7F 1F 4E 00 0F 80  0F 01 80 0F 80 0F 01 4A  ....N..........J
1160: 0F 80 0F 01 F0 FF FF 7F  4A F0 FF FF 7F 0F 80 0F  ........J.......
1170: 01 6F 76 0F 80 0F 01 6F  76 F0 FF FF 7F 92 01 0F  .ov....ov.......
1180: 80 0F 01 5C 00 5B 80 5C  01 5B 80 02 09 10 44 80  ...\.[.\.[....D.
1190: 00 A7 11 45 3E 80 F8 FF  FF 7F F8 FF FF 7F 73 30  ...E>.........s0
11A0: 32 33 00 80 01 D4 11 02  09 10 1E 80 00 C3 11 45  23.............E
11B0: 3E 80 F8 FF FF 7F F8 FF  FF 7F 73 30 32 33 00 80  >.........s023..
11C0: 01 D4 11 45 3E 80 F8 FF  FF 7F F8 FF FF 7F 73 30  ...E>.........s0
11D0: 32 30 00 80 45 02 80 F8  FF FF 7F F8 FF FF 7F 66  20..E..........f
11E0: 64 69 31 00 80 29 08 0F  80 0F 01 13 2B 0F 80 0F  di1..)......+...
11F0: 01 5C 80 23 02 07 10 20  80 00 2C 12 2B 0F 80 0F  .\.#... ..,.+...
1200: 01 5D 80 23 2B 0F 80 0F  01 5E 80 23 29 08 0F 80  .].#+....^.#)...
1210: 0F 01 14 29 08 0F 80 0F  01 15 2B 0F 80 0F 01 5F  ...)......+...._
1220: 80 23 29 08 0F 80 0F 01  16 01 43 12 2B 0F 80 0F  .#).......C.+...
1230: 01 60 80 23 2B 0F 80 0F  01 61 80 23 29 08 0F 80  .`.#+....a.#)...
1240: 0F 01 14 02 09 10 44 80  00 5D 12 52 3E 80 F8 FF  ......D..].R>...
1250: FF 7F F8 FF FF 7F 73 30  32 33 01 86 12 02 09 10  ......s023......
1260: 1E 80 00 77 12 52 3E 80  F8 FF FF 7F F8 FF FF 7F  ...w.R>.........
1270: 73 30 32 33 01 86 12 52  3E 80 F8 FF FF 7F F8 FF  s023...R>.......
1280: FF 7F 73 30 32 30 45 3E  80 F8 FF FF 7F F8 FF FF  ..s020E>........
1290: 7F 73 30 32 31 00 80 7B  0F 80 0F 01 29 08 0F 80  .s021..{....)...
12A0: 0F 01 0F 2B 0F 80 0F 01  62 80 23 2B 0F 80 0F 01  ...+....b.#+....
12B0: 63 80 23 29 08 0F 80 0F  01 10 29 08 0F 80 0F 01  c.#)......).....
12C0: 11 52 3E 80 F8 FF FF 7F  F8 FF FF 7F 73 30 32 31  .R>.........s021
12D0: 2B 0F 80 0F 01 64 80 23  29 08 0F 80 0F 01 12 5D  +....d.#)......]
12E0: 00 80 01 80 45 02 80 F0  FF FF 7F F0 FF FF 7F 66  ....E..........f
12F0: 64 6F 31 00 80 1C 01 80  5C 00 34 80 5C 01 34 80  do1.....\.4.\.4.
1300: 4E 00 F0 FF FF 7F 80 F0  FF FF 7F 46 00 45 02 80  N..........F.E..
1310: F0 FF FF 7F F0 FF FF 7F  66 64 69 31 00 80 20 00  ........fdi1.. .
1320: 21 00                                             !.              
```

#### Opcodes

```
  0: 0x111F [0x20] SET_CLI_EVENT_UC_FLAG: Lock player control
  1: 0x1121 [0x42] SET_CLI_EVENT_CANCEL_DATA()
  2: 0x1122 [0x46] CAMERA_CONTROL: Disable user control
  3: 0x1124 [0x5D] SET_MUSIC_VOLUME(volume=0*, fade_time=120*)
  4: 0x1129 [0x45] LOAD_SCHEDULED_TASK: Load scheduler "fdo1" with entities [EventEntity, EventEntity], work=[200*, 0*]
  5: 0x113A [0x1C] WAIT(120* ticks)
  6: 0x113D [0x38] SET_CLIENT_EVENT_MODE(mode=19*)
  7: 0x1140 [0x29] REQ_SET_WAIT(priority=0x08, entity_id=LocalPlayer, tag_num=0x19)
  8: 0x1147 [0x75] LOAD_ROOM(Load indoor room, room=484*)
  9: 0x114B [0x75] LOAD_ROOM(No action)
 10: 0x114D [0x29] REQ_SET_WAIT(priority=0x0B, entity_id=LocalPlayer, tag_num=0x1F)
 11: 0x1154 [0x4E] SET_ENTITY_HIDE_FLAG: Show Abelard (ID: 17793039/0x010F800F)
 12: 0x115A [0x80] LOAD_WAIT(entity=Abelard (ID: 17793039/0x010F800F))
 13: 0x115F [0x4A] Abelard (ID: 17793039/0x010F800F) looks at LocalPlayer
 14: 0x1168 [0x4A] LocalPlayer looks at Abelard (ID: 17793039/0x010F800F)
 15: 0x1171 [0x6F] WAIT_FRAME_DELAY: Yield until WaitTime reaches zero
 16: 0x1172 [0x76] CHECK_ENTITY_RENDER_FLAGS: Wait until Abelard (ID: 17793039/0x010F800F) Render.Flags0 and Render.Flags3 conditions are met
 17: 0x1177 [0x6F] WAIT_FRAME_DELAY: Yield until WaitTime reaches zero
 18: 0x1178 [0x76] CHECK_ENTITY_RENDER_FLAGS: Wait until LocalPlayer Render.Flags0 and Render.Flags3 conditions are met
 19: 0x117D [0x92] Abelard (ID: 17793039/0x010F800F)->Render.Flags3 ^= 0x01
 20: 0x1183 [0x5C] MUSIC_CONTROL: Set Idle (Day) music to song 127*
 21: 0x1187 [0x5C] MUSIC_CONTROL: Set Idle (Night) music to song 127*
 22: 0x118B [0x02] IF !(Work_Zone[9] == 5*) GOTO 0x11A7
 23: 0x1193 [0x45] LOAD_SCHEDULED_TASK: Load scheduler "s023" with entities [EventEntity, EventEntity], work=[24*, 0*]
 24: 0x11A4 [0x01] GOTO 0x11D4
 25: 0x11A7 [0x02] IF !(Work_Zone[9] == 6*) GOTO 0x11C3
 26: 0x11AF [0x45] LOAD_SCHEDULED_TASK: Load scheduler "s023" with entities [EventEntity, EventEntity], work=[24*, 0*]
 27: 0x11C0 [0x01] GOTO 0x11D4
 28: 0x11C3 [0x45] LOAD_SCHEDULED_TASK: Load scheduler "s020" with entities [EventEntity, EventEntity], work=[24*, 0*]

SUBROUTINE_11D4:
 29: 0x11D4 [0x45] LOAD_SCHEDULED_TASK: Load scheduler "fdi1" with entities [EventEntity, EventEntity], work=[200*, 0*]
 30: 0x11E5 [0x29] REQ_SET_WAIT(priority=0x08, entity_id=Abelard (ID: 17793039/0x010F800F), tag_num=0x13)
 31: 0x11EC [0x2B] Abelard (ID: 17793039/0x010F800F) [7406*]:
    → "A girl by the name of Sanctia? Yes, I seem to recall a young lady blowing into town quite a while back, and then blowing straight back out. You've missed her, I'm afraid."
 32: 0x11F3 [0x23] WAIT_FOR_DIALOG_INTERACTION
 33: 0x11F4 [0x02] IF !(Work_Zone[7] == 1*) GOTO 0x122C
 34: 0x11FC [0x2B] Abelard (ID: 17793039/0x010F800F) [7407*]:
    → "Didn't I tell you this already? It was a young Hume girl that mentioned Atarefaunet's Band, remember?"
 35: 0x1203 [0x23] WAIT_FOR_DIALOG_INTERACTION
 36: 0x1204 [0x2B] Abelard (ID: 17793039/0x010F800F) [7408*]:
    → "She said she was looking for some bounty hunter that had crossed that group of merciless cutthroats."
 37: 0x120B [0x23] WAIT_FOR_DIALOG_INTERACTION
 38: 0x120C [0x29] REQ_SET_WAIT(priority=0x08, entity_id=Abelard (ID: 17793039/0x010F800F), tag_num=0x14)
 39: 0x1213 [0x29] REQ_SET_WAIT(priority=0x08, entity_id=Abelard (ID: 17793039/0x010F800F), tag_num=0x15)
 40: 0x121A [0x2B] Abelard (ID: 17793039/0x010F800F) [7409*]:
    → "Talk around town says that Louverance was searching for the very same man..."
 41: 0x1221 [0x23] WAIT_FOR_DIALOG_INTERACTION
 42: 0x1222 [0x29] REQ_SET_WAIT(priority=0x08, entity_id=Abelard (ID: 17793039/0x010F800F), tag_num=0x16)
 43: 0x1229 [0x01] GOTO 0x1243
 44: 0x122C [0x2B] Abelard (ID: 17793039/0x010F800F) [7410*]:
    → "She wanted to meet with someone that lived here a long time ago."
 45: 0x1233 [0x23] WAIT_FOR_DIALOG_INTERACTION
 46: 0x1234 [0x2B] Abelard (ID: 17793039/0x010F800F) [7411*]:
    → "Seems she meant to ask him about some bounty hunter he was looking for..."
 47: 0x123B [0x23] WAIT_FOR_DIALOG_INTERACTION
 48: 0x123C [0x29] REQ_SET_WAIT(priority=0x08, entity_id=Abelard (ID: 17793039/0x010F800F), tag_num=0x14)

SUBROUTINE_1243:
 49: 0x1243 [0x02] IF !(Work_Zone[9] == 5*) GOTO 0x125D
 50: 0x124B [0x52] END_LOAD_SCHEDULER: End scheduler "s023" with entities [EventEntity, EventEntity], work=24*
 51: 0x125A [0x01] GOTO 0x1286
 52: 0x125D [0x02] IF !(Work_Zone[9] == 6*) GOTO 0x1277
 53: 0x1265 [0x52] END_LOAD_SCHEDULER: End scheduler "s023" with entities [EventEntity, EventEntity], work=24*
 54: 0x1274 [0x01] GOTO 0x1286
 55: 0x1277 [0x52] END_LOAD_SCHEDULER: End scheduler "s020" with entities [EventEntity, EventEntity], work=24*

SUBROUTINE_1286:
 56: 0x1286 [0x45] LOAD_SCHEDULED_TASK: Load scheduler "s021" with entities [EventEntity, EventEntity], work=[24*, 0*]
 57: 0x1297 [0x7B] Abelard (ID: 17793039/0x010F800F) stops talking
 58: 0x129C [0x29] REQ_SET_WAIT(priority=0x08, entity_id=Abelard (ID: 17793039/0x010F800F), tag_num=0x0F)
 59: 0x12A3 [0x2B] Abelard (ID: 17793039/0x010F800F) [7412*]:
    → "Hm? The young lady was determined to find her way to the Tavnazian Archipelago? And you think she went to one of the caves in the Valkurm Dunes?"
 60: 0x12AA [0x23] WAIT_FOR_DIALOG_INTERACTION
 61: 0x12AB [0x2B] Abelard (ID: 17793039/0x010F800F) [7413*]:
    → "We've had a warning from a high-ranking Jeunoan official not to go anywhere near the vortex in that cave."
 62: 0x12B2 [0x23] WAIT_FOR_DIALOG_INTERACTION
 63: 0x12B3 [0x29] REQ_SET_WAIT(priority=0x08, entity_id=Abelard (ID: 17793039/0x010F800F), tag_num=0x10)
 64: 0x12BA [0x29] REQ_SET_WAIT(priority=0x08, entity_id=Abelard (ID: 17793039/0x010F800F), tag_num=0x11)
 65: 0x12C1 [0x52] END_LOAD_SCHEDULER: End scheduler "s021" with entities [EventEntity, EventEntity], work=24*
 66: 0x12D0 [0x2B] Abelard (ID: 17793039/0x010F800F) [7414*]:
    → "Rumors say that travelers drawn into its depths are never heard from again. You might be too late to save your friend."
 67: 0x12D7 [0x23] WAIT_FOR_DIALOG_INTERACTION
 68: 0x12D8 [0x29] REQ_SET_WAIT(priority=0x08, entity_id=Abelard (ID: 17793039/0x010F800F), tag_num=0x12)
 69: 0x12DF [0x5D] SET_MUSIC_VOLUME(volume=0*, fade_time=120*)
 70: 0x12E4 [0x45] LOAD_SCHEDULED_TASK: Load scheduler "fdo1" with entities [LocalPlayer, LocalPlayer], work=[200*, 0*]
 71: 0x12F5 [0x1C] WAIT(120* ticks)
 72: 0x12F8 [0x5C] MUSIC_CONTROL: Set Idle (Day) music to song 112*
 73: 0x12FC [0x5C] MUSIC_CONTROL: Set Idle (Night) music to song 112*
 74: 0x1300 [0x4E] SET_ENTITY_HIDE_FLAG: Show LocalPlayer
 75: 0x1306 [0x80] LOAD_WAIT(entity=LocalPlayer)
 76: 0x130B [0x46] CAMERA_CONTROL: Restore default settings
 77: 0x130D [0x45] LOAD_SCHEDULED_TASK: Load scheduler "fdi1" with entities [LocalPlayer, LocalPlayer], work=[200*, 0*]
 78: 0x131E [0x20] SET_CLI_EVENT_UC_FLAG: Unlock player control
 79: 0x1320 [0x21] END_EVENT
 80: 0x1321 [0x00] END_REQSTACK()
```
