# 17793035 - Valgeir

## Common Data

| Field            | Value             |
|------------------|-------------------|
| Zone             | Selbina (ID: 248) |
| Block Size       | 1164 bytes        |
| Total Events     | 18                |
| References Count | 42                |

## List of Events

| Event ID              | Entrypoint   |   Size |   Instructions |
|-----------------------|--------------|--------|----------------|
| [65535](#event-65535) | 0x0000       |      1 |              1 |
| [100](#event-100)     | 0x0001       |    242 |             43 |
| [101](#event-101)     | 0x00F3       |     28 |              8 |
| [102](#event-102)     | 0x010F       |     45 |             15 |
| [103](#event-103)     | 0x013C       |     36 |             11 |
| [104](#event-104)     | 0x0160       |     36 |             11 |
| [105](#event-105)     | 0x0184       |     36 |             11 |
| [106](#event-106)     | 0x01A8       |    188 |             37 |
| [107](#event-107)     | 0x0264       |     96 |             22 |
| [140](#event-140)     | 0x02C4       |     28 |              8 |
| [141](#event-141)     | 0x02E0       |     28 |              8 |
| [142](#event-142)     | 0x02FC       |     28 |              8 |
| [143](#event-143)     | 0x0318       |     28 |              8 |
| [144](#event-144)     | 0x0334       |     28 |              8 |
| [145](#event-145)     | 0x0350       |     28 |              8 |
| [146](#event-146)     | 0x036C       |     28 |              8 |
| [10002](#event-10002) | 0x0388       |      1 |              1 |
| [10004](#event-10004) | 0x0389       |      1 |              1 |

## DAT References (imed_data)

|   Index | Hex Value   |   Dec Value |
|---------|-------------|-------------|
|       0 | 0x0041      |          65 |
|       1 | 0x1B05      |        6917 |
|       2 | 0x1B06      |        6918 |
|       3 | 0x0000      |           0 |
|       4 | 0x1B07      |        6919 |
|       5 | 0x0800      |        2048 |
|       6 | 0x00C8      |         200 |
|       7 | 0x0078      |         120 |
|       8 | 0x003C      |          60 |
|       9 | 0x1B08      |        6920 |
|      10 | 0x1B09      |        6921 |
|      11 | 0x0001      |           1 |
|      12 | 0x1B0A      |        6922 |
|      13 | 0x0064      |         100 |
|      14 | 0x1B0B      |        6923 |
|      15 | 0x1B0C      |        6924 |
|      16 | 0x1B0D      |        6925 |
|      17 | 0x1B0E      |        6926 |
|      18 | 0x1B0F      |        6927 |
|      19 | 0x1B11      |        6929 |
|      20 | 0x1B10      |        6928 |
|      21 | 0x1B13      |        6931 |
|      22 | 0x1B16      |        6934 |
|      23 | 0x1B17      |        6935 |
|      24 | 0x1B18      |        6936 |
|      25 | 0x1B19      |        6937 |
|      26 | 0x1B1A      |        6938 |
|      27 | 0x1B1B      |        6939 |
|      28 | 0x1B1C      |        6940 |
|      29 | 0x1B1E      |        6942 |
|      30 | 0x1B1F      |        6943 |
|      31 | 0x1B20      |        6944 |
|      32 | 0x1B21      |        6945 |
|      33 | 0x1B22      |        6946 |
|      34 | 0x1B23      |        6947 |
|      35 | 0x1B04      |        6916 |
|      36 | 0x1B12      |        6930 |
|      37 | 0x1B14      |        6932 |
|      38 | 0x1B15      |        6933 |
|      39 | 0x1B1D      |        6941 |
|      40 | 0x1B24      |        6948 |
|      41 | 0x1B25      |        6949 |

## String References

- **6916**: What? I'm busy. Can't this wait till later?
- **6917**: What's all this? I didn't order anything.
- **6918**: Who made this? [It was Rycharde./I'm not sure.]
- **6919**: What? Rycharde made this? Nothing of his is worth eating! Oh, why not? Just a taste...
- **6920**: What is this garbage!? It's hardly edible! I knew he couldn't cook!
- **6921**: Tell him something for me. Tell him he should give up cooking for good!
- **6922**: Well, I won't take anything until I know who sent it. Tell me!
- **6923**: What now? I've nothing to say to you. Good day!
- **6924**: You again! What is it this time? I'd rather die than eat any more of his grub!
- **6925**: What? You want me to cook something? I'm sure you're up to no good, but as a chef I can't turn you down.
- **6926**: Fine, then! I'll prepare your little dish, but first you must bring me the ingredients I require.
- **6927**: I'll need $0 and $1. Now, make haste!
- **6928**: Where are those ingredients? I cannot start without them!
- **6929**: Hmph. So you found them, did you? Fine! Come see me tomorrow. It should be ready by then.
- **6930**: What now? It's not done yet! Don't worry, my dishes are always ready on time.
- **6931**: Done! Now, take it and get out of here!
- **6932**: What now? It's done, so leave me in peace!
- **6933**: Oh, you again. I hope you liked the dish.
- **6934**: What, you again? Well, I'm not about to chastise you. Very well, I'll have a look. Give me a moment.
- **6935**: It's true he has improved. But still he fails to grasp the basics of cooking. There's more to it than haggling over ingredients!
- **6936**: Everything has a foundation, not just cooking. Making things good on the outside is easy; it is what's inside that counts.
- **6937**: Only when one has understood the basics can they make the inside good. Amateurs hurry the most; too often they focus on appearance.
- **6938**: Rycharde is the perfect example. He simply isn't the prodigy I hoped for.
- **6939**: He may be my son, but he'll never be a chef in my eyes. Well, that's a lecture not meant for you.
- **6940**: Are you heading back now? Please, give this to him. Tell him it's my reply. If he doesn't understand what it means, then that will be it.
- **6941**: You gave it to him, did you not? I do hope he understood.
- **6942**: You gave it to him, did you not? Back when I started teaching him how to cook, I often had him use $0 in his dishes.
- **6943**: % come cheaply of late. But that doesn't rule them out as ingredients.
- **6944**: You could also use pricey ingredients, and even though your utensils might be mediocre, your food will still come out tasting fine.
- **6945**: Delicious food is not made from fancy spices or cutlery. Nor does it come from any methodical analysis.
- **6946**: Indeed, nothing is more crucial than the desire to satisfy others with good food, and thinking up ways to do it.
- **6947**: If my son could only realize that, there may still be some hope for him.
- **6948**: Cooking is a complex art, but the basics are as clear as day. I suppose that goes for just about anything.
- **6949**: Never forget to give thanks at each meal. The hands of many work hard to bring us sustenance.

## Events

### Event 65535

#### Metadata

| Field        | Value   |
|--------------|---------|
| Entrypoint   | 0x0000  |
| Data Size    | 1 bytes |
| Instructions | 1       |

```
      00 01 02 03 04 05 06 07  08 09 0A 0B 0C 0D 0E 0F
      -- -- -- -- -- -- -- --  -- -- -- -- -- -- -- --
0000: 00                                                .               
```

#### Opcodes

```
  0: 0x0000 [0x00] END_REQSTACK()
```

### Event 100

#### Metadata

| Field        | Value     |
|--------------|-----------|
| Entrypoint   | 0x0001    |
| Data Size    | 242 bytes |
| Instructions | 42        |

```
      00 01 02 03 04 05 06 07  08 09 0A 0B 0C 0D 0E 0F
      -- -- -- -- -- -- -- --  -- -- -- -- -- -- -- --
0000:    42 20 01 1E F0 FF FF  7F 6F 70 5B 00 80 F8 FF   B ......op[....
0010: FF 7F F8 FF FF 7F 74 6C  6B 30 1D 01 80 23 53 F8  ......tlk0...#S.
0020: FF FF 7F F8 FF FF 7F 74  6C 6B 30 24 02 80 03 80  .......tlk0$....
0030: 03 80 25 02 00 10 03 80  00 BE 00 5B 00 80 F8 FF  ..%........[....
0040: FF 7F F8 FF FF 7F 74 6C  6B 30 1D 04 80 23 53 F8  ......tlk0...#S.
0050: FF FF 7F F8 FF FF 7F 74  6C 6B 30 03 00 00 83 7F  .......tlk0.....
0060: 08 00 00 05 80 39 00 00  45 06 80 F0 FF FF 7F F0  .....9..E.......
0070: FF FF 7F 66 64 6F 31 03  80 1C 07 80 45 06 80 F0  ...fdo1.....E...
0080: FF FF 7F F0 FF FF 7F 66  64 69 31 03 80 1E F0 FF  .......fdi1.....
0090: FF 7F 6F 70 1C 08 80 5B  00 80 F8 FF FF 7F F8 FF  ..op...[........
00A0: FF 7F 74 6C 6B 30 1D 09  80 23 1D 0A 80 23 53 F8  ..tlk0...#...#S.
00B0: FF FF 7F F8 FF FF 7F 74  6C 6B 30 01 EC 00 02 00  .......tlk0.....
00C0: 10 0B 80 00 EC 00 5B 00  80 F8 FF FF 7F F8 FF FF  ......[.........
00D0: 7F 74 6C 6B 30 1D 0C 80  23 53 F8 FF FF 7F F8 FF  .tlk0...#S......
00E0: FF 7F 74 6C 6B 30 01 2B  00 01 EC 00 03 01 10 0D  ..tlk0.+........
00F0: 80 21 00                                          .!.             
```

#### Opcodes

```
  0: 0x0001 [0x42] SET_CLI_EVENT_CANCEL_DATA()
  1: 0x0002 [0x20] SET_CLI_EVENT_UC_FLAG: Lock player control
  2: 0x0004 [0x1E] EventEntity looks at LocalPlayer and starts talking
  3: 0x0009 [0x6F] WAIT_FRAME_DELAY: Yield until WaitTime reaches zero
  4: 0x000A [0x70] WAIT_ENTITY_RENDER_FLAG: Wait while EventEntity->Render.Flags3 bit 2 is set (cancel turn if not)
  5: 0x000B [0x5B] LOAD_EXT_SCHEDULER: Load scheduler "tlk0" with entities [EventEntity, EventEntity], work=65*
  6: 0x001A [0x1D] PRINT_EVENT_MESSAGE(message_id=6917*)
    → "What's all this? I didn't order anything."
  7: 0x001D [0x23] WAIT_FOR_DIALOG_INTERACTION
  8: 0x001E [0x53] WAIT_SCHEDULER_TASK: Wait for scheduler "tlk0" with entities [EventEntity, EventEntity]
  9: 0x002B [0x24] CREATE_DIALOG(message_id=6918*, default_option=0*, option_flags=0*)
    → "Who made this? [It was Rycharde./I'm not sure.]"
 10: 0x0032 [0x25] WAIT_DIALOG_SELECT()
 11: 0x0033 [0x02] IF !(Work_Zone[0] == 0*) GOTO 0x00BE
 12: 0x003B [0x5B] LOAD_EXT_SCHEDULER: Load scheduler "tlk0" with entities [EventEntity, EventEntity], work=65*
 13: 0x004A [0x1D] PRINT_EVENT_MESSAGE(message_id=6919*)
    → "What? Rycharde made this? Nothing of his is worth eating! Oh, why not? Just a taste..."
 14: 0x004D [0x23] WAIT_FOR_DIALOG_INTERACTION
 15: 0x004E [0x53] WAIT_SCHEDULER_TASK: Wait for scheduler "tlk0" with entities [EventEntity, EventEntity]
 16: 0x005B [0x03] ExtData[1]->WorkLocal[0] = enDirCli(LocalPlayer->LocalPosition.Unknown0000) * 4096.0 * 0.15915963
 17: 0x0060 [0x08] ExtData[1]->WorkLocal[0] -= 2048*
 18: 0x0065 [0x39] SET_ENTITY_DIRECTION(direction=ExtData[1]->WorkLocal[0])
 19: 0x0068 [0x45] LOAD_SCHEDULED_TASK: Load scheduler "fdo1" with entities [LocalPlayer, LocalPlayer], work=[200*, 0*]
 20: 0x0079 [0x1C] WAIT(120* ticks)
 21: 0x007C [0x45] LOAD_SCHEDULED_TASK: Load scheduler "fdi1" with entities [LocalPlayer, LocalPlayer], work=[200*, 0*]
 22: 0x008D [0x1E] EventEntity looks at LocalPlayer and starts talking
 23: 0x0092 [0x6F] WAIT_FRAME_DELAY: Yield until WaitTime reaches zero
 24: 0x0093 [0x70] WAIT_ENTITY_RENDER_FLAG: Wait while EventEntity->Render.Flags3 bit 2 is set (cancel turn if not)
 25: 0x0094 [0x1C] WAIT(60* ticks)
 26: 0x0097 [0x5B] LOAD_EXT_SCHEDULER: Load scheduler "tlk0" with entities [EventEntity, EventEntity], work=65*
 27: 0x00A6 [0x1D] PRINT_EVENT_MESSAGE(message_id=6920*)
    → "What is this garbage!? It's hardly edible! I knew he couldn't cook!"
 28: 0x00A9 [0x23] WAIT_FOR_DIALOG_INTERACTION
 29: 0x00AA [0x1D] PRINT_EVENT_MESSAGE(message_id=6921*)
    → "Tell him something for me. Tell him he should give up cooking for good!"
 30: 0x00AD [0x23] WAIT_FOR_DIALOG_INTERACTION
 31: 0x00AE [0x53] WAIT_SCHEDULER_TASK: Wait for scheduler "tlk0" with entities [EventEntity, EventEntity]
 32: 0x00BB [0x01] GOTO 0x00EC
 33: 0x00BE [0x02] IF !(Work_Zone[0] == 1*) GOTO 0x00EC
 34: 0x00C6 [0x5B] LOAD_EXT_SCHEDULER: Load scheduler "tlk0" with entities [EventEntity, EventEntity], work=65*
 35: 0x00D5 [0x1D] PRINT_EVENT_MESSAGE(message_id=6922*)
    → "Well, I won't take anything until I know who sent it. Tell me!"
 36: 0x00D8 [0x23] WAIT_FOR_DIALOG_INTERACTION
 37: 0x00D9 [0x53] WAIT_SCHEDULER_TASK: Wait for scheduler "tlk0" with entities [EventEntity, EventEntity]
 38: 0x00E6 [0x01] GOTO 0x002B

SUBROUTINE_00EC:
 39: 0x00EC [0x03] Work_Zone[1] = 100*
 40: 0x00F1 [0x21] END_EVENT
 41: 0x00F2 [0x00] END_REQSTACK()
```

#### Data or dead code:

```
# Dead code (unreachable instructions):
     0x00E9 [0x01] GOTO 0x00EC
```

### Event 101

#### Metadata

| Field        | Value    |
|--------------|----------|
| Entrypoint   | 0x00F3   |
| Data Size    | 28 bytes |
| Instructions | 8        |

```
      00 01 02 03 04 05 06 07  08 09 0A 0B 0C 0D 0E 0F
      -- -- -- -- -- -- -- --  -- -- -- -- -- -- -- --
00F0:          1E F0 FF FF 7F  6F 70 5B 00 80 F8 FF FF     .....op[.....
0100: 7F F8 FF FF 7F 74 6C 6B  30 1D 0E 80 23 21 00     .....tlk0...#!. 
```

#### Opcodes

```
  0: 0x00F3 [0x1E] EventEntity looks at LocalPlayer and starts talking
  1: 0x00F8 [0x6F] WAIT_FRAME_DELAY: Yield until WaitTime reaches zero
  2: 0x00F9 [0x70] WAIT_ENTITY_RENDER_FLAG: Wait while EventEntity->Render.Flags3 bit 2 is set (cancel turn if not)
  3: 0x00FA [0x5B] LOAD_EXT_SCHEDULER: Load scheduler "tlk0" with entities [EventEntity, EventEntity], work=65*
  4: 0x0109 [0x1D] PRINT_EVENT_MESSAGE(message_id=6923*)
    → "What now? I've nothing to say to you. Good day!"
  5: 0x010C [0x23] WAIT_FOR_DIALOG_INTERACTION
  6: 0x010D [0x21] END_EVENT
  7: 0x010E [0x00] END_REQSTACK()
```

### Event 102

#### Metadata

| Field        | Value    |
|--------------|----------|
| Entrypoint   | 0x010F   |
| Data Size    | 45 bytes |
| Instructions | 15       |

```
      00 01 02 03 04 05 06 07  08 09 0A 0B 0C 0D 0E 0F
      -- -- -- -- -- -- -- --  -- -- -- -- -- -- -- --
0100:                                               1E                 .
0110: F0 FF FF 7F 6F 70 5B 00  80 F8 FF FF 7F F8 FF FF  ....op[.........
0120: 7F 74 6C 6B 30 1D 0F 80  23 1D 10 80 23 1D 11 80  .tlk0...#...#...
0130: 23 1D 12 80 23 03 01 10  0D 80 21 00              #...#.....!.    
```

#### Opcodes

```
  0: 0x010F [0x1E] EventEntity looks at LocalPlayer and starts talking
  1: 0x0114 [0x6F] WAIT_FRAME_DELAY: Yield until WaitTime reaches zero
  2: 0x0115 [0x70] WAIT_ENTITY_RENDER_FLAG: Wait while EventEntity->Render.Flags3 bit 2 is set (cancel turn if not)
  3: 0x0116 [0x5B] LOAD_EXT_SCHEDULER: Load scheduler "tlk0" with entities [EventEntity, EventEntity], work=65*
  4: 0x0125 [0x1D] PRINT_EVENT_MESSAGE(message_id=6924*)
    → "You again! What is it this time? I'd rather die than eat any more of his grub!"
  5: 0x0128 [0x23] WAIT_FOR_DIALOG_INTERACTION
  6: 0x0129 [0x1D] PRINT_EVENT_MESSAGE(message_id=6925*)
    → "What? You want me to cook something? I'm sure you're up to no good, but as a chef I can't turn you down."
  7: 0x012C [0x23] WAIT_FOR_DIALOG_INTERACTION
  8: 0x012D [0x1D] PRINT_EVENT_MESSAGE(message_id=6926*)
    → "Fine, then! I'll prepare your little dish, but first you must bring me the ingredients I require."
  9: 0x0130 [0x23] WAIT_FOR_DIALOG_INTERACTION
 10: 0x0131 [0x1D] PRINT_EVENT_MESSAGE(message_id=6927*)
    → "I'll need $0 and $1. Now, make haste!"
 11: 0x0134 [0x23] WAIT_FOR_DIALOG_INTERACTION
 12: 0x0135 [0x03] Work_Zone[1] = 100*
 13: 0x013A [0x21] END_EVENT
 14: 0x013B [0x00] END_REQSTACK()
```

### Event 103

#### Metadata

| Field        | Value    |
|--------------|----------|
| Entrypoint   | 0x013C   |
| Data Size    | 36 bytes |
| Instructions | 11       |

```
      00 01 02 03 04 05 06 07  08 09 0A 0B 0C 0D 0E 0F
      -- -- -- -- -- -- -- --  -- -- -- -- -- -- -- --
0130:                                      42 20 01 1E              B ..
0140: F0 FF FF 7F 6F 70 5B 00  80 F8 FF FF 7F F8 FF FF  ....op[.........
0150: 7F 74 6C 6B 30 1D 13 80  23 03 01 10 0D 80 21 00  .tlk0...#.....!.
```

#### Opcodes

```
  0: 0x013C [0x42] SET_CLI_EVENT_CANCEL_DATA()
  1: 0x013D [0x20] SET_CLI_EVENT_UC_FLAG: Lock player control
  2: 0x013F [0x1E] EventEntity looks at LocalPlayer and starts talking
  3: 0x0144 [0x6F] WAIT_FRAME_DELAY: Yield until WaitTime reaches zero
  4: 0x0145 [0x70] WAIT_ENTITY_RENDER_FLAG: Wait while EventEntity->Render.Flags3 bit 2 is set (cancel turn if not)
  5: 0x0146 [0x5B] LOAD_EXT_SCHEDULER: Load scheduler "tlk0" with entities [EventEntity, EventEntity], work=65*
  6: 0x0155 [0x1D] PRINT_EVENT_MESSAGE(message_id=6929*)
    → "Hmph. So you found them, did you? Fine! Come see me tomorrow. It should be ready by then."
  7: 0x0158 [0x23] WAIT_FOR_DIALOG_INTERACTION
  8: 0x0159 [0x03] Work_Zone[1] = 100*
  9: 0x015E [0x21] END_EVENT
 10: 0x015F [0x00] END_REQSTACK()
```

### Event 104

#### Metadata

| Field        | Value    |
|--------------|----------|
| Entrypoint   | 0x0160   |
| Data Size    | 36 bytes |
| Instructions | 11       |

```
      00 01 02 03 04 05 06 07  08 09 0A 0B 0C 0D 0E 0F
      -- -- -- -- -- -- -- --  -- -- -- -- -- -- -- --
0160: 42 20 01 1E F0 FF FF 7F  6F 70 5B 00 80 F8 FF FF  B ......op[.....
0170: 7F F8 FF FF 7F 74 6C 6B  30 1D 14 80 23 03 01 10  .....tlk0...#...
0180: 0D 80 21 00                                       ..!.            
```

#### Opcodes

```
  0: 0x0160 [0x42] SET_CLI_EVENT_CANCEL_DATA()
  1: 0x0161 [0x20] SET_CLI_EVENT_UC_FLAG: Lock player control
  2: 0x0163 [0x1E] EventEntity looks at LocalPlayer and starts talking
  3: 0x0168 [0x6F] WAIT_FRAME_DELAY: Yield until WaitTime reaches zero
  4: 0x0169 [0x70] WAIT_ENTITY_RENDER_FLAG: Wait while EventEntity->Render.Flags3 bit 2 is set (cancel turn if not)
  5: 0x016A [0x5B] LOAD_EXT_SCHEDULER: Load scheduler "tlk0" with entities [EventEntity, EventEntity], work=65*
  6: 0x0179 [0x1D] PRINT_EVENT_MESSAGE(message_id=6928*)
    → "Where are those ingredients? I cannot start without them!"
  7: 0x017C [0x23] WAIT_FOR_DIALOG_INTERACTION
  8: 0x017D [0x03] Work_Zone[1] = 100*
  9: 0x0182 [0x21] END_EVENT
 10: 0x0183 [0x00] END_REQSTACK()
```

### Event 105

#### Metadata

| Field        | Value    |
|--------------|----------|
| Entrypoint   | 0x0184   |
| Data Size    | 36 bytes |
| Instructions | 11       |

```
      00 01 02 03 04 05 06 07  08 09 0A 0B 0C 0D 0E 0F
      -- -- -- -- -- -- -- --  -- -- -- -- -- -- -- --
0180:             42 20 01 1E  F0 FF FF 7F 6F 70 5B 00      B ......op[.
0190: 80 F8 FF FF 7F F8 FF FF  7F 74 6C 6B 30 1D 15 80  .........tlk0...
01A0: 23 03 01 10 0D 80 21 00                           #.....!.        
```

#### Opcodes

```
  0: 0x0184 [0x42] SET_CLI_EVENT_CANCEL_DATA()
  1: 0x0185 [0x20] SET_CLI_EVENT_UC_FLAG: Lock player control
  2: 0x0187 [0x1E] EventEntity looks at LocalPlayer and starts talking
  3: 0x018C [0x6F] WAIT_FRAME_DELAY: Yield until WaitTime reaches zero
  4: 0x018D [0x70] WAIT_ENTITY_RENDER_FLAG: Wait while EventEntity->Render.Flags3 bit 2 is set (cancel turn if not)
  5: 0x018E [0x5B] LOAD_EXT_SCHEDULER: Load scheduler "tlk0" with entities [EventEntity, EventEntity], work=65*
  6: 0x019D [0x1D] PRINT_EVENT_MESSAGE(message_id=6931*)
    → "Done! Now, take it and get out of here!"
  7: 0x01A0 [0x23] WAIT_FOR_DIALOG_INTERACTION
  8: 0x01A1 [0x03] Work_Zone[1] = 100*
  9: 0x01A6 [0x21] END_EVENT
 10: 0x01A7 [0x00] END_REQSTACK()
```

### Event 106

#### Metadata

| Field        | Value     |
|--------------|-----------|
| Entrypoint   | 0x01A8    |
| Data Size    | 188 bytes |
| Instructions | 37        |

```
      00 01 02 03 04 05 06 07  08 09 0A 0B 0C 0D 0E 0F
      -- -- -- -- -- -- -- --  -- -- -- -- -- -- -- --
01A0:                          42 20 01 1E F0 FF FF 7F          B ......
01B0: 6F 70 5B 00 80 F8 FF FF  7F F8 FF FF 7F 74 6C 6B  op[..........tlk
01C0: 30 1D 16 80 23 53 F8 FF  FF 7F F8 FF FF 7F 74 6C  0...#S........tl
01D0: 6B 30 03 00 00 83 7F 08  00 00 05 80 39 00 00 45  k0..........9..E
01E0: 06 80 F0 FF FF 7F F0 FF  FF 7F 66 64 6F 31 03 80  ..........fdo1..
01F0: 1C 07 80 45 06 80 F0 FF  FF 7F F0 FF FF 7F 66 64  ...E..........fd
0200: 69 31 03 80 1E F0 FF FF  7F 6F 70 1C 08 80 5B 00  i1.......op...[.
0210: 80 F8 FF FF 7F F8 FF FF  7F 74 6C 6B 30 1D 17 80  .........tlk0...
0220: 23 1D 18 80 23 1D 19 80  23 1D 1A 80 23 1D 1B 80  #...#...#...#...
0230: 23 1D 1C 80 53 F8 FF FF  7F F8 FF FF 7F 74 6C 6B  #...S........tlk
0240: 30 5B 00 80 F8 FF FF 7F  F8 FF FF 7F 70 61 73 30  0[..........pas0
0250: 53 F8 FF FF 7F F8 FF FF  7F 70 61 73 30 03 01 10  S........pas0...
0260: 0D 80 21 00                                       ..!.            
```

#### Opcodes

```
  0: 0x01A8 [0x42] SET_CLI_EVENT_CANCEL_DATA()
  1: 0x01A9 [0x20] SET_CLI_EVENT_UC_FLAG: Lock player control
  2: 0x01AB [0x1E] EventEntity looks at LocalPlayer and starts talking
  3: 0x01B0 [0x6F] WAIT_FRAME_DELAY: Yield until WaitTime reaches zero
  4: 0x01B1 [0x70] WAIT_ENTITY_RENDER_FLAG: Wait while EventEntity->Render.Flags3 bit 2 is set (cancel turn if not)
  5: 0x01B2 [0x5B] LOAD_EXT_SCHEDULER: Load scheduler "tlk0" with entities [EventEntity, EventEntity], work=65*
  6: 0x01C1 [0x1D] PRINT_EVENT_MESSAGE(message_id=6934*)
    → "What, you again? Well, I'm not about to chastise you. Very well, I'll have a look. Give me a moment."
  7: 0x01C4 [0x23] WAIT_FOR_DIALOG_INTERACTION
  8: 0x01C5 [0x53] WAIT_SCHEDULER_TASK: Wait for scheduler "tlk0" with entities [EventEntity, EventEntity]
  9: 0x01D2 [0x03] ExtData[1]->WorkLocal[0] = enDirCli(LocalPlayer->LocalPosition.Unknown0000) * 4096.0 * 0.15915963
 10: 0x01D7 [0x08] ExtData[1]->WorkLocal[0] -= 2048*
 11: 0x01DC [0x39] SET_ENTITY_DIRECTION(direction=ExtData[1]->WorkLocal[0])
 12: 0x01DF [0x45] LOAD_SCHEDULED_TASK: Load scheduler "fdo1" with entities [LocalPlayer, LocalPlayer], work=[200*, 0*]
 13: 0x01F0 [0x1C] WAIT(120* ticks)
 14: 0x01F3 [0x45] LOAD_SCHEDULED_TASK: Load scheduler "fdi1" with entities [LocalPlayer, LocalPlayer], work=[200*, 0*]
 15: 0x0204 [0x1E] EventEntity looks at LocalPlayer and starts talking
 16: 0x0209 [0x6F] WAIT_FRAME_DELAY: Yield until WaitTime reaches zero
 17: 0x020A [0x70] WAIT_ENTITY_RENDER_FLAG: Wait while EventEntity->Render.Flags3 bit 2 is set (cancel turn if not)
 18: 0x020B [0x1C] WAIT(60* ticks)
 19: 0x020E [0x5B] LOAD_EXT_SCHEDULER: Load scheduler "tlk0" with entities [EventEntity, EventEntity], work=65*
 20: 0x021D [0x1D] PRINT_EVENT_MESSAGE(message_id=6935*)
    → "It's true he has improved. But still he fails to grasp the basics of cooking. There's more to it than haggling over ingredients!"
 21: 0x0220 [0x23] WAIT_FOR_DIALOG_INTERACTION
 22: 0x0221 [0x1D] PRINT_EVENT_MESSAGE(message_id=6936*)
    → "Everything has a foundation, not just cooking. Making things good on the outside is easy; it is what's inside that counts."
 23: 0x0224 [0x23] WAIT_FOR_DIALOG_INTERACTION
 24: 0x0225 [0x1D] PRINT_EVENT_MESSAGE(message_id=6937*)
    → "Only when one has understood the basics can they make the inside good. Amateurs hurry the most; too often they focus on appearance."
 25: 0x0228 [0x23] WAIT_FOR_DIALOG_INTERACTION
 26: 0x0229 [0x1D] PRINT_EVENT_MESSAGE(message_id=6938*)
    → "Rycharde is the perfect example. He simply isn't the prodigy I hoped for."
 27: 0x022C [0x23] WAIT_FOR_DIALOG_INTERACTION
 28: 0x022D [0x1D] PRINT_EVENT_MESSAGE(message_id=6939*)
    → "He may be my son, but he'll never be a chef in my eyes. Well, that's a lecture not meant for you."
 29: 0x0230 [0x23] WAIT_FOR_DIALOG_INTERACTION
 30: 0x0231 [0x1D] PRINT_EVENT_MESSAGE(message_id=6940*)
    → "Are you heading back now? Please, give this to him. Tell him it's my reply. If he doesn't understand what it means, then that will be it."
 31: 0x0234 [0x53] WAIT_SCHEDULER_TASK: Wait for scheduler "tlk0" with entities [EventEntity, EventEntity]
 32: 0x0241 [0x5B] LOAD_EXT_SCHEDULER: Load scheduler "pas0" with entities [EventEntity, EventEntity], work=65*
 33: 0x0250 [0x53] WAIT_SCHEDULER_TASK: Wait for scheduler "pas0" with entities [EventEntity, EventEntity]
 34: 0x025D [0x03] Work_Zone[1] = 100*
 35: 0x0262 [0x21] END_EVENT
 36: 0x0263 [0x00] END_REQSTACK()
```

### Event 107

#### Metadata

| Field        | Value    |
|--------------|----------|
| Entrypoint   | 0x0264   |
| Data Size    | 96 bytes |
| Instructions | 22       |

```
      00 01 02 03 04 05 06 07  08 09 0A 0B 0C 0D 0E 0F
      -- -- -- -- -- -- -- --  -- -- -- -- -- -- -- --
0260:             1E F0 FF FF  7F 6F 70 5B 00 80 F8 FF      .....op[....
0270: FF 7F F8 FF FF 7F 74 6C  6B 30 1D 1D 80 23 1D 1E  ......tlk0...#..
0280: 80 23 1D 1F 80 23 1D 20  80 23 1D 21 80 23 53 F8  .#...#. .#.!.#S.
0290: FF FF 7F F8 FF FF 7F 74  6C 6B 30 5B 00 80 F8 FF  .......tlk0[....
02A0: FF 7F F8 FF FF 7F 74 68  6B 31 1D 22 80 23 5B 00  ......thk1.".#[.
02B0: 80 F8 FF FF 7F F8 FF FF  7F 74 68 6B 32 03 01 10  .........thk2...
02C0: 0D 80 21 00                                       ..!.            
```

#### Opcodes

```
  0: 0x0264 [0x1E] EventEntity looks at LocalPlayer and starts talking
  1: 0x0269 [0x6F] WAIT_FRAME_DELAY: Yield until WaitTime reaches zero
  2: 0x026A [0x70] WAIT_ENTITY_RENDER_FLAG: Wait while EventEntity->Render.Flags3 bit 2 is set (cancel turn if not)
  3: 0x026B [0x5B] LOAD_EXT_SCHEDULER: Load scheduler "tlk0" with entities [EventEntity, EventEntity], work=65*
  4: 0x027A [0x1D] PRINT_EVENT_MESSAGE(message_id=6942*)
    → "You gave it to him, did you not? Back when I started teaching him how to cook, I often had him use $0 in his dishes."
  5: 0x027D [0x23] WAIT_FOR_DIALOG_INTERACTION
  6: 0x027E [0x1D] PRINT_EVENT_MESSAGE(message_id=6943*)
    → "% come cheaply of late. But that doesn't rule them out as ingredients."
  7: 0x0281 [0x23] WAIT_FOR_DIALOG_INTERACTION
  8: 0x0282 [0x1D] PRINT_EVENT_MESSAGE(message_id=6944*)
    → "You could also use pricey ingredients, and even though your utensils might be mediocre, your food will still come out tasting fine."
  9: 0x0285 [0x23] WAIT_FOR_DIALOG_INTERACTION
 10: 0x0286 [0x1D] PRINT_EVENT_MESSAGE(message_id=6945*)
    → "Delicious food is not made from fancy spices or cutlery. Nor does it come from any methodical analysis."
 11: 0x0289 [0x23] WAIT_FOR_DIALOG_INTERACTION
 12: 0x028A [0x1D] PRINT_EVENT_MESSAGE(message_id=6946*)
    → "Indeed, nothing is more crucial than the desire to satisfy others with good food, and thinking up ways to do it."
 13: 0x028D [0x23] WAIT_FOR_DIALOG_INTERACTION
 14: 0x028E [0x53] WAIT_SCHEDULER_TASK: Wait for scheduler "tlk0" with entities [EventEntity, EventEntity]
 15: 0x029B [0x5B] LOAD_EXT_SCHEDULER: Load scheduler "thk1" with entities [EventEntity, EventEntity], work=65*
 16: 0x02AA [0x1D] PRINT_EVENT_MESSAGE(message_id=6947*)
    → "If my son could only realize that, there may still be some hope for him."
 17: 0x02AD [0x23] WAIT_FOR_DIALOG_INTERACTION
 18: 0x02AE [0x5B] LOAD_EXT_SCHEDULER: Load scheduler "thk2" with entities [EventEntity, EventEntity], work=65*
 19: 0x02BD [0x03] Work_Zone[1] = 100*
 20: 0x02C2 [0x21] END_EVENT
 21: 0x02C3 [0x00] END_REQSTACK()
```

### Event 140

#### Metadata

| Field        | Value    |
|--------------|----------|
| Entrypoint   | 0x02C4   |
| Data Size    | 28 bytes |
| Instructions | 8        |

```
      00 01 02 03 04 05 06 07  08 09 0A 0B 0C 0D 0E 0F
      -- -- -- -- -- -- -- --  -- -- -- -- -- -- -- --
02C0:             1E F0 FF FF  7F 6F 70 5B 00 80 F8 FF      .....op[....
02D0: FF 7F F8 FF FF 7F 74 6C  6B 30 1D 23 80 23 21 00  ......tlk0.#.#!.
```

#### Opcodes

```
  0: 0x02C4 [0x1E] EventEntity looks at LocalPlayer and starts talking
  1: 0x02C9 [0x6F] WAIT_FRAME_DELAY: Yield until WaitTime reaches zero
  2: 0x02CA [0x70] WAIT_ENTITY_RENDER_FLAG: Wait while EventEntity->Render.Flags3 bit 2 is set (cancel turn if not)
  3: 0x02CB [0x5B] LOAD_EXT_SCHEDULER: Load scheduler "tlk0" with entities [EventEntity, EventEntity], work=65*
  4: 0x02DA [0x1D] PRINT_EVENT_MESSAGE(message_id=6916*)
    → "What? I'm busy. Can't this wait till later?"
  5: 0x02DD [0x23] WAIT_FOR_DIALOG_INTERACTION
  6: 0x02DE [0x21] END_EVENT
  7: 0x02DF [0x00] END_REQSTACK()
```

### Event 141

#### Metadata

| Field        | Value    |
|--------------|----------|
| Entrypoint   | 0x02E0   |
| Data Size    | 28 bytes |
| Instructions | 8        |

```
      00 01 02 03 04 05 06 07  08 09 0A 0B 0C 0D 0E 0F
      -- -- -- -- -- -- -- --  -- -- -- -- -- -- -- --
02E0: 1E F0 FF FF 7F 6F 70 5B  00 80 F8 FF FF 7F F8 FF  .....op[........
02F0: FF 7F 74 6C 6B 30 1D 24  80 23 21 00              ..tlk0.$.#!.    
```

#### Opcodes

```
  0: 0x02E0 [0x1E] EventEntity looks at LocalPlayer and starts talking
  1: 0x02E5 [0x6F] WAIT_FRAME_DELAY: Yield until WaitTime reaches zero
  2: 0x02E6 [0x70] WAIT_ENTITY_RENDER_FLAG: Wait while EventEntity->Render.Flags3 bit 2 is set (cancel turn if not)
  3: 0x02E7 [0x5B] LOAD_EXT_SCHEDULER: Load scheduler "tlk0" with entities [EventEntity, EventEntity], work=65*
  4: 0x02F6 [0x1D] PRINT_EVENT_MESSAGE(message_id=6930*)
    → "What now? It's not done yet! Don't worry, my dishes are always ready on time."
  5: 0x02F9 [0x23] WAIT_FOR_DIALOG_INTERACTION
  6: 0x02FA [0x21] END_EVENT
  7: 0x02FB [0x00] END_REQSTACK()
```

### Event 142

#### Metadata

| Field        | Value    |
|--------------|----------|
| Entrypoint   | 0x02FC   |
| Data Size    | 28 bytes |
| Instructions | 8        |

```
      00 01 02 03 04 05 06 07  08 09 0A 0B 0C 0D 0E 0F
      -- -- -- -- -- -- -- --  -- -- -- -- -- -- -- --
02F0:                                      1E F0 FF FF              ....
0300: 7F 6F 70 5B 00 80 F8 FF  FF 7F F8 FF FF 7F 74 6C  .op[..........tl
0310: 6B 30 1D 25 80 23 21 00                           k0.%.#!.        
```

#### Opcodes

```
  0: 0x02FC [0x1E] EventEntity looks at LocalPlayer and starts talking
  1: 0x0301 [0x6F] WAIT_FRAME_DELAY: Yield until WaitTime reaches zero
  2: 0x0302 [0x70] WAIT_ENTITY_RENDER_FLAG: Wait while EventEntity->Render.Flags3 bit 2 is set (cancel turn if not)
  3: 0x0303 [0x5B] LOAD_EXT_SCHEDULER: Load scheduler "tlk0" with entities [EventEntity, EventEntity], work=65*
  4: 0x0312 [0x1D] PRINT_EVENT_MESSAGE(message_id=6932*)
    → "What now? It's done, so leave me in peace!"
  5: 0x0315 [0x23] WAIT_FOR_DIALOG_INTERACTION
  6: 0x0316 [0x21] END_EVENT
  7: 0x0317 [0x00] END_REQSTACK()
```

### Event 143

#### Metadata

| Field        | Value    |
|--------------|----------|
| Entrypoint   | 0x0318   |
| Data Size    | 28 bytes |
| Instructions | 8        |

```
      00 01 02 03 04 05 06 07  08 09 0A 0B 0C 0D 0E 0F
      -- -- -- -- -- -- -- --  -- -- -- -- -- -- -- --
0310:                          1E F0 FF FF 7F 6F 70 5B          .....op[
0320: 00 80 F8 FF FF 7F F8 FF  FF 7F 74 6C 6B 30 1D 26  ..........tlk0.&
0330: 80 23 21 00                                       .#!.            
```

#### Opcodes

```
  0: 0x0318 [0x1E] EventEntity looks at LocalPlayer and starts talking
  1: 0x031D [0x6F] WAIT_FRAME_DELAY: Yield until WaitTime reaches zero
  2: 0x031E [0x70] WAIT_ENTITY_RENDER_FLAG: Wait while EventEntity->Render.Flags3 bit 2 is set (cancel turn if not)
  3: 0x031F [0x5B] LOAD_EXT_SCHEDULER: Load scheduler "tlk0" with entities [EventEntity, EventEntity], work=65*
  4: 0x032E [0x1D] PRINT_EVENT_MESSAGE(message_id=6933*)
    → "Oh, you again. I hope you liked the dish."
  5: 0x0331 [0x23] WAIT_FOR_DIALOG_INTERACTION
  6: 0x0332 [0x21] END_EVENT
  7: 0x0333 [0x00] END_REQSTACK()
```

### Event 144

#### Metadata

| Field        | Value    |
|--------------|----------|
| Entrypoint   | 0x0334   |
| Data Size    | 28 bytes |
| Instructions | 8        |

```
      00 01 02 03 04 05 06 07  08 09 0A 0B 0C 0D 0E 0F
      -- -- -- -- -- -- -- --  -- -- -- -- -- -- -- --
0330:             1E F0 FF FF  7F 6F 70 5B 00 80 F8 FF      .....op[....
0340: FF 7F F8 FF FF 7F 74 6C  6B 30 1D 27 80 23 21 00  ......tlk0.'.#!.
```

#### Opcodes

```
  0: 0x0334 [0x1E] EventEntity looks at LocalPlayer and starts talking
  1: 0x0339 [0x6F] WAIT_FRAME_DELAY: Yield until WaitTime reaches zero
  2: 0x033A [0x70] WAIT_ENTITY_RENDER_FLAG: Wait while EventEntity->Render.Flags3 bit 2 is set (cancel turn if not)
  3: 0x033B [0x5B] LOAD_EXT_SCHEDULER: Load scheduler "tlk0" with entities [EventEntity, EventEntity], work=65*
  4: 0x034A [0x1D] PRINT_EVENT_MESSAGE(message_id=6941*)
    → "You gave it to him, did you not? I do hope he understood."
  5: 0x034D [0x23] WAIT_FOR_DIALOG_INTERACTION
  6: 0x034E [0x21] END_EVENT
  7: 0x034F [0x00] END_REQSTACK()
```

### Event 145

#### Metadata

| Field        | Value    |
|--------------|----------|
| Entrypoint   | 0x0350   |
| Data Size    | 28 bytes |
| Instructions | 8        |

```
      00 01 02 03 04 05 06 07  08 09 0A 0B 0C 0D 0E 0F
      -- -- -- -- -- -- -- --  -- -- -- -- -- -- -- --
0350: 1E F0 FF FF 7F 6F 70 5B  00 80 F8 FF FF 7F F8 FF  .....op[........
0360: FF 7F 74 6C 6B 30 1D 28  80 23 21 00              ..tlk0.(.#!.    
```

#### Opcodes

```
  0: 0x0350 [0x1E] EventEntity looks at LocalPlayer and starts talking
  1: 0x0355 [0x6F] WAIT_FRAME_DELAY: Yield until WaitTime reaches zero
  2: 0x0356 [0x70] WAIT_ENTITY_RENDER_FLAG: Wait while EventEntity->Render.Flags3 bit 2 is set (cancel turn if not)
  3: 0x0357 [0x5B] LOAD_EXT_SCHEDULER: Load scheduler "tlk0" with entities [EventEntity, EventEntity], work=65*
  4: 0x0366 [0x1D] PRINT_EVENT_MESSAGE(message_id=6948*)
    → "Cooking is a complex art, but the basics are as clear as day. I suppose that goes for just about anything."
  5: 0x0369 [0x23] WAIT_FOR_DIALOG_INTERACTION
  6: 0x036A [0x21] END_EVENT
  7: 0x036B [0x00] END_REQSTACK()
```

### Event 146

#### Metadata

| Field        | Value    |
|--------------|----------|
| Entrypoint   | 0x036C   |
| Data Size    | 28 bytes |
| Instructions | 8        |

```
      00 01 02 03 04 05 06 07  08 09 0A 0B 0C 0D 0E 0F
      -- -- -- -- -- -- -- --  -- -- -- -- -- -- -- --
0360:                                      1E F0 FF FF              ....
0370: 7F 6F 70 5B 00 80 F8 FF  FF 7F F8 FF FF 7F 74 6C  .op[..........tl
0380: 6B 30 1D 29 80 23 21 00                           k0.).#!.        
```

#### Opcodes

```
  0: 0x036C [0x1E] EventEntity looks at LocalPlayer and starts talking
  1: 0x0371 [0x6F] WAIT_FRAME_DELAY: Yield until WaitTime reaches zero
  2: 0x0372 [0x70] WAIT_ENTITY_RENDER_FLAG: Wait while EventEntity->Render.Flags3 bit 2 is set (cancel turn if not)
  3: 0x0373 [0x5B] LOAD_EXT_SCHEDULER: Load scheduler "tlk0" with entities [EventEntity, EventEntity], work=65*
  4: 0x0382 [0x1D] PRINT_EVENT_MESSAGE(message_id=6949*)
    → "Never forget to give thanks at each meal. The hands of many work hard to bring us sustenance."
  5: 0x0385 [0x23] WAIT_FOR_DIALOG_INTERACTION
  6: 0x0386 [0x21] END_EVENT
  7: 0x0387 [0x00] END_REQSTACK()
```

### Event 10002

#### Metadata

| Field        | Value   |
|--------------|---------|
| Entrypoint   | 0x0388  |
| Data Size    | 1 bytes |
| Instructions | 1       |

```
      00 01 02 03 04 05 06 07  08 09 0A 0B 0C 0D 0E 0F
      -- -- -- -- -- -- -- --  -- -- -- -- -- -- -- --
0380:                          00                               .       
```

#### Opcodes

```
  0: 0x0388 [0x00] END_REQSTACK()
```

### Event 10004

#### Metadata

| Field        | Value   |
|--------------|---------|
| Entrypoint   | 0x0389  |
| Data Size    | 1 bytes |
| Instructions | 1       |

```
      00 01 02 03 04 05 06 07  08 09 0A 0B 0C 0D 0E 0F
      -- -- -- -- -- -- -- --  -- -- -- -- -- -- -- --
0380:                             00                             .      
```

#### Opcodes

```
  0: 0x0389 [0x00] END_REQSTACK()
```
