# 17793138 - Jillia

## Common Data

| Field            | Value             |
|------------------|-------------------|
| Zone             | Selbina (ID: 248) |
| Block Size       | 692 bytes         |
| Total Events     | 9                 |
| References Count | 34                |

## List of Events

| Event ID              | Entrypoint   |   Size |   Instructions |
|-----------------------|--------------|--------|----------------|
| [65535](#event-65535) | 0x0000       |      1 |              1 |
| [10014](#event-10014) | 0x0001       |     35 |              9 |
| [10015](#event-10015) | 0x0024       |    281 |             59 |
| [10016](#event-10016) | 0x013D       |     27 |              7 |
| [10017](#event-10017) | 0x0158       |     27 |              7 |
| [10018](#event-10018) | 0x0173       |     33 |              9 |
| [10019](#event-10019) | 0x0194       |     41 |             11 |
| [10020](#event-10020) | 0x01BD       |     28 |              8 |
| [10021](#event-10021) | 0x01D9       |     29 |             13 |

## DAT References (imed_data)

|   Index | Hex Value   |   Dec Value |
|---------|-------------|-------------|
|       0 | 0x0014      |          20 |
|       1 | 0x1E67      |        7783 |
|       2 | 0x1E68      |        7784 |
|       3 | 0x1E69      |        7785 |
|       4 | 0x0013      |          19 |
|       5 | 0x0876      |        2166 |
|       6 | 0x1E6A      |        7786 |
|       7 | 0x1E6B      |        7787 |
|       8 | 0x1E6C      |        7788 |
|       9 | 0x0000      |           0 |
|      10 | 0x1EA3      |        7843 |
|      11 | 0x1E6E      |        7790 |
|      12 | 0x0003      |           3 |
|      13 | 0x0078      |         120 |
|      14 | 0x1EA8      |        7848 |
|      15 | 0x0001      |           1 |
|      16 | 0x1E6F      |        7791 |
|      17 | 0x1E70      |        7792 |
|      18 | 0x0022      |          34 |
|      19 | 0x1E71      |        7793 |
|      20 | 0x1E72      |        7794 |
|      21 | 0x1E73      |        7795 |
|      22 | 0x1E74      |        7796 |
|      23 | 0x1E75      |        7797 |
|      24 | 0x1E6D      |        7789 |
|      25 | 0x1E76      |        7798 |
|      26 | 0x1E77      |        7799 |
|      27 | 0x1737      |        5943 |
|      28 | 0x1E78      |        7800 |
|      29 | 0x1E79      |        7801 |
|      30 | 0x1E7A      |        7802 |
|      31 | 0x1E7B      |        7803 |
|      32 | 0x1E7C      |        7804 |
|      33 | 0x1E7D      |        7805 |

## String References

- **7802**: Ooh-hoo-hoo, is that a pioneer I spy? What can I do for you this fine day?
- **7803**: Some treats from Adoulin? For me? Tee-hee, this is so wonderful! Nothing like some yum-yums from back home to keep me bright and chipper!
- **7804**: Anastate wants a little bit of an update? Leave it so him to spoil all the fun. Let's see...
- **7805**: Well, these cute little fishies around here were just begging to be scooped up so I...? Wait, that's not what I meant! Tee-hee! I meant that things are so wonderful over here that he shouldn't worry his head off about sweet ol' me!
- **7843**: Record this fount? [Yes./No.]
- **7848**: Your $3 has been attuned to a geomagnetic fount[ in Selbina/ in Mhaura/ in Rabao/ in Norg]!

## Events

### Event 65535

#### Metadata

| Field        | Value   |
|--------------|---------|
| Entrypoint   | 0x0000  |
| Data Size    | 1 bytes |
| Instructions | 1       |

```
      00 01 02 03 04 05 06 07  08 09 0A 0B 0C 0D 0E 0F
      -- -- -- -- -- -- -- --  -- -- -- -- -- -- -- --
0000: 00                                                .               
```

#### Opcodes

```
  0: 0x0000 [0x00] END_REQSTACK()
```

### Event 10014

#### Metadata

| Field        | Value    |
|--------------|----------|
| Entrypoint   | 0x0001   |
| Data Size    | 35 bytes |
| Instructions | 9        |

```
      00 01 02 03 04 05 06 07  08 09 0A 0B 0C 0D 0E 0F
      -- -- -- -- -- -- -- --  -- -- -- -- -- -- -- --
0000:    4A F0 FF FF 7F 72 80  0F 01 1C 00 80 1E F0 FF   J....r.........
0010: FF 7F 2B 72 80 0F 01 01  80 23 2B 72 80 0F 01 02  ..+r.....#+r....
0020: 80 23 21 00                                       .#!.            
```

#### Opcodes

```
  0: 0x0001 [0x4A] LocalPlayer looks at Jillia (ID: 17793138/0x010F8072)
  1: 0x000A [0x1C] WAIT(20* ticks)
  2: 0x000D [0x1E] EventEntity looks at LocalPlayer and starts talking
  3: 0x0012 [0x2B] Jillia (ID: 17793138/0x010F8072) [7783*]:
    → "Nice to meet you. My name's Jillia, tee-hee!"
  4: 0x0019 [0x23] WAIT_FOR_DIALOG_INTERACTION
  5: 0x001A [0x2B] Jillia (ID: 17793138/0x010F8072) [7784*]:
    → "I thought that maybe if I jump up and down I could get high enough to see Adoulin over the horizon, but I can't!"
  6: 0x0021 [0x23] WAIT_FOR_DIALOG_INTERACTION
  7: 0x0022 [0x21] END_EVENT
  8: 0x0023 [0x00] END_REQSTACK()
```

### Event 10015

#### Metadata

| Field        | Value     |
|--------------|-----------|
| Entrypoint   | 0x0024    |
| Data Size    | 281 bytes |
| Instructions | 58        |

```
      00 01 02 03 04 05 06 07  08 09 0A 0B 0C 0D 0E 0F
      -- -- -- -- -- -- -- --  -- -- -- -- -- -- -- --
0020:             4A F0 FF FF  7F 72 80 0F 01 1C 00 80      J....r......
0030: 1E F0 FF FF 7F 2B 72 80  0F 01 03 80 23 66 04 80  .....+r.....#f..
0040: 72 80 0F 01 72 80 0F 01  74 6C 6B 30 03 02 10 05  r...r...tlk0....
0050: 80 2B 72 80 0F 01 06 80  23 2B 72 80 0F 01 07 80  .+r.....#+r.....
0060: 23 66 04 80 72 80 0F 01  72 80 0F 01 74 6C 6B 31  #f..r...r...tlk1
0070: 2B 72 80 0F 01 08 80 23  03 01 10 09 80 24 0A 80  +r.....#.....$..
0080: 09 80 09 80 25 02 00 10  09 80 00 26 01 42 03 02  ....%......&.B..
0090: 10 05 80 2B 72 80 0F 01  0B 80 23 6E F0 FF FF 7F  ...+r.....#n....
00A0: 0C 80 99 F0 FF FF 7F 1C  0D 80 23 03 03 10 05 80  ..........#.....
00B0: 03 02 10 09 80 48 0E 80  23 03 01 10 0F 80 2B 72  .....H..#.....+r
00C0: 80 0F 01 10 80 23 2B 72  80 0F 01 11 80 23 6E F0  .....#+r.....#n.
00D0: FF FF 7F 12 80 99 F0 FF  FF 7F 1C 0D 80 2B 72 80  .............+r.
00E0: 0F 01 13 80 23 66 04 80  72 80 0F 01 72 80 0F 01  ....#f..r...r...
00F0: 74 68 6B 31 2B 72 80 0F  01 14 80 23 2B 72 80 0F  thk1+r.....#+r..
0100: 01 15 80 23 2B 72 80 0F  01 16 80 23 66 04 80 72  ...#+r.....#f..r
0110: 80 0F 01 72 80 0F 01 74  68 6B 32 2B 72 80 0F 01  ...r...thk2+r...
0120: 17 80 23 01 3B 01 02 00  10 0F 80 00 3B 01 2B 72  ..#.;.......;.+r
0130: 80 0F 01 18 80 23 21 00  01 3B 01 21 00           .....#!..;.!.   
```

#### Opcodes

```
  0: 0x0024 [0x4A] LocalPlayer looks at Jillia (ID: 17793138/0x010F8072)
  1: 0x002D [0x1C] WAIT(20* ticks)
  2: 0x0030 [0x1E] EventEntity looks at LocalPlayer and starts talking
  3: 0x0035 [0x2B] Jillia (ID: 17793138/0x010F8072) [7785*]:
    → "Hi there! I'm Jillia, tee-hee!"
  4: 0x003C [0x23] WAIT_FOR_DIALOG_INTERACTION
  5: 0x003D [0x66] LOAD_EXT_SCHEDULER_MAIN: Load scheduler "tlk0" with entities [Jillia (ID: 17793138/0x010F8072), Jillia (ID: 17793138/0x010F8072)], work=19*
  6: 0x004C [0x03] Work_Zone[2] = 2166*
  7: 0x0051 [0x2B] Jillia (ID: 17793138/0x010F8072) [7786*]:
    → "Oooh, isn't that one of those $3 things? If you have one of those...it must mean..."
  8: 0x0058 [0x23] WAIT_FOR_DIALOG_INTERACTION
  9: 0x0059 [0x2B] Jillia (ID: 17793138/0x010F8072) [7787*]:
    → "...Aha, I think I get it now. Anastase sent you, didn't he? See, I'm so smart! Tee-hee."
 10: 0x0060 [0x23] WAIT_FOR_DIALOG_INTERACTION
 11: 0x0061 [0x66] LOAD_EXT_SCHEDULER_MAIN: Load scheduler "tlk1" with entities [Jillia (ID: 17793138/0x010F8072), Jillia (ID: 17793138/0x010F8072)], work=19*
 12: 0x0070 [0x2B] Jillia (ID: 17793138/0x010F8072) [7788*]:
    → "You want to...um...record this spot maybe?"
 13: 0x0077 [0x23] WAIT_FOR_DIALOG_INTERACTION
 14: 0x0078 [0x03] Work_Zone[1] = 0*
 15: 0x007D [0x24] CREATE_DIALOG(message_id=7843*, default_option=0*, option_flags=0*)
    → "Record this fount? [Yes./No.]"
 16: 0x0084 [0x25] WAIT_DIALOG_SELECT()
 17: 0x0085 [0x02] IF !(Work_Zone[0] == 0*) GOTO 0x0126
 18: 0x008D [0x42] SET_CLI_EVENT_CANCEL_DATA()
 19: 0x008E [0x03] Work_Zone[2] = 2166*
 20: 0x0093 [0x2B] Jillia (ID: 17793138/0x010F8072) [7790*]:
    → "What a dumb question! Of course you do! Just touch this sensitive area right here with your $3 and you're done. Be gentle now, tee-hee!"
 21: 0x009A [0x23] WAIT_FOR_DIALOG_INTERACTION
 22: 0x009B [0x6E] LocalPlayer uses emote 3*
 23: 0x00A2 [0x99] Wait for LocalPlayer animation to complete
 24: 0x00A7 [0x1C] WAIT(120* ticks)
 25: 0x00AA [0x23] WAIT_FOR_DIALOG_INTERACTION
 26: 0x00AB [0x03] Work_Zone[3] = 2166*
 27: 0x00B0 [0x03] Work_Zone[2] = 0*
 28: 0x00B5 [0x48] [System] [7848*]:
    → "Your $3 has been attuned to a geomagnetic fount[ in Selbina/ in Mhaura/ in Rabao/ in Norg]!"
 29: 0x00B8 [0x23] WAIT_FOR_DIALOG_INTERACTION
 30: 0x00B9 [0x03] Work_Zone[1] = 1*
 31: 0x00BE [0x2B] Jillia (ID: 17793138/0x010F8072) [7791*]:
    → "How'd it feel? Well, it mustn't have been too bad, because...uh...it looks like you got what you came for."
 32: 0x00C5 [0x23] WAIT_FOR_DIALOG_INTERACTION
 33: 0x00C6 [0x2B] Jillia (ID: 17793138/0x010F8072) [7792*]:
    → "I have to watch over this waypoint and whatnot, so come by anytime. I'll take you places you've never even dreamed of going, tee-hee!"
 34: 0x00CD [0x23] WAIT_FOR_DIALOG_INTERACTION
 35: 0x00CE [0x6E] LocalPlayer uses emote 34*
 36: 0x00D5 [0x99] Wait for LocalPlayer animation to complete
 37: 0x00DA [0x1C] WAIT(120* ticks)
 38: 0x00DD [0x2B] Jillia (ID: 17793138/0x010F8072) [7793*]:
    → "Awww, you mean I have to make a report to Anastase!? That's kind of...not fun."
 39: 0x00E4 [0x23] WAIT_FOR_DIALOG_INTERACTION
 40: 0x00E5 [0x66] LOAD_EXT_SCHEDULER_MAIN: Load scheduler "thk1" with entities [Jillia (ID: 17793138/0x010F8072), Jillia (ID: 17793138/0x010F8072)], work=19*
 41: 0x00F4 [0x2B] Jillia (ID: 17793138/0x010F8072) [7794*]:
    → "I'm, well, supposed to be doing neat investigamatory stuff and whatnot, you know? I don't...er...have the time to go make a report."
 42: 0x00FB [0x23] WAIT_FOR_DIALOG_INTERACTION
 43: 0x00FC [0x2B] Jillia (ID: 17793138/0x010F8072) [7795*]:
    → "I'm definitely not saying that because the milk here is just to die for or anything, okay? It does go down awful smooth, though. And I hear the wrinkly dried goods look terrible, but taste even better, tee-hee!"
 44: 0x0103 [0x23] WAIT_FOR_DIALOG_INTERACTION
 45: 0x0104 [0x2B] Jillia (ID: 17793138/0x010F8072) [7796*]:
    → "I'm about to...um...make some important headway and stuff into the water crisis Adoulin's facing. No joke."
 46: 0x010B [0x23] WAIT_FOR_DIALOG_INTERACTION
 47: 0x010C [0x66] LOAD_EXT_SCHEDULER_MAIN: Load scheduler "thk2" with entities [Jillia (ID: 17793138/0x010F8072), Jillia (ID: 17793138/0x010F8072)], work=19*
 48: 0x011B [0x2B] Jillia (ID: 17793138/0x010F8072) [7797*]:
    → "Yeah...so tell him my hands are completely full right now."
 49: 0x0122 [0x23] WAIT_FOR_DIALOG_INTERACTION
 50: 0x0123 [0x01] GOTO 0x013B
 51: 0x0126 [0x02] IF !(Work_Zone[0] == 1*) GOTO 0x013B
 52: 0x012E [0x2B] Jillia (ID: 17793138/0x010F8072) [7789*]:
    → "What a dumb question! Of course you do! ...Wait, you don't!?"
 53: 0x0135 [0x23] WAIT_FOR_DIALOG_INTERACTION
 54: 0x0136 [0x21] END_EVENT
 55: 0x0137 [0x00] END_REQSTACK()

SUBROUTINE_013B:
 56: 0x013B [0x21] END_EVENT
 57: 0x013C [0x00] END_REQSTACK()
```

#### Data or dead code:

```
# Dead code (unreachable instructions):
     0x0138 [0x01] GOTO 0x013B
```

### Event 10016

#### Metadata

| Field        | Value    |
|--------------|----------|
| Entrypoint   | 0x013D   |
| Data Size    | 27 bytes |
| Instructions | 7        |

```
      00 01 02 03 04 05 06 07  08 09 0A 0B 0C 0D 0E 0F
      -- -- -- -- -- -- -- --  -- -- -- -- -- -- -- --
0130:                                         4A F0 FF               J..
0140: FF 7F 72 80 0F 01 1C 00  80 1E F0 FF FF 7F 2B 72  ..r...........+r
0150: 80 0F 01 19 80 23 21 00                           .....#!.        
```

#### Opcodes

```
  0: 0x013D [0x4A] LocalPlayer looks at Jillia (ID: 17793138/0x010F8072)
  1: 0x0146 [0x1C] WAIT(20* ticks)
  2: 0x0149 [0x1E] EventEntity looks at LocalPlayer and starts talking
  3: 0x014E [0x2B] Jillia (ID: 17793138/0x010F8072) [7798*]:
    → "This continent has so many interesting fishes, don't you think? I clearly need to investigate this phenomanomonon. That is how you say it, right?"
  4: 0x0155 [0x23] WAIT_FOR_DIALOG_INTERACTION
  5: 0x0156 [0x21] END_EVENT
  6: 0x0157 [0x00] END_REQSTACK()
```

### Event 10017

#### Metadata

| Field        | Value    |
|--------------|----------|
| Entrypoint   | 0x0158   |
| Data Size    | 27 bytes |
| Instructions | 7        |

```
      00 01 02 03 04 05 06 07  08 09 0A 0B 0C 0D 0E 0F
      -- -- -- -- -- -- -- --  -- -- -- -- -- -- -- --
0150:                          4A F0 FF FF 7F 72 80 0F          J....r..
0160: 01 1C 00 80 1E F0 FF FF  7F 2B 72 80 0F 01 1A 80  .........+r.....
0170: 23 21 00                                          #!.             
```

#### Opcodes

```
  0: 0x0158 [0x4A] LocalPlayer looks at Jillia (ID: 17793138/0x010F8072)
  1: 0x0161 [0x1C] WAIT(20* ticks)
  2: 0x0164 [0x1E] EventEntity looks at LocalPlayer and starts talking
  3: 0x0169 [0x2B] Jillia (ID: 17793138/0x010F8072) [7799*]:
    → "The Adoulin islands are kind of like an island, but with lots of islands, right? But did you know that means there's lots of water around them!? No wonder we eat so many fish back home! Because fish live in water, tee-hee!"
  4: 0x0170 [0x23] WAIT_FOR_DIALOG_INTERACTION
  5: 0x0171 [0x21] END_EVENT
  6: 0x0172 [0x00] END_REQSTACK()
```

### Event 10018

#### Metadata

| Field        | Value    |
|--------------|----------|
| Entrypoint   | 0x0173   |
| Data Size    | 33 bytes |
| Instructions | 9        |

```
      00 01 02 03 04 05 06 07  08 09 0A 0B 0C 0D 0E 0F
      -- -- -- -- -- -- -- --  -- -- -- -- -- -- -- --
0170:          42 4A F0 FF FF  7F 72 80 0F 01 1C 00 80     BJ....r......
0180: 1E F0 FF FF 7F 03 02 10  1B 80 2B 72 80 0F 01 1C  ..........+r....
0190: 80 23 21 00                                       .#!.            
```

#### Opcodes

```
  0: 0x0173 [0x42] SET_CLI_EVENT_CANCEL_DATA()
  1: 0x0174 [0x4A] LocalPlayer looks at Jillia (ID: 17793138/0x010F8072)
  2: 0x017D [0x1C] WAIT(20* ticks)
  3: 0x0180 [0x1E] EventEntity looks at LocalPlayer and starts talking
  4: 0x0185 [0x03] Work_Zone[2] = 5943*
  5: 0x018A [0x2B] Jillia (ID: 17793138/0x010F8072) [7800*]:
    → "Ohmygoddessohmygoddessohmygoddess! I never thought I'd stumble upon $0 here! Thank you from the deepest part of my heart!"
  6: 0x0191 [0x23] WAIT_FOR_DIALOG_INTERACTION
  7: 0x0192 [0x21] END_EVENT
  8: 0x0193 [0x00] END_REQSTACK()
```

### Event 10019

#### Metadata

| Field        | Value    |
|--------------|----------|
| Entrypoint   | 0x0194   |
| Data Size    | 41 bytes |
| Instructions | 11       |

```
      00 01 02 03 04 05 06 07  08 09 0A 0B 0C 0D 0E 0F
      -- -- -- -- -- -- -- --  -- -- -- -- -- -- -- --
0190:             42 4A F0 FF  FF 7F 72 80 0F 01 1C 00      BJ....r.....
01A0: 80 1E F0 FF FF 7F 03 02  10 1B 80 2B 72 80 0F 01  ...........+r...
01B0: 1C 80 23 2B 72 80 0F 01  1D 80 23 21 00           ..#+r.....#!.   
```

#### Opcodes

```
  0: 0x0194 [0x42] SET_CLI_EVENT_CANCEL_DATA()
  1: 0x0195 [0x4A] LocalPlayer looks at Jillia (ID: 17793138/0x010F8072)
  2: 0x019E [0x1C] WAIT(20* ticks)
  3: 0x01A1 [0x1E] EventEntity looks at LocalPlayer and starts talking
  4: 0x01A6 [0x03] Work_Zone[2] = 5943*
  5: 0x01AB [0x2B] Jillia (ID: 17793138/0x010F8072) [7800*]:
    → "Ohmygoddessohmygoddessohmygoddess! I never thought I'd stumble upon $0 here! Thank you from the deepest part of my heart!"
  6: 0x01B2 [0x23] WAIT_FOR_DIALOG_INTERACTION
  7: 0x01B3 [0x2B] Jillia (ID: 17793138/0x010F8072) [7801*]:
    → "How about I give you this in return? It tickles the throat and leaves you feeling refreshed."
  8: 0x01BA [0x23] WAIT_FOR_DIALOG_INTERACTION
  9: 0x01BB [0x21] END_EVENT
 10: 0x01BC [0x00] END_REQSTACK()
```

### Event 10020

#### Metadata

| Field        | Value    |
|--------------|----------|
| Entrypoint   | 0x01BD   |
| Data Size    | 28 bytes |
| Instructions | 8        |

```
      00 01 02 03 04 05 06 07  08 09 0A 0B 0C 0D 0E 0F
      -- -- -- -- -- -- -- --  -- -- -- -- -- -- -- --
01B0:                                         42 4A F0               BJ.
01C0: FF FF 7F 72 80 0F 01 1C  00 80 1E F0 FF FF 7F 2B  ...r...........+
01D0: 72 80 0F 01 1D 80 23 21  00                       r.....#!.       
```

#### Opcodes

```
  0: 0x01BD [0x42] SET_CLI_EVENT_CANCEL_DATA()
  1: 0x01BE [0x4A] LocalPlayer looks at Jillia (ID: 17793138/0x010F8072)
  2: 0x01C7 [0x1C] WAIT(20* ticks)
  3: 0x01CA [0x1E] EventEntity looks at LocalPlayer and starts talking
  4: 0x01CF [0x2B] Jillia (ID: 17793138/0x010F8072) [7801*]:
    → "How about I give you this in return? It tickles the throat and leaves you feeling refreshed."
  5: 0x01D6 [0x23] WAIT_FOR_DIALOG_INTERACTION
  6: 0x01D7 [0x21] END_EVENT
  7: 0x01D8 [0x00] END_REQSTACK()
```

### Event 10021

#### Metadata

| Field        | Value    |
|--------------|----------|
| Entrypoint   | 0x01D9   |
| Data Size    | 29 bytes |
| Instructions | 13       |

```
      00 01 02 03 04 05 06 07  08 09 0A 0B 0C 0D 0E 0F
      -- -- -- -- -- -- -- --  -- -- -- -- -- -- -- --
01D0:                             42 1E F0 FF FF 7F 1D           B......
01E0: 1E 80 23 1D 1F 80 23 1D  20 80 23 1D 21 80 23 03  ..#...#. .#.!.#.
01F0: 01 10 0F 80 21 00                                 ....!.          
```

#### Opcodes

```
  0: 0x01D9 [0x42] SET_CLI_EVENT_CANCEL_DATA()
  1: 0x01DA [0x1E] EventEntity looks at LocalPlayer and starts talking
  2: 0x01DF [0x1D] PRINT_EVENT_MESSAGE(message_id=7802*)
    → "Ooh-hoo-hoo, is that a pioneer I spy? What can I do for you this fine day?"
  3: 0x01E2 [0x23] WAIT_FOR_DIALOG_INTERACTION
  4: 0x01E3 [0x1D] PRINT_EVENT_MESSAGE(message_id=7803*)
    → "Some treats from Adoulin? For me? Tee-hee, this is so wonderful! Nothing like some yum-yums from back home to keep me bright and chipper!"
  5: 0x01E6 [0x23] WAIT_FOR_DIALOG_INTERACTION
  6: 0x01E7 [0x1D] PRINT_EVENT_MESSAGE(message_id=7804*)
    → "Anastate wants a little bit of an update? Leave it so him to spoil all the fun. Let's see..."
  7: 0x01EA [0x23] WAIT_FOR_DIALOG_INTERACTION
  8: 0x01EB [0x1D] PRINT_EVENT_MESSAGE(message_id=7805*)
    → "Well, these cute little fishies around here were just begging to be scooped up so I...? Wait, that's not what I meant! Tee-hee! I meant that things are so wonderful over here that he shouldn't worry his head off about sweet ol' me!"
  9: 0x01EE [0x23] WAIT_FOR_DIALOG_INTERACTION
 10: 0x01EF [0x03] Work_Zone[1] = 1*
 11: 0x01F4 [0x21] END_EVENT
 12: 0x01F5 [0x00] END_REQSTACK()
```
