# 17793028 - Evrard

## Common Data

| Field            | Value             |
|------------------|-------------------|
| Zone             | Selbina (ID: 248) |
| Block Size       | 168 bytes         |
| Total Events     | 5                 |
| References Count | 6                 |

## List of Events

| Event ID                 | Entrypoint   |   Size |   Instructions |
|--------------------------|--------------|--------|----------------|
| [65535](#event-65535)    | 0x0000       |      1 |              1 |
| [81](#event-81)          | 0x0001       |      9 |              3 |
| [65535.1](#event-655351) | 0x000A       |     21 |              7 |
| [65535.2](#event-655352) | 0x001F       |     68 |             12 |
| [65535.3](#event-655353) | 0x0063       |      9 |              3 |

## DAT References (imed_data)

|   Index | Hex Value   |   Dec Value |
|---------|-------------|-------------|
|       0 | 0x0028      |          40 |
|       1 | 0xFFFF1ABD  |  4294908605 |
|       2 | 0x211A      |        8474 |
|       3 | 0xFFFFD6C2  |  4294956738 |
|       4 | 0x0000      |           0 |
|       5 | 0x1ABA      |        6842 |

## String References

- **6842**: Whew, I'm so glad we're free! We owe our lives to you!

## Events

### Event 65535

#### Metadata

| Field        | Value   |
|--------------|---------|
| Entrypoint   | 0x0000  |
| Data Size    | 1 bytes |
| Instructions | 1       |

```
      00 01 02 03 04 05 06 07  08 09 0A 0B 0C 0D 0E 0F
      -- -- -- -- -- -- -- --  -- -- -- -- -- -- -- --
0000: 00                                                .               
```

#### Opcodes

```
  0: 0x0000 [0x00] END_REQSTACK()
```

### Event 81

#### Metadata

| Field        | Value   |
|--------------|---------|
| Entrypoint   | 0x0001  |
| Data Size    | 9 bytes |
| Instructions | 3       |

```
      00 01 02 03 04 05 06 07  08 09 0A 0B 0C 0D 0E 0F
      -- -- -- -- -- -- -- --  -- -- -- -- -- -- -- --
0000:    22 00 2F 00 04 80 0F  01 00                     "./......      
```

#### Opcodes

```
  0: 0x0001 [0x22] ENTITY_HIDE_FLAG(enabled=0x00)
  1: 0x0003 [0x2F] Evrard (ID: 17793028/0x010F8004)->Render.Flags0 &= ~0x80000 // Bit 19
  2: 0x0009 [0x00] END_REQSTACK()
```

### Event 65535.1

#### Metadata

| Field        | Value    |
|--------------|----------|
| Entrypoint   | 0x000A   |
| Data Size    | 21 bytes |
| Instructions | 7        |

```
      00 01 02 03 04 05 06 07  08 09 0A 0B 0C 0D 0E 0F
      -- -- -- -- -- -- -- --  -- -- -- -- -- -- -- --
0000:                                32 00 80 1F 00 01            2.....
0010: 80 02 80 03 80 1F 01 1E  F0 FF FF 7F 6F 70 00     ............op. 
```

#### Opcodes

```
  0: 0x000A [0x32] ExtData[1]->MainSpeed = 40* * 0.1
  1: 0x000D [0x1F] MOVE_ENTITY: EventEntity moves to X=-58.691*, Z=8.474*, Y=-10.558*
  2: 0x0015 [0x1F] MOVE_ENTITY: Update entity position (mode=1)
  3: 0x0017 [0x1E] EventEntity looks at LocalPlayer and starts talking
  4: 0x001C [0x6F] WAIT_FRAME_DELAY: Yield until WaitTime reaches zero
  5: 0x001D [0x70] WAIT_ENTITY_RENDER_FLAG: Wait while EventEntity->Render.Flags3 bit 2 is set (cancel turn if not)
  6: 0x001E [0x00] END_REQSTACK()
```

### Event 65535.2

#### Metadata

| Field        | Value    |
|--------------|----------|
| Entrypoint   | 0x001F   |
| Data Size    | 68 bytes |
| Instructions | 12       |

```
      00 01 02 03 04 05 06 07  08 09 0A 0B 0C 0D 0E 0F
      -- -- -- -- -- -- -- --  -- -- -- -- -- -- -- --
0010:                                               66                 f
0020: 04 80 F8 FF FF 7F F8 FF  FF 7F 74 6C 6B 30 1D 05  ..........tlk0..
0030: 80 4A F0 FF FF 7F F8 FF  FF 7F 4A 02 80 0F 01 F8  .J........J.....
0040: FF FF 7F 6F 76 F0 FF FF  7F 6F 76 02 80 0F 01 23  ...ov....ov....#
0050: 53 F8 FF FF 7F F8 FF FF  7F 74 6C 6B 32 5E 69 64  S........tlk2^id
0060: 6C 30 00                                          l0.             
```

#### Opcodes

```
  0: 0x001F [0x66] LOAD_EXT_SCHEDULER_MAIN: Load scheduler "tlk0" with entities [EventEntity, EventEntity], work=0*
  1: 0x002E [0x1D] PRINT_EVENT_MESSAGE(message_id=6842*)
    → "Whew, I'm so glad we're free! We owe our lives to you!"
  2: 0x0031 [0x4A] LocalPlayer looks at EventEntity
  3: 0x003A [0x4A] Thunder Hawk (ID: 17793026/0x010F8002) looks at EventEntity
  4: 0x0043 [0x6F] WAIT_FRAME_DELAY: Yield until WaitTime reaches zero
  5: 0x0044 [0x76] CHECK_ENTITY_RENDER_FLAGS: Wait until LocalPlayer Render.Flags0 and Render.Flags3 conditions are met
  6: 0x0049 [0x6F] WAIT_FRAME_DELAY: Yield until WaitTime reaches zero
  7: 0x004A [0x76] CHECK_ENTITY_RENDER_FLAGS: Wait until Thunder Hawk (ID: 17793026/0x010F8002) Render.Flags0 and Render.Flags3 conditions are met
  8: 0x004F [0x23] WAIT_FOR_DIALOG_INTERACTION
  9: 0x0050 [0x53] WAIT_SCHEDULER_TASK: Wait for scheduler "tlk2" with entities [EventEntity, EventEntity]
 10: 0x005D [0x5E] EventEntity goes idle (kills current action) (animation: "idl0")
 11: 0x0062 [0x00] END_REQSTACK()
```

### Event 65535.3

#### Metadata

| Field        | Value   |
|--------------|---------|
| Entrypoint   | 0x0063  |
| Data Size    | 9 bytes |
| Instructions | 3       |

```
      00 01 02 03 04 05 06 07  08 09 0A 0B 0C 0D 0E 0F
      -- -- -- -- -- -- -- --  -- -- -- -- -- -- -- --
0060:          22 01 2F 01 04  80 0F 01 00                 "./......    
```

#### Opcodes

```
  0: 0x0063 [0x22] ENTITY_HIDE_FLAG(enabled=0x01)
  1: 0x0065 [0x2F] Evrard (ID: 17793028/0x010F8004)->Render.Flags0 |= 0x80000 // Bit 19
  2: 0x006B [0x00] END_REQSTACK()
```
