# 17793044 - Oleg

## Common Data

| Field            | Value             |
|------------------|-------------------|
| Zone             | Selbina (ID: 248) |
| Block Size       | 140 bytes         |
| Total Events     | 4                 |
| References Count | 7                 |

## List of Events

| Event ID              | Entrypoint   |   Size |   Instructions |
|-----------------------|--------------|--------|----------------|
| [65535](#event-65535) | 0x0000       |      1 |              1 |
| [151](#event-151)     | 0x0001       |     74 |             19 |
| [31](#event-31)       | 0x004B       |      1 |              1 |
| [33](#event-33)       | 0x004C       |      1 |              1 |

## DAT References (imed_data)

|   Index | Hex Value   |   Dec Value |
|---------|-------------|-------------|
|       0 | 0x0002      |           2 |
|       1 | 0x0005      |           5 |
|       2 | 0x0000      |           0 |
|       3 | 0x1B48      |        6984 |
|       4 | 0x0001      |           1 |
|       5 | 0x1B49      |        6985 |
|       6 | 0x1B4A      |        6986 |

## String References

- **6984**: Say, have you heard? Pirates roam the seas between Selbina and Mhaura. You watch out. One never knows when they'll strike next!
- **6985**: Orcs to the north, turtlebacks to the south... With the ocean now swarming with corsairs, our village is the only haven!
- **6986**: Been to Jeuno yet? They say that none may question the worth of a man who's walked to Jeuno.

## Events

### Event 65535

#### Metadata

| Field        | Value   |
|--------------|---------|
| Entrypoint   | 0x0000  |
| Data Size    | 1 bytes |
| Instructions | 1       |

```
      00 01 02 03 04 05 06 07  08 09 0A 0B 0C 0D 0E 0F
      -- -- -- -- -- -- -- --  -- -- -- -- -- -- -- --
0000: 00                                                .               
```

#### Opcodes

```
  0: 0x0000 [0x00] END_REQSTACK()
```

### Event 151

#### Metadata

| Field        | Value    |
|--------------|----------|
| Entrypoint   | 0x0001   |
| Data Size    | 74 bytes |
| Instructions | 19       |

```
      00 01 02 03 04 05 06 07  08 09 0A 0B 0C 0D 0E 0F
      -- -- -- -- -- -- -- --  -- -- -- -- -- -- -- --
0000:    1E F0 FF FF 7F 13 00  00 00 80 6F 70 5B 01 80   ..........op[..
0010: F8 FF FF 7F F8 FF FF 7F  74 6C 6B 30 02 00 00 02  ........tlk0....
0020: 80 80 2B 00 1D 03 80 23  01 49 00 02 00 00 04 80  ..+....#.I......
0030: 80 3A 00 1D 05 80 23 01  49 00 02 00 00 00 80 80  .:....#.I.......
0040: 49 00 1D 06 80 23 01 49  00 21 00                 I....#.I.!.     
```

#### Opcodes

```
  0: 0x0001 [0x1E] EventEntity looks at LocalPlayer and starts talking
  1: 0x0006 [0x13] ExtData[1]->WorkLocal[0] = rand() % 2*
  2: 0x000B [0x6F] WAIT_FRAME_DELAY: Yield until WaitTime reaches zero
  3: 0x000C [0x70] WAIT_ENTITY_RENDER_FLAG: Wait while EventEntity->Render.Flags3 bit 2 is set (cancel turn if not)
  4: 0x000D [0x5B] LOAD_EXT_SCHEDULER: Load scheduler "tlk0" with entities [EventEntity, EventEntity], work=5*
  5: 0x001C [0x02] IF !(ExtData[1]->WorkLocal[0] == 0*) GOTO 0x002B
  6: 0x0024 [0x1D] PRINT_EVENT_MESSAGE(message_id=6984*)
    → "Say, have you heard? Pirates roam the seas between Selbina and Mhaura. You watch out. One never knows when they'll strike next!"
  7: 0x0027 [0x23] WAIT_FOR_DIALOG_INTERACTION
  8: 0x0028 [0x01] GOTO 0x0049
  9: 0x002B [0x02] IF !(ExtData[1]->WorkLocal[0] == 1*) GOTO 0x003A
 10: 0x0033 [0x1D] PRINT_EVENT_MESSAGE(message_id=6985*)
    → "Orcs to the north, turtlebacks to the south... With the ocean now swarming with corsairs, our village is the only haven!"
 11: 0x0036 [0x23] WAIT_FOR_DIALOG_INTERACTION
 12: 0x0037 [0x01] GOTO 0x0049
 13: 0x003A [0x02] IF !(ExtData[1]->WorkLocal[0] == 2*) GOTO 0x0049
 14: 0x0042 [0x1D] PRINT_EVENT_MESSAGE(message_id=6986*)
    → "Been to Jeuno yet? They say that none may question the worth of a man who's walked to Jeuno."
 15: 0x0045 [0x23] WAIT_FOR_DIALOG_INTERACTION
 16: 0x0046 [0x01] GOTO 0x0049

SUBROUTINE_0049:
 17: 0x0049 [0x21] END_EVENT
 18: 0x004A [0x00] END_REQSTACK()
```

### Event 31

#### Metadata

| Field        | Value   |
|--------------|---------|
| Entrypoint   | 0x004B  |
| Data Size    | 1 bytes |
| Instructions | 1       |

```
      00 01 02 03 04 05 06 07  08 09 0A 0B 0C 0D 0E 0F
      -- -- -- -- -- -- -- --  -- -- -- -- -- -- -- --
0040:                                   00                         .    
```

#### Opcodes

```
  0: 0x004B [0x00] END_REQSTACK()
```

### Event 33

#### Metadata

| Field        | Value   |
|--------------|---------|
| Entrypoint   | 0x004C  |
| Data Size    | 1 bytes |
| Instructions | 1       |

```
      00 01 02 03 04 05 06 07  08 09 0A 0B 0C 0D 0E 0F
      -- -- -- -- -- -- -- --  -- -- -- -- -- -- -- --
0040:                                      00                       .   
```

#### Opcodes

```
  0: 0x004C [0x00] END_REQSTACK()
```
