# 17793150 - Veridical Conflux

## Common Data

| Field            | Value             |
|------------------|-------------------|
| Zone             | Selbina (ID: 248) |
| Block Size       | 1252 bytes        |
| Total Events     | 5                 |
| References Count | 41                |

## List of Events

| Event ID              | Entrypoint   |   Size |   Instructions |
|-----------------------|--------------|--------|----------------|
| [65535](#event-65535) | 0x0000       |      1 |              1 |
| [10037](#event-10037) | 0x0001       |    434 |             93 |
| [10040](#event-10040) | 0x01B3       |    109 |             27 |
| [10041](#event-10041) | 0x0220       |     93 |             25 |
| [10042](#event-10042) | 0x027D       |    412 |             78 |

## DAT References (imed_data)

|   Index | Hex Value   |   Dec Value |
|---------|-------------|-------------|
|       0 | 0x0001      |           1 |
|       1 | 0x0000      |           0 |
|       2 | 0x1F89      |        8073 |
|       3 | 0x0002      |           2 |
|       4 | 0x0003      |           3 |
|       5 | 0x0004      |           4 |
|       6 | 0x0010      |          16 |
|       7 | 0x0018      |          24 |
|       8 | 0x001F      |          31 |
|       9 | 0x40000000  |  1073741824 |
|      10 | 0x000F      |          15 |
|      11 | 0x000A      |          10 |
|      12 | 0x0005      |           5 |
|      13 | 0x1F66      |        8038 |
|      14 | 0x1F72      |        8050 |
|      15 | 0x1F8F      |        8079 |
|      16 | 0x1F67      |        8039 |
|      17 | 0x000B      |          11 |
|      18 | 0x000E      |          14 |
|      19 | 0x1F8C      |        8076 |
|      20 | 0x1F7B      |        8059 |
|      21 | 0x1F90      |        8080 |
|      22 | 0x1F7A      |        8058 |
|      23 | 0x1F7C      |        8060 |
|      24 | 0x1F7D      |        8061 |
|      25 | 0x1F8A      |        8074 |
|      26 | 0x1F8B      |        8075 |
|      27 | 0x1F91      |        8081 |
|      28 | 0x0032      |          50 |
|      29 | 0x1F9A      |        8090 |
|      30 | 0x0008      |           8 |
|      31 | 0x1FA5      |        8101 |
|      32 | 0x0064      |         100 |
|      33 | 0x0065      |         101 |
|      34 | 0x0066      |         102 |
|      35 | 0x0067      |         103 |
|      36 | 0x0068      |         104 |
|      37 | 0x005A      |          90 |
|      38 | 0x00C9      |         201 |
|      39 | 0x002D      |          45 |
|      40 | 0x00C8      |         200 |

## String References

- **8038**: Select a difficulty. [Back./Very difficult. (Level: ???)/Difficult. (Level: $10)/Normal. (Level: $11)/Easy. (Level: $12)/Very easy. (Level: $13)]
- **8039**: [Apply to proceed/Proceed]? [Definitely!/Not yet.]
- **8050**: You will be able to call forth up to $4 alter ego[/s] given the current number of players in your party.
- **8058**: You are currently number $3 in line to be drawn into this nightmare.
- **8059**: You are currently number $3 in line, with $2 in front of you.
- **8060**: Prepare yourselves! The battlefield is almost ready!
- **8061**: Your number: $3. (Auto-transport: [off/on]) [Remove your name./Toggle auto-transport./Close dialogue.]
- **8073**: Attempt which? (Auto-transport: [off/on]) [None./$26A Stygian Pact./$26Champion of the Dawn./$26Divine Interference./$26Maiden of the Dusk././././././././././././Toggle auto-transport.]
- **8074**: Only party members present with you in this area will be transported to [/$26A Stygian Pact/$26Champion of the Dawn/$26Divine Interference/$26Maiden of the Dusk][/: Very Difficult/: Difficult/: Normal/: Easy/: Very Easy].
- **8075**: Entering [/$26A Stygian Pact/$26Champion of the Dawn/$26Divine Interference/$26Maiden of the Dusk][/: Very Difficult/: Difficult/: Normal/: Easy/: Very Easy].
- **8076**: You have chosen not to [apply to/enter] [/$26A Stygian Pact/$26Champion of the Dawn/$26Divine Interference/$26Maiden of the Dusk][/: Very Difficult/: Difficult/: Normal/: Easy/: Very Easy].
- **8079**: Applying to enter [/$26A Stygian Pact/$26Champion of the Dawn/$26Divine Interference/$26Maiden of the Dusk][/: Very Difficult/: Difficult/: Normal/: Easy/: Very Easy]. You will be unable to participate if you add any more party members. Are you sure?
- **8080**: You are currently applying to enter [/$26A Stygian Pact/$26Champion of the Dawn/$26Divine Interference/$26Maiden of the Dusk][/: Very Difficult/: Difficult/: Normal/: Easy/: Very Easy].
- **8081**: Debug menu. [Check information./View applicants./Applicant parameters./Change maximum limit./Clear applications./Automatically create./Close dialogue.]
- **8090**: Designate a value between $0 and $1.
- **8101**: $)$P13.$P106$P10, $P13.$lF$0 [1"/%<$P15{/$~_i/$m$P14F/$3$43308646i]

## Events

### Event 65535

#### Metadata

| Field        | Value   |
|--------------|---------|
| Entrypoint   | 0x0000  |
| Data Size    | 1 bytes |
| Instructions | 1       |

```
      00 01 02 03 04 05 06 07  08 09 0A 0B 0C 0D 0E 0F
      -- -- -- -- -- -- -- --  -- -- -- -- -- -- -- --
0000: 00                                                .               
```

#### Opcodes

```
  0: 0x0000 [0x00] END_REQSTACK()
```

### Event 10037

#### Metadata

| Field        | Value     |
|--------------|-----------|
| Entrypoint   | 0x0001    |
| Data Size    | 434 bytes |
| Instructions | 89        |

```
      00 01 02 03 04 05 06 07  08 09 0A 0B 0C 0D 0E 0F
      -- -- -- -- -- -- -- --  -- -- -- -- -- -- -- --
0000:    42 03 07 00 02 10 03  04 00 03 10 03 0B 00 06   B..............
0010: 10 03 0E 00 07 10 03 0F  00 08 10 05 08 00 02 08  ................
0020: 00 00 80 00 44 01 03 02  00 01 80 03 03 00 01 80  ....D...........
0030: 03 01 00 01 80 03 02 10  0F 00 24 02 80 01 80 07  ..........$.....
0040: 00 25 02 00 10 00 80 00  52 00 03 02 00 00 80 01  .%......R.......
0050: A4 00 02 00 10 03 80 00  62 00 03 02 00 03 80 01  ........b.......
0060: A4 00 02 00 10 04 80 00  72 00 03 02 00 04 80 01  ........r.......
0070: A4 00 02 00 10 05 80 00  82 00 03 02 00 05 80 01  ................
0080: A4 00 02 00 10 06 80 00  9D 00 03 01 10 01 80 40  ...............@
0090: 07 80 08 80 01 10 00 80  21 00 01 A4 00 03 01 10  ........!.......
00A0: 09 80 21 00 03 02 17 04  00 03 03 17 04 00 03 04  ..!.............
00B0: 17 04 00 03 05 17 04 00  07 02 17 0A 80 07 03 17  ................
00C0: 0B 80 07 04 17 0C 80 07  05 17 01 80 02 03 00 01  ................
00D0: 80 00 31 01 24 0D 80 01  80 01 80 25 02 00 10 00  ..1.$......%....
00E0: 80 00 EC 00 03 03 00 00  80 01 31 01 02 00 10 03  ..........1.....
00F0: 80 00 FC 00 03 03 00 03  80 01 31 01 02 00 10 04  ..........1.....
0100: 80 00 0C 01 03 03 00 04  80 01 31 01 02 00 10 05  ..........1.....
0110: 80 00 1C 01 03 03 00 05  80 01 31 01 02 00 10 0C  ..........1.....
0120: 80 00 2C 01 03 03 00 0C  80 01 31 01 03 02 00 01  ..,.......1.....
0130: 80 03 01 00 02 00 02 02  00 01 80 01 41 01 06 08  ............A...
0140: 00 01 1E 00 03 06 10 0B  00 48 0E 80 03 02 10 01  .........H......
0150: 00 03 04 10 03 00 48 0F  80 23 03 03 10 01 80 24  ......H..#.....$
0160: 10 80 01 80 01 80 25 02  00 10 01 80 00 98 01 03  ......%.........
0170: 01 10 01 80 40 01 80 11  80 01 10 01 00 40 12 80  ....@........@..
0180: 06 80 01 10 03 00 43 00  43 01 02 09 10 01 80 01  ......C.C.......
0190: 95 01 01 44 01 01 B1 01  03 02 10 01 00 03 03 10  ...D............
01A0: 01 80 03 04 10 03 00 48  13 80 03 01 10 09 80 21  .......H.......!
01B0: 00 21 00                                          .!.             
```

#### Opcodes

```
  0: 0x0001 [0x42] SET_CLI_EVENT_CANCEL_DATA()
  1: 0x0002 [0x03] ExtData[1]->WorkLocal[7] = Work_Zone[2]
  2: 0x0007 [0x03] ExtData[1]->WorkLocal[4] = Work_Zone[3]
  3: 0x000C [0x03] ExtData[1]->WorkLocal[11] = Work_Zone[6]
  4: 0x0011 [0x03] ExtData[1]->WorkLocal[14] = Work_Zone[7]
  5: 0x0016 [0x03] ExtData[1]->WorkLocal[15] = Work_Zone[8]
  6: 0x001B [0x05] ExtData[1]->WorkLocal[8] = 1
  7: 0x001E [0x02] IF !(ExtData[1]->WorkLocal[8] == 1*) GOTO 0x0144
  8: 0x0026 [0x03] ExtData[1]->WorkLocal[2] = 0*
  9: 0x002B [0x03] ExtData[1]->WorkLocal[3] = 0*
 10: 0x0030 [0x03] ExtData[1]->WorkLocal[1] = 0*
 11: 0x0035 [0x03] Work_Zone[2] = ExtData[1]->WorkLocal[15]
 12: 0x003A [0x24] CREATE_DIALOG(message_id=8073*, default_option=0*, option_flags=ExtData[1]->WorkLocal[7])
    → "Attempt which? (Auto-transport: [off/on]) [None./$26A Stygian Pact./$26Champion of the Dawn./$26Divine Interference./$26Maiden of the Dusk././././././././././././Toggle auto-transport.]"
 13: 0x0041 [0x25] WAIT_DIALOG_SELECT()
 14: 0x0042 [0x02] IF !(Work_Zone[0] == 1*) GOTO 0x0052
 15: 0x004A [0x03] ExtData[1]->WorkLocal[2] = 1*
 16: 0x004F [0x01] GOTO 0x00A4
 17: 0x0052 [0x02] IF !(Work_Zone[0] == 2*) GOTO 0x0062
 18: 0x005A [0x03] ExtData[1]->WorkLocal[2] = 2*
 19: 0x005F [0x01] GOTO 0x00A4
 20: 0x0062 [0x02] IF !(Work_Zone[0] == 3*) GOTO 0x0072
 21: 0x006A [0x03] ExtData[1]->WorkLocal[2] = 3*
 22: 0x006F [0x01] GOTO 0x00A4
 23: 0x0072 [0x02] IF !(Work_Zone[0] == 4*) GOTO 0x0082
 24: 0x007A [0x03] ExtData[1]->WorkLocal[2] = 4*
 25: 0x007F [0x01] GOTO 0x00A4
 26: 0x0082 [0x02] IF !(Work_Zone[0] == 16*) GOTO 0x009D
 27: 0x008A [0x03] Work_Zone[1] = 0*
 28: 0x008F [0x40] SET_BIT_WORK_RANGE(start_bit=24*, end_bit=31*, target=Work_Zone[1], source=1*)
 29: 0x0098 [0x21] END_EVENT
 30: 0x0099 [0x00] END_REQSTACK()

SUBROUTINE_00A4:
 31: 0x00A4 [0x03] Work_Zone_1700[2] = ExtData[1]->WorkLocal[4]
 32: 0x00A9 [0x03] Work_Zone_1700[3] = ExtData[1]->WorkLocal[4]
 33: 0x00AE [0x03] Work_Zone_1700[4] = ExtData[1]->WorkLocal[4]
 34: 0x00B3 [0x03] Work_Zone_1700[5] = ExtData[1]->WorkLocal[4]
 35: 0x00B8 [0x07] Work_Zone_1700[2] += 15*
 36: 0x00BD [0x07] Work_Zone_1700[3] += 10*
 37: 0x00C2 [0x07] Work_Zone_1700[4] += 5*
 38: 0x00C7 [0x07] Work_Zone_1700[5] += 0*
 39: 0x00CC [0x02] IF !(ExtData[1]->WorkLocal[3] == 0*) GOTO 0x0131
 40: 0x00D4 [0x24] CREATE_DIALOG(message_id=8038*, default_option=0*, option_flags=0*)
    → "Select a difficulty. [Back./Very difficult. (Level: ???)/Difficult. (Level: $10)/Normal. (Level: $11)/Easy. (Level: $12)/Very easy. (Level: $13)]"
 41: 0x00DB [0x25] WAIT_DIALOG_SELECT()
 42: 0x00DC [0x02] IF !(Work_Zone[0] == 1*) GOTO 0x00EC
 43: 0x00E4 [0x03] ExtData[1]->WorkLocal[3] = 1*
 44: 0x00E9 [0x01] GOTO 0x0131
 45: 0x00EC [0x02] IF !(Work_Zone[0] == 2*) GOTO 0x00FC
 46: 0x00F4 [0x03] ExtData[1]->WorkLocal[3] = 2*
 47: 0x00F9 [0x01] GOTO 0x0131
 48: 0x00FC [0x02] IF !(Work_Zone[0] == 3*) GOTO 0x010C
 49: 0x0104 [0x03] ExtData[1]->WorkLocal[3] = 3*
 50: 0x0109 [0x01] GOTO 0x0131
 51: 0x010C [0x02] IF !(Work_Zone[0] == 4*) GOTO 0x011C
 52: 0x0114 [0x03] ExtData[1]->WorkLocal[3] = 4*
 53: 0x0119 [0x01] GOTO 0x0131
 54: 0x011C [0x02] IF !(Work_Zone[0] == 5*) GOTO 0x012C
 55: 0x0124 [0x03] ExtData[1]->WorkLocal[3] = 5*
 56: 0x0129 [0x01] GOTO 0x0131
 57: 0x012C [0x03] ExtData[1]->WorkLocal[2] = 0*

SUBROUTINE_0131:
 58: 0x0131 [0x03] ExtData[1]->WorkLocal[1] = ExtData[1]->WorkLocal[2]
 59: 0x0136 [0x02] IF !(ExtData[1]->WorkLocal[2] == 0*) GOTO 0x0141
 60: 0x013E [0x06] ExtData[1]->WorkLocal[8] = 0
 61: 0x0141 [0x01] GOTO 0x001E

SUBROUTINE_0144:
 62: 0x0144 [0x03] Work_Zone[6] = ExtData[1]->WorkLocal[11]
 63: 0x0149 [0x48] [System] [8050*]:
    → "You will be able to call forth up to $4 alter ego[/s] given the current number of players in your party."
 64: 0x014C [0x03] Work_Zone[2] = ExtData[1]->WorkLocal[1]
 65: 0x0151 [0x03] Work_Zone[4] = ExtData[1]->WorkLocal[3]
 66: 0x0156 [0x48] [System] [8079*]:
    → "Applying to enter [/$26A Stygian Pact/$26Champion of the Dawn/$26Divine Interference/$26Maiden of the Dusk][/: Very Difficult/: Difficult/: Normal/: Easy/: Very Easy]. You will be unable to participate if you add any more party members. Are you sure?"
 67: 0x0159 [0x23] WAIT_FOR_DIALOG_INTERACTION
 68: 0x015A [0x03] Work_Zone[3] = 0*
 69: 0x015F [0x24] CREATE_DIALOG(message_id=8039*, default_option=0*, option_flags=0*)
    → "[Apply to proceed/Proceed]? [Definitely!/Not yet.]"
 70: 0x0166 [0x25] WAIT_DIALOG_SELECT()
 71: 0x0167 [0x02] IF !(Work_Zone[0] == 0*) GOTO 0x0198
 72: 0x016F [0x03] Work_Zone[1] = 0*
 73: 0x0174 [0x40] SET_BIT_WORK_RANGE(start_bit=0*, end_bit=11*, target=Work_Zone[1], source=ExtData[1]->WorkLocal[1])
 74: 0x017D [0x40] SET_BIT_WORK_RANGE(start_bit=14*, end_bit=16*, target=Work_Zone[1], source=ExtData[1]->WorkLocal[3])
 75: 0x0186 [0x43] SEND_EVENT_UPDATE: Send pending tag to server (packet 0x005B)
 76: 0x0188 [0x43] SEND_EVENT_UPDATE: Check pending flag (skip if not pending)
 77: 0x018A [0x02] IF !(Work_Zone[9] == 0*) GOTO 0x0195
 78: 0x0192 [0x01] GOTO 0x0144
 79: 0x0195 [0x01] GOTO 0x01B1
 80: 0x0198 [0x03] Work_Zone[2] = ExtData[1]->WorkLocal[1]
 81: 0x019D [0x03] Work_Zone[3] = 0*
 82: 0x01A2 [0x03] Work_Zone[4] = ExtData[1]->WorkLocal[3]
 83: 0x01A7 [0x48] [System] [8076*]:
    → "You have chosen not to [apply to/enter] [/$26A Stygian Pact/$26Champion of the Dawn/$26Divine Interference/$26Maiden of the Dusk][/: Very Difficult/: Difficult/: Normal/: Easy/: Very Easy]."
 84: 0x01AA [0x03] Work_Zone[1] = 1073741824*
 85: 0x01AF [0x21] END_EVENT
 86: 0x01B0 [0x00] END_REQSTACK()

SUBROUTINE_01B1:
 87: 0x01B1 [0x21] END_EVENT
 88: 0x01B2 [0x00] END_REQSTACK()
```

#### Data or dead code:

```
# Dead code (unreachable instructions):
     0x009A [0x01] GOTO 0x00A4
```

### Event 10040

#### Metadata

| Field        | Value     |
|--------------|-----------|
| Entrypoint   | 0x01B3    |
| Data Size    | 109 bytes |
| Instructions | 27        |

```
      00 01 02 03 04 05 06 07  08 09 0A 0B 0C 0D 0E 0F
      -- -- -- -- -- -- -- --  -- -- -- -- -- -- -- --
01B0:          03 12 00 04 10  03 04 10 06 10 02 04 10     .............
01C0: 01 80 02 CC 01 48 14 80  23 01 D0 01 48 15 80 23  .....H..#...H..#
01D0: 03 04 10 12 00 48 16 80  23 02 03 10 01 80 00 EC  .....H..#.......
01E0: 01 48 17 80 03 01 10 09  80 01 1E 02 03 02 10 00  .H..............
01F0: 80 24 18 80 00 80 01 80  25 02 00 10 01 80 00 09  .$......%.......
0200: 02 03 01 10 00 80 01 1E  02 02 00 10 00 80 00 19  ................
0210: 02 03 01 10 03 80 01 1E  02 03 01 10 09 80 21 00  ..............!.
```

#### Opcodes

```
  0: 0x01B3 [0x03] ExtData[1]->WorkLocal[18] = Work_Zone[4]
  1: 0x01B8 [0x03] Work_Zone[4] = Work_Zone[6]
  2: 0x01BD [0x02] IF !(Work_Zone[4] <= 0*) GOTO 0x01CC
  3: 0x01C5 [0x48] [System] [8059*]:
    → "You are currently number $3 in line, with $2 in front of you."
  4: 0x01C8 [0x23] WAIT_FOR_DIALOG_INTERACTION
  5: 0x01C9 [0x01] GOTO 0x01D0
  6: 0x01CC [0x48] [System] [8080*]:
    → "You are currently applying to enter [/$26A Stygian Pact/$26Champion of the Dawn/$26Divine Interference/$26Maiden of the Dusk][/: Very Difficult/: Difficult/: Normal/: Easy/: Very Easy]."
  7: 0x01CF [0x23] WAIT_FOR_DIALOG_INTERACTION

SUBROUTINE_01D0:
  8: 0x01D0 [0x03] Work_Zone[4] = ExtData[1]->WorkLocal[18]
  9: 0x01D5 [0x48] [System] [8058*]:
    → "You are currently number $3 in line to be drawn into this nightmare."
 10: 0x01D8 [0x23] WAIT_FOR_DIALOG_INTERACTION
 11: 0x01D9 [0x02] IF !(Work_Zone[3] == 0*) GOTO 0x01EC
 12: 0x01E1 [0x48] [System] [8060*]:
    → "Prepare yourselves! The battlefield is almost ready!"
 13: 0x01E4 [0x03] Work_Zone[1] = 1073741824*
 14: 0x01E9 [0x01] GOTO 0x021E
 15: 0x01EC [0x03] Work_Zone[2] = 1*
 16: 0x01F1 [0x24] CREATE_DIALOG(message_id=8061*, default_option=1*, option_flags=0*)
    → "Your number: $3. (Auto-transport: [off/on]) [Remove your name./Toggle auto-transport./Close dialogue.]"
 17: 0x01F8 [0x25] WAIT_DIALOG_SELECT()
 18: 0x01F9 [0x02] IF !(Work_Zone[0] == 0*) GOTO 0x0209
 19: 0x0201 [0x03] Work_Zone[1] = 1*
 20: 0x0206 [0x01] GOTO 0x021E
 21: 0x0209 [0x02] IF !(Work_Zone[0] == 1*) GOTO 0x0219
 22: 0x0211 [0x03] Work_Zone[1] = 2*
 23: 0x0216 [0x01] GOTO 0x021E
 24: 0x0219 [0x03] Work_Zone[1] = 1073741824*

SUBROUTINE_021E:
 25: 0x021E [0x21] END_EVENT
 26: 0x021F [0x00] END_REQSTACK()
```

### Event 10041

#### Metadata

| Field        | Value    |
|--------------|----------|
| Entrypoint   | 0x0220   |
| Data Size    | 93 bytes |
| Instructions | 25       |

```
      00 01 02 03 04 05 06 07  08 09 0A 0B 0C 0D 0E 0F
      -- -- -- -- -- -- -- --  -- -- -- -- -- -- -- --
0220: 42 03 0F 00 02 10 03 10  00 04 10 48 19 80 23 03  B..........H..#.
0230: 03 10 00 80 24 10 80 01  80 01 80 25 02 00 10 01  ....$......%....
0240: 80 00 76 02 03 01 10 00  80 43 00 43 01 02 09 10  ..v......C.C....
0250: 01 80 00 6E 02 03 02 10  0F 00 03 04 10 10 00 48  ...n...........H
0260: 1A 80 23 1A AC 03 03 01  10 03 80 01 73 02 03 01  ..#.........s...
0270: 10 09 80 01 7B 02 03 01  10 09 80 21 00           ....{......!.   
```

#### Opcodes

```
  0: 0x0220 [0x42] SET_CLI_EVENT_CANCEL_DATA()
  1: 0x0221 [0x03] ExtData[1]->WorkLocal[15] = Work_Zone[2]
  2: 0x0226 [0x03] ExtData[1]->WorkLocal[16] = Work_Zone[4]
  3: 0x022B [0x48] [System] [8074*]:
    → "Only party members present with you in this area will be transported to [/$26A Stygian Pact/$26Champion of the Dawn/$26Divine Interference/$26Maiden of the Dusk][/: Very Difficult/: Difficult/: Normal/: Easy/: Very Easy]."
  4: 0x022E [0x23] WAIT_FOR_DIALOG_INTERACTION
  5: 0x022F [0x03] Work_Zone[3] = 1*
  6: 0x0234 [0x24] CREATE_DIALOG(message_id=8039*, default_option=0*, option_flags=0*)
    → "[Apply to proceed/Proceed]? [Definitely!/Not yet.]"
  7: 0x023B [0x25] WAIT_DIALOG_SELECT()
  8: 0x023C [0x02] IF !(Work_Zone[0] == 0*) GOTO 0x0276
  9: 0x0244 [0x03] Work_Zone[1] = 1*
 10: 0x0249 [0x43] SEND_EVENT_UPDATE: Send pending tag to server (packet 0x005B)
 11: 0x024B [0x43] SEND_EVENT_UPDATE: Check pending flag (skip if not pending)
 12: 0x024D [0x02] IF !(Work_Zone[9] == 0*) GOTO 0x026E
 13: 0x0255 [0x03] Work_Zone[2] = ExtData[1]->WorkLocal[15]
 14: 0x025A [0x03] Work_Zone[4] = ExtData[1]->WorkLocal[16]
 15: 0x025F [0x48] [System] [8075*]:
    → "Entering [/$26A Stygian Pact/$26Champion of the Dawn/$26Divine Interference/$26Maiden of the Dusk][/: Very Difficult/: Difficult/: Normal/: Easy/: Very Easy]."
 16: 0x0262 [0x23] WAIT_FOR_DIALOG_INTERACTION
 17: 0x0263 [0x1A] CALL_SUBROUTINE(address=0x03AC)
 18: 0x0266 [0x03] Work_Zone[1] = 2*
 19: 0x026B [0x01] GOTO 0x0273
 20: 0x026E [0x03] Work_Zone[1] = 1073741824*

SUBROUTINE_0273:
 21: 0x0273 [0x01] GOTO 0x027B
 22: 0x0276 [0x03] Work_Zone[1] = 1073741824*

SUBROUTINE_027B:
 23: 0x027B [0x21] END_EVENT
 24: 0x027C [0x00] END_REQSTACK()
```

### Event 10042

#### Metadata

| Field        | Value     |
|--------------|-----------|
| Entrypoint   | 0x027D    |
| Data Size    | 412 bytes |
| Instructions | 67        |

```
      00 01 02 03 04 05 06 07  08 09 0A 0B 0C 0D 0E 0F
      -- -- -- -- -- -- -- --  -- -- -- -- -- -- -- --
0270:                                         03 13 00               ...
0280: 02 10 05 0A 00 02 0A 00  00 80 00 AA 03 24 1B 80  .............$..
0290: 01 80 01 80 25 02 00 10  01 80 00 A9 02 03 01 10  ....%...........
02A0: 00 80 43 00 43 01 01 A7  03 02 00 10 00 80 00 BD  ..C.C...........
02B0: 02 03 01 10 03 80 43 00  43 01 01 A7 03 02 00 10  ......C.C.......
02C0: 03 80 00 F1 02 03 02 10  00 80 03 03 10 1C 80 48  ...............H
02D0: 1D 80 71 12 00 80 03 80  71 13 00 00 03 01 10 04  ..q.....q.......
02E0: 80 40 1E 80 0A 80 01 10  00 00 43 00 43 01 01 A7  .@........C.C...
02F0: 03 02 00 10 04 80 00 25  03 03 02 10 00 80 03 03  .......%........
0300: 10 1C 80 48 1D 80 71 12  00 80 03 80 71 13 00 00  ...H..q.....q...
0310: 03 01 10 05 80 40 1E 80  0A 80 01 10 00 00 43 00  .....@........C.
0320: 43 01 01 A7 03 02 00 10  05 80 00 39 03 03 01 10  C..........9....
0330: 0C 80 43 00 43 01 01 A7  03 02 00 10 0C 80 00 A4  ..C.C...........
0340: 03 03 02 10 13 00 24 1F  80 01 80 01 80 25 02 00  ......$......%..
0350: 10 01 80 00 5E 03 03 01  10 20 80 01 9E 03 02 00  ....^.... ......
0360: 10 00 80 00 6E 03 03 01  10 21 80 01 9E 03 02 00  ....n....!......
0370: 10 03 80 00 7E 03 03 01  10 22 80 01 9E 03 02 00  ....~...."......
0380: 10 04 80 00 8E 03 03 01  10 23 80 01 9E 03 02 00  .........#......
0390: 10 05 80 00 9E 03 03 01  10 24 80 01 9E 03 06 0A  .........$......
03A0: 00 01 A7 03 06 0A 00 01  85 02 21 00 62 00 80 F0  ..........!.b...
03B0: FF FF 7F F0 FF FF 7F 6D  61 69 6E 01 80 1C 25 80  .......main...%.
03C0: 45 26 80 F0 FF FF 7F F0  FF FF 7F 77 68 6F 31 01  E&.........who1.
03D0: 80 55 26 80 F0 FF FF 7F  F0 FF FF 7F 77 68 6F 31  .U&.........who1
03E0: 1C 27 80 45 28 80 F0 FF  FF 7F F0 FF FF 7F 66 64  .'.E(.........fd
03F0: 6F 31 01 80 55 28 80 F0  FF FF 7F F0 FF FF 7F 66  o1..U(.........f
0400: 64 6F 31 45 26 80 F0 FF  FF 7F F0 FF FF 7F 77 68  do1E&.........wh
0410: 69 31 01 80 1C 0A 80 30  1B                       i1.....0.       
```

#### Opcodes

```
  0: 0x027D [0x03] ExtData[1]->WorkLocal[19] = Work_Zone[2]
  1: 0x0282 [0x05] ExtData[1]->WorkLocal[10] = 1
  2: 0x0285 [0x02] IF !(ExtData[1]->WorkLocal[10] == 1*) GOTO 0x03AA
  3: 0x028D [0x24] CREATE_DIALOG(message_id=8081*, default_option=0*, option_flags=0*)
    → "Debug menu. [Check information./View applicants./Applicant parameters./Change maximum limit./Clear applications./Automatically create./Close dialogue.]"
  4: 0x0294 [0x25] WAIT_DIALOG_SELECT()
  5: 0x0295 [0x02] IF !(Work_Zone[0] == 0*) GOTO 0x02A9
  6: 0x029D [0x03] Work_Zone[1] = 1*
  7: 0x02A2 [0x43] SEND_EVENT_UPDATE: Send pending tag to server (packet 0x005B)
  8: 0x02A4 [0x43] SEND_EVENT_UPDATE: Check pending flag (skip if not pending)
  9: 0x02A6 [0x01] GOTO 0x03A7
 10: 0x02A9 [0x02] IF !(Work_Zone[0] == 1*) GOTO 0x02BD
 11: 0x02B1 [0x03] Work_Zone[1] = 2*
 12: 0x02B6 [0x43] SEND_EVENT_UPDATE: Send pending tag to server (packet 0x005B)
 13: 0x02B8 [0x43] SEND_EVENT_UPDATE: Check pending flag (skip if not pending)
 14: 0x02BA [0x01] GOTO 0x03A7
 15: 0x02BD [0x02] IF !(Work_Zone[0] == 2*) GOTO 0x02F1
 16: 0x02C5 [0x03] Work_Zone[2] = 1*
 17: 0x02CA [0x03] Work_Zone[3] = 50*
 18: 0x02CF [0x48] [System] [8090*]:
    → "Designate a value between $0 and $1."
 19: 0x02D2 [0x71] USER_INPUT_HANDLER: Open numerical input with params (work=[1*, 2*])
 20: 0x02D8 [0x71] USER_INPUT_HANDLER: Process numerical input B (work=ExtData[1]->WorkLocal[0])
 21: 0x02DC [0x03] Work_Zone[1] = 3*
 22: 0x02E1 [0x40] SET_BIT_WORK_RANGE(start_bit=8*, end_bit=15*, target=Work_Zone[1], source=ExtData[1]->WorkLocal[0])
 23: 0x02EA [0x43] SEND_EVENT_UPDATE: Send pending tag to server (packet 0x005B)
 24: 0x02EC [0x43] SEND_EVENT_UPDATE: Check pending flag (skip if not pending)
 25: 0x02EE [0x01] GOTO 0x03A7
 26: 0x02F1 [0x02] IF !(Work_Zone[0] == 3*) GOTO 0x0325
 27: 0x02F9 [0x03] Work_Zone[2] = 1*
 28: 0x02FE [0x03] Work_Zone[3] = 50*
 29: 0x0303 [0x48] [System] [8090*]:
    → "Designate a value between $0 and $1."
 30: 0x0306 [0x71] USER_INPUT_HANDLER: Open numerical input with params (work=[1*, 2*])
 31: 0x030C [0x71] USER_INPUT_HANDLER: Process numerical input B (work=ExtData[1]->WorkLocal[0])
 32: 0x0310 [0x03] Work_Zone[1] = 4*
 33: 0x0315 [0x40] SET_BIT_WORK_RANGE(start_bit=8*, end_bit=15*, target=Work_Zone[1], source=ExtData[1]->WorkLocal[0])
 34: 0x031E [0x43] SEND_EVENT_UPDATE: Send pending tag to server (packet 0x005B)
 35: 0x0320 [0x43] SEND_EVENT_UPDATE: Check pending flag (skip if not pending)
 36: 0x0322 [0x01] GOTO 0x03A7
 37: 0x0325 [0x02] IF !(Work_Zone[0] == 4*) GOTO 0x0339
 38: 0x032D [0x03] Work_Zone[1] = 5*
 39: 0x0332 [0x43] SEND_EVENT_UPDATE: Send pending tag to server (packet 0x005B)
 40: 0x0334 [0x43] SEND_EVENT_UPDATE: Check pending flag (skip if not pending)
 41: 0x0336 [0x01] GOTO 0x03A7
 42: 0x0339 [0x02] IF !(Work_Zone[0] == 5*) GOTO 0x03A4
 43: 0x0341 [0x03] Work_Zone[2] = ExtData[1]->WorkLocal[19]
 44: 0x0346 [0x24] CREATE_DIALOG(message_id=8101*, default_option=0*, option_flags=0*)
    → "$)$P13.$P106$P10, $P13.$lF$0 [1"/%<$P15{/$~_i/$m$P14F/$3$43308646i]"
 45: 0x034D [0x25] WAIT_DIALOG_SELECT()
 46: 0x034E [0x02] IF !(Work_Zone[0] == 0*) GOTO 0x035E
 47: 0x0356 [0x03] Work_Zone[1] = 100*
 48: 0x035B [0x01] GOTO 0x039E
 49: 0x035E [0x02] IF !(Work_Zone[0] == 1*) GOTO 0x036E
 50: 0x0366 [0x03] Work_Zone[1] = 101*
 51: 0x036B [0x01] GOTO 0x039E
 52: 0x036E [0x02] IF !(Work_Zone[0] == 2*) GOTO 0x037E
 53: 0x0376 [0x03] Work_Zone[1] = 102*
 54: 0x037B [0x01] GOTO 0x039E
 55: 0x037E [0x02] IF !(Work_Zone[0] == 3*) GOTO 0x038E
 56: 0x0386 [0x03] Work_Zone[1] = 103*
 57: 0x038B [0x01] GOTO 0x039E
 58: 0x038E [0x02] IF !(Work_Zone[0] == 4*) GOTO 0x039E
 59: 0x0396 [0x03] Work_Zone[1] = 104*
 60: 0x039B [0x01] GOTO 0x039E

SUBROUTINE_039E:
 61: 0x039E [0x06] ExtData[1]->WorkLocal[10] = 0
 62: 0x03A1 [0x01] GOTO 0x03A7
 63: 0x03A4 [0x06] ExtData[1]->WorkLocal[10] = 0

SUBROUTINE_03A7:
 64: 0x03A7 [0x01] GOTO 0x0285
 65: 0x03AA [0x21] END_EVENT
 66: 0x03AB [0x00] END_REQSTACK()
```

#### Data or dead code:

```
# Dead code (unreachable instructions):
     0x03AC [0x62] LOAD_EVENT_SCHEDULER: Load scheduler "main" with entities [LocalPlayer, LocalPlayer], work=[1*, 0*]
     0x03BD [0x1C] WAIT(90* ticks)
     0x03C0 [0x45] LOAD_SCHEDULED_TASK: Load scheduler "who1" with entities [LocalPlayer, LocalPlayer], work=[201*, 0*]
     0x03D1 [0x55] WAIT_LOAD_SCHEDULER: Wait for scheduler "who1" with entities [LocalPlayer, LocalPlayer], work=201*
     0x03E0 [0x1C] WAIT(45* ticks)
     0x03E3 [0x45] LOAD_SCHEDULED_TASK: Load scheduler "fdo1" with entities [LocalPlayer, LocalPlayer], work=[200*, 0*]
     0x03F4 [0x55] WAIT_LOAD_SCHEDULER: Wait for scheduler "fdo1" with entities [LocalPlayer, LocalPlayer], work=200*
     0x0403 [0x45] LOAD_SCHEDULED_TASK: Load scheduler "whi1" with entities [LocalPlayer, LocalPlayer], work=[201*, 0*]
     0x0414 [0x1C] WAIT(15* ticks)
     0x0417 [0x30] SET_UCOFF_CONTINUE_ZERO()
     0x0418 [0x1B] RETURN
```
