# 17793032 - Elfriede

## Common Data

| Field            | Value             |
|------------------|-------------------|
| Zone             | Selbina (ID: 248) |
| Block Size       | 1192 bytes        |
| Total Events     | 5                 |
| References Count | 27                |

## List of Events

| Event ID              | Entrypoint   |   Size |   Instructions |
|-----------------------|--------------|--------|----------------|
| [65535](#event-65535) | 0x0000       |      1 |              1 |
| [25](#event-25)       | 0x0001       |     60 |             12 |
| [10002](#event-10002) | 0x003D       |    628 |             85 |
| [10003](#event-10003) | 0x02B1       |     19 |             10 |
| [10004](#event-10004) | 0x02C4       |    339 |             58 |

## DAT References (imed_data)

|   Index | Hex Value   |   Dec Value |
|---------|-------------|-------------|
|       0 | 0x1B6D      |        7021 |
|       1 | 0x000B      |          11 |
|       2 | 0x000A      |          10 |
|       3 | 0x1B6E      |        7022 |
|       4 | 0x01E2      |         482 |
|       5 | 0x0000      |           0 |
|       6 | 0x00C8      |         200 |
|       7 | 0x0064      |         100 |
|       8 | 0x0013      |          19 |
|       9 | 0x00AA      |         170 |
|      10 | 0x007F      |         127 |
|      11 | 0x0001      |           1 |
|      12 | 0x000F      |          15 |
|      13 | 0x1C70      |        7280 |
|      14 | 0x1C71      |        7281 |
|      15 | 0x1C72      |        7282 |
|      16 | 0x1C74      |        7284 |
|      17 | 0x005A      |          90 |
|      18 | 0x003C      |          60 |
|      19 | 0x012C      |         300 |
|      20 | 0x0070      |         112 |
|      21 | 0x1C7A      |        7290 |
|      22 | 0x1C7B      |        7291 |
|      23 | 0x0003      |           3 |
|      24 | 0x1C7C      |        7292 |
|      25 | 0x1C7D      |        7293 |
|      26 | 0x1C7E      |        7294 |

## String References

- **7021**: Welcome to the Shepherd's Muster.
- **7022**: Herminia carries a wide selection of goods, and Torapiont is always available for your weaponry needs.
- **7280**: Welcome to the Shepherd's Muster.
- **7281**: ...You're looking for someone? A Galka staying at this inn?
- **7282**: Well, if that's the case, he's standing right behind you.
- **7290**: ...You poor adventurer, being made to steal $2 from those horrid Beadeaux Quadav.
- **7291**: Welcome to the Shepherd's Muster.
- **7292**: What an amazing display of thievery! This is the first time I've even laid eyes on $2. I don't know what to say... It's incredible.
- **7293**: ...You're looking for someone again? A Galka staying at this inn?
- **7294**: Well, if that's the case, he's standing right behind you.

## Events

### Event 65535

#### Metadata

| Field        | Value   |
|--------------|---------|
| Entrypoint   | 0x0000  |
| Data Size    | 1 bytes |
| Instructions | 1       |

```
      00 01 02 03 04 05 06 07  08 09 0A 0B 0C 0D 0E 0F
      -- -- -- -- -- -- -- --  -- -- -- -- -- -- -- --
0000: 00                                                .               
```

#### Opcodes

```
  0: 0x0000 [0x00] END_REQSTACK()
```

### Event 25

#### Metadata

| Field        | Value    |
|--------------|----------|
| Entrypoint   | 0x0001   |
| Data Size    | 60 bytes |
| Instructions | 12       |

```
      00 01 02 03 04 05 06 07  08 09 0A 0B 0C 0D 0E 0F
      -- -- -- -- -- -- -- --  -- -- -- -- -- -- -- --
0000:    1E F0 FF FF 7F 6F 70  1D 00 80 66 01 80 F8 FF   .....op...f....
0010: FF 7F F8 FF FF 7F 6B 61  73 30 53 F8 FF FF 7F F8  ......kas0S.....
0020: FF FF 7F 6B 61 73 30 66  02 80 F8 FF FF 7F F8 FF  ...kas0f........
0030: FF 7F 74 6C 6B 30 23 1D  03 80 23 21 00           ..tlk0#...#!.   
```

#### Opcodes

```
  0: 0x0001 [0x1E] EventEntity looks at LocalPlayer and starts talking
  1: 0x0006 [0x6F] WAIT_FRAME_DELAY: Yield until WaitTime reaches zero
  2: 0x0007 [0x70] WAIT_ENTITY_RENDER_FLAG: Wait while EventEntity->Render.Flags3 bit 2 is set (cancel turn if not)
  3: 0x0008 [0x1D] PRINT_EVENT_MESSAGE(message_id=7021*)
    → "Welcome to the Shepherd's Muster."
  4: 0x000B [0x66] LOAD_EXT_SCHEDULER_MAIN: Load scheduler "kas0" with entities [EventEntity, EventEntity], work=11*
  5: 0x001A [0x53] WAIT_SCHEDULER_TASK: Wait for scheduler "kas0" with entities [EventEntity, EventEntity]
  6: 0x0027 [0x66] LOAD_EXT_SCHEDULER_MAIN: Load scheduler "tlk0" with entities [EventEntity, EventEntity], work=10*
  7: 0x0036 [0x23] WAIT_FOR_DIALOG_INTERACTION
  8: 0x0037 [0x1D] PRINT_EVENT_MESSAGE(message_id=7022*)
    → "Herminia carries a wide selection of goods, and Torapiont is always available for your weaponry needs."
  9: 0x003A [0x23] WAIT_FOR_DIALOG_INTERACTION
 10: 0x003B [0x21] END_EVENT
 11: 0x003C [0x00] END_REQSTACK()
```

### Event 10002

#### Metadata

| Field        | Value     |
|--------------|-----------|
| Entrypoint   | 0x003D    |
| Data Size    | 628 bytes |
| Instructions | 85        |

```
      00 01 02 03 04 05 06 07  08 09 0A 0B 0C 0D 0E 0F
      -- -- -- -- -- -- -- --  -- -- -- -- -- -- -- --
0030:                                         20 01 42                .B
0040: 75 00 04 80 75 01 46 01  1E F0 FF FF 7F 6F 70 5D  u...u.F......op]
0050: 05 80 06 80 45 06 80 F8  FF FF 7F F8 FF FF 7F 66  ....E..........f
0060: 64 6F 31 05 80 1C 07 80  38 08 80 4E 00 4C 80 0F  do1.....8..N.L..
0070: 01 5C 00 09 80 5C 01 09  80 5D 0A 80 0B 80 80 4C  .\...\...].....L
0080: 80 0F 01 29 0B F0 FF FF  7F 12 4E 01 F0 FF FF 7F  ...)......N.....
0090: 1E F0 FF FF 7F 4A 4C 80  0F 01 F0 FF FF 7F 6F 76  .....JL.......ov
00A0: 4C 80 0F 01 6F 70 45 0C  80 F0 FF FF 7F F0 FF FF  L...opE.........
00B0: 7F 73 31 35 31 05 80 45  06 80 F8 FF FF 7F F8 FF  .s151..E........
00C0: FF 7F 66 64 69 31 05 80  1D 0D 80 23 1D 0E 80 23  ..fdi1.....#...#
00D0: 4E 00 F0 FF FF 7F 45 0C  80 F0 FF FF 7F F0 FF FF  N.....E.........
00E0: 7F 73 31 35 32 05 80 1D  0F 80 23 4A F0 FF FF 7F  .s152.....#J....
00F0: 4C 80 0F 01 6F 76 F0 FF  FF 7F 55 0C 80 F0 FF FF  L...ov....U.....
0100: 7F F0 FF FF 7F 73 31 35  32 45 0C 80 F0 FF FF 7F  .....s152E......
0110: F0 FF FF 7F 73 31 35 33  05 80 4E 01 F0 FF FF 7F  ....s153..N.....
0120: 79 00 4C 80 0F 01 08 80  0F 01 29 08 4C 80 0F 01  y.L.......).L...
0130: 01 29 0B 4C 80 0F 01 12  52 0C 80 F0 FF FF 7F F0  .).L....R.......
0140: FF FF 7F 73 31 35 33 4E  00 F0 FF FF 7F 45 0C 80  ...s153N.....E..
0150: F0 FF FF 7F F0 FF FF 7F  73 31 35 34 05 80 79 00  ........s154..y.
0160: 4C 80 0F 01 F0 FF FF 7F  29 08 4C 80 0F 01 02 2B  L.......).L....+
0170: 4C 80 0F 01 10 80 23 45  06 80 F8 FF FF 7F F8 FF  L.....#E........
0180: FF 7F 66 64 6F 31 05 80  1C 07 80 52 0C 80 F0 FF  ..fdo1.....R....
0190: FF 7F F0 FF FF 7F 73 31  35 34 29 0B F0 FF FF 7F  ......s154).....
01A0: 13 29 0B 4C 80 0F 01 11  45 0C 80 F0 FF FF 7F F0  .).L....E.......
01B0: FF FF 7F 73 31 35 35 05  80 45 06 80 F8 FF FF 7F  ...s155..E......
01C0: F8 FF FF 7F 66 64 69 31  05 80 1C 11 80 29 0B 4C  ....fdi1.....).L
01D0: 80 0F 01 13 45 06 80 F8  FF FF 7F F8 FF FF 7F 66  ....E..........f
01E0: 64 6F 31 05 80 1C 12 80  52 0C 80 F0 FF FF 7F F0  do1.....R.......
01F0: FF FF 7F 73 31 35 35 45  06 80 F8 FF FF 7F F8 FF  ...s155E........
0200: FF 7F 66 64 69 31 05 80  45 0C 80 F0 FF FF 7F F0  ..fdi1..E.......
0210: FF FF 7F 73 31 35 36 05  80 29 0B 4C 80 0F 01 14  ...s156..).L....
0220: 45 0C 80 F0 FF FF 7F F0  FF FF 7F 73 31 35 37 05  E..........s157.
0230: 80 29 08 4C 80 0F 01 01  29 0B 4C 80 0F 01 15 29  .).L....).L....)
0240: 0B 4C 80 0F 01 16 29 08  4C 80 0F 01 02 52 0C 80  .L....).L....R..
0250: F0 FF FF 7F F0 FF FF 7F  73 31 35 37 45 0C 80 F0  ........s157E...
0260: FF FF 7F F0 FF FF 7F 73  31 35 36 05 80 29 0B 4C  .......s156..).L
0270: 80 0F 01 17 5D 05 80 06  80 45 06 80 F8 FF FF 7F  ....]....E......
0280: F8 FF FF 7F 66 64 6F 31  05 80 1C 13 80 5C 00 14  ....fdo1.....\..
0290: 80 5C 01 14 80 5D 0A 80  0B 80 45 06 80 F8 FF FF  .\...]....E.....
02A0: 7F F8 FF FF 7F 66 64 69  31 05 80 46 00 20 00 21  .....fdi1..F. .!
02B0: 00                                                .               
```

#### Opcodes

```
  0: 0x003D [0x20] SET_CLI_EVENT_UC_FLAG: Lock player control
  1: 0x003F [0x42] SET_CLI_EVENT_CANCEL_DATA()
  2: 0x0040 [0x75] LOAD_ROOM(Load indoor room, room=482*)
  3: 0x0044 [0x75] LOAD_ROOM(No action)
  4: 0x0046 [0x46] CAMERA_CONTROL: Disable user control
  5: 0x0048 [0x1E] EventEntity looks at LocalPlayer and starts talking
  6: 0x004D [0x6F] WAIT_FRAME_DELAY: Yield until WaitTime reaches zero
  7: 0x004E [0x70] WAIT_ENTITY_RENDER_FLAG: Wait while EventEntity->Render.Flags3 bit 2 is set (cancel turn if not)
  8: 0x004F [0x5D] SET_MUSIC_VOLUME(volume=0*, fade_time=200*)
  9: 0x0054 [0x45] LOAD_SCHEDULED_TASK: Load scheduler "fdo1" with entities [EventEntity, EventEntity], work=[200*, 0*]
 10: 0x0065 [0x1C] WAIT(100* ticks)
 11: 0x0068 [0x38] SET_CLIENT_EVENT_MODE(mode=19*)
 12: 0x006B [0x4E] SET_ENTITY_HIDE_FLAG: Show Sneaking Tiger (ID: 17793100/0x010F804C)
 13: 0x0071 [0x5C] MUSIC_CONTROL: Set Idle (Day) music to song 170*
 14: 0x0075 [0x5C] MUSIC_CONTROL: Set Idle (Night) music to song 170*
 15: 0x0079 [0x5D] SET_MUSIC_VOLUME(volume=127*, fade_time=1*)
 16: 0x007E [0x80] LOAD_WAIT(entity=Sneaking Tiger (ID: 17793100/0x010F804C))
 17: 0x0083 [0x29] REQ_SET_WAIT(priority=0x0B, entity_id=LocalPlayer, tag_num=0x12)
 18: 0x008A [0x4E] SET_ENTITY_HIDE_FLAG: Hide LocalPlayer
 19: 0x0090 [0x1E] EventEntity looks at LocalPlayer and starts talking
 20: 0x0095 [0x4A] Sneaking Tiger (ID: 17793100/0x010F804C) looks at LocalPlayer
 21: 0x009E [0x6F] WAIT_FRAME_DELAY: Yield until WaitTime reaches zero
 22: 0x009F [0x76] CHECK_ENTITY_RENDER_FLAGS: Wait until Sneaking Tiger (ID: 17793100/0x010F804C) Render.Flags0 and Render.Flags3 conditions are met
 23: 0x00A4 [0x6F] WAIT_FRAME_DELAY: Yield until WaitTime reaches zero
 24: 0x00A5 [0x70] WAIT_ENTITY_RENDER_FLAG: Wait while EventEntity->Render.Flags3 bit 2 is set (cancel turn if not)
 25: 0x00A6 [0x45] LOAD_SCHEDULED_TASK: Load scheduler "s151" with entities [LocalPlayer, LocalPlayer], work=[15*, 0*]
 26: 0x00B7 [0x45] LOAD_SCHEDULED_TASK: Load scheduler "fdi1" with entities [EventEntity, EventEntity], work=[200*, 0*]
 27: 0x00C8 [0x1D] PRINT_EVENT_MESSAGE(message_id=7280*)
    → "Welcome to the Shepherd's Muster."
 28: 0x00CB [0x23] WAIT_FOR_DIALOG_INTERACTION
 29: 0x00CC [0x1D] PRINT_EVENT_MESSAGE(message_id=7281*)
    → "...You're looking for someone? A Galka staying at this inn?"
 30: 0x00CF [0x23] WAIT_FOR_DIALOG_INTERACTION
 31: 0x00D0 [0x4E] SET_ENTITY_HIDE_FLAG: Show LocalPlayer
 32: 0x00D6 [0x45] LOAD_SCHEDULED_TASK: Load scheduler "s152" with entities [LocalPlayer, LocalPlayer], work=[15*, 0*]
 33: 0x00E7 [0x1D] PRINT_EVENT_MESSAGE(message_id=7282*)
    → "Well, if that's the case, he's standing right behind you."
 34: 0x00EA [0x23] WAIT_FOR_DIALOG_INTERACTION
 35: 0x00EB [0x4A] LocalPlayer looks at Sneaking Tiger (ID: 17793100/0x010F804C)
 36: 0x00F4 [0x6F] WAIT_FRAME_DELAY: Yield until WaitTime reaches zero
 37: 0x00F5 [0x76] CHECK_ENTITY_RENDER_FLAGS: Wait until LocalPlayer Render.Flags0 and Render.Flags3 conditions are met
 38: 0x00FA [0x55] WAIT_LOAD_SCHEDULER: Wait for scheduler "s152" with entities [LocalPlayer, LocalPlayer], work=15*
 39: 0x0109 [0x45] LOAD_SCHEDULED_TASK: Load scheduler "s153" with entities [LocalPlayer, LocalPlayer], work=[15*, 0*]
 40: 0x011A [0x4E] SET_ENTITY_HIDE_FLAG: Hide LocalPlayer
 41: 0x0120 [0x79] Sneaking Tiger (ID: 17793100/0x010F804C) looks at Elfriede (ID: 17793032/0x010F8008) (Basic look)
 42: 0x012A [0x29] REQ_SET_WAIT(priority=0x08, entity_id=Sneaking Tiger (ID: 17793100/0x010F804C), tag_num=0x01)
 43: 0x0131 [0x29] REQ_SET_WAIT(priority=0x0B, entity_id=Sneaking Tiger (ID: 17793100/0x010F804C), tag_num=0x12)
 44: 0x0138 [0x52] END_LOAD_SCHEDULER: End scheduler "s153" with entities [LocalPlayer, LocalPlayer], work=15*
 45: 0x0147 [0x4E] SET_ENTITY_HIDE_FLAG: Show LocalPlayer
 46: 0x014D [0x45] LOAD_SCHEDULED_TASK: Load scheduler "s154" with entities [LocalPlayer, LocalPlayer], work=[15*, 0*]
 47: 0x015E [0x79] Sneaking Tiger (ID: 17793100/0x010F804C) looks at LocalPlayer (Basic look)
 48: 0x0168 [0x29] REQ_SET_WAIT(priority=0x08, entity_id=Sneaking Tiger (ID: 17793100/0x010F804C), tag_num=0x02)
 49: 0x016F [0x2B] Sneaking Tiger (ID: 17793100/0x010F804C) [7284*]:
    → "What!? You came from the Tenshodo!? You're makin' a scene! Step outside already!"
 50: 0x0176 [0x23] WAIT_FOR_DIALOG_INTERACTION
 51: 0x0177 [0x45] LOAD_SCHEDULED_TASK: Load scheduler "fdo1" with entities [EventEntity, EventEntity], work=[200*, 0*]
 52: 0x0188 [0x1C] WAIT(100* ticks)
 53: 0x018B [0x52] END_LOAD_SCHEDULER: End scheduler "s154" with entities [LocalPlayer, LocalPlayer], work=15*
 54: 0x019A [0x29] REQ_SET_WAIT(priority=0x0B, entity_id=LocalPlayer, tag_num=0x13)
 55: 0x01A1 [0x29] REQ_SET_WAIT(priority=0x0B, entity_id=Sneaking Tiger (ID: 17793100/0x010F804C), tag_num=0x11)
 56: 0x01A8 [0x45] LOAD_SCHEDULED_TASK: Load scheduler "s155" with entities [LocalPlayer, LocalPlayer], work=[15*, 0*]
 57: 0x01B9 [0x45] LOAD_SCHEDULED_TASK: Load scheduler "fdi1" with entities [EventEntity, EventEntity], work=[200*, 0*]
 58: 0x01CA [0x1C] WAIT(90* ticks)
 59: 0x01CD [0x29] REQ_SET_WAIT(priority=0x0B, entity_id=Sneaking Tiger (ID: 17793100/0x010F804C), tag_num=0x13)
 60: 0x01D4 [0x45] LOAD_SCHEDULED_TASK: Load scheduler "fdo1" with entities [EventEntity, EventEntity], work=[200*, 0*]
 61: 0x01E5 [0x1C] WAIT(60* ticks)
 62: 0x01E8 [0x52] END_LOAD_SCHEDULER: End scheduler "s155" with entities [LocalPlayer, LocalPlayer], work=15*
 63: 0x01F7 [0x45] LOAD_SCHEDULED_TASK: Load scheduler "fdi1" with entities [EventEntity, EventEntity], work=[200*, 0*]
 64: 0x0208 [0x45] LOAD_SCHEDULED_TASK: Load scheduler "s156" with entities [LocalPlayer, LocalPlayer], work=[15*, 0*]
 65: 0x0219 [0x29] REQ_SET_WAIT(priority=0x0B, entity_id=Sneaking Tiger (ID: 17793100/0x010F804C), tag_num=0x14)
 66: 0x0220 [0x45] LOAD_SCHEDULED_TASK: Load scheduler "s157" with entities [LocalPlayer, LocalPlayer], work=[15*, 0*]
 67: 0x0231 [0x29] REQ_SET_WAIT(priority=0x08, entity_id=Sneaking Tiger (ID: 17793100/0x010F804C), tag_num=0x01)
 68: 0x0238 [0x29] REQ_SET_WAIT(priority=0x0B, entity_id=Sneaking Tiger (ID: 17793100/0x010F804C), tag_num=0x15)
 69: 0x023F [0x29] REQ_SET_WAIT(priority=0x0B, entity_id=Sneaking Tiger (ID: 17793100/0x010F804C), tag_num=0x16)
 70: 0x0246 [0x29] REQ_SET_WAIT(priority=0x08, entity_id=Sneaking Tiger (ID: 17793100/0x010F804C), tag_num=0x02)
 71: 0x024D [0x52] END_LOAD_SCHEDULER: End scheduler "s157" with entities [LocalPlayer, LocalPlayer], work=15*
 72: 0x025C [0x45] LOAD_SCHEDULED_TASK: Load scheduler "s156" with entities [LocalPlayer, LocalPlayer], work=[15*, 0*]
 73: 0x026D [0x29] REQ_SET_WAIT(priority=0x0B, entity_id=Sneaking Tiger (ID: 17793100/0x010F804C), tag_num=0x17)
 74: 0x0274 [0x5D] SET_MUSIC_VOLUME(volume=0*, fade_time=200*)
 75: 0x0279 [0x45] LOAD_SCHEDULED_TASK: Load scheduler "fdo1" with entities [EventEntity, EventEntity], work=[200*, 0*]
 76: 0x028A [0x1C] WAIT(300* ticks)
 77: 0x028D [0x5C] MUSIC_CONTROL: Set Idle (Day) music to song 112*
 78: 0x0291 [0x5C] MUSIC_CONTROL: Set Idle (Night) music to song 112*
 79: 0x0295 [0x5D] SET_MUSIC_VOLUME(volume=127*, fade_time=1*)
 80: 0x029A [0x45] LOAD_SCHEDULED_TASK: Load scheduler "fdi1" with entities [EventEntity, EventEntity], work=[200*, 0*]
 81: 0x02AB [0x46] CAMERA_CONTROL: Restore default settings
 82: 0x02AD [0x20] SET_CLI_EVENT_UC_FLAG: Unlock player control
 83: 0x02AF [0x21] END_EVENT
 84: 0x02B0 [0x00] END_REQSTACK()
```

### Event 10003

#### Metadata

| Field        | Value    |
|--------------|----------|
| Entrypoint   | 0x02B1   |
| Data Size    | 19 bytes |
| Instructions | 10       |

```
      00 01 02 03 04 05 06 07  08 09 0A 0B 0C 0D 0E 0F
      -- -- -- -- -- -- -- --  -- -- -- -- -- -- -- --
02B0:    1E F0 FF FF 7F 6F 70  1D 15 80 23 1D 16 80 23   .....op...#...#
02C0: 20 00 21 00                                        .!.            
```

#### Opcodes

```
  0: 0x02B1 [0x1E] EventEntity looks at LocalPlayer and starts talking
  1: 0x02B6 [0x6F] WAIT_FRAME_DELAY: Yield until WaitTime reaches zero
  2: 0x02B7 [0x70] WAIT_ENTITY_RENDER_FLAG: Wait while EventEntity->Render.Flags3 bit 2 is set (cancel turn if not)
  3: 0x02B8 [0x1D] PRINT_EVENT_MESSAGE(message_id=7290*)
    → "...You poor adventurer, being made to steal $2 from those horrid Beadeaux Quadav."
  4: 0x02BB [0x23] WAIT_FOR_DIALOG_INTERACTION
  5: 0x02BC [0x1D] PRINT_EVENT_MESSAGE(message_id=7291*)
    → "Welcome to the Shepherd's Muster."
  6: 0x02BF [0x23] WAIT_FOR_DIALOG_INTERACTION
  7: 0x02C0 [0x20] SET_CLI_EVENT_UC_FLAG: Unlock player control
  8: 0x02C2 [0x21] END_EVENT
  9: 0x02C3 [0x00] END_REQSTACK()
```

### Event 10004

#### Metadata

| Field        | Value     |
|--------------|-----------|
| Entrypoint   | 0x02C4    |
| Data Size    | 339 bytes |
| Instructions | 58        |

```
      00 01 02 03 04 05 06 07  08 09 0A 0B 0C 0D 0E 0F
      -- -- -- -- -- -- -- --  -- -- -- -- -- -- -- --
02C0:             20 01 42 75  00 04 80 75 01 46 01 1E       .Bu...u.F..
02D0: F0 FF FF 7F 6F 70 5D 05  80 06 80 45 06 80 F8 FF  ....op]....E....
02E0: FF 7F F8 FF FF 7F 66 64  6F 31 05 80 1C 07 80 38  ......fdo1.....8
02F0: 17 80 4E 00 4C 80 0F 01  5C 00 09 80 5C 01 09 80  ..N.L...\...\...
0300: 5D 0A 80 0B 80 80 4C 80  0F 01 29 0B F0 FF FF 7F  ].....L...).....
0310: 12 4E 01 F0 FF FF 7F 1E  F0 FF FF 7F 4A 4C 80 0F  .N..........JL..
0320: 01 F0 FF FF 7F 6F 76 4C  80 0F 01 6F 70 45 0C 80  .....ovL...opE..
0330: F0 FF FF 7F F0 FF FF 7F  73 31 35 31 05 80 45 06  ........s151..E.
0340: 80 F8 FF FF 7F F8 FF FF  7F 66 64 69 31 05 80 1D  .........fdi1...
0350: 18 80 23 1D 19 80 23 4E  00 F0 FF FF 7F 45 0C 80  ..#...#N.....E..
0360: F0 FF FF 7F F0 FF FF 7F  73 31 35 32 05 80 1D 1A  ........s152....
0370: 80 23 4A F0 FF FF 7F 4C  80 0F 01 6F 76 F0 FF FF  .#J....L...ov...
0380: 7F 55 0C 80 F0 FF FF 7F  F0 FF FF 7F 73 31 35 32  .U..........s152
0390: 45 0C 80 F0 FF FF 7F F0  FF FF 7F 73 31 35 34 05  E..........s154.
03A0: 80 29 08 4C 80 0F 01 07  29 0B 4C 80 0F 01 19 29  .).L....).L....)
03B0: 08 4C 80 0F 01 08 52 0C  80 F0 FF FF 7F F0 FF FF  .L....R.........
03C0: 7F 73 31 35 34 29 08 4C  80 0F 01 0D 29 0B 4C 80  .s154).L....).L.
03D0: 0F 01 1A 29 08 4C 80 0F  01 0E 5D 05 80 06 80 45  ...).L....]....E
03E0: 06 80 F8 FF FF 7F F8 FF  FF 7F 66 64 6F 31 05 80  ..........fdo1..
03F0: 1C 13 80 5C 00 14 80 5C  01 14 80 5D 0A 80 0B 80  ...\...\...]....
0400: 45 06 80 F8 FF FF 7F F8  FF FF 7F 66 64 69 31 05  E..........fdi1.
0410: 80 46 00 20 00 21 00                              .F. .!.         
```

#### Opcodes

```
  0: 0x02C4 [0x20] SET_CLI_EVENT_UC_FLAG: Lock player control
  1: 0x02C6 [0x42] SET_CLI_EVENT_CANCEL_DATA()
  2: 0x02C7 [0x75] LOAD_ROOM(Load indoor room, room=482*)
  3: 0x02CB [0x75] LOAD_ROOM(No action)
  4: 0x02CD [0x46] CAMERA_CONTROL: Disable user control
  5: 0x02CF [0x1E] EventEntity looks at LocalPlayer and starts talking
  6: 0x02D4 [0x6F] WAIT_FRAME_DELAY: Yield until WaitTime reaches zero
  7: 0x02D5 [0x70] WAIT_ENTITY_RENDER_FLAG: Wait while EventEntity->Render.Flags3 bit 2 is set (cancel turn if not)
  8: 0x02D6 [0x5D] SET_MUSIC_VOLUME(volume=0*, fade_time=200*)
  9: 0x02DB [0x45] LOAD_SCHEDULED_TASK: Load scheduler "fdo1" with entities [EventEntity, EventEntity], work=[200*, 0*]
 10: 0x02EC [0x1C] WAIT(100* ticks)
 11: 0x02EF [0x38] SET_CLIENT_EVENT_MODE(mode=3*)
 12: 0x02F2 [0x4E] SET_ENTITY_HIDE_FLAG: Show Sneaking Tiger (ID: 17793100/0x010F804C)
 13: 0x02F8 [0x5C] MUSIC_CONTROL: Set Idle (Day) music to song 170*
 14: 0x02FC [0x5C] MUSIC_CONTROL: Set Idle (Night) music to song 170*
 15: 0x0300 [0x5D] SET_MUSIC_VOLUME(volume=127*, fade_time=1*)
 16: 0x0305 [0x80] LOAD_WAIT(entity=Sneaking Tiger (ID: 17793100/0x010F804C))
 17: 0x030A [0x29] REQ_SET_WAIT(priority=0x0B, entity_id=LocalPlayer, tag_num=0x12)
 18: 0x0311 [0x4E] SET_ENTITY_HIDE_FLAG: Hide LocalPlayer
 19: 0x0317 [0x1E] EventEntity looks at LocalPlayer and starts talking
 20: 0x031C [0x4A] Sneaking Tiger (ID: 17793100/0x010F804C) looks at LocalPlayer
 21: 0x0325 [0x6F] WAIT_FRAME_DELAY: Yield until WaitTime reaches zero
 22: 0x0326 [0x76] CHECK_ENTITY_RENDER_FLAGS: Wait until Sneaking Tiger (ID: 17793100/0x010F804C) Render.Flags0 and Render.Flags3 conditions are met
 23: 0x032B [0x6F] WAIT_FRAME_DELAY: Yield until WaitTime reaches zero
 24: 0x032C [0x70] WAIT_ENTITY_RENDER_FLAG: Wait while EventEntity->Render.Flags3 bit 2 is set (cancel turn if not)
 25: 0x032D [0x45] LOAD_SCHEDULED_TASK: Load scheduler "s151" with entities [LocalPlayer, LocalPlayer], work=[15*, 0*]
 26: 0x033E [0x45] LOAD_SCHEDULED_TASK: Load scheduler "fdi1" with entities [EventEntity, EventEntity], work=[200*, 0*]
 27: 0x034F [0x1D] PRINT_EVENT_MESSAGE(message_id=7292*)
    → "What an amazing display of thievery! This is the first time I've even laid eyes on $2. I don't know what to say... It's incredible."
 28: 0x0352 [0x23] WAIT_FOR_DIALOG_INTERACTION
 29: 0x0353 [0x1D] PRINT_EVENT_MESSAGE(message_id=7293*)
    → "...You're looking for someone again? A Galka staying at this inn?"
 30: 0x0356 [0x23] WAIT_FOR_DIALOG_INTERACTION
 31: 0x0357 [0x4E] SET_ENTITY_HIDE_FLAG: Show LocalPlayer
 32: 0x035D [0x45] LOAD_SCHEDULED_TASK: Load scheduler "s152" with entities [LocalPlayer, LocalPlayer], work=[15*, 0*]
 33: 0x036E [0x1D] PRINT_EVENT_MESSAGE(message_id=7294*)
    → "Well, if that's the case, he's standing right behind you."
 34: 0x0371 [0x23] WAIT_FOR_DIALOG_INTERACTION
 35: 0x0372 [0x4A] LocalPlayer looks at Sneaking Tiger (ID: 17793100/0x010F804C)
 36: 0x037B [0x6F] WAIT_FRAME_DELAY: Yield until WaitTime reaches zero
 37: 0x037C [0x76] CHECK_ENTITY_RENDER_FLAGS: Wait until LocalPlayer Render.Flags0 and Render.Flags3 conditions are met
 38: 0x0381 [0x55] WAIT_LOAD_SCHEDULER: Wait for scheduler "s152" with entities [LocalPlayer, LocalPlayer], work=15*
 39: 0x0390 [0x45] LOAD_SCHEDULED_TASK: Load scheduler "s154" with entities [LocalPlayer, LocalPlayer], work=[15*, 0*]
 40: 0x03A1 [0x29] REQ_SET_WAIT(priority=0x08, entity_id=Sneaking Tiger (ID: 17793100/0x010F804C), tag_num=0x07)
 41: 0x03A8 [0x29] REQ_SET_WAIT(priority=0x0B, entity_id=Sneaking Tiger (ID: 17793100/0x010F804C), tag_num=0x19)
 42: 0x03AF [0x29] REQ_SET_WAIT(priority=0x08, entity_id=Sneaking Tiger (ID: 17793100/0x010F804C), tag_num=0x08)
 43: 0x03B6 [0x52] END_LOAD_SCHEDULER: End scheduler "s154" with entities [LocalPlayer, LocalPlayer], work=15*
 44: 0x03C5 [0x29] REQ_SET_WAIT(priority=0x08, entity_id=Sneaking Tiger (ID: 17793100/0x010F804C), tag_num=0x0D)
 45: 0x03CC [0x29] REQ_SET_WAIT(priority=0x0B, entity_id=Sneaking Tiger (ID: 17793100/0x010F804C), tag_num=0x1A)
 46: 0x03D3 [0x29] REQ_SET_WAIT(priority=0x08, entity_id=Sneaking Tiger (ID: 17793100/0x010F804C), tag_num=0x0E)
 47: 0x03DA [0x5D] SET_MUSIC_VOLUME(volume=0*, fade_time=200*)
 48: 0x03DF [0x45] LOAD_SCHEDULED_TASK: Load scheduler "fdo1" with entities [EventEntity, EventEntity], work=[200*, 0*]
 49: 0x03F0 [0x1C] WAIT(300* ticks)
 50: 0x03F3 [0x5C] MUSIC_CONTROL: Set Idle (Day) music to song 112*
 51: 0x03F7 [0x5C] MUSIC_CONTROL: Set Idle (Night) music to song 112*
 52: 0x03FB [0x5D] SET_MUSIC_VOLUME(volume=127*, fade_time=1*)
 53: 0x0400 [0x45] LOAD_SCHEDULED_TASK: Load scheduler "fdi1" with entities [EventEntity, EventEntity], work=[200*, 0*]
 54: 0x0411 [0x46] CAMERA_CONTROL: Restore default settings
 55: 0x0413 [0x20] SET_CLI_EVENT_UC_FLAG: Unlock player control
 56: 0x0415 [0x21] END_EVENT
 57: 0x0416 [0x00] END_REQSTACK()
```
