# 17793102 - Ensetsu

## Common Data

| Field            | Value             |
|------------------|-------------------|
| Zone             | Selbina (ID: 248) |
| Block Size       | 152 bytes         |
| Total Events     | 5                 |
| References Count | 12                |

## List of Events

| Event ID                 | Entrypoint   |   Size |   Instructions |
|--------------------------|--------------|--------|----------------|
| [65535](#event-65535)    | 0x0000       |      1 |              1 |
| [1101](#event-1101)      | 0x0001       |     10 |              2 |
| [65535.1](#event-655351) | 0x000B       |     26 |              6 |
| [65535.2](#event-655352) | 0x0025       |     20 |              3 |
| [65535.3](#event-655353) | 0x0039       |     10 |              2 |

## DAT References (imed_data)

|   Index | Hex Value   |   Dec Value |
|---------|-------------|-------------|
|       0 | 0x4CE1      |       19681 |
|       1 | 0xFFFF7152  |  4294930770 |
|       2 | 0xFFFFF602  |  4294964738 |
|       3 | 0x04D7      |        1239 |
|       4 | 0x000D      |          13 |
|       5 | 0x4A1B      |       18971 |
|       6 | 0xFFFF63A8  |  4294927272 |
|       7 | 0xFFFFDAEC  |  4294957804 |
|       8 | 0xFFFF8D22  |  4294937890 |
|       9 | 0xFFFFFC4B  |  4294966347 |
|      10 | 0x0617      |        1559 |
|      11 | 0x0471      |        1137 |

## Events

### Event 65535

#### Metadata

| Field        | Value   |
|--------------|---------|
| Entrypoint   | 0x0000  |
| Data Size    | 1 bytes |
| Instructions | 1       |

```
      00 01 02 03 04 05 06 07  08 09 0A 0B 0C 0D 0E 0F
      -- -- -- -- -- -- -- --  -- -- -- -- -- -- -- --
0000: 00                                                .               
```

#### Opcodes

```
  0: 0x0000 [0x00] END_REQSTACK()
```

### Event 1101

#### Metadata

| Field        | Value    |
|--------------|----------|
| Entrypoint   | 0x0001   |
| Data Size    | 10 bytes |
| Instructions | 2        |

```
      00 01 02 03 04 05 06 07  08 09 0A 0B 0C 0D 0E 0F
      -- -- -- -- -- -- -- --  -- -- -- -- -- -- -- --
0000:    37 00 80 01 80 02 80  03 80 00                  7.........     
```

#### Opcodes

```
  0: 0x0001 [0x37] UPDATE_EVENT_POSITION_AND_DIR: x=19.681*, z=-36.526*, y=-2.558*, direction=108.9°*
  1: 0x000A [0x00] END_REQSTACK()
```

### Event 65535.1

#### Metadata

| Field        | Value    |
|--------------|----------|
| Entrypoint   | 0x000B   |
| Data Size    | 26 bytes |
| Instructions | 6        |

```
      00 01 02 03 04 05 06 07  08 09 0A 0B 0C 0D 0E 0F
      -- -- -- -- -- -- -- --  -- -- -- -- -- -- -- --
0000:                                   22 00 79 00 F8             ".y..
0010: FF FF 7F 4D 80 0F 01 32  04 80 1F 00 05 80 06 80  ...M...2........
0020: 02 80 1F 01 00                                    .....           
```

#### Opcodes

```
  0: 0x000B [0x22] ENTITY_HIDE_FLAG(enabled=0x00)
  1: 0x000D [0x79] EventEntity looks at Leodarion (ID: 17793101/0x010F804D) (Basic look)
  2: 0x0017 [0x32] ExtData[1]->MainSpeed = 13* * 0.1
  3: 0x001A [0x1F] MOVE_ENTITY: EventEntity moves to X=18.971*, Z=-40.024*, Y=-2.558*
  4: 0x0022 [0x1F] MOVE_ENTITY: Update entity position (mode=1)
  5: 0x0024 [0x00] END_REQSTACK()
```

### Event 65535.2

#### Metadata

| Field        | Value    |
|--------------|----------|
| Entrypoint   | 0x0025   |
| Data Size    | 20 bytes |
| Instructions | 3        |

```
      00 01 02 03 04 05 06 07  08 09 0A 0B 0C 0D 0E 0F
      -- -- -- -- -- -- -- --  -- -- -- -- -- -- -- --
0020:                79 00 F8  FF FF 7F 50 80 0F 01 37       y.....P...7
0030: 07 80 08 80 09 80 0A 80  00                       .........       
```

#### Opcodes

```
  0: 0x0025 [0x79] EventEntity looks at Yomi (ID: 17793104/0x010F8050) (Basic look)
  1: 0x002F [0x37] UPDATE_EVENT_POSITION_AND_DIR: x=-9.492*, z=-29.406*, y=-0.949*, direction=137.0°*
  2: 0x0038 [0x00] END_REQSTACK()
```

### Event 65535.3

#### Metadata

| Field        | Value    |
|--------------|----------|
| Entrypoint   | 0x0039   |
| Data Size    | 10 bytes |
| Instructions | 2        |

```
      00 01 02 03 04 05 06 07  08 09 0A 0B 0C 0D 0E 0F
      -- -- -- -- -- -- -- --  -- -- -- -- -- -- -- --
0030:                             37 05 80 06 80 02 80           7......
0040: 0B 80 00                                          ...             
```

#### Opcodes

```
  0: 0x0039 [0x37] UPDATE_EVENT_POSITION_AND_DIR: x=18.971*, z=-40.024*, y=-2.558*, direction=99.9°*
  1: 0x0042 [0x00] END_REQSTACK()
```
