# 17793051 - Mathilde

## Common Data

| Field            | Value             |
|------------------|-------------------|
| Zone             | Selbina (ID: 248) |
| Block Size       | 2028 bytes        |
| Total Events     | 58                |
| References Count | 34                |

## List of Events

| Event ID                   | Entrypoint   |   Size |   Instructions |
|----------------------------|--------------|--------|----------------|
| [65535](#event-65535)      | 0x0000       |      1 |              1 |
| [171](#event-171)          | 0x0001       |     32 |             10 |
| [173](#event-173)          | 0x0021       |    646 |             86 |
| [174](#event-174)          | 0x02A7       |    135 |             19 |
| [65535.1](#event-655351)   | 0x032E       |     16 |              2 |
| [65535.2](#event-655352)   | 0x033E       |     14 |              2 |
| [65535.3](#event-655353)   | 0x034C       |     16 |              2 |
| [65535.4](#event-655354)   | 0x035C       |     14 |              2 |
| [65535.5](#event-655355)   | 0x036A       |     16 |              2 |
| [65535.6](#event-655356)   | 0x037A       |     14 |              2 |
| [65535.7](#event-655357)   | 0x0388       |     16 |              2 |
| [65535.8](#event-655358)   | 0x0398       |     14 |              2 |
| [65535.9](#event-655359)   | 0x03A6       |     16 |              2 |
| [65535.10](#event-6553510) | 0x03B6       |     14 |              2 |
| [65535.11](#event-6553511) | 0x03C4       |     16 |              2 |
| [65535.12](#event-6553512) | 0x03D4       |     14 |              2 |
| [65535.13](#event-6553513) | 0x03E2       |     16 |              2 |
| [65535.14](#event-6553514) | 0x03F2       |     14 |              2 |
| [65535.15](#event-6553515) | 0x0400       |     16 |              2 |
| [65535.16](#event-6553516) | 0x0410       |     14 |              2 |
| [65535.17](#event-6553517) | 0x041E       |     16 |              2 |
| [65535.18](#event-6553518) | 0x042E       |     14 |              2 |
| [65535.19](#event-6553519) | 0x043C       |     16 |              2 |
| [65535.20](#event-6553520) | 0x044C       |     14 |              2 |
| [65535.21](#event-6553521) | 0x045A       |     16 |              2 |
| [65535.22](#event-6553522) | 0x046A       |     14 |              2 |
| [65535.23](#event-6553523) | 0x0478       |     16 |              2 |
| [65535.24](#event-6553524) | 0x0488       |     14 |              2 |
| [65535.25](#event-6553525) | 0x0496       |     16 |              2 |
| [65535.26](#event-6553526) | 0x04A6       |     14 |              2 |
| [65535.27](#event-6553527) | 0x04B4       |     16 |              2 |
| [65535.28](#event-6553528) | 0x04C4       |     14 |              2 |
| [65535.29](#event-6553529) | 0x04D2       |     16 |              2 |
| [65535.30](#event-6553530) | 0x04E2       |     14 |              2 |
| [65535.31](#event-6553531) | 0x04F0       |     16 |              2 |
| [65535.32](#event-6553532) | 0x0500       |     14 |              2 |
| [65535.33](#event-6553533) | 0x050E       |     16 |              2 |
| [65535.34](#event-6553534) | 0x051E       |     14 |              2 |
| [65535.35](#event-6553535) | 0x052C       |     16 |              2 |
| [65535.36](#event-6553536) | 0x053C       |     14 |              2 |
| [65535.37](#event-6553537) | 0x054A       |     16 |              2 |
| [65535.38](#event-6553538) | 0x055A       |     14 |              2 |
| [65535.39](#event-6553539) | 0x0568       |     16 |              2 |
| [65535.40](#event-6553540) | 0x0578       |     14 |              2 |
| [65535.41](#event-6553541) | 0x0586       |     16 |              2 |
| [65535.42](#event-6553542) | 0x0596       |     14 |              2 |
| [65535.43](#event-6553543) | 0x05A4       |     57 |              5 |
| [65535.44](#event-6553544) | 0x05DD       |     16 |              2 |
| [65535.45](#event-6553545) | 0x05ED       |     14 |              2 |
| [65535.46](#event-6553546) | 0x05FB       |     16 |              2 |
| [65535.47](#event-6553547) | 0x060B       |     14 |              2 |
| [65535.48](#event-6553548) | 0x0619       |     16 |              2 |
| [65535.49](#event-6553549) | 0x0629       |     14 |              2 |
| [65535.50](#event-6553550) | 0x0637       |     16 |              2 |
| [65535.51](#event-6553551) | 0x0647       |     14 |              2 |
| [65535.52](#event-6553552) | 0x0655       |      9 |              3 |
| [10005](#event-10005)      | 0x065E       |      1 |              1 |
| [65535.53](#event-6553553) | 0x065F       |     10 |              2 |

## DAT References (imed_data)

|   Index | Hex Value   |   Dec Value |
|---------|-------------|-------------|
|       0 | 0x000A      |          10 |
|       1 | 0x1B26      |        6950 |
|       2 | 0x1B27      |        6951 |
|       3 | 0x01E1      |         481 |
|       4 | 0x00C8      |         200 |
|       5 | 0x0000      |           0 |
|       6 | 0x0003      |           3 |
|       7 | 0x3858      |       14424 |
|       8 | 0xFFFFE3A7  |  4294960039 |
|       9 | 0xFFFFE355  |  4294959957 |
|      10 | 0x0719      |        1817 |
|      11 | 0x0001      |           1 |
|      12 | 0x003C      |          60 |
|      13 | 0x0094      |         148 |
|      14 | 0x1B30      |        6960 |
|      15 | 0x1B31      |        6961 |
|      16 | 0x1B32      |        6962 |
|      17 | 0x0A09      |        2569 |
|      18 | 0x001E      |          30 |
|      19 | 0x004B      |          75 |
|      20 | 0x1B33      |        6963 |
|      21 | 0x000B      |          11 |
|      22 | 0x1B34      |        6964 |
|      23 | 0x1B35      |        6965 |
|      24 | 0x1B36      |        6966 |
|      25 | 0x1B3A      |        6970 |
|      26 | 0x1B3B      |        6971 |
|      27 | 0x0078      |         120 |
|      28 | 0x1B3C      |        6972 |
|      29 | 0x000D      |          13 |
|      30 | 0x000C      |          12 |
|      31 | 0x3619      |       13849 |
|      32 | 0xFFFFE2CD  |  4294959821 |
|      33 | 0x0E8F      |        3727 |

## String References

- **6950**: Hello there. I'm Mathilde, and my daddy runs this guild shop.
- **6951**: We only sell goods he hand-picks himself. So rest easy knowing you're getting quality merchandise every time you shop!
- **6960**: Hello again. We have lots of fine things in today. Take your time!
- **6962**: Hi, Aldo.
- **6964**: What a pretty seashell! Thank you.
- **6966**: Take care!
- **6970**: He comes and goes like a cyclone, that boy!
- **6971**: My little treasure, that Aldo. Where could my other precious Aldo be? He could be out there somewhere...
- **6972**: No, he must be out there. He's leading a happy life somewhere. Look at us: we live so far apart under the very same sky.

## Events

### Event 65535

#### Metadata

| Field        | Value   |
|--------------|---------|
| Entrypoint   | 0x0000  |
| Data Size    | 1 bytes |
| Instructions | 1       |

```
      00 01 02 03 04 05 06 07  08 09 0A 0B 0C 0D 0E 0F
      -- -- -- -- -- -- -- --  -- -- -- -- -- -- -- --
0000: 00                                                .               
```

#### Opcodes

```
  0: 0x0000 [0x00] END_REQSTACK()
```

### Event 171

#### Metadata

| Field        | Value    |
|--------------|----------|
| Entrypoint   | 0x0001   |
| Data Size    | 32 bytes |
| Instructions | 10       |

```
      00 01 02 03 04 05 06 07  08 09 0A 0B 0C 0D 0E 0F
      -- -- -- -- -- -- -- --  -- -- -- -- -- -- -- --
0000:    1E F0 FF FF 7F 6F 70  66 00 80 F8 FF FF 7F F8   .....opf.......
0010: FF FF 7F 74 6C 6B 30 1D  01 80 23 1D 02 80 23 21  ...tlk0...#...#!
0020: 00                                                .               
```

#### Opcodes

```
  0: 0x0001 [0x1E] EventEntity looks at LocalPlayer and starts talking
  1: 0x0006 [0x6F] WAIT_FRAME_DELAY: Yield until WaitTime reaches zero
  2: 0x0007 [0x70] WAIT_ENTITY_RENDER_FLAG: Wait while EventEntity->Render.Flags3 bit 2 is set (cancel turn if not)
  3: 0x0008 [0x66] LOAD_EXT_SCHEDULER_MAIN: Load scheduler "tlk0" with entities [EventEntity, EventEntity], work=10*
  4: 0x0017 [0x1D] PRINT_EVENT_MESSAGE(message_id=6950*)
    → "Hello there. I'm Mathilde, and my daddy runs this guild shop."
  5: 0x001A [0x23] WAIT_FOR_DIALOG_INTERACTION
  6: 0x001B [0x1D] PRINT_EVENT_MESSAGE(message_id=6951*)
    → "We only sell goods he hand-picks himself. So rest easy knowing you're getting quality merchandise every time you shop!"
  7: 0x001E [0x23] WAIT_FOR_DIALOG_INTERACTION
  8: 0x001F [0x21] END_EVENT
  9: 0x0020 [0x00] END_REQSTACK()
```

### Event 173

#### Metadata

| Field        | Value     |
|--------------|-----------|
| Entrypoint   | 0x0021    |
| Data Size    | 646 bytes |
| Instructions | 86        |

```
      00 01 02 03 04 05 06 07  08 09 0A 0B 0C 0D 0E 0F
      -- -- -- -- -- -- -- --  -- -- -- -- -- -- -- --
0020:    42 75 00 03 80 75 01  45 04 80 F0 FF FF 7F F0   Bu...u.E.......
0030: FF FF 7F 66 64 6F 31 05  80 55 04 80 F0 FF FF 7F  ...fdo1..U......
0040: F0 FF FF 7F 66 64 6F 31  46 01 38 06 80 BA F0 FF  ....fdo1F.8.....
0050: FF 7F 07 80 08 80 09 80  0A 80 43 00 43 01 03 00  ..........C.C...
0060: 00 02 10 02 00 00 0B 80  00 77 00 29 10 1C 80 0F  .........w.)....
0070: 01 05 80 1C 80 0F 01 1C  0C 80 1E F0 FF FF 7F 45  ...............E
0080: 0D 80 F0 FF FF 7F F0 FF  FF 7F 73 65 30 39 05 80  ..........se09..
0090: 45 04 80 F0 FF FF 7F F0  FF FF 7F 66 64 69 31 05  E..........fdi1.
00A0: 80 55 04 80 F0 FF FF 7F  F0 FF FF 7F 66 64 69 31  .U..........fdi1
00B0: 6F 70 66 00 80 F8 FF FF  7F F8 FF FF 7F 74 6C 6B  opf..........tlk
00C0: 30 1D 0E 80 23 27 80 1C  80 0F 01 02 45 0D 80 F0  0...#'......E...
00D0: FF FF 7F F0 FF FF 7F 73  65 30 38 05 80 5E 69 64  .......se08..^id
00E0: 6C 30 2B 1C 80 0F 01 0F  80 1E 1C 80 0F 01 2A 80  l0+...........*.
00F0: 1C 80 0F 01 1E 1C 80 0F  01 23 1D 10 80 23 02 00  .........#...#..
0100: 00 0B 80 00 1B 01 5B 11  80 1C 80 0F 01 1C 80 0F  ......[.........
0110: 01 74 6C 61 30 1C 12 80  01 2A 01 5B 13 80 1C 80  .tla0....*.[....
0120: 0F 01 1C 80 0F 01 70 61  73 30 2B 1C 80 0F 01 14  ......pas0+.....
0130: 80 23 6F 70 02 00 00 0B  80 00 4E 01 5B 11 80 1C  .#op......N.[...
0140: 80 0F 01 1C 80 0F 01 74  6C 61 31 01 5B 01 53 1C  .......tla1.[.S.
0150: 80 0F 01 1C 80 0F 01 70  61 73 30 66 15 80 F8 FF  .......pas0f....
0160: FF 7F F8 FF FF 7F 61 69  67 30 1D 16 80 23 53 F8  ......aig0...#S.
0170: FF FF 7F F8 FF FF 7F 61  69 67 30 66 15 80 F8 FF  .......aig0f....
0180: FF 7F F8 FF FF 7F 61 69  67 31 02 00 00 0B 80 00  ......aig1......
0190: A4 01 5B 11 80 1C 80 0F  01 1C 80 0F 01 79 65 73  ..[..........yes
01A0: 30 01 B3 01 5B 13 80 1C  80 0F 01 1C 80 0F 01 74  0...[..........t
01B0: 6C 6B 30 2B 1C 80 0F 01  17 80 23 02 00 00 0B 80  lk0+......#.....
01C0: 00 D3 01 53 1C 80 0F 01  1C 80 0F 01 79 65 73 30  ...S........yes0
01D0: 01 E0 01 53 1C 80 0F 01  1C 80 0F 01 74 6C 6B 30  ...S........tlk0
01E0: 53 F8 FF FF 7F F8 FF FF  7F 61 69 67 31 1D 18 80  S........aig1...
01F0: 23 55 0D 80 F0 FF FF 7F  F0 FF FF 7F 73 65 30 38  #U..........se08
0200: 02 00 00 0B 80 00 12 02  29 80 1C 80 0F 01 04 01  ........).......
0210: 19 02 29 80 1C 80 0F 01  03 55 0D 80 F0 FF FF 7F  ..)......U......
0220: F0 FF FF 7F 73 65 31 30  45 0D 80 F0 FF FF 7F F0  ....se10E.......
0230: FF FF 7F 73 65 30 39 05  80 66 00 80 F8 FF FF 7F  ...se09..f......
0240: F8 FF FF 7F 74 6C 6B 30  1D 19 80 23 45 04 80 F0  ....tlk0...#E...
0250: FF FF 7F F0 FF FF 7F 66  64 6F 31 05 80 55 04 80  .......fdo1..U..
0260: F0 FF FF 7F F0 FF FF 7F  66 64 6F 31 1C 0C 80 02  ........fdo1....
0270: 00 00 0B 80 00 83 02 29  80 1C 80 0F 01 06 80 1C  .......)........
0280: 80 0F 01 46 00 45 04 80  F0 FF FF 7F F0 FF FF 7F  ...F.E..........
0290: 66 64 69 31 05 80 55 04  80 F0 FF FF 7F F0 FF FF  fdi1..U.........
02A0: 7F 66 64 69 31 21 00                              .fdi1!.         
```

#### Opcodes

```
  0: 0x0021 [0x42] SET_CLI_EVENT_CANCEL_DATA()
  1: 0x0022 [0x75] LOAD_ROOM(Load indoor room, room=481*)
  2: 0x0026 [0x75] LOAD_ROOM(No action)
  3: 0x0028 [0x45] LOAD_SCHEDULED_TASK: Load scheduler "fdo1" with entities [LocalPlayer, LocalPlayer], work=[200*, 0*]
  4: 0x0039 [0x55] WAIT_LOAD_SCHEDULER: Wait for scheduler "fdo1" with entities [LocalPlayer, LocalPlayer], work=200*
  5: 0x0048 [0x46] CAMERA_CONTROL: Disable user control
  6: 0x004A [0x38] SET_CLIENT_EVENT_MODE(mode=3*)
  7: 0x004D [0xBA] SET_ENTITY_POSITION(entity_id=LocalPlayer, pos_x=14.424*, pos_z=-7.257*, pos_y=-7.339*, direction=159.7°*)
  8: 0x005A [0x43] SEND_EVENT_UPDATE: Send pending tag to server (packet 0x005B)
  9: 0x005C [0x43] SEND_EVENT_UPDATE: Check pending flag (skip if not pending)
 10: 0x005E [0x03] ExtData[1]->WorkLocal[0] = Work_Zone[2]
 11: 0x0063 [0x02] IF !(ExtData[1]->WorkLocal[0] == 1*) GOTO 0x0077
 12: 0x006B [0x29] REQ_SET_WAIT(priority=0x10, entity_id=Mathilde's Son (ID: 17793052/0x010F801C), tag_num=0x05)
 13: 0x0072 [0x80] LOAD_WAIT(entity=Mathilde's Son (ID: 17793052/0x010F801C))
 14: 0x0077 [0x1C] WAIT(60* ticks)
 15: 0x007A [0x1E] EventEntity looks at LocalPlayer and starts talking
 16: 0x007F [0x45] LOAD_SCHEDULED_TASK: Load scheduler "se09" with entities [LocalPlayer, LocalPlayer], work=[148*, 0*]
 17: 0x0090 [0x45] LOAD_SCHEDULED_TASK: Load scheduler "fdi1" with entities [LocalPlayer, LocalPlayer], work=[200*, 0*]
 18: 0x00A1 [0x55] WAIT_LOAD_SCHEDULER: Wait for scheduler "fdi1" with entities [LocalPlayer, LocalPlayer], work=200*
 19: 0x00B0 [0x6F] WAIT_FRAME_DELAY: Yield until WaitTime reaches zero
 20: 0x00B1 [0x70] WAIT_ENTITY_RENDER_FLAG: Wait while EventEntity->Render.Flags3 bit 2 is set (cancel turn if not)
 21: 0x00B2 [0x66] LOAD_EXT_SCHEDULER_MAIN: Load scheduler "tlk0" with entities [EventEntity, EventEntity], work=10*
 22: 0x00C1 [0x1D] PRINT_EVENT_MESSAGE(message_id=6960*)
    → "Hello again. We have lots of fine things in today. Take your time!"
 23: 0x00C4 [0x23] WAIT_FOR_DIALOG_INTERACTION
 24: 0x00C5 [0x27] REQ_SET(priority=0x80, entity_id=Mathilde's Son (ID: 17793052/0x010F801C), tag_num=0x02)
 25: 0x00CC [0x45] LOAD_SCHEDULED_TASK: Load scheduler "se08" with entities [LocalPlayer, LocalPlayer], work=[148*, 0*]
 26: 0x00DD [0x5E] EventEntity goes idle (kills current action) (animation: "idl0")
 27: 0x00E2 [0x2B] Mathilde's Son (ID: 17793052/0x010F801C) [6961*]:
    → "I'm home!"
 28: 0x00E9 [0x1E] EventEntity looks at Mathilde's Son (ID: 17793052/0x010F801C) and starts talking
 29: 0x00EE [0x2A] GET_REQ_LEVEL(level=128, entity_id=Mathilde's Son (ID: 17793052/0x010F801C))
 30: 0x00F4 [0x1E] EventEntity looks at Mathilde's Son (ID: 17793052/0x010F801C) and starts talking
 31: 0x00F9 [0x23] WAIT_FOR_DIALOG_INTERACTION
 32: 0x00FA [0x1D] PRINT_EVENT_MESSAGE(message_id=6962*)
    → "Hi, Aldo."
 33: 0x00FD [0x23] WAIT_FOR_DIALOG_INTERACTION
 34: 0x00FE [0x02] IF !(ExtData[1]->WorkLocal[0] == 1*) GOTO 0x011B
 35: 0x0106 [0x5B] LOAD_EXT_SCHEDULER: Load scheduler "tla0" with entities [Mathilde's Son (ID: 17793052/0x010F801C), Mathilde's Son (ID: 17793052/0x010F801C)], work=2569*
 36: 0x0115 [0x1C] WAIT(30* ticks)
 37: 0x0118 [0x01] GOTO 0x012A
 38: 0x011B [0x5B] LOAD_EXT_SCHEDULER: Load scheduler "pas0" with entities [Mathilde's Son (ID: 17793052/0x010F801C), Mathilde's Son (ID: 17793052/0x010F801C)], work=75*

SUBROUTINE_012A:
 39: 0x012A [0x2B] Mathilde's Son (ID: 17793052/0x010F801C) [6963*]:
    → "Mom, look! I found this on the beach. It's for you!"
 40: 0x0131 [0x23] WAIT_FOR_DIALOG_INTERACTION
 41: 0x0132 [0x6F] WAIT_FRAME_DELAY: Yield until WaitTime reaches zero
 42: 0x0133 [0x70] WAIT_ENTITY_RENDER_FLAG: Wait while EventEntity->Render.Flags3 bit 2 is set (cancel turn if not)
 43: 0x0134 [0x02] IF !(ExtData[1]->WorkLocal[0] == 1*) GOTO 0x014E
 44: 0x013C [0x5B] LOAD_EXT_SCHEDULER: Load scheduler "tla1" with entities [Mathilde's Son (ID: 17793052/0x010F801C), Mathilde's Son (ID: 17793052/0x010F801C)], work=2569*
 45: 0x014B [0x01] GOTO 0x015B
 46: 0x014E [0x53] WAIT_SCHEDULER_TASK: Wait for scheduler "pas0" with entities [Mathilde's Son (ID: 17793052/0x010F801C), Mathilde's Son (ID: 17793052/0x010F801C)]

SUBROUTINE_015B:
 47: 0x015B [0x66] LOAD_EXT_SCHEDULER_MAIN: Load scheduler "aig0" with entities [EventEntity, EventEntity], work=11*
 48: 0x016A [0x1D] PRINT_EVENT_MESSAGE(message_id=6964*)
    → "What a pretty seashell! Thank you."
 49: 0x016D [0x23] WAIT_FOR_DIALOG_INTERACTION
 50: 0x016E [0x53] WAIT_SCHEDULER_TASK: Wait for scheduler "aig0" with entities [EventEntity, EventEntity]
 51: 0x017B [0x66] LOAD_EXT_SCHEDULER_MAIN: Load scheduler "aig1" with entities [EventEntity, EventEntity], work=11*
 52: 0x018A [0x02] IF !(ExtData[1]->WorkLocal[0] == 1*) GOTO 0x01A4
 53: 0x0192 [0x5B] LOAD_EXT_SCHEDULER: Load scheduler "yes0" with entities [Mathilde's Son (ID: 17793052/0x010F801C), Mathilde's Son (ID: 17793052/0x010F801C)], work=2569*
 54: 0x01A1 [0x01] GOTO 0x01B3
 55: 0x01A4 [0x5B] LOAD_EXT_SCHEDULER: Load scheduler "tlk0" with entities [Mathilde's Son (ID: 17793052/0x010F801C), Mathilde's Son (ID: 17793052/0x010F801C)], work=75*

SUBROUTINE_01B3:
 56: 0x01B3 [0x2B] Mathilde's Son (ID: 17793052/0x010F801C) [6965*]:
    → "Ashtia's waiting for me. Gotta go!"
 57: 0x01BA [0x23] WAIT_FOR_DIALOG_INTERACTION
 58: 0x01BB [0x02] IF !(ExtData[1]->WorkLocal[0] == 1*) GOTO 0x01D3
 59: 0x01C3 [0x53] WAIT_SCHEDULER_TASK: Wait for scheduler "yes0" with entities [Mathilde's Son (ID: 17793052/0x010F801C), Mathilde's Son (ID: 17793052/0x010F801C)]
 60: 0x01D0 [0x01] GOTO 0x01E0
 61: 0x01D3 [0x53] WAIT_SCHEDULER_TASK: Wait for scheduler "tlk0" with entities [Mathilde's Son (ID: 17793052/0x010F801C), Mathilde's Son (ID: 17793052/0x010F801C)]

SUBROUTINE_01E0:
 62: 0x01E0 [0x53] WAIT_SCHEDULER_TASK: Wait for scheduler "aig1" with entities [EventEntity, EventEntity]
 63: 0x01ED [0x1D] PRINT_EVENT_MESSAGE(message_id=6966*)
    → "Take care!"
 64: 0x01F0 [0x23] WAIT_FOR_DIALOG_INTERACTION
 65: 0x01F1 [0x55] WAIT_LOAD_SCHEDULER: Wait for scheduler "se08" with entities [LocalPlayer, LocalPlayer], work=148*
 66: 0x0200 [0x02] IF !(ExtData[1]->WorkLocal[0] == 1*) GOTO 0x0212
 67: 0x0208 [0x29] REQ_SET_WAIT(priority=0x80, entity_id=Mathilde's Son (ID: 17793052/0x010F801C), tag_num=0x04)
 68: 0x020F [0x01] GOTO 0x0219
 69: 0x0212 [0x29] REQ_SET_WAIT(priority=0x80, entity_id=Mathilde's Son (ID: 17793052/0x010F801C), tag_num=0x03)

SUBROUTINE_0219:
 70: 0x0219 [0x55] WAIT_LOAD_SCHEDULER: Wait for scheduler "se10" with entities [LocalPlayer, LocalPlayer], work=148*
 71: 0x0228 [0x45] LOAD_SCHEDULED_TASK: Load scheduler "se09" with entities [LocalPlayer, LocalPlayer], work=[148*, 0*]
 72: 0x0239 [0x66] LOAD_EXT_SCHEDULER_MAIN: Load scheduler "tlk0" with entities [EventEntity, EventEntity], work=10*
 73: 0x0248 [0x1D] PRINT_EVENT_MESSAGE(message_id=6970*)
    → "He comes and goes like a cyclone, that boy!"
 74: 0x024B [0x23] WAIT_FOR_DIALOG_INTERACTION
 75: 0x024C [0x45] LOAD_SCHEDULED_TASK: Load scheduler "fdo1" with entities [LocalPlayer, LocalPlayer], work=[200*, 0*]
 76: 0x025D [0x55] WAIT_LOAD_SCHEDULER: Wait for scheduler "fdo1" with entities [LocalPlayer, LocalPlayer], work=200*
 77: 0x026C [0x1C] WAIT(60* ticks)
 78: 0x026F [0x02] IF !(ExtData[1]->WorkLocal[0] == 1*) GOTO 0x0283
 79: 0x0277 [0x29] REQ_SET_WAIT(priority=0x80, entity_id=Mathilde's Son (ID: 17793052/0x010F801C), tag_num=0x06)
 80: 0x027E [0x80] LOAD_WAIT(entity=Mathilde's Son (ID: 17793052/0x010F801C))
 81: 0x0283 [0x46] CAMERA_CONTROL: Restore default settings
 82: 0x0285 [0x45] LOAD_SCHEDULED_TASK: Load scheduler "fdi1" with entities [LocalPlayer, LocalPlayer], work=[200*, 0*]
 83: 0x0296 [0x55] WAIT_LOAD_SCHEDULER: Wait for scheduler "fdi1" with entities [LocalPlayer, LocalPlayer], work=200*
 84: 0x02A5 [0x21] END_EVENT
 85: 0x02A6 [0x00] END_REQSTACK()
```

### Event 174

#### Metadata

| Field        | Value     |
|--------------|-----------|
| Entrypoint   | 0x02A7    |
| Data Size    | 135 bytes |
| Instructions | 19        |

```
      00 01 02 03 04 05 06 07  08 09 0A 0B 0C 0D 0E 0F
      -- -- -- -- -- -- -- --  -- -- -- -- -- -- -- --
02A0:                      1E  F0 FF FF 7F 6F 70 1D 1A         .....op..
02B0: 80 66 15 80 F8 FF FF 7F  F8 FF FF 7F 61 69 67 30  .f..........aig0
02C0: 53 F8 FF FF 7F F8 FF FF  7F 61 69 67 30 66 00 80  S........aig0f..
02D0: F8 FF FF 7F F8 FF FF 7F  74 68 6B 31 23 1C 1B 80  ........thk1#...
02E0: 1D 1C 80 1C 0C 80 53 F8  FF FF 7F F8 FF FF 7F 74  ......S........t
02F0: 68 6B 31 66 00 80 F8 FF  FF 7F F8 FF FF 7F 74 6C  hk1f..........tl
0300: 6B 30 23 53 F8 FF FF 7F  F8 FF FF 7F 74 6C 6B 30  k0#S........tlk0
0310: 66 15 80 F8 FF FF 7F F8  FF FF 7F 75 6E 7A 30 53  f..........unz0S
0320: F8 FF FF 7F F8 FF FF 7F  75 6E 7A 30 21 00        ........unz0!.  
```

#### Opcodes

```
  0: 0x02A7 [0x1E] EventEntity looks at LocalPlayer and starts talking
  1: 0x02AC [0x6F] WAIT_FRAME_DELAY: Yield until WaitTime reaches zero
  2: 0x02AD [0x70] WAIT_ENTITY_RENDER_FLAG: Wait while EventEntity->Render.Flags3 bit 2 is set (cancel turn if not)
  3: 0x02AE [0x1D] PRINT_EVENT_MESSAGE(message_id=6971*)
    → "My little treasure, that Aldo. Where could my other precious Aldo be? He could be out there somewhere..."
  4: 0x02B1 [0x66] LOAD_EXT_SCHEDULER_MAIN: Load scheduler "aig0" with entities [EventEntity, EventEntity], work=11*
  5: 0x02C0 [0x53] WAIT_SCHEDULER_TASK: Wait for scheduler "aig0" with entities [EventEntity, EventEntity]
  6: 0x02CD [0x66] LOAD_EXT_SCHEDULER_MAIN: Load scheduler "thk1" with entities [EventEntity, EventEntity], work=10*
  7: 0x02DC [0x23] WAIT_FOR_DIALOG_INTERACTION
  8: 0x02DD [0x1C] WAIT(120* ticks)
  9: 0x02E0 [0x1D] PRINT_EVENT_MESSAGE(message_id=6972*)
    → "No, he must be out there. He's leading a happy life somewhere. Look at us: we live so far apart under the very same sky."
 10: 0x02E3 [0x1C] WAIT(60* ticks)
 11: 0x02E6 [0x53] WAIT_SCHEDULER_TASK: Wait for scheduler "thk1" with entities [EventEntity, EventEntity]
 12: 0x02F3 [0x66] LOAD_EXT_SCHEDULER_MAIN: Load scheduler "tlk0" with entities [EventEntity, EventEntity], work=10*
 13: 0x0302 [0x23] WAIT_FOR_DIALOG_INTERACTION
 14: 0x0303 [0x53] WAIT_SCHEDULER_TASK: Wait for scheduler "tlk0" with entities [EventEntity, EventEntity]
 15: 0x0310 [0x66] LOAD_EXT_SCHEDULER_MAIN: Load scheduler "unz0" with entities [EventEntity, EventEntity], work=11*
 16: 0x031F [0x53] WAIT_SCHEDULER_TASK: Wait for scheduler "unz0" with entities [EventEntity, EventEntity]
 17: 0x032C [0x21] END_EVENT
 18: 0x032D [0x00] END_REQSTACK()
```

### Event 65535.1

#### Metadata

| Field        | Value    |
|--------------|----------|
| Entrypoint   | 0x032E   |
| Data Size    | 16 bytes |
| Instructions | 2        |

```
      00 01 02 03 04 05 06 07  08 09 0A 0B 0C 0D 0E 0F
      -- -- -- -- -- -- -- --  -- -- -- -- -- -- -- --
0320:                                            66 00                f.
0330: 80 F8 FF FF 7F F8 FF FF  7F 74 6C 6B 30 00        .........tlk0.  
```

#### Opcodes

```
  0: 0x032E [0x66] LOAD_EXT_SCHEDULER_MAIN: Load scheduler "tlk0" with entities [EventEntity, EventEntity], work=10*
  1: 0x033D [0x00] END_REQSTACK()
```

### Event 65535.2

#### Metadata

| Field        | Value    |
|--------------|----------|
| Entrypoint   | 0x033E   |
| Data Size    | 14 bytes |
| Instructions | 2        |

```
      00 01 02 03 04 05 06 07  08 09 0A 0B 0C 0D 0E 0F
      -- -- -- -- -- -- -- --  -- -- -- -- -- -- -- --
0330:                                            53 F8                S.
0340: FF FF 7F F8 FF FF 7F 74  6C 6B 30 00              .......tlk0.    
```

#### Opcodes

```
  0: 0x033E [0x53] WAIT_SCHEDULER_TASK: Wait for scheduler "tlk0" with entities [EventEntity, EventEntity]
  1: 0x034B [0x00] END_REQSTACK()
```

### Event 65535.3

#### Metadata

| Field        | Value    |
|--------------|----------|
| Entrypoint   | 0x034C   |
| Data Size    | 16 bytes |
| Instructions | 2        |

```
      00 01 02 03 04 05 06 07  08 09 0A 0B 0C 0D 0E 0F
      -- -- -- -- -- -- -- --  -- -- -- -- -- -- -- --
0340:                                      66 00 80 F8              f...
0350: FF FF 7F F8 FF FF 7F 74  6C 6B 31 00              .......tlk1.    
```

#### Opcodes

```
  0: 0x034C [0x66] LOAD_EXT_SCHEDULER_MAIN: Load scheduler "tlk1" with entities [EventEntity, EventEntity], work=10*
  1: 0x035B [0x00] END_REQSTACK()
```

### Event 65535.4

#### Metadata

| Field        | Value    |
|--------------|----------|
| Entrypoint   | 0x035C   |
| Data Size    | 14 bytes |
| Instructions | 2        |

```
      00 01 02 03 04 05 06 07  08 09 0A 0B 0C 0D 0E 0F
      -- -- -- -- -- -- -- --  -- -- -- -- -- -- -- --
0350:                                      53 F8 FF FF              S...
0360: 7F F8 FF FF 7F 74 6C 6B  31 00                    .....tlk1.      
```

#### Opcodes

```
  0: 0x035C [0x53] WAIT_SCHEDULER_TASK: Wait for scheduler "tlk1" with entities [EventEntity, EventEntity]
  1: 0x0369 [0x00] END_REQSTACK()
```

### Event 65535.5

#### Metadata

| Field        | Value    |
|--------------|----------|
| Entrypoint   | 0x036A   |
| Data Size    | 16 bytes |
| Instructions | 2        |

```
      00 01 02 03 04 05 06 07  08 09 0A 0B 0C 0D 0E 0F
      -- -- -- -- -- -- -- --  -- -- -- -- -- -- -- --
0360:                                66 00 80 F8 FF FF            f.....
0370: 7F F8 FF FF 7F 70 61 73  30 00                    .....pas0.      
```

#### Opcodes

```
  0: 0x036A [0x66] LOAD_EXT_SCHEDULER_MAIN: Load scheduler "pas0" with entities [EventEntity, EventEntity], work=10*
  1: 0x0379 [0x00] END_REQSTACK()
```

### Event 65535.6

#### Metadata

| Field        | Value    |
|--------------|----------|
| Entrypoint   | 0x037A   |
| Data Size    | 14 bytes |
| Instructions | 2        |

```
      00 01 02 03 04 05 06 07  08 09 0A 0B 0C 0D 0E 0F
      -- -- -- -- -- -- -- --  -- -- -- -- -- -- -- --
0370:                                53 F8 FF FF 7F F8            S.....
0380: FF FF 7F 70 61 73 30 00                           ...pas0.        
```

#### Opcodes

```
  0: 0x037A [0x53] WAIT_SCHEDULER_TASK: Wait for scheduler "pas0" with entities [EventEntity, EventEntity]
  1: 0x0387 [0x00] END_REQSTACK()
```

### Event 65535.7

#### Metadata

| Field        | Value    |
|--------------|----------|
| Entrypoint   | 0x0388   |
| Data Size    | 16 bytes |
| Instructions | 2        |

```
      00 01 02 03 04 05 06 07  08 09 0A 0B 0C 0D 0E 0F
      -- -- -- -- -- -- -- --  -- -- -- -- -- -- -- --
0380:                          66 1D 80 F8 FF FF 7F F8          f.......
0390: FF FF 7F 74 6C 62 30 00                           ...tlb0.        
```

#### Opcodes

```
  0: 0x0388 [0x66] LOAD_EXT_SCHEDULER_MAIN: Load scheduler "tlb0" with entities [EventEntity, EventEntity], work=13*
  1: 0x0397 [0x00] END_REQSTACK()
```

### Event 65535.8

#### Metadata

| Field        | Value    |
|--------------|----------|
| Entrypoint   | 0x0398   |
| Data Size    | 14 bytes |
| Instructions | 2        |

```
      00 01 02 03 04 05 06 07  08 09 0A 0B 0C 0D 0E 0F
      -- -- -- -- -- -- -- --  -- -- -- -- -- -- -- --
0390:                          53 F8 FF FF 7F F8 FF FF          S.......
03A0: 7F 74 6C 62 30 00                                 .tlb0.          
```

#### Opcodes

```
  0: 0x0398 [0x53] WAIT_SCHEDULER_TASK: Wait for scheduler "tlb0" with entities [EventEntity, EventEntity]
  1: 0x03A5 [0x00] END_REQSTACK()
```

### Event 65535.9

#### Metadata

| Field        | Value    |
|--------------|----------|
| Entrypoint   | 0x03A6   |
| Data Size    | 16 bytes |
| Instructions | 2        |

```
      00 01 02 03 04 05 06 07  08 09 0A 0B 0C 0D 0E 0F
      -- -- -- -- -- -- -- --  -- -- -- -- -- -- -- --
03A0:                   66 1D  80 F8 FF FF 7F F8 FF FF        f.........
03B0: 7F 74 6C 62 31 00                                 .tlb1.          
```

#### Opcodes

```
  0: 0x03A6 [0x66] LOAD_EXT_SCHEDULER_MAIN: Load scheduler "tlb1" with entities [EventEntity, EventEntity], work=13*
  1: 0x03B5 [0x00] END_REQSTACK()
```

### Event 65535.10

#### Metadata

| Field        | Value    |
|--------------|----------|
| Entrypoint   | 0x03B6   |
| Data Size    | 14 bytes |
| Instructions | 2        |

```
      00 01 02 03 04 05 06 07  08 09 0A 0B 0C 0D 0E 0F
      -- -- -- -- -- -- -- --  -- -- -- -- -- -- -- --
03B0:                   53 F8  FF FF 7F F8 FF FF 7F 74        S........t
03C0: 6C 62 31 00                                       lb1.            
```

#### Opcodes

```
  0: 0x03B6 [0x53] WAIT_SCHEDULER_TASK: Wait for scheduler "tlb1" with entities [EventEntity, EventEntity]
  1: 0x03C3 [0x00] END_REQSTACK()
```

### Event 65535.11

#### Metadata

| Field        | Value    |
|--------------|----------|
| Entrypoint   | 0x03C4   |
| Data Size    | 16 bytes |
| Instructions | 2        |

```
      00 01 02 03 04 05 06 07  08 09 0A 0B 0C 0D 0E 0F
      -- -- -- -- -- -- -- --  -- -- -- -- -- -- -- --
03C0:             66 00 80 F8  FF FF 7F F8 FF FF 7F 74      f..........t
03D0: 68 6B 30 00                                       hk0.            
```

#### Opcodes

```
  0: 0x03C4 [0x66] LOAD_EXT_SCHEDULER_MAIN: Load scheduler "thk0" with entities [EventEntity, EventEntity], work=10*
  1: 0x03D3 [0x00] END_REQSTACK()
```

### Event 65535.12

#### Metadata

| Field        | Value    |
|--------------|----------|
| Entrypoint   | 0x03D4   |
| Data Size    | 14 bytes |
| Instructions | 2        |

```
      00 01 02 03 04 05 06 07  08 09 0A 0B 0C 0D 0E 0F
      -- -- -- -- -- -- -- --  -- -- -- -- -- -- -- --
03D0:             53 F8 FF FF  7F F8 FF FF 7F 74 68 6B      S........thk
03E0: 30 00                                             0.              
```

#### Opcodes

```
  0: 0x03D4 [0x53] WAIT_SCHEDULER_TASK: Wait for scheduler "thk0" with entities [EventEntity, EventEntity]
  1: 0x03E1 [0x00] END_REQSTACK()
```

### Event 65535.13

#### Metadata

| Field        | Value    |
|--------------|----------|
| Entrypoint   | 0x03E2   |
| Data Size    | 16 bytes |
| Instructions | 2        |

```
      00 01 02 03 04 05 06 07  08 09 0A 0B 0C 0D 0E 0F
      -- -- -- -- -- -- -- --  -- -- -- -- -- -- -- --
03E0:       66 00 80 F8 FF FF  7F F8 FF FF 7F 74 68 6B    f..........thk
03F0: 31 00                                             1.              
```

#### Opcodes

```
  0: 0x03E2 [0x66] LOAD_EXT_SCHEDULER_MAIN: Load scheduler "thk1" with entities [EventEntity, EventEntity], work=10*
  1: 0x03F1 [0x00] END_REQSTACK()
```

### Event 65535.14

#### Metadata

| Field        | Value    |
|--------------|----------|
| Entrypoint   | 0x03F2   |
| Data Size    | 14 bytes |
| Instructions | 2        |

```
      00 01 02 03 04 05 06 07  08 09 0A 0B 0C 0D 0E 0F
      -- -- -- -- -- -- -- --  -- -- -- -- -- -- -- --
03F0:       53 F8 FF FF 7F F8  FF FF 7F 74 68 6B 31 00    S........thk1.
```

#### Opcodes

```
  0: 0x03F2 [0x53] WAIT_SCHEDULER_TASK: Wait for scheduler "thk1" with entities [EventEntity, EventEntity]
  1: 0x03FF [0x00] END_REQSTACK()
```

### Event 65535.15

#### Metadata

| Field        | Value    |
|--------------|----------|
| Entrypoint   | 0x0400   |
| Data Size    | 16 bytes |
| Instructions | 2        |

```
      00 01 02 03 04 05 06 07  08 09 0A 0B 0C 0D 0E 0F
      -- -- -- -- -- -- -- --  -- -- -- -- -- -- -- --
0400: 66 00 80 F8 FF FF 7F F8  FF FF 7F 74 68 6B 32 00  f..........thk2.
```

#### Opcodes

```
  0: 0x0400 [0x66] LOAD_EXT_SCHEDULER_MAIN: Load scheduler "thk2" with entities [EventEntity, EventEntity], work=10*
  1: 0x040F [0x00] END_REQSTACK()
```

### Event 65535.16

#### Metadata

| Field        | Value    |
|--------------|----------|
| Entrypoint   | 0x0410   |
| Data Size    | 14 bytes |
| Instructions | 2        |

```
      00 01 02 03 04 05 06 07  08 09 0A 0B 0C 0D 0E 0F
      -- -- -- -- -- -- -- --  -- -- -- -- -- -- -- --
0410: 53 F8 FF FF 7F F8 FF FF  7F 74 68 6B 32 00        S........thk2.  
```

#### Opcodes

```
  0: 0x0410 [0x53] WAIT_SCHEDULER_TASK: Wait for scheduler "thk2" with entities [EventEntity, EventEntity]
  1: 0x041D [0x00] END_REQSTACK()
```

### Event 65535.17

#### Metadata

| Field        | Value    |
|--------------|----------|
| Entrypoint   | 0x041E   |
| Data Size    | 16 bytes |
| Instructions | 2        |

```
      00 01 02 03 04 05 06 07  08 09 0A 0B 0C 0D 0E 0F
      -- -- -- -- -- -- -- --  -- -- -- -- -- -- -- --
0410:                                            66 00                f.
0420: 80 F8 FF FF 7F F8 FF FF  7F 77 61 76 30 00        .........wav0.  
```

#### Opcodes

```
  0: 0x041E [0x66] LOAD_EXT_SCHEDULER_MAIN: Load scheduler "wav0" with entities [EventEntity, EventEntity], work=10*
  1: 0x042D [0x00] END_REQSTACK()
```

### Event 65535.18

#### Metadata

| Field        | Value    |
|--------------|----------|
| Entrypoint   | 0x042E   |
| Data Size    | 14 bytes |
| Instructions | 2        |

```
      00 01 02 03 04 05 06 07  08 09 0A 0B 0C 0D 0E 0F
      -- -- -- -- -- -- -- --  -- -- -- -- -- -- -- --
0420:                                            53 F8                S.
0430: FF FF 7F F8 FF FF 7F 77  61 76 30 00              .......wav0.    
```

#### Opcodes

```
  0: 0x042E [0x53] WAIT_SCHEDULER_TASK: Wait for scheduler "wav0" with entities [EventEntity, EventEntity]
  1: 0x043B [0x00] END_REQSTACK()
```

### Event 65535.19

#### Metadata

| Field        | Value    |
|--------------|----------|
| Entrypoint   | 0x043C   |
| Data Size    | 16 bytes |
| Instructions | 2        |

```
      00 01 02 03 04 05 06 07  08 09 0A 0B 0C 0D 0E 0F
      -- -- -- -- -- -- -- --  -- -- -- -- -- -- -- --
0430:                                      66 00 80 F8              f...
0440: FF FF 7F F8 FF FF 7F 64  69 73 30 00              .......dis0.    
```

#### Opcodes

```
  0: 0x043C [0x66] LOAD_EXT_SCHEDULER_MAIN: Load scheduler "dis0" with entities [EventEntity, EventEntity], work=10*
  1: 0x044B [0x00] END_REQSTACK()
```

### Event 65535.20

#### Metadata

| Field        | Value    |
|--------------|----------|
| Entrypoint   | 0x044C   |
| Data Size    | 14 bytes |
| Instructions | 2        |

```
      00 01 02 03 04 05 06 07  08 09 0A 0B 0C 0D 0E 0F
      -- -- -- -- -- -- -- --  -- -- -- -- -- -- -- --
0440:                                      53 F8 FF FF              S...
0450: 7F F8 FF FF 7F 64 69 73  30 00                    .....dis0.      
```

#### Opcodes

```
  0: 0x044C [0x53] WAIT_SCHEDULER_TASK: Wait for scheduler "dis0" with entities [EventEntity, EventEntity]
  1: 0x0459 [0x00] END_REQSTACK()
```

### Event 65535.21

#### Metadata

| Field        | Value    |
|--------------|----------|
| Entrypoint   | 0x045A   |
| Data Size    | 16 bytes |
| Instructions | 2        |

```
      00 01 02 03 04 05 06 07  08 09 0A 0B 0C 0D 0E 0F
      -- -- -- -- -- -- -- --  -- -- -- -- -- -- -- --
0450:                                66 15 80 F8 FF FF            f.....
0460: 7F F8 FF FF 7F 6B 61 73  30 00                    .....kas0.      
```

#### Opcodes

```
  0: 0x045A [0x66] LOAD_EXT_SCHEDULER_MAIN: Load scheduler "kas0" with entities [EventEntity, EventEntity], work=11*
  1: 0x0469 [0x00] END_REQSTACK()
```

### Event 65535.22

#### Metadata

| Field        | Value    |
|--------------|----------|
| Entrypoint   | 0x046A   |
| Data Size    | 14 bytes |
| Instructions | 2        |

```
      00 01 02 03 04 05 06 07  08 09 0A 0B 0C 0D 0E 0F
      -- -- -- -- -- -- -- --  -- -- -- -- -- -- -- --
0460:                                53 F8 FF FF 7F F8            S.....
0470: FF FF 7F 6B 61 73 30 00                           ...kas0.        
```

#### Opcodes

```
  0: 0x046A [0x53] WAIT_SCHEDULER_TASK: Wait for scheduler "kas0" with entities [EventEntity, EventEntity]
  1: 0x0477 [0x00] END_REQSTACK()
```

### Event 65535.23

#### Metadata

| Field        | Value    |
|--------------|----------|
| Entrypoint   | 0x0478   |
| Data Size    | 16 bytes |
| Instructions | 2        |

```
      00 01 02 03 04 05 06 07  08 09 0A 0B 0C 0D 0E 0F
      -- -- -- -- -- -- -- --  -- -- -- -- -- -- -- --
0470:                          66 15 80 F8 FF FF 7F F8          f.......
0480: FF FF 7F 61 74 30 30 00                           ...at00.        
```

#### Opcodes

```
  0: 0x0478 [0x66] LOAD_EXT_SCHEDULER_MAIN: Load scheduler "at00" with entities [EventEntity, EventEntity], work=11*
  1: 0x0487 [0x00] END_REQSTACK()
```

### Event 65535.24

#### Metadata

| Field        | Value    |
|--------------|----------|
| Entrypoint   | 0x0488   |
| Data Size    | 14 bytes |
| Instructions | 2        |

```
      00 01 02 03 04 05 06 07  08 09 0A 0B 0C 0D 0E 0F
      -- -- -- -- -- -- -- --  -- -- -- -- -- -- -- --
0480:                          53 F8 FF FF 7F F8 FF FF          S.......
0490: 7F 61 74 30 30 00                                 .at00.          
```

#### Opcodes

```
  0: 0x0488 [0x53] WAIT_SCHEDULER_TASK: Wait for scheduler "at00" with entities [EventEntity, EventEntity]
  1: 0x0495 [0x00] END_REQSTACK()
```

### Event 65535.25

#### Metadata

| Field        | Value    |
|--------------|----------|
| Entrypoint   | 0x0496   |
| Data Size    | 16 bytes |
| Instructions | 2        |

```
      00 01 02 03 04 05 06 07  08 09 0A 0B 0C 0D 0E 0F
      -- -- -- -- -- -- -- --  -- -- -- -- -- -- -- --
0490:                   66 15  80 F8 FF FF 7F F8 FF FF        f.........
04A0: 7F 62 74 6C 30 00                                 .btl0.          
```

#### Opcodes

```
  0: 0x0496 [0x66] LOAD_EXT_SCHEDULER_MAIN: Load scheduler "btl0" with entities [EventEntity, EventEntity], work=11*
  1: 0x04A5 [0x00] END_REQSTACK()
```

### Event 65535.26

#### Metadata

| Field        | Value    |
|--------------|----------|
| Entrypoint   | 0x04A6   |
| Data Size    | 14 bytes |
| Instructions | 2        |

```
      00 01 02 03 04 05 06 07  08 09 0A 0B 0C 0D 0E 0F
      -- -- -- -- -- -- -- --  -- -- -- -- -- -- -- --
04A0:                   53 F8  FF FF 7F F8 FF FF 7F 62        S........b
04B0: 74 6C 30 00                                       tl0.            
```

#### Opcodes

```
  0: 0x04A6 [0x53] WAIT_SCHEDULER_TASK: Wait for scheduler "btl0" with entities [EventEntity, EventEntity]
  1: 0x04B3 [0x00] END_REQSTACK()
```

### Event 65535.27

#### Metadata

| Field        | Value    |
|--------------|----------|
| Entrypoint   | 0x04B4   |
| Data Size    | 16 bytes |
| Instructions | 2        |

```
      00 01 02 03 04 05 06 07  08 09 0A 0B 0C 0D 0E 0F
      -- -- -- -- -- -- -- --  -- -- -- -- -- -- -- --
04B0:             66 15 80 F8  FF FF 7F F8 FF FF 7F 75      f..........u
04C0: 74 6C 30 00                                       tl0.            
```

#### Opcodes

```
  0: 0x04B4 [0x66] LOAD_EXT_SCHEDULER_MAIN: Load scheduler "utl0" with entities [EventEntity, EventEntity], work=11*
  1: 0x04C3 [0x00] END_REQSTACK()
```

### Event 65535.28

#### Metadata

| Field        | Value    |
|--------------|----------|
| Entrypoint   | 0x04C4   |
| Data Size    | 14 bytes |
| Instructions | 2        |

```
      00 01 02 03 04 05 06 07  08 09 0A 0B 0C 0D 0E 0F
      -- -- -- -- -- -- -- --  -- -- -- -- -- -- -- --
04C0:             53 F8 FF FF  7F F8 FF FF 7F 75 74 6C      S........utl
04D0: 30 00                                             0.              
```

#### Opcodes

```
  0: 0x04C4 [0x53] WAIT_SCHEDULER_TASK: Wait for scheduler "utl0" with entities [EventEntity, EventEntity]
  1: 0x04D1 [0x00] END_REQSTACK()
```

### Event 65535.29

#### Metadata

| Field        | Value    |
|--------------|----------|
| Entrypoint   | 0x04D2   |
| Data Size    | 16 bytes |
| Instructions | 2        |

```
      00 01 02 03 04 05 06 07  08 09 0A 0B 0C 0D 0E 0F
      -- -- -- -- -- -- -- --  -- -- -- -- -- -- -- --
04D0:       66 15 80 F8 FF FF  7F F8 FF FF 7F 75 74 6C    f..........utl
04E0: 31 00                                             1.              
```

#### Opcodes

```
  0: 0x04D2 [0x66] LOAD_EXT_SCHEDULER_MAIN: Load scheduler "utl1" with entities [EventEntity, EventEntity], work=11*
  1: 0x04E1 [0x00] END_REQSTACK()
```

### Event 65535.30

#### Metadata

| Field        | Value    |
|--------------|----------|
| Entrypoint   | 0x04E2   |
| Data Size    | 14 bytes |
| Instructions | 2        |

```
      00 01 02 03 04 05 06 07  08 09 0A 0B 0C 0D 0E 0F
      -- -- -- -- -- -- -- --  -- -- -- -- -- -- -- --
04E0:       53 F8 FF FF 7F F8  FF FF 7F 75 74 6C 31 00    S........utl1.
```

#### Opcodes

```
  0: 0x04E2 [0x53] WAIT_SCHEDULER_TASK: Wait for scheduler "utl1" with entities [EventEntity, EventEntity]
  1: 0x04EF [0x00] END_REQSTACK()
```

### Event 65535.31

#### Metadata

| Field        | Value    |
|--------------|----------|
| Entrypoint   | 0x04F0   |
| Data Size    | 16 bytes |
| Instructions | 2        |

```
      00 01 02 03 04 05 06 07  08 09 0A 0B 0C 0D 0E 0F
      -- -- -- -- -- -- -- --  -- -- -- -- -- -- -- --
04F0: 66 15 80 F8 FF FF 7F F8  FF FF 7F 6E 74 6C 30 00  f..........ntl0.
```

#### Opcodes

```
  0: 0x04F0 [0x66] LOAD_EXT_SCHEDULER_MAIN: Load scheduler "ntl0" with entities [EventEntity, EventEntity], work=11*
  1: 0x04FF [0x00] END_REQSTACK()
```

### Event 65535.32

#### Metadata

| Field        | Value    |
|--------------|----------|
| Entrypoint   | 0x0500   |
| Data Size    | 14 bytes |
| Instructions | 2        |

```
      00 01 02 03 04 05 06 07  08 09 0A 0B 0C 0D 0E 0F
      -- -- -- -- -- -- -- --  -- -- -- -- -- -- -- --
0500: 53 F8 FF FF 7F F8 FF FF  7F 6E 74 6C 30 00        S........ntl0.  
```

#### Opcodes

```
  0: 0x0500 [0x53] WAIT_SCHEDULER_TASK: Wait for scheduler "ntl0" with entities [EventEntity, EventEntity]
  1: 0x050D [0x00] END_REQSTACK()
```

### Event 65535.33

#### Metadata

| Field        | Value    |
|--------------|----------|
| Entrypoint   | 0x050E   |
| Data Size    | 16 bytes |
| Instructions | 2        |

```
      00 01 02 03 04 05 06 07  08 09 0A 0B 0C 0D 0E 0F
      -- -- -- -- -- -- -- --  -- -- -- -- -- -- -- --
0500:                                            66 15                f.
0510: 80 F8 FF FF 7F F8 FF FF  7F 6E 74 6C 31 00        .........ntl1.  
```

#### Opcodes

```
  0: 0x050E [0x66] LOAD_EXT_SCHEDULER_MAIN: Load scheduler "ntl1" with entities [EventEntity, EventEntity], work=11*
  1: 0x051D [0x00] END_REQSTACK()
```

### Event 65535.34

#### Metadata

| Field        | Value    |
|--------------|----------|
| Entrypoint   | 0x051E   |
| Data Size    | 14 bytes |
| Instructions | 2        |

```
      00 01 02 03 04 05 06 07  08 09 0A 0B 0C 0D 0E 0F
      -- -- -- -- -- -- -- --  -- -- -- -- -- -- -- --
0510:                                            53 F8                S.
0520: FF FF 7F F8 FF FF 7F 6E  74 6C 31 00              .......ntl1.    
```

#### Opcodes

```
  0: 0x051E [0x53] WAIT_SCHEDULER_TASK: Wait for scheduler "ntl1" with entities [EventEntity, EventEntity]
  1: 0x052B [0x00] END_REQSTACK()
```

### Event 65535.35

#### Metadata

| Field        | Value    |
|--------------|----------|
| Entrypoint   | 0x052C   |
| Data Size    | 16 bytes |
| Instructions | 2        |

```
      00 01 02 03 04 05 06 07  08 09 0A 0B 0C 0D 0E 0F
      -- -- -- -- -- -- -- --  -- -- -- -- -- -- -- --
0520:                                      66 15 80 F8              f...
0530: FF FF 7F F8 FF FF 7F 6E  67 74 30 00              .......ngt0.    
```

#### Opcodes

```
  0: 0x052C [0x66] LOAD_EXT_SCHEDULER_MAIN: Load scheduler "ngt0" with entities [EventEntity, EventEntity], work=11*
  1: 0x053B [0x00] END_REQSTACK()
```

### Event 65535.36

#### Metadata

| Field        | Value    |
|--------------|----------|
| Entrypoint   | 0x053C   |
| Data Size    | 14 bytes |
| Instructions | 2        |

```
      00 01 02 03 04 05 06 07  08 09 0A 0B 0C 0D 0E 0F
      -- -- -- -- -- -- -- --  -- -- -- -- -- -- -- --
0530:                                      53 F8 FF FF              S...
0540: 7F F8 FF FF 7F 6E 67 74  30 00                    .....ngt0.      
```

#### Opcodes

```
  0: 0x053C [0x53] WAIT_SCHEDULER_TASK: Wait for scheduler "ngt0" with entities [EventEntity, EventEntity]
  1: 0x0549 [0x00] END_REQSTACK()
```

### Event 65535.37

#### Metadata

| Field        | Value    |
|--------------|----------|
| Entrypoint   | 0x054A   |
| Data Size    | 16 bytes |
| Instructions | 2        |

```
      00 01 02 03 04 05 06 07  08 09 0A 0B 0C 0D 0E 0F
      -- -- -- -- -- -- -- --  -- -- -- -- -- -- -- --
0540:                                66 15 80 F8 FF FF            f.....
0550: 7F F8 FF FF 7F 6E 67 74  31 00                    .....ngt1.      
```

#### Opcodes

```
  0: 0x054A [0x66] LOAD_EXT_SCHEDULER_MAIN: Load scheduler "ngt1" with entities [EventEntity, EventEntity], work=11*
  1: 0x0559 [0x00] END_REQSTACK()
```

### Event 65535.38

#### Metadata

| Field        | Value    |
|--------------|----------|
| Entrypoint   | 0x055A   |
| Data Size    | 14 bytes |
| Instructions | 2        |

```
      00 01 02 03 04 05 06 07  08 09 0A 0B 0C 0D 0E 0F
      -- -- -- -- -- -- -- --  -- -- -- -- -- -- -- --
0550:                                53 F8 FF FF 7F F8            S.....
0560: FF FF 7F 6E 67 74 31 00                           ...ngt1.        
```

#### Opcodes

```
  0: 0x055A [0x53] WAIT_SCHEDULER_TASK: Wait for scheduler "ngt1" with entities [EventEntity, EventEntity]
  1: 0x0567 [0x00] END_REQSTACK()
```

### Event 65535.39

#### Metadata

| Field        | Value    |
|--------------|----------|
| Entrypoint   | 0x0568   |
| Data Size    | 16 bytes |
| Instructions | 2        |

```
      00 01 02 03 04 05 06 07  08 09 0A 0B 0C 0D 0E 0F
      -- -- -- -- -- -- -- --  -- -- -- -- -- -- -- --
0560:                          66 15 80 F8 FF FF 7F F8          f.......
0570: FF FF 7F 61 69 67 30 00                           ...aig0.        
```

#### Opcodes

```
  0: 0x0568 [0x66] LOAD_EXT_SCHEDULER_MAIN: Load scheduler "aig0" with entities [EventEntity, EventEntity], work=11*
  1: 0x0577 [0x00] END_REQSTACK()
```

### Event 65535.40

#### Metadata

| Field        | Value    |
|--------------|----------|
| Entrypoint   | 0x0578   |
| Data Size    | 14 bytes |
| Instructions | 2        |

```
      00 01 02 03 04 05 06 07  08 09 0A 0B 0C 0D 0E 0F
      -- -- -- -- -- -- -- --  -- -- -- -- -- -- -- --
0570:                          53 F8 FF FF 7F F8 FF FF          S.......
0580: 7F 61 69 67 30 00                                 .aig0.          
```

#### Opcodes

```
  0: 0x0578 [0x53] WAIT_SCHEDULER_TASK: Wait for scheduler "aig0" with entities [EventEntity, EventEntity]
  1: 0x0585 [0x00] END_REQSTACK()
```

### Event 65535.41

#### Metadata

| Field        | Value    |
|--------------|----------|
| Entrypoint   | 0x0586   |
| Data Size    | 16 bytes |
| Instructions | 2        |

```
      00 01 02 03 04 05 06 07  08 09 0A 0B 0C 0D 0E 0F
      -- -- -- -- -- -- -- --  -- -- -- -- -- -- -- --
0580:                   66 15  80 F8 FF FF 7F F8 FF FF        f.........
0590: 7F 61 69 67 31 00                                 .aig1.          
```

#### Opcodes

```
  0: 0x0586 [0x66] LOAD_EXT_SCHEDULER_MAIN: Load scheduler "aig1" with entities [EventEntity, EventEntity], work=11*
  1: 0x0595 [0x00] END_REQSTACK()
```

### Event 65535.42

#### Metadata

| Field        | Value    |
|--------------|----------|
| Entrypoint   | 0x0596   |
| Data Size    | 14 bytes |
| Instructions | 2        |

```
      00 01 02 03 04 05 06 07  08 09 0A 0B 0C 0D 0E 0F
      -- -- -- -- -- -- -- --  -- -- -- -- -- -- -- --
0590:                   53 F8  FF FF 7F F8 FF FF 7F 61        S........a
05A0: 69 67 31 00                                       ig1.            
```

#### Opcodes

```
  0: 0x0596 [0x53] WAIT_SCHEDULER_TASK: Wait for scheduler "aig1" with entities [EventEntity, EventEntity]
  1: 0x05A3 [0x00] END_REQSTACK()
```

### Event 65535.43

#### Metadata

| Field        | Value    |
|--------------|----------|
| Entrypoint   | 0x05A4   |
| Data Size    | 57 bytes |
| Instructions | 5        |

```
      00 01 02 03 04 05 06 07  08 09 0A 0B 0C 0D 0E 0F
      -- -- -- -- -- -- -- --  -- -- -- -- -- -- -- --
05A0:             66 15 80 F8  FF FF 7F F8 FF FF 7F 61      f..........a
05B0: 69 67 30 53 F8 FF FF 7F  F8 FF FF 7F 61 69 67 30  ig0S........aig0
05C0: 66 15 80 F8 FF FF 7F F8  FF FF 7F 61 69 67 31 53  f..........aig1S
05D0: F8 FF FF 7F F8 FF FF 7F  61 69 67 31 00           ........aig1.   
```

#### Opcodes

```
  0: 0x05A4 [0x66] LOAD_EXT_SCHEDULER_MAIN: Load scheduler "aig0" with entities [EventEntity, EventEntity], work=11*
  1: 0x05B3 [0x53] WAIT_SCHEDULER_TASK: Wait for scheduler "aig0" with entities [EventEntity, EventEntity]
  2: 0x05C0 [0x66] LOAD_EXT_SCHEDULER_MAIN: Load scheduler "aig1" with entities [EventEntity, EventEntity], work=11*
  3: 0x05CF [0x53] WAIT_SCHEDULER_TASK: Wait for scheduler "aig1" with entities [EventEntity, EventEntity]
  4: 0x05DC [0x00] END_REQSTACK()
```

### Event 65535.44

#### Metadata

| Field        | Value    |
|--------------|----------|
| Entrypoint   | 0x05DD   |
| Data Size    | 16 bytes |
| Instructions | 2        |

```
      00 01 02 03 04 05 06 07  08 09 0A 0B 0C 0D 0E 0F
      -- -- -- -- -- -- -- --  -- -- -- -- -- -- -- --
05D0:                                         66 15 80               f..
05E0: F8 FF FF 7F F8 FF FF 7F  75 6E 7A 30 00           ........unz0.   
```

#### Opcodes

```
  0: 0x05DD [0x66] LOAD_EXT_SCHEDULER_MAIN: Load scheduler "unz0" with entities [EventEntity, EventEntity], work=11*
  1: 0x05EC [0x00] END_REQSTACK()
```

### Event 65535.45

#### Metadata

| Field        | Value    |
|--------------|----------|
| Entrypoint   | 0x05ED   |
| Data Size    | 14 bytes |
| Instructions | 2        |

```
      00 01 02 03 04 05 06 07  08 09 0A 0B 0C 0D 0E 0F
      -- -- -- -- -- -- -- --  -- -- -- -- -- -- -- --
05E0:                                         53 F8 FF               S..
05F0: FF 7F F8 FF FF 7F 75 6E  7A 30 00                 ......unz0.     
```

#### Opcodes

```
  0: 0x05ED [0x53] WAIT_SCHEDULER_TASK: Wait for scheduler "unz0" with entities [EventEntity, EventEntity]
  1: 0x05FA [0x00] END_REQSTACK()
```

### Event 65535.46

#### Metadata

| Field        | Value    |
|--------------|----------|
| Entrypoint   | 0x05FB   |
| Data Size    | 16 bytes |
| Instructions | 2        |

```
      00 01 02 03 04 05 06 07  08 09 0A 0B 0C 0D 0E 0F
      -- -- -- -- -- -- -- --  -- -- -- -- -- -- -- --
05F0:                                   66 1E 80 F8 FF             f....
0600: FF 7F F8 FF FF 7F 64 6B  30 30 00                 ......dk00.     
```

#### Opcodes

```
  0: 0x05FB [0x66] LOAD_EXT_SCHEDULER_MAIN: Load scheduler "dk00" with entities [EventEntity, EventEntity], work=12*
  1: 0x060A [0x00] END_REQSTACK()
```

### Event 65535.47

#### Metadata

| Field        | Value    |
|--------------|----------|
| Entrypoint   | 0x060B   |
| Data Size    | 14 bytes |
| Instructions | 2        |

```
      00 01 02 03 04 05 06 07  08 09 0A 0B 0C 0D 0E 0F
      -- -- -- -- -- -- -- --  -- -- -- -- -- -- -- --
0600:                                   53 F8 FF FF 7F             S....
0610: F8 FF FF 7F 64 6B 30 30  00                       ....dk00.       
```

#### Opcodes

```
  0: 0x060B [0x53] WAIT_SCHEDULER_TASK: Wait for scheduler "dk00" with entities [EventEntity, EventEntity]
  1: 0x0618 [0x00] END_REQSTACK()
```

### Event 65535.48

#### Metadata

| Field        | Value    |
|--------------|----------|
| Entrypoint   | 0x0619   |
| Data Size    | 16 bytes |
| Instructions | 2        |

```
      00 01 02 03 04 05 06 07  08 09 0A 0B 0C 0D 0E 0F
      -- -- -- -- -- -- -- --  -- -- -- -- -- -- -- --
0610:                             66 1E 80 F8 FF FF 7F           f......
0620: F8 FF FF 7F 64 6B 30 31  00                       ....dk01.       
```

#### Opcodes

```
  0: 0x0619 [0x66] LOAD_EXT_SCHEDULER_MAIN: Load scheduler "dk01" with entities [EventEntity, EventEntity], work=12*
  1: 0x0628 [0x00] END_REQSTACK()
```

### Event 65535.49

#### Metadata

| Field        | Value    |
|--------------|----------|
| Entrypoint   | 0x0629   |
| Data Size    | 14 bytes |
| Instructions | 2        |

```
      00 01 02 03 04 05 06 07  08 09 0A 0B 0C 0D 0E 0F
      -- -- -- -- -- -- -- --  -- -- -- -- -- -- -- --
0620:                             53 F8 FF FF 7F F8 FF           S......
0630: FF 7F 64 6B 30 31 00                              ..dk01.         
```

#### Opcodes

```
  0: 0x0629 [0x53] WAIT_SCHEDULER_TASK: Wait for scheduler "dk01" with entities [EventEntity, EventEntity]
  1: 0x0636 [0x00] END_REQSTACK()
```

### Event 65535.50

#### Metadata

| Field        | Value    |
|--------------|----------|
| Entrypoint   | 0x0637   |
| Data Size    | 16 bytes |
| Instructions | 2        |

```
      00 01 02 03 04 05 06 07  08 09 0A 0B 0C 0D 0E 0F
      -- -- -- -- -- -- -- --  -- -- -- -- -- -- -- --
0630:                      66  1E 80 F8 FF FF 7F F8 FF         f........
0640: FF 7F 64 6B 75 30 00                              ..dku0.         
```

#### Opcodes

```
  0: 0x0637 [0x66] LOAD_EXT_SCHEDULER_MAIN: Load scheduler "dku0" with entities [EventEntity, EventEntity], work=12*
  1: 0x0646 [0x00] END_REQSTACK()
```

### Event 65535.51

#### Metadata

| Field        | Value    |
|--------------|----------|
| Entrypoint   | 0x0647   |
| Data Size    | 14 bytes |
| Instructions | 2        |

```
      00 01 02 03 04 05 06 07  08 09 0A 0B 0C 0D 0E 0F
      -- -- -- -- -- -- -- --  -- -- -- -- -- -- -- --
0640:                      53  F8 FF FF 7F F8 FF FF 7F         S........
0650: 64 6B 75 30 00                                    dku0.           
```

#### Opcodes

```
  0: 0x0647 [0x53] WAIT_SCHEDULER_TASK: Wait for scheduler "dku0" with entities [EventEntity, EventEntity]
  1: 0x0654 [0x00] END_REQSTACK()
```

### Event 65535.52

#### Metadata

| Field        | Value   |
|--------------|---------|
| Entrypoint   | 0x0655  |
| Data Size    | 9 bytes |
| Instructions | 3       |

```
      00 01 02 03 04 05 06 07  08 09 0A 0B 0C 0D 0E 0F
      -- -- -- -- -- -- -- --  -- -- -- -- -- -- -- --
0650:                5E 69 64  6C 30 1C 0C 80 00             ^idl0....  
```

#### Opcodes

```
  0: 0x0655 [0x5E] EventEntity goes idle (kills current action) (animation: "idl0")
  1: 0x065A [0x1C] WAIT(60* ticks)
  2: 0x065D [0x00] END_REQSTACK()
```

### Event 10005

#### Metadata

| Field        | Value   |
|--------------|---------|
| Entrypoint   | 0x065E  |
| Data Size    | 1 bytes |
| Instructions | 1       |

```
      00 01 02 03 04 05 06 07  08 09 0A 0B 0C 0D 0E 0F
      -- -- -- -- -- -- -- --  -- -- -- -- -- -- -- --
0650:                                            00                   . 
```

#### Opcodes

```
  0: 0x065E [0x00] END_REQSTACK()
```

### Event 65535.53

#### Metadata

| Field        | Value    |
|--------------|----------|
| Entrypoint   | 0x065F   |
| Data Size    | 10 bytes |
| Instructions | 2        |

```
      00 01 02 03 04 05 06 07  08 09 0A 0B 0C 0D 0E 0F
      -- -- -- -- -- -- -- --  -- -- -- -- -- -- -- --
0650:                                               37                 7
0660: 1F 80 20 80 09 80 21 80  00                       .. ...!..       
```

#### Opcodes

```
  0: 0x065F [0x37] UPDATE_EVENT_POSITION_AND_DIR: x=13.849*, z=-7.475*, y=-7.339*, direction=327.6°*
  1: 0x0668 [0x00] END_REQSTACK()
```
