# 17793049 - Melyon

## Common Data

| Field            | Value             |
|------------------|-------------------|
| Zone             | Selbina (ID: 248) |
| Block Size       | 720 bytes         |
| Total Events     | 6                 |
| References Count | 24                |

## List of Events

| Event ID              | Entrypoint   |   Size |   Instructions |
|-----------------------|--------------|--------|----------------|
| [65535](#event-65535) | 0x0000       |      1 |              1 |
| [60](#event-60)       | 0x0001       |    257 |             51 |
| [62](#event-62)       | 0x0102       |     85 |             16 |
| [63](#event-63)       | 0x0157       |     85 |             16 |
| [64](#event-64)       | 0x01AC       |     85 |             16 |
| [61](#event-61)       | 0x0201       |     68 |             16 |

## DAT References (imed_data)

|   Index | Hex Value   |   Dec Value |
|---------|-------------|-------------|
|       0 | 0x003C      |          60 |
|       1 | 0x1A58      |        6744 |
|       2 | 0x1A59      |        6745 |
|       3 | 0x1A5A      |        6746 |
|       4 | 0x1A5B      |        6747 |
|       5 | 0x1A5C      |        6748 |
|       6 | 0x1A5D      |        6749 |
|       7 | 0x1A5E      |        6750 |
|       8 | 0x1A5F      |        6751 |
|       9 | 0x0000      |           0 |
|      10 | 0x1A60      |        6752 |
|      11 | 0x1A61      |        6753 |
|      12 | 0x1A62      |        6754 |
|      13 | 0x1A63      |        6755 |
|      14 | 0x000A      |          10 |
|      15 | 0x0001      |           1 |
|      16 | 0x1A67      |        6759 |
|      17 | 0x1A64      |        6756 |
|      18 | 0x1A65      |        6757 |
|      19 | 0x000B      |          11 |
|      20 | 0x00C9      |         201 |
|      21 | 0x000C      |          12 |
|      22 | 0x000D      |          13 |
|      23 | 0x1A66      |        6758 |

## String References

- **6744**: Hallo there. Whit dae ye think of ma sheep? Ah uised tae chaise doon wild yins fer their wuil, but nou ah've got sheep of ma ain!
- **6745**: Asides, ye need healthy sheep tae get quality wuil! An ah anlie want the verra best!
- **6746**: Tha's why ah stairted raisin sheep masel!
- **6747**: Ma family minds the shop fer me, sae ah can stay oot here an watch ower ma sheep.
- **6748**: But gettin quality wuil is awfie haird!
- **6749**: Sae ah'm ettlin tae stuff them wi the verra best feed!
- **6750**: Tha's why ah need yer help, [laddie/lass]. Would ye mind fetchin me some feed fer ma sheep?
- **6751**: Well? [Of course./Sorry, but I can't.]
- **6752**: Ye will? Tha's a [braw lad/good lass]! Ah'm needin many different sorts of them, an some mair than ithers. Listen cannily!
- **6753**: Ah need five $0.
- **6754**: Alsae, ah could uise three $1.
- **6755**: Lastly, ah could uise jist one $2. Mind an caw cannie!
- **6756**: Braw wirk, [lad/lassie]. Ye've brought me these $1, have ye? Here, take this wi ma thanks!
- **6757**: Ma sheep are aye in need of quality feed. Anytime ye find some, bring it ower, an ah'll take it right awa.
- **6758**: Och, ye forgot whit sortay feed ah'm needin, did ye? Well, here it is agane, sae listen cannily!
- **6759**: Naebody's ivver telt me nae! Got ower muckle oan yer hauns, have ye? Come back aroon anytime. Ah'll be right here.

## Events

### Event 65535

#### Metadata

| Field        | Value   |
|--------------|---------|
| Entrypoint   | 0x0000  |
| Data Size    | 1 bytes |
| Instructions | 1       |

```
      00 01 02 03 04 05 06 07  08 09 0A 0B 0C 0D 0E 0F
      -- -- -- -- -- -- -- --  -- -- -- -- -- -- -- --
0000: 00                                                .               
```

#### Opcodes

```
  0: 0x0000 [0x00] END_REQSTACK()
```

### Event 60

#### Metadata

| Field        | Value     |
|--------------|-----------|
| Entrypoint   | 0x0001    |
| Data Size    | 257 bytes |
| Instructions | 43        |

```
      00 01 02 03 04 05 06 07  08 09 0A 0B 0C 0D 0E 0F
      -- -- -- -- -- -- -- --  -- -- -- -- -- -- -- --
0000:    1E F0 FF FF 7F 6F 70  5B 00 80 F8 FF FF 7F F8   .....op[.......
0010: FF FF 7F 74 6C 62 30 1D  01 80 23 1D 02 80 23 53  ...tlb0...#...#S
0020: F8 FF FF 7F F8 FF FF 7F  74 6C 62 30 5B 00 80 F8  ........tlb0[...
0030: FF FF 7F F8 FF FF 7F 74  6C 6B 30 1D 03 80 23 1D  .......tlk0...#.
0040: 04 80 23 53 F8 FF FF 7F  F8 FF FF 7F 74 6C 6B 30  ..#S........tlk0
0050: 5B 00 80 F8 FF FF 7F F8  FF FF 7F 74 68 6B 31 1D  [..........thk1.
0060: 05 80 23 1D 06 80 23 53  F8 FF FF 7F F8 FF FF 7F  ..#...#S........
0070: 74 68 6B 31 5B 00 80 F8  FF FF 7F F8 FF FF 7F 74  thk1[..........t
0080: 6C 6B 30 1D 07 80 23 5E  69 64 6C 30 24 08 80 09  lk0...#^idl0$...
0090: 80 09 80 25 02 00 10 09  80 00 E1 00 5B 00 80 F8  ...%........[...
00A0: FF FF 7F F8 FF FF 7F 74  6C 6B 30 1D 0A 80 23 1D  .......tlk0...#.
00B0: 0B 80 23 53 F8 FF FF 7F  F8 FF FF 7F 74 6C 6B 30  ..#S........tlk0
00C0: 5B 00 80 F8 FF FF 7F F8  FF FF 7F 74 6C 62 30 1D  [..........tlb0.
00D0: 0C 80 23 1D 0D 80 23 03  01 10 0E 80 21 00 01 01  ..#...#.....!...
00E0: 01 02 00 10 0F 80 00 01  01 5B 00 80 F8 FF FF 7F  .........[......
00F0: F8 FF FF 7F 74 6C 62 30  1D 10 80 23 21 00 01 01  ....tlb0...#!...
0100: 01 00                                             ..              
```

#### Opcodes

```
  0: 0x0001 [0x1E] EventEntity looks at LocalPlayer and starts talking
  1: 0x0006 [0x6F] WAIT_FRAME_DELAY: Yield until WaitTime reaches zero
  2: 0x0007 [0x70] WAIT_ENTITY_RENDER_FLAG: Wait while EventEntity->Render.Flags3 bit 2 is set (cancel turn if not)
  3: 0x0008 [0x5B] LOAD_EXT_SCHEDULER: Load scheduler "tlb0" with entities [EventEntity, EventEntity], work=60*
  4: 0x0017 [0x1D] PRINT_EVENT_MESSAGE(message_id=6744*)
    → "Hallo there. Whit dae ye think of ma sheep? Ah uised tae chaise doon wild yins fer their wuil, but nou ah've got sheep of ma ain!"
  5: 0x001A [0x23] WAIT_FOR_DIALOG_INTERACTION
  6: 0x001B [0x1D] PRINT_EVENT_MESSAGE(message_id=6745*)
    → "Asides, ye need healthy sheep tae get quality wuil! An ah anlie want the verra best!"
  7: 0x001E [0x23] WAIT_FOR_DIALOG_INTERACTION
  8: 0x001F [0x53] WAIT_SCHEDULER_TASK: Wait for scheduler "tlb0" with entities [EventEntity, EventEntity]
  9: 0x002C [0x5B] LOAD_EXT_SCHEDULER: Load scheduler "tlk0" with entities [EventEntity, EventEntity], work=60*
 10: 0x003B [0x1D] PRINT_EVENT_MESSAGE(message_id=6746*)
    → "Tha's why ah stairted raisin sheep masel!"
 11: 0x003E [0x23] WAIT_FOR_DIALOG_INTERACTION
 12: 0x003F [0x1D] PRINT_EVENT_MESSAGE(message_id=6747*)
    → "Ma family minds the shop fer me, sae ah can stay oot here an watch ower ma sheep."
 13: 0x0042 [0x23] WAIT_FOR_DIALOG_INTERACTION
 14: 0x0043 [0x53] WAIT_SCHEDULER_TASK: Wait for scheduler "tlk0" with entities [EventEntity, EventEntity]
 15: 0x0050 [0x5B] LOAD_EXT_SCHEDULER: Load scheduler "thk1" with entities [EventEntity, EventEntity], work=60*
 16: 0x005F [0x1D] PRINT_EVENT_MESSAGE(message_id=6748*)
    → "But gettin quality wuil is awfie haird!"
 17: 0x0062 [0x23] WAIT_FOR_DIALOG_INTERACTION
 18: 0x0063 [0x1D] PRINT_EVENT_MESSAGE(message_id=6749*)
    → "Sae ah'm ettlin tae stuff them wi the verra best feed!"
 19: 0x0066 [0x23] WAIT_FOR_DIALOG_INTERACTION
 20: 0x0067 [0x53] WAIT_SCHEDULER_TASK: Wait for scheduler "thk1" with entities [EventEntity, EventEntity]
 21: 0x0074 [0x5B] LOAD_EXT_SCHEDULER: Load scheduler "tlk0" with entities [EventEntity, EventEntity], work=60*
 22: 0x0083 [0x1D] PRINT_EVENT_MESSAGE(message_id=6750*)
    → "Tha's why ah need yer help, [laddie/lass]. Would ye mind fetchin me some feed fer ma sheep?"
 23: 0x0086 [0x23] WAIT_FOR_DIALOG_INTERACTION
 24: 0x0087 [0x5E] EventEntity goes idle (kills current action) (animation: "idl0")
 25: 0x008C [0x24] CREATE_DIALOG(message_id=6751*, default_option=0*, option_flags=0*)
    → "Well? [Of course./Sorry, but I can't.]"
 26: 0x0093 [0x25] WAIT_DIALOG_SELECT()
 27: 0x0094 [0x02] IF !(Work_Zone[0] == 0*) GOTO 0x00E1
 28: 0x009C [0x5B] LOAD_EXT_SCHEDULER: Load scheduler "tlk0" with entities [EventEntity, EventEntity], work=60*
 29: 0x00AB [0x1D] PRINT_EVENT_MESSAGE(message_id=6752*)
    → "Ye will? Tha's a [braw lad/good lass]! Ah'm needin many different sorts of them, an some mair than ithers. Listen cannily!"
 30: 0x00AE [0x23] WAIT_FOR_DIALOG_INTERACTION
 31: 0x00AF [0x1D] PRINT_EVENT_MESSAGE(message_id=6753*)
    → "Ah need five $0."
 32: 0x00B2 [0x23] WAIT_FOR_DIALOG_INTERACTION
 33: 0x00B3 [0x53] WAIT_SCHEDULER_TASK: Wait for scheduler "tlk0" with entities [EventEntity, EventEntity]
 34: 0x00C0 [0x5B] LOAD_EXT_SCHEDULER: Load scheduler "tlb0" with entities [EventEntity, EventEntity], work=60*
 35: 0x00CF [0x1D] PRINT_EVENT_MESSAGE(message_id=6754*)
    → "Alsae, ah could uise three $1."
 36: 0x00D2 [0x23] WAIT_FOR_DIALOG_INTERACTION
 37: 0x00D3 [0x1D] PRINT_EVENT_MESSAGE(message_id=6755*)
    → "Lastly, ah could uise jist one $2. Mind an caw cannie!"
 38: 0x00D6 [0x23] WAIT_FOR_DIALOG_INTERACTION
 39: 0x00D7 [0x03] Work_Zone[1] = 10*
 40: 0x00DC [0x21] END_EVENT
 41: 0x00DD [0x00] END_REQSTACK()

SUBROUTINE_0101:
 42: 0x0101 [0x00] END_REQSTACK()
```

#### Data or dead code:

```
# Dead code (unreachable instructions):
     0x00DE [0x01] GOTO 0x0101
     0x00FE [0x01] GOTO 0x0101
```

### Event 62

#### Metadata

| Field        | Value    |
|--------------|----------|
| Entrypoint   | 0x0102   |
| Data Size    | 85 bytes |
| Instructions | 16       |

```
      00 01 02 03 04 05 06 07  08 09 0A 0B 0C 0D 0E 0F
      -- -- -- -- -- -- -- --  -- -- -- -- -- -- -- --
0100:       42 20 01 1E F0 FF  FF 7F 6F 70 5B 00 80 F8    B ......op[...
0110: FF FF 7F F8 FF FF 7F 74  6C 6B 30 1D 11 80 23 53  .......tlk0...#S
0120: F8 FF FF 7F F8 FF FF 7F  74 6C 6B 30 5B 00 80 F8  ........tlk0[...
0130: FF FF 7F F8 FF FF 7F 74  6C 62 30 1D 12 80 23 03  .......tlb0...#.
0140: 01 10 13 80 45 14 80 F0  FF FF 7F F0 FF FF 7F 71  ....E..........q
0150: 73 74 63 09 80 21 00                              stc..!.         
```

#### Opcodes

```
  0: 0x0102 [0x42] SET_CLI_EVENT_CANCEL_DATA()
  1: 0x0103 [0x20] SET_CLI_EVENT_UC_FLAG: Lock player control
  2: 0x0105 [0x1E] EventEntity looks at LocalPlayer and starts talking
  3: 0x010A [0x6F] WAIT_FRAME_DELAY: Yield until WaitTime reaches zero
  4: 0x010B [0x70] WAIT_ENTITY_RENDER_FLAG: Wait while EventEntity->Render.Flags3 bit 2 is set (cancel turn if not)
  5: 0x010C [0x5B] LOAD_EXT_SCHEDULER: Load scheduler "tlk0" with entities [EventEntity, EventEntity], work=60*
  6: 0x011B [0x1D] PRINT_EVENT_MESSAGE(message_id=6756*)
    → "Braw wirk, [lad/lassie]. Ye've brought me these $1, have ye? Here, take this wi ma thanks!"
  7: 0x011E [0x23] WAIT_FOR_DIALOG_INTERACTION
  8: 0x011F [0x53] WAIT_SCHEDULER_TASK: Wait for scheduler "tlk0" with entities [EventEntity, EventEntity]
  9: 0x012C [0x5B] LOAD_EXT_SCHEDULER: Load scheduler "tlb0" with entities [EventEntity, EventEntity], work=60*
 10: 0x013B [0x1D] PRINT_EVENT_MESSAGE(message_id=6757*)
    → "Ma sheep are aye in need of quality feed. Anytime ye find some, bring it ower, an ah'll take it right awa."
 11: 0x013E [0x23] WAIT_FOR_DIALOG_INTERACTION
 12: 0x013F [0x03] Work_Zone[1] = 11*
 13: 0x0144 [0x45] LOAD_SCHEDULED_TASK: Load scheduler "qstc" with entities [LocalPlayer, LocalPlayer], work=[201*, 0*]
 14: 0x0155 [0x21] END_EVENT
 15: 0x0156 [0x00] END_REQSTACK()
```

### Event 63

#### Metadata

| Field        | Value    |
|--------------|----------|
| Entrypoint   | 0x0157   |
| Data Size    | 85 bytes |
| Instructions | 16       |

```
      00 01 02 03 04 05 06 07  08 09 0A 0B 0C 0D 0E 0F
      -- -- -- -- -- -- -- --  -- -- -- -- -- -- -- --
0150:                      42  20 01 1E F0 FF FF 7F 6F         B ......o
0160: 70 5B 00 80 F8 FF FF 7F  F8 FF FF 7F 74 6C 6B 30  p[..........tlk0
0170: 1D 11 80 23 53 F8 FF FF  7F F8 FF FF 7F 74 6C 6B  ...#S........tlk
0180: 30 5B 00 80 F8 FF FF 7F  F8 FF FF 7F 74 6C 62 30  0[..........tlb0
0190: 1D 12 80 23 03 01 10 15  80 45 14 80 F0 FF FF 7F  ...#.....E......
01A0: F0 FF FF 7F 71 73 74 63  09 80 21 00              ....qstc..!.    
```

#### Opcodes

```
  0: 0x0157 [0x42] SET_CLI_EVENT_CANCEL_DATA()
  1: 0x0158 [0x20] SET_CLI_EVENT_UC_FLAG: Lock player control
  2: 0x015A [0x1E] EventEntity looks at LocalPlayer and starts talking
  3: 0x015F [0x6F] WAIT_FRAME_DELAY: Yield until WaitTime reaches zero
  4: 0x0160 [0x70] WAIT_ENTITY_RENDER_FLAG: Wait while EventEntity->Render.Flags3 bit 2 is set (cancel turn if not)
  5: 0x0161 [0x5B] LOAD_EXT_SCHEDULER: Load scheduler "tlk0" with entities [EventEntity, EventEntity], work=60*
  6: 0x0170 [0x1D] PRINT_EVENT_MESSAGE(message_id=6756*)
    → "Braw wirk, [lad/lassie]. Ye've brought me these $1, have ye? Here, take this wi ma thanks!"
  7: 0x0173 [0x23] WAIT_FOR_DIALOG_INTERACTION
  8: 0x0174 [0x53] WAIT_SCHEDULER_TASK: Wait for scheduler "tlk0" with entities [EventEntity, EventEntity]
  9: 0x0181 [0x5B] LOAD_EXT_SCHEDULER: Load scheduler "tlb0" with entities [EventEntity, EventEntity], work=60*
 10: 0x0190 [0x1D] PRINT_EVENT_MESSAGE(message_id=6757*)
    → "Ma sheep are aye in need of quality feed. Anytime ye find some, bring it ower, an ah'll take it right awa."
 11: 0x0193 [0x23] WAIT_FOR_DIALOG_INTERACTION
 12: 0x0194 [0x03] Work_Zone[1] = 12*
 13: 0x0199 [0x45] LOAD_SCHEDULED_TASK: Load scheduler "qstc" with entities [LocalPlayer, LocalPlayer], work=[201*, 0*]
 14: 0x01AA [0x21] END_EVENT
 15: 0x01AB [0x00] END_REQSTACK()
```

### Event 64

#### Metadata

| Field        | Value    |
|--------------|----------|
| Entrypoint   | 0x01AC   |
| Data Size    | 85 bytes |
| Instructions | 16       |

```
      00 01 02 03 04 05 06 07  08 09 0A 0B 0C 0D 0E 0F
      -- -- -- -- -- -- -- --  -- -- -- -- -- -- -- --
01A0:                                      42 20 01 1E              B ..
01B0: F0 FF FF 7F 6F 70 5B 00  80 F8 FF FF 7F F8 FF FF  ....op[.........
01C0: 7F 74 6C 6B 30 1D 11 80  23 53 F8 FF FF 7F F8 FF  .tlk0...#S......
01D0: FF 7F 74 6C 6B 30 5B 00  80 F8 FF FF 7F F8 FF FF  ..tlk0[.........
01E0: 7F 74 6C 62 30 1D 12 80  23 03 01 10 16 80 45 14  .tlb0...#.....E.
01F0: 80 F0 FF FF 7F F0 FF FF  7F 71 73 74 63 09 80 21  .........qstc..!
0200: 00                                                .               
```

#### Opcodes

```
  0: 0x01AC [0x42] SET_CLI_EVENT_CANCEL_DATA()
  1: 0x01AD [0x20] SET_CLI_EVENT_UC_FLAG: Lock player control
  2: 0x01AF [0x1E] EventEntity looks at LocalPlayer and starts talking
  3: 0x01B4 [0x6F] WAIT_FRAME_DELAY: Yield until WaitTime reaches zero
  4: 0x01B5 [0x70] WAIT_ENTITY_RENDER_FLAG: Wait while EventEntity->Render.Flags3 bit 2 is set (cancel turn if not)
  5: 0x01B6 [0x5B] LOAD_EXT_SCHEDULER: Load scheduler "tlk0" with entities [EventEntity, EventEntity], work=60*
  6: 0x01C5 [0x1D] PRINT_EVENT_MESSAGE(message_id=6756*)
    → "Braw wirk, [lad/lassie]. Ye've brought me these $1, have ye? Here, take this wi ma thanks!"
  7: 0x01C8 [0x23] WAIT_FOR_DIALOG_INTERACTION
  8: 0x01C9 [0x53] WAIT_SCHEDULER_TASK: Wait for scheduler "tlk0" with entities [EventEntity, EventEntity]
  9: 0x01D6 [0x5B] LOAD_EXT_SCHEDULER: Load scheduler "tlb0" with entities [EventEntity, EventEntity], work=60*
 10: 0x01E5 [0x1D] PRINT_EVENT_MESSAGE(message_id=6757*)
    → "Ma sheep are aye in need of quality feed. Anytime ye find some, bring it ower, an ah'll take it right awa."
 11: 0x01E8 [0x23] WAIT_FOR_DIALOG_INTERACTION
 12: 0x01E9 [0x03] Work_Zone[1] = 13*
 13: 0x01EE [0x45] LOAD_SCHEDULED_TASK: Load scheduler "qstc" with entities [LocalPlayer, LocalPlayer], work=[201*, 0*]
 14: 0x01FF [0x21] END_EVENT
 15: 0x0200 [0x00] END_REQSTACK()
```

### Event 61

#### Metadata

| Field        | Value    |
|--------------|----------|
| Entrypoint   | 0x0201   |
| Data Size    | 68 bytes |
| Instructions | 16       |

```
      00 01 02 03 04 05 06 07  08 09 0A 0B 0C 0D 0E 0F
      -- -- -- -- -- -- -- --  -- -- -- -- -- -- -- --
0200:    1E F0 FF FF 7F 6F 70  5B 00 80 F8 FF FF 7F F8   .....op[.......
0210: FF FF 7F 74 6C 6B 30 1D  17 80 23 1D 0B 80 23 53  ...tlk0...#...#S
0220: F8 FF FF 7F F8 FF FF 7F  74 6C 6B 30 5B 00 80 F8  ........tlk0[...
0230: FF FF 7F F8 FF FF 7F 74  6C 62 30 1D 0C 80 23 1D  .......tlb0...#.
0240: 0D 80 23 21 00                                    ..#!.           
```

#### Opcodes

```
  0: 0x0201 [0x1E] EventEntity looks at LocalPlayer and starts talking
  1: 0x0206 [0x6F] WAIT_FRAME_DELAY: Yield until WaitTime reaches zero
  2: 0x0207 [0x70] WAIT_ENTITY_RENDER_FLAG: Wait while EventEntity->Render.Flags3 bit 2 is set (cancel turn if not)
  3: 0x0208 [0x5B] LOAD_EXT_SCHEDULER: Load scheduler "tlk0" with entities [EventEntity, EventEntity], work=60*
  4: 0x0217 [0x1D] PRINT_EVENT_MESSAGE(message_id=6758*)
    → "Och, ye forgot whit sortay feed ah'm needin, did ye? Well, here it is agane, sae listen cannily!"
  5: 0x021A [0x23] WAIT_FOR_DIALOG_INTERACTION
  6: 0x021B [0x1D] PRINT_EVENT_MESSAGE(message_id=6753*)
    → "Ah need five $0."
  7: 0x021E [0x23] WAIT_FOR_DIALOG_INTERACTION
  8: 0x021F [0x53] WAIT_SCHEDULER_TASK: Wait for scheduler "tlk0" with entities [EventEntity, EventEntity]
  9: 0x022C [0x5B] LOAD_EXT_SCHEDULER: Load scheduler "tlb0" with entities [EventEntity, EventEntity], work=60*
 10: 0x023B [0x1D] PRINT_EVENT_MESSAGE(message_id=6754*)
    → "Alsae, ah could uise three $1."
 11: 0x023E [0x23] WAIT_FOR_DIALOG_INTERACTION
 12: 0x023F [0x1D] PRINT_EVENT_MESSAGE(message_id=6755*)
    → "Lastly, ah could uise jist one $2. Mind an caw cannie!"
 13: 0x0242 [0x23] WAIT_FOR_DIALOG_INTERACTION
 14: 0x0243 [0x21] END_EVENT
 15: 0x0244 [0x00] END_REQSTACK()
```
