# 17793135

## Common Data

| Field            | Value             |
|------------------|-------------------|
| Zone             | Selbina (ID: 248) |
| Block Size       | 1248 bytes        |
| Total Events     | 2                 |
| References Count | 57                |

## List of Events

| Event ID              | Entrypoint   |   Size |   Instructions |
|-----------------------|--------------|--------|----------------|
| [65535](#event-65535) | 0x0000       |      1 |              1 |
| [10009](#event-10009) | 0x0001       |    993 |            224 |

## DAT References (imed_data)

|   Index | Hex Value   |   Dec Value |
|---------|-------------|-------------|
|       0 | 0x0001      |           1 |
|       1 | 0x008A      |         138 |
|       2 | 0x0000      |           0 |
|       3 | 0x0003      |           3 |
|       4 | 0x0002      |           2 |
|       5 | 0x1E0D      |        7693 |
|       6 | 0x1E0F      |        7695 |
|       7 | 0x0086      |         134 |
|       8 | 0x0087      |         135 |
|       9 | 0x1E0E      |        7694 |
|      10 | 0x0083      |         131 |
|      11 | 0x0084      |         132 |
|      12 | 0x0085      |         133 |
|      13 | 0x1E1A      |        7706 |
|      14 | 0x0080      |         128 |
|      15 | 0x0081      |         129 |
|      16 | 0x0082      |         130 |
|      17 | 0x0004      |           4 |
|      18 | 0x0005      |           5 |
|      19 | 0x0088      |         136 |
|      20 | 0x0006      |           6 |
|      21 | 0x0089      |         137 |
|      22 | 0x0007      |           7 |
|      23 | 0x1E1E      |        7710 |
|      24 | 0x008B      |         139 |
|      25 | 0x008C      |         140 |
|      26 | 0x008D      |         141 |
|      27 | 0x1E10      |        7696 |
|      28 | 0x1DB7      |        7607 |
|      29 | 0x0010      |          16 |
|      30 | 0x001F      |          31 |
|      31 | 0x19DD      |        6621 |
|      32 | 0x1180      |        4480 |
|      33 | 0x117F      |        4479 |
|      34 | 0x1177      |        4471 |
|      35 | 0x117E      |        4478 |
|      36 | 0x10D0      |        4304 |
|      37 | 0x117A      |        4474 |
|      38 | 0x117B      |        4475 |
|      39 | 0x117C      |        4476 |
|      40 | 0x1400      |        5120 |
|      41 | 0x10D1      |        4305 |
|      42 | 0x1407      |        5127 |
|      43 | 0x1175      |        4469 |
|      44 | 0x10D2      |        4306 |
|      45 | 0x116E      |        4462 |
|      46 | 0x10D3      |        4307 |
|      47 | 0x117D      |        4477 |
|      48 | 0x1166      |        4454 |
|      49 | 0x116F      |        4463 |
|      50 | 0x10DC      |        4316 |
|      51 | 0x10D4      |        4308 |
|      52 | 0x10DF      |        4319 |
|      53 | 0x10D5      |        4309 |
|      54 | 0x1409      |        5129 |
|      55 | 0x1E17      |        7703 |
|      56 | 0x1E18      |        7704 |

## String References

- **6621**: Select one [$0i$0j./$1i$1j./$2$3041793/$3i$3j./$4i$4j./$5i$5j./$6i$6j./$7i$7j./Next.]
- **7607**: We are currently [contesting the rules for the next ranking/preparing to accept entries/accepting entries/preparing to release results/presenting ranking results to the public/on hiatus/closed].
- **7693**: Fish Ranking Menu: Currently [contesting the rules for the next ranking/preparing to accept entries/accepting entries/preparing to release results/presenting ranking results to the public/not accepting entries/closed]. [Check rules./Change control mode: Currently [automatic/semi-automatic/manual]./Debug level: Currently level $5./Change step: Currently [contesting the rules for the next ranking/preparing to accept entries/accepting entries/preparing to release results/presenting ranking results to the public/not accepting entries/closed]./Set rules for next ranking./Display time remaining until next step./Move to next step./Time setting: Current speed: [Standard/Debug 1/Debug 2]./Close menu.]
- **7694**: Choose control mode. (Currently [automatic/semi-automatic/manual]) [[$26/ / ]AutomaticiDefaultj/[ /$26/ ]Semi-automatic (Stop at "contesting," then automatic)/[ / /$26]Manual (Stop advancement)]
- **7695**: Displayed rules go into effect... [This time./Next time.]
- **7696**: Select one... [Contesting rules./Preparing to accept entries./Accepting entries./Preparing to release results./Announcing ranking results./Not accepting entries (set rules here)./Closed (stopped completely).]
- **7703**: Choose the first rule. [Largest fish wins./Smallest fish wins.]
- **7704**: Choose the second rule. [Size./Weight./Size and weight.]
- **7706**: Set debug level. [[$26/ / ]Level 0 (None)/[ /$26/ ]Level 1 (Displays)/[ / /$26]Level 2 (Bypass board default errors)]
- **7710**: Time settings... (Effective beginning next step) [[$26/ / ]StandardiAF2$T$T/DF15$P15*j/[ /$26/ ]Step confirmation speediAF30 seconds/DF30 secondsj/[ / /$26]QA Debug speediAF30 minutes/DF15 minutesj]

## Events

### Event 65535

#### Metadata

| Field        | Value   |
|--------------|---------|
| Entrypoint   | 0x0000  |
| Data Size    | 1 bytes |
| Instructions | 1       |

```
      00 01 02 03 04 05 06 07  08 09 0A 0B 0C 0D 0E 0F
      -- -- -- -- -- -- -- --  -- -- -- -- -- -- -- --
0000: 00                                                .               
```

#### Opcodes

```
  0: 0x0000 [0x00] END_REQSTACK()
```

### Event 10009

#### Metadata

| Field        | Value     |
|--------------|-----------|
| Entrypoint   | 0x0001    |
| Data Size    | 993 bytes |
| Instructions | 224       |

```
      00 01 02 03 04 05 06 07  08 09 0A 0B 0C 0D 0E 0F
      -- -- -- -- -- -- -- --  -- -- -- -- -- -- -- --
0000:    02 00 80 00 80 00 9B  01 03 01 10 01 80 43 00   .............C.
0010: 43 01 02 06 10 02 80 80  24 00 3C 00 00 03 80 00  C.......$.<.....
0020: 80 01 44 00 02 06 10 00  80 80 36 00 3C 00 00 03  ..D.......6.<...
0030: 80 00 80 01 44 00 02 06  10 04 80 80 44 00 06 00  ....D.......D...
0040: 00 01 44 00 24 05 80 02  80 00 00 25 02 00 10 02  ..D.$......%....
0050: 80 00 78 00 24 06 80 02  80 02 80 25 02 00 10 02  ..x.$......%....
0060: 80 00 6C 00 03 01 10 07  80 01 71 00 03 01 10 08  ..l.......q.....
0070: 80 43 00 43 01 01 98 01  02 00 10 00 80 00 C7 00  .C.C............
0080: 24 09 80 02 80 02 80 25  02 00 10 02 80 00 9C 00  $......%........
0090: 03 01 10 0A 80 43 00 43  01 01 C4 00 02 00 10 00  .....C.C........
00A0: 80 00 B0 00 03 01 10 0B  80 43 00 43 01 01 C4 00  .........C.C....
00B0: 02 00 10 04 80 00 C4 00  03 01 10 0C 80 43 00 43  .............C.C
00C0: 01 01 C4 00 01 98 01 02  00 10 04 80 00 03 01 24  ...............$
00D0: 0D 80 02 80 02 80 25 02  00 10 02 80 00 E7 00 03  ......%.........
00E0: 01 10 0E 80 01 FC 00 02  00 10 00 80 00 F7 00 03  ................
00F0: 01 10 0F 80 01 FC 00 03  01 10 10 80 43 00 43 01  ............C.C.
0100: 01 98 01 02 00 10 03 80  00 11 01 1A 9B 01 01 98  ................
0110: 01 02 00 10 11 80 00 1F  01 1A 1F 02 01 98 01 02  ................
0120: 00 10 12 80 00 33 01 03  01 10 13 80 43 00 43 01  .....3......C.C.
0130: 01 98 01 02 00 10 14 80  00 47 01 03 01 10 15 80  .........G......
0140: 43 00 43 01 01 98 01 02  00 10 16 80 00 96 01 24  C.C............$
0150: 17 80 02 80 02 80 25 02  00 10 02 80 00 6B 01 03  ......%......k..
0160: 01 10 18 80 43 00 43 01  01 93 01 02 00 10 00 80  ....C.C.........
0170: 00 7F 01 03 01 10 19 80  43 00 43 01 01 93 01 02  ........C.C.....
0180: 00 10 04 80 00 93 01 03  01 10 1A 80 43 00 43 01  ............C.C.
0190: 01 93 01 01 98 01 21 00  01 01 00 24 1B 80 02 80  ......!....$....
01A0: 00 80 25 02 00 10 02 80  00 B3 01 03 02 10 02 80  ..%.............
01B0: 01 08 02 02 00 10 00 80  00 C3 01 03 02 10 00 80  ................
01C0: 01 08 02 02 00 10 04 80  00 D3 01 03 02 10 04 80  ................
01D0: 01 08 02 02 00 10 03 80  00 E3 01 03 02 10 03 80  ................
01E0: 01 08 02 02 00 10 11 80  00 F3 01 03 02 10 11 80  ................
01F0: 01 08 02 02 00 10 12 80  00 03 02 03 02 10 12 80  ................
0200: 01 08 02 03 02 10 14 80  48 1C 80 23 40 1D 80 1E  ........H..#@...
0210: 80 02 10 00 80 03 01 10  02 10 43 00 43 01 1B 1A  ..........C.C...
0220: 50 02 40 1D 80 1E 80 01  10 04 80 43 00 43 01 1A  P.@........C.C..
0230: 84 03 40 1D 80 1E 80 01  10 03 80 43 00 43 01 1A  ..@........C.C..
0240: AB 03 40 1D 80 1E 80 01  10 11 80 43 00 43 01 1B  ..@........C.C..
0250: 1A 09 03 1A 7D 02 02 01  10 02 80 01 5F 02 1B 1A  ....}......._...
0260: 32 03 1A 7D 02 02 01 10  02 80 01 6E 02 1B 1A 5B  2..}.......n...[
0270: 03 1A 7D 02 02 01 10 02  80 01 7D 02 1B 06 01 10  ..}.......}.....
0280: 24 1F 80 02 80 02 80 25  02 00 10 02 80 00 98 02  $......%........
0290: 03 01 10 02 10 01 08 03  02 00 10 00 80 00 A8 02  ................
02A0: 03 01 10 03 10 01 08 03  02 00 10 04 80 00 B8 02  ................
02B0: 03 01 10 04 10 01 08 03  02 00 10 03 80 00 C8 02  ................
02C0: 03 01 10 05 10 01 08 03  02 00 10 11 80 00 D8 02  ................
02D0: 03 01 10 06 10 01 08 03  02 00 10 12 80 00 E8 02  ................
02E0: 03 01 10 07 10 01 08 03  02 00 10 14 80 00 F8 02  ................
02F0: 03 01 10 08 10 01 08 03  02 00 10 16 80 00 08 03  ................
0300: 03 01 10 09 10 01 08 03  1B 03 02 10 20 80 03 03  ............ ...
0310: 10 21 80 03 04 10 22 80  03 05 10 23 80 03 06 10  .!...."....#....
0320: 24 80 03 07 10 25 80 03  08 10 26 80 03 09 10 27  $....%....&....'
0330: 80 1B 03 02 10 28 80 03  03 10 29 80 03 04 10 2A  .....(....)....*
0340: 80 03 05 10 2B 80 03 06  10 2C 80 03 07 10 2D 80  ....+....,....-.
0350: 03 08 10 2E 80 03 09 10  2F 80 1B 03 02 10 30 80  ......../.....0.
0360: 03 03 10 31 80 03 04 10  32 80 03 05 10 33 80 03  ...1....2....3..
0370: 06 10 34 80 03 07 10 35  80 03 08 10 36 80 03 09  ..4....5....6...
0380: 10 02 80 1B 24 37 80 02  80 02 80 25 02 00 10 02  ....$7.....%....
0390: 80 00 9A 03 06 01 10 01  AA 03 02 00 10 00 80 00  ................
03A0: AA 03 03 01 10 00 80 01  AA 03 1B 24 38 80 02 80  ...........$8...
03B0: 02 80 25 02 00 10 02 80  00 C1 03 06 01 10 01 E1  ..%.............
03C0: 03 02 00 10 00 80 00 D1  03 03 01 10 00 80 01 E1  ................
03D0: 03 02 00 10 04 80 00 E1  03 03 01 10 04 80 01 E1  ................
03E0: 03 1B                                             ..              
```

#### Opcodes

```
  0: 0x0001 [0x02] IF !(1* == 1*) GOTO 0x019B
  1: 0x0009 [0x03] Work_Zone[1] = 138*
  2: 0x000E [0x43] SEND_EVENT_UPDATE: Send pending tag to server (packet 0x005B)
  3: 0x0010 [0x43] SEND_EVENT_UPDATE: Check pending flag (skip if not pending)
  4: 0x0012 [0x02] IF !(Work_Zone[6] == 0*) GOTO 0x0024
  5: 0x001A [0x3C] SET_BIT_FLAG_CONDITIONAL(target_work_offset=ExtData[1]->WorkLocal[0], bit_index_work_offset=3*, condition_work_offset=1*)
  6: 0x0021 [0x01] GOTO 0x0044
  7: 0x0024 [0x02] IF !(Work_Zone[6] == 1*) GOTO 0x0036
  8: 0x002C [0x3C] SET_BIT_FLAG_CONDITIONAL(target_work_offset=ExtData[1]->WorkLocal[0], bit_index_work_offset=3*, condition_work_offset=1*)
  9: 0x0033 [0x01] GOTO 0x0044
 10: 0x0036 [0x02] IF !(Work_Zone[6] == 2*) GOTO 0x0044
 11: 0x003E [0x06] ExtData[1]->WorkLocal[0] = 0
 12: 0x0041 [0x01] GOTO 0x0044

SUBROUTINE_0044:
 13: 0x0044 [0x24] CREATE_DIALOG(message_id=7693*, default_option=0*, option_flags=ExtData[1]->WorkLocal[0])
    → "Fish Ranking Menu: Currently [contesting the rules for the next ranking/preparing to accept entries/accepting entries/preparing to release results/presenting ranking results to the public/not accepting entries/closed]. [Check rules./Change control mode: Currently [automatic/semi-automatic/manual]./Debug level: Currently level $5./Change step: Currently [contesting the rules for the next ranking/preparing to accept entries/accepting entries/preparing to release results/presenting ranking results to the public/not accepting entries/closed]./Set rules for next ranking./Display time remaining until next step./Move to next step./Time setting: Current speed: [Standard/Debug 1/Debug 2]./Close menu.]"
 14: 0x004B [0x25] WAIT_DIALOG_SELECT()
 15: 0x004C [0x02] IF !(Work_Zone[0] == 0*) GOTO 0x0078
 16: 0x0054 [0x24] CREATE_DIALOG(message_id=7695*, default_option=0*, option_flags=0*)
    → "Displayed rules go into effect... [This time./Next time.]"
 17: 0x005B [0x25] WAIT_DIALOG_SELECT()
 18: 0x005C [0x02] IF !(Work_Zone[0] == 0*) GOTO 0x006C
 19: 0x0064 [0x03] Work_Zone[1] = 134*
 20: 0x0069 [0x01] GOTO 0x0071
 21: 0x006C [0x03] Work_Zone[1] = 135*

SUBROUTINE_0071:
 22: 0x0071 [0x43] SEND_EVENT_UPDATE: Send pending tag to server (packet 0x005B)
 23: 0x0073 [0x43] SEND_EVENT_UPDATE: Check pending flag (skip if not pending)
 24: 0x0075 [0x01] GOTO 0x0198
 25: 0x0078 [0x02] IF !(Work_Zone[0] == 1*) GOTO 0x00C7
 26: 0x0080 [0x24] CREATE_DIALOG(message_id=7694*, default_option=0*, option_flags=0*)
    → "Choose control mode. (Currently [automatic/semi-automatic/manual]) [[$26/ / ]AutomaticiDefaultj/[ /$26/ ]Semi-automatic (Stop at "contesting," then automatic)/[ / /$26]Manual (Stop advancement)]"
 27: 0x0087 [0x25] WAIT_DIALOG_SELECT()
 28: 0x0088 [0x02] IF !(Work_Zone[0] == 0*) GOTO 0x009C
 29: 0x0090 [0x03] Work_Zone[1] = 131*
 30: 0x0095 [0x43] SEND_EVENT_UPDATE: Send pending tag to server (packet 0x005B)
 31: 0x0097 [0x43] SEND_EVENT_UPDATE: Check pending flag (skip if not pending)
 32: 0x0099 [0x01] GOTO 0x00C4
 33: 0x009C [0x02] IF !(Work_Zone[0] == 1*) GOTO 0x00B0
 34: 0x00A4 [0x03] Work_Zone[1] = 132*
 35: 0x00A9 [0x43] SEND_EVENT_UPDATE: Send pending tag to server (packet 0x005B)
 36: 0x00AB [0x43] SEND_EVENT_UPDATE: Check pending flag (skip if not pending)
 37: 0x00AD [0x01] GOTO 0x00C4
 38: 0x00B0 [0x02] IF !(Work_Zone[0] == 2*) GOTO 0x00C4
 39: 0x00B8 [0x03] Work_Zone[1] = 133*
 40: 0x00BD [0x43] SEND_EVENT_UPDATE: Send pending tag to server (packet 0x005B)
 41: 0x00BF [0x43] SEND_EVENT_UPDATE: Check pending flag (skip if not pending)
 42: 0x00C1 [0x01] GOTO 0x00C4

SUBROUTINE_00C4:
 43: 0x00C4 [0x01] GOTO 0x0198
 44: 0x00C7 [0x02] IF !(Work_Zone[0] == 2*) GOTO 0x0103
 45: 0x00CF [0x24] CREATE_DIALOG(message_id=7706*, default_option=0*, option_flags=0*)
    → "Set debug level. [[$26/ / ]Level 0 (None)/[ /$26/ ]Level 1 (Displays)/[ / /$26]Level 2 (Bypass board default errors)]"
 46: 0x00D6 [0x25] WAIT_DIALOG_SELECT()
 47: 0x00D7 [0x02] IF !(Work_Zone[0] == 0*) GOTO 0x00E7
 48: 0x00DF [0x03] Work_Zone[1] = 128*
 49: 0x00E4 [0x01] GOTO 0x00FC
 50: 0x00E7 [0x02] IF !(Work_Zone[0] == 1*) GOTO 0x00F7
 51: 0x00EF [0x03] Work_Zone[1] = 129*
 52: 0x00F4 [0x01] GOTO 0x00FC
 53: 0x00F7 [0x03] Work_Zone[1] = 130*

SUBROUTINE_00FC:
 54: 0x00FC [0x43] SEND_EVENT_UPDATE: Send pending tag to server (packet 0x005B)
 55: 0x00FE [0x43] SEND_EVENT_UPDATE: Check pending flag (skip if not pending)
 56: 0x0100 [0x01] GOTO 0x0198
 57: 0x0103 [0x02] IF !(Work_Zone[0] == 3*) GOTO 0x0111
 58: 0x010B [0x1A] CALL_SUBROUTINE(address=0x019B)
 59: 0x010E [0x01] GOTO 0x0198
 60: 0x0111 [0x02] IF !(Work_Zone[0] == 4*) GOTO 0x011F
 61: 0x0119 [0x1A] CALL_SUBROUTINE(address=0x021F)
 62: 0x011C [0x01] GOTO 0x0198
 63: 0x011F [0x02] IF !(Work_Zone[0] == 5*) GOTO 0x0133
 64: 0x0127 [0x03] Work_Zone[1] = 136*
 65: 0x012C [0x43] SEND_EVENT_UPDATE: Send pending tag to server (packet 0x005B)
 66: 0x012E [0x43] SEND_EVENT_UPDATE: Check pending flag (skip if not pending)
 67: 0x0130 [0x01] GOTO 0x0198
 68: 0x0133 [0x02] IF !(Work_Zone[0] == 6*) GOTO 0x0147
 69: 0x013B [0x03] Work_Zone[1] = 137*
 70: 0x0140 [0x43] SEND_EVENT_UPDATE: Send pending tag to server (packet 0x005B)
 71: 0x0142 [0x43] SEND_EVENT_UPDATE: Check pending flag (skip if not pending)
 72: 0x0144 [0x01] GOTO 0x0198
 73: 0x0147 [0x02] IF !(Work_Zone[0] == 7*) GOTO 0x0196
 74: 0x014F [0x24] CREATE_DIALOG(message_id=7710*, default_option=0*, option_flags=0*)
    → "Time settings... (Effective beginning next step) [[$26/ / ]StandardiAF2$T$T/DF15$P15*j/[ /$26/ ]Step confirmation speediAF30 seconds/DF30 secondsj/[ / /$26]QA Debug speediAF30 minutes/DF15 minutesj]"
 75: 0x0156 [0x25] WAIT_DIALOG_SELECT()
 76: 0x0157 [0x02] IF !(Work_Zone[0] == 0*) GOTO 0x016B
 77: 0x015F [0x03] Work_Zone[1] = 139*
 78: 0x0164 [0x43] SEND_EVENT_UPDATE: Send pending tag to server (packet 0x005B)
 79: 0x0166 [0x43] SEND_EVENT_UPDATE: Check pending flag (skip if not pending)
 80: 0x0168 [0x01] GOTO 0x0193
 81: 0x016B [0x02] IF !(Work_Zone[0] == 1*) GOTO 0x017F
 82: 0x0173 [0x03] Work_Zone[1] = 140*
 83: 0x0178 [0x43] SEND_EVENT_UPDATE: Send pending tag to server (packet 0x005B)
 84: 0x017A [0x43] SEND_EVENT_UPDATE: Check pending flag (skip if not pending)
 85: 0x017C [0x01] GOTO 0x0193
 86: 0x017F [0x02] IF !(Work_Zone[0] == 2*) GOTO 0x0193
 87: 0x0187 [0x03] Work_Zone[1] = 141*
 88: 0x018C [0x43] SEND_EVENT_UPDATE: Send pending tag to server (packet 0x005B)
 89: 0x018E [0x43] SEND_EVENT_UPDATE: Check pending flag (skip if not pending)
 90: 0x0190 [0x01] GOTO 0x0193

SUBROUTINE_0193:
 91: 0x0193 [0x01] GOTO 0x0198
 92: 0x0196 [0x21] END_EVENT
 93: 0x0197 [0x00] END_REQSTACK()

SUBROUTINE_0198:
 94: 0x0198 [0x01] GOTO 0x0001

SUBROUTINE_019B:
 95: 0x019B [0x24] CREATE_DIALOG(message_id=7696*, default_option=0*, option_flags=1*)
    → "Select one... [Contesting rules./Preparing to accept entries./Accepting entries./Preparing to release results./Announcing ranking results./Not accepting entries (set rules here)./Closed (stopped completely).]"
 96: 0x01A2 [0x25] WAIT_DIALOG_SELECT()
 97: 0x01A3 [0x02] IF !(Work_Zone[0] == 0*) GOTO 0x01B3
 98: 0x01AB [0x03] Work_Zone[2] = 0*
 99: 0x01B0 [0x01] GOTO 0x0208
100: 0x01B3 [0x02] IF !(Work_Zone[0] == 1*) GOTO 0x01C3
101: 0x01BB [0x03] Work_Zone[2] = 1*
102: 0x01C0 [0x01] GOTO 0x0208
103: 0x01C3 [0x02] IF !(Work_Zone[0] == 2*) GOTO 0x01D3
104: 0x01CB [0x03] Work_Zone[2] = 2*
105: 0x01D0 [0x01] GOTO 0x0208
106: 0x01D3 [0x02] IF !(Work_Zone[0] == 3*) GOTO 0x01E3
107: 0x01DB [0x03] Work_Zone[2] = 3*
108: 0x01E0 [0x01] GOTO 0x0208
109: 0x01E3 [0x02] IF !(Work_Zone[0] == 4*) GOTO 0x01F3
110: 0x01EB [0x03] Work_Zone[2] = 4*
111: 0x01F0 [0x01] GOTO 0x0208
112: 0x01F3 [0x02] IF !(Work_Zone[0] == 5*) GOTO 0x0203
113: 0x01FB [0x03] Work_Zone[2] = 5*
114: 0x0200 [0x01] GOTO 0x0208
115: 0x0203 [0x03] Work_Zone[2] = 6*

SUBROUTINE_0208:
116: 0x0208 [0x48] [System] [7607*]:
    → "We are currently [contesting the rules for the next ranking/preparing to accept entries/accepting entries/preparing to release results/presenting ranking results to the public/on hiatus/closed]."
117: 0x020B [0x23] WAIT_FOR_DIALOG_INTERACTION
118: 0x020C [0x40] SET_BIT_WORK_RANGE(start_bit=16*, end_bit=31*, target=Work_Zone[2], source=1*)
119: 0x0215 [0x03] Work_Zone[1] = Work_Zone[2]
120: 0x021A [0x43] SEND_EVENT_UPDATE: Send pending tag to server (packet 0x005B)
121: 0x021C [0x43] SEND_EVENT_UPDATE: Check pending flag (skip if not pending)
122: 0x021E [0x1B] RETURN

SUBROUTINE_021F:
123: 0x021F [0x1A] CALL_SUBROUTINE(address=0x0250)
124: 0x0222 [0x40] SET_BIT_WORK_RANGE(start_bit=16*, end_bit=31*, target=Work_Zone[1], source=2*)
125: 0x022B [0x43] SEND_EVENT_UPDATE: Send pending tag to server (packet 0x005B)
126: 0x022D [0x43] SEND_EVENT_UPDATE: Check pending flag (skip if not pending)
127: 0x022F [0x1A] CALL_SUBROUTINE(address=0x0384)
128: 0x0232 [0x40] SET_BIT_WORK_RANGE(start_bit=16*, end_bit=31*, target=Work_Zone[1], source=3*)
129: 0x023B [0x43] SEND_EVENT_UPDATE: Send pending tag to server (packet 0x005B)
130: 0x023D [0x43] SEND_EVENT_UPDATE: Check pending flag (skip if not pending)
131: 0x023F [0x1A] CALL_SUBROUTINE(address=0x03AB)
132: 0x0242 [0x40] SET_BIT_WORK_RANGE(start_bit=16*, end_bit=31*, target=Work_Zone[1], source=4*)
133: 0x024B [0x43] SEND_EVENT_UPDATE: Send pending tag to server (packet 0x005B)
134: 0x024D [0x43] SEND_EVENT_UPDATE: Check pending flag (skip if not pending)
135: 0x024F [0x1B] RETURN

SUBROUTINE_0250:
136: 0x0250 [0x1A] CALL_SUBROUTINE(address=0x0309)
137: 0x0253 [0x1A] CALL_SUBROUTINE(address=0x027D)
138: 0x0256 [0x02] IF !(Work_Zone[1] == 0*) GOTO 0x025F
139: 0x025E [0x1B] RETURN
140: 0x025F [0x1A] CALL_SUBROUTINE(address=0x0332)
141: 0x0262 [0x1A] CALL_SUBROUTINE(address=0x027D)
142: 0x0265 [0x02] IF !(Work_Zone[1] == 0*) GOTO 0x026E
143: 0x026D [0x1B] RETURN
144: 0x026E [0x1A] CALL_SUBROUTINE(address=0x035B)
145: 0x0271 [0x1A] CALL_SUBROUTINE(address=0x027D)
146: 0x0274 [0x02] IF !(Work_Zone[1] == 0*) GOTO 0x027D
147: 0x027C [0x1B] RETURN

SUBROUTINE_027D:
148: 0x027D [0x06] Work_Zone[1] = 0
149: 0x0280 [0x24] CREATE_DIALOG(message_id=6621*, default_option=0*, option_flags=0*)
    → "Select one [$0i$0j./$1i$1j./$2$3041793/$3i$3j./$4i$4j./$5i$5j./$6i$6j./$7i$7j./Next.]"
150: 0x0287 [0x25] WAIT_DIALOG_SELECT()
151: 0x0288 [0x02] IF !(Work_Zone[0] == 0*) GOTO 0x0298
152: 0x0290 [0x03] Work_Zone[1] = Work_Zone[2]
153: 0x0295 [0x01] GOTO 0x0308
154: 0x0298 [0x02] IF !(Work_Zone[0] == 1*) GOTO 0x02A8
155: 0x02A0 [0x03] Work_Zone[1] = Work_Zone[3]
156: 0x02A5 [0x01] GOTO 0x0308
157: 0x02A8 [0x02] IF !(Work_Zone[0] == 2*) GOTO 0x02B8
158: 0x02B0 [0x03] Work_Zone[1] = Work_Zone[4]
159: 0x02B5 [0x01] GOTO 0x0308
160: 0x02B8 [0x02] IF !(Work_Zone[0] == 3*) GOTO 0x02C8
161: 0x02C0 [0x03] Work_Zone[1] = Work_Zone[5]
162: 0x02C5 [0x01] GOTO 0x0308
163: 0x02C8 [0x02] IF !(Work_Zone[0] == 4*) GOTO 0x02D8
164: 0x02D0 [0x03] Work_Zone[1] = Work_Zone[6]
165: 0x02D5 [0x01] GOTO 0x0308
166: 0x02D8 [0x02] IF !(Work_Zone[0] == 5*) GOTO 0x02E8
167: 0x02E0 [0x03] Work_Zone[1] = Work_Zone[7]
168: 0x02E5 [0x01] GOTO 0x0308
169: 0x02E8 [0x02] IF !(Work_Zone[0] == 6*) GOTO 0x02F8
170: 0x02F0 [0x03] Work_Zone[1] = Work_Zone[8]
171: 0x02F5 [0x01] GOTO 0x0308
172: 0x02F8 [0x02] IF !(Work_Zone[0] == 7*) GOTO 0x0308
173: 0x0300 [0x03] Work_Zone[1] = Work_Zone[9]
174: 0x0305 [0x01] GOTO 0x0308

SUBROUTINE_0308:
175: 0x0308 [0x1B] RETURN

SUBROUTINE_0309:
176: 0x0309 [0x03] Work_Zone[2] = 4480*
177: 0x030E [0x03] Work_Zone[3] = 4479*
178: 0x0313 [0x03] Work_Zone[4] = 4471*
179: 0x0318 [0x03] Work_Zone[5] = 4478*
180: 0x031D [0x03] Work_Zone[6] = 4304*
181: 0x0322 [0x03] Work_Zone[7] = 4474*
182: 0x0327 [0x03] Work_Zone[8] = 4475*
183: 0x032C [0x03] Work_Zone[9] = 4476*
184: 0x0331 [0x1B] RETURN

SUBROUTINE_0332:
185: 0x0332 [0x03] Work_Zone[2] = 5120*
186: 0x0337 [0x03] Work_Zone[3] = 4305*
187: 0x033C [0x03] Work_Zone[4] = 5127*
188: 0x0341 [0x03] Work_Zone[5] = 4469*
189: 0x0346 [0x03] Work_Zone[6] = 4306*
190: 0x034B [0x03] Work_Zone[7] = 4462*
191: 0x0350 [0x03] Work_Zone[8] = 4307*
192: 0x0355 [0x03] Work_Zone[9] = 4477*
193: 0x035A [0x1B] RETURN

SUBROUTINE_035B:
194: 0x035B [0x03] Work_Zone[2] = 4454*
195: 0x0360 [0x03] Work_Zone[3] = 4463*
196: 0x0365 [0x03] Work_Zone[4] = 4316*
197: 0x036A [0x03] Work_Zone[5] = 4308*
198: 0x036F [0x03] Work_Zone[6] = 4319*
199: 0x0374 [0x03] Work_Zone[7] = 4309*
200: 0x0379 [0x03] Work_Zone[8] = 5129*
201: 0x037E [0x03] Work_Zone[9] = 0*
202: 0x0383 [0x1B] RETURN

SUBROUTINE_0384:
203: 0x0384 [0x24] CREATE_DIALOG(message_id=7703*, default_option=0*, option_flags=0*)
    → "Choose the first rule. [Largest fish wins./Smallest fish wins.]"
204: 0x038B [0x25] WAIT_DIALOG_SELECT()
205: 0x038C [0x02] IF !(Work_Zone[0] == 0*) GOTO 0x039A
206: 0x0394 [0x06] Work_Zone[1] = 0
207: 0x0397 [0x01] GOTO 0x03AA
208: 0x039A [0x02] IF !(Work_Zone[0] == 1*) GOTO 0x03AA
209: 0x03A2 [0x03] Work_Zone[1] = 1*
210: 0x03A7 [0x01] GOTO 0x03AA

SUBROUTINE_03AA:
211: 0x03AA [0x1B] RETURN

SUBROUTINE_03AB:
212: 0x03AB [0x24] CREATE_DIALOG(message_id=7704*, default_option=0*, option_flags=0*)
    → "Choose the second rule. [Size./Weight./Size and weight.]"
213: 0x03B2 [0x25] WAIT_DIALOG_SELECT()
214: 0x03B3 [0x02] IF !(Work_Zone[0] == 0*) GOTO 0x03C1
215: 0x03BB [0x06] Work_Zone[1] = 0
216: 0x03BE [0x01] GOTO 0x03E1
217: 0x03C1 [0x02] IF !(Work_Zone[0] == 1*) GOTO 0x03D1
218: 0x03C9 [0x03] Work_Zone[1] = 1*
219: 0x03CE [0x01] GOTO 0x03E1
220: 0x03D1 [0x02] IF !(Work_Zone[0] == 2*) GOTO 0x03E1
221: 0x03D9 [0x03] Work_Zone[1] = 2*
222: 0x03DE [0x01] GOTO 0x03E1

SUBROUTINE_03E1:
223: 0x03E1 [0x1B] RETURN
```
