# 17793047 - Zaldon

## Common Data

| Field            | Value             |
|------------------|-------------------|
| Zone             | Selbina (ID: 248) |
| Block Size       | 1692 bytes        |
| Total Events     | 15                |
| References Count | 46                |

## List of Events

| Event ID              | Entrypoint   |   Size |   Instructions |
|-----------------------|--------------|--------|----------------|
| [65535](#event-65535) | 0x0000       |      1 |              1 |
| [150](#event-150)     | 0x0001       |     59 |             15 |
| [34](#event-34)       | 0x003C       |    193 |             29 |
| [36](#event-36)       | 0x00FD       |    158 |             25 |
| [35](#event-35)       | 0x019B       |    195 |             30 |
| [77](#event-77)       | 0x025E       |     41 |             13 |
| [160](#event-160)     | 0x0287       |     28 |              8 |
| [161](#event-161)     | 0x02A3       |    113 |             25 |
| [162](#event-162)     | 0x0314       |     28 |              8 |
| [163](#event-163)     | 0x0330       |     28 |              8 |
| [164](#event-164)     | 0x034C       |     32 |             10 |
| [165](#event-165)     | 0x036C       |     32 |             10 |
| [166](#event-166)     | 0x038C       |    179 |             28 |
| [167](#event-167)     | 0x043F       |    179 |             28 |
| [85](#event-85)       | 0x04F2       |    166 |             29 |

## DAT References (imed_data)

|   Index | Hex Value   |   Dec Value |
|---------|-------------|-------------|
|       0 | 0x0001      |           1 |
|       1 | 0x003C      |          60 |
|       2 | 0x0000      |           0 |
|       3 | 0x1B3F      |        6975 |
|       4 | 0x1B40      |        6976 |
|       5 | 0x1A4B      |        6731 |
|       6 | 0x1A4C      |        6732 |
|       7 | 0x1A4D      |        6733 |
|       8 | 0x1A4E      |        6734 |
|       9 | 0x1A4F      |        6735 |
|      10 | 0x1A50      |        6736 |
|      11 | 0x0032      |          50 |
|      12 | 0x1A51      |        6737 |
|      13 | 0x0059      |          89 |
|      14 | 0x00C8      |         200 |
|      15 | 0x1A52      |        6738 |
|      16 | 0x1A53      |        6739 |
|      17 | 0x1A54      |        6740 |
|      18 | 0x0033      |          51 |
|      19 | 0x1A9B      |        6811 |
|      20 | 0x1A9C      |        6812 |
|      21 | 0x1A9D      |        6813 |
|      22 | 0x0034      |          52 |
|      23 | 0x1AF5      |        6901 |
|      24 | 0x1AF6      |        6902 |
|      25 | 0x1AF7      |        6903 |
|      26 | 0x1AF8      |        6904 |
|      27 | 0x1AF9      |        6905 |
|      28 | 0x1AFA      |        6906 |
|      29 | 0x1AFB      |        6907 |
|      30 | 0x0035      |          53 |
|      31 | 0x1AFC      |        6908 |
|      32 | 0x1AFD      |        6909 |
|      33 | 0x1AFE      |        6910 |
|      34 | 0x1AFF      |        6911 |
|      35 | 0x1B00      |        6912 |
|      36 | 0x1B01      |        6913 |
|      37 | 0x1B03      |        6915 |
|      38 | 0x0036      |          54 |
|      39 | 0x00C9      |         201 |
|      40 | 0x1B02      |        6914 |
|      41 | 0x0037      |          55 |
|      42 | 0x1C84      |        7300 |
|      43 | 0x1C85      |        7301 |
|      44 | 0x00DA      |         218 |
|      45 | 0x1C86      |        7302 |

## String References

- **6731**: What? You're out to find that ring? That's like finding a needle in a haystack!
- **6732**: Hmm... Of course, it's not impossible. But I wouldn't get my hopes up too high.
- **6733**: Listen. Around here, the $0 often bite. Heck, they'll swallow anything that sparkles.
- **6734**: There's a chance that one of them gulped the ring down. So, catch as many $0 as you can, and you just might find it!
- **6735**: There's no guarantee you'll get it, but what have you got to lose? It beats scouring the bottom of the sea, doesn't it?
- **6736**: Once you catch $0, bring it. I'll cut it open for you.
- **6737**: Caught one, did you? Well, give me a second here. I'll cut it right open.
- **6738**: Oh, too bad. No ring in this here fish. You must catch more.
- **6739**: Well, tug my tail! I never thought you'd find it, but here it is!
- **6740**: Here you go! That's some fine fishermanship, I must say! Make sure that fool Oswald never drops it again!
- **6811**: Now what? You're looking for $0? Don't you have anything better to do?
- **6812**: I hear you can find $0 in sandy places like Valkurm and Buburimu. Heck, get a chocobo to dig some up on the coast.
- **6813**: Lemme guess. You want to get some pearls from the $0, right? Well, it takes time, but it's a lot cheaper than buying them.
- **6901**: What, you fish, too? Yeah, I thought you knew a thing or two about fishin'. I can tell just by looking at you.
- **6902**: You're probably at that point where fishing really gets fun. Lemme fill you in on a little something:
- **6903**: Some fish got bad eating habits. You know, like the one that swallowed the ring?
- **6904**: Yeah, that's what I'm talkin' about. Bring me some fish like that. I'll gut it and check its innards for ya.
- **6905**: If I find something, it's yours. Either way, I'll buy the fish off you, but I can't pay as much as any fancy-shmancy store does.
- **6906**: It's up to you. You want cash, go to the guild. But if you want to chase your dreams, come see me!
- **6907**: Stop by once in a while. I'll tell you what kind of fish you can catch.
- **6908**: Try $0, $1, $2, and $3. They're all fish that like to gulp stuff down. Someone of your skill could easily catch one.
- **6909**: Someone of your skill could catch $0, $1, $2, $3, and $4. They all like to gulp stuff down.
- **6910**: Try $0 and $1. They're all fish that someone like you could catch. They love to gulp stuff down.
- **6911**: And don't forget these: $2, $3, $4, and $5.
- **6912**: And don't forget these: $2, $3, $4, $5, $6, and $7.
- **6913**: You caught one, eh? Hold on a minute, I'll gut it and see.
- **6914**: Hmm... Nope, nothing in here. Keep trying, [pal/lady]. I'm sure you'll get lucky soon.
- **6915**: Look what this bugger had in his belly! $1! Here's the money for the fish, and here's your $1. Good work!
- **6975**: You want something? I've been a fisherman here since the dawn of time! Of course, I have a little side-business, too.
- **6976**: If you want to learn about fishing, just ask Gabwaleid. He doesn't look it, but he knows quite a bit. I taught him everything! Haha!
- **7300**: What, you want me to dress a big fish you caught? You make it sound huge. Well, let's have a look!
- **7301**: Goodness! This is a big one! I can't wait to see what's in here. Give me just a moment...
- **7302**: Well, well! I found $6 inside! They're in poor shape, but I think they're quite a find!

## Events

### Event 65535

#### Metadata

| Field        | Value   |
|--------------|---------|
| Entrypoint   | 0x0000  |
| Data Size    | 1 bytes |
| Instructions | 1       |

```
      00 01 02 03 04 05 06 07  08 09 0A 0B 0C 0D 0E 0F
      -- -- -- -- -- -- -- --  -- -- -- -- -- -- -- --
0000: 00                                                .               
```

#### Opcodes

```
  0: 0x0000 [0x00] END_REQSTACK()
```

### Event 150

#### Metadata

| Field        | Value    |
|--------------|----------|
| Entrypoint   | 0x0001   |
| Data Size    | 59 bytes |
| Instructions | 15       |

```
      00 01 02 03 04 05 06 07  08 09 0A 0B 0C 0D 0E 0F
      -- -- -- -- -- -- -- --  -- -- -- -- -- -- -- --
0000:    1E F0 FF FF 7F 13 00  00 00 80 6F 70 66 01 80   ..........opf..
0010: F8 FF FF 7F F8 FF FF 7F  74 6C 6B 30 02 00 00 02  ........tlk0....
0020: 80 80 2B 00 1D 03 80 23  01 3A 00 02 00 00 00 80  ..+....#.:......
0030: 80 3A 00 1D 04 80 23 01  3A 00 21 00              .:....#.:.!.    
```

#### Opcodes

```
  0: 0x0001 [0x1E] EventEntity looks at LocalPlayer and starts talking
  1: 0x0006 [0x13] ExtData[1]->WorkLocal[0] = rand() % 1*
  2: 0x000B [0x6F] WAIT_FRAME_DELAY: Yield until WaitTime reaches zero
  3: 0x000C [0x70] WAIT_ENTITY_RENDER_FLAG: Wait while EventEntity->Render.Flags3 bit 2 is set (cancel turn if not)
  4: 0x000D [0x66] LOAD_EXT_SCHEDULER_MAIN: Load scheduler "tlk0" with entities [EventEntity, EventEntity], work=60*
  5: 0x001C [0x02] IF !(ExtData[1]->WorkLocal[0] == 0*) GOTO 0x002B
  6: 0x0024 [0x1D] PRINT_EVENT_MESSAGE(message_id=6975*)
    → "You want something? I've been a fisherman here since the dawn of time! Of course, I have a little side-business, too."
  7: 0x0027 [0x23] WAIT_FOR_DIALOG_INTERACTION
  8: 0x0028 [0x01] GOTO 0x003A
  9: 0x002B [0x02] IF !(ExtData[1]->WorkLocal[0] == 1*) GOTO 0x003A
 10: 0x0033 [0x1D] PRINT_EVENT_MESSAGE(message_id=6976*)
    → "If you want to learn about fishing, just ask Gabwaleid. He doesn't look it, but he knows quite a bit. I taught him everything! Haha!"
 11: 0x0036 [0x23] WAIT_FOR_DIALOG_INTERACTION
 12: 0x0037 [0x01] GOTO 0x003A

SUBROUTINE_003A:
 13: 0x003A [0x21] END_EVENT
 14: 0x003B [0x00] END_REQSTACK()
```

### Event 34

#### Metadata

| Field        | Value     |
|--------------|-----------|
| Entrypoint   | 0x003C    |
| Data Size    | 193 bytes |
| Instructions | 29        |

```
      00 01 02 03 04 05 06 07  08 09 0A 0B 0C 0D 0E 0F
      -- -- -- -- -- -- -- --  -- -- -- -- -- -- -- --
0030:                                      1E F0 FF FF              ....
0040: 7F 6F 70 1D 05 80 66 01  80 F8 FF FF 7F F8 FF FF  .op...f.........
0050: 7F 64 69 73 30 53 F8 FF  FF 7F F8 FF FF 7F 64 69  .dis0S........di
0060: 73 30 66 01 80 F8 FF FF  7F F8 FF FF 7F 74 6C 6B  s0f..........tlk
0070: 30 23 53 F8 FF FF 7F F8  FF FF 7F 74 6C 6B 30 66  0#S........tlk0f
0080: 01 80 F8 FF FF 7F F8 FF  FF 7F 74 68 6B 31 1D 06  ..........thk1..
0090: 80 23 53 F8 FF FF 7F F8  FF FF 7F 74 6C 6B 31 66  .#S........tlk1f
00A0: 01 80 F8 FF FF 7F F8 FF  FF 7F 74 6C 6B 30 1D 07  ..........tlk0..
00B0: 80 23 1D 08 80 23 1D 09  80 53 F8 FF FF 7F F8 FF  .#...#...S......
00C0: FF 7F 74 6C 6B 30 66 01  80 F8 FF FF 7F F8 FF FF  ..tlk0f.........
00D0: 7F 64 69 73 30 23 53 F8  FF FF 7F F8 FF FF 7F 64  .dis0#S........d
00E0: 69 73 30 66 01 80 F8 FF  FF 7F F8 FF FF 7F 74 6C  is0f..........tl
00F0: 6B 30 1D 0A 80 23 03 01  10 0B 80 21 00           k0...#.....!.   
```

#### Opcodes

```
  0: 0x003C [0x1E] EventEntity looks at LocalPlayer and starts talking
  1: 0x0041 [0x6F] WAIT_FRAME_DELAY: Yield until WaitTime reaches zero
  2: 0x0042 [0x70] WAIT_ENTITY_RENDER_FLAG: Wait while EventEntity->Render.Flags3 bit 2 is set (cancel turn if not)
  3: 0x0043 [0x1D] PRINT_EVENT_MESSAGE(message_id=6731*)
    → "What? You're out to find that ring? That's like finding a needle in a haystack!"
  4: 0x0046 [0x66] LOAD_EXT_SCHEDULER_MAIN: Load scheduler "dis0" with entities [EventEntity, EventEntity], work=60*
  5: 0x0055 [0x53] WAIT_SCHEDULER_TASK: Wait for scheduler "dis0" with entities [EventEntity, EventEntity]
  6: 0x0062 [0x66] LOAD_EXT_SCHEDULER_MAIN: Load scheduler "tlk0" with entities [EventEntity, EventEntity], work=60*
  7: 0x0071 [0x23] WAIT_FOR_DIALOG_INTERACTION
  8: 0x0072 [0x53] WAIT_SCHEDULER_TASK: Wait for scheduler "tlk0" with entities [EventEntity, EventEntity]
  9: 0x007F [0x66] LOAD_EXT_SCHEDULER_MAIN: Load scheduler "thk1" with entities [EventEntity, EventEntity], work=60*
 10: 0x008E [0x1D] PRINT_EVENT_MESSAGE(message_id=6732*)
    → "Hmm... Of course, it's not impossible. But I wouldn't get my hopes up too high."
 11: 0x0091 [0x23] WAIT_FOR_DIALOG_INTERACTION
 12: 0x0092 [0x53] WAIT_SCHEDULER_TASK: Wait for scheduler "tlk1" with entities [EventEntity, EventEntity]
 13: 0x009F [0x66] LOAD_EXT_SCHEDULER_MAIN: Load scheduler "tlk0" with entities [EventEntity, EventEntity], work=60*
 14: 0x00AE [0x1D] PRINT_EVENT_MESSAGE(message_id=6733*)
    → "Listen. Around here, the $0 often bite. Heck, they'll swallow anything that sparkles."
 15: 0x00B1 [0x23] WAIT_FOR_DIALOG_INTERACTION
 16: 0x00B2 [0x1D] PRINT_EVENT_MESSAGE(message_id=6734*)
    → "There's a chance that one of them gulped the ring down. So, catch as many $0 as you can, and you just might find it!"
 17: 0x00B5 [0x23] WAIT_FOR_DIALOG_INTERACTION
 18: 0x00B6 [0x1D] PRINT_EVENT_MESSAGE(message_id=6735*)
    → "There's no guarantee you'll get it, but what have you got to lose? It beats scouring the bottom of the sea, doesn't it?"
 19: 0x00B9 [0x53] WAIT_SCHEDULER_TASK: Wait for scheduler "tlk0" with entities [EventEntity, EventEntity]
 20: 0x00C6 [0x66] LOAD_EXT_SCHEDULER_MAIN: Load scheduler "dis0" with entities [EventEntity, EventEntity], work=60*
 21: 0x00D5 [0x23] WAIT_FOR_DIALOG_INTERACTION
 22: 0x00D6 [0x53] WAIT_SCHEDULER_TASK: Wait for scheduler "dis0" with entities [EventEntity, EventEntity]
 23: 0x00E3 [0x66] LOAD_EXT_SCHEDULER_MAIN: Load scheduler "tlk0" with entities [EventEntity, EventEntity], work=60*
 24: 0x00F2 [0x1D] PRINT_EVENT_MESSAGE(message_id=6736*)
    → "Once you catch $0, bring it. I'll cut it open for you."
 25: 0x00F5 [0x23] WAIT_FOR_DIALOG_INTERACTION
 26: 0x00F6 [0x03] Work_Zone[1] = 50*
 27: 0x00FB [0x21] END_EVENT
 28: 0x00FC [0x00] END_REQSTACK()
```

### Event 36

#### Metadata

| Field        | Value     |
|--------------|-----------|
| Entrypoint   | 0x00FD    |
| Data Size    | 158 bytes |
| Instructions | 25        |

```
      00 01 02 03 04 05 06 07  08 09 0A 0B 0C 0D 0E 0F
      -- -- -- -- -- -- -- --  -- -- -- -- -- -- -- --
00F0:                                         42 20 01               B .
0100: 1E F0 FF FF 7F 6F 70 66  01 80 F8 FF FF 7F F8 FF  .....opf........
0110: FF 7F 74 6C 6B 30 1D 0C  80 23 53 F8 FF FF 7F F8  ..tlk0...#S.....
0120: FF FF 7F 74 6C 6B 30 5E  69 64 6C 30 39 0D 80 45  ...tlk0^idl09..E
0130: 0E 80 F0 FF FF 7F F0 FF  FF 7F 66 64 6F 31 02 80  ..........fdo1..
0140: 55 0E 80 F0 FF FF 7F F0  FF FF 7F 66 64 6F 31 45  U..........fdo1E
0150: 0E 80 F0 FF FF 7F F0 FF  FF 7F 66 64 69 31 02 80  ..........fdi1..
0160: 55 0E 80 F0 FF FF 7F F0  FF FF 7F 66 64 69 31 1C  U..........fdi1.
0170: 01 80 1E F0 FF FF 7F 6F  70 1D 0F 80 66 01 80 F8  .......op...f...
0180: FF FF 7F F8 FF FF 7F 64  69 73 30 53 F8 FF FF 7F  .......dis0S....
0190: F8 FF FF 7F 64 69 73 30  23 21 00                 ....dis0#!.     
```

#### Opcodes

```
  0: 0x00FD [0x42] SET_CLI_EVENT_CANCEL_DATA()
  1: 0x00FE [0x20] SET_CLI_EVENT_UC_FLAG: Lock player control
  2: 0x0100 [0x1E] EventEntity looks at LocalPlayer and starts talking
  3: 0x0105 [0x6F] WAIT_FRAME_DELAY: Yield until WaitTime reaches zero
  4: 0x0106 [0x70] WAIT_ENTITY_RENDER_FLAG: Wait while EventEntity->Render.Flags3 bit 2 is set (cancel turn if not)
  5: 0x0107 [0x66] LOAD_EXT_SCHEDULER_MAIN: Load scheduler "tlk0" with entities [EventEntity, EventEntity], work=60*
  6: 0x0116 [0x1D] PRINT_EVENT_MESSAGE(message_id=6737*)
    → "Caught one, did you? Well, give me a second here. I'll cut it right open."
  7: 0x0119 [0x23] WAIT_FOR_DIALOG_INTERACTION
  8: 0x011A [0x53] WAIT_SCHEDULER_TASK: Wait for scheduler "tlk0" with entities [EventEntity, EventEntity]
  9: 0x0127 [0x5E] EventEntity goes idle (kills current action) (animation: "idl0")
 10: 0x012C [0x39] SET_ENTITY_DIRECTION(direction=0.5°*)
 11: 0x012F [0x45] LOAD_SCHEDULED_TASK: Load scheduler "fdo1" with entities [LocalPlayer, LocalPlayer], work=[200*, 0*]
 12: 0x0140 [0x55] WAIT_LOAD_SCHEDULER: Wait for scheduler "fdo1" with entities [LocalPlayer, LocalPlayer], work=200*
 13: 0x014F [0x45] LOAD_SCHEDULED_TASK: Load scheduler "fdi1" with entities [LocalPlayer, LocalPlayer], work=[200*, 0*]
 14: 0x0160 [0x55] WAIT_LOAD_SCHEDULER: Wait for scheduler "fdi1" with entities [LocalPlayer, LocalPlayer], work=200*
 15: 0x016F [0x1C] WAIT(60* ticks)
 16: 0x0172 [0x1E] EventEntity looks at LocalPlayer and starts talking
 17: 0x0177 [0x6F] WAIT_FRAME_DELAY: Yield until WaitTime reaches zero
 18: 0x0178 [0x70] WAIT_ENTITY_RENDER_FLAG: Wait while EventEntity->Render.Flags3 bit 2 is set (cancel turn if not)
 19: 0x0179 [0x1D] PRINT_EVENT_MESSAGE(message_id=6738*)
    → "Oh, too bad. No ring in this here fish. You must catch more."
 20: 0x017C [0x66] LOAD_EXT_SCHEDULER_MAIN: Load scheduler "dis0" with entities [EventEntity, EventEntity], work=60*
 21: 0x018B [0x53] WAIT_SCHEDULER_TASK: Wait for scheduler "dis0" with entities [EventEntity, EventEntity]
 22: 0x0198 [0x23] WAIT_FOR_DIALOG_INTERACTION
 23: 0x0199 [0x21] END_EVENT
 24: 0x019A [0x00] END_REQSTACK()
```

### Event 35

#### Metadata

| Field        | Value     |
|--------------|-----------|
| Entrypoint   | 0x019B    |
| Data Size    | 195 bytes |
| Instructions | 30        |

```
      00 01 02 03 04 05 06 07  08 09 0A 0B 0C 0D 0E 0F
      -- -- -- -- -- -- -- --  -- -- -- -- -- -- -- --
0190:                                   42 20 01 1E F0             B ...
01A0: FF FF 7F 6F 70 66 01 80  F8 FF FF 7F F8 FF FF 7F  ...opf..........
01B0: 74 6C 6B 30 1D 0C 80 23  53 F8 FF FF 7F F8 FF FF  tlk0...#S.......
01C0: 7F 74 6C 6B 30 5E 69 64  6C 30 39 0D 80 45 0E 80  .tlk0^idl09..E..
01D0: F0 FF FF 7F F0 FF FF 7F  66 64 6F 31 02 80 55 0E  ........fdo1..U.
01E0: 80 F0 FF FF 7F F0 FF FF  7F 66 64 6F 31 45 0E 80  .........fdo1E..
01F0: F0 FF FF 7F F0 FF FF 7F  66 64 69 31 02 80 55 0E  ........fdi1..U.
0200: 80 F0 FF FF 7F F0 FF FF  7F 66 64 69 31 1C 01 80  .........fdi1...
0210: 1E F0 FF FF 7F 6F 70 66  01 80 F8 FF FF 7F F8 FF  .....opf........
0220: FF 7F 74 6C 6B 30 1D 10  80 23 1D 11 80 53 F8 FF  ..tlk0...#...S..
0230: FF 7F F8 FF FF 7F 74 6C  6B 30 66 01 80 F8 FF FF  ......tlk0f.....
0240: 7F F8 FF FF 7F 70 61 73  30 53 F8 FF FF 7F F8 FF  .....pas0S......
0250: FF 7F 70 61 73 30 23 03  01 10 12 80 21 00        ..pas0#.....!.  
```

#### Opcodes

```
  0: 0x019B [0x42] SET_CLI_EVENT_CANCEL_DATA()
  1: 0x019C [0x20] SET_CLI_EVENT_UC_FLAG: Lock player control
  2: 0x019E [0x1E] EventEntity looks at LocalPlayer and starts talking
  3: 0x01A3 [0x6F] WAIT_FRAME_DELAY: Yield until WaitTime reaches zero
  4: 0x01A4 [0x70] WAIT_ENTITY_RENDER_FLAG: Wait while EventEntity->Render.Flags3 bit 2 is set (cancel turn if not)
  5: 0x01A5 [0x66] LOAD_EXT_SCHEDULER_MAIN: Load scheduler "tlk0" with entities [EventEntity, EventEntity], work=60*
  6: 0x01B4 [0x1D] PRINT_EVENT_MESSAGE(message_id=6737*)
    → "Caught one, did you? Well, give me a second here. I'll cut it right open."
  7: 0x01B7 [0x23] WAIT_FOR_DIALOG_INTERACTION
  8: 0x01B8 [0x53] WAIT_SCHEDULER_TASK: Wait for scheduler "tlk0" with entities [EventEntity, EventEntity]
  9: 0x01C5 [0x5E] EventEntity goes idle (kills current action) (animation: "idl0")
 10: 0x01CA [0x39] SET_ENTITY_DIRECTION(direction=0.5°*)
 11: 0x01CD [0x45] LOAD_SCHEDULED_TASK: Load scheduler "fdo1" with entities [LocalPlayer, LocalPlayer], work=[200*, 0*]
 12: 0x01DE [0x55] WAIT_LOAD_SCHEDULER: Wait for scheduler "fdo1" with entities [LocalPlayer, LocalPlayer], work=200*
 13: 0x01ED [0x45] LOAD_SCHEDULED_TASK: Load scheduler "fdi1" with entities [LocalPlayer, LocalPlayer], work=[200*, 0*]
 14: 0x01FE [0x55] WAIT_LOAD_SCHEDULER: Wait for scheduler "fdi1" with entities [LocalPlayer, LocalPlayer], work=200*
 15: 0x020D [0x1C] WAIT(60* ticks)
 16: 0x0210 [0x1E] EventEntity looks at LocalPlayer and starts talking
 17: 0x0215 [0x6F] WAIT_FRAME_DELAY: Yield until WaitTime reaches zero
 18: 0x0216 [0x70] WAIT_ENTITY_RENDER_FLAG: Wait while EventEntity->Render.Flags3 bit 2 is set (cancel turn if not)
 19: 0x0217 [0x66] LOAD_EXT_SCHEDULER_MAIN: Load scheduler "tlk0" with entities [EventEntity, EventEntity], work=60*
 20: 0x0226 [0x1D] PRINT_EVENT_MESSAGE(message_id=6739*)
    → "Well, tug my tail! I never thought you'd find it, but here it is!"
 21: 0x0229 [0x23] WAIT_FOR_DIALOG_INTERACTION
 22: 0x022A [0x1D] PRINT_EVENT_MESSAGE(message_id=6740*)
    → "Here you go! That's some fine fishermanship, I must say! Make sure that fool Oswald never drops it again!"
 23: 0x022D [0x53] WAIT_SCHEDULER_TASK: Wait for scheduler "tlk0" with entities [EventEntity, EventEntity]
 24: 0x023A [0x66] LOAD_EXT_SCHEDULER_MAIN: Load scheduler "pas0" with entities [EventEntity, EventEntity], work=60*
 25: 0x0249 [0x53] WAIT_SCHEDULER_TASK: Wait for scheduler "pas0" with entities [EventEntity, EventEntity]
 26: 0x0256 [0x23] WAIT_FOR_DIALOG_INTERACTION
 27: 0x0257 [0x03] Work_Zone[1] = 51*
 28: 0x025C [0x21] END_EVENT
 29: 0x025D [0x00] END_REQSTACK()
```

### Event 77

#### Metadata

| Field        | Value    |
|--------------|----------|
| Entrypoint   | 0x025E   |
| Data Size    | 41 bytes |
| Instructions | 13       |

```
      00 01 02 03 04 05 06 07  08 09 0A 0B 0C 0D 0E 0F
      -- -- -- -- -- -- -- --  -- -- -- -- -- -- -- --
0250:                                            1E F0                ..
0260: FF FF 7F 6F 70 66 01 80  F8 FF FF 7F F8 FF FF 7F  ...opf..........
0270: 74 6C 6B 30 1D 13 80 23  1D 14 80 23 1D 15 80 23  tlk0...#...#...#
0280: 03 01 10 16 80 21 00                              .....!.         
```

#### Opcodes

```
  0: 0x025E [0x1E] EventEntity looks at LocalPlayer and starts talking
  1: 0x0263 [0x6F] WAIT_FRAME_DELAY: Yield until WaitTime reaches zero
  2: 0x0264 [0x70] WAIT_ENTITY_RENDER_FLAG: Wait while EventEntity->Render.Flags3 bit 2 is set (cancel turn if not)
  3: 0x0265 [0x66] LOAD_EXT_SCHEDULER_MAIN: Load scheduler "tlk0" with entities [EventEntity, EventEntity], work=60*
  4: 0x0274 [0x1D] PRINT_EVENT_MESSAGE(message_id=6811*)
    → "Now what? You're looking for $0? Don't you have anything better to do?"
  5: 0x0277 [0x23] WAIT_FOR_DIALOG_INTERACTION
  6: 0x0278 [0x1D] PRINT_EVENT_MESSAGE(message_id=6812*)
    → "I hear you can find $0 in sandy places like Valkurm and Buburimu. Heck, get a chocobo to dig some up on the coast."
  7: 0x027B [0x23] WAIT_FOR_DIALOG_INTERACTION
  8: 0x027C [0x1D] PRINT_EVENT_MESSAGE(message_id=6813*)
    → "Lemme guess. You want to get some pearls from the $0, right? Well, it takes time, but it's a lot cheaper than buying them."
  9: 0x027F [0x23] WAIT_FOR_DIALOG_INTERACTION
 10: 0x0280 [0x03] Work_Zone[1] = 52*
 11: 0x0285 [0x21] END_EVENT
 12: 0x0286 [0x00] END_REQSTACK()
```

### Event 160

#### Metadata

| Field        | Value    |
|--------------|----------|
| Entrypoint   | 0x0287   |
| Data Size    | 28 bytes |
| Instructions | 8        |

```
      00 01 02 03 04 05 06 07  08 09 0A 0B 0C 0D 0E 0F
      -- -- -- -- -- -- -- --  -- -- -- -- -- -- -- --
0280:                      1E  F0 FF FF 7F 6F 70 66 01         .....opf.
0290: 80 F8 FF FF 7F F8 FF FF  7F 74 6C 6B 30 1D 14 80  .........tlk0...
02A0: 23 21 00                                          #!.             
```

#### Opcodes

```
  0: 0x0287 [0x1E] EventEntity looks at LocalPlayer and starts talking
  1: 0x028C [0x6F] WAIT_FRAME_DELAY: Yield until WaitTime reaches zero
  2: 0x028D [0x70] WAIT_ENTITY_RENDER_FLAG: Wait while EventEntity->Render.Flags3 bit 2 is set (cancel turn if not)
  3: 0x028E [0x66] LOAD_EXT_SCHEDULER_MAIN: Load scheduler "tlk0" with entities [EventEntity, EventEntity], work=60*
  4: 0x029D [0x1D] PRINT_EVENT_MESSAGE(message_id=6812*)
    → "I hear you can find $0 in sandy places like Valkurm and Buburimu. Heck, get a chocobo to dig some up on the coast."
  5: 0x02A0 [0x23] WAIT_FOR_DIALOG_INTERACTION
  6: 0x02A1 [0x21] END_EVENT
  7: 0x02A2 [0x00] END_REQSTACK()
```

### Event 161

#### Metadata

| Field        | Value     |
|--------------|-----------|
| Entrypoint   | 0x02A3    |
| Data Size    | 113 bytes |
| Instructions | 25        |

```
      00 01 02 03 04 05 06 07  08 09 0A 0B 0C 0D 0E 0F
      -- -- -- -- -- -- -- --  -- -- -- -- -- -- -- --
02A0:          1E F0 FF FF 7F  6F 70 1D 17 80 23 66 01     .....op...#f.
02B0: 80 F8 FF FF 7F F8 FF FF  7F 74 6C 6B 30 1D 18 80  .........tlk0...
02C0: 23 1D 19 80 23 1D 1A 80  23 1D 1B 80 23 1D 1C 80  #...#...#...#...
02D0: 53 F8 FF FF 7F F8 FF FF  7F 74 6C 6B 30 66 01 80  S........tlk0f..
02E0: F8 FF FF 7F F8 FF FF 7F  64 69 73 30 53 F8 FF FF  ........dis0S...
02F0: 7F F8 FF FF 7F 64 69 73  30 23 66 01 80 F8 FF FF  .....dis0#f.....
0300: 7F F8 FF FF 7F 74 6C 6B  30 1D 1D 80 23 03 01 10  .....tlk0...#...
0310: 1E 80 21 00                                       ..!.            
```

#### Opcodes

```
  0: 0x02A3 [0x1E] EventEntity looks at LocalPlayer and starts talking
  1: 0x02A8 [0x6F] WAIT_FRAME_DELAY: Yield until WaitTime reaches zero
  2: 0x02A9 [0x70] WAIT_ENTITY_RENDER_FLAG: Wait while EventEntity->Render.Flags3 bit 2 is set (cancel turn if not)
  3: 0x02AA [0x1D] PRINT_EVENT_MESSAGE(message_id=6901*)
    → "What, you fish, too? Yeah, I thought you knew a thing or two about fishin'. I can tell just by looking at you."
  4: 0x02AD [0x23] WAIT_FOR_DIALOG_INTERACTION
  5: 0x02AE [0x66] LOAD_EXT_SCHEDULER_MAIN: Load scheduler "tlk0" with entities [EventEntity, EventEntity], work=60*
  6: 0x02BD [0x1D] PRINT_EVENT_MESSAGE(message_id=6902*)
    → "You're probably at that point where fishing really gets fun. Lemme fill you in on a little something:"
  7: 0x02C0 [0x23] WAIT_FOR_DIALOG_INTERACTION
  8: 0x02C1 [0x1D] PRINT_EVENT_MESSAGE(message_id=6903*)
    → "Some fish got bad eating habits. You know, like the one that swallowed the ring?"
  9: 0x02C4 [0x23] WAIT_FOR_DIALOG_INTERACTION
 10: 0x02C5 [0x1D] PRINT_EVENT_MESSAGE(message_id=6904*)
    → "Yeah, that's what I'm talkin' about. Bring me some fish like that. I'll gut it and check its innards for ya."
 11: 0x02C8 [0x23] WAIT_FOR_DIALOG_INTERACTION
 12: 0x02C9 [0x1D] PRINT_EVENT_MESSAGE(message_id=6905*)
    → "If I find something, it's yours. Either way, I'll buy the fish off you, but I can't pay as much as any fancy-shmancy store does."
 13: 0x02CC [0x23] WAIT_FOR_DIALOG_INTERACTION
 14: 0x02CD [0x1D] PRINT_EVENT_MESSAGE(message_id=6906*)
    → "It's up to you. You want cash, go to the guild. But if you want to chase your dreams, come see me!"
 15: 0x02D0 [0x53] WAIT_SCHEDULER_TASK: Wait for scheduler "tlk0" with entities [EventEntity, EventEntity]
 16: 0x02DD [0x66] LOAD_EXT_SCHEDULER_MAIN: Load scheduler "dis0" with entities [EventEntity, EventEntity], work=60*
 17: 0x02EC [0x53] WAIT_SCHEDULER_TASK: Wait for scheduler "dis0" with entities [EventEntity, EventEntity]
 18: 0x02F9 [0x23] WAIT_FOR_DIALOG_INTERACTION
 19: 0x02FA [0x66] LOAD_EXT_SCHEDULER_MAIN: Load scheduler "tlk0" with entities [EventEntity, EventEntity], work=60*
 20: 0x0309 [0x1D] PRINT_EVENT_MESSAGE(message_id=6907*)
    → "Stop by once in a while. I'll tell you what kind of fish you can catch."
 21: 0x030C [0x23] WAIT_FOR_DIALOG_INTERACTION
 22: 0x030D [0x03] Work_Zone[1] = 53*
 23: 0x0312 [0x21] END_EVENT
 24: 0x0313 [0x00] END_REQSTACK()
```

### Event 162

#### Metadata

| Field        | Value    |
|--------------|----------|
| Entrypoint   | 0x0314   |
| Data Size    | 28 bytes |
| Instructions | 8        |

```
      00 01 02 03 04 05 06 07  08 09 0A 0B 0C 0D 0E 0F
      -- -- -- -- -- -- -- --  -- -- -- -- -- -- -- --
0310:             1E F0 FF FF  7F 6F 70 66 01 80 F8 FF      .....opf....
0320: FF 7F F8 FF FF 7F 74 6C  6B 30 1D 1F 80 23 21 00  ......tlk0...#!.
```

#### Opcodes

```
  0: 0x0314 [0x1E] EventEntity looks at LocalPlayer and starts talking
  1: 0x0319 [0x6F] WAIT_FRAME_DELAY: Yield until WaitTime reaches zero
  2: 0x031A [0x70] WAIT_ENTITY_RENDER_FLAG: Wait while EventEntity->Render.Flags3 bit 2 is set (cancel turn if not)
  3: 0x031B [0x66] LOAD_EXT_SCHEDULER_MAIN: Load scheduler "tlk0" with entities [EventEntity, EventEntity], work=60*
  4: 0x032A [0x1D] PRINT_EVENT_MESSAGE(message_id=6908*)
    → "Try $0, $1, $2, and $3. They're all fish that like to gulp stuff down. Someone of your skill could easily catch one."
  5: 0x032D [0x23] WAIT_FOR_DIALOG_INTERACTION
  6: 0x032E [0x21] END_EVENT
  7: 0x032F [0x00] END_REQSTACK()
```

### Event 163

#### Metadata

| Field        | Value    |
|--------------|----------|
| Entrypoint   | 0x0330   |
| Data Size    | 28 bytes |
| Instructions | 8        |

```
      00 01 02 03 04 05 06 07  08 09 0A 0B 0C 0D 0E 0F
      -- -- -- -- -- -- -- --  -- -- -- -- -- -- -- --
0330: 1E F0 FF FF 7F 6F 70 66  01 80 F8 FF FF 7F F8 FF  .....opf........
0340: FF 7F 74 6C 6B 30 1D 20  80 23 21 00              ..tlk0. .#!.    
```

#### Opcodes

```
  0: 0x0330 [0x1E] EventEntity looks at LocalPlayer and starts talking
  1: 0x0335 [0x6F] WAIT_FRAME_DELAY: Yield until WaitTime reaches zero
  2: 0x0336 [0x70] WAIT_ENTITY_RENDER_FLAG: Wait while EventEntity->Render.Flags3 bit 2 is set (cancel turn if not)
  3: 0x0337 [0x66] LOAD_EXT_SCHEDULER_MAIN: Load scheduler "tlk0" with entities [EventEntity, EventEntity], work=60*
  4: 0x0346 [0x1D] PRINT_EVENT_MESSAGE(message_id=6909*)
    → "Someone of your skill could catch $0, $1, $2, $3, and $4. They all like to gulp stuff down."
  5: 0x0349 [0x23] WAIT_FOR_DIALOG_INTERACTION
  6: 0x034A [0x21] END_EVENT
  7: 0x034B [0x00] END_REQSTACK()
```

### Event 164

#### Metadata

| Field        | Value    |
|--------------|----------|
| Entrypoint   | 0x034C   |
| Data Size    | 32 bytes |
| Instructions | 10       |

```
      00 01 02 03 04 05 06 07  08 09 0A 0B 0C 0D 0E 0F
      -- -- -- -- -- -- -- --  -- -- -- -- -- -- -- --
0340:                                      1E F0 FF FF              ....
0350: 7F 6F 70 66 01 80 F8 FF  FF 7F F8 FF FF 7F 74 6C  .opf..........tl
0360: 6B 30 1D 21 80 23 1D 22  80 23 21 00              k0.!.#.".#!.    
```

#### Opcodes

```
  0: 0x034C [0x1E] EventEntity looks at LocalPlayer and starts talking
  1: 0x0351 [0x6F] WAIT_FRAME_DELAY: Yield until WaitTime reaches zero
  2: 0x0352 [0x70] WAIT_ENTITY_RENDER_FLAG: Wait while EventEntity->Render.Flags3 bit 2 is set (cancel turn if not)
  3: 0x0353 [0x66] LOAD_EXT_SCHEDULER_MAIN: Load scheduler "tlk0" with entities [EventEntity, EventEntity], work=60*
  4: 0x0362 [0x1D] PRINT_EVENT_MESSAGE(message_id=6910*)
    → "Try $0 and $1. They're all fish that someone like you could catch. They love to gulp stuff down."
  5: 0x0365 [0x23] WAIT_FOR_DIALOG_INTERACTION
  6: 0x0366 [0x1D] PRINT_EVENT_MESSAGE(message_id=6911*)
    → "And don't forget these: $2, $3, $4, and $5."
  7: 0x0369 [0x23] WAIT_FOR_DIALOG_INTERACTION
  8: 0x036A [0x21] END_EVENT
  9: 0x036B [0x00] END_REQSTACK()
```

### Event 165

#### Metadata

| Field        | Value    |
|--------------|----------|
| Entrypoint   | 0x036C   |
| Data Size    | 32 bytes |
| Instructions | 10       |

```
      00 01 02 03 04 05 06 07  08 09 0A 0B 0C 0D 0E 0F
      -- -- -- -- -- -- -- --  -- -- -- -- -- -- -- --
0360:                                      1E F0 FF FF              ....
0370: 7F 6F 70 66 01 80 F8 FF  FF 7F F8 FF FF 7F 74 6C  .opf..........tl
0380: 6B 30 1D 21 80 23 1D 23  80 23 21 00              k0.!.#.#.#!.    
```

#### Opcodes

```
  0: 0x036C [0x1E] EventEntity looks at LocalPlayer and starts talking
  1: 0x0371 [0x6F] WAIT_FRAME_DELAY: Yield until WaitTime reaches zero
  2: 0x0372 [0x70] WAIT_ENTITY_RENDER_FLAG: Wait while EventEntity->Render.Flags3 bit 2 is set (cancel turn if not)
  3: 0x0373 [0x66] LOAD_EXT_SCHEDULER_MAIN: Load scheduler "tlk0" with entities [EventEntity, EventEntity], work=60*
  4: 0x0382 [0x1D] PRINT_EVENT_MESSAGE(message_id=6910*)
    → "Try $0 and $1. They're all fish that someone like you could catch. They love to gulp stuff down."
  5: 0x0385 [0x23] WAIT_FOR_DIALOG_INTERACTION
  6: 0x0386 [0x1D] PRINT_EVENT_MESSAGE(message_id=6912*)
    → "And don't forget these: $2, $3, $4, $5, $6, and $7."
  7: 0x0389 [0x23] WAIT_FOR_DIALOG_INTERACTION
  8: 0x038A [0x21] END_EVENT
  9: 0x038B [0x00] END_REQSTACK()
```

### Event 166

#### Metadata

| Field        | Value     |
|--------------|-----------|
| Entrypoint   | 0x038C    |
| Data Size    | 179 bytes |
| Instructions | 28        |

```
      00 01 02 03 04 05 06 07  08 09 0A 0B 0C 0D 0E 0F
      -- -- -- -- -- -- -- --  -- -- -- -- -- -- -- --
0380:                                      42 20 01 1E              B ..
0390: F0 FF FF 7F 6F 70 66 01  80 F8 FF FF 7F F8 FF FF  ....opf.........
03A0: 7F 74 6C 6B 30 1D 24 80  23 53 F8 FF FF 7F F8 FF  .tlk0.$.#S......
03B0: FF 7F 74 6C 6B 30 5E 69  64 6C 30 39 0D 80 45 0E  ..tlk0^idl09..E.
03C0: 80 F0 FF FF 7F F0 FF FF  7F 66 64 6F 31 02 80 55  .........fdo1..U
03D0: 0E 80 F0 FF FF 7F F0 FF  FF 7F 66 64 6F 31 6F 70  ..........fdo1op
03E0: 45 0E 80 F0 FF FF 7F F0  FF FF 7F 66 64 69 31 02  E..........fdi1.
03F0: 80 55 0E 80 F0 FF FF 7F  F0 FF FF 7F 66 64 69 31  .U..........fdi1
0400: 1D 25 80 1E F0 FF FF 7F  6F 70 66 01 80 F8 FF FF  .%......opf.....
0410: 7F F8 FF FF 7F 70 61 73  30 53 F8 FF FF 7F F8 FF  .....pas0S......
0420: FF 7F 70 61 73 30 23 03  01 10 26 80 45 27 80 F0  ..pas0#...&.E'..
0430: FF FF 7F F0 FF FF 7F 71  73 74 63 02 80 21 00     .......qstc..!. 
```

#### Opcodes

```
  0: 0x038C [0x42] SET_CLI_EVENT_CANCEL_DATA()
  1: 0x038D [0x20] SET_CLI_EVENT_UC_FLAG: Lock player control
  2: 0x038F [0x1E] EventEntity looks at LocalPlayer and starts talking
  3: 0x0394 [0x6F] WAIT_FRAME_DELAY: Yield until WaitTime reaches zero
  4: 0x0395 [0x70] WAIT_ENTITY_RENDER_FLAG: Wait while EventEntity->Render.Flags3 bit 2 is set (cancel turn if not)
  5: 0x0396 [0x66] LOAD_EXT_SCHEDULER_MAIN: Load scheduler "tlk0" with entities [EventEntity, EventEntity], work=60*
  6: 0x03A5 [0x1D] PRINT_EVENT_MESSAGE(message_id=6913*)
    → "You caught one, eh? Hold on a minute, I'll gut it and see."
  7: 0x03A8 [0x23] WAIT_FOR_DIALOG_INTERACTION
  8: 0x03A9 [0x53] WAIT_SCHEDULER_TASK: Wait for scheduler "tlk0" with entities [EventEntity, EventEntity]
  9: 0x03B6 [0x5E] EventEntity goes idle (kills current action) (animation: "idl0")
 10: 0x03BB [0x39] SET_ENTITY_DIRECTION(direction=0.5°*)
 11: 0x03BE [0x45] LOAD_SCHEDULED_TASK: Load scheduler "fdo1" with entities [LocalPlayer, LocalPlayer], work=[200*, 0*]
 12: 0x03CF [0x55] WAIT_LOAD_SCHEDULER: Wait for scheduler "fdo1" with entities [LocalPlayer, LocalPlayer], work=200*
 13: 0x03DE [0x6F] WAIT_FRAME_DELAY: Yield until WaitTime reaches zero
 14: 0x03DF [0x70] WAIT_ENTITY_RENDER_FLAG: Wait while EventEntity->Render.Flags3 bit 2 is set (cancel turn if not)
 15: 0x03E0 [0x45] LOAD_SCHEDULED_TASK: Load scheduler "fdi1" with entities [LocalPlayer, LocalPlayer], work=[200*, 0*]
 16: 0x03F1 [0x55] WAIT_LOAD_SCHEDULER: Wait for scheduler "fdi1" with entities [LocalPlayer, LocalPlayer], work=200*
 17: 0x0400 [0x1D] PRINT_EVENT_MESSAGE(message_id=6915*)
    → "Look what this bugger had in his belly! $1! Here's the money for the fish, and here's your $1. Good work!"
 18: 0x0403 [0x1E] EventEntity looks at LocalPlayer and starts talking
 19: 0x0408 [0x6F] WAIT_FRAME_DELAY: Yield until WaitTime reaches zero
 20: 0x0409 [0x70] WAIT_ENTITY_RENDER_FLAG: Wait while EventEntity->Render.Flags3 bit 2 is set (cancel turn if not)
 21: 0x040A [0x66] LOAD_EXT_SCHEDULER_MAIN: Load scheduler "pas0" with entities [EventEntity, EventEntity], work=60*
 22: 0x0419 [0x53] WAIT_SCHEDULER_TASK: Wait for scheduler "pas0" with entities [EventEntity, EventEntity]
 23: 0x0426 [0x23] WAIT_FOR_DIALOG_INTERACTION
 24: 0x0427 [0x03] Work_Zone[1] = 54*
 25: 0x042C [0x45] LOAD_SCHEDULED_TASK: Load scheduler "qstc" with entities [LocalPlayer, LocalPlayer], work=[201*, 0*]
 26: 0x043D [0x21] END_EVENT
 27: 0x043E [0x00] END_REQSTACK()
```

### Event 167

#### Metadata

| Field        | Value     |
|--------------|-----------|
| Entrypoint   | 0x043F    |
| Data Size    | 179 bytes |
| Instructions | 28        |

```
      00 01 02 03 04 05 06 07  08 09 0A 0B 0C 0D 0E 0F
      -- -- -- -- -- -- -- --  -- -- -- -- -- -- -- --
0430:                                               42                 B
0440: 20 01 1E F0 FF FF 7F 6F  70 66 01 80 F8 FF FF 7F   ......opf......
0450: F8 FF FF 7F 74 6C 6B 30  1D 24 80 23 53 F8 FF FF  ....tlk0.$.#S...
0460: 7F F8 FF FF 7F 74 6C 6B  30 5E 69 64 6C 30 39 0D  .....tlk0^idl09.
0470: 80 45 0E 80 F0 FF FF 7F  F0 FF FF 7F 66 64 6F 31  .E..........fdo1
0480: 02 80 55 0E 80 F0 FF FF  7F F0 FF FF 7F 66 64 6F  ..U..........fdo
0490: 31 6F 70 45 0E 80 F0 FF  FF 7F F0 FF FF 7F 66 64  1opE..........fd
04A0: 69 31 02 80 55 0E 80 F0  FF FF 7F F0 FF FF 7F 66  i1..U..........f
04B0: 64 69 31 1E F0 FF FF 7F  6F 70 66 01 80 F8 FF FF  di1.....opf.....
04C0: 7F F8 FF FF 7F 74 6C 6B  30 1D 28 80 23 53 F8 FF  .....tlk0.(.#S..
04D0: FF 7F F8 FF FF 7F 74 6C  6B 30 03 01 10 29 80 45  ......tlk0...).E
04E0: 27 80 F0 FF FF 7F F0 FF  FF 7F 71 73 74 63 02 80  '.........qstc..
04F0: 21 00                                             !.              
```

#### Opcodes

```
  0: 0x043F [0x42] SET_CLI_EVENT_CANCEL_DATA()
  1: 0x0440 [0x20] SET_CLI_EVENT_UC_FLAG: Lock player control
  2: 0x0442 [0x1E] EventEntity looks at LocalPlayer and starts talking
  3: 0x0447 [0x6F] WAIT_FRAME_DELAY: Yield until WaitTime reaches zero
  4: 0x0448 [0x70] WAIT_ENTITY_RENDER_FLAG: Wait while EventEntity->Render.Flags3 bit 2 is set (cancel turn if not)
  5: 0x0449 [0x66] LOAD_EXT_SCHEDULER_MAIN: Load scheduler "tlk0" with entities [EventEntity, EventEntity], work=60*
  6: 0x0458 [0x1D] PRINT_EVENT_MESSAGE(message_id=6913*)
    → "You caught one, eh? Hold on a minute, I'll gut it and see."
  7: 0x045B [0x23] WAIT_FOR_DIALOG_INTERACTION
  8: 0x045C [0x53] WAIT_SCHEDULER_TASK: Wait for scheduler "tlk0" with entities [EventEntity, EventEntity]
  9: 0x0469 [0x5E] EventEntity goes idle (kills current action) (animation: "idl0")
 10: 0x046E [0x39] SET_ENTITY_DIRECTION(direction=0.5°*)
 11: 0x0471 [0x45] LOAD_SCHEDULED_TASK: Load scheduler "fdo1" with entities [LocalPlayer, LocalPlayer], work=[200*, 0*]
 12: 0x0482 [0x55] WAIT_LOAD_SCHEDULER: Wait for scheduler "fdo1" with entities [LocalPlayer, LocalPlayer], work=200*
 13: 0x0491 [0x6F] WAIT_FRAME_DELAY: Yield until WaitTime reaches zero
 14: 0x0492 [0x70] WAIT_ENTITY_RENDER_FLAG: Wait while EventEntity->Render.Flags3 bit 2 is set (cancel turn if not)
 15: 0x0493 [0x45] LOAD_SCHEDULED_TASK: Load scheduler "fdi1" with entities [LocalPlayer, LocalPlayer], work=[200*, 0*]
 16: 0x04A4 [0x55] WAIT_LOAD_SCHEDULER: Wait for scheduler "fdi1" with entities [LocalPlayer, LocalPlayer], work=200*
 17: 0x04B3 [0x1E] EventEntity looks at LocalPlayer and starts talking
 18: 0x04B8 [0x6F] WAIT_FRAME_DELAY: Yield until WaitTime reaches zero
 19: 0x04B9 [0x70] WAIT_ENTITY_RENDER_FLAG: Wait while EventEntity->Render.Flags3 bit 2 is set (cancel turn if not)
 20: 0x04BA [0x66] LOAD_EXT_SCHEDULER_MAIN: Load scheduler "tlk0" with entities [EventEntity, EventEntity], work=60*
 21: 0x04C9 [0x1D] PRINT_EVENT_MESSAGE(message_id=6914*)
    → "Hmm... Nope, nothing in here. Keep trying, [pal/lady]. I'm sure you'll get lucky soon."
 22: 0x04CC [0x23] WAIT_FOR_DIALOG_INTERACTION
 23: 0x04CD [0x53] WAIT_SCHEDULER_TASK: Wait for scheduler "tlk0" with entities [EventEntity, EventEntity]
 24: 0x04DA [0x03] Work_Zone[1] = 55*
 25: 0x04DF [0x45] LOAD_SCHEDULED_TASK: Load scheduler "qstc" with entities [LocalPlayer, LocalPlayer], work=[201*, 0*]
 26: 0x04F0 [0x21] END_EVENT
 27: 0x04F1 [0x00] END_REQSTACK()
```

### Event 85

#### Metadata

| Field        | Value     |
|--------------|-----------|
| Entrypoint   | 0x04F2    |
| Data Size    | 166 bytes |
| Instructions | 29        |

```
      00 01 02 03 04 05 06 07  08 09 0A 0B 0C 0D 0E 0F
      -- -- -- -- -- -- -- --  -- -- -- -- -- -- -- --
04F0:       42 20 01 1E F0 FF  FF 7F 6F 70 66 01 80 F8    B ......opf...
0500: FF FF 7F F8 FF FF 7F 74  6C 6B 30 1D 2A 80 23 1D  .......tlk0.*.#.
0510: 2B 80 23 53 F8 FF FF 7F  F8 FF FF 7F 74 6C 6B 30  +.#S........tlk0
0520: 5E 69 64 6C 30 39 0D 80  45 0E 80 F0 FF FF 7F F0  ^idl09..E.......
0530: FF FF 7F 66 64 6F 31 02  80 55 0E 80 F0 FF FF 7F  ...fdo1..U......
0540: F0 FF FF 7F 66 64 6F 31  6F 70 45 0E 80 F0 FF FF  ....fdo1opE.....
0550: 7F F0 FF FF 7F 66 64 69  31 02 80 55 0E 80 F0 FF  .....fdi1..U....
0560: FF 7F F0 FF FF 7F 66 64  69 31 1E F0 FF FF 7F 6F  ......fdi1.....o
0570: 70 66 01 80 F8 FF FF 7F  F8 FF FF 7F 74 6C 6B 30  pf..........tlk0
0580: 03 02 10 2C 80 1D 2D 80  23 53 F8 FF FF 7F F8 FF  ...,..-.#S......
0590: FF 7F 74 6C 6B 30 21 00                           ..tlk0!.        
```

#### Opcodes

```
  0: 0x04F2 [0x42] SET_CLI_EVENT_CANCEL_DATA()
  1: 0x04F3 [0x20] SET_CLI_EVENT_UC_FLAG: Lock player control
  2: 0x04F5 [0x1E] EventEntity looks at LocalPlayer and starts talking
  3: 0x04FA [0x6F] WAIT_FRAME_DELAY: Yield until WaitTime reaches zero
  4: 0x04FB [0x70] WAIT_ENTITY_RENDER_FLAG: Wait while EventEntity->Render.Flags3 bit 2 is set (cancel turn if not)
  5: 0x04FC [0x66] LOAD_EXT_SCHEDULER_MAIN: Load scheduler "tlk0" with entities [EventEntity, EventEntity], work=60*
  6: 0x050B [0x1D] PRINT_EVENT_MESSAGE(message_id=7300*)
    → "What, you want me to dress a big fish you caught? You make it sound huge. Well, let's have a look!"
  7: 0x050E [0x23] WAIT_FOR_DIALOG_INTERACTION
  8: 0x050F [0x1D] PRINT_EVENT_MESSAGE(message_id=7301*)
    → "Goodness! This is a big one! I can't wait to see what's in here. Give me just a moment..."
  9: 0x0512 [0x23] WAIT_FOR_DIALOG_INTERACTION
 10: 0x0513 [0x53] WAIT_SCHEDULER_TASK: Wait for scheduler "tlk0" with entities [EventEntity, EventEntity]
 11: 0x0520 [0x5E] EventEntity goes idle (kills current action) (animation: "idl0")
 12: 0x0525 [0x39] SET_ENTITY_DIRECTION(direction=0.5°*)
 13: 0x0528 [0x45] LOAD_SCHEDULED_TASK: Load scheduler "fdo1" with entities [LocalPlayer, LocalPlayer], work=[200*, 0*]
 14: 0x0539 [0x55] WAIT_LOAD_SCHEDULER: Wait for scheduler "fdo1" with entities [LocalPlayer, LocalPlayer], work=200*
 15: 0x0548 [0x6F] WAIT_FRAME_DELAY: Yield until WaitTime reaches zero
 16: 0x0549 [0x70] WAIT_ENTITY_RENDER_FLAG: Wait while EventEntity->Render.Flags3 bit 2 is set (cancel turn if not)
 17: 0x054A [0x45] LOAD_SCHEDULED_TASK: Load scheduler "fdi1" with entities [LocalPlayer, LocalPlayer], work=[200*, 0*]
 18: 0x055B [0x55] WAIT_LOAD_SCHEDULER: Wait for scheduler "fdi1" with entities [LocalPlayer, LocalPlayer], work=200*
 19: 0x056A [0x1E] EventEntity looks at LocalPlayer and starts talking
 20: 0x056F [0x6F] WAIT_FRAME_DELAY: Yield until WaitTime reaches zero
 21: 0x0570 [0x70] WAIT_ENTITY_RENDER_FLAG: Wait while EventEntity->Render.Flags3 bit 2 is set (cancel turn if not)
 22: 0x0571 [0x66] LOAD_EXT_SCHEDULER_MAIN: Load scheduler "tlk0" with entities [EventEntity, EventEntity], work=60*
 23: 0x0580 [0x03] Work_Zone[2] = 218*
 24: 0x0585 [0x1D] PRINT_EVENT_MESSAGE(message_id=7302*)
    → "Well, well! I found $6 inside! They're in poor shape, but I think they're quite a find!"
 25: 0x0588 [0x23] WAIT_FOR_DIALOG_INTERACTION
 26: 0x0589 [0x53] WAIT_SCHEDULER_TASK: Wait for scheduler "tlk0" with entities [EventEntity, EventEntity]
 27: 0x0596 [0x21] END_EVENT
 28: 0x0597 [0x00] END_REQSTACK()
```
