# 17793046 - Yaya

## Common Data

| Field            | Value             |
|------------------|-------------------|
| Zone             | Selbina (ID: 248) |
| Block Size       | 416 bytes         |
| Total Events     | 3                 |
| References Count | 11                |

## List of Events

| Event ID              | Entrypoint   |   Size |   Instructions |
|-----------------------|--------------|--------|----------------|
| [65535](#event-65535) | 0x0000       |      1 |              1 |
| [153](#event-153)     | 0x0001       |     74 |             19 |
| [31](#event-31)       | 0x004B       |    268 |             29 |

## DAT References (imed_data)

|   Index | Hex Value   |   Dec Value |
|---------|-------------|-------------|
|       0 | 0x0002      |           2 |
|       1 | 0x0046      |          70 |
|       2 | 0x0000      |           0 |
|       3 | 0x1A41      |        6721 |
|       4 | 0x0001      |           1 |
|       5 | 0x1B4F      |        6991 |
|       6 | 0x1B50      |        6992 |
|       7 | 0x00C8      |         200 |
|       8 | 0x0003      |           3 |
|       9 | 0x0094      |         148 |
|      10 | 0x0032      |          50 |

## String References

- **6721**: As you've no doubt discovered, this here village owes its life to the fish. Bless their hearts...
- **6991**: Our town is equally far from all the great nations. You can go to Bastok, you can go to San d'Oria--all roads are just as risky.
- **6992**: My husband's out fishing. Lots of good fish bite here.

## Events

### Event 65535

#### Metadata

| Field        | Value   |
|--------------|---------|
| Entrypoint   | 0x0000  |
| Data Size    | 1 bytes |
| Instructions | 1       |

```
      00 01 02 03 04 05 06 07  08 09 0A 0B 0C 0D 0E 0F
      -- -- -- -- -- -- -- --  -- -- -- -- -- -- -- --
0000: 00                                                .               
```

#### Opcodes

```
  0: 0x0000 [0x00] END_REQSTACK()
```

### Event 153

#### Metadata

| Field        | Value    |
|--------------|----------|
| Entrypoint   | 0x0001   |
| Data Size    | 74 bytes |
| Instructions | 19       |

```
      00 01 02 03 04 05 06 07  08 09 0A 0B 0C 0D 0E 0F
      -- -- -- -- -- -- -- --  -- -- -- -- -- -- -- --
0000:    1E F0 FF FF 7F 13 00  00 00 80 6F 70 5B 01 80   ..........op[..
0010: F8 FF FF 7F F8 FF FF 7F  74 6C 6B 30 02 00 00 02  ........tlk0....
0020: 80 80 2B 00 1D 03 80 23  01 49 00 02 00 00 04 80  ..+....#.I......
0030: 80 3A 00 1D 05 80 23 01  49 00 02 00 00 00 80 80  .:....#.I.......
0040: 49 00 1D 06 80 23 01 49  00 21 00                 I....#.I.!.     
```

#### Opcodes

```
  0: 0x0001 [0x1E] EventEntity looks at LocalPlayer and starts talking
  1: 0x0006 [0x13] ExtData[1]->WorkLocal[0] = rand() % 2*
  2: 0x000B [0x6F] WAIT_FRAME_DELAY: Yield until WaitTime reaches zero
  3: 0x000C [0x70] WAIT_ENTITY_RENDER_FLAG: Wait while EventEntity->Render.Flags3 bit 2 is set (cancel turn if not)
  4: 0x000D [0x5B] LOAD_EXT_SCHEDULER: Load scheduler "tlk0" with entities [EventEntity, EventEntity], work=70*
  5: 0x001C [0x02] IF !(ExtData[1]->WorkLocal[0] == 0*) GOTO 0x002B
  6: 0x0024 [0x1D] PRINT_EVENT_MESSAGE(message_id=6721*)
    → "As you've no doubt discovered, this here village owes its life to the fish. Bless their hearts..."
  7: 0x0027 [0x23] WAIT_FOR_DIALOG_INTERACTION
  8: 0x0028 [0x01] GOTO 0x0049
  9: 0x002B [0x02] IF !(ExtData[1]->WorkLocal[0] == 1*) GOTO 0x003A
 10: 0x0033 [0x1D] PRINT_EVENT_MESSAGE(message_id=6991*)
    → "Our town is equally far from all the great nations. You can go to Bastok, you can go to San d'Oria--all roads are just as risky."
 11: 0x0036 [0x23] WAIT_FOR_DIALOG_INTERACTION
 12: 0x0037 [0x01] GOTO 0x0049
 13: 0x003A [0x02] IF !(ExtData[1]->WorkLocal[0] == 2*) GOTO 0x0049
 14: 0x0042 [0x1D] PRINT_EVENT_MESSAGE(message_id=6992*)
    → "My husband's out fishing. Lots of good fish bite here."
 15: 0x0045 [0x23] WAIT_FOR_DIALOG_INTERACTION
 16: 0x0046 [0x01] GOTO 0x0049

SUBROUTINE_0049:
 17: 0x0049 [0x21] END_EVENT
 18: 0x004A [0x00] END_REQSTACK()
```

### Event 31

#### Metadata

| Field        | Value     |
|--------------|-----------|
| Entrypoint   | 0x004B    |
| Data Size    | 268 bytes |
| Instructions | 29        |

```
      00 01 02 03 04 05 06 07  08 09 0A 0B 0C 0D 0E 0F
      -- -- -- -- -- -- -- --  -- -- -- -- -- -- -- --
0040:                                   42 45 07 80 F0             BE...
0050: FF FF 7F F0 FF FF 7F 66  64 6F 30 02 80 55 07 80  .......fdo0..U..
0060: F0 FF FF 7F F0 FF FF 7F  66 64 6F 30 46 01 38 08  ........fdo0F.8.
0070: 80 29 0A F0 FF FF 7F 15  45 09 80 F0 FF FF 7F F0  .)......E.......
0080: FF FF 7F 73 30 30 31 02  80 45 07 80 F0 FF FF 7F  ...s001..E......
0090: F0 FF FF 7F 66 64 69 30  02 80 1E F0 FF FF 7F 6F  ....fdi0.......o
00A0: 70 5B 01 80 F8 FF FF 7F  F8 FF FF 7F 74 6C 6B 30  p[..........tlk0
00B0: 1D 03 80 23 45 07 80 F0  FF FF 7F F0 FF FF 7F 66  ...#E..........f
00C0: 64 6F 31 02 80 55 07 80  F0 FF FF 7F F0 FF FF 7F  do1..U..........
00D0: 66 64 6F 31 46 01 45 09  80 F0 FF FF 7F F0 FF FF  fdo1F.E.........
00E0: 7F 73 65 30 34 02 80 45  07 80 F0 FF FF 7F F0 FF  .se04..E........
00F0: FF 7F 66 64 69 31 02 80  55 07 80 F0 FF FF 7F F0  ..fdi1..U.......
0100: FF FF 7F 66 64 69 31 29  80 15 80 0F 01 03 55 09  ...fdi1)......U.
0110: 80 F0 FF FF 7F F0 FF FF  7F 73 65 30 34 45 07 80  .........se04E..
0120: F0 FF FF 7F F0 FF FF 7F  66 64 6F 31 02 80 55 07  ........fdo1..U.
0130: 80 F0 FF FF 7F F0 FF FF  7F 66 64 6F 31 46 00 45  .........fdo1F.E
0140: 07 80 F0 FF FF 7F F0 FF  FF 7F 66 64 69 31 02 80  ..........fdi1..
0150: 03 01 10 0A 80 21 00                              .....!.         
```

#### Opcodes

```
  0: 0x004B [0x42] SET_CLI_EVENT_CANCEL_DATA()
  1: 0x004C [0x45] LOAD_SCHEDULED_TASK: Load scheduler "fdo0" with entities [LocalPlayer, LocalPlayer], work=[200*, 0*]
  2: 0x005D [0x55] WAIT_LOAD_SCHEDULER: Wait for scheduler "fdo0" with entities [LocalPlayer, LocalPlayer], work=200*
  3: 0x006C [0x46] CAMERA_CONTROL: Disable user control
  4: 0x006E [0x38] SET_CLIENT_EVENT_MODE(mode=3*)
  5: 0x0071 [0x29] REQ_SET_WAIT(priority=0x0A, entity_id=LocalPlayer, tag_num=0x15)
  6: 0x0078 [0x45] LOAD_SCHEDULED_TASK: Load scheduler "s001" with entities [LocalPlayer, LocalPlayer], work=[148*, 0*]
  7: 0x0089 [0x45] LOAD_SCHEDULED_TASK: Load scheduler "fdi0" with entities [LocalPlayer, LocalPlayer], work=[200*, 0*]
  8: 0x009A [0x1E] EventEntity looks at LocalPlayer and starts talking
  9: 0x009F [0x6F] WAIT_FRAME_DELAY: Yield until WaitTime reaches zero
 10: 0x00A0 [0x70] WAIT_ENTITY_RENDER_FLAG: Wait while EventEntity->Render.Flags3 bit 2 is set (cancel turn if not)
 11: 0x00A1 [0x5B] LOAD_EXT_SCHEDULER: Load scheduler "tlk0" with entities [EventEntity, EventEntity], work=70*
 12: 0x00B0 [0x1D] PRINT_EVENT_MESSAGE(message_id=6721*)
    → "As you've no doubt discovered, this here village owes its life to the fish. Bless their hearts..."
 13: 0x00B3 [0x23] WAIT_FOR_DIALOG_INTERACTION
 14: 0x00B4 [0x45] LOAD_SCHEDULED_TASK: Load scheduler "fdo1" with entities [LocalPlayer, LocalPlayer], work=[200*, 0*]
 15: 0x00C5 [0x55] WAIT_LOAD_SCHEDULER: Wait for scheduler "fdo1" with entities [LocalPlayer, LocalPlayer], work=200*
 16: 0x00D4 [0x46] CAMERA_CONTROL: Disable user control
 17: 0x00D6 [0x45] LOAD_SCHEDULED_TASK: Load scheduler "se04" with entities [LocalPlayer, LocalPlayer], work=[148*, 0*]
 18: 0x00E7 [0x45] LOAD_SCHEDULED_TASK: Load scheduler "fdi1" with entities [LocalPlayer, LocalPlayer], work=[200*, 0*]
 19: 0x00F8 [0x55] WAIT_LOAD_SCHEDULER: Wait for scheduler "fdi1" with entities [LocalPlayer, LocalPlayer], work=200*
 20: 0x0107 [0x29] REQ_SET_WAIT(priority=0x80, entity_id=Jimaida (ID: 17793045/0x010F8015), tag_num=0x03)
 21: 0x010E [0x55] WAIT_LOAD_SCHEDULER: Wait for scheduler "se04" with entities [LocalPlayer, LocalPlayer], work=148*
 22: 0x011D [0x45] LOAD_SCHEDULED_TASK: Load scheduler "fdo1" with entities [LocalPlayer, LocalPlayer], work=[200*, 0*]
 23: 0x012E [0x55] WAIT_LOAD_SCHEDULER: Wait for scheduler "fdo1" with entities [LocalPlayer, LocalPlayer], work=200*
 24: 0x013D [0x46] CAMERA_CONTROL: Restore default settings
 25: 0x013F [0x45] LOAD_SCHEDULED_TASK: Load scheduler "fdi1" with entities [LocalPlayer, LocalPlayer], work=[200*, 0*]
 26: 0x0150 [0x03] Work_Zone[1] = 50*
 27: 0x0155 [0x21] END_EVENT
 28: 0x0156 [0x00] END_REQSTACK()
```
