# 17793145 - Sylvie

## Common Data

| Field            | Value             |
|------------------|-------------------|
| Zone             | Selbina (ID: 248) |
| Block Size       | 832 bytes         |
| Total Events     | 24                |
| References Count | 23                |

## List of Events

| Event ID                   | Entrypoint   |   Size |   Instructions |
|----------------------------|--------------|--------|----------------|
| [65535](#event-65535)      | 0x0000       |      1 |              1 |
| [10024](#event-10024)      | 0x0001       |      1 |              1 |
| [65535.1](#event-655351)   | 0x0002       |     33 |              3 |
| [65535.2](#event-655352)   | 0x0023       |     33 |              3 |
| [65535.3](#event-655353)   | 0x0044       |     33 |              3 |
| [65535.4](#event-655354)   | 0x0065       |     33 |              3 |
| [65535.5](#event-655355)   | 0x0086       |     33 |              3 |
| [65535.6](#event-655356)   | 0x00A7       |     33 |              3 |
| [65535.7](#event-655357)   | 0x00C8       |     33 |              3 |
| [65535.8](#event-655358)   | 0x00E9       |     33 |              3 |
| [65535.9](#event-655359)   | 0x010A       |     33 |              3 |
| [65535.10](#event-6553510) | 0x012B       |     33 |              3 |
| [65535.11](#event-6553511) | 0x014C       |     29 |              3 |
| [65535.12](#event-6553512) | 0x0169       |     33 |              3 |
| [65535.13](#event-6553513) | 0x018A       |     33 |              3 |
| [65535.14](#event-6553514) | 0x01AB       |     33 |              3 |
| [65535.15](#event-6553515) | 0x01CC       |     33 |              3 |
| [65535.16](#event-6553516) | 0x01ED       |     33 |              3 |
| [65535.17](#event-6553517) | 0x020E       |     16 |              4 |
| [65535.18](#event-6553518) | 0x021E       |     16 |              4 |
| [65535.19](#event-6553519) | 0x022E       |     16 |              4 |
| [65535.20](#event-6553520) | 0x023E       |     16 |              4 |
| [65535.21](#event-6553521) | 0x024E       |     15 |              5 |
| [65535.22](#event-6553522) | 0x025D       |     21 |              7 |

## DAT References (imed_data)

|   Index | Hex Value   |   Dec Value |
|---------|-------------|-------------|
|       0 | 0x009F      |         159 |
|       1 | 0x0050      |          80 |
|       2 | 0x0057      |          87 |
|       3 | 0x009E      |         158 |
|       4 | 0x0070      |         112 |
|       5 | 0x0064      |         100 |
|       6 | 0x0077      |         119 |
|       7 | 0x009D      |         157 |
|       8 | 0x006F      |         111 |
|       9 | 0x0013      |          19 |
|      10 | 0x0007      |           7 |
|      11 | 0x003C      |          60 |
|      12 | 0x0096      |         150 |
|      13 | 0x000B      |          11 |
|      14 | 0x0001      |           1 |
|      15 | 0x0028      |          40 |
|      16 | 0x54FD      |       21757 |
|      17 | 0x1E04      |        7684 |
|      18 | 0xFFFFE389  |  4294960009 |
|      19 | 0x000D      |          13 |
|      20 | 0x4AE1      |       19169 |
|      21 | 0x1E08      |        7688 |
|      22 | 0xFFFFE357  |  4294959959 |

## Events

### Event 65535

#### Metadata

| Field        | Value   |
|--------------|---------|
| Entrypoint   | 0x0000  |
| Data Size    | 1 bytes |
| Instructions | 1       |

```
      00 01 02 03 04 05 06 07  08 09 0A 0B 0C 0D 0E 0F
      -- -- -- -- -- -- -- --  -- -- -- -- -- -- -- --
0000: 00                                                .               
```

#### Opcodes

```
  0: 0x0000 [0x00] END_REQSTACK()
```

### Event 10024

#### Metadata

| Field        | Value   |
|--------------|---------|
| Entrypoint   | 0x0001  |
| Data Size    | 1 bytes |
| Instructions | 1       |

```
      00 01 02 03 04 05 06 07  08 09 0A 0B 0C 0D 0E 0F
      -- -- -- -- -- -- -- --  -- -- -- -- -- -- -- --
0000:    00                                              .              
```

#### Opcodes

```
  0: 0x0001 [0x00] END_REQSTACK()
```

### Event 65535.1

#### Metadata

| Field        | Value    |
|--------------|----------|
| Entrypoint   | 0x0002   |
| Data Size    | 33 bytes |
| Instructions | 3        |

```
      00 01 02 03 04 05 06 07  08 09 0A 0B 0C 0D 0E 0F
      -- -- -- -- -- -- -- --  -- -- -- -- -- -- -- --
0000:       5F 06 00 80 F8 FF  FF 7F F8 FF FF 7F 74 6C    _...........tl
0010: 6B 30 01 80 5F 07 F8 FF  FF 7F F8 FF FF 7F 74 6C  k0.._.........tl
0020: 6B 30 00                                          k0.             
```

#### Opcodes

```
  0: 0x0002 [0x5F] MULTI_HANDLER_COMPLEX(mode=0x06 - Load ext scheduler with flag (OpCode 0x5B mode 1, flag 1), ref=159*, entity1=EventEntity, entity2=EventEntity, string="tlk0", extra=80*)
  1: 0x0014 [0x5F] MULTI_HANDLER_COMPLEX(mode=0x07 - Wait scheduler task (OpCode 0x53))
  2: 0x0022 [0x00] END_REQSTACK()
```

### Event 65535.2

#### Metadata

| Field        | Value    |
|--------------|----------|
| Entrypoint   | 0x0023   |
| Data Size    | 33 bytes |
| Instructions | 3        |

```
      00 01 02 03 04 05 06 07  08 09 0A 0B 0C 0D 0E 0F
      -- -- -- -- -- -- -- --  -- -- -- -- -- -- -- --
0020:          5F 06 00 80 F8  FF FF 7F F8 FF FF 7F 74     _...........t
0030: 6C 6B 31 02 80 5F 07 F8  FF FF 7F F8 FF FF 7F 74  lk1.._.........t
0040: 6C 6B 31 00                                       lk1.            
```

#### Opcodes

```
  0: 0x0023 [0x5F] MULTI_HANDLER_COMPLEX(mode=0x06 - Load ext scheduler with flag (OpCode 0x5B mode 1, flag 1), ref=159*, entity1=EventEntity, entity2=EventEntity, string="tlk1", extra=87*)
  1: 0x0035 [0x5F] MULTI_HANDLER_COMPLEX(mode=0x07 - Wait scheduler task (OpCode 0x53))
  2: 0x0043 [0x00] END_REQSTACK()
```

### Event 65535.3

#### Metadata

| Field        | Value    |
|--------------|----------|
| Entrypoint   | 0x0044   |
| Data Size    | 33 bytes |
| Instructions | 3        |

```
      00 01 02 03 04 05 06 07  08 09 0A 0B 0C 0D 0E 0F
      -- -- -- -- -- -- -- --  -- -- -- -- -- -- -- --
0040:             5F 06 03 80  F8 FF FF 7F F8 FF FF 7F      _...........
0050: 74 6C 6B 30 01 80 5F 07  F8 FF FF 7F F8 FF FF 7F  tlk0.._.........
0060: 74 6C 6B 30 00                                    tlk0.           
```

#### Opcodes

```
  0: 0x0044 [0x5F] MULTI_HANDLER_COMPLEX(mode=0x06 - Load ext scheduler with flag (OpCode 0x5B mode 1, flag 1), ref=158*, entity1=EventEntity, entity2=EventEntity, string="tlk0", extra=80*)
  1: 0x0056 [0x5F] MULTI_HANDLER_COMPLEX(mode=0x07 - Wait scheduler task (OpCode 0x53))
  2: 0x0064 [0x00] END_REQSTACK()
```

### Event 65535.4

#### Metadata

| Field        | Value    |
|--------------|----------|
| Entrypoint   | 0x0065   |
| Data Size    | 33 bytes |
| Instructions | 3        |

```
      00 01 02 03 04 05 06 07  08 09 0A 0B 0C 0D 0E 0F
      -- -- -- -- -- -- -- --  -- -- -- -- -- -- -- --
0060:                5F 06 03  80 F8 FF FF 7F F8 FF FF       _..........
0070: 7F 74 6C 6B 31 04 80 5F  07 F8 FF FF 7F F8 FF FF  .tlk1.._........
0080: 7F 74 6C 6B 31 00                                 .tlk1.          
```

#### Opcodes

```
  0: 0x0065 [0x5F] MULTI_HANDLER_COMPLEX(mode=0x06 - Load ext scheduler with flag (OpCode 0x5B mode 1, flag 1), ref=158*, entity1=EventEntity, entity2=EventEntity, string="tlk1", extra=112*)
  1: 0x0077 [0x5F] MULTI_HANDLER_COMPLEX(mode=0x07 - Wait scheduler task (OpCode 0x53))
  2: 0x0085 [0x00] END_REQSTACK()
```

### Event 65535.5

#### Metadata

| Field        | Value    |
|--------------|----------|
| Entrypoint   | 0x0086   |
| Data Size    | 33 bytes |
| Instructions | 3        |

```
      00 01 02 03 04 05 06 07  08 09 0A 0B 0C 0D 0E 0F
      -- -- -- -- -- -- -- --  -- -- -- -- -- -- -- --
0080:                   5F 06  03 80 F8 FF FF 7F F8 FF        _.........
0090: FF 7F 74 6C 6B 32 05 80  5F 07 F8 FF FF 7F F8 FF  ..tlk2.._.......
00A0: FF 7F 74 6C 6B 32 00                              ..tlk2.         
```

#### Opcodes

```
  0: 0x0086 [0x5F] MULTI_HANDLER_COMPLEX(mode=0x06 - Load ext scheduler with flag (OpCode 0x5B mode 1, flag 1), ref=158*, entity1=EventEntity, entity2=EventEntity, string="tlk2", extra=100*)
  1: 0x0098 [0x5F] MULTI_HANDLER_COMPLEX(mode=0x07 - Wait scheduler task (OpCode 0x53))
  2: 0x00A6 [0x00] END_REQSTACK()
```

### Event 65535.6

#### Metadata

| Field        | Value    |
|--------------|----------|
| Entrypoint   | 0x00A7   |
| Data Size    | 33 bytes |
| Instructions | 3        |

```
      00 01 02 03 04 05 06 07  08 09 0A 0B 0C 0D 0E 0F
      -- -- -- -- -- -- -- --  -- -- -- -- -- -- -- --
00A0:                      5F  06 03 80 F8 FF FF 7F F8         _........
00B0: FF FF 7F 74 6C 61 30 01  80 5F 07 F8 FF FF 7F F8  ...tla0.._......
00C0: FF FF 7F 74 6C 61 30 00                           ...tla0.        
```

#### Opcodes

```
  0: 0x00A7 [0x5F] MULTI_HANDLER_COMPLEX(mode=0x06 - Load ext scheduler with flag (OpCode 0x5B mode 1, flag 1), ref=158*, entity1=EventEntity, entity2=EventEntity, string="tla0", extra=80*)
  1: 0x00B9 [0x5F] MULTI_HANDLER_COMPLEX(mode=0x07 - Wait scheduler task (OpCode 0x53))
  2: 0x00C7 [0x00] END_REQSTACK()
```

### Event 65535.7

#### Metadata

| Field        | Value    |
|--------------|----------|
| Entrypoint   | 0x00C8   |
| Data Size    | 33 bytes |
| Instructions | 3        |

```
      00 01 02 03 04 05 06 07  08 09 0A 0B 0C 0D 0E 0F
      -- -- -- -- -- -- -- --  -- -- -- -- -- -- -- --
00C0:                          5F 06 03 80 F8 FF FF 7F          _.......
00D0: F8 FF FF 7F 74 6C 61 31  04 80 5F 07 F8 FF FF 7F  ....tla1.._.....
00E0: F8 FF FF 7F 74 6C 61 31  00                       ....tla1.       
```

#### Opcodes

```
  0: 0x00C8 [0x5F] MULTI_HANDLER_COMPLEX(mode=0x06 - Load ext scheduler with flag (OpCode 0x5B mode 1, flag 1), ref=158*, entity1=EventEntity, entity2=EventEntity, string="tla1", extra=112*)
  1: 0x00DA [0x5F] MULTI_HANDLER_COMPLEX(mode=0x07 - Wait scheduler task (OpCode 0x53))
  2: 0x00E8 [0x00] END_REQSTACK()
```

### Event 65535.8

#### Metadata

| Field        | Value    |
|--------------|----------|
| Entrypoint   | 0x00E9   |
| Data Size    | 33 bytes |
| Instructions | 3        |

```
      00 01 02 03 04 05 06 07  08 09 0A 0B 0C 0D 0E 0F
      -- -- -- -- -- -- -- --  -- -- -- -- -- -- -- --
00E0:                             5F 06 03 80 F8 FF FF           _......
00F0: 7F F8 FF FF 7F 74 6C 61  32 06 80 5F 07 F8 FF FF  .....tla2.._....
0100: 7F F8 FF FF 7F 74 6C 61  32 00                    .....tla2.      
```

#### Opcodes

```
  0: 0x00E9 [0x5F] MULTI_HANDLER_COMPLEX(mode=0x06 - Load ext scheduler with flag (OpCode 0x5B mode 1, flag 1), ref=158*, entity1=EventEntity, entity2=EventEntity, string="tla2", extra=119*)
  1: 0x00FB [0x5F] MULTI_HANDLER_COMPLEX(mode=0x07 - Wait scheduler task (OpCode 0x53))
  2: 0x0109 [0x00] END_REQSTACK()
```

### Event 65535.9

#### Metadata

| Field        | Value    |
|--------------|----------|
| Entrypoint   | 0x010A   |
| Data Size    | 33 bytes |
| Instructions | 3        |

```
      00 01 02 03 04 05 06 07  08 09 0A 0B 0C 0D 0E 0F
      -- -- -- -- -- -- -- --  -- -- -- -- -- -- -- --
0100:                                5F 06 07 80 F8 FF            _.....
0110: FF 7F F8 FF FF 7F 63 72  79 30 05 80 5F 07 F8 FF  ......cry0.._...
0120: FF 7F F8 FF FF 7F 63 72  79 30 00                 ......cry0.     
```

#### Opcodes

```
  0: 0x010A [0x5F] MULTI_HANDLER_COMPLEX(mode=0x06 - Load ext scheduler with flag (OpCode 0x5B mode 1, flag 1), ref=157*, entity1=EventEntity, entity2=EventEntity, string="cry0", extra=100*)
  1: 0x011C [0x5F] MULTI_HANDLER_COMPLEX(mode=0x07 - Wait scheduler task (OpCode 0x53))
  2: 0x012A [0x00] END_REQSTACK()
```

### Event 65535.10

#### Metadata

| Field        | Value    |
|--------------|----------|
| Entrypoint   | 0x012B   |
| Data Size    | 33 bytes |
| Instructions | 3        |

```
      00 01 02 03 04 05 06 07  08 09 0A 0B 0C 0D 0E 0F
      -- -- -- -- -- -- -- --  -- -- -- -- -- -- -- --
0120:                                   5F 06 07 80 F8             _....
0130: FF FF 7F F8 FF FF 7F 63  72 79 31 08 80 5F 07 F8  .......cry1.._..
0140: FF FF 7F F8 FF FF 7F 63  72 79 31 00              .......cry1.    
```

#### Opcodes

```
  0: 0x012B [0x5F] MULTI_HANDLER_COMPLEX(mode=0x06 - Load ext scheduler with flag (OpCode 0x5B mode 1, flag 1), ref=157*, entity1=EventEntity, entity2=EventEntity, string="cry1", extra=111*)
  1: 0x013D [0x5F] MULTI_HANDLER_COMPLEX(mode=0x07 - Wait scheduler task (OpCode 0x53))
  2: 0x014B [0x00] END_REQSTACK()
```

### Event 65535.11

#### Metadata

| Field        | Value    |
|--------------|----------|
| Entrypoint   | 0x014C   |
| Data Size    | 29 bytes |
| Instructions | 3        |

```
      00 01 02 03 04 05 06 07  08 09 0A 0B 0C 0D 0E 0F
      -- -- -- -- -- -- -- --  -- -- -- -- -- -- -- --
0140:                                      66 07 80 F8              f...
0150: FF FF 7F F8 FF FF 7F 73  61 64 30 53 F8 FF FF 7F  .......sad0S....
0160: F8 FF FF 7F 73 61 64 30  00                       ....sad0.       
```

#### Opcodes

```
  0: 0x014C [0x66] LOAD_EXT_SCHEDULER_MAIN: Load scheduler "sad0" with entities [EventEntity, EventEntity], work=157*
  1: 0x015B [0x53] WAIT_SCHEDULER_TASK: Wait for scheduler "sad0" with entities [EventEntity, EventEntity]
  2: 0x0168 [0x00] END_REQSTACK()
```

### Event 65535.12

#### Metadata

| Field        | Value    |
|--------------|----------|
| Entrypoint   | 0x0169   |
| Data Size    | 33 bytes |
| Instructions | 3        |

```
      00 01 02 03 04 05 06 07  08 09 0A 0B 0C 0D 0E 0F
      -- -- -- -- -- -- -- --  -- -- -- -- -- -- -- --
0160:                             5F 06 07 80 F8 FF FF           _......
0170: 7F F8 FF FF 7F 73 61 64  31 01 80 5F 07 F8 FF FF  .....sad1.._....
0180: 7F F8 FF FF 7F 73 61 64  31 00                    .....sad1.      
```

#### Opcodes

```
  0: 0x0169 [0x5F] MULTI_HANDLER_COMPLEX(mode=0x06 - Load ext scheduler with flag (OpCode 0x5B mode 1, flag 1), ref=157*, entity1=EventEntity, entity2=EventEntity, string="sad1", extra=80*)
  1: 0x017B [0x5F] MULTI_HANDLER_COMPLEX(mode=0x07 - Wait scheduler task (OpCode 0x53))
  2: 0x0189 [0x00] END_REQSTACK()
```

### Event 65535.13

#### Metadata

| Field        | Value    |
|--------------|----------|
| Entrypoint   | 0x018A   |
| Data Size    | 33 bytes |
| Instructions | 3        |

```
      00 01 02 03 04 05 06 07  08 09 0A 0B 0C 0D 0E 0F
      -- -- -- -- -- -- -- --  -- -- -- -- -- -- -- --
0180:                                5F 06 09 80 F8 FF            _.....
0190: FF 7F F8 FF FF 7F 74 68  6B 31 05 80 5F 07 F8 FF  ......thk1.._...
01A0: FF 7F F8 FF FF 7F 74 68  6B 31 00                 ......thk1.     
```

#### Opcodes

```
  0: 0x018A [0x5F] MULTI_HANDLER_COMPLEX(mode=0x06 - Load ext scheduler with flag (OpCode 0x5B mode 1, flag 1), ref=19*, entity1=EventEntity, entity2=EventEntity, string="thk1", extra=100*)
  1: 0x019C [0x5F] MULTI_HANDLER_COMPLEX(mode=0x07 - Wait scheduler task (OpCode 0x53))
  2: 0x01AA [0x00] END_REQSTACK()
```

### Event 65535.14

#### Metadata

| Field        | Value    |
|--------------|----------|
| Entrypoint   | 0x01AB   |
| Data Size    | 33 bytes |
| Instructions | 3        |

```
      00 01 02 03 04 05 06 07  08 09 0A 0B 0C 0D 0E 0F
      -- -- -- -- -- -- -- --  -- -- -- -- -- -- -- --
01A0:                                   5F 06 09 80 F8             _....
01B0: FF FF 7F F8 FF FF 7F 74  68 6B 32 05 80 5F 07 F8  .......thk2.._..
01C0: FF FF 7F F8 FF FF 7F 74  68 6B 32 00              .......thk2.    
```

#### Opcodes

```
  0: 0x01AB [0x5F] MULTI_HANDLER_COMPLEX(mode=0x06 - Load ext scheduler with flag (OpCode 0x5B mode 1, flag 1), ref=19*, entity1=EventEntity, entity2=EventEntity, string="thk2", extra=100*)
  1: 0x01BD [0x5F] MULTI_HANDLER_COMPLEX(mode=0x07 - Wait scheduler task (OpCode 0x53))
  2: 0x01CB [0x00] END_REQSTACK()
```

### Event 65535.15

#### Metadata

| Field        | Value    |
|--------------|----------|
| Entrypoint   | 0x01CC   |
| Data Size    | 33 bytes |
| Instructions | 3        |

```
      00 01 02 03 04 05 06 07  08 09 0A 0B 0C 0D 0E 0F
      -- -- -- -- -- -- -- --  -- -- -- -- -- -- -- --
01C0:                                      5F 06 09 80              _...
01D0: F8 FF FF 7F F8 FF FF 7F  74 6C 6B 30 05 80 5F 07  ........tlk0.._.
01E0: F8 FF FF 7F F8 FF FF 7F  74 6C 6B 30 00           ........tlk0.   
```

#### Opcodes

```
  0: 0x01CC [0x5F] MULTI_HANDLER_COMPLEX(mode=0x06 - Load ext scheduler with flag (OpCode 0x5B mode 1, flag 1), ref=19*, entity1=EventEntity, entity2=EventEntity, string="tlk0", extra=100*)
  1: 0x01DE [0x5F] MULTI_HANDLER_COMPLEX(mode=0x07 - Wait scheduler task (OpCode 0x53))
  2: 0x01EC [0x00] END_REQSTACK()
```

### Event 65535.16

#### Metadata

| Field        | Value    |
|--------------|----------|
| Entrypoint   | 0x01ED   |
| Data Size    | 33 bytes |
| Instructions | 3        |

```
      00 01 02 03 04 05 06 07  08 09 0A 0B 0C 0D 0E 0F
      -- -- -- -- -- -- -- --  -- -- -- -- -- -- -- --
01E0:                                         5F 06 09               _..
01F0: 80 F8 FF FF 7F F8 FF FF  7F 74 6C 6B 31 05 80 5F  .........tlk1.._
0200: 07 F8 FF FF 7F F8 FF FF  7F 74 6C 6B 31 00        .........tlk1.  
```

#### Opcodes

```
  0: 0x01ED [0x5F] MULTI_HANDLER_COMPLEX(mode=0x06 - Load ext scheduler with flag (OpCode 0x5B mode 1, flag 1), ref=19*, entity1=EventEntity, entity2=EventEntity, string="tlk1", extra=100*)
  1: 0x01FF [0x5F] MULTI_HANDLER_COMPLEX(mode=0x07 - Wait scheduler task (OpCode 0x53))
  2: 0x020D [0x00] END_REQSTACK()
```

### Event 65535.17

#### Metadata

| Field        | Value    |
|--------------|----------|
| Entrypoint   | 0x020E   |
| Data Size    | 16 bytes |
| Instructions | 4        |

```
      00 01 02 03 04 05 06 07  08 09 0A 0B 0C 0D 0E 0F
      -- -- -- -- -- -- -- --  -- -- -- -- -- -- -- --
0200:                                            6E F8                n.
0210: FF FF 7F 0A 80 99 F8 FF  FF 7F 1C 0B 80 00        ..............  
```

#### Opcodes

```
  0: 0x020E [0x6E] EventEntity uses emote 7*
  1: 0x0215 [0x99] Wait for EventEntity animation to complete
  2: 0x021A [0x1C] WAIT(60* ticks)
  3: 0x021D [0x00] END_REQSTACK()
```

### Event 65535.18

#### Metadata

| Field        | Value    |
|--------------|----------|
| Entrypoint   | 0x021E   |
| Data Size    | 16 bytes |
| Instructions | 4        |

```
      00 01 02 03 04 05 06 07  08 09 0A 0B 0C 0D 0E 0F
      -- -- -- -- -- -- -- --  -- -- -- -- -- -- -- --
0210:                                            6E F8                n.
0220: FF FF 7F 09 80 99 F8 FF  FF 7F 1C 0C 80 00        ..............  
```

#### Opcodes

```
  0: 0x021E [0x6E] EventEntity uses emote 19*
  1: 0x0225 [0x99] Wait for EventEntity animation to complete
  2: 0x022A [0x1C] WAIT(150* ticks)
  3: 0x022D [0x00] END_REQSTACK()
```

### Event 65535.19

#### Metadata

| Field        | Value    |
|--------------|----------|
| Entrypoint   | 0x022E   |
| Data Size    | 16 bytes |
| Instructions | 4        |

```
      00 01 02 03 04 05 06 07  08 09 0A 0B 0C 0D 0E 0F
      -- -- -- -- -- -- -- --  -- -- -- -- -- -- -- --
0220:                                            6E F8                n.
0230: FF FF 7F 0D 80 99 F8 FF  FF 7F 1C 0C 80 00        ..............  
```

#### Opcodes

```
  0: 0x022E [0x6E] EventEntity uses emote 11*
  1: 0x0235 [0x99] Wait for EventEntity animation to complete
  2: 0x023A [0x1C] WAIT(150* ticks)
  3: 0x023D [0x00] END_REQSTACK()
```

### Event 65535.20

#### Metadata

| Field        | Value    |
|--------------|----------|
| Entrypoint   | 0x023E   |
| Data Size    | 16 bytes |
| Instructions | 4        |

```
      00 01 02 03 04 05 06 07  08 09 0A 0B 0C 0D 0E 0F
      -- -- -- -- -- -- -- --  -- -- -- -- -- -- -- --
0230:                                            6E F8                n.
0240: FF FF 7F 0E 80 99 F8 FF  FF 7F 1C 0C 80 00        ..............  
```

#### Opcodes

```
  0: 0x023E [0x6E] EventEntity uses emote 1*
  1: 0x0245 [0x99] Wait for EventEntity animation to complete
  2: 0x024A [0x1C] WAIT(150* ticks)
  3: 0x024D [0x00] END_REQSTACK()
```

### Event 65535.21

#### Metadata

| Field        | Value    |
|--------------|----------|
| Entrypoint   | 0x024E   |
| Data Size    | 15 bytes |
| Instructions | 5        |

```
      00 01 02 03 04 05 06 07  08 09 0A 0B 0C 0D 0E 0F
      -- -- -- -- -- -- -- --  -- -- -- -- -- -- -- --
0240:                                            32 0F                2.
0250: 80 1F 00 10 80 11 80 12  80 1F 01 6F 00           ...........o.   
```

#### Opcodes

```
  0: 0x024E [0x32] ExtData[1]->MainSpeed = 40* * 0.1
  1: 0x0251 [0x1F] MOVE_ENTITY: EventEntity moves to X=21.757*, Z=7.684*, Y=-7.287*
  2: 0x0259 [0x1F] MOVE_ENTITY: Update entity position (mode=1)
  3: 0x025B [0x6F] WAIT_FRAME_DELAY: Yield until WaitTime reaches zero
  4: 0x025C [0x00] END_REQSTACK()
```

### Event 65535.22

#### Metadata

| Field        | Value    |
|--------------|----------|
| Entrypoint   | 0x025D   |
| Data Size    | 21 bytes |
| Instructions | 7        |

```
      00 01 02 03 04 05 06 07  08 09 0A 0B 0C 0D 0E 0F
      -- -- -- -- -- -- -- --  -- -- -- -- -- -- -- --
0250:                                         32 13 80               2..
0260: 5A 00 14 80 15 80 16 80  5A 01 1E F0 FF FF 7F 6F  Z.......Z......o
0270: 70 00                                             p.              
```

#### Opcodes

```
  0: 0x025D [0x32] ExtData[1]->MainSpeed = 13* * 0.1
  1: 0x0260 [0x5A] UPDATE_EVENT_POSITION: Set EventEntity MovePosition to X=19.169*, Z=7.688*, Y=-7.337*
  2: 0x0268 [0x5A] UPDATE_EVENT_POSITION: Move EventEntity incrementally towards MovePosition
  3: 0x026A [0x1E] EventEntity looks at LocalPlayer and starts talking
  4: 0x026F [0x6F] WAIT_FRAME_DELAY: Yield until WaitTime reaches zero
  5: 0x0270 [0x70] WAIT_ENTITY_RENDER_FLAG: Wait while EventEntity->Render.Flags3 bit 2 is set (cancel turn if not)
  6: 0x0271 [0x00] END_REQSTACK()
```
