# 17793029 - Manfried

## Common Data

| Field            | Value             |
|------------------|-------------------|
| Zone             | Selbina (ID: 248) |
| Block Size       | 488 bytes         |
| Total Events     | 2                 |
| References Count | 23                |

## List of Events

| Event ID              | Entrypoint   |   Size |   Instructions |
|-----------------------|--------------|--------|----------------|
| [65535](#event-65535) | 0x0000       |      1 |              1 |
| [15](#event-15)       | 0x0001       |    368 |             65 |

## DAT References (imed_data)

|   Index | Hex Value   |   Dec Value |
|---------|-------------|-------------|
|       0 | 0x000B      |          11 |
|       1 | 0x0000      |           0 |
|       2 | 0x1B61      |        7009 |
|       3 | 0x0001      |           1 |
|       4 | 0x1B62      |        7010 |
|       5 | 0x0002      |           2 |
|       6 | 0x1B63      |        7011 |
|       7 | 0x0003      |           3 |
|       8 | 0x1B64      |        7012 |
|       9 | 0x0004      |           4 |
|      10 | 0x1B65      |        7013 |
|      11 | 0x0005      |           5 |
|      12 | 0x1B66      |        7014 |
|      13 | 0x0006      |           6 |
|      14 | 0x1B67      |        7015 |
|      15 | 0x0007      |           7 |
|      16 | 0x1B68      |        7016 |
|      17 | 0x0008      |           8 |
|      18 | 0x1B69      |        7017 |
|      19 | 0x0009      |           9 |
|      20 | 0x1B6A      |        7018 |
|      21 | 0x000A      |          10 |
|      22 | 0x1B6B      |        7019 |

## String References

- **7009**: Have you visited the mayor's office yet? That Naillina knows so much about everything!
- **7010**: I've noticed an awfully suspicious-looking fellow visit town recently. Have you seen him?
- **7011**: Isacio used to be a knight a long time ago. I wonder what brought him here...
- **7012**: Zaldon has all kinds of tales to tell. But he's so stubborn your head will ache!
- **7013**: Gabwaleid actually knows a lot about fishing. He'll teach you whatever you need to know.
- **7014**: The inn's cook, Valgeir, whips up some fantastic dishes. I wish I had enough money to try one!
- **7015**: Mayor Abelard is more like a scientist than a politician. He's into some kind of research.
- **7016**: Vuntar's an earnest worker. Come to think of it, he's been working here as long as I can remember...
- **7017**: Melyon is so proud of his sheep, isn't he? He's thought up interesting names for them.
- **7018**: Romeo is always thinking up new ways to make money. And I think he's pretty good at it, too.
- **7019**: My name's Manfried and I'm a deputy along with Flandiace. Velema's our sergeant, and the three of us serve under Thunder Hawk.

## Events

### Event 65535

#### Metadata

| Field        | Value   |
|--------------|---------|
| Entrypoint   | 0x0000  |
| Data Size    | 1 bytes |
| Instructions | 1       |

```
      00 01 02 03 04 05 06 07  08 09 0A 0B 0C 0D 0E 0F
      -- -- -- -- -- -- -- --  -- -- -- -- -- -- -- --
0000: 00                                                .               
```

#### Opcodes

```
  0: 0x0000 [0x00] END_REQSTACK()
```

### Event 15

#### Metadata

| Field        | Value     |
|--------------|-----------|
| Entrypoint   | 0x0001    |
| Data Size    | 368 bytes |
| Instructions | 65        |

```
      00 01 02 03 04 05 06 07  08 09 0A 0B 0C 0D 0E 0F
      -- -- -- -- -- -- -- --  -- -- -- -- -- -- -- --
0000:    1E F0 FF FF 7F 12 00  00 3F 00 00 00 00 00 80   ........?......
0010: 6F 70 02 00 00 01 80 80  30 00 66 01 80 F8 FF FF  op......0.f.....
0020: 7F F8 FF FF 7F 74 6C 6B  30 1D 02 80 23 01 6F 01  .....tlk0...#.o.
0030: 02 00 00 03 80 80 4E 00  66 01 80 F8 FF FF 7F F8  ......N.f.......
0040: FF FF 7F 74 6C 6B 31 1D  04 80 23 01 6F 01 02 00  ...tlk1...#.o...
0050: 00 05 80 80 6C 00 66 01  80 F8 FF FF 7F F8 FF FF  ....l.f.........
0060: 7F 74 6C 6B 32 1D 06 80  23 01 6F 01 02 00 00 07  .tlk2...#.o.....
0070: 80 80 8A 00 66 01 80 F8  FF FF 7F F8 FF FF 7F 74  ....f..........t
0080: 6C 6B 32 1D 08 80 23 01  6F 01 02 00 00 09 80 80  lk2...#.o.......
0090: A8 00 66 01 80 F8 FF FF  7F F8 FF FF 7F 74 6C 6B  ..f..........tlk
00A0: 31 1D 0A 80 23 01 6F 01  02 00 00 0B 80 80 C6 00  1...#.o.........
00B0: 66 01 80 F8 FF FF 7F F8  FF FF 7F 74 6C 6B 30 1D  f..........tlk0.
00C0: 0C 80 23 01 6F 01 02 00  00 0D 80 80 E4 00 66 01  ..#.o.........f.
00D0: 80 F8 FF FF 7F F8 FF FF  7F 74 6C 6B 30 1D 0E 80  .........tlk0...
00E0: 23 01 6F 01 02 00 00 0F  80 80 02 01 66 01 80 F8  #.o.........f...
00F0: FF FF 7F F8 FF FF 7F 74  6C 6B 30 1D 10 80 23 01  .......tlk0...#.
0100: 6F 01 02 00 00 11 80 80  20 01 66 01 80 F8 FF FF  o....... .f.....
0110: 7F F8 FF FF 7F 74 6C 6B  30 1D 12 80 23 01 6F 01  .....tlk0...#.o.
0120: 02 00 00 13 80 80 3E 01  66 01 80 F8 FF FF 7F F8  ......>.f.......
0130: FF FF 7F 74 6C 6B 31 1D  14 80 23 01 6F 01 02 00  ...tlk1...#.o...
0140: 00 15 80 80 5C 01 66 01  80 F8 FF FF 7F F8 FF FF  ....\.f.........
0150: 7F 74 6C 6B 32 1D 16 80  23 01 6F 01 66 01 80 F8  .tlk2...#.o.f...
0160: FF FF 7F F8 FF FF 7F 74  6C 6B 32 1D 16 80 23 21  .......tlk2...#!
0170: 00                                                .               
```

#### Opcodes

```
  0: 0x0001 [0x1E] EventEntity looks at LocalPlayer and starts talking
  1: 0x0006 [0x12] ExtData[1]->WorkLocal[0] = rand()
  2: 0x0009 [0x3F] ExtData[1]->WorkLocal[0] = ExtData[1]->WorkLocal[0] % 11*
  3: 0x0010 [0x6F] WAIT_FRAME_DELAY: Yield until WaitTime reaches zero
  4: 0x0011 [0x70] WAIT_ENTITY_RENDER_FLAG: Wait while EventEntity->Render.Flags3 bit 2 is set (cancel turn if not)
  5: 0x0012 [0x02] IF !(ExtData[1]->WorkLocal[0] == 0*) GOTO 0x0030
  6: 0x001A [0x66] LOAD_EXT_SCHEDULER_MAIN: Load scheduler "tlk0" with entities [EventEntity, EventEntity], work=0*
  7: 0x0029 [0x1D] PRINT_EVENT_MESSAGE(message_id=7009*)
    → "Have you visited the mayor's office yet? That Naillina knows so much about everything!"
  8: 0x002C [0x23] WAIT_FOR_DIALOG_INTERACTION
  9: 0x002D [0x01] GOTO 0x016F
 10: 0x0030 [0x02] IF !(ExtData[1]->WorkLocal[0] == 1*) GOTO 0x004E
 11: 0x0038 [0x66] LOAD_EXT_SCHEDULER_MAIN: Load scheduler "tlk1" with entities [EventEntity, EventEntity], work=0*
 12: 0x0047 [0x1D] PRINT_EVENT_MESSAGE(message_id=7010*)
    → "I've noticed an awfully suspicious-looking fellow visit town recently. Have you seen him?"
 13: 0x004A [0x23] WAIT_FOR_DIALOG_INTERACTION
 14: 0x004B [0x01] GOTO 0x016F
 15: 0x004E [0x02] IF !(ExtData[1]->WorkLocal[0] == 2*) GOTO 0x006C
 16: 0x0056 [0x66] LOAD_EXT_SCHEDULER_MAIN: Load scheduler "tlk2" with entities [EventEntity, EventEntity], work=0*
 17: 0x0065 [0x1D] PRINT_EVENT_MESSAGE(message_id=7011*)
    → "Isacio used to be a knight a long time ago. I wonder what brought him here..."
 18: 0x0068 [0x23] WAIT_FOR_DIALOG_INTERACTION
 19: 0x0069 [0x01] GOTO 0x016F
 20: 0x006C [0x02] IF !(ExtData[1]->WorkLocal[0] == 3*) GOTO 0x008A
 21: 0x0074 [0x66] LOAD_EXT_SCHEDULER_MAIN: Load scheduler "tlk2" with entities [EventEntity, EventEntity], work=0*
 22: 0x0083 [0x1D] PRINT_EVENT_MESSAGE(message_id=7012*)
    → "Zaldon has all kinds of tales to tell. But he's so stubborn your head will ache!"
 23: 0x0086 [0x23] WAIT_FOR_DIALOG_INTERACTION
 24: 0x0087 [0x01] GOTO 0x016F
 25: 0x008A [0x02] IF !(ExtData[1]->WorkLocal[0] == 4*) GOTO 0x00A8
 26: 0x0092 [0x66] LOAD_EXT_SCHEDULER_MAIN: Load scheduler "tlk1" with entities [EventEntity, EventEntity], work=0*
 27: 0x00A1 [0x1D] PRINT_EVENT_MESSAGE(message_id=7013*)
    → "Gabwaleid actually knows a lot about fishing. He'll teach you whatever you need to know."
 28: 0x00A4 [0x23] WAIT_FOR_DIALOG_INTERACTION
 29: 0x00A5 [0x01] GOTO 0x016F
 30: 0x00A8 [0x02] IF !(ExtData[1]->WorkLocal[0] == 5*) GOTO 0x00C6
 31: 0x00B0 [0x66] LOAD_EXT_SCHEDULER_MAIN: Load scheduler "tlk0" with entities [EventEntity, EventEntity], work=0*
 32: 0x00BF [0x1D] PRINT_EVENT_MESSAGE(message_id=7014*)
    → "The inn's cook, Valgeir, whips up some fantastic dishes. I wish I had enough money to try one!"
 33: 0x00C2 [0x23] WAIT_FOR_DIALOG_INTERACTION
 34: 0x00C3 [0x01] GOTO 0x016F
 35: 0x00C6 [0x02] IF !(ExtData[1]->WorkLocal[0] == 6*) GOTO 0x00E4
 36: 0x00CE [0x66] LOAD_EXT_SCHEDULER_MAIN: Load scheduler "tlk0" with entities [EventEntity, EventEntity], work=0*
 37: 0x00DD [0x1D] PRINT_EVENT_MESSAGE(message_id=7015*)
    → "Mayor Abelard is more like a scientist than a politician. He's into some kind of research."
 38: 0x00E0 [0x23] WAIT_FOR_DIALOG_INTERACTION
 39: 0x00E1 [0x01] GOTO 0x016F
 40: 0x00E4 [0x02] IF !(ExtData[1]->WorkLocal[0] == 7*) GOTO 0x0102
 41: 0x00EC [0x66] LOAD_EXT_SCHEDULER_MAIN: Load scheduler "tlk0" with entities [EventEntity, EventEntity], work=0*
 42: 0x00FB [0x1D] PRINT_EVENT_MESSAGE(message_id=7016*)
    → "Vuntar's an earnest worker. Come to think of it, he's been working here as long as I can remember..."
 43: 0x00FE [0x23] WAIT_FOR_DIALOG_INTERACTION
 44: 0x00FF [0x01] GOTO 0x016F
 45: 0x0102 [0x02] IF !(ExtData[1]->WorkLocal[0] == 8*) GOTO 0x0120
 46: 0x010A [0x66] LOAD_EXT_SCHEDULER_MAIN: Load scheduler "tlk0" with entities [EventEntity, EventEntity], work=0*
 47: 0x0119 [0x1D] PRINT_EVENT_MESSAGE(message_id=7017*)
    → "Melyon is so proud of his sheep, isn't he? He's thought up interesting names for them."
 48: 0x011C [0x23] WAIT_FOR_DIALOG_INTERACTION
 49: 0x011D [0x01] GOTO 0x016F
 50: 0x0120 [0x02] IF !(ExtData[1]->WorkLocal[0] == 9*) GOTO 0x013E
 51: 0x0128 [0x66] LOAD_EXT_SCHEDULER_MAIN: Load scheduler "tlk1" with entities [EventEntity, EventEntity], work=0*
 52: 0x0137 [0x1D] PRINT_EVENT_MESSAGE(message_id=7018*)
    → "Romeo is always thinking up new ways to make money. And I think he's pretty good at it, too."
 53: 0x013A [0x23] WAIT_FOR_DIALOG_INTERACTION
 54: 0x013B [0x01] GOTO 0x016F
 55: 0x013E [0x02] IF !(ExtData[1]->WorkLocal[0] == 10*) GOTO 0x015C
 56: 0x0146 [0x66] LOAD_EXT_SCHEDULER_MAIN: Load scheduler "tlk2" with entities [EventEntity, EventEntity], work=0*
 57: 0x0155 [0x1D] PRINT_EVENT_MESSAGE(message_id=7019*)
    → "My name's Manfried and I'm a deputy along with Flandiace. Velema's our sergeant, and the three of us serve under Thunder Hawk."
 58: 0x0158 [0x23] WAIT_FOR_DIALOG_INTERACTION
 59: 0x0159 [0x01] GOTO 0x016F
 60: 0x015C [0x66] LOAD_EXT_SCHEDULER_MAIN: Load scheduler "tlk2" with entities [EventEntity, EventEntity], work=0*
 61: 0x016B [0x1D] PRINT_EVENT_MESSAGE(message_id=7019*)
    → "My name's Manfried and I'm a deputy along with Flandiace. Velema's our sergeant, and the three of us serve under Thunder Hawk."
 62: 0x016E [0x23] WAIT_FOR_DIALOG_INTERACTION

SUBROUTINE_016F:
 63: 0x016F [0x21] END_EVENT
 64: 0x0170 [0x00] END_REQSTACK()
```
