# 17793039 - Abelard

## Common Data

| Field            | Value             |
|------------------|-------------------|
| Zone             | Selbina (ID: 248) |
| Block Size       | 1624 bytes        |
| Total Events     | 41                |
| References Count | 45                |

## List of Events

| Event ID                   | Entrypoint   |   Size |   Instructions |
|----------------------------|--------------|--------|----------------|
| [65535](#event-65535)      | 0x0000       |      1 |              1 |
| [1130](#event-1130)        | 0x0001       |     11 |              5 |
| [40](#event-40)            | 0x000C       |    203 |             41 |
| [41](#event-41)            | 0x00D7       |    118 |             27 |
| [46](#event-46)            | 0x014D       |    118 |             27 |
| [42](#event-42)            | 0x01C3       |    111 |             23 |
| [44](#event-44)            | 0x0232       |     33 |              9 |
| [45](#event-45)            | 0x0253       |     36 |             11 |
| [43](#event-43)            | 0x0277       |     33 |              9 |
| [49](#event-49)            | 0x0298       |     33 |              9 |
| [47](#event-47)            | 0x02B9       |     53 |             12 |
| [48](#event-48)            | 0x02EE       |     28 |              8 |
| [1100](#event-1100)        | 0x030A       |     28 |              8 |
| [1131](#event-1131)        | 0x0326       |     29 |              9 |
| [1132](#event-1132)        | 0x0343       |     29 |              9 |
| [65535.1](#event-655351)   | 0x0360       |     16 |              2 |
| [65535.2](#event-655352)   | 0x0370       |     14 |              2 |
| [65535.3](#event-655353)   | 0x037E       |     16 |              2 |
| [65535.4](#event-655354)   | 0x038E       |     14 |              2 |
| [65535.5](#event-655355)   | 0x039C       |     16 |              2 |
| [65535.6](#event-655356)   | 0x03AC       |     14 |              2 |
| [65535.7](#event-655357)   | 0x03BA       |     16 |              2 |
| [65535.8](#event-655358)   | 0x03CA       |     14 |              2 |
| [65535.9](#event-655359)   | 0x03D8       |     16 |              2 |
| [65535.10](#event-6553510) | 0x03E8       |     14 |              2 |
| [65535.11](#event-6553511) | 0x03F6       |     16 |              2 |
| [65535.12](#event-6553512) | 0x0406       |     14 |              2 |
| [65535.13](#event-6553513) | 0x0414       |      1 |              1 |
| [1104](#event-1104)        | 0x0415       |      1 |              1 |
| [65535.14](#event-6553514) | 0x0416       |      1 |              1 |
| [1106](#event-1106)        | 0x0417       |      1 |              1 |
| [1105](#event-1105)        | 0x0418       |     69 |             20 |
| [1107](#event-1107)        | 0x045D       |     29 |             10 |
| [1108](#event-1108)        | 0x047A       |      1 |              1 |
| [1109](#event-1109)        | 0x047B       |     33 |             12 |
| [14](#event-14)            | 0x049C       |      1 |              1 |
| [177](#event-177)          | 0x049D       |      1 |              1 |
| [65535.15](#event-6553515) | 0x049E       |     22 |              6 |
| [178](#event-178)          | 0x04B4       |      1 |              1 |
| [65535.16](#event-6553516) | 0x04B5       |     55 |              9 |
| [181](#event-181)          | 0x04EC       |      1 |              1 |

## DAT References (imed_data)

|   Index | Hex Value   |   Dec Value |
|---------|-------------|-------------|
|       0 | 0x1A68      |        6760 |
|       1 | 0x003C      |          60 |
|       2 | 0x1A69      |        6761 |
|       3 | 0x1A6A      |        6762 |
|       4 | 0x1A6B      |        6763 |
|       5 | 0x1A6C      |        6764 |
|       6 | 0x1A6D      |        6765 |
|       7 | 0x1A5F      |        6751 |
|       8 | 0x0000      |           0 |
|       9 | 0x1A6E      |        6766 |
|      10 | 0x1A6F      |        6767 |
|      11 | 0x1A70      |        6768 |
|      12 | 0x0064      |         100 |
|      13 | 0x0001      |           1 |
|      14 | 0x1A71      |        6769 |
|      15 | 0x1A72      |        6770 |
|      16 | 0x1A74      |        6772 |
|      17 | 0x1A75      |        6773 |
|      18 | 0x006E      |         110 |
|      19 | 0x1A73      |        6771 |
|      20 | 0x1A76      |        6774 |
|      21 | 0x1A77      |        6775 |
|      22 | 0x1A78      |        6776 |
|      23 | 0x1A79      |        6777 |
|      24 | 0x1A7A      |        6778 |
|      25 | 0x1A7B      |        6779 |
|      26 | 0x00C9      |         201 |
|      27 | 0x1A7C      |        6780 |
|      28 | 0x1C83      |        7299 |
|      29 | 0x1CDD      |        7389 |
|      30 | 0x1CDE      |        7390 |
|      31 | 0x1CDF      |        7391 |
|      32 | 0x1CE0      |        7392 |
|      33 | 0x1CED      |        7405 |
|      34 | 0x1CF7      |        7415 |
|      35 | 0x1CF8      |        7416 |
|      36 | 0x000D      |          13 |
|      37 | 0xFFFF0D74  |  4294905204 |
|      38 | 0xFFFFF88F  |  4294965391 |
|      39 | 0xFFFFD3E9  |  4294956009 |
|      40 | 0x001E      |          30 |
|      41 | 0xFFFF29F2  |  4294912498 |
|      42 | 0xFFFFD18D  |  4294955405 |
|      43 | 0xFFFFD3B6  |  4294955958 |
|      44 | 0x0078      |         120 |

## String References

- **6751**: Well? [Of course./Sorry, but I can't.]
- **6760**: I'm Abelard, mayor of this village. It's so tiny, you see, that all I do is mediate when there are disagreements.
- **6761**: In my spare time I research the life of Gwynham, the man who charted the maps we all carry today.
- **6762**: He was an adventurer, like you. His travels took him far and wide, and slowly he fleshed out his maps.
- **6763**: One day I discovered that stone monuments bearing his words lie in various places all over the world.
- **6764**: It seems each monument carries a different quote. I'd love to rush out there and see them all, but it's tough at my age.
- **6765**: Say, maybe you could help me gather his words! Well, what do you say?
- **6766**: What a relief! Well, there's no time to lose! Let's get you started on one close by.
- **6767**: Take this clay to the monument in West Ronfaure, and press it firmly upon the inscription. Then, bring it back so I can print a copy for my collection.
- **6768**: Nobody seems to know exactly where to find the monument, so I suppose it might be difficult to find. Take care!
- **6769**: Is that right? Well, that's too bad. Come back if you ever have a change of heart.
- **6770**: At last! You've done it! You have my warmest thanks. Here, this is a reward for your effort. Don't expect too much from this old man, though, hehe.
- **6771**: Ah, you're back! This isn't the one I asked for, but beggars can't be choosers! Here, it's not much, but take this.
- **6772**: Well? Do you want to bring back another one for me?
- **6773**: Actually, I don't know where the others are. You'll have to find them and make the impressions yourself. Good luck, and take care!
- **6774**: Hello again! How's it going? Got the guts to go out and search for monuments yet? Sometimes they're a cakewalk, you know. What do you say?
- **6775**: What? How could you lose a big piece of clay!? Here, I'll give you another one. Now, take care!
- **6776**: Oh, I'm sorry, my friend, but I've already got this one, so try getting me a different one. Take care, now.
- **6777**: You don't know where to go next, eh? Well, I still don't have an impression from the monument in [West Ronfaure/East Ronfaure/La Theine/Valkurm/Jugner Forest/Batallia/North Gustaberg/South Gustaberg/Konschtat], you know.
- **6778**: You don't know where to go next, eh? Well, I still don't have an impression from the monument in [Pashhow/Rolanberry/West Sarutabaruta/East Sarutabaruta/Tahrongi Canyon/Buburimu/Meriphataud/Sauromugue], you know.
- **6779**: You're back! And with the last one! Thank you so much, my friend. In return for your unwavering kindness, I give you this.
- **6780**: Well, it's good to see you again! My research is going quite well, thanks to you. I hope that map's been useful.
- **7299**: Oh, that's right! I forgot to give you this. My memory must be failing me!
- **7389**: Have you heard of Lord Torresapet B Ordelle? It was feared he would die a demented death in Ordelle's Caves before he completed the map of those twisted tunnels.
- **7390**: He gathered the facts about Gwynham Ironheart's life into a single volume. I have the book right there.
- **7391**: It's just that... Before that book came into my possession, Gwynham's daughter, Enid, tore out several pages and threw them away.
- **7392**: I'm curious as to what was written on those pages, but I suppose there's a reason Enid removed them in the first place.
- **7405**: Is that all you wanted to know? Now if you don't mind, I'll get to reading these pages you retrieved.
- **7415**: Did the young lady really go into that cave in the Valkurm Dunes?
- **7416**: She's either extremely brave or extremely foolish to try and reach Tavnazia through that vortex.

## Events

### Event 65535

#### Metadata

| Field        | Value   |
|--------------|---------|
| Entrypoint   | 0x0000  |
| Data Size    | 1 bytes |
| Instructions | 1       |

```
      00 01 02 03 04 05 06 07  08 09 0A 0B 0C 0D 0E 0F
      -- -- -- -- -- -- -- --  -- -- -- -- -- -- -- --
0000: 00                                                .               
```

#### Opcodes

```
  0: 0x0000 [0x00] END_REQSTACK()
```

### Event 1130

#### Metadata

| Field        | Value    |
|--------------|----------|
| Entrypoint   | 0x0001   |
| Data Size    | 11 bytes |
| Instructions | 5        |

```
      00 01 02 03 04 05 06 07  08 09 0A 0B 0C 0D 0E 0F
      -- -- -- -- -- -- -- --  -- -- -- -- -- -- -- --
0000:    1E F0 FF FF 7F 1D 00  80 23 21 00               ........#!.    
```

#### Opcodes

```
  0: 0x0001 [0x1E] EventEntity looks at LocalPlayer and starts talking
  1: 0x0006 [0x1D] PRINT_EVENT_MESSAGE(message_id=6760*)
    → "I'm Abelard, mayor of this village. It's so tiny, you see, that all I do is mediate when there are disagreements."
  2: 0x0009 [0x23] WAIT_FOR_DIALOG_INTERACTION
  3: 0x000A [0x21] END_EVENT
  4: 0x000B [0x00] END_REQSTACK()
```

### Event 40

#### Metadata

| Field        | Value     |
|--------------|-----------|
| Entrypoint   | 0x000C    |
| Data Size    | 203 bytes |
| Instructions | 41        |

```
      00 01 02 03 04 05 06 07  08 09 0A 0B 0C 0D 0E 0F
      -- -- -- -- -- -- -- --  -- -- -- -- -- -- -- --
0000:                                      1E F0 FF FF              ....
0010: 7F 6F 70 5B 01 80 F8 FF  FF 7F F8 FF FF 7F 74 6C  .op[..........tl
0020: 62 30 1D 00 80 23 1D 02  80 23 53 F8 FF FF 7F F8  b0...#...#S.....
0030: FF FF 7F 74 6C 62 30 5B  01 80 F8 FF FF 7F F8 FF  ...tlb0[........
0040: FF 7F 74 6C 6B 30 1D 03  80 23 1D 04 80 23 1D 05  ..tlk0...#...#..
0050: 80 23 53 F8 FF FF 7F F8  FF FF 7F 74 6C 6B 30 5B  .#S........tlk0[
0060: 01 80 F8 FF FF 7F F8 FF  FF 7F 74 6C 62 30 1D 06  ..........tlb0..
0070: 80 23 5E 69 64 6C 30 24  07 80 08 80 08 80 25 02  .#^idl0$......%.
0080: 00 10 08 80 00 C6 00 5B  01 80 F8 FF FF 7F F8 FF  .......[........
0090: FF 7F 74 6C 6B 30 1D 09  80 23 53 F8 FF FF 7F F8  ..tlk0...#S.....
00A0: FF FF 7F 74 6C 6B 30 5B  01 80 F8 FF FF 7F F8 FF  ...tlk0[........
00B0: FF 7F 74 6C 62 30 1D 0A  80 23 1D 0B 80 23 03 01  ..tlb0...#...#..
00C0: 10 0C 80 01 D5 00 02 00  10 0D 80 00 D5 00 1D 0E  ................
00D0: 80 23 01 D5 00 21 00                              .#...!.         
```

#### Opcodes

```
  0: 0x000C [0x1E] EventEntity looks at LocalPlayer and starts talking
  1: 0x0011 [0x6F] WAIT_FRAME_DELAY: Yield until WaitTime reaches zero
  2: 0x0012 [0x70] WAIT_ENTITY_RENDER_FLAG: Wait while EventEntity->Render.Flags3 bit 2 is set (cancel turn if not)
  3: 0x0013 [0x5B] LOAD_EXT_SCHEDULER: Load scheduler "tlb0" with entities [EventEntity, EventEntity], work=60*
  4: 0x0022 [0x1D] PRINT_EVENT_MESSAGE(message_id=6760*)
    → "I'm Abelard, mayor of this village. It's so tiny, you see, that all I do is mediate when there are disagreements."
  5: 0x0025 [0x23] WAIT_FOR_DIALOG_INTERACTION
  6: 0x0026 [0x1D] PRINT_EVENT_MESSAGE(message_id=6761*)
    → "In my spare time I research the life of Gwynham, the man who charted the maps we all carry today."
  7: 0x0029 [0x23] WAIT_FOR_DIALOG_INTERACTION
  8: 0x002A [0x53] WAIT_SCHEDULER_TASK: Wait for scheduler "tlb0" with entities [EventEntity, EventEntity]
  9: 0x0037 [0x5B] LOAD_EXT_SCHEDULER: Load scheduler "tlk0" with entities [EventEntity, EventEntity], work=60*
 10: 0x0046 [0x1D] PRINT_EVENT_MESSAGE(message_id=6762*)
    → "He was an adventurer, like you. His travels took him far and wide, and slowly he fleshed out his maps."
 11: 0x0049 [0x23] WAIT_FOR_DIALOG_INTERACTION
 12: 0x004A [0x1D] PRINT_EVENT_MESSAGE(message_id=6763*)
    → "One day I discovered that stone monuments bearing his words lie in various places all over the world."
 13: 0x004D [0x23] WAIT_FOR_DIALOG_INTERACTION
 14: 0x004E [0x1D] PRINT_EVENT_MESSAGE(message_id=6764*)
    → "It seems each monument carries a different quote. I'd love to rush out there and see them all, but it's tough at my age."
 15: 0x0051 [0x23] WAIT_FOR_DIALOG_INTERACTION
 16: 0x0052 [0x53] WAIT_SCHEDULER_TASK: Wait for scheduler "tlk0" with entities [EventEntity, EventEntity]
 17: 0x005F [0x5B] LOAD_EXT_SCHEDULER: Load scheduler "tlb0" with entities [EventEntity, EventEntity], work=60*
 18: 0x006E [0x1D] PRINT_EVENT_MESSAGE(message_id=6765*)
    → "Say, maybe you could help me gather his words! Well, what do you say?"
 19: 0x0071 [0x23] WAIT_FOR_DIALOG_INTERACTION
 20: 0x0072 [0x5E] EventEntity goes idle (kills current action) (animation: "idl0")
 21: 0x0077 [0x24] CREATE_DIALOG(message_id=6751*, default_option=0*, option_flags=0*)
    → "Well? [Of course./Sorry, but I can't.]"
 22: 0x007E [0x25] WAIT_DIALOG_SELECT()
 23: 0x007F [0x02] IF !(Work_Zone[0] == 0*) GOTO 0x00C6
 24: 0x0087 [0x5B] LOAD_EXT_SCHEDULER: Load scheduler "tlk0" with entities [EventEntity, EventEntity], work=60*
 25: 0x0096 [0x1D] PRINT_EVENT_MESSAGE(message_id=6766*)
    → "What a relief! Well, there's no time to lose! Let's get you started on one close by."
 26: 0x0099 [0x23] WAIT_FOR_DIALOG_INTERACTION
 27: 0x009A [0x53] WAIT_SCHEDULER_TASK: Wait for scheduler "tlk0" with entities [EventEntity, EventEntity]
 28: 0x00A7 [0x5B] LOAD_EXT_SCHEDULER: Load scheduler "tlb0" with entities [EventEntity, EventEntity], work=60*
 29: 0x00B6 [0x1D] PRINT_EVENT_MESSAGE(message_id=6767*)
    → "Take this clay to the monument in West Ronfaure, and press it firmly upon the inscription. Then, bring it back so I can print a copy for my collection."
 30: 0x00B9 [0x23] WAIT_FOR_DIALOG_INTERACTION
 31: 0x00BA [0x1D] PRINT_EVENT_MESSAGE(message_id=6768*)
    → "Nobody seems to know exactly where to find the monument, so I suppose it might be difficult to find. Take care!"
 32: 0x00BD [0x23] WAIT_FOR_DIALOG_INTERACTION
 33: 0x00BE [0x03] Work_Zone[1] = 100*
 34: 0x00C3 [0x01] GOTO 0x00D5
 35: 0x00C6 [0x02] IF !(Work_Zone[0] == 1*) GOTO 0x00D5
 36: 0x00CE [0x1D] PRINT_EVENT_MESSAGE(message_id=6769*)
    → "Is that right? Well, that's too bad. Come back if you ever have a change of heart."
 37: 0x00D1 [0x23] WAIT_FOR_DIALOG_INTERACTION
 38: 0x00D2 [0x01] GOTO 0x00D5

SUBROUTINE_00D5:
 39: 0x00D5 [0x21] END_EVENT
 40: 0x00D6 [0x00] END_REQSTACK()
```

### Event 41

#### Metadata

| Field        | Value     |
|--------------|-----------|
| Entrypoint   | 0x00D7    |
| Data Size    | 118 bytes |
| Instructions | 27        |

```
      00 01 02 03 04 05 06 07  08 09 0A 0B 0C 0D 0E 0F
      -- -- -- -- -- -- -- --  -- -- -- -- -- -- -- --
00D0:                      42  20 01 1E F0 FF FF 7F 6F         B ......o
00E0: 70 5B 01 80 F8 FF FF 7F  F8 FF FF 7F 74 6C 6B 30  p[..........tlk0
00F0: 1D 0F 80 23 1D 10 80 23  5E 69 64 6C 30 24 07 80  ...#...#^idl0$..
0100: 08 80 08 80 25 02 00 10  08 80 00 28 01 5B 01 80  ....%......(.[..
0110: F8 FF FF 7F F8 FF FF 7F  74 6C 62 30 1D 11 80 23  ........tlb0...#
0120: 03 01 10 0C 80 01 4B 01  02 00 10 0D 80 00 4B 01  ......K.......K.
0130: 5B 01 80 F8 FF FF 7F F8  FF FF 7F 74 6C 62 30 1D  [..........tlb0.
0140: 0E 80 23 03 01 10 12 80  01 4B 01 21 00           ..#......K.!.   
```

#### Opcodes

```
  0: 0x00D7 [0x42] SET_CLI_EVENT_CANCEL_DATA()
  1: 0x00D8 [0x20] SET_CLI_EVENT_UC_FLAG: Lock player control
  2: 0x00DA [0x1E] EventEntity looks at LocalPlayer and starts talking
  3: 0x00DF [0x6F] WAIT_FRAME_DELAY: Yield until WaitTime reaches zero
  4: 0x00E0 [0x70] WAIT_ENTITY_RENDER_FLAG: Wait while EventEntity->Render.Flags3 bit 2 is set (cancel turn if not)
  5: 0x00E1 [0x5B] LOAD_EXT_SCHEDULER: Load scheduler "tlk0" with entities [EventEntity, EventEntity], work=60*
  6: 0x00F0 [0x1D] PRINT_EVENT_MESSAGE(message_id=6770*)
    → "At last! You've done it! You have my warmest thanks. Here, this is a reward for your effort. Don't expect too much from this old man, though, hehe."
  7: 0x00F3 [0x23] WAIT_FOR_DIALOG_INTERACTION
  8: 0x00F4 [0x1D] PRINT_EVENT_MESSAGE(message_id=6772*)
    → "Well? Do you want to bring back another one for me?"
  9: 0x00F7 [0x23] WAIT_FOR_DIALOG_INTERACTION
 10: 0x00F8 [0x5E] EventEntity goes idle (kills current action) (animation: "idl0")
 11: 0x00FD [0x24] CREATE_DIALOG(message_id=6751*, default_option=0*, option_flags=0*)
    → "Well? [Of course./Sorry, but I can't.]"
 12: 0x0104 [0x25] WAIT_DIALOG_SELECT()
 13: 0x0105 [0x02] IF !(Work_Zone[0] == 0*) GOTO 0x0128
 14: 0x010D [0x5B] LOAD_EXT_SCHEDULER: Load scheduler "tlb0" with entities [EventEntity, EventEntity], work=60*
 15: 0x011C [0x1D] PRINT_EVENT_MESSAGE(message_id=6773*)
    → "Actually, I don't know where the others are. You'll have to find them and make the impressions yourself. Good luck, and take care!"
 16: 0x011F [0x23] WAIT_FOR_DIALOG_INTERACTION
 17: 0x0120 [0x03] Work_Zone[1] = 100*
 18: 0x0125 [0x01] GOTO 0x014B
 19: 0x0128 [0x02] IF !(Work_Zone[0] == 1*) GOTO 0x014B
 20: 0x0130 [0x5B] LOAD_EXT_SCHEDULER: Load scheduler "tlb0" with entities [EventEntity, EventEntity], work=60*
 21: 0x013F [0x1D] PRINT_EVENT_MESSAGE(message_id=6769*)
    → "Is that right? Well, that's too bad. Come back if you ever have a change of heart."
 22: 0x0142 [0x23] WAIT_FOR_DIALOG_INTERACTION
 23: 0x0143 [0x03] Work_Zone[1] = 110*
 24: 0x0148 [0x01] GOTO 0x014B

SUBROUTINE_014B:
 25: 0x014B [0x21] END_EVENT
 26: 0x014C [0x00] END_REQSTACK()
```

### Event 46

#### Metadata

| Field        | Value     |
|--------------|-----------|
| Entrypoint   | 0x014D    |
| Data Size    | 118 bytes |
| Instructions | 27        |

```
      00 01 02 03 04 05 06 07  08 09 0A 0B 0C 0D 0E 0F
      -- -- -- -- -- -- -- --  -- -- -- -- -- -- -- --
0140:                                         42 20 01               B .
0150: 1E F0 FF FF 7F 6F 70 5B  01 80 F8 FF FF 7F F8 FF  .....op[........
0160: FF 7F 74 6C 6B 30 1D 13  80 23 1D 10 80 23 5E 69  ..tlk0...#...#^i
0170: 64 6C 30 24 07 80 08 80  08 80 25 02 00 10 08 80  dl0$......%.....
0180: 00 9E 01 5B 01 80 F8 FF  FF 7F F8 FF FF 7F 74 6C  ...[..........tl
0190: 62 30 1D 11 80 23 03 01  10 0C 80 01 C1 01 02 00  b0...#..........
01A0: 10 0D 80 00 C1 01 5B 01  80 F8 FF FF 7F F8 FF FF  ......[.........
01B0: 7F 74 6C 62 30 1D 0E 80  23 03 01 10 12 80 01 C1  .tlb0...#.......
01C0: 01 21 00                                          .!.             
```

#### Opcodes

```
  0: 0x014D [0x42] SET_CLI_EVENT_CANCEL_DATA()
  1: 0x014E [0x20] SET_CLI_EVENT_UC_FLAG: Lock player control
  2: 0x0150 [0x1E] EventEntity looks at LocalPlayer and starts talking
  3: 0x0155 [0x6F] WAIT_FRAME_DELAY: Yield until WaitTime reaches zero
  4: 0x0156 [0x70] WAIT_ENTITY_RENDER_FLAG: Wait while EventEntity->Render.Flags3 bit 2 is set (cancel turn if not)
  5: 0x0157 [0x5B] LOAD_EXT_SCHEDULER: Load scheduler "tlk0" with entities [EventEntity, EventEntity], work=60*
  6: 0x0166 [0x1D] PRINT_EVENT_MESSAGE(message_id=6771*)
    → "Ah, you're back! This isn't the one I asked for, but beggars can't be choosers! Here, it's not much, but take this."
  7: 0x0169 [0x23] WAIT_FOR_DIALOG_INTERACTION
  8: 0x016A [0x1D] PRINT_EVENT_MESSAGE(message_id=6772*)
    → "Well? Do you want to bring back another one for me?"
  9: 0x016D [0x23] WAIT_FOR_DIALOG_INTERACTION
 10: 0x016E [0x5E] EventEntity goes idle (kills current action) (animation: "idl0")
 11: 0x0173 [0x24] CREATE_DIALOG(message_id=6751*, default_option=0*, option_flags=0*)
    → "Well? [Of course./Sorry, but I can't.]"
 12: 0x017A [0x25] WAIT_DIALOG_SELECT()
 13: 0x017B [0x02] IF !(Work_Zone[0] == 0*) GOTO 0x019E
 14: 0x0183 [0x5B] LOAD_EXT_SCHEDULER: Load scheduler "tlb0" with entities [EventEntity, EventEntity], work=60*
 15: 0x0192 [0x1D] PRINT_EVENT_MESSAGE(message_id=6773*)
    → "Actually, I don't know where the others are. You'll have to find them and make the impressions yourself. Good luck, and take care!"
 16: 0x0195 [0x23] WAIT_FOR_DIALOG_INTERACTION
 17: 0x0196 [0x03] Work_Zone[1] = 100*
 18: 0x019B [0x01] GOTO 0x01C1
 19: 0x019E [0x02] IF !(Work_Zone[0] == 1*) GOTO 0x01C1
 20: 0x01A6 [0x5B] LOAD_EXT_SCHEDULER: Load scheduler "tlb0" with entities [EventEntity, EventEntity], work=60*
 21: 0x01B5 [0x1D] PRINT_EVENT_MESSAGE(message_id=6769*)
    → "Is that right? Well, that's too bad. Come back if you ever have a change of heart."
 22: 0x01B8 [0x23] WAIT_FOR_DIALOG_INTERACTION
 23: 0x01B9 [0x03] Work_Zone[1] = 110*
 24: 0x01BE [0x01] GOTO 0x01C1

SUBROUTINE_01C1:
 25: 0x01C1 [0x21] END_EVENT
 26: 0x01C2 [0x00] END_REQSTACK()
```

### Event 42

#### Metadata

| Field        | Value     |
|--------------|-----------|
| Entrypoint   | 0x01C3    |
| Data Size    | 111 bytes |
| Instructions | 23        |

```
      00 01 02 03 04 05 06 07  08 09 0A 0B 0C 0D 0E 0F
      -- -- -- -- -- -- -- --  -- -- -- -- -- -- -- --
01C0:          1E F0 FF FF 7F  6F 70 5B 01 80 F8 FF FF     .....op[.....
01D0: 7F F8 FF FF 7F 74 6C 62  30 1D 14 80 23 5E 69 64  .....tlb0...#^id
01E0: 6C 30 24 07 80 08 80 08  80 25 02 00 10 08 80 00  l0$......%......
01F0: 0D 02 5B 01 80 F8 FF FF  7F F8 FF FF 7F 74 6C 62  ..[..........tlb
0200: 30 1D 11 80 23 03 01 10  0C 80 01 30 02 02 00 10  0...#......0....
0210: 0D 80 00 30 02 5B 01 80  F8 FF FF 7F F8 FF FF 7F  ...0.[..........
0220: 74 6C 62 30 1D 0E 80 23  03 01 10 12 80 01 30 02  tlb0...#......0.
0230: 21 00                                             !.              
```

#### Opcodes

```
  0: 0x01C3 [0x1E] EventEntity looks at LocalPlayer and starts talking
  1: 0x01C8 [0x6F] WAIT_FRAME_DELAY: Yield until WaitTime reaches zero
  2: 0x01C9 [0x70] WAIT_ENTITY_RENDER_FLAG: Wait while EventEntity->Render.Flags3 bit 2 is set (cancel turn if not)
  3: 0x01CA [0x5B] LOAD_EXT_SCHEDULER: Load scheduler "tlb0" with entities [EventEntity, EventEntity], work=60*
  4: 0x01D9 [0x1D] PRINT_EVENT_MESSAGE(message_id=6774*)
    → "Hello again! How's it going? Got the guts to go out and search for monuments yet? Sometimes they're a cakewalk, you know. What do you say?"
  5: 0x01DC [0x23] WAIT_FOR_DIALOG_INTERACTION
  6: 0x01DD [0x5E] EventEntity goes idle (kills current action) (animation: "idl0")
  7: 0x01E2 [0x24] CREATE_DIALOG(message_id=6751*, default_option=0*, option_flags=0*)
    → "Well? [Of course./Sorry, but I can't.]"
  8: 0x01E9 [0x25] WAIT_DIALOG_SELECT()
  9: 0x01EA [0x02] IF !(Work_Zone[0] == 0*) GOTO 0x020D
 10: 0x01F2 [0x5B] LOAD_EXT_SCHEDULER: Load scheduler "tlb0" with entities [EventEntity, EventEntity], work=60*
 11: 0x0201 [0x1D] PRINT_EVENT_MESSAGE(message_id=6773*)
    → "Actually, I don't know where the others are. You'll have to find them and make the impressions yourself. Good luck, and take care!"
 12: 0x0204 [0x23] WAIT_FOR_DIALOG_INTERACTION
 13: 0x0205 [0x03] Work_Zone[1] = 100*
 14: 0x020A [0x01] GOTO 0x0230
 15: 0x020D [0x02] IF !(Work_Zone[0] == 1*) GOTO 0x0230
 16: 0x0215 [0x5B] LOAD_EXT_SCHEDULER: Load scheduler "tlb0" with entities [EventEntity, EventEntity], work=60*
 17: 0x0224 [0x1D] PRINT_EVENT_MESSAGE(message_id=6769*)
    → "Is that right? Well, that's too bad. Come back if you ever have a change of heart."
 18: 0x0227 [0x23] WAIT_FOR_DIALOG_INTERACTION
 19: 0x0228 [0x03] Work_Zone[1] = 110*
 20: 0x022D [0x01] GOTO 0x0230

SUBROUTINE_0230:
 21: 0x0230 [0x21] END_EVENT
 22: 0x0231 [0x00] END_REQSTACK()
```

### Event 44

#### Metadata

| Field        | Value    |
|--------------|----------|
| Entrypoint   | 0x0232   |
| Data Size    | 33 bytes |
| Instructions | 9        |

```
      00 01 02 03 04 05 06 07  08 09 0A 0B 0C 0D 0E 0F
      -- -- -- -- -- -- -- --  -- -- -- -- -- -- -- --
0230:       1E F0 FF FF 7F 6F  70 5B 01 80 F8 FF FF 7F    .....op[......
0240: F8 FF FF 7F 74 6C 62 30  1D 15 80 23 03 01 10 12  ....tlb0...#....
0250: 80 21 00                                          .!.             
```

#### Opcodes

```
  0: 0x0232 [0x1E] EventEntity looks at LocalPlayer and starts talking
  1: 0x0237 [0x6F] WAIT_FRAME_DELAY: Yield until WaitTime reaches zero
  2: 0x0238 [0x70] WAIT_ENTITY_RENDER_FLAG: Wait while EventEntity->Render.Flags3 bit 2 is set (cancel turn if not)
  3: 0x0239 [0x5B] LOAD_EXT_SCHEDULER: Load scheduler "tlb0" with entities [EventEntity, EventEntity], work=60*
  4: 0x0248 [0x1D] PRINT_EVENT_MESSAGE(message_id=6775*)
    → "What? How could you lose a big piece of clay!? Here, I'll give you another one. Now, take care!"
  5: 0x024B [0x23] WAIT_FOR_DIALOG_INTERACTION
  6: 0x024C [0x03] Work_Zone[1] = 110*
  7: 0x0251 [0x21] END_EVENT
  8: 0x0252 [0x00] END_REQSTACK()
```

### Event 45

#### Metadata

| Field        | Value    |
|--------------|----------|
| Entrypoint   | 0x0253   |
| Data Size    | 36 bytes |
| Instructions | 11       |

```
      00 01 02 03 04 05 06 07  08 09 0A 0B 0C 0D 0E 0F
      -- -- -- -- -- -- -- --  -- -- -- -- -- -- -- --
0250:          42 20 01 1E F0  FF FF 7F 6F 70 5B 01 80     B ......op[..
0260: F8 FF FF 7F F8 FF FF 7F  74 6C 62 30 1D 16 80 23  ........tlb0...#
0270: 03 01 10 12 80 21 00                              .....!.         
```

#### Opcodes

```
  0: 0x0253 [0x42] SET_CLI_EVENT_CANCEL_DATA()
  1: 0x0254 [0x20] SET_CLI_EVENT_UC_FLAG: Lock player control
  2: 0x0256 [0x1E] EventEntity looks at LocalPlayer and starts talking
  3: 0x025B [0x6F] WAIT_FRAME_DELAY: Yield until WaitTime reaches zero
  4: 0x025C [0x70] WAIT_ENTITY_RENDER_FLAG: Wait while EventEntity->Render.Flags3 bit 2 is set (cancel turn if not)
  5: 0x025D [0x5B] LOAD_EXT_SCHEDULER: Load scheduler "tlb0" with entities [EventEntity, EventEntity], work=60*
  6: 0x026C [0x1D] PRINT_EVENT_MESSAGE(message_id=6776*)
    → "Oh, I'm sorry, my friend, but I've already got this one, so try getting me a different one. Take care, now."
  7: 0x026F [0x23] WAIT_FOR_DIALOG_INTERACTION
  8: 0x0270 [0x03] Work_Zone[1] = 110*
  9: 0x0275 [0x21] END_EVENT
 10: 0x0276 [0x00] END_REQSTACK()
```

### Event 43

#### Metadata

| Field        | Value    |
|--------------|----------|
| Entrypoint   | 0x0277   |
| Data Size    | 33 bytes |
| Instructions | 9        |

```
      00 01 02 03 04 05 06 07  08 09 0A 0B 0C 0D 0E 0F
      -- -- -- -- -- -- -- --  -- -- -- -- -- -- -- --
0270:                      1E  F0 FF FF 7F 6F 70 5B 01         .....op[.
0280: 80 F8 FF FF 7F F8 FF FF  7F 74 6C 62 30 1D 17 80  .........tlb0...
0290: 23 03 01 10 0C 80 21 00                           #.....!.        
```

#### Opcodes

```
  0: 0x0277 [0x1E] EventEntity looks at LocalPlayer and starts talking
  1: 0x027C [0x6F] WAIT_FRAME_DELAY: Yield until WaitTime reaches zero
  2: 0x027D [0x70] WAIT_ENTITY_RENDER_FLAG: Wait while EventEntity->Render.Flags3 bit 2 is set (cancel turn if not)
  3: 0x027E [0x5B] LOAD_EXT_SCHEDULER: Load scheduler "tlb0" with entities [EventEntity, EventEntity], work=60*
  4: 0x028D [0x1D] PRINT_EVENT_MESSAGE(message_id=6777*)
    → "You don't know where to go next, eh? Well, I still don't have an impression from the monument in [West Ronfaure/East Ronfaure/La Theine/Valkurm/Jugner Forest/Batallia/North Gustaberg/South Gustaberg/Konschtat], you know."
  5: 0x0290 [0x23] WAIT_FOR_DIALOG_INTERACTION
  6: 0x0291 [0x03] Work_Zone[1] = 100*
  7: 0x0296 [0x21] END_EVENT
  8: 0x0297 [0x00] END_REQSTACK()
```

### Event 49

#### Metadata

| Field        | Value    |
|--------------|----------|
| Entrypoint   | 0x0298   |
| Data Size    | 33 bytes |
| Instructions | 9        |

```
      00 01 02 03 04 05 06 07  08 09 0A 0B 0C 0D 0E 0F
      -- -- -- -- -- -- -- --  -- -- -- -- -- -- -- --
0290:                          1E F0 FF FF 7F 6F 70 5B          .....op[
02A0: 01 80 F8 FF FF 7F F8 FF  FF 7F 74 6C 62 30 1D 18  ..........tlb0..
02B0: 80 23 03 01 10 0C 80 21  00                       .#.....!.       
```

#### Opcodes

```
  0: 0x0298 [0x1E] EventEntity looks at LocalPlayer and starts talking
  1: 0x029D [0x6F] WAIT_FRAME_DELAY: Yield until WaitTime reaches zero
  2: 0x029E [0x70] WAIT_ENTITY_RENDER_FLAG: Wait while EventEntity->Render.Flags3 bit 2 is set (cancel turn if not)
  3: 0x029F [0x5B] LOAD_EXT_SCHEDULER: Load scheduler "tlb0" with entities [EventEntity, EventEntity], work=60*
  4: 0x02AE [0x1D] PRINT_EVENT_MESSAGE(message_id=6778*)
    → "You don't know where to go next, eh? Well, I still don't have an impression from the monument in [Pashhow/Rolanberry/West Sarutabaruta/East Sarutabaruta/Tahrongi Canyon/Buburimu/Meriphataud/Sauromugue], you know."
  5: 0x02B1 [0x23] WAIT_FOR_DIALOG_INTERACTION
  6: 0x02B2 [0x03] Work_Zone[1] = 100*
  7: 0x02B7 [0x21] END_EVENT
  8: 0x02B8 [0x00] END_REQSTACK()
```

### Event 47

#### Metadata

| Field        | Value    |
|--------------|----------|
| Entrypoint   | 0x02B9   |
| Data Size    | 53 bytes |
| Instructions | 12       |

```
      00 01 02 03 04 05 06 07  08 09 0A 0B 0C 0D 0E 0F
      -- -- -- -- -- -- -- --  -- -- -- -- -- -- -- --
02B0:                             42 20 01 1E F0 FF FF           B .....
02C0: 7F 6F 70 5B 01 80 F8 FF  FF 7F F8 FF FF 7F 74 6C  .op[..........tl
02D0: 6B 30 1D 19 80 23 03 01  10 12 80 45 1A 80 F0 FF  k0...#.....E....
02E0: FF 7F F0 FF FF 7F 71 73  74 63 08 80 21 00        ......qstc..!.  
```

#### Opcodes

```
  0: 0x02B9 [0x42] SET_CLI_EVENT_CANCEL_DATA()
  1: 0x02BA [0x20] SET_CLI_EVENT_UC_FLAG: Lock player control
  2: 0x02BC [0x1E] EventEntity looks at LocalPlayer and starts talking
  3: 0x02C1 [0x6F] WAIT_FRAME_DELAY: Yield until WaitTime reaches zero
  4: 0x02C2 [0x70] WAIT_ENTITY_RENDER_FLAG: Wait while EventEntity->Render.Flags3 bit 2 is set (cancel turn if not)
  5: 0x02C3 [0x5B] LOAD_EXT_SCHEDULER: Load scheduler "tlk0" with entities [EventEntity, EventEntity], work=60*
  6: 0x02D2 [0x1D] PRINT_EVENT_MESSAGE(message_id=6779*)
    → "You're back! And with the last one! Thank you so much, my friend. In return for your unwavering kindness, I give you this."
  7: 0x02D5 [0x23] WAIT_FOR_DIALOG_INTERACTION
  8: 0x02D6 [0x03] Work_Zone[1] = 110*
  9: 0x02DB [0x45] LOAD_SCHEDULED_TASK: Load scheduler "qstc" with entities [LocalPlayer, LocalPlayer], work=[201*, 0*]
 10: 0x02EC [0x21] END_EVENT
 11: 0x02ED [0x00] END_REQSTACK()
```

### Event 48

#### Metadata

| Field        | Value    |
|--------------|----------|
| Entrypoint   | 0x02EE   |
| Data Size    | 28 bytes |
| Instructions | 8        |

```
      00 01 02 03 04 05 06 07  08 09 0A 0B 0C 0D 0E 0F
      -- -- -- -- -- -- -- --  -- -- -- -- -- -- -- --
02E0:                                            1E F0                ..
02F0: FF FF 7F 6F 70 5B 01 80  F8 FF FF 7F F8 FF FF 7F  ...op[..........
0300: 74 6C 62 30 1D 1B 80 23  21 00                    tlb0...#!.      
```

#### Opcodes

```
  0: 0x02EE [0x1E] EventEntity looks at LocalPlayer and starts talking
  1: 0x02F3 [0x6F] WAIT_FRAME_DELAY: Yield until WaitTime reaches zero
  2: 0x02F4 [0x70] WAIT_ENTITY_RENDER_FLAG: Wait while EventEntity->Render.Flags3 bit 2 is set (cancel turn if not)
  3: 0x02F5 [0x5B] LOAD_EXT_SCHEDULER: Load scheduler "tlb0" with entities [EventEntity, EventEntity], work=60*
  4: 0x0304 [0x1D] PRINT_EVENT_MESSAGE(message_id=6780*)
    → "Well, it's good to see you again! My research is going quite well, thanks to you. I hope that map's been useful."
  5: 0x0307 [0x23] WAIT_FOR_DIALOG_INTERACTION
  6: 0x0308 [0x21] END_EVENT
  7: 0x0309 [0x00] END_REQSTACK()
```

### Event 1100

#### Metadata

| Field        | Value    |
|--------------|----------|
| Entrypoint   | 0x030A   |
| Data Size    | 28 bytes |
| Instructions | 8        |

```
      00 01 02 03 04 05 06 07  08 09 0A 0B 0C 0D 0E 0F
      -- -- -- -- -- -- -- --  -- -- -- -- -- -- -- --
0300:                                1E F0 FF FF 7F 6F            .....o
0310: 70 5B 01 80 F8 FF FF 7F  F8 FF FF 7F 70 61 73 30  p[..........pas0
0320: 1D 1C 80 23 21 00                                 ...#!.          
```

#### Opcodes

```
  0: 0x030A [0x1E] EventEntity looks at LocalPlayer and starts talking
  1: 0x030F [0x6F] WAIT_FRAME_DELAY: Yield until WaitTime reaches zero
  2: 0x0310 [0x70] WAIT_ENTITY_RENDER_FLAG: Wait while EventEntity->Render.Flags3 bit 2 is set (cancel turn if not)
  3: 0x0311 [0x5B] LOAD_EXT_SCHEDULER: Load scheduler "pas0" with entities [EventEntity, EventEntity], work=60*
  4: 0x0320 [0x1D] PRINT_EVENT_MESSAGE(message_id=7299*)
    → "Oh, that's right! I forgot to give you this. My memory must be failing me!"
  5: 0x0323 [0x23] WAIT_FOR_DIALOG_INTERACTION
  6: 0x0324 [0x21] END_EVENT
  7: 0x0325 [0x00] END_REQSTACK()
```

### Event 1131

#### Metadata

| Field        | Value    |
|--------------|----------|
| Entrypoint   | 0x0326   |
| Data Size    | 29 bytes |
| Instructions | 9        |

```
      00 01 02 03 04 05 06 07  08 09 0A 0B 0C 0D 0E 0F
      -- -- -- -- -- -- -- --  -- -- -- -- -- -- -- --
0320:                   42 1E  F0 FF FF 7F 6F 70 5B 01        B.....op[.
0330: 80 F8 FF FF 7F F8 FF FF  7F 74 6C 6B 30 1D 0F 80  .........tlk0...
0340: 23 21 00                                          #!.             
```

#### Opcodes

```
  0: 0x0326 [0x42] SET_CLI_EVENT_CANCEL_DATA()
  1: 0x0327 [0x1E] EventEntity looks at LocalPlayer and starts talking
  2: 0x032C [0x6F] WAIT_FRAME_DELAY: Yield until WaitTime reaches zero
  3: 0x032D [0x70] WAIT_ENTITY_RENDER_FLAG: Wait while EventEntity->Render.Flags3 bit 2 is set (cancel turn if not)
  4: 0x032E [0x5B] LOAD_EXT_SCHEDULER: Load scheduler "tlk0" with entities [EventEntity, EventEntity], work=60*
  5: 0x033D [0x1D] PRINT_EVENT_MESSAGE(message_id=6770*)
    → "At last! You've done it! You have my warmest thanks. Here, this is a reward for your effort. Don't expect too much from this old man, though, hehe."
  6: 0x0340 [0x23] WAIT_FOR_DIALOG_INTERACTION
  7: 0x0341 [0x21] END_EVENT
  8: 0x0342 [0x00] END_REQSTACK()
```

### Event 1132

#### Metadata

| Field        | Value    |
|--------------|----------|
| Entrypoint   | 0x0343   |
| Data Size    | 29 bytes |
| Instructions | 9        |

```
      00 01 02 03 04 05 06 07  08 09 0A 0B 0C 0D 0E 0F
      -- -- -- -- -- -- -- --  -- -- -- -- -- -- -- --
0340:          42 1E F0 FF FF  7F 6F 70 5B 01 80 F8 FF     B.....op[....
0350: FF 7F F8 FF FF 7F 74 6C  6B 30 1D 13 80 23 21 00  ......tlk0...#!.
```

#### Opcodes

```
  0: 0x0343 [0x42] SET_CLI_EVENT_CANCEL_DATA()
  1: 0x0344 [0x1E] EventEntity looks at LocalPlayer and starts talking
  2: 0x0349 [0x6F] WAIT_FRAME_DELAY: Yield until WaitTime reaches zero
  3: 0x034A [0x70] WAIT_ENTITY_RENDER_FLAG: Wait while EventEntity->Render.Flags3 bit 2 is set (cancel turn if not)
  4: 0x034B [0x5B] LOAD_EXT_SCHEDULER: Load scheduler "tlk0" with entities [EventEntity, EventEntity], work=60*
  5: 0x035A [0x1D] PRINT_EVENT_MESSAGE(message_id=6771*)
    → "Ah, you're back! This isn't the one I asked for, but beggars can't be choosers! Here, it's not much, but take this."
  6: 0x035D [0x23] WAIT_FOR_DIALOG_INTERACTION
  7: 0x035E [0x21] END_EVENT
  8: 0x035F [0x00] END_REQSTACK()
```

### Event 65535.1

#### Metadata

| Field        | Value    |
|--------------|----------|
| Entrypoint   | 0x0360   |
| Data Size    | 16 bytes |
| Instructions | 2        |

```
      00 01 02 03 04 05 06 07  08 09 0A 0B 0C 0D 0E 0F
      -- -- -- -- -- -- -- --  -- -- -- -- -- -- -- --
0360: 5B 01 80 F8 FF FF 7F F8  FF FF 7F 74 68 6B 31 00  [..........thk1.
```

#### Opcodes

```
  0: 0x0360 [0x5B] LOAD_EXT_SCHEDULER: Load scheduler "thk1" with entities [EventEntity, EventEntity], work=60*
  1: 0x036F [0x00] END_REQSTACK()
```

### Event 65535.2

#### Metadata

| Field        | Value    |
|--------------|----------|
| Entrypoint   | 0x0370   |
| Data Size    | 14 bytes |
| Instructions | 2        |

```
      00 01 02 03 04 05 06 07  08 09 0A 0B 0C 0D 0E 0F
      -- -- -- -- -- -- -- --  -- -- -- -- -- -- -- --
0370: 53 F8 FF FF 7F F8 FF FF  7F 74 68 6B 31 00        S........thk1.  
```

#### Opcodes

```
  0: 0x0370 [0x53] WAIT_SCHEDULER_TASK: Wait for scheduler "thk1" with entities [EventEntity, EventEntity]
  1: 0x037D [0x00] END_REQSTACK()
```

### Event 65535.3

#### Metadata

| Field        | Value    |
|--------------|----------|
| Entrypoint   | 0x037E   |
| Data Size    | 16 bytes |
| Instructions | 2        |

```
      00 01 02 03 04 05 06 07  08 09 0A 0B 0C 0D 0E 0F
      -- -- -- -- -- -- -- --  -- -- -- -- -- -- -- --
0370:                                            5B 01                [.
0380: 80 F8 FF FF 7F F8 FF FF  7F 74 68 6B 32 00        .........thk2.  
```

#### Opcodes

```
  0: 0x037E [0x5B] LOAD_EXT_SCHEDULER: Load scheduler "thk2" with entities [EventEntity, EventEntity], work=60*
  1: 0x038D [0x00] END_REQSTACK()
```

### Event 65535.4

#### Metadata

| Field        | Value    |
|--------------|----------|
| Entrypoint   | 0x038E   |
| Data Size    | 14 bytes |
| Instructions | 2        |

```
      00 01 02 03 04 05 06 07  08 09 0A 0B 0C 0D 0E 0F
      -- -- -- -- -- -- -- --  -- -- -- -- -- -- -- --
0380:                                            53 F8                S.
0390: FF FF 7F F8 FF FF 7F 74  68 6B 32 00              .......thk2.    
```

#### Opcodes

```
  0: 0x038E [0x53] WAIT_SCHEDULER_TASK: Wait for scheduler "thk2" with entities [EventEntity, EventEntity]
  1: 0x039B [0x00] END_REQSTACK()
```

### Event 65535.5

#### Metadata

| Field        | Value    |
|--------------|----------|
| Entrypoint   | 0x039C   |
| Data Size    | 16 bytes |
| Instructions | 2        |

```
      00 01 02 03 04 05 06 07  08 09 0A 0B 0C 0D 0E 0F
      -- -- -- -- -- -- -- --  -- -- -- -- -- -- -- --
0390:                                      5B 01 80 F8              [...
03A0: FF FF 7F F8 FF FF 7F 74  6C 6B 30 00              .......tlk0.    
```

#### Opcodes

```
  0: 0x039C [0x5B] LOAD_EXT_SCHEDULER: Load scheduler "tlk0" with entities [EventEntity, EventEntity], work=60*
  1: 0x03AB [0x00] END_REQSTACK()
```

### Event 65535.6

#### Metadata

| Field        | Value    |
|--------------|----------|
| Entrypoint   | 0x03AC   |
| Data Size    | 14 bytes |
| Instructions | 2        |

```
      00 01 02 03 04 05 06 07  08 09 0A 0B 0C 0D 0E 0F
      -- -- -- -- -- -- -- --  -- -- -- -- -- -- -- --
03A0:                                      53 F8 FF FF              S...
03B0: 7F F8 FF FF 7F 74 6C 6B  30 00                    .....tlk0.      
```

#### Opcodes

```
  0: 0x03AC [0x53] WAIT_SCHEDULER_TASK: Wait for scheduler "tlk0" with entities [EventEntity, EventEntity]
  1: 0x03B9 [0x00] END_REQSTACK()
```

### Event 65535.7

#### Metadata

| Field        | Value    |
|--------------|----------|
| Entrypoint   | 0x03BA   |
| Data Size    | 16 bytes |
| Instructions | 2        |

```
      00 01 02 03 04 05 06 07  08 09 0A 0B 0C 0D 0E 0F
      -- -- -- -- -- -- -- --  -- -- -- -- -- -- -- --
03B0:                                5B 01 80 F8 FF FF            [.....
03C0: 7F F8 FF FF 7F 74 6C 6B  31 00                    .....tlk1.      
```

#### Opcodes

```
  0: 0x03BA [0x5B] LOAD_EXT_SCHEDULER: Load scheduler "tlk1" with entities [EventEntity, EventEntity], work=60*
  1: 0x03C9 [0x00] END_REQSTACK()
```

### Event 65535.8

#### Metadata

| Field        | Value    |
|--------------|----------|
| Entrypoint   | 0x03CA   |
| Data Size    | 14 bytes |
| Instructions | 2        |

```
      00 01 02 03 04 05 06 07  08 09 0A 0B 0C 0D 0E 0F
      -- -- -- -- -- -- -- --  -- -- -- -- -- -- -- --
03C0:                                53 F8 FF FF 7F F8            S.....
03D0: FF FF 7F 74 6C 6B 31 00                           ...tlk1.        
```

#### Opcodes

```
  0: 0x03CA [0x53] WAIT_SCHEDULER_TASK: Wait for scheduler "tlk1" with entities [EventEntity, EventEntity]
  1: 0x03D7 [0x00] END_REQSTACK()
```

### Event 65535.9

#### Metadata

| Field        | Value    |
|--------------|----------|
| Entrypoint   | 0x03D8   |
| Data Size    | 16 bytes |
| Instructions | 2        |

```
      00 01 02 03 04 05 06 07  08 09 0A 0B 0C 0D 0E 0F
      -- -- -- -- -- -- -- --  -- -- -- -- -- -- -- --
03D0:                          5B 01 80 F8 FF FF 7F F8          [.......
03E0: FF FF 7F 74 6C 62 30 00                           ...tlb0.        
```

#### Opcodes

```
  0: 0x03D8 [0x5B] LOAD_EXT_SCHEDULER: Load scheduler "tlb0" with entities [EventEntity, EventEntity], work=60*
  1: 0x03E7 [0x00] END_REQSTACK()
```

### Event 65535.10

#### Metadata

| Field        | Value    |
|--------------|----------|
| Entrypoint   | 0x03E8   |
| Data Size    | 14 bytes |
| Instructions | 2        |

```
      00 01 02 03 04 05 06 07  08 09 0A 0B 0C 0D 0E 0F
      -- -- -- -- -- -- -- --  -- -- -- -- -- -- -- --
03E0:                          53 F8 FF FF 7F F8 FF FF          S.......
03F0: 7F 74 6C 62 30 00                                 .tlb0.          
```

#### Opcodes

```
  0: 0x03E8 [0x53] WAIT_SCHEDULER_TASK: Wait for scheduler "tlb0" with entities [EventEntity, EventEntity]
  1: 0x03F5 [0x00] END_REQSTACK()
```

### Event 65535.11

#### Metadata

| Field        | Value    |
|--------------|----------|
| Entrypoint   | 0x03F6   |
| Data Size    | 16 bytes |
| Instructions | 2        |

```
      00 01 02 03 04 05 06 07  08 09 0A 0B 0C 0D 0E 0F
      -- -- -- -- -- -- -- --  -- -- -- -- -- -- -- --
03F0:                   5B 01  80 F8 FF FF 7F F8 FF FF        [.........
0400: 7F 74 6C 62 31 00                                 .tlb1.          
```

#### Opcodes

```
  0: 0x03F6 [0x5B] LOAD_EXT_SCHEDULER: Load scheduler "tlb1" with entities [EventEntity, EventEntity], work=60*
  1: 0x0405 [0x00] END_REQSTACK()
```

### Event 65535.12

#### Metadata

| Field        | Value    |
|--------------|----------|
| Entrypoint   | 0x0406   |
| Data Size    | 14 bytes |
| Instructions | 2        |

```
      00 01 02 03 04 05 06 07  08 09 0A 0B 0C 0D 0E 0F
      -- -- -- -- -- -- -- --  -- -- -- -- -- -- -- --
0400:                   53 F8  FF FF 7F F8 FF FF 7F 74        S........t
0410: 6C 62 31 00                                       lb1.            
```

#### Opcodes

```
  0: 0x0406 [0x53] WAIT_SCHEDULER_TASK: Wait for scheduler "tlb1" with entities [EventEntity, EventEntity]
  1: 0x0413 [0x00] END_REQSTACK()
```

### Event 65535.13

#### Metadata

| Field        | Value   |
|--------------|---------|
| Entrypoint   | 0x0414  |
| Data Size    | 1 bytes |
| Instructions | 1       |

```
      00 01 02 03 04 05 06 07  08 09 0A 0B 0C 0D 0E 0F
      -- -- -- -- -- -- -- --  -- -- -- -- -- -- -- --
0410:             00                                        .           
```

#### Opcodes

```
  0: 0x0414 [0x00] END_REQSTACK()
```

### Event 1104

#### Metadata

| Field        | Value   |
|--------------|---------|
| Entrypoint   | 0x0415  |
| Data Size    | 1 bytes |
| Instructions | 1       |

```
      00 01 02 03 04 05 06 07  08 09 0A 0B 0C 0D 0E 0F
      -- -- -- -- -- -- -- --  -- -- -- -- -- -- -- --
0410:                00                                      .          
```

#### Opcodes

```
  0: 0x0415 [0x00] END_REQSTACK()
```

### Event 65535.14

#### Metadata

| Field        | Value   |
|--------------|---------|
| Entrypoint   | 0x0416  |
| Data Size    | 1 bytes |
| Instructions | 1       |

```
      00 01 02 03 04 05 06 07  08 09 0A 0B 0C 0D 0E 0F
      -- -- -- -- -- -- -- --  -- -- -- -- -- -- -- --
0410:                   00                                    .         
```

#### Opcodes

```
  0: 0x0416 [0x00] END_REQSTACK()
```

### Event 1106

#### Metadata

| Field        | Value   |
|--------------|---------|
| Entrypoint   | 0x0417  |
| Data Size    | 1 bytes |
| Instructions | 1       |

```
      00 01 02 03 04 05 06 07  08 09 0A 0B 0C 0D 0E 0F
      -- -- -- -- -- -- -- --  -- -- -- -- -- -- -- --
0410:                      00                                  .        
```

#### Opcodes

```
  0: 0x0417 [0x00] END_REQSTACK()
```

### Event 1105

#### Metadata

| Field        | Value    |
|--------------|----------|
| Entrypoint   | 0x0418   |
| Data Size    | 69 bytes |
| Instructions | 20       |

```
      00 01 02 03 04 05 06 07  08 09 0A 0B 0C 0D 0E 0F
      -- -- -- -- -- -- -- --  -- -- -- -- -- -- -- --
0410:                          1E F0 FF FF 7F 6F 70 29          .....op)
0420: 08 0F 80 0F 01 13 1D 1D  80 23 1D 1E 80 23 29 08  .........#...#).
0430: 0F 80 0F 01 14 29 08 0F  80 0F 01 0F 1D 1F 80 23  .....).........#
0440: 1D 20 80 23 29 08 0F 80  0F 01 10 29 08 0F 80 0F  . .#)......)....
0450: 01 11 29 08 0F 80 0F 01  12 20 00 21 00           ..)...... .!.   
```

#### Opcodes

```
  0: 0x0418 [0x1E] EventEntity looks at LocalPlayer and starts talking
  1: 0x041D [0x6F] WAIT_FRAME_DELAY: Yield until WaitTime reaches zero
  2: 0x041E [0x70] WAIT_ENTITY_RENDER_FLAG: Wait while EventEntity->Render.Flags3 bit 2 is set (cancel turn if not)
  3: 0x041F [0x29] REQ_SET_WAIT(priority=0x08, entity_id=Abelard (ID: 17793039/0x010F800F), tag_num=0x13)
  4: 0x0426 [0x1D] PRINT_EVENT_MESSAGE(message_id=7389*)
    → "Have you heard of Lord Torresapet B Ordelle? It was feared he would die a demented death in Ordelle's Caves before he completed the map of those twisted tunnels."
  5: 0x0429 [0x23] WAIT_FOR_DIALOG_INTERACTION
  6: 0x042A [0x1D] PRINT_EVENT_MESSAGE(message_id=7390*)
    → "He gathered the facts about Gwynham Ironheart's life into a single volume. I have the book right there."
  7: 0x042D [0x23] WAIT_FOR_DIALOG_INTERACTION
  8: 0x042E [0x29] REQ_SET_WAIT(priority=0x08, entity_id=Abelard (ID: 17793039/0x010F800F), tag_num=0x14)
  9: 0x0435 [0x29] REQ_SET_WAIT(priority=0x08, entity_id=Abelard (ID: 17793039/0x010F800F), tag_num=0x0F)
 10: 0x043C [0x1D] PRINT_EVENT_MESSAGE(message_id=7391*)
    → "It's just that... Before that book came into my possession, Gwynham's daughter, Enid, tore out several pages and threw them away."
 11: 0x043F [0x23] WAIT_FOR_DIALOG_INTERACTION
 12: 0x0440 [0x1D] PRINT_EVENT_MESSAGE(message_id=7392*)
    → "I'm curious as to what was written on those pages, but I suppose there's a reason Enid removed them in the first place."
 13: 0x0443 [0x23] WAIT_FOR_DIALOG_INTERACTION
 14: 0x0444 [0x29] REQ_SET_WAIT(priority=0x08, entity_id=Abelard (ID: 17793039/0x010F800F), tag_num=0x10)
 15: 0x044B [0x29] REQ_SET_WAIT(priority=0x08, entity_id=Abelard (ID: 17793039/0x010F800F), tag_num=0x11)
 16: 0x0452 [0x29] REQ_SET_WAIT(priority=0x08, entity_id=Abelard (ID: 17793039/0x010F800F), tag_num=0x12)
 17: 0x0459 [0x20] SET_CLI_EVENT_UC_FLAG: Unlock player control
 18: 0x045B [0x21] END_EVENT
 19: 0x045C [0x00] END_REQSTACK()
```

### Event 1107

#### Metadata

| Field        | Value    |
|--------------|----------|
| Entrypoint   | 0x045D   |
| Data Size    | 29 bytes |
| Instructions | 10       |

```
      00 01 02 03 04 05 06 07  08 09 0A 0B 0C 0D 0E 0F
      -- -- -- -- -- -- -- --  -- -- -- -- -- -- -- --
0450:                                         1E F0 FF               ...
0460: FF 7F 6F 70 29 08 0F 80  0F 01 13 1D 21 80 23 29  ..op).......!.#)
0470: 08 0F 80 0F 01 14 20 00  21 00                    ...... .!.      
```

#### Opcodes

```
  0: 0x045D [0x1E] EventEntity looks at LocalPlayer and starts talking
  1: 0x0462 [0x6F] WAIT_FRAME_DELAY: Yield until WaitTime reaches zero
  2: 0x0463 [0x70] WAIT_ENTITY_RENDER_FLAG: Wait while EventEntity->Render.Flags3 bit 2 is set (cancel turn if not)
  3: 0x0464 [0x29] REQ_SET_WAIT(priority=0x08, entity_id=Abelard (ID: 17793039/0x010F800F), tag_num=0x13)
  4: 0x046B [0x1D] PRINT_EVENT_MESSAGE(message_id=7405*)
    → "Is that all you wanted to know? Now if you don't mind, I'll get to reading these pages you retrieved."
  5: 0x046E [0x23] WAIT_FOR_DIALOG_INTERACTION
  6: 0x046F [0x29] REQ_SET_WAIT(priority=0x08, entity_id=Abelard (ID: 17793039/0x010F800F), tag_num=0x14)
  7: 0x0476 [0x20] SET_CLI_EVENT_UC_FLAG: Unlock player control
  8: 0x0478 [0x21] END_EVENT
  9: 0x0479 [0x00] END_REQSTACK()
```

### Event 1108

#### Metadata

| Field        | Value   |
|--------------|---------|
| Entrypoint   | 0x047A  |
| Data Size    | 1 bytes |
| Instructions | 1       |

```
      00 01 02 03 04 05 06 07  08 09 0A 0B 0C 0D 0E 0F
      -- -- -- -- -- -- -- --  -- -- -- -- -- -- -- --
0470:                                00                           .     
```

#### Opcodes

```
  0: 0x047A [0x00] END_REQSTACK()
```

### Event 1109

#### Metadata

| Field        | Value    |
|--------------|----------|
| Entrypoint   | 0x047B   |
| Data Size    | 33 bytes |
| Instructions | 12       |

```
      00 01 02 03 04 05 06 07  08 09 0A 0B 0C 0D 0E 0F
      -- -- -- -- -- -- -- --  -- -- -- -- -- -- -- --
0470:                                   1E F0 FF FF 7F             .....
0480: 6F 70 29 08 0F 80 0F 01  13 1D 22 80 23 1D 23 80  op).......".#.#.
0490: 23 29 08 0F 80 0F 01 14  20 00 21 00              #)...... .!.    
```

#### Opcodes

```
  0: 0x047B [0x1E] EventEntity looks at LocalPlayer and starts talking
  1: 0x0480 [0x6F] WAIT_FRAME_DELAY: Yield until WaitTime reaches zero
  2: 0x0481 [0x70] WAIT_ENTITY_RENDER_FLAG: Wait while EventEntity->Render.Flags3 bit 2 is set (cancel turn if not)
  3: 0x0482 [0x29] REQ_SET_WAIT(priority=0x08, entity_id=Abelard (ID: 17793039/0x010F800F), tag_num=0x13)
  4: 0x0489 [0x1D] PRINT_EVENT_MESSAGE(message_id=7415*)
    → "Did the young lady really go into that cave in the Valkurm Dunes?"
  5: 0x048C [0x23] WAIT_FOR_DIALOG_INTERACTION
  6: 0x048D [0x1D] PRINT_EVENT_MESSAGE(message_id=7416*)
    → "She's either extremely brave or extremely foolish to try and reach Tavnazia through that vortex."
  7: 0x0490 [0x23] WAIT_FOR_DIALOG_INTERACTION
  8: 0x0491 [0x29] REQ_SET_WAIT(priority=0x08, entity_id=Abelard (ID: 17793039/0x010F800F), tag_num=0x14)
  9: 0x0498 [0x20] SET_CLI_EVENT_UC_FLAG: Unlock player control
 10: 0x049A [0x21] END_EVENT
 11: 0x049B [0x00] END_REQSTACK()
```

### Event 14

#### Metadata

| Field        | Value   |
|--------------|---------|
| Entrypoint   | 0x049C  |
| Data Size    | 1 bytes |
| Instructions | 1       |

```
      00 01 02 03 04 05 06 07  08 09 0A 0B 0C 0D 0E 0F
      -- -- -- -- -- -- -- --  -- -- -- -- -- -- -- --
0490:                                      00                       .   
```

#### Opcodes

```
  0: 0x049C [0x00] END_REQSTACK()
```

### Event 177

#### Metadata

| Field        | Value   |
|--------------|---------|
| Entrypoint   | 0x049D  |
| Data Size    | 1 bytes |
| Instructions | 1       |

```
      00 01 02 03 04 05 06 07  08 09 0A 0B 0C 0D 0E 0F
      -- -- -- -- -- -- -- --  -- -- -- -- -- -- -- --
0490:                                         00                     .  
```

#### Opcodes

```
  0: 0x049D [0x00] END_REQSTACK()
```

### Event 65535.15

#### Metadata

| Field        | Value    |
|--------------|----------|
| Entrypoint   | 0x049E   |
| Data Size    | 22 bytes |
| Instructions | 6        |

```
      00 01 02 03 04 05 06 07  08 09 0A 0B 0C 0D 0E 0F
      -- -- -- -- -- -- -- --  -- -- -- -- -- -- -- --
0490:                                            32 24                2$
04A0: 80 1F 00 25 80 26 80 27  80 1F 01 1E F0 FF FF 7F  ...%.&.'........
04B0: 1C 28 80 00                                       .(..            
```

#### Opcodes

```
  0: 0x049E [0x32] ExtData[1]->MainSpeed = 13* * 0.1
  1: 0x04A1 [0x1F] MOVE_ENTITY: EventEntity moves to X=-62.092*, Z=-1.905*, Y=-11.287*
  2: 0x04A9 [0x1F] MOVE_ENTITY: Update entity position (mode=1)
  3: 0x04AB [0x1E] EventEntity looks at LocalPlayer and starts talking
  4: 0x04B0 [0x1C] WAIT(30* ticks)
  5: 0x04B3 [0x00] END_REQSTACK()
```

### Event 178

#### Metadata

| Field        | Value   |
|--------------|---------|
| Entrypoint   | 0x04B4  |
| Data Size    | 1 bytes |
| Instructions | 1       |

```
      00 01 02 03 04 05 06 07  08 09 0A 0B 0C 0D 0E 0F
      -- -- -- -- -- -- -- --  -- -- -- -- -- -- -- --
04B0:             00                                        .           
```

#### Opcodes

```
  0: 0x04B4 [0x00] END_REQSTACK()
```

### Event 65535.16

#### Metadata

| Field        | Value    |
|--------------|----------|
| Entrypoint   | 0x04B5   |
| Data Size    | 55 bytes |
| Instructions | 9        |

```
      00 01 02 03 04 05 06 07  08 09 0A 0B 0C 0D 0E 0F
      -- -- -- -- -- -- -- --  -- -- -- -- -- -- -- --
04B0:                32 24 80  1F 00 29 80 2A 80 2B 80       2$...).*.+.
04C0: 1F 01 1E 7C 80 0F 01 1C  28 80 5B 01 80 0F 80 0F  ...|....(.[.....
04D0: 01 0F 80 0F 01 74 6C 6B  30 1C 2C 80 5B 01 80 0F  .....tlk0.,.[...
04E0: 80 0F 01 0F 80 0F 01 74  6C 6B 31 00              .......tlk1.    
```

#### Opcodes

```
  0: 0x04B5 [0x32] ExtData[1]->MainSpeed = 13* * 0.1
  1: 0x04B8 [0x1F] MOVE_ENTITY: EventEntity moves to X=-54.798*, Z=-11.891*, Y=-11.338*
  2: 0x04C0 [0x1F] MOVE_ENTITY: Update entity position (mode=1)
  3: 0x04C2 [0x1E] EventEntity looks at Gilgamesh (ID: 17793148/0x010F807C) and starts talking
  4: 0x04C7 [0x1C] WAIT(30* ticks)
  5: 0x04CA [0x5B] LOAD_EXT_SCHEDULER: Load scheduler "tlk0" with entities [Abelard (ID: 17793039/0x010F800F), Abelard (ID: 17793039/0x010F800F)], work=60*
  6: 0x04D9 [0x1C] WAIT(120* ticks)
  7: 0x04DC [0x5B] LOAD_EXT_SCHEDULER: Load scheduler "tlk1" with entities [Abelard (ID: 17793039/0x010F800F), Abelard (ID: 17793039/0x010F800F)], work=60*
  8: 0x04EB [0x00] END_REQSTACK()
```

### Event 181

#### Metadata

| Field        | Value   |
|--------------|---------|
| Entrypoint   | 0x04EC  |
| Data Size    | 1 bytes |
| Instructions | 1       |

```
      00 01 02 03 04 05 06 07  08 09 0A 0B 0C 0D 0E 0F
      -- -- -- -- -- -- -- --  -- -- -- -- -- -- -- --
04E0:                                      00                       .   
```

#### Opcodes

```
  0: 0x04EC [0x00] END_REQSTACK()
```
