# 17793027 - Serafin

## Common Data

| Field            | Value             |
|------------------|-------------------|
| Zone             | Selbina (ID: 248) |
| Block Size       | 200 bytes         |
| Total Events     | 5                 |
| References Count | 7                 |

## List of Events

| Event ID                 | Entrypoint   |   Size |   Instructions |
|--------------------------|--------------|--------|----------------|
| [65535](#event-65535)    | 0x0000       |      1 |              1 |
| [81](#event-81)          | 0x0001       |      9 |              3 |
| [65535.1](#event-655351) | 0x000A       |     75 |             17 |
| [65535.2](#event-655352) | 0x0055       |     40 |              8 |
| [65535.3](#event-655353) | 0x007D       |      9 |              3 |

## DAT References (imed_data)

|   Index | Hex Value   |   Dec Value |
|---------|-------------|-------------|
|       0 | 0x0028      |          40 |
|       1 | 0xFFFF226E  |  4294910574 |
|       2 | 0x1638      |        5688 |
|       3 | 0xFFFFD6C2  |  4294956738 |
|       4 | 0x0000      |           0 |
|       5 | 0x1AB9      |        6841 |
|       6 | 0x1ABD      |        6845 |

## String References

- **6841**: Ah, perfect! We just arrived as well.
- **6845**: You saved our lives, friend! Let us thank you as well. Here, take this!

## Events

### Event 65535

#### Metadata

| Field        | Value   |
|--------------|---------|
| Entrypoint   | 0x0000  |
| Data Size    | 1 bytes |
| Instructions | 1       |

```
      00 01 02 03 04 05 06 07  08 09 0A 0B 0C 0D 0E 0F
      -- -- -- -- -- -- -- --  -- -- -- -- -- -- -- --
0000: 00                                                .               
```

#### Opcodes

```
  0: 0x0000 [0x00] END_REQSTACK()
```

### Event 81

#### Metadata

| Field        | Value   |
|--------------|---------|
| Entrypoint   | 0x0001  |
| Data Size    | 9 bytes |
| Instructions | 3       |

```
      00 01 02 03 04 05 06 07  08 09 0A 0B 0C 0D 0E 0F
      -- -- -- -- -- -- -- --  -- -- -- -- -- -- -- --
0000:    22 00 2F 00 03 80 0F  01 00                     "./......      
```

#### Opcodes

```
  0: 0x0001 [0x22] ENTITY_HIDE_FLAG(enabled=0x00)
  1: 0x0003 [0x2F] Serafin (ID: 17793027/0x010F8003)->Render.Flags0 &= ~0x80000 // Bit 19
  2: 0x0009 [0x00] END_REQSTACK()
```

### Event 65535.1

#### Metadata

| Field        | Value    |
|--------------|----------|
| Entrypoint   | 0x000A   |
| Data Size    | 75 bytes |
| Instructions | 17       |

```
      00 01 02 03 04 05 06 07  08 09 0A 0B 0C 0D 0E 0F
      -- -- -- -- -- -- -- --  -- -- -- -- -- -- -- --
0000:                                32 00 80 1F 00 01            2.....
0010: 80 02 80 03 80 1F 01 4A  F0 FF FF 7F F8 FF FF 7F  .......J........
0020: 4A 02 80 0F 01 F8 FF FF  7F 6F 76 F0 FF FF 7F 6F  J........ov....o
0030: 76 02 80 0F 01 1E F0 FF  FF 7F 6F 70 66 04 80 F8  v.........opf...
0040: FF FF 7F F8 FF FF 7F 74  6C 6B 30 1D 05 80 23 5E  .......tlk0...#^
0050: 69 64 6C 30 00                                    idl0.           
```

#### Opcodes

```
  0: 0x000A [0x32] ExtData[1]->MainSpeed = 40* * 0.1
  1: 0x000D [0x1F] MOVE_ENTITY: EventEntity moves to X=-56.722*, Z=5.688*, Y=-10.558*
  2: 0x0015 [0x1F] MOVE_ENTITY: Update entity position (mode=1)
  3: 0x0017 [0x4A] LocalPlayer looks at EventEntity
  4: 0x0020 [0x4A] Thunder Hawk (ID: 17793026/0x010F8002) looks at EventEntity
  5: 0x0029 [0x6F] WAIT_FRAME_DELAY: Yield until WaitTime reaches zero
  6: 0x002A [0x76] CHECK_ENTITY_RENDER_FLAGS: Wait until LocalPlayer Render.Flags0 and Render.Flags3 conditions are met
  7: 0x002F [0x6F] WAIT_FRAME_DELAY: Yield until WaitTime reaches zero
  8: 0x0030 [0x76] CHECK_ENTITY_RENDER_FLAGS: Wait until Thunder Hawk (ID: 17793026/0x010F8002) Render.Flags0 and Render.Flags3 conditions are met
  9: 0x0035 [0x1E] EventEntity looks at LocalPlayer and starts talking
 10: 0x003A [0x6F] WAIT_FRAME_DELAY: Yield until WaitTime reaches zero
 11: 0x003B [0x70] WAIT_ENTITY_RENDER_FLAG: Wait while EventEntity->Render.Flags3 bit 2 is set (cancel turn if not)
 12: 0x003C [0x66] LOAD_EXT_SCHEDULER_MAIN: Load scheduler "tlk0" with entities [EventEntity, EventEntity], work=0*
 13: 0x004B [0x1D] PRINT_EVENT_MESSAGE(message_id=6841*)
    → "Ah, perfect! We just arrived as well."
 14: 0x004E [0x23] WAIT_FOR_DIALOG_INTERACTION
 15: 0x004F [0x5E] EventEntity goes idle (kills current action) (animation: "idl0")
 16: 0x0054 [0x00] END_REQSTACK()
```

### Event 65535.2

#### Metadata

| Field        | Value    |
|--------------|----------|
| Entrypoint   | 0x0055   |
| Data Size    | 40 bytes |
| Instructions | 8        |

```
      00 01 02 03 04 05 06 07  08 09 0A 0B 0C 0D 0E 0F
      -- -- -- -- -- -- -- --  -- -- -- -- -- -- -- --
0050:                66 04 80  F8 FF FF 7F F8 FF FF 7F       f..........
0060: 74 6C 6B 30 1D 06 80 4A  F0 FF FF 7F F8 FF FF 7F  tlk0...J........
0070: 6F 76 F0 FF FF 7F 23 5E  69 64 6C 30 00           ov....#^idl0.   
```

#### Opcodes

```
  0: 0x0055 [0x66] LOAD_EXT_SCHEDULER_MAIN: Load scheduler "tlk0" with entities [EventEntity, EventEntity], work=0*
  1: 0x0064 [0x1D] PRINT_EVENT_MESSAGE(message_id=6845*)
    → "You saved our lives, friend! Let us thank you as well. Here, take this!"
  2: 0x0067 [0x4A] LocalPlayer looks at EventEntity
  3: 0x0070 [0x6F] WAIT_FRAME_DELAY: Yield until WaitTime reaches zero
  4: 0x0071 [0x76] CHECK_ENTITY_RENDER_FLAGS: Wait until LocalPlayer Render.Flags0 and Render.Flags3 conditions are met
  5: 0x0076 [0x23] WAIT_FOR_DIALOG_INTERACTION
  6: 0x0077 [0x5E] EventEntity goes idle (kills current action) (animation: "idl0")
  7: 0x007C [0x00] END_REQSTACK()
```

### Event 65535.3

#### Metadata

| Field        | Value   |
|--------------|---------|
| Entrypoint   | 0x007D  |
| Data Size    | 9 bytes |
| Instructions | 3       |

```
      00 01 02 03 04 05 06 07  08 09 0A 0B 0C 0D 0E 0F
      -- -- -- -- -- -- -- --  -- -- -- -- -- -- -- --
0070:                                         22 01 2F               "./
0080: 01 03 80 0F 01 00                                 ......          
```

#### Opcodes

```
  0: 0x007D [0x22] ENTITY_HIDE_FLAG(enabled=0x01)
  1: 0x007F [0x2F] Serafin (ID: 17793027/0x010F8003)->Render.Flags0 |= 0x80000 // Bit 19
  2: 0x0085 [0x00] END_REQSTACK()
```
