# 17793040 - Naillina

## Common Data

| Field            | Value             |
|------------------|-------------------|
| Zone             | Selbina (ID: 248) |
| Block Size       | 1480 bytes        |
| Total Events     | 4                 |
| References Count | 47                |

## List of Events

| Event ID              | Entrypoint   |   Size |   Instructions |
|-----------------------|--------------|--------|----------------|
| [65535](#event-65535) | 0x0000       |      1 |              1 |
| [14](#event-14)       | 0x0001       |    329 |             70 |
| [177](#event-177)     | 0x014A       |    858 |             97 |
| [181](#event-181)     | 0x04A4       |     71 |             11 |

## DAT References (imed_data)

|   Index | Hex Value   |   Dec Value |
|---------|-------------|-------------|
|       0 | 0x0001      |           1 |
|       1 | 0x0000      |           0 |
|       2 | 0x001E      |          30 |
|       3 | 0x1A2A      |        6698 |
|       4 | 0x1F36      |        7990 |
|       5 | 0x1A2C      |        6700 |
|       6 | 0x1A2D      |        6701 |
|       7 | 0x1A2E      |        6702 |
|       8 | 0x1A2F      |        6703 |
|       9 | 0x1A30      |        6704 |
|      10 | 0x1A31      |        6705 |
|      11 | 0x0002      |           2 |
|      12 | 0x1A32      |        6706 |
|      13 | 0x1A33      |        6707 |
|      14 | 0x0003      |           3 |
|      15 | 0x1A36      |        6710 |
|      16 | 0x1A34      |        6708 |
|      17 | 0x1A35      |        6709 |
|      18 | 0x00C8      |         200 |
|      19 | 0x001B      |          27 |
|      20 | 0x01E4      |         484 |
|      21 | 0xFFFF07A9  |  4294903721 |
|      22 | 0xFFFFD3E9  |  4294956009 |
|      23 | 0x0310      |         784 |
|      24 | 0xFFFF0F09  |  4294905609 |
|      25 | 0xFFFFEA41  |  4294961729 |
|      26 | 0x0B63      |        2915 |
|      27 | 0x02F8      |         760 |
|      28 | 0x000F      |          15 |
|      29 | 0x0021      |          33 |
|      30 | 0x1F37      |        7991 |
|      31 | 0x0007      |           7 |
|      32 | 0x005A      |          90 |
|      33 | 0x1F38      |        7992 |
|      34 | 0x1F39      |        7993 |
|      35 | 0x003C      |          60 |
|      36 | 0x1F3A      |        7994 |
|      37 | 0x1F3B      |        7995 |
|      38 | 0x1F3C      |        7996 |
|      39 | 0x1F3D      |        7997 |
|      40 | 0x237A      |        9082 |
|      41 | 0x1F3E      |        7998 |
|      42 | 0x1F3F      |        7999 |
|      43 | 0x1F40      |        8000 |
|      44 | 0x1F41      |        8001 |
|      45 | 0x1F42      |        8002 |
|      46 | 0x1F43      |        8003 |

## String References

- **6698**: Welcome to the mayor's residence. How can I help you?
- **6700**: I can tell you much about Selbina.
- **6701**: Which subject interests you? [History./Geography./Industry./That's enough.]
- **6702**: Very well. Selbina was established by Bastok as a haven for ships bearing Gustaberg ore. She soon grew into a thriving port town.
- **6703**: Selbina declared neutrality at the outbreak of the Great War and maintains her independence to this day.
- **6704**: Very well. Our fair town lies in the middle of Valkurm Dunes, here in central Quon.
- **6705**: Most of the coastline consists of dunes and shallows. Selbina stands atop the only suitable harbor.
- **6706**: Very well. Thanks to the harbor, industry in Selbina has prospered throughout the ages.
- **6707**: But airships are the wave of the future, so we are trying to develop local industries such as fishing and agriculture.
- **6708**: Very well. Here we have regional salesrooms of the Fishermen's and Weavers' Guilds, as well as an inn and the sea travel agency.
- **6709**: You can purchase weapons from Torapiont inside the inn, and local items from Dohdjuma in front of the warehouse.
- **6710**: Please come back if you have any questions. Good day.
- **7990**: What would you like to know? [You wanted an adventurer?/About this town./About the shops and services here./Nothing.]

## Events

### Event 65535

#### Metadata

| Field        | Value   |
|--------------|---------|
| Entrypoint   | 0x0000  |
| Data Size    | 1 bytes |
| Instructions | 1       |

```
      00 01 02 03 04 05 06 07  08 09 0A 0B 0C 0D 0E 0F
      -- -- -- -- -- -- -- --  -- -- -- -- -- -- -- --
0000: 00                                                .               
```

#### Opcodes

```
  0: 0x0000 [0x00] END_REQSTACK()
```

### Event 14

#### Metadata

| Field        | Value     |
|--------------|-----------|
| Entrypoint   | 0x0001    |
| Data Size    | 329 bytes |
| Instructions | 25        |

```
      00 01 02 03 04 05 06 07  08 09 0A 0B 0C 0D 0E 0F
      -- -- -- -- -- -- -- --  -- -- -- -- -- -- -- --
0000:    02 09 10 00 80 00 11  00 03 00 00 01 80 01 16   ...............
0010: 00 03 00 00 00 80 1E F0  FF FF 7F 6F 70 66 02 80  ...........opf..
0020: F8 FF FF 7F F8 FF FF 7F  74 6C 6B 30 1D 03 80 23  ........tlk0...#
0030: 5E 69 64 6C 30 24 04 80  01 80 00 00 25 02 00 10  ^idl0$......%...
0040: 01 80 00 4C 00 1A 4F 01  21 01 49 01 02 00 10 00  ...L..O.!.I.....
0050: 80 00 05 01 66 02 80 F8  FF FF 7F F8 FF FF 7F 74  ....f..........t
0060: 6C 6B 30 1D 05 80 23 5E  69 64 6C 30 24 06 80 01  lk0...#^idl0$...
0070: 80 01 80 25 02 00 10 01  80 00 99 00 66 02 80 F8  ...%........f...
0080: FF FF 7F F8 FF FF 7F 74  6C 6B 30 1D 07 80 23 1D  .......tlk0...#.
0090: 08 80 23 01 30 00 01 02  01 02 00 10 00 80 00 BE  ..#.0...........
00A0: 00 66 02 80 F8 FF FF 7F  F8 FF FF 7F 74 6C 6B 30  .f..........tlk0
00B0: 1D 09 80 23 1D 0A 80 23  01 30 00 01 02 01 02 00  ...#...#.0......
00C0: 10 0B 80 00 E3 00 66 02  80 F8 FF FF 7F F8 FF FF  ......f.........
00D0: 7F 74 6C 6B 30 1D 0C 80  23 1D 0D 80 23 01 30 00  .tlk0...#...#.0.
00E0: 01 02 01 02 00 10 0E 80  00 02 01 66 02 80 F8 FF  ...........f....
00F0: FF 7F F8 FF FF 7F 74 6C  6B 30 1D 0F 80 23 21 01  ......tlk0...#!.
0100: 02 01 01 49 01 02 00 10  0B 80 00 2A 01 66 02 80  ...I.......*.f..
0110: F8 FF FF 7F F8 FF FF 7F  74 6C 6B 30 1D 10 80 23  ........tlk0...#
0120: 1D 11 80 23 01 30 00 01  49 01 02 00 10 0E 80 00  ...#.0..I.......
0130: 49 01 66 02 80 F8 FF FF  7F F8 FF FF 7F 74 6C 6B  I.f..........tlk
0140: 30 1D 0F 80 23 21 01 49  01 00                    0...#!.I..      
```

#### Opcodes

```
  0: 0x0001 [0x02] IF !(Work_Zone[9] == 1*) GOTO 0x0011
  1: 0x0009 [0x03] ExtData[1]->WorkLocal[0] = 0*
  2: 0x000E [0x01] GOTO 0x0016
  3: 0x0011 [0x03] ExtData[1]->WorkLocal[0] = 1*

SUBROUTINE_0016:
  4: 0x0016 [0x1E] EventEntity looks at LocalPlayer and starts talking
  5: 0x001B [0x6F] WAIT_FRAME_DELAY: Yield until WaitTime reaches zero
  6: 0x001C [0x70] WAIT_ENTITY_RENDER_FLAG: Wait while EventEntity->Render.Flags3 bit 2 is set (cancel turn if not)
  7: 0x001D [0x66] LOAD_EXT_SCHEDULER_MAIN: Load scheduler "tlk0" with entities [EventEntity, EventEntity], work=30*
  8: 0x002C [0x1D] PRINT_EVENT_MESSAGE(message_id=6698*)
    → "Welcome to the mayor's residence. How can I help you?"
  9: 0x002F [0x23] WAIT_FOR_DIALOG_INTERACTION

SUBROUTINE_0030:
 10: 0x0030 [0x5E] EventEntity goes idle (kills current action) (animation: "idl0")
 11: 0x0035 [0x24] CREATE_DIALOG(message_id=7990*, default_option=0*, option_flags=ExtData[1]->WorkLocal[0])
    → "What would you like to know? [You wanted an adventurer?/About this town./About the shops and services here./Nothing.]"
 12: 0x003C [0x25] WAIT_DIALOG_SELECT()
 13: 0x003D [0x02] IF !(Work_Zone[0] == 0*) GOTO 0x004C
 14: 0x0045 [0x1A] CALL_SUBROUTINE(address=0x014F)
 15: 0x0048 [0x21] END_EVENT

SUBROUTINE_0102:
 16: 0x0102 [0x01] GOTO 0x0149
 17: 0x0105 [0x02] IF !(Work_Zone[0] == 2*) GOTO 0x012A
 18: 0x010D [0x66] LOAD_EXT_SCHEDULER_MAIN: Load scheduler "tlk0" with entities [EventEntity, EventEntity], work=30*
 19: 0x011C [0x1D] PRINT_EVENT_MESSAGE(message_id=6708*)
    → "Very well. Here we have regional salesrooms of the Fishermen's and Weavers' Guilds, as well as an inn and the sea travel agency."
 20: 0x011F [0x23] WAIT_FOR_DIALOG_INTERACTION
 21: 0x0120 [0x1D] PRINT_EVENT_MESSAGE(message_id=6709*)
    → "You can purchase weapons from Torapiont inside the inn, and local items from Dohdjuma in front of the warehouse."
 22: 0x0123 [0x23] WAIT_FOR_DIALOG_INTERACTION
 23: 0x0124 [0x01] GOTO 0x0030

SUBROUTINE_0149:
 24: 0x0149 [0x00] END_REQSTACK()
```

#### Data or dead code:

```
# Dead code (unreachable instructions):
     0x0049 [0x01] GOTO 0x0149
     0x0096 [0x01] GOTO 0x0102
     0x00BB [0x01] GOTO 0x0102
     0x00E0 [0x01] GOTO 0x0102
     0x00FF [0x01] GOTO 0x0102
# Dead code (unreachable instructions):
     0x0127 [0x01] GOTO 0x0149
     0x0146 [0x01] GOTO 0x0149
```

### Event 177

#### Metadata

| Field        | Value     |
|--------------|-----------|
| Entrypoint   | 0x014A    |
| Data Size    | 858 bytes |
| Instructions | 97        |

```
      00 01 02 03 04 05 06 07  08 09 0A 0B 0C 0D 0E 0F
      -- -- -- -- -- -- -- --  -- -- -- -- -- -- -- --
0140:                                1A 4F 01 21 00 42            .O.!.B
0150: 45 12 80 F8 FF FF 7F F8  FF FF 7F 66 64 6F 31 01  E..........fdo1.
0160: 80 55 12 80 F8 FF FF 7F  F8 FF FF 7F 66 64 6F 31  .U..........fdo1
0170: 46 01 38 13 80 75 00 14  80 75 01 92 01 10 80 0F  F.8..u...u......
0180: 01 92 01 0F 80 0F 01 94  01 10 80 0F 01 94 01 0F  ................
0190: 80 0F 01 BA F0 FF FF 7F  15 80 01 80 16 80 17 80  ................
01A0: BA 0F 80 0F 01 18 80 19  80 16 80 1A 80 80 F0 FF  ................
01B0: FF 7F 80 10 80 0F 01 80  0F 80 0F 01 4A 10 80 0F  ............J...
01C0: 01 F0 FF FF 7F 4A F0 FF  FF 7F 10 80 0F 01 4A 0F  .....J........J.
01D0: 80 0F 01 F0 FF FF 7F 1C  02 80 45 1B 80 F8 FF FF  ..........E.....
01E0: 7F F8 FF FF 7F 73 30 33  37 01 80 1C 1C 80 45 12  .....s037.....E.
01F0: 80 F8 FF FF 7F F8 FF FF  7F 66 64 69 31 01 80 66  .........fdi1..f
0200: 1D 80 10 80 0F 01 10 80  0F 01 74 6C 62 30 2B 10  ..........tlb0+.
0210: 80 0F 01 1E 80 23 66 1D  80 10 80 0F 01 10 80 0F  .....#f.........
0220: 01 74 6C 62 31 6E F0 FF  FF 7F 1F 80 99 F0 FF FF  .tlb1n..........
0230: 7F 1C 20 80 52 1B 80 F8  FF FF 7F F8 FF FF 7F 73  .. .R..........s
0240: 30 33 37 45 1B 80 F8 FF  FF 7F F8 FF FF 7F 73 30  037E..........s0
0250: 33 38 01 80 66 02 80 10  80 0F 01 10 80 0F 01 74  38..f..........t
0260: 6C 6B 30 2B 10 80 0F 01  21 80 23 66 02 80 10 80  lk0+....!.#f....
0270: 0F 01 10 80 0F 01 74 6C  6B 31 27 05 0F 80 0F 01  ......tlk1'.....
0280: 25 1C 02 80 52 1B 80 F8  FF FF 7F F8 FF FF 7F 73  %...R..........s
0290: 30 33 38 45 1B 80 F8 FF  FF 7F F8 FF FF 7F 73 30  038E..........s0
02A0: 33 39 01 80 4A F0 FF FF  7F 0F 80 0F 01 2B 0F 80  39..J........+..
02B0: 0F 01 22 80 23 2A 05 0F  80 0F 01 52 1B 80 F8 FF  ..".#*.....R....
02C0: FF 7F F8 FF FF 7F 73 30  33 39 45 1B 80 F8 FF FF  ......s039E.....
02D0: 7F F8 FF FF 7F 73 30 34  30 01 80 5B 23 80 0F 80  .....s040..[#...
02E0: 0F 01 0F 80 0F 01 74 6C  6B 30 2B 0F 80 0F 01 24  ......tlk0+....$
02F0: 80 23 2B 0F 80 0F 01 25  80 23 5B 23 80 0F 80 0F  .#+....%.#[#....
0300: 01 0F 80 0F 01 74 6C 6B  31 52 1B 80 F8 FF FF 7F  .....tlk1R......
0310: F8 FF FF 7F 73 30 34 30  45 1B 80 F8 FF FF 7F F8  ....s040E.......
0320: FF FF 7F 73 30 34 31 01  80 2B 0F 80 0F 01 26 80  ...s041..+....&.
0330: 23 5B 23 80 0F 80 0F 01  0F 80 0F 01 74 6C 62 30  #[#.........tlb0
0340: 2B 0F 80 0F 01 27 80 23  03 03 10 28 80 2B 0F 80  +....'.#...(.+..
0350: 0F 01 29 80 23 5B 23 80  0F 80 0F 01 0F 80 0F 01  ..).#[#.........
0360: 74 6C 62 31 52 1B 80 F8  FF FF 7F F8 FF FF 7F 73  tlb1R..........s
0370: 30 34 31 45 1B 80 F8 FF  FF 7F F8 FF FF 7F 73 30  041E..........s0
0380: 34 32 01 80 66 1D 80 10  80 0F 01 10 80 0F 01 74  42..f..........t
0390: 6C 62 30 2B 10 80 0F 01  2A 80 23 66 1D 80 10 80  lb0+....*.#f....
03A0: 0F 01 10 80 0F 01 74 6C  62 31 52 1B 80 F8 FF FF  ......tlb1R.....
03B0: 7F F8 FF FF 7F 73 30 34  32 45 1B 80 F8 FF FF 7F  .....s042E......
03C0: F8 FF FF 7F 73 30 34 33  01 80 5B 23 80 0F 80 0F  ....s043..[#....
03D0: 01 0F 80 0F 01 74 6C 6B  30 2B 0F 80 0F 01 2B 80  .....tlk0+....+.
03E0: 23 03 03 10 28 80 2B 0F  80 0F 01 2C 80 23 52 1B  #...(.+....,.#R.
03F0: 80 F8 FF FF 7F F8 FF FF  7F 73 30 34 33 45 1B 80  .........s043E..
0400: F8 FF FF 7F F8 FF FF 7F  73 30 34 34 01 80 2B 0F  ........s044..+.
0410: 80 0F 01 2D 80 23 5B 23  80 0F 80 0F 01 0F 80 0F  ...-.#[#........
0420: 01 74 6C 6B 31 52 1B 80  F8 FF FF 7F F8 FF FF 7F  .tlk1R..........
0430: 73 30 34 34 45 1B 80 F8  FF FF 7F F8 FF FF 7F 73  s044E..........s
0440: 30 34 35 01 80 66 02 80  10 80 0F 01 10 80 0F 01  045..f..........
0450: 74 6C 6B 30 2B 10 80 0F  01 2E 80 23 45 12 80 F8  tlk0+......#E...
0460: FF FF 7F F8 FF FF 7F 66  64 6F 31 01 80 55 12 80  .......fdo1..U..
0470: F8 FF FF 7F F8 FF FF 7F  66 64 6F 31 52 1B 80 F8  ........fdo1R...
0480: FF FF 7F F8 FF FF 7F 73  30 34 35 46 00 45 12 80  .......s045F.E..
0490: F8 FF FF 7F F8 FF FF 7F  66 64 69 32 01 80 03 01  ........fdi2....
04A0: 10 00 80 1B                                       ....            
```

#### Opcodes

```
  0: 0x014A [0x1A] CALL_SUBROUTINE(address=0x014F)
  1: 0x014D [0x21] END_EVENT
  2: 0x014E [0x00] END_REQSTACK()

SUBROUTINE_014F:
  3: 0x014F [0x42] SET_CLI_EVENT_CANCEL_DATA()
  4: 0x0150 [0x45] LOAD_SCHEDULED_TASK: Load scheduler "fdo1" with entities [EventEntity, EventEntity], work=[200*, 0*]
  5: 0x0161 [0x55] WAIT_LOAD_SCHEDULER: Wait for scheduler "fdo1" with entities [EventEntity, EventEntity], work=200*
  6: 0x0170 [0x46] CAMERA_CONTROL: Disable user control
  7: 0x0172 [0x38] SET_CLIENT_EVENT_MODE(mode=27*)
  8: 0x0175 [0x75] LOAD_ROOM(Load indoor room, room=484*)
  9: 0x0179 [0x75] LOAD_ROOM(No action)
 10: 0x017B [0x92] Naillina (ID: 17793040/0x010F8010)->Render.Flags3 ^= 0x01
 11: 0x0181 [0x92] Abelard (ID: 17793039/0x010F800F)->Render.Flags3 ^= 0x01
 12: 0x0187 [0x94] Naillina (ID: 17793040/0x010F8010)->Render.Flags3 ^= 0x01
 13: 0x018D [0x94] Abelard (ID: 17793039/0x010F800F)->Render.Flags3 ^= 0x01
 14: 0x0193 [0xBA] SET_ENTITY_POSITION(entity_id=LocalPlayer, pos_x=-63.575*, pos_z=0.000*, pos_y=-11.287*, direction=68.9°*)
 15: 0x01A0 [0xBA] SET_ENTITY_POSITION(entity_id=Abelard (ID: 17793039/0x010F800F), pos_x=-61.687*, pos_z=-5.567*, pos_y=-11.287*, direction=256.2°*)
 16: 0x01AD [0x80] LOAD_WAIT(entity=LocalPlayer)
 17: 0x01B2 [0x80] LOAD_WAIT(entity=Naillina (ID: 17793040/0x010F8010))
 18: 0x01B7 [0x80] LOAD_WAIT(entity=Abelard (ID: 17793039/0x010F800F))
 19: 0x01BC [0x4A] Naillina (ID: 17793040/0x010F8010) looks at LocalPlayer
 20: 0x01C5 [0x4A] LocalPlayer looks at Naillina (ID: 17793040/0x010F8010)
 21: 0x01CE [0x4A] Abelard (ID: 17793039/0x010F800F) looks at LocalPlayer
 22: 0x01D7 [0x1C] WAIT(30* ticks)
 23: 0x01DA [0x45] LOAD_SCHEDULED_TASK: Load scheduler "s037" with entities [EventEntity, EventEntity], work=[760*, 0*]
 24: 0x01EB [0x1C] WAIT(15* ticks)
 25: 0x01EE [0x45] LOAD_SCHEDULED_TASK: Load scheduler "fdi1" with entities [EventEntity, EventEntity], work=[200*, 0*]
 26: 0x01FF [0x66] LOAD_EXT_SCHEDULER_MAIN: Load scheduler "tlb0" with entities [Naillina (ID: 17793040/0x010F8010), Naillina (ID: 17793040/0x010F8010)], work=33*
 27: 0x020E [0x2B] Naillina (ID: 17793040/0x010F8010) [7991*]:
    → "Ah, you must be <Player>."
 28: 0x0215 [0x23] WAIT_FOR_DIALOG_INTERACTION
 29: 0x0216 [0x66] LOAD_EXT_SCHEDULER_MAIN: Load scheduler "tlb1" with entities [Naillina (ID: 17793040/0x010F8010), Naillina (ID: 17793040/0x010F8010)], work=33*
 30: 0x0225 [0x6E] LocalPlayer uses emote 7*
 31: 0x022C [0x99] Wait for LocalPlayer animation to complete
 32: 0x0231 [0x1C] WAIT(90* ticks)
 33: 0x0234 [0x52] END_LOAD_SCHEDULER: End scheduler "s037" with entities [EventEntity, EventEntity], work=760*
 34: 0x0243 [0x45] LOAD_SCHEDULED_TASK: Load scheduler "s038" with entities [EventEntity, EventEntity], work=[760*, 0*]
 35: 0x0254 [0x66] LOAD_EXT_SCHEDULER_MAIN: Load scheduler "tlk0" with entities [Naillina (ID: 17793040/0x010F8010), Naillina (ID: 17793040/0x010F8010)], work=30*
 36: 0x0263 [0x2B] Naillina (ID: 17793040/0x010F8010) [7992*]:
    → "Thank you for answering the summons. One of the mayor's confidantes has been asking for you."
 37: 0x026A [0x23] WAIT_FOR_DIALOG_INTERACTION
 38: 0x026B [0x66] LOAD_EXT_SCHEDULER_MAIN: Load scheduler "tlk1" with entities [Naillina (ID: 17793040/0x010F8010), Naillina (ID: 17793040/0x010F8010)], work=30*
 39: 0x027A [0x27] REQ_SET(priority=0x05, entity_id=Abelard (ID: 17793039/0x010F800F), tag_num=0x25)
 40: 0x0281 [0x1C] WAIT(30* ticks)
 41: 0x0284 [0x52] END_LOAD_SCHEDULER: End scheduler "s038" with entities [EventEntity, EventEntity], work=760*
 42: 0x0293 [0x45] LOAD_SCHEDULED_TASK: Load scheduler "s039" with entities [EventEntity, EventEntity], work=[760*, 0*]
 43: 0x02A4 [0x4A] LocalPlayer looks at Abelard (ID: 17793039/0x010F800F)
 44: 0x02AD [0x2B] Abelard (ID: 17793039/0x010F800F) [7993*]:
    → "I'm Abelard, mayor of this village. It's so tiny, you see, that all I do is mediate when there are disagreements."
 45: 0x02B4 [0x23] WAIT_FOR_DIALOG_INTERACTION
 46: 0x02B5 [0x2A] GET_REQ_LEVEL(level=5, entity_id=Abelard (ID: 17793039/0x010F800F))
 47: 0x02BB [0x52] END_LOAD_SCHEDULER: End scheduler "s039" with entities [EventEntity, EventEntity], work=760*
 48: 0x02CA [0x45] LOAD_SCHEDULED_TASK: Load scheduler "s040" with entities [EventEntity, EventEntity], work=[760*, 0*]
 49: 0x02DB [0x5B] LOAD_EXT_SCHEDULER: Load scheduler "tlk0" with entities [Abelard (ID: 17793039/0x010F800F), Abelard (ID: 17793039/0x010F800F)], work=60*
 50: 0x02EA [0x2B] Abelard (ID: 17793039/0x010F800F) [7994*]:
    → "A pira...entrepreneur associate of mine known as Gilgamesh has had your name on his lips the past several days."
 51: 0x02F1 [0x23] WAIT_FOR_DIALOG_INTERACTION
 52: 0x02F2 [0x2B] Abelard (ID: 17793039/0x010F800F) [7995*]:
    → "He rescued a young woman adrift at sea, and she spoke quite highly of you when she woke up."
 53: 0x02F9 [0x23] WAIT_FOR_DIALOG_INTERACTION
 54: 0x02FA [0x5B] LOAD_EXT_SCHEDULER: Load scheduler "tlk1" with entities [Abelard (ID: 17793039/0x010F800F), Abelard (ID: 17793039/0x010F800F)], work=60*
 55: 0x0309 [0x52] END_LOAD_SCHEDULER: End scheduler "s040" with entities [EventEntity, EventEntity], work=760*
 56: 0x0318 [0x45] LOAD_SCHEDULED_TASK: Load scheduler "s041" with entities [EventEntity, EventEntity], work=[760*, 0*]
 57: 0x0329 [0x2B] Abelard (ID: 17793039/0x010F800F) [7996*]:
    → "Finding you has removed one burden off my shoulders, but there remains yet another."
 58: 0x0330 [0x23] WAIT_FOR_DIALOG_INTERACTION
 59: 0x0331 [0x5B] LOAD_EXT_SCHEDULER: Load scheduler "tlb0" with entities [Abelard (ID: 17793039/0x010F800F), Abelard (ID: 17793039/0x010F800F)], work=60*
 60: 0x0340 [0x2B] Abelard (ID: 17793039/0x010F800F) [7997*]:
    → "You see, Gilgamesh made a second request."
 61: 0x0347 [0x23] WAIT_FOR_DIALOG_INTERACTION
 62: 0x0348 [0x03] Work_Zone[3] = 9082*
 63: 0x034D [0x2B] Abelard (ID: 17793039/0x010F800F) [7998*]:
    → "He's looking for $1 that can be procured from some of the large bees around the Crag of Holla or Crag of Dem."
 64: 0x0354 [0x23] WAIT_FOR_DIALOG_INTERACTION
 65: 0x0355 [0x5B] LOAD_EXT_SCHEDULER: Load scheduler "tlb1" with entities [Abelard (ID: 17793039/0x010F800F), Abelard (ID: 17793039/0x010F800F)], work=60*
 66: 0x0364 [0x52] END_LOAD_SCHEDULER: End scheduler "s041" with entities [EventEntity, EventEntity], work=760*
 67: 0x0373 [0x45] LOAD_SCHEDULED_TASK: Load scheduler "s042" with entities [EventEntity, EventEntity], work=[760*, 0*]
 68: 0x0384 [0x66] LOAD_EXT_SCHEDULER_MAIN: Load scheduler "tlb0" with entities [Naillina (ID: 17793040/0x010F8010), Naillina (ID: 17793040/0x010F8010)], work=33*
 69: 0x0393 [0x2B] Naillina (ID: 17793040/0x010F8010) [7999*]:
    → "Their medicinal properties are highly valued even during times of peace, and what with the recent strange happenings..."
 70: 0x039A [0x23] WAIT_FOR_DIALOG_INTERACTION
 71: 0x039B [0x66] LOAD_EXT_SCHEDULER_MAIN: Load scheduler "tlb1" with entities [Naillina (ID: 17793040/0x010F8010), Naillina (ID: 17793040/0x010F8010)], work=33*
 72: 0x03AA [0x52] END_LOAD_SCHEDULER: End scheduler "s042" with entities [EventEntity, EventEntity], work=760*
 73: 0x03B9 [0x45] LOAD_SCHEDULED_TASK: Load scheduler "s043" with entities [EventEntity, EventEntity], work=[760*, 0*]
 74: 0x03CA [0x5B] LOAD_EXT_SCHEDULER: Load scheduler "tlk0" with entities [Abelard (ID: 17793039/0x010F800F), Abelard (ID: 17793039/0x010F800F)], work=60*
 75: 0x03D9 [0x2B] Abelard (ID: 17793039/0x010F800F) [8000*]:
    → "You probably know what I'm going to ask."
 76: 0x03E0 [0x23] WAIT_FOR_DIALOG_INTERACTION
 77: 0x03E1 [0x03] Work_Zone[3] = 9082*
 78: 0x03E6 [0x2B] Abelard (ID: 17793039/0x010F800F) [8001*]:
    → "Wrest three $1 from those buzzing menaces located around either of the two aforementioned crags."
 79: 0x03ED [0x23] WAIT_FOR_DIALOG_INTERACTION
 80: 0x03EE [0x52] END_LOAD_SCHEDULER: End scheduler "s043" with entities [EventEntity, EventEntity], work=760*
 81: 0x03FD [0x45] LOAD_SCHEDULED_TASK: Load scheduler "s044" with entities [EventEntity, EventEntity], work=[760*, 0*]
 82: 0x040E [0x2B] Abelard (ID: 17793039/0x010F800F) [8002*]:
    → "Of course, your efforts will be duly rewarded."
 83: 0x0415 [0x23] WAIT_FOR_DIALOG_INTERACTION
 84: 0x0416 [0x5B] LOAD_EXT_SCHEDULER: Load scheduler "tlk1" with entities [Abelard (ID: 17793039/0x010F800F), Abelard (ID: 17793039/0x010F800F)], work=60*
 85: 0x0425 [0x52] END_LOAD_SCHEDULER: End scheduler "s044" with entities [EventEntity, EventEntity], work=760*
 86: 0x0434 [0x45] LOAD_SCHEDULED_TASK: Load scheduler "s045" with entities [EventEntity, EventEntity], work=[760*, 0*]
 87: 0x0445 [0x66] LOAD_EXT_SCHEDULER_MAIN: Load scheduler "tlk0" with entities [Naillina (ID: 17793040/0x010F8010), Naillina (ID: 17793040/0x010F8010)], work=30*
 88: 0x0454 [0x2B] Naillina (ID: 17793040/0x010F8010) [8003*]:
    → "Best of luck!"
 89: 0x045B [0x23] WAIT_FOR_DIALOG_INTERACTION
 90: 0x045C [0x45] LOAD_SCHEDULED_TASK: Load scheduler "fdo1" with entities [EventEntity, EventEntity], work=[200*, 0*]
 91: 0x046D [0x55] WAIT_LOAD_SCHEDULER: Wait for scheduler "fdo1" with entities [EventEntity, EventEntity], work=200*
 92: 0x047C [0x52] END_LOAD_SCHEDULER: End scheduler "s045" with entities [EventEntity, EventEntity], work=760*
 93: 0x048B [0x46] CAMERA_CONTROL: Restore default settings
 94: 0x048D [0x45] LOAD_SCHEDULED_TASK: Load scheduler "fdi2" with entities [EventEntity, EventEntity], work=[200*, 0*]
 95: 0x049E [0x03] Work_Zone[1] = 1*
 96: 0x04A3 [0x1B] RETURN
```

### Event 181

#### Metadata

| Field        | Value    |
|--------------|----------|
| Entrypoint   | 0x04A4   |
| Data Size    | 71 bytes |
| Instructions | 11       |

```
      00 01 02 03 04 05 06 07  08 09 0A 0B 0C 0D 0E 0F
      -- -- -- -- -- -- -- --  -- -- -- -- -- -- -- --
04A0:             4A F0 FF FF  7F 0F 80 0F 01 4A 0F 80      J........J..
04B0: 0F 01 F0 FF FF 7F 5B 23  80 0F 80 0F 01 0F 80 0F  ......[#........
04C0: 01 74 6C 6B 30 03 03 10  28 80 2B 0F 80 0F 01 2C  .tlk0...(.+....,
04D0: 80 23 2B 0F 80 0F 01 2D  80 23 5B 23 80 0F 80 0F  .#+....-.#[#....
04E0: 01 0F 80 0F 01 74 6C 6B  31 21 00                 .....tlk1!.     
```

#### Opcodes

```
  0: 0x04A4 [0x4A] LocalPlayer looks at Abelard (ID: 17793039/0x010F800F)
  1: 0x04AD [0x4A] Abelard (ID: 17793039/0x010F800F) looks at LocalPlayer
  2: 0x04B6 [0x5B] LOAD_EXT_SCHEDULER: Load scheduler "tlk0" with entities [Abelard (ID: 17793039/0x010F800F), Abelard (ID: 17793039/0x010F800F)], work=60*
  3: 0x04C5 [0x03] Work_Zone[3] = 9082*
  4: 0x04CA [0x2B] Abelard (ID: 17793039/0x010F800F) [8001*]:
    → "Wrest three $1 from those buzzing menaces located around either of the two aforementioned crags."
  5: 0x04D1 [0x23] WAIT_FOR_DIALOG_INTERACTION
  6: 0x04D2 [0x2B] Abelard (ID: 17793039/0x010F800F) [8002*]:
    → "Of course, your efforts will be duly rewarded."
  7: 0x04D9 [0x23] WAIT_FOR_DIALOG_INTERACTION
  8: 0x04DA [0x5B] LOAD_EXT_SCHEDULER: Load scheduler "tlk1" with entities [Abelard (ID: 17793039/0x010F800F), Abelard (ID: 17793039/0x010F800F)], work=60*
  9: 0x04E9 [0x21] END_EVENT
 10: 0x04EA [0x00] END_REQSTACK()
```
