# 0x7FFFFFF0 - Zone Events

## Common Data

| Field            | Value             |
|------------------|-------------------|
| Zone             | Selbina (ID: 248) |
| Block Size       | 3084 bytes        |
| Total Events     | 44                |
| References Count | 140               |

## List of Events

| Event ID                   | Entrypoint   |   Size |   Instructions |
|----------------------------|--------------|--------|----------------|
| [65535](#event-65535)      | 0x0000       |      1 |              1 |
| [220](#event-220)          | 0x0001       |      1 |              1 |
| [221](#event-221)          | 0x0002       |      1 |              1 |
| [200](#event-200)          | 0x0003       |    135 |             16 |
| [204](#event-204)          | 0x008A       |     87 |             13 |
| [65535.1](#event-655351)   | 0x00E1       |    107 |             21 |
| [65535.2](#event-655352)   | 0x014C       |    107 |             21 |
| [201](#event-201)          | 0x01B7       |     22 |              8 |
| [203](#event-203)          | 0x01CD       |     22 |              8 |
| [202](#event-202)          | 0x01E3       |     46 |              9 |
| [81](#event-81)            | 0x0211       |      1 |              1 |
| [65535.3](#event-655353)   | 0x0212       |     10 |              2 |
| [173](#event-173)          | 0x021C       |      1 |              1 |
| [172](#event-172)          | 0x021D       |      1 |              1 |
| [65535.4](#event-655354)   | 0x021E       |     10 |              2 |
| [65535.5](#event-655355)   | 0x0228       |      3 |              2 |
| [65535.6](#event-655356)   | 0x022B       |      3 |              2 |
| [65534](#event-65534)      | 0x022E       |      1 |              1 |
| [65535.7](#event-655357)   | 0x022F       |     10 |              2 |
| [65535.8](#event-655358)   | 0x0239       |     10 |              2 |
| [1101](#event-1101)        | 0x0243       |   1449 |            174 |
| [65535.9](#event-655359)   | 0x07EC       |     20 |              3 |
| [65535.10](#event-6553510) | 0x0800       |     10 |              2 |
| [65535.11](#event-6553511) | 0x080A       |      6 |              2 |
| [65535.12](#event-6553512) | 0x0810       |      6 |              2 |
| [65535.13](#event-6553513) | 0x0816       |      6 |              2 |
| [65535.14](#event-6553514) | 0x081C       |      6 |              2 |
| [65535.15](#event-6553515) | 0x0822       |      6 |              2 |
| [65535.16](#event-6553516) | 0x0828       |     10 |              2 |
| [65535.17](#event-6553517) | 0x0832       |     10 |              2 |
| [65535.18](#event-6553518) | 0x083C       |     17 |              5 |
| [65535.19](#event-6553519) | 0x084D       |     10 |              2 |
| [1110](#event-1110)        | 0x0857       |      1 |              1 |
| [65535.20](#event-6553520) | 0x0858       |     15 |              3 |
| [65535.21](#event-6553521) | 0x0867       |     13 |              3 |
| [65535.22](#event-6553522) | 0x0874       |     15 |              3 |
| [65535.23](#event-6553523) | 0x0883       |     15 |              3 |
| [65535.24](#event-6553524) | 0x0892       |     15 |              3 |
| [65535.25](#event-6553525) | 0x08A1       |     15 |              3 |
| [65535.26](#event-6553526) | 0x08B0       |     37 |              6 |
| [65535.27](#event-6553527) | 0x08D5       |      6 |              2 |
| [1114](#event-1114)        | 0x08DB       |      1 |              1 |
| [65535.28](#event-6553528) | 0x08DC       |     19 |              5 |
| [10038](#event-10038)      | 0x08EF       |     43 |              7 |

## DAT References (imed_data)

|   Index | Hex Value   |   Dec Value |
|---------|-------------|-------------|
|       0 | 0x00C8      |         200 |
|       1 | 0x0000      |           0 |
|       2 | 0x46B0      |       18096 |
|       3 | 0xFFFF213C  |  4294910268 |
|       4 | 0xFFFFFA94  |  4294965908 |
|       5 | 0x0094      |         148 |
|       6 | 0x000D      |          13 |
|       7 | 0x733C      |       29500 |
|       8 | 0x6B6C      |       27500 |
|       9 | 0x842B      |       33835 |
|      10 | 0xFFFF932E  |  4294939438 |
|      11 | 0xFFFFF602  |  4294964738 |
|      12 | 0x83E2      |       33762 |
|      13 | 0xFFFF97D6  |  4294940630 |
|      14 | 0xFFFF9366  |  4294939494 |
|      15 | 0xFFFF8538  |  4294935864 |
|      16 | 0x55F0      |       22000 |
|      17 | 0x8CA0      |       36000 |
|      18 | 0x4F2D      |       20269 |
|      19 | 0xFFFF761C  |  4294931996 |
|      20 | 0xFFFF6F78  |  4294930296 |
|      21 | 0xFFFF8E4D  |  4294938189 |
|      22 | 0xFFFF9AC5  |  4294941381 |
|      23 | 0xDCC5      |       56517 |
|      24 | 0x1156      |        4438 |
|      25 | 0xFFFFC722  |  4294952738 |
|      26 | 0x05B4      |        1460 |
|      27 | 0x000A      |          10 |
|      28 | 0x0384      |         900 |
|      29 | 0xFFFF1B85  |  4294908805 |
|      30 | 0x1A4A      |        6730 |
|      31 | 0xFFFFD6C2  |  4294956738 |
|      32 | 0x37C8      |       14280 |
|      33 | 0xFFFFE390  |  4294960016 |
|      34 | 0xFFFFE302  |  4294959874 |
|      35 | 0x0719      |        1817 |
|      36 | 0xF14D      |       61773 |
|      37 | 0x2AD6      |       10966 |
|      38 | 0xFFFFC457  |  4294952023 |
|      39 | 0x0C8C      |        3212 |
|      40 | 0x10F85     |       69509 |
|      41 | 0xFFFFFC73  |  4294966387 |
|      42 | 0x0867      |        2151 |
|      43 | 0x3792      |       14226 |
|      44 | 0x0013      |          19 |
|      45 | 0x45AE      |       17838 |
|      46 | 0xFFFF4771  |  4294920049 |
|      47 | 0xFFFFF7DD  |  4294965213 |
|      48 | 0x0CD6      |        3286 |
|      49 | 0x00EF      |         239 |
|      50 | 0x473B      |       18235 |
|      51 | 0xFFFF54ED  |  4294923501 |
|      52 | 0xFFFFF5F0  |  4294964720 |
|      53 | 0x0014      |          20 |
|      54 | 0x1C87      |        7303 |
|      55 | 0x1C88      |        7304 |
|      56 | 0x0001      |           1 |
|      57 | 0x00B4      |         180 |
|      58 | 0x1C89      |        7305 |
|      59 | 0x1C8A      |        7306 |
|      60 | 0x1C8B      |        7307 |
|      61 | 0x009F      |         159 |
|      62 | 0x1C8C      |        7308 |
|      63 | 0x1C8D      |        7309 |
|      64 | 0x1C8E      |        7310 |
|      65 | 0x1C8F      |        7311 |
|      66 | 0x005A      |          90 |
|      67 | 0x1C90      |        7312 |
|      68 | 0x1C91      |        7313 |
|      69 | 0x1C92      |        7314 |
|      70 | 0x1C93      |        7315 |
|      71 | 0x00C9      |         201 |
|      72 | 0x001E      |          30 |
|      73 | 0x1C94      |        7316 |
|      74 | 0x1C95      |        7317 |
|      75 | 0x1C96      |        7318 |
|      76 | 0x1C97      |        7319 |
|      77 | 0x1C98      |        7320 |
|      78 | 0x1C99      |        7321 |
|      79 | 0x1C9A      |        7322 |
|      80 | 0x02CC      |         716 |
|      81 | 0x1C9B      |        7323 |
|      82 | 0x1C9C      |        7324 |
|      83 | 0x1C9D      |        7325 |
|      84 | 0x1C9E      |        7326 |
|      85 | 0x0096      |         150 |
|      86 | 0x0070      |         112 |
|      87 | 0x1C9F      |        7327 |
|      88 | 0x1CA0      |        7328 |
|      89 | 0x1CA1      |        7329 |
|      90 | 0x1CA2      |        7330 |
|      91 | 0x1CA3      |        7331 |
|      92 | 0x1CA4      |        7332 |
|      93 | 0xFFFFB025  |  4294946853 |
|      94 | 0xFFFFC548  |  4294952264 |
|      95 | 0xFFFFF5DB  |  4294964699 |
|      96 | 0x0F90      |        3984 |
|      97 | 0x35E0      |       13792 |
|      98 | 0x1070      |        4208 |
|      99 | 0xFFFFE389  |  4294960009 |
|     100 | 0x05A4      |        1444 |
|     101 | 0x40CD      |       16589 |
|     102 | 0xFFFFE698  |  4294960792 |
|     103 | 0xFFFFE355  |  4294959957 |
|     104 | 0x07DC      |        2012 |
|     105 | 0x418C      |       16780 |
|     106 | 0x1CAC      |        7340 |
|     107 | 0x0053      |          83 |
|     108 | 0x0064      |         100 |
|     109 | 0x67CA      |       26570 |
|     110 | 0x1CB9      |        7353 |
|     111 | 0xFFFFE662  |  4294960738 |
|     112 | 0xFFFF2ED3  |  4294913747 |
|     113 | 0xFFFFD39C  |  4294955932 |
|     114 | 0xFFFFD3B6  |  4294955958 |
|     115 | 0x0208      |         520 |
|     116 | 0xFFFF78D4  |  4294932692 |
|     117 | 0xFFFF9516  |  4294939926 |
|     118 | 0xFFFFFC33  |  4294966323 |
|     119 | 0x054A      |        1354 |
|     120 | 0xFFFF7CAF  |  4294933679 |
|     121 | 0xFFFF9143  |  4294938947 |
|     122 | 0xFFFFFC65  |  4294966373 |
|     123 | 0xFFFF7928  |  4294932776 |
|     124 | 0xFFFF931C  |  4294939420 |
|     125 | 0xFFFFFC30  |  4294966320 |
|     126 | 0x03F0      |        1008 |
|     127 | 0xFFFF7AA2  |  4294933154 |
|     128 | 0xFFFF8FE1  |  4294938593 |
|     129 | 0xFFFFFC8D  |  4294966413 |
|     130 | 0xFFFF79BB  |  4294932923 |
|     131 | 0xFFFF8ABE  |  4294937278 |
|     132 | 0xFFFFFD21  |  4294966561 |
|     133 | 0xFFFF7406  |  4294931462 |
|     134 | 0xFFFF9383  |  4294939523 |
|     135 | 0xFFFFFC26  |  4294966310 |
|     136 | 0x00CB      |         203 |
|     137 | 0x4593      |       17811 |
|     138 | 0x1353E     |       79166 |
|     139 | 0x1F8B      |        8075 |

## String References

- **8075**: Entering [/$26A Stygian Pact/$26Champion of the Dawn/$26Divine Interference/$26Maiden of the Dusk][/: Very Difficult/: Difficult/: Normal/: Easy/: Very Easy].

## Events

### Event 65535

#### Metadata

| Field        | Value   |
|--------------|---------|
| Entrypoint   | 0x0000  |
| Data Size    | 1 bytes |
| Instructions | 1       |

```
      00 01 02 03 04 05 06 07  08 09 0A 0B 0C 0D 0E 0F
      -- -- -- -- -- -- -- --  -- -- -- -- -- -- -- --
0000: 00                                                .               
```

#### Opcodes

```
  0: 0x0000 [0x00] END_REQSTACK()
```

### Event 220

#### Metadata

| Field        | Value   |
|--------------|---------|
| Entrypoint   | 0x0001  |
| Data Size    | 1 bytes |
| Instructions | 1       |

```
      00 01 02 03 04 05 06 07  08 09 0A 0B 0C 0D 0E 0F
      -- -- -- -- -- -- -- --  -- -- -- -- -- -- -- --
0000:    00                                              .              
```

#### Opcodes

```
  0: 0x0001 [0x00] END_REQSTACK()
```

### Event 221

#### Metadata

| Field        | Value   |
|--------------|---------|
| Entrypoint   | 0x0002  |
| Data Size    | 1 bytes |
| Instructions | 1       |

```
      00 01 02 03 04 05 06 07  08 09 0A 0B 0C 0D 0E 0F
      -- -- -- -- -- -- -- --  -- -- -- -- -- -- -- --
0000:       00                                            .             
```

#### Opcodes

```
  0: 0x0002 [0x00] END_REQSTACK()
```

### Event 200

#### Metadata

| Field        | Value     |
|--------------|-----------|
| Entrypoint   | 0x0003    |
| Data Size    | 135 bytes |
| Instructions | 16        |

```
      00 01 02 03 04 05 06 07  08 09 0A 0B 0C 0D 0E 0F
      -- -- -- -- -- -- -- --  -- -- -- -- -- -- -- --
0000:          20 01 42 45 00  80 F0 FF FF 7F F0 FF FF      .BE.........
0010: 7F 66 64 6F 30 01 80 46  01 22 01 47 00 02 80 03  .fdo0..F.".G....
0020: 80 04 80 01 80 47 01 55  00 80 F0 FF FF 7F F0 FF  .....G.U........
0030: FF 7F 66 64 6F 30 45 00  80 F0 FF FF 7F F0 FF FF  ..fdo0E.........
0040: 7F 66 64 69 30 01 80 45  05 80 F0 FF FF 7F F0 FF  .fdi0..E........
0050: FF 7F 73 30 31 30 01 80  55 05 80 F0 FF FF 7F F0  ..s010..U.......
0060: FF FF 7F 73 30 31 30 45  00 80 F0 FF FF 7F F0 FF  ...s010E........
0070: FF 7F 66 64 6F 32 01 80  55 00 80 F0 FF FF 7F F0  ..fdo2..U.......
0080: FF FF 7F 66 64 6F 32 30  21 00                    ...fdo20!.      
```

#### Opcodes

```
  0: 0x0003 [0x20] SET_CLI_EVENT_UC_FLAG: Lock player control
  1: 0x0005 [0x42] SET_CLI_EVENT_CANCEL_DATA()
  2: 0x0006 [0x45] LOAD_SCHEDULED_TASK: Load scheduler "fdo0" with entities [LocalPlayer, LocalPlayer], work=[200*, 0*]
  3: 0x0017 [0x46] CAMERA_CONTROL: Disable user control
  4: 0x0019 [0x22] ENTITY_HIDE_FLAG(enabled=0x01)
  5: 0x001B [0x47] UPDATE_PLAYER_POS(18.096*, -57.028*, -1.388*, yaw=0.0°*)
  6: 0x0025 [0x47] WAIT_PLAYER_POS_UPDATE
  7: 0x0027 [0x55] WAIT_LOAD_SCHEDULER: Wait for scheduler "fdo0" with entities [LocalPlayer, LocalPlayer], work=200*
  8: 0x0036 [0x45] LOAD_SCHEDULED_TASK: Load scheduler "fdi0" with entities [LocalPlayer, LocalPlayer], work=[200*, 0*]
  9: 0x0047 [0x45] LOAD_SCHEDULED_TASK: Load scheduler "s010" with entities [LocalPlayer, LocalPlayer], work=[148*, 0*]
 10: 0x0058 [0x55] WAIT_LOAD_SCHEDULER: Wait for scheduler "s010" with entities [LocalPlayer, LocalPlayer], work=148*
 11: 0x0067 [0x45] LOAD_SCHEDULED_TASK: Load scheduler "fdo2" with entities [LocalPlayer, LocalPlayer], work=[200*, 0*]
 12: 0x0078 [0x55] WAIT_LOAD_SCHEDULER: Wait for scheduler "fdo2" with entities [LocalPlayer, LocalPlayer], work=200*
 13: 0x0087 [0x30] SET_UCOFF_CONTINUE_ZERO()
 14: 0x0088 [0x21] END_EVENT
 15: 0x0089 [0x00] END_REQSTACK()
```

### Event 204

#### Metadata

| Field        | Value    |
|--------------|----------|
| Entrypoint   | 0x008A   |
| Data Size    | 87 bytes |
| Instructions | 13       |

```
      00 01 02 03 04 05 06 07  08 09 0A 0B 0C 0D 0E 0F
      -- -- -- -- -- -- -- --  -- -- -- -- -- -- -- --
0080:                                20 01 42 45 00 80             .BE..
0090: F0 FF FF 7F F0 FF FF 7F  66 64 6F 30 01 80 46 01  ........fdo0..F.
00A0: 22 01 47 00 02 80 03 80  04 80 01 80 47 01 55 00  ".G.........G.U.
00B0: 80 F0 FF FF 7F F0 FF FF  7F 66 64 6F 30 46 00 45  .........fdo0F.E
00C0: 00 80 F0 FF FF 7F F0 FF  FF 7F 66 64 69 30 01 80  ..........fdi0..
00D0: 55 00 80 F0 FF FF 7F F0  FF FF 7F 66 64 69 30 21  U..........fdi0!
00E0: 00                                                .               
```

#### Opcodes

```
  0: 0x008A [0x20] SET_CLI_EVENT_UC_FLAG: Lock player control
  1: 0x008C [0x42] SET_CLI_EVENT_CANCEL_DATA()
  2: 0x008D [0x45] LOAD_SCHEDULED_TASK: Load scheduler "fdo0" with entities [LocalPlayer, LocalPlayer], work=[200*, 0*]
  3: 0x009E [0x46] CAMERA_CONTROL: Disable user control
  4: 0x00A0 [0x22] ENTITY_HIDE_FLAG(enabled=0x01)
  5: 0x00A2 [0x47] UPDATE_PLAYER_POS(18.096*, -57.028*, -1.388*, yaw=0.0°*)
  6: 0x00AC [0x47] WAIT_PLAYER_POS_UPDATE
  7: 0x00AE [0x55] WAIT_LOAD_SCHEDULER: Wait for scheduler "fdo0" with entities [LocalPlayer, LocalPlayer], work=200*
  8: 0x00BD [0x46] CAMERA_CONTROL: Restore default settings
  9: 0x00BF [0x45] LOAD_SCHEDULED_TASK: Load scheduler "fdi0" with entities [LocalPlayer, LocalPlayer], work=[200*, 0*]
 10: 0x00D0 [0x55] WAIT_LOAD_SCHEDULER: Wait for scheduler "fdi0" with entities [LocalPlayer, LocalPlayer], work=200*
 11: 0x00DF [0x21] END_EVENT
 12: 0x00E0 [0x00] END_REQSTACK()
```

### Event 65535.1

#### Metadata

| Field        | Value     |
|--------------|-----------|
| Entrypoint   | 0x00E1    |
| Data Size    | 107 bytes |
| Instructions | 21        |

```
      00 01 02 03 04 05 06 07  08 09 0A 0B 0C 0D 0E 0F
      -- -- -- -- -- -- -- --  -- -- -- -- -- -- -- --
00E0:    32 06 80 29 80 3D 80  0F 01 02 29 80 3A 80 0F   2..).=....).:..
00F0: 01 04 02 00 7F 07 80 04  1C 01 02 02 7F 08 80 05  ................
0100: 0F 01 1F 00 09 80 0A 80  0B 80 1F 01 01 19 01 1F  ................
0110: 00 0C 80 0D 80 0B 80 1F  01 01 26 01 1F 00 0C 80  ..........&.....
0120: 0E 80 0B 80 1F 01 1F 00  0C 80 0F 80 0B 80 1F 01  ................
0130: 6F 47 00 0C 80 0F 80 0B  80 03 7F 47 01 29 80 3A  oG.........G.).:
0140: 80 0F 01 05 29 80 3D 80  0F 01 03 00              ....).=.....    
```

#### Opcodes

```
  0: 0x00E1 [0x32] ExtData[1]->MainSpeed = 13* * 0.1
  1: 0x00E4 [0x29] REQ_SET_WAIT(priority=0x80, entity_id=Unknown NPC (ID: 17793085/0x010F803D), tag_num=0x02)
  2: 0x00EB [0x29] REQ_SET_WAIT(priority=0x80, entity_id=Raging Tiger (ID: 17793082/0x010F803A), tag_num=0x04)
  3: 0x00F2 [0x02] IF !(ExtData[1]->EventPos[0] * 1000.0 < 29500*) GOTO 0x011C
  4: 0x00FA [0x02] IF !(ExtData[1]->EventPos[2] * 1000.0 > 27500*) GOTO 0x010F
  5: 0x0102 [0x1F] MOVE_ENTITY: EventEntity moves to X=33.835*, Z=-27.858*, Y=-2.558*
  6: 0x010A [0x1F] MOVE_ENTITY: Update entity position (mode=1)
  7: 0x010C [0x01] GOTO 0x0119
  8: 0x010F [0x1F] MOVE_ENTITY: EventEntity moves to X=33.762*, Z=-26.666*, Y=-2.558*
  9: 0x0117 [0x1F] MOVE_ENTITY: Update entity position (mode=1)

SUBROUTINE_0119:
 10: 0x0119 [0x01] GOTO 0x0126
 11: 0x011C [0x1F] MOVE_ENTITY: EventEntity moves to X=33.762*, Z=-27.802*, Y=-2.558*
 12: 0x0124 [0x1F] MOVE_ENTITY: Update entity position (mode=1)

SUBROUTINE_0126:
 13: 0x0126 [0x1F] MOVE_ENTITY: EventEntity moves to X=33.762*, Z=-31.432*, Y=-2.558*
 14: 0x012E [0x1F] MOVE_ENTITY: Update entity position (mode=1)
 15: 0x0130 [0x6F] WAIT_FRAME_DELAY: Yield until WaitTime reaches zero
 16: 0x0131 [0x47] UPDATE_PLAYER_POS(33.762*, -31.432*, -2.558*, yaw=enDirCli(ExtData[1]->EventDir[1]) * 4096.0 * 0.15915963)
 17: 0x013B [0x47] WAIT_PLAYER_POS_UPDATE
 18: 0x013D [0x29] REQ_SET_WAIT(priority=0x80, entity_id=Raging Tiger (ID: 17793082/0x010F803A), tag_num=0x05)
 19: 0x0144 [0x29] REQ_SET_WAIT(priority=0x80, entity_id=Unknown NPC (ID: 17793085/0x010F803D), tag_num=0x03)
 20: 0x014B [0x00] END_REQSTACK()
```

### Event 65535.2

#### Metadata

| Field        | Value     |
|--------------|-----------|
| Entrypoint   | 0x014C    |
| Data Size    | 107 bytes |
| Instructions | 21        |

```
      00 01 02 03 04 05 06 07  08 09 0A 0B 0C 0D 0E 0F
      -- -- -- -- -- -- -- --  -- -- -- -- -- -- -- --
0140:                                      32 06 80 29              2..)
0150: 80 3E 80 0F 01 02 29 80  3B 80 0F 01 03 02 00 7F  .>....).;.......
0160: 10 80 04 87 01 02 02 7F  11 80 05 7A 01 1F 00 12  ...........z....
0170: 80 13 80 0B 80 1F 01 01  84 01 1F 00 12 80 14 80  ................
0180: 0B 80 1F 01 01 91 01 1F  00 12 80 15 80 0B 80 1F  ................
0190: 01 1F 00 12 80 16 80 0B  80 1F 01 6F 47 00 12 80  ...........oG...
01A0: 16 80 0B 80 03 7F 47 01  29 80 3B 80 0F 01 04 29  ......G.).;....)
01B0: 80 3E 80 0F 01 03 00                              .>.....         
```

#### Opcodes

```
  0: 0x014C [0x32] ExtData[1]->MainSpeed = 13* * 0.1
  1: 0x014F [0x29] REQ_SET_WAIT(priority=0x80, entity_id=Unknown NPC (ID: 17793086/0x010F803E), tag_num=0x02)
  2: 0x0156 [0x29] REQ_SET_WAIT(priority=0x80, entity_id=Sleeping Lizard (ID: 17793083/0x010F803B), tag_num=0x03)
  3: 0x015D [0x02] IF !(ExtData[1]->EventPos[0] * 1000.0 < 22000*) GOTO 0x0187
  4: 0x0165 [0x02] IF !(ExtData[1]->EventPos[2] * 1000.0 > 36000*) GOTO 0x017A
  5: 0x016D [0x1F] MOVE_ENTITY: EventEntity moves to X=20.269*, Z=-35.300*, Y=-2.558*
  6: 0x0175 [0x1F] MOVE_ENTITY: Update entity position (mode=1)
  7: 0x0177 [0x01] GOTO 0x0184
  8: 0x017A [0x1F] MOVE_ENTITY: EventEntity moves to X=20.269*, Z=-37.000*, Y=-2.558*
  9: 0x0182 [0x1F] MOVE_ENTITY: Update entity position (mode=1)

SUBROUTINE_0184:
 10: 0x0184 [0x01] GOTO 0x0191
 11: 0x0187 [0x1F] MOVE_ENTITY: EventEntity moves to X=20.269*, Z=-29.107*, Y=-2.558*
 12: 0x018F [0x1F] MOVE_ENTITY: Update entity position (mode=1)

SUBROUTINE_0191:
 13: 0x0191 [0x1F] MOVE_ENTITY: EventEntity moves to X=20.269*, Z=-25.915*, Y=-2.558*
 14: 0x0199 [0x1F] MOVE_ENTITY: Update entity position (mode=1)
 15: 0x019B [0x6F] WAIT_FRAME_DELAY: Yield until WaitTime reaches zero
 16: 0x019C [0x47] UPDATE_PLAYER_POS(20.269*, -25.915*, -2.558*, yaw=enDirCli(ExtData[1]->EventDir[1]) * 4096.0 * 0.15915963)
 17: 0x01A6 [0x47] WAIT_PLAYER_POS_UPDATE
 18: 0x01A8 [0x29] REQ_SET_WAIT(priority=0x80, entity_id=Sleeping Lizard (ID: 17793083/0x010F803B), tag_num=0x04)
 19: 0x01AF [0x29] REQ_SET_WAIT(priority=0x80, entity_id=Unknown NPC (ID: 17793086/0x010F803E), tag_num=0x03)
 20: 0x01B6 [0x00] END_REQSTACK()
```

### Event 201

#### Metadata

| Field        | Value    |
|--------------|----------|
| Entrypoint   | 0x01B7   |
| Data Size    | 22 bytes |
| Instructions | 8        |

```
      00 01 02 03 04 05 06 07  08 09 0A 0B 0C 0D 0E 0F
      -- -- -- -- -- -- -- --  -- -- -- -- -- -- -- --
01B0:                      20  01 42 47 00 17 80 18 80          .BG.....
01C0: 19 80 1A 80 47 01 1C 1B  80 46 00 21 00           ....G....F.!.   
```

#### Opcodes

```
  0: 0x01B7 [0x20] SET_CLI_EVENT_UC_FLAG: Lock player control
  1: 0x01B9 [0x42] SET_CLI_EVENT_CANCEL_DATA()
  2: 0x01BA [0x47] UPDATE_PLAYER_POS(56.517*, 4.438*, -14.558*, yaw=128.3°*)
  3: 0x01C4 [0x47] WAIT_PLAYER_POS_UPDATE
  4: 0x01C6 [0x1C] WAIT(10* ticks)
  5: 0x01C9 [0x46] CAMERA_CONTROL: Restore default settings
  6: 0x01CB [0x21] END_EVENT
  7: 0x01CC [0x00] END_REQSTACK()
```

### Event 203

#### Metadata

| Field        | Value    |
|--------------|----------|
| Entrypoint   | 0x01CD   |
| Data Size    | 22 bytes |
| Instructions | 8        |

```
      00 01 02 03 04 05 06 07  08 09 0A 0B 0C 0D 0E 0F
      -- -- -- -- -- -- -- --  -- -- -- -- -- -- -- --
01C0:                                         20 01 42                .B
01D0: 47 00 02 80 03 80 04 80  01 80 47 01 1C 1B 80 46  G.........G....F
01E0: 00 21 00                                          .!.             
```

#### Opcodes

```
  0: 0x01CD [0x20] SET_CLI_EVENT_UC_FLAG: Lock player control
  1: 0x01CF [0x42] SET_CLI_EVENT_CANCEL_DATA()
  2: 0x01D0 [0x47] UPDATE_PLAYER_POS(18.096*, -57.028*, -1.388*, yaw=0.0°*)
  3: 0x01DA [0x47] WAIT_PLAYER_POS_UPDATE
  4: 0x01DC [0x1C] WAIT(10* ticks)
  5: 0x01DF [0x46] CAMERA_CONTROL: Restore default settings
  6: 0x01E1 [0x21] END_EVENT
  7: 0x01E2 [0x00] END_REQSTACK()
```

### Event 202

#### Metadata

| Field        | Value    |
|--------------|----------|
| Entrypoint   | 0x01E3   |
| Data Size    | 46 bytes |
| Instructions | 9        |

```
      00 01 02 03 04 05 06 07  08 09 0A 0B 0C 0D 0E 0F
      -- -- -- -- -- -- -- --  -- -- -- -- -- -- -- --
01E0:          20 01 42 46 01  45 00 80 F0 FF FF 7F F0      .BF.E.......
01F0: FF FF 7F 66 64 69 32 01  80 45 05 80 F0 FF FF 7F  ...fdi2..E......
0200: F0 FF FF 7F 73 30 30 30  01 80 1C 1C 80 46 00 21  ....s000.....F.!
0210: 00                                                .               
```

#### Opcodes

```
  0: 0x01E3 [0x20] SET_CLI_EVENT_UC_FLAG: Lock player control
  1: 0x01E5 [0x42] SET_CLI_EVENT_CANCEL_DATA()
  2: 0x01E6 [0x46] CAMERA_CONTROL: Disable user control
  3: 0x01E8 [0x45] LOAD_SCHEDULED_TASK: Load scheduler "fdi2" with entities [LocalPlayer, LocalPlayer], work=[200*, 0*]
  4: 0x01F9 [0x45] LOAD_SCHEDULED_TASK: Load scheduler "s000" with entities [LocalPlayer, LocalPlayer], work=[148*, 0*]
  5: 0x020A [0x1C] WAIT(900* ticks)
  6: 0x020D [0x46] CAMERA_CONTROL: Restore default settings
  7: 0x020F [0x21] END_EVENT
  8: 0x0210 [0x00] END_REQSTACK()
```

### Event 81

#### Metadata

| Field        | Value   |
|--------------|---------|
| Entrypoint   | 0x0211  |
| Data Size    | 1 bytes |
| Instructions | 1       |

```
      00 01 02 03 04 05 06 07  08 09 0A 0B 0C 0D 0E 0F
      -- -- -- -- -- -- -- --  -- -- -- -- -- -- -- --
0210:    00                                              .              
```

#### Opcodes

```
  0: 0x0211 [0x00] END_REQSTACK()
```

### Event 65535.3

#### Metadata

| Field        | Value    |
|--------------|----------|
| Entrypoint   | 0x0212   |
| Data Size    | 10 bytes |
| Instructions | 2        |

```
      00 01 02 03 04 05 06 07  08 09 0A 0B 0C 0D 0E 0F
      -- -- -- -- -- -- -- --  -- -- -- -- -- -- -- --
0210:       37 1D 80 1E 80 1F  80 1A 80 00                7.........    
```

#### Opcodes

```
  0: 0x0212 [0x37] UPDATE_EVENT_POSITION_AND_DIR: x=-58.491*, z=6.730*, y=-10.558*, direction=128.3°*
  1: 0x021B [0x00] END_REQSTACK()
```

### Event 173

#### Metadata

| Field        | Value   |
|--------------|---------|
| Entrypoint   | 0x021C  |
| Data Size    | 1 bytes |
| Instructions | 1       |

```
      00 01 02 03 04 05 06 07  08 09 0A 0B 0C 0D 0E 0F
      -- -- -- -- -- -- -- --  -- -- -- -- -- -- -- --
0210:                                      00                       .   
```

#### Opcodes

```
  0: 0x021C [0x00] END_REQSTACK()
```

### Event 172

#### Metadata

| Field        | Value   |
|--------------|---------|
| Entrypoint   | 0x021D  |
| Data Size    | 1 bytes |
| Instructions | 1       |

```
      00 01 02 03 04 05 06 07  08 09 0A 0B 0C 0D 0E 0F
      -- -- -- -- -- -- -- --  -- -- -- -- -- -- -- --
0210:                                         00                     .  
```

#### Opcodes

```
  0: 0x021D [0x00] END_REQSTACK()
```

### Event 65535.4

#### Metadata

| Field        | Value    |
|--------------|----------|
| Entrypoint   | 0x021E   |
| Data Size    | 10 bytes |
| Instructions | 2        |

```
      00 01 02 03 04 05 06 07  08 09 0A 0B 0C 0D 0E 0F
      -- -- -- -- -- -- -- --  -- -- -- -- -- -- -- --
0210:                                            37 20                7 
0220: 80 21 80 22 80 23 80 00                           .!.".#..        
```

#### Opcodes

```
  0: 0x021E [0x37] UPDATE_EVENT_POSITION_AND_DIR: x=14.280*, z=-7.280*, y=-7.422*, direction=159.7°*
  1: 0x0227 [0x00] END_REQSTACK()
```

### Event 65535.5

#### Metadata

| Field        | Value   |
|--------------|---------|
| Entrypoint   | 0x0228  |
| Data Size    | 3 bytes |
| Instructions | 2       |

```
      00 01 02 03 04 05 06 07  08 09 0A 0B 0C 0D 0E 0F
      -- -- -- -- -- -- -- --  -- -- -- -- -- -- -- --
0220:                          22 01 00                         "..     
```

#### Opcodes

```
  0: 0x0228 [0x22] ENTITY_HIDE_FLAG(enabled=0x01)
  1: 0x022A [0x00] END_REQSTACK()
```

### Event 65535.6

#### Metadata

| Field        | Value   |
|--------------|---------|
| Entrypoint   | 0x022B  |
| Data Size    | 3 bytes |
| Instructions | 2       |

```
      00 01 02 03 04 05 06 07  08 09 0A 0B 0C 0D 0E 0F
      -- -- -- -- -- -- -- --  -- -- -- -- -- -- -- --
0220:                                   22 00 00                   "..  
```

#### Opcodes

```
  0: 0x022B [0x22] ENTITY_HIDE_FLAG(enabled=0x00)
  1: 0x022D [0x00] END_REQSTACK()
```

### Event 65534

#### Metadata

| Field        | Value   |
|--------------|---------|
| Entrypoint   | 0x022E  |
| Data Size    | 1 bytes |
| Instructions | 1       |

```
      00 01 02 03 04 05 06 07  08 09 0A 0B 0C 0D 0E 0F
      -- -- -- -- -- -- -- --  -- -- -- -- -- -- -- --
0220:                                            00                   . 
```

#### Opcodes

```
  0: 0x022E [0x00] END_REQSTACK()
```

### Event 65535.7

#### Metadata

| Field        | Value    |
|--------------|----------|
| Entrypoint   | 0x022F   |
| Data Size    | 10 bytes |
| Instructions | 2        |

```
      00 01 02 03 04 05 06 07  08 09 0A 0B 0C 0D 0E 0F
      -- -- -- -- -- -- -- --  -- -- -- -- -- -- -- --
0220:                                               37                 7
0230: 24 80 25 80 26 80 27 80  00                       $.%.&.'..       
```

#### Opcodes

```
  0: 0x022F [0x37] UPDATE_EVENT_POSITION_AND_DIR: x=61.773*, z=10.966*, y=-15.273*, direction=282.3°*
  1: 0x0238 [0x00] END_REQSTACK()
```

### Event 65535.8

#### Metadata

| Field        | Value    |
|--------------|----------|
| Entrypoint   | 0x0239   |
| Data Size    | 10 bytes |
| Instructions | 2        |

```
      00 01 02 03 04 05 06 07  08 09 0A 0B 0C 0D 0E 0F
      -- -- -- -- -- -- -- --  -- -- -- -- -- -- -- --
0230:                             37 28 80 29 80 19 80           7(.)...
0240: 2A 80 00                                          *..             
```

#### Opcodes

```
  0: 0x0239 [0x37] UPDATE_EVENT_POSITION_AND_DIR: x=69.509*, z=-0.909*, y=-14.558*, direction=189.0°*
  1: 0x0242 [0x00] END_REQSTACK()
```

### Event 1101

#### Metadata

| Field        | Value      |
|--------------|------------|
| Entrypoint   | 0x0243     |
| Data Size    | 1449 bytes |
| Instructions | 174        |

```
      00 01 02 03 04 05 06 07  08 09 0A 0B 0C 0D 0E 0F
      -- -- -- -- -- -- -- --  -- -- -- -- -- -- -- --
0240:          46 01 42 03 09  10 2B 80 38 2C 80 32 06     F.B...+.8,.2.
0250: 80 37 2D 80 2E 80 2F 80  30 80 22 00 80 4D 80 0F  .7-.../.0."..M..
0260: 01 45 00 80 F0 FF FF 7F  F0 FF FF 7F 66 64 69 32  .E..........fdi2
0270: 01 80 45 31 80 F0 FF FF  7F F0 FF FF 7F 73 30 30  ..E1.........s00
0280: 38 01 80 79 00 F0 FF FF  7F 4D 80 0F 01 79 00 4D  8..y.....M...y.M
0290: 80 0F 01 F0 FF FF 7F 1F  00 32 80 33 80 34 80 1F  .........2.3.4..
02A0: 01 66 35 80 4D 80 0F 01  4D 80 0F 01 74 6C 6B 30  .f5.M...M...tlk0
02B0: 2B 4D 80 0F 01 36 80 23  6B 69 64 6C 30 4D 80 0F  +M...6.#kidl0M..
02C0: 01 2B 4D 80 0F 01 37 80  23 52 31 80 F0 FF FF 7F  .+M...7.#R1.....
02D0: F0 FF FF 7F 73 30 30 38  45 31 80 F0 FF FF 7F F0  ....s008E1......
02E0: FF FF 7F 73 30 30 39 01  80 27 0A 4F 80 0F 01 02  ...s009..'.O....
02F0: 1C 38 80 5D 01 80 39 80  4A 4D 80 0F 01 4F 80 0F  .8.]..9.JM...O..
0300: 01 2B 4F 80 0F 01 3A 80  23 2B 4D 80 0F 01 3B 80  .+O...:.#+M...;.
0310: 23 79 00 4F 80 0F 01 F0  FF FF 7F 2B 4F 80 0F 01  #y.O.......+O...
0320: 3C 80 23 79 00 4F 80 0F  01 4D 80 0F 01 2A 0A 4F  <.#y.O...M...*.O
0330: 80 0F 01 66 01 80 4F 80  0F 01 4F 80 0F 01 70 61  ...f..O...O...pa
0340: 73 30 5C 00 3D 80 5C 01  3D 80 2B 4F 80 0F 01 3E  s0\.=.\.=.+O...>
0350: 80 23 66 35 80 4D 80 0F  01 4D 80 0F 01 74 68 6B  .#f5.M...M...thk
0360: 31 2B 4D 80 0F 01 3F 80  23 45 00 80 F0 FF FF 7F  1+M...?.#E......
0370: F0 FF FF 7F 66 64 6F 31  01 80 55 00 80 F0 FF FF  ....fdo1..U.....
0380: 7F F0 FF FF 7F 66 64 6F  31 7B 4D 80 0F 01 52 31  .....fdo1{M...R1
0390: 80 F0 FF FF 7F F0 FF FF  7F 73 30 30 39 45 31 80  .........s009E1.
03A0: F0 FF FF 7F F0 FF FF 7F  73 30 31 31 01 80 45 00  ........s011..E.
03B0: 80 F0 FF FF 7F F0 FF FF  7F 66 64 69 31 01 80 27  .........fdi1..'
03C0: 0A 51 80 0F 01 02 2B 51  80 0F 01 40 80 23 2B 51  .Q....+Q...@.#+Q
03D0: 80 0F 01 41 80 23 52 31  80 F0 FF FF 7F F0 FF FF  ...A.#R1........
03E0: 7F 73 30 31 31 45 31 80  F0 FF FF 7F F0 FF FF 7F  .s011E1.........
03F0: 73 30 31 38 01 80 6C 51  80 0F 01 01 80 42 80 1C  s018..lQ.....B..
0400: 42 80 4E 01 51 80 0F 01  66 35 80 4D 80 0F 01 4D  B.N.Q...f5.M...M
0410: 80 0F 01 74 68 6B 32 2B  4D 80 0F 01 43 80 23 52  ...thk2+M...C.#R
0420: 31 80 F0 FF FF 7F F0 FF  FF 7F 73 30 31 38 22 01  1.........s018".
0430: 45 31 80 F0 FF FF 7F F0  FF FF 7F 73 30 31 30 01  E1.........s010.
0440: 80 79 00 4D 80 0F 01 4E  80 0F 01 27 0A 4E 80 0F  .y.M...N...'.N..
0450: 01 02 2B 4E 80 0F 01 44  80 23 2B 4D 80 0F 01 45  ..+N...D.#+M...E
0460: 80 23 2A 0A 4E 80 0F 01  66 01 80 4E 80 0F 01 4E  .#*.N...f..N...N
0470: 80 0F 01 74 6C 6B 30 2B  4E 80 0F 01 46 80 23 45  ...tlk0+N...F.#E
0480: 47 80 F0 FF FF 7F F0 FF  FF 7F 77 68 6F 31 01 80  G.........who1..
0490: 55 47 80 F0 FF FF 7F F0  FF FF 7F 77 68 6F 31 4E  UG.........who1N
04A0: 00 50 80 0F 01 27 0A 51  80 0F 01 03 52 31 80 F0  .P...'.Q....R1..
04B0: FF FF 7F F0 FF FF 7F 73  30 31 30 45 31 80 F0 FF  .......s010E1...
04C0: FF 7F F0 FF FF 7F 73 30  31 32 01 80 45 47 80 F0  ......s012..EG..
04D0: FF FF 7F F0 FF FF 7F 77  68 69 31 01 80 1C 48 80  .......whi1...H.
04E0: 79 00 50 80 0F 01 51 80  0F 01 66 1B 80 50 80 0F  y.P...Q...f..P..
04F0: 01 50 80 0F 01 64 69 73  30 2B 50 80 0F 01 49 80  .P...dis0+P...I.
0500: 23 2B 51 80 0F 01 4A 80  23 45 47 80 F0 FF FF 7F  #+Q...J.#EG.....
0510: F0 FF FF 7F 77 68 6F 31  01 80 55 47 80 F0 FF FF  ....who1..UG....
0520: 7F F0 FF FF 7F 77 68 6F  31 52 31 80 F0 FF FF 7F  .....who1R1.....
0530: F0 FF FF 7F 73 30 31 32  45 31 80 F0 FF FF 7F F0  ....s012E1......
0540: FF FF 7F 73 30 31 33 01  80 4E 01 51 80 0F 01 45  ...s013..N.Q...E
0550: 47 80 F0 FF FF 7F F0 FF  FF 7F 77 68 69 31 01 80  G.........whi1..
0560: 1C 48 80 2B 4E 80 0F 01  4B 80 23 66 01 80 4E 80  .H.+N...K.#f..N.
0570: 0F 01 4E 80 0F 01 74 65  6E 30 2B 4E 80 0F 01 4C  ..N...ten0+N...L
0580: 80 23 45 47 80 F0 FF FF  7F F0 FF FF 7F 77 68 6F  .#EG.........who
0590: 31 01 80 55 47 80 F0 FF  FF 7F F0 FF FF 7F 77 68  1..UG.........wh
05A0: 6F 31 29 0A 4E 80 0F 01  03 7B 50 80 0F 01 29 0A  o1).N....{P...).
05B0: 50 80 0F 01 02 52 31 80  F0 FF FF 7F F0 FF FF 7F  P....R1.........
05C0: 73 30 31 33 45 31 80 F0  FF FF 7F F0 FF FF 7F 73  s013E1.........s
05D0: 30 31 34 01 80 45 47 80  F0 FF FF 7F F0 FF FF 7F  014..EG.........
05E0: 77 68 69 31 01 80 2B 50  80 0F 01 4D 80 23 2B 50  whi1..+P...M.#+P
05F0: 80 0F 01 4E 80 23 2B 50  80 0F 01 4F 80 23 79 00  ...N.#+P...O.#y.
0600: 50 80 0F 01 4E 80 0F 01  4B 50 80 0F 01 50 80 2B  P...N...KP...P.+
0610: 50 80 0F 01 51 80 23 45  47 80 F0 FF FF 7F F0 FF  P...Q.#EG.......
0620: FF 7F 77 68 6F 31 01 80  55 47 80 F0 FF FF 7F F0  ..who1..UG......
0630: FF FF 7F 77 68 6F 31 22  00 29 0A 4E 80 0F 01 04  ...who1".).N....
0640: 4E 01 50 80 0F 01 79 00  4E 80 0F 01 4D 80 0F 01  N.P...y.N...M...
0650: 52 31 80 F0 FF FF 7F F0  FF FF 7F 73 30 31 34 45  R1.........s014E
0660: 31 80 F0 FF FF 7F F0 FF  FF 7F 73 30 31 35 01 80  1.........s015..
0670: 45 47 80 F0 FF FF 7F F0  FF FF 7F 77 68 69 31 01  EG.........whi1.
0680: 80 1C 48 80 2B 4E 80 0F  01 52 80 23 7B 4E 80 0F  ..H.+N...R.#{N..
0690: 01 2B 4E 80 0F 01 53 80  23 7B 4D 80 0F 01 2B 4D  .+N...S.#{M...+M
06A0: 80 0F 01 54 80 23 5D 01  80 55 80 79 00 4F 80 0F  ...T.#]..U.y.O..
06B0: 01 4E 80 0F 01 45 00 80  F0 FF FF 7F F0 FF FF 7F  .N...E..........
06C0: 66 64 6F 32 01 80 55 00  80 F0 FF FF 7F F0 FF FF  fdo2..U.........
06D0: 7F 66 64 6F 32 4E 01 4D  80 0F 01 1C 48 80 52 31  .fdo2N.M....H.R1
06E0: 80 F0 FF FF 7F F0 FF FF  7F 73 30 31 35 45 31 80  .........s015E1.
06F0: F0 FF FF 7F F0 FF FF 7F  73 30 31 36 01 80 45 00  ........s016..E.
0700: 80 F0 FF FF 7F F0 FF FF  7F 66 64 69 31 01 80 5C  .........fdi1..\
0710: 00 56 80 5C 01 56 80 2B  4F 80 0F 01 57 80 23 4A  .V.\.V.+O...W.#J
0720: 4E 80 0F 01 4F 80 0F 01  2B 4E 80 0F 01 58 80 23  N...O...+N...X.#
0730: 66 01 80 4F 80 0F 01 4F  80 0F 01 74 6C 6B 30 2B  f..O...O...tlk0+
0740: 4F 80 0F 01 59 80 23 66  01 80 4F 80 0F 01 4F 80  O...Y.#f..O...O.
0750: 0F 01 74 65 6E 30 52 31  80 F0 FF FF 7F F0 FF FF  ..ten0R1........
0760: 7F 73 30 31 36 45 31 80  F0 FF FF 7F F0 FF FF 7F  .s016E1.........
0770: 73 30 31 37 01 80 4A 4F  80 0F 01 F0 FF FF 7F 2B  s017..JO.......+
0780: 4F 80 0F 01 5A 80 23 66  01 80 4F 80 0F 01 4F 80  O...Z.#f..O...O.
0790: 0F 01 70 61 73 30 2B 4F  80 0F 01 5B 80 23 2B 4F  ..pas0+O...[.#+O
07A0: 80 0F 01 5C 80 23 45 00  80 F0 FF FF 7F F0 FF FF  ...\.#E.........
07B0: 7F 66 64 6F 32 01 80 55  00 80 F0 FF FF 7F F0 FF  .fdo2..U........
07C0: FF 7F 66 64 6F 32 45 47  80 F0 FF FF 7F F0 FF FF  ..fdo2EG........
07D0: 7F 71 73 74 63 01 80 46  00 45 00 80 F0 FF FF 7F  .qstc..F.E......
07E0: F0 FF FF 7F 66 64 69 32  01 80 21 00              ....fdi2..!.    
```

#### Opcodes

```
  0: 0x0243 [0x46] CAMERA_CONTROL: Disable user control
  1: 0x0245 [0x42] SET_CLI_EVENT_CANCEL_DATA()
  2: 0x0246 [0x03] Work_Zone[9] = 14226*
  3: 0x024B [0x38] SET_CLIENT_EVENT_MODE(mode=19*)
  4: 0x024E [0x32] ExtData[1]->MainSpeed = 13* * 0.1
  5: 0x0251 [0x37] UPDATE_EVENT_POSITION_AND_DIR: x=17.838*, z=-47.247*, y=-2.083*, direction=288.8°*
  6: 0x025A [0x22] ENTITY_HIDE_FLAG(enabled=0x00)
  7: 0x025C [0x80] LOAD_WAIT(entity=Leodarion (ID: 17793101/0x010F804D))
  8: 0x0261 [0x45] LOAD_SCHEDULED_TASK: Load scheduler "fdi2" with entities [LocalPlayer, LocalPlayer], work=[200*, 0*]
  9: 0x0272 [0x45] LOAD_SCHEDULED_TASK: Load scheduler "s008" with entities [LocalPlayer, LocalPlayer], work=[239*, 0*]
 10: 0x0283 [0x79] LocalPlayer looks at Leodarion (ID: 17793101/0x010F804D) (Basic look)
 11: 0x028D [0x79] Leodarion (ID: 17793101/0x010F804D) looks at LocalPlayer (Basic look)
 12: 0x0297 [0x1F] MOVE_ENTITY: EventEntity moves to X=18.235*, Z=-43.795*, Y=-2.576*
 13: 0x029F [0x1F] MOVE_ENTITY: Update entity position (mode=1)
 14: 0x02A1 [0x66] LOAD_EXT_SCHEDULER_MAIN: Load scheduler "tlk0" with entities [Leodarion (ID: 17793101/0x010F804D), Leodarion (ID: 17793101/0x010F804D)], work=20*
 15: 0x02B0 [0x2B] Leodarion (ID: 17793101/0x010F804D) [7303*]:
    → "I've been waiting for you. I heard from one of my sources that you were going to be on that boat from Mhaura."
 16: 0x02B7 [0x23] WAIT_FOR_DIALOG_INTERACTION
 17: 0x02B8 [0x6B] STOP_AND_IDLE: Leodarion (ID: 17793101/0x010F804D) stops current action and resets to idle (animation="idl0")
 18: 0x02C1 [0x2B] Leodarion (ID: 17793101/0x010F804D) [7304*]:
    → "Now, what did you find? You saw an evil spirit, didn't you? Hmm? There was no treasure? But that can't be..."
 19: 0x02C8 [0x23] WAIT_FOR_DIALOG_INTERACTION
 20: 0x02C9 [0x52] END_LOAD_SCHEDULER: End scheduler "s008" with entities [LocalPlayer, LocalPlayer], work=239*
 21: 0x02D8 [0x45] LOAD_SCHEDULED_TASK: Load scheduler "s009" with entities [LocalPlayer, LocalPlayer], work=[239*, 0*]
 22: 0x02E9 [0x27] REQ_SET(priority=0x0A, entity_id=Kagetora (ID: 17793103/0x010F804F), tag_num=0x02)
 23: 0x02F0 [0x1C] WAIT(1* ticks)
 24: 0x02F3 [0x5D] SET_MUSIC_VOLUME(volume=0*, fade_time=180*)
 25: 0x02F8 [0x4A] Leodarion (ID: 17793101/0x010F804D) looks at Kagetora (ID: 17793103/0x010F804F)
 26: 0x0301 [0x2B] Kagetora (ID: 17793103/0x010F804F) [7305*]:
    → "But there was. Look at this."
 27: 0x0308 [0x23] WAIT_FOR_DIALOG_INTERACTION
 28: 0x0309 [0x2B] Leodarion (ID: 17793101/0x010F804D) [7306*]:
    → "You... You're the guy who told me to wait here..."
 29: 0x0310 [0x23] WAIT_FOR_DIALOG_INTERACTION
 30: 0x0311 [0x79] Kagetora (ID: 17793103/0x010F804F) looks at LocalPlayer (Basic look)
 31: 0x031B [0x2B] Kagetora (ID: 17793103/0x010F804F) [7307*]:
    → "Our adventurer here may not have realized it, but there was a piece of paper in the torn rags of the spirit [he/she] defeated. The men on our boat found that memo."
 32: 0x0322 [0x23] WAIT_FOR_DIALOG_INTERACTION
 33: 0x0323 [0x79] Kagetora (ID: 17793103/0x010F804F) looks at Leodarion (ID: 17793101/0x010F804D) (Basic look)
 34: 0x032D [0x2A] GET_REQ_LEVEL(level=10, entity_id=Kagetora (ID: 17793103/0x010F804F))
 35: 0x0333 [0x66] LOAD_EXT_SCHEDULER_MAIN: Load scheduler "pas0" with entities [Kagetora (ID: 17793103/0x010F804F), Kagetora (ID: 17793103/0x010F804F)], work=0*
 36: 0x0342 [0x5C] MUSIC_CONTROL: Set Idle (Day) music to song 159*
 37: 0x0346 [0x5C] MUSIC_CONTROL: Set Idle (Night) music to song 159*
 38: 0x034A [0x2B] Kagetora (ID: 17793103/0x010F804F) [7308*]:
    → "This piece of paper is addressed to you. It's your grandfather's will. The spirit that <Player> fought with was...the ghost of Mitsunari."
 39: 0x0351 [0x23] WAIT_FOR_DIALOG_INTERACTION
 40: 0x0352 [0x66] LOAD_EXT_SCHEDULER_MAIN: Load scheduler "thk1" with entities [Leodarion (ID: 17793101/0x010F804D), Leodarion (ID: 17793101/0x010F804D)], work=20*
 41: 0x0361 [0x2B] Leodarion (ID: 17793101/0x010F804D) [7309*]:
    → "It can't be!"
 42: 0x0368 [0x23] WAIT_FOR_DIALOG_INTERACTION
 43: 0x0369 [0x45] LOAD_SCHEDULED_TASK: Load scheduler "fdo1" with entities [LocalPlayer, LocalPlayer], work=[200*, 0*]
 44: 0x037A [0x55] WAIT_LOAD_SCHEDULER: Wait for scheduler "fdo1" with entities [LocalPlayer, LocalPlayer], work=200*
 45: 0x0389 [0x7B] Leodarion (ID: 17793101/0x010F804D) stops talking
 46: 0x038E [0x52] END_LOAD_SCHEDULER: End scheduler "s009" with entities [LocalPlayer, LocalPlayer], work=239*
 47: 0x039D [0x45] LOAD_SCHEDULED_TASK: Load scheduler "s011" with entities [LocalPlayer, LocalPlayer], work=[239*, 0*]
 48: 0x03AE [0x45] LOAD_SCHEDULED_TASK: Load scheduler "fdi1" with entities [LocalPlayer, LocalPlayer], work=[200*, 0*]
 49: 0x03BF [0x27] REQ_SET(priority=0x0A, entity_id=Mitsunari (ID: 17793105/0x010F8051), tag_num=0x02)
 50: 0x03C6 [0x2B] Mitsunari (ID: 17793105/0x010F8051) [7310*]:
    → "Even though you were not my true grandson, you were always eager to continue in my line of work. I am proud to have someone who appreciated what I did, and I am happy to leave to you all of my knowledge."
 51: 0x03CD [0x23] WAIT_FOR_DIALOG_INTERACTION
 52: 0x03CE [0x2B] Mitsunari (ID: 17793105/0x010F8051) [7311*]:
    → "However, as death approaches me, I have come to realize that maybe it is not my knowledge that is important, but my memories."
 53: 0x03D5 [0x23] WAIT_FOR_DIALOG_INTERACTION
 54: 0x03D6 [0x52] END_LOAD_SCHEDULER: End scheduler "s011" with entities [LocalPlayer, LocalPlayer], work=239*
 55: 0x03E5 [0x45] LOAD_SCHEDULED_TASK: Load scheduler "s018" with entities [LocalPlayer, LocalPlayer], work=[239*, 0*]
 56: 0x03F6 [0x6C] FADE_ENTITY_COLOR(entity_id=Mitsunari (ID: 17793105/0x010F8051), end_alpha=0*, fade_time=90*)
 57: 0x03FF [0x1C] WAIT(90* ticks)
 58: 0x0402 [0x4E] SET_ENTITY_HIDE_FLAG: Hide Mitsunari (ID: 17793105/0x010F8051)
 59: 0x0408 [0x66] LOAD_EXT_SCHEDULER_MAIN: Load scheduler "thk2" with entities [Leodarion (ID: 17793101/0x010F804D), Leodarion (ID: 17793101/0x010F804D)], work=20*
 60: 0x0417 [0x2B] Leodarion (ID: 17793101/0x010F804D) [7312*]:
    → "Wait. This is it? What is he trying to say?"
 61: 0x041E [0x23] WAIT_FOR_DIALOG_INTERACTION
 62: 0x041F [0x52] END_LOAD_SCHEDULER: End scheduler "s018" with entities [LocalPlayer, LocalPlayer], work=239*
 63: 0x042E [0x22] ENTITY_HIDE_FLAG(enabled=0x01)
 64: 0x0430 [0x45] LOAD_SCHEDULED_TASK: Load scheduler "s010" with entities [LocalPlayer, LocalPlayer], work=[239*, 0*]
 65: 0x0441 [0x79] Leodarion (ID: 17793101/0x010F804D) looks at Ensetsu (ID: 17793102/0x010F804E) (Basic look)
 66: 0x044B [0x27] REQ_SET(priority=0x0A, entity_id=Ensetsu (ID: 17793102/0x010F804E), tag_num=0x02)
 67: 0x0452 [0x2B] Ensetsu (ID: 17793102/0x010F804E) [7313*]:
    → "I know. To pass on their memories...that is what drives a parent."
 68: 0x0459 [0x23] WAIT_FOR_DIALOG_INTERACTION
 69: 0x045A [0x2B] Leodarion (ID: 17793101/0x010F804D) [7314*]:
    → "Who are you..."
 70: 0x0461 [0x23] WAIT_FOR_DIALOG_INTERACTION
 71: 0x0462 [0x2A] GET_REQ_LEVEL(level=10, entity_id=Ensetsu (ID: 17793102/0x010F804E))
 72: 0x0468 [0x66] LOAD_EXT_SCHEDULER_MAIN: Load scheduler "tlk0" with entities [Ensetsu (ID: 17793102/0x010F804E), Ensetsu (ID: 17793102/0x010F804E)], work=0*
 73: 0x0477 [0x2B] Ensetsu (ID: 17793102/0x010F804E) [7315*]:
    → "I am Yomi's husband. Many years ago, she met your grandfather here in this very town."
 74: 0x047E [0x23] WAIT_FOR_DIALOG_INTERACTION
 75: 0x047F [0x45] LOAD_SCHEDULED_TASK: Load scheduler "who1" with entities [LocalPlayer, LocalPlayer], work=[201*, 0*]
 76: 0x0490 [0x55] WAIT_LOAD_SCHEDULER: Wait for scheduler "who1" with entities [LocalPlayer, LocalPlayer], work=201*
 77: 0x049F [0x4E] SET_ENTITY_HIDE_FLAG: Show Yomi (ID: 17793104/0x010F8050)
 78: 0x04A5 [0x27] REQ_SET(priority=0x0A, entity_id=Mitsunari (ID: 17793105/0x010F8051), tag_num=0x03)
 79: 0x04AC [0x52] END_LOAD_SCHEDULER: End scheduler "s010" with entities [LocalPlayer, LocalPlayer], work=239*
 80: 0x04BB [0x45] LOAD_SCHEDULED_TASK: Load scheduler "s012" with entities [LocalPlayer, LocalPlayer], work=[239*, 0*]
 81: 0x04CC [0x45] LOAD_SCHEDULED_TASK: Load scheduler "whi1" with entities [LocalPlayer, LocalPlayer], work=[201*, 0*]
 82: 0x04DD [0x1C] WAIT(30* ticks)
 83: 0x04E0 [0x79] Yomi (ID: 17793104/0x010F8050) looks at Mitsunari (ID: 17793105/0x010F8051) (Basic look)
 84: 0x04EA [0x66] LOAD_EXT_SCHEDULER_MAIN: Load scheduler "dis0" with entities [Yomi (ID: 17793104/0x010F8050), Yomi (ID: 17793104/0x010F8050)], work=10*
 85: 0x04F9 [0x2B] Yomi (ID: 17793104/0x010F8050) [7316*]:
    → "Someone to pass their memories on to? I've got my hands full with my ninja training. I don't have time for anyone else."
 86: 0x0500 [0x23] WAIT_FOR_DIALOG_INTERACTION
 87: 0x0501 [0x2B] Mitsunari (ID: 17793105/0x010F8051) [7317*]:
    → "Yomi... You may not know now, but one day you'll understand who that someone is..."
 88: 0x0508 [0x23] WAIT_FOR_DIALOG_INTERACTION
 89: 0x0509 [0x45] LOAD_SCHEDULED_TASK: Load scheduler "who1" with entities [LocalPlayer, LocalPlayer], work=[201*, 0*]
 90: 0x051A [0x55] WAIT_LOAD_SCHEDULER: Wait for scheduler "who1" with entities [LocalPlayer, LocalPlayer], work=201*
 91: 0x0529 [0x52] END_LOAD_SCHEDULER: End scheduler "s012" with entities [LocalPlayer, LocalPlayer], work=239*
 92: 0x0538 [0x45] LOAD_SCHEDULED_TASK: Load scheduler "s013" with entities [LocalPlayer, LocalPlayer], work=[239*, 0*]
 93: 0x0549 [0x4E] SET_ENTITY_HIDE_FLAG: Hide Mitsunari (ID: 17793105/0x010F8051)
 94: 0x054F [0x45] LOAD_SCHEDULED_TASK: Load scheduler "whi1" with entities [LocalPlayer, LocalPlayer], work=[201*, 0*]
 95: 0x0560 [0x1C] WAIT(30* ticks)
 96: 0x0563 [0x2B] Ensetsu (ID: 17793102/0x010F804E) [7318*]:
    → "She remembered those words the day she accepted the mission to find Mitsunari's lost treasure."
 97: 0x056A [0x23] WAIT_FOR_DIALOG_INTERACTION
 98: 0x056B [0x66] LOAD_EXT_SCHEDULER_MAIN: Load scheduler "ten0" with entities [Ensetsu (ID: 17793102/0x010F804E), Ensetsu (ID: 17793102/0x010F804E)], work=0*
 99: 0x057A [0x2B] Ensetsu (ID: 17793102/0x010F804E) [7319*]:
    → "By that time she was already carrying our daughter, Ayame."
100: 0x0581 [0x23] WAIT_FOR_DIALOG_INTERACTION
101: 0x0582 [0x45] LOAD_SCHEDULED_TASK: Load scheduler "who1" with entities [LocalPlayer, LocalPlayer], work=[201*, 0*]
102: 0x0593 [0x55] WAIT_LOAD_SCHEDULER: Wait for scheduler "who1" with entities [LocalPlayer, LocalPlayer], work=201*
103: 0x05A2 [0x29] REQ_SET_WAIT(priority=0x0A, entity_id=Ensetsu (ID: 17793102/0x010F804E), tag_num=0x03)
104: 0x05A9 [0x7B] Yomi (ID: 17793104/0x010F8050) stops talking
105: 0x05AE [0x29] REQ_SET_WAIT(priority=0x0A, entity_id=Yomi (ID: 17793104/0x010F8050), tag_num=0x02)
106: 0x05B5 [0x52] END_LOAD_SCHEDULER: End scheduler "s013" with entities [LocalPlayer, LocalPlayer], work=239*
107: 0x05C4 [0x45] LOAD_SCHEDULED_TASK: Load scheduler "s014" with entities [LocalPlayer, LocalPlayer], work=[239*, 0*]
108: 0x05D5 [0x45] LOAD_SCHEDULED_TASK: Load scheduler "whi1" with entities [LocalPlayer, LocalPlayer], work=[201*, 0*]
109: 0x05E6 [0x2B] Yomi (ID: 17793104/0x010F8050) [7320*]:
    → "I think I finally understand what old Mitsunari was trying to say..."
110: 0x05ED [0x23] WAIT_FOR_DIALOG_INTERACTION
111: 0x05EE [0x2B] Yomi (ID: 17793104/0x010F8050) [7321*]:
    → "I am not ashamed of what I have done. I am ready to pass my memories on to someone special...our child."
112: 0x05F5 [0x23] WAIT_FOR_DIALOG_INTERACTION
113: 0x05F6 [0x2B] Yomi (ID: 17793104/0x010F8050) [7322*]:
    → "Not the memories of the skills I have acquired, but the memories of the way of life I have lived--the way of the ninja."
114: 0x05FD [0x23] WAIT_FOR_DIALOG_INTERACTION
115: 0x05FE [0x79] Yomi (ID: 17793104/0x010F8050) looks at Ensetsu (ID: 17793102/0x010F804E) (Basic look)
116: 0x0608 [0x4B] UPDATE_ENTITY_YAW(entity=Yomi (ID: 17793104/0x010F8050), yaw=3.9°*)
117: 0x060F [0x2B] Yomi (ID: 17793104/0x010F8050) [7323*]:
    → "I want those memories to live on in your heart..."
118: 0x0616 [0x23] WAIT_FOR_DIALOG_INTERACTION
119: 0x0617 [0x45] LOAD_SCHEDULED_TASK: Load scheduler "who1" with entities [LocalPlayer, LocalPlayer], work=[201*, 0*]
120: 0x0628 [0x55] WAIT_LOAD_SCHEDULER: Wait for scheduler "who1" with entities [LocalPlayer, LocalPlayer], work=201*
121: 0x0637 [0x22] ENTITY_HIDE_FLAG(enabled=0x00)
122: 0x0639 [0x29] REQ_SET_WAIT(priority=0x0A, entity_id=Ensetsu (ID: 17793102/0x010F804E), tag_num=0x04)
123: 0x0640 [0x4E] SET_ENTITY_HIDE_FLAG: Hide Yomi (ID: 17793104/0x010F8050)
124: 0x0646 [0x79] Ensetsu (ID: 17793102/0x010F804E) looks at Leodarion (ID: 17793101/0x010F804D) (Basic look)
125: 0x0650 [0x52] END_LOAD_SCHEDULER: End scheduler "s014" with entities [LocalPlayer, LocalPlayer], work=239*
126: 0x065F [0x45] LOAD_SCHEDULED_TASK: Load scheduler "s015" with entities [LocalPlayer, LocalPlayer], work=[239*, 0*]
127: 0x0670 [0x45] LOAD_SCHEDULED_TASK: Load scheduler "whi1" with entities [LocalPlayer, LocalPlayer], work=[201*, 0*]
128: 0x0681 [0x1C] WAIT(30* ticks)
129: 0x0684 [0x2B] Ensetsu (ID: 17793102/0x010F804E) [7324*]:
    → "Those who are obsessed in mastering their skills often lose sight of the reason they first began walking down that path."
130: 0x068B [0x23] WAIT_FOR_DIALOG_INTERACTION
131: 0x068C [0x7B] Ensetsu (ID: 17793102/0x010F804E) stops talking
132: 0x0691 [0x2B] Ensetsu (ID: 17793102/0x010F804E) [7325*]:
    → "Mitsunari wanted you to know that. That is why his spirit remained at sea."
133: 0x0698 [0x23] WAIT_FOR_DIALOG_INTERACTION
134: 0x0699 [0x7B] Leodarion (ID: 17793101/0x010F804D) stops talking
135: 0x069E [0x2B] Leodarion (ID: 17793101/0x010F804D) [7326*]:
    → "Grandfather..."
136: 0x06A5 [0x23] WAIT_FOR_DIALOG_INTERACTION
137: 0x06A6 [0x5D] SET_MUSIC_VOLUME(volume=0*, fade_time=150*)
138: 0x06AB [0x79] Kagetora (ID: 17793103/0x010F804F) looks at Ensetsu (ID: 17793102/0x010F804E) (Basic look)
139: 0x06B5 [0x45] LOAD_SCHEDULED_TASK: Load scheduler "fdo2" with entities [LocalPlayer, LocalPlayer], work=[200*, 0*]
140: 0x06C6 [0x55] WAIT_LOAD_SCHEDULER: Wait for scheduler "fdo2" with entities [LocalPlayer, LocalPlayer], work=200*
141: 0x06D5 [0x4E] SET_ENTITY_HIDE_FLAG: Hide Leodarion (ID: 17793101/0x010F804D)
142: 0x06DB [0x1C] WAIT(30* ticks)
143: 0x06DE [0x52] END_LOAD_SCHEDULER: End scheduler "s015" with entities [LocalPlayer, LocalPlayer], work=239*
144: 0x06ED [0x45] LOAD_SCHEDULED_TASK: Load scheduler "s016" with entities [LocalPlayer, LocalPlayer], work=[239*, 0*]
145: 0x06FE [0x45] LOAD_SCHEDULED_TASK: Load scheduler "fdi1" with entities [LocalPlayer, LocalPlayer], work=[200*, 0*]
146: 0x070F [0x5C] MUSIC_CONTROL: Set Idle (Day) music to song 112*
147: 0x0713 [0x5C] MUSIC_CONTROL: Set Idle (Night) music to song 112*
148: 0x0717 [0x2B] Kagetora (ID: 17793103/0x010F804F) [7327*]:
    → "Awww, just like a page out of a romance novel... You sure have nerve showing your face here, Ensetsu."
149: 0x071E [0x23] WAIT_FOR_DIALOG_INTERACTION
150: 0x071F [0x4A] Ensetsu (ID: 17793102/0x010F804E) looks at Kagetora (ID: 17793103/0x010F804F)
151: 0x0728 [0x2B] Ensetsu (ID: 17793102/0x010F804E) [7328*]:
    → "I-I apologize if..."
152: 0x072F [0x23] WAIT_FOR_DIALOG_INTERACTION
153: 0x0730 [0x66] LOAD_EXT_SCHEDULER_MAIN: Load scheduler "tlk0" with entities [Kagetora (ID: 17793103/0x010F804F), Kagetora (ID: 17793103/0x010F804F)], work=0*
154: 0x073F [0x2B] Kagetora (ID: 17793103/0x010F804F) [7329*]:
    → "Ha! When are you going to stop acting like a frightened puppy and turn into a real man?"
155: 0x0746 [0x23] WAIT_FOR_DIALOG_INTERACTION
156: 0x0747 [0x66] LOAD_EXT_SCHEDULER_MAIN: Load scheduler "ten0" with entities [Kagetora (ID: 17793103/0x010F804F), Kagetora (ID: 17793103/0x010F804F)], work=0*
157: 0x0756 [0x52] END_LOAD_SCHEDULER: End scheduler "s016" with entities [LocalPlayer, LocalPlayer], work=239*
158: 0x0765 [0x45] LOAD_SCHEDULED_TASK: Load scheduler "s017" with entities [LocalPlayer, LocalPlayer], work=[239*, 0*]
159: 0x0776 [0x4A] Kagetora (ID: 17793103/0x010F804F) looks at LocalPlayer
160: 0x077F [0x2B] Kagetora (ID: 17793103/0x010F804F) [7330*]:
    → "Oh, and you. For your troubles, you can have Mitsunari's $7."
161: 0x0786 [0x23] WAIT_FOR_DIALOG_INTERACTION
162: 0x0787 [0x66] LOAD_EXT_SCHEDULER_MAIN: Load scheduler "pas0" with entities [Kagetora (ID: 17793103/0x010F804F), Kagetora (ID: 17793103/0x010F804F)], work=0*
163: 0x0796 [0x2B] Kagetora (ID: 17793103/0x010F804F) [7331*]:
    → "Leodarion asked me to give it to you before he left."
164: 0x079D [0x23] WAIT_FOR_DIALOG_INTERACTION
165: 0x079E [0x2B] Kagetora (ID: 17793103/0x010F804F) [7332*]:
    → "And now we're back to where we started... So long, <Player>. I have a feeling I'll be seeing you again soon."
166: 0x07A5 [0x23] WAIT_FOR_DIALOG_INTERACTION
167: 0x07A6 [0x45] LOAD_SCHEDULED_TASK: Load scheduler "fdo2" with entities [LocalPlayer, LocalPlayer], work=[200*, 0*]
168: 0x07B7 [0x55] WAIT_LOAD_SCHEDULER: Wait for scheduler "fdo2" with entities [LocalPlayer, LocalPlayer], work=200*
169: 0x07C6 [0x45] LOAD_SCHEDULED_TASK: Load scheduler "qstc" with entities [LocalPlayer, LocalPlayer], work=[201*, 0*]
170: 0x07D7 [0x46] CAMERA_CONTROL: Restore default settings
171: 0x07D9 [0x45] LOAD_SCHEDULED_TASK: Load scheduler "fdi2" with entities [LocalPlayer, LocalPlayer], work=[200*, 0*]
172: 0x07EA [0x21] END_EVENT
173: 0x07EB [0x00] END_REQSTACK()
```

### Event 65535.9

#### Metadata

| Field        | Value    |
|--------------|----------|
| Entrypoint   | 0x07EC   |
| Data Size    | 20 bytes |
| Instructions | 3        |

```
      00 01 02 03 04 05 06 07  08 09 0A 0B 0C 0D 0E 0F
      -- -- -- -- -- -- -- --  -- -- -- -- -- -- -- --
07E0:                                      79 00 F8 FF              y...
07F0: FF 7F 16 80 0F 01 37 5D  80 5E 80 5F 80 60 80 00  ......7].^._.`..
```

#### Opcodes

```
  0: 0x07EC [0x79] EventEntity looks at Yaya (ID: 17793046/0x010F8016) (Basic look)
  1: 0x07F6 [0x37] UPDATE_EVENT_POSITION_AND_DIR: x=-20.443*, z=-15.032*, y=-2.597*, direction=350.1°*
  2: 0x07FF [0x00] END_REQSTACK()
```

### Event 65535.10

#### Metadata

| Field        | Value    |
|--------------|----------|
| Entrypoint   | 0x0800   |
| Data Size    | 10 bytes |
| Instructions | 2        |

```
      00 01 02 03 04 05 06 07  08 09 0A 0B 0C 0D 0E 0F
      -- -- -- -- -- -- -- --  -- -- -- -- -- -- -- --
0800: 37 61 80 62 80 63 80 64  80 00                    7a.b.c.d..      
```

#### Opcodes

```
  0: 0x0800 [0x37] UPDATE_EVENT_POSITION_AND_DIR: x=13.792*, z=4.208*, y=-7.287*, direction=126.9°*
  1: 0x0809 [0x00] END_REQSTACK()
```

### Event 65535.11

#### Metadata

| Field        | Value   |
|--------------|---------|
| Entrypoint   | 0x080A  |
| Data Size    | 6 bytes |
| Instructions | 2       |

```
      00 01 02 03 04 05 06 07  08 09 0A 0B 0C 0D 0E 0F
      -- -- -- -- -- -- -- --  -- -- -- -- -- -- -- --
0800:                                03 02 10 0B 7F 00            ......
```

#### Opcodes

```
  0: 0x080A [0x03] Work_Zone[2] = (Entity->Render.Flags01 >> 25) & 1
  1: 0x080F [0x00] END_REQSTACK()
```

### Event 65535.12

#### Metadata

| Field        | Value   |
|--------------|---------|
| Entrypoint   | 0x0810  |
| Data Size    | 6 bytes |
| Instructions | 2       |

```
      00 01 02 03 04 05 06 07  08 09 0A 0B 0C 0D 0E 0F
      -- -- -- -- -- -- -- --  -- -- -- -- -- -- -- --
0810: 03 02 10 07 7F 00                                 ......          
```

#### Opcodes

```
  0: 0x0810 [0x03] Work_Zone[2] = Entity->Race
  1: 0x0815 [0x00] END_REQSTACK()
```

### Event 65535.13

#### Metadata

| Field        | Value   |
|--------------|---------|
| Entrypoint   | 0x0816  |
| Data Size    | 6 bytes |
| Instructions | 2       |

```
      00 01 02 03 04 05 06 07  08 09 0A 0B 0C 0D 0E 0F
      -- -- -- -- -- -- -- --  -- -- -- -- -- -- -- --
0810:                   03 09  10 07 7F 00                    ......    
```

#### Opcodes

```
  0: 0x0816 [0x03] Work_Zone[9] = Entity->Race
  1: 0x081B [0x00] END_REQSTACK()
```

### Event 65535.14

#### Metadata

| Field        | Value   |
|--------------|---------|
| Entrypoint   | 0x081C  |
| Data Size    | 6 bytes |
| Instructions | 2       |

```
      00 01 02 03 04 05 06 07  08 09 0A 0B 0C 0D 0E 0F
      -- -- -- -- -- -- -- --  -- -- -- -- -- -- -- --
0810:                                      03 02 10 06              ....
0820: 7F 00                                             ..              
```

#### Opcodes

```
  0: 0x081C [0x03] Work_Zone[2] = Entity->JobId (if LocalPlayer)
  1: 0x0821 [0x00] END_REQSTACK()
```

### Event 65535.15

#### Metadata

| Field        | Value   |
|--------------|---------|
| Entrypoint   | 0x0822  |
| Data Size    | 6 bytes |
| Instructions | 2       |

```
      00 01 02 03 04 05 06 07  08 09 0A 0B 0C 0D 0E 0F
      -- -- -- -- -- -- -- --  -- -- -- -- -- -- -- --
0820:       03 08 10 07 7F 00                             ......        
```

#### Opcodes

```
  0: 0x0822 [0x03] Work_Zone[8] = Entity->Race
  1: 0x0827 [0x00] END_REQSTACK()
```

### Event 65535.16

#### Metadata

| Field        | Value    |
|--------------|----------|
| Entrypoint   | 0x0828   |
| Data Size    | 10 bytes |
| Instructions | 2        |

```
      00 01 02 03 04 05 06 07  08 09 0A 0B 0C 0D 0E 0F
      -- -- -- -- -- -- -- --  -- -- -- -- -- -- -- --
0820:                          37 65 80 66 80 67 80 68          7e.f.g.h
0830: 80 00                                             ..              
```

#### Opcodes

```
  0: 0x0828 [0x37] UPDATE_EVENT_POSITION_AND_DIR: x=16.589*, z=-6.504*, y=-7.339*, direction=176.8°*
  1: 0x0831 [0x00] END_REQSTACK()
```

### Event 65535.17

#### Metadata

| Field        | Value    |
|--------------|----------|
| Entrypoint   | 0x0832   |
| Data Size    | 10 bytes |
| Instructions | 2        |

```
      00 01 02 03 04 05 06 07  08 09 0A 0B 0C 0D 0E 0F
      -- -- -- -- -- -- -- --  -- -- -- -- -- -- -- --
0830:       37 69 80 6A 80 63  80 6B 80 00                7i.j.c.k..    
```

#### Opcodes

```
  0: 0x0832 [0x37] UPDATE_EVENT_POSITION_AND_DIR: x=16.780*, z=7.340*, y=-7.287*, direction=7.3°*
  1: 0x083B [0x00] END_REQSTACK()
```

### Event 65535.18

#### Metadata

| Field        | Value    |
|--------------|----------|
| Entrypoint   | 0x083C   |
| Data Size    | 17 bytes |
| Instructions | 5        |

```
      00 01 02 03 04 05 06 07  08 09 0A 0B 0C 0D 0E 0F
      -- -- -- -- -- -- -- --  -- -- -- -- -- -- -- --
0830:                                      1C 6C 80 32              .l.2
0840: 06 80 5A 00 6D 80 6E 80  6F 80 5A 01 00           ..Z.m.n.o.Z..   
```

#### Opcodes

```
  0: 0x083C [0x1C] WAIT(100* ticks)
  1: 0x083F [0x32] ExtData[1]->MainSpeed = 13* * 0.1
  2: 0x0842 [0x5A] UPDATE_EVENT_POSITION: Set EventEntity MovePosition to X=26.570*, Z=7.353*, Y=-6.558*
  3: 0x084A [0x5A] UPDATE_EVENT_POSITION: Move EventEntity incrementally towards MovePosition
  4: 0x084C [0x00] END_REQSTACK()
```

### Event 65535.19

#### Metadata

| Field        | Value    |
|--------------|----------|
| Entrypoint   | 0x084D   |
| Data Size    | 10 bytes |
| Instructions | 2        |

```
      00 01 02 03 04 05 06 07  08 09 0A 0B 0C 0D 0E 0F
      -- -- -- -- -- -- -- --  -- -- -- -- -- -- -- --
0840:                                         37 70 80               7p.
0850: 71 80 72 80 73 80 00                              q.r.s..         
```

#### Opcodes

```
  0: 0x084D [0x37] UPDATE_EVENT_POSITION_AND_DIR: x=-53.549*, z=-11.364*, y=-11.338*, direction=45.7°*
  1: 0x0856 [0x00] END_REQSTACK()
```

### Event 1110

#### Metadata

| Field        | Value   |
|--------------|---------|
| Entrypoint   | 0x0857  |
| Data Size    | 1 bytes |
| Instructions | 1       |

```
      00 01 02 03 04 05 06 07  08 09 0A 0B 0C 0D 0E 0F
      -- -- -- -- -- -- -- --  -- -- -- -- -- -- -- --
0850:                      00                                  .        
```

#### Opcodes

```
  0: 0x0857 [0x00] END_REQSTACK()
```

### Event 65535.20

#### Metadata

| Field        | Value    |
|--------------|----------|
| Entrypoint   | 0x0858   |
| Data Size    | 15 bytes |
| Instructions | 3        |

```
      00 01 02 03 04 05 06 07  08 09 0A 0B 0C 0D 0E 0F
      -- -- -- -- -- -- -- --  -- -- -- -- -- -- -- --
0850:                          37 74 80 75 80 76 80 77          7t.u.v.w
0860: 80 80 F8 FF FF 7F 00                              .......         
```

#### Opcodes

```
  0: 0x0858 [0x37] UPDATE_EVENT_POSITION_AND_DIR: x=-34.604*, z=-27.370*, y=-0.973*, direction=119.0°*
  1: 0x0861 [0x80] LOAD_WAIT(entity=EventEntity)
  2: 0x0866 [0x00] END_REQSTACK()
```

### Event 65535.21

#### Metadata

| Field        | Value    |
|--------------|----------|
| Entrypoint   | 0x0867   |
| Data Size    | 13 bytes |
| Instructions | 3        |

```
      00 01 02 03 04 05 06 07  08 09 0A 0B 0C 0D 0E 0F
      -- -- -- -- -- -- -- --  -- -- -- -- -- -- -- --
0860:                      36  78 80 79 80 7A 80 80 F8         6x.y.z...
0870: FF FF 7F 00                                       ....            
```

#### Opcodes

```
  0: 0x0867 [0x36] SET_ENTITY_EVENT_POSITION(pos_x=-33.617*, pos_z=-28.349*, pos_y=-0.923*)
  1: 0x086E [0x80] LOAD_WAIT(entity=EventEntity)
  2: 0x0873 [0x00] END_REQSTACK()
```

### Event 65535.22

#### Metadata

| Field        | Value    |
|--------------|----------|
| Entrypoint   | 0x0874   |
| Data Size    | 15 bytes |
| Instructions | 3        |

```
      00 01 02 03 04 05 06 07  08 09 0A 0B 0C 0D 0E 0F
      -- -- -- -- -- -- -- --  -- -- -- -- -- -- -- --
0870:             37 7B 80 7C  80 7D 80 7E 80 80 F8 FF      7{.|.}.~....
0880: FF 7F 00                                          ...             
```

#### Opcodes

```
  0: 0x0874 [0x37] UPDATE_EVENT_POSITION_AND_DIR: x=-34.520*, z=-27.876*, y=-0.976*, direction=88.6°*
  1: 0x087D [0x80] LOAD_WAIT(entity=EventEntity)
  2: 0x0882 [0x00] END_REQSTACK()
```

### Event 65535.23

#### Metadata

| Field        | Value    |
|--------------|----------|
| Entrypoint   | 0x0883   |
| Data Size    | 15 bytes |
| Instructions | 3        |

```
      00 01 02 03 04 05 06 07  08 09 0A 0B 0C 0D 0E 0F
      -- -- -- -- -- -- -- --  -- -- -- -- -- -- -- --
0880:          37 7F 80 80 80  81 80 7E 80 80 F8 FF FF     7......~.....
0890: 7F 00                                             ..              
```

#### Opcodes

```
  0: 0x0883 [0x37] UPDATE_EVENT_POSITION_AND_DIR: x=-34.142*, z=-28.703*, y=-0.883*, direction=88.6°*
  1: 0x088C [0x80] LOAD_WAIT(entity=EventEntity)
  2: 0x0891 [0x00] END_REQSTACK()
```

### Event 65535.24

#### Metadata

| Field        | Value    |
|--------------|----------|
| Entrypoint   | 0x0892   |
| Data Size    | 15 bytes |
| Instructions | 3        |

```
      00 01 02 03 04 05 06 07  08 09 0A 0B 0C 0D 0E 0F
      -- -- -- -- -- -- -- --  -- -- -- -- -- -- -- --
0890:       37 82 80 83 80 84  80 7E 80 80 F8 FF FF 7F    7......~......
08A0: 00                                                .               
```

#### Opcodes

```
  0: 0x0892 [0x37] UPDATE_EVENT_POSITION_AND_DIR: x=-34.373*, z=-30.018*, y=-0.735*, direction=88.6°*
  1: 0x089B [0x80] LOAD_WAIT(entity=EventEntity)
  2: 0x08A0 [0x00] END_REQSTACK()
```

### Event 65535.25

#### Metadata

| Field        | Value    |
|--------------|----------|
| Entrypoint   | 0x08A1   |
| Data Size    | 15 bytes |
| Instructions | 3        |

```
      00 01 02 03 04 05 06 07  08 09 0A 0B 0C 0D 0E 0F
      -- -- -- -- -- -- -- --  -- -- -- -- -- -- -- --
08A0:    37 85 80 86 80 87 80  77 80 80 F8 FF FF 7F 00   7......w.......
```

#### Opcodes

```
  0: 0x08A1 [0x37] UPDATE_EVENT_POSITION_AND_DIR: x=-35.834*, z=-27.773*, y=-0.986*, direction=119.0°*
  1: 0x08AA [0x80] LOAD_WAIT(entity=EventEntity)
  2: 0x08AF [0x00] END_REQSTACK()
```

### Event 65535.26

#### Metadata

| Field        | Value    |
|--------------|----------|
| Entrypoint   | 0x08B0   |
| Data Size    | 37 bytes |
| Instructions | 6        |

```
      00 01 02 03 04 05 06 07  08 09 0A 0B 0C 0D 0E 0F
      -- -- -- -- -- -- -- --  -- -- -- -- -- -- -- --
08B0: 03 00 00 38 80 02 00 00  38 80 00 D4 08 45 88 80  ...8....8....E..
08C0: F0 FF FF 7F F0 FF FF 7F  6B 69 72 61 01 80 1C 42  ........kira...B
08D0: 80 01 B5 08 00                                    .....           
```

#### Opcodes

```
  0: 0x08B0 [0x03] ExtData[1]->WorkLocal[0] = 1*
  1: 0x08B5 [0x02] IF !(ExtData[1]->WorkLocal[0] == 1*) GOTO 0x08D4
  2: 0x08BD [0x45] LOAD_SCHEDULED_TASK: Load scheduler "kira" with entities [LocalPlayer, LocalPlayer], work=[203*, 0*]
  3: 0x08CE [0x1C] WAIT(90* ticks)
  4: 0x08D1 [0x01] GOTO 0x08B5
  5: 0x08D4 [0x00] END_REQSTACK()
```

### Event 65535.27

#### Metadata

| Field        | Value   |
|--------------|---------|
| Entrypoint   | 0x08D5  |
| Data Size    | 6 bytes |
| Instructions | 2       |

```
      00 01 02 03 04 05 06 07  08 09 0A 0B 0C 0D 0E 0F
      -- -- -- -- -- -- -- --  -- -- -- -- -- -- -- --
08D0:                03 00 00  01 80 00                      ......     
```

#### Opcodes

```
  0: 0x08D5 [0x03] ExtData[1]->WorkLocal[0] = 0*
  1: 0x08DA [0x00] END_REQSTACK()
```

### Event 1114

#### Metadata

| Field        | Value   |
|--------------|---------|
| Entrypoint   | 0x08DB  |
| Data Size    | 1 bytes |
| Instructions | 1       |

```
      00 01 02 03 04 05 06 07  08 09 0A 0B 0C 0D 0E 0F
      -- -- -- -- -- -- -- --  -- -- -- -- -- -- -- --
08D0:                                   00                         .    
```

#### Opcodes

```
  0: 0x08DB [0x00] END_REQSTACK()
```

### Event 65535.28

#### Metadata

| Field        | Value    |
|--------------|----------|
| Entrypoint   | 0x08DC   |
| Data Size    | 19 bytes |
| Instructions | 5        |

```
      00 01 02 03 04 05 06 07  08 09 0A 0B 0C 0D 0E 0F
      -- -- -- -- -- -- -- --  -- -- -- -- -- -- -- --
08D0:                                      32 06 80 1F              2...
08E0: 00 89 80 8A 80 19 80 1F  01 1E 7A 80 0F 01 00     ..........z.... 
```

#### Opcodes

```
  0: 0x08DC [0x32] ExtData[1]->MainSpeed = 13* * 0.1
  1: 0x08DF [0x1F] MOVE_ENTITY: EventEntity moves to X=17.811*, Z=79.166*, Y=-14.558*
  2: 0x08E7 [0x1F] MOVE_ENTITY: Update entity position (mode=1)
  3: 0x08E9 [0x1E] EventEntity looks at Esteban (ID: 17793146/0x010F807A) and starts talking
  4: 0x08EE [0x00] END_REQSTACK()
```

### Event 10038

#### Metadata

| Field        | Value    |
|--------------|----------|
| Entrypoint   | 0x08EF   |
| Data Size    | 43 bytes |
| Instructions | 7        |

```
      00 01 02 03 04 05 06 07  08 09 0A 0B 0C 0D 0E 0F
      -- -- -- -- -- -- -- --  -- -- -- -- -- -- -- --
08E0:                                               42                 B
08F0: 48 8B 80 45 00 80 F0 FF  FF 7F F0 FF FF 7F 66 64  H..E..........fd
0900: 6F 31 01 80 62 38 80 F0  FF FF 7F F0 FF FF 7F 6D  o1..b8.........m
0910: 61 69 6E 01 80 1C 42 80  21 00                    ain...B.!.      
```

#### Opcodes

```
  0: 0x08EF [0x42] SET_CLI_EVENT_CANCEL_DATA()
  1: 0x08F0 [0x48] [System] [8075*]:
    → "Entering [/$26A Stygian Pact/$26Champion of the Dawn/$26Divine Interference/$26Maiden of the Dusk][/: Very Difficult/: Difficult/: Normal/: Easy/: Very Easy]."
  2: 0x08F3 [0x45] LOAD_SCHEDULED_TASK: Load scheduler "fdo1" with entities [LocalPlayer, LocalPlayer], work=[200*, 0*]
  3: 0x0904 [0x62] LOAD_EVENT_SCHEDULER: Load scheduler "main" with entities [LocalPlayer, LocalPlayer], work=[1*, 0*]
  4: 0x0915 [0x1C] WAIT(90* ticks)
  5: 0x0918 [0x21] END_EVENT
  6: 0x0919 [0x00] END_REQSTACK()
```
