# Event 65535

## Metadata

| Field           | Value    |
|-----------------|----------|
| Event Index     | 5/15     |
| Offset          | 0x0055   |
| Data Size       | 63 bytes |
| Calculated Size | 63 bytes |
| Instructions    | 6        |

```
      00 01 02 03 04 05 06 07  08 09 0A 0B 0C 0D 0E 0F
      -- -- -- -- -- -- -- --  -- -- -- -- -- -- -- --
0050:                BA F0 FF  FF 7F 08 80 09 80 0A 80       ...........
0060: 0B 80 BA 22 90 11 01 0C  80 0D 80 0E 80 0F 80 BA  ..."............
0070: 2A 90 11 01 04 80 05 80  06 80 07 80 5F 03 10 80  *..........._...
0080: 2A 90 11 01 2A 90 11 01  6A 79 75 6C 27 10 F0 FF  *...*...jyul'...
0090: FF 7F 10 00                                       ....            
```

## Opcodes

```
  0: 0x0055 [0xBA] SET_ENTITY_POSITION(entity_id=LocalPlayer, pos_x=-20.316*, pos_z=93.008*, pos_y=-12.294*, direction=304.4°*)
  1: 0x0062 [0xBA] SET_ENTITY_POSITION(entity_id=References[17895458], pos_x=-20.569*, pos_z=89.191*, pos_y=-12.283*, direction=287.4°*)
  2: 0x006F [0xBA] SET_ENTITY_POSITION(entity_id=References[17895466], pos_x=-19.683*, pos_z=91.623*, pos_y=-12.270*, direction=90.0°*)
  3: 0x007C [0x5F] MULTI_HANDLER_COMPLEX(mode=0x03 - Load ext scheduler (OpCode 0x5B mode 0), ref=References[16], entity1=Unnamed NPC (ID: 17928234/0x0111902A), entity2=Unnamed NPC (ID: 17928234/0x0111902A), string="jyul")
  4: 0x008C [0x27] REQ_SET(priority=0x10, entity_id=LocalPlayer, tag_num=0x10)
  5: 0x0093 [0x00] END_REQSTACK()
```
