# Event 65535

## Metadata

| Field           | Value    |
|-----------------|----------|
| Event Index     | 8/15     |
| Offset          | 0x011C   |
| Data Size       | 67 bytes |
| Calculated Size | 67 bytes |
| Instructions    | 8        |

```
      00 01 02 03 04 05 06 07  08 09 0A 0B 0C 0D 0E 0F
      -- -- -- -- -- -- -- --  -- -- -- -- -- -- -- --
0110:                                      BA 34 90 11              .4..
0120: 01 04 80 1F 80 20 80 07  80 BA 2A 90 11 01 04 80  ..... ....*.....
0130: 21 80 22 80 03 80 81 00  2A 90 11 01 81 00 29 90  !.".....*.....).
0140: 11 01 7C 00 2A 90 11 01  7C 00 29 90 11 01 5F 03  ..|.*...|.)..._.
0150: 23 80 2A 90 11 01 2A 90  11 01 6A 6B 6D 30 00     #.*...*...jkm0. 
```

## Opcodes

```
  0: 0x011C [0xBA] SET_ENTITY_POSITION(entity_id=Unnamed NPC (ID: 17928244/0x01119034), pos_x=-19.683*, pos_z=75.927*, pos_y=-9.536*, direction=90.0°*)
  1: 0x0129 [0xBA] SET_ENTITY_POSITION(entity_id=Unnamed NPC (ID: 17928234/0x0111902A), pos_x=-19.683*, pos_z=86.918*, pos_y=-12.043*, direction=270.0°*)
  2: 0x0136 [0x81] SET_ENTITY_BLINKING(blink_flag=0x00, entity=Unnamed NPC (ID: 17928234/0x0111902A))
  3: 0x013C [0x81] SET_ENTITY_BLINKING(blink_flag=0x00, entity=Unnamed NPC (ID: 17928233/0x01119029))
  4: 0x0142 [0x7C] Unnamed NPC (ID: 17928234/0x0111902A)->Render.Flags2 |= 0x00
  5: 0x0148 [0x7C] Unnamed NPC (ID: 17928233/0x01119029)->Render.Flags2 |= 0x00
  6: 0x014E [0x5F] MULTI_HANDLER_COMPLEX(mode=0x03 - Load ext scheduler (OpCode 0x5B mode 0), ref=3213*, entity1=Unnamed NPC (ID: 17928234/0x0111902A), entity2=Unnamed NPC (ID: 17928234/0x0111902A), string="jkm0")
  7: 0x015E [0x00] END_REQSTACK()
```
