# Event 65535

## Metadata

| Field           | Value    |
|-----------------|----------|
| Event Index     | 9/15     |
| Offset          | 0x015F   |
| Data Size       | 69 bytes |
| Calculated Size | 69 bytes |
| Instructions    | 7        |

```
      00 01 02 03 04 05 06 07  08 09 0A 0B 0C 0D 0E 0F
      -- -- -- -- -- -- -- --  -- -- -- -- -- -- -- --
0150:                                               BA                 .
0160: 34 90 11 01 04 80 05 80  06 80 07 80 5F 03 24 80  4..........._.$.
0170: 34 90 11 01 34 90 11 01  6A 6B 6D 31 5F 03 23 80  4...4...jkm1_.#.
0180: 2A 90 11 01 2A 90 11 01  6A 6B 6D 31 1C 25 80 BA  *...*...jkm1.%..
0190: 29 90 11 01 04 80 05 80  06 80 03 80 27 10 39 90  )...........'.9.
01A0: 11 01 0D 00                                       ....            
```

## Opcodes

```
  0: 0x015F [0xBA] SET_ENTITY_POSITION(entity_id=References[17895476], pos_x=-19.683*, pos_z=91.623*, pos_y=-12.270*, direction=90.0°*)
  1: 0x016C [0x5F] MULTI_HANDLER_COMPLEX(mode=0x03 - Load ext scheduler (OpCode 0x5B mode 0), ref=References[36], entity1=Unnamed NPC (ID: 17928244/0x01119034), entity2=Unnamed NPC (ID: 17928244/0x01119034), string="jkm1")
  2: 0x017C [0x5F] MULTI_HANDLER_COMPLEX(mode=0x03 - Load ext scheduler (OpCode 0x5B mode 0), ref=References[35], entity1=Unnamed NPC (ID: 17928234/0x0111902A), entity2=Unnamed NPC (ID: 17928234/0x0111902A), string="jkm1")
  3: 0x018C [0x1C] WAIT(20* ticks)
  4: 0x018F [0xBA] SET_ENTITY_POSITION(entity_id=References[17895465], pos_x=-19.683*, pos_z=91.623*, pos_y=-12.270*, direction=270.0°*)
  5: 0x019C [0x27] REQ_SET(priority=0x10, entity_id=Unnamed NPC (ID: 17928249/0x01119039), tag_num=0x0D)
  6: 0x01A3 [0x00] END_REQSTACK()
```
