# Event 65535

## Metadata

| Field           | Value    |
|-----------------|----------|
| Event Index     | 10/15    |
| Offset          | 0x01A4   |
| Data Size       | 74 bytes |
| Calculated Size | 74 bytes |
| Instructions    | 6        |

```
      00 01 02 03 04 05 06 07  08 09 0A 0B 0C 0D 0E 0F
      -- -- -- -- -- -- -- --  -- -- -- -- -- -- -- --
01A0:             5B 26 80 2B  90 11 01 2B 90 11 01 6E      [&.+...+...n
01B0: 69 67 30 5B 26 80 2C 90  11 01 2C 90 11 01 6E 69  ig0[&.,...,...ni
01C0: 67 32 5B 26 80 2D 90 11  01 2D 90 11 01 6E 69 67  g2[&.-...-...nig
01D0: 31 BA 22 90 11 01 0C 80  0D 80 0E 80 0F 80 5B 27  1."...........['
01E0: 80 22 90 11 01 22 90 11  01 74 61 6F 6C 00        ."..."...taol.  
```

## Opcodes

```
  0: 0x01A4 [0x5B] LOAD_EXT_SCHEDULER: Load scheduler "nig0" with entities [Unnamed NPC (ID: 17928235/0x0111902B), Unnamed NPC (ID: 17928235/0x0111902B)], work=3236*
  1: 0x01B3 [0x5B] LOAD_EXT_SCHEDULER: Load scheduler "nig2" with entities [Unnamed NPC (ID: 17928236/0x0111902C), Unnamed NPC (ID: 17928236/0x0111902C)], work=3236*
  2: 0x01C2 [0x5B] LOAD_EXT_SCHEDULER: Load scheduler "nig1" with entities [Unnamed NPC (ID: 17928237/0x0111902D), Unnamed NPC (ID: 17928237/0x0111902D)], work=3236*
  3: 0x01D1 [0xBA] SET_ENTITY_POSITION(entity_id=References[17895458], pos_x=-20.569*, pos_z=89.191*, pos_y=-12.283*, direction=287.4°*)
  4: 0x01DE [0x5B] LOAD_EXT_SCHEDULER: Load scheduler "taol" with entities [Morimar (ID: 17928226/0x01119022), Morimar (ID: 17928226/0x01119022)], work=3485*
  5: 0x01ED [0x00] END_REQSTACK()
```
