# 17855081

## Common Data

| Field            | Value                  |
|------------------|------------------------|
| Zone             | Yorcia Weald (ID: 263) |
| Block Size       | 16264 bytes            |
| Total Events     | 4                      |
| References Count | 360                    |

## List of Events

| Event ID              | Entrypoint   |   Size |   Instructions |
|-----------------------|--------------|--------|----------------|
| [65535](#event-65535) | 0x0000       |      1 |              1 |
| [129](#event-129)     | 0x0001       |   4747 |            641 |
| [130](#event-130)     | 0x128C       |   5094 |            650 |
| [131](#event-131)     | 0x2672       |   4950 |            629 |

## DAT References (imed_data)

|   Index | Hex Value   |   Dec Value |
|---------|-------------|-------------|
|       0 | 0x00C8      |         200 |
|       1 | 0x0000      |           0 |
|       2 | 0x0013      |          19 |
|       3 | 0x28C58     |      167000 |
|       4 | 0x29810     |      170000 |
|       5 | 0x0140      |         320 |
|       6 | 0x03FF      |        1023 |
|       7 | 0x274E8     |      161000 |
|       8 | 0xFFFFFF42  |  4294967106 |
|       9 | 0x26638     |      157240 |
|      10 | 0x2ED24     |      191780 |
|      11 | 0x00DC      |         220 |
|      12 | 0x037F      |         895 |
|      13 | 0x0001      |           1 |
|      14 | 0x0064      |         100 |
|      15 | 0xFFFFFC01  |  4294966273 |
|      16 | 0x27100     |      160000 |
|      17 | 0x2DC6C     |      187500 |
|      18 | 0x01C2      |         450 |
|      19 | 0x0009      |           9 |
|      20 | 0x0002      |           2 |
|      21 | 0x000A      |          10 |
|      22 | 0x0003      |           3 |
|      23 | 0x0014      |          20 |
|      24 | 0x0004      |           4 |
|      25 | 0x001E      |          30 |
|      26 | 0x0007      |           7 |
|      27 | 0x0032      |          50 |
|      28 | 0x0008      |           8 |
|      29 | 0x003C      |          60 |
|      30 | 0x0028      |          40 |
|      31 | 0x0325      |         805 |
|      32 | 0x0095      |         149 |
|      33 | 0x20EE      |        8430 |
|      34 | 0x0078      |         120 |
|      35 | 0x005A      |          90 |
|      36 | 0xFFFFFF2E  |  4294967086 |
|      37 | 0x0096      |         150 |
|      38 | 0x20DD      |        8413 |
|      39 | 0x000F      |          15 |
|      40 | 0x00F0      |         240 |
|      41 | 0x0006      |           6 |
|      42 | 0x20DE      |        8414 |
|      43 | 0x20DF      |        8415 |
|      44 | 0x20E0      |        8416 |
|      45 | 0x20E1      |        8417 |
|      46 | 0x0CF7      |        3319 |
|      47 | 0x008D      |         141 |
|      48 | 0x20E2      |        8418 |
|      49 | 0x28C8A     |      167050 |
|      50 | 0x27F42     |      163650 |
|      51 | 0x20E3      |        8419 |
|      52 | 0x20E4      |        8420 |
|      53 | 0x20E5      |        8421 |
|      54 | 0x20E6      |        8422 |
|      55 | 0x20E8      |        8424 |
|      56 | 0x2874E     |      165710 |
|      57 | 0x27E34     |      163380 |
|      58 | 0xFFFFFFEC  |  4294967276 |
|      59 | 0x20E9      |        8425 |
|      60 | 0x20EA      |        8426 |
|      61 | 0x0040      |          64 |
|      62 | 0x20EB      |        8427 |
|      63 | 0x20EC      |        8428 |
|      64 | 0x00B4      |         180 |
|      65 | 0x20ED      |        8429 |
|      66 | 0x0015      |          21 |
|      67 | 0x20EF      |        8431 |
|      68 | 0x20F1      |        8433 |
|      69 | 0x1E9E      |        7838 |
|      70 | 0x001A      |          26 |
|      71 | 0x20F0      |        8432 |
|      72 | 0x003D      |          61 |
|      73 | 0x0DAD      |        3501 |
|      74 | 0x20F2      |        8434 |
|      75 | 0xFFFFFCEA  |  4294966506 |
|      76 | 0x0DC3      |        3523 |
|      77 | 0x05C1      |        1473 |
|      78 | 0x28D2A     |      167210 |
|      79 | 0x2761E     |      161310 |
|      80 | 0xFFFFFE52  |  4294966866 |
|      81 | 0x29FE0     |      172000 |
|      82 | 0x0546      |        1350 |
|      83 | 0x20F3      |        8435 |
|      84 | 0x0039      |          57 |
|      85 | 0x0872      |        2162 |
|      86 | 0x002D      |          45 |
|      87 | 0x0DB0      |        3504 |
|      88 | 0x20F4      |        8436 |
|      89 | 0x20F5      |        8437 |
|      90 | 0x20F6      |        8438 |
|      91 | 0x20F7      |        8439 |
|      92 | 0x0954      |        2388 |
|      93 | 0x20F8      |        8440 |
|      94 | 0x012C      |         300 |
|      95 | 0x20F9      |        8441 |
|      96 | 0x010E      |         270 |
|      97 | 0x20FA      |        8442 |
|      98 | 0x20FB      |        8443 |
|      99 | 0x20FC      |        8444 |
|     100 | 0x26F0C     |      159500 |
|     101 | 0x2867C     |      165500 |
|     102 | 0xFFFFFFA6  |  4294967206 |
|     103 | 0x29234     |      168500 |
|     104 | 0xFFFFFEF2  |  4294967026 |
|     105 | 0x0CA4      |        3236 |
|     106 | 0x20FD      |        8445 |
|     107 | 0x20FE      |        8446 |
|     108 | 0x20FF      |        8447 |
|     109 | 0x001D      |          29 |
|     110 | 0x2100      |        8448 |
|     111 | 0x05C3      |        1475 |
|     112 | 0x2101      |        8449 |
|     113 | 0x0F04      |        3844 |
|     114 | 0x2102      |        8450 |
|     115 | 0x3F05C     |      258140 |
|     116 | 0x62660     |      403040 |
|     117 | 0x01EA      |         490 |
|     118 | 0x0578      |        1400 |
|     119 | 0x3EDAA     |      257450 |
|     120 | 0x620FC     |      401660 |
|     121 | 0x01A4      |         420 |
|     122 | 0x42978     |      272760 |
|     123 | 0x5D21E     |      381470 |
|     124 | 0xFFFFFCE0  |  4294966496 |
|     125 | 0x07FF      |        2047 |
|     126 | 0x3FE08     |      261640 |
|     127 | 0x5B8A6     |      374950 |
|     128 | 0xFFFFF8EE  |  4294965486 |
|     129 | 0x0BB8      |        3000 |
|     130 | 0x3FD7C     |      261500 |
|     131 | 0x60C98     |      396440 |
|     132 | 0x0050      |          80 |
|     133 | 0x04FF      |        1279 |
|     134 | 0x0326      |         806 |
|     135 | 0x2104      |        8452 |
|     136 | 0x2105      |        8453 |
|     137 | 0x2106      |        8454 |
|     138 | 0x2107      |        8455 |
|     139 | 0x0048      |          72 |
|     140 | 0x2108      |        8456 |
|     141 | 0x2109      |        8457 |
|     142 | 0x210A      |        8458 |
|     143 | 0x210B      |        8459 |
|     144 | 0x210C      |        8460 |
|     145 | 0x210D      |        8461 |
|     146 | 0x210E      |        8462 |
|     147 | 0x210F      |        8463 |
|     148 | 0x2110      |        8464 |
|     149 | 0x2111      |        8465 |
|     150 | 0x2112      |        8466 |
|     151 | 0x2113      |        8467 |
|     152 | 0x00A6      |         166 |
|     153 | 0x2114      |        8468 |
|     154 | 0x2115      |        8469 |
|     155 | 0x2116      |        8470 |
|     156 | 0x2117      |        8471 |
|     157 | 0x0005      |           5 |
|     158 | 0x0CFE      |        3326 |
|     159 | 0x2118      |        8472 |
|     160 | 0x0D3A      |        3386 |
|     161 | 0x2119      |        8473 |
|     162 | 0x007F      |         127 |
|     163 | 0x211A      |        8474 |
|     164 | 0x211B      |        8475 |
|     165 | 0x211C      |        8476 |
|     166 | 0x211D      |        8477 |
|     167 | 0x211E      |        8478 |
|     168 | 0x0168      |         360 |
|     169 | 0x0CB0      |        3248 |
|     170 | 0x211F      |        8479 |
|     171 | 0x086C      |        2156 |
|     172 | 0x2120      |        8480 |
|     173 | 0x0D58      |        3416 |
|     174 | 0x035E      |         862 |
|     175 | 0x2121      |        8481 |
|     176 | 0x3F39A     |      258970 |
|     177 | 0x64398     |      410520 |
|     178 | 0x0794      |        1940 |
|     179 | 0x044C      |        1100 |
|     180 | 0x2122      |        8482 |
|     181 | 0x2123      |        8483 |
|     182 | 0x2124      |        8484 |
|     183 | 0x2125      |        8485 |
|     184 | 0x0F0C      |        3852 |
|     185 | 0x2126      |        8486 |
|     186 | 0x2127      |        8487 |
|     187 | 0x2128      |        8488 |
|     188 | 0x2129      |        8489 |
|     189 | 0x0CB7      |        3255 |
|     190 | 0x212A      |        8490 |
|     191 | 0x00C9      |         201 |
|     192 | 0x1D4C0     |      120000 |
|     193 | 0xDEA8      |       57000 |
|     194 | 0x0352      |         850 |
|     195 | 0xFFFFF8D5  |  4294965461 |
|     196 | 0x1DC90     |      122000 |
|     197 | 0xEA60      |       60000 |
|     198 | 0x03E8      |        1000 |
|     199 | 0x1D2CC     |      119500 |
|     200 | 0xF1CC      |       61900 |
|     201 | 0x0384      |         900 |
|     202 | 0xFFFFF768  |  4294965096 |
|     203 | 0x249F0     |      150000 |
|     204 | 0x101D0     |       66000 |
|     205 | 0xD2F0      |       54000 |
|     206 | 0x11170     |       70000 |
|     207 | 0xC350      |       50000 |
|     208 | 0x12110     |       74000 |
|     209 | 0x24DD8     |      151000 |
|     210 | 0xBF68      |       49000 |
|     211 | 0x1DB64     |      121700 |
|     212 | 0xEA92      |       60050 |
|     213 | 0x0708      |        1800 |
|     214 | 0x0080      |         128 |
|     215 | 0x212B      |        8491 |
|     216 | 0x212C      |        8492 |
|     217 | 0x212D      |        8493 |
|     218 | 0x212E      |        8494 |
|     219 | 0x212F      |        8495 |
|     220 | 0x2130      |        8496 |
|     221 | 0x08B3      |        2227 |
|     222 | 0x2131      |        8497 |
|     223 | 0x2132      |        8498 |
|     224 | 0x08B7      |        2231 |
|     225 | 0x2133      |        8499 |
|     226 | 0x1E26C     |      123500 |
|     227 | 0xE678      |       59000 |
|     228 | 0x03B6      |         950 |
|     229 | 0x03C3      |         963 |
|     230 | 0x1EA3C     |      125500 |
|     231 | 0xF03C      |       61500 |
|     232 | 0x0460      |        1120 |
|     233 | 0x168A0     |       92320 |
|     234 | 0xE056      |       57430 |
|     235 | 0xFFFFF696  |  4294964886 |
|     236 | 0x17DEA     |       97770 |
|     237 | 0xDFA2      |       57250 |
|     238 | 0xFFFFF542  |  4294964546 |
|     239 | 0x17778     |       96120 |
|     240 | 0xDDCC      |       56780 |
|     241 | 0xFFFFF556  |  4294964566 |
|     242 | 0x18C40     |      101440 |
|     243 | 0xE574      |       58740 |
|     244 | 0xFFFFF722  |  4294965026 |
|     245 | 0x193E8     |      103400 |
|     246 | 0xE6DC      |       59100 |
|     247 | 0xFFFFF934  |  4294965556 |
|     248 | 0x184C0     |       99520 |
|     249 | 0xE38A      |       58250 |
|     250 | 0xFFFFF592  |  4294964626 |
|     251 | 0x222E0     |      140000 |
|     252 | 0x05BE      |        1470 |
|     253 | 0x23064     |      143460 |
|     254 | 0xFDCA      |       64970 |
|     255 | 0x02F8      |         760 |
|     256 | 0x0D10      |        3344 |
|     257 | 0x2466C     |      149100 |
|     258 | 0xDA70      |       55920 |
|     259 | 0x033E      |         830 |
|     260 | 0x0D90      |        3472 |
|     261 | 0x24856     |      149590 |
|     262 | 0x10680     |       67200 |
|     263 | 0x0320      |         800 |
|     264 | 0x0970      |        2416 |
|     265 | 0x22308     |      140040 |
|     266 | 0xCF3A      |       53050 |
|     267 | 0x0456      |        1110 |
|     268 | 0x0BE0      |        3040 |
|     269 | 0x23B22     |      146210 |
|     270 | 0x112CE     |       70350 |
|     271 | 0x02EE      |         750 |
|     272 | 0x230B4     |      143540 |
|     273 | 0xC76A      |       51050 |
|     274 | 0x032A      |         810 |
|     275 | 0x0CA8      |        3240 |
|     276 | 0x1DC9A     |      122010 |
|     277 | 0xECF4      |       60660 |
|     278 | 0x06EA      |        1770 |
|     279 | 0x1FBD0     |      130000 |
|     280 | 0x04BA      |        1210 |
|     281 | 0x0327      |         807 |
|     282 | 0x014A      |         330 |
|     283 | 0x008F      |         143 |
|     284 | 0x0874      |        2164 |
|     285 | 0x0016      |          22 |
|     286 | 0x2134      |        8500 |
|     287 | 0x2135      |        8501 |
|     288 | 0x2136      |        8502 |
|     289 | 0x2137      |        8503 |
|     290 | 0x2138      |        8504 |
|     291 | 0x2139      |        8505 |
|     292 | 0x1C138     |      115000 |
|     293 | 0x0334      |         820 |
|     294 | 0x1BF44     |      114500 |
|     295 | 0xE09C      |       57500 |
|     296 | 0x02B2      |         690 |
|     297 | 0x1BD50     |      114000 |
|     298 | 0x1AEDC     |      110300 |
|     299 | 0xEF10      |       61200 |
|     300 | 0x0082      |         130 |
|     301 | 0x1AAF4     |      109300 |
|     302 | 0xE9FC      |       59900 |
|     303 | 0xFFFFFF7E  |  4294967166 |
|     304 | 0x1A9C8     |      109000 |
|     305 | 0xF230      |       62000 |
|     306 | 0x1E848     |      125000 |
|     307 | 0x042E      |        1070 |
|     308 | 0x1F27A     |      127610 |
|     309 | 0xE006      |       57350 |
|     310 | 0x04D8      |        1240 |
|     311 | 0x0044      |          68 |
|     312 | 0x213A      |        8506 |
|     313 | 0x213B      |        8507 |
|     314 | 0x213C      |        8508 |
|     315 | 0x213D      |        8509 |
|     316 | 0x213E      |        8510 |
|     317 | 0x213F      |        8511 |
|     318 | 0x2140      |        8512 |
|     319 | 0x2141      |        8513 |
|     320 | 0x008C      |         140 |
|     321 | 0x2142      |        8514 |
|     322 | 0x0031      |          49 |
|     323 | 0x2143      |        8515 |
|     324 | 0x2144      |        8516 |
|     325 | 0x2145      |        8517 |
|     326 | 0x0025      |          37 |
|     327 | 0x2146      |        8518 |
|     328 | 0x2147      |        8519 |
|     329 | 0x2148      |        8520 |
|     330 | 0x00D2      |         210 |
|     331 | 0x2149      |        8521 |
|     332 | 0x000D      |          13 |
|     333 | 0x214A      |        8522 |
|     334 | 0x00A9      |         169 |
|     335 | 0x214B      |        8523 |
|     336 | 0x214C      |        8524 |
|     337 | 0x214D      |        8525 |
|     338 | 0x214E      |        8526 |
|     339 | 0x0024      |          36 |
|     340 | 0x214F      |        8527 |
|     341 | 0x2150      |        8528 |
|     342 | 0x2151      |        8529 |
|     343 | 0x2152      |        8530 |
|     344 | 0x2153      |        8531 |
|     345 | 0x2154      |        8532 |
|     346 | 0x2155      |        8533 |
|     347 | 0x0D21      |        3361 |
|     348 | 0x1D74A     |      120650 |
|     349 | 0xEB82      |       60290 |
|     350 | 0x0258      |         600 |
|     351 | 0x0D57      |        3415 |
|     352 | 0x0010      |          16 |
|     353 | 0x2157      |        8535 |
|     354 | 0x2158      |        8536 |
|     355 | 0x2159      |        8537 |
|     356 | 0x1D75E     |      120670 |
|     357 | 0xEE52      |       61010 |
|     358 | 0x215A      |        8538 |
|     359 | 0x215B      |        8539 |

## String References

- **7838**: @@
- **8426**: Midras flips a switch to start the keg's countdown.
- **8427**: Have any thoughts of support? [You can do it!/Wait, not yet! (Cancels event)]

## Events

### Event 65535

#### Metadata

| Field        | Value   |
|--------------|---------|
| Entrypoint   | 0x0000  |
| Data Size    | 1 bytes |
| Instructions | 1       |

```
      00 01 02 03 04 05 06 07  08 09 0A 0B 0C 0D 0E 0F
      -- -- -- -- -- -- -- --  -- -- -- -- -- -- -- --
0000: 00                                                .               
```

#### Opcodes

```
  0: 0x0000 [0x00] END_REQSTACK()
```

### Event 129

#### Metadata

| Field        | Value      |
|--------------|------------|
| Entrypoint   | 0x0001     |
| Data Size    | 4747 bytes |
| Instructions | 596        |

```
      00 01 02 03 04 05 06 07  08 09 0A 0B 0C 0D 0E 0F
      -- -- -- -- -- -- -- --  -- -- -- -- -- -- -- --
0000:    42 45 00 80 F0 FF FF  7F F0 FF FF 7F 66 64 6F   BE..........fdo
0010: 31 01 80 55 00 80 F0 FF  FF 7F F0 FF FF 7F 66 64  1..U..........fd
0020: 6F 31 46 01 38 02 80 03  01 10 01 80 03 04 00 02  o1F.8...........
0030: 10 03 06 00 09 10 2F 00  64 72 10 01 2F 00 65 72  ....../.dr../.er
0040: 10 01 2F 00 6A 72 10 01  2F 00 6B 72 10 01 2F 00  ../.jr../.kr../.
0050: 6C 72 10 01 2F 00 6D 72  10 01 2F 00 53 72 10 01  lr../.mr../.Sr..
0060: 4E 00 64 72 10 01 4E 00  65 72 10 01 94 01 64 72  N.dr..N.er....dr
0070: 10 01 94 01 65 72 10 01  94 01 6A 72 10 01 94 01  ....er....jr....
0080: 6B 72 10 01 94 01 6C 72  10 01 94 01 6D 72 10 01  kr....lr....mr..
0090: 94 01 53 72 10 01 94 01  F0 FF FF 7F 02 06 00 01  ..Sr............
00A0: 80 80 CE 00 BA 64 72 10  01 03 80 04 80 05 80 06  .....dr.........
00B0: 80 BA 65 72 10 01 03 80  07 80 08 80 06 80 BA F0  ..er............
00C0: FF FF 7F 09 80 0A 80 0B  80 0C 80 01 4A 02 02 06  ............J...
00D0: 00 0D 80 80 8C 01 BA 64  72 10 01 03 80 03 80 0E  .......dr.......
00E0: 80 06 80 BA 65 72 10 01  03 80 07 80 08 80 0F 80  ....er..........
00F0: BA F0 FF FF 7F 10 80 11  80 12 80 0C 80 03 05 00  ................
0100: 13 80 02 87 7F 0D 80 80  0D 01 01 62 01 02 87 7F  ...........b....
0110: 14 80 80 1D 01 07 05 00  15 80 01 62 01 02 87 7F  ...........b....
0120: 16 80 80 2D 01 07 05 00  17 80 01 62 01 02 87 7F  ...-.......b....
0130: 18 80 80 3D 01 07 05 00  19 80 01 62 01 02 87 7F  ...=.......b....
0140: 1A 80 80 4D 01 07 05 00  1B 80 01 62 01 02 87 7F  ...M.......b....
0150: 1C 80 80 5D 01 07 05 00  1D 80 01 62 01 07 05 00  ...].......b....
0160: 1E 80 66 05 00 F0 FF FF  7F F0 FF FF 7F 73 68 61  ..f..........sha
0170: 30 4A 64 72 10 01 65 72  10 01 4A 65 72 10 01 64  0Jdr..er..Jer..d
0180: 72 10 01 6F 76 64 72 10  01 01 4A 02 02 06 00 14  r..ovdr...J.....
0190: 80 80 4A 02 BA 64 72 10  01 03 80 03 80 0E 80 06  ..J..dr.........
01A0: 80 BA 65 72 10 01 03 80  07 80 08 80 0F 80 BA F0  ..er............
01B0: FF FF 7F 10 80 11 80 12  80 0C 80 03 05 00 13 80  ................
01C0: 02 87 7F 0D 80 80 CB 01  01 20 02 02 87 7F 14 80  ......... ......
01D0: 80 DB 01 07 05 00 15 80  01 20 02 02 87 7F 16 80  ......... ......
01E0: 80 EB 01 07 05 00 17 80  01 20 02 02 87 7F 18 80  ......... ......
01F0: 80 FB 01 07 05 00 19 80  01 20 02 02 87 7F 1A 80  ......... ......
0200: 80 0B 02 07 05 00 1B 80  01 20 02 02 87 7F 1C 80  ......... ......
0210: 80 1B 02 07 05 00 1D 80  01 20 02 07 05 00 1E 80  ......... ......
0220: 66 05 00 F0 FF FF 7F F0  FF FF 7F 73 68 61 30 4A  f..........sha0J
0230: 64 72 10 01 65 72 10 01  4A 65 72 10 01 64 72 10  dr..er..Jer..dr.
0240: 01 6F 76 64 72 10 01 01  4A 02 80 64 72 10 01 80  .ovdr...J..dr...
0250: 65 72 10 01 80 F0 FF FF  7F 1C 1D 80 02 06 00 01  er..............
0260: 80 80 90 02 27 10 64 72  10 01 1F 45 1F 80 F8 FF  ....'.dr...E....
0270: FF 7F F8 FF FF 7F 73 30  30 30 01 80 45 00 80 F0  ......s000..E...
0280: FF FF 7F F0 FF FF 7F 66  64 69 31 01 80 01 1F 03  .......fdi1.....
0290: 02 06 00 0D 80 80 EF 02  45 1F 80 F8 FF FF 7F F8  ........E.......
02A0: FF FF 7F 73 30 30 35 01  80 45 00 80 F0 FF FF 7F  ...s005..E......
02B0: F0 FF FF 7F 66 64 69 31  01 80 1C 19 80 66 20 80  ....fdi1.....f .
02C0: 64 72 10 01 64 72 10 01  74 6C 6B 30 2B 64 72 10  dr..dr..tlk0+dr.
02D0: 01 21 80 1C 22 80 23 66  20 80 64 72 10 01 64 72  .!..".#f .dr..dr
02E0: 10 01 74 6C 6B 31 1C 1D  80 01 7F 05 01 1F 03 02  ..tlk1..........
02F0: 06 00 14 80 80 1F 03 45  1F 80 F8 FF FF 7F F8 FF  .......E........
0300: FF 7F 73 30 31 36 01 80  45 00 80 F0 FF FF 7F F0  ..s016..E.......
0310: FF FF 7F 66 64 69 31 01  80 01 AC 0B 01 1F 03 2A  ...fdi1........*
0320: 10 64 72 10 01 4A 64 72  10 01 65 72 10 01 1C 23  .dr..Jdr..er...#
0330: 80 27 10 F0 FF FF 7F 25  52 1F 80 F8 FF FF 7F F8  .'.....%R.......
0340: FF FF 7F 73 30 30 30 45  1F 80 F8 FF FF 7F F8 FF  ...s000E........
0350: FF 7F 73 30 30 31 01 80  59 05 65 72 10 01 01 BA  ..s001..Y.er....
0360: 65 72 10 01 03 80 07 80  24 80 06 80 1C 1D 80 7B  er......$......{
0370: 64 72 10 01 2A 10 F0 FF  FF 7F 1C 15 80 03 05 00  dr..*...........
0380: 13 80 02 87 7F 0D 80 80  8D 03 01 E2 03 02 87 7F  ................
0390: 14 80 80 9D 03 07 05 00  15 80 01 E2 03 02 87 7F  ................
03A0: 16 80 80 AD 03 07 05 00  17 80 01 E2 03 02 87 7F  ................
03B0: 18 80 80 BD 03 07 05 00  19 80 01 E2 03 02 87 7F  ................
03C0: 1A 80 80 CD 03 07 05 00  1B 80 01 E2 03 02 87 7F  ................
03D0: 1C 80 80 DD 03 07 05 00  1D 80 01 E2 03 07 05 00  ................
03E0: 1E 80 66 05 00 F0 FF FF  7F F0 FF FF 7F 73 68 61  ..f..........sha
03F0: 30 1C 25 80 52 1F 80 F8  FF FF 7F F8 FF FF 7F 73  0.%.R..........s
0400: 30 30 31 45 1F 80 F8 FF  FF 7F F8 FF FF 7F 73 30  001E..........s0
0410: 30 32 01 80 2B 64 72 10  01 26 80 1C 22 80 23 59  02..+dr..&..".#Y
0420: 01 65 72 10 01 1B 80 4A  65 72 10 01 64 72 10 01  .er....Jer..dr..
0430: 1C 27 80 52 1F 80 F8 FF  FF 7F F8 FF FF 7F 73 30  .'.R..........s0
0440: 30 32 45 1F 80 F8 FF FF  7F F8 FF FF 7F 73 30 30  02E..........s00
0450: 33 01 80 6F 76 65 72 10  01 59 01 65 72 10 01 0E  3..over..Y.er...
0460: 80 1C 1D 80 6B 69 64 6C  30 64 72 10 01 27 10 65  ....kidl0dr..'.e
0470: 72 10 01 0C 1C 28 80 52  1F 80 F8 FF FF 7F F8 FF  r....(.R........
0480: FF 7F 73 30 30 33 45 1F  80 F8 FF FF 7F F8 FF FF  ..s003E.........
0490: 7F 73 30 30 34 01 80 59  05 65 72 10 01 00 BA 65  .s004..Y.er....e
04A0: 72 10 01 03 80 07 80 08  80 0F 80 4A 65 72 10 01  r..........Jer..
04B0: 64 72 10 01 27 10 65 72  10 01 0D 6B 69 64 6C 30  dr..'.er...kidl0
04C0: 65 72 10 01 7C 00 64 72  10 01 6E 64 72 10 01 29  er..|.dr..ndr..)
04D0: 80 99 64 72 10 01 2B 64  72 10 01 2A 80 1C 25 80  ..dr..+dr..*..%.
04E0: 23 7C 01 64 72 10 01 79  00 64 72 10 01 65 72 10  #|.dr..y.dr..er.
04F0: 01 52 1F 80 F8 FF FF 7F  F8 FF FF 7F 73 30 30 34  .R..........s004
0500: 45 1F 80 F8 FF FF 7F F8  FF FF 7F 73 30 30 35 01  E..........s005.
0510: 80 66 20 80 64 72 10 01  64 72 10 01 74 6C 6B 30  .f .dr..dr..tlk0
0520: 2B 64 72 10 01 2B 80 23  2B 64 72 10 01 2C 80 23  +dr..+.#+dr..,.#
0530: 2B 64 72 10 01 2D 80 1C  22 80 23 66 20 80 64 72  +dr..-..".#f .dr
0540: 10 01 64 72 10 01 74 6C  6B 31 5B 2E 80 65 72 10  ..dr..tlk1[..er.
0550: 01 65 72 10 01 74 6C 61  30 1C 19 80 45 1F 80 F0  .er..tla0...E...
0560: FF FF 7F F0 FF FF 7F 38  30 30 31 01 80 1C 23 80  .......8001...#.
0570: 5B 2E 80 65 72 10 01 65  72 10 01 74 6C 61 31 52  [..er..er..tla1R
0580: 1F 80 F8 FF FF 7F F8 FF  FF 7F 73 30 30 35 45 1F  ..........s005E.
0590: 80 F8 FF FF 7F F8 FF FF  7F 73 30 30 36 01 80 66  .........s006..f
05A0: 2F 80 64 72 10 01 64 72  10 01 6B 69 7A 30 1C 1D  /.dr..dr..kiz0..
05B0: 80 66 2F 80 64 72 10 01  64 72 10 01 6B 69 7A 31  .f/.dr..dr..kiz1
05C0: 2B 64 72 10 01 30 80 1C  25 80 23 66 13 80 64 72  +dr..0..%.#f..dr
05D0: 10 01 64 72 10 01 74 77  61 31 7B 64 72 10 01 52  ..dr..twa1{dr..R
05E0: 1F 80 F8 FF FF 7F F8 FF  FF 7F 73 30 30 36 45 1F  ..........s006E.
05F0: 80 F8 FF FF 7F F8 FF FF  7F 73 30 30 37 01 80 1C  .........s007...
0600: 23 80 59 05 6D 72 10 01  01 BA 6D 72 10 01 31 80  #.Y.mr....mr..1.
0610: 32 80 1B 80 01 80 4E 00  6D 72 10 01 27 10 64 72  2.....N.mr..'.dr
0620: 10 01 20 2B 64 72 10 01  33 80 2A 10 64 72 10 01  .. +dr..3.*.dr..
0630: 23 1C 27 80 66 13 80 64  72 10 01 64 72 10 01 73  #.'.f..dr..dr..s
0640: 68 61 30 1C 22 80 66 13  80 64 72 10 01 64 72 10  ha0.".f..dr..dr.
0650: 01 73 69 72 30 1C 1D 80  66 13 80 64 72 10 01 64  .sir0...f..dr..d
0660: 72 10 01 73 69 72 31 1C  19 80 66 13 80 64 72 10  r..sir1...f..dr.
0670: 01 64 72 10 01 73 68 61  31 1C 1D 80 27 10 6D 72  .dr..sha1...'.mr
0680: 10 01 02 1C 1D 80 27 10  64 72 10 01 21 52 1F 80  ......'.dr..!R..
0690: F8 FF FF 7F F8 FF FF 7F  73 30 30 37 45 1F 80 F8  ........s007E...
06A0: FF FF 7F F8 FF FF 7F 73  30 30 38 01 80 2B 64 72  .......s008..+dr
06B0: 10 01 34 80 2A 10 64 72  10 01 23 4A 64 72 10 01  ..4.*.dr..#Jdr..
06C0: 65 72 10 01 52 1F 80 F8  FF FF 7F F8 FF FF 7F 73  er..R..........s
06D0: 30 30 38 45 1F 80 F8 FF  FF 7F F8 FF FF 7F 73 30  008E..........s0
06E0: 30 39 01 80 6F 76 64 72  10 01 03 02 10 04 00 66  09..ovdr.......f
06F0: 01 80 64 72 10 01 64 72  10 01 74 6C 6B 30 2B 64  ..dr..dr..tlk0+d
0700: 72 10 01 35 80 23 2B 64  72 10 01 36 80 1C 22 80  r..5.#+dr..6..".
0710: 23 66 01 80 64 72 10 01  64 72 10 01 74 65 6E 30  #f..dr..dr..ten0
0720: 5B 2E 80 65 72 10 01 65  72 10 01 74 6C 61 30 1C  [..er..er..tla0.
0730: 19 80 45 1F 80 F0 FF FF  7F F0 FF FF 7F 38 30 30  ..E..........800
0740: 31 01 80 1C 23 80 5B 2E  80 65 72 10 01 65 72 10  1...#.[..er..er.
0750: 01 74 6C 61 31 7B 64 72  10 01 52 1F 80 F8 FF FF  .tla1{dr..R.....
0760: 7F F8 FF FF 7F 73 30 30  39 45 1F 80 F8 FF FF 7F  .....s009E......
0770: F8 FF FF 7F 73 30 31 30  01 80 1C 19 80 27 10 64  ....s010.....'.d
0780: 72 10 01 1F 2A 10 64 72  10 01 1C 19 80 27 10 64  r...*.dr.....'.d
0790: 72 10 01 22 7C 00 64 72  10 01 2B 64 72 10 01 37  r.."|.dr..+dr..7
07A0: 80 23 1C 1D 80 7C 01 64  72 10 01 4A 64 72 10 01  .#...|.dr..Jdr..
07B0: 65 72 10 01 52 1F 80 F8  FF FF 7F F8 FF FF 7F 73  er..R..........s
07C0: 30 31 30 45 1F 80 F8 FF  FF 7F F8 FF FF 7F 73 30  010E..........s0
07D0: 31 31 01 80 BA 53 72 10  01 38 80 39 80 3A 80 01  11...Sr..8.9.:..
07E0: 80 4E 00 53 72 10 01 6F  76 64 72 10 01 2B 64 72  .N.Sr..ovdr..+dr
07F0: 10 01 3B 80 23 6E 64 72  10 01 01 80 99 64 72 10  ..;.#ndr.....dr.
0800: 01 48 3C 80 03 01 10 0D  80 43 00 43 01 02 09 10  .H<......C.C....
0810: 01 80 03 2B 08 7A 00 6D  72 10 01 4E 01 6D 72 10  ...+.z.mr..N.mr.
0820: 01 59 05 6D 72 10 01 00  01 1D 12 27 10 53 72 10  .Y.mr......'.Sr.
0830: 01 6B 27 10 54 72 10 01  68 5C 00 3D 80 5C 01 3D  .k'.Tr..h\.=.\.=
0840: 80 03 09 10 01 80 24 3E  80 01 80 01 80 25 02 00  ......$>.....%..
0850: 10 01 80 00 86 08 02 09  10 14 80 01 83 08 02 01  ................
0860: 17 0D 80 00 6C 08 1C 0D  80 01 5E 08 03 02 17 0D  ....l.....^.....
0870: 80 7A 00 54 72 10 01 03  01 10 14 80 43 00 43 01  .z.Tr.......C.C.
0880: B4 06 01 01 8C 09 02 00  10 0D 80 00 8C 09 02 09  ................
0890: 10 14 80 01 89 09 52 1F  80 F8 FF FF 7F F8 FF FF  ......R.........
08A0: 7F 73 30 31 30 45 1F 80  F8 FF FF 7F F8 FF FF 7F  .s010E..........
08B0: 73 30 31 34 01 80 02 01  17 0D 80 00 C4 08 1C 0D  s014............
08C0: 80 01 B6 08 03 02 17 0D  80 7A 00 53 72 10 01 7A  .........z.Sr..z
08D0: 00 54 72 10 01 7A 00 6D  72 10 01 4E 01 6D 72 10  .Tr..z.mr..N.mr.
08E0: 01 59 05 6D 72 10 01 00  6E 64 72 10 01 02 80 99  .Y.mr...ndr.....
08F0: 64 72 10 01 2B 64 72 10  01 3F 80 1C 40 80 23 66  dr..+dr..?..@.#f
0900: 01 80 64 72 10 01 64 72  10 01 74 6C 6B 30 2B 64  ..dr..dr..tlk0+d
0910: 72 10 01 41 80 1C 22 80  23 66 01 80 64 72 10 01  r..A..".#f..dr..
0920: 64 72 10 01 74 65 6E 30  52 1F 80 F8 FF FF 7F F8  dr..ten0R.......
0930: FF FF 7F 73 30 31 34 45  1F 80 F8 FF FF 7F F8 FF  ...s014E........
0940: FF 7F 73 30 31 35 01 80  5B 2E 80 65 72 10 01 65  ..s015..[..er..e
0950: 72 10 01 74 6C 61 30 1C  19 80 45 1F 80 F0 FF FF  r..tla0...E.....
0960: 7F F0 FF FF 7F 38 30 30  31 01 80 1C 23 80 5B 2E  .....8001...#.[.
0970: 80 65 72 10 01 65 72 10  01 74 6C 61 31 03 01 10  .er..er..tla1...
0980: 16 80 43 00 43 01 01 1D  12 01 8C 09 02 09 10 0D  ..C.C...........
0990: 80 80 B1 0A 27 10 64 72  10 01 23 7A 00 53 72 10  ....'.dr..#z.Sr.
09A0: 01 7A 00 54 72 10 01 1C  27 80 52 1F 80 F8 FF FF  .z.Tr...'.R.....
09B0: 7F F8 FF FF 7F 73 30 31  31 45 1F 80 F8 FF FF 7F  .....s011E......
09C0: F8 FF FF 7F 73 30 31 32  01 80 2A 10 64 72 10 01  ....s012..*.dr..
09D0: 1C 27 80 7C 00 64 72 10  01 6E 64 72 10 01 42 80  .'.|.dr..ndr..B.
09E0: 99 64 72 10 01 2B 64 72  10 01 43 80 1C 40 80 23  .dr..+dr..C..@.#
09F0: 7C 01 64 72 10 01 2B 64  72 10 01 44 80 23 1C 23  |.dr..+dr..D.#.#
0A00: 80 45 00 80 F0 FF FF 7F  F0 FF FF 7F 66 64 6F 31  .E..........fdo1
0A10: 01 80 55 00 80 F0 FF FF  7F F0 FF FF 7F 66 64 6F  ..U..........fdo
0A20: 31 48 45 80 BA 64 72 10  01 03 80 03 80 0E 80 06  1HE..dr.........
0A30: 80 BA 65 72 10 01 03 80  07 80 08 80 0F 80 4A 64  ..er..........Jd
0A40: 72 10 01 65 72 10 01 4A  65 72 10 01 64 72 10 01  r..er..Jer..dr..
0A50: 6F 76 64 72 10 01 4E 00  6D 72 10 01 52 1F 80 F8  ovdr..N.mr..R...
0A60: FF FF 7F F8 FF FF 7F 73  30 31 32 52 1F 80 F8 FF  .......s012R....
0A70: FF 7F F8 FF FF 7F 73 30  31 33 45 1F 80 F8 FF FF  ......s013E.....
0A80: 7F F8 FF FF 7F 73 30 31  31 01 80 45 00 80 F0 FF  .....s011..E....
0A90: FF 7F F0 FF FF 7F 66 64  69 31 01 80 55 00 80 F0  ......fdi1..U...
0AA0: FF FF 7F F0 FF FF 7F 66  64 69 31 01 D4 07 01 8C  .......fdi1.....
0AB0: 0B 02 09 10 14 80 80 37  0B 27 10 65 72 10 01 0E  .......7.'.er...
0AC0: 7A 00 53 72 10 01 7A 00  54 72 10 01 1C 27 80 27  z.Sr..z.Tr...'.'
0AD0: 10 64 72 10 01 23 52 1F  80 F8 FF FF 7F F8 FF FF  .dr..#R.........
0AE0: 7F 73 30 31 31 45 1F 80  F8 FF FF 7F F8 FF FF 7F  .s011E..........
0AF0: 73 30 31 33 01 80 1C 1D  80 2A 10 64 72 10 01 7C  s013.....*.dr..|
0B00: 00 64 72 10 01 6E 64 72  10 01 46 80 99 64 72 10  .dr..ndr..F..dr.
0B10: 01 2B 64 72 10 01 47 80  1C 40 80 23 7C 01 64 72  .+dr..G..@.#|.dr
0B20: 10 01 2B 64 72 10 01 44  80 23 27 10 65 72 10 01  ..+dr..D.#'.er..
0B30: 0D 01 01 0A 01 8C 0B 02  09 10 16 80 80 6A 0B 7A  .............j.z
0B40: 00 53 72 10 01 7A 00 54  72 10 01 7A 00 6D 72 10  .Sr..z.Tr..z.mr.
0B50: 01 4E 01 6D 72 10 01 59  05 6D 72 10 01 00 5C 00  .N.mr..Y.mr...\.
0B60: 48 80 5C 01 48 80 9A 01  8C 0B 7A 00 53 72 10 01  H.\.H.....z.Sr..
0B70: 7A 00 54 72 10 01 7A 00  6D 72 10 01 4E 01 6D 72  z.Tr..z.mr..N.mr
0B80: 10 01 59 05 6D 72 10 01  00 01 1D 12 52 1F 80 F8  ..Y.mr......R...
0B90: FF FF 7F F8 FF FF 7F 73  30 31 31 45 1F 80 F8 FF  .......s011E....
0BA0: FF 7F F8 FF FF 7F 73 30  31 36 01 80 5C 00 01 80  ......s016..\...
0BB0: 5C 01 01 80 5B 49 80 65  72 10 01 65 72 10 01 77  \...[I.er..er..w
0BC0: 7A 61 30 1C 19 80 27 10  64 72 10 01 24 1C 1D 80  za0...'.dr..$...
0BD0: 7A 00 65 72 10 01 6B 69  64 6C 30 65 72 10 01 52  z.er..kidl0er..R
0BE0: 1F 80 F8 FF FF 7F F8 FF  FF 7F 73 30 31 36 45 1F  ..........s016E.
0BF0: 80 F8 FF FF 7F F8 FF FF  7F 73 30 31 37 01 80 27  .........s017..'
0C00: 10 64 72 10 01 25 7C 00  64 72 10 01 2B 64 72 10  .dr..%|.dr..+dr.
0C10: 01 4A 80 1C 17 80 59 05  65 72 10 01 01 BA 65 72  .J....Y.er....er
0C20: 10 01 03 80 07 80 4B 80  0F 80 5B 4C 80 65 72 10  ......K...[L.er.
0C30: 01 65 72 10 01 6C 65 66  31 1C 1D 80 7C 01 64 72  .er..lef1...|.dr
0C40: 10 01 52 1F 80 F8 FF FF  7F F8 FF FF 7F 73 30 31  ..R..........s01
0C50: 37 45 1F 80 F8 FF FF 7F  F8 FF FF 7F 73 30 31 38  7E..........s018
0C60: 01 80 1C 22 80 45 1F 80  F8 FF FF 7F F8 FF FF 7F  ...".E..........
0C70: 62 6F 66 66 01 80 52 1F  80 F8 FF FF 7F F8 FF FF  boff..R.........
0C80: 7F 73 30 31 38 45 1F 80  F8 FF FF 7F F8 FF FF 7F  .s018E..........
0C90: 73 30 31 39 01 80 59 05  65 72 10 01 00 BA 65 72  s019..Y.er....er
0CA0: 10 01 03 80 03 80 0E 80  0F 80 7A 00 64 72 10 01  ..........z.dr..
0CB0: BA 64 72 10 01 03 80 07  80 08 80 0F 80 5B 4D 80  .dr..........[M.
0CC0: 64 72 10 01 64 72 10 01  7A 73 61 30 4E 00 53 72  dr..dr..zsa0N.Sr
0CD0: 10 01 59 05 53 72 10 01  01 BA 53 72 10 01 4E 80  ..Y.Sr....Sr..N.
0CE0: 4F 80 50 80 01 80 1C 25  80 62 16 80 53 72 10 01  O.P....%.b..Sr..
0CF0: 53 72 10 01 6D 61 69 6E  01 80 1C 19 80 4E 00 6D  Sr..main.....N.m
0D00: 72 10 01 59 05 6D 72 10  01 01 BA 6D 72 10 01 03  r..Y.mr....mr...
0D10: 80 51 80 52 80 06 80 59  05 53 72 10 01 00 4E 01  .Q.R...Y.Sr...N.
0D20: 53 72 10 01 27 10 6D 72  10 01 03 7C 00 64 72 10  Sr..'.mr...|.dr.
0D30: 01 2B 64 72 10 01 53 80  23 1C 23 80 7C 01 64 72  .+dr..S.#.#.|.dr
0D40: 10 01 27 10 65 72 10 01  0C 5C 00 54 80 5C 01 54  ..'.er...\.T.\.T
0D50: 80 9A 52 1F 80 F8 FF FF  7F F8 FF FF 7F 73 30 31  ..R..........s01
0D60: 39 45 1F 80 F8 FF FF 7F  F8 FF FF 7F 73 30 32 30  9E..........s020
0D70: 01 80 1C 22 80 27 10 6D  72 10 01 04 1C 1D 80 C4  ...".'.mr.......
0D80: 02 55 80 65 72 10 01 6D  72 10 01 1C 56 80 5B 57  .U.er..mr...V.[W
0D90: 80 6D 72 10 01 F8 FF FF  7F 61 74 6B 30 1C 19 80  .mr......atk0...
0DA0: 45 1F 80 F8 FF FF 7F F8  FF FF 7F 62 6F 66 66 01  E..........boff.
0DB0: 80 52 1F 80 F8 FF FF 7F  F8 FF FF 7F 73 30 32 30  .R..........s020
0DC0: 45 1F 80 F8 FF FF 7F F8  FF FF 7F 73 30 32 31 01  E..........s021.
0DD0: 80 1C 23 80 6B 69 64 6C  30 64 72 10 01 BA 64 72  ..#.kidl0dr...dr
0DE0: 10 01 03 80 07 80 08 80  06 80 4A 64 72 10 01 65  ..........Jdr..e
0DF0: 72 10 01 7B 64 72 10 01  2C 6D 72 10 01 6D 72 10  r..{dr..,mr..mr.
0E00: 01 64 65 61 64 1C 28 80  6C 6D 72 10 01 01 80 40  .dead.(.lmr....@
0E10: 80 5C 00 48 80 5C 01 48  80 9A 27 10 65 72 10 01  .\.H.\.H..'.er..
0E20: 0D 52 1F 80 F8 FF FF 7F  F8 FF FF 7F 73 30 32 31  .R..........s021
0E30: 45 1F 80 F8 FF FF 7F F8  FF FF 7F 73 30 32 32 01  E..........s022.
0E40: 80 27 10 6D 72 10 01 05  4E 01 6D 72 10 01 7C 00  .'.mr...N.mr..|.
0E50: 64 72 10 01 2B 64 72 10  01 58 80 23 2B 64 72 10  dr..+dr..X.#+dr.
0E60: 01 59 80 23 7C 01 64 72  10 01 1C 22 80 52 1F 80  .Y.#|.dr...".R..
0E70: F8 FF FF 7F F8 FF FF 7F  73 30 32 32 45 1F 80 F8  ........s022E...
0E80: FF FF 7F F8 FF FF 7F 73  30 32 33 01 80 6E 64 72  .......s023..ndr
0E90: 10 01 29 80 99 64 72 10  01 2B 64 72 10 01 5A 80  ..)..dr..+dr..Z.
0EA0: 1C 1D 80 4A 65 72 10 01  64 72 10 01 1C 1D 80 23  ...Jer..dr.....#
0EB0: 66 20 80 64 72 10 01 64  72 10 01 74 6C 6B 30 2B  f .dr..dr..tlk0+
0EC0: 64 72 10 01 5B 80 1C 22  80 23 5B 5C 80 64 72 10  dr..[..".#[\.dr.
0ED0: 01 64 72 10 01 74 68 64  30 2B 64 72 10 01 5D 80  .dr..thd0+dr..].
0EE0: 1C 22 80 23 5B 5C 80 64  72 10 01 64 72 10 01 74  .".#[\.dr..dr..t
0EF0: 68 64 31 5B 2E 80 65 72  10 01 65 72 10 01 74 6C  hd1[..er..er..tl
0F00: 61 30 1C 19 80 45 1F 80  F0 FF FF 7F F0 FF FF 7F  a0...E..........
0F10: 38 30 30 31 01 80 1C 23  80 5B 2E 80 65 72 10 01  8001...#.[..er..
0F20: 65 72 10 01 74 6C 61 31  1C 1D 80 7B 65 72 10 01  er..tla1...{er..
0F30: 27 10 65 72 10 01 0F 1C  27 80 52 1F 80 F8 FF FF  '.er....'.R.....
0F40: 7F F8 FF FF 7F 73 30 32  33 45 1F 80 F8 FF FF 7F  .....s023E......
0F50: F8 FF FF 7F 73 30 32 34  01 80 1C 5E 80 7B 64 72  ....s024...^.{dr
0F60: 10 01 52 1F 80 F8 FF FF  7F F8 FF FF 7F 73 30 32  ..R..........s02
0F70: 34 45 1F 80 F8 FF FF 7F  F8 FF FF 7F 73 30 32 35  4E..........s025
0F80: 01 80 6E 64 72 10 01 46  80 99 64 72 10 01 2B 64  ..ndr..F..dr..+d
0F90: 72 10 01 5F 80 1C 60 80  23 52 1F 80 F8 FF FF 7F  r.._..`.#R......
0FA0: F8 FF FF 7F 73 30 32 35  45 1F 80 F8 FF FF 7F F8  ....s025E.......
0FB0: FF FF 7F 73 30 32 36 01  80 66 20 80 64 72 10 01  ...s026..f .dr..
0FC0: 64 72 10 01 74 68 6B 30  2B 64 72 10 01 61 80 23  dr..thk0+dr..a.#
0FD0: 2B 64 72 10 01 62 80 1C  22 80 23 66 20 80 64 72  +dr..b..".#f .dr
0FE0: 10 01 64 72 10 01 74 68  6B 31 1C 1D 80 6E 64 72  ..dr..thk1...ndr
0FF0: 10 01 1A 80 99 64 72 10  01 2B 64 72 10 01 63 80  .....dr..+dr..c.
1000: 1C 22 80 23 52 1F 80 F8  FF FF 7F F8 FF FF 7F 73  .".#R..........s
1010: 30 32 36 45 1F 80 F8 FF  FF 7F F8 FF FF 7F 73 30  026E..........s0
1020: 32 37 01 80 BA 6A 72 10  01 03 80 64 80 08 80 0F  27...jr....d....
1030: 80 4A 6A 72 10 01 64 72  10 01 BA 6B 72 10 01 65  .Jjr..dr...kr..e
1040: 80 10 80 66 80 0F 80 4A  6B 72 10 01 64 72 10 01  ...f...Jkr..dr..
1050: BA 6C 72 10 01 67 80 10  80 68 80 0F 80 4A 6C 72  .lr..g...h...Jlr
1060: 10 01 64 72 10 01 5B 69  80 6A 72 10 01 6A 72 10  ..dr..[i.jr..jr.
1070: 01 6F 72 69 30 4E 00 6A  72 10 01 2B 6A 72 10 01  .ori0N.jr..+jr..
1080: 6A 80 23 1C 19 80 5B 69  80 6B 72 10 01 6B 72 10  j.#...[i.kr..kr.
1090: 01 6F 72 69 30 4E 00 6B  72 10 01 2B 6B 72 10 01  .ori0N.kr..+kr..
10A0: 6B 80 23 1C 19 80 5B 69  80 6C 72 10 01 6C 72 10  k.#...[i.lr..lr.
10B0: 01 6F 72 69 30 4E 00 6C  72 10 01 2B 6C 72 10 01  .ori0N.lr..+lr..
10C0: 6C 80 23 1C 1D 80 52 1F  80 F8 FF FF 7F F8 FF FF  l.#...R.........
10D0: 7F 73 30 32 37 45 1F 80  F8 FF FF 7F F8 FF FF 7F  .s027E..........
10E0: 73 30 32 38 01 80 6E 64  72 10 01 6D 80 99 64 72  s028..ndr..m..dr
10F0: 10 01 2B 64 72 10 01 6E  80 1C 40 80 23 4A 64 72  ..+dr..n..@.#Jdr
1100: 10 01 6A 72 10 01 6F 76  64 72 10 01 1C 1D 80 5B  ..jr..ovdr.....[
1110: 6F 80 64 72 10 01 64 72  10 01 61 72 73 61 2B 64  o.dr..dr..arsa+d
1120: 72 10 01 70 80 1C 22 80  23 5B 71 80 6A 72 10 01  r..p..".#[q.jr..
1130: 6A 72 10 01 6B 6F 6D 30  5B 71 80 6B 72 10 01 6B  jr..kom0[q.kr..k
1140: 72 10 01 6B 6F 6D 30 5B  71 80 6C 72 10 01 6C 72  r..kom0[q.lr..lr
1150: 10 01 6B 6F 6D 30 1C 19  80 27 10 64 72 10 01 26  ..kom0...'.dr..&
1160: 1C 19 80 52 1F 80 F8 FF  FF 7F F8 FF FF 7F 73 30  ...R..........s0
1170: 32 38 45 1F 80 F8 FF FF  7F F8 FF FF 7F 73 30 32  28E..........s02
1180: 39 01 80 1C 1D 80 2B 64  72 10 01 72 80 23 03 05  9.....+dr..r.#..
1190: 00 13 80 02 87 7F 0D 80  80 9E 11 01 F3 11 02 87  ................
11A0: 7F 14 80 80 AE 11 07 05  00 15 80 01 F3 11 02 87  ................
11B0: 7F 16 80 80 BE 11 07 05  00 17 80 01 F3 11 02 87  ................
11C0: 7F 18 80 80 CE 11 07 05  00 19 80 01 F3 11 02 87  ................
11D0: 7F 1A 80 80 DE 11 07 05  00 1B 80 01 F3 11 02 87  ................
11E0: 7F 1C 80 80 EE 11 07 05  00 1D 80 01 F3 11 07 05  ................
11F0: 00 1E 80 66 05 00 F0 FF  FF 7F F0 FF FF 7F 73 68  ...f..........sh
1200: 61 31 1C 22 80 4A F0 FF  FF 7F 64 72 10 01 1C 1D  a1.".J....dr....
1210: 80 4A F0 FF FF 7F 64 72  10 01 1C 28 80 45 00 80  .J....dr...(.E..
1220: F0 FF FF 7F F0 FF FF 7F  66 64 6F 31 01 80 55 00  ........fdo1..U.
1230: 80 F0 FF FF 7F F0 FF FF  7F 66 64 6F 31 52 1F 80  .........fdo1R..
1240: F8 FF FF 7F F8 FF FF 7F  73 30 31 35 52 1F 80 F8  ........s015R...
1250: FF FF 7F F8 FF FF 7F 73  30 32 39 5C 00 48 80 5C  .......s029\.H.\
1260: 01 48 80 9A 6B 69 64 6C  30 F0 FF FF 7F 1C 27 80  .H..kidl0.....'.
1270: AB 11 01 80 1C 0D 80 46  00 45 00 80 F0 FF FF 7F  .......F.E......
1280: F0 FF FF 7F 66 64 69 32  01 80 21 00              ....fdi2..!.    
```

#### Opcodes

```
  0: 0x0001 [0x42] SET_CLI_EVENT_CANCEL_DATA()
  1: 0x0002 [0x45] LOAD_SCHEDULED_TASK: Load scheduler "fdo1" with entities [LocalPlayer, LocalPlayer], work=[200*, 0*]
  2: 0x0013 [0x55] WAIT_LOAD_SCHEDULER: Wait for scheduler "fdo1" with entities [LocalPlayer, LocalPlayer], work=200*
  3: 0x0022 [0x46] CAMERA_CONTROL: Disable user control
  4: 0x0024 [0x38] SET_CLIENT_EVENT_MODE(mode=19*)
  5: 0x0027 [0x03] Work_Zone[1] = 0*
  6: 0x002C [0x03] ExtData[1]->WorkLocal[4] = Work_Zone[2]
  7: 0x0031 [0x03] ExtData[1]->WorkLocal[6] = Work_Zone[9]
  8: 0x0036 [0x2F] Midras (ID: 17855076/0x01107264)->Render.Flags0 &= ~0x80000 // Bit 19
  9: 0x003C [0x2F] Leafkin (ID: 17855077/0x01107265)->Render.Flags0 &= ~0x80000 // Bit 19
 10: 0x0042 [0x2F] Unnamed NPC (ID: 17855082/0x0110726A)->Render.Flags0 &= ~0x80000 // Bit 19
 11: 0x0048 [0x2F] Unnamed NPC (ID: 17855083/0x0110726B)->Render.Flags0 &= ~0x80000 // Bit 19
 12: 0x004E [0x2F] Unnamed NPC (ID: 17855084/0x0110726C)->Render.Flags0 &= ~0x80000 // Bit 19
 13: 0x0054 [0x2F] Unnamed NPC (ID: 17855085/0x0110726D)->Render.Flags0 &= ~0x80000 // Bit 19
 14: 0x005A [0x2F] Unnamed NPC (ID: 17855059/0x01107253)->Render.Flags0 &= ~0x80000 // Bit 19
 15: 0x0060 [0x4E] SET_ENTITY_HIDE_FLAG: Show Midras (ID: 17855076/0x01107264)
 16: 0x0066 [0x4E] SET_ENTITY_HIDE_FLAG: Show Leafkin (ID: 17855077/0x01107265)
 17: 0x006C [0x94] Midras (ID: 17855076/0x01107264)->Render.Flags3 ^= 0x01
 18: 0x0072 [0x94] Leafkin (ID: 17855077/0x01107265)->Render.Flags3 ^= 0x01
 19: 0x0078 [0x94] Unnamed NPC (ID: 17855082/0x0110726A)->Render.Flags3 ^= 0x01
 20: 0x007E [0x94] Unnamed NPC (ID: 17855083/0x0110726B)->Render.Flags3 ^= 0x01
 21: 0x0084 [0x94] Unnamed NPC (ID: 17855084/0x0110726C)->Render.Flags3 ^= 0x01
 22: 0x008A [0x94] Unnamed NPC (ID: 17855085/0x0110726D)->Render.Flags3 ^= 0x01
 23: 0x0090 [0x94] Unnamed NPC (ID: 17855059/0x01107253)->Render.Flags3 ^= 0x01
 24: 0x0096 [0x94] LocalPlayer->Render.Flags3 ^= 0x01
 25: 0x009C [0x02] IF !(ExtData[1]->WorkLocal[6] == 0*) GOTO 0x00CE
 26: 0x00A4 [0xBA] SET_ENTITY_POSITION(entity_id=Midras (ID: 17855076/0x01107264), pos_x=167.000*, pos_z=170.000*, pos_y=0.320*, direction=89.9°*)
 27: 0x00B1 [0xBA] SET_ENTITY_POSITION(entity_id=Leafkin (ID: 17855077/0x01107265), pos_x=167.000*, pos_z=161.000*, pos_y=-0.190*, direction=89.9°*)
 28: 0x00BE [0xBA] SET_ENTITY_POSITION(entity_id=LocalPlayer, pos_x=157.240*, pos_z=191.780*, pos_y=0.220*, direction=78.7°*)
 29: 0x00CB [0x01] GOTO 0x024A
 30: 0x00CE [0x02] IF !(ExtData[1]->WorkLocal[6] == 1*) GOTO 0x018C
 31: 0x00D6 [0xBA] SET_ENTITY_POSITION(entity_id=Midras (ID: 17855076/0x01107264), pos_x=167.000*, pos_z=167.000*, pos_y=0.100*, direction=89.9°*)
 32: 0x00E3 [0xBA] SET_ENTITY_POSITION(entity_id=Leafkin (ID: 17855077/0x01107265), pos_x=167.000*, pos_z=161.000*, pos_y=-0.190*, direction=377476129.3°*)
 33: 0x00F0 [0xBA] SET_ENTITY_POSITION(entity_id=LocalPlayer, pos_x=160.000*, pos_z=187.500*, pos_y=0.450*, direction=78.7°*)
 34: 0x00FD [0x03] ExtData[1]->WorkLocal[5] = 9*
 35: 0x0102 [0x02] IF !(LocalPlayer->Race == 1*) GOTO 0x010D
 36: 0x010A [0x01] GOTO 0x0162
 37: 0x010D [0x02] IF !(LocalPlayer->Race == 2*) GOTO 0x011D
 38: 0x0115 [0x07] ExtData[1]->WorkLocal[5] += 10*
 39: 0x011A [0x01] GOTO 0x0162
 40: 0x011D [0x02] IF !(LocalPlayer->Race == 3*) GOTO 0x012D
 41: 0x0125 [0x07] ExtData[1]->WorkLocal[5] += 20*
 42: 0x012A [0x01] GOTO 0x0162
 43: 0x012D [0x02] IF !(LocalPlayer->Race == 4*) GOTO 0x013D
 44: 0x0135 [0x07] ExtData[1]->WorkLocal[5] += 30*
 45: 0x013A [0x01] GOTO 0x0162
 46: 0x013D [0x02] IF !(LocalPlayer->Race == 7*) GOTO 0x014D
 47: 0x0145 [0x07] ExtData[1]->WorkLocal[5] += 50*
 48: 0x014A [0x01] GOTO 0x0162
 49: 0x014D [0x02] IF !(LocalPlayer->Race == 8*) GOTO 0x015D
 50: 0x0155 [0x07] ExtData[1]->WorkLocal[5] += 60*
 51: 0x015A [0x01] GOTO 0x0162
 52: 0x015D [0x07] ExtData[1]->WorkLocal[5] += 40*

SUBROUTINE_0162:
 53: 0x0162 [0x66] LOAD_EXT_SCHEDULER_MAIN: Load scheduler "sha0" with entities [LocalPlayer, LocalPlayer], work=ExtData[1]->WorkLocal[5]
 54: 0x0171 [0x4A] Midras (ID: 17855076/0x01107264) looks at Leafkin (ID: 17855077/0x01107265)
 55: 0x017A [0x4A] Leafkin (ID: 17855077/0x01107265) looks at Midras (ID: 17855076/0x01107264)
 56: 0x0183 [0x6F] WAIT_FRAME_DELAY: Yield until WaitTime reaches zero
 57: 0x0184 [0x76] CHECK_ENTITY_RENDER_FLAGS: Wait until Midras (ID: 17855076/0x01107264) Render.Flags0 and Render.Flags3 conditions are met
 58: 0x0189 [0x01] GOTO 0x024A
 59: 0x018C [0x02] IF !(ExtData[1]->WorkLocal[6] == 2*) GOTO 0x024A
 60: 0x0194 [0xBA] SET_ENTITY_POSITION(entity_id=Midras (ID: 17855076/0x01107264), pos_x=167.000*, pos_z=167.000*, pos_y=0.100*, direction=89.9°*)
 61: 0x01A1 [0xBA] SET_ENTITY_POSITION(entity_id=Leafkin (ID: 17855077/0x01107265), pos_x=167.000*, pos_z=161.000*, pos_y=-0.190*, direction=377476129.3°*)
 62: 0x01AE [0xBA] SET_ENTITY_POSITION(entity_id=LocalPlayer, pos_x=160.000*, pos_z=187.500*, pos_y=0.450*, direction=78.7°*)
 63: 0x01BB [0x03] ExtData[1]->WorkLocal[5] = 9*
 64: 0x01C0 [0x02] IF !(LocalPlayer->Race == 1*) GOTO 0x01CB
 65: 0x01C8 [0x01] GOTO 0x0220
 66: 0x01CB [0x02] IF !(LocalPlayer->Race == 2*) GOTO 0x01DB
 67: 0x01D3 [0x07] ExtData[1]->WorkLocal[5] += 10*
 68: 0x01D8 [0x01] GOTO 0x0220
 69: 0x01DB [0x02] IF !(LocalPlayer->Race == 3*) GOTO 0x01EB
 70: 0x01E3 [0x07] ExtData[1]->WorkLocal[5] += 20*
 71: 0x01E8 [0x01] GOTO 0x0220
 72: 0x01EB [0x02] IF !(LocalPlayer->Race == 4*) GOTO 0x01FB
 73: 0x01F3 [0x07] ExtData[1]->WorkLocal[5] += 30*
 74: 0x01F8 [0x01] GOTO 0x0220
 75: 0x01FB [0x02] IF !(LocalPlayer->Race == 7*) GOTO 0x020B
 76: 0x0203 [0x07] ExtData[1]->WorkLocal[5] += 50*
 77: 0x0208 [0x01] GOTO 0x0220
 78: 0x020B [0x02] IF !(LocalPlayer->Race == 8*) GOTO 0x021B
 79: 0x0213 [0x07] ExtData[1]->WorkLocal[5] += 60*
 80: 0x0218 [0x01] GOTO 0x0220
 81: 0x021B [0x07] ExtData[1]->WorkLocal[5] += 40*

SUBROUTINE_0220:
 82: 0x0220 [0x66] LOAD_EXT_SCHEDULER_MAIN: Load scheduler "sha0" with entities [LocalPlayer, LocalPlayer], work=ExtData[1]->WorkLocal[5]
 83: 0x022F [0x4A] Midras (ID: 17855076/0x01107264) looks at Leafkin (ID: 17855077/0x01107265)
 84: 0x0238 [0x4A] Leafkin (ID: 17855077/0x01107265) looks at Midras (ID: 17855076/0x01107264)
 85: 0x0241 [0x6F] WAIT_FRAME_DELAY: Yield until WaitTime reaches zero
 86: 0x0242 [0x76] CHECK_ENTITY_RENDER_FLAGS: Wait until Midras (ID: 17855076/0x01107264) Render.Flags0 and Render.Flags3 conditions are met
 87: 0x0247 [0x01] GOTO 0x024A

SUBROUTINE_024A:
 88: 0x024A [0x80] LOAD_WAIT(entity=Midras (ID: 17855076/0x01107264))
 89: 0x024F [0x80] LOAD_WAIT(entity=Leafkin (ID: 17855077/0x01107265))
 90: 0x0254 [0x80] LOAD_WAIT(entity=LocalPlayer)
 91: 0x0259 [0x1C] WAIT(60* ticks)
 92: 0x025C [0x02] IF !(ExtData[1]->WorkLocal[6] == 0*) GOTO 0x0290
 93: 0x0264 [0x27] REQ_SET(priority=0x10, entity_id=Midras (ID: 17855076/0x01107264), tag_num=0x1F)
 94: 0x026B [0x45] LOAD_SCHEDULED_TASK: Load scheduler "s000" with entities [EventEntity, EventEntity], work=[805*, 0*]
 95: 0x027C [0x45] LOAD_SCHEDULED_TASK: Load scheduler "fdi1" with entities [LocalPlayer, LocalPlayer], work=[200*, 0*]
 96: 0x028D [0x01] GOTO 0x031F
 97: 0x0290 [0x02] IF !(ExtData[1]->WorkLocal[6] == 1*) GOTO 0x02EF
 98: 0x0298 [0x45] LOAD_SCHEDULED_TASK: Load scheduler "s005" with entities [EventEntity, EventEntity], work=[805*, 0*]
 99: 0x02A9 [0x45] LOAD_SCHEDULED_TASK: Load scheduler "fdi1" with entities [LocalPlayer, LocalPlayer], work=[200*, 0*]
100: 0x02BA [0x1C] WAIT(30* ticks)
101: 0x02BD [0x66] LOAD_EXT_SCHEDULER_MAIN: Load scheduler "tlk0" with entities [Midras (ID: 17855076/0x01107264), Midras (ID: 17855076/0x01107264)], work=149*
102: 0x02CC [0x2B] Midras (ID: 17855076/0x01107264) [8430*]:
    → "Okay--I'm good to go. Let's go over the rules once more."
103: 0x02D3 [0x1C] WAIT(120* ticks)
104: 0x02D6 [0x23] WAIT_FOR_DIALOG_INTERACTION
105: 0x02D7 [0x66] LOAD_EXT_SCHEDULER_MAIN: Load scheduler "tlk1" with entities [Midras (ID: 17855076/0x01107264), Midras (ID: 17855076/0x01107264)], work=149*
106: 0x02E6 [0x1C] WAIT(60* ticks)
107: 0x02E9 [0x01] GOTO 0x057F

SUBROUTINE_031F:
108: 0x031F [0x2A] GET_REQ_LEVEL(level=16, entity_id=Midras (ID: 17855076/0x01107264))
109: 0x0325 [0x4A] Midras (ID: 17855076/0x01107264) looks at Leafkin (ID: 17855077/0x01107265)
110: 0x032E [0x1C] WAIT(90* ticks)
111: 0x0331 [0x27] REQ_SET(priority=0x10, entity_id=LocalPlayer, tag_num=0x25)
112: 0x0338 [0x52] END_LOAD_SCHEDULER: End scheduler "s000" with entities [EventEntity, EventEntity], work=805*
113: 0x0347 [0x45] LOAD_SCHEDULED_TASK: Load scheduler "s001" with entities [EventEntity, EventEntity], work=[805*, 0*]
114: 0x0358 [0x59] UPDATE_ENTITY_DATA: Leafkin (ID: 17855077/0x01107265)->Render.Flags0 |= 0x200000
115: 0x035F [0xBA] SET_ENTITY_POSITION(entity_id=Leafkin (ID: 17855077/0x01107265), pos_x=167.000*, pos_z=161.000*, pos_y=-0.210*, direction=89.9°*)
116: 0x036C [0x1C] WAIT(60* ticks)
117: 0x036F [0x7B] Midras (ID: 17855076/0x01107264) stops talking
118: 0x0374 [0x2A] GET_REQ_LEVEL(level=16, entity_id=LocalPlayer)
119: 0x037A [0x1C] WAIT(10* ticks)
120: 0x037D [0x03] ExtData[1]->WorkLocal[5] = 9*
121: 0x0382 [0x02] IF !(LocalPlayer->Race == 1*) GOTO 0x038D
122: 0x038A [0x01] GOTO 0x03E2
123: 0x038D [0x02] IF !(LocalPlayer->Race == 2*) GOTO 0x039D
124: 0x0395 [0x07] ExtData[1]->WorkLocal[5] += 10*
125: 0x039A [0x01] GOTO 0x03E2
126: 0x039D [0x02] IF !(LocalPlayer->Race == 3*) GOTO 0x03AD
127: 0x03A5 [0x07] ExtData[1]->WorkLocal[5] += 20*
128: 0x03AA [0x01] GOTO 0x03E2
129: 0x03AD [0x02] IF !(LocalPlayer->Race == 4*) GOTO 0x03BD
130: 0x03B5 [0x07] ExtData[1]->WorkLocal[5] += 30*
131: 0x03BA [0x01] GOTO 0x03E2
132: 0x03BD [0x02] IF !(LocalPlayer->Race == 7*) GOTO 0x03CD
133: 0x03C5 [0x07] ExtData[1]->WorkLocal[5] += 50*
134: 0x03CA [0x01] GOTO 0x03E2
135: 0x03CD [0x02] IF !(LocalPlayer->Race == 8*) GOTO 0x03DD
136: 0x03D5 [0x07] ExtData[1]->WorkLocal[5] += 60*
137: 0x03DA [0x01] GOTO 0x03E2
138: 0x03DD [0x07] ExtData[1]->WorkLocal[5] += 40*

SUBROUTINE_03E2:
139: 0x03E2 [0x66] LOAD_EXT_SCHEDULER_MAIN: Load scheduler "sha0" with entities [LocalPlayer, LocalPlayer], work=ExtData[1]->WorkLocal[5]
140: 0x03F1 [0x1C] WAIT(150* ticks)
141: 0x03F4 [0x52] END_LOAD_SCHEDULER: End scheduler "s001" with entities [EventEntity, EventEntity], work=805*
142: 0x0403 [0x45] LOAD_SCHEDULED_TASK: Load scheduler "s002" with entities [EventEntity, EventEntity], work=[805*, 0*]
143: 0x0414 [0x2B] Midras (ID: 17855076/0x01107264) [8413*]:
    → "So I, uh... Hey there."
144: 0x041B [0x1C] WAIT(120* ticks)
145: 0x041E [0x23] WAIT_FOR_DIALOG_INTERACTION
146: 0x041F [0x59] UPDATE_ENTITY_DATA: Set Leafkin (ID: 17855077/0x01107265) turn speed = 50*
147: 0x0427 [0x4A] Leafkin (ID: 17855077/0x01107265) looks at Midras (ID: 17855076/0x01107264)
148: 0x0430 [0x1C] WAIT(15* ticks)
149: 0x0433 [0x52] END_LOAD_SCHEDULER: End scheduler "s002" with entities [EventEntity, EventEntity], work=805*
150: 0x0442 [0x45] LOAD_SCHEDULED_TASK: Load scheduler "s003" with entities [EventEntity, EventEntity], work=[805*, 0*]
151: 0x0453 [0x6F] WAIT_FRAME_DELAY: Yield until WaitTime reaches zero
152: 0x0454 [0x76] CHECK_ENTITY_RENDER_FLAGS: Wait until Leafkin (ID: 17855077/0x01107265) Render.Flags0 and Render.Flags3 conditions are met
153: 0x0459 [0x59] UPDATE_ENTITY_DATA: Set Leafkin (ID: 17855077/0x01107265) turn speed = 100*
154: 0x0461 [0x1C] WAIT(60* ticks)
155: 0x0464 [0x6B] STOP_AND_IDLE: Midras (ID: 17855076/0x01107264) stops current action and resets to idle (animation="idl0")
156: 0x046D [0x27] REQ_SET(priority=0x10, entity_id=Leafkin (ID: 17855077/0x01107265), tag_num=0x0C)
157: 0x0474 [0x1C] WAIT(240* ticks)
158: 0x0477 [0x52] END_LOAD_SCHEDULER: End scheduler "s003" with entities [EventEntity, EventEntity], work=805*
159: 0x0486 [0x45] LOAD_SCHEDULED_TASK: Load scheduler "s004" with entities [EventEntity, EventEntity], work=[805*, 0*]
160: 0x0497 [0x59] UPDATE_ENTITY_DATA: Leafkin (ID: 17855077/0x01107265)->Render.Flags0 &= ~0x200000
161: 0x049E [0xBA] SET_ENTITY_POSITION(entity_id=Leafkin (ID: 17855077/0x01107265), pos_x=167.000*, pos_z=161.000*, pos_y=-0.190*, direction=377476129.3°*)
162: 0x04AB [0x4A] Leafkin (ID: 17855077/0x01107265) looks at Midras (ID: 17855076/0x01107264)
163: 0x04B4 [0x27] REQ_SET(priority=0x10, entity_id=Leafkin (ID: 17855077/0x01107265), tag_num=0x0D)
164: 0x04BB [0x6B] STOP_AND_IDLE: Leafkin (ID: 17855077/0x01107265) stops current action and resets to idle (animation="idl0")
165: 0x04C4 [0x7C] Midras (ID: 17855076/0x01107264)->Render.Flags2 |= 0x00
166: 0x04CA [0x6E] Midras (ID: 17855076/0x01107264) uses emote 6*
167: 0x04D1 [0x99] Wait for Midras (ID: 17855076/0x01107264) animation to complete
168: 0x04D6 [0x2B] Midras (ID: 17855076/0x01107264) [8414*]:
    → "(Urk...I don't care how many times I see one of these things. They still creep me out.)"
169: 0x04DD [0x1C] WAIT(150* ticks)
170: 0x04E0 [0x23] WAIT_FOR_DIALOG_INTERACTION
171: 0x04E1 [0x7C] Midras (ID: 17855076/0x01107264)->Render.Flags2 |= 0x01
172: 0x04E7 [0x79] Midras (ID: 17855076/0x01107264) looks at Leafkin (ID: 17855077/0x01107265) (Basic look)
173: 0x04F1 [0x52] END_LOAD_SCHEDULER: End scheduler "s004" with entities [EventEntity, EventEntity], work=805*
174: 0x0500 [0x45] LOAD_SCHEDULED_TASK: Load scheduler "s005" with entities [EventEntity, EventEntity], work=[805*, 0*]
175: 0x0511 [0x66] LOAD_EXT_SCHEDULER_MAIN: Load scheduler "tlk0" with entities [Midras (ID: 17855076/0x01107264), Midras (ID: 17855076/0x01107264)], work=149*
176: 0x0520 [0x2B] Midras (ID: 17855076/0x01107264) [8415*]:
    → "I remember the last time I was here. I was too scared to press forward."
177: 0x0527 [0x23] WAIT_FOR_DIALOG_INTERACTION
178: 0x0528 [0x2B] Midras (ID: 17855076/0x01107264) [8416*]:
    → "But this time's different. This time I won't turn away!"
179: 0x052F [0x23] WAIT_FOR_DIALOG_INTERACTION
180: 0x0530 [0x2B] Midras (ID: 17855076/0x01107264) [8417*]:
    → "You've probably got better things to do, but indulge me this once."
181: 0x0537 [0x1C] WAIT(120* ticks)
182: 0x053A [0x23] WAIT_FOR_DIALOG_INTERACTION
183: 0x053B [0x66] LOAD_EXT_SCHEDULER_MAIN: Load scheduler "tlk1" with entities [Midras (ID: 17855076/0x01107264), Midras (ID: 17855076/0x01107264)], work=149*
184: 0x054A [0x5B] LOAD_EXT_SCHEDULER: Load scheduler "tla0" with entities [Leafkin (ID: 17855077/0x01107265), Leafkin (ID: 17855077/0x01107265)], work=3319*
185: 0x0559 [0x1C] WAIT(30* ticks)
186: 0x055C [0x45] LOAD_SCHEDULED_TASK: Load scheduler "8001" with entities [LocalPlayer, LocalPlayer], work=[805*, 0*]
187: 0x056D [0x1C] WAIT(90* ticks)
188: 0x0570 [0x5B] LOAD_EXT_SCHEDULER: Load scheduler "tla1" with entities [Leafkin (ID: 17855077/0x01107265), Leafkin (ID: 17855077/0x01107265)], work=3319*

SUBROUTINE_057F:
189: 0x057F [0x52] END_LOAD_SCHEDULER: End scheduler "s005" with entities [EventEntity, EventEntity], work=805*
190: 0x058E [0x45] LOAD_SCHEDULED_TASK: Load scheduler "s006" with entities [EventEntity, EventEntity], work=[805*, 0*]
191: 0x059F [0x66] LOAD_EXT_SCHEDULER_MAIN: Load scheduler "kiz0" with entities [Midras (ID: 17855076/0x01107264), Midras (ID: 17855076/0x01107264)], work=141*
192: 0x05AE [0x1C] WAIT(60* ticks)
193: 0x05B1 [0x66] LOAD_EXT_SCHEDULER_MAIN: Load scheduler "kiz1" with entities [Midras (ID: 17855076/0x01107264), Midras (ID: 17855076/0x01107264)], work=141*
194: 0x05C0 [0x2B] Midras (ID: 17855076/0x01107264) [8418*]:
    → "You see this locket? It was my father's."
195: 0x05C7 [0x1C] WAIT(150* ticks)
196: 0x05CA [0x23] WAIT_FOR_DIALOG_INTERACTION
197: 0x05CB [0x66] LOAD_EXT_SCHEDULER_MAIN: Load scheduler "twa1" with entities [Midras (ID: 17855076/0x01107264), Midras (ID: 17855076/0x01107264)], work=9*
198: 0x05DA [0x7B] Midras (ID: 17855076/0x01107264) stops talking
199: 0x05DF [0x52] END_LOAD_SCHEDULER: End scheduler "s006" with entities [EventEntity, EventEntity], work=805*
200: 0x05EE [0x45] LOAD_SCHEDULED_TASK: Load scheduler "s007" with entities [EventEntity, EventEntity], work=[805*, 0*]
201: 0x05FF [0x1C] WAIT(90* ticks)
202: 0x0602 [0x59] UPDATE_ENTITY_DATA: Unnamed NPC (ID: 17855085/0x0110726D)->Render.Flags0 |= 0x200000
203: 0x0609 [0xBA] SET_ENTITY_POSITION(entity_id=Unnamed NPC (ID: 17855085/0x0110726D), pos_x=167.050*, pos_z=163.650*, pos_y=0.050*, direction=0.0°*)
204: 0x0616 [0x4E] SET_ENTITY_HIDE_FLAG: Show Unnamed NPC (ID: 17855085/0x0110726D)
205: 0x061C [0x27] REQ_SET(priority=0x10, entity_id=Midras (ID: 17855076/0x01107264), tag_num=0x20)
206: 0x0623 [0x2B] Midras (ID: 17855076/0x01107264) [8419*]:
    → "So you stand there...and I'll place it between us..."
207: 0x062A [0x2A] GET_REQ_LEVEL(level=16, entity_id=Midras (ID: 17855076/0x01107264))
208: 0x0630 [0x23] WAIT_FOR_DIALOG_INTERACTION
209: 0x0631 [0x1C] WAIT(15* ticks)
210: 0x0634 [0x66] LOAD_EXT_SCHEDULER_MAIN: Load scheduler "sha0" with entities [Midras (ID: 17855076/0x01107264), Midras (ID: 17855076/0x01107264)], work=9*
211: 0x0643 [0x1C] WAIT(120* ticks)
212: 0x0646 [0x66] LOAD_EXT_SCHEDULER_MAIN: Load scheduler "sir0" with entities [Midras (ID: 17855076/0x01107264), Midras (ID: 17855076/0x01107264)], work=9*
213: 0x0655 [0x1C] WAIT(60* ticks)
214: 0x0658 [0x66] LOAD_EXT_SCHEDULER_MAIN: Load scheduler "sir1" with entities [Midras (ID: 17855076/0x01107264), Midras (ID: 17855076/0x01107264)], work=9*
215: 0x0667 [0x1C] WAIT(30* ticks)
216: 0x066A [0x66] LOAD_EXT_SCHEDULER_MAIN: Load scheduler "sha1" with entities [Midras (ID: 17855076/0x01107264), Midras (ID: 17855076/0x01107264)], work=9*
217: 0x0679 [0x1C] WAIT(60* ticks)
218: 0x067C [0x27] REQ_SET(priority=0x10, entity_id=Unnamed NPC (ID: 17855085/0x0110726D), tag_num=0x02)
219: 0x0683 [0x1C] WAIT(60* ticks)
220: 0x0686 [0x27] REQ_SET(priority=0x10, entity_id=Midras (ID: 17855076/0x01107264), tag_num=0x21)
221: 0x068D [0x52] END_LOAD_SCHEDULER: End scheduler "s007" with entities [EventEntity, EventEntity], work=805*
222: 0x069C [0x45] LOAD_SCHEDULED_TASK: Load scheduler "s008" with entities [EventEntity, EventEntity], work=[805*, 0*]
223: 0x06AD [0x2B] Midras (ID: 17855076/0x01107264) [8420*]:
    → "...prepare the powder keg..."
224: 0x06B4 [0x2A] GET_REQ_LEVEL(level=16, entity_id=Midras (ID: 17855076/0x01107264))
225: 0x06BA [0x23] WAIT_FOR_DIALOG_INTERACTION
226: 0x06BB [0x4A] Midras (ID: 17855076/0x01107264) looks at Leafkin (ID: 17855077/0x01107265)
227: 0x06C4 [0x52] END_LOAD_SCHEDULER: End scheduler "s008" with entities [EventEntity, EventEntity], work=805*
228: 0x06D3 [0x45] LOAD_SCHEDULED_TASK: Load scheduler "s009" with entities [EventEntity, EventEntity], work=[805*, 0*]
229: 0x06E4 [0x6F] WAIT_FRAME_DELAY: Yield until WaitTime reaches zero
230: 0x06E5 [0x76] CHECK_ENTITY_RENDER_FLAGS: Wait until Midras (ID: 17855076/0x01107264) Render.Flags0 and Render.Flags3 conditions are met
231: 0x06EA [0x03] Work_Zone[2] = ExtData[1]->WorkLocal[4]
232: 0x06EF [0x66] LOAD_EXT_SCHEDULER_MAIN: Load scheduler "tlk0" with entities [Midras (ID: 17855076/0x01107264), Midras (ID: 17855076/0x01107264)], work=0*
233: 0x06FE [0x2B] Midras (ID: 17855076/0x01107264) [8421*]:
    → "...and it'll explode $0 second[/s] after I flip the switch. That's your signal."
234: 0x0705 [0x23] WAIT_FOR_DIALOG_INTERACTION
235: 0x0706 [0x2B] Midras (ID: 17855076/0x01107264) [8422*]:
    → "Whoever reaches the locket first is the winner. What say you?"
236: 0x070D [0x1C] WAIT(120* ticks)
237: 0x0710 [0x23] WAIT_FOR_DIALOG_INTERACTION
238: 0x0711 [0x66] LOAD_EXT_SCHEDULER_MAIN: Load scheduler "ten0" with entities [Midras (ID: 17855076/0x01107264), Midras (ID: 17855076/0x01107264)], work=0*
239: 0x0720 [0x5B] LOAD_EXT_SCHEDULER: Load scheduler "tla0" with entities [Leafkin (ID: 17855077/0x01107265), Leafkin (ID: 17855077/0x01107265)], work=3319*
240: 0x072F [0x1C] WAIT(30* ticks)
241: 0x0732 [0x45] LOAD_SCHEDULED_TASK: Load scheduler "8001" with entities [LocalPlayer, LocalPlayer], work=[805*, 0*]
242: 0x0743 [0x1C] WAIT(90* ticks)
243: 0x0746 [0x5B] LOAD_EXT_SCHEDULER: Load scheduler "tla1" with entities [Leafkin (ID: 17855077/0x01107265), Leafkin (ID: 17855077/0x01107265)], work=3319*
244: 0x0755 [0x7B] Midras (ID: 17855076/0x01107264) stops talking
245: 0x075A [0x52] END_LOAD_SCHEDULER: End scheduler "s009" with entities [EventEntity, EventEntity], work=805*
246: 0x0769 [0x45] LOAD_SCHEDULED_TASK: Load scheduler "s010" with entities [EventEntity, EventEntity], work=[805*, 0*]
247: 0x077A [0x1C] WAIT(30* ticks)
248: 0x077D [0x27] REQ_SET(priority=0x10, entity_id=Midras (ID: 17855076/0x01107264), tag_num=0x1F)
249: 0x0784 [0x2A] GET_REQ_LEVEL(level=16, entity_id=Midras (ID: 17855076/0x01107264))
250: 0x078A [0x1C] WAIT(30* ticks)
251: 0x078D [0x27] REQ_SET(priority=0x10, entity_id=Midras (ID: 17855076/0x01107264), tag_num=0x22)
252: 0x0794 [0x7C] Midras (ID: 17855076/0x01107264)->Render.Flags2 |= 0x00
253: 0x079A [0x2B] Midras (ID: 17855076/0x01107264) [8424*]:
    → "(Okay, just stay calm... ...here we go!)"
254: 0x07A1 [0x23] WAIT_FOR_DIALOG_INTERACTION
255: 0x07A2 [0x1C] WAIT(60* ticks)
256: 0x07A5 [0x7C] Midras (ID: 17855076/0x01107264)->Render.Flags2 |= 0x01
257: 0x07AB [0x4A] Midras (ID: 17855076/0x01107264) looks at Leafkin (ID: 17855077/0x01107265)
258: 0x07B4 [0x52] END_LOAD_SCHEDULER: End scheduler "s010" with entities [EventEntity, EventEntity], work=805*
259: 0x07C3 [0x45] LOAD_SCHEDULED_TASK: Load scheduler "s011" with entities [EventEntity, EventEntity], work=[805*, 0*]

SUBROUTINE_07D4:
260: 0x07D4 [0xBA] SET_ENTITY_POSITION(entity_id=Unnamed NPC (ID: 17855059/0x01107253), pos_x=165.710*, pos_z=163.380*, pos_y=-0.020*, direction=0.0°*)
261: 0x07E1 [0x4E] SET_ENTITY_HIDE_FLAG: Show Unnamed NPC (ID: 17855059/0x01107253)
262: 0x07E7 [0x6F] WAIT_FRAME_DELAY: Yield until WaitTime reaches zero
263: 0x07E8 [0x76] CHECK_ENTITY_RENDER_FLAGS: Wait until Midras (ID: 17855076/0x01107264) Render.Flags0 and Render.Flags3 conditions are met
264: 0x07ED [0x2B] Midras (ID: 17855076/0x01107264) [8425*]:
    → "Ready?"
265: 0x07F4 [0x23] WAIT_FOR_DIALOG_INTERACTION
266: 0x07F5 [0x6E] Midras (ID: 17855076/0x01107264) uses emote 0*
267: 0x07FC [0x99] Wait for Midras (ID: 17855076/0x01107264) animation to complete
268: 0x0801 [0x48] [System] [8426*]:
    → "Midras flips a switch to start the keg's countdown."
269: 0x0804 [0x03] Work_Zone[1] = 1*
270: 0x0809 [0x43] SEND_EVENT_UPDATE: Send pending tag to server (packet 0x005B)
271: 0x080B [0x43] SEND_EVENT_UPDATE: Check pending flag (skip if not pending)
272: 0x080D [0x02] IF !(Work_Zone[9] >= 0*) GOTO 0x082B
273: 0x0815 [0x7A] VM_CONTROL: Reset VM for Unnamed NPC (ID: 17855085/0x0110726D)
274: 0x081B [0x4E] SET_ENTITY_HIDE_FLAG: Hide Unnamed NPC (ID: 17855085/0x0110726D)
275: 0x0821 [0x59] UPDATE_ENTITY_DATA: Unnamed NPC (ID: 17855085/0x0110726D)->Render.Flags0 &= ~0x200000
276: 0x0828 [0x01] GOTO 0x121D
277: 0x082B [0x27] REQ_SET(priority=0x10, entity_id=Unnamed NPC (ID: 17855059/0x01107253), tag_num=0x6B)
278: 0x0832 [0x27] REQ_SET(priority=0x10, entity_id=Unnamed NPC (ID: 17855060/0x01107254), tag_num=0x68)
279: 0x0839 [0x5C] MUSIC_CONTROL: Set Idle (Day) music to song 64*
280: 0x083D [0x5C] MUSIC_CONTROL: Set Idle (Night) music to song 64*
281: 0x0841 [0x03] Work_Zone[9] = 0*
282: 0x0846 [0x24] CREATE_DIALOG(message_id=8427*, default_option=0*, option_flags=0*)
    → "Have any thoughts of support? [You can do it!/Wait, not yet! (Cancels event)]"
283: 0x084D [0x25] WAIT_DIALOG_SELECT()
284: 0x084E [0x02] IF !(Work_Zone[0] == 0*) GOTO 0x0886
285: 0x0856 [0x02] IF !(Work_Zone[9] == 2*) GOTO 0x0883

SUBROUTINE_085E:
286: 0x085E [0x02] IF !(Work_Zone_1700[1] == 1*) GOTO 0x086C
287: 0x0866 [0x1C] WAIT(1* ticks)
288: 0x0869 [0x01] GOTO 0x085E
289: 0x086C [0x03] Work_Zone_1700[2] = 1*
290: 0x0871 [0x7A] VM_CONTROL: Reset VM for Unnamed NPC (ID: 17855060/0x01107254)
291: 0x0877 [0x03] Work_Zone[1] = 2*
292: 0x087C [0x43] SEND_EVENT_UPDATE: Send pending tag to server (packet 0x005B)
293: 0x087E [0x43] SEND_EVENT_UPDATE: Check pending flag (skip if not pending)
294: 0x0880 [0xB4] UI_WINDOW_STRING_HANDLER(case=0x06 - Toggle query message flag, flag_value=0x01)
295: 0x0883 [0x01] GOTO 0x098C
296: 0x0886 [0x02] IF !(Work_Zone[0] == 1*) GOTO 0x098C
297: 0x088E [0x02] IF !(Work_Zone[9] == 2*) GOTO 0x0989
298: 0x0896 [0x52] END_LOAD_SCHEDULER: End scheduler "s010" with entities [EventEntity, EventEntity], work=805*
299: 0x08A5 [0x45] LOAD_SCHEDULED_TASK: Load scheduler "s014" with entities [EventEntity, EventEntity], work=[805*, 0*]

SUBROUTINE_08B6:
300: 0x08B6 [0x02] IF !(Work_Zone_1700[1] == 1*) GOTO 0x08C4
301: 0x08BE [0x1C] WAIT(1* ticks)
302: 0x08C1 [0x01] GOTO 0x08B6
303: 0x08C4 [0x03] Work_Zone_1700[2] = 1*
304: 0x08C9 [0x7A] VM_CONTROL: Reset VM for Unnamed NPC (ID: 17855059/0x01107253)
305: 0x08CF [0x7A] VM_CONTROL: Reset VM for Unnamed NPC (ID: 17855060/0x01107254)
306: 0x08D5 [0x7A] VM_CONTROL: Reset VM for Unnamed NPC (ID: 17855085/0x0110726D)
307: 0x08DB [0x4E] SET_ENTITY_HIDE_FLAG: Hide Unnamed NPC (ID: 17855085/0x0110726D)
308: 0x08E1 [0x59] UPDATE_ENTITY_DATA: Unnamed NPC (ID: 17855085/0x0110726D)->Render.Flags0 &= ~0x200000
309: 0x08E8 [0x6E] Midras (ID: 17855076/0x01107264) uses emote 19*
310: 0x08EF [0x99] Wait for Midras (ID: 17855076/0x01107264) animation to complete
311: 0x08F4 [0x2B] Midras (ID: 17855076/0x01107264) [8428*]:
    → "Ugh. Look at me--I said I wouldn't turn back this time, but...I guess I'm just not ready."
312: 0x08FB [0x1C] WAIT(180* ticks)
313: 0x08FE [0x23] WAIT_FOR_DIALOG_INTERACTION
314: 0x08FF [0x66] LOAD_EXT_SCHEDULER_MAIN: Load scheduler "tlk0" with entities [Midras (ID: 17855076/0x01107264), Midras (ID: 17855076/0x01107264)], work=0*
315: 0x090E [0x2B] Midras (ID: 17855076/0x01107264) [8429*]:
    → "Next time though, Ygnas--will you be ready?"
316: 0x0915 [0x1C] WAIT(120* ticks)
317: 0x0918 [0x23] WAIT_FOR_DIALOG_INTERACTION
318: 0x0919 [0x66] LOAD_EXT_SCHEDULER_MAIN: Load scheduler "ten0" with entities [Midras (ID: 17855076/0x01107264), Midras (ID: 17855076/0x01107264)], work=0*
319: 0x0928 [0x52] END_LOAD_SCHEDULER: End scheduler "s014" with entities [EventEntity, EventEntity], work=805*
320: 0x0937 [0x45] LOAD_SCHEDULED_TASK: Load scheduler "s015" with entities [EventEntity, EventEntity], work=[805*, 0*]
321: 0x0948 [0x5B] LOAD_EXT_SCHEDULER: Load scheduler "tla0" with entities [Leafkin (ID: 17855077/0x01107265), Leafkin (ID: 17855077/0x01107265)], work=3319*
322: 0x0957 [0x1C] WAIT(30* ticks)
323: 0x095A [0x45] LOAD_SCHEDULED_TASK: Load scheduler "8001" with entities [LocalPlayer, LocalPlayer], work=[805*, 0*]
324: 0x096B [0x1C] WAIT(90* ticks)
325: 0x096E [0x5B] LOAD_EXT_SCHEDULER: Load scheduler "tla1" with entities [Leafkin (ID: 17855077/0x01107265), Leafkin (ID: 17855077/0x01107265)], work=3319*
326: 0x097D [0x03] Work_Zone[1] = 3*
327: 0x0982 [0x43] SEND_EVENT_UPDATE: Send pending tag to server (packet 0x005B)
328: 0x0984 [0x43] SEND_EVENT_UPDATE: Check pending flag (skip if not pending)
329: 0x0986 [0x01] GOTO 0x121D
330: 0x0989 [0x01] GOTO 0x098C

SUBROUTINE_098C:
331: 0x098C [0x02] IF !(Work_Zone[9] == 1*) GOTO 0x0AB1
332: 0x0994 [0x27] REQ_SET(priority=0x10, entity_id=Midras (ID: 17855076/0x01107264), tag_num=0x23)
333: 0x099B [0x7A] VM_CONTROL: Reset VM for Unnamed NPC (ID: 17855059/0x01107253)
334: 0x09A1 [0x7A] VM_CONTROL: Reset VM for Unnamed NPC (ID: 17855060/0x01107254)
335: 0x09A7 [0x1C] WAIT(15* ticks)
336: 0x09AA [0x52] END_LOAD_SCHEDULER: End scheduler "s011" with entities [EventEntity, EventEntity], work=805*
337: 0x09B9 [0x45] LOAD_SCHEDULED_TASK: Load scheduler "s012" with entities [EventEntity, EventEntity], work=[805*, 0*]
338: 0x09CA [0x2A] GET_REQ_LEVEL(level=16, entity_id=Midras (ID: 17855076/0x01107264))
339: 0x09D0 [0x1C] WAIT(15* ticks)
340: 0x09D3 [0x7C] Midras (ID: 17855076/0x01107264)->Render.Flags2 |= 0x00
341: 0x09D9 [0x6E] Midras (ID: 17855076/0x01107264) uses emote 21*
342: 0x09E0 [0x99] Wait for Midras (ID: 17855076/0x01107264) animation to complete
343: 0x09E5 [0x2B] Midras (ID: 17855076/0x01107264) [8431*]:
    → "(Damn it! That was a bit of a false start.)"
344: 0x09EC [0x1C] WAIT(180* ticks)
345: 0x09EF [0x23] WAIT_FOR_DIALOG_INTERACTION
346: 0x09F0 [0x7C] Midras (ID: 17855076/0x01107264)->Render.Flags2 |= 0x01
347: 0x09F6 [0x2B] Midras (ID: 17855076/0x01107264) [8433*]:
    → "Let's uh... Let's try this again."
348: 0x09FD [0x23] WAIT_FOR_DIALOG_INTERACTION
349: 0x09FE [0x1C] WAIT(90* ticks)

SUBROUTINE_0A01:
350: 0x0A01 [0x45] LOAD_SCHEDULED_TASK: Load scheduler "fdo1" with entities [LocalPlayer, LocalPlayer], work=[200*, 0*]
351: 0x0A12 [0x55] WAIT_LOAD_SCHEDULER: Wait for scheduler "fdo1" with entities [LocalPlayer, LocalPlayer], work=200*
352: 0x0A21 [0x48] [System] [7838*]:
    → "@@"
353: 0x0A24 [0xBA] SET_ENTITY_POSITION(entity_id=Midras (ID: 17855076/0x01107264), pos_x=167.000*, pos_z=167.000*, pos_y=0.100*, direction=89.9°*)
354: 0x0A31 [0xBA] SET_ENTITY_POSITION(entity_id=Leafkin (ID: 17855077/0x01107265), pos_x=167.000*, pos_z=161.000*, pos_y=-0.190*, direction=377476129.3°*)
355: 0x0A3E [0x4A] Midras (ID: 17855076/0x01107264) looks at Leafkin (ID: 17855077/0x01107265)
356: 0x0A47 [0x4A] Leafkin (ID: 17855077/0x01107265) looks at Midras (ID: 17855076/0x01107264)
357: 0x0A50 [0x6F] WAIT_FRAME_DELAY: Yield until WaitTime reaches zero
358: 0x0A51 [0x76] CHECK_ENTITY_RENDER_FLAGS: Wait until Midras (ID: 17855076/0x01107264) Render.Flags0 and Render.Flags3 conditions are met
359: 0x0A56 [0x4E] SET_ENTITY_HIDE_FLAG: Show Unnamed NPC (ID: 17855085/0x0110726D)
360: 0x0A5C [0x52] END_LOAD_SCHEDULER: End scheduler "s012" with entities [EventEntity, EventEntity], work=805*
361: 0x0A6B [0x52] END_LOAD_SCHEDULER: End scheduler "s013" with entities [EventEntity, EventEntity], work=805*
362: 0x0A7A [0x45] LOAD_SCHEDULED_TASK: Load scheduler "s011" with entities [EventEntity, EventEntity], work=[805*, 0*]
363: 0x0A8B [0x45] LOAD_SCHEDULED_TASK: Load scheduler "fdi1" with entities [LocalPlayer, LocalPlayer], work=[200*, 0*]
364: 0x0A9C [0x55] WAIT_LOAD_SCHEDULER: Wait for scheduler "fdi1" with entities [LocalPlayer, LocalPlayer], work=200*
365: 0x0AAB [0x01] GOTO 0x07D4

SUBROUTINE_0B8C:
366: 0x0B8C [0x52] END_LOAD_SCHEDULER: End scheduler "s011" with entities [EventEntity, EventEntity], work=805*
367: 0x0B9B [0x45] LOAD_SCHEDULED_TASK: Load scheduler "s016" with entities [EventEntity, EventEntity], work=[805*, 0*]

SUBROUTINE_0BAC:
368: 0x0BAC [0x5C] MUSIC_CONTROL: Set Idle (Day) music to song 0*
369: 0x0BB0 [0x5C] MUSIC_CONTROL: Set Idle (Night) music to song 0*
370: 0x0BB4 [0x5B] LOAD_EXT_SCHEDULER: Load scheduler "wza0" with entities [Leafkin (ID: 17855077/0x01107265), Leafkin (ID: 17855077/0x01107265)], work=3501*
371: 0x0BC3 [0x1C] WAIT(30* ticks)
372: 0x0BC6 [0x27] REQ_SET(priority=0x10, entity_id=Midras (ID: 17855076/0x01107264), tag_num=0x24)
373: 0x0BCD [0x1C] WAIT(60* ticks)
374: 0x0BD0 [0x7A] VM_CONTROL: Reset VM for Leafkin (ID: 17855077/0x01107265)
375: 0x0BD6 [0x6B] STOP_AND_IDLE: Leafkin (ID: 17855077/0x01107265) stops current action and resets to idle (animation="idl0")
376: 0x0BDF [0x52] END_LOAD_SCHEDULER: End scheduler "s016" with entities [EventEntity, EventEntity], work=805*
377: 0x0BEE [0x45] LOAD_SCHEDULED_TASK: Load scheduler "s017" with entities [EventEntity, EventEntity], work=[805*, 0*]
378: 0x0BFF [0x27] REQ_SET(priority=0x10, entity_id=Midras (ID: 17855076/0x01107264), tag_num=0x25)
379: 0x0C06 [0x7C] Midras (ID: 17855076/0x01107264)->Render.Flags2 |= 0x00
380: 0x0C0C [0x2B] Midras (ID: 17855076/0x01107264) [8434*]:
    → "(Got it!)"
381: 0x0C13 [0x1C] WAIT(20* ticks)
382: 0x0C16 [0x59] UPDATE_ENTITY_DATA: Leafkin (ID: 17855077/0x01107265)->Render.Flags0 |= 0x200000
383: 0x0C1D [0xBA] SET_ENTITY_POSITION(entity_id=Leafkin (ID: 17855077/0x01107265), pos_x=167.000*, pos_z=161.000*, pos_y=-0.790*, direction=377476129.3°*)
384: 0x0C2A [0x5B] LOAD_EXT_SCHEDULER: Load scheduler "lef1" with entities [Leafkin (ID: 17855077/0x01107265), Leafkin (ID: 17855077/0x01107265)], work=3523*
385: 0x0C39 [0x1C] WAIT(60* ticks)
386: 0x0C3C [0x7C] Midras (ID: 17855076/0x01107264)->Render.Flags2 |= 0x01
387: 0x0C42 [0x52] END_LOAD_SCHEDULER: End scheduler "s017" with entities [EventEntity, EventEntity], work=805*
388: 0x0C51 [0x45] LOAD_SCHEDULED_TASK: Load scheduler "s018" with entities [EventEntity, EventEntity], work=[805*, 0*]
389: 0x0C62 [0x1C] WAIT(120* ticks)
390: 0x0C65 [0x45] LOAD_SCHEDULED_TASK: Load scheduler "boff" with entities [EventEntity, EventEntity], work=[805*, 0*]
391: 0x0C76 [0x52] END_LOAD_SCHEDULER: End scheduler "s018" with entities [EventEntity, EventEntity], work=805*
392: 0x0C85 [0x45] LOAD_SCHEDULED_TASK: Load scheduler "s019" with entities [EventEntity, EventEntity], work=[805*, 0*]
393: 0x0C96 [0x59] UPDATE_ENTITY_DATA: Leafkin (ID: 17855077/0x01107265)->Render.Flags0 &= ~0x200000
394: 0x0C9D [0xBA] SET_ENTITY_POSITION(entity_id=Leafkin (ID: 17855077/0x01107265), pos_x=167.000*, pos_z=167.000*, pos_y=0.100*, direction=377476129.3°*)
395: 0x0CAA [0x7A] VM_CONTROL: Reset VM for Midras (ID: 17855076/0x01107264)
396: 0x0CB0 [0xBA] SET_ENTITY_POSITION(entity_id=Midras (ID: 17855076/0x01107264), pos_x=167.000*, pos_z=161.000*, pos_y=-0.190*, direction=377476129.3°*)
397: 0x0CBD [0x5B] LOAD_EXT_SCHEDULER: Load scheduler "zsa0" with entities [Midras (ID: 17855076/0x01107264), Midras (ID: 17855076/0x01107264)], work=1473*
398: 0x0CCC [0x4E] SET_ENTITY_HIDE_FLAG: Show Unnamed NPC (ID: 17855059/0x01107253)
399: 0x0CD2 [0x59] UPDATE_ENTITY_DATA: Unnamed NPC (ID: 17855059/0x01107253)->Render.Flags0 |= 0x200000
400: 0x0CD9 [0xBA] SET_ENTITY_POSITION(entity_id=Unnamed NPC (ID: 17855059/0x01107253), pos_x=167.210*, pos_z=161.310*, pos_y=-0.430*, direction=0.0°*)
401: 0x0CE6 [0x1C] WAIT(150* ticks)
402: 0x0CE9 [0x62] LOAD_EVENT_SCHEDULER: Load scheduler "main" with entities [Unnamed NPC (ID: 17855059/0x01107253), Unnamed NPC (ID: 17855059/0x01107253)], work=[3*, 0*]
403: 0x0CFA [0x1C] WAIT(30* ticks)
404: 0x0CFD [0x4E] SET_ENTITY_HIDE_FLAG: Show Unnamed NPC (ID: 17855085/0x0110726D)
405: 0x0D03 [0x59] UPDATE_ENTITY_DATA: Unnamed NPC (ID: 17855085/0x0110726D)->Render.Flags0 |= 0x200000
406: 0x0D0A [0xBA] SET_ENTITY_POSITION(entity_id=Unnamed NPC (ID: 17855085/0x0110726D), pos_x=167.000*, pos_z=172.000*, pos_y=1.350*, direction=89.9°*)
407: 0x0D17 [0x59] UPDATE_ENTITY_DATA: Unnamed NPC (ID: 17855059/0x01107253)->Render.Flags0 &= ~0x200000
408: 0x0D1E [0x4E] SET_ENTITY_HIDE_FLAG: Hide Unnamed NPC (ID: 17855059/0x01107253)
409: 0x0D24 [0x27] REQ_SET(priority=0x10, entity_id=Unnamed NPC (ID: 17855085/0x0110726D), tag_num=0x03)
410: 0x0D2B [0x7C] Midras (ID: 17855076/0x01107264)->Render.Flags2 |= 0x00
411: 0x0D31 [0x2B] Midras (ID: 17855076/0x01107264) [8435*]:
    → "Yikes!"
412: 0x0D38 [0x23] WAIT_FOR_DIALOG_INTERACTION
413: 0x0D39 [0x1C] WAIT(90* ticks)
414: 0x0D3C [0x7C] Midras (ID: 17855076/0x01107264)->Render.Flags2 |= 0x01
415: 0x0D42 [0x27] REQ_SET(priority=0x10, entity_id=Leafkin (ID: 17855077/0x01107265), tag_num=0x0C)
416: 0x0D49 [0x5C] MUSIC_CONTROL: Set Idle (Day) music to song 57*
417: 0x0D4D [0x5C] MUSIC_CONTROL: Set Idle (Night) music to song 57*
418: 0x0D51 [0x9A] WAIT_MUSIC_SERVER()
419: 0x0D52 [0x52] END_LOAD_SCHEDULER: End scheduler "s019" with entities [EventEntity, EventEntity], work=805*
420: 0x0D61 [0x45] LOAD_SCHEDULED_TASK: Load scheduler "s020" with entities [EventEntity, EventEntity], work=[805*, 0*]
421: 0x0D72 [0x1C] WAIT(120* ticks)
422: 0x0D75 [0x27] REQ_SET(priority=0x10, entity_id=Unnamed NPC (ID: 17855085/0x0110726D), tag_num=0x04)
423: 0x0D7C [0x1C] WAIT(60* ticks)
424: 0x0D7F [0xC4] SCHEDULE_MAGIC_CASTING_ALT (arg=18): Leafkin (ID: 17855077/0x01107265) casts magic 2162* on Unnamed NPC (ID: 17855085/0x0110726D)
425: 0x0D8B [0x1C] WAIT(45* ticks)
426: 0x0D8E [0x5B] LOAD_EXT_SCHEDULER: Load scheduler "atk0" with entities [Unnamed NPC (ID: 17855085/0x0110726D), EventEntity], work=3504*
427: 0x0D9D [0x1C] WAIT(30* ticks)
428: 0x0DA0 [0x45] LOAD_SCHEDULED_TASK: Load scheduler "boff" with entities [EventEntity, EventEntity], work=[805*, 0*]
429: 0x0DB1 [0x52] END_LOAD_SCHEDULER: End scheduler "s020" with entities [EventEntity, EventEntity], work=805*
430: 0x0DC0 [0x45] LOAD_SCHEDULED_TASK: Load scheduler "s021" with entities [EventEntity, EventEntity], work=[805*, 0*]
431: 0x0DD1 [0x1C] WAIT(90* ticks)
432: 0x0DD4 [0x6B] STOP_AND_IDLE: Midras (ID: 17855076/0x01107264) stops current action and resets to idle (animation="idl0")
433: 0x0DDD [0xBA] SET_ENTITY_POSITION(entity_id=Midras (ID: 17855076/0x01107264), pos_x=167.000*, pos_z=161.000*, pos_y=-0.190*, direction=89.9°*)
434: 0x0DEA [0x4A] Midras (ID: 17855076/0x01107264) looks at Leafkin (ID: 17855077/0x01107265)
435: 0x0DF3 [0x7B] Midras (ID: 17855076/0x01107264) stops talking
436: 0x0DF8 [0x2C] CREATE_SCHEDULER_TASK: Create scheduler "dead" with entities [Unnamed NPC (ID: 17855085/0x0110726D), Unnamed NPC (ID: 17855085/0x0110726D)]
437: 0x0E05 [0x1C] WAIT(240* ticks)
438: 0x0E08 [0x6C] FADE_ENTITY_COLOR(entity_id=Unnamed NPC (ID: 17855085/0x0110726D), end_alpha=0*, fade_time=180*)
439: 0x0E11 [0x5C] MUSIC_CONTROL: Set Idle (Day) music to song 61*
440: 0x0E15 [0x5C] MUSIC_CONTROL: Set Idle (Night) music to song 61*
441: 0x0E19 [0x9A] WAIT_MUSIC_SERVER()
442: 0x0E1A [0x27] REQ_SET(priority=0x10, entity_id=Leafkin (ID: 17855077/0x01107265), tag_num=0x0D)
443: 0x0E21 [0x52] END_LOAD_SCHEDULER: End scheduler "s021" with entities [EventEntity, EventEntity], work=805*
444: 0x0E30 [0x45] LOAD_SCHEDULED_TASK: Load scheduler "s022" with entities [EventEntity, EventEntity], work=[805*, 0*]
445: 0x0E41 [0x27] REQ_SET(priority=0x10, entity_id=Unnamed NPC (ID: 17855085/0x0110726D), tag_num=0x05)
446: 0x0E48 [0x4E] SET_ENTITY_HIDE_FLAG: Hide Unnamed NPC (ID: 17855085/0x0110726D)
447: 0x0E4E [0x7C] Midras (ID: 17855076/0x01107264)->Render.Flags2 |= 0x00
448: 0x0E54 [0x2B] Midras (ID: 17855076/0x01107264) [8436*]:
    → "(That's what I get for focusing too much on the locket. Well, that's Yorcia Weald for you...)"
449: 0x0E5B [0x23] WAIT_FOR_DIALOG_INTERACTION
450: 0x0E5C [0x2B] Midras (ID: 17855076/0x01107264) [8437*]:
    → "(Thank goodness for Ygnas, or else I might have been Hume tartare.)"
451: 0x0E63 [0x23] WAIT_FOR_DIALOG_INTERACTION
452: 0x0E64 [0x7C] Midras (ID: 17855076/0x01107264)->Render.Flags2 |= 0x01
453: 0x0E6A [0x1C] WAIT(120* ticks)
454: 0x0E6D [0x52] END_LOAD_SCHEDULER: End scheduler "s022" with entities [EventEntity, EventEntity], work=805*
455: 0x0E7C [0x45] LOAD_SCHEDULED_TASK: Load scheduler "s023" with entities [EventEntity, EventEntity], work=[805*, 0*]
456: 0x0E8D [0x6E] Midras (ID: 17855076/0x01107264) uses emote 6*
457: 0x0E94 [0x99] Wait for Midras (ID: 17855076/0x01107264) animation to complete
458: 0x0E99 [0x2B] Midras (ID: 17855076/0x01107264) [8438*]:
    → "You've bested me. I can admit it."
459: 0x0EA0 [0x1C] WAIT(60* ticks)
460: 0x0EA3 [0x4A] Leafkin (ID: 17855077/0x01107265) looks at Midras (ID: 17855076/0x01107264)
461: 0x0EAC [0x1C] WAIT(60* ticks)
462: 0x0EAF [0x23] WAIT_FOR_DIALOG_INTERACTION
463: 0x0EB0 [0x66] LOAD_EXT_SCHEDULER_MAIN: Load scheduler "tlk0" with entities [Midras (ID: 17855076/0x01107264), Midras (ID: 17855076/0x01107264)], work=149*
464: 0x0EBF [0x2B] Midras (ID: 17855076/0x01107264) [8439*]:
    → "But I can hold my head high, because I didn't back down and accomplished what I came here to do."
465: 0x0EC6 [0x1C] WAIT(120* ticks)
466: 0x0EC9 [0x23] WAIT_FOR_DIALOG_INTERACTION
467: 0x0ECA [0x5B] LOAD_EXT_SCHEDULER: Load scheduler "thd0" with entities [Midras (ID: 17855076/0x01107264), Midras (ID: 17855076/0x01107264)], work=2388*
468: 0x0ED9 [0x2B] Midras (ID: 17855076/0x01107264) [8440*]:
    → "But one day, I swear--I'll get it back. You'll let me do that much, right?"
469: 0x0EE0 [0x1C] WAIT(120* ticks)
470: 0x0EE3 [0x23] WAIT_FOR_DIALOG_INTERACTION
471: 0x0EE4 [0x5B] LOAD_EXT_SCHEDULER: Load scheduler "thd1" with entities [Midras (ID: 17855076/0x01107264), Midras (ID: 17855076/0x01107264)], work=2388*
472: 0x0EF3 [0x5B] LOAD_EXT_SCHEDULER: Load scheduler "tla0" with entities [Leafkin (ID: 17855077/0x01107265), Leafkin (ID: 17855077/0x01107265)], work=3319*
473: 0x0F02 [0x1C] WAIT(30* ticks)
474: 0x0F05 [0x45] LOAD_SCHEDULED_TASK: Load scheduler "8001" with entities [LocalPlayer, LocalPlayer], work=[805*, 0*]
475: 0x0F16 [0x1C] WAIT(90* ticks)
476: 0x0F19 [0x5B] LOAD_EXT_SCHEDULER: Load scheduler "tla1" with entities [Leafkin (ID: 17855077/0x01107265), Leafkin (ID: 17855077/0x01107265)], work=3319*
477: 0x0F28 [0x1C] WAIT(60* ticks)
478: 0x0F2B [0x7B] Leafkin (ID: 17855077/0x01107265) stops talking
479: 0x0F30 [0x27] REQ_SET(priority=0x10, entity_id=Leafkin (ID: 17855077/0x01107265), tag_num=0x0F)
480: 0x0F37 [0x1C] WAIT(15* ticks)
481: 0x0F3A [0x52] END_LOAD_SCHEDULER: End scheduler "s023" with entities [EventEntity, EventEntity], work=805*
482: 0x0F49 [0x45] LOAD_SCHEDULED_TASK: Load scheduler "s024" with entities [EventEntity, EventEntity], work=[805*, 0*]
483: 0x0F5A [0x1C] WAIT(300* ticks)
484: 0x0F5D [0x7B] Midras (ID: 17855076/0x01107264) stops talking
485: 0x0F62 [0x52] END_LOAD_SCHEDULER: End scheduler "s024" with entities [EventEntity, EventEntity], work=805*
486: 0x0F71 [0x45] LOAD_SCHEDULED_TASK: Load scheduler "s025" with entities [EventEntity, EventEntity], work=[805*, 0*]
487: 0x0F82 [0x6E] Midras (ID: 17855076/0x01107264) uses emote 26*
488: 0x0F89 [0x99] Wait for Midras (ID: 17855076/0x01107264) animation to complete
489: 0x0F8E [0x2B] Midras (ID: 17855076/0x01107264) [8441*]:
    → "And now I'm absolutely filthy. This is just great."
490: 0x0F95 [0x1C] WAIT(270* ticks)
491: 0x0F98 [0x23] WAIT_FOR_DIALOG_INTERACTION
492: 0x0F99 [0x52] END_LOAD_SCHEDULER: End scheduler "s025" with entities [EventEntity, EventEntity], work=805*
493: 0x0FA8 [0x45] LOAD_SCHEDULED_TASK: Load scheduler "s026" with entities [EventEntity, EventEntity], work=[805*, 0*]
494: 0x0FB9 [0x66] LOAD_EXT_SCHEDULER_MAIN: Load scheduler "thk0" with entities [Midras (ID: 17855076/0x01107264), Midras (ID: 17855076/0x01107264)], work=149*
495: 0x0FC8 [0x2B] Midras (ID: 17855076/0x01107264) [8442*]:
    → "Hang on--I remember what I was trying to study: the cleansing properties of the Ergon Loci."
496: 0x0FCF [0x23] WAIT_FOR_DIALOG_INTERACTION
497: 0x0FD0 [0x2B] Midras (ID: 17855076/0x01107264) [8443*]:
    → "Perhaps...perhaps we can use them to improve the flavor of the Arboretum's vegetables!"
498: 0x0FD7 [0x1C] WAIT(120* ticks)
499: 0x0FDA [0x23] WAIT_FOR_DIALOG_INTERACTION
500: 0x0FDB [0x66] LOAD_EXT_SCHEDULER_MAIN: Load scheduler "thk1" with entities [Midras (ID: 17855076/0x01107264), Midras (ID: 17855076/0x01107264)], work=149*
501: 0x0FEA [0x1C] WAIT(60* ticks)
502: 0x0FED [0x6E] Midras (ID: 17855076/0x01107264) uses emote 7*
503: 0x0FF4 [0x99] Wait for Midras (ID: 17855076/0x01107264) animation to complete
504: 0x0FF9 [0x2B] Midras (ID: 17855076/0x01107264) [8444*]:
    → "I gotta go back and share this with Amchuchu."
505: 0x1000 [0x1C] WAIT(120* ticks)
506: 0x1003 [0x23] WAIT_FOR_DIALOG_INTERACTION
507: 0x1004 [0x52] END_LOAD_SCHEDULER: End scheduler "s026" with entities [EventEntity, EventEntity], work=805*
508: 0x1013 [0x45] LOAD_SCHEDULED_TASK: Load scheduler "s027" with entities [EventEntity, EventEntity], work=[805*, 0*]
509: 0x1024 [0xBA] SET_ENTITY_POSITION(entity_id=Unnamed NPC (ID: 17855082/0x0110726A), pos_x=167.000*, pos_z=159.500*, pos_y=-0.190*, direction=377476129.3°*)
510: 0x1031 [0x4A] Unnamed NPC (ID: 17855082/0x0110726A) looks at Midras (ID: 17855076/0x01107264)
511: 0x103A [0xBA] SET_ENTITY_POSITION(entity_id=Unnamed NPC (ID: 17855083/0x0110726B), pos_x=165.500*, pos_z=160.000*, pos_y=-0.090*, direction=377476129.3°*)
512: 0x1047 [0x4A] Unnamed NPC (ID: 17855083/0x0110726B) looks at Midras (ID: 17855076/0x01107264)
513: 0x1050 [0xBA] SET_ENTITY_POSITION(entity_id=Unnamed NPC (ID: 17855084/0x0110726C), pos_x=168.500*, pos_z=160.000*, pos_y=-0.270*, direction=377476129.3°*)
514: 0x105D [0x4A] Unnamed NPC (ID: 17855084/0x0110726C) looks at Midras (ID: 17855076/0x01107264)
515: 0x1066 [0x5B] LOAD_EXT_SCHEDULER: Load scheduler "ori0" with entities [Unnamed NPC (ID: 17855082/0x0110726A), Unnamed NPC (ID: 17855082/0x0110726A)], work=3236*
516: 0x1075 [0x4E] SET_ENTITY_HIDE_FLAG: Show Unnamed NPC (ID: 17855082/0x0110726A)
517: 0x107B [0x2B] Unnamed NPC (ID: 17855082/0x0110726A) [8445*]:
    → "(What an odd helmet.)"
518: 0x1082 [0x23] WAIT_FOR_DIALOG_INTERACTION
519: 0x1083 [0x1C] WAIT(30* ticks)
520: 0x1086 [0x5B] LOAD_EXT_SCHEDULER: Load scheduler "ori0" with entities [Unnamed NPC (ID: 17855083/0x0110726B), Unnamed NPC (ID: 17855083/0x0110726B)], work=3236*
521: 0x1095 [0x4E] SET_ENTITY_HIDE_FLAG: Show Unnamed NPC (ID: 17855083/0x0110726B)
522: 0x109B [0x2B] Unnamed NPC (ID: 17855083/0x0110726B) [8446*]:
    → "(It talks! It talks!)"
523: 0x10A2 [0x23] WAIT_FOR_DIALOG_INTERACTION
524: 0x10A3 [0x1C] WAIT(30* ticks)
525: 0x10A6 [0x5B] LOAD_EXT_SCHEDULER: Load scheduler "ori0" with entities [Unnamed NPC (ID: 17855084/0x0110726C), Unnamed NPC (ID: 17855084/0x0110726C)], work=3236*
526: 0x10B5 [0x4E] SET_ENTITY_HIDE_FLAG: Show Unnamed NPC (ID: 17855084/0x0110726C)
527: 0x10BB [0x2B] Unnamed NPC (ID: 17855084/0x0110726C) [8447*]:
    → "(I feel it would behoove us to take possession of such an odd contraption.)"
528: 0x10C2 [0x23] WAIT_FOR_DIALOG_INTERACTION
529: 0x10C3 [0x1C] WAIT(60* ticks)
530: 0x10C6 [0x52] END_LOAD_SCHEDULER: End scheduler "s027" with entities [EventEntity, EventEntity], work=805*
531: 0x10D5 [0x45] LOAD_SCHEDULED_TASK: Load scheduler "s028" with entities [EventEntity, EventEntity], work=[805*, 0*]
532: 0x10E6 [0x6E] Midras (ID: 17855076/0x01107264) uses emote 29*
533: 0x10ED [0x99] Wait for Midras (ID: 17855076/0x01107264) animation to complete
534: 0x10F2 [0x2B] Midras (ID: 17855076/0x01107264) [8448*]:
    → "Hm? What is...?"
535: 0x10F9 [0x1C] WAIT(180* ticks)
536: 0x10FC [0x23] WAIT_FOR_DIALOG_INTERACTION
537: 0x10FD [0x4A] Midras (ID: 17855076/0x01107264) looks at Unnamed NPC (ID: 17855082/0x0110726A)
538: 0x1106 [0x6F] WAIT_FRAME_DELAY: Yield until WaitTime reaches zero
539: 0x1107 [0x76] CHECK_ENTITY_RENDER_FLAGS: Wait until Midras (ID: 17855076/0x01107264) Render.Flags0 and Render.Flags3 conditions are met
540: 0x110C [0x1C] WAIT(60* ticks)
541: 0x110F [0x5B] LOAD_EXT_SCHEDULER: Load scheduler "arsa" with entities [Midras (ID: 17855076/0x01107264), Midras (ID: 17855076/0x01107264)], work=1475*
542: 0x111E [0x2B] Midras (ID: 17855076/0x01107264) [8449*]:
    → "Ack!"
543: 0x1125 [0x1C] WAIT(120* ticks)
544: 0x1128 [0x23] WAIT_FOR_DIALOG_INTERACTION
545: 0x1129 [0x5B] LOAD_EXT_SCHEDULER: Load scheduler "kom0" with entities [Unnamed NPC (ID: 17855082/0x0110726A), Unnamed NPC (ID: 17855082/0x0110726A)], work=3844*
546: 0x1138 [0x5B] LOAD_EXT_SCHEDULER: Load scheduler "kom0" with entities [Unnamed NPC (ID: 17855083/0x0110726B), Unnamed NPC (ID: 17855083/0x0110726B)], work=3844*
547: 0x1147 [0x5B] LOAD_EXT_SCHEDULER: Load scheduler "kom0" with entities [Unnamed NPC (ID: 17855084/0x0110726C), Unnamed NPC (ID: 17855084/0x0110726C)], work=3844*
548: 0x1156 [0x1C] WAIT(30* ticks)
549: 0x1159 [0x27] REQ_SET(priority=0x10, entity_id=Midras (ID: 17855076/0x01107264), tag_num=0x26)
550: 0x1160 [0x1C] WAIT(30* ticks)
551: 0x1163 [0x52] END_LOAD_SCHEDULER: End scheduler "s028" with entities [EventEntity, EventEntity], work=805*
552: 0x1172 [0x45] LOAD_SCHEDULED_TASK: Load scheduler "s029" with entities [EventEntity, EventEntity], work=[805*, 0*]
553: 0x1183 [0x1C] WAIT(60* ticks)
554: 0x1186 [0x2B] Midras (ID: 17855076/0x01107264) [8450*]:
    → "I thought the leafkin were creepy, but those things...those things... Sometimes I wonder if this continent is too much for me."
555: 0x118D [0x23] WAIT_FOR_DIALOG_INTERACTION
556: 0x118E [0x03] ExtData[1]->WorkLocal[5] = 9*
557: 0x1193 [0x02] IF !(LocalPlayer->Race == 1*) GOTO 0x119E
558: 0x119B [0x01] GOTO 0x11F3
559: 0x119E [0x02] IF !(LocalPlayer->Race == 2*) GOTO 0x11AE
560: 0x11A6 [0x07] ExtData[1]->WorkLocal[5] += 10*
561: 0x11AB [0x01] GOTO 0x11F3
562: 0x11AE [0x02] IF !(LocalPlayer->Race == 3*) GOTO 0x11BE
563: 0x11B6 [0x07] ExtData[1]->WorkLocal[5] += 20*
564: 0x11BB [0x01] GOTO 0x11F3
565: 0x11BE [0x02] IF !(LocalPlayer->Race == 4*) GOTO 0x11CE
566: 0x11C6 [0x07] ExtData[1]->WorkLocal[5] += 30*
567: 0x11CB [0x01] GOTO 0x11F3
568: 0x11CE [0x02] IF !(LocalPlayer->Race == 7*) GOTO 0x11DE
569: 0x11D6 [0x07] ExtData[1]->WorkLocal[5] += 50*
570: 0x11DB [0x01] GOTO 0x11F3
571: 0x11DE [0x02] IF !(LocalPlayer->Race == 8*) GOTO 0x11EE
572: 0x11E6 [0x07] ExtData[1]->WorkLocal[5] += 60*
573: 0x11EB [0x01] GOTO 0x11F3
574: 0x11EE [0x07] ExtData[1]->WorkLocal[5] += 40*

SUBROUTINE_11F3:
575: 0x11F3 [0x66] LOAD_EXT_SCHEDULER_MAIN: Load scheduler "sha1" with entities [LocalPlayer, LocalPlayer], work=ExtData[1]->WorkLocal[5]
576: 0x1202 [0x1C] WAIT(120* ticks)
577: 0x1205 [0x4A] LocalPlayer looks at Midras (ID: 17855076/0x01107264)
578: 0x120E [0x1C] WAIT(60* ticks)
579: 0x1211 [0x4A] LocalPlayer looks at Midras (ID: 17855076/0x01107264)
580: 0x121A [0x1C] WAIT(240* ticks)

SUBROUTINE_121D:
581: 0x121D [0x45] LOAD_SCHEDULED_TASK: Load scheduler "fdo1" with entities [LocalPlayer, LocalPlayer], work=[200*, 0*]
582: 0x122E [0x55] WAIT_LOAD_SCHEDULER: Wait for scheduler "fdo1" with entities [LocalPlayer, LocalPlayer], work=200*
583: 0x123D [0x52] END_LOAD_SCHEDULER: End scheduler "s015" with entities [EventEntity, EventEntity], work=805*
584: 0x124C [0x52] END_LOAD_SCHEDULER: End scheduler "s029" with entities [EventEntity, EventEntity], work=805*
585: 0x125B [0x5C] MUSIC_CONTROL: Set Idle (Day) music to song 61*
586: 0x125F [0x5C] MUSIC_CONTROL: Set Idle (Night) music to song 61*
587: 0x1263 [0x9A] WAIT_MUSIC_SERVER()
588: 0x1264 [0x6B] STOP_AND_IDLE: LocalPlayer stops current action and resets to idle (animation="idl0")
589: 0x126D [0x1C] WAIT(15* ticks)
590: 0x1270 [0xAB] EventEntity->DespawnValue = 0* // Set despawn value
591: 0x1274 [0x1C] WAIT(1* ticks)
592: 0x1277 [0x46] CAMERA_CONTROL: Restore default settings
593: 0x1279 [0x45] LOAD_SCHEDULED_TASK: Load scheduler "fdi2" with entities [LocalPlayer, LocalPlayer], work=[200*, 0*]
594: 0x128A [0x21] END_EVENT
595: 0x128B [0x00] END_REQSTACK()
```

#### Data or dead code:

```
# Dead code (unreachable instructions):
     0x02EC [0x01] GOTO 0x031F
     0x031C [0x01] GOTO 0x031F
# Dead code (unreachable instructions):
     0x0AAE [0x01] GOTO 0x0B8C
     0x0B34 [0x01] GOTO 0x0B8C
```

### Event 130

#### Metadata

| Field        | Value      |
|--------------|------------|
| Entrypoint   | 0x128C     |
| Data Size    | 5094 bytes |
| Instructions | 650        |

```
      00 01 02 03 04 05 06 07  08 09 0A 0B 0C 0D 0E 0F
      -- -- -- -- -- -- -- --  -- -- -- -- -- -- -- --
1280:                                      42 45 00 80              BE..
1290: F0 FF FF 7F F0 FF FF 7F  66 64 6F 31 01 80 55 00  ........fdo1..U.
12A0: 80 F0 FF FF 7F F0 FF FF  7F 66 64 6F 31 46 01 38  .........fdo1F.8
12B0: 02 80 2F 00 3A 72 10 01  2F 00 68 72 10 01 2F 00  ../.:r../.hr../.
12C0: 6A 72 10 01 2F 00 6B 72  10 01 4E 00 3A 72 10 01  jr../.kr..N.:r..
12D0: 4E 01 53 72 10 01 4E 01  54 72 10 01 4E 01 55 72  N.Sr..N.Tr..N.Ur
12E0: 10 01 4E 01 56 72 10 01  4E 01 57 72 10 01 4E 01  ..N.Vr..N.Wr..N.
12F0: 58 72 10 01 4E 01 59 72  10 01 4E 01 5D 72 10 01  Xr..N.Yr..N.]r..
1300: 4E 01 F0 FF FF 7F 94 01  3A 72 10 01 94 01 68 72  N.......:r....hr
1310: 10 01 94 01 6A 72 10 01  94 01 6B 72 10 01 94 01  ....jr....kr....
1320: 53 72 10 01 94 01 54 72  10 01 94 01 55 72 10 01  Sr....Tr....Ur..
1330: 94 01 56 72 10 01 94 01  57 72 10 01 94 01 58 72  ..Vr....Wr....Xr
1340: 10 01 94 01 59 72 10 01  94 01 5D 72 10 01 94 01  ....Yr....]r....
1350: F0 FF FF 7F BA 3A 72 10  01 73 80 74 80 75 80 76  .....:r..s.t.u.v
1360: 80 BA 68 72 10 01 77 80  78 80 79 80 76 80 BA 6A  ..hr..w.x.y.v..j
1370: 72 10 01 7A 80 7B 80 7C  80 7D 80 BA 6B 72 10 01  r..z.{.|.}..kr..
1380: 7E 80 7F 80 80 80 81 80  BA F0 FF FF 7F 82 80 83  ~...............
1390: 80 84 80 85 80 80 3A 72  10 01 80 68 72 10 01 80  ......:r...hr...
13A0: 6A 72 10 01 80 6B 72 10  01 80 F0 FF FF 7F 1C 1D  jr...kr.........
13B0: 80 45 86 80 F8 FF FF 7F  F8 FF FF 7F 73 30 30 30  .E..........s000
13C0: 01 80 45 00 80 F0 FF FF  7F F0 FF FF 7F 66 64 69  ..E..........fdi
13D0: 31 01 80 27 10 3A 72 10  01 11 2A 10 3A 72 10 01  1..'.:r...*.:r..
13E0: 1C 1D 80 66 20 80 3A 72  10 01 3A 72 10 01 74 68  ...f .:r..:r..th
13F0: 6B 30 1C 19 80 52 86 80  F8 FF FF 7F F8 FF FF 7F  k0...R..........
1400: 73 30 30 30 45 86 80 F8  FF FF 7F F8 FF FF 7F 73  s000E..........s
1410: 30 30 31 01 80 2B 3A 72  10 01 87 80 23 2B 3A 72  001..+:r....#+:r
1420: 10 01 88 80 1C 22 80 23  66 20 80 3A 72 10 01 3A  .....".#f .:r..:
1430: 72 10 01 74 68 6B 31 1C  1D 80 4A 68 72 10 01 3A  r..thk1...Jhr..:
1440: 72 10 01 B4 00 00 00 3F  3F 3F 00 00 00 00 00 00  r......???......
1450: 00 00 00 00 00 00 00 B5  00 00 00 B0 00 F8 FF FF  ................
1460: 7F 68 72 10 01 89 80 1C  23 80 B4 00 00 00 00 00  .hr.....#.......
1470: 00 00 00 00 00 00 00 00  00 00 00 00 00 00 B5 00  ................
1480: 00 00 4A 3A 72 10 01 68  72 10 01 2B 3A 72 10 01  ..J:r..hr..+:r..
1490: 8A 80 23 1C 19 80 52 86  80 F8 FF FF 7F F8 FF FF  ..#...R.........
14A0: 7F 73 30 30 31 45 86 80  F8 FF FF 7F F8 FF FF 7F  .s001E..........
14B0: 73 30 30 32 01 80 6F 76  3A 72 10 01 4E 00 68 72  s002..ov:r..N.hr
14C0: 10 01 9F 8B 80 68 72 10  01 68 72 10 01 6D 61 69  .....hr..hr..mai
14D0: 6E 01 80 1C 23 80 6E 3A  72 10 01 42 80 99 3A 72  n...#.n:r..B..:r
14E0: 10 01 2B 3A 72 10 01 8C  80 1C 40 80 23 52 86 80  ..+:r.....@.#R..
14F0: F8 FF FF 7F F8 FF FF 7F  73 30 30 32 45 86 80 F8  ........s002E...
1500: FF FF 7F F8 FF FF 7F 73  30 30 33 01 80 2B 68 72  .......s003..+hr
1510: 10 01 8D 80 23 1C 1D 80  2B 68 72 10 01 8E 80 23  ....#...+hr....#
1520: 1C 1D 80 52 86 80 F8 FF  FF 7F F8 FF FF 7F 73 30  ...R..........s0
1530: 30 33 45 86 80 F8 FF FF  7F F8 FF FF 7F 73 30 30  03E..........s00
1540: 34 01 80 6E 3A 72 10 01  6D 80 99 3A 72 10 01 2B  4..n:r..m..:r..+
1550: 3A 72 10 01 8F 80 1C 25  80 23 2B 68 72 10 01 90  :r.....%.#+hr...
1560: 80 23 1C 23 80 52 86 80  F8 FF FF 7F F8 FF FF 7F  .#.#.R..........
1570: 73 30 30 34 45 86 80 F8  FF FF 7F F8 FF FF 7F 73  s004E..........s
1580: 30 30 35 01 80 6E 3A 72  10 01 29 80 99 3A 72 10  005..n:r..)..:r.
1590: 01 2B 3A 72 10 01 91 80  1C 22 80 23 66 13 80 3A  .+:r.....".#f..:
15A0: 72 10 01 3A 72 10 01 74  6C 6B 30 2B 3A 72 10 01  r..:r..tlk0+:r..
15B0: 92 80 1C 22 80 23 66 13  80 3A 72 10 01 3A 72 10  ...".#f..:r..:r.
15C0: 01 74 6C 6B 31 1C 19 80  52 86 80 F8 FF FF 7F F8  .tlk1...R.......
15D0: FF FF 7F 73 30 30 35 45  86 80 F8 FF FF 7F F8 FF  ...s005E........
15E0: FF 7F 73 30 30 36 01 80  66 2F 80 3A 72 10 01 3A  ..s006..f/.:r..:
15F0: 72 10 01 6B 69 7A 30 1C  1D 80 66 2F 80 3A 72 10  r..kiz0...f/.:r.
1600: 01 3A 72 10 01 6B 69 7A  31 2B 3A 72 10 01 93 80  .:r..kiz1+:r....
1610: 1C 22 80 23 66 13 80 3A  72 10 01 3A 72 10 01 74  .".#f..:r..:r..t
1620: 77 61 31 1C 1D 80 6E 3A  72 10 01 0D 80 99 3A 72  wa1...n:r.....:r
1630: 10 01 2B 3A 72 10 01 94  80 1C 40 80 23 2B 68 72  ..+:r.....@.#+hr
1640: 10 01 95 80 23 1C 1D 80  2B 68 72 10 01 96 80 23  ....#...+hr....#
1650: 1C 1D 80 C4 01 01 80 68  72 10 01 3A 72 10 01 1C  .......hr..:r...
1660: 19 80 5B 5C 80 3A 72 10  01 3A 72 10 01 7A 73 61  ..[\.:r..:r..zsa
1670: 30 52 86 80 F8 FF FF 7F  F8 FF FF 7F 73 30 30 36  0R..........s006
1680: 45 86 80 F8 FF FF 7F F8  FF FF 7F 73 30 30 37 01  E..........s007.
1690: 80 4E 00 6B 72 10 01 2C  6B 72 10 01 6B 72 10 01  .N.kr..,kr..kr..
16A0: 69 6E 69 74 2B 3A 72 10  01 97 80 23 1C 19 80 73  init+:r....#...s
16B0: 98 80 6B 72 10 01 68 72  10 01 1C 40 80 2B 68 72  ..kr..hr...@.+hr
16C0: 10 01 99 80 23 2B 68 72  10 01 9A 80 23 2B 68 72  ....#+hr....#+hr
16D0: 10 01 9B 80 1C 1D 80 2C  68 72 10 01 68 72 10 01  .......,hr..hr..
16E0: 64 65 61 64 1C 1D 80 23  1C 1D 80 6B 69 64 6C 30  dead...#...kidl0
16F0: 3A 72 10 01 27 10 3A 72  10 01 12 52 86 80 F8 FF  :r..'.:r...R....
1700: FF 7F F8 FF FF 7F 73 30  30 37 45 86 80 F8 FF FF  ......s007E.....
1710: 7F F8 FF FF 7F 73 30 30  38 01 80 2A 10 3A 72 10  .....s008..*.:r.
1720: 01 66 13 80 3A 72 10 01  3A 72 10 01 73 68 61 30  .f..:r..:r..sha0
1730: 2B 3A 72 10 01 9C 80 1C  1D 80 66 13 80 3A 72 10  +:r.......f..:r.
1740: 01 3A 72 10 01 73 69 72  30 1C 1D 80 23 52 86 80  .:r..sir0...#R..
1750: F8 FF FF 7F F8 FF FF 7F  73 30 30 38 45 86 80 F8  ........s008E...
1760: FF FF 7F F8 FF FF 7F 73  30 30 39 01 80 27 10 6B  .......s009..'.k
1770: 72 10 01 04 2A 10 6B 72  10 01 1C 9D 80 4A 6B 72  r...*.kr.....Jkr
1780: 10 01 3A 72 10 01 6F 76  6B 72 10 01 5B 9E 80 6B  ..:r..ovkr..[..k
1790: 72 10 01 6B 72 10 01 62  74 6C 30 1C 1D 80 5B 9E  r..kr..btl0...[.
17A0: 80 6B 72 10 01 6B 72 10  01 62 74 6B 30 2B 6B 72  .kr..kr..btk0+kr
17B0: 10 01 9F 80 1C 22 80 23  7B 3A 72 10 01 66 13 80  .....".#{:r..f..
17C0: 3A 72 10 01 3A 72 10 01  73 68 61 31 1C 22 80 4A  :r..:r..sha1.".J
17D0: 3A 72 10 01 6B 72 10 01  1C 27 80 52 86 80 F8 FF  :r..kr...'.R....
17E0: FF 7F F8 FF FF 7F 73 30  30 39 45 86 80 F8 FF FF  ......s009E.....
17F0: 7F F8 FF FF 7F 73 30 31  30 01 80 5B A0 80 6B 72  .....s010..[..kr
1800: 10 01 6B 72 10 01 62 74  61 30 2B 6B 72 10 01 A1  ..kr..bta0+kr...
1810: 80 1C 1D 80 9F A2 80 F8  FF FF 7F F8 FF FF 7F 73  ...............s
1820: 74 72 30 01 80 1C 40 80  9F A2 80 F8 FF FF 7F F8  tr0...@.........
1830: FF FF 7F 6B 69 6C 6C 01  80 23 5B A0 80 6B 72 10  ...kill..#[..kr.
1840: 01 6B 72 10 01 62 74 61  31 52 86 80 F8 FF FF 7F  .kr..bta1R......
1850: F8 FF FF 7F 73 30 31 30  45 86 80 F8 FF FF 7F F8  ....s010E.......
1860: FF FF 7F 73 30 31 31 01  80 6E 3A 72 10 01 42 80  ...s011..n:r..B.
1870: 99 3A 72 10 01 2B 3A 72  10 01 A3 80 1C 40 80 23  .:r..+:r.....@.#
1880: 7C 00 3A 72 10 01 6E 3A  72 10 01 6D 80 99 3A 72  |.:r..n:r..m..:r
1890: 10 01 2B 3A 72 10 01 A4  80 23 2B 3A 72 10 01 A5  ..+:r....#+:r...
18A0: 80 1C 22 80 23 7C 01 3A  72 10 01 4A 6A 72 10 01  ..".#|.:r..Jjr..
18B0: 6B 72 10 01 4E 00 6A 72  10 01 5C 00 54 80 5C 01  kr..N.jr..\.T.\.
18C0: 54 80 9A 27 10 6A 72 10  01 04 52 86 80 F8 FF FF  T..'.jr...R.....
18D0: 7F F8 FF FF 7F 73 30 31  31 45 86 80 F8 FF FF 7F  .....s011E......
18E0: F8 FF FF 7F 73 30 31 32  01 80 2A 10 6A 72 10 01  ....s012..*.jr..
18F0: C4 02 55 80 6A 72 10 01  6B 72 10 01 52 86 80 F8  ..U.jr..kr..R...
1900: FF FF 7F F8 FF FF 7F 73  30 31 32 45 86 80 F8 FF  .......s012E....
1910: FF 7F F8 FF FF 7F 73 30  31 33 01 80 1C 25 80 4A  ......s013...%.J
1920: 6B 72 10 01 6A 72 10 01  6F 76 6B 72 10 01 2B 6B  kr..jr..ovkr..+k
1930: 72 10 01 A6 80 23 1C 1D  80 5B A0 80 6B 72 10 01  r....#...[..kr..
1940: 6B 72 10 01 62 74 61 30  2B 6B 72 10 01 A7 80 1C  kr..bta0+kr.....
1950: 28 80 23 5B A0 80 6B 72  10 01 6B 72 10 01 62 74  (.#[..kr..kr..bt
1960: 61 31 27 10 6A 72 10 01  08 45 86 80 F8 FF FF 7F  a1'.jr...E......
1970: F8 FF FF 7F 62 6F 66 66  01 80 52 86 80 F8 FF FF  ....boff..R.....
1980: 7F F8 FF FF 7F 73 30 31  33 45 86 80 F8 FF FF 7F  .....s013E......
1990: F8 FF FF 7F 73 30 31 34  01 80 27 10 3A 72 10 01  ....s014..'.:r..
19A0: 13 1C 1D 80 27 10 6B 72  10 01 07 27 10 6B 72 10  ....'.kr...'.kr.
19B0: 01 05 2A 10 6A 72 10 01  27 10 6A 72 10 01 05 2A  ..*.jr..'.jr...*
19C0: 10 3A 72 10 01 1C 19 80  6E 3A 72 10 01 6D 80 99  .:r.....n:r..m..
19D0: 3A 72 10 01 1C A8 80 7A  00 6A 72 10 01 1C 1D 80  :r.....z.jr.....
19E0: 27 10 6A 72 10 01 09 7B  6A 72 10 01 1C 19 80 6B  '.jr...{jr.....k
19F0: 69 64 6C 30 6A 72 10 01  7A 00 6B 72 10 01 52 86  idl0jr..z.kr..R.
1A00: 80 F8 FF FF 7F F8 FF FF  7F 73 30 31 34 45 86 80  .........s014E..
1A10: F8 FF FF 7F F8 FF FF 7F  73 30 31 35 01 80 5B A9  ........s015..[.
1A20: 80 6A 72 10 01 6A 72 10  01 74 6C 6B 30 1C 19 80  .jr..jr..tlk0...
1A30: 45 86 80 F0 FF FF 7F F0  FF FF 7F 38 30 30 31 01  E..........8001.
1A40: 80 1C 23 80 5B A9 80 6A  72 10 01 6A 72 10 01 74  ..#.[..jr..jr..t
1A50: 6C 6B 31 4A 3A 72 10 01  6A 72 10 01 52 86 80 F8  lk1J:r..jr..R...
1A60: FF FF 7F F8 FF FF 7F 73  30 31 35 45 86 80 F8 FF  .......s015E....
1A70: FF 7F F8 FF FF 7F 73 30  31 36 01 80 6E 3A 72 10  ......s016..n:r.
1A80: 01 1A 80 99 3A 72 10 01  2B 3A 72 10 01 AA 80 1C  ....:r..+:r.....
1A90: 22 80 23 7B 3A 72 10 01  4A 3A 72 10 01 6B 72 10  ".#{:r..J:r..kr.
1AA0: 01 52 86 80 F8 FF FF 7F  F8 FF FF 7F 73 30 31 36  .R..........s016
1AB0: 45 86 80 F8 FF FF 7F F8  FF FF 7F 73 30 31 37 01  E..........s017.
1AC0: 80 C4 02 55 80 6A 72 10  01 6B 72 10 01 1C 19 80  ...U.jr..kr.....
1AD0: C4 02 AB 80 6B 72 10 01  F8 FF FF 7F 1C 40 80 52  ....kr.......@.R
1AE0: 86 80 F8 FF FF 7F F8 FF  FF 7F 73 30 31 37 45 86  ..........s017E.
1AF0: 80 F8 FF FF 7F F8 FF FF  7F 73 30 31 38 01 80 2B  .........s018..+
1B00: 3A 72 10 01 AC 80 23 1C  22 80 4A 6B 72 10 01 3A  :r....#.".Jkr..:
1B10: 72 10 01 7B 6B 72 10 01  6F 76 6B 72 10 01 73 42  r..{kr..ovkr..sB
1B20: 80 3A 72 10 01 6B 72 10  01 1C 19 80 5B AD 80 6B  .:r..kr.....[..k
1B30: 72 10 01 6B 72 10 01 6D  61 62 30 52 86 80 F8 FF  r..kr..mab0R....
1B40: FF 7F F8 FF FF 7F 73 30  31 38 45 86 80 F8 FF FF  ......s018E.....
1B50: 7F F8 FF FF 7F 73 30 31  39 01 80 1C 22 80 1C 1D  .....s019..."...
1B60: 80 2C 6B 72 10 01 6B 72  10 01 64 65 61 64 1C 22  .,kr..kr..dead."
1B70: 80 9F A2 80 F8 FF FF 7F  F8 FF FF 7F 73 74 72 30  ............str0
1B80: 01 80 1C 27 80 9F A2 80  F8 FF FF 7F F8 FF FF 7F  ...'............
1B90: 6B 69 6C 6C 01 80 1C 15  80 9F A2 80 F8 FF FF 7F  kill............
1BA0: F8 FF FF 7F 73 74 72 30  01 80 1C 27 80 9F A2 80  ....str0...'....
1BB0: F8 FF FF 7F F8 FF FF 7F  6B 69 6C 6C 01 80 1C 1D  ........kill....
1BC0: 80 52 86 80 F8 FF FF 7F  F8 FF FF 7F 73 30 31 39  .R..........s019
1BD0: 45 86 80 F8 FF FF 7F F8  FF FF 7F 73 30 32 30 01  E..........s020.
1BE0: 80 1C 19 80 27 10 6B 72  10 01 06 5B AE 80 3A 72  ....'.kr...[..:r
1BF0: 10 01 3A 72 10 01 7A 65  69 30 2B 3A 72 10 01 AF  ..:r..zei0+:r...
1C00: 80 1C 40 80 23 BA F0 FF  FF 7F B0 80 B1 80 B2 80  ..@.#...........
1C10: B3 80 4E 00 F0 FF FF 7F  27 10 F0 FF FF 7F 26 5C  ..N.....'.....&\
1C20: 00 48 80 5C 01 48 80 9A  52 86 80 F8 FF FF 7F F8  .H.\.H..R.......
1C30: FF FF 7F 73 30 32 30 45  86 80 F8 FF FF 7F F8 FF  ...s020E........
