# 17855092

## Common Data

| Field            | Value                  |
|------------------|------------------------|
| Zone             | Yorcia Weald (ID: 263) |
| Block Size       | 720 bytes              |
| Total Events     | 20                     |
| References Count | 39                     |

## List of Events

| Event ID                   | Entrypoint   |   Size |   Instructions |
|----------------------------|--------------|--------|----------------|
| [65535](#event-65535)      | 0x0000       |      1 |              1 |
| [121](#event-121)          | 0x0001       |     49 |              5 |
| [65535.1](#event-655351)   | 0x0032       |      7 |              3 |
| [65535.2](#event-655352)   | 0x0039       |      7 |              3 |
| [65535.3](#event-655353)   | 0x0040       |     16 |              4 |
| [65535.4](#event-655354)   | 0x0050       |     19 |              5 |
| [65535.5](#event-655355)   | 0x0063       |     19 |              5 |
| [126](#event-126)          | 0x0076       |     45 |              4 |
| [65535.6](#event-655356)   | 0x00A3       |     25 |              3 |
| [128](#event-128)          | 0x00BC       |     21 |              2 |
| [65535.7](#event-655357)   | 0x00D1       |     25 |              3 |
| [65535.8](#event-655358)   | 0x00EA       |     25 |              3 |
| [65535.9](#event-655359)   | 0x0103       |     25 |              3 |
| [65535.10](#event-6553510) | 0x011C       |     53 |              6 |
| [65535.11](#event-6553511) | 0x0151       |     16 |              5 |
| [65535.12](#event-6553512) | 0x0161       |     31 |              9 |
| [65535.13](#event-6553513) | 0x0180       |     19 |              3 |
| [65535.14](#event-6553514) | 0x0193       |     43 |              7 |
| [65535.15](#event-6553515) | 0x01BE       |     10 |              4 |
| [65535.16](#event-6553516) | 0x01C8       |     10 |              4 |

## DAT References (imed_data)

|   Index | Hex Value   |   Dec Value |
|---------|-------------|-------------|
|       0 | 0x0007      |           7 |
|       1 | 0x000A      |          10 |
|       2 | 0x0136      |         310 |
|       3 | 0x0012      |          18 |
|       4 | 0x0003      |           3 |
|       5 | 0x0000      |           0 |
|       6 | 0x0079      |         121 |
|       7 | 0x0001      |           1 |
|       8 | 0x0032      |          50 |
|       9 | 0x0028      |          40 |
|      10 | 0x355F1     |      218609 |
|      11 | 0xFFFEB2B8  |  4294881976 |
|      12 | 0x0679      |        1657 |
|      13 | 0x37F48     |      229192 |
|      14 | 0xFFFF1980  |  4294908288 |
|      15 | 0x00F2      |         242 |
|      16 | 0x0077      |         119 |
|      17 | 0x0073      |         115 |
|      18 | 0x0018      |          24 |
|      19 | 0x0006      |           6 |
|      20 | 0x0030      |          48 |
|      21 | 0x0152      |         338 |
|      22 | 0x0260      |         608 |
|      23 | 0x2AF4F     |      175951 |
|      24 | 0xFFFCBC9A  |  4294753434 |
|      25 | 0x0151      |         337 |
|      26 | 0x26401     |      156673 |
|      27 | 0xFFFCB164  |  4294750564 |
|      28 | 0x00A1      |         161 |
|      29 | 0x269D1     |      158161 |
|      30 | 0xFFFCB06A  |  4294750314 |
|      31 | 0xFFFFFFF9  |  4294967289 |
|      32 | 0x004A      |          74 |
|      33 | 0x0038      |          56 |
|      34 | 0xFFFE3AEE  |  4294851310 |
|      35 | 0xFFFF7A8C  |  4294933132 |
|      36 | 0xFFFFDDCA  |  4294958538 |
|      37 | 0x012C      |         300 |
|      38 | 0x0078      |         120 |

## Events

### Event 65535

#### Metadata

| Field        | Value   |
|--------------|---------|
| Entrypoint   | 0x0000  |
| Data Size    | 1 bytes |
| Instructions | 1       |

```
      00 01 02 03 04 05 06 07  08 09 0A 0B 0C 0D 0E 0F
      -- -- -- -- -- -- -- --  -- -- -- -- -- -- -- --
0000: 00                                                .               
```

#### Opcodes

```
  0: 0x0000 [0x00] END_REQSTACK()
```

### Event 121

#### Metadata

| Field        | Value    |
|--------------|----------|
| Entrypoint   | 0x0001   |
| Data Size    | 49 bytes |
| Instructions | 5        |

```
      00 01 02 03 04 05 06 07  08 09 0A 0B 0C 0D 0E 0F
      -- -- -- -- -- -- -- --  -- -- -- -- -- -- -- --
0000:    B6 0B 00 80 01 80 02  80 02 80 03 80 04 80 03   ...............
0010: 80 05 80 05 80 B6 0A 06  80 B4 13 00 00 52 61 6C  .............Ral
0020: 61 40 52 65 6E 61 79 65  00 00 00 00 00 B5 00 00  a@Renaye........
0030: 00 00                                             ..              
```

#### Opcodes

```
  0: 0x0001 [0xB6] ENTITY_APPEARANCE_HANDLER(case=Full entity look, race=7*, hair=10*, head=310*, body=310*, hands=18*, legs=3*, feet=18*, main=0*, sub=0*)
  1: 0x0015 [0xB6] ENTITY_APPEARANCE_HANDLER(case=Ranged, value=121*)
  2: 0x0019 [0xB4] UI_WINDOW_STRING_HANDLER(case=0x13 - Copy string and replace @ with space, work_offset=ExtData[1]->WorkLocal[0], string="Rala@Renaye")
  3: 0x002D [0xB5] SET_EVENT_ENTITY_NAME: Change EventEntity name to ExtData[1]->WorkLocal[0]
  4: 0x0031 [0x00] END_REQSTACK()
```

### Event 65535.1

#### Metadata

| Field        | Value   |
|--------------|---------|
| Entrypoint   | 0x0032  |
| Data Size    | 7 bytes |
| Instructions | 3       |

```
      00 01 02 03 04 05 06 07  08 09 0A 0B 0C 0D 0E 0F
      -- -- -- -- -- -- -- --  -- -- -- -- -- -- -- --
0030:       AB 03 AC 01 07 80  00                         .......       
```

#### Opcodes

```
  0: 0x0032 [0xAB] EventEntity->Render.Flags0 ^= 0x20000 // Toggle bit 17
  1: 0x0034 [0xAC] EventEntity->StatusEvent = 1*
  2: 0x0038 [0x00] END_REQSTACK()
```

### Event 65535.2

#### Metadata

| Field        | Value   |
|--------------|---------|
| Entrypoint   | 0x0039  |
| Data Size    | 7 bytes |
| Instructions | 3       |

```
      00 01 02 03 04 05 06 07  08 09 0A 0B 0C 0D 0E 0F
      -- -- -- -- -- -- -- --  -- -- -- -- -- -- -- --
0030:                             AC 01 05 80 AB 04 00           .......
```

#### Opcodes

```
  0: 0x0039 [0xAC] EventEntity->StatusEvent = 0*
  1: 0x003D [0xAB] EventEntity->Render.Flags0 |= 0x40000 // Set bit 18
  2: 0x003F [0x00] END_REQSTACK()
```

### Event 65535.3

#### Metadata

| Field        | Value    |
|--------------|----------|
| Entrypoint   | 0x0040   |
| Data Size    | 16 bytes |
| Instructions | 4        |

```
      00 01 02 03 04 05 06 07  08 09 0A 0B 0C 0D 0E 0F
      -- -- -- -- -- -- -- --  -- -- -- -- -- -- -- --
0040: 6E F8 FF FF 7F 00 80 99  F8 FF FF 7F 1C 08 80 00  n...............
```

#### Opcodes

```
  0: 0x0040 [0x6E] EventEntity uses emote 7*
  1: 0x0047 [0x99] Wait for EventEntity animation to complete
  2: 0x004C [0x1C] WAIT(50* ticks)
  3: 0x004F [0x00] END_REQSTACK()
```

### Event 65535.4

#### Metadata

| Field        | Value    |
|--------------|----------|
| Entrypoint   | 0x0050   |
| Data Size    | 19 bytes |
| Instructions | 5        |

```
      00 01 02 03 04 05 06 07  08 09 0A 0B 0C 0D 0E 0F
      -- -- -- -- -- -- -- --  -- -- -- -- -- -- -- --
0050: 32 09 80 1F 00 0A 80 0B  80 0C 80 1F 01 1E 79 72  2.............yr
0060: 10 01 00                                          ...             
```

#### Opcodes

```
  0: 0x0050 [0x32] ExtData[1]->MainSpeed = 40* * 0.1
  1: 0x0053 [0x1F] MOVE_ENTITY: EventEntity moves to X=218.609*, Z=-85.320*, Y=1.657*
  2: 0x005B [0x1F] MOVE_ENTITY: Update entity position (mode=1)
  3: 0x005D [0x1E] EventEntity looks at Unnamed NPC (ID: 17855097/0x01107279) and starts talking
  4: 0x0062 [0x00] END_REQSTACK()
```

### Event 65535.5

#### Metadata

| Field        | Value    |
|--------------|----------|
| Entrypoint   | 0x0063   |
| Data Size    | 19 bytes |
| Instructions | 5        |

```
      00 01 02 03 04 05 06 07  08 09 0A 0B 0C 0D 0E 0F
      -- -- -- -- -- -- -- --  -- -- -- -- -- -- -- --
0060:          32 09 80 1F 00  0D 80 0E 80 0F 80 1F 01     2............
0070: 1E 79 72 10 01 00                                 .yr...          
```

#### Opcodes

```
  0: 0x0063 [0x32] ExtData[1]->MainSpeed = 40* * 0.1
  1: 0x0066 [0x1F] MOVE_ENTITY: EventEntity moves to X=229.192*, Z=-59.008*, Y=0.242*
  2: 0x006E [0x1F] MOVE_ENTITY: Update entity position (mode=1)
  3: 0x0070 [0x1E] EventEntity looks at Unnamed NPC (ID: 17855097/0x01107279) and starts talking
  4: 0x0075 [0x00] END_REQSTACK()
```

### Event 126

#### Metadata

| Field        | Value    |
|--------------|----------|
| Entrypoint   | 0x0076   |
| Data Size    | 45 bytes |
| Instructions | 4        |

```
      00 01 02 03 04 05 06 07  08 09 0A 0B 0C 0D 0E 0F
      -- -- -- -- -- -- -- --  -- -- -- -- -- -- -- --
0070:                   B6 0B  07 80 00 80 10 80 11 80        ..........
0080: 05 80 12 80 11 80 05 80  05 80 B4 00 00 00 3F 3F  ..............??
0090: 3F 00 00 00 00 00 00 00  00 00 00 00 00 00 B5 00  ?...............
00A0: 00 00 00                                          ...             
```

#### Opcodes

```
  0: 0x0076 [0xB6] ENTITY_APPEARANCE_HANDLER(case=Full entity look, race=1*, hair=7*, head=119*, body=115*, hands=0*, legs=24*, feet=115*, main=0*, sub=0*)
  1: 0x008A [0xB4] UI_WINDOW_STRING_HANDLER(case=0x00 - Copy string from opcode, work_offset=ExtData[1]->WorkLocal[0], string="???")
  2: 0x009E [0xB5] SET_EVENT_ENTITY_NAME: Change EventEntity name to ExtData[1]->WorkLocal[0]
  3: 0x00A2 [0x00] END_REQSTACK()
```

### Event 65535.6

#### Metadata

| Field        | Value    |
|--------------|----------|
| Entrypoint   | 0x00A3   |
| Data Size    | 25 bytes |
| Instructions | 3        |

```
      00 01 02 03 04 05 06 07  08 09 0A 0B 0C 0D 0E 0F
      -- -- -- -- -- -- -- --  -- -- -- -- -- -- -- --
00A0:          B4 00 00 00 52  6F 73 6B 69 6E 00 00 00     ....Roskin...
00B0: 00 00 00 00 00 00 00 B5  00 00 00 00              ............    
```

#### Opcodes

```
  0: 0x00A3 [0xB4] UI_WINDOW_STRING_HANDLER(case=0x00 - Copy string from opcode, work_offset=ExtData[1]->WorkLocal[0], string="Roskin")
  1: 0x00B7 [0xB5] SET_EVENT_ENTITY_NAME: Change EventEntity name to ExtData[1]->WorkLocal[0]
  2: 0x00BB [0x00] END_REQSTACK()
```

### Event 128

#### Metadata

| Field        | Value    |
|--------------|----------|
| Entrypoint   | 0x00BC   |
| Data Size    | 21 bytes |
| Instructions | 2        |

```
      00 01 02 03 04 05 06 07  08 09 0A 0B 0C 0D 0E 0F
      -- -- -- -- -- -- -- --  -- -- -- -- -- -- -- --
00B0:                                      B6 0B 07 80              ....
00C0: 13 80 05 80 14 80 15 80  15 80 15 80 16 80 05 80  ................
00D0: 00                                                .               
```

#### Opcodes

```
  0: 0x00BC [0xB6] ENTITY_APPEARANCE_HANDLER(case=Full entity look, race=1*, hair=6*, head=0*, body=48*, hands=338*, legs=338*, feet=338*, main=608*, sub=0*)
  1: 0x00D0 [0x00] END_REQSTACK()
```

### Event 65535.7

#### Metadata

| Field        | Value    |
|--------------|----------|
| Entrypoint   | 0x00D1   |
| Data Size    | 25 bytes |
| Instructions | 3        |

```
      00 01 02 03 04 05 06 07  08 09 0A 0B 0C 0D 0E 0F
      -- -- -- -- -- -- -- --  -- -- -- -- -- -- -- --
00D0:    B4 00 00 00 4F 73 74  6F 6E 00 00 00 00 00 00   ....Oston......
00E0: 00 00 00 00 00 B5 00 00  00 00                    ..........      
```

#### Opcodes

```
  0: 0x00D1 [0xB4] UI_WINDOW_STRING_HANDLER(case=0x00 - Copy string from opcode, work_offset=ExtData[1]->WorkLocal[0], string="Oston")
  1: 0x00E5 [0xB5] SET_EVENT_ENTITY_NAME: Change EventEntity name to ExtData[1]->WorkLocal[0]
  2: 0x00E9 [0x00] END_REQSTACK()
```

### Event 65535.8

#### Metadata

| Field        | Value    |
|--------------|----------|
| Entrypoint   | 0x00EA   |
| Data Size    | 25 bytes |
| Instructions | 3        |

```
      00 01 02 03 04 05 06 07  08 09 0A 0B 0C 0D 0E 0F
      -- -- -- -- -- -- -- --  -- -- -- -- -- -- -- --
00E0:                                B4 13 00 00 52 75            ....Ru
00F0: 6E 65 40 46 65 6E 63 65  72 00 00 00 00 00 B5 00  ne@Fencer.......
0100: 00 00 00                                          ...             
```

#### Opcodes

```
  0: 0x00EA [0xB4] UI_WINDOW_STRING_HANDLER(case=0x13 - Copy string and replace @ with space, work_offset=ExtData[1]->WorkLocal[0], string="Rune@Fencer")
  1: 0x00FE [0xB5] SET_EVENT_ENTITY_NAME: Change EventEntity name to ExtData[1]->WorkLocal[0]
  2: 0x0102 [0x00] END_REQSTACK()
```

### Event 65535.9

#### Metadata

| Field        | Value    |
|--------------|----------|
| Entrypoint   | 0x0103   |
| Data Size    | 25 bytes |
| Instructions | 3        |

```
      00 01 02 03 04 05 06 07  08 09 0A 0B 0C 0D 0E 0F
      -- -- -- -- -- -- -- --  -- -- -- -- -- -- -- --
0100:          B4 00 00 00 3F  3F 3F 00 00 00 00 00 00     ....???......
0110: 00 00 00 00 00 00 00 B5  00 00 00 00              ............    
```

#### Opcodes

```
  0: 0x0103 [0xB4] UI_WINDOW_STRING_HANDLER(case=0x00 - Copy string from opcode, work_offset=ExtData[1]->WorkLocal[0], string="???")
  1: 0x0117 [0xB5] SET_EVENT_ENTITY_NAME: Change EventEntity name to ExtData[1]->WorkLocal[0]
  2: 0x011B [0x00] END_REQSTACK()
```

### Event 65535.10

#### Metadata

| Field        | Value    |
|--------------|----------|
| Entrypoint   | 0x011C   |
| Data Size    | 53 bytes |
| Instructions | 6        |

```
      00 01 02 03 04 05 06 07  08 09 0A 0B 0C 0D 0E 0F
      -- -- -- -- -- -- -- --  -- -- -- -- -- -- -- --
0110:                                      B6 0B 07 80              ....
0120: 05 80 05 80 05 80 05 80  05 80 05 80 05 80 05 80  ................
0130: B4 00 00 00 00 00 00 00  00 00 00 00 00 00 00 00  ................
0140: 00 00 00 00 B5 00 00 00  22 01 2F 01 F8 FF FF 7F  ........"./.....
0150: 00                                                .               
```

#### Opcodes

```
  0: 0x011C [0xB6] ENTITY_APPEARANCE_HANDLER(case=Full entity look, race=1*, hair=0*, head=0*, body=0*, hands=0*, legs=0*, feet=0*, main=0*, sub=0*)
  1: 0x0130 [0xB4] UI_WINDOW_STRING_HANDLER(case=0x00 - Copy string from opcode, work_offset=ExtData[1]->WorkLocal[0], string="")
  2: 0x0144 [0xB5] SET_EVENT_ENTITY_NAME: Change EventEntity name to ExtData[1]->WorkLocal[0]
  3: 0x0148 [0x22] ENTITY_HIDE_FLAG(enabled=0x01)
  4: 0x014A [0x2F] EventEntity->Render.Flags0 |= 0x80000 // Bit 19
  5: 0x0150 [0x00] END_REQSTACK()
```

### Event 65535.11

#### Metadata

| Field        | Value    |
|--------------|----------|
| Entrypoint   | 0x0151   |
| Data Size    | 16 bytes |
| Instructions | 5        |

```
      00 01 02 03 04 05 06 07  08 09 0A 0B 0C 0D 0E 0F
      -- -- -- -- -- -- -- --  -- -- -- -- -- -- -- --
0150:    32 09 80 1F 00 17 80  18 80 19 80 1F 01 22 01   2............".
0160: 00                                                .               
```

#### Opcodes

```
  0: 0x0151 [0x32] ExtData[1]->MainSpeed = 40* * 0.1
  1: 0x0154 [0x1F] MOVE_ENTITY: EventEntity moves to X=175.951*, Z=-213.862*, Y=0.337*
  2: 0x015C [0x1F] MOVE_ENTITY: Update entity position (mode=1)
  3: 0x015E [0x22] ENTITY_HIDE_FLAG(enabled=0x01)
  4: 0x0160 [0x00] END_REQSTACK()
```

### Event 65535.12

#### Metadata

| Field        | Value    |
|--------------|----------|
| Entrypoint   | 0x0161   |
| Data Size    | 31 bytes |
| Instructions | 9        |

```
      00 01 02 03 04 05 06 07  08 09 0A 0B 0C 0D 0E 0F
      -- -- -- -- -- -- -- --  -- -- -- -- -- -- -- --
0160:    32 09 80 1F 00 1A 80  1B 80 1C 80 1F 01 1F 00   2..............
0170: 1D 80 1E 80 1F 80 1F 01  1E 75 72 10 01 6F 70 00  .........ur..op.
```

#### Opcodes

```
  0: 0x0161 [0x32] ExtData[1]->MainSpeed = 40* * 0.1
  1: 0x0164 [0x1F] MOVE_ENTITY: EventEntity moves to X=156.673*, Z=-216.732*, Y=0.161*
  2: 0x016C [0x1F] MOVE_ENTITY: Update entity position (mode=1)
  3: 0x016E [0x1F] MOVE_ENTITY: EventEntity moves to X=158.161*, Z=-216.982*, Y=-0.007*
  4: 0x0176 [0x1F] MOVE_ENTITY: Update entity position (mode=1)
  5: 0x0178 [0x1E] EventEntity looks at Unnamed NPC (ID: 17855093/0x01107275) and starts talking
  6: 0x017D [0x6F] WAIT_FRAME_DELAY: Yield until WaitTime reaches zero
  7: 0x017E [0x70] WAIT_ENTITY_RENDER_FLAG: Wait while EventEntity->Render.Flags3 bit 2 is set (cancel turn if not)
  8: 0x017F [0x00] END_REQSTACK()
```

### Event 65535.13

#### Metadata

| Field        | Value    |
|--------------|----------|
| Entrypoint   | 0x0180   |
| Data Size    | 19 bytes |
| Instructions | 3        |

```
      00 01 02 03 04 05 06 07  08 09 0A 0B 0C 0D 0E 0F
      -- -- -- -- -- -- -- --  -- -- -- -- -- -- -- --
0180: 66 20 80 F8 FF FF 7F F8  FF FF 7F 70 6F 73 30 1C  f .........pos0.
0190: 21 80 00                                          !..             
```

#### Opcodes

```
  0: 0x0180 [0x66] LOAD_EXT_SCHEDULER_MAIN: Load scheduler "pos0" with entities [EventEntity, EventEntity], work=74*
  1: 0x018F [0x1C] WAIT(56* ticks)
  2: 0x0192 [0x00] END_REQSTACK()
```

### Event 65535.14

#### Metadata

| Field        | Value    |
|--------------|----------|
| Entrypoint   | 0x0193   |
| Data Size    | 43 bytes |
| Instructions | 7        |

```
      00 01 02 03 04 05 06 07  08 09 0A 0B 0C 0D 0E 0F
      -- -- -- -- -- -- -- --  -- -- -- -- -- -- -- --
0190:          32 09 80 1F 00  22 80 23 80 24 80 1F 01     2....".#.$...
01A0: 1C 25 80 2C F8 FF FF 7F  F8 FF FF 7F 64 65 61 64  .%.,........dead
01B0: 53 F8 FF FF 7F F8 FF FF  7F 64 65 61 64 00        S........dead.  
```

#### Opcodes

```
  0: 0x0193 [0x32] ExtData[1]->MainSpeed = 40* * 0.1
  1: 0x0196 [0x1F] MOVE_ENTITY: EventEntity moves to X=-115.986*, Z=-34.164*, Y=-8.758*
  2: 0x019E [0x1F] MOVE_ENTITY: Update entity position (mode=1)
  3: 0x01A0 [0x1C] WAIT(300* ticks)
  4: 0x01A3 [0x2C] CREATE_SCHEDULER_TASK: Create scheduler "dead" with entities [EventEntity, EventEntity]
  5: 0x01B0 [0x53] WAIT_SCHEDULER_TASK: Wait for scheduler "dead" with entities [EventEntity, EventEntity]
  6: 0x01BD [0x00] END_REQSTACK()
```

### Event 65535.15

#### Metadata

| Field        | Value    |
|--------------|----------|
| Entrypoint   | 0x01BE   |
| Data Size    | 10 bytes |
| Instructions | 4        |

```
      00 01 02 03 04 05 06 07  08 09 0A 0B 0C 0D 0E 0F
      -- -- -- -- -- -- -- --  -- -- -- -- -- -- -- --
01B0:                                            AB 03                ..
01C0: AC 01 07 80 1C 26 80 00                           .....&..        
```

#### Opcodes

```
  0: 0x01BE [0xAB] EventEntity->Render.Flags0 ^= 0x20000 // Toggle bit 17
  1: 0x01C0 [0xAC] EventEntity->StatusEvent = 1*
  2: 0x01C4 [0x1C] WAIT(120* ticks)
  3: 0x01C7 [0x00] END_REQSTACK()
```

### Event 65535.16

#### Metadata

| Field        | Value    |
|--------------|----------|
| Entrypoint   | 0x01C8   |
| Data Size    | 10 bytes |
| Instructions | 4        |

```
      00 01 02 03 04 05 06 07  08 09 0A 0B 0C 0D 0E 0F
      -- -- -- -- -- -- -- --  -- -- -- -- -- -- -- --
01C0:                          AC 01 05 80 AB 04 1C 26          .......&
01D0: 80 00                                             ..              
```

#### Opcodes

```
  0: 0x01C8 [0xAC] EventEntity->StatusEvent = 0*
  1: 0x01CC [0xAB] EventEntity->Render.Flags0 |= 0x40000 // Set bit 18
  2: 0x01CE [0x1C] WAIT(120* ticks)
  3: 0x01D1 [0x00] END_REQSTACK()
```
