# 17855053

## Common Data

| Field            | Value                  |
|------------------|------------------------|
| Zone             | Yorcia Weald (ID: 263) |
| Block Size       | 376 bytes              |
| Total Events     | 6                      |
| References Count | 21                     |

## List of Events

| Event ID                 | Entrypoint   |   Size |   Instructions |
|--------------------------|--------------|--------|----------------|
| [65535](#event-65535)    | 0x0000       |      1 |              1 |
| [65535.1](#event-655351) | 0x0001       |      4 |              2 |
| [1](#event-1)            | 0x0005       |      1 |              1 |
| [2](#event-2)            | 0x0006       |      1 |              1 |
| [65535.2](#event-655352) | 0x0007       |    244 |             21 |
| [116](#event-116)        | 0x00FB       |      1 |              1 |

## DAT References (imed_data)

|   Index | Hex Value   |   Dec Value |
|---------|-------------|-------------|
|       0 | 0x0CB2      |        3250 |
|       1 | 0x3CCF7     |      249079 |
|       2 | 0x1E36A     |      123754 |
|       3 | 0x0123      |         291 |
|       4 | 0x0CC3      |        3267 |
|       5 | 0x3D133     |      250163 |
|       6 | 0x1E4F9     |      124153 |
|       7 | 0x014B      |         331 |
|       8 | 0x0A7A      |        2682 |
|       9 | 0x3C92B     |      248107 |
|      10 | 0x1E4F4     |      124148 |
|      11 | 0x0161      |         353 |
|      12 | 0x0E72      |        3698 |
|      13 | 0x3C8C0     |      248000 |
|      14 | 0x1D4C0     |      120000 |
|      15 | 0xFFFFFF06  |  4294967046 |
|      16 | 0x0C00      |        3072 |
|      17 | 0x0CB7      |        3255 |
|      18 | 0x0CF5      |        3317 |
|      19 | 0x0CE7      |        3303 |
|      20 | 0x0CB6      |        3254 |

## Events

### Event 65535

#### Metadata

| Field        | Value   |
|--------------|---------|
| Entrypoint   | 0x0000  |
| Data Size    | 1 bytes |
| Instructions | 1       |

```
      00 01 02 03 04 05 06 07  08 09 0A 0B 0C 0D 0E 0F
      -- -- -- -- -- -- -- --  -- -- -- -- -- -- -- --
0000: 00                                                .               
```

#### Opcodes

```
  0: 0x0000 [0x00] END_REQSTACK()
```

### Event 65535.1

#### Metadata

| Field        | Value   |
|--------------|---------|
| Entrypoint   | 0x0001  |
| Data Size    | 4 bytes |
| Instructions | 2       |

```
      00 01 02 03 04 05 06 07  08 09 0A 0B 0C 0D 0E 0F
      -- -- -- -- -- -- -- --  -- -- -- -- -- -- -- --
0000:    1C 02 10 00                                     ....           
```

#### Opcodes

```
  0: 0x0001 [0x1C] WAIT(Work_Zone[2] ticks)
  1: 0x0004 [0x00] END_REQSTACK()
```

### Event 1

#### Metadata

| Field        | Value   |
|--------------|---------|
| Entrypoint   | 0x0005  |
| Data Size    | 1 bytes |
| Instructions | 1       |

```
      00 01 02 03 04 05 06 07  08 09 0A 0B 0C 0D 0E 0F
      -- -- -- -- -- -- -- --  -- -- -- -- -- -- -- --
0000:                00                                      .          
```

#### Opcodes

```
  0: 0x0005 [0x00] END_REQSTACK()
```

### Event 2

#### Metadata

| Field        | Value   |
|--------------|---------|
| Entrypoint   | 0x0006  |
| Data Size    | 1 bytes |
| Instructions | 1       |

```
      00 01 02 03 04 05 06 07  08 09 0A 0B 0C 0D 0E 0F
      -- -- -- -- -- -- -- --  -- -- -- -- -- -- -- --
0000:                   00                                    .         
```

#### Opcodes

```
  0: 0x0006 [0x00] END_REQSTACK()
```

### Event 65535.2

#### Metadata

| Field        | Value     |
|--------------|-----------|
| Entrypoint   | 0x0007    |
| Data Size    | 244 bytes |
| Instructions | 21        |

```
      00 01 02 03 04 05 06 07  08 09 0A 0B 0C 0D 0E 0F
      -- -- -- -- -- -- -- --  -- -- -- -- -- -- -- --
0000:                      5B  00 80 58 72 10 01 58 72         [..Xr..Xr
0010: 10 01 6B 62 74 73 5B 00  80 55 72 10 01 55 72 10  ..kbts[..Ur..Ur.
0020: 01 6B 62 74 73 BA 55 72  10 01 01 80 02 80 03 80  .kbts.Ur........
0030: 04 80 BA 56 72 10 01 05  80 06 80 07 80 08 80 BA  ...Vr...........
0040: 57 72 10 01 09 80 0A 80  0B 80 0C 80 BA 58 72 10  Wr...........Xr.
0050: 01 0D 80 0E 80 0F 80 10  80 BA 59 72 10 01 0D 80  ..........Yr....
0060: 0E 80 0F 80 10 80 5B 11  80 55 72 10 01 55 72 10  ......[..Ur..Ur.
0070: 01 6D 67 6B 30 5B 11 80  56 72 10 01 56 72 10 01  .mgk0[..Vr..Vr..
0080: 69 6B 61 30 5B 00 80 57  72 10 01 57 72 10 01 62  ika0[..Wr..Wr..b
0090: 74 6C 30 5B 12 80 58 72  10 01 58 72 10 01 61 6F  tl0[..Xr..Xr..ao
00A0: 72 30 5B 11 80 59 72 10  01 59 72 10 01 6A 6D 70  r0[..Yr..Yr..jmp
00B0: 30 27 10 4E 72 10 01 07  27 10 4E 72 10 01 08 27  0'.Nr...'.Nr...'
00C0: 10 4E 72 10 01 09 4E 00  52 72 10 01 4E 00 54 72  .Nr...N.Rr..N.Tr
00D0: 10 01 AE 05 52 72 10 01  54 72 10 01 5B 13 80 52  ....Rr..Tr..[..R
00E0: 72 10 01 52 72 10 01 63  61 70 31 5B 14 80 54 72  r..Rr..cap1[..Tr
00F0: 10 01 54 72 10 01 63 61  70 31 00                 ..Tr..cap1.     
```

#### Opcodes

```
  0: 0x0007 [0x5B] LOAD_EXT_SCHEDULER: Load scheduler "kbts" with entities [Unnamed NPC (ID: 17855064/0x01107258), Unnamed NPC (ID: 17855064/0x01107258)], work=3250*
  1: 0x0016 [0x5B] LOAD_EXT_SCHEDULER: Load scheduler "kbts" with entities [Unnamed NPC (ID: 17855061/0x01107255), Unnamed NPC (ID: 17855061/0x01107255)], work=3250*
  2: 0x0025 [0xBA] SET_ENTITY_POSITION(entity_id=Unnamed NPC (ID: 17855061/0x01107255), pos_x=249.079*, pos_z=123.754*, pos_y=0.291*, direction=287.1°*)
  3: 0x0032 [0xBA] SET_ENTITY_POSITION(entity_id=Unnamed NPC (ID: 17855062/0x01107256), pos_x=250.163*, pos_z=124.153*, pos_y=0.331*, direction=235.7°*)
  4: 0x003F [0xBA] SET_ENTITY_POSITION(entity_id=Unnamed NPC (ID: 17855063/0x01107257), pos_x=248.107*, pos_z=124.148*, pos_y=0.353*, direction=325.0°*)
  5: 0x004C [0xBA] SET_ENTITY_POSITION(entity_id=Unnamed NPC (ID: 17855064/0x01107258), pos_x=248.000*, pos_z=120.000*, pos_y=-0.250*, direction=270.0°*)
  6: 0x0059 [0xBA] SET_ENTITY_POSITION(entity_id=Unnamed NPC (ID: 17855065/0x01107259), pos_x=248.000*, pos_z=120.000*, pos_y=-0.250*, direction=270.0°*)
  7: 0x0066 [0x5B] LOAD_EXT_SCHEDULER: Load scheduler "mgk0" with entities [Unnamed NPC (ID: 17855061/0x01107255), Unnamed NPC (ID: 17855061/0x01107255)], work=3255*
  8: 0x0075 [0x5B] LOAD_EXT_SCHEDULER: Load scheduler "ika0" with entities [Unnamed NPC (ID: 17855062/0x01107256), Unnamed NPC (ID: 17855062/0x01107256)], work=3255*
  9: 0x0084 [0x5B] LOAD_EXT_SCHEDULER: Load scheduler "btl0" with entities [Unnamed NPC (ID: 17855063/0x01107257), Unnamed NPC (ID: 17855063/0x01107257)], work=3250*
 10: 0x0093 [0x5B] LOAD_EXT_SCHEDULER: Load scheduler "aor0" with entities [Unnamed NPC (ID: 17855064/0x01107258), Unnamed NPC (ID: 17855064/0x01107258)], work=3317*
 11: 0x00A2 [0x5B] LOAD_EXT_SCHEDULER: Load scheduler "jmp0" with entities [Unnamed NPC (ID: 17855065/0x01107259), Unnamed NPC (ID: 17855065/0x01107259)], work=3255*
 12: 0x00B1 [0x27] REQ_SET(priority=0x10, entity_id=Unnamed NPC (ID: 17855054/0x0110724E), tag_num=0x07)
 13: 0x00B8 [0x27] REQ_SET(priority=0x10, entity_id=Unnamed NPC (ID: 17855054/0x0110724E), tag_num=0x08)
 14: 0x00BF [0x27] REQ_SET(priority=0x10, entity_id=Unnamed NPC (ID: 17855054/0x0110724E), tag_num=0x09)
 15: 0x00C6 [0x4E] SET_ENTITY_HIDE_FLAG: Show Arciela (ID: 17855058/0x01107252)
 16: 0x00CC [0x4E] SET_ENTITY_HIDE_FLAG: Show Unnamed NPC (ID: 17855060/0x01107254)
 17: 0x00D2 [0xAE] MULTI_PURPOSE_ENTITY_HANDLER(case_type=0x05 - Link ActorPointer, entity1=Arciela (ID: 17855058/0x01107252), entity2=Unnamed NPC (ID: 17855060/0x01107254))
 18: 0x00DC [0x5B] LOAD_EXT_SCHEDULER: Load scheduler "cap1" with entities [Arciela (ID: 17855058/0x01107252), Arciela (ID: 17855058/0x01107252)], work=3303*
 19: 0x00EB [0x5B] LOAD_EXT_SCHEDULER: Load scheduler "cap1" with entities [Unnamed NPC (ID: 17855060/0x01107254), Unnamed NPC (ID: 17855060/0x01107254)], work=3254*
 20: 0x00FA [0x00] END_REQSTACK()
```

### Event 116

#### Metadata

| Field        | Value   |
|--------------|---------|
| Entrypoint   | 0x00FB  |
| Data Size    | 1 bytes |
| Instructions | 1       |

```
      00 01 02 03 04 05 06 07  08 09 0A 0B 0C 0D 0E 0F
      -- -- -- -- -- -- -- --  -- -- -- -- -- -- -- --
00F0:                                   00                         .    
```

#### Opcodes

```
  0: 0x00FB [0x00] END_REQSTACK()
```
