# 17855072

## Common Data

| Field            | Value                  |
|------------------|------------------------|
| Zone             | Yorcia Weald (ID: 263) |
| Block Size       | 492 bytes              |
| Total Events     | 12                     |
| References Count | 28                     |

## List of Events

| Event ID                 | Entrypoint   |   Size |   Instructions |
|--------------------------|--------------|--------|----------------|
| [65535](#event-65535)    | 0x0000       |      1 |              1 |
| [65535.1](#event-655351) | 0x0001       |     21 |              2 |
| [3](#event-3)            | 0x0016       |     21 |              2 |
| [114](#event-114)        | 0x002B       |     21 |              2 |
| [65535.2](#event-655352) | 0x0040       |     14 |              4 |
| [8](#event-8)            | 0x004E       |      1 |              1 |
| [65535.3](#event-655353) | 0x004F       |     45 |              4 |
| [65535.4](#event-655354) | 0x007C       |     45 |              4 |
| [65535.5](#event-655355) | 0x00A9       |     27 |              6 |
| [65535.6](#event-655356) | 0x00C4       |     60 |             10 |
| [65535.7](#event-655357) | 0x0100       |     29 |              3 |
| [65535.8](#event-655358) | 0x011D       |     29 |              3 |

## DAT References (imed_data)

|   Index | Hex Value   |   Dec Value |
|---------|-------------|-------------|
|       0 | 0x0001      |           1 |
|       1 | 0x0000      |           0 |
|       2 | 0x0007      |           7 |
|       3 | 0x001A      |          26 |
|       4 | 0x0064      |         100 |
|       5 | 0x00AB      |         171 |
|       6 | 0x01C0      |         448 |
|       7 | 0x0003      |           3 |
|       8 | 0x008F      |         143 |
|       9 | 0x0017      |          23 |
|      10 | 0x000D      |          13 |
|      11 | 0x40296     |      262806 |
|      12 | 0x5E47B     |      386171 |
|      13 | 0xFFFFF730  |  4294965040 |
|      14 | 0x0008      |           8 |
|      15 | 0x0006      |           6 |
|      16 | 0x0140      |         320 |
|      17 | 0x0156      |         342 |
|      18 | 0x00EF      |         239 |
|      19 | 0x0028      |          40 |
|      20 | 0xFFFDA3AA  |  4294812586 |
|      21 | 0x6ACC2     |      437442 |
|      22 | 0x003F      |          63 |
|      23 | 0x0014      |          20 |
|      24 | 0xFFFDA837  |  4294813751 |
|      25 | 0x6AD40     |      437568 |
|      26 | 0x0079      |         121 |
|      27 | 0x0045      |          69 |

## Events

### Event 65535

#### Metadata

| Field        | Value   |
|--------------|---------|
| Entrypoint   | 0x0000  |
| Data Size    | 1 bytes |
| Instructions | 1       |

```
      00 01 02 03 04 05 06 07  08 09 0A 0B 0C 0D 0E 0F
      -- -- -- -- -- -- -- --  -- -- -- -- -- -- -- --
0000: 00                                                .               
```

#### Opcodes

```
  0: 0x0000 [0x00] END_REQSTACK()
```

### Event 65535.1

#### Metadata

| Field        | Value    |
|--------------|----------|
| Entrypoint   | 0x0001   |
| Data Size    | 21 bytes |
| Instructions | 2        |

```
      00 01 02 03 04 05 06 07  08 09 0A 0B 0C 0D 0E 0F
      -- -- -- -- -- -- -- --  -- -- -- -- -- -- -- --
0000:    B6 0B 00 80 01 80 01  80 01 80 01 80 01 80 01   ...............
0010: 80 01 80 01 80 00                                 ......          
```

#### Opcodes

```
  0: 0x0001 [0xB6] ENTITY_APPEARANCE_HANDLER(case=Full entity look, race=1*, hair=0*, head=0*, body=0*, hands=0*, legs=0*, feet=0*, main=0*, sub=0*)
  1: 0x0015 [0x00] END_REQSTACK()
```

### Event 3

#### Metadata

| Field        | Value    |
|--------------|----------|
| Entrypoint   | 0x0016   |
| Data Size    | 21 bytes |
| Instructions | 2        |

```
      00 01 02 03 04 05 06 07  08 09 0A 0B 0C 0D 0E 0F
      -- -- -- -- -- -- -- --  -- -- -- -- -- -- -- --
0010:                   B6 0B  02 80 03 80 01 80 04 80        ..........
0020: 04 80 05 80 04 80 06 80  01 80 00                 ...........     
```

#### Opcodes

```
  0: 0x0016 [0xB6] ENTITY_APPEARANCE_HANDLER(case=Full entity look, race=7*, hair=26*, head=0*, body=100*, hands=100*, legs=171*, feet=100*, main=448*, sub=0*)
  1: 0x002A [0x00] END_REQSTACK()
```

### Event 114

#### Metadata

| Field        | Value    |
|--------------|----------|
| Entrypoint   | 0x002B   |
| Data Size    | 21 bytes |
| Instructions | 2        |

```
      00 01 02 03 04 05 06 07  08 09 0A 0B 0C 0D 0E 0F
      -- -- -- -- -- -- -- --  -- -- -- -- -- -- -- --
0020:                                   B6 0B 02 80 07             .....
0030: 80 01 80 08 80 09 80 08  80 08 80 01 80 01 80 00  ................
```

#### Opcodes

```
  0: 0x002B [0xB6] ENTITY_APPEARANCE_HANDLER(case=Full entity look, race=7*, hair=3*, head=0*, body=143*, hands=23*, legs=143*, feet=143*, main=0*, sub=0*)
  1: 0x003F [0x00] END_REQSTACK()
```

### Event 65535.2

#### Metadata

| Field        | Value    |
|--------------|----------|
| Entrypoint   | 0x0040   |
| Data Size    | 14 bytes |
| Instructions | 4        |

```
      00 01 02 03 04 05 06 07  08 09 0A 0B 0C 0D 0E 0F
      -- -- -- -- -- -- -- --  -- -- -- -- -- -- -- --
0040: 32 0A 80 1F 00 0B 80 0C  80 0D 80 1F 01 00        2.............  
```

#### Opcodes

```
  0: 0x0040 [0x32] ExtData[1]->MainSpeed = 13* * 0.1
  1: 0x0043 [0x1F] MOVE_ENTITY: EventEntity moves to X=262.806*, Z=386.171*, Y=-2.256*
  2: 0x004B [0x1F] MOVE_ENTITY: Update entity position (mode=1)
  3: 0x004D [0x00] END_REQSTACK()
```

### Event 8

#### Metadata

| Field        | Value   |
|--------------|---------|
| Entrypoint   | 0x004E  |
| Data Size    | 1 bytes |
| Instructions | 1       |

```
      00 01 02 03 04 05 06 07  08 09 0A 0B 0C 0D 0E 0F
      -- -- -- -- -- -- -- --  -- -- -- -- -- -- -- --
0040:                                            00                   . 
```

#### Opcodes

```
  0: 0x004E [0x00] END_REQSTACK()
```

### Event 65535.3

#### Metadata

| Field        | Value    |
|--------------|----------|
| Entrypoint   | 0x004F   |
| Data Size    | 45 bytes |
| Instructions | 4        |

```
      00 01 02 03 04 05 06 07  08 09 0A 0B 0C 0D 0E 0F
      -- -- -- -- -- -- -- --  -- -- -- -- -- -- -- --
0040:                                               B6                 .
0050: 0B 0E 80 0F 80 10 80 11  80 10 80 12 80 12 80 01  ................
0060: 80 01 80 B4 00 00 00 47  72 61 74 7A 69 67 67 00  .......Gratzigg.
0070: 00 00 00 00 00 00 00 B5  00 00 00 00              ............    
```

#### Opcodes

```
  0: 0x004F [0xB6] ENTITY_APPEARANCE_HANDLER(case=Full entity look, race=8*, hair=6*, head=320*, body=342*, hands=320*, legs=239*, feet=239*, main=0*, sub=0*)
  1: 0x0063 [0xB4] UI_WINDOW_STRING_HANDLER(case=0x00 - Copy string from opcode, work_offset=ExtData[1]->WorkLocal[0], string="Gratzigg")
  2: 0x0077 [0xB5] SET_EVENT_ENTITY_NAME: Change EventEntity name to ExtData[1]->WorkLocal[0]
  3: 0x007B [0x00] END_REQSTACK()
```

### Event 65535.4

#### Metadata

| Field        | Value    |
|--------------|----------|
| Entrypoint   | 0x007C   |
| Data Size    | 45 bytes |
| Instructions | 4        |

```
      00 01 02 03 04 05 06 07  08 09 0A 0B 0C 0D 0E 0F
      -- -- -- -- -- -- -- --  -- -- -- -- -- -- -- --
0070:                                      B6 0B 00 80              ....
0080: 01 80 01 80 01 80 01 80  01 80 01 80 01 80 01 80  ................
0090: B4 00 00 00 00 00 00 00  00 00 00 00 00 00 00 00  ................
00A0: 00 00 00 00 B5 00 00 00  00                       .........       
```

#### Opcodes

```
  0: 0x007C [0xB6] ENTITY_APPEARANCE_HANDLER(case=Full entity look, race=1*, hair=0*, head=0*, body=0*, hands=0*, legs=0*, feet=0*, main=0*, sub=0*)
  1: 0x0090 [0xB4] UI_WINDOW_STRING_HANDLER(case=0x00 - Copy string from opcode, work_offset=ExtData[1]->WorkLocal[0], string="")
  2: 0x00A4 [0xB5] SET_EVENT_ENTITY_NAME: Change EventEntity name to ExtData[1]->WorkLocal[0]
  3: 0x00A8 [0x00] END_REQSTACK()
```

### Event 65535.5

#### Metadata

| Field        | Value    |
|--------------|----------|
| Entrypoint   | 0x00A9   |
| Data Size    | 27 bytes |
| Instructions | 6        |

```
      00 01 02 03 04 05 06 07  08 09 0A 0B 0C 0D 0E 0F
      -- -- -- -- -- -- -- --  -- -- -- -- -- -- -- --
00A0:                             32 13 80 1F 00 14 80           2......
00B0: 15 80 16 80 1F 01 79 00  5F 72 10 01 5D 72 10 01  ......y._r..]r..
00C0: 1C 17 80 00                                       ....            
```

#### Opcodes

```
  0: 0x00A9 [0x32] ExtData[1]->MainSpeed = 40* * 0.1
  1: 0x00AC [0x1F] MOVE_ENTITY: EventEntity moves to X=-154.710*, Z=437.442*, Y=0.063*
  2: 0x00B4 [0x1F] MOVE_ENTITY: Update entity position (mode=1)
  3: 0x00B6 [0x79] Unnamed NPC (ID: 17855071/0x0110725F) looks at Unnamed NPC (ID: 17855069/0x0110725D) (Basic look)
  4: 0x00C0 [0x1C] WAIT(20* ticks)
  5: 0x00C3 [0x00] END_REQSTACK()
```

### Event 65535.6

#### Metadata

| Field        | Value    |
|--------------|----------|
| Entrypoint   | 0x00C4   |
| Data Size    | 60 bytes |
| Instructions | 10       |

```
      00 01 02 03 04 05 06 07  08 09 0A 0B 0C 0D 0E 0F
      -- -- -- -- -- -- -- --  -- -- -- -- -- -- -- --
00C0:             32 0A 80 1F  00 18 80 19 80 1A 80 1F      2...........
00D0: 01 1C 17 80 4A F8 FF FF  7F 5D 72 10 01 6F 76 F8  ....J....]r..ov.
00E0: FF FF 7F 66 1B 80 F8 FF  FF 7F F8 FF FF 7F 73 68  ...f..........sh
00F0: 61 30 53 F8 FF FF 7F F8  FF FF 7F 73 68 61 30 00  a0S........sha0.
```

#### Opcodes

```
  0: 0x00C4 [0x32] ExtData[1]->MainSpeed = 13* * 0.1
  1: 0x00C7 [0x1F] MOVE_ENTITY: EventEntity moves to X=-153.545*, Z=437.568*, Y=0.121*
  2: 0x00CF [0x1F] MOVE_ENTITY: Update entity position (mode=1)
  3: 0x00D1 [0x1C] WAIT(20* ticks)
  4: 0x00D4 [0x4A] EventEntity looks at Unnamed NPC (ID: 17855069/0x0110725D)
  5: 0x00DD [0x6F] WAIT_FRAME_DELAY: Yield until WaitTime reaches zero
  6: 0x00DE [0x76] CHECK_ENTITY_RENDER_FLAGS: Wait until EventEntity Render.Flags0 and Render.Flags3 conditions are met
  7: 0x00E3 [0x66] LOAD_EXT_SCHEDULER_MAIN: Load scheduler "sha0" with entities [EventEntity, EventEntity], work=69*
  8: 0x00F2 [0x53] WAIT_SCHEDULER_TASK: Wait for scheduler "sha0" with entities [EventEntity, EventEntity]
  9: 0x00FF [0x00] END_REQSTACK()
```

### Event 65535.7

#### Metadata

| Field        | Value    |
|--------------|----------|
| Entrypoint   | 0x0100   |
| Data Size    | 29 bytes |
| Instructions | 3        |

```
      00 01 02 03 04 05 06 07  08 09 0A 0B 0C 0D 0E 0F
      -- -- -- -- -- -- -- --  -- -- -- -- -- -- -- --
0100: 66 1B 80 F8 FF FF 7F F8  FF FF 7F 73 68 61 30 53  f..........sha0S
0110: F8 FF FF 7F F8 FF FF 7F  73 68 61 30 00           ........sha0.   
```

#### Opcodes

```
  0: 0x0100 [0x66] LOAD_EXT_SCHEDULER_MAIN: Load scheduler "sha0" with entities [EventEntity, EventEntity], work=69*
  1: 0x010F [0x53] WAIT_SCHEDULER_TASK: Wait for scheduler "sha0" with entities [EventEntity, EventEntity]
  2: 0x011C [0x00] END_REQSTACK()
```

### Event 65535.8

#### Metadata

| Field        | Value    |
|--------------|----------|
| Entrypoint   | 0x011D   |
| Data Size    | 29 bytes |
| Instructions | 3        |

```
      00 01 02 03 04 05 06 07  08 09 0A 0B 0C 0D 0E 0F
      -- -- -- -- -- -- -- --  -- -- -- -- -- -- -- --
0110:                                         66 1B 80               f..
0120: F8 FF FF 7F F8 FF FF 7F  73 68 61 31 53 F8 FF FF  ........sha1S...
0130: 7F F8 FF FF 7F 73 68 61  31 00                    .....sha1.      
```

#### Opcodes

```
  0: 0x011D [0x66] LOAD_EXT_SCHEDULER_MAIN: Load scheduler "sha1" with entities [EventEntity, EventEntity], work=69*
  1: 0x012C [0x53] WAIT_SCHEDULER_TASK: Wait for scheduler "sha1" with entities [EventEntity, EventEntity]
  2: 0x0139 [0x00] END_REQSTACK()
```
