# 17855054

## Common Data

| Field            | Value                  |
|------------------|------------------------|
| Zone             | Yorcia Weald (ID: 263) |
| Block Size       | 296 bytes              |
| Total Events     | 16                     |
| References Count | 11                     |

## List of Events

| Event ID                   | Entrypoint   |   Size |   Instructions |
|----------------------------|--------------|--------|----------------|
| [65535](#event-65535)      | 0x0000       |      1 |              1 |
| [1](#event-1)              | 0x0001       |      1 |              1 |
| [2](#event-2)              | 0x0002       |      1 |              1 |
| [65535.1](#event-655351)   | 0x0003       |     10 |              2 |
| [65535.2](#event-655352)   | 0x000D       |     10 |              2 |
| [65535.3](#event-655353)   | 0x0017       |     10 |              2 |
| [65535.4](#event-655354)   | 0x0021       |     10 |              2 |
| [65535.5](#event-655355)   | 0x002B       |     10 |              2 |
| [65535.6](#event-655356)   | 0x0035       |     10 |              2 |
| [65535.7](#event-655357)   | 0x003F       |     10 |              2 |
| [65535.8](#event-655358)   | 0x0049       |     10 |              2 |
| [65535.9](#event-655359)   | 0x0053       |     10 |              2 |
| [65535.10](#event-6553510) | 0x005D       |     10 |              2 |
| [65535.11](#event-6553511) | 0x0067       |     10 |              2 |
| [65535.12](#event-6553512) | 0x0071       |     10 |              2 |
| [65535.13](#event-6553513) | 0x007B       |     49 |              5 |

## DAT References (imed_data)

|   Index | Hex Value   |   Dec Value |
|---------|-------------|-------------|
|       0 | 0x0080      |         128 |
|       1 | 0x0001      |           1 |
|       2 | 0x0000      |           0 |
|       3 | 0x3C8C0     |      248000 |
|       4 | 0x1D4C0     |      120000 |
|       5 | 0xFFFFFF06  |  4294967046 |
|       6 | 0x0C00      |        3072 |
|       7 | 0x3CE9E     |      249502 |
|       8 | 0x1E8C3     |      125123 |
|       9 | 0x0184      |         388 |
|      10 | 0x04DD      |        1245 |

## Events

### Event 65535

#### Metadata

| Field        | Value   |
|--------------|---------|
| Entrypoint   | 0x0000  |
| Data Size    | 1 bytes |
| Instructions | 1       |

```
      00 01 02 03 04 05 06 07  08 09 0A 0B 0C 0D 0E 0F
      -- -- -- -- -- -- -- --  -- -- -- -- -- -- -- --
0000: 00                                                .               
```

#### Opcodes

```
  0: 0x0000 [0x00] END_REQSTACK()
```

### Event 1

#### Metadata

| Field        | Value   |
|--------------|---------|
| Entrypoint   | 0x0001  |
| Data Size    | 1 bytes |
| Instructions | 1       |

```
      00 01 02 03 04 05 06 07  08 09 0A 0B 0C 0D 0E 0F
      -- -- -- -- -- -- -- --  -- -- -- -- -- -- -- --
0000:    00                                              .              
```

#### Opcodes

```
  0: 0x0001 [0x00] END_REQSTACK()
```

### Event 2

#### Metadata

| Field        | Value   |
|--------------|---------|
| Entrypoint   | 0x0002  |
| Data Size    | 1 bytes |
| Instructions | 1       |

```
      00 01 02 03 04 05 06 07  08 09 0A 0B 0C 0D 0E 0F
      -- -- -- -- -- -- -- --  -- -- -- -- -- -- -- --
0000:       00                                            .             
```

#### Opcodes

```
  0: 0x0002 [0x00] END_REQSTACK()
```

### Event 65535.1

#### Metadata

| Field        | Value    |
|--------------|----------|
| Entrypoint   | 0x0003   |
| Data Size    | 10 bytes |
| Instructions | 2        |

```
      00 01 02 03 04 05 06 07  08 09 0A 0B 0C 0D 0E 0F
      -- -- -- -- -- -- -- --  -- -- -- -- -- -- -- --
0000:          6C 53 72 10 01  00 80 01 80 00              lSr.......   
```

#### Opcodes

```
  0: 0x0003 [0x6C] FADE_ENTITY_COLOR(entity_id=Unnamed NPC (ID: 17855059/0x01107253), end_alpha=128*, fade_time=1*)
  1: 0x000C [0x00] END_REQSTACK()
```

### Event 65535.2

#### Metadata

| Field        | Value    |
|--------------|----------|
| Entrypoint   | 0x000D   |
| Data Size    | 10 bytes |
| Instructions | 2        |

```
      00 01 02 03 04 05 06 07  08 09 0A 0B 0C 0D 0E 0F
      -- -- -- -- -- -- -- --  -- -- -- -- -- -- -- --
0000:                                         6C 54 72               lTr
0010: 10 01 00 80 01 80 00                              .......         
```

#### Opcodes

```
  0: 0x000D [0x6C] FADE_ENTITY_COLOR(entity_id=Unnamed NPC (ID: 17855060/0x01107254), end_alpha=128*, fade_time=1*)
  1: 0x0016 [0x00] END_REQSTACK()
```

### Event 65535.3

#### Metadata

| Field        | Value    |
|--------------|----------|
| Entrypoint   | 0x0017   |
| Data Size    | 10 bytes |
| Instructions | 2        |

```
      00 01 02 03 04 05 06 07  08 09 0A 0B 0C 0D 0E 0F
      -- -- -- -- -- -- -- --  -- -- -- -- -- -- -- --
0010:                      6C  55 72 10 01 00 80 01 80         lUr......
0020: 00                                                .               
```

#### Opcodes

```
  0: 0x0017 [0x6C] FADE_ENTITY_COLOR(entity_id=Unnamed NPC (ID: 17855061/0x01107255), end_alpha=128*, fade_time=1*)
  1: 0x0020 [0x00] END_REQSTACK()
```

### Event 65535.4

#### Metadata

| Field        | Value    |
|--------------|----------|
| Entrypoint   | 0x0021   |
| Data Size    | 10 bytes |
| Instructions | 2        |

```
      00 01 02 03 04 05 06 07  08 09 0A 0B 0C 0D 0E 0F
      -- -- -- -- -- -- -- --  -- -- -- -- -- -- -- --
0020:    6C 56 72 10 01 00 80  01 80 00                  lVr.......     
```

#### Opcodes

```
  0: 0x0021 [0x6C] FADE_ENTITY_COLOR(entity_id=Unnamed NPC (ID: 17855062/0x01107256), end_alpha=128*, fade_time=1*)
  1: 0x002A [0x00] END_REQSTACK()
```

### Event 65535.5

#### Metadata

| Field        | Value    |
|--------------|----------|
| Entrypoint   | 0x002B   |
| Data Size    | 10 bytes |
| Instructions | 2        |

```
      00 01 02 03 04 05 06 07  08 09 0A 0B 0C 0D 0E 0F
      -- -- -- -- -- -- -- --  -- -- -- -- -- -- -- --
0020:                                   6C 57 72 10 01             lWr..
0030: 00 80 01 80 00                                    .....           
```

#### Opcodes

```
  0: 0x002B [0x6C] FADE_ENTITY_COLOR(entity_id=Unnamed NPC (ID: 17855063/0x01107257), end_alpha=128*, fade_time=1*)
  1: 0x0034 [0x00] END_REQSTACK()
```

### Event 65535.6

#### Metadata

| Field        | Value    |
|--------------|----------|
| Entrypoint   | 0x0035   |
| Data Size    | 10 bytes |
| Instructions | 2        |

```
      00 01 02 03 04 05 06 07  08 09 0A 0B 0C 0D 0E 0F
      -- -- -- -- -- -- -- --  -- -- -- -- -- -- -- --
0030:                6C 58 72  10 01 00 80 01 80 00          lXr....... 
```

#### Opcodes

```
  0: 0x0035 [0x6C] FADE_ENTITY_COLOR(entity_id=Unnamed NPC (ID: 17855064/0x01107258), end_alpha=128*, fade_time=1*)
  1: 0x003E [0x00] END_REQSTACK()
```

### Event 65535.7

#### Metadata

| Field        | Value    |
|--------------|----------|
| Entrypoint   | 0x003F   |
| Data Size    | 10 bytes |
| Instructions | 2        |

```
      00 01 02 03 04 05 06 07  08 09 0A 0B 0C 0D 0E 0F
      -- -- -- -- -- -- -- --  -- -- -- -- -- -- -- --
0030:                                               6C                 l
0040: 59 72 10 01 00 80 01 80  00                       Yr.......       
```

#### Opcodes

```
  0: 0x003F [0x6C] FADE_ENTITY_COLOR(entity_id=Unnamed NPC (ID: 17855065/0x01107259), end_alpha=128*, fade_time=1*)
  1: 0x0048 [0x00] END_REQSTACK()
```

### Event 65535.8

#### Metadata

| Field        | Value    |
|--------------|----------|
| Entrypoint   | 0x0049   |
| Data Size    | 10 bytes |
| Instructions | 2        |

```
      00 01 02 03 04 05 06 07  08 09 0A 0B 0C 0D 0E 0F
      -- -- -- -- -- -- -- --  -- -- -- -- -- -- -- --
0040:                             6C 5A 72 10 01 00 80           lZr....
0050: 01 80 00                                          ...             
```

#### Opcodes

```
  0: 0x0049 [0x6C] FADE_ENTITY_COLOR(entity_id=Unnamed NPC (ID: 17855066/0x0110725A), end_alpha=128*, fade_time=1*)
  1: 0x0052 [0x00] END_REQSTACK()
```

### Event 65535.9

#### Metadata

| Field        | Value    |
|--------------|----------|
| Entrypoint   | 0x0053   |
| Data Size    | 10 bytes |
| Instructions | 2        |

```
      00 01 02 03 04 05 06 07  08 09 0A 0B 0C 0D 0E 0F
      -- -- -- -- -- -- -- --  -- -- -- -- -- -- -- --
0050:          6C 54 72 10 01  02 80 01 80 00              lTr.......   
```

#### Opcodes

```
  0: 0x0053 [0x6C] FADE_ENTITY_COLOR(entity_id=Unnamed NPC (ID: 17855060/0x01107254), end_alpha=0*, fade_time=1*)
  1: 0x005C [0x00] END_REQSTACK()
```

### Event 65535.10

#### Metadata

| Field        | Value    |
|--------------|----------|
| Entrypoint   | 0x005D   |
| Data Size    | 10 bytes |
| Instructions | 2        |

```
      00 01 02 03 04 05 06 07  08 09 0A 0B 0C 0D 0E 0F
      -- -- -- -- -- -- -- --  -- -- -- -- -- -- -- --
0050:                                         6C 55 72               lUr
0060: 10 01 02 80 01 80 00                              .......         
```

#### Opcodes

```
  0: 0x005D [0x6C] FADE_ENTITY_COLOR(entity_id=Unnamed NPC (ID: 17855061/0x01107255), end_alpha=0*, fade_time=1*)
  1: 0x0066 [0x00] END_REQSTACK()
```

### Event 65535.11

#### Metadata

| Field        | Value    |
|--------------|----------|
| Entrypoint   | 0x0067   |
| Data Size    | 10 bytes |
| Instructions | 2        |

```
      00 01 02 03 04 05 06 07  08 09 0A 0B 0C 0D 0E 0F
      -- -- -- -- -- -- -- --  -- -- -- -- -- -- -- --
0060:                      6C  57 72 10 01 02 80 01 80         lWr......
0070: 00                                                .               
```

#### Opcodes

```
  0: 0x0067 [0x6C] FADE_ENTITY_COLOR(entity_id=Unnamed NPC (ID: 17855063/0x01107257), end_alpha=0*, fade_time=1*)
  1: 0x0070 [0x00] END_REQSTACK()
```

### Event 65535.12

#### Metadata

| Field        | Value    |
|--------------|----------|
| Entrypoint   | 0x0071   |
| Data Size    | 10 bytes |
| Instructions | 2        |

```
      00 01 02 03 04 05 06 07  08 09 0A 0B 0C 0D 0E 0F
      -- -- -- -- -- -- -- --  -- -- -- -- -- -- -- --
0070:    6C 58 72 10 01 02 80  01 80 00                  lXr.......     
```

#### Opcodes

```
  0: 0x0071 [0x6C] FADE_ENTITY_COLOR(entity_id=Unnamed NPC (ID: 17855064/0x01107258), end_alpha=0*, fade_time=1*)
  1: 0x007A [0x00] END_REQSTACK()
```

### Event 65535.13

#### Metadata

| Field        | Value    |
|--------------|----------|
| Entrypoint   | 0x007B   |
| Data Size    | 49 bytes |
| Instructions | 5        |

```
      00 01 02 03 04 05 06 07  08 09 0A 0B 0C 0D 0E 0F
      -- -- -- -- -- -- -- --  -- -- -- -- -- -- -- --
0070:                                   BA 52 72 10 01             .Rr..
0080: 03 80 04 80 05 80 06 80  BA 54 72 10 01 03 80 04  .........Tr.....
0090: 80 05 80 06 80 BA F0 FF  FF 7F 07 80 08 80 09 80  ................
00A0: 0A 80 4A F0 FF FF 7F 52  72 10 01 00              ..J....Rr...    
```

#### Opcodes

```
  0: 0x007B [0xBA] SET_ENTITY_POSITION(entity_id=Arciela (ID: 17855058/0x01107252), pos_x=248.000*, pos_z=120.000*, pos_y=-0.250*, direction=270.0°*)
  1: 0x0088 [0xBA] SET_ENTITY_POSITION(entity_id=Unnamed NPC (ID: 17855060/0x01107254), pos_x=248.000*, pos_z=120.000*, pos_y=-0.250*, direction=270.0°*)
  2: 0x0095 [0xBA] SET_ENTITY_POSITION(entity_id=LocalPlayer, pos_x=249.502*, pos_z=125.123*, pos_y=0.388*, direction=109.4°*)
  3: 0x00A2 [0x4A] LocalPlayer looks at Arciela (ID: 17855058/0x01107252)
  4: 0x00AB [0x00] END_REQSTACK()
```
