# 17855093

## Common Data

| Field            | Value                  |
|------------------|------------------------|
| Zone             | Yorcia Weald (ID: 263) |
| Block Size       | 1048 bytes             |
| Total Events     | 29                     |
| References Count | 51                     |

## List of Events

| Event ID                   | Entrypoint   |   Size |   Instructions |
|----------------------------|--------------|--------|----------------|
| [65535](#event-65535)      | 0x0000       |      1 |              1 |
| [121](#event-121)          | 0x0001       |     45 |              4 |
| [65535.1](#event-655351)   | 0x002E       |      7 |              3 |
| [65535.2](#event-655352)   | 0x0035       |      7 |              3 |
| [65535.3](#event-655353)   | 0x003C       |     16 |              4 |
| [65535.4](#event-655354)   | 0x004C       |     19 |              3 |
| [65535.5](#event-655355)   | 0x005F       |     19 |              3 |
| [65535.6](#event-655356)   | 0x0072       |     19 |              5 |
| [65535.7](#event-655357)   | 0x0085       |     19 |              5 |
| [126](#event-126)          | 0x0098       |     21 |              2 |
| [128](#event-128)          | 0x00AD       |     21 |              2 |
| [65535.8](#event-655358)   | 0x00C2       |     25 |              3 |
| [65535.9](#event-655359)   | 0x00DB       |     25 |              3 |
| [65535.10](#event-6553510) | 0x00F4       |     25 |              3 |
| [65535.11](#event-6553511) | 0x010D       |     53 |              6 |
| [65535.12](#event-6553512) | 0x0142       |     12 |              5 |
| [65535.13](#event-6553513) | 0x014E       |     12 |              5 |
| [65535.14](#event-6553514) | 0x015A       |     45 |             13 |
| [65535.15](#event-6553515) | 0x0187       |     21 |              7 |
| [65535.16](#event-6553516) | 0x019C       |     21 |              7 |
| [65535.17](#event-6553517) | 0x01B1       |     56 |             10 |
| [65535.18](#event-6553518) | 0x01E9       |     13 |              3 |
| [65535.19](#event-6553519) | 0x01F6       |     29 |              3 |
| [65535.20](#event-6553520) | 0x0213       |     33 |              3 |
| [65535.21](#event-6553521) | 0x0234       |     33 |              3 |
| [65535.22](#event-6553522) | 0x0255       |     33 |              3 |
| [65535.23](#event-6553523) | 0x0276       |     33 |              3 |
| [65535.24](#event-6553524) | 0x0297       |     33 |              3 |
| [65535.25](#event-6553525) | 0x02B8       |     16 |              4 |

## DAT References (imed_data)

|   Index | Hex Value   |   Dec Value |
|---------|-------------|-------------|
|       0 | 0x0007      |           7 |
|       1 | 0x001A      |          26 |
|       2 | 0x0000      |           0 |
|       3 | 0x0064      |         100 |
|       4 | 0x00AB      |         171 |
|       5 | 0x01C0      |         448 |
|       6 | 0x0001      |           1 |
|       7 | 0x005A      |          90 |
|       8 | 0x00C7      |         199 |
|       9 | 0x005C      |          92 |
|      10 | 0x0068      |         104 |
|      11 | 0x0028      |          40 |
|      12 | 0x36689     |      222857 |
|      13 | 0xFFFEC5C4  |  4294886852 |
|      14 | 0x018C      |         396 |
|      15 | 0x3969B     |      235163 |
|      16 | 0xFFFF062B  |  4294903339 |
|      17 | 0x0146      |         326 |
|      18 | 0x0003      |           3 |
|      19 | 0x001C      |          28 |
|      20 | 0x0149      |         329 |
|      21 | 0x0060      |          96 |
|      22 | 0x00B8      |         184 |
|      23 | 0x0039      |          57 |
|      24 | 0x0265      |         613 |
|      25 | 0x0002      |           2 |
|      26 | 0x0004      |           4 |
|      27 | 0x0134      |         308 |
|      28 | 0x0082      |         130 |
|      29 | 0x0084      |         132 |
|      30 | 0x0078      |         120 |
|      31 | 0xFFFE34DE  |  4294849758 |
|      32 | 0xFFFF6E67  |  4294930023 |
|      33 | 0xFFFFDF08  |  4294958856 |
|      34 | 0xFFFE2DE5  |  4294847973 |
|      35 | 0xFFFF7114  |  4294930708 |
|      36 | 0xFFFFE065  |  4294959205 |
|      37 | 0x0014      |          20 |
|      38 | 0xFFFE410D  |  4294852877 |
|      39 | 0xFFFF79C1  |  4294932929 |
|      40 | 0xFFFFDD0C  |  4294958348 |
|      41 | 0xFFFE3C8A  |  4294851722 |
|      42 | 0xFFFF759A  |  4294931866 |
|      43 | 0xFFFFDDE6  |  4294958566 |
|      44 | 0x0050      |          80 |
|      45 | 0x001E      |          30 |
|      46 | 0x009D      |         157 |
|      47 | 0x009E      |         158 |
|      48 | 0x0551      |        1361 |
|      49 | 0x006E      |         110 |
|      50 | 0x001D      |          29 |

## Events

### Event 65535

#### Metadata

| Field        | Value   |
|--------------|---------|
| Entrypoint   | 0x0000  |
| Data Size    | 1 bytes |
| Instructions | 1       |

```
      00 01 02 03 04 05 06 07  08 09 0A 0B 0C 0D 0E 0F
      -- -- -- -- -- -- -- --  -- -- -- -- -- -- -- --
0000: 00                                                .               
```

#### Opcodes

```
  0: 0x0000 [0x00] END_REQSTACK()
```

### Event 121

#### Metadata

| Field        | Value    |
|--------------|----------|
| Entrypoint   | 0x0001   |
| Data Size    | 45 bytes |
| Instructions | 4        |

```
      00 01 02 03 04 05 06 07  08 09 0A 0B 0C 0D 0E 0F
      -- -- -- -- -- -- -- --  -- -- -- -- -- -- -- --
0000:    B6 0B 00 80 01 80 02  80 03 80 03 80 04 80 03   ...............
0010: 80 05 80 02 80 B4 13 00  00 59 61 68 73 65 40 4B  .........Yahse@K
0020: 61 72 69 65 79 68 00 00  00 B5 00 00 00 00        arieyh........  
```

#### Opcodes

```
  0: 0x0001 [0xB6] ENTITY_APPEARANCE_HANDLER(case=Full entity look, race=7*, hair=26*, head=0*, body=100*, hands=100*, legs=171*, feet=100*, main=448*, sub=0*)
  1: 0x0015 [0xB4] UI_WINDOW_STRING_HANDLER(case=0x13 - Copy string and replace @ with space, work_offset=ExtData[1]->WorkLocal[0], string="Yahse@Karieyh")
  2: 0x0029 [0xB5] SET_EVENT_ENTITY_NAME: Change EventEntity name to ExtData[1]->WorkLocal[0]
  3: 0x002D [0x00] END_REQSTACK()
```

### Event 65535.1

#### Metadata

| Field        | Value   |
|--------------|---------|
| Entrypoint   | 0x002E  |
| Data Size    | 7 bytes |
| Instructions | 3       |

```
      00 01 02 03 04 05 06 07  08 09 0A 0B 0C 0D 0E 0F
      -- -- -- -- -- -- -- --  -- -- -- -- -- -- -- --
0020:                                            AB 03                ..
0030: AC 01 06 80 00                                    .....           
```

#### Opcodes

```
  0: 0x002E [0xAB] EventEntity->Render.Flags0 ^= 0x20000 // Toggle bit 17
  1: 0x0030 [0xAC] EventEntity->StatusEvent = 1*
  2: 0x0034 [0x00] END_REQSTACK()
```

### Event 65535.2

#### Metadata

| Field        | Value   |
|--------------|---------|
| Entrypoint   | 0x0035  |
| Data Size    | 7 bytes |
| Instructions | 3       |

```
      00 01 02 03 04 05 06 07  08 09 0A 0B 0C 0D 0E 0F
      -- -- -- -- -- -- -- --  -- -- -- -- -- -- -- --
0030:                AC 01 02  80 AB 04 00                   .......    
```

#### Opcodes

```
  0: 0x0035 [0xAC] EventEntity->StatusEvent = 0*
  1: 0x0039 [0xAB] EventEntity->Render.Flags0 |= 0x40000 // Set bit 18
  2: 0x003B [0x00] END_REQSTACK()
```

### Event 65535.3

#### Metadata

| Field        | Value    |
|--------------|----------|
| Entrypoint   | 0x003C   |
| Data Size    | 16 bytes |
| Instructions | 4        |

```
      00 01 02 03 04 05 06 07  08 09 0A 0B 0C 0D 0E 0F
      -- -- -- -- -- -- -- --  -- -- -- -- -- -- -- --
0030:                                      6E F8 FF FF              n...
0040: 7F 02 80 99 F8 FF FF 7F  1C 07 80 00              ............    
```

#### Opcodes

```
  0: 0x003C [0x6E] EventEntity uses emote 0*
  1: 0x0043 [0x99] Wait for EventEntity animation to complete
  2: 0x0048 [0x1C] WAIT(90* ticks)
  3: 0x004B [0x00] END_REQSTACK()
```

### Event 65535.4

#### Metadata

| Field        | Value    |
|--------------|----------|
| Entrypoint   | 0x004C   |
| Data Size    | 19 bytes |
| Instructions | 3        |

```
      00 01 02 03 04 05 06 07  08 09 0A 0B 0C 0D 0E 0F
      -- -- -- -- -- -- -- --  -- -- -- -- -- -- -- --
0040:                                      66 08 80 F8              f...
0050: FF FF 7F F8 FF FF 7F 74  6C 6B 30 1C 09 80 00     .......tlk0.... 
```

#### Opcodes

```
  0: 0x004C [0x66] LOAD_EXT_SCHEDULER_MAIN: Load scheduler "tlk0" with entities [EventEntity, EventEntity], work=199*
  1: 0x005B [0x1C] WAIT(92* ticks)
  2: 0x005E [0x00] END_REQSTACK()
```

### Event 65535.5

#### Metadata

| Field        | Value    |
|--------------|----------|
| Entrypoint   | 0x005F   |
| Data Size    | 19 bytes |
| Instructions | 3        |

```
      00 01 02 03 04 05 06 07  08 09 0A 0B 0C 0D 0E 0F
      -- -- -- -- -- -- -- --  -- -- -- -- -- -- -- --
0050:                                               66                 f
0060: 08 80 F8 FF FF 7F F8 FF  FF 7F 74 6C 6B 31 1C 0A  ..........tlk1..
0070: 80 00                                             ..              
```

#### Opcodes

```
  0: 0x005F [0x66] LOAD_EXT_SCHEDULER_MAIN: Load scheduler "tlk1" with entities [EventEntity, EventEntity], work=199*
  1: 0x006E [0x1C] WAIT(104* ticks)
  2: 0x0071 [0x00] END_REQSTACK()
```

### Event 65535.6

#### Metadata

| Field        | Value    |
|--------------|----------|
| Entrypoint   | 0x0072   |
| Data Size    | 19 bytes |
| Instructions | 5        |

```
      00 01 02 03 04 05 06 07  08 09 0A 0B 0C 0D 0E 0F
      -- -- -- -- -- -- -- --  -- -- -- -- -- -- -- --
0070:       32 0B 80 1F 00 0C  80 0D 80 0E 80 1F 01 1E    2.............
0080: 79 72 10 01 00                                    yr...           
```

#### Opcodes

```
  0: 0x0072 [0x32] ExtData[1]->MainSpeed = 40* * 0.1
  1: 0x0075 [0x1F] MOVE_ENTITY: EventEntity moves to X=222.857*, Z=-80.444*, Y=0.396*
  2: 0x007D [0x1F] MOVE_ENTITY: Update entity position (mode=1)
  3: 0x007F [0x1E] EventEntity looks at Unnamed NPC (ID: 17855097/0x01107279) and starts talking
  4: 0x0084 [0x00] END_REQSTACK()
```

### Event 65535.7

#### Metadata

| Field        | Value    |
|--------------|----------|
| Entrypoint   | 0x0085   |
| Data Size    | 19 bytes |
| Instructions | 5        |

```
      00 01 02 03 04 05 06 07  08 09 0A 0B 0C 0D 0E 0F
      -- -- -- -- -- -- -- --  -- -- -- -- -- -- -- --
0080:                32 0B 80  1F 00 0F 80 10 80 11 80       2..........
0090: 1F 01 1E 79 72 10 01 00                           ...yr...        
```

#### Opcodes

```
  0: 0x0085 [0x32] ExtData[1]->MainSpeed = 40* * 0.1
  1: 0x0088 [0x1F] MOVE_ENTITY: EventEntity moves to X=235.163*, Z=-63.957*, Y=0.326*
  2: 0x0090 [0x1F] MOVE_ENTITY: Update entity position (mode=1)
  3: 0x0092 [0x1E] EventEntity looks at Unnamed NPC (ID: 17855097/0x01107279) and starts talking
  4: 0x0097 [0x00] END_REQSTACK()
```

### Event 126

#### Metadata

| Field        | Value    |
|--------------|----------|
| Entrypoint   | 0x0098   |
| Data Size    | 21 bytes |
| Instructions | 2        |

```
      00 01 02 03 04 05 06 07  08 09 0A 0B 0C 0D 0E 0F
      -- -- -- -- -- -- -- --  -- -- -- -- -- -- -- --
0090:                          B6 0B 12 80 13 80 11 80          ........
00A0: 14 80 15 80 16 80 17 80  18 80 02 80 00           .............   
```

#### Opcodes

```
  0: 0x0098 [0xB6] ENTITY_APPEARANCE_HANDLER(case=Full entity look, race=3*, hair=28*, head=326*, body=329*, hands=96*, legs=184*, feet=57*, main=613*, sub=0*)
  1: 0x00AC [0x00] END_REQSTACK()
```

### Event 128

#### Metadata

| Field        | Value    |
|--------------|----------|
| Entrypoint   | 0x00AD   |
| Data Size    | 21 bytes |
| Instructions | 2        |

```
      00 01 02 03 04 05 06 07  08 09 0A 0B 0C 0D 0E 0F
      -- -- -- -- -- -- -- --  -- -- -- -- -- -- -- --
00A0:                                         B6 0B 19               ...
00B0: 80 1A 80 1B 80 1C 80 1B  80 1D 80 1B 80 02 80 02  ................
00C0: 80 00                                             ..              
```

#### Opcodes

```
  0: 0x00AD [0xB6] ENTITY_APPEARANCE_HANDLER(case=Full entity look, race=2*, hair=4*, head=308*, body=130*, hands=308*, legs=132*, feet=308*, main=0*, sub=0*)
  1: 0x00C1 [0x00] END_REQSTACK()
```

### Event 65535.8

#### Metadata

| Field        | Value    |
|--------------|----------|
| Entrypoint   | 0x00C2   |
| Data Size    | 25 bytes |
| Instructions | 3        |

```
      00 01 02 03 04 05 06 07  08 09 0A 0B 0C 0D 0E 0F
      -- -- -- -- -- -- -- --  -- -- -- -- -- -- -- --
00C0:       B4 00 00 00 4C 6F  6C 61 00 00 00 00 00 00    ....Lola......
00D0: 00 00 00 00 00 00 B5 00  00 00 00                 ...........     
```

#### Opcodes

```
  0: 0x00C2 [0xB4] UI_WINDOW_STRING_HANDLER(case=0x00 - Copy string from opcode, work_offset=ExtData[1]->WorkLocal[0], string="Lola")
  1: 0x00D6 [0xB5] SET_EVENT_ENTITY_NAME: Change EventEntity name to ExtData[1]->WorkLocal[0]
  2: 0x00DA [0x00] END_REQSTACK()
```

### Event 65535.9

#### Metadata

| Field        | Value    |
|--------------|----------|
| Entrypoint   | 0x00DB   |
| Data Size    | 25 bytes |
| Instructions | 3        |

```
      00 01 02 03 04 05 06 07  08 09 0A 0B 0C 0D 0E 0F
      -- -- -- -- -- -- -- --  -- -- -- -- -- -- -- --
00D0:                                   B4 00 00 00 47             ....G
00E0: 65 6F 6D 61 6E 63 65 72  00 00 00 00 00 00 00 B5  eomancer........
00F0: 00 00 00 00                                       ....            
```

#### Opcodes

```
  0: 0x00DB [0xB4] UI_WINDOW_STRING_HANDLER(case=0x00 - Copy string from opcode, work_offset=ExtData[1]->WorkLocal[0], string="Geomancer")
  1: 0x00EF [0xB5] SET_EVENT_ENTITY_NAME: Change EventEntity name to ExtData[1]->WorkLocal[0]
  2: 0x00F3 [0x00] END_REQSTACK()
```

### Event 65535.10

#### Metadata

| Field        | Value    |
|--------------|----------|
| Entrypoint   | 0x00F4   |
| Data Size    | 25 bytes |
| Instructions | 3        |

```
      00 01 02 03 04 05 06 07  08 09 0A 0B 0C 0D 0E 0F
      -- -- -- -- -- -- -- --  -- -- -- -- -- -- -- --
00F0:             B4 00 00 00  3F 3F 3F 00 00 00 00 00      ....???.....
0100: 00 00 00 00 00 00 00 00  B5 00 00 00 00           .............   
```

#### Opcodes

```
  0: 0x00F4 [0xB4] UI_WINDOW_STRING_HANDLER(case=0x00 - Copy string from opcode, work_offset=ExtData[1]->WorkLocal[0], string="???")
  1: 0x0108 [0xB5] SET_EVENT_ENTITY_NAME: Change EventEntity name to ExtData[1]->WorkLocal[0]
  2: 0x010C [0x00] END_REQSTACK()
```

### Event 65535.11

#### Metadata

| Field        | Value    |
|--------------|----------|
| Entrypoint   | 0x010D   |
| Data Size    | 53 bytes |
| Instructions | 6        |

```
      00 01 02 03 04 05 06 07  08 09 0A 0B 0C 0D 0E 0F
      -- -- -- -- -- -- -- --  -- -- -- -- -- -- -- --
0100:                                         B6 0B 06               ...
0110: 80 02 80 02 80 02 80 02  80 02 80 02 80 02 80 02  ................
0120: 80 B4 00 00 00 00 00 00  00 00 00 00 00 00 00 00  ................
0130: 00 00 00 00 00 B5 00 00  00 22 01 2F 01 F8 FF FF  ........."./....
0140: 7F 00                                             ..              
```

#### Opcodes

```
  0: 0x010D [0xB6] ENTITY_APPEARANCE_HANDLER(case=Full entity look, race=1*, hair=0*, head=0*, body=0*, hands=0*, legs=0*, feet=0*, main=0*, sub=0*)
  1: 0x0121 [0xB4] UI_WINDOW_STRING_HANDLER(case=0x00 - Copy string from opcode, work_offset=ExtData[1]->WorkLocal[0], string="")
  2: 0x0135 [0xB5] SET_EVENT_ENTITY_NAME: Change EventEntity name to ExtData[1]->WorkLocal[0]
  3: 0x0139 [0x22] ENTITY_HIDE_FLAG(enabled=0x01)
  4: 0x013B [0x2F] EventEntity->Render.Flags0 |= 0x80000 // Bit 19
  5: 0x0141 [0x00] END_REQSTACK()
```

### Event 65535.12

#### Metadata

| Field        | Value    |
|--------------|----------|
| Entrypoint   | 0x0142   |
| Data Size    | 12 bytes |
| Instructions | 5        |

```
      00 01 02 03 04 05 06 07  08 09 0A 0B 0C 0D 0E 0F
      -- -- -- -- -- -- -- --  -- -- -- -- -- -- -- --
0140:       61 00 AB 03 AC 01  06 80 1C 1E 80 00          a...........  
```

#### Opcodes

```
  0: 0x0142 [0x61] EventEntity->Render.Flags2 &= ~0x00000001
  1: 0x0144 [0xAB] EventEntity->Render.Flags0 ^= 0x20000 // Toggle bit 17
  2: 0x0146 [0xAC] EventEntity->StatusEvent = 1*
  3: 0x014A [0x1C] WAIT(120* ticks)
  4: 0x014D [0x00] END_REQSTACK()
```

### Event 65535.13

#### Metadata

| Field        | Value    |
|--------------|----------|
| Entrypoint   | 0x014E   |
| Data Size    | 12 bytes |
| Instructions | 5        |

```
      00 01 02 03 04 05 06 07  08 09 0A 0B 0C 0D 0E 0F
      -- -- -- -- -- -- -- --  -- -- -- -- -- -- -- --
0140:                                            AC 01                ..
0150: 02 80 AB 04 1C 1E 80 61  01 00                    .......a..      
```

#### Opcodes

```
  0: 0x014E [0xAC] EventEntity->StatusEvent = 0*
  1: 0x0152 [0xAB] EventEntity->Render.Flags0 |= 0x40000 // Set bit 18
  2: 0x0154 [0x1C] WAIT(120* ticks)
  3: 0x0157 [0x61] EventEntity->Render.Flags2 |= 0x00000001
  4: 0x0159 [0x00] END_REQSTACK()
```

### Event 65535.14

#### Metadata

| Field        | Value    |
|--------------|----------|
| Entrypoint   | 0x015A   |
| Data Size    | 45 bytes |
| Instructions | 13       |

```
      00 01 02 03 04 05 06 07  08 09 0A 0B 0C 0D 0E 0F
      -- -- -- -- -- -- -- --  -- -- -- -- -- -- -- --
0150:                                32 0B 80 1F 00 1F            2.....
0160: 80 20 80 21 80 1F 01 1F  00 22 80 23 80 24 80 1F  . .!.....".#.$..
0170: 01 1E 79 72 10 01 6F 70  1C 25 80 4A 7B 72 10 01  ..yr..op.%.J{r..
0180: F8 FF FF 7F 6F 70 00                              ....op.         
```

#### Opcodes

```
  0: 0x015A [0x32] ExtData[1]->MainSpeed = 40* * 0.1
  1: 0x015D [0x1F] MOVE_ENTITY: EventEntity moves to X=-117.538*, Z=-37.273*, Y=-8.440*
  2: 0x0165 [0x1F] MOVE_ENTITY: Update entity position (mode=1)
  3: 0x0167 [0x1F] MOVE_ENTITY: EventEntity moves to X=-119.323*, Z=-36.588*, Y=-8.091*
  4: 0x016F [0x1F] MOVE_ENTITY: Update entity position (mode=1)
  5: 0x0171 [0x1E] EventEntity looks at Unnamed NPC (ID: 17855097/0x01107279) and starts talking
  6: 0x0176 [0x6F] WAIT_FRAME_DELAY: Yield until WaitTime reaches zero
  7: 0x0177 [0x70] WAIT_ENTITY_RENDER_FLAG: Wait while EventEntity->Render.Flags3 bit 2 is set (cancel turn if not)
  8: 0x0178 [0x1C] WAIT(20* ticks)
  9: 0x017B [0x4A] Unnamed NPC (ID: 17855099/0x0110727B) looks at EventEntity
 10: 0x0184 [0x6F] WAIT_FRAME_DELAY: Yield until WaitTime reaches zero
 11: 0x0185 [0x70] WAIT_ENTITY_RENDER_FLAG: Wait while EventEntity->Render.Flags3 bit 2 is set (cancel turn if not)
 12: 0x0186 [0x00] END_REQSTACK()
```

### Event 65535.15

#### Metadata

| Field        | Value    |
|--------------|----------|
| Entrypoint   | 0x0187   |
| Data Size    | 21 bytes |
| Instructions | 7        |

```
      00 01 02 03 04 05 06 07  08 09 0A 0B 0C 0D 0E 0F
      -- -- -- -- -- -- -- --  -- -- -- -- -- -- -- --
0180:                      32  0B 80 1F 00 26 80 27 80         2....&.'.
0190: 28 80 1F 01 1E 74 72 10  01 6F 70 00              (....tr..op.    
```

#### Opcodes

```
  0: 0x0187 [0x32] ExtData[1]->MainSpeed = 40* * 0.1
  1: 0x018A [0x1F] MOVE_ENTITY: EventEntity moves to X=-114.419*, Z=-34.367*, Y=-8.948*
  2: 0x0192 [0x1F] MOVE_ENTITY: Update entity position (mode=1)
  3: 0x0194 [0x1E] EventEntity looks at Unnamed NPC (ID: 17855092/0x01107274) and starts talking
  4: 0x0199 [0x6F] WAIT_FRAME_DELAY: Yield until WaitTime reaches zero
  5: 0x019A [0x70] WAIT_ENTITY_RENDER_FLAG: Wait while EventEntity->Render.Flags3 bit 2 is set (cancel turn if not)
  6: 0x019B [0x00] END_REQSTACK()
```

### Event 65535.16

#### Metadata

| Field        | Value    |
|--------------|----------|
| Entrypoint   | 0x019C   |
| Data Size    | 21 bytes |
| Instructions | 7        |

```
      00 01 02 03 04 05 06 07  08 09 0A 0B 0C 0D 0E 0F
      -- -- -- -- -- -- -- --  -- -- -- -- -- -- -- --
0190:                                      32 0B 80 1F              2...
01A0: 00 29 80 2A 80 2B 80 1F  01 1E 74 72 10 01 6F 70  .).*.+....tr..op
01B0: 00                                                .               
```

#### Opcodes

```
  0: 0x019C [0x32] ExtData[1]->MainSpeed = 40* * 0.1
  1: 0x019F [0x1F] MOVE_ENTITY: EventEntity moves to X=-115.574*, Z=-35.430*, Y=-8.730*
  2: 0x01A7 [0x1F] MOVE_ENTITY: Update entity position (mode=1)
  3: 0x01A9 [0x1E] EventEntity looks at Unnamed NPC (ID: 17855092/0x01107274) and starts talking
  4: 0x01AE [0x6F] WAIT_FRAME_DELAY: Yield until WaitTime reaches zero
  5: 0x01AF [0x70] WAIT_ENTITY_RENDER_FLAG: Wait while EventEntity->Render.Flags3 bit 2 is set (cancel turn if not)
  6: 0x01B0 [0x00] END_REQSTACK()
```

### Event 65535.17

#### Metadata

| Field        | Value    |
|--------------|----------|
| Entrypoint   | 0x01B1   |
| Data Size    | 56 bytes |
| Instructions | 10       |

```
      00 01 02 03 04 05 06 07  08 09 0A 0B 0C 0D 0E 0F
      -- -- -- -- -- -- -- --  -- -- -- -- -- -- -- --
01B0:    1E 74 72 10 01 6F 70  AD 00 2C 80 F8 FF FF 7F   .tr..op..,.....
01C0: 74 72 10 01 1C 1E 80 6C  74 72 10 01 02 80 2D 80  tr.....ltr....-.
01D0: AD 00 2C 80 F8 FF FF 7F  F8 FF FF 7F 1C 1E 80 6C  ..,............l
01E0: F8 FF FF 7F 02 80 2D 80  00                       ......-..       
```

#### Opcodes

```
  0: 0x01B1 [0x1E] EventEntity looks at Unnamed NPC (ID: 17855092/0x01107274) and starts talking
  1: 0x01B6 [0x6F] WAIT_FRAME_DELAY: Yield until WaitTime reaches zero
  2: 0x01B7 [0x70] WAIT_ENTITY_RENDER_FLAG: Wait while EventEntity->Render.Flags3 bit 2 is set (cancel turn if not)
  3: 0x01B8 [0xAD] DUAL_ENTITY_SCHEDULER_HANDLER: Execute sub-case 0 with entities [EventEntity, Unnamed NPC (ID: 17855092/0x01107274)], work=80*
  4: 0x01C4 [0x1C] WAIT(120* ticks)
  5: 0x01C7 [0x6C] FADE_ENTITY_COLOR(entity_id=Unnamed NPC (ID: 17855092/0x01107274), end_alpha=0*, fade_time=30*)
  6: 0x01D0 [0xAD] DUAL_ENTITY_SCHEDULER_HANDLER: Execute sub-case 0 with entities [EventEntity, EventEntity], work=80*
  7: 0x01DC [0x1C] WAIT(120* ticks)
  8: 0x01DF [0x6C] FADE_ENTITY_COLOR(entity_id=EventEntity, end_alpha=0*, fade_time=30*)
  9: 0x01E8 [0x00] END_REQSTACK()
```

### Event 65535.18

#### Metadata

| Field        | Value    |
|--------------|----------|
| Entrypoint   | 0x01E9   |
| Data Size    | 13 bytes |
| Instructions | 3        |

```
      00 01 02 03 04 05 06 07  08 09 0A 0B 0C 0D 0E 0F
      -- -- -- -- -- -- -- --  -- -- -- -- -- -- -- --
01E0:                             6B 69 64 6C 30 F8 FF           kidl0..
01F0: FF 7F 1C 2D 80 00                                 ...-..          
```

#### Opcodes

```
  0: 0x01E9 [0x6B] STOP_AND_IDLE: EventEntity stops current action and resets to idle (animation="idl0")
  1: 0x01F2 [0x1C] WAIT(30* ticks)
  2: 0x01F5 [0x00] END_REQSTACK()
```

### Event 65535.19

#### Metadata

| Field        | Value    |
|--------------|----------|
| Entrypoint   | 0x01F6   |
| Data Size    | 29 bytes |
| Instructions | 3        |

```
      00 01 02 03 04 05 06 07  08 09 0A 0B 0C 0D 0E 0F
      -- -- -- -- -- -- -- --  -- -- -- -- -- -- -- --
01F0:                   66 2E  80 F8 FF FF 7F F8 FF FF        f.........
0200: 7F 73 61 64 30 53 F8 FF  FF 7F F8 FF FF 7F 73 61  .sad0S........sa
0210: 64 30 00                                          d0.             
```

#### Opcodes

```
  0: 0x01F6 [0x66] LOAD_EXT_SCHEDULER_MAIN: Load scheduler "sad0" with entities [EventEntity, EventEntity], work=157*
  1: 0x0205 [0x53] WAIT_SCHEDULER_TASK: Wait for scheduler "sad0" with entities [EventEntity, EventEntity]
  2: 0x0212 [0x00] END_REQSTACK()
```

### Event 65535.20

#### Metadata

| Field        | Value    |
|--------------|----------|
| Entrypoint   | 0x0213   |
| Data Size    | 33 bytes |
| Instructions | 3        |

```
      00 01 02 03 04 05 06 07  08 09 0A 0B 0C 0D 0E 0F
      -- -- -- -- -- -- -- --  -- -- -- -- -- -- -- --
0210:          5F 06 2E 80 F8  FF FF 7F F8 FF FF 7F 73     _...........s
0220: 61 64 31 2C 80 5F 07 F8  FF FF 7F F8 FF FF 7F 73  ad1,._.........s
0230: 61 64 31 00                                       ad1.            
```

#### Opcodes

```
  0: 0x0213 [0x5F] MULTI_HANDLER_COMPLEX(mode=0x06 - Load ext scheduler with flag (OpCode 0x5B mode 1, flag 1), ref=157*, entity1=EventEntity, entity2=EventEntity, string="sad1", extra=80*)
  1: 0x0225 [0x5F] MULTI_HANDLER_COMPLEX(mode=0x07 - Wait scheduler task (OpCode 0x53))
  2: 0x0233 [0x00] END_REQSTACK()
```

### Event 65535.21

#### Metadata

| Field        | Value    |
|--------------|----------|
| Entrypoint   | 0x0234   |
| Data Size    | 33 bytes |
| Instructions | 3        |

```
      00 01 02 03 04 05 06 07  08 09 0A 0B 0C 0D 0E 0F
      -- -- -- -- -- -- -- --  -- -- -- -- -- -- -- --
0230:             5F 06 2F 80  F8 FF FF 7F F8 FF FF 7F      _./.........
0240: 74 6C 6B 30 2C 80 5F 07  F8 FF FF 7F F8 FF FF 7F  tlk0,._.........
0250: 74 6C 6B 30 00                                    tlk0.           
```

#### Opcodes

```
  0: 0x0234 [0x5F] MULTI_HANDLER_COMPLEX(mode=0x06 - Load ext scheduler with flag (OpCode 0x5B mode 1, flag 1), ref=158*, entity1=EventEntity, entity2=EventEntity, string="tlk0", extra=80*)
  1: 0x0246 [0x5F] MULTI_HANDLER_COMPLEX(mode=0x07 - Wait scheduler task (OpCode 0x53))
  2: 0x0254 [0x00] END_REQSTACK()
```

### Event 65535.22

#### Metadata

| Field        | Value    |
|--------------|----------|
| Entrypoint   | 0x0255   |
| Data Size    | 33 bytes |
| Instructions | 3        |

```
      00 01 02 03 04 05 06 07  08 09 0A 0B 0C 0D 0E 0F
      -- -- -- -- -- -- -- --  -- -- -- -- -- -- -- --
0250:                5F 06 2F  80 F8 FF FF 7F F8 FF FF       _./........
0260: 7F 74 6C 6B 31 2C 80 5F  07 F8 FF FF 7F F8 FF FF  .tlk1,._........
0270: 7F 74 6C 6B 31 00                                 .tlk1.          
```

#### Opcodes

```
  0: 0x0255 [0x5F] MULTI_HANDLER_COMPLEX(mode=0x06 - Load ext scheduler with flag (OpCode 0x5B mode 1, flag 1), ref=158*, entity1=EventEntity, entity2=EventEntity, string="tlk1", extra=80*)
  1: 0x0267 [0x5F] MULTI_HANDLER_COMPLEX(mode=0x07 - Wait scheduler task (OpCode 0x53))
  2: 0x0275 [0x00] END_REQSTACK()
```

### Event 65535.23

#### Metadata

| Field        | Value    |
|--------------|----------|
| Entrypoint   | 0x0276   |
| Data Size    | 33 bytes |
| Instructions | 3        |

```
      00 01 02 03 04 05 06 07  08 09 0A 0B 0C 0D 0E 0F
      -- -- -- -- -- -- -- --  -- -- -- -- -- -- -- --
0270:                   5F 05  30 80 F8 FF FF 7F F8 FF        _.0.......
0280: FF 7F 74 73 75 30 31 80  5F 07 F8 FF FF 7F F8 FF  ..tsu01._.......
0290: FF 7F 74 73 75 30 00                              ..tsu0.         
```

#### Opcodes

```
  0: 0x0276 [0x5F] MULTI_HANDLER_COMPLEX(mode=0x05 - Load ext scheduler with flag (OpCode 0x5B mode 0, flag 1), ref=1361*, entity1=EventEntity, entity2=EventEntity, string="tsu0", extra=110*)
  1: 0x0288 [0x5F] MULTI_HANDLER_COMPLEX(mode=0x07 - Wait scheduler task (OpCode 0x53))
  2: 0x0296 [0x00] END_REQSTACK()
```

### Event 65535.24

#### Metadata

| Field        | Value    |
|--------------|----------|
| Entrypoint   | 0x0297   |
| Data Size    | 33 bytes |
| Instructions | 3        |

```
      00 01 02 03 04 05 06 07  08 09 0A 0B 0C 0D 0E 0F
      -- -- -- -- -- -- -- --  -- -- -- -- -- -- -- --
0290:                      5F  05 30 80 F8 FF FF 7F F8         _.0......
02A0: FF FF 7F 74 6C 75 31 31  80 5F 07 F8 FF FF 7F F8  ...tlu11._......
02B0: FF FF 7F 74 6C 75 31 00                           ...tlu1.        
```

#### Opcodes

```
  0: 0x0297 [0x5F] MULTI_HANDLER_COMPLEX(mode=0x05 - Load ext scheduler with flag (OpCode 0x5B mode 0, flag 1), ref=1361*, entity1=EventEntity, entity2=EventEntity, string="tlu1", extra=110*)
  1: 0x02A9 [0x5F] MULTI_HANDLER_COMPLEX(mode=0x07 - Wait scheduler task (OpCode 0x53))
  2: 0x02B7 [0x00] END_REQSTACK()
```

### Event 65535.25

#### Metadata

| Field        | Value    |
|--------------|----------|
| Entrypoint   | 0x02B8   |
| Data Size    | 16 bytes |
| Instructions | 4        |

```
      00 01 02 03 04 05 06 07  08 09 0A 0B 0C 0D 0E 0F
      -- -- -- -- -- -- -- --  -- -- -- -- -- -- -- --
02B0:                          6E F8 FF FF 7F 32 80 99          n....2..
02C0: F8 FF FF 7F 1C 1C 80 00                           ........        
```

#### Opcodes

```
  0: 0x02B8 [0x6E] EventEntity uses emote 29*
  1: 0x02BF [0x99] Wait for EventEntity animation to complete
  2: 0x02C4 [0x1C] WAIT(130* ticks)
  3: 0x02C7 [0x00] END_REQSTACK()
```
