# 17855098

## Common Data

| Field            | Value                  |
|------------------|------------------------|
| Zone             | Yorcia Weald (ID: 263) |
| Block Size       | 1180 bytes             |
| Total Events     | 30                     |
| References Count | 40                     |

## List of Events

| Event ID                   | Entrypoint   |   Size |   Instructions |
|----------------------------|--------------|--------|----------------|
| [65535](#event-65535)      | 0x0000       |      1 |              1 |
| [121](#event-121)          | 0x0001       |      1 |              1 |
| [65535.1](#event-655351)   | 0x0002       |      9 |              3 |
| [65535.2](#event-655352)   | 0x000B       |     14 |              4 |
| [65535.3](#event-655353)   | 0x0019       |     14 |              4 |
| [128](#event-128)          | 0x0027       |      5 |              2 |
| [65535.4](#event-655354)   | 0x002C       |     37 |              6 |
| [65535.5](#event-655355)   | 0x0051       |     13 |              3 |
| [65535.6](#event-655356)   | 0x005E       |     27 |              5 |
| [65535.7](#event-655357)   | 0x0079       |     38 |              4 |
| [65535.8](#event-655358)   | 0x009F       |     33 |              3 |
| [65535.9](#event-655359)   | 0x00C0       |     38 |              4 |
| [65535.10](#event-6553510) | 0x00E6       |     38 |              4 |
| [65535.11](#event-6553511) | 0x010C       |     33 |              3 |
| [65535.12](#event-6553512) | 0x012D       |     38 |              4 |
| [65535.13](#event-6553513) | 0x0153       |     38 |              4 |
| [65535.14](#event-6553514) | 0x0179       |     33 |              3 |
| [65535.15](#event-6553515) | 0x019A       |     38 |              4 |
| [65535.16](#event-6553516) | 0x01C0       |     38 |              4 |
| [65535.17](#event-6553517) | 0x01E6       |     33 |              3 |
| [65535.18](#event-6553518) | 0x0207       |     38 |              4 |
| [65535.19](#event-6553519) | 0x022D       |     38 |              4 |
| [65535.20](#event-6553520) | 0x0253       |     38 |              4 |
| [65535.21](#event-6553521) | 0x0279       |     38 |              4 |
| [65535.22](#event-6553522) | 0x029F       |     33 |              3 |
| [65535.23](#event-6553523) | 0x02C0       |     38 |              4 |
| [65535.24](#event-6553524) | 0x02E6       |     38 |              4 |
| [65535.25](#event-6553525) | 0x030C       |     33 |              3 |
| [65535.26](#event-6553526) | 0x032D       |     38 |              4 |
| [65535.27](#event-6553527) | 0x0353       |     33 |              3 |

## DAT References (imed_data)

|   Index | Hex Value   |   Dec Value |
|---------|-------------|-------------|
|       0 | 0x0782      |        1922 |
|       1 | 0x0028      |          40 |
|       2 | 0x355F1     |      218609 |
|       3 | 0xFFFEB2B8  |  4294881976 |
|       4 | 0x0679      |        1657 |
|       5 | 0x37F48     |      229192 |
|       6 | 0xFFFF1980  |  4294908288 |
|       7 | 0x00F2      |         242 |
|       8 | 0x0AB6      |        2742 |
|       9 | 0x0034      |          52 |
|      10 | 0x001E      |          30 |
|      11 | 0x0105      |         261 |
|      12 | 0x006E      |         110 |
|      13 | 0x0000      |           0 |
|      14 | 0x0050      |          80 |
|      15 | 0x0DFB      |        3579 |
|      16 | 0x0048      |          72 |
|      17 | 0x0064      |         100 |
|      18 | 0x008C      |         140 |
|      19 | 0x0060      |          96 |
|      20 | 0x005C      |          92 |
|      21 | 0x0DFC      |        3580 |
|      22 | 0x00AC      |         172 |
|      23 | 0x00B0      |         176 |
|      24 | 0x0DFD      |        3581 |
|      25 | 0x0056      |          86 |
|      26 | 0x0067      |         103 |
|      27 | 0x00C8      |         200 |
|      28 | 0x0DFE      |        3582 |
|      29 | 0x00A1      |         161 |
|      30 | 0x0E19      |        3609 |
|      31 | 0x0100      |         256 |
|      32 | 0x0E1A      |        3610 |
|      33 | 0x013C      |         316 |
|      34 | 0x0E1C      |        3612 |
|      35 | 0x0078      |         120 |
|      36 | 0x0044      |          68 |
|      37 | 0x0E1E      |        3614 |
|      38 | 0x0118      |         280 |
|      39 | 0x007C      |         124 |

## Events

### Event 65535

#### Metadata

| Field        | Value   |
|--------------|---------|
| Entrypoint   | 0x0000  |
| Data Size    | 1 bytes |
| Instructions | 1       |

```
      00 01 02 03 04 05 06 07  08 09 0A 0B 0C 0D 0E 0F
      -- -- -- -- -- -- -- --  -- -- -- -- -- -- -- --
0000: 00                                                .               
```

#### Opcodes

```
  0: 0x0000 [0x00] END_REQSTACK()
```

### Event 121

#### Metadata

| Field        | Value   |
|--------------|---------|
| Entrypoint   | 0x0001  |
| Data Size    | 1 bytes |
| Instructions | 1       |

```
      00 01 02 03 04 05 06 07  08 09 0A 0B 0C 0D 0E 0F
      -- -- -- -- -- -- -- --  -- -- -- -- -- -- -- --
0000:    00                                              .              
```

#### Opcodes

```
  0: 0x0001 [0x00] END_REQSTACK()
```

### Event 65535.1

#### Metadata

| Field        | Value   |
|--------------|---------|
| Entrypoint   | 0x0002  |
| Data Size    | 9 bytes |
| Instructions | 3       |

```
      00 01 02 03 04 05 06 07  08 09 0A 0B 0C 0D 0E 0F
      -- -- -- -- -- -- -- --  -- -- -- -- -- -- -- --
0000:       B6 00 00 80 B6 0F  01 80 00                   .........     
```

#### Opcodes

```
  0: 0x0002 [0xB6] ENTITY_APPEARANCE_HANDLER(case=Hair style, value=1922*)
  1: 0x0006 [0xB6] ENTITY_APPEARANCE_HANDLER(case=Model size, value=40*)
  2: 0x000A [0x00] END_REQSTACK()
```

### Event 65535.2

#### Metadata

| Field        | Value    |
|--------------|----------|
| Entrypoint   | 0x000B   |
| Data Size    | 14 bytes |
| Instructions | 4        |

```
      00 01 02 03 04 05 06 07  08 09 0A 0B 0C 0D 0E 0F
      -- -- -- -- -- -- -- --  -- -- -- -- -- -- -- --
0000:                                   32 01 80 1F 00             2....
0010: 02 80 03 80 04 80 1F 01  00                       .........       
```

#### Opcodes

```
  0: 0x000B [0x32] ExtData[1]->MainSpeed = 40* * 0.1
  1: 0x000E [0x1F] MOVE_ENTITY: EventEntity moves to X=218.609*, Z=-85.320*, Y=1.657*
  2: 0x0016 [0x1F] MOVE_ENTITY: Update entity position (mode=1)
  3: 0x0018 [0x00] END_REQSTACK()
```

### Event 65535.3

#### Metadata

| Field        | Value    |
|--------------|----------|
| Entrypoint   | 0x0019   |
| Data Size    | 14 bytes |
| Instructions | 4        |

```
      00 01 02 03 04 05 06 07  08 09 0A 0B 0C 0D 0E 0F
      -- -- -- -- -- -- -- --  -- -- -- -- -- -- -- --
0010:                             32 01 80 1F 00 05 80           2......
0020: 06 80 07 80 1F 01 00                              .......         
```

#### Opcodes

```
  0: 0x0019 [0x32] ExtData[1]->MainSpeed = 40* * 0.1
  1: 0x001C [0x1F] MOVE_ENTITY: EventEntity moves to X=229.192*, Z=-59.008*, Y=0.242*
  2: 0x0024 [0x1F] MOVE_ENTITY: Update entity position (mode=1)
  3: 0x0026 [0x00] END_REQSTACK()
```

### Event 128

#### Metadata

| Field        | Value   |
|--------------|---------|
| Entrypoint   | 0x0027  |
| Data Size    | 5 bytes |
| Instructions | 2       |

```
      00 01 02 03 04 05 06 07  08 09 0A 0B 0C 0D 0E 0F
      -- -- -- -- -- -- -- --  -- -- -- -- -- -- -- --
0020:                      B6  00 08 80 00                     .....    
```

#### Opcodes

```
  0: 0x0027 [0xB6] ENTITY_APPEARANCE_HANDLER(case=Hair style, value=2742*)
  1: 0x002B [0x00] END_REQSTACK()
```

### Event 65535.4

#### Metadata

| Field        | Value    |
|--------------|----------|
| Entrypoint   | 0x002C   |
| Data Size    | 37 bytes |
| Instructions | 6        |

```
      00 01 02 03 04 05 06 07  08 09 0A 0B 0C 0D 0E 0F
      -- -- -- -- -- -- -- --  -- -- -- -- -- -- -- --
0020:                                      B6 00 09 80              ....
0030: B4 00 00 00 00 00 00 00  00 00 00 00 00 00 00 00  ................
0040: 00 00 00 00 B5 00 00 00  22 01 2F 01 F8 FF FF 7F  ........"./.....
0050: 00                                                .               
```

#### Opcodes

```
  0: 0x002C [0xB6] ENTITY_APPEARANCE_HANDLER(case=Hair style, value=52*)
  1: 0x0030 [0xB4] UI_WINDOW_STRING_HANDLER(case=0x00 - Copy string from opcode, work_offset=ExtData[1]->WorkLocal[0], string="")
  2: 0x0044 [0xB5] SET_EVENT_ENTITY_NAME: Change EventEntity name to ExtData[1]->WorkLocal[0]
  3: 0x0048 [0x22] ENTITY_HIDE_FLAG(enabled=0x01)
  4: 0x004A [0x2F] EventEntity->Render.Flags0 |= 0x80000 // Bit 19
  5: 0x0050 [0x00] END_REQSTACK()
```

### Event 65535.5

#### Metadata

| Field        | Value    |
|--------------|----------|
| Entrypoint   | 0x0051   |
| Data Size    | 13 bytes |
| Instructions | 3        |

```
      00 01 02 03 04 05 06 07  08 09 0A 0B 0C 0D 0E 0F
      -- -- -- -- -- -- -- --  -- -- -- -- -- -- -- --
0050:    6B 69 64 6C 30 F8 FF  FF 7F 1C 0A 80 00         kidl0........  
```

#### Opcodes

```
  0: 0x0051 [0x6B] STOP_AND_IDLE: EventEntity stops current action and resets to idle (animation="idl0")
  1: 0x005A [0x1C] WAIT(30* ticks)
  2: 0x005D [0x00] END_REQSTACK()
```

### Event 65535.6

#### Metadata

| Field        | Value    |
|--------------|----------|
| Entrypoint   | 0x005E   |
| Data Size    | 27 bytes |
| Instructions | 5        |

```
      00 01 02 03 04 05 06 07  08 09 0A 0B 0C 0D 0E 0F
      -- -- -- -- -- -- -- --  -- -- -- -- -- -- -- --
0050:                                            73 0B                s.
0060: 80 F0 FF FF 7F F8 FF FF  7F 1C 0C 80 6C F8 FF FF  ............l...
0070: 7F 0D 80 0A 80 1C 0E 80  00                       .........       
```

#### Opcodes

```
  0: 0x005E [0x73] LocalPlayer casts magic 261* on EventEntity
  1: 0x0069 [0x1C] WAIT(110* ticks)
  2: 0x006C [0x6C] FADE_ENTITY_COLOR(entity_id=EventEntity, end_alpha=0*, fade_time=30*)
  3: 0x0075 [0x1C] WAIT(80* ticks)
  4: 0x0078 [0x00] END_REQSTACK()
```

### Event 65535.7

#### Metadata

| Field        | Value    |
|--------------|----------|
| Entrypoint   | 0x0079   |
| Data Size    | 38 bytes |
| Instructions | 4        |

```
      00 01 02 03 04 05 06 07  08 09 0A 0B 0C 0D 0E 0F
      -- -- -- -- -- -- -- --  -- -- -- -- -- -- -- --
0070:                             7B F8 FF FF 7F 5F 05           {...._.
0080: 0F 80 F8 FF FF 7F F8 FF  FF 7F 74 6C 6B 30 10 80  ..........tlk0..
0090: 5F 07 F8 FF FF 7F F8 FF  FF 7F 74 6C 6B 30 00     _.........tlk0. 
```

#### Opcodes

```
  0: 0x0079 [0x7B] EventEntity stops talking
  1: 0x007E [0x5F] MULTI_HANDLER_COMPLEX(mode=0x05 - Load ext scheduler with flag (OpCode 0x5B mode 0, flag 1), ref=3579*, entity1=EventEntity, entity2=EventEntity, string="tlk0", extra=72*)
  2: 0x0090 [0x5F] MULTI_HANDLER_COMPLEX(mode=0x07 - Wait scheduler task (OpCode 0x53))
  3: 0x009E [0x00] END_REQSTACK()
```

### Event 65535.8

#### Metadata

| Field        | Value    |
|--------------|----------|
| Entrypoint   | 0x009F   |
| Data Size    | 33 bytes |
| Instructions | 3        |

```
      00 01 02 03 04 05 06 07  08 09 0A 0B 0C 0D 0E 0F
      -- -- -- -- -- -- -- --  -- -- -- -- -- -- -- --
0090:                                               5F                 _
00A0: 05 0F 80 F8 FF FF 7F F8  FF FF 7F 74 6C 6B 31 11  ...........tlk1.
00B0: 80 5F 07 F8 FF FF 7F F8  FF FF 7F 74 6C 6B 31 00  ._.........tlk1.
```

#### Opcodes

```
  0: 0x009F [0x5F] MULTI_HANDLER_COMPLEX(mode=0x05 - Load ext scheduler with flag (OpCode 0x5B mode 0, flag 1), ref=3579*, entity1=EventEntity, entity2=EventEntity, string="tlk1", extra=100*)
  1: 0x00B1 [0x5F] MULTI_HANDLER_COMPLEX(mode=0x07 - Wait scheduler task (OpCode 0x53))
  2: 0x00BF [0x00] END_REQSTACK()
```

### Event 65535.9

#### Metadata

| Field        | Value    |
|--------------|----------|
| Entrypoint   | 0x00C0   |
| Data Size    | 38 bytes |
| Instructions | 4        |

```
      00 01 02 03 04 05 06 07  08 09 0A 0B 0C 0D 0E 0F
      -- -- -- -- -- -- -- --  -- -- -- -- -- -- -- --
00C0: 7B F8 FF FF 7F 5F 05 0F  80 F8 FF FF 7F F8 FF FF  {...._..........
00D0: 7F 74 6C 6B 32 12 80 5F  07 F8 FF FF 7F F8 FF FF  .tlk2.._........
00E0: 7F 74 6C 6B 32 00                                 .tlk2.          
```

#### Opcodes

```
  0: 0x00C0 [0x7B] EventEntity stops talking
  1: 0x00C5 [0x5F] MULTI_HANDLER_COMPLEX(mode=0x05 - Load ext scheduler with flag (OpCode 0x5B mode 0, flag 1), ref=3579*, entity1=EventEntity, entity2=EventEntity, string="tlk2", extra=140*)
  2: 0x00D7 [0x5F] MULTI_HANDLER_COMPLEX(mode=0x07 - Wait scheduler task (OpCode 0x53))
  3: 0x00E5 [0x00] END_REQSTACK()
```

### Event 65535.10

#### Metadata

| Field        | Value    |
|--------------|----------|
| Entrypoint   | 0x00E6   |
| Data Size    | 38 bytes |
| Instructions | 4        |

```
      00 01 02 03 04 05 06 07  08 09 0A 0B 0C 0D 0E 0F
      -- -- -- -- -- -- -- --  -- -- -- -- -- -- -- --
00E0:                   7B F8  FF FF 7F 5F 05 0F 80 F8        {...._....
00F0: FF FF 7F F8 FF FF 7F 74  68 6B 30 13 80 5F 07 F8  .......thk0.._..
0100: FF FF 7F F8 FF FF 7F 74  68 6B 30 00              .......thk0.    
```

#### Opcodes

```
  0: 0x00E6 [0x7B] EventEntity stops talking
  1: 0x00EB [0x5F] MULTI_HANDLER_COMPLEX(mode=0x05 - Load ext scheduler with flag (OpCode 0x5B mode 0, flag 1), ref=3579*, entity1=EventEntity, entity2=EventEntity, string="thk0", extra=96*)
  2: 0x00FD [0x5F] MULTI_HANDLER_COMPLEX(mode=0x07 - Wait scheduler task (OpCode 0x53))
  3: 0x010B [0x00] END_REQSTACK()
```

### Event 65535.11

#### Metadata

| Field        | Value    |
|--------------|----------|
| Entrypoint   | 0x010C   |
| Data Size    | 33 bytes |
| Instructions | 3        |

```
      00 01 02 03 04 05 06 07  08 09 0A 0B 0C 0D 0E 0F
      -- -- -- -- -- -- -- --  -- -- -- -- -- -- -- --
0100:                                      5F 05 0F 80              _...
0110: F8 FF FF 7F F8 FF FF 7F  74 68 6B 31 14 80 5F 07  ........thk1.._.
0120: F8 FF FF 7F F8 FF FF 7F  74 68 6B 31 00           ........thk1.   
```

#### Opcodes

```
  0: 0x010C [0x5F] MULTI_HANDLER_COMPLEX(mode=0x05 - Load ext scheduler with flag (OpCode 0x5B mode 0, flag 1), ref=3579*, entity1=EventEntity, entity2=EventEntity, string="thk1", extra=92*)
  1: 0x011E [0x5F] MULTI_HANDLER_COMPLEX(mode=0x07 - Wait scheduler task (OpCode 0x53))
  2: 0x012C [0x00] END_REQSTACK()
```

### Event 65535.12

#### Metadata

| Field        | Value    |
|--------------|----------|
| Entrypoint   | 0x012D   |
| Data Size    | 38 bytes |
| Instructions | 4        |

```
      00 01 02 03 04 05 06 07  08 09 0A 0B 0C 0D 0E 0F
      -- -- -- -- -- -- -- --  -- -- -- -- -- -- -- --
0120:                                         7B F8 FF               {..
0130: FF 7F 5F 05 15 80 F8 FF  FF 7F F8 FF FF 7F 79 61  .._...........ya
0140: 72 30 16 80 5F 07 F8 FF  FF 7F F8 FF FF 7F 79 61  r0.._.........ya
0150: 72 30 00                                          r0.             
```

#### Opcodes

```
  0: 0x012D [0x7B] EventEntity stops talking
  1: 0x0132 [0x5F] MULTI_HANDLER_COMPLEX(mode=0x05 - Load ext scheduler with flag (OpCode 0x5B mode 0, flag 1), ref=3580*, entity1=EventEntity, entity2=EventEntity, string="yar0", extra=172*)
  2: 0x0144 [0x5F] MULTI_HANDLER_COMPLEX(mode=0x07 - Wait scheduler task (OpCode 0x53))
  3: 0x0152 [0x00] END_REQSTACK()
```

### Event 65535.13

#### Metadata

| Field        | Value    |
|--------------|----------|
| Entrypoint   | 0x0153   |
| Data Size    | 38 bytes |
| Instructions | 4        |

```
      00 01 02 03 04 05 06 07  08 09 0A 0B 0C 0D 0E 0F
      -- -- -- -- -- -- -- --  -- -- -- -- -- -- -- --
0150:          7B F8 FF FF 7F  5F 05 15 80 F8 FF FF 7F     {...._.......
0160: F8 FF FF 7F 61 6B 69 30  13 80 5F 07 F8 FF FF 7F  ....aki0.._.....
0170: F8 FF FF 7F 61 6B 69 30  00                       ....aki0.       
```

#### Opcodes

```
  0: 0x0153 [0x7B] EventEntity stops talking
  1: 0x0158 [0x5F] MULTI_HANDLER_COMPLEX(mode=0x05 - Load ext scheduler with flag (OpCode 0x5B mode 0, flag 1), ref=3580*, entity1=EventEntity, entity2=EventEntity, string="aki0", extra=96*)
  2: 0x016A [0x5F] MULTI_HANDLER_COMPLEX(mode=0x07 - Wait scheduler task (OpCode 0x53))
  3: 0x0178 [0x00] END_REQSTACK()
```

### Event 65535.14

#### Metadata

| Field        | Value    |
|--------------|----------|
| Entrypoint   | 0x0179   |
| Data Size    | 33 bytes |
| Instructions | 3        |

```
      00 01 02 03 04 05 06 07  08 09 0A 0B 0C 0D 0E 0F
      -- -- -- -- -- -- -- --  -- -- -- -- -- -- -- --
0170:                             5F 05 15 80 F8 FF FF           _......
0180: 7F F8 FF FF 7F 61 6B 69  31 14 80 5F 07 F8 FF FF  .....aki1.._....
0190: 7F F8 FF FF 7F 61 6B 69  31 00                    .....aki1.      
```

#### Opcodes

```
  0: 0x0179 [0x5F] MULTI_HANDLER_COMPLEX(mode=0x05 - Load ext scheduler with flag (OpCode 0x5B mode 0, flag 1), ref=3580*, entity1=EventEntity, entity2=EventEntity, string="aki1", extra=92*)
  1: 0x018B [0x5F] MULTI_HANDLER_COMPLEX(mode=0x07 - Wait scheduler task (OpCode 0x53))
  2: 0x0199 [0x00] END_REQSTACK()
```

### Event 65535.15

#### Metadata

| Field        | Value    |
|--------------|----------|
| Entrypoint   | 0x019A   |
| Data Size    | 38 bytes |
| Instructions | 4        |

```
      00 01 02 03 04 05 06 07  08 09 0A 0B 0C 0D 0E 0F
      -- -- -- -- -- -- -- --  -- -- -- -- -- -- -- --
0190:                                7B F8 FF FF 7F 5F            {...._
01A0: 05 15 80 F8 FF FF 7F F8  FF FF 7F 61 6B 69 32 17  ...........aki2.
01B0: 80 5F 07 F8 FF FF 7F F8  FF FF 7F 61 6B 69 32 00  ._.........aki2.
```

#### Opcodes

```
  0: 0x019A [0x7B] EventEntity stops talking
  1: 0x019F [0x5F] MULTI_HANDLER_COMPLEX(mode=0x05 - Load ext scheduler with flag (OpCode 0x5B mode 0, flag 1), ref=3580*, entity1=EventEntity, entity2=EventEntity, string="aki2", extra=176*)
  2: 0x01B1 [0x5F] MULTI_HANDLER_COMPLEX(mode=0x07 - Wait scheduler task (OpCode 0x53))
  3: 0x01BF [0x00] END_REQSTACK()
```

### Event 65535.16

#### Metadata

| Field        | Value    |
|--------------|----------|
| Entrypoint   | 0x01C0   |
| Data Size    | 38 bytes |
| Instructions | 4        |

```
      00 01 02 03 04 05 06 07  08 09 0A 0B 0C 0D 0E 0F
      -- -- -- -- -- -- -- --  -- -- -- -- -- -- -- --
01C0: 7B F8 FF FF 7F 5F 05 18  80 F8 FF FF 7F F8 FF FF  {...._..........
01D0: 7F 74 6C 61 30 19 80 5F  07 F8 FF FF 7F F8 FF FF  .tla0.._........
01E0: 7F 74 6C 61 30 00                                 .tla0.          
```

#### Opcodes

```
  0: 0x01C0 [0x7B] EventEntity stops talking
  1: 0x01C5 [0x5F] MULTI_HANDLER_COMPLEX(mode=0x05 - Load ext scheduler with flag (OpCode 0x5B mode 0, flag 1), ref=3581*, entity1=EventEntity, entity2=EventEntity, string="tla0", extra=86*)
  2: 0x01D7 [0x5F] MULTI_HANDLER_COMPLEX(mode=0x07 - Wait scheduler task (OpCode 0x53))
  3: 0x01E5 [0x00] END_REQSTACK()
```

### Event 65535.17

#### Metadata

| Field        | Value    |
|--------------|----------|
| Entrypoint   | 0x01E6   |
| Data Size    | 33 bytes |
| Instructions | 3        |

```
      00 01 02 03 04 05 06 07  08 09 0A 0B 0C 0D 0E 0F
      -- -- -- -- -- -- -- --  -- -- -- -- -- -- -- --
01E0:                   5F 05  18 80 F8 FF FF 7F F8 FF        _.........
01F0: FF 7F 74 6C 61 31 1A 80  5F 07 F8 FF FF 7F F8 FF  ..tla1.._.......
0200: FF 7F 74 6C 61 31 00                              ..tla1.         
```

#### Opcodes

```
  0: 0x01E6 [0x5F] MULTI_HANDLER_COMPLEX(mode=0x05 - Load ext scheduler with flag (OpCode 0x5B mode 0, flag 1), ref=3581*, entity1=EventEntity, entity2=EventEntity, string="tla1", extra=103*)
  1: 0x01F8 [0x5F] MULTI_HANDLER_COMPLEX(mode=0x07 - Wait scheduler task (OpCode 0x53))
  2: 0x0206 [0x00] END_REQSTACK()
```

### Event 65535.18

#### Metadata

| Field        | Value    |
|--------------|----------|
| Entrypoint   | 0x0207   |
| Data Size    | 38 bytes |
| Instructions | 4        |

```
      00 01 02 03 04 05 06 07  08 09 0A 0B 0C 0D 0E 0F
      -- -- -- -- -- -- -- --  -- -- -- -- -- -- -- --
0200:                      7B  F8 FF FF 7F 5F 05 18 80         {...._...
0210: F8 FF FF 7F F8 FF FF 7F  6C 61 68 30 1B 80 5F 07  ........lah0.._.
0220: F8 FF FF 7F F8 FF FF 7F  6C 61 68 30 00           ........lah0.   
```

#### Opcodes

```
  0: 0x0207 [0x7B] EventEntity stops talking
  1: 0x020C [0x5F] MULTI_HANDLER_COMPLEX(mode=0x05 - Load ext scheduler with flag (OpCode 0x5B mode 0, flag 1), ref=3581*, entity1=EventEntity, entity2=EventEntity, string="lah0", extra=200*)
  2: 0x021E [0x5F] MULTI_HANDLER_COMPLEX(mode=0x07 - Wait scheduler task (OpCode 0x53))
  3: 0x022C [0x00] END_REQSTACK()
```

### Event 65535.19

#### Metadata

| Field        | Value    |
|--------------|----------|
| Entrypoint   | 0x022D   |
| Data Size    | 38 bytes |
| Instructions | 4        |

```
      00 01 02 03 04 05 06 07  08 09 0A 0B 0C 0D 0E 0F
      -- -- -- -- -- -- -- --  -- -- -- -- -- -- -- --
0220:                                         7B F8 FF               {..
0230: FF 7F 5F 05 1C 80 F8 FF  FF 7F F8 FF FF 7F 6B 69  .._...........ki
0240: 6D 30 1D 80 5F 07 F8 FF  FF 7F F8 FF FF 7F 6B 69  m0.._.........ki
0250: 6D 30 00                                          m0.             
```

#### Opcodes

```
  0: 0x022D [0x7B] EventEntity stops talking
  1: 0x0232 [0x5F] MULTI_HANDLER_COMPLEX(mode=0x05 - Load ext scheduler with flag (OpCode 0x5B mode 0, flag 1), ref=3582*, entity1=EventEntity, entity2=EventEntity, string="kim0", extra=161*)
  2: 0x0244 [0x5F] MULTI_HANDLER_COMPLEX(mode=0x07 - Wait scheduler task (OpCode 0x53))
  3: 0x0252 [0x00] END_REQSTACK()
```

### Event 65535.20

#### Metadata

| Field        | Value    |
|--------------|----------|
| Entrypoint   | 0x0253   |
| Data Size    | 38 bytes |
| Instructions | 4        |

```
      00 01 02 03 04 05 06 07  08 09 0A 0B 0C 0D 0E 0F
      -- -- -- -- -- -- -- --  -- -- -- -- -- -- -- --
0250:          7B F8 FF FF 7F  5F 05 1E 80 F8 FF FF 7F     {...._.......
0260: F8 FF FF 7F 63 68 69 30  1F 80 5F 07 F8 FF FF 7F  ....chi0.._.....
0270: F8 FF FF 7F 63 68 69 30  00                       ....chi0.       
```

#### Opcodes

```
  0: 0x0253 [0x7B] EventEntity stops talking
  1: 0x0258 [0x5F] MULTI_HANDLER_COMPLEX(mode=0x05 - Load ext scheduler with flag (OpCode 0x5B mode 0, flag 1), ref=3609*, entity1=EventEntity, entity2=EventEntity, string="chi0", extra=256*)
  2: 0x026A [0x5F] MULTI_HANDLER_COMPLEX(mode=0x07 - Wait scheduler task (OpCode 0x53))
  3: 0x0278 [0x00] END_REQSTACK()
```

### Event 65535.21

#### Metadata

| Field        | Value    |
|--------------|----------|
| Entrypoint   | 0x0279   |
| Data Size    | 38 bytes |
| Instructions | 4        |

```
      00 01 02 03 04 05 06 07  08 09 0A 0B 0C 0D 0E 0F
      -- -- -- -- -- -- -- --  -- -- -- -- -- -- -- --
0270:                             7B F8 FF FF 7F 5F 05           {...._.
0280: 20 80 F8 FF FF 7F F8 FF  FF 7F 74 6C 62 30 10 80   .........tlb0..
0290: 5F 07 F8 FF FF 7F F8 FF  FF 7F 74 6C 62 30 00     _.........tlb0. 
```

#### Opcodes

```
  0: 0x0279 [0x7B] EventEntity stops talking
  1: 0x027E [0x5F] MULTI_HANDLER_COMPLEX(mode=0x05 - Load ext scheduler with flag (OpCode 0x5B mode 0, flag 1), ref=3610*, entity1=EventEntity, entity2=EventEntity, string="tlb0", extra=72*)
  2: 0x0290 [0x5F] MULTI_HANDLER_COMPLEX(mode=0x07 - Wait scheduler task (OpCode 0x53))
  3: 0x029E [0x00] END_REQSTACK()
```

### Event 65535.22

#### Metadata

| Field        | Value    |
|--------------|----------|
| Entrypoint   | 0x029F   |
| Data Size    | 33 bytes |
| Instructions | 3        |

```
      00 01 02 03 04 05 06 07  08 09 0A 0B 0C 0D 0E 0F
      -- -- -- -- -- -- -- --  -- -- -- -- -- -- -- --
0290:                                               5F                 _
02A0: 05 20 80 F8 FF FF 7F F8  FF FF 7F 74 6C 62 31 10  . .........tlb1.
02B0: 80 5F 07 F8 FF FF 7F F8  FF FF 7F 74 6C 62 31 00  ._.........tlb1.
```

#### Opcodes

```
  0: 0x029F [0x5F] MULTI_HANDLER_COMPLEX(mode=0x05 - Load ext scheduler with flag (OpCode 0x5B mode 0, flag 1), ref=3610*, entity1=EventEntity, entity2=EventEntity, string="tlb1", extra=72*)
  1: 0x02B1 [0x5F] MULTI_HANDLER_COMPLEX(mode=0x07 - Wait scheduler task (OpCode 0x53))
  2: 0x02BF [0x00] END_REQSTACK()
```

### Event 65535.23

#### Metadata

| Field        | Value    |
|--------------|----------|
| Entrypoint   | 0x02C0   |
| Data Size    | 38 bytes |
| Instructions | 4        |

```
      00 01 02 03 04 05 06 07  08 09 0A 0B 0C 0D 0E 0F
      -- -- -- -- -- -- -- --  -- -- -- -- -- -- -- --
02C0: 7B F8 FF FF 7F 5F 05 20  80 F8 FF FF 7F F8 FF FF  {...._. ........
02D0: 7F 74 6C 62 32 21 80 5F  07 F8 FF FF 7F F8 FF FF  .tlb2!._........
02E0: 7F 74 6C 62 32 00                                 .tlb2.          
```

#### Opcodes

```
  0: 0x02C0 [0x7B] EventEntity stops talking
  1: 0x02C5 [0x5F] MULTI_HANDLER_COMPLEX(mode=0x05 - Load ext scheduler with flag (OpCode 0x5B mode 0, flag 1), ref=3610*, entity1=EventEntity, entity2=EventEntity, string="tlb2", extra=316*)
  2: 0x02D7 [0x5F] MULTI_HANDLER_COMPLEX(mode=0x07 - Wait scheduler task (OpCode 0x53))
  3: 0x02E5 [0x00] END_REQSTACK()
```

### Event 65535.24

#### Metadata

| Field        | Value    |
|--------------|----------|
| Entrypoint   | 0x02E6   |
| Data Size    | 38 bytes |
| Instructions | 4        |

```
      00 01 02 03 04 05 06 07  08 09 0A 0B 0C 0D 0E 0F
      -- -- -- -- -- -- -- --  -- -- -- -- -- -- -- --
02E0:                   7B F8  FF FF 7F 5F 05 22 80 F8        {...._."..
02F0: FF FF 7F F8 FF FF 7F 6E  69 73 30 23 80 5F 07 F8  .......nis0#._..
0300: FF FF 7F F8 FF FF 7F 6E  69 73 30 00              .......nis0.    
```

#### Opcodes

```
  0: 0x02E6 [0x7B] EventEntity stops talking
  1: 0x02EB [0x5F] MULTI_HANDLER_COMPLEX(mode=0x05 - Load ext scheduler with flag (OpCode 0x5B mode 0, flag 1), ref=3612*, entity1=EventEntity, entity2=EventEntity, string="nis0", extra=120*)
  2: 0x02FD [0x5F] MULTI_HANDLER_COMPLEX(mode=0x07 - Wait scheduler task (OpCode 0x53))
  3: 0x030B [0x00] END_REQSTACK()
```

### Event 65535.25

#### Metadata

| Field        | Value    |
|--------------|----------|
| Entrypoint   | 0x030C   |
| Data Size    | 33 bytes |
| Instructions | 3        |

```
      00 01 02 03 04 05 06 07  08 09 0A 0B 0C 0D 0E 0F
      -- -- -- -- -- -- -- --  -- -- -- -- -- -- -- --
0300:                                      5F 05 22 80              _.".
0310: F8 FF FF 7F F8 FF FF 7F  6E 69 73 31 24 80 5F 07  ........nis1$._.
0320: F8 FF FF 7F F8 FF FF 7F  6E 69 73 31 00           ........nis1.   
```

#### Opcodes

```
  0: 0x030C [0x5F] MULTI_HANDLER_COMPLEX(mode=0x05 - Load ext scheduler with flag (OpCode 0x5B mode 0, flag 1), ref=3612*, entity1=EventEntity, entity2=EventEntity, string="nis1", extra=68*)
  1: 0x031E [0x5F] MULTI_HANDLER_COMPLEX(mode=0x07 - Wait scheduler task (OpCode 0x53))
  2: 0x032C [0x00] END_REQSTACK()
```

### Event 65535.26

#### Metadata

| Field        | Value    |
|--------------|----------|
| Entrypoint   | 0x032D   |
| Data Size    | 38 bytes |
| Instructions | 4        |

```
      00 01 02 03 04 05 06 07  08 09 0A 0B 0C 0D 0E 0F
      -- -- -- -- -- -- -- --  -- -- -- -- -- -- -- --
0320:                                         7B F8 FF               {..
0330: FF 7F 5F 05 25 80 F8 FF  FF 7F F8 FF FF 7F 68 61  .._.%.........ha
0340: 6B 30 26 80 5F 07 F8 FF  FF 7F F8 FF FF 7F 68 61  k0&._.........ha
0350: 6B 30 00                                          k0.             
```

#### Opcodes

```
  0: 0x032D [0x7B] EventEntity stops talking
  1: 0x0332 [0x5F] MULTI_HANDLER_COMPLEX(mode=0x05 - Load ext scheduler with flag (OpCode 0x5B mode 0, flag 1), ref=3614*, entity1=EventEntity, entity2=EventEntity, string="hak0", extra=280*)
  2: 0x0344 [0x5F] MULTI_HANDLER_COMPLEX(mode=0x07 - Wait scheduler task (OpCode 0x53))
  3: 0x0352 [0x00] END_REQSTACK()
```

### Event 65535.27

#### Metadata

| Field        | Value    |
|--------------|----------|
| Entrypoint   | 0x0353   |
| Data Size    | 33 bytes |
| Instructions | 3        |

```
      00 01 02 03 04 05 06 07  08 09 0A 0B 0C 0D 0E 0F
      -- -- -- -- -- -- -- --  -- -- -- -- -- -- -- --
0350:          5F 05 25 80 F8  FF FF 7F F8 FF FF 7F 68     _.%.........h
0360: 61 6B 31 27 80 5F 07 F8  FF FF 7F F8 FF FF 7F 68  ak1'._.........h
0370: 61 6B 31 00                                       ak1.            
```

#### Opcodes

```
  0: 0x0353 [0x5F] MULTI_HANDLER_COMPLEX(mode=0x05 - Load ext scheduler with flag (OpCode 0x5B mode 0, flag 1), ref=3614*, entity1=EventEntity, entity2=EventEntity, string="hak1", extra=124*)
  1: 0x0365 [0x5F] MULTI_HANDLER_COMPLEX(mode=0x07 - Wait scheduler task (OpCode 0x53))
  2: 0x0373 [0x00] END_REQSTACK()
```
