# 17855089

## Common Data

| Field            | Value                  |
|------------------|------------------------|
| Zone             | Yorcia Weald (ID: 263) |
| Block Size       | 16920 bytes            |
| Total Events     | 5                      |
| References Count | 253                    |

## List of Events

| Event ID              | Entrypoint   |   Size |   Instructions |
|-----------------------|--------------|--------|----------------|
| [65535](#event-65535) | 0x0000       |      1 |              1 |
| [5](#event-5)         | 0x0001       |    551 |             79 |
| [6](#event-6)         | 0x0228       |   5885 |            747 |
| [7](#event-7)         | 0x1925       |   4085 |            512 |
| [8](#event-8)         | 0x291A       |   5349 |            695 |

## DAT References (imed_data)

|   Index | Hex Value   |   Dec Value |
|---------|-------------|-------------|
|       0 | 0x0000      |           0 |
|       1 | 0x0190      |         400 |
|       2 | 0x00C8      |         200 |
|       3 | 0x003C      |          60 |
|       4 | 0x0013      |          19 |
|       5 | 0x28BD6     |      166870 |
|       6 | 0xB540      |       46400 |
|       7 | 0x006E      |         110 |
|       8 | 0x2597A     |      153978 |
|       9 | 0xC032      |       49202 |
|      10 | 0x026A      |         618 |
|      11 | 0x008C      |         140 |
|      12 | 0x0003      |           3 |
|      13 | 0x0050      |          80 |
|      14 | 0x02F0      |         752 |
|      15 | 0x0014      |          20 |
|      16 | 0x2256      |        8790 |
|      17 | 0x0005      |           5 |
|      18 | 0x0006      |           6 |
|      19 | 0x2257      |        8791 |
|      20 | 0x0007      |           7 |
|      21 | 0x003D      |          61 |
|      22 | 0x007F      |         127 |
|      23 | 0x0001      |           1 |
|      24 | 0x285A6     |      165286 |
|      25 | 0xA0A8      |       41128 |
|      26 | 0xFFFFFFAE  |  4294967214 |
|      27 | 0x0538      |        1336 |
|      28 | 0x26D09     |      158985 |
|      29 | 0x7A9D      |       31389 |
|      30 | 0xFFFFFEEE  |  4294967022 |
|      31 | 0x0554      |        1364 |
|      32 | 0x26752     |      157522 |
|      33 | 0x7B54      |       31572 |
|      34 | 0xFFFFFF7F  |  4294967167 |
|      35 | 0x0555      |        1365 |
|      36 | 0x00A1      |         161 |
|      37 | 0x0078      |         120 |
|      38 | 0x0032      |          50 |
|      39 | 0x2258      |        8792 |
|      40 | 0x001E      |          30 |
|      41 | 0x09EB      |        2539 |
|      42 | 0x2259      |        8793 |
|      43 | 0x0004      |           4 |
|      44 | 0x0008      |           8 |
|      45 | 0x225A      |        8794 |
|      46 | 0x225B      |        8795 |
|      47 | 0x225C      |        8796 |
|      48 | 0x225D      |        8797 |
|      49 | 0x0064      |         100 |
|      50 | 0x1E9E      |        7838 |
|      51 | 0x20EBE     |      134846 |
|      52 | 0xB1BC      |       45500 |
|      53 | 0x026E      |         622 |
|      54 | 0x1C874     |      116852 |
|      55 | 0xBA90      |       47760 |
|      56 | 0x00BA      |         186 |
|      57 | 0x225E      |        8798 |
|      58 | 0x1EDAA     |      126378 |
|      59 | 0xBC62      |       48226 |
|      60 | 0x0108      |         264 |
|      61 | 0x05BC      |        1468 |
|      62 | 0x0061      |          97 |
|      63 | 0x005A      |          90 |
|      64 | 0x1EDC6     |      126406 |
|      65 | 0xADBB      |       44475 |
|      66 | 0x008D      |         141 |
|      67 | 0x05BD      |        1469 |
|      68 | 0x0080      |         128 |
|      69 | 0x225F      |        8799 |
|      70 | 0x2260      |        8800 |
|      71 | 0x2261      |        8801 |
|      72 | 0x00C9      |         201 |
|      73 | 0x0590      |        1424 |
|      74 | 0x00A3      |         163 |
|      75 | 0x2263      |        8803 |
|      76 | 0x2262      |        8802 |
|      77 | 0x2264      |        8804 |
|      78 | 0x2265      |        8805 |
|      79 | 0xFFFFFC18  |  4294966296 |
|      80 | 0x2266      |        8806 |
|      81 | 0x2267      |        8807 |
|      82 | 0x2268      |        8808 |
|      83 | 0x2269      |        8809 |
|      84 | 0x0871      |        2161 |
|      85 | 0x226A      |        8810 |
|      86 | 0x001D      |          29 |
|      87 | 0x226B      |        8811 |
|      88 | 0x226C      |        8812 |
|      89 | 0x226D      |        8813 |
|      90 | 0x000A      |          10 |
|      91 | 0x226E      |        8814 |
|      92 | 0x0028      |          40 |
|      93 | 0x226F      |        8815 |
|      94 | 0x2270      |        8816 |
|      95 | 0x2271      |        8817 |
|      96 | 0x2272      |        8818 |
|      97 | 0x2273      |        8819 |
|      98 | 0x2274      |        8820 |
|      99 | 0x2275      |        8821 |
|     100 | 0x2276      |        8822 |
|     101 | 0x2277      |        8823 |
|     102 | 0x2278      |        8824 |
|     103 | 0x2279      |        8825 |
|     104 | 0x227A      |        8826 |
|     105 | 0xFFFD7644  |  4294800964 |
|     106 | 0x6813B     |      426299 |
|     107 | 0x0102      |         258 |
|     108 | 0x0DDF      |        3551 |
|     109 | 0xFFFDB7F2  |  4294817778 |
|     110 | 0x6CCBA     |      445626 |
|     111 | 0x0083      |         131 |
|     112 | 0x0D19      |        3353 |
|     113 | 0xFFFDAB6D  |  4294814573 |
|     114 | 0x6BBF4     |      441332 |
|     115 | 0x00A0      |         160 |
|     116 | 0x0DD0      |        3536 |
|     117 | 0x0002      |           2 |
|     118 | 0x009F      |         159 |
|     119 | 0x02EE      |         750 |
|     120 | 0x227B      |        8827 |
|     121 | 0x227C      |        8828 |
|     122 | 0x227D      |        8829 |
|     123 | 0x227E      |        8830 |
|     124 | 0x227F      |        8831 |
|     125 | 0x2280      |        8832 |
|     126 | 0x2281      |        8833 |
|     127 | 0x2282      |        8834 |
|     128 | 0x2283      |        8835 |
|     129 | 0x2284      |        8836 |
|     130 | 0x2285      |        8837 |
|     131 | 0x2286      |        8838 |
|     132 | 0x2287      |        8839 |
|     133 | 0x2288      |        8840 |
|     134 | 0x2289      |        8841 |
|     135 | 0x228A      |        8842 |
|     136 | 0x228B      |        8843 |
|     137 | 0x228C      |        8844 |
|     138 | 0x228D      |        8845 |
|     139 | 0x228E      |        8846 |
|     140 | 0x228F      |        8847 |
|     141 | 0x2290      |        8848 |
|     142 | 0x2291      |        8849 |
|     143 | 0x0020      |          32 |
|     144 | 0x2292      |        8850 |
|     145 | 0x2293      |        8851 |
|     146 | 0x2294      |        8852 |
|     147 | 0x2295      |        8853 |
|     148 | 0x2296      |        8854 |
|     149 | 0xFFFDB228  |  4294816296 |
|     150 | 0x6BEC6     |      442054 |
|     151 | 0x00CB      |         203 |
|     152 | 0x0CE7      |        3303 |
|     153 | 0x2297      |        8855 |
|     154 | 0x0CDF      |        3295 |
|     155 | 0x003E      |          62 |
|     156 | 0xFFFDB13C  |  4294816060 |
|     157 | 0x6C47E     |      443518 |
|     158 | 0x00DA      |         218 |
|     159 | 0x0DE0      |        3552 |
|     160 | 0x2298      |        8856 |
|     161 | 0xFFFDB920  |  4294818080 |
|     162 | 0x6CCF6     |      445686 |
|     163 | 0xFFFFF5FA  |  4294964730 |
|     164 | 0x0DAB      |        3499 |
|     165 | 0x2299      |        8857 |
|     166 | 0x229A      |        8858 |
|     167 | 0x0F0A      |        3850 |
|     168 | 0x0082      |         130 |
|     169 | 0x000B      |          11 |
|     170 | 0x229B      |        8859 |
|     171 | 0x229C      |        8860 |
|     172 | 0x229D      |        8861 |
|     173 | 0x229E      |        8862 |
|     174 | 0x0060      |          96 |
|     175 | 0x229F      |        8863 |
|     176 | 0x22A0      |        8864 |
|     177 | 0x22A1      |        8865 |
|     178 | 0x22A2      |        8866 |
|     179 | 0x22A3      |        8867 |
|     180 | 0x0039      |          57 |
|     181 | 0xFFFDA8A5  |  4294813861 |
|     182 | 0x6BC8A     |      441482 |
|     183 | 0x007E      |         126 |
|     184 | 0x0DBA      |        3514 |
|     185 | 0x03E8      |        1000 |
|     186 | 0xFFFDB098  |  4294815896 |
|     187 | 0x6B7CA     |      440266 |
|     188 | 0x00E4      |         228 |
|     189 | 0x0DB9      |        3513 |
|     190 | 0xFFFDA653  |  4294813267 |
|     191 | 0x6B40F     |      439311 |
|     192 | 0x0610      |        1552 |
|     193 | 0xFFFDB621  |  4294817313 |
|     194 | 0x68319     |      426777 |
|     195 | 0x0092      |         146 |
|     196 | 0x0B0B      |        2827 |
|     197 | 0xFFFDB233  |  4294816307 |
|     198 | 0x68A68     |      428648 |
|     199 | 0xFFFDAAA6  |  4294814374 |
|     200 | 0x68875     |      428149 |
|     201 | 0x001C      |          28 |
|     202 | 0x073E      |        1854 |
|     203 | 0xFFFD9AFE  |  4294810366 |
|     204 | 0x674EE     |      423150 |
|     205 | 0x0348      |         840 |
|     206 | 0x03B9      |         953 |
|     207 | 0x02F2      |         754 |
|     208 | 0x22A4      |        8868 |
|     209 | 0x00DC      |         220 |
|     210 | 0x22A5      |        8869 |
|     211 | 0x0400      |        1024 |
|     212 | 0x22A6      |        8870 |
|     213 | 0x0B1E      |        2846 |
|     214 | 0x22A7      |        8871 |
|     215 | 0x075A      |        1882 |
|     216 | 0x0A28      |        2600 |
|     217 | 0x22A8      |        8872 |
|     218 | 0x22A9      |        8873 |
|     219 | 0x22AA      |        8874 |
|     220 | 0x22AB      |        8875 |
|     221 | 0x22AC      |        8876 |
|     222 | 0x22AD      |        8877 |
|     223 | 0x22AE      |        8878 |
|     224 | 0x22AF      |        8879 |
|     225 | 0x22B0      |        8880 |
|     226 | 0x22B1      |        8881 |
|     227 | 0x22B2      |        8882 |
|     228 | 0x22B3      |        8883 |
|     229 | 0x22B4      |        8884 |
|     230 | 0xFFFDA692  |  4294813330 |
|     231 | 0x6AEBE     |      437950 |
|     232 | 0x007C      |         124 |
|     233 | 0x22B5      |        8885 |
|     234 | 0x22B6      |        8886 |
|     235 | 0x22B7      |        8887 |
|     236 | 0x22B8      |        8888 |
|     237 | 0x22B9      |        8889 |
|     238 | 0x22BA      |        8890 |
|     239 | 0x22BB      |        8891 |
|     240 | 0x22BC      |        8892 |
|     241 | 0x22BD      |        8893 |
|     242 | 0x22BE      |        8894 |
|     243 | 0x22BF      |        8895 |
|     244 | 0x22C0      |        8896 |
|     245 | 0x22C1      |        8897 |
|     246 | 0x089D      |        2205 |
|     247 | 0x22C2      |        8898 |
|     248 | 0x22C3      |        8899 |
|     249 | 0x22C4      |        8900 |
|     250 | 0x22C5      |        8901 |
|     251 | 0x22C6      |        8902 |
|     252 | 0x00D7      |         215 |

## String References

- **7838**: @@
- **8805**: What do you do? [Take Morimar's side./Take Ingrid's side.]
- **8848**: What do you tell Ingrid? [Alucia is right!/Ingrid? What's your take?]
- **8890**: How do you respond? [Will you be fine?/What about your mother's spirit?]

## Events

### Event 65535

#### Metadata

| Field        | Value   |
|--------------|---------|
| Entrypoint   | 0x0000  |
| Data Size    | 1 bytes |
| Instructions | 1       |

```
      00 01 02 03 04 05 06 07  08 09 0A 0B 0C 0D 0E 0F
      -- -- -- -- -- -- -- --  -- -- -- -- -- -- -- --
0000: 00                                                .               
```

#### Opcodes

```
  0: 0x0000 [0x00] END_REQSTACK()
```

### Event 5

#### Metadata

| Field        | Value     |
|--------------|-----------|
| Entrypoint   | 0x0001    |
| Data Size    | 551 bytes |
| Instructions | 79        |

```
      00 01 02 03 04 05 06 07  08 09 0A 0B 0C 0D 0E 0F
      -- -- -- -- -- -- -- --  -- -- -- -- -- -- -- --
0000:    20 01 42 46 01 5C A0  00 80 01 80 5C A1 00 80    .BF.\.....\...
0010: 01 80 45 02 80 F8 FF FF  7F F8 FF FF 7F 66 64 6F  ..E..........fdo
0020: 31 00 80 1C 03 80 38 04  80 2F 00 53 72 10 01 29  1.....8../.Sr..)
0030: 08 53 72 10 01 62 4E 00  53 72 10 01 4E 00 F0 FF  .Sr..bN.Sr..N...
0040: FF 7F BA F0 FF FF 7F 05  80 06 80 07 80 00 80 BA  ................
0050: 53 72 10 01 08 80 09 80  0A 80 0B 80 80 53 72 10  Sr...........Sr.
0060: 01 80 F0 FF FF 7F 92 01  53 72 10 01 94 01 53 72  ........Sr....Sr
0070: 10 01 6E F0 FF FF 7F 0C  80 99 F0 FF FF 7F 1C 0D  ..n.............
0080: 80 03 09 10 87 7F 45 0E  80 F8 FF FF 7F F8 FF FF  ......E.........
0090: 7F 73 30 30 30 00 80 27  08 53 72 10 01 5D 45 02  .s000..'.Sr..]E.
00A0: 80 F8 FF FF 7F F8 FF FF  7F 66 64 69 31 00 80 1C  .........fdi1...
00B0: 03 80 1C 0B 80 4A F0 FF  FF 7F 53 72 10 01 6F 76  .....J....Sr..ov
00C0: F0 FF FF 7F 1C 0F 80 52  0E 80 F8 FF FF 7F F8 FF  .......R........
00D0: FF 7F 73 30 30 30 45 0E  80 F8 FF FF 7F F8 FF FF  ..s000E.........
00E0: 7F 73 30 30 31 00 80 2B  53 72 10 01 10 80 23 79  .s001..+Sr....#y
00F0: 00 53 72 10 01 F0 FF FF  7F 52 0E 80 F8 FF FF 7F  .Sr......R......
0100: F8 FF FF 7F 73 30 30 31  03 09 10 87 7F 02 09 10  ....s001........
0110: 11 80 00 29 01 45 0E 80  F8 FF FF 7F F8 FF FF 7F  ...).E..........
0120: 73 30 32 30 00 80 01 56  01 02 09 10 12 80 00 45  s020...V.......E
0130: 01 45 0E 80 F8 FF FF 7F  F8 FF FF 7F 73 30 32 30  .E..........s020
0140: 00 80 01 56 01 45 0E 80  F8 FF FF 7F F8 FF FF 7F  ...V.E..........
0150: 73 30 30 32 00 80 2A 08  53 72 10 01 2B 53 72 10  s002..*.Sr..+Sr.
0160: 01 13 80 23 5C A0 00 80  01 80 5C A1 00 80 01 80  ...#\.....\.....
0170: 6E F0 FF FF 7F 14 80 99  F0 FF FF 7F 1C 03 80 7B  n..............{
0180: 53 72 10 01 27 08 53 72  10 01 5E 1C 0F 80 45 02  Sr..'.Sr..^...E.
0190: 80 F0 FF FF 7F F0 FF FF  7F 66 64 6F 31 00 80 1C  .........fdo1...
01A0: 03 80 02 09 10 11 80 00  BC 01 52 0E 80 F8 FF FF  ..........R.....
01B0: 7F F8 FF FF 7F 73 30 32  30 01 E5 01 02 09 10 12  .....s020.......
01C0: 80 00 D6 01 52 0E 80 F8  FF FF 7F F8 FF FF 7F 73  ....R..........s
01D0: 30 32 30 01 E5 01 52 0E  80 F8 FF FF 7F F8 FF FF  020...R.........
01E0: 7F 73 30 30 32 94 00 53  72 10 01 94 00 54 72 10  .s002..Sr....Tr.
01F0: 01 29 05 53 72 10 01 17  5C 00 15 80 5C 01 15 80  .).Sr...\...\...
0200: 9A 5D 16 80 17 80 4E 00  F0 FF FF 7F 80 F0 FF FF  .]....N.........
0210: 7F 46 00 45 02 80 F0 FF  FF 7F F0 FF FF 7F 66 64  .F.E..........fd
0220: 69 31 00 80 20 00 21 00                           i1.. .!.        
```

#### Opcodes

```
  0: 0x0001 [0x20] SET_CLI_EVENT_UC_FLAG: Lock player control
  1: 0x0003 [0x42] SET_CLI_EVENT_CANCEL_DATA()
  2: 0x0004 [0x46] CAMERA_CONTROL: Disable user control
  3: 0x0006 [0x5C] MUSIC_CONTROL: Set music volume to song 0*, fade_time=400*
  4: 0x000C [0x5C] MUSIC_CONTROL: Adjust music volume to song 0*, fade_time=400*
  5: 0x0012 [0x45] LOAD_SCHEDULED_TASK: Load scheduler "fdo1" with entities [EventEntity, EventEntity], work=[200*, 0*]
  6: 0x0023 [0x1C] WAIT(60* ticks)
  7: 0x0026 [0x38] SET_CLIENT_EVENT_MODE(mode=19*)
  8: 0x0029 [0x2F] Unnamed NPC (ID: 17855059/0x01107253)->Render.Flags0 &= ~0x80000 // Bit 19
  9: 0x002F [0x29] REQ_SET_WAIT(priority=0x08, entity_id=Unnamed NPC (ID: 17855059/0x01107253), tag_num=0x62)
 10: 0x0036 [0x4E] SET_ENTITY_HIDE_FLAG: Show Unnamed NPC (ID: 17855059/0x01107253)
 11: 0x003C [0x4E] SET_ENTITY_HIDE_FLAG: Show LocalPlayer
 12: 0x0042 [0xBA] SET_ENTITY_POSITION(entity_id=LocalPlayer, pos_x=166.870*, pos_z=46.400*, pos_y=0.110*, direction=0.0°*)
 13: 0x004F [0xBA] SET_ENTITY_POSITION(entity_id=Unnamed NPC (ID: 17855059/0x01107253), pos_x=153.978*, pos_z=49.202*, pos_y=0.618*, direction=12.3°*)
 14: 0x005C [0x80] LOAD_WAIT(entity=Unnamed NPC (ID: 17855059/0x01107253))
 15: 0x0061 [0x80] LOAD_WAIT(entity=LocalPlayer)
 16: 0x0066 [0x92] Unnamed NPC (ID: 17855059/0x01107253)->Render.Flags3 ^= 0x01
 17: 0x006C [0x94] Unnamed NPC (ID: 17855059/0x01107253)->Render.Flags3 ^= 0x01
 18: 0x0072 [0x6E] LocalPlayer uses emote 3*
 19: 0x0079 [0x99] Wait for LocalPlayer animation to complete
 20: 0x007E [0x1C] WAIT(80* ticks)
 21: 0x0081 [0x03] Work_Zone[9] = LocalPlayer->Race
 22: 0x0086 [0x45] LOAD_SCHEDULED_TASK: Load scheduler "s000" with entities [EventEntity, EventEntity], work=[752*, 0*]
 23: 0x0097 [0x27] REQ_SET(priority=0x08, entity_id=Unnamed NPC (ID: 17855059/0x01107253), tag_num=0x5D)
 24: 0x009E [0x45] LOAD_SCHEDULED_TASK: Load scheduler "fdi1" with entities [EventEntity, EventEntity], work=[200*, 0*]
 25: 0x00AF [0x1C] WAIT(60* ticks)
 26: 0x00B2 [0x1C] WAIT(140* ticks)
 27: 0x00B5 [0x4A] LocalPlayer looks at Unnamed NPC (ID: 17855059/0x01107253)
 28: 0x00BE [0x6F] WAIT_FRAME_DELAY: Yield until WaitTime reaches zero
 29: 0x00BF [0x76] CHECK_ENTITY_RENDER_FLAGS: Wait until LocalPlayer Render.Flags0 and Render.Flags3 conditions are met
 30: 0x00C4 [0x1C] WAIT(20* ticks)
 31: 0x00C7 [0x52] END_LOAD_SCHEDULER: End scheduler "s000" with entities [EventEntity, EventEntity], work=752*
 32: 0x00D6 [0x45] LOAD_SCHEDULED_TASK: Load scheduler "s001" with entities [EventEntity, EventEntity], work=[752*, 0*]
 33: 0x00E7 [0x2B] Unnamed NPC (ID: 17855059/0x01107253) [8790*]:
    → "So you have deigned to grace me with your presence. But...there appears to be nothing out of the ordinary."
 34: 0x00EE [0x23] WAIT_FOR_DIALOG_INTERACTION
 35: 0x00EF [0x79] Unnamed NPC (ID: 17855059/0x01107253) looks at LocalPlayer (Basic look)
 36: 0x00F9 [0x52] END_LOAD_SCHEDULER: End scheduler "s001" with entities [EventEntity, EventEntity], work=752*
 37: 0x0108 [0x03] Work_Zone[9] = LocalPlayer->Race
 38: 0x010D [0x02] IF !(Work_Zone[9] == 5*) GOTO 0x0129
 39: 0x0115 [0x45] LOAD_SCHEDULED_TASK: Load scheduler "s020" with entities [EventEntity, EventEntity], work=[752*, 0*]
 40: 0x0126 [0x01] GOTO 0x0156
 41: 0x0129 [0x02] IF !(Work_Zone[9] == 6*) GOTO 0x0145
 42: 0x0131 [0x45] LOAD_SCHEDULED_TASK: Load scheduler "s020" with entities [EventEntity, EventEntity], work=[752*, 0*]
 43: 0x0142 [0x01] GOTO 0x0156
 44: 0x0145 [0x45] LOAD_SCHEDULED_TASK: Load scheduler "s002" with entities [EventEntity, EventEntity], work=[752*, 0*]

SUBROUTINE_0156:
 45: 0x0156 [0x2A] GET_REQ_LEVEL(level=8, entity_id=Unnamed NPC (ID: 17855059/0x01107253))
 46: 0x015C [0x2B] Unnamed NPC (ID: 17855059/0x01107253) [8791*]:
    → "You undoubtedly have your hands full babysitting Arciela. I will remain here to make sure the area is safe."
 47: 0x0163 [0x23] WAIT_FOR_DIALOG_INTERACTION
 48: 0x0164 [0x5C] MUSIC_CONTROL: Set music volume to song 0*, fade_time=400*
 49: 0x016A [0x5C] MUSIC_CONTROL: Adjust music volume to song 0*, fade_time=400*
 50: 0x0170 [0x6E] LocalPlayer uses emote 7*
 51: 0x0177 [0x99] Wait for LocalPlayer animation to complete
 52: 0x017C [0x1C] WAIT(60* ticks)
 53: 0x017F [0x7B] Unnamed NPC (ID: 17855059/0x01107253) stops talking
 54: 0x0184 [0x27] REQ_SET(priority=0x08, entity_id=Unnamed NPC (ID: 17855059/0x01107253), tag_num=0x5E)
 55: 0x018B [0x1C] WAIT(20* ticks)
 56: 0x018E [0x45] LOAD_SCHEDULED_TASK: Load scheduler "fdo1" with entities [LocalPlayer, LocalPlayer], work=[200*, 0*]
 57: 0x019F [0x1C] WAIT(60* ticks)
 58: 0x01A2 [0x02] IF !(Work_Zone[9] == 5*) GOTO 0x01BC
 59: 0x01AA [0x52] END_LOAD_SCHEDULER: End scheduler "s020" with entities [EventEntity, EventEntity], work=752*
 60: 0x01B9 [0x01] GOTO 0x01E5
 61: 0x01BC [0x02] IF !(Work_Zone[9] == 6*) GOTO 0x01D6
 62: 0x01C4 [0x52] END_LOAD_SCHEDULER: End scheduler "s020" with entities [EventEntity, EventEntity], work=752*
 63: 0x01D3 [0x01] GOTO 0x01E5
 64: 0x01D6 [0x52] END_LOAD_SCHEDULER: End scheduler "s002" with entities [EventEntity, EventEntity], work=752*

SUBROUTINE_01E5:
 65: 0x01E5 [0x94] Unnamed NPC (ID: 17855059/0x01107253)->Render.Flags3 = Flags3  // No change (flag=0)
 66: 0x01EB [0x94] Unnamed NPC (ID: 17855060/0x01107254)->Render.Flags3 = Flags3  // No change (flag=0)
 67: 0x01F1 [0x29] REQ_SET_WAIT(priority=0x05, entity_id=Unnamed NPC (ID: 17855059/0x01107253), tag_num=0x17)
 68: 0x01F8 [0x5C] MUSIC_CONTROL: Set Idle (Day) music to song 61*
 69: 0x01FC [0x5C] MUSIC_CONTROL: Set Idle (Night) music to song 61*
 70: 0x0200 [0x9A] WAIT_MUSIC_SERVER()
 71: 0x0201 [0x5D] SET_MUSIC_VOLUME(volume=127*, fade_time=1*)
 72: 0x0206 [0x4E] SET_ENTITY_HIDE_FLAG: Show LocalPlayer
 73: 0x020C [0x80] LOAD_WAIT(entity=LocalPlayer)
 74: 0x0211 [0x46] CAMERA_CONTROL: Restore default settings
 75: 0x0213 [0x45] LOAD_SCHEDULED_TASK: Load scheduler "fdi1" with entities [LocalPlayer, LocalPlayer], work=[200*, 0*]
 76: 0x0224 [0x20] SET_CLI_EVENT_UC_FLAG: Unlock player control
 77: 0x0226 [0x21] END_EVENT
 78: 0x0227 [0x00] END_REQSTACK()
```

### Event 6

#### Metadata

| Field        | Value      |
|--------------|------------|
| Entrypoint   | 0x0228     |
| Data Size    | 5885 bytes |
| Instructions | 747        |

```
      00 01 02 03 04 05 06 07  08 09 0A 0B 0C 0D 0E 0F
      -- -- -- -- -- -- -- --  -- -- -- -- -- -- -- --
0220:                          20 01 42 03 00 00 05 10           .B.....
0230: 46 01 5C A0 00 80 01 80  5C A1 00 80 01 80 45 02  F.\.....\.....E.
0240: 80 F8 FF FF 7F F8 FF FF  7F 66 64 6F 31 00 80 1C  .........fdo1...
0250: 03 80 38 04 80 2F 00 53  72 10 01 2F 00 54 72 10  ..8../.Sr../.Tr.
0260: 01 2F 00 55 72 10 01 92  01 53 72 10 01 92 01 54  ./.Ur....Sr....T
0270: 72 10 01 92 01 55 72 10  01 29 08 53 72 10 01 62  r....Ur..).Sr..b
0280: 29 08 54 72 10 01 5A 29  08 55 72 10 01 51 94 01  ).Tr..Z).Ur..Q..
0290: 53 72 10 01 94 01 54 72  10 01 4E 00 53 72 10 01  Sr....Tr..N.Sr..
02A0: 4E 00 54 72 10 01 4E 01  55 72 10 01 4E 00 F0 FF  N.Tr..N.Ur..N...
02B0: FF 7F BA F0 FF FF 7F 18  80 19 80 1A 80 1B 80 BA  ................
02C0: 53 72 10 01 1C 80 1D 80  1E 80 1F 80 BA 54 72 10  Sr...........Tr.
02D0: 01 20 80 21 80 22 80 23  80 4A 53 72 10 01 54 72  . .!.".#.JSr..Tr
02E0: 10 01 4A F0 FF FF 7F 53  72 10 01 4A 54 72 10 01  ..J....Sr..JTr..
02F0: 53 72 10 01 6F 76 53 72  10 01 6F 76 54 72 10 01  Sr..ovSr..ovTr..
0300: 6F 76 F0 FF FF 7F 79 00  F0 FF FF 7F 54 72 10 01  ov....y.....Tr..
0310: 80 53 72 10 01 80 54 72  10 01 80 F0 FF FF 7F 5C  .Sr...Tr.......\
0320: 00 24 80 5C 01 24 80 9A  5D 16 80 17 80 29 08 54  .$.\.$..]....).T
0330: 72 10 01 22 29 08 53 72  10 01 19 45 0E 80 F8 FF  r..").Sr...E....
0340: FF 7F F8 FF FF 7F 73 30  30 33 00 80 45 02 80 F8  ......s003..E...
0350: FF FF 7F F8 FF FF 7F 66  64 69 31 00 80 27 08 F0  .......fdi1..'..
0360: FF FF 7F 2F 29 08 54 72  10 01 23 29 08 53 72 10  .../).Tr..#).Sr.
0370: 01 1A 29 08 54 72 10 01  24 1C 25 80 29 08 53 72  ..).Tr..$.%.).Sr
0380: 10 01 1B 52 0E 80 F8 FF  FF 7F F8 FF FF 7F 73 30  ...R..........s0
0390: 30 33 03 09 10 87 7F 02  09 10 11 80 00 B3 03 45  03.............E
03A0: 0E 80 F8 FF FF 7F F8 FF  FF 7F 73 30 33 33 00 80  ..........s033..
03B0: 01 E0 03 02 09 10 12 80  00 CF 03 45 0E 80 F8 FF  ...........E....
03C0: FF 7F F8 FF FF 7F 73 30  33 33 00 80 01 E0 03 45  ......s033.....E
03D0: 0E 80 F8 FF FF 7F F8 FF  FF 7F 73 30 30 34 00 80  ..........s004..
03E0: 1C 26 80 29 08 54 72 10  01 25 79 00 54 72 10 01  .&.).Tr..%y.Tr..
03F0: F0 FF FF 7F 2B 54 72 10  01 27 80 1C 28 80 79 00  ....+Tr..'..(.y.
0400: 53 72 10 01 F0 FF FF 7F  4B 53 72 10 01 29 80 6F  Sr......KSr..).o
0410: 76 53 72 10 01 23 79 00  F0 FF FF 7F 53 72 10 01  vSr..#y.....Sr..
0420: 2B 53 72 10 01 2A 80 23  02 09 10 11 80 00 42 04  +Sr..*.#......B.
0430: 52 0E 80 F8 FF FF 7F F8  FF FF 7F 73 30 33 33 01  R..........s033.
0440: 6B 04 02 09 10 12 80 00  5C 04 52 0E 80 F8 FF FF  k.......\.R.....
0450: 7F F8 FF FF 7F 73 30 33  33 01 6B 04 52 0E 80 F8  .....s033.k.R...
0460: FF FF 7F F8 FF FF 7F 73  30 30 34 02 09 10 0C 80  .......s004.....
0470: 00 87 04 45 0E 80 F8 FF  FF 7F F8 FF FF 7F 73 30  ...E..........s0
0480: 30 37 00 80 01 08 05 02  09 10 2B 80 00 A3 04 45  07........+....E
0490: 0E 80 F8 FF FF 7F F8 FF  FF 7F 73 30 30 37 00 80  ..........s007..
04A0: 01 08 05 02 09 10 11 80  00 BF 04 45 0E 80 F8 FF  ...........E....
04B0: FF 7F F8 FF FF 7F 73 30  33 34 00 80 01 08 05 02  ......s034......
04C0: 09 10 12 80 00 DB 04 45  0E 80 F8 FF FF 7F F8 FF  .......E........
04D0: FF 7F 73 30 33 34 00 80  01 08 05 02 09 10 2C 80  ..s034........,.
04E0: 00 F7 04 45 0E 80 F8 FF  FF 7F F8 FF FF 7F 73 30  ...E..........s0
04F0: 30 37 00 80 01 08 05 45  0E 80 F8 FF FF 7F F8 FF  07.....E........
0500: FF 7F 73 30 34 32 00 80  2A 08 F0 FF FF 7F 29 08  ..s042..*.....).
0510: F0 FF FF 7F 12 1C 25 80  29 08 F0 FF FF 7F 13 2B  ......%.)......+
0520: 53 72 10 01 2D 80 23 79  00 53 72 10 01 54 72 10  Sr..-.#y.Sr..Tr.
0530: 01 79 00 54 72 10 01 53  72 10 01 29 08 53 72 10  .y.Tr..Sr..).Sr.
0540: 01 35 29 08 54 72 10 01  1E 2B 53 72 10 01 2E 80  .5).Tr...+Sr....
0550: 1C 03 80 02 09 10 0C 80  00 6D 05 52 0E 80 F8 FF  .........m.R....
0560: FF 7F F8 FF FF 7F 73 30  30 37 01 E4 05 02 09 10  ......s007......
0570: 2B 80 00 87 05 52 0E 80  F8 FF FF 7F F8 FF FF 7F  +....R..........
0580: 73 30 30 37 01 E4 05 02  09 10 11 80 00 A1 05 52  s007...........R
0590: 0E 80 F8 FF FF 7F F8 FF  FF 7F 73 30 33 34 01 E4  ..........s034..
05A0: 05 02 09 10 12 80 00 BB  05 52 0E 80 F8 FF FF 7F  .........R......
05B0: F8 FF FF 7F 73 30 33 34  01 E4 05 02 09 10 2C 80  ....s034......,.
05C0: 00 D5 05 52 0E 80 F8 FF  FF 7F F8 FF FF 7F 73 30  ...R..........s0
05D0: 30 37 01 E4 05 52 0E 80  F8 FF FF 7F F8 FF FF 7F  07...R..........
05E0: 73 30 34 32 45 0E 80 F8  FF FF 7F F8 FF FF 7F 73  s042E..........s
05F0: 30 30 35 00 80 29 08 54  72 10 01 1F 29 08 53 72  005..).Tr...).Sr
0600: 10 01 36 23 52 0E 80 F8  FF FF 7F F8 FF FF 7F 73  ..6#R..........s
0610: 30 30 35 45 0E 80 F8 FF  FF 7F F8 FF FF 7F 73 30  005E..........s0
0620: 30 36 00 80 29 08 54 72  10 01 20 29 08 54 72 10  06..).Tr.. ).Tr.
0630: 01 36 2B 54 72 10 01 2F  80 1C 25 80 29 08 54 72  .6+Tr../..%.).Tr
0640: 10 01 21 29 08 54 72 10  01 1E 23 29 08 54 72 10  ..!).Tr...#).Tr.
0650: 01 37 02 00 00 17 80 04  89 06 79 00 54 72 10 01  .7........y.Tr..
0660: F0 FF FF 7F 29 08 54 72  10 01 20 2B 54 72 10 01  ....).Tr.. +Tr..
0670: 30 80 23 29 08 54 72 10  01 21 29 08 54 72 10 01  0.#).Tr..!).Tr..
0680: 1E 03 04 10 17 80 01 8E  06 03 04 10 00 80 5C A0  ..............\.
0690: 00 80 31 80 5C A1 00 80  31 80 45 02 80 F8 FF FF  ..1.\...1.E.....
06A0: 7F F8 FF FF 7F 66 64 6F  31 00 80 1C 03 80 52 0E  .....fdo1.....R.
06B0: 80 F8 FF FF 7F F8 FF FF  7F 73 30 30 36 7B 54 72  .........s006{Tr
06C0: 10 01 4E 01 F0 FF FF 7F  6C 54 72 10 01 00 80 17  ..N.....lTr.....
06D0: 80 1C 17 80 48 32 80 23  4E 00 55 72 10 01 80 55  ....H2.#N.Ur...U
06E0: 72 10 01 59 05 53 72 10  01 01 BA 53 72 10 01 33  r..Y.Sr....Sr..3
06F0: 80 34 80 35 80 00 80 BA  55 72 10 01 36 80 37 80  .4.5....Ur..6.7.
0700: 38 80 00 80 29 08 53 72  10 01 45 29 08 53 72 10  8...).Sr..E).Sr.
0710: 01 46 29 08 54 72 10 01  16 29 08 54 72 10 01 17  .F).Tr...).Tr...
0720: 27 08 55 72 10 01 4F 1C  28 80 45 0E 80 F8 FF FF  '.Ur..O.(.E.....
0730: 7F F8 FF FF 7F 73 30 30  38 00 80 1A DE 3D 22 00  .....s008....=".
0740: 2B 54 72 10 01 39 80 1C  02 80 80 F8 FF FF 7F BA  +Tr..9..........
0750: F8 FF FF 7F 3A 80 3B 80  3C 80 3D 80 52 0E 80 F8  ....:.;.<.=.R...
0760: FF FF 7F F8 FF FF 7F 73  30 30 38 45 0E 80 F8 FF  .......s008E....
0770: FF 7F F8 FF FF 7F 73 30  30 39 00 80 D0 3E 80 F8  ......s009...>..
0780: FF FF 7F F8 FF FF 7F 66  67 6F 6E 00 80 1C 3F 80  .......fgon...?.
0790: 23 2A 08 55 72 10 01 52  0E 80 F8 FF FF 7F F8 FF  #*.Ur..R........
07A0: FF 7F 73 30 30 39 45 0E  80 F8 FF FF 7F F8 FF FF  ..s009E.........
07B0: 7F 73 30 32 31 00 80 BA  54 72 10 01 40 80 41 80  .s021...Tr..@.A.
07C0: 42 80 43 80 6C 55 72 10  01 00 80 17 80 6C 54 72  B.C.lUr......lTr
07D0: 10 01 44 80 17 80 1C 28  80 2B 54 72 10 01 45 80  ..D....(.+Tr..E.
07E0: 23 52 0E 80 F8 FF FF 7F  F8 FF FF 7F 73 30 32 31  #R..........s021
07F0: 52 0E 80 F8 FF FF 7F F8  FF FF 7F 73 30 30 39 45  R..........s009E
0800: 0E 80 F8 FF FF 7F F8 FF  FF 7F 73 30 31 30 00 80  ..........s010..
0810: 29 08 54 72 10 01 4A 2B  55 72 10 01 46 80 23 29  ).Tr..J+Ur..F.#)
0820: 08 54 72 10 01 4B 52 0E  80 F8 FF FF 7F F8 FF FF  .Tr..KR.........
0830: 7F 73 30 31 30 45 0E 80  F8 FF FF 7F F8 FF FF 7F  .s010E..........
0840: 73 30 32 32 00 80 6C 55  72 10 01 44 80 17 80 6C  s022..lUr..D...l
0850: 54 72 10 01 00 80 17 80  29 08 55 72 10 01 4D 1C  Tr......).Ur..M.
0860: 17 80 1C 0F 80 52 0E 80  F8 FF FF 7F F8 FF FF 7F  .....R..........
0870: 73 30 32 32 45 0E 80 F8  FF FF 7F F8 FF FF 7F 73  s022E..........s
0880: 30 31 36 00 80 2B 55 72  10 01 47 80 1C 26 80 52  016..+Ur..G..&.R
0890: 0E 80 F8 FF FF 7F F8 FF  FF 7F 73 30 31 36 45 0E  ..........s016E.
08A0: 80 F8 FF FF 7F F8 FF FF  7F 73 30 34 35 00 80 1C  .........s045...
08B0: 26 80 45 48 80 F0 FF FF  7F F0 FF FF 7F 77 68 6F  &.EH.........who
08C0: 31 00 80 45 02 80 F8 FF  FF 7F F8 FF FF 7F 66 64  1..E..........fd
08D0: 69 31 00 80 55 48 80 F0  FF FF 7F F0 FF FF 7F 77  i1..UH.........w
08E0: 68 6F 31 52 0E 80 F8 FF  FF 7F F8 FF FF 7F 73 30  ho1R..........s0
08F0: 34 35 D0 3E 80 F8 FF FF  7F F8 FF FF 7F 66 67 6B  45.>.........fgk
0900: 6C 00 80 29 08 55 72 10  01 4E 23 45 0E 80 F8 FF  l..).Ur..N#E....
0910: FF 7F F8 FF FF 7F 73 65  30 33 00 80 1C 25 80 6C  ......se03...%.l
0920: 54 72 10 01 44 80 17 80  4E 01 55 72 10 01 4E 00  Tr..D...N.Ur..N.
0930: 54 72 10 01 80 54 72 10  01 27 08 54 72 10 01 59  Tr...Tr..'.Tr..Y
0940: 45 0E 80 F8 FF FF 7F F8  FF FF 7F 73 30 32 33 00  E..........s023.
0950: 80 45 48 80 F0 FF FF 7F  F0 FF FF 7F 77 68 69 31  .EH.........whi1
0960: 00 80 1A DE 3D 55 48 80  F0 FF FF 7F F0 FF FF 7F  ....=UH.........
0970: 77 68 69 31 1C 25 80 45  02 80 F8 FF FF 7F F8 FF  whi1.%.E........
0980: FF 7F 66 64 6F 31 00 80  1C 03 80 2A 08 54 72 10  ..fdo1.....*.Tr.
0990: 01 52 0E 80 F8 FF FF 7F  F8 FF FF 7F 73 30 32 33  .R..........s023
09A0: BA 53 72 10 01 1C 80 1D  80 1E 80 1F 80 BA 54 72  .Sr...........Tr
09B0: 10 01 20 80 21 80 22 80  23 80 4E 00 F0 FF FF 7F  .. .!.".#.N.....
09C0: 59 05 53 72 10 01 00 79  00 F0 FF FF 7F 54 72 10  Y.Sr...y.....Tr.
09D0: 01 4B F0 FF FF 7F 49 80  4A 53 72 10 01 54 72 10  .K....I.JSr..Tr.
09E0: 01 4A 54 72 10 01 F0 FF  FF 7F 6F 76 54 72 10 01  .JTr......ovTr..
09F0: 6F 76 53 72 10 01 6F 76  F0 FF FF 7F 29 08 54 72  ovSr..ov....).Tr
0A00: 10 01 2E 29 08 53 72 10  01 25 29 08 53 72 10 01  ...).Sr..%).Sr..
0A10: 26 80 F0 FF FF 7F 7C 01  54 72 10 01 48 32 80 23  &.....|.Tr..H2.#
0A20: 5C 00 4A 80 5C 01 4A 80  9A 5D 16 80 17 80 02 09  \.J.\.J..]......
0A30: 10 0C 80 00 4A 0A 45 0E  80 F8 FF FF 7F F8 FF FF  ....J.E.........
0A40: 7F 73 30 31 31 00 80 01  93 0A 02 09 10 2B 80 00  .s011........+..
0A50: 66 0A 45 0E 80 F8 FF FF  7F F8 FF FF 7F 73 30 31  f.E..........s01
0A60: 31 00 80 01 93 0A 02 09  10 2C 80 00 82 0A 45 0E  1........,....E.
0A70: 80 F8 FF FF 7F F8 FF FF  7F 73 30 31 31 00 80 01  .........s011...
0A80: 93 0A 45 0E 80 F8 FF FF  7F F8 FF FF 7F 73 30 33  ..E..........s03
0A90: 35 00 80 45 02 80 F8 FF  FF 7F F8 FF FF 7F 66 64  5..E..........fd
0AA0: 69 31 00 80 1C 3F 80 29  08 54 72 10 01 18 29 08  i1...?.).Tr...).
0AB0: 53 72 10 01 27 02 00 00  17 80 00 C8 0A 2B 54 72  Sr..'........+Tr
0AC0: 10 01 4B 80 23 01 D0 0A  2B 54 72 10 01 4C 80 23  ..K.#...+Tr..L.#
0AD0: 29 08 53 72 10 01 28 29  08 54 72 10 01 2F 29 08  ).Sr..().Tr../).
0AE0: 54 72 10 01 19 29 08 54  72 10 01 16 02 09 10 0C  Tr...).Tr.......
0AF0: 80 00 06 0B 52 0E 80 F8  FF FF 7F F8 FF FF 7F 73  ....R..........s
0B00: 30 31 31 01 49 0B 02 09  10 2B 80 00 20 0B 52 0E  011.I....+.. .R.
0B10: 80 F8 FF FF 7F F8 FF FF  7F 73 30 31 31 01 49 0B  .........s011.I.
0B20: 02 09 10 2C 80 00 3A 0B  52 0E 80 F8 FF FF 7F F8  ...,..:.R.......
0B30: FF FF 7F 73 30 31 31 01  49 0B 52 0E 80 F8 FF FF  ...s011.I.R.....
0B40: 7F F8 FF FF 7F 73 30 33  35 45 0E 80 F8 FF FF 7F  .....s035E......
0B50: F8 FF FF 7F 73 30 31 32  00 80 4A F0 FF FF 7F 53  ....s012..J....S
0B60: 72 10 01 29 08 54 72 10  01 30 79 00 54 72 10 01  r..).Tr..0y.Tr..
0B70: 53 72 10 01 29 08 53 72  10 01 41 2B 53 72 10 01  Sr..).Sr..A+Sr..
0B80: 4D 80 29 08 53 72 10 01  42 29 08 53 72 10 01 43  M.).Sr..B).Sr..C
0B90: 29 08 53 72 10 01 44 23  29 08 54 72 10 01 31 29  ).Sr..D#).Tr..1)
0BA0: 08 54 72 10 01 17 6F 76  F0 FF FF 7F 29 08 54 72  .Tr...ov....).Tr
0BB0: 10 01 2A 52 0E 80 F8 FF  FF 7F F8 FF FF 7F 73 30  ..*R..........s0
0BC0: 31 32 02 09 10 0C 80 00  DE 0B 45 0E 80 F8 FF FF  12........E.....
0BD0: 7F F8 FF FF 7F 73 30 32  34 00 80 01 5F 0C 02 09  .....s024..._...
0BE0: 10 2B 80 00 FA 0B 45 0E  80 F8 FF FF 7F F8 FF FF  .+....E.........
0BF0: 7F 73 30 32 34 00 80 01  5F 0C 02 09 10 11 80 00  .s024..._.......
0C00: 16 0C 45 0E 80 F8 FF FF  7F F8 FF FF 7F 73 30 33  ..E..........s03
0C10: 36 00 80 01 5F 0C 02 09  10 12 80 00 32 0C 45 0E  6..._.......2.E.
0C20: 80 F8 FF FF 7F F8 FF FF  7F 73 30 33 36 00 80 01  .........s036...
0C30: 5F 0C 02 09 10 2C 80 00  4E 0C 45 0E 80 F8 FF FF  _....,..N.E.....
0C40: 7F F8 FF FF 7F 73 30 32  34 00 80 01 5F 0C 45 0E  .....s024..._.E.
0C50: 80 F8 FF FF 7F F8 FF FF  7F 73 30 34 33 00 80 24  .........s043..$
0C60: 4E 80 00 80 00 80 25 02  00 10 00 80 00 A9 0D 79  N.....%........y
0C70: 00 53 72 10 01 F0 FF FF  7F 4B 53 72 10 01 4F 80  .Sr......KSr..O.
0C80: 6F 76 53 72 10 01 02 09  10 0C 80 00 A0 0C 52 0E  ovSr..........R.
0C90: 80 F8 FF FF 7F F8 FF FF  7F 73 30 32 34 01 17 0D  .........s024...
0CA0: 02 09 10 2B 80 00 BA 0C  52 0E 80 F8 FF FF 7F F8  ...+....R.......
0CB0: FF FF 7F 73 30 32 34 01  17 0D 02 09 10 11 80 00  ...s024.........
0CC0: D4 0C 52 0E 80 F8 FF FF  7F F8 FF FF 7F 73 30 33  ..R..........s03
0CD0: 36 01 17 0D 02 09 10 12  80 00 EE 0C 52 0E 80 F8  6...........R...
0CE0: FF FF 7F F8 FF FF 7F 73  30 33 36 01 17 0D 02 09  .......s036.....
0CF0: 10 2C 80 00 08 0D 52 0E  80 F8 FF FF 7F F8 FF FF  .,....R.........
0D00: 7F 73 30 32 34 01 17 0D  52 0E 80 F8 FF FF 7F F8  .s024...R.......
0D10: FF FF 7F 73 30 34 33 45  0E 80 F8 FF FF 7F F8 FF  ...s043E........
0D20: FF 7F 73 30 31 34 00 80  02 09 10 11 80 00 40 0D  ..s014........@.
0D30: 81 00 53 72 10 01 29 08  53 72 10 01 29 01 5F 0D  ..Sr..).Sr..)._.
0D40: 02 09 10 12 80 00 58 0D  81 00 53 72 10 01 29 08  ......X...Sr..).
0D50: 53 72 10 01 29 01 5F 0D  29 08 53 72 10 01 3B 2B  Sr..)._.).Sr..;+
0D60: 53 72 10 01 50 80 23 02  09 10 11 80 00 79 0D 29  Sr..P.#......y.)
0D70: 08 53 72 10 01 2A 01 92  0D 02 09 10 12 80 00 8B  .Sr..*..........
0D80: 0D 29 08 53 72 10 01 2A  01 92 0D 29 08 53 72 10  .).Sr..*...).Sr.
0D90: 01 3C 52 0E 80 F8 FF FF  7F F8 FF FF 7F 73 30 31  .<R..........s01
0DA0: 34 03 04 10 00 80 01 EB  0E 02 00 10 17 80 00 EB  4...............
0DB0: 0E 79 00 53 72 10 01 F0  FF FF 7F 4B 53 72 10 01  .y.Sr......KSr..
0DC0: 4F 80 6F 76 53 72 10 01  02 09 10 0C 80 00 E2 0D  O.ovSr..........
0DD0: 52 0E 80 F8 FF FF 7F F8  FF FF 7F 73 30 32 34 01  R..........s024.
0DE0: 59 0E 02 09 10 2B 80 00  FC 0D 52 0E 80 F8 FF FF  Y....+....R.....
0DF0: 7F F8 FF FF 7F 73 30 32  34 01 59 0E 02 09 10 11  .....s024.Y.....
0E00: 80 00 16 0E 52 0E 80 F8  FF FF 7F F8 FF FF 7F 73  ....R..........s
0E10: 30 33 36 01 59 0E 02 09  10 12 80 00 30 0E 52 0E  036.Y.......0.R.
0E20: 80 F8 FF FF 7F F8 FF FF  7F 73 30 33 36 01 59 0E  .........s036.Y.
0E30: 02 09 10 2C 80 00 4A 0E  52 0E 80 F8 FF FF 7F F8  ...,..J.R.......
0E40: FF FF 7F 73 30 32 34 01  59 0E 52 0E 80 F8 FF FF  ...s024.Y.R.....
0E50: 7F F8 FF FF 7F 73 30 34  33 45 0E 80 F8 FF FF 7F  .....s043E......
0E60: F8 FF FF 7F 73 30 31 34  00 80 02 09 10 11 80 00  ....s014........
0E70: 82 0E 81 00 53 72 10 01  29 08 53 72 10 01 29 01  ....Sr..).Sr..).
0E80: A1 0E 02 09 10 12 80 00  9A 0E 81 00 53 72 10 01  ............Sr..
0E90: 29 08 53 72 10 01 29 01  A1 0E 29 08 53 72 10 01  ).Sr..)...).Sr..
0EA0: 3B 2B 53 72 10 01 51 80  23 02 09 10 11 80 00 BB  ;+Sr..Q.#.......
0EB0: 0E 29 08 53 72 10 01 2A  01 D4 0E 02 09 10 12 80  .).Sr..*........
0EC0: 00 CD 0E 29 08 53 72 10  01 2A 01 D4 0E 29 08 53  ...).Sr..*...).S
0ED0: 72 10 01 3C 52 0E 80 F8  FF FF 7F F8 FF FF 7F 73  r..<R..........s
0EE0: 30 31 34 03 04 10 17 80  01 EB 0E 29 08 54 72 10  014........).Tr.
0EF0: 01 2B 02 09 10 11 80 00  0E 0F 45 0E 80 F8 FF FF  .+........E.....
0F00: 7F F8 FF FF 7F 73 30 33  37 00 80 01 3B 0F 02 09  .....s037...;...
0F10: 10 12 80 00 2A 0F 45 0E  80 F8 FF FF 7F F8 FF FF  ....*.E.........
0F20: 7F 73 30 33 37 00 80 01  3B 0F 45 0E 80 F8 FF FF  .s037...;.E.....
0F30: 7F F8 FF FF 7F 73 30 31  38 00 80 02 00 00 17 80  .....s018.......
0F40: 01 5B 11 02 09 10 11 80  00 62 0F 81 01 53 72 10  .[.......b...Sr.
0F50: 01 29 08 53 72 10 01 2B  29 08 53 72 10 01 2C 01  .).Sr..+).Sr..,.
0F60: 8F 0F 02 09 10 12 80 00  81 0F 81 01 53 72 10 01  ............Sr..
0F70: 29 08 53 72 10 01 2B 29  08 53 72 10 01 2C 01 8F  ).Sr..+).Sr..,..
0F80: 0F 29 08 53 72 10 01 3D  29 08 53 72 10 01 3E 2B  .).Sr..=).Sr..>+
0F90: 53 72 10 01 52 80 23 79  00 54 72 10 01 53 72 10  Sr..R.#y.Tr..Sr.
0FA0: 01 2B 53 72 10 01 53 80  1C 28 80 79 00 53 72 10  .+Sr..S..(.y.Sr.
0FB0: 01 54 72 10 01 4B 53 72  10 01 54 80 6F 76 53 72  .Tr..KSr..T.ovSr
0FC0: 10 01 23 02 09 10 11 80  00 DD 0F 52 0E 80 F8 FF  ..#........R....
0FD0: FF 7F F8 FF FF 7F 73 30  33 37 01 06 10 02 09 10  ......s037......
0FE0: 12 80 00 F7 0F 52 0E 80  F8 FF FF 7F F8 FF FF 7F  .....R..........
0FF0: 73 30 33 37 01 06 10 52  0E 80 F8 FF FF 7F F8 FF  s037...R........
1000: FF 7F 73 30 31 38 02 09  10 0C 80 00 22 10 45 0E  ..s018......".E.
1010: 80 F8 FF FF 7F F8 FF FF  7F 73 30 31 33 00 80 01  .........s013...
1020: A3 10 02 09 10 2B 80 00  3E 10 45 0E 80 F8 FF FF  .....+..>.E.....
1030: 7F F8 FF FF 7F 73 30 31  33 00 80 01 A3 10 02 09  .....s013.......
1040: 10 11 80 00 5A 10 45 0E  80 F8 FF FF 7F F8 FF FF  ....Z.E.........
1050: 7F 73 30 33 38 00 80 01  A3 10 02 09 10 12 80 00  .s038...........
1060: 76 10 45 0E 80 F8 FF FF  7F F8 FF FF 7F 73 30 33  v.E..........s03
1070: 38 00 80 01 A3 10 02 09  10 2C 80 00 92 10 45 0E  8........,....E.
1080: 80 F8 FF FF 7F F8 FF FF  7F 73 30 31 33 00 80 01  .........s013...
1090: A3 10 45 0E 80 F8 FF FF  7F F8 FF FF 7F 73 30 34  ..E..........s04
10A0: 34 00 80 79 00 53 72 10  01 F0 FF FF 7F 2B 53 72  4..y.Sr......+Sr
10B0: 10 01 55 80 1C 03 80 6E  F0 FF FF 7F 56 80 99 F0  ..U....n....V...
10C0: FF FF 7F 1C 28 80 23 02  09 10 0C 80 00 E1 10 52  ....(.#........R
10D0: 0E 80 F8 FF FF 7F F8 FF  FF 7F 73 30 31 33 01 58  ..........s013.X
10E0: 11 02 09 10 2B 80 00 FB  10 52 0E 80 F8 FF FF 7F  ....+....R......
10F0: F8 FF FF 7F 73 30 31 33  01 58 11 02 09 10 11 80  ....s013.X......
1100: 00 15 11 52 0E 80 F8 FF  FF 7F F8 FF FF 7F 73 30  ...R..........s0
1110: 33 38 01 58 11 02 09 10  12 80 00 2F 11 52 0E 80  38.X......./.R..
1120: F8 FF FF 7F F8 FF FF 7F  73 30 33 38 01 58 11 02  ........s038.X..
1130: 09 10 2C 80 00 49 11 52  0E 80 F8 FF FF 7F F8 FF  ..,..I.R........
1140: FF 7F 73 30 31 33 01 58  11 52 0E 80 F8 FF FF 7F  ..s013.X.R......
1150: F8 FF FF 7F 73 30 34 34  01 37 13 02 09 10 11 80  ....s044.7......
1160: 00 7A 11 81 01 53 72 10  01 29 08 53 72 10 01 2B  .z...Sr..).Sr..+
1170: 29 08 53 72 10 01 2C 01  A7 11 02 09 10 12 80 00  ).Sr..,.........
1180: 99 11 81 01 53 72 10 01  29 08 53 72 10 01 2B 29  ....Sr..).Sr..+)
1190: 08 53 72 10 01 2C 01 A7  11 29 08 53 72 10 01 3D  .Sr..,...).Sr..=
11A0: 29 08 53 72 10 01 3E 2B  53 72 10 01 57 80 23 02  ).Sr..>+Sr..W.#.
11B0: 09 10 11 80 00 C9 11 52  0E 80 F8 FF FF 7F F8 FF  .......R........
11C0: FF 7F 73 30 33 37 01 F2  11 02 09 10 12 80 00 E3  ..s037..........
11D0: 11 52 0E 80 F8 FF FF 7F  F8 FF FF 7F 73 30 33 37  .R..........s037
11E0: 01 F2 11 52 0E 80 F8 FF  FF 7F F8 FF FF 7F 73 30  ...R..........s0
11F0: 31 38 02 09 10 0C 80 00  0E 12 45 0E 80 F8 FF FF  18........E.....
1200: 7F F8 FF FF 7F 73 30 31  33 00 80 01 8F 12 02 09  .....s013.......
1210: 10 2B 80 00 2A 12 45 0E  80 F8 FF FF 7F F8 FF FF  .+..*.E.........
1220: 7F 73 30 31 33 00 80 01  8F 12 02 09 10 11 80 00  .s013...........
1230: 46 12 45 0E 80 F8 FF FF  7F F8 FF FF 7F 73 30 33  F.E..........s03
1240: 38 00 80 01 8F 12 02 09  10 12 80 00 62 12 45 0E  8...........b.E.
1250: 80 F8 FF FF 7F F8 FF FF  7F 73 30 33 38 00 80 01  .........s038...
1260: 8F 12 02 09 10 2C 80 00  7E 12 45 0E 80 F8 FF FF  .....,..~.E.....
1270: 7F F8 FF FF 7F 73 30 31  33 00 80 01 8F 12 45 0E  .....s013.....E.
1280: 80 F8 FF FF 7F F8 FF FF  7F 73 30 34 34 00 80 2B  .........s044..+
1290: 53 72 10 01 58 80 23 6E  F0 FF FF 7F 12 80 99 F0  Sr..X.#n........
12A0: FF FF 7F 1C 03 80 02 09  10 0C 80 00 C0 12 52 0E  ..............R.
12B0: 80 F8 FF FF 7F F8 FF FF  7F 73 30 31 33 01 37 13  .........s013.7.
12C0: 02 09 10 2B 80 00 DA 12  52 0E 80 F8 FF FF 7F F8  ...+....R.......
12D0: FF FF 7F 73 30 31 33 01  37 13 02 09 10 11 80 00  ...s013.7.......
12E0: F4 12 52 0E 80 F8 FF FF  7F F8 FF FF 7F 73 30 33  ..R..........s03
12F0: 38 01 37 13 02 09 10 12  80 00 0E 13 52 0E 80 F8  8.7.........R...
1300: FF FF 7F F8 FF FF 7F 73  30 33 38 01 37 13 02 09  .......s038.7...
1310: 10 2C 80 00 28 13 52 0E  80 F8 FF FF 7F F8 FF FF  .,..(.R.........
1320: 7F 73 30 31 33 01 37 13  52 0E 80 F8 FF FF 7F F8  .s013.7.R.......
1330: FF FF 7F 73 30 34 34 45  0E 80 F8 FF FF 7F F8 FF  ...s044E........
1340: FF 7F 73 30 31 37 00 80  79 00 F0 FF FF 7F 54 72  ..s017..y.....Tr
1350: 10 01 4A 53 72 10 01 54  72 10 01 29 08 54 72 10  ..JSr..Tr..).Tr.
1360: 01 1C 2B 54 72 10 01 59  80 29 08 54 72 10 01 1D  ..+Tr..Y.).Tr...
1370: 1C 5A 80 29 08 54 72 10  01 1A 23 6F 76 53 72 10  .Z.).Tr...#ovSr.
1380: 01 52 0E 80 F8 FF FF 7F  F8 FF FF 7F 73 30 31 37  .R..........s017
1390: 02 09 10 11 80 00 AC 13  45 0E 80 F8 FF FF 7F F8  ........E.......
13A0: FF FF 7F 73 30 33 39 00  80 01 D9 13 02 09 10 12  ...s039.........
13B0: 80 00 C8 13 45 0E 80 F8  FF FF 7F F8 FF FF 7F 73  ....E..........s
13C0: 30 33 39 00 80 01 D9 13  45 0E 80 F8 FF FF 7F F8  039.....E.......
13D0: FF FF 7F 73 30 31 39 00  80 79 00 F0 FF FF 7F 53  ...s019..y.....S
13E0: 72 10 01 29 08 53 72 10  01 2D 2B 53 72 10 01 5B  r..).Sr..-+Sr..[
13F0: 80 1C 5C 80 79 00 F0 FF  FF 7F 54 72 10 01 23 29  ..\.y.....Tr..#)
1400: 08 53 72 10 01 2E 29 08  53 72 10 01 2F 29 08 54  .Sr...).Sr../).T
1410: 72 10 01 2C 29 08 54 72  10 01 18 2B 54 72 10 01  r..,).Tr...+Tr..
1420: 5D 80 23 29 08 54 72 10  01 19 29 08 54 72 10 01  ].#).Tr...).Tr..
1430: 2D 29 08 53 72 10 01 30  02 09 10 11 80 00 52 14  -).Sr..0......R.
1440: 52 0E 80 F8 FF FF 7F F8  FF FF 7F 73 30 33 39 01  R..........s039.
1450: 7B 14 02 09 10 12 80 00  6C 14 52 0E 80 F8 FF FF  {.......l.R.....
1460: 7F F8 FF FF 7F 73 30 33  39 01 7B 14 52 0E 80 F8  .....s039.{.R...
1470: FF FF 7F F8 FF FF 7F 73  30 31 39 02 00 00 17 80  .......s019.....
1480: 01 FF 14 45 0E 80 F8 FF  FF 7F F8 FF FF 7F 73 30  ...E..........s0
1490: 31 35 00 80 4A 54 72 10  01 53 72 10 01 6F 76 54  15..JTr..Sr..ovT
14A0: 72 10 01 29 08 54 72 10  01 3C 29 08 54 72 10 01  r..).Tr..<).Tr..
14B0: 18 2B 54 72 10 01 5E 80  23 29 08 54 72 10 01 3D  .+Tr..^.#).Tr..=
14C0: 2B 54 72 10 01 5F 80 1C  28 80 29 08 54 72 10 01  +Tr.._..(.).Tr..
14D0: 4C 1C 28 80 52 0E 80 F8  FF FF 7F F8 FF FF 7F 73  L.(.R..........s
14E0: 30 31 35 45 0E 80 F8 FF  FF 7F F8 FF FF 7F 73 30  015E..........s0
14F0: 34 36 00 80 23 29 08 54  72 10 01 19 01 78 15 45  46..#).Tr....x.E
1500: 0E 80 F8 FF FF 7F F8 FF  FF 7F 73 30 31 35 00 80  ..........s015..
1510: 4A 54 72 10 01 53 72 10  01 6F 76 54 72 10 01 29  JTr..Sr..ovTr..)
1520: 08 54 72 10 01 3C 29 08  54 72 10 01 18 2B 54 72  .Tr..<).Tr...+Tr
1530: 10 01 60 80 23 29 08 54  72 10 01 3D 2B 54 72 10  ..`.#).Tr..=+Tr.
1540: 01 61 80 1C 28 80 29 08  54 72 10 01 4C 1C 28 80  .a..(.).Tr..L.(.
1550: 52 0E 80 F8 FF FF 7F F8  FF FF 7F 73 30 31 35 45  R..........s015E
1560: 0E 80 F8 FF FF 7F F8 FF  FF 7F 73 30 34 36 00 80  ..........s046..
1570: 23 29 08 54 72 10 01 19  7B 53 72 10 01 29 08 54  #).Tr...{Sr..).T
1580: 72 10 01 4D 29 08 54 72  10 01 4E 29 08 53 72 10  r..M).Tr..N).Sr.
1590: 01 47 52 0E 80 F8 FF FF  7F F8 FF FF 7F 73 30 34  .GR..........s04
15A0: 36 45 0E 80 F8 FF FF 7F  F8 FF FF 7F 73 30 32 35  6E..........s025
15B0: 00 80 29 08 53 72 10 01  48 2B 53 72 10 01 62 80  ..).Sr..H+Sr..b.
15C0: 23 29 08 54 72 10 01 4F  52 0E 80 F8 FF FF 7F F8  #).Tr..OR.......
15D0: FF FF 7F 73 30 32 35 45  0E 80 F8 FF FF 7F F8 FF  ...s025E........
15E0: FF 7F 73 30 32 36 00 80  2B 53 72 10 01 63 80 23  ..s026..+Sr..c.#
15F0: 1C 03 80 52 0E 80 F8 FF  FF 7F F8 FF FF 7F 73 30  ...R..........s0
1600: 32 36 45 0E 80 F8 FF FF  7F F8 FF FF 7F 73 30 32  26E..........s02
1610: 37 00 80 29 08 53 72 10  01 49 29 08 54 72 10 01  7..).Sr..I).Tr..
1620: 42 2B 54 72 10 01 64 80  23 29 08 54 72 10 01 43  B+Tr..d.#).Tr..C
1630: 29 08 54 72 10 01 44 2B  54 72 10 01 65 80 23 29  ).Tr..D+Tr..e.#)
1640: 08 54 72 10 01 45 52 0E  80 F8 FF FF 7F F8 FF FF  .Tr..ER.........
1650: 7F 73 30 32 37 02 09 10  11 80 00 71 16 45 0E 80  .s027......q.E..
1660: F8 FF FF 7F F8 FF FF 7F  73 30 34 30 00 80 01 BA  ........s040....
1670: 16 02 09 10 12 80 00 8D  16 45 0E 80 F8 FF FF 7F  .........E......
1680: F8 FF FF 7F 73 30 34 30  00 80 01 BA 16 02 09 10  ....s040........
1690: 2C 80 00 A9 16 45 0E 80  F8 FF FF 7F F8 FF FF 7F  ,....E..........
16A0: 73 30 32 38 00 80 01 BA  16 45 0E 80 F8 FF FF 7F  s028.....E......
16B0: F8 FF FF 7F 73 30 34 37  00 80 29 08 54 72 10 01  ....s047..).Tr..
16C0: 26 2B 54 72 10 01 66 80  23 29 08 54 72 10 01 27  &+Tr..f.#).Tr..'
16D0: 29 08 54 72 10 01 16 29  08 54 72 10 01 17 79 00  ).Tr...).Tr...y.
16E0: 53 72 10 01 54 72 10 01  27 08 54 72 10 01 58 1C  Sr..Tr..'.Tr..X.
16F0: 28 80 02 09 10 11 80 00  0C 17 52 0E 80 F8 FF FF  (.........R.....
1700: 7F F8 FF FF 7F 73 30 34  30 01 4F 17 02 09 10 12  .....s040.O.....
1710: 80 00 26 17 52 0E 80 F8  FF FF 7F F8 FF FF 7F 73  ..&.R..........s
1720: 30 34 30 01 4F 17 02 09  10 2C 80 00 40 17 52 0E  040.O....,..@.R.
1730: 80 F8 FF FF 7F F8 FF FF  7F 73 30 32 38 01 4F 17  .........s028.O.
1740: 52 0E 80 F8 FF FF 7F F8  FF FF 7F 73 30 34 37 45  R..........s047E
1750: 0E 80 F8 FF FF 7F F8 FF  FF 7F 73 30 32 39 00 80  ..........s029..
1760: 1C 28 80 4A F0 FF FF 7F  54 72 10 01 1C 02 80 5C  .(.J....Tr.....\
1770: A0 00 80 01 80 5C A1 00  80 01 80 7B 53 72 10 01  .....\.....{Sr..
1780: 27 08 53 72 10 01 60 4E  01 54 72 10 01 52 0E 80  '.Sr..`N.Tr..R..
1790: F8 FF FF 7F F8 FF FF 7F  73 30 32 39 02 09 10 11  ........s029....
17A0: 80 00 B8 17 45 0E 80 F8  FF FF 7F F8 FF FF 7F 73  ....E..........s
17B0: 30 34 31 00 80 01 E5 17  02 09 10 12 80 00 D4 17  041.............
17C0: 45 0E 80 F8 FF FF 7F F8  FF FF 7F 73 30 34 31 00  E..........s041.
17D0: 80 01 E5 17 45 0E 80 F8  FF FF 7F F8 FF FF 7F 73  ....E..........s
17E0: 30 33 30 00 80 79 00 F0  FF FF 7F 53 72 10 01 2B  030..y.....Sr..+
17F0: 53 72 10 01 67 80 23 2A  08 53 72 10 01 02 09 10  Sr..g.#*.Sr.....
1800: 11 80 00 17 18 52 0E 80  F8 FF FF 7F F8 FF FF 7F  .....R..........
1810: 73 30 34 31 01 40 18 02  09 10 12 80 00 31 18 52  s041.@.......1.R
1820: 0E 80 F8 FF FF 7F F8 FF  FF 7F 73 30 34 31 01 40  ..........s041.@
1830: 18 52 0E 80 F8 FF FF 7F  F8 FF FF 7F 73 30 33 30  .R..........s030
1840: 45 0E 80 F8 FF FF 7F F8  FF FF 7F 73 30 33 31 00  E..........s031.
1850: 80 29 08 53 72 10 01 1D  29 08 53 72 10 01 1E 2B  .).Sr...).Sr...+
1860: 53 72 10 01 68 80 23 29  08 53 72 10 01 1F 2A 08  Sr..h.#).Sr...*.
1870: 54 72 10 01 4E 01 54 72  10 01 52 0E 80 F8 FF FF  Tr..N.Tr..R.....
1880: 7F F8 FF FF 7F 73 30 33  31 45 0E 80 F8 FF FF 7F  .....s031E......
1890: F8 FF FF 7F 73 30 33 32  00 80 29 08 53 72 10 01  ....s032..).Sr..
18A0: 20 27 08 53 72 10 01 61  1C 03 80 45 02 80 F0 FF   '.Sr..a...E....
18B0: FF 7F F0 FF FF 7F 66 64  6F 31 00 80 1C 03 80 52  ......fdo1.....R
18C0: 0E 80 F8 FF FF 7F F8 FF  FF 7F 73 30 33 32 94 00  ..........s032..
18D0: 53 72 10 01 94 00 54 72  10 01 94 00 55 72 10 01  Sr....Tr....Ur..
18E0: 29 05 53 72 10 01 17 29  05 54 72 10 01 5B 29 05  ).Sr...).Tr..[).
18F0: 55 72 10 01 52 5C 00 15  80 5C 01 15 80 9A 5D 16  Ur..R\...\....].
1900: 80 17 80 4E 00 F0 FF FF  7F 80 F0 FF FF 7F 46 00  ...N..........F.
1910: 45 02 80 F0 FF FF 7F F0  FF FF 7F 66 64 69 31 00  E..........fdi1.
1920: 80 20 00 21 00                                    . .!.           
```

#### Opcodes

```
  0: 0x0228 [0x20] SET_CLI_EVENT_UC_FLAG: Lock player control
  1: 0x022A [0x42] SET_CLI_EVENT_CANCEL_DATA()
  2: 0x022B [0x03] ExtData[1]->WorkLocal[0] = Work_Zone[5]
  3: 0x0230 [0x46] CAMERA_CONTROL: Disable user control
  4: 0x0232 [0x5C] MUSIC_CONTROL: Set music volume to song 0*, fade_time=400*
  5: 0x0238 [0x5C] MUSIC_CONTROL: Adjust music volume to song 0*, fade_time=400*
  6: 0x023E [0x45] LOAD_SCHEDULED_TASK: Load scheduler "fdo1" with entities [EventEntity, EventEntity], work=[200*, 0*]
  7: 0x024F [0x1C] WAIT(60* ticks)
  8: 0x0252 [0x38] SET_CLIENT_EVENT_MODE(mode=19*)
  9: 0x0255 [0x2F] Unnamed NPC (ID: 17855059/0x01107253)->Render.Flags0 &= ~0x80000 // Bit 19
 10: 0x025B [0x2F] Unnamed NPC (ID: 17855060/0x01107254)->Render.Flags0 &= ~0x80000 // Bit 19
 11: 0x0261 [0x2F] Unnamed NPC (ID: 17855061/0x01107255)->Render.Flags0 &= ~0x80000 // Bit 19
 12: 0x0267 [0x92] Unnamed NPC (ID: 17855059/0x01107253)->Render.Flags3 ^= 0x01
 13: 0x026D [0x92] Unnamed NPC (ID: 17855060/0x01107254)->Render.Flags3 ^= 0x01
 14: 0x0273 [0x92] Unnamed NPC (ID: 17855061/0x01107255)->Render.Flags3 ^= 0x01
 15: 0x0279 [0x29] REQ_SET_WAIT(priority=0x08, entity_id=Unnamed NPC (ID: 17855059/0x01107253), tag_num=0x62)
 16: 0x0280 [0x29] REQ_SET_WAIT(priority=0x08, entity_id=Unnamed NPC (ID: 17855060/0x01107254), tag_num=0x5A)
 17: 0x0287 [0x29] REQ_SET_WAIT(priority=0x08, entity_id=Unnamed NPC (ID: 17855061/0x01107255), tag_num=0x51)
 18: 0x028E [0x94] Unnamed NPC (ID: 17855059/0x01107253)->Render.Flags3 ^= 0x01
 19: 0x0294 [0x94] Unnamed NPC (ID: 17855060/0x01107254)->Render.Flags3 ^= 0x01
 20: 0x029A [0x4E] SET_ENTITY_HIDE_FLAG: Show Unnamed NPC (ID: 17855059/0x01107253)
 21: 0x02A0 [0x4E] SET_ENTITY_HIDE_FLAG: Show Unnamed NPC (ID: 17855060/0x01107254)
 22: 0x02A6 [0x4E] SET_ENTITY_HIDE_FLAG: Hide Unnamed NPC (ID: 17855061/0x01107255)
 23: 0x02AC [0x4E] SET_ENTITY_HIDE_FLAG: Show LocalPlayer
 24: 0x02B2 [0xBA] SET_ENTITY_POSITION(entity_id=LocalPlayer, pos_x=165.286*, pos_z=41.128*, pos_y=-0.082*, direction=117.4°*)
 25: 0x02BF [0xBA] SET_ENTITY_POSITION(entity_id=Unnamed NPC (ID: 17855059/0x01107253), pos_x=158.985*, pos_z=31.389*, pos_y=-0.274*, direction=119.9°*)
 26: 0x02CC [0xBA] SET_ENTITY_POSITION(entity_id=Unnamed NPC (ID: 17855060/0x01107254), pos_x=157.522*, pos_z=31.572*, pos_y=-0.129*, direction=120.0°*)
 27: 0x02D9 [0x4A] Unnamed NPC (ID: 17855059/0x01107253) looks at Unnamed NPC (ID: 17855060/0x01107254)
 28: 0x02E2 [0x4A] LocalPlayer looks at Unnamed NPC (ID: 17855059/0x01107253)
 29: 0x02EB [0x4A] Unnamed NPC (ID: 17855060/0x01107254) looks at Unnamed NPC (ID: 17855059/0x01107253)
 30: 0x02F4 [0x6F] WAIT_FRAME_DELAY: Yield until WaitTime reaches zero
 31: 0x02F5 [0x76] CHECK_ENTITY_RENDER_FLAGS: Wait until Unnamed NPC (ID: 17855059/0x01107253) Render.Flags0 and Render.Flags3 conditions are met
 32: 0x02FA [0x6F] WAIT_FRAME_DELAY: Yield until WaitTime reaches zero
 33: 0x02FB [0x76] CHECK_ENTITY_RENDER_FLAGS: Wait until Unnamed NPC (ID: 17855060/0x01107254) Render.Flags0 and Render.Flags3 conditions are met
 34: 0x0300 [0x6F] WAIT_FRAME_DELAY: Yield until WaitTime reaches zero
 35: 0x0301 [0x76] CHECK_ENTITY_RENDER_FLAGS: Wait until LocalPlayer Render.Flags0 and Render.Flags3 conditions are met
 36: 0x0306 [0x79] LocalPlayer looks at Unnamed NPC (ID: 17855060/0x01107254) (Basic look)
 37: 0x0310 [0x80] LOAD_WAIT(entity=Unnamed NPC (ID: 17855059/0x01107253))
 38: 0x0315 [0x80] LOAD_WAIT(entity=Unnamed NPC (ID: 17855060/0x01107254))
 39: 0x031A [0x80] LOAD_WAIT(entity=LocalPlayer)
 40: 0x031F [0x5C] MUSIC_CONTROL: Set Idle (Day) music to song 161*
 41: 0x0323 [0x5C] MUSIC_CONTROL: Set Idle (Night) music to song 161*
 42: 0x0327 [0x9A] WAIT_MUSIC_SERVER()
 43: 0x0328 [0x5D] SET_MUSIC_VOLUME(volume=127*, fade_time=1*)
 44: 0x032D [0x29] REQ_SET_WAIT(priority=0x08, entity_id=Unnamed NPC (ID: 17855060/0x01107254), tag_num=0x22)
 45: 0x0334 [0x29] REQ_SET_WAIT(priority=0x08, entity_id=Unnamed NPC (ID: 17855059/0x01107253), tag_num=0x19)
 46: 0x033B [0x45] LOAD_SCHEDULED_TASK: Load scheduler "s003" with entities [EventEntity, EventEntity], work=[752*, 0*]
 47: 0x034C [0x45] LOAD_SCHEDULED_TASK: Load scheduler "fdi1" with entities [EventEntity, EventEntity], work=[200*, 0*]
 48: 0x035D [0x27] REQ_SET(priority=0x08, entity_id=LocalPlayer, tag_num=0x2F)
 49: 0x0364 [0x29] REQ_SET_WAIT(priority=0x08, entity_id=Unnamed NPC (ID: 17855060/0x01107254), tag_num=0x23)
 50: 0x036B [0x29] REQ_SET_WAIT(priority=0x08, entity_id=Unnamed NPC (ID: 17855059/0x01107253), tag_num=0x1A)
 51: 0x0372 [0x29] REQ_SET_WAIT(priority=0x08, entity_id=Unnamed NPC (ID: 17855060/0x01107254), tag_num=0x24)
 52: 0x0379 [0x1C] WAIT(120* ticks)
 53: 0x037C [0x29] REQ_SET_WAIT(priority=0x08, entity_id=Unnamed NPC (ID: 17855059/0x01107253), tag_num=0x1B)
 54: 0x0383 [0x52] END_LOAD_SCHEDULER: End scheduler "s003" with entities [EventEntity, EventEntity], work=752*
 55: 0x0392 [0x03] Work_Zone[9] = LocalPlayer->Race
 56: 0x0397 [0x02] IF !(Work_Zone[9] == 5*) GOTO 0x03B3
 57: 0x039F [0x45] LOAD_SCHEDULED_TASK: Load scheduler "s033" with entities [EventEntity, EventEntity], work=[752*, 0*]
 58: 0x03B0 [0x01] GOTO 0x03E0
 59: 0x03B3 [0x02] IF !(Work_Zone[9] == 6*) GOTO 0x03CF
 60: 0x03BB [0x45] LOAD_SCHEDULED_TASK: Load scheduler "s033" with entities [EventEntity, EventEntity], work=[752*, 0*]
 61: 0x03CC [0x01] GOTO 0x03E0
 62: 0x03CF [0x45] LOAD_SCHEDULED_TASK: Load scheduler "s004" with entities [EventEntity, EventEntity], work=[752*, 0*]

SUBROUTINE_03E0:
 63: 0x03E0 [0x1C] WAIT(50* ticks)
 64: 0x03E3 [0x29] REQ_SET_WAIT(priority=0x08, entity_id=Unnamed NPC (ID: 17855060/0x01107254), tag_num=0x25)
 65: 0x03EA [0x79] Unnamed NPC (ID: 17855060/0x01107254) looks at LocalPlayer (Basic look)
 66: 0x03F4 [0x2B] Unnamed NPC (ID: 17855060/0x01107254) [8792*]:
    → "Oho! <Player>!"
 67: 0x03FB [0x1C] WAIT(30* ticks)
 68: 0x03FE [0x79] Unnamed NPC (ID: 17855059/0x01107253) looks at LocalPlayer (Basic look)
 69: 0x0408 [0x4B] UPDATE_ENTITY_YAW(entity=Unnamed NPC (ID: 17855059/0x01107253), yaw=13.9°*)
 70: 0x040F [0x6F] WAIT_FRAME_DELAY: Yield until WaitTime reaches zero
 71: 0x0410 [0x76] CHECK_ENTITY_RENDER_FLAGS: Wait until Unnamed NPC (ID: 17855059/0x01107253) Render.Flags0 and Render.Flags3 conditions are met
 72: 0x0415 [0x23] WAIT_FOR_DIALOG_INTERACTION
 73: 0x0416 [0x79] LocalPlayer looks at Unnamed NPC (ID: 17855059/0x01107253) (Basic look)
 74: 0x0420 [0x2B] Unnamed NPC (ID: 17855059/0x01107253) [8793*]:
    → "So you have deigned to grace us with your presence."
 75: 0x0427 [0x23] WAIT_FOR_DIALOG_INTERACTION
 76: 0x0428 [0x02] IF !(Work_Zone[9] == 5*) GOTO 0x0442
 77: 0x0430 [0x52] END_LOAD_SCHEDULER: End scheduler "s033" with entities [EventEntity, EventEntity], work=752*
 78: 0x043F [0x01] GOTO 0x046B
 79: 0x0442 [0x02] IF !(Work_Zone[9] == 6*) GOTO 0x045C
 80: 0x044A [0x52] END_LOAD_SCHEDULER: End scheduler "s033" with entities [EventEntity, EventEntity], work=752*
 81: 0x0459 [0x01] GOTO 0x046B
 82: 0x045C [0x52] END_LOAD_SCHEDULER: End scheduler "s004" with entities [EventEntity, EventEntity], work=752*

SUBROUTINE_046B:
 83: 0x046B [0x02] IF !(Work_Zone[9] == 3*) GOTO 0x0487
 84: 0x0473 [0x45] LOAD_SCHEDULED_TASK: Load scheduler "s007" with entities [EventEntity, EventEntity], work=[752*, 0*]
 85: 0x0484 [0x01] GOTO 0x0508
 86: 0x0487 [0x02] IF !(Work_Zone[9] == 4*) GOTO 0x04A3
 87: 0x048F [0x45] LOAD_SCHEDULED_TASK: Load scheduler "s007" with entities [EventEntity, EventEntity], work=[752*, 0*]
 88: 0x04A0 [0x01] GOTO 0x0508
 89: 0x04A3 [0x02] IF !(Work_Zone[9] == 5*) GOTO 0x04BF
 90: 0x04AB [0x45] LOAD_SCHEDULED_TASK: Load scheduler "s034" with entities [EventEntity, EventEntity], work=[752*, 0*]
 91: 0x04BC [0x01] GOTO 0x0508
 92: 0x04BF [0x02] IF !(Work_Zone[9] == 6*) GOTO 0x04DB
 93: 0x04C7 [0x45] LOAD_SCHEDULED_TASK: Load scheduler "s034" with entities [EventEntity, EventEntity], work=[752*, 0*]
 94: 0x04D8 [0x01] GOTO 0x0508
 95: 0x04DB [0x02] IF !(Work_Zone[9] == 8*) GOTO 0x04F7
 96: 0x04E3 [0x45] LOAD_SCHEDULED_TASK: Load scheduler "s007" with entities [EventEntity, EventEntity], work=[752*, 0*]
 97: 0x04F4 [0x01] GOTO 0x0508
 98: 0x04F7 [0x45] LOAD_SCHEDULED_TASK: Load scheduler "s042" with entities [EventEntity, EventEntity], work=[752*, 0*]

SUBROUTINE_0508:
 99: 0x0508 [0x2A] GET_REQ_LEVEL(level=8, entity_id=LocalPlayer)
100: 0x050E [0x29] REQ_SET_WAIT(priority=0x08, entity_id=LocalPlayer, tag_num=0x12)
101: 0x0515 [0x1C] WAIT(120* ticks)
102: 0x0518 [0x29] REQ_SET_WAIT(priority=0x08, entity_id=LocalPlayer, tag_num=0x13)
103: 0x051F [0x2B] Unnamed NPC (ID: 17855059/0x01107253) [8794*]:
    → "As puzzled as ever, I see."
104: 0x0526 [0x23] WAIT_FOR_DIALOG_INTERACTION
105: 0x0527 [0x79] Unnamed NPC (ID: 17855059/0x01107253) looks at Unnamed NPC (ID: 17855060/0x01107254) (Basic look)
106: 0x0531 [0x79] Unnamed NPC (ID: 17855060/0x01107254) looks at Unnamed NPC (ID: 17855059/0x01107253) (Basic look)
107: 0x053B [0x29] REQ_SET_WAIT(priority=0x08, entity_id=Unnamed NPC (ID: 17855059/0x01107253), tag_num=0x35)
108: 0x0542 [0x29] REQ_SET_WAIT(priority=0x08, entity_id=Unnamed NPC (ID: 17855060/0x01107254), tag_num=0x1E)
109: 0x0549 [0x2B] Unnamed NPC (ID: 17855059/0x01107253) [8795*]:
    → "Our "suspicious man who can't possibly be a pioneer"? It is that oldster."
110: 0x0550 [0x1C] WAIT(60* ticks)
111: 0x0553 [0x02] IF !(Work_Zone[9] == 3*) GOTO 0x056D
112: 0x055B [0x52] END_LOAD_SCHEDULER: End scheduler "s007" with entities [EventEntity, EventEntity], work=752*
113: 0x056A [0x01] GOTO 0x05E4
114: 0x056D [0x02] IF !(Work_Zone[9] == 4*) GOTO 0x0587
115: 0x0575 [0x52] END_LOAD_SCHEDULER: End scheduler "s007" with entities [EventEntity, EventEntity], work=752*
116: 0x0584 [0x01] GOTO 0x05E4
117: 0x0587 [0x02] IF !(Work_Zone[9] == 5*) GOTO 0x05A1
118: 0x058F [0x52] END_LOAD_SCHEDULER: End scheduler "s034" with entities [EventEntity, EventEntity], work=752*
119: 0x059E [0x01] GOTO 0x05E4
120: 0x05A1 [0x02] IF !(Work_Zone[9] == 6*) GOTO 0x05BB
121: 0x05A9 [0x52] END_LOAD_SCHEDULER: End scheduler "s034" with entities [EventEntity, EventEntity], work=752*
122: 0x05B8 [0x01] GOTO 0x05E4
123: 0x05BB [0x02] IF !(Work_Zone[9] == 8*) GOTO 0x05D5
124: 0x05C3 [0x52] END_LOAD_SCHEDULER: End scheduler "s007" with entities [EventEntity, EventEntity], work=752*
125: 0x05D2 [0x01] GOTO 0x05E4
126: 0x05D5 [0x52] END_LOAD_SCHEDULER: End scheduler "s042" with entities [EventEntity, EventEntity], work=752*

SUBROUTINE_05E4:
127: 0x05E4 [0x45] LOAD_SCHEDULED_TASK: Load scheduler "s005" with entities [EventEntity, EventEntity], work=[752*, 0*]
128: 0x05F5 [0x29] REQ_SET_WAIT(priority=0x08, entity_id=Unnamed NPC (ID: 17855060/0x01107254), tag_num=0x1F)
129: 0x05FC [0x29] REQ_SET_WAIT(priority=0x08, entity_id=Unnamed NPC (ID: 17855059/0x01107253), tag_num=0x36)
130: 0x0603 [0x23] WAIT_FOR_DIALOG_INTERACTION
131: 0x0604 [0x52] END_LOAD_SCHEDULER: End scheduler "s005" with entities [EventEntity, EventEntity], work=752*
132: 0x0613 [0x45] LOAD_SCHEDULED_TASK: Load scheduler "s006" with entities [EventEntity, EventEntity], work=[752*, 0*]
133: 0x0624 [0x29] REQ_SET_WAIT(priority=0x08, entity_id=Unnamed NPC (ID: 17855060/0x01107254), tag_num=0x20)
134: 0x062B [0x29] REQ_SET_WAIT(priority=0x08, entity_id=Unnamed NPC (ID: 17855060/0x01107254), tag_num=0x36)
135: 0x0632 [0x2B] Unnamed NPC (ID: 17855060/0x01107254) [8796*]:
    → "Bwahaha! Yer exorcist friend's got quite the tongue!"
136: 0x0639 [0x1C] WAIT(120* ticks)
137: 0x063C [0x29] REQ_SET_WAIT(priority=0x08, entity_id=Unnamed NPC (ID: 17855060/0x01107254), tag_num=0x21)
138: 0x0643 [0x29] REQ_SET_WAIT(priority=0x08, entity_id=Unnamed NPC (ID: 17855060/0x01107254), tag_num=0x1E)
139: 0x064A [0x23] WAIT_FOR_DIALOG_INTERACTION
140: 0x064B [0x29] REQ_SET_WAIT(priority=0x08, entity_id=Unnamed NPC (ID: 17855060/0x01107254), tag_num=0x37)
141: 0x0652 [0x02] IF !(ExtData[1]->WorkLocal[0] < 1*) GOTO 0x0689
142: 0x065A [0x79] Unnamed NPC (ID: 17855060/0x01107254) looks at LocalPlayer (Basic look)
143: 0x0664 [0x29] REQ_SET_WAIT(priority=0x08, entity_id=Unnamed NPC (ID: 17855060/0x01107254), tag_num=0x20)
144: 0x066B [0x2B] Unnamed NPC (ID: 17855060/0x01107254) [8797*]:
    → "I've got a little story ta tell. It begins not long 'fer ya offed Hades."
145: 0x0672 [0x23] WAIT_FOR_DIALOG_INTERACTION
146: 0x0673 [0x29] REQ_SET_WAIT(priority=0x08, entity_id=Unnamed NPC (ID: 17855060/0x01107254), tag_num=0x21)
147: 0x067A [0x29] REQ_SET_WAIT(priority=0x08, entity_id=Unnamed NPC (ID: 17855060/0x01107254), tag_num=0x1E)
148: 0x0681 [0x03] Work_Zone[4] = 1*
149: 0x0686 [0x01] GOTO 0x068E
150: 0x0689 [0x03] Work_Zone[4] = 0*

SUBROUTINE_068E:
151: 0x068E [0x5C] MUSIC_CONTROL: Set music volume to song 0*, fade_time=100*
152: 0x0694 [0x5C] MUSIC_CONTROL: Adjust music volume to song 0*, fade_time=100*
153: 0x069A [0x45] LOAD_SCHEDULED_TASK: Load scheduler "fdo1" with entities [EventEntity, EventEntity], work=[200*, 0*]
154: 0x06AB [0x1C] WAIT(60* ticks)
155: 0x06AE [0x52] END_LOAD_SCHEDULER: End scheduler "s006" with entities [EventEntity, EventEntity], work=752*
156: 0x06BD [0x7B] Unnamed NPC (ID: 17855060/0x01107254) stops talking
157: 0x06C2 [0x4E] SET_ENTITY_HIDE_FLAG: Hide LocalPlayer
158: 0x06C8 [0x6C] FADE_ENTITY_COLOR(entity_id=Unnamed NPC (ID: 17855060/0x01107254), end_alpha=0*, fade_time=1*)
159: 0x06D1 [0x1C] WAIT(1* ticks)
160: 0x06D4 [0x48] [System] [7838*]:
    → "@@"
161: 0x06D7 [0x23] WAIT_FOR_DIALOG_INTERACTION
162: 0x06D8 [0x4E] SET_ENTITY_HIDE_FLAG: Show Unnamed NPC (ID: 17855061/0x01107255)
163: 0x06DE [0x80] LOAD_WAIT(entity=Unnamed NPC (ID: 17855061/0x01107255))
164: 0x06E3 [0x59] UPDATE_ENTITY_DATA: Unnamed NPC (ID: 17855059/0x01107253)->Render.Flags0 |= 0x200000
165: 0x06EA [0xBA] SET_ENTITY_POSITION(entity_id=Unnamed NPC (ID: 17855059/0x01107253), pos_x=134.846*, pos_z=45.500*, pos_y=0.622*, direction=0.0°*)
166: 0x06F7 [0xBA] SET_ENTITY_POSITION(entity_id=Unnamed NPC (ID: 17855061/0x01107255), pos_x=116.852*, pos_z=47.760*, pos_y=0.186*, direction=0.0°*)
167: 0x0704 [0x29] REQ_SET_WAIT(priority=0x08, entity_id=Unnamed NPC (ID: 17855059/0x01107253), tag_num=0x45)
168: 0x070B [0x29] REQ_SET_WAIT(priority=0x08, entity_id=Unnamed NPC (ID: 17855059/0x01107253), tag_num=0x46)
169: 0x0712 [0x29] REQ_SET_WAIT(priority=0x08, entity_id=Unnamed NPC (ID: 17855060/0x01107254), tag_num=0x16)
170: 0x0719 [0x29] REQ_SET_WAIT(priority=0x08, entity_id=Unnamed NPC (ID: 17855060/0x01107254), tag_num=0x17)
171: 0x0720 [0x27] REQ_SET(priority=0x08, entity_id=Unnamed NPC (ID: 17855061/0x01107255), tag_num=0x4F)
172: 0x0727 [0x1C] WAIT(30* ticks)
173: 0x072A [0x45] LOAD_SCHEDULED_TASK: Load scheduler "s008" with entities [EventEntity, EventEntity], work=[752*, 0*]
174: 0x073B [0x1A] CALL_SUBROUTINE(address=0x3DDE)
175: 0x073E [0x22] ENTITY_HIDE_FLAG(enabled=0x00)
176: 0x0740 [0x2B] Unnamed NPC (ID: 17855060/0x01107254) [8798*]:
    → "[I've got a little story to tell. /]I'd been out tryin' ta investigate all the oddities that had been happenin' of late."
177: 0x0747 [0x1C] WAIT(200* ticks)
178: 0x074A [0x80] LOAD_WAIT(entity=EventEntity)
179: 0x074F [0xBA] SET_ENTITY_POSITION(entity_id=EventEntity, pos_x=126.378*, pos_z=48.226*, pos_y=0.264*, direction=129.0°*)
180: 0x075C [0x52] END_LOAD_SCHEDULER: End scheduler "s008" with entities [EventEntity, EventEntity], work=752*
181: 0x076B [0x45] LOAD_SCHEDULED_TASK: Load scheduler "s009" with entities [EventEntity, EventEntity], work=[752*, 0*]
182: 0x077C [0xD0] LOAD_SCHEDULED_TASK_ALT5: Load scheduler "fgon" with entities [EventEntity, EventEntity], work=[97*, 0*]
183: 0x078D [0x1C] WAIT(90* ticks)
184: 0x0790 [0x23] WAIT_FOR_DIALOG_INTERACTION
185: 0x0791 [0x2A] GET_REQ_LEVEL(level=8, entity_id=Unnamed NPC (ID: 17855061/0x01107255))
186: 0x0797 [0x52] END_LOAD_SCHEDULER: End scheduler "s009" with entities [EventEntity, EventEntity], work=752*
187: 0x07A6 [0x45] LOAD_SCHEDULED_TASK: Load scheduler "s021" with entities [EventEntity, EventEntity], work=[752*, 0*]
188: 0x07B7 [0xBA] SET_ENTITY_POSITION(entity_id=Unnamed NPC (ID: 17855060/0x01107254), pos_x=126.406*, pos_z=44.475*, pos_y=0.141*, direction=129.1°*)
189: 0x07C4 [0x6C] FADE_ENTITY_COLOR(entity_id=Unnamed NPC (ID: 17855061/0x01107255), end_alpha=0*, fade_time=1*)
190: 0x07CD [0x6C] FADE_ENTITY_COLOR(entity_id=Unnamed NPC (ID: 17855060/0x01107254), end_alpha=128*, fade_time=1*)
191: 0x07D6 [0x1C] WAIT(30* ticks)
192: 0x07D9 [0x2B] Unnamed NPC (ID: 17855060/0x01107254) [8799*]:
    → "And this place right here...well, it sets my senses tingling."
193: 0x07E0 [0x23] WAIT_FOR_DIALOG_INTERACTION
194: 0x07E1 [0x52] END_LOAD_SCHEDULER: End scheduler "s021" with entities [EventEntity, EventEntity], work=752*
195: 0x07F0 [0x52] END_LOAD_SCHEDULER: End scheduler "s009" with entities [EventEntity, EventEntity], work=752*
196: 0x07FF [0x45] LOAD_SCHEDULED_TASK: Load scheduler "s010" with entities [EventEntity, EventEntity], work=[752*, 0*]
197: 0x0810 [0x29] REQ_SET_WAIT(priority=0x08, entity_id=Unnamed NPC (ID: 17855060/0x01107254), tag_num=0x4A)
198: 0x0817 [0x2B] Unnamed NPC (ID: 17855061/0x01107255) [8800*]:
    → "It feels so cold..."
199: 0x081E [0x23] WAIT_FOR_DIALOG_INTERACTION
200: 0x081F [0x29] REQ_SET_WAIT(priority=0x08, entity_id=Unnamed NPC (ID: 17855060/0x01107254), tag_num=0x4B)
201: 0x0826 [0x52] END_LOAD_SCHEDULER: End scheduler "s010" with entities [EventEntity, EventEntity], work=752*
202: 0x0835 [0x45] LOAD_SCHEDULED_TASK: Load scheduler "s022" with entities [EventEntity, EventEntity], work=[752*, 0*]
203: 0x0846 [0x6C] FADE_ENTITY_COLOR(entity_id=Unnamed NPC (ID: 17855061/0x01107255), end_alpha=128*, fade_time=1*)
204: 0x084F [0x6C] FADE_ENTITY_COLOR(entity_id=Unnamed NPC (ID: 17855060/0x01107254), end_alpha=0*, fade_time=1*)
205: 0x0858 [0x29] REQ_SET_WAIT(priority=0x08, entity_id=Unnamed NPC (ID: 17855061/0x01107255), tag_num=0x4D)
206: 0x085F [0x1C] WAIT(1* ticks)
207: 0x0862 [0x1C] WAIT(20* ticks)
208: 0x0865 [0x52] END_LOAD_SCHEDULER: End scheduler "s022" with entities [EventEntity, EventEntity], work=752*
209: 0x0874 [0x45] LOAD_SCHEDULED_TASK: Load scheduler "s016" with entities [EventEntity, EventEntity], work=[752*, 0*]
210: 0x0885 [0x2B] Unnamed NPC (ID: 17855061/0x01107255) [8801*]:
    → "...and merciless!"
211: 0x088C [0x1C] WAIT(50* ticks)
212: 0x088F [0x52] END_LOAD_SCHEDULER: End scheduler "s016" with entities [EventEntity, EventEntity], work=752*
213: 0x089E [0x45] LOAD_SCHEDULED_TASK: Load scheduler "s045" with entities [EventEntity, EventEntity], work=[752*, 0*]
214: 0x08AF [0x1C] WAIT(50* ticks)
215: 0x08B2 [0x45] LOAD_SCHEDULED_TASK: Load scheduler "who1" with entities [LocalPlayer, LocalPlayer], work=[201*, 0*]
216: 0x08C3 [0x45] LOAD_SCHEDULED_TASK: Load scheduler "fdi1" with entities [EventEntity, EventEntity], work=[200*, 0*]
217: 0x08D4 [0x55] WAIT_LOAD_SCHEDULER: Wait for scheduler "who1" with entities [LocalPlayer, LocalPlayer], work=201*
218: 0x08E3 [0x52] END_LOAD_SCHEDULER: End scheduler "s045" with entities [EventEntity, EventEntity], work=752*
219: 0x08F2 [0xD0] LOAD_SCHEDULED_TASK_ALT5: Load scheduler "fgkl" with entities [EventEntity, EventEntity], work=[97*, 0*]
220: 0x0903 [0x29] REQ_SET_WAIT(priority=0x08, entity_id=Unnamed NPC (ID: 17855061/0x01107255), tag_num=0x4E)
221: 0x090A [0x23] WAIT_FOR_DIALOG_INTERACTION
222: 0x090B [0x45] LOAD_SCHEDULED_TASK: Load scheduler "se03" with entities [EventEntity, EventEntity], work=[752*, 0*]
223: 0x091C [0x1C] WAIT(120* ticks)
224: 0x091F [0x6C] FADE_ENTITY_COLOR(entity_id=Unnamed NPC (ID: 17855060/0x01107254), end_alpha=128*, fade_time=1*)
225: 0x0928 [0x4E] SET_ENTITY_HIDE_FLAG: Hide Unnamed NPC (ID: 17855061/0x01107255)
226: 0x092E [0x4E] SET_ENTITY_HIDE_FLAG: Show Unnamed NPC (ID: 17855060/0x01107254)
227: 0x0934 [0x80] LOAD_WAIT(entity=Unnamed NPC (ID: 17855060/0x01107254))
228: 0x0939 [0x27] REQ_SET(priority=0x08, entity_id=Unnamed NPC (ID: 17855060/0x01107254), tag_num=0x59)
229: 0x0940 [0x45] LOAD_SCHEDULED_TASK: Load scheduler "s023" with entities [EventEntity, EventEntity], work=[752*, 0*]
230: 0x0951 [0x45] LOAD_SCHEDULED_TASK: Load scheduler "whi1" with entities [LocalPlayer, LocalPlayer], work=[201*, 0*]
231: 0x0962 [0x1A] CALL_SUBROUTINE(address=0x3DDE)
232: 0x0965 [0x55] WAIT_LOAD_SCHEDULER: Wait for scheduler "whi1" with entities [LocalPlayer, LocalPlayer], work=201*
233: 0x0974 [0x1C] WAIT(120* ticks)
234: 0x0977 [0x45] LOAD_SCHEDULED_TASK: Load scheduler "fdo1" with entities [EventEntity, EventEntity], work=[200*, 0*]
235: 0x0988 [0x1C] WAIT(60* ticks)
236: 0x098B [0x2A] GET_REQ_LEVEL(level=8, entity_id=Unnamed NPC (ID: 17855060/0x01107254))
237: 0x0991 [0x52] END_LOAD_SCHEDULER: End scheduler "s023" with entities [EventEntity, EventEntity], work=752*
238: 0x09A0 [0xBA] SET_ENTITY_POSITION(entity_id=Unnamed NPC (ID: 17855059/0x01107253), pos_x=158.985*, pos_z=31.389*, pos_y=-0.274*, direction=119.9°*)
239: 0x09AD [0xBA] SET_ENTITY_POSITION(entity_id=Unnamed NPC (ID: 17855060/0x01107254), pos_x=157.522*, pos_z=31.572*, pos_y=-0.129*, direction=120.0°*)
240: 0x09BA [0x4E] SET_ENTITY_HIDE_FLAG: Show LocalPlayer
241: 0x09C0 [0x59] UPDATE_ENTITY_DATA: Unnamed NPC (ID: 17855059/0x01107253)->Render.Flags0 &= ~0x200000
242: 0x09C7 [0x79] LocalPlayer looks at Unnamed NPC (ID: 17855060/0x01107254) (Basic look)
243: 0x09D1 [0x4B] UPDATE_ENTITY_YAW(entity=LocalPlayer, yaw=7.8°*)
244: 0x09D8 [0x4A] Unnamed NPC (ID: 17855059/0x01107253) looks at Unnamed NPC (ID: 17855060/0x01107254)
245: 0x09E1 [0x4A] Unnamed NPC (ID: 17855060/0x01107254) looks at LocalPlayer
246: 0x09EA [0x6F] WAIT_FRAME_DELAY: Yield until WaitTime reaches zero
247: 0x09EB [0x76] CHECK_ENTITY_RENDER_FLAGS: Wait until Unnamed NPC (ID: 17855060/0x01107254) Render.Flags0 and Render.Flags3 conditions are met
248: 0x09F0 [0x6F] WAIT_FRAME_DELAY: Yield until WaitTime reaches zero
249: 0x09F1 [0x76] CHECK_ENTITY_RENDER_FLAGS: Wait until Unnamed NPC (ID: 17855059/0x01107253) Render.Flags0 and Render.Flags3 conditions are met
250: 0x09F6 [0x6F] WAIT_FRAME_DELAY: Yield until WaitTime reaches zero
251: 0x09F7 [0x76] CHECK_ENTITY_RENDER_FLAGS: Wait until LocalPlayer Render.Flags0 and Render.Flags3 conditions are met
252: 0x09FC [0x29] REQ_SET_WAIT(priority=0x08, entity_id=Unnamed NPC (ID: 17855060/0x01107254), tag_num=0x2E)
253: 0x0A03 [0x29] REQ_SET_WAIT(priority=0x08, entity_id=Unnamed NPC (ID: 17855059/0x01107253), tag_num=0x25)
254: 0x0A0A [0x29] REQ_SET_WAIT(priority=0x08, entity_id=Unnamed NPC (ID: 17855059/0x01107253), tag_num=0x26)
255: 0x0A11 [0x80] LOAD_WAIT(entity=LocalPlayer)
256: 0x0A16 [0x7C] Unnamed NPC (ID: 17855060/0x01107254)->Render.Flags2 |= 0x01
257: 0x0A1C [0x48] [System] [7838*]:
    → "@@"
258: 0x0A1F [0x23] WAIT_FOR_DIALOG_INTERACTION
259: 0x0A20 [0x5C] MUSIC_CONTROL: Set Idle (Day) music to song 163*
260: 0x0A24 [0x5C] MUSIC_CONTROL: Set Idle (Night) music to song 163*
261: 0x0A28 [0x9A] WAIT_MUSIC_SERVER()
262: 0x0A29 [0x5D] SET_MUSIC_VOLUME(volume=127*, fade_time=1*)
263: 0x0A2E [0x02] IF !(Work_Zone[9] == 3*) GOTO 0x0A4A
264: 0x0A36 [0x45] LOAD_SCHEDULED_TASK: Load scheduler "s011" with entities [EventEntity, EventEntity], work=[752*, 0*]
265: 0x0A47 [0x01] GOTO 0x0A93
266: 0x0A4A [0x02] IF !(Work_Zone[9] == 4*) GOTO 0x0A66
267: 0x0A52 [0x45] LOAD_SCHEDULED_TASK: Load scheduler "s011" with entities [EventEntity, EventEntity], work=[752*, 0*]
268: 0x0A63 [0x01] GOTO 0x0A93
269: 0x0A66 [0x02] IF !(Work_Zone[9] == 8*) GOTO 0x0A82
270: 0x0A6E [0x45] LOAD_SCHEDULED_TASK: Load scheduler "s011" with entities [EventEntity, EventEntity], work=[752*, 0*]
271: 0x0A7F [0x01] GOTO 0x0A93
272: 0x0A82 [0x45] LOAD_SCHEDULED_TASK: Load scheduler "s035" with entities [EventEntity, EventEntity], work=[752*, 0*]

SUBROUTINE_0A93:
273: 0x0A93 [0x45] LOAD_SCHEDULED_TASK: Load scheduler "fdi1" with entities [EventEntity, EventEntity], work=[200*, 0*]
274: 0x0AA4 [0x1C] WAIT(90* ticks)
275: 0x0AA7 [0x29] REQ_SET_WAIT(priority=0x08, entity_id=Unnamed NPC (ID: 17855060/0x01107254), tag_num=0x18)
276: 0x0AAE [0x29] REQ_SET_WAIT(priority=0x08, entity_id=Unnamed NPC (ID: 17855059/0x01107253), tag_num=0x27)
277: 0x0AB5 [0x02] IF !(ExtData[1]->WorkLocal[0] == 1*) GOTO 0x0AC8
278: 0x0ABD [0x2B] Unnamed NPC (ID: 17855060/0x01107254) [8803*]:
    → "Scars on an old man like me are one thing, but could ya imagine a face as pretty as that with a gushin' axe wound? Hooo, boy."
279: 0x0AC4 [0x23] WAIT_FOR_DIALOG_INTERACTION
280: 0x0AC5 [0x01] GOTO 0x0AD0
281: 0x0AC8 [0x2B] Unnamed NPC (ID: 17855060/0x01107254) [8802*]:
    → "I'm gonna need yer help here, <Player>. I've tried apologizing ta her, but she just snorts and turns away."
282: 0x0ACF [0x23] WAIT_FOR_DIALOG_INTERACTION

SUBROUTINE_0AD0:
283: 0x0AD0 [0x29] REQ_SET_WAIT(priority=0x08, entity_id=Unnamed NPC (ID: 17855059/0x01107253), tag_num=0x28)
284: 0x0AD7 [0x29] REQ_SET_WAIT(priority=0x08, entity_id=Unnamed NPC (ID: 17855060/0x01107254), tag_num=0x2F)
285: 0x0ADE [0x29] REQ_SET_WAIT(priority=0x08, entity_id=Unnamed NPC (ID: 17855060/0x01107254), tag_num=0x19)
286: 0x0AE5 [0x29] REQ_SET_WAIT(priority=0x08, entity_id=Unnamed NPC (ID: 17855060/0x01107254), tag_num=0x16)
287: 0x0AEC [0x02] IF !(Work_Zone[9] == 3*) GOTO 0x0B06
288: 0x0AF4 [0x52] END_LOAD_SCHEDULER: End scheduler "s011" with entities [EventEntity, EventEntity], work=752*
289: 0x0B03 [0x01] GOTO 0x0B49
290: 0x0B06 [0x02] IF !(Work_Zone[9] == 4*) GOTO 0x0B20
291: 0x0B0E [0x52] END_LOAD_SCHEDULER: End scheduler "s011" with entities [EventEntity, EventEntity], work=752*
292: 0x0B1D [0x01] GOTO 0x0B49
293: 0x0B20 [0x02] IF !(Work_Zone[9] == 8*) GOTO 0x0B3A
294: 0x0B28 [0x52] END_LOAD_SCHEDULER: End scheduler "s011" with entities [EventEntity, EventEntity], work=752*
295: 0x0B37 [0x01] GOTO 0x0B49
296: 0x0B3A [0x52] END_LOAD_SCHEDULER: End scheduler "s035" with entities [EventEntity, EventEntity], work=752*

SUBROUTINE_0B49:
297: 0x0B49 [0x45] LOAD_SCHEDULED_TASK: Load scheduler "s012" with entities [EventEntity, EventEntity], work=[752*, 0*]
298: 0x0B5A [0x4A] LocalPlayer looks at Unnamed NPC (ID: 17855059/0x01107253)
299: 0x0B63 [0x29] REQ_SET_WAIT(priority=0x08, entity_id=Unnamed NPC (ID: 17855060/0x01107254), tag_num=0x30)
300: 0x0B6A [0x79] Unnamed NPC (ID: 17855060/0x01107254) looks at Unnamed NPC (ID: 17855059/0x01107253) (Basic look)
301: 0x0B74 [0x29] REQ_SET_WAIT(priority=0x08, entity_id=Unnamed NPC (ID: 17855059/0x01107253), tag_num=0x41)
302: 0x0B7B [0x2B] Unnamed NPC (ID: 17855059/0x01107253) [8804*]:
    → "I have half a mind to take the haft of your axe and shove--"
303: 0x0B82 [0x29] REQ_SET_WAIT(priority=0x08, entity_id=Unnamed NPC (ID: 17855059/0x01107253), tag_num=0x42)
304: 0x0B89 [0x29] REQ_SET_WAIT(priority=0x08, entity_id=Unnamed NPC (ID: 17855059/0x01107253), tag_num=0x43)
305: 0x0B90 [0x29] REQ_SET_WAIT(priority=0x08, entity_id=Unnamed NPC (ID: 17855059/0x01107253), tag_num=0x44)
306: 0x0B97 [0x23] WAIT_FOR_DIALOG_INTERACTION
307: 0x0B98 [0x29] REQ_SET_WAIT(priority=0x08, entity_id=Unnamed NPC (ID: 17855060/0x01107254), tag_num=0x31)
308: 0x0B9F [0x29] REQ_SET_WAIT(priority=0x08, entity_id=Unnamed NPC (ID: 17855060/0x01107254), tag_num=0x17)
309: 0x0BA6 [0x6F] WAIT_FRAME_DELAY: Yield until WaitTime reaches zero
310: 0x0BA7 [0x76] CHECK_ENTITY_RENDER_FLAGS: Wait until LocalPlayer Render.Flags0 and Render.Flags3 conditions are met
311: 0x0BAC [0x29] REQ_SET_WAIT(priority=0x08, entity_id=Unnamed NPC (ID: 17855060/0x01107254), tag_num=0x2A)
312: 0x0BB3 [0x52] END_LOAD_SCHEDULER: End scheduler "s012" with entities [EventEntity, EventEntity], work=752*
313: 0x0BC2 [0x02] IF !(Work_Zone[9] == 3*) GOTO 0x0BDE
314: 0x0BCA [0x45] LOAD_SCHEDULED_TASK: Load scheduler "s024" with entities [EventEntity, EventEntity], work=[752*, 0*]
315: 0x0BDB [0x01] GOTO 0x0C5F
316: 0x0BDE [0x02] IF !(Work_Zone[9] == 4*) GOTO 0x0BFA
317: 0x0BE6 [0x45] LOAD_SCHEDULED_TASK: Load scheduler "s024" with entities [EventEntity, EventEntity], work=[752*, 0*]
318: 0x0BF7 [0x01] GOTO 0x0C5F
319: 0x0BFA [0x02] IF !(Work_Zone[9] == 5*) GOTO 0x0C16
320: 0x0C02 [0x45] LOAD_SCHEDULED_TASK: Load scheduler "s036" with entities [EventEntity, EventEntity], work=[752*, 0*]
321: 0x0C13 [0x01] GOTO 0x0C5F
322: 0x0C16 [0x02] IF !(Work_Zone[9] == 6*) GOTO 0x0C32
323: 0x0C1E [0x45] LOAD_SCHEDULED_TASK: Load scheduler "s036" with entities [EventEntity, EventEntity], work=[752*, 0*]
324: 0x0C2F [0x01] GOTO 0x0C5F
325: 0x0C32 [0x02] IF !(Work_Zone[9] == 8*) GOTO 0x0C4E
326: 0x0C3A [0x45] LOAD_SCHEDULED_TASK: Load scheduler "s024" with entities [EventEntity, EventEntity], work=[752*, 0*]
327: 0x0C4B [0x01] GOTO 0x0C5F
328: 0x0C4E [0x45] LOAD_SCHEDULED_TASK: Load scheduler "s043" with entities [EventEntity, EventEntity], work=[752*, 0*]

SUBROUTINE_0C5F:
329: 0x0C5F [0x24] CREATE_DIALOG(message_id=8805*, default_option=0*, option_flags=0*)
    → "What do you do? [Take Morimar's side./Take Ingrid's side.]"
330: 0x0C66 [0x25] WAIT_DIALOG_SELECT()
331: 0x0C67 [0x02] IF !(Work_Zone[0] == 0*) GOTO 0x0DA9
332: 0x0C6F [0x79] Unnamed NPC (ID: 17855059/0x01107253) looks at LocalPlayer (Basic look)
333: 0x0C79 [0x4B] UPDATE_ENTITY_YAW(entity=Unnamed NPC (ID: 17855059/0x01107253), yaw=354.5°*)
334: 0x0C80 [0x6F] WAIT_FRAME_DELAY: Yield until WaitTime reaches zero
335: 0x0C81 [0x76] CHECK_ENTITY_RENDER_FLAGS: Wait until Unnamed NPC (ID: 17855059/0x01107253) Render.Flags0 and Render.Flags3 conditions are met
336: 0x0C86 [0x02] IF !(Work_Zone[9] == 3*) GOTO 0x0CA0
337: 0x0C8E [0x52] END_LOAD_SCHEDULER: End scheduler "s024" with entities [EventEntity, EventEntity], work=752*
338: 0x0C9D [0x01] GOTO 0x0D17
339: 0x0CA0 [0x02] IF !(Work_Zone[9] == 4*) GOTO 0x0CBA
340: 0x0CA8 [0x52] END_LOAD_SCHEDULER: End scheduler "s024" with entities [EventEntity, EventEntity], work=752*
341: 0x0CB7 [0x01] GOTO 0x0D17
342: 0x0CBA [0x02] IF !(Work_Zone[9] == 5*) GOTO 0x0CD4
343: 0x0CC2 [0x52] END_LOAD_SCHEDULER: End scheduler "s036" with entities [EventEntity, EventEntity], work=752*
344: 0x0CD1 [0x01] GOTO 0x0D17
345: 0x0CD4 [0x02] IF !(Work_Zone[9] == 6*) GOTO 0x0CEE
346: 0x0CDC [0x52] END_LOAD_SCHEDULER: End scheduler "s036" with entities [EventEntity, EventEntity], work=752*
347: 0x0CEB [0x01] GOTO 0x0D17
348: 0x0CEE [0x02] IF !(Work_Zone[9] == 8*) GOTO 0x0D08
349: 0x0CF6 [0x52] END_LOAD_SCHEDULER: End scheduler "s024" with entities [EventEntity, EventEntity], work=752*
350: 0x0D05 [0x01] GOTO 0x0D17
351: 0x0D08 [0x52] END_LOAD_SCHEDULER: End scheduler "s043" with entities [EventEntity, EventEntity], work=752*

SUBROUTINE_0D17:
352: 0x0D17 [0x45] LOAD_SCHEDULED_TASK: Load scheduler "s014" with entities [EventEntity, EventEntity], work=[752*, 0*]
353: 0x0D28 [0x02] IF !(Work_Zone[9] == 5*) GOTO 0x0D40
354: 0x0D30 [0x81] SET_ENTITY_BLINKING(blink_flag=0x00, entity=Unnamed NPC (ID: 17855059/0x01107253))
355: 0x0D36 [0x29] REQ_SET_WAIT(priority=0x08, entity_id=Unnamed NPC (ID: 17855059/0x01107253), tag_num=0x29)
356: 0x0D3D [0x01] GOTO 0x0D5F
357: 0x0D40 [0x02] IF !(Work_Zone[9] == 6*) GOTO 0x0D58
358: 0x0D48 [0x81] SET_ENTITY_BLINKING(blink_flag=0x00, entity=Unnamed NPC (ID: 17855059/0x01107253))
359: 0x0D4E [0x29] REQ_SET_WAIT(priority=0x08, entity_id=Unnamed NPC (ID: 17855059/0x01107253), tag_num=0x29)
360: 0x0D55 [0x01] GOTO 0x0D5F
361: 0x0D58 [0x29] REQ_SET_WAIT(priority=0x08, entity_id=Unnamed NPC (ID: 17855059/0x01107253), tag_num=0x3B)

SUBROUTINE_0D5F:
362: 0x0D5F [0x2B] Unnamed NPC (ID: 17855059/0x01107253) [8806*]:
    → "<Player>, I've got another axe haft with your name on it."
363: 0x0D66 [0x23] WAIT_FOR_DIALOG_INTERACTION
364: 0x0D67 [0x02] IF !(Work_Zone[9] == 5*) GOTO 0x0D79
365: 0x0D6F [0x29] REQ_SET_WAIT(priority=0x08, entity_id=Unnamed NPC (ID: 17855059/0x01107253), tag_num=0x2A)
366: 0x0D76 [0x01] GOTO 0x0D92
367: 0x0D79 [0x02] IF !(Work_Zone[9] == 6*) GOTO 0x0D8B
368: 0x0D81 [0x29] REQ_SET_WAIT(priority=0x08, entity_id=Unnamed NPC (ID: 17855059/0x01107253), tag_num=0x2A)
369: 0x0D88 [0x01] GOTO 0x0D92
370: 0x0D8B [0x29] REQ_SET_WAIT(priority=0x08, entity_id=Unnamed NPC (ID: 17855059/0x01107253), tag_num=0x3C)

SUBROUTINE_0D92:
371: 0x0D92 [0x52] END_LOAD_SCHEDULER: End scheduler "s014" with entities [EventEntity, EventEntity], work=752*
372: 0x0DA1 [0x03] Work_Zone[4] = 0*
373: 0x0DA6 [0x01] GOTO 0x0EEB
374: 0x0DA9 [0x02] IF !(Work_Zone[0] == 1*) GOTO 0x0EEB
375: 0x0DB1 [0x79] Unnamed NPC (ID: 17855059/0x01107253) looks at LocalPlayer (Basic look)
376: 0x0DBB [0x4B] UPDATE_ENTITY_YAW(entity=Unnamed NPC (ID: 17855059/0x01107253), yaw=354.5°*)
377: 0x0DC2 [0x6F] WAIT_FRAME_DELAY: Yield until WaitTime reaches zero
378: 0x0DC3 [0x76] CHECK_ENTITY_RENDER_FLAGS: Wait until Unnamed NPC (ID: 17855059/0x01107253) Render.Flags0 and Render.Flags3 conditions are met
379: 0x0DC8 [0x02] IF !(Work_Zone[9] == 3*) GOTO 0x0DE2
380: 0x0DD0 [0x52] END_LOAD_SCHEDULER: End scheduler "s024" with entities [EventEntity, EventEntity], work=752*
381: 0x0DDF [0x01] GOTO 0x0E59
382: 0x0DE2 [0x02] IF !(Work_Zone[9] == 4*) GOTO 0x0DFC
383: 0x0DEA [0x52] END_LOAD_SCHEDULER: End scheduler "s024" with entities [EventEntity, EventEntity], work=752*
384: 0x0DF9 [0x01] GOTO 0x0E59
385: 0x0DFC [0x02] IF !(Work_Zone[9] == 5*) GOTO 0x0E16
386: 0x0E04 [0x52] END_LOAD_SCHEDULER: End scheduler "s036" with entities [EventEntity, EventEntity], work=752*
387: 0x0E13 [0x01] GOTO 0x0E59
388: 0x0E16 [0x02] IF !(Work_Zone[9] == 6*) GOTO 0x0E30
389: 0x0E1E [0x52] END_LOAD_SCHEDULER: End scheduler "s036" with entities [EventEntity, EventEntity], work=752*
390: 0x0E2D [0x01] GOTO 0x0E59
391: 0x0E30 [0x02] IF !(Work_Zone[9] == 8*) GOTO 0x0E4A
392: 0x0E38 [0x52] END_LOAD_SCHEDULER: End scheduler "s024" with entities [EventEntity, EventEntity], work=752*
393: 0x0E47 [0x01] GOTO 0x0E59
394: 0x0E4A [0x52] END_LOAD_SCHEDULER: End scheduler "s043" with entities [EventEntity, EventEntity], work=752*

SUBROUTINE_0E59:
395: 0x0E59 [0x45] LOAD_SCHEDULED_TASK: Load scheduler "s014" with entities [EventEntity, EventEntity], work=[752*, 0*]
396: 0x0E6A [0x02] IF !(Work_Zone[9] == 5*) GOTO 0x0E82
397: 0x0E72 [0x81] SET_ENTITY_BLINKING(blink_flag=0x00, entity=Unnamed NPC (ID: 17855059/0x01107253))
398: 0x0E78 [0x29] REQ_SET_WAIT(priority=0x08, entity_id=Unnamed NPC (ID: 17855059/0x01107253), tag_num=0x29)
399: 0x0E7F [0x01] GOTO 0x0EA1
400: 0x0E82 [0x02] IF !(Work_Zone[9] == 6*) GOTO 0x0E9A
401: 0x0E8A [0x81] SET_ENTITY_BLINKING(blink_flag=0x00, entity=Unnamed NPC (ID: 17855059/0x01107253))
402: 0x0E90 [0x29] REQ_SET_WAIT(priority=0x08, entity_id=Unnamed NPC (ID: 17855059/0x01107253), tag_num=0x29)
403: 0x0E97 [0x01] GOTO 0x0EA1
404: 0x0E9A [0x29] REQ_SET_WAIT(priority=0x08, entity_id=Unnamed NPC (ID: 17855059/0x01107253), tag_num=0x3B)

SUBROUTINE_0EA1:
405: 0x0EA1 [0x2B] Unnamed NPC (ID: 17855059/0x01107253) [8807*]:
    → "Morimar, at least [he/she] has the common decency not to raise [his/her] blade without looking."
406: 0x0EA8 [0x23] WAIT_FOR_DIALOG_INTERACTION
407: 0x0EA9 [0x02] IF !(Work_Zone[9] == 5*) GOTO 0x0EBB
408: 0x0EB1 [0x29] REQ_SET_WAIT(priority=0x08, entity_id=Unnamed NPC (ID: 17855059/0x01107253), tag_num=0x2A)
409: 0x0EB8 [0x01] GOTO 0x0ED4
410: 0x0EBB [0x02] IF !(Work_Zone[9] == 6*) GOTO 0x0ECD
411: 0x0EC3 [0x29] REQ_SET_WAIT(priority=0x08, entity_id=Unnamed NPC (ID: 17855059/0x01107253), tag_num=0x2A)
412: 0x0ECA [0x01] GOTO 0x0ED4
413: 0x0ECD [0x29] REQ_SET_WAIT(priority=0x08, entity_id=Unnamed NPC (ID: 17855059/0x01107253), tag_num=0x3C)

SUBROUTINE_0ED4:
414: 0x0ED4 [0x52] END_LOAD_SCHEDULER: End scheduler "s014" with entities [EventEntity, EventEntity], work=752*
415: 0x0EE3 [0x03] Work_Zone[4] = 1*
416: 0x0EE8 [0x01] GOTO 0x0EEB

SUBROUTINE_0EEB:
417: 0x0EEB [0x29] REQ_SET_WAIT(priority=0x08, entity_id=Unnamed NPC (ID: 17855060/0x01107254), tag_num=0x2B)
418: 0x0EF2 [0x02] IF !(Work_Zone[9] == 5*) GOTO 0x0F0E
419: 0x0EFA [0x45] LOAD_SCHEDULED_TASK: Load scheduler "s037" with entities [EventEntity, EventEntity], work=[752*, 0*]
420: 0x0F0B [0x01] GOTO 0x0F3B
421: 0x0F0E [0x02] IF !(Work_Zone[9] == 6*) GOTO 0x0F2A
422: 0x0F16 [0x45] LOAD_SCHEDULED_TASK: Load scheduler "s037" with entities [EventEntity, EventEntity], work=[752*, 0*]
423: 0x0F27 [0x01] GOTO 0x0F3B
424: 0x0F2A [0x45] LOAD_SCHEDULED_TASK: Load scheduler "s018" with entities [EventEntity, EventEntity], work=[752*, 0*]

SUBROUTINE_0F3B:
425: 0x0F3B [0x02] IF !(ExtData[1]->WorkLocal[0] == 1*) GOTO 0x115B
426: 0x0F43 [0x02] IF !(Work_Zone[9] == 5*) GOTO 0x0F62
427: 0x0F4B [0x81] SET_ENTITY_BLINKING(blink_flag=0x01, entity=Unnamed NPC (ID: 17855059/0x01107253))
428: 0x0F51 [0x29] REQ_SET_WAIT(priority=0x08, entity_id=Unnamed NPC (ID: 17855059/0x01107253), tag_num=0x2B)
429: 0x0F58 [0x29] REQ_SET_WAIT(priority=0x08, entity_id=Unnamed NPC (ID: 17855059/0x01107253), tag_num=0x2C)
430: 0x0F5F [0x01] GOTO 0x0F8F
431: 0x0F62 [0x02] IF !(Work_Zone[9] == 6*) GOTO 0x0F81
432: 0x0F6A [0x81] SET_ENTITY_BLINKING(blink_flag=0x01, entity=Unnamed NPC (ID: 17855059/0x01107253))
433: 0x0F70 [0x29] REQ_SET_WAIT(priority=0x08, entity_id=Unnamed NPC (ID: 17855059/0x01107253), tag_num=0x2B)
434: 0x0F77 [0x29] REQ_SET_WAIT(priority=0x08, entity_id=Unnamed NPC (ID: 17855059/0x01107253), tag_num=0x2C)
435: 0x0F7E [0x01] GOTO 0x0F8F
436: 0x0F81 [0x29] REQ_SET_WAIT(priority=0x08, entity_id=Unnamed NPC (ID: 17855059/0x01107253), tag_num=0x3D)
437: 0x0F88 [0x29] REQ_SET_WAIT(priority=0x08, entity_id=Unnamed NPC (ID: 17855059/0x01107253), tag_num=0x3E)

SUBROUTINE_0F8F:
438: 0x0F8F [0x2B] Unnamed NPC (ID: 17855059/0x01107253) [8808*]:
    → "[Hmph. Let/Now that we have settled that, let] me divest myself of this anger. It is wholly unbecoming."
439: 0x0F96 [0x23] WAIT_FOR_DIALOG_INTERACTION
440: 0x0F97 [0x79] Unnamed NPC (ID: 17855060/0x01107254) looks at Unnamed NPC (ID: 17855059/0x01107253) (Basic look)
441: 0x0FA1 [0x2B] Unnamed NPC (ID: 17855059/0x01107253) [8809*]:
    → "To hear this one tell it, Arciela owes him her very life."
442: 0x0FA8 [0x1C] WAIT(30* ticks)
443: 0x0FAB [0x79] Unnamed NPC (ID: 17855059/0x01107253) looks at Unnamed NPC (ID: 17855060/0x01107254) (Basic look)
444: 0x0FB5 [0x4B] UPDATE_ENTITY_YAW(entity=Unnamed NPC (ID: 17855059/0x01107253), yaw=11.9°*)
445: 0x0FBC [0x6F] WAIT_FRAME_DELAY: Yield until WaitTime reaches zero
446: 0x0FBD [0x76] CHECK_ENTITY_RENDER_FLAGS: Wait until Unnamed NPC (ID: 17855059/0x01107253) Render.Flags0 and Render.Flags3 conditions are met
447: 0x0FC2 [0x23] WAIT_FOR_DIALOG_INTERACTION
448: 0x0FC3 [0x02] IF !(Work_Zone[9] == 5*) GOTO 0x0FDD
449: 0x0FCB [0x52] END_LOAD_SCHEDULER: End scheduler "s037" with entities [EventEntity, EventEntity], work=752*
450: 0x0FDA [0x01] GOTO 0x1006
451: 0x0FDD [0x02] IF !(Work_Zone[9] == 6*) GOTO 0x0FF7
452: 0x0FE5 [0x52] END_LOAD_SCHEDULER: End scheduler "s037" with entities [EventEntity, EventEntity], work=752*
453: 0x0FF4 [0x01] GOTO 0x1006
454: 0x0FF7 [0x52] END_LOAD_SCHEDULER: End scheduler "s018" with entities [EventEntity, EventEntity], work=752*

SUBROUTINE_1006:
455: 0x1006 [0x02] IF !(Work_Zone[9] == 3*) GOTO 0x1022
456: 0x100E [0x45] LOAD_SCHEDULED_TASK: Load scheduler "s013" with entities [EventEntity, EventEntity], work=[752*, 0*]
457: 0x101F [0x01] GOTO 0x10A3
458: 0x1022 [0x02] IF !(Work_Zone[9] == 4*) GOTO 0x103E
459: 0x102A [0x45] LOAD_SCHEDULED_TASK: Load scheduler "s013" with entities [EventEntity, EventEntity], work=[752*, 0*]
460: 0x103B [0x01] GOTO 0x10A3
461: 0x103E [0x02] IF !(Work_Zone[9] == 5*) GOTO 0x105A
462: 0x1046 [0x45] LOAD_SCHEDULED_TASK: Load scheduler "s038" with entities [EventEntity, EventEntity], work=[752*, 0*]
463: 0x1057 [0x01] GOTO 0x10A3
464: 0x105A [0x02] IF !(Work_Zone[9] == 6*) GOTO 0x1076
465: 0x1062 [0x45] LOAD_SCHEDULED_TASK: Load scheduler "s038" with entities [EventEntity, EventEntity], work=[752*, 0*]
466: 0x1073 [0x01] GOTO 0x10A3
467: 0x1076 [0x02] IF !(Work_Zone[9] == 8*) GOTO 0x1092
468: 0x107E [0x45] LOAD_SCHEDULED_TASK: Load scheduler "s013" with entities [EventEntity, EventEntity], work=[752*, 0*]
469: 0x108F [0x01] GOTO 0x10A3
470: 0x1092 [0x45] LOAD_SCHEDULED_TASK: Load scheduler "s044" with entities [EventEntity, EventEntity], work=[752*, 0*]

SUBROUTINE_10A3:
471: 0x10A3 [0x79] Unnamed NPC (ID: 17855059/0x01107253) looks at LocalPlayer (Basic look)
472: 0x10AD [0x2B] Unnamed NPC (ID: 17855059/0x01107253) [8810*]:
    → "And the two of you have some sort of past, so... I have no choice but to accept that he is not quite as suspicious as that pig Gratzigg would claim."
473: 0x10B4 [0x1C] WAIT(60* ticks)
474: 0x10B7 [0x6E] LocalPlayer uses emote 29*
475: 0x10BE [0x99] Wait for LocalPlayer animation to complete
476: 0x10C3 [0x1C] WAIT(30* ticks)
477: 0x10C6 [0x23] WAIT_FOR_DIALOG_INTERACTION
478: 0x10C7 [0x02] IF !(Work_Zone[9] == 3*) GOTO 0x10E1
479: 0x10CF [0x52] END_LOAD_SCHEDULER: End scheduler "s013" with entities [EventEntity, EventEntity], work=752*
480: 0x10DE [0x01] GOTO 0x1158
481: 0x10E1 [0x02] IF !(Work_Zone[9] == 4*) GOTO 0x10FB
482: 0x10E9 [0x52] END_LOAD_SCHEDULER: End scheduler "s013" with entities [EventEntity, EventEntity], work=752*
483: 0x10F8 [0x01] GOTO 0x1158
484: 0x10FB [0x02] IF !(Work_Zone[9] == 5*) GOTO 0x1115
485: 0x1103 [0x52] END_LOAD_SCHEDULER: End scheduler "s038" with entities [EventEntity, EventEntity], work=752*
486: 0x1112 [0x01] GOTO 0x1158
487: 0x1115 [0x02] IF !(Work_Zone[9] == 6*) GOTO 0x112F
488: 0x111D [0x52] END_LOAD_SCHEDULER: End scheduler "s038" with entities [EventEntity, EventEntity], work=752*
489: 0x112C [0x01] GOTO 0x1158
490: 0x112F [0x02] IF !(Work_Zone[9] == 8*) GOTO 0x1149
491: 0x1137 [0x52] END_LOAD_SCHEDULER: End scheduler "s013" with entities [EventEntity, EventEntity], work=752*
492: 0x1146 [0x01] GOTO 0x1158
493: 0x1149 [0x52] END_LOAD_SCHEDULER: End scheduler "s044" with entities [EventEntity, EventEntity], work=752*

SUBROUTINE_1158:
494: 0x1158 [0x01] GOTO 0x1337
495: 0x115B [0x02] IF !(Work_Zone[9] == 5*) GOTO 0x117A
496: 0x1163 [0x81] SET_ENTITY_BLINKING(blink_flag=0x01, entity=Unnamed NPC (ID: 17855059/0x01107253))
497: 0x1169 [0x29] REQ_SET_WAIT(priority=0x08, entity_id=Unnamed NPC (ID: 17855059/0x01107253), tag_num=0x2B)
498: 0x1170 [0x29] REQ_SET_WAIT(priority=0x08, entity_id=Unnamed NPC (ID: 17855059/0x01107253), tag_num=0x2C)
499: 0x1177 [0x01] GOTO 0x11A7
500: 0x117A [0x02] IF !(Work_Zone[9] == 6*) GOTO 0x1199
501: 0x1182 [0x81] SET_ENTITY_BLINKING(blink_flag=0x01, entity=Unnamed NPC (ID: 17855059/0x01107253))
502: 0x1188 [0x29] REQ_SET_WAIT(priority=0x08, entity_id=Unnamed NPC (ID: 17855059/0x01107253), tag_num=0x2B)
503: 0x118F [0x29] REQ_SET_WAIT(priority=0x08, entity_id=Unnamed NPC (ID: 17855059/0x01107253), tag_num=0x2C)
504: 0x1196 [0x01] GOTO 0x11A7
505: 0x1199 [0x29] REQ_SET_WAIT(priority=0x08, entity_id=Unnamed NPC (ID: 17855059/0x01107253), tag_num=0x3D)
506: 0x11A0 [0x29] REQ_SET_WAIT(priority=0x08, entity_id=Unnamed NPC (ID: 17855059/0x01107253), tag_num=0x3E)

SUBROUTINE_11A7:
507: 0x11A7 [0x2B] Unnamed NPC (ID: 17855059/0x01107253) [8811*]:
    → "I know not by what divine reckoning he still lives, but one thing is clear--Arciela owes him her very life."
508: 0x11AE [0x23] WAIT_FOR_DIALOG_INTERACTION
509: 0x11AF [0x02] IF !(Work_Zone[9] == 5*) GOTO 0x11C9
510: 0x11B7 [0x52] END_LOAD_SCHEDULER: End scheduler "s037" with entities [EventEntity, EventEntity], work=752*
511: 0x11C6 [0x01] GOTO 0x11F2
512: 0x11C9 [0x02] IF !(Work_Zone[9] == 6*) GOTO 0x11E3
513: 0x11D1 [0x52] END_LOAD_SCHEDULER: End scheduler "s037" with entities [EventEntity, EventEntity], work=752*
514: 0x11E0 [0x01] GOTO 0x11F2
515: 0x11E3 [0x52] END_LOAD_SCHEDULER: End scheduler "s018" with entities [EventEntity, EventEntity], work=752*

SUBROUTINE_11F2:
516: 0x11F2 [0x02] IF !(Work_Zone[9] == 3*) GOTO 0x120E
517: 0x11FA [0x45] LOAD_SCHEDULED_TASK: Load scheduler "s013" with entities [EventEntity, EventEntity], work=[752*, 0*]
518: 0x120B [0x01] GOTO 0x128F
519: 0x120E [0x02] IF !(Work_Zone[9] == 4*) GOTO 0x122A
520: 0x1216 [0x45] LOAD_SCHEDULED_TASK: Load scheduler "s013" with entities [EventEntity, EventEntity], work=[752*, 0*]
521: 0x1227 [0x01] GOTO 0x128F
522: 0x122A [0x02] IF !(Work_Zone[9] == 5*) GOTO 0x1246
523: 0x1232 [0x45] LOAD_SCHEDULED_TASK: Load scheduler "s038" with entities [EventEntity, EventEntity], work=[752*, 0*]
524: 0x1243 [0x01] GOTO 0x128F
525: 0x1246 [0x02] IF !(Work_Zone[9] == 6*) GOTO 0x1262
526: 0x124E [0x45] LOAD_SCHEDULED_TASK: Load scheduler "s038" with entities [EventEntity, EventEntity], work=[752*, 0*]
527: 0x125F [0x01] GOTO 0x128F
528: 0x1262 [0x02] IF !(Work_Zone[9] == 8*) GOTO 0x127E
529: 0x126A [0x45] LOAD_SCHEDULED_TASK: Load scheduler "s013" with entities [EventEntity, EventEntity], work=[752*, 0*]
530: 0x127B [0x01] GOTO 0x128F
531: 0x127E [0x45] LOAD_SCHEDULED_TASK: Load scheduler "s044" with entities [EventEntity, EventEntity], work=[752*, 0*]

SUBROUTINE_128F:
532: 0x128F [0x2B] Unnamed NPC (ID: 17855059/0x01107253) [8812*]:
    → "And this ancient relic, well...he is not quite as suspicious as that pig Gratzigg would claim."
533: 0x1296 [0x23] WAIT_FOR_DIALOG_INTERACTION
534: 0x1297 [0x6E] LocalPlayer uses emote 6*
535: 0x129E [0x99] Wait for LocalPlayer animation to complete
536: 0x12A3 [0x1C] WAIT(60* ticks)
537: 0x12A6 [0x02] IF !(Work_Zone[9] == 3*) GOTO 0x12C0
538: 0x12AE [0x52] END_LOAD_SCHEDULER: End scheduler "s013" with entities [EventEntity, EventEntity], work=752*
539: 0x12BD [0x01] GOTO 0x1337
540: 0x12C0 [0x02] IF !(Work_Zone[9] == 4*) GOTO 0x12DA
541: 0x12C8 [0x52] END_LOAD_SCHEDULER: End scheduler "s013" with entities [EventEntity, EventEntity], work=752*
542: 0x12D7 [0x01] GOTO 0x1337
543: 0x12DA [0x02] IF !(Work_Zone[9] == 5*) GOTO 0x12F4
544: 0x12E2 [0x52] END_LOAD_SCHEDULER: End scheduler "s038" with entities [EventEntity, EventEntity], work=752*
545: 0x12F1 [0x01] GOTO 0x1337
546: 0x12F4 [0x02] IF !(Work_Zone[9] == 6*) GOTO 0x130E
547: 0x12FC [0x52] END_LOAD_SCHEDULER: End scheduler "s038" with entities [EventEntity, EventEntity], work=752*
548: 0x130B [0x01] GOTO 0x1337
549: 0x130E [0x02] IF !(Work_Zone[9] == 8*) GOTO 0x1328
550: 0x1316 [0x52] END_LOAD_SCHEDULER: End scheduler "s013" with entities [EventEntity, EventEntity], work=752*
551: 0x1325 [0x01] GOTO 0x1337
552: 0x1328 [0x52] END_LOAD_SCHEDULER: End scheduler "s044" with entities [EventEntity, EventEntity], work=752*

SUBROUTINE_1337:
553: 0x1337 [0x45] LOAD_SCHEDULED_TASK: Load scheduler "s017" with entities [EventEntity, EventEntity], work=[752*, 0*]
554: 0x1348 [0x79] LocalPlayer looks at Unnamed NPC (ID: 17855060/0x01107254) (Basic look)
555: 0x1352 [0x4A] Unnamed NPC (ID: 17855059/0x01107253) looks at Unnamed NPC (ID: 17855060/0x01107254)
556: 0x135B [0x29] REQ_SET_WAIT(priority=0x08, entity_id=Unnamed NPC (ID: 17855060/0x01107254), tag_num=0x1C)
557: 0x1362 [0x2B] Unnamed NPC (ID: 17855060/0x01107254) [8813*]:
    → "...The dull chill of mercilessness descends once more..."
558: 0x1369 [0x29] REQ_SET_WAIT(priority=0x08, entity_id=Unnamed NPC (ID: 17855060/0x01107254), tag_num=0x1D)
559: 0x1370 [0x1C] WAIT(10* ticks)
560: 0x1373 [0x29] REQ_SET_WAIT(priority=0x08, entity_id=Unnamed NPC (ID: 17855060/0x01107254), tag_num=0x1A)
561: 0x137A [0x23] WAIT_FOR_DIALOG_INTERACTION
562: 0x137B [0x6F] WAIT_FRAME_DELAY: Yield until WaitTime reaches zero
563: 0x137C [0x76] CHECK_ENTITY_RENDER_FLAGS: Wait until Unnamed NPC (ID: 17855059/0x01107253) Render.Flags0 and Render.Flags3 conditions are met
564: 0x1381 [0x52] END_LOAD_SCHEDULER: End scheduler "s017" with entities [EventEntity, EventEntity], work=752*
565: 0x1390 [0x02] IF !(Work_Zone[9] == 5*) GOTO 0x13AC
566: 0x1398 [0x45] LOAD_SCHEDULED_TASK: Load scheduler "s039" with entities [EventEntity, EventEntity], work=[752*, 0*]
567: 0x13A9 [0x01] GOTO 0x13D9
568: 0x13AC [0x02] IF !(Work_Zone[9] == 6*) GOTO 0x13C8
569: 0x13B4 [0x45] LOAD_SCHEDULED_TASK: Load scheduler "s039" with entities [EventEntity, EventEntity], work=[752*, 0*]
570: 0x13C5 [0x01] GOTO 0x13D9
571: 0x13C8 [0x45] LOAD_SCHEDULED_TASK: Load scheduler "s019" with entities [EventEntity, EventEntity], work=[752*, 0*]

SUBROUTINE_13D9:
572: 0x13D9 [0x79] LocalPlayer looks at Unnamed NPC (ID: 17855059/0x01107253) (Basic look)
573: 0x13E3 [0x29] REQ_SET_WAIT(priority=0x08, entity_id=Unnamed NPC (ID: 17855059/0x01107253), tag_num=0x2D)
574: 0x13EA [0x2B] Unnamed NPC (ID: 17855059/0x01107253) [8814*]:
    → "What of it? The drool on your chin speaks the truth--you have already forgotten that you intended to give me something for the good of the city and our princess."
575: 0x13F1 [0x1C] WAIT(40* ticks)
576: 0x13F4 [0x79] LocalPlayer looks at Unnamed NPC (ID: 17855060/0x01107254) (Basic look)
577: 0x13FE [0x23] WAIT_FOR_DIALOG_INTERACTION
578: 0x13FF [0x29] REQ_SET_WAIT(priority=0x08, entity_id=Unnamed NPC (ID: 17855059/0x01107253), tag_num=0x2E)
579: 0x1406 [0x29] REQ_SET_WAIT(priority=0x08, entity_id=Unnamed NPC (ID: 17855059/0x01107253), tag_num=0x2F)
580: 0x140D [0x29] REQ_SET_WAIT(priority=0x08, entity_id=Unnamed NPC (ID: 17855060/0x01107254), tag_num=0x2C)
581: 0x1414 [0x29] REQ_SET_WAIT(priority=0x08, entity_id=Unnamed NPC (ID: 17855060/0x01107254), tag_num=0x18)
582: 0x141B [0x2B] Unnamed NPC (ID: 17855060/0x01107254) [8815*]:
    → "R-right. The mind's always the first ta go..."
583: 0x1422 [0x23] WAIT_FOR_DIALOG_INTERACTION
584: 0x1423 [0x29] REQ_SET_WAIT(priority=0x08, entity_id=Unnamed NPC (ID: 17855060/0x01107254), tag_num=0x19)
585: 0x142A [0x29] REQ_SET_WAIT(priority=0x08, entity_id=Unnamed NPC (ID: 17855060/0x01107254), tag_num=0x2D)
586: 0x1431 [0x29] REQ_SET_WAIT(priority=0x08, entity_id=Unnamed NPC (ID: 17855059/0x01107253), tag_num=0x30)
587: 0x1438 [0x02] IF !(Work_Zone[9] == 5*) GOTO 0x1452
588: 0x1440 [0x52] END_LOAD_SCHEDULER: End scheduler "s039" with entities [EventEntity, EventEntity], work=752*
589: 0x144F [0x01] GOTO 0x147B
590: 0x1452 [0x02] IF !(Work_Zone[9] == 6*) GOTO 0x146C
591: 0x145A [0x52] END_LOAD_SCHEDULER: End scheduler "s039" with entities [EventEntity, EventEntity], work=752*
592: 0x1469 [0x01] GOTO 0x147B
593: 0x146C [0x52] END_LOAD_SCHEDULER: End scheduler "s019" with entities [EventEntity, EventEntity], work=752*

SUBROUTINE_147B:
594: 0x147B [0x02] IF !(ExtData[1]->WorkLocal[0] == 1*) GOTO 0x14FF
595: 0x1483 [0x45] LOAD_SCHEDULED_TASK: Load scheduler "s015" with entities [EventEntity, EventEntity], work=[752*, 0*]
596: 0x1494 [0x4A] Unnamed NPC (ID: 17855060/0x01107254) looks at Unnamed NPC (ID: 17855059/0x01107253)
597: 0x149D [0x6F] WAIT_FRAME_DELAY: Yield until WaitTime reaches zero
598: 0x149E [0x76] CHECK_ENTITY_RENDER_FLAGS: Wait until Unnamed NPC (ID: 17855060/0x01107254) Render.Flags0 and Render.Flags3 conditions are met
599: 0x14A3 [0x29] REQ_SET_WAIT(priority=0x08, entity_id=Unnamed NPC (ID: 17855060/0x01107254), tag_num=0x3C)
600: 0x14AA [0x29] REQ_SET_WAIT(priority=0x08, entity_id=Unnamed NPC (ID: 17855060/0x01107254), tag_num=0x18)
601: 0x14B1 [0x2B] Unnamed NPC (ID: 17855060/0x01107254) [8816*]:
    → "Hearin' the way your ministers and maesters have been treatin' her, I'm inclined ta go give it myself and beat some sense inta them...but I know it'd just have the opposite effect."
602: 0x14B8 [0x23] WAIT_FOR_DIALOG_INTERACTION
603: 0x14B9 [0x29] REQ_SET_WAIT(priority=0x08, entity_id=Unnamed NPC (ID: 17855060/0x01107254), tag_num=0x3D)
604: 0x14C0 [0x2B] Unnamed NPC (ID: 17855060/0x01107254) [8817*]:
    → "So I want ya to hand it over in my stead, ta prove ta 'em that the princess is fully in the right."
605: 0x14C7 [0x1C] WAIT(30* ticks)
606: 0x14CA [0x29] REQ_SET_WAIT(priority=0x08, entity_id=Unnamed NPC (ID: 17855060/0x01107254), tag_num=0x4C)
607: 0x14D1 [0x1C] WAIT(30* ticks)
608: 0x14D4 [0x52] END_LOAD_SCHEDULER: End scheduler "s015" with entities [EventEntity, EventEntity], work=752*
609: 0x14E3 [0x45] LOAD_SCHEDULED_TASK: Load scheduler "s046" with entities [EventEntity, EventEntity], work=[752*, 0*]
610: 0x14F4 [0x23] WAIT_FOR_DIALOG_INTERACTION
611: 0x14F5 [0x29] REQ_SET_WAIT(priority=0x08, entity_id=Unnamed NPC (ID: 17855060/0x01107254), tag_num=0x19)
612: 0x14FC [0x01] GOTO 0x1578
