# 17855069

## Common Data

| Field            | Value                  |
|------------------|------------------------|
| Zone             | Yorcia Weald (ID: 263) |
| Block Size       | 784 bytes              |
| Total Events     | 28                     |
| References Count | 38                     |

## List of Events

| Event ID                   | Entrypoint   |   Size |   Instructions |
|----------------------------|--------------|--------|----------------|
| [65535](#event-65535)      | 0x0000       |      1 |              1 |
| [65535.1](#event-655351)   | 0x0001       |     21 |              2 |
| [3](#event-3)              | 0x0016       |     21 |              2 |
| [114](#event-114)          | 0x002B       |     21 |              2 |
| [65535.2](#event-655352)   | 0x0040       |     14 |              4 |
| [65535.3](#event-655353)   | 0x004E       |     14 |              4 |
| [7](#event-7)              | 0x005C       |      1 |              1 |
| [65535.4](#event-655354)   | 0x005D       |     45 |              4 |
| [65535.5](#event-655355)   | 0x008A       |     45 |              4 |
| [65535.6](#event-655356)   | 0x00B7       |     14 |              4 |
| [65535.7](#event-655357)   | 0x00C5       |     10 |              2 |
| [65535.8](#event-655358)   | 0x00CF       |     10 |              2 |
| [65535.9](#event-655359)   | 0x00D9       |     14 |              2 |
| [8](#event-8)              | 0x00E7       |      1 |              1 |
| [65535.10](#event-6553510) | 0x00E8       |     16 |              2 |
| [65535.11](#event-6553511) | 0x00F8       |     14 |              2 |
| [65535.12](#event-6553512) | 0x0106       |     19 |              2 |
| [65535.13](#event-6553513) | 0x0119       |     15 |              2 |
| [65535.14](#event-6553514) | 0x0128       |     19 |              2 |
| [65535.15](#event-6553515) | 0x013B       |     15 |              2 |
| [65535.16](#event-6553516) | 0x014A       |     16 |              2 |
| [65535.17](#event-6553517) | 0x015A       |     14 |              2 |
| [5600](#event-5600)        | 0x0168       |      1 |              1 |
| [5601](#event-5601)        | 0x0169       |      1 |              1 |
| [65535.18](#event-6553518) | 0x016A       |     45 |              4 |
| [65535.19](#event-6553519) | 0x0197       |     45 |              4 |
| [130](#event-130)          | 0x01C4       |     26 |              4 |
| [131](#event-131)          | 0x01DE       |     26 |              4 |

## DAT References (imed_data)

|   Index | Hex Value   |   Dec Value |
|---------|-------------|-------------|
|       0 | 0x0001      |           1 |
|       1 | 0x0000      |           0 |
|       2 | 0x0002      |           2 |
|       3 | 0x0008      |           8 |
|       4 | 0x00DB      |         219 |
|       5 | 0x006D      |         109 |
|       6 | 0x00A6      |         166 |
|       7 | 0x0014      |          20 |
|       8 | 0x008F      |         143 |
|       9 | 0x0017      |          23 |
|      10 | 0x000D      |          13 |
|      11 | 0x4055B     |      263515 |
|      12 | 0x62141     |      401729 |
|      13 | 0x01B6      |         438 |
|      14 | 0x3F0F6     |      258294 |
|      15 | 0x63F85     |      409477 |
|      16 | 0x05FC      |        1532 |
|      17 | 0x0004      |           4 |
|      18 | 0x000A      |          10 |
|      19 | 0x0039      |          57 |
|      20 | 0xFFFDB7F2  |  4294817778 |
|      21 | 0x6CCBA     |      445626 |
|      22 | 0x0083      |         131 |
|      23 | 0x012C      |         300 |
|      24 | 0x0080      |         128 |
|      25 | 0x00C8      |         200 |
|      26 | 0x0B54      |        2900 |
|      27 | 0x00D2      |         210 |
|      28 | 0x008C      |         140 |
|      29 | 0x0027      |          39 |
|      30 | 0x0007      |           7 |
|      31 | 0x0164      |         356 |
|      32 | 0x0012      |          18 |
|      33 | 0x0066      |         102 |
|      34 | 0x0263      |         611 |
|      35 | 0x0019      |          25 |
|      36 | 0x008E      |         142 |
|      37 | 0x0003      |           3 |

## Events

### Event 65535

#### Metadata

| Field        | Value   |
|--------------|---------|
| Entrypoint   | 0x0000  |
| Data Size    | 1 bytes |
| Instructions | 1       |

```
      00 01 02 03 04 05 06 07  08 09 0A 0B 0C 0D 0E 0F
      -- -- -- -- -- -- -- --  -- -- -- -- -- -- -- --
0000: 00                                                .               
```

#### Opcodes

```
  0: 0x0000 [0x00] END_REQSTACK()
```

### Event 65535.1

#### Metadata

| Field        | Value    |
|--------------|----------|
| Entrypoint   | 0x0001   |
| Data Size    | 21 bytes |
| Instructions | 2        |

```
      00 01 02 03 04 05 06 07  08 09 0A 0B 0C 0D 0E 0F
      -- -- -- -- -- -- -- --  -- -- -- -- -- -- -- --
0000:    B6 0B 00 80 01 80 01  80 01 80 01 80 01 80 01   ...............
0010: 80 01 80 01 80 00                                 ......          
```

#### Opcodes

```
  0: 0x0001 [0xB6] ENTITY_APPEARANCE_HANDLER(case=Full entity look, race=1*, hair=0*, head=0*, body=0*, hands=0*, legs=0*, feet=0*, main=0*, sub=0*)
  1: 0x0015 [0x00] END_REQSTACK()
```

### Event 3

#### Metadata

| Field        | Value    |
|--------------|----------|
| Entrypoint   | 0x0016   |
| Data Size    | 21 bytes |
| Instructions | 2        |

```
      00 01 02 03 04 05 06 07  08 09 0A 0B 0C 0D 0E 0F
      -- -- -- -- -- -- -- --  -- -- -- -- -- -- -- --
0010:                   B6 0B  02 80 03 80 04 80 05 80        ..........
0020: 05 80 05 80 05 80 06 80  01 80 00                 ...........     
```

#### Opcodes

```
  0: 0x0016 [0xB6] ENTITY_APPEARANCE_HANDLER(case=Full entity look, race=2*, hair=8*, head=219*, body=109*, hands=109*, legs=109*, feet=109*, main=166*, sub=0*)
  1: 0x002A [0x00] END_REQSTACK()
```

### Event 114

#### Metadata

| Field        | Value    |
|--------------|----------|
| Entrypoint   | 0x002B   |
| Data Size    | 21 bytes |
| Instructions | 2        |

```
      00 01 02 03 04 05 06 07  08 09 0A 0B 0C 0D 0E 0F
      -- -- -- -- -- -- -- --  -- -- -- -- -- -- -- --
0020:                                   B6 0B 02 80 02             .....
0030: 80 07 80 08 80 09 80 08  80 08 80 01 80 01 80 00  ................
```

#### Opcodes

```
  0: 0x002B [0xB6] ENTITY_APPEARANCE_HANDLER(case=Full entity look, race=2*, hair=2*, head=20*, body=143*, hands=23*, legs=143*, feet=143*, main=0*, sub=0*)
  1: 0x003F [0x00] END_REQSTACK()
```

### Event 65535.2

#### Metadata

| Field        | Value    |
|--------------|----------|
| Entrypoint   | 0x0040   |
| Data Size    | 14 bytes |
| Instructions | 4        |

```
      00 01 02 03 04 05 06 07  08 09 0A 0B 0C 0D 0E 0F
      -- -- -- -- -- -- -- --  -- -- -- -- -- -- -- --
0040: 32 0A 80 1F 00 0B 80 0C  80 0D 80 1F 01 00        2.............  
```

#### Opcodes

```
  0: 0x0040 [0x32] ExtData[1]->MainSpeed = 13* * 0.1
  1: 0x0043 [0x1F] MOVE_ENTITY: EventEntity moves to X=263.515*, Z=401.729*, Y=0.438*
  2: 0x004B [0x1F] MOVE_ENTITY: Update entity position (mode=1)
  3: 0x004D [0x00] END_REQSTACK()
```

### Event 65535.3

#### Metadata

| Field        | Value    |
|--------------|----------|
| Entrypoint   | 0x004E   |
| Data Size    | 14 bytes |
| Instructions | 4        |

```
      00 01 02 03 04 05 06 07  08 09 0A 0B 0C 0D 0E 0F
      -- -- -- -- -- -- -- --  -- -- -- -- -- -- -- --
0040:                                            32 0A                2.
0050: 80 1F 00 0E 80 0F 80 10  80 1F 01 00              ............    
```

#### Opcodes

```
  0: 0x004E [0x32] ExtData[1]->MainSpeed = 13* * 0.1
  1: 0x0051 [0x1F] MOVE_ENTITY: EventEntity moves to X=258.294*, Z=409.477*, Y=1.532*
  2: 0x0059 [0x1F] MOVE_ENTITY: Update entity position (mode=1)
  3: 0x005B [0x00] END_REQSTACK()
```

### Event 7

#### Metadata

| Field        | Value   |
|--------------|---------|
| Entrypoint   | 0x005C  |
| Data Size    | 1 bytes |
| Instructions | 1       |

```
      00 01 02 03 04 05 06 07  08 09 0A 0B 0C 0D 0E 0F
      -- -- -- -- -- -- -- --  -- -- -- -- -- -- -- --
0050:                                      00                       .   
```

#### Opcodes

```
  0: 0x005C [0x00] END_REQSTACK()
```

### Event 65535.4

#### Metadata

| Field        | Value    |
|--------------|----------|
| Entrypoint   | 0x005D   |
| Data Size    | 45 bytes |
| Instructions | 4        |

```
      00 01 02 03 04 05 06 07  08 09 0A 0B 0C 0D 0E 0F
      -- -- -- -- -- -- -- --  -- -- -- -- -- -- -- --
0050:                                         B6 0B 11               ...
0060: 80 12 80 13 80 13 80 08  80 08 80 08 80 01 80 01  ................
0070: 80 B4 00 00 00 46 61 75  73 74 6F 69 73 65 00 00  .....Faustoise..
0080: 00 00 00 00 00 B5 00 00  00 00                    ..........      
```

#### Opcodes

```
  0: 0x005D [0xB6] ENTITY_APPEARANCE_HANDLER(case=Full entity look, race=4*, hair=10*, head=57*, body=57*, hands=143*, legs=143*, feet=143*, main=0*, sub=0*)
  1: 0x0071 [0xB4] UI_WINDOW_STRING_HANDLER(case=0x00 - Copy string from opcode, work_offset=ExtData[1]->WorkLocal[0], string="Faustoise")
  2: 0x0085 [0xB5] SET_EVENT_ENTITY_NAME: Change EventEntity name to ExtData[1]->WorkLocal[0]
  3: 0x0089 [0x00] END_REQSTACK()
```

### Event 65535.5

#### Metadata

| Field        | Value    |
|--------------|----------|
| Entrypoint   | 0x008A   |
| Data Size    | 45 bytes |
| Instructions | 4        |

```
      00 01 02 03 04 05 06 07  08 09 0A 0B 0C 0D 0E 0F
      -- -- -- -- -- -- -- --  -- -- -- -- -- -- -- --
0080:                                B6 0B 00 80 01 80            ......
0090: 01 80 01 80 01 80 01 80  01 80 01 80 01 80 B4 00  ................
00A0: 00 00 00 00 00 00 00 00  00 00 00 00 00 00 00 00  ................
00B0: 00 00 B5 00 00 00 00                              .......         
```

#### Opcodes

```
  0: 0x008A [0xB6] ENTITY_APPEARANCE_HANDLER(case=Full entity look, race=1*, hair=0*, head=0*, body=0*, hands=0*, legs=0*, feet=0*, main=0*, sub=0*)
  1: 0x009E [0xB4] UI_WINDOW_STRING_HANDLER(case=0x00 - Copy string from opcode, work_offset=ExtData[1]->WorkLocal[0], string="")
  2: 0x00B2 [0xB5] SET_EVENT_ENTITY_NAME: Change EventEntity name to ExtData[1]->WorkLocal[0]
  3: 0x00B6 [0x00] END_REQSTACK()
```

### Event 65535.6

#### Metadata

| Field        | Value    |
|--------------|----------|
| Entrypoint   | 0x00B7   |
| Data Size    | 14 bytes |
| Instructions | 4        |

```
      00 01 02 03 04 05 06 07  08 09 0A 0B 0C 0D 0E 0F
      -- -- -- -- -- -- -- --  -- -- -- -- -- -- -- --
00B0:                      32  0A 80 1F 00 14 80 15 80         2........
00C0: 16 80 1F 01 00                                    .....           
```

#### Opcodes

```
  0: 0x00B7 [0x32] ExtData[1]->MainSpeed = 13* * 0.1
  1: 0x00BA [0x1F] MOVE_ENTITY: EventEntity moves to X=-149.518*, Z=445.626*, Y=0.131*
  2: 0x00C2 [0x1F] MOVE_ENTITY: Update entity position (mode=1)
  3: 0x00C4 [0x00] END_REQSTACK()
```

### Event 65535.7

#### Metadata

| Field        | Value    |
|--------------|----------|
| Entrypoint   | 0x00C5   |
| Data Size    | 10 bytes |
| Instructions | 2        |

```
      00 01 02 03 04 05 06 07  08 09 0A 0B 0C 0D 0E 0F
      -- -- -- -- -- -- -- --  -- -- -- -- -- -- -- --
00C0:                6C 5D 72  10 01 01 80 17 80 00          l]r....... 
```

#### Opcodes

```
  0: 0x00C5 [0x6C] FADE_ENTITY_COLOR(entity_id=Unnamed NPC (ID: 17855069/0x0110725D), end_alpha=0*, fade_time=300*)
  1: 0x00CE [0x00] END_REQSTACK()
```

### Event 65535.8

#### Metadata

| Field        | Value    |
|--------------|----------|
| Entrypoint   | 0x00CF   |
| Data Size    | 10 bytes |
| Instructions | 2        |

```
      00 01 02 03 04 05 06 07  08 09 0A 0B 0C 0D 0E 0F
      -- -- -- -- -- -- -- --  -- -- -- -- -- -- -- --
00C0:                                               6C                 l
00D0: 5D 72 10 01 18 80 19 80  00                       ]r.......       
```

#### Opcodes

```
  0: 0x00CF [0x6C] FADE_ENTITY_COLOR(entity_id=Unnamed NPC (ID: 17855069/0x0110725D), end_alpha=128*, fade_time=200*)
  1: 0x00D8 [0x00] END_REQSTACK()
```

### Event 65535.9

#### Metadata

| Field        | Value    |
|--------------|----------|
| Entrypoint   | 0x00D9   |
| Data Size    | 14 bytes |
| Instructions | 2        |

```
      00 01 02 03 04 05 06 07  08 09 0A 0B 0C 0D 0E 0F
      -- -- -- -- -- -- -- --  -- -- -- -- -- -- -- --
00D0:                             2C F8 FF FF 7F F8 FF           ,......
00E0: FF 7F 64 65 61 64 00                              ..dead.         
```

#### Opcodes

```
  0: 0x00D9 [0x2C] CREATE_SCHEDULER_TASK: Create scheduler "dead" with entities [EventEntity, EventEntity]
  1: 0x00E6 [0x00] END_REQSTACK()
```

### Event 8

#### Metadata

| Field        | Value   |
|--------------|---------|
| Entrypoint   | 0x00E7  |
| Data Size    | 1 bytes |
| Instructions | 1       |

```
      00 01 02 03 04 05 06 07  08 09 0A 0B 0C 0D 0E 0F
      -- -- -- -- -- -- -- --  -- -- -- -- -- -- -- --
00E0:                      00                                  .        
```

#### Opcodes

```
  0: 0x00E7 [0x00] END_REQSTACK()
```

### Event 65535.10

#### Metadata

| Field        | Value    |
|--------------|----------|
| Entrypoint   | 0x00E8   |
| Data Size    | 16 bytes |
| Instructions | 2        |

```
      00 01 02 03 04 05 06 07  08 09 0A 0B 0C 0D 0E 0F
      -- -- -- -- -- -- -- --  -- -- -- -- -- -- -- --
00E0:                          5B 1A 80 F8 FF FF 7F F8          [.......
00F0: FF FF 7F 74 61 6F 30 00                           ...tao0.        
```

#### Opcodes

```
  0: 0x00E8 [0x5B] LOAD_EXT_SCHEDULER: Load scheduler "tao0" with entities [EventEntity, EventEntity], work=2900*
  1: 0x00F7 [0x00] END_REQSTACK()
```

### Event 65535.11

#### Metadata

| Field        | Value    |
|--------------|----------|
| Entrypoint   | 0x00F8   |
| Data Size    | 14 bytes |
| Instructions | 2        |

```
      00 01 02 03 04 05 06 07  08 09 0A 0B 0C 0D 0E 0F
      -- -- -- -- -- -- -- --  -- -- -- -- -- -- -- --
00F0:                          53 F8 FF FF 7F F8 FF FF          S.......
0100: 7F 74 61 6F 30 00                                 .tao0.          
```

#### Opcodes

```
  0: 0x00F8 [0x53] WAIT_SCHEDULER_TASK: Wait for scheduler "tao0" with entities [EventEntity, EventEntity]
  1: 0x0105 [0x00] END_REQSTACK()
```

### Event 65535.12

#### Metadata

| Field        | Value    |
|--------------|----------|
| Entrypoint   | 0x0106   |
| Data Size    | 19 bytes |
| Instructions | 2        |

```
      00 01 02 03 04 05 06 07  08 09 0A 0B 0C 0D 0E 0F
      -- -- -- -- -- -- -- --  -- -- -- -- -- -- -- --
0100:                   5F 05  1A 80 F8 FF FF 7F F8 FF        _.........
0110: FF 7F 74 61 6F 31 1B 80  00                       ..tao1...       
```

#### Opcodes

```
  0: 0x0106 [0x5F] MULTI_HANDLER_COMPLEX(mode=0x05 - Load ext scheduler with flag (OpCode 0x5B mode 0, flag 1), ref=2900*, entity1=EventEntity, entity2=EventEntity, string="tao1", extra=210*)
  1: 0x0118 [0x00] END_REQSTACK()
```

### Event 65535.13

#### Metadata

| Field        | Value    |
|--------------|----------|
| Entrypoint   | 0x0119   |
| Data Size    | 15 bytes |
| Instructions | 2        |

```
      00 01 02 03 04 05 06 07  08 09 0A 0B 0C 0D 0E 0F
      -- -- -- -- -- -- -- --  -- -- -- -- -- -- -- --
0110:                             5F 07 F8 FF FF 7F F8           _......
0120: FF FF 7F 74 61 6F 31 00                           ...tao1.        
```

#### Opcodes

```
  0: 0x0119 [0x5F] MULTI_HANDLER_COMPLEX(mode=0x07 - Wait scheduler task (OpCode 0x53))
  1: 0x0127 [0x00] END_REQSTACK()
```

### Event 65535.14

#### Metadata

| Field        | Value    |
|--------------|----------|
| Entrypoint   | 0x0128   |
| Data Size    | 19 bytes |
| Instructions | 2        |

```
      00 01 02 03 04 05 06 07  08 09 0A 0B 0C 0D 0E 0F
      -- -- -- -- -- -- -- --  -- -- -- -- -- -- -- --
0120:                          5F 05 1A 80 F8 FF FF 7F          _.......
0130: F8 FF FF 7F 74 61 6F 32  1C 80 00                 ....tao2...     
```

#### Opcodes

```
  0: 0x0128 [0x5F] MULTI_HANDLER_COMPLEX(mode=0x05 - Load ext scheduler with flag (OpCode 0x5B mode 0, flag 1), ref=2900*, entity1=EventEntity, entity2=EventEntity, string="tao2", extra=140*)
  1: 0x013A [0x00] END_REQSTACK()
```

### Event 65535.15

#### Metadata

| Field        | Value    |
|--------------|----------|
| Entrypoint   | 0x013B   |
| Data Size    | 15 bytes |
| Instructions | 2        |

```
      00 01 02 03 04 05 06 07  08 09 0A 0B 0C 0D 0E 0F
      -- -- -- -- -- -- -- --  -- -- -- -- -- -- -- --
0130:                                   5F 07 F8 FF FF             _....
0140: 7F F8 FF FF 7F 74 61 6F  32 00                    .....tao2.      
```

#### Opcodes

```
  0: 0x013B [0x5F] MULTI_HANDLER_COMPLEX(mode=0x07 - Wait scheduler task (OpCode 0x53))
  1: 0x0149 [0x00] END_REQSTACK()
```

### Event 65535.16

#### Metadata

| Field        | Value    |
|--------------|----------|
| Entrypoint   | 0x014A   |
| Data Size    | 16 bytes |
| Instructions | 2        |

```
      00 01 02 03 04 05 06 07  08 09 0A 0B 0C 0D 0E 0F
      -- -- -- -- -- -- -- --  -- -- -- -- -- -- -- --
0140:                                66 1D 80 F8 FF FF            f.....
0150: 7F F8 FF FF 7F 74 6C 6B  30 00                    .....tlk0.      
```

#### Opcodes

```
  0: 0x014A [0x66] LOAD_EXT_SCHEDULER_MAIN: Load scheduler "tlk0" with entities [EventEntity, EventEntity], work=39*
  1: 0x0159 [0x00] END_REQSTACK()
```

### Event 65535.17

#### Metadata

| Field        | Value    |
|--------------|----------|
| Entrypoint   | 0x015A   |
| Data Size    | 14 bytes |
| Instructions | 2        |

```
      00 01 02 03 04 05 06 07  08 09 0A 0B 0C 0D 0E 0F
      -- -- -- -- -- -- -- --  -- -- -- -- -- -- -- --
0150:                                53 F8 FF FF 7F F8            S.....
0160: FF FF 7F 74 6C 6B 30 00                           ...tlk0.        
```

#### Opcodes

```
  0: 0x015A [0x53] WAIT_SCHEDULER_TASK: Wait for scheduler "tlk0" with entities [EventEntity, EventEntity]
  1: 0x0167 [0x00] END_REQSTACK()
```

### Event 5600

#### Metadata

| Field        | Value   |
|--------------|---------|
| Entrypoint   | 0x0168  |
| Data Size    | 1 bytes |
| Instructions | 1       |

```
      00 01 02 03 04 05 06 07  08 09 0A 0B 0C 0D 0E 0F
      -- -- -- -- -- -- -- --  -- -- -- -- -- -- -- --
0160:                          00                               .       
```

#### Opcodes

```
  0: 0x0168 [0x00] END_REQSTACK()
```

### Event 5601

#### Metadata

| Field        | Value   |
|--------------|---------|
| Entrypoint   | 0x0169  |
| Data Size    | 1 bytes |
| Instructions | 1       |

```
      00 01 02 03 04 05 06 07  08 09 0A 0B 0C 0D 0E 0F
      -- -- -- -- -- -- -- --  -- -- -- -- -- -- -- --
0160:                             00                             .      
```

#### Opcodes

```
  0: 0x0169 [0x00] END_REQSTACK()
```

### Event 65535.18

#### Metadata

| Field        | Value    |
|--------------|----------|
| Entrypoint   | 0x016A   |
| Data Size    | 45 bytes |
| Instructions | 4        |

```
      00 01 02 03 04 05 06 07  08 09 0A 0B 0C 0D 0E 0F
      -- -- -- -- -- -- -- --  -- -- -- -- -- -- -- --
0160:                                B6 0B 02 80 1E 80            ......
0170: 01 80 1F 80 20 80 21 80  20 80 22 80 01 80 B4 00  .... .!. .".....
0180: 00 00 4C 6F 72 69 73 73  61 00 00 00 00 00 00 00  ..Lorissa.......
0190: 00 00 B5 00 00 00 00                              .......         
```

#### Opcodes

```
  0: 0x016A [0xB6] ENTITY_APPEARANCE_HANDLER(case=Full entity look, race=2*, hair=7*, head=0*, body=356*, hands=18*, legs=102*, feet=18*, main=611*, sub=0*)
  1: 0x017E [0xB4] UI_WINDOW_STRING_HANDLER(case=0x00 - Copy string from opcode, work_offset=ExtData[1]->WorkLocal[0], string="Lorissa")
  2: 0x0192 [0xB5] SET_EVENT_ENTITY_NAME: Change EventEntity name to ExtData[1]->WorkLocal[0]
  3: 0x0196 [0x00] END_REQSTACK()
```

### Event 65535.19

#### Metadata

| Field        | Value    |
|--------------|----------|
| Entrypoint   | 0x0197   |
| Data Size    | 45 bytes |
| Instructions | 4        |

```
      00 01 02 03 04 05 06 07  08 09 0A 0B 0C 0D 0E 0F
      -- -- -- -- -- -- -- --  -- -- -- -- -- -- -- --
0190:                      B6  0B 00 80 01 80 01 80 01         .........
01A0: 80 01 80 01 80 01 80 01  80 01 80 B4 00 00 00 00  ................
01B0: 00 00 00 00 00 00 00 00  00 00 00 00 00 00 00 B5  ................
01C0: 00 00 00 00                                       ....            
```

#### Opcodes

```
  0: 0x0197 [0xB6] ENTITY_APPEARANCE_HANDLER(case=Full entity look, race=1*, hair=0*, head=0*, body=0*, hands=0*, legs=0*, feet=0*, main=0*, sub=0*)
  1: 0x01AB [0xB4] UI_WINDOW_STRING_HANDLER(case=0x00 - Copy string from opcode, work_offset=ExtData[1]->WorkLocal[0], string="")
  2: 0x01BF [0xB5] SET_EVENT_ENTITY_NAME: Change EventEntity name to ExtData[1]->WorkLocal[0]
  3: 0x01C3 [0x00] END_REQSTACK()
```

### Event 130

#### Metadata

| Field        | Value    |
|--------------|----------|
| Entrypoint   | 0x01C4   |
| Data Size    | 26 bytes |
| Instructions | 4        |

```
      00 01 02 03 04 05 06 07  08 09 0A 0B 0C 0D 0E 0F
      -- -- -- -- -- -- -- --  -- -- -- -- -- -- -- --
01C0:             A5 01 C0 00  80 B6 0B 00 80 23 80 01      .........#..
01D0: 80 13 80 01 80 24 80 25  80 01 80 01 80 00        .....$.%......  
```

#### Opcodes

```
  0: 0x01C4 [0xA5] EventEntity->Flags3.BallistaTeam |= 0x08  // Set bit 3 of BallistaTeam
  1: 0x01C6 [0xC0] EventEntity->Render.Flags3 |= 0x1000 // Set bit 12 (from 1*)
  2: 0x01C9 [0xB6] ENTITY_APPEARANCE_HANDLER(case=Full entity look, race=1*, hair=25*, head=0*, body=57*, hands=0*, legs=142*, feet=3*, main=0*, sub=0*)
  3: 0x01DD [0x00] END_REQSTACK()
```

### Event 131

#### Metadata

| Field        | Value    |
|--------------|----------|
| Entrypoint   | 0x01DE   |
| Data Size    | 26 bytes |
| Instructions | 4        |

```
      00 01 02 03 04 05 06 07  08 09 0A 0B 0C 0D 0E 0F
      -- -- -- -- -- -- -- --  -- -- -- -- -- -- -- --
01D0:                                            A5 01                ..
01E0: C0 00 80 B6 0B 00 80 23  80 01 80 13 80 01 80 24  .......#.......$
01F0: 80 25 80 01 80 01 80 00                           .%......        
```

#### Opcodes

```
  0: 0x01DE [0xA5] EventEntity->Flags3.BallistaTeam |= 0x08  // Set bit 3 of BallistaTeam
  1: 0x01E0 [0xC0] EventEntity->Render.Flags3 |= 0x1000 // Set bit 12 (from 1*)
  2: 0x01E3 [0xB6] ENTITY_APPEARANCE_HANDLER(case=Full entity look, race=1*, hair=25*, head=0*, body=57*, hands=0*, legs=142*, feet=3*, main=0*, sub=0*)
  3: 0x01F7 [0x00] END_REQSTACK()
```
