# 17855086 - Mano-Amano

## Common Data

| Field            | Value                  |
|------------------|------------------------|
| Zone             | Yorcia Weald (ID: 263) |
| Block Size       | 744 bytes              |
| Total Events     | 11                     |
| References Count | 30                     |

## List of Events

| Event ID              | Entrypoint   |   Size |   Instructions |
|-----------------------|--------------|--------|----------------|
| [65535](#event-65535) | 0x0000       |      1 |              1 |
| [50](#event-50)       | 0x0001       |     43 |              9 |
| [51](#event-51)       | 0x002C       |     77 |             25 |
| [52](#event-52)       | 0x0079       |     47 |             11 |
| [53](#event-53)       | 0x00A8       |     78 |             18 |
| [54](#event-54)       | 0x00F6       |     75 |             21 |
| [55](#event-55)       | 0x0141       |     66 |             18 |
| [56](#event-56)       | 0x0183       |     58 |             14 |
| [57](#event-57)       | 0x01BD       |     48 |             10 |
| [58](#event-58)       | 0x01ED       |     70 |             14 |
| [59](#event-59)       | 0x0233       |      1 |              1 |

## DAT References (imed_data)

|   Index | Hex Value   |   Dec Value |
|---------|-------------|-------------|
|       0 | 0x0028      |          40 |
|       1 | 0x2083      |        8323 |
|       2 | 0x2084      |        8324 |
|       3 | 0x2085      |        8325 |
|       4 | 0x2086      |        8326 |
|       5 | 0x2087      |        8327 |
|       6 | 0x2088      |        8328 |
|       7 | 0x2089      |        8329 |
|       8 | 0x208A      |        8330 |
|       9 | 0x208B      |        8331 |
|      10 | 0x0001      |           1 |
|      11 | 0x208C      |        8332 |
|      12 | 0x208D      |        8333 |
|      13 | 0x208E      |        8334 |
|      14 | 0x208F      |        8335 |
|      15 | 0x00C9      |         201 |
|      16 | 0x0000      |           0 |
|      17 | 0x2090      |        8336 |
|      18 | 0x094F      |        2383 |
|      19 | 0x2091      |        8337 |
|      20 | 0x2092      |        8338 |
|      21 | 0x0003      |           3 |
|      22 | 0x2093      |        8339 |
|      23 | 0x2094      |        8340 |
|      24 | 0x2097      |        8343 |
|      25 | 0x2098      |        8344 |
|      26 | 0x2099      |        8345 |
|      27 | 0x209A      |        8346 |
|      28 | 0x2095      |        8341 |
|      29 | 0x2096      |        8342 |

## String References

- **8323**: The sky is so gloomy-woomy here... I wish I were back in Adoulin, with blue skies and sunny summers...
- **8324**: You there, [caballero/caballera]! I've got a little-wittle task for you.
- **8325**: The Scouts' Coalition is in need of a specialist of my stature to collectaru informacion about numbing blossoms, and I'm in a bit of a bind.
- **8326**: Many of these impedimentarus grow aqui in Yorcia Weald, and I'm in charge of studying how they grow.
- **8327**: Care to gather some soil samples for me?
- **8328**: There's a reason I can't go myself, [hombre/muchacha].
- **8329**: I've never been good at reading a map, and if I go so much as half a malm away from a waypointaru I get hopelessly lost. Vale?
- **8330**: Simply put, I'll get eaten-weaten alive.
- **8331**: So, andale! I'm not getting any younger!
- **8332**: You gathered some dirtaru for me? Muy bien!
- **8333**: Madre mia--look at all this pollen-wollen!
- **8334**: Si, this will make excellentaru research material.
- **8335**: You've done a wonderful job, mi [amigo/amiga]. Here's a presentaru for you.
- **8336**: Hey, my favorite colonizador[/a]! I've been waitaruing for you.
- **8337**: I investigatarued the earth you brought me, and made a startling discovery. These flores--they don't just paralyze people, but they are partly connected with the pollution-wution in Ulbuka we've all come to hate.
- **8338**: La tierra, she grows numbing blossoms because of the poison. Or maybe it's the blossom-wossoms themselves that poison the land. We aren't sure yet.
- **8339**: If you have a spare momentaru, collect $0 of the blossoms for me, por favor.
- **8340**: Ay caramba, don't look at me like that. You know how hard it is for me not to get lostaru! So please--do me this deed.
- **8341**: Pull up $0 numbing blossoms and bringy-wing them back to me, comprende?
- **8342**: You're back so soon--estupendo! These will make excellentaru specimens.
- **8343**: I've been estudiando the bounty you brought me and I've reached a startling-wartling conclusion, [hijo/hija]. The corruption in the land is deeper than we previously thought.
- **8344**: Bendito! The blightaru is such that it feels some terrible demons must buried deep beneath the surface. But a scientistaru always goes with evidence, not speculation. More work is needed.
- **8345**: You understand what that means, no? Findy-wind me $0 more numbing blossom[/s] and I'll give you another reward.
- **8346**: Tear 'em up from the ground and deliver them to me whole, de acuerdo?

## Events

### Event 65535

#### Metadata

| Field        | Value   |
|--------------|---------|
| Entrypoint   | 0x0000  |
| Data Size    | 1 bytes |
| Instructions | 1       |

```
      00 01 02 03 04 05 06 07  08 09 0A 0B 0C 0D 0E 0F
      -- -- -- -- -- -- -- --  -- -- -- -- -- -- -- --
0000: 00                                                .               
```

#### Opcodes

```
  0: 0x0000 [0x00] END_REQSTACK()
```

### Event 50

#### Metadata

| Field        | Value    |
|--------------|----------|
| Entrypoint   | 0x0001   |
| Data Size    | 43 bytes |
| Instructions | 9        |

```
      00 01 02 03 04 05 06 07  08 09 0A 0B 0C 0D 0E 0F
      -- -- -- -- -- -- -- --  -- -- -- -- -- -- -- --
0000:    1E F0 FF FF 7F 6F 70  66 00 80 F8 FF FF 7F F8   .....opf.......
0010: FF FF 7F 74 6C 6B 30 1D  01 80 23 66 00 80 F8 FF  ...tlk0...#f....
0020: FF 7F F8 FF FF 7F 74 6C  6B 31 21 00              ......tlk1!.    
```

#### Opcodes

```
  0: 0x0001 [0x1E] EventEntity looks at LocalPlayer and starts talking
  1: 0x0006 [0x6F] WAIT_FRAME_DELAY: Yield until WaitTime reaches zero
  2: 0x0007 [0x70] WAIT_ENTITY_RENDER_FLAG: Wait while EventEntity->Render.Flags3 bit 2 is set (cancel turn if not)
  3: 0x0008 [0x66] LOAD_EXT_SCHEDULER_MAIN: Load scheduler "tlk0" with entities [EventEntity, EventEntity], work=40*
  4: 0x0017 [0x1D] PRINT_EVENT_MESSAGE(message_id=8323*)
    → "The sky is so gloomy-woomy here... I wish I were back in Adoulin, with blue skies and sunny summers..."
  5: 0x001A [0x23] WAIT_FOR_DIALOG_INTERACTION
  6: 0x001B [0x66] LOAD_EXT_SCHEDULER_MAIN: Load scheduler "tlk1" with entities [EventEntity, EventEntity], work=40*
  7: 0x002A [0x21] END_EVENT
  8: 0x002B [0x00] END_REQSTACK()
```

### Event 51

#### Metadata

| Field        | Value    |
|--------------|----------|
| Entrypoint   | 0x002C   |
| Data Size    | 77 bytes |
| Instructions | 25       |

```
      00 01 02 03 04 05 06 07  08 09 0A 0B 0C 0D 0E 0F
      -- -- -- -- -- -- -- --  -- -- -- -- -- -- -- --
0020:                                      42 1E F0 FF              B...
0030: FF 7F 6F 70 66 00 80 F8  FF FF 7F F8 FF FF 7F 74  ..opf..........t
0040: 6C 6B 30 1D 02 80 23 1D  03 80 23 1D 04 80 23 1D  lk0...#...#...#.
0050: 05 80 23 1D 06 80 23 1D  07 80 23 1D 08 80 23 1D  ..#...#...#...#.
0060: 09 80 23 66 00 80 F8 FF  FF 7F F8 FF FF 7F 74 6C  ..#f..........tl
0070: 6B 31 03 01 10 0A 80 21  00                       k1.....!.       
```

#### Opcodes

```
  0: 0x002C [0x42] SET_CLI_EVENT_CANCEL_DATA()
  1: 0x002D [0x1E] EventEntity looks at LocalPlayer and starts talking
  2: 0x0032 [0x6F] WAIT_FRAME_DELAY: Yield until WaitTime reaches zero
  3: 0x0033 [0x70] WAIT_ENTITY_RENDER_FLAG: Wait while EventEntity->Render.Flags3 bit 2 is set (cancel turn if not)
  4: 0x0034 [0x66] LOAD_EXT_SCHEDULER_MAIN: Load scheduler "tlk0" with entities [EventEntity, EventEntity], work=40*
  5: 0x0043 [0x1D] PRINT_EVENT_MESSAGE(message_id=8324*)
    → "You there, [caballero/caballera]! I've got a little-wittle task for you."
  6: 0x0046 [0x23] WAIT_FOR_DIALOG_INTERACTION
  7: 0x0047 [0x1D] PRINT_EVENT_MESSAGE(message_id=8325*)
    → "The Scouts' Coalition is in need of a specialist of my stature to collectaru informacion about numbing blossoms, and I'm in a bit of a bind."
  8: 0x004A [0x23] WAIT_FOR_DIALOG_INTERACTION
  9: 0x004B [0x1D] PRINT_EVENT_MESSAGE(message_id=8326*)
    → "Many of these impedimentarus grow aqui in Yorcia Weald, and I'm in charge of studying how they grow."
 10: 0x004E [0x23] WAIT_FOR_DIALOG_INTERACTION
 11: 0x004F [0x1D] PRINT_EVENT_MESSAGE(message_id=8327*)
    → "Care to gather some soil samples for me?"
 12: 0x0052 [0x23] WAIT_FOR_DIALOG_INTERACTION
 13: 0x0053 [0x1D] PRINT_EVENT_MESSAGE(message_id=8328*)
    → "There's a reason I can't go myself, [hombre/muchacha]."
 14: 0x0056 [0x23] WAIT_FOR_DIALOG_INTERACTION
 15: 0x0057 [0x1D] PRINT_EVENT_MESSAGE(message_id=8329*)
    → "I've never been good at reading a map, and if I go so much as half a malm away from a waypointaru I get hopelessly lost. Vale?"
 16: 0x005A [0x23] WAIT_FOR_DIALOG_INTERACTION
 17: 0x005B [0x1D] PRINT_EVENT_MESSAGE(message_id=8330*)
    → "Simply put, I'll get eaten-weaten alive."
 18: 0x005E [0x23] WAIT_FOR_DIALOG_INTERACTION
 19: 0x005F [0x1D] PRINT_EVENT_MESSAGE(message_id=8331*)
    → "So, andale! I'm not getting any younger!"
 20: 0x0062 [0x23] WAIT_FOR_DIALOG_INTERACTION
 21: 0x0063 [0x66] LOAD_EXT_SCHEDULER_MAIN: Load scheduler "tlk1" with entities [EventEntity, EventEntity], work=40*
 22: 0x0072 [0x03] Work_Zone[1] = 1*
 23: 0x0077 [0x21] END_EVENT
 24: 0x0078 [0x00] END_REQSTACK()
```

### Event 52

#### Metadata

| Field        | Value    |
|--------------|----------|
| Entrypoint   | 0x0079   |
| Data Size    | 47 bytes |
| Instructions | 11       |

```
      00 01 02 03 04 05 06 07  08 09 0A 0B 0C 0D 0E 0F
      -- -- -- -- -- -- -- --  -- -- -- -- -- -- -- --
0070:                             1E F0 FF FF 7F 6F 70           .....op
0080: 66 00 80 F8 FF FF 7F F8  FF FF 7F 74 6C 6B 30 1D  f..........tlk0.
0090: 04 80 23 1D 05 80 23 66  00 80 F8 FF FF 7F F8 FF  ..#...#f........
00A0: FF 7F 74 6C 6B 31 21 00                           ..tlk1!.        
```

#### Opcodes

```
  0: 0x0079 [0x1E] EventEntity looks at LocalPlayer and starts talking
  1: 0x007E [0x6F] WAIT_FRAME_DELAY: Yield until WaitTime reaches zero
  2: 0x007F [0x70] WAIT_ENTITY_RENDER_FLAG: Wait while EventEntity->Render.Flags3 bit 2 is set (cancel turn if not)
  3: 0x0080 [0x66] LOAD_EXT_SCHEDULER_MAIN: Load scheduler "tlk0" with entities [EventEntity, EventEntity], work=40*
  4: 0x008F [0x1D] PRINT_EVENT_MESSAGE(message_id=8326*)
    → "Many of these impedimentarus grow aqui in Yorcia Weald, and I'm in charge of studying how they grow."
  5: 0x0092 [0x23] WAIT_FOR_DIALOG_INTERACTION
  6: 0x0093 [0x1D] PRINT_EVENT_MESSAGE(message_id=8327*)
    → "Care to gather some soil samples for me?"
  7: 0x0096 [0x23] WAIT_FOR_DIALOG_INTERACTION
  8: 0x0097 [0x66] LOAD_EXT_SCHEDULER_MAIN: Load scheduler "tlk1" with entities [EventEntity, EventEntity], work=40*
  9: 0x00A6 [0x21] END_EVENT
 10: 0x00A7 [0x00] END_REQSTACK()
```

### Event 53

#### Metadata

| Field        | Value    |
|--------------|----------|
| Entrypoint   | 0x00A8   |
| Data Size    | 78 bytes |
| Instructions | 18       |

```
      00 01 02 03 04 05 06 07  08 09 0A 0B 0C 0D 0E 0F
      -- -- -- -- -- -- -- --  -- -- -- -- -- -- -- --
00A0:                          42 1E F0 FF FF 7F 6F 70          B.....op
00B0: 66 00 80 F8 FF FF 7F F8  FF FF 7F 74 6C 6B 30 1D  f..........tlk0.
00C0: 0B 80 23 1D 0C 80 23 1D  0D 80 23 1D 0E 80 23 66  ..#...#...#...#f
00D0: 00 80 F8 FF FF 7F F8 FF  FF 7F 74 6C 6B 31 45 0F  ..........tlk1E.
00E0: 80 F8 FF FF 7F F8 FF FF  7F 71 73 74 63 10 80 03  .........qstc...
00F0: 01 10 0A 80 21 00                                 ....!.          
```

#### Opcodes

```
  0: 0x00A8 [0x42] SET_CLI_EVENT_CANCEL_DATA()
  1: 0x00A9 [0x1E] EventEntity looks at LocalPlayer and starts talking
  2: 0x00AE [0x6F] WAIT_FRAME_DELAY: Yield until WaitTime reaches zero
  3: 0x00AF [0x70] WAIT_ENTITY_RENDER_FLAG: Wait while EventEntity->Render.Flags3 bit 2 is set (cancel turn if not)
  4: 0x00B0 [0x66] LOAD_EXT_SCHEDULER_MAIN: Load scheduler "tlk0" with entities [EventEntity, EventEntity], work=40*
  5: 0x00BF [0x1D] PRINT_EVENT_MESSAGE(message_id=8332*)
    → "You gathered some dirtaru for me? Muy bien!"
  6: 0x00C2 [0x23] WAIT_FOR_DIALOG_INTERACTION
  7: 0x00C3 [0x1D] PRINT_EVENT_MESSAGE(message_id=8333*)
    → "Madre mia--look at all this pollen-wollen!"
  8: 0x00C6 [0x23] WAIT_FOR_DIALOG_INTERACTION
  9: 0x00C7 [0x1D] PRINT_EVENT_MESSAGE(message_id=8334*)
    → "Si, this will make excellentaru research material."
 10: 0x00CA [0x23] WAIT_FOR_DIALOG_INTERACTION
 11: 0x00CB [0x1D] PRINT_EVENT_MESSAGE(message_id=8335*)
    → "You've done a wonderful job, mi [amigo/amiga]. Here's a presentaru for you."
 12: 0x00CE [0x23] WAIT_FOR_DIALOG_INTERACTION
 13: 0x00CF [0x66] LOAD_EXT_SCHEDULER_MAIN: Load scheduler "tlk1" with entities [EventEntity, EventEntity], work=40*
 14: 0x00DE [0x45] LOAD_SCHEDULED_TASK: Load scheduler "qstc" with entities [EventEntity, EventEntity], work=[201*, 0*]
 15: 0x00EF [0x03] Work_Zone[1] = 1*
 16: 0x00F4 [0x21] END_EVENT
 17: 0x00F5 [0x00] END_REQSTACK()
```

### Event 54

#### Metadata

| Field        | Value    |
|--------------|----------|
| Entrypoint   | 0x00F6   |
| Data Size    | 75 bytes |
| Instructions | 21       |

```
      00 01 02 03 04 05 06 07  08 09 0A 0B 0C 0D 0E 0F
      -- -- -- -- -- -- -- --  -- -- -- -- -- -- -- --
00F0:                   42 1E  F0 FF FF 7F 6F 70 66 00        B.....opf.
0100: 80 F8 FF FF 7F F8 FF FF  7F 74 6C 6B 30 1D 11 80  .........tlk0...
0110: 23 03 02 10 12 80 1D 13  80 23 1D 14 80 23 03 02  #........#...#..
0120: 10 15 80 1D 16 80 23 1D  17 80 23 66 00 80 F8 FF  ......#...#f....
0130: FF 7F F8 FF FF 7F 74 6C  6B 31 03 01 10 0A 80 21  ......tlk1.....!
0140: 00                                                .               
```

#### Opcodes

```
  0: 0x00F6 [0x42] SET_CLI_EVENT_CANCEL_DATA()
  1: 0x00F7 [0x1E] EventEntity looks at LocalPlayer and starts talking
  2: 0x00FC [0x6F] WAIT_FRAME_DELAY: Yield until WaitTime reaches zero
  3: 0x00FD [0x70] WAIT_ENTITY_RENDER_FLAG: Wait while EventEntity->Render.Flags3 bit 2 is set (cancel turn if not)
  4: 0x00FE [0x66] LOAD_EXT_SCHEDULER_MAIN: Load scheduler "tlk0" with entities [EventEntity, EventEntity], work=40*
  5: 0x010D [0x1D] PRINT_EVENT_MESSAGE(message_id=8336*)
    → "Hey, my favorite colonizador[/a]! I've been waitaruing for you."
  6: 0x0110 [0x23] WAIT_FOR_DIALOG_INTERACTION
  7: 0x0111 [0x03] Work_Zone[2] = 2383*
  8: 0x0116 [0x1D] PRINT_EVENT_MESSAGE(message_id=8337*)
    → "I investigatarued the earth you brought me, and made a startling discovery. These flores--they don't just paralyze people, but they are partly connected with the pollution-wution in Ulbuka we've all come to hate."
  9: 0x0119 [0x23] WAIT_FOR_DIALOG_INTERACTION
 10: 0x011A [0x1D] PRINT_EVENT_MESSAGE(message_id=8338*)
    → "La tierra, she grows numbing blossoms because of the poison. Or maybe it's the blossom-wossoms themselves that poison the land. We aren't sure yet."
 11: 0x011D [0x23] WAIT_FOR_DIALOG_INTERACTION
 12: 0x011E [0x03] Work_Zone[2] = 3*
 13: 0x0123 [0x1D] PRINT_EVENT_MESSAGE(message_id=8339*)
    → "If you have a spare momentaru, collect $0 of the blossoms for me, por favor."
 14: 0x0126 [0x23] WAIT_FOR_DIALOG_INTERACTION
 15: 0x0127 [0x1D] PRINT_EVENT_MESSAGE(message_id=8340*)
    → "Ay caramba, don't look at me like that. You know how hard it is for me not to get lostaru! So please--do me this deed."
 16: 0x012A [0x23] WAIT_FOR_DIALOG_INTERACTION
 17: 0x012B [0x66] LOAD_EXT_SCHEDULER_MAIN: Load scheduler "tlk1" with entities [EventEntity, EventEntity], work=40*
 18: 0x013A [0x03] Work_Zone[1] = 1*
 19: 0x013F [0x21] END_EVENT
 20: 0x0140 [0x00] END_REQSTACK()
```

### Event 55

#### Metadata

| Field        | Value    |
|--------------|----------|
| Entrypoint   | 0x0141   |
| Data Size    | 66 bytes |
| Instructions | 18       |

```
      00 01 02 03 04 05 06 07  08 09 0A 0B 0C 0D 0E 0F
      -- -- -- -- -- -- -- --  -- -- -- -- -- -- -- --
0140:    42 1E F0 FF FF 7F 6F  70 66 00 80 F8 FF FF 7F   B.....opf......
0150: F8 FF FF 7F 74 6C 6B 30  1D 11 80 23 1D 18 80 23  ....tlk0...#...#
0160: 1D 19 80 23 03 02 10 15  80 1D 1A 80 23 66 00 80  ...#........#f..
0170: F8 FF FF 7F F8 FF FF 7F  74 6C 6B 31 03 01 10 0A  ........tlk1....
0180: 80 21 00                                          .!.             
```

#### Opcodes

```
  0: 0x0141 [0x42] SET_CLI_EVENT_CANCEL_DATA()
  1: 0x0142 [0x1E] EventEntity looks at LocalPlayer and starts talking
  2: 0x0147 [0x6F] WAIT_FRAME_DELAY: Yield until WaitTime reaches zero
  3: 0x0148 [0x70] WAIT_ENTITY_RENDER_FLAG: Wait while EventEntity->Render.Flags3 bit 2 is set (cancel turn if not)
  4: 0x0149 [0x66] LOAD_EXT_SCHEDULER_MAIN: Load scheduler "tlk0" with entities [EventEntity, EventEntity], work=40*
  5: 0x0158 [0x1D] PRINT_EVENT_MESSAGE(message_id=8336*)
    → "Hey, my favorite colonizador[/a]! I've been waitaruing for you."
  6: 0x015B [0x23] WAIT_FOR_DIALOG_INTERACTION
  7: 0x015C [0x1D] PRINT_EVENT_MESSAGE(message_id=8343*)
    → "I've been estudiando the bounty you brought me and I've reached a startling-wartling conclusion, [hijo/hija]. The corruption in the land is deeper than we previously thought."
  8: 0x015F [0x23] WAIT_FOR_DIALOG_INTERACTION
  9: 0x0160 [0x1D] PRINT_EVENT_MESSAGE(message_id=8344*)
    → "Bendito! The blightaru is such that it feels some terrible demons must buried deep beneath the surface. But a scientistaru always goes with evidence, not speculation. More work is needed."
 10: 0x0163 [0x23] WAIT_FOR_DIALOG_INTERACTION
 11: 0x0164 [0x03] Work_Zone[2] = 3*
 12: 0x0169 [0x1D] PRINT_EVENT_MESSAGE(message_id=8345*)
    → "You understand what that means, no? Findy-wind me $0 more numbing blossom[/s] and I'll give you another reward."
 13: 0x016C [0x23] WAIT_FOR_DIALOG_INTERACTION
 14: 0x016D [0x66] LOAD_EXT_SCHEDULER_MAIN: Load scheduler "tlk1" with entities [EventEntity, EventEntity], work=40*
 15: 0x017C [0x03] Work_Zone[1] = 1*
 16: 0x0181 [0x21] END_EVENT
 17: 0x0182 [0x00] END_REQSTACK()
```

### Event 56

#### Metadata

| Field        | Value    |
|--------------|----------|
| Entrypoint   | 0x0183   |
| Data Size    | 58 bytes |
| Instructions | 14       |

```
      00 01 02 03 04 05 06 07  08 09 0A 0B 0C 0D 0E 0F
      -- -- -- -- -- -- -- --  -- -- -- -- -- -- -- --
0180:          42 1E F0 FF FF  7F 6F 70 66 00 80 F8 FF     B.....opf....
0190: FF 7F F8 FF FF 7F 74 6C  6B 30 1D 11 80 23 03 02  ......tlk0...#..
01A0: 10 15 80 1D 1B 80 23 66  00 80 F8 FF FF 7F F8 FF  ......#f........
01B0: FF 7F 74 6C 6B 31 03 01  10 0A 80 21 00           ..tlk1.....!.   
```

#### Opcodes

```
  0: 0x0183 [0x42] SET_CLI_EVENT_CANCEL_DATA()
  1: 0x0184 [0x1E] EventEntity looks at LocalPlayer and starts talking
  2: 0x0189 [0x6F] WAIT_FRAME_DELAY: Yield until WaitTime reaches zero
  3: 0x018A [0x70] WAIT_ENTITY_RENDER_FLAG: Wait while EventEntity->Render.Flags3 bit 2 is set (cancel turn if not)
  4: 0x018B [0x66] LOAD_EXT_SCHEDULER_MAIN: Load scheduler "tlk0" with entities [EventEntity, EventEntity], work=40*
  5: 0x019A [0x1D] PRINT_EVENT_MESSAGE(message_id=8336*)
    → "Hey, my favorite colonizador[/a]! I've been waitaruing for you."
  6: 0x019D [0x23] WAIT_FOR_DIALOG_INTERACTION
  7: 0x019E [0x03] Work_Zone[2] = 3*
  8: 0x01A3 [0x1D] PRINT_EVENT_MESSAGE(message_id=8346*)
    → "Tear 'em up from the ground and deliver them to me whole, de acuerdo?"
  9: 0x01A6 [0x23] WAIT_FOR_DIALOG_INTERACTION
 10: 0x01A7 [0x66] LOAD_EXT_SCHEDULER_MAIN: Load scheduler "tlk1" with entities [EventEntity, EventEntity], work=40*
 11: 0x01B6 [0x03] Work_Zone[1] = 1*
 12: 0x01BB [0x21] END_EVENT
 13: 0x01BC [0x00] END_REQSTACK()
```

### Event 57

#### Metadata

| Field        | Value    |
|--------------|----------|
| Entrypoint   | 0x01BD   |
| Data Size    | 48 bytes |
| Instructions | 10       |

```
      00 01 02 03 04 05 06 07  08 09 0A 0B 0C 0D 0E 0F
      -- -- -- -- -- -- -- --  -- -- -- -- -- -- -- --
01B0:                                         1E F0 FF               ...
01C0: FF 7F 6F 70 66 00 80 F8  FF FF 7F F8 FF FF 7F 74  ..opf..........t
01D0: 6C 6B 30 03 02 10 15 80  1D 1C 80 23 66 00 80 F8  lk0........#f...
01E0: FF FF 7F F8 FF FF 7F 74  6C 6B 31 21 00           .......tlk1!.   
```

#### Opcodes

```
  0: 0x01BD [0x1E] EventEntity looks at LocalPlayer and starts talking
  1: 0x01C2 [0x6F] WAIT_FRAME_DELAY: Yield until WaitTime reaches zero
  2: 0x01C3 [0x70] WAIT_ENTITY_RENDER_FLAG: Wait while EventEntity->Render.Flags3 bit 2 is set (cancel turn if not)
  3: 0x01C4 [0x66] LOAD_EXT_SCHEDULER_MAIN: Load scheduler "tlk0" with entities [EventEntity, EventEntity], work=40*
  4: 0x01D3 [0x03] Work_Zone[2] = 3*
  5: 0x01D8 [0x1D] PRINT_EVENT_MESSAGE(message_id=8341*)
    → "Pull up $0 numbing blossoms and bringy-wing them back to me, comprende?"
  6: 0x01DB [0x23] WAIT_FOR_DIALOG_INTERACTION
  7: 0x01DC [0x66] LOAD_EXT_SCHEDULER_MAIN: Load scheduler "tlk1" with entities [EventEntity, EventEntity], work=40*
  8: 0x01EB [0x21] END_EVENT
  9: 0x01EC [0x00] END_REQSTACK()
```

### Event 58

#### Metadata

| Field        | Value    |
|--------------|----------|
| Entrypoint   | 0x01ED   |
| Data Size    | 70 bytes |
| Instructions | 14       |

```
      00 01 02 03 04 05 06 07  08 09 0A 0B 0C 0D 0E 0F
      -- -- -- -- -- -- -- --  -- -- -- -- -- -- -- --
01E0:                                         42 1E F0               B..
01F0: FF FF 7F 6F 70 66 00 80  F8 FF FF 7F F8 FF FF 7F  ...opf..........
0200: 74 6C 6B 30 1D 1D 80 23  1D 0E 80 23 66 00 80 F8  tlk0...#...#f...
0210: FF FF 7F F8 FF FF 7F 74  6C 6B 31 45 0F 80 F8 FF  .......tlk1E....
0220: FF 7F F8 FF FF 7F 71 73  74 63 10 80 03 01 10 0A  ......qstc......
0230: 80 21 00                                          .!.             
```

#### Opcodes

```
  0: 0x01ED [0x42] SET_CLI_EVENT_CANCEL_DATA()
  1: 0x01EE [0x1E] EventEntity looks at LocalPlayer and starts talking
  2: 0x01F3 [0x6F] WAIT_FRAME_DELAY: Yield until WaitTime reaches zero
  3: 0x01F4 [0x70] WAIT_ENTITY_RENDER_FLAG: Wait while EventEntity->Render.Flags3 bit 2 is set (cancel turn if not)
  4: 0x01F5 [0x66] LOAD_EXT_SCHEDULER_MAIN: Load scheduler "tlk0" with entities [EventEntity, EventEntity], work=40*
  5: 0x0204 [0x1D] PRINT_EVENT_MESSAGE(message_id=8342*)
    → "You're back so soon--estupendo! These will make excellentaru specimens."
  6: 0x0207 [0x23] WAIT_FOR_DIALOG_INTERACTION
  7: 0x0208 [0x1D] PRINT_EVENT_MESSAGE(message_id=8335*)
    → "You've done a wonderful job, mi [amigo/amiga]. Here's a presentaru for you."
  8: 0x020B [0x23] WAIT_FOR_DIALOG_INTERACTION
  9: 0x020C [0x66] LOAD_EXT_SCHEDULER_MAIN: Load scheduler "tlk1" with entities [EventEntity, EventEntity], work=40*
 10: 0x021B [0x45] LOAD_SCHEDULED_TASK: Load scheduler "qstc" with entities [EventEntity, EventEntity], work=[201*, 0*]
 11: 0x022C [0x03] Work_Zone[1] = 1*
 12: 0x0231 [0x21] END_EVENT
 13: 0x0232 [0x00] END_REQSTACK()
```

### Event 59

#### Metadata

| Field        | Value   |
|--------------|---------|
| Entrypoint   | 0x0233  |
| Data Size    | 1 bytes |
| Instructions | 1       |

```
      00 01 02 03 04 05 06 07  08 09 0A 0B 0C 0D 0E 0F
      -- -- -- -- -- -- -- --  -- -- -- -- -- -- -- --
0230:          00                                          .            
```

#### Opcodes

```
  0: 0x0233 [0x00] END_REQSTACK()
```
