# 17855060

## Common Data

| Field            | Value                  |
|------------------|------------------------|
| Zone             | Yorcia Weald (ID: 263) |
| Block Size       | 2324 bytes             |
| Total Events     | 107                    |
| References Count | 57                     |

## List of Events

| Event ID                   | Entrypoint   |   Size |   Instructions |
|----------------------------|--------------|--------|----------------|
| [65535](#event-65535)      | 0x0000       |      1 |              1 |
| [65535.1](#event-655351)   | 0x0001       |      1 |              1 |
| [65535.2](#event-655352)   | 0x0002       |     18 |              4 |
| [65535.3](#event-655353)   | 0x0014       |     10 |              2 |
| [65535.4](#event-655354)   | 0x001E       |      9 |              3 |
| [65535.5](#event-655355)   | 0x0027       |      9 |              3 |
| [65535.6](#event-655356)   | 0x0030       |     10 |              2 |
| [65535.7](#event-655357)   | 0x003A       |     10 |              2 |
| [1](#event-1)              | 0x0044       |      1 |              1 |
| [2](#event-2)              | 0x0045       |      1 |              1 |
| [65535.8](#event-655358)   | 0x0046       |      5 |              2 |
| [65535.9](#event-655359)   | 0x004B       |      5 |              2 |
| [65535.10](#event-6553510) | 0x0050       |      5 |              2 |
| [65535.11](#event-6553511) | 0x0055       |      5 |              2 |
| [65535.12](#event-6553512) | 0x005A       |      5 |              2 |
| [65535.13](#event-6553513) | 0x005F       |      5 |              2 |
| [65535.14](#event-6553514) | 0x0064       |      3 |              2 |
| [65535.15](#event-6553515) | 0x0067       |      3 |              2 |
| [3](#event-3)              | 0x006A       |      8 |              3 |
| [65535.16](#event-6553516) | 0x0072       |     27 |              7 |
| [65535.17](#event-6553517) | 0x008D       |      6 |              3 |
| [4](#event-4)              | 0x0093       |      8 |              3 |
| [65535.18](#event-6553518) | 0x009B       |     16 |              2 |
| [65535.19](#event-6553519) | 0x00AB       |     14 |              2 |
| [65535.20](#event-6553520) | 0x00B9       |     16 |              2 |
| [65535.21](#event-6553521) | 0x00C9       |     14 |              2 |
| [65535.22](#event-6553522) | 0x00D7       |     16 |              2 |
| [65535.23](#event-6553523) | 0x00E7       |     14 |              2 |
| [65535.24](#event-6553524) | 0x00F5       |     16 |              2 |
| [65535.25](#event-6553525) | 0x0105       |     14 |              2 |
| [65535.26](#event-6553526) | 0x0113       |     16 |              2 |
| [65535.27](#event-6553527) | 0x0123       |     14 |              2 |
| [65535.28](#event-6553528) | 0x0131       |     16 |              2 |
| [65535.29](#event-6553529) | 0x0141       |     14 |              2 |
| [65535.30](#event-6553530) | 0x014F       |     19 |              2 |
| [65535.31](#event-6553531) | 0x0162       |     15 |              2 |
| [65535.32](#event-6553532) | 0x0171       |     19 |              2 |
| [65535.33](#event-6553533) | 0x0184       |     15 |              2 |
| [65535.34](#event-6553534) | 0x0193       |     19 |              2 |
| [65535.35](#event-6553535) | 0x01A6       |     15 |              2 |
| [65535.36](#event-6553536) | 0x01B5       |     19 |              2 |
| [65535.37](#event-6553537) | 0x01C8       |     15 |              2 |
| [65535.38](#event-6553538) | 0x01D7       |     19 |              2 |
| [65535.39](#event-6553539) | 0x01EA       |     15 |              2 |
| [65535.40](#event-6553540) | 0x01F9       |     19 |              2 |
| [65535.41](#event-6553541) | 0x020C       |     15 |              2 |
| [65535.42](#event-6553542) | 0x021B       |     19 |              2 |
| [65535.43](#event-6553543) | 0x022E       |     15 |              2 |
| [65535.44](#event-6553544) | 0x023D       |     19 |              2 |
| [65535.45](#event-6553545) | 0x0250       |     15 |              2 |
| [65535.46](#event-6553546) | 0x025F       |     19 |              2 |
| [65535.47](#event-6553547) | 0x0272       |     15 |              2 |
| [65535.48](#event-6553548) | 0x0281       |     19 |              2 |
| [65535.49](#event-6553549) | 0x0294       |     15 |              2 |
| [65535.50](#event-6553550) | 0x02A3       |     19 |              2 |
| [65535.51](#event-6553551) | 0x02B6       |     15 |              2 |
| [65535.52](#event-6553552) | 0x02C5       |     19 |              2 |
| [65535.53](#event-6553553) | 0x02D8       |     15 |              2 |
| [65535.54](#event-6553554) | 0x02E7       |     19 |              2 |
| [65535.55](#event-6553555) | 0x02FA       |     15 |              2 |
| [65535.56](#event-6553556) | 0x0309       |     19 |              2 |
| [65535.57](#event-6553557) | 0x031C       |     15 |              2 |
| [65535.58](#event-6553558) | 0x032B       |     19 |              2 |
| [65535.59](#event-6553559) | 0x033E       |     15 |              2 |
| [65535.60](#event-6553560) | 0x034D       |     19 |              2 |
| [65535.61](#event-6553561) | 0x0360       |     15 |              2 |
| [65535.62](#event-6553562) | 0x036F       |     19 |              2 |
| [65535.63](#event-6553563) | 0x0382       |     15 |              2 |
| [65535.64](#event-6553564) | 0x0391       |     19 |              2 |
| [65535.65](#event-6553565) | 0x03A4       |     15 |              2 |
| [65535.66](#event-6553566) | 0x03B3       |     31 |              4 |
| [65535.67](#event-6553567) | 0x03D2       |     15 |              2 |
| [65535.68](#event-6553568) | 0x03E1       |     19 |              2 |
| [65535.69](#event-6553569) | 0x03F4       |     27 |              4 |
| [65535.70](#event-6553570) | 0x040F       |     19 |              2 |
| [65535.71](#event-6553571) | 0x0422       |     15 |              2 |
| [65535.72](#event-6553572) | 0x0431       |     19 |              2 |
| [65535.73](#event-6553573) | 0x0444       |     15 |              2 |
| [65535.74](#event-6553574) | 0x0453       |     19 |              2 |
| [65535.75](#event-6553575) | 0x0466       |     15 |              2 |
| [65535.76](#event-6553576) | 0x0475       |     16 |              2 |
| [65535.77](#event-6553577) | 0x0485       |     14 |              2 |
| [65535.78](#event-6553578) | 0x0493       |     19 |              2 |
| [65535.79](#event-6553579) | 0x04A6       |     15 |              2 |
| [65535.80](#event-6553580) | 0x04B5       |     19 |              2 |
| [65535.81](#event-6553581) | 0x04C8       |     15 |              2 |
| [6](#event-6)              | 0x04D7       |      1 |              1 |
| [65535.82](#event-6553582) | 0x04D8       |     14 |              4 |
| [65535.83](#event-6553583) | 0x04E6       |     16 |              5 |
| [65535.84](#event-6553584) | 0x04F6       |    105 |             13 |
| [65535.85](#event-6553585) | 0x055F       |     32 |              5 |
| [65535.86](#event-6553586) | 0x057F       |     30 |              5 |
| [7](#event-7)              | 0x059D       |      1 |              1 |
| [65535.87](#event-6553587) | 0x059E       |     29 |              4 |
| [65535.88](#event-6553588) | 0x05BB       |      7 |              3 |
| [65535.89](#event-6553589) | 0x05C2       |      7 |              3 |
| [65535.90](#event-6553590) | 0x05C9       |     10 |              2 |
| [65535.91](#event-6553591) | 0x05D3       |     10 |              2 |
| [65535.92](#event-6553592) | 0x05DD       |     10 |              2 |
| [65535.93](#event-6553593) | 0x05E7       |     10 |              2 |
| [65535.94](#event-6553594) | 0x05F1       |     19 |              2 |
| [65535.95](#event-6553595) | 0x0604       |     15 |              2 |
| [8](#event-8)              | 0x0613       |      1 |              1 |
| [129](#event-129)          | 0x0614       |      1 |              1 |
| [65535.96](#event-6553596) | 0x0615       |     82 |             19 |
| [130](#event-130)          | 0x0667       |      5 |              2 |
| [131](#event-131)          | 0x066C       |      5 |              2 |

## DAT References (imed_data)

|   Index | Hex Value   |   Dec Value |
|---------|-------------|-------------|
|       0 | 0x0000      |           0 |
|       1 | 0x0001      |           1 |
|       2 | 0x0080      |         128 |
|       3 | 0x0AA4      |        2724 |
|       4 | 0x0AEF      |        2799 |
|       5 | 0x0057      |          87 |
|       6 | 0x005D      |          93 |
|       7 | 0x0060      |          96 |
|       8 | 0x0064      |         100 |
|       9 | 0x0AB5      |        2741 |
|      10 | 0x0002      |           2 |
|      11 | 0x000D      |          13 |
|      12 | 0x3761A     |      226842 |
|      13 | 0xFFFEE1D9  |  4294894041 |
|      14 | 0x0116      |         278 |
|      15 | 0x001E      |          30 |
|      16 | 0x0034      |          52 |
|      17 | 0x0D93      |        3475 |
|      18 | 0x0D9D      |        3485 |
|      19 | 0x0D94      |        3476 |
|      20 | 0x0082      |         130 |
|      21 | 0x0096      |         150 |
|      22 | 0x00AA      |         170 |
|      23 | 0x00D2      |         210 |
|      24 | 0x0D95      |        3477 |
|      25 | 0x00B4      |         180 |
|      26 | 0x0078      |         120 |
|      27 | 0x008C      |         140 |
|      28 | 0x0D96      |        3478 |
|      29 | 0x00C8      |         200 |
|      30 | 0x0D9C      |        3484 |
|      31 | 0x014A      |         330 |
|      32 | 0x0DF4      |        3572 |
|      33 | 0x00A0      |         160 |
|      34 | 0x0EE9      |        3817 |
|      35 | 0x010E      |         270 |
|      36 | 0x00BE      |         190 |
|      37 | 0x0DA1      |        3489 |
|      38 | 0x01AE      |         430 |
|      39 | 0x0DB6      |        3510 |
|      40 | 0x0186      |         390 |
|      41 | 0x1EDAA     |      126378 |
|      42 | 0xBC62      |       48226 |
|      43 | 0x0108      |         264 |
|      44 | 0x24F37     |      151351 |
|      45 | 0x9789      |       38793 |
|      46 | 0x0028      |          40 |
|      47 | 0x20975     |      133493 |
|      48 | 0x9FEC      |       40940 |
|      49 | 0x0220      |         544 |
|      50 | 0x0014      |          20 |
|      51 | 0x0A2D      |        2605 |
|      52 | 0x01F4      |         500 |
|      53 | 0x0F0A      |        3850 |
|      54 | 0x0004      |           4 |
|      55 | 0x0005      |           5 |
|      56 | 0x0AB1      |        2737 |

## Events

### Event 65535

#### Metadata

| Field        | Value   |
|--------------|---------|
| Entrypoint   | 0x0000  |
| Data Size    | 1 bytes |
| Instructions | 1       |

```
      00 01 02 03 04 05 06 07  08 09 0A 0B 0C 0D 0E 0F
      -- -- -- -- -- -- -- --  -- -- -- -- -- -- -- --
0000: 00                                                .               
```

#### Opcodes

```
  0: 0x0000 [0x00] END_REQSTACK()
```

### Event 65535.1

#### Metadata

| Field        | Value   |
|--------------|---------|
| Entrypoint   | 0x0001  |
| Data Size    | 1 bytes |
| Instructions | 1       |

```
      00 01 02 03 04 05 06 07  08 09 0A 0B 0C 0D 0E 0F
      -- -- -- -- -- -- -- --  -- -- -- -- -- -- -- --
0000:    00                                              .              
```

#### Opcodes

```
  0: 0x0001 [0x00] END_REQSTACK()
```

### Event 65535.2

#### Metadata

| Field        | Value    |
|--------------|----------|
| Entrypoint   | 0x0002   |
| Data Size    | 18 bytes |
| Instructions | 4        |

```
      00 01 02 03 04 05 06 07  08 09 0A 0B 0C 0D 0E 0F
      -- -- -- -- -- -- -- --  -- -- -- -- -- -- -- --
0000:       22 00 2F 00 F8 FF  FF 7F 6C F8 FF FF 7F 00    "./.....l.....
0010: 80 01 80 00                                       ....            
```

#### Opcodes

```
  0: 0x0002 [0x22] ENTITY_HIDE_FLAG(enabled=0x00)
  1: 0x0004 [0x2F] EventEntity->Render.Flags0 &= ~0x80000 // Bit 19
  2: 0x000A [0x6C] FADE_ENTITY_COLOR(entity_id=EventEntity, end_alpha=0*, fade_time=1*)
  3: 0x0013 [0x00] END_REQSTACK()
```

### Event 65535.3

#### Metadata

| Field        | Value    |
|--------------|----------|
| Entrypoint   | 0x0014   |
| Data Size    | 10 bytes |
| Instructions | 2        |

```
      00 01 02 03 04 05 06 07  08 09 0A 0B 0C 0D 0E 0F
      -- -- -- -- -- -- -- --  -- -- -- -- -- -- -- --
0010:             6C F8 FF FF  7F 02 80 01 80 00            l.........  
```

#### Opcodes

```
  0: 0x0014 [0x6C] FADE_ENTITY_COLOR(entity_id=EventEntity, end_alpha=128*, fade_time=1*)
  1: 0x001D [0x00] END_REQSTACK()
```

### Event 65535.4

#### Metadata

| Field        | Value   |
|--------------|---------|
| Entrypoint   | 0x001E  |
| Data Size    | 9 bytes |
| Instructions | 3       |

```
      00 01 02 03 04 05 06 07  08 09 0A 0B 0C 0D 0E 0F
      -- -- -- -- -- -- -- --  -- -- -- -- -- -- -- --
0010:                                            22 00                ".
0020: 2F 00 F8 FF FF 7F 00                              /......         
```

#### Opcodes

```
  0: 0x001E [0x22] ENTITY_HIDE_FLAG(enabled=0x00)
  1: 0x0020 [0x2F] EventEntity->Render.Flags0 &= ~0x80000 // Bit 19
  2: 0x0026 [0x00] END_REQSTACK()
```

### Event 65535.5

#### Metadata

| Field        | Value   |
|--------------|---------|
| Entrypoint   | 0x0027  |
| Data Size    | 9 bytes |
| Instructions | 3       |

```
      00 01 02 03 04 05 06 07  08 09 0A 0B 0C 0D 0E 0F
      -- -- -- -- -- -- -- --  -- -- -- -- -- -- -- --
0020:                      22  01 2F 01 F8 FF FF 7F 00         "./......
```

#### Opcodes

```
  0: 0x0027 [0x22] ENTITY_HIDE_FLAG(enabled=0x01)
  1: 0x0029 [0x2F] EventEntity->Render.Flags0 |= 0x80000 // Bit 19
  2: 0x002F [0x00] END_REQSTACK()
```

### Event 65535.6

#### Metadata

| Field        | Value    |
|--------------|----------|
| Entrypoint   | 0x0030   |
| Data Size    | 10 bytes |
| Instructions | 2        |

```
      00 01 02 03 04 05 06 07  08 09 0A 0B 0C 0D 0E 0F
      -- -- -- -- -- -- -- --  -- -- -- -- -- -- -- --
0030: 6C F8 FF FF 7F 00 80 01  80 00                    l.........      
```

#### Opcodes

```
  0: 0x0030 [0x6C] FADE_ENTITY_COLOR(entity_id=EventEntity, end_alpha=0*, fade_time=1*)
  1: 0x0039 [0x00] END_REQSTACK()
```

### Event 65535.7

#### Metadata

| Field        | Value    |
|--------------|----------|
| Entrypoint   | 0x003A   |
| Data Size    | 10 bytes |
| Instructions | 2        |

```
      00 01 02 03 04 05 06 07  08 09 0A 0B 0C 0D 0E 0F
      -- -- -- -- -- -- -- --  -- -- -- -- -- -- -- --
0030:                                6C F8 FF FF 7F 02            l.....
0040: 80 01 80 00                                       ....            
```

#### Opcodes

```
  0: 0x003A [0x6C] FADE_ENTITY_COLOR(entity_id=EventEntity, end_alpha=128*, fade_time=1*)
  1: 0x0043 [0x00] END_REQSTACK()
```

### Event 1

#### Metadata

| Field        | Value   |
|--------------|---------|
| Entrypoint   | 0x0044  |
| Data Size    | 1 bytes |
| Instructions | 1       |

```
      00 01 02 03 04 05 06 07  08 09 0A 0B 0C 0D 0E 0F
      -- -- -- -- -- -- -- --  -- -- -- -- -- -- -- --
0040:             00                                        .           
```

#### Opcodes

```
  0: 0x0044 [0x00] END_REQSTACK()
```

### Event 2

#### Metadata

| Field        | Value   |
|--------------|---------|
| Entrypoint   | 0x0045  |
| Data Size    | 1 bytes |
| Instructions | 1       |

```
      00 01 02 03 04 05 06 07  08 09 0A 0B 0C 0D 0E 0F
      -- -- -- -- -- -- -- --  -- -- -- -- -- -- -- --
0040:                00                                      .          
```

#### Opcodes

```
  0: 0x0045 [0x00] END_REQSTACK()
```

### Event 65535.8

#### Metadata

| Field        | Value   |
|--------------|---------|
| Entrypoint   | 0x0046  |
| Data Size    | 5 bytes |
| Instructions | 2       |

```
      00 01 02 03 04 05 06 07  08 09 0A 0B 0C 0D 0E 0F
      -- -- -- -- -- -- -- --  -- -- -- -- -- -- -- --
0040:                   B6 00  03 80 00                       .....     
```

#### Opcodes

```
  0: 0x0046 [0xB6] ENTITY_APPEARANCE_HANDLER(case=Hair style, value=2724*)
  1: 0x004A [0x00] END_REQSTACK()
```

### Event 65535.9

#### Metadata

| Field        | Value   |
|--------------|---------|
| Entrypoint   | 0x004B  |
| Data Size    | 5 bytes |
| Instructions | 2       |

```
      00 01 02 03 04 05 06 07  08 09 0A 0B 0C 0D 0E 0F
      -- -- -- -- -- -- -- --  -- -- -- -- -- -- -- --
0040:                                   B6 00 04 80 00             .....
```

#### Opcodes

```
  0: 0x004B [0xB6] ENTITY_APPEARANCE_HANDLER(case=Hair style, value=2799*)
  1: 0x004F [0x00] END_REQSTACK()
```

### Event 65535.10

#### Metadata

| Field        | Value   |
|--------------|---------|
| Entrypoint   | 0x0050  |
| Data Size    | 5 bytes |
| Instructions | 2       |

```
      00 01 02 03 04 05 06 07  08 09 0A 0B 0C 0D 0E 0F
      -- -- -- -- -- -- -- --  -- -- -- -- -- -- -- --
0050: B6 0F 05 80 00                                    .....           
```

#### Opcodes

```
  0: 0x0050 [0xB6] ENTITY_APPEARANCE_HANDLER(case=Model size, value=87*)
  1: 0x0054 [0x00] END_REQSTACK()
```

### Event 65535.11

#### Metadata

| Field        | Value   |
|--------------|---------|
| Entrypoint   | 0x0055  |
| Data Size    | 5 bytes |
| Instructions | 2       |

```
      00 01 02 03 04 05 06 07  08 09 0A 0B 0C 0D 0E 0F
      -- -- -- -- -- -- -- --  -- -- -- -- -- -- -- --
0050:                B6 0F 06  80 00                         .....      
```

#### Opcodes

```
  0: 0x0055 [0xB6] ENTITY_APPEARANCE_HANDLER(case=Model size, value=93*)
  1: 0x0059 [0x00] END_REQSTACK()
```

### Event 65535.12

#### Metadata

| Field        | Value   |
|--------------|---------|
| Entrypoint   | 0x005A  |
| Data Size    | 5 bytes |
| Instructions | 2       |

```
      00 01 02 03 04 05 06 07  08 09 0A 0B 0C 0D 0E 0F
      -- -- -- -- -- -- -- --  -- -- -- -- -- -- -- --
0050:                                B6 0F 07 80 00               ..... 
```

#### Opcodes

```
  0: 0x005A [0xB6] ENTITY_APPEARANCE_HANDLER(case=Model size, value=96*)
  1: 0x005E [0x00] END_REQSTACK()
```

### Event 65535.13

#### Metadata

| Field        | Value   |
|--------------|---------|
| Entrypoint   | 0x005F  |
| Data Size    | 5 bytes |
| Instructions | 2       |

```
      00 01 02 03 04 05 06 07  08 09 0A 0B 0C 0D 0E 0F
      -- -- -- -- -- -- -- --  -- -- -- -- -- -- -- --
0050:                                               B6                 .
0060: 0F 08 80 00                                       ....            
```

#### Opcodes

```
  0: 0x005F [0xB6] ENTITY_APPEARANCE_HANDLER(case=Model size, value=100*)
  1: 0x0063 [0x00] END_REQSTACK()
```

### Event 65535.14

#### Metadata

| Field        | Value   |
|--------------|---------|
| Entrypoint   | 0x0064  |
| Data Size    | 3 bytes |
| Instructions | 2       |

```
      00 01 02 03 04 05 06 07  08 09 0A 0B 0C 0D 0E 0F
      -- -- -- -- -- -- -- --  -- -- -- -- -- -- -- --
0060:             A5 01 00                                  ...         
```

#### Opcodes

```
  0: 0x0064 [0xA5] EventEntity->Flags3.BallistaTeam |= 0x08  // Set bit 3 of BallistaTeam
  1: 0x0066 [0x00] END_REQSTACK()
```

### Event 65535.15

#### Metadata

| Field        | Value   |
|--------------|---------|
| Entrypoint   | 0x0067  |
| Data Size    | 3 bytes |
| Instructions | 2       |

```
      00 01 02 03 04 05 06 07  08 09 0A 0B 0C 0D 0E 0F
      -- -- -- -- -- -- -- --  -- -- -- -- -- -- -- --
0060:                      A5  00 00                           ...      
```

#### Opcodes

```
  0: 0x0067 [0xA5] EventEntity->Flags3.BallistaTeam &= ~0x08  // Clear bit 3 of BallistaTeam
  1: 0x0069 [0x00] END_REQSTACK()
```

### Event 3

#### Metadata

| Field        | Value   |
|--------------|---------|
| Entrypoint   | 0x006A  |
| Data Size    | 8 bytes |
| Instructions | 3       |

```
      00 01 02 03 04 05 06 07  08 09 0A 0B 0C 0D 0E 0F
      -- -- -- -- -- -- -- --  -- -- -- -- -- -- -- --
0060:                                B6 00 09 80 95 0A            ......
0070: 80 00                                             ..              
```

#### Opcodes

```
  0: 0x006A [0xB6] ENTITY_APPEARANCE_HANDLER(case=Hair style, value=2741*)
  1: 0x006E [0x95] SETUP_EVENT_NPC: Prepare NPC for event (Render.Flags3 = 2*)
  2: 0x0071 [0x00] END_REQSTACK()
```

### Event 65535.16

#### Metadata

| Field        | Value    |
|--------------|----------|
| Entrypoint   | 0x0072   |
| Data Size    | 27 bytes |
| Instructions | 7        |

```
      00 01 02 03 04 05 06 07  08 09 0A 0B 0C 0D 0E 0F
      -- -- -- -- -- -- -- --  -- -- -- -- -- -- -- --
0070:       32 0B 80 1F 00 0C  80 0D 80 0E 80 1F 01 1E    2.............
0080: 53 72 10 01 7B 54 72 10  01 1C 0F 80 00           Sr..{Tr......   
```

#### Opcodes

```
  0: 0x0072 [0x32] ExtData[1]->MainSpeed = 13* * 0.1
  1: 0x0075 [0x1F] MOVE_ENTITY: EventEntity moves to X=226.842*, Z=-73.255*, Y=0.278*
  2: 0x007D [0x1F] MOVE_ENTITY: Update entity position (mode=1)
  3: 0x007F [0x1E] EventEntity looks at Unnamed NPC (ID: 17855059/0x01107253) and starts talking
  4: 0x0084 [0x7B] Unnamed NPC (ID: 17855060/0x01107254) stops talking
  5: 0x0089 [0x1C] WAIT(30* ticks)
  6: 0x008C [0x00] END_REQSTACK()
```

### Event 65535.17

#### Metadata

| Field        | Value   |
|--------------|---------|
| Entrypoint   | 0x008D  |
| Data Size    | 6 bytes |
| Instructions | 3       |

```
      00 01 02 03 04 05 06 07  08 09 0A 0B 0C 0D 0E 0F
      -- -- -- -- -- -- -- --  -- -- -- -- -- -- -- --
0080:                                         B6 00 10               ...
0090: 80 96 00                                          ...             
```

#### Opcodes

```
  0: 0x008D [0xB6] ENTITY_APPEARANCE_HANDLER(case=Hair style, value=52*)
  1: 0x0091 [0x96] UNSET_EVENT_NPC: Restore NPC after event (removes event NPC status)
  2: 0x0092 [0x00] END_REQSTACK()
```

### Event 4

#### Metadata

| Field        | Value   |
|--------------|---------|
| Entrypoint   | 0x0093  |
| Data Size    | 8 bytes |
| Instructions | 3       |

```
      00 01 02 03 04 05 06 07  08 09 0A 0B 0C 0D 0E 0F
      -- -- -- -- -- -- -- --  -- -- -- -- -- -- -- --
0090:          B6 00 09 80 95  0A 80 00                    ........     
```

#### Opcodes

```
  0: 0x0093 [0xB6] ENTITY_APPEARANCE_HANDLER(case=Hair style, value=2741*)
  1: 0x0097 [0x95] SETUP_EVENT_NPC: Prepare NPC for event (Render.Flags3 = 2*)
  2: 0x009A [0x00] END_REQSTACK()
```

### Event 65535.18

#### Metadata

| Field        | Value    |
|--------------|----------|
| Entrypoint   | 0x009B   |
| Data Size    | 16 bytes |
| Instructions | 2        |

```
      00 01 02 03 04 05 06 07  08 09 0A 0B 0C 0D 0E 0F
      -- -- -- -- -- -- -- --  -- -- -- -- -- -- -- --
0090:                                   5B 11 80 F8 FF             [....
00A0: FF 7F F8 FF FF 7F 66 30  30 30 00                 ......f000.     
```

#### Opcodes

```
  0: 0x009B [0x5B] LOAD_EXT_SCHEDULER: Load scheduler "f000" with entities [EventEntity, EventEntity], work=3475*
  1: 0x00AA [0x00] END_REQSTACK()
```

### Event 65535.19

#### Metadata

| Field        | Value    |
|--------------|----------|
| Entrypoint   | 0x00AB   |
| Data Size    | 14 bytes |
| Instructions | 2        |

```
      00 01 02 03 04 05 06 07  08 09 0A 0B 0C 0D 0E 0F
      -- -- -- -- -- -- -- --  -- -- -- -- -- -- -- --
00A0:                                   53 F8 FF FF 7F             S....
00B0: F8 FF FF 7F 66 30 30 30  00                       ....f000.       
```

#### Opcodes

```
  0: 0x00AB [0x53] WAIT_SCHEDULER_TASK: Wait for scheduler "f000" with entities [EventEntity, EventEntity]
  1: 0x00B8 [0x00] END_REQSTACK()
```

### Event 65535.20

#### Metadata

| Field        | Value    |
|--------------|----------|
| Entrypoint   | 0x00B9   |
| Data Size    | 16 bytes |
| Instructions | 2        |

```
      00 01 02 03 04 05 06 07  08 09 0A 0B 0C 0D 0E 0F
      -- -- -- -- -- -- -- --  -- -- -- -- -- -- -- --
00B0:                             5B 11 80 F8 FF FF 7F           [......
00C0: F8 FF FF 7F 66 30 30 31  00                       ....f001.       
```

#### Opcodes

```
  0: 0x00B9 [0x5B] LOAD_EXT_SCHEDULER: Load scheduler "f001" with entities [EventEntity, EventEntity], work=3475*
  1: 0x00C8 [0x00] END_REQSTACK()
```

### Event 65535.21

#### Metadata

| Field        | Value    |
|--------------|----------|
| Entrypoint   | 0x00C9   |
| Data Size    | 14 bytes |
| Instructions | 2        |

```
      00 01 02 03 04 05 06 07  08 09 0A 0B 0C 0D 0E 0F
      -- -- -- -- -- -- -- --  -- -- -- -- -- -- -- --
00C0:                             53 F8 FF FF 7F F8 FF           S......
00D0: FF 7F 66 30 30 31 00                              ..f001.         
```

#### Opcodes

```
  0: 0x00C9 [0x53] WAIT_SCHEDULER_TASK: Wait for scheduler "f001" with entities [EventEntity, EventEntity]
  1: 0x00D6 [0x00] END_REQSTACK()
```

### Event 65535.22

#### Metadata

| Field        | Value    |
|--------------|----------|
| Entrypoint   | 0x00D7   |
| Data Size    | 16 bytes |
| Instructions | 2        |

```
      00 01 02 03 04 05 06 07  08 09 0A 0B 0C 0D 0E 0F
      -- -- -- -- -- -- -- --  -- -- -- -- -- -- -- --
00D0:                      5B  11 80 F8 FF FF 7F F8 FF         [........
00E0: FF 7F 66 65 30 30 00                              ..fe00.         
```

#### Opcodes

```
  0: 0x00D7 [0x5B] LOAD_EXT_SCHEDULER: Load scheduler "fe00" with entities [EventEntity, EventEntity], work=3475*
  1: 0x00E6 [0x00] END_REQSTACK()
```

### Event 65535.23

#### Metadata

| Field        | Value    |
|--------------|----------|
| Entrypoint   | 0x00E7   |
| Data Size    | 14 bytes |
| Instructions | 2        |

```
      00 01 02 03 04 05 06 07  08 09 0A 0B 0C 0D 0E 0F
      -- -- -- -- -- -- -- --  -- -- -- -- -- -- -- --
00E0:                      53  F8 FF FF 7F F8 FF FF 7F         S........
00F0: 66 65 30 30 00                                    fe00.           
```

#### Opcodes

```
  0: 0x00E7 [0x53] WAIT_SCHEDULER_TASK: Wait for scheduler "fe00" with entities [EventEntity, EventEntity]
  1: 0x00F4 [0x00] END_REQSTACK()
```

### Event 65535.24

#### Metadata

| Field        | Value    |
|--------------|----------|
| Entrypoint   | 0x00F5   |
| Data Size    | 16 bytes |
| Instructions | 2        |

```
      00 01 02 03 04 05 06 07  08 09 0A 0B 0C 0D 0E 0F
      -- -- -- -- -- -- -- --  -- -- -- -- -- -- -- --
00F0:                5B 11 80  F8 FF FF 7F F8 FF FF 7F       [..........
0100: 66 65 30 31 00                                    fe01.           
```

#### Opcodes

```
  0: 0x00F5 [0x5B] LOAD_EXT_SCHEDULER: Load scheduler "fe01" with entities [EventEntity, EventEntity], work=3475*
  1: 0x0104 [0x00] END_REQSTACK()
```

### Event 65535.25

#### Metadata

| Field        | Value    |
|--------------|----------|
| Entrypoint   | 0x0105   |
| Data Size    | 14 bytes |
| Instructions | 2        |

```
      00 01 02 03 04 05 06 07  08 09 0A 0B 0C 0D 0E 0F
      -- -- -- -- -- -- -- --  -- -- -- -- -- -- -- --
0100:                53 F8 FF  FF 7F F8 FF FF 7F 66 65       S........fe
0110: 30 31 00                                          01.             
```

#### Opcodes

```
  0: 0x0105 [0x53] WAIT_SCHEDULER_TASK: Wait for scheduler "fe01" with entities [EventEntity, EventEntity]
  1: 0x0112 [0x00] END_REQSTACK()
```

### Event 65535.26

#### Metadata

| Field        | Value    |
|--------------|----------|
| Entrypoint   | 0x0113   |
| Data Size    | 16 bytes |
| Instructions | 2        |

```
      00 01 02 03 04 05 06 07  08 09 0A 0B 0C 0D 0E 0F
      -- -- -- -- -- -- -- --  -- -- -- -- -- -- -- --
0110:          5B 12 80 F8 FF  FF 7F F8 FF FF 7F 66 6E     [..........fn
0120: 30 30 00                                          00.             
```

#### Opcodes

```
  0: 0x0113 [0x5B] LOAD_EXT_SCHEDULER: Load scheduler "fn00" with entities [EventEntity, EventEntity], work=3485*
  1: 0x0122 [0x00] END_REQSTACK()
```

### Event 65535.27

#### Metadata

| Field        | Value    |
|--------------|----------|
| Entrypoint   | 0x0123   |
| Data Size    | 14 bytes |
| Instructions | 2        |

```
      00 01 02 03 04 05 06 07  08 09 0A 0B 0C 0D 0E 0F
      -- -- -- -- -- -- -- --  -- -- -- -- -- -- -- --
0120:          53 F8 FF FF 7F  F8 FF FF 7F 66 6E 30 30     S........fn00
0130: 00                                                .               
```

#### Opcodes

```
  0: 0x0123 [0x53] WAIT_SCHEDULER_TASK: Wait for scheduler "fn00" with entities [EventEntity, EventEntity]
  1: 0x0130 [0x00] END_REQSTACK()
```

### Event 65535.28

#### Metadata

| Field        | Value    |
|--------------|----------|
| Entrypoint   | 0x0131   |
| Data Size    | 16 bytes |
| Instructions | 2        |

```
      00 01 02 03 04 05 06 07  08 09 0A 0B 0C 0D 0E 0F
      -- -- -- -- -- -- -- --  -- -- -- -- -- -- -- --
0130:    5B 12 80 F8 FF FF 7F  F8 FF FF 7F 66 6E 30 31   [..........fn01
0140: 00                                                .               
```

#### Opcodes

```
  0: 0x0131 [0x5B] LOAD_EXT_SCHEDULER: Load scheduler "fn01" with entities [EventEntity, EventEntity], work=3485*
  1: 0x0140 [0x00] END_REQSTACK()
```

### Event 65535.29

#### Metadata

| Field        | Value    |
|--------------|----------|
| Entrypoint   | 0x0141   |
| Data Size    | 14 bytes |
| Instructions | 2        |

```
      00 01 02 03 04 05 06 07  08 09 0A 0B 0C 0D 0E 0F
      -- -- -- -- -- -- -- --  -- -- -- -- -- -- -- --
0140:    53 F8 FF FF 7F F8 FF  FF 7F 66 6E 30 31 00      S........fn01. 
```

#### Opcodes

```
  0: 0x0141 [0x53] WAIT_SCHEDULER_TASK: Wait for scheduler "fn01" with entities [EventEntity, EventEntity]
  1: 0x014E [0x00] END_REQSTACK()
```

### Event 65535.30

#### Metadata

| Field        | Value    |
|--------------|----------|
| Entrypoint   | 0x014F   |
| Data Size    | 19 bytes |
| Instructions | 2        |

```
      00 01 02 03 04 05 06 07  08 09 0A 0B 0C 0D 0E 0F
      -- -- -- -- -- -- -- --  -- -- -- -- -- -- -- --
0140:                                               5F                 _
0150: 05 13 80 F8 FF FF 7F F8  FF FF 7F 74 6C 6B 30 14  ...........tlk0.
0160: 80 00                                             ..              
```

#### Opcodes

```
  0: 0x014F [0x5F] MULTI_HANDLER_COMPLEX(mode=0x05 - Load ext scheduler with flag (OpCode 0x5B mode 0, flag 1), ref=3476*, entity1=EventEntity, entity2=EventEntity, string="tlk0", extra=130*)
  1: 0x0161 [0x00] END_REQSTACK()
```

### Event 65535.31

#### Metadata

| Field        | Value    |
|--------------|----------|
| Entrypoint   | 0x0162   |
| Data Size    | 15 bytes |
| Instructions | 2        |

```
      00 01 02 03 04 05 06 07  08 09 0A 0B 0C 0D 0E 0F
      -- -- -- -- -- -- -- --  -- -- -- -- -- -- -- --
0160:       5F 07 F8 FF FF 7F  F8 FF FF 7F 74 6C 6B 30    _.........tlk0
0170: 00                                                .               
```

#### Opcodes

```
  0: 0x0162 [0x5F] MULTI_HANDLER_COMPLEX(mode=0x07 - Wait scheduler task (OpCode 0x53))
  1: 0x0170 [0x00] END_REQSTACK()
```

### Event 65535.32

#### Metadata

| Field        | Value    |
|--------------|----------|
| Entrypoint   | 0x0171   |
| Data Size    | 19 bytes |
| Instructions | 2        |

```
      00 01 02 03 04 05 06 07  08 09 0A 0B 0C 0D 0E 0F
      -- -- -- -- -- -- -- --  -- -- -- -- -- -- -- --
0170:    5F 05 13 80 F8 FF FF  7F F8 FF FF 7F 74 6C 6B   _...........tlk
0180: 31 15 80 00                                       1...            
```

#### Opcodes

```
  0: 0x0171 [0x5F] MULTI_HANDLER_COMPLEX(mode=0x05 - Load ext scheduler with flag (OpCode 0x5B mode 0, flag 1), ref=3476*, entity1=EventEntity, entity2=EventEntity, string="tlk1", extra=150*)
  1: 0x0183 [0x00] END_REQSTACK()
```

### Event 65535.33

#### Metadata

| Field        | Value    |
|--------------|----------|
| Entrypoint   | 0x0184   |
| Data Size    | 15 bytes |
| Instructions | 2        |

```
      00 01 02 03 04 05 06 07  08 09 0A 0B 0C 0D 0E 0F
      -- -- -- -- -- -- -- --  -- -- -- -- -- -- -- --
0180:             5F 07 F8 FF  FF 7F F8 FF FF 7F 74 6C      _.........tl
0190: 6B 31 00                                          k1.             
```

#### Opcodes

```
  0: 0x0184 [0x5F] MULTI_HANDLER_COMPLEX(mode=0x07 - Wait scheduler task (OpCode 0x53))
  1: 0x0192 [0x00] END_REQSTACK()
```

### Event 65535.34

#### Metadata

| Field        | Value    |
|--------------|----------|
| Entrypoint   | 0x0193   |
| Data Size    | 19 bytes |
| Instructions | 2        |

```
      00 01 02 03 04 05 06 07  08 09 0A 0B 0C 0D 0E 0F
      -- -- -- -- -- -- -- --  -- -- -- -- -- -- -- --
0190:          5F 05 13 80 F8  FF FF 7F F8 FF FF 7F 79     _...........y
01A0: 65 73 30 16 80 00                                 es0...          
```

#### Opcodes

```
  0: 0x0193 [0x5F] MULTI_HANDLER_COMPLEX(mode=0x05 - Load ext scheduler with flag (OpCode 0x5B mode 0, flag 1), ref=3476*, entity1=EventEntity, entity2=EventEntity, string="yes0", extra=170*)
  1: 0x01A5 [0x00] END_REQSTACK()
```

### Event 65535.35

#### Metadata

| Field        | Value    |
|--------------|----------|
| Entrypoint   | 0x01A6   |
| Data Size    | 15 bytes |
| Instructions | 2        |

```
      00 01 02 03 04 05 06 07  08 09 0A 0B 0C 0D 0E 0F
      -- -- -- -- -- -- -- --  -- -- -- -- -- -- -- --
01A0:                   5F 07  F8 FF FF 7F F8 FF FF 7F        _.........
01B0: 79 65 73 30 00                                    yes0.           
```

#### Opcodes

```
  0: 0x01A6 [0x5F] MULTI_HANDLER_COMPLEX(mode=0x07 - Wait scheduler task (OpCode 0x53))
  1: 0x01B4 [0x00] END_REQSTACK()
```

### Event 65535.36

#### Metadata

| Field        | Value    |
|--------------|----------|
| Entrypoint   | 0x01B5   |
| Data Size    | 19 bytes |
| Instructions | 2        |

```
      00 01 02 03 04 05 06 07  08 09 0A 0B 0C 0D 0E 0F
      -- -- -- -- -- -- -- --  -- -- -- -- -- -- -- --
01B0:                5F 05 13  80 F8 FF FF 7F F8 FF FF       _..........
01C0: 7F 6E 6F 6E 30 17 80 00                           .non0...        
```

#### Opcodes

```
  0: 0x01B5 [0x5F] MULTI_HANDLER_COMPLEX(mode=0x05 - Load ext scheduler with flag (OpCode 0x5B mode 0, flag 1), ref=3476*, entity1=EventEntity, entity2=EventEntity, string="non0", extra=210*)
  1: 0x01C7 [0x00] END_REQSTACK()
```

### Event 65535.37

#### Metadata

| Field        | Value    |
|--------------|----------|
| Entrypoint   | 0x01C8   |
| Data Size    | 15 bytes |
| Instructions | 2        |

```
      00 01 02 03 04 05 06 07  08 09 0A 0B 0C 0D 0E 0F
      -- -- -- -- -- -- -- --  -- -- -- -- -- -- -- --
01C0:                          5F 07 F8 FF FF 7F F8 FF          _.......
01D0: FF 7F 6E 6F 6E 30 00                              ..non0.         
```

#### Opcodes

```
  0: 0x01C8 [0x5F] MULTI_HANDLER_COMPLEX(mode=0x07 - Wait scheduler task (OpCode 0x53))
  1: 0x01D6 [0x00] END_REQSTACK()
```

### Event 65535.38

#### Metadata

| Field        | Value    |
|--------------|----------|
| Entrypoint   | 0x01D7   |
| Data Size    | 19 bytes |
| Instructions | 2        |

```
      00 01 02 03 04 05 06 07  08 09 0A 0B 0C 0D 0E 0F
      -- -- -- -- -- -- -- --  -- -- -- -- -- -- -- --
01D0:                      5F  05 18 80 F8 FF FF 7F F8         _........
01E0: FF FF 7F 75 64 65 30 16  80 00                    ...ude0...      
```

#### Opcodes

```
  0: 0x01D7 [0x5F] MULTI_HANDLER_COMPLEX(mode=0x05 - Load ext scheduler with flag (OpCode 0x5B mode 0, flag 1), ref=3477*, entity1=EventEntity, entity2=EventEntity, string="ude0", extra=170*)
  1: 0x01E9 [0x00] END_REQSTACK()
```

### Event 65535.39

#### Metadata

| Field        | Value    |
|--------------|----------|
| Entrypoint   | 0x01EA   |
| Data Size    | 15 bytes |
| Instructions | 2        |

```
      00 01 02 03 04 05 06 07  08 09 0A 0B 0C 0D 0E 0F
      -- -- -- -- -- -- -- --  -- -- -- -- -- -- -- --
01E0:                                5F 07 F8 FF FF 7F            _.....
01F0: F8 FF FF 7F 75 64 65 30  00                       ....ude0.       
```

#### Opcodes

```
  0: 0x01EA [0x5F] MULTI_HANDLER_COMPLEX(mode=0x07 - Wait scheduler task (OpCode 0x53))
  1: 0x01F8 [0x00] END_REQSTACK()
```

### Event 65535.40

#### Metadata

| Field        | Value    |
|--------------|----------|
| Entrypoint   | 0x01F9   |
| Data Size    | 19 bytes |
| Instructions | 2        |

```
      00 01 02 03 04 05 06 07  08 09 0A 0B 0C 0D 0E 0F
      -- -- -- -- -- -- -- --  -- -- -- -- -- -- -- --
01F0:                             5F 05 18 80 F8 FF FF           _......
0200: 7F F8 FF FF 7F 75 64 65  31 19 80 00              .....ude1...    
```

#### Opcodes

```
  0: 0x01F9 [0x5F] MULTI_HANDLER_COMPLEX(mode=0x05 - Load ext scheduler with flag (OpCode 0x5B mode 0, flag 1), ref=3477*, entity1=EventEntity, entity2=EventEntity, string="ude1", extra=180*)
  1: 0x020B [0x00] END_REQSTACK()
```

### Event 65535.41

#### Metadata

| Field        | Value    |
|--------------|----------|
| Entrypoint   | 0x020C   |
| Data Size    | 15 bytes |
| Instructions | 2        |

```
      00 01 02 03 04 05 06 07  08 09 0A 0B 0C 0D 0E 0F
      -- -- -- -- -- -- -- --  -- -- -- -- -- -- -- --
0200:                                      5F 07 F8 FF              _...
0210: FF 7F F8 FF FF 7F 75 64  65 31 00                 ......ude1.     
```

#### Opcodes

```
  0: 0x020C [0x5F] MULTI_HANDLER_COMPLEX(mode=0x07 - Wait scheduler task (OpCode 0x53))
  1: 0x021A [0x00] END_REQSTACK()
```

### Event 65535.42

#### Metadata

| Field        | Value    |
|--------------|----------|
| Entrypoint   | 0x021B   |
| Data Size    | 19 bytes |
| Instructions | 2        |

```
      00 01 02 03 04 05 06 07  08 09 0A 0B 0C 0D 0E 0F
      -- -- -- -- -- -- -- --  -- -- -- -- -- -- -- --
0210:                                   5F 05 18 80 F8             _....
0220: FF FF 7F F8 FF FF 7F 77  73 74 30 1A 80 00        .......wst0...  
```

#### Opcodes

```
  0: 0x021B [0x5F] MULTI_HANDLER_COMPLEX(mode=0x05 - Load ext scheduler with flag (OpCode 0x5B mode 0, flag 1), ref=3477*, entity1=EventEntity, entity2=EventEntity, string="wst0", extra=120*)
  1: 0x022D [0x00] END_REQSTACK()
```

### Event 65535.43

#### Metadata

| Field        | Value    |
|--------------|----------|
| Entrypoint   | 0x022E   |
| Data Size    | 15 bytes |
| Instructions | 2        |

```
      00 01 02 03 04 05 06 07  08 09 0A 0B 0C 0D 0E 0F
      -- -- -- -- -- -- -- --  -- -- -- -- -- -- -- --
0220:                                            5F 07                _.
0230: F8 FF FF 7F F8 FF FF 7F  77 73 74 30 00           ........wst0.   
```

#### Opcodes

```
  0: 0x022E [0x5F] MULTI_HANDLER_COMPLEX(mode=0x07 - Wait scheduler task (OpCode 0x53))
  1: 0x023C [0x00] END_REQSTACK()
```

### Event 65535.44

#### Metadata

| Field        | Value    |
|--------------|----------|
| Entrypoint   | 0x023D   |
| Data Size    | 19 bytes |
| Instructions | 2        |

```
      00 01 02 03 04 05 06 07  08 09 0A 0B 0C 0D 0E 0F
      -- -- -- -- -- -- -- --  -- -- -- -- -- -- -- --
0230:                                         5F 05 18               _..
0240: 80 F8 FF FF 7F F8 FF FF  7F 77 73 74 31 1B 80 00  .........wst1...
```

#### Opcodes

```
  0: 0x023D [0x5F] MULTI_HANDLER_COMPLEX(mode=0x05 - Load ext scheduler with flag (OpCode 0x5B mode 0, flag 1), ref=3477*, entity1=EventEntity, entity2=EventEntity, string="wst1", extra=140*)
  1: 0x024F [0x00] END_REQSTACK()
```

### Event 65535.45

#### Metadata

| Field        | Value    |
|--------------|----------|
| Entrypoint   | 0x0250   |
| Data Size    | 15 bytes |
| Instructions | 2        |

```
      00 01 02 03 04 05 06 07  08 09 0A 0B 0C 0D 0E 0F
      -- -- -- -- -- -- -- --  -- -- -- -- -- -- -- --
0250: 5F 07 F8 FF FF 7F F8 FF  FF 7F 77 73 74 31 00     _.........wst1. 
```

#### Opcodes

```
  0: 0x0250 [0x5F] MULTI_HANDLER_COMPLEX(mode=0x07 - Wait scheduler task (OpCode 0x53))
  1: 0x025E [0x00] END_REQSTACK()
```

### Event 65535.46

#### Metadata

| Field        | Value    |
|--------------|----------|
| Entrypoint   | 0x025F   |
| Data Size    | 19 bytes |
| Instructions | 2        |

```
      00 01 02 03 04 05 06 07  08 09 0A 0B 0C 0D 0E 0F
      -- -- -- -- -- -- -- --  -- -- -- -- -- -- -- --
0250:                                               5F                 _
0260: 05 1C 80 F8 FF FF 7F F8  FF FF 7F 74 68 6B 30 14  ...........thk0.
0270: 80 00                                             ..              
```

#### Opcodes

```
  0: 0x025F [0x5F] MULTI_HANDLER_COMPLEX(mode=0x05 - Load ext scheduler with flag (OpCode 0x5B mode 0, flag 1), ref=3478*, entity1=EventEntity, entity2=EventEntity, string="thk0", extra=130*)
  1: 0x0271 [0x00] END_REQSTACK()
```

### Event 65535.47

#### Metadata

| Field        | Value    |
|--------------|----------|
| Entrypoint   | 0x0272   |
| Data Size    | 15 bytes |
| Instructions | 2        |

```
      00 01 02 03 04 05 06 07  08 09 0A 0B 0C 0D 0E 0F
      -- -- -- -- -- -- -- --  -- -- -- -- -- -- -- --
0270:       5F 07 F8 FF FF 7F  F8 FF FF 7F 74 68 6B 30    _.........thk0
0280: 00                                                .               
```

#### Opcodes

```
  0: 0x0272 [0x5F] MULTI_HANDLER_COMPLEX(mode=0x07 - Wait scheduler task (OpCode 0x53))
  1: 0x0280 [0x00] END_REQSTACK()
```

### Event 65535.48

#### Metadata

| Field        | Value    |
|--------------|----------|
| Entrypoint   | 0x0281   |
| Data Size    | 19 bytes |
| Instructions | 2        |

```
      00 01 02 03 04 05 06 07  08 09 0A 0B 0C 0D 0E 0F
      -- -- -- -- -- -- -- --  -- -- -- -- -- -- -- --
0280:    5F 05 1C 80 F8 FF FF  7F F8 FF FF 7F 74 68 6B   _...........thk
0290: 31 16 80 00                                       1...            
```

#### Opcodes

```
  0: 0x0281 [0x5F] MULTI_HANDLER_COMPLEX(mode=0x05 - Load ext scheduler with flag (OpCode 0x5B mode 0, flag 1), ref=3478*, entity1=EventEntity, entity2=EventEntity, string="thk1", extra=170*)
  1: 0x0293 [0x00] END_REQSTACK()
```

### Event 65535.49

#### Metadata

| Field        | Value    |
|--------------|----------|
| Entrypoint   | 0x0294   |
| Data Size    | 15 bytes |
| Instructions | 2        |

```
      00 01 02 03 04 05 06 07  08 09 0A 0B 0C 0D 0E 0F
      -- -- -- -- -- -- -- --  -- -- -- -- -- -- -- --
0290:             5F 07 F8 FF  FF 7F F8 FF FF 7F 74 68      _.........th
02A0: 6B 31 00                                          k1.             
```

#### Opcodes

```
  0: 0x0294 [0x5F] MULTI_HANDLER_COMPLEX(mode=0x07 - Wait scheduler task (OpCode 0x53))
  1: 0x02A2 [0x00] END_REQSTACK()
```

### Event 65535.50

#### Metadata

| Field        | Value    |
|--------------|----------|
| Entrypoint   | 0x02A3   |
| Data Size    | 19 bytes |
| Instructions | 2        |

```
      00 01 02 03 04 05 06 07  08 09 0A 0B 0C 0D 0E 0F
      -- -- -- -- -- -- -- --  -- -- -- -- -- -- -- --
02A0:          5F 05 1C 80 F8  FF FF 7F F8 FF FF 7F 6C     _...........l
02B0: 67 68 30 1D 80 00                                 gh0...          
```

#### Opcodes

```
  0: 0x02A3 [0x5F] MULTI_HANDLER_COMPLEX(mode=0x05 - Load ext scheduler with flag (OpCode 0x5B mode 0, flag 1), ref=3478*, entity1=EventEntity, entity2=EventEntity, string="lgh0", extra=200*)
  1: 0x02B5 [0x00] END_REQSTACK()
```

### Event 65535.51

#### Metadata

| Field        | Value    |
|--------------|----------|
| Entrypoint   | 0x02B6   |
| Data Size    | 15 bytes |
| Instructions | 2        |

```
      00 01 02 03 04 05 06 07  08 09 0A 0B 0C 0D 0E 0F
      -- -- -- -- -- -- -- --  -- -- -- -- -- -- -- --
02B0:                   5F 07  F8 FF FF 7F F8 FF FF 7F        _.........
02C0: 6C 67 68 30 00                                    lgh0.           
```

#### Opcodes

```
  0: 0x02B6 [0x5F] MULTI_HANDLER_COMPLEX(mode=0x07 - Wait scheduler task (OpCode 0x53))
  1: 0x02C4 [0x00] END_REQSTACK()
```

### Event 65535.52

#### Metadata

| Field        | Value    |
|--------------|----------|
| Entrypoint   | 0x02C5   |
| Data Size    | 19 bytes |
| Instructions | 2        |

```
      00 01 02 03 04 05 06 07  08 09 0A 0B 0C 0D 0E 0F
      -- -- -- -- -- -- -- --  -- -- -- -- -- -- -- --
02C0:                5F 05 1E  80 F8 FF FF 7F F8 FF FF       _..........
02D0: 7F 64 6E 61 30 16 80 00                           .dna0...        
```

#### Opcodes

```
  0: 0x02C5 [0x5F] MULTI_HANDLER_COMPLEX(mode=0x05 - Load ext scheduler with flag (OpCode 0x5B mode 0, flag 1), ref=3484*, entity1=EventEntity, entity2=EventEntity, string="dna0", extra=170*)
  1: 0x02D7 [0x00] END_REQSTACK()
```

### Event 65535.53

#### Metadata

| Field        | Value    |
|--------------|----------|
| Entrypoint   | 0x02D8   |
| Data Size    | 15 bytes |
| Instructions | 2        |

```
      00 01 02 03 04 05 06 07  08 09 0A 0B 0C 0D 0E 0F
      -- -- -- -- -- -- -- --  -- -- -- -- -- -- -- --
02D0:                          5F 07 F8 FF FF 7F F8 FF          _.......
02E0: FF 7F 64 6E 61 30 00                              ..dna0.         
```

#### Opcodes

```
  0: 0x02D8 [0x5F] MULTI_HANDLER_COMPLEX(mode=0x07 - Wait scheduler task (OpCode 0x53))
  1: 0x02E6 [0x00] END_REQSTACK()
```

### Event 65535.54

#### Metadata

| Field        | Value    |
|--------------|----------|
| Entrypoint   | 0x02E7   |
| Data Size    | 19 bytes |
| Instructions | 2        |

```
      00 01 02 03 04 05 06 07  08 09 0A 0B 0C 0D 0E 0F
      -- -- -- -- -- -- -- --  -- -- -- -- -- -- -- --
02E0:                      5F  05 1E 80 F8 FF FF 7F F8         _........
02F0: FF FF 7F 64 6E 61 31 1B  80 00                    ...dna1...      
```

#### Opcodes

```
  0: 0x02E7 [0x5F] MULTI_HANDLER_COMPLEX(mode=0x05 - Load ext scheduler with flag (OpCode 0x5B mode 0, flag 1), ref=3484*, entity1=EventEntity, entity2=EventEntity, string="dna1", extra=140*)
  1: 0x02F9 [0x00] END_REQSTACK()
```

### Event 65535.55

#### Metadata

| Field        | Value    |
|--------------|----------|
| Entrypoint   | 0x02FA   |
| Data Size    | 15 bytes |
| Instructions | 2        |

```
      00 01 02 03 04 05 06 07  08 09 0A 0B 0C 0D 0E 0F
      -- -- -- -- -- -- -- --  -- -- -- -- -- -- -- --
02F0:                                5F 07 F8 FF FF 7F            _.....
0300: F8 FF FF 7F 64 6E 61 31  00                       ....dna1.       
```

#### Opcodes

```
  0: 0x02FA [0x5F] MULTI_HANDLER_COMPLEX(mode=0x07 - Wait scheduler task (OpCode 0x53))
  1: 0x0308 [0x00] END_REQSTACK()
```

### Event 65535.56

#### Metadata

| Field        | Value    |
|--------------|----------|
| Entrypoint   | 0x0309   |
| Data Size    | 19 bytes |
| Instructions | 2        |

```
      00 01 02 03 04 05 06 07  08 09 0A 0B 0C 0D 0E 0F
      -- -- -- -- -- -- -- --  -- -- -- -- -- -- -- --
0300:                             5F 05 1E 80 F8 FF FF           _......
0310: 7F F8 FF FF 7F 6B 61 74  30 1F 80 00              .....kat0...    
```

#### Opcodes

```
  0: 0x0309 [0x5F] MULTI_HANDLER_COMPLEX(mode=0x05 - Load ext scheduler with flag (OpCode 0x5B mode 0, flag 1), ref=3484*, entity1=EventEntity, entity2=EventEntity, string="kat0", extra=330*)
  1: 0x031B [0x00] END_REQSTACK()
```

### Event 65535.57

#### Metadata

| Field        | Value    |
|--------------|----------|
| Entrypoint   | 0x031C   |
| Data Size    | 15 bytes |
| Instructions | 2        |

```
      00 01 02 03 04 05 06 07  08 09 0A 0B 0C 0D 0E 0F
      -- -- -- -- -- -- -- --  -- -- -- -- -- -- -- --
0310:                                      5F 07 F8 FF              _...
0320: FF 7F F8 FF FF 7F 6B 61  74 30 00                 ......kat0.     
```

#### Opcodes

```
  0: 0x031C [0x5F] MULTI_HANDLER_COMPLEX(mode=0x07 - Wait scheduler task (OpCode 0x53))
  1: 0x032A [0x00] END_REQSTACK()
```

### Event 65535.58

#### Metadata

| Field        | Value    |
|--------------|----------|
| Entrypoint   | 0x032B   |
| Data Size    | 19 bytes |
| Instructions | 2        |

```
      00 01 02 03 04 05 06 07  08 09 0A 0B 0C 0D 0E 0F
      -- -- -- -- -- -- -- --  -- -- -- -- -- -- -- --
0320:                                   5F 05 12 80 F8             _....
0330: FF FF 7F F8 FF FF 7F 74  79 75 30 16 80 00        .......tyu0...  
```

#### Opcodes

```
  0: 0x032B [0x5F] MULTI_HANDLER_COMPLEX(mode=0x05 - Load ext scheduler with flag (OpCode 0x5B mode 0, flag 1), ref=3485*, entity1=EventEntity, entity2=EventEntity, string="tyu0", extra=170*)
  1: 0x033D [0x00] END_REQSTACK()
```

### Event 65535.59

#### Metadata

| Field        | Value    |
|--------------|----------|
| Entrypoint   | 0x033E   |
| Data Size    | 15 bytes |
| Instructions | 2        |

```
      00 01 02 03 04 05 06 07  08 09 0A 0B 0C 0D 0E 0F
      -- -- -- -- -- -- -- --  -- -- -- -- -- -- -- --
0330:                                            5F 07                _.
0340: F8 FF FF 7F F8 FF FF 7F  74 79 75 30 00           ........tyu0.   
```

#### Opcodes

```
  0: 0x033E [0x5F] MULTI_HANDLER_COMPLEX(mode=0x07 - Wait scheduler task (OpCode 0x53))
  1: 0x034C [0x00] END_REQSTACK()
```

### Event 65535.60

#### Metadata

| Field        | Value    |
|--------------|----------|
| Entrypoint   | 0x034D   |
| Data Size    | 19 bytes |
| Instructions | 2        |

```
      00 01 02 03 04 05 06 07  08 09 0A 0B 0C 0D 0E 0F
      -- -- -- -- -- -- -- --  -- -- -- -- -- -- -- --
0340:                                         5F 05 12               _..
0350: 80 F8 FF FF 7F F8 FF FF  7F 74 79 75 31 15 80 00  .........tyu1...
```

#### Opcodes

```
  0: 0x034D [0x5F] MULTI_HANDLER_COMPLEX(mode=0x05 - Load ext scheduler with flag (OpCode 0x5B mode 0, flag 1), ref=3485*, entity1=EventEntity, entity2=EventEntity, string="tyu1", extra=150*)
  1: 0x035F [0x00] END_REQSTACK()
```

### Event 65535.61

#### Metadata

| Field        | Value    |
|--------------|----------|
| Entrypoint   | 0x0360   |
| Data Size    | 15 bytes |
| Instructions | 2        |

```
      00 01 02 03 04 05 06 07  08 09 0A 0B 0C 0D 0E 0F
      -- -- -- -- -- -- -- --  -- -- -- -- -- -- -- --
0360: 5F 07 F8 FF FF 7F F8 FF  FF 7F 74 79 75 31 00     _.........tyu1. 
```

#### Opcodes

```
  0: 0x0360 [0x5F] MULTI_HANDLER_COMPLEX(mode=0x07 - Wait scheduler task (OpCode 0x53))
  1: 0x036E [0x00] END_REQSTACK()
```

### Event 65535.62

#### Metadata

| Field        | Value    |
|--------------|----------|
| Entrypoint   | 0x036F   |
| Data Size    | 19 bytes |
| Instructions | 2        |

```
      00 01 02 03 04 05 06 07  08 09 0A 0B 0C 0D 0E 0F
      -- -- -- -- -- -- -- --  -- -- -- -- -- -- -- --
0360:                                               5F                 _
0370: 05 20 80 F8 FF FF 7F F8  FF FF 7F 70 72 69 30 21  . .........pri0!
0380: 80 00                                             ..              
```

#### Opcodes

```
  0: 0x036F [0x5F] MULTI_HANDLER_COMPLEX(mode=0x05 - Load ext scheduler with flag (OpCode 0x5B mode 0, flag 1), ref=3572*, entity1=EventEntity, entity2=EventEntity, string="pri0", extra=160*)
  1: 0x0381 [0x00] END_REQSTACK()
```

### Event 65535.63

#### Metadata

| Field        | Value    |
|--------------|----------|
| Entrypoint   | 0x0382   |
| Data Size    | 15 bytes |
| Instructions | 2        |

```
      00 01 02 03 04 05 06 07  08 09 0A 0B 0C 0D 0E 0F
      -- -- -- -- -- -- -- --  -- -- -- -- -- -- -- --
0380:       5F 07 F8 FF FF 7F  F8 FF FF 7F 70 72 69 30    _.........pri0
0390: 00                                                .               
```

#### Opcodes

```
  0: 0x0382 [0x5F] MULTI_HANDLER_COMPLEX(mode=0x07 - Wait scheduler task (OpCode 0x53))
  1: 0x0390 [0x00] END_REQSTACK()
```

### Event 65535.64

#### Metadata

| Field        | Value    |
|--------------|----------|
| Entrypoint   | 0x0391   |
| Data Size    | 19 bytes |
| Instructions | 2        |

```
      00 01 02 03 04 05 06 07  08 09 0A 0B 0C 0D 0E 0F
      -- -- -- -- -- -- -- --  -- -- -- -- -- -- -- --
0390:    5F 05 20 80 F8 FF FF  7F F8 FF FF 7F 70 72 69   _. .........pri
03A0: 31 16 80 00                                       1...            
```

#### Opcodes

```
  0: 0x0391 [0x5F] MULTI_HANDLER_COMPLEX(mode=0x05 - Load ext scheduler with flag (OpCode 0x5B mode 0, flag 1), ref=3572*, entity1=EventEntity, entity2=EventEntity, string="pri1", extra=170*)
  1: 0x03A3 [0x00] END_REQSTACK()
```

### Event 65535.65

#### Metadata

| Field        | Value    |
|--------------|----------|
| Entrypoint   | 0x03A4   |
| Data Size    | 15 bytes |
| Instructions | 2        |

```
      00 01 02 03 04 05 06 07  08 09 0A 0B 0C 0D 0E 0F
      -- -- -- -- -- -- -- --  -- -- -- -- -- -- -- --
03A0:             5F 07 F8 FF  FF 7F F8 FF FF 7F 70 72      _.........pr
03B0: 69 31 00                                          i1.             
```

#### Opcodes

```
  0: 0x03A4 [0x5F] MULTI_HANDLER_COMPLEX(mode=0x07 - Wait scheduler task (OpCode 0x53))
  1: 0x03B2 [0x00] END_REQSTACK()
```

### Event 65535.66

#### Metadata

| Field        | Value    |
|--------------|----------|
| Entrypoint   | 0x03B3   |
| Data Size    | 31 bytes |
| Instructions | 4        |

```
      00 01 02 03 04 05 06 07  08 09 0A 0B 0C 0D 0E 0F
      -- -- -- -- -- -- -- --  -- -- -- -- -- -- -- --
03B0:          7C 00 F8 FF FF  7F 81 00 F8 FF FF 7F 5F     |..........._
03C0: 05 20 80 F8 FF FF 7F F8  FF FF 7F 62 69 6B 30 1B  . .........bik0.
03D0: 80 00                                             ..              
```

#### Opcodes

```
  0: 0x03B3 [0x7C] EventEntity->Render.Flags2 |= 0x00
  1: 0x03B9 [0x81] SET_ENTITY_BLINKING(blink_flag=0x00, entity=EventEntity)
  2: 0x03BF [0x5F] MULTI_HANDLER_COMPLEX(mode=0x05 - Load ext scheduler with flag (OpCode 0x5B mode 0, flag 1), ref=3572*, entity1=EventEntity, entity2=EventEntity, string="bik0", extra=140*)
  3: 0x03D1 [0x00] END_REQSTACK()
```

### Event 65535.67

#### Metadata

| Field        | Value    |
|--------------|----------|
| Entrypoint   | 0x03D2   |
| Data Size    | 15 bytes |
| Instructions | 2        |

```
      00 01 02 03 04 05 06 07  08 09 0A 0B 0C 0D 0E 0F
      -- -- -- -- -- -- -- --  -- -- -- -- -- -- -- --
03D0:       5F 07 F8 FF FF 7F  F8 FF FF 7F 62 69 6B 30    _.........bik0
03E0: 00                                                .               
```

#### Opcodes

```
  0: 0x03D2 [0x5F] MULTI_HANDLER_COMPLEX(mode=0x07 - Wait scheduler task (OpCode 0x53))
  1: 0x03E0 [0x00] END_REQSTACK()
```

### Event 65535.68

#### Metadata

| Field        | Value    |
|--------------|----------|
| Entrypoint   | 0x03E1   |
| Data Size    | 19 bytes |
| Instructions | 2        |

```
      00 01 02 03 04 05 06 07  08 09 0A 0B 0C 0D 0E 0F
      -- -- -- -- -- -- -- --  -- -- -- -- -- -- -- --
03E0:    5F 05 20 80 F8 FF FF  7F F8 FF FF 7F 62 69 6B   _. .........bik
03F0: 31 1B 80 00                                       1...            
```

#### Opcodes

```
  0: 0x03E1 [0x5F] MULTI_HANDLER_COMPLEX(mode=0x05 - Load ext scheduler with flag (OpCode 0x5B mode 0, flag 1), ref=3572*, entity1=EventEntity, entity2=EventEntity, string="bik1", extra=140*)
  1: 0x03F3 [0x00] END_REQSTACK()
```

### Event 65535.69

#### Metadata

| Field        | Value    |
|--------------|----------|
| Entrypoint   | 0x03F4   |
| Data Size    | 27 bytes |
| Instructions | 4        |

```
      00 01 02 03 04 05 06 07  08 09 0A 0B 0C 0D 0E 0F
      -- -- -- -- -- -- -- --  -- -- -- -- -- -- -- --
03F0:             5F 07 F8 FF  FF 7F F8 FF FF 7F 62 69      _.........bi
0400: 6B 31 7C 01 F8 FF FF 7F  81 01 F8 FF FF 7F 00     k1|............ 
```

#### Opcodes

```
  0: 0x03F4 [0x5F] MULTI_HANDLER_COMPLEX(mode=0x07 - Wait scheduler task (OpCode 0x53))
  1: 0x0402 [0x7C] EventEntity->Render.Flags2 |= 0x01
  2: 0x0408 [0x81] SET_ENTITY_BLINKING(blink_flag=0x01, entity=EventEntity)
  3: 0x040E [0x00] END_REQSTACK()
```

### Event 65535.70

#### Metadata

| Field        | Value    |
|--------------|----------|
| Entrypoint   | 0x040F   |
| Data Size    | 19 bytes |
| Instructions | 2        |

```
      00 01 02 03 04 05 06 07  08 09 0A 0B 0C 0D 0E 0F
      -- -- -- -- -- -- -- --  -- -- -- -- -- -- -- --
0400:                                               5F                 _
0410: 05 22 80 F8 FF FF 7F F8  FF FF 7F 6D 69 77 30 23  .".........miw0#
0420: 80 00                                             ..              
```

#### Opcodes

```
  0: 0x040F [0x5F] MULTI_HANDLER_COMPLEX(mode=0x05 - Load ext scheduler with flag (OpCode 0x5B mode 0, flag 1), ref=3817*, entity1=EventEntity, entity2=EventEntity, string="miw0", extra=270*)
  1: 0x0421 [0x00] END_REQSTACK()
```

### Event 65535.71

#### Metadata

| Field        | Value    |
|--------------|----------|
| Entrypoint   | 0x0422   |
| Data Size    | 15 bytes |
| Instructions | 2        |

```
      00 01 02 03 04 05 06 07  08 09 0A 0B 0C 0D 0E 0F
      -- -- -- -- -- -- -- --  -- -- -- -- -- -- -- --
0420:       5F 07 F8 FF FF 7F  F8 FF FF 7F 6D 69 77 30    _.........miw0
0430: 00                                                .               
```

#### Opcodes

```
  0: 0x0422 [0x5F] MULTI_HANDLER_COMPLEX(mode=0x07 - Wait scheduler task (OpCode 0x53))
  1: 0x0430 [0x00] END_REQSTACK()
```

### Event 65535.72

#### Metadata

| Field        | Value    |
|--------------|----------|
| Entrypoint   | 0x0431   |
| Data Size    | 19 bytes |
| Instructions | 2        |

```
      00 01 02 03 04 05 06 07  08 09 0A 0B 0C 0D 0E 0F
      -- -- -- -- -- -- -- --  -- -- -- -- -- -- -- --
0430:    5F 05 22 80 F8 FF FF  7F F8 FF FF 7F 70 61 73   _.".........pas
0440: 30 24 80 00                                       0$..            
```

#### Opcodes

```
  0: 0x0431 [0x5F] MULTI_HANDLER_COMPLEX(mode=0x05 - Load ext scheduler with flag (OpCode 0x5B mode 0, flag 1), ref=3817*, entity1=EventEntity, entity2=EventEntity, string="pas0", extra=190*)
  1: 0x0443 [0x00] END_REQSTACK()
```

### Event 65535.73

#### Metadata

| Field        | Value    |
|--------------|----------|
| Entrypoint   | 0x0444   |
| Data Size    | 15 bytes |
| Instructions | 2        |

```
      00 01 02 03 04 05 06 07  08 09 0A 0B 0C 0D 0E 0F
      -- -- -- -- -- -- -- --  -- -- -- -- -- -- -- --
0440:             5F 07 F8 FF  FF 7F F8 FF FF 7F 70 61      _.........pa
0450: 73 30 00                                          s0.             
```

#### Opcodes

```
  0: 0x0444 [0x5F] MULTI_HANDLER_COMPLEX(mode=0x07 - Wait scheduler task (OpCode 0x53))
  1: 0x0452 [0x00] END_REQSTACK()
```

### Event 65535.74

#### Metadata

| Field        | Value    |
|--------------|----------|
| Entrypoint   | 0x0453   |
| Data Size    | 19 bytes |
| Instructions | 2        |

```
      00 01 02 03 04 05 06 07  08 09 0A 0B 0C 0D 0E 0F
      -- -- -- -- -- -- -- --  -- -- -- -- -- -- -- --
0450:          5F 05 22 80 F8  FF FF 7F F8 FF FF 7F 70     _.".........p
0460: 61 73 31 15 80 00                                 as1...          
```

#### Opcodes

```
  0: 0x0453 [0x5F] MULTI_HANDLER_COMPLEX(mode=0x05 - Load ext scheduler with flag (OpCode 0x5B mode 0, flag 1), ref=3817*, entity1=EventEntity, entity2=EventEntity, string="pas1", extra=150*)
  1: 0x0465 [0x00] END_REQSTACK()
```

### Event 65535.75

#### Metadata

| Field        | Value    |
|--------------|----------|
| Entrypoint   | 0x0466   |
| Data Size    | 15 bytes |
| Instructions | 2        |

```
      00 01 02 03 04 05 06 07  08 09 0A 0B 0C 0D 0E 0F
      -- -- -- -- -- -- -- --  -- -- -- -- -- -- -- --
0460:                   5F 07  F8 FF FF 7F F8 FF FF 7F        _.........
0470: 70 61 73 31 00                                    pas1.           
```

#### Opcodes

```
  0: 0x0466 [0x5F] MULTI_HANDLER_COMPLEX(mode=0x07 - Wait scheduler task (OpCode 0x53))
  1: 0x0474 [0x00] END_REQSTACK()
```

### Event 65535.76

#### Metadata

| Field        | Value    |
|--------------|----------|
| Entrypoint   | 0x0475   |
| Data Size    | 16 bytes |
| Instructions | 2        |

```
      00 01 02 03 04 05 06 07  08 09 0A 0B 0C 0D 0E 0F
      -- -- -- -- -- -- -- --  -- -- -- -- -- -- -- --
0470:                5B 25 80  F8 FF FF 7F F8 FF FF 7F       [%.........
0480: 6F 6E 6F 30 00                                    ono0.           
```

#### Opcodes

```
  0: 0x0475 [0x5B] LOAD_EXT_SCHEDULER: Load scheduler "ono0" with entities [EventEntity, EventEntity], work=3489*
  1: 0x0484 [0x00] END_REQSTACK()
```

### Event 65535.77

#### Metadata

| Field        | Value    |
|--------------|----------|
| Entrypoint   | 0x0485   |
| Data Size    | 14 bytes |
| Instructions | 2        |

```
      00 01 02 03 04 05 06 07  08 09 0A 0B 0C 0D 0E 0F
      -- -- -- -- -- -- -- --  -- -- -- -- -- -- -- --
0480:                53 F8 FF  FF 7F F8 FF FF 7F 6F 6E       S........on
0490: 6F 30 00                                          o0.             
```

#### Opcodes

```
  0: 0x0485 [0x53] WAIT_SCHEDULER_TASK: Wait for scheduler "ono0" with entities [EventEntity, EventEntity]
  1: 0x0492 [0x00] END_REQSTACK()
```

### Event 65535.78

#### Metadata

| Field        | Value    |
|--------------|----------|
| Entrypoint   | 0x0493   |
| Data Size    | 19 bytes |
| Instructions | 2        |

```
      00 01 02 03 04 05 06 07  08 09 0A 0B 0C 0D 0E 0F
      -- -- -- -- -- -- -- --  -- -- -- -- -- -- -- --
0490:          5F 05 25 80 F8  FF FF 7F F8 FF FF 7F 6F     _.%.........o
04A0: 6E 6F 31 26 80 00                                 no1&..          
```

#### Opcodes

```
  0: 0x0493 [0x5F] MULTI_HANDLER_COMPLEX(mode=0x05 - Load ext scheduler with flag (OpCode 0x5B mode 0, flag 1), ref=3489*, entity1=EventEntity, entity2=EventEntity, string="ono1", extra=430*)
  1: 0x04A5 [0x00] END_REQSTACK()
```

### Event 65535.79

#### Metadata

| Field        | Value    |
|--------------|----------|
| Entrypoint   | 0x04A6   |
| Data Size    | 15 bytes |
| Instructions | 2        |

```
      00 01 02 03 04 05 06 07  08 09 0A 0B 0C 0D 0E 0F
      -- -- -- -- -- -- -- --  -- -- -- -- -- -- -- --
04A0:                   5F 07  F8 FF FF 7F F8 FF FF 7F        _.........
04B0: 6F 6E 6F 31 00                                    ono1.           
```

#### Opcodes

```
  0: 0x04A6 [0x5F] MULTI_HANDLER_COMPLEX(mode=0x07 - Wait scheduler task (OpCode 0x53))
  1: 0x04B4 [0x00] END_REQSTACK()
```

### Event 65535.80

#### Metadata

| Field        | Value    |
|--------------|----------|
| Entrypoint   | 0x04B5   |
| Data Size    | 19 bytes |
| Instructions | 2        |

```
      00 01 02 03 04 05 06 07  08 09 0A 0B 0C 0D 0E 0F
      -- -- -- -- -- -- -- --  -- -- -- -- -- -- -- --
04B0:                5F 05 27  80 F8 FF FF 7F F8 FF FF       _.'........
04C0: 7F 6F 6E 6F 32 28 80 00                           .ono2(..        
```

#### Opcodes

```
  0: 0x04B5 [0x5F] MULTI_HANDLER_COMPLEX(mode=0x05 - Load ext scheduler with flag (OpCode 0x5B mode 0, flag 1), ref=3510*, entity1=EventEntity, entity2=EventEntity, string="ono2", extra=390*)
  1: 0x04C7 [0x00] END_REQSTACK()
```

### Event 65535.81

#### Metadata

| Field        | Value    |
|--------------|----------|
| Entrypoint   | 0x04C8   |
| Data Size    | 15 bytes |
| Instructions | 2        |

```
      00 01 02 03 04 05 06 07  08 09 0A 0B 0C 0D 0E 0F
      -- -- -- -- -- -- -- --  -- -- -- -- -- -- -- --
04C0:                          5F 07 F8 FF FF 7F F8 FF          _.......
04D0: FF 7F 6F 6E 6F 32 00                              ..ono2.         
```

#### Opcodes

```
  0: 0x04C8 [0x5F] MULTI_HANDLER_COMPLEX(mode=0x07 - Wait scheduler task (OpCode 0x53))
  1: 0x04D6 [0x00] END_REQSTACK()
```

### Event 6

#### Metadata

| Field        | Value   |
|--------------|---------|
| Entrypoint   | 0x04D7  |
| Data Size    | 1 bytes |
| Instructions | 1       |

```
      00 01 02 03 04 05 06 07  08 09 0A 0B 0C 0D 0E 0F
      -- -- -- -- -- -- -- --  -- -- -- -- -- -- -- --
04D0:                      00                                  .        
```

#### Opcodes

```
  0: 0x04D7 [0x00] END_REQSTACK()
```

### Event 65535.82

#### Metadata

| Field        | Value    |
|--------------|----------|
| Entrypoint   | 0x04D8   |
| Data Size    | 14 bytes |
| Instructions | 4        |

```
      00 01 02 03 04 05 06 07  08 09 0A 0B 0C 0D 0E 0F
      -- -- -- -- -- -- -- --  -- -- -- -- -- -- -- --
04D0:                          32 0B 80 1F 00 29 80 2A          2....).*
04E0: 80 2B 80 1F 01 00                                 .+....          
```

#### Opcodes

```
  0: 0x04D8 [0x32] ExtData[1]->MainSpeed = 13* * 0.1
  1: 0x04DB [0x1F] MOVE_ENTITY: EventEntity moves to X=126.378*, Z=48.226*, Y=0.264*
  2: 0x04E3 [0x1F] MOVE_ENTITY: Update entity position (mode=1)
  3: 0x04E5 [0x00] END_REQSTACK()
```

### Event 65535.83

#### Metadata

| Field        | Value    |
|--------------|----------|
| Entrypoint   | 0x04E6   |
| Data Size    | 16 bytes |
| Instructions | 5        |

```
      00 01 02 03 04 05 06 07  08 09 0A 0B 0C 0D 0E 0F
      -- -- -- -- -- -- -- --  -- -- -- -- -- -- -- --
04E0:                   32 0B  80 1F 00 2C 80 2D 80 1D        2....,.-..
04F0: 80 1F 01 22 01 00                                 ..."..          
```

#### Opcodes

```
  0: 0x04E6 [0x32] ExtData[1]->MainSpeed = 13* * 0.1
  1: 0x04E9 [0x1F] MOVE_ENTITY: EventEntity moves to X=151.351*, Z=38.793*, Y=0.200*
  2: 0x04F1 [0x1F] MOVE_ENTITY: Update entity position (mode=1)
  3: 0x04F3 [0x22] ENTITY_HIDE_FLAG(enabled=0x01)
  4: 0x04F5 [0x00] END_REQSTACK()
```

### Event 65535.84

#### Metadata

| Field        | Value     |
|--------------|-----------|
| Entrypoint   | 0x04F6    |
| Data Size    | 105 bytes |
| Instructions | 13        |

```
      00 01 02 03 04 05 06 07  08 09 0A 0B 0C 0D 0E 0F
      -- -- -- -- -- -- -- --  -- -- -- -- -- -- -- --
04F0:                   32 2E  80 1F 00 2F 80 30 80 31        2..../.0.1
0500: 80 1F 01 1C 32 80 7C 00  F8 FF FF 7F 81 00 F8 FF  ....2.|.........
0510: FF 7F 5F 05 20 80 F8 FF  FF 7F F8 FF FF 7F 62 69  .._. .........bi
0520: 6B 30 1B 80 5F 07 F8 FF  FF 7F F8 FF FF 7F 62 69  k0.._.........bi
0530: 6B 30 5F 05 20 80 F8 FF  FF 7F F8 FF FF 7F 62 69  k0_. .........bi
0540: 6B 31 1B 80 5F 07 F8 FF  FF 7F F8 FF FF 7F 62 69  k1.._.........bi
0550: 6B 31 7C 01 F8 FF FF 7F  81 01 F8 FF FF 7F 00     k1|............ 
```

#### Opcodes

```
  0: 0x04F6 [0x32] ExtData[1]->MainSpeed = 40* * 0.1
  1: 0x04F9 [0x1F] MOVE_ENTITY: EventEntity moves to X=133.493*, Z=40.940*, Y=0.544*
  2: 0x0501 [0x1F] MOVE_ENTITY: Update entity position (mode=1)
  3: 0x0503 [0x1C] WAIT(20* ticks)
  4: 0x0506 [0x7C] EventEntity->Render.Flags2 |= 0x00
  5: 0x050C [0x81] SET_ENTITY_BLINKING(blink_flag=0x00, entity=EventEntity)
  6: 0x0512 [0x5F] MULTI_HANDLER_COMPLEX(mode=0x05 - Load ext scheduler with flag (OpCode 0x5B mode 0, flag 1), ref=3572*, entity1=EventEntity, entity2=EventEntity, string="bik0", extra=140*)
  7: 0x0524 [0x5F] MULTI_HANDLER_COMPLEX(mode=0x07 - Wait scheduler task (OpCode 0x53))
  8: 0x0532 [0x5F] MULTI_HANDLER_COMPLEX(mode=0x05 - Load ext scheduler with flag (OpCode 0x5B mode 0, flag 1), ref=3572*, entity1=EventEntity, entity2=EventEntity, string="bik1", extra=140*)
  9: 0x0544 [0x5F] MULTI_HANDLER_COMPLEX(mode=0x07 - Wait scheduler task (OpCode 0x53))
 10: 0x0552 [0x7C] EventEntity->Render.Flags2 |= 0x01
 11: 0x0558 [0x81] SET_ENTITY_BLINKING(blink_flag=0x01, entity=EventEntity)
 12: 0x055E [0x00] END_REQSTACK()
```

### Event 65535.85

#### Metadata

| Field        | Value    |
|--------------|----------|
| Entrypoint   | 0x055F   |
| Data Size    | 32 bytes |
| Instructions | 5        |

```
      00 01 02 03 04 05 06 07  08 09 0A 0B 0C 0D 0E 0F
      -- -- -- -- -- -- -- --  -- -- -- -- -- -- -- --
0550:                                               B6                 .
0560: 00 09 80 95 00 80 B4 00  00 00 4D 6F 72 69 6D 61  ..........Morima
0570: 72 00 00 00 00 00 00 00  00 00 B5 00 00 00 00     r.............. 
```

#### Opcodes

```
  0: 0x055F [0xB6] ENTITY_APPEARANCE_HANDLER(case=Hair style, value=2741*)
  1: 0x0563 [0x95] SETUP_EVENT_NPC: Prepare NPC for event (Render.Flags3 = 0*)
  2: 0x0566 [0xB4] UI_WINDOW_STRING_HANDLER(case=0x00 - Copy string from opcode, work_offset=ExtData[1]->WorkLocal[0], string="Morimar")
  3: 0x057A [0xB5] SET_EVENT_ENTITY_NAME: Change EventEntity name to ExtData[1]->WorkLocal[0]
  4: 0x057E [0x00] END_REQSTACK()
```

### Event 65535.86

#### Metadata

| Field        | Value    |
|--------------|----------|
| Entrypoint   | 0x057F   |
| Data Size    | 30 bytes |
| Instructions | 5        |

```
      00 01 02 03 04 05 06 07  08 09 0A 0B 0C 0D 0E 0F
      -- -- -- -- -- -- -- --  -- -- -- -- -- -- -- --
0570:                                               B6                 .
0580: 00 10 80 96 B4 00 00 00  00 00 00 00 00 00 00 00  ................
0590: 00 00 00 00 00 00 00 00  B5 00 00 00 00           .............   
```

#### Opcodes

```
  0: 0x057F [0xB6] ENTITY_APPEARANCE_HANDLER(case=Hair style, value=52*)
  1: 0x0583 [0x96] UNSET_EVENT_NPC: Restore NPC after event (removes event NPC status)
  2: 0x0584 [0xB4] UI_WINDOW_STRING_HANDLER(case=0x00 - Copy string from opcode, work_offset=ExtData[1]->WorkLocal[0], string="")
  3: 0x0598 [0xB5] SET_EVENT_ENTITY_NAME: Change EventEntity name to ExtData[1]->WorkLocal[0]
  4: 0x059C [0x00] END_REQSTACK()
```

### Event 7

#### Metadata

| Field        | Value   |
|--------------|---------|
| Entrypoint   | 0x059D  |
| Data Size    | 1 bytes |
| Instructions | 1       |

```
      00 01 02 03 04 05 06 07  08 09 0A 0B 0C 0D 0E 0F
      -- -- -- -- -- -- -- --  -- -- -- -- -- -- -- --
0590:                                         00                     .  
```

#### Opcodes

```
  0: 0x059D [0x00] END_REQSTACK()
```

### Event 65535.87

#### Metadata

| Field        | Value    |
|--------------|----------|
| Entrypoint   | 0x059E   |
| Data Size    | 29 bytes |
| Instructions | 4        |

```
      00 01 02 03 04 05 06 07  08 09 0A 0B 0C 0D 0E 0F
      -- -- -- -- -- -- -- --  -- -- -- -- -- -- -- --
0590:                                            B6 00                ..
05A0: 33 80 B4 13 00 00 48 65  61 64 6C 2E 40 54 6F 72  3.....Headl.@Tor
05B0: 74 75 72 65 72 00 B5 00  00 00 00                 turer......     
```

#### Opcodes

```
  0: 0x059E [0xB6] ENTITY_APPEARANCE_HANDLER(case=Hair style, value=2605*)
  1: 0x05A2 [0xB4] UI_WINDOW_STRING_HANDLER(case=0x13 - Copy string and replace @ with space, work_offset=ExtData[1]->WorkLocal[0], string="Headl.@Torturer")
  2: 0x05B6 [0xB5] SET_EVENT_ENTITY_NAME: Change EventEntity name to ExtData[1]->WorkLocal[0]
  3: 0x05BA [0x00] END_REQSTACK()
```

### Event 65535.88

#### Metadata

| Field        | Value   |
|--------------|---------|
| Entrypoint   | 0x05BB  |
| Data Size    | 7 bytes |
| Instructions | 3       |

```
      00 01 02 03 04 05 06 07  08 09 0A 0B 0C 0D 0E 0F
      -- -- -- -- -- -- -- --  -- -- -- -- -- -- -- --
05B0:                                   AB 03 AC 01 01             .....
05C0: 80 00                                             ..              
```

#### Opcodes

```
  0: 0x05BB [0xAB] EventEntity->Render.Flags0 ^= 0x20000 // Toggle bit 17
  1: 0x05BD [0xAC] EventEntity->StatusEvent = 1*
  2: 0x05C1 [0x00] END_REQSTACK()
```

### Event 65535.89

#### Metadata

| Field        | Value   |
|--------------|---------|
| Entrypoint   | 0x05C2  |
| Data Size    | 7 bytes |
| Instructions | 3       |

```
      00 01 02 03 04 05 06 07  08 09 0A 0B 0C 0D 0E 0F
      -- -- -- -- -- -- -- --  -- -- -- -- -- -- -- --
05C0:       AC 01 00 80 AB 04  00                         .......       
```

#### Opcodes

```
  0: 0x05C2 [0xAC] EventEntity->StatusEvent = 0*
  1: 0x05C6 [0xAB] EventEntity->Render.Flags0 |= 0x40000 // Set bit 18
  2: 0x05C8 [0x00] END_REQSTACK()
```

### Event 65535.90

#### Metadata

| Field        | Value    |
|--------------|----------|
| Entrypoint   | 0x05C9   |
| Data Size    | 10 bytes |
| Instructions | 2        |

```
      00 01 02 03 04 05 06 07  08 09 0A 0B 0C 0D 0E 0F
      -- -- -- -- -- -- -- --  -- -- -- -- -- -- -- --
05C0:                             6C 54 72 10 01 02 80           lTr....
05D0: 1D 80 00                                          ...             
```

#### Opcodes

```
  0: 0x05C9 [0x6C] FADE_ENTITY_COLOR(entity_id=Unnamed NPC (ID: 17855060/0x01107254), end_alpha=128*, fade_time=200*)
  1: 0x05D2 [0x00] END_REQSTACK()
```

### Event 65535.91

#### Metadata

| Field        | Value    |
|--------------|----------|
| Entrypoint   | 0x05D3   |
| Data Size    | 10 bytes |
| Instructions | 2        |

```
      00 01 02 03 04 05 06 07  08 09 0A 0B 0C 0D 0E 0F
      -- -- -- -- -- -- -- --  -- -- -- -- -- -- -- --
05D0:          6C 54 72 10 01  00 80 08 80 00              lTr.......   
```

#### Opcodes

```
  0: 0x05D3 [0x6C] FADE_ENTITY_COLOR(entity_id=Unnamed NPC (ID: 17855060/0x01107254), end_alpha=0*, fade_time=100*)
  1: 0x05DC [0x00] END_REQSTACK()
```

### Event 65535.92

#### Metadata

| Field        | Value    |
|--------------|----------|
| Entrypoint   | 0x05DD   |
| Data Size    | 10 bytes |
| Instructions | 2        |

```
      00 01 02 03 04 05 06 07  08 09 0A 0B 0C 0D 0E 0F
      -- -- -- -- -- -- -- --  -- -- -- -- -- -- -- --
05D0:                                         6C 54 72               lTr
05E0: 10 01 02 80 01 80 00                              .......         
```

#### Opcodes

```
  0: 0x05DD [0x6C] FADE_ENTITY_COLOR(entity_id=Unnamed NPC (ID: 17855060/0x01107254), end_alpha=128*, fade_time=1*)
  1: 0x05E6 [0x00] END_REQSTACK()
```

### Event 65535.93

#### Metadata

| Field        | Value    |
|--------------|----------|
| Entrypoint   | 0x05E7   |
| Data Size    | 10 bytes |
| Instructions | 2        |

```
      00 01 02 03 04 05 06 07  08 09 0A 0B 0C 0D 0E 0F
      -- -- -- -- -- -- -- --  -- -- -- -- -- -- -- --
05E0:                      6C  54 72 10 01 00 80 34 80         lTr....4.
05F0: 00                                                .               
```

#### Opcodes

```
  0: 0x05E7 [0x6C] FADE_ENTITY_COLOR(entity_id=Unnamed NPC (ID: 17855060/0x01107254), end_alpha=0*, fade_time=500*)
  1: 0x05F0 [0x00] END_REQSTACK()
```

### Event 65535.94

#### Metadata

| Field        | Value    |
|--------------|----------|
| Entrypoint   | 0x05F1   |
| Data Size    | 19 bytes |
| Instructions | 2        |

```
      00 01 02 03 04 05 06 07  08 09 0A 0B 0C 0D 0E 0F
      -- -- -- -- -- -- -- --  -- -- -- -- -- -- -- --
05F0:    5F 05 35 80 F8 FF FF  7F F8 FF FF 7F 68 69 72   _.5.........hir
0600: 30 1D 80 00                                       0...            
```

#### Opcodes

```
  0: 0x05F1 [0x5F] MULTI_HANDLER_COMPLEX(mode=0x05 - Load ext scheduler with flag (OpCode 0x5B mode 0, flag 1), ref=3850*, entity1=EventEntity, entity2=EventEntity, string="hir0", extra=200*)
  1: 0x0603 [0x00] END_REQSTACK()
```

### Event 65535.95

#### Metadata

| Field        | Value    |
|--------------|----------|
| Entrypoint   | 0x0604   |
| Data Size    | 15 bytes |
| Instructions | 2        |

```
      00 01 02 03 04 05 06 07  08 09 0A 0B 0C 0D 0E 0F
      -- -- -- -- -- -- -- --  -- -- -- -- -- -- -- --
0600:             5F 07 F8 FF  FF 7F F8 FF FF 7F 68 69      _.........hi
0610: 72 30 00                                          r0.             
```

#### Opcodes

```
  0: 0x0604 [0x5F] MULTI_HANDLER_COMPLEX(mode=0x07 - Wait scheduler task (OpCode 0x53))
  1: 0x0612 [0x00] END_REQSTACK()
```

### Event 8

#### Metadata

| Field        | Value   |
|--------------|---------|
| Entrypoint   | 0x0613  |
| Data Size    | 1 bytes |
| Instructions | 1       |

```
      00 01 02 03 04 05 06 07  08 09 0A 0B 0C 0D 0E 0F
      -- -- -- -- -- -- -- --  -- -- -- -- -- -- -- --
0610:          00                                          .            
```

#### Opcodes

```
  0: 0x0613 [0x00] END_REQSTACK()
```

### Event 129

#### Metadata

| Field        | Value   |
|--------------|---------|
| Entrypoint   | 0x0614  |
| Data Size    | 1 bytes |
| Instructions | 1       |

```
      00 01 02 03 04 05 06 07  08 09 0A 0B 0C 0D 0E 0F
      -- -- -- -- -- -- -- --  -- -- -- -- -- -- -- --
0610:             00                                        .           
```

#### Opcodes

```
  0: 0x0614 [0x00] END_REQSTACK()
```

### Event 65535.96

#### Metadata

| Field        | Value    |
|--------------|----------|
| Entrypoint   | 0x0615   |
| Data Size    | 82 bytes |
| Instructions | 19       |

```
      00 01 02 03 04 05 06 07  08 09 0A 0B 0C 0D 0E 0F
      -- -- -- -- -- -- -- --  -- -- -- -- -- -- -- --
0610:                03 01 00  01 80 03 01 17 01 80 03       ...........
0620: 02 17 00 80 02 01 00 00  80 01 66 06 02 02 17 01  ..........f.....
0630: 80 00 3A 06 1C 01 80 01  2C 06 03 01 17 01 80 03  ..:.....,.......
0640: 01 10 36 80 43 00 43 01  03 01 17 00 80 02 09 10  ..6.C.C.........
0650: 0A 80 00 60 06 03 01 00  00 80 B4 06 00 01 63 06  ...`..........c.
0660: 1C 37 80 01 24 06 00                              .7..$..         
```

#### Opcodes

```
  0: 0x0615 [0x03] ExtData[1]->WorkLocal[1] = 1*
  1: 0x061A [0x03] Work_Zone_1700[1] = 1*
  2: 0x061F [0x03] Work_Zone_1700[2] = 0*
  3: 0x0624 [0x02] IF !(ExtData[1]->WorkLocal[1] == 0*) GOTO 0x0666
  4: 0x062C [0x02] IF !(Work_Zone_1700[2] == 1*) GOTO 0x063A
  5: 0x0634 [0x1C] WAIT(1* ticks)
  6: 0x0637 [0x01] GOTO 0x062C
  7: 0x063A [0x03] Work_Zone_1700[1] = 1*
  8: 0x063F [0x03] Work_Zone[1] = 4*
  9: 0x0644 [0x43] SEND_EVENT_UPDATE: Send pending tag to server (packet 0x005B)
 10: 0x0646 [0x43] SEND_EVENT_UPDATE: Check pending flag (skip if not pending)
 11: 0x0648 [0x03] Work_Zone_1700[1] = 0*
 12: 0x064D [0x02] IF !(Work_Zone[9] == 2*) GOTO 0x0660
 13: 0x0655 [0x03] ExtData[1]->WorkLocal[1] = 0*
 14: 0x065A [0xB4] UI_WINDOW_STRING_HANDLER(case=0x06 - Toggle query message flag, flag_value=0x00)
 15: 0x065D [0x01] GOTO 0x0663
 16: 0x0660 [0x1C] WAIT(5* ticks)

SUBROUTINE_0663:
 17: 0x0663 [0x01] GOTO 0x0624
 18: 0x0666 [0x00] END_REQSTACK()
```

### Event 130

#### Metadata

| Field        | Value   |
|--------------|---------|
| Entrypoint   | 0x0667  |
| Data Size    | 5 bytes |
| Instructions | 2       |

```
      00 01 02 03 04 05 06 07  08 09 0A 0B 0C 0D 0E 0F
      -- -- -- -- -- -- -- --  -- -- -- -- -- -- -- --
0660:                      B6  00 38 80 00                     ..8..    
```

#### Opcodes

```
  0: 0x0667 [0xB6] ENTITY_APPEARANCE_HANDLER(case=Hair style, value=2737*)
  1: 0x066B [0x00] END_REQSTACK()
```

### Event 131

#### Metadata

| Field        | Value   |
|--------------|---------|
| Entrypoint   | 0x066C  |
| Data Size    | 5 bytes |
| Instructions | 2       |

```
      00 01 02 03 04 05 06 07  08 09 0A 0B 0C 0D 0E 0F
      -- -- -- -- -- -- -- --  -- -- -- -- -- -- -- --
0660:                                      B6 00 38 80              ..8.
0670: 00                                                .               
```

#### Opcodes

```
  0: 0x066C [0xB6] ENTITY_APPEARANCE_HANDLER(case=Hair style, value=2737*)
  1: 0x0670 [0x00] END_REQSTACK()
```
