# 17855095

## Common Data

| Field            | Value                  |
|------------------|------------------------|
| Zone             | Yorcia Weald (ID: 263) |
| Block Size       | 280 bytes              |
| Total Events     | 7                      |
| References Count | 21                     |

## List of Events

| Event ID                 | Entrypoint   |   Size |   Instructions |
|--------------------------|--------------|--------|----------------|
| [65535](#event-65535)    | 0x0000       |      1 |              1 |
| [121](#event-121)        | 0x0001       |     45 |              4 |
| [65535.1](#event-655351) | 0x002E       |     19 |              5 |
| [65535.2](#event-655352) | 0x0041       |      7 |              3 |
| [65535.3](#event-655353) | 0x0048       |      7 |              3 |
| [65535.4](#event-655354) | 0x004F       |     29 |              7 |
| [65535.5](#event-655355) | 0x006C       |     43 |              8 |

## DAT References (imed_data)

|   Index | Hex Value   |   Dec Value |
|---------|-------------|-------------|
|       0 | 0x0001      |           1 |
|       1 | 0x0002      |           2 |
|       2 | 0x0156      |         342 |
|       3 | 0x0275      |         629 |
|       4 | 0x0287      |         647 |
|       5 | 0x0028      |          40 |
|       6 | 0x38A12     |      231954 |
|       7 | 0xFFFE74D2  |  4294866130 |
|       8 | 0x04A1      |        1185 |
|       9 | 0x0000      |           0 |
|      10 | 0x370B0     |      225456 |
|      11 | 0xFFFE8987  |  4294871431 |
|      12 | 0x0A6F      |        2671 |
|      13 | 0x377AC     |      227244 |
|      14 | 0xFFFEB6AE  |  4294882990 |
|      15 | 0x03BF      |         959 |
|      16 | 0x37B9A     |      228250 |
|      17 | 0xFFFEE3AA  |  4294894506 |
|      18 | 0x00FA      |         250 |
|      19 | 0x0003      |           3 |
|      20 | 0x003C      |          60 |

## Events

### Event 65535

#### Metadata

| Field        | Value   |
|--------------|---------|
| Entrypoint   | 0x0000  |
| Data Size    | 1 bytes |
| Instructions | 1       |

```
      00 01 02 03 04 05 06 07  08 09 0A 0B 0C 0D 0E 0F
      -- -- -- -- -- -- -- --  -- -- -- -- -- -- -- --
0000: 00                                                .               
```

#### Opcodes

```
  0: 0x0000 [0x00] END_REQSTACK()
```

### Event 121

#### Metadata

| Field        | Value    |
|--------------|----------|
| Entrypoint   | 0x0001   |
| Data Size    | 45 bytes |
| Instructions | 4        |

```
      00 01 02 03 04 05 06 07  08 09 0A 0B 0C 0D 0E 0F
      -- -- -- -- -- -- -- --  -- -- -- -- -- -- -- --
0000:    B6 0B 00 80 01 80 02  80 02 80 02 80 02 80 02   ...............
0010: 80 03 80 04 80 B4 00 00  00 43 69 72 64 61 73 00  .........Cirdas.
0020: 00 00 00 00 00 00 00 00  00 B5 00 00 00 00        ..............  
```

#### Opcodes

```
  0: 0x0001 [0xB6] ENTITY_APPEARANCE_HANDLER(case=Full entity look, race=1*, hair=2*, head=342*, body=342*, hands=342*, legs=342*, feet=342*, main=629*, sub=647*)
  1: 0x0015 [0xB4] UI_WINDOW_STRING_HANDLER(case=0x00 - Copy string from opcode, work_offset=ExtData[1]->WorkLocal[0], string="Cirdas")
  2: 0x0029 [0xB5] SET_EVENT_ENTITY_NAME: Change EventEntity name to ExtData[1]->WorkLocal[0]
  3: 0x002D [0x00] END_REQSTACK()
```

### Event 65535.1

#### Metadata

| Field        | Value    |
|--------------|----------|
| Entrypoint   | 0x002E   |
| Data Size    | 19 bytes |
| Instructions | 5        |

```
      00 01 02 03 04 05 06 07  08 09 0A 0B 0C 0D 0E 0F
      -- -- -- -- -- -- -- --  -- -- -- -- -- -- -- --
0020:                                            32 05                2.
0030: 80 1F 00 06 80 07 80 08  80 1F 01 1E 76 72 10 01  ............vr..
0040: 00                                                .               
```

#### Opcodes

```
  0: 0x002E [0x32] ExtData[1]->MainSpeed = 40* * 0.1
  1: 0x0031 [0x1F] MOVE_ENTITY: EventEntity moves to X=231.954*, Z=-101.166*, Y=1.185*
  2: 0x0039 [0x1F] MOVE_ENTITY: Update entity position (mode=1)
  3: 0x003B [0x1E] EventEntity looks at Unnamed NPC (ID: 17855094/0x01107276) and starts talking
  4: 0x0040 [0x00] END_REQSTACK()
```

### Event 65535.2

#### Metadata

| Field        | Value   |
|--------------|---------|
| Entrypoint   | 0x0041  |
| Data Size    | 7 bytes |
| Instructions | 3       |

```
      00 01 02 03 04 05 06 07  08 09 0A 0B 0C 0D 0E 0F
      -- -- -- -- -- -- -- --  -- -- -- -- -- -- -- --
0040:    AB 03 AC 01 00 80 00                            .......        
```

#### Opcodes

```
  0: 0x0041 [0xAB] EventEntity->Render.Flags0 ^= 0x20000 // Toggle bit 17
  1: 0x0043 [0xAC] EventEntity->StatusEvent = 1*
  2: 0x0047 [0x00] END_REQSTACK()
```

### Event 65535.3

#### Metadata

| Field        | Value   |
|--------------|---------|
| Entrypoint   | 0x0048  |
| Data Size    | 7 bytes |
| Instructions | 3       |

```
      00 01 02 03 04 05 06 07  08 09 0A 0B 0C 0D 0E 0F
      -- -- -- -- -- -- -- --  -- -- -- -- -- -- -- --
0040:                          AC 01 09 80 AB 04 00             ....... 
```

#### Opcodes

```
  0: 0x0048 [0xAC] EventEntity->StatusEvent = 0*
  1: 0x004C [0xAB] EventEntity->Render.Flags0 |= 0x40000 // Set bit 18
  2: 0x004E [0x00] END_REQSTACK()
```

### Event 65535.4

#### Metadata

| Field        | Value    |
|--------------|----------|
| Entrypoint   | 0x004F   |
| Data Size    | 29 bytes |
| Instructions | 7        |

```
      00 01 02 03 04 05 06 07  08 09 0A 0B 0C 0D 0E 0F
      -- -- -- -- -- -- -- --  -- -- -- -- -- -- -- --
0040:                                               32                 2
0050: 05 80 1F 00 0A 80 0B 80  0C 80 1F 01 1F 00 0D 80  ................
0060: 0E 80 0F 80 1F 01 1E 79  72 10 01 00              .......yr...    
```

#### Opcodes

```
  0: 0x004F [0x32] ExtData[1]->MainSpeed = 40* * 0.1
  1: 0x0052 [0x1F] MOVE_ENTITY: EventEntity moves to X=225.456*, Z=-95.865*, Y=2.671*
  2: 0x005A [0x1F] MOVE_ENTITY: Update entity position (mode=1)
  3: 0x005C [0x1F] MOVE_ENTITY: EventEntity moves to X=227.244*, Z=-84.306*, Y=0.959*
  4: 0x0064 [0x1F] MOVE_ENTITY: Update entity position (mode=1)
  5: 0x0066 [0x1E] EventEntity looks at Unnamed NPC (ID: 17855097/0x01107279) and starts talking
  6: 0x006B [0x00] END_REQSTACK()
```

### Event 65535.5

#### Metadata

| Field        | Value    |
|--------------|----------|
| Entrypoint   | 0x006C   |
| Data Size    | 43 bytes |
| Instructions | 8        |

```
      00 01 02 03 04 05 06 07  08 09 0A 0B 0C 0D 0E 0F
      -- -- -- -- -- -- -- --  -- -- -- -- -- -- -- --
0060:                                      32 05 80 1F              2...
0070: 00 10 80 11 80 12 80 1F  01 1E 79 72 10 01 AD 02  ..........yr....
0080: 13 80 F8 FF FF 7F 79 72  10 01 1C 14 80 4A 79 72  ......yr.....Jyr
0090: 10 01 F8 FF FF 7F 00                              .......         
```

#### Opcodes

```
  0: 0x006C [0x32] ExtData[1]->MainSpeed = 40* * 0.1
  1: 0x006F [0x1F] MOVE_ENTITY: EventEntity moves to X=228.250*, Z=-72.790*, Y=0.250*
  2: 0x0077 [0x1F] MOVE_ENTITY: Update entity position (mode=1)
  3: 0x0079 [0x1E] EventEntity looks at Unnamed NPC (ID: 17855097/0x01107279) and starts talking
  4: 0x007E [0xAD] DUAL_ENTITY_SCHEDULER_HANDLER: Execute sub-case 2 with entities [EventEntity, Unnamed NPC (ID: 17855097/0x01107279)], work=3*
  5: 0x008A [0x1C] WAIT(60* ticks)
  6: 0x008D [0x4A] Unnamed NPC (ID: 17855097/0x01107279) looks at EventEntity
  7: 0x0096 [0x00] END_REQSTACK()
```
