# 17855075

## Common Data

| Field            | Value                  |
|------------------|------------------------|
| Zone             | Yorcia Weald (ID: 263) |
| Block Size       | 5748 bytes             |
| Total Events     | 2                      |
| References Count | 134                    |

## List of Events

| Event ID              | Entrypoint   |   Size |   Instructions |
|-----------------------|--------------|--------|----------------|
| [65535](#event-65535) | 0x0000       |      1 |              1 |
| [105](#event-105)     | 0x0001       |   5187 |            670 |

## DAT References (imed_data)

|   Index | Hex Value   |   Dec Value |
|---------|-------------|-------------|
|       0 | 0x00C8      |         200 |
|       1 | 0x0000      |           0 |
|       2 | 0x0013      |          19 |
|       3 | 0x29180     |      168320 |
|       4 | 0x2707B     |      159867 |
|       5 | 0xFFFFF830  |  4294965296 |
|       6 | 0x29040     |      168000 |
|       7 | 0x26692     |      157330 |
|       8 | 0xFFFFFF04  |  4294967044 |
|       9 | 0x03FF      |        1023 |
|      10 | 0x0002      |           2 |
|      11 | 0x0001      |           1 |
|      12 | 0xFFFFFEFC  |  4294967036 |
|      13 | 0x2B7DB     |      178139 |
|      14 | 0x2CF2D     |      184109 |
|      15 | 0xFFFFD184  |  4294955396 |
|      16 | 0x04EB      |        1259 |
|      17 | 0x24FCC     |      151500 |
|      18 | 0x25D78     |      155000 |
|      19 | 0x0086      |         134 |
|      20 | 0xFFFFFF01  |  4294967041 |
|      21 | 0x0009      |           9 |
|      22 | 0x001E      |          30 |
|      23 | 0x027C      |         636 |
|      24 | 0x021C      |         540 |
|      25 | 0x209C      |        8348 |
|      26 | 0x209D      |        8349 |
|      27 | 0x209E      |        8350 |
|      28 | 0x29586     |      169350 |
|      29 | 0x28C58     |      167000 |
|      30 | 0x0048      |          72 |
|      31 | 0x04FF      |        1279 |
|      32 | 0x00D2      |         210 |
|      33 | 0x209F      |        8351 |
|      34 | 0x005A      |          90 |
|      35 | 0x0015      |          21 |
|      36 | 0x20A0      |        8352 |
|      37 | 0x20A1      |        8353 |
|      38 | 0x0096      |         150 |
|      39 | 0x20A2      |        8354 |
|      40 | 0x20A3      |        8355 |
|      41 | 0x0095      |         149 |
|      42 | 0x20A4      |        8356 |
|      43 | 0x003C      |          60 |
|      44 | 0x20A5      |        8357 |
|      45 | 0x20A6      |        8358 |
|      46 | 0x20A7      |        8359 |
|      47 | 0x0078      |         120 |
|      48 | 0x20A8      |        8360 |
|      49 | 0x20A9      |        8361 |
|      50 | 0x20AA      |        8362 |
|      51 | 0x20AB      |        8363 |
|      52 | 0x00FA      |         250 |
|      53 | 0x20AC      |        8364 |
|      54 | 0x293B3     |      168883 |
|      55 | 0x28020     |      163872 |
|      56 | 0xFFFFFFCA  |  4294967242 |
|      57 | 0x20AD      |        8365 |
|      58 | 0x20AE      |        8366 |
|      59 | 0x20AF      |        8367 |
|      60 | 0x20B0      |        8368 |
|      61 | 0x20B1      |        8369 |
|      62 | 0x20B6      |        8374 |
|      63 | 0x20B7      |        8375 |
|      64 | 0x20B8      |        8376 |
|      65 | 0x20B9      |        8377 |
|      66 | 0x00B4      |         180 |
|      67 | 0x20BA      |        8378 |
|      68 | 0x20BB      |        8379 |
|      69 | 0x20BC      |        8380 |
|      70 | 0x20BD      |        8381 |
|      71 | 0x20BE      |        8382 |
|      72 | 0x20BF      |        8383 |
|      73 | 0x28E4C     |      167500 |
|      74 | 0x25B84     |      154500 |
|      75 | 0xFFFFFF9C  |  4294967196 |
|      76 | 0x004B      |          75 |
|      77 | 0x20C0      |        8384 |
|      78 | 0x28F9F     |      167839 |
|      79 | 0x28293     |      164499 |
|      80 | 0xFFFFFFDA  |  4294967258 |
|      81 | 0x20C1      |        8385 |
|      82 | 0x20C2      |        8386 |
|      83 | 0x20C3      |        8387 |
|      84 | 0x20C4      |        8388 |
|      85 | 0x004E      |          78 |
|      86 | 0x20C5      |        8389 |
|      87 | 0x20C6      |        8390 |
|      88 | 0x20C7      |        8391 |
|      89 | 0x20C8      |        8392 |
|      90 | 0x0CB2      |        3250 |
|      91 | 0x20C9      |        8393 |
|      92 | 0x20CA      |        8394 |
|      93 | 0x0CB7      |        3255 |
|      94 | 0x28DB0     |      167344 |
|      95 | 0x26EEA     |      159466 |
|      96 | 0xFFFFFF2F  |  4294967087 |
|      97 | 0x0003      |           3 |
|      98 | 0x000A      |          10 |
|      99 | 0x20CB      |        8395 |
|     100 | 0x20CC      |        8396 |
|     101 | 0x20CD      |        8397 |
|     102 | 0x20CE      |        8398 |
|     103 | 0x20CF      |        8399 |
|     104 | 0x20D0      |        8400 |
|     105 | 0x20D1      |        8401 |
|     106 | 0x20D2      |        8402 |
|     107 | 0x20D3      |        8403 |
|     108 | 0x2E56F     |      189807 |
|     109 | 0x3F8FD     |      260349 |
|     110 | 0xFFFFFFAA  |  4294967210 |
|     111 | 0x07FF      |        2047 |
|     112 | 0x29031     |      167985 |
|     113 | 0x26133     |      155955 |
|     114 | 0xFFFFFF0A  |  4294967050 |
|     115 | 0xFFFFFD01  |  4294966529 |
|     116 | 0x0445      |        1093 |
|     117 | 0x03A3      |         931 |
|     118 | 0x20D4      |        8404 |
|     119 | 0x20D5      |        8405 |
|     120 | 0x20D6      |        8406 |
|     121 | 0x20D7      |        8407 |
|     122 | 0x20D8      |        8408 |
|     123 | 0x0512      |        1298 |
|     124 | 0x20D9      |        8409 |
|     125 | 0x20DA      |        8410 |
|     126 | 0x20DB      |        8411 |
|     127 | 0x002D      |          45 |
|     128 | 0x20DC      |        8412 |
|     129 | 0x20B2      |        8370 |
|     130 | 0x20B3      |        8371 |
|     131 | 0x20B4      |        8372 |
|     132 | 0x0014      |          20 |
|     133 | 0x20B5      |        8373 |

## String References

- **8351**: How do you address him? [Midras./Junior.]
- **8377**: Help out Midras? [Let's rock./Act as cold as a stone.]
- **8385**: The leafkin snatched away Midras's samples!
- **8389**: (Omega, we are waiting for your report.)
- **8396**: (Omega, is everything okay?)
- **8399**: (...You are not Omega.)
- **8400**: The linkpearl shatters into grains of dust.

## Events

### Event 65535

#### Metadata

| Field        | Value   |
|--------------|---------|
| Entrypoint   | 0x0000  |
| Data Size    | 1 bytes |
| Instructions | 1       |

```
      00 01 02 03 04 05 06 07  08 09 0A 0B 0C 0D 0E 0F
      -- -- -- -- -- -- -- --  -- -- -- -- -- -- -- --
0000: 00                                                .               
```

#### Opcodes

```
  0: 0x0000 [0x00] END_REQSTACK()
```

### Event 105

#### Metadata

| Field        | Value      |
|--------------|------------|
| Entrypoint   | 0x0001     |
| Data Size    | 5187 bytes |
| Instructions | 660        |

```
      00 01 02 03 04 05 06 07  08 09 0A 0B 0C 0D 0E 0F
      -- -- -- -- -- -- -- --  -- -- -- -- -- -- -- --
0000:    42 03 01 00 02 10 45  00 80 F0 FF FF 7F F0 FF   B.....E........
0010: FF 7F 66 64 6F 31 01 80  55 00 80 F0 FF FF 7F F0  ..fdo1..U.......
0020: FF FF 7F 66 64 6F 31 46  01 38 02 80 33 01 36 03  ...fdo1F.8..3.6.
0030: 80 04 80 05 80 2F 00 64  72 10 01 4E 00 64 72 10  ...../.dr..N.dr.
0040: 01 2F 00 67 72 10 01 4E  00 67 72 10 01 94 01 64  ./.gr..N.gr....d
0050: 72 10 01 94 01 F0 FF FF  7F BA 64 72 10 01 06 80  r.........dr....
0060: 07 80 08 80 09 80 3F 00  00 01 00 0A 80 02 00 00  ......?.........
0070: 0B 80 00 9D 00 BA F0 FF  FF 7F 03 80 04 80 0C 80  ................
0080: 09 80 4A F0 FF FF 7F 64  72 10 01 4A 64 72 10 01  ..J....dr..Jdr..
0090: F0 FF FF 7F 6F 76 64 72  10 01 01 B0 00 BA F0 FF  ....ovdr........
00A0: FF 7F 01 80 01 80 01 80  01 80 4E 01 F0 FF FF 7F  ..........N.....
00B0: 02 01 00 0A 80 04 08 01  2F 00 65 72 10 01 2F 00  ......../.er../.
00C0: 66 72 10 01 94 01 65 72  10 01 94 01 66 72 10 01  fr....er....fr..
00D0: BA 65 72 10 01 0D 80 0E  80 0F 80 10 80 BA 66 72  .er...........fr
00E0: 10 01 11 80 12 80 13 80  14 80 66 15 80 66 72 10  ..........f..fr.
00F0: 01 66 72 10 01 73 69 72  30 66 15 80 66 72 10 01  .fr..sir0f..fr..
0100: 66 72 10 01 73 69 72 31  80 64 72 10 01 80 F0 FF  fr..sir1.dr.....
0110: FF 7F 1C 16 80 3F 00 00  01 00 0A 80 02 00 00 01  .....?..........
0120: 80 00 A6 12 66 15 80 64  72 10 01 64 72 10 01 73  ....f..dr..dr..s
0130: 69 72 30 45 00 80 F0 FF  FF 7F F0 FF FF 7F 66 64  ir0E..........fd
0140: 69 31 01 80 45 17 80 F8  FF FF 7F F8 FF FF 7F 73  i1..E..........s
0150: 32 33 30 01 80 1C 18 80  2B 64 72 10 01 19 80 23  230.....+dr....#
0160: 66 15 80 64 72 10 01 64  72 10 01 73 69 72 31 55  f..dr..dr..sir1U
0170: 17 80 F8 FF FF 7F F8 FF  FF 7F 73 32 33 30 45 17  ..........s230E.
0180: 80 F8 FF FF 7F F8 FF FF  7F 73 32 33 31 01 80 2B  .........s231..+
0190: 64 72 10 01 1A 80 23 55  17 80 F8 FF FF 7F F8 FF  dr....#U........
01A0: FF 7F 73 32 33 31 45 17  80 F8 FF FF 7F F8 FF FF  ..s231E.........
01B0: 7F 73 32 33 32 01 80 81  00 64 72 10 01 66 15 80  .s232....dr..f..
01C0: 64 72 10 01 64 72 10 01  73 68 61 31 2B 64 72 10  dr..dr..sha1+dr.
01D0: 01 1B 80 23 55 17 80 F8  FF FF 7F F8 FF FF 7F 73  ...#U..........s
01E0: 32 33 32 81 01 64 72 10  01 45 17 80 F8 FF FF 7F  232..dr..E......
01F0: F8 FF FF 7F 73 32 33 33  01 80 BA F0 FF FF 7F 1C  ....s233........
0200: 80 1D 80 1E 80 1F 80 4A  F0 FF FF 7F 64 72 10 01  .......J....dr..
0210: 4E 00 F0 FF FF 7F 27 10  F0 FF FF 7F 22 1C 20 80  N.....'.....". .
0220: 52 17 80 F8 FF FF 7F F8  FF FF 7F 73 32 33 33 45  R..........s233E
0230: 17 80 F8 FF FF 7F F8 FF  FF 7F 73 32 33 34 01 80  ..........s234..
0240: 2A 10 F0 FF FF 7F 24 21  80 01 80 01 80 25 02 00  *.....$!.....%..
0250: 10 01 80 00 C4 02 29 10  F0 FF FF 7F 02 03 03 10  ......).........
0260: 22 80 27 10 F0 FF FF 7F  20 2A 10 F0 FF FF 7F 6E  ".'..... *.....n
0270: 64 72 10 01 23 80 99 64  72 10 01 1C 22 80 4A 64  dr..#..dr...".Jd
0280: 72 10 01 F0 FF FF 7F 6F  76 64 72 10 01 1C 16 80  r......ovdr.....
0290: 03 00 17 22 80 27 10 64  72 10 01 03 2B 64 72 10  ...".'.dr...+dr.
02A0: 01 24 80 23 2B 64 72 10  01 25 80 23 2A 10 64 72  .$.#+dr..%.#*.dr
02B0: 10 01 66 15 80 64 72 10  01 64 72 10 01 74 6C 6B  ..f..dr..dr..tlk
02C0: 31 01 37 03 02 00 10 0B  80 00 37 03 29 10 F0 FF  1.7.......7.)...
02D0: FF 7F 02 03 03 10 22 80  27 10 F0 FF FF 7F 20 2A  ......".'..... *
02E0: 10 F0 FF FF 7F 4A 64 72  10 01 F0 FF FF 7F 1C 16  .....Jdr........
02F0: 80 03 00 17 26 80 27 10  64 72 10 01 0D 2B 64 72  ....&.'.dr...+dr
0300: 10 01 27 80 23 2A 10 64  72 10 01 03 00 17 22 80  ..'.#*.dr.....".
0310: 27 10 64 72 10 01 04 2B  64 72 10 01 28 80 23 2A  '.dr...+dr..(.#*
0320: 10 64 72 10 01 66 29 80  64 72 10 01 64 72 10 01  .dr..f).dr..dr..
0330: 74 6C 6B 31 01 37 03 1C  16 80 79 00 64 72 10 01  tlk1.7....y.dr..
0340: F8 FF FF 7F 52 17 80 F8  FF FF 7F F8 FF FF 7F 73  ....R..........s
0350: 32 33 34 45 17 80 F8 FF  FF 7F F8 FF FF 7F 73 32  234E..........s2
0360: 33 35 01 80 81 00 64 72  10 01 2B 64 72 10 01 2A  35....dr..+dr..*
0370: 80 23 1C 2B 80 79 00 64  72 10 01 F0 FF FF 7F 81  .#.+.y.dr.......
0380: 01 64 72 10 01 52 17 80  F8 FF FF 7F F8 FF FF 7F  .dr..R..........
0390: 73 32 33 35 45 17 80 F8  FF FF 7F F8 FF FF 7F 73  s235E..........s
03A0: 32 33 36 01 80 1C 16 80  03 00 17 26 80 27 10 64  236........&.'.d
03B0: 72 10 01 11 2B 64 72 10  01 2C 80 23 2A 10 64 72  r...+dr..,.#*.dr
03C0: 10 01 03 00 17 2B 80 27  10 64 72 10 01 04 2B 64  .....+.'.dr...+d
03D0: 72 10 01 2D 80 23 2B 64  72 10 01 2E 80 23 2A 10  r..-.#+dr....#*.
03E0: 64 72 10 01 66 29 80 64  72 10 01 64 72 10 01 74  dr..f).dr..dr..t
03F0: 6C 6B 31 52 17 80 F8 FF  FF 7F F8 FF FF 7F 73 32  lk1R..........s2
0400: 33 36 45 17 80 F8 FF FF  7F F8 FF FF 7F 73 32 33  36E..........s23
0410: 37 01 80 1C 2F 80 2B 64  72 10 01 30 80 23 2B 64  7.../.+dr..0.#+d
0420: 72 10 01 31 80 23 52 17  80 F8 FF FF 7F F8 FF FF  r..1.#R.........
0430: 7F 73 32 33 37 45 17 80  F8 FF FF 7F F8 FF FF 7F  .s237E..........
0440: 73 32 33 38 01 80 1C 16  80 81 00 64 72 10 01 03  s238.......dr...
0450: 00 17 2F 80 27 10 64 72  10 01 17 2B 64 72 10 01  ../.'.dr...+dr..
0460: 32 80 23 2A 10 64 72 10  01 81 01 64 72 10 01 66  2.#*.dr....dr..f
0470: 29 80 64 72 10 01 64 72  10 01 74 68 6B 31 1C 22  ).dr..dr..thk1."
0480: 80 03 00 17 26 80 27 10  64 72 10 01 12 2B 64 72  ....&.'.dr...+dr
0490: 10 01 33 80 23 2A 10 64  72 10 01 27 10 F0 FF FF  ..3.#*.dr..'....
04A0: 7F 23 1C 2B 80 52 17 80  F8 FF FF 7F F8 FF FF 7F  .#.+.R..........
04B0: 73 32 33 38 45 17 80 F8  FF FF 7F F8 FF FF 7F 73  s238E..........s
04C0: 32 33 39 01 80 1C 16 80  9F 34 80 64 72 10 01 64  239......4.dr..d
04D0: 72 10 01 6D 61 69 6E 01  80 03 00 17 2F 80 27 10  r..main...../.'.
04E0: 64 72 10 01 13 2B 64 72  10 01 35 80 23 2A 10 64  dr...+dr..5.#*.d
04F0: 72 10 01 7A 00 F0 FF FF  7F 4A F0 FF FF 7F 64 72  r..z.....J....dr
0500: 10 01 6F 76 F0 FF FF 7F  1C 16 80 79 00 64 72 10  ..ov.......y.dr.
0510: 01 F8 FF FF 7F 52 17 80  F8 FF FF 7F F8 FF FF 7F  .....R..........
0520: 73 32 33 39 45 17 80 F8  FF FF 7F F8 FF FF 7F 73  s239E..........s
0530: 32 34 30 01 80 BA F0 FF  FF 7F 36 80 37 80 38 80  240.......6.7.8.
0540: 1F 80 81 00 64 72 10 01  03 00 17 2B 80 27 10 64  ....dr.....+.'.d
0550: 72 10 01 03 2B 64 72 10  01 39 80 23 2A 10 64 72  r...+dr..9.#*.dr
0560: 10 01 79 00 64 72 10 01  F0 FF FF 7F 81 01 64 72  ..y.dr........dr
0570: 10 01 52 17 80 F8 FF FF  7F F8 FF FF 7F 73 32 34  ..R..........s24
0580: 30 45 17 80 F8 FF FF 7F  F8 FF FF 7F 73 32 34 31  0E..........s241
0590: 01 80 02 01 00 01 80 00  98 06 66 15 80 64 72 10  ..........f..dr.
05A0: 01 64 72 10 01 74 6C 6B  31 29 10 F0 FF FF 7F 22  .dr..tlk1)....."
05B0: 03 00 17 2B 80 27 10 64  72 10 01 04 2B 64 72 10  ...+.'.dr...+dr.
05C0: 01 3A 80 23 2A 10 64 72  10 01 66 29 80 64 72 10  .:.#*.dr..f).dr.
05D0: 01 64 72 10 01 74 6C 6B  31 1C 2B 80 03 00 17 2B  .dr..tlk1.+....+
05E0: 80 27 10 64 72 10 01 14  2B 64 72 10 01 3B 80 23  .'.dr...+dr..;.#
05F0: 2A 10 64 72 10 01 79 00  64 72 10 01 F8 FF FF 7F  *.dr..y.dr......
0600: 52 17 80 F8 FF FF 7F F8  FF FF 7F 73 32 34 31 45  R..........s241E
0610: 17 80 F8 FF FF 7F F8 FF  FF 7F 73 32 34 32 01 80  ..........s242..
0620: 81 00 64 72 10 01 03 00  17 2B 80 27 10 64 72 10  ..dr.....+.'.dr.
0630: 01 03 2B 64 72 10 01 3C  80 23 2B 64 72 10 01 3D  ..+dr..<.#+dr..=
0640: 80 23 2A 10 64 72 10 01  81 01 64 72 10 01 45 00  .#*.dr....dr..E.
0650: 80 F0 FF FF 7F F0 FF FF  7F 66 64 6F 31 01 80 55  .........fdo1..U
0660: 00 80 F0 FF FF 7F F0 FF  FF 7F 66 64 6F 31 52 17  ..........fdo1R.
0670: 80 F8 FF FF 7F F8 FF FF  7F 73 32 34 32 46 00 45  .........s242F.E
0680: 00 80 F0 FF FF 7F F0 FF  FF 7F 66 64 69 32 01 80  ..........fdi2..
0690: 06 01 10 21 00 01 A6 12  02 01 00 0A 80 00 A6 12  ...!............
06A0: 66 15 80 64 72 10 01 64  72 10 01 74 6C 6B 31 29  f..dr..dr..tlk1)
06B0: 10 F0 FF FF 7F 22 03 00  17 2B 80 27 10 64 72 10  ....."...+.'.dr.
06C0: 01 03 2B 64 72 10 01 3E  80 23 2A 10 64 72 10 01  ..+dr..>.#*.dr..
06D0: 03 00 17 2F 80 27 10 64  72 10 01 04 2B 64 72 10  .../.'.dr...+dr.
06E0: 01 3F 80 23 2A 10 64 72  10 01 52 17 80 F8 FF FF  .?.#*.dr..R.....
06F0: 7F F8 FF FF 7F 73 32 34  31 45 17 80 F8 FF FF 7F  .....s241E......
0700: F8 FF FF 7F 73 32 34 33  01 80 03 00 17 2B 80 27  ....s243.....+.'
0710: 10 64 72 10 01 04 2B 64  72 10 01 40 80 23 2A 10  .dr...+dr..@.#*.
0720: 64 72 10 01 66 29 80 64  72 10 01 64 72 10 01 74  dr..f).dr..dr..t
0730: 6C 6B 31 24 41 80 01 80  01 80 25 02 00 10 01 80  lk1$A.....%.....
0740: 00 EA 07 03 00 17 42 80  27 10 64 72 10 01 19 2B  ......B.'.dr...+
0750: 64 72 10 01 43 80 23 2A  10 64 72 10 01 79 00 64  dr..C.#*.dr..y.d
0760: 72 10 01 F8 FF FF 7F 52  17 80 F8 FF FF 7F F8 FF  r......R........
0770: FF 7F 73 32 34 33 45 17  80 F8 FF FF 7F F8 FF FF  ..s243E.........
0780: 7F 73 32 34 35 01 80 81  00 64 72 10 01 03 00 17  .s245....dr.....
0790: 2B 80 27 10 64 72 10 01  03 2B 64 72 10 01 44 80  +.'.dr...+dr..D.
07A0: 23 2B 64 72 10 01 45 80  23 2B 64 72 10 01 46 80  #+dr..E.#+dr..F.
07B0: 23 03 00 17 2F 80 27 10  64 72 10 01 18 2A 10 64  #.../.'.dr...*.d
07C0: 72 10 01 81 01 64 72 10  01 66 15 80 64 72 10 01  r....dr..f..dr..
07D0: 64 72 10 01 74 6C 6B 31  52 17 80 F8 FF FF 7F F8  dr..tlk1R.......
07E0: FF FF 7F 73 32 34 35 01  9B 08 02 00 10 0B 80 00  ...s245.........
07F0: 9B 08 03 00 17 42 80 27  10 64 72 10 01 0F 2B 64  .....B.'.dr...+d
0800: 72 10 01 47 80 23 2A 10  64 72 10 01 79 00 64 72  r..G.#*.dr..y.dr
0810: 10 01 F8 FF FF 7F 52 17  80 F8 FF FF 7F F8 FF FF  ......R.........
0820: 7F 73 32 34 33 45 17 80  F8 FF FF 7F F8 FF FF 7F  .s243E..........
0830: 73 32 34 34 01 80 81 00  64 72 10 01 03 00 17 2B  s244....dr.....+
0840: 80 27 10 64 72 10 01 04  2B 64 72 10 01 48 80 23  .'.dr...+dr..H.#
0850: 2A 10 64 72 10 01 81 01  64 72 10 01 79 00 64 72  *.dr....dr..y.dr
0860: 10 01 F0 FF FF 7F 66 29  80 64 72 10 01 64 72 10  ......f).dr..dr.
0870: 01 74 6C 6B 31 52 17 80  F8 FF FF 7F F8 FF FF 7F  .tlk1R..........
0880: 73 32 34 34 45 17 80 F8  FF FF 7F F8 FF FF 7F 73  s244E..........s
0890: 32 34 33 01 80 01 33 07  01 9B 08 36 49 80 4A 80  243...3....6I.J.
08A0: 4B 80 45 17 80 F8 FF FF  7F F8 FF FF 7F 73 32 34  K.E..........s24
08B0: 36 01 80 1C 16 80 27 10  F0 FF FF 7F 23 1C 22 80  6.....'.....#.".
08C0: 4A 64 72 10 01 F8 FF FF  7F 6F 76 64 72 10 01 66  Jdr......ovdr..f
08D0: 15 80 64 72 10 01 64 72  10 01 73 69 72 30 1C 2B  ..dr..dr..sir0.+
08E0: 80 52 17 80 F8 FF FF 7F  F8 FF FF 7F 73 32 34 36  .R..........s246
08F0: 45 17 80 F8 FF FF 7F F8  FF FF 7F 73 32 34 38 01  E..........s248.
0900: 80 4E 01 F0 FF FF 7F 4E  00 65 72 10 01 29 10 65  .N.....N.er..).e
0910: 72 10 01 02 1C 2F 80 52  17 80 F8 FF FF 7F F8 FF  r..../.R........
0920: FF 7F 73 32 34 38 45 17  80 F8 FF FF 7F F8 FF FF  ..s248E.........
0930: 7F 73 32 34 37 01 80 1C  4C 80 2B 64 72 10 01 4D  .s247...L.+dr..M
0940: 80 23 BA 65 72 10 01 4E  80 4F 80 50 80 1F 80 27  .#.er..N.O.P...'
0950: 10 65 72 10 01 03 1C 2F  80 52 17 80 F8 FF FF 7F  .er..../.R......
0960: F8 FF FF 7F 73 32 34 37  45 17 80 F8 FF FF 7F F8  ....s247E.......
0970: FF FF 7F 73 32 30 64 01  80 2A 10 65 72 10 01 03  ...s20d..*.er...
0980: 00 17 22 80 27 10 65 72  10 01 07 2A 10 65 72 10  ..".'.er...*.er.
0990: 01 48 51 80 1C 2B 80 29  10 65 72 10 01 0A 1C 16  .HQ..+.).er.....
09A0: 80 66 15 80 64 72 10 01  64 72 10 01 73 69 72 31  .f..dr..dr..sir1
09B0: 1C 16 80 2B 64 72 10 01  52 80 23 66 15 80 64 72  ...+dr..R.#f..dr
09C0: 10 01 64 72 10 01 73 68  61 31 1C 16 80 52 17 80  ..dr..sha1...R..
09D0: F8 FF FF 7F F8 FF FF 7F  73 32 30 64 45 17 80 F8  ........s20dE...
09E0: FF FF 7F F8 FF FF 7F 73  32 34 39 01 80 1C 16 80  .......s249.....
09F0: 03 00 17 2B 80 27 10 65  72 10 01 04 1C 22 80 4A  ...+.'.er....".J
0A00: 64 72 10 01 F0 FF FF 7F  6F 76 64 72 10 01 2A 10  dr......ovdr..*.
0A10: 65 72 10 01 81 00 64 72  10 01 03 00 17 22 80 27  er....dr.....".'
0A20: 10 64 72 10 01 17 27 10  65 72 10 01 09 52 17 80  .dr...'.er...R..
0A30: F8 FF FF 7F F8 FF FF 7F  73 32 34 39 45 17 80 F8  ........s249E...
0A40: FF FF 7F F8 FF FF 7F 73  32 35 30 01 80 2B 64 72  .......s250..+dr
0A50: 10 01 53 80 23 2A 10 64  72 10 01 52 17 80 F8 FF  ..S.#*.dr..R....
0A60: FF 7F F8 FF FF 7F 73 32  35 30 45 17 80 F8 FF FF  ......s250E.....
0A70: 7F F8 FF FF 7F 73 32 35  31 01 80 66 29 80 64 72  .....s251..f).dr
0A80: 10 01 64 72 10 01 74 68  6B 31 7C 00 64 72 10 01  ..dr..thk1|.dr..
0A90: 1C 16 80 03 00 17 22 80  27 10 64 72 10 01 1D 2B  ......".'.dr...+
0AA0: 64 72 10 01 54 80 23 66  55 80 64 72 10 01 64 72  dr..T.#fU.dr..dr
0AB0: 10 01 6C 73 30 30 2A 10  64 72 10 01 7C 01 64 72  ..ls00*.dr..|.dr
0AC0: 10 01 81 01 64 72 10 01  52 17 80 F8 FF FF 7F F8  ....dr..R.......
0AD0: FF FF 7F 73 32 35 31 45  17 80 F8 FF FF 7F F8 FF  ...s251E........
0AE0: FF 7F 73 32 35 32 01 80  1D 56 80 23 2B 64 72 10  ..s252...V.#+dr.
0AF0: 01 57 80 23 2B 64 72 10  01 58 80 23 66 55 80 64  .W.#+dr..X.#fU.d
0B00: 72 10 01 64 72 10 01 6C  73 30 31 1C 16 80 03 00  r..dr..ls01.....
0B10: 17 42 80 27 10 64 72 10  01 15 2B 64 72 10 01 59  .B.'.dr...+dr..Y
0B20: 80 23 2A 10 64 72 10 01  4A 64 72 10 01 65 72 10  .#*.dr..Jdr..er.
0B30: 01 6F 76 64 72 10 01 4E  01 64 72 10 01 52 17 80  .ovdr..N.dr..R..
0B40: F8 FF FF 7F F8 FF FF 7F  73 32 35 32 45 17 80 F8  ........s252E...
0B50: FF FF 7F F8 FF FF 7F 73  32 35 33 01 80 1C 2B 80  .......s253...+.
0B60: 5B 5A 80 65 72 10 01 65  72 10 01 6B 62 74 73 29  [Z.er..er..kbts)
0B70: 10 65 72 10 01 0A 1C 42  80 4E 00 64 72 10 01 52  .er....B.N.dr..R
0B80: 17 80 F8 FF FF 7F F8 FF  FF 7F 73 32 35 33 45 17  ..........s253E.
0B90: 80 F8 FF FF 7F F8 FF FF  7F 73 32 37 31 01 80 1C  .........s271...
0BA0: 42 80 27 10 64 72 10 01  1C 1C 2F 80 52 17 80 F8  B.'.dr..../.R...
0BB0: FF FF 7F F8 FF FF 7F 73  32 37 31 45 17 80 F8 FF  .......s271E....
0BC0: FF 7F F8 FF FF 7F 73 32  35 34 01 80 03 00 17 2F  ......s254...../
0BD0: 80 2B 64 72 10 01 5B 80  23 2A 10 64 72 10 01 4A  .+dr..[.#*.dr..J
0BE0: 64 72 10 01 F0 FF FF 7F  52 17 80 F8 FF FF 7F F8  dr......R.......
0BF0: FF FF 7F 73 32 35 34 45  17 80 F8 FF FF 7F F8 FF  ...s254E........
0C00: FF 7F 73 32 35 35 01 80  7B 64 72 10 01 1C 16 80  ..s255..{dr.....
0C10: 27 10 64 72 10 01 09 03  00 17 2F 80 27 10 65 72  '.dr....../.'.er
0C20: 10 01 05 2A 10 65 72 10  01 4E 00 66 72 10 01 52  ...*.er..N.fr..R
0C30: 17 80 F8 FF FF 7F F8 FF  FF 7F 73 32 35 35 45 17  ..........s255E.
0C40: 80 F8 FF FF 7F F8 FF FF  7F 73 32 35 36 01 80 4E  .........s256..N
0C50: 01 64 72 10 01 1C 16 80  66 15 80 66 72 10 01 66  .dr.....f..fr..f
0C60: 72 10 01 73 68 61 31 03  00 17 2B 80 27 10 66 72  r..sha1...+.'.fr
0C70: 10 01 07 2B 66 72 10 01  5C 80 23 2A 10 66 72 10  ...+fr..\.#*.fr.
0C80: 01 52 17 80 F8 FF FF 7F  F8 FF FF 7F 73 32 35 36  .R..........s256
0C90: 45 17 80 F8 FF FF 7F F8  FF FF 7F 73 32 35 37 01  E..........s257.
0CA0: 80 27 10 66 72 10 01 02  1C 2F 80 4A 65 72 10 01  .'.fr..../.Jer..
0CB0: 66 72 10 01 03 00 17 2F  80 27 10 65 72 10 01 08  fr...../.'.er...
0CC0: 2A 10 65 72 10 01 5B 5D  80 65 72 10 01 65 72 10  *.er..[].er..er.
0CD0: 01 6B 69 6B 73 27 10 65  72 10 01 06 1C 2B 80 52  .kiks'.er....+.R
0CE0: 17 80 F8 FF FF 7F F8 FF  FF 7F 73 32 35 37 45 17  ..........s257E.
0CF0: 80 F8 FF FF 7F F8 FF FF  7F 73 32 35 38 01 80 33  .........s258..3
0D00: 00 36 5E 80 5F 80 60 80  2A 10 66 72 10 01 1C 16  .6^._.`.*.fr....
0D10: 80 62 61 80 F8 FF FF 7F  F8 FF FF 7F 6D 61 69 6E  .ba.........main
0D20: 01 80 1C 2B 80 4A 66 72  10 01 F8 FF FF 7F 6F 76  ...+.Jfr......ov
0D30: 66 72 10 01 27 10 66 72  10 01 03 2A 10 66 72 10  fr..'.fr...*.fr.
0D40: 01 66 15 80 66 72 10 01  66 72 10 01 73 69 72 30  .f..fr..fr..sir0
0D50: 1C 62 80 52 17 80 F8 FF  FF 7F F8 FF FF 7F 73 32  .b.R..........s2
0D60: 35 38 45 17 80 F8 FF FF  7F F8 FF FF 7F 73 32 35  58E..........s25
0D70: 39 01 80 2A 10 66 72 10  01 66 15 80 66 72 10 01  9..*.fr..f..fr..
0D80: 66 72 10 01 73 69 72 30  03 00 17 2B 80 27 10 66  fr..sir0...+.'.f
0D90: 72 10 01 07 2B 66 72 10  01 63 80 23 2A 10 66 72  r...+fr..c.#*.fr
0DA0: 10 01 66 15 80 66 72 10  01 66 72 10 01 73 69 72  ..f..fr..fr..sir
0DB0: 31 03 00 17 2B 80 27 10  66 72 10 01 07 1D 64 80  1...+.'.fr....d.
0DC0: 23 2A 10 66 72 10 01 52  17 80 F8 FF FF 7F F8 FF  #*.fr..R........
0DD0: FF 7F 73 32 35 39 45 17  80 F8 FF FF 7F F8 FF FF  ..s259E.........
0DE0: 7F 73 32 36 30 01 80 81  00 66 72 10 01 7C 00 66  .s260....fr..|.f
0DF0: 72 10 01 03 00 17 2B 80  27 10 66 72 10 01 07 2B  r.....+.'.fr...+
0E00: 66 72 10 01 65 80 23 2A  10 66 72 10 01 81 01 66  fr..e.#*.fr....f
0E10: 72 10 01 7C 01 66 72 10  01 52 17 80 F8 FF FF 7F  r..|.fr..R......
0E20: F8 FF FF 7F 73 32 36 30  45 17 80 F8 FF FF 7F F8  ....s260E.......
0E30: FF FF 7F 73 32 36 31 01  80 66 15 80 66 72 10 01  ...s261..f..fr..
0E40: 66 72 10 01 73 68 61 31  1C 22 80 66 55 80 66 72  fr..sha1.".fU.fr
0E50: 10 01 66 72 10 01 6C 73  30 30 1C 2B 80 03 00 17  ..fr..ls00.+....
0E60: 2F 80 27 10 66 72 10 01  07 2B 66 72 10 01 66 80  /.'.fr...+fr..f.
0E70: 23 2A 10 66 72 10 01 52  17 80 F8 FF FF 7F F8 FF  #*.fr..R........
0E80: FF 7F 73 32 36 31 45 17  80 F8 FF FF 7F F8 FF FF  ..s261E.........
0E90: 7F 73 32 30 65 01 80 1D  67 80 23 1C 2B 80 48 68  .s20e...g.#.+.Hh
0EA0: 80 1C 2B 80 03 00 17 16  80 27 10 66 72 10 01 07  ..+......'.fr...
0EB0: 66 55 80 66 72 10 01 66  72 10 01 6C 73 30 31 2A  fU.fr..fr..ls01*
0EC0: 10 66 72 10 01 52 17 80  F8 FF FF 7F F8 FF FF 7F  .fr..R..........
0ED0: 73 32 30 65 45 17 80 F8  FF FF 7F F8 FF FF 7F 73  s20eE..........s
0EE0: 32 36 32 01 80 1C 16 80  03 00 17 22 80 27 10 66  262........".'.f
0EF0: 72 10 01 05 2B 66 72 10  01 69 80 23 2A 10 66 72  r...+fr..i.#*.fr
0F00: 10 01 52 17 80 F8 FF FF  7F F8 FF FF 7F 73 32 36  ..R..........s26
0F10: 32 45 17 80 F8 FF FF 7F  F8 FF FF 7F 73 32 37 35  2E..........s275
0F20: 01 80 1C 16 80 03 00 17  2F 80 27 10 66 72 10 01  ......../.'.fr..
0F30: 06 2B 66 72 10 01 6A 80  23 2A 10 66 72 10 01 1C  .+fr..j.#*.fr...
0F40: 16 80 52 17 80 F8 FF FF  7F F8 FF FF 7F 73 32 37  ..R..........s27
0F50: 35 45 17 80 F8 FF FF 7F  F8 FF FF 7F 73 32 36 33  5E..........s263
0F60: 01 80 4A 66 72 10 01 F0  FF FF 7F 6F 76 66 72 10  ..Jfr......ovfr.
0F70: 01 7B 66 72 10 01 27 10  66 72 10 01 04 2B 66 72  .{fr..'.fr...+fr
0F80: 10 01 6B 80 23 1C 42 80  52 17 80 F8 FF FF 7F F8  ..k.#.B.R.......
0F90: FF FF 7F 73 32 36 33 45  00 80 F0 FF FF 7F F0 FF  ...s263E........
0FA0: FF 7F 66 64 6F 31 01 80  55 00 80 F0 FF FF 7F F0  ..fdo1..U.......
0FB0: FF FF 7F 66 64 6F 31 7B  64 72 10 01 BA 64 72 10  ...fdo1{dr...dr.
0FC0: 01 6C 80 6D 80 6E 80 6F  80 BA 65 72 10 01 70 80  .l.m.n.o..er..p.
0FD0: 71 80 72 80 73 80 4E 00  64 72 10 01 4E 00 65 72  q.r.s.N.dr..N.er
0FE0: 10 01 80 64 72 10 01 45  00 80 F0 FF FF 7F F0 FF  ...dr..E........
0FF0: FF 7F 66 64 69 31 01 80  45 17 80 F8 FF FF 7F F8  ..fdi1..E.......
1000: FF FF 7F 73 32 36 34 01  80 29 10 64 72 10 01 0A  ...s264..).dr...
1010: 5B 74 80 64 72 10 01 64  72 10 01 73 68 61 30 1C  [t.dr..dr..sha0.
1020: 16 80 5B 75 80 64 72 10  01 64 72 10 01 70 65 30  ..[u.dr..dr..pe0
1030: 30 52 17 80 F8 FF FF 7F  F8 FF FF 7F 73 32 36 34  0R..........s264
1040: 45 17 80 F8 FF FF 7F F8  FF FF 7F 73 32 36 35 01  E..........s265.
1050: 80 1C 2B 80 03 00 17 2F  80 27 10 64 72 10 01 1D  ..+..../.'.dr...
1060: 5B 75 80 64 72 10 01 64  72 10 01 70 65 30 31 2B  [u.dr..dr..pe01+
1070: 64 72 10 01 76 80 23 2A  10 64 72 10 01 52 17 80  dr..v.#*.dr..R..
1080: F8 FF FF 7F F8 FF FF 7F  73 32 36 35 45 17 80 F8  ........s265E...
1090: FF FF 7F F8 FF FF 7F 73  32 36 36 01 80 03 00 17  .......s266.....
10A0: 2F 80 27 10 64 72 10 01  1D 2B 64 72 10 01 77 80  /.'.dr...+dr..w.
10B0: 23 2A 10 64 72 10 01 52  17 80 F8 FF FF 7F F8 FF  #*.dr..R........
10C0: FF 7F 73 32 36 36 27 10  64 72 10 01 06 45 17 80  ..s266'.dr...E..
10D0: F8 FF FF 7F F8 FF FF 7F  73 32 36 37 01 80 27 10  ........s267..'.
10E0: 65 72 10 01 08 03 00 17  22 80 27 10 64 72 10 01  er......".'.dr..
10F0: 1D 2B 64 72 10 01 78 80  23 2A 10 64 72 10 01 5B  .+dr..x.#*.dr..[
1100: 5D 80 65 72 10 01 65 72  10 01 6B 69 6B 73 52 17  ].er..er..kiksR.
1110: 80 F8 FF FF 7F F8 FF FF  7F 73 32 36 37 45 17 80  .........s267E..
1120: F8 FF FF 7F F8 FF FF 7F  73 32 36 38 01 80 81 00  ........s268....
1130: 64 72 10 01 03 00 17 2B  80 27 10 64 72 10 01 1D  dr.....+.'.dr...
1140: 2B 64 72 10 01 79 80 23  2A 10 64 72 10 01 03 00  +dr..y.#*.dr....
1150: 17 26 80 27 10 64 72 10  01 07 2B 64 72 10 01 7A  .&.'.dr...+dr..z
1160: 80 23 2A 10 64 72 10 01  5B 7B 80 64 72 10 01 64  .#*.dr..[{.dr..d
1170: 72 10 01 61 73 65 31 81  01 64 72 10 01 52 17 80  r..ase1..dr..R..
1180: F8 FF FF 7F F8 FF FF 7F  73 32 36 38 45 17 80 F8  ........s268E...
1190: FF FF 7F F8 FF FF 7F 73  32 36 39 01 80 03 00 17  .......s269.....
11A0: 26 80 27 10 64 72 10 01  15 2B 64 72 10 01 7C 80  &.'.dr...+dr..|.
11B0: 23 2A 10 64 72 10 01 52  17 80 F8 FF FF 7F F8 FF  #*.dr..R........
11C0: FF 7F 73 32 36 39 45 17  80 F8 FF FF 7F F8 FF FF  ..s269E.........
11D0: 7F 73 32 37 34 01 80 27  10 64 72 10 01 0C 2A 10  .s274..'.dr...*.
11E0: 64 72 10 01 03 00 17 2B  80 27 10 64 72 10 01 14  dr.....+.'.dr...
11F0: 2B 64 72 10 01 7D 80 23  2A 10 64 72 10 01 03 00  +dr..}.#*.dr....
1200: 17 26 80 27 10 64 72 10  01 08 2B 64 72 10 01 7E  .&.'.dr...+dr..~
1210: 80 23 2A 10 64 72 10 01  66 61 80 64 72 10 01 64  .#*.dr..fa.dr..d
1220: 72 10 01 73 64 6F 31 1C  7F 80 52 17 80 F8 FF FF  r..sdo1...R.....
1230: 7F F8 FF FF 7F 73 32 37  34 45 17 80 F8 FF FF 7F  .....s274E......
1240: F8 FF FF 7F 73 32 37 30  01 80 1C 2B 80 27 10 64  ....s270...+.'.d
1250: 72 10 01 0B 2B 64 72 10  01 80 80 23 1C 42 80 45  r...+dr....#.B.E
1260: 00 80 F0 FF FF 7F F0 FF  FF 7F 66 64 6F 31 01 80  ..........fdo1..
1270: 55 00 80 F0 FF FF 7F F0  FF FF 7F 66 64 6F 31 52  U..........fdo1R
1280: 17 80 F8 FF FF 7F F8 FF  FF 7F 73 32 37 30 46 00  ..........s270F.
1290: 45 00 80 F0 FF FF 7F F0  FF FF 7F 66 64 69 32 01  E..........fdi2.
12A0: 80 05 01 10 21 00 02 01  00 0B 80 00 4A 13 45 00  ....!.......J.E.
12B0: 80 F0 FF FF 7F F0 FF FF  7F 66 64 69 31 01 80 45  .........fdi1..E
12C0: 17 80 F8 FF FF 7F F8 FF  FF 7F 73 32 33 38 01 80  ..........s238..
12D0: 1C 16 80 03 00 17 2B 80  27 10 64 72 10 01 03 2B  ......+.'.dr...+
12E0: 64 72 10 01 81 80 23 2B  64 72 10 01 82 80 23 2A  dr....#+dr....#*
12F0: 10 64 72 10 01 66 15 80  64 72 10 01 64 72 10 01  .dr..f..dr..dr..
1300: 74 6C 6B 31 45 00 80 F0  FF FF 7F F0 FF FF 7F 66  tlk1E..........f
1310: 64 6F 31 01 80 55 00 80  F0 FF FF 7F F0 FF FF 7F  do1..U..........
1320: 66 64 6F 31 52 17 80 F8  FF FF 7F F8 FF FF 7F 73  fdo1R..........s
1330: 32 33 38 46 00 45 00 80  F0 FF FF 7F F0 FF FF 7F  238F.E..........
1340: 66 64 69 32 01 80 06 01  10 21 02 01 00 61 80 00  fdi2.....!...a..
1350: 42 14 45 00 80 F0 FF FF  7F F0 FF FF 7F 66 64 69  B.E..........fdi
1360: 31 01 80 45 17 80 F8 FF  FF 7F F8 FF FF 7F 73 32  1..E..........s2
1370: 30 66 01 80 1C 16 80 03  00 17 2B 80 27 10 64 72  0f........+.'.dr
1380: 10 01 04 2B 64 72 10 01  83 80 23 2A 10 64 72 10  ...+dr....#*.dr.
1390: 01 66 29 80 64 72 10 01  64 72 10 01 74 6C 6B 31  .f).dr..dr..tlk1
13A0: 1C 16 80 29 10 F0 FF FF  7F 02 03 03 10 22 80 27  ...).........".'
13B0: 10 F0 FF FF 7F 20 2A 10  F0 FF FF 7F 79 00 64 72  ..... *.....y.dr
13C0: 10 01 F8 FF FF 7F 1C 84  80 52 17 80 F8 FF FF 7F  .........R......
13D0: F8 FF FF 7F 73 32 30 66  45 17 80 F8 FF FF 7F F8  ....s20fE.......
13E0: FF FF 7F 73 32 34 32 01  80 03 00 17 22 80 27 10  ...s242.....".'.
13F0: 64 72 10 01 03 2B 64 72  10 01 85 80 23 2A 10 64  dr...+dr....#*.d
1400: 72 10 01 79 00 64 72 10  01 F0 FF FF 7F 66 15 80  r..y.dr......f..
1410: 64 72 10 01 64 72 10 01  74 6C 6B 31 52 17 80 F8  dr..dr..tlk1R...
1420: FF FF 7F F8 FF FF 7F 73  32 34 32 45 17 80 F8 FF  .......s242E....
1430: FF 7F F8 FF FF 7F 73 32  34 31 01 80 1C 2B 80 01  ......s241...+..
1440: D0 06 21 00                                       ..!.            
```

#### Opcodes

```
  0: 0x0001 [0x42] SET_CLI_EVENT_CANCEL_DATA()
  1: 0x0002 [0x03] ExtData[1]->WorkLocal[1] = Work_Zone[2]
  2: 0x0007 [0x45] LOAD_SCHEDULED_TASK: Load scheduler "fdo1" with entities [LocalPlayer, LocalPlayer], work=[200*, 0*]
  3: 0x0018 [0x55] WAIT_LOAD_SCHEDULER: Wait for scheduler "fdo1" with entities [LocalPlayer, LocalPlayer], work=200*
  4: 0x0027 [0x46] CAMERA_CONTROL: Disable user control
  5: 0x0029 [0x38] SET_CLIENT_EVENT_MODE(mode=19*)
  6: 0x002C [0x33] EventEntity->Render.Flags0 |= 0x200000 // Bit 21 (flag=0x01)
  7: 0x002E [0x36] SET_ENTITY_EVENT_POSITION(pos_x=168.320*, pos_z=159.867*, pos_y=-2.000*)
  8: 0x0035 [0x2F] Midras (ID: 17855076/0x01107264)->Render.Flags0 &= ~0x80000 // Bit 19
  9: 0x003B [0x4E] SET_ENTITY_HIDE_FLAG: Show Midras (ID: 17855076/0x01107264)
 10: 0x0041 [0x2F] Ergon Locus (ID: 17855079/0x01107267)->Render.Flags0 &= ~0x80000 // Bit 19
 11: 0x0047 [0x4E] SET_ENTITY_HIDE_FLAG: Show Ergon Locus (ID: 17855079/0x01107267)
 12: 0x004D [0x94] Midras (ID: 17855076/0x01107264)->Render.Flags3 ^= 0x01
 13: 0x0053 [0x94] LocalPlayer->Render.Flags3 ^= 0x01
 14: 0x0059 [0xBA] SET_ENTITY_POSITION(entity_id=Midras (ID: 17855076/0x01107264), pos_x=168.000*, pos_z=157.330*, pos_y=-0.252*, direction=89.9°*)
 15: 0x0066 [0x3F] ExtData[1]->WorkLocal[0] = ExtData[1]->WorkLocal[1] % 2*
 16: 0x006D [0x02] IF !(ExtData[1]->WorkLocal[0] == 1*) GOTO 0x009D
 17: 0x0075 [0xBA] SET_ENTITY_POSITION(entity_id=LocalPlayer, pos_x=168.320*, pos_z=159.867*, pos_y=-0.260*, direction=89.9°*)
 18: 0x0082 [0x4A] LocalPlayer looks at Midras (ID: 17855076/0x01107264)
 19: 0x008B [0x4A] Midras (ID: 17855076/0x01107264) looks at LocalPlayer
 20: 0x0094 [0x6F] WAIT_FRAME_DELAY: Yield until WaitTime reaches zero
 21: 0x0095 [0x76] CHECK_ENTITY_RENDER_FLAGS: Wait until Midras (ID: 17855076/0x01107264) Render.Flags0 and Render.Flags3 conditions are met
 22: 0x009A [0x01] GOTO 0x00B0
 23: 0x009D [0xBA] SET_ENTITY_POSITION(entity_id=LocalPlayer, pos_x=0.000*, pos_z=0.000*, pos_y=0.000*, direction=0.0°*)
 24: 0x00AA [0x4E] SET_ENTITY_HIDE_FLAG: Hide LocalPlayer

SUBROUTINE_00B0:
 25: 0x00B0 [0x02] IF !(ExtData[1]->WorkLocal[1] < 2*) GOTO 0x0108
 26: 0x00B8 [0x2F] Leafkin (ID: 17855077/0x01107265)->Render.Flags0 &= ~0x80000 // Bit 19
 27: 0x00BE [0x2F] Hektor (ID: 17855078/0x01107266)->Render.Flags0 &= ~0x80000 // Bit 19
 28: 0x00C4 [0x94] Leafkin (ID: 17855077/0x01107265)->Render.Flags3 ^= 0x01
 29: 0x00CA [0x94] Hektor (ID: 17855078/0x01107266)->Render.Flags3 ^= 0x01
 30: 0x00D0 [0xBA] SET_ENTITY_POSITION(entity_id=Leafkin (ID: 17855077/0x01107265), pos_x=178.139*, pos_z=184.109*, pos_y=-11.900*, direction=110.7°*)
 31: 0x00DD [0xBA] SET_ENTITY_POSITION(entity_id=Hektor (ID: 17855078/0x01107266), pos_x=151.500*, pos_z=155.000*, pos_y=0.134*, direction=377476196.8°*)
 32: 0x00EA [0x66] LOAD_EXT_SCHEDULER_MAIN: Load scheduler "sir0" with entities [Hektor (ID: 17855078/0x01107266), Hektor (ID: 17855078/0x01107266)], work=9*
 33: 0x00F9 [0x66] LOAD_EXT_SCHEDULER_MAIN: Load scheduler "sir1" with entities [Hektor (ID: 17855078/0x01107266), Hektor (ID: 17855078/0x01107266)], work=9*
 34: 0x0108 [0x80] LOAD_WAIT(entity=Midras (ID: 17855076/0x01107264))
 35: 0x010D [0x80] LOAD_WAIT(entity=LocalPlayer)
 36: 0x0112 [0x1C] WAIT(30* ticks)
 37: 0x0115 [0x3F] ExtData[1]->WorkLocal[0] = ExtData[1]->WorkLocal[1] % 2*
 38: 0x011C [0x02] IF !(ExtData[1]->WorkLocal[0] == 0*) GOTO 0x12A6
 39: 0x0124 [0x66] LOAD_EXT_SCHEDULER_MAIN: Load scheduler "sir0" with entities [Midras (ID: 17855076/0x01107264), Midras (ID: 17855076/0x01107264)], work=9*
 40: 0x0133 [0x45] LOAD_SCHEDULED_TASK: Load scheduler "fdi1" with entities [LocalPlayer, LocalPlayer], work=[200*, 0*]
 41: 0x0144 [0x45] LOAD_SCHEDULED_TASK: Load scheduler "s230" with entities [EventEntity, EventEntity], work=[636*, 0*]
 42: 0x0155 [0x1C] WAIT(540* ticks)
 43: 0x0158 [0x2B] Midras (ID: 17855076/0x01107264) [8348*]:
    → "How odd... The soil and plants here don't seem to be suffering from the corruption that the surrounding area does."
 44: 0x015F [0x23] WAIT_FOR_DIALOG_INTERACTION
 45: 0x0160 [0x66] LOAD_EXT_SCHEDULER_MAIN: Load scheduler "sir1" with entities [Midras (ID: 17855076/0x01107264), Midras (ID: 17855076/0x01107264)], work=9*
 46: 0x016F [0x55] WAIT_LOAD_SCHEDULER: Wait for scheduler "s230" with entities [EventEntity, EventEntity], work=636*
 47: 0x017E [0x45] LOAD_SCHEDULED_TASK: Load scheduler "s231" with entities [EventEntity, EventEntity], work=[636*, 0*]
 48: 0x018F [0x2B] Midras (ID: 17855076/0x01107264) [8349*]:
    → "I wonder if it means that the energies of the ergon locus here have some sort of cleansing effect on the land..."
 49: 0x0196 [0x23] WAIT_FOR_DIALOG_INTERACTION
 50: 0x0197 [0x55] WAIT_LOAD_SCHEDULER: Wait for scheduler "s231" with entities [EventEntity, EventEntity], work=636*
 51: 0x01A6 [0x45] LOAD_SCHEDULED_TASK: Load scheduler "s232" with entities [EventEntity, EventEntity], work=[636*, 0*]
 52: 0x01B7 [0x81] SET_ENTITY_BLINKING(blink_flag=0x00, entity=Midras (ID: 17855076/0x01107264))
 53: 0x01BD [0x66] LOAD_EXT_SCHEDULER_MAIN: Load scheduler "sha1" with entities [Midras (ID: 17855076/0x01107264), Midras (ID: 17855076/0x01107264)], work=9*
 54: 0x01CC [0x2B] Midras (ID: 17855076/0x01107264) [8350*]:
    → "There's only one way to find out--take a sample and bring it back to the coalition for analysis."
 55: 0x01D3 [0x23] WAIT_FOR_DIALOG_INTERACTION
 56: 0x01D4 [0x55] WAIT_LOAD_SCHEDULER: Wait for scheduler "s232" with entities [EventEntity, EventEntity], work=636*
 57: 0x01E3 [0x81] SET_ENTITY_BLINKING(blink_flag=0x01, entity=Midras (ID: 17855076/0x01107264))
 58: 0x01E9 [0x45] LOAD_SCHEDULED_TASK: Load scheduler "s233" with entities [EventEntity, EventEntity], work=[636*, 0*]
 59: 0x01FA [0xBA] SET_ENTITY_POSITION(entity_id=LocalPlayer, pos_x=169.350*, pos_z=167.000*, pos_y=0.072*, direction=112.4°*)
 60: 0x0207 [0x4A] LocalPlayer looks at Midras (ID: 17855076/0x01107264)
 61: 0x0210 [0x4E] SET_ENTITY_HIDE_FLAG: Show LocalPlayer
 62: 0x0216 [0x27] REQ_SET(priority=0x10, entity_id=LocalPlayer, tag_num=0x22)
 63: 0x021D [0x1C] WAIT(210* ticks)
 64: 0x0220 [0x52] END_LOAD_SCHEDULER: End scheduler "s233" with entities [EventEntity, EventEntity], work=636*
 65: 0x022F [0x45] LOAD_SCHEDULED_TASK: Load scheduler "s234" with entities [EventEntity, EventEntity], work=[636*, 0*]
 66: 0x0240 [0x2A] GET_REQ_LEVEL(level=16, entity_id=LocalPlayer)
 67: 0x0246 [0x24] CREATE_DIALOG(message_id=8351*, default_option=0*, option_flags=0*)
    → "How do you address him? [Midras./Junior.]"
 68: 0x024D [0x25] WAIT_DIALOG_SELECT()
 69: 0x024E [0x02] IF !(Work_Zone[0] == 0*) GOTO 0x02C4
 70: 0x0256 [0x29] REQ_SET_WAIT(priority=0x10, entity_id=LocalPlayer, tag_num=0x02)
 71: 0x025D [0x03] Work_Zone[3] = 90*
 72: 0x0262 [0x27] REQ_SET(priority=0x10, entity_id=LocalPlayer, tag_num=0x20)
 73: 0x0269 [0x2A] GET_REQ_LEVEL(level=16, entity_id=LocalPlayer)
 74: 0x026F [0x6E] Midras (ID: 17855076/0x01107264) uses emote 21*
 75: 0x0276 [0x99] Wait for Midras (ID: 17855076/0x01107264) animation to complete
 76: 0x027B [0x1C] WAIT(90* ticks)
 77: 0x027E [0x4A] Midras (ID: 17855076/0x01107264) looks at LocalPlayer
 78: 0x0287 [0x6F] WAIT_FRAME_DELAY: Yield until WaitTime reaches zero
 79: 0x0288 [0x76] CHECK_ENTITY_RENDER_FLAGS: Wait until Midras (ID: 17855076/0x01107264) Render.Flags0 and Render.Flags3 conditions are met
 80: 0x028D [0x1C] WAIT(30* ticks)
 81: 0x0290 [0x03] Work_Zone_1700[0] = 90*
 82: 0x0295 [0x27] REQ_SET(priority=0x10, entity_id=Midras (ID: 17855076/0x01107264), tag_num=0x03)
 83: 0x029C [0x2B] Midras (ID: 17855076/0x01107264) [8352*]:
    → "Aaah! Don't sneak up on me like that!"
 84: 0x02A3 [0x23] WAIT_FOR_DIALOG_INTERACTION
 85: 0x02A4 [0x2B] Midras (ID: 17855076/0x01107264) [8353*]:
    → "I thought some strange beast had come to eat me alive!"
 86: 0x02AB [0x23] WAIT_FOR_DIALOG_INTERACTION
 87: 0x02AC [0x2A] GET_REQ_LEVEL(level=16, entity_id=Midras (ID: 17855076/0x01107264))
 88: 0x02B2 [0x66] LOAD_EXT_SCHEDULER_MAIN: Load scheduler "tlk1" with entities [Midras (ID: 17855076/0x01107264), Midras (ID: 17855076/0x01107264)], work=9*
 89: 0x02C1 [0x01] GOTO 0x0337
 90: 0x02C4 [0x02] IF !(Work_Zone[0] == 1*) GOTO 0x0337
 91: 0x02CC [0x29] REQ_SET_WAIT(priority=0x10, entity_id=LocalPlayer, tag_num=0x02)
 92: 0x02D3 [0x03] Work_Zone[3] = 90*
 93: 0x02D8 [0x27] REQ_SET(priority=0x10, entity_id=LocalPlayer, tag_num=0x20)
 94: 0x02DF [0x2A] GET_REQ_LEVEL(level=16, entity_id=LocalPlayer)
 95: 0x02E5 [0x4A] Midras (ID: 17855076/0x01107264) looks at LocalPlayer
 96: 0x02EE [0x1C] WAIT(30* ticks)
 97: 0x02F1 [0x03] Work_Zone_1700[0] = 150*
 98: 0x02F6 [0x27] REQ_SET(priority=0x10, entity_id=Midras (ID: 17855076/0x01107264), tag_num=0x0D)
 99: 0x02FD [0x2B] Midras (ID: 17855076/0x01107264) [8354*]:
    → "Why do people keep calling me Junior!?"
100: 0x0304 [0x23] WAIT_FOR_DIALOG_INTERACTION
101: 0x0305 [0x2A] GET_REQ_LEVEL(level=16, entity_id=Midras (ID: 17855076/0x01107264))
102: 0x030B [0x03] Work_Zone_1700[0] = 90*
103: 0x0310 [0x27] REQ_SET(priority=0x10, entity_id=Midras (ID: 17855076/0x01107264), tag_num=0x04)
104: 0x0317 [0x2B] Midras (ID: 17855076/0x01107264) [8355*]:
    → "I have a name, you know. "Midras!" M-I-D-R-A-S."
105: 0x031E [0x23] WAIT_FOR_DIALOG_INTERACTION
106: 0x031F [0x2A] GET_REQ_LEVEL(level=16, entity_id=Midras (ID: 17855076/0x01107264))
107: 0x0325 [0x66] LOAD_EXT_SCHEDULER_MAIN: Load scheduler "tlk1" with entities [Midras (ID: 17855076/0x01107264), Midras (ID: 17855076/0x01107264)], work=149*
108: 0x0334 [0x01] GOTO 0x0337

SUBROUTINE_0337:
109: 0x0337 [0x1C] WAIT(30* ticks)
110: 0x033A [0x79] Midras (ID: 17855076/0x01107264) looks at EventEntity (Basic look)
111: 0x0344 [0x52] END_LOAD_SCHEDULER: End scheduler "s234" with entities [EventEntity, EventEntity], work=636*
112: 0x0353 [0x45] LOAD_SCHEDULED_TASK: Load scheduler "s235" with entities [EventEntity, EventEntity], work=[636*, 0*]
113: 0x0364 [0x81] SET_ENTITY_BLINKING(blink_flag=0x00, entity=Midras (ID: 17855076/0x01107264))
114: 0x036A [0x2B] Midras (ID: 17855076/0x01107264) [8356*]:
    → "Oh, but look who it is. <Player>, come to bother me again, no doubt."
115: 0x0371 [0x23] WAIT_FOR_DIALOG_INTERACTION
116: 0x0372 [0x1C] WAIT(60* ticks)
117: 0x0375 [0x79] Midras (ID: 17855076/0x01107264) looks at LocalPlayer (Basic look)
118: 0x037F [0x81] SET_ENTITY_BLINKING(blink_flag=0x01, entity=Midras (ID: 17855076/0x01107264))
119: 0x0385 [0x52] END_LOAD_SCHEDULER: End scheduler "s235" with entities [EventEntity, EventEntity], work=636*
120: 0x0394 [0x45] LOAD_SCHEDULED_TASK: Load scheduler "s236" with entities [EventEntity, EventEntity], work=[636*, 0*]
121: 0x03A5 [0x1C] WAIT(30* ticks)
122: 0x03A8 [0x03] Work_Zone_1700[0] = 150*
123: 0x03AD [0x27] REQ_SET(priority=0x10, entity_id=Midras (ID: 17855076/0x01107264), tag_num=0x11)
124: 0x03B4 [0x2B] Midras (ID: 17855076/0x01107264) [8357*]:
    → "Wait--Amchuchu sent you again, didn't she? I swear, if that woman put half of the energy she spends worrying about me into her work..."
125: 0x03BB [0x23] WAIT_FOR_DIALOG_INTERACTION
126: 0x03BC [0x2A] GET_REQ_LEVEL(level=16, entity_id=Midras (ID: 17855076/0x01107264))
127: 0x03C2 [0x03] Work_Zone_1700[0] = 60*
128: 0x03C7 [0x27] REQ_SET(priority=0x10, entity_id=Midras (ID: 17855076/0x01107264), tag_num=0x04)
129: 0x03CE [0x2B] Midras (ID: 17855076/0x01107264) [8358*]:
    → "By Altana, she's like an oppressive mother, doting after me like I'm some six-year-old!"
130: 0x03D5 [0x23] WAIT_FOR_DIALOG_INTERACTION
131: 0x03D6 [0x2B] Midras (ID: 17855076/0x01107264) [8359*]:
    → "Hmph. There are worse things, I suppose. If she sent you here, then she must have also mentioned that I'm here to study the ecology of Yorcia Weald."
132: 0x03DD [0x23] WAIT_FOR_DIALOG_INTERACTION
133: 0x03DE [0x2A] GET_REQ_LEVEL(level=16, entity_id=Midras (ID: 17855076/0x01107264))
134: 0x03E4 [0x66] LOAD_EXT_SCHEDULER_MAIN: Load scheduler "tlk1" with entities [Midras (ID: 17855076/0x01107264), Midras (ID: 17855076/0x01107264)], work=149*
135: 0x03F3 [0x52] END_LOAD_SCHEDULER: End scheduler "s236" with entities [EventEntity, EventEntity], work=636*
136: 0x0402 [0x45] LOAD_SCHEDULED_TASK: Load scheduler "s237" with entities [EventEntity, EventEntity], work=[636*, 0*]
137: 0x0413 [0x1C] WAIT(120* ticks)
138: 0x0416 [0x2B] Midras (ID: 17855076/0x01107264) [8360*]:
    → "It's really something else. All manner of plant life sprouts up like weeds despite the poison saturating the soil."
139: 0x041D [0x23] WAIT_FOR_DIALOG_INTERACTION
140: 0x041E [0x2B] Midras (ID: 17855076/0x01107264) [8361*]:
    → "But here, right where we stand--the land suffers no ill effects at all."
141: 0x0425 [0x23] WAIT_FOR_DIALOG_INTERACTION
142: 0x0426 [0x52] END_LOAD_SCHEDULER: End scheduler "s237" with entities [EventEntity, EventEntity], work=636*
143: 0x0435 [0x45] LOAD_SCHEDULED_TASK: Load scheduler "s238" with entities [EventEntity, EventEntity], work=[636*, 0*]
144: 0x0446 [0x1C] WAIT(30* ticks)
145: 0x0449 [0x81] SET_ENTITY_BLINKING(blink_flag=0x00, entity=Midras (ID: 17855076/0x01107264))
146: 0x044F [0x03] Work_Zone_1700[0] = 120*
147: 0x0454 [0x27] REQ_SET(priority=0x10, entity_id=Midras (ID: 17855076/0x01107264), tag_num=0x17)
148: 0x045B [0x2B] Midras (ID: 17855076/0x01107264) [8362*]:
    → "If we can figure out why, then we'll be able to create an even more potent fertilizer! That's why I'm out here in the middle of nowhere--to collect samples and return back."
149: 0x0462 [0x23] WAIT_FOR_DIALOG_INTERACTION
150: 0x0463 [0x2A] GET_REQ_LEVEL(level=16, entity_id=Midras (ID: 17855076/0x01107264))
151: 0x0469 [0x81] SET_ENTITY_BLINKING(blink_flag=0x01, entity=Midras (ID: 17855076/0x01107264))
152: 0x046F [0x66] LOAD_EXT_SCHEDULER_MAIN: Load scheduler "thk1" with entities [Midras (ID: 17855076/0x01107264), Midras (ID: 17855076/0x01107264)], work=149*
153: 0x047E [0x1C] WAIT(90* ticks)
154: 0x0481 [0x03] Work_Zone_1700[0] = 150*
155: 0x0486 [0x27] REQ_SET(priority=0x10, entity_id=Midras (ID: 17855076/0x01107264), tag_num=0x12)
156: 0x048D [0x2B] Midras (ID: 17855076/0x01107264) [8363*]:
    → "So now that you've "confirmed my safety," scram back to Amchuchu and tell her to stop bothering me."
157: 0x0494 [0x23] WAIT_FOR_DIALOG_INTERACTION
158: 0x0495 [0x2A] GET_REQ_LEVEL(level=16, entity_id=Midras (ID: 17855076/0x01107264))
159: 0x049B [0x27] REQ_SET(priority=0x10, entity_id=LocalPlayer, tag_num=0x23)
160: 0x04A2 [0x1C] WAIT(60* ticks)
161: 0x04A5 [0x52] END_LOAD_SCHEDULER: End scheduler "s238" with entities [EventEntity, EventEntity], work=636*
162: 0x04B4 [0x45] LOAD_SCHEDULED_TASK: Load scheduler "s239" with entities [EventEntity, EventEntity], work=[636*, 0*]
163: 0x04C5 [0x1C] WAIT(30* ticks)
164: 0x04C8 [0x9F] LOAD_SCHEDULED_TASK_ALT: Load scheduler "main" with entities [Midras (ID: 17855076/0x01107264), Midras (ID: 17855076/0x01107264)], work=[250*, 0*]
165: 0x04D9 [0x03] Work_Zone_1700[0] = 120*
166: 0x04DE [0x27] REQ_SET(priority=0x10, entity_id=Midras (ID: 17855076/0x01107264), tag_num=0x13)
167: 0x04E5 [0x2B] Midras (ID: 17855076/0x01107264) [8364*]:
    → "Wait a minute, <Player>. There may be something you can do for me."
168: 0x04EC [0x23] WAIT_FOR_DIALOG_INTERACTION
169: 0x04ED [0x2A] GET_REQ_LEVEL(level=16, entity_id=Midras (ID: 17855076/0x01107264))
170: 0x04F3 [0x7A] VM_CONTROL: Reset VM for LocalPlayer
171: 0x04F9 [0x4A] LocalPlayer looks at Midras (ID: 17855076/0x01107264)
172: 0x0502 [0x6F] WAIT_FRAME_DELAY: Yield until WaitTime reaches zero
173: 0x0503 [0x76] CHECK_ENTITY_RENDER_FLAGS: Wait until LocalPlayer Render.Flags0 and Render.Flags3 conditions are met
174: 0x0508 [0x1C] WAIT(30* ticks)
175: 0x050B [0x79] Midras (ID: 17855076/0x01107264) looks at EventEntity (Basic look)
176: 0x0515 [0x52] END_LOAD_SCHEDULER: End scheduler "s239" with entities [EventEntity, EventEntity], work=636*
177: 0x0524 [0x45] LOAD_SCHEDULED_TASK: Load scheduler "s240" with entities [EventEntity, EventEntity], work=[636*, 0*]
178: 0x0535 [0xBA] SET_ENTITY_POSITION(entity_id=LocalPlayer, pos_x=168.883*, pos_z=163.872*, pos_y=-0.054*, direction=112.4°*)
179: 0x0542 [0x81] SET_ENTITY_BLINKING(blink_flag=0x00, entity=Midras (ID: 17855076/0x01107264))
180: 0x0548 [0x03] Work_Zone_1700[0] = 60*
181: 0x054D [0x27] REQ_SET(priority=0x10, entity_id=Midras (ID: 17855076/0x01107264), tag_num=0x03)
182: 0x0554 [0x2B] Midras (ID: 17855076/0x01107264) [8365*]:
    → "I need someone who can use the waypoints like you to do me a favor."
183: 0x055B [0x23] WAIT_FOR_DIALOG_INTERACTION
184: 0x055C [0x2A] GET_REQ_LEVEL(level=16, entity_id=Midras (ID: 17855076/0x01107264))
185: 0x0562 [0x79] Midras (ID: 17855076/0x01107264) looks at LocalPlayer (Basic look)
186: 0x056C [0x81] SET_ENTITY_BLINKING(blink_flag=0x01, entity=Midras (ID: 17855076/0x01107264))
187: 0x0572 [0x52] END_LOAD_SCHEDULER: End scheduler "s240" with entities [EventEntity, EventEntity], work=636*
188: 0x0581 [0x45] LOAD_SCHEDULED_TASK: Load scheduler "s241" with entities [EventEntity, EventEntity], work=[636*, 0*]
189: 0x0592 [0x02] IF !(ExtData[1]->WorkLocal[1] == 0*) GOTO 0x0698
190: 0x059A [0x66] LOAD_EXT_SCHEDULER_MAIN: Load scheduler "tlk1" with entities [Midras (ID: 17855076/0x01107264), Midras (ID: 17855076/0x01107264)], work=9*
191: 0x05A9 [0x29] REQ_SET_WAIT(priority=0x10, entity_id=LocalPlayer, tag_num=0x22)
192: 0x05B0 [0x03] Work_Zone_1700[0] = 60*
193: 0x05B5 [0x27] REQ_SET(priority=0x10, entity_id=Midras (ID: 17855076/0x01107264), tag_num=0x04)
194: 0x05BC [0x2B] Midras (ID: 17855076/0x01107264) [8366*]:
    → "I need you to bring something of mine to a certain acquaintance of mine at the Tenshodo in Jeuno."
195: 0x05C3 [0x23] WAIT_FOR_DIALOG_INTERACTION
196: 0x05C4 [0x2A] GET_REQ_LEVEL(level=16, entity_id=Midras (ID: 17855076/0x01107264))
197: 0x05CA [0x66] LOAD_EXT_SCHEDULER_MAIN: Load scheduler "tlk1" with entities [Midras (ID: 17855076/0x01107264), Midras (ID: 17855076/0x01107264)], work=149*
198: 0x05D9 [0x1C] WAIT(60* ticks)
199: 0x05DC [0x03] Work_Zone_1700[0] = 60*
200: 0x05E1 [0x27] REQ_SET(priority=0x10, entity_id=Midras (ID: 17855076/0x01107264), tag_num=0x14)
201: 0x05E8 [0x2B] Midras (ID: 17855076/0x01107264) [8367*]:
    → "Ah, but wait--you don't have a free pass to visit people there just because you're from the Middle Lands."
202: 0x05EF [0x23] WAIT_FOR_DIALOG_INTERACTION
203: 0x05F0 [0x2A] GET_REQ_LEVEL(level=16, entity_id=Midras (ID: 17855076/0x01107264))
204: 0x05F6 [0x79] Midras (ID: 17855076/0x01107264) looks at EventEntity (Basic look)
205: 0x0600 [0x52] END_LOAD_SCHEDULER: End scheduler "s241" with entities [EventEntity, EventEntity], work=636*
206: 0x060F [0x45] LOAD_SCHEDULED_TASK: Load scheduler "s242" with entities [EventEntity, EventEntity], work=[636*, 0*]
207: 0x0620 [0x81] SET_ENTITY_BLINKING(blink_flag=0x00, entity=Midras (ID: 17855076/0x01107264))
208: 0x0626 [0x03] Work_Zone_1700[0] = 60*
209: 0x062B [0x27] REQ_SET(priority=0x10, entity_id=Midras (ID: 17855076/0x01107264), tag_num=0x03)
210: 0x0632 [0x2B] Midras (ID: 17855076/0x01107264) [8368*]:
    → "In fact, I doubt you could even get inside."
211: 0x0639 [0x23] WAIT_FOR_DIALOG_INTERACTION
212: 0x063A [0x2B] Midras (ID: 17855076/0x01107264) [8369*]:
    → "Maybe you're of no use to me after all. <Sigh> Better get back to it, then. I normally don't say this, but sorry for wasting your time."
213: 0x0641 [0x23] WAIT_FOR_DIALOG_INTERACTION
214: 0x0642 [0x2A] GET_REQ_LEVEL(level=16, entity_id=Midras (ID: 17855076/0x01107264))
215: 0x0648 [0x81] SET_ENTITY_BLINKING(blink_flag=0x01, entity=Midras (ID: 17855076/0x01107264))
216: 0x064E [0x45] LOAD_SCHEDULED_TASK: Load scheduler "fdo1" with entities [LocalPlayer, LocalPlayer], work=[200*, 0*]
217: 0x065F [0x55] WAIT_LOAD_SCHEDULER: Wait for scheduler "fdo1" with entities [LocalPlayer, LocalPlayer], work=200*
218: 0x066E [0x52] END_LOAD_SCHEDULER: End scheduler "s242" with entities [EventEntity, EventEntity], work=636*
219: 0x067D [0x46] CAMERA_CONTROL: Restore default settings
220: 0x067F [0x45] LOAD_SCHEDULED_TASK: Load scheduler "fdi2" with entities [LocalPlayer, LocalPlayer], work=[200*, 0*]
221: 0x0690 [0x06] Work_Zone[1] = 0
222: 0x0693 [0x21] END_EVENT
223: 0x0694 [0x00] END_REQSTACK()

SUBROUTINE_06D0:
224: 0x06D0 [0x03] Work_Zone_1700[0] = 120*
225: 0x06D5 [0x27] REQ_SET(priority=0x10, entity_id=Midras (ID: 17855076/0x01107264), tag_num=0x04)
226: 0x06DC [0x2B] Midras (ID: 17855076/0x01107264) [8375*]:
    → "I need you to bring a little something for me to a guy named Aldo."
227: 0x06E3 [0x23] WAIT_FOR_DIALOG_INTERACTION
228: 0x06E4 [0x2A] GET_REQ_LEVEL(level=16, entity_id=Midras (ID: 17855076/0x01107264))
229: 0x06EA [0x52] END_LOAD_SCHEDULER: End scheduler "s241" with entities [EventEntity, EventEntity], work=636*
230: 0x06F9 [0x45] LOAD_SCHEDULED_TASK: Load scheduler "s243" with entities [EventEntity, EventEntity], work=[636*, 0*]
231: 0x070A [0x03] Work_Zone_1700[0] = 60*
232: 0x070F [0x27] REQ_SET(priority=0x10, entity_id=Midras (ID: 17855076/0x01107264), tag_num=0x04)
233: 0x0716 [0x2B] Midras (ID: 17855076/0x01107264) [8376*]:
    → "It's a document containing information about the explosives I used in Cirdas a while back."
234: 0x071D [0x23] WAIT_FOR_DIALOG_INTERACTION
235: 0x071E [0x2A] GET_REQ_LEVEL(level=16, entity_id=Midras (ID: 17855076/0x01107264))
236: 0x0724 [0x66] LOAD_EXT_SCHEDULER_MAIN: Load scheduler "tlk1" with entities [Midras (ID: 17855076/0x01107264), Midras (ID: 17855076/0x01107264)], work=149*

SUBROUTINE_0733:
237: 0x0733 [0x24] CREATE_DIALOG(message_id=8377*, default_option=0*, option_flags=0*)
    → "Help out Midras? [Let's rock./Act as cold as a stone.]"
238: 0x073A [0x25] WAIT_DIALOG_SELECT()
239: 0x073B [0x02] IF !(Work_Zone[0] == 0*) GOTO 0x07EA
240: 0x0743 [0x03] Work_Zone_1700[0] = 180*
241: 0x0748 [0x27] REQ_SET(priority=0x10, entity_id=Midras (ID: 17855076/0x01107264), tag_num=0x19)
242: 0x074F [0x2B] Midras (ID: 17855076/0x01107264) [8378*]:
    → "Outstanding! You know, <Player>, you're not half bad."
243: 0x0756 [0x23] WAIT_FOR_DIALOG_INTERACTION
244: 0x0757 [0x2A] GET_REQ_LEVEL(level=16, entity_id=Midras (ID: 17855076/0x01107264))
245: 0x075D [0x79] Midras (ID: 17855076/0x01107264) looks at EventEntity (Basic look)
246: 0x0767 [0x52] END_LOAD_SCHEDULER: End scheduler "s243" with entities [EventEntity, EventEntity], work=636*
247: 0x0776 [0x45] LOAD_SCHEDULED_TASK: Load scheduler "s245" with entities [EventEntity, EventEntity], work=[636*, 0*]
248: 0x0787 [0x81] SET_ENTITY_BLINKING(blink_flag=0x00, entity=Midras (ID: 17855076/0x01107264))
249: 0x078D [0x03] Work_Zone_1700[0] = 60*
250: 0x0792 [0x27] REQ_SET(priority=0x10, entity_id=Midras (ID: 17855076/0x01107264), tag_num=0x03)
251: 0x0799 [0x2B] Midras (ID: 17855076/0x01107264) [8379*]:
    → "I'll be heading back to the Inventors' Coalition as soon as I'm finished here."
252: 0x07A0 [0x23] WAIT_FOR_DIALOG_INTERACTION
253: 0x07A1 [0x2B] Midras (ID: 17855076/0x01107264) [8380*]:
    → "And of course, I'll tell Amchuchu to be expecting you."
254: 0x07A8 [0x23] WAIT_FOR_DIALOG_INTERACTION
255: 0x07A9 [0x2B] Midras (ID: 17855076/0x01107264) [8381*]:
    → "Report back to the coalition once you're done."
256: 0x07B0 [0x23] WAIT_FOR_DIALOG_INTERACTION
257: 0x07B1 [0x03] Work_Zone_1700[0] = 120*
258: 0x07B6 [0x27] REQ_SET(priority=0x10, entity_id=Midras (ID: 17855076/0x01107264), tag_num=0x18)
259: 0x07BD [0x2A] GET_REQ_LEVEL(level=16, entity_id=Midras (ID: 17855076/0x01107264))
260: 0x07C3 [0x81] SET_ENTITY_BLINKING(blink_flag=0x01, entity=Midras (ID: 17855076/0x01107264))
261: 0x07C9 [0x66] LOAD_EXT_SCHEDULER_MAIN: Load scheduler "tlk1" with entities [Midras (ID: 17855076/0x01107264), Midras (ID: 17855076/0x01107264)], work=9*
262: 0x07D8 [0x52] END_LOAD_SCHEDULER: End scheduler "s245" with entities [EventEntity, EventEntity], work=636*
263: 0x07E7 [0x01] GOTO 0x089B
264: 0x07EA [0x02] IF !(Work_Zone[0] == 1*) GOTO 0x089B
265: 0x07F2 [0x03] Work_Zone_1700[0] = 180*
266: 0x07F7 [0x27] REQ_SET(priority=0x10, entity_id=Midras (ID: 17855076/0x01107264), tag_num=0x0F)
267: 0x07FE [0x2B] Midras (ID: 17855076/0x01107264) [8382*]:
    → "Are you serious? With the waypoints, it's not even that far!"
268: 0x0805 [0x23] WAIT_FOR_DIALOG_INTERACTION
269: 0x0806 [0x2A] GET_REQ_LEVEL(level=16, entity_id=Midras (ID: 17855076/0x01107264))
270: 0x080C [0x79] Midras (ID: 17855076/0x01107264) looks at EventEntity (Basic look)
271: 0x0816 [0x52] END_LOAD_SCHEDULER: End scheduler "s243" with entities [EventEntity, EventEntity], work=636*
272: 0x0825 [0x45] LOAD_SCHEDULED_TASK: Load scheduler "s244" with entities [EventEntity, EventEntity], work=[636*, 0*]
273: 0x0836 [0x81] SET_ENTITY_BLINKING(blink_flag=0x00, entity=Midras (ID: 17855076/0x01107264))
274: 0x083C [0x03] Work_Zone_1700[0] = 60*
275: 0x0841 [0x27] REQ_SET(priority=0x10, entity_id=Midras (ID: 17855076/0x01107264), tag_num=0x04)
276: 0x0848 [0x2B] Midras (ID: 17855076/0x01107264) [8383*]:
    → "You're the only one I can trust with this. Would you please rethink your decision?"
277: 0x084F [0x23] WAIT_FOR_DIALOG_INTERACTION
278: 0x0850 [0x2A] GET_REQ_LEVEL(level=16, entity_id=Midras (ID: 17855076/0x01107264))
279: 0x0856 [0x81] SET_ENTITY_BLINKING(blink_flag=0x01, entity=Midras (ID: 17855076/0x01107264))
280: 0x085C [0x79] Midras (ID: 17855076/0x01107264) looks at LocalPlayer (Basic look)
281: 0x0866 [0x66] LOAD_EXT_SCHEDULER_MAIN: Load scheduler "tlk1" with entities [Midras (ID: 17855076/0x01107264), Midras (ID: 17855076/0x01107264)], work=149*
282: 0x0875 [0x52] END_LOAD_SCHEDULER: End scheduler "s244" with entities [EventEntity, EventEntity], work=636*
283: 0x0884 [0x45] LOAD_SCHEDULED_TASK: Load scheduler "s243" with entities [EventEntity, EventEntity], work=[636*, 0*]
284: 0x0895 [0x01] GOTO 0x0733

SUBROUTINE_089B:
285: 0x089B [0x36] SET_ENTITY_EVENT_POSITION(pos_x=167.500*, pos_z=154.500*, pos_y=-0.100*)
286: 0x08A2 [0x45] LOAD_SCHEDULED_TASK: Load scheduler "s246" with entities [EventEntity, EventEntity], work=[636*, 0*]
287: 0x08B3 [0x1C] WAIT(30* ticks)
288: 0x08B6 [0x27] REQ_SET(priority=0x10, entity_id=LocalPlayer, tag_num=0x23)
289: 0x08BD [0x1C] WAIT(90* ticks)
290: 0x08C0 [0x4A] Midras (ID: 17855076/0x01107264) looks at EventEntity
291: 0x08C9 [0x6F] WAIT_FRAME_DELAY: Yield until WaitTime reaches zero
292: 0x08CA [0x76] CHECK_ENTITY_RENDER_FLAGS: Wait until Midras (ID: 17855076/0x01107264) Render.Flags0 and Render.Flags3 conditions are met
293: 0x08CF [0x66] LOAD_EXT_SCHEDULER_MAIN: Load scheduler "sir0" with entities [Midras (ID: 17855076/0x01107264), Midras (ID: 17855076/0x01107264)], work=9*
294: 0x08DE [0x1C] WAIT(60* ticks)
295: 0x08E1 [0x52] END_LOAD_SCHEDULER: End scheduler "s246" with entities [EventEntity, EventEntity], work=636*
296: 0x08F0 [0x45] LOAD_SCHEDULED_TASK: Load scheduler "s248" with entities [EventEntity, EventEntity], work=[636*, 0*]
297: 0x0901 [0x4E] SET_ENTITY_HIDE_FLAG: Hide LocalPlayer
298: 0x0907 [0x4E] SET_ENTITY_HIDE_FLAG: Show Leafkin (ID: 17855077/0x01107265)
299: 0x090D [0x29] REQ_SET_WAIT(priority=0x10, entity_id=Leafkin (ID: 17855077/0x01107265), tag_num=0x02)
300: 0x0914 [0x1C] WAIT(120* ticks)
301: 0x0917 [0x52] END_LOAD_SCHEDULER: End scheduler "s248" with entities [EventEntity, EventEntity], work=636*
302: 0x0926 [0x45] LOAD_SCHEDULED_TASK: Load scheduler "s247" with entities [EventEntity, EventEntity], work=[636*, 0*]
303: 0x0937 [0x1C] WAIT(75* ticks)
304: 0x093A [0x2B] Midras (ID: 17855076/0x01107264) [8384*]:
    → "I've got enough plants for now. Just need to take a couple soil samples..."
305: 0x0941 [0x23] WAIT_FOR_DIALOG_INTERACTION
306: 0x0942 [0xBA] SET_ENTITY_POSITION(entity_id=Leafkin (ID: 17855077/0x01107265), pos_x=167.839*, pos_z=164.499*, pos_y=-0.038*, direction=112.4°*)
307: 0x094F [0x27] REQ_SET(priority=0x10, entity_id=Leafkin (ID: 17855077/0x01107265), tag_num=0x03)
308: 0x0956 [0x1C] WAIT(120* ticks)
309: 0x0959 [0x52] END_LOAD_SCHEDULER: End scheduler "s247" with entities [EventEntity, EventEntity], work=636*
310: 0x0968 [0x45] LOAD_SCHEDULED_TASK: Load scheduler "s20d" with entities [EventEntity, EventEntity], work=[636*, 0*]
311: 0x0979 [0x2A] GET_REQ_LEVEL(level=16, entity_id=Leafkin (ID: 17855077/0x01107265))
312: 0x097F [0x03] Work_Zone_1700[0] = 90*
313: 0x0984 [0x27] REQ_SET(priority=0x10, entity_id=Leafkin (ID: 17855077/0x01107265), tag_num=0x07)
314: 0x098B [0x2A] GET_REQ_LEVEL(level=16, entity_id=Leafkin (ID: 17855077/0x01107265))
315: 0x0991 [0x48] [System] [8385*]:
    → "The leafkin snatched away Midras's samples!"
316: 0x0994 [0x1C] WAIT(60* ticks)
317: 0x0997 [0x29] REQ_SET_WAIT(priority=0x10, entity_id=Leafkin (ID: 17855077/0x01107265), tag_num=0x0A)
318: 0x099E [0x1C] WAIT(30* ticks)
319: 0x09A1 [0x66] LOAD_EXT_SCHEDULER_MAIN: Load scheduler "sir1" with entities [Midras (ID: 17855076/0x01107264), Midras (ID: 17855076/0x01107264)], work=9*
320: 0x09B0 [0x1C] WAIT(30* ticks)
321: 0x09B3 [0x2B] Midras (ID: 17855076/0x01107264) [8386*]:
    → "Hm? <Player>? Is that you?"
322: 0x09BA [0x23] WAIT_FOR_DIALOG_INTERACTION
323: 0x09BB [0x66] LOAD_EXT_SCHEDULER_MAIN: Load scheduler "sha1" with entities [Midras (ID: 17855076/0x01107264), Midras (ID: 17855076/0x01107264)], work=9*
324: 0x09CA [0x1C] WAIT(30* ticks)
325: 0x09CD [0x52] END_LOAD_SCHEDULER: End scheduler "s20d" with entities [EventEntity, EventEntity], work=636*
326: 0x09DC [0x45] LOAD_SCHEDULED_TASK: Load scheduler "s249" with entities [EventEntity, EventEntity], work=[636*, 0*]
327: 0x09ED [0x1C] WAIT(30* ticks)
328: 0x09F0 [0x03] Work_Zone_1700[0] = 60*
329: 0x09F5 [0x27] REQ_SET(priority=0x10, entity_id=Leafkin (ID: 17855077/0x01107265), tag_num=0x04)
330: 0x09FC [0x1C] WAIT(90* ticks)
331: 0x09FF [0x4A] Midras (ID: 17855076/0x01107264) looks at LocalPlayer
332: 0x0A08 [0x6F] WAIT_FRAME_DELAY: Yield until WaitTime reaches zero
333: 0x0A09 [0x76] CHECK_ENTITY_RENDER_FLAGS: Wait until Midras (ID: 17855076/0x01107264) Render.Flags0 and Render.Flags3 conditions are met
334: 0x0A0E [0x2A] GET_REQ_LEVEL(level=16, entity_id=Leafkin (ID: 17855077/0x01107265))
335: 0x0A14 [0x81] SET_ENTITY_BLINKING(blink_flag=0x00, entity=Midras (ID: 17855076/0x01107264))
336: 0x0A1A [0x03] Work_Zone_1700[0] = 90*
337: 0x0A1F [0x27] REQ_SET(priority=0x10, entity_id=Midras (ID: 17855076/0x01107264), tag_num=0x17)
338: 0x0A26 [0x27] REQ_SET(priority=0x10, entity_id=Leafkin (ID: 17855077/0x01107265), tag_num=0x09)
339: 0x0A2D [0x52] END_LOAD_SCHEDULER: End scheduler "s249" with entities [EventEntity, EventEntity], work=636*
340: 0x0A3C [0x45] LOAD_SCHEDULED_TASK: Load scheduler "s250" with entities [EventEntity, EventEntity], work=[636*, 0*]
341: 0x0A4D [0x2B] Midras (ID: 17855076/0x01107264) [8387*]:
    → "Odd. I could have sworn I heard something."
342: 0x0A54 [0x23] WAIT_FOR_DIALOG_INTERACTION
343: 0x0A55 [0x2A] GET_REQ_LEVEL(level=16, entity_id=Midras (ID: 17855076/0x01107264))
344: 0x0A5B [0x52] END_LOAD_SCHEDULER: End scheduler "s250" with entities [EventEntity, EventEntity], work=636*
345: 0x0A6A [0x45] LOAD_SCHEDULED_TASK: Load scheduler "s251" with entities [EventEntity, EventEntity], work=[636*, 0*]
346: 0x0A7B [0x66] LOAD_EXT_SCHEDULER_MAIN: Load scheduler "thk1" with entities [Midras (ID: 17855076/0x01107264), Midras (ID: 17855076/0x01107264)], work=149*
347: 0x0A8A [0x7C] Midras (ID: 17855076/0x01107264)->Render.Flags2 |= 0x00
348: 0x0A90 [0x1C] WAIT(30* ticks)
349: 0x0A93 [0x03] Work_Zone_1700[0] = 90*
350: 0x0A98 [0x27] REQ_SET(priority=0x10, entity_id=Midras (ID: 17855076/0x01107264), tag_num=0x1D)
351: 0x0A9F [0x2B] Midras (ID: 17855076/0x01107264) [8388*]:
    → "...!"
352: 0x0AA6 [0x23] WAIT_FOR_DIALOG_INTERACTION
353: 0x0AA7 [0x66] LOAD_EXT_SCHEDULER_MAIN: Load scheduler "ls00" with entities [Midras (ID: 17855076/0x01107264), Midras (ID: 17855076/0x01107264)], work=78*
354: 0x0AB6 [0x2A] GET_REQ_LEVEL(level=16, entity_id=Midras (ID: 17855076/0x01107264))
355: 0x0ABC [0x7C] Midras (ID: 17855076/0x01107264)->Render.Flags2 |= 0x01
356: 0x0AC2 [0x81] SET_ENTITY_BLINKING(blink_flag=0x01, entity=Midras (ID: 17855076/0x01107264))
357: 0x0AC8 [0x52] END_LOAD_SCHEDULER: End scheduler "s251" with entities [EventEntity, EventEntity], work=636*
358: 0x0AD7 [0x45] LOAD_SCHEDULED_TASK: Load scheduler "s252" with entities [EventEntity, EventEntity], work=[636*, 0*]
359: 0x0AE8 [0x1D] PRINT_EVENT_MESSAGE(message_id=8389*)
    → "(Omega, we are waiting for your report.)"
360: 0x0AEB [0x23] WAIT_FOR_DIALOG_INTERACTION
361: 0x0AEC [0x2B] Midras (ID: 17855076/0x01107264) [8390*]:
    → "(This is Omega. I will have something to report to you soon. Within the next few days, at the latest.)"
362: 0x0AF3 [0x23] WAIT_FOR_DIALOG_INTERACTION
363: 0x0AF4 [0x2B] Midras (ID: 17855076/0x01107264) [8391*]:
    → "(I am in the process of acquiring samples that will shed light on the effects these special energies have on the land.)"
364: 0x0AFB [0x23] WAIT_FOR_DIALOG_INTERACTION
365: 0x0AFC [0x66] LOAD_EXT_SCHEDULER_MAIN: Load scheduler "ls01" with entities [Midras (ID: 17855076/0x01107264), Midras (ID: 17855076/0x01107264)], work=78*
366: 0x0B0B [0x1C] WAIT(30* ticks)
367: 0x0B0E [0x03] Work_Zone_1700[0] = 180*
368: 0x0B13 [0x27] REQ_SET(priority=0x10, entity_id=Midras (ID: 17855076/0x01107264), tag_num=0x15)
369: 0x0B1A [0x2B] Midras (ID: 17855076/0x01107264) [8392*]:
    → "Wait--my...my samples!"
370: 0x0B21 [0x23] WAIT_FOR_DIALOG_INTERACTION
371: 0x0B22 [0x2A] GET_REQ_LEVEL(level=16, entity_id=Midras (ID: 17855076/0x01107264))
372: 0x0B28 [0x4A] Midras (ID: 17855076/0x01107264) looks at Leafkin (ID: 17855077/0x01107265)
373: 0x0B31 [0x6F] WAIT_FRAME_DELAY: Yield until WaitTime reaches zero
374: 0x0B32 [0x76] CHECK_ENTITY_RENDER_FLAGS: Wait until Midras (ID: 17855076/0x01107264) Render.Flags0 and Render.Flags3 conditions are met
375: 0x0B37 [0x4E] SET_ENTITY_HIDE_FLAG: Hide Midras (ID: 17855076/0x01107264)
376: 0x0B3D [0x52] END_LOAD_SCHEDULER: End scheduler "s252" with entities [EventEntity, EventEntity], work=636*
377: 0x0B4C [0x45] LOAD_SCHEDULED_TASK: Load scheduler "s253" with entities [EventEntity, EventEntity], work=[636*, 0*]
378: 0x0B5D [0x1C] WAIT(60* ticks)
379: 0x0B60 [0x5B] LOAD_EXT_SCHEDULER: Load scheduler "kbts" with entities [Leafkin (ID: 17855077/0x01107265), Leafkin (ID: 17855077/0x01107265)], work=3250*
380: 0x0B6F [0x29] REQ_SET_WAIT(priority=0x10, entity_id=Leafkin (ID: 17855077/0x01107265), tag_num=0x0A)
381: 0x0B76 [0x1C] WAIT(180* ticks)
382: 0x0B79 [0x4E] SET_ENTITY_HIDE_FLAG: Show Midras (ID: 17855076/0x01107264)
383: 0x0B7F [0x52] END_LOAD_SCHEDULER: End scheduler "s253" with entities [EventEntity, EventEntity], work=636*
384: 0x0B8E [0x45] LOAD_SCHEDULED_TASK: Load scheduler "s271" with entities [EventEntity, EventEntity], work=[636*, 0*]
385: 0x0B9F [0x1C] WAIT(180* ticks)
386: 0x0BA2 [0x27] REQ_SET(priority=0x10, entity_id=Midras (ID: 17855076/0x01107264), tag_num=0x1C)
387: 0x0BA9 [0x1C] WAIT(120* ticks)
388: 0x0BAC [0x52] END_LOAD_SCHEDULER: End scheduler "s271" with entities [EventEntity, EventEntity], work=636*
389: 0x0BBB [0x45] LOAD_SCHEDULED_TASK: Load scheduler "s254" with entities [EventEntity, EventEntity], work=[636*, 0*]
390: 0x0BCC [0x03] Work_Zone_1700[0] = 120*
391: 0x0BD1 [0x2B] Midras (ID: 17855076/0x01107264) [8393*]:
    → "Nooooooooo!!!"
392: 0x0BD8 [0x23] WAIT_FOR_DIALOG_INTERACTION
393: 0x0BD9 [0x2A] GET_REQ_LEVEL(level=16, entity_id=Midras (ID: 17855076/0x01107264))
394: 0x0BDF [0x4A] Midras (ID: 17855076/0x01107264) looks at LocalPlayer
395: 0x0BE8 [0x52] END_LOAD_SCHEDULER: End scheduler "s254" with entities [EventEntity, EventEntity], work=636*
396: 0x0BF7 [0x45] LOAD_SCHEDULED_TASK: Load scheduler "s255" with entities [EventEntity, EventEntity], work=[636*, 0*]
397: 0x0C08 [0x7B] Midras (ID: 17855076/0x01107264) stops talking
398: 0x0C0D [0x1C] WAIT(30* ticks)
399: 0x0C10 [0x27] REQ_SET(priority=0x10, entity_id=Midras (ID: 17855076/0x01107264), tag_num=0x09)
400: 0x0C17 [0x03] Work_Zone_1700[0] = 120*
401: 0x0C1C [0x27] REQ_SET(priority=0x10, entity_id=Leafkin (ID: 17855077/0x01107265), tag_num=0x05)
402: 0x0C23 [0x2A] GET_REQ_LEVEL(level=16, entity_id=Leafkin (ID: 17855077/0x01107265))
403: 0x0C29 [0x4E] SET_ENTITY_HIDE_FLAG: Show Hektor (ID: 17855078/0x01107266)
404: 0x0C2F [0x52] END_LOAD_SCHEDULER: End scheduler "s255" with entities [EventEntity, EventEntity], work=636*
405: 0x0C3E [0x45] LOAD_SCHEDULED_TASK: Load scheduler "s256" with entities [EventEntity, EventEntity], work=[636*, 0*]
406: 0x0C4F [0x4E] SET_ENTITY_HIDE_FLAG: Hide Midras (ID: 17855076/0x01107264)
407: 0x0C55 [0x1C] WAIT(30* ticks)
408: 0x0C58 [0x66] LOAD_EXT_SCHEDULER_MAIN: Load scheduler "sha1" with entities [Hektor (ID: 17855078/0x01107266), Hektor (ID: 17855078/0x01107266)], work=9*
409: 0x0C67 [0x03] Work_Zone_1700[0] = 60*
410: 0x0C6C [0x27] REQ_SET(priority=0x10, entity_id=Hektor (ID: 17855078/0x01107266), tag_num=0x07)
411: 0x0C73 [0x2B] Hektor (ID: 17855078/0x01107266) [8394*]:
    → "I knew Midras was up to no good."
412: 0x0C7A [0x23] WAIT_FOR_DIALOG_INTERACTION
413: 0x0C7B [0x2A] GET_REQ_LEVEL(level=16, entity_id=Hektor (ID: 17855078/0x01107266))
414: 0x0C81 [0x52] END_LOAD_SCHEDULER: End scheduler "s256" with entities [EventEntity, EventEntity], work=636*
415: 0x0C90 [0x45] LOAD_SCHEDULED_TASK: Load scheduler "s257" with entities [EventEntity, EventEntity], work=[636*, 0*]
416: 0x0CA1 [0x27] REQ_SET(priority=0x10, entity_id=Hektor (ID: 17855078/0x01107266), tag_num=0x02)
417: 0x0CA8 [0x1C] WAIT(120* ticks)
418: 0x0CAB [0x4A] Leafkin (ID: 17855077/0x01107265) looks at Hektor (ID: 17855078/0x01107266)
419: 0x0CB4 [0x03] Work_Zone_1700[0] = 120*
420: 0x0CB9 [0x27] REQ_SET(priority=0x10, entity_id=Leafkin (ID: 17855077/0x01107265), tag_num=0x08)
421: 0x0CC0 [0x2A] GET_REQ_LEVEL(level=16, entity_id=Leafkin (ID: 17855077/0x01107265))
422: 0x0CC6 [0x5B] LOAD_EXT_SCHEDULER: Load scheduler "kiks" with entities [Leafkin (ID: 17855077/0x01107265), Leafkin (ID: 17855077/0x01107265)], work=3255*
423: 0x0CD5 [0x27] REQ_SET(priority=0x10, entity_id=Leafkin (ID: 17855077/0x01107265), tag_num=0x06)
424: 0x0CDC [0x1C] WAIT(60* ticks)
425: 0x0CDF [0x52] END_LOAD_SCHEDULER: End scheduler "s257" with entities [EventEntity, EventEntity], work=636*
426: 0x0CEE [0x45] LOAD_SCHEDULED_TASK: Load scheduler "s258" with entities [EventEntity, EventEntity], work=[636*, 0*]
427: 0x0CFF [0x33] EventEntity->Render.Flags0 &= ~ 0x200000 // Bit 21 (flag=0x00)
428: 0x0D01 [0x36] SET_ENTITY_EVENT_POSITION(pos_x=167.344*, pos_z=159.466*, pos_y=-0.209*)
429: 0x0D08 [0x2A] GET_REQ_LEVEL(level=16, entity_id=Hektor (ID: 17855078/0x01107266))
430: 0x0D0E [0x1C] WAIT(30* ticks)
431: 0x0D11 [0x62] LOAD_EVENT_SCHEDULER: Load scheduler "main" with entities [EventEntity, EventEntity], work=[3*, 0*]
432: 0x0D22 [0x1C] WAIT(60* ticks)
433: 0x0D25 [0x4A] Hektor (ID: 17855078/0x01107266) looks at EventEntity
434: 0x0D2E [0x6F] WAIT_FRAME_DELAY: Yield until WaitTime reaches zero
435: 0x0D2F [0x76] CHECK_ENTITY_RENDER_FLAGS: Wait until Hektor (ID: 17855078/0x01107266) Render.Flags0 and Render.Flags3 conditions are met
436: 0x0D34 [0x27] REQ_SET(priority=0x10, entity_id=Hektor (ID: 17855078/0x01107266), tag_num=0x03)
437: 0x0D3B [0x2A] GET_REQ_LEVEL(level=16, entity_id=Hektor (ID: 17855078/0x01107266))
438: 0x0D41 [0x66] LOAD_EXT_SCHEDULER_MAIN: Load scheduler "sir0" with entities [Hektor (ID: 17855078/0x01107266), Hektor (ID: 17855078/0x01107266)], work=9*
439: 0x0D50 [0x1C] WAIT(10* ticks)
440: 0x0D53 [0x52] END_LOAD_SCHEDULER: End scheduler "s258" with entities [EventEntity, EventEntity], work=636*
441: 0x0D62 [0x45] LOAD_SCHEDULED_TASK: Load scheduler "s259" with entities [EventEntity, EventEntity], work=[636*, 0*]
442: 0x0D73 [0x2A] GET_REQ_LEVEL(level=16, entity_id=Hektor (ID: 17855078/0x01107266))
443: 0x0D79 [0x66] LOAD_EXT_SCHEDULER_MAIN: Load scheduler "sir0" with entities [Hektor (ID: 17855078/0x01107266), Hektor (ID: 17855078/0x01107266)], work=9*
444: 0x0D88 [0x03] Work_Zone_1700[0] = 60*
445: 0x0D8D [0x27] REQ_SET(priority=0x10, entity_id=Hektor (ID: 17855078/0x01107266), tag_num=0x07)
446: 0x0D94 [0x2B] Hektor (ID: 17855078/0x01107266) [8395*]:
    → "Oh? What's this, then?"
447: 0x0D9B [0x23] WAIT_FOR_DIALOG_INTERACTION
448: 0x0D9C [0x2A] GET_REQ_LEVEL(level=16, entity_id=Hektor (ID: 17855078/0x01107266))
449: 0x0DA2 [0x66] LOAD_EXT_SCHEDULER_MAIN: Load scheduler "sir1" with entities [Hektor (ID: 17855078/0x01107266), Hektor (ID: 17855078/0x01107266)], work=9*
450: 0x0DB1 [0x03] Work_Zone_1700[0] = 60*
451: 0x0DB6 [0x27] REQ_SET(priority=0x10, entity_id=Hektor (ID: 17855078/0x01107266), tag_num=0x07)
452: 0x0DBD [0x1D] PRINT_EVENT_MESSAGE(message_id=8396*)
    → "(Omega, is everything okay?)"
453: 0x0DC0 [0x23] WAIT_FOR_DIALOG_INTERACTION
454: 0x0DC1 [0x2A] GET_REQ_LEVEL(level=16, entity_id=Hektor (ID: 17855078/0x01107266))
455: 0x0DC7 [0x52] END_LOAD_SCHEDULER: End scheduler "s259" with entities [EventEntity, EventEntity], work=636*
456: 0x0DD6 [0x45] LOAD_SCHEDULED_TASK: Load scheduler "s260" with entities [EventEntity, EventEntity], work=[636*, 0*]
457: 0x0DE7 [0x81] SET_ENTITY_BLINKING(blink_flag=0x00, entity=Hektor (ID: 17855078/0x01107266))
458: 0x0DED [0x7C] Hektor (ID: 17855078/0x01107266)->Render.Flags2 |= 0x00
459: 0x0DF3 [0x03] Work_Zone_1700[0] = 60*
460: 0x0DF8 [0x27] REQ_SET(priority=0x10, entity_id=Hektor (ID: 17855078/0x01107266), tag_num=0x07)
461: 0x0DFF [0x2B] Hektor (ID: 17855078/0x01107266) [8397*]:
    → "<Gulp>"
462: 0x0E06 [0x23] WAIT_FOR_DIALOG_INTERACTION
463: 0x0E07 [0x2A] GET_REQ_LEVEL(level=16, entity_id=Hektor (ID: 17855078/0x01107266))
464: 0x0E0D [0x81] SET_ENTITY_BLINKING(blink_flag=0x01, entity=Hektor (ID: 17855078/0x01107266))
465: 0x0E13 [0x7C] Hektor (ID: 17855078/0x01107266)->Render.Flags2 |= 0x01
466: 0x0E19 [0x52] END_LOAD_SCHEDULER: End scheduler "s260" with entities [EventEntity, EventEntity], work=636*
467: 0x0E28 [0x45] LOAD_SCHEDULED_TASK: Load scheduler "s261" with entities [EventEntity, EventEntity], work=[636*, 0*]
468: 0x0E39 [0x66] LOAD_EXT_SCHEDULER_MAIN: Load scheduler "sha1" with entities [Hektor (ID: 17855078/0x01107266), Hektor (ID: 17855078/0x01107266)], work=9*
469: 0x0E48 [0x1C] WAIT(90* ticks)
470: 0x0E4B [0x66] LOAD_EXT_SCHEDULER_MAIN: Load scheduler "ls00" with entities [Hektor (ID: 17855078/0x01107266), Hektor (ID: 17855078/0x01107266)], work=78*
471: 0x0E5A [0x1C] WAIT(60* ticks)
472: 0x0E5D [0x03] Work_Zone_1700[0] = 120*
473: 0x0E62 [0x27] REQ_SET(priority=0x10, entity_id=Hektor (ID: 17855078/0x01107266), tag_num=0x07)
474: 0x0E69 [0x2B] Hektor (ID: 17855078/0x01107266) [8398*]:
    → "(Y-yes! Nothing to report here!)"
475: 0x0E70 [0x23] WAIT_FOR_DIALOG_INTERACTION
476: 0x0E71 [0x2A] GET_REQ_LEVEL(level=16, entity_id=Hektor (ID: 17855078/0x01107266))
477: 0x0E77 [0x52] END_LOAD_SCHEDULER: End scheduler "s261" with entities [EventEntity, EventEntity], work=636*
478: 0x0E86 [0x45] LOAD_SCHEDULED_TASK: Load scheduler "s20e" with entities [EventEntity, EventEntity], work=[636*, 0*]
479: 0x0E97 [0x1D] PRINT_EVENT_MESSAGE(message_id=8399*)
    → "(...You are not Omega.)"
480: 0x0E9A [0x23] WAIT_FOR_DIALOG_INTERACTION
481: 0x0E9B [0x1C] WAIT(60* ticks)
482: 0x0E9E [0x48] [System] [8400*]:
    → "The linkpearl shatters into grains of dust."
483: 0x0EA1 [0x1C] WAIT(60* ticks)
484: 0x0EA4 [0x03] Work_Zone_1700[0] = 30*
485: 0x0EA9 [0x27] REQ_SET(priority=0x10, entity_id=Hektor (ID: 17855078/0x01107266), tag_num=0x07)
486: 0x0EB0 [0x66] LOAD_EXT_SCHEDULER_MAIN: Load scheduler "ls01" with entities [Hektor (ID: 17855078/0x01107266), Hektor (ID: 17855078/0x01107266)], work=78*
487: 0x0EBF [0x2A] GET_REQ_LEVEL(level=16, entity_id=Hektor (ID: 17855078/0x01107266))
488: 0x0EC5 [0x52] END_LOAD_SCHEDULER: End scheduler "s20e" with entities [EventEntity, EventEntity], work=636*
489: 0x0ED4 [0x45] LOAD_SCHEDULED_TASK: Load scheduler "s262" with entities [EventEntity, EventEntity], work=[636*, 0*]
490: 0x0EE5 [0x1C] WAIT(30* ticks)
491: 0x0EE8 [0x03] Work_Zone_1700[0] = 90*
492: 0x0EED [0x27] REQ_SET(priority=0x10, entity_id=Hektor (ID: 17855078/0x01107266), tag_num=0x05)
493: 0x0EF4 [0x2B] Hektor (ID: 17855078/0x01107266) [8401*]:
    → "Damn it! I shoulda just kept my mouth shut."
494: 0x0EFB [0x23] WAIT_FOR_DIALOG_INTERACTION
495: 0x0EFC [0x2A] GET_REQ_LEVEL(level=16, entity_id=Hektor (ID: 17855078/0x01107266))
496: 0x0F02 [0x52] END_LOAD_SCHEDULER: End scheduler "s262" with entities [EventEntity, EventEntity], work=636*
497: 0x0F11 [0x45] LOAD_SCHEDULED_TASK: Load scheduler "s275" with entities [EventEntity, EventEntity], work=[636*, 0*]
498: 0x0F22 [0x1C] WAIT(30* ticks)
499: 0x0F25 [0x03] Work_Zone_1700[0] = 120*
500: 0x0F2A [0x27] REQ_SET(priority=0x10, entity_id=Hektor (ID: 17855078/0x01107266), tag_num=0x06)
501: 0x0F31 [0x2B] Hektor (ID: 17855078/0x01107266) [8402*]:
    → "On the bright side, now I know that Midras has been communicating with someone."
502: 0x0F38 [0x23] WAIT_FOR_DIALOG_INTERACTION
503: 0x0F39 [0x2A] GET_REQ_LEVEL(level=16, entity_id=Hektor (ID: 17855078/0x01107266))
504: 0x0F3F [0x1C] WAIT(30* ticks)
505: 0x0F42 [0x52] END_LOAD_SCHEDULER: End scheduler "s275" with entities [EventEntity, EventEntity], work=636*
506: 0x0F51 [0x45] LOAD_SCHEDULED_TASK: Load scheduler "s263" with entities [EventEntity, EventEntity], work=[636*, 0*]
507: 0x0F62 [0x4A] Hektor (ID: 17855078/0x01107266) looks at LocalPlayer
508: 0x0F6B [0x6F] WAIT_FRAME_DELAY: Yield until WaitTime reaches zero
509: 0x0F6C [0x76] CHECK_ENTITY_RENDER_FLAGS: Wait until Hektor (ID: 17855078/0x01107266) Render.Flags0 and Render.Flags3 conditions are met
510: 0x0F71 [0x7B] Hektor (ID: 17855078/0x01107266) stops talking
511: 0x0F76 [0x27] REQ_SET(priority=0x10, entity_id=Hektor (ID: 17855078/0x01107266), tag_num=0x04)
512: 0x0F7D [0x2B] Hektor (ID: 17855078/0x01107266) [8403*]:
    → "There's no time to waste. I must report this to Gratzigg immediately!"
513: 0x0F84 [0x23] WAIT_FOR_DIALOG_INTERACTION
514: 0x0F85 [0x1C] WAIT(180* ticks)
515: 0x0F88 [0x52] END_LOAD_SCHEDULER: End scheduler "s263" with entities [EventEntity, EventEntity], work=636*
516: 0x0F97 [0x45] LOAD_SCHEDULED_TASK: Load scheduler "fdo1" with entities [LocalPlayer, LocalPlayer], work=[200*, 0*]
517: 0x0FA8 [0x55] WAIT_LOAD_SCHEDULER: Wait for scheduler "fdo1" with entities [LocalPlayer, LocalPlayer], work=200*
518: 0x0FB7 [0x7B] Midras (ID: 17855076/0x01107264) stops talking
519: 0x0FBC [0xBA] SET_ENTITY_POSITION(entity_id=Midras (ID: 17855076/0x01107264), pos_x=189.807*, pos_z=260.349*, pos_y=-0.086*, direction=179.9°*)
520: 0x0FC9 [0xBA] SET_ENTITY_POSITION(entity_id=Leafkin (ID: 17855077/0x01107265), pos_x=167.985*, pos_z=155.955*, pos_y=-0.246*, direction=377476151.8°*)
521: 0x0FD6 [0x4E] SET_ENTITY_HIDE_FLAG: Show Midras (ID: 17855076/0x01107264)
522: 0x0FDC [0x4E] SET_ENTITY_HIDE_FLAG: Show Leafkin (ID: 17855077/0x01107265)
523: 0x0FE2 [0x80] LOAD_WAIT(entity=Midras (ID: 17855076/0x01107264))
524: 0x0FE7 [0x45] LOAD_SCHEDULED_TASK: Load scheduler "fdi1" with entities [LocalPlayer, LocalPlayer], work=[200*, 0*]
525: 0x0FF8 [0x45] LOAD_SCHEDULED_TASK: Load scheduler "s264" with entities [EventEntity, EventEntity], work=[636*, 0*]
526: 0x1009 [0x29] REQ_SET_WAIT(priority=0x10, entity_id=Midras (ID: 17855076/0x01107264), tag_num=0x0A)
527: 0x1010 [0x5B] LOAD_EXT_SCHEDULER: Load scheduler "sha0" with entities [Midras (ID: 17855076/0x01107264), Midras (ID: 17855076/0x01107264)], work=1093*
528: 0x101F [0x1C] WAIT(30* ticks)
529: 0x1022 [0x5B] LOAD_EXT_SCHEDULER: Load scheduler "pe00" with entities [Midras (ID: 17855076/0x01107264), Midras (ID: 17855076/0x01107264)], work=931*
530: 0x1031 [0x52] END_LOAD_SCHEDULER: End scheduler "s264" with entities [EventEntity, EventEntity], work=636*
531: 0x1040 [0x45] LOAD_SCHEDULED_TASK: Load scheduler "s265" with entities [EventEntity, EventEntity], work=[636*, 0*]
532: 0x1051 [0x1C] WAIT(60* ticks)
533: 0x1054 [0x03] Work_Zone_1700[0] = 120*
534: 0x1059 [0x27] REQ_SET(priority=0x10, entity_id=Midras (ID: 17855076/0x01107264), tag_num=0x1D)
535: 0x1060 [0x5B] LOAD_EXT_SCHEDULER: Load scheduler "pe01" with entities [Midras (ID: 17855076/0x01107264), Midras (ID: 17855076/0x01107264)], work=931*
536: 0x106F [0x2B] Midras (ID: 17855076/0x01107264) [8404*]:
    → "<Huff> <puff> What is this stupid thing!?"
537: 0x1076 [0x23] WAIT_FOR_DIALOG_INTERACTION
538: 0x1077 [0x2A] GET_REQ_LEVEL(level=16, entity_id=Midras (ID: 17855076/0x01107264))
539: 0x107D [0x52] END_LOAD_SCHEDULER: End scheduler "s265" with entities [EventEntity, EventEntity], work=636*
540: 0x108C [0x45] LOAD_SCHEDULED_TASK: Load scheduler "s266" with entities [EventEntity, EventEntity], work=[636*, 0*]
541: 0x109D [0x03] Work_Zone_1700[0] = 120*
542: 0x10A2 [0x27] REQ_SET(priority=0x10, entity_id=Midras (ID: 17855076/0x01107264), tag_num=0x1D)
543: 0x10A9 [0x2B] Midras (ID: 17855076/0x01107264) [8405*]:
    → "The way it looks at me with those eyes, choking every fiber of my being..."
544: 0x10B0 [0x23] WAIT_FOR_DIALOG_INTERACTION
545: 0x10B1 [0x2A] GET_REQ_LEVEL(level=16, entity_id=Midras (ID: 17855076/0x01107264))
546: 0x10B7 [0x52] END_LOAD_SCHEDULER: End scheduler "s266" with entities [EventEntity, EventEntity], work=636*
547: 0x10C6 [0x27] REQ_SET(priority=0x10, entity_id=Midras (ID: 17855076/0x01107264), tag_num=0x06)
548: 0x10CD [0x45] LOAD_SCHEDULED_TASK: Load scheduler "s267" with entities [EventEntity, EventEntity], work=[636*, 0*]
549: 0x10DE [0x27] REQ_SET(priority=0x10, entity_id=Leafkin (ID: 17855077/0x01107265), tag_num=0x08)
550: 0x10E5 [0x03] Work_Zone_1700[0] = 90*
551: 0x10EA [0x27] REQ_SET(priority=0x10, entity_id=Midras (ID: 17855076/0x01107264), tag_num=0x1D)
552: 0x10F1 [0x2B] Midras (ID: 17855076/0x01107264) [8406*]:
    → "And what is it with those leaves? Just what exactly are they covering?"
553: 0x10F8 [0x23] WAIT_FOR_DIALOG_INTERACTION
554: 0x10F9 [0x2A] GET_REQ_LEVEL(level=16, entity_id=Midras (ID: 17855076/0x01107264))
555: 0x10FF [0x5B] LOAD_EXT_SCHEDULER: Load scheduler "kiks" with entities [Leafkin (ID: 17855077/0x01107265), Leafkin (ID: 17855077/0x01107265)], work=3255*
556: 0x110E [0x52] END_LOAD_SCHEDULER: End scheduler "s267" with entities [EventEntity, EventEntity], work=636*
557: 0x111D [0x45] LOAD_SCHEDULED_TASK: Load scheduler "s268" with entities [EventEntity, EventEntity], work=[636*, 0*]
558: 0x112E [0x81] SET_ENTITY_BLINKING(blink_flag=0x00, entity=Midras (ID: 17855076/0x01107264))
559: 0x1134 [0x03] Work_Zone_1700[0] = 60*
560: 0x1139 [0x27] REQ_SET(priority=0x10, entity_id=Midras (ID: 17855076/0x01107264), tag_num=0x1D)
561: 0x1140 [0x2B] Midras (ID: 17855076/0x01107264) [8407*]:
    → "Ugh, just thinking about it gives me goosebumps!"
562: 0x1147 [0x23] WAIT_FOR_DIALOG_INTERACTION
563: 0x1148 [0x2A] GET_REQ_LEVEL(level=16, entity_id=Midras (ID: 17855076/0x01107264))
564: 0x114E [0x03] Work_Zone_1700[0] = 150*
565: 0x1153 [0x27] REQ_SET(priority=0x10, entity_id=Midras (ID: 17855076/0x01107264), tag_num=0x07)
566: 0x115A [0x2B] Midras (ID: 17855076/0x01107264) [8408*]:
    → "Adoulin truly is a terrifying land filled with all manner of nasty monstrosities."
567: 0x1161 [0x23] WAIT_FOR_DIALOG_INTERACTION
568: 0x1162 [0x2A] GET_REQ_LEVEL(level=16, entity_id=Midras (ID: 17855076/0x01107264))
569: 0x1168 [0x5B] LOAD_EXT_SCHEDULER: Load scheduler "ase1" with entities [Midras (ID: 17855076/0x01107264), Midras (ID: 17855076/0x01107264)], work=1298*
570: 0x1177 [0x81] SET_ENTITY_BLINKING(blink_flag=0x01, entity=Midras (ID: 17855076/0x01107264))
571: 0x117D [0x52] END_LOAD_SCHEDULER: End scheduler "s268" with entities [EventEntity, EventEntity], work=636*
572: 0x118C [0x45] LOAD_SCHEDULED_TASK: Load scheduler "s269" with entities [EventEntity, EventEntity], work=[636*, 0*]
573: 0x119D [0x03] Work_Zone_1700[0] = 150*
574: 0x11A2 [0x27] REQ_SET(priority=0x10, entity_id=Midras (ID: 17855076/0x01107264), tag_num=0x15)
575: 0x11A9 [0x2B] Midras (ID: 17855076/0x01107264) [8409*]:
    → "My linkpearl and report--where did they go!?"
576: 0x11B0 [0x23] WAIT_FOR_DIALOG_INTERACTION
577: 0x11B1 [0x2A] GET_REQ_LEVEL(level=16, entity_id=Midras (ID: 17855076/0x01107264))
578: 0x11B7 [0x52] END_LOAD_SCHEDULER: End scheduler "s269" with entities [EventEntity, EventEntity], work=636*
579: 0x11C6 [0x45] LOAD_SCHEDULED_TASK: Load scheduler "s274" with entities [EventEntity, EventEntity], work=[636*, 0*]
580: 0x11D7 [0x27] REQ_SET(priority=0x10, entity_id=Midras (ID: 17855076/0x01107264), tag_num=0x0C)
581: 0x11DE [0x2A] GET_REQ_LEVEL(level=16, entity_id=Midras (ID: 17855076/0x01107264))
582: 0x11E4 [0x03] Work_Zone_1700[0] = 60*
583: 0x11E9 [0x27] REQ_SET(priority=0x10, entity_id=Midras (ID: 17855076/0x01107264), tag_num=0x14)
584: 0x11F0 [0x2B] Midras (ID: 17855076/0x01107264) [8410*]:
    → "This is terrible. I must have left them behind."
585: 0x11F7 [0x23] WAIT_FOR_DIALOG_INTERACTION
586: 0x11F8 [0x2A] GET_REQ_LEVEL(level=16, entity_id=Midras (ID: 17855076/0x01107264))
587: 0x11FE [0x03] Work_Zone_1700[0] = 150*
588: 0x1203 [0x27] REQ_SET(priority=0x10, entity_id=Midras (ID: 17855076/0x01107264), tag_num=0x08)
589: 0x120A [0x2B] Midras (ID: 17855076/0x01107264) [8411*]:
    → "But what if that...that thing comes back to assault me? No way I'm going back there!"
590: 0x1211 [0x23] WAIT_FOR_DIALOG_INTERACTION
591: 0x1212 [0x2A] GET_REQ_LEVEL(level=16, entity_id=Midras (ID: 17855076/0x01107264))
592: 0x1218 [0x66] LOAD_EXT_SCHEDULER_MAIN: Load scheduler "sdo1" with entities [Midras (ID: 17855076/0x01107264), Midras (ID: 17855076/0x01107264)], work=3*
593: 0x1227 [0x1C] WAIT(45* ticks)
594: 0x122A [0x52] END_LOAD_SCHEDULER: End scheduler "s274" with entities [EventEntity, EventEntity], work=636*
595: 0x1239 [0x45] LOAD_SCHEDULED_TASK: Load scheduler "s270" with entities [EventEntity, EventEntity], work=[636*, 0*]
596: 0x124A [0x1C] WAIT(60* ticks)
597: 0x124D [0x27] REQ_SET(priority=0x10, entity_id=Midras (ID: 17855076/0x01107264), tag_num=0x0B)
598: 0x1254 [0x2B] Midras (ID: 17855076/0x01107264) [8412*]:
    → "I'll have to return there tomorrow. Hopefully it'll be safe then."
599: 0x125B [0x23] WAIT_FOR_DIALOG_INTERACTION
600: 0x125C [0x1C] WAIT(180* ticks)
601: 0x125F [0x45] LOAD_SCHEDULED_TASK: Load scheduler "fdo1" with entities [LocalPlayer, LocalPlayer], work=[200*, 0*]
602: 0x1270 [0x55] WAIT_LOAD_SCHEDULER: Wait for scheduler "fdo1" with entities [LocalPlayer, LocalPlayer], work=200*
603: 0x127F [0x52] END_LOAD_SCHEDULER: End scheduler "s270" with entities [EventEntity, EventEntity], work=636*
604: 0x128E [0x46] CAMERA_CONTROL: Restore default settings
605: 0x1290 [0x45] LOAD_SCHEDULED_TASK: Load scheduler "fdi2" with entities [LocalPlayer, LocalPlayer], work=[200*, 0*]
606: 0x12A1 [0x05] Work_Zone[1] = 1
607: 0x12A4 [0x21] END_EVENT
608: 0x12A5 [0x00] END_REQSTACK()

SUBROUTINE_12A6:
609: 0x12A6 [0x02] IF !(ExtData[1]->WorkLocal[1] == 1*) GOTO 0x134A
610: 0x12AE [0x45] LOAD_SCHEDULED_TASK: Load scheduler "fdi1" with entities [LocalPlayer, LocalPlayer], work=[200*, 0*]
611: 0x12BF [0x45] LOAD_SCHEDULED_TASK: Load scheduler "s238" with entities [EventEntity, EventEntity], work=[636*, 0*]
612: 0x12D0 [0x1C] WAIT(30* ticks)
613: 0x12D3 [0x03] Work_Zone_1700[0] = 60*
614: 0x12D8 [0x27] REQ_SET(priority=0x10, entity_id=Midras (ID: 17855076/0x01107264), tag_num=0x03)
615: 0x12DF [0x2B] Midras (ID: 17855076/0x01107264) [8370*]:
    → "If you knew someone at the Tenshodo, you might be able to help me..."
616: 0x12E6 [0x23] WAIT_FOR_DIALOG_INTERACTION
617: 0x12E7 [0x2B] Midras (ID: 17855076/0x01107264) [8371*]:
    → "...but you don't, do you? So get back to Adoulin and leave me to my work. ."
618: 0x12EE [0x23] WAIT_FOR_DIALOG_INTERACTION
619: 0x12EF [0x2A] GET_REQ_LEVEL(level=16, entity_id=Midras (ID: 17855076/0x01107264))
620: 0x12F5 [0x66] LOAD_EXT_SCHEDULER_MAIN: Load scheduler "tlk1" with entities [Midras (ID: 17855076/0x01107264), Midras (ID: 17855076/0x01107264)], work=9*
621: 0x1304 [0x45] LOAD_SCHEDULED_TASK: Load scheduler "fdo1" with entities [LocalPlayer, LocalPlayer], work=[200*, 0*]
622: 0x1315 [0x55] WAIT_LOAD_SCHEDULER: Wait for scheduler "fdo1" with entities [LocalPlayer, LocalPlayer], work=200*
623: 0x1324 [0x52] END_LOAD_SCHEDULER: End scheduler "s238" with entities [EventEntity, EventEntity], work=636*
624: 0x1333 [0x46] CAMERA_CONTROL: Restore default settings
625: 0x1335 [0x45] LOAD_SCHEDULED_TASK: Load scheduler "fdi2" with entities [LocalPlayer, LocalPlayer], work=[200*, 0*]
626: 0x1346 [0x06] Work_Zone[1] = 0
627: 0x1349 [0x21] END_EVENT
628: 0x134A [0x02] IF !(ExtData[1]->WorkLocal[1] == 3*) GOTO 0x1442
629: 0x1352 [0x45] LOAD_SCHEDULED_TASK: Load scheduler "fdi1" with entities [LocalPlayer, LocalPlayer], work=[200*, 0*]
630: 0x1363 [0x45] LOAD_SCHEDULED_TASK: Load scheduler "s20f" with entities [EventEntity, EventEntity], work=[636*, 0*]
631: 0x1374 [0x1C] WAIT(30* ticks)
632: 0x1377 [0x03] Work_Zone_1700[0] = 60*
633: 0x137C [0x27] REQ_SET(priority=0x10, entity_id=Midras (ID: 17855076/0x01107264), tag_num=0x04)
634: 0x1383 [0x2B] Midras (ID: 17855076/0x01107264) [8372*]:
    → "Well, well, if it isn't <Player>."
635: 0x138A [0x23] WAIT_FOR_DIALOG_INTERACTION
636: 0x138B [0x2A] GET_REQ_LEVEL(level=16, entity_id=Midras (ID: 17855076/0x01107264))
637: 0x1391 [0x66] LOAD_EXT_SCHEDULER_MAIN: Load scheduler "tlk1" with entities [Midras (ID: 17855076/0x01107264), Midras (ID: 17855076/0x01107264)], work=149*
638: 0x13A0 [0x1C] WAIT(30* ticks)
639: 0x13A3 [0x29] REQ_SET_WAIT(priority=0x10, entity_id=LocalPlayer, tag_num=0x02)
640: 0x13AA [0x03] Work_Zone[3] = 90*
641: 0x13AF [0x27] REQ_SET(priority=0x10, entity_id=LocalPlayer, tag_num=0x20)
642: 0x13B6 [0x2A] GET_REQ_LEVEL(level=16, entity_id=LocalPlayer)
643: 0x13BC [0x79] Midras (ID: 17855076/0x01107264) looks at EventEntity (Basic look)
644: 0x13C6 [0x1C] WAIT(20* ticks)
645: 0x13C9 [0x52] END_LOAD_SCHEDULER: End scheduler "s20f" with entities [EventEntity, EventEntity], work=636*
646: 0x13D8 [0x45] LOAD_SCHEDULED_TASK: Load scheduler "s242" with entities [EventEntity, EventEntity], work=[636*, 0*]
647: 0x13E9 [0x03] Work_Zone_1700[0] = 90*
648: 0x13EE [0x27] REQ_SET(priority=0x10, entity_id=Midras (ID: 17855076/0x01107264), tag_num=0x03)
649: 0x13F5 [0x2B] Midras (ID: 17855076/0x01107264) [8373*]:
    → "Oh ho? You know someone at the Tenshodo?"
650: 0x13FC [0x23] WAIT_FOR_DIALOG_INTERACTION
651: 0x13FD [0x2A] GET_REQ_LEVEL(level=16, entity_id=Midras (ID: 17855076/0x01107264))
652: 0x1403 [0x79] Midras (ID: 17855076/0x01107264) looks at LocalPlayer (Basic look)
653: 0x140D [0x66] LOAD_EXT_SCHEDULER_MAIN: Load scheduler "tlk1" with entities [Midras (ID: 17855076/0x01107264), Midras (ID: 17855076/0x01107264)], work=9*
654: 0x141C [0x52] END_LOAD_SCHEDULER: End scheduler "s242" with entities [EventEntity, EventEntity], work=636*
655: 0x142B [0x45] LOAD_SCHEDULED_TASK: Load scheduler "s241" with entities [EventEntity, EventEntity], work=[636*, 0*]
656: 0x143C [0x1C] WAIT(60* ticks)
657: 0x143F [0x01] GOTO 0x06D0
658: 0x1442 [0x21] END_EVENT
659: 0x1443 [0x00] END_REQSTACK()
```

#### Data or dead code:

```
# Dead code (unreachable instructions):
     0x0695 [0x01] GOTO 0x12A6
# Dead code (unreachable instructions):
     0x0898 [0x01] GOTO 0x089B
```
