# 17855099

## Common Data

| Field            | Value                  |
|------------------|------------------------|
| Zone             | Yorcia Weald (ID: 263) |
| Block Size       | 196 bytes              |
| Total Events     | 6                      |
| References Count | 13                     |

## List of Events

| Event ID                 | Entrypoint   |   Size |   Instructions |
|--------------------------|--------------|--------|----------------|
| [65535](#event-65535)    | 0x0000       |      1 |              1 |
| [128](#event-128)        | 0x0001       |      1 |              1 |
| [65535.1](#event-655351) | 0x0002       |     25 |              3 |
| [65535.2](#event-655352) | 0x001B       |     25 |              3 |
| [65535.3](#event-655353) | 0x0034       |     21 |              7 |
| [65535.4](#event-655354) | 0x0049       |     30 |              8 |

## DAT References (imed_data)

|   Index | Hex Value   |   Dec Value |
|---------|-------------|-------------|
|       0 | 0x0009      |           9 |
|       1 | 0xFFFE31C9  |  4294848969 |
|       2 | 0xFFFF74E0  |  4294931680 |
|       3 | 0xFFFFDFDB  |  4294959067 |
|       4 | 0x0007      |           7 |
|       5 | 0xFFFE2218  |  4294844952 |
|       6 | 0xFFFF30C3  |  4294914243 |
|       7 | 0xFFFFDC71  |  4294958193 |
|       8 | 0x00C4      |         196 |
|       9 | 0x0006      |           6 |
|      10 | 0xFFFE2892  |  4294846610 |
|      11 | 0xFFFF286F  |  4294912111 |
|      12 | 0xFFFFDF1E  |  4294958878 |

## Events

### Event 65535

#### Metadata

| Field        | Value   |
|--------------|---------|
| Entrypoint   | 0x0000  |
| Data Size    | 1 bytes |
| Instructions | 1       |

```
      00 01 02 03 04 05 06 07  08 09 0A 0B 0C 0D 0E 0F
      -- -- -- -- -- -- -- --  -- -- -- -- -- -- -- --
0000: 00                                                .               
```

#### Opcodes

```
  0: 0x0000 [0x00] END_REQSTACK()
```

### Event 128

#### Metadata

| Field        | Value   |
|--------------|---------|
| Entrypoint   | 0x0001  |
| Data Size    | 1 bytes |
| Instructions | 1       |

```
      00 01 02 03 04 05 06 07  08 09 0A 0B 0C 0D 0E 0F
      -- -- -- -- -- -- -- --  -- -- -- -- -- -- -- --
0000:    00                                              .              
```

#### Opcodes

```
  0: 0x0001 [0x00] END_REQSTACK()
```

### Event 65535.1

#### Metadata

| Field        | Value    |
|--------------|----------|
| Entrypoint   | 0x0002   |
| Data Size    | 25 bytes |
| Instructions | 3        |

```
      00 01 02 03 04 05 06 07  08 09 0A 0B 0C 0D 0E 0F
      -- -- -- -- -- -- -- --  -- -- -- -- -- -- -- --
0000:       B4 00 00 00 50 61  6C 6F 6D 65 6C 00 00 00    ....Palomel...
0010: 00 00 00 00 00 00 B5 00  00 00 00                 ...........     
```

#### Opcodes

```
  0: 0x0002 [0xB4] UI_WINDOW_STRING_HANDLER(case=0x00 - Copy string from opcode, work_offset=ExtData[1]->WorkLocal[0], string="Palomel")
  1: 0x0016 [0xB5] SET_EVENT_ENTITY_NAME: Change EventEntity name to ExtData[1]->WorkLocal[0]
  2: 0x001A [0x00] END_REQSTACK()
```

### Event 65535.2

#### Metadata

| Field        | Value    |
|--------------|----------|
| Entrypoint   | 0x001B   |
| Data Size    | 25 bytes |
| Instructions | 3        |

```
      00 01 02 03 04 05 06 07  08 09 0A 0B 0C 0D 0E 0F
      -- -- -- -- -- -- -- --  -- -- -- -- -- -- -- --
0010:                                   B4 00 00 00 3F             ....?
0020: 3F 3F 00 00 00 00 00 00  00 00 00 00 00 00 00 B5  ??..............
0030: 00 00 00 00                                       ....            
```

#### Opcodes

```
  0: 0x001B [0xB4] UI_WINDOW_STRING_HANDLER(case=0x00 - Copy string from opcode, work_offset=ExtData[1]->WorkLocal[0], string="???")
  1: 0x002F [0xB5] SET_EVENT_ENTITY_NAME: Change EventEntity name to ExtData[1]->WorkLocal[0]
  2: 0x0033 [0x00] END_REQSTACK()
```

### Event 65535.3

#### Metadata

| Field        | Value    |
|--------------|----------|
| Entrypoint   | 0x0034   |
| Data Size    | 21 bytes |
| Instructions | 7        |

```
      00 01 02 03 04 05 06 07  08 09 0A 0B 0C 0D 0E 0F
      -- -- -- -- -- -- -- --  -- -- -- -- -- -- -- --
0030:             32 00 80 1F  00 01 80 02 80 03 80 1F      2...........
0040: 01 1E 75 72 10 01 6F 70  00                       ..ur..op.       
```

#### Opcodes

```
  0: 0x0034 [0x32] ExtData[1]->MainSpeed = 9* * 0.1
  1: 0x0037 [0x1F] MOVE_ENTITY: EventEntity moves to X=-118.327*, Z=-35.616*, Y=-8.229*
  2: 0x003F [0x1F] MOVE_ENTITY: Update entity position (mode=1)
  3: 0x0041 [0x1E] EventEntity looks at Unnamed NPC (ID: 17855093/0x01107275) and starts talking
  4: 0x0046 [0x6F] WAIT_FRAME_DELAY: Yield until WaitTime reaches zero
  5: 0x0047 [0x70] WAIT_ENTITY_RENDER_FLAG: Wait while EventEntity->Render.Flags3 bit 2 is set (cancel turn if not)
  6: 0x0048 [0x00] END_REQSTACK()
```

### Event 65535.4

#### Metadata

| Field        | Value    |
|--------------|----------|
| Entrypoint   | 0x0049   |
| Data Size    | 30 bytes |
| Instructions | 8        |

```
      00 01 02 03 04 05 06 07  08 09 0A 0B 0C 0D 0E 0F
      -- -- -- -- -- -- -- --  -- -- -- -- -- -- -- --
0040:                             32 04 80 1F 00 05 80           2......
0050: 06 80 07 80 1F 01 1C 08  80 32 09 80 1F 00 0A 80  .........2......
0060: 0B 80 0C 80 1F 01 00                              .......         
```

#### Opcodes

```
  0: 0x0049 [0x32] ExtData[1]->MainSpeed = 7* * 0.1
  1: 0x004C [0x1F] MOVE_ENTITY: EventEntity moves to X=-122.344*, Z=-53.053*, Y=-9.103*
  2: 0x0054 [0x1F] MOVE_ENTITY: Update entity position (mode=1)
  3: 0x0056 [0x1C] WAIT(196* ticks)
  4: 0x0059 [0x32] ExtData[1]->MainSpeed = 6* * 0.1
  5: 0x005C [0x1F] MOVE_ENTITY: EventEntity moves to X=-120.686*, Z=-55.185*, Y=-8.418*
  6: 0x0064 [0x1F] MOVE_ENTITY: Update entity position (mode=1)
  7: 0x0066 [0x00] END_REQSTACK()
```
