# 17855107 - Veil

## Common Data

| Field            | Value                  |
|------------------|------------------------|
| Zone             | Yorcia Weald (ID: 263) |
| Block Size       | 1408 bytes             |
| Total Events     | 4                      |
| References Count | 44                     |

## List of Events

| Event ID              | Entrypoint   |   Size |   Instructions |
|-----------------------|--------------|--------|----------------|
| [65535](#event-65535) | 0x0000       |      1 |              1 |
| [6000](#event-6000)   | 0x0001       |      1 |              1 |
| [5501](#event-5501)   | 0x0002       |    263 |             61 |
| [5503](#event-5503)   | 0x0109       |    935 |            195 |

## DAT References (imed_data)

|   Index | Hex Value   |   Dec Value |
|---------|-------------|-------------|
|       0 | 0x0002      |           2 |
|       1 | 0x0000      |           0 |
|       2 | 0x0001      |           1 |
|       3 | 0x0005      |           5 |
|       4 | 0x000B      |          11 |
|       5 | 0x0010      |          16 |
|       6 | 0x001D      |          29 |
|       7 | 0x2237      |        8759 |
|       8 | 0x2238      |        8760 |
|       9 | 0x2239      |        8761 |
|      10 | 0x223A      |        8762 |
|      11 | 0x1EAB      |        7851 |
|      12 | 0x40000000  |  1073741824 |
|      13 | 0x2242      |        8770 |
|      14 | 0x2243      |        8771 |
|      15 | 0x0008      |           8 |
|      16 | 0x0320      |         800 |
|      17 | 0x0003      |           3 |
|      18 | 0x0006      |           6 |
|      19 | 0x0103      |         259 |
|      20 | 0x0108      |         264 |
|      21 | 0x010F      |         271 |
|      22 | 0x0113      |         275 |
|      23 | 0x0004      |           4 |
|      24 | 0x0007      |           7 |
|      25 | 0x000C      |          12 |
|      26 | 0x000F      |          15 |
|      27 | 0x1EA8      |        7848 |
|      28 | 0x003C      |          60 |
|      29 | 0x0078      |         120 |
|      30 | 0x1EB4      |        7860 |
|      31 | 0x005A      |          90 |
|      32 | 0x00C9      |         201 |
|      33 | 0x002D      |          45 |
|      34 | 0x00C8      |         200 |
|      35 | 0x0009      |           9 |
|      36 | 0x000A      |          10 |
|      37 | 0x0107      |         263 |
|      38 | 0x032D      |         813 |
|      39 | 0x0335      |         821 |
|      40 | 0x0336      |         822 |
|      41 | 0x0337      |         823 |
|      42 | 0x032E      |         814 |
|      43 | 0x032F      |         815 |

## String References

- **7848**: You cannot enter at this time. Please wait a moment and try again.
- **7851**: Your request for entry is being considered...
- **7860**: Now permeating the mists surrounding the [fracture/obscured domain].
- **8759**: Your $3 emits a strange pulse!
- **8760**: Now what? [Use the $3./Do nothing.]
- **8761**: Expend your $3 and head down into the fracture with your alliance members?
- **8762**: Have at it? [Delve into the depths./Hold on.]
- **8770**: Expend your $3 and enter the obscured domain with your alliance members?
- **8771**: Proceed? [Yes./No.]

## Events

### Event 65535

#### Metadata

| Field        | Value   |
|--------------|---------|
| Entrypoint   | 0x0000  |
| Data Size    | 1 bytes |
| Instructions | 1       |

```
      00 01 02 03 04 05 06 07  08 09 0A 0B 0C 0D 0E 0F
      -- -- -- -- -- -- -- --  -- -- -- -- -- -- -- --
0000: 00                                                .               
```

#### Opcodes

```
  0: 0x0000 [0x00] END_REQSTACK()
```

### Event 6000

#### Metadata

| Field        | Value   |
|--------------|---------|
| Entrypoint   | 0x0001  |
| Data Size    | 1 bytes |
| Instructions | 1       |

```
      00 01 02 03 04 05 06 07  08 09 0A 0B 0C 0D 0E 0F
      -- -- -- -- -- -- -- --  -- -- -- -- -- -- -- --
0000:    00                                              .              
```

#### Opcodes

```
  0: 0x0001 [0x00] END_REQSTACK()
```

### Event 5501

#### Metadata

| Field        | Value     |
|--------------|-----------|
| Entrypoint   | 0x0002    |
| Data Size    | 263 bytes |
| Instructions | 61        |

```
      00 01 02 03 04 05 06 07  08 09 0A 0B 0C 0D 0E 0F
      -- -- -- -- -- -- -- --  -- -- -- -- -- -- -- --
0000:       42 03 0E 00 02 10  03 0F 00 03 10 03 10 00    B.............
0010: 04 10 03 0D 00 00 80 1A  40 04 1A 46 04 03 06 00  ........@..F....
0020: 01 80 3C 06 00 01 80 02  80 40 02 80 03 80 06 00  ..<......@......
0030: 10 00 40 01 80 04 80 01  10 05 00 40 05 80 06 80  ..@........@....
0040: 01 10 06 00 03 0C 00 01  10 06 03 00 05 07 00 03  ................
0050: 02 10 0F 00 48 07 80 23  03 02 10 0F 00 24 08 80  ....H..#.....$..
0060: 01 80 01 80 25 02 00 10  01 80 00 F4 00 03 02 10  ....%...........
0070: 0F 00 1A 4C 04 02 12 00  01 80 80 B3 00 48 09 80  ...L.........H..
0080: 23 24 0A 80 02 80 01 80  25 02 00 10 01 80 00 9D  #$......%.......
0090: 00 06 07 00 48 0B 80 1A  C3 01 01 B0 00 02 00 10  ....H...........
00A0: 02 80 00 B0 00 03 01 10  0C 80 05 03 00 01 B0 00  ................
00B0: 01 F1 00 02 12 00 02 80  80 F1 00 48 0D 80 23 24  ...........H..#$
00C0: 0E 80 02 80 01 80 25 02  00 10 01 80 00 DB 00 06  ......%.........
00D0: 07 00 48 0B 80 1A C3 01  01 EE 00 02 00 10 02 80  ..H.............
00E0: 00 EE 00 03 01 10 0C 80  05 03 00 01 EE 00 01 F1  ................
00F0: 00 01 07 01 02 00 10 02  80 00 07 01 03 01 10 0C  ................
0100: 80 05 03 00 01 07 01 21  00                       .......!.       
```

#### Opcodes

```
  0: 0x0002 [0x42] SET_CLI_EVENT_CANCEL_DATA()
  1: 0x0003 [0x03] ExtData[1]->WorkLocal[14] = Work_Zone[2]
  2: 0x0008 [0x03] ExtData[1]->WorkLocal[15] = Work_Zone[3]
  3: 0x000D [0x03] ExtData[1]->WorkLocal[16] = Work_Zone[4]
  4: 0x0012 [0x03] ExtData[1]->WorkLocal[13] = 2*
  5: 0x0017 [0x1A] CALL_SUBROUTINE(address=0x0440)
  6: 0x001A [0x1A] CALL_SUBROUTINE(address=0x0446)
  7: 0x001D [0x03] ExtData[1]->WorkLocal[6] = 0*
  8: 0x0022 [0x3C] SET_BIT_FLAG_CONDITIONAL(target_work_offset=ExtData[1]->WorkLocal[6], bit_index_work_offset=0*, condition_work_offset=1*)
  9: 0x0029 [0x40] SET_BIT_WORK_RANGE(start_bit=1*, end_bit=5*, target=ExtData[1]->WorkLocal[6], source=ExtData[1]->WorkLocal[16])
 10: 0x0032 [0x40] SET_BIT_WORK_RANGE(start_bit=0*, end_bit=11*, target=Work_Zone[1], source=ExtData[1]->WorkLocal[5])
 11: 0x003B [0x40] SET_BIT_WORK_RANGE(start_bit=16*, end_bit=29*, target=Work_Zone[1], source=ExtData[1]->WorkLocal[6])
 12: 0x0044 [0x03] ExtData[1]->WorkLocal[12] = Work_Zone[1]
 13: 0x0049 [0x06] ExtData[1]->WorkLocal[3] = 0
 14: 0x004C [0x05] ExtData[1]->WorkLocal[7] = 1
 15: 0x004F [0x03] Work_Zone[2] = ExtData[1]->WorkLocal[15]
 16: 0x0054 [0x48] [System] [8759*]:
    → "Your $3 emits a strange pulse!"
 17: 0x0057 [0x23] WAIT_FOR_DIALOG_INTERACTION
 18: 0x0058 [0x03] Work_Zone[2] = ExtData[1]->WorkLocal[15]
 19: 0x005D [0x24] CREATE_DIALOG(message_id=8760*, default_option=0*, option_flags=0*)
    → "Now what? [Use the $3./Do nothing.]"
 20: 0x0064 [0x25] WAIT_DIALOG_SELECT()
 21: 0x0065 [0x02] IF !(Work_Zone[0] == 0*) GOTO 0x00F4
 22: 0x006D [0x03] Work_Zone[2] = ExtData[1]->WorkLocal[15]
 23: 0x0072 [0x1A] CALL_SUBROUTINE(address=0x044C)
 24: 0x0075 [0x02] IF !(ExtData[1]->WorkLocal[18] == 0*) GOTO 0x00B3
 25: 0x007D [0x48] [System] [8761*]:
    → "Expend your $3 and head down into the fracture with your alliance members?"
 26: 0x0080 [0x23] WAIT_FOR_DIALOG_INTERACTION
 27: 0x0081 [0x24] CREATE_DIALOG(message_id=8762*, default_option=1*, option_flags=0*)
    → "Have at it? [Delve into the depths./Hold on.]"
 28: 0x0088 [0x25] WAIT_DIALOG_SELECT()
 29: 0x0089 [0x02] IF !(Work_Zone[0] == 0*) GOTO 0x009D
 30: 0x0091 [0x06] ExtData[1]->WorkLocal[7] = 0
 31: 0x0094 [0x48] [System] [7851*]:
    → "Your request for entry is being considered..."
 32: 0x0097 [0x1A] CALL_SUBROUTINE(address=0x01C3)
 33: 0x009A [0x01] GOTO 0x00B0
 34: 0x009D [0x02] IF !(Work_Zone[0] == 1*) GOTO 0x00B0
 35: 0x00A5 [0x03] Work_Zone[1] = 1073741824*
 36: 0x00AA [0x05] ExtData[1]->WorkLocal[3] = 1
 37: 0x00AD [0x01] GOTO 0x00B0

SUBROUTINE_00B0:
 38: 0x00B0 [0x01] GOTO 0x00F1
 39: 0x00B3 [0x02] IF !(ExtData[1]->WorkLocal[18] == 1*) GOTO 0x00F1
 40: 0x00BB [0x48] [System] [8770*]:
    → "Expend your $3 and enter the obscured domain with your alliance members?"
 41: 0x00BE [0x23] WAIT_FOR_DIALOG_INTERACTION
 42: 0x00BF [0x24] CREATE_DIALOG(message_id=8771*, default_option=1*, option_flags=0*)
    → "Proceed? [Yes./No.]"
 43: 0x00C6 [0x25] WAIT_DIALOG_SELECT()
 44: 0x00C7 [0x02] IF !(Work_Zone[0] == 0*) GOTO 0x00DB
 45: 0x00CF [0x06] ExtData[1]->WorkLocal[7] = 0
 46: 0x00D2 [0x48] [System] [7851*]:
    → "Your request for entry is being considered..."
 47: 0x00D5 [0x1A] CALL_SUBROUTINE(address=0x01C3)
 48: 0x00D8 [0x01] GOTO 0x00EE
 49: 0x00DB [0x02] IF !(Work_Zone[0] == 1*) GOTO 0x00EE
 50: 0x00E3 [0x03] Work_Zone[1] = 1073741824*
 51: 0x00E8 [0x05] ExtData[1]->WorkLocal[3] = 1
 52: 0x00EB [0x01] GOTO 0x00EE

SUBROUTINE_00EE:
 53: 0x00EE [0x01] GOTO 0x00F1

SUBROUTINE_00F1:
 54: 0x00F1 [0x01] GOTO 0x0107
 55: 0x00F4 [0x02] IF !(Work_Zone[0] == 1*) GOTO 0x0107
 56: 0x00FC [0x03] Work_Zone[1] = 1073741824*
 57: 0x0101 [0x05] ExtData[1]->WorkLocal[3] = 1
 58: 0x0104 [0x01] GOTO 0x0107

SUBROUTINE_0107:
 59: 0x0107 [0x21] END_EVENT
 60: 0x0108 [0x00] END_REQSTACK()
```

### Event 5503

#### Metadata

| Field        | Value     |
|--------------|-----------|
| Entrypoint   | 0x0109    |
| Data Size    | 935 bytes |
| Instructions | 3         |

```
      00 01 02 03 04 05 06 07  08 09 0A 0B 0C 0D 0E 0F
      -- -- -- -- -- -- -- --  -- -- -- -- -- -- -- --
0100:                             42 21 00 03 05 00 04           B!.....
0110: 00 14 05 00 0F 80 07 05  00 01 00 0C 05 00 07 05  ................
0120: 00 10 80 06 06 00 40 01  80 00 80 06 00 00 00 40  ......@........@
0130: 11 80 03 80 06 00 01 00  40 12 80 0F 80 06 00 02  ........@.......
0140: 00 1B 02 04 00 01 80 80  52 01 03 02 10 13 80 01  ........R.......
0150: C2 01 02 04 00 02 80 80  62 01 03 02 10 14 80 01  ........b.......
0160: C2 01 02 04 00 00 80 80  72 01 03 02 10 15 80 01  ........r.......
0170: C2 01 02 04 00 11 80 80  82 01 03 02 10 16 80 01  ................
0180: C2 01 02 04 00 17 80 80  92 01 03 02 10 17 80 01  ................
0190: C2 01 02 04 00 03 80 80  A2 01 03 02 10 00 80 01  ................
01A0: C2 01 02 04 00 12 80 80  B2 01 03 02 10 00 80 01  ................
01B0: C2 01 02 04 00 18 80 80  C2 01 03 02 10 00 80 01  ................
01C0: C2 01 1B 06 08 00 06 0B  00 06 09 00 02 08 00 01  ................
01D0: 80 00 F3 01 02 0B 00 01  80 80 E2 01 1A F4 01 01  ................
01E0: F0 01 02 0B 00 02 80 80  F0 01 1A B5 02 01 F0 01  ................
01F0: 01 CC 01 1B 03 01 10 0C  00 40 19 80 1A 80 01 10  .........@......
0200: 0B 00 43 00 43 01 03 0A  00 09 10 03 01 10 01 80  ..C.C...........
0210: 02 0A 00 02 80 80 20 02  03 0B 00 02 80 01 B4 02  ...... .........
0220: 02 0A 00 00 80 80 46 02  0B 09 00 02 09 00 03 80  ......F.........
0230: 02 40 02 05 08 00 48 1B  80 23 1C 1C 80 01 43 02  .@....H..#....C.
0240: 1C 1D 80 01 B4 02 02 0A  00 11 80 80 5C 02 03 01  ............\...
0250: 10 0C 80 05 08 00 05 03  00 01 B4 02 02 0A 00 17  ................
0260: 80 80 72 02 03 01 10 0C  80 05 08 00 05 03 00 01  ..r.............
0270: B4 02 02 0A 00 03 80 80  88 02 03 01 10 0C 80 05  ................
0280: 08 00 05 03 00 01 B4 02  02 0A 00 12 80 80 9E 02  ................
0290: 03 01 10 0C 80 05 08 00  05 03 00 01 B4 02 02 0A  ................
02A0: 00 18 80 80 B4 02 03 01  10 0C 80 05 08 00 05 03  ................
02B0: 00 01 B4 02 1B 03 01 10  0C 00 40 19 80 1A 80 01  ..........@.....
02C0: 10 0B 00 43 00 43 01 03  01 10 01 80 03 0A 00 09  ...C.C..........
02D0: 10 02 0A 00 11 80 80 E4  02 03 01 10 0C 80 05 08  ................
02E0: 00 01 3F 04 02 0A 00 17  80 80 FA 02 03 01 10 0C  ..?.............
02F0: 80 05 08 00 05 03 00 01  3F 04 02 0A 00 03 80 80  ........?.......
0300: 10 03 03 01 10 0C 80 05  08 00 05 03 00 01 3F 04  ..............?.
0310: 02 0A 00 12 80 80 26 03  03 01 10 0C 80 05 08 00  ......&.........
0320: 05 03 00 01 3F 04 02 0A  00 18 80 80 3C 03 03 01  ....?.......<...
0330: 10 0C 80 05 08 00 05 03  00 01 3F 04 02 0A 00 0F  ..........?.....
0340: 80 80 DE 03 02 0D 00 00  80 80 60 03 03 02 10 04  ..........`.....
0350: 00 1A 4C 04 03 03 10 12  00 48 1E 80 23 01 60 03  ..L......H..#.`.
0360: 62 02 80 F0 FF FF 7F F0  FF FF 7F 6D 61 69 6E 01  b..........main.
0370: 80 1C 1F 80 45 20 80 F0  FF FF 7F F0 FF FF 7F 77  ....E .........w
0380: 68 6F 31 01 80 55 20 80  F0 FF FF 7F F0 FF FF 7F  ho1..U .........
0390: 77 68 6F 31 1C 21 80 45  22 80 F0 FF FF 7F F0 FF  who1.!.E".......
03A0: FF 7F 66 64 6F 31 01 80  55 22 80 F0 FF FF 7F F0  ..fdo1..U"......
03B0: FF FF 7F 66 64 6F 31 45  20 80 F0 FF FF 7F F0 FF  ...fdo1E .......
03C0: FF 7F 77 68 69 31 01 80  1C 1A 80 30 05 08 00 05  ..whi1.....0....
03D0: 03 00 40 01 80 18 80 01  10 0F 80 01 3F 04 02 0A  ..@.........?...
03E0: 00 23 80 80 F1 03 03 01  10 0C 80 05 08 00 01 3F  .#.............?
03F0: 04 02 0A 00 24 80 80 07  04 03 01 10 0C 80 05 08  ....$...........
0400: 00 05 03 00 01 3F 04 02  0A 00 04 80 80 3F 04 0B  .....?.......?..
0410: 09 00 02 09 00 1A 80 02  39 04 03 01 10 0C 00 40  ........9......@
0420: 19 80 1A 80 01 10 00 80  43 00 43 01 05 08 00 48  ........C.C....H
0430: 1B 80 23 1C 1C 80 01 3C  04 1C 1D 80 01 3F 04 1B  ..#....<.....?..
0440: 03 11 00 25 80 1B 03 05  00 26 80 1B 06 12 00 02  ...%.....&......
0450: 05 00 27 80 80 5F 04 03  12 00 01 80 01 AF 04 02  ..'.._..........
0460: 05 00 28 80 80 6F 04 03  12 00 01 80 01 AF 04 02  ..(..o..........
0470: 05 00 29 80 80 7F 04 03  12 00 01 80 01 AF 04 02  ..).............
0480: 05 00 26 80 80 8F 04 03  12 00 02 80 01 AF 04 02  ..&.............
0490: 05 00 2A 80 80 9F 04 03  12 00 02 80 01 AF 04 02  ..*.............
04A0: 05 00 2B 80 80 AF 04 03  12 00 02 80 01 AF 04 1B  ..+.............
```

#### Opcodes

```
  0: 0x0109 [0x42] SET_CLI_EVENT_CANCEL_DATA()
  1: 0x010A [0x21] END_EVENT
  2: 0x010B [0x00] END_REQSTACK()
```

#### Data or dead code:

```
# Dead code (unreachable instructions):
     0x010C [0x03] ExtData[1]->WorkLocal[5] = ExtData[1]->WorkLocal[4]
     0x0111 [0x14] ExtData[1]->WorkLocal[5] *= 8*
     0x0116 [0x07] ExtData[1]->WorkLocal[5] += ExtData[1]->WorkLocal[1]
     0x011B [0x0C] ExtData[1]->WorkLocal[5]--
     0x011E [0x07] ExtData[1]->WorkLocal[5] += 800*
     0x0123 [0x06] ExtData[1]->WorkLocal[6] = 0
     0x0126 [0x40] SET_BIT_WORK_RANGE(start_bit=0*, end_bit=2*, target=ExtData[1]->WorkLocal[6], source=ExtData[1]->WorkLocal[0])
     0x012F [0x40] SET_BIT_WORK_RANGE(start_bit=3*, end_bit=5*, target=ExtData[1]->WorkLocal[6], source=ExtData[1]->WorkLocal[1])
     0x0138 [0x40] SET_BIT_WORK_RANGE(start_bit=6*, end_bit=8*, target=ExtData[1]->WorkLocal[6], source=ExtData[1]->WorkLocal[2])
     0x0141 [0x1B] RETURN
     0x0142 [0x02] IF !(ExtData[1]->WorkLocal[4] == 0*) GOTO 0x0152
     0x014A [0x03] Work_Zone[2] = 259*
     0x014F [0x01] GOTO 0x01C2
     0x0152 [0x02] IF !(ExtData[1]->WorkLocal[4] == 1*) GOTO 0x0162
     0x015A [0x03] Work_Zone[2] = 264*
     0x015F [0x01] GOTO 0x01C2
     0x0162 [0x02] IF !(ExtData[1]->WorkLocal[4] == 2*) GOTO 0x0172
     0x016A [0x03] Work_Zone[2] = 271*
     0x016F [0x01] GOTO 0x01C2
     0x0172 [0x02] IF !(ExtData[1]->WorkLocal[4] == 3*) GOTO 0x0182
     0x017A [0x03] Work_Zone[2] = 275*
     0x017F [0x01] GOTO 0x01C2
     0x0182 [0x02] IF !(ExtData[1]->WorkLocal[4] == 4*) GOTO 0x0192
     0x018A [0x03] Work_Zone[2] = 4*
     0x018F [0x01] GOTO 0x01C2
     0x0192 [0x02] IF !(ExtData[1]->WorkLocal[4] == 5*) GOTO 0x01A2
     0x019A [0x03] Work_Zone[2] = 2*
     0x019F [0x01] GOTO 0x01C2
     0x01A2 [0x02] IF !(ExtData[1]->WorkLocal[4] == 6*) GOTO 0x01B2
     0x01AA [0x03] Work_Zone[2] = 2*
     0x01AF [0x01] GOTO 0x01C2
     0x01B2 [0x02] IF !(ExtData[1]->WorkLocal[4] == 7*) GOTO 0x01C2
     0x01BA [0x03] Work_Zone[2] = 2*
     0x01BF [0x01] GOTO 0x01C2
     0x01C2 [0x1B] RETURN
     0x01C3 [0x06] ExtData[1]->WorkLocal[8] = 0
     0x01C6 [0x06] ExtData[1]->WorkLocal[11] = 0
     0x01C9 [0x06] ExtData[1]->WorkLocal[9] = 0
     0x01CC [0x02] IF !(ExtData[1]->WorkLocal[8] == 0*) GOTO 0x01F3
     0x01D4 [0x02] IF !(ExtData[1]->WorkLocal[11] == 0*) GOTO 0x01E2
     0x01DC [0x1A] CALL_SUBROUTINE(address=0x01F4)
     0x01DF [0x01] GOTO 0x01F0
     0x01E2 [0x02] IF !(ExtData[1]->WorkLocal[11] == 1*) GOTO 0x01F0
     0x01EA [0x1A] CALL_SUBROUTINE(address=0x02B5)
     0x01ED [0x01] GOTO 0x01F0
     0x01F0 [0x01] GOTO 0x01CC
     0x01F3 [0x1B] RETURN
     0x01F4 [0x03] Work_Zone[1] = ExtData[1]->WorkLocal[12]
     0x01F9 [0x40] SET_BIT_WORK_RANGE(start_bit=12*, end_bit=15*, target=Work_Zone[1], source=ExtData[1]->WorkLocal[11])
     0x0202 [0x43] SEND_EVENT_UPDATE: Send pending tag to server (packet 0x005B)
     0x0204 [0x43] SEND_EVENT_UPDATE: Check pending flag (skip if not pending)
     0x0206 [0x03] ExtData[1]->WorkLocal[10] = Work_Zone[9]
     0x020B [0x03] Work_Zone[1] = 0*
     0x0210 [0x02] IF !(ExtData[1]->WorkLocal[10] == 1*) GOTO 0x0220
     0x0218 [0x03] ExtData[1]->WorkLocal[11] = 1*
     0x021D [0x01] GOTO 0x02B4
     0x0220 [0x02] IF !(ExtData[1]->WorkLocal[10] == 2*) GOTO 0x0246
     0x0228 [0x0B] ExtData[1]->WorkLocal[9]++
     0x022B [0x02] IF !(ExtData[1]->WorkLocal[9] <= 5*) GOTO 0x0240
     0x0233 [0x05] ExtData[1]->WorkLocal[8] = 1
     0x0236 [0x48] [System] [7848*]:
    → "You cannot enter at this time. Please wait a moment and try again."
     0x0239 [0x23] WAIT_FOR_DIALOG_INTERACTION
     0x023A [0x1C] WAIT(60* ticks)
     0x023D [0x01] GOTO 0x0243
     0x0240 [0x1C] WAIT(120* ticks)
     0x0243 [0x01] GOTO 0x02B4
     0x0246 [0x02] IF !(ExtData[1]->WorkLocal[10] == 3*) GOTO 0x025C
     0x024E [0x03] Work_Zone[1] = 1073741824*
     0x0253 [0x05] ExtData[1]->WorkLocal[8] = 1
     0x0256 [0x05] ExtData[1]->WorkLocal[3] = 1
     0x0259 [0x01] GOTO 0x02B4
     0x025C [0x02] IF !(ExtData[1]->WorkLocal[10] == 4*) GOTO 0x0272
     0x0264 [0x03] Work_Zone[1] = 1073741824*
     0x0269 [0x05] ExtData[1]->WorkLocal[8] = 1
     0x026C [0x05] ExtData[1]->WorkLocal[3] = 1
     0x026F [0x01] GOTO 0x02B4
     0x0272 [0x02] IF !(ExtData[1]->WorkLocal[10] == 5*) GOTO 0x0288
     0x027A [0x03] Work_Zone[1] = 1073741824*
     0x027F [0x05] ExtData[1]->WorkLocal[8] = 1
     0x0282 [0x05] ExtData[1]->WorkLocal[3] = 1
     0x0285 [0x01] GOTO 0x02B4
     0x0288 [0x02] IF !(ExtData[1]->WorkLocal[10] == 6*) GOTO 0x029E
     0x0290 [0x03] Work_Zone[1] = 1073741824*
     0x0295 [0x05] ExtData[1]->WorkLocal[8] = 1
     0x0298 [0x05] ExtData[1]->WorkLocal[3] = 1
     0x029B [0x01] GOTO 0x02B4
     0x029E [0x02] IF !(ExtData[1]->WorkLocal[10] == 7*) GOTO 0x02B4
     0x02A6 [0x03] Work_Zone[1] = 1073741824*
     0x02AB [0x05] ExtData[1]->WorkLocal[8] = 1
     0x02AE [0x05] ExtData[1]->WorkLocal[3] = 1
     0x02B1 [0x01] GOTO 0x02B4
     0x02B4 [0x1B] RETURN
     0x02B5 [0x03] Work_Zone[1] = ExtData[1]->WorkLocal[12]
     0x02BA [0x40] SET_BIT_WORK_RANGE(start_bit=12*, end_bit=15*, target=Work_Zone[1], source=ExtData[1]->WorkLocal[11])
     0x02C3 [0x43] SEND_EVENT_UPDATE: Send pending tag to server (packet 0x005B)
     0x02C5 [0x43] SEND_EVENT_UPDATE: Check pending flag (skip if not pending)
     0x02C7 [0x03] Work_Zone[1] = 0*
     0x02CC [0x03] ExtData[1]->WorkLocal[10] = Work_Zone[9]
     0x02D1 [0x02] IF !(ExtData[1]->WorkLocal[10] == 3*) GOTO 0x02E4
     0x02D9 [0x03] Work_Zone[1] = 1073741824*
     0x02DE [0x05] ExtData[1]->WorkLocal[8] = 1
     0x02E1 [0x01] GOTO 0x043F
     0x02E4 [0x02] IF !(ExtData[1]->WorkLocal[10] == 4*) GOTO 0x02FA
     0x02EC [0x03] Work_Zone[1] = 1073741824*
     0x02F1 [0x05] ExtData[1]->WorkLocal[8] = 1
     0x02F4 [0x05] ExtData[1]->WorkLocal[3] = 1
     0x02F7 [0x01] GOTO 0x043F
     0x02FA [0x02] IF !(ExtData[1]->WorkLocal[10] == 5*) GOTO 0x0310
     0x0302 [0x03] Work_Zone[1] = 1073741824*
     0x0307 [0x05] ExtData[1]->WorkLocal[8] = 1
     0x030A [0x05] ExtData[1]->WorkLocal[3] = 1
     0x030D [0x01] GOTO 0x043F
     0x0310 [0x02] IF !(ExtData[1]->WorkLocal[10] == 6*) GOTO 0x0326
     0x0318 [0x03] Work_Zone[1] = 1073741824*
     0x031D [0x05] ExtData[1]->WorkLocal[8] = 1
     0x0320 [0x05] ExtData[1]->WorkLocal[3] = 1
     0x0323 [0x01] GOTO 0x043F
     0x0326 [0x02] IF !(ExtData[1]->WorkLocal[10] == 7*) GOTO 0x033C
     0x032E [0x03] Work_Zone[1] = 1073741824*
     0x0333 [0x05] ExtData[1]->WorkLocal[8] = 1
     0x0336 [0x05] ExtData[1]->WorkLocal[3] = 1
     0x0339 [0x01] GOTO 0x043F
     0x033C [0x02] IF !(ExtData[1]->WorkLocal[10] == 8*) GOTO 0x03DE
     0x0344 [0x02] IF !(ExtData[1]->WorkLocal[13] == 2*) GOTO 0x0360
     0x034C [0x03] Work_Zone[2] = ExtData[1]->WorkLocal[4]
     0x0351 [0x1A] CALL_SUBROUTINE(address=0x044C)
     0x0354 [0x03] Work_Zone[3] = ExtData[1]->WorkLocal[18]
     0x0359 [0x48] [System] [7860*]:
    → "Now permeating the mists surrounding the [fracture/obscured domain]."
     0x035C [0x23] WAIT_FOR_DIALOG_INTERACTION
     0x035D [0x01] GOTO 0x0360
     0x0360 [0x62] LOAD_EVENT_SCHEDULER: Load scheduler "main" with entities [LocalPlayer, LocalPlayer], work=[1*, 0*]
     0x0371 [0x1C] WAIT(90* ticks)
     0x0374 [0x45] LOAD_SCHEDULED_TASK: Load scheduler "who1" with entities [LocalPlayer, LocalPlayer], work=[201*, 0*]
     0x0385 [0x55] WAIT_LOAD_SCHEDULER: Wait for scheduler "who1" with entities [LocalPlayer, LocalPlayer], work=201*
     0x0394 [0x1C] WAIT(45* ticks)
     0x0397 [0x45] LOAD_SCHEDULED_TASK: Load scheduler "fdo1" with entities [LocalPlayer, LocalPlayer], work=[200*, 0*]
     0x03A8 [0x55] WAIT_LOAD_SCHEDULER: Wait for scheduler "fdo1" with entities [LocalPlayer, LocalPlayer], work=200*
     0x03B7 [0x45] LOAD_SCHEDULED_TASK: Load scheduler "whi1" with entities [LocalPlayer, LocalPlayer], work=[201*, 0*]
     0x03C8 [0x1C] WAIT(15* ticks)
     0x03CB [0x30] SET_UCOFF_CONTINUE_ZERO()
     0x03CC [0x05] ExtData[1]->WorkLocal[8] = 1
     0x03CF [0x05] ExtData[1]->WorkLocal[3] = 1
     0x03D2 [0x40] SET_BIT_WORK_RANGE(start_bit=0*, end_bit=7*, target=Work_Zone[1], source=8*)
     0x03DB [0x01] GOTO 0x043F
     0x03DE [0x02] IF !(ExtData[1]->WorkLocal[10] == 9*) GOTO 0x03F1
     0x03E6 [0x03] Work_Zone[1] = 1073741824*
     0x03EB [0x05] ExtData[1]->WorkLocal[8] = 1
     0x03EE [0x01] GOTO 0x043F
     0x03F1 [0x02] IF !(ExtData[1]->WorkLocal[10] == 10*) GOTO 0x0407
     0x03F9 [0x03] Work_Zone[1] = 1073741824*
     0x03FE [0x05] ExtData[1]->WorkLocal[8] = 1
     0x0401 [0x05] ExtData[1]->WorkLocal[3] = 1
     0x0404 [0x01] GOTO 0x043F
     0x0407 [0x02] IF !(ExtData[1]->WorkLocal[10] == 11*) GOTO 0x043F
     0x040F [0x0B] ExtData[1]->WorkLocal[9]++
     0x0412 [0x02] IF !(ExtData[1]->WorkLocal[9] <= 15*) GOTO 0x0439
     0x041A [0x03] Work_Zone[1] = ExtData[1]->WorkLocal[12]
     0x041F [0x40] SET_BIT_WORK_RANGE(start_bit=12*, end_bit=15*, target=Work_Zone[1], source=2*)
     0x0428 [0x43] SEND_EVENT_UPDATE: Send pending tag to server (packet 0x005B)
     0x042A [0x43] SEND_EVENT_UPDATE: Check pending flag (skip if not pending)
     0x042C [0x05] ExtData[1]->WorkLocal[8] = 1
     0x042F [0x48] [System] [7848*]:
    → "You cannot enter at this time. Please wait a moment and try again."
     0x0432 [0x23] WAIT_FOR_DIALOG_INTERACTION
     0x0433 [0x1C] WAIT(60* ticks)
     0x0436 [0x01] GOTO 0x043C
     0x0439 [0x1C] WAIT(120* ticks)
     0x043C [0x01] GOTO 0x043F
     0x043F [0x1B] RETURN
     0x0440 [0x03] ExtData[1]->WorkLocal[17] = 263*
     0x0445 [0x1B] RETURN
     0x0446 [0x03] ExtData[1]->WorkLocal[5] = 813*
     0x044B [0x1B] RETURN
     0x044C [0x06] ExtData[1]->WorkLocal[18] = 0
     0x044F [0x02] IF !(ExtData[1]->WorkLocal[5] == 821*) GOTO 0x045F
     0x0457 [0x03] ExtData[1]->WorkLocal[18] = 0*
     0x045C [0x01] GOTO 0x04AF
     0x045F [0x02] IF !(ExtData[1]->WorkLocal[5] == 822*) GOTO 0x046F
     0x0467 [0x03] ExtData[1]->WorkLocal[18] = 0*
     0x046C [0x01] GOTO 0x04AF
     0x046F [0x02] IF !(ExtData[1]->WorkLocal[5] == 823*) GOTO 0x047F
     0x0477 [0x03] ExtData[1]->WorkLocal[18] = 0*
     0x047C [0x01] GOTO 0x04AF
     0x047F [0x02] IF !(ExtData[1]->WorkLocal[5] == 813*) GOTO 0x048F
     0x0487 [0x03] ExtData[1]->WorkLocal[18] = 1*
     0x048C [0x01] GOTO 0x04AF
     0x048F [0x02] IF !(ExtData[1]->WorkLocal[5] == 814*) GOTO 0x049F
     0x0497 [0x03] ExtData[1]->WorkLocal[18] = 1*
     0x049C [0x01] GOTO 0x04AF
     0x049F [0x02] IF !(ExtData[1]->WorkLocal[5] == 815*) GOTO 0x04AF
     0x04A7 [0x03] ExtData[1]->WorkLocal[18] = 1*
     0x04AC [0x01] GOTO 0x04AF
     0x04AF [0x1B] RETURN
```
