# 17855094

## Common Data

| Field            | Value                  |
|------------------|------------------------|
| Zone             | Yorcia Weald (ID: 263) |
| Block Size       | 512 bytes              |
| Total Events     | 12                     |
| References Count | 34                     |

## List of Events

| Event ID                 | Entrypoint   |   Size |   Instructions |
|--------------------------|--------------|--------|----------------|
| [65535](#event-65535)    | 0x0000       |      1 |              1 |
| [121](#event-121)        | 0x0001       |     49 |              5 |
| [65535.1](#event-655351) | 0x0032       |      7 |              3 |
| [65535.2](#event-655352) | 0x0039       |      7 |              3 |
| [65535.3](#event-655353) | 0x0040       |     37 |              8 |
| [65535.4](#event-655354) | 0x0065       |     19 |              5 |
| [126](#event-126)        | 0x0078       |     45 |              4 |
| [65535.5](#event-655355) | 0x00A5       |     25 |              3 |
| [65535.6](#event-655356) | 0x00BE       |     53 |              6 |
| [65535.7](#event-655357) | 0x00F3       |     16 |              5 |
| [65535.8](#event-655358) | 0x0103       |     31 |              9 |
| [65535.9](#event-655359) | 0x0122       |     19 |              3 |

## DAT References (imed_data)

|   Index | Hex Value   |   Dec Value |
|---------|-------------|-------------|
|       0 | 0x0002      |           2 |
|       1 | 0x0008      |           8 |
|       2 | 0x00DB      |         219 |
|       3 | 0x006D      |         109 |
|       4 | 0x00A6      |         166 |
|       5 | 0x0162      |         354 |
|       6 | 0x0026      |          38 |
|       7 | 0x0001      |           1 |
|       8 | 0x0000      |           0 |
|       9 | 0x000A      |          10 |
|      10 | 0x0019      |          25 |
|      11 | 0x0078      |         120 |
|      12 | 0x0028      |          40 |
|      13 | 0x365F2     |      222706 |
|      14 | 0xFFFE9CF8  |  4294876408 |
|      15 | 0x0AE4      |        2788 |
|      16 | 0x373E1     |      226273 |
|      17 | 0xFFFEE7F5  |  4294895605 |
|      18 | 0x013D      |         317 |
|      19 | 0x0007      |           7 |
|      20 | 0x0077      |         119 |
|      21 | 0x0073      |         115 |
|      22 | 0x0018      |          24 |
|      23 | 0x2AF4F     |      175951 |
|      24 | 0xFFFCBC9A  |  4294753434 |
|      25 | 0x0151      |         337 |
|      26 | 0x26401     |      156673 |
|      27 | 0xFFFCB164  |  4294750564 |
|      28 | 0x00A1      |         161 |
|      29 | 0x269D1     |      158161 |
|      30 | 0xFFFCB06A  |  4294750314 |
|      31 | 0xFFFFFFF9  |  4294967289 |
|      32 | 0x004A      |          74 |
|      33 | 0x0038      |          56 |

## Events

### Event 65535

#### Metadata

| Field        | Value   |
|--------------|---------|
| Entrypoint   | 0x0000  |
| Data Size    | 1 bytes |
| Instructions | 1       |

```
      00 01 02 03 04 05 06 07  08 09 0A 0B 0C 0D 0E 0F
      -- -- -- -- -- -- -- --  -- -- -- -- -- -- -- --
0000: 00                                                .               
```

#### Opcodes

```
  0: 0x0000 [0x00] END_REQSTACK()
```

### Event 121

#### Metadata

| Field        | Value    |
|--------------|----------|
| Entrypoint   | 0x0001   |
| Data Size    | 49 bytes |
| Instructions | 5        |

```
      00 01 02 03 04 05 06 07  08 09 0A 0B 0C 0D 0E 0F
      -- -- -- -- -- -- -- --  -- -- -- -- -- -- -- --
0000:    B6 0B 00 80 01 80 02  80 03 80 03 80 03 80 03   ...............
0010: 80 04 80 05 80 B6 0A 06  80 B4 00 00 00 59 6F 72  .............Yor
0020: 63 69 61 00 00 00 00 00  00 00 00 00 00 B5 00 00  cia.............
0030: 00 00                                             ..              
```

#### Opcodes

```
  0: 0x0001 [0xB6] ENTITY_APPEARANCE_HANDLER(case=Full entity look, race=2*, hair=8*, head=219*, body=109*, hands=109*, legs=109*, feet=109*, main=166*, sub=354*)
  1: 0x0015 [0xB6] ENTITY_APPEARANCE_HANDLER(case=Ranged, value=38*)
  2: 0x0019 [0xB4] UI_WINDOW_STRING_HANDLER(case=0x00 - Copy string from opcode, work_offset=ExtData[1]->WorkLocal[0], string="Yorcia")
  3: 0x002D [0xB5] SET_EVENT_ENTITY_NAME: Change EventEntity name to ExtData[1]->WorkLocal[0]
  4: 0x0031 [0x00] END_REQSTACK()
```

### Event 65535.1

#### Metadata

| Field        | Value   |
|--------------|---------|
| Entrypoint   | 0x0032  |
| Data Size    | 7 bytes |
| Instructions | 3       |

```
      00 01 02 03 04 05 06 07  08 09 0A 0B 0C 0D 0E 0F
      -- -- -- -- -- -- -- --  -- -- -- -- -- -- -- --
0030:       AB 03 AC 01 07 80  00                         .......       
```

#### Opcodes

```
  0: 0x0032 [0xAB] EventEntity->Render.Flags0 ^= 0x20000 // Toggle bit 17
  1: 0x0034 [0xAC] EventEntity->StatusEvent = 1*
  2: 0x0038 [0x00] END_REQSTACK()
```

### Event 65535.2

#### Metadata

| Field        | Value   |
|--------------|---------|
| Entrypoint   | 0x0039  |
| Data Size    | 7 bytes |
| Instructions | 3       |

```
      00 01 02 03 04 05 06 07  08 09 0A 0B 0C 0D 0E 0F
      -- -- -- -- -- -- -- --  -- -- -- -- -- -- -- --
0030:                             AC 01 08 80 AB 04 00           .......
```

#### Opcodes

```
  0: 0x0039 [0xAC] EventEntity->StatusEvent = 0*
  1: 0x003D [0xAB] EventEntity->Render.Flags0 |= 0x40000 // Set bit 18
  2: 0x003F [0x00] END_REQSTACK()
```

### Event 65535.3

#### Metadata

| Field        | Value    |
|--------------|----------|
| Entrypoint   | 0x0040   |
| Data Size    | 37 bytes |
| Instructions | 8        |

```
      00 01 02 03 04 05 06 07  08 09 0A 0B 0C 0D 0E 0F
      -- -- -- -- -- -- -- --  -- -- -- -- -- -- -- --
0040: 1C 09 80 AD 00 0A 80 F8  FF FF 7F F8 FF FF 7F 1C  ................
0050: 0B 80 32 0C 80 1F 00 0D  80 0E 80 0F 80 1F 01 1E  ..2.............
0060: 79 72 10 01 00                                    yr...           
```

#### Opcodes

```
  0: 0x0040 [0x1C] WAIT(10* ticks)
  1: 0x0043 [0xAD] DUAL_ENTITY_SCHEDULER_HANDLER: Execute sub-case 0 with entities [EventEntity, EventEntity], work=25*
  2: 0x004F [0x1C] WAIT(120* ticks)
  3: 0x0052 [0x32] ExtData[1]->MainSpeed = 40* * 0.1
  4: 0x0055 [0x1F] MOVE_ENTITY: EventEntity moves to X=222.706*, Z=-90.888*, Y=2.788*
  5: 0x005D [0x1F] MOVE_ENTITY: Update entity position (mode=1)
  6: 0x005F [0x1E] EventEntity looks at Unnamed NPC (ID: 17855097/0x01107279) and starts talking
  7: 0x0064 [0x00] END_REQSTACK()
```

### Event 65535.4

#### Metadata

| Field        | Value    |
|--------------|----------|
| Entrypoint   | 0x0065   |
| Data Size    | 19 bytes |
| Instructions | 5        |

```
      00 01 02 03 04 05 06 07  08 09 0A 0B 0C 0D 0E 0F
      -- -- -- -- -- -- -- --  -- -- -- -- -- -- -- --
0060:                32 0C 80  1F 00 10 80 11 80 12 80       2..........
0070: 1F 01 1E 79 72 10 01 00                           ...yr...        
```

#### Opcodes

```
  0: 0x0065 [0x32] ExtData[1]->MainSpeed = 40* * 0.1
  1: 0x0068 [0x1F] MOVE_ENTITY: EventEntity moves to X=226.273*, Z=-71.691*, Y=0.317*
  2: 0x0070 [0x1F] MOVE_ENTITY: Update entity position (mode=1)
  3: 0x0072 [0x1E] EventEntity looks at Unnamed NPC (ID: 17855097/0x01107279) and starts talking
  4: 0x0077 [0x00] END_REQSTACK()
```

### Event 126

#### Metadata

| Field        | Value    |
|--------------|----------|
| Entrypoint   | 0x0078   |
| Data Size    | 45 bytes |
| Instructions | 4        |

```
      00 01 02 03 04 05 06 07  08 09 0A 0B 0C 0D 0E 0F
      -- -- -- -- -- -- -- --  -- -- -- -- -- -- -- --
0070:                          B6 0B 07 80 13 80 14 80          ........
0080: 15 80 08 80 16 80 15 80  08 80 08 80 B4 00 00 00  ................
0090: 3F 3F 3F 00 00 00 00 00  00 00 00 00 00 00 00 00  ???.............
00A0: B5 00 00 00 00                                    .....           
```

#### Opcodes

```
  0: 0x0078 [0xB6] ENTITY_APPEARANCE_HANDLER(case=Full entity look, race=1*, hair=7*, head=119*, body=115*, hands=0*, legs=24*, feet=115*, main=0*, sub=0*)
  1: 0x008C [0xB4] UI_WINDOW_STRING_HANDLER(case=0x00 - Copy string from opcode, work_offset=ExtData[1]->WorkLocal[0], string="???")
  2: 0x00A0 [0xB5] SET_EVENT_ENTITY_NAME: Change EventEntity name to ExtData[1]->WorkLocal[0]
  3: 0x00A4 [0x00] END_REQSTACK()
```

### Event 65535.5

#### Metadata

| Field        | Value    |
|--------------|----------|
| Entrypoint   | 0x00A5   |
| Data Size    | 25 bytes |
| Instructions | 3        |

```
      00 01 02 03 04 05 06 07  08 09 0A 0B 0C 0D 0E 0F
      -- -- -- -- -- -- -- --  -- -- -- -- -- -- -- --
00A0:                B4 00 00  00 52 6F 73 6B 69 6E 00       ....Roskin.
00B0: 00 00 00 00 00 00 00 00  00 B5 00 00 00 00        ..............  
```

#### Opcodes

```
  0: 0x00A5 [0xB4] UI_WINDOW_STRING_HANDLER(case=0x00 - Copy string from opcode, work_offset=ExtData[1]->WorkLocal[0], string="Roskin")
  1: 0x00B9 [0xB5] SET_EVENT_ENTITY_NAME: Change EventEntity name to ExtData[1]->WorkLocal[0]
  2: 0x00BD [0x00] END_REQSTACK()
```

### Event 65535.6

#### Metadata

| Field        | Value    |
|--------------|----------|
| Entrypoint   | 0x00BE   |
| Data Size    | 53 bytes |
| Instructions | 6        |

```
      00 01 02 03 04 05 06 07  08 09 0A 0B 0C 0D 0E 0F
      -- -- -- -- -- -- -- --  -- -- -- -- -- -- -- --
00B0:                                            B6 0B                ..
00C0: 07 80 08 80 08 80 08 80  08 80 08 80 08 80 08 80  ................
00D0: 08 80 B4 00 00 00 00 00  00 00 00 00 00 00 00 00  ................
00E0: 00 00 00 00 00 00 B5 00  00 00 22 01 2F 01 F8 FF  .........."./...
00F0: FF 7F 00                                          ...             
```

#### Opcodes

```
  0: 0x00BE [0xB6] ENTITY_APPEARANCE_HANDLER(case=Full entity look, race=1*, hair=0*, head=0*, body=0*, hands=0*, legs=0*, feet=0*, main=0*, sub=0*)
  1: 0x00D2 [0xB4] UI_WINDOW_STRING_HANDLER(case=0x00 - Copy string from opcode, work_offset=ExtData[1]->WorkLocal[0], string="")
  2: 0x00E6 [0xB5] SET_EVENT_ENTITY_NAME: Change EventEntity name to ExtData[1]->WorkLocal[0]
  3: 0x00EA [0x22] ENTITY_HIDE_FLAG(enabled=0x01)
  4: 0x00EC [0x2F] EventEntity->Render.Flags0 |= 0x80000 // Bit 19
  5: 0x00F2 [0x00] END_REQSTACK()
```

### Event 65535.7

#### Metadata

| Field        | Value    |
|--------------|----------|
| Entrypoint   | 0x00F3   |
| Data Size    | 16 bytes |
| Instructions | 5        |

```
      00 01 02 03 04 05 06 07  08 09 0A 0B 0C 0D 0E 0F
      -- -- -- -- -- -- -- --  -- -- -- -- -- -- -- --
00F0:          32 0C 80 1F 00  17 80 18 80 19 80 1F 01     2............
0100: 22 01 00                                          "..             
```

#### Opcodes

```
  0: 0x00F3 [0x32] ExtData[1]->MainSpeed = 40* * 0.1
  1: 0x00F6 [0x1F] MOVE_ENTITY: EventEntity moves to X=175.951*, Z=-213.862*, Y=0.337*
  2: 0x00FE [0x1F] MOVE_ENTITY: Update entity position (mode=1)
  3: 0x0100 [0x22] ENTITY_HIDE_FLAG(enabled=0x01)
  4: 0x0102 [0x00] END_REQSTACK()
```

### Event 65535.8

#### Metadata

| Field        | Value    |
|--------------|----------|
| Entrypoint   | 0x0103   |
| Data Size    | 31 bytes |
| Instructions | 9        |

```
      00 01 02 03 04 05 06 07  08 09 0A 0B 0C 0D 0E 0F
      -- -- -- -- -- -- -- --  -- -- -- -- -- -- -- --
0100:          32 0C 80 1F 00  1A 80 1B 80 1C 80 1F 01     2............
0110: 1F 00 1D 80 1E 80 1F 80  1F 01 1E 75 72 10 01 6F  ...........ur..o
0120: 70 00                                             p.              
```

#### Opcodes

```
  0: 0x0103 [0x32] ExtData[1]->MainSpeed = 40* * 0.1
  1: 0x0106 [0x1F] MOVE_ENTITY: EventEntity moves to X=156.673*, Z=-216.732*, Y=0.161*
  2: 0x010E [0x1F] MOVE_ENTITY: Update entity position (mode=1)
  3: 0x0110 [0x1F] MOVE_ENTITY: EventEntity moves to X=158.161*, Z=-216.982*, Y=-0.007*
  4: 0x0118 [0x1F] MOVE_ENTITY: Update entity position (mode=1)
  5: 0x011A [0x1E] EventEntity looks at Unnamed NPC (ID: 17855093/0x01107275) and starts talking
  6: 0x011F [0x6F] WAIT_FRAME_DELAY: Yield until WaitTime reaches zero
  7: 0x0120 [0x70] WAIT_ENTITY_RENDER_FLAG: Wait while EventEntity->Render.Flags3 bit 2 is set (cancel turn if not)
  8: 0x0121 [0x00] END_REQSTACK()
```

### Event 65535.9

#### Metadata

| Field        | Value    |
|--------------|----------|
| Entrypoint   | 0x0122   |
| Data Size    | 19 bytes |
| Instructions | 3        |

```
      00 01 02 03 04 05 06 07  08 09 0A 0B 0C 0D 0E 0F
      -- -- -- -- -- -- -- --  -- -- -- -- -- -- -- --
0120:       66 20 80 F8 FF FF  7F F8 FF FF 7F 70 6F 73    f .........pos
0130: 30 1C 21 80 00                                    0.!..           
```

#### Opcodes

```
  0: 0x0122 [0x66] LOAD_EXT_SCHEDULER_MAIN: Load scheduler "pos0" with entities [EventEntity, EventEntity], work=74*
  1: 0x0131 [0x1C] WAIT(56* ticks)
  2: 0x0134 [0x00] END_REQSTACK()
```
