# 17855061

## Common Data

| Field            | Value                  |
|------------------|------------------------|
| Zone             | Yorcia Weald (ID: 263) |
| Block Size       | 1836 bytes             |
| Total Events     | 87                     |
| References Count | 41                     |

## List of Events

| Event ID                   | Entrypoint   |   Size |   Instructions |
|----------------------------|--------------|--------|----------------|
| [65535](#event-65535)      | 0x0000       |      1 |              1 |
| [65535.1](#event-655351)   | 0x0001       |      1 |              1 |
| [65535.2](#event-655352)   | 0x0002       |     18 |              4 |
| [65535.3](#event-655353)   | 0x0014       |     10 |              2 |
| [65535.4](#event-655354)   | 0x001E       |      9 |              3 |
| [65535.5](#event-655355)   | 0x0027       |      9 |              3 |
| [65535.6](#event-655356)   | 0x0030       |     10 |              2 |
| [65535.7](#event-655357)   | 0x003A       |     10 |              2 |
| [1](#event-1)              | 0x0044       |      1 |              1 |
| [2](#event-2)              | 0x0045       |      1 |              1 |
| [65535.8](#event-655358)   | 0x0046       |      5 |              2 |
| [65535.9](#event-655359)   | 0x004B       |      5 |              2 |
| [65535.10](#event-6553510) | 0x0050       |     14 |              4 |
| [4](#event-4)              | 0x005E       |      5 |              2 |
| [65535.11](#event-6553511) | 0x0063       |      5 |              2 |
| [65535.12](#event-6553512) | 0x0068       |     16 |              2 |
| [65535.13](#event-6553513) | 0x0078       |     14 |              2 |
| [65535.14](#event-6553514) | 0x0086       |     16 |              2 |
| [65535.15](#event-6553515) | 0x0096       |     14 |              2 |
| [65535.16](#event-6553516) | 0x00A4       |     16 |              2 |
| [65535.17](#event-6553517) | 0x00B4       |     14 |              2 |
| [65535.18](#event-6553518) | 0x00C2       |     16 |              2 |
| [65535.19](#event-6553519) | 0x00D2       |     14 |              2 |
| [65535.20](#event-6553520) | 0x00E0       |     16 |              2 |
| [65535.21](#event-6553521) | 0x00F0       |     14 |              2 |
| [65535.22](#event-6553522) | 0x00FE       |     16 |              2 |
| [65535.23](#event-6553523) | 0x010E       |     14 |              2 |
| [65535.24](#event-6553524) | 0x011C       |     19 |              2 |
| [65535.25](#event-6553525) | 0x012F       |     15 |              2 |
| [65535.26](#event-6553526) | 0x013E       |     19 |              2 |
| [65535.27](#event-6553527) | 0x0151       |     15 |              2 |
| [65535.28](#event-6553528) | 0x0160       |     19 |              2 |
| [65535.29](#event-6553529) | 0x0173       |     15 |              2 |
| [65535.30](#event-6553530) | 0x0182       |     19 |              2 |
| [65535.31](#event-6553531) | 0x0195       |     15 |              2 |
| [65535.32](#event-6553532) | 0x01A4       |     19 |              2 |
| [65535.33](#event-6553533) | 0x01B7       |     15 |              2 |
| [65535.34](#event-6553534) | 0x01C6       |     19 |              2 |
| [65535.35](#event-6553535) | 0x01D9       |     15 |              2 |
| [65535.36](#event-6553536) | 0x01E8       |     19 |              2 |
| [65535.37](#event-6553537) | 0x01FB       |     15 |              2 |
| [65535.38](#event-6553538) | 0x020A       |     19 |              2 |
| [65535.39](#event-6553539) | 0x021D       |     15 |              2 |
| [65535.40](#event-6553540) | 0x022C       |     19 |              2 |
| [65535.41](#event-6553541) | 0x023F       |     15 |              2 |
| [65535.42](#event-6553542) | 0x024E       |     19 |              2 |
| [65535.43](#event-6553543) | 0x0261       |     15 |              2 |
| [65535.44](#event-6553544) | 0x0270       |     19 |              2 |
| [65535.45](#event-6553545) | 0x0283       |     15 |              2 |
| [65535.46](#event-6553546) | 0x0292       |     19 |              2 |
| [65535.47](#event-6553547) | 0x02A5       |     15 |              2 |
| [65535.48](#event-6553548) | 0x02B4       |     19 |              2 |
| [65535.49](#event-6553549) | 0x02C7       |     15 |              2 |
| [65535.50](#event-6553550) | 0x02D6       |     19 |              2 |
| [65535.51](#event-6553551) | 0x02E9       |     15 |              2 |
| [65535.52](#event-6553552) | 0x02F8       |     19 |              2 |
| [65535.53](#event-6553553) | 0x030B       |     15 |              2 |
| [65535.54](#event-6553554) | 0x031A       |     19 |              2 |
| [65535.55](#event-6553555) | 0x032D       |     15 |              2 |
| [65535.56](#event-6553556) | 0x033C       |     19 |              2 |
| [65535.57](#event-6553557) | 0x034F       |     15 |              2 |
| [65535.58](#event-6553558) | 0x035E       |     19 |              2 |
| [65535.59](#event-6553559) | 0x0371       |     15 |              2 |
| [65535.60](#event-6553560) | 0x0380       |     31 |              4 |
| [65535.61](#event-6553561) | 0x039F       |     15 |              2 |
| [65535.62](#event-6553562) | 0x03AE       |     19 |              2 |
| [65535.63](#event-6553563) | 0x03C1       |     27 |              4 |
| [65535.64](#event-6553564) | 0x03DC       |     19 |              2 |
| [65535.65](#event-6553565) | 0x03EF       |     15 |              2 |
| [65535.66](#event-6553566) | 0x03FE       |     19 |              2 |
| [65535.67](#event-6553567) | 0x0411       |     15 |              2 |
| [65535.68](#event-6553568) | 0x0420       |     19 |              2 |
| [65535.69](#event-6553569) | 0x0433       |     15 |              2 |
| [65535.70](#event-6553570) | 0x0442       |     16 |              2 |
| [65535.71](#event-6553571) | 0x0452       |     14 |              2 |
| [65535.72](#event-6553572) | 0x0460       |     19 |              2 |
| [65535.73](#event-6553573) | 0x0473       |     15 |              2 |
| [65535.74](#event-6553574) | 0x0482       |     19 |              2 |
| [65535.75](#event-6553575) | 0x0495       |     15 |              2 |
| [65535.76](#event-6553576) | 0x04A4       |     14 |              4 |
| [6](#event-6)              | 0x04B2       |      1 |              1 |
| [65535.77](#event-6553577) | 0x04B3       |     32 |              5 |
| [65535.78](#event-6553578) | 0x04D3       |     29 |              4 |
| [7](#event-7)              | 0x04F0       |      1 |              1 |
| [65535.79](#event-6553579) | 0x04F1       |     32 |              5 |
| [130](#event-130)          | 0x0511       |      5 |              2 |
| [131](#event-131)          | 0x0516       |      5 |              2 |

## DAT References (imed_data)

|   Index | Hex Value   |   Dec Value |
|---------|-------------|-------------|
|       0 | 0x0000      |           0 |
|       1 | 0x0001      |           1 |
|       2 | 0x0080      |         128 |
|       3 | 0x0A92      |        2706 |
|       4 | 0x0034      |          52 |
|       5 | 0xFFFFFFF9  |  4294967289 |
|       6 | 0xFFFD5405  |  4294792197 |
|       7 | 0x5EA73     |      387699 |
|       8 | 0x08FA      |        2298 |
|       9 | 0x0146      |         326 |
|      10 | 0x0D93      |        3475 |
|      11 | 0x0D9D      |        3485 |
|      12 | 0x0D94      |        3476 |
|      13 | 0x0082      |         130 |
|      14 | 0x0096      |         150 |
|      15 | 0x00AA      |         170 |
|      16 | 0x00D2      |         210 |
|      17 | 0x0D95      |        3477 |
|      18 | 0x00B4      |         180 |
|      19 | 0x0078      |         120 |
|      20 | 0x008C      |         140 |
|      21 | 0x0D96      |        3478 |
|      22 | 0x00C8      |         200 |
|      23 | 0x0D9C      |        3484 |
|      24 | 0x014A      |         330 |
|      25 | 0x0DF4      |        3572 |
|      26 | 0x00A0      |         160 |
|      27 | 0x0EE9      |        3817 |
|      28 | 0x010E      |         270 |
|      29 | 0x00BE      |         190 |
|      30 | 0x0DA1      |        3489 |
|      31 | 0x01AE      |         430 |
|      32 | 0x0DB6      |        3510 |
|      33 | 0x0186      |         390 |
|      34 | 0x000D      |          13 |
|      35 | 0x1EDC6     |      126406 |
|      36 | 0xADBB      |       44475 |
|      37 | 0x008D      |         141 |
|      38 | 0x0AB5      |        2741 |
|      39 | 0x0002      |           2 |
|      40 | 0x0AB1      |        2737 |

## Events

### Event 65535

#### Metadata

| Field        | Value   |
|--------------|---------|
| Entrypoint   | 0x0000  |
| Data Size    | 1 bytes |
| Instructions | 1       |

```
      00 01 02 03 04 05 06 07  08 09 0A 0B 0C 0D 0E 0F
      -- -- -- -- -- -- -- --  -- -- -- -- -- -- -- --
0000: 00                                                .               
```

#### Opcodes

```
  0: 0x0000 [0x00] END_REQSTACK()
```

### Event 65535.1

#### Metadata

| Field        | Value   |
|--------------|---------|
| Entrypoint   | 0x0001  |
| Data Size    | 1 bytes |
| Instructions | 1       |

```
      00 01 02 03 04 05 06 07  08 09 0A 0B 0C 0D 0E 0F
      -- -- -- -- -- -- -- --  -- -- -- -- -- -- -- --
0000:    00                                              .              
```

#### Opcodes

```
  0: 0x0001 [0x00] END_REQSTACK()
```

### Event 65535.2

#### Metadata

| Field        | Value    |
|--------------|----------|
| Entrypoint   | 0x0002   |
| Data Size    | 18 bytes |
| Instructions | 4        |

```
      00 01 02 03 04 05 06 07  08 09 0A 0B 0C 0D 0E 0F
      -- -- -- -- -- -- -- --  -- -- -- -- -- -- -- --
0000:       22 00 2F 00 F8 FF  FF 7F 6C F8 FF FF 7F 00    "./.....l.....
0010: 80 01 80 00                                       ....            
```

#### Opcodes

```
  0: 0x0002 [0x22] ENTITY_HIDE_FLAG(enabled=0x00)
  1: 0x0004 [0x2F] EventEntity->Render.Flags0 &= ~0x80000 // Bit 19
  2: 0x000A [0x6C] FADE_ENTITY_COLOR(entity_id=EventEntity, end_alpha=0*, fade_time=1*)
  3: 0x0013 [0x00] END_REQSTACK()
```

### Event 65535.3

#### Metadata

| Field        | Value    |
|--------------|----------|
| Entrypoint   | 0x0014   |
| Data Size    | 10 bytes |
| Instructions | 2        |

```
      00 01 02 03 04 05 06 07  08 09 0A 0B 0C 0D 0E 0F
      -- -- -- -- -- -- -- --  -- -- -- -- -- -- -- --
0010:             6C F8 FF FF  7F 02 80 01 80 00            l.........  
```

#### Opcodes

```
  0: 0x0014 [0x6C] FADE_ENTITY_COLOR(entity_id=EventEntity, end_alpha=128*, fade_time=1*)
  1: 0x001D [0x00] END_REQSTACK()
```

### Event 65535.4

#### Metadata

| Field        | Value   |
|--------------|---------|
| Entrypoint   | 0x001E  |
| Data Size    | 9 bytes |
| Instructions | 3       |

```
      00 01 02 03 04 05 06 07  08 09 0A 0B 0C 0D 0E 0F
      -- -- -- -- -- -- -- --  -- -- -- -- -- -- -- --
0010:                                            22 00                ".
0020: 2F 00 F8 FF FF 7F 00                              /......         
```

#### Opcodes

```
  0: 0x001E [0x22] ENTITY_HIDE_FLAG(enabled=0x00)
  1: 0x0020 [0x2F] EventEntity->Render.Flags0 &= ~0x80000 // Bit 19
  2: 0x0026 [0x00] END_REQSTACK()
```

### Event 65535.5

#### Metadata

| Field        | Value   |
|--------------|---------|
| Entrypoint   | 0x0027  |
| Data Size    | 9 bytes |
| Instructions | 3       |

```
      00 01 02 03 04 05 06 07  08 09 0A 0B 0C 0D 0E 0F
      -- -- -- -- -- -- -- --  -- -- -- -- -- -- -- --
0020:                      22  01 2F 01 F8 FF FF 7F 00         "./......
```

#### Opcodes

```
  0: 0x0027 [0x22] ENTITY_HIDE_FLAG(enabled=0x01)
  1: 0x0029 [0x2F] EventEntity->Render.Flags0 |= 0x80000 // Bit 19
  2: 0x002F [0x00] END_REQSTACK()
```

### Event 65535.6

#### Metadata

| Field        | Value    |
|--------------|----------|
| Entrypoint   | 0x0030   |
| Data Size    | 10 bytes |
| Instructions | 2        |

```
      00 01 02 03 04 05 06 07  08 09 0A 0B 0C 0D 0E 0F
      -- -- -- -- -- -- -- --  -- -- -- -- -- -- -- --
0030: 6C F8 FF FF 7F 00 80 01  80 00                    l.........      
```

#### Opcodes

```
  0: 0x0030 [0x6C] FADE_ENTITY_COLOR(entity_id=EventEntity, end_alpha=0*, fade_time=1*)
  1: 0x0039 [0x00] END_REQSTACK()
```

### Event 65535.7

#### Metadata

| Field        | Value    |
|--------------|----------|
| Entrypoint   | 0x003A   |
| Data Size    | 10 bytes |
| Instructions | 2        |

```
      00 01 02 03 04 05 06 07  08 09 0A 0B 0C 0D 0E 0F
      -- -- -- -- -- -- -- --  -- -- -- -- -- -- -- --
0030:                                6C F8 FF FF 7F 02            l.....
0040: 80 01 80 00                                       ....            
```

#### Opcodes

```
  0: 0x003A [0x6C] FADE_ENTITY_COLOR(entity_id=EventEntity, end_alpha=128*, fade_time=1*)
  1: 0x0043 [0x00] END_REQSTACK()
```

### Event 1

#### Metadata

| Field        | Value   |
|--------------|---------|
| Entrypoint   | 0x0044  |
| Data Size    | 1 bytes |
| Instructions | 1       |

```
      00 01 02 03 04 05 06 07  08 09 0A 0B 0C 0D 0E 0F
      -- -- -- -- -- -- -- --  -- -- -- -- -- -- -- --
0040:             00                                        .           
```

#### Opcodes

```
  0: 0x0044 [0x00] END_REQSTACK()
```

### Event 2

#### Metadata

| Field        | Value   |
|--------------|---------|
| Entrypoint   | 0x0045  |
| Data Size    | 1 bytes |
| Instructions | 1       |

```
      00 01 02 03 04 05 06 07  08 09 0A 0B 0C 0D 0E 0F
      -- -- -- -- -- -- -- --  -- -- -- -- -- -- -- --
0040:                00                                      .          
```

#### Opcodes

```
  0: 0x0045 [0x00] END_REQSTACK()
```

### Event 65535.8

#### Metadata

| Field        | Value   |
|--------------|---------|
| Entrypoint   | 0x0046  |
| Data Size    | 5 bytes |
| Instructions | 2       |

```
      00 01 02 03 04 05 06 07  08 09 0A 0B 0C 0D 0E 0F
      -- -- -- -- -- -- -- --  -- -- -- -- -- -- -- --
0040:                   B6 00  03 80 00                       .....     
```

#### Opcodes

```
  0: 0x0046 [0xB6] ENTITY_APPEARANCE_HANDLER(case=Hair style, value=2706*)
  1: 0x004A [0x00] END_REQSTACK()
```

### Event 65535.9

#### Metadata

| Field        | Value   |
|--------------|---------|
| Entrypoint   | 0x004B  |
| Data Size    | 5 bytes |
| Instructions | 2       |

```
      00 01 02 03 04 05 06 07  08 09 0A 0B 0C 0D 0E 0F
      -- -- -- -- -- -- -- --  -- -- -- -- -- -- -- --
0040:                                   B6 00 04 80 00             .....
```

#### Opcodes

```
  0: 0x004B [0xB6] ENTITY_APPEARANCE_HANDLER(case=Hair style, value=52*)
  1: 0x004F [0x00] END_REQSTACK()
```

### Event 65535.10

#### Metadata

| Field        | Value    |
|--------------|----------|
| Entrypoint   | 0x0050   |
| Data Size    | 14 bytes |
| Instructions | 4        |

```
      00 01 02 03 04 05 06 07  08 09 0A 0B 0C 0D 0E 0F
      -- -- -- -- -- -- -- --  -- -- -- -- -- -- -- --
0050: 32 05 80 5A 00 06 80 07  80 08 80 5A 01 00        2..Z.......Z..  
```

#### Opcodes

```
  0: 0x0050 [0x32] ExtData[1]->MainSpeed = 4294967289* * 0.1
  1: 0x0053 [0x5A] UPDATE_EVENT_POSITION: Set EventEntity MovePosition to X=-175.099*, Z=387.699*, Y=2.298*
  2: 0x005B [0x5A] UPDATE_EVENT_POSITION: Move EventEntity incrementally towards MovePosition
  3: 0x005D [0x00] END_REQSTACK()
```

### Event 4

#### Metadata

| Field        | Value   |
|--------------|---------|
| Entrypoint   | 0x005E  |
| Data Size    | 5 bytes |
| Instructions | 2       |

```
      00 01 02 03 04 05 06 07  08 09 0A 0B 0C 0D 0E 0F
      -- -- -- -- -- -- -- --  -- -- -- -- -- -- -- --
0050:                                            B6 00                ..
0060: 09 80 00                                          ...             
```

#### Opcodes

```
  0: 0x005E [0xB6] ENTITY_APPEARANCE_HANDLER(case=Hair style, value=326*)
  1: 0x0062 [0x00] END_REQSTACK()
```

### Event 65535.11

#### Metadata

| Field        | Value   |
|--------------|---------|
| Entrypoint   | 0x0063  |
| Data Size    | 5 bytes |
| Instructions | 2       |

```
      00 01 02 03 04 05 06 07  08 09 0A 0B 0C 0D 0E 0F
      -- -- -- -- -- -- -- --  -- -- -- -- -- -- -- --
0060:          B6 00 04 80 00                              .....        
```

#### Opcodes

```
  0: 0x0063 [0xB6] ENTITY_APPEARANCE_HANDLER(case=Hair style, value=52*)
  1: 0x0067 [0x00] END_REQSTACK()
```

### Event 65535.12

#### Metadata

| Field        | Value    |
|--------------|----------|
| Entrypoint   | 0x0068   |
| Data Size    | 16 bytes |
| Instructions | 2        |

```
      00 01 02 03 04 05 06 07  08 09 0A 0B 0C 0D 0E 0F
      -- -- -- -- -- -- -- --  -- -- -- -- -- -- -- --
0060:                          5B 0A 80 F8 FF FF 7F F8          [.......
0070: FF FF 7F 66 30 30 30 00                           ...f000.        
```

#### Opcodes

```
  0: 0x0068 [0x5B] LOAD_EXT_SCHEDULER: Load scheduler "f000" with entities [EventEntity, EventEntity], work=3475*
  1: 0x0077 [0x00] END_REQSTACK()
```

### Event 65535.13

#### Metadata

| Field        | Value    |
|--------------|----------|
| Entrypoint   | 0x0078   |
| Data Size    | 14 bytes |
| Instructions | 2        |

```
      00 01 02 03 04 05 06 07  08 09 0A 0B 0C 0D 0E 0F
      -- -- -- -- -- -- -- --  -- -- -- -- -- -- -- --
0070:                          53 F8 FF FF 7F F8 FF FF          S.......
0080: 7F 66 30 30 30 00                                 .f000.          
```

#### Opcodes

```
  0: 0x0078 [0x53] WAIT_SCHEDULER_TASK: Wait for scheduler "f000" with entities [EventEntity, EventEntity]
  1: 0x0085 [0x00] END_REQSTACK()
```

### Event 65535.14

#### Metadata

| Field        | Value    |
|--------------|----------|
| Entrypoint   | 0x0086   |
| Data Size    | 16 bytes |
| Instructions | 2        |

```
      00 01 02 03 04 05 06 07  08 09 0A 0B 0C 0D 0E 0F
      -- -- -- -- -- -- -- --  -- -- -- -- -- -- -- --
0080:                   5B 0A  80 F8 FF FF 7F F8 FF FF        [.........
0090: 7F 66 30 30 31 00                                 .f001.          
```

#### Opcodes

```
  0: 0x0086 [0x5B] LOAD_EXT_SCHEDULER: Load scheduler "f001" with entities [EventEntity, EventEntity], work=3475*
  1: 0x0095 [0x00] END_REQSTACK()
```

### Event 65535.15

#### Metadata

| Field        | Value    |
|--------------|----------|
| Entrypoint   | 0x0096   |
| Data Size    | 14 bytes |
| Instructions | 2        |

```
      00 01 02 03 04 05 06 07  08 09 0A 0B 0C 0D 0E 0F
      -- -- -- -- -- -- -- --  -- -- -- -- -- -- -- --
0090:                   53 F8  FF FF 7F F8 FF FF 7F 66        S........f
00A0: 30 30 31 00                                       001.            
```

#### Opcodes

```
  0: 0x0096 [0x53] WAIT_SCHEDULER_TASK: Wait for scheduler "f001" with entities [EventEntity, EventEntity]
  1: 0x00A3 [0x00] END_REQSTACK()
```

### Event 65535.16

#### Metadata

| Field        | Value    |
|--------------|----------|
| Entrypoint   | 0x00A4   |
| Data Size    | 16 bytes |
| Instructions | 2        |

```
      00 01 02 03 04 05 06 07  08 09 0A 0B 0C 0D 0E 0F
      -- -- -- -- -- -- -- --  -- -- -- -- -- -- -- --
00A0:             5B 0A 80 F8  FF FF 7F F8 FF FF 7F 66      [..........f
00B0: 65 30 30 00                                       e00.            
```

#### Opcodes

```
  0: 0x00A4 [0x5B] LOAD_EXT_SCHEDULER: Load scheduler "fe00" with entities [EventEntity, EventEntity], work=3475*
  1: 0x00B3 [0x00] END_REQSTACK()
```

### Event 65535.17

#### Metadata

| Field        | Value    |
|--------------|----------|
| Entrypoint   | 0x00B4   |
| Data Size    | 14 bytes |
| Instructions | 2        |

```
      00 01 02 03 04 05 06 07  08 09 0A 0B 0C 0D 0E 0F
      -- -- -- -- -- -- -- --  -- -- -- -- -- -- -- --
00B0:             53 F8 FF FF  7F F8 FF FF 7F 66 65 30      S........fe0
00C0: 30 00                                             0.              
```

#### Opcodes

```
  0: 0x00B4 [0x53] WAIT_SCHEDULER_TASK: Wait for scheduler "fe00" with entities [EventEntity, EventEntity]
  1: 0x00C1 [0x00] END_REQSTACK()
```

### Event 65535.18

#### Metadata

| Field        | Value    |
|--------------|----------|
| Entrypoint   | 0x00C2   |
| Data Size    | 16 bytes |
| Instructions | 2        |

```
      00 01 02 03 04 05 06 07  08 09 0A 0B 0C 0D 0E 0F
      -- -- -- -- -- -- -- --  -- -- -- -- -- -- -- --
00C0:       5B 0A 80 F8 FF FF  7F F8 FF FF 7F 66 65 30    [..........fe0
00D0: 31 00                                             1.              
```

#### Opcodes

```
  0: 0x00C2 [0x5B] LOAD_EXT_SCHEDULER: Load scheduler "fe01" with entities [EventEntity, EventEntity], work=3475*
  1: 0x00D1 [0x00] END_REQSTACK()
```

### Event 65535.19

#### Metadata

| Field        | Value    |
|--------------|----------|
| Entrypoint   | 0x00D2   |
| Data Size    | 14 bytes |
| Instructions | 2        |

```
      00 01 02 03 04 05 06 07  08 09 0A 0B 0C 0D 0E 0F
      -- -- -- -- -- -- -- --  -- -- -- -- -- -- -- --
00D0:       53 F8 FF FF 7F F8  FF FF 7F 66 65 30 31 00    S........fe01.
```

#### Opcodes

```
  0: 0x00D2 [0x53] WAIT_SCHEDULER_TASK: Wait for scheduler "fe01" with entities [EventEntity, EventEntity]
  1: 0x00DF [0x00] END_REQSTACK()
```

### Event 65535.20

#### Metadata

| Field        | Value    |
|--------------|----------|
| Entrypoint   | 0x00E0   |
| Data Size    | 16 bytes |
| Instructions | 2        |

```
      00 01 02 03 04 05 06 07  08 09 0A 0B 0C 0D 0E 0F
      -- -- -- -- -- -- -- --  -- -- -- -- -- -- -- --
00E0: 5B 0B 80 F8 FF FF 7F F8  FF FF 7F 66 6E 30 30 00  [..........fn00.
```

#### Opcodes

```
  0: 0x00E0 [0x5B] LOAD_EXT_SCHEDULER: Load scheduler "fn00" with entities [EventEntity, EventEntity], work=3485*
  1: 0x00EF [0x00] END_REQSTACK()
```

### Event 65535.21

#### Metadata

| Field        | Value    |
|--------------|----------|
| Entrypoint   | 0x00F0   |
| Data Size    | 14 bytes |
| Instructions | 2        |

```
      00 01 02 03 04 05 06 07  08 09 0A 0B 0C 0D 0E 0F
      -- -- -- -- -- -- -- --  -- -- -- -- -- -- -- --
00F0: 53 F8 FF FF 7F F8 FF FF  7F 66 6E 30 30 00        S........fn00.  
```

#### Opcodes

```
  0: 0x00F0 [0x53] WAIT_SCHEDULER_TASK: Wait for scheduler "fn00" with entities [EventEntity, EventEntity]
  1: 0x00FD [0x00] END_REQSTACK()
```

### Event 65535.22

#### Metadata

| Field        | Value    |
|--------------|----------|
| Entrypoint   | 0x00FE   |
| Data Size    | 16 bytes |
| Instructions | 2        |

```
      00 01 02 03 04 05 06 07  08 09 0A 0B 0C 0D 0E 0F
      -- -- -- -- -- -- -- --  -- -- -- -- -- -- -- --
00F0:                                            5B 0B                [.
0100: 80 F8 FF FF 7F F8 FF FF  7F 66 6E 30 31 00        .........fn01.  
```

#### Opcodes

```
  0: 0x00FE [0x5B] LOAD_EXT_SCHEDULER: Load scheduler "fn01" with entities [EventEntity, EventEntity], work=3485*
  1: 0x010D [0x00] END_REQSTACK()
```

### Event 65535.23

#### Metadata

| Field        | Value    |
|--------------|----------|
| Entrypoint   | 0x010E   |
| Data Size    | 14 bytes |
| Instructions | 2        |

```
      00 01 02 03 04 05 06 07  08 09 0A 0B 0C 0D 0E 0F
      -- -- -- -- -- -- -- --  -- -- -- -- -- -- -- --
0100:                                            53 F8                S.
0110: FF FF 7F F8 FF FF 7F 66  6E 30 31 00              .......fn01.    
```

#### Opcodes

```
  0: 0x010E [0x53] WAIT_SCHEDULER_TASK: Wait for scheduler "fn01" with entities [EventEntity, EventEntity]
  1: 0x011B [0x00] END_REQSTACK()
```

### Event 65535.24

#### Metadata

| Field        | Value    |
|--------------|----------|
| Entrypoint   | 0x011C   |
| Data Size    | 19 bytes |
| Instructions | 2        |

```
      00 01 02 03 04 05 06 07  08 09 0A 0B 0C 0D 0E 0F
      -- -- -- -- -- -- -- --  -- -- -- -- -- -- -- --
0110:                                      5F 05 0C 80              _...
0120: F8 FF FF 7F F8 FF FF 7F  74 6C 6B 30 0D 80 00     ........tlk0... 
```

#### Opcodes

```
  0: 0x011C [0x5F] MULTI_HANDLER_COMPLEX(mode=0x05 - Load ext scheduler with flag (OpCode 0x5B mode 0, flag 1), ref=3476*, entity1=EventEntity, entity2=EventEntity, string="tlk0", extra=130*)
  1: 0x012E [0x00] END_REQSTACK()
```

### Event 65535.25

#### Metadata

| Field        | Value    |
|--------------|----------|
| Entrypoint   | 0x012F   |
| Data Size    | 15 bytes |
| Instructions | 2        |

```
      00 01 02 03 04 05 06 07  08 09 0A 0B 0C 0D 0E 0F
      -- -- -- -- -- -- -- --  -- -- -- -- -- -- -- --
0120:                                               5F                 _
0130: 07 F8 FF FF 7F F8 FF FF  7F 74 6C 6B 30 00        .........tlk0.  
```

#### Opcodes

```
  0: 0x012F [0x5F] MULTI_HANDLER_COMPLEX(mode=0x07 - Wait scheduler task (OpCode 0x53))
  1: 0x013D [0x00] END_REQSTACK()
```

### Event 65535.26

#### Metadata

| Field        | Value    |
|--------------|----------|
| Entrypoint   | 0x013E   |
| Data Size    | 19 bytes |
| Instructions | 2        |

```
      00 01 02 03 04 05 06 07  08 09 0A 0B 0C 0D 0E 0F
      -- -- -- -- -- -- -- --  -- -- -- -- -- -- -- --
0130:                                            5F 05                _.
0140: 0C 80 F8 FF FF 7F F8 FF  FF 7F 74 6C 6B 31 0E 80  ..........tlk1..
0150: 00                                                .               
```

#### Opcodes

```
  0: 0x013E [0x5F] MULTI_HANDLER_COMPLEX(mode=0x05 - Load ext scheduler with flag (OpCode 0x5B mode 0, flag 1), ref=3476*, entity1=EventEntity, entity2=EventEntity, string="tlk1", extra=150*)
  1: 0x0150 [0x00] END_REQSTACK()
```

### Event 65535.27

#### Metadata

| Field        | Value    |
|--------------|----------|
| Entrypoint   | 0x0151   |
| Data Size    | 15 bytes |
| Instructions | 2        |

```
      00 01 02 03 04 05 06 07  08 09 0A 0B 0C 0D 0E 0F
      -- -- -- -- -- -- -- --  -- -- -- -- -- -- -- --
0150:    5F 07 F8 FF FF 7F F8  FF FF 7F 74 6C 6B 31 00   _.........tlk1.
```

#### Opcodes

```
  0: 0x0151 [0x5F] MULTI_HANDLER_COMPLEX(mode=0x07 - Wait scheduler task (OpCode 0x53))
  1: 0x015F [0x00] END_REQSTACK()
```

### Event 65535.28

#### Metadata

| Field        | Value    |
|--------------|----------|
| Entrypoint   | 0x0160   |
| Data Size    | 19 bytes |
| Instructions | 2        |

```
      00 01 02 03 04 05 06 07  08 09 0A 0B 0C 0D 0E 0F
      -- -- -- -- -- -- -- --  -- -- -- -- -- -- -- --
0160: 5F 05 0C 80 F8 FF FF 7F  F8 FF FF 7F 79 65 73 30  _...........yes0
0170: 0F 80 00                                          ...             
```

#### Opcodes

```
  0: 0x0160 [0x5F] MULTI_HANDLER_COMPLEX(mode=0x05 - Load ext scheduler with flag (OpCode 0x5B mode 0, flag 1), ref=3476*, entity1=EventEntity, entity2=EventEntity, string="yes0", extra=170*)
  1: 0x0172 [0x00] END_REQSTACK()
```

### Event 65535.29

#### Metadata

| Field        | Value    |
|--------------|----------|
| Entrypoint   | 0x0173   |
| Data Size    | 15 bytes |
| Instructions | 2        |

```
      00 01 02 03 04 05 06 07  08 09 0A 0B 0C 0D 0E 0F
      -- -- -- -- -- -- -- --  -- -- -- -- -- -- -- --
0170:          5F 07 F8 FF FF  7F F8 FF FF 7F 79 65 73     _.........yes
0180: 30 00                                             0.              
```

#### Opcodes

```
  0: 0x0173 [0x5F] MULTI_HANDLER_COMPLEX(mode=0x07 - Wait scheduler task (OpCode 0x53))
  1: 0x0181 [0x00] END_REQSTACK()
```

### Event 65535.30

#### Metadata

| Field        | Value    |
|--------------|----------|
| Entrypoint   | 0x0182   |
| Data Size    | 19 bytes |
| Instructions | 2        |

```
      00 01 02 03 04 05 06 07  08 09 0A 0B 0C 0D 0E 0F
      -- -- -- -- -- -- -- --  -- -- -- -- -- -- -- --
0180:       5F 05 0C 80 F8 FF  FF 7F F8 FF FF 7F 6E 6F    _...........no
0190: 6E 30 10 80 00                                    n0...           
```

#### Opcodes

```
  0: 0x0182 [0x5F] MULTI_HANDLER_COMPLEX(mode=0x05 - Load ext scheduler with flag (OpCode 0x5B mode 0, flag 1), ref=3476*, entity1=EventEntity, entity2=EventEntity, string="non0", extra=210*)
  1: 0x0194 [0x00] END_REQSTACK()
```

### Event 65535.31

#### Metadata

| Field        | Value    |
|--------------|----------|
| Entrypoint   | 0x0195   |
| Data Size    | 15 bytes |
| Instructions | 2        |

```
      00 01 02 03 04 05 06 07  08 09 0A 0B 0C 0D 0E 0F
      -- -- -- -- -- -- -- --  -- -- -- -- -- -- -- --
0190:                5F 07 F8  FF FF 7F F8 FF FF 7F 6E       _.........n
01A0: 6F 6E 30 00                                       on0.            
```

#### Opcodes

```
  0: 0x0195 [0x5F] MULTI_HANDLER_COMPLEX(mode=0x07 - Wait scheduler task (OpCode 0x53))
  1: 0x01A3 [0x00] END_REQSTACK()
```

### Event 65535.32

#### Metadata

| Field        | Value    |
|--------------|----------|
| Entrypoint   | 0x01A4   |
| Data Size    | 19 bytes |
| Instructions | 2        |

```
      00 01 02 03 04 05 06 07  08 09 0A 0B 0C 0D 0E 0F
      -- -- -- -- -- -- -- --  -- -- -- -- -- -- -- --
01A0:             5F 05 11 80  F8 FF FF 7F F8 FF FF 7F      _...........
01B0: 75 64 65 30 0F 80 00                              ude0...         
```

#### Opcodes

```
  0: 0x01A4 [0x5F] MULTI_HANDLER_COMPLEX(mode=0x05 - Load ext scheduler with flag (OpCode 0x5B mode 0, flag 1), ref=3477*, entity1=EventEntity, entity2=EventEntity, string="ude0", extra=170*)
  1: 0x01B6 [0x00] END_REQSTACK()
```

### Event 65535.33

#### Metadata

| Field        | Value    |
|--------------|----------|
| Entrypoint   | 0x01B7   |
| Data Size    | 15 bytes |
| Instructions | 2        |

```
      00 01 02 03 04 05 06 07  08 09 0A 0B 0C 0D 0E 0F
      -- -- -- -- -- -- -- --  -- -- -- -- -- -- -- --
01B0:                      5F  07 F8 FF FF 7F F8 FF FF         _........
01C0: 7F 75 64 65 30 00                                 .ude0.          
```

#### Opcodes

```
  0: 0x01B7 [0x5F] MULTI_HANDLER_COMPLEX(mode=0x07 - Wait scheduler task (OpCode 0x53))
  1: 0x01C5 [0x00] END_REQSTACK()
```

### Event 65535.34

#### Metadata

| Field        | Value    |
|--------------|----------|
| Entrypoint   | 0x01C6   |
| Data Size    | 19 bytes |
| Instructions | 2        |

```
      00 01 02 03 04 05 06 07  08 09 0A 0B 0C 0D 0E 0F
      -- -- -- -- -- -- -- --  -- -- -- -- -- -- -- --
01C0:                   5F 05  11 80 F8 FF FF 7F F8 FF        _.........
01D0: FF 7F 75 64 65 31 12 80  00                       ..ude1...       
```

#### Opcodes

```
  0: 0x01C6 [0x5F] MULTI_HANDLER_COMPLEX(mode=0x05 - Load ext scheduler with flag (OpCode 0x5B mode 0, flag 1), ref=3477*, entity1=EventEntity, entity2=EventEntity, string="ude1", extra=180*)
  1: 0x01D8 [0x00] END_REQSTACK()
```

### Event 65535.35

#### Metadata

| Field        | Value    |
|--------------|----------|
| Entrypoint   | 0x01D9   |
| Data Size    | 15 bytes |
| Instructions | 2        |

```
      00 01 02 03 04 05 06 07  08 09 0A 0B 0C 0D 0E 0F
      -- -- -- -- -- -- -- --  -- -- -- -- -- -- -- --
01D0:                             5F 07 F8 FF FF 7F F8           _......
01E0: FF FF 7F 75 64 65 31 00                           ...ude1.        
```

#### Opcodes

```
  0: 0x01D9 [0x5F] MULTI_HANDLER_COMPLEX(mode=0x07 - Wait scheduler task (OpCode 0x53))
  1: 0x01E7 [0x00] END_REQSTACK()
```

### Event 65535.36

#### Metadata

| Field        | Value    |
|--------------|----------|
| Entrypoint   | 0x01E8   |
| Data Size    | 19 bytes |
| Instructions | 2        |

```
      00 01 02 03 04 05 06 07  08 09 0A 0B 0C 0D 0E 0F
      -- -- -- -- -- -- -- --  -- -- -- -- -- -- -- --
01E0:                          5F 05 11 80 F8 FF FF 7F          _.......
01F0: F8 FF FF 7F 77 73 74 30  13 80 00                 ....wst0...     
```

#### Opcodes

```
  0: 0x01E8 [0x5F] MULTI_HANDLER_COMPLEX(mode=0x05 - Load ext scheduler with flag (OpCode 0x5B mode 0, flag 1), ref=3477*, entity1=EventEntity, entity2=EventEntity, string="wst0", extra=120*)
  1: 0x01FA [0x00] END_REQSTACK()
```

### Event 65535.37

#### Metadata

| Field        | Value    |
|--------------|----------|
| Entrypoint   | 0x01FB   |
| Data Size    | 15 bytes |
| Instructions | 2        |

```
      00 01 02 03 04 05 06 07  08 09 0A 0B 0C 0D 0E 0F
      -- -- -- -- -- -- -- --  -- -- -- -- -- -- -- --
01F0:                                   5F 07 F8 FF FF             _....
0200: 7F F8 FF FF 7F 77 73 74  30 00                    .....wst0.      
```

#### Opcodes

```
  0: 0x01FB [0x5F] MULTI_HANDLER_COMPLEX(mode=0x07 - Wait scheduler task (OpCode 0x53))
  1: 0x0209 [0x00] END_REQSTACK()
```

### Event 65535.38

#### Metadata

| Field        | Value    |
|--------------|----------|
| Entrypoint   | 0x020A   |
| Data Size    | 19 bytes |
| Instructions | 2        |

```
      00 01 02 03 04 05 06 07  08 09 0A 0B 0C 0D 0E 0F
      -- -- -- -- -- -- -- --  -- -- -- -- -- -- -- --
0200:                                5F 05 11 80 F8 FF            _.....
0210: FF 7F F8 FF FF 7F 77 73  74 31 14 80 00           ......wst1...   
```

#### Opcodes

```
  0: 0x020A [0x5F] MULTI_HANDLER_COMPLEX(mode=0x05 - Load ext scheduler with flag (OpCode 0x5B mode 0, flag 1), ref=3477*, entity1=EventEntity, entity2=EventEntity, string="wst1", extra=140*)
  1: 0x021C [0x00] END_REQSTACK()
```

### Event 65535.39

#### Metadata

| Field        | Value    |
|--------------|----------|
| Entrypoint   | 0x021D   |
| Data Size    | 15 bytes |
| Instructions | 2        |

```
      00 01 02 03 04 05 06 07  08 09 0A 0B 0C 0D 0E 0F
      -- -- -- -- -- -- -- --  -- -- -- -- -- -- -- --
0210:                                         5F 07 F8               _..
0220: FF FF 7F F8 FF FF 7F 77  73 74 31 00              .......wst1.    
```

#### Opcodes

```
  0: 0x021D [0x5F] MULTI_HANDLER_COMPLEX(mode=0x07 - Wait scheduler task (OpCode 0x53))
  1: 0x022B [0x00] END_REQSTACK()
```

### Event 65535.40

#### Metadata

| Field        | Value    |
|--------------|----------|
| Entrypoint   | 0x022C   |
| Data Size    | 19 bytes |
| Instructions | 2        |

```
      00 01 02 03 04 05 06 07  08 09 0A 0B 0C 0D 0E 0F
      -- -- -- -- -- -- -- --  -- -- -- -- -- -- -- --
0220:                                      5F 05 15 80              _...
0230: F8 FF FF 7F F8 FF FF 7F  74 68 6B 30 0D 80 00     ........thk0... 
```

#### Opcodes

```
  0: 0x022C [0x5F] MULTI_HANDLER_COMPLEX(mode=0x05 - Load ext scheduler with flag (OpCode 0x5B mode 0, flag 1), ref=3478*, entity1=EventEntity, entity2=EventEntity, string="thk0", extra=130*)
  1: 0x023E [0x00] END_REQSTACK()
```

### Event 65535.41

#### Metadata

| Field        | Value    |
|--------------|----------|
| Entrypoint   | 0x023F   |
| Data Size    | 15 bytes |
| Instructions | 2        |

```
      00 01 02 03 04 05 06 07  08 09 0A 0B 0C 0D 0E 0F
      -- -- -- -- -- -- -- --  -- -- -- -- -- -- -- --
0230:                                               5F                 _
0240: 07 F8 FF FF 7F F8 FF FF  7F 74 68 6B 30 00        .........thk0.  
```

#### Opcodes

```
  0: 0x023F [0x5F] MULTI_HANDLER_COMPLEX(mode=0x07 - Wait scheduler task (OpCode 0x53))
  1: 0x024D [0x00] END_REQSTACK()
```

### Event 65535.42

#### Metadata

| Field        | Value    |
|--------------|----------|
| Entrypoint   | 0x024E   |
| Data Size    | 19 bytes |
| Instructions | 2        |

```
      00 01 02 03 04 05 06 07  08 09 0A 0B 0C 0D 0E 0F
      -- -- -- -- -- -- -- --  -- -- -- -- -- -- -- --
0240:                                            5F 05                _.
0250: 15 80 F8 FF FF 7F F8 FF  FF 7F 74 68 6B 31 0F 80  ..........thk1..
0260: 00                                                .               
```

#### Opcodes

```
  0: 0x024E [0x5F] MULTI_HANDLER_COMPLEX(mode=0x05 - Load ext scheduler with flag (OpCode 0x5B mode 0, flag 1), ref=3478*, entity1=EventEntity, entity2=EventEntity, string="thk1", extra=170*)
  1: 0x0260 [0x00] END_REQSTACK()
```

### Event 65535.43

#### Metadata

| Field        | Value    |
|--------------|----------|
| Entrypoint   | 0x0261   |
| Data Size    | 15 bytes |
| Instructions | 2        |

```
      00 01 02 03 04 05 06 07  08 09 0A 0B 0C 0D 0E 0F
      -- -- -- -- -- -- -- --  -- -- -- -- -- -- -- --
0260:    5F 07 F8 FF FF 7F F8  FF FF 7F 74 68 6B 31 00   _.........thk1.
```

#### Opcodes

```
  0: 0x0261 [0x5F] MULTI_HANDLER_COMPLEX(mode=0x07 - Wait scheduler task (OpCode 0x53))
  1: 0x026F [0x00] END_REQSTACK()
```

### Event 65535.44

#### Metadata

| Field        | Value    |
|--------------|----------|
| Entrypoint   | 0x0270   |
| Data Size    | 19 bytes |
| Instructions | 2        |

```
      00 01 02 03 04 05 06 07  08 09 0A 0B 0C 0D 0E 0F
      -- -- -- -- -- -- -- --  -- -- -- -- -- -- -- --
0270: 5F 05 15 80 F8 FF FF 7F  F8 FF FF 7F 6C 67 68 30  _...........lgh0
0280: 16 80 00                                          ...             
```

#### Opcodes

```
  0: 0x0270 [0x5F] MULTI_HANDLER_COMPLEX(mode=0x05 - Load ext scheduler with flag (OpCode 0x5B mode 0, flag 1), ref=3478*, entity1=EventEntity, entity2=EventEntity, string="lgh0", extra=200*)
  1: 0x0282 [0x00] END_REQSTACK()
```

### Event 65535.45

#### Metadata

| Field        | Value    |
|--------------|----------|
| Entrypoint   | 0x0283   |
| Data Size    | 15 bytes |
| Instructions | 2        |

```
      00 01 02 03 04 05 06 07  08 09 0A 0B 0C 0D 0E 0F
      -- -- -- -- -- -- -- --  -- -- -- -- -- -- -- --
0280:          5F 07 F8 FF FF  7F F8 FF FF 7F 6C 67 68     _.........lgh
0290: 30 00                                             0.              
```

#### Opcodes

```
  0: 0x0283 [0x5F] MULTI_HANDLER_COMPLEX(mode=0x07 - Wait scheduler task (OpCode 0x53))
  1: 0x0291 [0x00] END_REQSTACK()
```

### Event 65535.46

#### Metadata

| Field        | Value    |
|--------------|----------|
| Entrypoint   | 0x0292   |
| Data Size    | 19 bytes |
| Instructions | 2        |

```
      00 01 02 03 04 05 06 07  08 09 0A 0B 0C 0D 0E 0F
      -- -- -- -- -- -- -- --  -- -- -- -- -- -- -- --
0290:       5F 05 17 80 F8 FF  FF 7F F8 FF FF 7F 64 6E    _...........dn
02A0: 61 30 0F 80 00                                    a0...           
```

#### Opcodes

```
  0: 0x0292 [0x5F] MULTI_HANDLER_COMPLEX(mode=0x05 - Load ext scheduler with flag (OpCode 0x5B mode 0, flag 1), ref=3484*, entity1=EventEntity, entity2=EventEntity, string="dna0", extra=170*)
  1: 0x02A4 [0x00] END_REQSTACK()
```

### Event 65535.47

#### Metadata

| Field        | Value    |
|--------------|----------|
| Entrypoint   | 0x02A5   |
| Data Size    | 15 bytes |
| Instructions | 2        |

```
      00 01 02 03 04 05 06 07  08 09 0A 0B 0C 0D 0E 0F
      -- -- -- -- -- -- -- --  -- -- -- -- -- -- -- --
02A0:                5F 07 F8  FF FF 7F F8 FF FF 7F 64       _.........d
02B0: 6E 61 30 00                                       na0.            
```

#### Opcodes

```
  0: 0x02A5 [0x5F] MULTI_HANDLER_COMPLEX(mode=0x07 - Wait scheduler task (OpCode 0x53))
  1: 0x02B3 [0x00] END_REQSTACK()
```

### Event 65535.48

#### Metadata

| Field        | Value    |
|--------------|----------|
| Entrypoint   | 0x02B4   |
| Data Size    | 19 bytes |
| Instructions | 2        |

```
      00 01 02 03 04 05 06 07  08 09 0A 0B 0C 0D 0E 0F
      -- -- -- -- -- -- -- --  -- -- -- -- -- -- -- --
02B0:             5F 05 17 80  F8 FF FF 7F F8 FF FF 7F      _...........
02C0: 64 6E 61 31 14 80 00                              dna1...         
```

#### Opcodes

```
  0: 0x02B4 [0x5F] MULTI_HANDLER_COMPLEX(mode=0x05 - Load ext scheduler with flag (OpCode 0x5B mode 0, flag 1), ref=3484*, entity1=EventEntity, entity2=EventEntity, string="dna1", extra=140*)
  1: 0x02C6 [0x00] END_REQSTACK()
```

### Event 65535.49

#### Metadata

| Field        | Value    |
|--------------|----------|
| Entrypoint   | 0x02C7   |
| Data Size    | 15 bytes |
| Instructions | 2        |

```
      00 01 02 03 04 05 06 07  08 09 0A 0B 0C 0D 0E 0F
      -- -- -- -- -- -- -- --  -- -- -- -- -- -- -- --
02C0:                      5F  07 F8 FF FF 7F F8 FF FF         _........
02D0: 7F 64 6E 61 31 00                                 .dna1.          
```

#### Opcodes

```
  0: 0x02C7 [0x5F] MULTI_HANDLER_COMPLEX(mode=0x07 - Wait scheduler task (OpCode 0x53))
  1: 0x02D5 [0x00] END_REQSTACK()
```

### Event 65535.50

#### Metadata

| Field        | Value    |
|--------------|----------|
| Entrypoint   | 0x02D6   |
| Data Size    | 19 bytes |
| Instructions | 2        |

```
      00 01 02 03 04 05 06 07  08 09 0A 0B 0C 0D 0E 0F
      -- -- -- -- -- -- -- --  -- -- -- -- -- -- -- --
02D0:                   5F 05  17 80 F8 FF FF 7F F8 FF        _.........
02E0: FF 7F 6B 61 74 30 18 80  00                       ..kat0...       
```

#### Opcodes

```
  0: 0x02D6 [0x5F] MULTI_HANDLER_COMPLEX(mode=0x05 - Load ext scheduler with flag (OpCode 0x5B mode 0, flag 1), ref=3484*, entity1=EventEntity, entity2=EventEntity, string="kat0", extra=330*)
  1: 0x02E8 [0x00] END_REQSTACK()
```

### Event 65535.51

#### Metadata

| Field        | Value    |
|--------------|----------|
| Entrypoint   | 0x02E9   |
| Data Size    | 15 bytes |
| Instructions | 2        |

```
      00 01 02 03 04 05 06 07  08 09 0A 0B 0C 0D 0E 0F
      -- -- -- -- -- -- -- --  -- -- -- -- -- -- -- --
02E0:                             5F 07 F8 FF FF 7F F8           _......
02F0: FF FF 7F 6B 61 74 30 00                           ...kat0.        
```

#### Opcodes

```
  0: 0x02E9 [0x5F] MULTI_HANDLER_COMPLEX(mode=0x07 - Wait scheduler task (OpCode 0x53))
  1: 0x02F7 [0x00] END_REQSTACK()
```

### Event 65535.52

#### Metadata

| Field        | Value    |
|--------------|----------|
| Entrypoint   | 0x02F8   |
| Data Size    | 19 bytes |
| Instructions | 2        |

```
      00 01 02 03 04 05 06 07  08 09 0A 0B 0C 0D 0E 0F
      -- -- -- -- -- -- -- --  -- -- -- -- -- -- -- --
02F0:                          5F 05 0B 80 F8 FF FF 7F          _.......
0300: F8 FF FF 7F 74 79 75 30  0F 80 00                 ....tyu0...     
```

#### Opcodes

```
  0: 0x02F8 [0x5F] MULTI_HANDLER_COMPLEX(mode=0x05 - Load ext scheduler with flag (OpCode 0x5B mode 0, flag 1), ref=3485*, entity1=EventEntity, entity2=EventEntity, string="tyu0", extra=170*)
  1: 0x030A [0x00] END_REQSTACK()
```

### Event 65535.53

#### Metadata

| Field        | Value    |
|--------------|----------|
| Entrypoint   | 0x030B   |
| Data Size    | 15 bytes |
| Instructions | 2        |

```
      00 01 02 03 04 05 06 07  08 09 0A 0B 0C 0D 0E 0F
      -- -- -- -- -- -- -- --  -- -- -- -- -- -- -- --
0300:                                   5F 07 F8 FF FF             _....
0310: 7F F8 FF FF 7F 74 79 75  30 00                    .....tyu0.      
```

#### Opcodes

```
  0: 0x030B [0x5F] MULTI_HANDLER_COMPLEX(mode=0x07 - Wait scheduler task (OpCode 0x53))
  1: 0x0319 [0x00] END_REQSTACK()
```

### Event 65535.54

#### Metadata

| Field        | Value    |
|--------------|----------|
| Entrypoint   | 0x031A   |
| Data Size    | 19 bytes |
| Instructions | 2        |

```
      00 01 02 03 04 05 06 07  08 09 0A 0B 0C 0D 0E 0F
      -- -- -- -- -- -- -- --  -- -- -- -- -- -- -- --
0310:                                5F 05 0B 80 F8 FF            _.....
0320: FF 7F F8 FF FF 7F 74 79  75 31 0E 80 00           ......tyu1...   
```

#### Opcodes

```
  0: 0x031A [0x5F] MULTI_HANDLER_COMPLEX(mode=0x05 - Load ext scheduler with flag (OpCode 0x5B mode 0, flag 1), ref=3485*, entity1=EventEntity, entity2=EventEntity, string="tyu1", extra=150*)
  1: 0x032C [0x00] END_REQSTACK()
```

### Event 65535.55

#### Metadata

| Field        | Value    |
|--------------|----------|
| Entrypoint   | 0x032D   |
| Data Size    | 15 bytes |
| Instructions | 2        |

```
      00 01 02 03 04 05 06 07  08 09 0A 0B 0C 0D 0E 0F
      -- -- -- -- -- -- -- --  -- -- -- -- -- -- -- --
0320:                                         5F 07 F8               _..
0330: FF FF 7F F8 FF FF 7F 74  79 75 31 00              .......tyu1.    
```

#### Opcodes

```
  0: 0x032D [0x5F] MULTI_HANDLER_COMPLEX(mode=0x07 - Wait scheduler task (OpCode 0x53))
  1: 0x033B [0x00] END_REQSTACK()
```

### Event 65535.56

#### Metadata

| Field        | Value    |
|--------------|----------|
| Entrypoint   | 0x033C   |
| Data Size    | 19 bytes |
| Instructions | 2        |

```
      00 01 02 03 04 05 06 07  08 09 0A 0B 0C 0D 0E 0F
      -- -- -- -- -- -- -- --  -- -- -- -- -- -- -- --
0330:                                      5F 05 19 80              _...
0340: F8 FF FF 7F F8 FF FF 7F  70 72 69 30 1A 80 00     ........pri0... 
```

#### Opcodes

```
  0: 0x033C [0x5F] MULTI_HANDLER_COMPLEX(mode=0x05 - Load ext scheduler with flag (OpCode 0x5B mode 0, flag 1), ref=3572*, entity1=EventEntity, entity2=EventEntity, string="pri0", extra=160*)
  1: 0x034E [0x00] END_REQSTACK()
```

### Event 65535.57

#### Metadata

| Field        | Value    |
|--------------|----------|
| Entrypoint   | 0x034F   |
| Data Size    | 15 bytes |
| Instructions | 2        |

```
      00 01 02 03 04 05 06 07  08 09 0A 0B 0C 0D 0E 0F
      -- -- -- -- -- -- -- --  -- -- -- -- -- -- -- --
0340:                                               5F                 _
0350: 07 F8 FF FF 7F F8 FF FF  7F 70 72 69 30 00        .........pri0.  
```

#### Opcodes

```
  0: 0x034F [0x5F] MULTI_HANDLER_COMPLEX(mode=0x07 - Wait scheduler task (OpCode 0x53))
  1: 0x035D [0x00] END_REQSTACK()
```

### Event 65535.58

#### Metadata

| Field        | Value    |
|--------------|----------|
| Entrypoint   | 0x035E   |
| Data Size    | 19 bytes |
| Instructions | 2        |

```
      00 01 02 03 04 05 06 07  08 09 0A 0B 0C 0D 0E 0F
      -- -- -- -- -- -- -- --  -- -- -- -- -- -- -- --
0350:                                            5F 05                _.
0360: 19 80 F8 FF FF 7F F8 FF  FF 7F 70 72 69 31 0F 80  ..........pri1..
0370: 00                                                .               
```

#### Opcodes

```
  0: 0x035E [0x5F] MULTI_HANDLER_COMPLEX(mode=0x05 - Load ext scheduler with flag (OpCode 0x5B mode 0, flag 1), ref=3572*, entity1=EventEntity, entity2=EventEntity, string="pri1", extra=170*)
  1: 0x0370 [0x00] END_REQSTACK()
```

### Event 65535.59

#### Metadata

| Field        | Value    |
|--------------|----------|
| Entrypoint   | 0x0371   |
| Data Size    | 15 bytes |
| Instructions | 2        |

```
      00 01 02 03 04 05 06 07  08 09 0A 0B 0C 0D 0E 0F
      -- -- -- -- -- -- -- --  -- -- -- -- -- -- -- --
0370:    5F 07 F8 FF FF 7F F8  FF FF 7F 70 72 69 31 00   _.........pri1.
```

#### Opcodes

```
  0: 0x0371 [0x5F] MULTI_HANDLER_COMPLEX(mode=0x07 - Wait scheduler task (OpCode 0x53))
  1: 0x037F [0x00] END_REQSTACK()
```

### Event 65535.60

#### Metadata

| Field        | Value    |
|--------------|----------|
| Entrypoint   | 0x0380   |
| Data Size    | 31 bytes |
| Instructions | 4        |

```
      00 01 02 03 04 05 06 07  08 09 0A 0B 0C 0D 0E 0F
      -- -- -- -- -- -- -- --  -- -- -- -- -- -- -- --
0380: 7C 00 F8 FF FF 7F 81 00  F8 FF FF 7F 5F 05 19 80  |..........._...
0390: F8 FF FF 7F F8 FF FF 7F  62 69 6B 30 14 80 00     ........bik0... 
```

#### Opcodes

```
  0: 0x0380 [0x7C] EventEntity->Render.Flags2 |= 0x00
  1: 0x0386 [0x81] SET_ENTITY_BLINKING(blink_flag=0x00, entity=EventEntity)
  2: 0x038C [0x5F] MULTI_HANDLER_COMPLEX(mode=0x05 - Load ext scheduler with flag (OpCode 0x5B mode 0, flag 1), ref=3572*, entity1=EventEntity, entity2=EventEntity, string="bik0", extra=140*)
  3: 0x039E [0x00] END_REQSTACK()
```

### Event 65535.61

#### Metadata

| Field        | Value    |
|--------------|----------|
| Entrypoint   | 0x039F   |
| Data Size    | 15 bytes |
| Instructions | 2        |

```
      00 01 02 03 04 05 06 07  08 09 0A 0B 0C 0D 0E 0F
      -- -- -- -- -- -- -- --  -- -- -- -- -- -- -- --
0390:                                               5F                 _
03A0: 07 F8 FF FF 7F F8 FF FF  7F 62 69 6B 30 00        .........bik0.  
```

#### Opcodes

```
  0: 0x039F [0x5F] MULTI_HANDLER_COMPLEX(mode=0x07 - Wait scheduler task (OpCode 0x53))
  1: 0x03AD [0x00] END_REQSTACK()
```

### Event 65535.62

#### Metadata

| Field        | Value    |
|--------------|----------|
| Entrypoint   | 0x03AE   |
| Data Size    | 19 bytes |
| Instructions | 2        |

```
      00 01 02 03 04 05 06 07  08 09 0A 0B 0C 0D 0E 0F
      -- -- -- -- -- -- -- --  -- -- -- -- -- -- -- --
03A0:                                            5F 05                _.
03B0: 19 80 F8 FF FF 7F F8 FF  FF 7F 62 69 6B 31 14 80  ..........bik1..
03C0: 00                                                .               
```

#### Opcodes

```
  0: 0x03AE [0x5F] MULTI_HANDLER_COMPLEX(mode=0x05 - Load ext scheduler with flag (OpCode 0x5B mode 0, flag 1), ref=3572*, entity1=EventEntity, entity2=EventEntity, string="bik1", extra=140*)
  1: 0x03C0 [0x00] END_REQSTACK()
```

### Event 65535.63

#### Metadata

| Field        | Value    |
|--------------|----------|
| Entrypoint   | 0x03C1   |
| Data Size    | 27 bytes |
| Instructions | 4        |

```
      00 01 02 03 04 05 06 07  08 09 0A 0B 0C 0D 0E 0F
      -- -- -- -- -- -- -- --  -- -- -- -- -- -- -- --
03C0:    5F 07 F8 FF FF 7F F8  FF FF 7F 62 69 6B 31 7C   _.........bik1|
03D0: 01 F8 FF FF 7F 81 01 F8  FF FF 7F 00              ............    
```

#### Opcodes

```
  0: 0x03C1 [0x5F] MULTI_HANDLER_COMPLEX(mode=0x07 - Wait scheduler task (OpCode 0x53))
  1: 0x03CF [0x7C] EventEntity->Render.Flags2 |= 0x01
  2: 0x03D5 [0x81] SET_ENTITY_BLINKING(blink_flag=0x01, entity=EventEntity)
  3: 0x03DB [0x00] END_REQSTACK()
```

### Event 65535.64

#### Metadata

| Field        | Value    |
|--------------|----------|
| Entrypoint   | 0x03DC   |
| Data Size    | 19 bytes |
| Instructions | 2        |

```
      00 01 02 03 04 05 06 07  08 09 0A 0B 0C 0D 0E 0F
      -- -- -- -- -- -- -- --  -- -- -- -- -- -- -- --
03D0:                                      5F 05 1B 80              _...
03E0: F8 FF FF 7F F8 FF FF 7F  6D 69 77 30 1C 80 00     ........miw0... 
```

#### Opcodes

```
  0: 0x03DC [0x5F] MULTI_HANDLER_COMPLEX(mode=0x05 - Load ext scheduler with flag (OpCode 0x5B mode 0, flag 1), ref=3817*, entity1=EventEntity, entity2=EventEntity, string="miw0", extra=270*)
  1: 0x03EE [0x00] END_REQSTACK()
```

### Event 65535.65

#### Metadata

| Field        | Value    |
|--------------|----------|
| Entrypoint   | 0x03EF   |
| Data Size    | 15 bytes |
| Instructions | 2        |

```
      00 01 02 03 04 05 06 07  08 09 0A 0B 0C 0D 0E 0F
      -- -- -- -- -- -- -- --  -- -- -- -- -- -- -- --
03E0:                                               5F                 _
03F0: 07 F8 FF FF 7F F8 FF FF  7F 6D 69 77 30 00        .........miw0.  
```

#### Opcodes

```
  0: 0x03EF [0x5F] MULTI_HANDLER_COMPLEX(mode=0x07 - Wait scheduler task (OpCode 0x53))
  1: 0x03FD [0x00] END_REQSTACK()
```

### Event 65535.66

#### Metadata

| Field        | Value    |
|--------------|----------|
| Entrypoint   | 0x03FE   |
| Data Size    | 19 bytes |
| Instructions | 2        |

```
      00 01 02 03 04 05 06 07  08 09 0A 0B 0C 0D 0E 0F
      -- -- -- -- -- -- -- --  -- -- -- -- -- -- -- --
03F0:                                            5F 05                _.
0400: 1B 80 F8 FF FF 7F F8 FF  FF 7F 70 61 73 30 1D 80  ..........pas0..
0410: 00                                                .               
```

#### Opcodes

```
  0: 0x03FE [0x5F] MULTI_HANDLER_COMPLEX(mode=0x05 - Load ext scheduler with flag (OpCode 0x5B mode 0, flag 1), ref=3817*, entity1=EventEntity, entity2=EventEntity, string="pas0", extra=190*)
  1: 0x0410 [0x00] END_REQSTACK()
```

### Event 65535.67

#### Metadata

| Field        | Value    |
|--------------|----------|
| Entrypoint   | 0x0411   |
| Data Size    | 15 bytes |
| Instructions | 2        |

```
      00 01 02 03 04 05 06 07  08 09 0A 0B 0C 0D 0E 0F
      -- -- -- -- -- -- -- --  -- -- -- -- -- -- -- --
0410:    5F 07 F8 FF FF 7F F8  FF FF 7F 70 61 73 30 00   _.........pas0.
```

#### Opcodes

```
  0: 0x0411 [0x5F] MULTI_HANDLER_COMPLEX(mode=0x07 - Wait scheduler task (OpCode 0x53))
  1: 0x041F [0x00] END_REQSTACK()
```

### Event 65535.68

#### Metadata

| Field        | Value    |
|--------------|----------|
| Entrypoint   | 0x0420   |
| Data Size    | 19 bytes |
| Instructions | 2        |

```
      00 01 02 03 04 05 06 07  08 09 0A 0B 0C 0D 0E 0F
      -- -- -- -- -- -- -- --  -- -- -- -- -- -- -- --
0420: 5F 05 1B 80 F8 FF FF 7F  F8 FF FF 7F 70 61 73 31  _...........pas1
0430: 0E 80 00                                          ...             
```

#### Opcodes

```
  0: 0x0420 [0x5F] MULTI_HANDLER_COMPLEX(mode=0x05 - Load ext scheduler with flag (OpCode 0x5B mode 0, flag 1), ref=3817*, entity1=EventEntity, entity2=EventEntity, string="pas1", extra=150*)
  1: 0x0432 [0x00] END_REQSTACK()
```

### Event 65535.69

#### Metadata

| Field        | Value    |
|--------------|----------|
| Entrypoint   | 0x0433   |
| Data Size    | 15 bytes |
| Instructions | 2        |

```
      00 01 02 03 04 05 06 07  08 09 0A 0B 0C 0D 0E 0F
      -- -- -- -- -- -- -- --  -- -- -- -- -- -- -- --
0430:          5F 07 F8 FF FF  7F F8 FF FF 7F 70 61 73     _.........pas
0440: 31 00                                             1.              
```

#### Opcodes

```
  0: 0x0433 [0x5F] MULTI_HANDLER_COMPLEX(mode=0x07 - Wait scheduler task (OpCode 0x53))
  1: 0x0441 [0x00] END_REQSTACK()
```

### Event 65535.70

#### Metadata

| Field        | Value    |
|--------------|----------|
| Entrypoint   | 0x0442   |
| Data Size    | 16 bytes |
| Instructions | 2        |

```
      00 01 02 03 04 05 06 07  08 09 0A 0B 0C 0D 0E 0F
      -- -- -- -- -- -- -- --  -- -- -- -- -- -- -- --
0440:       5B 1E 80 F8 FF FF  7F F8 FF FF 7F 6F 6E 6F    [..........ono
0450: 30 00                                             0.              
```

#### Opcodes

```
  0: 0x0442 [0x5B] LOAD_EXT_SCHEDULER: Load scheduler "ono0" with entities [EventEntity, EventEntity], work=3489*
  1: 0x0451 [0x00] END_REQSTACK()
```

### Event 65535.71

#### Metadata

| Field        | Value    |
|--------------|----------|
| Entrypoint   | 0x0452   |
| Data Size    | 14 bytes |
| Instructions | 2        |

```
      00 01 02 03 04 05 06 07  08 09 0A 0B 0C 0D 0E 0F
      -- -- -- -- -- -- -- --  -- -- -- -- -- -- -- --
0450:       53 F8 FF FF 7F F8  FF FF 7F 6F 6E 6F 30 00    S........ono0.
```

#### Opcodes

```
  0: 0x0452 [0x53] WAIT_SCHEDULER_TASK: Wait for scheduler "ono0" with entities [EventEntity, EventEntity]
  1: 0x045F [0x00] END_REQSTACK()
```

### Event 65535.72

#### Metadata

| Field        | Value    |
|--------------|----------|
| Entrypoint   | 0x0460   |
| Data Size    | 19 bytes |
| Instructions | 2        |

```
      00 01 02 03 04 05 06 07  08 09 0A 0B 0C 0D 0E 0F
      -- -- -- -- -- -- -- --  -- -- -- -- -- -- -- --
0460: 5F 05 1E 80 F8 FF FF 7F  F8 FF FF 7F 6F 6E 6F 31  _...........ono1
0470: 1F 80 00                                          ...             
```

#### Opcodes

```
  0: 0x0460 [0x5F] MULTI_HANDLER_COMPLEX(mode=0x05 - Load ext scheduler with flag (OpCode 0x5B mode 0, flag 1), ref=3489*, entity1=EventEntity, entity2=EventEntity, string="ono1", extra=430*)
  1: 0x0472 [0x00] END_REQSTACK()
```

### Event 65535.73

#### Metadata

| Field        | Value    |
|--------------|----------|
| Entrypoint   | 0x0473   |
| Data Size    | 15 bytes |
| Instructions | 2        |

```
      00 01 02 03 04 05 06 07  08 09 0A 0B 0C 0D 0E 0F
      -- -- -- -- -- -- -- --  -- -- -- -- -- -- -- --
0470:          5F 07 F8 FF FF  7F F8 FF FF 7F 6F 6E 6F     _.........ono
0480: 31 00                                             1.              
```

#### Opcodes

```
  0: 0x0473 [0x5F] MULTI_HANDLER_COMPLEX(mode=0x07 - Wait scheduler task (OpCode 0x53))
  1: 0x0481 [0x00] END_REQSTACK()
```

### Event 65535.74

#### Metadata

| Field        | Value    |
|--------------|----------|
| Entrypoint   | 0x0482   |
| Data Size    | 19 bytes |
| Instructions | 2        |

```
      00 01 02 03 04 05 06 07  08 09 0A 0B 0C 0D 0E 0F
      -- -- -- -- -- -- -- --  -- -- -- -- -- -- -- --
0480:       5F 05 20 80 F8 FF  FF 7F F8 FF FF 7F 6F 6E    _. .........on
0490: 6F 32 21 80 00                                    o2!..           
```

#### Opcodes

```
  0: 0x0482 [0x5F] MULTI_HANDLER_COMPLEX(mode=0x05 - Load ext scheduler with flag (OpCode 0x5B mode 0, flag 1), ref=3510*, entity1=EventEntity, entity2=EventEntity, string="ono2", extra=390*)
  1: 0x0494 [0x00] END_REQSTACK()
```

### Event 65535.75

#### Metadata

| Field        | Value    |
|--------------|----------|
| Entrypoint   | 0x0495   |
| Data Size    | 15 bytes |
| Instructions | 2        |

```
      00 01 02 03 04 05 06 07  08 09 0A 0B 0C 0D 0E 0F
      -- -- -- -- -- -- -- --  -- -- -- -- -- -- -- --
0490:                5F 07 F8  FF FF 7F F8 FF FF 7F 6F       _.........o
04A0: 6E 6F 32 00                                       no2.            
```

#### Opcodes

```
  0: 0x0495 [0x5F] MULTI_HANDLER_COMPLEX(mode=0x07 - Wait scheduler task (OpCode 0x53))
  1: 0x04A3 [0x00] END_REQSTACK()
```

### Event 65535.76

#### Metadata

| Field        | Value    |
|--------------|----------|
| Entrypoint   | 0x04A4   |
| Data Size    | 14 bytes |
| Instructions | 4        |

```
      00 01 02 03 04 05 06 07  08 09 0A 0B 0C 0D 0E 0F
      -- -- -- -- -- -- -- --  -- -- -- -- -- -- -- --
04A0:             32 22 80 1F  00 23 80 24 80 25 80 1F      2"...#.$.%..
04B0: 01 00                                             ..              
```

#### Opcodes

```
  0: 0x04A4 [0x32] ExtData[1]->MainSpeed = 13* * 0.1
  1: 0x04A7 [0x1F] MOVE_ENTITY: EventEntity moves to X=126.406*, Z=44.475*, Y=0.141*
  2: 0x04AF [0x1F] MOVE_ENTITY: Update entity position (mode=1)
  3: 0x04B1 [0x00] END_REQSTACK()
```

### Event 6

#### Metadata

| Field        | Value   |
|--------------|---------|
| Entrypoint   | 0x04B2  |
| Data Size    | 1 bytes |
| Instructions | 1       |

```
      00 01 02 03 04 05 06 07  08 09 0A 0B 0C 0D 0E 0F
      -- -- -- -- -- -- -- --  -- -- -- -- -- -- -- --
04B0:       00                                            .             
```

#### Opcodes

```
  0: 0x04B2 [0x00] END_REQSTACK()
```

### Event 65535.77

#### Metadata

| Field        | Value    |
|--------------|----------|
| Entrypoint   | 0x04B3   |
| Data Size    | 32 bytes |
| Instructions | 5        |

```
      00 01 02 03 04 05 06 07  08 09 0A 0B 0C 0D 0E 0F
      -- -- -- -- -- -- -- --  -- -- -- -- -- -- -- --
04B0:          B6 00 26 80 95  27 80 B4 00 00 00 4D 6F     ..&..'.....Mo
04C0: 72 69 6D 61 72 00 00 00  00 00 00 00 00 00 B5 00  rimar...........
04D0: 00 00 00                                          ...             
```

#### Opcodes

```
  0: 0x04B3 [0xB6] ENTITY_APPEARANCE_HANDLER(case=Hair style, value=2741*)
  1: 0x04B7 [0x95] SETUP_EVENT_NPC: Prepare NPC for event (Render.Flags3 = 2*)
  2: 0x04BA [0xB4] UI_WINDOW_STRING_HANDLER(case=0x00 - Copy string from opcode, work_offset=ExtData[1]->WorkLocal[0], string="Morimar")
  3: 0x04CE [0xB5] SET_EVENT_ENTITY_NAME: Change EventEntity name to ExtData[1]->WorkLocal[0]
  4: 0x04D2 [0x00] END_REQSTACK()
```

### Event 65535.78

#### Metadata

| Field        | Value    |
|--------------|----------|
| Entrypoint   | 0x04D3   |
| Data Size    | 29 bytes |
| Instructions | 4        |

```
      00 01 02 03 04 05 06 07  08 09 0A 0B 0C 0D 0E 0F
      -- -- -- -- -- -- -- --  -- -- -- -- -- -- -- --
04D0:          B6 00 04 80 B4  00 00 00 00 00 00 00 00     .............
04E0: 00 00 00 00 00 00 00 00  00 00 00 B5 00 00 00 00  ................
```

#### Opcodes

```
  0: 0x04D3 [0xB6] ENTITY_APPEARANCE_HANDLER(case=Hair style, value=52*)
  1: 0x04D7 [0xB4] UI_WINDOW_STRING_HANDLER(case=0x00 - Copy string from opcode, work_offset=ExtData[1]->WorkLocal[0], string="")
  2: 0x04EB [0xB5] SET_EVENT_ENTITY_NAME: Change EventEntity name to ExtData[1]->WorkLocal[0]
  3: 0x04EF [0x00] END_REQSTACK()
```

### Event 7

#### Metadata

| Field        | Value   |
|--------------|---------|
| Entrypoint   | 0x04F0  |
| Data Size    | 1 bytes |
| Instructions | 1       |

```
      00 01 02 03 04 05 06 07  08 09 0A 0B 0C 0D 0E 0F
      -- -- -- -- -- -- -- --  -- -- -- -- -- -- -- --
04F0: 00                                                .               
```

#### Opcodes

```
  0: 0x04F0 [0x00] END_REQSTACK()
```

### Event 65535.79

#### Metadata

| Field        | Value    |
|--------------|----------|
| Entrypoint   | 0x04F1   |
| Data Size    | 32 bytes |
| Instructions | 5        |

```
      00 01 02 03 04 05 06 07  08 09 0A 0B 0C 0D 0E 0F
      -- -- -- -- -- -- -- --  -- -- -- -- -- -- -- --
04F0:    B6 00 26 80 95 00 80  B4 00 00 00 4D 6F 72 69   ..&........Mori
0500: 6D 61 72 00 00 00 00 00  00 00 00 00 B5 00 00 00  mar.............
0510: 00                                                .               
```

#### Opcodes

```
  0: 0x04F1 [0xB6] ENTITY_APPEARANCE_HANDLER(case=Hair style, value=2741*)
  1: 0x04F5 [0x95] SETUP_EVENT_NPC: Prepare NPC for event (Render.Flags3 = 0*)
  2: 0x04F8 [0xB4] UI_WINDOW_STRING_HANDLER(case=0x00 - Copy string from opcode, work_offset=ExtData[1]->WorkLocal[0], string="Morimar")
  3: 0x050C [0xB5] SET_EVENT_ENTITY_NAME: Change EventEntity name to ExtData[1]->WorkLocal[0]
  4: 0x0510 [0x00] END_REQSTACK()
```

### Event 130

#### Metadata

| Field        | Value   |
|--------------|---------|
| Entrypoint   | 0x0511  |
| Data Size    | 5 bytes |
| Instructions | 2       |

```
      00 01 02 03 04 05 06 07  08 09 0A 0B 0C 0D 0E 0F
      -- -- -- -- -- -- -- --  -- -- -- -- -- -- -- --
0510:    B6 00 28 80 00                                  ..(..          
```

#### Opcodes

```
  0: 0x0511 [0xB6] ENTITY_APPEARANCE_HANDLER(case=Hair style, value=2737*)
  1: 0x0515 [0x00] END_REQSTACK()
```

### Event 131

#### Metadata

| Field        | Value   |
|--------------|---------|
| Entrypoint   | 0x0516  |
| Data Size    | 5 bytes |
| Instructions | 2       |

```
      00 01 02 03 04 05 06 07  08 09 0A 0B 0C 0D 0E 0F
      -- -- -- -- -- -- -- --  -- -- -- -- -- -- -- --
0510:                   B6 00  28 80 00                       ..(..     
```

#### Opcodes

```
  0: 0x0516 [0xB6] ENTITY_APPEARANCE_HANDLER(case=Hair style, value=2737*)
  1: 0x051A [0x00] END_REQSTACK()
```
