# 17855097

## Common Data

| Field            | Value                  |
|------------------|------------------------|
| Zone             | Yorcia Weald (ID: 263) |
| Block Size       | 1228 bytes             |
| Total Events     | 31                     |
| References Count | 41                     |

## List of Events

| Event ID                   | Entrypoint   |   Size |   Instructions |
|----------------------------|--------------|--------|----------------|
| [65535](#event-65535)      | 0x0000       |      1 |              1 |
| [121](#event-121)          | 0x0001       |      5 |              2 |
| [65535.1](#event-655351)   | 0x0006       |      7 |              3 |
| [65535.2](#event-655352)   | 0x000D       |      7 |              3 |
| [65535.3](#event-655353)   | 0x0014       |     14 |              4 |
| [65535.4](#event-655354)   | 0x0022       |     20 |              6 |
| [128](#event-128)          | 0x0036       |     29 |              4 |
| [65535.5](#event-655355)   | 0x0053       |     37 |              6 |
| [65535.6](#event-655356)   | 0x0078       |     13 |              3 |
| [65535.7](#event-655357)   | 0x0085       |     27 |              5 |
| [65535.8](#event-655358)   | 0x00A0       |     38 |              4 |
| [65535.9](#event-655359)   | 0x00C6       |     33 |              3 |
| [65535.10](#event-6553510) | 0x00E7       |     38 |              4 |
| [65535.11](#event-6553511) | 0x010D       |     38 |              4 |
| [65535.12](#event-6553512) | 0x0133       |     33 |              3 |
| [65535.13](#event-6553513) | 0x0154       |     38 |              4 |
| [65535.14](#event-6553514) | 0x017A       |     38 |              4 |
| [65535.15](#event-6553515) | 0x01A0       |     33 |              3 |
| [65535.16](#event-6553516) | 0x01C1       |     38 |              4 |
| [65535.17](#event-6553517) | 0x01E7       |     38 |              4 |
| [65535.18](#event-6553518) | 0x020D       |     33 |              3 |
| [65535.19](#event-6553519) | 0x022E       |     38 |              4 |
| [65535.20](#event-6553520) | 0x0254       |     38 |              4 |
| [65535.21](#event-6553521) | 0x027A       |     38 |              4 |
| [65535.22](#event-6553522) | 0x02A0       |     38 |              4 |
| [65535.23](#event-6553523) | 0x02C6       |     33 |              3 |
| [65535.24](#event-6553524) | 0x02E7       |     38 |              4 |
| [65535.25](#event-6553525) | 0x030D       |     38 |              4 |
| [65535.26](#event-6553526) | 0x0333       |     33 |              3 |
| [65535.27](#event-6553527) | 0x0354       |     38 |              4 |
| [65535.28](#event-6553528) | 0x037A       |     33 |              3 |

## DAT References (imed_data)

|   Index | Hex Value   |   Dec Value |
|---------|-------------|-------------|
|       0 | 0x0ABC      |        2748 |
|       1 | 0x0001      |           1 |
|       2 | 0x0000      |           0 |
|       3 | 0x000D      |          13 |
|       4 | 0x3A376     |      238454 |
|       5 | 0xFFFF08F9  |  4294904057 |
|       6 | 0x017E      |         382 |
|       7 | 0x3842E     |      230446 |
|       8 | 0xFFFF0481  |  4294902913 |
|       9 | 0x0172      |         370 |
|      10 | 0x0AB6      |        2742 |
|      11 | 0x0034      |          52 |
|      12 | 0x001E      |          30 |
|      13 | 0x0105      |         261 |
|      14 | 0x006E      |         110 |
|      15 | 0x0050      |          80 |
|      16 | 0x0DFB      |        3579 |
|      17 | 0x0048      |          72 |
|      18 | 0x0064      |         100 |
|      19 | 0x008C      |         140 |
|      20 | 0x0060      |          96 |
|      21 | 0x005C      |          92 |
|      22 | 0x0DFC      |        3580 |
|      23 | 0x00AC      |         172 |
|      24 | 0x00B0      |         176 |
|      25 | 0x0DFD      |        3581 |
|      26 | 0x0056      |          86 |
|      27 | 0x0067      |         103 |
|      28 | 0x00C8      |         200 |
|      29 | 0x0DFE      |        3582 |
|      30 | 0x00A1      |         161 |
|      31 | 0x0E19      |        3609 |
|      32 | 0x0100      |         256 |
|      33 | 0x0E1A      |        3610 |
|      34 | 0x013C      |         316 |
|      35 | 0x0E1C      |        3612 |
|      36 | 0x0078      |         120 |
|      37 | 0x0044      |          68 |
|      38 | 0x0E1E      |        3614 |
|      39 | 0x0118      |         280 |
|      40 | 0x007C      |         124 |

## Events

### Event 65535

#### Metadata

| Field        | Value   |
|--------------|---------|
| Entrypoint   | 0x0000  |
| Data Size    | 1 bytes |
| Instructions | 1       |

```
      00 01 02 03 04 05 06 07  08 09 0A 0B 0C 0D 0E 0F
      -- -- -- -- -- -- -- --  -- -- -- -- -- -- -- --
0000: 00                                                .               
```

#### Opcodes

```
  0: 0x0000 [0x00] END_REQSTACK()
```

### Event 121

#### Metadata

| Field        | Value   |
|--------------|---------|
| Entrypoint   | 0x0001  |
| Data Size    | 5 bytes |
| Instructions | 2       |

```
      00 01 02 03 04 05 06 07  08 09 0A 0B 0C 0D 0E 0F
      -- -- -- -- -- -- -- --  -- -- -- -- -- -- -- --
0000:    B6 00 00 80 00                                  .....          
```

#### Opcodes

```
  0: 0x0001 [0xB6] ENTITY_APPEARANCE_HANDLER(case=Hair style, value=2748*)
  1: 0x0005 [0x00] END_REQSTACK()
```

### Event 65535.1

#### Metadata

| Field        | Value   |
|--------------|---------|
| Entrypoint   | 0x0006  |
| Data Size    | 7 bytes |
| Instructions | 3       |

```
      00 01 02 03 04 05 06 07  08 09 0A 0B 0C 0D 0E 0F
      -- -- -- -- -- -- -- --  -- -- -- -- -- -- -- --
0000:                   AB 03  AC 01 01 80 00                 .......   
```

#### Opcodes

```
  0: 0x0006 [0xAB] EventEntity->Render.Flags0 ^= 0x20000 // Toggle bit 17
  1: 0x0008 [0xAC] EventEntity->StatusEvent = 1*
  2: 0x000C [0x00] END_REQSTACK()
```

### Event 65535.2

#### Metadata

| Field        | Value   |
|--------------|---------|
| Entrypoint   | 0x000D  |
| Data Size    | 7 bytes |
| Instructions | 3       |

```
      00 01 02 03 04 05 06 07  08 09 0A 0B 0C 0D 0E 0F
      -- -- -- -- -- -- -- --  -- -- -- -- -- -- -- --
0000:                                         AC 01 02               ...
0010: 80 AB 04 00                                       ....            
```

#### Opcodes

```
  0: 0x000D [0xAC] EventEntity->StatusEvent = 0*
  1: 0x0011 [0xAB] EventEntity->Render.Flags0 |= 0x40000 // Set bit 18
  2: 0x0013 [0x00] END_REQSTACK()
```

### Event 65535.3

#### Metadata

| Field        | Value    |
|--------------|----------|
| Entrypoint   | 0x0014   |
| Data Size    | 14 bytes |
| Instructions | 4        |

```
      00 01 02 03 04 05 06 07  08 09 0A 0B 0C 0D 0E 0F
      -- -- -- -- -- -- -- --  -- -- -- -- -- -- -- --
0010:             32 03 80 1F  00 04 80 05 80 06 80 1F      2...........
0020: 01 00                                             ..              
```

#### Opcodes

```
  0: 0x0014 [0x32] ExtData[1]->MainSpeed = 13* * 0.1
  1: 0x0017 [0x1F] MOVE_ENTITY: EventEntity moves to X=238.454*, Z=-63.239*, Y=0.382*
  2: 0x001F [0x1F] MOVE_ENTITY: Update entity position (mode=1)
  3: 0x0021 [0x00] END_REQSTACK()
```

### Event 65535.4

#### Metadata

| Field        | Value    |
|--------------|----------|
| Entrypoint   | 0x0022   |
| Data Size    | 20 bytes |
| Instructions | 6        |

```
      00 01 02 03 04 05 06 07  08 09 0A 0B 0C 0D 0E 0F
      -- -- -- -- -- -- -- --  -- -- -- -- -- -- -- --
0020:       AB 03 AC 01 01 80  32 03 80 1F 00 07 80 08    ......2.......
0030: 80 09 80 1F 01 00                                 ......          
```

#### Opcodes

```
  0: 0x0022 [0xAB] EventEntity->Render.Flags0 ^= 0x20000 // Toggle bit 17
  1: 0x0024 [0xAC] EventEntity->StatusEvent = 1*
  2: 0x0028 [0x32] ExtData[1]->MainSpeed = 13* * 0.1
  3: 0x002B [0x1F] MOVE_ENTITY: EventEntity moves to X=230.446*, Z=-64.383*, Y=0.370*
  4: 0x0033 [0x1F] MOVE_ENTITY: Update entity position (mode=1)
  5: 0x0035 [0x00] END_REQSTACK()
```

### Event 128

#### Metadata

| Field        | Value    |
|--------------|----------|
| Entrypoint   | 0x0036   |
| Data Size    | 29 bytes |
| Instructions | 4        |

```
      00 01 02 03 04 05 06 07  08 09 0A 0B 0C 0D 0E 0F
      -- -- -- -- -- -- -- --  -- -- -- -- -- -- -- --
0030:                   B6 00  0A 80 B4 00 00 00 42 61        ........Ba
0040: 6C 61 6D 6F 72 00 00 00  00 00 00 00 00 00 B5 00  lamor...........
0050: 00 00 00                                          ...             
```

#### Opcodes

```
  0: 0x0036 [0xB6] ENTITY_APPEARANCE_HANDLER(case=Hair style, value=2742*)
  1: 0x003A [0xB4] UI_WINDOW_STRING_HANDLER(case=0x00 - Copy string from opcode, work_offset=ExtData[1]->WorkLocal[0], string="Balamor")
  2: 0x004E [0xB5] SET_EVENT_ENTITY_NAME: Change EventEntity name to ExtData[1]->WorkLocal[0]
  3: 0x0052 [0x00] END_REQSTACK()
```

### Event 65535.5

#### Metadata

| Field        | Value    |
|--------------|----------|
| Entrypoint   | 0x0053   |
| Data Size    | 37 bytes |
| Instructions | 6        |

```
      00 01 02 03 04 05 06 07  08 09 0A 0B 0C 0D 0E 0F
      -- -- -- -- -- -- -- --  -- -- -- -- -- -- -- --
0050:          B6 00 0B 80 B4  00 00 00 00 00 00 00 00     .............
0060: 00 00 00 00 00 00 00 00  00 00 00 B5 00 00 00 22  ..............."
0070: 01 2F 01 F8 FF FF 7F 00                           ./......        
```

#### Opcodes

```
  0: 0x0053 [0xB6] ENTITY_APPEARANCE_HANDLER(case=Hair style, value=52*)
  1: 0x0057 [0xB4] UI_WINDOW_STRING_HANDLER(case=0x00 - Copy string from opcode, work_offset=ExtData[1]->WorkLocal[0], string="")
  2: 0x006B [0xB5] SET_EVENT_ENTITY_NAME: Change EventEntity name to ExtData[1]->WorkLocal[0]
  3: 0x006F [0x22] ENTITY_HIDE_FLAG(enabled=0x01)
  4: 0x0071 [0x2F] EventEntity->Render.Flags0 |= 0x80000 // Bit 19
  5: 0x0077 [0x00] END_REQSTACK()
```

### Event 65535.6

#### Metadata

| Field        | Value    |
|--------------|----------|
| Entrypoint   | 0x0078   |
| Data Size    | 13 bytes |
| Instructions | 3        |

```
      00 01 02 03 04 05 06 07  08 09 0A 0B 0C 0D 0E 0F
      -- -- -- -- -- -- -- --  -- -- -- -- -- -- -- --
0070:                          6B 69 64 6C 30 F8 FF FF          kidl0...
0080: 7F 1C 0C 80 00                                    .....           
```

#### Opcodes

```
  0: 0x0078 [0x6B] STOP_AND_IDLE: EventEntity stops current action and resets to idle (animation="idl0")
  1: 0x0081 [0x1C] WAIT(30* ticks)
  2: 0x0084 [0x00] END_REQSTACK()
```

### Event 65535.7

#### Metadata

| Field        | Value    |
|--------------|----------|
| Entrypoint   | 0x0085   |
| Data Size    | 27 bytes |
| Instructions | 5        |

```
      00 01 02 03 04 05 06 07  08 09 0A 0B 0C 0D 0E 0F
      -- -- -- -- -- -- -- --  -- -- -- -- -- -- -- --
0080:                73 0D 80  F0 FF FF 7F F8 FF FF 7F       s..........
0090: 1C 0E 80 6C F8 FF FF 7F  02 80 0C 80 1C 0F 80 00  ...l............
```

#### Opcodes

```
  0: 0x0085 [0x73] LocalPlayer casts magic 261* on EventEntity
  1: 0x0090 [0x1C] WAIT(110* ticks)
  2: 0x0093 [0x6C] FADE_ENTITY_COLOR(entity_id=EventEntity, end_alpha=0*, fade_time=30*)
  3: 0x009C [0x1C] WAIT(80* ticks)
  4: 0x009F [0x00] END_REQSTACK()
```

### Event 65535.8

#### Metadata

| Field        | Value    |
|--------------|----------|
| Entrypoint   | 0x00A0   |
| Data Size    | 38 bytes |
| Instructions | 4        |

```
      00 01 02 03 04 05 06 07  08 09 0A 0B 0C 0D 0E 0F
      -- -- -- -- -- -- -- --  -- -- -- -- -- -- -- --
00A0: 7B F8 FF FF 7F 5F 05 10  80 F8 FF FF 7F F8 FF FF  {...._..........
00B0: 7F 74 6C 6B 30 11 80 5F  07 F8 FF FF 7F F8 FF FF  .tlk0.._........
00C0: 7F 74 6C 6B 30 00                                 .tlk0.          
```

#### Opcodes

```
  0: 0x00A0 [0x7B] EventEntity stops talking
  1: 0x00A5 [0x5F] MULTI_HANDLER_COMPLEX(mode=0x05 - Load ext scheduler with flag (OpCode 0x5B mode 0, flag 1), ref=3579*, entity1=EventEntity, entity2=EventEntity, string="tlk0", extra=72*)
  2: 0x00B7 [0x5F] MULTI_HANDLER_COMPLEX(mode=0x07 - Wait scheduler task (OpCode 0x53))
  3: 0x00C5 [0x00] END_REQSTACK()
```

### Event 65535.9

#### Metadata

| Field        | Value    |
|--------------|----------|
| Entrypoint   | 0x00C6   |
| Data Size    | 33 bytes |
| Instructions | 3        |

```
      00 01 02 03 04 05 06 07  08 09 0A 0B 0C 0D 0E 0F
      -- -- -- -- -- -- -- --  -- -- -- -- -- -- -- --
00C0:                   5F 05  10 80 F8 FF FF 7F F8 FF        _.........
00D0: FF 7F 74 6C 6B 31 12 80  5F 07 F8 FF FF 7F F8 FF  ..tlk1.._.......
00E0: FF 7F 74 6C 6B 31 00                              ..tlk1.         
```

#### Opcodes

```
  0: 0x00C6 [0x5F] MULTI_HANDLER_COMPLEX(mode=0x05 - Load ext scheduler with flag (OpCode 0x5B mode 0, flag 1), ref=3579*, entity1=EventEntity, entity2=EventEntity, string="tlk1", extra=100*)
  1: 0x00D8 [0x5F] MULTI_HANDLER_COMPLEX(mode=0x07 - Wait scheduler task (OpCode 0x53))
  2: 0x00E6 [0x00] END_REQSTACK()
```

### Event 65535.10

#### Metadata

| Field        | Value    |
|--------------|----------|
| Entrypoint   | 0x00E7   |
| Data Size    | 38 bytes |
| Instructions | 4        |

```
      00 01 02 03 04 05 06 07  08 09 0A 0B 0C 0D 0E 0F
      -- -- -- -- -- -- -- --  -- -- -- -- -- -- -- --
00E0:                      7B  F8 FF FF 7F 5F 05 10 80         {...._...
00F0: F8 FF FF 7F F8 FF FF 7F  74 6C 6B 32 13 80 5F 07  ........tlk2.._.
0100: F8 FF FF 7F F8 FF FF 7F  74 6C 6B 32 00           ........tlk2.   
```

#### Opcodes

```
  0: 0x00E7 [0x7B] EventEntity stops talking
  1: 0x00EC [0x5F] MULTI_HANDLER_COMPLEX(mode=0x05 - Load ext scheduler with flag (OpCode 0x5B mode 0, flag 1), ref=3579*, entity1=EventEntity, entity2=EventEntity, string="tlk2", extra=140*)
  2: 0x00FE [0x5F] MULTI_HANDLER_COMPLEX(mode=0x07 - Wait scheduler task (OpCode 0x53))
  3: 0x010C [0x00] END_REQSTACK()
```

### Event 65535.11

#### Metadata

| Field        | Value    |
|--------------|----------|
| Entrypoint   | 0x010D   |
| Data Size    | 38 bytes |
| Instructions | 4        |

```
      00 01 02 03 04 05 06 07  08 09 0A 0B 0C 0D 0E 0F
      -- -- -- -- -- -- -- --  -- -- -- -- -- -- -- --
0100:                                         7B F8 FF               {..
0110: FF 7F 5F 05 10 80 F8 FF  FF 7F F8 FF FF 7F 74 68  .._...........th
0120: 6B 30 14 80 5F 07 F8 FF  FF 7F F8 FF FF 7F 74 68  k0.._.........th
0130: 6B 30 00                                          k0.             
```

#### Opcodes

```
  0: 0x010D [0x7B] EventEntity stops talking
  1: 0x0112 [0x5F] MULTI_HANDLER_COMPLEX(mode=0x05 - Load ext scheduler with flag (OpCode 0x5B mode 0, flag 1), ref=3579*, entity1=EventEntity, entity2=EventEntity, string="thk0", extra=96*)
  2: 0x0124 [0x5F] MULTI_HANDLER_COMPLEX(mode=0x07 - Wait scheduler task (OpCode 0x53))
  3: 0x0132 [0x00] END_REQSTACK()
```

### Event 65535.12

#### Metadata

| Field        | Value    |
|--------------|----------|
| Entrypoint   | 0x0133   |
| Data Size    | 33 bytes |
| Instructions | 3        |

```
      00 01 02 03 04 05 06 07  08 09 0A 0B 0C 0D 0E 0F
      -- -- -- -- -- -- -- --  -- -- -- -- -- -- -- --
0130:          5F 05 10 80 F8  FF FF 7F F8 FF FF 7F 74     _...........t
0140: 68 6B 31 15 80 5F 07 F8  FF FF 7F F8 FF FF 7F 74  hk1.._.........t
0150: 68 6B 31 00                                       hk1.            
```

#### Opcodes

```
  0: 0x0133 [0x5F] MULTI_HANDLER_COMPLEX(mode=0x05 - Load ext scheduler with flag (OpCode 0x5B mode 0, flag 1), ref=3579*, entity1=EventEntity, entity2=EventEntity, string="thk1", extra=92*)
  1: 0x0145 [0x5F] MULTI_HANDLER_COMPLEX(mode=0x07 - Wait scheduler task (OpCode 0x53))
  2: 0x0153 [0x00] END_REQSTACK()
```

### Event 65535.13

#### Metadata

| Field        | Value    |
|--------------|----------|
| Entrypoint   | 0x0154   |
| Data Size    | 38 bytes |
| Instructions | 4        |

```
      00 01 02 03 04 05 06 07  08 09 0A 0B 0C 0D 0E 0F
      -- -- -- -- -- -- -- --  -- -- -- -- -- -- -- --
0150:             7B F8 FF FF  7F 5F 05 16 80 F8 FF FF      {...._......
0160: 7F F8 FF FF 7F 79 61 72  30 17 80 5F 07 F8 FF FF  .....yar0.._....
0170: 7F F8 FF FF 7F 79 61 72  30 00                    .....yar0.      
```

#### Opcodes

```
  0: 0x0154 [0x7B] EventEntity stops talking
  1: 0x0159 [0x5F] MULTI_HANDLER_COMPLEX(mode=0x05 - Load ext scheduler with flag (OpCode 0x5B mode 0, flag 1), ref=3580*, entity1=EventEntity, entity2=EventEntity, string="yar0", extra=172*)
  2: 0x016B [0x5F] MULTI_HANDLER_COMPLEX(mode=0x07 - Wait scheduler task (OpCode 0x53))
  3: 0x0179 [0x00] END_REQSTACK()
```

### Event 65535.14

#### Metadata

| Field        | Value    |
|--------------|----------|
| Entrypoint   | 0x017A   |
| Data Size    | 38 bytes |
| Instructions | 4        |

```
      00 01 02 03 04 05 06 07  08 09 0A 0B 0C 0D 0E 0F
      -- -- -- -- -- -- -- --  -- -- -- -- -- -- -- --
0170:                                7B F8 FF FF 7F 5F            {...._
0180: 05 16 80 F8 FF FF 7F F8  FF FF 7F 61 6B 69 30 14  ...........aki0.
0190: 80 5F 07 F8 FF FF 7F F8  FF FF 7F 61 6B 69 30 00  ._.........aki0.
```

#### Opcodes

```
  0: 0x017A [0x7B] EventEntity stops talking
  1: 0x017F [0x5F] MULTI_HANDLER_COMPLEX(mode=0x05 - Load ext scheduler with flag (OpCode 0x5B mode 0, flag 1), ref=3580*, entity1=EventEntity, entity2=EventEntity, string="aki0", extra=96*)
  2: 0x0191 [0x5F] MULTI_HANDLER_COMPLEX(mode=0x07 - Wait scheduler task (OpCode 0x53))
  3: 0x019F [0x00] END_REQSTACK()
```

### Event 65535.15

#### Metadata

| Field        | Value    |
|--------------|----------|
| Entrypoint   | 0x01A0   |
| Data Size    | 33 bytes |
| Instructions | 3        |

```
      00 01 02 03 04 05 06 07  08 09 0A 0B 0C 0D 0E 0F
      -- -- -- -- -- -- -- --  -- -- -- -- -- -- -- --
01A0: 5F 05 16 80 F8 FF FF 7F  F8 FF FF 7F 61 6B 69 31  _...........aki1
01B0: 15 80 5F 07 F8 FF FF 7F  F8 FF FF 7F 61 6B 69 31  .._.........aki1
01C0: 00                                                .               
```

#### Opcodes

```
  0: 0x01A0 [0x5F] MULTI_HANDLER_COMPLEX(mode=0x05 - Load ext scheduler with flag (OpCode 0x5B mode 0, flag 1), ref=3580*, entity1=EventEntity, entity2=EventEntity, string="aki1", extra=92*)
  1: 0x01B2 [0x5F] MULTI_HANDLER_COMPLEX(mode=0x07 - Wait scheduler task (OpCode 0x53))
  2: 0x01C0 [0x00] END_REQSTACK()
```

### Event 65535.16

#### Metadata

| Field        | Value    |
|--------------|----------|
| Entrypoint   | 0x01C1   |
| Data Size    | 38 bytes |
| Instructions | 4        |

```
      00 01 02 03 04 05 06 07  08 09 0A 0B 0C 0D 0E 0F
      -- -- -- -- -- -- -- --  -- -- -- -- -- -- -- --
01C0:    7B F8 FF FF 7F 5F 05  16 80 F8 FF FF 7F F8 FF   {...._.........
01D0: FF 7F 61 6B 69 32 18 80  5F 07 F8 FF FF 7F F8 FF  ..aki2.._.......
01E0: FF 7F 61 6B 69 32 00                              ..aki2.         
```

#### Opcodes

```
  0: 0x01C1 [0x7B] EventEntity stops talking
  1: 0x01C6 [0x5F] MULTI_HANDLER_COMPLEX(mode=0x05 - Load ext scheduler with flag (OpCode 0x5B mode 0, flag 1), ref=3580*, entity1=EventEntity, entity2=EventEntity, string="aki2", extra=176*)
  2: 0x01D8 [0x5F] MULTI_HANDLER_COMPLEX(mode=0x07 - Wait scheduler task (OpCode 0x53))
  3: 0x01E6 [0x00] END_REQSTACK()
```

### Event 65535.17

#### Metadata

| Field        | Value    |
|--------------|----------|
| Entrypoint   | 0x01E7   |
| Data Size    | 38 bytes |
| Instructions | 4        |

```
      00 01 02 03 04 05 06 07  08 09 0A 0B 0C 0D 0E 0F
      -- -- -- -- -- -- -- --  -- -- -- -- -- -- -- --
01E0:                      7B  F8 FF FF 7F 5F 05 19 80         {...._...
01F0: F8 FF FF 7F F8 FF FF 7F  74 6C 61 30 1A 80 5F 07  ........tla0.._.
0200: F8 FF FF 7F F8 FF FF 7F  74 6C 61 30 00           ........tla0.   
```

#### Opcodes

```
  0: 0x01E7 [0x7B] EventEntity stops talking
  1: 0x01EC [0x5F] MULTI_HANDLER_COMPLEX(mode=0x05 - Load ext scheduler with flag (OpCode 0x5B mode 0, flag 1), ref=3581*, entity1=EventEntity, entity2=EventEntity, string="tla0", extra=86*)
  2: 0x01FE [0x5F] MULTI_HANDLER_COMPLEX(mode=0x07 - Wait scheduler task (OpCode 0x53))
  3: 0x020C [0x00] END_REQSTACK()
```

### Event 65535.18

#### Metadata

| Field        | Value    |
|--------------|----------|
| Entrypoint   | 0x020D   |
| Data Size    | 33 bytes |
| Instructions | 3        |

```
      00 01 02 03 04 05 06 07  08 09 0A 0B 0C 0D 0E 0F
      -- -- -- -- -- -- -- --  -- -- -- -- -- -- -- --
0200:                                         5F 05 19               _..
0210: 80 F8 FF FF 7F F8 FF FF  7F 74 6C 61 31 1B 80 5F  .........tla1.._
0220: 07 F8 FF FF 7F F8 FF FF  7F 74 6C 61 31 00        .........tla1.  
```

#### Opcodes

```
  0: 0x020D [0x5F] MULTI_HANDLER_COMPLEX(mode=0x05 - Load ext scheduler with flag (OpCode 0x5B mode 0, flag 1), ref=3581*, entity1=EventEntity, entity2=EventEntity, string="tla1", extra=103*)
  1: 0x021F [0x5F] MULTI_HANDLER_COMPLEX(mode=0x07 - Wait scheduler task (OpCode 0x53))
  2: 0x022D [0x00] END_REQSTACK()
```

### Event 65535.19

#### Metadata

| Field        | Value    |
|--------------|----------|
| Entrypoint   | 0x022E   |
| Data Size    | 38 bytes |
| Instructions | 4        |

```
      00 01 02 03 04 05 06 07  08 09 0A 0B 0C 0D 0E 0F
      -- -- -- -- -- -- -- --  -- -- -- -- -- -- -- --
0220:                                            7B F8                {.
0230: FF FF 7F 5F 05 19 80 F8  FF FF 7F F8 FF FF 7F 6C  ..._...........l
0240: 61 68 30 1C 80 5F 07 F8  FF FF 7F F8 FF FF 7F 6C  ah0.._.........l
0250: 61 68 30 00                                       ah0.            
```

#### Opcodes

```
  0: 0x022E [0x7B] EventEntity stops talking
  1: 0x0233 [0x5F] MULTI_HANDLER_COMPLEX(mode=0x05 - Load ext scheduler with flag (OpCode 0x5B mode 0, flag 1), ref=3581*, entity1=EventEntity, entity2=EventEntity, string="lah0", extra=200*)
  2: 0x0245 [0x5F] MULTI_HANDLER_COMPLEX(mode=0x07 - Wait scheduler task (OpCode 0x53))
  3: 0x0253 [0x00] END_REQSTACK()
```

### Event 65535.20

#### Metadata

| Field        | Value    |
|--------------|----------|
| Entrypoint   | 0x0254   |
| Data Size    | 38 bytes |
| Instructions | 4        |

```
      00 01 02 03 04 05 06 07  08 09 0A 0B 0C 0D 0E 0F
      -- -- -- -- -- -- -- --  -- -- -- -- -- -- -- --
0250:             7B F8 FF FF  7F 5F 05 1D 80 F8 FF FF      {...._......
0260: 7F F8 FF FF 7F 6B 69 6D  30 1E 80 5F 07 F8 FF FF  .....kim0.._....
0270: 7F F8 FF FF 7F 6B 69 6D  30 00                    .....kim0.      
```

#### Opcodes

```
  0: 0x0254 [0x7B] EventEntity stops talking
  1: 0x0259 [0x5F] MULTI_HANDLER_COMPLEX(mode=0x05 - Load ext scheduler with flag (OpCode 0x5B mode 0, flag 1), ref=3582*, entity1=EventEntity, entity2=EventEntity, string="kim0", extra=161*)
  2: 0x026B [0x5F] MULTI_HANDLER_COMPLEX(mode=0x07 - Wait scheduler task (OpCode 0x53))
  3: 0x0279 [0x00] END_REQSTACK()
```

### Event 65535.21

#### Metadata

| Field        | Value    |
|--------------|----------|
| Entrypoint   | 0x027A   |
| Data Size    | 38 bytes |
| Instructions | 4        |

```
      00 01 02 03 04 05 06 07  08 09 0A 0B 0C 0D 0E 0F
      -- -- -- -- -- -- -- --  -- -- -- -- -- -- -- --
0270:                                7B F8 FF FF 7F 5F            {...._
0280: 05 1F 80 F8 FF FF 7F F8  FF FF 7F 63 68 69 30 20  ...........chi0 
0290: 80 5F 07 F8 FF FF 7F F8  FF FF 7F 63 68 69 30 00  ._.........chi0.
```

#### Opcodes

```
  0: 0x027A [0x7B] EventEntity stops talking
  1: 0x027F [0x5F] MULTI_HANDLER_COMPLEX(mode=0x05 - Load ext scheduler with flag (OpCode 0x5B mode 0, flag 1), ref=3609*, entity1=EventEntity, entity2=EventEntity, string="chi0", extra=256*)
  2: 0x0291 [0x5F] MULTI_HANDLER_COMPLEX(mode=0x07 - Wait scheduler task (OpCode 0x53))
  3: 0x029F [0x00] END_REQSTACK()
```

### Event 65535.22

#### Metadata

| Field        | Value    |
|--------------|----------|
| Entrypoint   | 0x02A0   |
| Data Size    | 38 bytes |
| Instructions | 4        |

```
      00 01 02 03 04 05 06 07  08 09 0A 0B 0C 0D 0E 0F
      -- -- -- -- -- -- -- --  -- -- -- -- -- -- -- --
02A0: 7B F8 FF FF 7F 5F 05 21  80 F8 FF FF 7F F8 FF FF  {...._.!........
02B0: 7F 74 6C 62 30 11 80 5F  07 F8 FF FF 7F F8 FF FF  .tlb0.._........
02C0: 7F 74 6C 62 30 00                                 .tlb0.          
```

#### Opcodes

```
  0: 0x02A0 [0x7B] EventEntity stops talking
  1: 0x02A5 [0x5F] MULTI_HANDLER_COMPLEX(mode=0x05 - Load ext scheduler with flag (OpCode 0x5B mode 0, flag 1), ref=3610*, entity1=EventEntity, entity2=EventEntity, string="tlb0", extra=72*)
  2: 0x02B7 [0x5F] MULTI_HANDLER_COMPLEX(mode=0x07 - Wait scheduler task (OpCode 0x53))
  3: 0x02C5 [0x00] END_REQSTACK()
```

### Event 65535.23

#### Metadata

| Field        | Value    |
|--------------|----------|
| Entrypoint   | 0x02C6   |
| Data Size    | 33 bytes |
| Instructions | 3        |

```
      00 01 02 03 04 05 06 07  08 09 0A 0B 0C 0D 0E 0F
      -- -- -- -- -- -- -- --  -- -- -- -- -- -- -- --
02C0:                   5F 05  21 80 F8 FF FF 7F F8 FF        _.!.......
02D0: FF 7F 74 6C 62 31 11 80  5F 07 F8 FF FF 7F F8 FF  ..tlb1.._.......
02E0: FF 7F 74 6C 62 31 00                              ..tlb1.         
```

#### Opcodes

```
  0: 0x02C6 [0x5F] MULTI_HANDLER_COMPLEX(mode=0x05 - Load ext scheduler with flag (OpCode 0x5B mode 0, flag 1), ref=3610*, entity1=EventEntity, entity2=EventEntity, string="tlb1", extra=72*)
  1: 0x02D8 [0x5F] MULTI_HANDLER_COMPLEX(mode=0x07 - Wait scheduler task (OpCode 0x53))
  2: 0x02E6 [0x00] END_REQSTACK()
```

### Event 65535.24

#### Metadata

| Field        | Value    |
|--------------|----------|
| Entrypoint   | 0x02E7   |
| Data Size    | 38 bytes |
| Instructions | 4        |

```
      00 01 02 03 04 05 06 07  08 09 0A 0B 0C 0D 0E 0F
      -- -- -- -- -- -- -- --  -- -- -- -- -- -- -- --
02E0:                      7B  F8 FF FF 7F 5F 05 21 80         {...._.!.
02F0: F8 FF FF 7F F8 FF FF 7F  74 6C 62 32 22 80 5F 07  ........tlb2"._.
0300: F8 FF FF 7F F8 FF FF 7F  74 6C 62 32 00           ........tlb2.   
```

#### Opcodes

```
  0: 0x02E7 [0x7B] EventEntity stops talking
  1: 0x02EC [0x5F] MULTI_HANDLER_COMPLEX(mode=0x05 - Load ext scheduler with flag (OpCode 0x5B mode 0, flag 1), ref=3610*, entity1=EventEntity, entity2=EventEntity, string="tlb2", extra=316*)
  2: 0x02FE [0x5F] MULTI_HANDLER_COMPLEX(mode=0x07 - Wait scheduler task (OpCode 0x53))
  3: 0x030C [0x00] END_REQSTACK()
```

### Event 65535.25

#### Metadata

| Field        | Value    |
|--------------|----------|
| Entrypoint   | 0x030D   |
| Data Size    | 38 bytes |
| Instructions | 4        |

```
      00 01 02 03 04 05 06 07  08 09 0A 0B 0C 0D 0E 0F
      -- -- -- -- -- -- -- --  -- -- -- -- -- -- -- --
0300:                                         7B F8 FF               {..
0310: FF 7F 5F 05 23 80 F8 FF  FF 7F F8 FF FF 7F 6E 69  .._.#.........ni
0320: 73 30 24 80 5F 07 F8 FF  FF 7F F8 FF FF 7F 6E 69  s0$._.........ni
0330: 73 30 00                                          s0.             
```

#### Opcodes

```
  0: 0x030D [0x7B] EventEntity stops talking
  1: 0x0312 [0x5F] MULTI_HANDLER_COMPLEX(mode=0x05 - Load ext scheduler with flag (OpCode 0x5B mode 0, flag 1), ref=3612*, entity1=EventEntity, entity2=EventEntity, string="nis0", extra=120*)
  2: 0x0324 [0x5F] MULTI_HANDLER_COMPLEX(mode=0x07 - Wait scheduler task (OpCode 0x53))
  3: 0x0332 [0x00] END_REQSTACK()
```

### Event 65535.26

#### Metadata

| Field        | Value    |
|--------------|----------|
| Entrypoint   | 0x0333   |
| Data Size    | 33 bytes |
| Instructions | 3        |

```
      00 01 02 03 04 05 06 07  08 09 0A 0B 0C 0D 0E 0F
      -- -- -- -- -- -- -- --  -- -- -- -- -- -- -- --
0330:          5F 05 23 80 F8  FF FF 7F F8 FF FF 7F 6E     _.#.........n
0340: 69 73 31 25 80 5F 07 F8  FF FF 7F F8 FF FF 7F 6E  is1%._.........n
0350: 69 73 31 00                                       is1.            
```

#### Opcodes

```
  0: 0x0333 [0x5F] MULTI_HANDLER_COMPLEX(mode=0x05 - Load ext scheduler with flag (OpCode 0x5B mode 0, flag 1), ref=3612*, entity1=EventEntity, entity2=EventEntity, string="nis1", extra=68*)
  1: 0x0345 [0x5F] MULTI_HANDLER_COMPLEX(mode=0x07 - Wait scheduler task (OpCode 0x53))
  2: 0x0353 [0x00] END_REQSTACK()
```

### Event 65535.27

#### Metadata

| Field        | Value    |
|--------------|----------|
| Entrypoint   | 0x0354   |
| Data Size    | 38 bytes |
| Instructions | 4        |

```
      00 01 02 03 04 05 06 07  08 09 0A 0B 0C 0D 0E 0F
      -- -- -- -- -- -- -- --  -- -- -- -- -- -- -- --
0350:             7B F8 FF FF  7F 5F 05 26 80 F8 FF FF      {...._.&....
0360: 7F F8 FF FF 7F 68 61 6B  30 27 80 5F 07 F8 FF FF  .....hak0'._....
0370: 7F F8 FF FF 7F 68 61 6B  30 00                    .....hak0.      
```

#### Opcodes

```
  0: 0x0354 [0x7B] EventEntity stops talking
  1: 0x0359 [0x5F] MULTI_HANDLER_COMPLEX(mode=0x05 - Load ext scheduler with flag (OpCode 0x5B mode 0, flag 1), ref=3614*, entity1=EventEntity, entity2=EventEntity, string="hak0", extra=280*)
  2: 0x036B [0x5F] MULTI_HANDLER_COMPLEX(mode=0x07 - Wait scheduler task (OpCode 0x53))
  3: 0x0379 [0x00] END_REQSTACK()
```

### Event 65535.28

#### Metadata

| Field        | Value    |
|--------------|----------|
| Entrypoint   | 0x037A   |
| Data Size    | 33 bytes |
| Instructions | 3        |

```
      00 01 02 03 04 05 06 07  08 09 0A 0B 0C 0D 0E 0F
      -- -- -- -- -- -- -- --  -- -- -- -- -- -- -- --
0370:                                5F 05 26 80 F8 FF            _.&...
0380: FF 7F F8 FF FF 7F 68 61  6B 31 28 80 5F 07 F8 FF  ......hak1(._...
0390: FF 7F F8 FF FF 7F 68 61  6B 31 00                 ......hak1.     
```

#### Opcodes

```
  0: 0x037A [0x5F] MULTI_HANDLER_COMPLEX(mode=0x05 - Load ext scheduler with flag (OpCode 0x5B mode 0, flag 1), ref=3614*, entity1=EventEntity, entity2=EventEntity, string="hak1", extra=124*)
  1: 0x038C [0x5F] MULTI_HANDLER_COMPLEX(mode=0x07 - Wait scheduler task (OpCode 0x53))
  2: 0x039A [0x00] END_REQSTACK()
```
