# 17855059

## Common Data

| Field            | Value                  |
|------------------|------------------------|
| Zone             | Yorcia Weald (ID: 263) |
| Block Size       | 2500 bytes             |
| Total Events     | 112                    |
| References Count | 77                     |

## List of Events

| Event ID                     | Entrypoint   |   Size |   Instructions |
|------------------------------|--------------|--------|----------------|
| [65535](#event-65535)        | 0x0000       |      1 |              1 |
| [65535.1](#event-655351)     | 0x0001       |      1 |              1 |
| [65535.2](#event-655352)     | 0x0002       |     18 |              4 |
| [65535.3](#event-655353)     | 0x0014       |     10 |              2 |
| [65535.4](#event-655354)     | 0x001E       |      9 |              3 |
| [65535.5](#event-655355)     | 0x0027       |      9 |              3 |
| [65535.6](#event-655356)     | 0x0030       |     10 |              2 |
| [65535.7](#event-655357)     | 0x003A       |     10 |              2 |
| [1](#event-1)                | 0x0044       |      1 |              1 |
| [2](#event-2)                | 0x0045       |      1 |              1 |
| [65535.8](#event-655358)     | 0x0046       |     25 |              3 |
| [65535.9](#event-655359)     | 0x005F       |     25 |              3 |
| [65535.10](#event-6553510)   | 0x0078       |      5 |              2 |
| [65535.11](#event-6553511)   | 0x007D       |     15 |              5 |
| [65535.12](#event-6553512)   | 0x008C       |     15 |              5 |
| [65535.13](#event-6553513)   | 0x009B       |     15 |              5 |
| [65535.14](#event-6553514)   | 0x00AA       |     15 |              5 |
| [65535.15](#event-6553515)   | 0x00B9       |     25 |              7 |
| [3](#event-3)                | 0x00D2       |      1 |              1 |
| [65535.16](#event-6553516)   | 0x00D3       |     29 |              4 |
| [65535.17](#event-6553517)   | 0x00F0       |      5 |              2 |
| [65535.18](#event-6553518)   | 0x00F5       |     10 |              2 |
| [65535.19](#event-6553519)   | 0x00FF       |     10 |              2 |
| [65535.20](#event-6553520)   | 0x0109       |     29 |              4 |
| [4](#event-4)                | 0x0126       |     29 |              4 |
| [65535.21](#event-6553521)   | 0x0143       |     19 |              2 |
| [65535.22](#event-6553522)   | 0x0156       |     15 |              2 |
| [65535.23](#event-6553523)   | 0x0165       |     16 |              2 |
| [65535.24](#event-6553524)   | 0x0175       |     14 |              2 |
| [65535.25](#event-6553525)   | 0x0183       |     19 |              2 |
| [65535.26](#event-6553526)   | 0x0196       |     15 |              2 |
| [65535.27](#event-6553527)   | 0x01A5       |     16 |              2 |
| [65535.28](#event-6553528)   | 0x01B5       |     14 |              2 |
| [65535.29](#event-6553529)   | 0x01C3       |     19 |              2 |
| [65535.30](#event-6553530)   | 0x01D6       |     15 |              2 |
| [65535.31](#event-6553531)   | 0x01E5       |     19 |              2 |
| [65535.32](#event-6553532)   | 0x01F8       |     15 |              2 |
| [65535.33](#event-6553533)   | 0x0207       |     19 |              2 |
| [65535.34](#event-6553534)   | 0x021A       |     15 |              2 |
| [65535.35](#event-6553535)   | 0x0229       |     16 |              2 |
| [65535.36](#event-6553536)   | 0x0239       |     14 |              2 |
| [65535.37](#event-6553537)   | 0x0247       |     19 |              2 |
| [65535.38](#event-6553538)   | 0x025A       |     15 |              2 |
| [65535.39](#event-6553539)   | 0x0269       |     19 |              2 |
| [65535.40](#event-6553540)   | 0x027C       |     15 |              2 |
| [65535.41](#event-6553541)   | 0x028B       |     25 |              3 |
| [65535.42](#event-6553542)   | 0x02A4       |     15 |              2 |
| [65535.43](#event-6553543)   | 0x02B3       |     16 |              2 |
| [65535.44](#event-6553544)   | 0x02C3       |     20 |              3 |
| [65535.45](#event-6553545)   | 0x02D7       |     19 |              2 |
| [65535.46](#event-6553546)   | 0x02EA       |     15 |              2 |
| [65535.47](#event-6553547)   | 0x02F9       |     16 |              2 |
| [65535.48](#event-6553548)   | 0x0309       |     14 |              2 |
| [65535.49](#event-6553549)   | 0x0317       |     19 |              2 |
| [65535.50](#event-6553550)   | 0x032A       |     15 |              2 |
| [65535.51](#event-6553551)   | 0x0339       |     16 |              2 |
| [65535.52](#event-6553552)   | 0x0349       |     14 |              2 |
| [65535.53](#event-6553553)   | 0x0357       |     19 |              2 |
| [65535.54](#event-6553554)   | 0x036A       |     15 |              2 |
| [65535.55](#event-6553555)   | 0x0379       |     19 |              2 |
| [65535.56](#event-6553556)   | 0x038C       |     15 |              2 |
| [65535.57](#event-6553557)   | 0x039B       |     16 |              2 |
| [65535.58](#event-6553558)   | 0x03AB       |     14 |              2 |
| [65535.59](#event-6553559)   | 0x03B9       |     19 |              2 |
| [65535.60](#event-6553560)   | 0x03CC       |     15 |              2 |
| [65535.61](#event-6553561)   | 0x03DB       |     19 |              2 |
| [65535.62](#event-6553562)   | 0x03EE       |     15 |              2 |
| [65535.63](#event-6553563)   | 0x03FD       |     16 |              2 |
| [65535.64](#event-6553564)   | 0x040D       |     14 |              2 |
| [65535.65](#event-6553565)   | 0x041B       |     16 |              2 |
| [65535.66](#event-6553566)   | 0x042B       |     14 |              2 |
| [65535.67](#event-6553567)   | 0x0439       |     19 |              2 |
| [65535.68](#event-6553568)   | 0x044C       |     15 |              2 |
| [65535.69](#event-6553569)   | 0x045B       |     19 |              2 |
| [65535.70](#event-6553570)   | 0x046E       |     15 |              2 |
| [65535.71](#event-6553571)   | 0x047D       |     19 |              2 |
| [65535.72](#event-6553572)   | 0x0490       |     15 |              2 |
| [65535.73](#event-6553573)   | 0x049F       |     19 |              2 |
| [65535.74](#event-6553574)   | 0x04B2       |     15 |              2 |
| [65535.75](#event-6553575)   | 0x04C1       |     19 |              2 |
| [65535.76](#event-6553576)   | 0x04D4       |     15 |              2 |
| [65535.77](#event-6553577)   | 0x04E3       |     19 |              2 |
| [65535.78](#event-6553578)   | 0x04F6       |     15 |              2 |
| [65535.79](#event-6553579)   | 0x0505       |     16 |              2 |
| [65535.80](#event-6553580)   | 0x0515       |     14 |              2 |
| [65535.81](#event-6553581)   | 0x0523       |     19 |              2 |
| [65535.82](#event-6553582)   | 0x0536       |     15 |              2 |
| [65535.83](#event-6553583)   | 0x0545       |     19 |              2 |
| [65535.84](#event-6553584)   | 0x0558       |     15 |              2 |
| [65535.85](#event-6553585)   | 0x0567       |     19 |              2 |
| [65535.86](#event-6553586)   | 0x057A       |     15 |              2 |
| [5](#event-5)                | 0x0589       |      1 |              1 |
| [6](#event-6)                | 0x058A       |      1 |              1 |
| [65535.87](#event-6553587)   | 0x058B       |     14 |              4 |
| [65535.88](#event-6553588)   | 0x0599       |     14 |              4 |
| [65535.89](#event-6553589)   | 0x05A7       |     14 |              4 |
| [65535.90](#event-6553590)   | 0x05B5       |     14 |              4 |
| [65535.91](#event-6553591)   | 0x05C3       |     14 |              4 |
| [65535.92](#event-6553592)   | 0x05D1       |     29 |              4 |
| [7](#event-7)                | 0x05EE       |      1 |              1 |
| [65535.93](#event-6553593)   | 0x05EF       |     14 |              4 |
| [8](#event-8)                | 0x05FD       |      1 |              1 |
| [65535.94](#event-6553594)   | 0x05FE       |     14 |              4 |
| [65535.95](#event-6553595)   | 0x060C       |     14 |              4 |
| [65535.96](#event-6553596)   | 0x061A       |     14 |              4 |
| [65535.97](#event-6553597)   | 0x0628       |     16 |              5 |
| [129](#event-129)            | 0x0638       |      5 |              2 |
| [65535.98](#event-6553598)   | 0x063D       |     56 |             11 |
| [130](#event-130)            | 0x0675       |     29 |              4 |
| [131](#event-131)            | 0x0692       |     29 |              4 |
| [65535.99](#event-6553599)   | 0x06AF       |      7 |              3 |
| [65535.100](#event-65535100) | 0x06B6       |      7 |              3 |

## DAT References (imed_data)

|   Index | Hex Value   |   Dec Value |
|---------|-------------|-------------|
|       0 | 0x0000      |           0 |
|       1 | 0x0001      |           1 |
|       2 | 0x0080      |         128 |
|       3 | 0x0AA9      |        2729 |
|       4 | 0x000B      |          11 |
|       5 | 0xFFFD78D3  |  4294801619 |
|       6 | 0x5FE8C     |      392844 |
|       7 | 0x037E      |         894 |
|       8 | 0xFFFD9CA3  |  4294810787 |
|       9 | 0x6100A     |      397322 |
|      10 | 0x000A      |          10 |
|      11 | 0xFFFD7BAF  |  4294802351 |
|      12 | 0x5FBC8     |      392136 |
|      13 | 0xFFFD6C31  |  4294798385 |
|      14 | 0x5F6FF     |      390911 |
|      15 | 0x0315      |         789 |
|      16 | 0x3CA0E     |      248334 |
|      17 | 0x1E720     |      124704 |
|      18 | 0x017B      |         379 |
|      19 | 0x0ABC      |        2748 |
|      20 | 0x0050      |          80 |
|      21 | 0x0040      |          64 |
|      22 | 0x0034      |          52 |
|      23 | 0x0CDB      |        3291 |
|      24 | 0x0064      |         100 |
|      25 | 0x0078      |         120 |
|      26 | 0x00AA      |         170 |
|      27 | 0x0CDC      |        3292 |
|      28 | 0x008C      |         140 |
|      29 | 0x0096      |         150 |
|      30 | 0x017C      |         380 |
|      31 | 0x0CDD      |        3293 |
|      32 | 0x0082      |         130 |
|      33 | 0x012C      |         300 |
|      34 | 0x0D4E      |        3406 |
|      35 | 0x0D51      |        3409 |
|      36 | 0x00C8      |         200 |
|      37 | 0x0CDF      |        3295 |
|      38 | 0x005A      |          90 |
|      39 | 0x0F0E      |        3854 |
|      40 | 0x014A      |         330 |
|      41 | 0x00A0      |         160 |
|      42 | 0x000D      |          13 |
|      43 | 0x27DB7     |      163255 |
|      44 | 0xBA3C      |       47676 |
|      45 | 0x00C5      |         197 |
|      46 | 0x2597A     |      153978 |
|      47 | 0xC032      |       49202 |
|      48 | 0x026A      |         618 |
|      49 | 0x26EBB     |      159419 |
|      50 | 0x7FC0      |       32704 |
|      51 | 0xFFFFFF31  |  4294967089 |
|      52 | 0x265A3     |      157091 |
|      53 | 0x7F2A      |       32554 |
|      54 | 0xFFFFFFA3  |  4294967203 |
|      55 | 0x23E85     |      147077 |
|      56 | 0xAE3F      |       44607 |
|      57 | 0x024E      |         590 |
|      58 | 0x0AAC      |        2732 |
|      59 | 0xFFFDB13C  |  4294816060 |
|      60 | 0x6C47E     |      443518 |
|      61 | 0x00DA      |         218 |
|      62 | 0xFFFDAA56  |  4294814294 |
|      63 | 0x6B73C     |      440124 |
|      64 | 0x0094      |         148 |
|      65 | 0xFFFDACC0  |  4294814912 |
|      66 | 0x6B091     |      438417 |
|      67 | 0x00B3      |         179 |
|      68 | 0xFFFDABE1  |  4294814689 |
|      69 | 0x6B4C4     |      439492 |
|      70 | 0x00A7      |         167 |
|      71 | 0xFFFDBB6A  |  4294818666 |
|      72 | 0x68B28     |      428840 |
|      73 | 0x0093      |         147 |
|      74 | 0x023A      |         570 |
|      75 | 0x010D      |         269 |
|      76 | 0x0A1E      |        2590 |

## Events

### Event 65535

#### Metadata

| Field        | Value   |
|--------------|---------|
| Entrypoint   | 0x0000  |
| Data Size    | 1 bytes |
| Instructions | 1       |

```
      00 01 02 03 04 05 06 07  08 09 0A 0B 0C 0D 0E 0F
      -- -- -- -- -- -- -- --  -- -- -- -- -- -- -- --
0000: 00                                                .               
```

#### Opcodes

```
  0: 0x0000 [0x00] END_REQSTACK()
```

### Event 65535.1

#### Metadata

| Field        | Value   |
|--------------|---------|
| Entrypoint   | 0x0001  |
| Data Size    | 1 bytes |
| Instructions | 1       |

```
      00 01 02 03 04 05 06 07  08 09 0A 0B 0C 0D 0E 0F
      -- -- -- -- -- -- -- --  -- -- -- -- -- -- -- --
0000:    00                                              .              
```

#### Opcodes

```
  0: 0x0001 [0x00] END_REQSTACK()
```

### Event 65535.2

#### Metadata

| Field        | Value    |
|--------------|----------|
| Entrypoint   | 0x0002   |
| Data Size    | 18 bytes |
| Instructions | 4        |

```
      00 01 02 03 04 05 06 07  08 09 0A 0B 0C 0D 0E 0F
      -- -- -- -- -- -- -- --  -- -- -- -- -- -- -- --
0000:       22 00 2F 00 F8 FF  FF 7F 6C F8 FF FF 7F 00    "./.....l.....
0010: 80 01 80 00                                       ....            
```

#### Opcodes

```
  0: 0x0002 [0x22] ENTITY_HIDE_FLAG(enabled=0x00)
  1: 0x0004 [0x2F] EventEntity->Render.Flags0 &= ~0x80000 // Bit 19
  2: 0x000A [0x6C] FADE_ENTITY_COLOR(entity_id=EventEntity, end_alpha=0*, fade_time=1*)
  3: 0x0013 [0x00] END_REQSTACK()
```

### Event 65535.3

#### Metadata

| Field        | Value    |
|--------------|----------|
| Entrypoint   | 0x0014   |
| Data Size    | 10 bytes |
| Instructions | 2        |

```
      00 01 02 03 04 05 06 07  08 09 0A 0B 0C 0D 0E 0F
      -- -- -- -- -- -- -- --  -- -- -- -- -- -- -- --
0010:             6C F8 FF FF  7F 02 80 01 80 00            l.........  
```

#### Opcodes

```
  0: 0x0014 [0x6C] FADE_ENTITY_COLOR(entity_id=EventEntity, end_alpha=128*, fade_time=1*)
  1: 0x001D [0x00] END_REQSTACK()
```

### Event 65535.4

#### Metadata

| Field        | Value   |
|--------------|---------|
| Entrypoint   | 0x001E  |
| Data Size    | 9 bytes |
| Instructions | 3       |

```
      00 01 02 03 04 05 06 07  08 09 0A 0B 0C 0D 0E 0F
      -- -- -- -- -- -- -- --  -- -- -- -- -- -- -- --
0010:                                            22 00                ".
0020: 2F 00 F8 FF FF 7F 00                              /......         
```

#### Opcodes

```
  0: 0x001E [0x22] ENTITY_HIDE_FLAG(enabled=0x00)
  1: 0x0020 [0x2F] EventEntity->Render.Flags0 &= ~0x80000 // Bit 19
  2: 0x0026 [0x00] END_REQSTACK()
```

### Event 65535.5

#### Metadata

| Field        | Value   |
|--------------|---------|
| Entrypoint   | 0x0027  |
| Data Size    | 9 bytes |
| Instructions | 3       |

```
      00 01 02 03 04 05 06 07  08 09 0A 0B 0C 0D 0E 0F
      -- -- -- -- -- -- -- --  -- -- -- -- -- -- -- --
0020:                      22  01 2F 01 F8 FF FF 7F 00         "./......
```

#### Opcodes

```
  0: 0x0027 [0x22] ENTITY_HIDE_FLAG(enabled=0x01)
  1: 0x0029 [0x2F] EventEntity->Render.Flags0 |= 0x80000 // Bit 19
  2: 0x002F [0x00] END_REQSTACK()
```

### Event 65535.6

#### Metadata

| Field        | Value    |
|--------------|----------|
| Entrypoint   | 0x0030   |
| Data Size    | 10 bytes |
| Instructions | 2        |

```
      00 01 02 03 04 05 06 07  08 09 0A 0B 0C 0D 0E 0F
      -- -- -- -- -- -- -- --  -- -- -- -- -- -- -- --
0030: 6C F8 FF FF 7F 00 80 01  80 00                    l.........      
```

#### Opcodes

```
  0: 0x0030 [0x6C] FADE_ENTITY_COLOR(entity_id=EventEntity, end_alpha=0*, fade_time=1*)
  1: 0x0039 [0x00] END_REQSTACK()
```

### Event 65535.7

#### Metadata

| Field        | Value    |
|--------------|----------|
| Entrypoint   | 0x003A   |
| Data Size    | 10 bytes |
| Instructions | 2        |

```
      00 01 02 03 04 05 06 07  08 09 0A 0B 0C 0D 0E 0F
      -- -- -- -- -- -- -- --  -- -- -- -- -- -- -- --
0030:                                6C F8 FF FF 7F 02            l.....
0040: 80 01 80 00                                       ....            
```

#### Opcodes

```
  0: 0x003A [0x6C] FADE_ENTITY_COLOR(entity_id=EventEntity, end_alpha=128*, fade_time=1*)
  1: 0x0043 [0x00] END_REQSTACK()
```

### Event 1

#### Metadata

| Field        | Value   |
|--------------|---------|
| Entrypoint   | 0x0044  |
| Data Size    | 1 bytes |
| Instructions | 1       |

```
      00 01 02 03 04 05 06 07  08 09 0A 0B 0C 0D 0E 0F
      -- -- -- -- -- -- -- --  -- -- -- -- -- -- -- --
0040:             00                                        .           
```

#### Opcodes

```
  0: 0x0044 [0x00] END_REQSTACK()
```

### Event 2

#### Metadata

| Field        | Value   |
|--------------|---------|
| Entrypoint   | 0x0045  |
| Data Size    | 1 bytes |
| Instructions | 1       |

```
      00 01 02 03 04 05 06 07  08 09 0A 0B 0C 0D 0E 0F
      -- -- -- -- -- -- -- --  -- -- -- -- -- -- -- --
0040:                00                                      .          
```

#### Opcodes

```
  0: 0x0045 [0x00] END_REQSTACK()
```

### Event 65535.8

#### Metadata

| Field        | Value    |
|--------------|----------|
| Entrypoint   | 0x0046   |
| Data Size    | 25 bytes |
| Instructions | 3        |

```
      00 01 02 03 04 05 06 07  08 09 0A 0B 0C 0D 0E 0F
      -- -- -- -- -- -- -- --  -- -- -- -- -- -- -- --
0040:                   B4 00  00 00 3F 3F 3F 00 00 00        ....???...
0050: 00 00 00 00 00 00 00 00  00 00 B5 00 00 00 00     ............... 
```

#### Opcodes

```
  0: 0x0046 [0xB4] UI_WINDOW_STRING_HANDLER(case=0x00 - Copy string from opcode, work_offset=ExtData[1]->WorkLocal[0], string="???")
  1: 0x005A [0xB5] SET_EVENT_ENTITY_NAME: Change EventEntity name to ExtData[1]->WorkLocal[0]
  2: 0x005E [0x00] END_REQSTACK()
```

### Event 65535.9

#### Metadata

| Field        | Value    |
|--------------|----------|
| Entrypoint   | 0x005F   |
| Data Size    | 25 bytes |
| Instructions | 3        |

```
      00 01 02 03 04 05 06 07  08 09 0A 0B 0C 0D 0E 0F
      -- -- -- -- -- -- -- --  -- -- -- -- -- -- -- --
0050:                                               B4                 .
0060: 00 00 00 52 6F 73 75 6C  61 74 69 61 00 00 00 00  ...Rosulatia....
0070: 00 00 00 B5 00 00 00 00                           ........        
```

#### Opcodes

```
  0: 0x005F [0xB4] UI_WINDOW_STRING_HANDLER(case=0x00 - Copy string from opcode, work_offset=ExtData[1]->WorkLocal[0], string="Rosulatia")
  1: 0x0073 [0xB5] SET_EVENT_ENTITY_NAME: Change EventEntity name to ExtData[1]->WorkLocal[0]
  2: 0x0077 [0x00] END_REQSTACK()
```

### Event 65535.10

#### Metadata

| Field        | Value   |
|--------------|---------|
| Entrypoint   | 0x0078  |
| Data Size    | 5 bytes |
| Instructions | 2       |

```
      00 01 02 03 04 05 06 07  08 09 0A 0B 0C 0D 0E 0F
      -- -- -- -- -- -- -- --  -- -- -- -- -- -- -- --
0070:                          B6 00 03 80 00                   .....   
```

#### Opcodes

```
  0: 0x0078 [0xB6] ENTITY_APPEARANCE_HANDLER(case=Hair style, value=2729*)
  1: 0x007C [0x00] END_REQSTACK()
```

### Event 65535.11

#### Metadata

| Field        | Value    |
|--------------|----------|
| Entrypoint   | 0x007D   |
| Data Size    | 15 bytes |
| Instructions | 5        |

```
      00 01 02 03 04 05 06 07  08 09 0A 0B 0C 0D 0E 0F
      -- -- -- -- -- -- -- --  -- -- -- -- -- -- -- --
0070:                                         32 04 80               2..
0080: 1F 00 05 80 06 80 07 80  1F 01 6F 00              ..........o.    
```

#### Opcodes

```
  0: 0x007D [0x32] ExtData[1]->MainSpeed = 11* * 0.1
  1: 0x0080 [0x1F] MOVE_ENTITY: EventEntity moves to X=-165.677*, Z=392.844*, Y=0.894*
  2: 0x0088 [0x1F] MOVE_ENTITY: Update entity position (mode=1)
  3: 0x008A [0x6F] WAIT_FRAME_DELAY: Yield until WaitTime reaches zero
  4: 0x008B [0x00] END_REQSTACK()
```

### Event 65535.12

#### Metadata

| Field        | Value    |
|--------------|----------|
| Entrypoint   | 0x008C   |
| Data Size    | 15 bytes |
| Instructions | 5        |

```
      00 01 02 03 04 05 06 07  08 09 0A 0B 0C 0D 0E 0F
      -- -- -- -- -- -- -- --  -- -- -- -- -- -- -- --
0080:                                      32 04 80 1F              2...
0090: 00 08 80 09 80 0A 80 1F  01 6F 00                 .........o.     
```

#### Opcodes

```
  0: 0x008C [0x32] ExtData[1]->MainSpeed = 11* * 0.1
  1: 0x008F [0x1F] MOVE_ENTITY: EventEntity moves to X=-156.509*, Z=397.322*, Y=0.010*
  2: 0x0097 [0x1F] MOVE_ENTITY: Update entity position (mode=1)
  3: 0x0099 [0x6F] WAIT_FRAME_DELAY: Yield until WaitTime reaches zero
  4: 0x009A [0x00] END_REQSTACK()
```

### Event 65535.13

#### Metadata

| Field        | Value    |
|--------------|----------|
| Entrypoint   | 0x009B   |
| Data Size    | 15 bytes |
| Instructions | 5        |

```
      00 01 02 03 04 05 06 07  08 09 0A 0B 0C 0D 0E 0F
      -- -- -- -- -- -- -- --  -- -- -- -- -- -- -- --
0090:                                   32 04 80 1F 00             2....
00A0: 0B 80 0C 80 07 80 1F 01  6F 00                    ........o.      
```

#### Opcodes

```
  0: 0x009B [0x32] ExtData[1]->MainSpeed = 11* * 0.1
  1: 0x009E [0x1F] MOVE_ENTITY: EventEntity moves to X=-164.945*, Z=392.136*, Y=0.894*
  2: 0x00A6 [0x1F] MOVE_ENTITY: Update entity position (mode=1)
  3: 0x00A8 [0x6F] WAIT_FRAME_DELAY: Yield until WaitTime reaches zero
  4: 0x00A9 [0x00] END_REQSTACK()
```

### Event 65535.14

#### Metadata

| Field        | Value    |
|--------------|----------|
| Entrypoint   | 0x00AA   |
| Data Size    | 15 bytes |
| Instructions | 5        |

```
      00 01 02 03 04 05 06 07  08 09 0A 0B 0C 0D 0E 0F
      -- -- -- -- -- -- -- --  -- -- -- -- -- -- -- --
00A0:                                32 0A 80 1F 00 0D            2.....
00B0: 80 0E 80 0F 80 1F 01 6F  00                       .......o.       
```

#### Opcodes

```
  0: 0x00AA [0x32] ExtData[1]->MainSpeed = 10* * 0.1
  1: 0x00AD [0x1F] MOVE_ENTITY: EventEntity moves to X=-168.911*, Z=390.911*, Y=0.789*
  2: 0x00B5 [0x1F] MOVE_ENTITY: Update entity position (mode=1)
  3: 0x00B7 [0x6F] WAIT_FRAME_DELAY: Yield until WaitTime reaches zero
  4: 0x00B8 [0x00] END_REQSTACK()
```

### Event 65535.15

#### Metadata

| Field        | Value    |
|--------------|----------|
| Entrypoint   | 0x00B9   |
| Data Size    | 25 bytes |
| Instructions | 7        |

```
      00 01 02 03 04 05 06 07  08 09 0A 0B 0C 0D 0E 0F
      -- -- -- -- -- -- -- --  -- -- -- -- -- -- -- --
00B0:                             32 0A 80 1F 00 10 80           2......
00C0: 11 80 12 80 1F 01 6F 1E  52 72 10 01 7B F8 FF FF  ......o.Rr..{...
00D0: 7F 00                                             ..              
```

#### Opcodes

```
  0: 0x00B9 [0x32] ExtData[1]->MainSpeed = 10* * 0.1
  1: 0x00BC [0x1F] MOVE_ENTITY: EventEntity moves to X=248.334*, Z=124.704*, Y=0.379*
  2: 0x00C4 [0x1F] MOVE_ENTITY: Update entity position (mode=1)
  3: 0x00C6 [0x6F] WAIT_FRAME_DELAY: Yield until WaitTime reaches zero
  4: 0x00C7 [0x1E] EventEntity looks at Arciela (ID: 17855058/0x01107252) and starts talking
  5: 0x00CC [0x7B] EventEntity stops talking
  6: 0x00D1 [0x00] END_REQSTACK()
```

### Event 3

#### Metadata

| Field        | Value   |
|--------------|---------|
| Entrypoint   | 0x00D2  |
| Data Size    | 1 bytes |
| Instructions | 1       |

```
      00 01 02 03 04 05 06 07  08 09 0A 0B 0C 0D 0E 0F
      -- -- -- -- -- -- -- --  -- -- -- -- -- -- -- --
00D0:       00                                            .             
```

#### Opcodes

```
  0: 0x00D2 [0x00] END_REQSTACK()
```

### Event 65535.16

#### Metadata

| Field        | Value    |
|--------------|----------|
| Entrypoint   | 0x00D3   |
| Data Size    | 29 bytes |
| Instructions | 4        |

```
      00 01 02 03 04 05 06 07  08 09 0A 0B 0C 0D 0E 0F
      -- -- -- -- -- -- -- --  -- -- -- -- -- -- -- --
00D0:          B6 00 13 80 B4  00 00 00 41 73 68 72 61     ........Ashra
00E0: 6B 6B 00 00 00 00 00 00  00 00 00 B5 00 00 00 00  kk..............
```

#### Opcodes

```
  0: 0x00D3 [0xB6] ENTITY_APPEARANCE_HANDLER(case=Hair style, value=2748*)
  1: 0x00D7 [0xB4] UI_WINDOW_STRING_HANDLER(case=0x00 - Copy string from opcode, work_offset=ExtData[1]->WorkLocal[0], string="Ashrakk")
  2: 0x00EB [0xB5] SET_EVENT_ENTITY_NAME: Change EventEntity name to ExtData[1]->WorkLocal[0]
  3: 0x00EF [0x00] END_REQSTACK()
```

### Event 65535.17

#### Metadata

| Field        | Value   |
|--------------|---------|
| Entrypoint   | 0x00F0  |
| Data Size    | 5 bytes |
| Instructions | 2       |

```
      00 01 02 03 04 05 06 07  08 09 0A 0B 0C 0D 0E 0F
      -- -- -- -- -- -- -- --  -- -- -- -- -- -- -- --
00F0: B6 0F 14 80 00                                    .....           
```

#### Opcodes

```
  0: 0x00F0 [0xB6] ENTITY_APPEARANCE_HANDLER(case=Model size, value=80*)
  1: 0x00F4 [0x00] END_REQSTACK()
```

### Event 65535.18

#### Metadata

| Field        | Value    |
|--------------|----------|
| Entrypoint   | 0x00F5   |
| Data Size    | 10 bytes |
| Instructions | 2        |

```
      00 01 02 03 04 05 06 07  08 09 0A 0B 0C 0D 0E 0F
      -- -- -- -- -- -- -- --  -- -- -- -- -- -- -- --
00F0:                6C F8 FF  FF 7F 00 80 01 80 00          l......... 
```

#### Opcodes

```
  0: 0x00F5 [0x6C] FADE_ENTITY_COLOR(entity_id=EventEntity, end_alpha=0*, fade_time=1*)
  1: 0x00FE [0x00] END_REQSTACK()
```

### Event 65535.19

#### Metadata

| Field        | Value    |
|--------------|----------|
| Entrypoint   | 0x00FF   |
| Data Size    | 10 bytes |
| Instructions | 2        |

```
      00 01 02 03 04 05 06 07  08 09 0A 0B 0C 0D 0E 0F
      -- -- -- -- -- -- -- --  -- -- -- -- -- -- -- --
00F0:                                               6C                 l
0100: F8 FF FF 7F 15 80 01 80  00                       .........       
```

#### Opcodes

```
  0: 0x00FF [0x6C] FADE_ENTITY_COLOR(entity_id=EventEntity, end_alpha=64*, fade_time=1*)
  1: 0x0108 [0x00] END_REQSTACK()
```

### Event 65535.20

#### Metadata

| Field        | Value    |
|--------------|----------|
| Entrypoint   | 0x0109   |
| Data Size    | 29 bytes |
| Instructions | 4        |

```
      00 01 02 03 04 05 06 07  08 09 0A 0B 0C 0D 0E 0F
      -- -- -- -- -- -- -- --  -- -- -- -- -- -- -- --
0100:                             B4 00 00 00 00 00 00           .......
0110: 00 00 00 00 00 00 00 00  00 00 00 00 00 B5 00 00  ................
0120: 00 B6 00 16 80 00                                 ......          
```

#### Opcodes

```
  0: 0x0109 [0xB4] UI_WINDOW_STRING_HANDLER(case=0x00 - Copy string from opcode, work_offset=ExtData[1]->WorkLocal[0], string="")
  1: 0x011D [0xB5] SET_EVENT_ENTITY_NAME: Change EventEntity name to ExtData[1]->WorkLocal[0]
  2: 0x0121 [0xB6] ENTITY_APPEARANCE_HANDLER(case=Hair style, value=52*)
  3: 0x0125 [0x00] END_REQSTACK()
```

### Event 4

#### Metadata

| Field        | Value    |
|--------------|----------|
| Entrypoint   | 0x0126   |
| Data Size    | 29 bytes |
| Instructions | 4        |

```
      00 01 02 03 04 05 06 07  08 09 0A 0B 0C 0D 0E 0F
      -- -- -- -- -- -- -- --  -- -- -- -- -- -- -- --
0120:                   B6 00  13 80 B4 00 00 00 41 73        ........As
0130: 68 72 61 6B 6B 00 00 00  00 00 00 00 00 00 B5 00  hrakk...........
0140: 00 00 00                                          ...             
```

#### Opcodes

```
  0: 0x0126 [0xB6] ENTITY_APPEARANCE_HANDLER(case=Hair style, value=2748*)
  1: 0x012A [0xB4] UI_WINDOW_STRING_HANDLER(case=0x00 - Copy string from opcode, work_offset=ExtData[1]->WorkLocal[0], string="Ashrakk")
  2: 0x013E [0xB5] SET_EVENT_ENTITY_NAME: Change EventEntity name to ExtData[1]->WorkLocal[0]
  3: 0x0142 [0x00] END_REQSTACK()
```

### Event 65535.21

#### Metadata

| Field        | Value    |
|--------------|----------|
| Entrypoint   | 0x0143   |
| Data Size    | 19 bytes |
| Instructions | 2        |

```
      00 01 02 03 04 05 06 07  08 09 0A 0B 0C 0D 0E 0F
      -- -- -- -- -- -- -- --  -- -- -- -- -- -- -- --
0140:          5F 05 17 80 F8  FF FF 7F F8 FF FF 7F 74     _...........t
0150: 6C 6B 30 18 80 00                                 lk0...          
```

#### Opcodes

```
  0: 0x0143 [0x5F] MULTI_HANDLER_COMPLEX(mode=0x05 - Load ext scheduler with flag (OpCode 0x5B mode 0, flag 1), ref=3291*, entity1=EventEntity, entity2=EventEntity, string="tlk0", extra=100*)
  1: 0x0155 [0x00] END_REQSTACK()
```

### Event 65535.22

#### Metadata

| Field        | Value    |
|--------------|----------|
| Entrypoint   | 0x0156   |
| Data Size    | 15 bytes |
| Instructions | 2        |

```
      00 01 02 03 04 05 06 07  08 09 0A 0B 0C 0D 0E 0F
      -- -- -- -- -- -- -- --  -- -- -- -- -- -- -- --
0150:                   5F 07  F8 FF FF 7F F8 FF FF 7F        _.........
0160: 74 6C 6B 30 00                                    tlk0.           
```

#### Opcodes

```
  0: 0x0156 [0x5F] MULTI_HANDLER_COMPLEX(mode=0x07 - Wait scheduler task (OpCode 0x53))
  1: 0x0164 [0x00] END_REQSTACK()
```

### Event 65535.23

#### Metadata

| Field        | Value    |
|--------------|----------|
| Entrypoint   | 0x0165   |
| Data Size    | 16 bytes |
| Instructions | 2        |

```
      00 01 02 03 04 05 06 07  08 09 0A 0B 0C 0D 0E 0F
      -- -- -- -- -- -- -- --  -- -- -- -- -- -- -- --
0160:                5B 17 80  F8 FF FF 7F F8 FF FF 7F       [..........
0170: 74 6C 6B 31 00                                    tlk1.           
```

#### Opcodes

```
  0: 0x0165 [0x5B] LOAD_EXT_SCHEDULER: Load scheduler "tlk1" with entities [EventEntity, EventEntity], work=3291*
  1: 0x0174 [0x00] END_REQSTACK()
```

### Event 65535.24

#### Metadata

| Field        | Value    |
|--------------|----------|
| Entrypoint   | 0x0175   |
| Data Size    | 14 bytes |
| Instructions | 2        |

```
      00 01 02 03 04 05 06 07  08 09 0A 0B 0C 0D 0E 0F
      -- -- -- -- -- -- -- --  -- -- -- -- -- -- -- --
0170:                53 F8 FF  FF 7F F8 FF FF 7F 74 6C       S........tl
0180: 6B 31 00                                          k1.             
```

#### Opcodes

```
  0: 0x0175 [0x53] WAIT_SCHEDULER_TASK: Wait for scheduler "tlk1" with entities [EventEntity, EventEntity]
  1: 0x0182 [0x00] END_REQSTACK()
```

### Event 65535.25

#### Metadata

| Field        | Value    |
|--------------|----------|
| Entrypoint   | 0x0183   |
| Data Size    | 19 bytes |
| Instructions | 2        |

```
      00 01 02 03 04 05 06 07  08 09 0A 0B 0C 0D 0E 0F
      -- -- -- -- -- -- -- --  -- -- -- -- -- -- -- --
0180:          5F 05 17 80 F8  FF FF 7F F8 FF FF 7F 74     _...........t
0190: 68 6B 30 19 80 00                                 hk0...          
```

#### Opcodes

```
  0: 0x0183 [0x5F] MULTI_HANDLER_COMPLEX(mode=0x05 - Load ext scheduler with flag (OpCode 0x5B mode 0, flag 1), ref=3291*, entity1=EventEntity, entity2=EventEntity, string="thk0", extra=120*)
  1: 0x0195 [0x00] END_REQSTACK()
```

### Event 65535.26

#### Metadata

| Field        | Value    |
|--------------|----------|
| Entrypoint   | 0x0196   |
| Data Size    | 15 bytes |
| Instructions | 2        |

```
      00 01 02 03 04 05 06 07  08 09 0A 0B 0C 0D 0E 0F
      -- -- -- -- -- -- -- --  -- -- -- -- -- -- -- --
0190:                   5F 07  F8 FF FF 7F F8 FF FF 7F        _.........
01A0: 74 68 6B 30 00                                    thk0.           
```

#### Opcodes

```
  0: 0x0196 [0x5F] MULTI_HANDLER_COMPLEX(mode=0x07 - Wait scheduler task (OpCode 0x53))
  1: 0x01A4 [0x00] END_REQSTACK()
```

### Event 65535.27

#### Metadata

| Field        | Value    |
|--------------|----------|
| Entrypoint   | 0x01A5   |
| Data Size    | 16 bytes |
| Instructions | 2        |

```
      00 01 02 03 04 05 06 07  08 09 0A 0B 0C 0D 0E 0F
      -- -- -- -- -- -- -- --  -- -- -- -- -- -- -- --
01A0:                5B 17 80  F8 FF FF 7F F8 FF FF 7F       [..........
01B0: 74 68 6B 31 00                                    thk1.           
```

#### Opcodes

```
  0: 0x01A5 [0x5B] LOAD_EXT_SCHEDULER: Load scheduler "thk1" with entities [EventEntity, EventEntity], work=3291*
  1: 0x01B4 [0x00] END_REQSTACK()
```

### Event 65535.28

#### Metadata

| Field        | Value    |
|--------------|----------|
| Entrypoint   | 0x01B5   |
| Data Size    | 14 bytes |
| Instructions | 2        |

```
      00 01 02 03 04 05 06 07  08 09 0A 0B 0C 0D 0E 0F
      -- -- -- -- -- -- -- --  -- -- -- -- -- -- -- --
01B0:                53 F8 FF  FF 7F F8 FF FF 7F 74 68       S........th
01C0: 6B 31 00                                          k1.             
```

#### Opcodes

```
  0: 0x01B5 [0x53] WAIT_SCHEDULER_TASK: Wait for scheduler "thk1" with entities [EventEntity, EventEntity]
  1: 0x01C2 [0x00] END_REQSTACK()
```

### Event 65535.29

#### Metadata

| Field        | Value    |
|--------------|----------|
| Entrypoint   | 0x01C3   |
| Data Size    | 19 bytes |
| Instructions | 2        |

```
      00 01 02 03 04 05 06 07  08 09 0A 0B 0C 0D 0E 0F
      -- -- -- -- -- -- -- --  -- -- -- -- -- -- -- --
01C0:          5F 05 17 80 F8  FF FF 7F F8 FF FF 7F 79     _...........y
01D0: 65 73 30 1A 80 00                                 es0...          
```

#### Opcodes

```
  0: 0x01C3 [0x5F] MULTI_HANDLER_COMPLEX(mode=0x05 - Load ext scheduler with flag (OpCode 0x5B mode 0, flag 1), ref=3291*, entity1=EventEntity, entity2=EventEntity, string="yes0", extra=170*)
  1: 0x01D5 [0x00] END_REQSTACK()
```

### Event 65535.30

#### Metadata

| Field        | Value    |
|--------------|----------|
| Entrypoint   | 0x01D6   |
| Data Size    | 15 bytes |
| Instructions | 2        |

```
      00 01 02 03 04 05 06 07  08 09 0A 0B 0C 0D 0E 0F
      -- -- -- -- -- -- -- --  -- -- -- -- -- -- -- --
01D0:                   5F 07  F8 FF FF 7F F8 FF FF 7F        _.........
01E0: 79 65 73 30 00                                    yes0.           
```

#### Opcodes

```
  0: 0x01D6 [0x5F] MULTI_HANDLER_COMPLEX(mode=0x07 - Wait scheduler task (OpCode 0x53))
  1: 0x01E4 [0x00] END_REQSTACK()
```

### Event 65535.31

#### Metadata

| Field        | Value    |
|--------------|----------|
| Entrypoint   | 0x01E5   |
| Data Size    | 19 bytes |
| Instructions | 2        |

```
      00 01 02 03 04 05 06 07  08 09 0A 0B 0C 0D 0E 0F
      -- -- -- -- -- -- -- --  -- -- -- -- -- -- -- --
01E0:                5F 05 17  80 F8 FF FF 7F F8 FF FF       _..........
01F0: 7F 6E 6F 6E 30 1A 80 00                           .non0...        
```

#### Opcodes

```
  0: 0x01E5 [0x5F] MULTI_HANDLER_COMPLEX(mode=0x05 - Load ext scheduler with flag (OpCode 0x5B mode 0, flag 1), ref=3291*, entity1=EventEntity, entity2=EventEntity, string="non0", extra=170*)
  1: 0x01F7 [0x00] END_REQSTACK()
```

### Event 65535.32

#### Metadata

| Field        | Value    |
|--------------|----------|
| Entrypoint   | 0x01F8   |
| Data Size    | 15 bytes |
| Instructions | 2        |

```
      00 01 02 03 04 05 06 07  08 09 0A 0B 0C 0D 0E 0F
      -- -- -- -- -- -- -- --  -- -- -- -- -- -- -- --
01F0:                          5F 07 F8 FF FF 7F F8 FF          _.......
0200: FF 7F 6E 6F 6E 30 00                              ..non0.         
```

#### Opcodes

```
  0: 0x01F8 [0x5F] MULTI_HANDLER_COMPLEX(mode=0x07 - Wait scheduler task (OpCode 0x53))
  1: 0x0206 [0x00] END_REQSTACK()
```

### Event 65535.33

#### Metadata

| Field        | Value    |
|--------------|----------|
| Entrypoint   | 0x0207   |
| Data Size    | 19 bytes |
| Instructions | 2        |

```
      00 01 02 03 04 05 06 07  08 09 0A 0B 0C 0D 0E 0F
      -- -- -- -- -- -- -- --  -- -- -- -- -- -- -- --
0200:                      5F  05 17 80 F8 FF FF 7F F8         _........
0210: FF FF 7F 6B 61 6D 30 19  80 00                    ...kam0...      
```

#### Opcodes

```
  0: 0x0207 [0x5F] MULTI_HANDLER_COMPLEX(mode=0x05 - Load ext scheduler with flag (OpCode 0x5B mode 0, flag 1), ref=3291*, entity1=EventEntity, entity2=EventEntity, string="kam0", extra=120*)
  1: 0x0219 [0x00] END_REQSTACK()
```

### Event 65535.34

#### Metadata

| Field        | Value    |
|--------------|----------|
| Entrypoint   | 0x021A   |
| Data Size    | 15 bytes |
| Instructions | 2        |

```
      00 01 02 03 04 05 06 07  08 09 0A 0B 0C 0D 0E 0F
      -- -- -- -- -- -- -- --  -- -- -- -- -- -- -- --
0210:                                5F 07 F8 FF FF 7F            _.....
0220: F8 FF FF 7F 6B 61 6D 30  00                       ....kam0.       
```

#### Opcodes

```
  0: 0x021A [0x5F] MULTI_HANDLER_COMPLEX(mode=0x07 - Wait scheduler task (OpCode 0x53))
  1: 0x0228 [0x00] END_REQSTACK()
```

### Event 65535.35

#### Metadata

| Field        | Value    |
|--------------|----------|
| Entrypoint   | 0x0229   |
| Data Size    | 16 bytes |
| Instructions | 2        |

```
      00 01 02 03 04 05 06 07  08 09 0A 0B 0C 0D 0E 0F
      -- -- -- -- -- -- -- --  -- -- -- -- -- -- -- --
0220:                             5B 17 80 F8 FF FF 7F           [......
0230: F8 FF FF 7F 6B 61 6D 31  00                       ....kam1.       
```

#### Opcodes

```
  0: 0x0229 [0x5B] LOAD_EXT_SCHEDULER: Load scheduler "kam1" with entities [EventEntity, EventEntity], work=3291*
  1: 0x0238 [0x00] END_REQSTACK()
```

### Event 65535.36

#### Metadata

| Field        | Value    |
|--------------|----------|
| Entrypoint   | 0x0239   |
| Data Size    | 14 bytes |
| Instructions | 2        |

```
      00 01 02 03 04 05 06 07  08 09 0A 0B 0C 0D 0E 0F
      -- -- -- -- -- -- -- --  -- -- -- -- -- -- -- --
0230:                             53 F8 FF FF 7F F8 FF           S......
0240: FF 7F 6B 61 6D 31 00                              ..kam1.         
```

#### Opcodes

```
  0: 0x0239 [0x53] WAIT_SCHEDULER_TASK: Wait for scheduler "kam1" with entities [EventEntity, EventEntity]
  1: 0x0246 [0x00] END_REQSTACK()
```

### Event 65535.37

#### Metadata

| Field        | Value    |
|--------------|----------|
| Entrypoint   | 0x0247   |
| Data Size    | 19 bytes |
| Instructions | 2        |

```
      00 01 02 03 04 05 06 07  08 09 0A 0B 0C 0D 0E 0F
      -- -- -- -- -- -- -- --  -- -- -- -- -- -- -- --
0240:                      5F  05 1B 80 F8 FF FF 7F F8         _........
0250: FF FF 7F 79 72 61 30 1C  80 00                    ...yra0...      
```

#### Opcodes

```
  0: 0x0247 [0x5F] MULTI_HANDLER_COMPLEX(mode=0x05 - Load ext scheduler with flag (OpCode 0x5B mode 0, flag 1), ref=3292*, entity1=EventEntity, entity2=EventEntity, string="yra0", extra=140*)
  1: 0x0259 [0x00] END_REQSTACK()
```

### Event 65535.38

#### Metadata

| Field        | Value    |
|--------------|----------|
| Entrypoint   | 0x025A   |
| Data Size    | 15 bytes |
| Instructions | 2        |

```
      00 01 02 03 04 05 06 07  08 09 0A 0B 0C 0D 0E 0F
      -- -- -- -- -- -- -- --  -- -- -- -- -- -- -- --
0250:                                5F 07 F8 FF FF 7F            _.....
0260: F8 FF FF 7F 79 72 61 30  00                       ....yra0.       
```

#### Opcodes

```
  0: 0x025A [0x5F] MULTI_HANDLER_COMPLEX(mode=0x07 - Wait scheduler task (OpCode 0x53))
  1: 0x0268 [0x00] END_REQSTACK()
```

### Event 65535.39

#### Metadata

| Field        | Value    |
|--------------|----------|
| Entrypoint   | 0x0269   |
| Data Size    | 19 bytes |
| Instructions | 2        |

```
      00 01 02 03 04 05 06 07  08 09 0A 0B 0C 0D 0E 0F
      -- -- -- -- -- -- -- --  -- -- -- -- -- -- -- --
0260:                             5F 05 1B 80 F8 FF FF           _......
0270: 7F F8 FF FF 7F 79 72 61  31 1D 80 00              .....yra1...    
```

#### Opcodes

```
  0: 0x0269 [0x5F] MULTI_HANDLER_COMPLEX(mode=0x05 - Load ext scheduler with flag (OpCode 0x5B mode 0, flag 1), ref=3292*, entity1=EventEntity, entity2=EventEntity, string="yra1", extra=150*)
  1: 0x027B [0x00] END_REQSTACK()
```

### Event 65535.40

#### Metadata

| Field        | Value    |
|--------------|----------|
| Entrypoint   | 0x027C   |
| Data Size    | 15 bytes |
| Instructions | 2        |

```
      00 01 02 03 04 05 06 07  08 09 0A 0B 0C 0D 0E 0F
      -- -- -- -- -- -- -- --  -- -- -- -- -- -- -- --
0270:                                      5F 07 F8 FF              _...
0280: FF 7F F8 FF FF 7F 79 72  61 31 00                 ......yra1.     
```

#### Opcodes

```
  0: 0x027C [0x5F] MULTI_HANDLER_COMPLEX(mode=0x07 - Wait scheduler task (OpCode 0x53))
  1: 0x028A [0x00] END_REQSTACK()
```

### Event 65535.41

#### Metadata

| Field        | Value    |
|--------------|----------|
| Entrypoint   | 0x028B   |
| Data Size    | 25 bytes |
| Instructions | 3        |

```
      00 01 02 03 04 05 06 07  08 09 0A 0B 0C 0D 0E 0F
      -- -- -- -- -- -- -- --  -- -- -- -- -- -- -- --
0280:                                   81 00 F8 FF FF             .....
0290: 7F 5F 05 1B 80 F8 FF FF  7F F8 FF FF 7F 79 72 62  ._...........yrb
02A0: 30 1C 80 00                                       0...            
```

#### Opcodes

```
  0: 0x028B [0x81] SET_ENTITY_BLINKING(blink_flag=0x00, entity=EventEntity)
  1: 0x0291 [0x5F] MULTI_HANDLER_COMPLEX(mode=0x05 - Load ext scheduler with flag (OpCode 0x5B mode 0, flag 1), ref=3292*, entity1=EventEntity, entity2=EventEntity, string="yrb0", extra=140*)
  2: 0x02A3 [0x00] END_REQSTACK()
```

### Event 65535.42

#### Metadata

| Field        | Value    |
|--------------|----------|
| Entrypoint   | 0x02A4   |
| Data Size    | 15 bytes |
| Instructions | 2        |

```
      00 01 02 03 04 05 06 07  08 09 0A 0B 0C 0D 0E 0F
      -- -- -- -- -- -- -- --  -- -- -- -- -- -- -- --
02A0:             5F 07 F8 FF  FF 7F F8 FF FF 7F 79 72      _.........yr
02B0: 62 30 00                                          b0.             
```

#### Opcodes

```
  0: 0x02A4 [0x5F] MULTI_HANDLER_COMPLEX(mode=0x07 - Wait scheduler task (OpCode 0x53))
  1: 0x02B2 [0x00] END_REQSTACK()
```

### Event 65535.43

#### Metadata

| Field        | Value    |
|--------------|----------|
| Entrypoint   | 0x02B3   |
| Data Size    | 16 bytes |
| Instructions | 2        |

```
      00 01 02 03 04 05 06 07  08 09 0A 0B 0C 0D 0E 0F
      -- -- -- -- -- -- -- --  -- -- -- -- -- -- -- --
02B0:          5B 1B 80 F8 FF  FF 7F F8 FF FF 7F 79 72     [..........yr
02C0: 62 31 00                                          b1.             
```

#### Opcodes

```
  0: 0x02B3 [0x5B] LOAD_EXT_SCHEDULER: Load scheduler "yrb1" with entities [EventEntity, EventEntity], work=3292*
  1: 0x02C2 [0x00] END_REQSTACK()
```

### Event 65535.44

#### Metadata

| Field        | Value    |
|--------------|----------|
| Entrypoint   | 0x02C3   |
| Data Size    | 20 bytes |
| Instructions | 3        |

```
      00 01 02 03 04 05 06 07  08 09 0A 0B 0C 0D 0E 0F
      -- -- -- -- -- -- -- --  -- -- -- -- -- -- -- --
02C0:          53 F8 FF FF 7F  F8 FF FF 7F 79 72 62 31     S........yrb1
02D0: 81 01 F8 FF FF 7F 00                              .......         
```

#### Opcodes

```
  0: 0x02C3 [0x53] WAIT_SCHEDULER_TASK: Wait for scheduler "yrb1" with entities [EventEntity, EventEntity]
  1: 0x02D0 [0x81] SET_ENTITY_BLINKING(blink_flag=0x01, entity=EventEntity)
  2: 0x02D6 [0x00] END_REQSTACK()
```

### Event 65535.45

#### Metadata

| Field        | Value    |
|--------------|----------|
| Entrypoint   | 0x02D7   |
| Data Size    | 19 bytes |
| Instructions | 2        |

```
      00 01 02 03 04 05 06 07  08 09 0A 0B 0C 0D 0E 0F
      -- -- -- -- -- -- -- --  -- -- -- -- -- -- -- --
02D0:                      5F  05 1B 80 F8 FF FF 7F F8         _........
02E0: FF FF 7F 6A 72 6F 30 1E  80 00                    ...jro0...      
```

#### Opcodes

```
  0: 0x02D7 [0x5F] MULTI_HANDLER_COMPLEX(mode=0x05 - Load ext scheduler with flag (OpCode 0x5B mode 0, flag 1), ref=3292*, entity1=EventEntity, entity2=EventEntity, string="jro0", extra=380*)
  1: 0x02E9 [0x00] END_REQSTACK()
```

### Event 65535.46

#### Metadata

| Field        | Value    |
|--------------|----------|
| Entrypoint   | 0x02EA   |
| Data Size    | 15 bytes |
| Instructions | 2        |

```
      00 01 02 03 04 05 06 07  08 09 0A 0B 0C 0D 0E 0F
      -- -- -- -- -- -- -- --  -- -- -- -- -- -- -- --
02E0:                                5F 07 F8 FF FF 7F            _.....
02F0: F8 FF FF 7F 6A 72 6F 30  00                       ....jro0.       
```

#### Opcodes

```
  0: 0x02EA [0x5F] MULTI_HANDLER_COMPLEX(mode=0x07 - Wait scheduler task (OpCode 0x53))
  1: 0x02F8 [0x00] END_REQSTACK()
```

### Event 65535.47

#### Metadata

| Field        | Value    |
|--------------|----------|
| Entrypoint   | 0x02F9   |
| Data Size    | 16 bytes |
| Instructions | 2        |

```
      00 01 02 03 04 05 06 07  08 09 0A 0B 0C 0D 0E 0F
      -- -- -- -- -- -- -- --  -- -- -- -- -- -- -- --
02F0:                             5B 1B 80 F8 FF FF 7F           [......
0300: F8 FF FF 7F 6A 72 6F 31  00                       ....jro1.       
```

#### Opcodes

```
  0: 0x02F9 [0x5B] LOAD_EXT_SCHEDULER: Load scheduler "jro1" with entities [EventEntity, EventEntity], work=3292*
  1: 0x0308 [0x00] END_REQSTACK()
```

### Event 65535.48

#### Metadata

| Field        | Value    |
|--------------|----------|
| Entrypoint   | 0x0309   |
| Data Size    | 14 bytes |
| Instructions | 2        |

```
      00 01 02 03 04 05 06 07  08 09 0A 0B 0C 0D 0E 0F
      -- -- -- -- -- -- -- --  -- -- -- -- -- -- -- --
0300:                             53 F8 FF FF 7F F8 FF           S......
0310: FF 7F 6A 72 6F 31 00                              ..jro1.         
```

#### Opcodes

```
  0: 0x0309 [0x53] WAIT_SCHEDULER_TASK: Wait for scheduler "jro1" with entities [EventEntity, EventEntity]
  1: 0x0316 [0x00] END_REQSTACK()
```

### Event 65535.49

#### Metadata

| Field        | Value    |
|--------------|----------|
| Entrypoint   | 0x0317   |
| Data Size    | 19 bytes |
| Instructions | 2        |

```
      00 01 02 03 04 05 06 07  08 09 0A 0B 0C 0D 0E 0F
      -- -- -- -- -- -- -- --  -- -- -- -- -- -- -- --
0310:                      5F  05 1F 80 F8 FF FF 7F F8         _........
0320: FF FF 7F 74 6C 61 30 20  80 00                    ...tla0 ..      
```

#### Opcodes

```
  0: 0x0317 [0x5F] MULTI_HANDLER_COMPLEX(mode=0x05 - Load ext scheduler with flag (OpCode 0x5B mode 0, flag 1), ref=3293*, entity1=EventEntity, entity2=EventEntity, string="tla0", extra=130*)
  1: 0x0329 [0x00] END_REQSTACK()
```

### Event 65535.50

#### Metadata

| Field        | Value    |
|--------------|----------|
| Entrypoint   | 0x032A   |
| Data Size    | 15 bytes |
| Instructions | 2        |

```
      00 01 02 03 04 05 06 07  08 09 0A 0B 0C 0D 0E 0F
      -- -- -- -- -- -- -- --  -- -- -- -- -- -- -- --
0320:                                5F 07 F8 FF FF 7F            _.....
0330: F8 FF FF 7F 74 6C 61 30  00                       ....tla0.       
```

#### Opcodes

```
  0: 0x032A [0x5F] MULTI_HANDLER_COMPLEX(mode=0x07 - Wait scheduler task (OpCode 0x53))
  1: 0x0338 [0x00] END_REQSTACK()
```

### Event 65535.51

#### Metadata

| Field        | Value    |
|--------------|----------|
| Entrypoint   | 0x0339   |
| Data Size    | 16 bytes |
| Instructions | 2        |

```
      00 01 02 03 04 05 06 07  08 09 0A 0B 0C 0D 0E 0F
      -- -- -- -- -- -- -- --  -- -- -- -- -- -- -- --
0330:                             5B 1F 80 F8 FF FF 7F           [......
0340: F8 FF FF 7F 74 6C 61 31  00                       ....tla1.       
```

#### Opcodes

```
  0: 0x0339 [0x5B] LOAD_EXT_SCHEDULER: Load scheduler "tla1" with entities [EventEntity, EventEntity], work=3293*
  1: 0x0348 [0x00] END_REQSTACK()
```

### Event 65535.52

#### Metadata

| Field        | Value    |
|--------------|----------|
| Entrypoint   | 0x0349   |
| Data Size    | 14 bytes |
| Instructions | 2        |

```
      00 01 02 03 04 05 06 07  08 09 0A 0B 0C 0D 0E 0F
      -- -- -- -- -- -- -- --  -- -- -- -- -- -- -- --
0340:                             53 F8 FF FF 7F F8 FF           S......
0350: FF 7F 74 6C 61 31 00                              ..tla1.         
```

#### Opcodes

```
  0: 0x0349 [0x53] WAIT_SCHEDULER_TASK: Wait for scheduler "tla1" with entities [EventEntity, EventEntity]
  1: 0x0356 [0x00] END_REQSTACK()
```

### Event 65535.53

#### Metadata

| Field        | Value    |
|--------------|----------|
| Entrypoint   | 0x0357   |
| Data Size    | 19 bytes |
| Instructions | 2        |

```
      00 01 02 03 04 05 06 07  08 09 0A 0B 0C 0D 0E 0F
      -- -- -- -- -- -- -- --  -- -- -- -- -- -- -- --
0350:                      5F  05 1F 80 F8 FF FF 7F F8         _........
0360: FF FF 7F 74 6C 61 32 1C  80 00                    ...tla2...      
```

#### Opcodes

```
  0: 0x0357 [0x5F] MULTI_HANDLER_COMPLEX(mode=0x05 - Load ext scheduler with flag (OpCode 0x5B mode 0, flag 1), ref=3293*, entity1=EventEntity, entity2=EventEntity, string="tla2", extra=140*)
  1: 0x0369 [0x00] END_REQSTACK()
```

### Event 65535.54

#### Metadata

| Field        | Value    |
|--------------|----------|
| Entrypoint   | 0x036A   |
| Data Size    | 15 bytes |
| Instructions | 2        |

```
      00 01 02 03 04 05 06 07  08 09 0A 0B 0C 0D 0E 0F
      -- -- -- -- -- -- -- --  -- -- -- -- -- -- -- --
0360:                                5F 07 F8 FF FF 7F            _.....
0370: F8 FF FF 7F 74 6C 61 32  00                       ....tla2.       
```

#### Opcodes

```
  0: 0x036A [0x5F] MULTI_HANDLER_COMPLEX(mode=0x07 - Wait scheduler task (OpCode 0x53))
  1: 0x0378 [0x00] END_REQSTACK()
```

### Event 65535.55

#### Metadata

| Field        | Value    |
|--------------|----------|
| Entrypoint   | 0x0379   |
| Data Size    | 19 bytes |
| Instructions | 2        |

```
      00 01 02 03 04 05 06 07  08 09 0A 0B 0C 0D 0E 0F
      -- -- -- -- -- -- -- --  -- -- -- -- -- -- -- --
0370:                             5F 05 1F 80 F8 FF FF           _......
0380: 7F F8 FF FF 7F 61 70 69  30 20 80 00              .....api0 ..    
```

#### Opcodes

```
  0: 0x0379 [0x5F] MULTI_HANDLER_COMPLEX(mode=0x05 - Load ext scheduler with flag (OpCode 0x5B mode 0, flag 1), ref=3293*, entity1=EventEntity, entity2=EventEntity, string="api0", extra=130*)
  1: 0x038B [0x00] END_REQSTACK()
```

### Event 65535.56

#### Metadata

| Field        | Value    |
|--------------|----------|
| Entrypoint   | 0x038C   |
| Data Size    | 15 bytes |
| Instructions | 2        |

```
      00 01 02 03 04 05 06 07  08 09 0A 0B 0C 0D 0E 0F
      -- -- -- -- -- -- -- --  -- -- -- -- -- -- -- --
0380:                                      5F 07 F8 FF              _...
0390: FF 7F F8 FF FF 7F 61 70  69 30 00                 ......api0.     
```

#### Opcodes

```
  0: 0x038C [0x5F] MULTI_HANDLER_COMPLEX(mode=0x07 - Wait scheduler task (OpCode 0x53))
  1: 0x039A [0x00] END_REQSTACK()
```

### Event 65535.57

#### Metadata

| Field        | Value    |
|--------------|----------|
| Entrypoint   | 0x039B   |
| Data Size    | 16 bytes |
| Instructions | 2        |

```
      00 01 02 03 04 05 06 07  08 09 0A 0B 0C 0D 0E 0F
      -- -- -- -- -- -- -- --  -- -- -- -- -- -- -- --
0390:                                   5B 1F 80 F8 FF             [....
03A0: FF 7F F8 FF FF 7F 61 70  69 31 00                 ......api1.     
```

#### Opcodes

```
  0: 0x039B [0x5B] LOAD_EXT_SCHEDULER: Load scheduler "api1" with entities [EventEntity, EventEntity], work=3293*
  1: 0x03AA [0x00] END_REQSTACK()
```

### Event 65535.58

#### Metadata

| Field        | Value    |
|--------------|----------|
| Entrypoint   | 0x03AB   |
| Data Size    | 14 bytes |
| Instructions | 2        |

```
      00 01 02 03 04 05 06 07  08 09 0A 0B 0C 0D 0E 0F
      -- -- -- -- -- -- -- --  -- -- -- -- -- -- -- --
03A0:                                   53 F8 FF FF 7F             S....
03B0: F8 FF FF 7F 61 70 69 31  00                       ....api1.       
```

#### Opcodes

```
  0: 0x03AB [0x53] WAIT_SCHEDULER_TASK: Wait for scheduler "api1" with entities [EventEntity, EventEntity]
  1: 0x03B8 [0x00] END_REQSTACK()
```

### Event 65535.59

#### Metadata

| Field        | Value    |
|--------------|----------|
| Entrypoint   | 0x03B9   |
| Data Size    | 19 bytes |
| Instructions | 2        |

```
      00 01 02 03 04 05 06 07  08 09 0A 0B 0C 0D 0E 0F
      -- -- -- -- -- -- -- --  -- -- -- -- -- -- -- --
03B0:                             5F 05 1F 80 F8 FF FF           _......
03C0: 7F F8 FF FF 7F 6B 65 69  30 21 80 00              .....kei0!..    
```

#### Opcodes

```
  0: 0x03B9 [0x5F] MULTI_HANDLER_COMPLEX(mode=0x05 - Load ext scheduler with flag (OpCode 0x5B mode 0, flag 1), ref=3293*, entity1=EventEntity, entity2=EventEntity, string="kei0", extra=300*)
  1: 0x03CB [0x00] END_REQSTACK()
```

### Event 65535.60

#### Metadata

| Field        | Value    |
|--------------|----------|
| Entrypoint   | 0x03CC   |
| Data Size    | 15 bytes |
| Instructions | 2        |

```
      00 01 02 03 04 05 06 07  08 09 0A 0B 0C 0D 0E 0F
      -- -- -- -- -- -- -- --  -- -- -- -- -- -- -- --
03C0:                                      5F 07 F8 FF              _...
03D0: FF 7F F8 FF FF 7F 6B 65  69 30 00                 ......kei0.     
```

#### Opcodes

```
  0: 0x03CC [0x5F] MULTI_HANDLER_COMPLEX(mode=0x07 - Wait scheduler task (OpCode 0x53))
  1: 0x03DA [0x00] END_REQSTACK()
```

### Event 65535.61

#### Metadata

| Field        | Value    |
|--------------|----------|
| Entrypoint   | 0x03DB   |
| Data Size    | 19 bytes |
| Instructions | 2        |

```
      00 01 02 03 04 05 06 07  08 09 0A 0B 0C 0D 0E 0F
      -- -- -- -- -- -- -- --  -- -- -- -- -- -- -- --
03D0:                                   5F 05 1F 80 F8             _....
03E0: FF FF 7F F8 FF FF 7F 70  6F 69 30 1D 80 00        .......poi0...  
```

#### Opcodes

```
  0: 0x03DB [0x5F] MULTI_HANDLER_COMPLEX(mode=0x05 - Load ext scheduler with flag (OpCode 0x5B mode 0, flag 1), ref=3293*, entity1=EventEntity, entity2=EventEntity, string="poi0", extra=150*)
  1: 0x03ED [0x00] END_REQSTACK()
```

### Event 65535.62

#### Metadata

| Field        | Value    |
|--------------|----------|
| Entrypoint   | 0x03EE   |
| Data Size    | 15 bytes |
| Instructions | 2        |

```
      00 01 02 03 04 05 06 07  08 09 0A 0B 0C 0D 0E 0F
      -- -- -- -- -- -- -- --  -- -- -- -- -- -- -- --
03E0:                                            5F 07                _.
03F0: F8 FF FF 7F F8 FF FF 7F  70 6F 69 30 00           ........poi0.   
```

#### Opcodes

```
  0: 0x03EE [0x5F] MULTI_HANDLER_COMPLEX(mode=0x07 - Wait scheduler task (OpCode 0x53))
  1: 0x03FC [0x00] END_REQSTACK()
```

### Event 65535.63

#### Metadata

| Field        | Value    |
|--------------|----------|
| Entrypoint   | 0x03FD   |
| Data Size    | 16 bytes |
| Instructions | 2        |

```
      00 01 02 03 04 05 06 07  08 09 0A 0B 0C 0D 0E 0F
      -- -- -- -- -- -- -- --  -- -- -- -- -- -- -- --
03F0:                                         5B 1F 80               [..
0400: F8 FF FF 7F F8 FF FF 7F  70 6F 69 31 00           ........poi1.   
```

#### Opcodes

```
  0: 0x03FD [0x5B] LOAD_EXT_SCHEDULER: Load scheduler "poi1" with entities [EventEntity, EventEntity], work=3293*
  1: 0x040C [0x00] END_REQSTACK()
```

### Event 65535.64

#### Metadata

| Field        | Value    |
|--------------|----------|
| Entrypoint   | 0x040D   |
| Data Size    | 14 bytes |
| Instructions | 2        |

```
      00 01 02 03 04 05 06 07  08 09 0A 0B 0C 0D 0E 0F
      -- -- -- -- -- -- -- --  -- -- -- -- -- -- -- --
0400:                                         53 F8 FF               S..
0410: FF 7F F8 FF FF 7F 70 6F  69 31 00                 ......poi1.     
```

#### Opcodes

```
  0: 0x040D [0x53] WAIT_SCHEDULER_TASK: Wait for scheduler "poi1" with entities [EventEntity, EventEntity]
  1: 0x041A [0x00] END_REQSTACK()
```

### Event 65535.65

#### Metadata

| Field        | Value    |
|--------------|----------|
| Entrypoint   | 0x041B   |
| Data Size    | 16 bytes |
| Instructions | 2        |

```
      00 01 02 03 04 05 06 07  08 09 0A 0B 0C 0D 0E 0F
      -- -- -- -- -- -- -- --  -- -- -- -- -- -- -- --
0410:                                   5B 22 80 F8 FF             ["...
0420: FF 7F F8 FF FF 7F 75 74  75 30 00                 ......utu0.     
```

#### Opcodes

```
  0: 0x041B [0x5B] LOAD_EXT_SCHEDULER: Load scheduler "utu0" with entities [EventEntity, EventEntity], work=3406*
  1: 0x042A [0x00] END_REQSTACK()
```

### Event 65535.66

#### Metadata

| Field        | Value    |
|--------------|----------|
| Entrypoint   | 0x042B   |
| Data Size    | 14 bytes |
| Instructions | 2        |

```
      00 01 02 03 04 05 06 07  08 09 0A 0B 0C 0D 0E 0F
      -- -- -- -- -- -- -- --  -- -- -- -- -- -- -- --
0420:                                   53 F8 FF FF 7F             S....
0430: F8 FF FF 7F 75 74 75 30  00                       ....utu0.       
```

#### Opcodes

```
  0: 0x042B [0x53] WAIT_SCHEDULER_TASK: Wait for scheduler "utu0" with entities [EventEntity, EventEntity]
  1: 0x0438 [0x00] END_REQSTACK()
```

### Event 65535.67

#### Metadata

| Field        | Value    |
|--------------|----------|
| Entrypoint   | 0x0439   |
| Data Size    | 19 bytes |
| Instructions | 2        |

```
      00 01 02 03 04 05 06 07  08 09 0A 0B 0C 0D 0E 0F
      -- -- -- -- -- -- -- --  -- -- -- -- -- -- -- --
0430:                             5F 05 23 80 F8 FF FF           _.#....
0440: 7F F8 FF FF 7F 75 6B 65  30 24 80 00              .....uke0$..    
```

#### Opcodes

```
  0: 0x0439 [0x5F] MULTI_HANDLER_COMPLEX(mode=0x05 - Load ext scheduler with flag (OpCode 0x5B mode 0, flag 1), ref=3409*, entity1=EventEntity, entity2=EventEntity, string="uke0", extra=200*)
  1: 0x044B [0x00] END_REQSTACK()
```

### Event 65535.68

#### Metadata

| Field        | Value    |
|--------------|----------|
| Entrypoint   | 0x044C   |
| Data Size    | 15 bytes |
| Instructions | 2        |

```
      00 01 02 03 04 05 06 07  08 09 0A 0B 0C 0D 0E 0F
      -- -- -- -- -- -- -- --  -- -- -- -- -- -- -- --
0440:                                      5F 07 F8 FF              _...
0450: FF 7F F8 FF FF 7F 75 6B  65 30 00                 ......uke0.     
```

#### Opcodes

```
  0: 0x044C [0x5F] MULTI_HANDLER_COMPLEX(mode=0x07 - Wait scheduler task (OpCode 0x53))
  1: 0x045A [0x00] END_REQSTACK()
```

### Event 65535.69

#### Metadata

| Field        | Value    |
|--------------|----------|
| Entrypoint   | 0x045B   |
| Data Size    | 19 bytes |
| Instructions | 2        |

```
      00 01 02 03 04 05 06 07  08 09 0A 0B 0C 0D 0E 0F
      -- -- -- -- -- -- -- --  -- -- -- -- -- -- -- --
0450:                                   5F 05 23 80 F8             _.#..
0460: FF FF 7F F8 FF FF 7F 75  6B 65 31 1D 80 00        .......uke1...  
```

#### Opcodes

```
  0: 0x045B [0x5F] MULTI_HANDLER_COMPLEX(mode=0x05 - Load ext scheduler with flag (OpCode 0x5B mode 0, flag 1), ref=3409*, entity1=EventEntity, entity2=EventEntity, string="uke1", extra=150*)
  1: 0x046D [0x00] END_REQSTACK()
```

### Event 65535.70

#### Metadata

| Field        | Value    |
|--------------|----------|
| Entrypoint   | 0x046E   |
| Data Size    | 15 bytes |
| Instructions | 2        |

```
      00 01 02 03 04 05 06 07  08 09 0A 0B 0C 0D 0E 0F
      -- -- -- -- -- -- -- --  -- -- -- -- -- -- -- --
0460:                                            5F 07                _.
0470: F8 FF FF 7F F8 FF FF 7F  75 6B 65 31 00           ........uke1.   
```

#### Opcodes

```
  0: 0x046E [0x5F] MULTI_HANDLER_COMPLEX(mode=0x07 - Wait scheduler task (OpCode 0x53))
  1: 0x047C [0x00] END_REQSTACK()
```

### Event 65535.71

#### Metadata

| Field        | Value    |
|--------------|----------|
| Entrypoint   | 0x047D   |
| Data Size    | 19 bytes |
| Instructions | 2        |

```
      00 01 02 03 04 05 06 07  08 09 0A 0B 0C 0D 0E 0F
      -- -- -- -- -- -- -- --  -- -- -- -- -- -- -- --
0470:                                         5F 05 25               _.%
0480: 80 F8 FF FF 7F F8 FF FF  7F 6F 64 6F 30 26 80 00  .........odo0&..
```

#### Opcodes

```
  0: 0x047D [0x5F] MULTI_HANDLER_COMPLEX(mode=0x05 - Load ext scheduler with flag (OpCode 0x5B mode 0, flag 1), ref=3295*, entity1=EventEntity, entity2=EventEntity, string="odo0", extra=90*)
  1: 0x048F [0x00] END_REQSTACK()
```

### Event 65535.72

#### Metadata

| Field        | Value    |
|--------------|----------|
| Entrypoint   | 0x0490   |
| Data Size    | 15 bytes |
| Instructions | 2        |

```
      00 01 02 03 04 05 06 07  08 09 0A 0B 0C 0D 0E 0F
      -- -- -- -- -- -- -- --  -- -- -- -- -- -- -- --
0490: 5F 07 F8 FF FF 7F F8 FF  FF 7F 6F 64 6F 30 00     _.........odo0. 
```

#### Opcodes

```
  0: 0x0490 [0x5F] MULTI_HANDLER_COMPLEX(mode=0x07 - Wait scheduler task (OpCode 0x53))
  1: 0x049E [0x00] END_REQSTACK()
```

### Event 65535.73

#### Metadata

| Field        | Value    |
|--------------|----------|
| Entrypoint   | 0x049F   |
| Data Size    | 19 bytes |
| Instructions | 2        |

```
      00 01 02 03 04 05 06 07  08 09 0A 0B 0C 0D 0E 0F
      -- -- -- -- -- -- -- --  -- -- -- -- -- -- -- --
0490:                                               5F                 _
04A0: 05 27 80 F8 FF FF 7F F8  FF FF 7F 6D 69 67 30 20  .'.........mig0 
04B0: 80 00                                             ..              
```

#### Opcodes

```
  0: 0x049F [0x5F] MULTI_HANDLER_COMPLEX(mode=0x05 - Load ext scheduler with flag (OpCode 0x5B mode 0, flag 1), ref=3854*, entity1=EventEntity, entity2=EventEntity, string="mig0", extra=130*)
  1: 0x04B1 [0x00] END_REQSTACK()
```

### Event 65535.74

#### Metadata

| Field        | Value    |
|--------------|----------|
| Entrypoint   | 0x04B2   |
| Data Size    | 15 bytes |
| Instructions | 2        |

```
      00 01 02 03 04 05 06 07  08 09 0A 0B 0C 0D 0E 0F
      -- -- -- -- -- -- -- --  -- -- -- -- -- -- -- --
04B0:       5F 07 F8 FF FF 7F  F8 FF FF 7F 6D 69 67 30    _.........mig0
04C0: 00                                                .               
```

#### Opcodes

```
  0: 0x04B2 [0x5F] MULTI_HANDLER_COMPLEX(mode=0x07 - Wait scheduler task (OpCode 0x53))
  1: 0x04C0 [0x00] END_REQSTACK()
```

### Event 65535.75

#### Metadata

| Field        | Value    |
|--------------|----------|
| Entrypoint   | 0x04C1   |
| Data Size    | 19 bytes |
| Instructions | 2        |

```
      00 01 02 03 04 05 06 07  08 09 0A 0B 0C 0D 0E 0F
      -- -- -- -- -- -- -- --  -- -- -- -- -- -- -- --
04C0:    5F 05 27 80 F8 FF FF  7F F8 FF FF 7F 6D 69 67   _.'.........mig
04D0: 31 20 80 00                                       1 ..            
```

#### Opcodes

```
  0: 0x04C1 [0x5F] MULTI_HANDLER_COMPLEX(mode=0x05 - Load ext scheduler with flag (OpCode 0x5B mode 0, flag 1), ref=3854*, entity1=EventEntity, entity2=EventEntity, string="mig1", extra=130*)
  1: 0x04D3 [0x00] END_REQSTACK()
```

### Event 65535.76

#### Metadata

| Field        | Value    |
|--------------|----------|
| Entrypoint   | 0x04D4   |
| Data Size    | 15 bytes |
| Instructions | 2        |

```
      00 01 02 03 04 05 06 07  08 09 0A 0B 0C 0D 0E 0F
      -- -- -- -- -- -- -- --  -- -- -- -- -- -- -- --
04D0:             5F 07 F8 FF  FF 7F F8 FF FF 7F 6D 69      _.........mi
04E0: 67 31 00                                          g1.             
```

#### Opcodes

```
  0: 0x04D4 [0x5F] MULTI_HANDLER_COMPLEX(mode=0x07 - Wait scheduler task (OpCode 0x53))
  1: 0x04E2 [0x00] END_REQSTACK()
```

### Event 65535.77

#### Metadata

| Field        | Value    |
|--------------|----------|
| Entrypoint   | 0x04E3   |
| Data Size    | 19 bytes |
| Instructions | 2        |

```
      00 01 02 03 04 05 06 07  08 09 0A 0B 0C 0D 0E 0F
      -- -- -- -- -- -- -- --  -- -- -- -- -- -- -- --
04E0:          5F 05 27 80 F8  FF FF 7F F8 FF FF 7F 6D     _.'.........m
04F0: 69 67 32 28 80 00                                 ig2(..          
```

#### Opcodes

```
  0: 0x04E3 [0x5F] MULTI_HANDLER_COMPLEX(mode=0x05 - Load ext scheduler with flag (OpCode 0x5B mode 0, flag 1), ref=3854*, entity1=EventEntity, entity2=EventEntity, string="mig2", extra=330*)
  1: 0x04F5 [0x00] END_REQSTACK()
```

### Event 65535.78

#### Metadata

| Field        | Value    |
|--------------|----------|
| Entrypoint   | 0x04F6   |
| Data Size    | 15 bytes |
| Instructions | 2        |

```
      00 01 02 03 04 05 06 07  08 09 0A 0B 0C 0D 0E 0F
      -- -- -- -- -- -- -- --  -- -- -- -- -- -- -- --
04F0:                   5F 07  F8 FF FF 7F F8 FF FF 7F        _.........
0500: 6D 69 67 32 00                                    mig2.           
```

#### Opcodes

```
  0: 0x04F6 [0x5F] MULTI_HANDLER_COMPLEX(mode=0x07 - Wait scheduler task (OpCode 0x53))
  1: 0x0504 [0x00] END_REQSTACK()
```

### Event 65535.79

#### Metadata

| Field        | Value    |
|--------------|----------|
| Entrypoint   | 0x0505   |
| Data Size    | 16 bytes |
| Instructions | 2        |

```
      00 01 02 03 04 05 06 07  08 09 0A 0B 0C 0D 0E 0F
      -- -- -- -- -- -- -- --  -- -- -- -- -- -- -- --
0500:                5B 27 80  F8 FF FF 7F F8 FF FF 7F       ['.........
0510: 70 63 6D 30 00                                    pcm0.           
```

#### Opcodes

```
  0: 0x0505 [0x5B] LOAD_EXT_SCHEDULER: Load scheduler "pcm0" with entities [EventEntity, EventEntity], work=3854*
  1: 0x0514 [0x00] END_REQSTACK()
```

### Event 65535.80

#### Metadata

| Field        | Value    |
|--------------|----------|
| Entrypoint   | 0x0515   |
| Data Size    | 14 bytes |
| Instructions | 2        |

```
      00 01 02 03 04 05 06 07  08 09 0A 0B 0C 0D 0E 0F
      -- -- -- -- -- -- -- --  -- -- -- -- -- -- -- --
0510:                53 F8 FF  FF 7F F8 FF FF 7F 70 63       S........pc
0520: 6D 30 00                                          m0.             
```

#### Opcodes

```
  0: 0x0515 [0x53] WAIT_SCHEDULER_TASK: Wait for scheduler "pcm0" with entities [EventEntity, EventEntity]
  1: 0x0522 [0x00] END_REQSTACK()
```

### Event 65535.81

#### Metadata

| Field        | Value    |
|--------------|----------|
| Entrypoint   | 0x0523   |
| Data Size    | 19 bytes |
| Instructions | 2        |

```
      00 01 02 03 04 05 06 07  08 09 0A 0B 0C 0D 0E 0F
      -- -- -- -- -- -- -- --  -- -- -- -- -- -- -- --
0520:          5F 05 27 80 F8  FF FF 7F F8 FF FF 7F 70     _.'.........p
0530: 63 6D 31 20 80 00                                 cm1 ..          
```

#### Opcodes

```
  0: 0x0523 [0x5F] MULTI_HANDLER_COMPLEX(mode=0x05 - Load ext scheduler with flag (OpCode 0x5B mode 0, flag 1), ref=3854*, entity1=EventEntity, entity2=EventEntity, string="pcm1", extra=130*)
  1: 0x0535 [0x00] END_REQSTACK()
```

### Event 65535.82

#### Metadata

| Field        | Value    |
|--------------|----------|
| Entrypoint   | 0x0536   |
| Data Size    | 15 bytes |
| Instructions | 2        |

```
      00 01 02 03 04 05 06 07  08 09 0A 0B 0C 0D 0E 0F
      -- -- -- -- -- -- -- --  -- -- -- -- -- -- -- --
0530:                   5F 07  F8 FF FF 7F F8 FF FF 7F        _.........
0540: 70 63 6D 31 00                                    pcm1.           
```

#### Opcodes

```
  0: 0x0536 [0x5F] MULTI_HANDLER_COMPLEX(mode=0x07 - Wait scheduler task (OpCode 0x53))
  1: 0x0544 [0x00] END_REQSTACK()
```

### Event 65535.83

#### Metadata

| Field        | Value    |
|--------------|----------|
| Entrypoint   | 0x0545   |
| Data Size    | 19 bytes |
| Instructions | 2        |

```
      00 01 02 03 04 05 06 07  08 09 0A 0B 0C 0D 0E 0F
      -- -- -- -- -- -- -- --  -- -- -- -- -- -- -- --
0540:                5F 05 27  80 F8 FF FF 7F F8 FF FF       _.'........
0550: 7F 70 63 6D 32 20 80 00                           .pcm2 ..        
```

#### Opcodes

```
  0: 0x0545 [0x5F] MULTI_HANDLER_COMPLEX(mode=0x05 - Load ext scheduler with flag (OpCode 0x5B mode 0, flag 1), ref=3854*, entity1=EventEntity, entity2=EventEntity, string="pcm2", extra=130*)
  1: 0x0557 [0x00] END_REQSTACK()
```

### Event 65535.84

#### Metadata

| Field        | Value    |
|--------------|----------|
| Entrypoint   | 0x0558   |
| Data Size    | 15 bytes |
| Instructions | 2        |

```
      00 01 02 03 04 05 06 07  08 09 0A 0B 0C 0D 0E 0F
      -- -- -- -- -- -- -- --  -- -- -- -- -- -- -- --
0550:                          5F 07 F8 FF FF 7F F8 FF          _.......
0560: FF 7F 70 63 6D 32 00                              ..pcm2.         
```

#### Opcodes

```
  0: 0x0558 [0x5F] MULTI_HANDLER_COMPLEX(mode=0x07 - Wait scheduler task (OpCode 0x53))
  1: 0x0566 [0x00] END_REQSTACK()
```

### Event 65535.85

#### Metadata

| Field        | Value    |
|--------------|----------|
| Entrypoint   | 0x0567   |
| Data Size    | 19 bytes |
| Instructions | 2        |

```
      00 01 02 03 04 05 06 07  08 09 0A 0B 0C 0D 0E 0F
      -- -- -- -- -- -- -- --  -- -- -- -- -- -- -- --
0560:                      5F  05 27 80 F8 FF FF 7F F8         _.'......
0570: FF FF 7F 70 63 6D 33 29  80 00                    ...pcm3)..      
```

#### Opcodes

```
  0: 0x0567 [0x5F] MULTI_HANDLER_COMPLEX(mode=0x05 - Load ext scheduler with flag (OpCode 0x5B mode 0, flag 1), ref=3854*, entity1=EventEntity, entity2=EventEntity, string="pcm3", extra=160*)
  1: 0x0579 [0x00] END_REQSTACK()
```

### Event 65535.86

#### Metadata

| Field        | Value    |
|--------------|----------|
| Entrypoint   | 0x057A   |
| Data Size    | 15 bytes |
| Instructions | 2        |

```
      00 01 02 03 04 05 06 07  08 09 0A 0B 0C 0D 0E 0F
      -- -- -- -- -- -- -- --  -- -- -- -- -- -- -- --
0570:                                5F 07 F8 FF FF 7F            _.....
0580: F8 FF FF 7F 70 63 6D 33  00                       ....pcm3.       
```

#### Opcodes

```
  0: 0x057A [0x5F] MULTI_HANDLER_COMPLEX(mode=0x07 - Wait scheduler task (OpCode 0x53))
  1: 0x0588 [0x00] END_REQSTACK()
```

### Event 5

#### Metadata

| Field        | Value   |
|--------------|---------|
| Entrypoint   | 0x0589  |
| Data Size    | 1 bytes |
| Instructions | 1       |

```
      00 01 02 03 04 05 06 07  08 09 0A 0B 0C 0D 0E 0F
      -- -- -- -- -- -- -- --  -- -- -- -- -- -- -- --
0580:                             00                             .      
```

#### Opcodes

```
  0: 0x0589 [0x00] END_REQSTACK()
```

### Event 6

#### Metadata

| Field        | Value   |
|--------------|---------|
| Entrypoint   | 0x058A  |
| Data Size    | 1 bytes |
| Instructions | 1       |

```
      00 01 02 03 04 05 06 07  08 09 0A 0B 0C 0D 0E 0F
      -- -- -- -- -- -- -- --  -- -- -- -- -- -- -- --
0580:                                00                           .     
```

#### Opcodes

```
  0: 0x058A [0x00] END_REQSTACK()
```

### Event 65535.87

#### Metadata

| Field        | Value    |
|--------------|----------|
| Entrypoint   | 0x058B   |
| Data Size    | 14 bytes |
| Instructions | 4        |

```
      00 01 02 03 04 05 06 07  08 09 0A 0B 0C 0D 0E 0F
      -- -- -- -- -- -- -- --  -- -- -- -- -- -- -- --
0580:                                   32 2A 80 1F 00             2*...
0590: 2B 80 2C 80 2D 80 1F 01  00                       +.,.-....       
```

#### Opcodes

```
  0: 0x058B [0x32] ExtData[1]->MainSpeed = 13* * 0.1
  1: 0x058E [0x1F] MOVE_ENTITY: EventEntity moves to X=163.255*, Z=47.676*, Y=0.197*
  2: 0x0596 [0x1F] MOVE_ENTITY: Update entity position (mode=1)
  3: 0x0598 [0x00] END_REQSTACK()
```

### Event 65535.88

#### Metadata

| Field        | Value    |
|--------------|----------|
| Entrypoint   | 0x0599   |
| Data Size    | 14 bytes |
| Instructions | 4        |

```
      00 01 02 03 04 05 06 07  08 09 0A 0B 0C 0D 0E 0F
      -- -- -- -- -- -- -- --  -- -- -- -- -- -- -- --
0590:                             32 2A 80 1F 00 2E 80           2*.....
05A0: 2F 80 30 80 1F 01 00                              /.0....         
```

#### Opcodes

```
  0: 0x0599 [0x32] ExtData[1]->MainSpeed = 13* * 0.1
  1: 0x059C [0x1F] MOVE_ENTITY: EventEntity moves to X=153.978*, Z=49.202*, Y=0.618*
  2: 0x05A4 [0x1F] MOVE_ENTITY: Update entity position (mode=1)
  3: 0x05A6 [0x00] END_REQSTACK()
```

### Event 65535.89

#### Metadata

| Field        | Value    |
|--------------|----------|
| Entrypoint   | 0x05A7   |
| Data Size    | 14 bytes |
| Instructions | 4        |

```
      00 01 02 03 04 05 06 07  08 09 0A 0B 0C 0D 0E 0F
      -- -- -- -- -- -- -- --  -- -- -- -- -- -- -- --
05A0:                      32  2A 80 1F 00 31 80 32 80         2*...1.2.
05B0: 33 80 1F 01 00                                    3....           
```

#### Opcodes

```
  0: 0x05A7 [0x32] ExtData[1]->MainSpeed = 13* * 0.1
  1: 0x05AA [0x1F] MOVE_ENTITY: EventEntity moves to X=159.419*, Z=32.704*, Y=-0.207*
  2: 0x05B2 [0x1F] MOVE_ENTITY: Update entity position (mode=1)
  3: 0x05B4 [0x00] END_REQSTACK()
```

### Event 65535.90

#### Metadata

| Field        | Value    |
|--------------|----------|
| Entrypoint   | 0x05B5   |
| Data Size    | 14 bytes |
| Instructions | 4        |

```
      00 01 02 03 04 05 06 07  08 09 0A 0B 0C 0D 0E 0F
      -- -- -- -- -- -- -- --  -- -- -- -- -- -- -- --
05B0:                32 2A 80  1F 00 34 80 35 80 36 80       2*...4.5.6.
05C0: 1F 01 00                                          ...             
```

#### Opcodes

```
  0: 0x05B5 [0x32] ExtData[1]->MainSpeed = 13* * 0.1
  1: 0x05B8 [0x1F] MOVE_ENTITY: EventEntity moves to X=157.091*, Z=32.554*, Y=-0.093*
  2: 0x05C0 [0x1F] MOVE_ENTITY: Update entity position (mode=1)
  3: 0x05C2 [0x00] END_REQSTACK()
```

### Event 65535.91

#### Metadata

| Field        | Value    |
|--------------|----------|
| Entrypoint   | 0x05C3   |
| Data Size    | 14 bytes |
| Instructions | 4        |

```
      00 01 02 03 04 05 06 07  08 09 0A 0B 0C 0D 0E 0F
      -- -- -- -- -- -- -- --  -- -- -- -- -- -- -- --
05C0:          32 2A 80 1F 00  37 80 38 80 39 80 1F 01     2*...7.8.9...
05D0: 00                                                .               
```

#### Opcodes

```
  0: 0x05C3 [0x32] ExtData[1]->MainSpeed = 13* * 0.1
  1: 0x05C6 [0x1F] MOVE_ENTITY: EventEntity moves to X=147.077*, Z=44.607*, Y=0.590*
  2: 0x05CE [0x1F] MOVE_ENTITY: Update entity position (mode=1)
  3: 0x05D0 [0x00] END_REQSTACK()
```

### Event 65535.92

#### Metadata

| Field        | Value    |
|--------------|----------|
| Entrypoint   | 0x05D1   |
| Data Size    | 29 bytes |
| Instructions | 4        |

```
      00 01 02 03 04 05 06 07  08 09 0A 0B 0C 0D 0E 0F
      -- -- -- -- -- -- -- --  -- -- -- -- -- -- -- --
05D0:    B6 00 3A 80 B4 00 00  00 49 6E 67 72 69 64 00   ..:.....Ingrid.
05E0: 00 00 00 00 00 00 00 00  00 B5 00 00 00 00        ..............  
```

#### Opcodes

```
  0: 0x05D1 [0xB6] ENTITY_APPEARANCE_HANDLER(case=Hair style, value=2732*)
  1: 0x05D5 [0xB4] UI_WINDOW_STRING_HANDLER(case=0x00 - Copy string from opcode, work_offset=ExtData[1]->WorkLocal[0], string="Ingrid")
  2: 0x05E9 [0xB5] SET_EVENT_ENTITY_NAME: Change EventEntity name to ExtData[1]->WorkLocal[0]
  3: 0x05ED [0x00] END_REQSTACK()
```

### Event 7

#### Metadata

| Field        | Value   |
|--------------|---------|
| Entrypoint   | 0x05EE  |
| Data Size    | 1 bytes |
| Instructions | 1       |

```
      00 01 02 03 04 05 06 07  08 09 0A 0B 0C 0D 0E 0F
      -- -- -- -- -- -- -- --  -- -- -- -- -- -- -- --
05E0:                                            00                   . 
```

#### Opcodes

```
  0: 0x05EE [0x00] END_REQSTACK()
```

### Event 65535.93

#### Metadata

| Field        | Value    |
|--------------|----------|
| Entrypoint   | 0x05EF   |
| Data Size    | 14 bytes |
| Instructions | 4        |

```
      00 01 02 03 04 05 06 07  08 09 0A 0B 0C 0D 0E 0F
      -- -- -- -- -- -- -- --  -- -- -- -- -- -- -- --
05E0:                                               32                 2
05F0: 2A 80 1F 00 3B 80 3C 80  3D 80 1F 01 00           *...;.<.=....   
```

#### Opcodes

```
  0: 0x05EF [0x32] ExtData[1]->MainSpeed = 13* * 0.1
  1: 0x05F2 [0x1F] MOVE_ENTITY: EventEntity moves to X=-151.236*, Z=443.518*, Y=0.218*
  2: 0x05FA [0x1F] MOVE_ENTITY: Update entity position (mode=1)
  3: 0x05FC [0x00] END_REQSTACK()
```

### Event 8

#### Metadata

| Field        | Value   |
|--------------|---------|
| Entrypoint   | 0x05FD  |
| Data Size    | 1 bytes |
| Instructions | 1       |

```
      00 01 02 03 04 05 06 07  08 09 0A 0B 0C 0D 0E 0F
      -- -- -- -- -- -- -- --  -- -- -- -- -- -- -- --
05F0:                                         00                     .  
```

#### Opcodes

```
  0: 0x05FD [0x00] END_REQSTACK()
```

### Event 65535.94

#### Metadata

| Field        | Value    |
|--------------|----------|
| Entrypoint   | 0x05FE   |
| Data Size    | 14 bytes |
| Instructions | 4        |

```
      00 01 02 03 04 05 06 07  08 09 0A 0B 0C 0D 0E 0F
      -- -- -- -- -- -- -- --  -- -- -- -- -- -- -- --
05F0:                                            32 2A                2*
0600: 80 1F 00 3E 80 3F 80 40  80 1F 01 00              ...>.?.@....    
```

#### Opcodes

```
  0: 0x05FE [0x32] ExtData[1]->MainSpeed = 13* * 0.1
  1: 0x0601 [0x1F] MOVE_ENTITY: EventEntity moves to X=-153.002*, Z=440.124*, Y=0.148*
  2: 0x0609 [0x1F] MOVE_ENTITY: Update entity position (mode=1)
  3: 0x060B [0x00] END_REQSTACK()
```

### Event 65535.95

#### Metadata

| Field        | Value    |
|--------------|----------|
| Entrypoint   | 0x060C   |
| Data Size    | 14 bytes |
| Instructions | 4        |

```
      00 01 02 03 04 05 06 07  08 09 0A 0B 0C 0D 0E 0F
      -- -- -- -- -- -- -- --  -- -- -- -- -- -- -- --
0600:                                      32 2A 80 1F              2*..
0610: 00 41 80 42 80 43 80 1F  01 00                    .A.B.C....      
```

#### Opcodes

```
  0: 0x060C [0x32] ExtData[1]->MainSpeed = 13* * 0.1
  1: 0x060F [0x1F] MOVE_ENTITY: EventEntity moves to X=-152.384*, Z=438.417*, Y=0.179*
  2: 0x0617 [0x1F] MOVE_ENTITY: Update entity position (mode=1)
  3: 0x0619 [0x00] END_REQSTACK()
```

### Event 65535.96

#### Metadata

| Field        | Value    |
|--------------|----------|
| Entrypoint   | 0x061A   |
| Data Size    | 14 bytes |
| Instructions | 4        |

```
      00 01 02 03 04 05 06 07  08 09 0A 0B 0C 0D 0E 0F
      -- -- -- -- -- -- -- --  -- -- -- -- -- -- -- --
0610:                                32 2A 80 1F 00 44            2*...D
0620: 80 45 80 46 80 1F 01 00                           .E.F....        
```

#### Opcodes

```
  0: 0x061A [0x32] ExtData[1]->MainSpeed = 13* * 0.1
  1: 0x061D [0x1F] MOVE_ENTITY: EventEntity moves to X=-152.607*, Z=439.492*, Y=0.167*
  2: 0x0625 [0x1F] MOVE_ENTITY: Update entity position (mode=1)
  3: 0x0627 [0x00] END_REQSTACK()
```

### Event 65535.97

#### Metadata

| Field        | Value    |
|--------------|----------|
| Entrypoint   | 0x0628   |
| Data Size    | 16 bytes |
| Instructions | 5        |

```
      00 01 02 03 04 05 06 07  08 09 0A 0B 0C 0D 0E 0F
      -- -- -- -- -- -- -- --  -- -- -- -- -- -- -- --
0620:                          32 2A 80 1F 00 47 80 48          2*...G.H
0630: 80 49 80 1F 01 22 01 00                           .I..."..        
```

#### Opcodes

```
  0: 0x0628 [0x32] ExtData[1]->MainSpeed = 13* * 0.1
  1: 0x062B [0x1F] MOVE_ENTITY: EventEntity moves to X=-148.630*, Z=428.840*, Y=0.147*
  2: 0x0633 [0x1F] MOVE_ENTITY: Update entity position (mode=1)
  3: 0x0635 [0x22] ENTITY_HIDE_FLAG(enabled=0x01)
  4: 0x0637 [0x00] END_REQSTACK()
```

### Event 129

#### Metadata

| Field        | Value   |
|--------------|---------|
| Entrypoint   | 0x0638  |
| Data Size    | 5 bytes |
| Instructions | 2       |

```
      00 01 02 03 04 05 06 07  08 09 0A 0B 0C 0D 0E 0F
      -- -- -- -- -- -- -- --  -- -- -- -- -- -- -- --
0630:                          B6 00 16 80 00                   .....   
```

#### Opcodes

```
  0: 0x0638 [0xB6] ENTITY_APPEARANCE_HANDLER(case=Hair style, value=52*)
  1: 0x063C [0x00] END_REQSTACK()
```

### Event 65535.98

#### Metadata

| Field        | Value    |
|--------------|----------|
| Entrypoint   | 0x063D   |
| Data Size    | 56 bytes |
| Instructions | 11       |

```
      00 01 02 03 04 05 06 07  08 09 0A 0B 0C 0D 0E 0F
      -- -- -- -- -- -- -- --  -- -- -- -- -- -- -- --
0630:                                         03 01 00               ...
0640: 00 80 03 02 00 00 80 02  01 00 4A 80 04 6B 06 02  ..........J..k..
0650: 02 00 00 80 00 68 06 AD  02 4B 80 F8 FF FF 7F F8  .....h...K......
0660: FF FF 7F 03 02 00 01 80  01 74 06 1C 01 80 57 01  .........t....W.
0670: 00 01 47 06 00                                    ..G..           
```

#### Opcodes

```
  0: 0x063D [0x03] ExtData[1]->WorkLocal[1] = 0*
  1: 0x0642 [0x03] ExtData[1]->WorkLocal[2] = 0*
  2: 0x0647 [0x02] IF !(ExtData[1]->WorkLocal[1] < 570*) GOTO 0x066B
  3: 0x064F [0x02] IF !(ExtData[1]->WorkLocal[2] == 0*) GOTO 0x0668
  4: 0x0657 [0xAD] DUAL_ENTITY_SCHEDULER_HANDLER: Execute sub-case 2 with entities [EventEntity, EventEntity], work=269*
  5: 0x0663 [0x03] ExtData[1]->WorkLocal[2] = 1*
  6: 0x0668 [0x01] GOTO 0x0674
  7: 0x066B [0x1C] WAIT(1* ticks)
  8: 0x066E [0x57] CREATE_FRAME_DELAY(delay=ExtData[1]->WorkLocal[1])
  9: 0x0671 [0x01] GOTO 0x0647

SUBROUTINE_0674:
 10: 0x0674 [0x00] END_REQSTACK()
```

### Event 130

#### Metadata

| Field        | Value    |
|--------------|----------|
| Entrypoint   | 0x0675   |
| Data Size    | 29 bytes |
| Instructions | 4        |

```
      00 01 02 03 04 05 06 07  08 09 0A 0B 0C 0D 0E 0F
      -- -- -- -- -- -- -- --  -- -- -- -- -- -- -- --
0670:                B4 00 00  00 47 72 61 6D 6B 2D 44       ....Gramk-D
0680: 72 6F 6F 67 00 00 00 00  00 B5 00 00 00 B6 00 4C  roog...........L
0690: 80 00                                             ..              
```

#### Opcodes

```
  0: 0x0675 [0xB4] UI_WINDOW_STRING_HANDLER(case=0x00 - Copy string from opcode, work_offset=ExtData[1]->WorkLocal[0], string="Gramk-Droog")
  1: 0x0689 [0xB5] SET_EVENT_ENTITY_NAME: Change EventEntity name to ExtData[1]->WorkLocal[0]
  2: 0x068D [0xB6] ENTITY_APPEARANCE_HANDLER(case=Hair style, value=2590*)
  3: 0x0691 [0x00] END_REQSTACK()
```

### Event 131

#### Metadata

| Field        | Value    |
|--------------|----------|
| Entrypoint   | 0x0692   |
| Data Size    | 29 bytes |
| Instructions | 4        |

```
      00 01 02 03 04 05 06 07  08 09 0A 0B 0C 0D 0E 0F
      -- -- -- -- -- -- -- --  -- -- -- -- -- -- -- --
0690:       B4 00 00 00 47 72  61 6D 6B 2D 44 72 6F 6F    ....Gramk-Droo
06A0: 67 00 00 00 00 00 B5 00  00 00 B6 00 4C 80 00     g...........L.. 
```

#### Opcodes

```
  0: 0x0692 [0xB4] UI_WINDOW_STRING_HANDLER(case=0x00 - Copy string from opcode, work_offset=ExtData[1]->WorkLocal[0], string="Gramk-Droog")
  1: 0x06A6 [0xB5] SET_EVENT_ENTITY_NAME: Change EventEntity name to ExtData[1]->WorkLocal[0]
  2: 0x06AA [0xB6] ENTITY_APPEARANCE_HANDLER(case=Hair style, value=2590*)
  3: 0x06AE [0x00] END_REQSTACK()
```

### Event 65535.99

#### Metadata

| Field        | Value   |
|--------------|---------|
| Entrypoint   | 0x06AF  |
| Data Size    | 7 bytes |
| Instructions | 3       |

```
      00 01 02 03 04 05 06 07  08 09 0A 0B 0C 0D 0E 0F
      -- -- -- -- -- -- -- --  -- -- -- -- -- -- -- --
06A0:                                               AB                 .
06B0: 03 AC 01 01 80 00                                 ......          
```

#### Opcodes

```
  0: 0x06AF [0xAB] EventEntity->Render.Flags0 ^= 0x20000 // Toggle bit 17
  1: 0x06B1 [0xAC] EventEntity->StatusEvent = 1*
  2: 0x06B5 [0x00] END_REQSTACK()
```

### Event 65535.100

#### Metadata

| Field        | Value   |
|--------------|---------|
| Entrypoint   | 0x06B6  |
| Data Size    | 7 bytes |
| Instructions | 3       |

```
      00 01 02 03 04 05 06 07  08 09 0A 0B 0C 0D 0E 0F
      -- -- -- -- -- -- -- --  -- -- -- -- -- -- -- --
06B0:                   AC 01  00 80 AB 04 00                 .......   
```

#### Opcodes

```
  0: 0x06B6 [0xAC] EventEntity->StatusEvent = 0*
  1: 0x06BA [0xAB] EventEntity->Render.Flags0 |= 0x40000 // Set bit 18
  2: 0x06BC [0x00] END_REQSTACK()
```
