# 17855077 - Leafkin

## Common Data

| Field            | Value                  |
|------------------|------------------------|
| Zone             | Yorcia Weald (ID: 263) |
| Block Size       | 576 bytes              |
| Total Events     | 16                     |
| References Count | 46                     |

## List of Events

| Event ID                   | Entrypoint   |   Size |   Instructions |
|----------------------------|--------------|--------|----------------|
| [65535](#event-65535)      | 0x0000       |      1 |              1 |
| [105](#event-105)          | 0x0001       |      1 |              1 |
| [65535.1](#event-655351)   | 0x0002       |     15 |              5 |
| [65535.2](#event-655352)   | 0x0011       |     33 |              9 |
| [65535.3](#event-655353)   | 0x0032       |     36 |             10 |
| [65535.4](#event-655354)   | 0x0056       |     36 |              8 |
| [65535.5](#event-655355)   | 0x007A       |     15 |              5 |
| [65535.6](#event-655356)   | 0x0089       |     19 |              3 |
| [65535.7](#event-655357)   | 0x009C       |     19 |              3 |
| [65535.8](#event-655358)   | 0x00AF       |     19 |              3 |
| [65535.9](#event-655359)   | 0x00C2       |     14 |              2 |
| [129](#event-129)          | 0x00D0       |     11 |              3 |
| [65535.10](#event-6553510) | 0x00DB       |      7 |              3 |
| [65535.11](#event-6553511) | 0x00E2       |      7 |              3 |
| [65535.12](#event-6553512) | 0x00E9       |     29 |              8 |
| [65535.13](#event-6553513) | 0x0106       |     50 |             12 |

## DAT References (imed_data)

|   Index | Hex Value   |   Dec Value |
|---------|-------------|-------------|
|       0 | 0x000D      |          13 |
|       1 | 0x2B317     |      176919 |
|       2 | 0x2C6D0     |      181968 |
|       3 | 0xFFFFD072  |  4294955122 |
|       4 | 0x0028      |          40 |
|       5 | 0x28F25     |      167717 |
|       6 | 0x2711C     |      160028 |
|       7 | 0xFFFFFF16  |  4294967062 |
|       8 | 0x29053     |      168019 |
|       9 | 0x26A43     |      158275 |
|      10 | 0xFFFFFF03  |  4294967043 |
|      11 | 0x003C      |          60 |
|      12 | 0x0014      |          20 |
|      13 | 0x295B6     |      169398 |
|      14 | 0x265E6     |      157158 |
|      15 | 0xFFFFFEDA  |  4294967002 |
|      16 | 0x29031     |      167985 |
|      17 | 0x26133     |      155955 |
|      18 | 0xFFFFFF0A  |  4294967050 |
|      19 | 0x293AD     |      168877 |
|      20 | 0x27F1B     |      163611 |
|      21 | 0xFFFFFFB9  |  4294967225 |
|      22 | 0x000A      |          10 |
|      23 | 0x0CB7      |        3255 |
|      24 | 0x29E90     |      171664 |
|      25 | 0x2C213     |      180755 |
|      26 | 0x037F      |         895 |
|      27 | 0x0CB2      |        3250 |
|      28 | 0x0001      |           1 |
|      29 | 0x0000      |           0 |
|      30 | 0x28C58     |      167000 |
|      31 | 0x27CB8     |      163000 |
|      32 | 0x000F      |          15 |
|      33 | 0xFFFFFC01  |  4294966273 |
|      34 | 0x29266     |      168550 |
|      35 | 0x2ACE2     |      175330 |
|      36 | 0x02B2      |         690 |
|      37 | 0x298CE     |      170190 |
|      38 | 0x2BA20     |      178720 |
|      39 | 0x033E      |         830 |
|      40 | 0x2A63E     |      173630 |
|      41 | 0x2CD30     |      183600 |
|      42 | 0x041A      |        1050 |
|      43 | 0x327DA     |      206810 |
|      44 | 0x32AC8     |      207560 |
|      45 | 0x01EA      |         490 |

## Events

### Event 65535

#### Metadata

| Field        | Value   |
|--------------|---------|
| Entrypoint   | 0x0000  |
| Data Size    | 1 bytes |
| Instructions | 1       |

```
      00 01 02 03 04 05 06 07  08 09 0A 0B 0C 0D 0E 0F
      -- -- -- -- -- -- -- --  -- -- -- -- -- -- -- --
0000: 00                                                .               
```

#### Opcodes

```
  0: 0x0000 [0x00] END_REQSTACK()
```

### Event 105

#### Metadata

| Field        | Value   |
|--------------|---------|
| Entrypoint   | 0x0001  |
| Data Size    | 1 bytes |
| Instructions | 1       |

```
      00 01 02 03 04 05 06 07  08 09 0A 0B 0C 0D 0E 0F
      -- -- -- -- -- -- -- --  -- -- -- -- -- -- -- --
0000:    00                                              .              
```

#### Opcodes

```
  0: 0x0001 [0x00] END_REQSTACK()
```

### Event 65535.1

#### Metadata

| Field        | Value    |
|--------------|----------|
| Entrypoint   | 0x0002   |
| Data Size    | 15 bytes |
| Instructions | 5        |

```
      00 01 02 03 04 05 06 07  08 09 0A 0B 0C 0D 0E 0F
      -- -- -- -- -- -- -- --  -- -- -- -- -- -- -- --
0000:       32 00 80 1F 00 01  80 02 80 03 80 1F 01 6F    2............o
0010: 00                                                .               
```

#### Opcodes

```
  0: 0x0002 [0x32] ExtData[1]->MainSpeed = 13* * 0.1
  1: 0x0005 [0x1F] MOVE_ENTITY: EventEntity moves to X=176.919*, Z=181.968*, Y=-12.174*
  2: 0x000D [0x1F] MOVE_ENTITY: Update entity position (mode=1)
  3: 0x000F [0x6F] WAIT_FRAME_DELAY: Yield until WaitTime reaches zero
  4: 0x0010 [0x00] END_REQSTACK()
```

### Event 65535.2

#### Metadata

| Field        | Value    |
|--------------|----------|
| Entrypoint   | 0x0011   |
| Data Size    | 33 bytes |
| Instructions | 9        |

```
      00 01 02 03 04 05 06 07  08 09 0A 0B 0C 0D 0E 0F
      -- -- -- -- -- -- -- --  -- -- -- -- -- -- -- --
0010:    32 04 80 1F 00 05 80  06 80 07 80 1F 01 32 00   2............2.
0020: 80 1F 00 08 80 09 80 0A  80 1F 01 6F 1E 64 72 10  ...........o.dr.
0030: 01 00                                             ..              
```

#### Opcodes

```
  0: 0x0011 [0x32] ExtData[1]->MainSpeed = 40* * 0.1
  1: 0x0014 [0x1F] MOVE_ENTITY: EventEntity moves to X=167.717*, Z=160.028*, Y=-0.234*
  2: 0x001C [0x1F] MOVE_ENTITY: Update entity position (mode=1)
  3: 0x001E [0x32] ExtData[1]->MainSpeed = 13* * 0.1
  4: 0x0021 [0x1F] MOVE_ENTITY: EventEntity moves to X=168.019*, Z=158.275*, Y=-0.253*
  5: 0x0029 [0x1F] MOVE_ENTITY: Update entity position (mode=1)
  6: 0x002B [0x6F] WAIT_FRAME_DELAY: Yield until WaitTime reaches zero
  7: 0x002C [0x1E] EventEntity looks at Midras (ID: 17855076/0x01107264) and starts talking
  8: 0x0031 [0x00] END_REQSTACK()
```

### Event 65535.3

#### Metadata

| Field        | Value    |
|--------------|----------|
| Entrypoint   | 0x0032   |
| Data Size    | 36 bytes |
| Instructions | 10       |

```
      00 01 02 03 04 05 06 07  08 09 0A 0B 0C 0D 0E 0F
      -- -- -- -- -- -- -- --  -- -- -- -- -- -- -- --
0030:       1C 0B 80 32 0C 80  1F 00 0D 80 0E 80 0F 80    ...2..........
0040: 1F 01 1F 00 10 80 11 80  12 80 1F 01 6F 1E 64 72  ............o.dr
0050: 10 01 1C 00 17 00                                 ......          
```

#### Opcodes

```
  0: 0x0032 [0x1C] WAIT(60* ticks)
  1: 0x0035 [0x32] ExtData[1]->MainSpeed = 20* * 0.1
  2: 0x0038 [0x1F] MOVE_ENTITY: EventEntity moves to X=169.398*, Z=157.158*, Y=-0.294*
  3: 0x0040 [0x1F] MOVE_ENTITY: Update entity position (mode=1)
  4: 0x0042 [0x1F] MOVE_ENTITY: EventEntity moves to X=167.985*, Z=155.955*, Y=-0.246*
  5: 0x004A [0x1F] MOVE_ENTITY: Update entity position (mode=1)
  6: 0x004C [0x6F] WAIT_FRAME_DELAY: Yield until WaitTime reaches zero
  7: 0x004D [0x1E] EventEntity looks at Midras (ID: 17855076/0x01107264) and starts talking
  8: 0x0052 [0x1C] WAIT(Work_Zone_1700[0] ticks)
  9: 0x0055 [0x00] END_REQSTACK()
```

### Event 65535.4

#### Metadata

| Field        | Value    |
|--------------|----------|
| Entrypoint   | 0x0056   |
| Data Size    | 36 bytes |
| Instructions | 8        |

```
      00 01 02 03 04 05 06 07  08 09 0A 0B 0C 0D 0E 0F
      -- -- -- -- -- -- -- --  -- -- -- -- -- -- -- --
0050:                   32 04  80 1F 00 13 80 14 80 15        2.........
0060: 80 1F 01 6F 1C 16 80 5B  17 80 F8 FF FF 7F F8 FF  ...o...[........
0070: FF 7F 69 6B 61 30 1C 00  17 00                    ..ika0....      
```

#### Opcodes

```
  0: 0x0056 [0x32] ExtData[1]->MainSpeed = 40* * 0.1
  1: 0x0059 [0x1F] MOVE_ENTITY: EventEntity moves to X=168.877*, Z=163.611*, Y=-0.071*
  2: 0x0061 [0x1F] MOVE_ENTITY: Update entity position (mode=1)
  3: 0x0063 [0x6F] WAIT_FRAME_DELAY: Yield until WaitTime reaches zero
  4: 0x0064 [0x1C] WAIT(10* ticks)
  5: 0x0067 [0x5B] LOAD_EXT_SCHEDULER: Load scheduler "ika0" with entities [EventEntity, EventEntity], work=3255*
  6: 0x0076 [0x1C] WAIT(Work_Zone_1700[0] ticks)
  7: 0x0079 [0x00] END_REQSTACK()
```

### Event 65535.5

#### Metadata

| Field        | Value    |
|--------------|----------|
| Entrypoint   | 0x007A   |
| Data Size    | 15 bytes |
| Instructions | 5        |

```
      00 01 02 03 04 05 06 07  08 09 0A 0B 0C 0D 0E 0F
      -- -- -- -- -- -- -- --  -- -- -- -- -- -- -- --
0070:                                32 04 80 1F 00 18            2.....
0080: 80 19 80 1A 80 1F 01 6F  00                       .......o.       
```

#### Opcodes

```
  0: 0x007A [0x32] ExtData[1]->MainSpeed = 40* * 0.1
  1: 0x007D [0x1F] MOVE_ENTITY: EventEntity moves to X=171.664*, Z=180.755*, Y=0.895*
  2: 0x0085 [0x1F] MOVE_ENTITY: Update entity position (mode=1)
  3: 0x0087 [0x6F] WAIT_FRAME_DELAY: Yield until WaitTime reaches zero
  4: 0x0088 [0x00] END_REQSTACK()
```

### Event 65535.6

#### Metadata

| Field        | Value    |
|--------------|----------|
| Entrypoint   | 0x0089   |
| Data Size    | 19 bytes |
| Instructions | 3        |

```
      00 01 02 03 04 05 06 07  08 09 0A 0B 0C 0D 0E 0F
      -- -- -- -- -- -- -- --  -- -- -- -- -- -- -- --
0080:                             5B 17 80 F8 FF FF 7F           [......
0090: F8 FF FF 7F 6D 67 6B 30  1C 00 17 00              ....mgk0....    
```

#### Opcodes

```
  0: 0x0089 [0x5B] LOAD_EXT_SCHEDULER: Load scheduler "mgk0" with entities [EventEntity, EventEntity], work=3255*
  1: 0x0098 [0x1C] WAIT(Work_Zone_1700[0] ticks)
  2: 0x009B [0x00] END_REQSTACK()
```

### Event 65535.7

#### Metadata

| Field        | Value    |
|--------------|----------|
| Entrypoint   | 0x009C   |
| Data Size    | 19 bytes |
| Instructions | 3        |

```
      00 01 02 03 04 05 06 07  08 09 0A 0B 0C 0D 0E 0F
      -- -- -- -- -- -- -- --  -- -- -- -- -- -- -- --
0090:                                      5B 17 80 F8              [...
00A0: FF FF 7F F8 FF FF 7F 69  6B 61 30 1C 00 17 00     .......ika0.... 
```

#### Opcodes

```
  0: 0x009C [0x5B] LOAD_EXT_SCHEDULER: Load scheduler "ika0" with entities [EventEntity, EventEntity], work=3255*
  1: 0x00AB [0x1C] WAIT(Work_Zone_1700[0] ticks)
  2: 0x00AE [0x00] END_REQSTACK()
```

### Event 65535.8

#### Metadata

| Field        | Value    |
|--------------|----------|
| Entrypoint   | 0x00AF   |
| Data Size    | 19 bytes |
| Instructions | 3        |

```
      00 01 02 03 04 05 06 07  08 09 0A 0B 0C 0D 0E 0F
      -- -- -- -- -- -- -- --  -- -- -- -- -- -- -- --
00A0:                                               5B                 [
00B0: 1B 80 F8 FF FF 7F F8 FF  FF 7F 62 74 6C 30 1C 00  ..........btl0..
00C0: 17 00                                             ..              
```

#### Opcodes

```
  0: 0x00AF [0x5B] LOAD_EXT_SCHEDULER: Load scheduler "btl0" with entities [EventEntity, EventEntity], work=3250*
  1: 0x00BE [0x1C] WAIT(Work_Zone_1700[0] ticks)
  2: 0x00C1 [0x00] END_REQSTACK()
```

### Event 65535.9

#### Metadata

| Field        | Value    |
|--------------|----------|
| Entrypoint   | 0x00C2   |
| Data Size    | 14 bytes |
| Instructions | 2        |

```
      00 01 02 03 04 05 06 07  08 09 0A 0B 0C 0D 0E 0F
      -- -- -- -- -- -- -- --  -- -- -- -- -- -- -- --
00C0:       2C F8 FF FF 7F F8  FF FF 7F 73 74 64 30 00    ,........std0.
```

#### Opcodes

```
  0: 0x00C2 [0x2C] CREATE_SCHEDULER_TASK: Create scheduler "std0" with entities [EventEntity, EventEntity]
  1: 0x00CF [0x00] END_REQSTACK()
```

### Event 129

#### Metadata

| Field        | Value    |
|--------------|----------|
| Entrypoint   | 0x00D0   |
| Data Size    | 11 bytes |
| Instructions | 3        |

```
      00 01 02 03 04 05 06 07  08 09 0A 0B 0C 0D 0E 0F
      -- -- -- -- -- -- -- --  -- -- -- -- -- -- -- --
00D0: 92 01 F8 FF FF 7F B6 0F  0B 80 00                 ...........     
```

#### Opcodes

```
  0: 0x00D0 [0x92] EventEntity->Render.Flags3 ^= 0x01
  1: 0x00D6 [0xB6] ENTITY_APPEARANCE_HANDLER(case=Model size, value=60*)
  2: 0x00DA [0x00] END_REQSTACK()
```

### Event 65535.10

#### Metadata

| Field        | Value   |
|--------------|---------|
| Entrypoint   | 0x00DB  |
| Data Size    | 7 bytes |
| Instructions | 3       |

```
      00 01 02 03 04 05 06 07  08 09 0A 0B 0C 0D 0E 0F
      -- -- -- -- -- -- -- --  -- -- -- -- -- -- -- --
00D0:                                   AB 03 AC 01 1C             .....
00E0: 80 00                                             ..              
```

#### Opcodes

```
  0: 0x00DB [0xAB] EventEntity->Render.Flags0 ^= 0x20000 // Toggle bit 17
  1: 0x00DD [0xAC] EventEntity->StatusEvent = 1*
  2: 0x00E1 [0x00] END_REQSTACK()
```

### Event 65535.11

#### Metadata

| Field        | Value   |
|--------------|---------|
| Entrypoint   | 0x00E2  |
| Data Size    | 7 bytes |
| Instructions | 3       |

```
      00 01 02 03 04 05 06 07  08 09 0A 0B 0C 0D 0E 0F
      -- -- -- -- -- -- -- --  -- -- -- -- -- -- -- --
00E0:       AC 01 1D 80 AB 04  00                         .......       
```

#### Opcodes

```
  0: 0x00E2 [0xAC] EventEntity->StatusEvent = 0*
  1: 0x00E6 [0xAB] EventEntity->Render.Flags0 |= 0x40000 // Set bit 18
  2: 0x00E8 [0x00] END_REQSTACK()
```

### Event 65535.12

#### Metadata

| Field        | Value    |
|--------------|----------|
| Entrypoint   | 0x00E9   |
| Data Size    | 29 bytes |
| Instructions | 8        |

```
      00 01 02 03 04 05 06 07  08 09 0A 0B 0C 0D 0E 0F
      -- -- -- -- -- -- -- --  -- -- -- -- -- -- -- --
00E0:                             32 04 80 1F 00 1E 80           2......
00F0: 1F 80 0C 80 1F 01 4E 01  6D 72 10 01 1C 20 80 AB  ......N.mr... ..
0100: 03 AC 01 1C 80 00                                 ......          
```

#### Opcodes

```
  0: 0x00E9 [0x32] ExtData[1]->MainSpeed = 40* * 0.1
  1: 0x00EC [0x1F] MOVE_ENTITY: EventEntity moves to X=167.000*, Z=163.000*, Y=0.020*
  2: 0x00F4 [0x1F] MOVE_ENTITY: Update entity position (mode=1)
  3: 0x00F6 [0x4E] SET_ENTITY_HIDE_FLAG: Hide Unnamed NPC (ID: 17855085/0x0110726D)
  4: 0x00FC [0x1C] WAIT(15* ticks)
  5: 0x00FF [0xAB] EventEntity->Render.Flags0 ^= 0x20000 // Toggle bit 17
  6: 0x0101 [0xAC] EventEntity->StatusEvent = 1*
  7: 0x0105 [0x00] END_REQSTACK()
```

### Event 65535.13

#### Metadata

| Field        | Value    |
|--------------|----------|
| Entrypoint   | 0x0106   |
| Data Size    | 50 bytes |
| Instructions | 12       |

```
      00 01 02 03 04 05 06 07  08 09 0A 0B 0C 0D 0E 0F
      -- -- -- -- -- -- -- --  -- -- -- -- -- -- -- --
0100:                   39 21  80 1C 20 80 32 04 80 1F        9!.. .2...
0110: 00 22 80 23 80 24 80 1F  01 1F 00 25 80 26 80 27  .".#.$.....%.&.'
0120: 80 1F 01 1F 00 28 80 29  80 2A 80 1F 01 1F 00 2B  .....(.).*.....+
0130: 80 2C 80 2D 80 1F 01 00                           .,.-....        
```

#### Opcodes

```
  0: 0x0106 [0x39] SET_ENTITY_DIRECTION(direction=354.4°*)
  1: 0x0109 [0x1C] WAIT(15* ticks)
  2: 0x010C [0x32] ExtData[1]->MainSpeed = 40* * 0.1
  3: 0x010F [0x1F] MOVE_ENTITY: EventEntity moves to X=168.550*, Z=175.330*, Y=0.690*
  4: 0x0117 [0x1F] MOVE_ENTITY: Update entity position (mode=1)
  5: 0x0119 [0x1F] MOVE_ENTITY: EventEntity moves to X=170.190*, Z=178.720*, Y=0.830*
  6: 0x0121 [0x1F] MOVE_ENTITY: Update entity position (mode=1)
  7: 0x0123 [0x1F] MOVE_ENTITY: EventEntity moves to X=173.630*, Z=183.600*, Y=1.050*
  8: 0x012B [0x1F] MOVE_ENTITY: Update entity position (mode=1)
  9: 0x012D [0x1F] MOVE_ENTITY: EventEntity moves to X=206.810*, Z=207.560*, Y=0.490*
 10: 0x0135 [0x1F] MOVE_ENTITY: Update entity position (mode=1)
 11: 0x0137 [0x00] END_REQSTACK()
```
