# 17855055

## Common Data

| Field            | Value                  |
|------------------|------------------------|
| Zone             | Yorcia Weald (ID: 263) |
| Block Size       | 16588 bytes            |
| Total Events     | 5                      |
| References Count | 441                    |

## List of Events

| Event ID              | Entrypoint   |   Size |   Instructions |
|-----------------------|--------------|--------|----------------|
| [65535](#event-65535) | 0x0000       |      1 |              1 |
| [1](#event-1)         | 0x0001       |   7786 |            856 |
| [2](#event-2)         | 0x1E6B       |   4269 |            544 |
| [3](#event-3)         | 0x2F18       |   1957 |            252 |
| [4](#event-4)         | 0x36BD       |    774 |            101 |

## DAT References (imed_data)

|   Index | Hex Value   |   Dec Value |
|---------|-------------|-------------|
|       0 | 0x0013      |          19 |
|       1 | 0x3D0D4     |      250068 |
|       2 | 0x1BE0E     |      114190 |
|       3 | 0x000D      |          13 |
|       4 | 0x04B9      |        1209 |
|       5 | 0x3E4C8     |      255176 |
|       6 | 0x1A7BC     |      108476 |
|       7 | 0x04A4      |        1188 |
|       8 | 0x0C00      |        3072 |
|       9 | 0x3B91C     |      243996 |
|      10 | 0x1E41D     |      123933 |
|      11 | 0x014A      |         330 |
|      12 | 0x0CB2      |        3250 |
|      13 | 0x3C8C0     |      248000 |
|      14 | 0x1D4C0     |      120000 |
|      15 | 0xFFFFFF06  |  4294967046 |
|      16 | 0x38A40     |      232000 |
|      17 | 0x1E460     |      124000 |
|      18 | 0xFFFFFF07  |  4294967047 |
|      19 | 0x1D401     |      119809 |
|      20 | 0xFFFFFEE1  |  4294967009 |
|      21 | 0x57E57     |      360023 |
|      22 | 0xFFF9E52D  |  4294567213 |
|      23 | 0xFFFFCF21  |  4294954785 |
|      24 | 0x0400      |        1024 |
|      25 | 0x001E      |          30 |
|      26 | 0x003D      |          61 |
|      27 | 0x0286      |         646 |
|      28 | 0x0000      |           0 |
|      29 | 0x0C99      |        3225 |
|      30 | 0x003C      |          60 |
|      31 | 0x00A0      |         160 |
|      32 | 0x21B7      |        8631 |
|      33 | 0x005A      |          90 |
|      34 | 0x3CB94     |      248724 |
|      35 | 0x1D2DC     |      119516 |
|      36 | 0xFFFFFF15  |  4294967061 |
|      37 | 0x0C01      |        3073 |
|      38 | 0x0CE6      |        3302 |
|      39 | 0x0CB5      |        3253 |
|      40 | 0x0095      |         149 |
|      41 | 0x029C      |         668 |
|      42 | 0x000A      |          10 |
|      43 | 0x0168      |         360 |
|      44 | 0x0096      |         150 |
|      45 | 0x0064      |         100 |
|      46 | 0x0014      |          20 |
|      47 | 0x21B8      |        8632 |
|      48 | 0x3CD29     |      249129 |
|      49 | 0x1E141     |      123201 |
|      50 | 0x00CF      |         207 |
|      51 | 0x04AA      |        1194 |
|      52 | 0x0CB0      |        3248 |
|      53 | 0x003E      |          62 |
|      54 | 0x0CE5      |        3301 |
|      55 | 0x0001      |           1 |
|      56 | 0x0002      |           2 |
|      57 | 0x0003      |           3 |
|      58 | 0x0004      |           4 |
|      59 | 0x0007      |           7 |
|      60 | 0x0008      |           8 |
|      61 | 0x0015      |          21 |
|      62 | 0x002D      |          45 |
|      63 | 0x0073      |         115 |
|      64 | 0x21B9      |        8633 |
|      65 | 0x21BA      |        8634 |
|      66 | 0x3C876     |      247926 |
|      67 | 0x20D1B     |      134427 |
|      68 | 0x0299      |         665 |
|      69 | 0x0B26      |        2854 |
|      70 | 0x3C8CC     |      248012 |
|      71 | 0x1EBFD     |      125949 |
|      72 | 0x01BF      |         447 |
|      73 | 0x000F      |          15 |
|      74 | 0x009C      |         156 |
|      75 | 0x01E0      |         480 |
|      76 | 0x010E      |         270 |
|      77 | 0x0046      |          70 |
|      78 | 0x001D      |          29 |
|      79 | 0x0078      |         120 |
|      80 | 0x21BB      |        8635 |
|      81 | 0x21BC      |        8636 |
|      82 | 0x0CE7      |        3303 |
|      83 | 0x0CB6      |        3254 |
|      84 | 0x00D2      |         210 |
|      85 | 0x3A980     |      240000 |
|      86 | 0x1F400     |      128000 |
|      87 | 0x00FA      |         250 |
|      88 | 0x0CB7      |        3255 |
|      89 | 0x0CF5      |        3317 |
|      90 | 0x01EA      |         490 |
|      91 | 0x012C      |         300 |
|      92 | 0x0060      |          96 |
|      93 | 0x0CE8      |        3304 |
|      94 | 0x0CF6      |        3318 |
|      95 | 0x00B4      |         180 |
|      96 | 0x01A4      |         420 |
|      97 | 0x21BD      |        8637 |
|      98 | 0x21BE      |        8638 |
|      99 | 0x0CF7      |        3319 |
|     100 | 0x21BF      |        8639 |
|     101 | 0x3D2BF     |      250559 |
|     102 | 0x1ED8A     |      126346 |
|     103 | 0x01CD      |         461 |
|     104 | 0x04A6      |        1190 |
|     105 | 0x3CA80     |      248448 |
|     106 | 0x1EF7C     |      126844 |
|     107 | 0x01E8      |         488 |
|     108 | 0x3CA01     |      248321 |
|     109 | 0x1E066     |      122982 |
|     110 | 0x00B6      |         182 |
|     111 | 0x0CDA      |        3290 |
|     112 | 0x3CFA6     |      249766 |
|     113 | 0x1D9EF     |      121327 |
|     114 | 0xFFFFFFA4  |  4294967204 |
|     115 | 0x0C14      |        3092 |
|     116 | 0x3DB61     |      252769 |
|     117 | 0x1E22F     |      123439 |
|     118 | 0x3D696     |      251542 |
|     119 | 0x1E19E     |      123294 |
|     120 | 0x00BB      |         187 |
|     121 | 0x0C83      |        3203 |
|     122 | 0x3C0C8     |      245960 |
|     123 | 0x1DD82     |      122242 |
|     124 | 0x0043      |          67 |
|     125 | 0x1E9E      |        7838 |
|     126 | 0x0287      |         647 |
|     127 | 0x21C0      |        8640 |
|     128 | 0x21C1      |        8641 |
|     129 | 0x0005      |           5 |
|     130 | 0x0006      |           6 |
|     131 | 0x21C2      |        8642 |
|     132 | 0x21C3      |        8643 |
|     133 | 0x21C4      |        8644 |
|     134 | 0x21C5      |        8645 |
|     135 | 0x21C6      |        8646 |
|     136 | 0x21C7      |        8647 |
|     137 | 0x0C91      |        3217 |
|     138 | 0x21C8      |        8648 |
|     139 | 0x21C9      |        8649 |
|     140 | 0x21CA      |        8650 |
|     141 | 0x21CB      |        8651 |
|     142 | 0x21CC      |        8652 |
|     143 | 0x21CD      |        8653 |
|     144 | 0x0C9F      |        3231 |
|     145 | 0x21CE      |        8654 |
|     146 | 0x21CF      |        8655 |
|     147 | 0x21D0      |        8656 |
|     148 | 0x21D1      |        8657 |
|     149 | 0x21D2      |        8658 |
|     150 | 0x21D3      |        8659 |
|     151 | 0x0C93      |        3219 |
|     152 | 0x21D4      |        8660 |
|     153 | 0x21D5      |        8661 |
|     154 | 0x21D6      |        8662 |
|     155 | 0x21D7      |        8663 |
|     156 | 0x21D8      |        8664 |
|     157 | 0x21D9      |        8665 |
|     158 | 0x21DA      |        8666 |
|     159 | 0x21DB      |        8667 |
|     160 | 0x21DC      |        8668 |
|     161 | 0x21DD      |        8669 |
|     162 | 0x21DE      |        8670 |
|     163 | 0x21DF      |        8671 |
|     164 | 0x21E0      |        8672 |
|     165 | 0x21E1      |        8673 |
|     166 | 0x21E2      |        8674 |
|     167 | 0x21E3      |        8675 |
|     168 | 0x21E4      |        8676 |
|     169 | 0x21E5      |        8677 |
|     170 | 0x21E6      |        8678 |
|     171 | 0x21E7      |        8679 |
|     172 | 0x0951      |        2385 |
|     173 | 0x21E8      |        8680 |
|     174 | 0x21E9      |        8681 |
|     175 | 0x21EA      |        8682 |
|     176 | 0x21EB      |        8683 |
|     177 | 0x21EC      |        8684 |
|     178 | 0x0D22      |        3362 |
|     179 | 0x21ED      |        8685 |
|     180 | 0x21EE      |        8686 |
|     181 | 0x21EF      |        8687 |
|     182 | 0x21F0      |        8688 |
|     183 | 0x00C8      |         200 |
|     184 | 0xFFFD57B4  |  4294793140 |
|     185 | 0x5F3D8     |      390104 |
|     186 | 0x0247      |         583 |
|     187 | 0x04E8      |        1256 |
|     188 | 0xFFFD6077  |  4294795383 |
|     189 | 0x5F2EA     |      389866 |
|     190 | 0x015D      |         349 |
|     191 | 0x0621      |        1569 |
|     192 | 0xFFFD8155  |  4294803797 |
|     193 | 0x5FC81     |      392321 |
|     194 | 0x028F      |         655 |
|     195 | 0x04E7      |        1255 |
|     196 | 0xFFFD771F  |  4294801183 |
|     197 | 0x6010E     |      393486 |
|     198 | 0x037E      |         894 |
|     199 | 0x0F09      |        3849 |
|     200 | 0xFFFD5404  |  4294792196 |
|     201 | 0x5EA74     |      387700 |
|     202 | 0x06A4      |        1700 |
|     203 | 0x0C71      |        3185 |
|     204 | 0x026F      |         623 |
|     205 | 0x0028      |          40 |
|     206 | 0x01EC      |         492 |
|     207 | 0x0CE9      |        3305 |
|     208 | 0x21F3      |        8691 |
|     209 | 0x21F4      |        8692 |
|     210 | 0x21F5      |        8693 |
|     211 | 0x002C      |          44 |
|     212 | 0x00A7      |         167 |
|     213 | 0x0CEC      |        3308 |
|     214 | 0x21F6      |        8694 |
|     215 | 0xFFFD51E7  |  4294791655 |
|     216 | 0x5E166     |      385382 |
|     217 | 0x13B6E     |       80750 |
|     218 | 0x04E6      |        1254 |
|     219 | 0xFFFD5468  |  4294792296 |
|     220 | 0x60D92     |      396690 |
|     221 | 0x1627E     |       90750 |
|     222 | 0x00AC      |         172 |
|     223 | 0x0044      |          68 |
|     224 | 0x0067      |         103 |
|     225 | 0x00F0      |         240 |
|     226 | 0x005D      |          93 |
|     227 | 0xFFFFFF99  |  4294967193 |
|     228 | 0x22114     |      139540 |
|     229 | 0xFFFF29DC  |  4294912476 |
|     230 | 0x0BB8      |        3000 |
|     231 | 0xD624      |       54820 |
|     232 | 0x21F7      |        8695 |
|     233 | 0xFFFDB070  |  4294815856 |
|     234 | 0x1A50E     |      107790 |
|     235 | 0x0C44      |        3140 |
|     236 | 0xFFFF7A72  |  4294933106 |
|     237 | 0x21F8      |        8696 |
|     238 | 0xFFFF83B4  |  4294935476 |
|     239 | 0xFFFED554  |  4294890836 |
|     240 | 0x0D98      |        3480 |
|     241 | 0xFFFFC112  |  4294951186 |
|     242 | 0x4A9C      |       19100 |
|     243 | 0x04C4      |        1220 |
|     244 | 0x0258      |         600 |
|     245 | 0x21F9      |        8697 |
|     246 | 0x21FA      |        8698 |
|     247 | 0xFFFFFF98  |  4294967192 |
|     248 | 0xFFFDCECA  |  4294823626 |
|     249 | 0x2346A     |      144490 |
|     250 | 0x0A5A      |        2650 |
|     251 | 0x8B60      |       35680 |
|     252 | 0x0190      |         400 |
|     253 | 0x54EC      |       21740 |
|     254 | 0xFFFF3AB2  |  4294916786 |
|     255 | 0x0E6A      |        3690 |
|     256 | 0x0ABE      |        2750 |
|     257 | 0x5AA0      |       23200 |
|     258 | 0x0456      |        1110 |
|     259 | 0x21FB      |        8699 |
|     260 | 0x21FC      |        8700 |
|     261 | 0xFFFFFF97  |  4294967191 |
|     262 | 0xFFFE5C00  |  4294859776 |
|     263 | 0xFFFF90FC  |  4294938876 |
|     264 | 0x157C      |        5500 |
|     265 | 0x0DAC      |        3500 |
|     266 | 0x21FD      |        8701 |
|     267 | 0x7F6C      |       32620 |
|     268 | 0x1DED4     |      122580 |
|     269 | 0x09C4      |        2500 |
|     270 | 0xFFFDE4BE  |  4294829246 |
|     271 | 0x0708      |        1800 |
|     272 | 0xFFFF8094  |  4294934676 |
|     273 | 0x1E96      |        7830 |
|     274 | 0x21B42     |      138050 |
|     275 | 0x07D0      |        2000 |
|     276 | 0x8FFC      |       36860 |
|     277 | 0x1C66      |        7270 |
|     278 | 0x04BA      |        1210 |
|     279 | 0xFFFF84A4  |  4294935716 |
|     280 | 0x21FE      |        8702 |
|     281 | 0x21FF      |        8703 |
|     282 | 0xFFFF1AAA  |  4294908586 |
|     283 | 0xFFFFFAF6  |  4294966006 |
|     284 | 0xFFFE4EF4  |  4294856436 |
|     285 | 0x2200      |        8704 |
|     286 | 0x2201      |        8705 |
|     287 | 0xFFFFFF96  |  4294967190 |
|     288 | 0xFFFE2776  |  4294846326 |
|     289 | 0x20134     |      131380 |
|     290 | 0x078A      |        1930 |
|     291 | 0xC67A      |       50810 |
|     292 | 0x01F4      |         500 |
|     293 | 0x2202      |        8706 |
|     294 | 0xE646      |       58950 |
|     295 | 0x85E8      |       34280 |
|     296 | 0x35CA      |       13770 |
|     297 | 0xC45E      |       50270 |
|     298 | 0x0460      |        1120 |
|     299 | 0x2203      |        8707 |
|     300 | 0x2204      |        8708 |
|     301 | 0xFFFFFF95  |  4294967189 |
|     302 | 0x1F838     |      129080 |
|     303 | 0x1D326     |      119590 |
|     304 | 0x094C      |        2380 |
|     305 | 0xFFFDF418  |  4294833176 |
|     306 | 0x2205      |        8709 |
|     307 | 0xFFFFEA3E  |  4294961726 |
|     308 | 0xFFFE51EC  |  4294857196 |
|     309 | 0x0B5E      |        2910 |
|     310 | 0x33B8      |       13240 |
|     311 | 0x044C      |        1100 |
|     312 | 0x2206      |        8710 |
|     313 | 0x2207      |        8711 |
|     314 | 0xFFFFFF94  |  4294967188 |
|     315 | 0x14D02     |       85250 |
|     316 | 0xFFFF7BB2  |  4294933426 |
|     317 | 0x0924      |        2340 |
|     318 | 0x10A2C     |       68140 |
|     319 | 0x2208      |        8712 |
|     320 | 0x3084      |       12420 |
|     321 | 0xFE10      |       65040 |
|     322 | 0x060E      |        1550 |
|     323 | 0x050A      |        1290 |
|     324 | 0xAC58      |       44120 |
|     325 | 0x0438      |        1080 |
|     326 | 0x2209      |        8713 |
|     327 | 0x220A      |        8714 |
|     328 | 0xFFFD607E  |  4294795390 |
|     329 | 0x5F4C9     |      390345 |
|     330 | 0x0155      |         341 |
|     331 | 0x0E93      |        3731 |
|     332 | 0xFFFD65E7  |  4294796775 |
|     333 | 0x5EFC8     |      389064 |
|     334 | 0x01FB      |         507 |
|     335 | 0x0F73      |        3955 |
|     336 | 0xFFFD6E92  |  4294798994 |
|     337 | 0x5FB78     |      392056 |
|     338 | 0x02B7      |         695 |
|     339 | 0x0651      |        1617 |
|     340 | 0x03E7      |         999 |
|     341 | 0x0C90      |        3216 |
|     342 | 0x220B      |        8715 |
|     343 | 0x220C      |        8716 |
|     344 | 0x220D      |        8717 |
|     345 | 0x220E      |        8718 |
|     346 | 0x220F      |        8719 |
|     347 | 0x2210      |        8720 |
|     348 | 0x2211      |        8721 |
|     349 | 0x2212      |        8722 |
|     350 | 0x2213      |        8723 |
|     351 | 0x2214      |        8724 |
|     352 | 0x2215      |        8725 |
|     353 | 0x2216      |        8726 |
|     354 | 0x2217      |        8727 |
|     355 | 0x2218      |        8728 |
|     356 | 0x2219      |        8729 |
|     357 | 0x0097      |         151 |
|     358 | 0x00C9      |         201 |
|     359 | 0x00D7      |         215 |
|     360 | 0x3676F     |      223087 |
|     361 | 0xFFFEE02E  |  4294893614 |
|     362 | 0x012D      |         301 |
|     363 | 0x0E66      |        3686 |
|     364 | 0x36847     |      223303 |
|     365 | 0xFFFED1BE  |  4294889918 |
|     366 | 0x0160      |         352 |
|     367 | 0x0C1F      |        3103 |
|     368 | 0x3740E     |      226318 |
|     369 | 0xFFFEDEC4  |  4294893252 |
|     370 | 0x0123      |         291 |
|     371 | 0x0950      |        2384 |
|     372 | 0x34A12     |      215570 |
|     373 | 0xFFFED393  |  4294890387 |
|     374 | 0x0183      |         387 |
|     375 | 0x0EDD      |        3805 |
|     376 | 0x35990     |      219536 |
|     377 | 0xFFFEE36C  |  4294894444 |
|     378 | 0x0285      |         645 |
|     379 | 0x0F77      |        3959 |
|     380 | 0x0BCC      |        3020 |
|     381 | 0x09B8      |        2488 |
|     382 | 0x052E      |        1326 |
|     383 | 0x0E31      |        3633 |
|     384 | 0x02D9      |         729 |
|     385 | 0x0016      |          22 |
|     386 | 0x2246      |        8774 |
|     387 | 0x2247      |        8775 |
|     388 | 0x02C2      |         706 |
|     389 | 0x006E      |         110 |
|     390 | 0xFFFFFF79  |  4294967161 |
|     391 | 0x03E8      |        1000 |
|     392 | 0x046A      |        1130 |
|     393 | 0x0081      |         129 |
|     394 | 0xA8B4      |       43188 |
|     395 | 0x5A9D7     |      371159 |
|     396 | 0x0246      |         582 |
|     397 | 0xAEF2      |       44786 |
|     398 | 0x5A9E9     |      371177 |
|     399 | 0xFFFFFF89  |  4294967177 |
|     400 | 0xABEE      |       44014 |
|     401 | 0x5B8FD     |      375037 |
|     402 | 0xFFFFFB0E  |  4294966030 |
|     403 | 0x0412      |        1042 |
|     404 | 0x0DC4      |        3524 |
|     405 | 0x006C      |         108 |
|     406 | 0x2248      |        8776 |
|     407 | 0x2249      |        8777 |
|     408 | 0x224A      |        8778 |
|     409 | 0x224B      |        8779 |
|     410 | 0x224C      |        8780 |
|     411 | 0x386F2     |      231154 |
|     412 | 0xFFFEF5C6  |  4294899142 |
|     413 | 0x069E      |        1694 |
|     414 | 0x389FF     |      231935 |
|     415 | 0xFFFEF163  |  4294898019 |
|     416 | 0x0086      |         134 |
|     417 | 0x066F      |        1647 |
|     418 | 0x004A      |          74 |
|     419 | 0x224D      |        8781 |
|     420 | 0x0EE7      |        3815 |
|     421 | 0x224E      |        8782 |
|     422 | 0x224F      |        8783 |
|     423 | 0x2250      |        8784 |
|     424 | 0x0039      |          57 |
|     425 | 0x37435     |      226357 |
|     426 | 0xFFFEDDBB  |  4294892987 |
|     427 | 0x0128      |         296 |
|     428 | 0x362A2     |      221858 |
|     429 | 0xFFFEDACC  |  4294892236 |
|     430 | 0x0163      |         355 |
|     431 | 0x03DB      |         987 |
|     432 | 0x373A8     |      226216 |
|     433 | 0xFFFEE78D  |  4294895501 |
|     434 | 0x0130      |         304 |
|     435 | 0x00A1      |         161 |
|     436 | 0x2251      |        8785 |
|     437 | 0x2252      |        8786 |
|     438 | 0x2253      |        8787 |
|     439 | 0x0050      |          80 |
|     440 | 0x0018      |          24 |

## String References

- **7838**: @@
- **8659**: Are you familiar with the World Trees? [Of course!/The world has lots of trees...]
- **8677**: What now? [Ask about the recent changes.]
- **8722**: Do you have anything to say? [How can we save the World Tree?]

## Events

### Event 65535

#### Metadata

| Field        | Value   |
|--------------|---------|
| Entrypoint   | 0x0000  |
| Data Size    | 1 bytes |
| Instructions | 1       |

```
      00 01 02 03 04 05 06 07  08 09 0A 0B 0C 0D 0E 0F
      -- -- -- -- -- -- -- --  -- -- -- -- -- -- -- --
0000: 00                                                .               
```

#### Opcodes

```
  0: 0x0000 [0x00] END_REQSTACK()
```

### Event 1

#### Metadata

| Field        | Value      |
|--------------|------------|
| Entrypoint   | 0x0001     |
| Data Size    | 7786 bytes |
| Instructions | 856        |

```
      00 01 02 03 04 05 06 07  08 09 0A 0B 0C 0D 0E 0F
      -- -- -- -- -- -- -- --  -- -- -- -- -- -- -- --
0000:    42 1A EA 2C 46 01 38  00 80 4E 00 F0 FF FF 7F   B..,F.8..N.....
0010: 27 10 52 72 10 01 04 27  10 53 72 10 01 04 27 10  '.Rr...'.Sr...'.
0020: 54 72 10 01 04 27 10 55  72 10 01 04 27 10 56 72  Tr...'.Ur...'.Vr
0030: 10 01 04 27 10 57 72 10  01 04 27 10 58 72 10 01  ...'.Wr...'.Xr..
0040: 04 27 10 59 72 10 01 04  27 10 5A 72 10 01 04 27  .'.Yr...'.Zr...'
0050: 10 5C 72 10 01 04 92 01  52 72 10 01 92 01 53 72  .\r.....Rr....Sr
0060: 10 01 92 01 54 72 10 01  92 01 55 72 10 01 92 01  ....Tr....Ur....
0070: 56 72 10 01 92 01 57 72  10 01 92 01 58 72 10 01  Vr....Wr....Xr..
0080: 92 01 59 72 10 01 92 01  5A 72 10 01 92 01 5C 72  ..Yr....Zr....\r
0090: 10 01 94 01 F0 FF FF 7F  94 01 52 72 10 01 94 01  ..........Rr....
00A0: 53 72 10 01 94 01 54 72  10 01 94 01 55 72 10 01  Sr....Tr....Ur..
00B0: 94 01 56 72 10 01 94 01  57 72 10 01 94 01 58 72  ..Vr....Wr....Xr
00C0: 10 01 94 01 59 72 10 01  94 01 5A 72 10 01 94 01  ....Yr....Zr....
00D0: 5C 72 10 01 BA F0 FF FF  7F 01 80 02 80 03 80 04  \r..............
00E0: 80 BA 52 72 10 01 05 80  06 80 07 80 08 80 BA 53  ..Rr...........S
00F0: 72 10 01 09 80 0A 80 0B  80 0C 80 BA 54 72 10 01  r...........Tr..
0100: 0D 80 0E 80 0F 80 08 80  BA 55 72 10 01 0D 80 0E  .........Ur.....
0110: 80 0F 80 08 80 BA 56 72  10 01 10 80 11 80 12 80  ......Vr........
0120: 08 80 BA 57 72 10 01 0D  80 0E 80 0F 80 08 80 BA  ...Wr...........
0130: 58 72 10 01 0D 80 13 80  14 80 08 80 BA 59 72 10  Xr...........Yr.
0140: 01 15 80 16 80 17 80 18  80 BA 5A 72 10 01 0D 80  ..........Zr....
0150: 0E 80 0F 80 08 80 BA 5C  72 10 01 0D 80 0E 80 0F  .......\r.......
0160: 80 08 80 29 10 53 72 10  01 0C 29 10 54 72 10 01  ...).Sr...).Tr..
0170: 0A 29 10 55 72 10 01 0A  29 10 56 72 10 01 09 29  .).Ur...).Vr...)
0180: 10 57 72 10 01 09 29 10  58 72 10 01 09 29 10 59  .Wr...).Xr...).Y
0190: 72 10 01 09 29 10 5A 72  10 01 09 29 10 5C 72 10  r...).Zr...).\r.
01A0: 01 09 29 10 53 72 10 01  0A 80 F0 FF FF 7F 80 52  ..).Sr.........R
01B0: 72 10 01 80 53 72 10 01  80 54 72 10 01 80 55 72  r...Sr...Tr...Ur
01C0: 10 01 80 56 72 10 01 80  57 72 10 01 80 58 72 10  ...Vr...Wr...Xr.
01D0: 01 80 59 72 10 01 80 5A  72 10 01 80 5C 72 10 01  ..Yr...Zr...\r..
01E0: 4A 53 72 10 01 52 72 10  01 27 10 53 72 10 01 02  JSr..Rr..'.Sr...
01F0: 27 10 54 72 10 01 02 27  10 55 72 10 01 02 27 10  '.Tr...'.Ur...'.
0200: 56 72 10 01 02 27 10 57  72 10 01 02 27 10 58 72  Vr...'.Wr...'.Xr
0210: 10 01 02 27 10 59 72 10  01 02 27 10 5A 72 10 01  ...'.Yr...'.Zr..
0220: 02 27 10 5C 72 10 01 02  1C 19 80 29 10 F0 FF FF  .'.\r......)....
0230: 7F 02 03 02 00 02 10 27  10 54 72 10 01 10 27 10  .......'.Tr...'.
0240: 5A 72 10 01 0A 5C 00 1A  80 5C 01 1A 80 9A 45 1B  Zr...\...\....E.
0250: 80 F0 FF FF 7F F0 FF FF  7F 32 33 30 31 1C 80 1A  .........2301...
0260: C9 2C 1C 0B 80 52 1B 80  F0 FF FF 7F F0 FF FF 7F  .,...R..........
0270: 32 33 30 31 45 1B 80 F0  FF FF 7F F0 FF FF 7F 32  2301E..........2
0280: 33 30 32 1C 80 79 00 F0  FF FF 7F 52 72 10 01 29  302..y.....Rr..)
0290: 10 52 72 10 01 0D 1C 19  80 5B 1D 80 52 72 10 01  .Rr......[..Rr..
02A0: 52 72 10 01 61 74 61 30  1C 1E 80 52 1B 80 F0 FF  Rr..ata0...R....
02B0: FF 7F F0 FF FF 7F 32 33  30 32 45 1B 80 F0 FF FF  ......2302E.....
02C0: 7F F0 FF FF 7F 32 33 30  34 1C 80 1C 1F 80 2B 52  .....2304.....+R
02D0: 72 10 01 20 80 23 27 10  52 72 10 01 0E 1C 19 80  r.. .#'.Rr......
02E0: 52 1B 80 F0 FF FF 7F F0  FF FF 7F 32 33 30 34 45  R..........2304E
02F0: 1B 80 F0 FF FF 7F F0 FF  FF 7F 32 33 30 35 1C 80  ..........2305..
0300: 1C 19 80 27 10 F0 FF FF  7F 1C 1C 21 80 1A EA 2C  ...'.......!...,
0310: 1C 19 80 7A 00 52 72 10  01 7A 00 F0 FF FF 7F BA  ...z.Rr..z......
0320: F0 FF FF 7F 22 80 23 80  24 80 25 80 BA 52 72 10  ....".#.$.%..Rr.
0330: 01 0D 80 0E 80 0F 80 08  80 27 10 F0 FF FF 7F 1A  .........'......
0340: 5B 26 80 52 72 10 01 52  72 10 01 73 74 70 30 5B  [&.Rr..Rr..stp0[
0350: 27 80 54 72 10 01 54 72  10 01 79 72 61 30 CD 28  '.Tr..Tr..yra0.(
0360: 80 54 72 10 01 54 72 10  01 73 74 61 30 1C 80 27  .Tr..Tr..sta0..'
0370: 10 4E 72 10 01 04 03 02  10 29 80 27 10 4D 72 10  .Nr......).'.Mr.
0380: 01 01 1C 2A 80 52 1B 80  F0 FF FF 7F F0 FF FF 7F  ...*.R..........
0390: 32 33 30 35 45 1B 80 F0  FF FF 7F F0 FF FF 7F 61  2305E..........a
03A0: 68 30 31 1C 80 1A C9 2C  1C 2B 80 4E 01 F0 FF FF  h01....,.+.N....
03B0: 7F 27 10 54 72 10 01 11  2A 10 4D 72 10 01 27 10  .'.Tr...*.Mr..'.
03C0: 4E 72 10 01 0B 52 1B 80  F0 FF FF 7F F0 FF FF 7F  Nr...R..........
03D0: 61 68 30 31 45 1B 80 F0  FF FF 7F F0 FF FF 7F 61  ah01E..........a
03E0: 68 30 33 1C 80 5B 26 80  52 72 10 01 52 72 10 01  h03..[&.Rr..Rr..
03F0: 73 74 70 31 5B 27 80 54  72 10 01 54 72 10 01 79  stp1['.Tr..Tr..y
0400: 72 61 31 03 02 10 2C 80  27 10 4D 72 10 01 01 1C  ra1...,.'.Mr....
0410: 2D 80 27 10 4E 72 10 01  04 1C 2E 80 2B 52 72 10  -.'.Nr......+Rr.
0420: 01 2F 80 1C 19 80 2A 10  4D 72 10 01 5D 1C 80 19  ./....*.Mr..]...
0430: 80 1A 3D 2E 1C 19 80 4E  00 F0 FF FF 7F BA F0 FF  ..=....N........
0440: FF 7F 30 80 31 80 32 80  33 80 4A F0 FF FF 7F 52  ..0.1.2.3.J....R
0450: 72 10 01 6F 76 F0 FF FF  7F 5B 34 80 55 72 10 01  r..ov....[4.Ur..
0460: 55 72 10 01 61 72 63 30  27 10 4E 72 10 01 05 5C  Ur..arc0'.Nr...\
0470: 00 35 80 5C 01 35 80 9A  5B 36 80 52 72 10 01 52  .5.\.5..[6.Rr..R
0480: 72 10 01 00 FE FE FE 5B  27 80 54 72 10 01 54 72  r......['.Tr..Tr
0490: 10 01 00 FE FE FE 52 1B  80 F0 FF FF 7F F0 FF FF  ......R.........
04A0: 7F 61 68 30 33 02 02 00  37 80 80 C1 04 45 1B 80  .ah03...7....E..
04B0: F0 FF FF 7F F0 FF FF 7F  68 6D 30 31 1C 80 01 5E  ........hm01...^
04C0: 05 02 02 00 38 80 80 DD  04 45 1B 80 F0 FF FF 7F  ....8....E......
04D0: F0 FF FF 7F 68 66 30 31  1C 80 01 5E 05 02 02 00  ....hf01...^....
04E0: 39 80 80 F9 04 45 1B 80  F0 FF FF 7F F0 FF FF 7F  9....E..........
04F0: 65 6D 30 31 1C 80 01 5E  05 02 02 00 3A 80 80 15  em01...^....:...
0500: 05 45 1B 80 F0 FF FF 7F  F0 FF FF 7F 65 66 30 31  .E..........ef01
0510: 1C 80 01 5E 05 02 02 00  3B 80 80 31 05 45 1B 80  ...^....;..1.E..
0520: F0 FF FF 7F F0 FF FF 7F  6D 74 30 31 1C 80 01 5E  ........mt01...^
0530: 05 02 02 00 3C 80 80 4D  05 45 1B 80 F0 FF FF 7F  ....<..M.E......
0540: F0 FF FF 7F 67 6C 30 31  1C 80 01 5E 05 45 1B 80  ....gl01...^.E..
0550: F0 FF FF 7F F0 FF FF 7F  74 72 30 31 1C 80 1A 0B  ........tr01....
0560: 2D 6E F0 FF FF 7F 3D 80  99 F0 FF FF 7F 1C 3E 80  -n....=.......>.
0570: AE 05 52 72 10 01 54 72  10 01 5B 36 80 52 72 10  ..Rr..Tr..[6.Rr.
0580: 01 52 72 10 01 63 61 70  30 5B 27 80 54 72 10 01  .Rr..cap0['.Tr..
0590: 54 72 10 01 63 61 70 30  1C 19 80 52 1B 80 F0 FF  Tr..cap0...R....
05A0: FF 7F F0 FF FF 7F 68 6D  30 31 52 1B 80 F0 FF FF  ......hm01R.....
05B0: 7F F0 FF FF 7F 68 66 30  31 52 1B 80 F0 FF FF 7F  .....hf01R......
05C0: F0 FF FF 7F 65 6D 30 31  52 1B 80 F0 FF FF 7F F0  ....em01R.......
05D0: FF FF 7F 65 66 30 31 52  1B 80 F0 FF FF 7F F0 FF  ...ef01R........
05E0: FF 7F 6D 74 30 31 52 1B  80 F0 FF FF 7F F0 FF FF  ..mt01R.........
05F0: 7F 67 6C 30 31 52 1B 80  F0 FF FF 7F F0 FF FF 7F  .gl01R..........
0600: 74 72 30 31 45 1B 80 F0  FF FF 7F F0 FF FF 7F 61  tr01E..........a
0610: 68 30 35 1C 80 1C 2C 80  27 10 F0 FF FF 7F 19 7B  h05...,.'......{
0620: F0 FF FF 7F 1C 3F 80 52  1B 80 F0 FF FF 7F F0 FF  .....?.R........
0630: FF 7F 61 68 30 35 45 1B  80 F0 FF FF 7F F0 FF FF  ..ah05E.........
0640: 7F 61 68 64 35 1C 80 1C  21 80 2B 52 72 10 01 40  .ahd5...!.+Rr..@
0650: 80 23 52 1B 80 F0 FF FF  7F F0 FF FF 7F 61 68 64  .#R..........ahd
0660: 35 45 1B 80 F0 FF FF 7F  F0 FF FF 7F 61 68 62 35  5E..........ahb5
0670: 1C 80 1C 1E 80 2B 52 72  10 01 41 80 1C 19 80 BA  .....+Rr..A.....
0680: F0 FF FF 7F 42 80 43 80  44 80 45 80 4A F0 FF FF  ....B.C.D.E.J...
0690: 7F 52 72 10 01 23 52 1B  80 F0 FF FF 7F F0 FF FF  .Rr..#R.........
06A0: 7F 61 68 62 35 02 02 00  37 80 80 C1 06 45 1B 80  .ahb5...7....E..
06B0: F0 FF FF 7F F0 FF FF 7F  68 6D 30 32 1C 80 01 5E  ........hm02...^
06C0: 07 02 02 00 38 80 80 DD  06 45 1B 80 F0 FF FF 7F  ....8....E......
06D0: F0 FF FF 7F 68 66 30 32  1C 80 01 5E 07 02 02 00  ....hf02...^....
06E0: 39 80 80 F9 06 45 1B 80  F0 FF FF 7F F0 FF FF 7F  9....E..........
06F0: 65 6D 30 32 1C 80 01 5E  07 02 02 00 3A 80 80 15  em02...^....:...
0700: 07 45 1B 80 F0 FF FF 7F  F0 FF FF 7F 65 66 30 32  .E..........ef02
0710: 1C 80 01 5E 07 02 02 00  3B 80 80 31 07 45 1B 80  ...^....;..1.E..
0720: F0 FF FF 7F F0 FF FF 7F  6D 74 30 32 1C 80 01 5E  ........mt02...^
0730: 07 02 02 00 3C 80 80 4D  07 45 1B 80 F0 FF FF 7F  ....<..M.E......
0740: F0 FF FF 7F 67 6C 30 32  1C 80 01 5E 07 45 1B 80  ....gl02...^.E..
0750: F0 FF FF 7F F0 FF FF 7F  74 72 30 32 1C 80 27 10  ........tr02..'.
0760: F0 FF FF 7F 1B BA 52 72  10 01 46 80 47 80 48 80  ......Rr..F.G.H.
0770: 08 80 BA 54 72 10 01 46  80 47 80 48 80 08 80 1C  ...Tr..F.G.H....
0780: 49 80 5B 34 80 55 72 10  01 55 72 10 01 61 72 63  I.[4.Ur..Ur..arc
0790: 31 52 1B 80 F0 FF FF 7F  F0 FF FF 7F 68 6D 30 32  1R..........hm02
07A0: 52 1B 80 F0 FF FF 7F F0  FF FF 7F 68 66 30 32 52  R..........hf02R
07B0: 1B 80 F0 FF FF 7F F0 FF  FF 7F 65 6D 30 32 52 1B  ..........em02R.
07C0: 80 F0 FF FF 7F F0 FF FF  7F 65 66 30 32 52 1B 80  .........ef02R..
07D0: F0 FF FF 7F F0 FF FF 7F  6D 74 30 32 52 1B 80 F0  ........mt02R...
07E0: FF FF 7F F0 FF FF 7F 67  6C 30 32 52 1B 80 F0 FF  .......gl02R....
07F0: FF 7F F0 FF FF 7F 74 72  30 32 45 1B 80 F0 FF FF  ......tr02E.....
0800: 7F F0 FF FF 7F 61 68 30  36 1C 80 1C 2E 80 27 10  .....ah06.....'.
0810: 4E 72 10 01 07 5B 34 80  57 72 10 01 57 72 10 01  Nr...[4.Wr..Wr..
0820: 67 61 6B 30 CD 4A 80 57  72 10 01 57 72 10 01 73  gak0.J.Wr..Wr..s
0830: 74 30 31 1C 80 1C 1E 80  27 10 4E 72 10 01 0C 52  t01.....'.Nr...R
0840: 1B 80 F0 FF FF 7F F0 FF  FF 7F 61 68 30 36 45 1B  ..........ah06E.
0850: 80 F0 FF FF 7F F0 FF FF  7F 61 68 30 37 1C 80 27  .........ah07..'
0860: 10 4E 72 10 01 0F 4E 01  52 72 10 01 4E 01 54 72  .Nr...N.Rr..N.Tr
0870: 10 01 4E 01 F0 FF FF 7F  7B F0 FF FF 7F 1C 1E 80  ..N.....{.......
0880: 27 10 4E 72 10 01 06 5B  34 80 56 72 10 01 56 72  '.Nr...[4.Vr..Vr
0890: 10 01 67 61 6B 31 CD 4A  80 56 72 10 01 56 72 10  ..gak1.J.Vr..Vr.
08A0: 01 73 74 30 32 1C 80 03  02 10 4B 80 27 10 4D 72  .st02.....K.'.Mr
08B0: 10 01 01 1C 1E 80 27 10  4E 72 10 01 08 5B 0C 80  ......'.Nr...[..
08C0: 58 72 10 01 58 72 10 01  6F 6B 69 30 CD 4A 80 58  Xr..Xr..oki0.J.X
08D0: 72 10 01 58 72 10 01 73  74 30 33 1C 80 52 1B 80  r..Xr..st03..R..
08E0: F0 FF FF 7F F0 FF FF 7F  61 68 30 37 45 1B 80 F0  ........ah07E...
08F0: FF FF 7F F0 FF FF 7F 61  68 30 38 1C 80 1C 4C 80  .......ah08...L.
0900: 27 10 4E 72 10 01 0D 5B  0C 80 55 72 10 01 55 72  '.Nr...[..Ur..Ur
0910: 10 01 6F 6B 69 31 CD 4A  80 55 72 10 01 55 72 10  ..oki1.J.Ur..Ur.
0920: 01 73 74 30 34 1C 80 27  10 4E 72 10 01 05 1C 4D  .st04..'.Nr....M
0930: 80 52 1B 80 F0 FF FF 7F  F0 FF FF 7F 61 68 30 38  .R..........ah08
0940: 45 1B 80 F0 FF FF 7F F0  FF FF 7F 61 68 31 30 1C  E..........ah10.
0950: 80 1C 19 80 27 10 4E 72  10 01 0E 53 55 72 10 01  ....'.Nr...SUr..
0960: 55 72 10 01 6F 6B 69 31  4E 00 F0 FF FF 7F 52 1B  Ur..oki1N.....R.
0970: 80 F0 FF FF 7F F0 FF FF  7F 61 68 30 38 02 02 00  .........ah08...
0980: 37 80 80 99 09 45 1B 80  F0 FF FF 7F F0 FF FF 7F  7....E..........
0990: 68 6D 30 33 1C 80 01 36  0A 02 02 00 38 80 80 B5  hm03...6....8...
09A0: 09 45 1B 80 F0 FF FF 7F  F0 FF FF 7F 68 66 30 33  .E..........hf03
09B0: 1C 80 01 36 0A 02 02 00  39 80 80 D1 09 45 1B 80  ...6....9....E..
09C0: F0 FF FF 7F F0 FF FF 7F  65 6D 30 33 1C 80 01 36  ........em03...6
09D0: 0A 02 02 00 3A 80 80 ED  09 45 1B 80 F0 FF FF 7F  ....:....E......
09E0: F0 FF FF 7F 65 66 30 33  1C 80 01 36 0A 02 02 00  ....ef03...6....
09F0: 3B 80 80 09 0A 45 1B 80  F0 FF FF 7F F0 FF FF 7F  ;....E..........
0A00: 6D 74 30 33 1C 80 01 36  0A 02 02 00 3C 80 80 25  mt03...6....<..%
0A10: 0A 45 1B 80 F0 FF FF 7F  F0 FF FF 7F 67 6C 30 33  .E..........gl03
0A20: 1C 80 01 36 0A 45 1B 80  F0 FF FF 7F F0 FF FF 7F  ...6.E..........
0A30: 74 72 30 33 1C 80 5B 0C  80 55 72 10 01 55 72 10  tr03..[..Ur..Ur.
0A40: 01 6B 62 74 73 79 00 F0  FF FF 7F 55 72 10 01 6E  .kbtsy.....Ur..n
0A50: F0 FF FF 7F 4E 80 99 F0  FF FF 7F 1C 2A 80 27 10  ....N.......*.'.
0A60: 4D 72 10 01 04 1C 21 80  52 1B 80 F0 FF FF 7F F0  Mr....!.R.......
0A70: FF FF 7F 68 6D 30 33 52  1B 80 F0 FF FF 7F F0 FF  ...hm03R........
0A80: FF 7F 68 66 30 33 52 1B  80 F0 FF FF 7F F0 FF FF  ..hf03R.........
0A90: 7F 65 6D 30 33 52 1B 80  F0 FF FF 7F F0 FF FF 7F  .em03R..........
0AA0: 65 66 30 33 52 1B 80 F0  FF FF 7F F0 FF FF 7F 6D  ef03R..........m
0AB0: 74 30 33 52 1B 80 F0 FF  FF 7F F0 FF FF 7F 67 6C  t03R..........gl
0AC0: 30 33 52 1B 80 F0 FF FF  7F F0 FF FF 7F 74 72 30  03R..........tr0
0AD0: 33 45 1B 80 F0 FF FF 7F  F0 FF FF 7F 61 68 32 30  3E..........ah20
0AE0: 1C 80 1C 2C 80 52 1B 80  F0 FF FF 7F F0 FF FF 7F  ...,.R..........
0AF0: 61 68 32 30 45 1B 80 F0  FF FF 7F F0 FF FF 7F 61  ah20E..........a
0B00: 68 32 31 1C 80 1C 4F 80  7B F0 FF FF 7F 2B 52 72  h21...O.{....+Rr
0B10: 10 01 50 80 23 52 1B 80  F0 FF FF 7F F0 FF FF 7F  ..P.#R..........
0B20: 61 68 32 31 45 1B 80 F0  FF FF 7F F0 FF FF 7F 61  ah21E..........a
0B30: 68 32 61 1C 80 2B 52 72  10 01 51 80 23 52 1B 80  h2a..+Rr..Q.#R..
0B40: F0 FF FF 7F F0 FF FF 7F  61 68 32 61 02 02 00 37  ........ah2a...7
0B50: 80 80 68 0B 45 1B 80 F0  FF FF 7F F0 FF FF 7F 68  ..h.E..........h
0B60: 6D 30 33 1C 80 01 05 0C  02 02 00 38 80 80 84 0B  m03........8....
0B70: 45 1B 80 F0 FF FF 7F F0  FF FF 7F 68 66 30 33 1C  E..........hf03.
0B80: 80 01 05 0C 02 02 00 39  80 80 A0 0B 45 1B 80 F0  .......9....E...
0B90: FF FF 7F F0 FF FF 7F 65  6D 30 33 1C 80 01 05 0C  .......em03.....
0BA0: 02 02 00 3A 80 80 BC 0B  45 1B 80 F0 FF FF 7F F0  ...:....E.......
0BB0: FF FF 7F 65 66 30 33 1C  80 01 05 0C 02 02 00 3B  ...ef03........;
0BC0: 80 80 D8 0B 45 1B 80 F0  FF FF 7F F0 FF FF 7F 6D  ....E..........m
0BD0: 74 30 33 1C 80 01 05 0C  02 02 00 3C 80 80 F4 0B  t03........<....
0BE0: 45 1B 80 F0 FF FF 7F F0  FF FF 7F 67 6C 30 33 1C  E..........gl03.
0BF0: 80 01 05 0C 45 1B 80 F0  FF FF 7F F0 FF FF 7F 74  ....E..........t
0C00: 72 30 33 1C 80 5B 52 80  52 72 10 01 52 72 10 01  r03..[R.Rr..Rr..
0C10: 00 FE FE FE 5B 53 80 54  72 10 01 54 72 10 01 00  ....[S.Tr..Tr...
0C20: FE FE FE 6E F0 FF FF 7F  3B 80 99 F0 FF FF 7F 1C  ...n....;.......
0C30: 1E 80 5B 52 80 52 72 10  01 52 72 10 01 63 61 70  ..[R.Rr..Rr..cap
0C40: 32 5B 53 80 54 72 10 01  54 72 10 01 63 61 70 32  2[S.Tr..Tr..cap2
0C50: 03 02 10 54 80 27 10 4D  72 10 01 01 1C 19 80 BA  ...T.'.Mr.......
0C60: 58 72 10 01 55 80 56 80  57 80 08 80 BA 59 72 10  Xr..U.V.W....Yr.
0C70: 01 55 80 56 80 57 80 08  80 BA 5A 72 10 01 55 80  .U.V.W....Zr..U.
0C80: 56 80 57 80 08 80 52 1B  80 F0 FF FF 7F F0 FF FF  V.W...R.........
0C90: 7F 68 6D 30 33 52 1B 80  F0 FF FF 7F F0 FF FF 7F  .hm03R..........
0CA0: 68 66 30 33 52 1B 80 F0  FF FF 7F F0 FF FF 7F 65  hf03R..........e
0CB0: 6D 30 33 52 1B 80 F0 FF  FF 7F F0 FF FF 7F 65 66  m03R..........ef
0CC0: 30 33 52 1B 80 F0 FF FF  7F F0 FF FF 7F 6D 74 30  03R..........mt0
0CD0: 33 52 1B 80 F0 FF FF 7F  F0 FF FF 7F 67 6C 30 33  3R..........gl03
0CE0: 52 1B 80 F0 FF FF 7F F0  FF FF 7F 74 72 30 33 45  R..........tr03E
0CF0: 1B 80 F0 FF FF 7F F0 FF  FF 7F 61 68 32 33 1C 80  ..........ah23..
0D00: 5B 58 80 56 72 10 01 56  72 10 01 6B 69 6B 73 5B  [X.Vr..Vr..kiks[
0D10: 0C 80 57 72 10 01 57 72  10 01 6B 62 74 73 2A 10  ..Wr..Wr..kbts*.
0D20: 4D 72 10 01 5B 58 80 59  72 10 01 59 72 10 01 6A  Mr..[X.Yr..Yr..j
0D30: 6D 70 31 1C 19 80 5B 59  80 58 72 10 01 58 72 10  mp1...[Y.Xr..Xr.
0D40: 01 61 6F 72 31 5B 52 80  5A 72 10 01 5A 72 10 01  .aor1[R.Zr..Zr..
0D50: 6B 65 6E 30 03 02 10 5A  80 27 10 4D 72 10 01 01  ken0...Z.'.Mr...
0D60: 1C 1E 80 52 1B 80 F0 FF  FF 7F F0 FF FF 7F 61 68  ...R..........ah
0D70: 32 33 45 1B 80 F0 FF FF  7F F0 FF FF 7F 61 68 32  23E..........ah2
0D80: 35 1C 80 27 10 4E 72 10  01 0A 5D 1C 80 5B 80 2A  5..'.Nr...]..[.*
0D90: 10 4D 72 10 01 52 1B 80  F0 FF FF 7F F0 FF FF 7F  .Mr..R..........
0DA0: 61 68 32 35 45 1B 80 F0  FF FF 7F F0 FF FF 7F 61  ah25E..........a
0DB0: 68 32 38 1C 80 27 10 4E  72 10 01 03 5B 58 80 59  h28..'.Nr...[X.Y
0DC0: 72 10 01 59 72 10 01 6A  6D 70 32 03 02 10 5C 80  r..Yr..jmp2...\.
0DD0: 27 10 4D 72 10 01 01 2A  10 4D 72 10 01 52 1B 80  '.Mr...*.Mr..R..
0DE0: F0 FF FF 7F F0 FF FF 7F  61 68 32 38 45 1B 80 F0  ........ah28E...
0DF0: FF FF 7F F0 FF FF 7F 61  68 33 30 1C 80 5B 5D 80  .......ah30..[].
0E00: 52 72 10 01 52 72 10 01  00 FE FE FE 5B 53 80 54  Rr..Rr......[S.T
0E10: 72 10 01 54 72 10 01 00  FE FE FE 1C 19 80 5B 5E  r..Tr.........[^
0E20: 80 53 72 10 01 53 72 10  01 68 6E 64 30 03 02 10  .Sr..Sr..hnd0...
0E30: 5F 80 27 10 4D 72 10 01  01 5B 5D 80 52 72 10 01  _.'.Mr...[].Rr..
0E40: 52 72 10 01 63 61 70 34  5B 53 80 54 72 10 01 54  Rr..cap4[S.Tr..T
0E50: 72 10 01 63 61 70 34 2A  10 4D 72 10 01 81 00 52  r..cap4*.Mr....R
0E60: 72 10 01 7C 00 52 72 10  01 52 1B 80 F0 FF FF 7F  r..|.Rr..R......
0E70: F0 FF FF 7F 61 68 33 30  45 1B 80 F0 FF FF 7F F0  ....ah30E.......
0E80: FF FF 7F 61 68 33 32 1C  80 5B 5D 80 52 72 10 01  ...ah32..[].Rr..
0E90: 52 72 10 01 63 61 70 35  5B 53 80 54 72 10 01 54  Rr..cap5[S.Tr..T
0EA0: 72 10 01 63 61 70 35 03  02 10 60 80 27 10 4D 72  r..cap5...`.'.Mr
0EB0: 10 01 01 1C 19 80 2B 52  72 10 01 61 80 1C 4C 80  ......+Rr..a..L.
0EC0: 2B 52 72 10 01 62 80 1C  19 80 BA 58 72 10 01 0D  +Rr..b.....Xr...
0ED0: 80 0E 80 0F 80 08 80 BA  59 72 10 01 0D 80 0E 80  ........Yr......
0EE0: 0F 80 08 80 AE 06 54 72  10 01 CD 3B 80 F8 FF FF  ......Tr...;....
0EF0: 7F F8 FF FF 7F 73 30 30  32 1C 80 45 1B 80 54 72  .....s002..E..Tr
0F00: 10 01 54 72 10 01 73 65  30 31 1C 80 2A 10 4D 72  ..Tr..se01..*.Mr
0F10: 10 01 5B 52 80 52 72 10  01 52 72 10 01 69 74 61  ..[R.Rr..Rr..ita
0F20: 30 5B 59 80 58 72 10 01  58 72 10 01 69 74 61 30  0[Y.Xr..Xr..ita0
0F30: 5B 63 80 59 72 10 01 59  72 10 01 61 77 61 30 1C  [c.Yr..Yr..awa0.
0F40: 49 80 52 1B 80 F0 FF FF  7F F0 FF FF 7F 61 68 33  I.R..........ah3
0F50: 30 45 1B 80 F0 FF FF 7F  F0 FF FF 7F 61 68 33 33  0E..........ah33
0F60: 1C 80 4E 01 54 72 10 01  1C 2C 80 7C 01 52 72 10  ..N.Tr...,.|.Rr.
0F70: 01 81 00 58 72 10 01 5B  52 80 52 72 10 01 52 72  ...Xr..[R.Rr..Rr
0F80: 10 01 69 74 61 31 5B 59  80 58 72 10 01 58 72 10  ..ita1[Y.Xr..Xr.
0F90: 01 69 74 61 31 03 02 10  5F 80 27 10 4D 72 10 01  .ita1..._.'.Mr..
0FA0: 01 2B 52 72 10 01 64 80  23 2A 10 4D 72 10 01 1A  .+Rr..d.#*.Mr...
0FB0: EA 2C 1C 19 80 81 01 52  72 10 01 81 01 58 72 10  .,.....Rr....Xr.
0FC0: 01 2C 52 72 10 01 52 72  10 01 77 37 6F 6E 27 10  .,Rr..Rr..w7on'.
0FD0: 52 72 10 01 0F 52 1B 80  F0 FF FF 7F F0 FF FF 7F  Rr...R..........
0FE0: 61 68 33 33 4E 01 54 72  10 01 4E 01 59 72 10 01  ah33N.Tr..N.Yr..
0FF0: 4E 01 5A 72 10 01 4E 01  5C 72 10 01 6B 69 64 6C  N.Zr..N.\r..kidl
1000: 30 55 72 10 01 6B 69 64  6C 30 56 72 10 01 6B 69  0Ur..kidl0Vr..ki
1010: 64 6C 30 57 72 10 01 6B  69 64 6C 30 58 72 10 01  dl0Wr..kidl0Xr..
1020: 6B 69 64 6C 30 52 72 10  01 27 05 53 72 10 01 03  kidl0Rr..'.Sr...
1030: 27 05 55 72 10 01 03 27  05 56 72 10 01 03 27 05  '.Ur...'.Vr...'.
1040: 57 72 10 01 03 27 05 58  72 10 01 03 59 05 56 72  Wr...'.Xr...Y.Vr
1050: 10 01 01 BA F0 FF FF 7F  65 80 66 80 67 80 68 80  ........e.f.g.h.
1060: BA 52 72 10 01 69 80 6A  80 6B 80 68 80 BA 53 72  .Rr..i.j.k.h..Sr
1070: 10 01 6C 80 6D 80 6E 80  6F 80 BA 55 72 10 01 70  ..l.m.n.o..Ur..p
1080: 80 71 80 72 80 73 80 BA  56 72 10 01 74 80 75 80  .q.r.s..Vr..t.u.
1090: 2D 80 68 80 BA 57 72 10  01 76 80 77 80 78 80 79  -.h..Wr..v.w.x.y
10A0: 80 BA 58 72 10 01 7A 80  7B 80 7C 80 73 80 80 52  ..Xr..z.{.|.s..R
10B0: 72 10 01 80 F0 FF FF 7F  80 53 72 10 01 80 55 72  r........Sr...Ur
10C0: 10 01 80 56 72 10 01 80  57 72 10 01 80 58 72 10  ...Vr...Wr...Xr.
10D0: 01 4A 55 72 10 01 52 72  10 01 4A 55 72 10 01 52  .JUr..Rr..JUr..R
10E0: 72 10 01 4A 56 72 10 01  52 72 10 01 4A 57 72 10  r..JVr..Rr..JWr.
10F0: 01 F0 FF FF 7F 4A 58 72  10 01 F0 FF FF 7F 4A F0  .....JXr......J.
1100: FF FF 7F 53 72 10 01 4A  52 72 10 01 53 72 10 01  ...Sr..JRr..Sr..
1110: 6F 76 52 72 10 01 7B F0  FF FF 7F 7B 52 72 10 01  ovRr..{....{Rr..
1120: 7B 53 72 10 01 CD 2C 80  53 72 10 01 53 72 10 01  {Sr...,.Sr..Sr..
1130: 00 FE FE FE 1C 80 5C 00  1A 80 5C 01 1A 80 9A 48  ......\...\....H
1140: 7D 80 23 45 7E 80 F0 FF  FF 7F F0 FF FF 7F 79 73  }.#E~.........ys
1150: 30 31 1C 80 1A C9 2C 1C  4F 80 52 7E 80 F0 FF FF  01....,.O.R~....
1160: 7F F0 FF FF 7F 79 73 30  31 45 7E 80 F0 FF FF 7F  .....ys01E~.....
1170: F0 FF FF 7F 73 30 37 36  1C 80 1C 19 80 CD 2C 80  ....s076......,.
1180: 53 72 10 01 53 72 10 01  70 6F 77 31 1C 80 5B 5E  Sr..Sr..pow1..[^
1190: 80 53 72 10 01 53 72 10  01 74 6C 6B 30 2B 53 72  .Sr..Sr..tlk0+Sr
11A0: 10 01 7F 80 23 52 7E 80  F0 FF FF 7F F0 FF FF 7F  ....#R~.........
11B0: 73 30 37 36 45 7E 80 F0  FF FF 7F F0 FF FF 7F 73  s076E~.........s
11C0: 30 37 37 1C 80 CD 2C 80  53 72 10 01 53 72 10 01  077...,.Sr..Sr..
11D0: 70 6F 77 31 1C 80 2B 53  72 10 01 80 80 23 5B 5E  pow1..+Sr....#[^
11E0: 80 53 72 10 01 53 72 10  01 74 6C 6B 31 52 7E 80  .Sr..Sr..tlk1R~.
11F0: F0 FF FF 7F F0 FF FF 7F  73 30 37 37 02 02 00 81  ........s077....
1200: 80 80 18 12 45 7E 80 F0  FF FF 7F F0 FF FF 7F 79  ....E~.........y
1210: 73 30 32 1C 80 01 45 12  02 02 00 82 80 80 34 12  s02...E.......4.
1220: 45 7E 80 F0 FF FF 7F F0  FF FF 7F 79 73 30 32 1C  E~.........ys02.
1230: 80 01 45 12 45 7E 80 F0  FF FF 7F F0 FF FF 7F 73  ..E.E~.........s
1240: 30 37 38 1C 80 79 00 F0  FF FF 7F 52 72 10 01 2B  078..y.....Rr..+
1250: 52 72 10 01 83 80 23 6E  F0 FF FF 7F 3B 80 99 F0  Rr....#n....;...
1260: FF FF 7F 1C 21 80 79 00  52 72 10 01 F0 FF FF 7F  ....!.y.Rr......
1270: 1C 19 80 2B 52 72 10 01  84 80 23 52 7E 80 F0 FF  ...+Rr....#R~...
1280: FF 7F F0 FF FF 7F 79 73  30 32 52 7E 80 F0 FF FF  ......ys02R~....
1290: 7F F0 FF FF 7F 73 30 37  38 45 7E 80 F0 FF FF 7F  .....s078E~.....
12A0: F0 FF FF 7F 73 30 38 30  1C 80 7B 52 72 10 01 1C  ....s080..{Rr...
12B0: 19 80 7B F0 FF FF 7F 2B  52 72 10 01 85 80 23 52  ..{....+Rr....#R
12C0: 7E 80 F0 FF FF 7F F0 FF  FF 7F 73 30 38 30 45 7E  ~.........s080E~
12D0: 80 F0 FF FF 7F F0 FF FF  7F 73 30 38 31 1C 80 29  .........s081..)
12E0: 10 53 72 10 01 0B CD 2C  80 53 72 10 01 53 72 10  .Sr....,.Sr..Sr.
12F0: 01 70 6F 77 31 1C 80 5B  5E 80 53 72 10 01 53 72  .pow1..[^.Sr..Sr
1300: 10 01 74 6C 6B 30 2B 53  72 10 01 86 80 23 5B 5E  ..tlk0+Sr....#[^
1310: 80 53 72 10 01 53 72 10  01 74 6C 6B 31 52 7E 80  .Sr..Sr..tlk1R~.
1320: F0 FF FF 7F F0 FF FF 7F  73 30 38 31 45 7E 80 F0  ........s081E~..
1330: FF FF 7F F0 FF FF 7F 73  30 38 32 1C 80 2B 52 72  .......s082..+Rr
1340: 10 01 87 80 23 27 10 53  72 10 01 11 1C 2A 80 52  ....#'.Sr....*.R
1350: 7E 80 F0 FF FF 7F F0 FF  FF 7F 73 30 38 32 45 7E  ~.........s082E~
1360: 80 F0 FF FF 7F F0 FF FF  7F 73 30 38 33 1C 80 2A  .........s083..*
1370: 10 53 72 10 01 1C 19 80  CD 2C 80 53 72 10 01 53  .Sr......,.Sr..S
1380: 72 10 01 70 6F 77 31 1C  80 5B 5E 80 53 72 10 01  r..pow1..[^.Sr..
1390: 53 72 10 01 74 6C 6B 30  2B 53 72 10 01 88 80 23  Sr..tlk0+Sr....#
13A0: 5B 5E 80 53 72 10 01 53  72 10 01 74 6C 6B 31 5B  [^.Sr..Sr..tlk1[
13B0: 89 80 52 72 10 01 52 72  10 01 74 6C 6B 30 2B 52  ..Rr..Rr..tlk0+R
13C0: 72 10 01 8A 80 23 5B 89  80 52 72 10 01 52 72 10  r....#[..Rr..Rr.
13D0: 01 74 6C 6B 31 52 7E 80  F0 FF FF 7F F0 FF FF 7F  .tlk1R~.........
13E0: 73 30 38 33 45 7E 80 F0  FF FF 7F F0 FF FF 7F 73  s083E~.........s
13F0: 30 38 34 1C 80 CD 2C 80  53 72 10 01 53 72 10 01  084...,.Sr..Sr..
1400: 70 6F 77 31 1C 80 5B 5E  80 53 72 10 01 53 72 10  pow1..[^.Sr..Sr.
1410: 01 74 6C 6B 30 7B 52 72  10 01 2B 53 72 10 01 8B  .tlk0{Rr..+Sr...
1420: 80 23 5B 5E 80 53 72 10  01 53 72 10 01 74 6C 6B  .#[^.Sr..Sr..tlk
1430: 31 52 7E 80 F0 FF FF 7F  F0 FF FF 7F 73 30 38 34  1R~.........s084
1440: 45 7E 80 F0 FF FF 7F F0  FF FF 7F 73 30 38 35 1C  E~.........s085.
1450: 80 2B 52 72 10 01 8C 80  23 5B 89 80 52 72 10 01  .+Rr....#[..Rr..
1460: 52 72 10 01 74 6C 6B 30  2B 52 72 10 01 8D 80 23  Rr..tlk0+Rr....#
1470: 5B 89 80 52 72 10 01 52  72 10 01 74 6C 6B 31 52  [..Rr..Rr..tlk1R
1480: 7E 80 F0 FF FF 7F F0 FF  FF 7F 73 30 38 35 45 7E  ~.........s085E~
1490: 80 F0 FF FF 7F F0 FF FF  7F 73 30 38 36 1C 80 CD  .........s086...
14A0: 2C 80 53 72 10 01 53 72  10 01 70 6F 77 31 1C 80  ,.Sr..Sr..pow1..
14B0: 5B 5E 80 53 72 10 01 53  72 10 01 74 6C 6B 30 2B  [^.Sr..Sr..tlk0+
14C0: 53 72 10 01 8E 80 23 CD  2C 80 53 72 10 01 53 72  Sr....#.,.Sr..Sr
14D0: 10 01 70 6F 77 31 1C 80  2B 53 72 10 01 8F 80 23  ..pow1..+Sr....#
14E0: 5B 5E 80 53 72 10 01 53  72 10 01 74 6C 6B 31 5B  [^.Sr..Sr..tlk1[
14F0: 90 80 52 72 10 01 52 72  10 01 79 65 73 30 1C 4F  ..Rr..Rr..yes0.O
1500: 80 52 7E 80 F0 FF FF 7F  F0 FF FF 7F 73 30 38 36  .R~.........s086
1510: 45 7E 80 F0 FF FF 7F F0  FF FF 7F 73 30 38 38 1C  E~.........s088.
1520: 80 CD 2C 80 53 72 10 01  53 72 10 01 70 6F 77 31  ..,.Sr..Sr..pow1
1530: 1C 80 5B 5E 80 53 72 10  01 53 72 10 01 74 6C 6B  ..[^.Sr..Sr..tlk
1540: 30 2B 53 72 10 01 91 80  23 CD 2C 80 53 72 10 01  0+Sr....#.,.Sr..
1550: 53 72 10 01 70 6F 77 31  1C 80 2B 53 72 10 01 92  Sr..pow1..+Sr...
1560: 80 23 52 7E 80 F0 FF FF  7F F0 FF FF 7F 73 30 38  .#R~.........s08
1570: 38 45 7E 80 F0 FF FF 7F  F0 FF FF 7F 73 30 38 39  8E~.........s089
1580: 1C 80 4A F0 FF FF 7F 53  72 10 01 79 00 F0 FF FF  ..J....Sr..y....
1590: 7F 52 72 10 01 2B 53 72  10 01 93 80 23 5B 5E 80  .Rr..+Sr....#[^.
15A0: 53 72 10 01 53 72 10 01  74 6C 6B 31 52 7E 80 F0  Sr..Sr..tlk1R~..
15B0: FF FF 7F F0 FF FF 7F 73  30 38 39 45 7E 80 F0 FF  .......s089E~...
15C0: FF 7F F0 FF FF 7F 73 30  39 30 1C 80 5B 5E 80 53  ......s090..[^.S
15D0: 72 10 01 53 72 10 01 74  6C 6B 31 2B 52 72 10 01  r..Sr..tlk1+Rr..
15E0: 94 80 23 52 7E 80 F0 FF  FF 7F F0 FF FF 7F 73 30  ..#R~.........s0
15F0: 39 30 45 7E 80 F0 FF FF  7F F0 FF FF 7F 73 30 39  90E~.........s09
1600: 31 1C 80 79 00 52 72 10  01 F0 FF FF 7F 2B 52 72  1..y.Rr......+Rr
1610: 10 01 95 80 23 24 96 80  37 80 1C 80 25 02 00 10  ....#$..7...%...
1620: 1C 80 00 A3 16 29 05 F0  FF FF 7F 18 1C 19 80 7B  .....).........{
1630: 52 72 10 01 81 00 52 72  10 01 5B 97 80 52 72 10  Rr....Rr..[..Rr.
1640: 01 52 72 10 01 74 68 6B  30 1C 49 80 52 7E 80 F0  .Rr..thk0.I.R~..
1650: FF FF 7F F0 FF FF 7F 73  30 39 31 45 7E 80 F0 FF  .......s091E~...
1660: FF 7F F0 FF FF 7F 73 30  39 32 1C 80 1C 3E 80 2B  ......s092...>.+
1670: 52 72 10 01 98 80 23 7B  F0 FF FF 7F 81 01 52 72  Rr....#{......Rr
1680: 10 01 5B 97 80 52 72 10  01 52 72 10 01 74 68 6B  ..[..Rr..Rr..thk
1690: 31 52 7E 80 F0 FF FF 7F  F0 FF FF 7F 73 30 39 32  1R~.........s092
16A0: 01 39 18 02 00 10 37 80  00 39 18 6E F0 FF FF 7F  .9....7..9.n....
16B0: 82 80 99 F0 FF FF 7F 1C  21 80 52 7E 80 F0 FF FF  ........!.R~....
16C0: 7F F0 FF FF 7F 73 30 39  31 45 7E 80 F0 FF FF 7F  .....s091E~.....
16D0: F0 FF FF 7F 73 30 39 33  1C 80 7B F0 FF FF 7F 7B  ....s093..{....{
16E0: 52 72 10 01 CD 2C 80 53  72 10 01 53 72 10 01 70  Rr...,.Sr..Sr..p
16F0: 6F 77 31 1C 80 5B 5E 80  53 72 10 01 53 72 10 01  ow1..[^.Sr..Sr..
1700: 74 6C 6B 30 2B 53 72 10  01 99 80 23 1C 19 80 CD  tlk0+Sr....#....
1710: 2C 80 53 72 10 01 53 72  10 01 70 6F 77 31 1C 80  ,.Sr..Sr..pow1..
1720: 2B 53 72 10 01 9A 80 23  5B 5E 80 53 72 10 01 53  +Sr....#[^.Sr..S
1730: 72 10 01 74 6C 6B 31 1C  19 80 52 7E 80 F0 FF FF  r..tlk1...R~....
1740: 7F F0 FF FF 7F 73 30 39  33 45 7E 80 F0 FF FF 7F  .....s093E~.....
1750: F0 FF FF 7F 73 30 39 34  1C 80 1C 1E 80 2B 52 72  ....s094.....+Rr
1760: 10 01 9B 80 23 52 7E 80  F0 FF FF 7F F0 FF FF 7F  ....#R~.........
1770: 73 30 39 34 45 7E 80 F0  FF FF 7F F0 FF FF 7F 73  s094E~.........s
1780: 30 39 35 1C 80 CD 2C 80  53 72 10 01 53 72 10 01  095...,.Sr..Sr..
1790: 70 6F 77 31 1C 80 5B 5E  80 53 72 10 01 53 72 10  pow1..[^.Sr..Sr.
17A0: 01 74 6C 6B 30 2B 53 72  10 01 9C 80 23 1C 19 80  .tlk0+Sr....#...
17B0: 2B 53 72 10 01 9D 80 23  1C 19 80 5B 5E 80 53 72  +Sr....#...[^.Sr
17C0: 10 01 53 72 10 01 74 6C  6B 31 7B 52 72 10 01 81  ..Sr..tlk1{Rr...
17D0: 00 52 72 10 01 5B 97 80  52 72 10 01 52 72 10 01  .Rr..[..Rr..Rr..
17E0: 74 68 6B 30 1C 49 80 52  7E 80 F0 FF FF 7F F0 FF  thk0.I.R~.......
17F0: FF 7F 73 30 39 35 45 7E  80 F0 FF FF 7F F0 FF FF  ..s095E~........
1800: 7F 73 30 39 36 1C 80 1C  3E 80 2B 52 72 10 01 98  .s096...>.+Rr...
1810: 80 23 81 01 52 72 10 01  5B 97 80 52 72 10 01 52  .#..Rr..[..Rr..R
1820: 72 10 01 74 68 6B 31 52  7E 80 F0 FF FF 7F F0 FF  r..thk1R~.......
1830: FF 7F 73 30 39 36 01 39  18 45 7E 80 F0 FF FF 7F  ..s096.9.E~.....
1840: F0 FF FF 7F 73 30 39 37  1C 80 CD 2C 80 53 72 10  ....s097...,.Sr.
1850: 01 53 72 10 01 70 6F 77  31 1C 80 5B 5E 80 53 72  .Sr..pow1..[^.Sr
1860: 10 01 53 72 10 01 74 6C  6B 30 2B 53 72 10 01 9E  ..Sr..tlk0+Sr...
1870: 80 23 CD 2C 80 53 72 10  01 53 72 10 01 70 6F 77  .#.,.Sr..Sr..pow
1880: 31 1C 80 2B 53 72 10 01  9F 80 23 5B 5E 80 53 72  1..+Sr....#[^.Sr
1890: 10 01 53 72 10 01 74 6C  6B 31 52 7E 80 F0 FF FF  ..Sr..tlk1R~....
18A0: 7F F0 FF FF 7F 73 30 39  37 45 7E 80 F0 FF FF 7F  .....s097E~.....
18B0: F0 FF FF 7F 73 30 39 38  1C 80 1C 19 80 81 00 52  ....s098.......R
18C0: 72 10 01 5B 97 80 52 72  10 01 52 72 10 01 74 68  r..[..Rr..Rr..th
18D0: 6B 30 2B 53 72 10 01 A0  80 23 1C 19 80 52 7E 80  k0+Sr....#...R~.
18E0: F0 FF FF 7F F0 FF FF 7F  73 30 39 38 45 7E 80 F0  ........s098E~..
18F0: FF FF 7F F0 FF FF 7F 73  30 39 39 1C 80 1C 19 80  .......s099.....
1900: 2B 53 72 10 01 A1 80 23  1C 19 80 52 7E 80 F0 FF  +Sr....#...R~...
1910: FF 7F F0 FF FF 7F 73 30  39 39 45 7E 80 F0 FF FF  ......s099E~....
1920: 7F F0 FF FF 7F 73 31 30  30 1C 80 1C 19 80 2B 52  .....s100.....+R
1930: 72 10 01 A2 80 23 52 7E  80 F0 FF FF 7F F0 FF FF  r....#R~........
1940: 7F 73 31 30 30 45 7E 80  F0 FF FF 7F F0 FF FF 7F  .s100E~.........
1950: 73 31 30 31 1C 80 1C 19  80 CD 2C 80 53 72 10 01  s101......,.Sr..
1960: 53 72 10 01 70 6F 77 31  1C 80 5B 5E 80 53 72 10  Sr..pow1..[^.Sr.
1970: 01 53 72 10 01 74 6C 6B  30 2B 53 72 10 01 A3 80  .Sr..tlk0+Sr....
1980: 1C 49 80 81 01 52 72 10  01 5B 97 80 52 72 10 01  .I...Rr..[..Rr..
1990: 52 72 10 01 74 68 6B 31  1C 49 80 23 CD 2C 80 53  Rr..thk1.I.#.,.S
19A0: 72 10 01 53 72 10 01 70  6F 77 31 1C 80 2B 53 72  r..Sr..pow1..+Sr
19B0: 10 01 A4 80 23 CD 2C 80  53 72 10 01 53 72 10 01  ....#.,.Sr..Sr..
19C0: 70 6F 77 31 1C 80 52 7E  80 F0 FF FF 7F F0 FF FF  pow1..R~........
19D0: 7F 73 31 30 31 45 7E 80  F0 FF FF 7F F0 FF FF 7F  .s101E~.........
19E0: 73 31 30 32 1C 80 5B 5E  80 53 72 10 01 53 72 10  s102..[^.Sr..Sr.
19F0: 01 74 6C 6B 31 1C 19 80  2B 53 72 10 01 A5 80 23  .tlk1...+Sr....#
1A00: 53 53 72 10 01 53 72 10  01 74 6C 6B 31 52 7E 80  SSr..Sr..tlk1R~.
1A10: F0 FF FF 7F F0 FF FF 7F  73 31 30 32 45 7E 80 F0  ........s102E~..
1A20: FF FF 7F F0 FF FF 7F 79  73 30 33 1C 80 1C 19 80  .......ys03.....
1A30: 5B 5E 80 53 72 10 01 53  72 10 01 69 6B 61 30 CD  [^.Sr..Sr..ika0.
1A40: 2C 80 53 72 10 01 53 72  10 01 6F 6B 6F 30 1C 80  ,.Sr..Sr..oko0..
1A50: 2B 53 72 10 01 A6 80 1C  4F 80 23 52 7E 80 F0 FF  +Sr.....O.#R~...
1A60: FF 7F F0 FF FF 7F 79 73  30 33 45 7E 80 F0 FF FF  ......ys03E~....
1A70: 7F F0 FF FF 7F 73 31 30  33 1C 80 5B 89 80 52 72  .....s103..[..Rr
1A80: 10 01 52 72 10 01 74 6C  6B 30 2B 52 72 10 01 A7  ..Rr..tlk0+Rr...
1A90: 80 23 5B 89 80 52 72 10  01 52 72 10 01 74 6C 6B  .#[..Rr..Rr..tlk
1AA0: 31 52 7E 80 F0 FF FF 7F  F0 FF FF 7F 73 31 30 33  1R~.........s103
1AB0: 45 7E 80 F0 FF FF 7F F0  FF FF 7F 79 73 30 34 1C  E~.........ys04.
1AC0: 80 1C 19 80 5B 5E 80 53  72 10 01 53 72 10 01 69  ....[^.Sr..Sr..i
1AD0: 6B 61 31 CD 2C 80 53 72  10 01 53 72 10 01 6F 6B  ka1.,.Sr..Sr..ok
1AE0: 73 74 1C 80 1C 1E 80 2B  53 72 10 01 A8 80 23 52  st.....+Sr....#R
1AF0: 7E 80 F0 FF FF 7F F0 FF  FF 7F 79 73 30 34 02 87  ~.........ys04..
1B00: 7F 81 80 80 1A 1B 45 7E  80 F0 FF FF 7F F0 FF FF  ......E~........
1B10: 7F 73 31 30 35 1C 80 01  47 1B 02 87 7F 82 80 80  .s105...G.......
1B20: 36 1B 45 7E 80 F0 FF FF  7F F0 FF FF 7F 73 31 30  6.E~.........s10
1B30: 35 1C 80 01 47 1B 45 7E  80 F0 FF FF 7F F0 FF FF  5...G.E~........
1B40: 7F 73 31 30 34 1C 80 24  A9 80 1C 80 1C 80 25 02  .s104..$......%.
1B50: 00 10 1C 80 00 73 1B 29  05 F0 FF FF 7F 18 4A 53  .....s.)......JS
1B60: 72 10 01 F0 FF FF 7F 4A  56 72 10 01 F0 FF FF 7F  r......JVr......
1B70: 01 73 1B 52 7E 80 F0 FF  FF 7F F0 FF FF 7F 73 31  .s.R~.........s1
1B80: 30 34 52 7E 80 F0 FF FF  7F F0 FF FF 7F 73 31 30  04R~.........s10
1B90: 35 45 7E 80 F0 FF FF 7F  F0 FF FF 7F 73 31 30 36  5E~.........s106
1BA0: 1C 80 6F 76 53 72 10 01  7B 53 72 10 01 1C 19 80  ..ovSr..{Sr.....
1BB0: 79 00 52 72 10 01 F0 FF  FF 7F CD 2C 80 53 72 10  y.Rr.......,.Sr.
1BC0: 01 53 72 10 01 70 6F 77  31 1C 80 5B 5E 80 53 72  .Sr..pow1..[^.Sr
1BD0: 10 01 53 72 10 01 74 6C  6B 30 2B 53 72 10 01 AA  ..Sr..tlk0+Sr...
1BE0: 80 23 5B 5E 80 53 72 10  01 53 72 10 01 74 6C 6B  .#[^.Sr..Sr..tlk
1BF0: 31 6E F0 FF FF 7F 3B 80  99 F0 FF FF 7F 1C 21 80  1n....;.......!.
1C00: 52 7E 80 F0 FF FF 7F F0  FF FF 7F 73 31 30 36 45  R~.........s106E
1C10: 7E 80 F0 FF FF 7F F0 FF  FF 7F 73 31 30 37 1C 80  ~.........s107..
1C20: CD 2C 80 53 72 10 01 53  72 10 01 70 6F 77 31 1C  .,.Sr..Sr..pow1.
1C30: 80 5B 5E 80 53 72 10 01  53 72 10 01 74 6C 6B 30  .[^.Sr..Sr..tlk0
1C40: 2B 53 72 10 01 AB 80 23  5B 5E 80 53 72 10 01 53  +Sr....#[^.Sr..S
1C50: 72 10 01 74 6C 6B 31 1C  19 80 52 7E 80 F0 FF FF  r..tlk1...R~....
1C60: 7F F0 FF FF 7F 73 31 30  37 45 7E 80 F0 FF FF 7F  .....s107E~.....
1C70: F0 FF FF 7F 73 31 30 38  1C 80 1C 19 80 03 02 10  ....s108........
1C80: AC 80 2B 53 72 10 01 AD  80 23 1C 19 80 52 7E 80  ..+Sr....#...R~.
1C90: F0 FF FF 7F F0 FF FF 7F  73 31 30 38 45 7E 80 F0  ........s108E~..
1CA0: FF FF 7F F0 FF FF 7F 73  31 30 39 1C 80 1C 19 80  .......s109.....
1CB0: 7B 52 72 10 01 CD 2C 80  53 72 10 01 53 72 10 01  {Rr...,.Sr..Sr..
1CC0: 70 6F 77 31 1C 80 2B 53  72 10 01 AE 80 23 1C 19  pow1..+Sr....#..
1CD0: 80 CD 2C 80 53 72 10 01  53 72 10 01 70 6F 77 31  ..,.Sr..Sr..pow1
1CE0: 1C 80 2B 53 72 10 01 AF  80 23 52 7E 80 F0 FF FF  ..+Sr....#R~....
1CF0: 7F F0 FF FF 7F 73 31 30  39 45 7E 80 F0 FF FF 7F  .....s109E~.....
1D00: F0 FF FF 7F 73 31 31 30  1C 80 CD 2C 80 53 72 10  ....s110...,.Sr.
1D10: 01 53 72 10 01 70 6F 77  31 1C 80 2B 53 72 10 01  .Sr..pow1..+Sr..
1D20: B0 80 23 1C 19 80 CD 2C  80 53 72 10 01 53 72 10  ..#....,.Sr..Sr.
1D30: 01 70 6F 77 31 1C 80 2B  53 72 10 01 B1 80 23 4B  .pow1..+Sr....#K
1D40: 53 72 10 01 B2 80 52 7E  80 F0 FF FF 7F F0 FF FF  Sr....R~........
1D50: 7F 73 31 31 30 45 7E 80  F0 FF FF 7F F0 FF FF 7F  .s110E~.........
1D60: 73 31 31 31 1C 80 6F 76  53 72 10 01 1C 19 80 CD  s111..ovSr......
1D70: 2C 80 53 72 10 01 53 72  10 01 70 6F 77 31 1C 80  ,.Sr..Sr..pow1..
1D80: 03 02 10 AC 80 2B 53 72  10 01 B3 80 23 1C 19 80  .....+Sr....#...
1D90: CD 2C 80 53 72 10 01 53  72 10 01 70 6F 77 31 1C  .,.Sr..Sr..pow1.
1DA0: 80 2B 53 72 10 01 B4 80  23 52 7E 80 F0 FF FF 7F  .+Sr....#R~.....
1DB0: F0 FF FF 7F 73 31 31 31  45 7E 80 F0 FF FF 7F F0  ....s111E~......
1DC0: FF FF 7F 73 31 31 32 1C  80 1C 19 80 CD 2C 80 53  ...s112......,.S
1DD0: 72 10 01 53 72 10 01 70  6F 77 31 1C 80 2B 53 72  r..Sr..pow1..+Sr
1DE0: 10 01 B5 80 23 1C 19 80  CD 2C 80 53 72 10 01 53  ....#....,.Sr..S
1DF0: 72 10 01 70 6F 77 31 1C  80 2B 53 72 10 01 B6 80  r..pow1..+Sr....
1E00: 23 52 7E 80 F0 FF FF 7F  F0 FF FF 7F 73 31 31 32  #R~.........s112
1E10: 45 7E 80 F0 FF FF 7F F0  FF FF 7F 73 31 31 33 1C  E~.........s113.
1E20: 80 1C 2C 80 1A EA 2C 1C  19 80 52 7E 80 F0 FF FF  ..,...,...R~....
1E30: 7F F0 FF FF 7F 73 31 31  33 45 7E 80 F0 FF FF 7F  .....s113E~.....
1E40: F0 FF FF 7F 30 62 6C 66  1C 80 1C 49 80 AB 11 1C  ....0blf...I....
1E50: 80 1C 37 80 AB 0A 46 00  45 B7 80 F0 FF FF 7F F0  ..7...F.E.......
1E60: FF FF 7F 66 64 69 32 1C  80 21 00                 ...fdi2..!.     
```

#### Opcodes

```
  0: 0x0001 [0x42] SET_CLI_EVENT_CANCEL_DATA()
  1: 0x0002 [0x1A] CALL_SUBROUTINE(address=0x2CEA)
  2: 0x0005 [0x46] CAMERA_CONTROL: Disable user control
  3: 0x0007 [0x38] SET_CLIENT_EVENT_MODE(mode=19*)
  4: 0x000A [0x4E] SET_ENTITY_HIDE_FLAG: Show LocalPlayer
  5: 0x0010 [0x27] REQ_SET(priority=0x10, entity_id=Arciela (ID: 17855058/0x01107252), tag_num=0x04)
  6: 0x0017 [0x27] REQ_SET(priority=0x10, entity_id=Unnamed NPC (ID: 17855059/0x01107253), tag_num=0x04)
  7: 0x001E [0x27] REQ_SET(priority=0x10, entity_id=Unnamed NPC (ID: 17855060/0x01107254), tag_num=0x04)
  8: 0x0025 [0x27] REQ_SET(priority=0x10, entity_id=Unnamed NPC (ID: 17855061/0x01107255), tag_num=0x04)
  9: 0x002C [0x27] REQ_SET(priority=0x10, entity_id=Unnamed NPC (ID: 17855062/0x01107256), tag_num=0x04)
 10: 0x0033 [0x27] REQ_SET(priority=0x10, entity_id=Unnamed NPC (ID: 17855063/0x01107257), tag_num=0x04)
 11: 0x003A [0x27] REQ_SET(priority=0x10, entity_id=Unnamed NPC (ID: 17855064/0x01107258), tag_num=0x04)
 12: 0x0041 [0x27] REQ_SET(priority=0x10, entity_id=Unnamed NPC (ID: 17855065/0x01107259), tag_num=0x04)
 13: 0x0048 [0x27] REQ_SET(priority=0x10, entity_id=Unnamed NPC (ID: 17855066/0x0110725A), tag_num=0x04)
 14: 0x004F [0x27] REQ_SET(priority=0x10, entity_id=Unnamed NPC (ID: 17855068/0x0110725C), tag_num=0x04)
 15: 0x0056 [0x92] Arciela (ID: 17855058/0x01107252)->Render.Flags3 ^= 0x01
 16: 0x005C [0x92] Unnamed NPC (ID: 17855059/0x01107253)->Render.Flags3 ^= 0x01
 17: 0x0062 [0x92] Unnamed NPC (ID: 17855060/0x01107254)->Render.Flags3 ^= 0x01
 18: 0x0068 [0x92] Unnamed NPC (ID: 17855061/0x01107255)->Render.Flags3 ^= 0x01
 19: 0x006E [0x92] Unnamed NPC (ID: 17855062/0x01107256)->Render.Flags3 ^= 0x01
 20: 0x0074 [0x92] Unnamed NPC (ID: 17855063/0x01107257)->Render.Flags3 ^= 0x01
 21: 0x007A [0x92] Unnamed NPC (ID: 17855064/0x01107258)->Render.Flags3 ^= 0x01
 22: 0x0080 [0x92] Unnamed NPC (ID: 17855065/0x01107259)->Render.Flags3 ^= 0x01
 23: 0x0086 [0x92] Unnamed NPC (ID: 17855066/0x0110725A)->Render.Flags3 ^= 0x01
 24: 0x008C [0x92] Unnamed NPC (ID: 17855068/0x0110725C)->Render.Flags3 ^= 0x01
 25: 0x0092 [0x94] LocalPlayer->Render.Flags3 ^= 0x01
 26: 0x0098 [0x94] Arciela (ID: 17855058/0x01107252)->Render.Flags3 ^= 0x01
 27: 0x009E [0x94] Unnamed NPC (ID: 17855059/0x01107253)->Render.Flags3 ^= 0x01
 28: 0x00A4 [0x94] Unnamed NPC (ID: 17855060/0x01107254)->Render.Flags3 ^= 0x01
 29: 0x00AA [0x94] Unnamed NPC (ID: 17855061/0x01107255)->Render.Flags3 ^= 0x01
 30: 0x00B0 [0x94] Unnamed NPC (ID: 17855062/0x01107256)->Render.Flags3 ^= 0x01
 31: 0x00B6 [0x94] Unnamed NPC (ID: 17855063/0x01107257)->Render.Flags3 ^= 0x01
 32: 0x00BC [0x94] Unnamed NPC (ID: 17855064/0x01107258)->Render.Flags3 ^= 0x01
 33: 0x00C2 [0x94] Unnamed NPC (ID: 17855065/0x01107259)->Render.Flags3 ^= 0x01
 34: 0x00C8 [0x94] Unnamed NPC (ID: 17855066/0x0110725A)->Render.Flags3 ^= 0x01
 35: 0x00CE [0x94] Unnamed NPC (ID: 17855068/0x0110725C)->Render.Flags3 ^= 0x01
 36: 0x00D4 [0xBA] SET_ENTITY_POSITION(entity_id=LocalPlayer, pos_x=250.068*, pos_z=114.190*, pos_y=0.013*, direction=106.3*)
 37: 0x00E1 [0xBA] SET_ENTITY_POSITION(entity_id=Arciela (ID: 17855058/0x01107252), pos_x=255.176*, pos_z=108.476*, pos_y=1.188*, direction=270.0*)
 38: 0x00EE [0xBA] SET_ENTITY_POSITION(entity_id=Unnamed NPC (ID: 17855059/0x01107253), pos_x=243.996*, pos_z=123.933*, pos_y=0.330*, direction=285.6*)
 39: 0x00FB [0xBA] SET_ENTITY_POSITION(entity_id=Unnamed NPC (ID: 17855060/0x01107254), pos_x=248.000*, pos_z=120.000*, pos_y=-0.250*, direction=270.0*)
 40: 0x0108 [0xBA] SET_ENTITY_POSITION(entity_id=Unnamed NPC (ID: 17855061/0x01107255), pos_x=248.000*, pos_z=120.000*, pos_y=-0.250*, direction=270.0*)
 41: 0x0115 [0xBA] SET_ENTITY_POSITION(entity_id=Unnamed NPC (ID: 17855062/0x01107256), pos_x=232.000*, pos_z=124.000*, pos_y=-0.249*, direction=270.0*)
 42: 0x0122 [0xBA] SET_ENTITY_POSITION(entity_id=Unnamed NPC (ID: 17855063/0x01107257), pos_x=248.000*, pos_z=120.000*, pos_y=-0.250*, direction=270.0*)
 43: 0x012F [0xBA] SET_ENTITY_POSITION(entity_id=Unnamed NPC (ID: 17855064/0x01107258), pos_x=248.000*, pos_z=119.809*, pos_y=-0.287*, direction=270.0*)
 44: 0x013C [0xBA] SET_ENTITY_POSITION(entity_id=Unnamed NPC (ID: 17855065/0x01107259), pos_x=360.023*, pos_z=-400.083*, pos_y=-12.511*, direction=90.0*)
 45: 0x0149 [0xBA] SET_ENTITY_POSITION(entity_id=Unnamed NPC (ID: 17855066/0x0110725A), pos_x=248.000*, pos_z=120.000*, pos_y=-0.250*, direction=270.0*)
 46: 0x0156 [0xBA] SET_ENTITY_POSITION(entity_id=Unnamed NPC (ID: 17855068/0x0110725C), pos_x=248.000*, pos_z=120.000*, pos_y=-0.250*, direction=270.0*)
 47: 0x0163 [0x29] REQ_SET_WAIT(priority=0x10, entity_id=Unnamed NPC (ID: 17855059/0x01107253), tag_num=0x0C)
 48: 0x016A [0x29] REQ_SET_WAIT(priority=0x10, entity_id=Unnamed NPC (ID: 17855060/0x01107254), tag_num=0x0A)
 49: 0x0171 [0x29] REQ_SET_WAIT(priority=0x10, entity_id=Unnamed NPC (ID: 17855061/0x01107255), tag_num=0x0A)
 50: 0x0178 [0x29] REQ_SET_WAIT(priority=0x10, entity_id=Unnamed NPC (ID: 17855062/0x01107256), tag_num=0x09)
 51: 0x017F [0x29] REQ_SET_WAIT(priority=0x10, entity_id=Unnamed NPC (ID: 17855063/0x01107257), tag_num=0x09)
 52: 0x0186 [0x29] REQ_SET_WAIT(priority=0x10, entity_id=Unnamed NPC (ID: 17855064/0x01107258), tag_num=0x09)
 53: 0x018D [0x29] REQ_SET_WAIT(priority=0x10, entity_id=Unnamed NPC (ID: 17855065/0x01107259), tag_num=0x09)
 54: 0x0194 [0x29] REQ_SET_WAIT(priority=0x10, entity_id=Unnamed NPC (ID: 17855066/0x0110725A), tag_num=0x09)
 55: 0x019B [0x29] REQ_SET_WAIT(priority=0x10, entity_id=Unnamed NPC (ID: 17855068/0x0110725C), tag_num=0x09)
 56: 0x01A2 [0x29] REQ_SET_WAIT(priority=0x10, entity_id=Unnamed NPC (ID: 17855059/0x01107253), tag_num=0x0A)
 57: 0x01A9 [0x80] LOAD_WAIT(entity=LocalPlayer)
 58: 0x01AE [0x80] LOAD_WAIT(entity=Arciela (ID: 17855058/0x01107252))
 59: 0x01B3 [0x80] LOAD_WAIT(entity=Unnamed NPC (ID: 17855059/0x01107253))
 60: 0x01B8 [0x80] LOAD_WAIT(entity=Unnamed NPC (ID: 17855060/0x01107254))
 61: 0x01BD [0x80] LOAD_WAIT(entity=Unnamed NPC (ID: 17855061/0x01107255))
 62: 0x01C2 [0x80] LOAD_WAIT(entity=Unnamed NPC (ID: 17855062/0x01107256))
 63: 0x01C7 [0x80] LOAD_WAIT(entity=Unnamed NPC (ID: 17855063/0x01107257))
 64: 0x01CC [0x80] LOAD_WAIT(entity=Unnamed NPC (ID: 17855064/0x01107258))
 65: 0x01D1 [0x80] LOAD_WAIT(entity=Unnamed NPC (ID: 17855065/0x01107259))
 66: 0x01D6 [0x80] LOAD_WAIT(entity=Unnamed NPC (ID: 17855066/0x0110725A))
 67: 0x01DB [0x80] LOAD_WAIT(entity=Unnamed NPC (ID: 17855068/0x0110725C))
 68: 0x01E0 [0x4A] Unnamed NPC (ID: 17855059/0x01107253) looks at Arciela (ID: 17855058/0x01107252)
 69: 0x01E9 [0x27] REQ_SET(priority=0x10, entity_id=Unnamed NPC (ID: 17855059/0x01107253), tag_num=0x02)
 70: 0x01F0 [0x27] REQ_SET(priority=0x10, entity_id=Unnamed NPC (ID: 17855060/0x01107254), tag_num=0x02)
 71: 0x01F7 [0x27] REQ_SET(priority=0x10, entity_id=Unnamed NPC (ID: 17855061/0x01107255), tag_num=0x02)
 72: 0x01FE [0x27] REQ_SET(priority=0x10, entity_id=Unnamed NPC (ID: 17855062/0x01107256), tag_num=0x02)
 73: 0x0205 [0x27] REQ_SET(priority=0x10, entity_id=Unnamed NPC (ID: 17855063/0x01107257), tag_num=0x02)
 74: 0x020C [0x27] REQ_SET(priority=0x10, entity_id=Unnamed NPC (ID: 17855064/0x01107258), tag_num=0x02)
 75: 0x0213 [0x27] REQ_SET(priority=0x10, entity_id=Unnamed NPC (ID: 17855065/0x01107259), tag_num=0x02)
 76: 0x021A [0x27] REQ_SET(priority=0x10, entity_id=Unnamed NPC (ID: 17855066/0x0110725A), tag_num=0x02)
 77: 0x0221 [0x27] REQ_SET(priority=0x10, entity_id=Unnamed NPC (ID: 17855068/0x0110725C), tag_num=0x02)
 78: 0x0228 [0x1C] WAIT(30* ticks)
 79: 0x022B [0x29] REQ_SET_WAIT(priority=0x10, entity_id=LocalPlayer, tag_num=0x02)
 80: 0x0232 [0x03] ExtData[1]->WorkLocal[2] = Work_Zone[2]
 81: 0x0237 [0x27] REQ_SET(priority=0x10, entity_id=Unnamed NPC (ID: 17855060/0x01107254), tag_num=0x10)
 82: 0x023E [0x27] REQ_SET(priority=0x10, entity_id=Unnamed NPC (ID: 17855066/0x0110725A), tag_num=0x0A)
 83: 0x0245 [0x5C] MUSIC_CONTROL: Set Idle (Day) music to song 61*
 84: 0x0249 [0x5C] MUSIC_CONTROL: Set Idle (Night) music to song 61*
 85: 0x024D [0x9A] WAIT_MUSIC_SERVER()
 86: 0x024E [0x45] LOAD_SCHEDULED_TASK: Load scheduler "2301" with entities [LocalPlayer, LocalPlayer], work=[646*, 0*]
 87: 0x025F [0x1A] CALL_SUBROUTINE(address=0x2CC9)
 88: 0x0262 [0x1C] WAIT(330* ticks)
 89: 0x0265 [0x52] END_LOAD_SCHEDULER: End scheduler "2301" with entities [LocalPlayer, LocalPlayer], work=646*
 90: 0x0274 [0x45] LOAD_SCHEDULED_TASK: Load scheduler "2302" with entities [LocalPlayer, LocalPlayer], work=[646*, 0*]
 91: 0x0285 [0x79] LocalPlayer looks at Arciela (ID: 17855058/0x01107252) (Basic look)
 92: 0x028F [0x29] REQ_SET_WAIT(priority=0x10, entity_id=Arciela (ID: 17855058/0x01107252), tag_num=0x0D)
 93: 0x0296 [0x1C] WAIT(30* ticks)
 94: 0x0299 [0x5B] LOAD_EXT_SCHEDULER: Load scheduler "ata0" with entities [Arciela (ID: 17855058/0x01107252), Arciela (ID: 17855058/0x01107252)], work=3225*
 95: 0x02A8 [0x1C] WAIT(60* ticks)
 96: 0x02AB [0x52] END_LOAD_SCHEDULER: End scheduler "2302" with entities [LocalPlayer, LocalPlayer], work=646*
 97: 0x02BA [0x45] LOAD_SCHEDULED_TASK: Load scheduler "2304" with entities [LocalPlayer, LocalPlayer], work=[646*, 0*]
 98: 0x02CB [0x1C] WAIT(160* ticks)
 99: 0x02CE [0x2B] Arciela (ID: 17855058/0x01107252) [8631*]:
     "Even I've never been out this far before..."
100: 0x02D5 [0x23] WAIT_FOR_DIALOG_INTERACTION
101: 0x02D6 [0x27] REQ_SET(priority=0x10, entity_id=Arciela (ID: 17855058/0x01107252), tag_num=0x0E)
102: 0x02DD [0x1C] WAIT(30* ticks)
103: 0x02E0 [0x52] END_LOAD_SCHEDULER: End scheduler "2304" with entities [LocalPlayer, LocalPlayer], work=646*
104: 0x02EF [0x45] LOAD_SCHEDULED_TASK: Load scheduler "2305" with entities [LocalPlayer, LocalPlayer], work=[646*, 0*]
105: 0x0300 [0x1C] WAIT(30* ticks)
106: 0x0303 [0x27] REQ_SET(priority=0x10, entity_id=LocalPlayer, tag_num=0x1C)
107: 0x030A [0x1C] WAIT(90* ticks)
108: 0x030D [0x1A] CALL_SUBROUTINE(address=0x2CEA)
109: 0x0310 [0x1C] WAIT(30* ticks)
110: 0x0313 [0x7A] VM_CONTROL: Reset VM for Arciela (ID: 17855058/0x01107252)
111: 0x0319 [0x7A] VM_CONTROL: Reset VM for LocalPlayer
112: 0x031F [0xBA] SET_ENTITY_POSITION(entity_id=LocalPlayer, pos_x=248.724*, pos_z=119.516*, pos_y=-0.235*, direction=270.1*)
113: 0x032C [0xBA] SET_ENTITY_POSITION(entity_id=Arciela (ID: 17855058/0x01107252), pos_x=248.000*, pos_z=120.000*, pos_y=-0.250*, direction=270.0*)
114: 0x0339 [0x27] REQ_SET(priority=0x10, entity_id=LocalPlayer, tag_num=0x1A)
115: 0x0340 [0x5B] LOAD_EXT_SCHEDULER: Load scheduler "stp0" with entities [Arciela (ID: 17855058/0x01107252), Arciela (ID: 17855058/0x01107252)], work=3302*
116: 0x034F [0x5B] LOAD_EXT_SCHEDULER: Load scheduler "yra0" with entities [Unnamed NPC (ID: 17855060/0x01107254), Unnamed NPC (ID: 17855060/0x01107254)], work=3253*
117: 0x035E [0xCD] LOAD_SCHEDULED_TASK_ALT4: Load scheduler "sta0" with entities [Unnamed NPC (ID: 17855060/0x01107254), Unnamed NPC (ID: 17855060/0x01107254)], work=[149*, 0*]
118: 0x036F [0x27] REQ_SET(priority=0x10, entity_id=Unnamed NPC (ID: 17855054/0x0110724E), tag_num=0x04)
119: 0x0376 [0x03] Work_Zone[2] = 668*
120: 0x037B [0x27] REQ_SET(priority=0x10, entity_id=??? (ID: 17855053/0x0110724D), tag_num=0x01)
121: 0x0382 [0x1C] WAIT(10* ticks)
122: 0x0385 [0x52] END_LOAD_SCHEDULER: End scheduler "2305" with entities [LocalPlayer, LocalPlayer], work=646*
123: 0x0394 [0x45] LOAD_SCHEDULED_TASK: Load scheduler "ah01" with entities [LocalPlayer, LocalPlayer], work=[646*, 0*]
124: 0x03A5 [0x1A] CALL_SUBROUTINE(address=0x2CC9)
125: 0x03A8 [0x1C] WAIT(360* ticks)
126: 0x03AB [0x4E] SET_ENTITY_HIDE_FLAG: Hide LocalPlayer
127: 0x03B1 [0x27] REQ_SET(priority=0x10, entity_id=Unnamed NPC (ID: 17855060/0x01107254), tag_num=0x11)
128: 0x03B8 [0x2A] GET_REQ_LEVEL(level=16, entity_id=??? (ID: 17855053/0x0110724D))
129: 0x03BE [0x27] REQ_SET(priority=0x10, entity_id=Unnamed NPC (ID: 17855054/0x0110724E), tag_num=0x0B)
130: 0x03C5 [0x52] END_LOAD_SCHEDULER: End scheduler "ah01" with entities [LocalPlayer, LocalPlayer], work=646*
131: 0x03D4 [0x45] LOAD_SCHEDULED_TASK: Load scheduler "ah03" with entities [LocalPlayer, LocalPlayer], work=[646*, 0*]
132: 0x03E5 [0x5B] LOAD_EXT_SCHEDULER: Load scheduler "stp1" with entities [Arciela (ID: 17855058/0x01107252), Arciela (ID: 17855058/0x01107252)], work=3302*
133: 0x03F4 [0x5B] LOAD_EXT_SCHEDULER: Load scheduler "yra1" with entities [Unnamed NPC (ID: 17855060/0x01107254), Unnamed NPC (ID: 17855060/0x01107254)], work=3253*
134: 0x0403 [0x03] Work_Zone[2] = 150*
135: 0x0408 [0x27] REQ_SET(priority=0x10, entity_id=??? (ID: 17855053/0x0110724D), tag_num=0x01)
136: 0x040F [0x1C] WAIT(100* ticks)
137: 0x0412 [0x27] REQ_SET(priority=0x10, entity_id=Unnamed NPC (ID: 17855054/0x0110724E), tag_num=0x04)
138: 0x0419 [0x1C] WAIT(20* ticks)
139: 0x041C [0x2B] Arciela (ID: 17855058/0x01107252) [8632*]:
     "Look out!"
140: 0x0423 [0x1C] WAIT(30* ticks)
141: 0x0426 [0x2A] GET_REQ_LEVEL(level=16, entity_id=??? (ID: 17855053/0x0110724D))
142: 0x042C [0x5D] SET_MUSIC_VOLUME(volume=0*, fade_time=30*)
143: 0x0431 [0x1A] CALL_SUBROUTINE(address=0x2E3D)
144: 0x0434 [0x1C] WAIT(30* ticks)
145: 0x0437 [0x4E] SET_ENTITY_HIDE_FLAG: Show LocalPlayer
146: 0x043D [0xBA] SET_ENTITY_POSITION(entity_id=LocalPlayer, pos_x=249.129*, pos_z=123.201*, pos_y=0.207*, direction=104.9*)
147: 0x044A [0x4A] LocalPlayer looks at Arciela (ID: 17855058/0x01107252)
148: 0x0453 [0x6F] WAIT_FRAME_DELAY: Yield until WaitTime reaches zero
149: 0x0454 [0x76] CHECK_ENTITY_RENDER_FLAGS: Wait until LocalPlayer Render.Flags0 and Render.Flags3 conditions are met
150: 0x0459 [0x5B] LOAD_EXT_SCHEDULER: Load scheduler "arc0" with entities [Unnamed NPC (ID: 17855061/0x01107255), Unnamed NPC (ID: 17855061/0x01107255)], work=3248*
151: 0x0468 [0x27] REQ_SET(priority=0x10, entity_id=Unnamed NPC (ID: 17855054/0x0110724E), tag_num=0x05)
152: 0x046F [0x5C] MUSIC_CONTROL: Set Idle (Day) music to song 62*
153: 0x0473 [0x5C] MUSIC_CONTROL: Set Idle (Night) music to song 62*
154: 0x0477 [0x9A] WAIT_MUSIC_SERVER()
155: 0x0478 [0x5B] LOAD_EXT_SCHEDULER: Load scheduler 0xFEFEFE00 with entities [Arciela (ID: 17855058/0x01107252), Arciela (ID: 17855058/0x01107252)], work=3301*
156: 0x0487 [0x5B] LOAD_EXT_SCHEDULER: Load scheduler 0xFEFEFE00 with entities [Unnamed NPC (ID: 17855060/0x01107254), Unnamed NPC (ID: 17855060/0x01107254)], work=3253*
157: 0x0496 [0x52] END_LOAD_SCHEDULER: End scheduler "ah03" with entities [LocalPlayer, LocalPlayer], work=646*
158: 0x04A5 [0x02] IF !(ExtData[1]->WorkLocal[2] == 1*) GOTO 0x04C1
159: 0x04AD [0x45] LOAD_SCHEDULED_TASK: Load scheduler "hm01" with entities [LocalPlayer, LocalPlayer], work=[646*, 0*]
160: 0x04BE [0x01] GOTO 0x055E
161: 0x04C1 [0x02] IF !(ExtData[1]->WorkLocal[2] == 2*) GOTO 0x04DD
162: 0x04C9 [0x45] LOAD_SCHEDULED_TASK: Load scheduler "hf01" with entities [LocalPlayer, LocalPlayer], work=[646*, 0*]
163: 0x04DA [0x01] GOTO 0x055E
164: 0x04DD [0x02] IF !(ExtData[1]->WorkLocal[2] == 3*) GOTO 0x04F9
165: 0x04E5 [0x45] LOAD_SCHEDULED_TASK: Load scheduler "em01" with entities [LocalPlayer, LocalPlayer], work=[646*, 0*]
166: 0x04F6 [0x01] GOTO 0x055E
167: 0x04F9 [0x02] IF !(ExtData[1]->WorkLocal[2] == 4*) GOTO 0x0515
168: 0x0501 [0x45] LOAD_SCHEDULED_TASK: Load scheduler "ef01" with entities [LocalPlayer, LocalPlayer], work=[646*, 0*]
169: 0x0512 [0x01] GOTO 0x055E
170: 0x0515 [0x02] IF !(ExtData[1]->WorkLocal[2] == 7*) GOTO 0x0531
171: 0x051D [0x45] LOAD_SCHEDULED_TASK: Load scheduler "mt01" with entities [LocalPlayer, LocalPlayer], work=[646*, 0*]
172: 0x052E [0x01] GOTO 0x055E
173: 0x0531 [0x02] IF !(ExtData[1]->WorkLocal[2] == 8*) GOTO 0x054D
174: 0x0539 [0x45] LOAD_SCHEDULED_TASK: Load scheduler "gl01" with entities [LocalPlayer, LocalPlayer], work=[646*, 0*]
175: 0x054A [0x01] GOTO 0x055E
176: 0x054D [0x45] LOAD_SCHEDULED_TASK: Load scheduler "tr01" with entities [LocalPlayer, LocalPlayer], work=[646*, 0*]

SUBROUTINE_055E:
177: 0x055E [0x1A] CALL_SUBROUTINE(address=0x2D0B)
178: 0x0561 [0x6E] LocalPlayer uses emote 21*
179: 0x0568 [0x99] Wait for LocalPlayer animation to complete
180: 0x056D [0x1C] WAIT(45* ticks)
181: 0x0570 [0xAE] MULTI_PURPOSE_ENTITY_HANDLER(case_type=0x05 - Link ActorPointer, entity1=Arciela (ID: 17855058/0x01107252), entity2=Unnamed NPC (ID: 17855060/0x01107254))
182: 0x057A [0x5B] LOAD_EXT_SCHEDULER: Load scheduler "cap0" with entities [Arciela (ID: 17855058/0x01107252), Arciela (ID: 17855058/0x01107252)], work=3301*
183: 0x0589 [0x5B] LOAD_EXT_SCHEDULER: Load scheduler "cap0" with entities [Unnamed NPC (ID: 17855060/0x01107254), Unnamed NPC (ID: 17855060/0x01107254)], work=3253*
184: 0x0598 [0x1C] WAIT(30* ticks)
185: 0x059B [0x52] END_LOAD_SCHEDULER: End scheduler "hm01" with entities [LocalPlayer, LocalPlayer], work=646*
186: 0x05AA [0x52] END_LOAD_SCHEDULER: End scheduler "hf01" with entities [LocalPlayer, LocalPlayer], work=646*
187: 0x05B9 [0x52] END_LOAD_SCHEDULER: End scheduler "em01" with entities [LocalPlayer, LocalPlayer], work=646*
188: 0x05C8 [0x52] END_LOAD_SCHEDULER: End scheduler "ef01" with entities [LocalPlayer, LocalPlayer], work=646*
189: 0x05D7 [0x52] END_LOAD_SCHEDULER: End scheduler "mt01" with entities [LocalPlayer, LocalPlayer], work=646*
190: 0x05E6 [0x52] END_LOAD_SCHEDULER: End scheduler "gl01" with entities [LocalPlayer, LocalPlayer], work=646*
191: 0x05F5 [0x52] END_LOAD_SCHEDULER: End scheduler "tr01" with entities [LocalPlayer, LocalPlayer], work=646*
192: 0x0604 [0x45] LOAD_SCHEDULED_TASK: Load scheduler "ah05" with entities [LocalPlayer, LocalPlayer], work=[646*, 0*]
193: 0x0615 [0x1C] WAIT(150* ticks)
194: 0x0618 [0x27] REQ_SET(priority=0x10, entity_id=LocalPlayer, tag_num=0x19)
195: 0x061F [0x7B] LocalPlayer stops talking
196: 0x0624 [0x1C] WAIT(115* ticks)
197: 0x0627 [0x52] END_LOAD_SCHEDULER: End scheduler "ah05" with entities [LocalPlayer, LocalPlayer], work=646*
198: 0x0636 [0x45] LOAD_SCHEDULED_TASK: Load scheduler "ahd5" with entities [LocalPlayer, LocalPlayer], work=[646*, 0*]
199: 0x0647 [0x1C] WAIT(90* ticks)
200: 0x064A [0x2B] Arciela (ID: 17855058/0x01107252) [8633*]:
     "Ugh! Let me...down!"
201: 0x0651 [0x23] WAIT_FOR_DIALOG_INTERACTION
202: 0x0652 [0x52] END_LOAD_SCHEDULER: End scheduler "ahd5" with entities [LocalPlayer, LocalPlayer], work=646*
203: 0x0661 [0x45] LOAD_SCHEDULED_TASK: Load scheduler "ahb5" with entities [LocalPlayer, LocalPlayer], work=[646*, 0*]
204: 0x0672 [0x1C] WAIT(60* ticks)
205: 0x0675 [0x2B] Arciela (ID: 17855058/0x01107252) [8634*]:
     "Let go of-- It's no use, <Player>! I can't get out!"
206: 0x067C [0x1C] WAIT(30* ticks)
207: 0x067F [0xBA] SET_ENTITY_POSITION(entity_id=LocalPlayer, pos_x=247.926*, pos_z=134.427*, pos_y=0.665*, direction=250.8*)
208: 0x068C [0x4A] LocalPlayer looks at Arciela (ID: 17855058/0x01107252)
209: 0x0695 [0x23] WAIT_FOR_DIALOG_INTERACTION
210: 0x0696 [0x52] END_LOAD_SCHEDULER: End scheduler "ahb5" with entities [LocalPlayer, LocalPlayer], work=646*
211: 0x06A5 [0x02] IF !(ExtData[1]->WorkLocal[2] == 1*) GOTO 0x06C1
212: 0x06AD [0x45] LOAD_SCHEDULED_TASK: Load scheduler "hm02" with entities [LocalPlayer, LocalPlayer], work=[646*, 0*]
213: 0x06BE [0x01] GOTO 0x075E
214: 0x06C1 [0x02] IF !(ExtData[1]->WorkLocal[2] == 2*) GOTO 0x06DD
215: 0x06C9 [0x45] LOAD_SCHEDULED_TASK: Load scheduler "hf02" with entities [LocalPlayer, LocalPlayer], work=[646*, 0*]
216: 0x06DA [0x01] GOTO 0x075E
217: 0x06DD [0x02] IF !(ExtData[1]->WorkLocal[2] == 3*) GOTO 0x06F9
218: 0x06E5 [0x45] LOAD_SCHEDULED_TASK: Load scheduler "em02" with entities [LocalPlayer, LocalPlayer], work=[646*, 0*]
219: 0x06F6 [0x01] GOTO 0x075E
220: 0x06F9 [0x02] IF !(ExtData[1]->WorkLocal[2] == 4*) GOTO 0x0715
221: 0x0701 [0x45] LOAD_SCHEDULED_TASK: Load scheduler "ef02" with entities [LocalPlayer, LocalPlayer], work=[646*, 0*]
222: 0x0712 [0x01] GOTO 0x075E
223: 0x0715 [0x02] IF !(ExtData[1]->WorkLocal[2] == 7*) GOTO 0x0731
224: 0x071D [0x45] LOAD_SCHEDULED_TASK: Load scheduler "mt02" with entities [LocalPlayer, LocalPlayer], work=[646*, 0*]
225: 0x072E [0x01] GOTO 0x075E
226: 0x0731 [0x02] IF !(ExtData[1]->WorkLocal[2] == 8*) GOTO 0x074D
227: 0x0739 [0x45] LOAD_SCHEDULED_TASK: Load scheduler "gl02" with entities [LocalPlayer, LocalPlayer], work=[646*, 0*]
228: 0x074A [0x01] GOTO 0x075E
229: 0x074D [0x45] LOAD_SCHEDULED_TASK: Load scheduler "tr02" with entities [LocalPlayer, LocalPlayer], work=[646*, 0*]

SUBROUTINE_075E:
230: 0x075E [0x27] REQ_SET(priority=0x10, entity_id=LocalPlayer, tag_num=0x1B)
231: 0x0765 [0xBA] SET_ENTITY_POSITION(entity_id=Arciela (ID: 17855058/0x01107252), pos_x=248.012*, pos_z=125.949*, pos_y=0.447*, direction=270.0*)
232: 0x0772 [0xBA] SET_ENTITY_POSITION(entity_id=Unnamed NPC (ID: 17855060/0x01107254), pos_x=248.012*, pos_z=125.949*, pos_y=0.447*, direction=270.0*)
233: 0x077F [0x1C] WAIT(15* ticks)
234: 0x0782 [0x5B] LOAD_EXT_SCHEDULER: Load scheduler "arc1" with entities [Unnamed NPC (ID: 17855061/0x01107255), Unnamed NPC (ID: 17855061/0x01107255)], work=3248*
235: 0x0791 [0x52] END_LOAD_SCHEDULER: End scheduler "hm02" with entities [LocalPlayer, LocalPlayer], work=646*
236: 0x07A0 [0x52] END_LOAD_SCHEDULER: End scheduler "hf02" with entities [LocalPlayer, LocalPlayer], work=646*
237: 0x07AF [0x52] END_LOAD_SCHEDULER: End scheduler "em02" with entities [LocalPlayer, LocalPlayer], work=646*
238: 0x07BE [0x52] END_LOAD_SCHEDULER: End scheduler "ef02" with entities [LocalPlayer, LocalPlayer], work=646*
239: 0x07CD [0x52] END_LOAD_SCHEDULER: End scheduler "mt02" with entities [LocalPlayer, LocalPlayer], work=646*
240: 0x07DC [0x52] END_LOAD_SCHEDULER: End scheduler "gl02" with entities [LocalPlayer, LocalPlayer], work=646*
241: 0x07EB [0x52] END_LOAD_SCHEDULER: End scheduler "tr02" with entities [LocalPlayer, LocalPlayer], work=646*
242: 0x07FA [0x45] LOAD_SCHEDULED_TASK: Load scheduler "ah06" with entities [LocalPlayer, LocalPlayer], work=[646*, 0*]
243: 0x080B [0x1C] WAIT(20* ticks)
244: 0x080E [0x27] REQ_SET(priority=0x10, entity_id=Unnamed NPC (ID: 17855054/0x0110724E), tag_num=0x07)
245: 0x0815 [0x5B] LOAD_EXT_SCHEDULER: Load scheduler "gak0" with entities [Unnamed NPC (ID: 17855063/0x01107257), Unnamed NPC (ID: 17855063/0x01107257)], work=3248*
246: 0x0824 [0xCD] LOAD_SCHEDULED_TASK_ALT4: Load scheduler "st01" with entities [Unnamed NPC (ID: 17855063/0x01107257), Unnamed NPC (ID: 17855063/0x01107257)], work=[156*, 0*]
247: 0x0835 [0x1C] WAIT(60* ticks)
248: 0x0838 [0x27] REQ_SET(priority=0x10, entity_id=Unnamed NPC (ID: 17855054/0x0110724E), tag_num=0x0C)
249: 0x083F [0x52] END_LOAD_SCHEDULER: End scheduler "ah06" with entities [LocalPlayer, LocalPlayer], work=646*
250: 0x084E [0x45] LOAD_SCHEDULED_TASK: Load scheduler "ah07" with entities [LocalPlayer, LocalPlayer], work=[646*, 0*]
251: 0x085F [0x27] REQ_SET(priority=0x10, entity_id=Unnamed NPC (ID: 17855054/0x0110724E), tag_num=0x0F)
252: 0x0866 [0x4E] SET_ENTITY_HIDE_FLAG: Hide Arciela (ID: 17855058/0x01107252)
253: 0x086C [0x4E] SET_ENTITY_HIDE_FLAG: Hide Unnamed NPC (ID: 17855060/0x01107254)
254: 0x0872 [0x4E] SET_ENTITY_HIDE_FLAG: Hide LocalPlayer
255: 0x0878 [0x7B] LocalPlayer stops talking
256: 0x087D [0x1C] WAIT(60* ticks)
257: 0x0880 [0x27] REQ_SET(priority=0x10, entity_id=Unnamed NPC (ID: 17855054/0x0110724E), tag_num=0x06)
258: 0x0887 [0x5B] LOAD_EXT_SCHEDULER: Load scheduler "gak1" with entities [Unnamed NPC (ID: 17855062/0x01107256), Unnamed NPC (ID: 17855062/0x01107256)], work=3248*
259: 0x0896 [0xCD] LOAD_SCHEDULED_TASK_ALT4: Load scheduler "st02" with entities [Unnamed NPC (ID: 17855062/0x01107256), Unnamed NPC (ID: 17855062/0x01107256)], work=[156*, 0*]
260: 0x08A7 [0x03] Work_Zone[2] = 480*
261: 0x08AC [0x27] REQ_SET(priority=0x10, entity_id=??? (ID: 17855053/0x0110724D), tag_num=0x01)
262: 0x08B3 [0x1C] WAIT(60* ticks)
263: 0x08B6 [0x27] REQ_SET(priority=0x10, entity_id=Unnamed NPC (ID: 17855054/0x0110724E), tag_num=0x08)
264: 0x08BD [0x5B] LOAD_EXT_SCHEDULER: Load scheduler "oki0" with entities [Unnamed NPC (ID: 17855064/0x01107258), Unnamed NPC (ID: 17855064/0x01107258)], work=3250*
265: 0x08CC [0xCD] LOAD_SCHEDULED_TASK_ALT4: Load scheduler "st03" with entities [Unnamed NPC (ID: 17855064/0x01107258), Unnamed NPC (ID: 17855064/0x01107258)], work=[156*, 0*]
266: 0x08DD [0x52] END_LOAD_SCHEDULER: End scheduler "ah07" with entities [LocalPlayer, LocalPlayer], work=646*
267: 0x08EC [0x45] LOAD_SCHEDULED_TASK: Load scheduler "ah08" with entities [LocalPlayer, LocalPlayer], work=[646*, 0*]
268: 0x08FD [0x1C] WAIT(270* ticks)
269: 0x0900 [0x27] REQ_SET(priority=0x10, entity_id=Unnamed NPC (ID: 17855054/0x0110724E), tag_num=0x0D)
270: 0x0907 [0x5B] LOAD_EXT_SCHEDULER: Load scheduler "oki1" with entities [Unnamed NPC (ID: 17855061/0x01107255), Unnamed NPC (ID: 17855061/0x01107255)], work=3250*
271: 0x0916 [0xCD] LOAD_SCHEDULED_TASK_ALT4: Load scheduler "st04" with entities [Unnamed NPC (ID: 17855061/0x01107255), Unnamed NPC (ID: 17855061/0x01107255)], work=[156*, 0*]
272: 0x0927 [0x27] REQ_SET(priority=0x10, entity_id=Unnamed NPC (ID: 17855054/0x0110724E), tag_num=0x05)
273: 0x092E [0x1C] WAIT(70* ticks)
274: 0x0931 [0x52] END_LOAD_SCHEDULER: End scheduler "ah08" with entities [LocalPlayer, LocalPlayer], work=646*
275: 0x0940 [0x45] LOAD_SCHEDULED_TASK: Load scheduler "ah10" with entities [LocalPlayer, LocalPlayer], work=[646*, 0*]
276: 0x0951 [0x1C] WAIT(30* ticks)
277: 0x0954 [0x27] REQ_SET(priority=0x10, entity_id=Unnamed NPC (ID: 17855054/0x0110724E), tag_num=0x0E)
278: 0x095B [0x53] WAIT_SCHEDULER_TASK: Wait for scheduler "oki1" with entities [Unnamed NPC (ID: 17855061/0x01107255), Unnamed NPC (ID: 17855061/0x01107255)]
279: 0x0968 [0x4E] SET_ENTITY_HIDE_FLAG: Show LocalPlayer
280: 0x096E [0x52] END_LOAD_SCHEDULER: End scheduler "ah08" with entities [LocalPlayer, LocalPlayer], work=646*
281: 0x097D [0x02] IF !(ExtData[1]->WorkLocal[2] == 1*) GOTO 0x0999
282: 0x0985 [0x45] LOAD_SCHEDULED_TASK: Load scheduler "hm03" with entities [LocalPlayer, LocalPlayer], work=[646*, 0*]
283: 0x0996 [0x01] GOTO 0x0A36
284: 0x0999 [0x02] IF !(ExtData[1]->WorkLocal[2] == 2*) GOTO 0x09B5
285: 0x09A1 [0x45] LOAD_SCHEDULED_TASK: Load scheduler "hf03" with entities [LocalPlayer, LocalPlayer], work=[646*, 0*]
286: 0x09B2 [0x01] GOTO 0x0A36
287: 0x09B5 [0x02] IF !(ExtData[1]->WorkLocal[2] == 3*) GOTO 0x09D1
288: 0x09BD [0x45] LOAD_SCHEDULED_TASK: Load scheduler "em03" with entities [LocalPlayer, LocalPlayer], work=[646*, 0*]
289: 0x09CE [0x01] GOTO 0x0A36
290: 0x09D1 [0x02] IF !(ExtData[1]->WorkLocal[2] == 4*) GOTO 0x09ED
291: 0x09D9 [0x45] LOAD_SCHEDULED_TASK: Load scheduler "ef03" with entities [LocalPlayer, LocalPlayer], work=[646*, 0*]
292: 0x09EA [0x01] GOTO 0x0A36
293: 0x09ED [0x02] IF !(ExtData[1]->WorkLocal[2] == 7*) GOTO 0x0A09
294: 0x09F5 [0x45] LOAD_SCHEDULED_TASK: Load scheduler "mt03" with entities [LocalPlayer, LocalPlayer], work=[646*, 0*]
295: 0x0A06 [0x01] GOTO 0x0A36
296: 0x0A09 [0x02] IF !(ExtData[1]->WorkLocal[2] == 8*) GOTO 0x0A25
297: 0x0A11 [0x45] LOAD_SCHEDULED_TASK: Load scheduler "gl03" with entities [LocalPlayer, LocalPlayer], work=[646*, 0*]
298: 0x0A22 [0x01] GOTO 0x0A36
299: 0x0A25 [0x45] LOAD_SCHEDULED_TASK: Load scheduler "tr03" with entities [LocalPlayer, LocalPlayer], work=[646*, 0*]

SUBROUTINE_0A36:
300: 0x0A36 [0x5B] LOAD_EXT_SCHEDULER: Load scheduler "kbts" with entities [Unnamed NPC (ID: 17855061/0x01107255), Unnamed NPC (ID: 17855061/0x01107255)], work=3250*
301: 0x0A45 [0x79] LocalPlayer looks at Unnamed NPC (ID: 17855061/0x01107255) (Basic look)
302: 0x0A4F [0x6E] LocalPlayer uses emote 29*
303: 0x0A56 [0x99] Wait for LocalPlayer animation to complete
304: 0x0A5B [0x1C] WAIT(10* ticks)
305: 0x0A5E [0x27] REQ_SET(priority=0x10, entity_id=??? (ID: 17855053/0x0110724D), tag_num=0x04)
306: 0x0A65 [0x1C] WAIT(90* ticks)
307: 0x0A68 [0x52] END_LOAD_SCHEDULER: End scheduler "hm03" with entities [LocalPlayer, LocalPlayer], work=646*
308: 0x0A77 [0x52] END_LOAD_SCHEDULER: End scheduler "hf03" with entities [LocalPlayer, LocalPlayer], work=646*
309: 0x0A86 [0x52] END_LOAD_SCHEDULER: End scheduler "em03" with entities [LocalPlayer, LocalPlayer], work=646*
310: 0x0A95 [0x52] END_LOAD_SCHEDULER: End scheduler "ef03" with entities [LocalPlayer, LocalPlayer], work=646*
311: 0x0AA4 [0x52] END_LOAD_SCHEDULER: End scheduler "mt03" with entities [LocalPlayer, LocalPlayer], work=646*
312: 0x0AB3 [0x52] END_LOAD_SCHEDULER: End scheduler "gl03" with entities [LocalPlayer, LocalPlayer], work=646*
313: 0x0AC2 [0x52] END_LOAD_SCHEDULER: End scheduler "tr03" with entities [LocalPlayer, LocalPlayer], work=646*
314: 0x0AD1 [0x45] LOAD_SCHEDULED_TASK: Load scheduler "ah20" with entities [LocalPlayer, LocalPlayer], work=[646*, 0*]
315: 0x0AE2 [0x1C] WAIT(150* ticks)
316: 0x0AE5 [0x52] END_LOAD_SCHEDULER: End scheduler "ah20" with entities [LocalPlayer, LocalPlayer], work=646*
317: 0x0AF4 [0x45] LOAD_SCHEDULED_TASK: Load scheduler "ah21" with entities [LocalPlayer, LocalPlayer], work=[646*, 0*]
318: 0x0B05 [0x1C] WAIT(120* ticks)
319: 0x0B08 [0x7B] LocalPlayer stops talking
320: 0x0B0D [0x2B] Arciela (ID: 17855058/0x01107252) [8635*]:
     "Wait! We're not here to hurt you!"
321: 0x0B14 [0x23] WAIT_FOR_DIALOG_INTERACTION
322: 0x0B15 [0x52] END_LOAD_SCHEDULER: End scheduler "ah21" with entities [LocalPlayer, LocalPlayer], work=646*
323: 0x0B24 [0x45] LOAD_SCHEDULED_TASK: Load scheduler "ah2a" with entities [LocalPlayer, LocalPlayer], work=[646*, 0*]
324: 0x0B35 [0x2B] Arciela (ID: 17855058/0x01107252) [8636*]:
     "Right, <Player>?"
325: 0x0B3C [0x23] WAIT_FOR_DIALOG_INTERACTION
326: 0x0B3D [0x52] END_LOAD_SCHEDULER: End scheduler "ah2a" with entities [LocalPlayer, LocalPlayer], work=646*
327: 0x0B4C [0x02] IF !(ExtData[1]->WorkLocal[2] == 1*) GOTO 0x0B68
328: 0x0B54 [0x45] LOAD_SCHEDULED_TASK: Load scheduler "hm03" with entities [LocalPlayer, LocalPlayer], work=[646*, 0*]
329: 0x0B65 [0x01] GOTO 0x0C05
330: 0x0B68 [0x02] IF !(ExtData[1]->WorkLocal[2] == 2*) GOTO 0x0B84
331: 0x0B70 [0x45] LOAD_SCHEDULED_TASK: Load scheduler "hf03" with entities [LocalPlayer, LocalPlayer], work=[646*, 0*]
332: 0x0B81 [0x01] GOTO 0x0C05
333: 0x0B84 [0x02] IF !(ExtData[1]->WorkLocal[2] == 3*) GOTO 0x0BA0
334: 0x0B8C [0x45] LOAD_SCHEDULED_TASK: Load scheduler "em03" with entities [LocalPlayer, LocalPlayer], work=[646*, 0*]
335: 0x0B9D [0x01] GOTO 0x0C05
336: 0x0BA0 [0x02] IF !(ExtData[1]->WorkLocal[2] == 4*) GOTO 0x0BBC
337: 0x0BA8 [0x45] LOAD_SCHEDULED_TASK: Load scheduler "ef03" with entities [LocalPlayer, LocalPlayer], work=[646*, 0*]
338: 0x0BB9 [0x01] GOTO 0x0C05
339: 0x0BBC [0x02] IF !(ExtData[1]->WorkLocal[2] == 7*) GOTO 0x0BD8
340: 0x0BC4 [0x45] LOAD_SCHEDULED_TASK: Load scheduler "mt03" with entities [LocalPlayer, LocalPlayer], work=[646*, 0*]
341: 0x0BD5 [0x01] GOTO 0x0C05
342: 0x0BD8 [0x02] IF !(ExtData[1]->WorkLocal[2] == 8*) GOTO 0x0BF4
343: 0x0BE0 [0x45] LOAD_SCHEDULED_TASK: Load scheduler "gl03" with entities [LocalPlayer, LocalPlayer], work=[646*, 0*]
344: 0x0BF1 [0x01] GOTO 0x0C05
345: 0x0BF4 [0x45] LOAD_SCHEDULED_TASK: Load scheduler "tr03" with entities [LocalPlayer, LocalPlayer], work=[646*, 0*]

SUBROUTINE_0C05:
346: 0x0C05 [0x5B] LOAD_EXT_SCHEDULER: Load scheduler 0xFEFEFE00 with entities [Arciela (ID: 17855058/0x01107252), Arciela (ID: 17855058/0x01107252)], work=3303*
347: 0x0C14 [0x5B] LOAD_EXT_SCHEDULER: Load scheduler 0xFEFEFE00 with entities [Unnamed NPC (ID: 17855060/0x01107254), Unnamed NPC (ID: 17855060/0x01107254)], work=3254*
348: 0x0C23 [0x6E] LocalPlayer uses emote 7*
349: 0x0C2A [0x99] Wait for LocalPlayer animation to complete
350: 0x0C2F [0x1C] WAIT(60* ticks)
351: 0x0C32 [0x5B] LOAD_EXT_SCHEDULER: Load scheduler "cap2" with entities [Arciela (ID: 17855058/0x01107252), Arciela (ID: 17855058/0x01107252)], work=3303*
352: 0x0C41 [0x5B] LOAD_EXT_SCHEDULER: Load scheduler "cap2" with entities [Unnamed NPC (ID: 17855060/0x01107254), Unnamed NPC (ID: 17855060/0x01107254)], work=3254*
353: 0x0C50 [0x03] Work_Zone[2] = 210*
354: 0x0C55 [0x27] REQ_SET(priority=0x10, entity_id=??? (ID: 17855053/0x0110724D), tag_num=0x01)
355: 0x0C5C [0x1C] WAIT(30* ticks)
356: 0x0C5F [0xBA] SET_ENTITY_POSITION(entity_id=Unnamed NPC (ID: 17855064/0x01107258), pos_x=240.000*, pos_z=128.000*, pos_y=0.250*, direction=270.0*)
357: 0x0C6C [0xBA] SET_ENTITY_POSITION(entity_id=Unnamed NPC (ID: 17855065/0x01107259), pos_x=240.000*, pos_z=128.000*, pos_y=0.250*, direction=270.0*)
358: 0x0C79 [0xBA] SET_ENTITY_POSITION(entity_id=Unnamed NPC (ID: 17855066/0x0110725A), pos_x=240.000*, pos_z=128.000*, pos_y=0.250*, direction=270.0*)
359: 0x0C86 [0x52] END_LOAD_SCHEDULER: End scheduler "hm03" with entities [LocalPlayer, LocalPlayer], work=646*
360: 0x0C95 [0x52] END_LOAD_SCHEDULER: End scheduler "hf03" with entities [LocalPlayer, LocalPlayer], work=646*
361: 0x0CA4 [0x52] END_LOAD_SCHEDULER: End scheduler "em03" with entities [LocalPlayer, LocalPlayer], work=646*
362: 0x0CB3 [0x52] END_LOAD_SCHEDULER: End scheduler "ef03" with entities [LocalPlayer, LocalPlayer], work=646*
363: 0x0CC2 [0x52] END_LOAD_SCHEDULER: End scheduler "mt03" with entities [LocalPlayer, LocalPlayer], work=646*
364: 0x0CD1 [0x52] END_LOAD_SCHEDULER: End scheduler "gl03" with entities [LocalPlayer, LocalPlayer], work=646*
365: 0x0CE0 [0x52] END_LOAD_SCHEDULER: End scheduler "tr03" with entities [LocalPlayer, LocalPlayer], work=646*
366: 0x0CEF [0x45] LOAD_SCHEDULED_TASK: Load scheduler "ah23" with entities [LocalPlayer, LocalPlayer], work=[646*, 0*]
367: 0x0D00 [0x5B] LOAD_EXT_SCHEDULER: Load scheduler "kiks" with entities [Unnamed NPC (ID: 17855062/0x01107256), Unnamed NPC (ID: 17855062/0x01107256)], work=3255*
368: 0x0D0F [0x5B] LOAD_EXT_SCHEDULER: Load scheduler "kbts" with entities [Unnamed NPC (ID: 17855063/0x01107257), Unnamed NPC (ID: 17855063/0x01107257)], work=3250*
369: 0x0D1E [0x2A] GET_REQ_LEVEL(level=16, entity_id=??? (ID: 17855053/0x0110724D))
370: 0x0D24 [0x5B] LOAD_EXT_SCHEDULER: Load scheduler "jmp1" with entities [Unnamed NPC (ID: 17855065/0x01107259), Unnamed NPC (ID: 17855065/0x01107259)], work=3255*
371: 0x0D33 [0x1C] WAIT(30* ticks)
372: 0x0D36 [0x5B] LOAD_EXT_SCHEDULER: Load scheduler "aor1" with entities [Unnamed NPC (ID: 17855064/0x01107258), Unnamed NPC (ID: 17855064/0x01107258)], work=3317*
373: 0x0D45 [0x5B] LOAD_EXT_SCHEDULER: Load scheduler "ken0" with entities [Unnamed NPC (ID: 17855066/0x0110725A), Unnamed NPC (ID: 17855066/0x0110725A)], work=3303*
374: 0x0D54 [0x03] Work_Zone[2] = 490*
375: 0x0D59 [0x27] REQ_SET(priority=0x10, entity_id=??? (ID: 17855053/0x0110724D), tag_num=0x01)
376: 0x0D60 [0x1C] WAIT(60* ticks)
377: 0x0D63 [0x52] END_LOAD_SCHEDULER: End scheduler "ah23" with entities [LocalPlayer, LocalPlayer], work=646*
378: 0x0D72 [0x45] LOAD_SCHEDULED_TASK: Load scheduler "ah25" with entities [LocalPlayer, LocalPlayer], work=[646*, 0*]
379: 0x0D83 [0x27] REQ_SET(priority=0x10, entity_id=Unnamed NPC (ID: 17855054/0x0110724E), tag_num=0x0A)
380: 0x0D8A [0x5D] SET_MUSIC_VOLUME(volume=0*, fade_time=300*)
381: 0x0D8F [0x2A] GET_REQ_LEVEL(level=16, entity_id=??? (ID: 17855053/0x0110724D))
382: 0x0D95 [0x52] END_LOAD_SCHEDULER: End scheduler "ah25" with entities [LocalPlayer, LocalPlayer], work=646*
383: 0x0DA4 [0x45] LOAD_SCHEDULED_TASK: Load scheduler "ah28" with entities [LocalPlayer, LocalPlayer], work=[646*, 0*]
384: 0x0DB5 [0x27] REQ_SET(priority=0x10, entity_id=Unnamed NPC (ID: 17855054/0x0110724E), tag_num=0x03)
385: 0x0DBC [0x5B] LOAD_EXT_SCHEDULER: Load scheduler "jmp2" with entities [Unnamed NPC (ID: 17855065/0x01107259), Unnamed NPC (ID: 17855065/0x01107259)], work=3255*
386: 0x0DCB [0x03] Work_Zone[2] = 96*
387: 0x0DD0 [0x27] REQ_SET(priority=0x10, entity_id=??? (ID: 17855053/0x0110724D), tag_num=0x01)
388: 0x0DD7 [0x2A] GET_REQ_LEVEL(level=16, entity_id=??? (ID: 17855053/0x0110724D))
389: 0x0DDD [0x52] END_LOAD_SCHEDULER: End scheduler "ah28" with entities [LocalPlayer, LocalPlayer], work=646*
390: 0x0DEC [0x45] LOAD_SCHEDULED_TASK: Load scheduler "ah30" with entities [LocalPlayer, LocalPlayer], work=[646*, 0*]
391: 0x0DFD [0x5B] LOAD_EXT_SCHEDULER: Load scheduler 0xFEFEFE00 with entities [Arciela (ID: 17855058/0x01107252), Arciela (ID: 17855058/0x01107252)], work=3304*
392: 0x0E0C [0x5B] LOAD_EXT_SCHEDULER: Load scheduler 0xFEFEFE00 with entities [Unnamed NPC (ID: 17855060/0x01107254), Unnamed NPC (ID: 17855060/0x01107254)], work=3254*
393: 0x0E1B [0x1C] WAIT(30* ticks)
394: 0x0E1E [0x5B] LOAD_EXT_SCHEDULER: Load scheduler "hnd0" with entities [Unnamed NPC (ID: 17855059/0x01107253), Unnamed NPC (ID: 17855059/0x01107253)], work=3318*
395: 0x0E2D [0x03] Work_Zone[2] = 180*
396: 0x0E32 [0x27] REQ_SET(priority=0x10, entity_id=??? (ID: 17855053/0x0110724D), tag_num=0x01)
397: 0x0E39 [0x5B] LOAD_EXT_SCHEDULER: Load scheduler "cap4" with entities [Arciela (ID: 17855058/0x01107252), Arciela (ID: 17855058/0x01107252)], work=3304*
398: 0x0E48 [0x5B] LOAD_EXT_SCHEDULER: Load scheduler "cap4" with entities [Unnamed NPC (ID: 17855060/0x01107254), Unnamed NPC (ID: 17855060/0x01107254)], work=3254*
399: 0x0E57 [0x2A] GET_REQ_LEVEL(level=16, entity_id=??? (ID: 17855053/0x0110724D))
400: 0x0E5D [0x81] SET_ENTITY_BLINKING(blink_flag=0x00, entity=Arciela (ID: 17855058/0x01107252))
401: 0x0E63 [0x7C] Arciela (ID: 17855058/0x01107252)->Render.Flags2 |= 0x00
402: 0x0E69 [0x52] END_LOAD_SCHEDULER: End scheduler "ah30" with entities [LocalPlayer, LocalPlayer], work=646*
403: 0x0E78 [0x45] LOAD_SCHEDULED_TASK: Load scheduler "ah32" with entities [LocalPlayer, LocalPlayer], work=[646*, 0*]
404: 0x0E89 [0x5B] LOAD_EXT_SCHEDULER: Load scheduler "cap5" with entities [Arciela (ID: 17855058/0x01107252), Arciela (ID: 17855058/0x01107252)], work=3304*
405: 0x0E98 [0x5B] LOAD_EXT_SCHEDULER: Load scheduler "cap5" with entities [Unnamed NPC (ID: 17855060/0x01107254), Unnamed NPC (ID: 17855060/0x01107254)], work=3254*
406: 0x0EA7 [0x03] Work_Zone[2] = 420*
407: 0x0EAC [0x27] REQ_SET(priority=0x10, entity_id=??? (ID: 17855053/0x0110724D), tag_num=0x01)
408: 0x0EB3 [0x1C] WAIT(30* ticks)
409: 0x0EB6 [0x2B] Arciela (ID: 17855058/0x01107252) [8637*]:
     "Hey--! I... Ouch!"
410: 0x0EBD [0x1C] WAIT(270* ticks)
411: 0x0EC0 [0x2B] Arciela (ID: 17855058/0x01107252) [8638*]:
     "Uwaaaaaaaaah!"
412: 0x0EC7 [0x1C] WAIT(30* ticks)
413: 0x0ECA [0xBA] SET_ENTITY_POSITION(entity_id=Unnamed NPC (ID: 17855064/0x01107258), pos_x=248.000*, pos_z=120.000*, pos_y=-0.250*, direction=270.0*)
414: 0x0ED7 [0xBA] SET_ENTITY_POSITION(entity_id=Unnamed NPC (ID: 17855065/0x01107259), pos_x=248.000*, pos_z=120.000*, pos_y=-0.250*, direction=270.0*)
415: 0x0EE4 [0xAE] MULTI_PURPOSE_ENTITY_HANDLER(case_type=0x06 - Unset ActorPointer, entity=Unnamed NPC (ID: 17855060/0x01107254))
416: 0x0EEA [0xCD] LOAD_SCHEDULED_TASK_ALT4: Load scheduler "s002" with entities [EventEntity, EventEntity], work=[7*, 0*]
417: 0x0EFB [0x45] LOAD_SCHEDULED_TASK: Load scheduler "se01" with entities [Unnamed NPC (ID: 17855060/0x01107254), Unnamed NPC (ID: 17855060/0x01107254)], work=[646*, 0*]
418: 0x0F0C [0x2A] GET_REQ_LEVEL(level=16, entity_id=??? (ID: 17855053/0x0110724D))
419: 0x0F12 [0x5B] LOAD_EXT_SCHEDULER: Load scheduler "ita0" with entities [Arciela (ID: 17855058/0x01107252), Arciela (ID: 17855058/0x01107252)], work=3303*
420: 0x0F21 [0x5B] LOAD_EXT_SCHEDULER: Load scheduler "ita0" with entities [Unnamed NPC (ID: 17855064/0x01107258), Unnamed NPC (ID: 17855064/0x01107258)], work=3317*
421: 0x0F30 [0x5B] LOAD_EXT_SCHEDULER: Load scheduler "awa0" with entities [Unnamed NPC (ID: 17855065/0x01107259), Unnamed NPC (ID: 17855065/0x01107259)], work=3319*
422: 0x0F3F [0x1C] WAIT(15* ticks)
423: 0x0F42 [0x52] END_LOAD_SCHEDULER: End scheduler "ah30" with entities [LocalPlayer, LocalPlayer], work=646*
424: 0x0F51 [0x45] LOAD_SCHEDULED_TASK: Load scheduler "ah33" with entities [LocalPlayer, LocalPlayer], work=[646*, 0*]
425: 0x0F62 [0x4E] SET_ENTITY_HIDE_FLAG: Hide Unnamed NPC (ID: 17855060/0x01107254)
426: 0x0F68 [0x1C] WAIT(150* ticks)
427: 0x0F6B [0x7C] Arciela (ID: 17855058/0x01107252)->Render.Flags2 |= 0x01
428: 0x0F71 [0x81] SET_ENTITY_BLINKING(blink_flag=0x00, entity=Unnamed NPC (ID: 17855064/0x01107258))
429: 0x0F77 [0x5B] LOAD_EXT_SCHEDULER: Load scheduler "ita1" with entities [Arciela (ID: 17855058/0x01107252), Arciela (ID: 17855058/0x01107252)], work=3303*
430: 0x0F86 [0x5B] LOAD_EXT_SCHEDULER: Load scheduler "ita1" with entities [Unnamed NPC (ID: 17855064/0x01107258), Unnamed NPC (ID: 17855064/0x01107258)], work=3317*
431: 0x0F95 [0x03] Work_Zone[2] = 180*
432: 0x0F9A [0x27] REQ_SET(priority=0x10, entity_id=??? (ID: 17855053/0x0110724D), tag_num=0x01)
433: 0x0FA1 [0x2B] Arciela (ID: 17855058/0x01107252) [8639*]:
     "I think...I think I sprained my ankle."
434: 0x0FA8 [0x23] WAIT_FOR_DIALOG_INTERACTION
435: 0x0FA9 [0x2A] GET_REQ_LEVEL(level=16, entity_id=??? (ID: 17855053/0x0110724D))
436: 0x0FAF [0x1A] CALL_SUBROUTINE(address=0x2CEA)
437: 0x0FB2 [0x1C] WAIT(30* ticks)
438: 0x0FB5 [0x81] SET_ENTITY_BLINKING(blink_flag=0x01, entity=Arciela (ID: 17855058/0x01107252))
439: 0x0FBB [0x81] SET_ENTITY_BLINKING(blink_flag=0x01, entity=Unnamed NPC (ID: 17855064/0x01107258))
440: 0x0FC1 [0x2C] CREATE_SCHEDULER_TASK: Create scheduler "w7on" with entities [Arciela (ID: 17855058/0x01107252), Arciela (ID: 17855058/0x01107252)]
441: 0x0FCE [0x27] REQ_SET(priority=0x10, entity_id=Arciela (ID: 17855058/0x01107252), tag_num=0x0F)
442: 0x0FD5 [0x52] END_LOAD_SCHEDULER: End scheduler "ah33" with entities [LocalPlayer, LocalPlayer], work=646*
443: 0x0FE4 [0x4E] SET_ENTITY_HIDE_FLAG: Hide Unnamed NPC (ID: 17855060/0x01107254)
444: 0x0FEA [0x4E] SET_ENTITY_HIDE_FLAG: Hide Unnamed NPC (ID: 17855065/0x01107259)
445: 0x0FF0 [0x4E] SET_ENTITY_HIDE_FLAG: Hide Unnamed NPC (ID: 17855066/0x0110725A)
446: 0x0FF6 [0x4E] SET_ENTITY_HIDE_FLAG: Hide Unnamed NPC (ID: 17855068/0x0110725C)
447: 0x0FFC [0x6B] STOP_AND_IDLE: Unnamed NPC (ID: 17855061/0x01107255) stops current action and resets to idle (animation="idl0")
448: 0x1005 [0x6B] STOP_AND_IDLE: Unnamed NPC (ID: 17855062/0x01107256) stops current action and resets to idle (animation="idl0")
449: 0x100E [0x6B] STOP_AND_IDLE: Unnamed NPC (ID: 17855063/0x01107257) stops current action and resets to idle (animation="idl0")
450: 0x1017 [0x6B] STOP_AND_IDLE: Unnamed NPC (ID: 17855064/0x01107258) stops current action and resets to idle (animation="idl0")
451: 0x1020 [0x6B] STOP_AND_IDLE: Arciela (ID: 17855058/0x01107252) stops current action and resets to idle (animation="idl0")
452: 0x1029 [0x27] REQ_SET(priority=0x05, entity_id=Unnamed NPC (ID: 17855059/0x01107253), tag_num=0x03)
453: 0x1030 [0x27] REQ_SET(priority=0x05, entity_id=Unnamed NPC (ID: 17855061/0x01107255), tag_num=0x03)
454: 0x1037 [0x27] REQ_SET(priority=0x05, entity_id=Unnamed NPC (ID: 17855062/0x01107256), tag_num=0x03)
455: 0x103E [0x27] REQ_SET(priority=0x05, entity_id=Unnamed NPC (ID: 17855063/0x01107257), tag_num=0x03)
456: 0x1045 [0x27] REQ_SET(priority=0x05, entity_id=Unnamed NPC (ID: 17855064/0x01107258), tag_num=0x03)
457: 0x104C [0x59] UPDATE_ENTITY_DATA: Unnamed NPC (ID: 17855062/0x01107256)->Render.Flags0 |= 0x200000
458: 0x1053 [0xBA] SET_ENTITY_POSITION(entity_id=LocalPlayer, pos_x=250.559*, pos_z=126.346*, pos_y=0.461*, direction=104.6*)
459: 0x1060 [0xBA] SET_ENTITY_POSITION(entity_id=Arciela (ID: 17855058/0x01107252), pos_x=248.448*, pos_z=126.844*, pos_y=0.488*, direction=104.6*)
460: 0x106D [0xBA] SET_ENTITY_POSITION(entity_id=Unnamed NPC (ID: 17855059/0x01107253), pos_x=248.321*, pos_z=122.982*, pos_y=0.182*, direction=289.2*)
461: 0x107A [0xBA] SET_ENTITY_POSITION(entity_id=Unnamed NPC (ID: 17855061/0x01107255), pos_x=249.766*, pos_z=121.327*, pos_y=-0.092*, direction=271.7*)
462: 0x1087 [0xBA] SET_ENTITY_POSITION(entity_id=Unnamed NPC (ID: 17855062/0x01107256), pos_x=252.769*, pos_z=123.439*, pos_y=0.100*, direction=104.6*)
463: 0x1094 [0xBA] SET_ENTITY_POSITION(entity_id=Unnamed NPC (ID: 17855063/0x01107257), pos_x=251.542*, pos_z=123.294*, pos_y=0.187*, direction=281.5*)
464: 0x10A1 [0xBA] SET_ENTITY_POSITION(entity_id=Unnamed NPC (ID: 17855064/0x01107258), pos_x=245.960*, pos_z=122.242*, pos_y=0.067*, direction=271.7*)
465: 0x10AE [0x80] LOAD_WAIT(entity=Arciela (ID: 17855058/0x01107252))
466: 0x10B3 [0x80] LOAD_WAIT(entity=LocalPlayer)
467: 0x10B8 [0x80] LOAD_WAIT(entity=Unnamed NPC (ID: 17855059/0x01107253))
468: 0x10BD [0x80] LOAD_WAIT(entity=Unnamed NPC (ID: 17855061/0x01107255))
469: 0x10C2 [0x80] LOAD_WAIT(entity=Unnamed NPC (ID: 17855062/0x01107256))
470: 0x10C7 [0x80] LOAD_WAIT(entity=Unnamed NPC (ID: 17855063/0x01107257))
471: 0x10CC [0x80] LOAD_WAIT(entity=Unnamed NPC (ID: 17855064/0x01107258))
472: 0x10D1 [0x4A] Unnamed NPC (ID: 17855061/0x01107255) looks at Arciela (ID: 17855058/0x01107252)
473: 0x10DA [0x4A] Unnamed NPC (ID: 17855061/0x01107255) looks at Arciela (ID: 17855058/0x01107252)
474: 0x10E3 [0x4A] Unnamed NPC (ID: 17855062/0x01107256) looks at Arciela (ID: 17855058/0x01107252)
