# 17855118

## Common Data

| Field            | Value                  |
|------------------|------------------------|
| Zone             | Yorcia Weald (ID: 263) |
| Block Size       | 2880 bytes             |
| Total Events     | 3                      |
| References Count | 134                    |

## List of Events

| Event ID              | Entrypoint   |   Size |   Instructions |
|-----------------------|--------------|--------|----------------|
| [65535](#event-65535) | 0x0000       |      1 |              1 |
| [5600](#event-5600)   | 0x0001       |   1867 |            404 |
| [5601](#event-5601)   | 0x074C       |    448 |            102 |

## DAT References (imed_data)

|   Index | Hex Value   |   Dec Value |
|---------|-------------|-------------|
|       0 | 0x0001      |           1 |
|       1 | 0x0003      |           3 |
|       2 | 0x0000      |           0 |
|       3 | 0x22D0      |        8912 |
|       4 | 0x22CF      |        8911 |
|       5 | 0x0002      |           2 |
|       6 | 0x22D1      |        8913 |
|       7 | 0x22D2      |        8914 |
|       8 | 0x235A      |        9050 |
|       9 | 0x22D3      |        8915 |
|      10 | 0x0007      |           7 |
|      11 | 0x22C7      |        8903 |
|      12 | 0x22C8      |        8904 |
|      13 | 0x22C9      |        8905 |
|      14 | 0x22CA      |        8906 |
|      15 | 0x22CB      |        8907 |
|      16 | 0x22CC      |        8908 |
|      17 | 0x22CD      |        8909 |
|      18 | 0x22CE      |        8910 |
|      19 | 0x0006      |           6 |
|      20 | 0x0014      |          20 |
|      21 | 0x001D      |          29 |
|      22 | 0x0004      |           4 |
|      23 | 0x22D4      |        8916 |
|      24 | 0x40000000  |  1073741824 |
|      25 | 0x22D5      |        8917 |
|      26 | 0x22D6      |        8918 |
|      27 | 0x22D7      |        8919 |
|      28 | 0x22D8      |        8920 |
|      29 | 0x22D9      |        8921 |
|      30 | 0x22DA      |        8922 |
|      31 | 0x22DB      |        8923 |
|      32 | 0x22DC      |        8924 |
|      33 | 0x22DD      |        8925 |
|      34 | 0x22DE      |        8926 |
|      35 | 0x22DF      |        8927 |
|      36 | 0x22E0      |        8928 |
|      37 | 0x22E1      |        8929 |
|      38 | 0x22E2      |        8930 |
|      39 | 0x22E3      |        8931 |
|      40 | 0x22E4      |        8932 |
|      41 | 0x22E5      |        8933 |
|      42 | 0x22F3      |        8947 |
|      43 | 0x0011      |          17 |
|      44 | 0x0012      |          18 |
|      45 | 0x0010      |          16 |
|      46 | 0x0020      |          32 |
|      47 | 0x0030      |          48 |
|      48 | 0x0040      |          64 |
|      49 | 0x22E6      |        8934 |
|      50 | 0x22F2      |        8946 |
|      51 | 0x0008      |           8 |
|      52 | 0x000F      |          15 |
|      53 | 0x22E7      |        8935 |
|      54 | 0x0028      |          40 |
|      55 | 0x22EA      |        8938 |
|      56 | 0x22EB      |        8939 |
|      57 | 0x22EC      |        8940 |
|      58 | 0x22ED      |        8941 |
|      59 | 0x0064      |         100 |
|      60 | 0x0005      |           5 |
|      61 | 0x22EE      |        8942 |
|      62 | 0x22F0      |        8944 |
|      63 | 0x22EF      |        8943 |
|      64 | 0x00C8      |         200 |
|      65 | 0x003C      |          60 |
|      66 | 0x0013      |          19 |
|      67 | 0x2D050     |      184400 |
|      68 | 0xFFFBEA4C  |  4294699596 |
|      69 | 0x0BB8      |        3000 |
|      70 | 0x0C00      |        3072 |
|      71 | 0x22F1      |        8945 |
|      72 | 0x22E8      |        8936 |
|      73 | 0x22E9      |        8937 |
|      74 | 0x6BEB      |       27627 |
|      75 | 0x5032      |       20530 |
|      76 | 0x5088      |       20616 |
|      77 | 0x50EE      |       20718 |
|      78 | 0x5117      |       20759 |
|      79 | 0x5149      |       20809 |
|      80 | 0x5179      |       20857 |
|      81 | 0x51A5      |       20901 |
|      82 | 0x51D2      |       20946 |
|      83 | 0x51FD      |       20989 |
|      84 | 0x522D      |       21037 |
|      85 | 0x5271      |       21105 |
|      86 | 0x52B1      |       21169 |
|      87 | 0x52E8      |       21224 |
|      88 | 0x53E4      |       21476 |
|      89 | 0x539C      |       21404 |
|      90 | 0x686D      |       26733 |
|      91 | 0x690B      |       26891 |
|      92 | 0x69A5      |       27045 |
|      93 | 0x6A60      |       27232 |
|      94 | 0x6B0A      |       27402 |
|      95 | 0x686E      |       26734 |
|      96 | 0x690C      |       26892 |
|      97 | 0x69A6      |       27046 |
|      98 | 0x6A61      |       27233 |
|      99 | 0x6B0B      |       27403 |
|     100 | 0x686F      |       26735 |
|     101 | 0x690D      |       26893 |
|     102 | 0x69A7      |       27047 |
|     103 | 0x6A62      |       27234 |
|     104 | 0x6B0C      |       27404 |
|     105 | 0x6870      |       26736 |
|     106 | 0x690E      |       26894 |
|     107 | 0x69A8      |       27048 |
|     108 | 0x6A63      |       27235 |
|     109 | 0x6B0D      |       27405 |
|     110 | 0x6871      |       26737 |
|     111 | 0x690F      |       26895 |
|     112 | 0x69A9      |       27049 |
|     113 | 0x6A64      |       27236 |
|     114 | 0x6B0E      |       27406 |
|     115 | 0x22F4      |        8948 |
|     116 | 0x22F5      |        8949 |
|     117 | 0x22F6      |        8950 |
|     118 | 0x22FD      |        8957 |
|     119 | 0x22FE      |        8958 |
|     120 | 0x22FF      |        8959 |
|     121 | 0x22F7      |        8951 |
|     122 | 0x22F8      |        8952 |
|     123 | 0x22F9      |        8953 |
|     124 | 0x2300      |        8960 |
|     125 | 0x2301      |        8961 |
|     126 | 0x2302      |        8962 |
|     127 | 0x22FA      |        8954 |
|     128 | 0x22FB      |        8955 |
|     129 | 0x22FC      |        8956 |
|     130 | 0x2303      |        8963 |
|     131 | 0x2304      |        8964 |
|     132 | 0x2305      |        8965 |
|     133 | 0x000A      |          10 |

## String References

- **8903**: ...%...
- **8904**: ...
- **8905**: Who...who are you?
- **8906**: <Player>?
- **8907**: I'm Lor...Lor...
- **8908**: Lorissa?
- **8916**: Inquire about anything? [No, thank you./Ask about Lorissa./Ask about $0./Exchange $0./Have $0 returned.]
- **8946**: Proceed? ($0 wing[/s]) [Of course./Not right now.]
- **8947**: Exchange for what? ($0 wing[/s]) [Nothing at the moment./$1. ($17 wing[/s])/$2. ($18 wing[/s])/$3. ($19 wing[/s])/$4. ($20 wing[/s])/$5. ($21 wing[/s])/$6. ($22 wing[/s])/$7. ($23 wing[/s])/$8. ($24 wing[/s])/$9. ($25 wing[/s])/$10. ($26 wing[/s])/$11. ($27 wing[/s])/$12. ($28 wing[/s])/$13. ($29 wing[/s])/$14. ($30 wing[/s])/$15. ($31 wing[/s])/$16. ($ wing[/s])/Previous page./Next page.]

## Events

### Event 65535

#### Metadata

| Field        | Value   |
|--------------|---------|
| Entrypoint   | 0x0000  |
| Data Size    | 1 bytes |
| Instructions | 1       |

```
      00 01 02 03 04 05 06 07  08 09 0A 0B 0C 0D 0E 0F
      -- -- -- -- -- -- -- --  -- -- -- -- -- -- -- --
0000: 00                                                .               
```

#### Opcodes

```
  0: 0x0000 [0x00] END_REQSTACK()
```

### Event 5600

#### Metadata

| Field        | Value      |
|--------------|------------|
| Entrypoint   | 0x0001     |
| Data Size    | 1867 bytes |
| Instructions | 382        |

```
      00 01 02 03 04 05 06 07  08 09 0A 0B 0C 0D 0E 0F
      -- -- -- -- -- -- -- --  -- -- -- -- -- -- -- --
0000:    06 07 00 06 00 00 06  04 00 06 01 00 03 06 00   ...............
0010: 02 10 03 07 00 03 10 03  08 00 04 10 03 09 00 05  ................
0020: 10 03 13 00 06 10 3E 06  00 00 80 F7 00 3E 06 00  ......>......>..
0030: 01 80 58 00 02 08 00 02  80 00 4A 00 1A 3A 07 2B  ..X.......J..:.+
0040: 8F 72 10 01 03 80 23 01  55 00 1A 84 06 2B 5D 72  .r....#.U....+]r
0050: 10 01 04 80 23 01 F4 00  3E 06 00 05 80 D3 00 02  ....#...>.......
0060: 08 00 02 80 00 9D 00 1A  3A 07 2B 8F 72 10 01 06  ........:.+.r...
0070: 80 23 2B 8F 72 10 01 07  80 23 03 02 10 08 80 2B  .#+.r....#.....+
0080: 8F 72 10 01 09 80 23 03  01 10 0A 80 43 00 43 01  .r....#.....C.C.
0090: 3C 06 00 01 80 00 80 06  01 10 01 D0 00 1A 84 06  <...............
00A0: 2B 5D 72 10 01 06 80 23  2B 5D 72 10 01 07 80 23  +]r....#+]r....#
00B0: 03 02 10 08 80 2B 5D 72  10 01 09 80 23 03 01 10  .....+]r....#...
00C0: 0A 80 43 00 43 01 3C 06  00 01 80 00 80 06 01 10  ..C.C.<.........
00D0: 01 F4 00 02 08 00 02 80  00 E9 00 1A 3A 07 2B 8F  ............:.+.
00E0: 72 10 01 03 80 23 01 F4  00 1A 84 06 2B 5D 72 10  r....#......+]r.
00F0: 01 04 80 23 01 4C 01 02  08 00 02 80 00 0D 01 03  ...#.L..........
0100: 02 10 08 80 1D 0B 80 23  21 00 01 4C 01 1A 84 06  .......#!..L....
0110: 1D 0C 80 23 1D 0D 80 23  1D 0E 80 23 1D 0F 80 23  ...#...#...#...#
0120: 1D 10 80 23 03 02 10 08  80 2B 5D 72 10 01 11 80  ...#.....+]r....
0130: 23 2B 5D 72 10 01 12 80  23 03 01 10 13 80 43 00  #+]r....#.....C.
0140: 43 01 3C 06 00 00 80 00  80 06 01 10 02 00 00 02  C.<.............
0150: 80 00 CC 01 41 14 80 15  80 09 00 12 00 02 12 00  ....A...........
0160: 02 80 00 6C 01 3C 01 00  16 80 00 80 03 02 10 08  ...l.<..........
0170: 80 24 17 80 02 80 01 00  25 02 00 10 02 80 00 8C  .$......%.......
0180: 01 05 00 00 03 01 10 18  80 01 8C 01 03 04 00 00  ................
0190: 10 02 04 00 00 80 80 9F  01 1A DC 01 01 C9 01 02  ................
01A0: 04 00 05 80 80 AD 01 1A  78 02 01 C9 01 02 04 00  ........x.......
01B0: 01 80 80 BB 01 1A 03 03  01 C9 01 02 04 00 16 80  ................
01C0: 80 C9 01 1A 9C 05 01 C9  01 01 4C 01 02 08 00 02  ..........L.....
01D0: 80 00 D7 01 01 DA 01 1A  F5 06 21 00 02 08 00 02  ..........!.....
01E0: 80 00 2F 02 2B 8F 72 10  01 19 80 23 2B 8F 72 10  ../.+.r....#+.r.
01F0: 01 1A 80 23 2B 8F 72 10  01 1B 80 23 2B 8F 72 10  ...#+.r....#+.r.
0200: 01 1C 80 23 2B 8F 72 10  01 1D 80 23 2B 8F 72 10  ...#+.r....#+.r.
0210: 01 1E 80 23 2B 8F 72 10  01 1F 80 23 2B 8F 72 10  ...#+.r....#+.r.
0220: 01 20 80 23 2B 8F 72 10  01 21 80 23 01 77 02 2B  . .#+.r..!.#.w.+
0230: 5D 72 10 01 19 80 23 2B  5D 72 10 01 1A 80 23 2B  ]r....#+]r....#+
0240: 5D 72 10 01 1B 80 23 2B  5D 72 10 01 1C 80 23 2B  ]r....#+]r....#+
0250: 5D 72 10 01 1D 80 23 2B  5D 72 10 01 1E 80 23 2B  ]r....#+]r....#+
0260: 5D 72 10 01 1F 80 23 2B  5D 72 10 01 20 80 23 2B  ]r....#+]r.. .#+
0270: 5D 72 10 01 21 80 23 1B  03 02 10 08 80 02 08 00  ]r..!.#.........
0280: 02 80 00 C5 02 2B 8F 72  10 01 22 80 23 2B 8F 72  .....+.r..".#+.r
0290: 10 01 23 80 23 2B 8F 72  10 01 24 80 23 2B 8F 72  ..#.#+.r..$.#+.r
02A0: 10 01 25 80 23 2B 8F 72  10 01 26 80 23 03 02 10  ..%.#+.r..&.#...
02B0: 08 80 2B 8F 72 10 01 27  80 23 2B 8F 72 10 01 28  ..+.r..'.#+.r..(
02C0: 80 23 01 02 03 2B 5D 72  10 01 22 80 23 2B 5D 72  .#...+]r..".#+]r
02D0: 10 01 23 80 23 2B 5D 72  10 01 24 80 23 2B 5D 72  ..#.#+]r..$.#+]r
02E0: 10 01 25 80 23 2B 5D 72  10 01 26 80 23 03 02 10  ..%.#+]r..&.#...
02F0: 08 80 2B 5D 72 10 01 27  80 23 2B 5D 72 10 01 28  ..+]r..'.#+]r..(
0300: 80 23 1B 03 02 10 08 80  02 08 00 02 80 00 1B 03  .#..............
0310: 2B 8F 72 10 01 29 80 23  01 23 03 2B 5D 72 10 01  +.r..).#.#.+]r..
0320: 29 80 23 06 02 00 06 05  00 06 03 00 06 18 00 02  ).#.............
0330: 02 00 02 80 00 8E 04 1A  A9 04 1A 3B 05 41 14 80  ...........;.A..
0340: 15 80 09 00 02 10 24 2A  80 05 00 03 00 25 02 00  ......$*.....%..
0350: 10 02 80 00 5C 03 05 02  00 01 78 03 02 00 10 2B  ....\.....x....+
0360: 80 00 6A 03 0C 18 00 01  78 03 02 00 10 2C 80 00  ..j.....x....,..
0370: 78 03 0B 18 00 01 78 03  03 05 00 00 10 02 05 00  x.....x.........
0380: 2B 80 03 86 04 02 02 00  02 80 00 83 04 06 19 00  +...............
0390: 03 19 00 05 00 0C 19 00  02 18 00 02 80 80 A8 03  ................
03A0: 07 19 00 02 80 01 E8 03  02 18 00 00 80 80 B8 03  ................
03B0: 07 19 00 2D 80 01 E8 03  02 18 00 05 80 80 C8 03  ...-............
03C0: 07 19 00 2E 80 01 E8 03  02 18 00 01 80 80 D8 03  ................
03D0: 07 19 00 2F 80 01 E8 03  02 18 00 16 80 80 E8 03  .../............
03E0: 07 19 00 30 80 01 E8 03  9D 00 7C 07 02 10 19 00  ...0......|.....
03F0: 9D 00 1C 08 1A 00 19 00  93 02 10 02 08 00 02 80  ................
0400: 00 0E 04 2B 8F 72 10 01  31 80 23 01 16 04 2B 5D  ...+.r..1.#...+]
0410: 72 10 01 31 80 23 93 02  80 41 14 80 15 80 09 00  r..1.#...A......
0420: 02 10 24 32 80 00 80 02  80 25 02 00 10 02 80 00  ..$2.....%......
0430: 78 04 02 02 10 1A 00 04  55 04 05 00 00 05 02 00  x.......U.......
0440: 40 02 80 0A 80 01 10 16  80 40 33 80 34 80 01 10  @........@3.4...
0450: 19 00 01 75 04 03 02 10  08 80 02 08 00 02 80 00  ...u............
0460: 6D 04 2B 8F 72 10 01 35  80 23 01 75 04 2B 5D 72  m.+.r..5.#.u.+]r
0470: 10 01 35 80 23 01 83 04  02 00 10 00 80 00 83 04  ..5.#...........
0480: 01 83 04 01 8B 04 03 05  00 02 80 01 2F 03 1B 06  ............/...
0490: 0A 00 02 0A 00 36 80 03  A8 04 9D 05 BC 08 02 80  .....6..........
04A0: 0A 00 0B 0A 00 01 92 04  1B 1A 8F 04 03 0B 00 18  ................
04B0: 00 0B 0B 00 14 0B 00 2D  80 02 0B 00 13 00 04 CB  .......-........
04C0: 04 3F 0B 00 13 00 2D 80  01 D0 04 03 0B 00 2D 80  .?....-.......-.
04D0: 03 0E 00 18 00 14 0E 00  2D 80 06 0A 00 02 0A 00  ........-.......
04E0: 0B 00 03 05 05 03 0F 00  0E 00 07 0F 00 0A 00 9D  ................
04F0: 00 7C 07 0C 00 0F 00 9D  05 BC 08 0C 00 0A 00 0B  .|..............
0500: 0A 00 01 DD 04 06 0A 00  02 0A 00 0B 00 03 3A 05  ..............:.
0510: 03 0F 00 0E 00 07 0F 00  0A 00 03 0D 00 0A 00 07  ................
0520: 0D 00 2D 80 9D 00 1C 08  0C 00 0F 00 9D 05 BC 08  ..-.............
0530: 0C 00 0D 00 0B 0A 00 01  08 05 1B 06 0A 00 06 03  ................
0540: 00 03 0B 00 2D 80 03 0E  00 02 80 02 18 00 02 80  ....-...........
0550: 80 5D 05 3C 03 00 2B 80  00 80 01 5D 05 02 0A 00  .].<..+....]....
0560: 0B 00 03 9B 05 03 0F 00  0E 00 07 0F 00 0A 00 9D  ................
0570: 00 BC 08 0C 00 0F 00 02  0C 00 02 80 00 95 05 03  ................
0580: 0C 00 0A 00 0B 0C 00 3C  03 00 0C 00 00 80 3C 03  .......<......<.
0590: 00 2C 80 00 80 0B 0A 00  01 5D 05 1B 05 00 00 03  .,.......]......
05A0: 02 10 08 80 41 14 80 15  80 09 00 03 10 02 08 00  ....A...........
05B0: 02 80 00 D8 05 2B 8F 72  10 01 37 80 23 2B 8F 72  .....+.r..7.#+.r
05C0: 10 01 38 80 23 2B 8F 72  10 01 39 80 23 2B 8F 72  ..8.#+.r..9.#+.r
05D0: 10 01 3A 80 23 01 F8 05  2B 5D 72 10 01 37 80 23  ..:.#...+]r..7.#
05E0: 2B 5D 72 10 01 38 80 23  2B 5D 72 10 01 39 80 23  +]r..8.#+]r..9.#
05F0: 2B 5D 72 10 01 3A 80 23  71 12 00 80 05 80 71 13  +]r..:.#q.....q.
0600: 04 10 02 04 10 3B 80 03  83 06 02 04 10 02 80 02  .....;..........
0610: 68 06 02 04 10 03 10 05  4A 06 40 02 80 0A 80 01  h.......J.@.....
0620: 10 3C 80 40 33 80 34 80  01 10 04 10 02 08 00 02  .<.@3.4.........
0630: 80 00 3F 06 2B 8F 72 10  01 3D 80 23 01 47 06 2B  ..?.+.r..=.#.G.+
0640: 5D 72 10 01 3D 80 23 01  65 06 02 08 00 02 80 00  ]r..=.#.e.......
0650: 5D 06 2B 8F 72 10 01 3E  80 23 01 65 06 2B 5D 72  ].+.r..>.#.e.+]r
0660: 10 01 3E 80 23 01 83 06  02 08 00 02 80 00 7B 06  ..>.#.........{.
0670: 2B 8F 72 10 01 3F 80 23  01 83 06 2B 5D 72 10 01  +.r..?.#...+]r..
0680: 3F 80 23 1B 42 45 40 80  F8 FF FF 7F F8 FF FF 7F  ?.#.BE@.........
0690: 66 64 6F 31 02 80 1C 41  80 38 42 80 2F 00 5D 72  fdo1...A.8B./.]r
06A0: 10 01 29 08 5D 72 10 01  18 4E 00 5D 72 10 01 59  ..).]r...N.]r..Y
06B0: 05 5D 72 10 01 01 BA 5D  72 10 01 43 80 44 80 45  .]r....]r..C.D.E
06C0: 80 46 80 80 5D 72 10 01  94 01 5D 72 10 01 4A F0  .F..]r....]r..J.
06D0: FF FF 7F 5D 72 10 01 45  40 80 F8 FF FF 7F F8 FF  ...]r..E@.......
06E0: FF 7F 66 64 69 31 02 80  1C 3B 80 4A 5D 72 10 01  ..fdi1...;.J]r..
06F0: F0 FF FF 7F 1B 45 40 80  F0 FF FF 7F F0 FF FF 7F  .....E@.........
0700: 66 64 6F 31 02 80 1C 41  80 94 00 5D 72 10 01 81  fdo1...A...]r...
0710: 01 5D 72 10 01 29 08 5D  72 10 01 19 4E 00 F0 FF  .]r..).]r...N...
0720: FF 7F 80 F0 FF FF 7F 45  40 80 F0 FF FF 7F F0 FF  .......E@.......
0730: FF 7F 66 64 69 31 02 80  2E 1B 2F 00 8F 72 10 01  ..fdi1..../..r..
0740: 4E 00 8F 72 10 01 80 8F  72 10 01 1B              N..r....r...    
```

#### Opcodes

```
  0: 0x0001 [0x06] ExtData[1]->WorkLocal[7] = 0
  1: 0x0004 [0x06] ExtData[1]->WorkLocal[0] = 0
  2: 0x0007 [0x06] ExtData[1]->WorkLocal[4] = 0
  3: 0x000A [0x06] ExtData[1]->WorkLocal[1] = 0
  4: 0x000D [0x03] ExtData[1]->WorkLocal[6] = Work_Zone[2]
  5: 0x0012 [0x03] ExtData[1]->WorkLocal[7] = Work_Zone[3]
  6: 0x0017 [0x03] ExtData[1]->WorkLocal[8] = Work_Zone[4]
  7: 0x001C [0x03] ExtData[1]->WorkLocal[9] = Work_Zone[5]
  8: 0x0021 [0x03] ExtData[1]->WorkLocal[19] = Work_Zone[6]
  9: 0x0026 [0x3E] IF !(ExtData[1]->WorkLocal[6] bit 1*) GOTO 0x00F7
 10: 0x002D [0x3E] IF !(ExtData[1]->WorkLocal[6] bit 3*) GOTO 0x0058
 11: 0x0034 [0x02] IF !(ExtData[1]->WorkLocal[8] == 0*) GOTO 0x004A
 12: 0x003C [0x1A] CALL_SUBROUTINE(address=0x073A)
 13: 0x003F [0x2B] Lorissa (ID: 17855119/0x0110728F) [8912*]:
    → "I'm...here. What...what do you want?"
 14: 0x0046 [0x23] WAIT_FOR_DIALOG_INTERACTION
 15: 0x0047 [0x01] GOTO 0x0055
 16: 0x004A [0x1A] CALL_SUBROUTINE(address=0x0684)
 17: 0x004D [0x2B] Unnamed NPC (ID: 17855069/0x0110725D) [8911*]:
    → "What...what do you want?"
 18: 0x0054 [0x23] WAIT_FOR_DIALOG_INTERACTION

SUBROUTINE_0055:
 19: 0x0055 [0x01] GOTO 0x00F4
 20: 0x0058 [0x3E] IF !(ExtData[1]->WorkLocal[6] bit 2*) GOTO 0x00D3
 21: 0x005F [0x02] IF !(ExtData[1]->WorkLocal[8] == 0*) GOTO 0x009D
 22: 0x0067 [0x1A] CALL_SUBROUTINE(address=0x073A)
 23: 0x006A [0x2B] Lorissa (ID: 17855119/0x0110728F) [8913*]:
    → "A...what? Father? Mother? ...What are those?"
 24: 0x0071 [0x23] WAIT_FOR_DIALOG_INTERACTION
 25: 0x0072 [0x2B] Lorissa (ID: 17855119/0x0110728F) [8914*]:
    → "They're...in Adoulin? Haha...hahaha."
 26: 0x0079 [0x23] WAIT_FOR_DIALOG_INTERACTION
 27: 0x007A [0x03] Work_Zone[2] = 9050*
 28: 0x007F [0x2B] Lorissa (ID: 17855119/0x0110728F) [8915*]:
    → "I need...$0... Must...gather more."
 29: 0x0086 [0x23] WAIT_FOR_DIALOG_INTERACTION
 30: 0x0087 [0x03] Work_Zone[1] = 7*
 31: 0x008C [0x43] SEND_EVENT_UPDATE: Send pending tag to server (packet 0x005B)
 32: 0x008E [0x43] SEND_EVENT_UPDATE: Check pending flag (skip if not pending)
 33: 0x0090 [0x3C] SET_BIT_FLAG_CONDITIONAL(target_work_offset=ExtData[1]->WorkLocal[6], bit_index_work_offset=3*, condition_work_offset=1*)
 34: 0x0097 [0x06] Work_Zone[1] = 0
 35: 0x009A [0x01] GOTO 0x00D0
 36: 0x009D [0x1A] CALL_SUBROUTINE(address=0x0684)
 37: 0x00A0 [0x2B] Unnamed NPC (ID: 17855069/0x0110725D) [8913*]:
    → "A...what? Father? Mother? ...What are those?"
 38: 0x00A7 [0x23] WAIT_FOR_DIALOG_INTERACTION
 39: 0x00A8 [0x2B] Unnamed NPC (ID: 17855069/0x0110725D) [8914*]:
    → "They're...in Adoulin? Haha...hahaha."
 40: 0x00AF [0x23] WAIT_FOR_DIALOG_INTERACTION
 41: 0x00B0 [0x03] Work_Zone[2] = 9050*
 42: 0x00B5 [0x2B] Unnamed NPC (ID: 17855069/0x0110725D) [8915*]:
    → "I need...$0... Must...gather more."
 43: 0x00BC [0x23] WAIT_FOR_DIALOG_INTERACTION
 44: 0x00BD [0x03] Work_Zone[1] = 7*
 45: 0x00C2 [0x43] SEND_EVENT_UPDATE: Send pending tag to server (packet 0x005B)
 46: 0x00C4 [0x43] SEND_EVENT_UPDATE: Check pending flag (skip if not pending)
 47: 0x00C6 [0x3C] SET_BIT_FLAG_CONDITIONAL(target_work_offset=ExtData[1]->WorkLocal[6], bit_index_work_offset=3*, condition_work_offset=1*)
 48: 0x00CD [0x06] Work_Zone[1] = 0

SUBROUTINE_00D0:
 49: 0x00D0 [0x01] GOTO 0x00F4
 50: 0x00D3 [0x02] IF !(ExtData[1]->WorkLocal[8] == 0*) GOTO 0x00E9
 51: 0x00DB [0x1A] CALL_SUBROUTINE(address=0x073A)
 52: 0x00DE [0x2B] Lorissa (ID: 17855119/0x0110728F) [8912*]:
    → "I'm...here. What...what do you want?"
 53: 0x00E5 [0x23] WAIT_FOR_DIALOG_INTERACTION
 54: 0x00E6 [0x01] GOTO 0x00F4
 55: 0x00E9 [0x1A] CALL_SUBROUTINE(address=0x0684)
 56: 0x00EC [0x2B] Unnamed NPC (ID: 17855069/0x0110725D) [8911*]:
    → "What...what do you want?"
 57: 0x00F3 [0x23] WAIT_FOR_DIALOG_INTERACTION

SUBROUTINE_00F4:
 58: 0x00F4 [0x01] GOTO 0x014C
 59: 0x00F7 [0x02] IF !(ExtData[1]->WorkLocal[8] == 0*) GOTO 0x010D
 60: 0x00FF [0x03] Work_Zone[2] = 9050*
 61: 0x0104 [0x1D] PRINT_EVENT_MESSAGE(message_id=8903*)
    → "...%..."
 62: 0x0107 [0x23] WAIT_FOR_DIALOG_INTERACTION
 63: 0x0108 [0x21] END_EVENT
 64: 0x0109 [0x00] END_REQSTACK()

SUBROUTINE_014C:
 65: 0x014C [0x02] IF !(ExtData[1]->WorkLocal[0] == 0*) GOTO 0x01CC
 66: 0x0154 [0x41] ExtData[1]->WorkLocal[18] = ExtData[1]->WorkLocal[9] (bits 20*-29*)
 67: 0x015D [0x02] IF !(ExtData[1]->WorkLocal[18] == 0*) GOTO 0x016C
 68: 0x0165 [0x3C] SET_BIT_FLAG_CONDITIONAL(target_work_offset=ExtData[1]->WorkLocal[1], bit_index_work_offset=4*, condition_work_offset=1*)
 69: 0x016C [0x03] Work_Zone[2] = 9050*
 70: 0x0171 [0x24] CREATE_DIALOG(message_id=8916*, default_option=0*, option_flags=ExtData[1]->WorkLocal[1])
    → "Inquire about anything? [No, thank you./Ask about Lorissa./Ask about $0./Exchange $0./Have $0 returned.]"
 71: 0x0178 [0x25] WAIT_DIALOG_SELECT()
 72: 0x0179 [0x02] IF !(Work_Zone[0] == 0*) GOTO 0x018C
 73: 0x0181 [0x05] ExtData[1]->WorkLocal[0] = 1
 74: 0x0184 [0x03] Work_Zone[1] = 1073741824*
 75: 0x0189 [0x01] GOTO 0x018C

SUBROUTINE_018C:
 76: 0x018C [0x03] ExtData[1]->WorkLocal[4] = Work_Zone[0]
 77: 0x0191 [0x02] IF !(ExtData[1]->WorkLocal[4] == 1*) GOTO 0x019F
 78: 0x0199 [0x1A] CALL_SUBROUTINE(address=0x01DC)
 79: 0x019C [0x01] GOTO 0x01C9
 80: 0x019F [0x02] IF !(ExtData[1]->WorkLocal[4] == 2*) GOTO 0x01AD
 81: 0x01A7 [0x1A] CALL_SUBROUTINE(address=0x0278)
 82: 0x01AA [0x01] GOTO 0x01C9
 83: 0x01AD [0x02] IF !(ExtData[1]->WorkLocal[4] == 3*) GOTO 0x01BB
 84: 0x01B5 [0x1A] CALL_SUBROUTINE(address=0x0303)
 85: 0x01B8 [0x01] GOTO 0x01C9
 86: 0x01BB [0x02] IF !(ExtData[1]->WorkLocal[4] == 4*) GOTO 0x01C9
 87: 0x01C3 [0x1A] CALL_SUBROUTINE(address=0x059C)
 88: 0x01C6 [0x01] GOTO 0x01C9

SUBROUTINE_01C9:
 89: 0x01C9 [0x01] GOTO 0x014C
 90: 0x01CC [0x02] IF !(ExtData[1]->WorkLocal[8] == 0*) GOTO 0x01D7
 91: 0x01D4 [0x01] GOTO 0x01DA
 92: 0x01D7 [0x1A] CALL_SUBROUTINE(address=0x06F5)

SUBROUTINE_01DA:
 93: 0x01DA [0x21] END_EVENT
 94: 0x01DB [0x00] END_REQSTACK()

SUBROUTINE_01DC:
 95: 0x01DC [0x02] IF !(ExtData[1]->WorkLocal[8] == 0*) GOTO 0x022F
 96: 0x01E4 [0x2B] Lorissa (ID: 17855119/0x0110728F) [8917*]:
    → "Me? ...I'm Lorissa."
 97: 0x01EB [0x23] WAIT_FOR_DIALOG_INTERACTION
 98: 0x01EC [0x2B] Lorissa (ID: 17855119/0x0110728F) [8918*]:
    → "You...knew that already?"
 99: 0x01F3 [0x23] WAIT_FOR_DIALOG_INTERACTION
100: 0x01F4 [0x2B] Lorissa (ID: 17855119/0x0110728F) [8919*]:
    → "Why am I...here?"
101: 0x01FB [0x23] WAIT_FOR_DIALOG_INTERACTION
102: 0x01FC [0x2B] Lorissa (ID: 17855119/0x0110728F) [8920*]:
    → "Why?"
103: 0x0203 [0x23] WAIT_FOR_DIALOG_INTERACTION
104: 0x0204 [0x2B] Lorissa (ID: 17855119/0x0110728F) [8921*]:
    → "..."
105: 0x020B [0x23] WAIT_FOR_DIALOG_INTERACTION
106: 0x020C [0x2B] Lorissa (ID: 17855119/0x0110728F) [8922*]:
    → "I...don't know."
107: 0x0213 [0x23] WAIT_FOR_DIALOG_INTERACTION
108: 0x0214 [0x2B] Lorissa (ID: 17855119/0x0110728F) [8923*]:
    → "There's...one thing I do know."
109: 0x021B [0x23] WAIT_FOR_DIALOG_INTERACTION
110: 0x021C [0x2B] Lorissa (ID: 17855119/0x0110728F) [8924*]:
    → "My parents...must be worried."
111: 0x0223 [0x23] WAIT_FOR_DIALOG_INTERACTION
112: 0x0224 [0x2B] Lorissa (ID: 17855119/0x0110728F) [8925*]:
    → "Mr. Clown...told me I have a mommy and daddy..."
113: 0x022B [0x23] WAIT_FOR_DIALOG_INTERACTION
114: 0x022C [0x01] GOTO 0x0277
115: 0x022F [0x2B] Unnamed NPC (ID: 17855069/0x0110725D) [8917*]:
    → "Me? ...I'm Lorissa."
116: 0x0236 [0x23] WAIT_FOR_DIALOG_INTERACTION
117: 0x0237 [0x2B] Unnamed NPC (ID: 17855069/0x0110725D) [8918*]:
    → "You...knew that already?"
118: 0x023E [0x23] WAIT_FOR_DIALOG_INTERACTION
119: 0x023F [0x2B] Unnamed NPC (ID: 17855069/0x0110725D) [8919*]:
    → "Why am I...here?"
120: 0x0246 [0x23] WAIT_FOR_DIALOG_INTERACTION
121: 0x0247 [0x2B] Unnamed NPC (ID: 17855069/0x0110725D) [8920*]:
    → "Why?"
122: 0x024E [0x23] WAIT_FOR_DIALOG_INTERACTION
123: 0x024F [0x2B] Unnamed NPC (ID: 17855069/0x0110725D) [8921*]:
    → "..."
124: 0x0256 [0x23] WAIT_FOR_DIALOG_INTERACTION
125: 0x0257 [0x2B] Unnamed NPC (ID: 17855069/0x0110725D) [8922*]:
    → "I...don't know."
126: 0x025E [0x23] WAIT_FOR_DIALOG_INTERACTION
127: 0x025F [0x2B] Unnamed NPC (ID: 17855069/0x0110725D) [8923*]:
    → "There's...one thing I do know."
128: 0x0266 [0x23] WAIT_FOR_DIALOG_INTERACTION
129: 0x0267 [0x2B] Unnamed NPC (ID: 17855069/0x0110725D) [8924*]:
    → "My parents...must be worried."
130: 0x026E [0x23] WAIT_FOR_DIALOG_INTERACTION
131: 0x026F [0x2B] Unnamed NPC (ID: 17855069/0x0110725D) [8925*]:
    → "Mr. Clown...told me I have a mommy and daddy..."
132: 0x0276 [0x23] WAIT_FOR_DIALOG_INTERACTION

SUBROUTINE_0277:
133: 0x0277 [0x1B] RETURN

SUBROUTINE_0278:
134: 0x0278 [0x03] Work_Zone[2] = 9050*
135: 0x027D [0x02] IF !(ExtData[1]->WorkLocal[8] == 0*) GOTO 0x02C5
136: 0x0285 [0x2B] Lorissa (ID: 17855119/0x0110728F) [8926*]:
    → "...%."
137: 0x028C [0x23] WAIT_FOR_DIALOG_INTERACTION
138: 0x028D [0x2B] Lorissa (ID: 17855119/0x0110728F) [8927*]:
    → "They disappear...so quickly."
139: 0x0294 [0x23] WAIT_FOR_DIALOG_INTERACTION
140: 0x0295 [0x2B] Lorissa (ID: 17855119/0x0110728F) [8928*]:
    → "So I need...many."
141: 0x029C [0x23] WAIT_FOR_DIALOG_INTERACTION
142: 0x029D [0x2B] Lorissa (ID: 17855119/0x0110728F) [8929*]:
    → "Something...bad will happen."
143: 0x02A4 [0x23] WAIT_FOR_DIALOG_INTERACTION
144: 0x02A5 [0x2B] Lorissa (ID: 17855119/0x0110728F) [8930*]:
    → "What would a stranger...want with me?"
145: 0x02AC [0x23] WAIT_FOR_DIALOG_INTERACTION
146: 0x02AD [0x03] Work_Zone[2] = 9050*
147: 0x02B2 [0x2B] Lorissa (ID: 17855119/0x0110728F) [8931*]:
    → "I...I can give you things...in exchange for $0."
148: 0x02B9 [0x23] WAIT_FOR_DIALOG_INTERACTION
149: 0x02BA [0x2B] Lorissa (ID: 17855119/0x0110728F) [8932*]:
    → "I'm sure...that's fine for you."
150: 0x02C1 [0x23] WAIT_FOR_DIALOG_INTERACTION
151: 0x02C2 [0x01] GOTO 0x0302
152: 0x02C5 [0x2B] Unnamed NPC (ID: 17855069/0x0110725D) [8926*]:
    → "...%."
153: 0x02CC [0x23] WAIT_FOR_DIALOG_INTERACTION
154: 0x02CD [0x2B] Unnamed NPC (ID: 17855069/0x0110725D) [8927*]:
    → "They disappear...so quickly."
155: 0x02D4 [0x23] WAIT_FOR_DIALOG_INTERACTION
156: 0x02D5 [0x2B] Unnamed NPC (ID: 17855069/0x0110725D) [8928*]:
    → "So I need...many."
157: 0x02DC [0x23] WAIT_FOR_DIALOG_INTERACTION
158: 0x02DD [0x2B] Unnamed NPC (ID: 17855069/0x0110725D) [8929*]:
    → "Something...bad will happen."
159: 0x02E4 [0x23] WAIT_FOR_DIALOG_INTERACTION
160: 0x02E5 [0x2B] Unnamed NPC (ID: 17855069/0x0110725D) [8930*]:
    → "What would a stranger...want with me?"
161: 0x02EC [0x23] WAIT_FOR_DIALOG_INTERACTION
162: 0x02ED [0x03] Work_Zone[2] = 9050*
163: 0x02F2 [0x2B] Unnamed NPC (ID: 17855069/0x0110725D) [8931*]:
    → "I...I can give you things...in exchange for $0."
164: 0x02F9 [0x23] WAIT_FOR_DIALOG_INTERACTION
165: 0x02FA [0x2B] Unnamed NPC (ID: 17855069/0x0110725D) [8932*]:
    → "I'm sure...that's fine for you."
166: 0x0301 [0x23] WAIT_FOR_DIALOG_INTERACTION

SUBROUTINE_0302:
167: 0x0302 [0x1B] RETURN

SUBROUTINE_0303:
168: 0x0303 [0x03] Work_Zone[2] = 9050*
169: 0x0308 [0x02] IF !(ExtData[1]->WorkLocal[8] == 0*) GOTO 0x031B
170: 0x0310 [0x2B] Lorissa (ID: 17855119/0x0110728F) [8933*]:
    → "You want something...in exchange for $0?"
171: 0x0317 [0x23] WAIT_FOR_DIALOG_INTERACTION
172: 0x0318 [0x01] GOTO 0x0323
173: 0x031B [0x2B] Unnamed NPC (ID: 17855069/0x0110725D) [8933*]:
    → "You want something...in exchange for $0?"
174: 0x0322 [0x23] WAIT_FOR_DIALOG_INTERACTION

SUBROUTINE_0323:
175: 0x0323 [0x06] ExtData[1]->WorkLocal[2] = 0
176: 0x0326 [0x06] ExtData[1]->WorkLocal[5] = 0
177: 0x0329 [0x06] ExtData[1]->WorkLocal[3] = 0
178: 0x032C [0x06] ExtData[1]->WorkLocal[24] = 0

SUBROUTINE_032F:
179: 0x032F [0x02] IF !(ExtData[1]->WorkLocal[2] == 0*) GOTO 0x048E
180: 0x0337 [0x1A] CALL_SUBROUTINE(address=0x04A9)
181: 0x033A [0x1A] CALL_SUBROUTINE(address=0x053B)
182: 0x033D [0x41] Work_Zone[2] = ExtData[1]->WorkLocal[9] (bits 20*-29*)
183: 0x0346 [0x24] CREATE_DIALOG(message_id=8947*, default_option=ExtData[1]->WorkLocal[5], option_flags=ExtData[1]->WorkLocal[3])
    → "Exchange for what? ($0 wing[/s]) [Nothing at the moment./$1. ($17 wing[/s])/$2. ($18 wing[/s])/$3. ($19 wing[/s])/$4. ($20 wing[/s])/$5. ($21 wing[/s])/$6. ($22 wing[/s])/$7. ($23 wing[/s])/$8. ($24 wing[/s])/$9. ($25 wing[/s])/$10. ($26 wing[/s])/$11. ($27 wing[/s])/$12. ($28 wing[/s])/$13. ($29 wing[/s])/$14. ($30 wing[/s])/$15. ($31 wing[/s])/$16. ($ wing[/s])/Previous page./Next page.]"
184: 0x034D [0x25] WAIT_DIALOG_SELECT()
185: 0x034E [0x02] IF !(Work_Zone[0] == 0*) GOTO 0x035C
186: 0x0356 [0x05] ExtData[1]->WorkLocal[2] = 1
187: 0x0359 [0x01] GOTO 0x0378
188: 0x035C [0x02] IF !(Work_Zone[0] == 17*) GOTO 0x036A
189: 0x0364 [0x0C] ExtData[1]->WorkLocal[24]--
190: 0x0367 [0x01] GOTO 0x0378
191: 0x036A [0x02] IF !(Work_Zone[0] == 18*) GOTO 0x0378
192: 0x0372 [0x0B] ExtData[1]->WorkLocal[24]++
193: 0x0375 [0x01] GOTO 0x0378

SUBROUTINE_0378:
194: 0x0378 [0x03] ExtData[1]->WorkLocal[5] = Work_Zone[0]
195: 0x037D [0x02] IF !(ExtData[1]->WorkLocal[5] >= 17*) GOTO 0x0486
196: 0x0385 [0x02] IF !(ExtData[1]->WorkLocal[2] == 0*) GOTO 0x0483
197: 0x038D [0x06] ExtData[1]->WorkLocal[25] = 0
198: 0x0390 [0x03] ExtData[1]->WorkLocal[25] = ExtData[1]->WorkLocal[5]
199: 0x0395 [0x0C] ExtData[1]->WorkLocal[25]--
200: 0x0398 [0x02] IF !(ExtData[1]->WorkLocal[24] == 0*) GOTO 0x03A8
201: 0x03A0 [0x07] ExtData[1]->WorkLocal[25] += 0*
202: 0x03A5 [0x01] GOTO 0x03E8
203: 0x03A8 [0x02] IF !(ExtData[1]->WorkLocal[24] == 1*) GOTO 0x03B8
204: 0x03B0 [0x07] ExtData[1]->WorkLocal[25] += 16*
205: 0x03B5 [0x01] GOTO 0x03E8
206: 0x03B8 [0x02] IF !(ExtData[1]->WorkLocal[24] == 2*) GOTO 0x03C8
207: 0x03C0 [0x07] ExtData[1]->WorkLocal[25] += 32*
208: 0x03C5 [0x01] GOTO 0x03E8
209: 0x03C8 [0x02] IF !(ExtData[1]->WorkLocal[24] == 3*) GOTO 0x03D8
210: 0x03D0 [0x07] ExtData[1]->WorkLocal[25] += 48*
211: 0x03D5 [0x01] GOTO 0x03E8
212: 0x03D8 [0x02] IF !(ExtData[1]->WorkLocal[24] == 4*) GOTO 0x03E8
213: 0x03E0 [0x07] ExtData[1]->WorkLocal[25] += 64*
214: 0x03E5 [0x01] GOTO 0x03E8

SUBROUTINE_03E8:
215: 0x03E8 [0x9D] Work_Zone[2] = 0x077C[ExtData[1]->WorkLocal[25]] // Read WORD
216: 0x03F0 [0x9D] ExtData[1]->WorkLocal[26] = 0x081C[ExtData[1]->WorkLocal[25]] // Read WORD
217: 0x03F8 [0x93] DISPLAY_ITEM_INFO(item_id=Work_Zone[2])
218: 0x03FB [0x02] IF !(ExtData[1]->WorkLocal[8] == 0*) GOTO 0x040E
219: 0x0403 [0x2B] Lorissa (ID: 17855119/0x0110728F) [8934*]:
    → "$0...?"
220: 0x040A [0x23] WAIT_FOR_DIALOG_INTERACTION
221: 0x040B [0x01] GOTO 0x0416
222: 0x040E [0x2B] Unnamed NPC (ID: 17855069/0x0110725D) [8934*]:
    → "$0...?"
223: 0x0415 [0x23] WAIT_FOR_DIALOG_INTERACTION

SUBROUTINE_0416:
224: 0x0416 [0x93] DISPLAY_ITEM_INFO(item_id=0*)
225: 0x0419 [0x41] Work_Zone[2] = ExtData[1]->WorkLocal[9] (bits 20*-29*)
226: 0x0422 [0x24] CREATE_DIALOG(message_id=8946*, default_option=1*, option_flags=0*)
    → "Proceed? ($0 wing[/s]) [Of course./Not right now.]"
227: 0x0429 [0x25] WAIT_DIALOG_SELECT()
228: 0x042A [0x02] IF !(Work_Zone[0] == 0*) GOTO 0x0478
229: 0x0432 [0x02] IF !(Work_Zone[2] < ExtData[1]->WorkLocal[26]) GOTO 0x0455
230: 0x043A [0x05] ExtData[1]->WorkLocal[0] = 1
231: 0x043D [0x05] ExtData[1]->WorkLocal[2] = 1
232: 0x0440 [0x40] SET_BIT_WORK_RANGE(start_bit=0*, end_bit=7*, target=Work_Zone[1], source=4*)
233: 0x0449 [0x40] SET_BIT_WORK_RANGE(start_bit=8*, end_bit=15*, target=Work_Zone[1], source=ExtData[1]->WorkLocal[25])
234: 0x0452 [0x01] GOTO 0x0475
235: 0x0455 [0x03] Work_Zone[2] = 9050*
236: 0x045A [0x02] IF !(ExtData[1]->WorkLocal[8] == 0*) GOTO 0x046D
237: 0x0462 [0x2B] Lorissa (ID: 17855119/0x0110728F) [8935*]:
    → "No...no... I need more $0...for that."
238: 0x0469 [0x23] WAIT_FOR_DIALOG_INTERACTION
239: 0x046A [0x01] GOTO 0x0475
240: 0x046D [0x2B] Unnamed NPC (ID: 17855069/0x0110725D) [8935*]:
    → "No...no... I need more $0...for that."
241: 0x0474 [0x23] WAIT_FOR_DIALOG_INTERACTION

SUBROUTINE_0475:
242: 0x0475 [0x01] GOTO 0x0483
243: 0x0478 [0x02] IF !(Work_Zone[0] == 1*) GOTO 0x0483
244: 0x0480 [0x01] GOTO 0x0483

SUBROUTINE_0483:
245: 0x0483 [0x01] GOTO 0x048B
246: 0x0486 [0x03] ExtData[1]->WorkLocal[5] = 0*

SUBROUTINE_048B:
247: 0x048B [0x01] GOTO 0x032F
248: 0x048E [0x1B] RETURN

SUBROUTINE_048F:
249: 0x048F [0x06] ExtData[1]->WorkLocal[10] = 0

SUBROUTINE_0492:
250: 0x0492 [0x02] IF !(ExtData[1]->WorkLocal[10] >= 40*) GOTO 0x04A8
251: 0x049A [0x9D] 0x08BC[ExtData[1]->WorkLocal[10] * 2] = 0* // Write WORD
252: 0x04A2 [0x0B] ExtData[1]->WorkLocal[10]++
253: 0x04A5 [0x01] GOTO 0x0492
254: 0x04A8 [0x1B] RETURN

SUBROUTINE_04A9:
255: 0x04A9 [0x1A] CALL_SUBROUTINE(address=0x048F)
256: 0x04AC [0x03] ExtData[1]->WorkLocal[11] = ExtData[1]->WorkLocal[24]
257: 0x04B1 [0x0B] ExtData[1]->WorkLocal[11]++
258: 0x04B4 [0x14] ExtData[1]->WorkLocal[11] *= 16*
259: 0x04B9 [0x02] IF !(ExtData[1]->WorkLocal[11] < ExtData[1]->WorkLocal[19]) GOTO 0x04CB
260: 0x04C1 [0x3F] ExtData[1]->WorkLocal[11] = ExtData[1]->WorkLocal[19] % 16*
261: 0x04C8 [0x01] GOTO 0x04D0
262: 0x04CB [0x03] ExtData[1]->WorkLocal[11] = 16*

SUBROUTINE_04D0:
263: 0x04D0 [0x03] ExtData[1]->WorkLocal[14] = ExtData[1]->WorkLocal[24]
264: 0x04D5 [0x14] ExtData[1]->WorkLocal[14] *= 16*
265: 0x04DA [0x06] ExtData[1]->WorkLocal[10] = 0

SUBROUTINE_04DD:
266: 0x04DD [0x02] IF !(ExtData[1]->WorkLocal[10] >= ExtData[1]->WorkLocal[11]) GOTO 0x0505
267: 0x04E5 [0x03] ExtData[1]->WorkLocal[15] = ExtData[1]->WorkLocal[14]
268: 0x04EA [0x07] ExtData[1]->WorkLocal[15] += ExtData[1]->WorkLocal[10]
269: 0x04EF [0x9D] ExtData[1]->WorkLocal[12] = 0x077C[ExtData[1]->WorkLocal[15]] // Read WORD
270: 0x04F7 [0x9D] 0x08BC[ExtData[1]->WorkLocal[10] * 2] = ExtData[1]->WorkLocal[12] // Write WORD
271: 0x04FF [0x0B] ExtData[1]->WorkLocal[10]++
272: 0x0502 [0x01] GOTO 0x04DD
273: 0x0505 [0x06] ExtData[1]->WorkLocal[10] = 0

SUBROUTINE_0508:
274: 0x0508 [0x02] IF !(ExtData[1]->WorkLocal[10] >= ExtData[1]->WorkLocal[11]) GOTO 0x053A
275: 0x0510 [0x03] ExtData[1]->WorkLocal[15] = ExtData[1]->WorkLocal[14]
276: 0x0515 [0x07] ExtData[1]->WorkLocal[15] += ExtData[1]->WorkLocal[10]
277: 0x051A [0x03] ExtData[1]->WorkLocal[13] = ExtData[1]->WorkLocal[10]
278: 0x051F [0x07] ExtData[1]->WorkLocal[13] += 16*
279: 0x0524 [0x9D] ExtData[1]->WorkLocal[12] = 0x081C[ExtData[1]->WorkLocal[15]] // Read WORD
280: 0x052C [0x9D] 0x08BC[ExtData[1]->WorkLocal[13] * 2] = ExtData[1]->WorkLocal[12] // Write WORD
281: 0x0534 [0x0B] ExtData[1]->WorkLocal[10]++
282: 0x0537 [0x01] GOTO 0x0508
283: 0x053A [0x1B] RETURN

SUBROUTINE_053B:
284: 0x053B [0x06] ExtData[1]->WorkLocal[10] = 0
285: 0x053E [0x06] ExtData[1]->WorkLocal[3] = 0
286: 0x0541 [0x03] ExtData[1]->WorkLocal[11] = 16*
287: 0x0546 [0x03] ExtData[1]->WorkLocal[14] = 0*
288: 0x054B [0x02] IF !(ExtData[1]->WorkLocal[24] == 0*) GOTO 0x055D
289: 0x0553 [0x3C] SET_BIT_FLAG_CONDITIONAL(target_work_offset=ExtData[1]->WorkLocal[3], bit_index_work_offset=17*, condition_work_offset=1*)
290: 0x055A [0x01] GOTO 0x055D

SUBROUTINE_055D:
291: 0x055D [0x02] IF !(ExtData[1]->WorkLocal[10] >= ExtData[1]->WorkLocal[11]) GOTO 0x059B
292: 0x0565 [0x03] ExtData[1]->WorkLocal[15] = ExtData[1]->WorkLocal[14]
293: 0x056A [0x07] ExtData[1]->WorkLocal[15] += ExtData[1]->WorkLocal[10]
294: 0x056F [0x9D] ExtData[1]->WorkLocal[12] = 0x08BC[ExtData[1]->WorkLocal[15]] // Read WORD
295: 0x0577 [0x02] IF !(ExtData[1]->WorkLocal[12] == 0*) GOTO 0x0595
296: 0x057F [0x03] ExtData[1]->WorkLocal[12] = ExtData[1]->WorkLocal[10]
297: 0x0584 [0x0B] ExtData[1]->WorkLocal[12]++
298: 0x0587 [0x3C] SET_BIT_FLAG_CONDITIONAL(target_work_offset=ExtData[1]->WorkLocal[3], bit_index_work_offset=ExtData[1]->WorkLocal[12], condition_work_offset=1*)
299: 0x058E [0x3C] SET_BIT_FLAG_CONDITIONAL(target_work_offset=ExtData[1]->WorkLocal[3], bit_index_work_offset=18*, condition_work_offset=1*)
300: 0x0595 [0x0B] ExtData[1]->WorkLocal[10]++
301: 0x0598 [0x01] GOTO 0x055D
302: 0x059B [0x1B] RETURN

SUBROUTINE_059C:
303: 0x059C [0x05] ExtData[1]->WorkLocal[0] = 1
304: 0x059F [0x03] Work_Zone[2] = 9050*
305: 0x05A4 [0x41] Work_Zone[3] = ExtData[1]->WorkLocal[9] (bits 20*-29*)
306: 0x05AD [0x02] IF !(ExtData[1]->WorkLocal[8] == 0*) GOTO 0x05D8
307: 0x05B5 [0x2B] Lorissa (ID: 17855119/0x0110728F) [8938*]:
    → "...You want $0 back?"
308: 0x05BC [0x23] WAIT_FOR_DIALOG_INTERACTION
309: 0x05BD [0x2B] Lorissa (ID: 17855119/0x0110728F) [8939*]:
    → "I...I don't want to."
310: 0x05C4 [0x23] WAIT_FOR_DIALOG_INTERACTION
311: 0x05C5 [0x2B] Lorissa (ID: 17855119/0x0110728F) [8940*]:
    → "If you bring more...I can return some."
312: 0x05CC [0x23] WAIT_FOR_DIALOG_INTERACTION
313: 0x05CD [0x2B] Lorissa (ID: 17855119/0x0110728F) [8941*]:
    → "I have...$1 $0 . How...how many do you want?"
314: 0x05D4 [0x23] WAIT_FOR_DIALOG_INTERACTION
315: 0x05D5 [0x01] GOTO 0x05F8
316: 0x05D8 [0x2B] Unnamed NPC (ID: 17855069/0x0110725D) [8938*]:
    → "...You want $0 back?"
317: 0x05DF [0x23] WAIT_FOR_DIALOG_INTERACTION
318: 0x05E0 [0x2B] Unnamed NPC (ID: 17855069/0x0110725D) [8939*]:
    → "I...I don't want to."
319: 0x05E7 [0x23] WAIT_FOR_DIALOG_INTERACTION
320: 0x05E8 [0x2B] Unnamed NPC (ID: 17855069/0x0110725D) [8940*]:
    → "If you bring more...I can return some."
321: 0x05EF [0x23] WAIT_FOR_DIALOG_INTERACTION
322: 0x05F0 [0x2B] Unnamed NPC (ID: 17855069/0x0110725D) [8941*]:
    → "I have...$1 $0 . How...how many do you want?"
323: 0x05F7 [0x23] WAIT_FOR_DIALOG_INTERACTION

SUBROUTINE_05F8:
324: 0x05F8 [0x71] USER_INPUT_HANDLER: Open numerical input with params (work=[1*, 2*])
325: 0x05FE [0x71] USER_INPUT_HANDLER: Process numerical input B (work=Work_Zone[4])
326: 0x0602 [0x02] IF !(Work_Zone[4] >= 100*) GOTO 0x0683
327: 0x060A [0x02] IF !(Work_Zone[4] <= 0*) GOTO 0x0668
328: 0x0612 [0x02] IF !(Work_Zone[4] > Work_Zone[3]) GOTO 0x064A
329: 0x061A [0x40] SET_BIT_WORK_RANGE(start_bit=0*, end_bit=7*, target=Work_Zone[1], source=5*)
330: 0x0623 [0x40] SET_BIT_WORK_RANGE(start_bit=8*, end_bit=15*, target=Work_Zone[1], source=Work_Zone[4])
331: 0x062C [0x02] IF !(ExtData[1]->WorkLocal[8] == 0*) GOTO 0x063F
332: 0x0634 [0x2B] Lorissa (ID: 17855119/0x0110728F) [8942*]:
    → "I don't want to...but here."
333: 0x063B [0x23] WAIT_FOR_DIALOG_INTERACTION
334: 0x063C [0x01] GOTO 0x0647
335: 0x063F [0x2B] Unnamed NPC (ID: 17855069/0x0110725D) [8942*]:
    → "I don't want to...but here."
336: 0x0646 [0x23] WAIT_FOR_DIALOG_INTERACTION

SUBROUTINE_0647:
337: 0x0647 [0x01] GOTO 0x0665
338: 0x064A [0x02] IF !(ExtData[1]->WorkLocal[8] == 0*) GOTO 0x065D
339: 0x0652 [0x2B] Lorissa (ID: 17855119/0x0110728F) [8944*]:
    → "I...don't have that many. Only $1."
340: 0x0659 [0x23] WAIT_FOR_DIALOG_INTERACTION
341: 0x065A [0x01] GOTO 0x0665
342: 0x065D [0x2B] Unnamed NPC (ID: 17855069/0x0110725D) [8944*]:
    → "I...don't have that many. Only $1."
343: 0x0664 [0x23] WAIT_FOR_DIALOG_INTERACTION

SUBROUTINE_0665:
344: 0x0665 [0x01] GOTO 0x0683
345: 0x0668 [0x02] IF !(ExtData[1]->WorkLocal[8] == 0*) GOTO 0x067B
346: 0x0670 [0x2B] Lorissa (ID: 17855119/0x0110728F) [8943*]:
    → "Oh...then I can keep them?"
347: 0x0677 [0x23] WAIT_FOR_DIALOG_INTERACTION
348: 0x0678 [0x01] GOTO 0x0683
349: 0x067B [0x2B] Unnamed NPC (ID: 17855069/0x0110725D) [8943*]:
    → "Oh...then I can keep them?"
350: 0x0682 [0x23] WAIT_FOR_DIALOG_INTERACTION

SUBROUTINE_0683:
351: 0x0683 [0x1B] RETURN

SUBROUTINE_0684:
352: 0x0684 [0x42] SET_CLI_EVENT_CANCEL_DATA()
353: 0x0685 [0x45] LOAD_SCHEDULED_TASK: Load scheduler "fdo1" with entities [EventEntity, EventEntity], work=[200*, 0*]
354: 0x0696 [0x1C] WAIT(60* ticks)
355: 0x0699 [0x38] SET_CLIENT_EVENT_MODE(mode=19*)
356: 0x069C [0x2F] Unnamed NPC (ID: 17855069/0x0110725D)->Render.Flags0 &= ~0x80000 // Bit 19
357: 0x06A2 [0x29] REQ_SET_WAIT(priority=0x08, entity_id=Unnamed NPC (ID: 17855069/0x0110725D), tag_num=0x18)
358: 0x06A9 [0x4E] SET_ENTITY_HIDE_FLAG: Show Unnamed NPC (ID: 17855069/0x0110725D)
359: 0x06AF [0x59] UPDATE_ENTITY_DATA: Unnamed NPC (ID: 17855069/0x0110725D)->Render.Flags0 |= 0x200000
360: 0x06B6 [0xBA] SET_ENTITY_POSITION(entity_id=Unnamed NPC (ID: 17855069/0x0110725D), pos_x=184.400*, pos_z=-267.700*, pos_y=3.000*, direction=270.0°*)
361: 0x06C3 [0x80] LOAD_WAIT(entity=Unnamed NPC (ID: 17855069/0x0110725D))
362: 0x06C8 [0x94] Unnamed NPC (ID: 17855069/0x0110725D)->Render.Flags3 ^= 0x01
363: 0x06CE [0x4A] LocalPlayer looks at Unnamed NPC (ID: 17855069/0x0110725D)
364: 0x06D7 [0x45] LOAD_SCHEDULED_TASK: Load scheduler "fdi1" with entities [EventEntity, EventEntity], work=[200*, 0*]
365: 0x06E8 [0x1C] WAIT(100* ticks)
366: 0x06EB [0x4A] Unnamed NPC (ID: 17855069/0x0110725D) looks at LocalPlayer
367: 0x06F4 [0x1B] RETURN

SUBROUTINE_06F5:
368: 0x06F5 [0x45] LOAD_SCHEDULED_TASK: Load scheduler "fdo1" with entities [LocalPlayer, LocalPlayer], work=[200*, 0*]
369: 0x0706 [0x1C] WAIT(60* ticks)
370: 0x0709 [0x94] Unnamed NPC (ID: 17855069/0x0110725D)->Render.Flags3 = Flags3  // No change (flag=0)
371: 0x070F [0x81] SET_ENTITY_BLINKING(blink_flag=0x01, entity=Unnamed NPC (ID: 17855069/0x0110725D))
372: 0x0715 [0x29] REQ_SET_WAIT(priority=0x08, entity_id=Unnamed NPC (ID: 17855069/0x0110725D), tag_num=0x19)
373: 0x071C [0x4E] SET_ENTITY_HIDE_FLAG: Show LocalPlayer
374: 0x0722 [0x80] LOAD_WAIT(entity=LocalPlayer)
375: 0x0727 [0x45] LOAD_SCHEDULED_TASK: Load scheduler "fdi1" with entities [LocalPlayer, LocalPlayer], work=[200*, 0*]
376: 0x0738 [0x2E] SET_CLI_EVENT_CANCEL_FLAGS()
377: 0x0739 [0x1B] RETURN

SUBROUTINE_073A:
378: 0x073A [0x2F] Lorissa (ID: 17855119/0x0110728F)->Render.Flags0 &= ~0x80000 // Bit 19
379: 0x0740 [0x4E] SET_ENTITY_HIDE_FLAG: Show Lorissa (ID: 17855119/0x0110728F)
380: 0x0746 [0x80] LOAD_WAIT(entity=Lorissa (ID: 17855119/0x0110728F))
381: 0x074B [0x1B] RETURN
```

#### Data or dead code:

```
# Dead code (unreachable instructions):
     0x010A [0x01] GOTO 0x014C
```

### Event 5601

#### Metadata

| Field        | Value     |
|--------------|-----------|
| Entrypoint   | 0x074C    |
| Data Size    | 448 bytes |
| Instructions | 13        |

```
      00 01 02 03 04 05 06 07  08 09 0A 0B 0C 0D 0E 0F
      -- -- -- -- -- -- -- --  -- -- -- -- -- -- -- --
0740:                                      03 10 00 09              ....
0750: 10 1A 84 06 02 10 00 02  80 00 67 07 2B 5D 72 10  ..........g.+]r.
0760: 01 47 80 23 01 77 07 2B  5D 72 10 01 48 80 23 2B  .G.#.w.+]r..H.#+
0770: 5D 72 10 01 49 80 23 1A  F5 06 21 00 4A 80 4B 80  ]r..I.#...!.J.K.
0780: 4C 80 4D 80 4E 80 4F 80  50 80 51 80 52 80 53 80  L.M.N.O.P.Q.R.S.
0790: 54 80 55 80 56 80 57 80  58 80 59 80 5A 80 5B 80  T.U.V.W.X.Y.Z.[.
07A0: 5C 80 5D 80 5E 80 5F 80  60 80 61 80 62 80 63 80  \.].^._.`.a.b.c.
07B0: 64 80 65 80 66 80 67 80  68 80 69 80 6A 80 6B 80  d.e.f.g.h.i.j.k.
07C0: 6C 80 6D 80 6E 80 6F 80  70 80 71 80 72 80 26 80  l.m.n.o.p.q.r.&.
07D0: 27 80 28 80 38 80 39 80  3A 80 73 80 74 80 75 80  '.(.8.9.:.s.t.u.
07E0: 76 80 77 80 78 80 29 80  31 80 35 80 3D 80 3F 80  v.w.x.).1.5.=.?.
07F0: 3E 80 79 80 7A 80 7B 80  7C 80 7D 80 7E 80 48 80  >.y.z.{.|.}.~.H.
0800: 49 80 37 80 47 80 32 80  2A 80 7F 80 80 80 81 80  I.7.G.2.*.......
0810: 82 80 83 80 84 80 02 80  02 80 02 80 01 80 01 80  ................
0820: 01 80 01 80 01 80 01 80  01 80 01 80 01 80 01 80  ................
0830: 01 80 01 80 01 80 01 80  01 80 01 80 05 80 01 80  ................
0840: 00 80 05 80 00 80 05 80  01 80 00 80 05 80 00 80  ................
0850: 05 80 01 80 00 80 05 80  00 80 05 80 01 80 00 80  ................
0860: 05 80 00 80 05 80 01 80  00 80 05 80 00 80 00 80  ................
0870: 3C 80 85 80 00 80 3C 80  85 80 00 80 3C 80 85 80  <.....<.....<...
0880: 00 80 3C 80 85 80 00 80  3C 80 85 80 00 80 3C 80  ..<.....<.....<.
0890: 85 80 00 80 3C 80 85 80  00 80 3C 80 85 80 05 80  ....<.....<.....
08A0: 85 80 14 80 05 80 85 80  14 80 05 80 85 80 14 80  ................
08B0: 05 80 85 80 14 80 02 80  02 80 02 80 03 10 04 10  ................
08C0: 05 10 06 10 07 10 08 10  09 10 00 17 01 17 02 17  ................
08D0: 03 17 04 17 05 17 06 17  07 17 08 17 09 17 0A 17  ................
08E0: 0B 17 0C 17 0D 17 0E 17  0F 17 10 17 11 17 12 17  ................
08F0: 13 17 14 17 15 17 16 17  17 17 18 17 19 17 1A 17  ................
0900: 1B 17 1C 17 1D 17 1E 17  1F 17 02 10              ............    
```

#### Opcodes

```
  0: 0x074C [0x03] ExtData[1]->WorkLocal[16] = Work_Zone[9]
  1: 0x0751 [0x1A] CALL_SUBROUTINE(address=0x0684)
  2: 0x0754 [0x02] IF !(ExtData[1]->WorkLocal[16] == 0*) GOTO 0x0767
  3: 0x075C [0x2B] Unnamed NPC (ID: 17855069/0x0110725D) [8945*]:
    → "Hahaha...I have so many! I can't hold any...more."
  4: 0x0763 [0x23] WAIT_FOR_DIALOG_INTERACTION
  5: 0x0764 [0x01] GOTO 0x0777
  6: 0x0767 [0x2B] Unnamed NPC (ID: 17855069/0x0110725D) [8936*]:
    → "Haha...thank you...for your $0."
  7: 0x076E [0x23] WAIT_FOR_DIALOG_INTERACTION
  8: 0x076F [0x2B] Unnamed NPC (ID: 17855069/0x0110725D) [8937*]:
    → "I currently have...$1 $0 ."
  9: 0x0776 [0x23] WAIT_FOR_DIALOG_INTERACTION

SUBROUTINE_0777:
 10: 0x0777 [0x1A] CALL_SUBROUTINE(address=0x06F5)
 11: 0x077A [0x21] END_EVENT
 12: 0x077B [0x00] END_REQSTACK()
```

#### Data or dead code:

```
# Dead code (unreachable instructions):
     0x077C [0x4A] Unknown NPC (ID: 1283476352/0x4C804B80) looks at Unknown NPC (ID: 1317031296/0x4E804D80)
     0x0785 [0x80] LOAD_WAIT(entity=Unknown NPC (ID: 2152759375/0x8050804F))
     0x078A [0x51] END_MAP_SCHEDULER: End scheduler 0x57805680 with entities [Unknown NPC (ID: 1400918656/0x53805280), Unknown NPC (ID: 1434473600/0x55805480)]
     0x0797 [0x80] LOAD_WAIT(entity=Unknown NPC (ID: 2153349208/0x80598058))
     0x079C [0x5A] UPDATE_EVENT_POSITION: Move EventEntity incrementally towards MovePosition
     0x079E [0x5B] LOAD_EXT_SCHEDULER: Load scheduler 0x62806180 with entities [Unknown NPC (ID: 1585470848/0x5E805D80), Unknown NPC (ID: 1619025792/0x60805F80)], work=0x5C80
     0x07AD [0x80] LOAD_WAIT(entity=Unknown NPC (ID: 2154070115/0x80648063))
     0x07B2 [0x65] CALCULATE_3D_DISTANCE(result=0x6680, entity1=Unknown NPC (ID: 1753245568/0x68806780), entity2=Unknown NPC (ID: 1786800512/0x6A806980))
     0x07BD [0x80] LOAD_WAIT(entity=Unknown NPC (ID: 2154594411/0x806C806B))
     0x07C2 [0x6D] DEPRECATED_OPCODE(unused1=0x6E80, unused2=0x6F80, unused3=0x7080)
     0x07C9 [0x80] LOAD_WAIT(entity=Unknown NPC (ID: 2154987633/0x80728071))
     0x07CE [0x26] DEPRECATED_YIELD
     0x07CF [0x80] LOAD_WAIT(entity=Unknown NPC (ID: 2150137895/0x80288027))
     0x07D4 [0x38] SET_CLIENT_EVENT_MODE(mode=0x3980)
     0x07D7 [0x80] LOAD_WAIT(entity=Unknown NPC (ID: 2155053114/0x8073803A))
     0x07DC [0x74] EventEntity->Render.Flags1 ^= 0x00
     0x07DE [0x75] LOAD_ROOM(Unknown mode 128, room=8957*)
     0x07E2 [0x77] SET_EVENT_TIME_WEATHER(hour=0x7880, weather=0x2980)
     0x07E7 [0x80] LOAD_WAIT(entity=Unknown NPC (ID: 2150989873/0x80358031))
     0x07EC [0x3D] CLEAR_BIT_FLAG_CONDITIONAL(target_work_offset=0x3F80, bit_index_work_offset=0x3E80, condition_work_offset=0x7980)
     0x07F3 [0x80] LOAD_WAIT(entity=Unknown NPC (ID: 2155577466/0x807B807A))
     0x07F8 [0x7C] Unknown NPC (ID: 2155774077/0x807E807D)->Render.Flags2 ^= 0x00
     0x07FE [0x48] [System] [0x4980]:
     0x0801 [0x80] LOAD_WAIT(entity=Unknown NPC (ID: 2152169527/0x80478037))
     0x0806 [0x32] ExtData[1]->MainSpeed = 0x2A80 * 0.1
     0x0809 [0x80] LOAD_WAIT(entity=Unknown NPC (ID: 2155905151/0x8080807F))
     0x080E [0x81] SET_ENTITY_BLINKING(blink_flag=0x80, entity=Unknown NPC (ID: 2156101762/0x80838082))
     0x0814 [0x84] ADJUST_RENDER_FLAGS3_BIT0()
     0x0815 [0x80] LOAD_WAIT(entity=Unknown NPC (ID: 2147647490/0x80028002))
     0x081A [0x02] IF !(0x0180 == 0x0180) GOTO 0x8001
     0x0822 [0x01] GOTO 0x0180
     0x0825 [0x80] LOAD_WAIT(entity=Unknown NPC (ID: 2147581953/0x80018001))
     0x082A [0x01] GOTO 0x0180
     0x082D [0x80] LOAD_WAIT(entity=Unknown NPC (ID: 2147581953/0x80018001))
     0x0832 [0x01] GOTO 0x0180
     0x0835 [0x80] LOAD_WAIT(entity=Unknown NPC (ID: 2147581953/0x80018001))
     0x083A [0x01] GOTO 0x0580
     0x083D [0x80] LOAD_WAIT(entity=Unknown NPC (ID: 2147516417/0x80008001))
     0x0842 [0x05] 0x80 = 1
     0x0845 [0x80] LOAD_WAIT(entity=Unknown NPC (ID: 2147581957/0x80018005))
     0x084A [0x00] END_REQSTACK()
     0x084B [0x80] LOAD_WAIT(entity=Unknown NPC (ID: 2147516421/0x80008005))
     0x0850 [0x05] 0x0180 = 1
     0x0853 [0x80] LOAD_WAIT(entity=Unknown NPC (ID: 2147844096/0x80058000))
     0x0858 [0x00] END_REQSTACK()
     0x0859 [0x80] LOAD_WAIT(entity=Unknown NPC (ID: 2147581957/0x80018005))
     0x085E [0x00] END_REQSTACK()
     0x085F [0x80] LOAD_WAIT(entity=Unknown NPC (ID: 2147516421/0x80008005))
     0x0864 [0x05] 0x0180 = 1
     0x0867 [0x80] LOAD_WAIT(entity=Unknown NPC (ID: 2147844096/0x80058000))
     0x086C [0x00] END_REQSTACK()
     0x086D [0x80] LOAD_WAIT(entity=Unknown NPC (ID: 2151448576/0x803C8000))
     0x0872 [0x85] OPEN_MOOGLE_MENU()
     0x0873 [0x80] LOAD_WAIT(entity=Unknown NPC (ID: 2151448576/0x803C8000))
     0x0878 [0x85] OPEN_MOOGLE_MENU()
     0x0879 [0x80] LOAD_WAIT(entity=Unknown NPC (ID: 2151448576/0x803C8000))
     0x087E [0x85] OPEN_MOOGLE_MENU()
     0x087F [0x80] LOAD_WAIT(entity=Unknown NPC (ID: 2151448576/0x803C8000))
     0x0884 [0x85] OPEN_MOOGLE_MENU()
     0x0885 [0x80] LOAD_WAIT(entity=Unknown NPC (ID: 2151448576/0x803C8000))
     0x088A [0x85] OPEN_MOOGLE_MENU()
     0x088B [0x80] LOAD_WAIT(entity=Unknown NPC (ID: 2151448576/0x803C8000))
     0x0890 [0x85] OPEN_MOOGLE_MENU()
     0x0891 [0x80] LOAD_WAIT(entity=Unknown NPC (ID: 2151448576/0x803C8000))
     0x0896 [0x85] OPEN_MOOGLE_MENU()
     0x0897 [0x80] LOAD_WAIT(entity=Unknown NPC (ID: 2151448576/0x803C8000))
     0x089C [0x85] OPEN_MOOGLE_MENU()
     0x089D [0x80] LOAD_WAIT(entity=Unknown NPC (ID: 2156232709/0x80858005))
     0x08A2 [0x14] 0x0580 *= References[1408]
     0x08A7 [0x80] LOAD_WAIT(entity=Unknown NPC (ID: 2147844116/0x80058014))
     0x08AC [0x85] OPEN_MOOGLE_MENU()
     0x08AD [0x80] LOAD_WAIT(entity=Unknown NPC (ID: 2147844116/0x80058014))
     0x08B2 [0x85] OPEN_MOOGLE_MENU()
     0x08B3 [0x80] LOAD_WAIT(entity=Unknown NPC (ID: 2147647508/0x80028014))
     0x08B8 [0x02] IF !(0x0280 == 0x0380) GOTO 0x1004
     0x08C0 [0x05] 0x0610 = 1
     0x08C3 [0x10] Work_Zone[7] <<= Work_Zone[8]
     0x08C8 [0x09] ExtData[1]->WorkLocal[16] |= (1 << 0x0117)
     0x08CD [0x17] Work_Zone_1700[2] = cos(Work_Zone_1700[3]) * Work_Zone_1700[4]
     0x08D4 [0x05] 0x0617 = 1
     0x08D7 [0x17] Work_Zone_1700[7] = cos(Work_Zone_1700[8]) * Work_Zone_1700[9]
     0x08DE [0x0A] 0x0B17 &= ~(1 << 0x0C17)
     0x08E3 [0x17] Work_Zone_1700[13] = cos(Work_Zone_1700[14]) * Work_Zone_1700[15]
     0x08EA [0x10] Work_Zone_Memorize[23] <<= 0x1217
     0x08EF [0x17] Work_Zone_1700[19] = cos(Work_Zone_1700[20]) * Work_Zone_1700[21]
     0x08F6 [0x16] Work_Zone_1700[23] = sin(0x1817) * 0x1917
     0x08FD [0x17] Work_Zone_1700[26] = cos(Work_Zone_1700[27]) * Work_Zone_1700[28]
     0x0904 [0x1D] PRINT_EVENT_MESSAGE(message_id=0x1E17)
     0x0907 [0x1F] MOVE_ENTITY: Update entity position (mode=23)
```
