# 17855082

## Common Data

| Field            | Value                  |
|------------------|------------------------|
| Zone             | Yorcia Weald (ID: 263) |
| Block Size       | 304 bytes              |
| Total Events     | 10                     |
| References Count | 24                     |

## List of Events

| Event ID                 | Entrypoint   |   Size |   Instructions |
|--------------------------|--------------|--------|----------------|
| [65535](#event-65535)    | 0x0000       |      1 |              1 |
| [129](#event-129)        | 0x0001       |     29 |              4 |
| [130](#event-130)        | 0x001E       |      9 |              3 |
| [131](#event-131)        | 0x0027       |      9 |              3 |
| [65535.1](#event-655351) | 0x0030       |     14 |              4 |
| [65535.2](#event-655352) | 0x003E       |     27 |              5 |
| [65535.3](#event-655353) | 0x0059       |     34 |              8 |
| [65535.4](#event-655354) | 0x007B       |     14 |              4 |
| [65535.5](#event-655355) | 0x0089       |      7 |              3 |
| [65535.6](#event-655356) | 0x0090       |      7 |              3 |

## DAT References (imed_data)

|   Index | Hex Value   |   Dec Value |
|---------|-------------|-------------|
|       0 | 0x0A8E      |        2702 |
|       1 | 0x0B34      |        2868 |
|       2 | 0x003C      |          60 |
|       3 | 0x0A92      |        2706 |
|       4 | 0x0028      |          40 |
|       5 | 0x403F8     |      263160 |
|       6 | 0x5DD0E     |      384270 |
|       7 | 0xFFFFF6B4  |  4294964916 |
|       8 | 0x0001      |           1 |
|       9 | 0x0000      |           0 |
|      10 | 0x00F0      |         240 |
|      11 | 0x4016E     |      262510 |
|      12 | 0x5E5C4     |      386500 |
|      13 | 0xFFFFF736  |  4294965046 |
|      14 | 0x3FF0C     |      261900 |
|      15 | 0x5E8BC     |      387260 |
|      16 | 0xFFFFF754  |  4294965076 |
|      17 | 0x3F4E4     |      259300 |
|      18 | 0x5FBA4     |      392100 |
|      19 | 0xFFFFFC86  |  4294966406 |
|      20 | 0x000D      |          13 |
|      21 | 0x1DC04     |      121860 |
|      22 | 0xECF4      |       60660 |
|      23 | 0x03CA      |         970 |

## Events

### Event 65535

#### Metadata

| Field        | Value   |
|--------------|---------|
| Entrypoint   | 0x0000  |
| Data Size    | 1 bytes |
| Instructions | 1       |

```
      00 01 02 03 04 05 06 07  08 09 0A 0B 0C 0D 0E 0F
      -- -- -- -- -- -- -- --  -- -- -- -- -- -- -- --
0000: 00                                                .               
```

#### Opcodes

```
  0: 0x0000 [0x00] END_REQSTACK()
```

### Event 129

#### Metadata

| Field        | Value    |
|--------------|----------|
| Entrypoint   | 0x0001   |
| Data Size    | 29 bytes |
| Instructions | 4        |

```
      00 01 02 03 04 05 06 07  08 09 0A 0B 0C 0D 0E 0F
      -- -- -- -- -- -- -- --  -- -- -- -- -- -- -- --
0000:    B4 00 00 00 48 65 61  72 74 77 69 6E 67 00 00   ....Heartwing..
0010: 00 00 00 00 00 B5 00 00  00 B6 00 00 80 00        ..............  
```

#### Opcodes

```
  0: 0x0001 [0xB4] UI_WINDOW_STRING_HANDLER(case=0x00 - Copy string from opcode, work_offset=ExtData[1]->WorkLocal[0], string="Heartwing")
  1: 0x0015 [0xB5] SET_EVENT_ENTITY_NAME: Change EventEntity name to ExtData[1]->WorkLocal[0]
  2: 0x0019 [0xB6] ENTITY_APPEARANCE_HANDLER(case=Hair style, value=2702*)
  3: 0x001D [0x00] END_REQSTACK()
```

### Event 130

#### Metadata

| Field        | Value   |
|--------------|---------|
| Entrypoint   | 0x001E  |
| Data Size    | 9 bytes |
| Instructions | 3       |

```
      00 01 02 03 04 05 06 07  08 09 0A 0B 0C 0D 0E 0F
      -- -- -- -- -- -- -- --  -- -- -- -- -- -- -- --
0010:                                            B6 00                ..
0020: 01 80 B6 0F 02 80 00                              .......         
```

#### Opcodes

```
  0: 0x001E [0xB6] ENTITY_APPEARANCE_HANDLER(case=Hair style, value=2868*)
  1: 0x0022 [0xB6] ENTITY_APPEARANCE_HANDLER(case=Model size, value=60*)
  2: 0x0026 [0x00] END_REQSTACK()
```

### Event 131

#### Metadata

| Field        | Value   |
|--------------|---------|
| Entrypoint   | 0x0027  |
| Data Size    | 9 bytes |
| Instructions | 3       |

```
      00 01 02 03 04 05 06 07  08 09 0A 0B 0C 0D 0E 0F
      -- -- -- -- -- -- -- --  -- -- -- -- -- -- -- --
0020:                      B6  00 03 80 B6 0F 02 80 00         .........
```

#### Opcodes

```
  0: 0x0027 [0xB6] ENTITY_APPEARANCE_HANDLER(case=Hair style, value=2706*)
  1: 0x002B [0xB6] ENTITY_APPEARANCE_HANDLER(case=Model size, value=60*)
  2: 0x002F [0x00] END_REQSTACK()
```

### Event 65535.1

#### Metadata

| Field        | Value    |
|--------------|----------|
| Entrypoint   | 0x0030   |
| Data Size    | 14 bytes |
| Instructions | 4        |

```
      00 01 02 03 04 05 06 07  08 09 0A 0B 0C 0D 0E 0F
      -- -- -- -- -- -- -- --  -- -- -- -- -- -- -- --
0030: 32 04 80 1F 00 05 80 06  80 07 80 1F 01 00        2.............  
```

#### Opcodes

```
  0: 0x0030 [0x32] ExtData[1]->MainSpeed = 40* * 0.1
  1: 0x0033 [0x1F] MOVE_ENTITY: EventEntity moves to X=263.160*, Z=384.270*, Y=-2.380*
  2: 0x003B [0x1F] MOVE_ENTITY: Update entity position (mode=1)
  3: 0x003D [0x00] END_REQSTACK()
```

### Event 65535.2

#### Metadata

| Field        | Value    |
|--------------|----------|
| Entrypoint   | 0x003E   |
| Data Size    | 27 bytes |
| Instructions | 5        |

```
      00 01 02 03 04 05 06 07  08 09 0A 0B 0C 0D 0E 0F
      -- -- -- -- -- -- -- --  -- -- -- -- -- -- -- --
0030:                                            02 08                ..
0040: 80 09 80 02 58 00 C4 01  09 80 F8 FF FF 7F 6B 72  ....X.........kr
0050: 10 01 1C 0A 80 01 3E 00  00                       ......>..       
```

#### Opcodes

```
  0: 0x003E [0x02] IF !(1* <= 0*) GOTO 0x0058
  1: 0x0046 [0xC4] SCHEDULE_MAGIC_CASTING_ALT (arg=17): EventEntity casts magic 0* on Unnamed NPC (ID: 17855083/0x0110726B)
  2: 0x0052 [0x1C] WAIT(240* ticks)
  3: 0x0055 [0x01] GOTO 0x003E
  4: 0x0058 [0x00] END_REQSTACK()
```

### Event 65535.3

#### Metadata

| Field        | Value    |
|--------------|----------|
| Entrypoint   | 0x0059   |
| Data Size    | 34 bytes |
| Instructions | 8        |

```
      00 01 02 03 04 05 06 07  08 09 0A 0B 0C 0D 0E 0F
      -- -- -- -- -- -- -- --  -- -- -- -- -- -- -- --
0050:                             32 04 80 1F 00 0B 80           2......
0060: 0C 80 0D 80 1F 01 1F 00  0E 80 0F 80 10 80 1F 01  ................
0070: 1F 00 11 80 12 80 13 80  1F 01 00                 ...........     
```

#### Opcodes

```
  0: 0x0059 [0x32] ExtData[1]->MainSpeed = 40* * 0.1
  1: 0x005C [0x1F] MOVE_ENTITY: EventEntity moves to X=262.510*, Z=386.500*, Y=-2.250*
  2: 0x0064 [0x1F] MOVE_ENTITY: Update entity position (mode=1)
  3: 0x0066 [0x1F] MOVE_ENTITY: EventEntity moves to X=261.900*, Z=387.260*, Y=-2.220*
  4: 0x006E [0x1F] MOVE_ENTITY: Update entity position (mode=1)
  5: 0x0070 [0x1F] MOVE_ENTITY: EventEntity moves to X=259.300*, Z=392.100*, Y=-0.890*
  6: 0x0078 [0x1F] MOVE_ENTITY: Update entity position (mode=1)
  7: 0x007A [0x00] END_REQSTACK()
```

### Event 65535.4

#### Metadata

| Field        | Value    |
|--------------|----------|
| Entrypoint   | 0x007B   |
| Data Size    | 14 bytes |
| Instructions | 4        |

```
      00 01 02 03 04 05 06 07  08 09 0A 0B 0C 0D 0E 0F
      -- -- -- -- -- -- -- --  -- -- -- -- -- -- -- --
0070:                                   32 14 80 1F 00             2....
0080: 15 80 16 80 17 80 1F 01  00                       .........       
```

#### Opcodes

```
  0: 0x007B [0x32] ExtData[1]->MainSpeed = 13* * 0.1
  1: 0x007E [0x1F] MOVE_ENTITY: EventEntity moves to X=121.860*, Z=60.660*, Y=0.970*
  2: 0x0086 [0x1F] MOVE_ENTITY: Update entity position (mode=1)
  3: 0x0088 [0x00] END_REQSTACK()
```

### Event 65535.5

#### Metadata

| Field        | Value   |
|--------------|---------|
| Entrypoint   | 0x0089  |
| Data Size    | 7 bytes |
| Instructions | 3       |

```
      00 01 02 03 04 05 06 07  08 09 0A 0B 0C 0D 0E 0F
      -- -- -- -- -- -- -- --  -- -- -- -- -- -- -- --
0080:                             AB 03 AC 01 08 80 00           .......
```

#### Opcodes

```
  0: 0x0089 [0xAB] EventEntity->Render.Flags0 ^= 0x20000 // Toggle bit 17
  1: 0x008B [0xAC] EventEntity->StatusEvent = 1*
  2: 0x008F [0x00] END_REQSTACK()
```

### Event 65535.6

#### Metadata

| Field        | Value   |
|--------------|---------|
| Entrypoint   | 0x0090  |
| Data Size    | 7 bytes |
| Instructions | 3       |

```
      00 01 02 03 04 05 06 07  08 09 0A 0B 0C 0D 0E 0F
      -- -- -- -- -- -- -- --  -- -- -- -- -- -- -- --
0090: AC 01 09 80 AB 04 00                              .......         
```

#### Opcodes

```
  0: 0x0090 [0xAC] EventEntity->StatusEvent = 0*
  1: 0x0094 [0xAB] EventEntity->Render.Flags0 |= 0x40000 // Set bit 18
  2: 0x0096 [0x00] END_REQSTACK()
```
