# 17855076 - Midras

## Common Data

| Field            | Value                  |
|------------------|------------------------|
| Zone             | Yorcia Weald (ID: 263) |
| Block Size       | 1128 bytes             |
| Total Events     | 39                     |
| References Count | 64                     |

## List of Events

| Event ID                   | Entrypoint   |   Size |   Instructions |
|----------------------------|--------------|--------|----------------|
| [65535](#event-65535)      | 0x0000       |      1 |              1 |
| [105](#event-105)          | 0x0001       |      1 |              1 |
| [65535.1](#event-655351)   | 0x0002       |     19 |              3 |
| [65535.2](#event-655352)   | 0x0015       |     19 |              3 |
| [65535.3](#event-655353)   | 0x0028       |     19 |              3 |
| [65535.4](#event-655354)   | 0x003B       |     19 |              3 |
| [65535.5](#event-655355)   | 0x004E       |     19 |              3 |
| [65535.6](#event-655356)   | 0x0061       |     19 |              3 |
| [65535.7](#event-655357)   | 0x0074       |     19 |              3 |
| [65535.8](#event-655358)   | 0x0087       |     14 |              4 |
| [65535.9](#event-655359)   | 0x0095       |     40 |             10 |
| [65535.10](#event-6553510) | 0x00BD       |     19 |              7 |
| [65535.11](#event-6553511) | 0x00D0       |      6 |              4 |
| [65535.12](#event-6553512) | 0x00D6       |     16 |              4 |
| [65535.13](#event-6553513) | 0x00E6       |     16 |              4 |
| [65535.14](#event-6553514) | 0x00F6       |     16 |              4 |
| [65535.15](#event-6553515) | 0x0106       |     16 |              4 |
| [65535.16](#event-6553516) | 0x0116       |     16 |              4 |
| [65535.17](#event-6553517) | 0x0126       |     16 |              4 |
| [65535.18](#event-6553518) | 0x0136       |     16 |              4 |
| [65535.19](#event-6553519) | 0x0146       |     16 |              4 |
| [65535.20](#event-6553520) | 0x0156       |     16 |              4 |
| [65535.21](#event-6553521) | 0x0166       |     19 |              3 |
| [65535.22](#event-6553522) | 0x0179       |     19 |              3 |
| [65535.23](#event-6553523) | 0x018C       |     19 |              3 |
| [65535.24](#event-6553524) | 0x019F       |     16 |              4 |
| [65535.25](#event-6553525) | 0x01AF       |     19 |              3 |
| [65535.26](#event-6553526) | 0x01C2       |     19 |              3 |
| [65535.27](#event-6553527) | 0x01D5       |     19 |              3 |
| [65535.28](#event-6553528) | 0x01E8       |      4 |              2 |
| [129](#event-129)          | 0x01EC       |      1 |              1 |
| [65535.29](#event-6553529) | 0x01ED       |     14 |              4 |
| [65535.30](#event-6553530) | 0x01FB       |     14 |              4 |
| [65535.31](#event-6553531) | 0x0209       |     79 |             11 |
| [65535.32](#event-6553532) | 0x0258       |     16 |              4 |
| [65535.33](#event-6553533) | 0x0268       |     14 |              4 |
| [65535.34](#event-6553534) | 0x0276       |      4 |              2 |
| [65535.35](#event-6553535) | 0x027A       |     16 |              2 |
| [65535.36](#event-6553536) | 0x028A       |     50 |             12 |

## DAT References (imed_data)

|   Index | Hex Value   |   Dec Value |
|---------|-------------|-------------|
|       0 | 0x0000      |           0 |
|       1 | 0x0009      |           9 |
|       2 | 0x0095      |         149 |
|       3 | 0x0512      |        1298 |
|       4 | 0x0003      |           3 |
|       5 | 0x003C      |          60 |
|       6 | 0x29586     |      169350 |
|       7 | 0x28C58     |      167000 |
|       8 | 0x0048      |          72 |
|       9 | 0x2A760     |      173920 |
|      10 | 0x3F390     |      258960 |
|      11 | 0x005C      |          92 |
|      12 | 0x0028      |          40 |
|      13 | 0x28F2A     |      167722 |
|      14 | 0x3F383     |      258947 |
|      15 | 0x0071      |         113 |
|      16 | 0x0019      |          25 |
|      17 | 0x27FF4     |      163828 |
|      18 | 0x3F168     |      258408 |
|      19 | 0x018D      |         397 |
|      20 | 0x000D      |          13 |
|      21 | 0x091B      |        2331 |
|      22 | 0x22DA1     |      142753 |
|      23 | 0x423E2     |      271330 |
|      24 | 0x011D      |         285 |
|      25 | 0x00FF      |         255 |
|      26 | 0x001A      |          26 |
|      27 | 0x0013      |          19 |
|      28 | 0x000A      |          10 |
|      29 | 0x0018      |          24 |
|      30 | 0x0010      |          16 |
|      31 | 0x0006      |           6 |
|      32 | 0x001D      |          29 |
|      33 | 0x0047      |          71 |
|      34 | 0x000B      |          11 |
|      35 | 0x004E      |          78 |
|      36 | 0x0BC1      |        3009 |
|      37 | 0x0954      |        2388 |
|      38 | 0x0064      |         100 |
|      39 | 0x28294     |      164500 |
|      40 | 0x0014      |          20 |
|      41 | 0x077F      |        1919 |
|      42 | 0x0078      |         120 |
|      43 | 0x001E      |          30 |
|      44 | 0x00B4      |         180 |
|      45 | 0x0007      |           7 |
|      46 | 0x280A0     |      164000 |
|      47 | 0xFFFFFFD8  |  4294967256 |
|      48 | 0xFFFFFA01  |  4294965761 |
|      49 | 0x043D      |        1085 |
|      50 | 0xFFFFFC7C  |  4294966396 |
|      51 | 0x0005      |           5 |
|      52 | 0x29202     |      168450 |
|      53 | 0x28E42     |      167490 |
|      54 | 0x005A      |          90 |
|      55 | 0x29D74     |      171380 |
|      56 | 0x2AC88     |      175240 |
|      57 | 0x0244      |         580 |
|      58 | 0x2B11A     |      176410 |
|      59 | 0x2CF24     |      184100 |
|      60 | 0x0438      |        1080 |
|      61 | 0x3179A     |      202650 |
|      62 | 0x32438     |      205880 |
|      63 | 0x008C      |         140 |

## Events

### Event 65535

#### Metadata

| Field        | Value   |
|--------------|---------|
| Entrypoint   | 0x0000  |
| Data Size    | 1 bytes |
| Instructions | 1       |

```
      00 01 02 03 04 05 06 07  08 09 0A 0B 0C 0D 0E 0F
      -- -- -- -- -- -- -- --  -- -- -- -- -- -- -- --
0000: 00                                                .               
```

#### Opcodes

```
  0: 0x0000 [0x00] END_REQSTACK()
```

### Event 105

#### Metadata

| Field        | Value   |
|--------------|---------|
| Entrypoint   | 0x0001  |
| Data Size    | 1 bytes |
| Instructions | 1       |

```
      00 01 02 03 04 05 06 07  08 09 0A 0B 0C 0D 0E 0F
      -- -- -- -- -- -- -- --  -- -- -- -- -- -- -- --
0000:    00                                              .              
```

#### Opcodes

```
  0: 0x0001 [0x00] END_REQSTACK()
```

### Event 65535.1

#### Metadata

| Field        | Value    |
|--------------|----------|
| Entrypoint   | 0x0002   |
| Data Size    | 19 bytes |
| Instructions | 3        |

```
      00 01 02 03 04 05 06 07  08 09 0A 0B 0C 0D 0E 0F
      -- -- -- -- -- -- -- --  -- -- -- -- -- -- -- --
0000:       66 00 80 F8 FF FF  7F F8 FF FF 7F 74 6C 6B    f..........tlk
0010: 30 1C 00 17 00                                    0....           
```

#### Opcodes

```
  0: 0x0002 [0x66] LOAD_EXT_SCHEDULER_MAIN: Load scheduler "tlk0" with entities [EventEntity, EventEntity], work=0*
  1: 0x0011 [0x1C] WAIT(Work_Zone_1700[0] ticks)
  2: 0x0014 [0x00] END_REQSTACK()
```

### Event 65535.2

#### Metadata

| Field        | Value    |
|--------------|----------|
| Entrypoint   | 0x0015   |
| Data Size    | 19 bytes |
| Instructions | 3        |

```
      00 01 02 03 04 05 06 07  08 09 0A 0B 0C 0D 0E 0F
      -- -- -- -- -- -- -- --  -- -- -- -- -- -- -- --
0010:                66 01 80  F8 FF FF 7F F8 FF FF 7F       f..........
0020: 74 6C 6B 30 1C 00 17 00                           tlk0....        
```

#### Opcodes

```
  0: 0x0015 [0x66] LOAD_EXT_SCHEDULER_MAIN: Load scheduler "tlk0" with entities [EventEntity, EventEntity], work=9*
  1: 0x0024 [0x1C] WAIT(Work_Zone_1700[0] ticks)
  2: 0x0027 [0x00] END_REQSTACK()
```

### Event 65535.3

#### Metadata

| Field        | Value    |
|--------------|----------|
| Entrypoint   | 0x0028   |
| Data Size    | 19 bytes |
| Instructions | 3        |

```
      00 01 02 03 04 05 06 07  08 09 0A 0B 0C 0D 0E 0F
      -- -- -- -- -- -- -- --  -- -- -- -- -- -- -- --
0020:                          66 02 80 F8 FF FF 7F F8          f.......
0030: FF FF 7F 74 6C 6B 30 1C  00 17 00                 ...tlk0....     
```

#### Opcodes

```
  0: 0x0028 [0x66] LOAD_EXT_SCHEDULER_MAIN: Load scheduler "tlk0" with entities [EventEntity, EventEntity], work=149*
  1: 0x0037 [0x1C] WAIT(Work_Zone_1700[0] ticks)
  2: 0x003A [0x00] END_REQSTACK()
```

### Event 65535.4

#### Metadata

| Field        | Value    |
|--------------|----------|
| Entrypoint   | 0x003B   |
| Data Size    | 19 bytes |
| Instructions | 3        |

```
      00 01 02 03 04 05 06 07  08 09 0A 0B 0C 0D 0E 0F
      -- -- -- -- -- -- -- --  -- -- -- -- -- -- -- --
0030:                                   66 00 80 F8 FF             f....
0040: FF 7F F8 FF FF 7F 74 6C  6B 31 1C 00 17 00        ......tlk1....  
```

#### Opcodes

```
  0: 0x003B [0x66] LOAD_EXT_SCHEDULER_MAIN: Load scheduler "tlk1" with entities [EventEntity, EventEntity], work=0*
  1: 0x004A [0x1C] WAIT(Work_Zone_1700[0] ticks)
  2: 0x004D [0x00] END_REQSTACK()
```

### Event 65535.5

#### Metadata

| Field        | Value    |
|--------------|----------|
| Entrypoint   | 0x004E   |
| Data Size    | 19 bytes |
| Instructions | 3        |

```
      00 01 02 03 04 05 06 07  08 09 0A 0B 0C 0D 0E 0F
      -- -- -- -- -- -- -- --  -- -- -- -- -- -- -- --
0040:                                            5B 03                [.
0050: 80 F8 FF FF 7F F8 FF FF  7F 61 73 65 30 1C 00 17  .........ase0...
0060: 00                                                .               
```

#### Opcodes

```
  0: 0x004E [0x5B] LOAD_EXT_SCHEDULER: Load scheduler "ase0" with entities [EventEntity, EventEntity], work=1298*
  1: 0x005D [0x1C] WAIT(Work_Zone_1700[0] ticks)
  2: 0x0060 [0x00] END_REQSTACK()
```

### Event 65535.6

#### Metadata

| Field        | Value    |
|--------------|----------|
| Entrypoint   | 0x0061   |
| Data Size    | 19 bytes |
| Instructions | 3        |

```
      00 01 02 03 04 05 06 07  08 09 0A 0B 0C 0D 0E 0F
      -- -- -- -- -- -- -- --  -- -- -- -- -- -- -- --
0060:    5B 03 80 F8 FF FF 7F  F8 FF FF 7F 61 73 65 32   [..........ase2
0070: 1C 00 17 00                                       ....            
```

#### Opcodes

```
  0: 0x0061 [0x5B] LOAD_EXT_SCHEDULER: Load scheduler "ase2" with entities [EventEntity, EventEntity], work=1298*
  1: 0x0070 [0x1C] WAIT(Work_Zone_1700[0] ticks)
  2: 0x0073 [0x00] END_REQSTACK()
```

### Event 65535.7

#### Metadata

| Field        | Value    |
|--------------|----------|
| Entrypoint   | 0x0074   |
| Data Size    | 19 bytes |
| Instructions | 3        |

```
      00 01 02 03 04 05 06 07  08 09 0A 0B 0C 0D 0E 0F
      -- -- -- -- -- -- -- --  -- -- -- -- -- -- -- --
0070:             66 04 80 F8  FF FF 7F F8 FF FF 7F 73      f..........s
0080: 64 6F 30 1C 00 17 00                              do0....         
```

#### Opcodes

```
  0: 0x0074 [0x66] LOAD_EXT_SCHEDULER_MAIN: Load scheduler "sdo0" with entities [EventEntity, EventEntity], work=3*
  1: 0x0083 [0x1C] WAIT(Work_Zone_1700[0] ticks)
  2: 0x0086 [0x00] END_REQSTACK()
```

### Event 65535.8

#### Metadata

| Field        | Value    |
|--------------|----------|
| Entrypoint   | 0x0087   |
| Data Size    | 14 bytes |
| Instructions | 4        |

```
      00 01 02 03 04 05 06 07  08 09 0A 0B 0C 0D 0E 0F
      -- -- -- -- -- -- -- --  -- -- -- -- -- -- -- --
0080:                      32  05 80 1F 00 06 80 07 80         2........
0090: 08 80 1F 01 00                                    .....           
```

#### Opcodes

```
  0: 0x0087 [0x32] ExtData[1]->MainSpeed = 60* * 0.1
  1: 0x008A [0x1F] MOVE_ENTITY: EventEntity moves to X=169.350*, Z=167.000*, Y=0.072*
  2: 0x0092 [0x1F] MOVE_ENTITY: Update entity position (mode=1)
  3: 0x0094 [0x00] END_REQSTACK()
```

### Event 65535.9

#### Metadata

| Field        | Value    |
|--------------|----------|
| Entrypoint   | 0x0095   |
| Data Size    | 40 bytes |
| Instructions | 10       |

```
      00 01 02 03 04 05 06 07  08 09 0A 0B 0C 0D 0E 0F
      -- -- -- -- -- -- -- --  -- -- -- -- -- -- -- --
0090:                32 05 80  1F 00 09 80 0A 80 0B 80       2..........
00A0: 1F 01 32 0C 80 1F 00 0D  80 0E 80 0F 80 1F 01 32  ..2............2
00B0: 10 80 1F 00 11 80 12 80  13 80 1F 01 00           .............   
```

#### Opcodes

```
  0: 0x0095 [0x32] ExtData[1]->MainSpeed = 60* * 0.1
  1: 0x0098 [0x1F] MOVE_ENTITY: EventEntity moves to X=173.920*, Z=258.960*, Y=0.092*
  2: 0x00A0 [0x1F] MOVE_ENTITY: Update entity position (mode=1)
  3: 0x00A2 [0x32] ExtData[1]->MainSpeed = 40* * 0.1
  4: 0x00A5 [0x1F] MOVE_ENTITY: EventEntity moves to X=167.722*, Z=258.947*, Y=0.113*
  5: 0x00AD [0x1F] MOVE_ENTITY: Update entity position (mode=1)
  6: 0x00AF [0x32] ExtData[1]->MainSpeed = 25* * 0.1
  7: 0x00B2 [0x1F] MOVE_ENTITY: EventEntity moves to X=163.828*, Z=258.408*, Y=0.397*
  8: 0x00BA [0x1F] MOVE_ENTITY: Update entity position (mode=1)
  9: 0x00BC [0x00] END_REQSTACK()
```

### Event 65535.10

#### Metadata

| Field        | Value    |
|--------------|----------|
| Entrypoint   | 0x00BD   |
| Data Size    | 19 bytes |
| Instructions | 7        |

```
      00 01 02 03 04 05 06 07  08 09 0A 0B 0C 0D 0E 0F
      -- -- -- -- -- -- -- --  -- -- -- -- -- -- -- --
00B0:                                         32 14 80               2..
00C0: 39 15 80 6F 70 1F 00 16  80 17 80 18 80 1F 01 00  9..op...........
```

#### Opcodes

```
  0: 0x00BD [0x32] ExtData[1]->MainSpeed = 13* * 0.1
  1: 0x00C0 [0x39] SET_ENTITY_DIRECTION(direction=12.8°*)
  2: 0x00C3 [0x6F] WAIT_FRAME_DELAY: Yield until WaitTime reaches zero
  3: 0x00C4 [0x70] WAIT_ENTITY_RENDER_FLAG: Wait while EventEntity->Render.Flags3 bit 2 is set (cancel turn if not)
  4: 0x00C5 [0x1F] MOVE_ENTITY: EventEntity moves to X=142.753*, Z=271.330*, Y=0.285*
  5: 0x00CD [0x1F] MOVE_ENTITY: Update entity position (mode=1)
  6: 0x00CF [0x00] END_REQSTACK()
```

### Event 65535.11

#### Metadata

| Field        | Value   |
|--------------|---------|
| Entrypoint   | 0x00D0  |
| Data Size    | 6 bytes |
| Instructions | 4       |

```
      00 01 02 03 04 05 06 07  08 09 0A 0B 0C 0D 0E 0F
      -- -- -- -- -- -- -- --  -- -- -- -- -- -- -- --
00D0: 39 19 80 6F 70 00                                 9..op.          
```

#### Opcodes

```
  0: 0x00D0 [0x39] SET_ENTITY_DIRECTION(direction=1.4°*)
  1: 0x00D3 [0x6F] WAIT_FRAME_DELAY: Yield until WaitTime reaches zero
  2: 0x00D4 [0x70] WAIT_ENTITY_RENDER_FLAG: Wait while EventEntity->Render.Flags3 bit 2 is set (cancel turn if not)
  3: 0x00D5 [0x00] END_REQSTACK()
```

### Event 65535.12

#### Metadata

| Field        | Value    |
|--------------|----------|
| Entrypoint   | 0x00D6   |
| Data Size    | 16 bytes |
| Instructions | 4        |

```
      00 01 02 03 04 05 06 07  08 09 0A 0B 0C 0D 0E 0F
      -- -- -- -- -- -- -- --  -- -- -- -- -- -- -- --
00D0:                   6E F8  FF FF 7F 10 80 99 F8 FF        n.........
00E0: FF 7F 1C 00 17 00                                 ......          
```

#### Opcodes

```
  0: 0x00D6 [0x6E] EventEntity uses emote 25*
  1: 0x00DD [0x99] Wait for EventEntity animation to complete
  2: 0x00E2 [0x1C] WAIT(Work_Zone_1700[0] ticks)
  3: 0x00E5 [0x00] END_REQSTACK()
```

### Event 65535.13

#### Metadata

| Field        | Value    |
|--------------|----------|
| Entrypoint   | 0x00E6   |
| Data Size    | 16 bytes |
| Instructions | 4        |

```
      00 01 02 03 04 05 06 07  08 09 0A 0B 0C 0D 0E 0F
      -- -- -- -- -- -- -- --  -- -- -- -- -- -- -- --
00E0:                   6E F8  FF FF 7F 1A 80 99 F8 FF        n.........
00F0: FF 7F 1C 00 17 00                                 ......          
```

#### Opcodes

```
  0: 0x00E6 [0x6E] EventEntity uses emote 26*
  1: 0x00ED [0x99] Wait for EventEntity animation to complete
  2: 0x00F2 [0x1C] WAIT(Work_Zone_1700[0] ticks)
  3: 0x00F5 [0x00] END_REQSTACK()
```

### Event 65535.14

#### Metadata

| Field        | Value    |
|--------------|----------|
| Entrypoint   | 0x00F6   |
| Data Size    | 16 bytes |
| Instructions | 4        |

```
      00 01 02 03 04 05 06 07  08 09 0A 0B 0C 0D 0E 0F
      -- -- -- -- -- -- -- --  -- -- -- -- -- -- -- --
00F0:                   6E F8  FF FF 7F 1B 80 99 F8 FF        n.........
0100: FF 7F 1C 00 17 00                                 ......          
```

#### Opcodes

```
  0: 0x00F6 [0x6E] EventEntity uses emote 19*
  1: 0x00FD [0x99] Wait for EventEntity animation to complete
  2: 0x0102 [0x1C] WAIT(Work_Zone_1700[0] ticks)
  3: 0x0105 [0x00] END_REQSTACK()
```

### Event 65535.15

#### Metadata

| Field        | Value    |
|--------------|----------|
| Entrypoint   | 0x0106   |
| Data Size    | 16 bytes |
| Instructions | 4        |

```
      00 01 02 03 04 05 06 07  08 09 0A 0B 0C 0D 0E 0F
      -- -- -- -- -- -- -- --  -- -- -- -- -- -- -- --
0100:                   6E F8  FF FF 7F 1C 80 99 F8 FF        n.........
0110: FF 7F 1C 00 17 00                                 ......          
```

#### Opcodes

```
  0: 0x0106 [0x6E] EventEntity uses emote 10*
  1: 0x010D [0x99] Wait for EventEntity animation to complete
  2: 0x0112 [0x1C] WAIT(Work_Zone_1700[0] ticks)
  3: 0x0115 [0x00] END_REQSTACK()
```

### Event 65535.16

#### Metadata

| Field        | Value    |
|--------------|----------|
| Entrypoint   | 0x0116   |
| Data Size    | 16 bytes |
| Instructions | 4        |

```
      00 01 02 03 04 05 06 07  08 09 0A 0B 0C 0D 0E 0F
      -- -- -- -- -- -- -- --  -- -- -- -- -- -- -- --
0110:                   6E F8  FF FF 7F 1D 80 99 F8 FF        n.........
0120: FF 7F 1C 00 17 00                                 ......          
```

#### Opcodes

```
  0: 0x0116 [0x6E] EventEntity uses emote 24*
  1: 0x011D [0x99] Wait for EventEntity animation to complete
  2: 0x0122 [0x1C] WAIT(Work_Zone_1700[0] ticks)
  3: 0x0125 [0x00] END_REQSTACK()
```

### Event 65535.17

#### Metadata

| Field        | Value    |
|--------------|----------|
| Entrypoint   | 0x0126   |
| Data Size    | 16 bytes |
| Instructions | 4        |

```
      00 01 02 03 04 05 06 07  08 09 0A 0B 0C 0D 0E 0F
      -- -- -- -- -- -- -- --  -- -- -- -- -- -- -- --
0120:                   6E F8  FF FF 7F 1E 80 99 F8 FF        n.........
0130: FF 7F 1C 00 17 00                                 ......          
```

#### Opcodes

```
  0: 0x0126 [0x6E] EventEntity uses emote 16*
  1: 0x012D [0x99] Wait for EventEntity animation to complete
  2: 0x0132 [0x1C] WAIT(Work_Zone_1700[0] ticks)
  3: 0x0135 [0x00] END_REQSTACK()
```

### Event 65535.18

#### Metadata

| Field        | Value    |
|--------------|----------|
| Entrypoint   | 0x0136   |
| Data Size    | 16 bytes |
| Instructions | 4        |

```
      00 01 02 03 04 05 06 07  08 09 0A 0B 0C 0D 0E 0F
      -- -- -- -- -- -- -- --  -- -- -- -- -- -- -- --
0130:                   6E F8  FF FF 7F 00 80 99 F8 FF        n.........
0140: FF 7F 1C 00 17 00                                 ......          
```

#### Opcodes

```
  0: 0x0136 [0x6E] EventEntity uses emote 0*
  1: 0x013D [0x99] Wait for EventEntity animation to complete
  2: 0x0142 [0x1C] WAIT(Work_Zone_1700[0] ticks)
  3: 0x0145 [0x00] END_REQSTACK()
```

### Event 65535.19

#### Metadata

| Field        | Value    |
|--------------|----------|
| Entrypoint   | 0x0146   |
| Data Size    | 16 bytes |
| Instructions | 4        |

```
      00 01 02 03 04 05 06 07  08 09 0A 0B 0C 0D 0E 0F
      -- -- -- -- -- -- -- --  -- -- -- -- -- -- -- --
0140:                   6E F8  FF FF 7F 1F 80 99 F8 FF        n.........
0150: FF 7F 1C 00 17 00                                 ......          
```

#### Opcodes

```
  0: 0x0146 [0x6E] EventEntity uses emote 6*
  1: 0x014D [0x99] Wait for EventEntity animation to complete
  2: 0x0152 [0x1C] WAIT(Work_Zone_1700[0] ticks)
  3: 0x0155 [0x00] END_REQSTACK()
```

### Event 65535.20

#### Metadata

| Field        | Value    |
|--------------|----------|
| Entrypoint   | 0x0156   |
| Data Size    | 16 bytes |
| Instructions | 4        |

```
      00 01 02 03 04 05 06 07  08 09 0A 0B 0C 0D 0E 0F
      -- -- -- -- -- -- -- --  -- -- -- -- -- -- -- --
0150:                   6E F8  FF FF 7F 20 80 99 F8 FF        n.... ....
0160: FF 7F 1C 00 17 00                                 ......          
```

#### Opcodes

```
  0: 0x0156 [0x6E] EventEntity uses emote 29*
  1: 0x015D [0x99] Wait for EventEntity animation to complete
  2: 0x0162 [0x1C] WAIT(Work_Zone_1700[0] ticks)
  3: 0x0165 [0x00] END_REQSTACK()
```

### Event 65535.21

#### Metadata

| Field        | Value    |
|--------------|----------|
| Entrypoint   | 0x0166   |
| Data Size    | 19 bytes |
| Instructions | 3        |

```
      00 01 02 03 04 05 06 07  08 09 0A 0B 0C 0D 0E 0F
      -- -- -- -- -- -- -- --  -- -- -- -- -- -- -- --
0160:                   66 00  80 F8 FF FF 7F F8 FF FF        f.........
0170: 7F 74 68 6B 31 1C 00 17  00                       .thk1....       
```

#### Opcodes

```
  0: 0x0166 [0x66] LOAD_EXT_SCHEDULER_MAIN: Load scheduler "thk1" with entities [EventEntity, EventEntity], work=0*
  1: 0x0175 [0x1C] WAIT(Work_Zone_1700[0] ticks)
  2: 0x0178 [0x00] END_REQSTACK()
```

### Event 65535.22

#### Metadata

| Field        | Value    |
|--------------|----------|
| Entrypoint   | 0x0179   |
| Data Size    | 19 bytes |
| Instructions | 3        |

```
      00 01 02 03 04 05 06 07  08 09 0A 0B 0C 0D 0E 0F
      -- -- -- -- -- -- -- --  -- -- -- -- -- -- -- --
0170:                             66 02 80 F8 FF FF 7F           f......
0180: F8 FF FF 7F 74 68 6B 30  1C 00 17 00              ....thk0....    
```

#### Opcodes

```
  0: 0x0179 [0x66] LOAD_EXT_SCHEDULER_MAIN: Load scheduler "thk0" with entities [EventEntity, EventEntity], work=149*
  1: 0x0188 [0x1C] WAIT(Work_Zone_1700[0] ticks)
  2: 0x018B [0x00] END_REQSTACK()
```

### Event 65535.23

#### Metadata

| Field        | Value    |
|--------------|----------|
| Entrypoint   | 0x018C   |
| Data Size    | 19 bytes |
| Instructions | 3        |

```
      00 01 02 03 04 05 06 07  08 09 0A 0B 0C 0D 0E 0F
      -- -- -- -- -- -- -- --  -- -- -- -- -- -- -- --
0180:                                      66 21 80 F8              f!..
0190: FF FF 7F F8 FF FF 7F 70  61 73 30 1C 00 17 00     .......pas0.... 
```

#### Opcodes

```
  0: 0x018C [0x66] LOAD_EXT_SCHEDULER_MAIN: Load scheduler "pas0" with entities [EventEntity, EventEntity], work=71*
  1: 0x019B [0x1C] WAIT(Work_Zone_1700[0] ticks)
  2: 0x019E [0x00] END_REQSTACK()
```

### Event 65535.24

#### Metadata

| Field        | Value    |
|--------------|----------|
| Entrypoint   | 0x019F   |
| Data Size    | 16 bytes |
| Instructions | 4        |

```
      00 01 02 03 04 05 06 07  08 09 0A 0B 0C 0D 0E 0F
      -- -- -- -- -- -- -- --  -- -- -- -- -- -- -- --
0190:                                               6E                 n
01A0: F8 FF FF 7F 22 80 99 F8  FF FF 7F 1C 00 17 00     ....".......... 
```

#### Opcodes

```
  0: 0x019F [0x6E] EventEntity uses emote 11*
  1: 0x01A6 [0x99] Wait for EventEntity animation to complete
  2: 0x01AB [0x1C] WAIT(Work_Zone_1700[0] ticks)
  3: 0x01AE [0x00] END_REQSTACK()
```

### Event 65535.25

#### Metadata

| Field        | Value    |
|--------------|----------|
| Entrypoint   | 0x01AF   |
| Data Size    | 19 bytes |
| Instructions | 3        |

```
      00 01 02 03 04 05 06 07  08 09 0A 0B 0C 0D 0E 0F
      -- -- -- -- -- -- -- --  -- -- -- -- -- -- -- --
01A0:                                               66                 f
01B0: 23 80 F8 FF FF 7F F8 FF  FF 7F 65 75 64 30 1C 00  #.........eud0..
01C0: 17 00                                             ..              
```

#### Opcodes

```
  0: 0x01AF [0x66] LOAD_EXT_SCHEDULER_MAIN: Load scheduler "eud0" with entities [EventEntity, EventEntity], work=78*
  1: 0x01BE [0x1C] WAIT(Work_Zone_1700[0] ticks)
  2: 0x01C1 [0x00] END_REQSTACK()
```

### Event 65535.26

#### Metadata

| Field        | Value    |
|--------------|----------|
| Entrypoint   | 0x01C2   |
| Data Size    | 19 bytes |
| Instructions | 3        |

```
      00 01 02 03 04 05 06 07  08 09 0A 0B 0C 0D 0E 0F
      -- -- -- -- -- -- -- --  -- -- -- -- -- -- -- --
01C0:       5B 24 80 F8 FF FF  7F F8 FF FF 7F 6B 69 6D    [$.........kim
01D0: 30 1C 00 17 00                                    0....           
```

#### Opcodes

```
  0: 0x01C2 [0x5B] LOAD_EXT_SCHEDULER: Load scheduler "kim0" with entities [EventEntity, EventEntity], work=3009*
  1: 0x01D1 [0x1C] WAIT(Work_Zone_1700[0] ticks)
  2: 0x01D4 [0x00] END_REQSTACK()
```

### Event 65535.27

#### Metadata

| Field        | Value    |
|--------------|----------|
| Entrypoint   | 0x01D5   |
| Data Size    | 19 bytes |
| Instructions | 3        |

```
      00 01 02 03 04 05 06 07  08 09 0A 0B 0C 0D 0E 0F
      -- -- -- -- -- -- -- --  -- -- -- -- -- -- -- --
01D0:                5B 25 80  F8 FF FF 7F F8 FF FF 7F       [%.........
01E0: 7A 73 61 30 1C 00 17 00                           zsa0....        
```

#### Opcodes

```
  0: 0x01D5 [0x5B] LOAD_EXT_SCHEDULER: Load scheduler "zsa0" with entities [EventEntity, EventEntity], work=2388*
  1: 0x01E4 [0x1C] WAIT(Work_Zone_1700[0] ticks)
  2: 0x01E7 [0x00] END_REQSTACK()
```

### Event 65535.28

#### Metadata

| Field        | Value   |
|--------------|---------|
| Entrypoint   | 0x01E8  |
| Data Size    | 4 bytes |
| Instructions | 2       |

```
      00 01 02 03 04 05 06 07  08 09 0A 0B 0C 0D 0E 0F
      -- -- -- -- -- -- -- --  -- -- -- -- -- -- -- --
01E0:                          1C 00 17 00                      ....    
```

#### Opcodes

```
  0: 0x01E8 [0x1C] WAIT(Work_Zone_1700[0] ticks)
  1: 0x01EB [0x00] END_REQSTACK()
```

### Event 129

#### Metadata

| Field        | Value   |
|--------------|---------|
| Entrypoint   | 0x01EC  |
| Data Size    | 1 bytes |
| Instructions | 1       |

```
      00 01 02 03 04 05 06 07  08 09 0A 0B 0C 0D 0E 0F
      -- -- -- -- -- -- -- --  -- -- -- -- -- -- -- --
01E0:                                      00                       .   
```

#### Opcodes

```
  0: 0x01EC [0x00] END_REQSTACK()
```

### Event 65535.29

#### Metadata

| Field        | Value    |
|--------------|----------|
| Entrypoint   | 0x01ED   |
| Data Size    | 14 bytes |
| Instructions | 4        |

```
      00 01 02 03 04 05 06 07  08 09 0A 0B 0C 0D 0E 0F
      -- -- -- -- -- -- -- --  -- -- -- -- -- -- -- --
01E0:                                         32 14 80               2..
01F0: 1F 00 07 80 07 80 26 80  1F 01 00                 ......&....     
```

#### Opcodes

```
  0: 0x01ED [0x32] ExtData[1]->MainSpeed = 13* * 0.1
  1: 0x01F0 [0x1F] MOVE_ENTITY: EventEntity moves to X=167.000*, Z=167.000*, Y=0.100*
  2: 0x01F8 [0x1F] MOVE_ENTITY: Update entity position (mode=1)
  3: 0x01FA [0x00] END_REQSTACK()
```

### Event 65535.30

#### Metadata

| Field        | Value    |
|--------------|----------|
| Entrypoint   | 0x01FB   |
| Data Size    | 14 bytes |
| Instructions | 4        |

```
      00 01 02 03 04 05 06 07  08 09 0A 0B 0C 0D 0E 0F
      -- -- -- -- -- -- -- --  -- -- -- -- -- -- -- --
01F0:                                   32 14 80 1F 00             2....
0200: 07 80 27 80 28 80 1F 01  00                       ..'.(....       
```

#### Opcodes

```
  0: 0x01FB [0x32] ExtData[1]->MainSpeed = 13* * 0.1
  1: 0x01FE [0x1F] MOVE_ENTITY: EventEntity moves to X=167.000*, Z=164.500*, Y=0.020*
  2: 0x0206 [0x1F] MOVE_ENTITY: Update entity position (mode=1)
  3: 0x0208 [0x00] END_REQSTACK()
```

### Event 65535.31

#### Metadata

| Field        | Value    |
|--------------|----------|
| Entrypoint   | 0x0209   |
| Data Size    | 79 bytes |
| Instructions | 11       |

```
      00 01 02 03 04 05 06 07  08 09 0A 0B 0C 0D 0E 0F
      -- -- -- -- -- -- -- --  -- -- -- -- -- -- -- --
0200:                             39 29 80 1C 05 80 66           9)....f
0210: 01 80 F8 FF FF 7F F8 FF  FF 7F 73 68 61 30 1C 2A  ..........sha0.*
0220: 80 66 01 80 F8 FF FF 7F  F8 FF FF 7F 73 69 72 30  .f..........sir0
0230: 1C 05 80 66 01 80 F8 FF  FF 7F F8 FF FF 7F 73 69  ...f..........si
0240: 72 31 1C 2B 80 66 01 80  F8 FF FF 7F F8 FF FF 7F  r1.+.f..........
0250: 73 68 61 31 1C 2A 80 00                           sha1.*..        
```

#### Opcodes

```
  0: 0x0209 [0x39] SET_ENTITY_DIRECTION(direction=10.5°*)
  1: 0x020C [0x1C] WAIT(60* ticks)
  2: 0x020F [0x66] LOAD_EXT_SCHEDULER_MAIN: Load scheduler "sha0" with entities [EventEntity, EventEntity], work=9*
  3: 0x021E [0x1C] WAIT(120* ticks)
  4: 0x0221 [0x66] LOAD_EXT_SCHEDULER_MAIN: Load scheduler "sir0" with entities [EventEntity, EventEntity], work=9*
  5: 0x0230 [0x1C] WAIT(60* ticks)
  6: 0x0233 [0x66] LOAD_EXT_SCHEDULER_MAIN: Load scheduler "sir1" with entities [EventEntity, EventEntity], work=9*
  7: 0x0242 [0x1C] WAIT(30* ticks)
  8: 0x0245 [0x66] LOAD_EXT_SCHEDULER_MAIN: Load scheduler "sha1" with entities [EventEntity, EventEntity], work=9*
  9: 0x0254 [0x1C] WAIT(120* ticks)
 10: 0x0257 [0x00] END_REQSTACK()
```

### Event 65535.32

#### Metadata

| Field        | Value    |
|--------------|----------|
| Entrypoint   | 0x0258   |
| Data Size    | 16 bytes |
| Instructions | 4        |

```
      00 01 02 03 04 05 06 07  08 09 0A 0B 0C 0D 0E 0F
      -- -- -- -- -- -- -- --  -- -- -- -- -- -- -- --
0250:                          1C 2C 80 6E F8 FF FF 7F          .,.n....
0260: 2D 80 99 F8 FF FF 7F 00                           -.......        
```

#### Opcodes

```
  0: 0x0258 [0x1C] WAIT(180* ticks)
  1: 0x025B [0x6E] EventEntity uses emote 7*
  2: 0x0262 [0x99] Wait for EventEntity animation to complete
  3: 0x0267 [0x00] END_REQSTACK()
```

### Event 65535.33

#### Metadata

| Field        | Value    |
|--------------|----------|
| Entrypoint   | 0x0268   |
| Data Size    | 14 bytes |
| Instructions | 4        |

```
      00 01 02 03 04 05 06 07  08 09 0A 0B 0C 0D 0E 0F
      -- -- -- -- -- -- -- --  -- -- -- -- -- -- -- --
0260:                          32 0C 80 1F 00 07 80 2E          2.......
0270: 80 2F 80 1F 01 00                                 ./....          
```

#### Opcodes

```
  0: 0x0268 [0x32] ExtData[1]->MainSpeed = 40* * 0.1
  1: 0x026B [0x1F] MOVE_ENTITY: EventEntity moves to X=167.000*, Z=164.000*, Y=-0.040*
  2: 0x0273 [0x1F] MOVE_ENTITY: Update entity position (mode=1)
  3: 0x0275 [0x00] END_REQSTACK()
```

### Event 65535.34

#### Metadata

| Field        | Value   |
|--------------|---------|
| Entrypoint   | 0x0276  |
| Data Size    | 4 bytes |
| Instructions | 2       |

```
      00 01 02 03 04 05 06 07  08 09 0A 0B 0C 0D 0E 0F
      -- -- -- -- -- -- -- --  -- -- -- -- -- -- -- --
0270:                   39 30  80 00                          90..      
```

#### Opcodes

```
  0: 0x0276 [0x39] SET_ENTITY_DIRECTION(direction=351.6°*)
  1: 0x0279 [0x00] END_REQSTACK()
```

### Event 65535.35

#### Metadata

| Field        | Value    |
|--------------|----------|
| Entrypoint   | 0x027A   |
| Data Size    | 16 bytes |
| Instructions | 2        |

```
      00 01 02 03 04 05 06 07  08 09 0A 0B 0C 0D 0E 0F
      -- -- -- -- -- -- -- --  -- -- -- -- -- -- -- --
0270:                                5B 31 80 64 72 10            [1.dr.
0280: 01 64 72 10 01 63 61 74  30 00                    .dr..cat0.      
```

#### Opcodes

```
  0: 0x027A [0x5B] LOAD_EXT_SCHEDULER: Load scheduler "cat0" with entities [Midras (ID: 17855076/0x01107264), Midras (ID: 17855076/0x01107264)], work=1085*
  1: 0x0289 [0x00] END_REQSTACK()
```

### Event 65535.36

#### Metadata

| Field        | Value    |
|--------------|----------|
| Entrypoint   | 0x028A   |
| Data Size    | 50 bytes |
| Instructions | 12       |

```
      00 01 02 03 04 05 06 07  08 09 0A 0B 0C 0D 0E 0F
      -- -- -- -- -- -- -- --  -- -- -- -- -- -- -- --
0280:                                39 32 80 1C 33 80            92..3.
0290: 32 0C 80 1F 00 34 80 35  80 36 80 1F 01 1F 00 37  2....4.5.6.....7
02A0: 80 38 80 39 80 1F 01 1F  00 3A 80 3B 80 3C 80 1F  .8.9.....:.;.<..
02B0: 01 1F 00 3D 80 3E 80 3F  80 1F 01 00              ...=.>.?....    
```

#### Opcodes

```
  0: 0x028A [0x39] SET_ENTITY_DIRECTION(direction=355.1°*)
  1: 0x028D [0x1C] WAIT(5* ticks)
  2: 0x0290 [0x32] ExtData[1]->MainSpeed = 40* * 0.1
  3: 0x0293 [0x1F] MOVE_ENTITY: EventEntity moves to X=168.450*, Z=167.490*, Y=0.090*
  4: 0x029B [0x1F] MOVE_ENTITY: Update entity position (mode=1)
  5: 0x029D [0x1F] MOVE_ENTITY: EventEntity moves to X=171.380*, Z=175.240*, Y=0.580*
  6: 0x02A5 [0x1F] MOVE_ENTITY: Update entity position (mode=1)
  7: 0x02A7 [0x1F] MOVE_ENTITY: EventEntity moves to X=176.410*, Z=184.100*, Y=1.080*
  8: 0x02AF [0x1F] MOVE_ENTITY: Update entity position (mode=1)
  9: 0x02B1 [0x1F] MOVE_ENTITY: EventEntity moves to X=202.650*, Z=205.880*, Y=0.140*
 10: 0x02B9 [0x1F] MOVE_ENTITY: Update entity position (mode=1)
 11: 0x02BB [0x00] END_REQSTACK()
```
