# 17855033 - Occultist Footprints

## Common Data

| Field            | Value                  |
|------------------|------------------------|
| Zone             | Yorcia Weald (ID: 263) |
| Block Size       | 35712 bytes            |
| Total Events     | 20                     |
| References Count | 873                    |

## List of Events

| Event ID              | Entrypoint   |   Size |   Instructions |
|-----------------------|--------------|--------|----------------|
| [65535](#event-65535) | 0x0000       |      1 |              1 |
| [102](#event-102)     | 0x0001       |   3488 |            396 |
| [103](#event-103)     | 0x0DA1       |    384 |             48 |
| [104](#event-104)     | 0x0F21       |   2054 |            233 |
| [107](#event-107)     | 0x1727       |   2267 |            244 |
| [108](#event-108)     | 0x2002       |    268 |             33 |
| [109](#event-109)     | 0x210E       |   1105 |            123 |
| [111](#event-111)     | 0x255F       |   1166 |            133 |
| [59](#event-59)       | 0x29ED       |   1405 |            167 |
| [116](#event-116)     | 0x2F6A       |   2377 |            268 |
| [117](#event-117)     | 0x38B3       |    274 |             35 |
| [118](#event-118)     | 0x39C5       |   1392 |            160 |
| [119](#event-119)     | 0x3F35       |    256 |             31 |
| [120](#event-120)     | 0x4035       |   4188 |            456 |
| [114](#event-114)     | 0x5091       |   3312 |            400 |
| [115](#event-115)     | 0x5D81       |    272 |             35 |
| [122](#event-122)     | 0x5E91       |   1314 |            153 |
| [123](#event-123)     | 0x63B3       |   2248 |            267 |
| [124](#event-124)     | 0x6C7B       |    256 |             31 |
| [125](#event-125)     | 0x6D7B       |   4097 |            459 |

## DAT References (imed_data)

|   Index | Hex Value   |   Dec Value |
|---------|-------------|-------------|
|       0 | 0x0000      |           0 |
|       1 | 0x0078      |         120 |
|       2 | 0x00C8      |         200 |
|       3 | 0x0013      |          19 |
|       4 | 0x3F63C     |      259644 |
|       5 | 0x5F4FF     |      390399 |
|       6 | 0xFFFFFA63  |  4294965859 |
|       7 | 0x0E00      |        3584 |
|       8 | 0x001E      |          30 |
|       9 | 0x026D      |         621 |
|      10 | 0x0019      |          25 |
|      11 | 0x008C      |         140 |
|      12 | 0x0005      |           5 |
|      13 | 0x0006      |           6 |
|      14 | 0x40DB2     |      265650 |
|      15 | 0x61959     |      399705 |
|      16 | 0xFFFFFC18  |  4294966296 |
|      17 | 0x0E0A      |        3594 |
|      18 | 0x005A      |          90 |
|      19 | 0x0476      |        1142 |
|      20 | 0x0001      |           1 |
|      21 | 0x0002      |           2 |
|      22 | 0x0096      |         150 |
|      23 | 0x0003      |           3 |
|      24 | 0x00A0      |         160 |
|      25 | 0x0004      |           4 |
|      26 | 0x00AA      |         170 |
|      27 | 0x00B4      |         180 |
|      28 | 0x0007      |           7 |
|      29 | 0x00BE      |         190 |
|      30 | 0x0008      |           8 |
|      31 | 0x00C9      |         201 |
|      32 | 0x3EF03     |      257795 |
|      33 | 0x6407E     |      409726 |
|      34 | 0x062D      |        1581 |
|      35 | 0x0475      |        1141 |
|      36 | 0x3F31C     |      258844 |
|      37 | 0x5FCD5     |      392405 |
|      38 | 0xFFFFFCDD  |  4294966493 |
|      39 | 0x0C3F      |        3135 |
|      40 | 0x3EEFB     |      257787 |
|      41 | 0x5FA0A     |      391690 |
|      42 | 0xFFFFFC0C  |  4294966284 |
|      43 | 0x0C9F      |        3231 |
|      44 | 0x3F5E3     |      259555 |
|      45 | 0x5F867     |      391271 |
|      46 | 0xFFFFFB82  |  4294966146 |
|      47 | 0x0CEA      |        3306 |
|      48 | 0x3EBE5     |      256997 |
|      49 | 0x61ED4     |      401108 |
|      50 | 0x0187      |         391 |
|      51 | 0x3AAAC     |      240300 |
|      52 | 0x66D84     |      421252 |
|      53 | 0x01C6      |         454 |
|      54 | 0x0DE0      |        3552 |
|      55 | 0x3A6BE     |      239294 |
|      56 | 0x65A44     |      416324 |
|      57 | 0x011C      |         284 |
|      58 | 0x01BE      |         446 |
|      59 | 0x000E      |          14 |
|      60 | 0x003C      |          60 |
|      61 | 0x000F      |          15 |
|      62 | 0x003D      |          61 |
|      63 | 0x1ED7      |        7895 |
|      64 | 0x001A      |          26 |
|      65 | 0x1ED8      |        7896 |
|      66 | 0x0028      |          40 |
|      67 | 0x1ED9      |        7897 |
|      68 | 0x003B      |          59 |
|      69 | 0x1EDA      |        7898 |
|      70 | 0x0031      |          49 |
|      71 | 0x1EDB      |        7899 |
|      72 | 0x1EDC      |        7900 |
|      73 | 0x0044      |          68 |
|      74 | 0x1EDD      |        7901 |
|      75 | 0x1EDE      |        7902 |
|      76 | 0x1EDF      |        7903 |
|      77 | 0x0016      |          22 |
|      78 | 0x1EE0      |        7904 |
|      79 | 0x0FBF      |        4031 |
|      80 | 0x0FC0      |        4032 |
|      81 | 0x1EE1      |        7905 |
|      82 | 0x1EE2      |        7906 |
|      83 | 0x1EE3      |        7907 |
|      84 | 0x1EE4      |        7908 |
|      85 | 0x1EE5      |        7909 |
|      86 | 0x1EE6      |        7910 |
|      87 | 0x1EE7      |        7911 |
|      88 | 0x1EE8      |        7912 |
|      89 | 0x1EE9      |        7913 |
|      90 | 0x0C6F      |        3183 |
|      91 | 0x3F18B     |      258443 |
|      92 | 0x60DE0     |      396768 |
|      93 | 0x007B      |         123 |
|      94 | 0x0474      |        1140 |
|      95 | 0x3EBC4     |      256964 |
|      96 | 0x60F19     |      397081 |
|      97 | 0x00B5      |         181 |
|      98 | 0x0064      |         100 |
|      99 | 0x1EEA      |        7914 |
|     100 | 0x1EEB      |        7915 |
|     101 | 0x1EEC      |        7916 |
|     102 | 0x1EED      |        7917 |
|     103 | 0x1EEE      |        7918 |
|     104 | 0x0108      |         264 |
|     105 | 0x1EEF      |        7919 |
|     106 | 0x0024      |          36 |
|     107 | 0x1EF0      |        7920 |
|     108 | 0x0050      |          80 |
|     109 | 0x0015      |          21 |
|     110 | 0x1EF1      |        7921 |
|     111 | 0x0009      |           9 |
|     112 | 0x1EF2      |        7922 |
|     113 | 0x1EF3      |        7923 |
|     114 | 0x1EF4      |        7924 |
|     115 | 0x1EF5      |        7925 |
|     116 | 0x1EF6      |        7926 |
|     117 | 0x1EF7      |        7927 |
|     118 | 0x1EF8      |        7928 |
|     119 | 0x0095      |         149 |
|     120 | 0x1EF9      |        7929 |
|     121 | 0x1EFA      |        7930 |
|     122 | 0x3E02A     |      253994 |
|     123 | 0x5E374     |      385908 |
|     124 | 0xFFFFF6E5  |  4294964965 |
|     125 | 0x0381      |         897 |
|     126 | 0x3EFB5     |      257973 |
|     127 | 0x5F83E     |      391230 |
|     128 | 0xFFFFFB72  |  4294966130 |
|     129 | 0x0522      |        1314 |
|     130 | 0x1EFB      |        7931 |
|     131 | 0x1EFC      |        7932 |
|     132 | 0x1EFD      |        7933 |
|     133 | 0x3F307     |      258823 |
|     134 | 0x5DAF4     |      383732 |
|     135 | 0xFFFFF5C3  |  4294964675 |
|     136 | 0x0934      |        2356 |
|     137 | 0x3F0E6     |      258278 |
|     138 | 0x5D6CD     |      382669 |
|     139 | 0xFFFFF5CE  |  4294964686 |
|     140 | 0x3F517     |      259351 |
|     141 | 0x5DBBA     |      383930 |
|     142 | 0xFFFFF5C6  |  4294964678 |
|     143 | 0x1EFE      |        7934 |
|     144 | 0x1EFF      |        7935 |
|     145 | 0x1F00      |        7936 |
|     146 | 0x1F01      |        7937 |
|     147 | 0x0014      |          20 |
|     148 | 0x3E024     |      253988 |
|     149 | 0x5E366     |      385894 |
|     150 | 0xFFFFF6E4  |  4294964964 |
|     151 | 0x01AA      |         426 |
|     152 | 0x0BC2      |        3010 |
|     153 | 0x001D      |          29 |
|     154 | 0x3D475     |      250997 |
|     155 | 0x5F7F9     |      391161 |
|     156 | 0xFFFFFB22  |  4294966050 |
|     157 | 0x0BAD      |        2989 |
|     158 | 0x3D030     |      249904 |
|     159 | 0x5F6CD     |      390861 |
|     160 | 0xFFFFFA99  |  4294965913 |
|     161 | 0x3D92F     |      252207 |
|     162 | 0x5F503     |      390403 |
|     163 | 0xFFFFFA75  |  4294965877 |
|     164 | 0x1F02      |        7938 |
|     165 | 0x1F03      |        7939 |
|     166 | 0x1F04      |        7940 |
|     167 | 0x1F05      |        7941 |
|     168 | 0x002D      |          45 |
|     169 | 0x1F06      |        7942 |
|     170 | 0x052F      |        1327 |
|     171 | 0x1F07      |        7943 |
|     172 | 0x1F08      |        7944 |
|     173 | 0x1F09      |        7945 |
|     174 | 0x3CE27     |      249383 |
|     175 | 0x60254     |      393812 |
|     176 | 0xFFFFFD48  |  4294966600 |
|     177 | 0x02DD      |         733 |
|     178 | 0x1F0A      |        7946 |
|     179 | 0x1F0B      |        7947 |
|     180 | 0x000A      |          10 |
|     181 | 0x1F0C      |        7948 |
|     182 | 0x1F0D      |        7949 |
|     183 | 0x1F0E      |        7950 |
|     184 | 0x0047      |          71 |
|     185 | 0x1F0F      |        7951 |
|     186 | 0x3EF94     |      257940 |
|     187 | 0x60076     |      393334 |
|     188 | 0xFFFFFDAC  |  4294966700 |
|     189 | 0x0C5D      |        3165 |
|     190 | 0x3F506     |      259334 |
|     191 | 0x5FEE0     |      392928 |
|     192 | 0xFFFFFD51  |  4294966609 |
|     193 | 0x0BFA      |        3066 |
|     194 | 0x3ED29     |      257321 |
|     195 | 0x61346     |      398150 |
|     196 | 0x0192      |         402 |
|     197 | 0x0E37      |        3639 |
|     198 | 0x40976     |      264566 |
|     199 | 0x62A60     |      404064 |
|     200 | 0x0222      |         546 |
|     201 | 0x0601      |        1537 |
|     202 | 0x405E9     |      263657 |
|     203 | 0x61AAE     |      400046 |
|     204 | 0x016F      |         367 |
|     205 | 0x0275      |         629 |
|     206 | 0x1F10      |        7952 |
|     207 | 0x00B0      |         176 |
|     208 | 0x1F11      |        7953 |
|     209 | 0x002A      |          42 |
|     210 | 0x1F12      |        7954 |
|     211 | 0x1F13      |        7955 |
|     212 | 0x3F286     |      258694 |
|     213 | 0x61EB0     |      401072 |
|     214 | 0x01C4      |         452 |
|     215 | 0x03AC      |         940 |
|     216 | 0x1F14      |        7956 |
|     217 | 0x1F15      |        7957 |
|     218 | 0x1F16      |        7958 |
|     219 | 0x1F17      |        7959 |
|     220 | 0x1F18      |        7960 |
|     221 | 0x1F19      |        7961 |
|     222 | 0x1F1A      |        7962 |
|     223 | 0x1F1B      |        7963 |
|     224 | 0x1F1C      |        7964 |
|     225 | 0x1F1D      |        7965 |
|     226 | 0x1F1E      |        7966 |
|     227 | 0x1F1F      |        7967 |
|     228 | 0x1F20      |        7968 |
|     229 | 0x1F21      |        7969 |
|     230 | 0x1F22      |        7970 |
|     231 | 0x1F23      |        7971 |
|     232 | 0x1F24      |        7972 |
|     233 | 0x1F25      |        7973 |
|     234 | 0x1F26      |        7974 |
|     235 | 0x1F27      |        7975 |
|     236 | 0x1F28      |        7976 |
|     237 | 0x1F29      |        7977 |
|     238 | 0x1F2A      |        7978 |
|     239 | 0x1F2B      |        7979 |
|     240 | 0x1F2C      |        7980 |
|     241 | 0x1F2D      |        7981 |
|     242 | 0x3EC90     |      257168 |
|     243 | 0x61536     |      398646 |
|     244 | 0x018D      |         397 |
|     245 | 0x043F      |        1087 |
|     246 | 0x1F2E      |        7982 |
|     247 | 0x1F2F      |        7983 |
|     248 | 0x1F30      |        7984 |
|     249 | 0x1F31      |        7985 |
|     250 | 0x1F32      |        7986 |
|     251 | 0x3EC89     |      257161 |
|     252 | 0x61539     |      398649 |
|     253 | 0x3F431     |      259121 |
|     254 | 0x607E8     |      395240 |
|     255 | 0xFFFFFF53  |  4294967123 |
|     256 | 0x0E42      |        3650 |
|     257 | 0x1F33      |        7987 |
|     258 | 0x5891C     |      362780 |
|     259 | 0x246A9     |      149161 |
|     260 | 0x00D5      |         213 |
|     261 | 0x58BAD     |      363437 |
|     262 | 0x23D0D     |      146701 |
|     263 | 0x0166      |         358 |
|     264 | 0x0EFB      |        3835 |
|     265 | 0x0276      |         630 |
|     266 | 0x1F34      |        7988 |
|     267 | 0x1F35      |        7989 |
|     268 | 0x086D      |        2157 |
|     269 | 0x1F36      |        7990 |
|     270 | 0x1F37      |        7991 |
|     271 | 0x1F38      |        7992 |
|     272 | 0x1F39      |        7993 |
|     273 | 0x1F3A      |        7994 |
|     274 | 0x1F3B      |        7995 |
|     275 | 0x1F3C      |        7996 |
|     276 | 0x1F3D      |        7997 |
|     277 | 0x1F3E      |        7998 |
|     278 | 0x1F3F      |        7999 |
|     279 | 0x1F40      |        8000 |
|     280 | 0x1F41      |        8001 |
|     281 | 0x1F42      |        8002 |
|     282 | 0x1F43      |        8003 |
|     283 | 0x1F46      |        8006 |
|     284 | 0x1F47      |        8007 |
|     285 | 0x1F48      |        8008 |
|     286 | 0x1F49      |        8009 |
|     287 | 0x1F4A      |        8010 |
|     288 | 0x1F4B      |        8011 |
|     289 | 0x1F4C      |        8012 |
|     290 | 0x1F4D      |        8013 |
|     291 | 0x1F4E      |        8014 |
|     292 | 0x1F4F      |        8015 |
|     293 | 0x1F50      |        8016 |
|     294 | 0x1F51      |        8017 |
|     295 | 0x1F52      |        8018 |
|     296 | 0x1F53      |        8019 |
|     297 | 0x1F54      |        8020 |
|     298 | 0x1F55      |        8021 |
|     299 | 0x1F56      |        8022 |
|     300 | 0x1F57      |        8023 |
|     301 | 0x58ECC     |      364236 |
|     302 | 0x23CE2     |      146658 |
|     303 | 0x0110      |         272 |
|     304 | 0x0D0C      |        3340 |
|     305 | 0x562B2     |      352946 |
|     306 | 0x23462     |      144482 |
|     307 | 0x04C0      |        1216 |
|     308 | 0x0F59      |        3929 |
|     309 | 0x58C42     |      363586 |
|     310 | 0x2489D     |      149661 |
|     311 | 0x00DB      |         219 |
|     312 | 0x050A      |        1290 |
|     313 | 0x5730F     |      357135 |
|     314 | 0x24908     |      149768 |
|     315 | 0x0135      |         309 |
|     316 | 0x00DD      |         221 |
|     317 | 0x0278      |         632 |
|     318 | 0x1F59      |        8025 |
|     319 | 0x1F5A      |        8026 |
|     320 | 0x1F5B      |        8027 |
|     321 | 0x1F5C      |        8028 |
|     322 | 0x1F5D      |        8029 |
|     323 | 0x1F5E      |        8030 |
|     324 | 0x1F5F      |        8031 |
|     325 | 0x1F60      |        8032 |
|     326 | 0x1F61      |        8033 |
|     327 | 0x0045      |          69 |
|     328 | 0x1F62      |        8034 |
|     329 | 0x1F63      |        8035 |
|     330 | 0x1F64      |        8036 |
|     331 | 0x1F65      |        8037 |
|     332 | 0x1F66      |        8038 |
|     333 | 0x1F67      |        8039 |
|     334 | 0x1F68      |        8040 |
|     335 | 0x1F69      |        8041 |
|     336 | 0x1F6A      |        8042 |
|     337 | 0x1F6B      |        8043 |
|     338 | 0x1F6C      |        8044 |
|     339 | 0x4384B     |      276555 |
|     340 | 0x4EF4      |       20212 |
|     341 | 0x00EB      |         235 |
|     342 | 0x07B1      |        1969 |
|     343 | 0x44953     |      280915 |
|     344 | 0x4E81      |       20097 |
|     345 | 0x00F2      |         242 |
|     346 | 0x07F9      |        2041 |
|     347 | 0x40FFB     |      266235 |
|     348 | 0x4807      |       18439 |
|     349 | 0x0AC4      |        2756 |
|     350 | 0x0F25      |        3877 |
|     351 | 0x02E5      |         741 |
|     352 | 0x1F6F      |        8047 |
|     353 | 0x1F70      |        8048 |
|     354 | 0x1F71      |        8049 |
|     355 | 0x1F72      |        8050 |
|     356 | 0x1F73      |        8051 |
|     357 | 0x1F74      |        8052 |
|     358 | 0x1F75      |        8053 |
|     359 | 0x1F76      |        8054 |
|     360 | 0x1F77      |        8055 |
|     361 | 0x1F78      |        8056 |
|     362 | 0x1F79      |        8057 |
|     363 | 0x1F7A      |        8058 |
|     364 | 0x1F7B      |        8059 |
|     365 | 0x1F7C      |        8060 |
|     366 | 0x1F7D      |        8061 |
|     367 | 0x1F7E      |        8062 |
|     368 | 0x1F7F      |        8063 |
|     369 | 0x1F80      |        8064 |
|     370 | 0x1F81      |        8065 |
|     371 | 0x1F82      |        8066 |
|     372 | 0x1F83      |        8067 |
|     373 | 0x1F84      |        8068 |
|     374 | 0x1F85      |        8069 |
|     375 | 0x1F86      |        8070 |
|     376 | 0x41CDF     |      269535 |
|     377 | 0x4BEA      |       19434 |
|     378 | 0x06C5      |        1733 |
|     379 | 0x0040      |          64 |
|     380 | 0x1F87      |        8071 |
|     381 | 0x1F88      |        8072 |
|     382 | 0x1F89      |        8073 |
|     383 | 0x1F8A      |        8074 |
|     384 | 0x1F8B      |        8075 |
|     385 | 0x1F8C      |        8076 |
|     386 | 0x1F8D      |        8077 |
|     387 | 0x1F8E      |        8078 |
|     388 | 0x1F8F      |        8079 |
|     389 | 0x1F90      |        8080 |
|     390 | 0x1F91      |        8081 |
|     391 | 0x103A      |        4154 |
|     392 | 0x1F92      |        8082 |
|     393 | 0x0097      |         151 |
|     394 | 0x1F93      |        8083 |
|     395 | 0x1F94      |        8084 |
|     396 | 0x1F95      |        8085 |
|     397 | 0x000C      |          12 |
|     398 | 0x1F96      |        8086 |
|     399 | 0x1F97      |        8087 |
|     400 | 0x42658     |      271960 |
|     401 | 0x4E4D      |       20045 |
|     402 | 0x03D8      |         984 |
|     403 | 0x083C      |        2108 |
|     404 | 0x1F98      |        8088 |
|     405 | 0x289B4     |      166324 |
|     406 | 0xA5F2      |       42482 |
|     407 | 0xFFFFFF6E  |  4294967150 |
|     408 | 0x0A77      |        2679 |
|     409 | 0x26561     |      157025 |
|     410 | 0xA784      |       42884 |
|     411 | 0x0F76      |        3958 |
|     412 | 0x27DFE     |      163326 |
|     413 | 0x9C49      |       40009 |
|     414 | 0x29700     |      169728 |
|     415 | 0x8856      |       34902 |
|     416 | 0xFFFFFED3  |  4294966995 |
|     417 | 0x098F      |        2447 |
|     418 | 0x2714F     |      160079 |
|     419 | 0xC5E6      |       50662 |
|     420 | 0x0145      |         325 |
|     421 | 0x02A7      |         679 |
|     422 | 0x1F99      |        8089 |
|     423 | 0x1F9A      |        8090 |
|     424 | 0x1F9B      |        8091 |
|     425 | 0x1F9C      |        8092 |
|     426 | 0x2853F     |      165183 |
|     427 | 0xABA9      |       43945 |
|     428 | 0xFFFFFFF9  |  4294967289 |
|     429 | 0x0216      |         534 |
|     430 | 0x1F9D      |        8093 |
|     431 | 0x1F9E      |        8094 |
|     432 | 0x1F9F      |        8095 |
|     433 | 0x1FA0      |        8096 |
|     434 | 0x1FA1      |        8097 |
|     435 | 0x1FA2      |        8098 |
|     436 | 0x1FA3      |        8099 |
|     437 | 0x1FA4      |        8100 |
|     438 | 0x1FA5      |        8101 |
|     439 | 0x1FA6      |        8102 |
|     440 | 0x1FA7      |        8103 |
|     441 | 0x284F8     |      165112 |
|     442 | 0xA9AE      |       43438 |
|     443 | 0xFFFFFFBA  |  4294967226 |
|     444 | 0x029C      |         668 |
|     445 | 0x1FA8      |        8104 |
|     446 | 0xFFFF18A8  |  4294908072 |
|     447 | 0xFFFE4A68  |  4294855272 |
|     448 | 0x0A32      |        2610 |
|     449 | 0x0A75      |        2677 |
|     450 | 0xFFFF1A75  |  4294908533 |
|     451 | 0xFFFE4D3D  |  4294855997 |
|     452 | 0x0A4E      |        2638 |
|     453 | 0x04CF      |        1231 |
|     454 | 0xFFFF2230  |  4294910512 |
|     455 | 0xFFFE234B  |  4294845259 |
|     456 | 0x017F      |         383 |
|     457 | 0x0AFB      |        2811 |
|     458 | 0xFFFF3DD9  |  4294917593 |
|     459 | 0xFFFE6C97  |  4294864023 |
|     460 | 0x0868      |        2152 |
|     461 | 0x063E      |        1598 |
|     462 | 0xFFFF0453  |  4294902867 |
|     463 | 0xFFFE5FEA  |  4294860778 |
|     464 | 0x0C1F      |        3103 |
|     465 | 0x011B      |         283 |
|     466 | 0xFFFF1BDC  |  4294908892 |
|     467 | 0xFFFE2742  |  4294846274 |
|     468 | 0x01B9      |         441 |
|     469 | 0x0B79      |        2937 |
|     470 | 0xFFFF26BC  |  4294911676 |
|     471 | 0xFFFE4913  |  4294854931 |
|     472 | 0x0812      |        2066 |
|     473 | 0x090C      |        2316 |
|     474 | 0x0F0A      |        3850 |
|     475 | 0x02E9      |         745 |
|     476 | 0x1FA9      |        8105 |
|     477 | 0x1FAA      |        8106 |
|     478 | 0x0039      |          57 |
|     479 | 0x1FAB      |        8107 |
|     480 | 0x1FAC      |        8108 |
|     481 | 0x1FAD      |        8109 |
|     482 | 0x0046      |          70 |
|     483 | 0x1FAE      |        8110 |
|     484 | 0x1FAF      |        8111 |
|     485 | 0x1FB0      |        8112 |
|     486 | 0x1FB1      |        8113 |
|     487 | 0x00A1      |         161 |
|     488 | 0x1FB2      |        8114 |
|     489 | 0x1FB3      |        8115 |
|     490 | 0x0092      |         146 |
|     491 | 0x1FB4      |        8116 |
|     492 | 0x1FB5      |        8117 |
|     493 | 0x005E      |          94 |
|     494 | 0x1FB6      |        8118 |
|     495 | 0x0B5E      |        2910 |
|     496 | 0x1FB7      |        8119 |
|     497 | 0x1FB8      |        8120 |
|     498 | 0x1FB9      |        8121 |
|     499 | 0x1FBA      |        8122 |
|     500 | 0x1FBB      |        8123 |
|     501 | 0x2693E     |      158014 |
|     502 | 0x80E9      |       33001 |
|     503 | 0xFFFFFF43  |  4294967107 |
|     504 | 0x0478      |        1144 |
|     505 | 0x26539     |      156985 |
|     506 | 0x70EC      |       28908 |
|     507 | 0xFFFFFA23  |  4294965795 |
|     508 | 0x0CB7      |        3255 |
|     509 | 0x08CA      |        2250 |
|     510 | 0x00D7      |         215 |
|     511 | 0x1FBC      |        8124 |
|     512 | 0x1FBD      |        8125 |
|     513 | 0x1FBE      |        8126 |
|     514 | 0x29664     |      169572 |
|     515 | 0x85BA      |       34234 |
|     516 | 0xFFFFFF3E  |  4294967102 |
|     517 | 0x0B18      |        2840 |
|     518 | 0x27793     |      161683 |
|     519 | 0xB2B7      |       45751 |
|     520 | 0x0056      |          86 |
|     521 | 0x0312      |         786 |
|     522 | 0x1FBF      |        8127 |
|     523 | 0xFFFF1918  |  4294908184 |
|     524 | 0xFFFE41EB  |  4294853099 |
|     525 | 0x0818      |        2072 |
|     526 | 0x0DA4      |        3492 |
|     527 | 0x1FC0      |        8128 |
|     528 | 0x1FC1      |        8129 |
|     529 | 0x1FC2      |        8130 |
|     530 | 0x1FC3      |        8131 |
|     531 | 0x1FC4      |        8132 |
|     532 | 0x1FC5      |        8133 |
|     533 | 0x1FC6      |        8134 |
|     534 | 0x1FC7      |        8135 |
|     535 | 0x1FC8      |        8136 |
|     536 | 0x1FC9      |        8137 |
|     537 | 0x1FCA      |        8138 |
|     538 | 0x1FCB      |        8139 |
|     539 | 0x1FCC      |        8140 |
|     540 | 0x1FCD      |        8141 |
|     541 | 0x1FCE      |        8142 |
|     542 | 0x1FCF      |        8143 |
|     543 | 0x1FD0      |        8144 |
|     544 | 0x1FD1      |        8145 |
|     545 | 0x1FD2      |        8146 |
|     546 | 0x1FD3      |        8147 |
|     547 | 0xFFFF0654  |  4294903380 |
|     548 | 0xFFFE5B00  |  4294859520 |
|     549 | 0x0B8C      |        2956 |
|     550 | 0x017E      |         382 |
|     551 | 0x1FD4      |        8148 |
|     552 | 0x1FD5      |        8149 |
|     553 | 0x0051      |          81 |
|     554 | 0x1FD6      |        8150 |
|     555 | 0x1FD7      |        8151 |
|     556 | 0x3F5AE     |      259502 |
|     557 | 0x61407     |      398343 |
|     558 | 0x01E1      |         481 |
|     559 | 0x0593      |        1427 |
|     560 | 0x3F7F6     |      260086 |
|     561 | 0x6200C     |      401420 |
|     562 | 0x020D      |         525 |
|     563 | 0x0841      |        2113 |
|     564 | 0x4053A     |      263482 |
|     565 | 0x635D4     |      406996 |
|     566 | 0x030D      |         781 |
|     567 | 0x0EC9      |        3785 |
|     568 | 0x3EF66     |      257894 |
|     569 | 0x62870     |      403568 |
|     570 | 0x01FD      |         509 |
|     571 | 0x0600      |        1536 |
|     572 | 0x40A52     |      264786 |
|     573 | 0x6194A     |      399690 |
|     574 | 0x011A      |         282 |
|     575 | 0x0A21      |        2593 |
|     576 | 0x3FE45     |      261701 |
|     577 | 0x60168     |      393576 |
|     578 | 0xFFFFFDDA  |  4294966746 |
|     579 | 0x0313      |         787 |
|     580 | 0x3EFED     |      258029 |
|     581 | 0x60065     |      393317 |
|     582 | 0xFFFFFDA7  |  4294966695 |
|     583 | 0x0972      |        2418 |
|     584 | 0x407B0     |      264112 |
|     585 | 0x60FA3     |      397219 |
|     586 | 0x00CB      |         203 |
|     587 | 0x09E1      |        2529 |
|     588 | 0x5F7ED     |      391149 |
|     589 | 0xFFFFFB60  |  4294966112 |
|     590 | 0x0B91      |        2961 |
|     591 | 0x3FF02     |      261890 |
|     592 | 0x5F7F0     |      391152 |
|     593 | 0xFFFFFB53  |  4294966099 |
|     594 | 0x3D983     |      252291 |
|     595 | 0x60C39     |      396345 |
|     596 | 0xFFFFFEEF  |  4294967023 |
|     597 | 0x3D3BC     |      250812 |
|     598 | 0x60A4F     |      395855 |
|     599 | 0xFFFFFEB2  |  4294966962 |
|     600 | 0x3D010     |      249872 |
|     601 | 0x607D1     |      395217 |
|     602 | 0xFFFFFE5E  |  4294966878 |
|     603 | 0x3E196     |      254358 |
|     604 | 0x6168E     |      398990 |
|     605 | 0x00CE      |         206 |
|     606 | 0x0089      |         137 |
|     607 | 0x02E7      |         743 |
|     608 | 0x0020      |          32 |
|     609 | 0x1FD8      |        8152 |
|     610 | 0x1FD9      |        8153 |
|     611 | 0x1FDA      |        8154 |
|     612 | 0x1FDB      |        8155 |
|     613 | 0x0CBA      |        3258 |
|     614 | 0x1FDC      |        8156 |
|     615 | 0x1FDD      |        8157 |
|     616 | 0x3F2F4     |      258804 |
|     617 | 0x61367     |      398183 |
|     618 | 0x01C8      |         456 |
|     619 | 0x3FC6D     |      261229 |
|     620 | 0x619BB     |      399803 |
|     621 | 0x01C7      |         455 |
|     622 | 0x1FDE      |        8158 |
|     623 | 0x1FDF      |        8159 |
|     624 | 0x1FE0      |        8160 |
|     625 | 0x1FE1      |        8161 |
|     626 | 0x1FE2      |        8162 |
|     627 | 0x1FE3      |        8163 |
|     628 | 0x1FE4      |        8164 |
|     629 | 0x0D21      |        3361 |
|     630 | 0x0D57      |        3415 |
|     631 | 0x1FE5      |        8165 |
|     632 | 0x1FE6      |        8166 |
|     633 | 0x1FE7      |        8167 |
|     634 | 0x1FE8      |        8168 |
|     635 | 0x1FE9      |        8169 |
|     636 | 0x1FEA      |        8170 |
|     637 | 0x1FEB      |        8171 |
|     638 | 0x1FEC      |        8172 |
|     639 | 0x1FED      |        8173 |
|     640 | 0x1FEE      |        8174 |
|     641 | 0x1FEF      |        8175 |
|     642 | 0x1FF0      |        8176 |
|     643 | 0x1FF1      |        8177 |
|     644 | 0x1FF2      |        8178 |
|     645 | 0x6152F     |      398639 |
|     646 | 0x07A1      |        1953 |
|     647 | 0x1FF3      |        8179 |
|     648 | 0x1FF4      |        8180 |
|     649 | 0x1FF5      |        8181 |
|     650 | 0x1FF6      |        8182 |
|     651 | 0x1FF7      |        8183 |
|     652 | 0x1FF8      |        8184 |
|     653 | 0x1FF9      |        8185 |
|     654 | 0x1FFA      |        8186 |
|     655 | 0x0A25      |        2597 |
|     656 | 0x1FFB      |        8187 |
|     657 | 0x1FFC      |        8188 |
|     658 | 0x1FFD      |        8189 |
|     659 | 0x1FFE      |        8190 |
|     660 | 0x1FFF      |        8191 |
|     661 | 0x27115     |      160021 |
|     662 | 0xA989      |       43401 |
|     663 | 0x02DF      |         735 |
|     664 | 0x276A1     |      161441 |
|     665 | 0x92DB      |       37595 |
|     666 | 0x014C      |         332 |
|     667 | 0x28596     |      165270 |
|     668 | 0x9269      |       37481 |
|     669 | 0xFFFFFFB9  |  4294967225 |
|     670 | 0x0198      |         408 |
|     671 | 0x2518B     |      151947 |
|     672 | 0xA4DF      |       42207 |
|     673 | 0x27647     |      161351 |
|     674 | 0xA7E4      |       42980 |
|     675 | 0x024F      |         591 |
|     676 | 0x269D1     |      158161 |
|     677 | 0x8DCF      |       36303 |
|     678 | 0x0F3F      |        3903 |
|     679 | 0x02F7      |         759 |
|     680 | 0x2000      |        8192 |
|     681 | 0x2001      |        8193 |
|     682 | 0x2002      |        8194 |
|     683 | 0x2003      |        8195 |
|     684 | 0x2004      |        8196 |
|     685 | 0x2005      |        8197 |
|     686 | 0x2006      |        8198 |
|     687 | 0x2007      |        8199 |
|     688 | 0x2008      |        8200 |
|     689 | 0x2009      |        8201 |
|     690 | 0x200A      |        8202 |
|     691 | 0x200B      |        8203 |
|     692 | 0x200C      |        8204 |
|     693 | 0x200D      |        8205 |
|     694 | 0x28353     |      164691 |
|     695 | 0xACDC      |       44252 |
|     696 | 0x0183      |         387 |
|     697 | 0x27B99     |      162713 |
|     698 | 0x9927      |       39207 |
|     699 | 0x0185      |         389 |
|     700 | 0x0950      |        2384 |
|     701 | 0x281F0     |      164336 |
|     702 | 0xA353      |       41811 |
|     703 | 0xFFFFFFEA  |  4294967274 |
|     704 | 0x01E2      |         482 |
|     705 | 0x200E      |        8206 |
|     706 | 0x200F      |        8207 |
|     707 | 0x2010      |        8208 |
|     708 | 0x2011      |        8209 |
|     709 | 0x2012      |        8210 |
|     710 | 0x2013      |        8211 |
|     711 | 0x2014      |        8212 |
|     712 | 0x2015      |        8213 |
|     713 | 0x2016      |        8214 |
|     714 | 0x2017      |        8215 |
|     715 | 0x2018      |        8216 |
|     716 | 0x2019      |        8217 |
|     717 | 0x201A      |        8218 |
|     718 | 0x201B      |        8219 |
|     719 | 0x201C      |        8220 |
|     720 | 0x201D      |        8221 |
|     721 | 0x201E      |        8222 |
|     722 | 0x201F      |        8223 |
|     723 | 0x2020      |        8224 |
|     724 | 0x287FF     |      165887 |
|     725 | 0xB216      |       45590 |
|     726 | 0x0041      |          65 |
|     727 | 0x045D      |        1117 |
|     728 | 0x2021      |        8225 |
|     729 | 0x00D2      |         210 |
|     730 | 0x2022      |        8226 |
|     731 | 0x2023      |        8227 |
|     732 | 0x2024      |        8228 |
|     733 | 0x2025      |        8229 |
|     734 | 0x2026      |        8230 |
|     735 | 0x2027      |        8231 |
|     736 | 0x2028      |        8232 |
|     737 | 0x2029      |        8233 |
|     738 | 0x202A      |        8234 |
|     739 | 0x202B      |        8235 |
|     740 | 0x202C      |        8236 |
|     741 | 0x202D      |        8237 |
|     742 | 0x28368     |      164712 |
|     743 | 0x9A56      |       39510 |
|     744 | 0xFFFFFFD4  |  4294967252 |
|     745 | 0x202E      |        8238 |
|     746 | 0x202F      |        8239 |
|     747 | 0x2030      |        8240 |
|     748 | 0x2031      |        8241 |
|     749 | 0x2032      |        8242 |
|     750 | 0x2033      |        8243 |
|     751 | 0x2034      |        8244 |
|     752 | 0x2035      |        8245 |
|     753 | 0x2036      |        8246 |
|     754 | 0x2037      |        8247 |
|     755 | 0x289B5     |      166325 |
|     756 | 0xA0C1      |       41153 |
|     757 | 0x28367     |      164711 |
|     758 | 0x0B97      |        2967 |
|     759 | 0xFFFD9347  |  4294808391 |
|     760 | 0x609E3     |      395747 |
|     761 | 0xFFFFFFF3  |  4294967283 |
|     762 | 0x05D5      |        1493 |
|     763 | 0xFFFD9098  |  4294807704 |
|     764 | 0x61096     |      397462 |
|     765 | 0xFFFD6FC9  |  4294799305 |
|     766 | 0x5FD1A     |      392474 |
|     767 | 0x02BD      |         701 |
|     768 | 0x0104      |         260 |
|     769 | 0xFFFD79F1  |  4294801905 |
|     770 | 0x5F88B     |      391307 |
|     771 | 0x037E      |         894 |
|     772 | 0x0994      |        2452 |
|     773 | 0xFFFD66D9  |  4294797017 |
|     774 | 0x5FB6C     |      392044 |
|     775 | 0x037D      |         893 |
|     776 | 0x0119      |         281 |
|     777 | 0xFFFD6F97  |  4294799255 |
|     778 | 0x604A6     |      394406 |
|     779 | 0x0117      |         279 |
|     780 | 0x2038      |        8248 |
|     781 | 0x2039      |        8249 |
|     782 | 0x203A      |        8250 |
|     783 | 0x203B      |        8251 |
|     784 | 0x203C      |        8252 |
|     785 | 0x0ED7      |        3799 |
|     786 | 0x203D      |        8253 |
|     787 | 0x203E      |        8254 |
|     788 | 0x203F      |        8255 |
|     789 | 0x2040      |        8256 |
|     790 | 0x2041      |        8257 |
|     791 | 0x2042      |        8258 |
|     792 | 0x2043      |        8259 |
|     793 | 0x2044      |        8260 |
|     794 | 0x2045      |        8261 |
|     795 | 0x2046      |        8262 |
|     796 | 0x2047      |        8263 |
|     797 | 0x2048      |        8264 |
|     798 | 0x2049      |        8265 |
|     799 | 0x204A      |        8266 |
|     800 | 0x204B      |        8267 |
|     801 | 0x204C      |        8268 |
|     802 | 0x204D      |        8269 |
|     803 | 0x204E      |        8270 |
|     804 | 0x204F      |        8271 |
|     805 | 0x2050      |        8272 |
|     806 | 0x2051      |        8273 |
|     807 | 0x2052      |        8274 |
|     808 | 0x2053      |        8275 |
|     809 | 0x2054      |        8276 |
|     810 | 0x2055      |        8277 |
|     811 | 0x2056      |        8278 |
|     812 | 0x2057      |        8279 |
|     813 | 0xFFFD677B  |  4294797179 |
|     814 | 0x60628     |      394792 |
|     815 | 0x012B      |         299 |
|     816 | 0x2058      |        8280 |
|     817 | 0x2059      |        8281 |
|     818 | 0x205A      |        8282 |
|     819 | 0x205B      |        8283 |
|     820 | 0x205C      |        8284 |
|     821 | 0x205D      |        8285 |
|     822 | 0x205E      |        8286 |
|     823 | 0x205F      |        8287 |
|     824 | 0x2060      |        8288 |
|     825 | 0x00A6      |         166 |
|     826 | 0x2061      |        8289 |
|     827 | 0x2062      |        8290 |
|     828 | 0x2063      |        8291 |
|     829 | 0xFFFD7C24  |  4294802468 |
|     830 | 0x5F74B     |      390987 |
|     831 | 0x09C0      |        2496 |
|     832 | 0xFFFD75F9  |  4294800889 |
|     833 | 0x60294     |      393876 |
|     834 | 0xFFFD72D5  |  4294800085 |
|     835 | 0x5F47B     |      390267 |
|     836 | 0x0322      |         802 |
|     837 | 0x2064      |        8292 |
|     838 | 0x2065      |        8293 |
|     839 | 0x2066      |        8294 |
|     840 | 0x2067      |        8295 |
|     841 | 0x2068      |        8296 |
|     842 | 0x2069      |        8297 |
|     843 | 0x0032      |          50 |
|     844 | 0x206A      |        8298 |
|     845 | 0x206B      |        8299 |
|     846 | 0x206C      |        8300 |
|     847 | 0x206D      |        8301 |
|     848 | 0x206E      |        8302 |
|     849 | 0x206F      |        8303 |
|     850 | 0x2070      |        8304 |
|     851 | 0x2071      |        8305 |
|     852 | 0x2072      |        8306 |
|     853 | 0x2073      |        8307 |
|     854 | 0x2074      |        8308 |
|     855 | 0x2075      |        8309 |
|     856 | 0x2076      |        8310 |
|     857 | 0x2077      |        8311 |
|     858 | 0x2078      |        8312 |
|     859 | 0x2079      |        8313 |
|     860 | 0xFFFD73A7  |  4294800295 |
|     861 | 0x606D9     |      394969 |
|     862 | 0x0379      |         889 |
|     863 | 0x03A5      |         933 |
|     864 | 0x207A      |        8314 |
|     865 | 0x207B      |        8315 |
|     866 | 0x207C      |        8316 |
|     867 | 0x207D      |        8317 |
|     868 | 0x207E      |        8318 |
|     869 | 0x207F      |        8319 |
|     870 | 0x2080      |        8320 |
|     871 | 0x2081      |        8321 |
|     872 | 0x2082      |        8322 |

## String References

- **7902**: Well, do you? [Of course!/I'm not afraid of you.]
- **7911**: What do you say? [Yes, ma'am! I'll help!/Get your largesse outta my face!]
- **8228**: What do you say? [Pretty much./I don't think so./There's something odd about it...]

## Events

### Event 65535

#### Metadata

| Field        | Value   |
|--------------|---------|
| Entrypoint   | 0x0000  |
| Data Size    | 1 bytes |
| Instructions | 1       |

```
      00 01 02 03 04 05 06 07  08 09 0A 0B 0C 0D 0E 0F
      -- -- -- -- -- -- -- --  -- -- -- -- -- -- -- --
0000: 00                                                .               
```

#### Opcodes

```
  0: 0x0000 [0x00] END_REQSTACK()
```

### Event 102

#### Metadata

| Field        | Value      |
|--------------|------------|
| Entrypoint   | 0x0001     |
| Data Size    | 3488 bytes |
| Instructions | 395        |

```
      00 01 02 03 04 05 06 07  08 09 0A 0B 0C 0D 0E 0F
      -- -- -- -- -- -- -- --  -- -- -- -- -- -- -- --
0000:    42 5D 00 80 01 80 45  02 80 F8 FF FF 7F F8 FF   B]....E........
0010: FF 7F 66 64 6F 31 00 80  55 02 80 F8 FF FF 7F F8  ..fdo1..U.......
0020: FF FF 7F 66 64 6F 31 46  01 38 03 80 94 01 F0 FF  ...fdo1F.8......
0030: FF 7F 33 01 BA F0 FF FF  7F 04 80 05 80 06 80 07  ..3.............
0040: 80 80 F0 FF FF 7F 5C 00  00 80 5C 01 00 80 9A 27  ......\...\....'
0050: 05 F0 FF FF 7F 08 1C 08  80 45 09 80 F8 FF FF 7F  .........E......
0060: F8 FF FF 7F 73 31 34 35  00 80 1C 0A 80 45 02 80  ....s145.....E..
0070: F8 FF FF 7F F8 FF FF 7F  66 64 69 31 00 80 55 02  ........fdi1..U.
0080: 80 F8 FF FF 7F F8 FF FF  7F 66 64 69 31 1C 0B 80  .........fdi1...
0090: 52 09 80 F8 FF FF 7F F8  FF FF 7F 73 31 34 35 02  R..........s145.
00A0: 87 7F 0C 80 80 BB 00 45  09 80 F8 FF FF 7F F8 FF  .......E........
00B0: FF 7F 73 31 34 37 00 80  01 E8 00 02 87 7F 0D 80  ..s147..........
00C0: 80 D7 00 45 09 80 F8 FF  FF 7F F8 FF FF 7F 73 31  ...E..........s1
00D0: 34 37 00 80 01 E8 00 45  09 80 F8 FF FF 7F F8 FF  47.....E........
00E0: FF 7F 73 31 34 36 00 80  2A 05 F0 FF FF 7F 37 0E  ..s146..*.....7.
00F0: 80 0F 80 10 80 11 80 80  F8 FF FF 7F 79 00 F0 FF  ............y...
0100: FF 7F F8 FF FF 7F 1C 12  80 7B F0 FF FF 7F 1C 08  .........{......
0110: 80 52 09 80 F8 FF FF 7F  F8 FF FF 7F 73 31 34 36  .R..........s146
0120: 52 09 80 F8 FF FF 7F F8  FF FF 7F 73 31 34 37 45  R..........s147E
0130: 09 80 F8 FF FF 7F F8 FF  FF 7F 73 31 34 38 00 80  ..........s148..
0140: 4B F0 FF FF 7F 13 80 1C  08 80 81 00 F0 FF FF 7F  K...............
0150: 02 87 7F 14 80 80 8D 01  66 0B 80 F0 FF FF 7F F0  ........f.......
0160: FF FF 7F 6D 61 62 30 1C  0C 80 52 09 80 F8 FF FF  ...mab0...R.....
0170: 7F F8 FF FF 7F 73 31 34  38 45 09 80 F8 FF FF 7F  .....s148E......
0180: F8 FF FF 7F 73 31 34 39  00 80 01 38 03 02 87 7F  ....s149...8....
0190: 15 80 80 CA 01 66 16 80  F0 FF FF 7F F0 FF FF 7F  .....f..........
01A0: 6D 61 62 30 1C 0C 80 52  09 80 F8 FF FF 7F F8 FF  mab0...R........
01B0: FF 7F 73 31 34 38 45 09  80 F8 FF FF 7F F8 FF FF  ..s148E.........
01C0: 7F 73 31 34 39 00 80 01  38 03 02 87 7F 17 80 80  .s149...8.......
01D0: 07 02 66 18 80 F0 FF FF  7F F0 FF FF 7F 6D 61 62  ..f..........mab
01E0: 30 1C 0C 80 52 09 80 F8  FF FF 7F F8 FF FF 7F 73  0...R..........s
01F0: 31 34 38 45 09 80 F8 FF  FF 7F F8 FF FF 7F 73 31  148E..........s1
0200: 35 30 00 80 01 38 03 02  87 7F 19 80 80 44 02 66  50...8.......D.f
0210: 1A 80 F0 FF FF 7F F0 FF  FF 7F 6D 61 62 30 1C 0C  ..........mab0..
0220: 80 52 09 80 F8 FF FF 7F  F8 FF FF 7F 73 31 34 38  .R..........s148
0230: 45 09 80 F8 FF FF 7F F8  FF FF 7F 73 31 35 30 00  E..........s150.
0240: 80 01 38 03 02 87 7F 0C  80 80 81 02 66 1B 80 F0  ..8.........f...
0250: FF FF 7F F0 FF FF 7F 6D  61 62 30 1C 0C 80 52 09  .......mab0...R.
0260: 80 F8 FF FF 7F F8 FF FF  7F 73 31 34 38 45 09 80  .........s148E..
0270: F8 FF FF 7F F8 FF FF 7F  73 31 35 31 00 80 01 38  ........s151...8
0280: 03 02 87 7F 0D 80 80 BE  02 66 1B 80 F0 FF FF 7F  .........f......
0290: F0 FF FF 7F 6D 61 62 30  1C 0C 80 52 09 80 F8 FF  ....mab0...R....
02A0: FF 7F F8 FF FF 7F 73 31  34 38 45 09 80 F8 FF FF  ......s148E.....
02B0: 7F F8 FF FF 7F 73 31 35  31 00 80 01 38 03 02 87  .....s151...8...
02C0: 7F 1C 80 80 FB 02 66 1D  80 F0 FF FF 7F F0 FF FF  ......f.........
02D0: 7F 6D 61 62 30 1C 0C 80  52 09 80 F8 FF FF 7F F8  .mab0...R.......
02E0: FF FF 7F 73 31 34 38 45  09 80 F8 FF FF 7F F8 FF  ...s148E........
02F0: FF 7F 73 31 35 32 00 80  01 38 03 02 87 7F 1E 80  ..s152...8......
0300: 80 38 03 66 02 80 F0 FF  FF 7F F0 FF FF 7F 6D 61  .8.f..........ma
0310: 62 30 1C 0C 80 52 09 80  F8 FF FF 7F F8 FF FF 7F  b0...R..........
0320: 73 31 34 38 45 09 80 F8  FF FF 7F F8 FF FF 7F 73  s148E..........s
0330: 31 35 33 00 80 01 38 03  1C 08 80 45 1F 80 F0 FF  153...8....E....
0340: FF 7F F0 FF FF 7F 77 68  6F 30 00 80 55 1F 80 F0  ......who0..U...
0350: FF FF 7F F0 FF FF 7F 77  68 6F 30 52 09 80 F8 FF  .......who0R....
0360: FF 7F F8 FF FF 7F 73 31  34 39 52 09 80 F8 FF FF  ......s149R.....
0370: 7F F8 FF FF 7F 73 31 35  30 52 09 80 F8 FF FF 7F  .....s150R......
0380: F8 FF FF 7F 73 31 35 31  52 09 80 F8 FF FF 7F F8  ....s151R.......
0390: FF FF 7F 73 31 35 32 52  09 80 F8 FF FF 7F F8 FF  ...s152R........
03A0: FF 7F 73 31 35 33 2F 00  3B 72 10 01 2F 00 3C 72  ..s153/.;r../.<r
03B0: 10 01 2F 00 3D 72 10 01  2F 00 3A 72 10 01 2F 00  ../.=r../.:r../.
03C0: 3E 72 10 01 2F 00 3F 72  10 01 4E 00 3B 72 10 01  >r../.?r..N.;r..
03D0: 4E 00 3C 72 10 01 4E 00  3D 72 10 01 94 01 3B 72  N.<r..N.=r....;r
03E0: 10 01 94 01 3C 72 10 01  94 01 3D 72 10 01 94 01  ....<r....=r....
03F0: 3A 72 10 01 BA 3A 72 10  01 20 80 21 80 22 80 23  :r...:r.. .!.".#
0400: 80 BA 3B 72 10 01 24 80  25 80 26 80 27 80 BA 3C  ..;r..$.%.&.'..<
0410: 72 10 01 28 80 29 80 2A  80 2B 80 BA 3D 72 10 01  r..(.).*.+..=r..
0420: 2C 80 2D 80 2E 80 2F 80  BA F0 FF FF 7F 30 80 31  ,.-.../......0.1
0430: 80 32 80 23 80 BA 3E 72  10 01 33 80 34 80 35 80  .2.#..>r..3.4.5.
0440: 36 80 BA 3F 72 10 01 37  80 38 80 39 80 3A 80 80  6..?r..7.8.9.:..
0450: F0 FF FF 7F 80 3B 72 10  01 80 3C 72 10 01 80 3D  .....;r...<r...=
0460: 72 10 01 4A 3B 72 10 01  F0 FF FF 7F 4A 3C 72 10  r..J;r......J<r.
0470: 01 F0 FF FF 7F 4A 3D 72  10 01 F0 FF FF 7F 1C 08  .....J=r........
0480: 80 29 10 F0 FF FF 7F 15  CD 3B 80 F0 FF FF 7F F0  .).......;......
0490: FF FF 7F 73 74 30 31 00  80 1C 3C 80 45 09 80 F8  ...st01...<.E...
04A0: FF FF 7F F8 FF FF 7F 73  31 35 34 00 80 1C 3D 80  .......s154...=.
04B0: 45 1F 80 F0 FF FF 7F F0  FF FF 7F 77 68 69 31 00  E..........whi1.
04C0: 80 1C 1B 80 5C 00 3E 80  5C 01 3E 80 52 09 80 F8  ....\.>.\.>.R...
04D0: FF FF 7F F8 FF FF 7F 73  31 35 34 45 09 80 F8 FF  .......s154E....
04E0: FF 7F F8 FF FF 7F 73 31  35 35 00 80 1C 08 80 2B  ......s155.....+
04F0: 3B 72 10 01 3F 80 23 55  09 80 F8 FF FF 7F F8 FF  ;r..?.#U........
0500: FF 7F 73 31 35 35 45 09  80 F8 FF FF 7F F8 FF FF  ..s155E.........
0510: 7F 73 31 35 36 00 80 6E  3B 72 10 01 40 80 99 3B  .s156..n;r..@..;
0520: 72 10 01 2B 3B 72 10 01  41 80 23 66 42 80 3C 72  r..+;r..A.#fB.<r
0530: 10 01 3C 72 10 01 64 69  73 30 2B 3C 72 10 01 43  ..<r..dis0+<r..C
0540: 80 23 52 09 80 F8 FF FF  7F F8 FF FF 7F 73 31 35  .#R..........s15
0550: 36 45 09 80 F8 FF FF 7F  F8 FF FF 7F 73 31 35 37  6E..........s157
0560: 00 80 4A 3D 72 10 01 3C  72 10 01 66 44 80 3B 72  ..J=r..<r..fD.;r
0570: 10 01 3B 72 10 01 74 68  6B 31 1C 08 80 4A 3C 72  ..;r..thk1...J<r
0580: 10 01 3D 72 10 01 2B 3D  72 10 01 45 80 23 66 46  ..=r..+=r..E.#fF
0590: 80 3C 72 10 01 3C 72 10  01 74 6C 6B 30 2B 3C 72  .<r..<r..tlk0+<r
05A0: 10 01 47 80 23 66 46 80  3C 72 10 01 3C 72 10 01  ..G.#fF.<r..<r..
05B0: 74 6C 6B 31 52 09 80 F8  FF FF 7F F8 FF FF 7F 73  tlk1R..........s
05C0: 31 35 37 45 09 80 F8 FF  FF 7F F8 FF FF 7F 73 31  157E..........s1
05D0: 35 38 00 80 66 44 80 3B  72 10 01 3B 72 10 01 74  58..fD.;r..;r..t
05E0: 68 6B 32 79 00 3D 72 10  01 3B 72 10 01 4A 3C 72  hk2y.=r..;r..J<r
05F0: 10 01 3B 72 10 01 2B 3B  72 10 01 48 80 23 55 09  ..;r..+;r..H.#U.
0600: 80 F8 FF FF 7F F8 FF FF  7F 73 31 35 38 27 05 3B  .........s158'.;
0610: 72 10 01 02 1C 3C 80 45  09 80 F8 FF FF 7F F8 FF  r....<.E........
0620: FF 7F 73 31 35 39 00 80  1C 16 80 52 09 80 F8 FF  ..s159.....R....
0630: FF 7F F8 FF FF 7F 73 31  35 39 45 09 80 F8 FF FF  ......s159E.....
0640: 7F F8 FF FF 7F 73 31 36  30 00 80 2A 05 3B 72 10  .....s160..*.;r.
0650: 01 66 49 80 3B 72 10 01  3B 72 10 01 74 6C 62 30  .fI.;r..;r..tlb0
0660: 2B 3B 72 10 01 4A 80 23  52 09 80 F8 FF FF 7F F8  +;r..J.#R.......
0670: FF FF 7F 73 31 36 30 45  09 80 F8 FF FF 7F F8 FF  ...s160E........
0680: FF 7F 73 31 36 31 00 80  1C 3D 80 6B 69 64 6C 30  ..s161...=.kidl0
0690: 3B 72 10 01 24 4B 80 00  80 00 80 25 02 00 10 00  ;r..$K.....%....
06A0: 80 00 DB 06 52 09 80 F8  FF FF 7F F8 FF FF 7F 73  ....R..........s
06B0: 31 36 31 45 09 80 F8 FF  FF 7F F8 FF FF 7F 73 31  161E..........s1
06C0: 36 32 00 80 6E 3B 72 10  01 1C 80 99 3B 72 10 01  62..n;r.....;r..
06D0: 2B 3B 72 10 01 4C 80 23  01 1A 07 02 00 10 14 80  +;r..L.#........
06E0: 00 1A 07 52 09 80 F8 FF  FF 7F F8 FF FF 7F 73 31  ...R..........s1
06F0: 36 31 45 09 80 F8 FF FF  7F F8 FF FF 7F 73 31 36  61E..........s16
0700: 32 00 80 6E 3B 72 10 01  4D 80 99 3B 72 10 01 2B  2..n;r..M..;r..+
0710: 3B 72 10 01 4E 80 23 01  1A 07 52 09 80 F8 FF FF  ;r..N.#...R.....
0720: 7F F8 FF FF 7F 73 31 36  32 45 09 80 F8 FF FF 7F  .....s162E......
0730: F8 FF FF 7F 73 31 36 33  00 80 66 49 80 3B 72 10  ....s163..fI.;r.
0740: 01 3B 72 10 01 74 6C 62  30 03 02 10 4F 80 03 03  .;r..tlb0...O...
0750: 10 50 80 03 04 10 15 80  2B 3B 72 10 01 51 80 23  .P......+;r..Q.#
0760: 4E 00 3E 72 10 01 4E 00  3F 72 10 01 80 3E 72 10  N.>r..N.?r...>r.
0770: 01 80 3F 72 10 01 27 05  3F 72 10 01 02 52 09 80  ..?r..'.?r...R..
0780: F8 FF FF 7F F8 FF FF 7F  73 31 36 33 45 09 80 F8  ........s163E...
0790: FF FF 7F F8 FF FF 7F 73  31 36 34 00 80 1C 3D 80  .......s164...=.
07A0: 4A 3C 72 10 01 3B 72 10  01 4A 3D 72 10 01 3B 72  J<r..;r..J=r..;r
07B0: 10 01 6B 69 64 6C 30 3B  72 10 01 2B 3B 72 10 01  ..kidl0;r..+;r..
07C0: 52 80 23 52 09 80 F8 FF  FF 7F F8 FF FF 7F 73 31  R.#R..........s1
07D0: 36 34 45 09 80 F8 FF FF  7F F8 FF FF 7F 73 31 36  64E..........s16
07E0: 35 00 80 2B 3B 72 10 01  53 80 23 6E 3B 72 10 01  5..+;r..S.#n;r..
07F0: 1C 80 99 3B 72 10 01 4E  01 3E 72 10 01 4E 01 3F  ...;r..N.>r..N.?
0800: 72 10 01 2B 3B 72 10 01  54 80 23 52 09 80 F8 FF  r..+;r..T.#R....
0810: FF 7F F8 FF FF 7F 73 31  36 35 45 09 80 F8 FF FF  ......s165E.....
0820: 7F F8 FF FF 7F 73 31 36  36 00 80 27 05 3B 72 10  .....s166..'.;r.
0830: 01 03 2B 3B 72 10 01 55  80 23 2A 05 3B 72 10 01  ..+;r..U.#*.;r..
0840: 4E 01 3D 72 10 01 4E 01  3C 72 10 01 66 44 80 3B  N.=r..N.<r..fD.;
0850: 72 10 01 3B 72 10 01 73  68 61 30 1C 3D 80 52 09  r..;r..sha0.=.R.
0860: 80 F8 FF FF 7F F8 FF FF  7F 73 31 36 36 45 09 80  .........s166E..
0870: F8 FF FF 7F F8 FF FF 7F  73 31 36 37 00 80 2B 3B  ........s167..+;
0880: 72 10 01 56 80 23 24 57  80 00 80 00 80 25 02 00  r..V.#$W.....%..
0890: 10 14 80 00 E4 08 52 09  80 F8 FF FF 7F F8 FF FF  ......R.........
08A0: 7F 73 31 36 37 45 09 80  F8 FF FF 7F F8 FF FF 7F  .s167E..........
08B0: 73 31 36 38 00 80 2B 3B  72 10 01 58 80 23 52 09  s168..+;r..X.#R.
08C0: 80 F8 FF FF 7F F8 FF FF  7F 73 31 36 38 45 09 80  .........s168E..
08D0: F8 FF FF 7F F8 FF FF 7F  73 31 36 37 00 80 01 86  ........s167....
08E0: 08 01 E4 08 52 09 80 F8  FF FF 7F F8 FF FF 7F 73  ....R..........s
08F0: 31 36 37 02 87 7F 1E 80  80 0F 09 45 09 80 F8 FF  167........E....
0900: FF 7F F8 FF FF 7F 73 32  31 36 00 80 01 20 09 45  ......s216... .E
0910: 09 80 F8 FF FF 7F F8 FF  FF 7F 73 31 36 39 00 80  ..........s169..
0920: 66 44 80 3B 72 10 01 3B  72 10 01 73 68 61 31 2B  fD.;r..;r..sha1+
0930: 3B 72 10 01 59 80 23 81  00 3B 72 10 01 5B 5A 80  ;r..Y.#..;r..[Z.
0940: 3B 72 10 01 3B 72 10 01  70 61 74 30 1C 3D 80 52  ;r..;r..pat0.=.R
0950: 09 80 F8 FF FF 7F F8 FF  FF 7F 73 31 36 39 52 09  ..........s169R.
0960: 80 F8 FF FF 7F F8 FF FF  7F 73 32 31 36 45 09 80  .........s216E..
0970: F8 FF FF 7F F8 FF FF 7F  73 31 37 30 00 80 1C 12  ........s170....
0980: 80 52 09 80 F8 FF FF 7F  F8 FF FF 7F 73 31 37 30  .R..........s170
0990: 45 09 80 F8 FF FF 7F F8  FF FF 7F 73 31 37 31 00  E..........s171.
09A0: 80 CD 3B 80 F0 FF FF 7F  F0 FF FF 7F 73 74 30 32  ..;.........st02
09B0: 00 80 1C 08 80 4E 00 3D  72 10 01 4E 00 3C 72 10  .....N.=r..N.<r.
09C0: 01 BA 3D 72 10 01 5B 80  5C 80 5D 80 5E 80 BA 3C  ..=r..[.\.].^..<
09D0: 72 10 01 5F 80 60 80 61  80 5E 80 4A 3D 72 10 01  r.._.`.a.^.J=r..
09E0: 3B 72 10 01 4A 3C 72 10  01 3B 72 10 01 7B 3C 72  ;r..J<r..;r..{<r
09F0: 10 01 1C 62 80 52 09 80  F8 FF FF 7F F8 FF FF 7F  ...b.R..........
0A00: 73 31 37 31 45 09 80 F8  FF FF 7F F8 FF FF 7F 73  s171E..........s
0A10: 31 37 32 00 80 66 03 80  3D 72 10 01 3D 72 10 01  172..f..=r..=r..
0A20: 74 68 6B 31 1C 3D 80 81  01 3B 72 10 01 6B 69 64  thk1.=...;r..kid
0A30: 6C 30 3B 72 10 01 4A 3B  72 10 01 3C 72 10 01 6B  l0;r..J;r..<r..k
0A40: 69 64 6C 30 F0 FF FF 7F  4A F0 FF FF 7F 3B 72 10  idl0....J....;r.
0A50: 01 1C 3D 80 2B 3D 72 10  01 63 80 23 1C 3D 80 27  ..=.+=r..c.#.=.'
0A60: 05 F0 FF FF 7F 04 66 46  80 3C 72 10 01 3C 72 10  ......fF.<r..<r.
0A70: 01 74 6C 6B 30 2B 3C 72  10 01 64 80 23 66 46 80  .tlk0+<r..d.#fF.
0A80: 3C 72 10 01 3C 72 10 01  74 6C 6B 31 52 09 80 F8  <r..<r..tlk1R...
0A90: FF FF 7F F8 FF FF 7F 73  31 37 32 45 09 80 F8 FF  .......s172E....
0AA0: FF 7F F8 FF FF 7F 73 31  37 33 00 80 6E 3B 72 10  ......s173..n;r.
0AB0: 01 4D 80 99 3B 72 10 01  2B 3B 72 10 01 65 80 1C  .M..;r..+;r..e..
0AC0: 08 80 66 03 80 3D 72 10  01 3D 72 10 01 74 68 6B  ..f..=r..=r..thk
0AD0: 32 23 2A 05 F0 FF FF 7F  52 09 80 F8 FF FF 7F F8  2#*.....R.......
0AE0: FF FF 7F 73 31 37 33 45  09 80 F8 FF FF 7F F8 FF  ...s173E........
0AF0: FF 7F 73 31 37 34 00 80  4A 3B 72 10 01 F0 FF FF  ..s174..J;r.....
0B00: 7F 1C 08 80 27 05 F0 FF  FF 7F 05 2B 3B 72 10 01  ....'......+;r..
0B10: 66 80 23 6E 3B 72 10 01  00 80 99 3B 72 10 01 52  f.#n;r.....;r..R
0B20: 09 80 F8 FF FF 7F F8 FF  FF 7F 73 31 37 34 45 09  ..........s174E.
0B30: 80 F8 FF FF 7F F8 FF FF  7F 73 31 37 35 00 80 2B  .........s175..+
0B40: 3B 72 10 01 67 80 23 52  09 80 F8 FF FF 7F F8 FF  ;r..g.#R........
0B50: FF 7F 73 31 37 35 45 09  80 F8 FF FF 7F F8 FF FF  ..s175E.........
0B60: 7F 73 31 37 36 00 80 73  68 80 3B 72 10 01 3B 72  .s176..sh.;r..;r
0B70: 10 01 1C 08 80 73 68 80  3C 72 10 01 3C 72 10 01  .....sh.<r..<r..
0B80: 1C 08 80 73 68 80 3D 72  10 01 3D 72 10 01 1C 1B  ...sh.=r..=r....
0B90: 80 52 09 80 F8 FF FF 7F  F8 FF FF 7F 73 31 37 36  .R..........s176
0BA0: 45 09 80 F8 FF FF 7F F8  FF FF 7F 73 31 37 37 00  E..........s177.
0BB0: 80 4E 00 3A 72 10 01 80  3A 72 10 01 27 05 3A 72  .N.:r...:r..'.:r
0BC0: 10 01 02 1C 3C 80 4A F0  FF FF 7F 3A 72 10 01 2B  ....<.J....:r..+
0BD0: 3A 72 10 01 69 80 23 2A  05 3A 72 10 01 6E 3A 72  :r..i.#*.:r..n:r
0BE0: 10 01 6A 80 99 3A 72 10  01 2B 3A 72 10 01 6B 80  ..j..:r..+:r..k.
0BF0: 23 52 09 80 F8 FF FF 7F  F8 FF FF 7F 73 31 37 37  #R..........s177
0C00: 45 09 80 F8 FF FF 7F F8  FF FF 7F 73 31 37 39 00  E..........s179.
0C10: 80 27 05 F0 FF FF 7F 12  1C 6C 80 27 05 F0 FF FF  .'.......l.'....
0C20: 7F 13 1C 42 80 6E 3A 72  10 01 6D 80 99 3A 72 10  ...B.n:r..m..:r.
0C30: 01 2B 3A 72 10 01 6E 80  23 66 6F 80 3A 72 10 01  .+:r..n.#fo.:r..
0C40: 3A 72 10 01 74 68 6B 31  2B 3A 72 10 01 70 80 23  :r..thk1+:r..p.#
0C50: 52 09 80 F8 FF FF 7F F8  FF FF 7F 73 31 37 39 45  R..........s179E
0C60: 09 80 F8 FF FF 7F F8 FF  FF 7F 73 31 37 38 00 80  ..........s178..
0C70: 66 6F 80 3A 72 10 01 3A  72 10 01 74 68 6B 32 2B  fo.:r..:r..thk2+
0C80: 3A 72 10 01 71 80 23 6E  3A 72 10 01 1C 80 99 3A  :r..q.#n:r.....:
0C90: 72 10 01 03 04 10 14 80  2B 3A 72 10 01 72 80 23  r.......+:r..r.#
0CA0: 52 09 80 F8 FF FF 7F F8  FF FF 7F 73 31 37 38 45  R..........s178E
0CB0: 09 80 F8 FF FF 7F F8 FF  FF 7F 73 31 38 30 00 80  ..........s180..
0CC0: 66 6F 80 3A 72 10 01 3A  72 10 01 74 6C 6B 30 2B  fo.:r..:r..tlk0+
0CD0: 3A 72 10 01 73 80 23 2B  3A 72 10 01 74 80 23 2B  :r..s.#+:r..t.#+
0CE0: 3A 72 10 01 75 80 23 66  6F 80 3A 72 10 01 3A 72  :r..u.#fo.:r..:r
0CF0: 10 01 74 6C 6B 31 52 09  80 F8 FF FF 7F F8 FF FF  ..tlk1R.........
0D00: 7F 73 31 38 30 45 09 80  F8 FF FF 7F F8 FF FF 7F  .s180E..........
0D10: 73 31 38 31 00 80 2B 3A  72 10 01 76 80 23 66 77  s181..+:r..v.#fw
0D20: 80 3A 72 10 01 3A 72 10  01 74 6C 6B 30 2B 3A 72  .:r..:r..tlk0+:r
0D30: 10 01 78 80 23 52 09 80  F8 FF FF 7F F8 FF FF 7F  ..x.#R..........
0D40: 73 31 38 31 45 09 80 F8  FF FF 7F F8 FF FF 7F 73  s181E..........s
0D50: 31 38 32 00 80 2B 3A 72  10 01 79 80 23 45 02 80  182..+:r..y.#E..
0D60: F8 FF FF 7F F8 FF FF 7F  66 64 6F 31 00 80 55 02  ........fdo1..U.
0D70: 80 F8 FF FF 7F F8 FF FF  7F 66 64 6F 31 52 09 80  .........fdo1R..
0D80: F8 FF FF 7F F8 FF FF 7F  73 31 38 32 46 00 45 02  ........s182F.E.
0D90: 80 F8 FF FF 7F F8 FF FF  7F 66 64 69 32 00 80 21  .........fdi2..!
0DA0: 00                                                .               
```

#### Opcodes

```
  0: 0x0001 [0x42] SET_CLI_EVENT_CANCEL_DATA()
  1: 0x0002 [0x5D] SET_MUSIC_VOLUME(volume=0*, fade_time=120*)
  2: 0x0007 [0x45] LOAD_SCHEDULED_TASK: Load scheduler "fdo1" with entities [EventEntity, EventEntity], work=[200*, 0*]
  3: 0x0018 [0x55] WAIT_LOAD_SCHEDULER: Wait for scheduler "fdo1" with entities [EventEntity, EventEntity], work=200*
  4: 0x0027 [0x46] CAMERA_CONTROL: Disable user control
  5: 0x0029 [0x38] SET_CLIENT_EVENT_MODE(mode=19*)
  6: 0x002C [0x94] LocalPlayer->Render.Flags3 ^= 0x01
  7: 0x0032 [0x33] EventEntity->Render.Flags0 |= 0x200000 // Bit 21 (flag=0x01)
  8: 0x0034 [0xBA] SET_ENTITY_POSITION(entity_id=LocalPlayer, pos_x=259.644*, pos_z=390.399*, pos_y=-1.437*, direction=315.0*)
  9: 0x0041 [0x80] LOAD_WAIT(entity=LocalPlayer)
 10: 0x0046 [0x5C] MUSIC_CONTROL: Set Idle (Day) music to song 0*
 11: 0x004A [0x5C] MUSIC_CONTROL: Set Idle (Night) music to song 0*
 12: 0x004E [0x9A] WAIT_MUSIC_SERVER()
 13: 0x004F [0x27] REQ_SET(priority=0x05, entity_id=LocalPlayer, tag_num=0x08)
 14: 0x0056 [0x1C] WAIT(30* ticks)
 15: 0x0059 [0x45] LOAD_SCHEDULED_TASK: Load scheduler "s145" with entities [EventEntity, EventEntity], work=[621*, 0*]
 16: 0x006A [0x1C] WAIT(25* ticks)
 17: 0x006D [0x45] LOAD_SCHEDULED_TASK: Load scheduler "fdi1" with entities [EventEntity, EventEntity], work=[200*, 0*]
 18: 0x007E [0x55] WAIT_LOAD_SCHEDULER: Wait for scheduler "fdi1" with entities [EventEntity, EventEntity], work=200*
 19: 0x008D [0x1C] WAIT(140* ticks)
 20: 0x0090 [0x52] END_LOAD_SCHEDULER: End scheduler "s145" with entities [EventEntity, EventEntity], work=621*
 21: 0x009F [0x02] IF !(LocalPlayer->Race == 5*) GOTO 0x00BB
 22: 0x00A7 [0x45] LOAD_SCHEDULED_TASK: Load scheduler "s147" with entities [EventEntity, EventEntity], work=[621*, 0*]
 23: 0x00B8 [0x01] GOTO 0x00E8
 24: 0x00BB [0x02] IF !(LocalPlayer->Race == 6*) GOTO 0x00D7
 25: 0x00C3 [0x45] LOAD_SCHEDULED_TASK: Load scheduler "s147" with entities [EventEntity, EventEntity], work=[621*, 0*]
 26: 0x00D4 [0x01] GOTO 0x00E8
 27: 0x00D7 [0x45] LOAD_SCHEDULED_TASK: Load scheduler "s146" with entities [EventEntity, EventEntity], work=[621*, 0*]

SUBROUTINE_00E8:
 28: 0x00E8 [0x2A] GET_REQ_LEVEL(level=5, entity_id=LocalPlayer)
 29: 0x00EE [0x37] UPDATE_EVENT_POSITION_AND_DIR: x=265.650*, z=399.705*, y=-1.000*, direction=315.9*
 30: 0x00F7 [0x80] LOAD_WAIT(entity=EventEntity)
 31: 0x00FC [0x79] LocalPlayer looks at EventEntity (Basic look)
 32: 0x0106 [0x1C] WAIT(90* ticks)
 33: 0x0109 [0x7B] LocalPlayer stops talking
 34: 0x010E [0x1C] WAIT(30* ticks)
 35: 0x0111 [0x52] END_LOAD_SCHEDULER: End scheduler "s146" with entities [EventEntity, EventEntity], work=621*
 36: 0x0120 [0x52] END_LOAD_SCHEDULER: End scheduler "s147" with entities [EventEntity, EventEntity], work=621*
 37: 0x012F [0x45] LOAD_SCHEDULED_TASK: Load scheduler "s148" with entities [EventEntity, EventEntity], work=[621*, 0*]
 38: 0x0140 [0x4B] UPDATE_ENTITY_YAW(entity=LocalPlayer, yaw=6.3*)
 39: 0x0147 [0x1C] WAIT(30* ticks)
 40: 0x014A [0x81] SET_ENTITY_BLINKING(blink_flag=0x00, entity=LocalPlayer)
 41: 0x0150 [0x02] IF !(LocalPlayer->Race == 1*) GOTO 0x018D
 42: 0x0158 [0x66] LOAD_EXT_SCHEDULER_MAIN: Load scheduler "mab0" with entities [LocalPlayer, LocalPlayer], work=140*
 43: 0x0167 [0x1C] WAIT(5* ticks)
 44: 0x016A [0x52] END_LOAD_SCHEDULER: End scheduler "s148" with entities [EventEntity, EventEntity], work=621*
 45: 0x0179 [0x45] LOAD_SCHEDULED_TASK: Load scheduler "s149" with entities [EventEntity, EventEntity], work=[621*, 0*]
 46: 0x018A [0x01] GOTO 0x0338
 47: 0x018D [0x02] IF !(LocalPlayer->Race == 2*) GOTO 0x01CA
 48: 0x0195 [0x66] LOAD_EXT_SCHEDULER_MAIN: Load scheduler "mab0" with entities [LocalPlayer, LocalPlayer], work=150*
 49: 0x01A4 [0x1C] WAIT(5* ticks)
 50: 0x01A7 [0x52] END_LOAD_SCHEDULER: End scheduler "s148" with entities [EventEntity, EventEntity], work=621*
 51: 0x01B6 [0x45] LOAD_SCHEDULED_TASK: Load scheduler "s149" with entities [EventEntity, EventEntity], work=[621*, 0*]
 52: 0x01C7 [0x01] GOTO 0x0338
 53: 0x01CA [0x02] IF !(LocalPlayer->Race == 3*) GOTO 0x0207
 54: 0x01D2 [0x66] LOAD_EXT_SCHEDULER_MAIN: Load scheduler "mab0" with entities [LocalPlayer, LocalPlayer], work=160*
 55: 0x01E1 [0x1C] WAIT(5* ticks)
 56: 0x01E4 [0x52] END_LOAD_SCHEDULER: End scheduler "s148" with entities [EventEntity, EventEntity], work=621*
 57: 0x01F3 [0x45] LOAD_SCHEDULED_TASK: Load scheduler "s150" with entities [EventEntity, EventEntity], work=[621*, 0*]
 58: 0x0204 [0x01] GOTO 0x0338
 59: 0x0207 [0x02] IF !(LocalPlayer->Race == 4*) GOTO 0x0244
 60: 0x020F [0x66] LOAD_EXT_SCHEDULER_MAIN: Load scheduler "mab0" with entities [LocalPlayer, LocalPlayer], work=170*
 61: 0x021E [0x1C] WAIT(5* ticks)
 62: 0x0221 [0x52] END_LOAD_SCHEDULER: End scheduler "s148" with entities [EventEntity, EventEntity], work=621*
 63: 0x0230 [0x45] LOAD_SCHEDULED_TASK: Load scheduler "s150" with entities [EventEntity, EventEntity], work=[621*, 0*]
 64: 0x0241 [0x01] GOTO 0x0338
 65: 0x0244 [0x02] IF !(LocalPlayer->Race == 5*) GOTO 0x0281
 66: 0x024C [0x66] LOAD_EXT_SCHEDULER_MAIN: Load scheduler "mab0" with entities [LocalPlayer, LocalPlayer], work=180*
 67: 0x025B [0x1C] WAIT(5* ticks)
 68: 0x025E [0x52] END_LOAD_SCHEDULER: End scheduler "s148" with entities [EventEntity, EventEntity], work=621*
 69: 0x026D [0x45] LOAD_SCHEDULED_TASK: Load scheduler "s151" with entities [EventEntity, EventEntity], work=[621*, 0*]
 70: 0x027E [0x01] GOTO 0x0338
 71: 0x0281 [0x02] IF !(LocalPlayer->Race == 6*) GOTO 0x02BE
 72: 0x0289 [0x66] LOAD_EXT_SCHEDULER_MAIN: Load scheduler "mab0" with entities [LocalPlayer, LocalPlayer], work=180*
 73: 0x0298 [0x1C] WAIT(5* ticks)
 74: 0x029B [0x52] END_LOAD_SCHEDULER: End scheduler "s148" with entities [EventEntity, EventEntity], work=621*
 75: 0x02AA [0x45] LOAD_SCHEDULED_TASK: Load scheduler "s151" with entities [EventEntity, EventEntity], work=[621*, 0*]
 76: 0x02BB [0x01] GOTO 0x0338
 77: 0x02BE [0x02] IF !(LocalPlayer->Race == 7*) GOTO 0x02FB
 78: 0x02C6 [0x66] LOAD_EXT_SCHEDULER_MAIN: Load scheduler "mab0" with entities [LocalPlayer, LocalPlayer], work=190*
 79: 0x02D5 [0x1C] WAIT(5* ticks)
 80: 0x02D8 [0x52] END_LOAD_SCHEDULER: End scheduler "s148" with entities [EventEntity, EventEntity], work=621*
 81: 0x02E7 [0x45] LOAD_SCHEDULED_TASK: Load scheduler "s152" with entities [EventEntity, EventEntity], work=[621*, 0*]
 82: 0x02F8 [0x01] GOTO 0x0338
 83: 0x02FB [0x02] IF !(LocalPlayer->Race == 8*) GOTO 0x0338
 84: 0x0303 [0x66] LOAD_EXT_SCHEDULER_MAIN: Load scheduler "mab0" with entities [LocalPlayer, LocalPlayer], work=200*
 85: 0x0312 [0x1C] WAIT(5* ticks)
 86: 0x0315 [0x52] END_LOAD_SCHEDULER: End scheduler "s148" with entities [EventEntity, EventEntity], work=621*
 87: 0x0324 [0x45] LOAD_SCHEDULED_TASK: Load scheduler "s153" with entities [EventEntity, EventEntity], work=[621*, 0*]
 88: 0x0335 [0x01] GOTO 0x0338

SUBROUTINE_0338:
 89: 0x0338 [0x1C] WAIT(30* ticks)
 90: 0x033B [0x45] LOAD_SCHEDULED_TASK: Load scheduler "who0" with entities [LocalPlayer, LocalPlayer], work=[201*, 0*]
 91: 0x034C [0x55] WAIT_LOAD_SCHEDULER: Wait for scheduler "who0" with entities [LocalPlayer, LocalPlayer], work=201*
 92: 0x035B [0x52] END_LOAD_SCHEDULER: End scheduler "s149" with entities [EventEntity, EventEntity], work=621*
 93: 0x036A [0x52] END_LOAD_SCHEDULER: End scheduler "s150" with entities [EventEntity, EventEntity], work=621*
 94: 0x0379 [0x52] END_LOAD_SCHEDULER: End scheduler "s151" with entities [EventEntity, EventEntity], work=621*
 95: 0x0388 [0x52] END_LOAD_SCHEDULER: End scheduler "s152" with entities [EventEntity, EventEntity], work=621*
 96: 0x0397 [0x52] END_LOAD_SCHEDULER: End scheduler "s153" with entities [EventEntity, EventEntity], work=621*
 97: 0x03A6 [0x2F] Soraa Ishakal (ID: 17855035/0x0110723B)->Render.Flags0 &= ~0x80000 // Bit 19
 98: 0x03AC [0x2F] Zunmimi (ID: 17855036/0x0110723C)->Render.Flags0 &= ~0x80000 // Bit 19
 99: 0x03B2 [0x2F] Melisandra (ID: 17855037/0x0110723D)->Render.Flags0 &= ~0x80000 // Bit 19
100: 0x03B8 [0x2F] Nashu (ID: 17855034/0x0110723A)->Render.Flags0 &= ~0x80000 // Bit 19
101: 0x03BE [0x2F] Unnamed NPC (ID: 17855038/0x0110723E)->Render.Flags0 &= ~0x80000 // Bit 19
102: 0x03C4 [0x2F] Unnamed NPC (ID: 17855039/0x0110723F)->Render.Flags0 &= ~0x80000 // Bit 19
103: 0x03CA [0x4E] SET_ENTITY_HIDE_FLAG: Show Soraa Ishakal (ID: 17855035/0x0110723B)
104: 0x03D0 [0x4E] SET_ENTITY_HIDE_FLAG: Show Zunmimi (ID: 17855036/0x0110723C)
105: 0x03D6 [0x4E] SET_ENTITY_HIDE_FLAG: Show Melisandra (ID: 17855037/0x0110723D)
106: 0x03DC [0x94] Soraa Ishakal (ID: 17855035/0x0110723B)->Render.Flags3 ^= 0x01
107: 0x03E2 [0x94] Zunmimi (ID: 17855036/0x0110723C)->Render.Flags3 ^= 0x01
108: 0x03E8 [0x94] Melisandra (ID: 17855037/0x0110723D)->Render.Flags3 ^= 0x01
109: 0x03EE [0x94] Nashu (ID: 17855034/0x0110723A)->Render.Flags3 ^= 0x01
110: 0x03F4 [0xBA] SET_ENTITY_POSITION(entity_id=Nashu (ID: 17855034/0x0110723A), pos_x=257.795*, pos_z=409.726*, pos_y=1.581*, direction=100.3*)
111: 0x0401 [0xBA] SET_ENTITY_POSITION(entity_id=Soraa Ishakal (ID: 17855035/0x0110723B), pos_x=258.844*, pos_z=392.405*, pos_y=-0.803*, direction=275.5*)
112: 0x040E [0xBA] SET_ENTITY_POSITION(entity_id=Zunmimi (ID: 17855036/0x0110723C), pos_x=257.787*, pos_z=391.690*, pos_y=-1.012*, direction=284.0*)
113: 0x041B [0xBA] SET_ENTITY_POSITION(entity_id=Melisandra (ID: 17855037/0x0110723D), pos_x=259.555*, pos_z=391.271*, pos_y=-1.150*, direction=290.6*)
114: 0x0428 [0xBA] SET_ENTITY_POSITION(entity_id=LocalPlayer, pos_x=256.997*, pos_z=401.108*, pos_y=0.391*, direction=100.3*)
115: 0x0435 [0xBA] SET_ENTITY_POSITION(entity_id=Unnamed NPC (ID: 17855038/0x0110723E), pos_x=240.300*, pos_z=421.252*, pos_y=0.454*, direction=312.2*)
116: 0x0442 [0xBA] SET_ENTITY_POSITION(entity_id=Unnamed NPC (ID: 17855039/0x0110723F), pos_x=239.294*, pos_z=416.324*, pos_y=0.284*, direction=39.2*)
117: 0x044F [0x80] LOAD_WAIT(entity=LocalPlayer)
118: 0x0454 [0x80] LOAD_WAIT(entity=Soraa Ishakal (ID: 17855035/0x0110723B))
119: 0x0459 [0x80] LOAD_WAIT(entity=Zunmimi (ID: 17855036/0x0110723C))
120: 0x045E [0x80] LOAD_WAIT(entity=Melisandra (ID: 17855037/0x0110723D))
121: 0x0463 [0x4A] Soraa Ishakal (ID: 17855035/0x0110723B) looks at LocalPlayer
122: 0x046C [0x4A] Zunmimi (ID: 17855036/0x0110723C) looks at LocalPlayer
123: 0x0475 [0x4A] Melisandra (ID: 17855037/0x0110723D) looks at LocalPlayer
124: 0x047E [0x1C] WAIT(30* ticks)
125: 0x0481 [0x29] REQ_SET_WAIT(priority=0x10, entity_id=LocalPlayer, tag_num=0x15)
126: 0x0488 [0xCD] LOAD_SCHEDULED_TASK_ALT4: Load scheduler "st01" with entities [LocalPlayer, LocalPlayer], work=[14*, 0*]
127: 0x0499 [0x1C] WAIT(60* ticks)
128: 0x049C [0x45] LOAD_SCHEDULED_TASK: Load scheduler "s154" with entities [EventEntity, EventEntity], work=[621*, 0*]
129: 0x04AD [0x1C] WAIT(15* ticks)
130: 0x04B0 [0x45] LOAD_SCHEDULED_TASK: Load scheduler "whi1" with entities [LocalPlayer, LocalPlayer], work=[201*, 0*]
131: 0x04C1 [0x1C] WAIT(180* ticks)
132: 0x04C4 [0x5C] MUSIC_CONTROL: Set Idle (Day) music to song 61*
133: 0x04C8 [0x5C] MUSIC_CONTROL: Set Idle (Night) music to song 61*
134: 0x04CC [0x52] END_LOAD_SCHEDULER: End scheduler "s154" with entities [EventEntity, EventEntity], work=621*
135: 0x04DB [0x45] LOAD_SCHEDULED_TASK: Load scheduler "s155" with entities [EventEntity, EventEntity], work=[621*, 0*]
136: 0x04EC [0x1C] WAIT(30* ticks)
137: 0x04EF [0x2B] Soraa Ishakal (ID: 17855035/0x0110723B) [7895*]:
     "Ugh, I rrraised my hopes up for nothing again."
138: 0x04F6 [0x23] WAIT_FOR_DIALOG_INTERACTION
139: 0x04F7 [0x55] WAIT_LOAD_SCHEDULER: Wait for scheduler "s155" with entities [EventEntity, EventEntity], work=621*
140: 0x0506 [0x45] LOAD_SCHEDULED_TASK: Load scheduler "s156" with entities [EventEntity, EventEntity], work=[621*, 0*]
141: 0x0517 [0x6E] Soraa Ishakal (ID: 17855035/0x0110723B) uses emote 26*
142: 0x051E [0x99] Wait for Soraa Ishakal (ID: 17855035/0x0110723B) animation to complete
143: 0x0523 [0x2B] Soraa Ishakal (ID: 17855035/0x0110723B) [7896*]:
     "How imbecilic do these pioneers have to be to get caught in trrraps not even meant for them!?"
144: 0x052A [0x23] WAIT_FOR_DIALOG_INTERACTION
145: 0x052B [0x66] LOAD_EXT_SCHEDULER_MAIN: Load scheduler "dis0" with entities [Zunmimi (ID: 17855036/0x0110723C), Zunmimi (ID: 17855036/0x0110723C)], work=40*
146: 0x053A [0x2B] Zunmimi (ID: 17855036/0x0110723C) [7897*]:
     "You know what we should do? Trap all the pioneers first, then we can catch snapweeds without any impedimentarus!"
147: 0x0541 [0x23] WAIT_FOR_DIALOG_INTERACTION
148: 0x0542 [0x52] END_LOAD_SCHEDULER: End scheduler "s156" with entities [EventEntity, EventEntity], work=621*
149: 0x0551 [0x45] LOAD_SCHEDULED_TASK: Load scheduler "s157" with entities [EventEntity, EventEntity], work=[621*, 0*]
150: 0x0562 [0x4A] Melisandra (ID: 17855037/0x0110723D) looks at Zunmimi (ID: 17855036/0x0110723C)
151: 0x056B [0x66] LOAD_EXT_SCHEDULER_MAIN: Load scheduler "thk1" with entities [Soraa Ishakal (ID: 17855035/0x0110723B), Soraa Ishakal (ID: 17855035/0x0110723B)], work=59*
152: 0x057A [0x1C] WAIT(30* ticks)
153: 0x057D [0x4A] Zunmimi (ID: 17855036/0x0110723C) looks at Melisandra (ID: 17855037/0x0110723D)
154: 0x0586 [0x2B] Melisandra (ID: 17855037/0x0110723D) [7898*]:
     "That would take years. Are you just as idiotic as the pioneers?"
155: 0x058D [0x23] WAIT_FOR_DIALOG_INTERACTION
156: 0x058E [0x66] LOAD_EXT_SCHEDULER_MAIN: Load scheduler "tlk0" with entities [Zunmimi (ID: 17855036/0x0110723C), Zunmimi (ID: 17855036/0x0110723C)], work=49*
157: 0x059D [0x2B] Zunmimi (ID: 17855036/0x0110723C) [7899*]:
     "Y-you're the idiotaru! Can't you tell a joke when you hear one? Anyway, we need to think of a real solution-wution to this problem."
158: 0x05A4 [0x23] WAIT_FOR_DIALOG_INTERACTION
159: 0x05A5 [0x66] LOAD_EXT_SCHEDULER_MAIN: Load scheduler "tlk1" with entities [Zunmimi (ID: 17855036/0x0110723C), Zunmimi (ID: 17855036/0x0110723C)], work=49*
160: 0x05B4 [0x52] END_LOAD_SCHEDULER: End scheduler "s157" with entities [EventEntity, EventEntity], work=621*
161: 0x05C3 [0x45] LOAD_SCHEDULED_TASK: Load scheduler "s158" with entities [EventEntity, EventEntity], work=[621*, 0*]
162: 0x05D4 [0x66] LOAD_EXT_SCHEDULER_MAIN: Load scheduler "thk2" with entities [Soraa Ishakal (ID: 17855035/0x0110723B), Soraa Ishakal (ID: 17855035/0x0110723B)], work=59*
163: 0x05E3 [0x79] Melisandra (ID: 17855037/0x0110723D) looks at Soraa Ishakal (ID: 17855035/0x0110723B) (Basic look)
164: 0x05ED [0x4A] Zunmimi (ID: 17855036/0x0110723C) looks at Soraa Ishakal (ID: 17855035/0x0110723B)
165: 0x05F6 [0x2B] Soraa Ishakal (ID: 17855035/0x0110723B) [7900*]:
     "...Aha! I've got it! It looks like I'm both the brains as well as the beauty of this trrrio. Just leave it to me."
166: 0x05FD [0x23] WAIT_FOR_DIALOG_INTERACTION
167: 0x05FE [0x55] WAIT_LOAD_SCHEDULER: Wait for scheduler "s158" with entities [EventEntity, EventEntity], work=621*
168: 0x060D [0x27] REQ_SET(priority=0x05, entity_id=Soraa Ishakal (ID: 17855035/0x0110723B), tag_num=0x02)
169: 0x0614 [0x1C] WAIT(60* ticks)
170: 0x0617 [0x45] LOAD_SCHEDULED_TASK: Load scheduler "s159" with entities [EventEntity, EventEntity], work=[621*, 0*]
171: 0x0628 [0x1C] WAIT(150* ticks)
172: 0x062B [0x52] END_LOAD_SCHEDULER: End scheduler "s159" with entities [EventEntity, EventEntity], work=621*
173: 0x063A [0x45] LOAD_SCHEDULED_TASK: Load scheduler "s160" with entities [EventEntity, EventEntity], work=[621*, 0*]
174: 0x064B [0x2A] GET_REQ_LEVEL(level=5, entity_id=Soraa Ishakal (ID: 17855035/0x0110723B))
175: 0x0651 [0x66] LOAD_EXT_SCHEDULER_MAIN: Load scheduler "tlb0" with entities [Soraa Ishakal (ID: 17855035/0x0110723B), Soraa Ishakal (ID: 17855035/0x0110723B)], work=68*
176: 0x0660 [0x2B] Soraa Ishakal (ID: 17855035/0x0110723B) [7901*]:
     "You there. Do you want to leave this place with all thirrrty-two of your teeth still in your skull?"
177: 0x0667 [0x23] WAIT_FOR_DIALOG_INTERACTION
178: 0x0668 [0x52] END_LOAD_SCHEDULER: End scheduler "s160" with entities [EventEntity, EventEntity], work=621*
179: 0x0677 [0x45] LOAD_SCHEDULED_TASK: Load scheduler "s161" with entities [EventEntity, EventEntity], work=[621*, 0*]
180: 0x0688 [0x1C] WAIT(15* ticks)
181: 0x068B [0x6B] STOP_AND_IDLE: Soraa Ishakal (ID: 17855035/0x0110723B) stops current action and resets to idle (animation="idl0")
182: 0x0694 [0x24] CREATE_DIALOG(message_id=7902*, default_option=0*, option_flags=0*)
     "Well, do you? [Of course!/I'm not afraid of you.]"
183: 0x069B [0x25] WAIT_DIALOG_SELECT()
184: 0x069C [0x02] IF !(Work_Zone[0] == 0*) GOTO 0x06DB
185: 0x06A4 [0x52] END_LOAD_SCHEDULER: End scheduler "s161" with entities [EventEntity, EventEntity], work=621*
186: 0x06B3 [0x45] LOAD_SCHEDULED_TASK: Load scheduler "s162" with entities [EventEntity, EventEntity], work=[621*, 0*]
187: 0x06C4 [0x6E] Soraa Ishakal (ID: 17855035/0x0110723B) uses emote 7*
188: 0x06CB [0x99] Wait for Soraa Ishakal (ID: 17855035/0x0110723B) animation to complete
189: 0x06D0 [0x2B] Soraa Ishakal (ID: 17855035/0x0110723B) [7903*]:
     "That's a good little [boy/girl]. However, you know very well that we can't uphold our rrreputation if we just set you on your merry way."
190: 0x06D7 [0x23] WAIT_FOR_DIALOG_INTERACTION
191: 0x06D8 [0x01] GOTO 0x071A
192: 0x06DB [0x02] IF !(Work_Zone[0] == 1*) GOTO 0x071A
193: 0x06E3 [0x52] END_LOAD_SCHEDULER: End scheduler "s161" with entities [EventEntity, EventEntity], work=621*
194: 0x06F2 [0x45] LOAD_SCHEDULED_TASK: Load scheduler "s162" with entities [EventEntity, EventEntity], work=[621*, 0*]
195: 0x0703 [0x6E] Soraa Ishakal (ID: 17855035/0x0110723B) uses emote 22*
196: 0x070A [0x99] Wait for Soraa Ishakal (ID: 17855035/0x0110723B) animation to complete
197: 0x070F [0x2B] Soraa Ishakal (ID: 17855035/0x0110723B) [7904*]:
     "Is that how you're going to be? Well, then, we can drag out the prrrocess as long as possible to make your tears all the more delicious, or..."
198: 0x0716 [0x23] WAIT_FOR_DIALOG_INTERACTION
199: 0x0717 [0x01] GOTO 0x071A

SUBROUTINE_071A:
200: 0x071A [0x52] END_LOAD_SCHEDULER: End scheduler "s162" with entities [EventEntity, EventEntity], work=621*
201: 0x0729 [0x45] LOAD_SCHEDULED_TASK: Load scheduler "s163" with entities [EventEntity, EventEntity], work=[621*, 0*]
202: 0x073A [0x66] LOAD_EXT_SCHEDULER_MAIN: Load scheduler "tlb0" with entities [Soraa Ishakal (ID: 17855035/0x0110723B), Soraa Ishakal (ID: 17855035/0x0110723B)], work=68*
203: 0x0749 [0x03] Work_Zone[2] = 4031*
204: 0x074E [0x03] Work_Zone[3] = 4032*
205: 0x0753 [0x03] Work_Zone[4] = 2*
206: 0x0758 [0x2B] Soraa Ishakal (ID: 17855035/0x0110723B) [7905*]:
     "Prrrocure us $2 $0 and $2 $0$0 and we may just "forget" you escaped."
207: 0x075F [0x23] WAIT_FOR_DIALOG_INTERACTION
208: 0x0760 [0x4E] SET_ENTITY_HIDE_FLAG: Show Unnamed NPC (ID: 17855038/0x0110723E)
209: 0x0766 [0x4E] SET_ENTITY_HIDE_FLAG: Show Unnamed NPC (ID: 17855039/0x0110723F)
210: 0x076C [0x80] LOAD_WAIT(entity=Unnamed NPC (ID: 17855038/0x0110723E))
211: 0x0771 [0x80] LOAD_WAIT(entity=Unnamed NPC (ID: 17855039/0x0110723F))
212: 0x0776 [0x27] REQ_SET(priority=0x05, entity_id=Unnamed NPC (ID: 17855039/0x0110723F), tag_num=0x02)
213: 0x077D [0x52] END_LOAD_SCHEDULER: End scheduler "s163" with entities [EventEntity, EventEntity], work=621*
214: 0x078C [0x45] LOAD_SCHEDULED_TASK: Load scheduler "s164" with entities [EventEntity, EventEntity], work=[621*, 0*]
215: 0x079D [0x1C] WAIT(15* ticks)
216: 0x07A0 [0x4A] Zunmimi (ID: 17855036/0x0110723C) looks at Soraa Ishakal (ID: 17855035/0x0110723B)
217: 0x07A9 [0x4A] Melisandra (ID: 17855037/0x0110723D) looks at Soraa Ishakal (ID: 17855035/0x0110723B)
218: 0x07B2 [0x6B] STOP_AND_IDLE: Soraa Ishakal (ID: 17855035/0x0110723B) stops current action and resets to idle (animation="idl0")
219: 0x07BB [0x2B] Soraa Ishakal (ID: 17855035/0x0110723B) [7906*]:
     "They can be rrretrieved from the carcasses of snapweeds you slay here in $7."
220: 0x07C2 [0x23] WAIT_FOR_DIALOG_INTERACTION
221: 0x07C3 [0x52] END_LOAD_SCHEDULER: End scheduler "s164" with entities [EventEntity, EventEntity], work=621*
222: 0x07D2 [0x45] LOAD_SCHEDULED_TASK: Load scheduler "s165" with entities [EventEntity, EventEntity], work=[621*, 0*]
223: 0x07E3 [0x2B] Soraa Ishakal (ID: 17855035/0x0110723B) [7907*]:
     "The only reason we set these trrraps in the first place was to catch snapweeds, so just give us what we want and we'll rrremove them."
224: 0x07EA [0x23] WAIT_FOR_DIALOG_INTERACTION
225: 0x07EB [0x6E] Soraa Ishakal (ID: 17855035/0x0110723B) uses emote 7*
226: 0x07F2 [0x99] Wait for Soraa Ishakal (ID: 17855035/0x0110723B) animation to complete
227: 0x07F7 [0x4E] SET_ENTITY_HIDE_FLAG: Hide Unnamed NPC (ID: 17855038/0x0110723E)
228: 0x07FD [0x4E] SET_ENTITY_HIDE_FLAG: Hide Unnamed NPC (ID: 17855039/0x0110723F)
229: 0x0803 [0x2B] Soraa Ishakal (ID: 17855035/0x0110723B) [7908*]:
     "Allow me to summarize in case all my words confused you. % and $1 in exchange for the safety of you and your mindless brrrethren."
230: 0x080A [0x23] WAIT_FOR_DIALOG_INTERACTION
231: 0x080B [0x52] END_LOAD_SCHEDULER: End scheduler "s165" with entities [EventEntity, EventEntity], work=621*
232: 0x081A [0x45] LOAD_SCHEDULED_TASK: Load scheduler "s166" with entities [EventEntity, EventEntity], work=[621*, 0*]
233: 0x082B [0x27] REQ_SET(priority=0x05, entity_id=Soraa Ishakal (ID: 17855035/0x0110723B), tag_num=0x03)
234: 0x0832 [0x2B] Soraa Ishakal (ID: 17855035/0x0110723B) [7909*]:
     "Why anyone would want to prrrotect such obvious defects of humanity, I know not. Still, I won't argue with an agrrreement that benefits the Coven."
235: 0x0839 [0x23] WAIT_FOR_DIALOG_INTERACTION
236: 0x083A [0x2A] GET_REQ_LEVEL(level=5, entity_id=Soraa Ishakal (ID: 17855035/0x0110723B))
237: 0x0840 [0x4E] SET_ENTITY_HIDE_FLAG: Hide Melisandra (ID: 17855037/0x0110723D)
238: 0x0846 [0x4E] SET_ENTITY_HIDE_FLAG: Hide Zunmimi (ID: 17855036/0x0110723C)
239: 0x084C [0x66] LOAD_EXT_SCHEDULER_MAIN: Load scheduler "sha0" with entities [Soraa Ishakal (ID: 17855035/0x0110723B), Soraa Ishakal (ID: 17855035/0x0110723B)], work=59*
240: 0x085B [0x1C] WAIT(15* ticks)
241: 0x085E [0x52] END_LOAD_SCHEDULER: End scheduler "s166" with entities [EventEntity, EventEntity], work=621*
242: 0x086D [0x45] LOAD_SCHEDULED_TASK: Load scheduler "s167" with entities [EventEntity, EventEntity], work=[621*, 0*]
243: 0x087E [0x2B] Soraa Ishakal (ID: 17855035/0x0110723B) [7910*]:
     "What do you say to our boundless larrrgesse?"
244: 0x0885 [0x23] WAIT_FOR_DIALOG_INTERACTION

SUBROUTINE_0886:
245: 0x0886 [0x24] CREATE_DIALOG(message_id=7911*, default_option=0*, option_flags=0*)
     "What do you say? [Yes, ma'am! I'll help!/Get your largesse outta my face!]"
246: 0x088D [0x25] WAIT_DIALOG_SELECT()
247: 0x088E [0x02] IF !(Work_Zone[0] == 1*) GOTO 0x08E4
248: 0x0896 [0x52] END_LOAD_SCHEDULER: End scheduler "s167" with entities [EventEntity, EventEntity], work=621*
249: 0x08A5 [0x45] LOAD_SCHEDULED_TASK: Load scheduler "s168" with entities [EventEntity, EventEntity], work=[621*, 0*]
250: 0x08B6 [0x2B] Soraa Ishakal (ID: 17855035/0x0110723B) [7912*]:
     "Very well, then. Enjoy drrreading the time of your torture."
251: 0x08BD [0x23] WAIT_FOR_DIALOG_INTERACTION
252: 0x08BE [0x52] END_LOAD_SCHEDULER: End scheduler "s168" with entities [EventEntity, EventEntity], work=621*
253: 0x08CD [0x45] LOAD_SCHEDULED_TASK: Load scheduler "s167" with entities [EventEntity, EventEntity], work=[621*, 0*]
254: 0x08DE [0x01] GOTO 0x0886

SUBROUTINE_08E4:
255: 0x08E4 [0x52] END_LOAD_SCHEDULER: End scheduler "s167" with entities [EventEntity, EventEntity], work=621*
256: 0x08F3 [0x02] IF !(LocalPlayer->Race == 8*) GOTO 0x090F
257: 0x08FB [0x45] LOAD_SCHEDULED_TASK: Load scheduler "s216" with entities [EventEntity, EventEntity], work=[621*, 0*]
258: 0x090C [0x01] GOTO 0x0920
259: 0x090F [0x45] LOAD_SCHEDULED_TASK: Load scheduler "s169" with entities [EventEntity, EventEntity], work=[621*, 0*]

SUBROUTINE_0920:
260: 0x0920 [0x66] LOAD_EXT_SCHEDULER_MAIN: Load scheduler "sha1" with entities [Soraa Ishakal (ID: 17855035/0x0110723B), Soraa Ishakal (ID: 17855035/0x0110723B)], work=59*
261: 0x092F [0x2B] Soraa Ishakal (ID: 17855035/0x0110723B) [7913*]:
     "It seems you're intelligent enough to at least grrrasp what your betters say."
262: 0x0936 [0x23] WAIT_FOR_DIALOG_INTERACTION
263: 0x0937 [0x81] SET_ENTITY_BLINKING(blink_flag=0x00, entity=Soraa Ishakal (ID: 17855035/0x0110723B))
264: 0x093D [0x5B] LOAD_EXT_SCHEDULER: Load scheduler "pat0" with entities [Soraa Ishakal (ID: 17855035/0x0110723B), Soraa Ishakal (ID: 17855035/0x0110723B)], work=3183*
265: 0x094C [0x1C] WAIT(15* ticks)
266: 0x094F [0x52] END_LOAD_SCHEDULER: End scheduler "s169" with entities [EventEntity, EventEntity], work=621*
267: 0x095E [0x52] END_LOAD_SCHEDULER: End scheduler "s216" with entities [EventEntity, EventEntity], work=621*
268: 0x096D [0x45] LOAD_SCHEDULED_TASK: Load scheduler "s170" with entities [EventEntity, EventEntity], work=[621*, 0*]
269: 0x097E [0x1C] WAIT(90* ticks)
270: 0x0981 [0x52] END_LOAD_SCHEDULER: End scheduler "s170" with entities [EventEntity, EventEntity], work=621*
271: 0x0990 [0x45] LOAD_SCHEDULED_TASK: Load scheduler "s171" with entities [EventEntity, EventEntity], work=[621*, 0*]
272: 0x09A1 [0xCD] LOAD_SCHEDULED_TASK_ALT4: Load scheduler "st02" with entities [LocalPlayer, LocalPlayer], work=[14*, 0*]
273: 0x09B2 [0x1C] WAIT(30* ticks)
274: 0x09B5 [0x4E] SET_ENTITY_HIDE_FLAG: Show Melisandra (ID: 17855037/0x0110723D)
275: 0x09BB [0x4E] SET_ENTITY_HIDE_FLAG: Show Zunmimi (ID: 17855036/0x0110723C)
276: 0x09C1 [0xBA] SET_ENTITY_POSITION(entity_id=Melisandra (ID: 17855037/0x0110723D), pos_x=258.443*, pos_z=396.768*, pos_y=0.123*, direction=100.2*)
277: 0x09CE [0xBA] SET_ENTITY_POSITION(entity_id=Zunmimi (ID: 17855036/0x0110723C), pos_x=256.964*, pos_z=397.081*, pos_y=0.181*, direction=100.2*)
278: 0x09DB [0x4A] Melisandra (ID: 17855037/0x0110723D) looks at Soraa Ishakal (ID: 17855035/0x0110723B)
279: 0x09E4 [0x4A] Zunmimi (ID: 17855036/0x0110723C) looks at Soraa Ishakal (ID: 17855035/0x0110723B)
280: 0x09ED [0x7B] Zunmimi (ID: 17855036/0x0110723C) stops talking
281: 0x09F2 [0x1C] WAIT(100* ticks)
282: 0x09F5 [0x52] END_LOAD_SCHEDULER: End scheduler "s171" with entities [EventEntity, EventEntity], work=621*
283: 0x0A04 [0x45] LOAD_SCHEDULED_TASK: Load scheduler "s172" with entities [EventEntity, EventEntity], work=[621*, 0*]
284: 0x0A15 [0x66] LOAD_EXT_SCHEDULER_MAIN: Load scheduler "thk1" with entities [Melisandra (ID: 17855037/0x0110723D), Melisandra (ID: 17855037/0x0110723D)], work=19*
285: 0x0A24 [0x1C] WAIT(15* ticks)
286: 0x0A27 [0x81] SET_ENTITY_BLINKING(blink_flag=0x01, entity=Soraa Ishakal (ID: 17855035/0x0110723B))
287: 0x0A2D [0x6B] STOP_AND_IDLE: Soraa Ishakal (ID: 17855035/0x0110723B) stops current action and resets to idle (animation="idl0")
288: 0x0A36 [0x4A] Soraa Ishakal (ID: 17855035/0x0110723B) looks at Zunmimi (ID: 17855036/0x0110723C)
289: 0x0A3F [0x6B] STOP_AND_IDLE: LocalPlayer stops current action and resets to idle (animation="idl0")
290: 0x0A48 [0x4A] LocalPlayer looks at Soraa Ishakal (ID: 17855035/0x0110723B)
291: 0x0A51 [0x1C] WAIT(15* ticks)
292: 0x0A54 [0x2B] Melisandra (ID: 17855037/0x0110723D) [7914*]:
     "...Interesting."
293: 0x0A5B [0x23] WAIT_FOR_DIALOG_INTERACTION
294: 0x0A5C [0x1C] WAIT(15* ticks)
295: 0x0A5F [0x27] REQ_SET(priority=0x05, entity_id=LocalPlayer, tag_num=0x04)
296: 0x0A66 [0x66] LOAD_EXT_SCHEDULER_MAIN: Load scheduler "tlk0" with entities [Zunmimi (ID: 17855036/0x0110723C), Zunmimi (ID: 17855036/0x0110723C)], work=49*
297: 0x0A75 [0x2B] Zunmimi (ID: 17855036/0x0110723C) [7915*]:
     "What a brightaru idea, Soraa!"
298: 0x0A7C [0x23] WAIT_FOR_DIALOG_INTERACTION
299: 0x0A7D [0x66] LOAD_EXT_SCHEDULER_MAIN: Load scheduler "tlk1" with entities [Zunmimi (ID: 17855036/0x0110723C), Zunmimi (ID: 17855036/0x0110723C)], work=49*
300: 0x0A8C [0x52] END_LOAD_SCHEDULER: End scheduler "s172" with entities [EventEntity, EventEntity], work=621*
301: 0x0A9B [0x45] LOAD_SCHEDULED_TASK: Load scheduler "s173" with entities [EventEntity, EventEntity], work=[621*, 0*]
302: 0x0AAC [0x6E] Soraa Ishakal (ID: 17855035/0x0110723B) uses emote 22*
303: 0x0AB3 [0x99] Wait for Soraa Ishakal (ID: 17855035/0x0110723B) animation to complete
304: 0x0AB8 [0x2B] Soraa Ishakal (ID: 17855035/0x0110723B) [7916*]:
     "You expected anything less than brrrilliance from me? I'm shocked."
305: 0x0ABF [0x1C] WAIT(30* ticks)
306: 0x0AC2 [0x66] LOAD_EXT_SCHEDULER_MAIN: Load scheduler "thk2" with entities [Melisandra (ID: 17855037/0x0110723D), Melisandra (ID: 17855037/0x0110723D)], work=19*
307: 0x0AD1 [0x23] WAIT_FOR_DIALOG_INTERACTION
308: 0x0AD2 [0x2A] GET_REQ_LEVEL(level=5, entity_id=LocalPlayer)
309: 0x0AD8 [0x52] END_LOAD_SCHEDULER: End scheduler "s173" with entities [EventEntity, EventEntity], work=621*
310: 0x0AE7 [0x45] LOAD_SCHEDULED_TASK: Load scheduler "s174" with entities [EventEntity, EventEntity], work=[621*, 0*]
311: 0x0AF8 [0x4A] Soraa Ishakal (ID: 17855035/0x0110723B) looks at LocalPlayer
312: 0x0B01 [0x1C] WAIT(30* ticks)
313: 0x0B04 [0x27] REQ_SET(priority=0x05, entity_id=LocalPlayer, tag_num=0x05)
314: 0x0B0B [0x2B] Soraa Ishakal (ID: 17855035/0x0110723B) [7917*]:
     "Off with you. The longer you dawdle, the more of your frrriends get caught in our traps."
315: 0x0B12 [0x23] WAIT_FOR_DIALOG_INTERACTION
316: 0x0B13 [0x6E] Soraa Ishakal (ID: 17855035/0x0110723B) uses emote 0*
317: 0x0B1A [0x99] Wait for Soraa Ishakal (ID: 17855035/0x0110723B) animation to complete
318: 0x0B1F [0x52] END_LOAD_SCHEDULER: End scheduler "s174" with entities [EventEntity, EventEntity], work=621*
319: 0x0B2E [0x45] LOAD_SCHEDULED_TASK: Load scheduler "s175" with entities [EventEntity, EventEntity], work=[621*, 0*]
320: 0x0B3F [0x2B] Soraa Ishakal (ID: 17855035/0x0110723B) [7918*]:
     "And don't even think of brrreaking our pact, unless you want to see the flesh slowly seared from every pioneer who sets foot in the weald!"
321: 0x0B46 [0x23] WAIT_FOR_DIALOG_INTERACTION
322: 0x0B47 [0x52] END_LOAD_SCHEDULER: End scheduler "s175" with entities [EventEntity, EventEntity], work=621*
323: 0x0B56 [0x45] LOAD_SCHEDULED_TASK: Load scheduler "s176" with entities [EventEntity, EventEntity], work=[621*, 0*]
324: 0x0B67 [0x73] Soraa Ishakal (ID: 17855035/0x0110723B) casts magic 264* on Soraa Ishakal (ID: 17855035/0x0110723B)
325: 0x0B72 [0x1C] WAIT(30* ticks)
326: 0x0B75 [0x73] Zunmimi (ID: 17855036/0x0110723C) casts magic 264* on Zunmimi (ID: 17855036/0x0110723C)
327: 0x0B80 [0x1C] WAIT(30* ticks)
328: 0x0B83 [0x73] Melisandra (ID: 17855037/0x0110723D) casts magic 264* on Melisandra (ID: 17855037/0x0110723D)
329: 0x0B8E [0x1C] WAIT(180* ticks)
330: 0x0B91 [0x52] END_LOAD_SCHEDULER: End scheduler "s176" with entities [EventEntity, EventEntity], work=621*
331: 0x0BA0 [0x45] LOAD_SCHEDULED_TASK: Load scheduler "s177" with entities [EventEntity, EventEntity], work=[621*, 0*]
332: 0x0BB1 [0x4E] SET_ENTITY_HIDE_FLAG: Show Nashu (ID: 17855034/0x0110723A)
333: 0x0BB7 [0x80] LOAD_WAIT(entity=Nashu (ID: 17855034/0x0110723A))
334: 0x0BBC [0x27] REQ_SET(priority=0x05, entity_id=Nashu (ID: 17855034/0x0110723A), tag_num=0x02)
335: 0x0BC3 [0x1C] WAIT(60* ticks)
336: 0x0BC6 [0x4A] LocalPlayer looks at Nashu (ID: 17855034/0x0110723A)
337: 0x0BCF [0x2B] Nashu (ID: 17855034/0x0110723A) [7919*]:
     "Please forgive my prolonged tardiness, <Player>!"
338: 0x0BD6 [0x23] WAIT_FOR_DIALOG_INTERACTION
339: 0x0BD7 [0x2A] GET_REQ_LEVEL(level=5, entity_id=Nashu (ID: 17855034/0x0110723A))
340: 0x0BDD [0x6E] Nashu (ID: 17855034/0x0110723A) uses emote 36*
341: 0x0BE4 [0x99] Wait for Nashu (ID: 17855034/0x0110723A) animation to complete
342: 0x0BE9 [0x2B] Nashu (ID: 17855034/0x0110723A) [7920*]:
     "Let's lie in wait here until the Blackthorn Coven arrives!"
343: 0x0BF0 [0x23] WAIT_FOR_DIALOG_INTERACTION
344: 0x0BF1 [0x52] END_LOAD_SCHEDULER: End scheduler "s177" with entities [EventEntity, EventEntity], work=621*
345: 0x0C00 [0x45] LOAD_SCHEDULED_TASK: Load scheduler "s179" with entities [EventEntity, EventEntity], work=[621*, 0*]
346: 0x0C11 [0x27] REQ_SET(priority=0x05, entity_id=LocalPlayer, tag_num=0x12)
347: 0x0C18 [0x1C] WAIT(80* ticks)
348: 0x0C1B [0x27] REQ_SET(priority=0x05, entity_id=LocalPlayer, tag_num=0x13)
349: 0x0C22 [0x1C] WAIT(40* ticks)
350: 0x0C25 [0x6E] Nashu (ID: 17855034/0x0110723A) uses emote 21*
351: 0x0C2C [0x99] Wait for Nashu (ID: 17855034/0x0110723A) animation to complete
352: 0x0C31 [0x2B] Nashu (ID: 17855034/0x0110723A) [7921*]:
     "What? You mean to say that you've already parleyed with that force of ultimate evil!? How unorthodox!"
353: 0x0C38 [0x23] WAIT_FOR_DIALOG_INTERACTION
354: 0x0C39 [0x66] LOAD_EXT_SCHEDULER_MAIN: Load scheduler "thk1" with entities [Nashu (ID: 17855034/0x0110723A), Nashu (ID: 17855034/0x0110723A)], work=9*
355: 0x0C48 [0x2B] Nashu (ID: 17855034/0x0110723A) [7922*]:
     "They...want you to find $2 $0 and $2 $0$0 ?"
356: 0x0C4F [0x23] WAIT_FOR_DIALOG_INTERACTION
357: 0x0C50 [0x52] END_LOAD_SCHEDULER: End scheduler "s179" with entities [EventEntity, EventEntity], work=621*
358: 0x0C5F [0x45] LOAD_SCHEDULED_TASK: Load scheduler "s178" with entities [EventEntity, EventEntity], work=[621*, 0*]
359: 0x0C70 [0x66] LOAD_EXT_SCHEDULER_MAIN: Load scheduler "thk2" with entities [Nashu (ID: 17855034/0x0110723A), Nashu (ID: 17855034/0x0110723A)], work=9*
360: 0x0C7F [0x2B] Nashu (ID: 17855034/0x0110723A) [7923*]:
     "...I see. I suppose it all makes sense if they only set those traps to loot the fiends they catch..."
361: 0x0C86 [0x23] WAIT_FOR_DIALOG_INTERACTION
362: 0x0C87 [0x6E] Nashu (ID: 17855034/0x0110723A) uses emote 7*
363: 0x0C8E [0x99] Wait for Nashu (ID: 17855034/0x0110723A) animation to complete
364: 0x0C93 [0x03] Work_Zone[4] = 1*
365: 0x0C98 [0x2B] Nashu (ID: 17855034/0x0110723A) [7924*]:
     "What say you to me assuming some of the workload? It's the least I can do after making you face the Coven alone. I'll take $2 $0 , and you can take the rest!"
366: 0x0C9F [0x23] WAIT_FOR_DIALOG_INTERACTION
367: 0x0CA0 [0x52] END_LOAD_SCHEDULER: End scheduler "s178" with entities [EventEntity, EventEntity], work=621*
368: 0x0CAF [0x45] LOAD_SCHEDULED_TASK: Load scheduler "s180" with entities [EventEntity, EventEntity], work=[621*, 0*]
369: 0x0CC0 [0x66] LOAD_EXT_SCHEDULER_MAIN: Load scheduler "tlk0" with entities [Nashu (ID: 17855034/0x0110723A), Nashu (ID: 17855034/0x0110723A)], work=9*
370: 0x0CCF [0x2B] Nashu (ID: 17855034/0x0110723A) [7925*]:
     "Obviously, I want nothing more than to rid the woods of these goddessforsaken traps..."
371: 0x0CD6 [0x23] WAIT_FOR_DIALOG_INTERACTION
372: 0x0CD7 [0x2B] Nashu (ID: 17855034/0x0110723A) [7926*]:
     "...but giving the Blackthorn Coven what they want also ensures another rendezvous with them."
373: 0x0CDE [0x23] WAIT_FOR_DIALOG_INTERACTION
374: 0x0CDF [0x2B] Nashu (ID: 17855034/0x0110723A) [7927*]:
     "We simply can't have these atrocities incarnate skulking around as if this is their rightful domain. Who knows what terrible plots seething with ire they'd hatch if left to their own devices!"
375: 0x0CE6 [0x23] WAIT_FOR_DIALOG_INTERACTION
376: 0x0CE7 [0x66] LOAD_EXT_SCHEDULER_MAIN: Load scheduler "tlk1" with entities [Nashu (ID: 17855034/0x0110723A), Nashu (ID: 17855034/0x0110723A)], work=9*
377: 0x0CF6 [0x52] END_LOAD_SCHEDULER: End scheduler "s180" with entities [EventEntity, EventEntity], work=621*
378: 0x0D05 [0x45] LOAD_SCHEDULED_TASK: Load scheduler "s181" with entities [EventEntity, EventEntity], work=[621*, 0*]
379: 0x0D16 [0x2B] Nashu (ID: 17855034/0x0110723A) [7928*]:
     "In order to gain the upper hand, let's meet back here once we've found both the $0 and $1."
380: 0x0D1D [0x23] WAIT_FOR_DIALOG_INTERACTION
381: 0x0D1E [0x66] LOAD_EXT_SCHEDULER_MAIN: Load scheduler "tlk0" with entities [Nashu (ID: 17855034/0x0110723A), Nashu (ID: 17855034/0x0110723A)], work=149*
382: 0x0D2D [0x2B] Nashu (ID: 17855034/0x0110723A) [7929*]:
     "I'll give you my portion when we reconvene, then immediately hide amongst the vegetation. When those abhorrent witches appear, hand over the articles."
383: 0x0D34 [0x23] WAIT_FOR_DIALOG_INTERACTION
384: 0x0D35 [0x52] END_LOAD_SCHEDULER: End scheduler "s181" with entities [EventEntity, EventEntity], work=621*
385: 0x0D44 [0x45] LOAD_SCHEDULED_TASK: Load scheduler "s182" with entities [EventEntity, EventEntity], work=[621*, 0*]
386: 0x0D55 [0x2B] Nashu (ID: 17855034/0x0110723A) [7930*]:
     "Then, just when they let their guard down, I'll detain them all! Yes, this plan is so foolproof that not even an unconscious Velkk could foul it up!"
387: 0x0D5C [0x23] WAIT_FOR_DIALOG_INTERACTION
388: 0x0D5D [0x45] LOAD_SCHEDULED_TASK: Load scheduler "fdo1" with entities [EventEntity, EventEntity], work=[200*, 0*]
389: 0x0D6E [0x55] WAIT_LOAD_SCHEDULER: Wait for scheduler "fdo1" with entities [EventEntity, EventEntity], work=200*
390: 0x0D7D [0x52] END_LOAD_SCHEDULER: End scheduler "s182" with entities [EventEntity, EventEntity], work=621*
391: 0x0D8C [0x46] CAMERA_CONTROL: Restore default settings
392: 0x0D8E [0x45] LOAD_SCHEDULED_TASK: Load scheduler "fdi2" with entities [EventEntity, EventEntity], work=[200*, 0*]
393: 0x0D9F [0x21] END_EVENT
394: 0x0DA0 [0x00] END_REQSTACK()
```

#### Data or dead code:

```
# Dead code (unreachable instructions):
     0x08E1 [0x01] GOTO 0x08E4
```

### Event 103

#### Metadata

| Field        | Value     |
|--------------|-----------|
| Entrypoint   | 0x0DA1    |
| Data Size    | 384 bytes |
| Instructions | 48        |

```
      00 01 02 03 04 05 06 07  08 09 0A 0B 0C 0D 0E 0F
      -- -- -- -- -- -- -- --  -- -- -- -- -- -- -- --
0DA0:    42 45 02 80 F8 FF FF  7F F8 FF FF 7F 66 64 6F   BE..........fdo
0DB0: 31 00 80 55 02 80 F8 FF  FF 7F F8 FF FF 7F 66 64  1..U..........fd
0DC0: 6F 31 46 01 38 03 80 2F  00 3A 72 10 01 94 01 F0  o1F.8../.:r.....
0DD0: FF FF 7F 94 01 3A 72 10  01 4E 00 3A 72 10 01 BA  .....:r..N.:r...
0DE0: F0 FF FF 7F 7A 80 7B 80  7C 80 7D 80 BA 3A 72 10  ....z.{.|.}..:r.
0DF0: 01 7E 80 7F 80 80 80 81  80 80 3A 72 10 01 80 F0  .~........:r....
0E00: FF FF 7F 4A F0 FF FF 7F  3A 72 10 01 4A 3A 72 10  ...J....:r..J:r.
0E10: 01 F0 FF FF 7F 1C 08 80  27 05 3A 72 10 01 04 45  ........'.:r...E
0E20: 09 80 F8 FF FF 7F F8 FF  FF 7F 73 31 38 33 00 80  ..........s183..
0E30: 1C 3D 80 45 02 80 F8 FF  FF 7F F8 FF FF 7F 66 64  .=.E..........fd
0E40: 69 31 00 80 2B 3A 72 10  01 82 80 23 6E F0 FF FF  i1..+:r....#n...
0E50: 7F 0D 80 99 F0 FF FF 7F  1C 12 80 52 09 80 F8 FF  ...........R....
0E60: FF 7F F8 FF FF 7F 73 31  38 33 45 09 80 F8 FF FF  ......s183E.....
0E70: 7F F8 FF FF 7F 73 31 38  34 00 80 6E 3A 72 10 01  .....s184..n:r..
0E80: 0D 80 99 3A 72 10 01 03  02 10 4F 80 03 03 10 50  ...:r.....O....P
0E90: 80 03 04 10 15 80 2B 3A  72 10 01 83 80 23 52 09  ......+:r....#R.
0EA0: 80 F8 FF FF 7F F8 FF FF  7F 73 31 38 34 45 09 80  .........s184E..
0EB0: F8 FF FF 7F F8 FF FF 7F  73 32 31 37 00 80 66 6F  ........s217..fo
0EC0: 80 3A 72 10 01 3A 72 10  01 74 6C 6B 30 03 04 10  .:r..:r..tlk0...
0ED0: 14 80 2B 3A 72 10 01 84  80 23 45 02 80 F8 FF FF  ..+:r....#E.....
0EE0: 7F F8 FF FF 7F 66 64 6F  31 00 80 55 02 80 F8 FF  .....fdo1..U....
0EF0: FF 7F F8 FF FF 7F 66 64  6F 31 52 09 80 F8 FF FF  ......fdo1R.....
0F00: 7F F8 FF FF 7F 73 32 31  37 46 00 1C 3C 80 45 02  .....s217F..<.E.
0F10: 80 F8 FF FF 7F F8 FF FF  7F 66 64 69 32 00 80 21  .........fdi2..!
0F20: 00                                                .               
```

#### Opcodes

```
  0: 0x0DA1 [0x42] SET_CLI_EVENT_CANCEL_DATA()
  1: 0x0DA2 [0x45] LOAD_SCHEDULED_TASK: Load scheduler "fdo1" with entities [EventEntity, EventEntity], work=[200*, 0*]
  2: 0x0DB3 [0x55] WAIT_LOAD_SCHEDULER: Wait for scheduler "fdo1" with entities [EventEntity, EventEntity], work=200*
  3: 0x0DC2 [0x46] CAMERA_CONTROL: Disable user control
  4: 0x0DC4 [0x38] SET_CLIENT_EVENT_MODE(mode=19*)
  5: 0x0DC7 [0x2F] Nashu (ID: 17855034/0x0110723A)->Render.Flags0 &= ~0x80000 // Bit 19
  6: 0x0DCD [0x94] LocalPlayer->Render.Flags3 ^= 0x01
  7: 0x0DD3 [0x94] Nashu (ID: 17855034/0x0110723A)->Render.Flags3 ^= 0x01
  8: 0x0DD9 [0x4E] SET_ENTITY_HIDE_FLAG: Show Nashu (ID: 17855034/0x0110723A)
  9: 0x0DDF [0xBA] SET_ENTITY_POSITION(entity_id=LocalPlayer, pos_x=253.994*, pos_z=385.908*, pos_y=-2.331*, direction=78.8*)
 10: 0x0DEC [0xBA] SET_ENTITY_POSITION(entity_id=Nashu (ID: 17855034/0x0110723A), pos_x=257.973*, pos_z=391.230*, pos_y=-1.166*, direction=115.5*)
 11: 0x0DF9 [0x80] LOAD_WAIT(entity=Nashu (ID: 17855034/0x0110723A))
 12: 0x0DFE [0x80] LOAD_WAIT(entity=LocalPlayer)
 13: 0x0E03 [0x4A] LocalPlayer looks at Nashu (ID: 17855034/0x0110723A)
 14: 0x0E0C [0x4A] Nashu (ID: 17855034/0x0110723A) looks at LocalPlayer
 15: 0x0E15 [0x1C] WAIT(30* ticks)
 16: 0x0E18 [0x27] REQ_SET(priority=0x05, entity_id=Nashu (ID: 17855034/0x0110723A), tag_num=0x04)
 17: 0x0E1F [0x45] LOAD_SCHEDULED_TASK: Load scheduler "s183" with entities [EventEntity, EventEntity], work=[621*, 0*]
 18: 0x0E30 [0x1C] WAIT(15* ticks)
 19: 0x0E33 [0x45] LOAD_SCHEDULED_TASK: Load scheduler "fdi1" with entities [EventEntity, EventEntity], work=[200*, 0*]
 20: 0x0E44 [0x2B] Nashu (ID: 17855034/0x0110723A) [7931*]:
     "My dear <Player>! Are you ready to shift our plan into the next phase, perhaps?"
 21: 0x0E4B [0x23] WAIT_FOR_DIALOG_INTERACTION
 22: 0x0E4C [0x6E] LocalPlayer uses emote 6*
 23: 0x0E53 [0x99] Wait for LocalPlayer animation to complete
 24: 0x0E58 [0x1C] WAIT(90* ticks)
 25: 0x0E5B [0x52] END_LOAD_SCHEDULER: End scheduler "s183" with entities [EventEntity, EventEntity], work=621*
 26: 0x0E6A [0x45] LOAD_SCHEDULED_TASK: Load scheduler "s184" with entities [EventEntity, EventEntity], work=[621*, 0*]
 27: 0x0E7B [0x6E] Nashu (ID: 17855034/0x0110723A) uses emote 6*
 28: 0x0E82 [0x99] Wait for Nashu (ID: 17855034/0x0110723A) animation to complete
 29: 0x0E87 [0x03] Work_Zone[2] = 4031*
 30: 0x0E8C [0x03] Work_Zone[3] = 4032*
 31: 0x0E91 [0x03] Work_Zone[4] = 2*
 32: 0x0E96 [0x2B] Nashu (ID: 17855034/0x0110723A) [7932*]:
     "...To tell the truth, neither am I. The Blackthorn Coven wants us to procure $2 $0 and $2 $0$0 , right?"
 33: 0x0E9D [0x23] WAIT_FOR_DIALOG_INTERACTION
 34: 0x0E9E [0x52] END_LOAD_SCHEDULER: End scheduler "s184" with entities [EventEntity, EventEntity], work=621*
 35: 0x0EAD [0x45] LOAD_SCHEDULED_TASK: Load scheduler "s217" with entities [EventEntity, EventEntity], work=[621*, 0*]
 36: 0x0EBE [0x66] LOAD_EXT_SCHEDULER_MAIN: Load scheduler "tlk0" with entities [Nashu (ID: 17855034/0x0110723A), Nashu (ID: 17855034/0x0110723A)], work=9*
 37: 0x0ECD [0x03] Work_Zone[4] = 1*
 38: 0x0ED2 [0x2B] Nashu (ID: 17855034/0x0110723A) [7933*]:
     "Like I said before, I'll take the $2 $0 , so you only need worry about the rest. Fare thee well, <Player>!"
 39: 0x0ED9 [0x23] WAIT_FOR_DIALOG_INTERACTION
 40: 0x0EDA [0x45] LOAD_SCHEDULED_TASK: Load scheduler "fdo1" with entities [EventEntity, EventEntity], work=[200*, 0*]
 41: 0x0EEB [0x55] WAIT_LOAD_SCHEDULER: Wait for scheduler "fdo1" with entities [EventEntity, EventEntity], work=200*
 42: 0x0EFA [0x52] END_LOAD_SCHEDULER: End scheduler "s217" with entities [EventEntity, EventEntity], work=621*
 43: 0x0F09 [0x46] CAMERA_CONTROL: Restore default settings
 44: 0x0F0B [0x1C] WAIT(60* ticks)
 45: 0x0F0E [0x45] LOAD_SCHEDULED_TASK: Load scheduler "fdi2" with entities [EventEntity, EventEntity], work=[200*, 0*]
 46: 0x0F1F [0x21] END_EVENT
 47: 0x0F20 [0x00] END_REQSTACK()
```

### Event 104

#### Metadata

| Field        | Value      |
|--------------|------------|
| Entrypoint   | 0x0F21     |
| Data Size    | 2054 bytes |
| Instructions | 233        |

```
      00 01 02 03 04 05 06 07  08 09 0A 0B 0C 0D 0E 0F
      -- -- -- -- -- -- -- --  -- -- -- -- -- -- -- --
0F20:    42 45 02 80 F8 FF FF  7F F8 FF FF 7F 66 64 6F   BE..........fdo
0F30: 31 00 80 55 02 80 F8 FF  FF 7F F8 FF FF 7F 66 64  1..U..........fd
0F40: 6F 31 46 01 38 03 80 2F  00 3A 72 10 01 2F 00 3B  o1F.8../.:r../.;
0F50: 72 10 01 2F 00 3C 72 10  01 2F 00 3D 72 10 01 94  r../.<r../.=r...
0F60: 01 3B 72 10 01 94 01 3C  72 10 01 94 01 3D 72 10  .;r....<r....=r.
0F70: 01 94 01 F0 FF FF 7F 94  01 3A 72 10 01 4E 00 3A  .........:r..N.:
0F80: 72 10 01 33 01 BA 3B 72  10 01 85 80 86 80 87 80  r..3..;r........
0F90: 88 80 BA 3C 72 10 01 89  80 8A 80 8B 80 88 80 BA  ...<r...........
0FA0: 3D 72 10 01 8C 80 8D 80  8E 80 88 80 BA F0 FF FF  =r..............
0FB0: 7F 7A 80 7B 80 7C 80 7D  80 BA 3A 72 10 01 7E 80  .z.{.|.}..:r..~.
0FC0: 7F 80 80 80 81 80 80 3A  72 10 01 80 F0 FF FF 7F  .......:r.......
0FD0: 4A F0 FF FF 7F 3A 72 10  01 4A 3A 72 10 01 F0 FF  J....:r..J:r....
0FE0: FF 7F 1C 08 80 27 05 3A  72 10 01 06 45 09 80 F8  .....'.:r...E...
0FF0: FF FF 7F F8 FF FF 7F 73  31 38 33 00 80 1C 3D 80  .......s183...=.
1000: 45 02 80 F8 FF FF 7F F8  FF FF 7F 66 64 69 31 00  E..........fdi1.
1010: 80 2B 3A 72 10 01 8F 80  23 2A 05 3A 72 10 01 52  .+:r....#*.:r..R
1020: 09 80 F8 FF FF 7F F8 FF  FF 7F 73 31 38 33 45 09  ..........s183E.
1030: 80 F8 FF FF 7F F8 FF FF  7F 73 31 38 34 00 80 6E  .........s184..n
1040: 3A 72 10 01 1C 80 99 3A  72 10 01 2B 3A 72 10 01  :r.....:r..+:r..
1050: 90 80 23 52 09 80 F8 FF  FF 7F F8 FF FF 7F 73 31  ..#R..........s1
1060: 38 34 45 09 80 F8 FF FF  7F F8 FF FF 7F 73 31 38  84E..........s18
1070: 35 00 80 27 05 3A 72 10  01 07 7B 3A 72 10 01 1C  5..'.:r...{:r...
1080: 1B 80 52 09 80 F8 FF FF  7F F8 FF FF 7F 73 31 38  ..R..........s18
1090: 35 45 09 80 F8 FF FF 7F  F8 FF FF 7F 73 31 38 36  5E..........s186
10A0: 00 80 4E 00 3B 72 10 01  4E 00 3C 72 10 01 4E 00  ..N.;r..N.<r..N.
10B0: 3D 72 10 01 80 3B 72 10  01 80 3C 72 10 01 80 3D  =r...;r...<r...=
10C0: 72 10 01 27 05 3B 72 10  01 05 1C 0C 80 27 05 3C  r..'.;r......'.<
10D0: 72 10 01 03 1C 0C 80 27  05 3D 72 10 01 03 1C 3D  r......'.=r....=
10E0: 80 4A F0 FF FF 7F 3B 72  10 01 03 02 10 4F 80 03  .J....;r.....O..
10F0: 03 10 50 80 2B 3B 72 10  01 91 80 23 2A 05 3B 72  ..P.+;r....#*.;r
1100: 10 01 52 09 80 F8 FF FF  7F F8 FF FF 7F 73 31 38  ..R..........s18
1110: 36 45 09 80 F8 FF FF 7F  F8 FF FF 7F 73 31 38 37  6E..........s187
