# 0x7FFFFFF0 - Zone Events

## Common Data

| Field            | Value                  |
|------------------|------------------------|
| Zone             | Yorcia Weald (ID: 263) |
| Block Size       | 4028 bytes             |
| Total Events     | 52                     |
| References Count | 156                    |

## List of Events

| Event ID                   | Entrypoint   |   Size |   Instructions |
|----------------------------|--------------|--------|----------------|
| [65535](#event-65535)      | 0x0000       |      1 |              1 |
| [65534](#event-65534)      | 0x0001       |      1 |              1 |
| [65535.1](#event-655351)   | 0x0002       |      6 |              2 |
| [65535.2](#event-655352)   | 0x0008       |      6 |              2 |
| [65535.3](#event-655353)   | 0x000E       |     37 |              5 |
| [65535.4](#event-655354)   | 0x0033       |     37 |              5 |
| [65535.5](#event-655355)   | 0x0058       |      7 |              3 |
| [65535.6](#event-655356)   | 0x005F       |    155 |             35 |
| [65535.7](#event-655357)   | 0x00FA       |     14 |              4 |
| [65535.8](#event-655358)   | 0x0108       |     14 |              4 |
| [65535.9](#event-655359)   | 0x0116       |     22 |              6 |
| [65535.10](#event-6553510) | 0x012C       |     22 |              6 |
| [65535.11](#event-6553511) | 0x0142       |     32 |              8 |
| [65535.12](#event-6553512) | 0x0162       |     22 |              6 |
| [65535.13](#event-6553513) | 0x0178       |     22 |              6 |
| [65535.14](#event-6553514) | 0x018E       |     14 |              4 |
| [65535.15](#event-6553515) | 0x019C       |     22 |              6 |
| [65535.16](#event-6553516) | 0x01B2       |     14 |              4 |
| [65535.17](#event-6553517) | 0x01C0       |     24 |              4 |
| [65535.18](#event-6553518) | 0x01D8       |     24 |              4 |
| [65535.19](#event-6553519) | 0x01F0       |     27 |              5 |
| [65535.20](#event-6553520) | 0x020B       |     24 |              4 |
| [65535.21](#event-6553521) | 0x0223       |     37 |              5 |
| [65535.22](#event-6553522) | 0x0248       |     37 |              5 |
| [65535.23](#event-6553523) | 0x026D       |     42 |              6 |
| [65535.24](#event-6553524) | 0x0297       |     29 |              5 |
| [65535.25](#event-6553525) | 0x02B4       |     15 |              5 |
| [65535.26](#event-6553526) | 0x02C3       |     15 |              5 |
| [65535.27](#event-6553527) | 0x02D2       |     15 |              5 |
| [65535.28](#event-6553528) | 0x02E1       |     29 |              5 |
| [65535.29](#event-6553529) | 0x02FE       |     25 |              6 |
| [65535.30](#event-6553530) | 0x0317       |     14 |              4 |
| [65535.31](#event-6553531) | 0x0325       |    366 |             43 |
| [65535.32](#event-6553532) | 0x0493       |    353 |             41 |
| [65535.33](#event-6553533) | 0x05F4       |     20 |              6 |
| [65535.34](#event-6553534) | 0x0608       |     19 |              5 |
| [65535.35](#event-6553535) | 0x061B       |      4 |              2 |
| [65535.36](#event-6553536) | 0x061F       |     14 |              4 |
| [65535.37](#event-6553537) | 0x062D       |     34 |              8 |
| [65535.38](#event-6553538) | 0x064F       |     14 |              4 |
| [65535.39](#event-6553539) | 0x065D       |      7 |              3 |
| [65535.40](#event-6553540) | 0x0664       |      7 |              3 |
| [65535.41](#event-6553541) | 0x066B       |     14 |              4 |
| [65535.42](#event-6553542) | 0x0679       |     27 |              3 |
| [65535.43](#event-6553543) | 0x0694       |     37 |              5 |
| [65535.44](#event-6553544) | 0x06B9       |     37 |              5 |
| [5](#event-5)              | 0x06DE       |      1 |              1 |
| [65535.45](#event-6553545) | 0x06DF       |     30 |              8 |
| [65535.46](#event-6553546) | 0x06FD       |     14 |              4 |
| [65535.47](#event-6553547) | 0x070B       |     14 |              4 |
| [5515](#event-5515)        | 0x0719       |   1234 |            244 |
| [5504](#event-5504)        | 0x0BEB       |    128 |             14 |

## DAT References (imed_data)

|   Index | Hex Value   |   Dec Value |
|---------|-------------|-------------|
|       0 | 0x0001      |           1 |
|       1 | 0x0000      |           0 |
|       2 | 0x0005      |           5 |
|       3 | 0x0002      |           2 |
|       4 | 0x000A      |          10 |
|       5 | 0x0009      |           9 |
|       6 | 0x0046      |          70 |
|       7 | 0x008C      |         140 |
|       8 | 0x00D2      |         210 |
|       9 | 0x000D      |          13 |
|      10 | 0x3F54E     |      259406 |
|      11 | 0x60E06     |      396806 |
|      12 | 0x00A4      |         164 |
|      13 | 0x3E444     |      255044 |
|      14 | 0x5E0AF     |      385199 |
|      15 | 0xFFFFF699  |  4294964889 |
|      16 | 0x0028      |          40 |
|      17 | 0x3D1C1     |      250305 |
|      18 | 0x60BAF     |      396207 |
|      19 | 0xFFFFFF06  |  4294967046 |
|      20 | 0x001E      |          30 |
|      21 | 0x585D3     |      361939 |
|      22 | 0x2400E     |      147470 |
|      23 | 0x0187      |         391 |
|      24 | 0x3FA62     |      260706 |
|      25 | 0x612DE     |      398046 |
|      26 | 0x01C9      |         457 |
|      27 | 0x0020      |          32 |
|      28 | 0x005A      |          90 |
|      29 | 0x4177A     |      268154 |
|      30 | 0x50D1      |       20689 |
|      31 | 0x0870      |        2160 |
|      32 | 0x280AA     |      164010 |
|      33 | 0xAF9F      |       44959 |
|      34 | 0x0034      |          52 |
|      35 | 0x284F8     |      165112 |
|      36 | 0xA9AE      |       43438 |
|      37 | 0xFFFFFFBA  |  4294967226 |
|      38 | 0xFFFD7A0E  |  4294801934 |
|      39 | 0x60641     |      394817 |
|      40 | 0x026D      |         621 |
|      41 | 0xFFFD75B7  |  4294800823 |
|      42 | 0x60240     |      393792 |
|      43 | 0x037E      |         894 |
|      44 | 0x003C      |          60 |
|      45 | 0x000B      |          11 |
|      46 | 0x3CC33     |      248883 |
|      47 | 0x1F458     |      128088 |
|      48 | 0x023A      |         570 |
|      49 | 0x0022      |          34 |
|      50 | 0x3C8B8     |      247992 |
|      51 | 0x1FB11     |      129809 |
|      52 | 0x0259      |         601 |
|      53 | 0x3C769     |      247657 |
|      54 | 0x1CB8D     |      117645 |
|      55 | 0xFFFFFFBF  |  4294967231 |
|      56 | 0x0006      |           6 |
|      57 | 0xFFFD6C7A  |  4294798458 |
|      58 | 0x5F8F2     |      391410 |
|      59 | 0x02F0      |         752 |
|      60 | 0x373A8     |      226216 |
|      61 | 0xFFFEE78D  |  4294895501 |
|      62 | 0x0130      |         304 |
|      63 | 0x0078      |         120 |
|      64 | 0x0095      |         149 |
|      65 | 0x009F      |         159 |
|      66 | 0x0003      |           3 |
|      67 | 0x00A9      |         169 |
|      68 | 0x0004      |           4 |
|      69 | 0x00B3      |         179 |
|      70 | 0x00BD      |         189 |
|      71 | 0x0007      |           7 |
|      72 | 0x00C7      |         199 |
|      73 | 0x0008      |           8 |
|      74 | 0x00D1      |         209 |
|      75 | 0x29180     |      168320 |
|      76 | 0x2707B     |      159867 |
|      77 | 0xFFFFFEFC  |  4294967036 |
|      78 | 0x29586     |      169350 |
|      79 | 0x28C58     |      167000 |
|      80 | 0x0048      |          72 |
|      81 | 0x27100     |      160000 |
|      82 | 0x2DC6C     |      187500 |
|      83 | 0x01C2      |         450 |
|      84 | 0x3EBB6     |      256950 |
|      85 | 0x6291C     |      403740 |
|      86 | 0x3EA1C     |      256540 |
|      87 | 0x61E18     |      400920 |
|      88 | 0x0172      |         370 |
|      89 | 0x3ECC4     |      257220 |
|      90 | 0x60B58     |      396120 |
|      91 | 0x20D64     |      134500 |
|      92 | 0xEA60      |       60000 |
|      93 | 0x04BA      |        1210 |
|      94 | 0x1E2DA     |      123610 |
|      95 | 0xE006      |       57350 |
|      96 | 0x0366      |         870 |
|      97 | 0x26DDD     |      159197 |
|      98 | 0x81C0      |       33216 |
|      99 | 0xFFFFFF51  |  4294967121 |
|     100 | 0x0500      |        1280 |
|     101 | 0xFFFD9817  |  4294809623 |
|     102 | 0x6A3AE     |      435118 |
|     103 | 0x002A      |          42 |
|     104 | 0xFFFD9CF3  |  4294810867 |
|     105 | 0x6A9D6     |      436694 |
|     106 | 0x001F      |          31 |
|     107 | 0xFFFFFFFF  |  4294967295 |
|     108 | 0x1EB7      |        7863 |
|     109 | 0x40000000  |  1073741824 |
|     110 | 0x000C      |          12 |
|     111 | 0x000F      |          15 |
|     112 | 0x0010      |          16 |
|     113 | 0x001D      |          29 |
|     114 | 0x0015      |          21 |
|     115 | 0x1EC4      |        7876 |
|     116 | 0x1EA3      |        7843 |
|     117 | 0x1EA4      |        7844 |
|     118 | 0x1EAB      |        7851 |
|     119 | 0x1EA6      |        7846 |
|     120 | 0x1EA8      |        7848 |
|     121 | 0x0356      |         854 |
|     122 | 0x0103      |         259 |
|     123 | 0x1EB4      |        7860 |
|     124 | 0x035F      |         863 |
|     125 | 0x0360      |         864 |
|     126 | 0x0361      |         865 |
|     127 | 0x0362      |         866 |
|     128 | 0x0363      |         867 |
|     129 | 0x0364      |         868 |
|     130 | 0x0365      |         869 |
|     131 | 0x0367      |         871 |
|     132 | 0x1EA5      |        7845 |
|     133 | 0x00C9      |         201 |
|     134 | 0x002D      |          45 |
|     135 | 0x00C8      |         200 |
|     136 | 0x0348      |         840 |
|     137 | 0x0349      |         841 |
|     138 | 0x034A      |         842 |
|     139 | 0x034B      |         843 |
|     140 | 0x034C      |         844 |
|     141 | 0x034D      |         845 |
|     142 | 0x034E      |         846 |
|     143 | 0x034F      |         847 |
|     144 | 0x0350      |         848 |
|     145 | 0x0351      |         849 |
|     146 | 0x0352      |         850 |
|     147 | 0x0353      |         851 |
|     148 | 0x0354      |         852 |
|     149 | 0x0355      |         853 |
|     150 | 0x0357      |         855 |
|     151 | 0x0384      |         900 |
|     152 | 0x0385      |         901 |
|     153 | 0x0108      |         264 |
|     154 | 0x010F      |         271 |
|     155 | 0x00E5      |         229 |

## String References

- **7843**: Only party members present with you in this area will be transported to [/this skirmish in ////this alluvion skirmish in /]$8.
- **7844**: Proceed? [Yes./No.]
- **7845**: Now entering [/a skirmish in ////an alluvion skirmish in /]$8.
- **7846**: You have chosen not to enter [/this skirmish in ////this alluvion skirmish in /]$8.
- **7848**: You cannot enter at this time. Please wait a moment and try again.
- **7851**: Your request for entry is being considered...
- **7860**: Now permeating the mists surrounding the [fracture/obscured domain].
- **7863**: Enter which battlefield? [None./Endeavoring to Awaken./Endeavoring to Awaken./ /Behind the Sluices./Stonewalled./The Gates./Saved by the Bell./Quiescence./The Charlatan./Yggdrasil Beckons./Yggdrasil Beckons./Watery Grave./Mistress of Ceremonies./A Barrel of Laughs./Sinister Reign./The Ygnas Directive 6./Skirmishes./[Fractures/Obscured Domains]./Alluvion skirmishes./The Silent Forest./Wind of Eternity./Phantasmic Heroes.]
- **7876**: Entering [/Skrimish: ////Alluvion Skirmish: /]$8. Proceed?

## Events

### Event 65535

#### Metadata

| Field        | Value   |
|--------------|---------|
| Entrypoint   | 0x0000  |
| Data Size    | 1 bytes |
| Instructions | 1       |

```
      00 01 02 03 04 05 06 07  08 09 0A 0B 0C 0D 0E 0F
      -- -- -- -- -- -- -- --  -- -- -- -- -- -- -- --
0000: 00                                                .               
```

#### Opcodes

```
  0: 0x0000 [0x00] END_REQSTACK()
```

### Event 65534

#### Metadata

| Field        | Value   |
|--------------|---------|
| Entrypoint   | 0x0001  |
| Data Size    | 1 bytes |
| Instructions | 1       |

```
      00 01 02 03 04 05 06 07  08 09 0A 0B 0C 0D 0E 0F
      -- -- -- -- -- -- -- --  -- -- -- -- -- -- -- --
0000:    00                                              .              
```

#### Opcodes

```
  0: 0x0001 [0x00] END_REQSTACK()
```

### Event 65535.1

#### Metadata

| Field        | Value   |
|--------------|---------|
| Entrypoint   | 0x0002  |
| Data Size    | 6 bytes |
| Instructions | 2       |

```
      00 01 02 03 04 05 06 07  08 09 0A 0B 0C 0D 0E 0F
      -- -- -- -- -- -- -- --  -- -- -- -- -- -- -- --
0000:       03 02 10 07 7F 00                             ......        
```

#### Opcodes

```
  0: 0x0002 [0x03] Work_Zone[2] = Entity->Race
  1: 0x0007 [0x00] END_REQSTACK()
```

### Event 65535.2

#### Metadata

| Field        | Value   |
|--------------|---------|
| Entrypoint   | 0x0008  |
| Data Size    | 6 bytes |
| Instructions | 2       |

```
      00 01 02 03 04 05 06 07  08 09 0A 0B 0C 0D 0E 0F
      -- -- -- -- -- -- -- --  -- -- -- -- -- -- -- --
0000:                          03 02 10 0B 7F 00                ......  
```

#### Opcodes

```
  0: 0x0008 [0x03] Work_Zone[2] = (Entity->Render.Flags01 >> 25) & 1
  1: 0x000D [0x00] END_REQSTACK()
```

### Event 65535.3

#### Metadata

| Field        | Value    |
|--------------|----------|
| Entrypoint   | 0x000E   |
| Data Size    | 37 bytes |
| Instructions | 5        |

```
      00 01 02 03 04 05 06 07  08 09 0A 0B 0C 0D 0E 0F
      -- -- -- -- -- -- -- --  -- -- -- -- -- -- -- --
0000:                                            03 00                ..
0010: 00 07 7F 1A 66 00 66 01  00 F8 FF FF 7F F8 FF FF  ....f.f.........
0020: 7F 73 68 61 30 53 F8 FF  FF 7F F8 FF FF 7F 73 68  .sha0S........sh
0030: 61 30 00                                          a0.             
```

#### Opcodes

```
  0: 0x000E [0x03] ExtData[1]->WorkLocal[0] = Entity->Race
  1: 0x0013 [0x1A] CALL_SUBROUTINE(address=0x0066)
  2: 0x0016 [0x66] LOAD_EXT_SCHEDULER_MAIN: Load scheduler "sha0" with entities [EventEntity, EventEntity], work=ExtData[1]->WorkLocal[1]
  3: 0x0025 [0x53] WAIT_SCHEDULER_TASK: Wait for scheduler "sha0" with entities [EventEntity, EventEntity]
  4: 0x0032 [0x00] END_REQSTACK()
```

### Event 65535.4

#### Metadata

| Field        | Value    |
|--------------|----------|
| Entrypoint   | 0x0033   |
| Data Size    | 37 bytes |
| Instructions | 5        |

```
      00 01 02 03 04 05 06 07  08 09 0A 0B 0C 0D 0E 0F
      -- -- -- -- -- -- -- --  -- -- -- -- -- -- -- --
0030:          03 00 00 07 7F  1A 66 00 66 01 00 F8 FF     ......f.f....
0040: FF 7F F8 FF FF 7F 73 68  61 31 53 F8 FF FF 7F F8  ......sha1S.....
0050: FF FF 7F 73 68 61 31 00                           ...sha1.        
```

#### Opcodes

```
  0: 0x0033 [0x03] ExtData[1]->WorkLocal[0] = Entity->Race
  1: 0x0038 [0x1A] CALL_SUBROUTINE(address=0x0066)
  2: 0x003B [0x66] LOAD_EXT_SCHEDULER_MAIN: Load scheduler "sha1" with entities [EventEntity, EventEntity], work=ExtData[1]->WorkLocal[1]
  3: 0x004A [0x53] WAIT_SCHEDULER_TASK: Wait for scheduler "sha1" with entities [EventEntity, EventEntity]
  4: 0x0057 [0x00] END_REQSTACK()
```

### Event 65535.5

#### Metadata

| Field        | Value   |
|--------------|---------|
| Entrypoint   | 0x0058  |
| Data Size    | 7 bytes |
| Instructions | 3       |

```
      00 01 02 03 04 05 06 07  08 09 0A 0B 0C 0D 0E 0F
      -- -- -- -- -- -- -- --  -- -- -- -- -- -- -- --
0050:                          AB 03 AC 01 00 80 00             ....... 
```

#### Opcodes

```
  0: 0x0058 [0xAB] EventEntity->Render.Flags0 ^= 0x20000 // Toggle bit 17
  1: 0x005A [0xAC] EventEntity->StatusEvent = 1*
  2: 0x005E [0x00] END_REQSTACK()
```

### Event 65535.6

#### Metadata

| Field        | Value     |
|--------------|-----------|
| Entrypoint   | 0x005F    |
| Data Size    | 155 bytes |
| Instructions | 3         |

```
      00 01 02 03 04 05 06 07  08 09 0A 0B 0C 0D 0E 0F
      -- -- -- -- -- -- -- --  -- -- -- -- -- -- -- --
0050:                                               AC                 .
0060: 01 01 80 AB 04 00 03 01  00 00 00 02 01 00 02 80  ................
0070: 05 7B 00 08 01 00 00 80  01 80 00 08 01 00 03 80  .{..............
0080: 14 01 00 04 80 07 01 00  05 80 1B 03 01 00 00 00  ................
0090: 02 01 00 02 80 05 A0 00  08 01 00 00 80 01 A5 00  ................
00A0: 08 01 00 03 80 14 01 00  04 80 07 01 00 06 80 1B  ................
00B0: 03 01 00 00 00 02 01 00  02 80 05 C5 00 08 01 00  ................
00C0: 00 80 01 CA 00 08 01 00  03 80 14 01 00 04 80 07  ................
00D0: 01 00 07 80 1B 03 01 00  00 00 02 01 00 02 80 05  ................
00E0: EA 00 08 01 00 00 80 01  EF 00 08 01 00 03 80 14  ................
00F0: 01 00 04 80 07 01 00 08  80 1B                    ..........      
```

#### Opcodes

```
  0: 0x005F [0xAC] EventEntity->StatusEvent = 0*
  1: 0x0063 [0xAB] EventEntity->Render.Flags0 |= 0x40000 // Set bit 18
  2: 0x0065 [0x00] END_REQSTACK()
```

#### Data or dead code:

```
# Dead code (unreachable instructions):
     0x0066 [0x03] ExtData[1]->WorkLocal[1] = ExtData[1]->WorkLocal[0]
     0x006B [0x02] IF !(ExtData[1]->WorkLocal[1] > 5*) GOTO 0x007B
     0x0073 [0x08] ExtData[1]->WorkLocal[1] -= 1*
     0x0078 [0x01] GOTO 0x0080
     0x007B [0x08] ExtData[1]->WorkLocal[1] -= 2*
     0x0080 [0x14] ExtData[1]->WorkLocal[1] *= 10*
     0x0085 [0x07] ExtData[1]->WorkLocal[1] += 9*
     0x008A [0x1B] RETURN
     0x008B [0x03] ExtData[1]->WorkLocal[1] = ExtData[1]->WorkLocal[0]
     0x0090 [0x02] IF !(ExtData[1]->WorkLocal[1] > 5*) GOTO 0x00A0
     0x0098 [0x08] ExtData[1]->WorkLocal[1] -= 1*
     0x009D [0x01] GOTO 0x00A5
     0x00A0 [0x08] ExtData[1]->WorkLocal[1] -= 2*
     0x00A5 [0x14] ExtData[1]->WorkLocal[1] *= 10*
     0x00AA [0x07] ExtData[1]->WorkLocal[1] += 70*
     0x00AF [0x1B] RETURN
     0x00B0 [0x03] ExtData[1]->WorkLocal[1] = ExtData[1]->WorkLocal[0]
     0x00B5 [0x02] IF !(ExtData[1]->WorkLocal[1] > 5*) GOTO 0x00C5
     0x00BD [0x08] ExtData[1]->WorkLocal[1] -= 1*
     0x00C2 [0x01] GOTO 0x00CA
     0x00C5 [0x08] ExtData[1]->WorkLocal[1] -= 2*
     0x00CA [0x14] ExtData[1]->WorkLocal[1] *= 10*
     0x00CF [0x07] ExtData[1]->WorkLocal[1] += 140*
     0x00D4 [0x1B] RETURN
     0x00D5 [0x03] ExtData[1]->WorkLocal[1] = ExtData[1]->WorkLocal[0]
     0x00DA [0x02] IF !(ExtData[1]->WorkLocal[1] > 5*) GOTO 0x00EA
     0x00E2 [0x08] ExtData[1]->WorkLocal[1] -= 1*
     0x00E7 [0x01] GOTO 0x00EF
     0x00EA [0x08] ExtData[1]->WorkLocal[1] -= 2*
     0x00EF [0x14] ExtData[1]->WorkLocal[1] *= 10*
     0x00F4 [0x07] ExtData[1]->WorkLocal[1] += 210*
     0x00F9 [0x1B] RETURN
```

### Event 65535.7

#### Metadata

| Field        | Value    |
|--------------|----------|
| Entrypoint   | 0x00FA   |
| Data Size    | 14 bytes |
| Instructions | 4        |

```
      00 01 02 03 04 05 06 07  08 09 0A 0B 0C 0D 0E 0F
      -- -- -- -- -- -- -- --  -- -- -- -- -- -- -- --
00F0:                                32 09 80 1F 00 0A            2.....
0100: 80 0B 80 0C 80 1F 01 00                           ........        
```

#### Opcodes

```
  0: 0x00FA [0x32] ExtData[1]->MainSpeed = 13* * 0.1
  1: 0x00FD [0x1F] MOVE_ENTITY: EventEntity moves to X=259.406*, Z=396.806*, Y=0.164*
  2: 0x0105 [0x1F] MOVE_ENTITY: Update entity position (mode=1)
  3: 0x0107 [0x00] END_REQSTACK()
```

### Event 65535.8

#### Metadata

| Field        | Value    |
|--------------|----------|
| Entrypoint   | 0x0108   |
| Data Size    | 14 bytes |
| Instructions | 4        |

```
      00 01 02 03 04 05 06 07  08 09 0A 0B 0C 0D 0E 0F
      -- -- -- -- -- -- -- --  -- -- -- -- -- -- -- --
0100:                          32 09 80 1F 00 0D 80 0E          2.......
0110: 80 0F 80 1F 01 00                                 ......          
```

#### Opcodes

```
  0: 0x0108 [0x32] ExtData[1]->MainSpeed = 13* * 0.1
  1: 0x010B [0x1F] MOVE_ENTITY: EventEntity moves to X=255.044*, Z=385.199*, Y=-2.407*
  2: 0x0113 [0x1F] MOVE_ENTITY: Update entity position (mode=1)
  3: 0x0115 [0x00] END_REQSTACK()
```

### Event 65535.9

#### Metadata

| Field        | Value    |
|--------------|----------|
| Entrypoint   | 0x0116   |
| Data Size    | 22 bytes |
| Instructions | 6        |

```
      00 01 02 03 04 05 06 07  08 09 0A 0B 0C 0D 0E 0F
      -- -- -- -- -- -- -- --  -- -- -- -- -- -- -- --
0110:                   32 10  80 1F 00 11 80 12 80 13        2.........
0120: 80 1F 01 1E 3A 72 10 01  1C 14 80 00              ....:r......    
```

#### Opcodes

```
  0: 0x0116 [0x32] ExtData[1]->MainSpeed = 40* * 0.1
  1: 0x0119 [0x1F] MOVE_ENTITY: EventEntity moves to X=250.305*, Z=396.207*, Y=-0.250*
  2: 0x0121 [0x1F] MOVE_ENTITY: Update entity position (mode=1)
  3: 0x0123 [0x1E] EventEntity looks at Nashu (ID: 17855034/0x0110723A) and starts talking
  4: 0x0128 [0x1C] WAIT(30* ticks)
  5: 0x012B [0x00] END_REQSTACK()
```

### Event 65535.10

#### Metadata

| Field        | Value    |
|--------------|----------|
| Entrypoint   | 0x012C   |
| Data Size    | 22 bytes |
| Instructions | 6        |

```
      00 01 02 03 04 05 06 07  08 09 0A 0B 0C 0D 0E 0F
      -- -- -- -- -- -- -- --  -- -- -- -- -- -- -- --
0120:                                      32 10 80 1F              2...
0130: 00 15 80 16 80 17 80 1F  01 1E 44 72 10 01 1C 14  ..........Dr....
0140: 80 00                                             ..              
```

#### Opcodes

```
  0: 0x012C [0x32] ExtData[1]->MainSpeed = 40* * 0.1
  1: 0x012F [0x1F] MOVE_ENTITY: EventEntity moves to X=361.939*, Z=147.470*, Y=0.391*
  2: 0x0137 [0x1F] MOVE_ENTITY: Update entity position (mode=1)
  3: 0x0139 [0x1E] EventEntity looks at Alianne (ID: 17855044/0x01107244) and starts talking
  4: 0x013E [0x1C] WAIT(30* ticks)
  5: 0x0141 [0x00] END_REQSTACK()
```

### Event 65535.11

#### Metadata

| Field        | Value    |
|--------------|----------|
| Entrypoint   | 0x0142   |
| Data Size    | 32 bytes |
| Instructions | 8        |

```
      00 01 02 03 04 05 06 07  08 09 0A 0B 0C 0D 0E 0F
      -- -- -- -- -- -- -- --  -- -- -- -- -- -- -- --
0140:       32 10 80 1F 00 18  80 19 80 1A 80 1F 01 1C    2.............
0150: 14 80 6E F0 FF FF 7F 1B  80 99 F0 FF FF 7F 1C 1C  ..n.............
0160: 80 00                                             ..              
```

#### Opcodes

```
  0: 0x0142 [0x32] ExtData[1]->MainSpeed = 40* * 0.1
  1: 0x0145 [0x1F] MOVE_ENTITY: EventEntity moves to X=260.706*, Z=398.046*, Y=0.457*
  2: 0x014D [0x1F] MOVE_ENTITY: Update entity position (mode=1)
  3: 0x014F [0x1C] WAIT(30* ticks)
  4: 0x0152 [0x6E] LocalPlayer uses emote 32*
  5: 0x0159 [0x99] Wait for LocalPlayer animation to complete
  6: 0x015E [0x1C] WAIT(90* ticks)
  7: 0x0161 [0x00] END_REQSTACK()
```

### Event 65535.12

#### Metadata

| Field        | Value    |
|--------------|----------|
| Entrypoint   | 0x0162   |
| Data Size    | 22 bytes |
| Instructions | 6        |

```
      00 01 02 03 04 05 06 07  08 09 0A 0B 0C 0D 0E 0F
      -- -- -- -- -- -- -- --  -- -- -- -- -- -- -- --
0160:       32 10 80 1F 00 1D  80 1E 80 1F 80 1F 01 1E    2.............
0170: 46 72 10 01 1C 14 80 00                           Fr......        
```

#### Opcodes

```
  0: 0x0162 [0x32] ExtData[1]->MainSpeed = 40* * 0.1
  1: 0x0165 [0x1F] MOVE_ENTITY: EventEntity moves to X=268.154*, Z=20.689*, Y=2.160*
  2: 0x016D [0x1F] MOVE_ENTITY: Update entity position (mode=1)
  3: 0x016F [0x1E] EventEntity looks at Erfimia (ID: 17855046/0x01107246) and starts talking
  4: 0x0174 [0x1C] WAIT(30* ticks)
  5: 0x0177 [0x00] END_REQSTACK()
```

### Event 65535.13

#### Metadata

| Field        | Value    |
|--------------|----------|
| Entrypoint   | 0x0178   |
| Data Size    | 22 bytes |
| Instructions | 6        |

```
      00 01 02 03 04 05 06 07  08 09 0A 0B 0C 0D 0E 0F
      -- -- -- -- -- -- -- --  -- -- -- -- -- -- -- --
0170:                          32 10 80 1F 00 20 80 21          2.... .!
0180: 80 22 80 1F 01 1E 46 72  10 01 1C 14 80 00        ."....Fr......  
```

#### Opcodes

```
  0: 0x0178 [0x32] ExtData[1]->MainSpeed = 40* * 0.1
  1: 0x017B [0x1F] MOVE_ENTITY: EventEntity moves to X=164.010*, Z=44.959*, Y=0.052*
  2: 0x0183 [0x1F] MOVE_ENTITY: Update entity position (mode=1)
  3: 0x0185 [0x1E] EventEntity looks at Erfimia (ID: 17855046/0x01107246) and starts talking
  4: 0x018A [0x1C] WAIT(30* ticks)
  5: 0x018D [0x00] END_REQSTACK()
```

### Event 65535.14

#### Metadata

| Field        | Value    |
|--------------|----------|
| Entrypoint   | 0x018E   |
| Data Size    | 14 bytes |
| Instructions | 4        |

```
      00 01 02 03 04 05 06 07  08 09 0A 0B 0C 0D 0E 0F
      -- -- -- -- -- -- -- --  -- -- -- -- -- -- -- --
0180:                                            32 09                2.
0190: 80 1F 00 23 80 24 80 25  80 1F 01 00              ...#.$.%....    
```

#### Opcodes

```
  0: 0x018E [0x32] ExtData[1]->MainSpeed = 13* * 0.1
  1: 0x0191 [0x1F] MOVE_ENTITY: EventEntity moves to X=165.112*, Z=43.438*, Y=-0.070*
  2: 0x0199 [0x1F] MOVE_ENTITY: Update entity position (mode=1)
  3: 0x019B [0x00] END_REQSTACK()
```

### Event 65535.15

#### Metadata

| Field        | Value    |
|--------------|----------|
| Entrypoint   | 0x019C   |
| Data Size    | 22 bytes |
| Instructions | 6        |

```
      00 01 02 03 04 05 06 07  08 09 0A 0B 0C 0D 0E 0F
      -- -- -- -- -- -- -- --  -- -- -- -- -- -- -- --
0190:                                      32 10 80 1F              2...
01A0: 00 26 80 27 80 28 80 1F  01 1E 47 72 10 01 1C 14  .&.'.(....Gr....
01B0: 80 00                                             ..              
```

#### Opcodes

```
  0: 0x019C [0x32] ExtData[1]->MainSpeed = 40* * 0.1
  1: 0x019F [0x1F] MOVE_ENTITY: EventEntity moves to X=-165.362*, Z=394.817*, Y=0.621*
  2: 0x01A7 [0x1F] MOVE_ENTITY: Update entity position (mode=1)
  3: 0x01A9 [0x1E] EventEntity looks at Robertioux (ID: 17855047/0x01107247) and starts talking
  4: 0x01AE [0x1C] WAIT(30* ticks)
  5: 0x01B1 [0x00] END_REQSTACK()
```

### Event 65535.16

#### Metadata

| Field        | Value    |
|--------------|----------|
| Entrypoint   | 0x01B2   |
| Data Size    | 14 bytes |
| Instructions | 4        |

```
      00 01 02 03 04 05 06 07  08 09 0A 0B 0C 0D 0E 0F
      -- -- -- -- -- -- -- --  -- -- -- -- -- -- -- --
01B0:       32 09 80 1F 00 29  80 2A 80 2B 80 1F 01 00    2....).*.+....
```

#### Opcodes

```
  0: 0x01B2 [0x32] ExtData[1]->MainSpeed = 13* * 0.1
  1: 0x01B5 [0x1F] MOVE_ENTITY: EventEntity moves to X=-166.473*, Z=393.792*, Y=0.894*
  2: 0x01BD [0x1F] MOVE_ENTITY: Update entity position (mode=1)
  3: 0x01BF [0x00] END_REQSTACK()
```

### Event 65535.17

#### Metadata

| Field        | Value    |
|--------------|----------|
| Entrypoint   | 0x01C0   |
| Data Size    | 24 bytes |
| Instructions | 4        |

```
      00 01 02 03 04 05 06 07  08 09 0A 0B 0C 0D 0E 0F
      -- -- -- -- -- -- -- --  -- -- -- -- -- -- -- --
01C0: 03 00 00 07 7F 1A 66 00  66 01 00 F8 FF FF 7F F8  ......f.f.......
01D0: FF FF 7F 74 6C 6B 30 00                           ...tlk0.        
```

#### Opcodes

```
  0: 0x01C0 [0x03] ExtData[1]->WorkLocal[0] = Entity->Race
  1: 0x01C5 [0x1A] CALL_SUBROUTINE(address=0x0066)
  2: 0x01C8 [0x66] LOAD_EXT_SCHEDULER_MAIN: Load scheduler "tlk0" with entities [EventEntity, EventEntity], work=ExtData[1]->WorkLocal[1]
  3: 0x01D7 [0x00] END_REQSTACK()
```

### Event 65535.18

#### Metadata

| Field        | Value    |
|--------------|----------|
| Entrypoint   | 0x01D8   |
| Data Size    | 24 bytes |
| Instructions | 4        |

```
      00 01 02 03 04 05 06 07  08 09 0A 0B 0C 0D 0E 0F
      -- -- -- -- -- -- -- --  -- -- -- -- -- -- -- --
01D0:                          03 00 00 07 7F 1A 66 00          ......f.
01E0: 66 01 00 F8 FF FF 7F F8  FF FF 7F 74 6C 6B 31 00  f..........tlk1.
```

#### Opcodes

```
  0: 0x01D8 [0x03] ExtData[1]->WorkLocal[0] = Entity->Race
  1: 0x01DD [0x1A] CALL_SUBROUTINE(address=0x0066)
  2: 0x01E0 [0x66] LOAD_EXT_SCHEDULER_MAIN: Load scheduler "tlk1" with entities [EventEntity, EventEntity], work=ExtData[1]->WorkLocal[1]
  3: 0x01EF [0x00] END_REQSTACK()
```

### Event 65535.19

#### Metadata

| Field        | Value    |
|--------------|----------|
| Entrypoint   | 0x01F0   |
| Data Size    | 27 bytes |
| Instructions | 5        |

```
      00 01 02 03 04 05 06 07  08 09 0A 0B 0C 0D 0E 0F
      -- -- -- -- -- -- -- --  -- -- -- -- -- -- -- --
01F0: 03 00 00 07 7F 1A 8B 00  0B 01 00 66 01 00 F8 FF  ...........f....
0200: FF 7F F8 FF FF 7F 70 61  73 30 00                 ......pas0.     
```

#### Opcodes

```
  0: 0x01F0 [0x03] ExtData[1]->WorkLocal[0] = Entity->Race
  1: 0x01F5 [0x1A] CALL_SUBROUTINE(address=0x008B)
  2: 0x01F8 [0x0B] ExtData[1]->WorkLocal[1]++
  3: 0x01FB [0x66] LOAD_EXT_SCHEDULER_MAIN: Load scheduler "pas0" with entities [EventEntity, EventEntity], work=ExtData[1]->WorkLocal[1]
  4: 0x020A [0x00] END_REQSTACK()
```

### Event 65535.20

#### Metadata

| Field        | Value    |
|--------------|----------|
| Entrypoint   | 0x020B   |
| Data Size    | 24 bytes |
| Instructions | 4        |

```
      00 01 02 03 04 05 06 07  08 09 0A 0B 0C 0D 0E 0F
      -- -- -- -- -- -- -- --  -- -- -- -- -- -- -- --
0200:                                   03 00 00 07 7F             .....
0210: 1A B0 00 66 01 00 F8 FF  FF 7F F8 FF FF 7F 6F 72  ...f..........or
0220: 7A 30 00                                          z0.             
```

#### Opcodes

```
  0: 0x020B [0x03] ExtData[1]->WorkLocal[0] = Entity->Race
  1: 0x0210 [0x1A] CALL_SUBROUTINE(address=0x00B0)
  2: 0x0213 [0x66] LOAD_EXT_SCHEDULER_MAIN: Load scheduler "orz0" with entities [EventEntity, EventEntity], work=ExtData[1]->WorkLocal[1]
  3: 0x0222 [0x00] END_REQSTACK()
```

### Event 65535.21

#### Metadata

| Field        | Value    |
|--------------|----------|
| Entrypoint   | 0x0223   |
| Data Size    | 37 bytes |
| Instructions | 5        |

```
      00 01 02 03 04 05 06 07  08 09 0A 0B 0C 0D 0E 0F
      -- -- -- -- -- -- -- --  -- -- -- -- -- -- -- --
0220:          03 00 00 07 7F  1A 66 00 66 01 00 F8 FF     ......f.f....
0230: FF 7F F8 FF FF 7F 73 69  74 30 53 F8 FF FF 7F F8  ......sit0S.....
0240: FF FF 7F 73 69 74 30 00                           ...sit0.        
```

#### Opcodes

```
  0: 0x0223 [0x03] ExtData[1]->WorkLocal[0] = Entity->Race
  1: 0x0228 [0x1A] CALL_SUBROUTINE(address=0x0066)
  2: 0x022B [0x66] LOAD_EXT_SCHEDULER_MAIN: Load scheduler "sit0" with entities [EventEntity, EventEntity], work=ExtData[1]->WorkLocal[1]
  3: 0x023A [0x53] WAIT_SCHEDULER_TASK: Wait for scheduler "sit0" with entities [EventEntity, EventEntity]
  4: 0x0247 [0x00] END_REQSTACK()
```

### Event 65535.22

#### Metadata

| Field        | Value    |
|--------------|----------|
| Entrypoint   | 0x0248   |
| Data Size    | 37 bytes |
| Instructions | 5        |

```
      00 01 02 03 04 05 06 07  08 09 0A 0B 0C 0D 0E 0F
      -- -- -- -- -- -- -- --  -- -- -- -- -- -- -- --
0240:                          03 00 00 07 7F 1A 66 00          ......f.
0250: 66 01 00 F8 FF FF 7F F8  FF FF 7F 73 69 74 31 53  f..........sit1S
0260: F8 FF FF 7F F8 FF FF 7F  73 69 74 31 00           ........sit1.   
```

#### Opcodes

```
  0: 0x0248 [0x03] ExtData[1]->WorkLocal[0] = Entity->Race
  1: 0x024D [0x1A] CALL_SUBROUTINE(address=0x0066)
  2: 0x0250 [0x66] LOAD_EXT_SCHEDULER_MAIN: Load scheduler "sit1" with entities [EventEntity, EventEntity], work=ExtData[1]->WorkLocal[1]
  3: 0x025F [0x53] WAIT_SCHEDULER_TASK: Wait for scheduler "sit1" with entities [EventEntity, EventEntity]
  4: 0x026C [0x00] END_REQSTACK()
```

### Event 65535.23

#### Metadata

| Field        | Value    |
|--------------|----------|
| Entrypoint   | 0x026D   |
| Data Size    | 42 bytes |
| Instructions | 6        |

```
      00 01 02 03 04 05 06 07  08 09 0A 0B 0C 0D 0E 0F
      -- -- -- -- -- -- -- --  -- -- -- -- -- -- -- --
0260:                                         03 00 00               ...
0270: 07 7F 1A 66 00 66 01 00  F8 FF FF 7F F8 FF FF 7F  ...f.f..........
0280: 74 6C 6B 30 1C 2C 80 66  01 00 F8 FF FF 7F F8 FF  tlk0.,.f........
0290: FF 7F 74 6C 6B 31 00                              ..tlk1.         
```

#### Opcodes

```
  0: 0x026D [0x03] ExtData[1]->WorkLocal[0] = Entity->Race
  1: 0x0272 [0x1A] CALL_SUBROUTINE(address=0x0066)
  2: 0x0275 [0x66] LOAD_EXT_SCHEDULER_MAIN: Load scheduler "tlk0" with entities [EventEntity, EventEntity], work=ExtData[1]->WorkLocal[1]
  3: 0x0284 [0x1C] WAIT(60* ticks)
  4: 0x0287 [0x66] LOAD_EXT_SCHEDULER_MAIN: Load scheduler "tlk1" with entities [EventEntity, EventEntity], work=ExtData[1]->WorkLocal[1]
  5: 0x0296 [0x00] END_REQSTACK()
```

### Event 65535.24

#### Metadata

| Field        | Value    |
|--------------|----------|
| Entrypoint   | 0x0297   |
| Data Size    | 29 bytes |
| Instructions | 5        |

```
      00 01 02 03 04 05 06 07  08 09 0A 0B 0C 0D 0E 0F
      -- -- -- -- -- -- -- --  -- -- -- -- -- -- -- --
0290:                      7B  F8 FF FF 7F 03 00 00 07         {........
02A0: 7F 1A 8B 00 66 01 00 F8  FF FF 7F F8 FF FF 7F 61  ....f..........a
02B0: 74 70 30 00                                       tp0.            
```

#### Opcodes

```
  0: 0x0297 [0x7B] EventEntity stops talking
  1: 0x029C [0x03] ExtData[1]->WorkLocal[0] = Entity->Race
  2: 0x02A1 [0x1A] CALL_SUBROUTINE(address=0x008B)
  3: 0x02A4 [0x66] LOAD_EXT_SCHEDULER_MAIN: Load scheduler "atp0" with entities [EventEntity, EventEntity], work=ExtData[1]->WorkLocal[1]
  4: 0x02B3 [0x00] END_REQSTACK()
```

### Event 65535.25

#### Metadata

| Field        | Value    |
|--------------|----------|
| Entrypoint   | 0x02B4   |
| Data Size    | 15 bytes |
| Instructions | 5        |

```
      00 01 02 03 04 05 06 07  08 09 0A 0B 0C 0D 0E 0F
      -- -- -- -- -- -- -- --  -- -- -- -- -- -- -- --
02B0:             32 2D 80 1F  00 2E 80 2F 80 30 80 1F      2-...../.0..
02C0: 01 6F 00                                          .o.             
```

#### Opcodes

```
  0: 0x02B4 [0x32] ExtData[1]->MainSpeed = 11* * 0.1
  1: 0x02B7 [0x1F] MOVE_ENTITY: EventEntity moves to X=248.883*, Z=128.088*, Y=0.570*
  2: 0x02BF [0x1F] MOVE_ENTITY: Update entity position (mode=1)
  3: 0x02C1 [0x6F] WAIT_FRAME_DELAY: Yield until WaitTime reaches zero
  4: 0x02C2 [0x00] END_REQSTACK()
```

### Event 65535.26

#### Metadata

| Field        | Value    |
|--------------|----------|
| Entrypoint   | 0x02C3   |
| Data Size    | 15 bytes |
| Instructions | 5        |

```
      00 01 02 03 04 05 06 07  08 09 0A 0B 0C 0D 0E 0F
      -- -- -- -- -- -- -- --  -- -- -- -- -- -- -- --
02C0:          32 31 80 1F 00  32 80 33 80 34 80 1F 01     21...2.3.4...
02D0: 6F 00                                             o.              
```

#### Opcodes

```
  0: 0x02C3 [0x32] ExtData[1]->MainSpeed = 34* * 0.1
  1: 0x02C6 [0x1F] MOVE_ENTITY: EventEntity moves to X=247.992*, Z=129.809*, Y=0.601*
  2: 0x02CE [0x1F] MOVE_ENTITY: Update entity position (mode=1)
  3: 0x02D0 [0x6F] WAIT_FRAME_DELAY: Yield until WaitTime reaches zero
  4: 0x02D1 [0x00] END_REQSTACK()
```

### Event 65535.27

#### Metadata

| Field        | Value    |
|--------------|----------|
| Entrypoint   | 0x02D2   |
| Data Size    | 15 bytes |
| Instructions | 5        |

```
      00 01 02 03 04 05 06 07  08 09 0A 0B 0C 0D 0E 0F
      -- -- -- -- -- -- -- --  -- -- -- -- -- -- -- --
02D0:       32 04 80 1F 00 35  80 36 80 37 80 1F 01 6F    2....5.6.7...o
02E0: 00                                                .               
```

#### Opcodes

```
  0: 0x02D2 [0x32] ExtData[1]->MainSpeed = 10* * 0.1
  1: 0x02D5 [0x1F] MOVE_ENTITY: EventEntity moves to X=247.657*, Z=117.645*, Y=-0.065*
  2: 0x02DD [0x1F] MOVE_ENTITY: Update entity position (mode=1)
  3: 0x02DF [0x6F] WAIT_FRAME_DELAY: Yield until WaitTime reaches zero
  4: 0x02E0 [0x00] END_REQSTACK()
```

### Event 65535.28

#### Metadata

| Field        | Value    |
|--------------|----------|
| Entrypoint   | 0x02E1   |
| Data Size    | 29 bytes |
| Instructions | 5        |

```
      00 01 02 03 04 05 06 07  08 09 0A 0B 0C 0D 0E 0F
      -- -- -- -- -- -- -- --  -- -- -- -- -- -- -- --
02E0:    03 00 00 07 7F 1A 8B  00 07 01 00 38 80 66 01   ...........8.f.
02F0: 00 F8 FF FF 7F F8 FF FF  7F 68 61 6E 37 00        .........han7.  
```

#### Opcodes

```
  0: 0x02E1 [0x03] ExtData[1]->WorkLocal[0] = Entity->Race
  1: 0x02E6 [0x1A] CALL_SUBROUTINE(address=0x008B)
  2: 0x02E9 [0x07] ExtData[1]->WorkLocal[1] += 6*
  3: 0x02EE [0x66] LOAD_EXT_SCHEDULER_MAIN: Load scheduler "han7" with entities [EventEntity, EventEntity], work=ExtData[1]->WorkLocal[1]
  4: 0x02FD [0x00] END_REQSTACK()
```

### Event 65535.29

#### Metadata

| Field        | Value    |
|--------------|----------|
| Entrypoint   | 0x02FE   |
| Data Size    | 25 bytes |
| Instructions | 6        |

```
      00 01 02 03 04 05 06 07  08 09 0A 0B 0C 0D 0E 0F
      -- -- -- -- -- -- -- --  -- -- -- -- -- -- -- --
02F0:                                            32 2D                2-
0300: 80 1F 00 39 80 3A 80 3B  80 1F 01 6F 79 00 F8 FF  ...9.:.;...oy...
0310: FF 7F 54 72 10 01 00                              ..Tr...         
```

#### Opcodes

```
  0: 0x02FE [0x32] ExtData[1]->MainSpeed = 11* * 0.1
  1: 0x0301 [0x1F] MOVE_ENTITY: EventEntity moves to X=-168.838*, Z=391.410*, Y=0.752*
  2: 0x0309 [0x1F] MOVE_ENTITY: Update entity position (mode=1)
  3: 0x030B [0x6F] WAIT_FRAME_DELAY: Yield until WaitTime reaches zero
  4: 0x030C [0x79] EventEntity looks at Unnamed NPC (ID: 17855060/0x01107254) (Basic look)
  5: 0x0316 [0x00] END_REQSTACK()
```

### Event 65535.30

#### Metadata

| Field        | Value    |
|--------------|----------|
| Entrypoint   | 0x0317   |
| Data Size    | 14 bytes |
| Instructions | 4        |

```
      00 01 02 03 04 05 06 07  08 09 0A 0B 0C 0D 0E 0F
      -- -- -- -- -- -- -- --  -- -- -- -- -- -- -- --
0310:                      32  09 80 1F 00 3C 80 3D 80         2....<.=.
0320: 3E 80 1F 01 00                                    >....           
```

#### Opcodes

```
  0: 0x0317 [0x32] ExtData[1]->MainSpeed = 13* * 0.1
  1: 0x031A [0x1F] MOVE_ENTITY: EventEntity moves to X=226.216*, Z=-71.795*, Y=0.304*
  2: 0x0322 [0x1F] MOVE_ENTITY: Update entity position (mode=1)
  3: 0x0324 [0x00] END_REQSTACK()
```

### Event 65535.31

#### Metadata

| Field        | Value     |
|--------------|-----------|
| Entrypoint   | 0x0325    |
| Data Size    | 366 bytes |
| Instructions | 43        |

```
      00 01 02 03 04 05 06 07  08 09 0A 0B 0C 0D 0E 0F
      -- -- -- -- -- -- -- --  -- -- -- -- -- -- -- --
0320:                02 03 10  01 80 05 32 03 03 03 10       ......2....
0330: 3F 80 02 02 10 00 80 80  5E 03 66 40 80 F8 FF FF  ?.......^.f@....
0340: 7F F8 FF FF 7F 74 6C 6B  30 1C 03 10 66 40 80 F8  .....tlk0...f@..
0350: FF FF 7F F8 FF FF 7F 74  6C 6B 31 01 92 04 02 02  .......tlk1.....
0360: 10 03 80 80 8A 03 66 41  80 F8 FF FF 7F F8 FF FF  ......fA........
0370: 7F 74 6C 6B 30 1C 03 10  66 41 80 F8 FF FF 7F F8  .tlk0...fA......
0380: FF FF 7F 74 6C 6B 31 01  92 04 02 02 10 42 80 80  ...tlk1......B..
0390: B6 03 66 43 80 F8 FF FF  7F F8 FF FF 7F 74 6C 6B  ..fC.........tlk
03A0: 30 1C 03 10 66 43 80 F8  FF FF 7F F8 FF FF 7F 74  0...fC.........t
03B0: 6C 6B 31 01 92 04 02 02  10 44 80 80 E2 03 66 45  lk1......D....fE
03C0: 80 F8 FF FF 7F F8 FF FF  7F 74 6C 6B 30 1C 03 10  .........tlk0...
03D0: 66 45 80 F8 FF FF 7F F8  FF FF 7F 74 6C 6B 31 01  fE.........tlk1.
03E0: 92 04 02 02 10 02 80 80  0E 04 66 46 80 F8 FF FF  ..........fF....
03F0: 7F F8 FF FF 7F 74 6C 6B  30 1C 03 10 66 46 80 F8  .....tlk0...fF..
0400: FF FF 7F F8 FF FF 7F 74  6C 6B 31 01 92 04 02 02  .......tlk1.....
0410: 10 38 80 80 3A 04 66 46  80 F8 FF FF 7F F8 FF FF  .8..:.fF........
0420: 7F 74 6C 6B 30 1C 03 10  66 46 80 F8 FF FF 7F F8  .tlk0...fF......
0430: FF FF 7F 74 6C 6B 31 01  92 04 02 02 10 47 80 80  ...tlk1......G..
0440: 66 04 66 48 80 F8 FF FF  7F F8 FF FF 7F 74 6C 6B  f.fH.........tlk
0450: 30 1C 03 10 66 48 80 F8  FF FF 7F F8 FF FF 7F 74  0...fH.........t
0460: 6C 6B 31 01 92 04 02 02  10 49 80 80 92 04 66 4A  lk1......I....fJ
0470: 80 F8 FF FF 7F F8 FF FF  7F 74 6C 6B 30 1C 03 10  .........tlk0...
0480: 66 4A 80 F8 FF FF 7F F8  FF FF 7F 74 6C 6B 31 01  fJ.........tlk1.
0490: 92 04 00                                          ...             
```

#### Opcodes

```
  0: 0x0325 [0x02] IF !(Work_Zone[3] > 0*) GOTO 0x0332
  1: 0x032D [0x03] Work_Zone[3] = 120*
  2: 0x0332 [0x02] IF !(Work_Zone[2] == 1*) GOTO 0x035E
  3: 0x033A [0x66] LOAD_EXT_SCHEDULER_MAIN: Load scheduler "tlk0" with entities [EventEntity, EventEntity], work=149*
  4: 0x0349 [0x1C] WAIT(Work_Zone[3] ticks)
  5: 0x034C [0x66] LOAD_EXT_SCHEDULER_MAIN: Load scheduler "tlk1" with entities [EventEntity, EventEntity], work=149*
  6: 0x035B [0x01] GOTO 0x0492
  7: 0x035E [0x02] IF !(Work_Zone[2] == 2*) GOTO 0x038A
  8: 0x0366 [0x66] LOAD_EXT_SCHEDULER_MAIN: Load scheduler "tlk0" with entities [EventEntity, EventEntity], work=159*
  9: 0x0375 [0x1C] WAIT(Work_Zone[3] ticks)
 10: 0x0378 [0x66] LOAD_EXT_SCHEDULER_MAIN: Load scheduler "tlk1" with entities [EventEntity, EventEntity], work=159*
 11: 0x0387 [0x01] GOTO 0x0492
 12: 0x038A [0x02] IF !(Work_Zone[2] == 3*) GOTO 0x03B6
 13: 0x0392 [0x66] LOAD_EXT_SCHEDULER_MAIN: Load scheduler "tlk0" with entities [EventEntity, EventEntity], work=169*
 14: 0x03A1 [0x1C] WAIT(Work_Zone[3] ticks)
 15: 0x03A4 [0x66] LOAD_EXT_SCHEDULER_MAIN: Load scheduler "tlk1" with entities [EventEntity, EventEntity], work=169*
 16: 0x03B3 [0x01] GOTO 0x0492
 17: 0x03B6 [0x02] IF !(Work_Zone[2] == 4*) GOTO 0x03E2
 18: 0x03BE [0x66] LOAD_EXT_SCHEDULER_MAIN: Load scheduler "tlk0" with entities [EventEntity, EventEntity], work=179*
 19: 0x03CD [0x1C] WAIT(Work_Zone[3] ticks)
 20: 0x03D0 [0x66] LOAD_EXT_SCHEDULER_MAIN: Load scheduler "tlk1" with entities [EventEntity, EventEntity], work=179*
 21: 0x03DF [0x01] GOTO 0x0492
 22: 0x03E2 [0x02] IF !(Work_Zone[2] == 5*) GOTO 0x040E
 23: 0x03EA [0x66] LOAD_EXT_SCHEDULER_MAIN: Load scheduler "tlk0" with entities [EventEntity, EventEntity], work=189*
 24: 0x03F9 [0x1C] WAIT(Work_Zone[3] ticks)
 25: 0x03FC [0x66] LOAD_EXT_SCHEDULER_MAIN: Load scheduler "tlk1" with entities [EventEntity, EventEntity], work=189*
 26: 0x040B [0x01] GOTO 0x0492
 27: 0x040E [0x02] IF !(Work_Zone[2] == 6*) GOTO 0x043A
 28: 0x0416 [0x66] LOAD_EXT_SCHEDULER_MAIN: Load scheduler "tlk0" with entities [EventEntity, EventEntity], work=189*
 29: 0x0425 [0x1C] WAIT(Work_Zone[3] ticks)
 30: 0x0428 [0x66] LOAD_EXT_SCHEDULER_MAIN: Load scheduler "tlk1" with entities [EventEntity, EventEntity], work=189*
 31: 0x0437 [0x01] GOTO 0x0492
 32: 0x043A [0x02] IF !(Work_Zone[2] == 7*) GOTO 0x0466
 33: 0x0442 [0x66] LOAD_EXT_SCHEDULER_MAIN: Load scheduler "tlk0" with entities [EventEntity, EventEntity], work=199*
 34: 0x0451 [0x1C] WAIT(Work_Zone[3] ticks)
 35: 0x0454 [0x66] LOAD_EXT_SCHEDULER_MAIN: Load scheduler "tlk1" with entities [EventEntity, EventEntity], work=199*
 36: 0x0463 [0x01] GOTO 0x0492
 37: 0x0466 [0x02] IF !(Work_Zone[2] == 8*) GOTO 0x0492
 38: 0x046E [0x66] LOAD_EXT_SCHEDULER_MAIN: Load scheduler "tlk0" with entities [EventEntity, EventEntity], work=209*
 39: 0x047D [0x1C] WAIT(Work_Zone[3] ticks)
 40: 0x0480 [0x66] LOAD_EXT_SCHEDULER_MAIN: Load scheduler "tlk1" with entities [EventEntity, EventEntity], work=209*
 41: 0x048F [0x01] GOTO 0x0492

SUBROUTINE_0492:
 42: 0x0492 [0x00] END_REQSTACK()
```

### Event 65535.32

#### Metadata

| Field        | Value     |
|--------------|-----------|
| Entrypoint   | 0x0493    |
| Data Size    | 353 bytes |
| Instructions | 41        |

```
      00 01 02 03 04 05 06 07  08 09 0A 0B 0C 0D 0E 0F
      -- -- -- -- -- -- -- --  -- -- -- -- -- -- -- --
0490:          02 07 7F 00 80  80 BF 04 66 40 80 F8 FF     ........f@...
04A0: FF 7F F8 FF FF 7F 74 6C  6B 30 1C 3F 80 66 40 80  ......tlk0.?.f@.
04B0: F8 FF FF 7F F8 FF FF 7F  74 6C 6B 31 01 F3 05 02  ........tlk1....
04C0: 07 7F 03 80 80 EB 04 66  41 80 F8 FF FF 7F F8 FF  .......fA.......
04D0: FF 7F 74 6C 6B 30 1C 3F  80 66 41 80 F8 FF FF 7F  ..tlk0.?.fA.....
04E0: F8 FF FF 7F 74 6C 6B 31  01 F3 05 02 07 7F 42 80  ....tlk1......B.
04F0: 80 17 05 66 43 80 F8 FF  FF 7F F8 FF FF 7F 74 6C  ...fC.........tl
0500: 6B 30 1C 3F 80 66 43 80  F8 FF FF 7F F8 FF FF 7F  k0.?.fC.........
0510: 74 6C 6B 31 01 F3 05 02  07 7F 44 80 80 43 05 66  tlk1......D..C.f
0520: 45 80 F8 FF FF 7F F8 FF  FF 7F 74 6C 6B 30 1C 3F  E.........tlk0.?
0530: 80 66 45 80 F8 FF FF 7F  F8 FF FF 7F 74 6C 6B 31  .fE.........tlk1
0540: 01 F3 05 02 07 7F 02 80  80 6F 05 66 46 80 F8 FF  .........o.fF...
0550: FF 7F F8 FF FF 7F 74 6C  6B 30 1C 3F 80 66 46 80  ......tlk0.?.fF.
0560: F8 FF FF 7F F8 FF FF 7F  74 6C 6B 31 01 F3 05 02  ........tlk1....
0570: 07 7F 38 80 80 9B 05 66  46 80 F8 FF FF 7F F8 FF  ..8....fF.......
0580: FF 7F 74 6C 6B 30 1C 3F  80 66 46 80 F8 FF FF 7F  ..tlk0.?.fF.....
0590: F8 FF FF 7F 74 6C 6B 31  01 F3 05 02 07 7F 47 80  ....tlk1......G.
05A0: 80 C7 05 66 48 80 F8 FF  FF 7F F8 FF FF 7F 74 6C  ...fH.........tl
05B0: 6B 30 1C 3F 80 66 48 80  F8 FF FF 7F F8 FF FF 7F  k0.?.fH.........
05C0: 74 6C 6B 31 01 F3 05 02  07 7F 49 80 80 F3 05 66  tlk1......I....f
05D0: 4A 80 F8 FF FF 7F F8 FF  FF 7F 74 6C 6B 30 1C 3F  J.........tlk0.?
05E0: 80 66 4A 80 F8 FF FF 7F  F8 FF FF 7F 74 6C 6B 31  .fJ.........tlk1
05F0: 01 F3 05 00                                       ....            
```

#### Opcodes

```
  0: 0x0493 [0x02] IF !(Entity->Race == 1*) GOTO 0x04BF
  1: 0x049B [0x66] LOAD_EXT_SCHEDULER_MAIN: Load scheduler "tlk0" with entities [EventEntity, EventEntity], work=149*
  2: 0x04AA [0x1C] WAIT(120* ticks)
  3: 0x04AD [0x66] LOAD_EXT_SCHEDULER_MAIN: Load scheduler "tlk1" with entities [EventEntity, EventEntity], work=149*
  4: 0x04BC [0x01] GOTO 0x05F3
  5: 0x04BF [0x02] IF !(Entity->Race == 2*) GOTO 0x04EB
  6: 0x04C7 [0x66] LOAD_EXT_SCHEDULER_MAIN: Load scheduler "tlk0" with entities [EventEntity, EventEntity], work=159*
  7: 0x04D6 [0x1C] WAIT(120* ticks)
  8: 0x04D9 [0x66] LOAD_EXT_SCHEDULER_MAIN: Load scheduler "tlk1" with entities [EventEntity, EventEntity], work=159*
  9: 0x04E8 [0x01] GOTO 0x05F3
 10: 0x04EB [0x02] IF !(Entity->Race == 3*) GOTO 0x0517
 11: 0x04F3 [0x66] LOAD_EXT_SCHEDULER_MAIN: Load scheduler "tlk0" with entities [EventEntity, EventEntity], work=169*
 12: 0x0502 [0x1C] WAIT(120* ticks)
 13: 0x0505 [0x66] LOAD_EXT_SCHEDULER_MAIN: Load scheduler "tlk1" with entities [EventEntity, EventEntity], work=169*
 14: 0x0514 [0x01] GOTO 0x05F3
 15: 0x0517 [0x02] IF !(Entity->Race == 4*) GOTO 0x0543
 16: 0x051F [0x66] LOAD_EXT_SCHEDULER_MAIN: Load scheduler "tlk0" with entities [EventEntity, EventEntity], work=179*
 17: 0x052E [0x1C] WAIT(120* ticks)
 18: 0x0531 [0x66] LOAD_EXT_SCHEDULER_MAIN: Load scheduler "tlk1" with entities [EventEntity, EventEntity], work=179*
 19: 0x0540 [0x01] GOTO 0x05F3
 20: 0x0543 [0x02] IF !(Entity->Race == 5*) GOTO 0x056F
 21: 0x054B [0x66] LOAD_EXT_SCHEDULER_MAIN: Load scheduler "tlk0" with entities [EventEntity, EventEntity], work=189*
 22: 0x055A [0x1C] WAIT(120* ticks)
 23: 0x055D [0x66] LOAD_EXT_SCHEDULER_MAIN: Load scheduler "tlk1" with entities [EventEntity, EventEntity], work=189*
 24: 0x056C [0x01] GOTO 0x05F3
 25: 0x056F [0x02] IF !(Entity->Race == 6*) GOTO 0x059B
 26: 0x0577 [0x66] LOAD_EXT_SCHEDULER_MAIN: Load scheduler "tlk0" with entities [EventEntity, EventEntity], work=189*
 27: 0x0586 [0x1C] WAIT(120* ticks)
 28: 0x0589 [0x66] LOAD_EXT_SCHEDULER_MAIN: Load scheduler "tlk1" with entities [EventEntity, EventEntity], work=189*
 29: 0x0598 [0x01] GOTO 0x05F3
 30: 0x059B [0x02] IF !(Entity->Race == 7*) GOTO 0x05C7
 31: 0x05A3 [0x66] LOAD_EXT_SCHEDULER_MAIN: Load scheduler "tlk0" with entities [EventEntity, EventEntity], work=199*
 32: 0x05B2 [0x1C] WAIT(120* ticks)
 33: 0x05B5 [0x66] LOAD_EXT_SCHEDULER_MAIN: Load scheduler "tlk1" with entities [EventEntity, EventEntity], work=199*
 34: 0x05C4 [0x01] GOTO 0x05F3
 35: 0x05C7 [0x02] IF !(Entity->Race == 8*) GOTO 0x05F3
 36: 0x05CF [0x66] LOAD_EXT_SCHEDULER_MAIN: Load scheduler "tlk0" with entities [EventEntity, EventEntity], work=209*
 37: 0x05DE [0x1C] WAIT(120* ticks)
 38: 0x05E1 [0x66] LOAD_EXT_SCHEDULER_MAIN: Load scheduler "tlk1" with entities [EventEntity, EventEntity], work=209*
 39: 0x05F0 [0x01] GOTO 0x05F3

SUBROUTINE_05F3:
 40: 0x05F3 [0x00] END_REQSTACK()
```

### Event 65535.33

#### Metadata

| Field        | Value    |
|--------------|----------|
| Entrypoint   | 0x05F4   |
| Data Size    | 20 bytes |
| Instructions | 6        |

```
      00 01 02 03 04 05 06 07  08 09 0A 0B 0C 0D 0E 0F
      -- -- -- -- -- -- -- --  -- -- -- -- -- -- -- --
05F0:             32 09 80 1F  00 4B 80 4C 80 4D 80 1F      2....K.L.M..
0600: 01 6F 1E 64 72 10 01 00                           .o.dr...        
```

#### Opcodes

```
  0: 0x05F4 [0x32] ExtData[1]->MainSpeed = 13* * 0.1
  1: 0x05F7 [0x1F] MOVE_ENTITY: EventEntity moves to X=168.320*, Z=159.867*, Y=-0.260*
  2: 0x05FF [0x1F] MOVE_ENTITY: Update entity position (mode=1)
  3: 0x0601 [0x6F] WAIT_FRAME_DELAY: Yield until WaitTime reaches zero
  4: 0x0602 [0x1E] EventEntity looks at Midras (ID: 17855076/0x01107264) and starts talking
  5: 0x0607 [0x00] END_REQSTACK()
```

### Event 65535.34

#### Metadata

| Field        | Value    |
|--------------|----------|
| Entrypoint   | 0x0608   |
| Data Size    | 19 bytes |
| Instructions | 5        |

```
      00 01 02 03 04 05 06 07  08 09 0A 0B 0C 0D 0E 0F
      -- -- -- -- -- -- -- --  -- -- -- -- -- -- -- --
0600:                          32 09 80 1E F8 FF FF 7F          2.......
0610: 1F 00 4E 80 4F 80 50 80  1F 01 00                 ..N.O.P....     
```

#### Opcodes

```
  0: 0x0608 [0x32] ExtData[1]->MainSpeed = 13* * 0.1
  1: 0x060B [0x1E] EventEntity looks at EventEntity and starts talking
  2: 0x0610 [0x1F] MOVE_ENTITY: EventEntity moves to X=169.350*, Z=167.000*, Y=0.072*
  3: 0x0618 [0x1F] MOVE_ENTITY: Update entity position (mode=1)
  4: 0x061A [0x00] END_REQSTACK()
```

### Event 65535.35

#### Metadata

| Field        | Value   |
|--------------|---------|
| Entrypoint   | 0x061B  |
| Data Size    | 4 bytes |
| Instructions | 2       |

```
      00 01 02 03 04 05 06 07  08 09 0A 0B 0C 0D 0E 0F
      -- -- -- -- -- -- -- --  -- -- -- -- -- -- -- --
0610:                                   1C 00 17 00                .... 
```

#### Opcodes

```
  0: 0x061B [0x1C] WAIT(Work_Zone_1700[0] ticks)
  1: 0x061E [0x00] END_REQSTACK()
```

### Event 65535.36

#### Metadata

| Field        | Value    |
|--------------|----------|
| Entrypoint   | 0x061F   |
| Data Size    | 14 bytes |
| Instructions | 4        |

```
      00 01 02 03 04 05 06 07  08 09 0A 0B 0C 0D 0E 0F
      -- -- -- -- -- -- -- --  -- -- -- -- -- -- -- --
0610:                                               32                 2
0620: 09 80 1F 00 51 80 52 80  53 80 1F 01 00           ....Q.R.S....   
```

#### Opcodes

```
  0: 0x061F [0x32] ExtData[1]->MainSpeed = 13* * 0.1
  1: 0x0622 [0x1F] MOVE_ENTITY: EventEntity moves to X=160.000*, Z=187.500*, Y=0.450*
  2: 0x062A [0x1F] MOVE_ENTITY: Update entity position (mode=1)
  3: 0x062C [0x00] END_REQSTACK()
```

### Event 65535.37

#### Metadata

| Field        | Value    |
|--------------|----------|
| Entrypoint   | 0x062D   |
| Data Size    | 34 bytes |
| Instructions | 8        |

```
      00 01 02 03 04 05 06 07  08 09 0A 0B 0C 0D 0E 0F
      -- -- -- -- -- -- -- --  -- -- -- -- -- -- -- --
0620:                                         32 10 80               2..
0630: 1F 00 54 80 55 80 53 80  1F 01 1F 00 56 80 57 80  ..T.U.S.....V.W.
0640: 58 80 1F 01 1F 00 59 80  5A 80 04 80 1F 01 00     X.....Y.Z...... 
```

#### Opcodes

```
  0: 0x062D [0x32] ExtData[1]->MainSpeed = 40* * 0.1
  1: 0x0630 [0x1F] MOVE_ENTITY: EventEntity moves to X=256.950*, Z=403.740*, Y=0.450*
  2: 0x0638 [0x1F] MOVE_ENTITY: Update entity position (mode=1)
  3: 0x063A [0x1F] MOVE_ENTITY: EventEntity moves to X=256.540*, Z=400.920*, Y=0.370*
  4: 0x0642 [0x1F] MOVE_ENTITY: Update entity position (mode=1)
  5: 0x0644 [0x1F] MOVE_ENTITY: EventEntity moves to X=257.220*, Z=396.120*, Y=0.010*
  6: 0x064C [0x1F] MOVE_ENTITY: Update entity position (mode=1)
  7: 0x064E [0x00] END_REQSTACK()
```

### Event 65535.38

#### Metadata

| Field        | Value    |
|--------------|----------|
| Entrypoint   | 0x064F   |
| Data Size    | 14 bytes |
| Instructions | 4        |

```
      00 01 02 03 04 05 06 07  08 09 0A 0B 0C 0D 0E 0F
      -- -- -- -- -- -- -- --  -- -- -- -- -- -- -- --
0640:                                               32                 2
0650: 10 80 1F 00 5B 80 5C 80  5D 80 1F 01 00           ....[.\.]....   
```

#### Opcodes

```
  0: 0x064F [0x32] ExtData[1]->MainSpeed = 40* * 0.1
  1: 0x0652 [0x1F] MOVE_ENTITY: EventEntity moves to X=134.500*, Z=60.000*, Y=1.210*
  2: 0x065A [0x1F] MOVE_ENTITY: Update entity position (mode=1)
  3: 0x065C [0x00] END_REQSTACK()
```

### Event 65535.39

#### Metadata

| Field        | Value   |
|--------------|---------|
| Entrypoint   | 0x065D  |
| Data Size    | 7 bytes |
| Instructions | 3       |

```
      00 01 02 03 04 05 06 07  08 09 0A 0B 0C 0D 0E 0F
      -- -- -- -- -- -- -- --  -- -- -- -- -- -- -- --
0650:                                         AB 03 AC               ...
0660: 01 00 80 00                                       ....            
```

#### Opcodes

```
  0: 0x065D [0xAB] EventEntity->Render.Flags0 ^= 0x20000 // Toggle bit 17
  1: 0x065F [0xAC] EventEntity->StatusEvent = 1*
  2: 0x0663 [0x00] END_REQSTACK()
```

### Event 65535.40

#### Metadata

| Field        | Value   |
|--------------|---------|
| Entrypoint   | 0x0664  |
| Data Size    | 7 bytes |
| Instructions | 3       |

```
      00 01 02 03 04 05 06 07  08 09 0A 0B 0C 0D 0E 0F
      -- -- -- -- -- -- -- --  -- -- -- -- -- -- -- --
0660:             AC 01 01 80  AB 04 00                     .......     
```

#### Opcodes

```
  0: 0x0664 [0xAC] EventEntity->StatusEvent = 0*
  1: 0x0668 [0xAB] EventEntity->Render.Flags0 |= 0x40000 // Set bit 18
  2: 0x066A [0x00] END_REQSTACK()
```

### Event 65535.41

#### Metadata

| Field        | Value    |
|--------------|----------|
| Entrypoint   | 0x066B   |
| Data Size    | 14 bytes |
| Instructions | 4        |

```
      00 01 02 03 04 05 06 07  08 09 0A 0B 0C 0D 0E 0F
      -- -- -- -- -- -- -- --  -- -- -- -- -- -- -- --
0660:                                   32 09 80 1F 00             2....
0670: 5E 80 5F 80 60 80 1F 01  00                       ^._.`....       
```

#### Opcodes

```
  0: 0x066B [0x32] ExtData[1]->MainSpeed = 13* * 0.1
  1: 0x066E [0x1F] MOVE_ENTITY: EventEntity moves to X=123.610*, Z=57.350*, Y=0.870*
  2: 0x0676 [0x1F] MOVE_ENTITY: Update entity position (mode=1)
  3: 0x0678 [0x00] END_REQSTACK()
```

### Event 65535.42

#### Metadata

| Field        | Value    |
|--------------|----------|
| Entrypoint   | 0x0679   |
| Data Size    | 27 bytes |
| Instructions | 3        |

```
      00 01 02 03 04 05 06 07  08 09 0A 0B 0C 0D 0E 0F
      -- -- -- -- -- -- -- --  -- -- -- -- -- -- -- --
0670:                             2C F8 FF FF 7F F8 FF           ,......
0680: FF 7F 63 6F 72 70 53 F8  FF FF 7F F8 FF FF 7F 63  ..corpS........c
0690: 6F 72 70 00                                       orp.            
```

#### Opcodes

```
  0: 0x0679 [0x2C] CREATE_SCHEDULER_TASK: Create scheduler "corp" with entities [EventEntity, EventEntity]
  1: 0x0686 [0x53] WAIT_SCHEDULER_TASK: Wait for scheduler "corp" with entities [EventEntity, EventEntity]
  2: 0x0693 [0x00] END_REQSTACK()
```

### Event 65535.43

#### Metadata

| Field        | Value    |
|--------------|----------|
| Entrypoint   | 0x0694   |
| Data Size    | 37 bytes |
| Instructions | 5        |

```
      00 01 02 03 04 05 06 07  08 09 0A 0B 0C 0D 0E 0F
      -- -- -- -- -- -- -- --  -- -- -- -- -- -- -- --
0690:             03 00 00 07  7F 1A 66 00 66 01 00 F8      ......f.f...
06A0: FF FF 7F F8 FF FF 7F 73  69 72 30 53 F8 FF FF 7F  .......sir0S....
06B0: F8 FF FF 7F 73 69 72 30  00                       ....sir0.       
```

#### Opcodes

```
  0: 0x0694 [0x03] ExtData[1]->WorkLocal[0] = Entity->Race
  1: 0x0699 [0x1A] CALL_SUBROUTINE(address=0x0066)
  2: 0x069C [0x66] LOAD_EXT_SCHEDULER_MAIN: Load scheduler "sir0" with entities [EventEntity, EventEntity], work=ExtData[1]->WorkLocal[1]
  3: 0x06AB [0x53] WAIT_SCHEDULER_TASK: Wait for scheduler "sir0" with entities [EventEntity, EventEntity]
  4: 0x06B8 [0x00] END_REQSTACK()
```

### Event 65535.44

#### Metadata

| Field        | Value    |
|--------------|----------|
| Entrypoint   | 0x06B9   |
| Data Size    | 37 bytes |
| Instructions | 5        |

```
      00 01 02 03 04 05 06 07  08 09 0A 0B 0C 0D 0E 0F
      -- -- -- -- -- -- -- --  -- -- -- -- -- -- -- --
06B0:                             03 00 00 07 7F 1A 66           ......f
06C0: 00 66 01 00 F8 FF FF 7F  F8 FF FF 7F 73 69 72 30  .f..........sir0
06D0: 53 F8 FF FF 7F F8 FF FF  7F 73 69 72 30 00        S........sir0.  
```

#### Opcodes

```
  0: 0x06B9 [0x03] ExtData[1]->WorkLocal[0] = Entity->Race
  1: 0x06BE [0x1A] CALL_SUBROUTINE(address=0x0066)
  2: 0x06C1 [0x66] LOAD_EXT_SCHEDULER_MAIN: Load scheduler "sir0" with entities [EventEntity, EventEntity], work=ExtData[1]->WorkLocal[1]
  3: 0x06D0 [0x53] WAIT_SCHEDULER_TASK: Wait for scheduler "sir0" with entities [EventEntity, EventEntity]
  4: 0x06DD [0x00] END_REQSTACK()
```

### Event 5

#### Metadata

| Field        | Value   |
|--------------|---------|
| Entrypoint   | 0x06DE  |
| Data Size    | 1 bytes |
| Instructions | 1       |

```
      00 01 02 03 04 05 06 07  08 09 0A 0B 0C 0D 0E 0F
      -- -- -- -- -- -- -- --  -- -- -- -- -- -- -- --
06D0:                                            00                   . 
```

#### Opcodes

```
  0: 0x06DE [0x00] END_REQSTACK()
```

### Event 65535.45

#### Metadata

| Field        | Value    |
|--------------|----------|
| Entrypoint   | 0x06DF   |
| Data Size    | 30 bytes |
| Instructions | 8        |

```
      00 01 02 03 04 05 06 07  08 09 0A 0B 0C 0D 0E 0F
      -- -- -- -- -- -- -- --  -- -- -- -- -- -- -- --
06D0:                                               32                 2
06E0: 09 80 1F 00 61 80 62 80  63 80 1F 01 1C 04 80 4B  ....a.b.c......K
06F0: F8 FF FF 7F 64 80 6F 76  F8 FF FF 7F 00           ....d.ov.....   
```

#### Opcodes

```
  0: 0x06DF [0x32] ExtData[1]->MainSpeed = 13* * 0.1
  1: 0x06E2 [0x1F] MOVE_ENTITY: EventEntity moves to X=159.197*, Z=33.216*, Y=-0.175*
  2: 0x06EA [0x1F] MOVE_ENTITY: Update entity position (mode=1)
  3: 0x06EC [0x1C] WAIT(10* ticks)
  4: 0x06EF [0x4B] UPDATE_ENTITY_YAW(entity=EventEntity, yaw=7.0*)
  5: 0x06F6 [0x6F] WAIT_FRAME_DELAY: Yield until WaitTime reaches zero
  6: 0x06F7 [0x76] CHECK_ENTITY_RENDER_FLAGS: Wait until EventEntity Render.Flags0 and Render.Flags3 conditions are met
  7: 0x06FC [0x00] END_REQSTACK()
```

### Event 65535.46

#### Metadata

| Field        | Value    |
|--------------|----------|
| Entrypoint   | 0x06FD   |
| Data Size    | 14 bytes |
| Instructions | 4        |

```
      00 01 02 03 04 05 06 07  08 09 0A 0B 0C 0D 0E 0F
      -- -- -- -- -- -- -- --  -- -- -- -- -- -- -- --
06F0:                                         32 10 80               2..
0700: 1F 00 65 80 66 80 67 80  1F 01 00                 ..e.f.g....     
```

#### Opcodes

```
  0: 0x06FD [0x32] ExtData[1]->MainSpeed = 40* * 0.1
  1: 0x0700 [0x1F] MOVE_ENTITY: EventEntity moves to X=-157.673*, Z=435.118*, Y=0.042*
  2: 0x0708 [0x1F] MOVE_ENTITY: Update entity position (mode=1)
  3: 0x070A [0x00] END_REQSTACK()
```

### Event 65535.47

#### Metadata

| Field        | Value    |
|--------------|----------|
| Entrypoint   | 0x070B   |
| Data Size    | 14 bytes |
| Instructions | 4        |

```
      00 01 02 03 04 05 06 07  08 09 0A 0B 0C 0D 0E 0F
      -- -- -- -- -- -- -- --  -- -- -- -- -- -- -- --
0700:                                   32 09 80 1F 00             2....
0710: 68 80 69 80 01 80 1F 01  00                       h.i......       
```

#### Opcodes

```
  0: 0x070B [0x32] ExtData[1]->MainSpeed = 13* * 0.1
  1: 0x070E [0x1F] MOVE_ENTITY: EventEntity moves to X=-156.429*, Z=436.694*, Y=0.000*
  2: 0x0716 [0x1F] MOVE_ENTITY: Update entity position (mode=1)
  3: 0x0718 [0x00] END_REQSTACK()
```

### Event 5515

#### Metadata

| Field        | Value      |
|--------------|------------|
| Entrypoint   | 0x0719     |
| Data Size    | 1234 bytes |
| Instructions | 242        |

```
      00 01 02 03 04 05 06 07  08 09 0A 0B 0C 0D 0E 0F
      -- -- -- -- -- -- -- --  -- -- -- -- -- -- -- --
0710:                             42 03 10 00 42 80 03           B...B..
0720: 13 00 03 10 06 01 10 06  12 00 06 07 00 06 08 00  ................
0730: 06 11 00 40 01 80 6A 80  11 00 6B 80 0F 11 00 13  ...@..j...k.....
0740: 00 10 11 00 00 80 24 6C  80 01 80 11 00 25 02 00  ......$l.....%..
0750: 10 01 80 00 60 07 03 01  10 6D 80 21 00 01 60 07  ....`....m.!..`.
0760: 03 12 00 00 10 0C 12 00  9D 00 6B 0B 07 00 12 00  ..........k.....
0770: 40 01 80 2D 80 01 10 07  00 40 6E 80 6F 80 01 10  @..-.....@n.o...
0780: 01 80 40 70 80 71 80 01  10 08 00 03 0E 00 01 10  ..@p.q..........
0790: 06 05 00 05 09 00 02 05  00 01 80 00 00 08 9D 00  ................
07A0: 9B 0B 02 10 12 00 03 03  10 10 00 02 12 00 72 80  ..............r.
07B0: 00 BA 07 48 73 80 23 01  BE 07 48 74 80 23 24 75  ...Hs.#...Ht.#$u
07C0: 80 09 00 01 80 25 02 00  10 01 80 00 DA 07 06 09  .....%..........
07D0: 00 48 76 80 1A 02 08 01  FD 07 02 00 10 00 80 00  .Hv.............
07E0: FD 07 03 01 10 6D 80 9D  00 9B 0B 02 10 12 00 03  .....m..........
07F0: 03 10 10 00 48 77 80 05  05 00 01 FD 07 01 96 07  ....Hw..........
0800: 21 00 06 0A 00 06 0D 00  06 0B 00 02 0A 00 01 80  !...............
0810: 00 32 08 02 0D 00 01 80  80 21 08 1A 33 08 01 2F  .2.......!..3../
0820: 08 02 0D 00 00 80 80 2F  08 1A F4 08 01 2F 08 01  ......./...../..
0830: 0B 08 1B 03 01 10 0E 00  40 6E 80 6F 80 01 10 0D  ........@n.o....
0840: 00 43 00 43 01 03 0C 00  09 10 03 01 10 01 80 02  .C.C............
0850: 0C 00 00 80 80 5F 08 03  0D 00 00 80 01 F3 08 02  ....._..........
0860: 0C 00 03 80 80 85 08 0B  0B 00 02 0B 00 02 80 02  ................
0870: 7F 08 05 0A 00 48 78 80  23 1C 2C 80 01 82 08 1C  .....Hx.#.,.....
0880: 3F 80 01 F3 08 02 0C 00  42 80 80 9B 08 03 01 10  ?.......B.......
0890: 6D 80 05 0A 00 05 05 00  01 F3 08 02 0C 00 44 80  m.............D.
08A0: 80 B1 08 03 01 10 6D 80  05 0A 00 05 05 00 01 F3  ......m.........
08B0: 08 02 0C 00 02 80 80 C7  08 03 01 10 6D 80 05 0A  ............m...
08C0: 00 05 05 00 01 F3 08 02  0C 00 38 80 80 DD 08 03  ..........8.....
08D0: 01 10 6D 80 05 0A 00 05  05 00 01 F3 08 02 0C 00  ..m.............
08E0: 47 80 80 F3 08 03 01 10  6D 80 05 0A 00 05 05 00  G.......m.......
08F0: 01 F3 08 1B 03 01 10 0E  00 40 6E 80 6F 80 01 10  .........@n.o...
0900: 0D 00 43 00 43 01 03 01  10 01 80 03 0C 00 09 10  ..C.C...........
0910: 02 0C 00 42 80 80 23 09  03 01 10 6D 80 05 0A 00  ...B..#....m....
0920: 01 6A 0B 02 0C 00 44 80  80 39 09 03 01 10 6D 80  .j....D..9....m.
0930: 05 0A 00 05 05 00 01 6A  0B 02 0C 00 02 80 80 4F  .......j.......O
0940: 09 03 01 10 6D 80 05 0A  00 05 05 00 01 6A 0B 02  ....m........j..
0950: 0C 00 38 80 80 65 09 03  01 10 6D 80 05 0A 00 05  ..8..e....m.....
0960: 05 00 01 6A 0B 02 0C 00  47 80 80 7B 09 03 01 10  ...j....G..{....
0970: 6D 80 05 0A 00 05 05 00  01 6A 0B 02 0C 00 49 80  m........j....I.
0980: 80 09 0B 02 07 00 79 80  80 9C 09 03 02 10 7A 80  ......y.......z.
0990: 03 03 10 00 80 48 7B 80  23 01 8B 0A 02 07 00 7C  .....H{.#......|
09A0: 80 80 B5 09 03 02 10 7A  80 03 03 10 00 80 48 7B  .......z......H{
09B0: 80 23 01 8B 0A 02 07 00  7D 80 80 CE 09 03 02 10  .#......}.......
09C0: 7A 80 03 03 10 00 80 48  7B 80 23 01 8B 0A 02 07  z......H{.#.....
09D0: 00 7E 80 80 E7 09 03 02  10 7A 80 03 03 10 00 80  .~.......z......
09E0: 48 7B 80 23 01 8B 0A 02  07 00 7F 80 80 00 0A 03  H{.#............
09F0: 02 10 7A 80 03 03 10 00  80 48 7B 80 23 01 8B 0A  ..z......H{.#...
0A00: 02 07 00 80 80 80 19 0A  03 02 10 7A 80 03 03 10  ...........z....
0A10: 00 80 48 7B 80 23 01 8B  0A 02 07 00 81 80 80 32  ..H{.#.........2
0A20: 0A 03 02 10 7A 80 03 03  10 00 80 48 7B 80 23 01  ....z......H{.#.
0A30: 8B 0A 02 07 00 82 80 80  4B 0A 03 02 10 7A 80 03  ........K....z..
0A40: 03 10 00 80 48 7B 80 23  01 8B 0A 02 07 00 60 80  ....H{.#......`.
0A50: 80 64 0A 03 02 10 7A 80  03 03 10 00 80 48 7B 80  .d....z......H{.
0A60: 23 01 8B 0A 02 07 00 83  80 80 7D 0A 03 02 10 7A  #.........}....z
0A70: 80 03 03 10 00 80 48 7B  80 23 01 8B 0A 03 02 10  ......H{.#......
0A80: 7A 80 03 03 10 10 00 48  84 80 23 62 00 80 F0 FF  z......H..#b....
0A90: FF 7F F0 FF FF 7F 6D 61  69 6E 01 80 1C 1C 80 45  ......main.....E
0AA0: 85 80 F0 FF FF 7F F0 FF  FF 7F 77 68 6F 31 01 80  ..........who1..
0AB0: 55 85 80 F0 FF FF 7F F0  FF FF 7F 77 68 6F 31 1C  U..........who1.
0AC0: 86 80 45 87 80 F0 FF FF  7F F0 FF FF 7F 66 64 6F  ..E..........fdo
0AD0: 31 01 80 55 87 80 F0 FF  FF 7F F0 FF FF 7F 66 64  1..U..........fd
0AE0: 6F 31 45 85 80 F0 FF FF  7F F0 FF FF 7F 77 68 69  o1E..........whi
0AF0: 31 01 80 1C 6F 80 30 05  0A 00 05 05 00 40 01 80  1...o.0......@..
0B00: 47 80 01 10 49 80 01 6A  0B 02 0C 00 05 80 80 1C  G...I..j........
0B10: 0B 03 01 10 6D 80 05 0A  00 01 6A 0B 02 0C 00 04  ....m.....j.....
0B20: 80 80 32 0B 03 01 10 6D  80 05 0A 00 05 05 00 01  ..2....m........
0B30: 6A 0B 02 0C 00 2D 80 80  6A 0B 0B 0B 00 02 0B 00  j....-..j.......
0B40: 6F 80 02 64 0B 03 01 10  0E 00 40 6E 80 6F 80 01  o..d......@n.o..
0B50: 10 03 80 43 00 43 01 05  0A 00 48 78 80 23 1C 2C  ...C.C....Hx.#.,
0B60: 80 01 67 0B 1C 3F 80 01  6A 0B 1B 88 80 89 80 8A  ..g..?..j.......
0B70: 80 8B 80 8C 80 8D 80 8E  80 8F 80 90 80 91 80 92  ................
0B80: 80 93 80 94 80 95 80 79  80 96 80 01 80 01 80 01  .......y........
0B90: 80 97 80 97 80 98 80 01  80 01 80 7A 80 7A 80 99  ...........z.z..
0BA0: 80 7A 80 9A 80 9A 80 99  80 7A 80 7A 80 99 80 9A  .z.......z.z....
0BB0: 80 7A 80 99 80 7A 80 7A  80 99 80 01 80 01 80 01  .z...z.z........
0BC0: 80 99 80 99 80 9B 80 01  80 01 80 79 80 7C 80 7D  ...........y.|.}
0BD0: 80 7E 80 7F 80 80 80 81  80 82 80 60 80 83 80 01  .~.........`....
0BE0: 80 01 80 01 80 01 80 01  80 01 80                 ...........     
```

#### Opcodes

```
  0: 0x0719 [0x42] SET_CLI_EVENT_CANCEL_DATA()
  1: 0x071A [0x03] ExtData[1]->WorkLocal[16] = 3*
  2: 0x071F [0x03] ExtData[1]->WorkLocal[19] = Work_Zone[3]
  3: 0x0724 [0x06] Work_Zone[1] = 0
  4: 0x0727 [0x06] ExtData[1]->WorkLocal[18] = 0
  5: 0x072A [0x06] ExtData[1]->WorkLocal[7] = 0
  6: 0x072D [0x06] ExtData[1]->WorkLocal[8] = 0
  7: 0x0730 [0x06] ExtData[1]->WorkLocal[17] = 0
  8: 0x0733 [0x40] SET_BIT_WORK_RANGE(start_bit=0*, end_bit=31*, target=ExtData[1]->WorkLocal[17], source=4294967295*)
  9: 0x073C [0x0F] ExtData[1]->WorkLocal[17] ^= ExtData[1]->WorkLocal[19]
 10: 0x0741 [0x10] ExtData[1]->WorkLocal[17] <<= 1*
 11: 0x0746 [0x24] CREATE_DIALOG(message_id=7863*, default_option=0*, option_flags=ExtData[1]->WorkLocal[17])
     "Enter which battlefield? [None./Endeavoring to Awaken./Endeavoring to Awaken./ /Behind the Sluices./Stonewalled./The Gates./Saved by the Bell./Quiescence./The Charlatan./Yggdrasil Beckons./Yggdrasil Beckons./Watery Grave./Mistress of Ceremonies./A Barrel of Laughs./Sinister Reign./The Ygnas Directive 6./Skirmishes./[Fractures/Obscured Domains]./Alluvion skirmishes./The Silent Forest./Wind of Eternity./Phantasmic Heroes.]"
 12: 0x074D [0x25] WAIT_DIALOG_SELECT()
 13: 0x074E [0x02] IF !(Work_Zone[0] == 0*) GOTO 0x0760
 14: 0x0756 [0x03] Work_Zone[1] = 1073741824*
 15: 0x075B [0x21] END_EVENT
 16: 0x075C [0x00] END_REQSTACK()

SUBROUTINE_0760:
 17: 0x0760 [0x03] ExtData[1]->WorkLocal[18] = Work_Zone[0]
 18: 0x0765 [0x0C] ExtData[1]->WorkLocal[18]--
 19: 0x0768 [0x9D] ExtData[1]->WorkLocal[7] = 0x0B6B[ExtData[1]->WorkLocal[18]] // Read WORD
 20: 0x0770 [0x40] SET_BIT_WORK_RANGE(start_bit=0*, end_bit=11*, target=Work_Zone[1], source=ExtData[1]->WorkLocal[7])
 21: 0x0779 [0x40] SET_BIT_WORK_RANGE(start_bit=12*, end_bit=15*, target=Work_Zone[1], source=0*)
 22: 0x0782 [0x40] SET_BIT_WORK_RANGE(start_bit=16*, end_bit=29*, target=Work_Zone[1], source=ExtData[1]->WorkLocal[8])
 23: 0x078B [0x03] ExtData[1]->WorkLocal[14] = Work_Zone[1]
 24: 0x0790 [0x06] ExtData[1]->WorkLocal[5] = 0
 25: 0x0793 [0x05] ExtData[1]->WorkLocal[9] = 1

SUBROUTINE_0796:
 26: 0x0796 [0x02] IF !(ExtData[1]->WorkLocal[5] == 0*) GOTO 0x0800
 27: 0x079E [0x9D] Work_Zone[2] = 0x0B9B[ExtData[1]->WorkLocal[18]] // Read WORD
 28: 0x07A6 [0x03] Work_Zone[3] = ExtData[1]->WorkLocal[16]
 29: 0x07AB [0x02] IF !(ExtData[1]->WorkLocal[18] == 21*) GOTO 0x07BA
 30: 0x07B3 [0x48] [System] [7876*]:
     "Entering [/Skrimish: ////Alluvion Skirmish: /]$8. Proceed?"
 31: 0x07B6 [0x23] WAIT_FOR_DIALOG_INTERACTION
 32: 0x07B7 [0x01] GOTO 0x07BE
 33: 0x07BA [0x48] [System] [7843*]:
     "Only party members present with you in this area will be transported to [/this skirmish in ////this alluvion skirmish in /]$8."
 34: 0x07BD [0x23] WAIT_FOR_DIALOG_INTERACTION

SUBROUTINE_07BE:
 35: 0x07BE [0x24] CREATE_DIALOG(message_id=7844*, default_option=ExtData[1]->WorkLocal[9], option_flags=0*)
     "Proceed? [Yes./No.]"
 36: 0x07C5 [0x25] WAIT_DIALOG_SELECT()
 37: 0x07C6 [0x02] IF !(Work_Zone[0] == 0*) GOTO 0x07DA
 38: 0x07CE [0x06] ExtData[1]->WorkLocal[9] = 0
 39: 0x07D1 [0x48] [System] [7851*]:
     "Your request for entry is being considered..."
 40: 0x07D4 [0x1A] CALL_SUBROUTINE(address=0x0802)
 41: 0x07D7 [0x01] GOTO 0x07FD
 42: 0x07DA [0x02] IF !(Work_Zone[0] == 1*) GOTO 0x07FD
 43: 0x07E2 [0x03] Work_Zone[1] = 1073741824*
 44: 0x07E7 [0x9D] Work_Zone[2] = 0x0B9B[ExtData[1]->WorkLocal[18]] // Read WORD
 45: 0x07EF [0x03] Work_Zone[3] = ExtData[1]->WorkLocal[16]
 46: 0x07F4 [0x48] [System] [7846*]:
     "You have chosen not to enter [/this skirmish in ////this alluvion skirmish in /]$8."
 47: 0x07F7 [0x05] ExtData[1]->WorkLocal[5] = 1
 48: 0x07FA [0x01] GOTO 0x07FD

SUBROUTINE_07FD:
 49: 0x07FD [0x01] GOTO 0x0796
 50: 0x0800 [0x21] END_EVENT
 51: 0x0801 [0x00] END_REQSTACK()

SUBROUTINE_0802:
 52: 0x0802 [0x06] ExtData[1]->WorkLocal[10] = 0
 53: 0x0805 [0x06] ExtData[1]->WorkLocal[13] = 0
 54: 0x0808 [0x06] ExtData[1]->WorkLocal[11] = 0

SUBROUTINE_080B:
 55: 0x080B [0x02] IF !(ExtData[1]->WorkLocal[10] == 0*) GOTO 0x0832
 56: 0x0813 [0x02] IF !(ExtData[1]->WorkLocal[13] == 0*) GOTO 0x0821
 57: 0x081B [0x1A] CALL_SUBROUTINE(address=0x0833)
 58: 0x081E [0x01] GOTO 0x082F
 59: 0x0821 [0x02] IF !(ExtData[1]->WorkLocal[13] == 1*) GOTO 0x082F
 60: 0x0829 [0x1A] CALL_SUBROUTINE(address=0x08F4)
 61: 0x082C [0x01] GOTO 0x082F

SUBROUTINE_082F:
 62: 0x082F [0x01] GOTO 0x080B
 63: 0x0832 [0x1B] RETURN

SUBROUTINE_0833:
 64: 0x0833 [0x03] Work_Zone[1] = ExtData[1]->WorkLocal[14]
 65: 0x0838 [0x40] SET_BIT_WORK_RANGE(start_bit=12*, end_bit=15*, target=Work_Zone[1], source=ExtData[1]->WorkLocal[13])
 66: 0x0841 [0x43] SEND_EVENT_UPDATE: Send pending tag to server (packet 0x005B)
 67: 0x0843 [0x43] SEND_EVENT_UPDATE: Check pending flag (skip if not pending)
 68: 0x0845 [0x03] ExtData[1]->WorkLocal[12] = Work_Zone[9]
 69: 0x084A [0x03] Work_Zone[1] = 0*
 70: 0x084F [0x02] IF !(ExtData[1]->WorkLocal[12] == 1*) GOTO 0x085F
 71: 0x0857 [0x03] ExtData[1]->WorkLocal[13] = 1*
 72: 0x085C [0x01] GOTO 0x08F3
 73: 0x085F [0x02] IF !(ExtData[1]->WorkLocal[12] == 2*) GOTO 0x0885
 74: 0x0867 [0x0B] ExtData[1]->WorkLocal[11]++
 75: 0x086A [0x02] IF !(ExtData[1]->WorkLocal[11] <= 5*) GOTO 0x087F
 76: 0x0872 [0x05] ExtData[1]->WorkLocal[10] = 1
 77: 0x0875 [0x48] [System] [7848*]:
     "You cannot enter at this time. Please wait a moment and try again."
 78: 0x0878 [0x23] WAIT_FOR_DIALOG_INTERACTION
 79: 0x0879 [0x1C] WAIT(60* ticks)
 80: 0x087C [0x01] GOTO 0x0882
 81: 0x087F [0x1C] WAIT(120* ticks)

SUBROUTINE_0882:
 82: 0x0882 [0x01] GOTO 0x08F3
 83: 0x0885 [0x02] IF !(ExtData[1]->WorkLocal[12] == 3*) GOTO 0x089B
 84: 0x088D [0x03] Work_Zone[1] = 1073741824*
 85: 0x0892 [0x05] ExtData[1]->WorkLocal[10] = 1
 86: 0x0895 [0x05] ExtData[1]->WorkLocal[5] = 1
 87: 0x0898 [0x01] GOTO 0x08F3
 88: 0x089B [0x02] IF !(ExtData[1]->WorkLocal[12] == 4*) GOTO 0x08B1
 89: 0x08A3 [0x03] Work_Zone[1] = 1073741824*
 90: 0x08A8 [0x05] ExtData[1]->WorkLocal[10] = 1
 91: 0x08AB [0x05] ExtData[1]->WorkLocal[5] = 1
 92: 0x08AE [0x01] GOTO 0x08F3
 93: 0x08B1 [0x02] IF !(ExtData[1]->WorkLocal[12] == 5*) GOTO 0x08C7
 94: 0x08B9 [0x03] Work_Zone[1] = 1073741824*
 95: 0x08BE [0x05] ExtData[1]->WorkLocal[10] = 1
 96: 0x08C1 [0x05] ExtData[1]->WorkLocal[5] = 1
 97: 0x08C4 [0x01] GOTO 0x08F3
 98: 0x08C7 [0x02] IF !(ExtData[1]->WorkLocal[12] == 6*) GOTO 0x08DD
 99: 0x08CF [0x03] Work_Zone[1] = 1073741824*
100: 0x08D4 [0x05] ExtData[1]->WorkLocal[10] = 1
101: 0x08D7 [0x05] ExtData[1]->WorkLocal[5] = 1
102: 0x08DA [0x01] GOTO 0x08F3
103: 0x08DD [0x02] IF !(ExtData[1]->WorkLocal[12] == 7*) GOTO 0x08F3
104: 0x08E5 [0x03] Work_Zone[1] = 1073741824*
105: 0x08EA [0x05] ExtData[1]->WorkLocal[10] = 1
106: 0x08ED [0x05] ExtData[1]->WorkLocal[5] = 1
107: 0x08F0 [0x01] GOTO 0x08F3

SUBROUTINE_08F3:
108: 0x08F3 [0x1B] RETURN

SUBROUTINE_08F4:
109: 0x08F4 [0x03] Work_Zone[1] = ExtData[1]->WorkLocal[14]
110: 0x08F9 [0x40] SET_BIT_WORK_RANGE(start_bit=12*, end_bit=15*, target=Work_Zone[1], source=ExtData[1]->WorkLocal[13])
111: 0x0902 [0x43] SEND_EVENT_UPDATE: Send pending tag to server (packet 0x005B)
112: 0x0904 [0x43] SEND_EVENT_UPDATE: Check pending flag (skip if not pending)
113: 0x0906 [0x03] Work_Zone[1] = 0*
114: 0x090B [0x03] ExtData[1]->WorkLocal[12] = Work_Zone[9]
115: 0x0910 [0x02] IF !(ExtData[1]->WorkLocal[12] == 3*) GOTO 0x0923
116: 0x0918 [0x03] Work_Zone[1] = 1073741824*
117: 0x091D [0x05] ExtData[1]->WorkLocal[10] = 1
118: 0x0920 [0x01] GOTO 0x0B6A
119: 0x0923 [0x02] IF !(ExtData[1]->WorkLocal[12] == 4*) GOTO 0x0939
120: 0x092B [0x03] Work_Zone[1] = 1073741824*
121: 0x0930 [0x05] ExtData[1]->WorkLocal[10] = 1
122: 0x0933 [0x05] ExtData[1]->WorkLocal[5] = 1
123: 0x0936 [0x01] GOTO 0x0B6A
124: 0x0939 [0x02] IF !(ExtData[1]->WorkLocal[12] == 5*) GOTO 0x094F
125: 0x0941 [0x03] Work_Zone[1] = 1073741824*
126: 0x0946 [0x05] ExtData[1]->WorkLocal[10] = 1
127: 0x0949 [0x05] ExtData[1]->WorkLocal[5] = 1
128: 0x094C [0x01] GOTO 0x0B6A
129: 0x094F [0x02] IF !(ExtData[1]->WorkLocal[12] == 6*) GOTO 0x0965
130: 0x0957 [0x03] Work_Zone[1] = 1073741824*
131: 0x095C [0x05] ExtData[1]->WorkLocal[10] = 1
132: 0x095F [0x05] ExtData[1]->WorkLocal[5] = 1
133: 0x0962 [0x01] GOTO 0x0B6A
134: 0x0965 [0x02] IF !(ExtData[1]->WorkLocal[12] == 7*) GOTO 0x097B
135: 0x096D [0x03] Work_Zone[1] = 1073741824*
136: 0x0972 [0x05] ExtData[1]->WorkLocal[10] = 1
137: 0x0975 [0x05] ExtData[1]->WorkLocal[5] = 1
138: 0x0978 [0x01] GOTO 0x0B6A
139: 0x097B [0x02] IF !(ExtData[1]->WorkLocal[12] == 8*) GOTO 0x0B09
140: 0x0983 [0x02] IF !(ExtData[1]->WorkLocal[7] == 854*) GOTO 0x099C
141: 0x098B [0x03] Work_Zone[2] = 259*
142: 0x0990 [0x03] Work_Zone[3] = 1*
143: 0x0995 [0x48] [System] [7860*]:
     "Now permeating the mists surrounding the [fracture/obscured domain]."
144: 0x0998 [0x23] WAIT_FOR_DIALOG_INTERACTION
145: 0x0999 [0x01] GOTO 0x0A8B
146: 0x099C [0x02] IF !(ExtData[1]->WorkLocal[7] == 863*) GOTO 0x09B5
147: 0x09A4 [0x03] Work_Zone[2] = 259*
148: 0x09A9 [0x03] Work_Zone[3] = 1*
149: 0x09AE [0x48] [System] [7860*]:
     "Now permeating the mists surrounding the [fracture/obscured domain]."
150: 0x09B1 [0x23] WAIT_FOR_DIALOG_INTERACTION
151: 0x09B2 [0x01] GOTO 0x0A8B
152: 0x09B5 [0x02] IF !(ExtData[1]->WorkLocal[7] == 864*) GOTO 0x09CE
153: 0x09BD [0x03] Work_Zone[2] = 259*
154: 0x09C2 [0x03] Work_Zone[3] = 1*
155: 0x09C7 [0x48] [System] [7860*]:
     "Now permeating the mists surrounding the [fracture/obscured domain]."
156: 0x09CA [0x23] WAIT_FOR_DIALOG_INTERACTION
157: 0x09CB [0x01] GOTO 0x0A8B
158: 0x09CE [0x02] IF !(ExtData[1]->WorkLocal[7] == 865*) GOTO 0x09E7
159: 0x09D6 [0x03] Work_Zone[2] = 259*
160: 0x09DB [0x03] Work_Zone[3] = 1*
161: 0x09E0 [0x48] [System] [7860*]:
     "Now permeating the mists surrounding the [fracture/obscured domain]."
162: 0x09E3 [0x23] WAIT_FOR_DIALOG_INTERACTION
163: 0x09E4 [0x01] GOTO 0x0A8B
164: 0x09E7 [0x02] IF !(ExtData[1]->WorkLocal[7] == 866*) GOTO 0x0A00
165: 0x09EF [0x03] Work_Zone[2] = 259*
166: 0x09F4 [0x03] Work_Zone[3] = 1*
167: 0x09F9 [0x48] [System] [7860*]:
     "Now permeating the mists surrounding the [fracture/obscured domain]."
168: 0x09FC [0x23] WAIT_FOR_DIALOG_INTERACTION
169: 0x09FD [0x01] GOTO 0x0A8B
170: 0x0A00 [0x02] IF !(ExtData[1]->WorkLocal[7] == 867*) GOTO 0x0A19
171: 0x0A08 [0x03] Work_Zone[2] = 259*
172: 0x0A0D [0x03] Work_Zone[3] = 1*
173: 0x0A12 [0x48] [System] [7860*]:
     "Now permeating the mists surrounding the [fracture/obscured domain]."
174: 0x0A15 [0x23] WAIT_FOR_DIALOG_INTERACTION
175: 0x0A16 [0x01] GOTO 0x0A8B
176: 0x0A19 [0x02] IF !(ExtData[1]->WorkLocal[7] == 868*) GOTO 0x0A32
177: 0x0A21 [0x03] Work_Zone[2] = 259*
178: 0x0A26 [0x03] Work_Zone[3] = 1*
179: 0x0A2B [0x48] [System] [7860*]:
     "Now permeating the mists surrounding the [fracture/obscured domain]."
180: 0x0A2E [0x23] WAIT_FOR_DIALOG_INTERACTION
181: 0x0A2F [0x01] GOTO 0x0A8B
182: 0x0A32 [0x02] IF !(ExtData[1]->WorkLocal[7] == 869*) GOTO 0x0A4B
183: 0x0A3A [0x03] Work_Zone[2] = 259*
184: 0x0A3F [0x03] Work_Zone[3] = 1*
185: 0x0A44 [0x48] [System] [7860*]:
     "Now permeating the mists surrounding the [fracture/obscured domain]."
186: 0x0A47 [0x23] WAIT_FOR_DIALOG_INTERACTION
187: 0x0A48 [0x01] GOTO 0x0A8B
188: 0x0A4B [0x02] IF !(ExtData[1]->WorkLocal[7] == 870*) GOTO 0x0A64
189: 0x0A53 [0x03] Work_Zone[2] = 259*
190: 0x0A58 [0x03] Work_Zone[3] = 1*
191: 0x0A5D [0x48] [System] [7860*]:
     "Now permeating the mists surrounding the [fracture/obscured domain]."
192: 0x0A60 [0x23] WAIT_FOR_DIALOG_INTERACTION
193: 0x0A61 [0x01] GOTO 0x0A8B
194: 0x0A64 [0x02] IF !(ExtData[1]->WorkLocal[7] == 871*) GOTO 0x0A7D
195: 0x0A6C [0x03] Work_Zone[2] = 259*
196: 0x0A71 [0x03] Work_Zone[3] = 1*
197: 0x0A76 [0x48] [System] [7860*]:
     "Now permeating the mists surrounding the [fracture/obscured domain]."
198: 0x0A79 [0x23] WAIT_FOR_DIALOG_INTERACTION
199: 0x0A7A [0x01] GOTO 0x0A8B
200: 0x0A7D [0x03] Work_Zone[2] = 259*
201: 0x0A82 [0x03] Work_Zone[3] = ExtData[1]->WorkLocal[16]
202: 0x0A87 [0x48] [System] [7845*]:
     "Now entering [/a skirmish in ////an alluvion skirmish in /]$8."
203: 0x0A8A [0x23] WAIT_FOR_DIALOG_INTERACTION

SUBROUTINE_0A8B:
204: 0x0A8B [0x62] LOAD_EVENT_SCHEDULER: Load scheduler "main" with entities [LocalPlayer, LocalPlayer], work=[1*, 0*]
205: 0x0A9C [0x1C] WAIT(90* ticks)
206: 0x0A9F [0x45] LOAD_SCHEDULED_TASK: Load scheduler "who1" with entities [LocalPlayer, LocalPlayer], work=[201*, 0*]
207: 0x0AB0 [0x55] WAIT_LOAD_SCHEDULER: Wait for scheduler "who1" with entities [LocalPlayer, LocalPlayer], work=201*
208: 0x0ABF [0x1C] WAIT(45* ticks)
209: 0x0AC2 [0x45] LOAD_SCHEDULED_TASK: Load scheduler "fdo1" with entities [LocalPlayer, LocalPlayer], work=[200*, 0*]
210: 0x0AD3 [0x55] WAIT_LOAD_SCHEDULER: Wait for scheduler "fdo1" with entities [LocalPlayer, LocalPlayer], work=200*
211: 0x0AE2 [0x45] LOAD_SCHEDULED_TASK: Load scheduler "whi1" with entities [LocalPlayer, LocalPlayer], work=[201*, 0*]
212: 0x0AF3 [0x1C] WAIT(15* ticks)
213: 0x0AF6 [0x30] SET_UCOFF_CONTINUE_ZERO()
214: 0x0AF7 [0x05] ExtData[1]->WorkLocal[10] = 1
215: 0x0AFA [0x05] ExtData[1]->WorkLocal[5] = 1
216: 0x0AFD [0x40] SET_BIT_WORK_RANGE(start_bit=0*, end_bit=7*, target=Work_Zone[1], source=8*)
217: 0x0B06 [0x01] GOTO 0x0B6A
218: 0x0B09 [0x02] IF !(ExtData[1]->WorkLocal[12] == 9*) GOTO 0x0B1C
219: 0x0B11 [0x03] Work_Zone[1] = 1073741824*
220: 0x0B16 [0x05] ExtData[1]->WorkLocal[10] = 1
221: 0x0B19 [0x01] GOTO 0x0B6A
222: 0x0B1C [0x02] IF !(ExtData[1]->WorkLocal[12] == 10*) GOTO 0x0B32
223: 0x0B24 [0x03] Work_Zone[1] = 1073741824*
224: 0x0B29 [0x05] ExtData[1]->WorkLocal[10] = 1
225: 0x0B2C [0x05] ExtData[1]->WorkLocal[5] = 1
226: 0x0B2F [0x01] GOTO 0x0B6A
227: 0x0B32 [0x02] IF !(ExtData[1]->WorkLocal[12] == 11*) GOTO 0x0B6A
228: 0x0B3A [0x0B] ExtData[1]->WorkLocal[11]++
229: 0x0B3D [0x02] IF !(ExtData[1]->WorkLocal[11] <= 15*) GOTO 0x0B64
230: 0x0B45 [0x03] Work_Zone[1] = ExtData[1]->WorkLocal[14]
231: 0x0B4A [0x40] SET_BIT_WORK_RANGE(start_bit=12*, end_bit=15*, target=Work_Zone[1], source=2*)
232: 0x0B53 [0x43] SEND_EVENT_UPDATE: Send pending tag to server (packet 0x005B)
233: 0x0B55 [0x43] SEND_EVENT_UPDATE: Check pending flag (skip if not pending)
234: 0x0B57 [0x05] ExtData[1]->WorkLocal[10] = 1
235: 0x0B5A [0x48] [System] [7848*]:
     "You cannot enter at this time. Please wait a moment and try again."
236: 0x0B5D [0x23] WAIT_FOR_DIALOG_INTERACTION
237: 0x0B5E [0x1C] WAIT(60* ticks)
238: 0x0B61 [0x01] GOTO 0x0B67
239: 0x0B64 [0x1C] WAIT(120* ticks)

SUBROUTINE_0B67:
240: 0x0B67 [0x01] GOTO 0x0B6A

SUBROUTINE_0B6A:
241: 0x0B6A [0x1B] RETURN
```

#### Data or dead code:

```
# Data Section: 0x0B6B (128 bytes)
     0x0B6B: 88 80 89 80 8A 80 8B 80 8C 80 8D 80 8E 80 8F 80
     0x0B7B: 90 80 91 80 92 80 93 80 94 80 95 80 79 80 96 80
     0x0B8B: 01 80 01 80 01 80 97 80 97 80 98 80 01 80 01 80
     0x0B9B: 7A 80 7A 80 99 80 7A 80 9A 80 9A 80 99 80 7A 80
     0x0BAB: 7A 80 99 80 9A 80 7A 80 99 80 7A 80 7A 80 99 80
     0x0BBB: 01 80 01 80 01 80 99 80 99 80 9B 80 01 80 01 80
     0x0BCB: 79 80 7C 80 7D 80 7E 80 7F 80 80 80 81 80 82 80
     0x0BDB: 60 80 83 80 01 80 01 80 01 80 01 80 01 80 01 80
# Dead code (unreachable instructions):
     0x075D [0x01] GOTO 0x0760
```

### Event 5504

#### Metadata

| Field        | Value     |
|--------------|-----------|
| Entrypoint   | 0x0BEB    |
| Data Size    | 128 bytes |
| Instructions | 14        |

```
      00 01 02 03 04 05 06 07  08 09 0A 0B 0C 0D 0E 0F
      -- -- -- -- -- -- -- --  -- -- -- -- -- -- -- --
0BE0:                                   42 45 87 80 F0             BE...
0BF0: FF FF 7F F0 FF FF 7F 66  64 6F 31 01 80 62 00 80  .......fdo1..b..
0C00: F0 FF FF 7F F0 FF FF 7F  6D 61 69 6E 01 80 1C 1C  ........main....
0C10: 80 45 85 80 F0 FF FF 7F  F0 FF FF 7F 77 68 6F 31  .E..........who1
0C20: 01 80 55 85 80 F0 FF FF  7F F0 FF FF 7F 77 68 6F  ..U..........who
0C30: 31 1C 86 80 45 87 80 F0  FF FF 7F F0 FF FF 7F 66  1...E..........f
0C40: 64 6F 31 01 80 55 87 80  F0 FF FF 7F F0 FF FF 7F  do1..U..........
0C50: 66 64 6F 31 45 85 80 F0  FF FF 7F F0 FF FF 7F 77  fdo1E..........w
0C60: 68 69 31 01 80 1C 6F 80  30 21 00                 hi1...o.0!.     
```

#### Opcodes

```
  0: 0x0BEB [0x42] SET_CLI_EVENT_CANCEL_DATA()
  1: 0x0BEC [0x45] LOAD_SCHEDULED_TASK: Load scheduler "fdo1" with entities [LocalPlayer, LocalPlayer], work=[200*, 0*]
  2: 0x0BFD [0x62] LOAD_EVENT_SCHEDULER: Load scheduler "main" with entities [LocalPlayer, LocalPlayer], work=[1*, 0*]
  3: 0x0C0E [0x1C] WAIT(90* ticks)
  4: 0x0C11 [0x45] LOAD_SCHEDULED_TASK: Load scheduler "who1" with entities [LocalPlayer, LocalPlayer], work=[201*, 0*]
  5: 0x0C22 [0x55] WAIT_LOAD_SCHEDULER: Wait for scheduler "who1" with entities [LocalPlayer, LocalPlayer], work=201*
  6: 0x0C31 [0x1C] WAIT(45* ticks)
  7: 0x0C34 [0x45] LOAD_SCHEDULED_TASK: Load scheduler "fdo1" with entities [LocalPlayer, LocalPlayer], work=[200*, 0*]
  8: 0x0C45 [0x55] WAIT_LOAD_SCHEDULER: Wait for scheduler "fdo1" with entities [LocalPlayer, LocalPlayer], work=200*
  9: 0x0C54 [0x45] LOAD_SCHEDULED_TASK: Load scheduler "whi1" with entities [LocalPlayer, LocalPlayer], work=[201*, 0*]
 10: 0x0C65 [0x1C] WAIT(15* ticks)
 11: 0x0C68 [0x30] SET_UCOFF_CONTINUE_ZERO()
 12: 0x0C69 [0x21] END_EVENT
 13: 0x0C6A [0x00] END_REQSTACK()
```
