# Event 97

## Metadata

| Field           | Value    |
|-----------------|----------|
| Event Index     | 8/12     |
| Offset          | 0x0297   |
| Data Size       | 55 bytes |
| Calculated Size | 55 bytes |
| Instructions    | 9        |

```
      00 01 02 03 04 05 06 07  08 09 0A 0B 0C 0D 0E 0F
      -- -- -- -- -- -- -- --  -- -- -- -- -- -- -- --
0290:                      42  1E F0 FF FF 7F 5B 00 80         B.....[..
02A0: F9 71 09 01 F9 71 09 01  74 6C 6B 30 1D 22 80 23  .q...q..tlk0.".#
02B0: 5B 00 80 F9 71 09 01 F9  71 09 01 70 61 73 30 53  [...q...q..pas0S
02C0: F9 71 09 01 F9 71 09 01  70 61 73 30 21 00        .q...q..pas0!.  
```

## Opcodes

```
  0: 0x0297 [0x42] SET_CLI_EVENT_CANCEL_DATA()
  1: 0x0298 [0x1E] EventEntity looks at LocalPlayer and starts talking
  2: 0x029D [0x5B] LOAD_EXT_SCHEDULER(work_offset=215*, entity1=Antiqix (ID: 17396217/0x010971F9), entity2=Antiqix (ID: 17396217/0x010971F9), action="tlk0")
  3: 0x02AC [0x1D] PRINT_EVENT_MESSAGE(message_id=7524*)
    → "Yeah, this is the real thing all right.\u0007You got some okay junk-collectin' skills for a person.\u007F1\u0000\u0007"
  4: 0x02AF [0x23] WAIT_FOR_DIALOG_INTERACTION
  5: 0x02B0 [0x5B] LOAD_EXT_SCHEDULER(work_offset=215*, entity1=Antiqix (ID: 17396217/0x010971F9), entity2=Antiqix (ID: 17396217/0x010971F9), action="pas0")
  6: 0x02BF [0x53] WAIT_SCHEDULER_TASK(entity1=Antiqix (ID: 17396217/0x010971F9), entity2=Antiqix (ID: 17396217/0x010971F9), action_id="pas0")
  7: 0x02CC [0x21] END_EVENT
  8: 0x02CD [0x00] END_REQSTACK()
```
