# Event 65535

## Metadata

| Field           | Value    |
|-----------------|----------|
| Event Index     | 81/84    |
| Offset          | 0x050E   |
| Data Size       | 56 bytes |
| Calculated Size | 56 bytes |
| Instructions    | 10       |

```
      00 01 02 03 04 05 06 07  08 09 0A 0B 0C 0D 0E 0F
      -- -- -- -- -- -- -- --  -- -- -- -- -- -- -- --
0500:                                            32 00                2.
0510: 80 1F 00 1D 80 1E 80 1F  80 1F 01 6F 4B F8 FF FF  ...........oK...
0520: 7F 20 80 6F 76 F8 FF FF  7F 66 03 80 F8 FF FF 7F  . .ov....f......
0530: F8 FF FF 7F 62 69 6B 30  53 F8 FF FF 7F F8 FF FF  ....bik0S.......
0540: 7F 62 69 6B 30 00                                 .bik0.          
```

## Opcodes

```
  0: 0x050E [0x32] ExtData[1]->MainSpeed = 40* * 0.1
  1: 0x0511 [0x1F] MOVE_ENTITY: EventEntity moves to X=-377.315*, Z=-443.420*, Y=14.834*
  2: 0x0519 [0x1F] MOVE_ENTITY: Update entity position (mode=1)
  3: 0x051B [0x6F] WAIT_FRAME_DELAY: Yield until WaitTime reaches zero
  4: 0x051C [0x4B] UPDATE_ENTITY_YAW(entity=EventEntity, yaw=19.78°*)
  5: 0x0523 [0x6F] WAIT_FRAME_DELAY: Yield until WaitTime reaches zero
  6: 0x0524 [0x76] CHECK_ENTITY_RENDER_FLAGS: Wait until EventEntity Render.Flags0 and Render.Flags3 conditions are met
  7: 0x0529 [0x66] LOAD_EXT_SCHEDULER_MAIN(work_offset=42*, entity1=EventEntity, entity2=EventEntity, action="bik0")
  8: 0x0538 [0x53] WAIT_SCHEDULER_TASK(entity1=EventEntity, entity2=EventEntity, action_id="bik0")
  9: 0x0545 [0x00] END_REQSTACK()
```
