# Event 65535

## Metadata

| Field           | Value    |
|-----------------|----------|
| Event Index     | 42/52    |
| Offset          | 0x0248   |
| Data Size       | 43 bytes |
| Calculated Size | 43 bytes |
| Instructions    | 7        |

```
      00 01 02 03 04 05 06 07  08 09 0A 0B 0C 0D 0E 0F
      -- -- -- -- -- -- -- --  -- -- -- -- -- -- -- --
0240:                          29 08 5C 80 11 01 14 29          ).\....)
0250: 08 5C 80 11 01 15 29 08  5C 80 11 01 0C 29 08 5C  .\....).\....).\
0260: 80 11 01 0D 29 08 5C 80  11 01 08 29 08 5C 80 11  ....).\....).\..
0270: 01 09 00                                          ...             
```

## Opcodes

```
  0: 0x0248 [0x29] REQ_SET_WAIT(priority=0x08, entity_id=DIRECTOR2 (ID: 17924188/0x0111805C), tag_num=0x14)
  1: 0x024F [0x29] REQ_SET_WAIT(priority=0x08, entity_id=DIRECTOR2 (ID: 17924188/0x0111805C), tag_num=0x15)
  2: 0x0256 [0x29] REQ_SET_WAIT(priority=0x08, entity_id=DIRECTOR2 (ID: 17924188/0x0111805C), tag_num=0x0C)
  3: 0x025D [0x29] REQ_SET_WAIT(priority=0x08, entity_id=DIRECTOR2 (ID: 17924188/0x0111805C), tag_num=0x0D)
  4: 0x0264 [0x29] REQ_SET_WAIT(priority=0x08, entity_id=DIRECTOR2 (ID: 17924188/0x0111805C), tag_num=0x08)
  5: 0x026B [0x29] REQ_SET_WAIT(priority=0x08, entity_id=DIRECTOR2 (ID: 17924188/0x0111805C), tag_num=0x09)
  6: 0x0272 [0x00] END_REQSTACK()
```
