# Event 65535

## Metadata

| Field           | Value    |
|-----------------|----------|
| Event Index     | 22/32    |
| Offset          | 0x00D9   |
| Data Size       | 36 bytes |
| Calculated Size | 36 bytes |
| Instructions    | 10       |

```
      00 01 02 03 04 05 06 07  08 09 0A 0B 0C 0D 0E 0F
      -- -- -- -- -- -- -- --  -- -- -- -- -- -- -- --
00D0:                             32 28 80 1F 00 21 80           2(...!.
00E0: 22 80 23 80 1F 01 1F 00  25 80 26 80 27 80 1F 01  ".#.....%.&.'...
00F0: 6F 1E 45 13 06 01 6F 76  F8 FF FF 7F 00           o.E...ov.....   
```

## Opcodes

```
  0: 0x00D9 [0x32] ExtData[1]->MainSpeed = 15* * 0.1
  1: 0x00DC [0x1F] MOVE_ENTITY: EventEntity moves to X=-81.571*, Z=43.134*, Y=-60.617*
  2: 0x00E4 [0x1F] MOVE_ENTITY: Update entity position (mode=1)
  3: 0x00E6 [0x1F] MOVE_ENTITY: EventEntity moves to X=-79.399*, Z=42.283*, Y=-60.540*
  4: 0x00EE [0x1F] MOVE_ENTITY: Update entity position (mode=1)
  5: 0x00F0 [0x6F] WAIT_FRAME_DELAY: Yield until WaitTime reaches zero
  6: 0x00F1 [0x1E] EventEntity looks at Syu Befrathi (ID: 17175365/0x01061345) and starts talking
  7: 0x00F6 [0x6F] WAIT_FRAME_DELAY: Yield until WaitTime reaches zero
  8: 0x00F7 [0x76] CHECK_ENTITY_RENDER_FLAGS: Wait until EventEntity Render.Flags0 and Render.Flags3 conditions are met
  9: 0x00FC [0x00] END_REQSTACK()
```
