# Event 65535

## Metadata

| Field           | Value    |
|-----------------|----------|
| Event Index     | 13/15    |
| Offset          | 0x1467   |
| Data Size       | 80 bytes |
| Calculated Size | 80 bytes |
| Instructions    | 10       |

```
      00 01 02 03 04 05 06 07  08 09 0A 0B 0C 0D 0E 0F
      -- -- -- -- -- -- -- --  -- -- -- -- -- -- -- --
1460:                      45  27 80 F0 FF FF 7F F0 FF         E'.......
1470: FF 7F 6E 61 6B 73 02 80  45 27 80 F0 FF FF 7F F0  ..naks..E'......
1480: FF FF 7F 68 61 73 73 02  80 45 27 80 11 60 04 01  ...hass..E'..`..
1490: 11 60 04 01 6B 61 6E 74  02 80 03 02 10 34 10 2B  .`..kant.....4.+
14A0: 19 60 04 01 4A 80 1A A5  12 1C 4B 80 2B 19 60 04  .`..J.....K.+.`.
14B0: 01 4C 80 1C 4B 80 00                              .L..K..         
```

## Opcodes

```
  0: 0x1467 [0x45] LOAD_SCHEDULED_TASK(work_offset1=191*, entity1=LocalPlayer, entity2=LocalPlayer, scheduler_id="naks", work_offset2=0*)
  1: 0x1478 [0x45] LOAD_SCHEDULED_TASK(work_offset1=191*, entity1=LocalPlayer, entity2=LocalPlayer, scheduler_id="hass", work_offset2=0*)
  2: 0x1489 [0x45] LOAD_SCHEDULED_TASK(work_offset1=191*, entity1=Unnamed NPC (ID: 17063953/0x01046011), entity2=Unnamed NPC (ID: 17063953/0x01046011), scheduler_id="kant", work_offset2=0*)
  3: 0x149A [0x03] Work_Zone[2] = Work_Zone[52]
  4: 0x149F [0x2B] Goccilo (ID: 17063961/0x01046019) [8825*]:
    → "And they're off!\u0000\u0007"
  5: 0x14A6 [0x1A] CALL_SUBROUTINE(address=0x12A5)
  6: 0x14A9 [0x1C] WAIT(90* ticks)
  7: 0x14AC [0x2B] Goccilo (ID: 17063961/0x01046019) [8830*]:
    → "Ah! It looks like one of the birds was slow out of the gate! Will it be able to catch up in time!?\u0000\u0007"
  8: 0x14B3 [0x1C] WAIT(90* ticks)
  9: 0x14B6 [0x00] END_REQSTACK()
```
