# Event 10066

## Metadata

| Field           | Value    |
|-----------------|----------|
| Event Index     | 6/13     |
| Offset          | 0x0C20   |
| Data Size       | 51 bytes |
| Calculated Size | 51 bytes |
| Instructions    | 15       |

```
      00 01 02 03 04 05 06 07  08 09 0A 0B 0C 0D 0E 0F
      -- -- -- -- -- -- -- --  -- -- -- -- -- -- -- --
0C20: 4A F0 FF FF 7F F8 FF FF  7F 1E F0 FF FF 7F 6F 70  J.............op
0C30: 03 02 10 2B 80 1D 5C 80  23 6E BC 50 0F 01 5D 80  ...+..\.#n.P..].
0C40: 99 BC 50 0F 01 99 BC 50  0F 01 1C 06 80 1D 5E 80  ..P....P......^.
0C50: 23 21 00                                          #!.             
```

## Opcodes

```
  0: 0x0C20 [0x4A] LocalPlayer looks at EventEntity
  1: 0x0C29 [0x1E] EventEntity looks at LocalPlayer and starts talking
  2: 0x0C2E [0x6F] WAIT_FRAME_DELAY: Yield until WaitTime reaches zero
  3: 0x0C2F [0x70] WAIT_ENTITY_RENDER_FLAG: Wait while EventEntity->Render.Flags3 bit 2 is set (cancel turn if not)
  4: 0x0C30 [0x03] Work_Zone[2] = 781*
  5: 0x0C35 [0x1D] PRINT_EVENT_MESSAGE(message_id=9584*)
    → "What's done is done. Sorry, but I'm not giving any refunds.\u0007Come back tomorrow and I will give you the \u0001\u00053\u0002\u0000\u0000\u0000.\u007F1\u0000\u0007"
  6: 0x0C38 [0x23] WAIT_FOR_DIALOG_INTERACTION
  7: 0x0C39 [0x6E] Faursel (ID: 17780924/0x010F50BC) uses emote 26*
  8: 0x0C40 [0x99] Wait for Faursel (ID: 17780924/0x010F50BC) animation to complete
  9: 0x0C45 [0x99] Wait for Faursel (ID: 17780924/0x010F50BC) animation to complete
 10: 0x0C4A [0x1C] WAIT(30* ticks)
 11: 0x0C4D [0x1D] PRINT_EVENT_MESSAGE(message_id=9583*)
    → "And don't you worry, because the Tenshodo is true t' its word!\u007F1\u0000\u0007"
 12: 0x0C50 [0x23] WAIT_FOR_DIALOG_INTERACTION
 13: 0x0C51 [0x21] END_EVENT
 14: 0x0C52 [0x00] END_REQSTACK()
```
