# Event 65535

## Metadata

| Field           | Value    |
|-----------------|----------|
| Event Index     | 12/24    |
| Offset          | 0x00D0   |
| Data Size       | 37 bytes |
| Calculated Size | 37 bytes |
| Instructions    | 10       |

```
      00 01 02 03 04 05 06 07  08 09 0A 0B 0C 0D 0E 0F
      -- -- -- -- -- -- -- --  -- -- -- -- -- -- -- --
00D0: 1F 00 25 80 26 80 1F 80  1F 01 6F 39 27 80 27 03  ..%.&.....o9'.'.
00E0: 89 30 0F 01 02 1C 05 80  1F 00 28 80 29 80 13 80  .0........(.)...
00F0: 1F 01 22 01 00                                    .."..           
```

## Opcodes

```
  0: 0x00D0 [0x1F] MOVE_ENTITY: EventEntity moves to X=4.006*, Z=-70.391*, Y=9.000*
  1: 0x00D8 [0x1F] MOVE_ENTITY: Update entity position (mode=1)
  2: 0x00DA [0x6F] WAIT_FRAME_DELAY: Yield until WaitTime reaches zero
  3: 0x00DB [0x39] SET_ENTITY_DIRECTION(direction=16.9°*)
  4: 0x00DE [0x27] REQ_SET(priority=0x03, entity_id=Door:Bastokan Emb. (ID: 17772681/0x010F3089), tag_num=0x02)
  5: 0x00E5 [0x1C] WAIT(60* ticks)
  6: 0x00E8 [0x1F] MOVE_ENTITY: EventEntity moves to X=3.995*, Z=-57.863*, Y=8.999*
  7: 0x00F0 [0x1F] MOVE_ENTITY: Update entity position (mode=1)
  8: 0x00F2 [0x22] ENTITY_HIDE_FLAG(enabled=0x01)
  9: 0x00F4 [0x00] END_REQSTACK()
```
