# Event 65535

## Metadata

| Field           | Value    |
|-----------------|----------|
| Event Index     | 5/5      |
| Offset          | 0x0038   |
| Data Size       | 49 bytes |
| Calculated Size | 49 bytes |
| Instructions    | 10       |

```
      00 01 02 03 04 05 06 07  08 09 0A 0B 0C 0D 0E 0F
      -- -- -- -- -- -- -- --  -- -- -- -- -- -- -- --
0030:                          32 0E 80 1F 00 0F 80 10          2.......
0040: 80 11 80 1F 01 1F 00 12  80 13 80 14 80 1F 01 6F  ...............o
0050: 1C 06 80 81 00 A0 30 0F  01 66 15 80 A0 30 0F 01  ......0..f...0..
0060: A0 30 0F 01 74 68 6B 31  00                       .0..thk1.       
```

## Opcodes

```
  0: 0x0038 [0x32] ExtData[1]->MainSpeed = 5* * 0.1
  1: 0x003B [0x1F] MOVE_ENTITY: EventEntity moves to X=-142.139*, Z=70.963*, Y=-28.050*
  2: 0x0043 [0x1F] MOVE_ENTITY: Update entity position (mode=1)
  3: 0x0045 [0x1F] MOVE_ENTITY: EventEntity moves to X=-142.383*, Z=74.626*, Y=-27.610*
  4: 0x004D [0x1F] MOVE_ENTITY: Update entity position (mode=1)
  5: 0x004F [0x6F] WAIT_FRAME_DELAY: Yield until WaitTime reaches zero
  6: 0x0050 [0x1C] WAIT(30* ticks)
  7: 0x0053 [0x81] SET_ENTITY_BLINKING(blink_flag=0x00, entity=Iru-Kuiru (ID: 17772704/0x010F30A0))
  8: 0x0059 [0x66] LOAD_EXT_SCHEDULER_MAIN(work_offset=49*, entity1=Iru-Kuiru (ID: 17772704/0x010F30A0), entity2=Iru-Kuiru (ID: 17772704/0x010F30A0), action="thk1")
  9: 0x0068 [0x00] END_REQSTACK()
```
