# Event 65535

## Metadata

| Field           | Value    |
|-----------------|----------|
| Event Index     | 15/18    |
| Offset          | 0x00F2   |
| Data Size       | 51 bytes |
| Calculated Size | 51 bytes |
| Instructions    | 7        |

```
      00 01 02 03 04 05 06 07  08 09 0A 0B 0C 0D 0E 0F
      -- -- -- -- -- -- -- --  -- -- -- -- -- -- -- --
00F0:       5B 0B 80 F8 FF FF  7F F8 FF FF 7F 74 6C 62    [..........tlb
0100: 30 1D 16 80 23 5B 0B 80  F8 FF FF 7F F8 FF FF 7F  0...#[..........
0110: 74 6C 62 31 53 F8 FF FF  7F F8 FF FF 7F 74 6C 62  tlb1S........tlb
0120: 31 1C 17 80 00                                    1....           
```

## Opcodes

```
  0: 0x00F2 [0x5B] LOAD_EXT_SCHEDULER(work_offset=96*, entity1=EventEntity, entity2=EventEntity, action="tlb0")
  1: 0x0101 [0x1D] PRINT_EVENT_MESSAGE(message_id=11422*)
    → "Well, I don't expect things will be getting any easier around here for a while yet, but you take care, all the same.\u007F1\u0000\u0007"
  2: 0x0104 [0x23] WAIT_FOR_DIALOG_INTERACTION
  3: 0x0105 [0x5B] LOAD_EXT_SCHEDULER(work_offset=96*, entity1=EventEntity, entity2=EventEntity, action="tlb1")
  4: 0x0114 [0x53] WAIT_SCHEDULER_TASK(entity1=EventEntity, entity2=EventEntity, action_id="tlb1")
  5: 0x0121 [0x1C] WAIT(60* ticks)
  6: 0x0124 [0x00] END_REQSTACK()
```
