# Event 65535

## Metadata

| Field           | Value    |
|-----------------|----------|
| Event Index     | 10/11    |
| Offset          | 0x0077   |
| Data Size       | 73 bytes |
| Calculated Size | 73 bytes |
| Instructions    | 7        |

```
      00 01 02 03 04 05 06 07  08 09 0A 0B 0C 0D 0E 0F
      -- -- -- -- -- -- -- --  -- -- -- -- -- -- -- --
0070:                      2C  D3 60 0A 01 D3 60 0A 01         ,.`...`..
0080: 72 65 73 32 53 D3 60 0A  01 D3 60 0A 01 72 65 73  res2S.`...`..res
0090: 32 66 01 80 F8 FF FF 7F  F8 FF FF 7F 31 72 64 79  2f..........1rdy
00A0: 1C 02 80 66 01 80 F8 FF  FF 7F F8 FF FF 7F 31 73  ...f..........1s
00B0: 6C 68 53 F8 FF FF 7F F8  FF FF 7F 31 73 6C 68 00  lhS........1slh.
```

## Opcodes

```
  0: 0x0077 [0x2C] CREATE_SCHEDULER_TASK: Create scheduler "res2" for entities [Perchond (ID: 17457363/0x010A60D3), Perchond (ID: 17457363/0x010A60D3)]
  1: 0x0084 [0x53] WAIT_SCHEDULER_TASK(entity1=Perchond (ID: 17457363/0x010A60D3), entity2=Perchond (ID: 17457363/0x010A60D3), action_id="res2")
  2: 0x0091 [0x66] LOAD_EXT_SCHEDULER_MAIN(work_offset=24*, entity1=EventEntity, entity2=EventEntity, action="1rdy")
  3: 0x00A0 [0x1C] WAIT(30* ticks)
  4: 0x00A3 [0x66] LOAD_EXT_SCHEDULER_MAIN(work_offset=24*, entity1=EventEntity, entity2=EventEntity, action="1slh")
  5: 0x00B2 [0x53] WAIT_SCHEDULER_TASK(entity1=EventEntity, entity2=EventEntity, action_id="1slh")
  6: 0x00BF [0x00] END_REQSTACK()
```
