# Event 3

## Metadata

| Field           | Value    |
|-----------------|----------|
| Event Index     | 5/7      |
| Offset          | 0x019E   |
| Data Size       | 42 bytes |
| Calculated Size | 42 bytes |
| Instructions    | 13       |

```
      00 01 02 03 04 05 06 07  08 09 0A 0B 0C 0D 0E 0F
      -- -- -- -- -- -- -- --  -- -- -- -- -- -- -- --
0190:                                            20 01                 .
01A0: 42 30 47 00 02 10 03 10  04 10 05 10 47 01 02 06  B0G.........G...
01B0: 10 17 80 01 C6 01 48 18  80 23 02 09 10 01 80 01  ......H..#......
01C0: C6 01 48 19 80 23 21 00                           ..H..#!.        
```

## Opcodes

```
  0: 0x019E [0x20] SET_CLI_EVENT_UC_FLAG: Lock player control
  1: 0x01A0 [0x42] SET_CLI_EVENT_CANCEL_DATA()
  2: 0x01A1 [0x30] SET_UCOFF_CONTINUE_ZERO()
  3: 0x01A2 [0x47] UPDATE_PLAYER_POS(Work_Zone[2], Work_Zone[3], Work_Zone[4], yaw=Work_Zone[5])
  4: 0x01AC [0x47] WAIT_PLAYER_POS_UPDATE
  5: 0x01AE [0x02] IF !(Work_Zone[6] == 4294967295*) GOTO 0x01C6
  6: 0x01B6 [0x48] [System] [7373*]:
    → "You scored 
\u0004 \u007F\u0012\u0004[Petra/Petras].\u007F1\u0000\u0007"
  7: 0x01B9 [0x23] WAIT_FOR_DIALOG_INTERACTION
  8: 0x01BA [0x02] IF !(Work_Zone[9] == 0*) GOTO 0x01C6
  9: 0x01C2 [0x48] [System] [7371*]:
    → "Contributing a total of 
\u0007 \u007F\u0012\u0007[Petra/Petras] for the \u000C\u0006[Wyverns/Griffons], today's high scorer is \u001C\u0000!\u007F1\u0000\u0007"
 10: 0x01C5 [0x23] WAIT_FOR_DIALOG_INTERACTION
 11: 0x01C6 [0x21] END_EVENT
 12: 0x01C7 [0x00] END_REQSTACK()
```
