# Event 25

## Metadata

| Field           | Value    |
|-----------------|----------|
| Event Index     | 3/6      |
| Offset          | 0x0978   |
| Data Size       | 30 bytes |
| Calculated Size | 30 bytes |
| Instructions    | 8        |

```
      00 01 02 03 04 05 06 07  08 09 0A 0B 0C 0D 0E 0F
      -- -- -- -- -- -- -- --  -- -- -- -- -- -- -- --
0970:                          4A F0 FF FF 7F F8 FF FF          J.......
0980: 7F 4A F8 FF FF 7F F0 FF  FF 7F 6F 76 F8 FF FF 7F  .J........ov....
0990: 1D 48 80 23 21 00                                 .H.#!.          
```

## Opcodes

```
  0: 0x0978 [0x4A] LocalPlayer looks at EventEntity
  1: 0x0981 [0x4A] EventEntity looks at LocalPlayer
  2: 0x098A [0x6F] WAIT_FRAME_DELAY: Yield until WaitTime reaches zero
  3: 0x098B [0x76] CHECK_ENTITY_RENDER_FLAGS: Wait until EventEntity Render.Flags0 and Render.Flags3 conditions are met
  4: 0x0990 [0x1D] PRINT_EVENT_MESSAGE(message_id=14198*)
    → "Hey, there!\u0007Peer deep within the Quests menu to find the \u00072Objective List\u00073 under \u00072Records of Eminence\u00073 and slap the objective there into place!\u007F1\u0000\u0007"
  5: 0x0993 [0x23] WAIT_FOR_DIALOG_INTERACTION
  6: 0x0994 [0x21] END_EVENT
  7: 0x0995 [0x00] END_REQSTACK()
```
