# Event 1522

## Metadata

| Field           | Value    |
|-----------------|----------|
| Event Index     | 31/46    |
| Offset          | 0x0199   |
| Data Size       | 47 bytes |
| Calculated Size | 47 bytes |
| Instructions    | 11       |

```
      00 01 02 03 04 05 06 07  08 09 0A 0B 0C 0D 0E 0F
      -- -- -- -- -- -- -- --  -- -- -- -- -- -- -- --
0190:                             1E F0 FF FF 7F 6F 70           .....op
01A0: 66 00 80 F8 FF FF 7F F8  FF FF 7F 74 6C 6B 30 1D  f..........tlk0.
01B0: 0D 80 23 1D 0E 80 23 66  00 80 F8 FF FF 7F F8 FF  ..#...#f........
01C0: FF 7F 74 6C 6B 31 21 00                           ..tlk1!.        
```

## Opcodes

```
  0: 0x0199 [0x1E] EventEntity looks at LocalPlayer and starts talking
  1: 0x019E [0x6F] WAIT_FRAME_DELAY: Yield until WaitTime reaches zero
  2: 0x019F [0x70] WAIT_ENTITY_RENDER_FLAG: Wait while EventEntity->Render.Flags3 bit 2 is set (cancel turn if not)
  3: 0x01A0 [0x66] LOAD_EXT_SCHEDULER_MAIN: Load scheduler "tlk0" with entities [EventEntity, EventEntity], work=30*
  4: 0x01AF [0x1D] PRINT_EVENT_MESSAGE(message_id=8624*)
    → "The \u00072holy water untainted by impurity\u00073 unquestionably refers to the water of Western Adoulin's fountain.\u007F1\u0000\u0007"
  5: 0x01B2 [0x23] WAIT_FOR_DIALOG_INTERACTION
  6: 0x01B3 [0x1D] PRINT_EVENT_MESSAGE(message_id=8621*)
    → "The fountain's water is taken directly from the Rala Waterways underneath Adoulin proper, so it is both pure and clean.\u007F1\u0000\u0007"
  7: 0x01B6 [0x23] WAIT_FOR_DIALOG_INTERACTION
  8: 0x01B7 [0x66] LOAD_EXT_SCHEDULER_MAIN: Load scheduler "tlk1" with entities [EventEntity, EventEntity], work=30*
  9: 0x01C6 [0x21] END_EVENT
 10: 0x01C7 [0x00] END_REQSTACK()
```
