# Event 93

## Metadata

| Field           | Value    |
|-----------------|----------|
| Event Index     | 41/46    |
| Offset          | 0x5B2F   |
| Data Size       | 43 bytes |
| Calculated Size | 43 bytes |
| Instructions    | 9        |

```
      00 01 02 03 04 05 06 07  08 09 0A 0B 0C 0D 0E 0F
      -- -- -- -- -- -- -- --  -- -- -- -- -- -- -- --
5B20:                                               1E                 .
5B30: F0 FF FF 7F 6F 70 66 00  80 F8 FF FF 7F F8 FF FF  ....opf.........
5B40: 7F 74 6C 6B 30 1D 67 81  23 66 00 80 F8 FF FF 7F  .tlk0.g.#f......
5B50: F8 FF FF 7F 74 6C 6B 31  21 00                    ....tlk1!.      
```

## Opcodes

```
  0: 0x5B2F [0x1E] EventEntity looks at LocalPlayer and starts talking
  1: 0x5B34 [0x6F] WAIT_FRAME_DELAY: Yield until WaitTime reaches zero
  2: 0x5B35 [0x70] WAIT_ENTITY_RENDER_FLAG: Wait while EventEntity->Render.Flags3 bit 2 is set (cancel turn if not)
  3: 0x5B36 [0x66] LOAD_EXT_SCHEDULER_MAIN: Load scheduler "tlk0" with entities [EventEntity, EventEntity], work=30*
  4: 0x5B45 [0x1D] PRINT_EVENT_MESSAGE(message_id=13612*)
    → "Ingrid has stepped out for a brief meeting with Gratzigg at his manse. Perhaps it would behoove you to seek the two of them.\u007F1\u0000\u0007"
  5: 0x5B48 [0x23] WAIT_FOR_DIALOG_INTERACTION
  6: 0x5B49 [0x66] LOAD_EXT_SCHEDULER_MAIN: Load scheduler "tlk1" with entities [EventEntity, EventEntity], work=30*
  7: 0x5B58 [0x21] END_EVENT
  8: 0x5B59 [0x00] END_REQSTACK()
```
