# 16982129 - Bujahwa

## Common Data

| Field            | Value                         |
|------------------|-------------------------------|
| Zone             | Aht Urhgan Whitegate (ID: 50) |
| Block Size       | 232 bytes                     |
| Total Events     | 6                             |
| References Count | 6                             |

## List of Events

| Event ID              | Entrypoint   |   Size |   Instructions |
|-----------------------|--------------|--------|----------------|
| [65535](#event-65535) | 0x0000       |      1 |              1 |
| [683](#event-683)     | 0x0001       |    138 |             20 |
| [774](#event-774)     | 0x008B       |      7 |              2 |
| [859](#event-859)     | 0x0092       |      7 |              2 |
| [872](#event-872)     | 0x0099       |      7 |              2 |
| [3220](#event-3220)   | 0x00A0       |      7 |              2 |

## DAT References (imed_data)

|   Index | Hex Value   |   Dec Value |
|---------|-------------|-------------|
|       0 | 0x000F      |          15 |
|       1 | 0x0050      |          80 |
|       2 | 0x18B7      |        6327 |
|       3 | 0x003C      |          60 |
|       4 | 0x18B8      |        6328 |
|       5 | 0x18B9      |        6329 |

## String References

- **6327**: Grandpa, how does that puppet move? It's like a living creature!

## Events

### Event 65535

#### Metadata

| Field        | Value   |
|--------------|---------|
| Entrypoint   | 0x0000  |
| Data Size    | 1 bytes |
| Instructions | 1       |

```
      00 01 02 03 04 05 06 07  08 09 0A 0B 0C 0D 0E 0F
      -- -- -- -- -- -- -- --  -- -- -- -- -- -- -- --
0000: 00                                                .               
```

#### Opcodes

```
  0: 0x0000 [0x00] END_REQSTACK()
```

### Event 683

#### Metadata

| Field        | Value     |
|--------------|-----------|
| Entrypoint   | 0x0001    |
| Data Size    | 138 bytes |
| Instructions | 20        |

```
      00 01 02 03 04 05 06 07  08 09 0A 0B 0C 0D 0E 0F
      -- -- -- -- -- -- -- --  -- -- -- -- -- -- -- --
0000:    1E 70 20 03 01 1C 00  80 5B 01 80 71 20 03 01   .p .....[..q ..
0010: 71 20 03 01 74 6C 6B 30  1D 02 80 23 5B 01 80 71  q ..tlk0...#[..q
0020: 20 03 01 71 20 03 01 74  6C 6B 31 4A 70 20 03 01   ..q ..tlk1Jp ..
0030: 71 20 03 01 1C 00 80 5B  03 80 70 20 03 01 70 20  q .....[..p ..p 
0040: 03 01 74 6C 6B 30 2B 70  20 03 01 04 80 23 5B 03  ..tlk0+p ....#[.
0050: 80 70 20 03 01 70 20 03  01 74 6C 6B 31 1C 03 80  .p ..p ..tlk1...
0060: 5B 03 80 70 20 03 01 70  20 03 01 74 68 6B 31 2B  [..p ..p ..thk1+
0070: 70 20 03 01 05 80 23 5B  03 80 70 20 03 01 70 20  p ....#[..p ..p 
0080: 03 01 74 68 6B 32 1C 00  80 21 00                 ..thk2...!.     
```

#### Opcodes

```
  0: 0x0001 [0x1E] EventEntity looks at Hamnahb (ID: 16982128/0x01032070) and starts talking
  1: 0x0006 [0x1C] WAIT(15* ticks)
  2: 0x0009 [0x5B] LOAD_EXT_SCHEDULER: Load scheduler "tlk0" with entities [Bujahwa (ID: 16982129/0x01032071), Bujahwa (ID: 16982129/0x01032071)], work=80*
  3: 0x0018 [0x1D] PRINT_EVENT_MESSAGE(message_id=6327*)
    → "Grandpa, how does that puppet move? It's like a living creature!"
  4: 0x001B [0x23] WAIT_FOR_DIALOG_INTERACTION
  5: 0x001C [0x5B] LOAD_EXT_SCHEDULER: Load scheduler "tlk1" with entities [Bujahwa (ID: 16982129/0x01032071), Bujahwa (ID: 16982129/0x01032071)], work=80*
  6: 0x002B [0x4A] Hamnahb (ID: 16982128/0x01032070) looks at Bujahwa (ID: 16982129/0x01032071)
  7: 0x0034 [0x1C] WAIT(15* ticks)
  8: 0x0037 [0x5B] LOAD_EXT_SCHEDULER: Load scheduler "tlk0" with entities [Hamnahb (ID: 16982128/0x01032070), Hamnahb (ID: 16982128/0x01032070)], work=60*
  9: 0x0046 [0x2B] Hamnahb (ID: 16982128/0x01032070) [6328*]:
    → "Heh heh... Well, you see..."
 10: 0x004D [0x23] WAIT_FOR_DIALOG_INTERACTION
 11: 0x004E [0x5B] LOAD_EXT_SCHEDULER: Load scheduler "tlk1" with entities [Hamnahb (ID: 16982128/0x01032070), Hamnahb (ID: 16982128/0x01032070)], work=60*
 12: 0x005D [0x1C] WAIT(60* ticks)
 13: 0x0060 [0x5B] LOAD_EXT_SCHEDULER: Load scheduler "thk1" with entities [Hamnahb (ID: 16982128/0x01032070), Hamnahb (ID: 16982128/0x01032070)], work=60*
 14: 0x006F [0x2B] Hamnahb (ID: 16982128/0x01032070) [6329*]:
    → "...That's a very good question."
 15: 0x0076 [0x23] WAIT_FOR_DIALOG_INTERACTION
 16: 0x0077 [0x5B] LOAD_EXT_SCHEDULER: Load scheduler "thk2" with entities [Hamnahb (ID: 16982128/0x01032070), Hamnahb (ID: 16982128/0x01032070)], work=60*
 17: 0x0086 [0x1C] WAIT(15* ticks)
 18: 0x0089 [0x21] END_EVENT
 19: 0x008A [0x00] END_REQSTACK()
```

### Event 774

#### Metadata

| Field        | Value   |
|--------------|---------|
| Entrypoint   | 0x008B  |
| Data Size    | 7 bytes |
| Instructions | 2       |

```
      00 01 02 03 04 05 06 07  08 09 0A 0B 0C 0D 0E 0F
      -- -- -- -- -- -- -- --  -- -- -- -- -- -- -- --
0080:                                   92 01 F8 FF FF             .....
0090: 7F 00                                             ..              
```

#### Opcodes

```
  0: 0x008B [0x92] EventEntity->Render.Flags3 ^= 0x01
  1: 0x0091 [0x00] END_REQSTACK()
```

### Event 859

#### Metadata

| Field        | Value   |
|--------------|---------|
| Entrypoint   | 0x0092  |
| Data Size    | 7 bytes |
| Instructions | 2       |

```
      00 01 02 03 04 05 06 07  08 09 0A 0B 0C 0D 0E 0F
      -- -- -- -- -- -- -- --  -- -- -- -- -- -- -- --
0090:       92 01 F8 FF FF 7F  00                         .......       
```

#### Opcodes

```
  0: 0x0092 [0x92] EventEntity->Render.Flags3 ^= 0x01
  1: 0x0098 [0x00] END_REQSTACK()
```

### Event 872

#### Metadata

| Field        | Value   |
|--------------|---------|
| Entrypoint   | 0x0099  |
| Data Size    | 7 bytes |
| Instructions | 2       |

```
      00 01 02 03 04 05 06 07  08 09 0A 0B 0C 0D 0E 0F
      -- -- -- -- -- -- -- --  -- -- -- -- -- -- -- --
0090:                             92 01 F8 FF FF 7F 00           .......
```

#### Opcodes

```
  0: 0x0099 [0x92] EventEntity->Render.Flags3 ^= 0x01
  1: 0x009F [0x00] END_REQSTACK()
```

### Event 3220

#### Metadata

| Field        | Value   |
|--------------|---------|
| Entrypoint   | 0x00A0  |
| Data Size    | 7 bytes |
| Instructions | 2       |

```
      00 01 02 03 04 05 06 07  08 09 0A 0B 0C 0D 0E 0F
      -- -- -- -- -- -- -- --  -- -- -- -- -- -- -- --
00A0: 92 01 F8 FF FF 7F 00                              .......         
```

#### Opcodes

```
  0: 0x00A0 [0x92] EventEntity->Render.Flags3 ^= 0x01
  1: 0x00A6 [0x00] END_REQSTACK()
```
