# 16982314 - Ekhu Pesshyadha

## Common Data

| Field            | Value                         |
|------------------|-------------------------------|
| Zone             | Aht Urhgan Whitegate (ID: 50) |
| Block Size       | 636 bytes                     |
| Total Events     | 26                            |
| References Count | 46                            |

## List of Events

| Event ID                    | Entrypoint   |   Size |   Instructions |
|-----------------------------|--------------|--------|----------------|
| [65535](#event-65535)       | 0x0000       |      1 |              1 |
| [513](#event-513)           | 0x0001       |     56 |             14 |
| [520](#event-520)           | 0x0039       |      1 |              1 |
| [522](#event-522)           | 0x003A       |      1 |              1 |
| [536](#event-536)           | 0x003B       |      6 |              4 |
| [524](#event-524)           | 0x0041       |      1 |              1 |
| [65535.1](#event-65535-1)   | 0x0042       |     14 |              4 |
| [537](#event-537)           | 0x0050       |      6 |              4 |
| [525](#event-525)           | 0x0056       |      1 |              1 |
| [65535.2](#event-65535-2)   | 0x0057       |     15 |              3 |
| [65535.3](#event-65535-3)   | 0x0066       |     14 |              4 |
| [65535.4](#event-65535-4)   | 0x0074       |     14 |              4 |
| [526](#event-526)           | 0x0082       |      1 |              1 |
| [65535.5](#event-65535-5)   | 0x0083       |     15 |              3 |
| [65535.6](#event-65535-6)   | 0x0092       |     37 |              9 |
| [527](#event-527)           | 0x00B7       |      1 |              1 |
| [65535.7](#event-65535-7)   | 0x00B8       |     15 |              3 |
| [65535.8](#event-65535-8)   | 0x00C7       |     14 |              4 |
| [531](#event-531)           | 0x00D5       |     32 |              8 |
| [528](#event-528)           | 0x00F5       |      1 |              1 |
| [65535.9](#event-65535-9)   | 0x00F6       |     15 |              3 |
| [65535.10](#event-65535-10) | 0x0105       |     45 |              9 |
| [532](#event-532)           | 0x0132       |      6 |              4 |
| [592](#event-592)           | 0x0138       |      1 |              1 |
| [65535.11](#event-65535-11) | 0x0139       |     16 |              2 |
| [843](#event-843)           | 0x0149       |      1 |              1 |

## DAT References (imed_data)

|   Index | Hex Value   |   Dec Value |
|---------|-------------|-------------|
|       0 | 0x1356      |        4950 |
|       1 | 0x001E      |          30 |
|       2 | 0x1357      |        4951 |
|       3 | 0x0032      |          50 |
|       4 | 0x1358      |        4952 |
|       5 | 0x1359      |        4953 |
|       6 | 0x1398      |        5016 |
|       7 | 0x000D      |          13 |
|       8 | 0xFFFFCDE8  |  4294954472 |
|       9 | 0x18FAF     |      102319 |
|      10 | 0x07CF      |        1999 |
|      11 | 0x139E      |        5022 |
|      12 | 0xFFFEAAEE  |  4294879982 |
|      13 | 0x0CF4      |        3316 |
|      14 | 0x0000      |           0 |
|      15 | 0x09EF      |        2543 |
|      16 | 0xFFFEA75E  |  4294879070 |
|      17 | 0x137F      |        4991 |
|      18 | 0xFFFEAA24  |  4294879780 |
|      19 | 0x052F      |        1327 |
|      20 | 0x566D      |       22125 |
|      21 | 0xFFFED6E0  |  4294891232 |
|      22 | 0x025A      |         602 |
|      23 | 0x56E4      |       22244 |
|      24 | 0xFFFECBDE  |  4294888414 |
|      25 | 0x60D1      |       24785 |
|      26 | 0xFFFECCA3  |  4294888611 |
|      27 | 0x003C      |          60 |
|      28 | 0xFFFEA604  |  4294878724 |
|      29 | 0xFFFFDEB1  |  4294958769 |
|      30 | 0x0BC7      |        3015 |
|      31 | 0xFFFEA7CD  |  4294879181 |
|      32 | 0xFFFFF299  |  4294963865 |
|      33 | 0x13F6      |        5110 |
|      34 | 0x0008      |           8 |
|      35 | 0x00B4      |         180 |
|      36 | 0xFFFEA6ED  |  4294878957 |
|      37 | 0x111B      |        4379 |
|      38 | 0x0AC6      |        2758 |
|      39 | 0xFFFEA497  |  4294878359 |
|      40 | 0x081B      |        2075 |
|      41 | 0x0078      |         120 |
|      42 | 0xFFFEA69D  |  4294878877 |
|      43 | 0xFFFFFAF9  |  4294966009 |
|      44 | 0x13F5      |        5109 |
|      45 | 0x0034      |          52 |

## Events

### Event 65535

#### Metadata

| Field        | Value   |
|--------------|---------|
| Entrypoint   | 0x0000  |
| Data Size    | 1 bytes |
| Instructions | 1       |

```
      00 01 02 03 04 05 06 07  08 09 0A 0B 0C 0D 0E 0F
      -- -- -- -- -- -- -- --  -- -- -- -- -- -- -- --
0000: 00                                                .               
```

#### Opcodes

```
  0: 0x0000 [0x00] END_REQSTACK()
```

### Event 513

#### Metadata

| Field        | Value    |
|--------------|----------|
| Entrypoint   | 0x0001   |
| Data Size    | 56 bytes |
| Instructions | 14       |

```
      00 01 02 03 04 05 06 07  08 09 0A 0B 0C 0D 0E 0F
      -- -- -- -- -- -- -- --  -- -- -- -- -- -- -- --
0000:    42 1D 00 80 23 1E F0  FF FF 7F 1C 01 80 1D 02   B...#..........
0010: 80 23 66 03 80 F8 FF FF  7F F8 FF FF 7F 74 68 6B  .#f..........thk
0020: 31 1D 04 80 23 66 03 80  F8 FF FF 7F F8 FF FF 7F  1...#f..........
0030: 74 68 6B 32 48 05 80 21  00                       thk2H..!.       
```

#### Opcodes

```
  0: 0x0001 [0x42] SET_CLI_EVENT_CANCEL_DATA()
  1: 0x0002 [0x1D] PRINT_EVENT_MESSAGE(message_id=4950*)
    → "<Sigh>...\u0007Fernan doesn't seem nearly as drrreamy as he did in his older work...\u007F1\u0000\u0007"
  2: 0x0005 [0x23] WAIT_FOR_DIALOG_INTERACTION
  3: 0x0006 [0x1E] EventEntity looks at LocalPlayer and starts talking
  4: 0x000B [0x1C] WAIT(30* ticks)
  5: 0x000E [0x1D] PRINT_EVENT_MESSAGE(message_id=4951*)
    → "...What?\u0007You just want a scrap of paper?\u007F1\u0000\u0007"
  6: 0x0011 [0x23] WAIT_FOR_DIALOG_INTERACTION
  7: 0x0012 [0x66] LOAD_EXT_SCHEDULER_MAIN: Load scheduler "thk1" with entities [EventEntity, EventEntity], work=50*
  8: 0x0021 [0x1D] PRINT_EVENT_MESSAGE(message_id=4952*)
    → "Well, I guess I'm finished rrreading this anyway.\u0007I don't think it would hurt to tear one letter out of it, so do your worst.\u007F1\u0000\u0007"
  9: 0x0024 [0x23] WAIT_FOR_DIALOG_INTERACTION
 10: 0x0025 [0x66] LOAD_EXT_SCHEDULER_MAIN: Load scheduler "thk2" with entities [EventEntity, EventEntity], work=50*
 11: 0x0034 [0x48] [System] [4953*]:
    → "\u001F\u000F\u0008 rips a letter \u00072A\u00073 out of Ekhu Pesshyadha's book!\u007F1\u0000\u0007"
 12: 0x0037 [0x21] END_EVENT
 13: 0x0038 [0x00] END_REQSTACK()
```

### Event 520

#### Metadata

| Field        | Value   |
|--------------|---------|
| Entrypoint   | 0x0039  |
| Data Size    | 1 bytes |
| Instructions | 1       |

```
      00 01 02 03 04 05 06 07  08 09 0A 0B 0C 0D 0E 0F
      -- -- -- -- -- -- -- --  -- -- -- -- -- -- -- --
0030:                             00                             .      
```

#### Opcodes

```
  0: 0x0039 [0x00] END_REQSTACK()
```

### Event 522

#### Metadata

| Field        | Value   |
|--------------|---------|
| Entrypoint   | 0x003A  |
| Data Size    | 1 bytes |
| Instructions | 1       |

```
      00 01 02 03 04 05 06 07  08 09 0A 0B 0C 0D 0E 0F
      -- -- -- -- -- -- -- --  -- -- -- -- -- -- -- --
0030:                                00                           .     
```

#### Opcodes

```
  0: 0x003A [0x00] END_REQSTACK()
```

### Event 536

#### Metadata

| Field        | Value   |
|--------------|---------|
| Entrypoint   | 0x003B  |
| Data Size    | 6 bytes |
| Instructions | 4       |

```
      00 01 02 03 04 05 06 07  08 09 0A 0B 0C 0D 0E 0F
      -- -- -- -- -- -- -- --  -- -- -- -- -- -- -- --
0030:                                   1D 06 80 23 21             ...#!
0040: 00                                                .               
```

#### Opcodes

```
  0: 0x003B [0x1D] PRINT_EVENT_MESSAGE(message_id=5016*)
    → "I can't stop thinking about that handsome Elvaan in his brilliantly embroidered clothing... I wish I could find out more about him...\u007F1\u0000\u0007"
  1: 0x003E [0x23] WAIT_FOR_DIALOG_INTERACTION
  2: 0x003F [0x21] END_EVENT
  3: 0x0040 [0x00] END_REQSTACK()
```

### Event 524

#### Metadata

| Field        | Value   |
|--------------|---------|
| Entrypoint   | 0x0041  |
| Data Size    | 1 bytes |
| Instructions | 1       |

```
      00 01 02 03 04 05 06 07  08 09 0A 0B 0C 0D 0E 0F
      -- -- -- -- -- -- -- --  -- -- -- -- -- -- -- --
0040:    00                                              .              
```

#### Opcodes

```
  0: 0x0041 [0x00] END_REQSTACK()
```

### Event 65535.1

#### Metadata

| Field        | Value    |
|--------------|----------|
| Entrypoint   | 0x0042   |
| Data Size    | 14 bytes |
| Instructions | 4        |

```
      00 01 02 03 04 05 06 07  08 09 0A 0B 0C 0D 0E 0F
      -- -- -- -- -- -- -- --  -- -- -- -- -- -- -- --
0040:       32 07 80 1F 00 08  80 09 80 0A 80 1F 01 00    2.............
```

#### Opcodes

```
  0: 0x0042 [0x32] ExtData[1]->MainSpeed = 13* * 0.1
  1: 0x0045 [0x1F] MOVE_ENTITY: EventEntity moves to X=-12.824*, Z=102.319*, Y=1.999*
  2: 0x004D [0x1F] MOVE_ENTITY: Update entity position (mode=1)
  3: 0x004F [0x00] END_REQSTACK()
```

### Event 537

#### Metadata

| Field        | Value   |
|--------------|---------|
| Entrypoint   | 0x0050  |
| Data Size    | 6 bytes |
| Instructions | 4       |

```
      00 01 02 03 04 05 06 07  08 09 0A 0B 0C 0D 0E 0F
      -- -- -- -- -- -- -- --  -- -- -- -- -- -- -- --
0050: 1D 0B 80 23 21 00                                 ...#!.          
```

#### Opcodes

```
  0: 0x0050 [0x1D] PRINT_EVENT_MESSAGE(message_id=5022*)
    → "To think I'd become more obsessed with Zabahf than Fernan... What's gotten into me?\u007F1\u0000\u0007"
  1: 0x0053 [0x23] WAIT_FOR_DIALOG_INTERACTION
  2: 0x0054 [0x21] END_EVENT
  3: 0x0055 [0x00] END_REQSTACK()
```

### Event 525

#### Metadata

| Field        | Value   |
|--------------|---------|
| Entrypoint   | 0x0056  |
| Data Size    | 1 bytes |
| Instructions | 1       |

```
      00 01 02 03 04 05 06 07  08 09 0A 0B 0C 0D 0E 0F
      -- -- -- -- -- -- -- --  -- -- -- -- -- -- -- --
0050:                   00                                    .         
```

#### Opcodes

```
  0: 0x0056 [0x00] END_REQSTACK()
```

### Event 65535.2

#### Metadata

| Field        | Value    |
|--------------|----------|
| Entrypoint   | 0x0057   |
| Data Size    | 15 bytes |
| Instructions | 3        |

```
      00 01 02 03 04 05 06 07  08 09 0A 0B 0C 0D 0E 0F
      -- -- -- -- -- -- -- --  -- -- -- -- -- -- -- --
0050:                      37  0C 80 0D 80 0E 80 0F 80         7........
0060: 80 F8 FF FF 7F 00                                 ......          
```

#### Opcodes

```
  0: 0x0057 [0x37] UPDATE_EVENT_POSITION_AND_DIR: x=-87.314*, z=3.316*, y=0.000*, direction=223.5°*
  1: 0x0060 [0x80] LOAD_WAIT(entity=EventEntity)
  2: 0x0065 [0x00] END_REQSTACK()
```

### Event 65535.3

#### Metadata

| Field        | Value    |
|--------------|----------|
| Entrypoint   | 0x0066   |
| Data Size    | 14 bytes |
| Instructions | 4        |

```
      00 01 02 03 04 05 06 07  08 09 0A 0B 0C 0D 0E 0F
      -- -- -- -- -- -- -- --  -- -- -- -- -- -- -- --
0060:                   32 07  80 1F 00 10 80 11 80 0E        2.........
0070: 80 1F 01 00                                       ....            
```

#### Opcodes

```
  0: 0x0066 [0x32] ExtData[1]->MainSpeed = 13* * 0.1
  1: 0x0069 [0x1F] MOVE_ENTITY: EventEntity moves to X=-88.226*, Z=4.991*, Y=0.000*
  2: 0x0071 [0x1F] MOVE_ENTITY: Update entity position (mode=1)
  3: 0x0073 [0x00] END_REQSTACK()
```

### Event 65535.4

#### Metadata

| Field        | Value    |
|--------------|----------|
| Entrypoint   | 0x0074   |
| Data Size    | 14 bytes |
| Instructions | 4        |

```
      00 01 02 03 04 05 06 07  08 09 0A 0B 0C 0D 0E 0F
      -- -- -- -- -- -- -- --  -- -- -- -- -- -- -- --
0070:             32 07 80 1F  00 12 80 13 80 0E 80 1F      2...........
0080: 01 00                                             ..              
```

#### Opcodes

```
  0: 0x0074 [0x32] ExtData[1]->MainSpeed = 13* * 0.1
  1: 0x0077 [0x1F] MOVE_ENTITY: EventEntity moves to X=-87.516*, Z=1.327*, Y=0.000*
  2: 0x007F [0x1F] MOVE_ENTITY: Update entity position (mode=1)
  3: 0x0081 [0x00] END_REQSTACK()
```

### Event 526

#### Metadata

| Field        | Value   |
|--------------|---------|
| Entrypoint   | 0x0082  |
| Data Size    | 1 bytes |
| Instructions | 1       |

```
      00 01 02 03 04 05 06 07  08 09 0A 0B 0C 0D 0E 0F
      -- -- -- -- -- -- -- --  -- -- -- -- -- -- -- --
0080:       00                                            .             
```

#### Opcodes

```
  0: 0x0082 [0x00] END_REQSTACK()
```

### Event 65535.5

#### Metadata

| Field        | Value    |
|--------------|----------|
| Entrypoint   | 0x0083   |
| Data Size    | 15 bytes |
| Instructions | 3        |

```
      00 01 02 03 04 05 06 07  08 09 0A 0B 0C 0D 0E 0F
      -- -- -- -- -- -- -- --  -- -- -- -- -- -- -- --
0080:          37 14 80 15 80  0E 80 16 80 80 F8 FF FF     7............
0090: 7F 00                                             ..              
```

#### Opcodes

```
  0: 0x0083 [0x37] UPDATE_EVENT_POSITION_AND_DIR: x=22.125*, z=-76.064*, y=0.000*, direction=52.9°*
  1: 0x008C [0x80] LOAD_WAIT(entity=EventEntity)
  2: 0x0091 [0x00] END_REQSTACK()
```

### Event 65535.6

#### Metadata

| Field        | Value    |
|--------------|----------|
| Entrypoint   | 0x0092   |
| Data Size    | 37 bytes |
| Instructions | 9        |

```
      00 01 02 03 04 05 06 07  08 09 0A 0B 0C 0D 0E 0F
      -- -- -- -- -- -- -- --  -- -- -- -- -- -- -- --
0090:       32 07 80 1F 00 17  80 18 80 0E 80 1F 01 1F    2.............
00A0: 00 19 80 1A 80 0E 80 1F  01 1E 2C 21 03 01 1C 1B  ..........,!....
00B0: 80 1E 2C 21 03 01 00                              ..,!...         
```

#### Opcodes

```
  0: 0x0092 [0x32] ExtData[1]->MainSpeed = 13* * 0.1
  1: 0x0095 [0x1F] MOVE_ENTITY: EventEntity moves to X=22.244*, Z=-78.882*, Y=0.000*
  2: 0x009D [0x1F] MOVE_ENTITY: Update entity position (mode=1)
  3: 0x009F [0x1F] MOVE_ENTITY: EventEntity moves to X=24.785*, Z=-78.685*, Y=0.000*
  4: 0x00A7 [0x1F] MOVE_ENTITY: Update entity position (mode=1)
  5: 0x00A9 [0x1E] EventEntity looks at Zabahf (ID: 16982316/0x0103212C) and starts talking
  6: 0x00AE [0x1C] WAIT(60* ticks)
  7: 0x00B1 [0x1E] EventEntity looks at Zabahf (ID: 16982316/0x0103212C) and starts talking
  8: 0x00B6 [0x00] END_REQSTACK()
```

### Event 527

#### Metadata

| Field        | Value   |
|--------------|---------|
| Entrypoint   | 0x00B7  |
| Data Size    | 1 bytes |
| Instructions | 1       |

```
      00 01 02 03 04 05 06 07  08 09 0A 0B 0C 0D 0E 0F
      -- -- -- -- -- -- -- --  -- -- -- -- -- -- -- --
00B0:                      00                                  .        
```

#### Opcodes

```
  0: 0x00B7 [0x00] END_REQSTACK()
```

### Event 65535.7

#### Metadata

| Field        | Value    |
|--------------|----------|
| Entrypoint   | 0x00B8   |
| Data Size    | 15 bytes |
| Instructions | 3        |

```
      00 01 02 03 04 05 06 07  08 09 0A 0B 0C 0D 0E 0F
      -- -- -- -- -- -- -- --  -- -- -- -- -- -- -- --
00B0:                          37 1C 80 1D 80 0E 80 1E          7.......
00C0: 80 80 F8 FF FF 7F 00                              .......         
```

#### Opcodes

```
  0: 0x00B8 [0x37] UPDATE_EVENT_POSITION_AND_DIR: x=-88.572*, z=-8.527*, y=0.000*, direction=265.0°*
  1: 0x00C1 [0x80] LOAD_WAIT(entity=EventEntity)
  2: 0x00C6 [0x00] END_REQSTACK()
```

### Event 65535.8

#### Metadata

| Field        | Value    |
|--------------|----------|
| Entrypoint   | 0x00C7   |
| Data Size    | 14 bytes |
| Instructions | 4        |

```
      00 01 02 03 04 05 06 07  08 09 0A 0B 0C 0D 0E 0F
      -- -- -- -- -- -- -- --  -- -- -- -- -- -- -- --
00C0:                      32  07 80 1F 00 1F 80 20 80         2...... .
00D0: 0E 80 1F 01 00                                    .....           
```

#### Opcodes

```
  0: 0x00C7 [0x32] ExtData[1]->MainSpeed = 13* * 0.1
  1: 0x00CA [0x1F] MOVE_ENTITY: EventEntity moves to X=-88.115*, Z=-3.431*, Y=0.000*
  2: 0x00D2 [0x1F] MOVE_ENTITY: Update entity position (mode=1)
  3: 0x00D4 [0x00] END_REQSTACK()
```

### Event 531

#### Metadata

| Field        | Value    |
|--------------|----------|
| Entrypoint   | 0x00D5   |
| Data Size    | 32 bytes |
| Instructions | 8        |

```
      00 01 02 03 04 05 06 07  08 09 0A 0B 0C 0D 0E 0F
      -- -- -- -- -- -- -- --  -- -- -- -- -- -- -- --
00D0:                1E F0 FF  FF 7F 1C 01 80 1D 21 80       .........!.
00E0: 23 66 22 80 F8 FF FF 7F  F8 FF FF 7F 75 72 65 30  #f".........ure0
00F0: 1C 23 80 21 00                                    .#.!.           
```

#### Opcodes

```
  0: 0x00D5 [0x1E] EventEntity looks at LocalPlayer and starts talking
  1: 0x00DA [0x1C] WAIT(30* ticks)
  2: 0x00DD [0x1D] PRINT_EVENT_MESSAGE(message_id=5110*)
    → "Yeah, go ahead and laugh. I thought maybe Zabahf and I had something there, but...nah. Fernan is the only guy for me!\u007F1\u0000\u0007"
  3: 0x00E0 [0x23] WAIT_FOR_DIALOG_INTERACTION
  4: 0x00E1 [0x66] LOAD_EXT_SCHEDULER_MAIN: Load scheduler "ure0" with entities [EventEntity, EventEntity], work=8*
  5: 0x00F0 [0x1C] WAIT(180* ticks)
  6: 0x00F3 [0x21] END_EVENT
  7: 0x00F4 [0x00] END_REQSTACK()
```

### Event 528

#### Metadata

| Field        | Value   |
|--------------|---------|
| Entrypoint   | 0x00F5  |
| Data Size    | 1 bytes |
| Instructions | 1       |

```
      00 01 02 03 04 05 06 07  08 09 0A 0B 0C 0D 0E 0F
      -- -- -- -- -- -- -- --  -- -- -- -- -- -- -- --
00F0:                00                                      .          
```

#### Opcodes

```
  0: 0x00F5 [0x00] END_REQSTACK()
```

### Event 65535.9

#### Metadata

| Field        | Value    |
|--------------|----------|
| Entrypoint   | 0x00F6   |
| Data Size    | 15 bytes |
| Instructions | 3        |

```
      00 01 02 03 04 05 06 07  08 09 0A 0B 0C 0D 0E 0F
      -- -- -- -- -- -- -- --  -- -- -- -- -- -- -- --
00F0:                   37 24  80 25 80 0E 80 26 80 80        7$.%...&..
0100: F8 FF FF 7F 00                                    .....           
```

#### Opcodes

```
  0: 0x00F6 [0x37] UPDATE_EVENT_POSITION_AND_DIR: x=-88.339*, z=4.379*, y=0.000*, direction=242.4°*
  1: 0x00FF [0x80] LOAD_WAIT(entity=EventEntity)
  2: 0x0104 [0x00] END_REQSTACK()
```

### Event 65535.10

#### Metadata

| Field        | Value    |
|--------------|----------|
| Entrypoint   | 0x0105   |
| Data Size    | 45 bytes |
| Instructions | 9        |

```
      00 01 02 03 04 05 06 07  08 09 0A 0B 0C 0D 0E 0F
      -- -- -- -- -- -- -- --  -- -- -- -- -- -- -- --
0100:                32 07 80  1F 00 27 80 28 80 0E 80       2....'.(...
0110: 1F 01 66 22 80 F8 FF FF  7F F8 FF FF 7F 75 72 65  ..f".........ure
0120: 30 1C 29 80 32 07 80 1F  00 2A 80 2B 80 0E 80 1F  0.).2....*.+....
0130: 01 00                                             ..              
```

#### Opcodes

```
  0: 0x0105 [0x32] ExtData[1]->MainSpeed = 13* * 0.1
  1: 0x0108 [0x1F] MOVE_ENTITY: EventEntity moves to X=-88.937*, Z=2.075*, Y=0.000*
  2: 0x0110 [0x1F] MOVE_ENTITY: Update entity position (mode=1)
  3: 0x0112 [0x66] LOAD_EXT_SCHEDULER_MAIN: Load scheduler "ure0" with entities [EventEntity, EventEntity], work=8*
  4: 0x0121 [0x1C] WAIT(120* ticks)
  5: 0x0124 [0x32] ExtData[1]->MainSpeed = 13* * 0.1
  6: 0x0127 [0x1F] MOVE_ENTITY: EventEntity moves to X=-88.419*, Z=-1.287*, Y=0.000*
  7: 0x012F [0x1F] MOVE_ENTITY: Update entity position (mode=1)
  8: 0x0131 [0x00] END_REQSTACK()
```

### Event 532

#### Metadata

| Field        | Value   |
|--------------|---------|
| Entrypoint   | 0x0132  |
| Data Size    | 6 bytes |
| Instructions | 4       |

```
      00 01 02 03 04 05 06 07  08 09 0A 0B 0C 0D 0E 0F
      -- -- -- -- -- -- -- --  -- -- -- -- -- -- -- --
0130:       1D 2C 80 23 21 00                             .,.#!.        
```

#### Opcodes

```
  0: 0x0132 [0x1D] PRINT_EVENT_MESSAGE(message_id=5109*)
    → "<Sigh>...\u0007I wish I could meet a guy like Fernan...\u007F1\u0000\u0007"
  1: 0x0135 [0x23] WAIT_FOR_DIALOG_INTERACTION
  2: 0x0136 [0x21] END_EVENT
  3: 0x0137 [0x00] END_REQSTACK()
```

### Event 592

#### Metadata

| Field        | Value   |
|--------------|---------|
| Entrypoint   | 0x0138  |
| Data Size    | 1 bytes |
| Instructions | 1       |

```
      00 01 02 03 04 05 06 07  08 09 0A 0B 0C 0D 0E 0F
      -- -- -- -- -- -- -- --  -- -- -- -- -- -- -- --
0130:                          00                               .       
```

#### Opcodes

```
  0: 0x0138 [0x00] END_REQSTACK()
```

### Event 65535.11

#### Metadata

| Field        | Value    |
|--------------|----------|
| Entrypoint   | 0x0139   |
| Data Size    | 16 bytes |
| Instructions | 2        |

```
      00 01 02 03 04 05 06 07  08 09 0A 0B 0C 0D 0E 0F
      -- -- -- -- -- -- -- --  -- -- -- -- -- -- -- --
0130:                             66 2D 80 F8 FF FF 7F           f-.....
0140: F8 FF FF 7F 64 69 73 30  00                       ....dis0.       
```

#### Opcodes

```
  0: 0x0139 [0x66] LOAD_EXT_SCHEDULER_MAIN: Load scheduler "dis0" with entities [EventEntity, EventEntity], work=52*
  1: 0x0148 [0x00] END_REQSTACK()
```

### Event 843

#### Metadata

| Field        | Value   |
|--------------|---------|
| Entrypoint   | 0x0149  |
| Data Size    | 1 bytes |
| Instructions | 1       |

```
      00 01 02 03 04 05 06 07  08 09 0A 0B 0C 0D 0E 0F
      -- -- -- -- -- -- -- --  -- -- -- -- -- -- -- --
0140:                             00                             .      
```

#### Opcodes

```
  0: 0x0149 [0x00] END_REQSTACK()
```
