# 16982428 - Joaquin

## Common Data

| Field            | Value                         |
|------------------|-------------------------------|
| Zone             | Aht Urhgan Whitegate (ID: 50) |
| Block Size       | 168 bytes                     |
| Total Events     | 5                             |
| References Count | 14                            |

## List of Events

| Event ID                  | Entrypoint   |   Size |   Instructions |
|---------------------------|--------------|--------|----------------|
| [65535](#event-65535)     | 0x0000       |      1 |              1 |
| [884](#event-884)         | 0x0001       |      1 |              1 |
| [65535.1](#event-65535-1) | 0x0002       |     37 |              9 |
| [65535.2](#event-65535-2) | 0x0027       |     18 |              6 |
| [65535.3](#event-65535-3) | 0x0039       |     16 |              4 |

## DAT References (imed_data)

|   Index | Hex Value   |   Dec Value |
|---------|-------------|-------------|
|       0 | 0x1283D     |       75837 |
|       1 | 0xFFFF40A4  |  4294918308 |
|       2 | 0x1D4C      |        7500 |
|       3 | 0x0D75      |        3445 |
|       4 | 0x0064      |         100 |
|       5 | 0x0026      |          38 |
|       6 | 0x16EBA     |       93882 |
|       7 | 0xFFFF5AD6  |  4294925014 |
|       8 | 0x2107      |        8455 |
|       9 | 0x001E      |          30 |
|      10 | 0x000D      |          13 |
|      11 | 0x170DE     |       94430 |
|      12 | 0xFFFF5EE8  |  4294926056 |
|      13 | 0x003C      |          60 |

## Events

### Event 65535

#### Metadata

| Field        | Value   |
|--------------|---------|
| Entrypoint   | 0x0000  |
| Data Size    | 1 bytes |
| Instructions | 1       |

```
      00 01 02 03 04 05 06 07  08 09 0A 0B 0C 0D 0E 0F
      -- -- -- -- -- -- -- --  -- -- -- -- -- -- -- --
0000: 00                                                .               
```

#### Opcodes

```
  0: 0x0000 [0x00] END_REQSTACK()
```

### Event 884

#### Metadata

| Field        | Value   |
|--------------|---------|
| Entrypoint   | 0x0001  |
| Data Size    | 1 bytes |
| Instructions | 1       |

```
      00 01 02 03 04 05 06 07  08 09 0A 0B 0C 0D 0E 0F
      -- -- -- -- -- -- -- --  -- -- -- -- -- -- -- --
0000:    00                                              .              
```

#### Opcodes

```
  0: 0x0001 [0x00] END_REQSTACK()
```

### Event 65535.1

#### Metadata

| Field        | Value    |
|--------------|----------|
| Entrypoint   | 0x0002   |
| Data Size    | 37 bytes |
| Instructions | 9        |

```
      00 01 02 03 04 05 06 07  08 09 0A 0B 0C 0D 0E 0F
      -- -- -- -- -- -- -- --  -- -- -- -- -- -- -- --
0000:       37 00 80 01 80 02  80 03 80 1E 9A 21 03 01    7..........!..
0010: 1C 04 80 32 05 80 1F 00  06 80 07 80 08 80 1F 01  ...2............
0020: 6F 1E 9A 21 03 01 00                              o..!...         
```

#### Opcodes

```
  0: 0x0002 [0x37] UPDATE_EVENT_POSITION_AND_DIR: x=75.837*, z=-48.988*, y=7.500*, direction=302.8°*
  1: 0x000B [0x1E] EventEntity looks at Zazarg (ID: 16982426/0x0103219A) and starts talking
  2: 0x0010 [0x1C] WAIT(100* ticks)
  3: 0x0013 [0x32] ExtData[1]->MainSpeed = 38* * 0.1
  4: 0x0016 [0x1F] MOVE_ENTITY: EventEntity moves to X=93.882*, Z=-42.282*, Y=8.455*
  5: 0x001E [0x1F] MOVE_ENTITY: Update entity position (mode=1)
  6: 0x0020 [0x6F] WAIT_FRAME_DELAY: Yield until WaitTime reaches zero
  7: 0x0021 [0x1E] EventEntity looks at Zazarg (ID: 16982426/0x0103219A) and starts talking
  8: 0x0026 [0x00] END_REQSTACK()
```

### Event 65535.2

#### Metadata

| Field        | Value    |
|--------------|----------|
| Entrypoint   | 0x0027   |
| Data Size    | 18 bytes |
| Instructions | 6        |

```
      00 01 02 03 04 05 06 07  08 09 0A 0B 0C 0D 0E 0F
      -- -- -- -- -- -- -- --  -- -- -- -- -- -- -- --
0020:                      1C  09 80 32 0A 80 1F 00 0B         ...2.....
0030: 80 0C 80 08 80 1F 01 6F  00                       .......o.       
```

#### Opcodes

```
  0: 0x0027 [0x1C] WAIT(30* ticks)
  1: 0x002A [0x32] ExtData[1]->MainSpeed = 13* * 0.1
  2: 0x002D [0x1F] MOVE_ENTITY: EventEntity moves to X=94.430*, Z=-41.240*, Y=8.455*
  3: 0x0035 [0x1F] MOVE_ENTITY: Update entity position (mode=1)
  4: 0x0037 [0x6F] WAIT_FRAME_DELAY: Yield until WaitTime reaches zero
  5: 0x0038 [0x00] END_REQSTACK()
```

### Event 65535.3

#### Metadata

| Field        | Value    |
|--------------|----------|
| Entrypoint   | 0x0039   |
| Data Size    | 16 bytes |
| Instructions | 4        |

```
      00 01 02 03 04 05 06 07  08 09 0A 0B 0C 0D 0E 0F
      -- -- -- -- -- -- -- --  -- -- -- -- -- -- -- --
0030:                             1C 0D 80 6E 9C 21 03           ...n.!.
0040: 01 05 80 99 9C 21 03 01  00                       .....!...       
```

#### Opcodes

```
  0: 0x0039 [0x1C] WAIT(60* ticks)
  1: 0x003C [0x6E] Joaquin (ID: 16982428/0x0103219C) uses emote 38*
  2: 0x0043 [0x99] Wait for Joaquin (ID: 16982428/0x0103219C) animation to complete
  3: 0x0048 [0x00] END_REQSTACK()
```
