# 16982425 - Talhaal

## Common Data

| Field            | Value                         |
|------------------|-------------------------------|
| Zone             | Aht Urhgan Whitegate (ID: 50) |
| Block Size       | 136 bytes                     |
| Total Events     | 4                             |
| References Count | 9                             |

## List of Events

| Event ID                  | Entrypoint   |   Size |   Instructions |
|---------------------------|--------------|--------|----------------|
| [65535](#event-65535)     | 0x0000       |      1 |              1 |
| [884](#event-884)         | 0x0001       |      1 |              1 |
| [65535.1](#event-65535-1) | 0x0002       |     40 |             10 |
| [65535.2](#event-65535-2) | 0x002A       |     26 |              8 |

## DAT References (imed_data)

|   Index | Hex Value   |   Dec Value |
|---------|-------------|-------------|
|       0 | 0x11B72     |       72562 |
|       1 | 0xFFFE0404  |  4294837252 |
|       2 | 0xFFFFE890  |  4294961296 |
|       3 | 0x0413      |        1043 |
|       4 | 0x0028      |          40 |
|       5 | 0x12C4D     |       76877 |
|       6 | 0xFFFDEE5C  |  4294831708 |
|       7 | 0x1333F     |       78655 |
|       8 | 0xFFFDED74  |  4294831476 |

## Events

### Event 65535

#### Metadata

| Field        | Value   |
|--------------|---------|
| Entrypoint   | 0x0000  |
| Data Size    | 1 bytes |
| Instructions | 1       |

```
      00 01 02 03 04 05 06 07  08 09 0A 0B 0C 0D 0E 0F
      -- -- -- -- -- -- -- --  -- -- -- -- -- -- -- --
0000: 00                                                .               
```

#### Opcodes

```
  0: 0x0000 [0x00] END_REQSTACK()
```

### Event 884

#### Metadata

| Field        | Value   |
|--------------|---------|
| Entrypoint   | 0x0001  |
| Data Size    | 1 bytes |
| Instructions | 1       |

```
      00 01 02 03 04 05 06 07  08 09 0A 0B 0C 0D 0E 0F
      -- -- -- -- -- -- -- --  -- -- -- -- -- -- -- --
0000:    00                                              .              
```

#### Opcodes

```
  0: 0x0001 [0x00] END_REQSTACK()
```

### Event 65535.1

#### Metadata

| Field        | Value    |
|--------------|----------|
| Entrypoint   | 0x0002   |
| Data Size    | 40 bytes |
| Instructions | 10       |

```
      00 01 02 03 04 05 06 07  08 09 0A 0B 0C 0D 0E 0F
      -- -- -- -- -- -- -- --  -- -- -- -- -- -- -- --
0000:       37 00 80 01 80 02  80 03 80 32 04 80 1F 00    7........2....
0010: 05 80 06 80 02 80 1F 01  6F 1F 00 07 80 08 80 02  ........o.......
0020: 80 1F 01 6F 1E F0 FF FF  7F 00                    ...o......      
```

#### Opcodes

```
  0: 0x0002 [0x37] UPDATE_EVENT_POSITION_AND_DIR: x=72.562*, z=-130.044*, y=-6.000*, direction=91.7°*
  1: 0x000B [0x32] ExtData[1]->MainSpeed = 40* * 0.1
  2: 0x000E [0x1F] MOVE_ENTITY: EventEntity moves to X=76.877*, Z=-135.588*, Y=-6.000*
  3: 0x0016 [0x1F] MOVE_ENTITY: Update entity position (mode=1)
  4: 0x0018 [0x6F] WAIT_FRAME_DELAY: Yield until WaitTime reaches zero
  5: 0x0019 [0x1F] MOVE_ENTITY: EventEntity moves to X=78.655*, Z=-135.820*, Y=-6.000*
  6: 0x0021 [0x1F] MOVE_ENTITY: Update entity position (mode=1)
  7: 0x0023 [0x6F] WAIT_FRAME_DELAY: Yield until WaitTime reaches zero
  8: 0x0024 [0x1E] EventEntity looks at LocalPlayer and starts talking
  9: 0x0029 [0x00] END_REQSTACK()
```

### Event 65535.2

#### Metadata

| Field        | Value    |
|--------------|----------|
| Entrypoint   | 0x002A   |
| Data Size    | 26 bytes |
| Instructions | 8        |

```
      00 01 02 03 04 05 06 07  08 09 0A 0B 0C 0D 0E 0F
      -- -- -- -- -- -- -- --  -- -- -- -- -- -- -- --
0020:                                32 04 80 1F 00 05            2.....
0030: 80 06 80 02 80 1F 01 6F  1F 00 00 80 01 80 02 80  .......o........
0040: 1F 01 6F 00                                       ..o.            
```

#### Opcodes

```
  0: 0x002A [0x32] ExtData[1]->MainSpeed = 40* * 0.1
  1: 0x002D [0x1F] MOVE_ENTITY: EventEntity moves to X=76.877*, Z=-135.588*, Y=-6.000*
  2: 0x0035 [0x1F] MOVE_ENTITY: Update entity position (mode=1)
  3: 0x0037 [0x6F] WAIT_FRAME_DELAY: Yield until WaitTime reaches zero
  4: 0x0038 [0x1F] MOVE_ENTITY: EventEntity moves to X=72.562*, Z=-130.044*, Y=-6.000*
  5: 0x0040 [0x1F] MOVE_ENTITY: Update entity position (mode=1)
  6: 0x0042 [0x6F] WAIT_FRAME_DELAY: Yield until WaitTime reaches zero
  7: 0x0043 [0x00] END_REQSTACK()
```
