# 16982317 - Mhasbaf

## Common Data

| Field            | Value                         |
|------------------|-------------------------------|
| Zone             | Aht Urhgan Whitegate (ID: 50) |
| Block Size       | 368 bytes                     |
| Total Events     | 9                             |
| References Count | 21                            |

## List of Events

| Event ID                  | Entrypoint   |   Size |   Instructions |
|---------------------------|--------------|--------|----------------|
| [65535](#event-65535)     | 0x0000       |      1 |              1 |
| [510](#event-510)         | 0x0001       |     42 |             12 |
| [542](#event-542)         | 0x002B       |     42 |             14 |
| [544](#event-544)         | 0x0055       |     29 |              7 |
| [808](#event-808)         | 0x0072       |      1 |              1 |
| [834](#event-834)         | 0x0073       |     35 |              9 |
| [835](#event-835)         | 0x0096       |     35 |              9 |
| [65535.1](#event-65535-1) | 0x00B9       |     23 |              5 |
| [65535.2](#event-65535-2) | 0x00D0       |     23 |              5 |

## DAT References (imed_data)

|   Index | Hex Value   |   Dec Value |
|---------|-------------|-------------|
|       0 | 0x001E      |          30 |
|       1 | 0x135F      |        4959 |
|       2 | 0x004B      |          75 |
|       3 | 0x1360      |        4960 |
|       4 | 0x1361      |        4961 |
|       5 | 0x0433      |        1075 |
|       6 | 0x13FB      |        5115 |
|       7 | 0x0BB9      |        3001 |
|       8 | 0x13FC      |        5116 |
|       9 | 0x13FD      |        5117 |
|      10 | 0x13FE      |        5118 |
|      11 | 0x14AB      |        5291 |
|      12 | 0x14AC      |        5292 |
|      13 | 0x000D      |          13 |
|      14 | 0xD21F      |       53791 |
|      15 | 0x255E      |        9566 |
|      16 | 0xFFFFE891  |  4294961297 |
|      17 | 0x0028      |          40 |
|      18 | 0xD47B      |       54395 |
|      19 | 0x2AF4      |       10996 |
|      20 | 0xFFFFE890  |  4294961296 |

## Events

### Event 65535

#### Metadata

| Field        | Value   |
|--------------|---------|
| Entrypoint   | 0x0000  |
| Data Size    | 1 bytes |
| Instructions | 1       |

```
      00 01 02 03 04 05 06 07  08 09 0A 0B 0C 0D 0E 0F
      -- -- -- -- -- -- -- --  -- -- -- -- -- -- -- --
0000: 00                                                .               
```

#### Opcodes

```
  0: 0x0000 [0x00] END_REQSTACK()
```

### Event 510

#### Metadata

| Field        | Value    |
|--------------|----------|
| Entrypoint   | 0x0001   |
| Data Size    | 42 bytes |
| Instructions | 12       |

```
      00 01 02 03 04 05 06 07  08 09 0A 0B 0C 0D 0E 0F
      -- -- -- -- -- -- -- --  -- -- -- -- -- -- -- --
0000:    42 1E F0 FF FF 7F 1C  00 80 1D 01 80 23 5B 02   B...........#[.
0010: 80 F8 FF FF 7F F8 FF FF  7F 74 6C 6B 30 03 02 10  .........tlk0...
0020: 8B 7F 1D 03 80 23 48 04  80 21 00                 .....#H..!.     
```

#### Opcodes

```
  0: 0x0001 [0x42] SET_CLI_EVENT_CANCEL_DATA()
  1: 0x0002 [0x1E] EventEntity looks at LocalPlayer and starts talking
  2: 0x0007 [0x1C] WAIT(30* ticks)
  3: 0x000A [0x1D] PRINT_EVENT_MESSAGE(message_id=4959*)
    → "When I grow up, I'm gonna join the Immortals and become famous! I've gotta practice signing my autograph...\u007F1\u0000\u0007"
  4: 0x000D [0x23] WAIT_FOR_DIALOG_INTERACTION
  5: 0x000E [0x5B] LOAD_EXT_SCHEDULER: Load scheduler "tlk0" with entities [EventEntity, EventEntity], work=75*
  6: 0x001D [0x03] Work_Zone[2] = (LocalPlayer->Render.Flags01 >> 25) & 1
  7: 0x0022 [0x1D] PRINT_EVENT_MESSAGE(message_id=4960*)
    → "Here you go--this one's on the house! You'll be able to get a fortune for it later!\u007F1\u0000\u0007"
  8: 0x0025 [0x23] WAIT_FOR_DIALOG_INTERACTION
  9: 0x0026 [0x48] [System] [4961*]:
    → "\u001F\u000F\u0008 tears the \u00072M\u00073 off of Mhasbaf's autograph.\u007F1\u0000\u0007"
 10: 0x0029 [0x21] END_EVENT
 11: 0x002A [0x00] END_REQSTACK()
```

### Event 542

#### Metadata

| Field        | Value    |
|--------------|----------|
| Entrypoint   | 0x002B   |
| Data Size    | 42 bytes |
| Instructions | 14       |

```
      00 01 02 03 04 05 06 07  08 09 0A 0B 0C 0D 0E 0F
      -- -- -- -- -- -- -- --  -- -- -- -- -- -- -- --
0020:                                   4B 2D 21 03 01             K-!..
0030: 05 80 1C 00 80 1D 06 80  23 4B 2D 21 03 01 07 80  ........#K-!....
0040: 1C 00 80 1D 08 80 23 1E  F0 FF FF 7F 1C 00 80 1D  ......#.........
0050: 09 80 23 21 00                                    ..#!.           
```

#### Opcodes

```
  0: 0x002B [0x4B] UPDATE_ENTITY_YAW(entity=Mhasbaf (ID: 16982317/0x0103212D), yaw=5.9°*)
  1: 0x0032 [0x1C] WAIT(30* ticks)
  2: 0x0035 [0x1D] PRINT_EVENT_MESSAGE(message_id=5115*)
    → "All is well on the southern front!\u007F1\u0000\u0007"
  3: 0x0038 [0x23] WAIT_FOR_DIALOG_INTERACTION
  4: 0x0039 [0x4B] UPDATE_ENTITY_YAW(entity=Mhasbaf (ID: 16982317/0x0103212D), yaw=16.5°*)
  5: 0x0040 [0x1C] WAIT(30* ticks)
  6: 0x0043 [0x1D] PRINT_EVENT_MESSAGE(message_id=5116*)
    → "All is well on the northern front!\u007F1\u0000\u0007"
  7: 0x0046 [0x23] WAIT_FOR_DIALOG_INTERACTION
  8: 0x0047 [0x1E] EventEntity looks at LocalPlayer and starts talking
  9: 0x004C [0x1C] WAIT(30* ticks)
 10: 0x004F [0x1D] PRINT_EVENT_MESSAGE(message_id=5117*)
    → "I'm practicing my rounds so I can get into the Immortals. Think they'll let me join?\u007F1\u0000\u0007"
 11: 0x0052 [0x23] WAIT_FOR_DIALOG_INTERACTION
 12: 0x0053 [0x21] END_EVENT
 13: 0x0054 [0x00] END_REQSTACK()
```

### Event 544

#### Metadata

| Field        | Value    |
|--------------|----------|
| Entrypoint   | 0x0055   |
| Data Size    | 29 bytes |
| Instructions | 7        |

```
      00 01 02 03 04 05 06 07  08 09 0A 0B 0C 0D 0E 0F
      -- -- -- -- -- -- -- --  -- -- -- -- -- -- -- --
0050:                1E F0 FF  FF 7F 1C 00 80 5B 02 80       ........[..
0060: F8 FF FF 7F F8 FF FF 7F  74 6C 6B 30 1D 0A 80 23  ........tlk0...#
0070: 21 00                                             !.              
```

#### Opcodes

```
  0: 0x0055 [0x1E] EventEntity looks at LocalPlayer and starts talking
  1: 0x005A [0x1C] WAIT(30* ticks)
  2: 0x005D [0x5B] LOAD_EXT_SCHEDULER: Load scheduler "tlk0" with entities [EventEntity, EventEntity], work=75*
  3: 0x006C [0x1D] PRINT_EVENT_MESSAGE(message_id=5118*)
    → "Hey, did you check out the Immortals? They're totally awesome!\u007F1\u0000\u0007"
  4: 0x006F [0x23] WAIT_FOR_DIALOG_INTERACTION
  5: 0x0070 [0x21] END_EVENT
  6: 0x0071 [0x00] END_REQSTACK()
```

### Event 808

#### Metadata

| Field        | Value   |
|--------------|---------|
| Entrypoint   | 0x0072  |
| Data Size    | 1 bytes |
| Instructions | 1       |

```
      00 01 02 03 04 05 06 07  08 09 0A 0B 0C 0D 0E 0F
      -- -- -- -- -- -- -- --  -- -- -- -- -- -- -- --
0070:       00                                            .             
```

#### Opcodes

```
  0: 0x0072 [0x00] END_REQSTACK()
```

### Event 834

#### Metadata

| Field        | Value    |
|--------------|----------|
| Entrypoint   | 0x0073   |
| Data Size    | 35 bytes |
| Instructions | 9        |

```
      00 01 02 03 04 05 06 07  08 09 0A 0B 0C 0D 0E 0F
      -- -- -- -- -- -- -- --  -- -- -- -- -- -- -- --
0070:          42 1E F0 FF FF  7F 1C 00 80 5B 02 80 F8     B........[...
0080: FF FF 7F F8 FF FF 7F 74  6C 6B 30 03 02 10 8B 7F  .......tlk0.....
0090: 1D 0B 80 23 21 00                                 ...#!.          
```

#### Opcodes

```
  0: 0x0073 [0x42] SET_CLI_EVENT_CANCEL_DATA()
  1: 0x0074 [0x1E] EventEntity looks at LocalPlayer and starts talking
  2: 0x0079 [0x1C] WAIT(30* ticks)
  3: 0x007C [0x5B] LOAD_EXT_SCHEDULER: Load scheduler "tlk0" with entities [EventEntity, EventEntity], work=75*
  4: 0x008B [0x03] Work_Zone[2] = (LocalPlayer->Render.Flags01 >> 25) & 1
  5: 0x0090 [0x1D] PRINT_EVENT_MESSAGE(message_id=5291*)
    → "I'll keep a look out around here.\u0007You go stake out a different area!\u007F1\u0000\u0007"
  6: 0x0093 [0x23] WAIT_FOR_DIALOG_INTERACTION
  7: 0x0094 [0x21] END_EVENT
  8: 0x0095 [0x00] END_REQSTACK()
```

### Event 835

#### Metadata

| Field        | Value    |
|--------------|----------|
| Entrypoint   | 0x0096   |
| Data Size    | 35 bytes |
| Instructions | 9        |

```
      00 01 02 03 04 05 06 07  08 09 0A 0B 0C 0D 0E 0F
      -- -- -- -- -- -- -- --  -- -- -- -- -- -- -- --
0090:                   42 1E  F0 FF FF 7F 1C 00 80 5B        B........[
00A0: 02 80 F8 FF FF 7F F8 FF  FF 7F 74 6C 6B 30 03 02  ..........tlk0..
00B0: 10 8B 7F 1D 0C 80 23 21  00                       ......#!.       
```

#### Opcodes

```
  0: 0x0096 [0x42] SET_CLI_EVENT_CANCEL_DATA()
  1: 0x0097 [0x1E] EventEntity looks at LocalPlayer and starts talking
  2: 0x009C [0x1C] WAIT(30* ticks)
  3: 0x009F [0x5B] LOAD_EXT_SCHEDULER: Load scheduler "tlk0" with entities [EventEntity, EventEntity], work=75*
  4: 0x00AE [0x03] Work_Zone[2] = (LocalPlayer->Render.Flags01 >> 25) & 1
  5: 0x00B3 [0x1D] PRINT_EVENT_MESSAGE(message_id=5292*)
    → "You found their employer?\u0007I knew you were something special!\u0007We have to let those Galka know about this right away!\u007F1\u0000\u0007"
  6: 0x00B6 [0x23] WAIT_FOR_DIALOG_INTERACTION
  7: 0x00B7 [0x21] END_EVENT
  8: 0x00B8 [0x00] END_REQSTACK()
```

### Event 65535.1

#### Metadata

| Field        | Value    |
|--------------|----------|
| Entrypoint   | 0x00B9   |
| Data Size    | 23 bytes |
| Instructions | 5        |

```
      00 01 02 03 04 05 06 07  08 09 0A 0B 0C 0D 0E 0F
      -- -- -- -- -- -- -- --  -- -- -- -- -- -- -- --
00B0:                             32 0D 80 1F 00 0E 80           2......
00C0: 0F 80 10 80 1F 01 4A 2D  21 03 01 0D 21 03 01 00  ......J-!...!...
```

#### Opcodes

```
  0: 0x00B9 [0x32] ExtData[1]->MainSpeed = 13* * 0.1
  1: 0x00BC [0x1F] MOVE_ENTITY: EventEntity moves to X=53.791*, Z=9.566*, Y=-5.999*
  2: 0x00C4 [0x1F] MOVE_ENTITY: Update entity position (mode=1)
  3: 0x00C6 [0x4A] Mhasbaf (ID: 16982317/0x0103212D) looks at Deminza (ID: 16982285/0x0103210D)
  4: 0x00CF [0x00] END_REQSTACK()
```

### Event 65535.2

#### Metadata

| Field        | Value    |
|--------------|----------|
| Entrypoint   | 0x00D0   |
| Data Size    | 23 bytes |
| Instructions | 5        |

```
      00 01 02 03 04 05 06 07  08 09 0A 0B 0C 0D 0E 0F
      -- -- -- -- -- -- -- --  -- -- -- -- -- -- -- --
00D0: 32 11 80 1F 00 12 80 13  80 14 80 1F 01 4A 2D 21  2............J-!
00E0: 03 01 0D 21 03 01 00                              ...!...         
```

#### Opcodes

```
  0: 0x00D0 [0x32] ExtData[1]->MainSpeed = 40* * 0.1
  1: 0x00D3 [0x1F] MOVE_ENTITY: EventEntity moves to X=54.395*, Z=10.996*, Y=-6.000*
  2: 0x00DB [0x1F] MOVE_ENTITY: Update entity position (mode=1)
  3: 0x00DD [0x4A] Mhasbaf (ID: 16982317/0x0103212D) looks at Deminza (ID: 16982285/0x0103210D)
  4: 0x00E6 [0x00] END_REQSTACK()
```
