# 16982253 - Giehnz

## Common Data

| Field            | Value                         |
|------------------|-------------------------------|
| Zone             | Aht Urhgan Whitegate (ID: 50) |
| Block Size       | 164 bytes                     |
| Total Events     | 3                             |
| References Count | 4                             |

## List of Events

| Event ID              | Entrypoint   |   Size |   Instructions |
|-----------------------|--------------|--------|----------------|
| [65535](#event-65535) | 0x0000       |      1 |              1 |
| [249](#event-249)     | 0x0001       |     56 |             10 |
| [898](#event-898)     | 0x0039       |     60 |             12 |

## DAT References (imed_data)

|   Index | Hex Value   |   Dec Value |
|---------|-------------|-------------|
|       0 | 0x0009      |           9 |
|       1 | 0x26AA      |        9898 |
|       2 | 0x26A8      |        9896 |
|       3 | 0x26A9      |        9897 |

## String References

- **9896**: Her Magnificence has graciously considered the desires of her people, and declared the Colosseum open for beast battles.
- **9897**: The entrance to the Pit can be found around the corner to the south. You can sign up to compete, or simply enter as a spectator.
- **9898**: This is the Colosseum. Her Magnificence, the Empress has declared the grounds closed while the defense of Al Zahbi is in question.

## Events

### Event 65535

#### Metadata

| Field        | Value   |
|--------------|---------|
| Entrypoint   | 0x0000  |
| Data Size    | 1 bytes |
| Instructions | 1       |

```
      00 01 02 03 04 05 06 07  08 09 0A 0B 0C 0D 0E 0F
      -- -- -- -- -- -- -- --  -- -- -- -- -- -- -- --
0000: 00                                                .               
```

#### Opcodes

```
  0: 0x0000 [0x00] END_REQSTACK()
```

### Event 249

#### Metadata

| Field        | Value    |
|--------------|----------|
| Entrypoint   | 0x0001   |
| Data Size    | 56 bytes |
| Instructions | 10       |

```
      00 01 02 03 04 05 06 07  08 09 0A 0B 0C 0D 0E 0F
      -- -- -- -- -- -- -- --  -- -- -- -- -- -- -- --
0000:    1E F0 FF FF 7F 6F 70  66 00 80 F8 FF FF 7F F8   .....opf.......
0010: FF FF 7F 74 77 62 30 1D  01 80 23 66 00 80 F8 FF  ...twb0...#f....
0020: FF 7F F8 FF FF 7F 74 77  62 31 53 F8 FF FF 7F F8  ......twb1S.....
0030: FF FF 7F 74 77 62 31 21  00                       ...twb1!.       
```

#### Opcodes

```
  0: 0x0001 [0x1E] EventEntity looks at LocalPlayer and starts talking
  1: 0x0006 [0x6F] WAIT_FRAME_DELAY: Yield until WaitTime reaches zero
  2: 0x0007 [0x70] WAIT_ENTITY_RENDER_FLAG: Wait while EventEntity->Render.Flags3 bit 2 is set (cancel turn if not)
  3: 0x0008 [0x66] LOAD_EXT_SCHEDULER_MAIN: Load scheduler "twb0" with entities [EventEntity, EventEntity], work=9*
  4: 0x0017 [0x1D] PRINT_EVENT_MESSAGE(message_id=9898*)
    → "This is the Colosseum. Her Magnificence, the Empress has declared the grounds closed while the defense of Al Zahbi is in question."
  5: 0x001A [0x23] WAIT_FOR_DIALOG_INTERACTION
  6: 0x001B [0x66] LOAD_EXT_SCHEDULER_MAIN: Load scheduler "twb1" with entities [EventEntity, EventEntity], work=9*
  7: 0x002A [0x53] WAIT_SCHEDULER_TASK: Wait for scheduler "twb1" with entities [EventEntity, EventEntity]
  8: 0x0037 [0x21] END_EVENT
  9: 0x0038 [0x00] END_REQSTACK()
```

### Event 898

#### Metadata

| Field        | Value    |
|--------------|----------|
| Entrypoint   | 0x0039   |
| Data Size    | 60 bytes |
| Instructions | 12       |

```
      00 01 02 03 04 05 06 07  08 09 0A 0B 0C 0D 0E 0F
      -- -- -- -- -- -- -- --  -- -- -- -- -- -- -- --
0030:                             1E F0 FF FF 7F 6F 70           .....op
0040: 66 00 80 F8 FF FF 7F F8  FF FF 7F 74 77 62 30 1D  f..........twb0.
0050: 02 80 23 1D 03 80 23 66  00 80 F8 FF FF 7F F8 FF  ..#...#f........
0060: FF 7F 74 77 62 31 53 F8  FF FF 7F F8 FF FF 7F 74  ..twb1S........t
0070: 77 62 31 21 00                                    wb1!.           
```

#### Opcodes

```
  0: 0x0039 [0x1E] EventEntity looks at LocalPlayer and starts talking
  1: 0x003E [0x6F] WAIT_FRAME_DELAY: Yield until WaitTime reaches zero
  2: 0x003F [0x70] WAIT_ENTITY_RENDER_FLAG: Wait while EventEntity->Render.Flags3 bit 2 is set (cancel turn if not)
  3: 0x0040 [0x66] LOAD_EXT_SCHEDULER_MAIN: Load scheduler "twb0" with entities [EventEntity, EventEntity], work=9*
  4: 0x004F [0x1D] PRINT_EVENT_MESSAGE(message_id=9896*)
    → "Her Magnificence has graciously considered the desires of her people, and declared the Colosseum open for beast battles."
  5: 0x0052 [0x23] WAIT_FOR_DIALOG_INTERACTION
  6: 0x0053 [0x1D] PRINT_EVENT_MESSAGE(message_id=9897*)
    → "The entrance to the Pit can be found around the corner to the south. You can sign up to compete, or simply enter as a spectator."
  7: 0x0056 [0x23] WAIT_FOR_DIALOG_INTERACTION
  8: 0x0057 [0x66] LOAD_EXT_SCHEDULER_MAIN: Load scheduler "twb1" with entities [EventEntity, EventEntity], work=9*
  9: 0x0066 [0x53] WAIT_SCHEDULER_TASK: Wait for scheduler "twb1" with entities [EventEntity, EventEntity]
 10: 0x0073 [0x21] END_EVENT
 11: 0x0074 [0x00] END_REQSTACK()
```
