# 16982465

## Common Data

| Field            | Value                         |
|------------------|-------------------------------|
| Zone             | Aht Urhgan Whitegate (ID: 50) |
| Block Size       | 52588 bytes                   |
| Total Events     | 10                            |
| References Count | 1088                          |

## List of Events

| Event ID              | Entrypoint   |   Size |   Instructions |
|-----------------------|--------------|--------|----------------|
| [65535](#event-65535) | 0x0000       |      1 |              1 |
| [5071](#event-5071)   | 0x0001       |   5510 |            666 |
| [5073](#event-5073)   | 0x1587       |   7283 |            856 |
| [5075](#event-5075)   | 0x31FA       |  13101 |           1713 |
| [5076](#event-5076)   | 0x6527       |   3266 |            391 |
| [5077](#event-5077)   | 0x71E9       |   3373 |            412 |
| [5078](#event-5078)   | 0x7F16       |  15380 |           1879 |
| [5072](#event-5072)   | 0xBB2A       |     44 |             12 |
| [5074](#event-5074)   | 0xBB56       |     65 |             17 |
| [5079](#event-5079)   | 0xBB97       |    157 |             23 |

## DAT References (imed_data)

|   Index | Hex Value   |   Dec Value |
|---------|-------------|-------------|
|       0 | 0x0013      |          19 |
|       1 | 0x0233      |         563 |
|       2 | 0x000F      |          15 |
|       3 | 0x0000      |           0 |
|       4 | 0x00F0      |         240 |
|       5 | 0x000A      |          10 |
|       6 | 0x00A3      |         163 |
|       7 | 0x007F      |         127 |
|       8 | 0x0001      |           1 |
|       9 | 0x70D8      |       28888 |
|      10 | 0xFFFF4EF7  |  4294921975 |
|      11 | 0xFFFFE184  |  4294959492 |
|      12 | 0x0803      |        2051 |
|      13 | 0x58AC      |       22700 |
|      14 | 0xFFFF4DE9  |  4294921705 |
|      15 | 0x62B3      |       25267 |
|      16 | 0xFFFF45D1  |  4294919633 |
|      17 | 0x0CFC      |        3324 |
|      18 | 0x66E0      |       26336 |
|      19 | 0xFFFF4DD8  |  4294921688 |
|      20 | 0x07EC      |        2028 |
|      21 | 0x012A      |         298 |
|      22 | 0x0006      |           6 |
|      23 | 0x2C73      |       11379 |
|      24 | 0x0356      |         854 |
|      25 | 0x2C74      |       11380 |
|      26 | 0x2C75      |       11381 |
|      27 | 0x0128      |         296 |
|      28 | 0x2C76      |       11382 |
|      29 | 0x2C77      |       11383 |
|      30 | 0x2C78      |       11384 |
|      31 | 0x2C79      |       11385 |
|      32 | 0x0016      |          22 |
|      33 | 0x2C7A      |       11386 |
|      34 | 0x0344      |         836 |
|      35 | 0x2C7B      |       11387 |
|      36 | 0x000B      |          11 |
|      37 | 0x2C7C      |       11388 |
|      38 | 0x2C7D      |       11389 |
|      39 | 0x2C7E      |       11390 |
|      40 | 0x0342      |         834 |
|      41 | 0x2C7F      |       11391 |
|      42 | 0x2C80      |       11392 |
|      43 | 0x2C81      |       11393 |
|      44 | 0x0015      |          21 |
|      45 | 0x2C82      |       11394 |
|      46 | 0x2C83      |       11395 |
|      47 | 0x000C      |          12 |
|      48 | 0x2C84      |       11396 |
|      49 | 0x2C85      |       11397 |
|      50 | 0x005A      |          90 |
|      51 | 0x001E      |          30 |
|      52 | 0x2C86      |       11398 |
|      53 | 0x2C87      |       11399 |
|      54 | 0x003C      |          60 |
|      55 | 0x2C88      |       11400 |
|      56 | 0x2C89      |       11401 |
|      57 | 0x2C8A      |       11402 |
|      58 | 0x2C8B      |       11403 |
|      59 | 0x001D      |          29 |
|      60 | 0x2C8C      |       11404 |
|      61 | 0x2C8D      |       11405 |
|      62 | 0x2C8E      |       11406 |
|      63 | 0x2C8F      |       11407 |
|      64 | 0x2C90      |       11408 |
|      65 | 0x2C91      |       11409 |
|      66 | 0x2C92      |       11410 |
|      67 | 0x2C93      |       11411 |
|      68 | 0x000D      |          13 |
|      69 | 0x2C94      |       11412 |
|      70 | 0x2C95      |       11413 |
|      71 | 0x2C96      |       11414 |
|      72 | 0x2C97      |       11415 |
|      73 | 0x2C98      |       11416 |
|      74 | 0x2C99      |       11417 |
|      75 | 0x2C9A      |       11418 |
|      76 | 0x2C9B      |       11419 |
|      77 | 0x2C9C      |       11420 |
|      78 | 0x0007      |           7 |
|      79 | 0x0343      |         835 |
|      80 | 0x2C9D      |       11421 |
|      81 | 0x0096      |         150 |
|      82 | 0x0078      |         120 |
|      83 | 0x2C9E      |       11422 |
|      84 | 0x2C9F      |       11423 |
|      85 | 0x2CA0      |       11424 |
|      86 | 0x2CA1      |       11425 |
|      87 | 0x2CA2      |       11426 |
|      88 | 0x0020      |          32 |
|      89 | 0x2CA3      |       11427 |
|      90 | 0x2CA4      |       11428 |
|      91 | 0x2CA5      |       11429 |
|      92 | 0x2CA6      |       11430 |
|      93 | 0x2CA7      |       11431 |
|      94 | 0x2CA8      |       11432 |
|      95 | 0x2CA9      |       11433 |
|      96 | 0x2CAA      |       11434 |
|      97 | 0x2CAB      |       11435 |
|      98 | 0x2CAC      |       11436 |
|      99 | 0x2CAD      |       11437 |
|     100 | 0x2CAE      |       11438 |
|     101 | 0x2CAF      |       11439 |
|     102 | 0x2CB1      |       11441 |
|     103 | 0x2CB3      |       11443 |
|     104 | 0x088B      |        2187 |
|     105 | 0x2CB4      |       11444 |
|     106 | 0x2CB5      |       11445 |
|     107 | 0x2CB6      |       11446 |
|     108 | 0x2CB7      |       11447 |
|     109 | 0x2CB8      |       11448 |
|     110 | 0x2CB9      |       11449 |
|     111 | 0x2CBA      |       11450 |
|     112 | 0x2CBC      |       11452 |
|     113 | 0x2CBD      |       11453 |
|     114 | 0x2CBE      |       11454 |
|     115 | 0x2CBF      |       11455 |
|     116 | 0x2CC0      |       11456 |
|     117 | 0x2CC1      |       11457 |
|     118 | 0x2CC2      |       11458 |
|     119 | 0x2CC3      |       11459 |
|     120 | 0x2CC4      |       11460 |
|     121 | 0x2CC5      |       11461 |
|     122 | 0x0003      |           3 |
|     123 | 0x2CC6      |       11462 |
|     124 | 0x00B4      |         180 |
|     125 | 0x2CC7      |       11463 |
|     126 | 0x2CC8      |       11464 |
|     127 | 0x2CC9      |       11465 |
|     128 | 0x01E0      |         480 |
|     129 | 0x00A4      |         164 |
|     130 | 0x07D0      |        2000 |
|     131 | 0x2CCA      |       11466 |
|     132 | 0x2CCB      |       11467 |
|     133 | 0x2CCC      |       11468 |
|     134 | 0x2CCD      |       11469 |
|     135 | 0x2CCE      |       11470 |
|     136 | 0x2CCF      |       11471 |
|     137 | 0x2CD0      |       11472 |
|     138 | 0x2CD1      |       11473 |
|     139 | 0x2CD2      |       11474 |
|     140 | 0x2CD3      |       11475 |
|     141 | 0x2CD4      |       11476 |
|     142 | 0x00B2      |         178 |
|     143 | 0x845A      |       33882 |
|     144 | 0xFFFF2326  |  4294910758 |
|     145 | 0xFFFFE633  |  4294960691 |
|     146 | 0x0167      |         359 |
|     147 | 0x8AAF      |       35503 |
|     148 | 0xFFFF1C91  |  4294909073 |
|     149 | 0xFFFFE637  |  4294960695 |
|     150 | 0x0346      |         838 |
|     151 | 0x2CD7      |       11479 |
|     152 | 0x0009      |           9 |
|     153 | 0x2CD8      |       11480 |
|     154 | 0x2CD9      |       11481 |
|     155 | 0x2CDA      |       11482 |
|     156 | 0x2CDB      |       11483 |
|     157 | 0x2CDC      |       11484 |
|     158 | 0x8A71      |       35441 |
|     159 | 0xFFFF2D04  |  4294913284 |
|     160 | 0x041D      |        1053 |
|     161 | 0x5843      |       22595 |
|     162 | 0xFFFF4DE6  |  4294921702 |
|     163 | 0x0FFF      |        4095 |
|     164 | 0x859D      |       34205 |
|     165 | 0xFFFF24B5  |  4294911157 |
|     166 | 0x0D8F      |        3471 |
|     167 | 0x8EE8      |       36584 |
|     168 | 0xFFFF24CF  |  4294911183 |
|     169 | 0x0AFD      |        2813 |
|     170 | 0x2CDD      |       11485 |
|     171 | 0x2CDE      |       11486 |
|     172 | 0x2CDF      |       11487 |
|     173 | 0x2CE0      |       11488 |
|     174 | 0x2CE1      |       11489 |
|     175 | 0x2CE2      |       11490 |
|     176 | 0x0380      |         896 |
|     177 | 0x2CE3      |       11491 |
|     178 | 0x2CE4      |       11492 |
|     179 | 0x2CE5      |       11493 |
|     180 | 0x2CE6      |       11494 |
|     181 | 0x2CE7      |       11495 |
|     182 | 0x2CE8      |       11496 |
|     183 | 0x0047      |          71 |
|     184 | 0x00FF      |         255 |
|     185 | 0x008E      |         142 |
|     186 | 0xFFF754D8  |  4294399192 |
|     187 | 0x9D08      |       40200 |
|     188 | 0x0FFA      |        4090 |
|     189 | 0xFFF76597  |  4294403479 |
|     190 | 0x8A8F      |       35471 |
|     191 | 0x0DE5      |        3557 |
|     192 | 0xFFF7418E  |  4294394254 |
|     193 | 0x9B74      |       39796 |
|     194 | 0x020E      |         526 |
|     195 | 0xFFF763AB  |  4294402987 |
|     196 | 0xB5DF      |       46559 |
|     197 | 0x0B88      |        2952 |
|     198 | 0xFFF744BB  |  4294395067 |
|     199 | 0xB13B      |       45371 |
|     200 | 0x0CCA      |        3274 |
|     201 | 0xFFF74130  |  4294394160 |
|     202 | 0xAD59      |       44377 |
|     203 | 0x00AD      |         173 |
|     204 | 0xFFF75497  |  4294399127 |
|     205 | 0x10456     |       66646 |
|     206 | 0x03CD      |         973 |
|     207 | 0xFFF7A6C8  |  4294420168 |
|     208 | 0x90B7      |       37047 |
|     209 | 0xFFFFF1F0  |  4294963696 |
|     210 | 0x061D      |        1565 |
|     211 | 0xFFF7A71F  |  4294420255 |
|     212 | 0xA7F5      |       42997 |
|     213 | 0x0761      |        1889 |
|     214 | 0xFFF755BD  |  4294399421 |
|     215 | 0x748C      |       29836 |
|     216 | 0x0CCE      |        3278 |
|     217 | 0x0014      |          20 |
|     218 | 0x2CE9      |       11497 |
|     219 | 0x0008      |           8 |
|     220 | 0x2CEA      |       11498 |
|     221 | 0x2CEB      |       11499 |
|     222 | 0x2CEC      |       11500 |
|     223 | 0x2CED      |       11501 |
|     224 | 0x2CEE      |       11502 |
|     225 | 0x2CEF      |       11503 |
|     226 | 0x2CF0      |       11504 |
|     227 | 0x2CF1      |       11505 |
|     228 | 0x2CF2      |       11506 |
|     229 | 0x2CF3      |       11507 |
|     230 | 0x2CF4      |       11508 |
|     231 | 0x2CF5      |       11509 |
|     232 | 0x2CF6      |       11510 |
|     233 | 0x0004      |           4 |
|     234 | 0x2CF7      |       11511 |
|     235 | 0x2CF8      |       11512 |
|     236 | 0x2CF9      |       11513 |
|     237 | 0x2CFA      |       11514 |
|     238 | 0x2CFB      |       11515 |
|     239 | 0x2CFC      |       11516 |
|     240 | 0x2CFD      |       11517 |
|     241 | 0x2CFE      |       11518 |
|     242 | 0x2CFF      |       11519 |
|     243 | 0x2D00      |       11520 |
|     244 | 0x2D01      |       11521 |
|     245 | 0x2D02      |       11522 |
|     246 | 0x0005      |           5 |
|     247 | 0x2D03      |       11523 |
|     248 | 0x001A      |          26 |
|     249 | 0x2D04      |       11524 |
|     250 | 0x2D05      |       11525 |
|     251 | 0x0010      |          16 |
|     252 | 0x2D06      |       11526 |
|     253 | 0x2D07      |       11527 |
|     254 | 0xFFF784CA  |  4294411466 |
|     255 | 0x91BE      |       37310 |
|     256 | 0xFFFFEFFD  |  4294963197 |
|     257 | 0x2D09      |       11529 |
|     258 | 0x2D08      |       11528 |
|     259 | 0x2D0B      |       11531 |
|     260 | 0x2D0A      |       11530 |
|     261 | 0x007D      |         125 |
|     262 | 0x03C9      |         969 |
|     263 | 0x2D0C      |       11532 |
|     264 | 0x2D0D      |       11533 |
|     265 | 0x03CA      |         970 |
|     266 | 0x0068      |         104 |
|     267 | 0x2D0E      |       11534 |
|     268 | 0x2D0F      |       11535 |
|     269 | 0x2D10      |       11536 |
|     270 | 0x2D11      |       11537 |
|     271 | 0x2D12      |       11538 |
|     272 | 0x2D13      |       11539 |
|     273 | 0x2D14      |       11540 |
|     274 | 0x2D15      |       11541 |
|     275 | 0x2D16      |       11542 |
|     276 | 0x2D17      |       11543 |
|     277 | 0x2D18      |       11544 |
|     278 | 0x2D19      |       11545 |
|     279 | 0x2D1A      |       11546 |
|     280 | 0x2D1B      |       11547 |
|     281 | 0x2D1C      |       11548 |
|     282 | 0x2D1D      |       11549 |
|     283 | 0x2D1E      |       11550 |
|     284 | 0x2D1F      |       11551 |
|     285 | 0x088A      |        2186 |
|     286 | 0x0002      |           2 |
|     287 | 0x2D21      |       11553 |
|     288 | 0xFFF758A5  |  4294400165 |
|     289 | 0x9C58      |       40024 |
|     290 | 0x07CF      |        1999 |
|     291 | 0x08CB      |        2251 |
|     292 | 0x2D23      |       11555 |
|     293 | 0x2D24      |       11556 |
|     294 | 0x2D25      |       11557 |
|     295 | 0x2D26      |       11558 |
|     296 | 0x00A1      |         161 |
|     297 | 0x2D27      |       11559 |
|     298 | 0x2D28      |       11560 |
|     299 | 0x2D29      |       11561 |
|     300 | 0x2D2A      |       11562 |
|     301 | 0x2D2B      |       11563 |
|     302 | 0x2D2C      |       11564 |
|     303 | 0xFFF760D3  |  4294402259 |
|     304 | 0x9B5F      |       39775 |
|     305 | 0xFFF75569  |  4294399337 |
|     306 | 0xA4D1      |       42193 |
|     307 | 0x0FA0      |        4000 |
|     308 | 0xFFF760BF  |  4294402239 |
|     309 | 0x9317      |       37655 |
|     310 | 0xFFF7610D  |  4294402317 |
|     311 | 0xA5EB      |       42475 |
|     312 | 0xFFF7553A  |  4294399290 |
|     313 | 0x92C1      |       37569 |
|     314 | 0xFFF75540  |  4294399296 |
|     315 | 0x9B16      |       39702 |
|     316 | 0xFFF75BAB  |  4294400939 |
|     317 | 0xAAE5      |       43749 |
|     318 | 0x03E8      |        1000 |
|     319 | 0x045C      |        1116 |
|     320 | 0x2D2D      |       11565 |
|     321 | 0x2D2E      |       11566 |
|     322 | 0x2D2F      |       11567 |
|     323 | 0x2D30      |       11568 |
|     324 | 0x2D31      |       11569 |
|     325 | 0x2D32      |       11570 |
|     326 | 0x2D33      |       11571 |
|     327 | 0x2D34      |       11572 |
|     328 | 0x2D35      |       11573 |
|     329 | 0x2D36      |       11574 |
|     330 | 0x2D37      |       11575 |
|     331 | 0x2D38      |       11576 |
|     332 | 0x2D39      |       11577 |
|     333 | 0x2D3A      |       11578 |
|     334 | 0x2D3B      |       11579 |
|     335 | 0x2D3C      |       11580 |
|     336 | 0x2D3D      |       11581 |
|     337 | 0xFFF76FCC  |  4294406092 |
|     338 | 0x9B60      |       39776 |
|     339 | 0x2D3E      |       11582 |
|     340 | 0x2D3F      |       11583 |
|     341 | 0x2D40      |       11584 |
|     342 | 0x2D41      |       11585 |
|     343 | 0x2D42      |       11586 |
|     344 | 0x2D43      |       11587 |
|     345 | 0x2D44      |       11588 |
|     346 | 0x2D45      |       11589 |
|     347 | 0x2D46      |       11590 |
|     348 | 0x2D47      |       11591 |
|     349 | 0x2D48      |       11592 |
|     350 | 0x2D49      |       11593 |
|     351 | 0x0032      |          50 |
|     352 | 0x2D4E      |       11598 |
|     353 | 0x2D4F      |       11599 |
|     354 | 0x2D50      |       11600 |
|     355 | 0x2D51      |       11601 |
|     356 | 0x2D52      |       11602 |
|     357 | 0xFFF7536B  |  4294398827 |
|     358 | 0x978E      |       38798 |
|     359 | 0xFFF7587F  |  4294400127 |
|     360 | 0x99BA      |       39354 |
|     361 | 0xFFF7622D  |  4294402605 |
|     362 | 0x80D9      |       32985 |
|     363 | 0x015C      |         348 |
|     364 | 0xFFF75925  |  4294400293 |
|     365 | 0x9E72      |       40562 |
|     366 | 0xFFF74D8F  |  4294397327 |
|     367 | 0xA9AB      |       43435 |
|     368 | 0xFFF74955  |  4294396245 |
|     369 | 0xA502      |       42242 |
|     370 | 0x0FB0      |        4016 |
|     371 | 0xFFF75538  |  4294399288 |
|     372 | 0xB773      |       46963 |
|     373 | 0x0405      |        1029 |
|     374 | 0x012B      |         299 |
|     375 | 0xFFF74963  |  4294396259 |
|     376 | 0xFFF73DF9  |  4294393337 |
|     377 | 0xFFF7494F  |  4294396239 |
|     378 | 0xFFF7499D  |  4294396317 |
|     379 | 0xFFF73DCA  |  4294393290 |
|     380 | 0xFFF73DD0  |  4294393296 |
|     381 | 0xFFF7585C  |  4294400092 |
|     382 | 0x2D6E      |       11630 |
|     383 | 0x2D6F      |       11631 |
|     384 | 0x2D53      |       11603 |
|     385 | 0x2D54      |       11604 |
|     386 | 0x0019      |          25 |
|     387 | 0x2D55      |       11605 |
|     388 | 0x2D56      |       11606 |
|     389 | 0x2D57      |       11607 |
|     390 | 0x2D58      |       11608 |
|     391 | 0x2D59      |       11609 |
|     392 | 0x2D5A      |       11610 |
|     393 | 0x2D5B      |       11611 |
|     394 | 0x2D5C      |       11612 |
|     395 | 0x2D5D      |       11613 |
|     396 | 0x2D5E      |       11614 |
|     397 | 0x2D5F      |       11615 |
|     398 | 0x0024      |          36 |
|     399 | 0x2D60      |       11616 |
|     400 | 0x2D62      |       11618 |
|     401 | 0x2D63      |       11619 |
|     402 | 0x2D64      |       11620 |
|     403 | 0x2D65      |       11621 |
|     404 | 0x2D66      |       11622 |
|     405 | 0x2D67      |       11623 |
|     406 | 0x2D68      |       11624 |
|     407 | 0x2D69      |       11625 |
|     408 | 0x2D6A      |       11626 |
|     409 | 0x2D6B      |       11627 |
|     410 | 0x2D6C      |       11628 |
|     411 | 0x2D6D      |       11629 |
|     412 | 0x2D70      |       11632 |
|     413 | 0x2D71      |       11633 |
|     414 | 0x2D72      |       11634 |
|     415 | 0x2D73      |       11635 |
|     416 | 0x2D74      |       11636 |
|     417 | 0xFFF74F15  |  4294397717 |
|     418 | 0x9AB8      |       39608 |
|     419 | 0x2D76      |       11638 |
|     420 | 0x2D77      |       11639 |
|     421 | 0x2D78      |       11640 |
|     422 | 0x2D79      |       11641 |
|     423 | 0x2D7A      |       11642 |
|     424 | 0x00BC      |         188 |
|     425 | 0xFFF7603E  |  4294402110 |
|     426 | 0xA8A8      |       43176 |
|     427 | 0xFFF7669A  |  4294403738 |
|     428 | 0xA067      |       41063 |
|     429 | 0x04B0      |        1200 |
|     430 | 0xFFF75F3D  |  4294401853 |
|     431 | 0x9925      |       39205 |
|     432 | 0x09C4      |        2500 |
|     433 | 0xFFF759D2  |  4294400466 |
|     434 | 0xA1E6      |       41446 |
|     435 | 0x0E10      |        3600 |
|     436 | 0xFFF759A5  |  4294400421 |
|     437 | 0x95A9      |       38313 |
|     438 | 0x00C8      |         200 |
|     439 | 0xFFF76F36  |  4294405942 |
|     440 | 0x93DC      |       37852 |
|     441 | 0x0708      |        1800 |
|     442 | 0x2D7B      |       11643 |
|     443 | 0x2D87      |       11655 |
|     444 | 0x2D7D      |       11645 |
|     445 | 0x2D7E      |       11646 |
|     446 | 0x2D7F      |       11647 |
|     447 | 0x2D80      |       11648 |
|     448 | 0x2D81      |       11649 |
|     449 | 0x2D83      |       11651 |
|     450 | 0x2D84      |       11652 |
|     451 | 0x2D85      |       11653 |
|     452 | 0x2D86      |       11654 |
|     453 | 0xFFF766BF  |  4294403775 |
|     454 | 0xA0C2      |       41154 |
|     455 | 0xFFF7667A  |  4294403706 |
|     456 | 0x9BD4      |       39892 |
|     457 | 0xFFF76664  |  4294403684 |
|     458 | 0x978F      |       38799 |
|     459 | 0xFFF760C5  |  4294402245 |
|     460 | 0xA0F7      |       41207 |
|     461 | 0x0BB8      |        3000 |
|     462 | 0xFFF760A4  |  4294402212 |
|     463 | 0x9B3D      |       39741 |
|     464 | 0xFFF76080  |  4294402176 |
|     465 | 0x95DC      |       38364 |
|     466 | 0x0FA1      |        4001 |
|     467 | 0xFFF75A63  |  4294400611 |
|     468 | 0xA113      |       41235 |
|     469 | 0xFFF75A37  |  4294400567 |
|     470 | 0x9ABD      |       39613 |
|     471 | 0xFFF75A38  |  4294400568 |
|     472 | 0x9512      |       38162 |
|     473 | 0x012C      |         300 |
|     474 | 0x0BB9      |        3001 |
|     475 | 0x03E9      |        1001 |
|     476 | 0x2D88      |       11656 |
|     477 | 0x2D89      |       11657 |
|     478 | 0x2D8C      |       11660 |
|     479 | 0x2D8D      |       11661 |
|     480 | 0x2D8A      |       11658 |
|     481 | 0x2D8B      |       11659 |
|     482 | 0x2D8E      |       11662 |
|     483 | 0x2D8F      |       11663 |
|     484 | 0xFFF7661A  |  4294403610 |
|     485 | 0xA252      |       41554 |
|     486 | 0x0A8C      |        2700 |
|     487 | 0xFFF7649D  |  4294403229 |
|     488 | 0xA7D7      |       42967 |
|     489 | 0x08FC      |        2300 |
|     490 | 0xFFF75CE3  |  4294401251 |
|     491 | 0xA7FF      |       43007 |
|     492 | 0x0366      |         870 |
|     493 | 0xFFF76244  |  4294402628 |
|     494 | 0xA3F6      |       41974 |
|     495 | 0x0171      |         369 |
|     496 | 0xFFF76A71  |  4294404721 |
|     497 | 0xA0CA      |       41162 |
|     498 | 0xFFF7628C  |  4294402700 |
|     499 | 0x9F49      |       40777 |
|     500 | 0xFFF75E49  |  4294401609 |
|     501 | 0x9D64      |       40292 |
|     502 | 0x0DAC      |        3500 |
|     503 | 0xFFF75FA4  |  4294401956 |
|     504 | 0x999C      |       39324 |
|     505 | 0xFFF764A6  |  4294403238 |
|     506 | 0x9C01      |       39937 |
|     507 | 0x07F1      |        2033 |
|     508 | 0xFFF76CAB  |  4294405291 |
|     509 | 0x9E10      |       40464 |
|     510 | 0x0640      |        1600 |
|     511 | 0xFFF76E80  |  4294405760 |
|     512 | 0xA564      |       42340 |
|     513 | 0xFFF76C6D  |  4294405229 |
|     514 | 0x9899      |       39065 |
|     515 | 0x01E7      |         487 |
|     516 | 0xFFF76425  |  4294403109 |
|     517 | 0x9716      |       38678 |
|     518 | 0xFFF75D84  |  4294401412 |
|     519 | 0x9648      |       38472 |
|     520 | 0x002E      |          46 |
|     521 | 0xFFF75BA1  |  4294400929 |
|     522 | 0x918D      |       37261 |
|     523 | 0xFFF76223  |  4294402595 |
|     524 | 0x91E9      |       37353 |
|     525 | 0xFFF76861  |  4294404193 |
|     526 | 0x90BF      |       37055 |
|     527 | 0xFFF76523  |  4294403363 |
|     528 | 0x8F1E      |       36638 |
|     529 | 0x0898      |        2200 |
|     530 | 0xFFF75DD6  |  4294401494 |
|     531 | 0x8FF1      |       36849 |
|     532 | 0xFFF75D0A  |  4294401290 |
|     533 | 0xA128      |       41256 |
|     534 | 0xFFF766D8  |  4294403800 |
|     535 | 0x9BBE      |       39870 |
|     536 | 0x028A      |         650 |
|     537 | 0xFFF76BDB  |  4294405083 |
|     538 | 0x9776      |       38774 |
|     539 | 0x00E6      |         230 |
|     540 | 0xFFF75CCC  |  4294401228 |
|     541 | 0x9DC2      |       40386 |
|     542 | 0x0258      |         600 |
|     543 | 0x2D7C      |       11644 |
|     544 | 0x2D90      |       11664 |
|     545 | 0x2D91      |       11665 |
|     546 | 0x2D92      |       11666 |
|     547 | 0x2D93      |       11667 |
|     548 | 0x2D94      |       11668 |
|     549 | 0x2D9F      |       11679 |
|     550 | 0xFFF755EC  |  4294399468 |
|     551 | 0x9B62      |       39778 |
|     552 | 0xFFF75AF3  |  4294400755 |
|     553 | 0x9F43      |       40771 |
|     554 | 0x2DA0      |       11680 |
|     555 | 0x2DA1      |       11681 |
|     556 | 0x2DA2      |       11682 |
|     557 | 0x2DA3      |       11683 |
|     558 | 0x2DA4      |       11684 |
|     559 | 0x2DA5      |       11685 |
|     560 | 0x2DA7      |       11687 |
|     561 | 0x2DA8      |       11688 |
|     562 | 0x2DA9      |       11689 |
|     563 | 0x2DAA      |       11690 |
|     564 | 0x2DAB      |       11691 |
|     565 | 0x2DAC      |       11692 |
|     566 | 0x2DAD      |       11693 |
|     567 | 0xFFF754FA  |  4294399226 |
|     568 | 0x9DA6      |       40358 |
|     569 | 0xFFF75501  |  4294399233 |
|     570 | 0x977A      |       38778 |
|     571 | 0xFFF76112  |  4294402322 |
|     572 | 0x9942      |       39234 |
|     573 | 0x2DAE      |       11694 |
|     574 | 0x0368      |         872 |
|     575 | 0x00E0      |         224 |
|     576 | 0x2DAF      |       11695 |
|     577 | 0x2DB0      |       11696 |
|     578 | 0x2DB1      |       11697 |
|     579 | 0x2DB2      |       11698 |
|     580 | 0x2DB3      |       11699 |
|     581 | 0x2DB4      |       11700 |
|     582 | 0x2DB5      |       11701 |
|     583 | 0x2DB6      |       11702 |
|     584 | 0x2DB7      |       11703 |
|     585 | 0x2DB8      |       11704 |
|     586 | 0xFFF75C26  |  4294401062 |
|     587 | 0x9C8F      |       40079 |
|     588 | 0x2DB9      |       11705 |
|     589 | 0x2DBA      |       11706 |
|     590 | 0x2DBB      |       11707 |
|     591 | 0x2DBC      |       11708 |
|     592 | 0x2DBD      |       11709 |
|     593 | 0x2DBE      |       11710 |
|     594 | 0x2DBF      |       11711 |
|     595 | 0x2DC0      |       11712 |
|     596 | 0xFFF7563A  |  4294399546 |
|     597 | 0x84BE      |       33982 |
|     598 | 0xFFF759B7  |  4294400439 |
|     599 | 0x89E7      |       35303 |
|     600 | 0xFFF757C4  |  4294399940 |
|     601 | 0x8AD8      |       35544 |
|     602 | 0xFFF754A6  |  4294399142 |
|     603 | 0x8A3B      |       35387 |
|     604 | 0xFFF75720  |  4294399776 |
|     605 | 0x8D92      |       36242 |
|     606 | 0xFFF75B65  |  4294400869 |
|     607 | 0x8CEC      |       36076 |
|     608 | 0xFFF752D3  |  4294398675 |
|     609 | 0x8981      |       35201 |
|     610 | 0xFFF75F44  |  4294401860 |
|     611 | 0x8AA8      |       35496 |
|     612 | 0xFFF7534B  |  4294398795 |
|     613 | 0x83EB      |       33771 |
|     614 | 0xFFF75963  |  4294400355 |
|     615 | 0x8672      |       34418 |
|     616 | 0xFFF759C2  |  4294400450 |
|     617 | 0x85B2      |       34226 |
|     618 | 0xFFF75B9C  |  4294400924 |
|     619 | 0x881B      |       34843 |
|     620 | 0x0F9F      |        3999 |
|     621 | 0xFFF75DDC  |  4294401500 |
|     622 | 0x8264      |       33380 |
|     623 | 0x0F9B      |        3995 |
|     624 | 0xFFF75D20  |  4294401312 |
|     625 | 0x85F3      |       34291 |
|     626 | 0x0F86      |        3974 |
|     627 | 0xFFF76167  |  4294402407 |
|     628 | 0x878F      |       34703 |
|     629 | 0xFFF75793  |  4294399891 |
|     630 | 0x8125      |       33061 |
|     631 | 0xFFF753E9  |  4294398953 |
|     632 | 0x86D5      |       34517 |
|     633 | 0x0FBB      |        4027 |
|     634 | 0xFFF751AB  |  4294398379 |
|     635 | 0x8512      |       34066 |
|     636 | 0x02B2      |         690 |
|     637 | 0xFFF74F54  |  4294397780 |
|     638 | 0x820B      |       33291 |
|     639 | 0x0FF7      |        4087 |
|     640 | 0xFFF74D34  |  4294397236 |
|     641 | 0x8653      |       34387 |
|     642 | 0x0F92      |        3986 |
|     643 | 0xFFF75A7D  |  4294400637 |
|     644 | 0x815C      |       33116 |
|     645 | 0x0FBA      |        4026 |
|     646 | 0xFFF75728  |  4294399784 |
|     647 | 0x7FEB      |       32747 |
|     648 | 0x05C4      |        1476 |
|     649 | 0xFFF75A39  |  4294400569 |
|     650 | 0x7D7E      |       32126 |
|     651 | 0x0F63      |        3939 |
|     652 | 0xFFF7565D  |  4294399581 |
|     653 | 0x8168      |       33128 |
|     654 | 0x0F79      |        3961 |
|     655 | 0x2DC1      |       11713 |
|     656 | 0x2DC2      |       11714 |
|     657 | 0x2DC3      |       11715 |
|     658 | 0x2DC4      |       11716 |
|     659 | 0x2DC5      |       11717 |
|     660 | 0x2DC6      |       11718 |
|     661 | 0x2DC7      |       11719 |
|     662 | 0x2DC8      |       11720 |
|     663 | 0x2D95      |       11669 |
|     664 | 0x2D96      |       11670 |
|     665 | 0x2D97      |       11671 |
|     666 | 0x2D98      |       11672 |
|     667 | 0x2D99      |       11673 |
|     668 | 0x2D9A      |       11674 |
|     669 | 0x2D9B      |       11675 |
|     670 | 0x2D9C      |       11676 |
|     671 | 0x2D9D      |       11677 |
|     672 | 0x2D9E      |       11678 |
|     673 | 0xFFF70BF3  |  4294380531 |
|     674 | 0x9D8B      |       40331 |
|     675 | 0xFFFFFFFB  |  4294967291 |
|     676 | 0x10684     |       67204 |
|     677 | 0x2DC9      |       11721 |
|     678 | 0x2DCA      |       11722 |
|     679 | 0x2DCB      |       11723 |
|     680 | 0x2DCC      |       11724 |
|     681 | 0xFFF750CC  |  4294398156 |
|     682 | 0x9C0E      |       39950 |
|     683 | 0x2DCD      |       11725 |
|     684 | 0x2DCE      |       11726 |
|     685 | 0x2DCF      |       11727 |
|     686 | 0x2DD0      |       11728 |
|     687 | 0x2DD1      |       11729 |
|     688 | 0x0355      |         853 |
|     689 | 0x2DD2      |       11730 |
|     690 | 0x2DD3      |       11731 |
|     691 | 0x2DD4      |       11732 |
|     692 | 0x2DD5      |       11733 |
|     693 | 0x2DD6      |       11734 |
|     694 | 0x2DD7      |       11735 |
|     695 | 0x2DD8      |       11736 |
|     696 | 0x2DD9      |       11737 |
|     697 | 0x2DDA      |       11738 |
|     698 | 0x2DDB      |       11739 |
|     699 | 0x2DDC      |       11740 |
|     700 | 0x2DDD      |       11741 |
|     701 | 0x2DDE      |       11742 |
|     702 | 0x2DDF      |       11743 |
|     703 | 0x2DE0      |       11744 |
|     704 | 0x2DE1      |       11745 |
|     705 | 0x002D      |          45 |
|     706 | 0x2DE2      |       11746 |
|     707 | 0xFFF6E42F  |  4294370351 |
|     708 | 0xBB72      |       47986 |
|     709 | 0x2DE3      |       11747 |
|     710 | 0x2DE4      |       11748 |
|     711 | 0x2DE5      |       11749 |
|     712 | 0x2DE6      |       11750 |
|     713 | 0x2DE7      |       11751 |
|     714 | 0x2DE8      |       11752 |
|     715 | 0x2DE9      |       11753 |
|     716 | 0x2DEA      |       11754 |
|     717 | 0x2DEB      |       11755 |
|     718 | 0x2DEC      |       11756 |
|     719 | 0x00BE      |         190 |
|     720 | 0x2DED      |       11757 |
|     721 | 0x2DEE      |       11758 |
|     722 | 0x2DEF      |       11759 |
|     723 | 0x2DF0      |       11760 |
|     724 | 0x2DF1      |       11761 |
|     725 | 0x2DF2      |       11762 |
|     726 | 0x2DF3      |       11763 |
|     727 | 0x2DF4      |       11764 |
|     728 | 0x2DF5      |       11765 |
|     729 | 0x2DF8      |       11768 |
|     730 | 0x2DF9      |       11769 |
|     731 | 0x2DFA      |       11770 |
|     732 | 0x2DFB      |       11771 |
|     733 | 0xFFF7540F  |  4294398991 |
|     734 | 0x7A81      |       31361 |
|     735 | 0xFFF6E6DD  |  4294371037 |
|     736 | 0xBC23      |       48163 |
|     737 | 0xFFF74F28  |  4294397736 |
|     738 | 0x9FAD      |       40877 |
|     739 | 0xFFF74EC4  |  4294397636 |
|     740 | 0x964D      |       38477 |
|     741 | 0x0872      |        2162 |
|     742 | 0x2DFC      |       11772 |
|     743 | 0x0018      |          24 |
|     744 | 0x2DFD      |       11773 |
|     745 | 0x2DFE      |       11774 |
|     746 | 0x2DFF      |       11775 |
|     747 | 0x2E00      |       11776 |
|     748 | 0x2E01      |       11777 |
|     749 | 0x2E02      |       11778 |
|     750 | 0x2E03      |       11779 |
|     751 | 0x2E04      |       11780 |
|     752 | 0x2E05      |       11781 |
|     753 | 0x2E06      |       11782 |
|     754 | 0x2E07      |       11783 |
|     755 | 0x2E08      |       11784 |
|     756 | 0x2E09      |       11785 |
|     757 | 0x2E0A      |       11786 |
|     758 | 0x2E0B      |       11787 |
|     759 | 0x2E0C      |       11788 |
|     760 | 0x2E0D      |       11789 |
|     761 | 0x2E0E      |       11790 |
|     762 | 0x2E0F      |       11791 |
|     763 | 0x2E10      |       11792 |
|     764 | 0x2E11      |       11793 |
|     765 | 0x2E12      |       11794 |
|     766 | 0x2E13      |       11795 |
|     767 | 0x2E14      |       11796 |
|     768 | 0x2E15      |       11797 |
|     769 | 0x2E16      |       11798 |
|     770 | 0x2E17      |       11799 |
|     771 | 0x2E18      |       11800 |
|     772 | 0x2E19      |       11801 |
|     773 | 0x2E1A      |       11802 |
|     774 | 0x2E1B      |       11803 |
|     775 | 0x2E1C      |       11804 |
|     776 | 0x2E1D      |       11805 |
|     777 | 0x2E1E      |       11806 |
|     778 | 0x2E1F      |       11807 |
|     779 | 0x2E20      |       11808 |
|     780 | 0x2E35      |       11829 |
|     781 | 0x2E36      |       11830 |
|     782 | 0x2E21      |       11809 |
|     783 | 0x2E22      |       11810 |
|     784 | 0x2E23      |       11811 |
|     785 | 0x2E24      |       11812 |
|     786 | 0x2E25      |       11813 |
|     787 | 0x2E26      |       11814 |
|     788 | 0x2E27      |       11815 |
|     789 | 0x2E28      |       11816 |
|     790 | 0x2E29      |       11817 |
|     791 | 0x2E2A      |       11818 |
|     792 | 0x2E2B      |       11819 |
|     793 | 0x2E2C      |       11820 |
|     794 | 0x2E2D      |       11821 |
|     795 | 0x2E2E      |       11822 |
|     796 | 0x2E2F      |       11823 |
|     797 | 0x2E30      |       11824 |
|     798 | 0x2E31      |       11825 |
|     799 | 0x2E32      |       11826 |
|     800 | 0x2E33      |       11827 |
|     801 | 0x2E34      |       11828 |
|     802 | 0x2E37      |       11831 |
|     803 | 0x2E38      |       11832 |
|     804 | 0x2E39      |       11833 |
|     805 | 0x2E3A      |       11834 |
|     806 | 0x0092      |         146 |
|     807 | 0xFFF74F36  |  4294397750 |
|     808 | 0x9B0B      |       39691 |
|     809 | 0xFFF74675  |  4294395509 |
|     810 | 0xA172      |       41330 |
|     811 | 0xFFF74521  |  4294395169 |
|     812 | 0x9AB6      |       39606 |
|     813 | 0xFFF74843  |  4294395971 |
|     814 | 0x92C4      |       37572 |
|     815 | 0xFFF74C3E  |  4294396990 |
|     816 | 0x8FCE      |       36814 |
|     817 | 0x2E3B      |       11835 |
|     818 | 0x2E3C      |       11836 |
|     819 | 0x2E3E      |       11838 |
|     820 | 0x2E3F      |       11839 |
|     821 | 0x2E40      |       11840 |
|     822 | 0x2E41      |       11841 |
|     823 | 0x2E42      |       11842 |
|     824 | 0x2E43      |       11843 |
|     825 | 0x2E44      |       11844 |
|     826 | 0x2E45      |       11845 |
|     827 | 0x2E46      |       11846 |
|     828 | 0x2E47      |       11847 |
|     829 | 0x2E48      |       11848 |
|     830 | 0x2E49      |       11849 |
|     831 | 0x2E4A      |       11850 |
|     832 | 0x2E4B      |       11851 |
|     833 | 0x2E4C      |       11852 |
|     834 | 0x2E4D      |       11853 |
|     835 | 0x2E4E      |       11854 |
|     836 | 0x2E4F      |       11855 |
|     837 | 0x2E50      |       11856 |
|     838 | 0x2E51      |       11857 |
|     839 | 0x2E52      |       11858 |
|     840 | 0x2E53      |       11859 |
|     841 | 0x2E54      |       11860 |
|     842 | 0x2E55      |       11861 |
|     843 | 0x2E56      |       11862 |
|     844 | 0x2E57      |       11863 |
|     845 | 0x2E58      |       11864 |
|     846 | 0x2E59      |       11865 |
|     847 | 0x2E5A      |       11866 |
|     848 | 0x2E5B      |       11867 |
|     849 | 0x2E5C      |       11868 |
|     850 | 0x2E5D      |       11869 |
|     851 | 0x2E5E      |       11870 |
|     852 | 0x2E5F      |       11871 |
|     853 | 0x2E60      |       11872 |
|     854 | 0x2E62      |       11874 |
|     855 | 0x2E63      |       11875 |
|     856 | 0x2E64      |       11876 |
|     857 | 0x2E65      |       11877 |
|     858 | 0x2E66      |       11878 |
|     859 | 0x2E67      |       11879 |
|     860 | 0xFFF74F65  |  4294397797 |
|     861 | 0xA7B0      |       42928 |
|     862 | 0x0FE9      |        4073 |
|     863 | 0x2E68      |       11880 |
|     864 | 0x2E69      |       11881 |
|     865 | 0x2E6A      |       11882 |
|     866 | 0x2E6B      |       11883 |
|     867 | 0x2E6C      |       11884 |
|     868 | 0x2E6D      |       11885 |
|     869 | 0x2E6E      |       11886 |
|     870 | 0x2E6F      |       11887 |
|     871 | 0x2E70      |       11888 |
|     872 | 0x2E71      |       11889 |
|     873 | 0x2E72      |       11890 |
|     874 | 0x2E73      |       11891 |
|     875 | 0x2E74      |       11892 |
|     876 | 0x2E75      |       11893 |
|     877 | 0x2E76      |       11894 |
|     878 | 0x2E77      |       11895 |
|     879 | 0x2E78      |       11896 |
|     880 | 0x2E79      |       11897 |
|     881 | 0x2E7A      |       11898 |
|     882 | 0x2E7B      |       11899 |
|     883 | 0x2E7C      |       11900 |
|     884 | 0x2E7D      |       11901 |
|     885 | 0x2E7E      |       11902 |
|     886 | 0x2E7F      |       11903 |
|     887 | 0x2E80      |       11904 |
|     888 | 0x2E83      |       11907 |
|     889 | 0x2E84      |       11908 |
|     890 | 0x2E85      |       11909 |
|     891 | 0x2E86      |       11910 |
|     892 | 0x2E87      |       11911 |
|     893 | 0x2E88      |       11912 |
|     894 | 0x2E89      |       11913 |
|     895 | 0x2E8A      |       11914 |
|     896 | 0x2E8B      |       11915 |
|     897 | 0x2E8C      |       11916 |
|     898 | 0x2E8D      |       11917 |
|     899 | 0x2E8E      |       11918 |
|     900 | 0x2E8F      |       11919 |
|     901 | 0x2E90      |       11920 |
|     902 | 0x2E92      |       11922 |
|     903 | 0x2E93      |       11923 |
|     904 | 0x2E94      |       11924 |
|     905 | 0x0022      |          34 |
|     906 | 0x2E95      |       11925 |
|     907 | 0x2E96      |       11926 |
|     908 | 0x2E97      |       11927 |
|     909 | 0x2E98      |       11928 |
|     910 | 0x2E99      |       11929 |
|     911 | 0x2E9A      |       11930 |
|     912 | 0x2E9B      |       11931 |
|     913 | 0x2E9C      |       11932 |
|     914 | 0x2E9D      |       11933 |
|     915 | 0x2E9E      |       11934 |
|     916 | 0x2E9F      |       11935 |
|     917 | 0x2EA0      |       11936 |
|     918 | 0x2EA1      |       11937 |
|     919 | 0x2EA2      |       11938 |
|     920 | 0x2EA3      |       11939 |
|     921 | 0x2EA4      |       11940 |
|     922 | 0x2EA5      |       11941 |
|     923 | 0x2EA6      |       11942 |
|     924 | 0x0237      |         567 |
|     925 | 0xFFFED79D  |  4294891421 |
|     926 | 0x1E911     |      125201 |
|     927 | 0xFFFFE890  |  4294961296 |
|     928 | 0x00D7      |         215 |
|     929 | 0x2EA7      |       11943 |
|     930 | 0x2EA8      |       11944 |
|     931 | 0x2EA9      |       11945 |
|     932 | 0x2EAA      |       11946 |
|     933 | 0x2EAB      |       11947 |
|     934 | 0x2EAC      |       11948 |
|     935 | 0x2EAD      |       11949 |
|     936 | 0x2EAE      |       11950 |
|     937 | 0x2EAF      |       11951 |
|     938 | 0x2EB0      |       11952 |
|     939 | 0x2EB1      |       11953 |
|     940 | 0x2EB3      |       11955 |
|     941 | 0x2EB4      |       11956 |
|     942 | 0x2EB5      |       11957 |
|     943 | 0x2EB6      |       11958 |
|     944 | 0x2EB8      |       11960 |
|     945 | 0x2EB9      |       11961 |
|     946 | 0x2EBA      |       11962 |
|     947 | 0x2EBB      |       11963 |
|     948 | 0x2EBC      |       11964 |
|     949 | 0x2EBD      |       11965 |
|     950 | 0x2EBE      |       11966 |
|     951 | 0x2EBF      |       11967 |
|     952 | 0x2EC0      |       11968 |
|     953 | 0x2EC2      |       11970 |
|     954 | 0x2EC3      |       11971 |
|     955 | 0x2EC4      |       11972 |
|     956 | 0x2EC5      |       11973 |
|     957 | 0x2EC6      |       11974 |
|     958 | 0x2EC8      |       11976 |
|     959 | 0x2EC9      |       11977 |
|     960 | 0x2ECA      |       11978 |
|     961 | 0x2ECB      |       11979 |
|     962 | 0x2ECD      |       11981 |
|     963 | 0xFFF740B4  |  4294394036 |
|     964 | 0x8822      |       34850 |
|     965 | 0x0E0F      |        3599 |
|     966 | 0x2ECE      |       11982 |
|     967 | 0x2ECF      |       11983 |
|     968 | 0x2ED0      |       11984 |
|     969 | 0x2ED1      |       11985 |
|     970 | 0x2ED2      |       11986 |
|     971 | 0x2ED4      |       11988 |
|     972 | 0x2ED5      |       11989 |
|     973 | 0x2ED6      |       11990 |
|     974 | 0xFFF78498  |  4294411416 |
|     975 | 0xFFF78510  |  4294411536 |
|     976 | 0xA8AF      |       43183 |
|     977 | 0x2ED7      |       11991 |
|     978 | 0x2ED8      |       11992 |
|     979 | 0x2ED9      |       11993 |
|     980 | 0x2EDA      |       11994 |
|     981 | 0x2EDB      |       11995 |
|     982 | 0x2EDC      |       11996 |
|     983 | 0x2EDD      |       11997 |
|     984 | 0x2EDE      |       11998 |
|     985 | 0x2EDF      |       11999 |
|     986 | 0x0129      |         297 |
|     987 | 0x2EE0      |       12000 |
|     988 | 0x2EE1      |       12001 |
|     989 | 0x2EE2      |       12002 |
|     990 | 0x2EE3      |       12003 |
|     991 | 0xFFF76432  |  4294403122 |
|     992 | 0xA1DB      |       41435 |
|     993 | 0xFFF764E2  |  4294403298 |
|     994 | 0x9B73      |       39795 |
|     995 | 0xFFF76554  |  4294403412 |
|     996 | 0x9616      |       38422 |
|     997 | 0x2EE4      |       12004 |
|     998 | 0x2EE5      |       12005 |
|     999 | 0x2EE6      |       12006 |
|    1000 | 0x2EE7      |       12007 |
|    1001 | 0x2EE8      |       12008 |
|    1002 | 0x2EE9      |       12009 |
|    1003 | 0x2EEA      |       12010 |
|    1004 | 0x2EEB      |       12011 |
|    1005 | 0x2EEC      |       12012 |
|    1006 | 0x2EED      |       12013 |
|    1007 | 0x2EEE      |       12014 |
|    1008 | 0x2EEF      |       12015 |
|    1009 | 0x2EF0      |       12016 |
|    1010 | 0x2EF1      |       12017 |
|    1011 | 0x2EF2      |       12018 |
|    1012 | 0x2EF3      |       12019 |
|    1013 | 0x2EF4      |       12020 |
|    1014 | 0x2EF5      |       12021 |
|    1015 | 0x2EF6      |       12022 |
|    1016 | 0x2EF7      |       12023 |
|    1017 | 0x0095      |         149 |
|    1018 | 0xFFF75E50  |  4294401616 |
|    1019 | 0x9C78      |       40056 |
|    1020 | 0x03D3      |         979 |
|    1021 | 0xFFF757F2  |  4294399986 |
|    1022 | 0x96F9      |       38649 |
|    1023 | 0xFFF75B02  |  4294400770 |
|    1024 | 0x91FD      |       37373 |
|    1025 | 0x2EF8      |       12024 |
|    1026 | 0x2EF9      |       12025 |
|    1027 | 0x2EFA      |       12026 |
|    1028 | 0x2EFB      |       12027 |
|    1029 | 0x2EFC      |       12028 |
|    1030 | 0xFFF788DE  |  4294412510 |
|    1031 | 0x9463      |       37987 |
|    1032 | 0x0406      |        1030 |
|    1033 | 0xFFF788F8  |  4294412536 |
|    1034 | 0x8D71      |       36209 |
|    1035 | 0x2EFD      |       12029 |
|    1036 | 0x2EFE      |       12030 |
|    1037 | 0x2EFF      |       12031 |
|    1038 | 0x2F00      |       12032 |
|    1039 | 0x2F01      |       12033 |
|    1040 | 0x2F02      |       12034 |
|    1041 | 0x2F03      |       12035 |
|    1042 | 0xFFF7607E  |  4294402174 |
|    1043 | 0x9966      |       39270 |
|    1044 | 0xFFF75948  |  4294400328 |
|    1045 | 0xA3A8      |       41896 |
|    1046 | 0x2F04      |       12036 |
|    1047 | 0x2F05      |       12037 |
|    1048 | 0x2F06      |       12038 |
|    1049 | 0x2F07      |       12039 |
|    1050 | 0x2F08      |       12040 |
|    1051 | 0x2F09      |       12041 |
|    1052 | 0x2F0A      |       12042 |
|    1053 | 0x2F0B      |       12043 |
|    1054 | 0xFFF75BD8  |  4294400984 |
|    1055 | 0x8E53      |       36435 |
|    1056 | 0x0A71      |        2673 |
|    1057 | 0xFFF75764  |  4294399844 |
|    1058 | 0x92B2      |       37554 |
|    1059 | 0x2F0D      |       12045 |
|    1060 | 0x2F0E      |       12046 |
|    1061 | 0x2F0F      |       12047 |
|    1062 | 0x2F10      |       12048 |
|    1063 | 0x2F11      |       12049 |
|    1064 | 0x2F12      |       12050 |
|    1065 | 0x2F13      |       12051 |
|    1066 | 0x2F14      |       12052 |
|    1067 | 0x2F15      |       12053 |
|    1068 | 0x2F16      |       12054 |
|    1069 | 0xFFF75972  |  4294400370 |
|    1070 | 0x9DAF      |       40367 |
|    1071 | 0x094C      |        2380 |
|    1072 | 0xFFF75D6E  |  4294401390 |
|    1073 | 0xA65A      |       42586 |
|    1074 | 0x0503      |        1283 |
|    1075 | 0x2F17      |       12055 |
|    1076 | 0x2F18      |       12056 |
|    1077 | 0x2F19      |       12057 |
|    1078 | 0x2F1A      |       12058 |
|    1079 | 0x00C9      |         201 |
|    1080 | 0x2CD5      |       11477 |
|    1081 | 0x2CD6      |       11478 |
|    1082 | 0x2D4A      |       11594 |
|    1083 | 0x2D4B      |       11595 |
|    1084 | 0x2D4C      |       11596 |
|    1085 | 0x2D4D      |       11597 |
|    1086 | 0x2DF6      |       11766 |
|    1087 | 0x2DF7      |       11767 |

## Events

### Event 65535

#### Metadata

| Field        | Value   |
|--------------|---------|
| Entrypoint   | 0x0000  |
| Data Size    | 1 bytes |
| Instructions | 1       |

```
      00 01 02 03 04 05 06 07  08 09 0A 0B 0C 0D 0E 0F
      -- -- -- -- -- -- -- --  -- -- -- -- -- -- -- --
0000: 00                                                .               
```

#### Opcodes

```
  0: 0x0000 [0x00] END_REQSTACK()
```

### Event 5071

#### Metadata

| Field        | Value      |
|--------------|------------|
| Entrypoint   | 0x0001     |
| Data Size    | 5510 bytes |
| Instructions | 666        |

```
      00 01 02 03 04 05 06 07  08 09 0A 0B 0C 0D 0E 0F
      -- -- -- -- -- -- -- --  -- -- -- -- -- -- -- --
0000:    42 1A B9 BB 46 01 38  00 80 75 00 01 80 75 01   B...F.8..u...u.
0010: 92 01 8C 20 03 01 92 01  8D 20 03 01 92 01 D3 20  ... ..... ..... 
0020: 03 01 79 00 F0 FF FF 7F  F0 FF FF 7F 94 01 F0 FF  ..y.............
0030: FF 7F 94 01 8C 20 03 01  94 01 8D 20 03 01 94 01  ..... ..... ....
0040: D3 20 03 01 29 10 8C 20  03 01 04 4E 01 F0 FF FF  . ..).. ...N....
0050: 7F 4E 00 8C 20 03 01 4E  00 8D 20 03 01 4E 00 D3  .N.. ..N.. ..N..
0060: 20 03 01 1C 02 80 5D 03  80 04 80 1C 05 80 5C 00   .....].......\.
0070: 06 80 5C 01 06 80 9A 5D  07 80 08 80 1C 05 80 BA  ..\....]........
0080: F0 FF FF 7F 09 80 0A 80  0B 80 0C 80 BA 0B 22 03  ..............".
0090: 01 09 80 0A 80 0B 80 0C  80 BA 8C 20 03 01 0D 80  ........... ....
00A0: 0E 80 0B 80 03 80 BA 8D  20 03 01 0F 80 10 80 0B  ........ .......
00B0: 80 11 80 BA D3 20 03 01  12 80 13 80 0B 80 14 80  ..... ..........
00C0: 4A 8C 20 03 01 D3 20 03  01 7B 8C 20 03 01 4A D3  J. ... ..{. ..J.
00D0: 20 03 01 8C 20 03 01 4A  8D 20 03 01 D3 20 03 01   ... ..J. ... ..
00E0: 80 F0 FF FF 7F 80 8C 20  03 01 80 8D 20 03 01 80  ....... .... ...
00F0: D3 20 03 01 1A DA BB 45  15 80 F8 FF FF 7F F8 FF  . .....E........
0100: FF 7F 73 30 30 30 03 80  6E D3 20 03 01 16 80 99  ..s000..n. .....
0110: D3 20 03 01 2B D3 20 03  01 17 80 23 52 15 80 F8  . ..+. ....#R...
0120: FF FF 7F F8 FF FF 7F 73  30 30 30 45 15 80 F8 FF  .......s000E....
0130: FF 7F F8 FF FF 7F 73 30  30 31 03 80 81 00 8C 20  ......s001..... 
0140: 03 01 5B 18 80 8C 20 03  01 8C 20 03 01 74 6C 64  ..[... ... ..tld
0150: 30 2B 8C 20 03 01 19 80  23 52 15 80 F8 FF FF 7F  0+. ....#R......
0160: F8 FF FF 7F 73 30 30 31  45 15 80 F8 FF FF 7F F8  ....s001E.......
0170: FF FF 7F 73 30 30 32 03  80 2B D3 20 03 01 1A 80  ...s002..+. ....
0180: 23 52 15 80 F8 FF FF 7F  F8 FF FF 7F 73 30 30 32  #R..........s002
0190: 45 1B 80 F8 FF FF 7F F8  FF FF 7F 73 30 39 35 03  E..........s095.
01A0: 80 2B 8C 20 03 01 1C 80  23 52 1B 80 F8 FF FF 7F  .+. ....#R......
01B0: F8 FF FF 7F 73 30 39 35  45 1B 80 F8 FF FF 7F F8  ....s095E.......
01C0: FF FF 7F 73 30 39 36 03  80 2B D3 20 03 01 1D 80  ...s096..+. ....
01D0: 23 52 1B 80 F8 FF FF 7F  F8 FF FF 7F 73 30 39 36  #R..........s096
01E0: 45 15 80 F8 FF FF 7F F8  FF FF 7F 73 30 30 33 03  E..........s003.
01F0: 80 5B 18 80 8C 20 03 01  8C 20 03 01 74 6C 64 31  .[... ... ..tld1
0200: 81 01 8C 20 03 01 2B 8C  20 03 01 1E 80 23 2B 8C  ... ..+. ....#+.
0210: 20 03 01 1F 80 23 52 15  80 F8 FF FF 7F F8 FF FF   ....#R.........
0220: 7F 73 30 30 33 45 15 80  F8 FF FF 7F F8 FF FF 7F  .s003E..........
0230: 73 30 30 35 03 80 6E D3  20 03 01 20 80 99 D3 20  s005..n. .. ... 
0240: 03 01 2B D3 20 03 01 21  80 23 55 15 80 F8 FF FF  ..+. ..!.#U.....
0250: 7F F8 FF FF 7F 73 30 30  35 45 15 80 F8 FF FF 7F  .....s005E......
0260: F8 FF FF 7F 73 30 30 34  03 80 5B 22 80 8C 20 03  ....s004..[".. .
0270: 01 8C 20 03 01 70 6E 62  30 2B 8C 20 03 01 23 80  .. ..pnb0+. ..#.
0280: 23 52 15 80 F8 FF FF 7F  F8 FF FF 7F 73 30 30 34  #R..........s004
0290: 45 15 80 F8 FF FF 7F F8  FF FF 7F 73 30 30 37 03  E..........s007.
02A0: 80 6E 8D 20 03 01 24 80  99 8D 20 03 01 2B 8D 20  .n. ..$... ..+. 
02B0: 03 01 25 80 23 5B 22 80  8C 20 03 01 8C 20 03 01  ..%.#[".. ... ..
02C0: 70 6E 62 31 52 15 80 F8  FF FF 7F F8 FF FF 7F 73  pnb1R..........s
02D0: 30 30 37 45 15 80 F8 FF  FF 7F F8 FF FF 7F 73 30  007E..........s0
02E0: 30 38 03 80 2B D3 20 03  01 26 80 23 52 15 80 F8  08..+. ..&.#R...
02F0: FF FF 7F F8 FF FF 7F 73  30 30 38 45 1B 80 F8 FF  .......s008E....
0300: FF 7F F8 FF FF 7F 73 30  39 37 03 80 2B D3 20 03  ......s097..+. .
0310: 01 27 80 23 52 1B 80 F8  FF FF 7F F8 FF FF 7F 73  .'.#R..........s
0320: 30 39 37 45 15 80 F8 FF  FF 7F F8 FF FF 7F 73 30  097E..........s0
0330: 31 30 03 80 1C 05 80 81  00 8C 20 03 01 5B 28 80  10........ ..[(.
0340: 8C 20 03 01 8C 20 03 01  61 67 72 30 2B 8C 20 03  . ... ..agr0+. .
0350: 01 29 80 23 52 15 80 F8  FF FF 7F F8 FF FF 7F 73  .).#R..........s
0360: 30 31 30 45 15 80 F8 FF  FF 7F F8 FF FF 7F 73 30  010E..........s0
0370: 31 31 03 80 6E D3 20 03  01 24 80 99 D3 20 03 01  11..n. ..$... ..
0380: 2B D3 20 03 01 2A 80 23  52 15 80 F8 FF FF 7F F8  +. ..*.#R.......
0390: FF FF 7F 73 30 31 31 45  15 80 F8 FF FF 7F F8 FF  ...s011E........
03A0: FF 7F 73 30 31 32 03 80  7C 01 8C 20 03 01 5B 28  ..s012..|.. ..[(
03B0: 80 8C 20 03 01 8C 20 03  01 61 67 62 30 2B 8C 20  .. ... ..agb0+. 
03C0: 03 01 2B 80 23 52 15 80  F8 FF FF 7F F8 FF FF 7F  ..+.#R..........
03D0: 73 30 31 32 45 15 80 F8  FF FF 7F F8 FF FF 7F 73  s012E..........s
03E0: 30 31 33 03 80 6E D3 20  03 01 2C 80 99 D3 20 03  013..n. ..,... .
03F0: 01 2B D3 20 03 01 2D 80  23 52 15 80 F8 FF FF 7F  .+. ..-.#R......
0400: F8 FF FF 7F 73 30 31 33  45 15 80 F8 FF FF 7F F8  ....s013E.......
0410: FF FF 7F 73 30 31 34 03  80 2B 8C 20 03 01 2E 80  ...s014..+. ....
0420: 23 52 15 80 F8 FF FF 7F  F8 FF FF 7F 73 30 31 34  #R..........s014
0430: 45 15 80 F8 FF FF 7F F8  FF FF 7F 73 30 31 35 03  E..........s015.
0440: 80 6E 8D 20 03 01 2F 80  99 8D 20 03 01 4A D3 20  .n. ../... ..J. 
0450: 03 01 8D 20 03 01 2B 8D  20 03 01 30 80 23 6F 70  ... ..+. ..0.#op
0460: 52 15 80 F8 FF FF 7F F8  FF FF 7F 73 30 31 35 45  R..........s015E
0470: 15 80 F8 FF FF 7F F8 FF  FF 7F 73 30 31 36 03 80  ..........s016..
0480: 4A D3 20 03 01 8C 20 03  01 6F 70 2B D3 20 03 01  J. ... ..op+. ..
0490: 31 80 1C 32 80 52 15 80  F8 FF FF 7F F8 FF FF 7F  1..2.R..........
04A0: 73 30 31 36 45 15 80 F8  FF FF 7F F8 FF FF 7F 73  s016E..........s
04B0: 30 31 37 03 80 1C 33 80  2B D3 20 03 01 34 80 1C  017...3.+. ..4..
04C0: 32 80 52 15 80 F8 FF FF  7F F8 FF FF 7F 73 30 31  2.R..........s01
04D0: 37 45 15 80 F8 FF FF 7F  F8 FF FF 7F 73 30 31 38  7E..........s018
04E0: 03 80 4A D3 20 03 01 8D  20 03 01 6F 70 1C 33 80  ..J. ... ..op.3.
04F0: 2B D3 20 03 01 35 80 1C  36 80 52 15 80 F8 FF FF  +. ..5..6.R.....
0500: 7F F8 FF FF 7F 73 30 31  38 45 15 80 F8 FF FF 7F  .....s018E......
0510: F8 FF FF 7F 73 30 31 39  03 80 4A D3 20 03 01 8C  ....s019..J. ...
0520: 20 03 01 55 15 80 F8 FF  FF 7F F8 FF FF 7F 73 30   ..U..........s0
0530: 31 39 45 15 80 F8 FF FF  7F F8 FF FF 7F 73 30 32  19E..........s02
0540: 30 03 80 1C 05 80 27 0F  D3 20 03 01 59 2B D3 20  0.....'.. ..Y+. 
0550: 03 01 37 80 23 55 15 80  F8 FF FF 7F F8 FF FF 7F  ..7.#U..........
0560: 73 30 32 30 81 00 8C 20  03 01 7C 00 8C 20 03 01  s020... ..|.. ..
0570: 5B 28 80 8C 20 03 01 8C  20 03 01 61 67 72 31 45  [(.. ... ..agr1E
0580: 15 80 F8 FF FF 7F F8 FF  FF 7F 73 30 32 31 03 80  ..........s021..
0590: 2B 8C 20 03 01 38 80 23  4A 8D 20 03 01 8C 20 03  +. ..8.#J. ... .
05A0: 01 2B 8D 20 03 01 39 80  23 52 15 80 F8 FF FF 7F  .+. ..9.#R......
05B0: F8 FF FF 7F 73 30 32 31  45 15 80 F8 FF FF 7F F8  ....s021E.......
05C0: FF FF 7F 73 30 32 32 03  80 5B 18 80 8C 20 03 01  ...s022..[... ..
05D0: 8C 20 03 01 74 6C 64 30  2B 8C 20 03 01 3A 80 23  . ..tld0+. ..:.#
05E0: 6E 8D 20 03 01 3B 80 99  8D 20 03 01 4E 00 F0 FF  n. ..;... ..N...
05F0: FF 7F 2B 8D 20 03 01 3C  80 23 52 15 80 F8 FF FF  ..+. ..<.#R.....
0600: 7F F8 FF FF 7F 73 30 32  32 45 15 80 F8 FF FF 7F  .....s022E......
0610: F8 FF FF 7F 73 30 32 34  03 80 29 0F 0B 22 03 01  ....s024..).."..
0620: 1A 2B 8D 20 03 01 3D 80  23 4A 8D 20 03 01 F0 FF  .+. ..=.#J. ....
0630: FF 7F 6F 70 1C 36 80 5B  18 80 8C 20 03 01 8C 20  ..op.6.[... ... 
0640: 03 01 74 6C 64 31 81 01  8C 20 03 01 7C 01 8C 20  ..tld1... ..|.. 
0650: 03 01 55 15 80 F8 FF FF  7F F8 FF FF 7F 73 30 32  ..U..........s02
0660: 34 45 15 80 F8 FF FF 7F  F8 FF FF 7F 73 30 32 35  4E..........s025
0670: 03 80 4A 8D 20 03 01 F0  FF FF 7F 6F 70 6E 8D 20  ..J. ......opn. 
0680: 03 01 24 80 99 8D 20 03  01 2B 8D 20 03 01 3E 80  ..$... ..+. ..>.
0690: 23 52 15 80 F8 FF FF 7F  F8 FF FF 7F 73 30 32 35  #R..........s025
06A0: 45 15 80 F8 FF FF 7F F8  FF FF 7F 73 30 30 36 03  E..........s006.
06B0: 80 2B 8C 20 03 01 3F 80  23 52 15 80 F8 FF FF 7F  .+. ..?.#R......
06C0: F8 FF FF 7F 73 30 30 36  45 1B 80 F8 FF FF 7F F8  ....s006E.......
06D0: FF FF 7F 73 30 39 38 03  80 2B 8C 20 03 01 40 80  ...s098..+. ..@.
06E0: 23 52 1B 80 F8 FF FF 7F  F8 FF FF 7F 73 30 39 38  #R..........s098
06F0: 45 1B 80 F8 FF FF 7F F8  FF FF 7F 73 30 39 39 03  E..........s099.
0700: 80 4A 8D 20 03 01 8C 20  03 01 2B 8D 20 03 01 41  .J. ... ..+. ..A
0710: 80 23 52 1B 80 F8 FF FF  7F F8 FF FF 7F 73 30 39  .#R..........s09
0720: 39 45 1B 80 F8 FF FF 7F  F8 FF FF 7F 73 31 30 30  9E..........s100
0730: 03 80 4A 8C 20 03 01 8D  20 03 01 6F 70 7B 8C 20  ..J. ... ..op{. 
0740: 03 01 5B 22 80 8C 20 03  01 8C 20 03 01 70 6E 62  ..[".. ... ..pnb
0750: 30 2B 8C 20 03 01 42 80  23 5B 22 80 8C 20 03 01  0+. ..B.#[".. ..
0760: 8C 20 03 01 70 6E 62 31  52 1B 80 F8 FF FF 7F F8  . ..pnb1R.......
0770: FF FF 7F 73 31 30 30 45  1B 80 F8 FF FF 7F F8 FF  ...s100E........
0780: FF 7F 73 31 30 31 03 80  6E 8D 20 03 01 3B 80 99  ..s101..n. ..;..
0790: 8D 20 03 01 2B 8D 20 03  01 43 80 23 4A 8D 20 03  . ..+. ..C.#J. .
07A0: 01 F0 FF FF 7F 52 1B 80  F8 FF FF 7F F8 FF FF 7F  .....R..........
07B0: 73 31 30 31 45 1B 80 F8  FF FF 7F F8 FF FF 7F 73  s101E..........s
07C0: 31 30 32 03 80 4A 8D 20  03 01 F0 FF FF 7F 6F 70  102..J. ......op
07D0: 6E 8D 20 03 01 44 80 99  8D 20 03 01 2B 8D 20 03  n. ..D... ..+. .
07E0: 01 45 80 23 52 1B 80 F8  FF FF 7F F8 FF FF 7F 73  .E.#R..........s
07F0: 31 30 32 45 1B 80 F8 FF  FF 7F F8 FF FF 7F 73 31  102E..........s1
0800: 30 33 03 80 4A 8C 20 03  01 F0 FF FF 7F 6F 70 7B  03..J. ......op{
0810: 8C 20 03 01 2B 8D 20 03  01 46 80 23 52 1B 80 F8  . ..+. ..F.#R...
0820: FF FF 7F F8 FF FF 7F 73  31 30 33 45 1B 80 F8 FF  .......s103E....
0830: FF 7F F8 FF FF 7F 73 31  30 34 03 80 2B 8C 20 03  ......s104..+. .
0840: 01 47 80 23 52 1B 80 F8  FF FF 7F F8 FF FF 7F 73  .G.#R..........s
0850: 31 30 34 45 1B 80 F8 FF  FF 7F F8 FF FF 7F 73 31  104E..........s1
0860: 30 35 03 80 2B 8C 20 03  01 48 80 23 52 1B 80 F8  05..+. ..H.#R...
0870: FF FF 7F F8 FF FF 7F 73  31 30 35 45 15 80 F8 FF  .......s105E....
0880: FF 7F F8 FF FF 7F 73 30  32 36 03 80 81 00 8C 20  ......s026..... 
0890: 03 01 5B 18 80 8C 20 03  01 8C 20 03 01 74 6C 64  ..[... ... ..tld
08A0: 30 2B 8C 20 03 01 49 80  23 52 15 80 F8 FF FF 7F  0+. ..I.#R......
08B0: F8 FF FF 7F 73 30 32 36  45 1B 80 F8 FF FF 7F F8  ....s026E.......
08C0: FF FF 7F 73 31 30 36 03  80 4A 8D 20 03 01 8C 20  ...s106..J. ... 
08D0: 03 01 6F 70 6E 8D 20 03  01 24 80 99 8D 20 03 01  ..opn. ..$... ..
08E0: 2B 8D 20 03 01 4A 80 23  52 1B 80 F8 FF FF 7F F8  +. ..J.#R.......
08F0: FF FF 7F 73 31 30 36 45  1B 80 F8 FF FF 7F F8 FF  ...s106E........
0900: FF 7F 73 31 30 37 03 80  4A 8D 20 03 01 F0 FF FF  ..s107..J. .....
0910: 7F 6F 70 2B 8D 20 03 01  4B 80 23 52 1B 80 F8 FF  .op+. ..K.#R....
0920: FF 7F F8 FF FF 7F 73 31  30 37 45 15 80 F8 FF FF  ......s107E.....
0930: 7F F8 FF FF 7F 73 30 32  37 03 80 2B 8C 20 03 01  .....s027..+. ..
0940: 4C 80 23 24 4D 80 03 80  03 80 25 02 00 10 03 80  L.#$M.....%.....
0950: 00 F0 09 6E F0 FF FF 7F  4E 80 99 F0 FF FF 7F 1C  ...n....N.......
0960: 32 80 52 15 80 F8 FF FF  7F F8 FF FF 7F 73 30 32  2.R..........s02
0970: 37 45 15 80 F8 FF FF 7F  F8 FF FF 7F 73 30 32 38  7E..........s028
0980: 03 80 5B 18 80 8C 20 03  01 8C 20 03 01 74 6C 64  ..[... ... ..tld
0990: 31 81 01 8C 20 03 01 1C  32 80 81 00 8C 20 03 01  1... ...2.... ..
09A0: 5B 4F 80 8C 20 03 01 8C  20 03 01 68 61 70 30 2B  [O.. ... ..hap0+
09B0: 8C 20 03 01 50 80 23 5B  18 80 8C 20 03 01 8C 20  . ..P.#[... ... 
09C0: 03 01 6C 6F 76 6C 81 01  8C 20 03 01 5B 4F 80 8C  ..lovl... ..[O..
09D0: 20 03 01 8C 20 03 01 68  61 70 72 1C 51 80 52 15   ... ..hapr.Q.R.
09E0: 80 F8 FF FF 7F F8 FF FF  7F 73 30 32 38 01 77 0A  .........s028.w.
09F0: 02 00 10 08 80 00 77 0A  6E F0 FF FF 7F 20 80 99  ......w.n.... ..
0A00: F0 FF FF 7F 5B 18 80 8C  20 03 01 8C 20 03 01 74  ....[... ... ..t
0A10: 6C 64 31 81 01 8C 20 03  01 1C 52 80 52 15 80 F8  ld1... ...R.R...
0A20: FF FF 7F F8 FF FF 7F 73  30 32 37 45 15 80 F8 FF  .......s027E....
0A30: FF 7F F8 FF FF 7F 73 30  32 39 03 80 5B 18 80 8C  ......s029..[...
0A40: 20 03 01 8C 20 03 01 74  6C 63 30 2B 8C 20 03 01   ... ..tlc0+. ..
0A50: 53 80 23 5B 18 80 8C 20  03 01 8C 20 03 01 74 6C  S.#[... ... ..tl
0A60: 63 31 1C 52 80 52 15 80  F8 FF FF 7F F8 FF FF 7F  c1.R.R..........
0A70: 73 30 32 39 01 77 0A 45  15 80 F8 FF FF 7F F8 FF  s029.w.E........
0A80: FF 7F 73 30 33 30 03 80  4A 8C 20 03 01 8D 20 03  ..s030..J. ... .
0A90: 01 6F 70 7B 8C 20 03 01  1C 05 80 5B 22 80 8C 20  .op{. .....[".. 
0AA0: 03 01 8C 20 03 01 70 6E  62 30 2B 8C 20 03 01 54  ... ..pnb0+. ..T
0AB0: 80 23 52 15 80 F8 FF FF  7F F8 FF FF 7F 73 30 33  .#R..........s03
0AC0: 30 45 15 80 F8 FF FF 7F  F8 FF FF 7F 73 30 33 31  0E..........s031
0AD0: 03 80 4A 8D 20 03 01 8C  20 03 01 6F 70 6E 8D 20  ..J. ... ..opn. 
0AE0: 03 01 24 80 99 8D 20 03  01 2B 8D 20 03 01 55 80  ..$... ..+. ..U.
0AF0: 23 5B 22 80 8C 20 03 01  8C 20 03 01 70 6E 62 31  #[".. ... ..pnb1
0B00: 52 15 80 F8 FF FF 7F F8  FF FF 7F 73 30 33 31 45  R..........s031E
0B10: 15 80 F8 FF FF 7F F8 FF  FF 7F 73 30 33 32 03 80  ..........s032..
0B20: 4A 8D 20 03 01 F0 FF FF  7F 4A F0 FF FF 7F 8D 20  J. ......J..... 
0B30: 03 01 6F 70 2B 8D 20 03  01 56 80 23 52 15 80 F8  ..op+. ..V.#R...
0B40: FF FF 7F F8 FF FF 7F 73  30 33 32 45 15 80 F8 FF  .......s032E....
0B50: FF 7F F8 FF FF 7F 73 30  33 33 03 80 2B 8D 20 03  ......s033..+. .
0B60: 01 57 80 23 52 15 80 F8  FF FF 7F F8 FF FF 7F 73  .W.#R..........s
0B70: 30 33 33 45 15 80 F8 FF  FF 7F F8 FF FF 7F 73 30  033E..........s0
0B80: 33 34 03 80 6E 8D 20 03  01 58 80 99 8D 20 03 01  34..n. ..X... ..
0B90: 2B 8D 20 03 01 59 80 23  52 15 80 F8 FF FF 7F F8  +. ..Y.#R.......
0BA0: FF FF 7F 73 30 33 34 45  15 80 F8 FF FF 7F F8 FF  ...s034E........
0BB0: FF 7F 73 30 33 35 03 80  2B 8D 20 03 01 5A 80 23  ..s035..+. ..Z.#
0BC0: 52 15 80 F8 FF FF 7F F8  FF FF 7F 73 30 33 35 45  R..........s035E
0BD0: 1B 80 F8 FF FF 7F F8 FF  FF 7F 73 31 30 38 03 80  ..........s108..
0BE0: 55 1B 80 F8 FF FF 7F F8  FF FF 7F 73 31 30 38 2B  U..........s108+
0BF0: 8C 20 03 01 5B 80 23 45  15 80 F8 FF FF 7F F8 FF  . ..[.#E........
0C00: FF 7F 73 30 33 36 03 80  6E 8D 20 03 01 3B 80 99  ..s036..n. ..;..
0C10: 8D 20 03 01 2B 8D 20 03  01 5C 80 23 52 15 80 F8  . ..+. ..\.#R...
0C20: FF FF 7F F8 FF FF 7F 73  30 33 36 45 15 80 F8 FF  .......s036E....
0C30: FF 7F F8 FF FF 7F 73 30  33 37 03 80 4A 8C 20 03  ......s037..J. .
0C40: 01 F0 FF FF 7F 7B 8C 20  03 01 4A F0 FF FF 7F 8C  .....{. ..J.....
0C50: 20 03 01 6F 70 1C 05 80  81 00 8C 20 03 01 5B 18   ..op...... ..[.
0C60: 80 8C 20 03 01 8C 20 03  01 74 6C 63 30 1C 36 80  .. ... ..tlc0.6.
0C70: 2B 8C 20 03 01 5D 80 23  81 01 8C 20 03 01 5B 18  +. ..].#... ..[.
0C80: 80 8C 20 03 01 8C 20 03  01 74 6C 63 31 1C 52 80  .. ... ..tlc1.R.
0C90: 52 15 80 F8 FF FF 7F F8  FF FF 7F 73 30 33 37 45  R..........s037E
0CA0: 15 80 F8 FF FF 7F F8 FF  FF 7F 73 30 33 38 03 80  ..........s038..
0CB0: 5B 22 80 8C 20 03 01 8C  20 03 01 70 6E 62 30 2B  [".. ... ..pnb0+
0CC0: 8C 20 03 01 5E 80 23 52  15 80 F8 FF FF 7F F8 FF  . ..^.#R........
0CD0: FF 7F 73 30 33 38 45 15  80 F8 FF FF 7F F8 FF FF  ..s038E.........
0CE0: 7F 73 30 34 30 03 80 6E  8D 20 03 01 44 80 99 8D  .s040..n. ..D...
0CF0: 20 03 01 2B 8D 20 03 01  5F 80 23 52 15 80 F8 FF   ..+. .._.#R....
0D00: FF 7F F8 FF FF 7F 73 30  34 30 45 15 80 F8 FF FF  ......s040E.....
0D10: 7F F8 FF FF 7F 73 30 34  31 03 80 1C 33 80 5B 22  .....s041...3.["
0D20: 80 8C 20 03 01 8C 20 03  01 70 6E 62 31 2B 8C 20  .. ... ..pnb1+. 
0D30: 03 01 60 80 23 52 15 80  F8 FF FF 7F F8 FF FF 7F  ..`.#R..........
0D40: 73 30 34 31 45 15 80 F8  FF FF 7F F8 FF FF 7F 73  s041E..........s
0D50: 30 34 32 03 80 81 00 8C  20 03 01 5B 18 80 8C 20  042..... ..[... 
0D60: 03 01 8C 20 03 01 74 6C  64 30 2B 8C 20 03 01 61  ... ..tld0+. ..a
0D70: 80 23 52 15 80 F8 FF FF  7F F8 FF FF 7F 73 30 34  .#R..........s04
0D80: 32 45 15 80 F8 FF FF 7F  F8 FF FF 7F 73 30 34 33  2E..........s043
0D90: 03 80 7B 8C 20 03 01 2B  8C 20 03 01 62 80 23 2B  ..{. ..+. ..b.#+
0DA0: 8C 20 03 01 63 80 23 52  15 80 F8 FF FF 7F F8 FF  . ..c.#R........
0DB0: FF 7F 73 30 34 33 45 15  80 F8 FF FF 7F F8 FF FF  ..s043E.........
0DC0: 7F 73 30 34 34 03 80 6E  8D 20 03 01 24 80 99 8D  .s044..n. ..$...
0DD0: 20 03 01 2B 8D 20 03 01  64 80 23 24 65 80 03 80   ..+. ..d.#$e...
0DE0: 03 80 25 02 00 10 03 80  00 53 0E 52 15 80 F8 FF  ..%......S.R....
0DF0: FF 7F F8 FF FF 7F 73 30  34 34 45 15 80 F8 FF FF  ......s044E.....
0E00: 7F F8 FF FF 7F 73 30 34  35 03 80 5B 18 80 8C 20  .....s045..[... 
0E10: 03 01 8C 20 03 01 74 6C  64 31 81 01 8C 20 03 01  ... ..tld1... ..
0E20: 1C 52 80 4A 8C 20 03 01  8D 20 03 01 6F 70 7B 8C  .R.J. ... ..op{.
0E30: 20 03 01 2B 8C 20 03 01  66 80 23 81 01 8C 20 03   ..+. ..f.#... .
0E40: 01 52 15 80 F8 FF FF 7F  F8 FF FF 7F 73 30 34 35  .R..........s045
0E50: 01 1F 10 02 00 10 08 80  00 1F 10 52 15 80 F8 FF  ...........R....
0E60: FF 7F F8 FF FF 7F 73 30  34 34 45 15 80 F8 FF FF  ......s044E.....
0E70: 7F F8 FF FF 7F 73 30 34  36 03 80 81 00 8C 20 03  .....s046..... .
0E80: 01 7C 00 8C 20 03 01 5B  28 80 8C 20 03 01 8C 20  .|.. ..[(.. ... 
0E90: 03 01 61 67 72 30 2B 8C  20 03 01 3A 80 23 52 15  ..agr0+. ..:.#R.
0EA0: 80 F8 FF FF 7F F8 FF FF  7F 73 30 34 36 45 15 80  .........s046E..
0EB0: F8 FF FF 7F F8 FF FF 7F  73 30 34 37 03 80 1C 04  ........s047....
0EC0: 80 52 15 80 F8 FF FF 7F  F8 FF FF 7F 73 30 34 37  .R..........s047
0ED0: 45 15 80 F8 FF FF 7F F8  FF FF 7F 73 30 34 38 03  E..........s048.
0EE0: 80 5B 28 80 8C 20 03 01  8C 20 03 01 61 67 72 31  .[(.. ... ..agr1
0EF0: 1C 04 80 7C 01 8C 20 03  01 5B 18 80 8C 20 03 01  ...|.. ..[... ..
0F00: 8C 20 03 01 74 6C 63 30  2B 8C 20 03 01 67 80 23  . ..tlc0+. ..g.#
0F10: 03 02 10 68 80 2B 8C 20  03 01 69 80 23 52 15 80  ...h.+. ..i.#R..
0F20: F8 FF FF 7F F8 FF FF 7F  73 30 34 38 45 15 80 F8  ........s048E...
0F30: FF FF 7F F8 FF FF 7F 73  30 34 39 03 80 55 15 80  .......s049..U..
0F40: F8 FF FF 7F F8 FF FF 7F  73 30 34 39 48 6A 80 1C  ........s049Hj..
0F50: 52 80 45 15 80 F8 FF FF  7F F8 FF FF 7F 73 30 35  R.E..........s05
0F60: 30 03 80 2B 8C 20 03 01  6B 80 23 81 01 8C 20 03  0..+. ..k.#... .
0F70: 01 52 15 80 F8 FF FF 7F  F8 FF FF 7F 73 30 35 30  .R..........s050
0F80: 45 1B 80 F8 FF FF 7F F8  FF FF 7F 73 31 31 32 03  E..........s112.
0F90: 80 2B 8C 20 03 01 6C 80  23 52 1B 80 F8 FF FF 7F  .+. ..l.#R......
0FA0: F8 FF FF 7F 73 31 31 32  45 1B 80 F8 FF FF 7F F8  ....s112E.......
0FB0: FF FF 7F 73 31 31 31 03  80 4A 8D 20 03 01 8C 20  ...s111..J. ... 
0FC0: 03 01 2B 8D 20 03 01 6D  80 23 52 1B 80 F8 FF FF  ..+. ..m.#R.....
0FD0: 7F F8 FF FF 7F 73 31 31  31 45 1B 80 F8 FF FF 7F  .....s111E......
0FE0: F8 FF FF 7F 73 31 31 33  03 80 4A 8D 20 03 01 F0  ....s113..J. ...
0FF0: FF FF 7F 2B 8C 20 03 01  6E 80 23 5B 18 80 8C 20  ...+. ..n.#[... 
1000: 03 01 8C 20 03 01 74 6C  63 31 1C 32 80 52 1B 80  ... ..tlc1.2.R..
1010: F8 FF FF 7F F8 FF FF 7F  73 31 31 33 01 1F 10 45  ........s113...E
1020: 15 80 F8 FF FF 7F F8 FF  FF 7F 73 30 35 32 03 80  ..........s052..
1030: 4A 8C 20 03 01 8D 20 03  01 6F 70 7B 8C 20 03 01  J. ... ..op{. ..
1040: 5B 22 80 8C 20 03 01 8C  20 03 01 70 6E 62 30 4A  [".. ... ..pnb0J
1050: 8D 20 03 01 8C 20 03 01  2B 8C 20 03 01 6F 80 23  . ... ..+. ..o.#
1060: 52 15 80 F8 FF FF 7F F8  FF FF 7F 73 30 35 32 45  R..........s052E
1070: 15 80 F8 FF FF 7F F8 FF  FF 7F 73 30 35 33 03 80  ..........s053..
1080: 6E 8D 20 03 01 24 80 99  8D 20 03 01 2B 8D 20 03  n. ..$... ..+. .
1090: 01 70 80 23 79 00 8C 20  03 01 8C 20 03 01 27 0F  .p.#y.. ... ..'.
10A0: 8D 20 03 01 7A 1C 36 80  52 15 80 F8 FF FF 7F F8  . ..z.6.R.......
10B0: FF FF 7F 73 30 35 33 45  15 80 F8 FF FF 7F F8 FF  ...s053E........
10C0: FF 7F 73 30 35 34 03 80  5B 22 80 8C 20 03 01 8C  ..s054..[".. ...
10D0: 20 03 01 70 6E 62 31 1C  32 80 4A 8C 20 03 01 F0   ..pnb1.2.J. ...
10E0: FF FF 7F 6F 70 7B 8C 20  03 01 5B 28 80 8C 20 03  ...op{. ..[(.. .
10F0: 01 8C 20 03 01 64 73 6B  30 1C 52 80 52 15 80 F8  .. ..dsk0.R.R...
1100: FF FF 7F F8 FF FF 7F 73  30 35 34 45 15 80 F8 FF  .......s054E....
1110: FF 7F F8 FF FF 7F 73 30  35 35 03 80 55 15 80 F8  ......s055..U...
1120: FF FF 7F F8 FF FF 7F 73  30 35 35 2B 8C 20 03 01  .......s055+. ..
1130: 71 80 23 2B 8C 20 03 01  72 80 23 7A 00 8D 20 03  q.#+. ..r.#z.. .
1140: 01 45 1B 80 F8 FF FF 7F  F8 FF FF 7F 73 31 30 39  .E..........s109
1150: 03 80 29 0F 8D 20 03 01  7B 4A 8D 20 03 01 8C 20  ..).. ..{J. ... 
1160: 03 01 2B 8D 20 03 01 73  80 23 52 1B 80 F8 FF FF  ..+. ..s.#R.....
1170: 7F F8 FF FF 7F 73 31 30  39 45 1B 80 F8 FF FF 7F  .....s109E......
1180: F8 FF FF 7F 73 31 31 30  03 80 4A 8D 20 03 01 F0  ....s110..J. ...
1190: FF FF 7F 4A F0 FF FF 7F  8D 20 03 01 2B 8D 20 03  ...J..... ..+. .
11A0: 01 74 80 23 52 1B 80 F8  FF FF 7F F8 FF FF 7F 73  .t.#R..........s
11B0: 31 31 30 45 1B 80 F8 FF  FF 7F F8 FF FF 7F 73 31  110E..........s1
11C0: 31 34 03 80 2B 8D 20 03  01 75 80 23 52 1B 80 F8  14..+. ..u.#R...
11D0: FF FF 7F F8 FF FF 7F 73  31 31 34 81 00 8C 20 03  .......s114... .
11E0: 01 5B 28 80 8C 20 03 01  8C 20 03 01 64 73 63 30  .[(.. ... ..dsc0
11F0: 45 15 80 F8 FF FF 7F F8  FF FF 7F 73 30 35 37 03  E..........s057.
1200: 80 03 02 10 68 80 03 03  10 08 80 2B 8D 20 03 01  ....h......+. ..
1210: 76 80 23 52 15 80 F8 FF  FF 7F F8 FF FF 7F 73 30  v.#R..........s0
1220: 35 37 45 15 80 F8 FF FF  7F F8 FF FF 7F 73 30 35  57E..........s05
1230: 38 03 80 2B 8D 20 03 01  77 80 23 52 15 80 F8 FF  8..+. ..w.#R....
1240: FF 7F F8 FF FF 7F 73 30  35 38 45 15 80 F8 FF FF  ......s058E.....
1250: 7F F8 FF FF 7F 73 30 35  39 03 80 2B 8D 20 03 01  .....s059..+. ..
1260: 78 80 23 55 15 80 F8 FF  FF 7F F8 FF FF 7F 73 30  x.#U..........s0
1270: 35 39 45 15 80 F8 FF FF  7F F8 FF FF 7F 73 32 30  59E..........s20
1280: 32 03 80 55 15 80 F8 FF  FF 7F F8 FF FF 7F 73 32  2..U..........s2
1290: 30 32 2B 8C 20 03 01 79  80 23 45 1B 80 F8 FF FF  02+. ..y.#E.....
12A0: 7F F8 FF FF 7F 73 31 31  35 03 80 03 02 10 68 80  .....s115.....h.
12B0: 03 03 10 7A 80 2B 8D 20  03 01 7B 80 23 55 1B 80  ...z.+. ..{.#U..
12C0: F8 FF FF 7F F8 FF FF 7F  73 31 31 35 45 15 80 F8  ........s115E...
12D0: FF FF 7F F8 FF FF 7F 73  30 36 30 03 80 5B 28 80  .......s060..[(.
12E0: 8C 20 03 01 8C 20 03 01  64 73 6B 31 1C 7C 80 52  . ... ..dsk1.|.R
12F0: 15 80 F8 FF FF 7F F8 FF  FF 7F 73 30 36 30 45 15  ..........s060E.
1300: 80 F8 FF FF 7F F8 FF FF  7F 73 30 36 32 03 80 81  .........s062...
1310: 00 8C 20 03 01 5B 4F 80  8C 20 03 01 8C 20 03 01  .. ..[O.. ... ..
1320: 68 61 70 30 1C 36 80 2B  8C 20 03 01 7D 80 23 81  hap0.6.+. ..}.#.
1330: 01 8C 20 03 01 4A F0 FF  FF 7F 8C 20 03 01 4A 8D  .. ..J..... ..J.
1340: 20 03 01 8C 20 03 01 5B  4F 80 8C 20 03 01 8C 20   ... ..[O.. ... 
1350: 03 01 68 61 70 72 1C 52  80 52 15 80 F8 FF FF 7F  ..hapr.R.R......
1360: F8 FF FF 7F 73 30 36 32  45 15 80 F8 FF FF 7F F8  ....s062E.......
1370: FF FF 7F 73 30 36 31 03  80 5B 22 80 8C 20 03 01  ...s061..[".. ..
1380: 8C 20 03 01 70 6E 62 30  2B 8C 20 03 01 7E 80 23  . ..pnb0+. ..~.#
1390: 52 15 80 F8 FF FF 7F F8  FF FF 7F 73 30 36 31 45  R..........s061E
13A0: 15 80 F8 FF FF 7F F8 FF  FF 7F 73 30 36 33 03 80  ..........s063..
13B0: 5B 22 80 8C 20 03 01 8C  20 03 01 70 6E 62 31 1C  [".. ... ..pnb1.
13C0: 52 80 81 00 8C 20 03 01  5B 4F 80 8C 20 03 01 8C  R.... ..[O.. ...
13D0: 20 03 01 68 61 70 30 2B  8C 20 03 01 7F 80 23 27   ..hap0+. ....#'
13E0: 0F 0B 22 03 01 14 27 0F  8D 20 03 01 7C 52 15 80  .."...'.. ..|R..
13F0: F8 FF FF 7F F8 FF FF 7F  73 30 36 33 1A B9 BB 45  ........s063...E
1400: 15 80 F8 FF FF 7F F8 FF  FF 7F 73 30 36 34 03 80  ..........s064..
1410: 1C 08 80 4E 01 8D 20 03  01 4E 01 F0 FF FF 7F 52  ...N.. ..N.....R
1420: 15 80 F8 FF FF 7F F8 FF  FF 7F 73 30 36 34 5D 03  ..........s064].
1430: 80 04 80 1C 80 80 5C 00  81 80 5C 01 81 80 9A 5D  ......\...\....]
1440: 07 80 04 80 4E 01 F0 FF  FF 7F 4B 8C 20 03 01 82  ....N.....K. ...
1450: 80 6F 70 1C 36 80 2B 8C  20 03 01 83 80 23 1A DA  .op.6.+. ....#..
1460: BB 45 15 80 F8 FF FF 7F  F8 FF FF 7F 73 30 36 34  .E..........s064
1470: 03 80 2B CF 21 03 01 84  80 23 2B 8C 20 03 01 85  ..+.!....#+. ...
1480: 80 23 52 15 80 F8 FF FF  7F F8 FF FF 7F 73 30 36  .#R..........s06
1490: 34 45 15 80 F8 FF FF 7F  F8 FF FF 7F 73 30 36 35  4E..........s065
14A0: 03 80 2B CF 21 03 01 86  80 23 2B 8C 20 03 01 87  ..+.!....#+. ...
14B0: 80 23 52 15 80 F8 FF FF  7F F8 FF FF 7F 73 30 36  .#R..........s06
14C0: 35 45 15 80 F8 FF FF 7F  F8 FF FF 7F 73 30 36 36  5E..........s066
14D0: 03 80 2B 8C 20 03 01 88  80 23 2B CF 21 03 01 89  ..+. ....#+.!...
14E0: 80 23 2B CF 21 03 01 8A  80 23 52 15 80 F8 FF FF  .#+.!....#R.....
14F0: 7F F8 FF FF 7F 73 30 36  36 45 15 80 F8 FF FF 7F  .....s066E......
1500: F8 FF FF 7F 73 30 36 37  03 80 2B 8C 20 03 01 8B  ....s067..+. ...
1510: 80 23 2B 8C 20 03 01 8C  80 23 52 15 80 F8 FF FF  .#+. ....#R.....
1520: 7F F8 FF FF 7F 73 30 36  37 45 15 80 F8 FF FF 7F  .....s067E......
1530: F8 FF FF 7F 73 30 36 39  03 80 2B 8C 20 03 01 8D  ....s069..+. ...
1540: 80 23 1C 52 80 1A B9 BB  52 15 80 F8 FF FF 7F F8  .#.R....R.......
1550: FF FF 7F 73 30 36 39 1C  33 80 6B 69 64 6C 30 8C  ...s069.3.kidl0.
1560: 20 03 01 29 10 8C 20 03  01 05 5D 03 80 04 80 1C   ..).. ...].....
1570: 80 80 5C 00 8E 80 5C 01  8E 80 9A 5D 07 80 04 80  ..\...\....]....
1580: 46 00 1A DA BB 21 00                              F....!.         
```

#### Opcodes

```
  0: 0x0001 [0x42] SET_CLI_EVENT_CANCEL_DATA()
  1: 0x0002 [0x1A] CALL_SUBROUTINE(address=0xBBB9)
  2: 0x0005 [0x46] CAMERA_CONTROL: Disable user control
  3: 0x0007 [0x38] SET_CLIENT_EVENT_MODE(mode=19*)
  4: 0x000A [0x75] LOAD_ROOM(Load indoor room, room=563*)
  5: 0x000E [0x75] LOAD_ROOM(No action)
  6: 0x0010 [0x92] Naja Salaheem (ID: 16982156/0x0103208C)->Render.Flags3 ^= 0x01
  7: 0x0016 [0x92] Abquhbah (ID: 16982157/0x0103208D)->Render.Flags3 ^= 0x01
  8: 0x001C [0x92] Falzum (ID: 16982227/0x010320D3)->Render.Flags3 ^= 0x01
  9: 0x0022 [0x79] LocalPlayer looks at LocalPlayer (Basic look)
 10: 0x002C [0x94] LocalPlayer->Render.Flags3 ^= 0x01
 11: 0x0032 [0x94] Naja Salaheem (ID: 16982156/0x0103208C)->Render.Flags3 ^= 0x01
 12: 0x0038 [0x94] Abquhbah (ID: 16982157/0x0103208D)->Render.Flags3 ^= 0x01
 13: 0x003E [0x94] Falzum (ID: 16982227/0x010320D3)->Render.Flags3 ^= 0x01
 14: 0x0044 [0x29] REQ_SET_WAIT(priority=0x10, entity_id=Naja Salaheem (ID: 16982156/0x0103208C), tag_num=0x04)
 15: 0x004B [0x4E] SET_ENTITY_HIDE_FLAG: Hide LocalPlayer
 16: 0x0051 [0x4E] SET_ENTITY_HIDE_FLAG: Show Naja Salaheem (ID: 16982156/0x0103208C)
 17: 0x0057 [0x4E] SET_ENTITY_HIDE_FLAG: Show Abquhbah (ID: 16982157/0x0103208D)
 18: 0x005D [0x4E] SET_ENTITY_HIDE_FLAG: Show Falzum (ID: 16982227/0x010320D3)
 19: 0x0063 [0x1C] WAIT(15* ticks)
 20: 0x0066 [0x5D] SET_MUSIC_VOLUME(volume=0*, fade_time=240*)
 21: 0x006B [0x1C] WAIT(10* ticks)
 22: 0x006E [0x5C] MUSIC_CONTROL: Set Idle (Day) music to song 163*
 23: 0x0072 [0x5C] MUSIC_CONTROL: Set Idle (Night) music to song 163*
 24: 0x0076 [0x9A] WAIT_MUSIC_SERVER()
 25: 0x0077 [0x5D] SET_MUSIC_VOLUME(volume=127*, fade_time=1*)
 26: 0x007C [0x1C] WAIT(10* ticks)
 27: 0x007F [0xBA] SET_ENTITY_POSITION(entity_id=LocalPlayer, pos_x=28.888*, pos_z=-45.321*, pos_y=-7.804*, direction=180.3*)
 28: 0x008C [0xBA] SET_ENTITY_POSITION(entity_id=Unnamed NPC (ID: 16982539/0x0103220B), pos_x=28.888*, pos_z=-45.321*, pos_y=-7.804*, direction=180.3*)
 29: 0x0099 [0xBA] SET_ENTITY_POSITION(entity_id=Naja Salaheem (ID: 16982156/0x0103208C), pos_x=22.700*, pos_z=-45.591*, pos_y=-7.804*, direction=0.0*)
 30: 0x00A6 [0xBA] SET_ENTITY_POSITION(entity_id=Abquhbah (ID: 16982157/0x0103208D), pos_x=25.267*, pos_z=-47.663*, pos_y=-7.804*, direction=292.1*)
 31: 0x00B3 [0xBA] SET_ENTITY_POSITION(entity_id=Falzum (ID: 16982227/0x010320D3), pos_x=26.336*, pos_z=-45.608*, pos_y=-7.804*, direction=178.2*)
 32: 0x00C0 [0x4A] Naja Salaheem (ID: 16982156/0x0103208C) looks at Falzum (ID: 16982227/0x010320D3)
 33: 0x00C9 [0x7B] Naja Salaheem (ID: 16982156/0x0103208C) stops talking
 34: 0x00CE [0x4A] Falzum (ID: 16982227/0x010320D3) looks at Naja Salaheem (ID: 16982156/0x0103208C)
 35: 0x00D7 [0x4A] Abquhbah (ID: 16982157/0x0103208D) looks at Falzum (ID: 16982227/0x010320D3)
 36: 0x00E0 [0x80] LOAD_WAIT(entity=LocalPlayer)
 37: 0x00E5 [0x80] LOAD_WAIT(entity=Naja Salaheem (ID: 16982156/0x0103208C))
 38: 0x00EA [0x80] LOAD_WAIT(entity=Abquhbah (ID: 16982157/0x0103208D))
 39: 0x00EF [0x80] LOAD_WAIT(entity=Falzum (ID: 16982227/0x010320D3))
 40: 0x00F4 [0x1A] CALL_SUBROUTINE(address=0xBBDA)
 41: 0x00F7 [0x45] LOAD_SCHEDULED_TASK: Load scheduler "s000" with entities [EventEntity, EventEntity], work=[298*, 0*]
 42: 0x0108 [0x6E] Falzum (ID: 16982227/0x010320D3) uses emote 6*
 43: 0x010F [0x99] Wait for Falzum (ID: 16982227/0x010320D3) animation to complete
 44: 0x0114 [0x2B] Falzum (ID: 16982227/0x010320D3) [11379*]:
     "B-but...my mission results have been so ordinary...\u007F1\u0000\u0007"
 45: 0x011B [0x23] WAIT_FOR_DIALOG_INTERACTION
 46: 0x011C [0x52] END_LOAD_SCHEDULER: End scheduler "s000" with entities [EventEntity, EventEntity], work=298*
 47: 0x012B [0x45] LOAD_SCHEDULED_TASK: Load scheduler "s001" with entities [EventEntity, EventEntity], work=[298*, 0*]
 48: 0x013C [0x81] SET_ENTITY_BLINKING(blink_flag=0x00, entity=Naja Salaheem (ID: 16982156/0x0103208C))
 49: 0x0142 [0x5B] LOAD_EXT_SCHEDULER: Load scheduler "tld0" with entities [Naja Salaheem (ID: 16982156/0x0103208C), Naja Salaheem (ID: 16982156/0x0103208C)], work=854*
 50: 0x0151 [0x2B] Naja Salaheem (ID: 16982156/0x0103208C) [11380*]:
     "Oho!\u0007Are ya tellin' me ya haven't rrrecognized it inside you?\u007F1\u0000\u0007"
 51: 0x0158 [0x23] WAIT_FOR_DIALOG_INTERACTION
 52: 0x0159 [0x52] END_LOAD_SCHEDULER: End scheduler "s001" with entities [EventEntity, EventEntity], work=298*
 53: 0x0168 [0x45] LOAD_SCHEDULED_TASK: Load scheduler "s002" with entities [EventEntity, EventEntity], work=[298*, 0*]
 54: 0x0179 [0x2B] Falzum (ID: 16982227/0x010320D3) [11381*]:
     "R-recognized what inside me!?\u007F1\u0000\u0007"
 55: 0x0180 [0x23] WAIT_FOR_DIALOG_INTERACTION
 56: 0x0181 [0x52] END_LOAD_SCHEDULER: End scheduler "s002" with entities [EventEntity, EventEntity], work=298*
 57: 0x0190 [0x45] LOAD_SCHEDULED_TASK: Load scheduler "s095" with entities [EventEntity, EventEntity], work=[296*, 0*]
 58: 0x01A1 [0x2B] Naja Salaheem (ID: 16982156/0x0103208C) [11382*]:
     "The clever cat hides his claws, is that it?\u0007Potential, my frrriend, potential.\u007F1\u0000\u0007"
 59: 0x01A8 [0x23] WAIT_FOR_DIALOG_INTERACTION
 60: 0x01A9 [0x52] END_LOAD_SCHEDULER: End scheduler "s095" with entities [EventEntity, EventEntity], work=296*
 61: 0x01B8 [0x45] LOAD_SCHEDULED_TASK: Load scheduler "s096" with entities [EventEntity, EventEntity], work=[296*, 0*]
 62: 0x01C9 [0x2B] Falzum (ID: 16982227/0x010320D3) [11383*]:
     "Potential...?\u007F1\u0000\u0007"
 63: 0x01D0 [0x23] WAIT_FOR_DIALOG_INTERACTION
 64: 0x01D1 [0x52] END_LOAD_SCHEDULER: End scheduler "s096" with entities [EventEntity, EventEntity], work=296*
 65: 0x01E0 [0x45] LOAD_SCHEDULED_TASK: Load scheduler "s003" with entities [EventEntity, EventEntity], work=[298*, 0*]
 66: 0x01F1 [0x5B] LOAD_EXT_SCHEDULER: Load scheduler "tld1" with entities [Naja Salaheem (ID: 16982156/0x0103208C), Naja Salaheem (ID: 16982156/0x0103208C)], work=854*
 67: 0x0200 [0x81] SET_ENTITY_BLINKING(blink_flag=0x01, entity=Naja Salaheem (ID: 16982156/0x0103208C))
 68: 0x0206 [0x2B] Naja Salaheem (ID: 16982156/0x0103208C) [11384*]:
     "Potential!\u007F1\u0000\u0007"
 69: 0x020D [0x23] WAIT_FOR_DIALOG_INTERACTION
 70: 0x020E [0x2B] Naja Salaheem (ID: 16982156/0x0103208C) [11385*]:
     "I'd rrrather ya didn't blab the fact to the other employees, but I consider ya to be this company's number-one ace mercenary.\u007F1\u0000\u0007"
 71: 0x0215 [0x23] WAIT_FOR_DIALOG_INTERACTION
 72: 0x0216 [0x52] END_LOAD_SCHEDULER: End scheduler "s003" with entities [EventEntity, EventEntity], work=298*
 73: 0x0225 [0x45] LOAD_SCHEDULED_TASK: Load scheduler "s005" with entities [EventEntity, EventEntity], work=[298*, 0*]
 74: 0x0236 [0x6E] Falzum (ID: 16982227/0x010320D3) uses emote 22*
 75: 0x023D [0x99] Wait for Falzum (ID: 16982227/0x010320D3) animation to complete
 76: 0x0242 [0x2B] Falzum (ID: 16982227/0x010320D3) [11386*]:
     "A-ace!?\u007F1\u0000\u0007"
 77: 0x0249 [0x23] WAIT_FOR_DIALOG_INTERACTION
 78: 0x024A [0x55] WAIT_LOAD_SCHEDULER: Wait for scheduler "s005" with entities [EventEntity, EventEntity], work=298*
 79: 0x0259 [0x45] LOAD_SCHEDULED_TASK: Load scheduler "s004" with entities [EventEntity, EventEntity], work=[298*, 0*]
 80: 0x026A [0x5B] LOAD_EXT_SCHEDULER: Load scheduler "pnb0" with entities [Naja Salaheem (ID: 16982156/0x0103208C), Naja Salaheem (ID: 16982156/0x0103208C)], work=836*
 81: 0x0279 [0x2B] Naja Salaheem (ID: 16982156/0x0103208C) [11387*]:
     "That's rrright.\u0007Salaheem's Sentinels' shinin' star!\u007F1\u0000\u0007"
 82: 0x0280 [0x23] WAIT_FOR_DIALOG_INTERACTION
 83: 0x0281 [0x52] END_LOAD_SCHEDULER: End scheduler "s004" with entities [EventEntity, EventEntity], work=298*
 84: 0x0290 [0x45] LOAD_SCHEDULED_TASK: Load scheduler "s007" with entities [EventEntity, EventEntity], work=[298*, 0*]
 85: 0x02A1 [0x6E] Abquhbah (ID: 16982157/0x0103208D) uses emote 11*
 86: 0x02A8 [0x99] Wait for Abquhbah (ID: 16982157/0x0103208D) animation to complete
 87: 0x02AD [0x2B] Abquhbah (ID: 16982157/0x0103208D) [11388*]:
     "Isn't that wonderful, Falzum!\u0007You're a star!\u007F1\u0000\u0007"
 88: 0x02B4 [0x23] WAIT_FOR_DIALOG_INTERACTION
 89: 0x02B5 [0x5B] LOAD_EXT_SCHEDULER: Load scheduler "pnb1" with entities [Naja Salaheem (ID: 16982156/0x0103208C), Naja Salaheem (ID: 16982156/0x0103208C)], work=836*
 90: 0x02C4 [0x52] END_LOAD_SCHEDULER: End scheduler "s007" with entities [EventEntity, EventEntity], work=298*
 91: 0x02D3 [0x45] LOAD_SCHEDULED_TASK: Load scheduler "s008" with entities [EventEntity, EventEntity], work=[298*, 0*]
 92: 0x02E4 [0x2B] Falzum (ID: 16982227/0x010320D3) [11389*]:
     "I'm an a-ace...?\u0007A...s-star!?\u007F1\u0000\u0007"
 93: 0x02EB [0x23] WAIT_FOR_DIALOG_INTERACTION
 94: 0x02EC [0x52] END_LOAD_SCHEDULER: End scheduler "s008" with entities [EventEntity, EventEntity], work=298*
 95: 0x02FB [0x45] LOAD_SCHEDULED_TASK: Load scheduler "s097" with entities [EventEntity, EventEntity], work=[296*, 0*]
 96: 0x030C [0x2B] Falzum (ID: 16982227/0x010320D3) [11390*]:
     "But I'm afraid of heights.\u0007Stars are so high in the sky...\u007F1\u0000\u0007"
 97: 0x0313 [0x23] WAIT_FOR_DIALOG_INTERACTION
 98: 0x0314 [0x52] END_LOAD_SCHEDULER: End scheduler "s097" with entities [EventEntity, EventEntity], work=296*
 99: 0x0323 [0x45] LOAD_SCHEDULED_TASK: Load scheduler "s010" with entities [EventEntity, EventEntity], work=[298*, 0*]
100: 0x0334 [0x1C] WAIT(10* ticks)
101: 0x0337 [0x81] SET_ENTITY_BLINKING(blink_flag=0x00, entity=Naja Salaheem (ID: 16982156/0x0103208C))
102: 0x033D [0x5B] LOAD_EXT_SCHEDULER: Load scheduler "agr0" with entities [Naja Salaheem (ID: 16982156/0x0103208C), Naja Salaheem (ID: 16982156/0x0103208C)], work=834*
103: 0x034C [0x2B] Naja Salaheem (ID: 16982156/0x0103208C) [11391*]:
     "Damn strrraight!\u0007Falzum, you've gotta embrace that ambition!\u0007Aim beyond the clouds!\u007F1\u0000\u0007"
104: 0x0353 [0x23] WAIT_FOR_DIALOG_INTERACTION
105: 0x0354 [0x52] END_LOAD_SCHEDULER: End scheduler "s010" with entities [EventEntity, EventEntity], work=298*
106: 0x0363 [0x45] LOAD_SCHEDULED_TASK: Load scheduler "s011" with entities [EventEntity, EventEntity], work=[298*, 0*]
107: 0x0374 [0x6E] Falzum (ID: 16982227/0x010320D3) uses emote 11*
108: 0x037B [0x99] Wait for Falzum (ID: 16982227/0x010320D3) animation to complete
109: 0x0380 [0x2B] Falzum (ID: 16982227/0x010320D3) [11392*]:
     "Y-you're right!\u007F1\u0000\u0007"
110: 0x0387 [0x23] WAIT_FOR_DIALOG_INTERACTION
111: 0x0388 [0x52] END_LOAD_SCHEDULER: End scheduler "s011" with entities [EventEntity, EventEntity], work=298*
112: 0x0397 [0x45] LOAD_SCHEDULED_TASK: Load scheduler "s012" with entities [EventEntity, EventEntity], work=[298*, 0*]
113: 0x03A8 [0x7C] Naja Salaheem (ID: 16982156/0x0103208C)->Render.Flags2 |= 0x01
114: 0x03AE [0x5B] LOAD_EXT_SCHEDULER: Load scheduler "agb0" with entities [Naja Salaheem (ID: 16982156/0x0103208C), Naja Salaheem (ID: 16982156/0x0103208C)], work=834*
115: 0x03BD [0x2B] Naja Salaheem (ID: 16982156/0x0103208C) [11393*]:
     "Falzum!\u0007Or should I say, Officer Cadet Falzum!\u007F1\u0000\u0007"
116: 0x03C4 [0x23] WAIT_FOR_DIALOG_INTERACTION
117: 0x03C5 [0x52] END_LOAD_SCHEDULER: End scheduler "s012" with entities [EventEntity, EventEntity], work=298*
118: 0x03D4 [0x45] LOAD_SCHEDULED_TASK: Load scheduler "s013" with entities [EventEntity, EventEntity], work=[298*, 0*]
119: 0x03E5 [0x6E] Falzum (ID: 16982227/0x010320D3) uses emote 21*
120: 0x03EC [0x99] Wait for Falzum (ID: 16982227/0x010320D3) animation to complete
121: 0x03F1 [0x2B] Falzum (ID: 16982227/0x010320D3) [11394*]:
     "Y-yes, ma'am!\u007F1\u0000\u0007"
122: 0x03F8 [0x23] WAIT_FOR_DIALOG_INTERACTION
123: 0x03F9 [0x52] END_LOAD_SCHEDULER: End scheduler "s013" with entities [EventEntity, EventEntity], work=298*
124: 0x0408 [0x45] LOAD_SCHEDULED_TASK: Load scheduler "s014" with entities [EventEntity, EventEntity], work=[298*, 0*]
125: 0x0419 [0x2B] Naja Salaheem (ID: 16982156/0x0103208C) [11395*]:
     "I hope you're rrready to work!\u0007You'll be signin' papers, trrrackin' down textbooks--all sorts of fun stuff!\u007F1\u0000\u0007"
126: 0x0420 [0x23] WAIT_FOR_DIALOG_INTERACTION
127: 0x0421 [0x52] END_LOAD_SCHEDULER: End scheduler "s014" with entities [EventEntity, EventEntity], work=298*
128: 0x0430 [0x45] LOAD_SCHEDULED_TASK: Load scheduler "s015" with entities [EventEntity, EventEntity], work=[298*, 0*]
129: 0x0441 [0x6E] Abquhbah (ID: 16982157/0x0103208D) uses emote 12*
130: 0x0448 [0x99] Wait for Abquhbah (ID: 16982157/0x0103208D) animation to complete
131: 0x044D [0x4A] Falzum (ID: 16982227/0x010320D3) looks at Abquhbah (ID: 16982157/0x0103208D)
132: 0x0456 [0x2B] Abquhbah (ID: 16982157/0x0103208D) [11396*]:
     "Please consult with me about the textbooks you need.\u0007I'll be happy to deduct the price from your pay this month.\u007F1\u0000\u0007"
133: 0x045D [0x23] WAIT_FOR_DIALOG_INTERACTION
134: 0x045E [0x6F] WAIT_FRAME_DELAY: Yield until WaitTime reaches zero
135: 0x045F [0x70] WAIT_ENTITY_RENDER_FLAG: Wait while EventEntity->Render.Flags3 bit 2 is set (cancel turn if not)
136: 0x0460 [0x52] END_LOAD_SCHEDULER: End scheduler "s015" with entities [EventEntity, EventEntity], work=298*
137: 0x046F [0x45] LOAD_SCHEDULED_TASK: Load scheduler "s016" with entities [EventEntity, EventEntity], work=[298*, 0*]
138: 0x0480 [0x4A] Falzum (ID: 16982227/0x010320D3) looks at Naja Salaheem (ID: 16982156/0x0103208C)
139: 0x0489 [0x6F] WAIT_FRAME_DELAY: Yield until WaitTime reaches zero
140: 0x048A [0x70] WAIT_ENTITY_RENDER_FLAG: Wait while EventEntity->Render.Flags3 bit 2 is set (cancel turn if not)
141: 0x048B [0x2B] Falzum (ID: 16982227/0x010320D3) [11397*]:
     "D-deduct? F-from my pay?\u0000\u0007"
142: 0x0492 [0x1C] WAIT(90* ticks)
143: 0x0495 [0x52] END_LOAD_SCHEDULER: End scheduler "s016" with entities [EventEntity, EventEntity], work=298*
144: 0x04A4 [0x45] LOAD_SCHEDULED_TASK: Load scheduler "s017" with entities [EventEntity, EventEntity], work=[298*, 0*]
145: 0x04B5 [0x1C] WAIT(30* ticks)
146: 0x04B8 [0x2B] Falzum (ID: 16982227/0x010320D3) [11398*]:
     "Uh...okay...\u0000\u0007"
147: 0x04BF [0x1C] WAIT(90* ticks)
148: 0x04C2 [0x52] END_LOAD_SCHEDULER: End scheduler "s017" with entities [EventEntity, EventEntity], work=298*
149: 0x04D1 [0x45] LOAD_SCHEDULED_TASK: Load scheduler "s018" with entities [EventEntity, EventEntity], work=[298*, 0*]
150: 0x04E2 [0x4A] Falzum (ID: 16982227/0x010320D3) looks at Abquhbah (ID: 16982157/0x0103208D)
151: 0x04EB [0x6F] WAIT_FRAME_DELAY: Yield until WaitTime reaches zero
152: 0x04EC [0x70] WAIT_ENTITY_RENDER_FLAG: Wait while EventEntity->Render.Flags3 bit 2 is set (cancel turn if not)
153: 0x04ED [0x1C] WAIT(30* ticks)
154: 0x04F0 [0x2B] Falzum (ID: 16982227/0x010320D3) [11399*]:
     "I-I...\u0000\u0007"
155: 0x04F7 [0x1C] WAIT(60* ticks)
156: 0x04FA [0x52] END_LOAD_SCHEDULER: End scheduler "s018" with entities [EventEntity, EventEntity], work=298*
157: 0x0509 [0x45] LOAD_SCHEDULED_TASK: Load scheduler "s019" with entities [EventEntity, EventEntity], work=[298*, 0*]
158: 0x051A [0x4A] Falzum (ID: 16982227/0x010320D3) looks at Naja Salaheem (ID: 16982156/0x0103208C)
159: 0x0523 [0x55] WAIT_LOAD_SCHEDULER: Wait for scheduler "s019" with entities [EventEntity, EventEntity], work=298*
160: 0x0532 [0x45] LOAD_SCHEDULED_TASK: Load scheduler "s020" with entities [EventEntity, EventEntity], work=[298*, 0*]
161: 0x0543 [0x1C] WAIT(10* ticks)
162: 0x0546 [0x27] REQ_SET(priority=0x0F, entity_id=Falzum (ID: 16982227/0x010320D3), tag_num=0x59)
163: 0x054D [0x2B] Falzum (ID: 16982227/0x010320D3) [11400*]:
     "I'm sorry!!!\u007F1\u0000\u0007"
164: 0x0554 [0x23] WAIT_FOR_DIALOG_INTERACTION
165: 0x0555 [0x55] WAIT_LOAD_SCHEDULER: Wait for scheduler "s020" with entities [EventEntity, EventEntity], work=298*
166: 0x0564 [0x81] SET_ENTITY_BLINKING(blink_flag=0x00, entity=Naja Salaheem (ID: 16982156/0x0103208C))
167: 0x056A [0x7C] Naja Salaheem (ID: 16982156/0x0103208C)->Render.Flags2 |= 0x00
168: 0x0570 [0x5B] LOAD_EXT_SCHEDULER: Load scheduler "agr1" with entities [Naja Salaheem (ID: 16982156/0x0103208C), Naja Salaheem (ID: 16982156/0x0103208C)], work=834*
169: 0x057F [0x45] LOAD_SCHEDULED_TASK: Load scheduler "s021" with entities [EventEntity, EventEntity], work=[298*, 0*]
170: 0x0590 [0x2B] Naja Salaheem (ID: 16982156/0x0103208C) [11401*]:
     "Hmm...\u0007Do ya think I pushed him a little too far, too fast?\u007F1\u0000\u0007"
171: 0x0597 [0x23] WAIT_FOR_DIALOG_INTERACTION
172: 0x0598 [0x4A] Abquhbah (ID: 16982157/0x0103208D) looks at Naja Salaheem (ID: 16982156/0x0103208C)
173: 0x05A1 [0x2B] Abquhbah (ID: 16982157/0x0103208D) [11402*]:
     "P-President Naja...\u0007What should we do about Falzum?\u007F1\u0000\u0007"
174: 0x05A8 [0x23] WAIT_FOR_DIALOG_INTERACTION
175: 0x05A9 [0x52] END_LOAD_SCHEDULER: End scheduler "s021" with entities [EventEntity, EventEntity], work=298*
176: 0x05B8 [0x45] LOAD_SCHEDULED_TASK: Load scheduler "s022" with entities [EventEntity, EventEntity], work=[298*, 0*]
177: 0x05C9 [0x5B] LOAD_EXT_SCHEDULER: Load scheduler "tld0" with entities [Naja Salaheem (ID: 16982156/0x0103208C), Naja Salaheem (ID: 16982156/0x0103208C)], work=854*
178: 0x05D8 [0x2B] Naja Salaheem (ID: 16982156/0x0103208C) [11403*]:
     "...\u007F1\u0000\u0007"
179: 0x05DF [0x23] WAIT_FOR_DIALOG_INTERACTION
180: 0x05E0 [0x6E] Abquhbah (ID: 16982157/0x0103208D) uses emote 29*
181: 0x05E7 [0x99] Wait for Abquhbah (ID: 16982157/0x0103208D) animation to complete
182: 0x05EC [0x4E] SET_ENTITY_HIDE_FLAG: Show LocalPlayer
183: 0x05F2 [0x2B] Abquhbah (ID: 16982157/0x0103208D) [11404*]:
     "Ah, never mind...\u007F1\u0000\u0007"
184: 0x05F9 [0x23] WAIT_FOR_DIALOG_INTERACTION
185: 0x05FA [0x52] END_LOAD_SCHEDULER: End scheduler "s022" with entities [EventEntity, EventEntity], work=298*
186: 0x0609 [0x45] LOAD_SCHEDULED_TASK: Load scheduler "s024" with entities [EventEntity, EventEntity], work=[298*, 0*]
187: 0x061A [0x29] REQ_SET_WAIT(priority=0x0F, entity_id=Unnamed NPC (ID: 16982539/0x0103220B), tag_num=0x1A)
188: 0x0621 [0x2B] Abquhbah (ID: 16982157/0x0103208D) [11405*]:
     "Oh dear, oh dear...\u007F1\u0000\u0007"
189: 0x0628 [0x23] WAIT_FOR_DIALOG_INTERACTION
190: 0x0629 [0x4A] Abquhbah (ID: 16982157/0x0103208D) looks at LocalPlayer
191: 0x0632 [0x6F] WAIT_FRAME_DELAY: Yield until WaitTime reaches zero
192: 0x0633 [0x70] WAIT_ENTITY_RENDER_FLAG: Wait while EventEntity->Render.Flags3 bit 2 is set (cancel turn if not)
193: 0x0634 [0x1C] WAIT(60* ticks)
194: 0x0637 [0x5B] LOAD_EXT_SCHEDULER: Load scheduler "tld1" with entities [Naja Salaheem (ID: 16982156/0x0103208C), Naja Salaheem (ID: 16982156/0x0103208C)], work=854*
195: 0x0646 [0x81] SET_ENTITY_BLINKING(blink_flag=0x01, entity=Naja Salaheem (ID: 16982156/0x0103208C))
196: 0x064C [0x7C] Naja Salaheem (ID: 16982156/0x0103208C)->Render.Flags2 |= 0x01
197: 0x0652 [0x55] WAIT_LOAD_SCHEDULER: Wait for scheduler "s024" with entities [EventEntity, EventEntity], work=298*
198: 0x0661 [0x45] LOAD_SCHEDULED_TASK: Load scheduler "s025" with entities [EventEntity, EventEntity], work=[298*, 0*]
199: 0x0672 [0x4A] Abquhbah (ID: 16982157/0x0103208D) looks at LocalPlayer
200: 0x067B [0x6F] WAIT_FRAME_DELAY: Yield until WaitTime reaches zero
201: 0x067C [0x70] WAIT_ENTITY_RENDER_FLAG: Wait while EventEntity->Render.Flags3 bit 2 is set (cancel turn if not)
202: 0x067D [0x6E] Abquhbah (ID: 16982157/0x0103208D) uses emote 11*
203: 0x0684 [0x99] Wait for Abquhbah (ID: 16982157/0x0103208D) animation to complete
204: 0x0689 [0x2B] Abquhbah (ID: 16982157/0x0103208D) [11406*]:
     "Ah! \u0008!\u0007What luck!\u007F1\u0000\u0007"
205: 0x0690 [0x23] WAIT_FOR_DIALOG_INTERACTION
206: 0x0691 [0x52] END_LOAD_SCHEDULER: End scheduler "s025" with entities [EventEntity, EventEntity], work=298*
207: 0x06A0 [0x45] LOAD_SCHEDULED_TASK: Load scheduler "s006" with entities [EventEntity, EventEntity], work=[298*, 0*]
208: 0x06B1 [0x2B] Naja Salaheem (ID: 16982156/0x0103208C) [11407*]:
     "Well, if it ain't our most talented Chief Sergeant.\u007F1\u0000\u0007"
209: 0x06B8 [0x23] WAIT_FOR_DIALOG_INTERACTION
210: 0x06B9 [0x52] END_LOAD_SCHEDULER: End scheduler "s006" with entities [EventEntity, EventEntity], work=298*
211: 0x06C8 [0x45] LOAD_SCHEDULED_TASK: Load scheduler "s098" with entities [EventEntity, EventEntity], work=[296*, 0*]
212: 0x06D9 [0x2B] Naja Salaheem (ID: 16982156/0x0103208C) [11408*]:
     "Abquhbah, what are ya waitin' for?\u007F1\u0000\u0007"
213: 0x06E0 [0x23] WAIT_FOR_DIALOG_INTERACTION
214: 0x06E1 [0x52] END_LOAD_SCHEDULER: End scheduler "s098" with entities [EventEntity, EventEntity], work=296*
215: 0x06F0 [0x45] LOAD_SCHEDULED_TASK: Load scheduler "s099" with entities [EventEntity, EventEntity], work=[296*, 0*]
216: 0x0701 [0x4A] Abquhbah (ID: 16982157/0x0103208D) looks at Naja Salaheem (ID: 16982156/0x0103208C)
217: 0x070A [0x2B] Abquhbah (ID: 16982157/0x0103208D) [11409*]:
     "I'm sorry?\u007F1\u0000\u0007"
218: 0x0711 [0x23] WAIT_FOR_DIALOG_INTERACTION
219: 0x0712 [0x52] END_LOAD_SCHEDULER: End scheduler "s099" with entities [EventEntity, EventEntity], work=296*
220: 0x0721 [0x45] LOAD_SCHEDULED_TASK: Load scheduler "s100" with entities [EventEntity, EventEntity], work=[296*, 0*]
221: 0x0732 [0x4A] Naja Salaheem (ID: 16982156/0x0103208C) looks at Abquhbah (ID: 16982157/0x0103208D)
222: 0x073B [0x6F] WAIT_FRAME_DELAY: Yield until WaitTime reaches zero
223: 0x073C [0x70] WAIT_ENTITY_RENDER_FLAG: Wait while EventEntity->Render.Flags3 bit 2 is set (cancel turn if not)
224: 0x073D [0x7B] Naja Salaheem (ID: 16982156/0x0103208C) stops talking
225: 0x0742 [0x5B] LOAD_EXT_SCHEDULER: Load scheduler "pnb0" with entities [Naja Salaheem (ID: 16982156/0x0103208C), Naja Salaheem (ID: 16982156/0x0103208C)], work=836*
226: 0x0751 [0x2B] Naja Salaheem (ID: 16982156/0x0103208C) [11410*]:
     "For the love of...\u0007Plan Sigma!\u007F1\u0000\u0007"
227: 0x0758 [0x23] WAIT_FOR_DIALOG_INTERACTION
228: 0x0759 [0x5B] LOAD_EXT_SCHEDULER: Load scheduler "pnb1" with entities [Naja Salaheem (ID: 16982156/0x0103208C), Naja Salaheem (ID: 16982156/0x0103208C)], work=836*
229: 0x0768 [0x52] END_LOAD_SCHEDULER: End scheduler "s100" with entities [EventEntity, EventEntity], work=296*
230: 0x0777 [0x45] LOAD_SCHEDULED_TASK: Load scheduler "s101" with entities [EventEntity, EventEntity], work=[296*, 0*]
231: 0x0788 [0x6E] Abquhbah (ID: 16982157/0x0103208D) uses emote 29*
232: 0x078F [0x99] Wait for Abquhbah (ID: 16982157/0x0103208D) animation to complete
233: 0x0794 [0x2B] Abquhbah (ID: 16982157/0x0103208D) [11411*]:
     "Oh!\u007F1\u0000\u0007"
234: 0x079B [0x23] WAIT_FOR_DIALOG_INTERACTION
235: 0x079C [0x4A] Abquhbah (ID: 16982157/0x0103208D) looks at LocalPlayer
236: 0x07A5 [0x52] END_LOAD_SCHEDULER: End scheduler "s101" with entities [EventEntity, EventEntity], work=296*
237: 0x07B4 [0x45] LOAD_SCHEDULED_TASK: Load scheduler "s102" with entities [EventEntity, EventEntity], work=[296*, 0*]
238: 0x07C5 [0x4A] Abquhbah (ID: 16982157/0x0103208D) looks at LocalPlayer
239: 0x07CE [0x6F] WAIT_FRAME_DELAY: Yield until WaitTime reaches zero
240: 0x07CF [0x70] WAIT_ENTITY_RENDER_FLAG: Wait while EventEntity->Render.Flags3 bit 2 is set (cancel turn if not)
241: 0x07D0 [0x6E] Abquhbah (ID: 16982157/0x0103208D) uses emote 13*
242: 0x07D7 [0x99] Wait for Abquhbah (ID: 16982157/0x0103208D) animation to complete
243: 0x07DC [0x2B] Abquhbah (ID: 16982157/0x0103208D) [11412*]:
     "Congratulations, \u0008!\u007F1\u0000\u0007"
244: 0x07E3 [0x23] WAIT_FOR_DIALOG_INTERACTION
245: 0x07E4 [0x52] END_LOAD_SCHEDULER: End scheduler "s102" with entities [EventEntity, EventEntity], work=296*
246: 0x07F3 [0x45] LOAD_SCHEDULED_TASK: Load scheduler "s103" with entities [EventEntity, EventEntity], work=[296*, 0*]
247: 0x0804 [0x4A] Naja Salaheem (ID: 16982156/0x0103208C) looks at LocalPlayer
248: 0x080D [0x6F] WAIT_FRAME_DELAY: Yield until WaitTime reaches zero
249: 0x080E [0x70] WAIT_ENTITY_RENDER_FLAG: Wait while EventEntity->Render.Flags3 bit 2 is set (cancel turn if not)
250: 0x080F [0x7B] Naja Salaheem (ID: 16982156/0x0103208C) stops talking
251: 0x0814 [0x2B] Abquhbah (ID: 16982157/0x0103208D) [11413*]:
     "You've been selected from over five thousand mercenary candidates as the \u00072President's Choice\u00073 for the Salaheem Officer Academy!\u007F1\u0000\u0007"
252: 0x081B [0x23] WAIT_FOR_DIALOG_INTERACTION
253: 0x081C [0x52] END_LOAD_SCHEDULER: End scheduler "s103" with entities [EventEntity, EventEntity], work=296*
254: 0x082B [0x45] LOAD_SCHEDULED_TASK: Load scheduler "s104" with entities [EventEntity, EventEntity], work=[296*, 0*]
255: 0x083C [0x2B] Naja Salaheem (ID: 16982156/0x0103208C) [11414*]:
     "And it was a hard decision, let me tell ya.\u007F1\u0000\u0007"
256: 0x0843 [0x23] WAIT_FOR_DIALOG_INTERACTION
257: 0x0844 [0x52] END_LOAD_SCHEDULER: End scheduler "s104" with entities [EventEntity, EventEntity], work=296*
258: 0x0853 [0x45] LOAD_SCHEDULED_TASK: Load scheduler "s105" with entities [EventEntity, EventEntity], work=[296*, 0*]
259: 0x0864 [0x2B] Naja Salaheem (ID: 16982156/0x0103208C) [11415*]:
     "But your name was the one to make it through, Chief Sergeant \u0008.\u007F1\u0000\u0007"
260: 0x086B [0x23] WAIT_FOR_DIALOG_INTERACTION
261: 0x086C [0x52] END_LOAD_SCHEDULER: End scheduler "s105" with entities [EventEntity, EventEntity], work=296*
262: 0x087B [0x45] LOAD_SCHEDULED_TASK: Load scheduler "s026" with entities [EventEntity, EventEntity], work=[298*, 0*]
263: 0x088C [0x81] SET_ENTITY_BLINKING(blink_flag=0x00, entity=Naja Salaheem (ID: 16982156/0x0103208C))
264: 0x0892 [0x5B] LOAD_EXT_SCHEDULER: Load scheduler "tld0" with entities [Naja Salaheem (ID: 16982156/0x0103208C), Naja Salaheem (ID: 16982156/0x0103208C)], work=854*
265: 0x08A1 [0x2B] Naja Salaheem (ID: 16982156/0x0103208C) [11416*]:
     "If we weren't so busy with company administrrration and management, why, we'd jump for the chance to attend this prrrestigious school. Ain't that rrright, Abquhbah?\u007F1\u0000\u0007"
266: 0x08A8 [0x23] WAIT_FOR_DIALOG_INTERACTION
267: 0x08A9 [0x52] END_LOAD_SCHEDULER: End scheduler "s026" with entities [EventEntity, EventEntity], work=298*
268: 0x08B8 [0x45] LOAD_SCHEDULED_TASK: Load scheduler "s106" with entities [EventEntity, EventEntity], work=[296*, 0*]
269: 0x08C9 [0x4A] Abquhbah (ID: 16982157/0x0103208D) looks at Naja Salaheem (ID: 16982156/0x0103208C)
270: 0x08D2 [0x6F] WAIT_FRAME_DELAY: Yield until WaitTime reaches zero
271: 0x08D3 [0x70] WAIT_ENTITY_RENDER_FLAG: Wait while EventEntity->Render.Flags3 bit 2 is set (cancel turn if not)
272: 0x08D4 [0x6E] Abquhbah (ID: 16982157/0x0103208D) uses emote 11*
273: 0x08DB [0x99] Wait for Abquhbah (ID: 16982157/0x0103208D) animation to complete
274: 0x08E0 [0x2B] Abquhbah (ID: 16982157/0x0103208D) [11417*]:
     "O-of course, President Naja!\u007F1\u0000\u0007"
275: 0x08E7 [0x23] WAIT_FOR_DIALOG_INTERACTION
276: 0x08E8 [0x52] END_LOAD_SCHEDULER: End scheduler "s106" with entities [EventEntity, EventEntity], work=296*
277: 0x08F7 [0x45] LOAD_SCHEDULED_TASK: Load scheduler "s107" with entities [EventEntity, EventEntity], work=[296*, 0*]
278: 0x0908 [0x4A] Abquhbah (ID: 16982157/0x0103208D) looks at LocalPlayer
279: 0x0911 [0x6F] WAIT_FRAME_DELAY: Yield until WaitTime reaches zero
280: 0x0912 [0x70] WAIT_ENTITY_RENDER_FLAG: Wait while EventEntity->Render.Flags3 bit 2 is set (cancel turn if not)
281: 0x0913 [0x2B] Abquhbah (ID: 16982157/0x0103208D) [11418*]:
     "All the latest facilities. Sumptuous meals. Kind and experienced tutors.\u0007It's the sort of dream academy that produces the elite of the elite.\u007F1\u0000\u0007"
282: 0x091A [0x23] WAIT_FOR_DIALOG_INTERACTION
283: 0x091B [0x52] END_LOAD_SCHEDULER: End scheduler "s107" with entities [EventEntity, EventEntity], work=296*
284: 0x092A [0x45] LOAD_SCHEDULED_TASK: Load scheduler "s027" with entities [EventEntity, EventEntity], work=[298*, 0*]
285: 0x093B [0x2B] Naja Salaheem (ID: 16982156/0x0103208C) [11419*]:
     "So, \u0008.\u0007Can I assume you're rrrarin' to enroll in the Salaheem Officer Academy?\u007F1\u0000\u0007"
286: 0x0942 [0x23] WAIT_FOR_DIALOG_INTERACTION
287: 0x0943 [0x24] CREATE_DIALOG(message_id=11420*, default_option=0*, option_flags=0*)
     "Rrrarin' to enroll?\u0007\u000BReady and willing.\u0007Officer Academy...?\u007F1\u0000\u0007"
288: 0x094A [0x25] WAIT_DIALOG_SELECT()
289: 0x094B [0x02] IF !(Work_Zone[0] == 0*) GOTO 0x09F0
290: 0x0953 [0x6E] LocalPlayer uses emote 7*
291: 0x095A [0x99] Wait for LocalPlayer animation to complete
292: 0x095F [0x1C] WAIT(90* ticks)
293: 0x0962 [0x52] END_LOAD_SCHEDULER: End scheduler "s027" with entities [EventEntity, EventEntity], work=298*
294: 0x0971 [0x45] LOAD_SCHEDULED_TASK: Load scheduler "s028" with entities [EventEntity, EventEntity], work=[298*, 0*]
295: 0x0982 [0x5B] LOAD_EXT_SCHEDULER: Load scheduler "tld1" with entities [Naja Salaheem (ID: 16982156/0x0103208C), Naja Salaheem (ID: 16982156/0x0103208C)], work=854*
296: 0x0991 [0x81] SET_ENTITY_BLINKING(blink_flag=0x01, entity=Naja Salaheem (ID: 16982156/0x0103208C))
297: 0x0997 [0x1C] WAIT(90* ticks)
298: 0x099A [0x81] SET_ENTITY_BLINKING(blink_flag=0x00, entity=Naja Salaheem (ID: 16982156/0x0103208C))
