# 16982264 - Ratihb

## Common Data

| Field            | Value                         |
|------------------|-------------------------------|
| Zone             | Aht Urhgan Whitegate (ID: 50) |
| Block Size       | 724 bytes                     |
| Total Events     | 28                            |
| References Count | 34                            |

## List of Events

| Event ID                  | Entrypoint   |   Size |   Instructions |
|---------------------------|--------------|--------|----------------|
| [65535](#event-65535)     | 0x0000       |      1 |              1 |
| [3](#event-3)             | 0x0001       |     13 |              3 |
| [65535.1](#event-65535-1) | 0x000E       |     10 |              2 |
| [65535.2](#event-65535-2) | 0x0018       |     14 |              4 |
| [65535.3](#event-65535-3) | 0x0026       |     19 |              5 |
| [65535.4](#event-65535-4) | 0x0039       |     19 |              5 |
| [65535.5](#event-65535-5) | 0x004C       |     15 |              3 |
| [65535.6](#event-65535-6) | 0x005B       |     14 |              4 |
| [19](#event-19)           | 0x0069       |     11 |              5 |
| [20](#event-20)           | 0x0074       |     11 |              5 |
| [21](#event-21)           | 0x007F       |     11 |              5 |
| [65535.7](#event-65535-7) | 0x008A       |     11 |              5 |
| [646](#event-646)         | 0x0095       |     17 |              7 |
| [603](#event-603)         | 0x00A6       |     17 |              7 |
| [604](#event-604)         | 0x00B7       |     15 |              7 |
| [604.1](#event-604-1)     | 0x00C6       |     18 |              6 |
| [3092](#event-3092)       | 0x00D8       |      1 |              1 |
| [65535.8](#event-65535-8) | 0x00D9       |      1 |              1 |
| [3026](#event-3026)       | 0x00DA       |      7 |              2 |
| [3027](#event-3027)       | 0x00E1       |      7 |              2 |
| [3033](#event-3033)       | 0x00E8       |      7 |              2 |
| [3034](#event-3034)       | 0x00EF       |      7 |              2 |
| [840](#event-840)         | 0x00F6       |      1 |              1 |
| [841](#event-841)         | 0x00F7       |     29 |              7 |
| [862](#event-862)         | 0x0114       |    162 |             37 |
| [864](#event-864)         | 0x01B6       |      7 |              2 |
| [872](#event-872)         | 0x01BD       |      7 |              2 |
| [3136](#event-3136)       | 0x01C4       |      7 |              2 |

## DAT References (imed_data)

|   Index | Hex Value   |   Dec Value |
|---------|-------------|-------------|
|       0 | 0x6AA6      |       27302 |
|       1 | 0xFFFE2641  |  4294846017 |
|       2 | 0xFFFFE890  |  4294961296 |
|       3 | 0x03E0      |         992 |
|       4 | 0x000D      |          13 |
|       5 | 0x6B36      |       27446 |
|       6 | 0xFFFE1B9D  |  4294843293 |
|       7 | 0xFFFFE891  |  4294961297 |
|       8 | 0x6B5E      |       27486 |
|       9 | 0xFFFE1919  |  4294842649 |
|      10 | 0x6CA8      |       27816 |
|      11 | 0xFFFE18E4  |  4294842596 |
|      12 | 0x6790      |       26512 |
|      13 | 0xFFFE21E4  |  4294844900 |
|      14 | 0x090D      |        2317 |
|      15 | 0x000C      |          12 |
|      16 | 0x6229      |       25129 |
|      17 | 0xFFFE2262  |  4294845026 |
|      18 | 0x1308      |        4872 |
|      19 | 0x1D66      |        7526 |
|      20 | 0x1D65      |        7525 |
|      21 | 0x001E      |          30 |
|      22 | 0x1D28      |        7464 |
|      23 | 0x0009      |           9 |
|      24 | 0x1C06      |        7174 |
|      25 | 0x1C7E      |        7294 |
|      26 | 0x1C7F      |        7295 |
|      27 | 0x1C80      |        7296 |
|      28 | 0x1C81      |        7297 |
|      29 | 0x0000      |           0 |
|      30 | 0x0001      |           1 |
|      31 | 0x1C82      |        7298 |
|      32 | 0x0002      |           2 |
|      33 | 0x0003      |           3 |

## Events

### Event 65535

#### Metadata

| Field        | Value   |
|--------------|---------|
| Entrypoint   | 0x0000  |
| Data Size    | 1 bytes |
| Instructions | 1       |

```
      00 01 02 03 04 05 06 07  08 09 0A 0B 0C 0D 0E 0F
      -- -- -- -- -- -- -- --  -- -- -- -- -- -- -- --
0000: 00                                                .               
```

#### Opcodes

```
  0: 0x0000 [0x00] END_REQSTACK()
```

### Event 3

#### Metadata

| Field        | Value    |
|--------------|----------|
| Entrypoint   | 0x0001   |
| Data Size    | 13 bytes |
| Instructions | 3        |

```
      00 01 02 03 04 05 06 07  08 09 0A 0B 0C 0D 0E 0F
      -- -- -- -- -- -- -- --  -- -- -- -- -- -- -- --
0000:    92 01 F8 FF FF 7F 94  01 F8 FF FF 7F 00         .............  
```

#### Opcodes

```
  0: 0x0001 [0x92] EventEntity->Render.Flags3 ^= 0x01
  1: 0x0007 [0x94] EventEntity->Render.Flags3 ^= 0x01
  2: 0x000D [0x00] END_REQSTACK()
```

### Event 65535.1

#### Metadata

| Field        | Value    |
|--------------|----------|
| Entrypoint   | 0x000E   |
| Data Size    | 10 bytes |
| Instructions | 2        |

```
      00 01 02 03 04 05 06 07  08 09 0A 0B 0C 0D 0E 0F
      -- -- -- -- -- -- -- --  -- -- -- -- -- -- -- --
0000:                                            37 00                7.
0010: 80 01 80 02 80 03 80 00                           ........        
```

#### Opcodes

```
  0: 0x000E [0x37] UPDATE_EVENT_POSITION_AND_DIR: x=27.302*, z=-121.279*, y=-6.000*, direction=87.2°*
  1: 0x0017 [0x00] END_REQSTACK()
```

### Event 65535.2

#### Metadata

| Field        | Value    |
|--------------|----------|
| Entrypoint   | 0x0018   |
| Data Size    | 14 bytes |
| Instructions | 4        |

```
      00 01 02 03 04 05 06 07  08 09 0A 0B 0C 0D 0E 0F
      -- -- -- -- -- -- -- --  -- -- -- -- -- -- -- --
0010:                          32 04 80 1F 00 05 80 06          2.......
0020: 80 07 80 1F 01 00                                 ......          
```

#### Opcodes

```
  0: 0x0018 [0x32] ExtData[1]->MainSpeed = 13* * 0.1
  1: 0x001B [0x1F] MOVE_ENTITY: EventEntity moves to X=27.446*, Z=-124.003*, Y=-5.999*
  2: 0x0023 [0x1F] MOVE_ENTITY: Update entity position (mode=1)
  3: 0x0025 [0x00] END_REQSTACK()
```

### Event 65535.3

#### Metadata

| Field        | Value    |
|--------------|----------|
| Entrypoint   | 0x0026   |
| Data Size    | 19 bytes |
| Instructions | 5        |

```
      00 01 02 03 04 05 06 07  08 09 0A 0B 0C 0D 0E 0F
      -- -- -- -- -- -- -- --  -- -- -- -- -- -- -- --
0020:                   32 04  80 1F 00 08 80 09 80 07        2.........
0030: 80 1F 01 1E F6 20 03 01  00                       ..... ...       
```

#### Opcodes

```
  0: 0x0026 [0x32] ExtData[1]->MainSpeed = 13* * 0.1
  1: 0x0029 [0x1F] MOVE_ENTITY: EventEntity moves to X=27.486*, Z=-124.647*, Y=-5.999*
  2: 0x0031 [0x1F] MOVE_ENTITY: Update entity position (mode=1)
  3: 0x0033 [0x1E] EventEntity looks at Tinga-Matonga (ID: 16982262/0x010320F6) and starts talking
  4: 0x0038 [0x00] END_REQSTACK()
```

### Event 65535.4

#### Metadata

| Field        | Value    |
|--------------|----------|
| Entrypoint   | 0x0039   |
| Data Size    | 19 bytes |
| Instructions | 5        |

```
      00 01 02 03 04 05 06 07  08 09 0A 0B 0C 0D 0E 0F
      -- -- -- -- -- -- -- --  -- -- -- -- -- -- -- --
0030:                             32 04 80 1F 00 0A 80           2......
0040: 0B 80 07 80 1F 01 1E F6  20 03 01 00              ........ ...    
```

#### Opcodes

```
  0: 0x0039 [0x32] ExtData[1]->MainSpeed = 13* * 0.1
  1: 0x003C [0x1F] MOVE_ENTITY: EventEntity moves to X=27.816*, Z=-124.700*, Y=-5.999*
  2: 0x0044 [0x1F] MOVE_ENTITY: Update entity position (mode=1)
  3: 0x0046 [0x1E] EventEntity looks at Tinga-Matonga (ID: 16982262/0x010320F6) and starts talking
  4: 0x004B [0x00] END_REQSTACK()
```

### Event 65535.5

#### Metadata

| Field        | Value    |
|--------------|----------|
| Entrypoint   | 0x004C   |
| Data Size    | 15 bytes |
| Instructions | 3        |

```
      00 01 02 03 04 05 06 07  08 09 0A 0B 0C 0D 0E 0F
      -- -- -- -- -- -- -- --  -- -- -- -- -- -- -- --
0040:                                      37 0C 80 0D              7...
0050: 80 02 80 0E 80 1E F7 20  03 01 00                 ....... ...     
```

#### Opcodes

```
  0: 0x004C [0x37] UPDATE_EVENT_POSITION_AND_DIR: x=26.512*, z=-122.396*, y=-6.000*, direction=203.6°*
  1: 0x0055 [0x1E] EventEntity looks at Alcander (ID: 16982263/0x010320F7) and starts talking
  2: 0x005A [0x00] END_REQSTACK()
```

### Event 65535.6

#### Metadata

| Field        | Value    |
|--------------|----------|
| Entrypoint   | 0x005B   |
| Data Size    | 14 bytes |
| Instructions | 4        |

```
      00 01 02 03 04 05 06 07  08 09 0A 0B 0C 0D 0E 0F
      -- -- -- -- -- -- -- --  -- -- -- -- -- -- -- --
0050:                                   32 0F 80 1F 00             2....
0060: 10 80 11 80 07 80 1F 01  00                       .........       
```

#### Opcodes

```
  0: 0x005B [0x32] ExtData[1]->MainSpeed = 12* * 0.1
  1: 0x005E [0x1F] MOVE_ENTITY: EventEntity moves to X=25.129*, Z=-122.270*, Y=-5.999*
  2: 0x0066 [0x1F] MOVE_ENTITY: Update entity position (mode=1)
  3: 0x0068 [0x00] END_REQSTACK()
```

### Event 19

#### Metadata

| Field        | Value    |
|--------------|----------|
| Entrypoint   | 0x0069   |
| Data Size    | 11 bytes |
| Instructions | 5        |

```
      00 01 02 03 04 05 06 07  08 09 0A 0B 0C 0D 0E 0F
      -- -- -- -- -- -- -- --  -- -- -- -- -- -- -- --
0060:                             1E F0 FF FF 7F 48 12           .....H.
0070: 80 23 21 00                                       .#!.            
```

#### Opcodes

```
  0: 0x0069 [0x1E] EventEntity looks at LocalPlayer and starts talking
  1: 0x006E [0x48] [System] [4872*]:
    → "DEBUG: Press a button to continue.\u007F1\u0000\u0007"
  2: 0x0071 [0x23] WAIT_FOR_DIALOG_INTERACTION
  3: 0x0072 [0x21] END_EVENT
  4: 0x0073 [0x00] END_REQSTACK()
```

### Event 20

#### Metadata

| Field        | Value    |
|--------------|----------|
| Entrypoint   | 0x0074   |
| Data Size    | 11 bytes |
| Instructions | 5        |

```
      00 01 02 03 04 05 06 07  08 09 0A 0B 0C 0D 0E 0F
      -- -- -- -- -- -- -- --  -- -- -- -- -- -- -- --
0070:             1E F0 FF FF  7F 48 12 80 23 21 00         .....H..#!. 
```

#### Opcodes

```
  0: 0x0074 [0x1E] EventEntity looks at LocalPlayer and starts talking
  1: 0x0079 [0x48] [System] [4872*]:
    → "DEBUG: Press a button to continue.\u007F1\u0000\u0007"
  2: 0x007C [0x23] WAIT_FOR_DIALOG_INTERACTION
  3: 0x007D [0x21] END_EVENT
  4: 0x007E [0x00] END_REQSTACK()
```

### Event 21

#### Metadata

| Field        | Value    |
|--------------|----------|
| Entrypoint   | 0x007F   |
| Data Size    | 11 bytes |
| Instructions | 5        |

```
      00 01 02 03 04 05 06 07  08 09 0A 0B 0C 0D 0E 0F
      -- -- -- -- -- -- -- --  -- -- -- -- -- -- -- --
0070:                                               1E                 .
0080: F0 FF FF 7F 48 12 80 23  21 00                    ....H..#!.      
```

#### Opcodes

```
  0: 0x007F [0x1E] EventEntity looks at LocalPlayer and starts talking
  1: 0x0084 [0x48] [System] [4872*]:
    → "DEBUG: Press a button to continue.\u007F1\u0000\u0007"
  2: 0x0087 [0x23] WAIT_FOR_DIALOG_INTERACTION
  3: 0x0088 [0x21] END_EVENT
  4: 0x0089 [0x00] END_REQSTACK()
```

### Event 65535.7

#### Metadata

| Field        | Value    |
|--------------|----------|
| Entrypoint   | 0x008A   |
| Data Size    | 11 bytes |
| Instructions | 5        |

```
      00 01 02 03 04 05 06 07  08 09 0A 0B 0C 0D 0E 0F
      -- -- -- -- -- -- -- --  -- -- -- -- -- -- -- --
0080:                                1E F0 FF FF 7F 48            .....H
0090: 12 80 23 21 00                                    ..#!.           
```

#### Opcodes

```
  0: 0x008A [0x1E] EventEntity looks at LocalPlayer and starts talking
  1: 0x008F [0x48] [System] [4872*]:
    → "DEBUG: Press a button to continue.\u007F1\u0000\u0007"
  2: 0x0092 [0x23] WAIT_FOR_DIALOG_INTERACTION
  3: 0x0093 [0x21] END_EVENT
  4: 0x0094 [0x00] END_REQSTACK()
```

### Event 646

#### Metadata

| Field        | Value    |
|--------------|----------|
| Entrypoint   | 0x0095   |
| Data Size    | 17 bytes |
| Instructions | 7        |

```
      00 01 02 03 04 05 06 07  08 09 0A 0B 0C 0D 0E 0F
      -- -- -- -- -- -- -- --  -- -- -- -- -- -- -- --
0090:                1E F0 FF  FF 7F 6F 70 2B F8 20 03       .....op+. .
00A0: 01 13 80 23 21 00                                 ...#!.          
```

#### Opcodes

```
  0: 0x0095 [0x1E] EventEntity looks at LocalPlayer and starts talking
  1: 0x009A [0x6F] WAIT_FRAME_DELAY: Yield until WaitTime reaches zero
  2: 0x009B [0x70] WAIT_ENTITY_RENDER_FLAG: Wait while EventEntity->Render.Flags3 bit 2 is set (cancel turn if not)
  3: 0x009C [0x2B] Ratihb (ID: 16982264/0x010320F8) [7526*]:
    → "I don't know what's gotten into Wasuhd.\u0007Sorry for the trouble, but I would appreciate it if you would check on him for me.\u007F1\u0000\u0007"
  4: 0x00A3 [0x23] WAIT_FOR_DIALOG_INTERACTION
  5: 0x00A4 [0x21] END_EVENT
  6: 0x00A5 [0x00] END_REQSTACK()
```

### Event 603

#### Metadata

| Field        | Value    |
|--------------|----------|
| Entrypoint   | 0x00A6   |
| Data Size    | 17 bytes |
| Instructions | 7        |

```
      00 01 02 03 04 05 06 07  08 09 0A 0B 0C 0D 0E 0F
      -- -- -- -- -- -- -- --  -- -- -- -- -- -- -- --
00A0:                   1E F0  FF FF 7F 6F 70 2B F8 20        .....op+. 
00B0: 03 01 14 80 23 21 00                              ....#!.         
```

#### Opcodes

```
  0: 0x00A6 [0x1E] EventEntity looks at LocalPlayer and starts talking
  1: 0x00AB [0x6F] WAIT_FRAME_DELAY: Yield until WaitTime reaches zero
  2: 0x00AC [0x70] WAIT_ENTITY_RENDER_FLAG: Wait while EventEntity->Render.Flags3 bit 2 is set (cancel turn if not)
  3: 0x00AD [0x2B] Ratihb (ID: 16982264/0x010320F8) [7525*]:
    → "Welcome to Shararat Teahouse! Revitalize your mind and body with a refreshing cup of chai!\u007F1\u0000\u0007"
  4: 0x00B4 [0x23] WAIT_FOR_DIALOG_INTERACTION
  5: 0x00B5 [0x21] END_EVENT
  6: 0x00B6 [0x00] END_REQSTACK()
```

### Event 604

#### Metadata

| Field        | Value    |
|--------------|----------|
| Entrypoint   | 0x00B7   |
| Data Size    | 15 bytes |
| Instructions | 7        |

```
      00 01 02 03 04 05 06 07  08 09 0A 0B 0C 0D 0E 0F
      -- -- -- -- -- -- -- --  -- -- -- -- -- -- -- --
00B0:                      42  1E F0 FF FF 7F 1C 15 80         B........
00C0: 1D 16 80 23 21 00                                 ...#!.          
```

#### Opcodes

```
  0: 0x00B7 [0x42] SET_CLI_EVENT_CANCEL_DATA()
  1: 0x00B8 [0x1E] EventEntity looks at LocalPlayer and starts talking
  2: 0x00BD [0x1C] WAIT(30* ticks)
  3: 0x00C0 [0x1D] PRINT_EVENT_MESSAGE(message_id=7464*)
    → "Oh, hello.\u0007Balajaha told me to give this to you the next time I saw you.\u007F1\u0000\u0007"
  4: 0x00C3 [0x23] WAIT_FOR_DIALOG_INTERACTION
  5: 0x00C4 [0x21] END_EVENT
  6: 0x00C5 [0x00] END_REQSTACK()
```

### Event 604.1

#### Metadata

| Field        | Value    |
|--------------|----------|
| Entrypoint   | 0x00C6   |
| Data Size    | 18 bytes |
| Instructions | 6        |

```
      00 01 02 03 04 05 06 07  08 09 0A 0B 0C 0D 0E 0F
      -- -- -- -- -- -- -- --  -- -- -- -- -- -- -- --
00C0:                   1E F0  FF FF 7F 1C 15 80 2B F8        ........+.
00D0: 20 03 01 14 80 23 21 00                            ....#!.        
```

#### Opcodes

```
  0: 0x00C6 [0x1E] EventEntity looks at LocalPlayer and starts talking
  1: 0x00CB [0x1C] WAIT(30* ticks)
  2: 0x00CE [0x2B] Ratihb (ID: 16982264/0x010320F8) [7525*]:
    → "Welcome to Shararat Teahouse! Revitalize your mind and body with a refreshing cup of chai!\u007F1\u0000\u0007"
  3: 0x00D5 [0x23] WAIT_FOR_DIALOG_INTERACTION
  4: 0x00D6 [0x21] END_EVENT
  5: 0x00D7 [0x00] END_REQSTACK()
```

### Event 3092

#### Metadata

| Field        | Value   |
|--------------|---------|
| Entrypoint   | 0x00D8  |
| Data Size    | 1 bytes |
| Instructions | 1       |

```
      00 01 02 03 04 05 06 07  08 09 0A 0B 0C 0D 0E 0F
      -- -- -- -- -- -- -- --  -- -- -- -- -- -- -- --
00D0:                          00                               .       
```

#### Opcodes

```
  0: 0x00D8 [0x00] END_REQSTACK()
```

### Event 65535.8

#### Metadata

| Field        | Value   |
|--------------|---------|
| Entrypoint   | 0x00D9  |
| Data Size    | 1 bytes |
| Instructions | 1       |

```
      00 01 02 03 04 05 06 07  08 09 0A 0B 0C 0D 0E 0F
      -- -- -- -- -- -- -- --  -- -- -- -- -- -- -- --
00D0:                             00                             .      
```

#### Opcodes

```
  0: 0x00D9 [0x00] END_REQSTACK()
```

### Event 3026

#### Metadata

| Field        | Value   |
|--------------|---------|
| Entrypoint   | 0x00DA  |
| Data Size    | 7 bytes |
| Instructions | 2       |

```
      00 01 02 03 04 05 06 07  08 09 0A 0B 0C 0D 0E 0F
      -- -- -- -- -- -- -- --  -- -- -- -- -- -- -- --
00D0:                                92 01 F8 FF FF 7F            ......
00E0: 00                                                .               
```

#### Opcodes

```
  0: 0x00DA [0x92] EventEntity->Render.Flags3 ^= 0x01
  1: 0x00E0 [0x00] END_REQSTACK()
```

### Event 3027

#### Metadata

| Field        | Value   |
|--------------|---------|
| Entrypoint   | 0x00E1  |
| Data Size    | 7 bytes |
| Instructions | 2       |

```
      00 01 02 03 04 05 06 07  08 09 0A 0B 0C 0D 0E 0F
      -- -- -- -- -- -- -- --  -- -- -- -- -- -- -- --
00E0:    92 01 F8 FF FF 7F 00                            .......        
```

#### Opcodes

```
  0: 0x00E1 [0x92] EventEntity->Render.Flags3 ^= 0x01
  1: 0x00E7 [0x00] END_REQSTACK()
```

### Event 3033

#### Metadata

| Field        | Value   |
|--------------|---------|
| Entrypoint   | 0x00E8  |
| Data Size    | 7 bytes |
| Instructions | 2       |

```
      00 01 02 03 04 05 06 07  08 09 0A 0B 0C 0D 0E 0F
      -- -- -- -- -- -- -- --  -- -- -- -- -- -- -- --
00E0:                          92 01 F8 FF FF 7F 00             ....... 
```

#### Opcodes

```
  0: 0x00E8 [0x92] EventEntity->Render.Flags3 ^= 0x01
  1: 0x00EE [0x00] END_REQSTACK()
```

### Event 3034

#### Metadata

| Field        | Value   |
|--------------|---------|
| Entrypoint   | 0x00EF  |
| Data Size    | 7 bytes |
| Instructions | 2       |

```
      00 01 02 03 04 05 06 07  08 09 0A 0B 0C 0D 0E 0F
      -- -- -- -- -- -- -- --  -- -- -- -- -- -- -- --
00E0:                                               92                 .
00F0: 01 F8 FF FF 7F 00                                 ......          
```

#### Opcodes

```
  0: 0x00EF [0x92] EventEntity->Render.Flags3 ^= 0x01
  1: 0x00F5 [0x00] END_REQSTACK()
```

### Event 840

#### Metadata

| Field        | Value   |
|--------------|---------|
| Entrypoint   | 0x00F6  |
| Data Size    | 1 bytes |
| Instructions | 1       |

```
      00 01 02 03 04 05 06 07  08 09 0A 0B 0C 0D 0E 0F
      -- -- -- -- -- -- -- --  -- -- -- -- -- -- -- --
00F0:                   00                                    .         
```

#### Opcodes

```
  0: 0x00F6 [0x00] END_REQSTACK()
```

### Event 841

#### Metadata

| Field        | Value    |
|--------------|----------|
| Entrypoint   | 0x00F7   |
| Data Size    | 29 bytes |
| Instructions | 7        |

```
      00 01 02 03 04 05 06 07  08 09 0A 0B 0C 0D 0E 0F
      -- -- -- -- -- -- -- --  -- -- -- -- -- -- -- --
00F0:                      1E  F0 FF FF 7F 1C 15 80 66         ........f
0100: 17 80 F8 FF FF 7F F8 FF  FF 7F 74 68 6B 31 1D 18  ..........thk1..
0110: 80 23 21 00                                       .#!.            
```

#### Opcodes

```
  0: 0x00F7 [0x1E] EventEntity looks at LocalPlayer and starts talking
  1: 0x00FC [0x1C] WAIT(30* ticks)
  2: 0x00FF [0x66] LOAD_EXT_SCHEDULER_MAIN: Load scheduler "thk1" with entities [EventEntity, EventEntity], work=9*
  3: 0x010E [0x1D] PRINT_EVENT_MESSAGE(message_id=7174*)
    → "Nothing but whimpering soldiers, meddling adventurers, and snooping Mithra... Why can't I get any paying customers!?\u007F1\u0000\u0007"
  4: 0x0111 [0x23] WAIT_FOR_DIALOG_INTERACTION
  5: 0x0112 [0x21] END_EVENT
  6: 0x0113 [0x00] END_REQSTACK()
```

### Event 862

#### Metadata

| Field        | Value     |
|--------------|-----------|
| Entrypoint   | 0x0114    |
| Data Size    | 162 bytes |
| Instructions | 37        |

```
      00 01 02 03 04 05 06 07  08 09 0A 0B 0C 0D 0E 0F
      -- -- -- -- -- -- -- --  -- -- -- -- -- -- -- --
0110:             66 17 80 F8  FF FF 7F F8 FF FF 7F 74      f..........t
0120: 68 6B 31 1D 19 80 23 66  17 80 F8 FF FF 7F F8 FF  hk1...#f........
0130: FF 7F 74 68 6B 32 1E F0  FF FF 7F 1C 15 80 1D 1A  ..thk2..........
0140: 80 23 66 17 80 F8 FF FF  7F F8 FF FF 7F 74 6C 6B  .#f..........tlk
0150: 30 1D 1B 80 23 66 17 80  F8 FF FF 7F F8 FF FF 7F  0...#f..........
0160: 74 6C 6B 31 24 1C 80 1D  80 1D 80 25 02 00 10 1D  tlk1$......%....
0170: 80 00 84 01 03 01 10 1E  80 43 00 43 01 1D 1F 80  .........C.C....
0180: 23 01 B4 01 02 00 10 1E  80 00 9C 01 03 01 10 20  #.............. 
0190: 80 43 00 43 01 1D 1F 80  23 01 B4 01 02 00 10 20  .C.C....#...... 
01A0: 80 00 B4 01 03 01 10 21  80 43 00 43 01 1D 1F 80  .......!.C.C....
01B0: 23 01 B4 01 21 00                                 #...!.          
```

#### Opcodes

```
  0: 0x0114 [0x66] LOAD_EXT_SCHEDULER_MAIN: Load scheduler "thk1" with entities [EventEntity, EventEntity], work=9*
  1: 0x0123 [0x1D] PRINT_EVENT_MESSAGE(message_id=7294*)
    → "Hmmm... What shall I use today?\u007F1\u0000\u0007"
  2: 0x0126 [0x23] WAIT_FOR_DIALOG_INTERACTION
  3: 0x0127 [0x66] LOAD_EXT_SCHEDULER_MAIN: Load scheduler "thk2" with entities [EventEntity, EventEntity], work=9*
  4: 0x0136 [0x1E] EventEntity looks at LocalPlayer and starts talking
  5: 0x013B [0x1C] WAIT(30* ticks)
  6: 0x013E [0x1D] PRINT_EVENT_MESSAGE(message_id=7295*)
    → "Adventurer, I need your honest opinion.\u007F1\u0000\u0007"
  7: 0x0141 [0x23] WAIT_FOR_DIALOG_INTERACTION
  8: 0x0142 [0x66] LOAD_EXT_SCHEDULER_MAIN: Load scheduler "tlk0" with entities [EventEntity, EventEntity], work=9*
  9: 0x0151 [0x1D] PRINT_EVENT_MESSAGE(message_id=7296*)
    → "I'm pondering over what to focus on in today's special. Which do you think is more important?\u007F1\u0000\u0007"
 10: 0x0154 [0x23] WAIT_FOR_DIALOG_INTERACTION
 11: 0x0155 [0x66] LOAD_EXT_SCHEDULER_MAIN: Load scheduler "tlk1" with entities [EventEntity, EventEntity], work=9*
 12: 0x0164 [0x24] CREATE_DIALOG(message_id=7297*, default_option=0*, option_flags=0*)
    → "You should focus on...\u0007\u000BIngredients.\u0007Spices.\u0007Water.\u0007Asking someone else.\u007F1\u0000\u0007"
 13: 0x016B [0x25] WAIT_DIALOG_SELECT()
 14: 0x016C [0x02] IF !(Work_Zone[0] == 0*) GOTO 0x0184
 15: 0x0174 [0x03] Work_Zone[1] = 1*
 16: 0x0179 [0x43] SEND_EVENT_UPDATE: Send pending tag to server (packet 0x005B)
 17: 0x017B [0x43] SEND_EVENT_UPDATE: Check pending flag (skip if not pending)
 18: 0x017D [0x1D] PRINT_EVENT_MESSAGE(message_id=7298*)
    → "Now that you mention it, maybe my cooking has been a little lacking in that department.\u007F1\u0000\u0007"
 19: 0x0180 [0x23] WAIT_FOR_DIALOG_INTERACTION
 20: 0x0181 [0x01] GOTO 0x01B4
 21: 0x0184 [0x02] IF !(Work_Zone[0] == 1*) GOTO 0x019C
 22: 0x018C [0x03] Work_Zone[1] = 2*
 23: 0x0191 [0x43] SEND_EVENT_UPDATE: Send pending tag to server (packet 0x005B)
 24: 0x0193 [0x43] SEND_EVENT_UPDATE: Check pending flag (skip if not pending)
 25: 0x0195 [0x1D] PRINT_EVENT_MESSAGE(message_id=7298*)
    → "Now that you mention it, maybe my cooking has been a little lacking in that department.\u007F1\u0000\u0007"
 26: 0x0198 [0x23] WAIT_FOR_DIALOG_INTERACTION
 27: 0x0199 [0x01] GOTO 0x01B4
 28: 0x019C [0x02] IF !(Work_Zone[0] == 2*) GOTO 0x01B4
 29: 0x01A4 [0x03] Work_Zone[1] = 3*
 30: 0x01A9 [0x43] SEND_EVENT_UPDATE: Send pending tag to server (packet 0x005B)
 31: 0x01AB [0x43] SEND_EVENT_UPDATE: Check pending flag (skip if not pending)
 32: 0x01AD [0x1D] PRINT_EVENT_MESSAGE(message_id=7298*)
    → "Now that you mention it, maybe my cooking has been a little lacking in that department.\u007F1\u0000\u0007"
 33: 0x01B0 [0x23] WAIT_FOR_DIALOG_INTERACTION
 34: 0x01B1 [0x01] GOTO 0x01B4

SUBROUTINE_01B4:
 35: 0x01B4 [0x21] END_EVENT
 36: 0x01B5 [0x00] END_REQSTACK()
```

### Event 864

#### Metadata

| Field        | Value   |
|--------------|---------|
| Entrypoint   | 0x01B6  |
| Data Size    | 7 bytes |
| Instructions | 2       |

```
      00 01 02 03 04 05 06 07  08 09 0A 0B 0C 0D 0E 0F
      -- -- -- -- -- -- -- --  -- -- -- -- -- -- -- --
01B0:                   92 01  F8 FF FF 7F 00                 .......   
```

#### Opcodes

```
  0: 0x01B6 [0x92] EventEntity->Render.Flags3 ^= 0x01
  1: 0x01BC [0x00] END_REQSTACK()
```

### Event 872

#### Metadata

| Field        | Value   |
|--------------|---------|
| Entrypoint   | 0x01BD  |
| Data Size    | 7 bytes |
| Instructions | 2       |

```
      00 01 02 03 04 05 06 07  08 09 0A 0B 0C 0D 0E 0F
      -- -- -- -- -- -- -- --  -- -- -- -- -- -- -- --
01B0:                                         92 01 F8               ...
01C0: FF FF 7F 00                                       ....            
```

#### Opcodes

```
  0: 0x01BD [0x92] EventEntity->Render.Flags3 ^= 0x01
  1: 0x01C3 [0x00] END_REQSTACK()
```

### Event 3136

#### Metadata

| Field        | Value   |
|--------------|---------|
| Entrypoint   | 0x01C4  |
| Data Size    | 7 bytes |
| Instructions | 2       |

```
      00 01 02 03 04 05 06 07  08 09 0A 0B 0C 0D 0E 0F
      -- -- -- -- -- -- -- --  -- -- -- -- -- -- -- --
01C0:             92 01 F8 FF  FF 7F 00                     .......     
```

#### Opcodes

```
  0: 0x01C4 [0x92] EventEntity->Render.Flags3 ^= 0x01
  1: 0x01CA [0x00] END_REQSTACK()
```
