# 16982359

## Common Data

| Field            | Value                         |
|------------------|-------------------------------|
| Zone             | Aht Urhgan Whitegate (ID: 50) |
| Block Size       | 140 bytes                     |
| Total Events     | 5                             |
| References Count | 10                            |

## List of Events

| Event ID                 | Entrypoint   |   Size |   Instructions |
|--------------------------|--------------|--------|----------------|
| [65535](#event-65535)    | 0x0000       |      1 |              1 |
| [871](#event-871)        | 0x0001       |      1 |              1 |
| [65535.1](#event-655351) | 0x0002       |     25 |              7 |
| [65535.2](#event-655352) | 0x001B       |     29 |              7 |
| [872](#event-872)        | 0x0038       |      7 |              2 |

## DAT References (imed_data)

|   Index | Hex Value   |   Dec Value |
|---------|-------------|-------------|
|       0 | 0x000D      |          13 |
|       1 | 0xFFFE6FFC  |  4294864892 |
|       2 | 0xE55F      |       58719 |
|       3 | 0x0000      |           0 |
|       4 | 0x0005      |           5 |
|       5 | 0x001E      |          30 |
|       6 | 0x0001      |           1 |
|       7 | 0x0096      |         150 |
|       8 | 0xFFFE6F3C  |  4294864700 |
|       9 | 0xF966      |       63846 |

## Events

### Event 65535

#### Metadata

| Field        | Value   |
|--------------|---------|
| Entrypoint   | 0x0000  |
| Data Size    | 1 bytes |
| Instructions | 1       |

```
      00 01 02 03 04 05 06 07  08 09 0A 0B 0C 0D 0E 0F
      -- -- -- -- -- -- -- --  -- -- -- -- -- -- -- --
0000: 00                                                .               
```

#### Opcodes

```
  0: 0x0000 [0x00] END_REQSTACK()
```

### Event 871

#### Metadata

| Field        | Value   |
|--------------|---------|
| Entrypoint   | 0x0001  |
| Data Size    | 1 bytes |
| Instructions | 1       |

```
      00 01 02 03 04 05 06 07  08 09 0A 0B 0C 0D 0E 0F
      -- -- -- -- -- -- -- --  -- -- -- -- -- -- -- --
0000:    00                                              .              
```

#### Opcodes

```
  0: 0x0001 [0x00] END_REQSTACK()
```

### Event 65535.1

#### Metadata

| Field        | Value    |
|--------------|----------|
| Entrypoint   | 0x0002   |
| Data Size    | 25 bytes |
| Instructions | 7        |

```
      00 01 02 03 04 05 06 07  08 09 0A 0B 0C 0D 0E 0F
      -- -- -- -- -- -- -- --  -- -- -- -- -- -- -- --
0000:       32 00 80 1F 00 01  80 02 80 03 80 1F 01 1C    2.............
0010: 04 80 1E 57 21 03 01 1C  05 80 00                 ...W!......     
```

#### Opcodes

```
  0: 0x0002 [0x32] ExtData[1]->MainSpeed = 13* * 0.1
  1: 0x0005 [0x1F] MOVE_ENTITY: EventEntity moves to X=-102.404*, Z=58.719*, Y=0.000*
  2: 0x000D [0x1F] MOVE_ENTITY: Update entity position (mode=1)
  3: 0x000F [0x1C] WAIT(5* ticks)
  4: 0x0012 [0x1E] EventEntity looks at Unnamed NPC (ID: 16982359/0x01032157) and starts talking
  5: 0x0017 [0x1C] WAIT(30* ticks)
  6: 0x001A [0x00] END_REQSTACK()
```

### Event 65535.2

#### Metadata

| Field        | Value    |
|--------------|----------|
| Entrypoint   | 0x001B   |
| Data Size    | 29 bytes |
| Instructions | 7        |

```
      00 01 02 03 04 05 06 07  08 09 0A 0B 0C 0D 0E 0F
      -- -- -- -- -- -- -- --  -- -- -- -- -- -- -- --
0010:                                   6E 57 21 03 01             nW!..
0020: 06 80 99 57 21 03 01 1C  07 80 32 00 80 1F 00 08  ...W!.....2.....
0030: 80 09 80 03 80 1F 01 00                           ........        
```

#### Opcodes

```
  0: 0x001B [0x6E] Unnamed NPC (ID: 16982359/0x01032157) uses emote 1*
  1: 0x0022 [0x99] Wait for Unnamed NPC (ID: 16982359/0x01032157) animation to complete
  2: 0x0027 [0x1C] WAIT(150* ticks)
  3: 0x002A [0x32] ExtData[1]->MainSpeed = 13* * 0.1
  4: 0x002D [0x1F] MOVE_ENTITY: EventEntity moves to X=-102.596*, Z=63.846*, Y=0.000*
  5: 0x0035 [0x1F] MOVE_ENTITY: Update entity position (mode=1)
  6: 0x0037 [0x00] END_REQSTACK()
```

### Event 872

#### Metadata

| Field        | Value   |
|--------------|---------|
| Entrypoint   | 0x0038  |
| Data Size    | 7 bytes |
| Instructions | 2       |

```
      00 01 02 03 04 05 06 07  08 09 0A 0B 0C 0D 0E 0F
      -- -- -- -- -- -- -- --  -- -- -- -- -- -- -- --
0030:                          92 01 F8 FF FF 7F 00             ....... 
```

#### Opcodes

```
  0: 0x0038 [0x92] EventEntity->Render.Flags3 ^= 0x01
  1: 0x003E [0x00] END_REQSTACK()
```
