# 16982418 - Wiyaom

## Common Data

| Field            | Value                         |
|------------------|-------------------------------|
| Zone             | Aht Urhgan Whitegate (ID: 50) |
| Block Size       | 204 bytes                     |
| Total Events     | 5                             |
| References Count | 20                            |

## List of Events

| Event ID                  | Entrypoint   |   Size |   Instructions |
|---------------------------|--------------|--------|----------------|
| [65535](#event-65535)     | 0x0000       |      1 |              1 |
| [5057](#event-5057)       | 0x0001       |      1 |              1 |
| [65535.1](#event-65535-1) | 0x0002       |     29 |              7 |
| [65535.2](#event-65535-2) | 0x001F       |     19 |              5 |
| [65535.3](#event-65535-3) | 0x0032       |     37 |              9 |

## DAT References (imed_data)

|   Index | Hex Value   |   Dec Value |
|---------|-------------|-------------|
|       0 | 0x0028      |          40 |
|       1 | 0x8118      |       33048 |
|       2 | 0xFFFF4347  |  4294918983 |
|       3 | 0xFFFFE3E1  |  4294960097 |
|       4 | 0x6D32      |       27954 |
|       5 | 0xFFFF5312  |  4294923026 |
|       6 | 0xFFFFE184  |  4294959492 |
|       7 | 0x000D      |          13 |
|       8 | 0x63DA      |       25562 |
|       9 | 0xFFFF5049  |  4294922313 |
|      10 | 0x0050      |          80 |
|      11 | 0x7D8D      |       32141 |
|      12 | 0xFFFF48ED  |  4294920429 |
|      13 | 0xFFFFE3DD  |  4294960093 |
|      14 | 0x8E8C      |       36492 |
|      15 | 0xFFFF22AF  |  4294910639 |
|      16 | 0xFFFFE633  |  4294960691 |
|      17 | 0x7C38      |       31800 |
|      18 | 0xFFFF1809  |  4294907913 |
|      19 | 0xFFFFE637  |  4294960695 |

## Events

### Event 65535

#### Metadata

| Field        | Value   |
|--------------|---------|
| Entrypoint   | 0x0000  |
| Data Size    | 1 bytes |
| Instructions | 1       |

```
      00 01 02 03 04 05 06 07  08 09 0A 0B 0C 0D 0E 0F
      -- -- -- -- -- -- -- --  -- -- -- -- -- -- -- --
0000: 00                                                .               
```

#### Opcodes

```
  0: 0x0000 [0x00] END_REQSTACK()
```

### Event 5057

#### Metadata

| Field        | Value   |
|--------------|---------|
| Entrypoint   | 0x0001  |
| Data Size    | 1 bytes |
| Instructions | 1       |

```
      00 01 02 03 04 05 06 07  08 09 0A 0B 0C 0D 0E 0F
      -- -- -- -- -- -- -- --  -- -- -- -- -- -- -- --
0000:    00                                              .              
```

#### Opcodes

```
  0: 0x0001 [0x00] END_REQSTACK()
```

### Event 65535.1

#### Metadata

| Field        | Value    |
|--------------|----------|
| Entrypoint   | 0x0002   |
| Data Size    | 29 bytes |
| Instructions | 7        |

```
      00 01 02 03 04 05 06 07  08 09 0A 0B 0C 0D 0E 0F
      -- -- -- -- -- -- -- --  -- -- -- -- -- -- -- --
0000:       32 00 80 1F 00 01  80 02 80 03 80 1F 01 1F    2.............
0010: 00 04 80 05 80 06 80 1F  01 1E 91 21 03 01 00     ...........!... 
```

#### Opcodes

```
  0: 0x0002 [0x32] ExtData[1]->MainSpeed = 40* * 0.1
  1: 0x0005 [0x1F] MOVE_ENTITY: EventEntity moves to X=33.048*, Z=-48.313*, Y=-7.199*
  2: 0x000D [0x1F] MOVE_ENTITY: Update entity position (mode=1)
  3: 0x000F [0x1F] MOVE_ENTITY: EventEntity moves to X=27.954*, Z=-44.270*, Y=-7.804*
  4: 0x0017 [0x1F] MOVE_ENTITY: Update entity position (mode=1)
  5: 0x0019 [0x1E] EventEntity looks at Liliroon (ID: 16982417/0x01032191) and starts talking
  6: 0x001E [0x00] END_REQSTACK()
```

### Event 65535.2

#### Metadata

| Field        | Value    |
|--------------|----------|
| Entrypoint   | 0x001F   |
| Data Size    | 19 bytes |
| Instructions | 5        |

```
      00 01 02 03 04 05 06 07  08 09 0A 0B 0C 0D 0E 0F
      -- -- -- -- -- -- -- --  -- -- -- -- -- -- -- --
0010:                                               32                 2
0020: 07 80 1F 00 08 80 09 80  06 80 1F 01 1E 8C 20 03  .............. .
0030: 01 00                                             ..              
```

#### Opcodes

```
  0: 0x001F [0x32] ExtData[1]->MainSpeed = 13* * 0.1
  1: 0x0022 [0x1F] MOVE_ENTITY: EventEntity moves to X=25.562*, Z=-44.983*, Y=-7.804*
  2: 0x002A [0x1F] MOVE_ENTITY: Update entity position (mode=1)
  3: 0x002C [0x1E] EventEntity looks at Naja Salaheem (ID: 16982156/0x0103208C) and starts talking
  4: 0x0031 [0x00] END_REQSTACK()
```

### Event 65535.3

#### Metadata

| Field        | Value    |
|--------------|----------|
| Entrypoint   | 0x0032   |
| Data Size    | 37 bytes |
| Instructions | 9        |

```
      00 01 02 03 04 05 06 07  08 09 0A 0B 0C 0D 0E 0F
      -- -- -- -- -- -- -- --  -- -- -- -- -- -- -- --
0030:       1C 0A 80 32 07 80  1F 00 0B 80 0C 80 0D 80    ...2..........
0040: 1F 01 1F 00 0E 80 0F 80  10 80 1F 01 1F 00 11 80  ................
0050: 12 80 13 80 1F 01 00                              .......         
```

#### Opcodes

```
  0: 0x0032 [0x1C] WAIT(80* ticks)
  1: 0x0035 [0x32] ExtData[1]->MainSpeed = 13* * 0.1
  2: 0x0038 [0x1F] MOVE_ENTITY: EventEntity moves to X=32.141*, Z=-46.867*, Y=-7.203*
  3: 0x0040 [0x1F] MOVE_ENTITY: Update entity position (mode=1)
  4: 0x0042 [0x1F] MOVE_ENTITY: EventEntity moves to X=36.492*, Z=-56.657*, Y=-6.605*
  5: 0x004A [0x1F] MOVE_ENTITY: Update entity position (mode=1)
  6: 0x004C [0x1F] MOVE_ENTITY: EventEntity moves to X=31.800*, Z=-59.383*, Y=-6.601*
  7: 0x0054 [0x1F] MOVE_ENTITY: Update entity position (mode=1)
  8: 0x0056 [0x00] END_REQSTACK()
```
