# 16982110 - Arzizah

## Common Data

| Field            | Value                         |
|------------------|-------------------------------|
| Zone             | Aht Urhgan Whitegate (ID: 50) |
| Block Size       | 492 bytes                     |
| Total Events     | 17                            |
| References Count | 32                            |

## List of Events

| Event ID                   | Entrypoint   |   Size |   Instructions |
|----------------------------|--------------|--------|----------------|
| [65535](#event-65535)      | 0x0000       |      1 |              1 |
| [3078](#event-3078)        | 0x0001       |      1 |              1 |
| [548](#event-548)          | 0x0002       |      1 |              1 |
| [246](#event-246)          | 0x0003       |     47 |              9 |
| [3081](#event-3081)        | 0x0032       |      1 |              1 |
| [65535.1](#event-655351)   | 0x0033       |     25 |              9 |
| [65535.2](#event-655352)   | 0x004C       |     31 |              9 |
| [65535.3](#event-655353)   | 0x006B       |     22 |              8 |
| [65535.4](#event-655354)   | 0x0081       |     27 |              8 |
| [65535.5](#event-655355)   | 0x009C       |     27 |              8 |
| [65535.6](#event-655356)   | 0x00B7       |     22 |              8 |
| [65535.7](#event-655357)   | 0x00CD       |     22 |              8 |
| [65535.8](#event-655358)   | 0x00E3       |     20 |              3 |
| [3111](#event-3111)        | 0x00F7       |      1 |              1 |
| [65535.9](#event-655359)   | 0x00F8       |     14 |              4 |
| [65535.10](#event-6553510) | 0x0106       |     15 |              5 |
| [3114](#event-3114)        | 0x0115       |      1 |              1 |

## DAT References (imed_data)

|   Index | Hex Value   |   Dec Value |
|---------|-------------|-------------|
|       0 | 0x001E      |          30 |
|       1 | 0x0000      |           0 |
|       2 | 0x245A      |        9306 |
|       3 | 0x000D      |          13 |
|       4 | 0x24F18     |      151320 |
|       5 | 0x043D      |        1085 |
|       6 | 0xFFFFF769  |  4294965097 |
|       7 | 0x000F      |          15 |
|       8 | 0x24EF7     |      151287 |
|       9 | 0x0C2F      |        3119 |
|      10 | 0x0800      |        2048 |
|      11 | 0x244BE     |      148670 |
|      12 | 0x028B      |         651 |
|      13 | 0xFFFFF830  |  4294965296 |
|      14 | 0x0028      |          40 |
|      15 | 0x23D38     |      146744 |
|      16 | 0x1FDA      |        8154 |
|      17 | 0x23D36     |      146742 |
|      18 | 0x3414      |       13332 |
|      19 | 0x23CDF     |      146655 |
|      20 | 0x1EE7      |        7911 |
|      21 | 0x240E0     |      147680 |
|      22 | 0x0C36      |        3126 |
|      23 | 0x0026      |          38 |
|      24 | 0x23E55     |      147029 |
|      25 | 0x0679      |        1657 |
|      26 | 0x2408D     |      147597 |
|      27 | 0x0459      |        1113 |
|      28 | 0x0802      |        2050 |
|      29 | 0x24D07     |      150791 |
|      30 | 0x0C0F      |        3087 |
|      31 | 0xFFFFF699  |  4294964889 |

## String References

- **9306**: Ahead lies the Imperial Ward. Only citizens of the Empire and those granted consent by the Empress may enter.

## Events

### Event 65535

#### Metadata

| Field        | Value   |
|--------------|---------|
| Entrypoint   | 0x0000  |
| Data Size    | 1 bytes |
| Instructions | 1       |

```
      00 01 02 03 04 05 06 07  08 09 0A 0B 0C 0D 0E 0F
      -- -- -- -- -- -- -- --  -- -- -- -- -- -- -- --
0000: 00                                                .               
```

#### Opcodes

```
  0: 0x0000 [0x00] END_REQSTACK()
```

### Event 3078

#### Metadata

| Field        | Value   |
|--------------|---------|
| Entrypoint   | 0x0001  |
| Data Size    | 1 bytes |
| Instructions | 1       |

```
      00 01 02 03 04 05 06 07  08 09 0A 0B 0C 0D 0E 0F
      -- -- -- -- -- -- -- --  -- -- -- -- -- -- -- --
0000:    00                                              .              
```

#### Opcodes

```
  0: 0x0001 [0x00] END_REQSTACK()
```

### Event 548

#### Metadata

| Field        | Value   |
|--------------|---------|
| Entrypoint   | 0x0002  |
| Data Size    | 1 bytes |
| Instructions | 1       |

```
      00 01 02 03 04 05 06 07  08 09 0A 0B 0C 0D 0E 0F
      -- -- -- -- -- -- -- --  -- -- -- -- -- -- -- --
0000:       00                                            .             
```

#### Opcodes

```
  0: 0x0002 [0x00] END_REQSTACK()
```

### Event 246

#### Metadata

| Field        | Value    |
|--------------|----------|
| Entrypoint   | 0x0003   |
| Data Size    | 47 bytes |
| Instructions | 9        |

```
      00 01 02 03 04 05 06 07  08 09 0A 0B 0C 0D 0E 0F
      -- -- -- -- -- -- -- --  -- -- -- -- -- -- -- --
0000:          1E F0 FF FF 7F  1C 00 80 66 01 80 F8 FF     ........f....
0010: FF 7F F8 FF FF 7F 74 6C  6B 31 1D 02 80 23 66 01  ......tlk1...#f.
0020: 80 F8 FF FF 7F F8 FF FF  7F 74 65 6E 31 1C 00 80  .........ten1...
0030: 21 00                                             !.              
```

#### Opcodes

```
  0: 0x0003 [0x1E] EventEntity looks at LocalPlayer and starts talking
  1: 0x0008 [0x1C] WAIT(30* ticks)
  2: 0x000B [0x66] LOAD_EXT_SCHEDULER_MAIN: Load scheduler "tlk1" with entities [EventEntity, EventEntity], work=0*
  3: 0x001A [0x1D] PRINT_EVENT_MESSAGE(message_id=9306*)
    → "Ahead lies the Imperial Ward. Only citizens of the Empire and those granted consent by the Empress may enter."
  4: 0x001D [0x23] WAIT_FOR_DIALOG_INTERACTION
  5: 0x001E [0x66] LOAD_EXT_SCHEDULER_MAIN: Load scheduler "ten1" with entities [EventEntity, EventEntity], work=0*
  6: 0x002D [0x1C] WAIT(30* ticks)
  7: 0x0030 [0x21] END_EVENT
  8: 0x0031 [0x00] END_REQSTACK()
```

### Event 3081

#### Metadata

| Field        | Value   |
|--------------|---------|
| Entrypoint   | 0x0032  |
| Data Size    | 1 bytes |
| Instructions | 1       |

```
      00 01 02 03 04 05 06 07  08 09 0A 0B 0C 0D 0E 0F
      -- -- -- -- -- -- -- --  -- -- -- -- -- -- -- --
0030:       00                                            .             
```

#### Opcodes

```
  0: 0x0032 [0x00] END_REQSTACK()
```

### Event 65535.1

#### Metadata

| Field        | Value    |
|--------------|----------|
| Entrypoint   | 0x0033   |
| Data Size    | 25 bytes |
| Instructions | 9        |

```
      00 01 02 03 04 05 06 07  08 09 0A 0B 0C 0D 0E 0F
      -- -- -- -- -- -- -- --  -- -- -- -- -- -- -- --
0030:          32 03 80 1F 00  04 80 05 80 06 80 1F 01     2............
0040: 6F 1C 07 80 1E F0 FF FF  7F 6F 70 00              o........op.    
```

#### Opcodes

```
  0: 0x0033 [0x32] ExtData[1]->MainSpeed = 13* * 0.1
  1: 0x0036 [0x1F] MOVE_ENTITY: EventEntity moves to X=151.320*, Z=1.085*, Y=-2.199*
  2: 0x003E [0x1F] MOVE_ENTITY: Update entity position (mode=1)
  3: 0x0040 [0x6F] WAIT_FRAME_DELAY: Yield until WaitTime reaches zero
  4: 0x0041 [0x1C] WAIT(15* ticks)
  5: 0x0044 [0x1E] EventEntity looks at LocalPlayer and starts talking
  6: 0x0049 [0x6F] WAIT_FRAME_DELAY: Yield until WaitTime reaches zero
  7: 0x004A [0x70] WAIT_ENTITY_RENDER_FLAG: Wait while EventEntity->Render.Flags3 bit 2 is set (cancel turn if not)
  8: 0x004B [0x00] END_REQSTACK()
```

### Event 65535.2

#### Metadata

| Field        | Value    |
|--------------|----------|
| Entrypoint   | 0x004C   |
| Data Size    | 31 bytes |
| Instructions | 9        |

```
      00 01 02 03 04 05 06 07  08 09 0A 0B 0C 0D 0E 0F
      -- -- -- -- -- -- -- --  -- -- -- -- -- -- -- --
0040:                                      32 03 80 1F              2...
0050: 00 08 80 09 80 06 80 1F  01 6F 1C 07 80 4B F8 FF  .........o...K..
0060: FF 7F 0A 80 6F 76 F8 FF  FF 7F 00                 ....ov.....     
```

#### Opcodes

```
  0: 0x004C [0x32] ExtData[1]->MainSpeed = 13* * 0.1
  1: 0x004F [0x1F] MOVE_ENTITY: EventEntity moves to X=151.287*, Z=3.119*, Y=-2.199*
  2: 0x0057 [0x1F] MOVE_ENTITY: Update entity position (mode=1)
  3: 0x0059 [0x6F] WAIT_FRAME_DELAY: Yield until WaitTime reaches zero
  4: 0x005A [0x1C] WAIT(15* ticks)
  5: 0x005D [0x4B] UPDATE_ENTITY_YAW(entity=EventEntity, yaw=11.2°*)
  6: 0x0064 [0x6F] WAIT_FRAME_DELAY: Yield until WaitTime reaches zero
  7: 0x0065 [0x76] CHECK_ENTITY_RENDER_FLAGS: Wait until EventEntity Render.Flags0 and Render.Flags3 conditions are met
  8: 0x006A [0x00] END_REQSTACK()
```

### Event 65535.3

#### Metadata

| Field        | Value    |
|--------------|----------|
| Entrypoint   | 0x006B   |
| Data Size    | 22 bytes |
| Instructions | 8        |

```
      00 01 02 03 04 05 06 07  08 09 0A 0B 0C 0D 0E 0F
      -- -- -- -- -- -- -- --  -- -- -- -- -- -- -- --
0060:                                   32 03 80 1F 00             2....
0070: 0B 80 0C 80 0D 80 1F 01  6F 1E 8C 20 03 01 6F 70  ........o.. ..op
0080: 00                                                .               
```

#### Opcodes

```
  0: 0x006B [0x32] ExtData[1]->MainSpeed = 13* * 0.1
  1: 0x006E [0x1F] MOVE_ENTITY: EventEntity moves to X=148.670*, Z=0.651*, Y=-2.000*
  2: 0x0076 [0x1F] MOVE_ENTITY: Update entity position (mode=1)
  3: 0x0078 [0x6F] WAIT_FRAME_DELAY: Yield until WaitTime reaches zero
  4: 0x0079 [0x1E] EventEntity looks at Naja Salaheem (ID: 16982156/0x0103208C) and starts talking
  5: 0x007E [0x6F] WAIT_FRAME_DELAY: Yield until WaitTime reaches zero
  6: 0x007F [0x70] WAIT_ENTITY_RENDER_FLAG: Wait while EventEntity->Render.Flags3 bit 2 is set (cancel turn if not)
  7: 0x0080 [0x00] END_REQSTACK()
```

### Event 65535.4

#### Metadata

| Field        | Value    |
|--------------|----------|
| Entrypoint   | 0x0081   |
| Data Size    | 27 bytes |
| Instructions | 8        |

```
      00 01 02 03 04 05 06 07  08 09 0A 0B 0C 0D 0E 0F
      -- -- -- -- -- -- -- --  -- -- -- -- -- -- -- --
0080:    32 0E 80 1F 00 0F 80  10 80 0D 80 1F 01 1F 00   2..............
0090: 11 80 12 80 0D 80 1F 01  6F 22 01 00              ........o"..    
```

#### Opcodes

```
  0: 0x0081 [0x32] ExtData[1]->MainSpeed = 40* * 0.1
  1: 0x0084 [0x1F] MOVE_ENTITY: EventEntity moves to X=146.744*, Z=8.154*, Y=-2.000*
  2: 0x008C [0x1F] MOVE_ENTITY: Update entity position (mode=1)
  3: 0x008E [0x1F] MOVE_ENTITY: EventEntity moves to X=146.742*, Z=13.332*, Y=-2.000*
  4: 0x0096 [0x1F] MOVE_ENTITY: Update entity position (mode=1)
  5: 0x0098 [0x6F] WAIT_FRAME_DELAY: Yield until WaitTime reaches zero
  6: 0x0099 [0x22] ENTITY_HIDE_FLAG(enabled=0x01)
  7: 0x009B [0x00] END_REQSTACK()
```

### Event 65535.5

#### Metadata

| Field        | Value    |
|--------------|----------|
| Entrypoint   | 0x009C   |
| Data Size    | 27 bytes |
| Instructions | 8        |

```
      00 01 02 03 04 05 06 07  08 09 0A 0B 0C 0D 0E 0F
      -- -- -- -- -- -- -- --  -- -- -- -- -- -- -- --
0090:                                      22 00 32 0E              ".2.
00A0: 80 1F 00 13 80 14 80 0D  80 1F 01 1F 00 15 80 16  ................
00B0: 80 0D 80 1F 01 6F 00                              .....o.         
```

#### Opcodes

```
  0: 0x009C [0x22] ENTITY_HIDE_FLAG(enabled=0x00)
  1: 0x009E [0x32] ExtData[1]->MainSpeed = 40* * 0.1
  2: 0x00A1 [0x1F] MOVE_ENTITY: EventEntity moves to X=146.655*, Z=7.911*, Y=-2.000*
  3: 0x00A9 [0x1F] MOVE_ENTITY: Update entity position (mode=1)
  4: 0x00AB [0x1F] MOVE_ENTITY: EventEntity moves to X=147.680*, Z=3.126*, Y=-2.000*
  5: 0x00B3 [0x1F] MOVE_ENTITY: Update entity position (mode=1)
  6: 0x00B5 [0x6F] WAIT_FRAME_DELAY: Yield until WaitTime reaches zero
  7: 0x00B6 [0x00] END_REQSTACK()
```

### Event 65535.6

#### Metadata

| Field        | Value    |
|--------------|----------|
| Entrypoint   | 0x00B7   |
| Data Size    | 22 bytes |
| Instructions | 8        |

```
      00 01 02 03 04 05 06 07  08 09 0A 0B 0C 0D 0E 0F
      -- -- -- -- -- -- -- --  -- -- -- -- -- -- -- --
00B0:                      32  17 80 1F 00 18 80 19 80         2........
00C0: 0D 80 1F 01 6F 1E CE 20  03 01 6F 70 00           ....o.. ..op.   
```

#### Opcodes

```
  0: 0x00B7 [0x32] ExtData[1]->MainSpeed = 38* * 0.1
  1: 0x00BA [0x1F] MOVE_ENTITY: EventEntity moves to X=147.029*, Z=1.657*, Y=-2.000*
  2: 0x00C2 [0x1F] MOVE_ENTITY: Update entity position (mode=1)
  3: 0x00C4 [0x6F] WAIT_FRAME_DELAY: Yield until WaitTime reaches zero
  4: 0x00C5 [0x1E] EventEntity looks at Gessho (ID: 16982222/0x010320CE) and starts talking
  5: 0x00CA [0x6F] WAIT_FRAME_DELAY: Yield until WaitTime reaches zero
  6: 0x00CB [0x70] WAIT_ENTITY_RENDER_FLAG: Wait while EventEntity->Render.Flags3 bit 2 is set (cancel turn if not)
  7: 0x00CC [0x00] END_REQSTACK()
```

### Event 65535.7

#### Metadata

| Field        | Value    |
|--------------|----------|
| Entrypoint   | 0x00CD   |
| Data Size    | 22 bytes |
| Instructions | 8        |

```
      00 01 02 03 04 05 06 07  08 09 0A 0B 0C 0D 0E 0F
      -- -- -- -- -- -- -- --  -- -- -- -- -- -- -- --
00C0:                                         32 17 80               2..
00D0: 1F 00 1A 80 1B 80 0D 80  1F 01 6F 1E CE 20 03 01  ..........o.. ..
00E0: 6F 70 00                                          op.             
```

#### Opcodes

```
  0: 0x00CD [0x32] ExtData[1]->MainSpeed = 38* * 0.1
  1: 0x00D0 [0x1F] MOVE_ENTITY: EventEntity moves to X=147.597*, Z=1.113*, Y=-2.000*
  2: 0x00D8 [0x1F] MOVE_ENTITY: Update entity position (mode=1)
  3: 0x00DA [0x6F] WAIT_FRAME_DELAY: Yield until WaitTime reaches zero
  4: 0x00DB [0x1E] EventEntity looks at Gessho (ID: 16982222/0x010320CE) and starts talking
  5: 0x00E0 [0x6F] WAIT_FRAME_DELAY: Yield until WaitTime reaches zero
  6: 0x00E1 [0x70] WAIT_ENTITY_RENDER_FLAG: Wait while EventEntity->Render.Flags3 bit 2 is set (cancel turn if not)
  7: 0x00E2 [0x00] END_REQSTACK()
```

### Event 65535.8

#### Metadata

| Field        | Value    |
|--------------|----------|
| Entrypoint   | 0x00E3   |
| Data Size    | 20 bytes |
| Instructions | 3        |

```
      00 01 02 03 04 05 06 07  08 09 0A 0B 0C 0D 0E 0F
      -- -- -- -- -- -- -- --  -- -- -- -- -- -- -- --
00E0:          79 00 F8 FF FF  7F F8 FF FF 7F 37 08 80     y.........7..
00F0: 09 80 06 80 1C 80 00                              .......         
```

#### Opcodes

```
  0: 0x00E3 [0x79] EventEntity looks at EventEntity (Basic look)
  1: 0x00ED [0x37] UPDATE_EVENT_POSITION_AND_DIR: x=151.287*, z=3.119*, y=-2.199*, direction=180.2°*
  2: 0x00F6 [0x00] END_REQSTACK()
```

### Event 3111

#### Metadata

| Field        | Value   |
|--------------|---------|
| Entrypoint   | 0x00F7  |
| Data Size    | 1 bytes |
| Instructions | 1       |

```
      00 01 02 03 04 05 06 07  08 09 0A 0B 0C 0D 0E 0F
      -- -- -- -- -- -- -- --  -- -- -- -- -- -- -- --
00F0:                      00                                  .        
```

#### Opcodes

```
  0: 0x00F7 [0x00] END_REQSTACK()
```

### Event 65535.9

#### Metadata

| Field        | Value    |
|--------------|----------|
| Entrypoint   | 0x00F8   |
| Data Size    | 14 bytes |
| Instructions | 4        |

```
      00 01 02 03 04 05 06 07  08 09 0A 0B 0C 0D 0E 0F
      -- -- -- -- -- -- -- --  -- -- -- -- -- -- -- --
00F0:                          32 03 80 1F 00 1D 80 1E          2.......
0100: 80 1F 80 1F 01 00                                 ......          
```

#### Opcodes

```
  0: 0x00F8 [0x32] ExtData[1]->MainSpeed = 13* * 0.1
  1: 0x00FB [0x1F] MOVE_ENTITY: EventEntity moves to X=150.791*, Z=3.087*, Y=-2.407*
  2: 0x0103 [0x1F] MOVE_ENTITY: Update entity position (mode=1)
  3: 0x0105 [0x00] END_REQSTACK()
```

### Event 65535.10

#### Metadata

| Field        | Value    |
|--------------|----------|
| Entrypoint   | 0x0106   |
| Data Size    | 15 bytes |
| Instructions | 5        |

```
      00 01 02 03 04 05 06 07  08 09 0A 0B 0C 0D 0E 0F
      -- -- -- -- -- -- -- --  -- -- -- -- -- -- -- --
0100:                   32 03  80 1F 00 08 80 09 80 06        2.........
0110: 80 1F 01 6F 00                                    ...o.           
```

#### Opcodes

```
  0: 0x0106 [0x32] ExtData[1]->MainSpeed = 13* * 0.1
  1: 0x0109 [0x1F] MOVE_ENTITY: EventEntity moves to X=151.287*, Z=3.119*, Y=-2.199*
  2: 0x0111 [0x1F] MOVE_ENTITY: Update entity position (mode=1)
  3: 0x0113 [0x6F] WAIT_FRAME_DELAY: Yield until WaitTime reaches zero
  4: 0x0114 [0x00] END_REQSTACK()
```

### Event 3114

#### Metadata

| Field        | Value   |
|--------------|---------|
| Entrypoint   | 0x0115  |
| Data Size    | 1 bytes |
| Instructions | 1       |

```
      00 01 02 03 04 05 06 07  08 09 0A 0B 0C 0D 0E 0F
      -- -- -- -- -- -- -- --  -- -- -- -- -- -- -- --
0110:                00                                      .          
```

#### Opcodes

```
  0: 0x0115 [0x00] END_REQSTACK()
```
