# 16982318 - Matifa

## Common Data

| Field            | Value                         |
|------------------|-------------------------------|
| Zone             | Aht Urhgan Whitegate (ID: 50) |
| Block Size       | 140 bytes                     |
| Total Events     | 3                             |
| References Count | 7                             |

## List of Events

| Event ID              | Entrypoint   |   Size |   Instructions |
|-----------------------|--------------|--------|----------------|
| [65535](#event-65535) | 0x0000       |      1 |              1 |
| [516](#event-516)     | 0x0001       |     42 |             12 |
| [541](#event-541)     | 0x002B       |     38 |             10 |

## DAT References (imed_data)

|   Index | Hex Value   |   Dec Value |
|---------|-------------|-------------|
|       0 | 0x001E      |          30 |
|       1 | 0x1362      |        4962 |
|       2 | 0x0050      |          80 |
|       3 | 0x1363      |        4963 |
|       4 | 0x1364      |        4964 |
|       5 | 0x13F7      |        5111 |
|       6 | 0x13F8      |        5112 |

## Events

### Event 65535

#### Metadata

| Field        | Value   |
|--------------|---------|
| Entrypoint   | 0x0000  |
| Data Size    | 1 bytes |
| Instructions | 1       |

```
      00 01 02 03 04 05 06 07  08 09 0A 0B 0C 0D 0E 0F
      -- -- -- -- -- -- -- --  -- -- -- -- -- -- -- --
0000: 00                                                .               
```

#### Opcodes

```
  0: 0x0000 [0x00] END_REQSTACK()
```

### Event 516

#### Metadata

| Field        | Value    |
|--------------|----------|
| Entrypoint   | 0x0001   |
| Data Size    | 42 bytes |
| Instructions | 12       |

```
      00 01 02 03 04 05 06 07  08 09 0A 0B 0C 0D 0E 0F
      -- -- -- -- -- -- -- --  -- -- -- -- -- -- -- --
0000:    42 1E F0 FF FF 7F 1C  00 80 03 02 10 8B 7F 1D   B..............
0010: 01 80 23 5B 02 80 F8 FF  FF 7F F8 FF FF 7F 74 6C  ..#[..........tl
0020: 6B 30 1D 03 80 23 48 04  80 21 00                 k0...#H..!.     
```

#### Opcodes

```
  0: 0x0001 [0x42] SET_CLI_EVENT_CANCEL_DATA()
  1: 0x0002 [0x1E] EventEntity looks at LocalPlayer and starts talking
  2: 0x0007 [0x1C] WAIT(30* ticks)
  3: 0x000A [0x03] Work_Zone[2] = (LocalPlayer->Render.Flags01 >> 25) & 1
  4: 0x000F [0x1D] PRINT_EVENT_MESSAGE(message_id=4962*)
    → "\u000C\u0000[Miss/Mister], have you ever seen snow?\u007F1\u0000\u0007"
  5: 0x0012 [0x23] WAIT_FOR_DIALOG_INTERACTION
  6: 0x0013 [0x5B] LOAD_EXT_SCHEDULER: Load scheduler "tlk0" with entities [EventEntity, EventEntity], work=80*
  7: 0x0022 [0x1D] PRINT_EVENT_MESSAGE(message_id=4963*)
    → "I'm making a snowstorm using scraps of paper! Do you think it really looks like snow? I want to see the real thing someday, too!\u007F1\u0000\u0007"
  8: 0x0025 [0x23] WAIT_FOR_DIALOG_INTERACTION
  9: 0x0026 [0x48] [System] [4964*]:
    → "\u001F\u000F\u0008 finds a \u00072d\u00073 in the paper snowstorm!\u007F1\u0000\u0007"
 10: 0x0029 [0x21] END_EVENT
 11: 0x002A [0x00] END_REQSTACK()
```

### Event 541

#### Metadata

| Field        | Value    |
|--------------|----------|
| Entrypoint   | 0x002B   |
| Data Size    | 38 bytes |
| Instructions | 10       |

```
      00 01 02 03 04 05 06 07  08 09 0A 0B 0C 0D 0E 0F
      -- -- -- -- -- -- -- --  -- -- -- -- -- -- -- --
0020:                                   1E F0 FF FF 7F             .....
0030: 1C 00 80 03 02 10 8B 7F  1D 05 80 23 5B 02 80 F8  ...........#[...
0040: FF FF 7F F8 FF FF 7F 74  6C 6B 30 1D 06 80 23 21  .......tlk0...#!
0050: 00                                                .               
```

#### Opcodes

```
  0: 0x002B [0x1E] EventEntity looks at LocalPlayer and starts talking
  1: 0x0030 [0x1C] WAIT(30* ticks)
  2: 0x0033 [0x03] Work_Zone[2] = (LocalPlayer->Render.Flags01 >> 25) & 1
  3: 0x0038 [0x1D] PRINT_EVENT_MESSAGE(message_id=5111*)
    → "\u000C\u0000[Ma'am/Sir], have you ever seen an aurora?\u007F1\u0000\u0007"
  4: 0x003B [0x23] WAIT_FOR_DIALOG_INTERACTION
  5: 0x003C [0x5B] LOAD_EXT_SCHEDULER: Load scheduler "tlk0" with entities [EventEntity, EventEntity], work=80*
  6: 0x004B [0x1D] PRINT_EVENT_MESSAGE(message_id=5112*)
    → "I heard they look like pretty curtains covering the sky. I want to see one, too!\u007F1\u0000\u0007"
  7: 0x004E [0x23] WAIT_FOR_DIALOG_INTERACTION
  8: 0x004F [0x21] END_EVENT
  9: 0x0050 [0x00] END_REQSTACK()
```
