# 16982462 - Pursuivant

## Common Data

| Field            | Value                         |
|------------------|-------------------------------|
| Zone             | Aht Urhgan Whitegate (ID: 50) |
| Block Size       | 6320 bytes                    |
| Total Events     | 2                             |
| References Count | 285                           |

## List of Events

| Event ID              | Entrypoint   |   Size |   Instructions |
|-----------------------|--------------|--------|----------------|
| [65535](#event-65535) | 0x0000       |      1 |              1 |
| [773](#event-773)     | 0x0001       |   5155 |           1211 |

## DAT References (imed_data)

|   Index | Hex Value   |   Dec Value |
|---------|-------------|-------------|
|       0 | 0x0000      |           0 |
|       1 | 0x0001      |           1 |
|       2 | 0x0002      |           2 |
|       3 | 0x0005      |           5 |
|       4 | 0x0006      |           6 |
|       5 | 0x0007      |           7 |
|       6 | 0x0008      |           8 |
|       7 | 0x0009      |           9 |
|       8 | 0x000A      |          10 |
|       9 | 0x000B      |          11 |
|      10 | 0x000C      |          12 |
|      11 | 0x000D      |          13 |
|      12 | 0x000E      |          14 |
|      13 | 0x27E8      |       10216 |
|      14 | 0x0003      |           3 |
|      15 | 0x27EA      |       10218 |
|      16 | 0x0240      |         576 |
|      17 | 0x27E9      |       10217 |
|      18 | 0x27EB      |       10219 |
|      19 | 0x1C20      |        7200 |
|      20 | 0x01F4      |         500 |
|      21 | 0x02CA      |         714 |
|      22 | 0x02CD      |         717 |
|      23 | 0x02F6      |         758 |
|      24 | 0x02F7      |         759 |
|      25 | 0x27ED      |       10221 |
|      26 | 0x000F      |          15 |
|      27 | 0x0242      |         578 |
|      28 | 0x0064      |         100 |
|      29 | 0x27EE      |       10222 |
|      30 | 0x27EF      |       10223 |
|      31 | 0x001E      |          30 |
|      32 | 0x0028      |          40 |
|      33 | 0x001F      |          31 |
|      34 | 0x0032      |          50 |
|      35 | 0x0029      |          41 |
|      36 | 0x003C      |          60 |
|      37 | 0x0033      |          51 |
|      38 | 0x003D      |          61 |
|      39 | 0x27F1      |       10225 |
|      40 | 0x27F2      |       10226 |
|      41 | 0x0010      |          16 |
|      42 | 0x007A      |         122 |
|      43 | 0x0104      |         260 |
|      44 | 0x0080      |         128 |
|      45 | 0x27F3      |       10227 |
|      46 | 0x40000000  |  1073741824 |
|      47 | 0x27F4      |       10228 |
|      48 | 0x27F0      |       10224 |
|      49 | 0x0004      |           4 |
|      50 | 0x27FB      |       10235 |
|      51 | 0x27FC      |       10236 |
|      52 | 0x27FD      |       10237 |
|      53 | 0x27FE      |       10238 |
|      54 | 0x2800      |       10240 |
|      55 | 0x2801      |       10241 |
|      56 | 0x2802      |       10242 |
|      57 | 0x2804      |       10244 |
|      58 | 0x2806      |       10246 |
|      59 | 0x2807      |       10247 |
|      60 | 0x2808      |       10248 |
|      61 | 0x2809      |       10249 |
|      62 | 0x02EE      |         750 |
|      63 | 0x0258      |         600 |
|      64 | 0x0190      |         400 |
|      65 | 0x012C      |         300 |
|      66 | 0x2810      |       10256 |
|      67 | 0xFFFFFFFF  |  4294967295 |
|      68 | 0x004B      |          75 |
|      69 | 0x0054      |          84 |
|      70 | 0x93A80     |      604800 |
|      71 | 0x07FF      |        2047 |
|      72 | 0x2811      |       10257 |
|      73 | 0x021C      |         540 |
|      74 | 0x0834      |        2100 |
|      75 | 0x0924      |        2340 |
|      76 | 0x1194      |        4500 |
|      77 | 0x1284      |        4740 |
|      78 | 0x2812      |       10258 |
|      79 | 0x2814      |       10260 |
|      80 | 0x2815      |       10261 |
|      81 | 0x2816      |       10262 |
|      82 | 0x007F      |         127 |
|      83 | 0x2833      |       10291 |
|      84 | 0x2813      |       10259 |
|      85 | 0x2817      |       10263 |
|      86 | 0x2818      |       10264 |
|      87 | 0x2819      |       10265 |
|      88 | 0x281A      |       10266 |
|      89 | 0x281B      |       10267 |
|      90 | 0x281C      |       10268 |
|      91 | 0x281D      |       10269 |
|      92 | 0x281E      |       10270 |
|      93 | 0x281F      |       10271 |
|      94 | 0x2820      |       10272 |
|      95 | 0x2821      |       10273 |
|      96 | 0x2822      |       10274 |
|      97 | 0x2823      |       10275 |
|      98 | 0x2824      |       10276 |
|      99 | 0x2825      |       10277 |
|     100 | 0x2826      |       10278 |
|     101 | 0x2827      |       10279 |
|     102 | 0x2828      |       10280 |
|     103 | 0x2829      |       10281 |
|     104 | 0x282A      |       10282 |
|     105 | 0x282B      |       10283 |
|     106 | 0x282C      |       10284 |
|     107 | 0x282D      |       10285 |
|     108 | 0x282E      |       10286 |
|     109 | 0x282F      |       10287 |
|     110 | 0x2830      |       10288 |
|     111 | 0x2831      |       10289 |
|     112 | 0x2832      |       10290 |
|     113 | 0x280A      |       10250 |
|     114 | 0x280B      |       10251 |
|     115 | 0x280C      |       10252 |
|     116 | 0x280D      |       10253 |
|     117 | 0x280E      |       10254 |
|     118 | 0x280F      |       10255 |
|     119 | 0x004E      |          78 |
|     120 | 0x0012      |          18 |
|     121 | 0x002A      |          42 |
|     122 | 0x0035      |          53 |
|     123 | 0x0036      |          54 |
|     124 | 0x0040      |          64 |
|     125 | 0x0041      |          65 |
|     126 | 0x0042      |          66 |
|     127 | 0x0053      |          83 |
|     128 | 0x0017      |          23 |
|     129 | 0x0023      |          35 |
|     130 | 0x002F      |          47 |
|     131 | 0x0038      |          56 |
|     132 | 0x0039      |          57 |
|     133 | 0x003A      |          58 |
|     134 | 0x0044      |          68 |
|     135 | 0x0045      |          69 |
|     136 | 0x2834      |       10292 |
|     137 | 0x2835      |       10293 |
|     138 | 0x2836      |       10294 |
|     139 | 0x2837      |       10295 |
|     140 | 0x2838      |       10296 |
|     141 | 0x2839      |       10297 |
|     142 | 0x283A      |       10298 |
|     143 | 0x283B      |       10299 |
|     144 | 0x283C      |       10300 |
|     145 | 0x283D      |       10301 |
|     146 | 0x283E      |       10302 |
|     147 | 0x283F      |       10303 |
|     148 | 0x2840      |       10304 |
|     149 | 0x2841      |       10305 |
|     150 | 0x2842      |       10306 |
|     151 | 0x2843      |       10307 |
|     152 | 0x2844      |       10308 |
|     153 | 0x2845      |       10309 |
|     154 | 0x2846      |       10310 |
|     155 | 0x2847      |       10311 |
|     156 | 0x2848      |       10312 |
|     157 | 0x2849      |       10313 |
|     158 | 0x284A      |       10314 |
|     159 | 0x284B      |       10315 |
|     160 | 0x284C      |       10316 |
|     161 | 0x284D      |       10317 |
|     162 | 0x284E      |       10318 |
|     163 | 0x284F      |       10319 |
|     164 | 0x2850      |       10320 |
|     165 | 0x2851      |       10321 |
|     166 | 0x2852      |       10322 |
|     167 | 0x2853      |       10323 |
|     168 | 0x2854      |       10324 |
|     169 | 0x2855      |       10325 |
|     170 | 0x2856      |       10326 |
|     171 | 0x2857      |       10327 |
|     172 | 0x2858      |       10328 |
|     173 | 0x285D      |       10333 |
|     174 | 0x285E      |       10334 |
|     175 | 0x285F      |       10335 |
|     176 | 0x0A20      |        2592 |
|     177 | 0x2860      |       10336 |
|     178 | 0x2861      |       10337 |
|     179 | 0x2862      |       10338 |
|     180 | 0x2863      |       10339 |
|     181 | 0x2864      |       10340 |
|     182 | 0x2865      |       10341 |
|     183 | 0x07D0      |        2000 |
|     184 | 0x2859      |       10329 |
|     185 | 0x285A      |       10330 |
|     186 | 0x285B      |       10331 |
|     187 | 0x285C      |       10332 |
|     188 | 0x2866      |       10342 |
|     189 | 0x2867      |       10343 |
|     190 | 0x2868      |       10344 |
|     191 | 0x2869      |       10345 |
|     192 | 0x286A      |       10346 |
|     193 | 0x286B      |       10347 |
|     194 | 0x286C      |       10348 |
|     195 | 0x286D      |       10349 |
|     196 | 0x286E      |       10350 |
|     197 | 0x286F      |       10351 |
|     198 | 0x2870      |       10352 |
|     199 | 0x02AA      |         682 |
|     200 | 0x2871      |       10353 |
|     201 | 0x02AB      |         683 |
|     202 | 0x2872      |       10354 |
|     203 | 0x02AC      |         684 |
|     204 | 0x2873      |       10355 |
|     205 | 0x02AD      |         685 |
|     206 | 0x2874      |       10356 |
|     207 | 0x02AE      |         686 |
|     208 | 0x2875      |       10357 |
|     209 | 0x02AF      |         687 |
|     210 | 0x2876      |       10358 |
|     211 | 0x02B0      |         688 |
|     212 | 0x2877      |       10359 |
|     213 | 0x02B1      |         689 |
|     214 | 0x2878      |       10360 |
|     215 | 0x02B2      |         690 |
|     216 | 0x2879      |       10361 |
|     217 | 0x02B3      |         691 |
|     218 | 0x287A      |       10362 |
|     219 | 0x02B4      |         692 |
|     220 | 0x287B      |       10363 |
|     221 | 0x02B5      |         693 |
|     222 | 0x287C      |       10364 |
|     223 | 0x02B6      |         694 |
|     224 | 0x287D      |       10365 |
|     225 | 0x02B7      |         695 |
|     226 | 0x287E      |       10366 |
|     227 | 0x02B8      |         696 |
|     228 | 0x287F      |       10367 |
|     229 | 0x02B9      |         697 |
|     230 | 0x2880      |       10368 |
|     231 | 0x02BA      |         698 |
|     232 | 0x2881      |       10369 |
|     233 | 0x0011      |          17 |
|     234 | 0x02BB      |         699 |
|     235 | 0x2882      |       10370 |
|     236 | 0x02BC      |         700 |
|     237 | 0x2883      |       10371 |
|     238 | 0x0013      |          19 |
|     239 | 0x0309      |         777 |
|     240 | 0x2884      |       10372 |
|     241 | 0x0014      |          20 |
|     242 | 0x030A      |         778 |
|     243 | 0x2885      |       10373 |
|     244 | 0x0015      |          21 |
|     245 | 0x030B      |         779 |
|     246 | 0x2886      |       10374 |
|     247 | 0x0016      |          22 |
|     248 | 0x0393      |         915 |
|     249 | 0x2887      |       10375 |
|     250 | 0x0394      |         916 |
|     251 | 0x2888      |       10376 |
|     252 | 0x0018      |          24 |
|     253 | 0x0737      |        1847 |
|     254 | 0x2889      |       10377 |
|     255 | 0x0019      |          25 |
|     256 | 0x0738      |        1848 |
|     257 | 0x288A      |       10378 |
|     258 | 0x1B00      |        6912 |
|     259 | 0x3600      |       13824 |
|     260 | 0x5100      |       20736 |
|     261 | 0x06C0      |        1728 |
|     262 | 0x0C60      |        3168 |
|     263 | 0x0D80      |        3456 |
|     264 | 0x65400     |      414720 |
|     265 | 0x03E8      |        1000 |
|     266 | 0x05DC      |        1500 |
|     267 | 0x0BB8      |        3000 |
|     268 | 0x19500     |      103680 |
|     269 | 0x7FFF      |       32767 |
|     270 | 0x116700    |     1140480 |
|     271 | 0x2894      |       10388 |
|     272 | 0x2893      |       10387 |
|     273 | 0x2892      |       10386 |
|     274 | 0x2895      |       10389 |
|     275 | 0x2896      |       10390 |
|     276 | 0x2897      |       10391 |
|     277 | 0x2898      |       10392 |
|     278 | 0x2899      |       10393 |
|     279 | 0x289A      |       10394 |
|     280 | 0x288D      |       10381 |
|     281 | 0x288E      |       10382 |
|     282 | 0x288F      |       10383 |
|     283 | 0x2890      |       10384 |
|     284 | 0x2891      |       10385 |

## String References

- **10216**: The IRNC has dispatched me to help support all those who wish to participate in Conflict.
- **10217**: Before you can take part in this Conflict event, you must first possess $6. You can obtain one from your nation's Conflict Commander, [Excenmille, stationed in Northern San d'Oria./Invincible Shield, stationed in the Metalworks in Bastok./Mhabi Molkot, stationed in Heavens Tower in Windurst.]
- **10218**: Only adventurers who have achieved rank 3 or higher may take part in official Ballista matches. Please return when you have proven your loyalty to your home nation.
- **10219**: However, if you still wish to take part in Ballista, participation in matches held within Diorama Abdhaljs-Ghelsba is open to all citizens of Vana'diel.
- **10221**: What can I help you with? [Nothing./The upcoming Ballista matches./The Ballista schedule./A teleport to the Ballista match./The rules of Ballista./Borrow/Return $6./Borrow/Return $6./Borrow/Return $6./The upcoming Brenner matches./A teleport to the Brenner match (Lv $7)./The rules of Brenner./Borrow/Return $6./Borrow/Return $6.]
- **10222**: I am allowed to teleport Ballista participants to the site of the next match in exchange for $6 or $1 Ballista [Point/Points]. This service is available from twenty-four hours before the start of the match, up until the end of the match.
- **10223**: 6 can be received after participating in Ballista, or in the event one is not able to participate due to an influx (or lack) of entries.
- **10224**: I'm sorry, but I am not authorized to teleport persons who do not meet the level requirement for the match.
- **10225**: The following information regards the match I am currently authorized to teleport you to...
- **10226**: Teleport? [Right away./Not yet.]
- **10227**: I am sorry, but I cannot teleport you at this time.
- **10228**: I am sorry, but I cannot teleport you at this time. Please return when there are less than twenty-four hours remaining until the next match.
- **10235**: While wearing $6 during a match, you will be able to hear the orders of your nation's Pursuivant. His advice will aid you in battle.
- **10236**: Also, you will be informed of all the latest match information when entering select cities.
- **10237**: Would you like $6? [Yes./No.]
- **10238**: Return your $3? [Yes./No.]
- **10240**: By carrying $6 with you during a Ballista match, any temporary item you quarry will be automatically placed in your bag without you having to select whether you wish to keep it, use it, or throw it away.
- **10241**: When your inventory is full, or you cannot carry any more of a certain item, the newly quarried item will be automatically discarded. If you wish, I can lend you one of these shovels, free of charge.
- **10242**: Borrow $6? [Yes./No.]
- **10244**: Return the $3? [Yes./No.]
- **10246**: When carrying $6 with you while participating in a Ballista match, you will have the option to keep or throw away the first Petra you find. This is useful when you want to continue /sprinting.
- **10247**: If you wish, I can loan you one, free of charge.
- **10248**: Borrow $6? [Yes./No.]
- **10249**: Return the $3? [Yes./No.]
- **10250**: When in possession of the key item $3, temporary items will be automatically added to the player's inventory when quarried.
- **10251**: When a player's inventory exceeds the maximum capacity, any temporary item found will simply be discarded. You can speak to me to borrow or return the shovel at any time.
- **10252**: Borrow the $3? [Yes./No.]
- **10253**: Return the $3? [Yes./No.]
- **10254**: When in possession of the key item $3, you will have the choice of keeping or throwing away the first Petra you quarry. You will also retain the ability to sprint.
- **10255**: You can speak to me to borrow or return the band at any time.
- **10256**: Select a match level... [View all levels./No restriction ($0 gil per match)./Level 60 ($1 gil per match)./Level 50 ($2 gil per match)./Level 40 ($3 gil per match)./Level 30 ($4 gil per match)./Return.]
- **10257**: Select for more information... [, [ / / /Lv. 30/Lv. 40/Lv. 50/Lv. 60/Lv. $7]/, [ / / /Lv. 30/Lv. 40/Lv. 50/Lv. 60/Lv. $794668[ / / /Lv. 30/Lv. 40/Lv. 50/Lv. 60/Lv. $7]/, [ / / /Lv. 30/Lv. 40/Lv. 50/Lv. 60/Lv. $7]/, [ / / /Lv. 30/Lv. 40/Lv. 50/Lv. 60/Lv. $7]/, [ / / /Lv. 30/Lv. 40/Lv. 50/Lv. 60/Lv. $7]/, [ / / /Lv. 30/Lv. 40/Lv. 50/Lv. 60/Lv. $7]/, [ / / /Lv. 30/Lv. 40/Lv. 50/Lv. 60/Lv. $7]/, [ / / /Lv. 30/Lv. 40/Lv. 50/Lv. 60/Lv. $7]/, [ / / /Lv. 30/Lv. 40/Lv. 50/Lv. 60/Lv. $7]/Next./Return.]
- **10258**: <Match $0> Entry period begins: Briefing begins:
- **10259**: I apologize, but your level is too low to participate in an official Brenner match.
- **10260**: Official matches are scheduled to begin at the following times: Match 1: Match 2: Match 3:
- **10261**: Teleportation to the Isle is free of charge, but a participation fee of $0 gil is required before each match.
- **10262**: Travel to the Isle? [Yes./Not yet.]
- **10263**: What would you like to know about? [Basic rules./Official/private matches./Flammen-Brenner./Flamme./Match score./Petras and quarrying./Sprint./KO./Return.]
- **10264**: The basic rules of Brenner are as follows:
- **10265**: First, the participants divide into two teams. Each side's camp contains the same number of "Flammen-Brenner."
- **10266**: At the beginning of the match, half of each side's Flammen-Brenner will be ablaze with "Flamme," or flame, while the other half will remain unlit.
- **10267**: Participants can seize a Flamme from the opposing side's Flammen-Brenner and carry it around the Isle.
- **10268**: The goal is to steal your opponent's Flamme and use them to light your side's Flammen-Brenner.
- **10269**: The side that succeeds in lighting all of its Flammen-Brenner will be declared the winner after a specified amount of time.
- **10270**: If neither side is victorious before the match ends, the outcome will be judged based on the score. The "match score" section of the rulebook contains more information on this subject.
- **10271**: Brenner is significantly divided into public and private matches. Official matches are held periodically according to level and feature general participation.
- **10272**: You cannot reserve the Isle when an official match is being held.
- **10273**: No items are necessary for participation, but a minor fee will be collected. You will be unable to participate if your level is too low.
- **10274**: The match outcome will be recorded unless the number of participants fails to exceed $0 members, or if there are fewer than $1 members in a match where the two sides' numbers differ. In such cases, the game will be considered a training match and will not be recorded.
- **10275**: Private matches require a reservation, and participation may be limited. The Master of Ceremonies (MC) can freely adjust the rules and control match proceedings.
- **10276**: "LS Liga" is a form of private match. You can learn more about LS Liga by speaking to a Marshal.
- **10277**: A Flammen-Brenner is a device that contains a Flamme (flame). The Flammen-Brenner is covered by a grate that will open after taking a set amount of damage, exposing the Flamme.
- **10278**: The participants must utilize this chance to seize the Flamme before the grate recloses. Once the grate is closed, the Flammen-Brenner will begin recovering from the damage it has been dealt.
- **10279**: If you manage to open the opposing team's Flammen-Brenner and capture their Flamme, you should make haste to light one of the Flammen-Brenner on your side.
- **10280**: After a certain amount of time, the Flamme will burn out and the opposing team's Flammen-Brenner will be relit.
- **10281**: Also, please note that you cannot quicken your pace using any special abilities while you are in possession of a Flamme.
- **10282**: In the event that neither side fulfills the conditions for victory, the outcome of the match will be evaluated based on score.
- **10283**: Ten points are awarded to each side for every lit Flammen-Brenner, while one point is awarded whenever a Flamme is captured, used to light a Flammen-Brenner, or recaptured from an opponent. One point is also awarded for protecting the Flammen-Brenner for a certain period of time.
- **10284**: Like Ballista, quarry (/quarry) can be used while playing Brenner. Participants may use this ability to dig up Petras and temporary items.
- **10285**: However, unlike Ballista Petras, Brenner Petras have no effect on the match score. You can trade a Petra to a Pursuivant to recover your HP and MP at no expense to TP.
- **10286**: Sprint cannot be used while carrying a Petra. Also, please note that the scout ability cannot be used in Brenner.
- **10287**: Petras will be lost in the event of a KO, but can be carried over from one match to another.
- **10288**: The sprint (/sprint) ability can be used to increase the player's speed when not in possession of a Flamme or Petras.
- **10289**: In the event of a KO, you will be returned to your team's camp. However, recovery will take longer the more often you fall in battle.
- **10290**: In other words, you will receive a penalty if you fall immediately after recovering from KO. In addition, your TP will be reduced to zero and you will lose any Petras in your possession.
- **10291**: I'm sorry. I wasn't listening. Could you start over from the beginning?
- **10292**: What do you wish to know about? [Basic rules./About the Petra./About Sprint./About Scout./About Gate Breach./About area-specific rules./About returning to battle./About special rules./Nothing at the moment.]
- **10293**: Ballista is an exercise once used by the San d'Orian armies to train the Royal Knights in the art of the siege. The word "ballista" means "to throw a stone," and the game has been a part of Vana'dielian military history for centuries.
- **10294**: The rules are simple. Ballista is played by two teams over a number of hours (Vana'diel time). The team with the most points at the end of the match is the victor.
- **10295**: Players from both teams must search for Petras that a Herald has buried in various locations across the battlefield. The players must then take these stones and throw them into targets known as Rooks.
- **10296**: These Rooks can appear in various locations around the battlefield, and both teams are allowed to throw their Petras into them.
- **10297**: Finally, a player's strength is adjusted depending on his or her level. It is felt that this ultimately allows for a more balanced battle.
- **10298**: Petras can be buried anywhere. Once a player believes he or she has found one, the Quarry (/quarry) command should be used to dig up the area at his or her feet.
- **10299**: Sometimes a player may find items other than Petras, such as potions. These temporary items can only be used during the current match (or Best of Three series).
- **10300**: Players can carry more than one Petra, but they cannot throw the stones away once they have obtained them. However, players will lose their Petras if they: (1) Successfully throw them into a rook. (2) Leave the area. (3) Are knocked out.
- **10301**: But don't forget, a player will be unable to use the Sprint command while in possession of a Petra. And, players can only use the Scout command if they carry one of the stones.
- **10302**: As one can see, careful planning and impeccable timing are the keys to victory.
- **10303**: All participants of Ballista will have the ability to use the Sprint command. This will temporarily increase one's movement speed, creating a better chance to find and obtain Petras.
- **10304**: However, remember that once a player has obtained a Petra, he or she will be unable to use the Sprint command. In its place, though, one may use the Scout command.
- **10305**: The locations of the Rooks are constantly changing. This makes it quite difficult to find the targets by just randomly walking about the area.
- **10306**: Communication with one's team members is, of course, one way to locate Rooks. However, another way is by using the Scout command. This will inform a player of the approximate location of the nearest Rook.
- **10307**: Finally, Scout can only be used when a player is carrying a Petra. Because Sprint cannot be used at this time, players must be weary of approaching enemies.
- **10308**: So, a Petra has been obtained and a Rook located. Now all that's left is tossing the stone in, right? Wrong.
- **10309**: There is one aspect of Ballista that has yet to be mentioned...and this is where the real battle begins.
- **10310**: To throw a Petra into a Rook, a player must first wait until the Rook's gate is open. This takes impeccable timing, as the gate is only open for a short while.
- **10311**: But not just anyone can score points this way. A player must first take down a member of the opposing team and achieve Gate Breach status. Only then will his or her shots count.
- **10312**: This extreme method of combat is what made the ancient game of Ballista famous, and transformed its participants into heroes.
- **10313**: Running about looking for stones is no different from a child's game of hide-and-seek. Knowing when to strike is what separates the men from the boys.
- **10314**: The following match types are area-specific: All or Nothing (one match) * Normal Items Allowed: Jugner Forest All or Nothing (one match) * Normal Items Restricted: Pashhow Marshlands Best of Three (three matches) * Normal Items Allowed: Meriphataud Mountains
- **10315**: Best of Three series rules are as follows: Winning a match will earn a nation one "match point." The nation with the most match points at the end of the series will be declared the victor. Winning the third and final match and producing the high scorer will result in two match points awarded. This allows both sides the chance for "come-from-behind" victories.
- **10316**: Between each of the matches, a short interval will be implemented. During this interval, Invisible and Sneak will be cast on all participants. We suggest this time be used to discuss strategies with the other members of your nation's forces.
- **10317**: Players will be forbidden from using any items they bring to the battlefield. Only temporary items that are quarried may be used. A total of fifteen temporary items (though only one of each type) can be carried.
- **10318**: When this rule is in effect, all players will be presented with five complimentary temporary items at the beginning of the match.
- **10319**: For more information on temporary items, refer to the "special rules."
- **10320**: After being KO'd, if a player chooses to be revived at the spot he was defeated, 100% of all HP and 50% of all MP will be restored. In addition, the player will maintain 50% of the TP he had earned.
- **10321**: If a player chooses to return to their force's camp, HP and MP will be fully restored, but all TP will be lost.
- **10322**: Please note that many of the rules previously considered "special" have been fully implemented. Also, several new special rules have been added.
- **10323**: Learn about which special rules? [Temporary items./Ballista Points./Scoring restrictions./Gate Breach radius expansion./Resistance to Sleep./Open entries./Minimum level restrictions./Re-entry restrictions./Participant & Rook numbers./Experience Points./Return.]
- **10324**: Previously, participants in Ballista were required to use an item the moment they dug it up using the /quarry command. However, players can now stock these items as temporary items for use at any time during the match.
- **10325**: Players can hold up to ten temporary items, but only one of each type. If a player finds an item that they already possess, they must use it immediately or throw it away.
- **10326**: If players who possess ten temporary items find an item that they have not already obtained, they will also have the option to exchange it with one of their current items.
- **10327**: Also, players will not, at any time, be allowed to trade temporary items. However, there are items that can be used on other Ballista participants. Please note that players may not be able to use these special items as soon as they are quarried.
- **10328**: Finally, the Heralds will collect temporary items when the match (the third in a Best of Three series) has concluded.
- **10329**: Ballista Points are rewarded to each competitor based on his or her performance in a single Ballista match. The maximum number of points that can be accumulated per match is $0.
- **10330**: While it is taken into consideration, scoring Petras is not the only way to earn Ballista Points. Assisting allies and defeating members of the enemy forces can also earn a high score.
- **10331**: Ballista Points can be traded for special "vouchers," which may be exchanged for free temporary items at the start of new matches.
- **10332**: However, remember that depending on the level restriction of the match, certain vouchers will not be redeemed at the beginning of a match. Speak with a Marshal directly after a match to register your points.
- **10333**: Players will only be allowed to score up to five Petras at a time. Also, a player's Gate Breach status will be automatically disengaged if a Petra is not scored within a certain amount of time. The amount of time is increased for those members of the team currently behind in points.
- **10334**: All allies within a certain radius will achieve Gate Breach status when a member of the enemy forces is defeated.
- **10335**: Players' resistance to sleep will be increased.
- **10336**: During the entry period, from $0:, all adventurers will be allowed to join the forces with the smallest number of participants, regardless of allegiance. Open entries will be accepted until both sides have reached maximum capacity.
- **10337**: In order to ensure balanced matches, the following level limits are enforced: Level 30 matches: 1\`30
- **10338**: Level 40 matches: 31\`40 Level 50 matches: 41\`50 Level 60 matches: 51\`60 Unrestricted matches: 61\`
- **10339**: Please note that any participant who cancels his or her registration will not be allowed to re-apply for the same match.
- **10340**: When the total number of participants in a match is less than 40, the location of the two camps will be adjusted. Also in this case, the number of Rooks will be reduced to two.
- **10341**: Any adventurer whose main level is over 30 will receive EXP for participating in a Ballista match. However, no EXP will be rewarded if the adventurer fails to actively take part in the match.
- **10342**: Read which chapter on B.P. Ranking? [Basic Information./Registering Points./Rewards./Chevron & Title List./None.]
- **10343**: Ballista Point Ranking is based upon all Ballista Points registered from the past ten matches in each of the three participating battle areas.
- **10344**: Anyone who wishes to take part in the ranking needs to register [his/her] points within four hours (Vana'diel time) from the end of the previous match.
- **10345**: After the registration period ends, players can compare their record with those of the previous nine matches.
- **10346**: If, at any time, a player ranks in the top ten (overall) or first for a specific job, [he/she] will have the opportunity to receive a special chevron as well as a new title.
- **10347**: There are four types of chevrons and titles awarded to top-ten players (gold/mythril/silver/bronze), as well as twenty-two different types awarded for outstanding performances by players of each of the twenty-two jobs.
- **10348**: Wearing a chevron during a Ballista match will automatically change a player's current title. If a player wishes to possess this title after a match as well, [he/she] must contact a certain bard in San d'Oria.
- **10349**: Also, while wearing a chevron, players will be able to trade Ballista Points for temporary items not available to all players.
- **10350**: However, the rules of Ballista state that players may only possess a certain chevron for no longer than one half Vana'diel year. When that time comes, they are required to return the chevron before being allowed to participate in any further matches.
- **10351**: Finally, checking someone during a Ballista match will display the total number of chevrons that person has accumulated to date.
- **10352**: View which chevron/title? [1st (overall)./2nd (overall)./3rd (overall)./4th-10th (overall)./1st (warrior)./1st (monk)./1st (white mage)./1st (black mage)./1st (red mage)./1st (thief)./1st (paladin)./1st (dark knight)./1st (beastmaster)./1st (bard)./1st (ranger)./1st (samurai)./1st (ninja)./1st (dragoon)./1st (summoner)./1st (blue mage)./1st (corsair)./1st (puppetmaster)./1st (dancer)./1st (scholar)./1st (geomancer)./1st (rune fencer)./Return.]
- **10353**: Key Item: $3 Title: Gold Balli$25$25$25$25star
- **10354**: Key Item: $3 Title: Mythril Balli$25$25$25star
- **10355**: Key Item: $3 Title: Silver Balli$25$25star
- **10356**: Key Item: $3 Title: Bronze Balli$25star
- **10357**: Key Item: $3 Title: Searing$26Star
- **10358**: Key Item: $3 Title: Striking$26Star
- **10359**: Key Item: $3 Title: Soothing$26Star
- **10360**: Key Item: $3 Title: Sable$26Star
- **10361**: Key Item: $3 Title: Scarlet$26Star
- **10362**: Key Item: $3 Title: Sonic$26Star
- **10363**: Key Item: $3 Title: Saintly$26Star
- **10364**: Key Item: $3 Title: Shadowy$26Star
- **10365**: Key Item: $3 Title: Savage$26Star
- **10366**: Key Item: $3 Title: Singing$26Star
- **10367**: Key Item: $3 Title: Sniping$26Star
- **10368**: Key Item: $3 Title: Slicing$26Star
- **10369**: Key Item: $3 Title: Sneaking$26Star
- **10370**: Key Item: $3 Title: Spearing$26Star
- **10371**: Key Item: $3 Title: Summoning$26Star
- **10372**: Key Item: $3 Title: Sapphire$26Star
- **10373**: Key Item: $3 Title: Surging$26Star
- **10374**: Key Item: $3 Title: Swaying$26Star
- **10375**: Key Item: $3 Title: Sprightly$26Star
- **10376**: Key Item: $3 Title: Sagacious$26Star
- **10377**: Key Item: $3 Title: Spiritual$26Star
- **10378**: Key Item: $3 Title: Stippling$26Star
- **10381**: Matches are only played on even days (Vana'diel time).
- **10382**: Areas where Ballista matches will be held are:", 8, 14, 20, 26 -> Jugner 4, 10, 16, 22, 28 -> Pashhow 6, 12, 18, 24, 30 -> Meriphataud
- **10383**: Level restrictions are:", 4, 6 -> Lv. 30 8, 10, 12 -> Lv. 40 14, 16, 18 -> Lv. 50"0, 22, 24 -> Lv. 60"6, 28, 30 -> None
- **10384**: And finally, participation fees are: Lv. 30 matches: $0 gil Lv. 40 matches: $1 gil Lv. 50 matches: $2 gil Lv. 60 matches: $3 gil Unrestricted matches: $4 gil
- **10385**: Participating nations are selected in the following manner...
- **10386**: Matches for the 1st\`4th month are: Jugner: Bastok vs San d'Oria Pashhow: Bastok vs Windurst Meriphataud: San d'Oria vs Windurst
- **10387**: Matches for the 5th\`8th month are: Jugner: Bastok vs Windurst Pashhow: San d'Oria vs Windurst Meriphataud: Bastok vs San d'Oria
- **10388**: Matches for the 9th\`12th month are: Jugner: San d'Oria vs Windurst Pashhow: San d'Oria vs Bastok Meriphataud: Bastok vs Windurst
- **10389**: Learn about which match: [View previous month./$3/$4/2 Lv.30 Jugner/$3/$4/4 Lv.30 Pashhow/$3/$4/6 Lv.30 Meriphataud/$3/$4/8 Lv.40 Jugner/$3/$4/10 Lv.40 Pashhow/$3/$4/12 Lv.40 Meriphataud/$3/$4/14 Lv.50 Jugner/$3/$4/16 Lv.50 Pashhow/$3/$4/18 Lv.50 Meriphataud/$3/$4/20 Lv.60 Jugner/$3/$4/22 Lv.60 Pashhow/$3/$4/24 Lv.60 Meriphataud/$3/$4/26 Lv.$7 Jugner/$3/$4/28 Lv.$7 Pashhow/$3/$4/30 Lv.$7 Meriphataud/View next month./Quit.]
- **10390**: Learn about which match: [View previous month./$4/2/$3 Lv.30 Jugner/$4/4/$3 Lv.30 Pashhow/$4/6/$3 Lv.30 Meriphataud/$4/8/$3 Lv.40 Jugner/$4/10/$3 Lv.40 Pashhow/$4/12/$3 Lv.40 Meriphataud/$4/14/$3 Lv.50 Jugner/$4/16/$3 Lv.50 Pashhow/$4/18/$3 Lv.50 Meriphataud/$4/20/$3 Lv.60 Jugner/$4/22/$3 Lv.60 Pashhow/$4/24/$3 Lv.60 Meriphataud/$4/26/$3 Lv.$7 Jugner/$4/28/$3 Lv.$7 Pashhow/$4/30/$3 Lv.$7 Meriphataud/View next month./Quit.]
- **10391**: Learn about which match: [View previous month."/$4/$3 Lv.30 Jugner/4/$4/$3 Lv.30 Pashhow/6/$4/$3 Lv.30 Meriphataud/8/$4/$3 Lv.40 Jugner/10/$4/$3 Lv.40 Pashhow/12/$4/$3 Lv.40 Meriphataud/14/$4/$3 Lv.50 Jugner/16/$4/$3 Lv.50 Pashhow/18/$4/$3 Lv.50 Meriphataud"0/$4/$3 Lv.60 Jugner"2/$4/$3 Lv.60 Pashhow"4/$4/$3 Lv.60 Meriphataud"6/$4/$3 Lv.$7 Jugner"8/$4/$3 Lv.$7 Pashhow"0/$4/$3 Lv.$7 Meriphataud/View next month./Quit.]
- **10392**: Place: [Jugner Forest/Pashhow Marshlands/Meriphataud Mountains] Nations: [San d'Oria/Bastok/Windurst] vs [San d'Oria/Bastok/Windurst] Level Restriction: [None/ / /30/40/50/60/] Participation Fee: $4 gil Match Format: [All or Nothing/Best of Three] * [Normal Items Restricted/Normal Items Allowed]
- **10393**: Entry period begins: Vana'diel: Earth:
- **10394**: Match begins: Vana'diel: Earth:

## Events

### Event 65535

#### Metadata

| Field        | Value   |
|--------------|---------|
| Entrypoint   | 0x0000  |
| Data Size    | 1 bytes |
| Instructions | 1       |

```
      00 01 02 03 04 05 06 07  08 09 0A 0B 0C 0D 0E 0F
      -- -- -- -- -- -- -- --  -- -- -- -- -- -- -- --
0000: 00                                                .               
```

#### Opcodes

```
  0: 0x0000 [0x00] END_REQSTACK()
```

### Event 773

#### Metadata

| Field        | Value      |
|--------------|------------|
| Entrypoint   | 0x0001     |
| Data Size    | 5155 bytes |
| Instructions | 720        |

```
      00 01 02 03 04 05 06 07  08 09 0A 0B 0C 0D 0E 0F
      -- -- -- -- -- -- -- --  -- -- -- -- -- -- -- --
0000:    20 01 1E F0 FF FF 7F  6F 70 41 00 80 01 80 02    ......opA.....
0010: 10 01 00 41 02 80 03 80  02 10 02 00 41 04 80 04  ...A........A...
0020: 80 02 10 03 00 41 05 80  05 80 02 10 04 00 41 06  .....A........A.
0030: 80 06 80 02 10 05 00 41  07 80 07 80 02 10 07 00  .......A........
0040: 41 08 80 08 80 02 10 08  00 41 09 80 09 80 02 10  A........A......
0050: 06 00 41 0A 80 0A 80 02  10 0A 00 41 0B 80 0B 80  ..A........A....
0060: 02 10 09 00 41 0C 80 0C  80 02 10 15 00 03 1E 00  ....A...........
0070: 03 10 03 0B 00 04 10 1D  0D 80 23 06 14 00 02 03  ..........#.....
0080: 00 00 80 00 AA 00 02 02  00 0E 80 03 95 00 1D 0F  ................
0090: 80 23 01 A3 00 03 02 10  10 80 03 03 10 01 00 1D  .#..............
00A0: 11 80 23 05 14 00 1D 12  80 23 06 11 00 2E 83 13  ..#......#......
00B0: 00 15 13 00 13 80 14 13  00 13 80 03 02 10 14 80  ................
00C0: 03 03 10 15 80 03 04 10  16 80 03 05 10 17 80 03  ................
00D0: 06 10 18 80 02 14 00 01  80 00 06 01 3C 11 00 01  ............<...
00E0: 80 01 80 3C 11 00 02 80  01 80 3C 11 00 0E 80 01  ...<......<.....
00F0: 80 3C 11 00 03 80 01 80  3C 11 00 04 80 01 80 3C  .<......<......<
0100: 11 00 05 80 01 80 02 15  00 01 80 00 2E 01 83 00  ................
0110: 00 1A C4 09 02 17 00 00  80 00 26 01 3C 11 00 07  ..........&.<...
0120: 80 01 80 01 2B 01 03 09  10 17 00 01 4A 01 3C 11  ....+.......J.<.
0130: 00 06 80 01 80 3C 11 00  07 80 01 80 3C 11 00 09  .....<......<...
0140: 80 01 80 3C 11 00 0A 80  01 80 24 19 80 12 00 11  ...<......$.....
0150: 00 25 40 00 80 1A 80 01  10 00 10 03 12 00 00 10  .%@.............
0160: 02 00 10 01 80 00 71 01  1A 6A 11 01 AA 00 01 C2  ......q..j......
0170: 09 02 00 10 02 80 00 82  01 1A BD 13 01 AA 00 01  ................
0180: C2 09 02 00 10 0E 80 00  C8 02 03 02 10 1B 80 03  ................
0190: 03 10 1C 80 1D 1D 80 23  02 04 00 00 80 00 B2 01  .......#........
01A0: 02 0B 00 1C 80 04 AB 01  01 B2 01 1D 1E 80 23 01  ..............#.
01B0: C2 02 83 2C 00 03 1B 00  2C 00 03 27 00 00 80 02  ...,....,..'....
01C0: 27 00 02 80 05 C2 02 1A  95 0F 06 00 00 02 1D 00  '...............
01D0: 1F 80 80 DB 01 05 00 00  01 33 02 02 1D 00 20 80  .........3.... .
01E0: 80 F1 01 02 88 7F 21 80  04 EE 01 05 00 00 01 33  ......!........3
01F0: 02 02 1D 00 22 80 80 07  02 02 88 7F 23 80 04 04  ....".......#...
0200: 02 05 00 00 01 33 02 02  1D 00 24 80 80 1D 02 02  .....3....$.....
0210: 88 7F 25 80 04 1A 02 05  00 00 01 33 02 02 1D 00  ..%........3....
0220: 00 80 80 33 02 02 88 7F  26 80 04 30 02 05 00 00  ...3....&..0....
0230: 01 33 02 02 1F 00 2C 00  05 BC 02 02 24 00 2C 00  .3....,.....$.,.
0240: 04 BC 02 02 00 00 01 80  00 B5 02 02 27 00 02 80  ............'...
0250: 05 AE 02 1D 27 80 23 1A  24 13 24 28 80 01 80 00  ....'.#.$.$(....
0260: 80 25 02 00 10 00 80 00  AB 02 20 01 42 40 29 80  .%........ .B@).
0270: 21 80 01 10 27 00 73 2A  80 F8 FF FF 7F F0 FF FF  !...'.s*........
0280: 7F 43 00 43 01 1C 2B 80  02 02 10 01 80 00 A0 02  .C.C..+.........
0290: 6C F0 FF FF 7F 2C 80 00  80 1D 2D 80 23 01 A1 02  l....,....-.#...
02A0: 30 03 01 10 2E 80 21 00  01 AB 02 01 B2 02 1D 2F  0.....!......../
02B0: 80 23 01 BC 02 1D 30 80  23 01 C2 02 0B 27 00 01  .#....0.#....'..
02C0: BF 01 01 AA 00 01 C2 09  02 00 10 31 80 00 DC 02  ...........1....
02D0: 06 00 10 1A 16 0B 01 AA  00 01 C2 09 02 00 10 03  ................
02E0: 80 00 2D 03 03 02 10 14  80 1D 32 80 23 1D 33 80  ..-.......2.#.3.
02F0: 23 02 08 00 00 80 00 13  03 24 34 80 01 80 00 80  #........$4.....
0300: 25 02 00 10 00 80 00 0D  03 42 01 10 03 01 AA 00  %........B......
0310: 01 2A 03 24 35 80 01 80  00 80 25 02 00 10 00 80  .*.$5.....%.....
0320: 00 27 03 42 01 2A 03 01  AA 00 01 C2 09 02 00 10  .'.B.*..........
0330: 04 80 00 7E 03 03 02 10  15 80 1D 36 80 23 1D 37  ...~.......6.#.7
0340: 80 23 02 07 00 00 80 00  64 03 24 38 80 01 80 00  .#......d.$8....
0350: 80 25 02 00 10 00 80 00  5E 03 42 01 61 03 01 AA  .%......^.B.a...
0360: 00 01 7B 03 24 39 80 01  80 00 80 25 02 00 10 00  ..{.$9.....%....
0370: 80 00 78 03 42 01 7B 03  01 AA 00 01 C2 09 02 00  ..x.B.{.........
0380: 10 05 80 00 CF 03 03 02  10 16 80 1D 3A 80 23 1D  ............:.#.
0390: 3B 80 23 02 06 00 00 80  00 B5 03 24 3C 80 01 80  ;.#........$<...
03A0: 00 80 25 02 00 10 00 80  00 AF 03 42 01 B2 03 01  ..%........B....
03B0: AA 00 01 CC 03 24 3D 80  01 80 00 80 25 02 00 10  .....$=.....%...
03C0: 00 80 00 C9 03 42 01 CC  03 01 AA 00 01 C2 09 02  .....B..........
03D0: 00 10 06 80 00 47 07 06  10 00 06 0F 00 03 02 10  .....G..........
03E0: 3E 80 03 03 10 3F 80 03  04 10 14 80 03 05 10 40  >....?.........@
03F0: 80 03 06 10 41 80 24 42  80 00 80 00 80 25 02 00  ....A.$B.....%..
0400: 10 00 80 00 0E 04 03 0F  00 43 80 01 69 04 02 00  .........C..i...
0410: 10 01 80 00 1E 04 03 0F  00 44 80 01 69 04 02 00  .........D..i...
0420: 10 02 80 00 2E 04 03 0F  00 24 80 01 69 04 02 00  .........$..i...
0430: 10 0E 80 00 3E 04 03 0F  00 22 80 01 69 04 02 00  ....>...."..i...
0440: 10 31 80 00 4E 04 03 0F  00 20 80 01 69 04 02 00  .1..N.... ..i...
0450: 10 03 80 00 5E 04 03 0F  00 1F 80 01 69 04 02 00  ....^.......i...
0460: 10 04 80 00 69 04 01 69  04 02 00 10 03 80 05 41  ....i..i.......A
0470: 07 03 16 00 13 00 03 0E  00 16 00 06 0C 00 06 0D  ................
0480: 00 02 0C 00 45 80 05 F1  05 03 00 00 0E 00 1A C4  ....E...........
0490: 09 02 17 00 00 80 01 DE  05 06 00 00 02 0F 00 43  ...............C
04A0: 80 00 AA 04 05 00 00 01  B5 04 02 0F 00 17 00 00  ................
04B0: B5 04 05 00 00 02 00 00  01 80 00 DE 05 03 00 00  ................
04C0: 13 00 07 00 00 46 80 02  0E 00 00 00 05 DE 05 02  .....F..........
04D0: 0D 00 08 80 05 DE 05 02  0D 00 00 80 80 F1 04 03  ................
04E0: 02 10 0E 00 03 02 17 17  00 15 02 17 08 80 01 DB  ................
04F0: 05 02 0D 00 01 80 80 0B  05 03 03 10 0E 00 03 03  ................
0500: 17 17 00 15 03 17 08 80  01 DB 05 02 0D 00 02 80  ................
0510: 80 25 05 03 04 10 0E 00  03 04 17 17 00 15 04 17  .%..............
0520: 08 80 01 DB 05 02 0D 00  0E 80 80 3F 05 03 05 10  ...........?....
0530: 0E 00 03 05 17 17 00 15  05 17 08 80 01 DB 05 02  ................
0540: 0D 00 31 80 80 59 05 03  06 10 0E 00 03 06 17 17  ..1..Y..........
0550: 00 15 06 17 08 80 01 DB  05 02 0D 00 03 80 80 73  ...............s
0560: 05 03 07 10 0E 00 03 07  17 17 00 15 07 17 08 80  ................
0570: 01 DB 05 02 0D 00 04 80  80 8D 05 03 08 10 0E 00  ................
0580: 03 08 17 17 00 15 08 17  08 80 01 DB 05 02 0D 00  ................
0590: 05 80 80 A7 05 03 09 10  0E 00 03 09 17 17 00 15  ................
05A0: 09 17 08 80 01 DB 05 02  0D 00 06 80 80 C1 05 03  ................
05B0: 00 17 0E 00 03 0A 17 17  00 15 0A 17 08 80 01 DB  ................
05C0: 05 02 0D 00 07 80 80 DB  05 03 01 17 0E 00 03 0B  ................
05D0: 17 17 00 15 0B 17 08 80  01 DB 05 0B 0D 00 02 0D  ................
05E0: 00 08 80 05 EB 05 07 0E  00 13 80 0B 0C 00 01 81  ................
05F0: 04 03 11 00 47 80 0C 0D  00 02 0D 00 00 80 04 0E  ....G...........
0600: 06 3D 11 00 0D 00 01 80  0C 0D 00 01 F9 05 24 48  .=............$H
0610: 80 10 00 11 00 25 03 10  00 00 10 02 00 10 08 80  .....%..........
0620: 00 33 06 03 16 00 0E 00  03 10 00 00 80 01 76 04  .3............v.
0630: 01 41 07 02 00 10 09 80  00 3E 06 01 41 07 02 00  .A.......>..A...
0640: 10 00 80 80 4E 06 03 00  00 02 10 01 DE 06 02 00  ....N...........
0650: 10 01 80 80 5E 06 03 00  00 03 10 01 DE 06 02 00  ....^...........
0660: 10 02 80 80 6E 06 03 00  00 04 10 01 DE 06 02 00  ....n...........
0670: 10 0E 80 80 7E 06 03 00  00 05 10 01 DE 06 02 00  ....~...........
0680: 10 31 80 80 8E 06 03 00  00 06 10 01 DE 06 02 00  .1..............
0690: 10 03 80 80 9E 06 03 00  00 07 10 01 DE 06 02 00  ................
06A0: 10 04 80 80 AE 06 03 00  00 08 10 01 DE 06 02 00  ................
06B0: 10 05 80 80 BE 06 03 00  00 09 10 01 DE 06 02 00  ................
06C0: 10 06 80 80 CE 06 03 00  00 00 17 01 DE 06 02 00  ................
06D0: 10 07 80 80 DE 06 03 00  00 01 17 01 DE 06 03 02  ................
06E0: 10 01 80 02 02 10 0E 80  05 3E 07 03 03 10 00 00  .........>......
06F0: 03 04 10 00 00 02 02 10  01 80 80 0A 07 07 03 10  ................
0700: 00 80 07 04 10 49 80 01  34 07 02 02 10 02 80 80  .....I..4.......
0710: 1F 07 07 03 10 4A 80 07  04 10 4B 80 01 34 07 02  .....J....K..4..
0720: 02 10 0E 80 80 34 07 07  03 10 4C 80 07 04 10 4D  .....4....L....M
0730: 80 01 34 07 1D 4E 80 23  0B 02 10 01 E3 06 01 76  ..4..N.#.......v
0740: 04 01 AA 00 01 C2 09 02  00 10 07 80 00 1C 08 06  ................
0750: 10 00 02 88 7F 17 00 04  12 08 03 02 10 13 00 07  ................
0760: 02 10 00 80 03 03 10 13  00 07 03 10 4A 80 03 04  ............J...
0770: 10 13 00 07 04 10 4C 80  1D 4F 80 23 02 17 00 44  ......L..O.#...D
0780: 80 80 8C 07 03 02 10 3E  80 01 CC 07 02 17 00 24  .......>.......$
0790: 80 80 9C 07 03 02 10 3F  80 01 CC 07 02 17 00 22  .......?......."
07A0: 80 80 AC 07 03 02 10 14  80 01 CC 07 02 17 00 20  ............... 
07B0: 80 80 BC 07 03 02 10 40  80 01 CC 07 02 17 00 1F  .......@........
07C0: 80 80 CC 07 03 02 10 41  80 01 CC 07 1D 50 80 23  .......A.....P.#
07D0: 24 51 80 01 80 00 80 25  02 00 10 00 80 00 0F 08  $Q.....%........
07E0: 42 73 2A 80 F8 FF FF 7F  F0 FF FF 7F 1C 2B 80 43  Bs*..........+.C
07F0: 00 43 01 02 02 10 43 80  00 0B 08 6C F0 FF FF 7F  .C....C....l....
0800: 52 80 01 80 48 53 80 23  01 0C 08 30 01 0F 08 01  R...HS.#...0....
0810: 16 08 1D 54 80 23 01 AA  00 01 C2 09 02 00 10 08  ...T.#..........
0820: 80 00 20 09 06 00 00 24  55 80 00 00 00 80 25 03  .. ....$U.....%.
0830: 00 00 00 10 02 00 10 00  80 00 5E 08 48 56 80 23  ..........^.HV.#
0840: 48 57 80 23 48 58 80 23  48 59 80 23 48 5A 80 23  HW.#HX.#HY.#HZ.#
0850: 48 5B 80 23 48 5C 80 23  01 27 08 01 1A 09 02 00  H[.#H\.#.'......
0860: 10 01 80 00 8E 08 48 5D  80 23 48 5E 80 23 48 5F  ......H].#H^.#H_
0870: 80 23 03 02 10 04 80 03  03 10 0A 80 48 60 80 23  .#..........H`.#
0880: 48 61 80 23 48 62 80 23  01 27 08 01 1A 09 02 00  Ha.#Hb.#.'......
0890: 10 02 80 00 A4 08 48 63  80 23 48 64 80 23 01 27  ......Hc.#Hd.#.'
08A0: 08 01 1A 09 02 00 10 0E  80 00 BE 08 48 65 80 23  ............He.#
08B0: 48 66 80 23 48 67 80 23  01 27 08 01 1A 09 02 00  Hf.#Hg.#.'......
08C0: 10 31 80 00 D4 08 48 68  80 23 48 69 80 23 01 27  .1....Hh.#Hi.#.'
08D0: 08 01 1A 09 02 00 10 03  80 00 F2 08 48 6A 80 23  ............Hj.#
08E0: 48 6B 80 23 48 6C 80 23  48 6D 80 23 01 27 08 01  Hk.#Hl.#Hm.#.'..
08F0: 1A 09 02 00 10 04 80 00  04 09 48 6E 80 23 01 27  ..........Hn.#.'
0900: 08 01 1A 09 02 00 10 05  80 00 1A 09 48 6F 80 23  ............Ho.#
0910: 48 70 80 23 01 27 08 01  1A 09 01 AA 00 01 C2 09  Hp.#.'..........
0920: 02 00 10 09 80 00 71 09  03 02 10 17 80 1D 71 80  ......q.......q.
0930: 23 1D 72 80 23 02 0A 00  00 80 00 57 09 24 73 80  #.r.#......W.$s.
0940: 01 80 00 80 25 02 00 10  00 80 00 51 09 42 01 54  ....%......Q.B.T
0950: 09 01 AA 00 01 6E 09 24  74 80 01 80 00 80 25 02  .....n.$t.....%.
0960: 00 10 00 80 00 6B 09 42  01 6E 09 01 AA 00 01 C2  .....k.B.n......
0970: 09 02 00 10 0A 80 00 C2  09 03 02 10 18 80 1D 75  ...............u
0980: 80 23 1D 76 80 23 02 09  00 00 80 00 A8 09 24 73  .#.v.#........$s
0990: 80 01 80 00 80 25 02 00  10 00 80 00 A2 09 42 01  .....%........B.
09A0: A5 09 01 AA 00 01 BF 09  24 74 80 01 80 00 80 25  ........$t.....%
09B0: 02 00 10 00 80 00 BC 09  42 01 BF 09 01 AA 00 01  ........B.......
09C0: C2 09 21 00 3F 00 00 00  00 46 80 15 00 00 13 80  ..!.?....F......
09D0: 02 00 00 77 80 80 E0 09  03 17 00 24 80 01 15 0B  ...w.......$....
09E0: 02 00 00 04 80 80 F0 09  03 17 00 44 80 01 15 0B  ...........D....
09F0: 02 00 00 78 80 80 00 0A  03 17 00 1F 80 01 15 0B  ...x............
0A00: 02 00 00 1F 80 80 10 0A  03 17 00 20 80 01 15 0B  ........... ....
0A10: 02 00 00 79 80 80 20 0A  03 17 00 22 80 01 15 0B  ...y.. ...."....
0A20: 02 00 00 7A 80 80 30 0A  03 17 00 22 80 01 15 0B  ...z..0...."....
0A30: 02 00 00 7B 80 80 40 0A  03 17 00 24 80 01 15 0B  ...{..@....$....
0A40: 02 00 00 7C 80 80 50 0A  03 17 00 20 80 01 15 0B  ...|..P.... ....
0A50: 02 00 00 7D 80 80 60 0A  03 17 00 1F 80 01 15 0B  ...}..`.........
0A60: 02 00 00 7E 80 80 70 0A  03 17 00 44 80 01 15 0B  ...~..p....D....
0A70: 02 00 00 7F 80 80 80 0A  03 17 00 44 80 01 15 0B  ...........D....
0A80: 02 00 00 09 80 80 90 0A  03 17 00 1F 80 01 15 0B  ................
0A90: 02 00 00 80 80 80 A0 0A  03 17 00 20 80 01 15 0B  ........... ....
0AA0: 02 00 00 81 80 80 B0 0A  03 17 00 22 80 01 15 0B  ..........."....
0AB0: 02 00 00 82 80 80 C0 0A  03 17 00 24 80 01 15 0B  ...........$....
0AC0: 02 00 00 83 80 80 D0 0A  03 17 00 20 80 01 15 0B  ........... ....
0AD0: 02 00 00 84 80 80 E0 0A  03 17 00 1F 80 01 15 0B  ................
0AE0: 02 00 00 85 80 80 F0 0A  03 17 00 44 80 01 15 0B  ...........D....
0AF0: 02 00 00 86 80 80 00 0B  03 17 00 22 80 01 15 0B  ..........."....
0B00: 02 00 00 87 80 80 10 0B  03 17 00 24 80 01 15 0B  ...........$....
0B10: 03 17 00 00 80 1B 24 88  80 00 10 00 80 25 02 00  ......$......%..
0B20: 10 00 80 00 40 0B 48 89  80 23 48 8A 80 23 48 8B  ....@.H..#H..#H.
0B30: 80 23 48 8C 80 23 48 8D  80 23 01 16 0B 01 F9 0C  .#H..#H..#......
0B40: 02 00 10 01 80 00 62 0B  48 8E 80 23 48 8F 80 23  ......b.H..#H..#
0B50: 48 90 80 23 48 91 80 23  48 92 80 23 01 16 0B 01  H..#H..#H..#....
0B60: F9 0C 02 00 10 02 80 00  78 0B 48 93 80 23 48 94  ........x.H..#H.
0B70: 80 23 01 16 0B 01 F9 0C  02 00 10 0E 80 00 92 0B  .#..............
0B80: 48 95 80 23 48 96 80 23  48 97 80 23 01 16 0B 01  H..#H..#H..#....
0B90: F9 0C 02 00 10 31 80 00  B8 0B 48 98 80 23 48 99  .....1....H..#H.
0BA0: 80 23 48 9A 80 23 48 9B  80 23 48 9C 80 23 48 9D  .#H..#H..#H..#H.
0BB0: 80 23 01 16 0B 01 F9 0C  02 00 10 03 80 00 DE 0B  .#..............
0BC0: 48 9E 80 23 48 9F 80 23  48 A0 80 23 48 A1 80 23  H..#H..#H..#H..#
0BD0: 48 A2 80 23 48 A3 80 23  01 16 0B 01 F9 0C 02 00  H..#H..#........
0BE0: 10 04 80 00 F4 0B 48 A4  80 23 48 A5 80 23 01 16  ......H..#H..#..
0BF0: 0B 01 F9 0C 02 00 10 05  80 00 F9 0C 06 00 10 48  ...............H
0C00: A6 80 23 24 A7 80 00 10  00 80 25 02 00 10 00 80  ..#$......%.....
0C10: 00 2D 0C 48 A8 80 23 48  A9 80 23 48 AA 80 23 48  .-.H..#H..#H..#H
0C20: AB 80 23 48 AC 80 23 01  03 0C 01 F6 0C 02 00 10  ..#H..#.........
0C30: 01 80 00 3E 0C 1A FA 0C  01 03 0C 01 F6 0C 02 00  ...>............
0C40: 10 02 80 00 50 0C 48 AD  80 23 01 03 0C 01 F6 0C  ....P.H..#......
0C50: 02 00 10 0E 80 00 62 0C  48 AE 80 23 01 03 0C 01  ......b.H..#....
0C60: F6 0C 02 00 10 31 80 00  74 0C 48 AF 80 23 01 03  .....1..t.H..#..
0C70: 0C 01 F6 0C 02 00 10 03  80 00 97 0C AA B0 80 00  ................
0C80: 00 00 00 00 00 00 00 02  10 03 10 00 00 48 B1 80  .............H..
0C90: 23 01 03 0C 01 F6 0C 02  00 10 04 80 00 AD 0C 48  #..............H
0CA0: B2 80 23 48 B3 80 23 01  03 0C 01 F6 0C 02 00 10  ..#H..#.........
0CB0: 05 80 00 BF 0C 48 B4 80  23 01 03 0C 01 F6 0C 02  .....H..#.......
0CC0: 00 10 06 80 00 D1 0C 48  B5 80 23 01 03 0C 01 F6  .......H..#.....
0CD0: 0C 02 00 10 07 80 00 E3  0C 48 B6 80 23 01 03 0C  .........H..#...
0CE0: 01 F6 0C 02 00 10 08 80  00 F6 0C 03 00 10 05 80  ................
0CF0: 01 16 0B 01 F6 0C 01 F9  0C 1B 03 02 10 B7 80 48  ...............H
0D00: B8 80 23 48 B9 80 23 48  BA 80 23 48 BB 80 23 1B  ..#H..#H..#H..#.
0D10: 24 BC 80 19 00 00 80 25  03 19 00 00 10 02 00 10  $......%........
0D20: 00 80 00 2F 0D 48 BD 80  23 01 10 0D 01 94 0F 02  .../.H..#.......
0D30: 00 10 01 80 00 45 0D 48  BE 80 23 48 BF 80 23 01  .....E.H..#H..#.
0D40: 10 0D 01 94 0F 02 00 10  02 80 00 6B 0D 48 C0 80  ...........k.H..
0D50: 23 48 C1 80 23 48 C2 80  23 48 C3 80 23 48 C4 80  #H..#H..#H..#H..
0D60: 23 48 C5 80 23 01 10 0D  01 94 0F 02 00 10 0E 80  #H..#...........
0D70: 00 94 0F 06 1A 00 24 C6  80 1A 00 00 80 25 03 1A  ......$......%..
0D80: 00 00 10 02 00 10 00 80  00 97 0D 03 02 10 C7 80  ................
0D90: 48 C8 80 23 01 8E 0F 02  00 10 01 80 00 AB 0D 03  H..#............
0DA0: 02 10 C9 80 48 CA 80 23  01 8E 0F 02 00 10 02 80  ....H..#........
0DB0: 00 BF 0D 03 02 10 CB 80  48 CC 80 23 01 8E 0F 02  ........H..#....
0DC0: 00 10 0E 80 00 D3 0D 03  02 10 CD 80 48 CE 80 23  ............H..#
0DD0: 01 8E 0F 02 00 10 31 80  00 E7 0D 03 02 10 CF 80  ......1.........
0DE0: 48 D0 80 23 01 8E 0F 02  00 10 03 80 00 FB 0D 03  H..#............
0DF0: 02 10 D1 80 48 D2 80 23  01 8E 0F 02 00 10 04 80  ....H..#........
0E00: 00 0F 0E 03 02 10 D3 80  48 D4 80 23 01 8E 0F 02  ........H..#....
0E10: 00 10 05 80 00 23 0E 03  02 10 D5 80 48 D6 80 23  .....#......H..#
0E20: 01 8E 0F 02 00 10 06 80  00 37 0E 03 02 10 D7 80  .........7......
0E30: 48 D8 80 23 01 8E 0F 02  00 10 07 80 00 4B 0E 03  H..#.........K..
0E40: 02 10 D9 80 48 DA 80 23  01 8E 0F 02 00 10 08 80  ....H..#........
0E50: 00 5F 0E 03 02 10 DB 80  48 DC 80 23 01 8E 0F 02  ._......H..#....
0E60: 00 10 09 80 00 73 0E 03  02 10 DD 80 48 DE 80 23  .....s......H..#
0E70: 01 8E 0F 02 00 10 0A 80  00 87 0E 03 02 10 DF 80  ................
0E80: 48 E0 80 23 01 8E 0F 02  00 10 0B 80 00 9B 0E 03  H..#............
0E90: 02 10 E1 80 48 E2 80 23  01 8E 0F 02 00 10 0C 80  ....H..#........
0EA0: 00 AF 0E 03 02 10 E3 80  48 E4 80 23 01 8E 0F 02  ........H..#....
0EB0: 00 10 1A 80 00 C3 0E 03  02 10 E5 80 48 E6 80 23  ............H..#
0EC0: 01 8E 0F 02 00 10 29 80  00 D7 0E 03 02 10 E7 80  ......).........
0ED0: 48 E8 80 23 01 8E 0F 02  00 10 E9 80 00 EB 0E 03  H..#............
0EE0: 02 10 EA 80 48 EB 80 23  01 8E 0F 02 00 10 78 80  ....H..#......x.
0EF0: 00 FF 0E 03 02 10 EC 80  48 ED 80 23 01 8E 0F 02  ........H..#....
0F00: 00 10 EE 80 00 13 0F 03  02 10 EF 80 48 F0 80 23  ............H..#
0F10: 01 8E 0F 02 00 10 F1 80  00 27 0F 03 02 10 F2 80  .........'......
0F20: 48 F3 80 23 01 8E 0F 02  00 10 F4 80 00 3B 0F 03  H..#.........;..
0F30: 02 10 F5 80 48 F6 80 23  01 8E 0F 02 00 10 F7 80  ....H..#........
0F40: 00 4F 0F 03 02 10 F8 80  48 F9 80 23 01 8E 0F 02  .O......H..#....
0F50: 00 10 80 80 00 63 0F 03  02 10 FA 80 48 FB 80 23  .....c......H..#
0F60: 01 8E 0F 02 00 10 FC 80  00 77 0F 03 02 10 FD 80  .........w......
0F70: 48 FE 80 23 01 8E 0F 02  00 10 FF 80 00 8B 0F 03  H..#............
0F80: 02 10 00 81 48 01 81 23  01 8E 0F 01 10 0D 01 76  ....H..#.......v
0F90: 0D 01 94 0F 1B 03 1F 00  1B 00 02 27 00 00 80 80  ...........'....
0FA0: A5 0F 01 C5 0F 02 27 00  01 80 80 B5 0F 08 1F 00  ......'.........
0FB0: 02 81 01 C5 0F 02 27 00  02 80 80 C5 0F 08 1F 00  ......'.........
0FC0: 03 81 01 C5 0F 15 1F 00  04 81 14 1F 00 04 81 02  ................
0FD0: 27 00 00 80 80 DA 0F 01  FA 0F 02 27 00 01 80 80  '..........'....
0FE0: EA 0F 07 1F 00 02 81 01  FA 0F 02 27 00 02 80 80  ...........'....
0FF0: FA 0F 07 1F 00 03 81 01  FA 0F 03 20 00 1F 00 07  ........... ....
1000: 20 00 05 81 03 21 00 1F  00 07 21 00 06 81 03 22   ....!....!...."
1010: 00 1F 00 07 22 00 07 81  03 23 00 07 81 03 24 00  ...."....#....$.
1020: 1F 00 07 24 00 02 81 03  25 00 1F 00 07 25 00 02  ...$....%....%..
1030: 81 03 26 00 1F 00 07 26  00 E6 80 03 2A 00 1F 00  ..&....&....*...
1040: 15 2A 00 08 81 3F 1C 00  2A 00 0E 80 02 27 00 00  .*...?..*....'..
1050: 80 80 57 10 01 77 10 02  27 00 01 80 80 67 10 07  ..W..w..'....g..
1060: 1C 00 01 80 01 77 10 02  27 00 02 80 80 77 10 07  .....w..'....w..
1070: 1C 00 02 80 01 77 10 3F  1C 00 1C 00 0E 80 02 1C  .....w.?........
1080: 00 00 80 80 93 10 03 28  00 00 80 03 29 00 01 80  .......(....)...
1090: 01 BD 10 02 1C 00 01 80  80 A8 10 03 28 00 01 80  ............(...
10A0: 03 29 00 02 80 01 BD 10  02 1C 00 02 80 80 BD 10  .)..............
10B0: 03 28 00 00 80 03 29 00  02 80 01 BD 10 03 2A 00  .(....).......*.
10C0: 1F 00 15 2A 00 04 81 3F  2A 00 2A 00 03 80 02 2A  ...*...?*.*....*
10D0: 00 00 80 80 DE 10 03 1D  00 1F 80 01 23 11 02 2A  ............#..*
10E0: 00 01 80 80 EE 10 03 1D  00 20 80 01 23 11 02 2A  ......... ..#..*
10F0: 00 02 80 80 FE 10 03 1D  00 22 80 01 23 11 02 2A  ........."..#..*
1100: 00 0E 80 80 0E 11 03 1D  00 24 80 01 23 11 02 2A  .........$..#..*
1110: 00 31 80 80 1E 11 03 1D  00 00 80 01 23 11 03 1D  .1..........#...
1120: 00 00 80 1B 02 1D 00 1F  80 80 34 11 03 2B 00 14  ..........4..+..
1130: 80 01 69 11 02 1D 00 20  80 80 44 11 03 2B 00 09  ..i.... ..D..+..
1140: 81 01 69 11 02 1D 00 22  80 80 54 11 03 2B 00 0A  ..i...."..T..+..
1150: 81 01 69 11 02 1D 00 24  80 80 64 11 03 2B 00 B7  ..i....$..d..+..
1160: 80 01 69 11 03 2B 00 0B  81 1B 83 30 00 15 30 00  ..i..+.....0..0.
1170: 0C 81 14 30 00 0C 81 06  2E 00 06 31 00 83 2C 00  ...0.......1..,.
1180: 03 2F 00 01 80 06 2D 00  02 2F 00 1A 80 05 D0 11  ./....-../......
1190: 03 00 00 2F 00 14 00 00  02 81 08 00 00 07 81 07  .../............
11A0: 00 00 30 00 03 1B 00 00  00 03 27 00 2F 00 0C 27  ..0.......'./..'
11B0: 00 3F 27 00 27 00 0E 80  1A 95 0F 02 21 00 2C 00  .?'.'.......!.,.
11C0: 03 CA 11 3C 2D 00 2F 00  01 80 0B 2F 00 01 88 11  ...<-./..../....
11D0: 41 01 80 1A 80 2D 00 00  00 02 00 00 0D 81 00 EC  A....-..........
11E0: 11 07 30 00 0C 81 06 2E  00 01 7D 11 02 30 00 2C  ..0.......}..0.,
11F0: 00 03 FB 11 3C 2D 00 00  80 01 80 03 00 00 2C 00  ....<-........,.
1200: 07 00 00 0E 81 02 30 00  00 00 02 14 12 3C 2D 00  ......0......<-.
1210: 29 80 01 80 AA 30 00 05  10 06 10 00 00 00 00 00  )....0..........
1220: 00 00 00 00 00 02 31 00  00 80 00 52 12 02 06 10  ......1....R....
1230: 07 80 04 3C 12 48 0F 81  23 01 4F 12 02 06 10 03  ...<.H..#.O.....
1240: 80 04 4B 12 48 10 81 23  01 4F 12 48 11 81 23 05  ..K.H..#.O.H..#.
1250: 31 00 B1 00 32 00 02 32  00 00 80 80 74 12 24 12  1...2..2....t.$.
1260: 81 2E 00 2D 00 25 02 00  10 00 80 00 71 12 01 71  ...-.%......q..q
1270: 12 01 B0 12 02 32 00 01  80 80 92 12 24 13 81 2E  .....2......$...
1280: 00 2D 00 25 02 00 10 00  80 00 8F 12 01 8F 12 01  .-.%............
1290: B0 12 02 32 00 02 80 80  B0 12 24 14 81 2E 00 2D  ...2......$....-
12A0: 00 25 02 00 10 00 80 00  AD 12 01 AD 12 01 B0 12  .%..............
12B0: 02 00 10 00 80 80 C9 12  08 30 00 0C 81 06 2E 00  .........0......
12C0: 06 31 00 01 7D 11 01 23  13 02 00 10 29 80 80 E2  .1..}..#....)...
12D0: 12 07 30 00 0C 81 06 2E  00 06 31 00 01 7D 11 01  ..0.......1..}..
12E0: 23 13 02 00 10 E9 80 80  ED 12 01 23 13 03 2E 00  #..........#....
12F0: 00 10 03 00 00 00 10 0C  00 00 3F 27 00 00 00 0E  ..........?'....
1300: 80 03 00 00 00 10 14 00  00 02 81 08 00 00 07 81  ................
1310: 07 00 00 30 00 03 1B 00  00 00 1A 95 0F 1A 24 13  ...0..........$.
1320: 01 7D 11 1B 03 02 10 28  00 03 03 10 29 00 03 04  .}.....(....)...
1330: 10 1D 00 15 04 10 08 80  03 05 10 27 00 1A 24 11  ...........'..$.
1340: 03 06 10 2B 00 02 27 00  00 80 80 5A 13 03 07 10  ...+..'....Z....
1350: 00 80 03 08 10 01 80 01  84 13 02 27 00 01 80 80  ...........'....
1360: 6F 13 03 07 10 00 80 03  08 10 00 80 01 84 13 02  o...............
1370: 27 00 02 80 80 84 13 03  07 10 01 80 03 08 10 01  '...............
1380: 80 01 84 13 48 15 81 23  03 02 10 20 00 AA 20 00  ....H..#... .. .
1390: 05 10 06 10 07 10 00 00  08 10 09 10 00 00 48 16  ..............H.
13A0: 81 23 03 02 10 22 00 AA  22 00 05 10 06 10 07 10  .#..."..".......
13B0: 00 00 08 10 09 10 00 00  48 17 81 23 1B 48 18 81  ........H..#.H..
13C0: 23 48 19 81 23 48 9E 80  23 48 1A 81 23 03 1D 00  #H..#H..#H..#...
13D0: 1F 80 1A 24 11 03 02 10  2B 00 03 1D 00 20 80 1A  ...$....+.... ..
13E0: 24 11 03 03 10 2B 00 03  1D 00 22 80 1A 24 11 03  $....+...."..$..
13F0: 04 10 2B 00 03 1D 00 24  80 1A 24 11 03 05 10 2B  ..+....$..$....+
1400: 00 03 1D 00 00 80 1A 24  11 03 06 10 2B 00 48 1B  .......$....+.H.
1410: 81 23 48 1C 81 23 48 11  81 23 48 10 81 23 48 0F  .#H..#H..#H..#H.
1420: 81 23 1B 1B                                       .#..            
```

#### Opcodes

```
  0: 0x0001 [0x20] SET_CLI_EVENT_UC_FLAG: Lock player control
  1: 0x0003 [0x1E] EventEntity looks at LocalPlayer and starts talking
  2: 0x0008 [0x6F] WAIT_FRAME_DELAY: Yield until WaitTime reaches zero
  3: 0x0009 [0x70] WAIT_ENTITY_RENDER_FLAG: Wait while EventEntity->Render.Flags3 bit 2 is set (cancel turn if not)
  4: 0x000A [0x41] ExtData[1]->WorkLocal[1] = Work_Zone[2] (bits 0*-1*)
  5: 0x0013 [0x41] ExtData[1]->WorkLocal[2] = Work_Zone[2] (bits 2*-5*)
  6: 0x001C [0x41] ExtData[1]->WorkLocal[3] = Work_Zone[2] (bits 6*-6*)
  7: 0x0025 [0x41] ExtData[1]->WorkLocal[4] = Work_Zone[2] (bits 7*-7*)
  8: 0x002E [0x41] ExtData[1]->WorkLocal[5] = Work_Zone[2] (bits 8*-8*)
  9: 0x0037 [0x41] ExtData[1]->WorkLocal[7] = Work_Zone[2] (bits 9*-9*)
 10: 0x0040 [0x41] ExtData[1]->WorkLocal[8] = Work_Zone[2] (bits 10*-10*)
 11: 0x0049 [0x41] ExtData[1]->WorkLocal[6] = Work_Zone[2] (bits 11*-11*)
 12: 0x0052 [0x41] ExtData[1]->WorkLocal[10] = Work_Zone[2] (bits 12*-12*)
 13: 0x005B [0x41] ExtData[1]->WorkLocal[9] = Work_Zone[2] (bits 13*-13*)
 14: 0x0064 [0x41] ExtData[1]->WorkLocal[21] = Work_Zone[2] (bits 14*-14*)
 15: 0x006D [0x03] ExtData[1]->WorkLocal[30] = Work_Zone[3]
 16: 0x0072 [0x03] ExtData[1]->WorkLocal[11] = Work_Zone[4]
 17: 0x0077 [0x1D] PRINT_EVENT_MESSAGE(message_id=10216*)
     "The IRNC has dispatched me to help support all those who wish to participate in Conflict."
 18: 0x007A [0x23] WAIT_FOR_DIALOG_INTERACTION
 19: 0x007B [0x06] ExtData[1]->WorkLocal[20] = 0
 20: 0x007E [0x02] IF !(ExtData[1]->WorkLocal[3] == 0*) GOTO 0x00AA
 21: 0x0086 [0x02] IF !(ExtData[1]->WorkLocal[2] >= 3*) GOTO 0x0095
 22: 0x008E [0x1D] PRINT_EVENT_MESSAGE(message_id=10218*)
     "Only adventurers who have achieved rank 3 or higher may take part in official Ballista matches. Please return when you have proven your loyalty to your home nation."
 23: 0x0091 [0x23] WAIT_FOR_DIALOG_INTERACTION
 24: 0x0092 [0x01] GOTO 0x00A3
 25: 0x0095 [0x03] Work_Zone[2] = 576*
 26: 0x009A [0x03] Work_Zone[3] = ExtData[1]->WorkLocal[1]
 27: 0x009F [0x1D] PRINT_EVENT_MESSAGE(message_id=10217*)
     "Before you can take part in this Conflict event, you must first possess $6. You can obtain one from your nation's Conflict Commander, [Excenmille, stationed in Northern San d'Oria./Invincible Shield, stationed in the Metalworks in Bastok./Mhabi Molkot, stationed in Heavens Tower in Windurst.]"
 28: 0x00A2 [0x23] WAIT_FOR_DIALOG_INTERACTION

SUBROUTINE_00A3:
 29: 0x00A3 [0x05] ExtData[1]->WorkLocal[20] = 1
 30: 0x00A6 [0x1D] PRINT_EVENT_MESSAGE(message_id=10219*)
     "However, if you still wish to take part in Ballista, participation in matches held within Diorama Abdhaljs-Ghelsba is open to all citizens of Vana'diel."
 31: 0x00A9 [0x23] WAIT_FOR_DIALOG_INTERACTION

SUBROUTINE_00AA:
 32: 0x00AA [0x06] ExtData[1]->WorkLocal[17] = 0
 33: 0x00AD [0x2E] SET_CLI_EVENT_CANCEL_FLAGS()
 34: 0x00AE [0x83] ExtData[1]->WorkLocal[19] = GetGameTime()
 35: 0x00B1 [0x15] ExtData[1]->WorkLocal[19] /= 7200*
 36: 0x00B6 [0x14] ExtData[1]->WorkLocal[19] *= 7200*
 37: 0x00BB [0x03] Work_Zone[2] = 500*
 38: 0x00C0 [0x03] Work_Zone[3] = 714*
 39: 0x00C5 [0x03] Work_Zone[4] = 717*
 40: 0x00CA [0x03] Work_Zone[5] = 758*
 41: 0x00CF [0x03] Work_Zone[6] = 759*
 42: 0x00D4 [0x02] IF !(ExtData[1]->WorkLocal[20] == 1*) GOTO 0x0106
 43: 0x00DC [0x3C] SET_BIT_FLAG_CONDITIONAL(target_work_offset=ExtData[1]->WorkLocal[17], bit_index_work_offset=1*, condition_work_offset=1*)
 44: 0x00E3 [0x3C] SET_BIT_FLAG_CONDITIONAL(target_work_offset=ExtData[1]->WorkLocal[17], bit_index_work_offset=2*, condition_work_offset=1*)
 45: 0x00EA [0x3C] SET_BIT_FLAG_CONDITIONAL(target_work_offset=ExtData[1]->WorkLocal[17], bit_index_work_offset=3*, condition_work_offset=1*)
 46: 0x00F1 [0x3C] SET_BIT_FLAG_CONDITIONAL(target_work_offset=ExtData[1]->WorkLocal[17], bit_index_work_offset=5*, condition_work_offset=1*)
 47: 0x00F8 [0x3C] SET_BIT_FLAG_CONDITIONAL(target_work_offset=ExtData[1]->WorkLocal[17], bit_index_work_offset=6*, condition_work_offset=1*)
 48: 0x00FF [0x3C] SET_BIT_FLAG_CONDITIONAL(target_work_offset=ExtData[1]->WorkLocal[17], bit_index_work_offset=7*, condition_work_offset=1*)
 49: 0x0106 [0x02] IF !(ExtData[1]->WorkLocal[21] == 1*) GOTO 0x012E
 50: 0x010E [0x83] ExtData[1]->WorkLocal[0] = GetGameTime()
 51: 0x0111 [0x1A] CALL_SUBROUTINE(address=0x09C4)
 52: 0x0114 [0x02] IF !(ExtData[1]->WorkLocal[23] == 0*) GOTO 0x0126
 53: 0x011C [0x3C] SET_BIT_FLAG_CONDITIONAL(target_work_offset=ExtData[1]->WorkLocal[17], bit_index_work_offset=9*, condition_work_offset=1*)
 54: 0x0123 [0x01] GOTO 0x012B
 55: 0x0126 [0x03] Work_Zone[9] = ExtData[1]->WorkLocal[23]

SUBROUTINE_012B:
 56: 0x012B [0x01] GOTO 0x014A
 57: 0x012E [0x3C] SET_BIT_FLAG_CONDITIONAL(target_work_offset=ExtData[1]->WorkLocal[17], bit_index_work_offset=8*, condition_work_offset=1*)
 58: 0x0135 [0x3C] SET_BIT_FLAG_CONDITIONAL(target_work_offset=ExtData[1]->WorkLocal[17], bit_index_work_offset=9*, condition_work_offset=1*)
 59: 0x013C [0x3C] SET_BIT_FLAG_CONDITIONAL(target_work_offset=ExtData[1]->WorkLocal[17], bit_index_work_offset=11*, condition_work_offset=1*)
 60: 0x0143 [0x3C] SET_BIT_FLAG_CONDITIONAL(target_work_offset=ExtData[1]->WorkLocal[17], bit_index_work_offset=12*, condition_work_offset=1*)

SUBROUTINE_014A:
 61: 0x014A [0x24] CREATE_DIALOG(message_id=10221*, default_option=ExtData[1]->WorkLocal[18], option_flags=ExtData[1]->WorkLocal[17])
     "What can I help you with? [Nothing./The upcoming Ballista matches./The Ballista schedule./A teleport to the Ballista match./The rules of Ballista./Borrow/Return $6./Borrow/Return $6./Borrow/Return $6./The upcoming Brenner matches./A teleport to the Brenner match (Lv $7)./The rules of Brenner./Borrow/Return $6./Borrow/Return $6.]"
 62: 0x0151 [0x25] WAIT_DIALOG_SELECT()
 63: 0x0152 [0x40] SET_BIT_WORK_RANGE(start_bit=0*, end_bit=15*, target=Work_Zone[1], source=Work_Zone[0])
 64: 0x015B [0x03] ExtData[1]->WorkLocal[18] = Work_Zone[0]
 65: 0x0160 [0x02] IF !(Work_Zone[0] == 1*) GOTO 0x0171
 66: 0x0168 [0x1A] CALL_SUBROUTINE(address=0x116A)
 67: 0x016B [0x01] GOTO 0x00AA

SUBROUTINE_01B2:
 68: 0x01B2 [0x83] ExtData[1]->WorkLocal[44] = GetGameTime()
 69: 0x01B5 [0x03] ExtData[1]->WorkLocal[27] = ExtData[1]->WorkLocal[44]
 70: 0x01BA [0x03] ExtData[1]->WorkLocal[39] = 0*

SUBROUTINE_01BF:
 71: 0x01BF [0x02] IF !(ExtData[1]->WorkLocal[39] > 2*) GOTO 0x02C2
 72: 0x01C7 [0x1A] CALL_SUBROUTINE(address=0x0F95)
 73: 0x01CA [0x06] ExtData[1]->WorkLocal[0] = 0
 74: 0x01CD [0x02] IF !(ExtData[1]->WorkLocal[29] == 30*) GOTO 0x01DB
 75: 0x01D5 [0x05] ExtData[1]->WorkLocal[0] = 1
 76: 0x01D8 [0x01] GOTO 0x0233
 77: 0x01DB [0x02] IF !(ExtData[1]->WorkLocal[29] == 40*) GOTO 0x01F1
 78: 0x01E3 [0x02] IF !(LocalPlayer->JobLevel < 31*) GOTO 0x01EE
 79: 0x01EB [0x05] ExtData[1]->WorkLocal[0] = 1
 80: 0x01EE [0x01] GOTO 0x0233
 81: 0x01F1 [0x02] IF !(ExtData[1]->WorkLocal[29] == 50*) GOTO 0x0207
 82: 0x01F9 [0x02] IF !(LocalPlayer->JobLevel < 41*) GOTO 0x0204
 83: 0x0201 [0x05] ExtData[1]->WorkLocal[0] = 1
 84: 0x0204 [0x01] GOTO 0x0233
 85: 0x0207 [0x02] IF !(ExtData[1]->WorkLocal[29] == 60*) GOTO 0x021D
 86: 0x020F [0x02] IF !(LocalPlayer->JobLevel < 51*) GOTO 0x021A
 87: 0x0217 [0x05] ExtData[1]->WorkLocal[0] = 1
 88: 0x021A [0x01] GOTO 0x0233
 89: 0x021D [0x02] IF !(ExtData[1]->WorkLocal[29] == 0*) GOTO 0x0233
 90: 0x0225 [0x02] IF !(LocalPlayer->JobLevel < 61*) GOTO 0x0230
 91: 0x022D [0x05] ExtData[1]->WorkLocal[0] = 1
 92: 0x0230 [0x01] GOTO 0x0233

SUBROUTINE_0233:
 93: 0x0233 [0x02] IF !(ExtData[1]->WorkLocal[31] > ExtData[1]->WorkLocal[44]) GOTO 0x02BC
 94: 0x023B [0x02] IF !(ExtData[1]->WorkLocal[36] < ExtData[1]->WorkLocal[44]) GOTO 0x02BC
 95: 0x0243 [0x02] IF !(ExtData[1]->WorkLocal[0] == 1*) GOTO 0x02B5
 96: 0x024B [0x02] IF !(ExtData[1]->WorkLocal[39] > 2*) GOTO 0x02AE
 97: 0x0253 [0x1D] PRINT_EVENT_MESSAGE(message_id=10225*)
     "The following information regards the match I am currently authorized to teleport you to..."
 98: 0x0256 [0x23] WAIT_FOR_DIALOG_INTERACTION
 99: 0x0257 [0x1A] CALL_SUBROUTINE(address=0x1324)
100: 0x025A [0x24] CREATE_DIALOG(message_id=10226*, default_option=1*, option_flags=0*)
     "Teleport? [Right away./Not yet.]"
101: 0x0261 [0x25] WAIT_DIALOG_SELECT()
102: 0x0262 [0x02] IF !(Work_Zone[0] == 0*) GOTO 0x02AB
103: 0x026A [0x20] SET_CLI_EVENT_UC_FLAG: Lock player control
104: 0x026C [0x42] SET_CLI_EVENT_CANCEL_DATA()
105: 0x026D [0x40] SET_BIT_WORK_RANGE(start_bit=16*, end_bit=31*, target=Work_Zone[1], source=ExtData[1]->WorkLocal[39])
106: 0x0276 [0x73] EventEntity casts magic 122* on LocalPlayer
107: 0x0281 [0x43] SEND_EVENT_UPDATE: Send pending tag to server (packet 0x005B)
108: 0x0283 [0x43] SEND_EVENT_UPDATE: Check pending flag (skip if not pending)
109: 0x0285 [0x1C] WAIT(260* ticks)
110: 0x0288 [0x02] IF !(Work_Zone[2] == 1*) GOTO 0x02A0
111: 0x0290 [0x6C] FADE_ENTITY_COLOR(entity_id=LocalPlayer, end_alpha=128*, fade_time=0*)
112: 0x0299 [0x1D] PRINT_EVENT_MESSAGE(message_id=10227*)
     "I am sorry, but I cannot teleport you at this time."
113: 0x029C [0x23] WAIT_FOR_DIALOG_INTERACTION
114: 0x029D [0x01] GOTO 0x02A1
115: 0x02A0 [0x30] SET_UCOFF_CONTINUE_ZERO()

SUBROUTINE_02A1:
116: 0x02A1 [0x03] Work_Zone[1] = 1073741824*
117: 0x02A6 [0x21] END_EVENT
118: 0x02A7 [0x00] END_REQSTACK()

SUBROUTINE_02AB:
119: 0x02AB [0x01] GOTO 0x02B2
120: 0x02AE [0x1D] PRINT_EVENT_MESSAGE(message_id=10228*)
     "I am sorry, but I cannot teleport you at this time. Please return when there are less than twenty-four hours remaining until the next match."
121: 0x02B1 [0x23] WAIT_FOR_DIALOG_INTERACTION

SUBROUTINE_02B2:
122: 0x02B2 [0x01] GOTO 0x02BC
123: 0x02B5 [0x1D] PRINT_EVENT_MESSAGE(message_id=10224*)
     "I'm sorry, but I am not authorized to teleport persons who do not meet the level requirement for the match."
124: 0x02B8 [0x23] WAIT_FOR_DIALOG_INTERACTION
125: 0x02B9 [0x01] GOTO 0x02C2

SUBROUTINE_02BC:
126: 0x02BC [0x0B] ExtData[1]->WorkLocal[39]++
127: 0x02BF [0x01] GOTO 0x01BF

SUBROUTINE_02C2:
128: 0x02C2 [0x01] GOTO 0x00AA

SUBROUTINE_0310:
129: 0x0310 [0x01] GOTO 0x032A
130: 0x0313 [0x24] CREATE_DIALOG(message_id=10238*, default_option=1*, option_flags=0*)
     "Return your $3? [Yes./No.]"
131: 0x031A [0x25] WAIT_DIALOG_SELECT()
132: 0x031B [0x02] IF !(Work_Zone[0] == 0*) GOTO 0x0327
133: 0x0323 [0x42] SET_CLI_EVENT_CANCEL_DATA()
134: 0x0324 [0x01] GOTO 0x032A
135: 0x0327 [0x01] GOTO 0x00AA

SUBROUTINE_032A:
136: 0x032A [0x01] GOTO 0x09C2
137: 0x032D [0x02] IF !(Work_Zone[0] == 6*) GOTO 0x037E
138: 0x0335 [0x03] Work_Zone[2] = 714*
139: 0x033A [0x1D] PRINT_EVENT_MESSAGE(message_id=10240*)
     "By carrying $6 with you during a Ballista match, any temporary item you quarry will be automatically placed in your bag without you having to select whether you wish to keep it, use it, or throw it away."
140: 0x033D [0x23] WAIT_FOR_DIALOG_INTERACTION
141: 0x033E [0x1D] PRINT_EVENT_MESSAGE(message_id=10241*)
     "When your inventory is full, or you cannot carry any more of a certain item, the newly quarried item will be automatically discarded. If you wish, I can lend you one of these shovels, free of charge."
142: 0x0341 [0x23] WAIT_FOR_DIALOG_INTERACTION
143: 0x0342 [0x02] IF !(ExtData[1]->WorkLocal[7] == 0*) GOTO 0x0364
144: 0x034A [0x24] CREATE_DIALOG(message_id=10242*, default_option=1*, option_flags=0*)
     "Borrow $6? [Yes./No.]"
145: 0x0351 [0x25] WAIT_DIALOG_SELECT()
146: 0x0352 [0x02] IF !(Work_Zone[0] == 0*) GOTO 0x035E
147: 0x035A [0x42] SET_CLI_EVENT_CANCEL_DATA()
148: 0x035B [0x01] GOTO 0x0361
149: 0x035E [0x01] GOTO 0x00AA

SUBROUTINE_0361:
150: 0x0361 [0x01] GOTO 0x037B
151: 0x0364 [0x24] CREATE_DIALOG(message_id=10244*, default_option=1*, option_flags=0*)
     "Return the $3? [Yes./No.]"
152: 0x036B [0x25] WAIT_DIALOG_SELECT()
153: 0x036C [0x02] IF !(Work_Zone[0] == 0*) GOTO 0x0378
154: 0x0374 [0x42] SET_CLI_EVENT_CANCEL_DATA()
155: 0x0375 [0x01] GOTO 0x037B
156: 0x0378 [0x01] GOTO 0x00AA

SUBROUTINE_037B:
157: 0x037B [0x01] GOTO 0x09C2
158: 0x037E [0x02] IF !(Work_Zone[0] == 7*) GOTO 0x03CF
159: 0x0386 [0x03] Work_Zone[2] = 717*
160: 0x038B [0x1D] PRINT_EVENT_MESSAGE(message_id=10246*)
     "When carrying $6 with you while participating in a Ballista match, you will have the option to keep or throw away the first Petra you find. This is useful when you want to continue /sprinting."
161: 0x038E [0x23] WAIT_FOR_DIALOG_INTERACTION
162: 0x038F [0x1D] PRINT_EVENT_MESSAGE(message_id=10247*)
     "If you wish, I can loan you one, free of charge."
163: 0x0392 [0x23] WAIT_FOR_DIALOG_INTERACTION
164: 0x0393 [0x02] IF !(ExtData[1]->WorkLocal[6] == 0*) GOTO 0x03B5
165: 0x039B [0x24] CREATE_DIALOG(message_id=10248*, default_option=1*, option_flags=0*)
     "Borrow $6? [Yes./No.]"
166: 0x03A2 [0x25] WAIT_DIALOG_SELECT()
167: 0x03A3 [0x02] IF !(Work_Zone[0] == 0*) GOTO 0x03AF
168: 0x03AB [0x42] SET_CLI_EVENT_CANCEL_DATA()
169: 0x03AC [0x01] GOTO 0x03B2
170: 0x03AF [0x01] GOTO 0x00AA

SUBROUTINE_03B2:
171: 0x03B2 [0x01] GOTO 0x03CC
172: 0x03B5 [0x24] CREATE_DIALOG(message_id=10249*, default_option=1*, option_flags=0*)
     "Return the $3? [Yes./No.]"
173: 0x03BC [0x25] WAIT_DIALOG_SELECT()
174: 0x03BD [0x02] IF !(Work_Zone[0] == 0*) GOTO 0x03C9
175: 0x03C5 [0x42] SET_CLI_EVENT_CANCEL_DATA()
176: 0x03C6 [0x01] GOTO 0x03CC
177: 0x03C9 [0x01] GOTO 0x00AA

SUBROUTINE_03CC:
178: 0x03CC [0x01] GOTO 0x09C2
179: 0x03CF [0x02] IF !(Work_Zone[0] == 8*) GOTO 0x0747
180: 0x03D7 [0x06] ExtData[1]->WorkLocal[16] = 0
181: 0x03DA [0x06] ExtData[1]->WorkLocal[15] = 0
182: 0x03DD [0x03] Work_Zone[2] = 750*
183: 0x03E2 [0x03] Work_Zone[3] = 600*
184: 0x03E7 [0x03] Work_Zone[4] = 500*
185: 0x03EC [0x03] Work_Zone[5] = 400*
186: 0x03F1 [0x03] Work_Zone[6] = 300*
187: 0x03F6 [0x24] CREATE_DIALOG(message_id=10256*, default_option=0*, option_flags=0*)
     "Select a match level... [View all levels./No restriction ($0 gil per match)./Level 60 ($1 gil per match)./Level 50 ($2 gil per match)./Level 40 ($3 gil per match)./Level 30 ($4 gil per match)./Return.]"
188: 0x03FD [0x25] WAIT_DIALOG_SELECT()
189: 0x03FE [0x02] IF !(Work_Zone[0] == 0*) GOTO 0x040E
190: 0x0406 [0x03] ExtData[1]->WorkLocal[15] = 4294967295*
191: 0x040B [0x01] GOTO 0x0469
192: 0x040E [0x02] IF !(Work_Zone[0] == 1*) GOTO 0x041E
193: 0x0416 [0x03] ExtData[1]->WorkLocal[15] = 75*
194: 0x041B [0x01] GOTO 0x0469
195: 0x041E [0x02] IF !(Work_Zone[0] == 2*) GOTO 0x042E
196: 0x0426 [0x03] ExtData[1]->WorkLocal[15] = 60*
197: 0x042B [0x01] GOTO 0x0469
198: 0x042E [0x02] IF !(Work_Zone[0] == 3*) GOTO 0x043E
199: 0x0436 [0x03] ExtData[1]->WorkLocal[15] = 50*
200: 0x043B [0x01] GOTO 0x0469
201: 0x043E [0x02] IF !(Work_Zone[0] == 4*) GOTO 0x044E
202: 0x0446 [0x03] ExtData[1]->WorkLocal[15] = 40*
203: 0x044B [0x01] GOTO 0x0469
204: 0x044E [0x02] IF !(Work_Zone[0] == 5*) GOTO 0x045E
205: 0x0456 [0x03] ExtData[1]->WorkLocal[15] = 30*
206: 0x045B [0x01] GOTO 0x0469
207: 0x045E [0x02] IF !(Work_Zone[0] == 6*) GOTO 0x0469
208: 0x0466 [0x01] GOTO 0x0469

SUBROUTINE_0469:
209: 0x0469 [0x02] IF !(Work_Zone[0] > 5*) GOTO 0x0741
210: 0x0471 [0x03] ExtData[1]->WorkLocal[22] = ExtData[1]->WorkLocal[19]

SUBROUTINE_0476:
211: 0x0476 [0x03] ExtData[1]->WorkLocal[14] = ExtData[1]->WorkLocal[22]
212: 0x047B [0x06] ExtData[1]->WorkLocal[12] = 0
213: 0x047E [0x06] ExtData[1]->WorkLocal[13] = 0

SUBROUTINE_0481:
214: 0x0481 [0x02] IF !(ExtData[1]->WorkLocal[12] > 84*) GOTO 0x05F1
215: 0x0489 [0x03] ExtData[1]->WorkLocal[0] = ExtData[1]->WorkLocal[14]
216: 0x048E [0x1A] CALL_SUBROUTINE(address=0x09C4)
217: 0x0491 [0x02] IF !(ExtData[1]->WorkLocal[23] == 0*) GOTO 0x05DE
218: 0x0499 [0x06] ExtData[1]->WorkLocal[0] = 0
219: 0x049C [0x02] IF !(ExtData[1]->WorkLocal[15] == 4294967295*) GOTO 0x04AA
220: 0x04A4 [0x05] ExtData[1]->WorkLocal[0] = 1
221: 0x04A7 [0x01] GOTO 0x04B5
222: 0x04AA [0x02] IF !(ExtData[1]->WorkLocal[15] == ExtData[1]->WorkLocal[23]) GOTO 0x04B5
223: 0x04B2 [0x05] ExtData[1]->WorkLocal[0] = 1

SUBROUTINE_04B5:
224: 0x04B5 [0x02] IF !(ExtData[1]->WorkLocal[0] == 1*) GOTO 0x05DE
225: 0x04BD [0x03] ExtData[1]->WorkLocal[0] = ExtData[1]->WorkLocal[19]
226: 0x04C2 [0x07] ExtData[1]->WorkLocal[0] += 604800*
227: 0x04C7 [0x02] IF !(ExtData[1]->WorkLocal[14] > ExtData[1]->WorkLocal[0]) GOTO 0x05DE
228: 0x04CF [0x02] IF !(ExtData[1]->WorkLocal[13] > 10*) GOTO 0x05DE
229: 0x04D7 [0x02] IF !(ExtData[1]->WorkLocal[13] == 0*) GOTO 0x04F1
230: 0x04DF [0x03] Work_Zone[2] = ExtData[1]->WorkLocal[14]
231: 0x04E4 [0x03] Work_Zone_1700[2] = ExtData[1]->WorkLocal[23]
232: 0x04E9 [0x15] Work_Zone_1700[2] /= 10*
233: 0x04EE [0x01] GOTO 0x05DB
234: 0x04F1 [0x02] IF !(ExtData[1]->WorkLocal[13] == 1*) GOTO 0x050B
235: 0x04F9 [0x03] Work_Zone[3] = ExtData[1]->WorkLocal[14]
236: 0x04FE [0x03] Work_Zone_1700[3] = ExtData[1]->WorkLocal[23]
237: 0x0503 [0x15] Work_Zone_1700[3] /= 10*
238: 0x0508 [0x01] GOTO 0x05DB
239: 0x050B [0x02] IF !(ExtData[1]->WorkLocal[13] == 2*) GOTO 0x0525
240: 0x0513 [0x03] Work_Zone[4] = ExtData[1]->WorkLocal[14]
241: 0x0518 [0x03] Work_Zone_1700[4] = ExtData[1]->WorkLocal[23]
242: 0x051D [0x15] Work_Zone_1700[4] /= 10*
243: 0x0522 [0x01] GOTO 0x05DB
244: 0x0525 [0x02] IF !(ExtData[1]->WorkLocal[13] == 3*) GOTO 0x053F
245: 0x052D [0x03] Work_Zone[5] = ExtData[1]->WorkLocal[14]
246: 0x0532 [0x03] Work_Zone_1700[5] = ExtData[1]->WorkLocal[23]
247: 0x0537 [0x15] Work_Zone_1700[5] /= 10*
248: 0x053C [0x01] GOTO 0x05DB
249: 0x053F [0x02] IF !(ExtData[1]->WorkLocal[13] == 4*) GOTO 0x0559
250: 0x0547 [0x03] Work_Zone[6] = ExtData[1]->WorkLocal[14]
251: 0x054C [0x03] Work_Zone_1700[6] = ExtData[1]->WorkLocal[23]
252: 0x0551 [0x15] Work_Zone_1700[6] /= 10*
253: 0x0556 [0x01] GOTO 0x05DB
254: 0x0559 [0x02] IF !(ExtData[1]->WorkLocal[13] == 5*) GOTO 0x0573
255: 0x0561 [0x03] Work_Zone[7] = ExtData[1]->WorkLocal[14]
256: 0x0566 [0x03] Work_Zone_1700[7] = ExtData[1]->WorkLocal[23]
257: 0x056B [0x15] Work_Zone_1700[7] /= 10*
258: 0x0570 [0x01] GOTO 0x05DB
259: 0x0573 [0x02] IF !(ExtData[1]->WorkLocal[13] == 6*) GOTO 0x058D
260: 0x057B [0x03] Work_Zone[8] = ExtData[1]->WorkLocal[14]
261: 0x0580 [0x03] Work_Zone_1700[8] = ExtData[1]->WorkLocal[23]
262: 0x0585 [0x15] Work_Zone_1700[8] /= 10*
263: 0x058A [0x01] GOTO 0x05DB
264: 0x058D [0x02] IF !(ExtData[1]->WorkLocal[13] == 7*) GOTO 0x05A7
265: 0x0595 [0x03] Work_Zone[9] = ExtData[1]->WorkLocal[14]
266: 0x059A [0x03] Work_Zone_1700[9] = ExtData[1]->WorkLocal[23]
267: 0x059F [0x15] Work_Zone_1700[9] /= 10*
268: 0x05A4 [0x01] GOTO 0x05DB
269: 0x05A7 [0x02] IF !(ExtData[1]->WorkLocal[13] == 8*) GOTO 0x05C1
270: 0x05AF [0x03] Work_Zone_1700[0] = ExtData[1]->WorkLocal[14]
271: 0x05B4 [0x03] Work_Zone_1700[10] = ExtData[1]->WorkLocal[23]
272: 0x05B9 [0x15] Work_Zone_1700[10] /= 10*
273: 0x05BE [0x01] GOTO 0x05DB
274: 0x05C1 [0x02] IF !(ExtData[1]->WorkLocal[13] == 9*) GOTO 0x05DB
275: 0x05C9 [0x03] Work_Zone_1700[1] = ExtData[1]->WorkLocal[14]
276: 0x05CE [0x03] Work_Zone_1700[11] = ExtData[1]->WorkLocal[23]
277: 0x05D3 [0x15] Work_Zone_1700[11] /= 10*
278: 0x05D8 [0x01] GOTO 0x05DB

SUBROUTINE_05DB:
279: 0x05DB [0x0B] ExtData[1]->WorkLocal[13]++
280: 0x05DE [0x02] IF !(ExtData[1]->WorkLocal[13] > 10*) GOTO 0x05EB
281: 0x05E6 [0x07] ExtData[1]->WorkLocal[14] += 7200*
282: 0x05EB [0x0B] ExtData[1]->WorkLocal[12]++
283: 0x05EE [0x01] GOTO 0x0481
284: 0x05F1 [0x03] ExtData[1]->WorkLocal[17] = 2047*
285: 0x05F6 [0x0C] ExtData[1]->WorkLocal[13]--

SUBROUTINE_05F9:
286: 0x05F9 [0x02] IF !(ExtData[1]->WorkLocal[13] < 0*) GOTO 0x060E
287: 0x0601 [0x3D] CLEAR_BIT_FLAG_CONDITIONAL(target_work_offset=ExtData[1]->WorkLocal[17], bit_index_work_offset=ExtData[1]->WorkLocal[13], condition_work_offset=1*)
288: 0x0608 [0x0C] ExtData[1]->WorkLocal[13]--
289: 0x060B [0x01] GOTO 0x05F9
290: 0x060E [0x24] CREATE_DIALOG(message_id=10257*, default_option=ExtData[1]->WorkLocal[16], option_flags=ExtData[1]->WorkLocal[17])
     "Select for more information... [, [ / / /Lv. 30/Lv. 40/Lv. 50/Lv. 60/Lv. $7]/, [ / / /Lv. 30/Lv. 40/Lv. 50/Lv. 60/Lv. $794668[ / / /Lv. 30/Lv. 40/Lv. 50/Lv. 60/Lv. $7]/, [ / / /Lv. 30/Lv. 40/Lv. 50/Lv. 60/Lv. $7]/, [ / / /Lv. 30/Lv. 40/Lv. 50/Lv. 60/Lv. $7]/, [ / / /Lv. 30/Lv. 40/Lv. 50/Lv. 60/Lv. $7]/, [ / / /Lv. 30/Lv. 40/Lv. 50/Lv. 60/Lv. $7]/, [ / / /Lv. 30/Lv. 40/Lv. 50/Lv. 60/Lv. $7]/, [ / / /Lv. 30/Lv. 40/Lv. 50/Lv. 60/Lv. $7]/, [ / / /Lv. 30/Lv. 40/Lv. 50/Lv. 60/Lv. $7]/Next./Return.]"
291: 0x0615 [0x25] WAIT_DIALOG_SELECT()
292: 0x0616 [0x03] ExtData[1]->WorkLocal[16] = Work_Zone[0]
293: 0x061B [0x02] IF !(Work_Zone[0] == 10*) GOTO 0x0633
294: 0x0623 [0x03] ExtData[1]->WorkLocal[22] = ExtData[1]->WorkLocal[14]
295: 0x0628 [0x03] ExtData[1]->WorkLocal[16] = 0*
296: 0x062D [0x01] GOTO 0x0476

SUBROUTINE_06DE:
297: 0x06DE [0x03] Work_Zone[2] = 1*

SUBROUTINE_06E3:
298: 0x06E3 [0x02] IF !(Work_Zone[2] > 3*) GOTO 0x073E
299: 0x06EB [0x03] Work_Zone[3] = ExtData[1]->WorkLocal[0]
300: 0x06F0 [0x03] Work_Zone[4] = ExtData[1]->WorkLocal[0]
301: 0x06F5 [0x02] IF !(Work_Zone[2] == 1*) GOTO 0x070A
302: 0x06FD [0x07] Work_Zone[3] += 0*
303: 0x0702 [0x07] Work_Zone[4] += 540*
304: 0x0707 [0x01] GOTO 0x0734
305: 0x070A [0x02] IF !(Work_Zone[2] == 2*) GOTO 0x071F
306: 0x0712 [0x07] Work_Zone[3] += 2100*
307: 0x0717 [0x07] Work_Zone[4] += 2340*
308: 0x071C [0x01] GOTO 0x0734
309: 0x071F [0x02] IF !(Work_Zone[2] == 3*) GOTO 0x0734
310: 0x0727 [0x07] Work_Zone[3] += 4500*
311: 0x072C [0x07] Work_Zone[4] += 4740*
312: 0x0731 [0x01] GOTO 0x0734

SUBROUTINE_0734:
313: 0x0734 [0x1D] PRINT_EVENT_MESSAGE(message_id=10258*)
     "<Match $0> Entry period begins: Briefing begins:"
314: 0x0737 [0x23] WAIT_FOR_DIALOG_INTERACTION
315: 0x0738 [0x0B] Work_Zone[2]++
316: 0x073B [0x01] GOTO 0x06E3
317: 0x073E [0x01] GOTO 0x0476

SUBROUTINE_0741:
318: 0x0741 [0x01] GOTO 0x00AA

SUBROUTINE_07CC:
319: 0x07CC [0x1D] PRINT_EVENT_MESSAGE(message_id=10261*)
     "Teleportation to the Isle is free of charge, but a participation fee of $0 gil is required before each match."
320: 0x07CF [0x23] WAIT_FOR_DIALOG_INTERACTION
321: 0x07D0 [0x24] CREATE_DIALOG(message_id=10262*, default_option=1*, option_flags=0*)
     "Travel to the Isle? [Yes./Not yet.]"
322: 0x07D7 [0x25] WAIT_DIALOG_SELECT()
323: 0x07D8 [0x02] IF !(Work_Zone[0] == 0*) GOTO 0x080F
324: 0x07E0 [0x42] SET_CLI_EVENT_CANCEL_DATA()
325: 0x07E1 [0x73] EventEntity casts magic 122* on LocalPlayer
326: 0x07EC [0x1C] WAIT(260* ticks)
327: 0x07EF [0x43] SEND_EVENT_UPDATE: Send pending tag to server (packet 0x005B)
328: 0x07F1 [0x43] SEND_EVENT_UPDATE: Check pending flag (skip if not pending)
329: 0x07F3 [0x02] IF !(Work_Zone[2] == 4294967295*) GOTO 0x080B
330: 0x07FB [0x6C] FADE_ENTITY_COLOR(entity_id=LocalPlayer, end_alpha=127*, fade_time=1*)
331: 0x0804 [0x48] [System] [10291*]:
     "I'm sorry. I wasn't listening. Could you start over from the beginning?"
332: 0x0807 [0x23] WAIT_FOR_DIALOG_INTERACTION
333: 0x0808 [0x01] GOTO 0x080C
334: 0x080B [0x30] SET_UCOFF_CONTINUE_ZERO()

SUBROUTINE_080C:
335: 0x080C [0x01] GOTO 0x080F

SUBROUTINE_080F:
336: 0x080F [0x01] GOTO 0x0816
337: 0x0812 [0x1D] PRINT_EVENT_MESSAGE(message_id=10259*)
     "I apologize, but your level is too low to participate in an official Brenner match."
338: 0x0815 [0x23] WAIT_FOR_DIALOG_INTERACTION

SUBROUTINE_0816:
339: 0x0816 [0x01] GOTO 0x00AA

SUBROUTINE_0827:
340: 0x0827 [0x24] CREATE_DIALOG(message_id=10263*, default_option=ExtData[1]->WorkLocal[0], option_flags=0*)
     "What would you like to know about? [Basic rules./Official/private matches./Flammen-Brenner./Flamme./Match score./Petras and quarrying./Sprint./KO./Return.]"
341: 0x082E [0x25] WAIT_DIALOG_SELECT()
342: 0x082F [0x03] ExtData[1]->WorkLocal[0] = Work_Zone[0]
343: 0x0834 [0x02] IF !(Work_Zone[0] == 0*) GOTO 0x085E
344: 0x083C [0x48] [System] [10264*]:
     "The basic rules of Brenner are as follows:"
345: 0x083F [0x23] WAIT_FOR_DIALOG_INTERACTION
346: 0x0840 [0x48] [System] [10265*]:
     "First, the participants divide into two teams. Each side's camp contains the same number of "Flammen-Brenner.""
347: 0x0843 [0x23] WAIT_FOR_DIALOG_INTERACTION
348: 0x0844 [0x48] [System] [10266*]:
     "At the beginning of the match, half of each side's Flammen-Brenner will be ablaze with "Flamme," or flame, while the other half will remain unlit."
349: 0x0847 [0x23] WAIT_FOR_DIALOG_INTERACTION
350: 0x0848 [0x48] [System] [10267*]:
     "Participants can seize a Flamme from the opposing side's Flammen-Brenner and carry it around the Isle."
351: 0x084B [0x23] WAIT_FOR_DIALOG_INTERACTION
352: 0x084C [0x48] [System] [10268*]:
     "The goal is to steal your opponent's Flamme and use them to light your side's Flammen-Brenner."
353: 0x084F [0x23] WAIT_FOR_DIALOG_INTERACTION
354: 0x0850 [0x48] [System] [10269*]:
     "The side that succeeds in lighting all of its Flammen-Brenner will be declared the winner after a specified amount of time."
355: 0x0853 [0x23] WAIT_FOR_DIALOG_INTERACTION
356: 0x0854 [0x48] [System] [10270*]:
     "If neither side is victorious before the match ends, the outcome will be judged based on the score. The "match score" section of the rulebook contains more information on this subject."
357: 0x0857 [0x23] WAIT_FOR_DIALOG_INTERACTION
358: 0x0858 [0x01] GOTO 0x0827

SUBROUTINE_091A:
359: 0x091A [0x01] GOTO 0x00AA

SUBROUTINE_0954:
360: 0x0954 [0x01] GOTO 0x096E
361: 0x0957 [0x24] CREATE_DIALOG(message_id=10253*, default_option=1*, option_flags=0*)
     "Return the $3? [Yes./No.]"
362: 0x095E [0x25] WAIT_DIALOG_SELECT()
363: 0x095F [0x02] IF !(Work_Zone[0] == 0*) GOTO 0x096B
364: 0x0967 [0x42] SET_CLI_EVENT_CANCEL_DATA()
365: 0x0968 [0x01] GOTO 0x096E
366: 0x096B [0x01] GOTO 0x00AA

SUBROUTINE_096E:
367: 0x096E [0x01] GOTO 0x09C2
368: 0x0971 [0x02] IF !(Work_Zone[0] == 12*) GOTO 0x09C2
369: 0x0979 [0x03] Work_Zone[2] = 759*
370: 0x097E [0x1D] PRINT_EVENT_MESSAGE(message_id=10254*)
     "When in possession of the key item $3, you will have the choice of keeping or throwing away the first Petra you quarry. You will also retain the ability to sprint."
371: 0x0981 [0x23] WAIT_FOR_DIALOG_INTERACTION
372: 0x0982 [0x1D] PRINT_EVENT_MESSAGE(message_id=10255*)
     "You can speak to me to borrow or return the band at any time."
373: 0x0985 [0x23] WAIT_FOR_DIALOG_INTERACTION
374: 0x0986 [0x02] IF !(ExtData[1]->WorkLocal[9] == 0*) GOTO 0x09A8
375: 0x098E [0x24] CREATE_DIALOG(message_id=10252*, default_option=1*, option_flags=0*)
     "Borrow the $3? [Yes./No.]"
376: 0x0995 [0x25] WAIT_DIALOG_SELECT()
377: 0x0996 [0x02] IF !(Work_Zone[0] == 0*) GOTO 0x09A2
378: 0x099E [0x42] SET_CLI_EVENT_CANCEL_DATA()
379: 0x099F [0x01] GOTO 0x09A5
380: 0x09A2 [0x01] GOTO 0x00AA

SUBROUTINE_09A5:
381: 0x09A5 [0x01] GOTO 0x09BF
382: 0x09A8 [0x24] CREATE_DIALOG(message_id=10253*, default_option=1*, option_flags=0*)
     "Return the $3? [Yes./No.]"
383: 0x09AF [0x25] WAIT_DIALOG_SELECT()
384: 0x09B0 [0x02] IF !(Work_Zone[0] == 0*) GOTO 0x09BC
385: 0x09B8 [0x42] SET_CLI_EVENT_CANCEL_DATA()
386: 0x09B9 [0x01] GOTO 0x09BF
387: 0x09BC [0x01] GOTO 0x00AA

SUBROUTINE_09BF:
388: 0x09BF [0x01] GOTO 0x09C2

SUBROUTINE_09C2:
389: 0x09C2 [0x21] END_EVENT
390: 0x09C3 [0x00] END_REQSTACK()

SUBROUTINE_09C4:
391: 0x09C4 [0x3F] ExtData[1]->WorkLocal[0] = ExtData[1]->WorkLocal[0] % 604800*
392: 0x09CB [0x15] ExtData[1]->WorkLocal[0] /= 7200*
393: 0x09D0 [0x02] IF !(ExtData[1]->WorkLocal[0] == 78*) GOTO 0x09E0
394: 0x09D8 [0x03] ExtData[1]->WorkLocal[23] = 60*
395: 0x09DD [0x01] GOTO 0x0B15
396: 0x09E0 [0x02] IF !(ExtData[1]->WorkLocal[0] == 6*) GOTO 0x09F0
397: 0x09E8 [0x03] ExtData[1]->WorkLocal[23] = 75*
398: 0x09ED [0x01] GOTO 0x0B15
399: 0x09F0 [0x02] IF !(ExtData[1]->WorkLocal[0] == 18*) GOTO 0x0A00
400: 0x09F8 [0x03] ExtData[1]->WorkLocal[23] = 30*
401: 0x09FD [0x01] GOTO 0x0B15
402: 0x0A00 [0x02] IF !(ExtData[1]->WorkLocal[0] == 30*) GOTO 0x0A10
403: 0x0A08 [0x03] ExtData[1]->WorkLocal[23] = 40*
404: 0x0A0D [0x01] GOTO 0x0B15
405: 0x0A10 [0x02] IF !(ExtData[1]->WorkLocal[0] == 42*) GOTO 0x0A20
406: 0x0A18 [0x03] ExtData[1]->WorkLocal[23] = 50*
407: 0x0A1D [0x01] GOTO 0x0B15
408: 0x0A20 [0x02] IF !(ExtData[1]->WorkLocal[0] == 53*) GOTO 0x0A30
409: 0x0A28 [0x03] ExtData[1]->WorkLocal[23] = 50*
410: 0x0A2D [0x01] GOTO 0x0B15
411: 0x0A30 [0x02] IF !(ExtData[1]->WorkLocal[0] == 54*) GOTO 0x0A40
412: 0x0A38 [0x03] ExtData[1]->WorkLocal[23] = 60*
413: 0x0A3D [0x01] GOTO 0x0B15
414: 0x0A40 [0x02] IF !(ExtData[1]->WorkLocal[0] == 64*) GOTO 0x0A50
415: 0x0A48 [0x03] ExtData[1]->WorkLocal[23] = 40*
416: 0x0A4D [0x01] GOTO 0x0B15
417: 0x0A50 [0x02] IF !(ExtData[1]->WorkLocal[0] == 65*) GOTO 0x0A60
418: 0x0A58 [0x03] ExtData[1]->WorkLocal[23] = 30*
419: 0x0A5D [0x01] GOTO 0x0B15
420: 0x0A60 [0x02] IF !(ExtData[1]->WorkLocal[0] == 66*) GOTO 0x0A70
421: 0x0A68 [0x03] ExtData[1]->WorkLocal[23] = 75*
422: 0x0A6D [0x01] GOTO 0x0B15
423: 0x0A70 [0x02] IF !(ExtData[1]->WorkLocal[0] == 83*) GOTO 0x0A80
424: 0x0A78 [0x03] ExtData[1]->WorkLocal[23] = 75*
425: 0x0A7D [0x01] GOTO 0x0B15
426: 0x0A80 [0x02] IF !(ExtData[1]->WorkLocal[0] == 11*) GOTO 0x0A90
427: 0x0A88 [0x03] ExtData[1]->WorkLocal[23] = 30*
428: 0x0A8D [0x01] GOTO 0x0B15
429: 0x0A90 [0x02] IF !(ExtData[1]->WorkLocal[0] == 23*) GOTO 0x0AA0
430: 0x0A98 [0x03] ExtData[1]->WorkLocal[23] = 40*
431: 0x0A9D [0x01] GOTO 0x0B15
432: 0x0AA0 [0x02] IF !(ExtData[1]->WorkLocal[0] == 35*) GOTO 0x0AB0
433: 0x0AA8 [0x03] ExtData[1]->WorkLocal[23] = 50*
434: 0x0AAD [0x01] GOTO 0x0B15
435: 0x0AB0 [0x02] IF !(ExtData[1]->WorkLocal[0] == 47*) GOTO 0x0AC0
436: 0x0AB8 [0x03] ExtData[1]->WorkLocal[23] = 60*
437: 0x0ABD [0x01] GOTO 0x0B15
438: 0x0AC0 [0x02] IF !(ExtData[1]->WorkLocal[0] == 56*) GOTO 0x0AD0
439: 0x0AC8 [0x03] ExtData[1]->WorkLocal[23] = 40*
440: 0x0ACD [0x01] GOTO 0x0B15
441: 0x0AD0 [0x02] IF !(ExtData[1]->WorkLocal[0] == 57*) GOTO 0x0AE0
442: 0x0AD8 [0x03] ExtData[1]->WorkLocal[23] = 30*
443: 0x0ADD [0x01] GOTO 0x0B15
444: 0x0AE0 [0x02] IF !(ExtData[1]->WorkLocal[0] == 58*) GOTO 0x0AF0
445: 0x0AE8 [0x03] ExtData[1]->WorkLocal[23] = 75*
446: 0x0AED [0x01] GOTO 0x0B15
447: 0x0AF0 [0x02] IF !(ExtData[1]->WorkLocal[0] == 68*) GOTO 0x0B00
448: 0x0AF8 [0x03] ExtData[1]->WorkLocal[23] = 50*
449: 0x0AFD [0x01] GOTO 0x0B15
450: 0x0B00 [0x02] IF !(ExtData[1]->WorkLocal[0] == 69*) GOTO 0x0B10
451: 0x0B08 [0x03] ExtData[1]->WorkLocal[23] = 60*
452: 0x0B0D [0x01] GOTO 0x0B15
453: 0x0B10 [0x03] ExtData[1]->WorkLocal[23] = 0*

SUBROUTINE_0B15:
454: 0x0B15 [0x1B] RETURN

SUBROUTINE_0B16:
455: 0x0B16 [0x24] CREATE_DIALOG(message_id=10292*, default_option=Work_Zone[0], option_flags=0*)
     "What do you wish to know about? [Basic rules./About the Petra./About Sprint./About Scout./About Gate Breach./About area-specific rules./About returning to battle./About special rules./Nothing at the moment.]"
456: 0x0B1D [0x25] WAIT_DIALOG_SELECT()
457: 0x0B1E [0x02] IF !(Work_Zone[0] == 0*) GOTO 0x0B40
458: 0x0B26 [0x48] [System] [10293*]:
     "Ballista is an exercise once used by the San d'Orian armies to train the Royal Knights in the art of the siege. The word "ballista" means "to throw a stone," and the game has been a part of Vana'dielian military history for centuries."
459: 0x0B29 [0x23] WAIT_FOR_DIALOG_INTERACTION
460: 0x0B2A [0x48] [System] [10294*]:
     "The rules are simple. Ballista is played by two teams over a number of hours (Vana'diel time). The team with the most points at the end of the match is the victor."
461: 0x0B2D [0x23] WAIT_FOR_DIALOG_INTERACTION
462: 0x0B2E [0x48] [System] [10295*]:
     "Players from both teams must search for Petras that a Herald has buried in various locations across the battlefield. The players must then take these stones and throw them into targets known as Rooks."
463: 0x0B31 [0x23] WAIT_FOR_DIALOG_INTERACTION
464: 0x0B32 [0x48] [System] [10296*]:
     "These Rooks can appear in various locations around the battlefield, and both teams are allowed to throw their Petras into them."
465: 0x0B35 [0x23] WAIT_FOR_DIALOG_INTERACTION
466: 0x0B36 [0x48] [System] [10297*]:
     "Finally, a player's strength is adjusted depending on his or her level. It is felt that this ultimately allows for a more balanced battle."
467: 0x0B39 [0x23] WAIT_FOR_DIALOG_INTERACTION
468: 0x0B3A [0x01] GOTO 0x0B16

SUBROUTINE_0C03:
469: 0x0C03 [0x24] CREATE_DIALOG(message_id=10323*, default_option=Work_Zone[0], option_flags=0*)
     "Learn about which special rules? [Temporary items./Ballista Points./Scoring restrictions./Gate Breach radius expansion./Resistance to Sleep./Open entries./Minimum level restrictions./Re-entry restrictions./Participant & Rook numbers./Experience Points./Return.]"
470: 0x0C0A [0x25] WAIT_DIALOG_SELECT()
471: 0x0C0B [0x02] IF !(Work_Zone[0] == 0*) GOTO 0x0C2D
472: 0x0C13 [0x48] [System] [10324*]:
     "Previously, participants in Ballista were required to use an item the moment they dug it up using the /quarry command. However, players can now stock these items as temporary items for use at any time during the match."
473: 0x0C16 [0x23] WAIT_FOR_DIALOG_INTERACTION
474: 0x0C17 [0x48] [System] [10325*]:
     "Players can hold up to ten temporary items, but only one of each type. If a player finds an item that they already possess, they must use it immediately or throw it away."
475: 0x0C1A [0x23] WAIT_FOR_DIALOG_INTERACTION
476: 0x0C1B [0x48] [System] [10326*]:
     "If players who possess ten temporary items find an item that they have not already obtained, they will also have the option to exchange it with one of their current items."
477: 0x0C1E [0x23] WAIT_FOR_DIALOG_INTERACTION
478: 0x0C1F [0x48] [System] [10327*]:
     "Also, players will not, at any time, be allowed to trade temporary items. However, there are items that can be used on other Ballista participants. Please note that players may not be able to use these special items as soon as they are quarried."
479: 0x0C22 [0x23] WAIT_FOR_DIALOG_INTERACTION
480: 0x0C23 [0x48] [System] [10328*]:
     "Finally, the Heralds will collect temporary items when the match (the third in a Best of Three series) has concluded."
481: 0x0C26 [0x23] WAIT_FOR_DIALOG_INTERACTION
482: 0x0C27 [0x01] GOTO 0x0C03

SUBROUTINE_0CF6:
483: 0x0CF6 [0x01] GOTO 0x0CF9

SUBROUTINE_0CF9:
484: 0x0CF9 [0x1B] RETURN

SUBROUTINE_0CFA:
485: 0x0CFA [0x03] Work_Zone[2] = 2000*
486: 0x0CFF [0x48] [System] [10329*]:
     "Ballista Points are rewarded to each competitor based on his or her performance in a single Ballista match. The maximum number of points that can be accumulated per match is $0."
487: 0x0D02 [0x23] WAIT_FOR_DIALOG_INTERACTION
488: 0x0D03 [0x48] [System] [10330*]:
     "While it is taken into consideration, scoring Petras is not the only way to earn Ballista Points. Assisting allies and defeating members of the enemy forces can also earn a high score."
489: 0x0D06 [0x23] WAIT_FOR_DIALOG_INTERACTION
490: 0x0D07 [0x48] [System] [10331*]:
     "Ballista Points can be traded for special "vouchers," which may be exchanged for free temporary items at the start of new matches."
491: 0x0D0A [0x23] WAIT_FOR_DIALOG_INTERACTION
492: 0x0D0B [0x48] [System] [10332*]:
     "However, remember that depending on the level restriction of the match, certain vouchers will not be redeemed at the beginning of a match. Speak with a Marshal directly after a match to register your points."
493: 0x0D0E [0x23] WAIT_FOR_DIALOG_INTERACTION
494: 0x0D0F [0x1B] RETURN

SUBROUTINE_0F95:
495: 0x0F95 [0x03] ExtData[1]->WorkLocal[31] = ExtData[1]->WorkLocal[27]
496: 0x0F9A [0x02] IF !(ExtData[1]->WorkLocal[39] == 0*) GOTO 0x0FA5
497: 0x0FA2 [0x01] GOTO 0x0FC5
498: 0x0FA5 [0x02] IF !(ExtData[1]->WorkLocal[39] == 1*) GOTO 0x0FB5
499: 0x0FAD [0x08] ExtData[1]->WorkLocal[31] -= 6912*
500: 0x0FB2 [0x01] GOTO 0x0FC5
501: 0x0FB5 [0x02] IF !(ExtData[1]->WorkLocal[39] == 2*) GOTO 0x0FC5
502: 0x0FBD [0x08] ExtData[1]->WorkLocal[31] -= 13824*
503: 0x0FC2 [0x01] GOTO 0x0FC5

SUBROUTINE_0FC5:
504: 0x0FC5 [0x15] ExtData[1]->WorkLocal[31] /= 20736*
505: 0x0FCA [0x14] ExtData[1]->WorkLocal[31] *= 20736*
506: 0x0FCF [0x02] IF !(ExtData[1]->WorkLocal[39] == 0*) GOTO 0x0FDA
507: 0x0FD7 [0x01] GOTO 0x0FFA
508: 0x0FDA [0x02] IF !(ExtData[1]->WorkLocal[39] == 1*) GOTO 0x0FEA
509: 0x0FE2 [0x07] ExtData[1]->WorkLocal[31] += 6912*
510: 0x0FE7 [0x01] GOTO 0x0FFA
511: 0x0FEA [0x02] IF !(ExtData[1]->WorkLocal[39] == 2*) GOTO 0x0FFA
512: 0x0FF2 [0x07] ExtData[1]->WorkLocal[31] += 13824*
513: 0x0FF7 [0x01] GOTO 0x0FFA

SUBROUTINE_0FFA:
514: 0x0FFA [0x03] ExtData[1]->WorkLocal[32] = ExtData[1]->WorkLocal[31]
515: 0x0FFF [0x07] ExtData[1]->WorkLocal[32] += 1728*
516: 0x1004 [0x03] ExtData[1]->WorkLocal[33] = ExtData[1]->WorkLocal[31]
517: 0x1009 [0x07] ExtData[1]->WorkLocal[33] += 3168*
518: 0x100E [0x03] ExtData[1]->WorkLocal[34] = ExtData[1]->WorkLocal[31]
519: 0x1013 [0x07] ExtData[1]->WorkLocal[34] += 3456*
520: 0x1018 [0x03] ExtData[1]->WorkLocal[35] = 3456*
521: 0x101D [0x03] ExtData[1]->WorkLocal[36] = ExtData[1]->WorkLocal[31]
522: 0x1022 [0x07] ExtData[1]->WorkLocal[36] += 6912*
523: 0x1027 [0x03] ExtData[1]->WorkLocal[37] = ExtData[1]->WorkLocal[31]
524: 0x102C [0x07] ExtData[1]->WorkLocal[37] += 6912*
525: 0x1031 [0x03] ExtData[1]->WorkLocal[38] = ExtData[1]->WorkLocal[31]
526: 0x1036 [0x07] ExtData[1]->WorkLocal[38] += 10368*
527: 0x103B [0x03] ExtData[1]->WorkLocal[42] = ExtData[1]->WorkLocal[31]
528: 0x1040 [0x15] ExtData[1]->WorkLocal[42] /= 414720*
529: 0x1045 [0x3F] ExtData[1]->WorkLocal[28] = ExtData[1]->WorkLocal[42] % 3*
530: 0x104C [0x02] IF !(ExtData[1]->WorkLocal[39] == 0*) GOTO 0x1057
531: 0x1054 [0x01] GOTO 0x1077
532: 0x1057 [0x02] IF !(ExtData[1]->WorkLocal[39] == 1*) GOTO 0x1067
533: 0x105F [0x07] ExtData[1]->WorkLocal[28] += 1*
534: 0x1064 [0x01] GOTO 0x1077
535: 0x1067 [0x02] IF !(ExtData[1]->WorkLocal[39] == 2*) GOTO 0x1077
536: 0x106F [0x07] ExtData[1]->WorkLocal[28] += 2*
537: 0x1074 [0x01] GOTO 0x1077

SUBROUTINE_1077:
538: 0x1077 [0x3F] ExtData[1]->WorkLocal[28] = ExtData[1]->WorkLocal[28] % 3*
539: 0x107E [0x02] IF !(ExtData[1]->WorkLocal[28] == 0*) GOTO 0x1093
540: 0x1086 [0x03] ExtData[1]->WorkLocal[40] = 0*
541: 0x108B [0x03] ExtData[1]->WorkLocal[41] = 1*
542: 0x1090 [0x01] GOTO 0x10BD
543: 0x1093 [0x02] IF !(ExtData[1]->WorkLocal[28] == 1*) GOTO 0x10A8
544: 0x109B [0x03] ExtData[1]->WorkLocal[40] = 1*
545: 0x10A0 [0x03] ExtData[1]->WorkLocal[41] = 2*
546: 0x10A5 [0x01] GOTO 0x10BD
547: 0x10A8 [0x02] IF !(ExtData[1]->WorkLocal[28] == 2*) GOTO 0x10BD
548: 0x10B0 [0x03] ExtData[1]->WorkLocal[40] = 0*
549: 0x10B5 [0x03] ExtData[1]->WorkLocal[41] = 2*
550: 0x10BA [0x01] GOTO 0x10BD

SUBROUTINE_10BD:
551: 0x10BD [0x03] ExtData[1]->WorkLocal[42] = ExtData[1]->WorkLocal[31]
