# 16982174 - Yahsra

## Common Data

| Field            | Value                         |
|------------------|-------------------------------|
| Zone             | Aht Urhgan Whitegate (ID: 50) |
| Block Size       | 2344 bytes                    |
| Total Events     | 5                             |
| References Count | 85                            |

## List of Events

| Event ID                 | Entrypoint   |   Size |   Instructions |
|--------------------------|--------------|--------|----------------|
| [65535](#event-65535)    | 0x0000       |      1 |              1 |
| [279](#event-279)        | 0x0001       |     15 |              7 |
| [273](#event-273)        | 0x0010       |   1878 |            469 |
| [269](#event-269)        | 0x0766       |      1 |              1 |
| [65535.1](#event-655351) | 0x0767       |     73 |              9 |

## DAT References (imed_data)

|   Index | Hex Value   |   Dec Value |
|---------|-------------|-------------|
|       0 | 0x162A      |        5674 |
|       1 | 0x162F      |        5679 |
|       2 | 0x0000      |           0 |
|       3 | 0x1630      |        5680 |
|       4 | 0x000C      |          12 |
|       5 | 0x0001      |           1 |
|       6 | 0x000D      |          13 |
|       7 | 0x1631      |        5681 |
|       8 | 0x1632      |        5682 |
|       9 | 0xFFFFFFFF  |  4294967295 |
|      10 | 0x0002      |           2 |
|      11 | 0x0003      |           3 |
|      12 | 0x0004      |           4 |
|      13 | 0x0005      |           5 |
|      14 | 0x0006      |           6 |
|      15 | 0x0007      |           7 |
|      16 | 0x0008      |           8 |
|      17 | 0x0009      |           9 |
|      18 | 0x000A      |          10 |
|      19 | 0x1633      |        5683 |
|      20 | 0x1634      |        5684 |
|      21 | 0x1635      |        5685 |
|      22 | 0x1636      |        5686 |
|      23 | 0x1637      |        5687 |
|      24 | 0x1638      |        5688 |
|      25 | 0x1639      |        5689 |
|      26 | 0x163A      |        5690 |
|      27 | 0x163B      |        5691 |
|      28 | 0x163C      |        5692 |
|      29 | 0x163D      |        5693 |
|      30 | 0x1671      |        5745 |
|      31 | 0x1674      |        5748 |
|      32 | 0x0313      |         787 |
|      33 | 0x1672      |        5746 |
|      34 | 0x0032      |          50 |
|      35 | 0x1673      |        5747 |
|      36 | 0x1675      |        5749 |
|      37 | 0x1676      |        5750 |
|      38 | 0x1677      |        5751 |
|      39 | 0x3E62      |       15970 |
|      40 | 0x3D9F      |       15775 |
|      41 | 0x3CA1      |       15521 |
|      42 | 0x3E0C      |       15884 |
|      43 | 0x3C82      |       15490 |
|      44 | 0x47E8      |       18408 |
|      45 | 0x4835      |       18485 |
|      46 | 0x47BD      |       18365 |
|      47 | 0x3A55      |       14933 |
|      48 | 0x3EC5      |       16069 |
|      49 | 0x3CF6      |       15606 |
|      50 | 0x0BB8      |        3000 |
|      51 | 0x1388      |        5000 |
|      52 | 0x1F40      |        8000 |
|      53 | 0x2710      |       10000 |
|      54 | 0x3A98      |       15000 |
|      55 | 0x4E20      |       20000 |
|      56 | 0x2789      |       10121 |
|      57 | 0x278A      |       10122 |
|      58 | 0x1678      |        5752 |
|      59 | 0x168B      |        5771 |
|      60 | 0x167F      |        5759 |
|      61 | 0x000B      |          11 |
|      62 | 0x000E      |          14 |
|      63 | 0x0011      |          17 |
|      64 | 0x167C      |        5756 |
|      65 | 0x167D      |        5757 |
|      66 | 0x1681      |        5761 |
|      67 | 0x1682      |        5762 |
|      68 | 0x1683      |        5763 |
|      69 | 0x1684      |        5764 |
|      70 | 0x1685      |        5765 |
|      71 | 0x1686      |        5766 |
|      72 | 0x1687      |        5767 |
|      73 | 0x1688      |        5768 |
|      74 | 0x1689      |        5769 |
|      75 | 0x168A      |        5770 |
|      76 | 0x168C      |        5772 |
|      77 | 0x1679      |        5753 |
|      78 | 0x167E      |        5758 |
|      79 | 0x167A      |        5754 |
|      80 | 0x167B      |        5755 |
|      81 | 0x00C8      |         200 |
|      82 | 0x0014      |          20 |
|      83 | 0x0078      |         120 |
|      84 | 0x00F0      |         240 |

## String References

- **5674**: This is the reception counter for Assault missions in Leujaoam Sanctum.
- **5679**: Persons who have not completed mercenary registration are ineligible to sign up for Assault missions.
- **5680**: How may I help you today?
- **5681**: How may I help you? [View mission list./Spend Assault Points./Mission list explanation./I'm fine, thanks.]
- **5682**: Here is the list of available Assault missions.
- **5683**: View a mission. [$10./$11./$12./$13./$14./$15./$16./$17./$18./$19.]
- **5684**: Leujaoam Cleansing Objective: Remove all threats Recruitment: Lv.50, 1-6 mercenaries
- **5685**: Orichalcum Survey Objective: Discover orichalcum ore Recruitment: Lv.50, 1-6 mercenaries
- **5686**: Escort Professor Chanoix Objective: Protect the professor Recruitment: Lv.60, 1-6 mercenaries
- **5687**: Shanarha Grass Conservation Objective: Protect the vegetation Recruitment: Lv.50, 1-6 mercenaries
- **5688**: Counting Sheep Objective: Buy black sheep Recruitment: Lv.60, 1-6 mercenaries
- **5689**: Supplies Recovery Objective: Retrieve the supplies Recruitment: Lv.70, 1-6 mercenaries
- **5690**: Azure Experiments Objective: Become a test subject Recruitment: Lv.70, 1-6 mercenaries
- **5691**: Imperial Code Objective: Retrieve the OGMA Recruitment: Lv.70, 1-6 mercenaries
- **5692**: Red Versus Blue Objective: Defeat Raubahn Recruitment: Lv.70, 1-6 mercenaries
- **5693**: Bloody Rondo Objective: Defeat the count Recruitment: Lv.70, 1-6 mercenaries
- **5745**: Sign up for this mission? [Yes./Return to list.]
- **5746**: I'm sorry, but you cannot sign up for Assault missions without $6.
- **5747**: I'm sorry, but only mercenaries of level 50 or above can sign up for Assault missions.
- **5748**: I'm sorry, but you cannot sign up for a new Assault mission until you have completed your current mission, or canceled your Assault application at the main counter.
- **5749**: You have signed up for $9.
- **5750**: Please make your way to the staging point and have a member of your party receive command verification from an Immortal. Good luck.
- **5751**: You have a total of $2 [Assault point/Assault points] for this area. Which item do you wish to purchase?
- **5752**: Which item do you wish to purchase? [None./$9...$22 [pt./pts.]/$10...$23 [pt./pts.]/$11...$24 [pt./pts.]/$12...$25 [pt./pts.]/$13...$25 [pt./pts.]/$15...$26 [pt./pts.]/$16...$26 [pt./pts.]/$17...$26 [pt./pts.]/$18...$27 [pt./pts.]/$19...$27 [pt./pts.]/$20...$27 [pt./pts.]/$21...$28 [pt./pts.]/$14...$29 [pt./pts.]]
- **5753**: You cannot equip the $39. Do you still wish to proceed?
- **5754**: Your level is too low to equip the $39. Do you still wish to proceed?
- **5755**: You seem to be able to equip the $39. Do you wish to proceed?
- **5756**: Purchase the $39?
- **5757**: Proceed? [Yes, purchase item./Cancel purchase.]
- **5758**: Proceed? [Yes, even though I can't equip it./Cancel purchase.]
- **5759**: You do not have enough Assault points to purchase the $39.
- **5761**: Allow me to explain the mission list notations.
- **5762**: Selecting "View mission list" will display a list of mission titles.
- **5763**: Once a mission has been selected, you will see the following notations under the mission title: "Objective" and "Recruitment."
- **5764**: "Objective" refers to the condition that must be fulfilled in order for the mission to succeed.
- **5765**: After completing a mission objective, a "Rune of Release" will appear within the area. Activating the Rune of Release will signify the successful completion of the mission.
- **5766**: "Recruitment" refers to the level and number of mercenaries being recruited for the mission. The level displayed is a suggestion only, and any mission can be undertaken by a mercenary of level 50 or above.
- **5767**: However, signing up for a mission of a level lower than your own will earn less Assault points from the Empire.
- **5768**: The number range displayed represents the minimum and maximum number of mercenaries allowed for the mission.
- **5769**: You must meet the minimum number requirement in order to begin an Assault mission.
- **5770**: This concludes the explanation of mission list notations.
- **5771**: Is there anything else I can help you with?
- **5772**: Thank you for visiting the Commissions Agency.

## Events

### Event 65535

#### Metadata

| Field        | Value   |
|--------------|---------|
| Entrypoint   | 0x0000  |
| Data Size    | 1 bytes |
| Instructions | 1       |

```
      00 01 02 03 04 05 06 07  08 09 0A 0B 0C 0D 0E 0F
      -- -- -- -- -- -- -- --  -- -- -- -- -- -- -- --
0000: 00                                                .               
```

#### Opcodes

```
  0: 0x0000 [0x00] END_REQSTACK()
```

### Event 279

#### Metadata

| Field        | Value    |
|--------------|----------|
| Entrypoint   | 0x0001   |
| Data Size    | 15 bytes |
| Instructions | 7        |

```
      00 01 02 03 04 05 06 07  08 09 0A 0B 0C 0D 0E 0F
      -- -- -- -- -- -- -- --  -- -- -- -- -- -- -- --
0000:    1E F0 FF FF 7F 1D 00  80 23 1D 01 80 23 21 00   ........#...#!.
```

#### Opcodes

```
  0: 0x0001 [0x1E] EventEntity looks at LocalPlayer and starts talking
  1: 0x0006 [0x1D] PRINT_EVENT_MESSAGE(message_id=5674*)
    → "This is the reception counter for Assault missions in Leujaoam Sanctum."
  2: 0x0009 [0x23] WAIT_FOR_DIALOG_INTERACTION
  3: 0x000A [0x1D] PRINT_EVENT_MESSAGE(message_id=5679*)
    → "Persons who have not completed mercenary registration are ineligible to sign up for Assault missions."
  4: 0x000D [0x23] WAIT_FOR_DIALOG_INTERACTION
  5: 0x000E [0x21] END_EVENT
  6: 0x000F [0x00] END_REQSTACK()
```

### Event 273

#### Metadata

| Field        | Value      |
|--------------|------------|
| Entrypoint   | 0x0010     |
| Data Size    | 1878 bytes |
| Instructions | 370        |

```
      00 01 02 03 04 05 06 07  08 09 0A 0B 0C 0D 0E 0F
      -- -- -- -- -- -- -- --  -- -- -- -- -- -- -- --
0010: 03 01 10 02 80 1E F0 FF  FF 7F 1D 00 80 23 1D 03  .............#..
0020: 80 23 03 02 00 06 10 3E  02 00 02 80 3F 00 3D 03  .#.....>....?.=.
0030: 00 04 80 05 80 3D 03 00  06 80 05 80 01 4D 00 3C  .....=.......M.<
0040: 03 00 04 80 05 80 3C 03  00 06 80 05 80 24 07 80  ......<......$..
0050: 02 80 02 80 25 02 00 10  02 80 00 FB 01 1D 08 80  ....%...........
0060: 23 03 01 00 09 80 03 00  00 02 10 02 00 00 02 80  #...............
0070: 02 80 00 0C 00 00 3D 01  00 00 00 05 80 01 6B 00  ......=.......k.
0080: 03 02 17 05 80 03 03 17  0A 80 03 04 17 0B 80 03  ................
0090: 05 17 0C 80 03 06 17 0D  80 03 07 17 0E 80 03 08  ................
00A0: 17 0F 80 03 09 17 10 80  03 0A 17 11 80 03 0B 17  ................
00B0: 12 80 24 13 80 02 80 01  00 25 02 00 10 02 80 00  ..$......%......
00C0: CE 00 48 14 80 23 03 01  17 02 17 01 82 01 02 00  ..H..#..........
00D0: 10 05 80 00 E2 00 48 15  80 23 03 01 17 03 17 01  ......H..#......
00E0: 82 01 02 00 10 0A 80 00  F6 00 48 16 80 23 03 01  ..........H..#..
00F0: 17 04 17 01 82 01 02 00  10 0B 80 00 0A 01 48 17  ..............H.
0100: 80 23 03 01 17 05 17 01  82 01 02 00 10 0C 80 00  .#..............
0110: 1E 01 48 18 80 23 03 01  17 06 17 01 82 01 02 00  ..H..#..........
0120: 10 0D 80 00 32 01 48 19  80 23 03 01 17 07 17 01  ....2.H..#......
0130: 82 01 02 00 10 0E 80 00  46 01 48 1A 80 23 03 01  ........F.H..#..
0140: 17 08 17 01 82 01 02 00  10 0F 80 00 5A 01 48 1B  ............Z.H.
0150: 80 23 03 01 17 09 17 01  82 01 02 00 10 10 80 00  .#..............
0160: 6E 01 48 1C 80 23 03 01  17 0A 17 01 82 01 02 00  n.H..#..........
0170: 10 11 80 00 82 01 48 1D  80 23 03 01 17 0B 17 01  ......H..#......
0180: 82 01 03 00 00 00 10 0B  00 00 24 1E 80 05 80 02  ..........$.....
0190: 80 25 02 00 10 02 80 00  EA 01 02 05 10 02 80 01  .%..............
01A0: A9 01 1D 1F 80 23 01 E7  01 02 03 10 02 80 00 BD  .....#..........
01B0: 01 03 00 17 20 80 1D 21  80 23 01 E7 01 02 88 7F  .... ..!.#......
01C0: 22 80 03 CC 01 1D 23 80  23 01 E7 01 42 1D 24 80  ".....#.#...B.$.
01D0: 23 1D 25 80 23 40 02 80  0B 80 01 10 05 80 40 0C  #.%.#@........@.
01E0: 80 06 80 01 10 01 17 01  F8 01 02 00 10 05 80 00  ................
01F0: F8 01 01 80 00 01 F8 01  01 5E 06 02 00 10 05 80  .........^......
0200: 00 15 06 1D 26 80 23 03  01 17 27 80 03 02 17 28  ....&.#...'....(
0210: 80 03 03 17 29 80 03 04  17 2A 80 03 05 17 2B 80  ....)....*....+.
0220: 03 07 17 2C 80 03 08 17  2D 80 03 09 17 2E 80 03  ...,....-.......
0230: 0A 17 2F 80 03 0B 17 30  80 03 0C 17 31 80 03 0E  ../....0....1...
0240: 17 32 80 03 0F 17 33 80  03 10 17 34 80 03 11 17  .2....3....4....
0250: 35 80 03 12 17 36 80 03  13 17 37 80 03 0D 17 38  5....6....7....8
0260: 80 03 14 17 32 80 03 06  17 39 80 03 15 17 32 80  ....2....9....2.
0270: 24 3A 80 02 80 03 00 25  02 00 10 02 80 00 8A 02  $:.....%........
0280: 1D 3B 80 23 01 4D 00 01  12 06 02 00 10 05 80 00  .;.#.M..........
0290: C4 02 03 1F 17 27 80 02  0E 17 04 10 02 B3 02 93  .....'..........
02A0: 1F 17 1D 3C 80 23 93 02  80 1D 3B 80 23 01 4D 00  ...<.#....;.#.M.
02B0: 01 C1 02 1A 60 06 02 00  00 02 80 01 C1 02 01 4D  ....`..........M
02C0: 00 01 12 06 02 00 10 0A  80 00 FE 02 03 1F 17 28  ...............(
02D0: 80 02 0F 17 04 10 02 ED  02 93 1F 17 1D 3C 80 23  .............<.#
02E0: 93 02 80 1D 3B 80 23 01  4D 00 01 FB 02 1A 60 06  ....;.#.M.....`.
02F0: 02 00 00 02 80 01 FB 02  01 4D 00 01 12 06 02 00  .........M......
0300: 10 0B 80 00 38 03 03 1F  17 29 80 02 10 17 04 10  ....8....)......
0310: 02 27 03 93 1F 17 1D 3C  80 23 93 02 80 1D 3B 80  .'.....<.#....;.
0320: 23 01 4D 00 01 35 03 1A  60 06 02 00 00 02 80 01  #.M..5..`.......
0330: 35 03 01 4D 00 01 12 06  02 00 10 0C 80 00 72 03  5..M..........r.
0340: 03 1F 17 2A 80 02 11 17  04 10 02 61 03 93 1F 17  ...*.......a....
0350: 1D 3C 80 23 93 02 80 1D  3B 80 23 01 4D 00 01 6F  .<.#....;.#.M..o
0360: 03 1A 60 06 02 00 00 02  80 01 6F 03 01 4D 00 01  ..`.......o..M..
0370: 12 06 02 00 10 0D 80 00  AC 03 03 1F 17 2B 80 02  .............+..
0380: 11 17 04 10 02 9B 03 93  1F 17 1D 3C 80 23 93 02  ...........<.#..
0390: 80 1D 3B 80 23 01 4D 00  01 A9 03 1A 60 06 02 00  ..;.#.M.....`...
03A0: 00 02 80 01 A9 03 01 4D  00 01 12 06 02 00 10 0E  .......M........
03B0: 80 00 E6 03 03 1F 17 2C  80 02 12 17 04 10 02 D5  .......,........
03C0: 03 93 1F 17 1D 3C 80 23  93 02 80 1D 3B 80 23 01  .....<.#....;.#.
03D0: 4D 00 01 E3 03 1A 60 06  02 00 00 02 80 01 E3 03  M.....`.........
03E0: 01 4D 00 01 12 06 02 00  10 0F 80 00 20 04 03 1F  .M.......... ...
03F0: 17 2D 80 02 12 17 04 10  02 0F 04 93 1F 17 1D 3C  .-.............<
0400: 80 23 93 02 80 1D 3B 80  23 01 4D 00 01 1D 04 1A  .#....;.#.M.....
0410: 60 06 02 00 00 02 80 01  1D 04 01 4D 00 01 12 06  `..........M....
0420: 02 00 10 10 80 00 5A 04  03 1F 17 2E 80 02 12 17  ......Z.........
0430: 04 10 02 49 04 93 1F 17  1D 3C 80 23 93 02 80 1D  ...I.....<.#....
0440: 3B 80 23 01 4D 00 01 57  04 1A 60 06 02 00 00 02  ;.#.M..W..`.....
0450: 80 01 57 04 01 4D 00 01  12 06 02 00 10 11 80 00  ..W..M..........
0460: 94 04 03 1F 17 2F 80 02  13 17 04 10 02 83 04 93  ...../..........
0470: 1F 17 1D 3C 80 23 93 02  80 1D 3B 80 23 01 4D 00  ...<.#....;.#.M.
0480: 01 91 04 1A 60 06 02 00  00 02 80 01 91 04 01 4D  ....`..........M
0490: 00 01 12 06 02 00 10 12  80 00 CE 04 03 1F 17 30  ...............0
04A0: 80 02 13 17 04 10 02 BD  04 93 1F 17 1D 3C 80 23  .............<.#
04B0: 93 02 80 1D 3B 80 23 01  4D 00 01 CB 04 1A 60 06  ....;.#.M.....`.
04C0: 02 00 00 02 80 01 CB 04  01 4D 00 01 12 06 02 00  .........M......
04D0: 10 3D 80 00 08 05 03 1F  17 31 80 02 13 17 04 10  .=.......1......
04E0: 02 F7 04 93 1F 17 1D 3C  80 23 93 02 80 1D 3B 80  .......<.#....;.
04F0: 23 01 4D 00 01 05 05 1A  60 06 02 00 00 02 80 01  #.M.....`.......
0500: 05 05 01 4D 00 01 12 06  02 00 10 04 80 00 8D 05  ...M............
0510: 03 1F 17 38 80 02 14 17  04 10 02 31 05 93 1F 17  ...8.......1....
0520: 1D 3C 80 23 93 02 80 1D  3B 80 23 01 4D 00 01 8A  .<.#....;.#.M...
0530: 05 40 02 80 0B 80 01 10  0A 80 40 3E 80 3F 80 01  .@........@>.?..
0540: 10 00 10 03 00 00 02 80  93 1F 17 1D 40 80 23 93  ............@.#.
0550: 02 80 24 41 80 05 80 02  80 25 02 00 10 02 80 00  ..$A.....%......
0560: 66 05 42 01 7F 05 02 00  10 05 80 00 7F 05 03 01  f.B.............
0570: 10 02 80 1D 3B 80 23 03  00 00 05 80 01 7F 05 02  ....;.#.........
0580: 00 00 02 80 01 8A 05 01  4D 00 01 12 06 02 00 10  ........M.......
0590: 06 80 00 12 06 03 1F 17  39 80 02 15 17 04 10 02  ........9.......
05A0: B6 05 93 1F 17 1D 3C 80  23 93 02 80 1D 3B 80 23  ......<.#....;.#
05B0: 01 4D 00 01 0F 06 40 02  80 0B 80 01 10 0A 80 40  .M....@........@
05C0: 3E 80 3F 80 01 10 00 10  03 00 00 02 80 93 1F 17  >.?.............
05D0: 1D 40 80 23 93 02 80 24  41 80 05 80 02 80 25 02  .@.#...$A.....%.
05E0: 00 10 02 80 00 EB 05 42  01 04 06 02 00 10 05 80  .......B........
05F0: 00 04 06 03 01 10 02 80  1D 3B 80 23 03 00 00 05  .........;.#....
0600: 80 01 04 06 02 00 00 02  80 01 0F 06 01 4D 00 01  .............M..
0610: 12 06 01 5E 06 02 00 10  0A 80 00 4F 06 1D 42 80  ...^.......O..B.
0620: 23 1D 43 80 23 1D 44 80  23 1D 45 80 23 1D 46 80  #.C.#.D.#.E.#.F.
0630: 23 1D 47 80 23 1D 48 80  23 1D 49 80 23 1D 4A 80  #.G.#.H.#.I.#.J.
0640: 23 1D 4B 80 23 1D 3B 80  23 01 4D 00 01 5E 06 02  #.K.#.;.#.M..^..
0650: 00 10 0B 80 00 5E 06 1D  4C 80 23 01 5E 06 21 00  .....^..L.#.^.!.
0660: 40 02 80 0B 80 01 10 0A  80 40 3E 80 3F 80 01 10  @........@>.?...
0670: 00 10 43 00 43 01 40 02  80 0B 80 01 10 02 80 03  ..C.C.@.........
0680: 00 00 02 80 02 06 10 02  80 80 CF 06 93 1F 17 1D  ................
0690: 4D 80 23 93 02 80 24 4E  80 05 80 02 80 25 02 00  M.#...$N.....%..
06A0: 10 02 80 00 B3 06 42 40  02 80 0B 80 01 10 0A 80  ......B@........
06B0: 01 CC 06 02 00 10 05 80  00 CC 06 03 01 10 02 80  ................
06C0: 1D 3B 80 23 03 00 00 05  80 01 CC 06 01 65 07 02  .;.#.........e..
06D0: 06 10 05 80 80 1A 07 93  1F 17 1D 4F 80 23 93 02  ...........O.#..
06E0: 80 24 4E 80 05 80 02 80  25 02 00 10 02 80 00 FE  .$N.....%.......
06F0: 06 42 40 02 80 0B 80 01  10 0A 80 01 17 07 02 00  .B@.............
0700: 10 05 80 00 17 07 03 01  10 02 80 1D 3B 80 23 03  ............;.#.
0710: 00 00 05 80 01 17 07 01  65 07 02 06 10 0A 80 80  ........e.......
0720: 65 07 93 1F 17 1D 50 80  23 93 02 80 24 41 80 05  e.....P.#...$A..
0730: 80 02 80 25 02 00 10 02  80 00 49 07 42 40 02 80  ...%......I.B@..
0740: 0B 80 01 10 0A 80 01 62  07 02 00 10 05 80 00 62  .......b.......b
0750: 07 03 01 10 02 80 1D 3B  80 23 03 00 00 05 80 01  .......;.#......
0760: 62 07 01 65 07 1B                                 b..e..          
```

#### Opcodes

```
  0: 0x0010 [0x03] Work_Zone[1] = 0*
  1: 0x0015 [0x1E] EventEntity looks at LocalPlayer and starts talking
  2: 0x001A [0x1D] PRINT_EVENT_MESSAGE(message_id=5674*)
    → "This is the reception counter for Assault missions in Leujaoam Sanctum."
  3: 0x001D [0x23] WAIT_FOR_DIALOG_INTERACTION
  4: 0x001E [0x1D] PRINT_EVENT_MESSAGE(message_id=5680*)
    → "How may I help you today?"
  5: 0x0021 [0x23] WAIT_FOR_DIALOG_INTERACTION
  6: 0x0022 [0x03] ExtData[1]->WorkLocal[2] = Work_Zone[6]
  7: 0x0027 [0x3E] IF !(ExtData[1]->WorkLocal[2] bit 0*) GOTO 0x003F
  8: 0x002E [0x3D] CLEAR_BIT_FLAG_CONDITIONAL(target_work_offset=ExtData[1]->WorkLocal[3], bit_index_work_offset=12*, condition_work_offset=1*)
  9: 0x0035 [0x3D] CLEAR_BIT_FLAG_CONDITIONAL(target_work_offset=ExtData[1]->WorkLocal[3], bit_index_work_offset=13*, condition_work_offset=1*)
 10: 0x003C [0x01] GOTO 0x004D
 11: 0x003F [0x3C] SET_BIT_FLAG_CONDITIONAL(target_work_offset=ExtData[1]->WorkLocal[3], bit_index_work_offset=12*, condition_work_offset=1*)
 12: 0x0046 [0x3C] SET_BIT_FLAG_CONDITIONAL(target_work_offset=ExtData[1]->WorkLocal[3], bit_index_work_offset=13*, condition_work_offset=1*)

SUBROUTINE_004D:
 13: 0x004D [0x24] CREATE_DIALOG(message_id=5681*, default_option=0*, option_flags=0*)
    → "How may I help you? [View mission list./Spend Assault Points./Mission list explanation./I'm fine, thanks.]"
 14: 0x0054 [0x25] WAIT_DIALOG_SELECT()
 15: 0x0055 [0x02] IF !(Work_Zone[0] == 0*) GOTO 0x01FB
 16: 0x005D [0x1D] PRINT_EVENT_MESSAGE(message_id=5682*)
    → "Here is the list of available Assault missions."
 17: 0x0060 [0x23] WAIT_FOR_DIALOG_INTERACTION
 18: 0x0061 [0x03] ExtData[1]->WorkLocal[1] = 4294967295*
 19: 0x0066 [0x03] ExtData[1]->WorkLocal[0] = Work_Zone[2]

SUBROUTINE_006B:
 20: 0x006B [0x02] IF !(ExtData[1]->WorkLocal[0] <= 0*) GOTO 0x0080
 21: 0x0073 [0x0C] ExtData[1]->WorkLocal[0]--
 22: 0x0076 [0x3D] CLEAR_BIT_FLAG_CONDITIONAL(target_work_offset=ExtData[1]->WorkLocal[1], bit_index_work_offset=ExtData[1]->WorkLocal[0], condition_work_offset=1*)
 23: 0x007D [0x01] GOTO 0x006B

SUBROUTINE_0080:
 24: 0x0080 [0x03] Work_Zone_1700[2] = 1*
 25: 0x0085 [0x03] Work_Zone_1700[3] = 2*
 26: 0x008A [0x03] Work_Zone_1700[4] = 3*
 27: 0x008F [0x03] Work_Zone_1700[5] = 4*
 28: 0x0094 [0x03] Work_Zone_1700[6] = 5*
 29: 0x0099 [0x03] Work_Zone_1700[7] = 6*
 30: 0x009E [0x03] Work_Zone_1700[8] = 7*
 31: 0x00A3 [0x03] Work_Zone_1700[9] = 8*
 32: 0x00A8 [0x03] Work_Zone_1700[10] = 9*
 33: 0x00AD [0x03] Work_Zone_1700[11] = 10*
 34: 0x00B2 [0x24] CREATE_DIALOG(message_id=5683*, default_option=0*, option_flags=ExtData[1]->WorkLocal[1])
    → "View a mission. [$10./$11./$12./$13./$14./$15./$16./$17./$18./$19.]"
 35: 0x00B9 [0x25] WAIT_DIALOG_SELECT()
 36: 0x00BA [0x02] IF !(Work_Zone[0] == 0*) GOTO 0x00CE
 37: 0x00C2 [0x48] [System] [5684*]:
    → "Leujaoam Cleansing Objective: Remove all threats Recruitment: Lv.50, 1-6 mercenaries"
 38: 0x00C5 [0x23] WAIT_FOR_DIALOG_INTERACTION
 39: 0x00C6 [0x03] Work_Zone_1700[1] = Work_Zone_1700[2]
 40: 0x00CB [0x01] GOTO 0x0182
 41: 0x00CE [0x02] IF !(Work_Zone[0] == 1*) GOTO 0x00E2
 42: 0x00D6 [0x48] [System] [5685*]:
    → "Orichalcum Survey Objective: Discover orichalcum ore Recruitment: Lv.50, 1-6 mercenaries"
 43: 0x00D9 [0x23] WAIT_FOR_DIALOG_INTERACTION
 44: 0x00DA [0x03] Work_Zone_1700[1] = Work_Zone_1700[3]
 45: 0x00DF [0x01] GOTO 0x0182
 46: 0x00E2 [0x02] IF !(Work_Zone[0] == 2*) GOTO 0x00F6
 47: 0x00EA [0x48] [System] [5686*]:
    → "Escort Professor Chanoix Objective: Protect the professor Recruitment: Lv.60, 1-6 mercenaries"
 48: 0x00ED [0x23] WAIT_FOR_DIALOG_INTERACTION
 49: 0x00EE [0x03] Work_Zone_1700[1] = Work_Zone_1700[4]
 50: 0x00F3 [0x01] GOTO 0x0182
 51: 0x00F6 [0x02] IF !(Work_Zone[0] == 3*) GOTO 0x010A
 52: 0x00FE [0x48] [System] [5687*]:
    → "Shanarha Grass Conservation Objective: Protect the vegetation Recruitment: Lv.50, 1-6 mercenaries"
 53: 0x0101 [0x23] WAIT_FOR_DIALOG_INTERACTION
 54: 0x0102 [0x03] Work_Zone_1700[1] = Work_Zone_1700[5]
 55: 0x0107 [0x01] GOTO 0x0182
 56: 0x010A [0x02] IF !(Work_Zone[0] == 4*) GOTO 0x011E
 57: 0x0112 [0x48] [System] [5688*]:
    → "Counting Sheep Objective: Buy black sheep Recruitment: Lv.60, 1-6 mercenaries"
 58: 0x0115 [0x23] WAIT_FOR_DIALOG_INTERACTION
 59: 0x0116 [0x03] Work_Zone_1700[1] = Work_Zone_1700[6]
 60: 0x011B [0x01] GOTO 0x0182
 61: 0x011E [0x02] IF !(Work_Zone[0] == 5*) GOTO 0x0132
 62: 0x0126 [0x48] [System] [5689*]:
    → "Supplies Recovery Objective: Retrieve the supplies Recruitment: Lv.70, 1-6 mercenaries"
 63: 0x0129 [0x23] WAIT_FOR_DIALOG_INTERACTION
 64: 0x012A [0x03] Work_Zone_1700[1] = Work_Zone_1700[7]
 65: 0x012F [0x01] GOTO 0x0182
 66: 0x0132 [0x02] IF !(Work_Zone[0] == 6*) GOTO 0x0146
 67: 0x013A [0x48] [System] [5690*]:
    → "Azure Experiments Objective: Become a test subject Recruitment: Lv.70, 1-6 mercenaries"
 68: 0x013D [0x23] WAIT_FOR_DIALOG_INTERACTION
 69: 0x013E [0x03] Work_Zone_1700[1] = Work_Zone_1700[8]
 70: 0x0143 [0x01] GOTO 0x0182
 71: 0x0146 [0x02] IF !(Work_Zone[0] == 7*) GOTO 0x015A
 72: 0x014E [0x48] [System] [5691*]:
    → "Imperial Code Objective: Retrieve the OGMA Recruitment: Lv.70, 1-6 mercenaries"
 73: 0x0151 [0x23] WAIT_FOR_DIALOG_INTERACTION
 74: 0x0152 [0x03] Work_Zone_1700[1] = Work_Zone_1700[9]
 75: 0x0157 [0x01] GOTO 0x0182
 76: 0x015A [0x02] IF !(Work_Zone[0] == 8*) GOTO 0x016E
 77: 0x0162 [0x48] [System] [5692*]:
    → "Red Versus Blue Objective: Defeat Raubahn Recruitment: Lv.70, 1-6 mercenaries"
 78: 0x0165 [0x23] WAIT_FOR_DIALOG_INTERACTION
 79: 0x0166 [0x03] Work_Zone_1700[1] = Work_Zone_1700[10]
 80: 0x016B [0x01] GOTO 0x0182
 81: 0x016E [0x02] IF !(Work_Zone[0] == 9*) GOTO 0x0182
 82: 0x0176 [0x48] [System] [5693*]:
    → "Bloody Rondo Objective: Defeat the count Recruitment: Lv.70, 1-6 mercenaries"
 83: 0x0179 [0x23] WAIT_FOR_DIALOG_INTERACTION
 84: 0x017A [0x03] Work_Zone_1700[1] = Work_Zone_1700[11]
 85: 0x017F [0x01] GOTO 0x0182

SUBROUTINE_0182:
 86: 0x0182 [0x03] ExtData[1]->WorkLocal[0] = Work_Zone[0]
 87: 0x0187 [0x0B] ExtData[1]->WorkLocal[0]++
 88: 0x018A [0x24] CREATE_DIALOG(message_id=5745*, default_option=1*, option_flags=0*)
    → "Sign up for this mission? [Yes./Return to list.]"
 89: 0x0191 [0x25] WAIT_DIALOG_SELECT()
 90: 0x0192 [0x02] IF !(Work_Zone[0] == 0*) GOTO 0x01EA
 91: 0x019A [0x02] IF !(Work_Zone[5] == 0*) GOTO 0x01A9
 92: 0x01A2 [0x1D] PRINT_EVENT_MESSAGE(message_id=5748*)
    → "I'm sorry, but you cannot sign up for a new Assault mission until you have completed your current mission, or canceled your Assault application at the main counter."
 93: 0x01A5 [0x23] WAIT_FOR_DIALOG_INTERACTION
 94: 0x01A6 [0x01] GOTO 0x01E7
 95: 0x01A9 [0x02] IF !(Work_Zone[3] == 0*) GOTO 0x01BD
 96: 0x01B1 [0x03] Work_Zone_1700[0] = 787*
 97: 0x01B6 [0x1D] PRINT_EVENT_MESSAGE(message_id=5746*)
    → "I'm sorry, but you cannot sign up for Assault missions without $6."
 98: 0x01B9 [0x23] WAIT_FOR_DIALOG_INTERACTION
 99: 0x01BA [0x01] GOTO 0x01E7
100: 0x01BD [0x02] IF !(LocalPlayer->JobLevel >= 50*) GOTO 0x01CC
101: 0x01C5 [0x1D] PRINT_EVENT_MESSAGE(message_id=5747*)
    → "I'm sorry, but only mercenaries of level 50 or above can sign up for Assault missions."
102: 0x01C8 [0x23] WAIT_FOR_DIALOG_INTERACTION
103: 0x01C9 [0x01] GOTO 0x01E7
104: 0x01CC [0x42] SET_CLI_EVENT_CANCEL_DATA()
105: 0x01CD [0x1D] PRINT_EVENT_MESSAGE(message_id=5749*)
    → "You have signed up for $9."
106: 0x01D0 [0x23] WAIT_FOR_DIALOG_INTERACTION
107: 0x01D1 [0x1D] PRINT_EVENT_MESSAGE(message_id=5750*)
    → "Please make your way to the staging point and have a member of your party receive command verification from an Immortal. Good luck."
108: 0x01D4 [0x23] WAIT_FOR_DIALOG_INTERACTION
109: 0x01D5 [0x40] SET_BIT_WORK_RANGE(start_bit=0*, end_bit=3*, target=Work_Zone[1], source=1*)
110: 0x01DE [0x40] SET_BIT_WORK_RANGE(start_bit=4*, end_bit=13*, target=Work_Zone[1], source=Work_Zone_1700[1])

SUBROUTINE_01E7:
111: 0x01E7 [0x01] GOTO 0x01F8
112: 0x01EA [0x02] IF !(Work_Zone[0] == 1*) GOTO 0x01F8
113: 0x01F2 [0x01] GOTO 0x0080

SUBROUTINE_01F8:
114: 0x01F8 [0x01] GOTO 0x065E
115: 0x01FB [0x02] IF !(Work_Zone[0] == 1*) GOTO 0x0615
116: 0x0203 [0x1D] PRINT_EVENT_MESSAGE(message_id=5751*)
    → "You have a total of $2 [Assault point/Assault points] for this area. Which item do you wish to purchase?"
117: 0x0206 [0x23] WAIT_FOR_DIALOG_INTERACTION
118: 0x0207 [0x03] Work_Zone_1700[1] = 15970*
119: 0x020C [0x03] Work_Zone_1700[2] = 15775*
120: 0x0211 [0x03] Work_Zone_1700[3] = 15521*
121: 0x0216 [0x03] Work_Zone_1700[4] = 15884*
122: 0x021B [0x03] Work_Zone_1700[5] = 15490*
123: 0x0220 [0x03] Work_Zone_1700[7] = 18408*
124: 0x0225 [0x03] Work_Zone_1700[8] = 18485*
125: 0x022A [0x03] Work_Zone_1700[9] = 18365*
126: 0x022F [0x03] Work_Zone_1700[10] = 14933*
127: 0x0234 [0x03] Work_Zone_1700[11] = 16069*
128: 0x0239 [0x03] Work_Zone_1700[12] = 15606*
129: 0x023E [0x03] Work_Zone_1700[14] = 3000*
130: 0x0243 [0x03] Work_Zone_1700[15] = 5000*
131: 0x0248 [0x03] Work_Zone_1700[16] = 8000*
132: 0x024D [0x03] Work_Zone_1700[17] = 10000*
133: 0x0252 [0x03] Work_Zone_1700[18] = 15000*
134: 0x0257 [0x03] Work_Zone_1700[19] = 20000*
135: 0x025C [0x03] Work_Zone_1700[13] = 10121*
136: 0x0261 [0x03] Work_Zone_1700[20] = 3000*
137: 0x0266 [0x03] Work_Zone_1700[6] = 10122*
138: 0x026B [0x03] Work_Zone_1700[21] = 3000*
139: 0x0270 [0x24] CREATE_DIALOG(message_id=5752*, default_option=0*, option_flags=ExtData[1]->WorkLocal[3])
    → "Which item do you wish to purchase? [None./$9...$22 [pt./pts.]/$10...$23 [pt./pts.]/$11...$24 [pt./pts.]/$12...$25 [pt./pts.]/$13...$25 [pt./pts.]/$15...$26 [pt./pts.]/$16...$26 [pt./pts.]/$17...$26 [pt./pts.]/$18...$27 [pt./pts.]/$19...$27 [pt./pts.]/$20...$27 [pt./pts.]/$21...$28 [pt./pts.]/$14...$29 [pt./pts.]]"
140: 0x0277 [0x25] WAIT_DIALOG_SELECT()
141: 0x0278 [0x02] IF !(Work_Zone[0] == 0*) GOTO 0x028A
142: 0x0280 [0x1D] PRINT_EVENT_MESSAGE(message_id=5771*)
    → "Is there anything else I can help you with?"
143: 0x0283 [0x23] WAIT_FOR_DIALOG_INTERACTION
144: 0x0284 [0x01] GOTO 0x004D

SUBROUTINE_02C1:
145: 0x02C1 [0x01] GOTO 0x0612
146: 0x02C4 [0x02] IF !(Work_Zone[0] == 2*) GOTO 0x02FE
147: 0x02CC [0x03] Work_Zone_1700[31] = 15775*
148: 0x02D1 [0x02] IF !(Work_Zone_1700[15] <= Work_Zone[4]) GOTO 0x02ED
149: 0x02D9 [0x93] DISPLAY_ITEM_INFO(item_id=Work_Zone_1700[31])
150: 0x02DC [0x1D] PRINT_EVENT_MESSAGE(message_id=5759*)
    → "You do not have enough Assault points to purchase the $39."
151: 0x02DF [0x23] WAIT_FOR_DIALOG_INTERACTION
152: 0x02E0 [0x93] DISPLAY_ITEM_INFO(item_id=0*)
153: 0x02E3 [0x1D] PRINT_EVENT_MESSAGE(message_id=5771*)
    → "Is there anything else I can help you with?"
154: 0x02E6 [0x23] WAIT_FOR_DIALOG_INTERACTION
155: 0x02E7 [0x01] GOTO 0x004D

SUBROUTINE_02FB:
156: 0x02FB [0x01] GOTO 0x0612
157: 0x02FE [0x02] IF !(Work_Zone[0] == 3*) GOTO 0x0338
158: 0x0306 [0x03] Work_Zone_1700[31] = 15521*
159: 0x030B [0x02] IF !(Work_Zone_1700[16] <= Work_Zone[4]) GOTO 0x0327
160: 0x0313 [0x93] DISPLAY_ITEM_INFO(item_id=Work_Zone_1700[31])
161: 0x0316 [0x1D] PRINT_EVENT_MESSAGE(message_id=5759*)
    → "You do not have enough Assault points to purchase the $39."
162: 0x0319 [0x23] WAIT_FOR_DIALOG_INTERACTION
163: 0x031A [0x93] DISPLAY_ITEM_INFO(item_id=0*)
164: 0x031D [0x1D] PRINT_EVENT_MESSAGE(message_id=5771*)
    → "Is there anything else I can help you with?"
165: 0x0320 [0x23] WAIT_FOR_DIALOG_INTERACTION
166: 0x0321 [0x01] GOTO 0x004D

SUBROUTINE_0335:
167: 0x0335 [0x01] GOTO 0x0612
168: 0x0338 [0x02] IF !(Work_Zone[0] == 4*) GOTO 0x0372
169: 0x0340 [0x03] Work_Zone_1700[31] = 15884*
170: 0x0345 [0x02] IF !(Work_Zone_1700[17] <= Work_Zone[4]) GOTO 0x0361
171: 0x034D [0x93] DISPLAY_ITEM_INFO(item_id=Work_Zone_1700[31])
172: 0x0350 [0x1D] PRINT_EVENT_MESSAGE(message_id=5759*)
    → "You do not have enough Assault points to purchase the $39."
173: 0x0353 [0x23] WAIT_FOR_DIALOG_INTERACTION
174: 0x0354 [0x93] DISPLAY_ITEM_INFO(item_id=0*)
175: 0x0357 [0x1D] PRINT_EVENT_MESSAGE(message_id=5771*)
    → "Is there anything else I can help you with?"
176: 0x035A [0x23] WAIT_FOR_DIALOG_INTERACTION
177: 0x035B [0x01] GOTO 0x004D

SUBROUTINE_036F:
178: 0x036F [0x01] GOTO 0x0612
179: 0x0372 [0x02] IF !(Work_Zone[0] == 5*) GOTO 0x03AC
180: 0x037A [0x03] Work_Zone_1700[31] = 15490*
181: 0x037F [0x02] IF !(Work_Zone_1700[17] <= Work_Zone[4]) GOTO 0x039B
182: 0x0387 [0x93] DISPLAY_ITEM_INFO(item_id=Work_Zone_1700[31])
183: 0x038A [0x1D] PRINT_EVENT_MESSAGE(message_id=5759*)
    → "You do not have enough Assault points to purchase the $39."
184: 0x038D [0x23] WAIT_FOR_DIALOG_INTERACTION
185: 0x038E [0x93] DISPLAY_ITEM_INFO(item_id=0*)
186: 0x0391 [0x1D] PRINT_EVENT_MESSAGE(message_id=5771*)
    → "Is there anything else I can help you with?"
187: 0x0394 [0x23] WAIT_FOR_DIALOG_INTERACTION
188: 0x0395 [0x01] GOTO 0x004D

SUBROUTINE_03A9:
189: 0x03A9 [0x01] GOTO 0x0612
190: 0x03AC [0x02] IF !(Work_Zone[0] == 6*) GOTO 0x03E6
191: 0x03B4 [0x03] Work_Zone_1700[31] = 18408*
192: 0x03B9 [0x02] IF !(Work_Zone_1700[18] <= Work_Zone[4]) GOTO 0x03D5
193: 0x03C1 [0x93] DISPLAY_ITEM_INFO(item_id=Work_Zone_1700[31])
194: 0x03C4 [0x1D] PRINT_EVENT_MESSAGE(message_id=5759*)
    → "You do not have enough Assault points to purchase the $39."
195: 0x03C7 [0x23] WAIT_FOR_DIALOG_INTERACTION
196: 0x03C8 [0x93] DISPLAY_ITEM_INFO(item_id=0*)
197: 0x03CB [0x1D] PRINT_EVENT_MESSAGE(message_id=5771*)
    → "Is there anything else I can help you with?"
198: 0x03CE [0x23] WAIT_FOR_DIALOG_INTERACTION
199: 0x03CF [0x01] GOTO 0x004D

SUBROUTINE_03E3:
200: 0x03E3 [0x01] GOTO 0x0612
201: 0x03E6 [0x02] IF !(Work_Zone[0] == 7*) GOTO 0x0420
202: 0x03EE [0x03] Work_Zone_1700[31] = 18485*
203: 0x03F3 [0x02] IF !(Work_Zone_1700[18] <= Work_Zone[4]) GOTO 0x040F
204: 0x03FB [0x93] DISPLAY_ITEM_INFO(item_id=Work_Zone_1700[31])
205: 0x03FE [0x1D] PRINT_EVENT_MESSAGE(message_id=5759*)
    → "You do not have enough Assault points to purchase the $39."
206: 0x0401 [0x23] WAIT_FOR_DIALOG_INTERACTION
207: 0x0402 [0x93] DISPLAY_ITEM_INFO(item_id=0*)
208: 0x0405 [0x1D] PRINT_EVENT_MESSAGE(message_id=5771*)
    → "Is there anything else I can help you with?"
209: 0x0408 [0x23] WAIT_FOR_DIALOG_INTERACTION
210: 0x0409 [0x01] GOTO 0x004D

SUBROUTINE_041D:
211: 0x041D [0x01] GOTO 0x0612
212: 0x0420 [0x02] IF !(Work_Zone[0] == 8*) GOTO 0x045A
213: 0x0428 [0x03] Work_Zone_1700[31] = 18365*
214: 0x042D [0x02] IF !(Work_Zone_1700[18] <= Work_Zone[4]) GOTO 0x0449
215: 0x0435 [0x93] DISPLAY_ITEM_INFO(item_id=Work_Zone_1700[31])
216: 0x0438 [0x1D] PRINT_EVENT_MESSAGE(message_id=5759*)
    → "You do not have enough Assault points to purchase the $39."
217: 0x043B [0x23] WAIT_FOR_DIALOG_INTERACTION
218: 0x043C [0x93] DISPLAY_ITEM_INFO(item_id=0*)
219: 0x043F [0x1D] PRINT_EVENT_MESSAGE(message_id=5771*)
    → "Is there anything else I can help you with?"
220: 0x0442 [0x23] WAIT_FOR_DIALOG_INTERACTION
221: 0x0443 [0x01] GOTO 0x004D

SUBROUTINE_0457:
222: 0x0457 [0x01] GOTO 0x0612
223: 0x045A [0x02] IF !(Work_Zone[0] == 9*) GOTO 0x0494
224: 0x0462 [0x03] Work_Zone_1700[31] = 14933*
225: 0x0467 [0x02] IF !(Work_Zone_1700[19] <= Work_Zone[4]) GOTO 0x0483
226: 0x046F [0x93] DISPLAY_ITEM_INFO(item_id=Work_Zone_1700[31])
227: 0x0472 [0x1D] PRINT_EVENT_MESSAGE(message_id=5759*)
    → "You do not have enough Assault points to purchase the $39."
228: 0x0475 [0x23] WAIT_FOR_DIALOG_INTERACTION
229: 0x0476 [0x93] DISPLAY_ITEM_INFO(item_id=0*)
230: 0x0479 [0x1D] PRINT_EVENT_MESSAGE(message_id=5771*)
    → "Is there anything else I can help you with?"
231: 0x047C [0x23] WAIT_FOR_DIALOG_INTERACTION
232: 0x047D [0x01] GOTO 0x004D

SUBROUTINE_0491:
233: 0x0491 [0x01] GOTO 0x0612
234: 0x0494 [0x02] IF !(Work_Zone[0] == 10*) GOTO 0x04CE
235: 0x049C [0x03] Work_Zone_1700[31] = 16069*
236: 0x04A1 [0x02] IF !(Work_Zone_1700[19] <= Work_Zone[4]) GOTO 0x04BD
237: 0x04A9 [0x93] DISPLAY_ITEM_INFO(item_id=Work_Zone_1700[31])
238: 0x04AC [0x1D] PRINT_EVENT_MESSAGE(message_id=5759*)
    → "You do not have enough Assault points to purchase the $39."
239: 0x04AF [0x23] WAIT_FOR_DIALOG_INTERACTION
240: 0x04B0 [0x93] DISPLAY_ITEM_INFO(item_id=0*)
241: 0x04B3 [0x1D] PRINT_EVENT_MESSAGE(message_id=5771*)
    → "Is there anything else I can help you with?"
242: 0x04B6 [0x23] WAIT_FOR_DIALOG_INTERACTION
243: 0x04B7 [0x01] GOTO 0x004D

SUBROUTINE_04CB:
244: 0x04CB [0x01] GOTO 0x0612
245: 0x04CE [0x02] IF !(Work_Zone[0] == 11*) GOTO 0x0508
246: 0x04D6 [0x03] Work_Zone_1700[31] = 15606*
247: 0x04DB [0x02] IF !(Work_Zone_1700[19] <= Work_Zone[4]) GOTO 0x04F7
248: 0x04E3 [0x93] DISPLAY_ITEM_INFO(item_id=Work_Zone_1700[31])
249: 0x04E6 [0x1D] PRINT_EVENT_MESSAGE(message_id=5759*)
    → "You do not have enough Assault points to purchase the $39."
250: 0x04E9 [0x23] WAIT_FOR_DIALOG_INTERACTION
251: 0x04EA [0x93] DISPLAY_ITEM_INFO(item_id=0*)
252: 0x04ED [0x1D] PRINT_EVENT_MESSAGE(message_id=5771*)
    → "Is there anything else I can help you with?"
253: 0x04F0 [0x23] WAIT_FOR_DIALOG_INTERACTION
254: 0x04F1 [0x01] GOTO 0x004D

SUBROUTINE_0505:
255: 0x0505 [0x01] GOTO 0x0612
256: 0x0508 [0x02] IF !(Work_Zone[0] == 12*) GOTO 0x058D
257: 0x0510 [0x03] Work_Zone_1700[31] = 10121*
258: 0x0515 [0x02] IF !(Work_Zone_1700[20] <= Work_Zone[4]) GOTO 0x0531
259: 0x051D [0x93] DISPLAY_ITEM_INFO(item_id=Work_Zone_1700[31])
260: 0x0520 [0x1D] PRINT_EVENT_MESSAGE(message_id=5759*)
    → "You do not have enough Assault points to purchase the $39."
261: 0x0523 [0x23] WAIT_FOR_DIALOG_INTERACTION
262: 0x0524 [0x93] DISPLAY_ITEM_INFO(item_id=0*)
263: 0x0527 [0x1D] PRINT_EVENT_MESSAGE(message_id=5771*)
    → "Is there anything else I can help you with?"
264: 0x052A [0x23] WAIT_FOR_DIALOG_INTERACTION
265: 0x052B [0x01] GOTO 0x004D

SUBROUTINE_057F:
266: 0x057F [0x02] IF !(ExtData[1]->WorkLocal[0] == 0*) GOTO 0x058A
267: 0x0587 [0x01] GOTO 0x004D

SUBROUTINE_058A:
268: 0x058A [0x01] GOTO 0x0612
269: 0x058D [0x02] IF !(Work_Zone[0] == 13*) GOTO 0x0612
270: 0x0595 [0x03] Work_Zone_1700[31] = 10122*
271: 0x059A [0x02] IF !(Work_Zone_1700[21] <= Work_Zone[4]) GOTO 0x05B6
272: 0x05A2 [0x93] DISPLAY_ITEM_INFO(item_id=Work_Zone_1700[31])
273: 0x05A5 [0x1D] PRINT_EVENT_MESSAGE(message_id=5759*)
    → "You do not have enough Assault points to purchase the $39."
274: 0x05A8 [0x23] WAIT_FOR_DIALOG_INTERACTION
275: 0x05A9 [0x93] DISPLAY_ITEM_INFO(item_id=0*)
276: 0x05AC [0x1D] PRINT_EVENT_MESSAGE(message_id=5771*)
    → "Is there anything else I can help you with?"
277: 0x05AF [0x23] WAIT_FOR_DIALOG_INTERACTION
278: 0x05B0 [0x01] GOTO 0x004D

SUBROUTINE_0604:
279: 0x0604 [0x02] IF !(ExtData[1]->WorkLocal[0] == 0*) GOTO 0x060F
280: 0x060C [0x01] GOTO 0x004D

SUBROUTINE_060F:
281: 0x060F [0x01] GOTO 0x0612

SUBROUTINE_0612:
282: 0x0612 [0x01] GOTO 0x065E
283: 0x0615 [0x02] IF !(Work_Zone[0] == 2*) GOTO 0x064F
284: 0x061D [0x1D] PRINT_EVENT_MESSAGE(message_id=5761*)
    → "Allow me to explain the mission list notations."
285: 0x0620 [0x23] WAIT_FOR_DIALOG_INTERACTION
286: 0x0621 [0x1D] PRINT_EVENT_MESSAGE(message_id=5762*)
    → "Selecting "View mission list" will display a list of mission titles."
287: 0x0624 [0x23] WAIT_FOR_DIALOG_INTERACTION
288: 0x0625 [0x1D] PRINT_EVENT_MESSAGE(message_id=5763*)
    → "Once a mission has been selected, you will see the following notations under the mission title: "Objective" and "Recruitment.""
289: 0x0628 [0x23] WAIT_FOR_DIALOG_INTERACTION
290: 0x0629 [0x1D] PRINT_EVENT_MESSAGE(message_id=5764*)
    → ""Objective" refers to the condition that must be fulfilled in order for the mission to succeed."
291: 0x062C [0x23] WAIT_FOR_DIALOG_INTERACTION
292: 0x062D [0x1D] PRINT_EVENT_MESSAGE(message_id=5765*)
    → "After completing a mission objective, a "Rune of Release" will appear within the area. Activating the Rune of Release will signify the successful completion of the mission."
293: 0x0630 [0x23] WAIT_FOR_DIALOG_INTERACTION
294: 0x0631 [0x1D] PRINT_EVENT_MESSAGE(message_id=5766*)
    → ""Recruitment" refers to the level and number of mercenaries being recruited for the mission. The level displayed is a suggestion only, and any mission can be undertaken by a mercenary of level 50 or above."
295: 0x0634 [0x23] WAIT_FOR_DIALOG_INTERACTION
296: 0x0635 [0x1D] PRINT_EVENT_MESSAGE(message_id=5767*)
    → "However, signing up for a mission of a level lower than your own will earn less Assault points from the Empire."
297: 0x0638 [0x23] WAIT_FOR_DIALOG_INTERACTION
298: 0x0639 [0x1D] PRINT_EVENT_MESSAGE(message_id=5768*)
    → "The number range displayed represents the minimum and maximum number of mercenaries allowed for the mission."
299: 0x063C [0x23] WAIT_FOR_DIALOG_INTERACTION
300: 0x063D [0x1D] PRINT_EVENT_MESSAGE(message_id=5769*)
    → "You must meet the minimum number requirement in order to begin an Assault mission."
301: 0x0640 [0x23] WAIT_FOR_DIALOG_INTERACTION
302: 0x0641 [0x1D] PRINT_EVENT_MESSAGE(message_id=5770*)
    → "This concludes the explanation of mission list notations."
303: 0x0644 [0x23] WAIT_FOR_DIALOG_INTERACTION
304: 0x0645 [0x1D] PRINT_EVENT_MESSAGE(message_id=5771*)
    → "Is there anything else I can help you with?"
305: 0x0648 [0x23] WAIT_FOR_DIALOG_INTERACTION
306: 0x0649 [0x01] GOTO 0x004D

SUBROUTINE_065E:
307: 0x065E [0x21] END_EVENT
308: 0x065F [0x00] END_REQSTACK()

SUBROUTINE_0660:
309: 0x0660 [0x40] SET_BIT_WORK_RANGE(start_bit=0*, end_bit=3*, target=Work_Zone[1], source=2*)
310: 0x0669 [0x40] SET_BIT_WORK_RANGE(start_bit=14*, end_bit=17*, target=Work_Zone[1], source=Work_Zone[0])
311: 0x0672 [0x43] SEND_EVENT_UPDATE: Send pending tag to server (packet 0x005B)
312: 0x0674 [0x43] SEND_EVENT_UPDATE: Check pending flag (skip if not pending)
313: 0x0676 [0x40] SET_BIT_WORK_RANGE(start_bit=0*, end_bit=3*, target=Work_Zone[1], source=0*)
314: 0x067F [0x03] ExtData[1]->WorkLocal[0] = 0*
315: 0x0684 [0x02] IF !(Work_Zone[6] == 0*) GOTO 0x06CF
316: 0x068C [0x93] DISPLAY_ITEM_INFO(item_id=Work_Zone_1700[31])
317: 0x068F [0x1D] PRINT_EVENT_MESSAGE(message_id=5753*)
    → "You cannot equip the $39. Do you still wish to proceed?"
318: 0x0692 [0x23] WAIT_FOR_DIALOG_INTERACTION
319: 0x0693 [0x93] DISPLAY_ITEM_INFO(item_id=0*)
320: 0x0696 [0x24] CREATE_DIALOG(message_id=5758*, default_option=1*, option_flags=0*)
    → "Proceed? [Yes, even though I can't equip it./Cancel purchase.]"
321: 0x069D [0x25] WAIT_DIALOG_SELECT()
322: 0x069E [0x02] IF !(Work_Zone[0] == 0*) GOTO 0x06B3
323: 0x06A6 [0x42] SET_CLI_EVENT_CANCEL_DATA()
324: 0x06A7 [0x40] SET_BIT_WORK_RANGE(start_bit=0*, end_bit=3*, target=Work_Zone[1], source=2*)
325: 0x06B0 [0x01] GOTO 0x06CC
326: 0x06B3 [0x02] IF !(Work_Zone[0] == 1*) GOTO 0x06CC
327: 0x06BB [0x03] Work_Zone[1] = 0*
328: 0x06C0 [0x1D] PRINT_EVENT_MESSAGE(message_id=5771*)
    → "Is there anything else I can help you with?"
329: 0x06C3 [0x23] WAIT_FOR_DIALOG_INTERACTION
330: 0x06C4 [0x03] ExtData[1]->WorkLocal[0] = 1*
331: 0x06C9 [0x01] GOTO 0x06CC

SUBROUTINE_06CC:
332: 0x06CC [0x01] GOTO 0x0765
333: 0x06CF [0x02] IF !(Work_Zone[6] == 1*) GOTO 0x071A
334: 0x06D7 [0x93] DISPLAY_ITEM_INFO(item_id=Work_Zone_1700[31])
335: 0x06DA [0x1D] PRINT_EVENT_MESSAGE(message_id=5754*)
    → "Your level is too low to equip the $39. Do you still wish to proceed?"
336: 0x06DD [0x23] WAIT_FOR_DIALOG_INTERACTION
337: 0x06DE [0x93] DISPLAY_ITEM_INFO(item_id=0*)
338: 0x06E1 [0x24] CREATE_DIALOG(message_id=5758*, default_option=1*, option_flags=0*)
    → "Proceed? [Yes, even though I can't equip it./Cancel purchase.]"
339: 0x06E8 [0x25] WAIT_DIALOG_SELECT()
340: 0x06E9 [0x02] IF !(Work_Zone[0] == 0*) GOTO 0x06FE
341: 0x06F1 [0x42] SET_CLI_EVENT_CANCEL_DATA()
342: 0x06F2 [0x40] SET_BIT_WORK_RANGE(start_bit=0*, end_bit=3*, target=Work_Zone[1], source=2*)
343: 0x06FB [0x01] GOTO 0x0717
344: 0x06FE [0x02] IF !(Work_Zone[0] == 1*) GOTO 0x0717
345: 0x0706 [0x03] Work_Zone[1] = 0*
346: 0x070B [0x1D] PRINT_EVENT_MESSAGE(message_id=5771*)
    → "Is there anything else I can help you with?"
347: 0x070E [0x23] WAIT_FOR_DIALOG_INTERACTION
348: 0x070F [0x03] ExtData[1]->WorkLocal[0] = 1*
349: 0x0714 [0x01] GOTO 0x0717

SUBROUTINE_0717:
350: 0x0717 [0x01] GOTO 0x0765
351: 0x071A [0x02] IF !(Work_Zone[6] == 2*) GOTO 0x0765
352: 0x0722 [0x93] DISPLAY_ITEM_INFO(item_id=Work_Zone_1700[31])
353: 0x0725 [0x1D] PRINT_EVENT_MESSAGE(message_id=5755*)
    → "You seem to be able to equip the $39. Do you wish to proceed?"
354: 0x0728 [0x23] WAIT_FOR_DIALOG_INTERACTION
355: 0x0729 [0x93] DISPLAY_ITEM_INFO(item_id=0*)
356: 0x072C [0x24] CREATE_DIALOG(message_id=5757*, default_option=1*, option_flags=0*)
    → "Proceed? [Yes, purchase item./Cancel purchase.]"
357: 0x0733 [0x25] WAIT_DIALOG_SELECT()
358: 0x0734 [0x02] IF !(Work_Zone[0] == 0*) GOTO 0x0749
359: 0x073C [0x42] SET_CLI_EVENT_CANCEL_DATA()
360: 0x073D [0x40] SET_BIT_WORK_RANGE(start_bit=0*, end_bit=3*, target=Work_Zone[1], source=2*)
361: 0x0746 [0x01] GOTO 0x0762
362: 0x0749 [0x02] IF !(Work_Zone[0] == 1*) GOTO 0x0762
363: 0x0751 [0x03] Work_Zone[1] = 0*
364: 0x0756 [0x1D] PRINT_EVENT_MESSAGE(message_id=5771*)
    → "Is there anything else I can help you with?"
365: 0x0759 [0x23] WAIT_FOR_DIALOG_INTERACTION
366: 0x075A [0x03] ExtData[1]->WorkLocal[0] = 1*
367: 0x075F [0x01] GOTO 0x0762

SUBROUTINE_0762:
368: 0x0762 [0x01] GOTO 0x0765

SUBROUTINE_0765:
369: 0x0765 [0x1B] RETURN
```

#### Data or dead code:

```
# Dead code (unreachable instructions):
     0x01F5 [0x01] GOTO 0x01F8
# Dead code (unreachable instructions):
     0x0287 [0x01] GOTO 0x0612
     0x02B0 [0x01] GOTO 0x02C1
# Dead code (unreachable instructions):
     0x02EA [0x01] GOTO 0x02FB
# Dead code (unreachable instructions):
     0x0324 [0x01] GOTO 0x0335
# Dead code (unreachable instructions):
     0x035E [0x01] GOTO 0x036F
# Dead code (unreachable instructions):
     0x0398 [0x01] GOTO 0x03A9
# Dead code (unreachable instructions):
     0x03D2 [0x01] GOTO 0x03E3
# Dead code (unreachable instructions):
     0x040C [0x01] GOTO 0x041D
# Dead code (unreachable instructions):
     0x0446 [0x01] GOTO 0x0457
# Dead code (unreachable instructions):
     0x0480 [0x01] GOTO 0x0491
# Dead code (unreachable instructions):
     0x04BA [0x01] GOTO 0x04CB
# Dead code (unreachable instructions):
     0x04F4 [0x01] GOTO 0x0505
# Dead code (unreachable instructions):
     0x052E [0x01] GOTO 0x058A
# Dead code (unreachable instructions):
     0x05B3 [0x01] GOTO 0x060F
# Dead code (unreachable instructions):
     0x064C [0x01] GOTO 0x065E
```

### Event 269

#### Metadata

| Field        | Value   |
|--------------|---------|
| Entrypoint   | 0x0766  |
| Data Size    | 1 bytes |
| Instructions | 1       |

```
      00 01 02 03 04 05 06 07  08 09 0A 0B 0C 0D 0E 0F
      -- -- -- -- -- -- -- --  -- -- -- -- -- -- -- --
0760:                   00                                    .         
```

#### Opcodes

```
  0: 0x0766 [0x00] END_REQSTACK()
```

### Event 65535.1

#### Metadata

| Field        | Value    |
|--------------|----------|
| Entrypoint   | 0x0767   |
| Data Size    | 73 bytes |
| Instructions | 9        |

```
      00 01 02 03 04 05 06 07  08 09 0A 0B 0C 0D 0E 0F
      -- -- -- -- -- -- -- --  -- -- -- -- -- -- -- --
0760:                      66  3D 80 9E 20 03 01 9E 20         f=.. ... 
0770: 03 01 6B 61 73 30 1C 51  80 66 52 80 9F 20 03 01  ..kas0.Q.fR.. ..
0780: 9F 20 03 01 74 68 6B 31  1C 53 80 66 52 80 9F 20  . ..thk1.S.fR.. 
0790: 03 01 9F 20 03 01 74 68  6B 32 1C 54 80 66 0B 80  ... ..thk2.T.f..
07A0: A0 20 03 01 A0 20 03 01  70 6F 69 30 1C 53 80 00  . ... ..poi0.S..
```

#### Opcodes

```
  0: 0x0767 [0x66] LOAD_EXT_SCHEDULER_MAIN: Load scheduler "kas0" with entities [Yahsra (ID: 16982174/0x0103209E), Yahsra (ID: 16982174/0x0103209E)], work=11*
  1: 0x0776 [0x1C] WAIT(200* ticks)
  2: 0x0779 [0x66] LOAD_EXT_SCHEDULER_MAIN: Load scheduler "thk1" with entities [Isdebaaq (ID: 16982175/0x0103209F), Isdebaaq (ID: 16982175/0x0103209F)], work=20*
  3: 0x0788 [0x1C] WAIT(120* ticks)
  4: 0x078B [0x66] LOAD_EXT_SCHEDULER_MAIN: Load scheduler "thk2" with entities [Isdebaaq (ID: 16982175/0x0103209F), Isdebaaq (ID: 16982175/0x0103209F)], work=20*
  5: 0x079A [0x1C] WAIT(240* ticks)
  6: 0x079D [0x66] LOAD_EXT_SCHEDULER_MAIN: Load scheduler "poi0" with entities [Famad (ID: 16982176/0x010320A0), Famad (ID: 16982176/0x010320A0)], work=3*
  7: 0x07AC [0x1C] WAIT(120* ticks)
  8: 0x07AF [0x00] END_REQSTACK()
```
