# 16982262 - Tinga-Matonga

## Common Data

| Field            | Value                         |
|------------------|-------------------------------|
| Zone             | Aht Urhgan Whitegate (ID: 50) |
| Block Size       | 748 bytes                     |
| Total Events     | 26                            |
| References Count | 66                            |

## List of Events

| Event ID                    | Entrypoint   |   Size |   Instructions |
|-----------------------------|--------------|--------|----------------|
| [65535](#event-65535)       | 0x0000       |      1 |              1 |
| [1](#event-1)               | 0x0001       |     13 |              3 |
| [2](#event-2)               | 0x000E       |     13 |              3 |
| [3](#event-3)               | 0x001B       |     13 |              3 |
| [65535.1](#event-65535-1)   | 0x0028       |     20 |              6 |
| [65535.2](#event-65535-2)   | 0x003C       |     20 |              6 |
| [65535.3](#event-65535-3)   | 0x0050       |     34 |              8 |
| [65535.4](#event-65535-4)   | 0x0072       |     10 |              2 |
| [65535.5](#event-65535-5)   | 0x007C       |     15 |              5 |
| [65535.6](#event-65535-6)   | 0x008B       |     10 |              2 |
| [65535.7](#event-65535-7)   | 0x0095       |     31 |              7 |
| [65535.8](#event-65535-8)   | 0x00B4       |     12 |              3 |
| [65535.9](#event-65535-9)   | 0x00C0       |     14 |              4 |
| [65535.10](#event-65535-10) | 0x00CE       |     14 |              4 |
| [65535.11](#event-65535-11) | 0x00DC       |     14 |              4 |
| [65535.12](#event-65535-12) | 0x00EA       |     10 |              2 |
| [65535.13](#event-65535-13) | 0x00F4       |      6 |              2 |
| [65535.14](#event-65535-14) | 0x00FA       |     16 |              4 |
| [65535.15](#event-65535-15) | 0x010A       |     14 |              4 |
| [65535.16](#event-65535-16) | 0x0118       |     15 |              3 |
| [65535.17](#event-65535-17) | 0x0127       |     10 |              2 |
| [65535.18](#event-65535-18) | 0x0131       |     10 |              2 |
| [686](#event-686)           | 0x013B       |      1 |              1 |
| [65535.19](#event-65535-19) | 0x013C       |     10 |              2 |
| [65535.20](#event-65535-20) | 0x0146       |     14 |              4 |
| [65535.21](#event-65535-21) | 0x0154       |     24 |              6 |

## DAT References (imed_data)

|   Index | Hex Value   |   Dec Value |
|---------|-------------|-------------|
|       0 | 0x000D      |          13 |
|       1 | 0xFFFEF3AF  |  4294898607 |
|       2 | 0x19375     |      103285 |
|       3 | 0xFFFFE891  |  4294961297 |
|       4 | 0xFFFEF410  |  4294898704 |
|       5 | 0x19882     |      104578 |
|       6 | 0x0028      |          40 |
|       7 | 0xFFFEF710  |  4294899472 |
|       8 | 0x19E0E     |      105998 |
|       9 | 0xFFFEFDF8  |  4294901240 |
|      10 | 0x1A222     |      107042 |
|      11 | 0xFFFF3A77  |  4294916727 |
|      12 | 0x1A440     |      107584 |
|      13 | 0x58CC      |       22732 |
|      14 | 0xFFFE8115  |  4294869269 |
|      15 | 0xFFFFFC18  |  4294966296 |
|      16 | 0x0892      |        2194 |
|      17 | 0x55A2      |       21922 |
|      18 | 0xFFFE819D  |  4294869405 |
|      19 | 0x5630      |       22064 |
|      20 | 0xFFFE8102  |  4294869250 |
|      21 | 0x07CF      |        1999 |
|      22 | 0x0FFC      |        4092 |
|      23 | 0x005A      |          90 |
|      24 | 0x501B      |       20507 |
|      25 | 0xFFFE86AF  |  4294870703 |
|      26 | 0x26EC      |        9964 |
|      27 | 0xFFFE8888  |  4294871176 |
|      28 | 0x693B      |       26939 |
|      29 | 0xFFFE0DA1  |  4294839713 |
|      30 | 0xFFFFE4A8  |  4294960296 |
|      31 | 0x0427      |        1063 |
|      32 | 0x696D      |       26989 |
|      33 | 0xFFFE0CF3  |  4294839539 |
|      34 | 0x690A      |       26890 |
|      35 | 0xFFFE0DDD  |  4294839773 |
|      36 | 0xFFFFE0C0  |  4294959296 |
|      37 | 0x696E      |       26990 |
|      38 | 0xFFFE0DBF  |  4294839743 |
|      39 | 0x729B      |       29339 |
|      40 | 0xFFFE1BA0  |  4294843296 |
|      41 | 0xFFFFE890  |  4294961296 |
|      42 | 0x046A      |        1130 |
|      43 | 0x68E3      |       26851 |
|      44 | 0xFFFE1E01  |  4294843905 |
|      45 | 0x002D      |          45 |
|      46 | 0x6B65      |       27493 |
|      47 | 0xFFFE3CCE  |  4294851790 |
|      48 | 0x01FC      |         508 |
|      49 | 0xFFFFDA28  |  4294957608 |
|      50 | 0xFFFFFE72  |  4294966898 |
|      51 | 0x0B7D      |        2941 |
|      52 | 0x0AEF      |        2799 |
|      53 | 0xFFFFA6C5  |  4294944453 |
|      54 | 0x116F4     |       71412 |
|      55 | 0x0000      |           0 |
|      56 | 0x0B5C      |        2908 |
|      57 | 0x12423     |       74787 |
|      58 | 0xFFFFDC6D  |  4294958189 |
|      59 | 0x0237      |         567 |
|      60 | 0x120B3     |       73907 |
|      61 | 0xFFFFCBB6  |  4294953910 |
|      62 | 0x118FE     |       71934 |
|      63 | 0xFFFFB0D2  |  4294947026 |
|      64 | 0xD26F      |       53871 |
|      65 | 0xFFFFAE55  |  4294946389 |

## Events

### Event 65535

#### Metadata

| Field        | Value   |
|--------------|---------|
| Entrypoint   | 0x0000  |
| Data Size    | 1 bytes |
| Instructions | 1       |

```
      00 01 02 03 04 05 06 07  08 09 0A 0B 0C 0D 0E 0F
      -- -- -- -- -- -- -- --  -- -- -- -- -- -- -- --
0000: 00                                                .               
```

#### Opcodes

```
  0: 0x0000 [0x00] END_REQSTACK()
```

### Event 1

#### Metadata

| Field        | Value    |
|--------------|----------|
| Entrypoint   | 0x0001   |
| Data Size    | 13 bytes |
| Instructions | 3        |

```
      00 01 02 03 04 05 06 07  08 09 0A 0B 0C 0D 0E 0F
      -- -- -- -- -- -- -- --  -- -- -- -- -- -- -- --
0000:    92 01 F8 FF FF 7F 94  01 F8 FF FF 7F 00         .............  
```

#### Opcodes

```
  0: 0x0001 [0x92] EventEntity->Render.Flags3 ^= 0x01
  1: 0x0007 [0x94] EventEntity->Render.Flags3 ^= 0x01
  2: 0x000D [0x00] END_REQSTACK()
```

### Event 2

#### Metadata

| Field        | Value    |
|--------------|----------|
| Entrypoint   | 0x000E   |
| Data Size    | 13 bytes |
| Instructions | 3        |

```
      00 01 02 03 04 05 06 07  08 09 0A 0B 0C 0D 0E 0F
      -- -- -- -- -- -- -- --  -- -- -- -- -- -- -- --
0000:                                            92 01                ..
0010: F8 FF FF 7F 94 01 F8 FF  FF 7F 00                 ...........     
```

#### Opcodes

```
  0: 0x000E [0x92] EventEntity->Render.Flags3 ^= 0x01
  1: 0x0014 [0x94] EventEntity->Render.Flags3 ^= 0x01
  2: 0x001A [0x00] END_REQSTACK()
```

### Event 3

#### Metadata

| Field        | Value    |
|--------------|----------|
| Entrypoint   | 0x001B   |
| Data Size    | 13 bytes |
| Instructions | 3        |

```
      00 01 02 03 04 05 06 07  08 09 0A 0B 0C 0D 0E 0F
      -- -- -- -- -- -- -- --  -- -- -- -- -- -- -- --
0010:                                   92 01 F8 FF FF             .....
0020: 7F 94 01 F8 FF FF 7F 00                           ........        
```

#### Opcodes

```
  0: 0x001B [0x92] EventEntity->Render.Flags3 ^= 0x01
  1: 0x0021 [0x94] EventEntity->Render.Flags3 ^= 0x01
  2: 0x0027 [0x00] END_REQSTACK()
```

### Event 65535.1

#### Metadata

| Field        | Value    |
|--------------|----------|
| Entrypoint   | 0x0028   |
| Data Size    | 20 bytes |
| Instructions | 6        |

```
      00 01 02 03 04 05 06 07  08 09 0A 0B 0C 0D 0E 0F
      -- -- -- -- -- -- -- --  -- -- -- -- -- -- -- --
0020:                          32 00 80 1F 00 01 80 02          2.......
0030: 80 03 80 1F 01 6F 1E F5  20 03 01 00              .....o.. ...    
```

#### Opcodes

```
  0: 0x0028 [0x32] ExtData[1]->MainSpeed = 13* * 0.1
  1: 0x002B [0x1F] MOVE_ENTITY: EventEntity moves to X=-68.689*, Z=103.285*, Y=-5.999*
  2: 0x0033 [0x1F] MOVE_ENTITY: Update entity position (mode=1)
  3: 0x0035 [0x6F] WAIT_FRAME_DELAY: Yield until WaitTime reaches zero
  4: 0x0036 [0x1E] EventEntity looks at Ahaadah (ID: 16982261/0x010320F5) and starts talking
  5: 0x003B [0x00] END_REQSTACK()
```

### Event 65535.2

#### Metadata

| Field        | Value    |
|--------------|----------|
| Entrypoint   | 0x003C   |
| Data Size    | 20 bytes |
| Instructions | 6        |

```
      00 01 02 03 04 05 06 07  08 09 0A 0B 0C 0D 0E 0F
      -- -- -- -- -- -- -- --  -- -- -- -- -- -- -- --
0030:                                      32 00 80 1F              2...
0040: 00 04 80 05 80 03 80 1F  01 6F 1E F5 20 03 01 00  .........o.. ...
```

#### Opcodes

```
  0: 0x003C [0x32] ExtData[1]->MainSpeed = 13* * 0.1
  1: 0x003F [0x1F] MOVE_ENTITY: EventEntity moves to X=-68.592*, Z=104.578*, Y=-5.999*
  2: 0x0047 [0x1F] MOVE_ENTITY: Update entity position (mode=1)
  3: 0x0049 [0x6F] WAIT_FRAME_DELAY: Yield until WaitTime reaches zero
  4: 0x004A [0x1E] EventEntity looks at Ahaadah (ID: 16982261/0x010320F5) and starts talking
  5: 0x004F [0x00] END_REQSTACK()
```

### Event 65535.3

#### Metadata

| Field        | Value    |
|--------------|----------|
| Entrypoint   | 0x0050   |
| Data Size    | 34 bytes |
| Instructions | 8        |

```
      00 01 02 03 04 05 06 07  08 09 0A 0B 0C 0D 0E 0F
      -- -- -- -- -- -- -- --  -- -- -- -- -- -- -- --
0050: 32 06 80 1F 00 07 80 08  80 03 80 1F 01 1F 00 09  2...............
0060: 80 0A 80 03 80 1F 01 1F  00 0B 80 0C 80 03 80 1F  ................
0070: 01 00                                             ..              
```

#### Opcodes

```
  0: 0x0050 [0x32] ExtData[1]->MainSpeed = 40* * 0.1
  1: 0x0053 [0x1F] MOVE_ENTITY: EventEntity moves to X=-67.824*, Z=105.998*, Y=-5.999*
  2: 0x005B [0x1F] MOVE_ENTITY: Update entity position (mode=1)
  3: 0x005D [0x1F] MOVE_ENTITY: EventEntity moves to X=-66.056*, Z=107.042*, Y=-5.999*
  4: 0x0065 [0x1F] MOVE_ENTITY: Update entity position (mode=1)
  5: 0x0067 [0x1F] MOVE_ENTITY: EventEntity moves to X=-50.569*, Z=107.584*, Y=-5.999*
  6: 0x006F [0x1F] MOVE_ENTITY: Update entity position (mode=1)
  7: 0x0071 [0x00] END_REQSTACK()
```

### Event 65535.4

#### Metadata

| Field        | Value    |
|--------------|----------|
| Entrypoint   | 0x0072   |
| Data Size    | 10 bytes |
| Instructions | 2        |

```
      00 01 02 03 04 05 06 07  08 09 0A 0B 0C 0D 0E 0F
      -- -- -- -- -- -- -- --  -- -- -- -- -- -- -- --
0070:       37 0D 80 0E 80 0F  80 10 80 00                7.........    
```

#### Opcodes

```
  0: 0x0072 [0x37] UPDATE_EVENT_POSITION_AND_DIR: x=22.732*, z=-98.027*, y=-1.000*, direction=192.8°*
  1: 0x007B [0x00] END_REQSTACK()
```

### Event 65535.5

#### Metadata

| Field        | Value    |
|--------------|----------|
| Entrypoint   | 0x007C   |
| Data Size    | 15 bytes |
| Instructions | 5        |

```
      00 01 02 03 04 05 06 07  08 09 0A 0B 0C 0D 0E 0F
      -- -- -- -- -- -- -- --  -- -- -- -- -- -- -- --
0070:                                      32 00 80 1F              2...
0080: 00 11 80 12 80 0F 80 1F  01 6F 00                 .........o.     
```

#### Opcodes

```
  0: 0x007C [0x32] ExtData[1]->MainSpeed = 13* * 0.1
  1: 0x007F [0x1F] MOVE_ENTITY: EventEntity moves to X=21.922*, Z=-97.891*, Y=-1.000*
  2: 0x0087 [0x1F] MOVE_ENTITY: Update entity position (mode=1)
  3: 0x0089 [0x6F] WAIT_FRAME_DELAY: Yield until WaitTime reaches zero
  4: 0x008A [0x00] END_REQSTACK()
```

### Event 65535.6

#### Metadata

| Field        | Value    |
|--------------|----------|
| Entrypoint   | 0x008B   |
| Data Size    | 10 bytes |
| Instructions | 2        |

```
      00 01 02 03 04 05 06 07  08 09 0A 0B 0C 0D 0E 0F
      -- -- -- -- -- -- -- --  -- -- -- -- -- -- -- --
0080:                                   37 13 80 14 80             7....
0090: 15 80 16 80 00                                    .....           
```

#### Opcodes

```
  0: 0x008B [0x37] UPDATE_EVENT_POSITION_AND_DIR: x=22.064*, z=-98.046*, y=1.999*, direction=359.6°*
  1: 0x0094 [0x00] END_REQSTACK()
```

### Event 65535.7

#### Metadata

| Field        | Value    |
|--------------|----------|
| Entrypoint   | 0x0095   |
| Data Size    | 31 bytes |
| Instructions | 7        |

```
      00 01 02 03 04 05 06 07  08 09 0A 0B 0C 0D 0E 0F
      -- -- -- -- -- -- -- --  -- -- -- -- -- -- -- --
0090:                32 17 80  1F 00 18 80 19 80 15 80       2..........
00A0: 1F 01 27 10 12 21 03 01  69 1F 00 1A 80 1B 80 15  ..'..!..i.......
00B0: 80 1F 01 00                                       ....            
```

#### Opcodes

```
  0: 0x0095 [0x32] ExtData[1]->MainSpeed = 90* * 0.1
  1: 0x0098 [0x1F] MOVE_ENTITY: EventEntity moves to X=20.507*, Z=-96.593*, Y=1.999*
  2: 0x00A0 [0x1F] MOVE_ENTITY: Update entity position (mode=1)
  3: 0x00A2 [0x27] REQ_SET(priority=0x10, entity_id=Unnamed NPC (ID: 16982290/0x01032112), tag_num=0x69)
  4: 0x00A9 [0x1F] MOVE_ENTITY: EventEntity moves to X=9.964*, Z=-96.120*, Y=1.999*
  5: 0x00B1 [0x1F] MOVE_ENTITY: Update entity position (mode=1)
  6: 0x00B3 [0x00] END_REQSTACK()
```

### Event 65535.8

#### Metadata

| Field        | Value    |
|--------------|----------|
| Entrypoint   | 0x00B4   |
| Data Size    | 12 bytes |
| Instructions | 3        |

```
      00 01 02 03 04 05 06 07  08 09 0A 0B 0C 0D 0E 0F
      -- -- -- -- -- -- -- --  -- -- -- -- -- -- -- --
00B0:             33 01 37 1C  80 1D 80 1E 80 1F 80 00      3.7.........
```

#### Opcodes

```
  0: 0x00B4 [0x33] EventEntity->Render.Flags0 |= 0x200000 // Bit 21 (flag=0x01)
  1: 0x00B6 [0x37] UPDATE_EVENT_POSITION_AND_DIR: x=26.939*, z=-127.583*, y=-7.000*, direction=93.4°*
  2: 0x00BF [0x00] END_REQSTACK()
```

### Event 65535.9

#### Metadata

| Field        | Value    |
|--------------|----------|
| Entrypoint   | 0x00C0   |
| Data Size    | 14 bytes |
| Instructions | 4        |

```
      00 01 02 03 04 05 06 07  08 09 0A 0B 0C 0D 0E 0F
      -- -- -- -- -- -- -- --  -- -- -- -- -- -- -- --
00C0: 32 00 80 1F 00 20 80 21  80 1E 80 1F 01 00        2.... .!......  
```

#### Opcodes

```
  0: 0x00C0 [0x32] ExtData[1]->MainSpeed = 13* * 0.1
  1: 0x00C3 [0x1F] MOVE_ENTITY: EventEntity moves to X=26.989*, Z=-127.757*, Y=-7.000*
  2: 0x00CB [0x1F] MOVE_ENTITY: Update entity position (mode=1)
  3: 0x00CD [0x00] END_REQSTACK()
```

### Event 65535.10

#### Metadata

| Field        | Value    |
|--------------|----------|
| Entrypoint   | 0x00CE   |
| Data Size    | 14 bytes |
| Instructions | 4        |

```
      00 01 02 03 04 05 06 07  08 09 0A 0B 0C 0D 0E 0F
      -- -- -- -- -- -- -- --  -- -- -- -- -- -- -- --
00C0:                                            32 00                2.
00D0: 80 1F 00 22 80 23 80 24  80 1F 01 00              ...".#.$....    
```

#### Opcodes

```
  0: 0x00CE [0x32] ExtData[1]->MainSpeed = 13* * 0.1
  1: 0x00D1 [0x1F] MOVE_ENTITY: EventEntity moves to X=26.890*, Z=-127.523*, Y=-8.000*
  2: 0x00D9 [0x1F] MOVE_ENTITY: Update entity position (mode=1)
  3: 0x00DB [0x00] END_REQSTACK()
```

### Event 65535.11

#### Metadata

| Field        | Value    |
|--------------|----------|
| Entrypoint   | 0x00DC   |
| Data Size    | 14 bytes |
| Instructions | 4        |

```
      00 01 02 03 04 05 06 07  08 09 0A 0B 0C 0D 0E 0F
      -- -- -- -- -- -- -- --  -- -- -- -- -- -- -- --
00D0:                                      32 00 80 1F              2...
00E0: 00 25 80 26 80 1E 80 1F  01 00                    .%.&......      
```

#### Opcodes

```
  0: 0x00DC [0x32] ExtData[1]->MainSpeed = 13* * 0.1
  1: 0x00DF [0x1F] MOVE_ENTITY: EventEntity moves to X=26.990*, Z=-127.553*, Y=-7.000*
  2: 0x00E7 [0x1F] MOVE_ENTITY: Update entity position (mode=1)
  3: 0x00E9 [0x00] END_REQSTACK()
```

### Event 65535.12

#### Metadata

| Field        | Value    |
|--------------|----------|
| Entrypoint   | 0x00EA   |
| Data Size    | 10 bytes |
| Instructions | 2        |

```
      00 01 02 03 04 05 06 07  08 09 0A 0B 0C 0D 0E 0F
      -- -- -- -- -- -- -- --  -- -- -- -- -- -- -- --
00E0:                                37 27 80 28 80 29            7'.(.)
00F0: 80 2A 80 00                                       .*..            
```

#### Opcodes

```
  0: 0x00EA [0x37] UPDATE_EVENT_POSITION_AND_DIR: x=29.339*, z=-124.000*, y=-6.000*, direction=99.3°*
  1: 0x00F3 [0x00] END_REQSTACK()
```

### Event 65535.13

#### Metadata

| Field        | Value   |
|--------------|---------|
| Entrypoint   | 0x00F4  |
| Data Size    | 6 bytes |
| Instructions | 2       |

```
      00 01 02 03 04 05 06 07  08 09 0A 0B 0C 0D 0E 0F
      -- -- -- -- -- -- -- --  -- -- -- -- -- -- -- --
00F0:             1E F8 20 03  01 00                        .. ...      
```

#### Opcodes

```
  0: 0x00F4 [0x1E] EventEntity looks at Ratihb (ID: 16982264/0x010320F8) and starts talking
  1: 0x00F9 [0x00] END_REQSTACK()
```

### Event 65535.14

#### Metadata

| Field        | Value    |
|--------------|----------|
| Entrypoint   | 0x00FA   |
| Data Size    | 16 bytes |
| Instructions | 4        |

```
      00 01 02 03 04 05 06 07  08 09 0A 0B 0C 0D 0E 0F
      -- -- -- -- -- -- -- --  -- -- -- -- -- -- -- --
00F0:                                1F 00 2B 80 2C 80            ..+.,.
0100: 03 80 1F 01 1E F8 20 03  01 00                    ...... ...      
```

#### Opcodes

```
  0: 0x00FA [0x1F] MOVE_ENTITY: EventEntity moves to X=26.851*, Z=-123.391*, Y=-5.999*
  1: 0x0102 [0x1F] MOVE_ENTITY: Update entity position (mode=1)
  2: 0x0104 [0x1E] EventEntity looks at Ratihb (ID: 16982264/0x010320F8) and starts talking
  3: 0x0109 [0x00] END_REQSTACK()
```

### Event 65535.15

#### Metadata

| Field        | Value    |
|--------------|----------|
| Entrypoint   | 0x010A   |
| Data Size    | 14 bytes |
| Instructions | 4        |

```
      00 01 02 03 04 05 06 07  08 09 0A 0B 0C 0D 0E 0F
      -- -- -- -- -- -- -- --  -- -- -- -- -- -- -- --
0100:                                32 2D 80 1F 00 2E            2-....
0110: 80 2F 80 29 80 1F 01 00                           ./.)....        
```

#### Opcodes

```
  0: 0x010A [0x32] ExtData[1]->MainSpeed = 45* * 0.1
  1: 0x010D [0x1F] MOVE_ENTITY: EventEntity moves to X=27.493*, Z=-115.506*, Y=-6.000*
  2: 0x0115 [0x1F] MOVE_ENTITY: Update entity position (mode=1)
  3: 0x0117 [0x00] END_REQSTACK()
```

### Event 65535.16

#### Metadata

| Field        | Value    |
|--------------|----------|
| Entrypoint   | 0x0118   |
| Data Size    | 15 bytes |
| Instructions | 3        |

```
      00 01 02 03 04 05 06 07  08 09 0A 0B 0C 0D 0E 0F
      -- -- -- -- -- -- -- --  -- -- -- -- -- -- -- --
0110:                          37 30 80 31 80 32 80 33          70.1.2.3
0120: 80 1E FB 20 03 01 00                              ... ...         
```

#### Opcodes

```
  0: 0x0118 [0x37] UPDATE_EVENT_POSITION_AND_DIR: x=0.508*, z=-9.688*, y=-0.398*, direction=258.5°*
  1: 0x0121 [0x1E] EventEntity looks at Taishu-Yaashu (ID: 16982267/0x010320FB) and starts talking
  2: 0x0126 [0x00] END_REQSTACK()
```

### Event 65535.17

#### Metadata

| Field        | Value    |
|--------------|----------|
| Entrypoint   | 0x0127   |
| Data Size    | 10 bytes |
| Instructions | 2        |

```
      00 01 02 03 04 05 06 07  08 09 0A 0B 0C 0D 0E 0F
      -- -- -- -- -- -- -- --  -- -- -- -- -- -- -- --
0120:                      37  2B 80 2C 80 03 80 34 80         7+.,...4.
0130: 00                                                .               
```

#### Opcodes

```
  0: 0x0127 [0x37] UPDATE_EVENT_POSITION_AND_DIR: x=26.851*, z=-123.391*, y=-5.999*, direction=246.0°*
  1: 0x0130 [0x00] END_REQSTACK()
```

### Event 65535.18

#### Metadata

| Field        | Value    |
|--------------|----------|
| Entrypoint   | 0x0131   |
| Data Size    | 10 bytes |
| Instructions | 2        |

```
      00 01 02 03 04 05 06 07  08 09 0A 0B 0C 0D 0E 0F
      -- -- -- -- -- -- -- --  -- -- -- -- -- -- -- --
0130:    37 35 80 36 80 37 80  38 80 00                  75.6.7.8..     
```

#### Opcodes

```
  0: 0x0131 [0x37] UPDATE_EVENT_POSITION_AND_DIR: x=-22.843*, z=71.412*, y=0.000*, direction=255.6°*
  1: 0x013A [0x00] END_REQSTACK()
```

### Event 686

#### Metadata

| Field        | Value   |
|--------------|---------|
| Entrypoint   | 0x013B  |
| Data Size    | 1 bytes |
| Instructions | 1       |

```
      00 01 02 03 04 05 06 07  08 09 0A 0B 0C 0D 0E 0F
      -- -- -- -- -- -- -- --  -- -- -- -- -- -- -- --
0130:                                   00                         .    
```

#### Opcodes

```
  0: 0x013B [0x00] END_REQSTACK()
```

### Event 65535.19

#### Metadata

| Field        | Value    |
|--------------|----------|
| Entrypoint   | 0x013C   |
| Data Size    | 10 bytes |
| Instructions | 2        |

```
      00 01 02 03 04 05 06 07  08 09 0A 0B 0C 0D 0E 0F
      -- -- -- -- -- -- -- --  -- -- -- -- -- -- -- --
0130:                                      37 39 80 3A              79.:
0140: 80 37 80 3B 80 00                                 .7.;..          
```

#### Opcodes

```
  0: 0x013C [0x37] UPDATE_EVENT_POSITION_AND_DIR: x=74.787*, z=-9.107*, y=0.000*, direction=49.8°*
  1: 0x0145 [0x00] END_REQSTACK()
```

### Event 65535.20

#### Metadata

| Field        | Value    |
|--------------|----------|
| Entrypoint   | 0x0146   |
| Data Size    | 14 bytes |
| Instructions | 4        |

```
      00 01 02 03 04 05 06 07  08 09 0A 0B 0C 0D 0E 0F
      -- -- -- -- -- -- -- --  -- -- -- -- -- -- -- --
0140:                   32 06  80 1F 00 3C 80 3D 80 37        2....<.=.7
0150: 80 1F 01 00                                       ....            
```

#### Opcodes

```
  0: 0x0146 [0x32] ExtData[1]->MainSpeed = 40* * 0.1
  1: 0x0149 [0x1F] MOVE_ENTITY: EventEntity moves to X=73.907*, Z=-13.386*, Y=0.000*
  2: 0x0151 [0x1F] MOVE_ENTITY: Update entity position (mode=1)
  3: 0x0153 [0x00] END_REQSTACK()
```

### Event 65535.21

#### Metadata

| Field        | Value    |
|--------------|----------|
| Entrypoint   | 0x0154   |
| Data Size    | 24 bytes |
| Instructions | 6        |

```
      00 01 02 03 04 05 06 07  08 09 0A 0B 0C 0D 0E 0F
      -- -- -- -- -- -- -- --  -- -- -- -- -- -- -- --
0150:             32 06 80 1F  00 3E 80 3F 80 37 80 1F      2....>.?.7..
0160: 01 1F 00 40 80 41 80 03  80 1F 01 00              ...@.A......    
```

#### Opcodes

```
  0: 0x0154 [0x32] ExtData[1]->MainSpeed = 40* * 0.1
  1: 0x0157 [0x1F] MOVE_ENTITY: EventEntity moves to X=71.934*, Z=-20.270*, Y=0.000*
  2: 0x015F [0x1F] MOVE_ENTITY: Update entity position (mode=1)
  3: 0x0161 [0x1F] MOVE_ENTITY: EventEntity moves to X=53.871*, Z=-20.907*, Y=-5.999*
  4: 0x0169 [0x1F] MOVE_ENTITY: Update entity position (mode=1)
  5: 0x016B [0x00] END_REQSTACK()
```
