# 16982313 - Mushayra

## Common Data

| Field            | Value                         |
|------------------|-------------------------------|
| Zone             | Aht Urhgan Whitegate (ID: 50) |
| Block Size       | 848 bytes                     |
| Total Events     | 16                            |
| References Count | 43                            |

## List of Events

| Event ID                  | Entrypoint   |   Size |   Instructions |
|---------------------------|--------------|--------|----------------|
| [65535](#event-65535)     | 0x0000       |      1 |              1 |
| [508](#event-508)         | 0x0001       |      1 |              1 |
| [519](#event-519)         | 0x0002       |     29 |              7 |
| [517](#event-517)         | 0x001F       |      1 |              1 |
| [65535.1](#event-65535-1) | 0x0020       |     49 |             11 |
| [65535.2](#event-65535-2) | 0x0051       |     44 |             10 |
| [65535.3](#event-65535-3) | 0x007D       |     24 |              6 |
| [65535.4](#event-65535-4) | 0x0095       |     19 |              5 |
| [865](#event-865)         | 0x00A8       |     38 |             12 |
| [867](#event-867)         | 0x00CE       |      7 |              2 |
| [65535.5](#event-65535-5) | 0x00D5       |    155 |             31 |
| [872](#event-872)         | 0x0170       |      7 |              2 |
| [65535.6](#event-65535-6) | 0x0177       |     61 |             13 |
| [65535.7](#event-65535-7) | 0x01B4       |     35 |              7 |
| [65535.8](#event-65535-8) | 0x01D7       |     74 |             16 |
| [876](#event-876)         | 0x0221       |     49 |             11 |

## DAT References (imed_data)

|   Index | Hex Value   |   Dec Value |
|---------|-------------|-------------|
|       0 | 0x001E      |          30 |
|       1 | 0x0046      |          70 |
|       2 | 0x137C      |        4988 |
|       3 | 0x000D      |          13 |
|       4 | 0xFFFE4A60  |  4294855264 |
|       5 | 0xFFFEFF34  |  4294901556 |
|       6 | 0xFFFFE891  |  4294961297 |
|       7 | 0xFFFE55D7  |  4294858199 |
|       8 | 0xFFFEFEA4  |  4294901412 |
|       9 | 0x0E8A      |        3722 |
|      10 | 0x0078      |         120 |
|      11 | 0xFFFE58DA  |  4294858970 |
|      12 | 0xFFFEF498  |  4294898840 |
|      13 | 0xFFFE48BB  |  4294854843 |
|      14 | 0xFFFF0D59  |  4294905177 |
|      15 | 0x080E      |        2062 |
|      16 | 0xFFFE5FED  |  4294860781 |
|      17 | 0xFFFEFE04  |  4294901252 |
|      18 | 0x1C86      |        7302 |
|      19 | 0x1C87      |        7303 |
|      20 | 0x1C88      |        7304 |
|      21 | 0x0002      |           2 |
|      22 | 0x0028      |          40 |
|      23 | 0xFFFEB6DC  |  4294883036 |
|      24 | 0xFFFFC5DC  |  4294952412 |
|      25 | 0x0000      |           0 |
|      26 | 0x0CB1      |        3249 |
|      27 | 0x005A      |          90 |
|      28 | 0x0A82      |        2690 |
|      29 | 0xFFFEAAAF  |  4294879919 |
|      30 | 0xFFFFE14B  |  4294959435 |
|      31 | 0x08E3      |        2275 |
|      32 | 0x0001      |           1 |
|      33 | 0xFFFE9FC3  |  4294877123 |
|      34 | 0xFFFFF060  |  4294963296 |
|      35 | 0xFFFE9762  |  4294874978 |
|      36 | 0xFFFFE7E0  |  4294961120 |
|      37 | 0xFFFE9B69  |  4294876009 |
|      38 | 0xFFFFD8BC  |  4294957244 |
|      39 | 0xFFFEAD90  |  4294880656 |
|      40 | 0xFFFFD47B  |  4294956155 |
|      41 | 0x1CB5      |        7349 |
|      42 | 0x1CB6      |        7350 |

## Events

### Event 65535

#### Metadata

| Field        | Value   |
|--------------|---------|
| Entrypoint   | 0x0000  |
| Data Size    | 1 bytes |
| Instructions | 1       |

```
      00 01 02 03 04 05 06 07  08 09 0A 0B 0C 0D 0E 0F
      -- -- -- -- -- -- -- --  -- -- -- -- -- -- -- --
0000: 00                                                .               
```

#### Opcodes

```
  0: 0x0000 [0x00] END_REQSTACK()
```

### Event 508

#### Metadata

| Field        | Value   |
|--------------|---------|
| Entrypoint   | 0x0001  |
| Data Size    | 1 bytes |
| Instructions | 1       |

```
      00 01 02 03 04 05 06 07  08 09 0A 0B 0C 0D 0E 0F
      -- -- -- -- -- -- -- --  -- -- -- -- -- -- -- --
0000:    00                                              .              
```

#### Opcodes

```
  0: 0x0001 [0x00] END_REQSTACK()
```

### Event 519

#### Metadata

| Field        | Value    |
|--------------|----------|
| Entrypoint   | 0x0002   |
| Data Size    | 29 bytes |
| Instructions | 7        |

```
      00 01 02 03 04 05 06 07  08 09 0A 0B 0C 0D 0E 0F
      -- -- -- -- -- -- -- --  -- -- -- -- -- -- -- --
0000:       1E F0 FF FF 7F 1C  00 80 5B 01 80 F8 FF FF    ........[.....
0010: 7F F8 FF FF 7F 74 6C 6B  30 1D 02 80 23 21 00     .....tlk0...#!. 
```

#### Opcodes

```
  0: 0x0002 [0x1E] EventEntity looks at LocalPlayer and starts talking
  1: 0x0007 [0x1C] WAIT(30* ticks)
  2: 0x000A [0x5B] LOAD_EXT_SCHEDULER: Load scheduler "tlk0" with entities [EventEntity, EventEntity], work=70*
  3: 0x0019 [0x1D] PRINT_EVENT_MESSAGE(message_id=4988*)
    → "Hadahda is a real troublemaker.\u0007Just ignore him if he asks you to do something.\u007F1\u0000\u0007"
  4: 0x001C [0x23] WAIT_FOR_DIALOG_INTERACTION
  5: 0x001D [0x21] END_EVENT
  6: 0x001E [0x00] END_REQSTACK()
```

### Event 517

#### Metadata

| Field        | Value   |
|--------------|---------|
| Entrypoint   | 0x001F  |
| Data Size    | 1 bytes |
| Instructions | 1       |

```
      00 01 02 03 04 05 06 07  08 09 0A 0B 0C 0D 0E 0F
      -- -- -- -- -- -- -- --  -- -- -- -- -- -- -- --
0010:                                               00                 .
```

#### Opcodes

```
  0: 0x001F [0x00] END_REQSTACK()
```

### Event 65535.1

#### Metadata

| Field        | Value    |
|--------------|----------|
| Entrypoint   | 0x0020   |
| Data Size    | 49 bytes |
| Instructions | 11       |

```
      00 01 02 03 04 05 06 07  08 09 0A 0B 0C 0D 0E 0F
      -- -- -- -- -- -- -- --  -- -- -- -- -- -- -- --
0020: 32 03 80 1F 00 04 80 05  80 06 80 1F 01 1F 00 07  2...............
0030: 80 08 80 06 80 1F 01 1E  28 21 03 01 4B 28 21 03  ........(!..K(!.
0040: 01 09 80 1C 0A 80 1F 00  0B 80 0C 80 06 80 1F 01  ................
0050: 00                                                .               
```

#### Opcodes

```
  0: 0x0020 [0x32] ExtData[1]->MainSpeed = 13* * 0.1
  1: 0x0023 [0x1F] MOVE_ENTITY: EventEntity moves to X=-112.032*, Z=-65.740*, Y=-5.999*
  2: 0x002B [0x1F] MOVE_ENTITY: Update entity position (mode=1)
  3: 0x002D [0x1F] MOVE_ENTITY: EventEntity moves to X=-109.097*, Z=-65.884*, Y=-5.999*
  4: 0x0035 [0x1F] MOVE_ENTITY: Update entity position (mode=1)
  5: 0x0037 [0x1E] EventEntity looks at Hadahda (ID: 16982312/0x01032128) and starts talking
  6: 0x003C [0x4B] UPDATE_ENTITY_YAW(entity=Hadahda (ID: 16982312/0x01032128), yaw=20.4°*)
  7: 0x0043 [0x1C] WAIT(120* ticks)
  8: 0x0046 [0x1F] MOVE_ENTITY: EventEntity moves to X=-108.326*, Z=-68.456*, Y=-5.999*
  9: 0x004E [0x1F] MOVE_ENTITY: Update entity position (mode=1)
 10: 0x0050 [0x00] END_REQSTACK()
```

### Event 65535.2

#### Metadata

| Field        | Value    |
|--------------|----------|
| Entrypoint   | 0x0051   |
| Data Size    | 44 bytes |
| Instructions | 10       |

```
      00 01 02 03 04 05 06 07  08 09 0A 0B 0C 0D 0E 0F
      -- -- -- -- -- -- -- --  -- -- -- -- -- -- -- --
0050:    32 03 80 1F 00 07 80  08 80 06 80 1F 01 1F 00   2..............
0060: 04 80 05 80 06 80 1F 01  1F 00 0D 80 0E 80 06 80  ................
0070: 1F 01 4B 29 21 03 01 0F  80 1C 0A 80 00           ..K)!........   
```

#### Opcodes

```
  0: 0x0051 [0x32] ExtData[1]->MainSpeed = 13* * 0.1
  1: 0x0054 [0x1F] MOVE_ENTITY: EventEntity moves to X=-109.097*, Z=-65.884*, Y=-5.999*
  2: 0x005C [0x1F] MOVE_ENTITY: Update entity position (mode=1)
  3: 0x005E [0x1F] MOVE_ENTITY: EventEntity moves to X=-112.032*, Z=-65.740*, Y=-5.999*
  4: 0x0066 [0x1F] MOVE_ENTITY: Update entity position (mode=1)
  5: 0x0068 [0x1F] MOVE_ENTITY: EventEntity moves to X=-112.453*, Z=-62.119*, Y=-5.999*
  6: 0x0070 [0x1F] MOVE_ENTITY: Update entity position (mode=1)
  7: 0x0072 [0x4B] UPDATE_ENTITY_YAW(entity=Mushayra (ID: 16982313/0x01032129), yaw=11.3°*)
  8: 0x0079 [0x1C] WAIT(120* ticks)
  9: 0x007C [0x00] END_REQSTACK()
```

### Event 65535.3

#### Metadata

| Field        | Value    |
|--------------|----------|
| Entrypoint   | 0x007D   |
| Data Size    | 24 bytes |
| Instructions | 6        |

```
      00 01 02 03 04 05 06 07  08 09 0A 0B 0C 0D 0E 0F
      -- -- -- -- -- -- -- --  -- -- -- -- -- -- -- --
0070:                                         32 03 80               2..
0080: 1F 00 04 80 05 80 06 80  1F 01 1F 00 07 80 08 80  ................
0090: 06 80 1F 01 00                                    .....           
```

#### Opcodes

```
  0: 0x007D [0x32] ExtData[1]->MainSpeed = 13* * 0.1
  1: 0x0080 [0x1F] MOVE_ENTITY: EventEntity moves to X=-112.032*, Z=-65.740*, Y=-5.999*
  2: 0x0088 [0x1F] MOVE_ENTITY: Update entity position (mode=1)
  3: 0x008A [0x1F] MOVE_ENTITY: EventEntity moves to X=-109.097*, Z=-65.884*, Y=-5.999*
  4: 0x0092 [0x1F] MOVE_ENTITY: Update entity position (mode=1)
  5: 0x0094 [0x00] END_REQSTACK()
```

### Event 65535.4

#### Metadata

| Field        | Value    |
|--------------|----------|
| Entrypoint   | 0x0095   |
| Data Size    | 19 bytes |
| Instructions | 5        |

```
      00 01 02 03 04 05 06 07  08 09 0A 0B 0C 0D 0E 0F
      -- -- -- -- -- -- -- --  -- -- -- -- -- -- -- --
0090:                32 03 80  1F 00 10 80 11 80 06 80       2..........
00A0: 1F 01 1E 28 21 03 01 00                           ...(!...        
```

#### Opcodes

```
  0: 0x0095 [0x32] ExtData[1]->MainSpeed = 13* * 0.1
  1: 0x0098 [0x1F] MOVE_ENTITY: EventEntity moves to X=-106.515*, Z=-66.044*, Y=-5.999*
  2: 0x00A0 [0x1F] MOVE_ENTITY: Update entity position (mode=1)
  3: 0x00A2 [0x1E] EventEntity looks at Hadahda (ID: 16982312/0x01032128) and starts talking
  4: 0x00A7 [0x00] END_REQSTACK()
```

### Event 865

#### Metadata

| Field        | Value    |
|--------------|----------|
| Entrypoint   | 0x00A8   |
| Data Size    | 38 bytes |
| Instructions | 12       |

```
      00 01 02 03 04 05 06 07  08 09 0A 0B 0C 0D 0E 0F
      -- -- -- -- -- -- -- --  -- -- -- -- -- -- -- --
00A0:                          42 1E F0 FF FF 7F 1C 00          B.......
00B0: 80 1D 12 80 23 5B 01 80  F8 FF FF 7F F8 FF FF 7F  ....#[..........
00C0: 74 6C 6B 30 1D 13 80 23  1D 14 80 23 21 00        tlk0...#...#!.  
```

#### Opcodes

```
  0: 0x00A8 [0x42] SET_CLI_EVENT_CANCEL_DATA()
  1: 0x00A9 [0x1E] EventEntity looks at LocalPlayer and starts talking
  2: 0x00AE [0x1C] WAIT(30* ticks)
  3: 0x00B1 [0x1D] PRINT_EVENT_MESSAGE(message_id=7302*)
    → "Did you happen to see a Qiqirn anywhere near Balrahn Way?\u007F1\u0000\u0007"
  4: 0x00B4 [0x23] WAIT_FOR_DIALOG_INTERACTION
  5: 0x00B5 [0x5B] LOAD_EXT_SCHEDULER: Load scheduler "tlk0" with entities [EventEntity, EventEntity], work=70*
  6: 0x00C4 [0x1D] PRINT_EVENT_MESSAGE(message_id=7303*)
    → "The past few weeks, one of those conniving rats has been coming around here playing tricks on me and my son.\u007F1\u0000\u0007"
  7: 0x00C7 [0x23] WAIT_FOR_DIALOG_INTERACTION
  8: 0x00C8 [0x1D] PRINT_EVENT_MESSAGE(message_id=7304*)
    → "It's hard enough for a single mother to put up with the antics of this little scamp without having to worry about any other vermin!\u007F1\u0000\u0007"
  9: 0x00CB [0x23] WAIT_FOR_DIALOG_INTERACTION
 10: 0x00CC [0x21] END_EVENT
 11: 0x00CD [0x00] END_REQSTACK()
```

### Event 867

#### Metadata

| Field        | Value   |
|--------------|---------|
| Entrypoint   | 0x00CE  |
| Data Size    | 7 bytes |
| Instructions | 2       |

```
      00 01 02 03 04 05 06 07  08 09 0A 0B 0C 0D 0E 0F
      -- -- -- -- -- -- -- --  -- -- -- -- -- -- -- --
00C0:                                            92 01                ..
00D0: F8 FF FF 7F 00                                    .....           
```

#### Opcodes

```
  0: 0x00CE [0x92] EventEntity->Render.Flags3 ^= 0x01
  1: 0x00D4 [0x00] END_REQSTACK()
```

### Event 65535.5

#### Metadata

| Field        | Value     |
|--------------|-----------|
| Entrypoint   | 0x00D5    |
| Data Size    | 155 bytes |
| Instructions | 31        |

```
      00 01 02 03 04 05 06 07  08 09 0A 0B 0C 0D 0E 0F
      -- -- -- -- -- -- -- --  -- -- -- -- -- -- -- --
00D0:                03 25 10  15 80 32 16 80 1F 00 17       .%...2.....
00E0: 80 18 80 19 80 1F 01 4B  29 21 03 01 1A 80 1C 1B  .......K)!......
00F0: 80 4B 29 21 03 01 1C 80  1C 1B 80 1F 00 1D 80 1E  .K)!............
0100: 80 19 80 1F 01 4B 29 21  03 01 1F 80 03 25 10 20  .....K)!.....%. 
0110: 80 1C 1B 80 1F 00 21 80  22 80 19 80 1F 01 4B 29  ......!.".....K)
0120: 21 03 01 1A 80 1C 1B 80  1F 00 23 80 24 80 19 80  !.........#.$...
0130: 1F 01 4B 29 21 03 01 1F  80 1C 1B 80 1F 00 25 80  ..K)!.........%.
0140: 26 80 19 80 1F 01 4B 29  21 03 01 1A 80 1C 1B 80  &.....K)!.......
0150: 1F 00 27 80 28 80 19 80  1F 01 1C 00 80 5B 01 80  ..'.(........[..
0160: F8 FF FF 7F F8 FF FF 7F  74 68 6B 30 1C 00 80 00  ........thk0....
```

#### Opcodes

```
  0: 0x00D5 [0x03] Work_Zone[37] = 2*
  1: 0x00DA [0x32] ExtData[1]->MainSpeed = 40* * 0.1
  2: 0x00DD [0x1F] MOVE_ENTITY: EventEntity moves to X=-84.260*, Z=-14.884*, Y=0.000*
  3: 0x00E5 [0x1F] MOVE_ENTITY: Update entity position (mode=1)
  4: 0x00E7 [0x4B] UPDATE_ENTITY_YAW(entity=Mushayra (ID: 16982313/0x01032129), yaw=17.8°*)
  5: 0x00EE [0x1C] WAIT(90* ticks)
  6: 0x00F1 [0x4B] UPDATE_ENTITY_YAW(entity=Mushayra (ID: 16982313/0x01032129), yaw=14.8°*)
  7: 0x00F8 [0x1C] WAIT(90* ticks)
  8: 0x00FB [0x1F] MOVE_ENTITY: EventEntity moves to X=-87.377*, Z=-7.861*, Y=0.000*
  9: 0x0103 [0x1F] MOVE_ENTITY: Update entity position (mode=1)
 10: 0x0105 [0x4B] UPDATE_ENTITY_YAW(entity=Mushayra (ID: 16982313/0x01032129), yaw=12.5°*)
 11: 0x010C [0x03] Work_Zone[37] = 1*
 12: 0x0111 [0x1C] WAIT(90* ticks)
 13: 0x0114 [0x1F] MOVE_ENTITY: EventEntity moves to X=-90.173*, Z=-4.000*, Y=0.000*
 14: 0x011C [0x1F] MOVE_ENTITY: Update entity position (mode=1)
 15: 0x011E [0x4B] UPDATE_ENTITY_YAW(entity=Mushayra (ID: 16982313/0x01032129), yaw=17.8°*)
 16: 0x0125 [0x1C] WAIT(90* ticks)
 17: 0x0128 [0x1F] MOVE_ENTITY: EventEntity moves to X=-92.318*, Z=-6.176*, Y=0.000*
 18: 0x0130 [0x1F] MOVE_ENTITY: Update entity position (mode=1)
 19: 0x0132 [0x4B] UPDATE_ENTITY_YAW(entity=Mushayra (ID: 16982313/0x01032129), yaw=12.5°*)
 20: 0x0139 [0x1C] WAIT(90* ticks)
 21: 0x013C [0x1F] MOVE_ENTITY: EventEntity moves to X=-91.287*, Z=-10.052*, Y=0.000*
 22: 0x0144 [0x1F] MOVE_ENTITY: Update entity position (mode=1)
 23: 0x0146 [0x4B] UPDATE_ENTITY_YAW(entity=Mushayra (ID: 16982313/0x01032129), yaw=17.8°*)
 24: 0x014D [0x1C] WAIT(90* ticks)
 25: 0x0150 [0x1F] MOVE_ENTITY: EventEntity moves to X=-86.640*, Z=-11.141*, Y=0.000*
 26: 0x0158 [0x1F] MOVE_ENTITY: Update entity position (mode=1)
 27: 0x015A [0x1C] WAIT(30* ticks)
 28: 0x015D [0x5B] LOAD_EXT_SCHEDULER: Load scheduler "thk0" with entities [EventEntity, EventEntity], work=70*
 29: 0x016C [0x1C] WAIT(30* ticks)
 30: 0x016F [0x00] END_REQSTACK()
```

### Event 872

#### Metadata

| Field        | Value   |
|--------------|---------|
| Entrypoint   | 0x0170  |
| Data Size    | 7 bytes |
| Instructions | 2       |

```
      00 01 02 03 04 05 06 07  08 09 0A 0B 0C 0D 0E 0F
      -- -- -- -- -- -- -- --  -- -- -- -- -- -- -- --
0170: 92 01 F8 FF FF 7F 00                              .......         
```

#### Opcodes

```
  0: 0x0170 [0x92] EventEntity->Render.Flags3 ^= 0x01
  1: 0x0176 [0x00] END_REQSTACK()
```

### Event 65535.6

#### Metadata

| Field        | Value    |
|--------------|----------|
| Entrypoint   | 0x0177   |
| Data Size    | 61 bytes |
| Instructions | 13       |

```
      00 01 02 03 04 05 06 07  08 09 0A 0B 0C 0D 0E 0F
      -- -- -- -- -- -- -- --  -- -- -- -- -- -- -- --
0170:                      32  16 80 1F 00 21 80 22 80         2....!.".
0180: 19 80 1F 01 4B 29 21 03  01 1A 80 1C 1B 80 1F 00  ....K)!.........
0190: 23 80 24 80 19 80 1F 01  4B 29 21 03 01 1F 80 1C  #.$.....K)!.....
01A0: 1B 80 1F 00 25 80 26 80  19 80 1F 01 4B 29 21 03  ....%.&.....K)!.
01B0: 01 1A 80 00                                       ....            
```

#### Opcodes

```
  0: 0x0177 [0x32] ExtData[1]->MainSpeed = 40* * 0.1
  1: 0x017A [0x1F] MOVE_ENTITY: EventEntity moves to X=-90.173*, Z=-4.000*, Y=0.000*
  2: 0x0182 [0x1F] MOVE_ENTITY: Update entity position (mode=1)
  3: 0x0184 [0x4B] UPDATE_ENTITY_YAW(entity=Mushayra (ID: 16982313/0x01032129), yaw=17.8°*)
  4: 0x018B [0x1C] WAIT(90* ticks)
  5: 0x018E [0x1F] MOVE_ENTITY: EventEntity moves to X=-92.318*, Z=-6.176*, Y=0.000*
  6: 0x0196 [0x1F] MOVE_ENTITY: Update entity position (mode=1)
  7: 0x0198 [0x4B] UPDATE_ENTITY_YAW(entity=Mushayra (ID: 16982313/0x01032129), yaw=12.5°*)
  8: 0x019F [0x1C] WAIT(90* ticks)
  9: 0x01A2 [0x1F] MOVE_ENTITY: EventEntity moves to X=-91.287*, Z=-10.052*, Y=0.000*
 10: 0x01AA [0x1F] MOVE_ENTITY: Update entity position (mode=1)
 11: 0x01AC [0x4B] UPDATE_ENTITY_YAW(entity=Mushayra (ID: 16982313/0x01032129), yaw=17.8°*)
 12: 0x01B3 [0x00] END_REQSTACK()
```

### Event 65535.7

#### Metadata

| Field        | Value    |
|--------------|----------|
| Entrypoint   | 0x01B4   |
| Data Size    | 35 bytes |
| Instructions | 7        |

```
      00 01 02 03 04 05 06 07  08 09 0A 0B 0C 0D 0E 0F
      -- -- -- -- -- -- -- --  -- -- -- -- -- -- -- --
01B0:             32 16 80 1F  00 27 80 28 80 19 80 1F      2....'.(....
01C0: 01 1C 00 80 5B 01 80 F8  FF FF 7F F8 FF FF 7F 74  ....[..........t
01D0: 68 6B 30 1C 00 80 00                              hk0....         
```

#### Opcodes

```
  0: 0x01B4 [0x32] ExtData[1]->MainSpeed = 40* * 0.1
  1: 0x01B7 [0x1F] MOVE_ENTITY: EventEntity moves to X=-86.640*, Z=-11.141*, Y=0.000*
  2: 0x01BF [0x1F] MOVE_ENTITY: Update entity position (mode=1)
  3: 0x01C1 [0x1C] WAIT(30* ticks)
  4: 0x01C4 [0x5B] LOAD_EXT_SCHEDULER: Load scheduler "thk0" with entities [EventEntity, EventEntity], work=70*
  5: 0x01D3 [0x1C] WAIT(30* ticks)
  6: 0x01D6 [0x00] END_REQSTACK()
```

### Event 65535.8

#### Metadata

| Field        | Value    |
|--------------|----------|
| Entrypoint   | 0x01D7   |
| Data Size    | 74 bytes |
| Instructions | 16       |

```
      00 01 02 03 04 05 06 07  08 09 0A 0B 0C 0D 0E 0F
      -- -- -- -- -- -- -- --  -- -- -- -- -- -- -- --
01D0:                      32  16 80 1F 00 1D 80 1E 80         2........
01E0: 19 80 1F 01 4B 29 21 03  01 1F 80 1C 1B 80 1F 00  ....K)!.........
01F0: 21 80 22 80 19 80 1F 01  4B 29 21 03 01 1A 80 1C  !.".....K)!.....
0200: 1B 80 1F 00 23 80 24 80  19 80 1F 01 4B 29 21 03  ....#.$.....K)!.
0210: 01 1F 80 1C 1B 80 1F 00  25 80 26 80 19 80 1F 01  ........%.&.....
0220: 00                                                .               
```

#### Opcodes

```
  0: 0x01D7 [0x32] ExtData[1]->MainSpeed = 40* * 0.1
  1: 0x01DA [0x1F] MOVE_ENTITY: EventEntity moves to X=-87.377*, Z=-7.861*, Y=0.000*
  2: 0x01E2 [0x1F] MOVE_ENTITY: Update entity position (mode=1)
  3: 0x01E4 [0x4B] UPDATE_ENTITY_YAW(entity=Mushayra (ID: 16982313/0x01032129), yaw=12.5°*)
  4: 0x01EB [0x1C] WAIT(90* ticks)
  5: 0x01EE [0x1F] MOVE_ENTITY: EventEntity moves to X=-90.173*, Z=-4.000*, Y=0.000*
  6: 0x01F6 [0x1F] MOVE_ENTITY: Update entity position (mode=1)
  7: 0x01F8 [0x4B] UPDATE_ENTITY_YAW(entity=Mushayra (ID: 16982313/0x01032129), yaw=17.8°*)
  8: 0x01FF [0x1C] WAIT(90* ticks)
  9: 0x0202 [0x1F] MOVE_ENTITY: EventEntity moves to X=-92.318*, Z=-6.176*, Y=0.000*
 10: 0x020A [0x1F] MOVE_ENTITY: Update entity position (mode=1)
 11: 0x020C [0x4B] UPDATE_ENTITY_YAW(entity=Mushayra (ID: 16982313/0x01032129), yaw=12.5°*)
 12: 0x0213 [0x1C] WAIT(90* ticks)
 13: 0x0216 [0x1F] MOVE_ENTITY: EventEntity moves to X=-91.287*, Z=-10.052*, Y=0.000*
 14: 0x021E [0x1F] MOVE_ENTITY: Update entity position (mode=1)
 15: 0x0220 [0x00] END_REQSTACK()
```

### Event 876

#### Metadata

| Field        | Value    |
|--------------|----------|
| Entrypoint   | 0x0221   |
| Data Size    | 49 bytes |
| Instructions | 11       |

```
      00 01 02 03 04 05 06 07  08 09 0A 0B 0C 0D 0E 0F
      -- -- -- -- -- -- -- --  -- -- -- -- -- -- -- --
0220:    42 1E F0 FF FF 7F 1C  00 80 5B 01 80 F8 FF FF   B........[.....
0230: 7F F8 FF FF 7F 74 6C 6B  30 1D 29 80 23 5B 01 80  .....tlk0.).#[..
0240: F8 FF FF 7F F8 FF FF 7F  74 6C 6B 31 1D 2A 80 23  ........tlk1.*.#
0250: 21 00                                             !.              
```

#### Opcodes

```
  0: 0x0221 [0x42] SET_CLI_EVENT_CANCEL_DATA()
  1: 0x0222 [0x1E] EventEntity looks at LocalPlayer and starts talking
  2: 0x0227 [0x1C] WAIT(30* ticks)
  3: 0x022A [0x5B] LOAD_EXT_SCHEDULER: Load scheduler "tlk0" with entities [EventEntity, EventEntity], work=70*
  4: 0x0239 [0x1D] PRINT_EVENT_MESSAGE(message_id=7349*)
    → "Oh, remember that conniving Qiqirn I told you about the other day? Well, we finally caught him!\u007F1\u0000\u0007"
  5: 0x023C [0x23] WAIT_FOR_DIALOG_INTERACTION
  6: 0x023D [0x5B] LOAD_EXT_SCHEDULER: Load scheduler "tlk1" with entities [EventEntity, EventEntity], work=70*
  7: 0x024C [0x1D] PRINT_EVENT_MESSAGE(message_id=7350*)
    → "And does that take a load off my shoulders! Now if I could just figure out what to do with this bundle of trouble...\u007F1\u0000\u0007"
  8: 0x024F [0x23] WAIT_FOR_DIALOG_INTERACTION
  9: 0x0250 [0x21] END_EVENT
 10: 0x0251 [0x00] END_REQSTACK()
```
