# 16982111 - Mafwahb

## Common Data

| Field            | Value                         |
|------------------|-------------------------------|
| Zone             | Aht Urhgan Whitegate (ID: 50) |
| Block Size       | 260 bytes                     |
| Total Events     | 11                            |
| References Count | 13                            |

## List of Events

| Event ID                  | Entrypoint   |   Size |   Instructions |
|---------------------------|--------------|--------|----------------|
| [65535](#event-65535)     | 0x0000       |      1 |              1 |
| [3078](#event-3078)       | 0x0001       |      1 |              1 |
| [612](#event-612)         | 0x0002       |     47 |              9 |
| [647](#event-647)         | 0x0031       |     18 |              6 |
| [3081](#event-3081)       | 0x0043       |      1 |              1 |
| [65535.1](#event-65535-1) | 0x0044       |     25 |              9 |
| [65535.2](#event-65535-2) | 0x005D       |     31 |              9 |
| [65535.3](#event-65535-3) | 0x007C       |     20 |              3 |
| [824](#event-824)         | 0x0090       |      1 |              1 |
| [3111](#event-3111)       | 0x0091       |      1 |              1 |
| [3114](#event-3114)       | 0x0092       |      1 |              1 |

## DAT References (imed_data)

|   Index | Hex Value   |   Dec Value |
|---------|-------------|-------------|
|       0 | 0x001E      |          30 |
|       1 | 0x0000      |           0 |
|       2 | 0x2487      |        9351 |
|       3 | 0x2488      |        9352 |
|       4 | 0x000D      |          13 |
|       5 | 0x24EBE     |      151230 |
|       6 | 0xFFFFFB42  |  4294966082 |
|       7 | 0xFFFFF769  |  4294965097 |
|       8 | 0x000F      |          15 |
|       9 | 0x24EC5     |      151237 |
|      10 | 0xFFFFF3B0  |  4294964144 |
|      11 | 0x0800      |        2048 |
|      12 | 0x07EE      |        2030 |

## Events

### Event 65535

#### Metadata

| Field        | Value   |
|--------------|---------|
| Entrypoint   | 0x0000  |
| Data Size    | 1 bytes |
| Instructions | 1       |

```
      00 01 02 03 04 05 06 07  08 09 0A 0B 0C 0D 0E 0F
      -- -- -- -- -- -- -- --  -- -- -- -- -- -- -- --
0000: 00                                                .               
```

#### Opcodes

```
  0: 0x0000 [0x00] END_REQSTACK()
```

### Event 3078

#### Metadata

| Field        | Value   |
|--------------|---------|
| Entrypoint   | 0x0001  |
| Data Size    | 1 bytes |
| Instructions | 1       |

```
      00 01 02 03 04 05 06 07  08 09 0A 0B 0C 0D 0E 0F
      -- -- -- -- -- -- -- --  -- -- -- -- -- -- -- --
0000:    00                                              .              
```

#### Opcodes

```
  0: 0x0001 [0x00] END_REQSTACK()
```

### Event 612

#### Metadata

| Field        | Value    |
|--------------|----------|
| Entrypoint   | 0x0002   |
| Data Size    | 47 bytes |
| Instructions | 9        |

```
      00 01 02 03 04 05 06 07  08 09 0A 0B 0C 0D 0E 0F
      -- -- -- -- -- -- -- --  -- -- -- -- -- -- -- --
0000:       1E F0 FF FF 7F 1C  00 80 66 01 80 F8 FF FF    ........f.....
0010: 7F F8 FF FF 7F 74 6C 6B  31 1D 02 80 23 66 01 80  .....tlk1...#f..
0020: F8 FF FF 7F F8 FF FF 7F  74 65 6E 31 1C 00 80 21  ........ten1...!
0030: 00                                                .               
```

#### Opcodes

```
  0: 0x0002 [0x1E] EventEntity looks at LocalPlayer and starts talking
  1: 0x0007 [0x1C] WAIT(30* ticks)
  2: 0x000A [0x66] LOAD_EXT_SCHEDULER_MAIN: Load scheduler "tlk1" with entities [EventEntity, EventEntity], work=0*
  3: 0x0019 [0x1D] PRINT_EVENT_MESSAGE(message_id=9351*)
    → "Welcome to the resplendent Imperial Whitegate.\u0007Commoners are denied entry.\u007F1\u0000\u0007"
  4: 0x001C [0x23] WAIT_FOR_DIALOG_INTERACTION
  5: 0x001D [0x66] LOAD_EXT_SCHEDULER_MAIN: Load scheduler "ten1" with entities [EventEntity, EventEntity], work=0*
  6: 0x002C [0x1C] WAIT(30* ticks)
  7: 0x002F [0x21] END_EVENT
  8: 0x0030 [0x00] END_REQSTACK()
```

### Event 647

#### Metadata

| Field        | Value    |
|--------------|----------|
| Entrypoint   | 0x0031   |
| Data Size    | 18 bytes |
| Instructions | 6        |

```
      00 01 02 03 04 05 06 07  08 09 0A 0B 0C 0D 0E 0F
      -- -- -- -- -- -- -- --  -- -- -- -- -- -- -- --
0030:    1E F0 FF FF 7F 1C 00  80 2B 5F 20 03 01 03 80   ........+_ ....
0040: 23 21 00                                          #!.             
```

#### Opcodes

```
  0: 0x0031 [0x1E] EventEntity looks at LocalPlayer and starts talking
  1: 0x0036 [0x1C] WAIT(30* ticks)
  2: 0x0039 [0x2B] Mafwahb (ID: 16982111/0x0103205F) [9352*]:
    → "The Seagull Phratrie's headquarters are said to be located somewhere on Arrapago Reef, but we have yet to pinpoint their exact location.\u007F1\u0000\u0007"
  3: 0x0040 [0x23] WAIT_FOR_DIALOG_INTERACTION
  4: 0x0041 [0x21] END_EVENT
  5: 0x0042 [0x00] END_REQSTACK()
```

### Event 3081

#### Metadata

| Field        | Value   |
|--------------|---------|
| Entrypoint   | 0x0043  |
| Data Size    | 1 bytes |
| Instructions | 1       |

```
      00 01 02 03 04 05 06 07  08 09 0A 0B 0C 0D 0E 0F
      -- -- -- -- -- -- -- --  -- -- -- -- -- -- -- --
0040:          00                                          .            
```

#### Opcodes

```
  0: 0x0043 [0x00] END_REQSTACK()
```

### Event 65535.1

#### Metadata

| Field        | Value    |
|--------------|----------|
| Entrypoint   | 0x0044   |
| Data Size    | 25 bytes |
| Instructions | 9        |

```
      00 01 02 03 04 05 06 07  08 09 0A 0B 0C 0D 0E 0F
      -- -- -- -- -- -- -- --  -- -- -- -- -- -- -- --
0040:             32 04 80 1F  00 05 80 06 80 07 80 1F      2...........
0050: 01 6F 1C 08 80 1E F0 FF  FF 7F 6F 70 00           .o........op.   
```

#### Opcodes

```
  0: 0x0044 [0x32] ExtData[1]->MainSpeed = 13* * 0.1
  1: 0x0047 [0x1F] MOVE_ENTITY: EventEntity moves to X=151.230*, Z=-1.214*, Y=-2.199*
  2: 0x004F [0x1F] MOVE_ENTITY: Update entity position (mode=1)
  3: 0x0051 [0x6F] WAIT_FRAME_DELAY: Yield until WaitTime reaches zero
  4: 0x0052 [0x1C] WAIT(15* ticks)
  5: 0x0055 [0x1E] EventEntity looks at LocalPlayer and starts talking
  6: 0x005A [0x6F] WAIT_FRAME_DELAY: Yield until WaitTime reaches zero
  7: 0x005B [0x70] WAIT_ENTITY_RENDER_FLAG: Wait while EventEntity->Render.Flags3 bit 2 is set (cancel turn if not)
  8: 0x005C [0x00] END_REQSTACK()
```

### Event 65535.2

#### Metadata

| Field        | Value    |
|--------------|----------|
| Entrypoint   | 0x005D   |
| Data Size    | 31 bytes |
| Instructions | 9        |

```
      00 01 02 03 04 05 06 07  08 09 0A 0B 0C 0D 0E 0F
      -- -- -- -- -- -- -- --  -- -- -- -- -- -- -- --
0050:                                         32 04 80               2..
0060: 1F 00 09 80 0A 80 07 80  1F 01 6F 1C 08 80 4B F8  ..........o...K.
0070: FF FF 7F 0B 80 6F 76 F8  FF FF 7F 00              .....ov.....    
```

#### Opcodes

```
  0: 0x005D [0x32] ExtData[1]->MainSpeed = 13* * 0.1
  1: 0x0060 [0x1F] MOVE_ENTITY: EventEntity moves to X=151.237*, Z=-3.152*, Y=-2.199*
  2: 0x0068 [0x1F] MOVE_ENTITY: Update entity position (mode=1)
  3: 0x006A [0x6F] WAIT_FRAME_DELAY: Yield until WaitTime reaches zero
  4: 0x006B [0x1C] WAIT(15* ticks)
  5: 0x006E [0x4B] UPDATE_ENTITY_YAW(entity=EventEntity, yaw=11.2°*)
  6: 0x0075 [0x6F] WAIT_FRAME_DELAY: Yield until WaitTime reaches zero
  7: 0x0076 [0x76] CHECK_ENTITY_RENDER_FLAGS: Wait until EventEntity Render.Flags0 and Render.Flags3 conditions are met
  8: 0x007B [0x00] END_REQSTACK()
```

### Event 65535.3

#### Metadata

| Field        | Value    |
|--------------|----------|
| Entrypoint   | 0x007C   |
| Data Size    | 20 bytes |
| Instructions | 3        |

```
      00 01 02 03 04 05 06 07  08 09 0A 0B 0C 0D 0E 0F
      -- -- -- -- -- -- -- --  -- -- -- -- -- -- -- --
0070:                                      79 00 F8 FF              y...
0080: FF 7F F8 FF FF 7F 37 09  80 0A 80 07 80 0C 80 00  ......7.........
```

#### Opcodes

```
  0: 0x007C [0x79] EventEntity looks at EventEntity (Basic look)
  1: 0x0086 [0x37] UPDATE_EVENT_POSITION_AND_DIR: x=151.237*, z=-3.152*, y=-2.199*, direction=178.4°*
  2: 0x008F [0x00] END_REQSTACK()
```

### Event 824

#### Metadata

| Field        | Value   |
|--------------|---------|
| Entrypoint   | 0x0090  |
| Data Size    | 1 bytes |
| Instructions | 1       |

```
      00 01 02 03 04 05 06 07  08 09 0A 0B 0C 0D 0E 0F
      -- -- -- -- -- -- -- --  -- -- -- -- -- -- -- --
0090: 00                                                .               
```

#### Opcodes

```
  0: 0x0090 [0x00] END_REQSTACK()
```

### Event 3111

#### Metadata

| Field        | Value   |
|--------------|---------|
| Entrypoint   | 0x0091  |
| Data Size    | 1 bytes |
| Instructions | 1       |

```
      00 01 02 03 04 05 06 07  08 09 0A 0B 0C 0D 0E 0F
      -- -- -- -- -- -- -- --  -- -- -- -- -- -- -- --
0090:    00                                              .              
```

#### Opcodes

```
  0: 0x0091 [0x00] END_REQSTACK()
```

### Event 3114

#### Metadata

| Field        | Value   |
|--------------|---------|
| Entrypoint   | 0x0092  |
| Data Size    | 1 bytes |
| Instructions | 1       |

```
      00 01 02 03 04 05 06 07  08 09 0A 0B 0C 0D 0E 0F
      -- -- -- -- -- -- -- --  -- -- -- -- -- -- -- --
0090:       00                                            .             
```

#### Opcodes

```
  0: 0x0092 [0x00] END_REQSTACK()
```
