# 16982105 - Milazahn

## Common Data

| Field            | Value                         |
|------------------|-------------------------------|
| Zone             | Aht Urhgan Whitegate (ID: 50) |
| Block Size       | 1960 bytes                    |
| Total Events     | 7                             |
| References Count | 52                            |

## List of Events

| Event ID              | Entrypoint   |   Size |   Instructions |
|-----------------------|--------------|--------|----------------|
| [65535](#event-65535) | 0x0000       |      1 |              1 |
| [594](#event-594)     | 0x0001       |   1172 |            156 |
| [596](#event-596)     | 0x0495       |    451 |             52 |
| [610](#event-610)     | 0x0658       |     29 |              7 |
| [611](#event-611)     | 0x0675       |     47 |              9 |
| [774](#event-774)     | 0x06A4       |      7 |              2 |
| [5056](#event-5056)   | 0x06AB       |      1 |              1 |

## DAT References (imed_data)

|   Index | Hex Value   |   Dec Value |
|---------|-------------|-------------|
|       0 | 0x0000      |           0 |
|       1 | 0x00C8      |         200 |
|       2 | 0x0013      |          19 |
|       3 | 0x001E      |          30 |
|       4 | 0x010B      |         267 |
|       5 | 0x003C      |          60 |
|       6 | 0x245F      |        9311 |
|       7 | 0x2460      |        9312 |
|       8 | 0x2461      |        9313 |
|       9 | 0x2462      |        9314 |
|      10 | 0x2463      |        9315 |
|      11 | 0x0001      |           1 |
|      12 | 0x2464      |        9316 |
|      13 | 0x2465      |        9317 |
|      14 | 0x2466      |        9318 |
|      15 | 0x2467      |        9319 |
|      16 | 0x2468      |        9320 |
|      17 | 0x2469      |        9321 |
|      18 | 0x246A      |        9322 |
|      19 | 0x246B      |        9323 |
|      20 | 0x246C      |        9324 |
|      21 | 0x246D      |        9325 |
|      22 | 0x0003      |           3 |
|      23 | 0x002D      |          45 |
|      24 | 0x0026      |          38 |
|      25 | 0x0005      |           5 |
|      26 | 0x246E      |        9326 |
|      27 | 0x246F      |        9327 |
|      28 | 0x2470      |        9328 |
|      29 | 0x2471      |        9329 |
|      30 | 0x2472      |        9330 |
|      31 | 0x2473      |        9331 |
|      32 | 0x005A      |          90 |
|      33 | 0x2474      |        9332 |
|      34 | 0x2475      |        9333 |
|      35 | 0x2476      |        9334 |
|      36 | 0x2477      |        9335 |
|      37 | 0x2478      |        9336 |
|      38 | 0x2479      |        9337 |
|      39 | 0x247A      |        9338 |
|      40 | 0x247B      |        9339 |
|      41 | 0x247C      |        9340 |
|      42 | 0x247D      |        9341 |
|      43 | 0x247E      |        9342 |
|      44 | 0x247F      |        9343 |
|      45 | 0x2480      |        9344 |
|      46 | 0x2481      |        9345 |
|      47 | 0x2482      |        9346 |
|      48 | 0x2483      |        9347 |
|      49 | 0x2484      |        9348 |
|      50 | 0x00C9      |         201 |
|      51 | 0x2485      |        9349 |

## String References

- **9314**: Help him out? [Sure./Not now.]
- **9349**: Bask in the brilliance of Victory Gate. Nothing better represents the glory of the Empire!

## Events

### Event 65535

#### Metadata

| Field        | Value   |
|--------------|---------|
| Entrypoint   | 0x0000  |
| Data Size    | 1 bytes |
| Instructions | 1       |

```
      00 01 02 03 04 05 06 07  08 09 0A 0B 0C 0D 0E 0F
      -- -- -- -- -- -- -- --  -- -- -- -- -- -- -- --
0000: 00                                                .               
```

#### Opcodes

```
  0: 0x0000 [0x00] END_REQSTACK()
```

### Event 594

#### Metadata

| Field        | Value      |
|--------------|------------|
| Entrypoint   | 0x0001     |
| Data Size    | 1172 bytes |
| Instructions | 155        |

```
      00 01 02 03 04 05 06 07  08 09 0A 0B 0C 0D 0E 0F
      -- -- -- -- -- -- -- --  -- -- -- -- -- -- -- --
0000:    03 00 00 00 80 42 45  01 80 F8 FF FF 7F F8 FF   .....BE........
0010: FF 7F 66 64 6F 31 00 80  55 01 80 F8 FF FF 7F F8  ..fdo1..U.......
0020: FF FF 7F 66 64 6F 31 46  01 38 02 80 29 0A F0 FF  ...fdo1F.8..)...
0030: FF 7F CB 92 01 59 20 03  01 92 01 64 20 03 01 92  .....Y ....d ...
0040: 01 2F 21 03 01 92 01 2C  21 03 01 92 01 14 21 03  ./!....,!.....!.
0050: 01 92 01 7B 20 03 01 92  01 49 20 03 01 92 01 4A  ...{ ....I ....J
0060: 20 03 01 4A 59 20 03 01  F0 FF FF 7F 4A F0 FF FF   ..JY ......J...
0070: 7F 59 20 03 01 80 F0 FF  FF 7F 80 64 20 03 01 1C  .Y ........d ...
0080: 03 80 45 04 80 F0 FF FF  7F F0 FF FF 7F 79 30 30  ..E..........y00
0090: 30 00 80 45 01 80 F8 FF  FF 7F F8 FF FF 7F 66 64  0..E..........fd
00A0: 69 31 00 80 1C 05 80 2B  59 20 03 01 06 80 23 2B  i1.....+Y ....#+
00B0: 59 20 03 01 07 80 23 52  04 80 F0 FF FF 7F F0 FF  Y ....#R........
00C0: FF 7F 79 30 30 30 45 04  80 F0 FF FF 7F F0 FF FF  ..y000E.........
00D0: 7F 79 30 30 31 00 80 1C  03 80 2B 59 20 03 01 08  .y001.....+Y ...
00E0: 80 23 24 09 80 00 80 00  80 25 02 00 10 00 80 00  .#$......%......
00F0: 02 01 2B 59 20 03 01 0A  80 23 03 00 00 0B 80 01  ..+Y ....#......
0100: 18 01 02 00 10 0B 80 00  18 01 2B 59 20 03 01 0C  ..........+Y ...
0110: 80 23 01 5D 04 01 18 01  45 01 80 F8 FF FF 7F F8  .#.]....E.......
0120: FF FF 7F 6F 76 6C 32 00  80 52 04 80 F0 FF FF 7F  ...ovl2..R......
0130: F0 FF FF 7F 79 30 30 31  45 04 80 F0 FF FF 7F F0  ....y001E.......
0140: FF FF 7F 79 30 30 32 00  80 1C 05 80 2B 59 20 03  ...y002.....+Y .
0150: 01 0D 80 23 2B 59 20 03  01 0E 80 23 2B 59 20 03  ...#+Y ....#+Y .
0160: 01 0F 80 23 52 04 80 F0  FF FF 7F F0 FF FF 7F 79  ...#R..........y
0170: 30 30 32 45 04 80 F0 FF  FF 7F F0 FF FF 7F 79 30  002E..........y0
0180: 30 34 00 80 66 00 80 59  20 03 01 59 20 03 01 74  04..f..Y ..Y ..t
0190: 6C 6B 30 2B 59 20 03 01  10 80 23 2B 59 20 03 01  lk0+Y ....#+Y ..
01A0: 11 80 23 2B 59 20 03 01  12 80 23 66 00 80 59 20  ..#+Y ....#f..Y 
01B0: 03 01 59 20 03 01 74 65  6E 30 52 04 80 F0 FF FF  ..Y ..ten0R.....
01C0: 7F F0 FF FF 7F 79 30 30  34 4E 00 64 20 03 01 2F  .....y004N.d ../
01D0: 00 64 20 03 01 45 04 80  F0 FF FF 7F F0 FF FF 7F  .d ..E..........
01E0: 79 30 30 33 00 80 66 00  80 59 20 03 01 59 20 03  y003..f..Y ..Y .
01F0: 01 74 68 6B 31 2B 59 20  03 01 13 80 23 2B 59 20  .thk1+Y ....#+Y 
0200: 03 01 14 80 23 2B 59 20  03 01 15 80 23 66 00 80  ....#+Y ....#f..
0210: 59 20 03 01 59 20 03 01  74 68 6B 32 66 16 80 64  Y ..Y ..thk2f..d
0220: 20 03 01 64 20 03 01 73  67 6D 30 1C 17 80 45 04   ..d ..sgm0...E.
0230: 80 F0 FF FF 7F F0 FF FF  7F 64 6F 73 61 00 80 1C  .........dosa...
0240: 17 80 4A 59 20 03 01 64  20 03 01 52 04 80 F0 FF  ..JY ..d ..R....
0250: FF 7F F0 FF FF 7F 79 30  30 33 45 04 80 F0 FF FF  ......y003E.....
0260: 7F F0 FF FF 7F 79 30 30  35 00 80 6E 59 20 03 01  .....y005..nY ..
0270: 18 80 99 59 20 03 01 66  19 80 59 20 03 01 59 20  ...Y ..f..Y ..Y 
0280: 03 01 74 6C 62 30 2B 59  20 03 01 1A 80 23 66 19  ..tlb0+Y ....#f.
0290: 80 59 20 03 01 59 20 03  01 74 6C 62 31 2B 64 20  .Y ..Y ..tlb1+d 
02A0: 03 01 1B 80 23 2B 64 20  03 01 1C 80 23 52 04 80  ....#+d ....#R..
02B0: F0 FF FF 7F F0 FF FF 7F  79 30 30 35 45 04 80 F0  ........y005E...
02C0: FF FF 7F F0 FF FF 7F 79  30 30 36 00 80 2B 59 20  .......y006..+Y 
02D0: 03 01 1D 80 23 2B 64 20  03 01 1E 80 23 2B 59 20  ....#+d ....#+Y 
02E0: 03 01 1F 80 23 52 04 80  F0 FF FF 7F F0 FF FF 7F  ....#R..........
02F0: 79 30 30 36 45 04 80 F0  FF FF 7F F0 FF FF 7F 79  y006E..........y
0300: 30 30 37 00 80 1C 20 80  2B 64 20 03 01 21 80 23  007... .+d ..!.#
0310: 52 04 80 F0 FF FF 7F F0  FF FF 7F 79 30 30 37 45  R..........y007E
0320: 04 80 F0 FF FF 7F F0 FF  FF 7F 79 30 30 38 00 80  ..........y008..
0330: 1C 20 80 2B 59 20 03 01  22 80 23 1C 05 80 2B 59  . .+Y ..".#...+Y
0340: 20 03 01 23 80 23 52 04  80 F0 FF FF 7F F0 FF FF   ..#.#R.........
0350: 7F 79 30 30 38 45 04 80  F0 FF FF 7F F0 FF FF 7F  .y008E..........
0360: 79 30 30 39 00 80 4A 59  20 03 01 F0 FF FF 7F 66  y009..JY ......f
0370: 19 80 59 20 03 01 59 20  03 01 74 6C 62 30 2B 59  ..Y ..Y ..tlb0+Y
0380: 20 03 01 24 80 23 2B 59  20 03 01 25 80 23 1C 05   ..$.#+Y ..%.#..
0390: 80 2B 59 20 03 01 26 80  23 2B 59 20 03 01 27 80  .+Y ..&.#+Y ..'.
03A0: 23 66 19 80 59 20 03 01  59 20 03 01 74 6C 62 31  #f..Y ..Y ..tlb1
03B0: 52 04 80 F0 FF FF 7F F0  FF FF 7F 79 30 30 39 45  R..........y009E
03C0: 04 80 F0 FF FF 7F F0 FF  FF 7F 79 30 31 30 00 80  ..........y010..
03D0: 66 19 80 59 20 03 01 59  20 03 01 74 6C 6B 31 2B  f..Y ..Y ..tlk1+
03E0: 59 20 03 01 28 80 23 2B  59 20 03 01 29 80 23 66  Y ..(.#+Y ..).#f
03F0: 19 80 59 20 03 01 59 20  03 01 74 65 6E 31 2B 59  ..Y ..Y ..ten1+Y
0400: 20 03 01 2A 80 23 1C 20  80 02 00 00 0B 80 00 16   ..*.#. ........
0410: 04 03 01 10 0B 80 45 01  80 F8 FF FF 7F F8 FF FF  ......E.........
0420: 7F 66 64 6F 31 00 80 55  01 80 F8 FF FF 7F F8 FF  .fdo1..U........
0430: FF 7F 66 64 6F 31 1C 03  80 52 04 80 F0 FF FF 7F  ..fdo1...R......
0440: F0 FF FF 7F 79 30 31 30  46 00 45 01 80 F8 FF FF  ....y010F.E.....
0450: 7F F8 FF FF 7F 66 64 69  31 00 80 21 00 45 01 80  .....fdi1..!.E..
0460: F8 FF FF 7F F8 FF FF 7F  66 64 6F 31 00 80 55 01  ........fdo1..U.
0470: 80 F8 FF FF 7F F8 FF FF  7F 66 64 6F 31 1C 03 80  .........fdo1...
0480: 46 00 45 01 80 F0 FF FF  7F F0 FF FF 7F 66 64 69  F.E..........fdi
0490: 32 00 80 21 00                                    2..!.           
```

#### Opcodes

```
  0: 0x0001 [0x03] ExtData[1]->WorkLocal[0] = 0*
  1: 0x0006 [0x42] SET_CLI_EVENT_CANCEL_DATA()
  2: 0x0007 [0x45] LOAD_SCHEDULED_TASK: Load scheduler "fdo1" with entities [EventEntity, EventEntity], work=[200*, 0*]
  3: 0x0018 [0x55] WAIT_LOAD_SCHEDULER: Wait for scheduler "fdo1" with entities [EventEntity, EventEntity], work=200*
  4: 0x0027 [0x46] CAMERA_CONTROL: Disable user control
  5: 0x0029 [0x38] SET_CLIENT_EVENT_MODE(mode=19*)
  6: 0x002C [0x29] REQ_SET_WAIT(priority=0x0A, entity_id=LocalPlayer, tag_num=0xCB)
  7: 0x0033 [0x92] Milazahn (ID: 16982105/0x01032059)->Render.Flags3 ^= 0x01
  8: 0x0039 [0x92] Ahtuuzah (ID: 16982116/0x01032064)->Render.Flags3 ^= 0x01
  9: 0x003F [0x92] Tehf Kimasnahya (ID: 16982319/0x0103212F)->Render.Flags3 ^= 0x01
 10: 0x0045 [0x92] Zabahf (ID: 16982316/0x0103212C)->Render.Flags3 ^= 0x01
 11: 0x004B [0x92] Dkhaaya (ID: 16982292/0x01032114)->Render.Flags3 ^= 0x01
 12: 0x0051 [0x92] Rujen-Gorgen (ID: 16982139/0x0103207B)->Render.Flags3 ^= 0x01
 13: 0x0057 [0x92] Malfud (ID: 16982089/0x01032049)->Render.Flags3 ^= 0x01
 14: 0x005D [0x92] Rubahah (ID: 16982090/0x0103204A)->Render.Flags3 ^= 0x01
 15: 0x0063 [0x4A] Milazahn (ID: 16982105/0x01032059) looks at LocalPlayer
 16: 0x006C [0x4A] LocalPlayer looks at Milazahn (ID: 16982105/0x01032059)
 17: 0x0075 [0x80] LOAD_WAIT(entity=LocalPlayer)
 18: 0x007A [0x80] LOAD_WAIT(entity=Ahtuuzah (ID: 16982116/0x01032064))
 19: 0x007F [0x1C] WAIT(30* ticks)
 20: 0x0082 [0x45] LOAD_SCHEDULED_TASK: Load scheduler "y000" with entities [LocalPlayer, LocalPlayer], work=[267*, 0*]
 21: 0x0093 [0x45] LOAD_SCHEDULED_TASK: Load scheduler "fdi1" with entities [EventEntity, EventEntity], work=[200*, 0*]
 22: 0x00A4 [0x1C] WAIT(60* ticks)
 23: 0x00A7 [0x2B] Milazahn (ID: 16982105/0x01032059) [9311*]:
    → "You're an adventurer, aren't you?"
 24: 0x00AE [0x23] WAIT_FOR_DIALOG_INTERACTION
 25: 0x00AF [0x2B] Milazahn (ID: 16982105/0x01032059) [9312*]:
    → "You look pretty strong, too..."
 26: 0x00B6 [0x23] WAIT_FOR_DIALOG_INTERACTION
 27: 0x00B7 [0x52] END_LOAD_SCHEDULER: End scheduler "y000" with entities [LocalPlayer, LocalPlayer], work=267*
 28: 0x00C6 [0x45] LOAD_SCHEDULED_TASK: Load scheduler "y001" with entities [LocalPlayer, LocalPlayer], work=[267*, 0*]
 29: 0x00D7 [0x1C] WAIT(30* ticks)
 30: 0x00DA [0x2B] Milazahn (ID: 16982105/0x01032059) [9313*]:
    → "To tell the truth, I've got a personal request... Would you like to hear it?"
 31: 0x00E1 [0x23] WAIT_FOR_DIALOG_INTERACTION
 32: 0x00E2 [0x24] CREATE_DIALOG(message_id=9314*, default_option=0*, option_flags=0*)
    → "Help him out? [Sure./Not now.]"
 33: 0x00E9 [0x25] WAIT_DIALOG_SELECT()
 34: 0x00EA [0x02] IF !(Work_Zone[0] == 0*) GOTO 0x0102
 35: 0x00F2 [0x2B] Milazahn (ID: 16982105/0x01032059) [9315*]:
    → "Oh, thank you!"
 36: 0x00F9 [0x23] WAIT_FOR_DIALOG_INTERACTION
 37: 0x00FA [0x03] ExtData[1]->WorkLocal[0] = 1*
 38: 0x00FF [0x01] GOTO 0x0118
 39: 0x0102 [0x02] IF !(Work_Zone[0] == 1*) GOTO 0x0118
 40: 0x010A [0x2B] Milazahn (ID: 16982105/0x01032059) [9316*]:
    → "Oh well, I'm not going to force you into anything. Just let me know if you change your mind."
 41: 0x0111 [0x23] WAIT_FOR_DIALOG_INTERACTION
 42: 0x0112 [0x01] GOTO 0x045D

SUBROUTINE_0118:
 43: 0x0118 [0x45] LOAD_SCHEDULED_TASK: Load scheduler "ovl2" with entities [EventEntity, EventEntity], work=[200*, 0*]
 44: 0x0129 [0x52] END_LOAD_SCHEDULER: End scheduler "y001" with entities [LocalPlayer, LocalPlayer], work=267*
 45: 0x0138 [0x45] LOAD_SCHEDULED_TASK: Load scheduler "y002" with entities [LocalPlayer, LocalPlayer], work=[267*, 0*]
 46: 0x0149 [0x1C] WAIT(60* ticks)
 47: 0x014C [0x2B] Milazahn (ID: 16982105/0x01032059) [9317*]:
    → "Anyway, I'm sure you've noticed that Al Zahbi isn't very peaceful..."
 48: 0x0153 [0x23] WAIT_FOR_DIALOG_INTERACTION
 49: 0x0154 [0x2B] Milazahn (ID: 16982105/0x01032059) [9318*]:
    → "We're doing our best to ensure the residents' safety, but there are simply too many lawbreakers to handle..."
 50: 0x015B [0x23] WAIT_FOR_DIALOG_INTERACTION
 51: 0x015C [0x2B] Milazahn (ID: 16982105/0x01032059) [9319*]:
    → "There are always problems coming in by the bucketload, but among them..."
 52: 0x0163 [0x23] WAIT_FOR_DIALOG_INTERACTION
 53: 0x0164 [0x52] END_LOAD_SCHEDULER: End scheduler "y002" with entities [LocalPlayer, LocalPlayer], work=267*
 54: 0x0173 [0x45] LOAD_SCHEDULED_TASK: Load scheduler "y004" with entities [LocalPlayer, LocalPlayer], work=[267*, 0*]
 55: 0x0184 [0x66] LOAD_EXT_SCHEDULER_MAIN: Load scheduler "tlk0" with entities [Milazahn (ID: 16982105/0x01032059), Milazahn (ID: 16982105/0x01032059)], work=0*
 56: 0x0193 [0x2B] Milazahn (ID: 16982105/0x01032059) [9320*]:
    → "The other day, a guy named Duuruhn went missing while undergoing an investigation of the infamous "Two Horn.""
 57: 0x019A [0x23] WAIT_FOR_DIALOG_INTERACTION
 58: 0x019B [0x2B] Milazahn (ID: 16982105/0x01032059) [9321*]:
    → "You've never heard of Two Horn? Two Horn's the leader of a gang of hot-blooded hooligans..."
 59: 0x01A2 [0x23] WAIT_FOR_DIALOG_INTERACTION
 60: 0x01A3 [0x2B] Milazahn (ID: 16982105/0x01032059) [9322*]:
    → "I've heard frightening things...that Two Horn is a Galka as big as a Troll, and hefts an enormous two-handed axe..."
 61: 0x01AA [0x23] WAIT_FOR_DIALOG_INTERACTION
 62: 0x01AB [0x66] LOAD_EXT_SCHEDULER_MAIN: Load scheduler "ten0" with entities [Milazahn (ID: 16982105/0x01032059), Milazahn (ID: 16982105/0x01032059)], work=0*
 63: 0x01BA [0x52] END_LOAD_SCHEDULER: End scheduler "y004" with entities [LocalPlayer, LocalPlayer], work=267*
 64: 0x01C9 [0x4E] SET_ENTITY_HIDE_FLAG: Show Ahtuuzah (ID: 16982116/0x01032064)
 65: 0x01CF [0x2F] Ahtuuzah (ID: 16982116/0x01032064)->Render.Flags0 &= ~0x80000 // Bit 19
 66: 0x01D5 [0x45] LOAD_SCHEDULED_TASK: Load scheduler "y003" with entities [LocalPlayer, LocalPlayer], work=[267*, 0*]
 67: 0x01E6 [0x66] LOAD_EXT_SCHEDULER_MAIN: Load scheduler "thk1" with entities [Milazahn (ID: 16982105/0x01032059), Milazahn (ID: 16982105/0x01032059)], work=0*
 68: 0x01F5 [0x2B] Milazahn (ID: 16982105/0x01032059) [9323*]:
    → "Anyway, they're all just rumors, and no one actually knows who Two Horn really is."
 69: 0x01FC [0x23] WAIT_FOR_DIALOG_INTERACTION
 70: 0x01FD [0x2B] Milazahn (ID: 16982105/0x01032059) [9324*]:
    → "Duuruhn was supposed to be investigating the matter, but all contact with him has been broken off since yesterday."
 71: 0x0204 [0x23] WAIT_FOR_DIALOG_INTERACTION
 72: 0x0205 [0x2B] Milazahn (ID: 16982105/0x01032059) [9325*]:
    → "We sent his friend Ahtuuzah after him not long ago, but..."
 73: 0x020C [0x23] WAIT_FOR_DIALOG_INTERACTION
 74: 0x020D [0x66] LOAD_EXT_SCHEDULER_MAIN: Load scheduler "thk2" with entities [Milazahn (ID: 16982105/0x01032059), Milazahn (ID: 16982105/0x01032059)], work=0*
 75: 0x021C [0x66] LOAD_EXT_SCHEDULER_MAIN: Load scheduler "sgm0" with entities [Ahtuuzah (ID: 16982116/0x01032064), Ahtuuzah (ID: 16982116/0x01032064)], work=3*
 76: 0x022B [0x1C] WAIT(45* ticks)
 77: 0x022E [0x45] LOAD_SCHEDULED_TASK: Load scheduler "dosa" with entities [LocalPlayer, LocalPlayer], work=[267*, 0*]
 78: 0x023F [0x1C] WAIT(45* ticks)
 79: 0x0242 [0x4A] Milazahn (ID: 16982105/0x01032059) looks at Ahtuuzah (ID: 16982116/0x01032064)
 80: 0x024B [0x52] END_LOAD_SCHEDULER: End scheduler "y003" with entities [LocalPlayer, LocalPlayer], work=267*
 81: 0x025A [0x45] LOAD_SCHEDULED_TASK: Load scheduler "y005" with entities [LocalPlayer, LocalPlayer], work=[267*, 0*]
 82: 0x026B [0x6E] Milazahn (ID: 16982105/0x01032059) uses emote 38*
 83: 0x0272 [0x99] Wait for Milazahn (ID: 16982105/0x01032059) animation to complete
 84: 0x0277 [0x66] LOAD_EXT_SCHEDULER_MAIN: Load scheduler "tlb0" with entities [Milazahn (ID: 16982105/0x01032059), Milazahn (ID: 16982105/0x01032059)], work=5*
 85: 0x0286 [0x2B] Milazahn (ID: 16982105/0x01032059) [9326*]:
    → "What's happened? Are you all right!?"
 86: 0x028D [0x23] WAIT_FOR_DIALOG_INTERACTION
 87: 0x028E [0x66] LOAD_EXT_SCHEDULER_MAIN: Load scheduler "tlb1" with entities [Milazahn (ID: 16982105/0x01032059), Milazahn (ID: 16982105/0x01032059)], work=5*
 88: 0x029D [0x2B] Ahtuuzah (ID: 16982116/0x01032064) [9327*]:
    → "It's no use... I followed one of Two Horn's henchmen as far as Mamook, but they caught on..."
 89: 0x02A4 [0x23] WAIT_FOR_DIALOG_INTERACTION
 90: 0x02A5 [0x2B] Ahtuuzah (ID: 16982116/0x01032064) [9328*]:
    → "They caught me off guard..."
 91: 0x02AC [0x23] WAIT_FOR_DIALOG_INTERACTION
 92: 0x02AD [0x52] END_LOAD_SCHEDULER: End scheduler "y005" with entities [LocalPlayer, LocalPlayer], work=267*
 93: 0x02BC [0x45] LOAD_SCHEDULED_TASK: Load scheduler "y006" with entities [LocalPlayer, LocalPlayer], work=[267*, 0*]
 94: 0x02CD [0x2B] Milazahn (ID: 16982105/0x01032059) [9329*]:
    → "This is terrible... Did you manage to catch a glimpse of Two Horn?"
 95: 0x02D4 [0x23] WAIT_FOR_DIALOG_INTERACTION
 96: 0x02D5 [0x2B] Ahtuuzah (ID: 16982116/0x01032064) [9330*]:
    → "I did...manage that. Two Horn is..."
 97: 0x02DC [0x23] WAIT_FOR_DIALOG_INTERACTION
 98: 0x02DD [0x2B] Milazahn (ID: 16982105/0x01032059) [9331*]:
    → "Is...?"
 99: 0x02E4 [0x23] WAIT_FOR_DIALOG_INTERACTION
100: 0x02E5 [0x52] END_LOAD_SCHEDULER: End scheduler "y006" with entities [LocalPlayer, LocalPlayer], work=267*
101: 0x02F4 [0x45] LOAD_SCHEDULED_TASK: Load scheduler "y007" with entities [LocalPlayer, LocalPlayer], work=[267*, 0*]
102: 0x0305 [0x1C] WAIT(90* ticks)
103: 0x0308 [0x2B] Ahtuuzah (ID: 16982116/0x01032064) [9332*]:
    → "A Mamool Ja...an...absolutely terrifying Mamool Ja..."
104: 0x030F [0x23] WAIT_FOR_DIALOG_INTERACTION
105: 0x0310 [0x52] END_LOAD_SCHEDULER: End scheduler "y007" with entities [LocalPlayer, LocalPlayer], work=267*
106: 0x031F [0x45] LOAD_SCHEDULED_TASK: Load scheduler "y008" with entities [LocalPlayer, LocalPlayer], work=[267*, 0*]
107: 0x0330 [0x1C] WAIT(90* ticks)
108: 0x0333 [0x2B] Milazahn (ID: 16982105/0x01032059) [9333*]:
    → "Mamool Ja?"
109: 0x033A [0x23] WAIT_FOR_DIALOG_INTERACTION
110: 0x033B [0x1C] WAIT(60* ticks)
111: 0x033E [0x2B] Milazahn (ID: 16982105/0x01032059) [9334*]:
    → "After this much time has passed, Duuruhn must be..."
112: 0x0345 [0x23] WAIT_FOR_DIALOG_INTERACTION
113: 0x0346 [0x52] END_LOAD_SCHEDULER: End scheduler "y008" with entities [LocalPlayer, LocalPlayer], work=267*
114: 0x0355 [0x45] LOAD_SCHEDULED_TASK: Load scheduler "y009" with entities [LocalPlayer, LocalPlayer], work=[267*, 0*]
115: 0x0366 [0x4A] Milazahn (ID: 16982105/0x01032059) looks at LocalPlayer
116: 0x036F [0x66] LOAD_EXT_SCHEDULER_MAIN: Load scheduler "tlb0" with entities [Milazahn (ID: 16982105/0x01032059), Milazahn (ID: 16982105/0x01032059)], work=5*
117: 0x037E [0x2B] Milazahn (ID: 16982105/0x01032059) [9335*]:
    → "No, I refuse to believe it. We must hurry."
118: 0x0385 [0x23] WAIT_FOR_DIALOG_INTERACTION
119: 0x0386 [0x2B] Milazahn (ID: 16982105/0x01032059) [9336*]:
    → "Adventurer, this is the task I lay before you. Please investigate this matter."
120: 0x038D [0x23] WAIT_FOR_DIALOG_INTERACTION
121: 0x038E [0x1C] WAIT(60* ticks)
122: 0x0391 [0x2B] Milazahn (ID: 16982105/0x01032059) [9337*]:
    → "Unfortunately, I think this may be the toughest problem we have ever faced..."
123: 0x0398 [0x23] WAIT_FOR_DIALOG_INTERACTION
124: 0x0399 [0x2B] Milazahn (ID: 16982105/0x01032059) [9338*]:
    → "It would be wise to stop by the information center before you go. The Qiqirn who works there may have some useful information."
125: 0x03A0 [0x23] WAIT_FOR_DIALOG_INTERACTION
126: 0x03A1 [0x66] LOAD_EXT_SCHEDULER_MAIN: Load scheduler "tlb1" with entities [Milazahn (ID: 16982105/0x01032059), Milazahn (ID: 16982105/0x01032059)], work=5*
127: 0x03B0 [0x52] END_LOAD_SCHEDULER: End scheduler "y009" with entities [LocalPlayer, LocalPlayer], work=267*
128: 0x03BF [0x45] LOAD_SCHEDULED_TASK: Load scheduler "y010" with entities [LocalPlayer, LocalPlayer], work=[267*, 0*]
129: 0x03D0 [0x66] LOAD_EXT_SCHEDULER_MAIN: Load scheduler "tlk1" with entities [Milazahn (ID: 16982105/0x01032059), Milazahn (ID: 16982105/0x01032059)], work=5*
130: 0x03DF [0x2B] Milazahn (ID: 16982105/0x01032059) [9339*]:
    → "And remember, this is top secret."
131: 0x03E6 [0x23] WAIT_FOR_DIALOG_INTERACTION
132: 0x03E7 [0x2B] Milazahn (ID: 16982105/0x01032059) [9340*]:
    → "No one must know that a soldier of the Imperial Army was done in by the Mamool Ja..."
133: 0x03EE [0x23] WAIT_FOR_DIALOG_INTERACTION
134: 0x03EF [0x66] LOAD_EXT_SCHEDULER_MAIN: Load scheduler "ten1" with entities [Milazahn (ID: 16982105/0x01032059), Milazahn (ID: 16982105/0x01032059)], work=5*
135: 0x03FE [0x2B] Milazahn (ID: 16982105/0x01032059) [9341*]:
    → "I wish you luck, adventurer."
136: 0x0405 [0x23] WAIT_FOR_DIALOG_INTERACTION
137: 0x0406 [0x1C] WAIT(90* ticks)
138: 0x0409 [0x02] IF !(ExtData[1]->WorkLocal[0] == 1*) GOTO 0x0416
139: 0x0411 [0x03] Work_Zone[1] = 1*
140: 0x0416 [0x45] LOAD_SCHEDULED_TASK: Load scheduler "fdo1" with entities [EventEntity, EventEntity], work=[200*, 0*]
141: 0x0427 [0x55] WAIT_LOAD_SCHEDULER: Wait for scheduler "fdo1" with entities [EventEntity, EventEntity], work=200*
142: 0x0436 [0x1C] WAIT(30* ticks)
143: 0x0439 [0x52] END_LOAD_SCHEDULER: End scheduler "y010" with entities [LocalPlayer, LocalPlayer], work=267*
144: 0x0448 [0x46] CAMERA_CONTROL: Restore default settings
145: 0x044A [0x45] LOAD_SCHEDULED_TASK: Load scheduler "fdi1" with entities [EventEntity, EventEntity], work=[200*, 0*]
146: 0x045B [0x21] END_EVENT
147: 0x045C [0x00] END_REQSTACK()

SUBROUTINE_045D:
148: 0x045D [0x45] LOAD_SCHEDULED_TASK: Load scheduler "fdo1" with entities [EventEntity, EventEntity], work=[200*, 0*]
149: 0x046E [0x55] WAIT_LOAD_SCHEDULER: Wait for scheduler "fdo1" with entities [EventEntity, EventEntity], work=200*
150: 0x047D [0x1C] WAIT(30* ticks)
151: 0x0480 [0x46] CAMERA_CONTROL: Restore default settings
152: 0x0482 [0x45] LOAD_SCHEDULED_TASK: Load scheduler "fdi2" with entities [LocalPlayer, LocalPlayer], work=[200*, 0*]
153: 0x0493 [0x21] END_EVENT
154: 0x0494 [0x00] END_REQSTACK()
```

#### Data or dead code:

```
# Dead code (unreachable instructions):
     0x0115 [0x01] GOTO 0x0118
```

### Event 596

#### Metadata

| Field        | Value     |
|--------------|-----------|
| Entrypoint   | 0x0495    |
| Data Size    | 451 bytes |
| Instructions | 52        |

```
      00 01 02 03 04 05 06 07  08 09 0A 0B 0C 0D 0E 0F
      -- -- -- -- -- -- -- --  -- -- -- -- -- -- -- --
0490:                42 45 01  80 F8 FF FF 7F F8 FF FF       BE.........
04A0: 7F 66 64 6F 31 00 80 55  01 80 F8 FF FF 7F F8 FF  .fdo1..U........
04B0: FF 7F 66 64 6F 31 46 01  38 02 80 29 0A F0 FF FF  ..fdo1F.8..)....
04C0: 7F CB 92 01 59 20 03 01  4A 59 20 03 01 F0 FF FF  ....Y ..JY .....
04D0: 7F 80 F0 FF FF 7F 80 59  20 03 01 1C 03 80 45 04  .......Y .....E.
04E0: 80 F0 FF FF 7F F0 FF FF  7F 79 30 31 31 00 80 45  .........y011..E
04F0: 01 80 F8 FF FF 7F F8 FF  FF 7F 66 64 69 31 00 80  ..........fdi1..
0500: 1C 05 80 66 00 80 59 20  03 01 59 20 03 01 74 6C  ...f..Y ..Y ..tl
0510: 6B 30 2B 59 20 03 01 2B  80 23 2B 59 20 03 01 2C  k0+Y ..+.#+Y ..,
0520: 80 23 66 00 80 59 20 03  01 59 20 03 01 74 65 6E  .#f..Y ..Y ..ten
0530: 30 45 01 80 F8 FF FF 7F  F8 FF FF 7F 6F 76 6C 32  0E..........ovl2
0540: 00 80 52 04 80 F0 FF FF  7F F0 FF FF 7F 79 30 31  ..R..........y01
0550: 31 45 04 80 F0 FF FF 7F  F0 FF FF 7F 79 30 31 32  1E..........y012
0560: 00 80 1C 05 80 2B 59 20  03 01 2D 80 23 66 00 80  .....+Y ..-.#f..
0570: 59 20 03 01 59 20 03 01  74 68 6B 31 2B 59 20 03  Y ..Y ..thk1+Y .
0580: 01 2E 80 23 52 04 80 F0  FF FF 7F F0 FF FF 7F 79  ...#R..........y
0590: 30 31 32 45 04 80 F0 FF  FF 7F F0 FF FF 7F 79 30  012E..........y0
05A0: 31 33 00 80 2B 59 20 03  01 2F 80 23 66 00 80 59  13..+Y ../.#f..Y
05B0: 20 03 01 59 20 03 01 74  68 6B 32 2B 59 20 03 01   ..Y ..thk2+Y ..
05C0: 30 80 23 52 04 80 F0 FF  FF 7F F0 FF FF 7F 79 30  0.#R..........y0
05D0: 31 33 45 04 80 F0 FF FF  7F F0 FF FF 7F 79 30 31  13E..........y01
05E0: 34 00 80 1C 05 80 66 00  80 59 20 03 01 59 20 03  4.....f..Y ..Y .
05F0: 01 70 61 73 30 2B 59 20  03 01 31 80 23 1C 20 80  .pas0+Y ..1.#. .
0600: 45 01 80 F8 FF FF 7F F8  FF FF 7F 66 64 6F 31 00  E..........fdo1.
0610: 80 55 01 80 F8 FF FF 7F  F8 FF FF 7F 66 64 6F 31  .U..........fdo1
0620: 45 32 80 F8 FF FF 7F F8  FF FF 7F 71 73 74 63 00  E2.........qstc.
0630: 80 1C 03 80 52 04 80 F0  FF FF 7F F0 FF FF 7F 79  ....R..........y
0640: 30 31 34 46 00 45 01 80  F8 FF FF 7F F8 FF FF 7F  014F.E..........
0650: 66 64 69 31 00 80 21 00                           fdi1..!.        
```

#### Opcodes

```
  0: 0x0495 [0x42] SET_CLI_EVENT_CANCEL_DATA()
  1: 0x0496 [0x45] LOAD_SCHEDULED_TASK: Load scheduler "fdo1" with entities [EventEntity, EventEntity], work=[200*, 0*]
  2: 0x04A7 [0x55] WAIT_LOAD_SCHEDULER: Wait for scheduler "fdo1" with entities [EventEntity, EventEntity], work=200*
  3: 0x04B6 [0x46] CAMERA_CONTROL: Disable user control
  4: 0x04B8 [0x38] SET_CLIENT_EVENT_MODE(mode=19*)
  5: 0x04BB [0x29] REQ_SET_WAIT(priority=0x0A, entity_id=LocalPlayer, tag_num=0xCB)
  6: 0x04C2 [0x92] Milazahn (ID: 16982105/0x01032059)->Render.Flags3 ^= 0x01
  7: 0x04C8 [0x4A] Milazahn (ID: 16982105/0x01032059) looks at LocalPlayer
  8: 0x04D1 [0x80] LOAD_WAIT(entity=LocalPlayer)
  9: 0x04D6 [0x80] LOAD_WAIT(entity=Milazahn (ID: 16982105/0x01032059))
 10: 0x04DB [0x1C] WAIT(30* ticks)
 11: 0x04DE [0x45] LOAD_SCHEDULED_TASK: Load scheduler "y011" with entities [LocalPlayer, LocalPlayer], work=[267*, 0*]
 12: 0x04EF [0x45] LOAD_SCHEDULED_TASK: Load scheduler "fdi1" with entities [EventEntity, EventEntity], work=[200*, 0*]
 13: 0x0500 [0x1C] WAIT(60* ticks)
 14: 0x0503 [0x66] LOAD_EXT_SCHEDULER_MAIN: Load scheduler "tlk0" with entities [Milazahn (ID: 16982105/0x01032059), Milazahn (ID: 16982105/0x01032059)], work=0*
 15: 0x0512 [0x2B] Milazahn (ID: 16982105/0x01032059) [9342*]:
    → "You made it back alive?"
 16: 0x0519 [0x23] WAIT_FOR_DIALOG_INTERACTION
 17: 0x051A [0x2B] Milazahn (ID: 16982105/0x01032059) [9343*]:
    → "H-how was it?"
 18: 0x0521 [0x23] WAIT_FOR_DIALOG_INTERACTION
 19: 0x0522 [0x66] LOAD_EXT_SCHEDULER_MAIN: Load scheduler "ten0" with entities [Milazahn (ID: 16982105/0x01032059), Milazahn (ID: 16982105/0x01032059)], work=0*
 20: 0x0531 [0x45] LOAD_SCHEDULED_TASK: Load scheduler "ovl2" with entities [EventEntity, EventEntity], work=[200*, 0*]
 21: 0x0542 [0x52] END_LOAD_SCHEDULER: End scheduler "y011" with entities [LocalPlayer, LocalPlayer], work=267*
 22: 0x0551 [0x45] LOAD_SCHEDULED_TASK: Load scheduler "y012" with entities [LocalPlayer, LocalPlayer], work=[267*, 0*]
 23: 0x0562 [0x1C] WAIT(60* ticks)
 24: 0x0565 [0x2B] Milazahn (ID: 16982105/0x01032059) [9344*]:
    → "What? Two Horn was nothing more than a rumor?"
 25: 0x056C [0x23] WAIT_FOR_DIALOG_INTERACTION
 26: 0x056D [0x66] LOAD_EXT_SCHEDULER_MAIN: Load scheduler "thk1" with entities [Milazahn (ID: 16982105/0x01032059), Milazahn (ID: 16982105/0x01032059)], work=0*
 27: 0x057C [0x2B] Milazahn (ID: 16982105/0x01032059) [9345*]:
    → "So it was just a regular Mamool Ja...and Duuruhn is still missing..."
 28: 0x0583 [0x23] WAIT_FOR_DIALOG_INTERACTION
 29: 0x0584 [0x52] END_LOAD_SCHEDULER: End scheduler "y012" with entities [LocalPlayer, LocalPlayer], work=267*
 30: 0x0593 [0x45] LOAD_SCHEDULED_TASK: Load scheduler "y013" with entities [LocalPlayer, LocalPlayer], work=[267*, 0*]
 31: 0x05A4 [0x2B] Milazahn (ID: 16982105/0x01032059) [9346*]:
    → "That's a disappointment... Thanks for your work, though."
 32: 0x05AB [0x23] WAIT_FOR_DIALOG_INTERACTION
 33: 0x05AC [0x66] LOAD_EXT_SCHEDULER_MAIN: Load scheduler "thk2" with entities [Milazahn (ID: 16982105/0x01032059), Milazahn (ID: 16982105/0x01032059)], work=0*
 34: 0x05BB [0x2B] Milazahn (ID: 16982105/0x01032059) [9347*]:
    → "Something's not sitting quite right with me, though... Oh well. As long as you've taken care of the Mamool Ja, that should be enough."
 35: 0x05C2 [0x23] WAIT_FOR_DIALOG_INTERACTION
 36: 0x05C3 [0x52] END_LOAD_SCHEDULER: End scheduler "y013" with entities [LocalPlayer, LocalPlayer], work=267*
 37: 0x05D2 [0x45] LOAD_SCHEDULED_TASK: Load scheduler "y014" with entities [LocalPlayer, LocalPlayer], work=[267*, 0*]
 38: 0x05E3 [0x1C] WAIT(60* ticks)
 39: 0x05E6 [0x66] LOAD_EXT_SCHEDULER_MAIN: Load scheduler "pas0" with entities [Milazahn (ID: 16982105/0x01032059), Milazahn (ID: 16982105/0x01032059)], work=0*
 40: 0x05F5 [0x2B] Milazahn (ID: 16982105/0x01032059) [9348*]:
    → "Please accept my thanks. I hope to have your assistance again if anything arises."
 41: 0x05FC [0x23] WAIT_FOR_DIALOG_INTERACTION
 42: 0x05FD [0x1C] WAIT(90* ticks)
 43: 0x0600 [0x45] LOAD_SCHEDULED_TASK: Load scheduler "fdo1" with entities [EventEntity, EventEntity], work=[200*, 0*]
 44: 0x0611 [0x55] WAIT_LOAD_SCHEDULER: Wait for scheduler "fdo1" with entities [EventEntity, EventEntity], work=200*
 45: 0x0620 [0x45] LOAD_SCHEDULED_TASK: Load scheduler "qstc" with entities [EventEntity, EventEntity], work=[201*, 0*]
 46: 0x0631 [0x1C] WAIT(30* ticks)
 47: 0x0634 [0x52] END_LOAD_SCHEDULER: End scheduler "y014" with entities [LocalPlayer, LocalPlayer], work=267*
 48: 0x0643 [0x46] CAMERA_CONTROL: Restore default settings
 49: 0x0645 [0x45] LOAD_SCHEDULED_TASK: Load scheduler "fdi1" with entities [EventEntity, EventEntity], work=[200*, 0*]
 50: 0x0656 [0x21] END_EVENT
 51: 0x0657 [0x00] END_REQSTACK()
```

### Event 610

#### Metadata

| Field        | Value    |
|--------------|----------|
| Entrypoint   | 0x0658   |
| Data Size    | 29 bytes |
| Instructions | 7        |

```
      00 01 02 03 04 05 06 07  08 09 0A 0B 0C 0D 0E 0F
      -- -- -- -- -- -- -- --  -- -- -- -- -- -- -- --
0650:                          1E F0 FF FF 7F 1C 03 80          ........
0660: 66 00 80 F8 FF FF 7F F8  FF FF 7F 74 6C 6B 31 1D  f..........tlk1.
0670: 33 80 23 21 00                                    3.#!.           
```

#### Opcodes

```
  0: 0x0658 [0x1E] EventEntity looks at LocalPlayer and starts talking
  1: 0x065D [0x1C] WAIT(30* ticks)
  2: 0x0660 [0x66] LOAD_EXT_SCHEDULER_MAIN: Load scheduler "tlk1" with entities [EventEntity, EventEntity], work=0*
  3: 0x066F [0x1D] PRINT_EVENT_MESSAGE(message_id=9349*)
    → "Bask in the brilliance of Victory Gate. Nothing better represents the glory of the Empire!"
  4: 0x0672 [0x23] WAIT_FOR_DIALOG_INTERACTION
  5: 0x0673 [0x21] END_EVENT
  6: 0x0674 [0x00] END_REQSTACK()
```

### Event 611

#### Metadata

| Field        | Value    |
|--------------|----------|
| Entrypoint   | 0x0675   |
| Data Size    | 47 bytes |
| Instructions | 9        |

```
      00 01 02 03 04 05 06 07  08 09 0A 0B 0C 0D 0E 0F
      -- -- -- -- -- -- -- --  -- -- -- -- -- -- -- --
0670:                1E F0 FF  FF 7F 1C 03 80 66 00 80       ........f..
0680: F8 FF FF 7F F8 FF FF 7F  74 6C 6B 31 1D 33 80 23  ........tlk1.3.#
0690: 66 00 80 F8 FF FF 7F F8  FF FF 7F 74 65 6E 31 1C  f..........ten1.
06A0: 03 80 21 00                                       ..!.            
```

#### Opcodes

```
  0: 0x0675 [0x1E] EventEntity looks at LocalPlayer and starts talking
  1: 0x067A [0x1C] WAIT(30* ticks)
  2: 0x067D [0x66] LOAD_EXT_SCHEDULER_MAIN: Load scheduler "tlk1" with entities [EventEntity, EventEntity], work=0*
  3: 0x068C [0x1D] PRINT_EVENT_MESSAGE(message_id=9349*)
    → "Bask in the brilliance of Victory Gate. Nothing better represents the glory of the Empire!"
  4: 0x068F [0x23] WAIT_FOR_DIALOG_INTERACTION
  5: 0x0690 [0x66] LOAD_EXT_SCHEDULER_MAIN: Load scheduler "ten1" with entities [EventEntity, EventEntity], work=0*
  6: 0x069F [0x1C] WAIT(30* ticks)
  7: 0x06A2 [0x21] END_EVENT
  8: 0x06A3 [0x00] END_REQSTACK()
```

### Event 774

#### Metadata

| Field        | Value   |
|--------------|---------|
| Entrypoint   | 0x06A4  |
| Data Size    | 7 bytes |
| Instructions | 2       |

```
      00 01 02 03 04 05 06 07  08 09 0A 0B 0C 0D 0E 0F
      -- -- -- -- -- -- -- --  -- -- -- -- -- -- -- --
06A0:             92 01 F8 FF  FF 7F 00                     .......     
```

#### Opcodes

```
  0: 0x06A4 [0x92] EventEntity->Render.Flags3 ^= 0x01
  1: 0x06AA [0x00] END_REQSTACK()
```

### Event 5056

#### Metadata

| Field        | Value   |
|--------------|---------|
| Entrypoint   | 0x06AB  |
| Data Size    | 1 bytes |
| Instructions | 1       |

```
      00 01 02 03 04 05 06 07  08 09 0A 0B 0C 0D 0E 0F
      -- -- -- -- -- -- -- --  -- -- -- -- -- -- -- --
06A0:                                   00                         .    
```

#### Opcodes

```
  0: 0x06AB [0x00] END_REQSTACK()
```
