# 16982271 - Topok-Hippok

## Common Data

| Field            | Value                         |
|------------------|-------------------------------|
| Zone             | Aht Urhgan Whitegate (ID: 50) |
| Block Size       | 872 bytes                     |
| Total Events     | 35                            |
| References Count | 76                            |

## List of Events

| Event ID                    | Entrypoint   |   Size |   Instructions |
|-----------------------------|--------------|--------|----------------|
| [65535](#event-65535)       | 0x0000       |      1 |              1 |
| [39](#event-39)             | 0x0001       |      7 |              2 |
| [65535.1](#event-65535-1)   | 0x0008       |     10 |              2 |
| [65535.2](#event-65535-2)   | 0x0012       |     15 |              5 |
| [65535.3](#event-65535-3)   | 0x0021       |     23 |              5 |
| [65535.4](#event-65535-4)   | 0x0038       |     15 |              3 |
| [65535.5](#event-65535-5)   | 0x0047       |     14 |              4 |
| [40](#event-40)             | 0x0055       |      7 |              2 |
| [65535.6](#event-65535-6)   | 0x005C       |     10 |              2 |
| [65535.7](#event-65535-7)   | 0x0066       |     14 |              4 |
| [65535.8](#event-65535-8)   | 0x0074       |     10 |              2 |
| [65535.9](#event-65535-9)   | 0x007E       |     14 |              4 |
| [65535.10](#event-65535-10) | 0x008C       |     14 |              4 |
| [65535.11](#event-65535-11) | 0x009A       |     14 |              4 |
| [41](#event-41)             | 0x00A8       |      7 |              2 |
| [65535.12](#event-65535-12) | 0x00AF       |     10 |              2 |
| [65535.13](#event-65535-13) | 0x00B9       |     14 |              4 |
| [65535.14](#event-65535-14) | 0x00C7       |     14 |              4 |
| [65535.15](#event-65535-15) | 0x00D5       |     14 |              4 |
| [43](#event-43)             | 0x00E3       |      7 |              2 |
| [65535.16](#event-65535-16) | 0x00EA       |     10 |              2 |
| [65535.17](#event-65535-17) | 0x00F4       |     14 |              4 |
| [65535.18](#event-65535-18) | 0x0102       |     14 |              4 |
| [44](#event-44)             | 0x0110       |      7 |              2 |
| [65535.19](#event-65535-19) | 0x0117       |     10 |              2 |
| [65535.20](#event-65535-20) | 0x0121       |     10 |              2 |
| [65535.21](#event-65535-21) | 0x012B       |     10 |              2 |
| [65535.22](#event-65535-22) | 0x0135       |     14 |              4 |
| [65535.23](#event-65535-23) | 0x0143       |     14 |              4 |
| [65535.24](#event-65535-24) | 0x0151       |     14 |              4 |
| [45](#event-45)             | 0x015F       |      7 |              2 |
| [65535.25](#event-65535-25) | 0x0166       |     10 |              2 |
| [65535.26](#event-65535-26) | 0x0170       |     15 |              5 |
| [65535.27](#event-65535-27) | 0x017F       |     15 |              5 |
| [65535.28](#event-65535-28) | 0x018E       |     14 |              4 |

## DAT References (imed_data)

|   Index | Hex Value   |   Dec Value |
|---------|-------------|-------------|
|       0 | 0xFFFFEF1A  |  4294962970 |
|       1 | 0xFFFFD651  |  4294956625 |
|       2 | 0x0000      |           0 |
|       3 | 0x0FE0      |        4064 |
|       4 | 0x0028      |          40 |
|       5 | 0x046F      |        1135 |
|       6 | 0xFFFFD36C  |  4294955884 |
|       7 | 0xFFFFC48A  |  4294952074 |
|       8 | 0xCAB0      |       51888 |
|       9 | 0xFFFFE891  |  4294961297 |
|      10 | 0x0452      |        1106 |
|      11 | 0xFFFFBD89  |  4294950281 |
|      12 | 0x839F      |       33695 |
|      13 | 0x071A      |        1818 |
|      14 | 0xFFFFD397  |  4294955927 |
|      15 | 0x0F46      |        3910 |
|      16 | 0xFFFFDDFF  |  4294958591 |
|      17 | 0xFFFFD2F7  |  4294955767 |
|      18 | 0x14A15     |       84501 |
|      19 | 0xFFFE173B  |  4294842171 |
|      20 | 0xFFFFE890  |  4294961296 |
|      21 | 0x083B      |        2107 |
|      22 | 0x14874     |       84084 |
|      23 | 0xFFFE0F7B  |  4294840187 |
|      24 | 0x1609B     |       90267 |
|      25 | 0xFFFE0FB8  |  4294840248 |
|      26 | 0xFFFFE69D  |  4294960797 |
|      27 | 0x0154      |         340 |
|      28 | 0x16A9D     |       92829 |
|      29 | 0xFFFE1591  |  4294841745 |
|      30 | 0xFFFFE55C  |  4294960476 |
|      31 | 0x14A89     |       84617 |
|      32 | 0xFFFE0956  |  4294838614 |
|      33 | 0x11EC1     |       73409 |
|      34 | 0xFFFE3453  |  4294849619 |
|      35 | 0xFFFFF9CA  |  4294965706 |
|      36 | 0xFFFFD36E  |  4294955886 |
|      37 | 0x0083      |         131 |
|      38 | 0x000D      |          13 |
|      39 | 0x05AE      |        1454 |
|      40 | 0xFFFFD62A  |  4294956586 |
|      41 | 0x038E      |         910 |
|      42 | 0xFFFFD5FB  |  4294956539 |
|      43 | 0x001E      |          30 |
|      44 | 0xFFFFE7AC  |  4294961068 |
|      45 | 0xFFFFD17D  |  4294955389 |
|      46 | 0x1D01      |        7425 |
|      47 | 0xFFFFD581  |  4294956417 |
|      48 | 0x078A      |        1930 |
|      49 | 0x0008      |           8 |
|      50 | 0x12CA      |        4810 |
|      51 | 0xFFFFD5B5  |  4294956469 |
|      52 | 0x33E5      |       13285 |
|      53 | 0xFFFFD27B  |  4294955643 |
|      54 | 0xFFFEA20A  |  4294877706 |
|      55 | 0x1EC3F     |      126015 |
|      56 | 0x0809      |        2057 |
|      57 | 0xFFFED3AD  |  4294890413 |
|      58 | 0x21629     |      136745 |
|      59 | 0x0C1D      |        3101 |
|      60 | 0xFFFEACF1  |  4294880497 |
|      61 | 0x1ECA2     |      126114 |
|      62 | 0xFFFEDBAF  |  4294892463 |
|      63 | 0x1CEBC     |      118460 |
|      64 | 0xFFFEEF04  |  4294897412 |
|      65 | 0x1CE49     |      118345 |
|      66 | 0x149B2     |       84402 |
|      67 | 0xFFFE090A  |  4294838538 |
|      68 | 0x0075      |         117 |
|      69 | 0x1662B     |       91691 |
|      70 | 0xFFFE0A6A  |  4294838890 |
|      71 | 0x1647D     |       91261 |
|      72 | 0xFFFE0735  |  4294838069 |
|      73 | 0xFFFFE69C  |  4294960796 |
|      74 | 0x13B98     |       80792 |
|      75 | 0xFFFE05FF  |  4294837759 |

## Events

### Event 65535

#### Metadata

| Field        | Value   |
|--------------|---------|
| Entrypoint   | 0x0000  |
| Data Size    | 1 bytes |
| Instructions | 1       |

```
      00 01 02 03 04 05 06 07  08 09 0A 0B 0C 0D 0E 0F
      -- -- -- -- -- -- -- --  -- -- -- -- -- -- -- --
0000: 00                                                .               
```

#### Opcodes

```
  0: 0x0000 [0x00] END_REQSTACK()
```

### Event 39

#### Metadata

| Field        | Value   |
|--------------|---------|
| Entrypoint   | 0x0001  |
| Data Size    | 7 bytes |
| Instructions | 2       |

```
      00 01 02 03 04 05 06 07  08 09 0A 0B 0C 0D 0E 0F
      -- -- -- -- -- -- -- --  -- -- -- -- -- -- -- --
0000:    94 01 F8 FF FF 7F 00                            .......        
```

#### Opcodes

```
  0: 0x0001 [0x94] EventEntity->Render.Flags3 ^= 0x01
  1: 0x0007 [0x00] END_REQSTACK()
```

### Event 65535.1

#### Metadata

| Field        | Value    |
|--------------|----------|
| Entrypoint   | 0x0008   |
| Data Size    | 10 bytes |
| Instructions | 2        |

```
      00 01 02 03 04 05 06 07  08 09 0A 0B 0C 0D 0E 0F
      -- -- -- -- -- -- -- --  -- -- -- -- -- -- -- --
0000:                          37 00 80 01 80 02 80 03          7.......
0010: 80 00                                             ..              
```

#### Opcodes

```
  0: 0x0008 [0x37] UPDATE_EVENT_POSITION_AND_DIR: x=-4.326*, z=-10.671*, y=0.000*, direction=357.2°*
  1: 0x0011 [0x00] END_REQSTACK()
```

### Event 65535.2

#### Metadata

| Field        | Value    |
|--------------|----------|
| Entrypoint   | 0x0012   |
| Data Size    | 15 bytes |
| Instructions | 5        |

```
      00 01 02 03 04 05 06 07  08 09 0A 0B 0C 0D 0E 0F
      -- -- -- -- -- -- -- --  -- -- -- -- -- -- -- --
0010:       32 04 80 1F 00 05  80 06 80 02 80 1F 01 6F    2............o
0020: 00                                                .               
```

#### Opcodes

```
  0: 0x0012 [0x32] ExtData[1]->MainSpeed = 40* * 0.1
  1: 0x0015 [0x1F] MOVE_ENTITY: EventEntity moves to X=1.135*, Z=-11.412*, Y=0.000*
  2: 0x001D [0x1F] MOVE_ENTITY: Update entity position (mode=1)
  3: 0x001F [0x6F] WAIT_FRAME_DELAY: Yield until WaitTime reaches zero
  4: 0x0020 [0x00] END_REQSTACK()
```

### Event 65535.3

#### Metadata

| Field        | Value    |
|--------------|----------|
| Entrypoint   | 0x0021   |
| Data Size    | 23 bytes |
| Instructions | 5        |

```
      00 01 02 03 04 05 06 07  08 09 0A 0B 0C 0D 0E 0F
      -- -- -- -- -- -- -- --  -- -- -- -- -- -- -- --
0020:    37 07 80 08 80 09 80  0A 80 32 04 80 1F 00 0B   7........2.....
0030: 80 0C 80 09 80 1F 01 00                           ........        
```

#### Opcodes

```
  0: 0x0021 [0x37] UPDATE_EVENT_POSITION_AND_DIR: x=-15.222*, z=51.888*, y=-5.999*, direction=97.2°*
  1: 0x002A [0x32] ExtData[1]->MainSpeed = 40* * 0.1
  2: 0x002D [0x1F] MOVE_ENTITY: EventEntity moves to X=-17.015*, Z=33.695*, Y=-5.999*
  3: 0x0035 [0x1F] MOVE_ENTITY: Update entity position (mode=1)
  4: 0x0037 [0x00] END_REQSTACK()
```

### Event 65535.4

#### Metadata

| Field        | Value    |
|--------------|----------|
| Entrypoint   | 0x0038   |
| Data Size    | 15 bytes |
| Instructions | 3        |

```
      00 01 02 03 04 05 06 07  08 09 0A 0B 0C 0D 0E 0F
      -- -- -- -- -- -- -- --  -- -- -- -- -- -- -- --
0030:                          5E 69 64 6C 30 37 0D 80          ^idl07..
0040: 0E 80 02 80 0F 80 00                              .......         
```

#### Opcodes

```
  0: 0x0038 [0x5E] EventEntity goes idle (kills current action) (animation: "idl0")
  1: 0x003D [0x37] UPDATE_EVENT_POSITION_AND_DIR: x=1.818*, z=-11.369*, y=0.000*, direction=343.6°*
  2: 0x0046 [0x00] END_REQSTACK()
```

### Event 65535.5

#### Metadata

| Field        | Value    |
|--------------|----------|
| Entrypoint   | 0x0047   |
| Data Size    | 14 bytes |
| Instructions | 4        |

```
      00 01 02 03 04 05 06 07  08 09 0A 0B 0C 0D 0E 0F
      -- -- -- -- -- -- -- --  -- -- -- -- -- -- -- --
0040:                      32  04 80 1F 00 10 80 11 80         2........
0050: 02 80 1F 01 00                                    .....           
```

#### Opcodes

```
  0: 0x0047 [0x32] ExtData[1]->MainSpeed = 40* * 0.1
  1: 0x004A [0x1F] MOVE_ENTITY: EventEntity moves to X=-8.705*, Z=-11.529*, Y=0.000*
  2: 0x0052 [0x1F] MOVE_ENTITY: Update entity position (mode=1)
  3: 0x0054 [0x00] END_REQSTACK()
```

### Event 40

#### Metadata

| Field        | Value   |
|--------------|---------|
| Entrypoint   | 0x0055  |
| Data Size    | 7 bytes |
| Instructions | 2       |

```
      00 01 02 03 04 05 06 07  08 09 0A 0B 0C 0D 0E 0F
      -- -- -- -- -- -- -- --  -- -- -- -- -- -- -- --
0050:                94 01 F8  FF FF 7F 00                   .......    
```

#### Opcodes

```
  0: 0x0055 [0x94] EventEntity->Render.Flags3 ^= 0x01
  1: 0x005B [0x00] END_REQSTACK()
```

### Event 65535.6

#### Metadata

| Field        | Value    |
|--------------|----------|
| Entrypoint   | 0x005C   |
| Data Size    | 10 bytes |
| Instructions | 2        |

```
      00 01 02 03 04 05 06 07  08 09 0A 0B 0C 0D 0E 0F
      -- -- -- -- -- -- -- --  -- -- -- -- -- -- -- --
0050:                                      37 12 80 13              7...
0060: 80 14 80 15 80 00                                 ......          
```

#### Opcodes

```
  0: 0x005C [0x37] UPDATE_EVENT_POSITION_AND_DIR: x=84.501*, z=-125.125*, y=-6.000*, direction=185.2°*
  1: 0x0065 [0x00] END_REQSTACK()
```

### Event 65535.7

#### Metadata

| Field        | Value    |
|--------------|----------|
| Entrypoint   | 0x0066   |
| Data Size    | 14 bytes |
| Instructions | 4        |

```
      00 01 02 03 04 05 06 07  08 09 0A 0B 0C 0D 0E 0F
      -- -- -- -- -- -- -- --  -- -- -- -- -- -- -- --
0060:                   32 04  80 1F 00 16 80 17 80 14        2.........
0070: 80 1F 01 00                                       ....            
```

#### Opcodes

```
  0: 0x0066 [0x32] ExtData[1]->MainSpeed = 40* * 0.1
  1: 0x0069 [0x1F] MOVE_ENTITY: EventEntity moves to X=84.084*, Z=-127.109*, Y=-6.000*
  2: 0x0071 [0x1F] MOVE_ENTITY: Update entity position (mode=1)
  3: 0x0073 [0x00] END_REQSTACK()
```

### Event 65535.8

#### Metadata

| Field        | Value    |
|--------------|----------|
| Entrypoint   | 0x0074   |
| Data Size    | 10 bytes |
| Instructions | 2        |

```
      00 01 02 03 04 05 06 07  08 09 0A 0B 0C 0D 0E 0F
      -- -- -- -- -- -- -- --  -- -- -- -- -- -- -- --
0070:             37 18 80 19  80 1A 80 1B 80 00            7.........  
```

#### Opcodes

```
  0: 0x0074 [0x37] UPDATE_EVENT_POSITION_AND_DIR: x=90.267*, z=-127.048*, y=-6.499*, direction=29.9°*
  1: 0x007D [0x00] END_REQSTACK()
```

### Event 65535.9

#### Metadata

| Field        | Value    |
|--------------|----------|
| Entrypoint   | 0x007E   |
| Data Size    | 14 bytes |
| Instructions | 4        |

```
      00 01 02 03 04 05 06 07  08 09 0A 0B 0C 0D 0E 0F
      -- -- -- -- -- -- -- --  -- -- -- -- -- -- -- --
0070:                                            32 04                2.
0080: 80 1F 00 1C 80 1D 80 1E  80 1F 01 00              ............    
```

#### Opcodes

```
  0: 0x007E [0x32] ExtData[1]->MainSpeed = 40* * 0.1
  1: 0x0081 [0x1F] MOVE_ENTITY: EventEntity moves to X=92.829*, Z=-125.551*, Y=-6.820*
  2: 0x0089 [0x1F] MOVE_ENTITY: Update entity position (mode=1)
  3: 0x008B [0x00] END_REQSTACK()
```

### Event 65535.10

#### Metadata

| Field        | Value    |
|--------------|----------|
| Entrypoint   | 0x008C   |
| Data Size    | 14 bytes |
| Instructions | 4        |

```
      00 01 02 03 04 05 06 07  08 09 0A 0B 0C 0D 0E 0F
      -- -- -- -- -- -- -- --  -- -- -- -- -- -- -- --
0080:                                      32 04 80 1F              2...
0090: 00 1F 80 20 80 14 80 1F  01 00                    ... ......      
```

#### Opcodes

```
  0: 0x008C [0x32] ExtData[1]->MainSpeed = 40* * 0.1
  1: 0x008F [0x1F] MOVE_ENTITY: EventEntity moves to X=84.617*, Z=-128.682*, Y=-6.000*
  2: 0x0097 [0x1F] MOVE_ENTITY: Update entity position (mode=1)
  3: 0x0099 [0x00] END_REQSTACK()
```

### Event 65535.11

#### Metadata

| Field        | Value    |
|--------------|----------|
| Entrypoint   | 0x009A   |
| Data Size    | 14 bytes |
| Instructions | 4        |

```
      00 01 02 03 04 05 06 07  08 09 0A 0B 0C 0D 0E 0F
      -- -- -- -- -- -- -- --  -- -- -- -- -- -- -- --
0090:                                32 04 80 1F 00 21            2....!
00A0: 80 22 80 14 80 1F 01 00                           ."......        
```

#### Opcodes

```
  0: 0x009A [0x32] ExtData[1]->MainSpeed = 40* * 0.1
  1: 0x009D [0x1F] MOVE_ENTITY: EventEntity moves to X=73.409*, Z=-117.677*, Y=-6.000*
  2: 0x00A5 [0x1F] MOVE_ENTITY: Update entity position (mode=1)
  3: 0x00A7 [0x00] END_REQSTACK()
```

### Event 41

#### Metadata

| Field        | Value   |
|--------------|---------|
| Entrypoint   | 0x00A8  |
| Data Size    | 7 bytes |
| Instructions | 2       |

```
      00 01 02 03 04 05 06 07  08 09 0A 0B 0C 0D 0E 0F
      -- -- -- -- -- -- -- --  -- -- -- -- -- -- -- --
00A0:                          94 01 F8 FF FF 7F 00             ....... 
```

#### Opcodes

```
  0: 0x00A8 [0x94] EventEntity->Render.Flags3 ^= 0x01
  1: 0x00AE [0x00] END_REQSTACK()
```

### Event 65535.12

#### Metadata

| Field        | Value    |
|--------------|----------|
| Entrypoint   | 0x00AF   |
| Data Size    | 10 bytes |
| Instructions | 2        |

```
      00 01 02 03 04 05 06 07  08 09 0A 0B 0C 0D 0E 0F
      -- -- -- -- -- -- -- --  -- -- -- -- -- -- -- --
00A0:                                               37                 7
00B0: 23 80 24 80 02 80 25 80  00                       #.$...%..       
```

#### Opcodes

```
  0: 0x00AF [0x37] UPDATE_EVENT_POSITION_AND_DIR: x=-1.590*, z=-11.410*, y=0.000*, direction=11.5°*
  1: 0x00B8 [0x00] END_REQSTACK()
```

### Event 65535.13

#### Metadata

| Field        | Value    |
|--------------|----------|
| Entrypoint   | 0x00B9   |
| Data Size    | 14 bytes |
| Instructions | 4        |

```
      00 01 02 03 04 05 06 07  08 09 0A 0B 0C 0D 0E 0F
      -- -- -- -- -- -- -- --  -- -- -- -- -- -- -- --
00B0:                             32 26 80 1F 00 27 80           2&...'.
00C0: 28 80 02 80 1F 01 00                              (......         
```

#### Opcodes

```
  0: 0x00B9 [0x32] ExtData[1]->MainSpeed = 13* * 0.1
  1: 0x00BC [0x1F] MOVE_ENTITY: EventEntity moves to X=1.454*, Z=-10.710*, Y=0.000*
  2: 0x00C4 [0x1F] MOVE_ENTITY: Update entity position (mode=1)
  3: 0x00C6 [0x00] END_REQSTACK()
```

### Event 65535.14

#### Metadata

| Field        | Value    |
|--------------|----------|
| Entrypoint   | 0x00C7   |
| Data Size    | 14 bytes |
| Instructions | 4        |

```
      00 01 02 03 04 05 06 07  08 09 0A 0B 0C 0D 0E 0F
      -- -- -- -- -- -- -- --  -- -- -- -- -- -- -- --
00C0:                      32  26 80 1F 00 29 80 2A 80         2&...).*.
00D0: 02 80 1F 01 00                                    .....           
```

#### Opcodes

```
  0: 0x00C7 [0x32] ExtData[1]->MainSpeed = 13* * 0.1
  1: 0x00CA [0x1F] MOVE_ENTITY: EventEntity moves to X=0.910*, Z=-10.757*, Y=0.000*
  2: 0x00D2 [0x1F] MOVE_ENTITY: Update entity position (mode=1)
  3: 0x00D4 [0x00] END_REQSTACK()
```

### Event 65535.15

#### Metadata

| Field        | Value    |
|--------------|----------|
| Entrypoint   | 0x00D5   |
| Data Size    | 14 bytes |
| Instructions | 4        |

```
      00 01 02 03 04 05 06 07  08 09 0A 0B 0C 0D 0E 0F
      -- -- -- -- -- -- -- --  -- -- -- -- -- -- -- --
00D0:                32 2B 80  1F 00 2C 80 2D 80 02 80       2+...,.-...
00E0: 1F 01 00                                          ...             
```

#### Opcodes

```
  0: 0x00D5 [0x32] ExtData[1]->MainSpeed = 30* * 0.1
  1: 0x00D8 [0x1F] MOVE_ENTITY: EventEntity moves to X=-6.228*, Z=-11.907*, Y=0.000*
  2: 0x00E0 [0x1F] MOVE_ENTITY: Update entity position (mode=1)
  3: 0x00E2 [0x00] END_REQSTACK()
```

### Event 43

#### Metadata

| Field        | Value   |
|--------------|---------|
| Entrypoint   | 0x00E3  |
| Data Size    | 7 bytes |
| Instructions | 2       |

```
      00 01 02 03 04 05 06 07  08 09 0A 0B 0C 0D 0E 0F
      -- -- -- -- -- -- -- --  -- -- -- -- -- -- -- --
00E0:          94 01 F8 FF FF  7F 00                       .......      
```

#### Opcodes

```
  0: 0x00E3 [0x94] EventEntity->Render.Flags3 ^= 0x01
  1: 0x00E9 [0x00] END_REQSTACK()
```

### Event 65535.16

#### Metadata

| Field        | Value    |
|--------------|----------|
| Entrypoint   | 0x00EA   |
| Data Size    | 10 bytes |
| Instructions | 2        |

```
      00 01 02 03 04 05 06 07  08 09 0A 0B 0C 0D 0E 0F
      -- -- -- -- -- -- -- --  -- -- -- -- -- -- -- --
00E0:                                37 2E 80 2F 80 02            7../..
00F0: 80 30 80 00                                       .0..            
```

#### Opcodes

```
  0: 0x00EA [0x37] UPDATE_EVENT_POSITION_AND_DIR: x=7.425*, z=-10.879*, y=0.000*, direction=169.6°*
  1: 0x00F3 [0x00] END_REQSTACK()
```

### Event 65535.17

#### Metadata

| Field        | Value    |
|--------------|----------|
| Entrypoint   | 0x00F4   |
| Data Size    | 14 bytes |
| Instructions | 4        |

```
      00 01 02 03 04 05 06 07  08 09 0A 0B 0C 0D 0E 0F
      -- -- -- -- -- -- -- --  -- -- -- -- -- -- -- --
00F0:             32 31 80 1F  00 32 80 33 80 02 80 1F      21...2.3....
0100: 01 00                                             ..              
```

#### Opcodes

```
  0: 0x00F4 [0x32] ExtData[1]->MainSpeed = 8* * 0.1
  1: 0x00F7 [0x1F] MOVE_ENTITY: EventEntity moves to X=4.810*, Z=-10.827*, Y=0.000*
  2: 0x00FF [0x1F] MOVE_ENTITY: Update entity position (mode=1)
  3: 0x0101 [0x00] END_REQSTACK()
```

### Event 65535.18

#### Metadata

| Field        | Value    |
|--------------|----------|
| Entrypoint   | 0x0102   |
| Data Size    | 14 bytes |
| Instructions | 4        |

```
      00 01 02 03 04 05 06 07  08 09 0A 0B 0C 0D 0E 0F
      -- -- -- -- -- -- -- --  -- -- -- -- -- -- -- --
0100:       32 04 80 1F 00 34  80 35 80 02 80 1F 01 00    2....4.5......
```

#### Opcodes

```
  0: 0x0102 [0x32] ExtData[1]->MainSpeed = 40* * 0.1
  1: 0x0105 [0x1F] MOVE_ENTITY: EventEntity moves to X=13.285*, Z=-11.653*, Y=0.000*
  2: 0x010D [0x1F] MOVE_ENTITY: Update entity position (mode=1)
  3: 0x010F [0x00] END_REQSTACK()
```

### Event 44

#### Metadata

| Field        | Value   |
|--------------|---------|
| Entrypoint   | 0x0110  |
| Data Size    | 7 bytes |
| Instructions | 2       |

```
      00 01 02 03 04 05 06 07  08 09 0A 0B 0C 0D 0E 0F
      -- -- -- -- -- -- -- --  -- -- -- -- -- -- -- --
0110: 94 01 F8 FF FF 7F 00                              .......         
```

#### Opcodes

```
  0: 0x0110 [0x94] EventEntity->Render.Flags3 ^= 0x01
  1: 0x0116 [0x00] END_REQSTACK()
```

### Event 65535.19

#### Metadata

| Field        | Value    |
|--------------|----------|
| Entrypoint   | 0x0117   |
| Data Size    | 10 bytes |
| Instructions | 2        |

```
      00 01 02 03 04 05 06 07  08 09 0A 0B 0C 0D 0E 0F
      -- -- -- -- -- -- -- --  -- -- -- -- -- -- -- --
0110:                      37  36 80 37 80 14 80 38 80         76.7...8.
0120: 00                                                .               
```

#### Opcodes

```
  0: 0x0117 [0x37] UPDATE_EVENT_POSITION_AND_DIR: x=-89.590*, z=126.015*, y=-6.000*, direction=180.8°*
  1: 0x0120 [0x00] END_REQSTACK()
```

### Event 65535.20

#### Metadata

| Field        | Value    |
|--------------|----------|
| Entrypoint   | 0x0121   |
| Data Size    | 10 bytes |
| Instructions | 2        |

```
      00 01 02 03 04 05 06 07  08 09 0A 0B 0C 0D 0E 0F
      -- -- -- -- -- -- -- --  -- -- -- -- -- -- -- --
0120:    37 39 80 3A 80 14 80  3B 80 00                  79.:...;..     
```

#### Opcodes

```
  0: 0x0121 [0x37] UPDATE_EVENT_POSITION_AND_DIR: x=-76.883*, z=136.745*, y=-6.000*, direction=272.5°*
  1: 0x012A [0x00] END_REQSTACK()
```

### Event 65535.21

#### Metadata

| Field        | Value    |
|--------------|----------|
| Entrypoint   | 0x012B   |
| Data Size    | 10 bytes |
| Instructions | 2        |

```
      00 01 02 03 04 05 06 07  08 09 0A 0B 0C 0D 0E 0F
      -- -- -- -- -- -- -- --  -- -- -- -- -- -- -- --
0120:                                   37 36 80 37 80             76.7.
0130: 14 80 38 80 00                                    ..8..           
```

#### Opcodes

```
  0: 0x012B [0x37] UPDATE_EVENT_POSITION_AND_DIR: x=-89.590*, z=126.015*, y=-6.000*, direction=180.8°*
  1: 0x0134 [0x00] END_REQSTACK()
```

### Event 65535.22

#### Metadata

| Field        | Value    |
|--------------|----------|
| Entrypoint   | 0x0135   |
| Data Size    | 14 bytes |
| Instructions | 4        |

```
      00 01 02 03 04 05 06 07  08 09 0A 0B 0C 0D 0E 0F
      -- -- -- -- -- -- -- --  -- -- -- -- -- -- -- --
0130:                32 26 80  1F 00 3C 80 3D 80 14 80       2&...<.=...
0140: 1F 01 00                                          ...             
```

#### Opcodes

```
  0: 0x0135 [0x32] ExtData[1]->MainSpeed = 13* * 0.1
  1: 0x0138 [0x1F] MOVE_ENTITY: EventEntity moves to X=-86.799*, Z=126.114*, Y=-6.000*
  2: 0x0140 [0x1F] MOVE_ENTITY: Update entity position (mode=1)
  3: 0x0142 [0x00] END_REQSTACK()
```

### Event 65535.23

#### Metadata

| Field        | Value    |
|--------------|----------|
| Entrypoint   | 0x0143   |
| Data Size    | 14 bytes |
| Instructions | 4        |

```
      00 01 02 03 04 05 06 07  08 09 0A 0B 0C 0D 0E 0F
      -- -- -- -- -- -- -- --  -- -- -- -- -- -- -- --
0140:          32 04 80 1F 00  3E 80 3F 80 14 80 1F 01     2....>.?.....
0150: 00                                                .               
```

#### Opcodes

```
  0: 0x0143 [0x32] ExtData[1]->MainSpeed = 40* * 0.1
  1: 0x0146 [0x1F] MOVE_ENTITY: EventEntity moves to X=-74.833*, Z=118.460*, Y=-6.000*
  2: 0x014E [0x1F] MOVE_ENTITY: Update entity position (mode=1)
  3: 0x0150 [0x00] END_REQSTACK()
```

### Event 65535.24

#### Metadata

| Field        | Value    |
|--------------|----------|
| Entrypoint   | 0x0151   |
| Data Size    | 14 bytes |
| Instructions | 4        |

```
      00 01 02 03 04 05 06 07  08 09 0A 0B 0C 0D 0E 0F
      -- -- -- -- -- -- -- --  -- -- -- -- -- -- -- --
0150:    32 04 80 1F 00 40 80  41 80 14 80 1F 01 00      2....@.A...... 
```

#### Opcodes

```
  0: 0x0151 [0x32] ExtData[1]->MainSpeed = 40* * 0.1
  1: 0x0154 [0x1F] MOVE_ENTITY: EventEntity moves to X=-69.884*, Z=118.345*, Y=-6.000*
  2: 0x015C [0x1F] MOVE_ENTITY: Update entity position (mode=1)
  3: 0x015E [0x00] END_REQSTACK()
```

### Event 45

#### Metadata

| Field        | Value   |
|--------------|---------|
| Entrypoint   | 0x015F  |
| Data Size    | 7 bytes |
| Instructions | 2       |

```
      00 01 02 03 04 05 06 07  08 09 0A 0B 0C 0D 0E 0F
      -- -- -- -- -- -- -- --  -- -- -- -- -- -- -- --
0150:                                               94                 .
0160: 01 F8 FF FF 7F 00                                 ......          
```

#### Opcodes

```
  0: 0x015F [0x94] EventEntity->Render.Flags3 ^= 0x01
  1: 0x0165 [0x00] END_REQSTACK()
```

### Event 65535.25

#### Metadata

| Field        | Value    |
|--------------|----------|
| Entrypoint   | 0x0166   |
| Data Size    | 10 bytes |
| Instructions | 2        |

```
      00 01 02 03 04 05 06 07  08 09 0A 0B 0C 0D 0E 0F
      -- -- -- -- -- -- -- --  -- -- -- -- -- -- -- --
0160:                   37 42  80 43 80 14 80 44 80 00        7B.C...D..
```

#### Opcodes

```
  0: 0x0166 [0x37] UPDATE_EVENT_POSITION_AND_DIR: x=84.402*, z=-128.758*, y=-6.000*, direction=10.3°*
  1: 0x016F [0x00] END_REQSTACK()
```

### Event 65535.26

#### Metadata

| Field        | Value    |
|--------------|----------|
| Entrypoint   | 0x0170   |
| Data Size    | 15 bytes |
| Instructions | 5        |

```
      00 01 02 03 04 05 06 07  08 09 0A 0B 0C 0D 0E 0F
      -- -- -- -- -- -- -- --  -- -- -- -- -- -- -- --
0170: 32 26 80 1F 00 45 80 46  80 1A 80 1F 01 6F 00     2&...E.F.....o. 
```

#### Opcodes

```
  0: 0x0170 [0x32] ExtData[1]->MainSpeed = 13* * 0.1
  1: 0x0173 [0x1F] MOVE_ENTITY: EventEntity moves to X=91.691*, Z=-128.406*, Y=-6.499*
  2: 0x017B [0x1F] MOVE_ENTITY: Update entity position (mode=1)
  3: 0x017D [0x6F] WAIT_FRAME_DELAY: Yield until WaitTime reaches zero
  4: 0x017E [0x00] END_REQSTACK()
```

### Event 65535.27

#### Metadata

| Field        | Value    |
|--------------|----------|
| Entrypoint   | 0x017F   |
| Data Size    | 15 bytes |
| Instructions | 5        |

```
      00 01 02 03 04 05 06 07  08 09 0A 0B 0C 0D 0E 0F
      -- -- -- -- -- -- -- --  -- -- -- -- -- -- -- --
0170:                                               32                 2
0180: 26 80 1F 00 47 80 48 80  49 80 1F 01 6F 00        &...G.H.I...o.  
```

#### Opcodes

```
  0: 0x017F [0x32] ExtData[1]->MainSpeed = 13* * 0.1
  1: 0x0182 [0x1F] MOVE_ENTITY: EventEntity moves to X=91.261*, Z=-129.227*, Y=-6.500*
  2: 0x018A [0x1F] MOVE_ENTITY: Update entity position (mode=1)
  3: 0x018C [0x6F] WAIT_FRAME_DELAY: Yield until WaitTime reaches zero
  4: 0x018D [0x00] END_REQSTACK()
```

### Event 65535.28

#### Metadata

| Field        | Value    |
|--------------|----------|
| Entrypoint   | 0x018E   |
| Data Size    | 14 bytes |
| Instructions | 4        |

```
      00 01 02 03 04 05 06 07  08 09 0A 0B 0C 0D 0E 0F
      -- -- -- -- -- -- -- --  -- -- -- -- -- -- -- --
0180:                                            32 26                2&
0190: 80 1F 00 4A 80 4B 80 14  80 1F 01 00              ...J.K......    
```

#### Opcodes

```
  0: 0x018E [0x32] ExtData[1]->MainSpeed = 13* * 0.1
  1: 0x0191 [0x1F] MOVE_ENTITY: EventEntity moves to X=80.792*, Z=-129.537*, Y=-6.000*
  2: 0x0199 [0x1F] MOVE_ENTITY: Update entity position (mode=1)
  3: 0x019B [0x00] END_REQSTACK()
```
