# 16982320 - Bashraf

## Common Data

| Field            | Value                         |
|------------------|-------------------------------|
| Zone             | Aht Urhgan Whitegate (ID: 50) |
| Block Size       | 1808 bytes                    |
| Total Events     | 66                            |
| References Count | 136                           |

## List of Events

| Event ID                   | Entrypoint   |   Size |   Instructions |
|----------------------------|--------------|--------|----------------|
| [65535](#event-65535)      | 0x0000       |      1 |              1 |
| [520](#event-520)          | 0x0001       |      1 |              1 |
| [65535.1](#event-655351)   | 0x0002       |     15 |              3 |
| [65535.2](#event-655352)   | 0x0011       |     14 |              4 |
| [525](#event-525)          | 0x001F       |      1 |              1 |
| [65535.3](#event-655353)   | 0x0020       |     37 |              7 |
| [527](#event-527)          | 0x0045       |      1 |              1 |
| [65535.4](#event-655354)   | 0x0046       |     15 |              3 |
| [65535.5](#event-655355)   | 0x0055       |     14 |              4 |
| [65535.6](#event-655356)   | 0x0063       |     14 |              4 |
| [575](#event-575)          | 0x0071       |      1 |              1 |
| [65535.7](#event-655357)   | 0x0072       |     15 |              3 |
| [65535.8](#event-655358)   | 0x0081       |     17 |              5 |
| [65535.9](#event-655359)   | 0x0092       |     17 |              5 |
| [65535.10](#event-6553510) | 0x00A3       |     23 |              5 |
| [65535.11](#event-6553511) | 0x00BA       |     15 |              3 |
| [65535.12](#event-6553512) | 0x00C9       |     15 |              3 |
| [65535.13](#event-6553513) | 0x00D8       |     14 |              4 |
| [65535.14](#event-6553514) | 0x00E6       |     15 |              3 |
| [65535.15](#event-6553515) | 0x00F5       |     24 |              6 |
| [65535.16](#event-6553516) | 0x010D       |     24 |              3 |
| [65535.17](#event-6553517) | 0x0125       |     22 |              3 |
| [65535.18](#event-6553518) | 0x013B       |     15 |              3 |
| [65535.19](#event-6553519) | 0x014A       |     13 |              3 |
| [65535.20](#event-6553520) | 0x0157       |     16 |              2 |
| [65535.21](#event-6553521) | 0x0167       |     14 |              4 |
| [269](#event-269)          | 0x0175       |      1 |              1 |
| [65535.22](#event-6553522) | 0x0176       |     15 |              3 |
| [65535.23](#event-6553523) | 0x0185       |     34 |              8 |
| [65535.24](#event-6553524) | 0x01A7       |     19 |              5 |
| [65535.25](#event-6553525) | 0x01BA       |     14 |              4 |
| [65535.26](#event-6553526) | 0x01C8       |     20 |              4 |
| [65535.27](#event-6553527) | 0x01DC       |     53 |             11 |
| [65535.28](#event-6553528) | 0x0211       |     15 |              3 |
| [65535.29](#event-6553529) | 0x0220       |     14 |              4 |
| [800](#event-800)          | 0x022E       |      1 |              1 |
| [65535.30](#event-6553530) | 0x022F       |     15 |              3 |
| [65535.31](#event-6553531) | 0x023E       |     14 |              4 |
| [803](#event-803)          | 0x024C       |      1 |              1 |
| [65535.32](#event-6553532) | 0x024D       |     15 |              3 |
| [65535.33](#event-6553533) | 0x025C       |     24 |              3 |
| [65535.34](#event-6553534) | 0x0274       |     14 |              4 |
| [65535.35](#event-6553535) | 0x0282       |     14 |              4 |
| [65535.36](#event-6553536) | 0x0290       |     15 |              3 |
| [65535.37](#event-6553537) | 0x029F       |     40 |              8 |
| [836](#event-836)          | 0x02C7       |      1 |              1 |
| [65535.38](#event-6553538) | 0x02C8       |     14 |              4 |
| [65535.39](#event-6553539) | 0x02D6       |     14 |              4 |
| [65535.40](#event-6553540) | 0x02E4       |     14 |              4 |
| [838](#event-838)          | 0x02F2       |      1 |              1 |
| [65535.41](#event-6553541) | 0x02F3       |     22 |              6 |
| [65535.42](#event-6553542) | 0x0309       |     14 |              4 |
| [843](#event-843)          | 0x0317       |      1 |              1 |
| [65535.43](#event-6553543) | 0x0318       |     14 |              4 |
| [65535.44](#event-6553544) | 0x0326       |     14 |              4 |
| [845](#event-845)          | 0x0334       |      1 |              1 |
| [65535.45](#event-6553545) | 0x0335       |     22 |              6 |
| [65535.46](#event-6553546) | 0x034B       |     14 |              4 |
| [65535.47](#event-6553547) | 0x0359       |     22 |              6 |
| [864](#event-864)          | 0x036F       |      7 |              2 |
| [65535.48](#event-6553548) | 0x0376       |     19 |              5 |
| [65535.49](#event-6553549) | 0x0389       |     19 |              5 |
| [65535.50](#event-6553550) | 0x039C       |     19 |              5 |
| [65535.51](#event-6553551) | 0x03AF       |     19 |              5 |
| [65535.52](#event-6553552) | 0x03C2       |     14 |              4 |
| [872](#event-872)          | 0x03D0       |      7 |              2 |

## DAT References (imed_data)

|   Index | Hex Value   |   Dec Value |
|---------|-------------|-------------|
|       0 | 0xFFFE9D2C  |  4294876460 |
|       1 | 0x1279      |        4729 |
|       2 | 0x0000      |           0 |
|       3 | 0x0D3D      |        3389 |
|       4 | 0x0028      |          40 |
|       5 | 0xFFFE9758  |  4294874968 |
|       6 | 0x063D      |        1597 |
|       7 | 0x000D      |          13 |
|       8 | 0x00B4      |         180 |
|       9 | 0x05C6      |        1478 |
|      10 | 0xFFFF9802  |  4294940674 |
|      11 | 0x7203      |       29187 |
|      12 | 0xFFFFE890  |  4294961296 |
|      13 | 0x0822      |        2082 |
|      14 | 0xFFFF9CEB  |  4294941931 |
|      15 | 0x5CAF      |       23727 |
|      16 | 0x076B      |        1899 |
|      17 | 0xFFFF9BC1  |  4294941633 |
|      18 | 0x5E51      |       24145 |
|      19 | 0xFFFF9C7E  |  4294941822 |
|      20 | 0x5818      |       22552 |
|      21 | 0x0C68      |        3176 |
|      22 | 0xCB53      |       52051 |
|      23 | 0xFFFFFB70  |  4294966128 |
|      24 | 0x001E      |          30 |
|      25 | 0x15790     |       87952 |
|      26 | 0xFFFFF766  |  4294965094 |
|      27 | 0x15742     |       87874 |
|      28 | 0xFFFFFA03  |  4294965763 |
|      29 | 0x0BE9      |        3049 |
|      30 | 0xFFFFA389  |  4294943625 |
|      31 | 0x6025      |       24613 |
|      32 | 0xFFFFA4A9  |  4294943913 |
|      33 | 0x4629      |       17961 |
|      34 | 0xFFFFF061  |  4294963297 |
|      35 | 0x0001      |           1 |
|      36 | 0x0002      |           2 |
|      37 | 0x0006      |           6 |
|      38 | 0x00FB      |         251 |
|      39 | 0x727F0     |      468976 |
|      40 | 0x3980C     |      235532 |
|      41 | 0xFFFFA2D4  |  4294943444 |
|      42 | 0x0465      |        1125 |
|      43 | 0x002B      |          43 |
|      44 | 0x0003      |           3 |
|      45 | 0x1EB83     |      125827 |
|      46 | 0xFFFFFF55  |  4294967125 |
|      47 | 0x1A82D     |      108589 |
|      48 | 0x410F      |       16655 |
|      49 | 0x0F58      |        3928 |
|      50 | 0x1B1ED     |      111085 |
|      51 | 0x55B6      |       21942 |
|      52 | 0xFFFFFEC4  |  4294966980 |
|      53 | 0x1B54F     |      111951 |
|      54 | 0x7326      |       29478 |
|      55 | 0xFFFFFEBA  |  4294966970 |
|      56 | 0x1DA19     |      121369 |
|      57 | 0x7B55      |       31573 |
|      58 | 0xFFFFFEC5  |  4294966981 |
|      59 | 0x1E543     |      124227 |
|      60 | 0x7CB6      |       31926 |
|      61 | 0xFFFCD5F8  |  4294759928 |
|      62 | 0xFFF413B8  |  4294185912 |
|      63 | 0xFFFFD2E7  |  4294955751 |
|      64 | 0x0A8E      |        2702 |
|      65 | 0xFFFD3495  |  4294784149 |
|      66 | 0xFFF363A0  |  4294140832 |
|      67 | 0xFFFFE8EA  |  4294961386 |
|      68 | 0x0414      |        1044 |
|      69 | 0xFFFD4024  |  4294787108 |
|      70 | 0xFFF34FA6  |  4294135718 |
|      71 | 0xFFFFEDE8  |  4294962664 |
|      72 | 0x0373      |         883 |
|      73 | 0x005A      |          90 |
|      74 | 0xFFFB27F5  |  4294649845 |
|      75 | 0xFFFAD116  |  4294627606 |
|      76 | 0xFFFFDBC8  |  4294958024 |
|      77 | 0x07E0      |        2016 |
|      78 | 0xFFFADFD8  |  4294631384 |
|      79 | 0xFFFAC5E8  |  4294624744 |
|      80 | 0xFFFFDB96  |  4294957974 |
|      81 | 0xFFFFC9E3  |  4294953443 |
|      82 | 0x6E71      |       28273 |
|      83 | 0xFFFFE891  |  4294961297 |
|      84 | 0x0FE4      |        4068 |
|      85 | 0xFFFFA9EA  |  4294945258 |
|      86 | 0x67B2      |       26546 |
|      87 | 0xFFFDB824  |  4294817828 |
|      88 | 0xFFFFFF61  |  4294967137 |
|      89 | 0x0708      |        1800 |
|      90 | 0x00A1      |         161 |
|      91 | 0x000E      |          14 |
|      92 | 0x0081      |         129 |
|      93 | 0xFFFDD9EA  |  4294826474 |
|      94 | 0xFFFFFBFD  |  4294966269 |
|      95 | 0x07CF      |        1999 |
|      96 | 0xFFFE0ACD  |  4294838989 |
|      97 | 0x007C      |         124 |
|      98 | 0x041A      |        1050 |
|      99 | 0xFFFFAE05  |  4294946309 |
|     100 | 0x6C5A      |       27738 |
|     101 | 0x002F      |          47 |
|     102 | 0xFFFFC7ED  |  4294952941 |
|     103 | 0x66BD      |       26301 |
|     104 | 0x0009      |           9 |
|     105 | 0x0078      |         120 |
|     106 | 0x3BEA      |       15338 |
|     107 | 0x3876      |       14454 |
|     108 | 0x3D7B      |       15739 |
|     109 | 0x446D      |       17517 |
|     110 | 0x2A8A      |       10890 |
|     111 | 0x4264      |       16996 |
|     112 | 0x4651      |       18001 |
|     113 | 0x546B      |       21611 |
|     114 | 0x2C5B      |       11355 |
|     115 | 0x4958      |       18776 |
|     116 | 0xFFFEE0C3  |  4294893763 |
|     117 | 0xFFFFFFE1  |  4294967265 |
|     118 | 0xFFFECBD5  |  4294888405 |
|     119 | 0xFFFFCAEF  |  4294953711 |
|     120 | 0x511E      |       20766 |
|     121 | 0x5310      |       21264 |
|     122 | 0x5B35      |       23349 |
|     123 | 0x577E      |       22398 |
|     124 | 0x51E3      |       20963 |
|     125 | 0x507C      |       20604 |
|     126 | 0x13355     |       78677 |
|     127 | 0xFFFDF485  |  4294833285 |
|     128 | 0x131BC     |       78268 |
|     129 | 0xFFFDEF97  |  4294832023 |
|     130 | 0x13157     |       78167 |
|     131 | 0xFFFDEBC0  |  4294831040 |
|     132 | 0x12E41     |       77377 |
|     133 | 0xFFFDE503  |  4294829315 |
|     134 | 0x1430E     |       82702 |
|     135 | 0xFFFDEDF7  |  4294831607 |

## Events

### Event 65535

#### Metadata

| Field        | Value   |
|--------------|---------|
| Entrypoint   | 0x0000  |
| Data Size    | 1 bytes |
| Instructions | 1       |

```
      00 01 02 03 04 05 06 07  08 09 0A 0B 0C 0D 0E 0F
      -- -- -- -- -- -- -- --  -- -- -- -- -- -- -- --
0000: 00                                                .               
```

#### Opcodes

```
  0: 0x0000 [0x00] END_REQSTACK()
```

### Event 520

#### Metadata

| Field        | Value   |
|--------------|---------|
| Entrypoint   | 0x0001  |
| Data Size    | 1 bytes |
| Instructions | 1       |

```
      00 01 02 03 04 05 06 07  08 09 0A 0B 0C 0D 0E 0F
      -- -- -- -- -- -- -- --  -- -- -- -- -- -- -- --
0000:    00                                              .              
```

#### Opcodes

```
  0: 0x0001 [0x00] END_REQSTACK()
```

### Event 65535.1

#### Metadata

| Field        | Value    |
|--------------|----------|
| Entrypoint   | 0x0002   |
| Data Size    | 15 bytes |
| Instructions | 3        |

```
      00 01 02 03 04 05 06 07  08 09 0A 0B 0C 0D 0E 0F
      -- -- -- -- -- -- -- --  -- -- -- -- -- -- -- --
0000:       37 00 80 01 80 02  80 03 80 80 F8 FF FF 7F    7.............
0010: 00                                                .               
```

#### Opcodes

```
  0: 0x0002 [0x37] UPDATE_EVENT_POSITION_AND_DIR: x=-90.836*, z=4.729*, y=0.000*, direction=297.9°*
  1: 0x000B [0x80] LOAD_WAIT(entity=EventEntity)
  2: 0x0010 [0x00] END_REQSTACK()
```

### Event 65535.2

#### Metadata

| Field        | Value    |
|--------------|----------|
| Entrypoint   | 0x0011   |
| Data Size    | 14 bytes |
| Instructions | 4        |

```
      00 01 02 03 04 05 06 07  08 09 0A 0B 0C 0D 0E 0F
      -- -- -- -- -- -- -- --  -- -- -- -- -- -- -- --
0010:    32 04 80 1F 00 05 80  06 80 02 80 1F 01 00      2............. 
```

#### Opcodes

```
  0: 0x0011 [0x32] ExtData[1]->MainSpeed = 40* * 0.1
  1: 0x0014 [0x1F] MOVE_ENTITY: EventEntity moves to X=-92.328*, Z=1.597*, Y=0.000*
  2: 0x001C [0x1F] MOVE_ENTITY: Update entity position (mode=1)
  3: 0x001E [0x00] END_REQSTACK()
```

### Event 525

#### Metadata

| Field        | Value   |
|--------------|---------|
| Entrypoint   | 0x001F  |
| Data Size    | 1 bytes |
| Instructions | 1       |

```
      00 01 02 03 04 05 06 07  08 09 0A 0B 0C 0D 0E 0F
      -- -- -- -- -- -- -- --  -- -- -- -- -- -- -- --
0010:                                               00                 .
```

#### Opcodes

```
  0: 0x001F [0x00] END_REQSTACK()
```

### Event 65535.3

#### Metadata

| Field        | Value    |
|--------------|----------|
| Entrypoint   | 0x0020   |
| Data Size    | 37 bytes |
| Instructions | 7        |

```
      00 01 02 03 04 05 06 07  08 09 0A 0B 0C 0D 0E 0F
      -- -- -- -- -- -- -- --  -- -- -- -- -- -- -- --
0020: 32 07 80 1F 00 00 80 01  80 02 80 1F 01 1E 2F 21  2............./!
0030: 03 01 1C 08 80 66 02 80  30 21 03 01 30 21 03 01  .....f..0!..0!..
0040: 74 6C 6B 30 00                                    tlk0.           
```

#### Opcodes

```
  0: 0x0020 [0x32] ExtData[1]->MainSpeed = 13* * 0.1
  1: 0x0023 [0x1F] MOVE_ENTITY: EventEntity moves to X=-90.836*, Z=4.729*, Y=0.000*
  2: 0x002B [0x1F] MOVE_ENTITY: Update entity position (mode=1)
  3: 0x002D [0x1E] EventEntity looks at Tehf Kimasnahya (ID: 16982319/0x0103212F) and starts talking
  4: 0x0032 [0x1C] WAIT(180* ticks)
  5: 0x0035 [0x66] LOAD_EXT_SCHEDULER_MAIN: Load scheduler "tlk0" with entities [Bashraf (ID: 16982320/0x01032130), Bashraf (ID: 16982320/0x01032130)], work=0*
  6: 0x0044 [0x00] END_REQSTACK()
```

### Event 527

#### Metadata

| Field        | Value   |
|--------------|---------|
| Entrypoint   | 0x0045  |
| Data Size    | 1 bytes |
| Instructions | 1       |

```
      00 01 02 03 04 05 06 07  08 09 0A 0B 0C 0D 0E 0F
      -- -- -- -- -- -- -- --  -- -- -- -- -- -- -- --
0040:                00                                      .          
```

#### Opcodes

```
  0: 0x0045 [0x00] END_REQSTACK()
```

### Event 65535.4

#### Metadata

| Field        | Value    |
|--------------|----------|
| Entrypoint   | 0x0046   |
| Data Size    | 15 bytes |
| Instructions | 3        |

```
      00 01 02 03 04 05 06 07  08 09 0A 0B 0C 0D 0E 0F
      -- -- -- -- -- -- -- --  -- -- -- -- -- -- -- --
0040:                   37 05  80 06 80 02 80 09 80 80        7.........
0050: F8 FF FF 7F 00                                    .....           
```

#### Opcodes

```
  0: 0x0046 [0x37] UPDATE_EVENT_POSITION_AND_DIR: x=-92.328*, z=1.597*, y=0.000*, direction=129.9°*
  1: 0x004F [0x80] LOAD_WAIT(entity=EventEntity)
  2: 0x0054 [0x00] END_REQSTACK()
```

### Event 65535.5

#### Metadata

| Field        | Value    |
|--------------|----------|
| Entrypoint   | 0x0055   |
| Data Size    | 14 bytes |
| Instructions | 4        |

```
      00 01 02 03 04 05 06 07  08 09 0A 0B 0C 0D 0E 0F
      -- -- -- -- -- -- -- --  -- -- -- -- -- -- -- --
0050:                32 04 80  1F 00 00 80 01 80 02 80       2..........
0060: 1F 01 00                                          ...             
```

#### Opcodes

```
  0: 0x0055 [0x32] ExtData[1]->MainSpeed = 40* * 0.1
  1: 0x0058 [0x1F] MOVE_ENTITY: EventEntity moves to X=-90.836*, Z=4.729*, Y=0.000*
  2: 0x0060 [0x1F] MOVE_ENTITY: Update entity position (mode=1)
  3: 0x0062 [0x00] END_REQSTACK()
```

### Event 65535.6

#### Metadata

| Field        | Value    |
|--------------|----------|
| Entrypoint   | 0x0063   |
| Data Size    | 14 bytes |
| Instructions | 4        |

```
      00 01 02 03 04 05 06 07  08 09 0A 0B 0C 0D 0E 0F
      -- -- -- -- -- -- -- --  -- -- -- -- -- -- -- --
0060:          32 07 80 1F 00  05 80 06 80 02 80 1F 01     2............
0070: 00                                                .               
```

#### Opcodes

```
  0: 0x0063 [0x32] ExtData[1]->MainSpeed = 13* * 0.1
  1: 0x0066 [0x1F] MOVE_ENTITY: EventEntity moves to X=-92.328*, Z=1.597*, Y=0.000*
  2: 0x006E [0x1F] MOVE_ENTITY: Update entity position (mode=1)
  3: 0x0070 [0x00] END_REQSTACK()
```

### Event 575

#### Metadata

| Field        | Value   |
|--------------|---------|
| Entrypoint   | 0x0071  |
| Data Size    | 1 bytes |
| Instructions | 1       |

```
      00 01 02 03 04 05 06 07  08 09 0A 0B 0C 0D 0E 0F
      -- -- -- -- -- -- -- --  -- -- -- -- -- -- -- --
0070:    00                                              .              
```

#### Opcodes

```
  0: 0x0071 [0x00] END_REQSTACK()
```

### Event 65535.7

#### Metadata

| Field        | Value    |
|--------------|----------|
| Entrypoint   | 0x0072   |
| Data Size    | 15 bytes |
| Instructions | 3        |

```
      00 01 02 03 04 05 06 07  08 09 0A 0B 0C 0D 0E 0F
      -- -- -- -- -- -- -- --  -- -- -- -- -- -- -- --
0070:       37 0A 80 0B 80 0C  80 0D 80 80 F8 FF FF 7F    7.............
0080: 00                                                .               
```

#### Opcodes

```
  0: 0x0072 [0x37] UPDATE_EVENT_POSITION_AND_DIR: x=-26.622*, z=29.187*, y=-6.000*, direction=183.0°*
  1: 0x007B [0x80] LOAD_WAIT(entity=EventEntity)
  2: 0x0080 [0x00] END_REQSTACK()
```

### Event 65535.8

#### Metadata

| Field        | Value    |
|--------------|----------|
| Entrypoint   | 0x0081   |
| Data Size    | 17 bytes |
| Instructions | 5        |

```
      00 01 02 03 04 05 06 07  08 09 0A 0B 0C 0D 0E 0F
      -- -- -- -- -- -- -- --  -- -- -- -- -- -- -- --
0080:    32 07 80 1F 00 0E 80  0F 80 0C 80 1F 01 39 10   2............9.
0090: 80 00                                             ..              
```

#### Opcodes

```
  0: 0x0081 [0x32] ExtData[1]->MainSpeed = 13* * 0.1
  1: 0x0084 [0x1F] MOVE_ENTITY: EventEntity moves to X=-25.365*, Z=23.727*, Y=-6.000*
  2: 0x008C [0x1F] MOVE_ENTITY: Update entity position (mode=1)
  3: 0x008E [0x39] SET_ENTITY_DIRECTION(direction=10.4°*)
  4: 0x0091 [0x00] END_REQSTACK()
```

### Event 65535.9

#### Metadata

| Field        | Value    |
|--------------|----------|
| Entrypoint   | 0x0092   |
| Data Size    | 17 bytes |
| Instructions | 5        |

```
      00 01 02 03 04 05 06 07  08 09 0A 0B 0C 0D 0E 0F
      -- -- -- -- -- -- -- --  -- -- -- -- -- -- -- --
0090:       32 07 80 1F 00 11  80 12 80 0C 80 1F 01 39    2............9
00A0: 10 80 00                                          ...             
```

#### Opcodes

```
  0: 0x0092 [0x32] ExtData[1]->MainSpeed = 13* * 0.1
  1: 0x0095 [0x1F] MOVE_ENTITY: EventEntity moves to X=-25.663*, Z=24.145*, Y=-6.000*
  2: 0x009D [0x1F] MOVE_ENTITY: Update entity position (mode=1)
  3: 0x009F [0x39] SET_ENTITY_DIRECTION(direction=10.4°*)
  4: 0x00A2 [0x00] END_REQSTACK()
```

### Event 65535.10

#### Metadata

| Field        | Value    |
|--------------|----------|
| Entrypoint   | 0x00A3   |
| Data Size    | 23 bytes |
| Instructions | 5        |

```
      00 01 02 03 04 05 06 07  08 09 0A 0B 0C 0D 0E 0F
      -- -- -- -- -- -- -- --  -- -- -- -- -- -- -- --
00A0:          32 07 80 1F 00  13 80 14 80 0C 80 1F 01     2............
00B0: 4A 30 21 03 01 AF 21 03  01 00                    J0!...!...      
```

#### Opcodes

```
  0: 0x00A3 [0x32] ExtData[1]->MainSpeed = 13* * 0.1
  1: 0x00A6 [0x1F] MOVE_ENTITY: EventEntity moves to X=-25.474*, Z=22.552*, Y=-6.000*
  2: 0x00AE [0x1F] MOVE_ENTITY: Update entity position (mode=1)
  3: 0x00B0 [0x4A] Bashraf (ID: 16982320/0x01032130) looks at Isween (ID: 16982447/0x010321AF)
  4: 0x00B9 [0x00] END_REQSTACK()
```

### Event 65535.11

#### Metadata

| Field        | Value    |
|--------------|----------|
| Entrypoint   | 0x00BA   |
| Data Size    | 15 bytes |
| Instructions | 3        |

```
      00 01 02 03 04 05 06 07  08 09 0A 0B 0C 0D 0E 0F
      -- -- -- -- -- -- -- --  -- -- -- -- -- -- -- --
00B0:                                37 13 80 14 80 0C            7.....
00C0: 80 15 80 80 F8 FF FF 7F  00                       .........       
```

#### Opcodes

```
  0: 0x00BA [0x37] UPDATE_EVENT_POSITION_AND_DIR: x=-25.474*, z=22.552*, y=-6.000*, direction=279.1°*
  1: 0x00C3 [0x80] LOAD_WAIT(entity=EventEntity)
  2: 0x00C8 [0x00] END_REQSTACK()
```

### Event 65535.12

#### Metadata

| Field        | Value    |
|--------------|----------|
| Entrypoint   | 0x00C9   |
| Data Size    | 15 bytes |
| Instructions | 3        |

```
      00 01 02 03 04 05 06 07  08 09 0A 0B 0C 0D 0E 0F
      -- -- -- -- -- -- -- --  -- -- -- -- -- -- -- --
00C0:                             37 16 80 17 80 02 80           7......
00D0: 18 80 80 F8 FF FF 7F 00                           ........        
```

#### Opcodes

```
  0: 0x00C9 [0x37] UPDATE_EVENT_POSITION_AND_DIR: x=52.051*, z=-1.168*, y=0.000*, direction=2.6°*
  1: 0x00D2 [0x80] LOAD_WAIT(entity=EventEntity)
  2: 0x00D7 [0x00] END_REQSTACK()
```

### Event 65535.13

#### Metadata

| Field        | Value    |
|--------------|----------|
| Entrypoint   | 0x00D8   |
| Data Size    | 14 bytes |
| Instructions | 4        |

```
      00 01 02 03 04 05 06 07  08 09 0A 0B 0C 0D 0E 0F
      -- -- -- -- -- -- -- --  -- -- -- -- -- -- -- --
00D0:                          32 04 80 1F 00 19 80 1A          2.......
00E0: 80 02 80 1F 01 00                                 ......          
```

#### Opcodes

```
  0: 0x00D8 [0x32] ExtData[1]->MainSpeed = 40* * 0.1
  1: 0x00DB [0x1F] MOVE_ENTITY: EventEntity moves to X=87.952*, Z=-2.202*, Y=0.000*
  2: 0x00E3 [0x1F] MOVE_ENTITY: Update entity position (mode=1)
  3: 0x00E5 [0x00] END_REQSTACK()
```

### Event 65535.14

#### Metadata

| Field        | Value    |
|--------------|----------|
| Entrypoint   | 0x00E6   |
| Data Size    | 15 bytes |
| Instructions | 3        |

```
      00 01 02 03 04 05 06 07  08 09 0A 0B 0C 0D 0E 0F
      -- -- -- -- -- -- -- --  -- -- -- -- -- -- -- --
00E0:                   37 1B  80 1C 80 02 80 1D 80 80        7.........
00F0: F8 FF FF 7F 00                                    .....           
```

#### Opcodes

```
  0: 0x00E6 [0x37] UPDATE_EVENT_POSITION_AND_DIR: x=87.874*, z=-1.533*, y=0.000*, direction=268.0°*
  1: 0x00EF [0x80] LOAD_WAIT(entity=EventEntity)
  2: 0x00F4 [0x00] END_REQSTACK()
```

### Event 65535.15

#### Metadata

| Field        | Value    |
|--------------|----------|
| Entrypoint   | 0x00F5   |
| Data Size    | 24 bytes |
| Instructions | 6        |

```
      00 01 02 03 04 05 06 07  08 09 0A 0B 0C 0D 0E 0F
      -- -- -- -- -- -- -- --  -- -- -- -- -- -- -- --
00F0:                32 04 80  1F 00 1E 80 1F 80 0C 80       2..........
0100: 1F 01 1F 00 20 80 21 80  22 80 1F 01 00           .... .!."....   
```

#### Opcodes

```
  0: 0x00F5 [0x32] ExtData[1]->MainSpeed = 40* * 0.1
  1: 0x00F8 [0x1F] MOVE_ENTITY: EventEntity moves to X=-23.671*, Z=24.613*, Y=-6.000*
  2: 0x0100 [0x1F] MOVE_ENTITY: Update entity position (mode=1)
  3: 0x0102 [0x1F] MOVE_ENTITY: EventEntity moves to X=-23.383*, Z=17.961*, Y=-3.999*
  4: 0x010A [0x1F] MOVE_ENTITY: Update entity position (mode=1)
  5: 0x010C [0x00] END_REQSTACK()
```

### Event 65535.16

#### Metadata

| Field        | Value    |
|--------------|----------|
| Entrypoint   | 0x010D   |
| Data Size    | 24 bytes |
| Instructions | 3        |

```
      00 01 02 03 04 05 06 07  08 09 0A 0B 0C 0D 0E 0F
      -- -- -- -- -- -- -- --  -- -- -- -- -- -- -- --
0100:                                         95 02 80               ...
0110: B6 0B 23 80 24 80 02 80  25 80 25 80 25 80 25 80  ..#.$...%.%.%.%.
0120: 26 80 02 80 00                                    &....           
```

#### Opcodes

```
  0: 0x010D [0x95] SETUP_EVENT_NPC: Prepare NPC for event (Render.Flags3 = 0*)
  1: 0x0110 [0xB6] ENTITY_APPEARANCE_HANDLER(case=Full entity look, race=1*, hair=2*, head=0*, body=6*, hands=6*, legs=6*, feet=6*, main=251*, sub=0*)
  2: 0x0124 [0x00] END_REQSTACK()
```

### Event 65535.17

#### Metadata

| Field        | Value    |
|--------------|----------|
| Entrypoint   | 0x0125   |
| Data Size    | 22 bytes |
| Instructions | 3        |

```
      00 01 02 03 04 05 06 07  08 09 0A 0B 0C 0D 0E 0F
      -- -- -- -- -- -- -- --  -- -- -- -- -- -- -- --
0120:                96 B6 0B  23 80 24 80 02 80 25 80       ...#.$...%.
0130: 25 80 25 80 25 80 02 80  02 80 00                 %.%.%......     
```

#### Opcodes

```
  0: 0x0125 [0x96] UNSET_EVENT_NPC: Restore NPC after event (removes event NPC status)
  1: 0x0126 [0xB6] ENTITY_APPEARANCE_HANDLER(case=Full entity look, race=1*, hair=2*, head=0*, body=6*, hands=6*, legs=6*, feet=6*, main=0*, sub=0*)
  2: 0x013A [0x00] END_REQSTACK()
```

### Event 65535.18

#### Metadata

| Field        | Value    |
|--------------|----------|
| Entrypoint   | 0x013B   |
| Data Size    | 15 bytes |
| Instructions | 3        |

```
      00 01 02 03 04 05 06 07  08 09 0A 0B 0C 0D 0E 0F
      -- -- -- -- -- -- -- --  -- -- -- -- -- -- -- --
0130:                                   37 27 80 28 80             7'.(.
0140: 29 80 2A 80 80 F8 FF FF  7F 00                    ).*.......      
```

#### Opcodes

```
  0: 0x013B [0x37] UPDATE_EVENT_POSITION_AND_DIR: x=468.976*, z=235.532*, y=-23.852*, direction=98.9°*
  1: 0x0144 [0x80] LOAD_WAIT(entity=EventEntity)
  2: 0x0149 [0x00] END_REQSTACK()
```

### Event 65535.19

#### Metadata

| Field        | Value    |
|--------------|----------|
| Entrypoint   | 0x014A   |
| Data Size    | 13 bytes |
| Instructions | 3        |

```
      00 01 02 03 04 05 06 07  08 09 0A 0B 0C 0D 0E 0F
      -- -- -- -- -- -- -- --  -- -- -- -- -- -- -- --
0140:                                6E 30 21 03 01 2B            n0!..+
0150: 80 99 30 21 03 01 00                              ..0!...         
```

#### Opcodes

```
  0: 0x014A [0x6E] Bashraf (ID: 16982320/0x01032130) uses emote 43*
  1: 0x0151 [0x99] Wait for Bashraf (ID: 16982320/0x01032130) animation to complete
  2: 0x0156 [0x00] END_REQSTACK()
```

### Event 65535.20

#### Metadata

| Field        | Value    |
|--------------|----------|
| Entrypoint   | 0x0157   |
| Data Size    | 16 bytes |
| Instructions | 2        |

```
      00 01 02 03 04 05 06 07  08 09 0A 0B 0C 0D 0E 0F
      -- -- -- -- -- -- -- --  -- -- -- -- -- -- -- --
0150:                      66  2C 80 30 21 03 01 AE 21         f,.0!...!
0160: 03 01 6B 65 69 30 00                              ..kei0.         
```

#### Opcodes

```
  0: 0x0157 [0x66] LOAD_EXT_SCHEDULER_MAIN: Load scheduler "kei0" with entities [Bashraf (ID: 16982320/0x01032130), Mishhar (ID: 16982446/0x010321AE)], work=3*
  1: 0x0166 [0x00] END_REQSTACK()
```

### Event 65535.21

#### Metadata

| Field        | Value    |
|--------------|----------|
| Entrypoint   | 0x0167   |
| Data Size    | 14 bytes |
| Instructions | 4        |

```
      00 01 02 03 04 05 06 07  08 09 0A 0B 0C 0D 0E 0F
      -- -- -- -- -- -- -- --  -- -- -- -- -- -- -- --
0160:                      32  04 80 1F 00 2D 80 2E 80         2....-...
0170: 02 80 1F 01 00                                    .....           
```

#### Opcodes

```
  0: 0x0167 [0x32] ExtData[1]->MainSpeed = 40* * 0.1
  1: 0x016A [0x1F] MOVE_ENTITY: EventEntity moves to X=125.827*, Z=-0.171*, Y=0.000*
  2: 0x0172 [0x1F] MOVE_ENTITY: Update entity position (mode=1)
  3: 0x0174 [0x00] END_REQSTACK()
```

### Event 269

#### Metadata

| Field        | Value   |
|--------------|---------|
| Entrypoint   | 0x0175  |
| Data Size    | 1 bytes |
| Instructions | 1       |

```
      00 01 02 03 04 05 06 07  08 09 0A 0B 0C 0D 0E 0F
      -- -- -- -- -- -- -- --  -- -- -- -- -- -- -- --
0170:                00                                      .          
```

#### Opcodes

```
  0: 0x0175 [0x00] END_REQSTACK()
```

### Event 65535.22

#### Metadata

| Field        | Value    |
|--------------|----------|
| Entrypoint   | 0x0176   |
| Data Size    | 15 bytes |
| Instructions | 3        |

```
      00 01 02 03 04 05 06 07  08 09 0A 0B 0C 0D 0E 0F
      -- -- -- -- -- -- -- --  -- -- -- -- -- -- -- --
0170:                   37 2F  80 30 80 02 80 31 80 80        7/.0...1..
0180: F8 FF FF 7F 00                                    .....           
```

#### Opcodes

```
  0: 0x0176 [0x37] UPDATE_EVENT_POSITION_AND_DIR: x=108.589*, z=16.655*, y=0.000*, direction=345.2°*
  1: 0x017F [0x80] LOAD_WAIT(entity=EventEntity)
  2: 0x0184 [0x00] END_REQSTACK()
```

### Event 65535.23

#### Metadata

| Field        | Value    |
|--------------|----------|
| Entrypoint   | 0x0185   |
| Data Size    | 34 bytes |
| Instructions | 8        |

```
      00 01 02 03 04 05 06 07  08 09 0A 0B 0C 0D 0E 0F
      -- -- -- -- -- -- -- --  -- -- -- -- -- -- -- --
0180:                32 07 80  1F 00 32 80 33 80 34 80       2....2.3.4.
0190: 1F 01 27 05 34 20 03 01  02 1C 18 80 1F 00 35 80  ..'.4 ........5.
01A0: 36 80 37 80 1F 01 00                              6.7....         
```

#### Opcodes

```
  0: 0x0185 [0x32] ExtData[1]->MainSpeed = 13* * 0.1
  1: 0x0188 [0x1F] MOVE_ENTITY: EventEntity moves to X=111.085*, Z=21.942*, Y=-0.316*
  2: 0x0190 [0x1F] MOVE_ENTITY: Update entity position (mode=1)
  3: 0x0192 [0x27] REQ_SET(priority=0x05, entity_id=Door: Chamber of Passage (ID: 16982068/0x01032034), tag_num=0x02)
  4: 0x0199 [0x1C] WAIT(30* ticks)
  5: 0x019C [0x1F] MOVE_ENTITY: EventEntity moves to X=111.951*, Z=29.478*, Y=-0.326*
  6: 0x01A4 [0x1F] MOVE_ENTITY: Update entity position (mode=1)
  7: 0x01A6 [0x00] END_REQSTACK()
```

### Event 65535.24

#### Metadata

| Field        | Value    |
|--------------|----------|
| Entrypoint   | 0x01A7   |
| Data Size    | 19 bytes |
| Instructions | 5        |

```
      00 01 02 03 04 05 06 07  08 09 0A 0B 0C 0D 0E 0F
      -- -- -- -- -- -- -- --  -- -- -- -- -- -- -- --
01A0:                      32  07 80 1F 00 38 80 39 80         2....8.9.
01B0: 3A 80 1F 01 1E 35 20 03  01 00                    :....5 ...      
```

#### Opcodes

```
  0: 0x01A7 [0x32] ExtData[1]->MainSpeed = 13* * 0.1
  1: 0x01AA [0x1F] MOVE_ENTITY: EventEntity moves to X=121.369*, Z=31.573*, Y=-0.315*
  2: 0x01B2 [0x1F] MOVE_ENTITY: Update entity position (mode=1)
  3: 0x01B4 [0x1E] EventEntity looks at Sharin-Garin (ID: 16982069/0x01032035) and starts talking
  4: 0x01B9 [0x00] END_REQSTACK()
```

### Event 65535.25

#### Metadata

| Field        | Value    |
|--------------|----------|
| Entrypoint   | 0x01BA   |
| Data Size    | 14 bytes |
| Instructions | 4        |

```
      00 01 02 03 04 05 06 07  08 09 0A 0B 0C 0D 0E 0F
      -- -- -- -- -- -- -- --  -- -- -- -- -- -- -- --
01B0:                                32 07 80 1F 00 3B            2....;
01C0: 80 3C 80 3A 80 1F 01 00                           .<.:....        
```

#### Opcodes

```
  0: 0x01BA [0x32] ExtData[1]->MainSpeed = 13* * 0.1
  1: 0x01BD [0x1F] MOVE_ENTITY: EventEntity moves to X=124.227*, Z=31.926*, Y=-0.315*
  2: 0x01C5 [0x1F] MOVE_ENTITY: Update entity position (mode=1)
  3: 0x01C7 [0x00] END_REQSTACK()
```

### Event 65535.26

#### Metadata

| Field        | Value    |
|--------------|----------|
| Entrypoint   | 0x01C8   |
| Data Size    | 20 bytes |
| Instructions | 4        |

```
      00 01 02 03 04 05 06 07  08 09 0A 0B 0C 0D 0E 0F
      -- -- -- -- -- -- -- --  -- -- -- -- -- -- -- --
01C0:                          37 3D 80 3E 80 3F 80 40          7=.>.?.@
01D0: 80 80 F8 FF FF 7F 1E A5  20 03 01 00              ........ ...    
```

#### Opcodes

```
  0: 0x01C8 [0x37] UPDATE_EVENT_POSITION_AND_DIR: x=-207.368*, z=-781.384*, y=-11.545*, direction=237.5°*
  1: 0x01D1 [0x80] LOAD_WAIT(entity=EventEntity)
  2: 0x01D6 [0x1E] EventEntity looks at Unnamed NPC (ID: 16982181/0x010320A5) and starts talking
  3: 0x01DB [0x00] END_REQSTACK()
```

### Event 65535.27

#### Metadata

| Field        | Value    |
|--------------|----------|
| Entrypoint   | 0x01DC   |
| Data Size    | 53 bytes |
| Instructions | 11       |

```
      00 01 02 03 04 05 06 07  08 09 0A 0B 0C 0D 0E 0F
      -- -- -- -- -- -- -- --  -- -- -- -- -- -- -- --
01D0:                                      37 41 80 42              7A.B
01E0: 80 43 80 44 80 80 F8 FF  FF 7F 32 07 80 1F 00 45  .C.D......2....E
01F0: 80 46 80 47 80 1F 01 4B  30 21 03 01 48 80 1C 18  .F.G...K0!..H...
0200: 80 6E 30 21 03 01 02 80  99 30 21 03 01 1C 49 80  .n0!.....0!...I.
0210: 00                                                .               
```

#### Opcodes

```
  0: 0x01DC [0x37] UPDATE_EVENT_POSITION_AND_DIR: x=-183.147*, z=-826.464*, y=-5.910*, direction=91.8°*
  1: 0x01E5 [0x80] LOAD_WAIT(entity=EventEntity)
  2: 0x01EA [0x32] ExtData[1]->MainSpeed = 13* * 0.1
  3: 0x01ED [0x1F] MOVE_ENTITY: EventEntity moves to X=-180.188*, Z=-831.578*, Y=-4.632*
  4: 0x01F5 [0x1F] MOVE_ENTITY: Update entity position (mode=1)
  5: 0x01F7 [0x4B] UPDATE_ENTITY_YAW(entity=Bashraf (ID: 16982320/0x01032130), yaw=4.9°*)
  6: 0x01FE [0x1C] WAIT(30* ticks)
  7: 0x0201 [0x6E] Bashraf (ID: 16982320/0x01032130) uses emote 0*
  8: 0x0208 [0x99] Wait for Bashraf (ID: 16982320/0x01032130) animation to complete
  9: 0x020D [0x1C] WAIT(90* ticks)
 10: 0x0210 [0x00] END_REQSTACK()
```

### Event 65535.28

#### Metadata

| Field        | Value    |
|--------------|----------|
| Entrypoint   | 0x0211   |
| Data Size    | 15 bytes |
| Instructions | 3        |

```
      00 01 02 03 04 05 06 07  08 09 0A 0B 0C 0D 0E 0F
      -- -- -- -- -- -- -- --  -- -- -- -- -- -- -- --
0210:    37 4A 80 4B 80 4C 80  4D 80 80 F8 FF FF 7F 00   7J.K.L.M.......
```

#### Opcodes

```
  0: 0x0211 [0x37] UPDATE_EVENT_POSITION_AND_DIR: x=-317.451*, z=-339.690*, y=-9.272*, direction=177.2°*
  1: 0x021A [0x80] LOAD_WAIT(entity=EventEntity)
  2: 0x021F [0x00] END_REQSTACK()
```

### Event 65535.29

#### Metadata

| Field        | Value    |
|--------------|----------|
| Entrypoint   | 0x0220   |
| Data Size    | 14 bytes |
| Instructions | 4        |

```
      00 01 02 03 04 05 06 07  08 09 0A 0B 0C 0D 0E 0F
      -- -- -- -- -- -- -- --  -- -- -- -- -- -- -- --
0220: 32 04 80 1F 00 4E 80 4F  80 50 80 1F 01 00        2....N.O.P....  
```

#### Opcodes

```
  0: 0x0220 [0x32] ExtData[1]->MainSpeed = 40* * 0.1
  1: 0x0223 [0x1F] MOVE_ENTITY: EventEntity moves to X=-335.912*, Z=-342.552*, Y=-9.322*
  2: 0x022B [0x1F] MOVE_ENTITY: Update entity position (mode=1)
  3: 0x022D [0x00] END_REQSTACK()
```

### Event 800

#### Metadata

| Field        | Value   |
|--------------|---------|
| Entrypoint   | 0x022E  |
| Data Size    | 1 bytes |
| Instructions | 1       |

```
      00 01 02 03 04 05 06 07  08 09 0A 0B 0C 0D 0E 0F
      -- -- -- -- -- -- -- --  -- -- -- -- -- -- -- --
0220:                                            00                   . 
```

#### Opcodes

```
  0: 0x022E [0x00] END_REQSTACK()
```

### Event 65535.30

#### Metadata

| Field        | Value    |
|--------------|----------|
| Entrypoint   | 0x022F   |
| Data Size    | 15 bytes |
| Instructions | 3        |

```
      00 01 02 03 04 05 06 07  08 09 0A 0B 0C 0D 0E 0F
      -- -- -- -- -- -- -- --  -- -- -- -- -- -- -- --
0220:                                               37                 7
0230: 51 80 52 80 53 80 54 80  80 F8 FF FF 7F 00        Q.R.S.T.......  
```

#### Opcodes

```
  0: 0x022F [0x37] UPDATE_EVENT_POSITION_AND_DIR: x=-13.853*, z=28.273*, y=-5.999*, direction=357.5°*
  1: 0x0238 [0x80] LOAD_WAIT(entity=EventEntity)
  2: 0x023D [0x00] END_REQSTACK()
```

### Event 65535.31

#### Metadata

| Field        | Value    |
|--------------|----------|
| Entrypoint   | 0x023E   |
| Data Size    | 14 bytes |
| Instructions | 4        |

```
      00 01 02 03 04 05 06 07  08 09 0A 0B 0C 0D 0E 0F
      -- -- -- -- -- -- -- --  -- -- -- -- -- -- -- --
0230:                                            32 04                2.
0240: 80 1F 00 55 80 56 80 53  80 1F 01 00              ...U.V.S....    
```

#### Opcodes

```
  0: 0x023E [0x32] ExtData[1]->MainSpeed = 40* * 0.1
  1: 0x0241 [0x1F] MOVE_ENTITY: EventEntity moves to X=-22.038*, Z=26.546*, Y=-5.999*
  2: 0x0249 [0x1F] MOVE_ENTITY: Update entity position (mode=1)
  3: 0x024B [0x00] END_REQSTACK()
```

### Event 803

#### Metadata

| Field        | Value   |
|--------------|---------|
| Entrypoint   | 0x024C  |
| Data Size    | 1 bytes |
| Instructions | 1       |

```
      00 01 02 03 04 05 06 07  08 09 0A 0B 0C 0D 0E 0F
      -- -- -- -- -- -- -- --  -- -- -- -- -- -- -- --
0240:                                      00                       .   
```

#### Opcodes

```
  0: 0x024C [0x00] END_REQSTACK()
```

### Event 65535.32

#### Metadata

| Field        | Value    |
|--------------|----------|
| Entrypoint   | 0x024D   |
| Data Size    | 15 bytes |
| Instructions | 3        |

```
      00 01 02 03 04 05 06 07  08 09 0A 0B 0C 0D 0E 0F
      -- -- -- -- -- -- -- --  -- -- -- -- -- -- -- --
0240:                                         37 57 80               7W.
0250: 58 80 59 80 5A 80 80 F8  FF FF 7F 00              X.Y.Z.......    
```

#### Opcodes

```
  0: 0x024D [0x37] UPDATE_EVENT_POSITION_AND_DIR: x=-149.468*, z=-0.159*, y=1.800*, direction=14.1°*
  1: 0x0256 [0x80] LOAD_WAIT(entity=EventEntity)
  2: 0x025B [0x00] END_REQSTACK()
```

### Event 65535.33

#### Metadata

| Field        | Value    |
|--------------|----------|
| Entrypoint   | 0x025C   |
| Data Size    | 24 bytes |
| Instructions | 3        |

```
      00 01 02 03 04 05 06 07  08 09 0A 0B 0C 0D 0E 0F
      -- -- -- -- -- -- -- --  -- -- -- -- -- -- -- --
0250:                                      95 02 80 B6              ....
0260: 0B 23 80 5B 80 02 80 5C  80 5C 80 5C 80 5C 80 26  .#.[...\.\.\.\.&
0270: 80 02 80 00                                       ....            
```

#### Opcodes

```
  0: 0x025C [0x95] SETUP_EVENT_NPC: Prepare NPC for event (Render.Flags3 = 0*)
  1: 0x025F [0xB6] ENTITY_APPEARANCE_HANDLER(case=Full entity look, race=1*, hair=14*, head=0*, body=129*, hands=129*, legs=129*, feet=129*, main=251*, sub=0*)
  2: 0x0273 [0x00] END_REQSTACK()
```

### Event 65535.34

#### Metadata

| Field        | Value    |
|--------------|----------|
| Entrypoint   | 0x0274   |
| Data Size    | 14 bytes |
| Instructions | 4        |

```
      00 01 02 03 04 05 06 07  08 09 0A 0B 0C 0D 0E 0F
      -- -- -- -- -- -- -- --  -- -- -- -- -- -- -- --
0270:             32 07 80 1F  00 5D 80 5E 80 5F 80 1F      2....].^._..
0280: 01 00                                             ..              
```

#### Opcodes

```
  0: 0x0274 [0x32] ExtData[1]->MainSpeed = 13* * 0.1
  1: 0x0277 [0x1F] MOVE_ENTITY: EventEntity moves to X=-140.822*, Z=-1.027*, Y=1.999*
  2: 0x027F [0x1F] MOVE_ENTITY: Update entity position (mode=1)
  3: 0x0281 [0x00] END_REQSTACK()
```

### Event 65535.35

#### Metadata

| Field        | Value    |
|--------------|----------|
| Entrypoint   | 0x0282   |
| Data Size    | 14 bytes |
| Instructions | 4        |

```
      00 01 02 03 04 05 06 07  08 09 0A 0B 0C 0D 0E 0F
      -- -- -- -- -- -- -- --  -- -- -- -- -- -- -- --
0280:       32 07 80 1F 00 60  80 61 80 62 80 1F 01 00    2....`.a.b....
```

#### Opcodes

```
  0: 0x0282 [0x32] ExtData[1]->MainSpeed = 13* * 0.1
  1: 0x0285 [0x1F] MOVE_ENTITY: EventEntity moves to X=-128.307*, Z=0.124*, Y=1.050*
  2: 0x028D [0x1F] MOVE_ENTITY: Update entity position (mode=1)
  3: 0x028F [0x00] END_REQSTACK()
```

### Event 65535.36

#### Metadata

| Field        | Value    |
|--------------|----------|
| Entrypoint   | 0x0290   |
| Data Size    | 15 bytes |
| Instructions | 3        |

```
      00 01 02 03 04 05 06 07  08 09 0A 0B 0C 0D 0E 0F
      -- -- -- -- -- -- -- --  -- -- -- -- -- -- -- --
0290: 37 63 80 64 80 53 80 65  80 80 F8 FF FF 7F 00     7c.d.S.e....... 
```

#### Opcodes

```
  0: 0x0290 [0x37] UPDATE_EVENT_POSITION_AND_DIR: x=-20.987*, z=27.738*, y=-5.999*, direction=4.1°*
  1: 0x0299 [0x80] LOAD_WAIT(entity=EventEntity)
  2: 0x029E [0x00] END_REQSTACK()
```

### Event 65535.37

#### Metadata

| Field        | Value    |
|--------------|----------|
| Entrypoint   | 0x029F   |
| Data Size    | 40 bytes |
| Instructions | 8        |

```
      00 01 02 03 04 05 06 07  08 09 0A 0B 0C 0D 0E 0F
      -- -- -- -- -- -- -- --  -- -- -- -- -- -- -- --
0290:                                               32                 2
02A0: 04 80 1F 00 66 80 67 80  0C 80 1F 01 1E AE 21 03  ....f.g.......!.
02B0: 01 1C 18 80 66 68 80 30  21 03 01 30 21 03 01 73  ....fh.0!..0!..s
02C0: 68 61 30 1C 69 80 00                              ha0.i..         
```

#### Opcodes

```
  0: 0x029F [0x32] ExtData[1]->MainSpeed = 40* * 0.1
  1: 0x02A2 [0x1F] MOVE_ENTITY: EventEntity moves to X=-14.355*, Z=26.301*, Y=-6.000*
  2: 0x02AA [0x1F] MOVE_ENTITY: Update entity position (mode=1)
  3: 0x02AC [0x1E] EventEntity looks at Mishhar (ID: 16982446/0x010321AE) and starts talking
  4: 0x02B1 [0x1C] WAIT(30* ticks)
  5: 0x02B4 [0x66] LOAD_EXT_SCHEDULER_MAIN: Load scheduler "sha0" with entities [Bashraf (ID: 16982320/0x01032130), Bashraf (ID: 16982320/0x01032130)], work=9*
  6: 0x02C3 [0x1C] WAIT(120* ticks)
  7: 0x02C6 [0x00] END_REQSTACK()
```

### Event 836

#### Metadata

| Field        | Value   |
|--------------|---------|
| Entrypoint   | 0x02C7  |
| Data Size    | 1 bytes |
| Instructions | 1       |

```
      00 01 02 03 04 05 06 07  08 09 0A 0B 0C 0D 0E 0F
      -- -- -- -- -- -- -- --  -- -- -- -- -- -- -- --
02C0:                      00                                  .        
```

#### Opcodes

```
  0: 0x02C7 [0x00] END_REQSTACK()
```

### Event 65535.38

#### Metadata

| Field        | Value    |
|--------------|----------|
| Entrypoint   | 0x02C8   |
| Data Size    | 14 bytes |
| Instructions | 4        |

```
      00 01 02 03 04 05 06 07  08 09 0A 0B 0C 0D 0E 0F
      -- -- -- -- -- -- -- --  -- -- -- -- -- -- -- --
02C0:                          32 07 80 1F 00 6A 80 6B          2....j.k
02D0: 80 02 80 1F 01 00                                 ......          
```

#### Opcodes

```
  0: 0x02C8 [0x32] ExtData[1]->MainSpeed = 13* * 0.1
  1: 0x02CB [0x1F] MOVE_ENTITY: EventEntity moves to X=15.338*, Z=14.454*, Y=0.000*
  2: 0x02D3 [0x1F] MOVE_ENTITY: Update entity position (mode=1)
  3: 0x02D5 [0x00] END_REQSTACK()
```

### Event 65535.39

#### Metadata

| Field        | Value    |
|--------------|----------|
| Entrypoint   | 0x02D6   |
| Data Size    | 14 bytes |
| Instructions | 4        |

```
      00 01 02 03 04 05 06 07  08 09 0A 0B 0C 0D 0E 0F
      -- -- -- -- -- -- -- --  -- -- -- -- -- -- -- --
02D0:                   32 04  80 1F 00 6C 80 6D 80 02        2....l.m..
02E0: 80 1F 01 00                                       ....            
```

#### Opcodes

```
  0: 0x02D6 [0x32] ExtData[1]->MainSpeed = 40* * 0.1
  1: 0x02D9 [0x1F] MOVE_ENTITY: EventEntity moves to X=15.739*, Z=17.517*, Y=0.000*
  2: 0x02E1 [0x1F] MOVE_ENTITY: Update entity position (mode=1)
  3: 0x02E3 [0x00] END_REQSTACK()
```

### Event 65535.40

#### Metadata

| Field        | Value    |
|--------------|----------|
| Entrypoint   | 0x02E4   |
| Data Size    | 14 bytes |
| Instructions | 4        |

```
      00 01 02 03 04 05 06 07  08 09 0A 0B 0C 0D 0E 0F
      -- -- -- -- -- -- -- --  -- -- -- -- -- -- -- --
02E0:             32 07 80 1F  00 6E 80 6F 80 02 80 1F      2....n.o....
02F0: 01 00                                             ..              
```

#### Opcodes

```
  0: 0x02E4 [0x32] ExtData[1]->MainSpeed = 13* * 0.1
  1: 0x02E7 [0x1F] MOVE_ENTITY: EventEntity moves to X=10.890*, Z=16.996*, Y=0.000*
  2: 0x02EF [0x1F] MOVE_ENTITY: Update entity position (mode=1)
  3: 0x02F1 [0x00] END_REQSTACK()
```

### Event 838

#### Metadata

| Field        | Value   |
|--------------|---------|
| Entrypoint   | 0x02F2  |
| Data Size    | 1 bytes |
| Instructions | 1       |

```
      00 01 02 03 04 05 06 07  08 09 0A 0B 0C 0D 0E 0F
      -- -- -- -- -- -- -- --  -- -- -- -- -- -- -- --
02F0:       00                                            .             
```

#### Opcodes

```
  0: 0x02F2 [0x00] END_REQSTACK()
```

### Event 65535.41

#### Metadata

| Field        | Value    |
|--------------|----------|
| Entrypoint   | 0x02F3   |
| Data Size    | 22 bytes |
| Instructions | 6        |

```
      00 01 02 03 04 05 06 07  08 09 0A 0B 0C 0D 0E 0F
      -- -- -- -- -- -- -- --  -- -- -- -- -- -- -- --
02F0:          32 07 80 1F 00  70 80 71 80 02 80 1F 01     2....p.q.....
0300: 1E 31 21 03 01 1C 18 80  00                       .1!......       
```

#### Opcodes

```
  0: 0x02F3 [0x32] ExtData[1]->MainSpeed = 13* * 0.1
  1: 0x02F6 [0x1F] MOVE_ENTITY: EventEntity moves to X=18.001*, Z=21.611*, Y=0.000*
  2: 0x02FE [0x1F] MOVE_ENTITY: Update entity position (mode=1)
  3: 0x0300 [0x1E] EventEntity looks at Foudeel (ID: 16982321/0x01032131) and starts talking
  4: 0x0305 [0x1C] WAIT(30* ticks)
  5: 0x0308 [0x00] END_REQSTACK()
```

### Event 65535.42

#### Metadata

| Field        | Value    |
|--------------|----------|
| Entrypoint   | 0x0309   |
| Data Size    | 14 bytes |
| Instructions | 4        |

```
      00 01 02 03 04 05 06 07  08 09 0A 0B 0C 0D 0E 0F
      -- -- -- -- -- -- -- --  -- -- -- -- -- -- -- --
0300:                             32 07 80 1F 00 72 80           2....r.
0310: 73 80 02 80 1F 01 00                              s......         
```

#### Opcodes

```
  0: 0x0309 [0x32] ExtData[1]->MainSpeed = 13* * 0.1
  1: 0x030C [0x1F] MOVE_ENTITY: EventEntity moves to X=11.355*, Z=18.776*, Y=0.000*
  2: 0x0314 [0x1F] MOVE_ENTITY: Update entity position (mode=1)
  3: 0x0316 [0x00] END_REQSTACK()
```

### Event 843

#### Metadata

| Field        | Value   |
|--------------|---------|
| Entrypoint   | 0x0317  |
| Data Size    | 1 bytes |
| Instructions | 1       |

```
      00 01 02 03 04 05 06 07  08 09 0A 0B 0C 0D 0E 0F
      -- -- -- -- -- -- -- --  -- -- -- -- -- -- -- --
0310:                      00                                  .        
```

#### Opcodes

```
  0: 0x0317 [0x00] END_REQSTACK()
```

### Event 65535.43

#### Metadata

| Field        | Value    |
|--------------|----------|
| Entrypoint   | 0x0318   |
| Data Size    | 14 bytes |
| Instructions | 4        |

```
      00 01 02 03 04 05 06 07  08 09 0A 0B 0C 0D 0E 0F
      -- -- -- -- -- -- -- --  -- -- -- -- -- -- -- --
0310:                          32 07 80 1F 00 74 80 75          2....t.u
0320: 80 02 80 1F 01 00                                 ......          
```

#### Opcodes

```
  0: 0x0318 [0x32] ExtData[1]->MainSpeed = 13* * 0.1
  1: 0x031B [0x1F] MOVE_ENTITY: EventEntity moves to X=-73.533*, Z=-0.031*, Y=0.000*
  2: 0x0323 [0x1F] MOVE_ENTITY: Update entity position (mode=1)
  3: 0x0325 [0x00] END_REQSTACK()
```

### Event 65535.44

#### Metadata

| Field        | Value    |
|--------------|----------|
| Entrypoint   | 0x0326   |
| Data Size    | 14 bytes |
| Instructions | 4        |

```
      00 01 02 03 04 05 06 07  08 09 0A 0B 0C 0D 0E 0F
      -- -- -- -- -- -- -- --  -- -- -- -- -- -- -- --
0320:                   32 07  80 1F 00 76 80 77 80 02        2....v.w..
0330: 80 1F 01 00                                       ....            
```

#### Opcodes

```
  0: 0x0326 [0x32] ExtData[1]->MainSpeed = 13* * 0.1
  1: 0x0329 [0x1F] MOVE_ENTITY: EventEntity moves to X=-78.891*, Z=-13.585*, Y=0.000*
  2: 0x0331 [0x1F] MOVE_ENTITY: Update entity position (mode=1)
  3: 0x0333 [0x00] END_REQSTACK()
```

### Event 845

#### Metadata

| Field        | Value   |
|--------------|---------|
| Entrypoint   | 0x0334  |
| Data Size    | 1 bytes |
| Instructions | 1       |

```
      00 01 02 03 04 05 06 07  08 09 0A 0B 0C 0D 0E 0F
      -- -- -- -- -- -- -- --  -- -- -- -- -- -- -- --
0330:             00                                        .           
```

#### Opcodes

```
  0: 0x0334 [0x00] END_REQSTACK()
```

### Event 65535.45

#### Metadata

| Field        | Value    |
|--------------|----------|
| Entrypoint   | 0x0335   |
| Data Size    | 22 bytes |
| Instructions | 6        |

```
      00 01 02 03 04 05 06 07  08 09 0A 0B 0C 0D 0E 0F
      -- -- -- -- -- -- -- --  -- -- -- -- -- -- -- --
0330:                32 07 80  1F 00 78 80 79 80 02 80       2....x.y...
0340: 1F 01 1E 76 20 03 01 1C  18 80 00                 ...v ......     
```

#### Opcodes

```
  0: 0x0335 [0x32] ExtData[1]->MainSpeed = 13* * 0.1
  1: 0x0338 [0x1F] MOVE_ENTITY: EventEntity moves to X=20.766*, Z=21.264*, Y=0.000*
  2: 0x0340 [0x1F] MOVE_ENTITY: Update entity position (mode=1)
  3: 0x0342 [0x1E] EventEntity looks at Kubhe Ijyuhla (ID: 16982134/0x01032076) and starts talking
  4: 0x0347 [0x1C] WAIT(30* ticks)
  5: 0x034A [0x00] END_REQSTACK()
```

### Event 65535.46

#### Metadata

| Field        | Value    |
|--------------|----------|
| Entrypoint   | 0x034B   |
| Data Size    | 14 bytes |
| Instructions | 4        |

```
      00 01 02 03 04 05 06 07  08 09 0A 0B 0C 0D 0E 0F
      -- -- -- -- -- -- -- --  -- -- -- -- -- -- -- --
0340:                                   32 04 80 1F 00             2....
0350: 7A 80 7B 80 02 80 1F 01  00                       z.{......       
```

#### Opcodes

```
  0: 0x034B [0x32] ExtData[1]->MainSpeed = 40* * 0.1
  1: 0x034E [0x1F] MOVE_ENTITY: EventEntity moves to X=23.349*, Z=22.398*, Y=0.000*
  2: 0x0356 [0x1F] MOVE_ENTITY: Update entity position (mode=1)
  3: 0x0358 [0x00] END_REQSTACK()
```

### Event 65535.47

#### Metadata

| Field        | Value    |
|--------------|----------|
| Entrypoint   | 0x0359   |
| Data Size    | 22 bytes |
| Instructions | 6        |

```
      00 01 02 03 04 05 06 07  08 09 0A 0B 0C 0D 0E 0F
      -- -- -- -- -- -- -- --  -- -- -- -- -- -- -- --
0350:                             32 04 80 1F 00 7C 80           2....|.
0360: 7D 80 02 80 1F 01 1E 31  21 03 01 1C 18 80 00     }......1!...... 
```

#### Opcodes

```
  0: 0x0359 [0x32] ExtData[1]->MainSpeed = 40* * 0.1
  1: 0x035C [0x1F] MOVE_ENTITY: EventEntity moves to X=20.963*, Z=20.604*, Y=0.000*
  2: 0x0364 [0x1F] MOVE_ENTITY: Update entity position (mode=1)
  3: 0x0366 [0x1E] EventEntity looks at Foudeel (ID: 16982321/0x01032131) and starts talking
  4: 0x036B [0x1C] WAIT(30* ticks)
  5: 0x036E [0x00] END_REQSTACK()
```

### Event 864

#### Metadata

| Field        | Value   |
|--------------|---------|
| Entrypoint   | 0x036F  |
| Data Size    | 7 bytes |
| Instructions | 2       |

```
      00 01 02 03 04 05 06 07  08 09 0A 0B 0C 0D 0E 0F
      -- -- -- -- -- -- -- --  -- -- -- -- -- -- -- --
0360:                                               92                 .
0370: 01 F8 FF FF 7F 00                                 ......          
```

#### Opcodes

```
  0: 0x036F [0x92] EventEntity->Render.Flags3 ^= 0x01
  1: 0x0375 [0x00] END_REQSTACK()
```

### Event 65535.48

#### Metadata

| Field        | Value    |
|--------------|----------|
| Entrypoint   | 0x0376   |
| Data Size    | 19 bytes |
| Instructions | 5        |

```
      00 01 02 03 04 05 06 07  08 09 0A 0B 0C 0D 0E 0F
      -- -- -- -- -- -- -- --  -- -- -- -- -- -- -- --
0370:                   32 07  80 1F 00 7E 80 7F 80 0C        2....~....
0380: 80 1F 01 1E 54 20 03 01  00                       ....T ...       
```

#### Opcodes

```
  0: 0x0376 [0x32] ExtData[1]->MainSpeed = 13* * 0.1
  1: 0x0379 [0x1F] MOVE_ENTITY: EventEntity moves to X=78.677*, Z=-134.011*, Y=-6.000*
  2: 0x0381 [0x1F] MOVE_ENTITY: Update entity position (mode=1)
  3: 0x0383 [0x1E] EventEntity looks at Yafaaf (ID: 16982100/0x01032054) and starts talking
  4: 0x0388 [0x00] END_REQSTACK()
```

### Event 65535.49

#### Metadata

| Field        | Value    |
|--------------|----------|
| Entrypoint   | 0x0389   |
| Data Size    | 19 bytes |
| Instructions | 5        |

```
      00 01 02 03 04 05 06 07  08 09 0A 0B 0C 0D 0E 0F
      -- -- -- -- -- -- -- --  -- -- -- -- -- -- -- --
0380:                             32 07 80 1F 00 80 80           2......
0390: 81 80 0C 80 1F 01 1E 54  20 03 01 00              .......T ...    
```

#### Opcodes

```
  0: 0x0389 [0x32] ExtData[1]->MainSpeed = 13* * 0.1
  1: 0x038C [0x1F] MOVE_ENTITY: EventEntity moves to X=78.268*, Z=-135.273*, Y=-6.000*
  2: 0x0394 [0x1F] MOVE_ENTITY: Update entity position (mode=1)
  3: 0x0396 [0x1E] EventEntity looks at Yafaaf (ID: 16982100/0x01032054) and starts talking
  4: 0x039B [0x00] END_REQSTACK()
```

### Event 65535.50

#### Metadata

| Field        | Value    |
|--------------|----------|
| Entrypoint   | 0x039C   |
| Data Size    | 19 bytes |
| Instructions | 5        |

```
      00 01 02 03 04 05 06 07  08 09 0A 0B 0C 0D 0E 0F
      -- -- -- -- -- -- -- --  -- -- -- -- -- -- -- --
0390:                                      32 07 80 1F              2...
03A0: 00 82 80 83 80 0C 80 1F  01 1E 54 20 03 01 00     ..........T ... 
```

#### Opcodes

```
  0: 0x039C [0x32] ExtData[1]->MainSpeed = 13* * 0.1
  1: 0x039F [0x1F] MOVE_ENTITY: EventEntity moves to X=78.167*, Z=-136.256*, Y=-6.000*
  2: 0x03A7 [0x1F] MOVE_ENTITY: Update entity position (mode=1)
  3: 0x03A9 [0x1E] EventEntity looks at Yafaaf (ID: 16982100/0x01032054) and starts talking
  4: 0x03AE [0x00] END_REQSTACK()
```

### Event 65535.51

#### Metadata

| Field        | Value    |
|--------------|----------|
| Entrypoint   | 0x03AF   |
| Data Size    | 19 bytes |
| Instructions | 5        |

```
      00 01 02 03 04 05 06 07  08 09 0A 0B 0C 0D 0E 0F
      -- -- -- -- -- -- -- --  -- -- -- -- -- -- -- --
03A0:                                               32                 2
03B0: 07 80 1F 00 84 80 85 80  0C 80 1F 01 1E 54 20 03  .............T .
03C0: 01 00                                             ..              
```

#### Opcodes

```
  0: 0x03AF [0x32] ExtData[1]->MainSpeed = 13* * 0.1
  1: 0x03B2 [0x1F] MOVE_ENTITY: EventEntity moves to X=77.377*, Z=-137.981*, Y=-6.000*
  2: 0x03BA [0x1F] MOVE_ENTITY: Update entity position (mode=1)
  3: 0x03BC [0x1E] EventEntity looks at Yafaaf (ID: 16982100/0x01032054) and starts talking
  4: 0x03C1 [0x00] END_REQSTACK()
```

### Event 65535.52

#### Metadata

| Field        | Value    |
|--------------|----------|
| Entrypoint   | 0x03C2   |
| Data Size    | 14 bytes |
| Instructions | 4        |

```
      00 01 02 03 04 05 06 07  08 09 0A 0B 0C 0D 0E 0F
      -- -- -- -- -- -- -- --  -- -- -- -- -- -- -- --
03C0:       32 07 80 1F 00 86  80 87 80 0C 80 1F 01 00    2.............
```

#### Opcodes

```
  0: 0x03C2 [0x32] ExtData[1]->MainSpeed = 13* * 0.1
  1: 0x03C5 [0x1F] MOVE_ENTITY: EventEntity moves to X=82.702*, Z=-135.689*, Y=-6.000*
  2: 0x03CD [0x1F] MOVE_ENTITY: Update entity position (mode=1)
  3: 0x03CF [0x00] END_REQSTACK()
```

### Event 872

#### Metadata

| Field        | Value   |
|--------------|---------|
| Entrypoint   | 0x03D0  |
| Data Size    | 7 bytes |
| Instructions | 2       |

```
      00 01 02 03 04 05 06 07  08 09 0A 0B 0C 0D 0E 0F
      -- -- -- -- -- -- -- --  -- -- -- -- -- -- -- --
03D0: 92 01 F8 FF FF 7F 00                              .......         
```

#### Opcodes

```
  0: 0x03D0 [0x92] EventEntity->Render.Flags3 ^= 0x01
  1: 0x03D6 [0x00] END_REQSTACK()
```
