# 16982213 - Rishfee

## Common Data

| Field            | Value                         |
|------------------|-------------------------------|
| Zone             | Aht Urhgan Whitegate (ID: 50) |
| Block Size       | 964 bytes                     |
| Total Events     | 40                            |
| References Count | 56                            |

## List of Events

| Event ID                    | Entrypoint   |   Size |   Instructions |
|-----------------------------|--------------|--------|----------------|
| [65535](#event-65535)       | 0x0000       |      1 |              1 |
| [65535.1](#event-65535-1)   | 0x0001       |      1 |              1 |
| [65535.2](#event-65535-2)   | 0x0002       |     18 |              4 |
| [65535.3](#event-65535-3)   | 0x0014       |     10 |              2 |
| [65535.4](#event-65535-4)   | 0x001E       |      9 |              3 |
| [65535.5](#event-65535-5)   | 0x0027       |      9 |              3 |
| [65535.6](#event-65535-6)   | 0x0030       |     10 |              2 |
| [65535.7](#event-65535-7)   | 0x003A       |     10 |              2 |
| [65535.8](#event-65535-8)   | 0x0044       |     10 |              2 |
| [3027](#event-3027)         | 0x004E       |      1 |              1 |
| [3034](#event-3034)         | 0x004F       |      1 |              1 |
| [3052](#event-3052)         | 0x0050       |      1 |              1 |
| [65535.9](#event-65535-9)   | 0x0051       |     10 |              2 |
| [722](#event-722)           | 0x005B       |      1 |              1 |
| [65535.10](#event-65535-10) | 0x005C       |     10 |              2 |
| [65535.11](#event-65535-11) | 0x0066       |     10 |              2 |
| [3070](#event-3070)         | 0x0070       |      1 |              1 |
| [65535.12](#event-65535-12) | 0x0071       |     10 |              2 |
| [3078](#event-3078)         | 0x007B       |      1 |              1 |
| [65535.13](#event-65535-13) | 0x007C       |     10 |              2 |
| [65535.14](#event-65535-14) | 0x0086       |     37 |              5 |
| [65535.15](#event-65535-15) | 0x00AB       |    185 |             37 |
| [65535.16](#event-65535-16) | 0x0164       |     10 |              2 |
| [65535.17](#event-65535-17) | 0x016E       |     15 |              5 |
| [65535.18](#event-65535-18) | 0x017D       |     23 |              5 |
| [65535.19](#event-65535-19) | 0x0194       |     15 |              5 |
| [3090](#event-3090)         | 0x01A3       |      1 |              1 |
| [3093](#event-3093)         | 0x01A4       |      1 |              1 |
| [824](#event-824)           | 0x01A5       |      1 |              1 |
| [65535.20](#event-65535-20) | 0x01A6       |      1 |              1 |
| [65535.21](#event-65535-21) | 0x01A7       |      1 |              1 |
| [65535.22](#event-65535-22) | 0x01A8       |     25 |              7 |
| [3112](#event-3112)         | 0x01C1       |      1 |              1 |
| [65535.23](#event-65535-23) | 0x01C2       |     14 |              4 |
| [65535.24](#event-65535-24) | 0x01D0       |     22 |              6 |
| [65535.25](#event-65535-25) | 0x01E6       |     14 |              4 |
| [65535.26](#event-65535-26) | 0x01F4       |     14 |              4 |
| [65535.27](#event-65535-27) | 0x0202       |      7 |              2 |
| [65535.28](#event-65535-28) | 0x0209       |     21 |              2 |
| [65535.29](#event-65535-29) | 0x021E       |     21 |              2 |

## DAT References (imed_data)

|   Index | Hex Value   |   Dec Value |
|---------|-------------|-------------|
|       0 | 0x0000      |           0 |
|       1 | 0x0001      |           1 |
|       2 | 0x0080      |         128 |
|       3 | 0xFFFFF1C1  |  4294963649 |
|       4 | 0xC373      |       50035 |
|       5 | 0x0ED8      |        3800 |
|       6 | 0xB442      |       46146 |
|       7 | 0x0800      |        2048 |
|       8 | 0x07B0      |        1968 |
|       9 | 0x0A77      |        2679 |
|      10 | 0x0C00      |        3072 |
|      11 | 0xFFFFF246  |  4294963782 |
|      12 | 0xFFFF8E70  |  4294938224 |
|      13 | 0x8CAC      |       36012 |
|      14 | 0xFFFF2E44  |  4294913604 |
|      15 | 0xFFFFE633  |  4294960691 |
|      16 | 0xFFFFFC04  |  4294966276 |
|      17 | 0xFFFFF2B8  |  4294963896 |
|      18 | 0x0400      |        1024 |
|      19 | 0x0005      |           5 |
|      20 | 0x0002      |           2 |
|      21 | 0x000A      |          10 |
|      22 | 0x0009      |           9 |
|      23 | 0x0046      |          70 |
|      24 | 0x008C      |         140 |
|      25 | 0x00D2      |         210 |
|      26 | 0x0271      |         625 |
|      27 | 0xB97D      |       47485 |
|      28 | 0x000B      |          11 |
|      29 | 0x8CD3      |       36051 |
|      30 | 0xFFFF44DA  |  4294919386 |
|      31 | 0xFFFFE3DD  |  4294960093 |
|      32 | 0x001A      |          26 |
|      33 | 0x87D4      |       34772 |
|      34 | 0xFFFF35D7  |  4294915543 |
|      35 | 0xFFFFE637  |  4294960695 |
|      36 | 0x0028      |          40 |
|      37 | 0xFFFF07CB  |  4294903755 |
|      38 | 0x64E7      |       25831 |
|      39 | 0xFFFFE890  |  4294961296 |
|      40 | 0x000D      |          13 |
|      41 | 0x134ED     |       79085 |
|      42 | 0x8555      |       34133 |
|      43 | 0x01E0      |         480 |
|      44 | 0x13214     |       78356 |
|      45 | 0xC5DD      |       50653 |
|      46 | 0x001E      |          30 |
|      47 | 0x116DF     |       71391 |
|      48 | 0xA892      |       43154 |
|      49 | 0x135B2     |       79282 |
|      50 | 0x5995      |       22933 |
|      51 | 0xFFFFFEC4  |  4294966980 |
|      52 | 0x0006      |           6 |
|      53 | 0x00A5      |         165 |
|      54 | 0x00AB      |         171 |
|      55 | 0x0177      |         375 |

## Events

### Event 65535

#### Metadata

| Field        | Value   |
|--------------|---------|
| Entrypoint   | 0x0000  |
| Data Size    | 1 bytes |
| Instructions | 1       |

```
      00 01 02 03 04 05 06 07  08 09 0A 0B 0C 0D 0E 0F
      -- -- -- -- -- -- -- --  -- -- -- -- -- -- -- --
0000: 00                                                .               
```

#### Opcodes

```
  0: 0x0000 [0x00] END_REQSTACK()
```

### Event 65535.1

#### Metadata

| Field        | Value   |
|--------------|---------|
| Entrypoint   | 0x0001  |
| Data Size    | 1 bytes |
| Instructions | 1       |

```
      00 01 02 03 04 05 06 07  08 09 0A 0B 0C 0D 0E 0F
      -- -- -- -- -- -- -- --  -- -- -- -- -- -- -- --
0000:    00                                              .              
```

#### Opcodes

```
  0: 0x0001 [0x00] END_REQSTACK()
```

### Event 65535.2

#### Metadata

| Field        | Value    |
|--------------|----------|
| Entrypoint   | 0x0002   |
| Data Size    | 18 bytes |
| Instructions | 4        |

```
      00 01 02 03 04 05 06 07  08 09 0A 0B 0C 0D 0E 0F
      -- -- -- -- -- -- -- --  -- -- -- -- -- -- -- --
0000:       22 00 2F 00 F8 FF  FF 7F 6C F8 FF FF 7F 00    "./.....l.....
0010: 80 01 80 00                                       ....            
```

#### Opcodes

```
  0: 0x0002 [0x22] ENTITY_HIDE_FLAG(enabled=0x00)
  1: 0x0004 [0x2F] EventEntity->Render.Flags0 &= ~0x80000 // Bit 19
  2: 0x000A [0x6C] FADE_ENTITY_COLOR(entity_id=EventEntity, end_alpha=0*, fade_time=1*)
  3: 0x0013 [0x00] END_REQSTACK()
```

### Event 65535.3

#### Metadata

| Field        | Value    |
|--------------|----------|
| Entrypoint   | 0x0014   |
| Data Size    | 10 bytes |
| Instructions | 2        |

```
      00 01 02 03 04 05 06 07  08 09 0A 0B 0C 0D 0E 0F
      -- -- -- -- -- -- -- --  -- -- -- -- -- -- -- --
0010:             6C F8 FF FF  7F 02 80 01 80 00            l.........  
```

#### Opcodes

```
  0: 0x0014 [0x6C] FADE_ENTITY_COLOR(entity_id=EventEntity, end_alpha=128*, fade_time=1*)
  1: 0x001D [0x00] END_REQSTACK()
```

### Event 65535.4

#### Metadata

| Field        | Value   |
|--------------|---------|
| Entrypoint   | 0x001E  |
| Data Size    | 9 bytes |
| Instructions | 3       |

```
      00 01 02 03 04 05 06 07  08 09 0A 0B 0C 0D 0E 0F
      -- -- -- -- -- -- -- --  -- -- -- -- -- -- -- --
0010:                                            22 00                ".
0020: 2F 00 F8 FF FF 7F 00                              /......         
```

#### Opcodes

```
  0: 0x001E [0x22] ENTITY_HIDE_FLAG(enabled=0x00)
  1: 0x0020 [0x2F] EventEntity->Render.Flags0 &= ~0x80000 // Bit 19
  2: 0x0026 [0x00] END_REQSTACK()
```

### Event 65535.5

#### Metadata

| Field        | Value   |
|--------------|---------|
| Entrypoint   | 0x0027  |
| Data Size    | 9 bytes |
| Instructions | 3       |

```
      00 01 02 03 04 05 06 07  08 09 0A 0B 0C 0D 0E 0F
      -- -- -- -- -- -- -- --  -- -- -- -- -- -- -- --
0020:                      22  01 2F 01 F8 FF FF 7F 00         "./......
```

#### Opcodes

```
  0: 0x0027 [0x22] ENTITY_HIDE_FLAG(enabled=0x01)
  1: 0x0029 [0x2F] EventEntity->Render.Flags0 |= 0x80000 // Bit 19
  2: 0x002F [0x00] END_REQSTACK()
```

### Event 65535.6

#### Metadata

| Field        | Value    |
|--------------|----------|
| Entrypoint   | 0x0030   |
| Data Size    | 10 bytes |
| Instructions | 2        |

```
      00 01 02 03 04 05 06 07  08 09 0A 0B 0C 0D 0E 0F
      -- -- -- -- -- -- -- --  -- -- -- -- -- -- -- --
0030: 6C F8 FF FF 7F 00 80 01  80 00                    l.........      
```

#### Opcodes

```
  0: 0x0030 [0x6C] FADE_ENTITY_COLOR(entity_id=EventEntity, end_alpha=0*, fade_time=1*)
  1: 0x0039 [0x00] END_REQSTACK()
```

### Event 65535.7

#### Metadata

| Field        | Value    |
|--------------|----------|
| Entrypoint   | 0x003A   |
| Data Size    | 10 bytes |
| Instructions | 2        |

```
      00 01 02 03 04 05 06 07  08 09 0A 0B 0C 0D 0E 0F
      -- -- -- -- -- -- -- --  -- -- -- -- -- -- -- --
0030:                                6C F8 FF FF 7F 02            l.....
0040: 80 01 80 00                                       ....            
```

#### Opcodes

```
  0: 0x003A [0x6C] FADE_ENTITY_COLOR(entity_id=EventEntity, end_alpha=128*, fade_time=1*)
  1: 0x0043 [0x00] END_REQSTACK()
```

### Event 65535.8

#### Metadata

| Field        | Value    |
|--------------|----------|
| Entrypoint   | 0x0044   |
| Data Size    | 10 bytes |
| Instructions | 2        |

```
      00 01 02 03 04 05 06 07  08 09 0A 0B 0C 0D 0E 0F
      -- -- -- -- -- -- -- --  -- -- -- -- -- -- -- --
0040:             37 03 80 04  80 00 80 00 80 00            7.........  
```

#### Opcodes

```
  0: 0x0044 [0x37] UPDATE_EVENT_POSITION_AND_DIR: x=-3.647*, z=50.035*, y=0.000*, direction=0.0°*
  1: 0x004D [0x00] END_REQSTACK()
```

### Event 3027

#### Metadata

| Field        | Value   |
|--------------|---------|
| Entrypoint   | 0x004E  |
| Data Size    | 1 bytes |
| Instructions | 1       |

```
      00 01 02 03 04 05 06 07  08 09 0A 0B 0C 0D 0E 0F
      -- -- -- -- -- -- -- --  -- -- -- -- -- -- -- --
0040:                                            00                   . 
```

#### Opcodes

```
  0: 0x004E [0x00] END_REQSTACK()
```

### Event 3034

#### Metadata

| Field        | Value   |
|--------------|---------|
| Entrypoint   | 0x004F  |
| Data Size    | 1 bytes |
| Instructions | 1       |

```
      00 01 02 03 04 05 06 07  08 09 0A 0B 0C 0D 0E 0F
      -- -- -- -- -- -- -- --  -- -- -- -- -- -- -- --
0040:                                               00                 .
```

#### Opcodes

```
  0: 0x004F [0x00] END_REQSTACK()
```

### Event 3052

#### Metadata

| Field        | Value   |
|--------------|---------|
| Entrypoint   | 0x0050  |
| Data Size    | 1 bytes |
| Instructions | 1       |

```
      00 01 02 03 04 05 06 07  08 09 0A 0B 0C 0D 0E 0F
      -- -- -- -- -- -- -- --  -- -- -- -- -- -- -- --
0050: 00                                                .               
```

#### Opcodes

```
  0: 0x0050 [0x00] END_REQSTACK()
```

### Event 65535.9

#### Metadata

| Field        | Value    |
|--------------|----------|
| Entrypoint   | 0x0051   |
| Data Size    | 10 bytes |
| Instructions | 2        |

```
      00 01 02 03 04 05 06 07  08 09 0A 0B 0C 0D 0E 0F
      -- -- -- -- -- -- -- --  -- -- -- -- -- -- -- --
0050:    37 05 80 06 80 00 80  07 80 00                  7.........     
```

#### Opcodes

```
  0: 0x0051 [0x37] UPDATE_EVENT_POSITION_AND_DIR: x=3.800*, z=46.146*, y=0.000*, direction=180.0°*
  1: 0x005A [0x00] END_REQSTACK()
```

### Event 722

#### Metadata

| Field        | Value   |
|--------------|---------|
| Entrypoint   | 0x005B  |
| Data Size    | 1 bytes |
| Instructions | 1       |

```
      00 01 02 03 04 05 06 07  08 09 0A 0B 0C 0D 0E 0F
      -- -- -- -- -- -- -- --  -- -- -- -- -- -- -- --
0050:                                   00                         .    
```

#### Opcodes

```
  0: 0x005B [0x00] END_REQSTACK()
```

### Event 65535.10

#### Metadata

| Field        | Value    |
|--------------|----------|
| Entrypoint   | 0x005C   |
| Data Size    | 10 bytes |
| Instructions | 2        |

```
      00 01 02 03 04 05 06 07  08 09 0A 0B 0C 0D 0E 0F
      -- -- -- -- -- -- -- --  -- -- -- -- -- -- -- --
0050:                                      37 08 80 09              7...
0060: 80 00 80 0A 80 00                                 ......          
```

#### Opcodes

```
  0: 0x005C [0x37] UPDATE_EVENT_POSITION_AND_DIR: x=1.968*, z=2.679*, y=0.000*, direction=270.0°*
  1: 0x0065 [0x00] END_REQSTACK()
```

### Event 65535.11

#### Metadata

| Field        | Value    |
|--------------|----------|
| Entrypoint   | 0x0066   |
| Data Size    | 10 bytes |
| Instructions | 2        |

```
      00 01 02 03 04 05 06 07  08 09 0A 0B 0C 0D 0E 0F
      -- -- -- -- -- -- -- --  -- -- -- -- -- -- -- --
0060:                   37 0B  80 0C 80 00 80 00 80 00        7.........
```

#### Opcodes

```
  0: 0x0066 [0x37] UPDATE_EVENT_POSITION_AND_DIR: x=-3.514*, z=-29.072*, y=0.000*, direction=0.0°*
  1: 0x006F [0x00] END_REQSTACK()
```

### Event 3070

#### Metadata

| Field        | Value   |
|--------------|---------|
| Entrypoint   | 0x0070  |
| Data Size    | 1 bytes |
| Instructions | 1       |

```
      00 01 02 03 04 05 06 07  08 09 0A 0B 0C 0D 0E 0F
      -- -- -- -- -- -- -- --  -- -- -- -- -- -- -- --
0070: 00                                                .               
```

#### Opcodes

```
  0: 0x0070 [0x00] END_REQSTACK()
```

### Event 65535.12

#### Metadata

| Field        | Value    |
|--------------|----------|
| Entrypoint   | 0x0071   |
| Data Size    | 10 bytes |
| Instructions | 2        |

```
      00 01 02 03 04 05 06 07  08 09 0A 0B 0C 0D 0E 0F
      -- -- -- -- -- -- -- --  -- -- -- -- -- -- -- --
0070:    37 0D 80 0E 80 0F 80  0A 80 00                  7.........     
```

#### Opcodes

```
  0: 0x0071 [0x37] UPDATE_EVENT_POSITION_AND_DIR: x=36.012*, z=-53.692*, y=-6.605*, direction=270.0°*
  1: 0x007A [0x00] END_REQSTACK()
```

### Event 3078

#### Metadata

| Field        | Value   |
|--------------|---------|
| Entrypoint   | 0x007B  |
| Data Size    | 1 bytes |
| Instructions | 1       |

```
      00 01 02 03 04 05 06 07  08 09 0A 0B 0C 0D 0E 0F
      -- -- -- -- -- -- -- --  -- -- -- -- -- -- -- --
0070:                                   00                         .    
```

#### Opcodes

```
  0: 0x007B [0x00] END_REQSTACK()
```

### Event 65535.13

#### Metadata

| Field        | Value    |
|--------------|----------|
| Entrypoint   | 0x007C   |
| Data Size    | 10 bytes |
| Instructions | 2        |

```
      00 01 02 03 04 05 06 07  08 09 0A 0B 0C 0D 0E 0F
      -- -- -- -- -- -- -- --  -- -- -- -- -- -- -- --
0070:                                      37 10 80 11              7...
0080: 80 00 80 12 80 00                                 ......          
```

#### Opcodes

```
  0: 0x007C [0x37] UPDATE_EVENT_POSITION_AND_DIR: x=-1.020*, z=-3.400*, y=0.000*, direction=90.0°*
  1: 0x0085 [0x00] END_REQSTACK()
```

### Event 65535.14

#### Metadata

| Field        | Value    |
|--------------|----------|
| Entrypoint   | 0x0086   |
| Data Size    | 37 bytes |
| Instructions | 5        |

```
      00 01 02 03 04 05 06 07  08 09 0A 0B 0C 0D 0E 0F
      -- -- -- -- -- -- -- --  -- -- -- -- -- -- -- --
0080:                   03 00  00 07 7F 1A D0 00 66 01        ........f.
0090: 00 F8 FF FF 7F F8 FF FF  7F 73 68 61 30 53 F8 FF  .........sha0S..
00A0: FF 7F F8 FF FF 7F 73 68  61 30 00                 ......sha0.     
```

#### Opcodes

```
  0: 0x0086 [0x03] ExtData[1]->WorkLocal[0] = Entity->Race
  1: 0x008B [0x1A] CALL_SUBROUTINE(address=0x00D0)
  2: 0x008E [0x66] LOAD_EXT_SCHEDULER_MAIN: Load scheduler "sha0" with entities [EventEntity, EventEntity], work=ExtData[1]->WorkLocal[1]
  3: 0x009D [0x53] WAIT_SCHEDULER_TASK: Wait for scheduler "sha0" with entities [EventEntity, EventEntity]
  4: 0x00AA [0x00] END_REQSTACK()
```

### Event 65535.15

#### Metadata

| Field        | Value     |
|--------------|-----------|
| Entrypoint   | 0x00AB    |
| Data Size    | 185 bytes |
| Instructions | 13        |

```
      00 01 02 03 04 05 06 07  08 09 0A 0B 0C 0D 0E 0F
      -- -- -- -- -- -- -- --  -- -- -- -- -- -- -- --
00A0:                                   03 00 00 07 7F             .....
00B0: 1A D0 00 66 01 00 F8 FF  FF 7F F8 FF FF 7F 73 68  ...f..........sh
00C0: 61 31 53 F8 FF FF 7F F8  FF FF 7F 73 68 61 31 00  a1S........sha1.
00D0: 03 01 00 00 00 02 01 00  13 80 05 E5 00 08 01 00  ................
00E0: 01 80 01 EA 00 08 01 00  14 80 14 01 00 15 80 07  ................
00F0: 01 00 16 80 1B 03 01 00  00 00 02 01 00 13 80 05  ................
0100: 0A 01 08 01 00 01 80 01  0F 01 08 01 00 14 80 14  ................
0110: 01 00 15 80 07 01 00 17  80 1B 03 01 00 00 00 02  ................
0120: 01 00 13 80 05 2F 01 08  01 00 01 80 01 34 01 08  ...../.......4..
0130: 01 00 14 80 14 01 00 15  80 07 01 00 18 80 1B 03  ................
0140: 01 00 00 00 02 01 00 13  80 05 54 01 08 01 00 01  ..........T.....
0150: 80 01 59 01 08 01 00 14  80 14 01 00 15 80 07 01  ..Y.............
0160: 00 19 80 1B                                       ....            
```

#### Opcodes

```
  0: 0x00AB [0x03] ExtData[1]->WorkLocal[0] = Entity->Race
  1: 0x00B0 [0x1A] CALL_SUBROUTINE(address=0x00D0)
  2: 0x00B3 [0x66] LOAD_EXT_SCHEDULER_MAIN: Load scheduler "sha1" with entities [EventEntity, EventEntity], work=ExtData[1]->WorkLocal[1]
  3: 0x00C2 [0x53] WAIT_SCHEDULER_TASK: Wait for scheduler "sha1" with entities [EventEntity, EventEntity]
  4: 0x00CF [0x00] END_REQSTACK()

SUBROUTINE_00D0:
  5: 0x00D0 [0x03] ExtData[1]->WorkLocal[1] = ExtData[1]->WorkLocal[0]
  6: 0x00D5 [0x02] IF !(ExtData[1]->WorkLocal[1] > 5*) GOTO 0x00E5
  7: 0x00DD [0x08] ExtData[1]->WorkLocal[1] -= 1*
  8: 0x00E2 [0x01] GOTO 0x00EA
  9: 0x00E5 [0x08] ExtData[1]->WorkLocal[1] -= 2*

SUBROUTINE_00EA:
 10: 0x00EA [0x14] ExtData[1]->WorkLocal[1] *= 10*
 11: 0x00EF [0x07] ExtData[1]->WorkLocal[1] += 9*
 12: 0x00F4 [0x1B] RETURN
```

#### Data or dead code:

```
# Dead code (unreachable instructions):
     0x00F5 [0x03] ExtData[1]->WorkLocal[1] = ExtData[1]->WorkLocal[0]
     0x00FA [0x02] IF !(ExtData[1]->WorkLocal[1] > 5*) GOTO 0x010A
     0x0102 [0x08] ExtData[1]->WorkLocal[1] -= 1*
     0x0107 [0x01] GOTO 0x010F
     0x010A [0x08] ExtData[1]->WorkLocal[1] -= 2*
     0x010F [0x14] ExtData[1]->WorkLocal[1] *= 10*
     0x0114 [0x07] ExtData[1]->WorkLocal[1] += 70*
     0x0119 [0x1B] RETURN
     0x011A [0x03] ExtData[1]->WorkLocal[1] = ExtData[1]->WorkLocal[0]
     0x011F [0x02] IF !(ExtData[1]->WorkLocal[1] > 5*) GOTO 0x012F
     0x0127 [0x08] ExtData[1]->WorkLocal[1] -= 1*
     0x012C [0x01] GOTO 0x0134
     0x012F [0x08] ExtData[1]->WorkLocal[1] -= 2*
     0x0134 [0x14] ExtData[1]->WorkLocal[1] *= 10*
     0x0139 [0x07] ExtData[1]->WorkLocal[1] += 140*
     0x013E [0x1B] RETURN
     0x013F [0x03] ExtData[1]->WorkLocal[1] = ExtData[1]->WorkLocal[0]
     0x0144 [0x02] IF !(ExtData[1]->WorkLocal[1] > 5*) GOTO 0x0154
     0x014C [0x08] ExtData[1]->WorkLocal[1] -= 1*
     0x0151 [0x01] GOTO 0x0159
     0x0154 [0x08] ExtData[1]->WorkLocal[1] -= 2*
     0x0159 [0x14] ExtData[1]->WorkLocal[1] *= 10*
     0x015E [0x07] ExtData[1]->WorkLocal[1] += 210*
     0x0163 [0x1B] RETURN
```

### Event 65535.16

#### Metadata

| Field        | Value    |
|--------------|----------|
| Entrypoint   | 0x0164   |
| Data Size    | 10 bytes |
| Instructions | 2        |

```
      00 01 02 03 04 05 06 07  08 09 0A 0B 0C 0D 0E 0F
      -- -- -- -- -- -- -- --  -- -- -- -- -- -- -- --
0160:             37 1A 80 1B  80 00 80 0A 80 00            7.........  
```

#### Opcodes

```
  0: 0x0164 [0x37] UPDATE_EVENT_POSITION_AND_DIR: x=0.625*, z=47.485*, y=0.000*, direction=270.0°*
  1: 0x016D [0x00] END_REQSTACK()
```

### Event 65535.17

#### Metadata

| Field        | Value    |
|--------------|----------|
| Entrypoint   | 0x016E   |
| Data Size    | 15 bytes |
| Instructions | 5        |

```
      00 01 02 03 04 05 06 07  08 09 0A 0B 0C 0D 0E 0F
      -- -- -- -- -- -- -- --  -- -- -- -- -- -- -- --
0160:                                            32 1C                2.
0170: 80 1F 00 1D 80 1E 80 1F  80 1F 01 6F 00           ...........o.   
```

#### Opcodes

```
  0: 0x016E [0x32] ExtData[1]->MainSpeed = 11* * 0.1
  1: 0x0171 [0x1F] MOVE_ENTITY: EventEntity moves to X=36.051*, Z=-47.910*, Y=-7.203*
  2: 0x0179 [0x1F] MOVE_ENTITY: Update entity position (mode=1)
  3: 0x017B [0x6F] WAIT_FRAME_DELAY: Yield until WaitTime reaches zero
  4: 0x017C [0x00] END_REQSTACK()
```

### Event 65535.18

#### Metadata

| Field        | Value    |
|--------------|----------|
| Entrypoint   | 0x017D   |
| Data Size    | 23 bytes |
| Instructions | 5        |

```
      00 01 02 03 04 05 06 07  08 09 0A 0B 0C 0D 0E 0F
      -- -- -- -- -- -- -- --  -- -- -- -- -- -- -- --
0170:                                         7B F8 FF               {..
0180: FF 7F 6E F8 FF FF 7F 20  80 99 F8 FF FF 7F 99 F8  ..n.... ........
0190: FF FF 7F 00                                       ....            
```

#### Opcodes

```
  0: 0x017D [0x7B] EventEntity stops talking
  1: 0x0182 [0x6E] EventEntity uses emote 26*
  2: 0x0189 [0x99] Wait for EventEntity animation to complete
  3: 0x018E [0x99] Wait for EventEntity animation to complete
  4: 0x0193 [0x00] END_REQSTACK()
```

### Event 65535.19

#### Metadata

| Field        | Value    |
|--------------|----------|
| Entrypoint   | 0x0194   |
| Data Size    | 15 bytes |
| Instructions | 5        |

```
      00 01 02 03 04 05 06 07  08 09 0A 0B 0C 0D 0E 0F
      -- -- -- -- -- -- -- --  -- -- -- -- -- -- -- --
0190:             32 1C 80 1F  00 21 80 22 80 23 80 1F      2....!.".#..
01A0: 01 6F 00                                          .o.             
```

#### Opcodes

```
  0: 0x0194 [0x32] ExtData[1]->MainSpeed = 11* * 0.1
  1: 0x0197 [0x1F] MOVE_ENTITY: EventEntity moves to X=34.772*, Z=-51.753*, Y=-6.601*
  2: 0x019F [0x1F] MOVE_ENTITY: Update entity position (mode=1)
  3: 0x01A1 [0x6F] WAIT_FRAME_DELAY: Yield until WaitTime reaches zero
  4: 0x01A2 [0x00] END_REQSTACK()
```

### Event 3090

#### Metadata

| Field        | Value   |
|--------------|---------|
| Entrypoint   | 0x01A3  |
| Data Size    | 1 bytes |
| Instructions | 1       |

```
      00 01 02 03 04 05 06 07  08 09 0A 0B 0C 0D 0E 0F
      -- -- -- -- -- -- -- --  -- -- -- -- -- -- -- --
01A0:          00                                          .            
```

#### Opcodes

```
  0: 0x01A3 [0x00] END_REQSTACK()
```

### Event 3093

#### Metadata

| Field        | Value   |
|--------------|---------|
| Entrypoint   | 0x01A4  |
| Data Size    | 1 bytes |
| Instructions | 1       |

```
      00 01 02 03 04 05 06 07  08 09 0A 0B 0C 0D 0E 0F
      -- -- -- -- -- -- -- --  -- -- -- -- -- -- -- --
01A0:             00                                        .           
```

#### Opcodes

```
  0: 0x01A4 [0x00] END_REQSTACK()
```

### Event 824

#### Metadata

| Field        | Value   |
|--------------|---------|
| Entrypoint   | 0x01A5  |
| Data Size    | 1 bytes |
| Instructions | 1       |

```
      00 01 02 03 04 05 06 07  08 09 0A 0B 0C 0D 0E 0F
      -- -- -- -- -- -- -- --  -- -- -- -- -- -- -- --
01A0:                00                                      .          
```

#### Opcodes

```
  0: 0x01A5 [0x00] END_REQSTACK()
```

### Event 65535.20

#### Metadata

| Field        | Value   |
|--------------|---------|
| Entrypoint   | 0x01A6  |
| Data Size    | 1 bytes |
| Instructions | 1       |

```
      00 01 02 03 04 05 06 07  08 09 0A 0B 0C 0D 0E 0F
      -- -- -- -- -- -- -- --  -- -- -- -- -- -- -- --
01A0:                   00                                    .         
```

#### Opcodes

```
  0: 0x01A6 [0x00] END_REQSTACK()
```

### Event 65535.21

#### Metadata

| Field        | Value   |
|--------------|---------|
| Entrypoint   | 0x01A7  |
| Data Size    | 1 bytes |
| Instructions | 1       |

```
      00 01 02 03 04 05 06 07  08 09 0A 0B 0C 0D 0E 0F
      -- -- -- -- -- -- -- --  -- -- -- -- -- -- -- --
01A0:                      00                                  .        
```

#### Opcodes

```
  0: 0x01A7 [0x00] END_REQSTACK()
```

### Event 65535.22

#### Metadata

| Field        | Value    |
|--------------|----------|
| Entrypoint   | 0x01A8   |
| Data Size    | 25 bytes |
| Instructions | 7        |

```
      00 01 02 03 04 05 06 07  08 09 0A 0B 0C 0D 0E 0F
      -- -- -- -- -- -- -- --  -- -- -- -- -- -- -- --
01A0:                          1E C8 20 03 01 32 24 80          .. ..2$.
01B0: 1F 00 25 80 26 80 27 80  1F 01 6F 1E C8 20 03 01  ..%.&.'...o.. ..
01C0: 00                                                .               
```

#### Opcodes

```
  0: 0x01A8 [0x1E] EventEntity looks at Aphmau (ID: 16982216/0x010320C8) and starts talking
  1: 0x01AD [0x32] ExtData[1]->MainSpeed = 40* * 0.1
  2: 0x01B0 [0x1F] MOVE_ENTITY: EventEntity moves to X=-63.541*, Z=25.831*, Y=-6.000*
  3: 0x01B8 [0x1F] MOVE_ENTITY: Update entity position (mode=1)
  4: 0x01BA [0x6F] WAIT_FRAME_DELAY: Yield until WaitTime reaches zero
  5: 0x01BB [0x1E] EventEntity looks at Aphmau (ID: 16982216/0x010320C8) and starts talking
  6: 0x01C0 [0x00] END_REQSTACK()
```

### Event 3112

#### Metadata

| Field        | Value   |
|--------------|---------|
| Entrypoint   | 0x01C1  |
| Data Size    | 1 bytes |
| Instructions | 1       |

```
      00 01 02 03 04 05 06 07  08 09 0A 0B 0C 0D 0E 0F
      -- -- -- -- -- -- -- --  -- -- -- -- -- -- -- --
01C0:    00                                              .              
```

#### Opcodes

```
  0: 0x01C1 [0x00] END_REQSTACK()
```

### Event 65535.23

#### Metadata

| Field        | Value    |
|--------------|----------|
| Entrypoint   | 0x01C2   |
| Data Size    | 14 bytes |
| Instructions | 4        |

```
      00 01 02 03 04 05 06 07  08 09 0A 0B 0C 0D 0E 0F
      -- -- -- -- -- -- -- --  -- -- -- -- -- -- -- --
01C0:       32 28 80 5A 00 29  80 2A 80 2B 80 5A 01 00    2(.Z.).*.+.Z..
```

#### Opcodes

```
  0: 0x01C2 [0x32] ExtData[1]->MainSpeed = 13* * 0.1
  1: 0x01C5 [0x5A] UPDATE_EVENT_POSITION: Set EventEntity MovePosition to X=79.085*, Z=34.133*, Y=0.480*
  2: 0x01CD [0x5A] UPDATE_EVENT_POSITION: Move EventEntity incrementally towards MovePosition
  3: 0x01CF [0x00] END_REQSTACK()
```

### Event 65535.24

#### Metadata

| Field        | Value    |
|--------------|----------|
| Entrypoint   | 0x01D0   |
| Data Size    | 22 bytes |
| Instructions | 6        |

```
      00 01 02 03 04 05 06 07  08 09 0A 0B 0C 0D 0E 0F
      -- -- -- -- -- -- -- --  -- -- -- -- -- -- -- --
01D0: 32 28 80 1F 00 2C 80 2D  80 2B 80 1F 01 1E CA 20  2(...,.-.+..... 
01E0: 03 01 1C 2E 80 00                                 ......          
```

#### Opcodes

```
  0: 0x01D0 [0x32] ExtData[1]->MainSpeed = 13* * 0.1
  1: 0x01D3 [0x1F] MOVE_ENTITY: EventEntity moves to X=78.356*, Z=50.653*, Y=0.480*
  2: 0x01DB [0x1F] MOVE_ENTITY: Update entity position (mode=1)
  3: 0x01DD [0x1E] EventEntity looks at Aphmau (ID: 16982218/0x010320CA) and starts talking
  4: 0x01E2 [0x1C] WAIT(30* ticks)
  5: 0x01E5 [0x00] END_REQSTACK()
```

### Event 65535.25

#### Metadata

| Field        | Value    |
|--------------|----------|
| Entrypoint   | 0x01E6   |
| Data Size    | 14 bytes |
| Instructions | 4        |

```
      00 01 02 03 04 05 06 07  08 09 0A 0B 0C 0D 0E 0F
      -- -- -- -- -- -- -- --  -- -- -- -- -- -- -- --
01E0:                   32 28  80 1F 00 2F 80 30 80 2B        2(.../.0.+
01F0: 80 1F 01 00                                       ....            
```

#### Opcodes

```
  0: 0x01E6 [0x32] ExtData[1]->MainSpeed = 13* * 0.1
  1: 0x01E9 [0x1F] MOVE_ENTITY: EventEntity moves to X=71.391*, Z=43.154*, Y=0.480*
  2: 0x01F1 [0x1F] MOVE_ENTITY: Update entity position (mode=1)
  3: 0x01F3 [0x00] END_REQSTACK()
```

### Event 65535.26

#### Metadata

| Field        | Value    |
|--------------|----------|
| Entrypoint   | 0x01F4   |
| Data Size    | 14 bytes |
| Instructions | 4        |

```
      00 01 02 03 04 05 06 07  08 09 0A 0B 0C 0D 0E 0F
      -- -- -- -- -- -- -- --  -- -- -- -- -- -- -- --
01F0:             32 28 80 1F  00 31 80 32 80 33 80 1F      2(...1.2.3..
0200: 01 00                                             ..              
```

#### Opcodes

```
  0: 0x01F4 [0x32] ExtData[1]->MainSpeed = 13* * 0.1
  1: 0x01F7 [0x1F] MOVE_ENTITY: EventEntity moves to X=79.282*, Z=22.933*, Y=-0.316*
  2: 0x01FF [0x1F] MOVE_ENTITY: Update entity position (mode=1)
  3: 0x0201 [0x00] END_REQSTACK()
```

### Event 65535.27

#### Metadata

| Field        | Value   |
|--------------|---------|
| Entrypoint   | 0x0202  |
| Data Size    | 7 bytes |
| Instructions | 2       |

```
      00 01 02 03 04 05 06 07  08 09 0A 0B 0C 0D 0E 0F
      -- -- -- -- -- -- -- --  -- -- -- -- -- -- -- --
0200:       92 01 F8 FF FF 7F  00                         .......       
```

#### Opcodes

```
  0: 0x0202 [0x92] EventEntity->Render.Flags3 ^= 0x01
  1: 0x0208 [0x00] END_REQSTACK()
```

### Event 65535.28

#### Metadata

| Field        | Value    |
|--------------|----------|
| Entrypoint   | 0x0209   |
| Data Size    | 21 bytes |
| Instructions | 2        |

```
      00 01 02 03 04 05 06 07  08 09 0A 0B 0C 0D 0E 0F
      -- -- -- -- -- -- -- --  -- -- -- -- -- -- -- --
0200:                             B6 0B 01 80 34 80 00           ....4..
0210: 80 35 80 36 80 35 80 36  80 00 80 00 80 00        .5.6.5.6......  
```

#### Opcodes

```
  0: 0x0209 [0xB6] ENTITY_APPEARANCE_HANDLER(case=Full entity look, race=1*, hair=6*, head=0*, body=165*, hands=171*, legs=165*, feet=171*, main=0*, sub=0*)
  1: 0x021D [0x00] END_REQSTACK()
```

### Event 65535.29

#### Metadata

| Field        | Value    |
|--------------|----------|
| Entrypoint   | 0x021E   |
| Data Size    | 21 bytes |
| Instructions | 2        |

```
      00 01 02 03 04 05 06 07  08 09 0A 0B 0C 0D 0E 0F
      -- -- -- -- -- -- -- --  -- -- -- -- -- -- -- --
0210:                                            B6 0B                ..
0220: 01 80 34 80 35 80 35 80  36 80 35 80 36 80 37 80  ..4.5.5.6.5.6.7.
0230: 00 80 00                                          ...             
```

#### Opcodes

```
  0: 0x021E [0xB6] ENTITY_APPEARANCE_HANDLER(case=Full entity look, race=1*, hair=6*, head=165*, body=165*, hands=171*, legs=165*, feet=171*, main=375*, sub=0*)
  1: 0x0232 [0x00] END_REQSTACK()
```
