# 16982312 - Hadahda

## Common Data

| Field            | Value                         |
|------------------|-------------------------------|
| Zone             | Aht Urhgan Whitegate (ID: 50) |
| Block Size       | 548 bytes                     |
| Total Events     | 14                            |
| References Count | 36                            |

## List of Events

| Event ID                 | Entrypoint   |   Size |   Instructions |
|--------------------------|--------------|--------|----------------|
| [65535](#event-65535)    | 0x0000       |      1 |              1 |
| [508](#event-508)        | 0x0001       |      1 |              1 |
| [509](#event-509)        | 0x0002       |     11 |              5 |
| [517](#event-517)        | 0x000D       |      1 |              1 |
| [65535.1](#event-655351) | 0x000E       |     14 |              4 |
| [65535.2](#event-655352) | 0x001C       |    102 |             20 |
| [65535.3](#event-655353) | 0x0082       |     34 |              4 |
| [65535.4](#event-655354) | 0x00A4       |     14 |              4 |
| [65535.5](#event-655355) | 0x00B2       |     14 |              4 |
| [518](#event-518)        | 0x00C0       |      9 |              5 |
| [573](#event-573)        | 0x00C9       |     30 |              8 |
| [574](#event-574)        | 0x00E7       |     34 |              8 |
| [866](#event-866)        | 0x0109       |     29 |              7 |
| [877](#event-877)        | 0x0126       |     37 |             11 |

## DAT References (imed_data)

|   Index | Hex Value   |   Dec Value |
|---------|-------------|-------------|
|       0 | 0x1352      |        4946 |
|       1 | 0x0028      |          40 |
|       2 | 0xFFFE5C88  |  4294859912 |
|       3 | 0xFFFF00C0  |  4294901952 |
|       4 | 0xFFFFE891  |  4294961297 |
|       5 | 0xFFFE55D7  |  4294858199 |
|       6 | 0xFFFEFEA4  |  4294901412 |
|       7 | 0xFFFE4A60  |  4294855264 |
|       8 | 0xFFFEFF34  |  4294901556 |
|       9 | 0xFFFE48BB  |  4294854843 |
|      10 | 0xFFFF0D59  |  4294905177 |
|      11 | 0x080E      |        2062 |
|      12 | 0x0078      |         120 |
|      13 | 0xFFFE5FED  |  4294860781 |
|      14 | 0xFFFEFE04  |  4294901252 |
|      15 | 0xFFFE63A6  |  4294861734 |
|      16 | 0xFFFF1405  |  4294906885 |
|      17 | 0xFFFE6C33  |  4294863923 |
|      18 | 0xFFFF1277  |  4294906487 |
|      19 | 0x004B      |          75 |
|      20 | 0x000F      |          15 |
|      21 | 0x000D      |          13 |
|      22 | 0xFFFE63BD  |  4294861757 |
|      23 | 0xFFFF133F  |  4294906687 |
|      24 | 0xFFFE630D  |  4294861581 |
|      25 | 0xFFFF07A3  |  4294903715 |
|      26 | 0x003C      |          60 |
|      27 | 0x1379      |        4985 |
|      28 | 0x001E      |          30 |
|      29 | 0x137A      |        4986 |
|      30 | 0x15C9      |        5577 |
|      31 | 0x137B      |        4987 |
|      32 | 0x1C89      |        7305 |
|      33 | 0x1CB7      |        7351 |
|      34 | 0x1CB8      |        7352 |
|      35 | 0x1CB9      |        7353 |

## String References

- **4946**: I need 7 letters in all--one each of M, U, and T, and two each of A and D.
- **4985**: I wanted a snack...
- **4986**: You're giving it back to me? Yay! Thank you so much! Here, you can have this!
- **4987**: This is the best $0 ever! <Munch munch>... (Next time I'll make sure I don't get caught...)
- **7305**: That Qiqirn ate one of my ginger cookies! If I get my hands on him...!
- **7351**: Every time Mom chased him, that Qiqirn would hide behind one of those huge poles down on Balrahn Way.
- **7352**: Then when he saw her coming, he'd just go around to the other side of the pole! But he wasn't expecting both me and my mom to come last time! Heh heh heh!
- **7353**: Now I don't have to worry about anybody eating my snacks! I wonder what Mom'll give me today!

## Events

### Event 65535

#### Metadata

| Field        | Value   |
|--------------|---------|
| Entrypoint   | 0x0000  |
| Data Size    | 1 bytes |
| Instructions | 1       |

```
      00 01 02 03 04 05 06 07  08 09 0A 0B 0C 0D 0E 0F
      -- -- -- -- -- -- -- --  -- -- -- -- -- -- -- --
0000: 00                                                .               
```

#### Opcodes

```
  0: 0x0000 [0x00] END_REQSTACK()
```

### Event 508

#### Metadata

| Field        | Value   |
|--------------|---------|
| Entrypoint   | 0x0001  |
| Data Size    | 1 bytes |
| Instructions | 1       |

```
      00 01 02 03 04 05 06 07  08 09 0A 0B 0C 0D 0E 0F
      -- -- -- -- -- -- -- --  -- -- -- -- -- -- -- --
0000:    00                                              .              
```

#### Opcodes

```
  0: 0x0001 [0x00] END_REQSTACK()
```

### Event 509

#### Metadata

| Field        | Value    |
|--------------|----------|
| Entrypoint   | 0x0002   |
| Data Size    | 11 bytes |
| Instructions | 5        |

```
      00 01 02 03 04 05 06 07  08 09 0A 0B 0C 0D 0E 0F
      -- -- -- -- -- -- -- --  -- -- -- -- -- -- -- --
0000:       1E F0 FF FF 7F 1D  00 80 23 21 00             ........#!.   
```

#### Opcodes

```
  0: 0x0002 [0x1E] EventEntity looks at LocalPlayer and starts talking
  1: 0x0007 [0x1D] PRINT_EVENT_MESSAGE(message_id=4946*)
    → "I need 7 letters in all--one each of M, U, and T, and two each of A and D."
  2: 0x000A [0x23] WAIT_FOR_DIALOG_INTERACTION
  3: 0x000B [0x21] END_EVENT
  4: 0x000C [0x00] END_REQSTACK()
```

### Event 517

#### Metadata

| Field        | Value   |
|--------------|---------|
| Entrypoint   | 0x000D  |
| Data Size    | 1 bytes |
| Instructions | 1       |

```
      00 01 02 03 04 05 06 07  08 09 0A 0B 0C 0D 0E 0F
      -- -- -- -- -- -- -- --  -- -- -- -- -- -- -- --
0000:                                         00                     .  
```

#### Opcodes

```
  0: 0x000D [0x00] END_REQSTACK()
```

### Event 65535.1

#### Metadata

| Field        | Value    |
|--------------|----------|
| Entrypoint   | 0x000E   |
| Data Size    | 14 bytes |
| Instructions | 4        |

```
      00 01 02 03 04 05 06 07  08 09 0A 0B 0C 0D 0E 0F
      -- -- -- -- -- -- -- --  -- -- -- -- -- -- -- --
0000:                                            32 01                2.
0010: 80 1F 00 02 80 03 80 04  80 1F 01 00              ............    
```

#### Opcodes

```
  0: 0x000E [0x32] ExtData[1]->MainSpeed = 40* * 0.1
  1: 0x0011 [0x1F] MOVE_ENTITY: EventEntity moves to X=-107.384*, Z=-65.344*, Y=-5.999*
  2: 0x0019 [0x1F] MOVE_ENTITY: Update entity position (mode=1)
  3: 0x001B [0x00] END_REQSTACK()
```

### Event 65535.2

#### Metadata

| Field        | Value     |
|--------------|-----------|
| Entrypoint   | 0x001C    |
| Data Size    | 102 bytes |
| Instructions | 20        |

```
      00 01 02 03 04 05 06 07  08 09 0A 0B 0C 0D 0E 0F
      -- -- -- -- -- -- -- --  -- -- -- -- -- -- -- --
0010:                                      32 01 80 1F              2...
0020: 00 05 80 06 80 04 80 1F  01 1F 00 07 80 08 80 04  ................
0030: 80 1F 01 1F 00 09 80 0A  80 04 80 1F 01 4A F0 FF  .............J..
0040: FF 7F 28 21 03 01 4B 28  21 03 01 0B 80 1C 0C 80  ..(!..K(!.......
0050: 1F 00 07 80 08 80 04 80  1F 01 1F 00 0D 80 0E 80  ................
0060: 04 80 1F 01 4A F0 FF FF  7F 28 21 03 01 1F 00 0F  ....J....(!.....
0070: 80 10 80 04 80 1F 01 1F  00 11 80 12 80 04 80 1F  ................
0080: 01 00                                             ..              
```

#### Opcodes

```
  0: 0x001C [0x32] ExtData[1]->MainSpeed = 40* * 0.1
  1: 0x001F [0x1F] MOVE_ENTITY: EventEntity moves to X=-109.097*, Z=-65.884*, Y=-5.999*
  2: 0x0027 [0x1F] MOVE_ENTITY: Update entity position (mode=1)
  3: 0x0029 [0x1F] MOVE_ENTITY: EventEntity moves to X=-112.032*, Z=-65.740*, Y=-5.999*
  4: 0x0031 [0x1F] MOVE_ENTITY: Update entity position (mode=1)
  5: 0x0033 [0x1F] MOVE_ENTITY: EventEntity moves to X=-112.453*, Z=-62.119*, Y=-5.999*
  6: 0x003B [0x1F] MOVE_ENTITY: Update entity position (mode=1)
  7: 0x003D [0x4A] LocalPlayer looks at Hadahda (ID: 16982312/0x01032128)
  8: 0x0046 [0x4B] UPDATE_ENTITY_YAW(entity=Hadahda (ID: 16982312/0x01032128), yaw=11.3°*)
  9: 0x004D [0x1C] WAIT(120* ticks)
 10: 0x0050 [0x1F] MOVE_ENTITY: EventEntity moves to X=-112.032*, Z=-65.740*, Y=-5.999*
 11: 0x0058 [0x1F] MOVE_ENTITY: Update entity position (mode=1)
 12: 0x005A [0x1F] MOVE_ENTITY: EventEntity moves to X=-106.515*, Z=-66.044*, Y=-5.999*
 13: 0x0062 [0x1F] MOVE_ENTITY: Update entity position (mode=1)
 14: 0x0064 [0x4A] LocalPlayer looks at Hadahda (ID: 16982312/0x01032128)
 15: 0x006D [0x1F] MOVE_ENTITY: EventEntity moves to X=-105.562*, Z=-60.411*, Y=-5.999*
 16: 0x0075 [0x1F] MOVE_ENTITY: Update entity position (mode=1)
 17: 0x0077 [0x1F] MOVE_ENTITY: EventEntity moves to X=-103.373*, Z=-60.809*, Y=-5.999*
 18: 0x007F [0x1F] MOVE_ENTITY: Update entity position (mode=1)
 19: 0x0081 [0x00] END_REQSTACK()
```

### Event 65535.3

#### Metadata

| Field        | Value    |
|--------------|----------|
| Entrypoint   | 0x0082   |
| Data Size    | 34 bytes |
| Instructions | 4        |

```
      00 01 02 03 04 05 06 07  08 09 0A 0B 0C 0D 0E 0F
      -- -- -- -- -- -- -- --  -- -- -- -- -- -- -- --
0080:       5B 13 80 28 21 03  01 28 21 03 01 74 6C 6B    [..(!..(!..tlk
0090: 30 1C 14 80 5B 13 80 28  21 03 01 28 21 03 01 74  0...[..(!..(!..t
00A0: 6C 6B 31 00                                       lk1.            
```

#### Opcodes

```
  0: 0x0082 [0x5B] LOAD_EXT_SCHEDULER: Load scheduler "tlk0" with entities [Hadahda (ID: 16982312/0x01032128), Hadahda (ID: 16982312/0x01032128)], work=75*
  1: 0x0091 [0x1C] WAIT(15* ticks)
  2: 0x0094 [0x5B] LOAD_EXT_SCHEDULER: Load scheduler "tlk1" with entities [Hadahda (ID: 16982312/0x01032128), Hadahda (ID: 16982312/0x01032128)], work=75*
  3: 0x00A3 [0x00] END_REQSTACK()
```

### Event 65535.4

#### Metadata

| Field        | Value    |
|--------------|----------|
| Entrypoint   | 0x00A4   |
| Data Size    | 14 bytes |
| Instructions | 4        |

```
      00 01 02 03 04 05 06 07  08 09 0A 0B 0C 0D 0E 0F
      -- -- -- -- -- -- -- --  -- -- -- -- -- -- -- --
00A0:             32 15 80 1F  00 16 80 17 80 04 80 1F      2...........
00B0: 01 00                                             ..              
```

#### Opcodes

```
  0: 0x00A4 [0x32] ExtData[1]->MainSpeed = 13* * 0.1
  1: 0x00A7 [0x1F] MOVE_ENTITY: EventEntity moves to X=-105.539*, Z=-60.609*, Y=-5.999*
  2: 0x00AF [0x1F] MOVE_ENTITY: Update entity position (mode=1)
  3: 0x00B1 [0x00] END_REQSTACK()
```

### Event 65535.5

#### Metadata

| Field        | Value    |
|--------------|----------|
| Entrypoint   | 0x00B2   |
| Data Size    | 14 bytes |
| Instructions | 4        |

```
      00 01 02 03 04 05 06 07  08 09 0A 0B 0C 0D 0E 0F
      -- -- -- -- -- -- -- --  -- -- -- -- -- -- -- --
00B0:       32 01 80 1F 00 18  80 19 80 04 80 1F 01 00    2.............
```

#### Opcodes

```
  0: 0x00B2 [0x32] ExtData[1]->MainSpeed = 40* * 0.1
  1: 0x00B5 [0x1F] MOVE_ENTITY: EventEntity moves to X=-105.715*, Z=-63.581*, Y=-5.999*
  2: 0x00BD [0x1F] MOVE_ENTITY: Update entity position (mode=1)
  3: 0x00BF [0x00] END_REQSTACK()
```

### Event 518

#### Metadata

| Field        | Value   |
|--------------|---------|
| Entrypoint   | 0x00C0  |
| Data Size    | 9 bytes |
| Instructions | 5       |

```
      00 01 02 03 04 05 06 07  08 09 0A 0B 0C 0D 0E 0F
      -- -- -- -- -- -- -- --  -- -- -- -- -- -- -- --
00C0: 1C 1A 80 1D 1B 80 23 21  00                       ......#!.       
```

#### Opcodes

```
  0: 0x00C0 [0x1C] WAIT(60* ticks)
  1: 0x00C3 [0x1D] PRINT_EVENT_MESSAGE(message_id=4985*)
    → "I wanted a snack..."
  2: 0x00C6 [0x23] WAIT_FOR_DIALOG_INTERACTION
  3: 0x00C7 [0x21] END_EVENT
  4: 0x00C8 [0x00] END_REQSTACK()
```

### Event 573

#### Metadata

| Field        | Value    |
|--------------|----------|
| Entrypoint   | 0x00C9   |
| Data Size    | 30 bytes |
| Instructions | 8        |

```
      00 01 02 03 04 05 06 07  08 09 0A 0B 0C 0D 0E 0F
      -- -- -- -- -- -- -- --  -- -- -- -- -- -- -- --
00C0:                             42 1E F0 FF FF 7F 1C           B......
00D0: 1C 80 5B 13 80 28 21 03  01 28 21 03 01 74 6C 6B  ..[..(!..(!..tlk
00E0: 30 1D 1D 80 23 21 00                              0...#!.         
```

#### Opcodes

```
  0: 0x00C9 [0x42] SET_CLI_EVENT_CANCEL_DATA()
  1: 0x00CA [0x1E] EventEntity looks at LocalPlayer and starts talking
  2: 0x00CF [0x1C] WAIT(30* ticks)
  3: 0x00D2 [0x5B] LOAD_EXT_SCHEDULER: Load scheduler "tlk0" with entities [Hadahda (ID: 16982312/0x01032128), Hadahda (ID: 16982312/0x01032128)], work=75*
  4: 0x00E1 [0x1D] PRINT_EVENT_MESSAGE(message_id=4986*)
    → "You're giving it back to me? Yay! Thank you so much! Here, you can have this!"
  5: 0x00E4 [0x23] WAIT_FOR_DIALOG_INTERACTION
  6: 0x00E5 [0x21] END_EVENT
  7: 0x00E6 [0x00] END_REQSTACK()
```

### Event 574

#### Metadata

| Field        | Value    |
|--------------|----------|
| Entrypoint   | 0x00E7   |
| Data Size    | 34 bytes |
| Instructions | 8        |

```
      00 01 02 03 04 05 06 07  08 09 0A 0B 0C 0D 0E 0F
      -- -- -- -- -- -- -- --  -- -- -- -- -- -- -- --
00E0:                      1E  F0 FF FF 7F 1C 1C 80 5B         ........[
00F0: 13 80 28 21 03 01 28 21  03 01 74 6C 6B 30 03 02  ..(!..(!..tlk0..
0100: 10 1E 80 1D 1F 80 23 21  00                       ......#!.       
```

#### Opcodes

```
  0: 0x00E7 [0x1E] EventEntity looks at LocalPlayer and starts talking
  1: 0x00EC [0x1C] WAIT(30* ticks)
  2: 0x00EF [0x5B] LOAD_EXT_SCHEDULER: Load scheduler "tlk0" with entities [Hadahda (ID: 16982312/0x01032128), Hadahda (ID: 16982312/0x01032128)], work=75*
  3: 0x00FE [0x03] Work_Zone[2] = 5577*
  4: 0x0103 [0x1D] PRINT_EVENT_MESSAGE(message_id=4987*)
    → "This is the best $0 ever! <Munch munch>... (Next time I'll make sure I don't get caught...)"
  5: 0x0106 [0x23] WAIT_FOR_DIALOG_INTERACTION
  6: 0x0107 [0x21] END_EVENT
  7: 0x0108 [0x00] END_REQSTACK()
```

### Event 866

#### Metadata

| Field        | Value    |
|--------------|----------|
| Entrypoint   | 0x0109   |
| Data Size    | 29 bytes |
| Instructions | 7        |

```
      00 01 02 03 04 05 06 07  08 09 0A 0B 0C 0D 0E 0F
      -- -- -- -- -- -- -- --  -- -- -- -- -- -- -- --
0100:                             1E F0 FF FF 7F 1C 1C           .......
0110: 80 5B 13 80 28 21 03 01  28 21 03 01 74 6C 6B 30  .[..(!..(!..tlk0
0120: 1D 20 80 23 21 00                                 . .#!.          
```

#### Opcodes

```
  0: 0x0109 [0x1E] EventEntity looks at LocalPlayer and starts talking
  1: 0x010E [0x1C] WAIT(30* ticks)
  2: 0x0111 [0x5B] LOAD_EXT_SCHEDULER: Load scheduler "tlk0" with entities [Hadahda (ID: 16982312/0x01032128), Hadahda (ID: 16982312/0x01032128)], work=75*
  3: 0x0120 [0x1D] PRINT_EVENT_MESSAGE(message_id=7305*)
    → "That Qiqirn ate one of my ginger cookies! If I get my hands on him...!"
  4: 0x0123 [0x23] WAIT_FOR_DIALOG_INTERACTION
  5: 0x0124 [0x21] END_EVENT
  6: 0x0125 [0x00] END_REQSTACK()
```

### Event 877

#### Metadata

| Field        | Value    |
|--------------|----------|
| Entrypoint   | 0x0126   |
| Data Size    | 37 bytes |
| Instructions | 11       |

```
      00 01 02 03 04 05 06 07  08 09 0A 0B 0C 0D 0E 0F
      -- -- -- -- -- -- -- --  -- -- -- -- -- -- -- --
0120:                   1E F0  FF FF 7F 1C 1C 80 1D 21        .........!
0130: 80 23 5B 13 80 28 21 03  01 28 21 03 01 74 6C 6B  .#[..(!..(!..tlk
0140: 30 1D 22 80 23 1D 23 80  23 21 00                 0.".#.#.#!.     
```

#### Opcodes

```
  0: 0x0126 [0x1E] EventEntity looks at LocalPlayer and starts talking
  1: 0x012B [0x1C] WAIT(30* ticks)
  2: 0x012E [0x1D] PRINT_EVENT_MESSAGE(message_id=7351*)
    → "Every time Mom chased him, that Qiqirn would hide behind one of those huge poles down on Balrahn Way."
  3: 0x0131 [0x23] WAIT_FOR_DIALOG_INTERACTION
  4: 0x0132 [0x5B] LOAD_EXT_SCHEDULER: Load scheduler "tlk0" with entities [Hadahda (ID: 16982312/0x01032128), Hadahda (ID: 16982312/0x01032128)], work=75*
  5: 0x0141 [0x1D] PRINT_EVENT_MESSAGE(message_id=7352*)
    → "Then when he saw her coming, he'd just go around to the other side of the pole! But he wasn't expecting both me and my mom to come last time! Heh heh heh!"
  6: 0x0144 [0x23] WAIT_FOR_DIALOG_INTERACTION
  7: 0x0145 [0x1D] PRINT_EVENT_MESSAGE(message_id=7353*)
    → "Now I don't have to worry about anybody eating my snacks! I wonder what Mom'll give me today!"
  8: 0x0148 [0x23] WAIT_FOR_DIALOG_INTERACTION
  9: 0x0149 [0x21] END_EVENT
 10: 0x014A [0x00] END_REQSTACK()
```
