# 16982254 - Sashosho

## Common Data

| Field            | Value                         |
|------------------|-------------------------------|
| Zone             | Aht Urhgan Whitegate (ID: 50) |
| Block Size       | 172 bytes                     |
| Total Events     | 3                             |
| References Count | 5                             |

## List of Events

| Event ID              | Entrypoint   |   Size |   Instructions |
|-----------------------|--------------|--------|----------------|
| [65535](#event-65535) | 0x0000       |      1 |              1 |
| [250](#event-250)     | 0x0001       |     60 |             12 |
| [899](#event-899)     | 0x003D       |     60 |             12 |

## DAT References (imed_data)

|   Index | Hex Value   |   Dec Value |
|---------|-------------|-------------|
|       0 | 0x0022      |          34 |
|       1 | 0x26A9      |        9897 |
|       2 | 0x26AA      |        9898 |
|       3 | 0x26A7      |        9895 |
|       4 | 0x26A8      |        9896 |

## Events

### Event 65535

#### Metadata

| Field        | Value   |
|--------------|---------|
| Entrypoint   | 0x0000  |
| Data Size    | 1 bytes |
| Instructions | 1       |

```
      00 01 02 03 04 05 06 07  08 09 0A 0B 0C 0D 0E 0F
      -- -- -- -- -- -- -- --  -- -- -- -- -- -- -- --
0000: 00                                                .               
```

#### Opcodes

```
  0: 0x0000 [0x00] END_REQSTACK()
```

### Event 250

#### Metadata

| Field        | Value    |
|--------------|----------|
| Entrypoint   | 0x0001   |
| Data Size    | 60 bytes |
| Instructions | 12       |

```
      00 01 02 03 04 05 06 07  08 09 0A 0B 0C 0D 0E 0F
      -- -- -- -- -- -- -- --  -- -- -- -- -- -- -- --
0000:    1E F0 FF FF 7F 6F 70  66 00 80 F8 FF FF 7F F8   .....opf.......
0010: FF FF 7F 74 6C 62 30 1D  01 80 23 1D 02 80 23 66  ...tlb0...#...#f
0020: 00 80 F8 FF FF 7F F8 FF  FF 7F 74 6C 62 31 53 F8  ..........tlb1S.
0030: FF FF 7F F8 FF FF 7F 74  6C 62 31 21 00           .......tlb1!.   
```

#### Opcodes

```
  0: 0x0001 [0x1E] EventEntity looks at LocalPlayer and starts talking
  1: 0x0006 [0x6F] WAIT_FRAME_DELAY: Yield until WaitTime reaches zero
  2: 0x0007 [0x70] WAIT_ENTITY_RENDER_FLAG: Wait while EventEntity->Render.Flags3 bit 2 is set (cancel turn if not)
  3: 0x0008 [0x66] LOAD_EXT_SCHEDULER_MAIN: Load scheduler "tlb0" with entities [EventEntity, EventEntity], work=34*
  4: 0x0017 [0x1D] PRINT_EVENT_MESSAGE(message_id=9897*)
    → "Gosh darn it, I came all the way from the countryside to see the monster fights in the Pit...\u0007They told me the Empress had it closed down.\u007F1\u0000\u0007"
  5: 0x001A [0x23] WAIT_FOR_DIALOG_INTERACTION
  6: 0x001B [0x1D] PRINT_EVENT_MESSAGE(message_id=9898*)
    → "Y'know, most leaders know that all it takes to keep the people happy is a belly full o' bread and a good brawl to watch...\u007F1\u0000\u0007"
  7: 0x001E [0x23] WAIT_FOR_DIALOG_INTERACTION
  8: 0x001F [0x66] LOAD_EXT_SCHEDULER_MAIN: Load scheduler "tlb1" with entities [EventEntity, EventEntity], work=34*
  9: 0x002E [0x53] WAIT_SCHEDULER_TASK: Wait for scheduler "tlb1" with entities [EventEntity, EventEntity]
 10: 0x003B [0x21] END_EVENT
 11: 0x003C [0x00] END_REQSTACK()
```

### Event 899

#### Metadata

| Field        | Value    |
|--------------|----------|
| Entrypoint   | 0x003D   |
| Data Size    | 60 bytes |
| Instructions | 12       |

```
      00 01 02 03 04 05 06 07  08 09 0A 0B 0C 0D 0E 0F
      -- -- -- -- -- -- -- --  -- -- -- -- -- -- -- --
0030:                                         1E F0 FF               ...
0040: FF 7F 6F 70 66 00 80 F8  FF FF 7F F8 FF FF 7F 74  ..opf..........t
0050: 6C 62 30 1D 03 80 23 1D  04 80 23 66 00 80 F8 FF  lb0...#...#f....
0060: FF 7F F8 FF FF 7F 74 6C  62 31 53 F8 FF FF 7F F8  ......tlb1S.....
0070: FF FF 7F 74 6C 62 31 21  00                       ...tlb1!.       
```

#### Opcodes

```
  0: 0x003D [0x1E] EventEntity looks at LocalPlayer and starts talking
  1: 0x0042 [0x6F] WAIT_FRAME_DELAY: Yield until WaitTime reaches zero
  2: 0x0043 [0x70] WAIT_ENTITY_RENDER_FLAG: Wait while EventEntity->Render.Flags3 bit 2 is set (cancel turn if not)
  3: 0x0044 [0x66] LOAD_EXT_SCHEDULER_MAIN: Load scheduler "tlb0" with entities [EventEntity, EventEntity], work=34*
  4: 0x0053 [0x1D] PRINT_EVENT_MESSAGE(message_id=9895*)
    → "The thunderin' roars, the gleamin' fangs...\u0007There's nothin' like a good tussle between critters.\u007F1\u0000\u0007"
  5: 0x0056 [0x23] WAIT_FOR_DIALOG_INTERACTION
  6: 0x0057 [0x1D] PRINT_EVENT_MESSAGE(message_id=9896*)
    → "I musta sent a thousand petitions to the palace to get this place opened.\u0007Guess I finally became too annoyin' to ignore.\u007F1\u0000\u0007"
  7: 0x005A [0x23] WAIT_FOR_DIALOG_INTERACTION
  8: 0x005B [0x66] LOAD_EXT_SCHEDULER_MAIN: Load scheduler "tlb1" with entities [EventEntity, EventEntity], work=34*
  9: 0x006A [0x53] WAIT_SCHEDULER_TASK: Wait for scheduler "tlb1" with entities [EventEntity, EventEntity]
 10: 0x0077 [0x21] END_EVENT
 11: 0x0078 [0x00] END_REQSTACK()
```
