# 16982542 - Salwa-Molwa

## Common Data

| Field            | Value                         |
|------------------|-------------------------------|
| Zone             | Aht Urhgan Whitegate (ID: 50) |
| Block Size       | 1732 bytes                    |
| Total Events     | 63                            |
| References Count | 64                            |

## List of Events

| Event ID                    | Entrypoint   |   Size |   Instructions |
|-----------------------------|--------------|--------|----------------|
| [65535](#event-65535)       | 0x0000       |      1 |              1 |
| [889](#event-889)           | 0x0001       |      1 |              1 |
| [65535.1](#event-65535-1)   | 0x0002       |      9 |              3 |
| [65535.2](#event-65535-2)   | 0x000B       |     10 |              2 |
| [65535.3](#event-65535-3)   | 0x0015       |     14 |              4 |
| [65535.4](#event-65535-4)   | 0x0023       |     18 |              4 |
| [65535.5](#event-65535-5)   | 0x0035       |      1 |              1 |
| [65535.6](#event-65535-6)   | 0x0036       |     16 |              4 |
| [65535.7](#event-65535-7)   | 0x0046       |     18 |              4 |
| [65535.8](#event-65535-8)   | 0x0058       |      4 |              2 |
| [65535.9](#event-65535-9)   | 0x005C       |     21 |              5 |
| [65535.10](#event-65535-10) | 0x0071       |     16 |              4 |
| [65535.11](#event-65535-11) | 0x0081       |     15 |              5 |
| [65535.12](#event-65535-12) | 0x0090       |     48 |              8 |
| [65535.13](#event-65535-13) | 0x00C0       |     53 |              9 |
| [65535.14](#event-65535-14) | 0x00F5       |     27 |              5 |
| [65535.15](#event-65535-15) | 0x0110       |     16 |              4 |
| [65535.16](#event-65535-16) | 0x0120       |     16 |              4 |
| [65535.17](#event-65535-17) | 0x0130       |     16 |              4 |
| [65535.18](#event-65535-18) | 0x0140       |     29 |              3 |
| [65535.19](#event-65535-19) | 0x015D       |     16 |              2 |
| [65535.20](#event-65535-20) | 0x016D       |     13 |              3 |
| [65535.21](#event-65535-21) | 0x017A       |     27 |              3 |
| [65535.22](#event-65535-22) | 0x0195       |     27 |              3 |
| [65535.23](#event-65535-23) | 0x01B0       |     27 |              3 |
| [65535.24](#event-65535-24) | 0x01CB       |     13 |              3 |
| [65535.25](#event-65535-25) | 0x01D8       |     32 |              4 |
| [65535.26](#event-65535-26) | 0x01F8       |     29 |              3 |
| [65535.27](#event-65535-27) | 0x0215       |     29 |              3 |
| [65535.28](#event-65535-28) | 0x0232       |     29 |              3 |
| [65535.29](#event-65535-29) | 0x024F       |     29 |              3 |
| [65535.30](#event-65535-30) | 0x026C       |     57 |              5 |
| [65535.31](#event-65535-31) | 0x02A5       |     29 |              3 |
| [65535.32](#event-65535-32) | 0x02C2       |     29 |              3 |
| [65535.33](#event-65535-33) | 0x02DF       |     16 |              4 |
| [65535.34](#event-65535-34) | 0x02EF       |      4 |              2 |
| [65535.35](#event-65535-35) | 0x02F3       |     16 |              4 |
| [65535.36](#event-65535-36) | 0x0303       |      2 |              2 |
| [65535.37](#event-65535-37) | 0x0305       |      9 |              3 |
| [890](#event-890)           | 0x030E       |      1 |              1 |
| [65535.38](#event-65535-38) | 0x030F       |      8 |              2 |
| [65535.39](#event-65535-39) | 0x0317       |      8 |              2 |
| [65535.40](#event-65535-40) | 0x031F       |      8 |              2 |
| [65535.41](#event-65535-41) | 0x0327       |     10 |              2 |
| [65535.42](#event-65535-42) | 0x0331       |     16 |              4 |
| [65535.43](#event-65535-43) | 0x0341       |     28 |              8 |
| [65535.44](#event-65535-44) | 0x035D       |      8 |              2 |
| [65535.45](#event-65535-45) | 0x0365       |     29 |              3 |
| [65535.46](#event-65535-46) | 0x0382       |     16 |              4 |
| [65535.47](#event-65535-47) | 0x0392       |     16 |              4 |
| [65535.48](#event-65535-48) | 0x03A2       |     16 |              4 |
| [65535.49](#event-65535-49) | 0x03B2       |     16 |              4 |
| [65535.50](#event-65535-50) | 0x03C2       |      6 |              2 |
| [65535.51](#event-65535-51) | 0x03C8       |      1 |              1 |
| [65535.52](#event-65535-52) | 0x03C9       |     19 |              5 |
| [65535.53](#event-65535-53) | 0x03DC       |     54 |             12 |
| [65535.54](#event-65535-54) | 0x0412       |     23 |              7 |
| [65535.55](#event-65535-55) | 0x0429       |     14 |              4 |
| [65535.56](#event-65535-56) | 0x0437       |     32 |              4 |
| [65535.57](#event-65535-57) | 0x0457       |     29 |              3 |
| [65535.58](#event-65535-58) | 0x0474       |     16 |              4 |
| [65535.59](#event-65535-59) | 0x0484       |     27 |              5 |
| [65535.60](#event-65535-60) | 0x049F       |     25 |              7 |

## DAT References (imed_data)

|   Index | Hex Value   |   Dec Value |
|---------|-------------|-------------|
|       0 | 0xFFFDE909  |  4294830345 |
|       1 | 0xFFFFD810  |  4294957072 |
|       2 | 0x07CF      |        1999 |
|       3 | 0x0F05      |        3845 |
|       4 | 0x000B      |          11 |
|       5 | 0xFFFDD629  |  4294825513 |
|       6 | 0xFFFFE960  |  4294961504 |
|       7 | 0x0020      |          32 |
|       8 | 0x0016      |          22 |
|       9 | 0xFFFDCF29  |  4294823721 |
|      10 | 0xFFFFEB95  |  4294962069 |
|      11 | 0x001E      |          30 |
|      12 | 0x0010      |          16 |
|      13 | 0x003C      |          60 |
|      14 | 0x0015      |          21 |
|      15 | 0x0028      |          40 |
|      16 | 0xFFFDD7C7  |  4294825927 |
|      17 | 0xFFFFE527  |  4294960423 |
|      18 | 0x000F      |          15 |
|      19 | 0x000D      |          13 |
|      20 | 0xFFFDDC28  |  4294827048 |
|      21 | 0xFFFFEB6B  |  4294962027 |
|      22 | 0x0800      |        2048 |
|      23 | 0x0031      |          49 |
|      24 | 0x0005      |           5 |
|      25 | 0x0021      |          33 |
|      26 | 0x0078      |         120 |
|      27 | 0x0023      |          35 |
|      28 | 0x0001      |           1 |
|      29 | 0x000A      |          10 |
|      30 | 0x0018      |          24 |
|      31 | 0x002A      |          42 |
|      32 | 0xFFFE1E19  |  4294843929 |
|      33 | 0xFFFFE418  |  4294960152 |
|      34 | 0x0000      |           0 |
|      35 | 0x00B4      |         180 |
|      36 | 0xFFFF296A  |  4294912362 |
|      37 | 0xFFFE7AC2  |  4294867650 |
|      38 | 0x17CA      |        6090 |
|      39 | 0xFFFF289D  |  4294912157 |
|      40 | 0xFFFE7EE3  |  4294868707 |
|      41 | 0xFFFF3C42  |  4294917186 |
|      42 | 0xFFFE7DC3  |  4294868419 |
|      43 | 0x1758      |        5976 |
|      44 | 0x8F92A     |      588074 |
|      45 | 0x2BC68     |      179304 |
|      46 | 0xFFFFB990  |  4294949264 |
|      47 | 0x0913      |        2323 |
|      48 | 0x005A      |          90 |
|      49 | 0x8E44A     |      582730 |
|      50 | 0x2C1E1     |      180705 |
|      51 | 0xFFFFBC5E  |  4294949982 |
|      52 | 0x8D7A5     |      579493 |
|      53 | 0x30DC4     |      200132 |
|      54 | 0xFFFFB70D  |  4294948621 |
|      55 | 0xFFFDD834  |  4294826036 |
|      56 | 0xFFFFE1B2  |  4294959538 |
|      57 | 0x0004      |           4 |
|      58 | 0x0102      |         258 |
|      59 | 0x0007      |           7 |
|      60 | 0x0009      |           9 |
|      61 | 0xFFFE1F60  |  4294844256 |
|      62 | 0xFFFFE245  |  4294959685 |
|      63 | 0x0006      |           6 |

## Events

### Event 65535

#### Metadata

| Field        | Value   |
|--------------|---------|
| Entrypoint   | 0x0000  |
| Data Size    | 1 bytes |
| Instructions | 1       |

```
      00 01 02 03 04 05 06 07  08 09 0A 0B 0C 0D 0E 0F
      -- -- -- -- -- -- -- --  -- -- -- -- -- -- -- --
0000: 00                                                .               
```

#### Opcodes

```
  0: 0x0000 [0x00] END_REQSTACK()
```

### Event 889

#### Metadata

| Field        | Value   |
|--------------|---------|
| Entrypoint   | 0x0001  |
| Data Size    | 1 bytes |
| Instructions | 1       |

```
      00 01 02 03 04 05 06 07  08 09 0A 0B 0C 0D 0E 0F
      -- -- -- -- -- -- -- --  -- -- -- -- -- -- -- --
0000:    00                                              .              
```

#### Opcodes

```
  0: 0x0001 [0x00] END_REQSTACK()
```

### Event 65535.1

#### Metadata

| Field        | Value   |
|--------------|---------|
| Entrypoint   | 0x0002  |
| Data Size    | 9 bytes |
| Instructions | 3       |

```
      00 01 02 03 04 05 06 07  08 09 0A 0B 0C 0D 0E 0F
      -- -- -- -- -- -- -- --  -- -- -- -- -- -- -- --
0000:       22 00 2F 00 F8 FF  FF 7F 00                   "./......     
```

#### Opcodes

```
  0: 0x0002 [0x22] ENTITY_HIDE_FLAG(enabled=0x00)
  1: 0x0004 [0x2F] EventEntity->Render.Flags0 &= ~0x80000 // Bit 19
  2: 0x000A [0x00] END_REQSTACK()
```

### Event 65535.2

#### Metadata

| Field        | Value    |
|--------------|----------|
| Entrypoint   | 0x000B   |
| Data Size    | 10 bytes |
| Instructions | 2        |

```
      00 01 02 03 04 05 06 07  08 09 0A 0B 0C 0D 0E 0F
      -- -- -- -- -- -- -- --  -- -- -- -- -- -- -- --
0000:                                   37 00 80 01 80             7....
0010: 02 80 03 80 00                                    .....           
```

#### Opcodes

```
  0: 0x000B [0x37] UPDATE_EVENT_POSITION_AND_DIR: x=-136.951*, z=-10.224*, y=1.999*, direction=337.9°*
  1: 0x0014 [0x00] END_REQSTACK()
```

### Event 65535.3

#### Metadata

| Field        | Value    |
|--------------|----------|
| Entrypoint   | 0x0015   |
| Data Size    | 14 bytes |
| Instructions | 4        |

```
      00 01 02 03 04 05 06 07  08 09 0A 0B 0C 0D 0E 0F
      -- -- -- -- -- -- -- --  -- -- -- -- -- -- -- --
0010:                32 04 80  1F 00 05 80 06 80 02 80       2..........
0020: 1F 01 00                                          ...             
```

#### Opcodes

```
  0: 0x0015 [0x32] ExtData[1]->MainSpeed = 11* * 0.1
  1: 0x0018 [0x1F] MOVE_ENTITY: EventEntity moves to X=-141.783*, Z=-5.792*, Y=1.999*
  2: 0x0020 [0x1F] MOVE_ENTITY: Update entity position (mode=1)
  3: 0x0022 [0x00] END_REQSTACK()
```

### Event 65535.4

#### Metadata

| Field        | Value    |
|--------------|----------|
| Entrypoint   | 0x0023   |
| Data Size    | 18 bytes |
| Instructions | 4        |

```
      00 01 02 03 04 05 06 07  08 09 0A 0B 0C 0D 0E 0F
      -- -- -- -- -- -- -- --  -- -- -- -- -- -- -- --
0020:          6E F8 FF FF 7F  07 80 99 F8 FF FF 7F 99     n............
0030: F8 FF FF 7F 00                                    .....           
```

#### Opcodes

```
  0: 0x0023 [0x6E] EventEntity uses emote 32*
  1: 0x002A [0x99] Wait for EventEntity animation to complete
  2: 0x002F [0x99] Wait for EventEntity animation to complete
  3: 0x0034 [0x00] END_REQSTACK()
```

### Event 65535.5

#### Metadata

| Field        | Value   |
|--------------|---------|
| Entrypoint   | 0x0035  |
| Data Size    | 1 bytes |
| Instructions | 1       |

```
      00 01 02 03 04 05 06 07  08 09 0A 0B 0C 0D 0E 0F
      -- -- -- -- -- -- -- --  -- -- -- -- -- -- -- --
0030:                00                                      .          
```

#### Opcodes

```
  0: 0x0035 [0x00] END_REQSTACK()
```

### Event 65535.6

#### Metadata

| Field        | Value    |
|--------------|----------|
| Entrypoint   | 0x0036   |
| Data Size    | 16 bytes |
| Instructions | 4        |

```
      00 01 02 03 04 05 06 07  08 09 0A 0B 0C 0D 0E 0F
      -- -- -- -- -- -- -- --  -- -- -- -- -- -- -- --
0030:                   32 08  80 31 00 09 80 0A 80 02        2..1......
0040: 80 0B 80 31 01 00                                 ...1..          
```

#### Opcodes

```
  0: 0x0036 [0x32] ExtData[1]->MainSpeed = 22* * 0.1
  1: 0x0039 [0x31] UPDATE_ENTITY_POSITION: Set EventEntity goal position to X=-143.575*, Z=-5.227*, Y=1.999*, Time=30*
  2: 0x0043 [0x31] UPDATE_ENTITY_POSITION: Move EventEntity towards goal position
  3: 0x0045 [0x00] END_REQSTACK()
```

### Event 65535.7

#### Metadata

| Field        | Value    |
|--------------|----------|
| Entrypoint   | 0x0046   |
| Data Size    | 18 bytes |
| Instructions | 4        |

```
      00 01 02 03 04 05 06 07  08 09 0A 0B 0C 0D 0E 0F
      -- -- -- -- -- -- -- --  -- -- -- -- -- -- -- --
0040:                   6E F8  FF FF 7F 0C 80 99 F8 FF        n.........
0050: FF 7F 99 F8 FF FF 7F 00                           ........        
```

#### Opcodes

```
  0: 0x0046 [0x6E] EventEntity uses emote 16*
  1: 0x004D [0x99] Wait for EventEntity animation to complete
  2: 0x0052 [0x99] Wait for EventEntity animation to complete
  3: 0x0057 [0x00] END_REQSTACK()
```

### Event 65535.8

#### Metadata

| Field        | Value   |
|--------------|---------|
| Entrypoint   | 0x0058  |
| Data Size    | 4 bytes |
| Instructions | 2       |

```
      00 01 02 03 04 05 06 07  08 09 0A 0B 0C 0D 0E 0F
      -- -- -- -- -- -- -- --  -- -- -- -- -- -- -- --
0050:                          1C 0D 80 00                      ....    
```

#### Opcodes

```
  0: 0x0058 [0x1C] WAIT(60* ticks)
  1: 0x005B [0x00] END_REQSTACK()
```

### Event 65535.9

#### Metadata

| Field        | Value    |
|--------------|----------|
| Entrypoint   | 0x005C   |
| Data Size    | 21 bytes |
| Instructions | 5        |

```
      00 01 02 03 04 05 06 07  08 09 0A 0B 0C 0D 0E 0F
      -- -- -- -- -- -- -- --  -- -- -- -- -- -- -- --
0050:                                      1C 0D 80 6E              ...n
0060: F8 FF FF 7F 0E 80 99 F8  FF FF 7F 99 F8 FF FF 7F  ................
0070: 00                                                .               
```

#### Opcodes

```
  0: 0x005C [0x1C] WAIT(60* ticks)
  1: 0x005F [0x6E] EventEntity uses emote 21*
  2: 0x0066 [0x99] Wait for EventEntity animation to complete
  3: 0x006B [0x99] Wait for EventEntity animation to complete
  4: 0x0070 [0x00] END_REQSTACK()
```

### Event 65535.10

#### Metadata

| Field        | Value    |
|--------------|----------|
| Entrypoint   | 0x0071   |
| Data Size    | 16 bytes |
| Instructions | 4        |

```
      00 01 02 03 04 05 06 07  08 09 0A 0B 0C 0D 0E 0F
      -- -- -- -- -- -- -- --  -- -- -- -- -- -- -- --
0070:    32 0F 80 31 00 10 80  11 80 02 80 12 80 31 01   2..1.........1.
0080: 00                                                .               
```

#### Opcodes

```
  0: 0x0071 [0x32] ExtData[1]->MainSpeed = 40* * 0.1
  1: 0x0074 [0x31] UPDATE_ENTITY_POSITION: Set EventEntity goal position to X=-141.369*, Z=-6.873*, Y=1.999*, Time=15*
  2: 0x007E [0x31] UPDATE_ENTITY_POSITION: Move EventEntity towards goal position
  3: 0x0080 [0x00] END_REQSTACK()
```

### Event 65535.11

#### Metadata

| Field        | Value    |
|--------------|----------|
| Entrypoint   | 0x0081   |
| Data Size    | 15 bytes |
| Instructions | 5        |

```
      00 01 02 03 04 05 06 07  08 09 0A 0B 0C 0D 0E 0F
      -- -- -- -- -- -- -- --  -- -- -- -- -- -- -- --
0080:    32 13 80 1F 00 14 80  15 80 02 80 1F 01 6F 00   2............o.
```

#### Opcodes

```
  0: 0x0081 [0x32] ExtData[1]->MainSpeed = 13* * 0.1
  1: 0x0084 [0x1F] MOVE_ENTITY: EventEntity moves to X=-140.248*, Z=-5.269*, Y=1.999*
  2: 0x008C [0x1F] MOVE_ENTITY: Update entity position (mode=1)
  3: 0x008E [0x6F] WAIT_FRAME_DELAY: Yield until WaitTime reaches zero
  4: 0x008F [0x00] END_REQSTACK()
```

### Event 65535.12

#### Metadata

| Field        | Value    |
|--------------|----------|
| Entrypoint   | 0x0090   |
| Data Size    | 48 bytes |
| Instructions | 8        |

```
      00 01 02 03 04 05 06 07  08 09 0A 0B 0C 0D 0E 0F
      -- -- -- -- -- -- -- --  -- -- -- -- -- -- -- --
0090: 03 00 00 03 7F 07 00 00  16 80 4B F8 FF FF 7F 00  ..........K.....
00A0: 00 6F 70 66 17 80 F8 FF  FF 7F F8 FF FF 7F 73 69  .opf..........si
00B0: 74 30 53 F8 FF FF 7F F8  FF FF 7F 73 69 74 30 00  t0S........sit0.
```

#### Opcodes

```
  0: 0x0090 [0x03] ExtData[1]->WorkLocal[0] = enDirCli(ExtData[1]->EventDir[1]) * 4096.0 * 0.15915963
  1: 0x0095 [0x07] ExtData[1]->WorkLocal[0] += 2048*
  2: 0x009A [0x4B] UPDATE_ENTITY_YAW(entity=EventEntity, yaw=ExtData[1]->WorkLocal[0])
  3: 0x00A1 [0x6F] WAIT_FRAME_DELAY: Yield until WaitTime reaches zero
  4: 0x00A2 [0x70] WAIT_ENTITY_RENDER_FLAG: Wait while EventEntity->Render.Flags3 bit 2 is set (cancel turn if not)
  5: 0x00A3 [0x66] LOAD_EXT_SCHEDULER_MAIN: Load scheduler "sit0" with entities [EventEntity, EventEntity], work=49*
  6: 0x00B2 [0x53] WAIT_SCHEDULER_TASK: Wait for scheduler "sit0" with entities [EventEntity, EventEntity]
  7: 0x00BF [0x00] END_REQSTACK()
```

### Event 65535.13

#### Metadata

| Field        | Value    |
|--------------|----------|
| Entrypoint   | 0x00C0   |
| Data Size    | 53 bytes |
| Instructions | 9        |

```
      00 01 02 03 04 05 06 07  08 09 0A 0B 0C 0D 0E 0F
      -- -- -- -- -- -- -- --  -- -- -- -- -- -- -- --
00C0: 86 01 F8 FF FF 7F 1E 0F  22 03 01 7B F8 FF FF 7F  ........"..{....
00D0: 6F 70 66 17 80 F8 FF FF  7F F8 FF FF 7F 73 69 74  opf..........sit
00E0: 31 53 F8 FF FF 7F F8 FF  FF 7F 73 69 74 31 86 00  1S........sit1..
00F0: F8 FF FF 7F 00                                    .....           
```

#### Opcodes

```
  0: 0x00C0 [0x86] EventEntity->Render.Flags3 ^= 0x01
  1: 0x00C6 [0x1E] EventEntity looks at Mikilulu (ID: 16982543/0x0103220F) and starts talking
  2: 0x00CB [0x7B] EventEntity stops talking
  3: 0x00D0 [0x6F] WAIT_FRAME_DELAY: Yield until WaitTime reaches zero
  4: 0x00D1 [0x70] WAIT_ENTITY_RENDER_FLAG: Wait while EventEntity->Render.Flags3 bit 2 is set (cancel turn if not)
  5: 0x00D2 [0x66] LOAD_EXT_SCHEDULER_MAIN: Load scheduler "sit1" with entities [EventEntity, EventEntity], work=49*
  6: 0x00E1 [0x53] WAIT_SCHEDULER_TASK: Wait for scheduler "sit1" with entities [EventEntity, EventEntity]
  7: 0x00EE [0x86] EventEntity->Render.Flags3 = Flags3  // No change (flag=0)
  8: 0x00F4 [0x00] END_REQSTACK()
```

### Event 65535.14

#### Metadata

| Field        | Value    |
|--------------|----------|
| Entrypoint   | 0x00F5   |
| Data Size    | 27 bytes |
| Instructions | 5        |

```
      00 01 02 03 04 05 06 07  08 09 0A 0B 0C 0D 0E 0F
      -- -- -- -- -- -- -- --  -- -- -- -- -- -- -- --
00F0:                3B 0F 22  03 01 01 00 02 00 03 00       ;."........
0100: 32 04 80 31 00 01 00 02  00 03 00 18 80 31 01 00  2..1.........1..
```

#### Opcodes

```
  0: 0x00F5 [0x3B] GET_ENTITY_POSITION(entity=Mikilulu (ID: 16982543/0x0103220F), x_destination=ExtData[1]->WorkLocal[1], y_destination=ExtData[1]->WorkLocal[2], z_destination=ExtData[1]->WorkLocal[3])
  1: 0x0100 [0x32] ExtData[1]->MainSpeed = 11* * 0.1
  2: 0x0103 [0x31] UPDATE_ENTITY_POSITION: Set EventEntity goal position to X=ExtData[1]->WorkLocal[1], Z=ExtData[1]->WorkLocal[2], Y=ExtData[1]->WorkLocal[3], Time=5*
  3: 0x010D [0x31] UPDATE_ENTITY_POSITION: Move EventEntity towards goal position
  4: 0x010F [0x00] END_REQSTACK()
```

### Event 65535.15

#### Metadata

| Field        | Value    |
|--------------|----------|
| Entrypoint   | 0x0110   |
| Data Size    | 16 bytes |
| Instructions | 4        |

```
      00 01 02 03 04 05 06 07  08 09 0A 0B 0C 0D 0E 0F
      -- -- -- -- -- -- -- --  -- -- -- -- -- -- -- --
0110: 6E F8 FF FF 7F 19 80 99  F8 FF FF 7F 1C 1A 80 00  n...............
```

#### Opcodes

```
  0: 0x0110 [0x6E] EventEntity uses emote 33*
  1: 0x0117 [0x99] Wait for EventEntity animation to complete
  2: 0x011C [0x1C] WAIT(120* ticks)
  3: 0x011F [0x00] END_REQSTACK()
```

### Event 65535.16

#### Metadata

| Field        | Value    |
|--------------|----------|
| Entrypoint   | 0x0120   |
| Data Size    | 16 bytes |
| Instructions | 4        |

```
      00 01 02 03 04 05 06 07  08 09 0A 0B 0C 0D 0E 0F
      -- -- -- -- -- -- -- --  -- -- -- -- -- -- -- --
0120: 6E F8 FF FF 7F 1B 80 99  F8 FF FF 7F 1C 1A 80 00  n...............
```

#### Opcodes

```
  0: 0x0120 [0x6E] EventEntity uses emote 35*
  1: 0x0127 [0x99] Wait for EventEntity animation to complete
  2: 0x012C [0x1C] WAIT(120* ticks)
  3: 0x012F [0x00] END_REQSTACK()
```

### Event 65535.17

#### Metadata

| Field        | Value    |
|--------------|----------|
| Entrypoint   | 0x0130   |
| Data Size    | 16 bytes |
| Instructions | 4        |

```
      00 01 02 03 04 05 06 07  08 09 0A 0B 0C 0D 0E 0F
      -- -- -- -- -- -- -- --  -- -- -- -- -- -- -- --
0130: 6E F8 FF FF 7F 1C 80 99  F8 FF FF 7F 1C 1A 80 00  n...............
```

#### Opcodes

```
  0: 0x0130 [0x6E] EventEntity uses emote 1*
  1: 0x0137 [0x99] Wait for EventEntity animation to complete
  2: 0x013C [0x1C] WAIT(120* ticks)
  3: 0x013F [0x00] END_REQSTACK()
```

### Event 65535.18

#### Metadata

| Field        | Value    |
|--------------|----------|
| Entrypoint   | 0x0140   |
| Data Size    | 29 bytes |
| Instructions | 3        |

```
      00 01 02 03 04 05 06 07  08 09 0A 0B 0C 0D 0E 0F
      -- -- -- -- -- -- -- --  -- -- -- -- -- -- -- --
0140: 66 17 80 F8 FF FF 7F F8  FF FF 7F 73 68 61 30 53  f..........sha0S
0150: F8 FF FF 7F F8 FF FF 7F  73 68 61 30 00           ........sha0.   
```

#### Opcodes

```
  0: 0x0140 [0x66] LOAD_EXT_SCHEDULER_MAIN: Load scheduler "sha0" with entities [EventEntity, EventEntity], work=49*
  1: 0x014F [0x53] WAIT_SCHEDULER_TASK: Wait for scheduler "sha0" with entities [EventEntity, EventEntity]
  2: 0x015C [0x00] END_REQSTACK()
```

### Event 65535.19

#### Metadata

| Field        | Value    |
|--------------|----------|
| Entrypoint   | 0x015D   |
| Data Size    | 16 bytes |
| Instructions | 2        |

```
      00 01 02 03 04 05 06 07  08 09 0A 0B 0C 0D 0E 0F
      -- -- -- -- -- -- -- --  -- -- -- -- -- -- -- --
0150:                                         66 17 80               f..
0160: F8 FF FF 7F F8 FF FF 7F  73 68 61 31 00           ........sha1.   
```

#### Opcodes

```
  0: 0x015D [0x66] LOAD_EXT_SCHEDULER_MAIN: Load scheduler "sha1" with entities [EventEntity, EventEntity], work=49*
  1: 0x016C [0x00] END_REQSTACK()
```

### Event 65535.20

#### Metadata

| Field        | Value    |
|--------------|----------|
| Entrypoint   | 0x016D   |
| Data Size    | 13 bytes |
| Instructions | 3        |

```
      00 01 02 03 04 05 06 07  08 09 0A 0B 0C 0D 0E 0F
      -- -- -- -- -- -- -- --  -- -- -- -- -- -- -- --
0160:                                         6E F8 FF               n..
0170: FF 7F 1D 80 99 F8 FF FF  7F 00                    ..........      
```

#### Opcodes

```
  0: 0x016D [0x6E] EventEntity uses emote 10*
  1: 0x0174 [0x99] Wait for EventEntity animation to complete
  2: 0x0179 [0x00] END_REQSTACK()
```

### Event 65535.21

#### Metadata

| Field        | Value    |
|--------------|----------|
| Entrypoint   | 0x017A   |
| Data Size    | 27 bytes |
| Instructions | 3        |

```
      00 01 02 03 04 05 06 07  08 09 0A 0B 0C 0D 0E 0F
      -- -- -- -- -- -- -- --  -- -- -- -- -- -- -- --
0170:                                2C F8 FF FF 7F F8            ,.....
0180: FF FF 7F 73 73 6E 6A 53  F8 FF FF 7F F8 FF FF 7F  ...ssnjS........
0190: 73 73 6E 6A 00                                    ssnj.           
```

#### Opcodes

```
  0: 0x017A [0x2C] CREATE_SCHEDULER_TASK: Create scheduler "ssnj" with entities [EventEntity, EventEntity]
  1: 0x0187 [0x53] WAIT_SCHEDULER_TASK: Wait for scheduler "ssnj" with entities [EventEntity, EventEntity]
  2: 0x0194 [0x00] END_REQSTACK()
```

### Event 65535.22

#### Metadata

| Field        | Value    |
|--------------|----------|
| Entrypoint   | 0x0195   |
| Data Size    | 27 bytes |
| Instructions | 3        |

```
      00 01 02 03 04 05 06 07  08 09 0A 0B 0C 0D 0E 0F
      -- -- -- -- -- -- -- --  -- -- -- -- -- -- -- --
0190:                2C F8 FF  FF 7F F8 FF FF 7F 73 73       ,........ss
01A0: 62 6B 53 F8 FF FF 7F F8  FF FF 7F 73 73 62 6B 00  bkS........ssbk.
```

#### Opcodes

```
  0: 0x0195 [0x2C] CREATE_SCHEDULER_TASK: Create scheduler "ssbk" with entities [EventEntity, EventEntity]
  1: 0x01A2 [0x53] WAIT_SCHEDULER_TASK: Wait for scheduler "ssbk" with entities [EventEntity, EventEntity]
  2: 0x01AF [0x00] END_REQSTACK()
```

### Event 65535.23

#### Metadata

| Field        | Value    |
|--------------|----------|
| Entrypoint   | 0x01B0   |
| Data Size    | 27 bytes |
| Instructions | 3        |

```
      00 01 02 03 04 05 06 07  08 09 0A 0B 0C 0D 0E 0F
      -- -- -- -- -- -- -- --  -- -- -- -- -- -- -- --
01B0: 2C F8 FF FF 7F F8 FF FF  7F 73 73 62 6C 53 F8 FF  ,........ssblS..
01C0: FF 7F F8 FF FF 7F 73 73  62 6C 00                 ......ssbl.     
```

#### Opcodes

```
  0: 0x01B0 [0x2C] CREATE_SCHEDULER_TASK: Create scheduler "ssbl" with entities [EventEntity, EventEntity]
  1: 0x01BD [0x53] WAIT_SCHEDULER_TASK: Wait for scheduler "ssbl" with entities [EventEntity, EventEntity]
  2: 0x01CA [0x00] END_REQSTACK()
```

### Event 65535.24

#### Metadata

| Field        | Value    |
|--------------|----------|
| Entrypoint   | 0x01CB   |
| Data Size    | 13 bytes |
| Instructions | 3        |

```
      00 01 02 03 04 05 06 07  08 09 0A 0B 0C 0D 0E 0F
      -- -- -- -- -- -- -- --  -- -- -- -- -- -- -- --
01C0:                                   6E F8 FF FF 7F             n....
01D0: 1E 80 99 F8 FF FF 7F 00                           ........        
```

#### Opcodes

```
  0: 0x01CB [0x6E] EventEntity uses emote 24*
  1: 0x01D2 [0x99] Wait for EventEntity animation to complete
  2: 0x01D7 [0x00] END_REQSTACK()
```

### Event 65535.25

#### Metadata

| Field        | Value    |
|--------------|----------|
| Entrypoint   | 0x01D8   |
| Data Size    | 32 bytes |
| Instructions | 4        |

```
      00 01 02 03 04 05 06 07  08 09 0A 0B 0C 0D 0E 0F
      -- -- -- -- -- -- -- --  -- -- -- -- -- -- -- --
01D0:                          1C 0B 80 66 0F 80 F8 FF          ...f....
01E0: FF 7F F8 FF FF 7F 6D 6F  6A 30 53 F8 FF FF 7F F8  ......moj0S.....
01F0: FF FF 7F 6D 6F 6A 30 00                           ...moj0.        
```

#### Opcodes

```
  0: 0x01D8 [0x1C] WAIT(30* ticks)
  1: 0x01DB [0x66] LOAD_EXT_SCHEDULER_MAIN: Load scheduler "moj0" with entities [EventEntity, EventEntity], work=40*
  2: 0x01EA [0x53] WAIT_SCHEDULER_TASK: Wait for scheduler "moj0" with entities [EventEntity, EventEntity]
  3: 0x01F7 [0x00] END_REQSTACK()
```

### Event 65535.26

#### Metadata

| Field        | Value    |
|--------------|----------|
| Entrypoint   | 0x01F8   |
| Data Size    | 29 bytes |
| Instructions | 3        |

```
      00 01 02 03 04 05 06 07  08 09 0A 0B 0C 0D 0E 0F
      -- -- -- -- -- -- -- --  -- -- -- -- -- -- -- --
01F0:                          66 0F 80 F8 FF FF 7F F8          f.......
0200: FF FF 7F 6D 6F 6A 31 53  F8 FF FF 7F F8 FF FF 7F  ...moj1S........
0210: 6D 6F 6A 31 00                                    moj1.           
```

#### Opcodes

```
  0: 0x01F8 [0x66] LOAD_EXT_SCHEDULER_MAIN: Load scheduler "moj1" with entities [EventEntity, EventEntity], work=40*
  1: 0x0207 [0x53] WAIT_SCHEDULER_TASK: Wait for scheduler "moj1" with entities [EventEntity, EventEntity]
  2: 0x0214 [0x00] END_REQSTACK()
```

### Event 65535.27

#### Metadata

| Field        | Value    |
|--------------|----------|
| Entrypoint   | 0x0215   |
| Data Size    | 29 bytes |
| Instructions | 3        |

```
      00 01 02 03 04 05 06 07  08 09 0A 0B 0C 0D 0E 0F
      -- -- -- -- -- -- -- --  -- -- -- -- -- -- -- --
0210:                66 0F 80  F8 FF FF 7F F8 FF FF 7F       f..........
0220: 69 72 6F 30 53 F8 FF FF  7F F8 FF FF 7F 69 72 6F  iro0S........iro
0230: 30 00                                             0.              
```

#### Opcodes

```
  0: 0x0215 [0x66] LOAD_EXT_SCHEDULER_MAIN: Load scheduler "iro0" with entities [EventEntity, EventEntity], work=40*
  1: 0x0224 [0x53] WAIT_SCHEDULER_TASK: Wait for scheduler "iro0" with entities [EventEntity, EventEntity]
  2: 0x0231 [0x00] END_REQSTACK()
```

### Event 65535.28

#### Metadata

| Field        | Value    |
|--------------|----------|
| Entrypoint   | 0x0232   |
| Data Size    | 29 bytes |
| Instructions | 3        |

```
      00 01 02 03 04 05 06 07  08 09 0A 0B 0C 0D 0E 0F
      -- -- -- -- -- -- -- --  -- -- -- -- -- -- -- --
0230:       66 1F 80 F8 FF FF  7F F8 FF FF 7F 74 65 68    f..........teh
0240: 30 53 F8 FF FF 7F F8 FF  FF 7F 74 65 68 30 00     0S........teh0. 
```

#### Opcodes

```
  0: 0x0232 [0x66] LOAD_EXT_SCHEDULER_MAIN: Load scheduler "teh0" with entities [EventEntity, EventEntity], work=42*
  1: 0x0241 [0x53] WAIT_SCHEDULER_TASK: Wait for scheduler "teh0" with entities [EventEntity, EventEntity]
  2: 0x024E [0x00] END_REQSTACK()
```

### Event 65535.29

#### Metadata

| Field        | Value    |
|--------------|----------|
| Entrypoint   | 0x024F   |
| Data Size    | 29 bytes |
| Instructions | 3        |

```
      00 01 02 03 04 05 06 07  08 09 0A 0B 0C 0D 0E 0F
      -- -- -- -- -- -- -- --  -- -- -- -- -- -- -- --
0240:                                               66                 f
0250: 1F 80 F8 FF FF 7F F8 FF  FF 7F 74 65 68 31 53 F8  ..........teh1S.
0260: FF FF 7F F8 FF FF 7F 74  65 68 31 00              .......teh1.    
```

#### Opcodes

```
  0: 0x024F [0x66] LOAD_EXT_SCHEDULER_MAIN: Load scheduler "teh1" with entities [EventEntity, EventEntity], work=42*
  1: 0x025E [0x53] WAIT_SCHEDULER_TASK: Wait for scheduler "teh1" with entities [EventEntity, EventEntity]
  2: 0x026B [0x00] END_REQSTACK()
```

### Event 65535.30

#### Metadata

| Field        | Value    |
|--------------|----------|
| Entrypoint   | 0x026C   |
| Data Size    | 57 bytes |
| Instructions | 5        |

```
      00 01 02 03 04 05 06 07  08 09 0A 0B 0C 0D 0E 0F
      -- -- -- -- -- -- -- --  -- -- -- -- -- -- -- --
0260:                                      66 1F 80 F8              f...
0270: FF FF 7F F8 FF FF 7F 62  69 6B 30 53 F8 FF FF 7F  .......bik0S....
0280: F8 FF FF 7F 62 69 6B 30  66 1F 80 F8 FF FF 7F F8  ....bik0f.......
0290: FF FF 7F 62 69 6B 31 53  F8 FF FF 7F F8 FF FF 7F  ...bik1S........
02A0: 62 69 6B 31 00                                    bik1.           
```

#### Opcodes

```
  0: 0x026C [0x66] LOAD_EXT_SCHEDULER_MAIN: Load scheduler "bik0" with entities [EventEntity, EventEntity], work=42*
  1: 0x027B [0x53] WAIT_SCHEDULER_TASK: Wait for scheduler "bik0" with entities [EventEntity, EventEntity]
  2: 0x0288 [0x66] LOAD_EXT_SCHEDULER_MAIN: Load scheduler "bik1" with entities [EventEntity, EventEntity], work=42*
  3: 0x0297 [0x53] WAIT_SCHEDULER_TASK: Wait for scheduler "bik1" with entities [EventEntity, EventEntity]
  4: 0x02A4 [0x00] END_REQSTACK()
```

### Event 65535.31

#### Metadata

| Field        | Value    |
|--------------|----------|
| Entrypoint   | 0x02A5   |
| Data Size    | 29 bytes |
| Instructions | 3        |

```
      00 01 02 03 04 05 06 07  08 09 0A 0B 0C 0D 0E 0F
      -- -- -- -- -- -- -- --  -- -- -- -- -- -- -- --
02A0:                66 0F 80  F8 FF FF 7F F8 FF FF 7F       f..........
02B0: 73 79 75 30 53 F8 FF FF  7F F8 FF FF 7F 73 79 75  syu0S........syu
02C0: 30 00                                             0.              
```

#### Opcodes

```
  0: 0x02A5 [0x66] LOAD_EXT_SCHEDULER_MAIN: Load scheduler "syu0" with entities [EventEntity, EventEntity], work=40*
  1: 0x02B4 [0x53] WAIT_SCHEDULER_TASK: Wait for scheduler "syu0" with entities [EventEntity, EventEntity]
  2: 0x02C1 [0x00] END_REQSTACK()
```

### Event 65535.32

#### Metadata

| Field        | Value    |
|--------------|----------|
| Entrypoint   | 0x02C2   |
| Data Size    | 29 bytes |
| Instructions | 3        |

```
      00 01 02 03 04 05 06 07  08 09 0A 0B 0C 0D 0E 0F
      -- -- -- -- -- -- -- --  -- -- -- -- -- -- -- --
02C0:       66 0F 80 F8 FF FF  7F F8 FF FF 7F 77 61 76    f..........wav
02D0: 30 53 F8 FF FF 7F F8 FF  FF 7F 77 61 76 30 00     0S........wav0. 
```

#### Opcodes

```
  0: 0x02C2 [0x66] LOAD_EXT_SCHEDULER_MAIN: Load scheduler "wav0" with entities [EventEntity, EventEntity], work=40*
  1: 0x02D1 [0x53] WAIT_SCHEDULER_TASK: Wait for scheduler "wav0" with entities [EventEntity, EventEntity]
  2: 0x02DE [0x00] END_REQSTACK()
```

### Event 65535.33

#### Metadata

| Field        | Value    |
|--------------|----------|
| Entrypoint   | 0x02DF   |
| Data Size    | 16 bytes |
| Instructions | 4        |

```
      00 01 02 03 04 05 06 07  08 09 0A 0B 0C 0D 0E 0F
      -- -- -- -- -- -- -- --  -- -- -- -- -- -- -- --
02D0:                                               32                 2
02E0: 13 80 31 00 20 80 21 80  22 80 23 80 31 01 00     ..1. .!.".#.1.. 
```

#### Opcodes

```
  0: 0x02DF [0x32] ExtData[1]->MainSpeed = 13* * 0.1
  1: 0x02E2 [0x31] UPDATE_ENTITY_POSITION: Set EventEntity goal position to X=-123.367*, Z=-7.144*, Y=0.000*, Time=180*
  2: 0x02EC [0x31] UPDATE_ENTITY_POSITION: Move EventEntity towards goal position
  3: 0x02EE [0x00] END_REQSTACK()
```

### Event 65535.34

#### Metadata

| Field        | Value   |
|--------------|---------|
| Entrypoint   | 0x02EF  |
| Data Size    | 4 bytes |
| Instructions | 2       |

```
      00 01 02 03 04 05 06 07  08 09 0A 0B 0C 0D 0E 0F
      -- -- -- -- -- -- -- --  -- -- -- -- -- -- -- --
02E0:                                               95                 .
02F0: 1C 80 00                                          ...             
```

#### Opcodes

```
  0: 0x02EF [0x95] SETUP_EVENT_NPC: Prepare NPC for event (Render.Flags3 = 1*)
  1: 0x02F2 [0x00] END_REQSTACK()
```

### Event 65535.35

#### Metadata

| Field        | Value    |
|--------------|----------|
| Entrypoint   | 0x02F3   |
| Data Size    | 16 bytes |
| Instructions | 4        |

```
      00 01 02 03 04 05 06 07  08 09 0A 0B 0C 0D 0E 0F
      -- -- -- -- -- -- -- --  -- -- -- -- -- -- -- --
02F0:          32 0F 80 31 00  09 80 0A 80 02 80 12 80     2..1.........
0300: 31 01 00                                          1..             
```

#### Opcodes

```
  0: 0x02F3 [0x32] ExtData[1]->MainSpeed = 40* * 0.1
  1: 0x02F6 [0x31] UPDATE_ENTITY_POSITION: Set EventEntity goal position to X=-143.575*, Z=-5.227*, Y=1.999*, Time=15*
  2: 0x0300 [0x31] UPDATE_ENTITY_POSITION: Move EventEntity towards goal position
  3: 0x0302 [0x00] END_REQSTACK()
```

### Event 65535.36

#### Metadata

| Field        | Value   |
|--------------|---------|
| Entrypoint   | 0x0303  |
| Data Size    | 2 bytes |
| Instructions | 2       |

```
      00 01 02 03 04 05 06 07  08 09 0A 0B 0C 0D 0E 0F
      -- -- -- -- -- -- -- --  -- -- -- -- -- -- -- --
0300:          96 00                                       ..           
```

#### Opcodes

```
  0: 0x0303 [0x96] UNSET_EVENT_NPC: Restore NPC after event (removes event NPC status)
  1: 0x0304 [0x00] END_REQSTACK()
```

### Event 65535.37

#### Metadata

| Field        | Value   |
|--------------|---------|
| Entrypoint   | 0x0305  |
| Data Size    | 9 bytes |
| Instructions | 3       |

```
      00 01 02 03 04 05 06 07  08 09 0A 0B 0C 0D 0E 0F
      -- -- -- -- -- -- -- --  -- -- -- -- -- -- -- --
0300:                22 01 2F  01 F8 FF FF 7F 00             "./......  
```

#### Opcodes

```
  0: 0x0305 [0x22] ENTITY_HIDE_FLAG(enabled=0x01)
  1: 0x0307 [0x2F] EventEntity->Render.Flags0 |= 0x80000 // Bit 19
  2: 0x030D [0x00] END_REQSTACK()
```

### Event 890

#### Metadata

| Field        | Value   |
|--------------|---------|
| Entrypoint   | 0x030E  |
| Data Size    | 1 bytes |
| Instructions | 1       |

```
      00 01 02 03 04 05 06 07  08 09 0A 0B 0C 0D 0E 0F
      -- -- -- -- -- -- -- --  -- -- -- -- -- -- -- --
0300:                                            00                   . 
```

#### Opcodes

```
  0: 0x030E [0x00] END_REQSTACK()
```

### Event 65535.38

#### Metadata

| Field        | Value   |
|--------------|---------|
| Entrypoint   | 0x030F  |
| Data Size    | 8 bytes |
| Instructions | 2       |

```
      00 01 02 03 04 05 06 07  08 09 0A 0B 0C 0D 0E 0F
      -- -- -- -- -- -- -- --  -- -- -- -- -- -- -- --
0300:                                               36                 6
0310: 24 80 25 80 26 80 00                              $.%.&..         
```

#### Opcodes

```
  0: 0x030F [0x36] SET_ENTITY_EVENT_POSITION(pos_x=-54.934*, pos_z=-99.646*, pos_y=6.090*)
  1: 0x0316 [0x00] END_REQSTACK()
```

### Event 65535.39

#### Metadata

| Field        | Value   |
|--------------|---------|
| Entrypoint   | 0x0317  |
| Data Size    | 8 bytes |
| Instructions | 2       |

```
      00 01 02 03 04 05 06 07  08 09 0A 0B 0C 0D 0E 0F
      -- -- -- -- -- -- -- --  -- -- -- -- -- -- -- --
0310:                      36  27 80 28 80 26 80 00            6'.(.&.. 
```

#### Opcodes

```
  0: 0x0317 [0x36] SET_ENTITY_EVENT_POSITION(pos_x=-55.139*, pos_z=-98.589*, pos_y=6.090*)
  1: 0x031E [0x00] END_REQSTACK()
```

### Event 65535.40

#### Metadata

| Field        | Value   |
|--------------|---------|
| Entrypoint   | 0x031F  |
| Data Size    | 8 bytes |
| Instructions | 2       |

```
      00 01 02 03 04 05 06 07  08 09 0A 0B 0C 0D 0E 0F
      -- -- -- -- -- -- -- --  -- -- -- -- -- -- -- --
0310:                                               36                 6
0320: 29 80 2A 80 2B 80 00                              ).*.+..         
```

#### Opcodes

```
  0: 0x031F [0x36] SET_ENTITY_EVENT_POSITION(pos_x=-50.110*, pos_z=-98.877*, pos_y=5.976*)
  1: 0x0326 [0x00] END_REQSTACK()
```

### Event 65535.41

#### Metadata

| Field        | Value    |
|--------------|----------|
| Entrypoint   | 0x0327   |
| Data Size    | 10 bytes |
| Instructions | 2        |

```
      00 01 02 03 04 05 06 07  08 09 0A 0B 0C 0D 0E 0F
      -- -- -- -- -- -- -- --  -- -- -- -- -- -- -- --
0320:                      37  2C 80 2D 80 2E 80 2F 80         7,.-.../.
0330: 00                                                .               
```

#### Opcodes

```
  0: 0x0327 [0x37] UPDATE_EVENT_POSITION_AND_DIR: x=588.074*, z=179.304*, y=-18.032*, direction=204.2°*
  1: 0x0330 [0x00] END_REQSTACK()
```

### Event 65535.42

#### Metadata

| Field        | Value    |
|--------------|----------|
| Entrypoint   | 0x0331   |
| Data Size    | 16 bytes |
| Instructions | 4        |

```
      00 01 02 03 04 05 06 07  08 09 0A 0B 0C 0D 0E 0F
      -- -- -- -- -- -- -- --  -- -- -- -- -- -- -- --
0330:    6E F8 FF FF 7F 0E 80  99 F8 FF FF 7F 1C 0D 80   n..............
0340: 00                                                .               
```

#### Opcodes

```
  0: 0x0331 [0x6E] EventEntity uses emote 21*
  1: 0x0338 [0x99] Wait for EventEntity animation to complete
  2: 0x033D [0x1C] WAIT(60* ticks)
  3: 0x0340 [0x00] END_REQSTACK()
```

### Event 65535.43

#### Metadata

| Field        | Value    |
|--------------|----------|
| Entrypoint   | 0x0341   |
| Data Size    | 28 bytes |
| Instructions | 8        |

```
      00 01 02 03 04 05 06 07  08 09 0A 0B 0C 0D 0E 0F
      -- -- -- -- -- -- -- --  -- -- -- -- -- -- -- --
0340:    1C 30 80 32 0F 80 1F  00 31 80 32 80 33 80 1F   .0.2....1.2.3..
0350: 01 6F 1F 00 34 80 35 80  36 80 1F 01 00           .o..4.5.6....   
```

#### Opcodes

```
  0: 0x0341 [0x1C] WAIT(90* ticks)
  1: 0x0344 [0x32] ExtData[1]->MainSpeed = 40* * 0.1
  2: 0x0347 [0x1F] MOVE_ENTITY: EventEntity moves to X=582.730*, Z=180.705*, Y=-17.314*
  3: 0x034F [0x1F] MOVE_ENTITY: Update entity position (mode=1)
  4: 0x0351 [0x6F] WAIT_FRAME_DELAY: Yield until WaitTime reaches zero
  5: 0x0352 [0x1F] MOVE_ENTITY: EventEntity moves to X=579.493*, Z=200.132*, Y=-18.675*
  6: 0x035A [0x1F] MOVE_ENTITY: Update entity position (mode=1)
  7: 0x035C [0x00] END_REQSTACK()
```

### Event 65535.44

#### Metadata

| Field        | Value   |
|--------------|---------|
| Entrypoint   | 0x035D  |
| Data Size    | 8 bytes |
| Instructions | 2       |

```
      00 01 02 03 04 05 06 07  08 09 0A 0B 0C 0D 0E 0F
      -- -- -- -- -- -- -- --  -- -- -- -- -- -- -- --
0350:                                         36 37 80               67.
0360: 38 80 02 80 00                                    8....           
```

#### Opcodes

```
  0: 0x035D [0x36] SET_ENTITY_EVENT_POSITION(pos_x=-141.260*, pos_z=-7.758*, pos_y=1.999*)
  1: 0x0364 [0x00] END_REQSTACK()
```

### Event 65535.45

#### Metadata

| Field        | Value    |
|--------------|----------|
| Entrypoint   | 0x0365   |
| Data Size    | 29 bytes |
| Instructions | 3        |

```
      00 01 02 03 04 05 06 07  08 09 0A 0B 0C 0D 0E 0F
      -- -- -- -- -- -- -- --  -- -- -- -- -- -- -- --
0360:                66 0F 80  F8 FF FF 7F F8 FF FF 7F       f..........
0370: 69 72 6F 30 53 0E 22 03  01 0E 22 03 01 69 72 6F  iro0S."..."..iro
0380: 30 00                                             0.              
```

#### Opcodes

```
  0: 0x0365 [0x66] LOAD_EXT_SCHEDULER_MAIN: Load scheduler "iro0" with entities [EventEntity, EventEntity], work=40*
  1: 0x0374 [0x53] WAIT_SCHEDULER_TASK: Wait for scheduler "iro0" with entities [Salwa-Molwa (ID: 16982542/0x0103220E), Salwa-Molwa (ID: 16982542/0x0103220E)]
  2: 0x0381 [0x00] END_REQSTACK()
```

### Event 65535.46

#### Metadata

| Field        | Value    |
|--------------|----------|
| Entrypoint   | 0x0382   |
| Data Size    | 16 bytes |
| Instructions | 4        |

```
      00 01 02 03 04 05 06 07  08 09 0A 0B 0C 0D 0E 0F
      -- -- -- -- -- -- -- --  -- -- -- -- -- -- -- --
0380:       6E F8 FF FF 7F 04  80 99 F8 FF FF 7F 1C 1A    n.............
0390: 80 00                                             ..              
```

#### Opcodes

```
  0: 0x0382 [0x6E] EventEntity uses emote 11*
  1: 0x0389 [0x99] Wait for EventEntity animation to complete
  2: 0x038E [0x1C] WAIT(120* ticks)
  3: 0x0391 [0x00] END_REQSTACK()
```

### Event 65535.47

#### Metadata

| Field        | Value    |
|--------------|----------|
| Entrypoint   | 0x0392   |
| Data Size    | 16 bytes |
| Instructions | 4        |

```
      00 01 02 03 04 05 06 07  08 09 0A 0B 0C 0D 0E 0F
      -- -- -- -- -- -- -- --  -- -- -- -- -- -- -- --
0390:       6E F8 FF FF 7F 39  80 99 F8 FF FF 7F 1C 1A    n....9........
03A0: 80 00                                             ..              
```

#### Opcodes

```
  0: 0x0392 [0x6E] EventEntity uses emote 4*
  1: 0x0399 [0x99] Wait for EventEntity animation to complete
  2: 0x039E [0x1C] WAIT(120* ticks)
  3: 0x03A1 [0x00] END_REQSTACK()
```

### Event 65535.48

#### Metadata

| Field        | Value    |
|--------------|----------|
| Entrypoint   | 0x03A2   |
| Data Size    | 16 bytes |
| Instructions | 4        |

```
      00 01 02 03 04 05 06 07  08 09 0A 0B 0C 0D 0E 0F
      -- -- -- -- -- -- -- --  -- -- -- -- -- -- -- --
03A0:       6E F8 FF FF 7F 3A  80 99 F8 FF FF 7F 1C 30    n....:.......0
03B0: 80 00                                             ..              
```

#### Opcodes

```
  0: 0x03A2 [0x6E] EventEntity uses emote 258*
  1: 0x03A9 [0x99] Wait for EventEntity animation to complete
  2: 0x03AE [0x1C] WAIT(90* ticks)
  3: 0x03B1 [0x00] END_REQSTACK()
```

### Event 65535.49

#### Metadata

| Field        | Value    |
|--------------|----------|
| Entrypoint   | 0x03B2   |
| Data Size    | 16 bytes |
| Instructions | 4        |

```
      00 01 02 03 04 05 06 07  08 09 0A 0B 0C 0D 0E 0F
      -- -- -- -- -- -- -- --  -- -- -- -- -- -- -- --
03B0:       6E F8 FF FF 7F 0C  80 99 F8 FF FF 7F 1C 30    n............0
03C0: 80 00                                             ..              
```

#### Opcodes

```
  0: 0x03B2 [0x6E] EventEntity uses emote 16*
  1: 0x03B9 [0x99] Wait for EventEntity animation to complete
  2: 0x03BE [0x1C] WAIT(90* ticks)
  3: 0x03C1 [0x00] END_REQSTACK()
```

### Event 65535.50

#### Metadata

| Field        | Value   |
|--------------|---------|
| Entrypoint   | 0x03C2  |
| Data Size    | 6 bytes |
| Instructions | 2       |

```
      00 01 02 03 04 05 06 07  08 09 0A 0B 0C 0D 0E 0F
      -- -- -- -- -- -- -- --  -- -- -- -- -- -- -- --
03C0:       7B F8 FF FF 7F 00                             {.....        
```

#### Opcodes

```
  0: 0x03C2 [0x7B] EventEntity stops talking
  1: 0x03C7 [0x00] END_REQSTACK()
```

### Event 65535.51

#### Metadata

| Field        | Value   |
|--------------|---------|
| Entrypoint   | 0x03C8  |
| Data Size    | 1 bytes |
| Instructions | 1       |

```
      00 01 02 03 04 05 06 07  08 09 0A 0B 0C 0D 0E 0F
      -- -- -- -- -- -- -- --  -- -- -- -- -- -- -- --
03C0:                          00                               .       
```

#### Opcodes

```
  0: 0x03C8 [0x00] END_REQSTACK()
```

### Event 65535.52

#### Metadata

| Field        | Value    |
|--------------|----------|
| Entrypoint   | 0x03C9   |
| Data Size    | 19 bytes |
| Instructions | 5        |

```
      00 01 02 03 04 05 06 07  08 09 0A 0B 0C 0D 0E 0F
      -- -- -- -- -- -- -- --  -- -- -- -- -- -- -- --
03C0:                             1C 23 80 6E F8 FF FF           .#.n...
03D0: 7F 1C 80 99 F8 FF FF 7F  1C 1A 80 00              ............    
```

#### Opcodes

```
  0: 0x03C9 [0x1C] WAIT(180* ticks)
  1: 0x03CC [0x6E] EventEntity uses emote 1*
  2: 0x03D3 [0x99] Wait for EventEntity animation to complete
  3: 0x03D8 [0x1C] WAIT(120* ticks)
  4: 0x03DB [0x00] END_REQSTACK()
```

### Event 65535.53

#### Metadata

| Field        | Value    |
|--------------|----------|
| Entrypoint   | 0x03DC   |
| Data Size    | 54 bytes |
| Instructions | 12       |

```
      00 01 02 03 04 05 06 07  08 09 0A 0B 0C 0D 0E 0F
      -- -- -- -- -- -- -- --  -- -- -- -- -- -- -- --
03D0:                                      1E 0F 22 03              ..".
03E0: 01 7B F8 FF FF 7F 4A 0F  22 03 01 F8 FF FF 7F 7B  .{....J."......{
03F0: 0F 22 03 01 6F 70 6E F8  FF FF 7F 3B 80 99 F8 FF  ."..opn....;....
0400: FF 7F 6E 0F 22 03 01 3B  80 99 0F 22 03 01 1C 1A  ..n."..;..."....
0410: 80 00                                             ..              
```

#### Opcodes

```
  0: 0x03DC [0x1E] EventEntity looks at Mikilulu (ID: 16982543/0x0103220F) and starts talking
  1: 0x03E1 [0x7B] EventEntity stops talking
  2: 0x03E6 [0x4A] Mikilulu (ID: 16982543/0x0103220F) looks at EventEntity
  3: 0x03EF [0x7B] Mikilulu (ID: 16982543/0x0103220F) stops talking
  4: 0x03F4 [0x6F] WAIT_FRAME_DELAY: Yield until WaitTime reaches zero
  5: 0x03F5 [0x70] WAIT_ENTITY_RENDER_FLAG: Wait while EventEntity->Render.Flags3 bit 2 is set (cancel turn if not)
  6: 0x03F6 [0x6E] EventEntity uses emote 7*
  7: 0x03FD [0x99] Wait for EventEntity animation to complete
  8: 0x0402 [0x6E] Mikilulu (ID: 16982543/0x0103220F) uses emote 7*
  9: 0x0409 [0x99] Wait for Mikilulu (ID: 16982543/0x0103220F) animation to complete
 10: 0x040E [0x1C] WAIT(120* ticks)
 11: 0x0411 [0x00] END_REQSTACK()
```

### Event 65535.54

#### Metadata

| Field        | Value    |
|--------------|----------|
| Entrypoint   | 0x0412   |
| Data Size    | 23 bytes |
| Instructions | 7        |

```
      00 01 02 03 04 05 06 07  08 09 0A 0B 0C 0D 0E 0F
      -- -- -- -- -- -- -- --  -- -- -- -- -- -- -- --
0410:       1E F0 FF FF 7F 6F  70 6E F8 FF FF 7F 3C 80    .....opn....<.
0420: 99 F8 FF FF 7F 1C 1A 80  00                       .........       
```

#### Opcodes

```
  0: 0x0412 [0x1E] EventEntity looks at LocalPlayer and starts talking
  1: 0x0417 [0x6F] WAIT_FRAME_DELAY: Yield until WaitTime reaches zero
  2: 0x0418 [0x70] WAIT_ENTITY_RENDER_FLAG: Wait while EventEntity->Render.Flags3 bit 2 is set (cancel turn if not)
  3: 0x0419 [0x6E] EventEntity uses emote 9*
  4: 0x0420 [0x99] Wait for EventEntity animation to complete
  5: 0x0425 [0x1C] WAIT(120* ticks)
  6: 0x0428 [0x00] END_REQSTACK()
```

### Event 65535.55

#### Metadata

| Field        | Value    |
|--------------|----------|
| Entrypoint   | 0x0429   |
| Data Size    | 14 bytes |
| Instructions | 4        |

```
      00 01 02 03 04 05 06 07  08 09 0A 0B 0C 0D 0E 0F
      -- -- -- -- -- -- -- --  -- -- -- -- -- -- -- --
0420:                             32 13 80 1F 00 3D 80           2....=.
0430: 3E 80 22 80 1F 01 00                              >."....         
```

#### Opcodes

```
  0: 0x0429 [0x32] ExtData[1]->MainSpeed = 13* * 0.1
  1: 0x042C [0x1F] MOVE_ENTITY: EventEntity moves to X=-123.040*, Z=-7.611*, Y=0.000*
  2: 0x0434 [0x1F] MOVE_ENTITY: Update entity position (mode=1)
  3: 0x0436 [0x00] END_REQSTACK()
```

### Event 65535.56

#### Metadata

| Field        | Value    |
|--------------|----------|
| Entrypoint   | 0x0437   |
| Data Size    | 32 bytes |
| Instructions | 4        |

```
      00 01 02 03 04 05 06 07  08 09 0A 0B 0C 0D 0E 0F
      -- -- -- -- -- -- -- --  -- -- -- -- -- -- -- --
0430:                      1C  1D 80 66 17 80 F8 FF FF         ...f.....
0440: 7F F8 FF FF 7F 73 68 61  30 53 F8 FF FF 7F F8 FF  .....sha0S......
0450: FF 7F 73 68 61 30 00                              ..sha0.         
```

#### Opcodes

```
  0: 0x0437 [0x1C] WAIT(10* ticks)
  1: 0x043A [0x66] LOAD_EXT_SCHEDULER_MAIN: Load scheduler "sha0" with entities [EventEntity, EventEntity], work=49*
  2: 0x0449 [0x53] WAIT_SCHEDULER_TASK: Wait for scheduler "sha0" with entities [EventEntity, EventEntity]
  3: 0x0456 [0x00] END_REQSTACK()
```

### Event 65535.57

#### Metadata

| Field        | Value    |
|--------------|----------|
| Entrypoint   | 0x0457   |
| Data Size    | 29 bytes |
| Instructions | 3        |

```
      00 01 02 03 04 05 06 07  08 09 0A 0B 0C 0D 0E 0F
      -- -- -- -- -- -- -- --  -- -- -- -- -- -- -- --
0450:                      66  17 80 F8 FF FF 7F F8 FF         f........
0460: FF 7F 73 68 61 31 53 F8  FF FF 7F F8 FF FF 7F 73  ..sha1S........s
0470: 68 61 31 00                                       ha1.            
```

#### Opcodes

```
  0: 0x0457 [0x66] LOAD_EXT_SCHEDULER_MAIN: Load scheduler "sha1" with entities [EventEntity, EventEntity], work=49*
  1: 0x0466 [0x53] WAIT_SCHEDULER_TASK: Wait for scheduler "sha1" with entities [EventEntity, EventEntity]
  2: 0x0473 [0x00] END_REQSTACK()
```

### Event 65535.58

#### Metadata

| Field        | Value    |
|--------------|----------|
| Entrypoint   | 0x0474   |
| Data Size    | 16 bytes |
| Instructions | 4        |

```
      00 01 02 03 04 05 06 07  08 09 0A 0B 0C 0D 0E 0F
      -- -- -- -- -- -- -- --  -- -- -- -- -- -- -- --
0470:             6E F8 FF FF  7F 3F 80 99 F8 FF FF 7F      n....?......
0480: 1C 0D 80 00                                       ....            
```

#### Opcodes

```
  0: 0x0474 [0x6E] EventEntity uses emote 6*
  1: 0x047B [0x99] Wait for EventEntity animation to complete
  2: 0x0480 [0x1C] WAIT(60* ticks)
  3: 0x0483 [0x00] END_REQSTACK()
```

### Event 65535.59

#### Metadata

| Field        | Value    |
|--------------|----------|
| Entrypoint   | 0x0484   |
| Data Size    | 27 bytes |
| Instructions | 5        |

```
      00 01 02 03 04 05 06 07  08 09 0A 0B 0C 0D 0E 0F
      -- -- -- -- -- -- -- --  -- -- -- -- -- -- -- --
0480:             3B 0F 22 03  01 01 00 02 00 03 00 32      ;."........2
0490: 0F 80 31 00 01 00 02 00  03 00 30 80 31 01 00     ..1.......0.1.. 
```

#### Opcodes

```
  0: 0x0484 [0x3B] GET_ENTITY_POSITION(entity=Mikilulu (ID: 16982543/0x0103220F), x_destination=ExtData[1]->WorkLocal[1], y_destination=ExtData[1]->WorkLocal[2], z_destination=ExtData[1]->WorkLocal[3])
  1: 0x048F [0x32] ExtData[1]->MainSpeed = 40* * 0.1
  2: 0x0492 [0x31] UPDATE_ENTITY_POSITION: Set EventEntity goal position to X=ExtData[1]->WorkLocal[1], Z=ExtData[1]->WorkLocal[2], Y=ExtData[1]->WorkLocal[3], Time=90*
  3: 0x049C [0x31] UPDATE_ENTITY_POSITION: Move EventEntity towards goal position
  4: 0x049E [0x00] END_REQSTACK()
```

### Event 65535.60

#### Metadata

| Field        | Value    |
|--------------|----------|
| Entrypoint   | 0x049F   |
| Data Size    | 25 bytes |
| Instructions | 7        |

```
      00 01 02 03 04 05 06 07  08 09 0A 0B 0C 0D 0E 0F
      -- -- -- -- -- -- -- --  -- -- -- -- -- -- -- --
0490:                                               32                 2
04A0: 0F 80 1F 00 27 80 28 80  26 80 1F 01 6F 1E 0F 22  ....'.(.&...o.."
04B0: 03 01 7B F8 FF FF 7F 00                           ..{.....        
```

#### Opcodes

```
  0: 0x049F [0x32] ExtData[1]->MainSpeed = 40* * 0.1
  1: 0x04A2 [0x1F] MOVE_ENTITY: EventEntity moves to X=-55.139*, Z=-98.589*, Y=6.090*
  2: 0x04AA [0x1F] MOVE_ENTITY: Update entity position (mode=1)
  3: 0x04AC [0x6F] WAIT_FRAME_DELAY: Yield until WaitTime reaches zero
  4: 0x04AD [0x1E] EventEntity looks at Mikilulu (ID: 16982543/0x0103220F) and starts talking
  5: 0x04B2 [0x7B] EventEntity stops talking
  6: 0x04B7 [0x00] END_REQSTACK()
```
