# 16982469 - Macici

## Common Data

| Field            | Value                         |
|------------------|-------------------------------|
| Zone             | Aht Urhgan Whitegate (ID: 50) |
| Block Size       | 136 bytes                     |
| Total Events     | 5                             |
| References Count | 9                             |

## List of Events

| Event ID                  | Entrypoint   |   Size |   Instructions |
|---------------------------|--------------|--------|----------------|
| [65535](#event-65535)     | 0x0000       |      1 |              1 |
| [5063](#event-5063)       | 0x0001       |      1 |              1 |
| [65535.1](#event-65535-1) | 0x0002       |     25 |              6 |
| [65535.2](#event-65535-2) | 0x001B       |     20 |              6 |
| [65535.3](#event-65535-3) | 0x002F       |     15 |              5 |

## DAT References (imed_data)

|   Index | Hex Value   |   Dec Value |
|---------|-------------|-------------|
|       0 | 0x000B      |          11 |
|       1 | 0x15C52     |       89170 |
|       2 | 0xFFFED717  |  4294891287 |
|       3 | 0x0000      |           0 |
|       4 | 0x000D      |          13 |
|       5 | 0x15109     |       86281 |
|       6 | 0xFFFEDA94  |  4294892180 |
|       7 | 0x16429     |       91177 |
|       8 | 0xFFFEC977  |  4294887799 |

## Events

### Event 65535

#### Metadata

| Field        | Value   |
|--------------|---------|
| Entrypoint   | 0x0000  |
| Data Size    | 1 bytes |
| Instructions | 1       |

```
      00 01 02 03 04 05 06 07  08 09 0A 0B 0C 0D 0E 0F
      -- -- -- -- -- -- -- --  -- -- -- -- -- -- -- --
0000: 00                                                .               
```

#### Opcodes

```
  0: 0x0000 [0x00] END_REQSTACK()
```

### Event 5063

#### Metadata

| Field        | Value   |
|--------------|---------|
| Entrypoint   | 0x0001  |
| Data Size    | 1 bytes |
| Instructions | 1       |

```
      00 01 02 03 04 05 06 07  08 09 0A 0B 0C 0D 0E 0F
      -- -- -- -- -- -- -- --  -- -- -- -- -- -- -- --
0000:    00                                              .              
```

#### Opcodes

```
  0: 0x0001 [0x00] END_REQSTACK()
```

### Event 65535.1

#### Metadata

| Field        | Value    |
|--------------|----------|
| Entrypoint   | 0x0002   |
| Data Size    | 25 bytes |
| Instructions | 6        |

```
      00 01 02 03 04 05 06 07  08 09 0A 0B 0C 0D 0E 0F
      -- -- -- -- -- -- -- --  -- -- -- -- -- -- -- --
0000:       32 00 80 1F 00 01  80 02 80 03 80 1F 01 6F    2............o
0010: 79 00 F8 FF FF 7F F0 FF  FF 7F 00                 y..........     
```

#### Opcodes

```
  0: 0x0002 [0x32] ExtData[1]->MainSpeed = 11* * 0.1
  1: 0x0005 [0x1F] MOVE_ENTITY: EventEntity moves to X=89.170*, Z=-76.009*, Y=0.000*
  2: 0x000D [0x1F] MOVE_ENTITY: Update entity position (mode=1)
  3: 0x000F [0x6F] WAIT_FRAME_DELAY: Yield until WaitTime reaches zero
  4: 0x0010 [0x79] EventEntity looks at LocalPlayer (Basic look)
  5: 0x001A [0x00] END_REQSTACK()
```

### Event 65535.2

#### Metadata

| Field        | Value    |
|--------------|----------|
| Entrypoint   | 0x001B   |
| Data Size    | 20 bytes |
| Instructions | 6        |

```
      00 01 02 03 04 05 06 07  08 09 0A 0B 0C 0D 0E 0F
      -- -- -- -- -- -- -- --  -- -- -- -- -- -- -- --
0010:                                   32 04 80 1F 00             2....
0020: 05 80 06 80 03 80 1F 01  6F 1E 50 20 03 01 00     ........o.P ... 
```

#### Opcodes

```
  0: 0x001B [0x32] ExtData[1]->MainSpeed = 13* * 0.1
  1: 0x001E [0x1F] MOVE_ENTITY: EventEntity moves to X=86.281*, Z=-75.116*, Y=0.000*
  2: 0x0026 [0x1F] MOVE_ENTITY: Update entity position (mode=1)
  3: 0x0028 [0x6F] WAIT_FRAME_DELAY: Yield until WaitTime reaches zero
  4: 0x0029 [0x1E] EventEntity looks at Hagakoff (ID: 16982096/0x01032050) and starts talking
  5: 0x002E [0x00] END_REQSTACK()
```

### Event 65535.3

#### Metadata

| Field        | Value    |
|--------------|----------|
| Entrypoint   | 0x002F   |
| Data Size    | 15 bytes |
| Instructions | 5        |

```
      00 01 02 03 04 05 06 07  08 09 0A 0B 0C 0D 0E 0F
      -- -- -- -- -- -- -- --  -- -- -- -- -- -- -- --
0020:                                               32                 2
0030: 04 80 1F 00 07 80 08 80  03 80 1F 01 6F 00        ............o.  
```

#### Opcodes

```
  0: 0x002F [0x32] ExtData[1]->MainSpeed = 13* * 0.1
  1: 0x0032 [0x1F] MOVE_ENTITY: EventEntity moves to X=91.177*, Z=-79.497*, Y=0.000*
  2: 0x003A [0x1F] MOVE_ENTITY: Update entity position (mode=1)
  3: 0x003C [0x6F] WAIT_FRAME_DELAY: Yield until WaitTime reaches zero
  4: 0x003D [0x00] END_REQSTACK()
```
