# 16982395 - Wasuhd

## Common Data

| Field            | Value                         |
|------------------|-------------------------------|
| Zone             | Aht Urhgan Whitegate (ID: 50) |
| Block Size       | 656 bytes                     |
| Total Events     | 23                            |
| References Count | 54                            |

## List of Events

| Event ID                    | Entrypoint   |   Size |   Instructions |
|-----------------------------|--------------|--------|----------------|
| [65535](#event-65535)       | 0x0000       |      1 |              1 |
| [547](#event-547)           | 0x0001       |      1 |              1 |
| [65535.1](#event-65535-1)   | 0x0002       |     19 |              3 |
| [65535.2](#event-65535-2)   | 0x0015       |     14 |              4 |
| [548](#event-548)           | 0x0023       |      1 |              1 |
| [65535.3](#event-65535-3)   | 0x0024       |     19 |              3 |
| [65535.4](#event-65535-4)   | 0x0037       |     14 |              4 |
| [65535.5](#event-65535-5)   | 0x0045       |     26 |              6 |
| [65535.6](#event-65535-6)   | 0x005F       |     29 |              3 |
| [65535.7](#event-65535-7)   | 0x007C       |     10 |              2 |
| [552](#event-552)           | 0x0086       |      1 |              1 |
| [65535.8](#event-65535-8)   | 0x0087       |     10 |              2 |
| [65535.9](#event-65535-9)   | 0x0091       |     53 |             13 |
| [772](#event-772)           | 0x00C6       |      1 |              1 |
| [65535.10](#event-65535-10) | 0x00C7       |     10 |              2 |
| [65535.11](#event-65535-11) | 0x00D1       |     28 |              6 |
| [65535.12](#event-65535-12) | 0x00ED       |     14 |              4 |
| [65535.13](#event-65535-13) | 0x00FB       |     38 |              4 |
| [797](#event-797)           | 0x0121       |      1 |              1 |
| [798](#event-798)           | 0x0122       |      1 |              1 |
| [65535.14](#event-65535-14) | 0x0123       |     10 |              2 |
| [65535.15](#event-65535-15) | 0x012D       |     15 |              3 |
| [65535.16](#event-65535-16) | 0x013C       |     15 |              3 |

## DAT References (imed_data)

|   Index | Hex Value   |   Dec Value |
|---------|-------------|-------------|
|       0 | 0x122C9     |       74441 |
|       1 | 0xFFFDEF29  |  4294831913 |
|       2 | 0xFFFFE890  |  4294961296 |
|       3 | 0x05D8      |        1496 |
|       4 | 0x0028      |          40 |
|       5 | 0x1323C     |       78396 |
|       6 | 0xFFFE082C  |  4294838316 |
|       7 | 0xFFFFE891  |  4294961297 |
|       8 | 0x24897     |      149655 |
|       9 | 0xFFFFF6E4  |  4294964964 |
|      10 | 0xFFFFF830  |  4294965296 |
|      11 | 0x0FF6      |        4086 |
|      12 | 0x240A0     |      147616 |
|      13 | 0xFFFFE498  |  4294960280 |
|      14 | 0x227A0     |      141216 |
|      15 | 0xFFFFDFD8  |  4294959064 |
|      16 | 0xFFFFF831  |  4294965297 |
|      17 | 0x0FCC      |        4044 |
|      18 | 0x005A      |          90 |
|      19 | 0x23C86     |      146566 |
|      20 | 0xFFFFE6FD  |  4294960893 |
|      21 | 0x004D      |          77 |
|      22 | 0x09A9      |        2473 |
|      23 | 0x114E7     |       70887 |
|      24 | 0xFFFE06B6  |  4294837942 |
|      25 | 0x0C00      |        3072 |
|      26 | 0x12012     |       73746 |
|      27 | 0xFFFDF0A0  |  4294832288 |
|      28 | 0x003C      |          60 |
|      29 | 0x1117D     |       70013 |
|      30 | 0xFFFE0A44  |  4294838852 |
|      31 | 0xFFFFE69D  |  4294960797 |
|      32 | 0x0078      |         120 |
|      33 | 0x1202D     |       73773 |
|      34 | 0xFFFDE83D  |  4294830141 |
|      35 | 0x0096      |         150 |
|      36 | 0x12D89     |       77193 |
|      37 | 0xFFFDE558  |  4294829400 |
|      38 | 0x043F      |        1087 |
|      39 | 0x12E78     |       77432 |
|      40 | 0xFFFDECC8  |  4294831304 |
|      41 | 0x1219A     |       74138 |
|      42 | 0xFFFDEE3D  |  4294831677 |
|      43 | 0x102D5     |       66261 |
|      44 | 0xFFFDEC9A  |  4294831258 |
|      45 | 0x0C80      |        3200 |
|      46 | 0x12D29     |       77097 |
|      47 | 0xFFFE1CAF  |  4294843567 |
|      48 | 0x0740      |        1856 |
|      49 | 0x1307F     |       77951 |
|      50 | 0xFFFE1ACA  |  4294843082 |
|      51 | 0x060E      |        1550 |
|      52 | 0x11FCE     |       73678 |
|      53 | 0xFFFDF673  |  4294833779 |

## Events

### Event 65535

#### Metadata

| Field        | Value   |
|--------------|---------|
| Entrypoint   | 0x0000  |
| Data Size    | 1 bytes |
| Instructions | 1       |

```
      00 01 02 03 04 05 06 07  08 09 0A 0B 0C 0D 0E 0F
      -- -- -- -- -- -- -- --  -- -- -- -- -- -- -- --
0000: 00                                                .               
```

#### Opcodes

```
  0: 0x0000 [0x00] END_REQSTACK()
```

### Event 547

#### Metadata

| Field        | Value   |
|--------------|---------|
| Entrypoint   | 0x0001  |
| Data Size    | 1 bytes |
| Instructions | 1       |

```
      00 01 02 03 04 05 06 07  08 09 0A 0B 0C 0D 0E 0F
      -- -- -- -- -- -- -- --  -- -- -- -- -- -- -- --
0000:    00                                              .              
```

#### Opcodes

```
  0: 0x0001 [0x00] END_REQSTACK()
```

### Event 65535.1

#### Metadata

| Field        | Value    |
|--------------|----------|
| Entrypoint   | 0x0002   |
| Data Size    | 19 bytes |
| Instructions | 3        |

```
      00 01 02 03 04 05 06 07  08 09 0A 0B 0C 0D 0E 0F
      -- -- -- -- -- -- -- --  -- -- -- -- -- -- -- --
0000:       37 00 80 01 80 02  80 03 80 4A 7B 21 03 01    7........J{!..
0010: 7C 21 03 01 00                                    |!...           
```

#### Opcodes

```
  0: 0x0002 [0x37] UPDATE_EVENT_POSITION_AND_DIR: x=74.441*, z=-135.383*, y=-6.000*, direction=131.5°*
  1: 0x000B [0x4A] Wasuhd (ID: 16982395/0x0103217B) looks at Ratihb (ID: 16982396/0x0103217C)
  2: 0x0014 [0x00] END_REQSTACK()
```

### Event 65535.2

#### Metadata

| Field        | Value    |
|--------------|----------|
| Entrypoint   | 0x0015   |
| Data Size    | 14 bytes |
| Instructions | 4        |

```
      00 01 02 03 04 05 06 07  08 09 0A 0B 0C 0D 0E 0F
      -- -- -- -- -- -- -- --  -- -- -- -- -- -- -- --
0010:                32 04 80  1F 00 05 80 06 80 07 80       2..........
0020: 1F 01 00                                          ...             
```

#### Opcodes

```
  0: 0x0015 [0x32] ExtData[1]->MainSpeed = 40* * 0.1
  1: 0x0018 [0x1F] MOVE_ENTITY: EventEntity moves to X=78.396*, Z=-128.980*, Y=-5.999*
  2: 0x0020 [0x1F] MOVE_ENTITY: Update entity position (mode=1)
  3: 0x0022 [0x00] END_REQSTACK()
```

### Event 548

#### Metadata

| Field        | Value   |
|--------------|---------|
| Entrypoint   | 0x0023  |
| Data Size    | 1 bytes |
| Instructions | 1       |

```
      00 01 02 03 04 05 06 07  08 09 0A 0B 0C 0D 0E 0F
      -- -- -- -- -- -- -- --  -- -- -- -- -- -- -- --
0020:          00                                          .            
```

#### Opcodes

```
  0: 0x0023 [0x00] END_REQSTACK()
```

### Event 65535.3

#### Metadata

| Field        | Value    |
|--------------|----------|
| Entrypoint   | 0x0024   |
| Data Size    | 19 bytes |
| Instructions | 3        |

```
      00 01 02 03 04 05 06 07  08 09 0A 0B 0C 0D 0E 0F
      -- -- -- -- -- -- -- --  -- -- -- -- -- -- -- --
0020:             37 08 80 09  80 0A 80 0B 80 4A 7B 21      7........J{!
0030: 03 01 80 21 03 01 00                              ...!...         
```

#### Opcodes

```
  0: 0x0024 [0x37] UPDATE_EVENT_POSITION_AND_DIR: x=149.655*, z=-2.332*, y=-2.000*, direction=359.1°*
  1: 0x002D [0x4A] Wasuhd (ID: 16982395/0x0103217B) looks at Mafwahb (ID: 16982400/0x01032180)
  2: 0x0036 [0x00] END_REQSTACK()
```

### Event 65535.4

#### Metadata

| Field        | Value    |
|--------------|----------|
| Entrypoint   | 0x0037   |
| Data Size    | 14 bytes |
| Instructions | 4        |

```
      00 01 02 03 04 05 06 07  08 09 0A 0B 0C 0D 0E 0F
      -- -- -- -- -- -- -- --  -- -- -- -- -- -- -- --
0030:                      32  04 80 1F 00 0C 80 0D 80         2........
0040: 0A 80 1F 01 00                                    .....           
```

#### Opcodes

```
  0: 0x0037 [0x32] ExtData[1]->MainSpeed = 40* * 0.1
  1: 0x003A [0x1F] MOVE_ENTITY: EventEntity moves to X=147.616*, Z=-7.016*, Y=-2.000*
  2: 0x0042 [0x1F] MOVE_ENTITY: Update entity position (mode=1)
  3: 0x0044 [0x00] END_REQSTACK()
```

### Event 65535.5

#### Metadata

| Field        | Value    |
|--------------|----------|
| Entrypoint   | 0x0045   |
| Data Size    | 26 bytes |
| Instructions | 6        |

```
      00 01 02 03 04 05 06 07  08 09 0A 0B 0C 0D 0E 0F
      -- -- -- -- -- -- -- --  -- -- -- -- -- -- -- --
0040:                37 0E 80  0F 80 10 80 11 80 1C 12       7..........
0050: 80 32 04 80 1F 00 13 80  14 80 0A 80 1F 01 00     .2............. 
```

#### Opcodes

```
  0: 0x0045 [0x37] UPDATE_EVENT_POSITION_AND_DIR: x=141.216*, z=-8.232*, y=-1.999*, direction=355.4°*
  1: 0x004E [0x1C] WAIT(90* ticks)
  2: 0x0051 [0x32] ExtData[1]->MainSpeed = 40* * 0.1
  3: 0x0054 [0x1F] MOVE_ENTITY: EventEntity moves to X=146.566*, Z=-6.403*, Y=-2.000*
  4: 0x005C [0x1F] MOVE_ENTITY: Update entity position (mode=1)
  5: 0x005E [0x00] END_REQSTACK()
```

### Event 65535.6

#### Metadata

| Field        | Value    |
|--------------|----------|
| Entrypoint   | 0x005F   |
| Data Size    | 29 bytes |
| Instructions | 3        |

```
      00 01 02 03 04 05 06 07  08 09 0A 0B 0C 0D 0E 0F
      -- -- -- -- -- -- -- --  -- -- -- -- -- -- -- --
0050:                                               5B                 [
0060: 15 80 7B 21 03 01 7B 21  03 01 6B 61 6E 30 53 7B  ..{!..{!..kan0S{
0070: 21 03 01 7B 21 03 01 6B  61 6E 30 00              !..{!..kan0.    
```

#### Opcodes

```
  0: 0x005F [0x5B] LOAD_EXT_SCHEDULER: Load scheduler "kan0" with entities [Wasuhd (ID: 16982395/0x0103217B), Wasuhd (ID: 16982395/0x0103217B)], work=77*
  1: 0x006E [0x53] WAIT_SCHEDULER_TASK: Wait for scheduler "kan0" with entities [Wasuhd (ID: 16982395/0x0103217B), Wasuhd (ID: 16982395/0x0103217B)]
  2: 0x007B [0x00] END_REQSTACK()
```

### Event 65535.7

#### Metadata

| Field        | Value    |
|--------------|----------|
| Entrypoint   | 0x007C   |
| Data Size    | 10 bytes |
| Instructions | 2        |

```
      00 01 02 03 04 05 06 07  08 09 0A 0B 0C 0D 0E 0F
      -- -- -- -- -- -- -- --  -- -- -- -- -- -- -- --
0070:                                      37 13 80 14              7...
0080: 80 0A 80 16 80 00                                 ......          
```

#### Opcodes

```
  0: 0x007C [0x37] UPDATE_EVENT_POSITION_AND_DIR: x=146.566*, z=-6.403*, y=-2.000*, direction=217.3°*
  1: 0x0085 [0x00] END_REQSTACK()
```

### Event 552

#### Metadata

| Field        | Value   |
|--------------|---------|
| Entrypoint   | 0x0086  |
| Data Size    | 1 bytes |
| Instructions | 1       |

```
      00 01 02 03 04 05 06 07  08 09 0A 0B 0C 0D 0E 0F
      -- -- -- -- -- -- -- --  -- -- -- -- -- -- -- --
0080:                   00                                    .         
```

#### Opcodes

```
  0: 0x0086 [0x00] END_REQSTACK()
```

### Event 65535.8

#### Metadata

| Field        | Value    |
|--------------|----------|
| Entrypoint   | 0x0087   |
| Data Size    | 10 bytes |
| Instructions | 2        |

```
      00 01 02 03 04 05 06 07  08 09 0A 0B 0C 0D 0E 0F
      -- -- -- -- -- -- -- --  -- -- -- -- -- -- -- --
0080:                      37  17 80 18 80 02 80 19 80         7........
0090: 00                                                .               
```

#### Opcodes

```
  0: 0x0087 [0x37] UPDATE_EVENT_POSITION_AND_DIR: x=70.887*, z=-129.354*, y=-6.000*, direction=270.0°*
  1: 0x0090 [0x00] END_REQSTACK()
```

### Event 65535.9

#### Metadata

| Field        | Value    |
|--------------|----------|
| Entrypoint   | 0x0091   |
| Data Size    | 53 bytes |
| Instructions | 13       |

```
      00 01 02 03 04 05 06 07  08 09 0A 0B 0C 0D 0E 0F
      -- -- -- -- -- -- -- --  -- -- -- -- -- -- -- --
0090:    32 04 80 1F 00 1A 80  1B 80 02 80 1F 01 1C 1C   2..............
00A0: 80 1F 00 1D 80 1E 80 1F  80 1F 01 1C 20 80 1F 00  ............ ...
00B0: 21 80 22 80 02 80 1F 01  1C 23 80 1F 00 1D 80 1E  !."......#......
00C0: 80 1F 80 1F 01 00                                 ......          
```

#### Opcodes

```
  0: 0x0091 [0x32] ExtData[1]->MainSpeed = 40* * 0.1
  1: 0x0094 [0x1F] MOVE_ENTITY: EventEntity moves to X=73.746*, Z=-135.008*, Y=-6.000*
  2: 0x009C [0x1F] MOVE_ENTITY: Update entity position (mode=1)
  3: 0x009E [0x1C] WAIT(60* ticks)
  4: 0x00A1 [0x1F] MOVE_ENTITY: EventEntity moves to X=70.013*, Z=-128.444*, Y=-6.499*
  5: 0x00A9 [0x1F] MOVE_ENTITY: Update entity position (mode=1)
  6: 0x00AB [0x1C] WAIT(120* ticks)
  7: 0x00AE [0x1F] MOVE_ENTITY: EventEntity moves to X=73.773*, Z=-137.155*, Y=-6.000*
  8: 0x00B6 [0x1F] MOVE_ENTITY: Update entity position (mode=1)
  9: 0x00B8 [0x1C] WAIT(150* ticks)
 10: 0x00BB [0x1F] MOVE_ENTITY: EventEntity moves to X=70.013*, Z=-128.444*, Y=-6.499*
 11: 0x00C3 [0x1F] MOVE_ENTITY: Update entity position (mode=1)
 12: 0x00C5 [0x00] END_REQSTACK()
```

### Event 772

#### Metadata

| Field        | Value   |
|--------------|---------|
| Entrypoint   | 0x00C6  |
| Data Size    | 1 bytes |
| Instructions | 1       |

```
      00 01 02 03 04 05 06 07  08 09 0A 0B 0C 0D 0E 0F
      -- -- -- -- -- -- -- --  -- -- -- -- -- -- -- --
00C0:                   00                                    .         
```

#### Opcodes

```
  0: 0x00C6 [0x00] END_REQSTACK()
```

### Event 65535.10

#### Metadata

| Field        | Value    |
|--------------|----------|
| Entrypoint   | 0x00C7   |
| Data Size    | 10 bytes |
| Instructions | 2        |

```
      00 01 02 03 04 05 06 07  08 09 0A 0B 0C 0D 0E 0F
      -- -- -- -- -- -- -- --  -- -- -- -- -- -- -- --
00C0:                      37  24 80 25 80 07 80 26 80         7$.%...&.
00D0: 00                                                .               
```

#### Opcodes

```
  0: 0x00C7 [0x37] UPDATE_EVENT_POSITION_AND_DIR: x=77.193*, z=-137.896*, y=-5.999*, direction=95.5°*
  1: 0x00D0 [0x00] END_REQSTACK()
```

### Event 65535.11

#### Metadata

| Field        | Value    |
|--------------|----------|
| Entrypoint   | 0x00D1   |
| Data Size    | 28 bytes |
| Instructions | 6        |

```
      00 01 02 03 04 05 06 07  08 09 0A 0B 0C 0D 0E 0F
      -- -- -- -- -- -- -- --  -- -- -- -- -- -- -- --
00D0:    37 27 80 28 80 02 80  26 80 32 04 80 1F 00 29   7'.(...&.2....)
00E0: 80 2A 80 07 80 1F 01 1E  F0 FF FF 7F 00           .*...........   
```

#### Opcodes

```
  0: 0x00D1 [0x37] UPDATE_EVENT_POSITION_AND_DIR: x=77.432*, z=-135.992*, y=-6.000*, direction=95.5°*
  1: 0x00DA [0x32] ExtData[1]->MainSpeed = 40* * 0.1
  2: 0x00DD [0x1F] MOVE_ENTITY: EventEntity moves to X=74.138*, Z=-135.619*, Y=-5.999*
  3: 0x00E5 [0x1F] MOVE_ENTITY: Update entity position (mode=1)
  4: 0x00E7 [0x1E] EventEntity looks at LocalPlayer and starts talking
  5: 0x00EC [0x00] END_REQSTACK()
```

### Event 65535.12

#### Metadata

| Field        | Value    |
|--------------|----------|
| Entrypoint   | 0x00ED   |
| Data Size    | 14 bytes |
| Instructions | 4        |

```
      00 01 02 03 04 05 06 07  08 09 0A 0B 0C 0D 0E 0F
      -- -- -- -- -- -- -- --  -- -- -- -- -- -- -- --
00E0:                                         32 04 80               2..
00F0: 1F 00 2B 80 2C 80 07 80  1F 01 00                 ..+.,......     
```

#### Opcodes

```
  0: 0x00ED [0x32] ExtData[1]->MainSpeed = 40* * 0.1
  1: 0x00F0 [0x1F] MOVE_ENTITY: EventEntity moves to X=66.261*, Z=-136.038*, Y=-5.999*
  2: 0x00F8 [0x1F] MOVE_ENTITY: Update entity position (mode=1)
  3: 0x00FA [0x00] END_REQSTACK()
```

### Event 65535.13

#### Metadata

| Field        | Value    |
|--------------|----------|
| Entrypoint   | 0x00FB   |
| Data Size    | 38 bytes |
| Instructions | 4        |

```
      00 01 02 03 04 05 06 07  08 09 0A 0B 0C 0D 0E 0F
      -- -- -- -- -- -- -- --  -- -- -- -- -- -- -- --
00F0:                                   37 2B 80 2C 80             7+.,.
0100: 07 80 2D 80 5B 15 80 7B  21 03 01 7B 21 03 01 73  ..-.[..{!..{!..s
0110: 68 61 30 53 7B 21 03 01  7B 21 03 01 73 68 61 30  ha0S{!..{!..sha0
0120: 00                                                .               
```

#### Opcodes

```
  0: 0x00FB [0x37] UPDATE_EVENT_POSITION_AND_DIR: x=66.261*, z=-136.038*, y=-5.999*, direction=281.2°*
  1: 0x0104 [0x5B] LOAD_EXT_SCHEDULER: Load scheduler "sha0" with entities [Wasuhd (ID: 16982395/0x0103217B), Wasuhd (ID: 16982395/0x0103217B)], work=77*
  2: 0x0113 [0x53] WAIT_SCHEDULER_TASK: Wait for scheduler "sha0" with entities [Wasuhd (ID: 16982395/0x0103217B), Wasuhd (ID: 16982395/0x0103217B)]
  3: 0x0120 [0x00] END_REQSTACK()
```

### Event 797

#### Metadata

| Field        | Value   |
|--------------|---------|
| Entrypoint   | 0x0121  |
| Data Size    | 1 bytes |
| Instructions | 1       |

```
      00 01 02 03 04 05 06 07  08 09 0A 0B 0C 0D 0E 0F
      -- -- -- -- -- -- -- --  -- -- -- -- -- -- -- --
0120:    00                                              .              
```

#### Opcodes

```
  0: 0x0121 [0x00] END_REQSTACK()
```

### Event 798

#### Metadata

| Field        | Value   |
|--------------|---------|
| Entrypoint   | 0x0122  |
| Data Size    | 1 bytes |
| Instructions | 1       |

```
      00 01 02 03 04 05 06 07  08 09 0A 0B 0C 0D 0E 0F
      -- -- -- -- -- -- -- --  -- -- -- -- -- -- -- --
0120:       00                                            .             
```

#### Opcodes

```
  0: 0x0122 [0x00] END_REQSTACK()
```

### Event 65535.14

#### Metadata

| Field        | Value    |
|--------------|----------|
| Entrypoint   | 0x0123   |
| Data Size    | 10 bytes |
| Instructions | 2        |

```
      00 01 02 03 04 05 06 07  08 09 0A 0B 0C 0D 0E 0F
      -- -- -- -- -- -- -- --  -- -- -- -- -- -- -- --
0120:          37 2E 80 2F 80  02 80 30 80 00              7../...0..   
```

#### Opcodes

```
  0: 0x0123 [0x37] UPDATE_EVENT_POSITION_AND_DIR: x=77.097*, z=-123.729*, y=-6.000*, direction=163.1°*
  1: 0x012C [0x00] END_REQSTACK()
```

### Event 65535.15

#### Metadata

| Field        | Value    |
|--------------|----------|
| Entrypoint   | 0x012D   |
| Data Size    | 15 bytes |
| Instructions | 3        |

```
      00 01 02 03 04 05 06 07  08 09 0A 0B 0C 0D 0E 0F
      -- -- -- -- -- -- -- --  -- -- -- -- -- -- -- --
0120:                                         37 31 80               71.
0130: 32 80 07 80 33 80 1E 83  21 03 01 00              2...3...!...    
```

#### Opcodes

```
  0: 0x012D [0x37] UPDATE_EVENT_POSITION_AND_DIR: x=77.951*, z=-124.214*, y=-5.999*, direction=136.2°*
  1: 0x0136 [0x1E] EventEntity looks at Zweeha (ID: 16982403/0x01032183) and starts talking
  2: 0x013B [0x00] END_REQSTACK()
```

### Event 65535.16

#### Metadata

| Field        | Value    |
|--------------|----------|
| Entrypoint   | 0x013C   |
| Data Size    | 15 bytes |
| Instructions | 3        |

```
      00 01 02 03 04 05 06 07  08 09 0A 0B 0C 0D 0E 0F
      -- -- -- -- -- -- -- --  -- -- -- -- -- -- -- --
0130:                                      37 34 80 35              74.5
0140: 80 02 80 26 80 1E F0 FF  FF 7F 00                 ...&.......     
```

#### Opcodes

```
  0: 0x013C [0x37] UPDATE_EVENT_POSITION_AND_DIR: x=73.678*, z=-133.517*, y=-6.000*, direction=95.5°*
  1: 0x0145 [0x1E] EventEntity looks at LocalPlayer and starts talking
  2: 0x014A [0x00] END_REQSTACK()
```
