# 16982315 - Mathlouq

## Common Data

| Field            | Value                         |
|------------------|-------------------------------|
| Zone             | Aht Urhgan Whitegate (ID: 50) |
| Block Size       | 172 bytes                     |
| Total Events     | 5                             |
| References Count | 10                            |

## List of Events

| Event ID              | Entrypoint   |   Size |   Instructions |
|-----------------------|--------------|--------|----------------|
| [65535](#event-65535) | 0x0000       |      1 |              1 |
| [511](#event-511)     | 0x0001       |     37 |             11 |
| [543](#event-543)     | 0x0026       |     36 |             10 |
| [5038](#event-5038)   | 0x004A       |      1 |              1 |
| [869](#event-869)     | 0x004B       |     18 |              8 |

## DAT References (imed_data)

|   Index | Hex Value   |   Dec Value |
|---------|-------------|-------------|
|       0 | 0x001E      |          30 |
|       1 | 0x1353      |        4947 |
|       2 | 0x0014      |          20 |
|       3 | 0x1354      |        4948 |
|       4 | 0x1355      |        4949 |
|       5 | 0x13F9      |        5113 |
|       6 | 0x003C      |          60 |
|       7 | 0x13FA      |        5114 |
|       8 | 0x1C8E      |        7310 |
|       9 | 0x1C8F      |        7311 |

## Events

### Event 65535

#### Metadata

| Field        | Value   |
|--------------|---------|
| Entrypoint   | 0x0000  |
| Data Size    | 1 bytes |
| Instructions | 1       |

```
      00 01 02 03 04 05 06 07  08 09 0A 0B 0C 0D 0E 0F
      -- -- -- -- -- -- -- --  -- -- -- -- -- -- -- --
0000: 00                                                .               
```

#### Opcodes

```
  0: 0x0000 [0x00] END_REQSTACK()
```

### Event 511

#### Metadata

| Field        | Value    |
|--------------|----------|
| Entrypoint   | 0x0001   |
| Data Size    | 37 bytes |
| Instructions | 11       |

```
      00 01 02 03 04 05 06 07  08 09 0A 0B 0C 0D 0E 0F
      -- -- -- -- -- -- -- --  -- -- -- -- -- -- -- --
0000:    42 1E F0 FF FF 7F 1C  00 80 1D 01 80 23 66 02   B...........#f.
0010: 80 F8 FF FF 7F F8 FF FF  7F 74 6C 6B 30 1D 03 80  .........tlk0...
0020: 23 48 04 80 21 00                                 #H..!.          
```

#### Opcodes

```
  0: 0x0001 [0x42] SET_CLI_EVENT_CANCEL_DATA()
  1: 0x0002 [0x1E] EventEntity looks at LocalPlayer and starts talking
  2: 0x0007 [0x1C] WAIT(30* ticks)
  3: 0x000A [0x1D] PRINT_EVENT_MESSAGE(message_id=4947*)
    → "You say you are collecting strips of paper with letters inscribed upon them?\u007F1\u0000\u0007"
  4: 0x000D [0x23] WAIT_FOR_DIALOG_INTERACTION
  5: 0x000E [0x66] LOAD_EXT_SCHEDULER_MAIN: Load scheduler "tlk0" with entities [EventEntity, EventEntity], work=20*
  6: 0x001D [0x1D] PRINT_EVENT_MESSAGE(message_id=4948*)
    → "Until just a moment ago, I was pondering a magnificent synthesis project when I saw some bits of paper scattered about. I do not suppose the pieces have moved since...\u007F1\u0000\u0007"
  7: 0x0020 [0x23] WAIT_FOR_DIALOG_INTERACTION
  8: 0x0021 [0x48] [System] [4949*]:
    → "\u001F\u000F\u0008 discovers a piece of paper with a \u00072u\u00073 scrawled on it!\u007F1\u0000\u0007"
  9: 0x0024 [0x21] END_EVENT
 10: 0x0025 [0x00] END_REQSTACK()
```

### Event 543

#### Metadata

| Field        | Value    |
|--------------|----------|
| Entrypoint   | 0x0026   |
| Data Size    | 36 bytes |
| Instructions | 10       |

```
      00 01 02 03 04 05 06 07  08 09 0A 0B 0C 0D 0E 0F
      -- -- -- -- -- -- -- --  -- -- -- -- -- -- -- --
0020:                   1D 05  80 23 1C 06 80 1E F0 FF        ...#......
0030: FF 7F 1C 00 80 66 02 80  F8 FF FF 7F F8 FF FF 7F  .....f..........
0040: 74 6C 6B 30 1D 07 80 23  21 00                    tlk0...#!.      
```

#### Opcodes

```
  0: 0x0026 [0x1D] PRINT_EVENT_MESSAGE(message_id=5113*)
    → "Next, I just have to mix this in and...\u007F1\u0000\u0007"
  1: 0x0029 [0x23] WAIT_FOR_DIALOG_INTERACTION
  2: 0x002A [0x1C] WAIT(60* ticks)
  3: 0x002D [0x1E] EventEntity looks at LocalPlayer and starts talking
  4: 0x0032 [0x1C] WAIT(30* ticks)
  5: 0x0035 [0x66] LOAD_EXT_SCHEDULER_MAIN: Load scheduler "tlk0" with entities [EventEntity, EventEntity], work=20*
  6: 0x0044 [0x1D] PRINT_EVENT_MESSAGE(message_id=5114*)
    → "Excuse me, but I am busy preparing a recipe for a strange old woman.\u0007If you need something, please ask someone else.\u007F1\u0000\u0007"
  7: 0x0047 [0x23] WAIT_FOR_DIALOG_INTERACTION
  8: 0x0048 [0x21] END_EVENT
  9: 0x0049 [0x00] END_REQSTACK()
```

### Event 5038

#### Metadata

| Field        | Value   |
|--------------|---------|
| Entrypoint   | 0x004A  |
| Data Size    | 1 bytes |
| Instructions | 1       |

```
      00 01 02 03 04 05 06 07  08 09 0A 0B 0C 0D 0E 0F
      -- -- -- -- -- -- -- --  -- -- -- -- -- -- -- --
0040:                                00                           .     
```

#### Opcodes

```
  0: 0x004A [0x00] END_REQSTACK()
```

### Event 869

#### Metadata

| Field        | Value    |
|--------------|----------|
| Entrypoint   | 0x004B   |
| Data Size    | 18 bytes |
| Instructions | 8        |

```
      00 01 02 03 04 05 06 07  08 09 0A 0B 0C 0D 0E 0F
      -- -- -- -- -- -- -- --  -- -- -- -- -- -- -- --
0040:                                   1E F0 FF FF 7F             .....
0050: 1C 00 80 1D 08 80 23 1D  09 80 23 21 00           ......#...#!.   
```

#### Opcodes

```
  0: 0x004B [0x1E] EventEntity looks at LocalPlayer and starts talking
  1: 0x0050 [0x1C] WAIT(30* ticks)
  2: 0x0053 [0x1D] PRINT_EVENT_MESSAGE(message_id=7310*)
    → "Recently, I've been worried with the pace at which my apothecary goes through its catalysts.\u007F1\u0000\u0007"
  3: 0x0056 [0x23] WAIT_FOR_DIALOG_INTERACTION
  4: 0x0057 [0x1D] PRINT_EVENT_MESSAGE(message_id=7311*)
    → "Perhaps I am simply so engrossed in my research that I fail to notice how much I use with each experimentation.\u007F1\u0000\u0007"
  5: 0x005A [0x23] WAIT_FOR_DIALOG_INTERACTION
  6: 0x005B [0x21] END_EVENT
  7: 0x005C [0x00] END_REQSTACK()
```
