# 16982322 - Wahboud

## Common Data

| Field            | Value                         |
|------------------|-------------------------------|
| Zone             | Aht Urhgan Whitegate (ID: 50) |
| Block Size       | 1788 bytes                    |
| Total Events     | 63                            |
| References Count | 134                           |

## List of Events

| Event ID                   | Entrypoint   |   Size |   Instructions |
|----------------------------|--------------|--------|----------------|
| [65535](#event-65535)      | 0x0000       |      1 |              1 |
| [520](#event-520)          | 0x0001       |      1 |              1 |
| [65535.1](#event-655351)   | 0x0002       |     15 |              3 |
| [65535.2](#event-655352)   | 0x0011       |     14 |              4 |
| [525](#event-525)          | 0x001F       |      1 |              1 |
| [65535.3](#event-655353)   | 0x0020       |     84 |             12 |
| [527](#event-527)          | 0x0074       |      1 |              1 |
| [65535.4](#event-655354)   | 0x0075       |     15 |              3 |
| [65535.5](#event-655355)   | 0x0084       |     14 |              4 |
| [65535.6](#event-655356)   | 0x0092       |     14 |              4 |
| [575](#event-575)          | 0x00A0       |      1 |              1 |
| [65535.7](#event-655357)   | 0x00A1       |     15 |              3 |
| [65535.8](#event-655358)   | 0x00B0       |     17 |              5 |
| [65535.9](#event-655359)   | 0x00C1       |     15 |              3 |
| [65535.10](#event-6553510) | 0x00D0       |     15 |              3 |
| [65535.11](#event-6553511) | 0x00DF       |     14 |              4 |
| [65535.12](#event-6553512) | 0x00ED       |     24 |              6 |
| [65535.13](#event-6553513) | 0x0105       |     24 |              3 |
| [65535.14](#event-6553514) | 0x011D       |     22 |              3 |
| [65535.15](#event-6553515) | 0x0133       |     15 |              3 |
| [65535.16](#event-6553516) | 0x0142       |     13 |              3 |
| [65535.17](#event-6553517) | 0x014F       |     16 |              2 |
| [65535.18](#event-6553518) | 0x015F       |     14 |              4 |
| [269](#event-269)          | 0x016D       |      1 |              1 |
| [65535.19](#event-6553519) | 0x016E       |     15 |              3 |
| [65535.20](#event-6553520) | 0x017D       |     34 |              8 |
| [65535.21](#event-6553521) | 0x019F       |     31 |              7 |
| [65535.22](#event-6553522) | 0x01BE       |     19 |              5 |
| [65535.23](#event-6553523) | 0x01D1       |     14 |              4 |
| [65535.24](#event-6553524) | 0x01DF       |     20 |              4 |
| [65535.25](#event-6553525) | 0x01F3       |     35 |              7 |
| [65535.26](#event-6553526) | 0x0216       |     15 |              3 |
| [65535.27](#event-6553527) | 0x0225       |     14 |              4 |
| [800](#event-800)          | 0x0233       |      1 |              1 |
| [65535.28](#event-6553528) | 0x0234       |     15 |              3 |
| [65535.29](#event-6553529) | 0x0243       |     24 |              6 |
| [803](#event-803)          | 0x025B       |      1 |              1 |
| [65535.30](#event-6553530) | 0x025C       |     15 |              3 |
| [65535.31](#event-6553531) | 0x026B       |     24 |              3 |
| [65535.32](#event-6553532) | 0x0283       |     14 |              4 |
| [65535.33](#event-6553533) | 0x0291       |     14 |              4 |
| [65535.34](#event-6553534) | 0x029F       |     15 |              3 |
| [65535.35](#event-6553535) | 0x02AE       |     40 |              8 |
| [836](#event-836)          | 0x02D6       |      1 |              1 |
| [65535.36](#event-6553536) | 0x02D7       |     14 |              4 |
| [838](#event-838)          | 0x02E5       |      1 |              1 |
| [65535.37](#event-6553537) | 0x02E6       |     22 |              6 |
| [65535.38](#event-6553538) | 0x02FC       |     14 |              4 |
| [840](#event-840)          | 0x030A       |      1 |              1 |
| [65535.39](#event-6553539) | 0x030B       |     14 |              4 |
| [65535.40](#event-6553540) | 0x0319       |     24 |              6 |
| [843](#event-843)          | 0x0331       |      1 |              1 |
| [845](#event-845)          | 0x0332       |      1 |              1 |
| [65535.41](#event-6553541) | 0x0333       |     14 |              4 |
| [65535.42](#event-6553542) | 0x0341       |     14 |              4 |
| [65535.43](#event-6553543) | 0x034F       |     25 |              7 |
| [864](#event-864)          | 0x0368       |      7 |              2 |
| [65535.44](#event-6553544) | 0x036F       |     19 |              5 |
| [65535.45](#event-6553545) | 0x0382       |     19 |              5 |
| [65535.46](#event-6553546) | 0x0395       |     26 |              6 |
| [65535.47](#event-6553547) | 0x03AF       |     19 |              5 |
| [65535.48](#event-6553548) | 0x03C2       |     14 |              4 |
| [872](#event-872)          | 0x03D0       |      7 |              2 |

## DAT References (imed_data)

|   Index | Hex Value   |   Dec Value |
|---------|-------------|-------------|
|       0 | 0xFFFEA650  |  4294878800 |
|       1 | 0x151E      |        5406 |
|       2 | 0x0000      |           0 |
|       3 | 0x088A      |        2186 |
|       4 | 0x0028      |          40 |
|       5 | 0xFFFEADB1  |  4294880689 |
|       6 | 0x0145      |         325 |
|       7 | 0x000D      |          13 |
|       8 | 0x001E      |          30 |
|       9 | 0x0008      |           8 |
|      10 | 0x012C      |         300 |
|      11 | 0x02D3      |         723 |
|      12 | 0xFFFF8DA4  |  4294938020 |
|      13 | 0x6E4F      |       28239 |
|      14 | 0xFFFFE890  |  4294961296 |
|      15 | 0x0ECF      |        3791 |
|      16 | 0xFFFF9152  |  4294938962 |
|      17 | 0x5DE1      |       24033 |
|      18 | 0x0066      |         102 |
|      19 | 0x0149      |         329 |
|      20 | 0xC948      |       51528 |
|      21 | 0xFFFFFA5E  |  4294965854 |
|      22 | 0x0FEE      |        4078 |
|      23 | 0x15054     |       86100 |
|      24 | 0xFFFFFD9D  |  4294966685 |
|      25 | 0xFFFFAD4C  |  4294946124 |
|      26 | 0x5CE7      |       23783 |
|      27 | 0xFFFFE891  |  4294961297 |
|      28 | 0xFFFFB101  |  4294947073 |
|      29 | 0x4451      |       17489 |
|      30 | 0xFFFFF1A8  |  4294963624 |
|      31 | 0x0001      |           1 |
|      32 | 0x0010      |          16 |
|      33 | 0x010E      |         270 |
|      34 | 0x72209     |      467465 |
|      35 | 0x39AFB     |      236283 |
|      36 | 0xFFFFA35A  |  4294943578 |
|      37 | 0x0418      |        1048 |
|      38 | 0x002B      |          43 |
|      39 | 0x0003      |           3 |
|      40 | 0x1DD52     |      122194 |
|      41 | 0x0A1F      |        2591 |
|      42 | 0x1BBCC     |      113612 |
|      43 | 0x45BE      |       17854 |
|      44 | 0x07C2      |        1986 |
|      45 | 0x0078      |         120 |
|      46 | 0x1B05D     |      110685 |
|      47 | 0x432E      |       17198 |
|      48 | 0x1B41B     |      111643 |
|      49 | 0x516F      |       20847 |
|      50 | 0xFFFFFE04  |  4294966788 |
|      51 | 0x1B575     |      111989 |
|      52 | 0x6F8E      |       28558 |
|      53 | 0xFFFFFEBA  |  4294966970 |
|      54 | 0x1D932     |      121138 |
|      55 | 0x75FC      |       30204 |
|      56 | 0xFFFFFEC5  |  4294966981 |
|      57 | 0x1DF64     |      122724 |
|      58 | 0x7942      |       31042 |
|      59 | 0xFFFCDB5F  |  4294761311 |
|      60 | 0xFFF414C9  |  4294186185 |
|      61 | 0xFFFFD31B  |  4294955803 |
|      62 | 0x09BF      |        2495 |
|      63 | 0xFFFD3495  |  4294784149 |
|      64 | 0xFFF363A0  |  4294140832 |
|      65 | 0xFFFFE8EA  |  4294961386 |
|      66 | 0x0414      |        1044 |
|      67 | 0xFFFD3D4E  |  4294786382 |
|      68 | 0xFFF3539D  |  4294136733 |
|      69 | 0xFFFFECEA  |  4294962410 |
|      70 | 0x0373      |         883 |
|      71 | 0xFFFB2CB7  |  4294651063 |
|      72 | 0xFFFAD26C  |  4294627948 |
|      73 | 0xFFFFDB00  |  4294957824 |
|      74 | 0x0782      |        1922 |
|      75 | 0xFFFAE42C  |  4294632492 |
|      76 | 0xFFFAC868  |  4294625384 |
|      77 | 0xFFFFDBDC  |  4294958044 |
|      78 | 0xFFFFCFF6  |  4294954998 |
|      79 | 0x6A19      |       27161 |
|      80 | 0x0D32      |        3378 |
|      81 | 0xFFFFCA58  |  4294953560 |
|      82 | 0x6798      |       26520 |
|      83 | 0xFFFFA9EA  |  4294945258 |
|      84 | 0x67B2      |       26546 |
|      85 | 0xFFFDB7ED  |  4294817773 |
|      86 | 0xFFFFFB1C  |  4294966044 |
|      87 | 0x0708      |        1800 |
|      88 | 0x008A      |         138 |
|      89 | 0x0005      |           5 |
|      90 | 0x000F      |          15 |
|      91 | 0xFFFDD77E  |  4294825854 |
|      92 | 0xFFFFF905  |  4294965509 |
|      93 | 0x07CF      |        1999 |
|      94 | 0xFFFE09EC  |  4294838764 |
|      95 | 0xFFFFFB08  |  4294966024 |
|      96 | 0x0453      |        1107 |
|      97 | 0xFFFFA89E  |  4294944926 |
|      98 | 0x6AC5      |       27333 |
|      99 | 0x0FF6      |        4086 |
|     100 | 0xFFFFC0B8  |  4294951096 |
|     101 | 0x671C      |       26396 |
|     102 | 0x005A      |          90 |
|     103 | 0x0009      |           9 |
|     104 | 0x2A13      |       10771 |
|     105 | 0x4852      |       18514 |
|     106 | 0x4AFD      |       19197 |
|     107 | 0x4FD8      |       20440 |
|     108 | 0x30C4      |       12484 |
|     109 | 0x45C3      |       17859 |
|     110 | 0x10C8E     |       68750 |
|     111 | 0xFFFE08C4  |  4294838468 |
|     112 | 0xFFFFE69D  |  4294960797 |
|     113 | 0x13032     |       77874 |
|     114 | 0xFFFE1E93  |  4294844051 |
|     115 | 0x12F5D     |       77661 |
|     116 | 0xFFFE2C6E  |  4294847598 |
|     117 | 0x4E23      |       20003 |
|     118 | 0x0690      |        1680 |
|     119 | 0x5431      |       21553 |
|     120 | 0x1F4D      |        8013 |
|     121 | 0x4E78      |       20088 |
|     122 | 0x49B8      |       18872 |
|     123 | 0x003C      |          60 |
|     124 | 0x13355     |       78677 |
|     125 | 0xFFFDF485  |  4294833285 |
|     126 | 0x131BC     |       78268 |
|     127 | 0xFFFDEF97  |  4294832023 |
|     128 | 0x13157     |       78167 |
|     129 | 0xFFFDEBC0  |  4294831040 |
|     130 | 0x12E41     |       77377 |
|     131 | 0xFFFDE503  |  4294829315 |
|     132 | 0x1430E     |       82702 |
|     133 | 0xFFFDEDF7  |  4294831607 |

## Events

### Event 65535

#### Metadata

| Field        | Value   |
|--------------|---------|
| Entrypoint   | 0x0000  |
| Data Size    | 1 bytes |
| Instructions | 1       |

```
      00 01 02 03 04 05 06 07  08 09 0A 0B 0C 0D 0E 0F
      -- -- -- -- -- -- -- --  -- -- -- -- -- -- -- --
0000: 00                                                .               
```

#### Opcodes

```
  0: 0x0000 [0x00] END_REQSTACK()
```

### Event 520

#### Metadata

| Field        | Value   |
|--------------|---------|
| Entrypoint   | 0x0001  |
| Data Size    | 1 bytes |
| Instructions | 1       |

```
      00 01 02 03 04 05 06 07  08 09 0A 0B 0C 0D 0E 0F
      -- -- -- -- -- -- -- --  -- -- -- -- -- -- -- --
0000:    00                                              .              
```

#### Opcodes

```
  0: 0x0001 [0x00] END_REQSTACK()
```

### Event 65535.1

#### Metadata

| Field        | Value    |
|--------------|----------|
| Entrypoint   | 0x0002   |
| Data Size    | 15 bytes |
| Instructions | 3        |

```
      00 01 02 03 04 05 06 07  08 09 0A 0B 0C 0D 0E 0F
      -- -- -- -- -- -- -- --  -- -- -- -- -- -- -- --
0000:       37 00 80 01 80 02  80 03 80 80 F8 FF FF 7F    7.............
0010: 00                                                .               
```

#### Opcodes

```
  0: 0x0002 [0x37] UPDATE_EVENT_POSITION_AND_DIR: x=-88.496*, z=5.406*, y=0.000*, direction=192.1°*
  1: 0x000B [0x80] LOAD_WAIT(entity=EventEntity)
  2: 0x0010 [0x00] END_REQSTACK()
```

### Event 65535.2

#### Metadata

| Field        | Value    |
|--------------|----------|
| Entrypoint   | 0x0011   |
| Data Size    | 14 bytes |
| Instructions | 4        |

```
      00 01 02 03 04 05 06 07  08 09 0A 0B 0C 0D 0E 0F
      -- -- -- -- -- -- -- --  -- -- -- -- -- -- -- --
0010:    32 04 80 1F 00 05 80  06 80 02 80 1F 01 00      2............. 
```

#### Opcodes

```
  0: 0x0011 [0x32] ExtData[1]->MainSpeed = 40* * 0.1
  1: 0x0014 [0x1F] MOVE_ENTITY: EventEntity moves to X=-86.607*, Z=0.325*, Y=0.000*
  2: 0x001C [0x1F] MOVE_ENTITY: Update entity position (mode=1)
  3: 0x001E [0x00] END_REQSTACK()
```

### Event 525

#### Metadata

| Field        | Value   |
|--------------|---------|
| Entrypoint   | 0x001F  |
| Data Size    | 1 bytes |
| Instructions | 1       |

```
      00 01 02 03 04 05 06 07  08 09 0A 0B 0C 0D 0E 0F
      -- -- -- -- -- -- -- --  -- -- -- -- -- -- -- --
0010:                                               00                 .
```

#### Opcodes

```
  0: 0x001F [0x00] END_REQSTACK()
```

### Event 65535.3

#### Metadata

| Field        | Value    |
|--------------|----------|
| Entrypoint   | 0x0020   |
| Data Size    | 84 bytes |
| Instructions | 12       |

```
      00 01 02 03 04 05 06 07  08 09 0A 0B 0C 0D 0E 0F
      -- -- -- -- -- -- -- --  -- -- -- -- -- -- -- --
0020: 32 07 80 1F 00 00 80 01  80 02 80 1F 01 1E 2F 21  2............./!
0030: 03 01 79 00 2F 21 03 01  30 21 03 01 1C 08 80 4A  ..y./!..0!.....J
0040: 49 20 03 01 2F 21 03 01  66 09 80 2F 21 03 01 2F  I ../!..f../!../
0050: 21 03 01 75 72 65 30 1C  0A 80 79 00 2F 21 03 01  !..ure0...y./!..
0060: 32 21 03 01 66 02 80 32  21 03 01 32 21 03 01 74  2!..f..2!..2!..t
0070: 6C 6B 31 00                                       lk1.            
```

#### Opcodes

```
  0: 0x0020 [0x32] ExtData[1]->MainSpeed = 13* * 0.1
  1: 0x0023 [0x1F] MOVE_ENTITY: EventEntity moves to X=-88.496*, Z=5.406*, Y=0.000*
  2: 0x002B [0x1F] MOVE_ENTITY: Update entity position (mode=1)
  3: 0x002D [0x1E] EventEntity looks at Tehf Kimasnahya (ID: 16982319/0x0103212F) and starts talking
  4: 0x0032 [0x79] Tehf Kimasnahya (ID: 16982319/0x0103212F) looks at Bashraf (ID: 16982320/0x01032130) (Basic look)
  5: 0x003C [0x1C] WAIT(30* ticks)
  6: 0x003F [0x4A] Malfud (ID: 16982089/0x01032049) looks at Tehf Kimasnahya (ID: 16982319/0x0103212F)
  7: 0x0048 [0x66] LOAD_EXT_SCHEDULER_MAIN: Load scheduler "ure0" with entities [Tehf Kimasnahya (ID: 16982319/0x0103212F), Tehf Kimasnahya (ID: 16982319/0x0103212F)], work=8*
  8: 0x0057 [0x1C] WAIT(300* ticks)
  9: 0x005A [0x79] Tehf Kimasnahya (ID: 16982319/0x0103212F) looks at Wahboud (ID: 16982322/0x01032132) (Basic look)
 10: 0x0064 [0x66] LOAD_EXT_SCHEDULER_MAIN: Load scheduler "tlk1" with entities [Wahboud (ID: 16982322/0x01032132), Wahboud (ID: 16982322/0x01032132)], work=0*
 11: 0x0073 [0x00] END_REQSTACK()
```

### Event 527

#### Metadata

| Field        | Value   |
|--------------|---------|
| Entrypoint   | 0x0074  |
| Data Size    | 1 bytes |
| Instructions | 1       |

```
      00 01 02 03 04 05 06 07  08 09 0A 0B 0C 0D 0E 0F
      -- -- -- -- -- -- -- --  -- -- -- -- -- -- -- --
0070:             00                                        .           
```

#### Opcodes

```
  0: 0x0074 [0x00] END_REQSTACK()
```

### Event 65535.4

#### Metadata

| Field        | Value    |
|--------------|----------|
| Entrypoint   | 0x0075   |
| Data Size    | 15 bytes |
| Instructions | 3        |

```
      00 01 02 03 04 05 06 07  08 09 0A 0B 0C 0D 0E 0F
      -- -- -- -- -- -- -- --  -- -- -- -- -- -- -- --
0070:                37 05 80  06 80 02 80 0B 80 80 F8       7..........
0080: FF FF 7F 00                                       ....            
```

#### Opcodes

```
  0: 0x0075 [0x37] UPDATE_EVENT_POSITION_AND_DIR: x=-86.607*, z=0.325*, y=0.000*, direction=63.5°*
  1: 0x007E [0x80] LOAD_WAIT(entity=EventEntity)
  2: 0x0083 [0x00] END_REQSTACK()
```

### Event 65535.5

#### Metadata

| Field        | Value    |
|--------------|----------|
| Entrypoint   | 0x0084   |
| Data Size    | 14 bytes |
| Instructions | 4        |

```
      00 01 02 03 04 05 06 07  08 09 0A 0B 0C 0D 0E 0F
      -- -- -- -- -- -- -- --  -- -- -- -- -- -- -- --
0080:             32 04 80 1F  00 00 80 01 80 02 80 1F      2...........
0090: 01 00                                             ..              
```

#### Opcodes

```
  0: 0x0084 [0x32] ExtData[1]->MainSpeed = 40* * 0.1
  1: 0x0087 [0x1F] MOVE_ENTITY: EventEntity moves to X=-88.496*, Z=5.406*, Y=0.000*
  2: 0x008F [0x1F] MOVE_ENTITY: Update entity position (mode=1)
  3: 0x0091 [0x00] END_REQSTACK()
```

### Event 65535.6

#### Metadata

| Field        | Value    |
|--------------|----------|
| Entrypoint   | 0x0092   |
| Data Size    | 14 bytes |
| Instructions | 4        |

```
      00 01 02 03 04 05 06 07  08 09 0A 0B 0C 0D 0E 0F
      -- -- -- -- -- -- -- --  -- -- -- -- -- -- -- --
0090:       32 07 80 1F 00 05  80 06 80 02 80 1F 01 00    2.............
```

#### Opcodes

```
  0: 0x0092 [0x32] ExtData[1]->MainSpeed = 13* * 0.1
  1: 0x0095 [0x1F] MOVE_ENTITY: EventEntity moves to X=-86.607*, Z=0.325*, Y=0.000*
  2: 0x009D [0x1F] MOVE_ENTITY: Update entity position (mode=1)
  3: 0x009F [0x00] END_REQSTACK()
```

### Event 575

#### Metadata

| Field        | Value   |
|--------------|---------|
| Entrypoint   | 0x00A0  |
| Data Size    | 1 bytes |
| Instructions | 1       |

```
      00 01 02 03 04 05 06 07  08 09 0A 0B 0C 0D 0E 0F
      -- -- -- -- -- -- -- --  -- -- -- -- -- -- -- --
00A0: 00                                                .               
```

#### Opcodes

```
  0: 0x00A0 [0x00] END_REQSTACK()
```

### Event 65535.7

#### Metadata

| Field        | Value    |
|--------------|----------|
| Entrypoint   | 0x00A1   |
| Data Size    | 15 bytes |
| Instructions | 3        |

```
      00 01 02 03 04 05 06 07  08 09 0A 0B 0C 0D 0E 0F
      -- -- -- -- -- -- -- --  -- -- -- -- -- -- -- --
00A0:    37 0C 80 0D 80 0E 80  0F 80 80 F8 FF FF 7F 00   7..............
```

#### Opcodes

```
  0: 0x00A1 [0x37] UPDATE_EVENT_POSITION_AND_DIR: x=-29.276*, z=28.239*, y=-6.000*, direction=333.2°*
  1: 0x00AA [0x80] LOAD_WAIT(entity=EventEntity)
  2: 0x00AF [0x00] END_REQSTACK()
```

### Event 65535.8

#### Metadata

| Field        | Value    |
|--------------|----------|
| Entrypoint   | 0x00B0   |
| Data Size    | 17 bytes |
| Instructions | 5        |

```
      00 01 02 03 04 05 06 07  08 09 0A 0B 0C 0D 0E 0F
      -- -- -- -- -- -- -- --  -- -- -- -- -- -- -- --
00B0: 32 07 80 1F 00 10 80 11  80 0E 80 1F 01 39 12 80  2............9..
00C0: 00                                                .               
```

#### Opcodes

```
  0: 0x00B0 [0x32] ExtData[1]->MainSpeed = 13* * 0.1
  1: 0x00B3 [0x1F] MOVE_ENTITY: EventEntity moves to X=-28.334*, Z=24.033*, Y=-6.000*
  2: 0x00BB [0x1F] MOVE_ENTITY: Update entity position (mode=1)
  3: 0x00BD [0x39] SET_ENTITY_DIRECTION(direction=0.6°*)
  4: 0x00C0 [0x00] END_REQSTACK()
```

### Event 65535.9

#### Metadata

| Field        | Value    |
|--------------|----------|
| Entrypoint   | 0x00C1   |
| Data Size    | 15 bytes |
| Instructions | 3        |

```
      00 01 02 03 04 05 06 07  08 09 0A 0B 0C 0D 0E 0F
      -- -- -- -- -- -- -- --  -- -- -- -- -- -- -- --
00C0:    37 10 80 11 80 0E 80  13 80 80 F8 FF FF 7F 00   7..............
```

#### Opcodes

```
  0: 0x00C1 [0x37] UPDATE_EVENT_POSITION_AND_DIR: x=-28.334*, z=24.033*, y=-6.000*, direction=28.9°*
  1: 0x00CA [0x80] LOAD_WAIT(entity=EventEntity)
  2: 0x00CF [0x00] END_REQSTACK()
```

### Event 65535.10

#### Metadata

| Field        | Value    |
|--------------|----------|
| Entrypoint   | 0x00D0   |
| Data Size    | 15 bytes |
| Instructions | 3        |

```
      00 01 02 03 04 05 06 07  08 09 0A 0B 0C 0D 0E 0F
      -- -- -- -- -- -- -- --  -- -- -- -- -- -- -- --
00D0: 37 14 80 15 80 02 80 16  80 80 F8 FF FF 7F 00     7.............. 
```

#### Opcodes

```
  0: 0x00D0 [0x37] UPDATE_EVENT_POSITION_AND_DIR: x=51.528*, z=-1.442*, y=0.000*, direction=358.4°*
  1: 0x00D9 [0x80] LOAD_WAIT(entity=EventEntity)
  2: 0x00DE [0x00] END_REQSTACK()
```

### Event 65535.11

#### Metadata

| Field        | Value    |
|--------------|----------|
| Entrypoint   | 0x00DF   |
| Data Size    | 14 bytes |
| Instructions | 4        |

```
      00 01 02 03 04 05 06 07  08 09 0A 0B 0C 0D 0E 0F
      -- -- -- -- -- -- -- --  -- -- -- -- -- -- -- --
00D0:                                               32                 2
00E0: 04 80 1F 00 17 80 18 80  02 80 1F 01 00           .............   
```

#### Opcodes

```
  0: 0x00DF [0x32] ExtData[1]->MainSpeed = 40* * 0.1
  1: 0x00E2 [0x1F] MOVE_ENTITY: EventEntity moves to X=86.100*, Z=-0.611*, Y=0.000*
  2: 0x00EA [0x1F] MOVE_ENTITY: Update entity position (mode=1)
  3: 0x00EC [0x00] END_REQSTACK()
```

### Event 65535.12

#### Metadata

| Field        | Value    |
|--------------|----------|
| Entrypoint   | 0x00ED   |
| Data Size    | 24 bytes |
| Instructions | 6        |

```
      00 01 02 03 04 05 06 07  08 09 0A 0B 0C 0D 0E 0F
      -- -- -- -- -- -- -- --  -- -- -- -- -- -- -- --
00E0:                                         32 04 80               2..
00F0: 1F 00 19 80 1A 80 1B 80  1F 01 1F 00 1C 80 1D 80  ................
0100: 1E 80 1F 01 00                                    .....           
```

#### Opcodes

```
  0: 0x00ED [0x32] ExtData[1]->MainSpeed = 40* * 0.1
  1: 0x00F0 [0x1F] MOVE_ENTITY: EventEntity moves to X=-21.172*, Z=23.783*, Y=-5.999*
  2: 0x00F8 [0x1F] MOVE_ENTITY: Update entity position (mode=1)
  3: 0x00FA [0x1F] MOVE_ENTITY: EventEntity moves to X=-20.223*, Z=17.489*, Y=-3.672*
  4: 0x0102 [0x1F] MOVE_ENTITY: Update entity position (mode=1)
  5: 0x0104 [0x00] END_REQSTACK()
```

### Event 65535.13

#### Metadata

| Field        | Value    |
|--------------|----------|
| Entrypoint   | 0x0105   |
| Data Size    | 24 bytes |
| Instructions | 3        |

```
      00 01 02 03 04 05 06 07  08 09 0A 0B 0C 0D 0E 0F
      -- -- -- -- -- -- -- --  -- -- -- -- -- -- -- --
0100:                95 02 80  B6 0B 1F 80 02 80 02 80       ...........
0110: 20 80 20 80 20 80 20 80  21 80 02 80 00            . . . .!....   
```

#### Opcodes

```
  0: 0x0105 [0x95] SETUP_EVENT_NPC: Prepare NPC for event (Render.Flags3 = 0*)
  1: 0x0108 [0xB6] ENTITY_APPEARANCE_HANDLER(case=Full entity look, race=1*, hair=0*, head=0*, body=16*, hands=16*, legs=16*, feet=16*, main=270*, sub=0*)
  2: 0x011C [0x00] END_REQSTACK()
```

### Event 65535.14

#### Metadata

| Field        | Value    |
|--------------|----------|
| Entrypoint   | 0x011D   |
| Data Size    | 22 bytes |
| Instructions | 3        |

```
      00 01 02 03 04 05 06 07  08 09 0A 0B 0C 0D 0E 0F
      -- -- -- -- -- -- -- --  -- -- -- -- -- -- -- --
0110:                                         96 B6 0B               ...
0120: 1F 80 02 80 02 80 20 80  20 80 20 80 20 80 02 80  ...... . . . ...
0130: 02 80 00                                          ...             
```

#### Opcodes

```
  0: 0x011D [0x96] UNSET_EVENT_NPC: Restore NPC after event (removes event NPC status)
  1: 0x011E [0xB6] ENTITY_APPEARANCE_HANDLER(case=Full entity look, race=1*, hair=0*, head=0*, body=16*, hands=16*, legs=16*, feet=16*, main=0*, sub=0*)
  2: 0x0132 [0x00] END_REQSTACK()
```

### Event 65535.15

#### Metadata

| Field        | Value    |
|--------------|----------|
| Entrypoint   | 0x0133   |
| Data Size    | 15 bytes |
| Instructions | 3        |

```
      00 01 02 03 04 05 06 07  08 09 0A 0B 0C 0D 0E 0F
      -- -- -- -- -- -- -- --  -- -- -- -- -- -- -- --
0130:          37 22 80 23 80  24 80 25 80 80 F8 FF FF     7".#.$.%.....
0140: 7F 00                                             ..              
```

#### Opcodes

```
  0: 0x0133 [0x37] UPDATE_EVENT_POSITION_AND_DIR: x=467.465*, z=236.283*, y=-23.718*, direction=92.1°*
  1: 0x013C [0x80] LOAD_WAIT(entity=EventEntity)
  2: 0x0141 [0x00] END_REQSTACK()
```

### Event 65535.16

#### Metadata

| Field        | Value    |
|--------------|----------|
| Entrypoint   | 0x0142   |
| Data Size    | 13 bytes |
| Instructions | 3        |

```
      00 01 02 03 04 05 06 07  08 09 0A 0B 0C 0D 0E 0F
      -- -- -- -- -- -- -- --  -- -- -- -- -- -- -- --
0140:       6E 32 21 03 01 26  80 99 32 21 03 01 00       n2!..&..2!... 
```

#### Opcodes

```
  0: 0x0142 [0x6E] Wahboud (ID: 16982322/0x01032132) uses emote 43*
  1: 0x0149 [0x99] Wait for Wahboud (ID: 16982322/0x01032132) animation to complete
  2: 0x014E [0x00] END_REQSTACK()
```

### Event 65535.17

#### Metadata

| Field        | Value    |
|--------------|----------|
| Entrypoint   | 0x014F   |
| Data Size    | 16 bytes |
| Instructions | 2        |

```
      00 01 02 03 04 05 06 07  08 09 0A 0B 0C 0D 0E 0F
      -- -- -- -- -- -- -- --  -- -- -- -- -- -- -- --
0140:                                               66                 f
0150: 27 80 32 21 03 01 AE 21  03 01 6B 65 69 30 00     '.2!...!..kei0. 
```

#### Opcodes

```
  0: 0x014F [0x66] LOAD_EXT_SCHEDULER_MAIN: Load scheduler "kei0" with entities [Wahboud (ID: 16982322/0x01032132), Mishhar (ID: 16982446/0x010321AE)], work=3*
  1: 0x015E [0x00] END_REQSTACK()
```

### Event 65535.18

#### Metadata

| Field        | Value    |
|--------------|----------|
| Entrypoint   | 0x015F   |
| Data Size    | 14 bytes |
| Instructions | 4        |

```
      00 01 02 03 04 05 06 07  08 09 0A 0B 0C 0D 0E 0F
      -- -- -- -- -- -- -- --  -- -- -- -- -- -- -- --
0150:                                               32                 2
0160: 04 80 1F 00 28 80 29 80  02 80 1F 01 00           ....(.)......   
```

#### Opcodes

```
  0: 0x015F [0x32] ExtData[1]->MainSpeed = 40* * 0.1
  1: 0x0162 [0x1F] MOVE_ENTITY: EventEntity moves to X=122.194*, Z=2.591*, Y=0.000*
  2: 0x016A [0x1F] MOVE_ENTITY: Update entity position (mode=1)
  3: 0x016C [0x00] END_REQSTACK()
```

### Event 269

#### Metadata

| Field        | Value   |
|--------------|---------|
| Entrypoint   | 0x016D  |
| Data Size    | 1 bytes |
| Instructions | 1       |

```
      00 01 02 03 04 05 06 07  08 09 0A 0B 0C 0D 0E 0F
      -- -- -- -- -- -- -- --  -- -- -- -- -- -- -- --
0160:                                         00                     .  
```

#### Opcodes

```
  0: 0x016D [0x00] END_REQSTACK()
```

### Event 65535.19

#### Metadata

| Field        | Value    |
|--------------|----------|
| Entrypoint   | 0x016E   |
| Data Size    | 15 bytes |
| Instructions | 3        |

```
      00 01 02 03 04 05 06 07  08 09 0A 0B 0C 0D 0E 0F
      -- -- -- -- -- -- -- --  -- -- -- -- -- -- -- --
0160:                                            37 2A                7*
0170: 80 2B 80 02 80 2C 80 80  F8 FF FF 7F 00           .+...,.......   
```

#### Opcodes

```
  0: 0x016E [0x37] UPDATE_EVENT_POSITION_AND_DIR: x=113.612*, z=17.854*, y=0.000*, direction=174.5°*
  1: 0x0177 [0x80] LOAD_WAIT(entity=EventEntity)
  2: 0x017C [0x00] END_REQSTACK()
```

### Event 65535.20

#### Metadata

| Field        | Value    |
|--------------|----------|
| Entrypoint   | 0x017D   |
| Data Size    | 34 bytes |
| Instructions | 8        |

```
      00 01 02 03 04 05 06 07  08 09 0A 0B 0C 0D 0E 0F
      -- -- -- -- -- -- -- --  -- -- -- -- -- -- -- --
0170:                                         1C 2D 80               .-.
0180: 4A 30 21 03 01 32 21 03  01 32 04 80 1F 00 2E 80  J0!..2!..2......
0190: 2F 80 02 80 1F 01 1E 30  21 03 01 1C 08 80 00     /......0!...... 
```

#### Opcodes

```
  0: 0x017D [0x1C] WAIT(120* ticks)
  1: 0x0180 [0x4A] Bashraf (ID: 16982320/0x01032130) looks at Wahboud (ID: 16982322/0x01032132)
  2: 0x0189 [0x32] ExtData[1]->MainSpeed = 40* * 0.1
  3: 0x018C [0x1F] MOVE_ENTITY: EventEntity moves to X=110.685*, Z=17.198*, Y=0.000*
  4: 0x0194 [0x1F] MOVE_ENTITY: Update entity position (mode=1)
  5: 0x0196 [0x1E] EventEntity looks at Bashraf (ID: 16982320/0x01032130) and starts talking
  6: 0x019B [0x1C] WAIT(30* ticks)
  7: 0x019E [0x00] END_REQSTACK()
```

### Event 65535.21

#### Metadata

| Field        | Value    |
|--------------|----------|
| Entrypoint   | 0x019F   |
| Data Size    | 31 bytes |
| Instructions | 7        |

```
      00 01 02 03 04 05 06 07  08 09 0A 0B 0C 0D 0E 0F
      -- -- -- -- -- -- -- --  -- -- -- -- -- -- -- --
0190:                                               32                 2
01A0: 07 80 1F 00 30 80 31 80  32 80 1F 01 1F 00 33 80  ....0.1.2.....3.
01B0: 34 80 35 80 1F 01 27 05  34 20 03 01 03 00        4.5...'.4 ....  
```

#### Opcodes

```
  0: 0x019F [0x32] ExtData[1]->MainSpeed = 13* * 0.1
  1: 0x01A2 [0x1F] MOVE_ENTITY: EventEntity moves to X=111.643*, Z=20.847*, Y=-0.508*
  2: 0x01AA [0x1F] MOVE_ENTITY: Update entity position (mode=1)
  3: 0x01AC [0x1F] MOVE_ENTITY: EventEntity moves to X=111.989*, Z=28.558*, Y=-0.326*
  4: 0x01B4 [0x1F] MOVE_ENTITY: Update entity position (mode=1)
  5: 0x01B6 [0x27] REQ_SET(priority=0x05, entity_id=Door: Chamber of Passage (ID: 16982068/0x01032034), tag_num=0x03)
  6: 0x01BD [0x00] END_REQSTACK()
```

### Event 65535.22

#### Metadata

| Field        | Value    |
|--------------|----------|
| Entrypoint   | 0x01BE   |
| Data Size    | 19 bytes |
| Instructions | 5        |

```
      00 01 02 03 04 05 06 07  08 09 0A 0B 0C 0D 0E 0F
      -- -- -- -- -- -- -- --  -- -- -- -- -- -- -- --
01B0:                                            32 07                2.
01C0: 80 1F 00 36 80 37 80 38  80 1F 01 1E 35 20 03 01  ...6.7.8....5 ..
01D0: 00                                                .               
```

#### Opcodes

```
  0: 0x01BE [0x32] ExtData[1]->MainSpeed = 13* * 0.1
  1: 0x01C1 [0x1F] MOVE_ENTITY: EventEntity moves to X=121.138*, Z=30.204*, Y=-0.315*
  2: 0x01C9 [0x1F] MOVE_ENTITY: Update entity position (mode=1)
  3: 0x01CB [0x1E] EventEntity looks at Sharin-Garin (ID: 16982069/0x01032035) and starts talking
  4: 0x01D0 [0x00] END_REQSTACK()
```

### Event 65535.23

#### Metadata

| Field        | Value    |
|--------------|----------|
| Entrypoint   | 0x01D1   |
| Data Size    | 14 bytes |
| Instructions | 4        |

```
      00 01 02 03 04 05 06 07  08 09 0A 0B 0C 0D 0E 0F
      -- -- -- -- -- -- -- --  -- -- -- -- -- -- -- --
01D0:    32 07 80 1F 00 39 80  3A 80 38 80 1F 01 00      2....9.:.8.... 
```

#### Opcodes

```
  0: 0x01D1 [0x32] ExtData[1]->MainSpeed = 13* * 0.1
  1: 0x01D4 [0x1F] MOVE_ENTITY: EventEntity moves to X=122.724*, Z=31.042*, Y=-0.315*
  2: 0x01DC [0x1F] MOVE_ENTITY: Update entity position (mode=1)
  3: 0x01DE [0x00] END_REQSTACK()
```

### Event 65535.24

#### Metadata

| Field        | Value    |
|--------------|----------|
| Entrypoint   | 0x01DF   |
| Data Size    | 20 bytes |
| Instructions | 4        |

```
      00 01 02 03 04 05 06 07  08 09 0A 0B 0C 0D 0E 0F
      -- -- -- -- -- -- -- --  -- -- -- -- -- -- -- --
01D0:                                               37                 7
01E0: 3B 80 3C 80 3D 80 3E 80  80 F8 FF FF 7F 1E A5 20  ;.<.=.>........ 
01F0: 03 01 00                                          ...             
```

#### Opcodes

```
  0: 0x01DF [0x37] UPDATE_EVENT_POSITION_AND_DIR: x=-205.985*, z=-781.111*, y=-11.493*, direction=219.3°*
  1: 0x01E8 [0x80] LOAD_WAIT(entity=EventEntity)
  2: 0x01ED [0x1E] EventEntity looks at Unnamed NPC (ID: 16982181/0x010320A5) and starts talking
  3: 0x01F2 [0x00] END_REQSTACK()
```

### Event 65535.25

#### Metadata

| Field        | Value    |
|--------------|----------|
| Entrypoint   | 0x01F3   |
| Data Size    | 35 bytes |
| Instructions | 7        |

```
      00 01 02 03 04 05 06 07  08 09 0A 0B 0C 0D 0E 0F
      -- -- -- -- -- -- -- --  -- -- -- -- -- -- -- --
01F0:          37 3F 80 40 80  41 80 42 80 80 F8 FF FF     7?.@.A.B.....
0200: 7F 32 07 80 1F 00 43 80  44 80 45 80 1F 01 4B 32  .2....C.D.E...K2
0210: 21 03 01 46 80 00                                 !..F..          
```

#### Opcodes

```
  0: 0x01F3 [0x37] UPDATE_EVENT_POSITION_AND_DIR: x=-183.147*, z=-826.464*, y=-5.910*, direction=91.8°*
  1: 0x01FC [0x80] LOAD_WAIT(entity=EventEntity)
  2: 0x0201 [0x32] ExtData[1]->MainSpeed = 13* * 0.1
  3: 0x0204 [0x1F] MOVE_ENTITY: EventEntity moves to X=-180.914*, Z=-830.563*, Y=-4.886*
  4: 0x020C [0x1F] MOVE_ENTITY: Update entity position (mode=1)
  5: 0x020E [0x4B] UPDATE_ENTITY_YAW(entity=Wahboud (ID: 16982322/0x01032132), yaw=4.9°*)
  6: 0x0215 [0x00] END_REQSTACK()
```

### Event 65535.26

#### Metadata

| Field        | Value    |
|--------------|----------|
| Entrypoint   | 0x0216   |
| Data Size    | 15 bytes |
| Instructions | 3        |

```
      00 01 02 03 04 05 06 07  08 09 0A 0B 0C 0D 0E 0F
      -- -- -- -- -- -- -- --  -- -- -- -- -- -- -- --
0210:                   37 47  80 48 80 49 80 4A 80 80        7G.H.I.J..
0220: F8 FF FF 7F 00                                    .....           
```

#### Opcodes

```
  0: 0x0216 [0x37] UPDATE_EVENT_POSITION_AND_DIR: x=-316.233*, z=-339.348*, y=-9.472*, direction=168.9°*
  1: 0x021F [0x80] LOAD_WAIT(entity=EventEntity)
  2: 0x0224 [0x00] END_REQSTACK()
```

### Event 65535.27

#### Metadata

| Field        | Value    |
|--------------|----------|
| Entrypoint   | 0x0225   |
| Data Size    | 14 bytes |
| Instructions | 4        |

```
      00 01 02 03 04 05 06 07  08 09 0A 0B 0C 0D 0E 0F
      -- -- -- -- -- -- -- --  -- -- -- -- -- -- -- --
0220:                32 04 80  1F 00 4B 80 4C 80 4D 80       2....K.L.M.
0230: 1F 01 00                                          ...             
```

#### Opcodes

```
  0: 0x0225 [0x32] ExtData[1]->MainSpeed = 40* * 0.1
  1: 0x0228 [0x1F] MOVE_ENTITY: EventEntity moves to X=-334.804*, Z=-341.912*, Y=-9.252*
  2: 0x0230 [0x1F] MOVE_ENTITY: Update entity position (mode=1)
  3: 0x0232 [0x00] END_REQSTACK()
```

### Event 800

#### Metadata

| Field        | Value   |
|--------------|---------|
| Entrypoint   | 0x0233  |
| Data Size    | 1 bytes |
| Instructions | 1       |

```
      00 01 02 03 04 05 06 07  08 09 0A 0B 0C 0D 0E 0F
      -- -- -- -- -- -- -- --  -- -- -- -- -- -- -- --
0230:          00                                          .            
```

#### Opcodes

```
  0: 0x0233 [0x00] END_REQSTACK()
```

### Event 65535.28

#### Metadata

| Field        | Value    |
|--------------|----------|
| Entrypoint   | 0x0234   |
| Data Size    | 15 bytes |
| Instructions | 3        |

```
      00 01 02 03 04 05 06 07  08 09 0A 0B 0C 0D 0E 0F
      -- -- -- -- -- -- -- --  -- -- -- -- -- -- -- --
0230:             37 4E 80 4F  80 1B 80 50 80 80 F8 FF      7N.O...P....
0240: FF 7F 00                                          ...             
```

#### Opcodes

```
  0: 0x0234 [0x37] UPDATE_EVENT_POSITION_AND_DIR: x=-12.298*, z=27.161*, y=-5.999*, direction=296.9°*
  1: 0x023D [0x80] LOAD_WAIT(entity=EventEntity)
  2: 0x0242 [0x00] END_REQSTACK()
```

### Event 65535.29

#### Metadata

| Field        | Value    |
|--------------|----------|
| Entrypoint   | 0x0243   |
| Data Size    | 24 bytes |
| Instructions | 6        |

```
      00 01 02 03 04 05 06 07  08 09 0A 0B 0C 0D 0E 0F
      -- -- -- -- -- -- -- --  -- -- -- -- -- -- -- --
0240:          32 04 80 1F 00  51 80 52 80 0E 80 1F 01     2....Q.R.....
0250: 1F 00 53 80 54 80 1B 80  1F 01 00                 ..S.T......     
```

#### Opcodes

```
  0: 0x0243 [0x32] ExtData[1]->MainSpeed = 40* * 0.1
  1: 0x0246 [0x1F] MOVE_ENTITY: EventEntity moves to X=-13.736*, Z=26.520*, Y=-6.000*
  2: 0x024E [0x1F] MOVE_ENTITY: Update entity position (mode=1)
  3: 0x0250 [0x1F] MOVE_ENTITY: EventEntity moves to X=-22.038*, Z=26.546*, Y=-5.999*
  4: 0x0258 [0x1F] MOVE_ENTITY: Update entity position (mode=1)
  5: 0x025A [0x00] END_REQSTACK()
```

### Event 803

#### Metadata

| Field        | Value   |
|--------------|---------|
| Entrypoint   | 0x025B  |
| Data Size    | 1 bytes |
| Instructions | 1       |

```
      00 01 02 03 04 05 06 07  08 09 0A 0B 0C 0D 0E 0F
      -- -- -- -- -- -- -- --  -- -- -- -- -- -- -- --
0250:                                   00                         .    
```

#### Opcodes

```
  0: 0x025B [0x00] END_REQSTACK()
```

### Event 65535.30

#### Metadata

| Field        | Value    |
|--------------|----------|
| Entrypoint   | 0x025C   |
| Data Size    | 15 bytes |
| Instructions | 3        |

```
      00 01 02 03 04 05 06 07  08 09 0A 0B 0C 0D 0E 0F
      -- -- -- -- -- -- -- --  -- -- -- -- -- -- -- --
0250:                                      37 55 80 56              7U.V
0260: 80 57 80 58 80 80 F8 FF  FF 7F 00                 .W.X.......     
```

#### Opcodes

```
  0: 0x025C [0x37] UPDATE_EVENT_POSITION_AND_DIR: x=-149.523*, z=-1.252*, y=1.800*, direction=12.1°*
  1: 0x0265 [0x80] LOAD_WAIT(entity=EventEntity)
  2: 0x026A [0x00] END_REQSTACK()
```

### Event 65535.31

#### Metadata

| Field        | Value    |
|--------------|----------|
| Entrypoint   | 0x026B   |
| Data Size    | 24 bytes |
| Instructions | 3        |

```
      00 01 02 03 04 05 06 07  08 09 0A 0B 0C 0D 0E 0F
      -- -- -- -- -- -- -- --  -- -- -- -- -- -- -- --
0260:                                   95 02 80 B6 0B             .....
0270: 27 80 59 80 02 80 5A 80  5A 80 5A 80 5A 80 21 80  '.Y...Z.Z.Z.Z.!.
0280: 02 80 00                                          ...             
```

#### Opcodes

```
  0: 0x026B [0x95] SETUP_EVENT_NPC: Prepare NPC for event (Render.Flags3 = 0*)
  1: 0x026E [0xB6] ENTITY_APPEARANCE_HANDLER(case=Full entity look, race=3*, hair=5*, head=0*, body=15*, hands=15*, legs=15*, feet=15*, main=270*, sub=0*)
  2: 0x0282 [0x00] END_REQSTACK()
```

### Event 65535.32

#### Metadata

| Field        | Value    |
|--------------|----------|
| Entrypoint   | 0x0283   |
| Data Size    | 14 bytes |
| Instructions | 4        |

```
      00 01 02 03 04 05 06 07  08 09 0A 0B 0C 0D 0E 0F
      -- -- -- -- -- -- -- --  -- -- -- -- -- -- -- --
0280:          32 07 80 1F 00  5B 80 5C 80 5D 80 1F 01     2....[.\.]...
0290: 00                                                .               
```

#### Opcodes

```
  0: 0x0283 [0x32] ExtData[1]->MainSpeed = 13* * 0.1
  1: 0x0286 [0x1F] MOVE_ENTITY: EventEntity moves to X=-141.442*, Z=-1.787*, Y=1.999*
  2: 0x028E [0x1F] MOVE_ENTITY: Update entity position (mode=1)
  3: 0x0290 [0x00] END_REQSTACK()
```

### Event 65535.33

#### Metadata

| Field        | Value    |
|--------------|----------|
| Entrypoint   | 0x0291   |
| Data Size    | 14 bytes |
| Instructions | 4        |

```
      00 01 02 03 04 05 06 07  08 09 0A 0B 0C 0D 0E 0F
      -- -- -- -- -- -- -- --  -- -- -- -- -- -- -- --
0290:    32 07 80 1F 00 5E 80  5F 80 60 80 1F 01 00      2....^._.`.... 
```

#### Opcodes

```
  0: 0x0291 [0x32] ExtData[1]->MainSpeed = 13* * 0.1
  1: 0x0294 [0x1F] MOVE_ENTITY: EventEntity moves to X=-128.532*, Z=-1.272*, Y=1.107*
  2: 0x029C [0x1F] MOVE_ENTITY: Update entity position (mode=1)
  3: 0x029E [0x00] END_REQSTACK()
```

### Event 65535.34

#### Metadata

| Field        | Value    |
|--------------|----------|
| Entrypoint   | 0x029F   |
| Data Size    | 15 bytes |
| Instructions | 3        |

```
      00 01 02 03 04 05 06 07  08 09 0A 0B 0C 0D 0E 0F
      -- -- -- -- -- -- -- --  -- -- -- -- -- -- -- --
0290:                                               37                 7
02A0: 61 80 62 80 1B 80 63 80  80 F8 FF FF 7F 00        a.b...c.......  
```

#### Opcodes

```
  0: 0x029F [0x37] UPDATE_EVENT_POSITION_AND_DIR: x=-22.370*, z=27.333*, y=-5.999*, direction=359.1°*
  1: 0x02A8 [0x80] LOAD_WAIT(entity=EventEntity)
  2: 0x02AD [0x00] END_REQSTACK()
```

### Event 65535.35

#### Metadata

| Field        | Value    |
|--------------|----------|
| Entrypoint   | 0x02AE   |
| Data Size    | 40 bytes |
| Instructions | 8        |

```
      00 01 02 03 04 05 06 07  08 09 0A 0B 0C 0D 0E 0F
      -- -- -- -- -- -- -- --  -- -- -- -- -- -- -- --
02A0:                                            32 04                2.
02B0: 80 1F 00 64 80 65 80 1B  80 1F 01 1E AE 21 03 01  ...d.e.......!..
02C0: 1C 66 80 66 67 80 32 21  03 01 32 21 03 01 73 68  .f.fg.2!..2!..sh
02D0: 61 30 1C 2D 80 00                                 a0.-..          
```

#### Opcodes

```
  0: 0x02AE [0x32] ExtData[1]->MainSpeed = 40* * 0.1
  1: 0x02B1 [0x1F] MOVE_ENTITY: EventEntity moves to X=-16.200*, Z=26.396*, Y=-5.999*
  2: 0x02B9 [0x1F] MOVE_ENTITY: Update entity position (mode=1)
  3: 0x02BB [0x1E] EventEntity looks at Mishhar (ID: 16982446/0x010321AE) and starts talking
  4: 0x02C0 [0x1C] WAIT(90* ticks)
  5: 0x02C3 [0x66] LOAD_EXT_SCHEDULER_MAIN: Load scheduler "sha0" with entities [Wahboud (ID: 16982322/0x01032132), Wahboud (ID: 16982322/0x01032132)], work=9*
  6: 0x02D2 [0x1C] WAIT(120* ticks)
  7: 0x02D5 [0x00] END_REQSTACK()
```

### Event 836

#### Metadata

| Field        | Value   |
|--------------|---------|
| Entrypoint   | 0x02D6  |
| Data Size    | 1 bytes |
| Instructions | 1       |

```
      00 01 02 03 04 05 06 07  08 09 0A 0B 0C 0D 0E 0F
      -- -- -- -- -- -- -- --  -- -- -- -- -- -- -- --
02D0:                   00                                    .         
```

#### Opcodes

```
  0: 0x02D6 [0x00] END_REQSTACK()
```

### Event 65535.36

#### Metadata

| Field        | Value    |
|--------------|----------|
| Entrypoint   | 0x02D7   |
| Data Size    | 14 bytes |
| Instructions | 4        |

```
      00 01 02 03 04 05 06 07  08 09 0A 0B 0C 0D 0E 0F
      -- -- -- -- -- -- -- --  -- -- -- -- -- -- -- --
02D0:                      32  07 80 1F 00 68 80 69 80         2....h.i.
02E0: 02 80 1F 01 00                                    .....           
```

#### Opcodes

```
  0: 0x02D7 [0x32] ExtData[1]->MainSpeed = 13* * 0.1
  1: 0x02DA [0x1F] MOVE_ENTITY: EventEntity moves to X=10.771*, Z=18.514*, Y=0.000*
  2: 0x02E2 [0x1F] MOVE_ENTITY: Update entity position (mode=1)
  3: 0x02E4 [0x00] END_REQSTACK()
```

### Event 838

#### Metadata

| Field        | Value   |
|--------------|---------|
| Entrypoint   | 0x02E5  |
| Data Size    | 1 bytes |
| Instructions | 1       |

```
      00 01 02 03 04 05 06 07  08 09 0A 0B 0C 0D 0E 0F
      -- -- -- -- -- -- -- --  -- -- -- -- -- -- -- --
02E0:                00                                      .          
```

#### Opcodes

```
  0: 0x02E5 [0x00] END_REQSTACK()
```

### Event 65535.37

#### Metadata

| Field        | Value    |
|--------------|----------|
| Entrypoint   | 0x02E6   |
| Data Size    | 22 bytes |
| Instructions | 6        |

```
      00 01 02 03 04 05 06 07  08 09 0A 0B 0C 0D 0E 0F
      -- -- -- -- -- -- -- --  -- -- -- -- -- -- -- --
02E0:                   32 07  80 1F 00 6A 80 6B 80 02        2....j.k..
02F0: 80 1F 01 1E 31 21 03 01  1C 08 80 00              ....1!......    
```

#### Opcodes

```
  0: 0x02E6 [0x32] ExtData[1]->MainSpeed = 13* * 0.1
  1: 0x02E9 [0x1F] MOVE_ENTITY: EventEntity moves to X=19.197*, Z=20.440*, Y=0.000*
  2: 0x02F1 [0x1F] MOVE_ENTITY: Update entity position (mode=1)
  3: 0x02F3 [0x1E] EventEntity looks at Foudeel (ID: 16982321/0x01032131) and starts talking
  4: 0x02F8 [0x1C] WAIT(30* ticks)
  5: 0x02FB [0x00] END_REQSTACK()
```

### Event 65535.38

#### Metadata

| Field        | Value    |
|--------------|----------|
| Entrypoint   | 0x02FC   |
| Data Size    | 14 bytes |
| Instructions | 4        |

```
      00 01 02 03 04 05 06 07  08 09 0A 0B 0C 0D 0E 0F
      -- -- -- -- -- -- -- --  -- -- -- -- -- -- -- --
02F0:                                      32 07 80 1F              2...
0300: 00 6C 80 6D 80 02 80 1F  01 00                    .l.m......      
```

#### Opcodes

```
  0: 0x02FC [0x32] ExtData[1]->MainSpeed = 13* * 0.1
  1: 0x02FF [0x1F] MOVE_ENTITY: EventEntity moves to X=12.484*, Z=17.859*, Y=0.000*
  2: 0x0307 [0x1F] MOVE_ENTITY: Update entity position (mode=1)
  3: 0x0309 [0x00] END_REQSTACK()
```

### Event 840

#### Metadata

| Field        | Value   |
|--------------|---------|
| Entrypoint   | 0x030A  |
| Data Size    | 1 bytes |
| Instructions | 1       |

```
      00 01 02 03 04 05 06 07  08 09 0A 0B 0C 0D 0E 0F
      -- -- -- -- -- -- -- --  -- -- -- -- -- -- -- --
0300:                                00                           .     
```

#### Opcodes

```
  0: 0x030A [0x00] END_REQSTACK()
```

### Event 65535.39

#### Metadata

| Field        | Value    |
|--------------|----------|
| Entrypoint   | 0x030B   |
| Data Size    | 14 bytes |
| Instructions | 4        |

```
      00 01 02 03 04 05 06 07  08 09 0A 0B 0C 0D 0E 0F
      -- -- -- -- -- -- -- --  -- -- -- -- -- -- -- --
0300:                                   32 07 80 1F 00             2....
0310: 6E 80 6F 80 70 80 1F 01  00                       n.o.p....       
```

#### Opcodes

```
  0: 0x030B [0x32] ExtData[1]->MainSpeed = 13* * 0.1
  1: 0x030E [0x1F] MOVE_ENTITY: EventEntity moves to X=68.750*, Z=-128.828*, Y=-6.499*
  2: 0x0316 [0x1F] MOVE_ENTITY: Update entity position (mode=1)
  3: 0x0318 [0x00] END_REQSTACK()
```

### Event 65535.40

#### Metadata

| Field        | Value    |
|--------------|----------|
| Entrypoint   | 0x0319   |
| Data Size    | 24 bytes |
| Instructions | 6        |

```
      00 01 02 03 04 05 06 07  08 09 0A 0B 0C 0D 0E 0F
      -- -- -- -- -- -- -- --  -- -- -- -- -- -- -- --
0310:                             32 07 80 1F 00 71 80           2....q.
0320: 72 80 0E 80 1F 01 1F 00  73 80 74 80 0E 80 1F 01  r.......s.t.....
0330: 00                                                .               
```

#### Opcodes

```
  0: 0x0319 [0x32] ExtData[1]->MainSpeed = 13* * 0.1
  1: 0x031C [0x1F] MOVE_ENTITY: EventEntity moves to X=77.874*, Z=-123.245*, Y=-6.000*
  2: 0x0324 [0x1F] MOVE_ENTITY: Update entity position (mode=1)
  3: 0x0326 [0x1F] MOVE_ENTITY: EventEntity moves to X=77.661*, Z=-119.698*, Y=-6.000*
  4: 0x032E [0x1F] MOVE_ENTITY: Update entity position (mode=1)
  5: 0x0330 [0x00] END_REQSTACK()
```

### Event 843

#### Metadata

| Field        | Value   |
|--------------|---------|
| Entrypoint   | 0x0331  |
| Data Size    | 1 bytes |
| Instructions | 1       |

```
      00 01 02 03 04 05 06 07  08 09 0A 0B 0C 0D 0E 0F
      -- -- -- -- -- -- -- --  -- -- -- -- -- -- -- --
0330:    00                                              .              
```

#### Opcodes

```
  0: 0x0331 [0x00] END_REQSTACK()
```

### Event 845

#### Metadata

| Field        | Value   |
|--------------|---------|
| Entrypoint   | 0x0332  |
| Data Size    | 1 bytes |
| Instructions | 1       |

```
      00 01 02 03 04 05 06 07  08 09 0A 0B 0C 0D 0E 0F
      -- -- -- -- -- -- -- --  -- -- -- -- -- -- -- --
0330:       00                                            .             
```

#### Opcodes

```
  0: 0x0332 [0x00] END_REQSTACK()
```

### Event 65535.41

#### Metadata

| Field        | Value    |
|--------------|----------|
| Entrypoint   | 0x0333   |
| Data Size    | 14 bytes |
| Instructions | 4        |

```
      00 01 02 03 04 05 06 07  08 09 0A 0B 0C 0D 0E 0F
      -- -- -- -- -- -- -- --  -- -- -- -- -- -- -- --
0330:          32 07 80 1F 00  75 80 76 80 02 80 1F 01     2....u.v.....
0340: 00                                                .               
```

#### Opcodes

```
  0: 0x0333 [0x32] ExtData[1]->MainSpeed = 13* * 0.1
  1: 0x0336 [0x1F] MOVE_ENTITY: EventEntity moves to X=20.003*, Z=1.680*, Y=0.000*
  2: 0x033E [0x1F] MOVE_ENTITY: Update entity position (mode=1)
  3: 0x0340 [0x00] END_REQSTACK()
```

### Event 65535.42

#### Metadata

| Field        | Value    |
|--------------|----------|
| Entrypoint   | 0x0341   |
| Data Size    | 14 bytes |
| Instructions | 4        |

```
      00 01 02 03 04 05 06 07  08 09 0A 0B 0C 0D 0E 0F
      -- -- -- -- -- -- -- --  -- -- -- -- -- -- -- --
0340:    32 07 80 1F 00 77 80  78 80 02 80 1F 01 00      2....w.x...... 
```

#### Opcodes

```
  0: 0x0341 [0x32] ExtData[1]->MainSpeed = 13* * 0.1
  1: 0x0344 [0x1F] MOVE_ENTITY: EventEntity moves to X=21.553*, Z=8.013*, Y=0.000*
  2: 0x034C [0x1F] MOVE_ENTITY: Update entity position (mode=1)
  3: 0x034E [0x00] END_REQSTACK()
```

### Event 65535.43

#### Metadata

| Field        | Value    |
|--------------|----------|
| Entrypoint   | 0x034F   |
| Data Size    | 25 bytes |
| Instructions | 7        |

```
      00 01 02 03 04 05 06 07  08 09 0A 0B 0C 0D 0E 0F
      -- -- -- -- -- -- -- --  -- -- -- -- -- -- -- --
0340:                                               32                 2
0350: 04 80 1F 00 79 80 7A 80  02 80 1F 01 1C 7B 80 1E  ....y.z......{..
0360: 30 21 03 01 1C 08 80 00                           0!......        
```

#### Opcodes

```
  0: 0x034F [0x32] ExtData[1]->MainSpeed = 40* * 0.1
  1: 0x0352 [0x1F] MOVE_ENTITY: EventEntity moves to X=20.088*, Z=18.872*, Y=0.000*
  2: 0x035A [0x1F] MOVE_ENTITY: Update entity position (mode=1)
  3: 0x035C [0x1C] WAIT(60* ticks)
  4: 0x035F [0x1E] EventEntity looks at Bashraf (ID: 16982320/0x01032130) and starts talking
  5: 0x0364 [0x1C] WAIT(30* ticks)
  6: 0x0367 [0x00] END_REQSTACK()
```

### Event 864

#### Metadata

| Field        | Value   |
|--------------|---------|
| Entrypoint   | 0x0368  |
| Data Size    | 7 bytes |
| Instructions | 2       |

```
      00 01 02 03 04 05 06 07  08 09 0A 0B 0C 0D 0E 0F
      -- -- -- -- -- -- -- --  -- -- -- -- -- -- -- --
0360:                          92 01 F8 FF FF 7F 00             ....... 
```

#### Opcodes

```
  0: 0x0368 [0x92] EventEntity->Render.Flags3 ^= 0x01
  1: 0x036E [0x00] END_REQSTACK()
```

### Event 65535.44

#### Metadata

| Field        | Value    |
|--------------|----------|
| Entrypoint   | 0x036F   |
| Data Size    | 19 bytes |
| Instructions | 5        |

```
      00 01 02 03 04 05 06 07  08 09 0A 0B 0C 0D 0E 0F
      -- -- -- -- -- -- -- --  -- -- -- -- -- -- -- --
0360:                                               32                 2
0370: 07 80 1F 00 7C 80 7D 80  0E 80 1F 01 1E 54 20 03  ....|.}......T .
0380: 01 00                                             ..              
```

#### Opcodes

```
  0: 0x036F [0x32] ExtData[1]->MainSpeed = 13* * 0.1
  1: 0x0372 [0x1F] MOVE_ENTITY: EventEntity moves to X=78.677*, Z=-134.011*, Y=-6.000*
  2: 0x037A [0x1F] MOVE_ENTITY: Update entity position (mode=1)
  3: 0x037C [0x1E] EventEntity looks at Yafaaf (ID: 16982100/0x01032054) and starts talking
  4: 0x0381 [0x00] END_REQSTACK()
```

### Event 65535.45

#### Metadata

| Field        | Value    |
|--------------|----------|
| Entrypoint   | 0x0382   |
| Data Size    | 19 bytes |
| Instructions | 5        |

```
      00 01 02 03 04 05 06 07  08 09 0A 0B 0C 0D 0E 0F
      -- -- -- -- -- -- -- --  -- -- -- -- -- -- -- --
0380:       32 07 80 1F 00 7E  80 7F 80 0E 80 1F 01 1E    2....~........
0390: 54 20 03 01 00                                    T ...           
```

#### Opcodes

```
  0: 0x0382 [0x32] ExtData[1]->MainSpeed = 13* * 0.1
  1: 0x0385 [0x1F] MOVE_ENTITY: EventEntity moves to X=78.268*, Z=-135.273*, Y=-6.000*
  2: 0x038D [0x1F] MOVE_ENTITY: Update entity position (mode=1)
  3: 0x038F [0x1E] EventEntity looks at Yafaaf (ID: 16982100/0x01032054) and starts talking
  4: 0x0394 [0x00] END_REQSTACK()
```

### Event 65535.46

#### Metadata

| Field        | Value    |
|--------------|----------|
| Entrypoint   | 0x0395   |
| Data Size    | 26 bytes |
| Instructions | 6        |

```
      00 01 02 03 04 05 06 07  08 09 0A 0B 0C 0D 0E 0F
      -- -- -- -- -- -- -- --  -- -- -- -- -- -- -- --
0390:                32 07 80  1F 00 80 80 81 80 0E 80       2..........
03A0: 1F 01 1E 54 20 03 01 27  05 30 21 03 01 3D 00     ...T ..'.0!..=. 
```

#### Opcodes

```
  0: 0x0395 [0x32] ExtData[1]->MainSpeed = 13* * 0.1
  1: 0x0398 [0x1F] MOVE_ENTITY: EventEntity moves to X=78.167*, Z=-136.256*, Y=-6.000*
  2: 0x03A0 [0x1F] MOVE_ENTITY: Update entity position (mode=1)
  3: 0x03A2 [0x1E] EventEntity looks at Yafaaf (ID: 16982100/0x01032054) and starts talking
  4: 0x03A7 [0x27] REQ_SET(priority=0x05, entity_id=Bashraf (ID: 16982320/0x01032130), tag_num=0x3D)
  5: 0x03AE [0x00] END_REQSTACK()
```

### Event 65535.47

#### Metadata

| Field        | Value    |
|--------------|----------|
| Entrypoint   | 0x03AF   |
| Data Size    | 19 bytes |
| Instructions | 5        |

```
      00 01 02 03 04 05 06 07  08 09 0A 0B 0C 0D 0E 0F
      -- -- -- -- -- -- -- --  -- -- -- -- -- -- -- --
03A0:                                               32                 2
03B0: 07 80 1F 00 82 80 83 80  0E 80 1F 01 1E 54 20 03  .............T .
03C0: 01 00                                             ..              
```

#### Opcodes

```
  0: 0x03AF [0x32] ExtData[1]->MainSpeed = 13* * 0.1
  1: 0x03B2 [0x1F] MOVE_ENTITY: EventEntity moves to X=77.377*, Z=-137.981*, Y=-6.000*
  2: 0x03BA [0x1F] MOVE_ENTITY: Update entity position (mode=1)
  3: 0x03BC [0x1E] EventEntity looks at Yafaaf (ID: 16982100/0x01032054) and starts talking
  4: 0x03C1 [0x00] END_REQSTACK()
```

### Event 65535.48

#### Metadata

| Field        | Value    |
|--------------|----------|
| Entrypoint   | 0x03C2   |
| Data Size    | 14 bytes |
| Instructions | 4        |

```
      00 01 02 03 04 05 06 07  08 09 0A 0B 0C 0D 0E 0F
      -- -- -- -- -- -- -- --  -- -- -- -- -- -- -- --
03C0:       32 07 80 1F 00 84  80 85 80 0E 80 1F 01 00    2.............
```

#### Opcodes

```
  0: 0x03C2 [0x32] ExtData[1]->MainSpeed = 13* * 0.1
  1: 0x03C5 [0x1F] MOVE_ENTITY: EventEntity moves to X=82.702*, Z=-135.689*, Y=-6.000*
  2: 0x03CD [0x1F] MOVE_ENTITY: Update entity position (mode=1)
  3: 0x03CF [0x00] END_REQSTACK()
```

### Event 872

#### Metadata

| Field        | Value   |
|--------------|---------|
| Entrypoint   | 0x03D0  |
| Data Size    | 7 bytes |
| Instructions | 2       |

```
      00 01 02 03 04 05 06 07  08 09 0A 0B 0C 0D 0E 0F
      -- -- -- -- -- -- -- --  -- -- -- -- -- -- -- --
03D0: 92 01 F8 FF FF 7F 00                              .......         
```

#### Opcodes

```
  0: 0x03D0 [0x92] EventEntity->Render.Flags3 ^= 0x01
  1: 0x03D6 [0x00] END_REQSTACK()
```
