# 16982319 - Tehf Kimasnahya

## Common Data

| Field            | Value                         |
|------------------|-------------------------------|
| Zone             | Aht Urhgan Whitegate (ID: 50) |
| Block Size       | 964 bytes                     |
| Total Events     | 35                            |
| References Count | 59                            |

## List of Events

| Event ID                   | Entrypoint   |   Size |   Instructions |
|----------------------------|--------------|--------|----------------|
| [65535](#event-65535)      | 0x0000       |      1 |              1 |
| [520](#event-520)          | 0x0001       |      1 |              1 |
| [65535.1](#event-655351)   | 0x0002       |     25 |              7 |
| [65535.2](#event-655352)   | 0x001B       |     22 |              6 |
| [65535.3](#event-655353)   | 0x0031       |     21 |              5 |
| [521](#event-521)          | 0x0046       |     37 |              9 |
| [525](#event-525)          | 0x006B       |      1 |              1 |
| [65535.4](#event-655354)   | 0x006C       |     19 |              5 |
| [65535.5](#event-655355)   | 0x007F       |     22 |              6 |
| [65535.6](#event-655356)   | 0x0095       |     22 |              6 |
| [65535.7](#event-655357)   | 0x00AB       |     15 |              3 |
| [65535.8](#event-655358)   | 0x00BA       |     15 |              3 |
| [534](#event-534)          | 0x00C9       |     14 |              6 |
| [526](#event-526)          | 0x00D7       |      1 |              1 |
| [65535.9](#event-655359)   | 0x00D8       |     20 |              4 |
| [65535.10](#event-6553510) | 0x00EC       |     38 |              8 |
| [65535.11](#event-6553511) | 0x0112       |     22 |              6 |
| [65535.12](#event-6553512) | 0x0128       |     14 |              4 |
| [527](#event-527)          | 0x0136       |      1 |              1 |
| [539](#event-539)          | 0x0137       |     14 |              6 |
| [528](#event-528)          | 0x0145       |      1 |              1 |
| [65535.13](#event-6553513) | 0x0146       |    115 |             15 |
| [65535.14](#event-6553514) | 0x01B9       |     24 |              6 |
| [529](#event-529)          | 0x01D1       |     29 |              7 |
| [594](#event-594)          | 0x01EE       |      1 |              1 |
| [774](#event-774)          | 0x01EF       |      7 |              2 |
| [836](#event-836)          | 0x01F6       |      1 |              1 |
| [65535.15](#event-6553515) | 0x01F7       |     14 |              4 |
| [65535.16](#event-6553516) | 0x0205       |     24 |              6 |
| [840](#event-840)          | 0x021D       |      1 |              1 |
| [65535.17](#event-6553517) | 0x021E       |     14 |              4 |
| [843](#event-843)          | 0x022C       |      1 |              1 |
| [844](#event-844)          | 0x022D       |      6 |              4 |
| [845](#event-845)          | 0x0233       |      1 |              1 |
| [867](#event-867)          | 0x0234       |      7 |              2 |

## DAT References (imed_data)

|   Index | Hex Value   |   Dec Value |
|---------|-------------|-------------|
|       0 | 0x000D      |          13 |
|       1 | 0xFFFE9AF4  |  4294875892 |
|       2 | 0x1823      |        6179 |
|       3 | 0x0000      |           0 |
|       4 | 0x003C      |          60 |
|       5 | 0x001E      |          30 |
|       6 | 0xFFFE93C1  |  4294874049 |
|       7 | 0x1719      |        5913 |
|       8 | 0xFFFEA0D7  |  4294877399 |
|       9 | 0x1837      |        6199 |
|      10 | 0x03A1      |         929 |
|      11 | 0x0304      |         772 |
|      12 | 0x1391      |        5009 |
|      13 | 0x0008      |           8 |
|      14 | 0x00B4      |         180 |
|      15 | 0xFFFEA43C  |  4294878268 |
|      16 | 0x16C6      |        5830 |
|      17 | 0xFFFE9E80  |  4294876800 |
|      18 | 0x1665      |        5733 |
|      19 | 0xF3B4      |       62388 |
|      20 | 0xFFFF0B44  |  4294904644 |
|      21 | 0x0370      |         880 |
|      22 | 0x13BF      |        5055 |
|      23 | 0xDB64      |       56164 |
|      24 | 0xFFFED34B  |  4294890315 |
|      25 | 0x0D95      |        3477 |
|      26 | 0x0028      |          40 |
|      27 | 0xD705      |       55045 |
|      28 | 0xFFFEC930  |  4294887728 |
|      29 | 0xCF13      |       53011 |
|      30 | 0xFFFECB9F  |  4294888351 |
|      31 | 0x98EB      |       39147 |
|      32 | 0xFFFEC380  |  4294886272 |
|      33 | 0x0838      |        2104 |
|      34 | 0xFFFFF7EC  |  4294965228 |
|      35 | 0xFFFEC722  |  4294887202 |
|      36 | 0xFFFFBCFB  |  4294950139 |
|      37 | 0xFFFEC874  |  4294887540 |
|      38 | 0x13EC      |        5100 |
|      39 | 0x0032      |          50 |
|      40 | 0x005A      |          90 |
|      41 | 0x0034      |          52 |
|      42 | 0x0096      |         150 |
|      43 | 0x0015      |          21 |
|      44 | 0xFFFE9D2A  |  4294876458 |
|      45 | 0x123A      |        4666 |
|      46 | 0xFFFE89C3  |  4294871491 |
|      47 | 0x1271      |        4721 |
|      48 | 0x13F3      |        5107 |
|      49 | 0x3CCE      |       15566 |
|      50 | 0x3FC7      |       16327 |
|      51 | 0x6057      |       24663 |
|      52 | 0x03A6      |         934 |
|      53 | 0x6AB7      |       27319 |
|      54 | 0x032C      |         812 |
|      55 | 0x13152     |       78162 |
|      56 | 0xFFFE2BCD  |  4294847437 |
|      57 | 0xFFFFE890  |  4294961296 |
|      58 | 0x1C22      |        7202 |

## String References

- **5009**: Ekhu Pesshyadha has the $3. I have faith in you!t Go get 'em, [tiger/girl]!
- **5055**: I wonder if the old lady's having any luck with the potion...
- **5100**: Weird. I can't think of anything I want you to get for me! This is a first!
- **5107**: That Zabahf guy is always hanging around herrre, so I might ask him to be my bodyguard again someday.
- **7202**: I already told you! It was all an accident. If I could go back and change everything, I would, but I can't, so I won't!

## Events

### Event 65535

#### Metadata

| Field        | Value   |
|--------------|---------|
| Entrypoint   | 0x0000  |
| Data Size    | 1 bytes |
| Instructions | 1       |

```
      00 01 02 03 04 05 06 07  08 09 0A 0B 0C 0D 0E 0F
      -- -- -- -- -- -- -- --  -- -- -- -- -- -- -- --
0000: 00                                                .               
```

#### Opcodes

```
  0: 0x0000 [0x00] END_REQSTACK()
```

### Event 520

#### Metadata

| Field        | Value   |
|--------------|---------|
| Entrypoint   | 0x0001  |
| Data Size    | 1 bytes |
| Instructions | 1       |

```
      00 01 02 03 04 05 06 07  08 09 0A 0B 0C 0D 0E 0F
      -- -- -- -- -- -- -- --  -- -- -- -- -- -- -- --
0000:    00                                              .              
```

#### Opcodes

```
  0: 0x0001 [0x00] END_REQSTACK()
```

### Event 65535.1

#### Metadata

| Field        | Value    |
|--------------|----------|
| Entrypoint   | 0x0002   |
| Data Size    | 25 bytes |
| Instructions | 7        |

```
      00 01 02 03 04 05 06 07  08 09 0A 0B 0C 0D 0E 0F
      -- -- -- -- -- -- -- --  -- -- -- -- -- -- -- --
0000:       32 00 80 1F 00 01  80 02 80 03 80 1F 01 1C    2.............
0010: 04 80 1E 2C 21 03 01 1C  05 80 00                 ...,!......     
```

#### Opcodes

```
  0: 0x0002 [0x32] ExtData[1]->MainSpeed = 13* * 0.1
  1: 0x0005 [0x1F] MOVE_ENTITY: EventEntity moves to X=-91.404*, Z=6.179*, Y=0.000*
  2: 0x000D [0x1F] MOVE_ENTITY: Update entity position (mode=1)
  3: 0x000F [0x1C] WAIT(60* ticks)
  4: 0x0012 [0x1E] EventEntity looks at Zabahf (ID: 16982316/0x0103212C) and starts talking
  5: 0x0017 [0x1C] WAIT(30* ticks)
  6: 0x001A [0x00] END_REQSTACK()
```

### Event 65535.2

#### Metadata

| Field        | Value    |
|--------------|----------|
| Entrypoint   | 0x001B   |
| Data Size    | 22 bytes |
| Instructions | 6        |

```
      00 01 02 03 04 05 06 07  08 09 0A 0B 0C 0D 0E 0F
      -- -- -- -- -- -- -- --  -- -- -- -- -- -- -- --
0010:                                   32 00 80 1F 00             2....
0020: 06 80 07 80 03 80 1F 01  1E F0 FF FF 7F 1C 05 80  ................
0030: 00                                                .               
```

#### Opcodes

```
  0: 0x001B [0x32] ExtData[1]->MainSpeed = 13* * 0.1
  1: 0x001E [0x1F] MOVE_ENTITY: EventEntity moves to X=-93.247*, Z=5.913*, Y=0.000*
  2: 0x0026 [0x1F] MOVE_ENTITY: Update entity position (mode=1)
  3: 0x0028 [0x1E] EventEntity looks at LocalPlayer and starts talking
  4: 0x002D [0x1C] WAIT(30* ticks)
  5: 0x0030 [0x00] END_REQSTACK()
```

### Event 65535.3

#### Metadata

| Field        | Value    |
|--------------|----------|
| Entrypoint   | 0x0031   |
| Data Size    | 21 bytes |
| Instructions | 5        |

```
      00 01 02 03 04 05 06 07  08 09 0A 0B 0C 0D 0E 0F
      -- -- -- -- -- -- -- --  -- -- -- -- -- -- -- --
0030:    32 00 80 1F 00 08 80  09 80 03 80 1F 01 4B 2F   2............K/
0040: 21 03 01 0A 80 00                                 !.....          
```

#### Opcodes

```
  0: 0x0031 [0x32] ExtData[1]->MainSpeed = 13* * 0.1
  1: 0x0034 [0x1F] MOVE_ENTITY: EventEntity moves to X=-89.897*, Z=6.199*, Y=0.000*
  2: 0x003C [0x1F] MOVE_ENTITY: Update entity position (mode=1)
  3: 0x003E [0x4B] UPDATE_ENTITY_YAW(entity=Tehf Kimasnahya (ID: 16982319/0x0103212F), yaw=5.1°*)
  4: 0x0045 [0x00] END_REQSTACK()
```

### Event 521

#### Metadata

| Field        | Value    |
|--------------|----------|
| Entrypoint   | 0x0046   |
| Data Size    | 37 bytes |
| Instructions | 9        |

```
      00 01 02 03 04 05 06 07  08 09 0A 0B 0C 0D 0E 0F
      -- -- -- -- -- -- -- --  -- -- -- -- -- -- -- --
0040:                   1E F0  FF FF 7F 1C 05 80 03 02        ..........
0050: 10 0B 80 1D 0C 80 23 66  0D 80 F8 FF FF 7F F8 FF  ......#f........
0060: FF 7F 75 72 65 30 1C 0E  80 21 00                 ..ure0...!.     
```

#### Opcodes

```
  0: 0x0046 [0x1E] EventEntity looks at LocalPlayer and starts talking
  1: 0x004B [0x1C] WAIT(30* ticks)
  2: 0x004E [0x03] Work_Zone[2] = 772*
  3: 0x0053 [0x1D] PRINT_EVENT_MESSAGE(message_id=5009*)
    → "Ekhu Pesshyadha has the $3. I have faith in you!t Go get 'em, [tiger/girl]!"
  4: 0x0056 [0x23] WAIT_FOR_DIALOG_INTERACTION
  5: 0x0057 [0x66] LOAD_EXT_SCHEDULER_MAIN: Load scheduler "ure0" with entities [EventEntity, EventEntity], work=8*
  6: 0x0066 [0x1C] WAIT(180* ticks)
  7: 0x0069 [0x21] END_EVENT
  8: 0x006A [0x00] END_REQSTACK()
```

### Event 525

#### Metadata

| Field        | Value   |
|--------------|---------|
| Entrypoint   | 0x006B  |
| Data Size    | 1 bytes |
| Instructions | 1       |

```
      00 01 02 03 04 05 06 07  08 09 0A 0B 0C 0D 0E 0F
      -- -- -- -- -- -- -- --  -- -- -- -- -- -- -- --
0060:                                   00                         .    
```

#### Opcodes

```
  0: 0x006B [0x00] END_REQSTACK()
```

### Event 65535.4

#### Metadata

| Field        | Value    |
|--------------|----------|
| Entrypoint   | 0x006C   |
| Data Size    | 19 bytes |
| Instructions | 5        |

```
      00 01 02 03 04 05 06 07  08 09 0A 0B 0C 0D 0E 0F
      -- -- -- -- -- -- -- --  -- -- -- -- -- -- -- --
0060:                                      32 00 80 1F              2...
0070: 00 0F 80 10 80 03 80 1F  01 1E 2A 21 03 01 00     ..........*!... 
```

#### Opcodes

```
  0: 0x006C [0x32] ExtData[1]->MainSpeed = 13* * 0.1
  1: 0x006F [0x1F] MOVE_ENTITY: EventEntity moves to X=-89.028*, Z=5.830*, Y=0.000*
  2: 0x0077 [0x1F] MOVE_ENTITY: Update entity position (mode=1)
  3: 0x0079 [0x1E] EventEntity looks at Ekhu Pesshyadha (ID: 16982314/0x0103212A) and starts talking
  4: 0x007E [0x00] END_REQSTACK()
```

### Event 65535.5

#### Metadata

| Field        | Value    |
|--------------|----------|
| Entrypoint   | 0x007F   |
| Data Size    | 22 bytes |
| Instructions | 6        |

```
      00 01 02 03 04 05 06 07  08 09 0A 0B 0C 0D 0E 0F
      -- -- -- -- -- -- -- --  -- -- -- -- -- -- -- --
0070:                                               32                 2
0080: 00 80 1F 00 08 80 09 80  03 80 1F 01 1E F0 FF FF  ................
0090: 7F 1C 05 80 00                                    .....           
```

#### Opcodes

```
  0: 0x007F [0x32] ExtData[1]->MainSpeed = 13* * 0.1
  1: 0x0082 [0x1F] MOVE_ENTITY: EventEntity moves to X=-89.897*, Z=6.199*, Y=0.000*
  2: 0x008A [0x1F] MOVE_ENTITY: Update entity position (mode=1)
  3: 0x008C [0x1E] EventEntity looks at LocalPlayer and starts talking
  4: 0x0091 [0x1C] WAIT(30* ticks)
  5: 0x0094 [0x00] END_REQSTACK()
```

### Event 65535.6

#### Metadata

| Field        | Value    |
|--------------|----------|
| Entrypoint   | 0x0095   |
| Data Size    | 22 bytes |
| Instructions | 6        |

```
      00 01 02 03 04 05 06 07  08 09 0A 0B 0C 0D 0E 0F
      -- -- -- -- -- -- -- --  -- -- -- -- -- -- -- --
0090:                32 00 80  1F 00 11 80 12 80 03 80       2..........
00A0: 1F 01 1E F0 FF FF 7F 1C  05 80 00                 ...........     
```

#### Opcodes

```
  0: 0x0095 [0x32] ExtData[1]->MainSpeed = 13* * 0.1
  1: 0x0098 [0x1F] MOVE_ENTITY: EventEntity moves to X=-90.496*, Z=5.733*, Y=0.000*
  2: 0x00A0 [0x1F] MOVE_ENTITY: Update entity position (mode=1)
  3: 0x00A2 [0x1E] EventEntity looks at LocalPlayer and starts talking
  4: 0x00A7 [0x1C] WAIT(30* ticks)
  5: 0x00AA [0x00] END_REQSTACK()
```

### Event 65535.7

#### Metadata

| Field        | Value    |
|--------------|----------|
| Entrypoint   | 0x00AB   |
| Data Size    | 15 bytes |
| Instructions | 3        |

```
      00 01 02 03 04 05 06 07  08 09 0A 0B 0C 0D 0E 0F
      -- -- -- -- -- -- -- --  -- -- -- -- -- -- -- --
00A0:                                   37 13 80 14 80             7....
00B0: 03 80 15 80 80 F8 FF FF  7F 00                    ..........      
```

#### Opcodes

```
  0: 0x00AB [0x37] UPDATE_EVENT_POSITION_AND_DIR: x=62.388*, z=-62.652*, y=0.000*, direction=77.3°*
  1: 0x00B4 [0x80] LOAD_WAIT(entity=EventEntity)
  2: 0x00B9 [0x00] END_REQSTACK()
```

### Event 65535.8

#### Metadata

| Field        | Value    |
|--------------|----------|
| Entrypoint   | 0x00BA   |
| Data Size    | 15 bytes |
| Instructions | 3        |

```
      00 01 02 03 04 05 06 07  08 09 0A 0B 0C 0D 0E 0F
      -- -- -- -- -- -- -- --  -- -- -- -- -- -- -- --
00B0:                                37 08 80 09 80 03            7.....
00C0: 80 0A 80 80 F8 FF FF 7F  00                       .........       
```

#### Opcodes

```
  0: 0x00BA [0x37] UPDATE_EVENT_POSITION_AND_DIR: x=-89.897*, z=6.199*, y=0.000*, direction=81.6°*
  1: 0x00C3 [0x80] LOAD_WAIT(entity=EventEntity)
  2: 0x00C8 [0x00] END_REQSTACK()
```

### Event 534

#### Metadata

| Field        | Value    |
|--------------|----------|
| Entrypoint   | 0x00C9   |
| Data Size    | 14 bytes |
| Instructions | 6        |

```
      00 01 02 03 04 05 06 07  08 09 0A 0B 0C 0D 0E 0F
      -- -- -- -- -- -- -- --  -- -- -- -- -- -- -- --
00C0:                             1E F0 FF FF 7F 1C 05           .......
00D0: 80 1D 16 80 23 21 00                              ....#!.         
```

#### Opcodes

```
  0: 0x00C9 [0x1E] EventEntity looks at LocalPlayer and starts talking
  1: 0x00CE [0x1C] WAIT(30* ticks)
  2: 0x00D1 [0x1D] PRINT_EVENT_MESSAGE(message_id=5055*)
    → "I wonder if the old lady's having any luck with the potion..."
  3: 0x00D4 [0x23] WAIT_FOR_DIALOG_INTERACTION
  4: 0x00D5 [0x21] END_EVENT
  5: 0x00D6 [0x00] END_REQSTACK()
```

### Event 526

#### Metadata

| Field        | Value   |
|--------------|---------|
| Entrypoint   | 0x00D7  |
| Data Size    | 1 bytes |
| Instructions | 1       |

```
      00 01 02 03 04 05 06 07  08 09 0A 0B 0C 0D 0E 0F
      -- -- -- -- -- -- -- --  -- -- -- -- -- -- -- --
00D0:                      00                                  .        
```

#### Opcodes

```
  0: 0x00D7 [0x00] END_REQSTACK()
```

### Event 65535.9

#### Metadata

| Field        | Value    |
|--------------|----------|
| Entrypoint   | 0x00D8   |
| Data Size    | 20 bytes |
| Instructions | 4        |

```
      00 01 02 03 04 05 06 07  08 09 0A 0B 0C 0D 0E 0F
      -- -- -- -- -- -- -- --  -- -- -- -- -- -- -- --
00D0:                          37 17 80 18 80 03 80 19          7.......
00E0: 80 80 F8 FF FF 7F 1E 33  21 03 01 00              .......3!...    
```

#### Opcodes

```
  0: 0x00D8 [0x37] UPDATE_EVENT_POSITION_AND_DIR: x=56.164*, z=-76.981*, y=0.000*, direction=305.6°*
  1: 0x00E1 [0x80] LOAD_WAIT(entity=EventEntity)
  2: 0x00E6 [0x1E] EventEntity looks at Adahva (ID: 16982323/0x01032133) and starts talking
  3: 0x00EB [0x00] END_REQSTACK()
```

### Event 65535.10

#### Metadata

| Field        | Value    |
|--------------|----------|
| Entrypoint   | 0x00EC   |
| Data Size    | 38 bytes |
| Instructions | 8        |

```
      00 01 02 03 04 05 06 07  08 09 0A 0B 0C 0D 0E 0F
      -- -- -- -- -- -- -- --  -- -- -- -- -- -- -- --
00E0:                                      32 1A 80 1F              2...
00F0: 00 1B 80 1C 80 03 80 1F  01 1F 00 1D 80 1E 80 03  ................
0100: 80 1F 01 37 1F 80 20 80  03 80 21 80 80 F8 FF FF  ...7.. ...!.....
0110: 7F 00                                             ..              
```

#### Opcodes

```
  0: 0x00EC [0x32] ExtData[1]->MainSpeed = 40* * 0.1
  1: 0x00EF [0x1F] MOVE_ENTITY: EventEntity moves to X=55.045*, Z=-79.568*, Y=0.000*
  2: 0x00F7 [0x1F] MOVE_ENTITY: Update entity position (mode=1)
  3: 0x00F9 [0x1F] MOVE_ENTITY: EventEntity moves to X=53.011*, Z=-78.945*, Y=0.000*
  4: 0x0101 [0x1F] MOVE_ENTITY: Update entity position (mode=1)
  5: 0x0103 [0x37] UPDATE_EVENT_POSITION_AND_DIR: x=39.147*, z=-81.024*, y=0.000*, direction=184.9°*
  6: 0x010C [0x80] LOAD_WAIT(entity=EventEntity)
  7: 0x0111 [0x00] END_REQSTACK()
```

### Event 65535.11

#### Metadata

| Field        | Value    |
|--------------|----------|
| Entrypoint   | 0x0112   |
| Data Size    | 22 bytes |
| Instructions | 6        |

```
      00 01 02 03 04 05 06 07  08 09 0A 0B 0C 0D 0E 0F
      -- -- -- -- -- -- -- --  -- -- -- -- -- -- -- --
0110:       32 1A 80 1F 00 22  80 23 80 03 80 1F 01 1E    2....".#......
0120: 2C 21 03 01 1C 05 80 00                           ,!......        
```

#### Opcodes

```
  0: 0x0112 [0x32] ExtData[1]->MainSpeed = 40* * 0.1
  1: 0x0115 [0x1F] MOVE_ENTITY: EventEntity moves to X=-2.068*, Z=-80.094*, Y=0.000*
  2: 0x011D [0x1F] MOVE_ENTITY: Update entity position (mode=1)
  3: 0x011F [0x1E] EventEntity looks at Zabahf (ID: 16982316/0x0103212C) and starts talking
  4: 0x0124 [0x1C] WAIT(30* ticks)
  5: 0x0127 [0x00] END_REQSTACK()
```

### Event 65535.12

#### Metadata

| Field        | Value    |
|--------------|----------|
| Entrypoint   | 0x0128   |
| Data Size    | 14 bytes |
| Instructions | 4        |

```
      00 01 02 03 04 05 06 07  08 09 0A 0B 0C 0D 0E 0F
      -- -- -- -- -- -- -- --  -- -- -- -- -- -- -- --
0120:                          32 1A 80 1F 00 24 80 25          2....$.%
0130: 80 03 80 1F 01 00                                 ......          
```

#### Opcodes

```
  0: 0x0128 [0x32] ExtData[1]->MainSpeed = 40* * 0.1
  1: 0x012B [0x1F] MOVE_ENTITY: EventEntity moves to X=-17.157*, Z=-79.756*, Y=0.000*
  2: 0x0133 [0x1F] MOVE_ENTITY: Update entity position (mode=1)
  3: 0x0135 [0x00] END_REQSTACK()
```

### Event 527

#### Metadata

| Field        | Value   |
|--------------|---------|
| Entrypoint   | 0x0136  |
| Data Size    | 1 bytes |
| Instructions | 1       |

```
      00 01 02 03 04 05 06 07  08 09 0A 0B 0C 0D 0E 0F
      -- -- -- -- -- -- -- --  -- -- -- -- -- -- -- --
0130:                   00                                    .         
```

#### Opcodes

```
  0: 0x0136 [0x00] END_REQSTACK()
```

### Event 539

#### Metadata

| Field        | Value    |
|--------------|----------|
| Entrypoint   | 0x0137   |
| Data Size    | 14 bytes |
| Instructions | 6        |

```
      00 01 02 03 04 05 06 07  08 09 0A 0B 0C 0D 0E 0F
      -- -- -- -- -- -- -- --  -- -- -- -- -- -- -- --
0130:                      1E  F0 FF FF 7F 1C 05 80 1D         .........
0140: 26 80 23 21 00                                    &.#!.           
```

#### Opcodes

```
  0: 0x0137 [0x1E] EventEntity looks at LocalPlayer and starts talking
  1: 0x013C [0x1C] WAIT(30* ticks)
  2: 0x013F [0x1D] PRINT_EVENT_MESSAGE(message_id=5100*)
    → "Weird. I can't think of anything I want you to get for me! This is a first!"
  3: 0x0142 [0x23] WAIT_FOR_DIALOG_INTERACTION
  4: 0x0143 [0x21] END_EVENT
  5: 0x0144 [0x00] END_REQSTACK()
```

### Event 528

#### Metadata

| Field        | Value   |
|--------------|---------|
| Entrypoint   | 0x0145  |
| Data Size    | 1 bytes |
| Instructions | 1       |

```
      00 01 02 03 04 05 06 07  08 09 0A 0B 0C 0D 0E 0F
      -- -- -- -- -- -- -- --  -- -- -- -- -- -- -- --
0140:                00                                      .          
```

#### Opcodes

```
  0: 0x0145 [0x00] END_REQSTACK()
```

### Event 65535.13

#### Metadata

| Field        | Value     |
|--------------|-----------|
| Entrypoint   | 0x0146    |
| Data Size    | 115 bytes |
| Instructions | 15        |

```
      00 01 02 03 04 05 06 07  08 09 0A 0B 0C 0D 0E 0F
      -- -- -- -- -- -- -- --  -- -- -- -- -- -- -- --
0140:                   66 27  80 2A 21 03 01 2A 21 03        f'.*!..*!.
0150: 01 74 6C 6B 30 1C 28 80  66 27 80 2A 21 03 01 2A  .tlk0.(.f'.*!..*
0160: 21 03 01 74 6C 6B 32 66  29 80 2F 21 03 01 2F 21  !..tlk2f)./!../!
0170: 03 01 64 69 73 30 1C 28  80 29 05 2A 21 03 01 15  ..dis0.(.).*!...
0180: 66 0D 80 2F 21 03 01 2F  21 03 01 61 6E 67 30 1C  f../!../!..ang0.
0190: 2A 80 1E 2C 21 03 01 1C  05 80 4A 2C 21 03 01 2F  *..,!.....J,!../
01A0: 21 03 01 1C 05 80 66 2B  80 2C 21 03 01 2C 21 03  !.....f+.,!..,!.
01B0: 01 64 69 73 30 1C 05 80  00                       .dis0....       
```

#### Opcodes

```
  0: 0x0146 [0x66] LOAD_EXT_SCHEDULER_MAIN: Load scheduler "tlk0" with entities [Ekhu Pesshyadha (ID: 16982314/0x0103212A), Ekhu Pesshyadha (ID: 16982314/0x0103212A)], work=50*
  1: 0x0155 [0x1C] WAIT(90* ticks)
  2: 0x0158 [0x66] LOAD_EXT_SCHEDULER_MAIN: Load scheduler "tlk2" with entities [Ekhu Pesshyadha (ID: 16982314/0x0103212A), Ekhu Pesshyadha (ID: 16982314/0x0103212A)], work=50*
  3: 0x0167 [0x66] LOAD_EXT_SCHEDULER_MAIN: Load scheduler "dis0" with entities [Tehf Kimasnahya (ID: 16982319/0x0103212F), Tehf Kimasnahya (ID: 16982319/0x0103212F)], work=52*
  4: 0x0176 [0x1C] WAIT(90* ticks)
  5: 0x0179 [0x29] REQ_SET_WAIT(priority=0x05, entity_id=Ekhu Pesshyadha (ID: 16982314/0x0103212A), tag_num=0x15)
  6: 0x0180 [0x66] LOAD_EXT_SCHEDULER_MAIN: Load scheduler "ang0" with entities [Tehf Kimasnahya (ID: 16982319/0x0103212F), Tehf Kimasnahya (ID: 16982319/0x0103212F)], work=8*
  7: 0x018F [0x1C] WAIT(150* ticks)
  8: 0x0192 [0x1E] EventEntity looks at Zabahf (ID: 16982316/0x0103212C) and starts talking
  9: 0x0197 [0x1C] WAIT(30* ticks)
 10: 0x019A [0x4A] Zabahf (ID: 16982316/0x0103212C) looks at Tehf Kimasnahya (ID: 16982319/0x0103212F)
 11: 0x01A3 [0x1C] WAIT(30* ticks)
 12: 0x01A6 [0x66] LOAD_EXT_SCHEDULER_MAIN: Load scheduler "dis0" with entities [Zabahf (ID: 16982316/0x0103212C), Zabahf (ID: 16982316/0x0103212C)], work=21*
 13: 0x01B5 [0x1C] WAIT(30* ticks)
 14: 0x01B8 [0x00] END_REQSTACK()
```

### Event 65535.14

#### Metadata

| Field        | Value    |
|--------------|----------|
| Entrypoint   | 0x01B9   |
| Data Size    | 24 bytes |
| Instructions | 6        |

```
      00 01 02 03 04 05 06 07  08 09 0A 0B 0C 0D 0E 0F
      -- -- -- -- -- -- -- --  -- -- -- -- -- -- -- --
01B0:                             32 00 80 1F 00 2C 80           2....,.
01C0: 2D 80 03 80 1F 01 1F 00  2E 80 2F 80 03 80 1F 01  -........./.....
01D0: 00                                                .               
```

#### Opcodes

```
  0: 0x01B9 [0x32] ExtData[1]->MainSpeed = 13* * 0.1
  1: 0x01BC [0x1F] MOVE_ENTITY: EventEntity moves to X=-90.838*, Z=4.666*, Y=0.000*
  2: 0x01C4 [0x1F] MOVE_ENTITY: Update entity position (mode=1)
  3: 0x01C6 [0x1F] MOVE_ENTITY: EventEntity moves to X=-95.805*, Z=4.721*, Y=0.000*
  4: 0x01CE [0x1F] MOVE_ENTITY: Update entity position (mode=1)
  5: 0x01D0 [0x00] END_REQSTACK()
```

### Event 529

#### Metadata

| Field        | Value    |
|--------------|----------|
| Entrypoint   | 0x01D1   |
| Data Size    | 29 bytes |
| Instructions | 7        |

```
      00 01 02 03 04 05 06 07  08 09 0A 0B 0C 0D 0E 0F
      -- -- -- -- -- -- -- --  -- -- -- -- -- -- -- --
01D0:    1E F0 FF FF 7F 1C 05  80 66 27 80 F8 FF FF 7F   ........f'.....
01E0: F8 FF FF 7F 74 6C 6B 30  1D 30 80 23 21 00        ....tlk0.0.#!.  
```

#### Opcodes

```
  0: 0x01D1 [0x1E] EventEntity looks at LocalPlayer and starts talking
  1: 0x01D6 [0x1C] WAIT(30* ticks)
  2: 0x01D9 [0x66] LOAD_EXT_SCHEDULER_MAIN: Load scheduler "tlk0" with entities [EventEntity, EventEntity], work=50*
  3: 0x01E8 [0x1D] PRINT_EVENT_MESSAGE(message_id=5107*)
    → "That Zabahf guy is always hanging around herrre, so I might ask him to be my bodyguard again someday."
  4: 0x01EB [0x23] WAIT_FOR_DIALOG_INTERACTION
  5: 0x01EC [0x21] END_EVENT
  6: 0x01ED [0x00] END_REQSTACK()
```

### Event 594

#### Metadata

| Field        | Value   |
|--------------|---------|
| Entrypoint   | 0x01EE  |
| Data Size    | 1 bytes |
| Instructions | 1       |

```
      00 01 02 03 04 05 06 07  08 09 0A 0B 0C 0D 0E 0F
      -- -- -- -- -- -- -- --  -- -- -- -- -- -- -- --
01E0:                                            00                   . 
```

#### Opcodes

```
  0: 0x01EE [0x00] END_REQSTACK()
```

### Event 774

#### Metadata

| Field        | Value   |
|--------------|---------|
| Entrypoint   | 0x01EF  |
| Data Size    | 7 bytes |
| Instructions | 2       |

```
      00 01 02 03 04 05 06 07  08 09 0A 0B 0C 0D 0E 0F
      -- -- -- -- -- -- -- --  -- -- -- -- -- -- -- --
01E0:                                               92                 .
01F0: 01 F8 FF FF 7F 00                                 ......          
```

#### Opcodes

```
  0: 0x01EF [0x92] EventEntity->Render.Flags3 ^= 0x01
  1: 0x01F5 [0x00] END_REQSTACK()
```

### Event 836

#### Metadata

| Field        | Value   |
|--------------|---------|
| Entrypoint   | 0x01F6  |
| Data Size    | 1 bytes |
| Instructions | 1       |

```
      00 01 02 03 04 05 06 07  08 09 0A 0B 0C 0D 0E 0F
      -- -- -- -- -- -- -- --  -- -- -- -- -- -- -- --
01F0:                   00                                    .         
```

#### Opcodes

```
  0: 0x01F6 [0x00] END_REQSTACK()
```

### Event 65535.15

#### Metadata

| Field        | Value    |
|--------------|----------|
| Entrypoint   | 0x01F7   |
| Data Size    | 14 bytes |
| Instructions | 4        |

```
      00 01 02 03 04 05 06 07  08 09 0A 0B 0C 0D 0E 0F
      -- -- -- -- -- -- -- --  -- -- -- -- -- -- -- --
01F0:                      32  00 80 1F 00 31 80 32 80         2....1.2.
0200: 03 80 1F 01 00                                    .....           
```

#### Opcodes

```
  0: 0x01F7 [0x32] ExtData[1]->MainSpeed = 13* * 0.1
  1: 0x01FA [0x1F] MOVE_ENTITY: EventEntity moves to X=15.566*, Z=16.327*, Y=0.000*
  2: 0x0202 [0x1F] MOVE_ENTITY: Update entity position (mode=1)
  3: 0x0204 [0x00] END_REQSTACK()
```

### Event 65535.16

#### Metadata

| Field        | Value    |
|--------------|----------|
| Entrypoint   | 0x0205   |
| Data Size    | 24 bytes |
| Instructions | 6        |

```
      00 01 02 03 04 05 06 07  08 09 0A 0B 0C 0D 0E 0F
      -- -- -- -- -- -- -- --  -- -- -- -- -- -- -- --
0200:                32 1A 80  1F 00 33 80 34 80 03 80       2....3.4...
0210: 1F 01 1F 00 35 80 36 80  03 80 1F 01 00           ....5.6......   
```

#### Opcodes

```
  0: 0x0205 [0x32] ExtData[1]->MainSpeed = 40* * 0.1
  1: 0x0208 [0x1F] MOVE_ENTITY: EventEntity moves to X=24.663*, Z=0.934*, Y=0.000*
  2: 0x0210 [0x1F] MOVE_ENTITY: Update entity position (mode=1)
  3: 0x0212 [0x1F] MOVE_ENTITY: EventEntity moves to X=27.319*, Z=0.812*, Y=0.000*
  4: 0x021A [0x1F] MOVE_ENTITY: Update entity position (mode=1)
  5: 0x021C [0x00] END_REQSTACK()
```

### Event 840

#### Metadata

| Field        | Value   |
|--------------|---------|
| Entrypoint   | 0x021D  |
| Data Size    | 1 bytes |
| Instructions | 1       |

```
      00 01 02 03 04 05 06 07  08 09 0A 0B 0C 0D 0E 0F
      -- -- -- -- -- -- -- --  -- -- -- -- -- -- -- --
0210:                                         00                     .  
```

#### Opcodes

```
  0: 0x021D [0x00] END_REQSTACK()
```

### Event 65535.17

#### Metadata

| Field        | Value    |
|--------------|----------|
| Entrypoint   | 0x021E   |
| Data Size    | 14 bytes |
| Instructions | 4        |

```
      00 01 02 03 04 05 06 07  08 09 0A 0B 0C 0D 0E 0F
      -- -- -- -- -- -- -- --  -- -- -- -- -- -- -- --
0210:                                            32 1A                2.
0220: 80 1F 00 37 80 38 80 39  80 1F 01 00              ...7.8.9....    
```

#### Opcodes

```
  0: 0x021E [0x32] ExtData[1]->MainSpeed = 40* * 0.1
  1: 0x0221 [0x1F] MOVE_ENTITY: EventEntity moves to X=78.162*, Z=-119.859*, Y=-6.000*
  2: 0x0229 [0x1F] MOVE_ENTITY: Update entity position (mode=1)
  3: 0x022B [0x00] END_REQSTACK()
```

### Event 843

#### Metadata

| Field        | Value   |
|--------------|---------|
| Entrypoint   | 0x022C  |
| Data Size    | 1 bytes |
| Instructions | 1       |

```
      00 01 02 03 04 05 06 07  08 09 0A 0B 0C 0D 0E 0F
      -- -- -- -- -- -- -- --  -- -- -- -- -- -- -- --
0220:                                      00                       .   
```

#### Opcodes

```
  0: 0x022C [0x00] END_REQSTACK()
```

### Event 844

#### Metadata

| Field        | Value   |
|--------------|---------|
| Entrypoint   | 0x022D  |
| Data Size    | 6 bytes |
| Instructions | 4       |

```
      00 01 02 03 04 05 06 07  08 09 0A 0B 0C 0D 0E 0F
      -- -- -- -- -- -- -- --  -- -- -- -- -- -- -- --
0220:                                         1D 3A 80               .:.
0230: 23 21 00                                          #!.             
```

#### Opcodes

```
  0: 0x022D [0x1D] PRINT_EVENT_MESSAGE(message_id=7202*)
    → "I already told you! It was all an accident. If I could go back and change everything, I would, but I can't, so I won't!"
  1: 0x0230 [0x23] WAIT_FOR_DIALOG_INTERACTION
  2: 0x0231 [0x21] END_EVENT
  3: 0x0232 [0x00] END_REQSTACK()
```

### Event 845

#### Metadata

| Field        | Value   |
|--------------|---------|
| Entrypoint   | 0x0233  |
| Data Size    | 1 bytes |
| Instructions | 1       |

```
      00 01 02 03 04 05 06 07  08 09 0A 0B 0C 0D 0E 0F
      -- -- -- -- -- -- -- --  -- -- -- -- -- -- -- --
0230:          00                                          .            
```

#### Opcodes

```
  0: 0x0233 [0x00] END_REQSTACK()
```

### Event 867

#### Metadata

| Field        | Value   |
|--------------|---------|
| Entrypoint   | 0x0234  |
| Data Size    | 7 bytes |
| Instructions | 2       |

```
      00 01 02 03 04 05 06 07  08 09 0A 0B 0C 0D 0E 0F
      -- -- -- -- -- -- -- --  -- -- -- -- -- -- -- --
0230:             92 01 F8 FF  FF 7F 00                     .......     
```

#### Opcodes

```
  0: 0x0234 [0x92] EventEntity->Render.Flags3 ^= 0x01
  1: 0x023A [0x00] END_REQSTACK()
```
