# 16982447 - Isween

## Common Data

| Field            | Value                         |
|------------------|-------------------------------|
| Zone             | Aht Urhgan Whitegate (ID: 50) |
| Block Size       | 676 bytes                     |
| Total Events     | 23                            |
| References Count | 61                            |

## List of Events

| Event ID                   | Entrypoint   |   Size |   Instructions |
|----------------------------|--------------|--------|----------------|
| [65535](#event-65535)      | 0x0000       |      1 |              1 |
| [575](#event-575)          | 0x0001       |      1 |              1 |
| [65535.1](#event-655351)   | 0x0002       |     15 |              3 |
| [65535.2](#event-655352)   | 0x0011       |     14 |              4 |
| [65535.3](#event-655353)   | 0x001F       |     15 |              3 |
| [65535.4](#event-655354)   | 0x002E       |     14 |              4 |
| [65535.5](#event-655355)   | 0x003C       |     24 |              6 |
| [65535.6](#event-655356)   | 0x0054       |     15 |              3 |
| [65535.7](#event-655357)   | 0x0063       |     14 |              4 |
| [65535.8](#event-655358)   | 0x0071       |     14 |              4 |
| [65535.9](#event-655359)   | 0x007F       |     15 |              3 |
| [65535.10](#event-6553510) | 0x008E       |     14 |              4 |
| [65535.11](#event-6553511) | 0x009C       |     14 |              4 |
| [65535.12](#event-6553512) | 0x00AA       |     15 |              3 |
| [65535.13](#event-6553513) | 0x00B9       |     15 |              3 |
| [65535.14](#event-6553514) | 0x00C8       |     15 |              3 |
| [65535.15](#event-6553515) | 0x00D7       |     13 |              3 |
| [65535.16](#event-6553516) | 0x00E4       |     14 |              4 |
| [65535.17](#event-6553517) | 0x00F2       |     15 |              3 |
| [576](#event-576)          | 0x0101       |      1 |              1 |
| [65535.18](#event-6553518) | 0x0102       |     15 |              3 |
| [65535.19](#event-6553519) | 0x0111       |     15 |              3 |
| [65535.20](#event-6553520) | 0x0120       |     36 |              8 |

## DAT References (imed_data)

|   Index | Hex Value   |   Dec Value |
|---------|-------------|-------------|
|       0 | 0xFFFF95AF  |  4294940079 |
|       1 | 0x1B16      |        6934 |
|       2 | 0xFFFFE891  |  4294961297 |
|       3 | 0x0BEC      |        3052 |
|       4 | 0x000D      |          13 |
|       5 | 0xFFFF9443  |  4294939715 |
|       6 | 0x281B      |       10267 |
|       7 | 0xFFFF9505  |  4294939909 |
|       8 | 0x4AA0      |       19104 |
|       9 | 0x0C18      |        3096 |
|      10 | 0xFFFF9790  |  4294940560 |
|      11 | 0x5C17      |       23575 |
|      12 | 0xFFFFE890  |  4294961296 |
|      13 | 0x0028      |          40 |
|      14 | 0xFFFFAC6D  |  4294945901 |
|      15 | 0x5901      |       22785 |
|      16 | 0xFFFFACBD  |  4294945981 |
|      17 | 0x44D5      |       17621 |
|      18 | 0xFFFFF06B  |  4294963307 |
|      19 | 0xC2C3      |       49859 |
|      20 | 0xFFFFFF2A  |  4294967082 |
|      21 | 0x0000      |           0 |
|      22 | 0x0FDD      |        4061 |
|      23 | 0xE0A2      |       57506 |
|      24 | 0xFFFFFF2D  |  4294967085 |
|      25 | 0x10DDC     |       69084 |
|      26 | 0xFFFFFFAB  |  4294967211 |
|      27 | 0x14558     |       83288 |
|      28 | 0xFFFFFD79  |  4294966649 |
|      29 | 0x0FF1      |        4081 |
|      30 | 0x15A38     |       88632 |
|      31 | 0xFFFFFD70  |  4294966640 |
|      32 | 0x21A97     |      137879 |
|      33 | 0xFFFFFE7F  |  4294966911 |
|      34 | 0xFFFFF831  |  4294965297 |
|      35 | 0x9B1D2     |      635346 |
|      36 | 0x5829E     |      361118 |
|      37 | 0xFFFFA268  |  4294943336 |
|      38 | 0x07E1      |        2017 |
|      39 | 0x0C04      |        3076 |
|      40 | 0x71D88     |      466312 |
|      41 | 0x398A5     |      235685 |
|      42 | 0xFFFFA326  |  4294943526 |
|      43 | 0x033E      |         830 |
|      44 | 0x002B      |          43 |
|      45 | 0x98817     |      624663 |
|      46 | 0x57BD6     |      359382 |
|      47 | 0xFFFFA409  |  4294943753 |
|      48 | 0x68999     |      428441 |
|      49 | 0x38A70     |      232048 |
|      50 | 0xFFFFA434  |  4294943796 |
|      51 | 0x0326      |         806 |
|      52 | 0xFFFFCFF6  |  4294954998 |
|      53 | 0x6902      |       26882 |
|      54 | 0x0BCF      |        3023 |
|      55 | 0xFFFFB41E  |  4294947870 |
|      56 | 0x0074      |         116 |
|      57 | 0x0787      |        1927 |
|      58 | 0xFFFFA748  |  4294944584 |
|      59 | 0x0D94      |        3476 |
|      60 | 0x0078      |         120 |

## Events

### Event 65535

#### Metadata

| Field        | Value   |
|--------------|---------|
| Entrypoint   | 0x0000  |
| Data Size    | 1 bytes |
| Instructions | 1       |

```
      00 01 02 03 04 05 06 07  08 09 0A 0B 0C 0D 0E 0F
      -- -- -- -- -- -- -- --  -- -- -- -- -- -- -- --
0000: 00                                                .               
```

#### Opcodes

```
  0: 0x0000 [0x00] END_REQSTACK()
```

### Event 575

#### Metadata

| Field        | Value   |
|--------------|---------|
| Entrypoint   | 0x0001  |
| Data Size    | 1 bytes |
| Instructions | 1       |

```
      00 01 02 03 04 05 06 07  08 09 0A 0B 0C 0D 0E 0F
      -- -- -- -- -- -- -- --  -- -- -- -- -- -- -- --
0000:    00                                              .              
```

#### Opcodes

```
  0: 0x0001 [0x00] END_REQSTACK()
```

### Event 65535.1

#### Metadata

| Field        | Value    |
|--------------|----------|
| Entrypoint   | 0x0002   |
| Data Size    | 15 bytes |
| Instructions | 3        |

```
      00 01 02 03 04 05 06 07  08 09 0A 0B 0C 0D 0E 0F
      -- -- -- -- -- -- -- --  -- -- -- -- -- -- -- --
0000:       37 00 80 01 80 02  80 03 80 80 F8 FF FF 7F    7.............
0010: 00                                                .               
```

#### Opcodes

```
  0: 0x0002 [0x37] UPDATE_EVENT_POSITION_AND_DIR: x=-27.217*, z=6.934*, y=-5.999*, direction=268.2°*
  1: 0x000B [0x80] LOAD_WAIT(entity=EventEntity)
  2: 0x0010 [0x00] END_REQSTACK()
```

### Event 65535.2

#### Metadata

| Field        | Value    |
|--------------|----------|
| Entrypoint   | 0x0011   |
| Data Size    | 14 bytes |
| Instructions | 4        |

```
      00 01 02 03 04 05 06 07  08 09 0A 0B 0C 0D 0E 0F
      -- -- -- -- -- -- -- --  -- -- -- -- -- -- -- --
0010:    32 04 80 1F 00 05 80  06 80 02 80 1F 01 00      2............. 
```

#### Opcodes

```
  0: 0x0011 [0x32] ExtData[1]->MainSpeed = 13* * 0.1
  1: 0x0014 [0x1F] MOVE_ENTITY: EventEntity moves to X=-27.581*, Z=10.267*, Y=-5.999*
  2: 0x001C [0x1F] MOVE_ENTITY: Update entity position (mode=1)
  3: 0x001E [0x00] END_REQSTACK()
```

### Event 65535.3

#### Metadata

| Field        | Value    |
|--------------|----------|
| Entrypoint   | 0x001F   |
| Data Size    | 15 bytes |
| Instructions | 3        |

```
      00 01 02 03 04 05 06 07  08 09 0A 0B 0C 0D 0E 0F
      -- -- -- -- -- -- -- --  -- -- -- -- -- -- -- --
0010:                                               37                 7
0020: 07 80 08 80 02 80 09 80  80 F8 FF FF 7F 00        ..............  
```

#### Opcodes

```
  0: 0x001F [0x37] UPDATE_EVENT_POSITION_AND_DIR: x=-27.387*, z=19.104*, y=-5.999*, direction=272.1°*
  1: 0x0028 [0x80] LOAD_WAIT(entity=EventEntity)
  2: 0x002D [0x00] END_REQSTACK()
```

### Event 65535.4

#### Metadata

| Field        | Value    |
|--------------|----------|
| Entrypoint   | 0x002E   |
| Data Size    | 14 bytes |
| Instructions | 4        |

```
      00 01 02 03 04 05 06 07  08 09 0A 0B 0C 0D 0E 0F
      -- -- -- -- -- -- -- --  -- -- -- -- -- -- -- --
0020:                                            32 04                2.
0030: 80 1F 00 0A 80 0B 80 0C  80 1F 01 00              ............    
```

#### Opcodes

```
  0: 0x002E [0x32] ExtData[1]->MainSpeed = 13* * 0.1
  1: 0x0031 [0x1F] MOVE_ENTITY: EventEntity moves to X=-26.736*, Z=23.575*, Y=-6.000*
  2: 0x0039 [0x1F] MOVE_ENTITY: Update entity position (mode=1)
  3: 0x003B [0x00] END_REQSTACK()
```

### Event 65535.5

#### Metadata

| Field        | Value    |
|--------------|----------|
| Entrypoint   | 0x003C   |
| Data Size    | 24 bytes |
| Instructions | 6        |

```
      00 01 02 03 04 05 06 07  08 09 0A 0B 0C 0D 0E 0F
      -- -- -- -- -- -- -- --  -- -- -- -- -- -- -- --
0030:                                      32 0D 80 1F              2...
0040: 00 0E 80 0F 80 0C 80 1F  01 1F 00 10 80 11 80 12  ................
0050: 80 1F 01 00                                       ....            
```

#### Opcodes

```
  0: 0x003C [0x32] ExtData[1]->MainSpeed = 40* * 0.1
  1: 0x003F [0x1F] MOVE_ENTITY: EventEntity moves to X=-21.395*, Z=22.785*, Y=-6.000*
  2: 0x0047 [0x1F] MOVE_ENTITY: Update entity position (mode=1)
  3: 0x0049 [0x1F] MOVE_ENTITY: EventEntity moves to X=-21.315*, Z=17.621*, Y=-3.989*
  4: 0x0051 [0x1F] MOVE_ENTITY: Update entity position (mode=1)
  5: 0x0053 [0x00] END_REQSTACK()
```

### Event 65535.6

#### Metadata

| Field        | Value    |
|--------------|----------|
| Entrypoint   | 0x0054   |
| Data Size    | 15 bytes |
| Instructions | 3        |

```
      00 01 02 03 04 05 06 07  08 09 0A 0B 0C 0D 0E 0F
      -- -- -- -- -- -- -- --  -- -- -- -- -- -- -- --
0050:             37 13 80 14  80 15 80 16 80 80 F8 FF      7...........
0060: FF 7F 00                                          ...             
```

#### Opcodes

```
  0: 0x0054 [0x37] UPDATE_EVENT_POSITION_AND_DIR: x=49.859*, z=-0.214*, y=0.000*, direction=356.9°*
  1: 0x005D [0x80] LOAD_WAIT(entity=EventEntity)
  2: 0x0062 [0x00] END_REQSTACK()
```

### Event 65535.7

#### Metadata

| Field        | Value    |
|--------------|----------|
| Entrypoint   | 0x0063   |
| Data Size    | 14 bytes |
| Instructions | 4        |

```
      00 01 02 03 04 05 06 07  08 09 0A 0B 0C 0D 0E 0F
      -- -- -- -- -- -- -- --  -- -- -- -- -- -- -- --
0060:          32 0D 80 1F 00  17 80 18 80 15 80 1F 01     2............
0070: 00                                                .               
```

#### Opcodes

```
  0: 0x0063 [0x32] ExtData[1]->MainSpeed = 40* * 0.1
  1: 0x0066 [0x1F] MOVE_ENTITY: EventEntity moves to X=57.506*, Z=-0.211*, Y=0.000*
  2: 0x006E [0x1F] MOVE_ENTITY: Update entity position (mode=1)
  3: 0x0070 [0x00] END_REQSTACK()
```

### Event 65535.8

#### Metadata

| Field        | Value    |
|--------------|----------|
| Entrypoint   | 0x0071   |
| Data Size    | 14 bytes |
| Instructions | 4        |

```
      00 01 02 03 04 05 06 07  08 09 0A 0B 0C 0D 0E 0F
      -- -- -- -- -- -- -- --  -- -- -- -- -- -- -- --
0070:    32 0D 80 1F 00 19 80  1A 80 15 80 1F 01 00      2............. 
```

#### Opcodes

```
  0: 0x0071 [0x32] ExtData[1]->MainSpeed = 40* * 0.1
  1: 0x0074 [0x1F] MOVE_ENTITY: EventEntity moves to X=69.084*, Z=-0.085*, Y=0.000*
  2: 0x007C [0x1F] MOVE_ENTITY: Update entity position (mode=1)
  3: 0x007E [0x00] END_REQSTACK()
```

### Event 65535.9

#### Metadata

| Field        | Value    |
|--------------|----------|
| Entrypoint   | 0x007F   |
| Data Size    | 15 bytes |
| Instructions | 3        |

```
      00 01 02 03 04 05 06 07  08 09 0A 0B 0C 0D 0E 0F
      -- -- -- -- -- -- -- --  -- -- -- -- -- -- -- --
0070:                                               37                 7
0080: 1B 80 1C 80 15 80 1D 80  80 F8 FF FF 7F 00        ..............  
```

#### Opcodes

```
  0: 0x007F [0x37] UPDATE_EVENT_POSITION_AND_DIR: x=83.288*, z=-0.647*, y=0.000*, direction=358.7°*
  1: 0x0088 [0x80] LOAD_WAIT(entity=EventEntity)
  2: 0x008D [0x00] END_REQSTACK()
```

### Event 65535.10

#### Metadata

| Field        | Value    |
|--------------|----------|
| Entrypoint   | 0x008E   |
| Data Size    | 14 bytes |
| Instructions | 4        |

```
      00 01 02 03 04 05 06 07  08 09 0A 0B 0C 0D 0E 0F
      -- -- -- -- -- -- -- --  -- -- -- -- -- -- -- --
0080:                                            32 0D                2.
0090: 80 1F 00 1E 80 1F 80 15  80 1F 01 00              ............    
```

#### Opcodes

```
  0: 0x008E [0x32] ExtData[1]->MainSpeed = 40* * 0.1
  1: 0x0091 [0x1F] MOVE_ENTITY: EventEntity moves to X=88.632*, Z=-0.656*, Y=0.000*
  2: 0x0099 [0x1F] MOVE_ENTITY: Update entity position (mode=1)
  3: 0x009B [0x00] END_REQSTACK()
```

### Event 65535.11

#### Metadata

| Field        | Value    |
|--------------|----------|
| Entrypoint   | 0x009C   |
| Data Size    | 14 bytes |
| Instructions | 4        |

```
      00 01 02 03 04 05 06 07  08 09 0A 0B 0C 0D 0E 0F
      -- -- -- -- -- -- -- --  -- -- -- -- -- -- -- --
0090:                                      32 0D 80 1F              2...
00A0: 00 20 80 21 80 22 80 1F  01 00                    . .!."....      
```

#### Opcodes

```
  0: 0x009C [0x32] ExtData[1]->MainSpeed = 40* * 0.1
  1: 0x009F [0x1F] MOVE_ENTITY: EventEntity moves to X=137.879*, Z=-0.385*, Y=-1.999*
  2: 0x00A7 [0x1F] MOVE_ENTITY: Update entity position (mode=1)
  3: 0x00A9 [0x00] END_REQSTACK()
```

### Event 65535.12

#### Metadata

| Field        | Value    |
|--------------|----------|
| Entrypoint   | 0x00AA   |
| Data Size    | 15 bytes |
| Instructions | 3        |

```
      00 01 02 03 04 05 06 07  08 09 0A 0B 0C 0D 0E 0F
      -- -- -- -- -- -- -- --  -- -- -- -- -- -- -- --
00A0:                                37 23 80 24 80 25            7#.$.%
00B0: 80 26 80 80 F8 FF FF 7F  00                       .&.......       
```

#### Opcodes

```
  0: 0x00AA [0x37] UPDATE_EVENT_POSITION_AND_DIR: x=635.346*, z=361.118*, y=-23.960*, direction=177.3°*
  1: 0x00B3 [0x80] LOAD_WAIT(entity=EventEntity)
  2: 0x00B8 [0x00] END_REQSTACK()
```

### Event 65535.13

#### Metadata

| Field        | Value    |
|--------------|----------|
| Entrypoint   | 0x00B9   |
| Data Size    | 15 bytes |
| Instructions | 3        |

```
      00 01 02 03 04 05 06 07  08 09 0A 0B 0C 0D 0E 0F
      -- -- -- -- -- -- -- --  -- -- -- -- -- -- -- --
00B0:                             37 0A 80 0B 80 0C 80           7......
00C0: 27 80 80 F8 FF FF 7F 00                           '.......        
```

#### Opcodes

```
  0: 0x00B9 [0x37] UPDATE_EVENT_POSITION_AND_DIR: x=-26.736*, z=23.575*, y=-6.000*, direction=270.3°*
  1: 0x00C2 [0x80] LOAD_WAIT(entity=EventEntity)
  2: 0x00C7 [0x00] END_REQSTACK()
```

### Event 65535.14

#### Metadata

| Field        | Value    |
|--------------|----------|
| Entrypoint   | 0x00C8   |
| Data Size    | 15 bytes |
| Instructions | 3        |

```
      00 01 02 03 04 05 06 07  08 09 0A 0B 0C 0D 0E 0F
      -- -- -- -- -- -- -- --  -- -- -- -- -- -- -- --
00C0:                          37 28 80 29 80 2A 80 2B          7(.).*.+
00D0: 80 80 F8 FF FF 7F 00                              .......         
```

#### Opcodes

```
  0: 0x00C8 [0x37] UPDATE_EVENT_POSITION_AND_DIR: x=466.312*, z=235.685*, y=-23.770*, direction=72.9°*
  1: 0x00D1 [0x80] LOAD_WAIT(entity=EventEntity)
  2: 0x00D6 [0x00] END_REQSTACK()
```

### Event 65535.15

#### Metadata

| Field        | Value    |
|--------------|----------|
| Entrypoint   | 0x00D7   |
| Data Size    | 13 bytes |
| Instructions | 3        |

```
      00 01 02 03 04 05 06 07  08 09 0A 0B 0C 0D 0E 0F
      -- -- -- -- -- -- -- --  -- -- -- -- -- -- -- --
00D0:                      6E  AF 21 03 01 2C 80 99 AF         n.!..,...
00E0: 21 03 01 00                                       !...            
```

#### Opcodes

```
  0: 0x00D7 [0x6E] Isween (ID: 16982447/0x010321AF) uses emote 43*
  1: 0x00DE [0x99] Wait for Isween (ID: 16982447/0x010321AF) animation to complete
  2: 0x00E3 [0x00] END_REQSTACK()
```

### Event 65535.16

#### Metadata

| Field        | Value    |
|--------------|----------|
| Entrypoint   | 0x00E4   |
| Data Size    | 14 bytes |
| Instructions | 4        |

```
      00 01 02 03 04 05 06 07  08 09 0A 0B 0C 0D 0E 0F
      -- -- -- -- -- -- -- --  -- -- -- -- -- -- -- --
00E0:             32 0D 80 1F  00 2D 80 2E 80 2F 80 1F      2....-.../..
00F0: 01 00                                             ..              
```

#### Opcodes

```
  0: 0x00E4 [0x32] ExtData[1]->MainSpeed = 40* * 0.1
  1: 0x00E7 [0x1F] MOVE_ENTITY: EventEntity moves to X=624.663*, Z=359.382*, Y=-23.543*
  2: 0x00EF [0x1F] MOVE_ENTITY: Update entity position (mode=1)
  3: 0x00F1 [0x00] END_REQSTACK()
```

### Event 65535.17

#### Metadata

| Field        | Value    |
|--------------|----------|
| Entrypoint   | 0x00F2   |
| Data Size    | 15 bytes |
| Instructions | 3        |

```
      00 01 02 03 04 05 06 07  08 09 0A 0B 0C 0D 0E 0F
      -- -- -- -- -- -- -- --  -- -- -- -- -- -- -- --
00F0:       37 30 80 31 80 32  80 33 80 80 F8 FF FF 7F    70.1.2.3......
0100: 00                                                .               
```

#### Opcodes

```
  0: 0x00F2 [0x37] UPDATE_EVENT_POSITION_AND_DIR: x=428.441*, z=232.048*, y=-23.500*, direction=70.8°*
  1: 0x00FB [0x80] LOAD_WAIT(entity=EventEntity)
  2: 0x0100 [0x00] END_REQSTACK()
```

### Event 576

#### Metadata

| Field        | Value   |
|--------------|---------|
| Entrypoint   | 0x0101  |
| Data Size    | 1 bytes |
| Instructions | 1       |

```
      00 01 02 03 04 05 06 07  08 09 0A 0B 0C 0D 0E 0F
      -- -- -- -- -- -- -- --  -- -- -- -- -- -- -- --
0100:    00                                              .              
```

#### Opcodes

```
  0: 0x0101 [0x00] END_REQSTACK()
```

### Event 65535.18

#### Metadata

| Field        | Value    |
|--------------|----------|
| Entrypoint   | 0x0102   |
| Data Size    | 15 bytes |
| Instructions | 3        |

```
      00 01 02 03 04 05 06 07  08 09 0A 0B 0C 0D 0E 0F
      -- -- -- -- -- -- -- --  -- -- -- -- -- -- -- --
0100:       37 34 80 35 80 02  80 36 80 80 F8 FF FF 7F    74.5...6......
0110: 00                                                .               
```

#### Opcodes

```
  0: 0x0102 [0x37] UPDATE_EVENT_POSITION_AND_DIR: x=-12.298*, z=26.882*, y=-5.999*, direction=265.7°*
  1: 0x010B [0x80] LOAD_WAIT(entity=EventEntity)
  2: 0x0110 [0x00] END_REQSTACK()
```

### Event 65535.19

#### Metadata

| Field        | Value    |
|--------------|----------|
| Entrypoint   | 0x0111   |
| Data Size    | 15 bytes |
| Instructions | 3        |

```
      00 01 02 03 04 05 06 07  08 09 0A 0B 0C 0D 0E 0F
      -- -- -- -- -- -- -- --  -- -- -- -- -- -- -- --
0110:    37 37 80 38 80 15 80  39 80 80 F8 FF FF 7F 00   77.8...9.......
```

#### Opcodes

```
  0: 0x0111 [0x37] UPDATE_EVENT_POSITION_AND_DIR: x=-19.426*, z=0.116*, y=0.000*, direction=169.4°*
  1: 0x011A [0x80] LOAD_WAIT(entity=EventEntity)
  2: 0x011F [0x00] END_REQSTACK()
```

### Event 65535.20

#### Metadata

| Field        | Value    |
|--------------|----------|
| Entrypoint   | 0x0120   |
| Data Size    | 36 bytes |
| Instructions | 8        |

```
      00 01 02 03 04 05 06 07  08 09 0A 0B 0C 0D 0E 0F
      -- -- -- -- -- -- -- --  -- -- -- -- -- -- -- --
0120: 32 04 80 1F 00 3A 80 04  80 15 80 1F 01 4B AF 21  2....:.......K.!
0130: 03 01 3B 80 1C 3C 80 6C  AF 21 03 01 15 80 3C 80  ..;..<.l.!....<.
0140: 1C 3C 80 00                                       .<..            
```

#### Opcodes

```
  0: 0x0120 [0x32] ExtData[1]->MainSpeed = 13* * 0.1
  1: 0x0123 [0x1F] MOVE_ENTITY: EventEntity moves to X=-22.712*, Z=0.013*, Y=0.000*
  2: 0x012B [0x1F] MOVE_ENTITY: Update entity position (mode=1)
  3: 0x012D [0x4B] UPDATE_ENTITY_YAW(entity=Isween (ID: 16982447/0x010321AF), yaw=19.1°*)
  4: 0x0134 [0x1C] WAIT(120* ticks)
  5: 0x0137 [0x6C] FADE_ENTITY_COLOR(entity_id=Isween (ID: 16982447/0x010321AF), end_alpha=0*, fade_time=120*)
  6: 0x0140 [0x1C] WAIT(120* ticks)
  7: 0x0143 [0x00] END_REQSTACK()
```
