# 16982297 - Waoud

## Common Data

| Field            | Value                         |
|------------------|-------------------------------|
| Zone             | Aht Urhgan Whitegate (ID: 50) |
| Block Size       | 2288 bytes                    |
| Total Events     | 27                            |
| References Count | 42                            |

## List of Events

| Event ID              | Entrypoint   |   Size |   Instructions |
|-----------------------|--------------|--------|----------------|
| [65535](#event-65535) | 0x0000       |      1 |              1 |
| [60](#event-60)       | 0x0001       |      1 |              1 |
| [61](#event-61)       | 0x0002       |     66 |             11 |
| [62](#event-62)       | 0x0044       |      1 |              1 |
| [63](#event-63)       | 0x0045       |     21 |             11 |
| [64](#event-64)       | 0x005A       |     21 |              5 |
| [65](#event-65)       | 0x006F       |      1 |              1 |
| [66](#event-66)       | 0x0070       |    108 |             29 |
| [67](#event-67)       | 0x00DC       |      1 |              1 |
| [68](#event-68)       | 0x00DD       |     17 |              9 |
| [69](#event-69)       | 0x00EE       |      1 |              1 |
| [78](#event-78)       | 0x00EF       |      1 |              1 |
| [705](#event-705)     | 0x00F0       |      1 |              1 |
| [706](#event-706)     | 0x00F1       |    281 |             50 |
| [707](#event-707)     | 0x020A       |      1 |              1 |
| [708](#event-708)     | 0x020B       |      1 |              1 |
| [710](#event-710)     | 0x020C       |      1 |              1 |
| [711](#event-711)     | 0x020D       |    249 |             42 |
| [712](#event-712)     | 0x0306       |      1 |              1 |
| [713](#event-713)     | 0x0307       |    241 |             40 |
| [720](#event-720)     | 0x03F8       |    241 |             40 |
| [721](#event-721)     | 0x04E9       |    241 |             40 |
| [723](#event-723)     | 0x05DA       |    249 |             42 |
| [724](#event-724)     | 0x06D3       |      1 |              1 |
| [760](#event-760)     | 0x06D4       |      1 |              1 |
| [761](#event-761)     | 0x06D5       |    246 |             41 |
| [764](#event-764)     | 0x07CB       |      1 |              1 |

## DAT References (imed_data)

|   Index | Hex Value   |   Dec Value |
|---------|-------------|-------------|
|       0 | 0x0000      |           0 |
|       1 | 0x2221      |        8737 |
|       2 | 0x0014      |          20 |
|       3 | 0x2222      |        8738 |
|       4 | 0x224F      |        8783 |
|       5 | 0x2250      |        8784 |
|       6 | 0x2251      |        8785 |
|       7 | 0x0002      |           2 |
|       8 | 0x2269      |        8809 |
|       9 | 0x2271      |        8817 |
|      10 | 0x0001      |           1 |
|      11 | 0x2261      |        8801 |
|      12 | 0x2263      |        8803 |
|      13 | 0x0003      |           3 |
|      14 | 0x2265      |        8805 |
|      15 | 0x226E      |        8814 |
|      16 | 0x226F      |        8815 |
|      17 | 0x2270      |        8816 |
|      18 | 0x2277      |        8823 |
|      19 | 0x2278      |        8824 |
|      20 | 0x2227      |        8743 |
|      21 | 0x2228      |        8744 |
|      22 | 0x03E8      |        1000 |
|      23 | 0x002D      |          45 |
|      24 | 0x222A      |        8746 |
|      25 | 0x222B      |        8747 |
|      26 | 0x2229      |        8745 |
|      27 | 0x0005      |           5 |
|      28 | 0x229A      |        8858 |
|      29 | 0x229B      |        8859 |
|      30 | 0x229C      |        8860 |
|      31 | 0x229D      |        8861 |
|      32 | 0x229E      |        8862 |
|      33 | 0x229F      |        8863 |
|      34 | 0x22B8      |        8888 |
|      35 | 0x22B9      |        8889 |
|      36 | 0x22C0      |        8896 |
|      37 | 0x22D7      |        8919 |
|      38 | 0x22F5      |        8949 |
|      39 | 0x22F6      |        8950 |
|      40 | 0x091B      |        2331 |
|      41 | 0x2344      |        9028 |

## Events

### Event 65535

#### Metadata

| Field        | Value   |
|--------------|---------|
| Entrypoint   | 0x0000  |
| Data Size    | 1 bytes |
| Instructions | 1       |

```
      00 01 02 03 04 05 06 07  08 09 0A 0B 0C 0D 0E 0F
      -- -- -- -- -- -- -- --  -- -- -- -- -- -- -- --
0000: 00                                                .               
```

#### Opcodes

```
  0: 0x0000 [0x00] END_REQSTACK()
```

### Event 60

#### Metadata

| Field        | Value   |
|--------------|---------|
| Entrypoint   | 0x0001  |
| Data Size    | 1 bytes |
| Instructions | 1       |

```
      00 01 02 03 04 05 06 07  08 09 0A 0B 0C 0D 0E 0F
      -- -- -- -- -- -- -- --  -- -- -- -- -- -- -- --
0000:    00                                              .              
```

#### Opcodes

```
  0: 0x0001 [0x00] END_REQSTACK()
```

### Event 61

#### Metadata

| Field        | Value    |
|--------------|----------|
| Entrypoint   | 0x0002   |
| Data Size    | 66 bytes |
| Instructions | 11       |

```
      00 01 02 03 04 05 06 07  08 09 0A 0B 0C 0D 0E 0F
      -- -- -- -- -- -- -- --  -- -- -- -- -- -- -- --
0000:       66 00 80 19 21 03  01 19 21 03 01 74 68 6B    f...!...!..thk
0010: 31 53 19 21 03 01 19 21  03 01 74 68 6B 31 1D 01  1S.!...!..thk1..
0020: 80 23 66 00 80 19 21 03  01 19 21 03 01 74 68 6B  .#f...!...!..thk
0030: 32 1C 02 80 79 00 F8 FF  FF 7F F0 FF FF 7F 1D 03  2...y...........
0040: 80 23 21 00                                       .#!.            
```

#### Opcodes

```
  0: 0x0002 [0x66] LOAD_EXT_SCHEDULER_MAIN: Load scheduler "thk1" with entities [Waoud (ID: 16982297/0x01032119), Waoud (ID: 16982297/0x01032119)], work=0*
  1: 0x0011 [0x53] WAIT_SCHEDULER_TASK: Wait for scheduler "thk1" with entities [Waoud (ID: 16982297/0x01032119), Waoud (ID: 16982297/0x01032119)]
  2: 0x001E [0x1D] PRINT_EVENT_MESSAGE(message_id=8737*)
    → "...\u0007The long gallery remains dark in the glow of infinite lights.\u0007What meaning lies behind these words...?\u007F1\u0000\u0007"
  3: 0x0021 [0x23] WAIT_FOR_DIALOG_INTERACTION
  4: 0x0022 [0x66] LOAD_EXT_SCHEDULER_MAIN: Load scheduler "thk2" with entities [Waoud (ID: 16982297/0x01032119), Waoud (ID: 16982297/0x01032119)], work=0*
  5: 0x0031 [0x1C] WAIT(20* ticks)
  6: 0x0034 [0x79] EventEntity looks at LocalPlayer (Basic look)
  7: 0x003E [0x1D] PRINT_EVENT_MESSAGE(message_id=8738*)
    → "My apologies.\u0007I but ponder aloud the mysteries of the universe. Pay me no heed.\u007F1\u0000\u0007"
  8: 0x0041 [0x23] WAIT_FOR_DIALOG_INTERACTION
  9: 0x0042 [0x21] END_EVENT
 10: 0x0043 [0x00] END_REQSTACK()
```

### Event 62

#### Metadata

| Field        | Value   |
|--------------|---------|
| Entrypoint   | 0x0044  |
| Data Size    | 1 bytes |
| Instructions | 1       |

```
      00 01 02 03 04 05 06 07  08 09 0A 0B 0C 0D 0E 0F
      -- -- -- -- -- -- -- --  -- -- -- -- -- -- -- --
0040:             00                                        .           
```

#### Opcodes

```
  0: 0x0044 [0x00] END_REQSTACK()
```

### Event 63

#### Metadata

| Field        | Value    |
|--------------|----------|
| Entrypoint   | 0x0045   |
| Data Size    | 21 bytes |
| Instructions | 11       |

```
      00 01 02 03 04 05 06 07  08 09 0A 0B 0C 0D 0E 0F
      -- -- -- -- -- -- -- --  -- -- -- -- -- -- -- --
0040:                1E F0 FF  FF 7F 6F 70 1D 04 80 23       .....op...#
0050: 1D 05 80 23 1D 06 80 23  21 00                    ...#...#!.      
```

#### Opcodes

```
  0: 0x0045 [0x1E] EventEntity looks at LocalPlayer and starts talking
  1: 0x004A [0x6F] WAIT_FRAME_DELAY: Yield until WaitTime reaches zero
  2: 0x004B [0x70] WAIT_ENTITY_RENDER_FLAG: Wait while EventEntity->Render.Flags3 bit 2 is set (cancel turn if not)
  3: 0x004C [0x1D] PRINT_EVENT_MESSAGE(message_id=8783*)
    → "As divining is my stock in trade, it may hardly surprise you to know that I believe destiny to be an ever flowing river of possibilities.\u007F1\u0000\u0007"
  4: 0x004F [0x23] WAIT_FOR_DIALOG_INTERACTION
  5: 0x0050 [0x1D] PRINT_EVENT_MESSAGE(message_id=8784*)
    → "Yet there are also those who see destiny as immutable and inescapable.\u0007Which do you believe, I wonder...?\u007F1\u0000\u0007"
  6: 0x0053 [0x23] WAIT_FOR_DIALOG_INTERACTION
  7: 0x0054 [0x1D] PRINT_EVENT_MESSAGE(message_id=8785*)
    → "...But I digress.\u0007If you desire to hear my divinations again, return here after one full cycle of the sun.\u007F1\u0000\u0007"
  8: 0x0057 [0x23] WAIT_FOR_DIALOG_INTERACTION
  9: 0x0058 [0x21] END_EVENT
 10: 0x0059 [0x00] END_REQSTACK()
```

### Event 64

#### Metadata

| Field        | Value    |
|--------------|----------|
| Entrypoint   | 0x005A   |
| Data Size    | 21 bytes |
| Instructions | 5        |

```
      00 01 02 03 04 05 06 07  08 09 0A 0B 0C 0D 0E 0F
      -- -- -- -- -- -- -- --  -- -- -- -- -- -- -- --
0050:                                66 07 80 19 21 03            f...!.
0060: 01 19 21 03 01 6B 73 6B  30 1D 08 80 23 21 00     ..!..ksk0...#!. 
```

#### Opcodes

```
  0: 0x005A [0x66] LOAD_EXT_SCHEDULER_MAIN: Load scheduler "ksk0" with entities [Waoud (ID: 16982297/0x01032119), Waoud (ID: 16982297/0x01032119)], work=2*
  1: 0x0069 [0x1D] PRINT_EVENT_MESSAGE(message_id=8809*)
    → "In fact, I shall not ask payment of you this day.\u0007And please forget my unreasonable request.\u0007May fortune smile upon you...\u007F1\u0000\u0007"
  2: 0x006C [0x23] WAIT_FOR_DIALOG_INTERACTION
  3: 0x006D [0x21] END_EVENT
  4: 0x006E [0x00] END_REQSTACK()
```

### Event 65

#### Metadata

| Field        | Value   |
|--------------|---------|
| Entrypoint   | 0x006F  |
| Data Size    | 1 bytes |
| Instructions | 1       |

```
      00 01 02 03 04 05 06 07  08 09 0A 0B 0C 0D 0E 0F
      -- -- -- -- -- -- -- --  -- -- -- -- -- -- -- --
0060:                                               00                 .
```

#### Opcodes

```
  0: 0x006F [0x00] END_REQSTACK()
```

### Event 66

#### Metadata

| Field        | Value     |
|--------------|-----------|
| Entrypoint   | 0x0070    |
| Data Size    | 108 bytes |
| Instructions | 29        |

```
      00 01 02 03 04 05 06 07  08 09 0A 0B 0C 0D 0E 0F
      -- -- -- -- -- -- -- --  -- -- -- -- -- -- -- --
0070: 1E F0 FF FF 7F 6F 70 1D  09 80 23 03 01 10 07 80  .....op...#.....
0080: 43 00 43 01 03 00 00 08  10 02 00 00 0A 80 80 9C  C.C.............
0090: 00 2B 19 21 03 01 0B 80  23 01 C2 00 02 00 00 07  .+.!....#.......
00A0: 80 80 AF 00 2B 19 21 03  01 0C 80 23 01 C2 00 02  ....+.!....#....
00B0: 00 00 0D 80 80 C2 00 2B  19 21 03 01 0E 80 23 01  .......+.!....#.
00C0: C2 00 2B 19 21 03 01 0F  80 23 2B 19 21 03 01 10  ..+.!....#+.!...
00D0: 80 23 2B 19 21 03 01 11  80 23 21 00              .#+.!....#!.    
```

#### Opcodes

```
  0: 0x0070 [0x1E] EventEntity looks at LocalPlayer and starts talking
  1: 0x0075 [0x6F] WAIT_FRAME_DELAY: Yield until WaitTime reaches zero
  2: 0x0076 [0x70] WAIT_ENTITY_RENDER_FLAG: Wait while EventEntity->Render.Flags3 bit 2 is set (cancel turn if not)
  3: 0x0077 [0x1D] PRINT_EVENT_MESSAGE(message_id=8817*)
    → "I know not the name of the object, but I do recall some clues...\u007F1\u0000\u0007"
  4: 0x007A [0x23] WAIT_FOR_DIALOG_INTERACTION
  5: 0x007B [0x03] Work_Zone[1] = 2*
  6: 0x0080 [0x43] SEND_EVENT_UPDATE: Send pending tag to server (packet 0x005B)
  7: 0x0082 [0x43] SEND_EVENT_UPDATE: Check pending flag (skip if not pending)
  8: 0x0084 [0x03] ExtData[1]->WorkLocal[0] = Work_Zone[8]
  9: 0x0089 [0x02] IF !(ExtData[1]->WorkLocal[0] == 1*) GOTO 0x009C
 10: 0x0091 [0x2B] Waoud (ID: 16982297/0x01032119) [8801*]:
    → "The treasure I would have you seek is a jewel.\u0007It is said to glow with a bluish tint and be found near the bank of a certain river.\u007F1\u0000\u0007"
 11: 0x0098 [0x23] WAIT_FOR_DIALOG_INTERACTION
 12: 0x0099 [0x01] GOTO 0x00C2
 13: 0x009C [0x02] IF !(ExtData[1]->WorkLocal[0] == 2*) GOTO 0x00AF
 14: 0x00A4 [0x2B] Waoud (ID: 16982297/0x01032119) [8803*]:
    → "The treasure I would have you seek is a pinch of golden sand.\u0007It is said to glow with the light of the sun and be found only on a certain beach.\u007F1\u0000\u0007"
 15: 0x00AB [0x23] WAIT_FOR_DIALOG_INTERACTION
 16: 0x00AC [0x01] GOTO 0x00C2
 17: 0x00AF [0x02] IF !(ExtData[1]->WorkLocal[0] == 3*) GOTO 0x00C2
 18: 0x00B7 [0x2B] Waoud (ID: 16982297/0x01032119) [8805*]:
    → "The treasure I would have you seek is a precious stone.\u0007It is said to be as red as blood and found in a land of geysers.\u007F1\u0000\u0007"
 19: 0x00BE [0x23] WAIT_FOR_DIALOG_INTERACTION
 20: 0x00BF [0x01] GOTO 0x00C2

SUBROUTINE_00C2:
 21: 0x00C2 [0x2B] Waoud (ID: 16982297/0x01032119) [8814*]:
    → "Its discovery is apparently made easier under very particular conditions, but I cannot provide you with any details. My original source of information returned home to the Middle Lands before I could learn more.\u007F1\u0000\u0007"
 22: 0x00C9 [0x23] WAIT_FOR_DIALOG_INTERACTION
 23: 0x00CA [0x2B] Waoud (ID: 16982297/0x01032119) [8815*]:
    → "But with your knowledge of that continent, you may have a chance...\u007F1\u0000\u0007"
 24: 0x00D1 [0x23] WAIT_FOR_DIALOG_INTERACTION
 25: 0x00D2 [0x2B] Waoud (ID: 16982297/0x01032119) [8816*]:
    → "May the winds of fortune guide you!\u007F1\u0000\u0007"
 26: 0x00D9 [0x23] WAIT_FOR_DIALOG_INTERACTION
 27: 0x00DA [0x21] END_EVENT
 28: 0x00DB [0x00] END_REQSTACK()
```

### Event 67

#### Metadata

| Field        | Value   |
|--------------|---------|
| Entrypoint   | 0x00DC  |
| Data Size    | 1 bytes |
| Instructions | 1       |

```
      00 01 02 03 04 05 06 07  08 09 0A 0B 0C 0D 0E 0F
      -- -- -- -- -- -- -- --  -- -- -- -- -- -- -- --
00D0:                                      00                       .   
```

#### Opcodes

```
  0: 0x00DC [0x00] END_REQSTACK()
```

### Event 68

#### Metadata

| Field        | Value    |
|--------------|----------|
| Entrypoint   | 0x00DD   |
| Data Size    | 17 bytes |
| Instructions | 9        |

```
      00 01 02 03 04 05 06 07  08 09 0A 0B 0C 0D 0E 0F
      -- -- -- -- -- -- -- --  -- -- -- -- -- -- -- --
00D0:                                         1E F0 FF               ...
00E0: FF 7F 6F 70 1D 12 80 23  1D 13 80 23 21 00        ..op...#...#!.  
```

#### Opcodes

```
  0: 0x00DD [0x1E] EventEntity looks at LocalPlayer and starts talking
  1: 0x00E2 [0x6F] WAIT_FRAME_DELAY: Yield until WaitTime reaches zero
  2: 0x00E3 [0x70] WAIT_ENTITY_RENDER_FLAG: Wait while EventEntity->Render.Flags3 bit 2 is set (cancel turn if not)
  3: 0x00E4 [0x1D] PRINT_EVENT_MESSAGE(message_id=8823*)
    → "My colleague is currently part of an Imperial patrol that apprehends desecrators of the ruins found in the Aydeewa Subterrane.\u007F1\u0000\u0007"
  4: 0x00E7 [0x23] WAIT_FOR_DIALOG_INTERACTION
  5: 0x00E8 [0x1D] PRINT_EVENT_MESSAGE(message_id=8824*)
    → "The Aydeewa Subterrane runs beneath Bhaflau Thickets.\u0007May the winds of fortune guide you.\u007F1\u0000\u0007"
  6: 0x00EB [0x23] WAIT_FOR_DIALOG_INTERACTION
  7: 0x00EC [0x21] END_EVENT
  8: 0x00ED [0x00] END_REQSTACK()
```

### Event 69

#### Metadata

| Field        | Value   |
|--------------|---------|
| Entrypoint   | 0x00EE  |
| Data Size    | 1 bytes |
| Instructions | 1       |

```
      00 01 02 03 04 05 06 07  08 09 0A 0B 0C 0D 0E 0F
      -- -- -- -- -- -- -- --  -- -- -- -- -- -- -- --
00E0:                                            00                   . 
```

#### Opcodes

```
  0: 0x00EE [0x00] END_REQSTACK()
```

### Event 78

#### Metadata

| Field        | Value   |
|--------------|---------|
| Entrypoint   | 0x00EF  |
| Data Size    | 1 bytes |
| Instructions | 1       |

```
      00 01 02 03 04 05 06 07  08 09 0A 0B 0C 0D 0E 0F
      -- -- -- -- -- -- -- --  -- -- -- -- -- -- -- --
00E0:                                               00                 .
```

#### Opcodes

```
  0: 0x00EF [0x00] END_REQSTACK()
```

### Event 705

#### Metadata

| Field        | Value   |
|--------------|---------|
| Entrypoint   | 0x00F0  |
| Data Size    | 1 bytes |
| Instructions | 1       |

```
      00 01 02 03 04 05 06 07  08 09 0A 0B 0C 0D 0E 0F
      -- -- -- -- -- -- -- --  -- -- -- -- -- -- -- --
00F0: 00                                                .               
```

#### Opcodes

```
  0: 0x00F0 [0x00] END_REQSTACK()
```

### Event 706

#### Metadata

| Field        | Value     |
|--------------|-----------|
| Entrypoint   | 0x00F1    |
| Data Size    | 281 bytes |
| Instructions | 49        |

```
      00 01 02 03 04 05 06 07  08 09 0A 0B 0C 0D 0E 0F
      -- -- -- -- -- -- -- --  -- -- -- -- -- -- -- --
00F0:    4A F0 FF FF 7F 19 21  03 01 4A 19 21 03 01 F0   J.....!..J.!...
0100: FF FF 7F 6F 76 19 21 03  01 2B 19 21 03 01 14 80  ...ov.!..+.!....
0110: 23 24 15 80 00 80 00 80  25 02 00 10 00 80 00 69  #$......%......i
0120: 01 03 01 10 00 80 43 00  43 01 02 02 10 16 80 03  ......C.C.......
0130: 66 01 66 00 80 19 21 03  01 19 21 03 01 74 68 6B  f.f...!...!..thk
0140: 31 1C 17 80 2B 19 21 03  01 18 80 23 66 00 80 19  1...+.!....#f...
0150: 21 03 01 19 21 03 01 74  68 6B 32 2B 19 21 03 01  !...!..thk2+.!..
0160: 19 80 23 01 08 02 01 8E  01 02 00 10 0A 80 00 8E  ..#.............
0170: 01 66 00 80 19 21 03 01  19 21 03 01 64 69 73 30  .f...!...!..dis0
0180: 2B 19 21 03 01 1A 80 23  01 08 02 01 8E 01 42 81  +.!....#......B.
0190: 00 19 21 03 01 66 1B 80  19 21 03 01 19 21 03 01  ..!..f...!...!..
01A0: 61 6B 61 30 53 19 21 03  01 19 21 03 01 61 6B 61  aka0S.!...!..aka
01B0: 30 2B 19 21 03 01 1C 80  23 2B 19 21 03 01 1D 80  0+.!....#+.!....
01C0: 23 2B 19 21 03 01 1E 80  23 2B 19 21 03 01 1F 80  #+.!....#+.!....
01D0: 23 2B 19 21 03 01 20 80  23 2B 19 21 03 01 21 80  #+.!.. .#+.!..!.
01E0: 23 66 1B 80 19 21 03 01  19 21 03 01 61 6B 61 31  #f...!...!..aka1
01F0: 53 19 21 03 01 19 21 03  01 61 6B 61 31 81 01 19  S.!...!..aka1...
0200: 21 03 01 03 01 10 0A 80  21 00                    !.......!.      
```

#### Opcodes

```
  0: 0x00F1 [0x4A] LocalPlayer looks at Waoud (ID: 16982297/0x01032119)
  1: 0x00FA [0x4A] Waoud (ID: 16982297/0x01032119) looks at LocalPlayer
  2: 0x0103 [0x6F] WAIT_FRAME_DELAY: Yield until WaitTime reaches zero
  3: 0x0104 [0x76] CHECK_ENTITY_RENDER_FLAGS: Wait until Waoud (ID: 16982297/0x01032119) Render.Flags0 and Render.Flags3 conditions are met
  4: 0x0109 [0x2B] Waoud (ID: 16982297/0x01032119) [8743*]:
    → "Do you wish to gaze on the tapestry that fate has woven for you?\u0007I require less coin from adventurers for my divinations, considering their...uncertain employment.\u007F1\u0000\u0007"
  5: 0x0110 [0x23] WAIT_FOR_DIALOG_INTERACTION
  6: 0x0111 [0x24] CREATE_DIALOG(message_id=8744*, default_option=0*, option_flags=0*)
    → "Gaze on fate's tapestry?\u0007\u000BGaze away.\u0007I weave my own tapestry.\u007F1\u0000\u0007"
  7: 0x0118 [0x25] WAIT_DIALOG_SELECT()
  8: 0x0119 [0x02] IF !(Work_Zone[0] == 0*) GOTO 0x0169
  9: 0x0121 [0x03] Work_Zone[1] = 0*
 10: 0x0126 [0x43] SEND_EVENT_UPDATE: Send pending tag to server (packet 0x005B)
 11: 0x0128 [0x43] SEND_EVENT_UPDATE: Check pending flag (skip if not pending)
 12: 0x012A [0x02] IF !(Work_Zone[2] >= 1000*) GOTO 0x0166
 13: 0x0132 [0x66] LOAD_EXT_SCHEDULER_MAIN: Load scheduler "thk1" with entities [Waoud (ID: 16982297/0x01032119), Waoud (ID: 16982297/0x01032119)], work=0*
 14: 0x0141 [0x1C] WAIT(45* ticks)
 15: 0x0144 [0x2B] Waoud (ID: 16982297/0x01032119) [8746*]:
    → "The merchants of foreign lands have a saying: \u00072Gil is the glue that brings us together.\u00073\u007F1\u0000\u0007"
 16: 0x014B [0x23] WAIT_FOR_DIALOG_INTERACTION
 17: 0x014C [0x66] LOAD_EXT_SCHEDULER_MAIN: Load scheduler "thk2" with entities [Waoud (ID: 16982297/0x01032119), Waoud (ID: 16982297/0x01032119)], work=0*
 18: 0x015B [0x2B] Waoud (ID: 16982297/0x01032119) [8747*]:
    → "I am afraid your purse is a trifle light today...\u007F1\u0000\u0007"
 19: 0x0162 [0x23] WAIT_FOR_DIALOG_INTERACTION
 20: 0x0163 [0x01] GOTO 0x0208
 21: 0x0166 [0x01] GOTO 0x018E
 22: 0x0169 [0x02] IF !(Work_Zone[0] == 1*) GOTO 0x018E
 23: 0x0171 [0x66] LOAD_EXT_SCHEDULER_MAIN: Load scheduler "dis0" with entities [Waoud (ID: 16982297/0x01032119), Waoud (ID: 16982297/0x01032119)], work=0*
 24: 0x0180 [0x2B] Waoud (ID: 16982297/0x01032119) [8745*]:
    → "A pity. Perhaps another time.\u007F1\u0000\u0007"
 25: 0x0187 [0x23] WAIT_FOR_DIALOG_INTERACTION
 26: 0x0188 [0x01] GOTO 0x0208

SUBROUTINE_018E:
 27: 0x018E [0x42] SET_CLI_EVENT_CANCEL_DATA()
 28: 0x018F [0x81] SET_ENTITY_BLINKING(blink_flag=0x00, entity=Waoud (ID: 16982297/0x01032119))
 29: 0x0195 [0x66] LOAD_EXT_SCHEDULER_MAIN: Load scheduler "aka0" with entities [Waoud (ID: 16982297/0x01032119), Waoud (ID: 16982297/0x01032119)], work=5*
 30: 0x01A4 [0x53] WAIT_SCHEDULER_TASK: Wait for scheduler "aka0" with entities [Waoud (ID: 16982297/0x01032119), Waoud (ID: 16982297/0x01032119)]
 31: 0x01B1 [0x2B] Waoud (ID: 16982297/0x01032119) [8858*]:
    → "The symbol of guidance.\u0007Four lamps surround a mystical gate.\u0007The opening of this gate will lead you to distant lands.\u007F1\u0000\u0007"
 32: 0x01B8 [0x23] WAIT_FOR_DIALOG_INTERACTION
 33: 0x01B9 [0x2B] Waoud (ID: 16982297/0x01032119) [8859*]:
    → "To the land that lies east of Nashmau, beyond the Deadmist Marsh...\u007F1\u0000\u0007"
 34: 0x01C0 [0x23] WAIT_FOR_DIALOG_INTERACTION
 35: 0x01C1 [0x2B] Waoud (ID: 16982297/0x01032119) [8860*]:
    → "To the land that lies west of the city of Mamook...\u007F1\u0000\u0007"
 36: 0x01C8 [0x23] WAIT_FOR_DIALOG_INTERACTION
 37: 0x01C9 [0x2B] Waoud (ID: 16982297/0x01032119) [8861*]:
    → "To the land that lies in the northeastern shadow of Mount Zhayolm...\u007F1\u0000\u0007"
 38: 0x01D0 [0x23] WAIT_FOR_DIALOG_INTERACTION
 39: 0x01D1 [0x2B] Waoud (ID: 16982297/0x01032119) [8862*]:
    → "To the land that lies west, across the sea from Nashmau...\u007F1\u0000\u0007"
 40: 0x01D8 [0x23] WAIT_FOR_DIALOG_INTERACTION
 41: 0x01D9 [0x2B] Waoud (ID: 16982297/0x01032119) [8863*]:
    → "To the land that lies in the northern caverns of the Arrapago Reef...\u007F1\u0000\u0007"
 42: 0x01E0 [0x23] WAIT_FOR_DIALOG_INTERACTION
 43: 0x01E1 [0x66] LOAD_EXT_SCHEDULER_MAIN: Load scheduler "aka1" with entities [Waoud (ID: 16982297/0x01032119), Waoud (ID: 16982297/0x01032119)], work=5*
 44: 0x01F0 [0x53] WAIT_SCHEDULER_TASK: Wait for scheduler "aka1" with entities [Waoud (ID: 16982297/0x01032119), Waoud (ID: 16982297/0x01032119)]
 45: 0x01FD [0x81] SET_ENTITY_BLINKING(blink_flag=0x01, entity=Waoud (ID: 16982297/0x01032119))
 46: 0x0203 [0x03] Work_Zone[1] = 1*

SUBROUTINE_0208:
 47: 0x0208 [0x21] END_EVENT
 48: 0x0209 [0x00] END_REQSTACK()
```

#### Data or dead code:

```
# Dead code (unreachable instructions):
     0x018B [0x01] GOTO 0x018E
```

### Event 707

#### Metadata

| Field        | Value   |
|--------------|---------|
| Entrypoint   | 0x020A  |
| Data Size    | 1 bytes |
| Instructions | 1       |

```
      00 01 02 03 04 05 06 07  08 09 0A 0B 0C 0D 0E 0F
      -- -- -- -- -- -- -- --  -- -- -- -- -- -- -- --
0200:                                00                           .     
```

#### Opcodes

```
  0: 0x020A [0x00] END_REQSTACK()
```

### Event 708

#### Metadata

| Field        | Value   |
|--------------|---------|
| Entrypoint   | 0x020B  |
| Data Size    | 1 bytes |
| Instructions | 1       |

```
      00 01 02 03 04 05 06 07  08 09 0A 0B 0C 0D 0E 0F
      -- -- -- -- -- -- -- --  -- -- -- -- -- -- -- --
0200:                                   00                         .    
```

#### Opcodes

```
  0: 0x020B [0x00] END_REQSTACK()
```

### Event 710

#### Metadata

| Field        | Value   |
|--------------|---------|
| Entrypoint   | 0x020C  |
| Data Size    | 1 bytes |
| Instructions | 1       |

```
      00 01 02 03 04 05 06 07  08 09 0A 0B 0C 0D 0E 0F
      -- -- -- -- -- -- -- --  -- -- -- -- -- -- -- --
0200:                                      00                       .   
```

#### Opcodes

```
  0: 0x020C [0x00] END_REQSTACK()
```

### Event 711

#### Metadata

| Field        | Value     |
|--------------|-----------|
| Entrypoint   | 0x020D    |
| Data Size    | 249 bytes |
| Instructions | 41        |

```
      00 01 02 03 04 05 06 07  08 09 0A 0B 0C 0D 0E 0F
      -- -- -- -- -- -- -- --  -- -- -- -- -- -- -- --
0200:                                         4A F0 FF               J..
0210: FF 7F 19 21 03 01 4A 19  21 03 01 F0 FF FF 7F 6F  ...!..J.!......o
0220: 76 19 21 03 01 2B 19 21  03 01 14 80 23 24 15 80  v.!..+.!....#$..
0230: 00 80 00 80 25 02 00 10  00 80 00 85 02 03 01 10  ....%...........
0240: 00 80 43 00 43 01 02 02  10 16 80 03 82 02 66 00  ..C.C.........f.
0250: 80 19 21 03 01 19 21 03  01 74 68 6B 31 1C 17 80  ..!...!..thk1...
0260: 2B 19 21 03 01 18 80 23  66 00 80 19 21 03 01 19  +.!....#f...!...
0270: 21 03 01 74 68 6B 32 2B  19 21 03 01 19 80 23 01  !..thk2+.!....#.
0280: 04 03 01 AA 02 02 00 10  0A 80 00 AA 02 66 00 80  .............f..
0290: 19 21 03 01 19 21 03 01  64 69 73 30 2B 19 21 03  .!...!..dis0+.!.
02A0: 01 1A 80 23 01 04 03 01  AA 02 42 81 00 19 21 03  ...#......B...!.
02B0: 01 66 1B 80 19 21 03 01  19 21 03 01 61 6B 61 30  .f...!...!..aka0
02C0: 53 19 21 03 01 19 21 03  01 61 6B 61 30 2B 19 21  S.!...!..aka0+.!
02D0: 03 01 22 80 23 2B 19 21  03 01 23 80 23 66 1B 80  ..".#+.!..#.#f..
02E0: 19 21 03 01 19 21 03 01  61 6B 61 31 53 19 21 03  .!...!..aka1S.!.
02F0: 01 19 21 03 01 61 6B 61  31 81 01 19 21 03 01 03  ..!..aka1...!...
0300: 01 10 0A 80 21 00                                 ....!.          
```

#### Opcodes

```
  0: 0x020D [0x4A] LocalPlayer looks at Waoud (ID: 16982297/0x01032119)
  1: 0x0216 [0x4A] Waoud (ID: 16982297/0x01032119) looks at LocalPlayer
  2: 0x021F [0x6F] WAIT_FRAME_DELAY: Yield until WaitTime reaches zero
  3: 0x0220 [0x76] CHECK_ENTITY_RENDER_FLAGS: Wait until Waoud (ID: 16982297/0x01032119) Render.Flags0 and Render.Flags3 conditions are met
  4: 0x0225 [0x2B] Waoud (ID: 16982297/0x01032119) [8743*]:
    → "Do you wish to gaze on the tapestry that fate has woven for you?\u0007I require less coin from adventurers for my divinations, considering their...uncertain employment.\u007F1\u0000\u0007"
  5: 0x022C [0x23] WAIT_FOR_DIALOG_INTERACTION
  6: 0x022D [0x24] CREATE_DIALOG(message_id=8744*, default_option=0*, option_flags=0*)
    → "Gaze on fate's tapestry?\u0007\u000BGaze away.\u0007I weave my own tapestry.\u007F1\u0000\u0007"
  7: 0x0234 [0x25] WAIT_DIALOG_SELECT()
  8: 0x0235 [0x02] IF !(Work_Zone[0] == 0*) GOTO 0x0285
  9: 0x023D [0x03] Work_Zone[1] = 0*
 10: 0x0242 [0x43] SEND_EVENT_UPDATE: Send pending tag to server (packet 0x005B)
 11: 0x0244 [0x43] SEND_EVENT_UPDATE: Check pending flag (skip if not pending)
 12: 0x0246 [0x02] IF !(Work_Zone[2] >= 1000*) GOTO 0x0282
 13: 0x024E [0x66] LOAD_EXT_SCHEDULER_MAIN: Load scheduler "thk1" with entities [Waoud (ID: 16982297/0x01032119), Waoud (ID: 16982297/0x01032119)], work=0*
 14: 0x025D [0x1C] WAIT(45* ticks)
 15: 0x0260 [0x2B] Waoud (ID: 16982297/0x01032119) [8746*]:
    → "The merchants of foreign lands have a saying: \u00072Gil is the glue that brings us together.\u00073\u007F1\u0000\u0007"
 16: 0x0267 [0x23] WAIT_FOR_DIALOG_INTERACTION
 17: 0x0268 [0x66] LOAD_EXT_SCHEDULER_MAIN: Load scheduler "thk2" with entities [Waoud (ID: 16982297/0x01032119), Waoud (ID: 16982297/0x01032119)], work=0*
 18: 0x0277 [0x2B] Waoud (ID: 16982297/0x01032119) [8747*]:
    → "I am afraid your purse is a trifle light today...\u007F1\u0000\u0007"
 19: 0x027E [0x23] WAIT_FOR_DIALOG_INTERACTION
 20: 0x027F [0x01] GOTO 0x0304
 21: 0x0282 [0x01] GOTO 0x02AA
 22: 0x0285 [0x02] IF !(Work_Zone[0] == 1*) GOTO 0x02AA
 23: 0x028D [0x66] LOAD_EXT_SCHEDULER_MAIN: Load scheduler "dis0" with entities [Waoud (ID: 16982297/0x01032119), Waoud (ID: 16982297/0x01032119)], work=0*
 24: 0x029C [0x2B] Waoud (ID: 16982297/0x01032119) [8745*]:
    → "A pity. Perhaps another time.\u007F1\u0000\u0007"
 25: 0x02A3 [0x23] WAIT_FOR_DIALOG_INTERACTION
 26: 0x02A4 [0x01] GOTO 0x0304

SUBROUTINE_02AA:
 27: 0x02AA [0x42] SET_CLI_EVENT_CANCEL_DATA()
 28: 0x02AB [0x81] SET_ENTITY_BLINKING(blink_flag=0x00, entity=Waoud (ID: 16982297/0x01032119))
 29: 0x02B1 [0x66] LOAD_EXT_SCHEDULER_MAIN: Load scheduler "aka0" with entities [Waoud (ID: 16982297/0x01032119), Waoud (ID: 16982297/0x01032119)], work=5*
 30: 0x02C0 [0x53] WAIT_SCHEDULER_TASK: Wait for scheduler "aka0" with entities [Waoud (ID: 16982297/0x01032119), Waoud (ID: 16982297/0x01032119)]
 31: 0x02CD [0x2B] Waoud (ID: 16982297/0x01032119) [8888*]:
    → "The symbol of trials...\u0007Traverse the dead fields where no plant or animal thrives.\u0007You will find your destination beyond the sea of fire.\u007F1\u0000\u0007"
 32: 0x02D4 [0x23] WAIT_FOR_DIALOG_INTERACTION
 33: 0x02D5 [0x2B] Waoud (ID: 16982297/0x01032119) [8889*]:
    → "The beasts left behind when the vessel is shattered...\u007F1\u0000\u0007"
 34: 0x02DC [0x23] WAIT_FOR_DIALOG_INTERACTION
 35: 0x02DD [0x66] LOAD_EXT_SCHEDULER_MAIN: Load scheduler "aka1" with entities [Waoud (ID: 16982297/0x01032119), Waoud (ID: 16982297/0x01032119)], work=5*
 36: 0x02EC [0x53] WAIT_SCHEDULER_TASK: Wait for scheduler "aka1" with entities [Waoud (ID: 16982297/0x01032119), Waoud (ID: 16982297/0x01032119)]
 37: 0x02F9 [0x81] SET_ENTITY_BLINKING(blink_flag=0x01, entity=Waoud (ID: 16982297/0x01032119))
 38: 0x02FF [0x03] Work_Zone[1] = 1*

SUBROUTINE_0304:
 39: 0x0304 [0x21] END_EVENT
 40: 0x0305 [0x00] END_REQSTACK()
```

#### Data or dead code:

```
# Dead code (unreachable instructions):
     0x02A7 [0x01] GOTO 0x02AA
```

### Event 712

#### Metadata

| Field        | Value   |
|--------------|---------|
| Entrypoint   | 0x0306  |
| Data Size    | 1 bytes |
| Instructions | 1       |

```
      00 01 02 03 04 05 06 07  08 09 0A 0B 0C 0D 0E 0F
      -- -- -- -- -- -- -- --  -- -- -- -- -- -- -- --
0300:                   00                                    .         
```

#### Opcodes

```
  0: 0x0306 [0x00] END_REQSTACK()
```

### Event 713

#### Metadata

| Field        | Value     |
|--------------|-----------|
| Entrypoint   | 0x0307    |
| Data Size    | 241 bytes |
| Instructions | 39        |

```
      00 01 02 03 04 05 06 07  08 09 0A 0B 0C 0D 0E 0F
      -- -- -- -- -- -- -- --  -- -- -- -- -- -- -- --
0300:                      4A  F0 FF FF 7F 19 21 03 01         J.....!..
0310: 4A 19 21 03 01 F0 FF FF  7F 6F 76 19 21 03 01 2B  J.!......ov.!..+
0320: 19 21 03 01 14 80 23 24  15 80 00 80 00 80 25 02  .!....#$......%.
0330: 00 10 00 80 00 7F 03 03  01 10 00 80 43 00 43 01  ............C.C.
0340: 02 02 10 16 80 03 7C 03  66 00 80 19 21 03 01 19  ......|.f...!...
0350: 21 03 01 74 68 6B 31 1C  17 80 2B 19 21 03 01 18  !..thk1...+.!...
0360: 80 23 66 00 80 19 21 03  01 19 21 03 01 74 68 6B  .#f...!...!..thk
0370: 32 2B 19 21 03 01 19 80  23 01 F6 03 01 A4 03 02  2+.!....#.......
0380: 00 10 0A 80 00 A4 03 66  00 80 19 21 03 01 19 21  .......f...!...!
0390: 03 01 64 69 73 30 2B 19  21 03 01 1A 80 23 01 F6  ..dis0+.!....#..
03A0: 03 01 A4 03 42 81 00 19  21 03 01 66 1B 80 19 21  ....B...!..f...!
03B0: 03 01 19 21 03 01 61 6B  61 30 53 19 21 03 01 19  ...!..aka0S.!...
03C0: 21 03 01 61 6B 61 30 2B  19 21 03 01 24 80 23 66  !..aka0+.!..$.#f
03D0: 1B 80 19 21 03 01 19 21  03 01 61 6B 61 31 53 19  ...!...!..aka1S.
03E0: 21 03 01 19 21 03 01 61  6B 61 31 81 01 19 21 03  !...!..aka1...!.
03F0: 01 03 01 10 0A 80 21 00                           ......!.        
```

#### Opcodes

```
  0: 0x0307 [0x4A] LocalPlayer looks at Waoud (ID: 16982297/0x01032119)
  1: 0x0310 [0x4A] Waoud (ID: 16982297/0x01032119) looks at LocalPlayer
  2: 0x0319 [0x6F] WAIT_FRAME_DELAY: Yield until WaitTime reaches zero
  3: 0x031A [0x76] CHECK_ENTITY_RENDER_FLAGS: Wait until Waoud (ID: 16982297/0x01032119) Render.Flags0 and Render.Flags3 conditions are met
  4: 0x031F [0x2B] Waoud (ID: 16982297/0x01032119) [8743*]:
    → "Do you wish to gaze on the tapestry that fate has woven for you?\u0007I require less coin from adventurers for my divinations, considering their...uncertain employment.\u007F1\u0000\u0007"
  5: 0x0326 [0x23] WAIT_FOR_DIALOG_INTERACTION
  6: 0x0327 [0x24] CREATE_DIALOG(message_id=8744*, default_option=0*, option_flags=0*)
    → "Gaze on fate's tapestry?\u0007\u000BGaze away.\u0007I weave my own tapestry.\u007F1\u0000\u0007"
  7: 0x032E [0x25] WAIT_DIALOG_SELECT()
  8: 0x032F [0x02] IF !(Work_Zone[0] == 0*) GOTO 0x037F
  9: 0x0337 [0x03] Work_Zone[1] = 0*
 10: 0x033C [0x43] SEND_EVENT_UPDATE: Send pending tag to server (packet 0x005B)
 11: 0x033E [0x43] SEND_EVENT_UPDATE: Check pending flag (skip if not pending)
 12: 0x0340 [0x02] IF !(Work_Zone[2] >= 1000*) GOTO 0x037C
 13: 0x0348 [0x66] LOAD_EXT_SCHEDULER_MAIN: Load scheduler "thk1" with entities [Waoud (ID: 16982297/0x01032119), Waoud (ID: 16982297/0x01032119)], work=0*
 14: 0x0357 [0x1C] WAIT(45* ticks)
 15: 0x035A [0x2B] Waoud (ID: 16982297/0x01032119) [8746*]:
    → "The merchants of foreign lands have a saying: \u00072Gil is the glue that brings us together.\u00073\u007F1\u0000\u0007"
 16: 0x0361 [0x23] WAIT_FOR_DIALOG_INTERACTION
 17: 0x0362 [0x66] LOAD_EXT_SCHEDULER_MAIN: Load scheduler "thk2" with entities [Waoud (ID: 16982297/0x01032119), Waoud (ID: 16982297/0x01032119)], work=0*
 18: 0x0371 [0x2B] Waoud (ID: 16982297/0x01032119) [8747*]:
    → "I am afraid your purse is a trifle light today...\u007F1\u0000\u0007"
 19: 0x0378 [0x23] WAIT_FOR_DIALOG_INTERACTION
 20: 0x0379 [0x01] GOTO 0x03F6
 21: 0x037C [0x01] GOTO 0x03A4
 22: 0x037F [0x02] IF !(Work_Zone[0] == 1*) GOTO 0x03A4
 23: 0x0387 [0x66] LOAD_EXT_SCHEDULER_MAIN: Load scheduler "dis0" with entities [Waoud (ID: 16982297/0x01032119), Waoud (ID: 16982297/0x01032119)], work=0*
 24: 0x0396 [0x2B] Waoud (ID: 16982297/0x01032119) [8745*]:
    → "A pity. Perhaps another time.\u007F1\u0000\u0007"
 25: 0x039D [0x23] WAIT_FOR_DIALOG_INTERACTION
 26: 0x039E [0x01] GOTO 0x03F6

SUBROUTINE_03A4:
 27: 0x03A4 [0x42] SET_CLI_EVENT_CANCEL_DATA()
 28: 0x03A5 [0x81] SET_ENTITY_BLINKING(blink_flag=0x00, entity=Waoud (ID: 16982297/0x01032119))
 29: 0x03AB [0x66] LOAD_EXT_SCHEDULER_MAIN: Load scheduler "aka0" with entities [Waoud (ID: 16982297/0x01032119), Waoud (ID: 16982297/0x01032119)], work=5*
 30: 0x03BA [0x53] WAIT_SCHEDULER_TASK: Wait for scheduler "aka0" with entities [Waoud (ID: 16982297/0x01032119), Waoud (ID: 16982297/0x01032119)]
 31: 0x03C7 [0x2B] Waoud (ID: 16982297/0x01032119) [8896*]:
    → "The symbol of encounters...\u0007The two-headed serpent will open the way.\u007F1\u0000\u0007"
 32: 0x03CE [0x23] WAIT_FOR_DIALOG_INTERACTION
 33: 0x03CF [0x66] LOAD_EXT_SCHEDULER_MAIN: Load scheduler "aka1" with entities [Waoud (ID: 16982297/0x01032119), Waoud (ID: 16982297/0x01032119)], work=5*
 34: 0x03DE [0x53] WAIT_SCHEDULER_TASK: Wait for scheduler "aka1" with entities [Waoud (ID: 16982297/0x01032119), Waoud (ID: 16982297/0x01032119)]
 35: 0x03EB [0x81] SET_ENTITY_BLINKING(blink_flag=0x01, entity=Waoud (ID: 16982297/0x01032119))
 36: 0x03F1 [0x03] Work_Zone[1] = 1*

SUBROUTINE_03F6:
 37: 0x03F6 [0x21] END_EVENT
 38: 0x03F7 [0x00] END_REQSTACK()
```

#### Data or dead code:

```
# Dead code (unreachable instructions):
     0x03A1 [0x01] GOTO 0x03A4
```

### Event 720

#### Metadata

| Field        | Value     |
|--------------|-----------|
| Entrypoint   | 0x03F8    |
| Data Size    | 241 bytes |
| Instructions | 39        |

```
      00 01 02 03 04 05 06 07  08 09 0A 0B 0C 0D 0E 0F
      -- -- -- -- -- -- -- --  -- -- -- -- -- -- -- --
03F0:                          4A F0 FF FF 7F 19 21 03          J.....!.
0400: 01 4A 19 21 03 01 F0 FF  FF 7F 6F 76 19 21 03 01  .J.!......ov.!..
0410: 2B 19 21 03 01 14 80 23  24 15 80 00 80 00 80 25  +.!....#$......%
0420: 02 00 10 00 80 00 70 04  03 01 10 00 80 43 00 43  ......p......C.C
0430: 01 02 02 10 16 80 03 6D  04 66 00 80 19 21 03 01  .......m.f...!..
0440: 19 21 03 01 74 68 6B 31  1C 17 80 2B 19 21 03 01  .!..thk1...+.!..
0450: 18 80 23 66 00 80 19 21  03 01 19 21 03 01 74 68  ..#f...!...!..th
0460: 6B 32 2B 19 21 03 01 19  80 23 01 E7 04 01 95 04  k2+.!....#......
0470: 02 00 10 0A 80 00 95 04  66 00 80 19 21 03 01 19  ........f...!...
0480: 21 03 01 64 69 73 30 2B  19 21 03 01 1A 80 23 01  !..dis0+.!....#.
0490: E7 04 01 95 04 42 81 00  19 21 03 01 66 1B 80 19  .....B...!..f...
04A0: 21 03 01 19 21 03 01 61  6B 61 30 53 19 21 03 01  !...!..aka0S.!..
04B0: 19 21 03 01 61 6B 61 30  2B 19 21 03 01 25 80 23  .!..aka0+.!..%.#
04C0: 66 1B 80 19 21 03 01 19  21 03 01 61 6B 61 31 53  f...!...!..aka1S
04D0: 19 21 03 01 19 21 03 01  61 6B 61 31 81 01 19 21  .!...!..aka1...!
04E0: 03 01 03 01 10 0A 80 21  00                       .......!.       
```

#### Opcodes

```
  0: 0x03F8 [0x4A] LocalPlayer looks at Waoud (ID: 16982297/0x01032119)
  1: 0x0401 [0x4A] Waoud (ID: 16982297/0x01032119) looks at LocalPlayer
  2: 0x040A [0x6F] WAIT_FRAME_DELAY: Yield until WaitTime reaches zero
  3: 0x040B [0x76] CHECK_ENTITY_RENDER_FLAGS: Wait until Waoud (ID: 16982297/0x01032119) Render.Flags0 and Render.Flags3 conditions are met
  4: 0x0410 [0x2B] Waoud (ID: 16982297/0x01032119) [8743*]:
    → "Do you wish to gaze on the tapestry that fate has woven for you?\u0007I require less coin from adventurers for my divinations, considering their...uncertain employment.\u007F1\u0000\u0007"
  5: 0x0417 [0x23] WAIT_FOR_DIALOG_INTERACTION
  6: 0x0418 [0x24] CREATE_DIALOG(message_id=8744*, default_option=0*, option_flags=0*)
    → "Gaze on fate's tapestry?\u0007\u000BGaze away.\u0007I weave my own tapestry.\u007F1\u0000\u0007"
  7: 0x041F [0x25] WAIT_DIALOG_SELECT()
  8: 0x0420 [0x02] IF !(Work_Zone[0] == 0*) GOTO 0x0470
  9: 0x0428 [0x03] Work_Zone[1] = 0*
 10: 0x042D [0x43] SEND_EVENT_UPDATE: Send pending tag to server (packet 0x005B)
 11: 0x042F [0x43] SEND_EVENT_UPDATE: Check pending flag (skip if not pending)
 12: 0x0431 [0x02] IF !(Work_Zone[2] >= 1000*) GOTO 0x046D
 13: 0x0439 [0x66] LOAD_EXT_SCHEDULER_MAIN: Load scheduler "thk1" with entities [Waoud (ID: 16982297/0x01032119), Waoud (ID: 16982297/0x01032119)], work=0*
 14: 0x0448 [0x1C] WAIT(45* ticks)
 15: 0x044B [0x2B] Waoud (ID: 16982297/0x01032119) [8746*]:
    → "The merchants of foreign lands have a saying: \u00072Gil is the glue that brings us together.\u00073\u007F1\u0000\u0007"
 16: 0x0452 [0x23] WAIT_FOR_DIALOG_INTERACTION
 17: 0x0453 [0x66] LOAD_EXT_SCHEDULER_MAIN: Load scheduler "thk2" with entities [Waoud (ID: 16982297/0x01032119), Waoud (ID: 16982297/0x01032119)], work=0*
 18: 0x0462 [0x2B] Waoud (ID: 16982297/0x01032119) [8747*]:
    → "I am afraid your purse is a trifle light today...\u007F1\u0000\u0007"
 19: 0x0469 [0x23] WAIT_FOR_DIALOG_INTERACTION
 20: 0x046A [0x01] GOTO 0x04E7
 21: 0x046D [0x01] GOTO 0x0495
 22: 0x0470 [0x02] IF !(Work_Zone[0] == 1*) GOTO 0x0495
 23: 0x0478 [0x66] LOAD_EXT_SCHEDULER_MAIN: Load scheduler "dis0" with entities [Waoud (ID: 16982297/0x01032119), Waoud (ID: 16982297/0x01032119)], work=0*
 24: 0x0487 [0x2B] Waoud (ID: 16982297/0x01032119) [8745*]:
    → "A pity. Perhaps another time.\u007F1\u0000\u0007"
 25: 0x048E [0x23] WAIT_FOR_DIALOG_INTERACTION
 26: 0x048F [0x01] GOTO 0x04E7

SUBROUTINE_0495:
 27: 0x0495 [0x42] SET_CLI_EVENT_CANCEL_DATA()
 28: 0x0496 [0x81] SET_ENTITY_BLINKING(blink_flag=0x00, entity=Waoud (ID: 16982297/0x01032119))
 29: 0x049C [0x66] LOAD_EXT_SCHEDULER_MAIN: Load scheduler "aka0" with entities [Waoud (ID: 16982297/0x01032119), Waoud (ID: 16982297/0x01032119)], work=5*
 30: 0x04AB [0x53] WAIT_SCHEDULER_TASK: Wait for scheduler "aka0" with entities [Waoud (ID: 16982297/0x01032119), Waoud (ID: 16982297/0x01032119)]
 31: 0x04B8 [0x2B] Waoud (ID: 16982297/0x01032119) [8919*]:
    → "The symbol of trials...\u0007Your fate lies beyond the gate of nobility.\u007F1\u0000\u0007"
 32: 0x04BF [0x23] WAIT_FOR_DIALOG_INTERACTION
 33: 0x04C0 [0x66] LOAD_EXT_SCHEDULER_MAIN: Load scheduler "aka1" with entities [Waoud (ID: 16982297/0x01032119), Waoud (ID: 16982297/0x01032119)], work=5*
 34: 0x04CF [0x53] WAIT_SCHEDULER_TASK: Wait for scheduler "aka1" with entities [Waoud (ID: 16982297/0x01032119), Waoud (ID: 16982297/0x01032119)]
 35: 0x04DC [0x81] SET_ENTITY_BLINKING(blink_flag=0x01, entity=Waoud (ID: 16982297/0x01032119))
 36: 0x04E2 [0x03] Work_Zone[1] = 1*

SUBROUTINE_04E7:
 37: 0x04E7 [0x21] END_EVENT
 38: 0x04E8 [0x00] END_REQSTACK()
```

#### Data or dead code:

```
# Dead code (unreachable instructions):
     0x0492 [0x01] GOTO 0x0495
```

### Event 721

#### Metadata

| Field        | Value     |
|--------------|-----------|
| Entrypoint   | 0x04E9    |
| Data Size    | 241 bytes |
| Instructions | 39        |

```
      00 01 02 03 04 05 06 07  08 09 0A 0B 0C 0D 0E 0F
      -- -- -- -- -- -- -- --  -- -- -- -- -- -- -- --
04E0:                             4A F0 FF FF 7F 19 21           J.....!
04F0: 03 01 4A 19 21 03 01 F0  FF FF 7F 6F 76 19 21 03  ..J.!......ov.!.
0500: 01 2B 19 21 03 01 14 80  23 24 15 80 00 80 00 80  .+.!....#$......
0510: 25 02 00 10 00 80 00 61  05 03 01 10 00 80 43 00  %......a......C.
0520: 43 01 02 02 10 16 80 03  5E 05 66 00 80 19 21 03  C.......^.f...!.
0530: 01 19 21 03 01 74 68 6B  31 1C 17 80 2B 19 21 03  ..!..thk1...+.!.
0540: 01 18 80 23 66 00 80 19  21 03 01 19 21 03 01 74  ...#f...!...!..t
0550: 68 6B 32 2B 19 21 03 01  19 80 23 01 D8 05 01 86  hk2+.!....#.....
0560: 05 02 00 10 0A 80 00 86  05 66 00 80 19 21 03 01  .........f...!..
0570: 19 21 03 01 64 69 73 30  2B 19 21 03 01 1A 80 23  .!..dis0+.!....#
0580: 01 D8 05 01 86 05 42 81  00 19 21 03 01 66 1B 80  ......B...!..f..
0590: 19 21 03 01 19 21 03 01  61 6B 61 30 53 19 21 03  .!...!..aka0S.!.
05A0: 01 19 21 03 01 61 6B 61  30 2B 19 21 03 01 25 80  ..!..aka0+.!..%.
05B0: 23 66 1B 80 19 21 03 01  19 21 03 01 61 6B 61 31  #f...!...!..aka1
05C0: 53 19 21 03 01 19 21 03  01 61 6B 61 31 81 01 19  S.!...!..aka1...
05D0: 21 03 01 03 01 10 0A 80  21 00                    !.......!.      
```

#### Opcodes

```
  0: 0x04E9 [0x4A] LocalPlayer looks at Waoud (ID: 16982297/0x01032119)
  1: 0x04F2 [0x4A] Waoud (ID: 16982297/0x01032119) looks at LocalPlayer
  2: 0x04FB [0x6F] WAIT_FRAME_DELAY: Yield until WaitTime reaches zero
  3: 0x04FC [0x76] CHECK_ENTITY_RENDER_FLAGS: Wait until Waoud (ID: 16982297/0x01032119) Render.Flags0 and Render.Flags3 conditions are met
  4: 0x0501 [0x2B] Waoud (ID: 16982297/0x01032119) [8743*]:
    → "Do you wish to gaze on the tapestry that fate has woven for you?\u0007I require less coin from adventurers for my divinations, considering their...uncertain employment.\u007F1\u0000\u0007"
  5: 0x0508 [0x23] WAIT_FOR_DIALOG_INTERACTION
  6: 0x0509 [0x24] CREATE_DIALOG(message_id=8744*, default_option=0*, option_flags=0*)
    → "Gaze on fate's tapestry?\u0007\u000BGaze away.\u0007I weave my own tapestry.\u007F1\u0000\u0007"
  7: 0x0510 [0x25] WAIT_DIALOG_SELECT()
  8: 0x0511 [0x02] IF !(Work_Zone[0] == 0*) GOTO 0x0561
  9: 0x0519 [0x03] Work_Zone[1] = 0*
 10: 0x051E [0x43] SEND_EVENT_UPDATE: Send pending tag to server (packet 0x005B)
 11: 0x0520 [0x43] SEND_EVENT_UPDATE: Check pending flag (skip if not pending)
 12: 0x0522 [0x02] IF !(Work_Zone[2] >= 1000*) GOTO 0x055E
 13: 0x052A [0x66] LOAD_EXT_SCHEDULER_MAIN: Load scheduler "thk1" with entities [Waoud (ID: 16982297/0x01032119), Waoud (ID: 16982297/0x01032119)], work=0*
 14: 0x0539 [0x1C] WAIT(45* ticks)
 15: 0x053C [0x2B] Waoud (ID: 16982297/0x01032119) [8746*]:
    → "The merchants of foreign lands have a saying: \u00072Gil is the glue that brings us together.\u00073\u007F1\u0000\u0007"
 16: 0x0543 [0x23] WAIT_FOR_DIALOG_INTERACTION
 17: 0x0544 [0x66] LOAD_EXT_SCHEDULER_MAIN: Load scheduler "thk2" with entities [Waoud (ID: 16982297/0x01032119), Waoud (ID: 16982297/0x01032119)], work=0*
 18: 0x0553 [0x2B] Waoud (ID: 16982297/0x01032119) [8747*]:
    → "I am afraid your purse is a trifle light today...\u007F1\u0000\u0007"
 19: 0x055A [0x23] WAIT_FOR_DIALOG_INTERACTION
 20: 0x055B [0x01] GOTO 0x05D8
 21: 0x055E [0x01] GOTO 0x0586
 22: 0x0561 [0x02] IF !(Work_Zone[0] == 1*) GOTO 0x0586
 23: 0x0569 [0x66] LOAD_EXT_SCHEDULER_MAIN: Load scheduler "dis0" with entities [Waoud (ID: 16982297/0x01032119), Waoud (ID: 16982297/0x01032119)], work=0*
 24: 0x0578 [0x2B] Waoud (ID: 16982297/0x01032119) [8745*]:
    → "A pity. Perhaps another time.\u007F1\u0000\u0007"
 25: 0x057F [0x23] WAIT_FOR_DIALOG_INTERACTION
 26: 0x0580 [0x01] GOTO 0x05D8

SUBROUTINE_0586:
 27: 0x0586 [0x42] SET_CLI_EVENT_CANCEL_DATA()
 28: 0x0587 [0x81] SET_ENTITY_BLINKING(blink_flag=0x00, entity=Waoud (ID: 16982297/0x01032119))
 29: 0x058D [0x66] LOAD_EXT_SCHEDULER_MAIN: Load scheduler "aka0" with entities [Waoud (ID: 16982297/0x01032119), Waoud (ID: 16982297/0x01032119)], work=5*
 30: 0x059C [0x53] WAIT_SCHEDULER_TASK: Wait for scheduler "aka0" with entities [Waoud (ID: 16982297/0x01032119), Waoud (ID: 16982297/0x01032119)]
 31: 0x05A9 [0x2B] Waoud (ID: 16982297/0x01032119) [8919*]:
    → "The symbol of trials...\u0007Your fate lies beyond the gate of nobility.\u007F1\u0000\u0007"
 32: 0x05B0 [0x23] WAIT_FOR_DIALOG_INTERACTION
 33: 0x05B1 [0x66] LOAD_EXT_SCHEDULER_MAIN: Load scheduler "aka1" with entities [Waoud (ID: 16982297/0x01032119), Waoud (ID: 16982297/0x01032119)], work=5*
 34: 0x05C0 [0x53] WAIT_SCHEDULER_TASK: Wait for scheduler "aka1" with entities [Waoud (ID: 16982297/0x01032119), Waoud (ID: 16982297/0x01032119)]
 35: 0x05CD [0x81] SET_ENTITY_BLINKING(blink_flag=0x01, entity=Waoud (ID: 16982297/0x01032119))
 36: 0x05D3 [0x03] Work_Zone[1] = 1*

SUBROUTINE_05D8:
 37: 0x05D8 [0x21] END_EVENT
 38: 0x05D9 [0x00] END_REQSTACK()
```

#### Data or dead code:

```
# Dead code (unreachable instructions):
     0x0583 [0x01] GOTO 0x0586
```

### Event 723

#### Metadata

| Field        | Value     |
|--------------|-----------|
| Entrypoint   | 0x05DA    |
| Data Size    | 249 bytes |
| Instructions | 41        |

```
      00 01 02 03 04 05 06 07  08 09 0A 0B 0C 0D 0E 0F
      -- -- -- -- -- -- -- --  -- -- -- -- -- -- -- --
05D0:                                4A F0 FF FF 7F 19            J.....
05E0: 21 03 01 4A 19 21 03 01  F0 FF FF 7F 6F 76 19 21  !..J.!......ov.!
05F0: 03 01 2B 19 21 03 01 14  80 23 24 15 80 00 80 00  ..+.!....#$.....
0600: 80 25 02 00 10 00 80 00  52 06 03 01 10 00 80 43  .%......R......C
0610: 00 43 01 02 02 10 16 80  03 4F 06 66 00 80 19 21  .C.......O.f...!
0620: 03 01 19 21 03 01 74 68  6B 31 1C 17 80 2B 19 21  ...!..thk1...+.!
0630: 03 01 18 80 23 66 00 80  19 21 03 01 19 21 03 01  ....#f...!...!..
0640: 74 68 6B 32 2B 19 21 03  01 19 80 23 01 D1 06 01  thk2+.!....#....
0650: 77 06 02 00 10 0A 80 00  77 06 66 00 80 19 21 03  w.......w.f...!.
0660: 01 19 21 03 01 64 69 73  30 2B 19 21 03 01 1A 80  ..!..dis0+.!....
0670: 23 01 D1 06 01 77 06 42  81 00 19 21 03 01 66 1B  #....w.B...!..f.
0680: 80 19 21 03 01 19 21 03  01 61 6B 61 30 53 19 21  ..!...!..aka0S.!
0690: 03 01 19 21 03 01 61 6B  61 30 2B 19 21 03 01 26  ...!..aka0+.!..&
06A0: 80 23 2B 19 21 03 01 27  80 23 66 1B 80 19 21 03  .#+.!..'.#f...!.
06B0: 01 19 21 03 01 61 6B 61  31 53 19 21 03 01 19 21  ..!..aka1S.!...!
06C0: 03 01 61 6B 61 31 81 01  19 21 03 01 03 01 10 0A  ..aka1...!......
06D0: 80 21 00                                          .!.             
```

#### Opcodes

```
  0: 0x05DA [0x4A] LocalPlayer looks at Waoud (ID: 16982297/0x01032119)
  1: 0x05E3 [0x4A] Waoud (ID: 16982297/0x01032119) looks at LocalPlayer
  2: 0x05EC [0x6F] WAIT_FRAME_DELAY: Yield until WaitTime reaches zero
  3: 0x05ED [0x76] CHECK_ENTITY_RENDER_FLAGS: Wait until Waoud (ID: 16982297/0x01032119) Render.Flags0 and Render.Flags3 conditions are met
  4: 0x05F2 [0x2B] Waoud (ID: 16982297/0x01032119) [8743*]:
    → "Do you wish to gaze on the tapestry that fate has woven for you?\u0007I require less coin from adventurers for my divinations, considering their...uncertain employment.\u007F1\u0000\u0007"
  5: 0x05F9 [0x23] WAIT_FOR_DIALOG_INTERACTION
  6: 0x05FA [0x24] CREATE_DIALOG(message_id=8744*, default_option=0*, option_flags=0*)
    → "Gaze on fate's tapestry?\u0007\u000BGaze away.\u0007I weave my own tapestry.\u007F1\u0000\u0007"
  7: 0x0601 [0x25] WAIT_DIALOG_SELECT()
  8: 0x0602 [0x02] IF !(Work_Zone[0] == 0*) GOTO 0x0652
  9: 0x060A [0x03] Work_Zone[1] = 0*
 10: 0x060F [0x43] SEND_EVENT_UPDATE: Send pending tag to server (packet 0x005B)
 11: 0x0611 [0x43] SEND_EVENT_UPDATE: Check pending flag (skip if not pending)
 12: 0x0613 [0x02] IF !(Work_Zone[2] >= 1000*) GOTO 0x064F
 13: 0x061B [0x66] LOAD_EXT_SCHEDULER_MAIN: Load scheduler "thk1" with entities [Waoud (ID: 16982297/0x01032119), Waoud (ID: 16982297/0x01032119)], work=0*
 14: 0x062A [0x1C] WAIT(45* ticks)
 15: 0x062D [0x2B] Waoud (ID: 16982297/0x01032119) [8746*]:
    → "The merchants of foreign lands have a saying: \u00072Gil is the glue that brings us together.\u00073\u007F1\u0000\u0007"
 16: 0x0634 [0x23] WAIT_FOR_DIALOG_INTERACTION
 17: 0x0635 [0x66] LOAD_EXT_SCHEDULER_MAIN: Load scheduler "thk2" with entities [Waoud (ID: 16982297/0x01032119), Waoud (ID: 16982297/0x01032119)], work=0*
 18: 0x0644 [0x2B] Waoud (ID: 16982297/0x01032119) [8747*]:
    → "I am afraid your purse is a trifle light today...\u007F1\u0000\u0007"
 19: 0x064B [0x23] WAIT_FOR_DIALOG_INTERACTION
 20: 0x064C [0x01] GOTO 0x06D1
 21: 0x064F [0x01] GOTO 0x0677
 22: 0x0652 [0x02] IF !(Work_Zone[0] == 1*) GOTO 0x0677
 23: 0x065A [0x66] LOAD_EXT_SCHEDULER_MAIN: Load scheduler "dis0" with entities [Waoud (ID: 16982297/0x01032119), Waoud (ID: 16982297/0x01032119)], work=0*
 24: 0x0669 [0x2B] Waoud (ID: 16982297/0x01032119) [8745*]:
    → "A pity. Perhaps another time.\u007F1\u0000\u0007"
 25: 0x0670 [0x23] WAIT_FOR_DIALOG_INTERACTION
 26: 0x0671 [0x01] GOTO 0x06D1

SUBROUTINE_0677:
 27: 0x0677 [0x42] SET_CLI_EVENT_CANCEL_DATA()
 28: 0x0678 [0x81] SET_ENTITY_BLINKING(blink_flag=0x00, entity=Waoud (ID: 16982297/0x01032119))
 29: 0x067E [0x66] LOAD_EXT_SCHEDULER_MAIN: Load scheduler "aka0" with entities [Waoud (ID: 16982297/0x01032119), Waoud (ID: 16982297/0x01032119)], work=5*
 30: 0x068D [0x53] WAIT_SCHEDULER_TASK: Wait for scheduler "aka0" with entities [Waoud (ID: 16982297/0x01032119), Waoud (ID: 16982297/0x01032119)]
 31: 0x069A [0x2B] Waoud (ID: 16982297/0x01032119) [8949*]:
    → "The symbol of chaos...\u0007You doubt your decision to walk the path.\u0007Joy, regret, illusion, fiction, and fact...\u0007All are part of your future...\u007F1\u0000\u0007"
 32: 0x06A1 [0x23] WAIT_FOR_DIALOG_INTERACTION
 33: 0x06A2 [0x2B] Waoud (ID: 16982297/0x01032119) [8950*]:
    → "In the depths of an ancient ruin, the value of life will be placed on the scales.\u007F1\u0000\u0007"
 34: 0x06A9 [0x23] WAIT_FOR_DIALOG_INTERACTION
 35: 0x06AA [0x66] LOAD_EXT_SCHEDULER_MAIN: Load scheduler "aka1" with entities [Waoud (ID: 16982297/0x01032119), Waoud (ID: 16982297/0x01032119)], work=5*
 36: 0x06B9 [0x53] WAIT_SCHEDULER_TASK: Wait for scheduler "aka1" with entities [Waoud (ID: 16982297/0x01032119), Waoud (ID: 16982297/0x01032119)]
 37: 0x06C6 [0x81] SET_ENTITY_BLINKING(blink_flag=0x01, entity=Waoud (ID: 16982297/0x01032119))
 38: 0x06CC [0x03] Work_Zone[1] = 1*

SUBROUTINE_06D1:
 39: 0x06D1 [0x21] END_EVENT
 40: 0x06D2 [0x00] END_REQSTACK()
```

#### Data or dead code:

```
# Dead code (unreachable instructions):
     0x0674 [0x01] GOTO 0x0677
```

### Event 724

#### Metadata

| Field        | Value   |
|--------------|---------|
| Entrypoint   | 0x06D3  |
| Data Size    | 1 bytes |
| Instructions | 1       |

```
      00 01 02 03 04 05 06 07  08 09 0A 0B 0C 0D 0E 0F
      -- -- -- -- -- -- -- --  -- -- -- -- -- -- -- --
06D0:          00                                          .            
```

#### Opcodes

```
  0: 0x06D3 [0x00] END_REQSTACK()
```

### Event 760

#### Metadata

| Field        | Value   |
|--------------|---------|
| Entrypoint   | 0x06D4  |
| Data Size    | 1 bytes |
| Instructions | 1       |

```
      00 01 02 03 04 05 06 07  08 09 0A 0B 0C 0D 0E 0F
      -- -- -- -- -- -- -- --  -- -- -- -- -- -- -- --
06D0:             00                                        .           
```

#### Opcodes

```
  0: 0x06D4 [0x00] END_REQSTACK()
```

### Event 761

#### Metadata

| Field        | Value     |
|--------------|-----------|
| Entrypoint   | 0x06D5    |
| Data Size    | 246 bytes |
| Instructions | 40        |

```
      00 01 02 03 04 05 06 07  08 09 0A 0B 0C 0D 0E 0F
      -- -- -- -- -- -- -- --  -- -- -- -- -- -- -- --
06D0:                4A F0 FF  FF 7F 19 21 03 01 4A 19       J.....!..J.
06E0: 21 03 01 F0 FF FF 7F 6F  76 19 21 03 01 2B 19 21  !......ov.!..+.!
06F0: 03 01 14 80 23 24 15 80  00 80 00 80 25 02 00 10  ....#$......%...
0700: 00 80 00 4D 07 03 01 10  00 80 43 00 43 01 02 02  ...M......C.C...
0710: 10 16 80 03 4A 07 66 00  80 19 21 03 01 19 21 03  ....J.f...!...!.
0720: 01 74 68 6B 31 1C 17 80  2B 19 21 03 01 18 80 23  .thk1...+.!....#
0730: 66 00 80 19 21 03 01 19  21 03 01 74 68 6B 32 2B  f...!...!..thk2+
0740: 19 21 03 01 19 80 23 01  C9 07 01 72 07 02 00 10  .!....#....r....
0750: 0A 80 00 72 07 66 00 80  19 21 03 01 19 21 03 01  ...r.f...!...!..
0760: 64 69 73 30 2B 19 21 03  01 1A 80 23 01 C9 07 01  dis0+.!....#....
0770: 72 07 42 81 00 19 21 03  01 66 1B 80 19 21 03 01  r.B...!..f...!..
0780: 19 21 03 01 61 6B 61 30  53 19 21 03 01 19 21 03  .!..aka0S.!...!.
0790: 01 61 6B 61 30 03 02 10  28 80 2B 19 21 03 01 29  .aka0...(.+.!..)
07A0: 80 23 66 1B 80 19 21 03  01 19 21 03 01 61 6B 61  .#f...!...!..aka
07B0: 31 53 19 21 03 01 19 21  03 01 61 6B 61 31 81 01  1S.!...!..aka1..
07C0: 19 21 03 01 03 01 10 0A  80 21 00                 .!.......!.     
```

#### Opcodes

```
  0: 0x06D5 [0x4A] LocalPlayer looks at Waoud (ID: 16982297/0x01032119)
  1: 0x06DE [0x4A] Waoud (ID: 16982297/0x01032119) looks at LocalPlayer
  2: 0x06E7 [0x6F] WAIT_FRAME_DELAY: Yield until WaitTime reaches zero
  3: 0x06E8 [0x76] CHECK_ENTITY_RENDER_FLAGS: Wait until Waoud (ID: 16982297/0x01032119) Render.Flags0 and Render.Flags3 conditions are met
  4: 0x06ED [0x2B] Waoud (ID: 16982297/0x01032119) [8743*]:
    → "Do you wish to gaze on the tapestry that fate has woven for you?\u0007I require less coin from adventurers for my divinations, considering their...uncertain employment.\u007F1\u0000\u0007"
  5: 0x06F4 [0x23] WAIT_FOR_DIALOG_INTERACTION
  6: 0x06F5 [0x24] CREATE_DIALOG(message_id=8744*, default_option=0*, option_flags=0*)
    → "Gaze on fate's tapestry?\u0007\u000BGaze away.\u0007I weave my own tapestry.\u007F1\u0000\u0007"
  7: 0x06FC [0x25] WAIT_DIALOG_SELECT()
  8: 0x06FD [0x02] IF !(Work_Zone[0] == 0*) GOTO 0x074D
  9: 0x0705 [0x03] Work_Zone[1] = 0*
 10: 0x070A [0x43] SEND_EVENT_UPDATE: Send pending tag to server (packet 0x005B)
 11: 0x070C [0x43] SEND_EVENT_UPDATE: Check pending flag (skip if not pending)
 12: 0x070E [0x02] IF !(Work_Zone[2] >= 1000*) GOTO 0x074A
 13: 0x0716 [0x66] LOAD_EXT_SCHEDULER_MAIN: Load scheduler "thk1" with entities [Waoud (ID: 16982297/0x01032119), Waoud (ID: 16982297/0x01032119)], work=0*
 14: 0x0725 [0x1C] WAIT(45* ticks)
 15: 0x0728 [0x2B] Waoud (ID: 16982297/0x01032119) [8746*]:
    → "The merchants of foreign lands have a saying: \u00072Gil is the glue that brings us together.\u00073\u007F1\u0000\u0007"
 16: 0x072F [0x23] WAIT_FOR_DIALOG_INTERACTION
 17: 0x0730 [0x66] LOAD_EXT_SCHEDULER_MAIN: Load scheduler "thk2" with entities [Waoud (ID: 16982297/0x01032119), Waoud (ID: 16982297/0x01032119)], work=0*
 18: 0x073F [0x2B] Waoud (ID: 16982297/0x01032119) [8747*]:
    → "I am afraid your purse is a trifle light today...\u007F1\u0000\u0007"
 19: 0x0746 [0x23] WAIT_FOR_DIALOG_INTERACTION
 20: 0x0747 [0x01] GOTO 0x07C9
 21: 0x074A [0x01] GOTO 0x0772
 22: 0x074D [0x02] IF !(Work_Zone[0] == 1*) GOTO 0x0772
 23: 0x0755 [0x66] LOAD_EXT_SCHEDULER_MAIN: Load scheduler "dis0" with entities [Waoud (ID: 16982297/0x01032119), Waoud (ID: 16982297/0x01032119)], work=0*
 24: 0x0764 [0x2B] Waoud (ID: 16982297/0x01032119) [8745*]:
    → "A pity. Perhaps another time.\u007F1\u0000\u0007"
 25: 0x076B [0x23] WAIT_FOR_DIALOG_INTERACTION
 26: 0x076C [0x01] GOTO 0x07C9

SUBROUTINE_0772:
 27: 0x0772 [0x42] SET_CLI_EVENT_CANCEL_DATA()
 28: 0x0773 [0x81] SET_ENTITY_BLINKING(blink_flag=0x00, entity=Waoud (ID: 16982297/0x01032119))
 29: 0x0779 [0x66] LOAD_EXT_SCHEDULER_MAIN: Load scheduler "aka0" with entities [Waoud (ID: 16982297/0x01032119), Waoud (ID: 16982297/0x01032119)], work=5*
 30: 0x0788 [0x53] WAIT_SCHEDULER_TASK: Wait for scheduler "aka0" with entities [Waoud (ID: 16982297/0x01032119), Waoud (ID: 16982297/0x01032119)]
 31: 0x0795 [0x03] Work_Zone[2] = 2331*
 32: 0x079A [0x2B] Waoud (ID: 16982297/0x01032119) [9028*]:
    → "The symbol of ambition...\u0007Stand once more before the white gate of nobility.\u0007The \u0001\u0005#\u0002\u0000\u0000\u0000 is the key.\u0007The key to untold glory...\u007F1\u0000\u0007"
 33: 0x07A1 [0x23] WAIT_FOR_DIALOG_INTERACTION
 34: 0x07A2 [0x66] LOAD_EXT_SCHEDULER_MAIN: Load scheduler "aka1" with entities [Waoud (ID: 16982297/0x01032119), Waoud (ID: 16982297/0x01032119)], work=5*
 35: 0x07B1 [0x53] WAIT_SCHEDULER_TASK: Wait for scheduler "aka1" with entities [Waoud (ID: 16982297/0x01032119), Waoud (ID: 16982297/0x01032119)]
 36: 0x07BE [0x81] SET_ENTITY_BLINKING(blink_flag=0x01, entity=Waoud (ID: 16982297/0x01032119))
 37: 0x07C4 [0x03] Work_Zone[1] = 1*

SUBROUTINE_07C9:
 38: 0x07C9 [0x21] END_EVENT
 39: 0x07CA [0x00] END_REQSTACK()
```

#### Data or dead code:

```
# Dead code (unreachable instructions):
     0x076F [0x01] GOTO 0x0772
```

### Event 764

#### Metadata

| Field        | Value   |
|--------------|---------|
| Entrypoint   | 0x07CB  |
| Data Size    | 1 bytes |
| Instructions | 1       |

```
      00 01 02 03 04 05 06 07  08 09 0A 0B 0C 0D 0E 0F
      -- -- -- -- -- -- -- --  -- -- -- -- -- -- -- --
07C0:                                   00                         .    
```

#### Opcodes

```
  0: 0x07CB [0x00] END_REQSTACK()
```
