# 16982383

## Common Data

| Field            | Value                         |
|------------------|-------------------------------|
| Zone             | Aht Urhgan Whitegate (ID: 50) |
| Block Size       | 208 bytes                     |
| Total Events     | 5                             |
| References Count | 17                            |

## List of Events

| Event ID                  | Entrypoint   |   Size |   Instructions |
|---------------------------|--------------|--------|----------------|
| [65535](#event-65535)     | 0x0000       |      1 |              1 |
| [824](#event-824)         | 0x0001       |      1 |              1 |
| [65535.1](#event-65535-1) | 0x0002       |     19 |              5 |
| [65535.2](#event-65535-2) | 0x0015       |     31 |              9 |
| [65535.3](#event-65535-3) | 0x0034       |     50 |              8 |

## DAT References (imed_data)

|   Index | Hex Value   |   Dec Value |
|---------|-------------|-------------|
|       0 | 0x000D      |          13 |
|       1 | 0xFFFEF9B4  |  4294900148 |
|       2 | 0x5129      |       20777 |
|       3 | 0xFFFFE891  |  4294961297 |
|       4 | 0x0028      |          40 |
|       5 | 0xFFFF044C  |  4294902860 |
|       6 | 0x5585      |       21893 |
|       7 | 0xFFFFE890  |  4294961296 |
|       8 | 0xFFFF07E7  |  4294903783 |
|       9 | 0x5C47      |       23623 |
|      10 | 0xFFFEA37A  |  4294878074 |
|      11 | 0xF9B8      |       63928 |
|      12 | 0x07CF      |        1999 |
|      13 | 0x0003      |           3 |
|      14 | 0x0124      |         292 |
|      15 | 0x0000      |           0 |
|      16 | 0x033F      |         831 |

## Events

### Event 65535

#### Metadata

| Field        | Value   |
|--------------|---------|
| Entrypoint   | 0x0000  |
| Data Size    | 1 bytes |
| Instructions | 1       |

```
      00 01 02 03 04 05 06 07  08 09 0A 0B 0C 0D 0E 0F
      -- -- -- -- -- -- -- --  -- -- -- -- -- -- -- --
0000: 00                                                .               
```

#### Opcodes

```
  0: 0x0000 [0x00] END_REQSTACK()
```

### Event 824

#### Metadata

| Field        | Value   |
|--------------|---------|
| Entrypoint   | 0x0001  |
| Data Size    | 1 bytes |
| Instructions | 1       |

```
      00 01 02 03 04 05 06 07  08 09 0A 0B 0C 0D 0E 0F
      -- -- -- -- -- -- -- --  -- -- -- -- -- -- -- --
0000:    00                                              .              
```

#### Opcodes

```
  0: 0x0001 [0x00] END_REQSTACK()
```

### Event 65535.1

#### Metadata

| Field        | Value    |
|--------------|----------|
| Entrypoint   | 0x0002   |
| Data Size    | 19 bytes |
| Instructions | 5        |

```
      00 01 02 03 04 05 06 07  08 09 0A 0B 0C 0D 0E 0F
      -- -- -- -- -- -- -- --  -- -- -- -- -- -- -- --
0000:       32 00 80 1F 00 01  80 02 80 03 80 1F 01 1E    2.............
0010: 5E 21 03 01 00                                    ^!...           
```

#### Opcodes

```
  0: 0x0002 [0x32] ExtData[1]->MainSpeed = 13* * 0.1
  1: 0x0005 [0x1F] MOVE_ENTITY: EventEntity moves to X=-67.148*, Z=20.777*, Y=-5.999*
  2: 0x000D [0x1F] MOVE_ENTITY: Update entity position (mode=1)
  3: 0x000F [0x1E] EventEntity looks at Rughadjeen (ID: 16982366/0x0103215E) and starts talking
  4: 0x0014 [0x00] END_REQSTACK()
```

### Event 65535.2

#### Metadata

| Field        | Value    |
|--------------|----------|
| Entrypoint   | 0x0015   |
| Data Size    | 31 bytes |
| Instructions | 9        |

```
      00 01 02 03 04 05 06 07  08 09 0A 0B 0C 0D 0E 0F
      -- -- -- -- -- -- -- --  -- -- -- -- -- -- -- --
0010:                32 04 80  1F 00 05 80 06 80 07 80       2..........
0020: 1F 01 6F 1F 00 08 80 09  80 07 80 1F 01 6F 1E 5E  ..o..........o.^
0030: 21 03 01 00                                       !...            
```

#### Opcodes

```
  0: 0x0015 [0x32] ExtData[1]->MainSpeed = 40* * 0.1
  1: 0x0018 [0x1F] MOVE_ENTITY: EventEntity moves to X=-64.436*, Z=21.893*, Y=-6.000*
  2: 0x0020 [0x1F] MOVE_ENTITY: Update entity position (mode=1)
  3: 0x0022 [0x6F] WAIT_FRAME_DELAY: Yield until WaitTime reaches zero
  4: 0x0023 [0x1F] MOVE_ENTITY: EventEntity moves to X=-63.513*, Z=23.623*, Y=-6.000*
  5: 0x002B [0x1F] MOVE_ENTITY: Update entity position (mode=1)
  6: 0x002D [0x6F] WAIT_FRAME_DELAY: Yield until WaitTime reaches zero
  7: 0x002E [0x1E] EventEntity looks at Rughadjeen (ID: 16982366/0x0103215E) and starts talking
  8: 0x0033 [0x00] END_REQSTACK()
```

### Event 65535.3

#### Metadata

| Field        | Value    |
|--------------|----------|
| Entrypoint   | 0x0034   |
| Data Size    | 50 bytes |
| Instructions | 8        |

```
      00 01 02 03 04 05 06 07  08 09 0A 0B 0C 0D 0E 0F
      -- -- -- -- -- -- -- --  -- -- -- -- -- -- -- --
0030:             32 04 80 1F  00 0A 80 0B 80 0C 80 1F      2...........
0040: 01 6F 1C 0D 80 45 0E 80  F0 FF FF 7F F0 FF FF 7F  .o...E..........
0050: 67 75 6E 30 0F 80 5B 10  80 6F 21 03 01 6F 21 03  gun0..[..o!..o!.
0060: 01 67 75 6E 30 00                                 .gun0.          
```

#### Opcodes

```
  0: 0x0034 [0x32] ExtData[1]->MainSpeed = 40* * 0.1
  1: 0x0037 [0x1F] MOVE_ENTITY: EventEntity moves to X=-89.222*, Z=63.928*, Y=1.999*
  2: 0x003F [0x1F] MOVE_ENTITY: Update entity position (mode=1)
  3: 0x0041 [0x6F] WAIT_FRAME_DELAY: Yield until WaitTime reaches zero
  4: 0x0042 [0x1C] WAIT(3* ticks)
  5: 0x0045 [0x45] LOAD_SCHEDULED_TASK: Load scheduler "gun0" with entities [LocalPlayer, LocalPlayer], work=[292*, 0*]
  6: 0x0056 [0x5B] LOAD_EXT_SCHEDULER: Load scheduler "gun0" with entities [Unnamed NPC (ID: 16982383/0x0103216F), Unnamed NPC (ID: 16982383/0x0103216F)], work=831*
  7: 0x0065 [0x00] END_REQSTACK()
```
