# 16982346 - Yazhaal

## Common Data

| Field            | Value                         |
|------------------|-------------------------------|
| Zone             | Aht Urhgan Whitegate (ID: 50) |
| Block Size       | 444 bytes                     |
| Total Events     | 13                            |
| References Count | 42                            |

## List of Events

| Event ID                 | Entrypoint   |   Size |   Instructions |
|--------------------------|--------------|--------|----------------|
| [65535](#event-65535)    | 0x0000       |      1 |              1 |
| [800](#event-800)        | 0x0001       |      1 |              1 |
| [65535.1](#event-655351) | 0x0002       |     15 |              3 |
| [65535.2](#event-655352) | 0x0011       |     22 |              6 |
| [65535.3](#event-655353) | 0x0027       |     24 |              6 |
| [802](#event-802)        | 0x003F       |      1 |              1 |
| [65535.4](#event-655354) | 0x0040       |     15 |              3 |
| [65535.5](#event-655355) | 0x004F       |     32 |              6 |
| [65535.6](#event-655356) | 0x006F       |     15 |              3 |
| [65535.7](#event-655357) | 0x007E       |     22 |              6 |
| [65535.8](#event-655358) | 0x0094       |     43 |              9 |
| [65535.9](#event-655359) | 0x00BF       |     15 |              3 |
| [803](#event-803)        | 0x00CE       |      1 |              1 |

## DAT References (imed_data)

|   Index | Hex Value   |   Dec Value |
|---------|-------------|-------------|
|       0 | 0x011F      |         287 |
|       1 | 0x6DC4      |       28100 |
|       2 | 0xFFFFE890  |  4294961296 |
|       3 | 0x092D      |        2349 |
|       4 | 0x000D      |          13 |
|       5 | 0xFFFFDFE8  |  4294959080 |
|       6 | 0x6C56      |       27734 |
|       7 | 0x001E      |          30 |
|       8 | 0xFFFFD225  |  4294955557 |
|       9 | 0x647C      |       25724 |
|      10 | 0xFFFFA9EA  |  4294945258 |
|      11 | 0x67B2      |       26546 |
|      12 | 0xFFFFE891  |  4294961297 |
|      13 | 0xFFFF13F0  |  4294906864 |
|      14 | 0xFFFD36E2  |  4294784738 |
|      15 | 0x155D      |        5469 |
|      16 | 0x0979      |        2425 |
|      17 | 0xFFFF172A  |  4294907690 |
|      18 | 0xFFFD23DD  |  4294779869 |
|      19 | 0x15D2      |        5586 |
|      20 | 0x0005      |           5 |
|      21 | 0x0009      |           9 |
|      22 | 0xFFFF138B  |  4294906763 |
|      23 | 0xFFFD0834  |  4294772788 |
|      24 | 0x1634      |        5684 |
|      25 | 0x0028      |          40 |
|      26 | 0xFFFF19AC  |  4294908332 |
|      27 | 0xFFFCFDFE  |  4294770174 |
|      28 | 0x1682      |        5762 |
|      29 | 0xFFFF1C7B  |  4294909051 |
|      30 | 0xFFFCF731  |  4294768433 |
|      31 | 0x1685      |        5765 |
|      32 | 0xFFFF1D76  |  4294909302 |
|      33 | 0xFFFCDC9A  |  4294761626 |
|      34 | 0x159B      |        5531 |
|      35 | 0xFFFF3181  |  4294914433 |
|      36 | 0xFFFCCA08  |  4294756872 |
|      37 | 0x1522      |        5410 |
|      38 | 0xFFFDD5C1  |  4294825409 |
|      39 | 0xFFFFD34E  |  4294955854 |
|      40 | 0x07CF      |        1999 |
|      41 | 0x0A1F      |        2591 |

## Events

### Event 65535

#### Metadata

| Field        | Value   |
|--------------|---------|
| Entrypoint   | 0x0000  |
| Data Size    | 1 bytes |
| Instructions | 1       |

```
      00 01 02 03 04 05 06 07  08 09 0A 0B 0C 0D 0E 0F
      -- -- -- -- -- -- -- --  -- -- -- -- -- -- -- --
0000: 00                                                .               
```

#### Opcodes

```
  0: 0x0000 [0x00] END_REQSTACK()
```

### Event 800

#### Metadata

| Field        | Value   |
|--------------|---------|
| Entrypoint   | 0x0001  |
| Data Size    | 1 bytes |
| Instructions | 1       |

```
      00 01 02 03 04 05 06 07  08 09 0A 0B 0C 0D 0E 0F
      -- -- -- -- -- -- -- --  -- -- -- -- -- -- -- --
0000:    00                                              .              
```

#### Opcodes

```
  0: 0x0001 [0x00] END_REQSTACK()
```

### Event 65535.1

#### Metadata

| Field        | Value    |
|--------------|----------|
| Entrypoint   | 0x0002   |
| Data Size    | 15 bytes |
| Instructions | 3        |

```
      00 01 02 03 04 05 06 07  08 09 0A 0B 0C 0D 0E 0F
      -- -- -- -- -- -- -- --  -- -- -- -- -- -- -- --
0000:       37 00 80 01 80 02  80 03 80 80 F8 FF FF 7F    7.............
0010: 00                                                .               
```

#### Opcodes

```
  0: 0x0002 [0x37] UPDATE_EVENT_POSITION_AND_DIR: x=0.287*, z=28.100*, y=-6.000*, direction=206.4째*
  1: 0x000B [0x80] LOAD_WAIT(entity=EventEntity)
  2: 0x0010 [0x00] END_REQSTACK()
```

### Event 65535.2

#### Metadata

| Field        | Value    |
|--------------|----------|
| Entrypoint   | 0x0011   |
| Data Size    | 22 bytes |
| Instructions | 6        |

```
      00 01 02 03 04 05 06 07  08 09 0A 0B 0C 0D 0E 0F
      -- -- -- -- -- -- -- --  -- -- -- -- -- -- -- --
0010:    32 04 80 1F 00 05 80  06 80 02 80 1F 01 1E 30   2.............0
0020: 21 03 01 1C 07 80 00                              !......         
```

#### Opcodes

```
  0: 0x0011 [0x32] ExtData[1]->MainSpeed = 13* * 0.1
  1: 0x0014 [0x1F] MOVE_ENTITY: EventEntity moves to X=-8.216*, Z=27.734*, Y=-6.000*
  2: 0x001C [0x1F] MOVE_ENTITY: Update entity position (mode=1)
  3: 0x001E [0x1E] EventEntity looks at Bashraf (ID: 16982320/0x01032130) and starts talking
  4: 0x0023 [0x1C] WAIT(30* ticks)
  5: 0x0026 [0x00] END_REQSTACK()
```

### Event 65535.3

#### Metadata

| Field        | Value    |
|--------------|----------|
| Entrypoint   | 0x0027   |
| Data Size    | 24 bytes |
| Instructions | 6        |

```
      00 01 02 03 04 05 06 07  08 09 0A 0B 0C 0D 0E 0F
      -- -- -- -- -- -- -- --  -- -- -- -- -- -- -- --
0020:                      32  04 80 1F 00 08 80 09 80         2........
0030: 02 80 1F 01 1F 00 0A 80  0B 80 0C 80 1F 01 00     ............... 
```

#### Opcodes

```
  0: 0x0027 [0x32] ExtData[1]->MainSpeed = 13* * 0.1
  1: 0x002A [0x1F] MOVE_ENTITY: EventEntity moves to X=-11.739*, Z=25.724*, Y=-6.000*
  2: 0x0032 [0x1F] MOVE_ENTITY: Update entity position (mode=1)
  3: 0x0034 [0x1F] MOVE_ENTITY: EventEntity moves to X=-22.038*, Z=26.546*, Y=-5.999*
  4: 0x003C [0x1F] MOVE_ENTITY: Update entity position (mode=1)
  5: 0x003E [0x00] END_REQSTACK()
```

### Event 802

#### Metadata

| Field        | Value   |
|--------------|---------|
| Entrypoint   | 0x003F  |
| Data Size    | 1 bytes |
| Instructions | 1       |

```
      00 01 02 03 04 05 06 07  08 09 0A 0B 0C 0D 0E 0F
      -- -- -- -- -- -- -- --  -- -- -- -- -- -- -- --
0030:                                               00                 .
```

#### Opcodes

```
  0: 0x003F [0x00] END_REQSTACK()
```

### Event 65535.4

#### Metadata

| Field        | Value    |
|--------------|----------|
| Entrypoint   | 0x0040   |
| Data Size    | 15 bytes |
| Instructions | 3        |

```
      00 01 02 03 04 05 06 07  08 09 0A 0B 0C 0D 0E 0F
      -- -- -- -- -- -- -- --  -- -- -- -- -- -- -- --
0040: 37 0D 80 0E 80 0F 80 10  80 80 F8 FF FF 7F 00     7.............. 
```

#### Opcodes

```
  0: 0x0040 [0x37] UPDATE_EVENT_POSITION_AND_DIR: x=-60.432*, z=-182.558*, y=5.469*, direction=213.1째*
  1: 0x0049 [0x80] LOAD_WAIT(entity=EventEntity)
  2: 0x004E [0x00] END_REQSTACK()
```

### Event 65535.5

#### Metadata

| Field        | Value    |
|--------------|----------|
| Entrypoint   | 0x004F   |
| Data Size    | 32 bytes |
| Instructions | 6        |

```
      00 01 02 03 04 05 06 07  08 09 0A 0B 0C 0D 0E 0F
      -- -- -- -- -- -- -- --  -- -- -- -- -- -- -- --
0040:                                               32                 2
0050: 04 80 1F 00 11 80 12 80  13 80 1F 01 1C 14 80 66  ...............f
0060: 15 80 4A 21 03 01 4A 21  03 01 73 68 61 30 00     ..J!..J!..sha0. 
```

#### Opcodes

```
  0: 0x004F [0x32] ExtData[1]->MainSpeed = 13* * 0.1
  1: 0x0052 [0x1F] MOVE_ENTITY: EventEntity moves to X=-59.606*, Z=-187.427*, Y=5.586*
  2: 0x005A [0x1F] MOVE_ENTITY: Update entity position (mode=1)
  3: 0x005C [0x1C] WAIT(5* ticks)
  4: 0x005F [0x66] LOAD_EXT_SCHEDULER_MAIN: Load scheduler "sha0" with entities [Yazhaal (ID: 16982346/0x0103214A), Yazhaal (ID: 16982346/0x0103214A)], work=9*
  5: 0x006E [0x00] END_REQSTACK()
```

### Event 65535.6

#### Metadata

| Field        | Value    |
|--------------|----------|
| Entrypoint   | 0x006F   |
| Data Size    | 15 bytes |
| Instructions | 3        |

```
      00 01 02 03 04 05 06 07  08 09 0A 0B 0C 0D 0E 0F
      -- -- -- -- -- -- -- --  -- -- -- -- -- -- -- --
0060:                                               37                 7
0070: 16 80 17 80 18 80 10 80  80 F8 FF FF 7F 00        ..............  
```

#### Opcodes

```
  0: 0x006F [0x37] UPDATE_EVENT_POSITION_AND_DIR: x=-60.533*, z=-194.508*, y=5.684*, direction=213.1째*
  1: 0x0078 [0x80] LOAD_WAIT(entity=EventEntity)
  2: 0x007D [0x00] END_REQSTACK()
```

### Event 65535.7

#### Metadata

| Field        | Value    |
|--------------|----------|
| Entrypoint   | 0x007E   |
| Data Size    | 22 bytes |
| Instructions | 6        |

```
      00 01 02 03 04 05 06 07  08 09 0A 0B 0C 0D 0E 0F
      -- -- -- -- -- -- -- --  -- -- -- -- -- -- -- --
0070:                                            32 19                2.
0080: 80 1F 00 1A 80 1B 80 1C  80 1F 01 1E 4B 21 03 01  ............K!..
0090: 1C 07 80 00                                       ....            
```

#### Opcodes

```
  0: 0x007E [0x32] ExtData[1]->MainSpeed = 40* * 0.1
  1: 0x0081 [0x1F] MOVE_ENTITY: EventEntity moves to X=-58.964*, Z=-197.122*, Y=5.762*
  2: 0x0089 [0x1F] MOVE_ENTITY: Update entity position (mode=1)
  3: 0x008B [0x1E] EventEntity looks at Minfram (ID: 16982347/0x0103214B) and starts talking
  4: 0x0090 [0x1C] WAIT(30* ticks)
  5: 0x0093 [0x00] END_REQSTACK()
```

### Event 65535.8

#### Metadata

| Field        | Value    |
|--------------|----------|
| Entrypoint   | 0x0094   |
| Data Size    | 43 bytes |
| Instructions | 9        |

```
      00 01 02 03 04 05 06 07  08 09 0A 0B 0C 0D 0E 0F
      -- -- -- -- -- -- -- --  -- -- -- -- -- -- -- --
0090:             32 19 80 1F  00 1D 80 1E 80 1F 80 1F      2...........
00A0: 01 1F 00 20 80 21 80 22  80 1F 01 1F 00 23 80 24  ... .!.".....#.$
00B0: 80 25 80 1F 01 4A 4A 21  03 01 AE 21 03 01 00     .%...JJ!...!... 
```

#### Opcodes

```
  0: 0x0094 [0x32] ExtData[1]->MainSpeed = 40* * 0.1
  1: 0x0097 [0x1F] MOVE_ENTITY: EventEntity moves to X=-58.245*, Z=-198.863*, Y=5.765*
  2: 0x009F [0x1F] MOVE_ENTITY: Update entity position (mode=1)
  3: 0x00A1 [0x1F] MOVE_ENTITY: EventEntity moves to X=-57.994*, Z=-205.670*, Y=5.531*
  4: 0x00A9 [0x1F] MOVE_ENTITY: Update entity position (mode=1)
  5: 0x00AB [0x1F] MOVE_ENTITY: EventEntity moves to X=-52.863*, Z=-210.424*, Y=5.410*
  6: 0x00B3 [0x1F] MOVE_ENTITY: Update entity position (mode=1)
  7: 0x00B5 [0x4A] Yazhaal (ID: 16982346/0x0103214A) looks at Mishhar (ID: 16982446/0x010321AE)
  8: 0x00BE [0x00] END_REQSTACK()
```

### Event 65535.9

#### Metadata

| Field        | Value    |
|--------------|----------|
| Entrypoint   | 0x00BF   |
| Data Size    | 15 bytes |
| Instructions | 3        |

```
      00 01 02 03 04 05 06 07  08 09 0A 0B 0C 0D 0E 0F
      -- -- -- -- -- -- -- --  -- -- -- -- -- -- -- --
00B0:                                               37                 7
00C0: 26 80 27 80 28 80 29 80  80 F8 FF FF 7F 00        &.'.(.).......  
```

#### Opcodes

```
  0: 0x00BF [0x37] UPDATE_EVENT_POSITION_AND_DIR: x=-141.887*, z=-11.442*, y=1.999*, direction=227.7째*
  1: 0x00C8 [0x80] LOAD_WAIT(entity=EventEntity)
  2: 0x00CD [0x00] END_REQSTACK()
```

### Event 803

#### Metadata

| Field        | Value   |
|--------------|---------|
| Entrypoint   | 0x00CE  |
| Data Size    | 1 bytes |
| Instructions | 1       |

```
      00 01 02 03 04 05 06 07  08 09 0A 0B 0C 0D 0E 0F
      -- -- -- -- -- -- -- --  -- -- -- -- -- -- -- --
00C0:                                            00                   . 
```

#### Opcodes

```
  0: 0x00CE [0x00] END_REQSTACK()
```
