# 16982280

## Common Data

| Field            | Value                         |
|------------------|-------------------------------|
| Zone             | Aht Urhgan Whitegate (ID: 50) |
| Block Size       | 24784 bytes                   |
| Total Events     | 7                             |
| References Count | 369                           |

## List of Events

| Event ID              | Entrypoint   |   Size |   Instructions |
|-----------------------|--------------|--------|----------------|
| [65535](#event-65535) | 0x0000       |      1 |              1 |
| [808](#event-808)     | 0x0001       |   5044 |            580 |
| [809](#event-809)     | 0x13B5       |   3880 |            433 |
| [810](#event-810)     | 0x22DD       |   2905 |            324 |
| [811](#event-811)     | 0x2E36       |   2662 |            299 |
| [812](#event-812)     | 0x389C       |   2350 |            267 |
| [813](#event-813)     | 0x41CA       |   6420 |            700 |

## DAT References (imed_data)

|   Index | Hex Value   |   Dec Value |
|---------|-------------|-------------|
|       0 | 0x00C8      |         200 |
|       1 | 0x0000      |           0 |
|       2 | 0x0013      |          19 |
|       3 | 0x001D      |          29 |
|       4 | 0x0118      |         280 |
|       5 | 0x0168      |         360 |
|       6 | 0x0078      |         120 |
|       7 | 0x001E      |          30 |
|       8 | 0x0BB9      |        3001 |
|       9 | 0x1473      |        5235 |
|      10 | 0x0384      |         900 |
|      11 | 0x1474      |        5236 |
|      12 | 0x004B      |          75 |
|      13 | 0x1475      |        5237 |
|      14 | 0x000A      |          10 |
|      15 | 0x0014      |          20 |
|      16 | 0x0045      |          69 |
|      17 | 0x0006      |           6 |
|      18 | 0x000C      |          12 |
|      19 | 0x1476      |        5238 |
|      20 | 0x00F0      |         240 |
|      21 | 0x1477      |        5239 |
|      22 | 0x1478      |        5240 |
|      23 | 0x1479      |        5241 |
|      24 | 0x147A      |        5242 |
|      25 | 0x0019      |          25 |
|      26 | 0x147B      |        5243 |
|      27 | 0x147C      |        5244 |
|      28 | 0x0020      |          32 |
|      29 | 0x012C      |         300 |
|      30 | 0x147D      |        5245 |
|      31 | 0x003C      |          60 |
|      32 | 0x147E      |        5246 |
|      33 | 0x0028      |          40 |
|      34 | 0x005A      |          90 |
|      35 | 0x147F      |        5247 |
|      36 | 0x1480      |        5248 |
|      37 | 0x1481      |        5249 |
|      38 | 0x1482      |        5250 |
|      39 | 0x1483      |        5251 |
|      40 | 0x1484      |        5252 |
|      41 | 0x0021      |          33 |
|      42 | 0x1485      |        5253 |
|      43 | 0x1486      |        5254 |
|      44 | 0x1487      |        5255 |
|      45 | 0x1488      |        5256 |
|      46 | 0x148A      |        5258 |
|      47 | 0x148B      |        5259 |
|      48 | 0x148C      |        5260 |
|      49 | 0x148D      |        5261 |
|      50 | 0x148E      |        5262 |
|      51 | 0x148F      |        5263 |
|      52 | 0x0007      |           7 |
|      53 | 0x1490      |        5264 |
|      54 | 0x1491      |        5265 |
|      55 | 0x1492      |        5266 |
|      56 | 0x1493      |        5267 |
|      57 | 0x1494      |        5268 |
|      58 | 0x1495      |        5269 |
|      59 | 0x1496      |        5270 |
|      60 | 0x0005      |           5 |
|      61 | 0x00B4      |         180 |
|      62 | 0x05DC      |        1500 |
|      63 | 0x1497      |        5271 |
|      64 | 0x1498      |        5272 |
|      65 | 0x1499      |        5273 |
|      66 | 0x149A      |        5274 |
|      67 | 0x149B      |        5275 |
|      68 | 0x149C      |        5276 |
|      69 | 0x149D      |        5277 |
|      70 | 0x03E8      |        1000 |
|      71 | 0x149E      |        5278 |
|      72 | 0x0001      |           1 |
|      73 | 0x149F      |        5279 |
|      74 | 0x14A0      |        5280 |
|      75 | 0x14A1      |        5281 |
|      76 | 0x14A2      |        5282 |
|      77 | 0x14A3      |        5283 |
|      78 | 0x0023      |          35 |
|      79 | 0x14A4      |        5284 |
|      80 | 0x14A5      |        5285 |
|      81 | 0x14A6      |        5286 |
|      82 | 0x14A7      |        5287 |
|      83 | 0x14A8      |        5288 |
|      84 | 0x14A9      |        5289 |
|      85 | 0x14AA      |        5290 |
|      86 | 0x0258      |         600 |
|      87 | 0x14AD      |        5293 |
|      88 | 0x14AE      |        5294 |
|      89 | 0x14AF      |        5295 |
|      90 | 0x14B0      |        5296 |
|      91 | 0x0015      |          21 |
|      92 | 0x14B1      |        5297 |
|      93 | 0x14B2      |        5298 |
|      94 | 0x14B3      |        5299 |
|      95 | 0x14B4      |        5300 |
|      96 | 0x14B5      |        5301 |
|      97 | 0x000B      |          11 |
|      98 | 0x14B6      |        5302 |
|      99 | 0x0016      |          22 |
|     100 | 0x14B7      |        5303 |
|     101 | 0x14B8      |        5304 |
|     102 | 0x0002      |           2 |
|     103 | 0x0003      |           3 |
|     104 | 0x0004      |           4 |
|     105 | 0x0008      |           8 |
|     106 | 0x14B9      |        5305 |
|     107 | 0x14BA      |        5306 |
|     108 | 0x14BB      |        5307 |
|     109 | 0x14BC      |        5308 |
|     110 | 0x14BD      |        5309 |
|     111 | 0x14BE      |        5310 |
|     112 | 0x07D0      |        2000 |
|     113 | 0x14BF      |        5311 |
|     114 | 0x14C0      |        5312 |
|     115 | 0x14C1      |        5313 |
|     116 | 0x14C2      |        5314 |
|     117 | 0x14C3      |        5315 |
|     118 | 0x14C4      |        5316 |
|     119 | 0x001A      |          26 |
|     120 | 0x14C5      |        5317 |
|     121 | 0x14C6      |        5318 |
|     122 | 0x14C7      |        5319 |
|     123 | 0x14C8      |        5320 |
|     124 | 0x14C9      |        5321 |
|     125 | 0x14CA      |        5322 |
|     126 | 0x14CB      |        5323 |
|     127 | 0x14CD      |        5325 |
|     128 | 0x14CE      |        5326 |
|     129 | 0x14CF      |        5327 |
|     130 | 0x0024      |          36 |
|     131 | 0x14D0      |        5328 |
|     132 | 0x14D1      |        5329 |
|     133 | 0x14D2      |        5330 |
|     134 | 0x14D3      |        5331 |
|     135 | 0x14D6      |        5334 |
|     136 | 0x14D4      |        5332 |
|     137 | 0x14D5      |        5333 |
|     138 | 0x14D7      |        5335 |
|     139 | 0x14D8      |        5336 |
|     140 | 0x14D9      |        5337 |
|     141 | 0x14DA      |        5338 |
|     142 | 0x00A3      |         163 |
|     143 | 0x0032      |          50 |
|     144 | 0x14DB      |        5339 |
|     145 | 0x14DC      |        5340 |
|     146 | 0x000F      |          15 |
|     147 | 0x14DD      |        5341 |
|     148 | 0x14DE      |        5342 |
|     149 | 0x14DF      |        5343 |
|     150 | 0x14E0      |        5344 |
|     151 | 0x0BB8      |        3000 |
|     152 | 0x14E1      |        5345 |
|     153 | 0x14E2      |        5346 |
|     154 | 0x14E3      |        5347 |
|     155 | 0x14E4      |        5348 |
|     156 | 0x14E5      |        5349 |
|     157 | 0x14E6      |        5350 |
|     158 | 0x14E7      |        5351 |
|     159 | 0x14E8      |        5352 |
|     160 | 0x003B      |          59 |
|     161 | 0x14E9      |        5353 |
|     162 | 0x14EA      |        5354 |
|     163 | 0x14EB      |        5355 |
|     164 | 0x14EC      |        5356 |
|     165 | 0x14ED      |        5357 |
|     166 | 0x14EE      |        5358 |
|     167 | 0x14EF      |        5359 |
|     168 | 0x14F0      |        5360 |
|     169 | 0x14F1      |        5361 |
|     170 | 0x14F2      |        5362 |
|     171 | 0x14F3      |        5363 |
|     172 | 0x14F4      |        5364 |
|     173 | 0x00B2      |         178 |
|     174 | 0x14F5      |        5365 |
|     175 | 0x14F6      |        5366 |
|     176 | 0x14F7      |        5367 |
|     177 | 0x14F8      |        5368 |
|     178 | 0x00A0      |         160 |
|     179 | 0x14FA      |        5370 |
|     180 | 0x14FB      |        5371 |
|     181 | 0x14FC      |        5372 |
|     182 | 0x0018      |          24 |
|     183 | 0x14FD      |        5373 |
|     184 | 0x14FE      |        5374 |
|     185 | 0x14FF      |        5375 |
|     186 | 0x1501      |        5377 |
|     187 | 0x1502      |        5378 |
|     188 | 0x1503      |        5379 |
|     189 | 0x1504      |        5380 |
|     190 | 0x1505      |        5381 |
|     191 | 0x1506      |        5382 |
|     192 | 0x1507      |        5383 |
|     193 | 0x1508      |        5384 |
|     194 | 0x1509      |        5385 |
|     195 | 0x150A      |        5386 |
|     196 | 0x150B      |        5387 |
|     197 | 0x150C      |        5388 |
|     198 | 0x150D      |        5389 |
|     199 | 0x150E      |        5390 |
|     200 | 0x150F      |        5391 |
|     201 | 0x1510      |        5392 |
|     202 | 0x1511      |        5393 |
|     203 | 0x1512      |        5394 |
|     204 | 0x1513      |        5395 |
|     205 | 0x1514      |        5396 |
|     206 | 0x1515      |        5397 |
|     207 | 0x1516      |        5398 |
|     208 | 0x1517      |        5399 |
|     209 | 0x034B      |         843 |
|     210 | 0x1518      |        5400 |
|     211 | 0x1519      |        5401 |
|     212 | 0x034A      |         842 |
|     213 | 0x151A      |        5402 |
|     214 | 0x151B      |        5403 |
|     215 | 0x151C      |        5404 |
|     216 | 0x151D      |        5405 |
|     217 | 0x151E      |        5406 |
|     218 | 0x151F      |        5407 |
|     219 | 0x1520      |        5408 |
|     220 | 0x1521      |        5409 |
|     221 | 0x1522      |        5410 |
|     222 | 0x1523      |        5411 |
|     223 | 0x1524      |        5412 |
|     224 | 0x1525      |        5413 |
|     225 | 0x1526      |        5414 |
|     226 | 0x1527      |        5415 |
|     227 | 0x1528      |        5416 |
|     228 | 0x1529      |        5417 |
|     229 | 0x152A      |        5418 |
|     230 | 0x152B      |        5419 |
|     231 | 0x152C      |        5420 |
|     232 | 0x152D      |        5421 |
|     233 | 0x152E      |        5422 |
|     234 | 0x0096      |         150 |
|     235 | 0x152F      |        5423 |
|     236 | 0x1530      |        5424 |
|     237 | 0x1531      |        5425 |
|     238 | 0x1532      |        5426 |
|     239 | 0x1533      |        5427 |
|     240 | 0x1534      |        5428 |
|     241 | 0x1535      |        5429 |
|     242 | 0x1536      |        5430 |
|     243 | 0x1537      |        5431 |
|     244 | 0x0125      |         293 |
|     245 | 0x1538      |        5432 |
|     246 | 0x1539      |        5433 |
|     247 | 0x153A      |        5434 |
|     248 | 0x153B      |        5435 |
|     249 | 0x153C      |        5436 |
|     250 | 0x153D      |        5437 |
|     251 | 0x153E      |        5438 |
|     252 | 0x153F      |        5439 |
|     253 | 0x1540      |        5440 |
|     254 | 0x0022      |          34 |
|     255 | 0x1541      |        5441 |
|     256 | 0x1542      |        5442 |
|     257 | 0x1543      |        5443 |
|     258 | 0x1544      |        5444 |
|     259 | 0x1545      |        5445 |
|     260 | 0x1546      |        5446 |
|     261 | 0x1547      |        5447 |
|     262 | 0x1548      |        5448 |
|     263 | 0x1549      |        5449 |
|     264 | 0x154A      |        5450 |
|     265 | 0x154B      |        5451 |
|     266 | 0x154C      |        5452 |
|     267 | 0x154D      |        5453 |
|     268 | 0x154E      |        5454 |
|     269 | 0x154F      |        5455 |
|     270 | 0x1550      |        5456 |
|     271 | 0x1551      |        5457 |
|     272 | 0x1552      |        5458 |
|     273 | 0x1553      |        5459 |
|     274 | 0x1554      |        5460 |
|     275 | 0x1555      |        5461 |
|     276 | 0x1556      |        5462 |
|     277 | 0x1557      |        5463 |
|     278 | 0x1558      |        5464 |
|     279 | 0x1559      |        5465 |
|     280 | 0x155A      |        5466 |
|     281 | 0x155B      |        5467 |
|     282 | 0x155C      |        5468 |
|     283 | 0x155D      |        5469 |
|     284 | 0x155E      |        5470 |
|     285 | 0x155F      |        5471 |
|     286 | 0x1560      |        5472 |
|     287 | 0x1561      |        5473 |
|     288 | 0x1562      |        5474 |
|     289 | 0x1563      |        5475 |
|     290 | 0x1564      |        5476 |
|     291 | 0x1565      |        5477 |
|     292 | 0x1566      |        5478 |
|     293 | 0x1567      |        5479 |
|     294 | 0x1568      |        5480 |
|     295 | 0x1569      |        5481 |
|     296 | 0x156A      |        5482 |
|     297 | 0x156B      |        5483 |
|     298 | 0x00D7      |         215 |
|     299 | 0x156C      |        5484 |
|     300 | 0x156D      |        5485 |
|     301 | 0x156E      |        5486 |
|     302 | 0x156F      |        5487 |
|     303 | 0x1570      |        5488 |
|     304 | 0x1571      |        5489 |
|     305 | 0x1572      |        5490 |
|     306 | 0x1573      |        5491 |
|     307 | 0x1574      |        5492 |
|     308 | 0x1575      |        5493 |
|     309 | 0x1576      |        5494 |
|     310 | 0x1577      |        5495 |
|     311 | 0x1578      |        5496 |
|     312 | 0x1579      |        5497 |
|     313 | 0x157A      |        5498 |
|     314 | 0x157B      |        5499 |
|     315 | 0x157C      |        5500 |
|     316 | 0x157D      |        5501 |
|     317 | 0x157E      |        5502 |
|     318 | 0x007C      |         124 |
|     319 | 0x157F      |        5503 |
|     320 | 0x1580      |        5504 |
|     321 | 0x1581      |        5505 |
|     322 | 0x1582      |        5506 |
|     323 | 0x1583      |        5507 |
|     324 | 0x1584      |        5508 |
|     325 | 0x1585      |        5509 |
|     326 | 0x1586      |        5510 |
|     327 | 0x1587      |        5511 |
|     328 | 0x1588      |        5512 |
|     329 | 0x1589      |        5513 |
|     330 | 0x158A      |        5514 |
|     331 | 0x158B      |        5515 |
|     332 | 0x158C      |        5516 |
|     333 | 0x158D      |        5517 |
|     334 | 0x158E      |        5518 |
|     335 | 0x158F      |        5519 |
|     336 | 0x1590      |        5520 |
|     337 | 0x1591      |        5521 |
|     338 | 0x1592      |        5522 |
|     339 | 0x1593      |        5523 |
|     340 | 0x1594      |        5524 |
|     341 | 0x0FA0      |        4000 |
|     342 | 0x1595      |        5525 |
|     343 | 0x1597      |        5527 |
|     344 | 0x1598      |        5528 |
|     345 | 0x1599      |        5529 |
|     346 | 0x159A      |        5530 |
|     347 | 0x159B      |        5531 |
|     348 | 0x159C      |        5532 |
|     349 | 0x159D      |        5533 |
|     350 | 0x159E      |        5534 |
|     351 | 0x159F      |        5535 |
|     352 | 0x15A0      |        5536 |
|     353 | 0x15A1      |        5537 |
|     354 | 0x15A2      |        5538 |
|     355 | 0x15A3      |        5539 |
|     356 | 0x15A4      |        5540 |
|     357 | 0x15A5      |        5541 |
|     358 | 0x15A6      |        5542 |
|     359 | 0x15A7      |        5543 |
|     360 | 0x15A8      |        5544 |
|     361 | 0x15A9      |        5545 |
|     362 | 0x15AA      |        5546 |
|     363 | 0x15AB      |        5547 |
|     364 | 0x15AC      |        5548 |
|     365 | 0x15AD      |        5549 |
|     366 | 0x15AE      |        5550 |
|     367 | 0x15AF      |        5551 |
|     368 | 0x15B0      |        5552 |

## Events

### Event 65535

#### Metadata

| Field        | Value   |
|--------------|---------|
| Entrypoint   | 0x0000  |
| Data Size    | 1 bytes |
| Instructions | 1       |

```
      00 01 02 03 04 05 06 07  08 09 0A 0B 0C 0D 0E 0F
      -- -- -- -- -- -- -- --  -- -- -- -- -- -- -- --
0000: 00                                                .               
```

#### Opcodes

```
  0: 0x0000 [0x00] END_REQSTACK()
```

### Event 808

#### Metadata

| Field        | Value      |
|--------------|------------|
| Entrypoint   | 0x0001     |
| Data Size    | 5044 bytes |
| Instructions | 580        |

```
      00 01 02 03 04 05 06 07  08 09 0A 0B 0C 0D 0E 0F
      -- -- -- -- -- -- -- --  -- -- -- -- -- -- -- --
0000:    42 45 00 80 F8 FF FF  7F F8 FF FF 7F 66 64 6F   BE..........fdo
0010: 31 01 80 55 00 80 F8 FF  FF 7F F8 FF FF 7F 66 64  1..U..........fd
0020: 6F 31 46 01 38 02 80 29  0A F0 FF FF 7F 78 92 01  o1F.8..).....x..
0030: 2D 21 03 01 92 01 0A 21  03 01 92 01 09 21 03 01  -!.....!.....!..
0040: 92 01 0B 21 03 01 92 01  0C 21 03 01 92 01 0D 21  ...!.....!.....!
0050: 03 01 80 F0 FF FF 7F 80  0A 21 03 01 80 09 21 03  .........!....!.
0060: 01 80 0B 21 03 01 80 0C  21 03 01 80 0D 21 03 01  ...!....!....!..
0070: 80 2D 21 03 01 4E 00 F0  FF FF 7F 4E 00 0B 21 03  .-!..N.....N..!.
0080: 01 4E 01 0C 21 03 01 4E  01 0D 21 03 01 4E 00 2D  .N..!..N..!..N.-
0090: 21 03 01 4E 00 0A 21 03  01 4E 00 09 21 03 01 03  !..N..!..N..!...
00A0: 02 10 8B 7F 66 03 80 09  21 03 01 09 21 03 01 73  ....f...!...!..s
00B0: 68 61 30 79 00 09 21 03  01 0A 21 03 01 29 32 0B  ha0y..!...!..)2.
00C0: 21 03 01 02 29 32 0C 21  03 01 02 29 32 0D 21 03  !...)2.!...)2.!.
00D0: 01 02 29 32 09 21 03 01  02 29 32 0A 21 03 01 02  ..)2.!...)2.!...
00E0: 45 00 80 F8 FF FF 7F F8  FF FF 7F 66 64 69 31 01  E..........fdi1.
00F0: 80 45 04 80 F8 FF FF 7F  F8 FF FF 7F 73 30 30 30  .E..........s000
0100: 01 80 1C 05 80 52 04 80  F8 FF FF 7F F8 FF FF 7F  .....R..........
0110: 73 30 30 30 45 04 80 F8  FF FF 7F F8 FF FF 7F 73  s000E..........s
0120: 30 30 31 01 80 1C 06 80  52 04 80 F8 FF FF 7F F8  001.....R.......
0130: FF FF 7F 73 30 30 31 45  04 80 F8 FF FF 7F F8 FF  ...s001E........
0140: FF 7F 73 30 32 31 01 80  1C 07 80 4B 2D 21 03 01  ..s021.....K-!..
0150: 08 80 1C 07 80 2B 2D 21  03 01 09 80 23 4B 2D 21  .....+-!....#K-!
0160: 03 01 0A 80 2B 2D 21 03  01 0B 80 23 4A 2D 21 03  ....+-!....#J-!.
0170: 01 0B 21 03 01 5B 0C 80  2D 21 03 01 2D 21 03 01  ..!..[..-!..-!..
0180: 74 6C 6B 30 2B 2D 21 03  01 0D 80 5B 0C 80 2D 21  tlk0+-!....[..-!
0190: 03 01 2D 21 03 01 74 6C  6B 31 52 04 80 F8 FF FF  ..-!..tlk1R.....
01A0: 7F F8 FF FF 7F 73 30 32  31 45 04 80 F8 FF FF 7F  .....s021E......
01B0: F8 FF FF 7F 73 30 30 32  01 80 4E 00 0C 21 03 01  ....s002..N..!..
01C0: 4E 00 0D 21 03 01 27 32  0B 21 03 01 04 1C 0E 80  N..!..'2.!......
01D0: 27 32 0C 21 03 01 03 1C  07 80 29 32 0D 21 03 01  '2.!......)2.!..
01E0: 03 4A 0D 21 03 01 0C 21  03 01 1C 0F 80 4A 0C 21  .J.!...!.....J.!
01F0: 03 01 0D 21 03 01 66 10  80 0D 21 03 01 0D 21 03  ...!..f...!...!.
0200: 01 74 6C 6B 30 6E 0C 21  03 01 11 80 99 0C 21 03  .tlk0n.!......!.
0210: 01 52 04 80 F8 FF FF 7F  F8 FF FF 7F 73 30 30 32  .R..........s002
0220: 45 04 80 F8 FF FF 7F F8  FF FF 7F 73 30 30 33 01  E..........s003.
0230: 80 1C 07 80 4A F0 FF FF  7F 0B 21 03 01 66 10 80  ....J.....!..f..
0240: 0D 21 03 01 0D 21 03 01  74 6C 6B 31 6E 0B 21 03  .!...!..tlk1n.!.
0250: 01 12 80 99 0B 21 03 01  2B 0B 21 03 01 13 80 23  .....!..+.!....#
0260: 66 10 80 0D 21 03 01 0D  21 03 01 74 6C 6B 30 4A  f...!...!..tlk0J
0270: 0B 21 03 01 0C 21 03 01  4A 0C 21 03 01 0B 21 03  .!...!..J.!...!.
0280: 01 1C 0E 80 4A 0D 21 03  01 0B 21 03 01 27 32 0C  ....J.!...!..'2.
0290: 21 03 01 04 1C 07 80 27  32 0D 21 03 01 04 1C 07  !......'2.!.....
02A0: 80 52 04 80 F8 FF FF 7F  F8 FF FF 7F 73 30 30 33  .R..........s003
02B0: 45 04 80 F8 FF FF 7F F8  FF FF 7F 73 30 30 34 01  E..........s004.
02C0: 80 1C 14 80 52 04 80 F8  FF FF 7F F8 FF FF 7F 73  ....R..........s
02D0: 30 30 34 45 04 80 F8 FF  FF 7F F8 FF FF 7F 73 30  004E..........s0
02E0: 33 35 01 80 2B 0C 21 03  01 15 80 23 52 04 80 F8  35..+.!....#R...
02F0: FF FF 7F F8 FF FF 7F 73  30 33 35 45 04 80 F8 FF  .......s035E....
0300: FF 7F F8 FF FF 7F 73 30  32 33 01 80 4A 0B 21 03  ......s023..J.!.
0310: 01 0D 21 03 01 6E 0D 21  03 01 11 80 99 0D 21 03  ..!..n.!......!.
0320: 01 2B 0D 21 03 01 16 80  23 52 04 80 F8 FF FF 7F  .+.!....#R......
0330: F8 FF FF 7F 73 30 32 33  45 04 80 F8 FF FF 7F F8  ....s023E.......
0340: FF FF 7F 73 30 32 34 01  80 4A 0B 21 03 01 0C 21  ...s024..J.!...!
0350: 03 01 4A 0D 21 03 01 0B  21 03 01 1C 07 80 6F 76  ..J.!...!.....ov
0360: 0D 21 03 01 6E 0C 21 03  01 02 80 99 0C 21 03 01  .!..n.!......!..
0370: 2B 0C 21 03 01 17 80 23  52 04 80 F8 FF FF 7F F8  +.!....#R.......
0380: FF FF 7F 73 30 32 34 45  04 80 F8 FF FF 7F F8 FF  ...s024E........
0390: FF 7F 73 30 32 35 01 80  6E 0C 21 03 01 11 80 99  ..s025..n.!.....
03A0: 0C 21 03 01 2B 0C 21 03  01 18 80 23 4A 0D 21 03  .!..+.!....#J.!.
03B0: 01 0C 21 03 01 52 04 80  F8 FF FF 7F F8 FF FF 7F  ..!..R..........
03C0: 73 30 32 35 45 04 80 F8  FF FF 7F F8 FF FF 7F 73  s025E..........s
03D0: 30 32 36 01 80 4A 0C 21  03 01 0D 21 03 01 6F 76  026..J.!...!..ov
03E0: 0D 21 03 01 6E 0D 21 03  01 19 80 99 0D 21 03 01  .!..n.!......!..
03F0: 2B 0D 21 03 01 1A 80 23  52 04 80 F8 FF FF 7F F8  +.!....#R.......
0400: FF FF 7F 73 30 32 36 45  04 80 F8 FF FF 7F F8 FF  ...s026E........
0410: FF 7F 73 30 32 37 01 80  4A 0C 21 03 01 0B 21 03  ..s027..J.!...!.
0420: 01 1C 0E 80 6E 0C 21 03  01 02 80 99 0C 21 03 01  ....n.!......!..
0430: 2B 0C 21 03 01 1B 80 23  1C 07 80 6E 0B 21 03 01  +.!....#...n.!..
0440: 1C 80 99 0B 21 03 01 52  04 80 F8 FF FF 7F F8 FF  ....!..R........
0450: FF 7F 73 30 32 37 45 04  80 F8 FF FF 7F F8 FF FF  ..s027E.........
0460: 7F 73 30 32 38 01 80 1C  1D 80 29 32 2D 21 03 01  .s028.....)2-!..
0470: 07 52 04 80 F8 FF FF 7F  F8 FF FF 7F 73 30 32 38  .R..........s028
0480: 45 04 80 F8 FF FF 7F F8  FF FF 7F 73 30 30 35 01  E..........s005.
0490: 80 4A 2D 21 03 01 F0 FF  FF 7F 4A F0 FF FF 7F 2D  .J-!......J....-
04A0: 21 03 01 1C 07 80 5B 0C  80 2D 21 03 01 2D 21 03  !.....[..-!..-!.
04B0: 01 74 68 6B 31 53 2D 21  03 01 2D 21 03 01 74 68  .thk1S-!..-!..th
04C0: 6B 31 1C 07 80 2B 2D 21  03 01 1E 80 23 1C 07 80  k1...+-!....#...
04D0: 5B 0C 80 2D 21 03 01 2D  21 03 01 74 68 6B 32 53  [..-!..-!..thk2S
04E0: 2D 21 03 01 2D 21 03 01  74 68 6B 32 4A 0D 21 03  -!..-!..thk2J.!.
04F0: 01 F0 FF FF 7F 1C 1F 80  52 04 80 F8 FF FF 7F F8  ........R.......
0500: FF FF 7F 73 30 30 35 45  04 80 F8 FF FF 7F F8 FF  ...s005E........
0510: FF 7F 73 30 32 39 01 80  6E 0D 21 03 01 01 80 99  ..s029..n.!.....
0520: 0D 21 03 01 2B 0D 21 03  01 20 80 55 04 80 F8 FF  .!..+.!.. .U....
0530: FF 7F F8 FF FF 7F 73 30  32 39 45 04 80 F8 FF FF  ......s029E.....
0540: 7F F8 FF FF 7F 73 30 33  32 01 80 1C 07 80 4A 2D  .....s032.....J-
0550: 21 03 01 0C 21 03 01 4A  F0 FF FF 7F 0C 21 03 01  !...!..J.....!..
0560: 1C 21 80 52 04 80 F8 FF  FF 7F F8 FF FF 7F 73 30  .!.R..........s0
0570: 33 32 27 32 0C 21 03 01  06 1C 07 80 27 32 0D 21  32'2.!......'2.!
0580: 03 01 05 1C 1F 80 45 04  80 F8 FF FF 7F F8 FF FF  ......E.........
0590: 7F 73 30 30 36 01 80 4A  2D 21 03 01 0D 21 03 01  .s006..J-!...!..
05A0: 1C 07 80 4A 0B 21 03 01  0D 21 03 01 1C 22 80 4A  ...J.!...!...".J
05B0: 0D 21 03 01 F0 FF FF 7F  4A 0C 21 03 01 F0 FF FF  .!......J.!.....
05C0: 7F 1C 07 80 52 04 80 F8  FF FF 7F F8 FF FF 7F 73  ....R..........s
05D0: 30 30 36 45 04 80 F8 FF  FF 7F F8 FF FF 7F 73 30  006E..........s0
05E0: 33 30 01 80 66 10 80 0D  21 03 01 0D 21 03 01 74  30..f...!...!..t
05F0: 6C 6B 30 2B 0D 21 03 01  23 80 23 66 10 80 0D 21  lk0+.!..#.#f...!
0600: 03 01 0D 21 03 01 74 6C  6B 31 52 04 80 F8 FF FF  ...!..tlk1R.....
0610: 7F F8 FF FF 7F 73 30 33  30 45 04 80 F8 FF FF 7F  .....s030E......
0620: F8 FF FF 7F 73 30 33 31  01 80 79 00 0D 21 03 01  ....s031..y..!..
0630: 2D 21 03 01 5B 0C 80 2D  21 03 01 2D 21 03 01 74  -!..[..-!..-!..t
0640: 6C 6B 30 2B 2D 21 03 01  24 80 23 5B 0C 80 2D 21  lk0+-!..$.#[..-!
0650: 03 01 2D 21 03 01 74 6C  6B 31 52 04 80 F8 FF FF  ..-!..tlk1R.....
0660: 7F F8 FF FF 7F 73 30 33  31 45 04 80 F8 FF FF 7F  .....s031E......
0670: F8 FF FF 7F 73 30 33 33  01 80 4A 2D 21 03 01 0C  ....s033..J-!...
0680: 21 03 01 4A 0C 21 03 01  2D 21 03 01 1C 07 80 66  !..J.!..-!.....f
0690: 10 80 0C 21 03 01 0C 21  03 01 74 6C 6B 30 2B 0C  ...!...!..tlk0+.
06A0: 21 03 01 25 80 23 66 10  80 0C 21 03 01 0C 21 03  !..%.#f...!...!.
06B0: 01 74 6C 6B 31 52 04 80  F8 FF FF 7F F8 FF FF 7F  .tlk1R..........
06C0: 73 30 33 33 45 04 80 F8  FF FF 7F F8 FF FF 7F 73  s033E..........s
06D0: 30 33 34 01 80 6E 0B 21  03 01 1C 80 99 0B 21 03  034..n.!......!.
06E0: 01 2B 0B 21 03 01 26 80  23 4A 0D 21 03 01 0B 21  .+.!..&.#J.!...!
06F0: 03 01 1C 07 80 4A 0C 21  03 01 0B 21 03 01 1C 1F  .....J.!...!....
0700: 80 27 32 0B 21 03 01 05  4A 0C 21 03 01 0B 21 03  .'2.!...J.!...!.
0710: 01 4A 2D 21 03 01 0B 21  03 01 4A F0 FF FF 7F 0B  .J-!...!..J.....
0720: 21 03 01 52 04 80 F8 FF  FF 7F F8 FF FF 7F 73 30  !..R..........s0
0730: 33 34 45 04 80 F8 FF FF  7F F8 FF FF 7F 73 30 30  34E..........s00
0740: 36 01 80 27 32 0D 21 03  01 06 27 32 0C 21 03 01  6..'2.!...'2.!..
0750: 05 1C 14 80 52 04 80 F8  FF FF 7F F8 FF FF 7F 73  ....R..........s
0760: 30 30 36 45 04 80 F8 FF  FF 7F F8 FF FF 7F 73 30  006E..........s0
0770: 30 37 01 80 1C 1F 80 4A  0B 21 03 01 F0 FF FF 7F  07.....J.!......
0780: 2B 0B 21 03 01 27 80 23  4A 0D 21 03 01 0B 21 03  +.!..'.#J.!...!.
0790: 01 2B 0B 21 03 01 28 80  23 1C 22 80 52 04 80 F8  .+.!..(.#.".R...
07A0: FF FF 7F F8 FF FF 7F 73  30 30 37 45 04 80 F8 FF  .......s007E....
07B0: FF 7F F8 FF FF 7F 73 30  30 38 01 80 6E 0B 21 03  ......s008..n.!.
07C0: 01 29 80 99 0B 21 03 01  2B 0B 21 03 01 2A 80 23  .)...!..+.!..*.#
07D0: 66 10 80 0B 21 03 01 0B  21 03 01 74 6C 6B 30 2B  f...!...!..tlk0+
07E0: 0B 21 03 01 2B 80 23 52  04 80 F8 FF FF 7F F8 FF  .!..+.#R........
07F0: FF 7F 73 30 30 38 45 04  80 F8 FF FF 7F F8 FF FF  ..s008E.........
0800: 7F 73 30 36 32 01 80 2B  0B 21 03 01 2C 80 23 2B  .s062..+.!..,.#+
0810: 0B 21 03 01 2D 80 23 66  10 80 0B 21 03 01 0B 21  .!..-.#f...!...!
0820: 03 01 74 6C 6B 31 52 04  80 F8 FF FF 7F F8 FF FF  ..tlk1R.........
0830: 7F 73 30 36 32 45 04 80  F8 FF FF 7F F8 FF FF 7F  .s062E..........
0840: 73 30 33 37 01 80 4A 0C  21 03 01 2D 21 03 01 1C  s037..J.!..-!...
0850: 07 80 66 10 80 0C 21 03  01 0C 21 03 01 74 6C 6B  ..f...!...!..tlk
0860: 30 2B 0C 21 03 01 2E 80  23 66 10 80 0C 21 03 01  0+.!....#f...!..
0870: 0C 21 03 01 74 6C 6B 31  4A 0B 21 03 01 2D 21 03  .!..tlk1J.!..-!.
0880: 01 52 04 80 F8 FF FF 7F  F8 FF FF 7F 73 30 33 37  .R..........s037
0890: 45 04 80 F8 FF FF 7F F8  FF FF 7F 73 30 33 38 01  E..........s038.
08A0: 80 5B 0C 80 2D 21 03 01  2D 21 03 01 74 68 6B 31  .[..-!..-!..thk1
08B0: 1C 1F 80 4A 0B 21 03 01  2D 21 03 01 4A 0D 21 03  ...J.!..-!..J.!.
08C0: 01 2D 21 03 01 4A 0C 21  03 01 2D 21 03 01 4A F0  .-!..J.!..-!..J.
08D0: FF FF 7F 2D 21 03 01 2B  2D 21 03 01 2F 80 23 52  ...-!..+-!../.#R
08E0: 04 80 F8 FF FF 7F F8 FF  FF 7F 73 30 33 38 45 04  ..........s038E.
08F0: 80 F8 FF FF 7F F8 FF FF  7F 73 30 33 39 01 80 66  .........s039..f
0900: 10 80 0D 21 03 01 0D 21  03 01 74 6C 6B 30 2B 0D  ...!...!..tlk0+.
0910: 21 03 01 30 80 23 66 10  80 0D 21 03 01 0D 21 03  !..0.#f...!...!.
0920: 01 74 6C 6B 31 52 04 80  F8 FF FF 7F F8 FF FF 7F  .tlk1R..........
0930: 73 30 33 39 45 04 80 F8  FF FF 7F F8 FF FF 7F 73  s039E..........s
0940: 30 34 30 01 80 1C 1F 80  5B 0C 80 2D 21 03 01 2D  040.....[..-!..-
0950: 21 03 01 74 68 6B 32 1C  1F 80 4A 2D 21 03 01 0D  !..thk2...J-!...
0960: 21 03 01 5B 0C 80 2D 21  03 01 2D 21 03 01 74 6C  !..[..-!..-!..tl
0970: 6B 30 2B 2D 21 03 01 31  80 23 5B 0C 80 2D 21 03  k0+-!..1.#[..-!.
0980: 01 2D 21 03 01 74 6C 6B  31 52 04 80 F8 FF FF 7F  .-!..tlk1R......
0990: F8 FF FF 7F 73 30 34 30  45 04 80 F8 FF FF 7F F8  ....s040E.......
09A0: FF FF 7F 73 30 34 32 01  80 6E 0C 21 03 01 02 80  ...s042..n.!....
09B0: 99 0C 21 03 01 2B 0C 21  03 01 32 80 23 52 04 80  ..!..+.!..2.#R..
09C0: F8 FF FF 7F F8 FF FF 7F  73 30 34 32 45 04 80 F8  ........s042E...
09D0: FF FF 7F F8 FF FF 7F 73  30 31 30 01 80 4A 0B 21  .......s010..J.!
09E0: 03 01 F0 FF FF 7F 4A F0  FF FF 7F 0B 21 03 01 1C  ......J.....!...
09F0: 1F 80 66 10 80 0B 21 03  01 0B 21 03 01 74 68 6B  ..f...!...!..thk
0A00: 31 2B 0B 21 03 01 33 80  1C 06 80 66 10 80 0B 21  1+.!..3....f...!
0A10: 03 01 0B 21 03 01 74 68  6B 32 52 04 80 F8 FF FF  ...!..thk2R.....
0A20: 7F F8 FF FF 7F 73 30 31  30 45 04 80 F8 FF FF 7F  .....s010E......
0A30: F8 FF FF 7F 73 30 34 34  01 80 4A F0 FF FF 7F 0B  ....s044..J.....
0A40: 21 03 01 4A 0D 21 03 01  F0 FF FF 7F 1C 0E 80 4A  !..J.!.........J
0A50: 0C 21 03 01 F0 FF FF 7F  1C 0E 80 4A 2D 21 03 01  .!.........J-!..
0A60: F0 FF FF 7F 6E F0 FF FF  7F 34 80 99 F0 FF FF 7F  ....n....4......
0A70: 1C 06 80 6E 0B 21 03 01  34 80 99 0B 21 03 01 1C  ...n.!..4...!...
0A80: 1F 80 2B 0B 21 03 01 35  80 23 66 10 80 0B 21 03  ..+.!..5.#f...!.
0A90: 01 0B 21 03 01 74 6C 6B  30 2B 0B 21 03 01 36 80  ..!..tlk0+.!..6.
0AA0: 23 66 10 80 0B 21 03 01  0B 21 03 01 74 6C 6B 31  #f...!...!..tlk1
0AB0: 52 04 80 F8 FF FF 7F F8  FF FF 7F 73 30 34 34 45  R..........s044E
0AC0: 04 80 F8 FF FF 7F F8 FF  FF 7F 73 30 34 35 01 80  ..........s045..
0AD0: 29 32 0D 21 03 01 07 4A  0D 21 03 01 0B 21 03 01  )2.!...J.!...!..
0AE0: 79 00 0B 21 03 01 0D 21  03 01 1C 07 80 66 10 80  y..!...!.....f..
0AF0: 0D 21 03 01 0D 21 03 01  74 6C 6B 30 2B 0D 21 03  .!...!..tlk0+.!.
0B00: 01 37 80 23 66 10 80 0D  21 03 01 0D 21 03 01 74  .7.#f...!...!..t
0B10: 6C 6B 31 79 00 0B 21 03  01 F0 FF FF 7F 52 04 80  lk1y..!......R..
0B20: F8 FF FF 7F F8 FF FF 7F  73 30 34 35 45 04 80 F8  ........s045E...
0B30: FF FF 7F F8 FF FF 7F 73  30 34 36 01 80 4A 2D 21  .......s046..J-!
0B40: 03 01 0B 21 03 01 5B 0C  80 2D 21 03 01 2D 21 03  ...!..[..-!..-!.
0B50: 01 74 6C 6B 30 2B 2D 21  03 01 38 80 23 5B 0C 80  .tlk0+-!..8.#[..
0B60: 2D 21 03 01 2D 21 03 01  74 6C 6B 31 4A 0D 21 03  -!..-!..tlk1J.!.
0B70: 01 2D 21 03 01 1C 0E 80  4A 0B 21 03 01 2D 21 03  .-!.....J.!..-!.
0B80: 01 1C 0E 80 4A 0C 21 03  01 2D 21 03 01 1C 07 80  ....J.!..-!.....
0B90: 6E 0B 21 03 01 34 80 99  0B 21 03 01 1C 06 80 52  n.!..4...!.....R
0BA0: 04 80 F8 FF FF 7F F8 FF  FF 7F 73 30 34 36 45 04  ..........s046E.
0BB0: 80 F8 FF FF 7F F8 FF FF  7F 73 30 31 31 01 80 29  .........s011..)
0BC0: 32 0D 21 03 01 08 4A 0D  21 03 01 F0 FF FF 7F 1C  2.!...J.!.......
0BD0: 07 80 66 10 80 0D 21 03  01 0D 21 03 01 74 6C 6B  ..f...!...!..tlk
0BE0: 30 2B 0D 21 03 01 39 80  23 66 10 80 0D 21 03 01  0+.!..9.#f...!..
0BF0: 0D 21 03 01 74 6C 6B 31  6E 0D 21 03 01 11 80 99  .!..tlk1n.!.....
0C00: 0D 21 03 01 2B 0D 21 03  01 3A 80 23 52 04 80 F8  .!..+.!..:.#R...
0C10: FF FF 7F F8 FF FF 7F 73  30 31 31 45 04 80 F8 FF  .......s011E....
0C20: FF 7F F8 FF FF 7F 73 30  36 33 01 80 6E 0C 21 03  ......s063..n.!.
0C30: 01 02 80 99 0C 21 03 01  2B 0C 21 03 01 3B 80 23  .....!..+.!..;.#
0C40: 52 04 80 F8 FF FF 7F F8  FF FF 7F 73 30 36 33 45  R..........s063E
0C50: 04 80 F8 FF FF 7F F8 FF  FF 7F 73 30 34 37 01 80  ..........s047..
0C60: 4A 0D 21 03 01 0C 21 03  01 1C 07 80 6E 0D 21 03  J.!...!.....n.!.
0C70: 01 19 80 99 0D 21 03 01  1C 1F 80 4A 0C 21 03 01  .....!.....J.!..
0C80: 0D 21 03 01 1C 07 80 6E  0C 21 03 01 3C 80 99 0C  .!.....n.!..<...
0C90: 21 03 01 1C 3D 80 52 04  80 F8 FF FF 7F F8 FF FF  !...=.R.........
0CA0: 7F 73 30 34 37 4B 0C 21  03 01 3E 80 1C 0E 80 6E  .s047K.!..>....n
0CB0: 0C 21 03 01 02 80 99 0C  21 03 01 4A 0D 21 03 01  .!......!..J.!..
0CC0: F0 FF FF 7F 52 04 80 F8  FF FF 7F F8 FF FF 7F 73  ....R..........s
0CD0: 30 34 37 45 04 80 F8 FF  FF 7F F8 FF FF 7F 73 30  047E..........s0
0CE0: 34 39 01 80 4A 0B 21 03  01 F0 FF FF 7F 66 10 80  49..J.!......f..
0CF0: 0B 21 03 01 0B 21 03 01  74 6C 6B 30 2B 0B 21 03  .!...!..tlk0+.!.
0D00: 01 3F 80 23 66 10 80 0B  21 03 01 0B 21 03 01 74  .?.#f...!...!..t
0D10: 6C 6B 31 52 04 80 F8 FF  FF 7F F8 FF FF 7F 73 30  lk1R..........s0
0D20: 34 39 45 04 80 F8 FF FF  7F F8 FF FF 7F 73 30 34  49E..........s04
0D30: 38 01 80 5B 0C 80 2D 21  03 01 2D 21 03 01 74 68  8..[..-!..-!..th
0D40: 6B 31 2B 2D 21 03 01 40  80 23 5B 0C 80 2D 21 03  k1+-!..@.#[..-!.
0D50: 01 2D 21 03 01 74 68 6B  32 52 04 80 F8 FF FF 7F  .-!..thk2R......
0D60: F8 FF FF 7F 73 30 34 38  45 04 80 F8 FF FF 7F F8  ....s048E.......
0D70: FF FF 7F 73 30 31 32 01  80 4A 0B 21 03 01 0D 21  ...s012..J.!...!
0D80: 03 01 6E 0D 21 03 01 19  80 99 0D 21 03 01 2B 0D  ..n.!......!..+.
0D90: 21 03 01 41 80 1C 06 80  55 04 80 F8 FF FF 7F F8  !..A....U.......
0DA0: FF FF 7F 73 30 31 32 45  04 80 F8 FF FF 7F F8 FF  ...s012E........
0DB0: FF 7F 73 30 31 33 01 80  4A 0D 21 03 01 0C 21 03  ..s013..J.!...!.
0DC0: 01 4A 0C 21 03 01 0D 21  03 01 1C 0E 80 4A 0B 21  .J.!...!.....J.!
0DD0: 03 01 0C 21 03 01 6E 0C  21 03 01 03 80 99 0C 21  ...!..n.!......!
0DE0: 03 01 2B 0C 21 03 01 42  80 23 4A 0D 21 03 01 0B  ..+.!..B.#J.!...
0DF0: 21 03 01 4A 0C 21 03 01  0B 21 03 01 52 04 80 F8  !..J.!...!..R...
0E00: FF FF 7F F8 FF FF 7F 73  30 31 33 45 04 80 F8 FF  .......s013E....
0E10: FF 7F F8 FF FF 7F 73 30  35 31 01 80 4A 0B 21 03  ......s051..J.!.
0E20: 01 0D 21 03 01 1C 07 80  6E 0B 21 03 01 1C 80 99  ..!.....n.!.....
0E30: 0B 21 03 01 2B 0B 21 03  01 43 80 23 52 04 80 F8  .!..+.!..C.#R...
0E40: FF FF 7F F8 FF FF 7F 73  30 35 31 45 04 80 F8 FF  .......s051E....
0E50: FF 7F F8 FF FF 7F 73 30  31 34 01 80 29 32 0C 21  ......s014..)2.!
0E60: 03 01 07 1C 07 80 4A 0C  21 03 01 0B 21 03 01 4A  ......J.!...!..J
0E70: 0B 21 03 01 0C 21 03 01  4A 0D 21 03 01 0C 21 03  .!...!..J.!...!.
0E80: 01 66 10 80 0C 21 03 01  0C 21 03 01 74 6C 6B 30  .f...!...!..tlk0
0E90: 2B 0C 21 03 01 44 80 23  66 10 80 0C 21 03 01 0C  +.!..D.#f...!...
0EA0: 21 03 01 74 6C 6B 31 52  04 80 F8 FF FF 7F F8 FF  !..tlk1R........
0EB0: FF 7F 73 30 31 34 45 04  80 F8 FF FF 7F F8 FF FF  ..s014E.........
0EC0: 7F 73 30 35 30 01 80 29  32 0D 21 03 01 09 1C 07  .s050..)2.!.....
0ED0: 80 4A 0D 21 03 01 0B 21  03 01 4A 0B 21 03 01 0D  .J.!...!..J.!...
0EE0: 21 03 01 66 10 80 0D 21  03 01 0D 21 03 01 74 6C  !..f...!...!..tl
0EF0: 6B 30 2B 0D 21 03 01 45  80 23 66 10 80 0D 21 03  k0+.!..E.#f...!.
0F00: 01 0D 21 03 01 74 6C 6B  31 52 04 80 F8 FF FF 7F  ..!..tlk1R......
0F10: F8 FF FF 7F 73 30 35 30  45 04 80 F8 FF FF 7F F8  ....s050E.......
0F20: FF FF 7F 73 30 31 35 01  80 1C 1F 80 4B 0B 21 03  ...s015.....K.!.
0F30: 01 46 80 1C 1F 80 4A 0B  21 03 01 0C 21 03 01 4B  .F....J.!...!..K
0F40: 0B 21 03 01 46 80 66 10  80 0B 21 03 01 0B 21 03  .!..F.f...!...!.
0F50: 01 74 6C 6B 30 2B 0B 21  03 01 47 80 23 66 10 80  .tlk0+.!..G.#f..
0F60: 0B 21 03 01 0B 21 03 01  74 6C 6B 31 52 04 80 F8  .!...!..tlk1R...
0F70: FF FF 7F F8 FF FF 7F 73  30 31 35 45 04 80 F8 FF  .......s015E....
0F80: FF 7F F8 FF FF 7F 73 30  35 32 01 80 1C 1F 80 4A  ......s052.....J
0F90: 0B 21 03 01 0D 21 03 01  4B 0B 21 03 01 46 80 6E  .!...!..K.!..F.n
0FA0: 0D 21 03 01 34 80 99 0D  21 03 01 1C 0E 80 6E 0C  .!..4...!.....n.
0FB0: 21 03 01 34 80 99 0C 21  03 01 1C 0F 80 6E 0B 21  !..4...!.....n.!
0FC0: 03 01 34 80 99 0B 21 03  01 1C 06 80 27 32 0D 21  ..4...!.....'2.!
0FD0: 03 01 03 1C 1F 80 27 32  0C 21 03 01 03 1C 14 80  ......'2.!......
0FE0: 4E 01 0C 21 03 01 4E 01  0D 21 03 01 52 04 80 F8  N..!..N..!..R...
0FF0: FF FF 7F F8 FF FF 7F 73  30 35 32 45 04 80 F8 FF  .......s052E....
1000: FF 7F F8 FF FF 7F 73 30  35 33 01 80 4A 0B 21 03  ......s053..J.!.
1010: 01 F0 FF FF 7F 1C 07 80  6E 0B 21 03 01 48 80 99  ........n.!..H..
1020: 0B 21 03 01 1C 3D 80 27  32 0B 21 03 01 06 1C 1F  .!...=.'2.!.....
1030: 80 52 04 80 F8 FF FF 7F  F8 FF FF 7F 73 30 35 33  .R..........s053
1040: 45 04 80 F8 FF FF 7F F8  FF FF 7F 73 30 31 36 01  E..........s016.
1050: 80 5B 0C 80 2D 21 03 01  2D 21 03 01 74 6C 6B 30  .[..-!..-!..tlk0
1060: 2B 2D 21 03 01 49 80 5B  0C 80 2D 21 03 01 2D 21  +-!..I.[..-!..-!
1070: 03 01 74 6C 6B 31 55 04  80 F8 FF FF 7F F8 FF FF  ..tlk1U.........
1080: 7F 73 30 31 36 45 04 80  F8 FF FF 7F F8 FF FF 7F  .s016E..........
1090: 73 30 31 37 01 80 2B 0B  21 03 01 4A 80 29 32 0B  s017..+.!..J.)2.
10A0: 21 03 01 07 52 04 80 F8  FF FF 7F F8 FF FF 7F 73  !...R..........s
10B0: 30 31 37 45 04 80 F8 FF  FF 7F F8 FF FF 7F 73 30  017E..........s0
10C0: 35 34 01 80 5B 0C 80 2D  21 03 01 2D 21 03 01 74  54..[..-!..-!..t
10D0: 6C 6B 30 2B 2D 21 03 01  4B 80 23 5B 0C 80 2D 21  lk0+-!..K.#[..-!
10E0: 03 01 2D 21 03 01 74 6C  6B 31 52 04 80 F8 FF FF  ..-!..tlk1R.....
10F0: 7F F8 FF FF 7F 73 30 35  34 45 04 80 F8 FF FF 7F  .....s054E......
1100: F8 FF FF 7F 73 30 35 35  01 80 2B 0B 21 03 01 4C  ....s055..+.!..L
1110: 80 23 2B 0B 21 03 01 4D  80 23 52 04 80 F8 FF FF  .#+.!..M.#R.....
1120: 7F F8 FF FF 7F 73 30 35  35 45 04 80 F8 FF FF 7F  .....s055E......
1130: F8 FF FF 7F 73 30 35 36  01 80 6E 0B 21 03 01 4E  ....s056..n.!..N
1140: 80 99 0B 21 03 01 2B 0B  21 03 01 4F 80 1C 3D 80  ...!..+.!..O..=.
1150: 52 04 80 F8 FF FF 7F F8  FF FF 7F 73 30 35 36 45  R..........s056E
1160: 04 80 F8 FF FF 7F F8 FF  FF 7F 73 30 35 37 01 80  ..........s057..
1170: 6E 0B 21 03 01 03 80 99  0B 21 03 01 2B 0B 21 03  n.!......!..+.!.
1180: 01 50 80 23 1C 07 80 52  04 80 F8 FF FF 7F F8 FF  .P.#...R........
1190: FF 7F 73 30 35 37 45 04  80 F8 FF FF 7F F8 FF FF  ..s057E.........
11A0: 7F 73 30 35 39 01 80 2B  0B 21 03 01 51 80 23 1C  .s059..+.!..Q.#.
11B0: 07 80 6E 0B 21 03 01 11  80 99 0B 21 03 01 2B 0B  ..n.!......!..+.
11C0: 21 03 01 52 80 23 52 04  80 F8 FF FF 7F F8 FF FF  !..R.#R.........
11D0: 7F 73 30 35 39 45 04 80  F8 FF FF 7F F8 FF FF 7F  .s059E..........
11E0: 73 30 31 38 01 80 4A 0B  21 03 01 2D 21 03 01 4A  s018..J.!..-!..J
11F0: 0D 21 03 01 2D 21 03 01  4A 0C 21 03 01 2D 21 03  .!..-!..J.!..-!.
1200: 01 5B 0C 80 2D 21 03 01  2D 21 03 01 74 6C 6B 30  .[..-!..-!..tlk0
1210: 2B 2D 21 03 01 53 80 23  52 04 80 F8 FF FF 7F F8  +-!..S.#R.......
1220: FF FF 7F 73 30 31 38 45  04 80 F8 FF FF 7F F8 FF  ...s018E........
1230: FF 7F 73 30 36 30 01 80  5B 0C 80 2D 21 03 01 2D  ..s060..[..-!..-
1240: 21 03 01 74 6C 6B 31 4A  2D 21 03 01 F0 FF FF 7F  !..tlk1J-!......
1250: 1C 07 80 4A F0 FF FF 7F  2D 21 03 01 5B 0C 80 2D  ...J....-!..[..-
1260: 21 03 01 2D 21 03 01 74  6C 6B 30 2B 2D 21 03 01  !..-!..tlk0+-!..
1270: 54 80 23 5B 0C 80 2D 21  03 01 2D 21 03 01 74 6C  T.#[..-!..-!..tl
1280: 6B 31 4A 0B 21 03 01 F0  FF FF 7F 1C 07 80 4A 0D  k1J.!.........J.
1290: 21 03 01 F0 FF FF 7F 1C  0F 80 4A 0C 21 03 01 F0  !.........J.!...
12A0: FF FF 7F 6E F0 FF FF 7F  34 80 99 F0 FF FF 7F 52  ...n....4......R
12B0: 04 80 F8 FF FF 7F F8 FF  FF 7F 73 30 36 30 45 04  ..........s060E.
12C0: 80 F8 FF FF 7F F8 FF FF  7F 73 30 31 39 01 80 1C  .........s019...
12D0: 1F 80 4A 2D 21 03 01 0B  21 03 01 4A F0 FF FF 7F  ..J-!...!..J....
12E0: 0B 21 03 01 2B 0B 21 03  01 55 80 23 52 04 80 F8  .!..+.!..U.#R...
12F0: FF FF 7F F8 FF FF 7F 73  30 31 39 45 04 80 F8 FF  .......s019E....
1300: FF 7F F8 FF FF 7F 73 31  31 35 01 80 27 32 0B 21  ......s115..'2.!
1310: 03 01 08 1C 1F 80 52 04  80 F8 FF FF 7F F8 FF FF  ......R.........
1320: 7F 73 31 31 35 45 04 80  F8 FF FF 7F F8 FF FF 7F  .s115E..........
1330: 73 30 36 34 01 80 79 00  0A 21 03 01 0B 21 03 01  s064..y..!...!..
1340: 1C 56 80 52 04 80 F8 FF  FF 7F F8 FF FF 7F 73 30  .V.R..........s0
1350: 36 34 45 04 80 F8 FF FF  7F F8 FF FF 7F 73 30 36  64E..........s06
1360: 35 01 80 1C 06 80 7B 0A  21 03 01 1C 14 80 52 04  5.....{.!.....R.
1370: 80 F8 FF FF 7F F8 FF FF  7F 73 30 36 35 45 00 80  .........s065E..
1380: F8 FF FF 7F F8 FF FF 7F  66 64 6F 31 01 80 55 00  ........fdo1..U.
1390: 80 F8 FF FF 7F F8 FF FF  7F 66 64 6F 31 1C 07 80  .........fdo1...
13A0: 46 00 45 00 80 F8 FF FF  7F F8 FF FF 7F 66 64 69  F.E..........fdi
13B0: 32 01 80 21 00                                    2..!.           
```

#### Opcodes

```
  0: 0x0001 [0x42] SET_CLI_EVENT_CANCEL_DATA()
  1: 0x0002 [0x45] LOAD_SCHEDULED_TASK: Load scheduler "fdo1" with entities [EventEntity, EventEntity], work=[200*, 0*]
  2: 0x0013 [0x55] WAIT_LOAD_SCHEDULER: Wait for scheduler "fdo1" with entities [EventEntity, EventEntity], work=200*
  3: 0x0022 [0x46] CAMERA_CONTROL: Disable user control
  4: 0x0024 [0x38] SET_CLIENT_EVENT_MODE(mode=19*)
  5: 0x0027 [0x29] REQ_SET_WAIT(priority=0x0A, entity_id=LocalPlayer, tag_num=0x78)
  6: 0x002E [0x92] Mhasbaf (ID: 16982317/0x0103212D)->Render.Flags3 ^= 0x01
  7: 0x0034 [0x92] Faihal (ID: 16982282/0x0103210A)->Render.Flags3 ^= 0x01
  8: 0x003A [0x92] Bernahn (ID: 16982281/0x01032109)->Render.Flags3 ^= 0x01
  9: 0x0040 [0x92] Galiwao (ID: 16982283/0x0103210B)->Render.Flags3 ^= 0x01
 10: 0x0046 [0x92] Kobdyu (ID: 16982284/0x0103210C)->Render.Flags3 ^= 0x01
 11: 0x004C [0x92] Deminza (ID: 16982285/0x0103210D)->Render.Flags3 ^= 0x01
 12: 0x0052 [0x80] LOAD_WAIT(entity=LocalPlayer)
 13: 0x0057 [0x80] LOAD_WAIT(entity=Faihal (ID: 16982282/0x0103210A))
 14: 0x005C [0x80] LOAD_WAIT(entity=Bernahn (ID: 16982281/0x01032109))
 15: 0x0061 [0x80] LOAD_WAIT(entity=Galiwao (ID: 16982283/0x0103210B))
 16: 0x0066 [0x80] LOAD_WAIT(entity=Kobdyu (ID: 16982284/0x0103210C))
 17: 0x006B [0x80] LOAD_WAIT(entity=Deminza (ID: 16982285/0x0103210D))
 18: 0x0070 [0x80] LOAD_WAIT(entity=Mhasbaf (ID: 16982317/0x0103212D))
 19: 0x0075 [0x4E] SET_ENTITY_HIDE_FLAG: Show LocalPlayer
 20: 0x007B [0x4E] SET_ENTITY_HIDE_FLAG: Show Galiwao (ID: 16982283/0x0103210B)
 21: 0x0081 [0x4E] SET_ENTITY_HIDE_FLAG: Hide Kobdyu (ID: 16982284/0x0103210C)
 22: 0x0087 [0x4E] SET_ENTITY_HIDE_FLAG: Hide Deminza (ID: 16982285/0x0103210D)
 23: 0x008D [0x4E] SET_ENTITY_HIDE_FLAG: Show Mhasbaf (ID: 16982317/0x0103212D)
 24: 0x0093 [0x4E] SET_ENTITY_HIDE_FLAG: Show Faihal (ID: 16982282/0x0103210A)
 25: 0x0099 [0x4E] SET_ENTITY_HIDE_FLAG: Show Bernahn (ID: 16982281/0x01032109)
 26: 0x009F [0x03] Work_Zone[2] = (LocalPlayer->Render.Flags01 >> 25) & 1
 27: 0x00A4 [0x66] LOAD_EXT_SCHEDULER_MAIN: Load scheduler "sha0" with entities [Bernahn (ID: 16982281/0x01032109), Bernahn (ID: 16982281/0x01032109)], work=29*
 28: 0x00B3 [0x79] Bernahn (ID: 16982281/0x01032109) looks at Faihal (ID: 16982282/0x0103210A) (Basic look)
 29: 0x00BD [0x29] REQ_SET_WAIT(priority=0x32, entity_id=Galiwao (ID: 16982283/0x0103210B), tag_num=0x02)
 30: 0x00C4 [0x29] REQ_SET_WAIT(priority=0x32, entity_id=Kobdyu (ID: 16982284/0x0103210C), tag_num=0x02)
 31: 0x00CB [0x29] REQ_SET_WAIT(priority=0x32, entity_id=Deminza (ID: 16982285/0x0103210D), tag_num=0x02)
 32: 0x00D2 [0x29] REQ_SET_WAIT(priority=0x32, entity_id=Bernahn (ID: 16982281/0x01032109), tag_num=0x02)
 33: 0x00D9 [0x29] REQ_SET_WAIT(priority=0x32, entity_id=Faihal (ID: 16982282/0x0103210A), tag_num=0x02)
 34: 0x00E0 [0x45] LOAD_SCHEDULED_TASK: Load scheduler "fdi1" with entities [EventEntity, EventEntity], work=[200*, 0*]
 35: 0x00F1 [0x45] LOAD_SCHEDULED_TASK: Load scheduler "s000" with entities [EventEntity, EventEntity], work=[280*, 0*]
 36: 0x0102 [0x1C] WAIT(360* ticks)
 37: 0x0105 [0x52] END_LOAD_SCHEDULER: End scheduler "s000" with entities [EventEntity, EventEntity], work=280*
 38: 0x0114 [0x45] LOAD_SCHEDULED_TASK: Load scheduler "s001" with entities [EventEntity, EventEntity], work=[280*, 0*]
 39: 0x0125 [0x1C] WAIT(120* ticks)
 40: 0x0128 [0x52] END_LOAD_SCHEDULER: End scheduler "s001" with entities [EventEntity, EventEntity], work=280*
 41: 0x0137 [0x45] LOAD_SCHEDULED_TASK: Load scheduler "s021" with entities [EventEntity, EventEntity], work=[280*, 0*]
 42: 0x0148 [0x1C] WAIT(30* ticks)
 43: 0x014B [0x4B] UPDATE_ENTITY_YAW(entity=Mhasbaf (ID: 16982317/0x0103212D), yaw=16.5°*)
 44: 0x0152 [0x1C] WAIT(30* ticks)
 45: 0x0155 [0x2B] Mhasbaf (ID: 16982317/0x0103212D) [5235*]:
    → "All is well on the northern front!\u007F1\u0000\u0007"
 46: 0x015C [0x23] WAIT_FOR_DIALOG_INTERACTION
 47: 0x015D [0x4B] UPDATE_ENTITY_YAW(entity=Mhasbaf (ID: 16982317/0x0103212D), yaw=4.9°*)
 48: 0x0164 [0x2B] Mhasbaf (ID: 16982317/0x0103212D) [5236*]:
    → "All is well on the southern front!\u007F1\u0000\u0007"
 49: 0x016B [0x23] WAIT_FOR_DIALOG_INTERACTION
 50: 0x016C [0x4A] Mhasbaf (ID: 16982317/0x0103212D) looks at Galiwao (ID: 16982283/0x0103210B)
 51: 0x0175 [0x5B] LOAD_EXT_SCHEDULER: Load scheduler "tlk0" with entities [Mhasbaf (ID: 16982317/0x0103212D), Mhasbaf (ID: 16982317/0x0103212D)], work=75*
 52: 0x0184 [0x2B] Mhasbaf (ID: 16982317/0x0103212D) [5237*]:
    → "Hm?\u0000\u0007"
 53: 0x018B [0x5B] LOAD_EXT_SCHEDULER: Load scheduler "tlk1" with entities [Mhasbaf (ID: 16982317/0x0103212D), Mhasbaf (ID: 16982317/0x0103212D)], work=75*
 54: 0x019A [0x52] END_LOAD_SCHEDULER: End scheduler "s021" with entities [EventEntity, EventEntity], work=280*
 55: 0x01A9 [0x45] LOAD_SCHEDULED_TASK: Load scheduler "s002" with entities [EventEntity, EventEntity], work=[280*, 0*]
 56: 0x01BA [0x4E] SET_ENTITY_HIDE_FLAG: Show Kobdyu (ID: 16982284/0x0103210C)
 57: 0x01C0 [0x4E] SET_ENTITY_HIDE_FLAG: Show Deminza (ID: 16982285/0x0103210D)
 58: 0x01C6 [0x27] REQ_SET(priority=0x32, entity_id=Galiwao (ID: 16982283/0x0103210B), tag_num=0x04)
 59: 0x01CD [0x1C] WAIT(10* ticks)
 60: 0x01D0 [0x27] REQ_SET(priority=0x32, entity_id=Kobdyu (ID: 16982284/0x0103210C), tag_num=0x03)
 61: 0x01D7 [0x1C] WAIT(30* ticks)
 62: 0x01DA [0x29] REQ_SET_WAIT(priority=0x32, entity_id=Deminza (ID: 16982285/0x0103210D), tag_num=0x03)
 63: 0x01E1 [0x4A] Deminza (ID: 16982285/0x0103210D) looks at Kobdyu (ID: 16982284/0x0103210C)
 64: 0x01EA [0x1C] WAIT(20* ticks)
 65: 0x01ED [0x4A] Kobdyu (ID: 16982284/0x0103210C) looks at Deminza (ID: 16982285/0x0103210D)
 66: 0x01F6 [0x66] LOAD_EXT_SCHEDULER_MAIN: Load scheduler "tlk0" with entities [Deminza (ID: 16982285/0x0103210D), Deminza (ID: 16982285/0x0103210D)], work=69*
 67: 0x0205 [0x6E] Kobdyu (ID: 16982284/0x0103210C) uses emote 6*
 68: 0x020C [0x99] Wait for Kobdyu (ID: 16982284/0x0103210C) animation to complete
 69: 0x0211 [0x52] END_LOAD_SCHEDULER: End scheduler "s002" with entities [EventEntity, EventEntity], work=280*
 70: 0x0220 [0x45] LOAD_SCHEDULED_TASK: Load scheduler "s003" with entities [EventEntity, EventEntity], work=[280*, 0*]
 71: 0x0231 [0x1C] WAIT(30* ticks)
 72: 0x0234 [0x4A] LocalPlayer looks at Galiwao (ID: 16982283/0x0103210B)
 73: 0x023D [0x66] LOAD_EXT_SCHEDULER_MAIN: Load scheduler "tlk1" with entities [Deminza (ID: 16982285/0x0103210D), Deminza (ID: 16982285/0x0103210D)], work=69*
 74: 0x024C [0x6E] Galiwao (ID: 16982283/0x0103210B) uses emote 12*
 75: 0x0253 [0x99] Wait for Galiwao (ID: 16982283/0x0103210B) animation to complete
 76: 0x0258 [0x2B] Galiwao (ID: 16982283/0x0103210B) [5238*]:
    → "Was your search successful?\u007F1\u0000\u0007"
 77: 0x025F [0x23] WAIT_FOR_DIALOG_INTERACTION
 78: 0x0260 [0x66] LOAD_EXT_SCHEDULER_MAIN: Load scheduler "tlk0" with entities [Deminza (ID: 16982285/0x0103210D), Deminza (ID: 16982285/0x0103210D)], work=69*
 79: 0x026F [0x4A] Galiwao (ID: 16982283/0x0103210B) looks at Kobdyu (ID: 16982284/0x0103210C)
 80: 0x0278 [0x4A] Kobdyu (ID: 16982284/0x0103210C) looks at Galiwao (ID: 16982283/0x0103210B)
 81: 0x0281 [0x1C] WAIT(10* ticks)
 82: 0x0284 [0x4A] Deminza (ID: 16982285/0x0103210D) looks at Galiwao (ID: 16982283/0x0103210B)
 83: 0x028D [0x27] REQ_SET(priority=0x32, entity_id=Kobdyu (ID: 16982284/0x0103210C), tag_num=0x04)
 84: 0x0294 [0x1C] WAIT(30* ticks)
 85: 0x0297 [0x27] REQ_SET(priority=0x32, entity_id=Deminza (ID: 16982285/0x0103210D), tag_num=0x04)
 86: 0x029E [0x1C] WAIT(30* ticks)
 87: 0x02A1 [0x52] END_LOAD_SCHEDULER: End scheduler "s003" with entities [EventEntity, EventEntity], work=280*
 88: 0x02B0 [0x45] LOAD_SCHEDULED_TASK: Load scheduler "s004" with entities [EventEntity, EventEntity], work=[280*, 0*]
 89: 0x02C1 [0x1C] WAIT(240* ticks)
 90: 0x02C4 [0x52] END_LOAD_SCHEDULER: End scheduler "s004" with entities [EventEntity, EventEntity], work=280*
 91: 0x02D3 [0x45] LOAD_SCHEDULED_TASK: Load scheduler "s035" with entities [EventEntity, EventEntity], work=[280*, 0*]
 92: 0x02E4 [0x2B] Kobdyu (ID: 16982284/0x0103210C) [5239*]:
    → "No, I've looked into every nook and cranny, but still no sign...\u007F1\u0000\u0007"
 93: 0x02EB [0x23] WAIT_FOR_DIALOG_INTERACTION
 94: 0x02EC [0x52] END_LOAD_SCHEDULER: End scheduler "s035" with entities [EventEntity, EventEntity], work=280*
 95: 0x02FB [0x45] LOAD_SCHEDULED_TASK: Load scheduler "s023" with entities [EventEntity, EventEntity], work=[280*, 0*]
 96: 0x030C [0x4A] Galiwao (ID: 16982283/0x0103210B) looks at Deminza (ID: 16982285/0x0103210D)
 97: 0x0315 [0x6E] Deminza (ID: 16982285/0x0103210D) uses emote 6*
 98: 0x031C [0x99] Wait for Deminza (ID: 16982285/0x0103210D) animation to complete
 99: 0x0321 [0x2B] Deminza (ID: 16982285/0x0103210D) [5240*]:
    → "Nothin' here either!\u007F1\u0000\u0007"
100: 0x0328 [0x23] WAIT_FOR_DIALOG_INTERACTION
101: 0x0329 [0x52] END_LOAD_SCHEDULER: End scheduler "s023" with entities [EventEntity, EventEntity], work=280*
102: 0x0338 [0x45] LOAD_SCHEDULED_TASK: Load scheduler "s024" with entities [EventEntity, EventEntity], work=[280*, 0*]
103: 0x0349 [0x4A] Galiwao (ID: 16982283/0x0103210B) looks at Kobdyu (ID: 16982284/0x0103210C)
104: 0x0352 [0x4A] Deminza (ID: 16982285/0x0103210D) looks at Galiwao (ID: 16982283/0x0103210B)
105: 0x035B [0x1C] WAIT(30* ticks)
106: 0x035E [0x6F] WAIT_FRAME_DELAY: Yield until WaitTime reaches zero
107: 0x035F [0x76] CHECK_ENTITY_RENDER_FLAGS: Wait until Deminza (ID: 16982285/0x0103210D) Render.Flags0 and Render.Flags3 conditions are met
108: 0x0364 [0x6E] Kobdyu (ID: 16982284/0x0103210C) uses emote 19*
109: 0x036B [0x99] Wait for Kobdyu (ID: 16982284/0x0103210C) animation to complete
110: 0x0370 [0x2B] Kobdyu (ID: 16982284/0x0103210C) [5241*]:
    → "Do you think...\u0007Do you think we're dealing with a kidnapper?\u007F1\u0000\u0007"
111: 0x0377 [0x23] WAIT_FOR_DIALOG_INTERACTION
112: 0x0378 [0x52] END_LOAD_SCHEDULER: End scheduler "s024" with entities [EventEntity, EventEntity], work=280*
113: 0x0387 [0x45] LOAD_SCHEDULED_TASK: Load scheduler "s025" with entities [EventEntity, EventEntity], work=[280*, 0*]
114: 0x0398 [0x6E] Kobdyu (ID: 16982284/0x0103210C) uses emote 6*
115: 0x039F [0x99] Wait for Kobdyu (ID: 16982284/0x0103210C) animation to complete
116: 0x03A4 [0x2B] Kobdyu (ID: 16982284/0x0103210C) [5242*]:
    → "Oh dear, oh dear...\u0007What if...what if our benefactor is tied up somewhere!? Or being tortured!?\u007F1\u0000\u0007"
117: 0x03AB [0x23] WAIT_FOR_DIALOG_INTERACTION
118: 0x03AC [0x4A] Deminza (ID: 16982285/0x0103210D) looks at Kobdyu (ID: 16982284/0x0103210C)
119: 0x03B5 [0x52] END_LOAD_SCHEDULER: End scheduler "s025" with entities [EventEntity, EventEntity], work=280*
120: 0x03C4 [0x45] LOAD_SCHEDULED_TASK: Load scheduler "s026" with entities [EventEntity, EventEntity], work=[280*, 0*]
121: 0x03D5 [0x4A] Kobdyu (ID: 16982284/0x0103210C) looks at Deminza (ID: 16982285/0x0103210D)
122: 0x03DE [0x6F] WAIT_FRAME_DELAY: Yield until WaitTime reaches zero
123: 0x03DF [0x76] CHECK_ENTITY_RENDER_FLAGS: Wait until Deminza (ID: 16982285/0x0103210D) Render.Flags0 and Render.Flags3 conditions are met
124: 0x03E4 [0x6E] Deminza (ID: 16982285/0x0103210D) uses emote 25*
125: 0x03EB [0x99] Wait for Deminza (ID: 16982285/0x0103210D) animation to complete
126: 0x03F0 [0x2B] Deminza (ID: 16982285/0x0103210D) [5243*]:
    → "Why do you always gotta come up with the worst-case scenario?\u007F1\u0000\u0007"
127: 0x03F7 [0x23] WAIT_FOR_DIALOG_INTERACTION
128: 0x03F8 [0x52] END_LOAD_SCHEDULER: End scheduler "s026" with entities [EventEntity, EventEntity], work=280*
129: 0x0407 [0x45] LOAD_SCHEDULED_TASK: Load scheduler "s027" with entities [EventEntity, EventEntity], work=[280*, 0*]
130: 0x0418 [0x4A] Kobdyu (ID: 16982284/0x0103210C) looks at Galiwao (ID: 16982283/0x0103210B)
131: 0x0421 [0x1C] WAIT(10* ticks)
132: 0x0424 [0x6E] Kobdyu (ID: 16982284/0x0103210C) uses emote 19*
133: 0x042B [0x99] Wait for Kobdyu (ID: 16982284/0x0103210C) animation to complete
134: 0x0430 [0x2B] Kobdyu (ID: 16982284/0x0103210C) [5244*]:
    → "But...but...\u007F1\u0000\u0007"
135: 0x0437 [0x23] WAIT_FOR_DIALOG_INTERACTION
136: 0x0438 [0x1C] WAIT(30* ticks)
137: 0x043B [0x6E] Galiwao (ID: 16982283/0x0103210B) uses emote 32*
138: 0x0442 [0x99] Wait for Galiwao (ID: 16982283/0x0103210B) animation to complete
139: 0x0447 [0x52] END_LOAD_SCHEDULER: End scheduler "s027" with entities [EventEntity, EventEntity], work=280*
140: 0x0456 [0x45] LOAD_SCHEDULED_TASK: Load scheduler "s028" with entities [EventEntity, EventEntity], work=[280*, 0*]
141: 0x0467 [0x1C] WAIT(300* ticks)
142: 0x046A [0x29] REQ_SET_WAIT(priority=0x32, entity_id=Mhasbaf (ID: 16982317/0x0103212D), tag_num=0x07)
143: 0x0471 [0x52] END_LOAD_SCHEDULER: End scheduler "s028" with entities [EventEntity, EventEntity], work=280*
144: 0x0480 [0x45] LOAD_SCHEDULED_TASK: Load scheduler "s005" with entities [EventEntity, EventEntity], work=[280*, 0*]
145: 0x0491 [0x4A] Mhasbaf (ID: 16982317/0x0103212D) looks at LocalPlayer
146: 0x049A [0x4A] LocalPlayer looks at Mhasbaf (ID: 16982317/0x0103212D)
147: 0x04A3 [0x1C] WAIT(30* ticks)
148: 0x04A6 [0x5B] LOAD_EXT_SCHEDULER: Load scheduler "thk1" with entities [Mhasbaf (ID: 16982317/0x0103212D), Mhasbaf (ID: 16982317/0x0103212D)], work=75*
149: 0x04B5 [0x53] WAIT_SCHEDULER_TASK: Wait for scheduler "thk1" with entities [Mhasbaf (ID: 16982317/0x0103212D), Mhasbaf (ID: 16982317/0x0103212D)]
150: 0x04C2 [0x1C] WAIT(30* ticks)
151: 0x04C5 [0x2B] Mhasbaf (ID: 16982317/0x0103212D) [5245*]:
    → "Did you hear that, \u000C\u0000[Miss/Mister] Adventurer?\u0007This is like a scene from one of those detective stories!\u007F1\u0000\u0007"
152: 0x04CC [0x23] WAIT_FOR_DIALOG_INTERACTION
153: 0x04CD [0x1C] WAIT(30* ticks)
154: 0x04D0 [0x5B] LOAD_EXT_SCHEDULER: Load scheduler "thk2" with entities [Mhasbaf (ID: 16982317/0x0103212D), Mhasbaf (ID: 16982317/0x0103212D)], work=75*
155: 0x04DF [0x53] WAIT_SCHEDULER_TASK: Wait for scheduler "thk2" with entities [Mhasbaf (ID: 16982317/0x0103212D), Mhasbaf (ID: 16982317/0x0103212D)]
156: 0x04EC [0x4A] Deminza (ID: 16982285/0x0103210D) looks at LocalPlayer
157: 0x04F5 [0x1C] WAIT(60* ticks)
158: 0x04F8 [0x52] END_LOAD_SCHEDULER: End scheduler "s005" with entities [EventEntity, EventEntity], work=280*
159: 0x0507 [0x45] LOAD_SCHEDULED_TASK: Load scheduler "s029" with entities [EventEntity, EventEntity], work=[280*, 0*]
160: 0x0518 [0x6E] Deminza (ID: 16982285/0x0103210D) uses emote 0*
161: 0x051F [0x99] Wait for Deminza (ID: 16982285/0x0103210D) animation to complete
162: 0x0524 [0x2B] Deminza (ID: 16982285/0x0103210D) [5246*]:
    → "You two!\u0000\u0007"
163: 0x052B [0x55] WAIT_LOAD_SCHEDULER: Wait for scheduler "s029" with entities [EventEntity, EventEntity], work=280*
164: 0x053A [0x45] LOAD_SCHEDULED_TASK: Load scheduler "s032" with entities [EventEntity, EventEntity], work=[280*, 0*]
165: 0x054B [0x1C] WAIT(30* ticks)
166: 0x054E [0x4A] Mhasbaf (ID: 16982317/0x0103212D) looks at Kobdyu (ID: 16982284/0x0103210C)
167: 0x0557 [0x4A] LocalPlayer looks at Kobdyu (ID: 16982284/0x0103210C)
168: 0x0560 [0x1C] WAIT(40* ticks)
169: 0x0563 [0x52] END_LOAD_SCHEDULER: End scheduler "s032" with entities [EventEntity, EventEntity], work=280*
170: 0x0572 [0x27] REQ_SET(priority=0x32, entity_id=Kobdyu (ID: 16982284/0x0103210C), tag_num=0x06)
171: 0x0579 [0x1C] WAIT(30* ticks)
172: 0x057C [0x27] REQ_SET(priority=0x32, entity_id=Deminza (ID: 16982285/0x0103210D), tag_num=0x05)
173: 0x0583 [0x1C] WAIT(60* ticks)
174: 0x0586 [0x45] LOAD_SCHEDULED_TASK: Load scheduler "s006" with entities [EventEntity, EventEntity], work=[280*, 0*]
175: 0x0597 [0x4A] Mhasbaf (ID: 16982317/0x0103212D) looks at Deminza (ID: 16982285/0x0103210D)
176: 0x05A0 [0x1C] WAIT(30* ticks)
177: 0x05A3 [0x4A] Galiwao (ID: 16982283/0x0103210B) looks at Deminza (ID: 16982285/0x0103210D)
178: 0x05AC [0x1C] WAIT(90* ticks)
179: 0x05AF [0x4A] Deminza (ID: 16982285/0x0103210D) looks at LocalPlayer
180: 0x05B8 [0x4A] Kobdyu (ID: 16982284/0x0103210C) looks at LocalPlayer
181: 0x05C1 [0x1C] WAIT(30* ticks)
182: 0x05C4 [0x52] END_LOAD_SCHEDULER: End scheduler "s006" with entities [EventEntity, EventEntity], work=280*
183: 0x05D3 [0x45] LOAD_SCHEDULED_TASK: Load scheduler "s030" with entities [EventEntity, EventEntity], work=[280*, 0*]
184: 0x05E4 [0x66] LOAD_EXT_SCHEDULER_MAIN: Load scheduler "tlk0" with entities [Deminza (ID: 16982285/0x0103210D), Deminza (ID: 16982285/0x0103210D)], work=69*
185: 0x05F3 [0x2B] Deminza (ID: 16982285/0x0103210D) [5247*]:
    → "We got some questions to ask you!\u007F1\u0000\u0007"
186: 0x05FA [0x23] WAIT_FOR_DIALOG_INTERACTION
187: 0x05FB [0x66] LOAD_EXT_SCHEDULER_MAIN: Load scheduler "tlk1" with entities [Deminza (ID: 16982285/0x0103210D), Deminza (ID: 16982285/0x0103210D)], work=69*
188: 0x060A [0x52] END_LOAD_SCHEDULER: End scheduler "s030" with entities [EventEntity, EventEntity], work=280*
189: 0x0619 [0x45] LOAD_SCHEDULED_TASK: Load scheduler "s031" with entities [EventEntity, EventEntity], work=[280*, 0*]
190: 0x062A [0x79] Deminza (ID: 16982285/0x0103210D) looks at Mhasbaf (ID: 16982317/0x0103212D) (Basic look)
191: 0x0634 [0x5B] LOAD_EXT_SCHEDULER: Load scheduler "tlk0" with entities [Mhasbaf (ID: 16982317/0x0103212D), Mhasbaf (ID: 16982317/0x0103212D)], work=75*
192: 0x0643 [0x2B] Mhasbaf (ID: 16982317/0x0103212D) [5248*]:
    → "Ahem. How may I be of service?\u0007Need a keen eye? A strong arm?\u0007I'm your boy! Ah, I mean, man!\u007F1\u0000\u0007"
193: 0x064A [0x23] WAIT_FOR_DIALOG_INTERACTION
194: 0x064B [0x5B] LOAD_EXT_SCHEDULER: Load scheduler "tlk1" with entities [Mhasbaf (ID: 16982317/0x0103212D), Mhasbaf (ID: 16982317/0x0103212D)], work=75*
195: 0x065A [0x52] END_LOAD_SCHEDULER: End scheduler "s031" with entities [EventEntity, EventEntity], work=280*
196: 0x0669 [0x45] LOAD_SCHEDULED_TASK: Load scheduler "s033" with entities [EventEntity, EventEntity], work=[280*, 0*]
197: 0x067A [0x4A] Mhasbaf (ID: 16982317/0x0103212D) looks at Kobdyu (ID: 16982284/0x0103210C)
198: 0x0683 [0x4A] Kobdyu (ID: 16982284/0x0103210C) looks at Mhasbaf (ID: 16982317/0x0103212D)
199: 0x068C [0x1C] WAIT(30* ticks)
200: 0x068F [0x66] LOAD_EXT_SCHEDULER_MAIN: Load scheduler "tlk0" with entities [Kobdyu (ID: 16982284/0x0103210C), Kobdyu (ID: 16982284/0x0103210C)], work=69*
201: 0x069E [0x2B] Kobdyu (ID: 16982284/0x0103210C) [5249*]:
    → "Oh! Um, have you...have you seen our benefactor anywhere?\u007F1\u0000\u0007"
202: 0x06A5 [0x23] WAIT_FOR_DIALOG_INTERACTION
203: 0x06A6 [0x66] LOAD_EXT_SCHEDULER_MAIN: Load scheduler "tlk1" with entities [Kobdyu (ID: 16982284/0x0103210C), Kobdyu (ID: 16982284/0x0103210C)], work=69*
204: 0x06B5 [0x52] END_LOAD_SCHEDULER: End scheduler "s033" with entities [EventEntity, EventEntity], work=280*
205: 0x06C4 [0x45] LOAD_SCHEDULED_TASK: Load scheduler "s034" with entities [EventEntity, EventEntity], work=[280*, 0*]
206: 0x06D5 [0x6E] Galiwao (ID: 16982283/0x0103210B) uses emote 32*
207: 0x06DC [0x99] Wait for Galiwao (ID: 16982283/0x0103210B) animation to complete
208: 0x06E1 [0x2B] Galiwao (ID: 16982283/0x0103210B) [5250*]:
    → "I think we're getting ahead of ourselves here.\u007F1\u0000\u0007"
209: 0x06E8 [0x23] WAIT_FOR_DIALOG_INTERACTION
210: 0x06E9 [0x4A] Deminza (ID: 16982285/0x0103210D) looks at Galiwao (ID: 16982283/0x0103210B)
211: 0x06F2 [0x1C] WAIT(30* ticks)
212: 0x06F5 [0x4A] Kobdyu (ID: 16982284/0x0103210C) looks at Galiwao (ID: 16982283/0x0103210B)
213: 0x06FE [0x1C] WAIT(60* ticks)
214: 0x0701 [0x27] REQ_SET(priority=0x32, entity_id=Galiwao (ID: 16982283/0x0103210B), tag_num=0x05)
215: 0x0708 [0x4A] Kobdyu (ID: 16982284/0x0103210C) looks at Galiwao (ID: 16982283/0x0103210B)
216: 0x0711 [0x4A] Mhasbaf (ID: 16982317/0x0103212D) looks at Galiwao (ID: 16982283/0x0103210B)
217: 0x071A [0x4A] LocalPlayer looks at Galiwao (ID: 16982283/0x0103210B)
218: 0x0723 [0x52] END_LOAD_SCHEDULER: End scheduler "s034" with entities [EventEntity, EventEntity], work=280*
219: 0x0732 [0x45] LOAD_SCHEDULED_TASK: Load scheduler "s006" with entities [EventEntity, EventEntity], work=[280*, 0*]
220: 0x0743 [0x27] REQ_SET(priority=0x32, entity_id=Deminza (ID: 16982285/0x0103210D), tag_num=0x06)
221: 0x074A [0x27] REQ_SET(priority=0x32, entity_id=Kobdyu (ID: 16982284/0x0103210C), tag_num=0x05)
222: 0x0751 [0x1C] WAIT(240* ticks)
223: 0x0754 [0x52] END_LOAD_SCHEDULER: End scheduler "s006" with entities [EventEntity, EventEntity], work=280*
224: 0x0763 [0x45] LOAD_SCHEDULED_TASK: Load scheduler "s007" with entities [EventEntity, EventEntity], work=[280*, 0*]
225: 0x0774 [0x1C] WAIT(60* ticks)
226: 0x0777 [0x4A] Galiwao (ID: 16982283/0x0103210B) looks at LocalPlayer
227: 0x0780 [0x2B] Galiwao (ID: 16982283/0x0103210B) [5251*]:
    → "Allow me to explain.\u0007As you probably overheard, we're looking for someone.\u007F1\u0000\u0007"
228: 0x0787 [0x23] WAIT_FOR_DIALOG_INTERACTION
229: 0x0788 [0x4A] Deminza (ID: 16982285/0x0103210D) looks at Galiwao (ID: 16982283/0x0103210B)
230: 0x0791 [0x2B] Galiwao (ID: 16982283/0x0103210B) [5252*]:
    → "You see, the owner of the mansion in which we work--our employer and dear benefactor--has gone missing.\u007F1\u0000\u0007"
231: 0x0798 [0x23] WAIT_FOR_DIALOG_INTERACTION
232: 0x0799 [0x1C] WAIT(90* ticks)
233: 0x079C [0x52] END_LOAD_SCHEDULER: End scheduler "s007" with entities [EventEntity, EventEntity], work=280*
234: 0x07AB [0x45] LOAD_SCHEDULED_TASK: Load scheduler "s008" with entities [EventEntity, EventEntity], work=[280*, 0*]
235: 0x07BC [0x6E] Galiwao (ID: 16982283/0x0103210B) uses emote 33*
236: 0x07C3 [0x99] Wait for Galiwao (ID: 16982283/0x0103210B) animation to complete
237: 0x07C8 [0x2B] Galiwao (ID: 16982283/0x0103210B) [5253*]:
    → "Building on the business of previous generations, our employer has become an incredible success, and quite well known in the Imperial Ward.\u007F1\u0000\u0007"
238: 0x07CF [0x23] WAIT_FOR_DIALOG_INTERACTION
239: 0x07D0 [0x66] LOAD_EXT_SCHEDULER_MAIN: Load scheduler "tlk0" with entities [Galiwao (ID: 16982283/0x0103210B), Galiwao (ID: 16982283/0x0103210B)], work=69*
240: 0x07DF [0x2B] Galiwao (ID: 16982283/0x0103210B) [5254*]:
    → "This eminent personage went for a stroll with one of our fellow retainers yesterday, but never returned to the mansion.\u0007We've been searching ever since.\u007F1\u0000\u0007"
241: 0x07E6 [0x23] WAIT_FOR_DIALOG_INTERACTION
242: 0x07E7 [0x52] END_LOAD_SCHEDULER: End scheduler "s008" with entities [EventEntity, EventEntity], work=280*
243: 0x07F6 [0x45] LOAD_SCHEDULED_TASK: Load scheduler "s062" with entities [EventEntity, EventEntity], work=[280*, 0*]
244: 0x0807 [0x2B] Galiwao (ID: 16982283/0x0103210B) [5255*]:
    → "Our most refined and courteous benefactor should be easy to spot amongst the rag-tag mercenary and adventurer population of Al Zahbi.\u007F1\u0000\u0007"
245: 0x080E [0x23] WAIT_FOR_DIALOG_INTERACTION
246: 0x080F [0x2B] Galiwao (ID: 16982283/0x0103210B) [5256*]:
    → "That piercing gaze, eyes shining like golden jewels...or perhaps lapis lazuli...or maybe more of a ruby sparkle...\u007F1\u0000\u0007"
247: 0x0816 [0x23] WAIT_FOR_DIALOG_INTERACTION
248: 0x0817 [0x66] LOAD_EXT_SCHEDULER_MAIN: Load scheduler "tlk1" with entities [Galiwao (ID: 16982283/0x0103210B), Galiwao (ID: 16982283/0x0103210B)], work=69*
249: 0x0826 [0x52] END_LOAD_SCHEDULER: End scheduler "s062" with entities [EventEntity, EventEntity], work=280*
250: 0x0835 [0x45] LOAD_SCHEDULED_TASK: Load scheduler "s037" with entities [EventEntity, EventEntity], work=[280*, 0*]
251: 0x0846 [0x4A] Kobdyu (ID: 16982284/0x0103210C) looks at Mhasbaf (ID: 16982317/0x0103212D)
252: 0x084F [0x1C] WAIT(30* ticks)
253: 0x0852 [0x66] LOAD_EXT_SCHEDULER_MAIN: Load scheduler "tlk0" with entities [Kobdyu (ID: 16982284/0x0103210C), Kobdyu (ID: 16982284/0x0103210C)], work=69*
254: 0x0861 [0x2B] Kobdyu (ID: 16982284/0x0103210C) [5258*]:
    → "Such a striking person should be very difficult to miss...\u007F1\u0000\u0007"
255: 0x0868 [0x23] WAIT_FOR_DIALOG_INTERACTION
256: 0x0869 [0x66] LOAD_EXT_SCHEDULER_MAIN: Load scheduler "tlk1" with entities [Kobdyu (ID: 16982284/0x0103210C), Kobdyu (ID: 16982284/0x0103210C)], work=69*
257: 0x0878 [0x4A] Galiwao (ID: 16982283/0x0103210B) looks at Mhasbaf (ID: 16982317/0x0103212D)
258: 0x0881 [0x52] END_LOAD_SCHEDULER: End scheduler "s037" with entities [EventEntity, EventEntity], work=280*
259: 0x0890 [0x45] LOAD_SCHEDULED_TASK: Load scheduler "s038" with entities [EventEntity, EventEntity], work=[280*, 0*]
260: 0x08A1 [0x5B] LOAD_EXT_SCHEDULER: Load scheduler "thk1" with entities [Mhasbaf (ID: 16982317/0x0103212D), Mhasbaf (ID: 16982317/0x0103212D)], work=75*
261: 0x08B0 [0x1C] WAIT(60* ticks)
262: 0x08B3 [0x4A] Galiwao (ID: 16982283/0x0103210B) looks at Mhasbaf (ID: 16982317/0x0103212D)
263: 0x08BC [0x4A] Deminza (ID: 16982285/0x0103210D) looks at Mhasbaf (ID: 16982317/0x0103212D)
264: 0x08C5 [0x4A] Kobdyu (ID: 16982284/0x0103210C) looks at Mhasbaf (ID: 16982317/0x0103212D)
265: 0x08CE [0x4A] LocalPlayer looks at Mhasbaf (ID: 16982317/0x0103212D)
266: 0x08D7 [0x2B] Mhasbaf (ID: 16982317/0x0103212D) [5259*]:
    → "Hmmm...\u0007That sounds kind of familiar...\u007F1\u0000\u0007"
267: 0x08DE [0x23] WAIT_FOR_DIALOG_INTERACTION
268: 0x08DF [0x52] END_LOAD_SCHEDULER: End scheduler "s038" with entities [EventEntity, EventEntity], work=280*
269: 0x08EE [0x45] LOAD_SCHEDULED_TASK: Load scheduler "s039" with entities [EventEntity, EventEntity], work=[280*, 0*]
270: 0x08FF [0x66] LOAD_EXT_SCHEDULER_MAIN: Load scheduler "tlk0" with entities [Deminza (ID: 16982285/0x0103210D), Deminza (ID: 16982285/0x0103210D)], work=69*
271: 0x090E [0x2B] Deminza (ID: 16982285/0x0103210D) [5260*]:
    → "Well!? Have you seen our boss or not!?\u007F1\u0000\u0007"
272: 0x0915 [0x23] WAIT_FOR_DIALOG_INTERACTION
273: 0x0916 [0x66] LOAD_EXT_SCHEDULER_MAIN: Load scheduler "tlk1" with entities [Deminza (ID: 16982285/0x0103210D), Deminza (ID: 16982285/0x0103210D)], work=69*
274: 0x0925 [0x52] END_LOAD_SCHEDULER: End scheduler "s039" with entities [EventEntity, EventEntity], work=280*
275: 0x0934 [0x45] LOAD_SCHEDULED_TASK: Load scheduler "s040" with entities [EventEntity, EventEntity], work=[280*, 0*]
276: 0x0945 [0x1C] WAIT(60* ticks)
277: 0x0948 [0x5B] LOAD_EXT_SCHEDULER: Load scheduler "thk2" with entities [Mhasbaf (ID: 16982317/0x0103212D), Mhasbaf (ID: 16982317/0x0103212D)], work=75*
278: 0x0957 [0x1C] WAIT(60* ticks)
279: 0x095A [0x4A] Mhasbaf (ID: 16982317/0x0103212D) looks at Deminza (ID: 16982285/0x0103210D)
280: 0x0963 [0x5B] LOAD_EXT_SCHEDULER: Load scheduler "tlk0" with entities [Mhasbaf (ID: 16982317/0x0103212D), Mhasbaf (ID: 16982317/0x0103212D)], work=75*
281: 0x0972 [0x2B] Mhasbaf (ID: 16982317/0x0103212D) [5261*]:
    → "I see so many people come through here, it's really hard to say for sure...\u007F1\u0000\u0007"
282: 0x0979 [0x23] WAIT_FOR_DIALOG_INTERACTION
283: 0x097A [0x5B] LOAD_EXT_SCHEDULER: Load scheduler "tlk1" with entities [Mhasbaf (ID: 16982317/0x0103212D), Mhasbaf (ID: 16982317/0x0103212D)], work=75*
284: 0x0989 [0x52] END_LOAD_SCHEDULER: End scheduler "s040" with entities [EventEntity, EventEntity], work=280*
285: 0x0998 [0x45] LOAD_SCHEDULED_TASK: Load scheduler "s042" with entities [EventEntity, EventEntity], work=[280*, 0*]
286: 0x09A9 [0x6E] Kobdyu (ID: 16982284/0x0103210C) uses emote 19*
287: 0x09B0 [0x99] Wait for Kobdyu (ID: 16982284/0x0103210C) animation to complete
288: 0x09B5 [0x2B] Kobdyu (ID: 16982284/0x0103210C) [5262*]:
    → "Oh dear...\u0007If no one has seen our wonderful benefactor, then \u00072kidnapped\u00073 must be the only answer...\u007F1\u0000\u0007"
289: 0x09BC [0x23] WAIT_FOR_DIALOG_INTERACTION
290: 0x09BD [0x52] END_LOAD_SCHEDULER: End scheduler "s042" with entities [EventEntity, EventEntity], work=280*
291: 0x09CC [0x45] LOAD_SCHEDULED_TASK: Load scheduler "s010" with entities [EventEntity, EventEntity], work=[280*, 0*]
292: 0x09DD [0x4A] Galiwao (ID: 16982283/0x0103210B) looks at LocalPlayer
293: 0x09E6 [0x4A] LocalPlayer looks at Galiwao (ID: 16982283/0x0103210B)
294: 0x09EF [0x1C] WAIT(60* ticks)
295: 0x09F2 [0x66] LOAD_EXT_SCHEDULER_MAIN: Load scheduler "thk1" with entities [Galiwao (ID: 16982283/0x0103210B), Galiwao (ID: 16982283/0x0103210B)], work=69*
296: 0x0A01 [0x2B] Galiwao (ID: 16982283/0x0103210B) [5263*]:
    → "Hmm. You have a certain look about you...\u0007Are you one of those adventurers from the West?\u0000\u0007"
297: 0x0A08 [0x1C] WAIT(120* ticks)
298: 0x0A0B [0x66] LOAD_EXT_SCHEDULER_MAIN: Load scheduler "thk2" with entities [Galiwao (ID: 16982283/0x0103210B), Galiwao (ID: 16982283/0x0103210B)], work=69*
299: 0x0A1A [0x52] END_LOAD_SCHEDULER: End scheduler "s010" with entities [EventEntity, EventEntity], work=280*
300: 0x0A29 [0x45] LOAD_SCHEDULED_TASK: Load scheduler "s044" with entities [EventEntity, EventEntity], work=[280*, 0*]
301: 0x0A3A [0x4A] LocalPlayer looks at Galiwao (ID: 16982283/0x0103210B)
302: 0x0A43 [0x4A] Deminza (ID: 16982285/0x0103210D) looks at LocalPlayer
303: 0x0A4C [0x1C] WAIT(10* ticks)
304: 0x0A4F [0x4A] Kobdyu (ID: 16982284/0x0103210C) looks at LocalPlayer
305: 0x0A58 [0x1C] WAIT(10* ticks)
306: 0x0A5B [0x4A] Mhasbaf (ID: 16982317/0x0103212D) looks at LocalPlayer
307: 0x0A64 [0x6E] LocalPlayer uses emote 7*
308: 0x0A6B [0x99] Wait for LocalPlayer animation to complete
309: 0x0A70 [0x1C] WAIT(120* ticks)
310: 0x0A73 [0x6E] Galiwao (ID: 16982283/0x0103210B) uses emote 7*
311: 0x0A7A [0x99] Wait for Galiwao (ID: 16982283/0x0103210B) animation to complete
312: 0x0A7F [0x1C] WAIT(60* ticks)
313: 0x0A82 [0x2B] Galiwao (ID: 16982283/0x0103210B) [5264*]:
    → "I knew it!\u0007Then I must ask your help.\u007F1\u0000\u0007"
314: 0x0A89 [0x23] WAIT_FOR_DIALOG_INTERACTION
315: 0x0A8A [0x66] LOAD_EXT_SCHEDULER_MAIN: Load scheduler "tlk0" with entities [Galiwao (ID: 16982283/0x0103210B), Galiwao (ID: 16982283/0x0103210B)], work=69*
316: 0x0A99 [0x2B] Galiwao (ID: 16982283/0x0103210B) [5265*]:
    → "Will you aid us in our search?\u007F1\u0000\u0007"
317: 0x0AA0 [0x23] WAIT_FOR_DIALOG_INTERACTION
318: 0x0AA1 [0x66] LOAD_EXT_SCHEDULER_MAIN: Load scheduler "tlk1" with entities [Galiwao (ID: 16982283/0x0103210B), Galiwao (ID: 16982283/0x0103210B)], work=69*
319: 0x0AB0 [0x52] END_LOAD_SCHEDULER: End scheduler "s044" with entities [EventEntity, EventEntity], work=280*
320: 0x0ABF [0x45] LOAD_SCHEDULED_TASK: Load scheduler "s045" with entities [EventEntity, EventEntity], work=[280*, 0*]
321: 0x0AD0 [0x29] REQ_SET_WAIT(priority=0x32, entity_id=Deminza (ID: 16982285/0x0103210D), tag_num=0x07)
322: 0x0AD7 [0x4A] Deminza (ID: 16982285/0x0103210D) looks at Galiwao (ID: 16982283/0x0103210B)
323: 0x0AE0 [0x79] Galiwao (ID: 16982283/0x0103210B) looks at Deminza (ID: 16982285/0x0103210D) (Basic look)
324: 0x0AEA [0x1C] WAIT(30* ticks)
325: 0x0AED [0x66] LOAD_EXT_SCHEDULER_MAIN: Load scheduler "tlk0" with entities [Deminza (ID: 16982285/0x0103210D), Deminza (ID: 16982285/0x0103210D)], work=69*
326: 0x0AFC [0x2B] Deminza (ID: 16982285/0x0103210D) [5266*]:
    → "Yeah! Adventurers are always familiar with scummy informers and back-alley shortcuts, right?\u007F1\u0000\u0007"
327: 0x0B03 [0x23] WAIT_FOR_DIALOG_INTERACTION
328: 0x0B04 [0x66] LOAD_EXT_SCHEDULER_MAIN: Load scheduler "tlk1" with entities [Deminza (ID: 16982285/0x0103210D), Deminza (ID: 16982285/0x0103210D)], work=69*
329: 0x0B13 [0x79] Galiwao (ID: 16982283/0x0103210B) looks at LocalPlayer (Basic look)
330: 0x0B1D [0x52] END_LOAD_SCHEDULER: End scheduler "s045" with entities [EventEntity, EventEntity], work=280*
331: 0x0B2C [0x45] LOAD_SCHEDULED_TASK: Load scheduler "s046" with entities [EventEntity, EventEntity], work=[280*, 0*]
332: 0x0B3D [0x4A] Mhasbaf (ID: 16982317/0x0103212D) looks at Galiwao (ID: 16982283/0x0103210B)
333: 0x0B46 [0x5B] LOAD_EXT_SCHEDULER: Load scheduler "tlk0" with entities [Mhasbaf (ID: 16982317/0x0103212D), Mhasbaf (ID: 16982317/0x0103212D)], work=75*
334: 0x0B55 [0x2B] Mhasbaf (ID: 16982317/0x0103212D) [5267*]:
    → "I can help! I know plenty about Al Zahbi!\u007F1\u0000\u0007"
335: 0x0B5C [0x23] WAIT_FOR_DIALOG_INTERACTION
336: 0x0B5D [0x5B] LOAD_EXT_SCHEDULER: Load scheduler "tlk1" with entities [Mhasbaf (ID: 16982317/0x0103212D), Mhasbaf (ID: 16982317/0x0103212D)], work=75*
337: 0x0B6C [0x4A] Deminza (ID: 16982285/0x0103210D) looks at Mhasbaf (ID: 16982317/0x0103212D)
338: 0x0B75 [0x1C] WAIT(10* ticks)
339: 0x0B78 [0x4A] Galiwao (ID: 16982283/0x0103210B) looks at Mhasbaf (ID: 16982317/0x0103212D)
340: 0x0B81 [0x1C] WAIT(10* ticks)
341: 0x0B84 [0x4A] Kobdyu (ID: 16982284/0x0103210C) looks at Mhasbaf (ID: 16982317/0x0103212D)
342: 0x0B8D [0x1C] WAIT(30* ticks)
343: 0x0B90 [0x6E] Galiwao (ID: 16982283/0x0103210B) uses emote 7*
344: 0x0B97 [0x99] Wait for Galiwao (ID: 16982283/0x0103210B) animation to complete
345: 0x0B9C [0x1C] WAIT(120* ticks)
346: 0x0B9F [0x52] END_LOAD_SCHEDULER: End scheduler "s046" with entities [EventEntity, EventEntity], work=280*
347: 0x0BAE [0x45] LOAD_SCHEDULED_TASK: Load scheduler "s011" with entities [EventEntity, EventEntity], work=[280*, 0*]
348: 0x0BBF [0x29] REQ_SET_WAIT(priority=0x32, entity_id=Deminza (ID: 16982285/0x0103210D), tag_num=0x08)
349: 0x0BC6 [0x4A] Deminza (ID: 16982285/0x0103210D) looks at LocalPlayer
350: 0x0BCF [0x1C] WAIT(30* ticks)
351: 0x0BD2 [0x66] LOAD_EXT_SCHEDULER_MAIN: Load scheduler "tlk0" with entities [Deminza (ID: 16982285/0x0103210D), Deminza (ID: 16982285/0x0103210D)], work=69*
352: 0x0BE1 [0x2B] Deminza (ID: 16982285/0x0103210D) [5268*]:
    → "Our boss is not a sturdy person.\u0007Walkin' around outside for this long would be too tiring.\u007F1\u0000\u0007"
353: 0x0BE8 [0x23] WAIT_FOR_DIALOG_INTERACTION
354: 0x0BE9 [0x66] LOAD_EXT_SCHEDULER_MAIN: Load scheduler "tlk1" with entities [Deminza (ID: 16982285/0x0103210D), Deminza (ID: 16982285/0x0103210D)], work=69*
355: 0x0BF8 [0x6E] Deminza (ID: 16982285/0x0103210D) uses emote 6*
356: 0x0BFF [0x99] Wait for Deminza (ID: 16982285/0x0103210D) animation to complete
357: 0x0C04 [0x2B] Deminza (ID: 16982285/0x0103210D) [5269*]:
    → "Something terrible musta happened!\u007F1\u0000\u0007"
358: 0x0C0B [0x23] WAIT_FOR_DIALOG_INTERACTION
359: 0x0C0C [0x52] END_LOAD_SCHEDULER: End scheduler "s011" with entities [EventEntity, EventEntity], work=280*
360: 0x0C1B [0x45] LOAD_SCHEDULED_TASK: Load scheduler "s063" with entities [EventEntity, EventEntity], work=[280*, 0*]
361: 0x0C2C [0x6E] Kobdyu (ID: 16982284/0x0103210C) uses emote 19*
362: 0x0C33 [0x99] Wait for Kobdyu (ID: 16982284/0x0103210C) animation to complete
363: 0x0C38 [0x2B] Kobdyu (ID: 16982284/0x0103210C) [5270*]:
    → "It must have been a kidnapper looking for a ransom...\u007F1\u0000\u0007"
364: 0x0C3F [0x23] WAIT_FOR_DIALOG_INTERACTION
365: 0x0C40 [0x52] END_LOAD_SCHEDULER: End scheduler "s063" with entities [EventEntity, EventEntity], work=280*
366: 0x0C4F [0x45] LOAD_SCHEDULED_TASK: Load scheduler "s047" with entities [EventEntity, EventEntity], work=[280*, 0*]
367: 0x0C60 [0x4A] Deminza (ID: 16982285/0x0103210D) looks at Kobdyu (ID: 16982284/0x0103210C)
368: 0x0C69 [0x1C] WAIT(30* ticks)
369: 0x0C6C [0x6E] Deminza (ID: 16982285/0x0103210D) uses emote 25*
370: 0x0C73 [0x99] Wait for Deminza (ID: 16982285/0x0103210D) animation to complete
371: 0x0C78 [0x1C] WAIT(60* ticks)
372: 0x0C7B [0x4A] Kobdyu (ID: 16982284/0x0103210C) looks at Deminza (ID: 16982285/0x0103210D)
373: 0x0C84 [0x1C] WAIT(30* ticks)
374: 0x0C87 [0x6E] Kobdyu (ID: 16982284/0x0103210C) uses emote 5*
375: 0x0C8E [0x99] Wait for Kobdyu (ID: 16982284/0x0103210C) animation to complete
376: 0x0C93 [0x1C] WAIT(180* ticks)
377: 0x0C96 [0x52] END_LOAD_SCHEDULER: End scheduler "s047" with entities [EventEntity, EventEntity], work=280*
378: 0x0CA5 [0x4B] UPDATE_ENTITY_YAW(entity=Kobdyu (ID: 16982284/0x0103210C), yaw=8.2°*)
379: 0x0CAC [0x1C] WAIT(10* ticks)
380: 0x0CAF [0x6E] Kobdyu (ID: 16982284/0x0103210C) uses emote 19*
381: 0x0CB6 [0x99] Wait for Kobdyu (ID: 16982284/0x0103210C) animation to complete
382: 0x0CBB [0x4A] Deminza (ID: 16982285/0x0103210D) looks at LocalPlayer
383: 0x0CC4 [0x52] END_LOAD_SCHEDULER: End scheduler "s047" with entities [EventEntity, EventEntity], work=280*
384: 0x0CD3 [0x45] LOAD_SCHEDULED_TASK: Load scheduler "s049" with entities [EventEntity, EventEntity], work=[280*, 0*]
385: 0x0CE4 [0x4A] Galiwao (ID: 16982283/0x0103210B) looks at LocalPlayer
386: 0x0CED [0x66] LOAD_EXT_SCHEDULER_MAIN: Load scheduler "tlk0" with entities [Galiwao (ID: 16982283/0x0103210B), Galiwao (ID: 16982283/0x0103210B)], work=69*
387: 0x0CFC [0x2B] Galiwao (ID: 16982283/0x0103210B) [5271*]:
    → "We've looked everywhere...\u007F1\u0000\u0007"
388: 0x0D03 [0x23] WAIT_FOR_DIALOG_INTERACTION
389: 0x0D04 [0x66] LOAD_EXT_SCHEDULER_MAIN: Load scheduler "tlk1" with entities [Galiwao (ID: 16982283/0x0103210B), Galiwao (ID: 16982283/0x0103210B)], work=69*
390: 0x0D13 [0x52] END_LOAD_SCHEDULER: End scheduler "s049" with entities [EventEntity, EventEntity], work=280*
391: 0x0D22 [0x45] LOAD_SCHEDULED_TASK: Load scheduler "s048" with entities [EventEntity, EventEntity], work=[280*, 0*]
392: 0x0D33 [0x5B] LOAD_EXT_SCHEDULER: Load scheduler "thk1" with entities [Mhasbaf (ID: 16982317/0x0103212D), Mhasbaf (ID: 16982317/0x0103212D)], work=75*
393: 0x0D42 [0x2B] Mhasbaf (ID: 16982317/0x0103212D) [5272*]:
    → "Hmmm...\u007F1\u0000\u0007"
394: 0x0D49 [0x23] WAIT_FOR_DIALOG_INTERACTION
395: 0x0D4A [0x5B] LOAD_EXT_SCHEDULER: Load scheduler "thk2" with entities [Mhasbaf (ID: 16982317/0x0103212D), Mhasbaf (ID: 16982317/0x0103212D)], work=75*
396: 0x0D59 [0x52] END_LOAD_SCHEDULER: End scheduler "s048" with entities [EventEntity, EventEntity], work=280*
397: 0x0D68 [0x45] LOAD_SCHEDULED_TASK: Load scheduler "s012" with entities [EventEntity, EventEntity], work=[280*, 0*]
398: 0x0D79 [0x4A] Galiwao (ID: 16982283/0x0103210B) looks at Deminza (ID: 16982285/0x0103210D)
399: 0x0D82 [0x6E] Deminza (ID: 16982285/0x0103210D) uses emote 25*
400: 0x0D89 [0x99] Wait for Deminza (ID: 16982285/0x0103210D) animation to complete
401: 0x0D8E [0x2B] Deminza (ID: 16982285/0x0103210D) [5273*]:
    → "Arrrgh!\u0007I can't take this standin' around!\u0007I gotta do somethin'!\u0000\u0007"
402: 0x0D95 [0x1C] WAIT(120* ticks)
403: 0x0D98 [0x55] WAIT_LOAD_SCHEDULER: Wait for scheduler "s012" with entities [EventEntity, EventEntity], work=280*
404: 0x0DA7 [0x45] LOAD_SCHEDULED_TASK: Load scheduler "s013" with entities [EventEntity, EventEntity], work=[280*, 0*]
405: 0x0DB8 [0x4A] Deminza (ID: 16982285/0x0103210D) looks at Kobdyu (ID: 16982284/0x0103210C)
406: 0x0DC1 [0x4A] Kobdyu (ID: 16982284/0x0103210C) looks at Deminza (ID: 16982285/0x0103210D)
407: 0x0DCA [0x1C] WAIT(10* ticks)
408: 0x0DCD [0x4A] Galiwao (ID: 16982283/0x0103210B) looks at Kobdyu (ID: 16982284/0x0103210C)
409: 0x0DD6 [0x6E] Kobdyu (ID: 16982284/0x0103210C) uses emote 29*
410: 0x0DDD [0x99] Wait for Kobdyu (ID: 16982284/0x0103210C) animation to complete
411: 0x0DE2 [0x2B] Kobdyu (ID: 16982284/0x0103210C) [5274*]:
    → "Yes, who knows what could be happening while we dally here...\u007F1\u0000\u0007"
412: 0x0DE9 [0x23] WAIT_FOR_DIALOG_INTERACTION
413: 0x0DEA [0x4A] Deminza (ID: 16982285/0x0103210D) looks at Galiwao (ID: 16982283/0x0103210B)
414: 0x0DF3 [0x4A] Kobdyu (ID: 16982284/0x0103210C) looks at Galiwao (ID: 16982283/0x0103210B)
415: 0x0DFC [0x52] END_LOAD_SCHEDULER: End scheduler "s013" with entities [EventEntity, EventEntity], work=280*
416: 0x0E0B [0x45] LOAD_SCHEDULED_TASK: Load scheduler "s051" with entities [EventEntity, EventEntity], work=[280*, 0*]
417: 0x0E1C [0x4A] Galiwao (ID: 16982283/0x0103210B) looks at Deminza (ID: 16982285/0x0103210D)
418: 0x0E25 [0x1C] WAIT(30* ticks)
419: 0x0E28 [0x6E] Galiwao (ID: 16982283/0x0103210B) uses emote 32*
420: 0x0E2F [0x99] Wait for Galiwao (ID: 16982283/0x0103210B) animation to complete
421: 0x0E34 [0x2B] Galiwao (ID: 16982283/0x0103210B) [5275*]:
    → "We have to keep searching.\u0007Question everyone! Leave no stone unturned!\u007F1\u0000\u0007"
422: 0x0E3B [0x23] WAIT_FOR_DIALOG_INTERACTION
423: 0x0E3C [0x52] END_LOAD_SCHEDULER: End scheduler "s051" with entities [EventEntity, EventEntity], work=280*
424: 0x0E4B [0x45] LOAD_SCHEDULED_TASK: Load scheduler "s014" with entities [EventEntity, EventEntity], work=[280*, 0*]
425: 0x0E5C [0x29] REQ_SET_WAIT(priority=0x32, entity_id=Kobdyu (ID: 16982284/0x0103210C), tag_num=0x07)
426: 0x0E63 [0x1C] WAIT(30* ticks)
427: 0x0E66 [0x4A] Kobdyu (ID: 16982284/0x0103210C) looks at Galiwao (ID: 16982283/0x0103210B)
428: 0x0E6F [0x4A] Galiwao (ID: 16982283/0x0103210B) looks at Kobdyu (ID: 16982284/0x0103210C)
429: 0x0E78 [0x4A] Deminza (ID: 16982285/0x0103210D) looks at Kobdyu (ID: 16982284/0x0103210C)
430: 0x0E81 [0x66] LOAD_EXT_SCHEDULER_MAIN: Load scheduler "tlk0" with entities [Kobdyu (ID: 16982284/0x0103210C), Kobdyu (ID: 16982284/0x0103210C)], work=69*
431: 0x0E90 [0x2B] Kobdyu (ID: 16982284/0x0103210C) [5276*]:
    → "I'll check the busy areas where all the townspeople gather.\u007F1\u0000\u0007"
432: 0x0E97 [0x23] WAIT_FOR_DIALOG_INTERACTION
433: 0x0E98 [0x66] LOAD_EXT_SCHEDULER_MAIN: Load scheduler "tlk1" with entities [Kobdyu (ID: 16982284/0x0103210C), Kobdyu (ID: 16982284/0x0103210C)], work=69*
434: 0x0EA7 [0x52] END_LOAD_SCHEDULER: End scheduler "s014" with entities [EventEntity, EventEntity], work=280*
435: 0x0EB6 [0x45] LOAD_SCHEDULED_TASK: Load scheduler "s050" with entities [EventEntity, EventEntity], work=[280*, 0*]
436: 0x0EC7 [0x29] REQ_SET_WAIT(priority=0x32, entity_id=Deminza (ID: 16982285/0x0103210D), tag_num=0x09)
437: 0x0ECE [0x1C] WAIT(30* ticks)
438: 0x0ED1 [0x4A] Deminza (ID: 16982285/0x0103210D) looks at Galiwao (ID: 16982283/0x0103210B)
439: 0x0EDA [0x4A] Galiwao (ID: 16982283/0x0103210B) looks at Deminza (ID: 16982285/0x0103210D)
440: 0x0EE3 [0x66] LOAD_EXT_SCHEDULER_MAIN: Load scheduler "tlk0" with entities [Deminza (ID: 16982285/0x0103210D), Deminza (ID: 16982285/0x0103210D)], work=69*
441: 0x0EF2 [0x2B] Deminza (ID: 16982285/0x0103210D) [5277*]:
    → "I found out we have an information seller in town!\u0007I'll see if he knows anything about the boss!\u007F1\u0000\u0007"
442: 0x0EF9 [0x23] WAIT_FOR_DIALOG_INTERACTION
443: 0x0EFA [0x66] LOAD_EXT_SCHEDULER_MAIN: Load scheduler "tlk1" with entities [Deminza (ID: 16982285/0x0103210D), Deminza (ID: 16982285/0x0103210D)], work=69*
444: 0x0F09 [0x52] END_LOAD_SCHEDULER: End scheduler "s050" with entities [EventEntity, EventEntity], work=280*
445: 0x0F18 [0x45] LOAD_SCHEDULED_TASK: Load scheduler "s015" with entities [EventEntity, EventEntity], work=[280*, 0*]
446: 0x0F29 [0x1C] WAIT(60* ticks)
447: 0x0F2C [0x4B] UPDATE_ENTITY_YAW(entity=Galiwao (ID: 16982283/0x0103210B), yaw=5.5°*)
448: 0x0F33 [0x1C] WAIT(60* ticks)
449: 0x0F36 [0x4A] Galiwao (ID: 16982283/0x0103210B) looks at Kobdyu (ID: 16982284/0x0103210C)
450: 0x0F3F [0x4B] UPDATE_ENTITY_YAW(entity=Galiwao (ID: 16982283/0x0103210B), yaw=5.5°*)
451: 0x0F46 [0x66] LOAD_EXT_SCHEDULER_MAIN: Load scheduler "tlk0" with entities [Galiwao (ID: 16982283/0x0103210B), Galiwao (ID: 16982283/0x0103210B)], work=69*
452: 0x0F55 [0x2B] Galiwao (ID: 16982283/0x0103210B) [5278*]:
    → "Then I'll start talking to all the mercenaries and adventurers.\u0007The smallest scrap of information could be the clue we need!\u007F1\u0000\u0007"
453: 0x0F5C [0x23] WAIT_FOR_DIALOG_INTERACTION
454: 0x0F5D [0x66] LOAD_EXT_SCHEDULER_MAIN: Load scheduler "tlk1" with entities [Galiwao (ID: 16982283/0x0103210B), Galiwao (ID: 16982283/0x0103210B)], work=69*
455: 0x0F6C [0x52] END_LOAD_SCHEDULER: End scheduler "s015" with entities [EventEntity, EventEntity], work=280*
456: 0x0F7B [0x45] LOAD_SCHEDULED_TASK: Load scheduler "s052" with entities [EventEntity, EventEntity], work=[280*, 0*]
457: 0x0F8C [0x1C] WAIT(60* ticks)
458: 0x0F8F [0x4A] Galiwao (ID: 16982283/0x0103210B) looks at Deminza (ID: 16982285/0x0103210D)
459: 0x0F98 [0x4B] UPDATE_ENTITY_YAW(entity=Galiwao (ID: 16982283/0x0103210B), yaw=5.5°*)
460: 0x0F9F [0x6E] Deminza (ID: 16982285/0x0103210D) uses emote 7*
461: 0x0FA6 [0x99] Wait for Deminza (ID: 16982285/0x0103210D) animation to complete
462: 0x0FAB [0x1C] WAIT(10* ticks)
463: 0x0FAE [0x6E] Kobdyu (ID: 16982284/0x0103210C) uses emote 7*
464: 0x0FB5 [0x99] Wait for Kobdyu (ID: 16982284/0x0103210C) animation to complete
465: 0x0FBA [0x1C] WAIT(20* ticks)
466: 0x0FBD [0x6E] Galiwao (ID: 16982283/0x0103210B) uses emote 7*
467: 0x0FC4 [0x99] Wait for Galiwao (ID: 16982283/0x0103210B) animation to complete
468: 0x0FC9 [0x1C] WAIT(120* ticks)
469: 0x0FCC [0x27] REQ_SET(priority=0x32, entity_id=Deminza (ID: 16982285/0x0103210D), tag_num=0x03)
470: 0x0FD3 [0x1C] WAIT(60* ticks)
471: 0x0FD6 [0x27] REQ_SET(priority=0x32, entity_id=Kobdyu (ID: 16982284/0x0103210C), tag_num=0x03)
472: 0x0FDD [0x1C] WAIT(240* ticks)
473: 0x0FE0 [0x4E] SET_ENTITY_HIDE_FLAG: Hide Kobdyu (ID: 16982284/0x0103210C)
474: 0x0FE6 [0x4E] SET_ENTITY_HIDE_FLAG: Hide Deminza (ID: 16982285/0x0103210D)
475: 0x0FEC [0x52] END_LOAD_SCHEDULER: End scheduler "s052" with entities [EventEntity, EventEntity], work=280*
476: 0x0FFB [0x45] LOAD_SCHEDULED_TASK: Load scheduler "s053" with entities [EventEntity, EventEntity], work=[280*, 0*]
477: 0x100C [0x4A] Galiwao (ID: 16982283/0x0103210B) looks at LocalPlayer
478: 0x1015 [0x1C] WAIT(30* ticks)
479: 0x1018 [0x6E] Galiwao (ID: 16982283/0x0103210B) uses emote 1*
480: 0x101F [0x99] Wait for Galiwao (ID: 16982283/0x0103210B) animation to complete
481: 0x1024 [0x1C] WAIT(180* ticks)
482: 0x1027 [0x27] REQ_SET(priority=0x32, entity_id=Galiwao (ID: 16982283/0x0103210B), tag_num=0x06)
483: 0x102E [0x1C] WAIT(60* ticks)
484: 0x1031 [0x52] END_LOAD_SCHEDULER: End scheduler "s053" with entities [EventEntity, EventEntity], work=280*
485: 0x1040 [0x45] LOAD_SCHEDULED_TASK: Load scheduler "s016" with entities [EventEntity, EventEntity], work=[280*, 0*]
486: 0x1051 [0x5B] LOAD_EXT_SCHEDULER: Load scheduler "tlk0" with entities [Mhasbaf (ID: 16982317/0x0103212D), Mhasbaf (ID: 16982317/0x0103212D)], work=75*
487: 0x1060 [0x2B] Mhasbaf (ID: 16982317/0x0103212D) [5279*]:
    → "Now just a minute! This person you're looking for is a grownup? Why would an adult not be able to find the way home?\u0000\u0007"
488: 0x1067 [0x5B] LOAD_EXT_SCHEDULER: Load scheduler "tlk1" with entities [Mhasbaf (ID: 16982317/0x0103212D), Mhasbaf (ID: 16982317/0x0103212D)], work=75*
489: 0x1076 [0x55] WAIT_LOAD_SCHEDULER: Wait for scheduler "s016" with entities [EventEntity, EventEntity], work=280*
490: 0x1085 [0x45] LOAD_SCHEDULED_TASK: Load scheduler "s017" with entities [EventEntity, EventEntity], work=[280*, 0*]
491: 0x1096 [0x2B] Galiwao (ID: 16982283/0x0103210B) [5280*]:
    → "I have a theory about that...\u0000\u0007"
492: 0x109D [0x29] REQ_SET_WAIT(priority=0x32, entity_id=Galiwao (ID: 16982283/0x0103210B), tag_num=0x07)
493: 0x10A4 [0x52] END_LOAD_SCHEDULER: End scheduler "s017" with entities [EventEntity, EventEntity], work=280*
494: 0x10B3 [0x45] LOAD_SCHEDULED_TASK: Load scheduler "s054" with entities [EventEntity, EventEntity], work=[280*, 0*]
495: 0x10C4 [0x5B] LOAD_EXT_SCHEDULER: Load scheduler "tlk0" with entities [Mhasbaf (ID: 16982317/0x0103212D), Mhasbaf (ID: 16982317/0x0103212D)], work=75*
496: 0x10D3 [0x2B] Mhasbaf (ID: 16982317/0x0103212D) [5281*]:
    → "Really? What do you think happened?\u007F1\u0000\u0007"
497: 0x10DA [0x23] WAIT_FOR_DIALOG_INTERACTION
498: 0x10DB [0x5B] LOAD_EXT_SCHEDULER: Load scheduler "tlk1" with entities [Mhasbaf (ID: 16982317/0x0103212D), Mhasbaf (ID: 16982317/0x0103212D)], work=75*
499: 0x10EA [0x52] END_LOAD_SCHEDULER: End scheduler "s054" with entities [EventEntity, EventEntity], work=280*
500: 0x10F9 [0x45] LOAD_SCHEDULED_TASK: Load scheduler "s055" with entities [EventEntity, EventEntity], work=[280*, 0*]
501: 0x110A [0x2B] Galiwao (ID: 16982283/0x0103210B) [5282*]:
    → "You see, one of our fellow retainers left with our benefactor on that walk last night.\u007F1\u0000\u0007"
502: 0x1111 [0x23] WAIT_FOR_DIALOG_INTERACTION
503: 0x1112 [0x2B] Galiwao (ID: 16982283/0x0103210B) [5283*]:
    → "And neither of them came back.\u007F1\u0000\u0007"
504: 0x1119 [0x23] WAIT_FOR_DIALOG_INTERACTION
505: 0x111A [0x52] END_LOAD_SCHEDULER: End scheduler "s055" with entities [EventEntity, EventEntity], work=280*
506: 0x1129 [0x45] LOAD_SCHEDULED_TASK: Load scheduler "s056" with entities [EventEntity, EventEntity], work=[280*, 0*]
507: 0x113A [0x6E] Galiwao (ID: 16982283/0x0103210B) uses emote 35*
508: 0x1141 [0x99] Wait for Galiwao (ID: 16982283/0x0103210B) animation to complete
509: 0x1146 [0x2B] Galiwao (ID: 16982283/0x0103210B) [5284*]:
    → "Just maybe, it was that retainer who...\u0000\u0007"
510: 0x114D [0x1C] WAIT(180* ticks)
511: 0x1150 [0x52] END_LOAD_SCHEDULER: End scheduler "s056" with entities [EventEntity, EventEntity], work=280*
512: 0x115F [0x45] LOAD_SCHEDULED_TASK: Load scheduler "s057" with entities [EventEntity, EventEntity], work=[280*, 0*]
513: 0x1170 [0x6E] Galiwao (ID: 16982283/0x0103210B) uses emote 29*
514: 0x1177 [0x99] Wait for Galiwao (ID: 16982283/0x0103210B) animation to complete
515: 0x117C [0x2B] Galiwao (ID: 16982283/0x0103210B) [5285*]:
    → "Dammit!\u0007I always had my suspicions about that one!\u007F1\u0000\u0007"
516: 0x1183 [0x23] WAIT_FOR_DIALOG_INTERACTION
517: 0x1184 [0x1C] WAIT(30* ticks)
518: 0x1187 [0x52] END_LOAD_SCHEDULER: End scheduler "s057" with entities [EventEntity, EventEntity], work=280*
519: 0x1196 [0x45] LOAD_SCHEDULED_TASK: Load scheduler "s059" with entities [EventEntity, EventEntity], work=[280*, 0*]
520: 0x11A7 [0x2B] Galiwao (ID: 16982283/0x0103210B) [5286*]:
    → "A thief and a beggar from an early age, or so the story goes!\u007F1\u0000\u0007"
521: 0x11AE [0x23] WAIT_FOR_DIALOG_INTERACTION
522: 0x11AF [0x1C] WAIT(30* ticks)
523: 0x11B2 [0x6E] Galiwao (ID: 16982283/0x0103210B) uses emote 6*
524: 0x11B9 [0x99] Wait for Galiwao (ID: 16982283/0x0103210B) animation to complete
525: 0x11BE [0x2B] Galiwao (ID: 16982283/0x0103210B) [5287*]:
    → "I bet the thought of possessing our employer's fortune was just too tempting to pass up!\u007F1\u0000\u0007"
526: 0x11C5 [0x23] WAIT_FOR_DIALOG_INTERACTION
527: 0x11C6 [0x52] END_LOAD_SCHEDULER: End scheduler "s059" with entities [EventEntity, EventEntity], work=280*
528: 0x11D5 [0x45] LOAD_SCHEDULED_TASK: Load scheduler "s018" with entities [EventEntity, EventEntity], work=[280*, 0*]
529: 0x11E6 [0x4A] Galiwao (ID: 16982283/0x0103210B) looks at Mhasbaf (ID: 16982317/0x0103212D)
530: 0x11EF [0x4A] Deminza (ID: 16982285/0x0103210D) looks at Mhasbaf (ID: 16982317/0x0103212D)
531: 0x11F8 [0x4A] Kobdyu (ID: 16982284/0x0103210C) looks at Mhasbaf (ID: 16982317/0x0103212D)
532: 0x1201 [0x5B] LOAD_EXT_SCHEDULER: Load scheduler "tlk0" with entities [Mhasbaf (ID: 16982317/0x0103212D), Mhasbaf (ID: 16982317/0x0103212D)], work=75*
533: 0x1210 [0x2B] Mhasbaf (ID: 16982317/0x0103212D) [5288*]:
    → "How awful!\u0007I'll help you look!\u007F1\u0000\u0007"
534: 0x1217 [0x23] WAIT_FOR_DIALOG_INTERACTION
535: 0x1218 [0x52] END_LOAD_SCHEDULER: End scheduler "s018" with entities [EventEntity, EventEntity], work=280*
536: 0x1227 [0x45] LOAD_SCHEDULED_TASK: Load scheduler "s060" with entities [EventEntity, EventEntity], work=[280*, 0*]
537: 0x1238 [0x5B] LOAD_EXT_SCHEDULER: Load scheduler "tlk1" with entities [Mhasbaf (ID: 16982317/0x0103212D), Mhasbaf (ID: 16982317/0x0103212D)], work=75*
538: 0x1247 [0x4A] Mhasbaf (ID: 16982317/0x0103212D) looks at LocalPlayer
539: 0x1250 [0x1C] WAIT(30* ticks)
540: 0x1253 [0x4A] LocalPlayer looks at Mhasbaf (ID: 16982317/0x0103212D)
541: 0x125C [0x5B] LOAD_EXT_SCHEDULER: Load scheduler "tlk0" with entities [Mhasbaf (ID: 16982317/0x0103212D), Mhasbaf (ID: 16982317/0x0103212D)], work=75*
542: 0x126B [0x2B] Mhasbaf (ID: 16982317/0x0103212D) [5289*]:
    → "\u000C\u0000[Miss/Mister] Adventurer, you have to help these poor Galka too!\u007F1\u0000\u0007"
543: 0x1272 [0x23] WAIT_FOR_DIALOG_INTERACTION
544: 0x1273 [0x5B] LOAD_EXT_SCHEDULER: Load scheduler "tlk1" with entities [Mhasbaf (ID: 16982317/0x0103212D), Mhasbaf (ID: 16982317/0x0103212D)], work=75*
545: 0x1282 [0x4A] Galiwao (ID: 16982283/0x0103210B) looks at LocalPlayer
546: 0x128B [0x1C] WAIT(30* ticks)
547: 0x128E [0x4A] Deminza (ID: 16982285/0x0103210D) looks at LocalPlayer
548: 0x1297 [0x1C] WAIT(20* ticks)
549: 0x129A [0x4A] Kobdyu (ID: 16982284/0x0103210C) looks at LocalPlayer
550: 0x12A3 [0x6E] LocalPlayer uses emote 7*
551: 0x12AA [0x99] Wait for LocalPlayer animation to complete
552: 0x12AF [0x52] END_LOAD_SCHEDULER: End scheduler "s060" with entities [EventEntity, EventEntity], work=280*
553: 0x12BE [0x45] LOAD_SCHEDULED_TASK: Load scheduler "s019" with entities [EventEntity, EventEntity], work=[280*, 0*]
554: 0x12CF [0x1C] WAIT(60* ticks)
555: 0x12D2 [0x4A] Mhasbaf (ID: 16982317/0x0103212D) looks at Galiwao (ID: 16982283/0x0103210B)
556: 0x12DB [0x4A] LocalPlayer looks at Galiwao (ID: 16982283/0x0103210B)
557: 0x12E4 [0x2B] Galiwao (ID: 16982283/0x0103210B) [5290*]:
    → "We have to find our boss before something terrible happens!\u0007Any extra eyes and ears would be most welcome!\u007F1\u0000\u0007"
558: 0x12EB [0x23] WAIT_FOR_DIALOG_INTERACTION
559: 0x12EC [0x52] END_LOAD_SCHEDULER: End scheduler "s019" with entities [EventEntity, EventEntity], work=280*
560: 0x12FB [0x45] LOAD_SCHEDULED_TASK: Load scheduler "s115" with entities [EventEntity, EventEntity], work=[280*, 0*]
561: 0x130C [0x27] REQ_SET(priority=0x32, entity_id=Galiwao (ID: 16982283/0x0103210B), tag_num=0x08)
562: 0x1313 [0x1C] WAIT(60* ticks)
563: 0x1316 [0x52] END_LOAD_SCHEDULER: End scheduler "s115" with entities [EventEntity, EventEntity], work=280*
564: 0x1325 [0x45] LOAD_SCHEDULED_TASK: Load scheduler "s064" with entities [EventEntity, EventEntity], work=[280*, 0*]
565: 0x1336 [0x79] Faihal (ID: 16982282/0x0103210A) looks at Galiwao (ID: 16982283/0x0103210B) (Basic look)
566: 0x1340 [0x1C] WAIT(600* ticks)
567: 0x1343 [0x52] END_LOAD_SCHEDULER: End scheduler "s064" with entities [EventEntity, EventEntity], work=280*
568: 0x1352 [0x45] LOAD_SCHEDULED_TASK: Load scheduler "s065" with entities [EventEntity, EventEntity], work=[280*, 0*]
569: 0x1363 [0x1C] WAIT(120* ticks)
570: 0x1366 [0x7B] Faihal (ID: 16982282/0x0103210A) stops talking
571: 0x136B [0x1C] WAIT(240* ticks)
572: 0x136E [0x52] END_LOAD_SCHEDULER: End scheduler "s065" with entities [EventEntity, EventEntity], work=280*
573: 0x137D [0x45] LOAD_SCHEDULED_TASK: Load scheduler "fdo1" with entities [EventEntity, EventEntity], work=[200*, 0*]
574: 0x138E [0x55] WAIT_LOAD_SCHEDULER: Wait for scheduler "fdo1" with entities [EventEntity, EventEntity], work=200*
575: 0x139D [0x1C] WAIT(30* ticks)
576: 0x13A0 [0x46] CAMERA_CONTROL: Restore default settings
577: 0x13A2 [0x45] LOAD_SCHEDULED_TASK: Load scheduler "fdi2" with entities [EventEntity, EventEntity], work=[200*, 0*]
578: 0x13B3 [0x21] END_EVENT
579: 0x13B4 [0x00] END_REQSTACK()
```

### Event 809

#### Metadata

| Field        | Value      |
|--------------|------------|
| Entrypoint   | 0x13B5     |
| Data Size    | 3880 bytes |
| Instructions | 432        |

```
      00 01 02 03 04 05 06 07  08 09 0A 0B 0C 0D 0E 0F
      -- -- -- -- -- -- -- --  -- -- -- -- -- -- -- --
13B0:                42 45 00  80 F8 FF FF 7F F8 FF FF       BE.........
13C0: 7F 66 64 6F 31 01 80 55  00 80 F8 FF FF 7F F8 FF  .fdo1..U........
13D0: FF 7F 66 64 6F 31 46 01  38 02 80 29 0A F0 FF FF  ..fdo1F.8..)....
13E0: 7F 79 92 01 0A 21 03 01  92 01 09 21 03 01 92 01  .y...!.....!....
13F0: 0B 21 03 01 92 01 5A 20  03 01 92 01 5D 20 03 01  .!....Z ....] ..
1400: 80 F0 FF FF 7F 80 0A 21  03 01 80 09 21 03 01 80  .......!....!...
1410: 0B 21 03 01 66 03 80 09  21 03 01 09 21 03 01 73  .!..f...!...!..s
1420: 68 61 30 4E 00 0A 21 03  01 4E 00 09 21 03 01 4E  ha0N..!..N..!..N
1430: 00 0B 21 03 01 4E 00 5A  20 03 01 4E 00 5D 20 03  ..!..N.Z ..N.] .
1440: 01 4E 00 0B 21 03 01 4E  01 F0 FF FF 7F 29 32 0B  .N..!..N.....)2.
1450: 21 03 01 0A 29 32 0A 21  03 01 04 29 32 09 21 03  !...)2.!...)2.!.
1460: 01 04 29 32 5A 20 03 01  05 79 00 0A 21 03 01 0B  ..)2Z ...y..!...
1470: 21 03 01 4A 5A 20 03 01  0B 21 03 01 4A 0B 21 03  !..JZ ...!..J.!.
1480: 01 5A 20 03 01 45 00 80  F8 FF FF 7F F8 FF FF 7F  .Z ..E..........
1490: 66 64 69 31 01 80 45 04  80 F8 FF FF 7F F8 FF FF  fdi1..E.........
14A0: 7F 73 30 36 37 01 80 66  10 80 0B 21 03 01 0B 21  .s067..f...!...!
14B0: 03 01 74 6C 6B 30 1C 3D  80 66 10 80 0B 21 03 01  ..tlk0.=.f...!..
14C0: 0B 21 03 01 74 6C 6B 31  55 04 80 F8 FF FF 7F F8  .!..tlk1U.......
14D0: FF FF 7F 73 30 36 37 45  04 80 F8 FF FF 7F F8 FF  ...s067E........
14E0: FF 7F 73 30 36 39 01 80  1C 1F 80 6E 0B 21 03 01  ..s069.....n.!..
14F0: 48 80 99 0B 21 03 01 1C  3D 80 27 32 0B 21 03 01  H...!...=.'2.!..
1500: 0B 1C 06 80 52 04 80 F8  FF FF 7F F8 FF FF 7F 73  ....R..........s
1510: 30 36 39 45 04 80 F8 FF  FF 7F F8 FF FF 7F 73 30  069E..........s0
1520: 37 30 01 80 29 32 0A 21  03 01 05 4A 0A 21 03 01  70..)2.!...J.!..
1530: 09 21 03 01 29 32 5A 20  03 01 06 66 02 80 0A 21  .!..)2Z ...f...!
1540: 03 01 0A 21 03 01 73 68  61 30 2B 0A 21 03 01 57  ...!..sha0+.!..W
1550: 80 23 52 04 80 F8 FF FF  7F F8 FF FF 7F 73 30 37  .#R..........s07
1560: 30 45 04 80 F8 FF FF 7F  F8 FF FF 7F 73 30 37 31  0E..........s071
1570: 01 80 2B 09 21 03 01 58  80 23 52 04 80 F8 FF FF  ..+.!..X.#R.....
1580: 7F F8 FF FF 7F 73 30 37  31 45 04 80 F8 FF FF 7F  .....s071E......
1590: F8 FF FF 7F 73 30 37 32  01 80 66 02 80 0A 21 03  ....s072..f...!.
15A0: 01 0A 21 03 01 73 68 61  31 1C 06 80 29 32 0A 21  ..!..sha1...)2.!
15B0: 03 01 06 66 03 80 09 21  03 01 09 21 03 01 73 68  ...f...!...!..sh
15C0: 61 31 6E 0A 21 03 01 29  80 99 0A 21 03 01 2B 0A  a1n.!..)...!..+.
15D0: 21 03 01 59 80 23 52 04  80 F8 FF FF 7F F8 FF FF  !..Y.#R.........
15E0: 7F 73 30 37 32 45 04 80  F8 FF FF 7F F8 FF FF 7F  .s072E..........
15F0: 73 30 37 37 01 80 1C 07  80 6E 0A 21 03 01 34 80  s077.....n.!..4.
1600: 99 0A 21 03 01 2B 0A 21  03 01 5A 80 23 66 02 80  ..!..+.!..Z.#f..
1610: 0A 21 03 01 0A 21 03 01  74 68 6B 31 52 04 80 F8  .!...!..thk1R...
1620: FF FF 7F F8 FF FF 7F 73  30 37 37 45 04 80 F8 FF  .......s077E....
1630: FF 7F F8 FF FF 7F 73 30  37 33 01 80 4E 00 F0 FF  ......s073..N...
1640: FF 7F 27 32 F0 FF FF 7F  7A 1C 3D 80 52 04 80 F8  ..'2....z.=.R...
1650: FF FF 7F F8 FF FF 7F 73  30 37 33 45 04 80 F8 FF  .......s073E....
1660: FF 7F F8 FF FF 7F 73 30  37 34 01 80 66 02 80 0A  ......s074..f...
1670: 21 03 01 0A 21 03 01 74  68 6B 32 1C 1F 80 52 04  !...!..thk2...R.
1680: 80 F8 FF FF 7F F8 FF FF  7F 73 30 37 34 45 04 80  .........s074E..
1690: F8 FF FF 7F F8 FF FF 7F  73 30 37 35 01 80 4A 0A  ........s075..J.
16A0: 21 03 01 F0 FF FF 7F 1C  1F 80 52 04 80 F8 FF FF  !.........R.....
16B0: 7F F8 FF FF 7F 73 30 37  35 45 04 80 F8 FF FF 7F  .....s075E......
16C0: F8 FF FF 7F 73 30 37 36  01 80 4A 09 21 03 01 F0  ....s076..J.!...
16D0: FF FF 7F 6E 0A 21 03 01  5B 80 99 0A 21 03 01 6E  ...n.!..[...!..n
16E0: F0 FF FF 7F 5B 80 99 F0  FF FF 7F 2B 0A 21 03 01  ....[......+.!..
16F0: 5C 80 23 55 04 80 F8 FF  FF 7F F8 FF FF 7F 73 30  \.#U..........s0
1700: 37 36 45 04 80 F8 FF FF  7F F8 FF FF 7F 73 30 37  76E..........s07
1710: 38 01 80 79 00 0A 21 03  01 F0 FF FF 7F 6E 0A 21  8..y..!......n.!
1720: 03 01 01 80 99 0A 21 03  01 2B 0A 21 03 01 5D 80  ......!..+.!..].
1730: 23 55 04 80 F8 FF FF 7F  F8 FF FF 7F 73 30 37 38  #U..........s078
1740: 45 04 80 F8 FF FF 7F F8  FF FF 7F 73 30 37 39 01  E..........s079.
1750: 80 6E 09 21 03 01 4E 80  99 09 21 03 01 2B 09 21  .n.!..N...!..+.!
1760: 03 01 5E 80 23 52 04 80  F8 FF FF 7F F8 FF FF 7F  ..^.#R..........
1770: 73 30 37 39 45 04 80 F8  FF FF 7F F8 FF FF 7F 73  s079E..........s
1780: 30 38 31 01 80 4A 0A 21  03 01 09 21 03 01 1C 07  081..J.!...!....
1790: 80 6E 0A 21 03 01 19 80  99 0A 21 03 01 2B 0A 21  .n.!......!..+.!
17A0: 03 01 5F 80 6E 09 21 03  01 11 80 99 09 21 03 01  .._.n.!......!..
17B0: 55 04 80 F8 FF FF 7F F8  FF FF 7F 73 30 38 31 45  U..........s081E
17C0: 04 80 F8 FF FF 7F F8 FF  FF 7F 73 30 38 33 01 80  ..........s083..
17D0: 79 00 F0 FF FF 7F 0A 21  03 01 29 32 0A 21 03 01  y......!..)2.!..
17E0: 07 66 02 80 0A 21 03 01  0A 21 03 01 74 68 6B 31  .f...!...!..thk1
17F0: 1C 14 80 66 02 80 0A 21  03 01 0A 21 03 01 74 68  ...f...!...!..th
1800: 6B 32 1C 1F 80 6E 0A 21  03 01 34 80 99 0A 21 03  k2...n.!..4...!.
