# 16982257 - Nadeey

## Common Data

| Field            | Value                         |
|------------------|-------------------------------|
| Zone             | Aht Urhgan Whitegate (ID: 50) |
| Block Size       | 604 bytes                     |
| Total Events     | 24                            |
| References Count | 40                            |

## List of Events

| Event ID                   | Entrypoint   |   Size |   Instructions |
|----------------------------|--------------|--------|----------------|
| [65535](#event-65535)      | 0x0000       |      1 |              1 |
| [65535.1](#event-655351)   | 0x0001       |     13 |              7 |
| [3024](#event-3024)        | 0x000E       |      1 |              1 |
| [3032](#event-3032)        | 0x000F       |      1 |              1 |
| [3025](#event-3025)        | 0x0010       |     17 |              9 |
| [65535.2](#event-655352)   | 0x0021       |      1 |              1 |
| [65535.3](#event-655353)   | 0x0022       |     20 |              3 |
| [65535.4](#event-655354)   | 0x0036       |     14 |              4 |
| [65535.5](#event-655355)   | 0x0044       |     21 |              5 |
| [65535.6](#event-655356)   | 0x0059       |     24 |              6 |
| [65535.7](#event-655357)   | 0x0071       |     10 |              2 |
| [65535.8](#event-655358)   | 0x007B       |     24 |              6 |
| [3026](#event-3026)        | 0x0093       |      7 |              2 |
| [3033](#event-3033)        | 0x009A       |      7 |              2 |
| [251](#event-251)          | 0x00A1       |     13 |              7 |
| [3112](#event-3112)        | 0x00AE       |      1 |              1 |
| [65535.9](#event-655359)   | 0x00AF       |     14 |              4 |
| [65535.10](#event-6553510) | 0x00BD       |     22 |              6 |
| [65535.11](#event-6553511) | 0x00D3       |     58 |             12 |
| [65535.12](#event-6553512) | 0x010D       |     14 |              4 |
| [65535.13](#event-6553513) | 0x011B       |     14 |              4 |
| [65535.14](#event-6553514) | 0x0129       |     19 |              5 |
| [65535.15](#event-6553515) | 0x013C       |     14 |              4 |
| [65535.16](#event-6553516) | 0x014A       |      1 |              1 |

## DAT References (imed_data)

|   Index | Hex Value   |   Dec Value |
|---------|-------------|-------------|
|       0 | 0x24B7      |        9399 |
|       1 | 0x2443      |        9283 |
|       2 | 0x2444      |        9284 |
|       3 | 0x13F8A     |       81802 |
|       4 | 0xCEF7      |       52983 |
|       5 | 0xFFFFFEC5  |  4294966981 |
|       6 | 0x02FA      |         762 |
|       7 | 0x000D      |          13 |
|       8 | 0x144E4     |       83172 |
|       9 | 0xC4E1      |       50401 |
|      10 | 0x01E0      |         480 |
|      11 | 0x1383F     |       79935 |
|      12 | 0xBA62      |       47714 |
|      13 | 0x0181      |         385 |
|      14 | 0x13355     |       78677 |
|      15 | 0xD08F      |       53391 |
|      16 | 0xFFFFFEBB  |  4294966971 |
|      17 | 0x132A0     |       78496 |
|      18 | 0xC6B1      |       50865 |
|      19 | 0x042D      |        1069 |
|      20 | 0x13874     |       79988 |
|      21 | 0xDD56      |       56662 |
|      22 | 0x1389B     |       80027 |
|      23 | 0xD720      |       55072 |
|      24 | 0x001E      |          30 |
|      25 | 0x13172     |       78194 |
|      26 | 0xD41F      |       54303 |
|      27 | 0x132EA     |       78570 |
|      28 | 0xC773      |       51059 |
|      29 | 0x1381D     |       79901 |
|      30 | 0xBE5A      |       48730 |
|      31 | 0x196AB     |      104107 |
|      32 | 0x1D53C     |      120124 |
|      33 | 0x07D0      |        2000 |
|      34 | 0x18DCB     |      101835 |
|      35 | 0x1D606     |      120326 |
|      36 | 0x13B45     |       80709 |
|      37 | 0xBDB1      |       48561 |
|      38 | 0x13F5A     |       81754 |
|      39 | 0xBE16      |       48662 |

## String References

- **9283**: I seem to recall talk of the Shararat Teahouse becoming a popular gathering place for visitors to Al Zahbi.
- **9284**: Why not start your path to enlightenment there?
- **9399**: Welcome to Walahra Temple. Our doors are always open to those seeking knowledge.

## Events

### Event 65535

#### Metadata

| Field        | Value   |
|--------------|---------|
| Entrypoint   | 0x0000  |
| Data Size    | 1 bytes |
| Instructions | 1       |

```
      00 01 02 03 04 05 06 07  08 09 0A 0B 0C 0D 0E 0F
      -- -- -- -- -- -- -- --  -- -- -- -- -- -- -- --
0000: 00                                                .               
```

#### Opcodes

```
  0: 0x0000 [0x00] END_REQSTACK()
```

### Event 65535.1

#### Metadata

| Field        | Value    |
|--------------|----------|
| Entrypoint   | 0x0001   |
| Data Size    | 13 bytes |
| Instructions | 7        |

```
      00 01 02 03 04 05 06 07  08 09 0A 0B 0C 0D 0E 0F
      -- -- -- -- -- -- -- --  -- -- -- -- -- -- -- --
0000:    1E F0 FF FF 7F 6F 70  1D 00 80 23 21 00         .....op...#!.  
```

#### Opcodes

```
  0: 0x0001 [0x1E] EventEntity looks at LocalPlayer and starts talking
  1: 0x0006 [0x6F] WAIT_FRAME_DELAY: Yield until WaitTime reaches zero
  2: 0x0007 [0x70] WAIT_ENTITY_RENDER_FLAG: Wait while EventEntity->Render.Flags3 bit 2 is set (cancel turn if not)
  3: 0x0008 [0x1D] PRINT_EVENT_MESSAGE(message_id=9399*)
    → "Welcome to Walahra Temple. Our doors are always open to those seeking knowledge."
  4: 0x000B [0x23] WAIT_FOR_DIALOG_INTERACTION
  5: 0x000C [0x21] END_EVENT
  6: 0x000D [0x00] END_REQSTACK()
```

### Event 3024

#### Metadata

| Field        | Value   |
|--------------|---------|
| Entrypoint   | 0x000E  |
| Data Size    | 1 bytes |
| Instructions | 1       |

```
      00 01 02 03 04 05 06 07  08 09 0A 0B 0C 0D 0E 0F
      -- -- -- -- -- -- -- --  -- -- -- -- -- -- -- --
0000:                                            00                   . 
```

#### Opcodes

```
  0: 0x000E [0x00] END_REQSTACK()
```

### Event 3032

#### Metadata

| Field        | Value   |
|--------------|---------|
| Entrypoint   | 0x000F  |
| Data Size    | 1 bytes |
| Instructions | 1       |

```
      00 01 02 03 04 05 06 07  08 09 0A 0B 0C 0D 0E 0F
      -- -- -- -- -- -- -- --  -- -- -- -- -- -- -- --
0000:                                               00                 .
```

#### Opcodes

```
  0: 0x000F [0x00] END_REQSTACK()
```

### Event 3025

#### Metadata

| Field        | Value    |
|--------------|----------|
| Entrypoint   | 0x0010   |
| Data Size    | 17 bytes |
| Instructions | 9        |

```
      00 01 02 03 04 05 06 07  08 09 0A 0B 0C 0D 0E 0F
      -- -- -- -- -- -- -- --  -- -- -- -- -- -- -- --
0010: 1E F0 FF FF 7F 6F 70 1D  01 80 23 1D 02 80 23 21  .....op...#...#!
0020: 00                                                .               
```

#### Opcodes

```
  0: 0x0010 [0x1E] EventEntity looks at LocalPlayer and starts talking
  1: 0x0015 [0x6F] WAIT_FRAME_DELAY: Yield until WaitTime reaches zero
  2: 0x0016 [0x70] WAIT_ENTITY_RENDER_FLAG: Wait while EventEntity->Render.Flags3 bit 2 is set (cancel turn if not)
  3: 0x0017 [0x1D] PRINT_EVENT_MESSAGE(message_id=9283*)
    → "I seem to recall talk of the Shararat Teahouse becoming a popular gathering place for visitors to Al Zahbi."
  4: 0x001A [0x23] WAIT_FOR_DIALOG_INTERACTION
  5: 0x001B [0x1D] PRINT_EVENT_MESSAGE(message_id=9284*)
    → "Why not start your path to enlightenment there?"
  6: 0x001E [0x23] WAIT_FOR_DIALOG_INTERACTION
  7: 0x001F [0x21] END_EVENT
  8: 0x0020 [0x00] END_REQSTACK()
```

### Event 65535.2

#### Metadata

| Field        | Value   |
|--------------|---------|
| Entrypoint   | 0x0021  |
| Data Size    | 1 bytes |
| Instructions | 1       |

```
      00 01 02 03 04 05 06 07  08 09 0A 0B 0C 0D 0E 0F
      -- -- -- -- -- -- -- --  -- -- -- -- -- -- -- --
0020:    00                                              .              
```

#### Opcodes

```
  0: 0x0021 [0x00] END_REQSTACK()
```

### Event 65535.3

#### Metadata

| Field        | Value    |
|--------------|----------|
| Entrypoint   | 0x0022   |
| Data Size    | 20 bytes |
| Instructions | 3        |

```
      00 01 02 03 04 05 06 07  08 09 0A 0B 0C 0D 0E 0F
      -- -- -- -- -- -- -- --  -- -- -- -- -- -- -- --
0020:       37 03 80 04 80 05  80 06 80 79 00 F8 FF FF    7........y....
0030: 7F CD 20 03 01 00                                 .. ...          
```

#### Opcodes

```
  0: 0x0022 [0x37] UPDATE_EVENT_POSITION_AND_DIR: x=81.802*, z=52.983*, y=-0.315*, direction=67.0°*
  1: 0x002B [0x79] EventEntity looks at Raillefal (ID: 16982221/0x010320CD) (Basic look)
  2: 0x0035 [0x00] END_REQSTACK()
```

### Event 65535.4

#### Metadata

| Field        | Value    |
|--------------|----------|
| Entrypoint   | 0x0036   |
| Data Size    | 14 bytes |
| Instructions | 4        |

```
      00 01 02 03 04 05 06 07  08 09 0A 0B 0C 0D 0E 0F
      -- -- -- -- -- -- -- --  -- -- -- -- -- -- -- --
0030:                   32 07  80 1F 00 08 80 09 80 0A        2.........
0040: 80 1F 01 00                                       ....            
```

#### Opcodes

```
  0: 0x0036 [0x32] ExtData[1]->MainSpeed = 13* * 0.1
  1: 0x0039 [0x1F] MOVE_ENTITY: EventEntity moves to X=83.172*, Z=50.401*, Y=0.480*
  2: 0x0041 [0x1F] MOVE_ENTITY: Update entity position (mode=1)
  3: 0x0043 [0x00] END_REQSTACK()
```

### Event 65535.5

#### Metadata

| Field        | Value    |
|--------------|----------|
| Entrypoint   | 0x0044   |
| Data Size    | 21 bytes |
| Instructions | 5        |

```
      00 01 02 03 04 05 06 07  08 09 0A 0B 0C 0D 0E 0F
      -- -- -- -- -- -- -- --  -- -- -- -- -- -- -- --
0040:             1F 00 0B 80  0C 80 0D 80 1F 01 6F 4A      ..........oJ
0050: F0 FF FF 7F F1 20 03 01  00                       ..... ...       
```

#### Opcodes

```
  0: 0x0044 [0x1F] MOVE_ENTITY: EventEntity moves to X=79.935*, Z=47.714*, Y=0.385*
  1: 0x004C [0x1F] MOVE_ENTITY: Update entity position (mode=1)
  2: 0x004E [0x6F] WAIT_FRAME_DELAY: Yield until WaitTime reaches zero
  3: 0x004F [0x4A] LocalPlayer looks at Nadeey (ID: 16982257/0x010320F1)
  4: 0x0058 [0x00] END_REQSTACK()
```

### Event 65535.6

#### Metadata

| Field        | Value    |
|--------------|----------|
| Entrypoint   | 0x0059   |
| Data Size    | 24 bytes |
| Instructions | 6        |

```
      00 01 02 03 04 05 06 07  08 09 0A 0B 0C 0D 0E 0F
      -- -- -- -- -- -- -- --  -- -- -- -- -- -- -- --
0050:                             32 07 80 1F 00 0E 80           2......
0060: 0F 80 10 80 1F 01 1F 00  11 80 12 80 0A 80 1F 01  ................
0070: 00                                                .               
```

#### Opcodes

```
  0: 0x0059 [0x32] ExtData[1]->MainSpeed = 13* * 0.1
  1: 0x005C [0x1F] MOVE_ENTITY: EventEntity moves to X=78.677*, Z=53.391*, Y=-0.325*
  2: 0x0064 [0x1F] MOVE_ENTITY: Update entity position (mode=1)
  3: 0x0066 [0x1F] MOVE_ENTITY: EventEntity moves to X=78.496*, Z=50.865*, Y=0.480*
  4: 0x006E [0x1F] MOVE_ENTITY: Update entity position (mode=1)
  5: 0x0070 [0x00] END_REQSTACK()
```

### Event 65535.7

#### Metadata

| Field        | Value    |
|--------------|----------|
| Entrypoint   | 0x0071   |
| Data Size    | 10 bytes |
| Instructions | 2        |

```
      00 01 02 03 04 05 06 07  08 09 0A 0B 0C 0D 0E 0F
      -- -- -- -- -- -- -- --  -- -- -- -- -- -- -- --
0070:    37 11 80 12 80 0A 80  13 80 00                  7.........     
```

#### Opcodes

```
  0: 0x0071 [0x37] UPDATE_EVENT_POSITION_AND_DIR: x=78.496*, z=50.865*, y=0.480*, direction=94.0°*
  1: 0x007A [0x00] END_REQSTACK()
```

### Event 65535.8

#### Metadata

| Field        | Value    |
|--------------|----------|
| Entrypoint   | 0x007B   |
| Data Size    | 24 bytes |
| Instructions | 6        |

```
      00 01 02 03 04 05 06 07  08 09 0A 0B 0C 0D 0E 0F
      -- -- -- -- -- -- -- --  -- -- -- -- -- -- -- --
0070:                                   32 07 80 1F 00             2....
0080: 0B 80 0C 80 0D 80 1F 01  6F 4A F0 FF FF 7F F1 20  ........oJ..... 
0090: 03 01 00                                          ...             
```

#### Opcodes

```
  0: 0x007B [0x32] ExtData[1]->MainSpeed = 13* * 0.1
  1: 0x007E [0x1F] MOVE_ENTITY: EventEntity moves to X=79.935*, Z=47.714*, Y=0.385*
  2: 0x0086 [0x1F] MOVE_ENTITY: Update entity position (mode=1)
  3: 0x0088 [0x6F] WAIT_FRAME_DELAY: Yield until WaitTime reaches zero
  4: 0x0089 [0x4A] LocalPlayer looks at Nadeey (ID: 16982257/0x010320F1)
  5: 0x0092 [0x00] END_REQSTACK()
```

### Event 3026

#### Metadata

| Field        | Value   |
|--------------|---------|
| Entrypoint   | 0x0093  |
| Data Size    | 7 bytes |
| Instructions | 2       |

```
      00 01 02 03 04 05 06 07  08 09 0A 0B 0C 0D 0E 0F
      -- -- -- -- -- -- -- --  -- -- -- -- -- -- -- --
0090:          92 01 F8 FF FF  7F 00                       .......      
```

#### Opcodes

```
  0: 0x0093 [0x92] EventEntity->Render.Flags3 ^= 0x01
  1: 0x0099 [0x00] END_REQSTACK()
```

### Event 3033

#### Metadata

| Field        | Value   |
|--------------|---------|
| Entrypoint   | 0x009A  |
| Data Size    | 7 bytes |
| Instructions | 2       |

```
      00 01 02 03 04 05 06 07  08 09 0A 0B 0C 0D 0E 0F
      -- -- -- -- -- -- -- --  -- -- -- -- -- -- -- --
0090:                                92 01 F8 FF FF 7F            ......
00A0: 00                                                .               
```

#### Opcodes

```
  0: 0x009A [0x92] EventEntity->Render.Flags3 ^= 0x01
  1: 0x00A0 [0x00] END_REQSTACK()
```

### Event 251

#### Metadata

| Field        | Value    |
|--------------|----------|
| Entrypoint   | 0x00A1   |
| Data Size    | 13 bytes |
| Instructions | 7        |

```
      00 01 02 03 04 05 06 07  08 09 0A 0B 0C 0D 0E 0F
      -- -- -- -- -- -- -- --  -- -- -- -- -- -- -- --
00A0:    1E F0 FF FF 7F 6F 70  1D 00 80 23 21 00         .....op...#!.  
```

#### Opcodes

```
  0: 0x00A1 [0x1E] EventEntity looks at LocalPlayer and starts talking
  1: 0x00A6 [0x6F] WAIT_FRAME_DELAY: Yield until WaitTime reaches zero
  2: 0x00A7 [0x70] WAIT_ENTITY_RENDER_FLAG: Wait while EventEntity->Render.Flags3 bit 2 is set (cancel turn if not)
  3: 0x00A8 [0x1D] PRINT_EVENT_MESSAGE(message_id=9399*)
    → "Welcome to Walahra Temple. Our doors are always open to those seeking knowledge."
  4: 0x00AB [0x23] WAIT_FOR_DIALOG_INTERACTION
  5: 0x00AC [0x21] END_EVENT
  6: 0x00AD [0x00] END_REQSTACK()
```

### Event 3112

#### Metadata

| Field        | Value   |
|--------------|---------|
| Entrypoint   | 0x00AE  |
| Data Size    | 1 bytes |
| Instructions | 1       |

```
      00 01 02 03 04 05 06 07  08 09 0A 0B 0C 0D 0E 0F
      -- -- -- -- -- -- -- --  -- -- -- -- -- -- -- --
00A0:                                            00                   . 
```

#### Opcodes

```
  0: 0x00AE [0x00] END_REQSTACK()
```

### Event 65535.9

#### Metadata

| Field        | Value    |
|--------------|----------|
| Entrypoint   | 0x00AF   |
| Data Size    | 14 bytes |
| Instructions | 4        |

```
      00 01 02 03 04 05 06 07  08 09 0A 0B 0C 0D 0E 0F
      -- -- -- -- -- -- -- --  -- -- -- -- -- -- -- --
00A0:                                               32                 2
00B0: 07 80 1F 00 14 80 15 80  10 80 1F 01 00           .............   
```

#### Opcodes

```
  0: 0x00AF [0x32] ExtData[1]->MainSpeed = 13* * 0.1
  1: 0x00B2 [0x1F] MOVE_ENTITY: EventEntity moves to X=79.988*, Z=56.662*, Y=-0.325*
  2: 0x00BA [0x1F] MOVE_ENTITY: Update entity position (mode=1)
  3: 0x00BC [0x00] END_REQSTACK()
```

### Event 65535.10

#### Metadata

| Field        | Value    |
|--------------|----------|
| Entrypoint   | 0x00BD   |
| Data Size    | 22 bytes |
| Instructions | 6        |

```
      00 01 02 03 04 05 06 07  08 09 0A 0B 0C 0D 0E 0F
      -- -- -- -- -- -- -- --  -- -- -- -- -- -- -- --
00B0:                                         32 07 80               2..
00C0: 1F 00 16 80 17 80 10 80  1F 01 1E F0 FF FF 7F 1C  ................
00D0: 18 80 00                                          ...             
```

#### Opcodes

```
  0: 0x00BD [0x32] ExtData[1]->MainSpeed = 13* * 0.1
  1: 0x00C0 [0x1F] MOVE_ENTITY: EventEntity moves to X=80.027*, Z=55.072*, Y=-0.325*
  2: 0x00C8 [0x1F] MOVE_ENTITY: Update entity position (mode=1)
  3: 0x00CA [0x1E] EventEntity looks at LocalPlayer and starts talking
  4: 0x00CF [0x1C] WAIT(30* ticks)
  5: 0x00D2 [0x00] END_REQSTACK()
```

### Event 65535.11

#### Metadata

| Field        | Value    |
|--------------|----------|
| Entrypoint   | 0x00D3   |
| Data Size    | 58 bytes |
| Instructions | 12       |

```
      00 01 02 03 04 05 06 07  08 09 0A 0B 0C 0D 0E 0F
      -- -- -- -- -- -- -- --  -- -- -- -- -- -- -- --
00D0:          32 07 80 1F 00  19 80 1A 80 05 80 1F 01     2............
00E0: 1F 00 1B 80 1C 80 0A 80  1F 01 1F 00 1D 80 1E 80  ................
00F0: 0A 80 1F 01 4A F0 FF FF  7F F1 20 03 01 1C 18 80  ....J..... .....
0100: 4A CE 20 03 01 F1 20 03  01 1C 18 80 00           J. ... ......   
```

#### Opcodes

```
  0: 0x00D3 [0x32] ExtData[1]->MainSpeed = 13* * 0.1
  1: 0x00D6 [0x1F] MOVE_ENTITY: EventEntity moves to X=78.194*, Z=54.303*, Y=-0.315*
  2: 0x00DE [0x1F] MOVE_ENTITY: Update entity position (mode=1)
  3: 0x00E0 [0x1F] MOVE_ENTITY: EventEntity moves to X=78.570*, Z=51.059*, Y=0.480*
  4: 0x00E8 [0x1F] MOVE_ENTITY: Update entity position (mode=1)
  5: 0x00EA [0x1F] MOVE_ENTITY: EventEntity moves to X=79.901*, Z=48.730*, Y=0.480*
  6: 0x00F2 [0x1F] MOVE_ENTITY: Update entity position (mode=1)
  7: 0x00F4 [0x4A] LocalPlayer looks at Nadeey (ID: 16982257/0x010320F1)
  8: 0x00FD [0x1C] WAIT(30* ticks)
  9: 0x0100 [0x4A] Gessho (ID: 16982222/0x010320CE) looks at Nadeey (ID: 16982257/0x010320F1)
 10: 0x0109 [0x1C] WAIT(30* ticks)
 11: 0x010C [0x00] END_REQSTACK()
```

### Event 65535.12

#### Metadata

| Field        | Value    |
|--------------|----------|
| Entrypoint   | 0x010D   |
| Data Size    | 14 bytes |
| Instructions | 4        |

```
      00 01 02 03 04 05 06 07  08 09 0A 0B 0C 0D 0E 0F
      -- -- -- -- -- -- -- --  -- -- -- -- -- -- -- --
0100:                                         32 07 80               2..
0110: 1F 00 1F 80 20 80 21 80  1F 01 00                 .... .!....     
```

#### Opcodes

```
  0: 0x010D [0x32] ExtData[1]->MainSpeed = 13* * 0.1
  1: 0x0110 [0x1F] MOVE_ENTITY: EventEntity moves to X=104.107*, Z=120.124*, Y=2.000*
  2: 0x0118 [0x1F] MOVE_ENTITY: Update entity position (mode=1)
  3: 0x011A [0x00] END_REQSTACK()
```

### Event 65535.13

#### Metadata

| Field        | Value    |
|--------------|----------|
| Entrypoint   | 0x011B   |
| Data Size    | 14 bytes |
| Instructions | 4        |

```
      00 01 02 03 04 05 06 07  08 09 0A 0B 0C 0D 0E 0F
      -- -- -- -- -- -- -- --  -- -- -- -- -- -- -- --
0110:                                   32 07 80 1F 00             2....
0120: 22 80 23 80 21 80 1F 01  00                       ".#.!....       
```

#### Opcodes

```
  0: 0x011B [0x32] ExtData[1]->MainSpeed = 13* * 0.1
  1: 0x011E [0x1F] MOVE_ENTITY: EventEntity moves to X=101.835*, Z=120.326*, Y=2.000*
  2: 0x0126 [0x1F] MOVE_ENTITY: Update entity position (mode=1)
  3: 0x0128 [0x00] END_REQSTACK()
```

### Event 65535.14

#### Metadata

| Field        | Value    |
|--------------|----------|
| Entrypoint   | 0x0129   |
| Data Size    | 19 bytes |
| Instructions | 5        |

```
      00 01 02 03 04 05 06 07  08 09 0A 0B 0C 0D 0E 0F
      -- -- -- -- -- -- -- --  -- -- -- -- -- -- -- --
0120:                             32 07 80 1F 00 24 80           2....$.
0130: 25 80 0A 80 1F 01 1E C5  20 03 01 00              %....... ...    
```

#### Opcodes

```
  0: 0x0129 [0x32] ExtData[1]->MainSpeed = 13* * 0.1
  1: 0x012C [0x1F] MOVE_ENTITY: EventEntity moves to X=80.709*, Z=48.561*, Y=0.480*
  2: 0x0134 [0x1F] MOVE_ENTITY: Update entity position (mode=1)
  3: 0x0136 [0x1E] EventEntity looks at Rishfee (ID: 16982213/0x010320C5) and starts talking
  4: 0x013B [0x00] END_REQSTACK()
```

### Event 65535.15

#### Metadata

| Field        | Value    |
|--------------|----------|
| Entrypoint   | 0x013C   |
| Data Size    | 14 bytes |
| Instructions | 4        |

```
      00 01 02 03 04 05 06 07  08 09 0A 0B 0C 0D 0E 0F
      -- -- -- -- -- -- -- --  -- -- -- -- -- -- -- --
0130:                                      32 07 80 1F              2...
0140: 00 26 80 27 80 0A 80 1F  01 00                    .&.'......      
```

#### Opcodes

```
  0: 0x013C [0x32] ExtData[1]->MainSpeed = 13* * 0.1
  1: 0x013F [0x1F] MOVE_ENTITY: EventEntity moves to X=81.754*, Z=48.662*, Y=0.480*
  2: 0x0147 [0x1F] MOVE_ENTITY: Update entity position (mode=1)
  3: 0x0149 [0x00] END_REQSTACK()
```

### Event 65535.16

#### Metadata

| Field        | Value   |
|--------------|---------|
| Entrypoint   | 0x014A  |
| Data Size    | 1 bytes |
| Instructions | 1       |

```
      00 01 02 03 04 05 06 07  08 09 0A 0B 0C 0D 0E 0F
      -- -- -- -- -- -- -- --  -- -- -- -- -- -- -- --
0140:                                00                           .     
```

#### Opcodes

```
  0: 0x014A [0x00] END_REQSTACK()
```
