# 16982282 - Faihal

## Common Data

| Field            | Value                         |
|------------------|-------------------------------|
| Zone             | Aht Urhgan Whitegate (ID: 50) |
| Block Size       | 992 bytes                     |
| Total Events     | 35                            |
| References Count | 72                            |

## List of Events

| Event ID                    | Entrypoint   |   Size |   Instructions |
|-----------------------------|--------------|--------|----------------|
| [65535](#event-65535)       | 0x0000       |      1 |              1 |
| [808](#event-808)           | 0x0001       |      1 |              1 |
| [65535.1](#event-65535-1)   | 0x0002       |     10 |              2 |
| [809](#event-809)           | 0x000C       |      1 |              1 |
| [65535.2](#event-65535-2)   | 0x000D       |     10 |              2 |
| [65535.3](#event-65535-3)   | 0x0017       |     14 |              4 |
| [65535.4](#event-65535-4)   | 0x0025       |     23 |              5 |
| [65535.5](#event-65535-5)   | 0x003C       |     14 |              4 |
| [65535.6](#event-65535-6)   | 0x004A       |     23 |              5 |
| [65535.7](#event-65535-7)   | 0x0061       |     14 |              4 |
| [65535.8](#event-65535-8)   | 0x006F       |     24 |              5 |
| [65535.9](#event-65535-9)   | 0x0087       |     14 |              4 |
| [810](#event-810)           | 0x0095       |      1 |              1 |
| [65535.10](#event-65535-10) | 0x0096       |     10 |              2 |
| [65535.11](#event-65535-11) | 0x00A0       |     14 |              4 |
| [65535.12](#event-65535-12) | 0x00AE       |     23 |              5 |
| [65535.13](#event-65535-13) | 0x00C5       |     19 |              3 |
| [65535.14](#event-65535-14) | 0x00D8       |     19 |              3 |
| [65535.15](#event-65535-15) | 0x00EB       |     24 |              6 |
| [811](#event-811)           | 0x0103       |      1 |              1 |
| [65535.16](#event-65535-16) | 0x0104       |     16 |              3 |
| [65535.17](#event-65535-17) | 0x0114       |     32 |              7 |
| [65535.18](#event-65535-18) | 0x0134       |     16 |              3 |
| [65535.19](#event-65535-19) | 0x0144       |     25 |              4 |
| [812](#event-812)           | 0x015D       |      1 |              1 |
| [65535.20](#event-65535-20) | 0x015E       |     19 |              3 |
| [65535.21](#event-65535-21) | 0x0171       |     23 |              5 |
| [65535.22](#event-65535-22) | 0x0188       |     23 |              5 |
| [65535.23](#event-65535-23) | 0x019F       |     23 |              4 |
| [65535.24](#event-65535-24) | 0x01B6       |     19 |              3 |
| [65535.25](#event-65535-25) | 0x01C9       |     27 |              4 |
| [813](#event-813)           | 0x01E4       |      1 |              1 |
| [65535.26](#event-65535-26) | 0x01E5       |     10 |              2 |
| [65535.27](#event-65535-27) | 0x01EF       |     33 |              6 |
| [65535.28](#event-65535-28) | 0x0210       |     18 |              2 |

## DAT References (imed_data)

|   Index | Hex Value   |   Dec Value |
|---------|-------------|-------------|
|       0 | 0x10EFD     |       69373 |
|       1 | 0x1E39      |        7737 |
|       2 | 0x0000      |           0 |
|       3 | 0x04B2      |        1202 |
|       4 | 0x10ED3     |       69331 |
|       5 | 0x1C9C      |        7324 |
|       6 | 0x07B5      |        1973 |
|       7 | 0x000D      |          13 |
|       8 | 0x10EC7     |       69319 |
|       9 | 0x1D02      |        7426 |
|      10 | 0x11476     |       70774 |
|      11 | 0x1E85      |        7813 |
|      12 | 0x114D0     |       70864 |
|      13 | 0x1B36      |        6966 |
|      14 | 0x11558     |       71000 |
|      15 | 0x1EAD      |        7853 |
|      16 | 0x11989     |       72073 |
|      17 | 0x0B24      |        2852 |
|      18 | 0x11C21     |       72737 |
|      19 | 0x153C      |        5436 |
|      20 | 0x139E4     |       80356 |
|      21 | 0xFFFF9CED  |  4294941933 |
|      22 | 0x668D      |       26253 |
|      23 | 0x0194      |         404 |
|      24 | 0x005D      |          93 |
|      25 | 0x5D11      |       23825 |
|      26 | 0x0BD0      |        3024 |
|      27 | 0x5AD6      |       23254 |
|      28 | 0x31F3      |       12787 |
|      29 | 0x58D5      |       22741 |
|      30 | 0x3F13      |       16147 |
|      31 | 0x3D12      |       15634 |
|      32 | 0x40B6      |       16566 |
|      33 | 0x004A      |          74 |
|      34 | 0x0AD2      |        2770 |
|      35 | 0x5DAD      |       23981 |
|      36 | 0x0731      |        1841 |
|      37 | 0xA2DC      |       41692 |
|      38 | 0x011B      |         283 |
|      39 | 0xFFFEA6E6  |  4294878950 |
|      40 | 0xFFFFD64F  |  4294956623 |
|      41 | 0x03F9      |        1017 |
|      42 | 0xFFFEA607  |  4294878727 |
|      43 | 0xFFFFE19F  |  4294959519 |
|      44 | 0x003C      |          60 |
|      45 | 0xFFFE9AB0  |  4294875824 |
|      46 | 0xFFFFF7A8  |  4294965160 |
|      47 | 0x0FB0      |        4016 |
|      48 | 0x07AB      |        1963 |
|      49 | 0xFFFEBC77  |  4294884471 |
|      50 | 0xFFFEC4DE  |  4294886622 |
|      51 | 0x0821      |        2081 |
|      52 | 0xFFFEC3CF  |  4294886351 |
|      53 | 0xFFFEB751  |  4294883153 |
|      54 | 0xFFFEDC17  |  4294892567 |
|      55 | 0xFFFEAF5E  |  4294881118 |
|      56 | 0xFFFEDEC4  |  4294893252 |
|      57 | 0xFFFEAF7F  |  4294881151 |
|      58 | 0x07EF      |        2031 |
|      59 | 0x044C      |        1100 |
|      60 | 0xFFFEC51E  |  4294886686 |
|      61 | 0xFFFEBAFA  |  4294884090 |
|      62 | 0x0BB8      |        3000 |
|      63 | 0x34DC      |       13532 |
|      64 | 0xFFFE7136  |  4294865206 |
|      65 | 0x07CF      |        1999 |
|      66 | 0x03E8      |        1000 |
|      67 | 0x2B07      |       11015 |
|      68 | 0xFFFE7EA1  |  4294868641 |
|      69 | 0x2CC5      |       11461 |
|      70 | 0xFFFE7DD3  |  4294868435 |
|      71 | 0x05D4      |        1492 |

## Events

### Event 65535

#### Metadata

| Field        | Value   |
|--------------|---------|
| Entrypoint   | 0x0000  |
| Data Size    | 1 bytes |
| Instructions | 1       |

```
      00 01 02 03 04 05 06 07  08 09 0A 0B 0C 0D 0E 0F
      -- -- -- -- -- -- -- --  -- -- -- -- -- -- -- --
0000: 00                                                .               
```

#### Opcodes

```
  0: 0x0000 [0x00] END_REQSTACK()
```

### Event 808

#### Metadata

| Field        | Value   |
|--------------|---------|
| Entrypoint   | 0x0001  |
| Data Size    | 1 bytes |
| Instructions | 1       |

```
      00 01 02 03 04 05 06 07  08 09 0A 0B 0C 0D 0E 0F
      -- -- -- -- -- -- -- --  -- -- -- -- -- -- -- --
0000:    00                                              .              
```

#### Opcodes

```
  0: 0x0001 [0x00] END_REQSTACK()
```

### Event 65535.1

#### Metadata

| Field        | Value    |
|--------------|----------|
| Entrypoint   | 0x0002   |
| Data Size    | 10 bytes |
| Instructions | 2        |

```
      00 01 02 03 04 05 06 07  08 09 0A 0B 0C 0D 0E 0F
      -- -- -- -- -- -- -- --  -- -- -- -- -- -- -- --
0000:       37 00 80 01 80 02  80 03 80 00                7.........    
```

#### Opcodes

```
  0: 0x0002 [0x37] UPDATE_EVENT_POSITION_AND_DIR: x=69.373*, z=7.737*, y=0.000*, direction=105.6°*
  1: 0x000B [0x00] END_REQSTACK()
```

### Event 809

#### Metadata

| Field        | Value   |
|--------------|---------|
| Entrypoint   | 0x000C  |
| Data Size    | 1 bytes |
| Instructions | 1       |

```
      00 01 02 03 04 05 06 07  08 09 0A 0B 0C 0D 0E 0F
      -- -- -- -- -- -- -- --  -- -- -- -- -- -- -- --
0000:                                      00                       .   
```

#### Opcodes

```
  0: 0x000C [0x00] END_REQSTACK()
```

### Event 65535.2

#### Metadata

| Field        | Value    |
|--------------|----------|
| Entrypoint   | 0x000D   |
| Data Size    | 10 bytes |
| Instructions | 2        |

```
      00 01 02 03 04 05 06 07  08 09 0A 0B 0C 0D 0E 0F
      -- -- -- -- -- -- -- --  -- -- -- -- -- -- -- --
0000:                                         37 04 80               7..
0010: 05 80 02 80 06 80 00                              .......         
```

#### Opcodes

```
  0: 0x000D [0x37] UPDATE_EVENT_POSITION_AND_DIR: x=69.331*, z=7.324*, y=0.000*, direction=173.4°*
  1: 0x0016 [0x00] END_REQSTACK()
```

### Event 65535.3

#### Metadata

| Field        | Value    |
|--------------|----------|
| Entrypoint   | 0x0017   |
| Data Size    | 14 bytes |
| Instructions | 4        |

```
      00 01 02 03 04 05 06 07  08 09 0A 0B 0C 0D 0E 0F
      -- -- -- -- -- -- -- --  -- -- -- -- -- -- -- --
0010:                      32  07 80 1F 00 08 80 09 80         2........
0020: 02 80 1F 01 00                                    .....           
```

#### Opcodes

```
  0: 0x0017 [0x32] ExtData[1]->MainSpeed = 13* * 0.1
  1: 0x001A [0x1F] MOVE_ENTITY: EventEntity moves to X=69.319*, Z=7.426*, Y=0.000*
  2: 0x0022 [0x1F] MOVE_ENTITY: Update entity position (mode=1)
  3: 0x0024 [0x00] END_REQSTACK()
```

### Event 65535.4

#### Metadata

| Field        | Value    |
|--------------|----------|
| Entrypoint   | 0x0025   |
| Data Size    | 23 bytes |
| Instructions | 5        |

```
      00 01 02 03 04 05 06 07  08 09 0A 0B 0C 0D 0E 0F
      -- -- -- -- -- -- -- --  -- -- -- -- -- -- -- --
0020:                32 07 80  1F 00 0A 80 0B 80 02 80       2..........
0030: 1F 01 4A 0A 21 03 01 09  21 03 01 00              ..J.!...!...    
```

#### Opcodes

```
  0: 0x0025 [0x32] ExtData[1]->MainSpeed = 13* * 0.1
  1: 0x0028 [0x1F] MOVE_ENTITY: EventEntity moves to X=70.774*, Z=7.813*, Y=0.000*
  2: 0x0030 [0x1F] MOVE_ENTITY: Update entity position (mode=1)
  3: 0x0032 [0x4A] Faihal (ID: 16982282/0x0103210A) looks at Bernahn (ID: 16982281/0x01032109)
  4: 0x003B [0x00] END_REQSTACK()
```

### Event 65535.5

#### Metadata

| Field        | Value    |
|--------------|----------|
| Entrypoint   | 0x003C   |
| Data Size    | 14 bytes |
| Instructions | 4        |

```
      00 01 02 03 04 05 06 07  08 09 0A 0B 0C 0D 0E 0F
      -- -- -- -- -- -- -- --  -- -- -- -- -- -- -- --
0030:                                      32 07 80 1F              2...
0040: 00 0C 80 0D 80 02 80 1F  01 00                    ..........      
```

#### Opcodes

```
  0: 0x003C [0x32] ExtData[1]->MainSpeed = 13* * 0.1
  1: 0x003F [0x1F] MOVE_ENTITY: EventEntity moves to X=70.864*, Z=6.966*, Y=0.000*
  2: 0x0047 [0x1F] MOVE_ENTITY: Update entity position (mode=1)
  3: 0x0049 [0x00] END_REQSTACK()
```

### Event 65535.6

#### Metadata

| Field        | Value    |
|--------------|----------|
| Entrypoint   | 0x004A   |
| Data Size    | 23 bytes |
| Instructions | 5        |

```
      00 01 02 03 04 05 06 07  08 09 0A 0B 0C 0D 0E 0F
      -- -- -- -- -- -- -- --  -- -- -- -- -- -- -- --
0040:                                32 07 80 1F 00 0E            2.....
0050: 80 0F 80 02 80 1F 01 4A  0A 21 03 01 F0 FF FF 7F  .......J.!......
0060: 00                                                .               
```

#### Opcodes

```
  0: 0x004A [0x32] ExtData[1]->MainSpeed = 13* * 0.1
  1: 0x004D [0x1F] MOVE_ENTITY: EventEntity moves to X=71.000*, Z=7.853*, Y=0.000*
  2: 0x0055 [0x1F] MOVE_ENTITY: Update entity position (mode=1)
  3: 0x0057 [0x4A] Faihal (ID: 16982282/0x0103210A) looks at LocalPlayer
  4: 0x0060 [0x00] END_REQSTACK()
```

### Event 65535.7

#### Metadata

| Field        | Value    |
|--------------|----------|
| Entrypoint   | 0x0061   |
| Data Size    | 14 bytes |
| Instructions | 4        |

```
      00 01 02 03 04 05 06 07  08 09 0A 0B 0C 0D 0E 0F
      -- -- -- -- -- -- -- --  -- -- -- -- -- -- -- --
0060:    32 07 80 1F 00 10 80  11 80 02 80 1F 01 00      2............. 
```

#### Opcodes

```
  0: 0x0061 [0x32] ExtData[1]->MainSpeed = 13* * 0.1
  1: 0x0064 [0x1F] MOVE_ENTITY: EventEntity moves to X=72.073*, Z=2.852*, Y=0.000*
  2: 0x006C [0x1F] MOVE_ENTITY: Update entity position (mode=1)
  3: 0x006E [0x00] END_REQSTACK()
```

### Event 65535.8

#### Metadata

| Field        | Value    |
|--------------|----------|
| Entrypoint   | 0x006F   |
| Data Size    | 24 bytes |
| Instructions | 5        |

```
      00 01 02 03 04 05 06 07  08 09 0A 0B 0C 0D 0E 0F
      -- -- -- -- -- -- -- --  -- -- -- -- -- -- -- --
0060:                                               32                 2
0070: 07 80 1F 00 12 80 13 80  02 80 1F 01 79 00 0A 21  ............y..!
0080: 03 01 F0 FF FF 7F 00                              .......         
```

#### Opcodes

```
  0: 0x006F [0x32] ExtData[1]->MainSpeed = 13* * 0.1
  1: 0x0072 [0x1F] MOVE_ENTITY: EventEntity moves to X=72.737*, Z=5.436*, Y=0.000*
  2: 0x007A [0x1F] MOVE_ENTITY: Update entity position (mode=1)
  3: 0x007C [0x79] Faihal (ID: 16982282/0x0103210A) looks at LocalPlayer (Basic look)
  4: 0x0086 [0x00] END_REQSTACK()
```

### Event 65535.9

#### Metadata

| Field        | Value    |
|--------------|----------|
| Entrypoint   | 0x0087   |
| Data Size    | 14 bytes |
| Instructions | 4        |

```
      00 01 02 03 04 05 06 07  08 09 0A 0B 0C 0D 0E 0F
      -- -- -- -- -- -- -- --  -- -- -- -- -- -- -- --
0080:                      32  07 80 1F 00 14 80 15 80         2........
0090: 02 80 1F 01 00                                    .....           
```

#### Opcodes

```
  0: 0x0087 [0x32] ExtData[1]->MainSpeed = 13* * 0.1
  1: 0x008A [0x1F] MOVE_ENTITY: EventEntity moves to X=80.356*, Z=-25.363*, Y=0.000*
  2: 0x0092 [0x1F] MOVE_ENTITY: Update entity position (mode=1)
  3: 0x0094 [0x00] END_REQSTACK()
```

### Event 810

#### Metadata

| Field        | Value   |
|--------------|---------|
| Entrypoint   | 0x0095  |
| Data Size    | 1 bytes |
| Instructions | 1       |

```
      00 01 02 03 04 05 06 07  08 09 0A 0B 0C 0D 0E 0F
      -- -- -- -- -- -- -- --  -- -- -- -- -- -- -- --
0090:                00                                      .          
```

#### Opcodes

```
  0: 0x0095 [0x00] END_REQSTACK()
```

### Event 65535.10

#### Metadata

| Field        | Value    |
|--------------|----------|
| Entrypoint   | 0x0096   |
| Data Size    | 10 bytes |
| Instructions | 2        |

```
      00 01 02 03 04 05 06 07  08 09 0A 0B 0C 0D 0E 0F
      -- -- -- -- -- -- -- --  -- -- -- -- -- -- -- --
0090:                   37 16  80 17 80 02 80 18 80 00        7.........
```

#### Opcodes

```
  0: 0x0096 [0x37] UPDATE_EVENT_POSITION_AND_DIR: x=26.253*, z=0.404*, y=0.000*, direction=8.2°*
  1: 0x009F [0x00] END_REQSTACK()
```

### Event 65535.11

#### Metadata

| Field        | Value    |
|--------------|----------|
| Entrypoint   | 0x00A0   |
| Data Size    | 14 bytes |
| Instructions | 4        |

```
      00 01 02 03 04 05 06 07  08 09 0A 0B 0C 0D 0E 0F
      -- -- -- -- -- -- -- --  -- -- -- -- -- -- -- --
00A0: 32 07 80 1F 00 19 80 1A  80 02 80 1F 01 00        2.............  
```

#### Opcodes

```
  0: 0x00A0 [0x32] ExtData[1]->MainSpeed = 13* * 0.1
  1: 0x00A3 [0x1F] MOVE_ENTITY: EventEntity moves to X=23.825*, Z=3.024*, Y=0.000*
  2: 0x00AB [0x1F] MOVE_ENTITY: Update entity position (mode=1)
  3: 0x00AD [0x00] END_REQSTACK()
```

### Event 65535.12

#### Metadata

| Field        | Value    |
|--------------|----------|
| Entrypoint   | 0x00AE   |
| Data Size    | 23 bytes |
| Instructions | 5        |

```
      00 01 02 03 04 05 06 07  08 09 0A 0B 0C 0D 0E 0F
      -- -- -- -- -- -- -- --  -- -- -- -- -- -- -- --
00A0:                                            32 07                2.
00B0: 80 37 1B 80 1C 80 02 80  18 80 1F 00 1D 80 1E 80  .7..............
00C0: 02 80 1F 01 00                                    .....           
```

#### Opcodes

```
  0: 0x00AE [0x32] ExtData[1]->MainSpeed = 13* * 0.1
  1: 0x00B1 [0x37] UPDATE_EVENT_POSITION_AND_DIR: x=23.254*, z=12.787*, y=0.000*, direction=8.2°*
  2: 0x00BA [0x1F] MOVE_ENTITY: EventEntity moves to X=22.741*, Z=16.147*, Y=0.000*
  3: 0x00C2 [0x1F] MOVE_ENTITY: Update entity position (mode=1)
  4: 0x00C4 [0x00] END_REQSTACK()
```

### Event 65535.13

#### Metadata

| Field        | Value    |
|--------------|----------|
| Entrypoint   | 0x00C5   |
| Data Size    | 19 bytes |
| Instructions | 3        |

```
      00 01 02 03 04 05 06 07  08 09 0A 0B 0C 0D 0E 0F
      -- -- -- -- -- -- -- --  -- -- -- -- -- -- -- --
00C0:                37 1F 80  20 80 02 80 21 80 4A 0A       7.. ...!.J.
00D0: 21 03 01 F0 FF FF 7F 00                           !.......        
```

#### Opcodes

```
  0: 0x00C5 [0x37] UPDATE_EVENT_POSITION_AND_DIR: x=15.634*, z=16.566*, y=0.000*, direction=6.5°*
  1: 0x00CE [0x4A] Faihal (ID: 16982282/0x0103210A) looks at LocalPlayer
  2: 0x00D7 [0x00] END_REQSTACK()
```

### Event 65535.14

#### Metadata

| Field        | Value    |
|--------------|----------|
| Entrypoint   | 0x00D8   |
| Data Size    | 19 bytes |
| Instructions | 3        |

```
      00 01 02 03 04 05 06 07  08 09 0A 0B 0C 0D 0E 0F
      -- -- -- -- -- -- -- --  -- -- -- -- -- -- -- --
00D0:                          37 19 80 1A 80 02 80 22          7......"
00E0: 80 4A 0A 21 03 01 F0 FF  FF 7F 00                 .J.!.......     
```

#### Opcodes

```
  0: 0x00D8 [0x37] UPDATE_EVENT_POSITION_AND_DIR: x=23.825*, z=3.024*, y=0.000*, direction=243.4°*
  1: 0x00E1 [0x4A] Faihal (ID: 16982282/0x0103210A) looks at LocalPlayer
  2: 0x00EA [0x00] END_REQSTACK()
```

### Event 65535.15

#### Metadata

| Field        | Value    |
|--------------|----------|
| Entrypoint   | 0x00EB   |
| Data Size    | 24 bytes |
| Instructions | 6        |

```
      00 01 02 03 04 05 06 07  08 09 0A 0B 0C 0D 0E 0F
      -- -- -- -- -- -- -- --  -- -- -- -- -- -- -- --
00E0:                                   32 07 80 1F 00             2....
00F0: 23 80 24 80 02 80 1F 01  1F 00 25 80 26 80 02 80  #.$.......%.&...
0100: 1F 01 00                                          ...             
```

#### Opcodes

```
  0: 0x00EB [0x32] ExtData[1]->MainSpeed = 13* * 0.1
  1: 0x00EE [0x1F] MOVE_ENTITY: EventEntity moves to X=23.981*, Z=1.841*, Y=0.000*
  2: 0x00F6 [0x1F] MOVE_ENTITY: Update entity position (mode=1)
  3: 0x00F8 [0x1F] MOVE_ENTITY: EventEntity moves to X=41.692*, Z=0.283*, Y=0.000*
  4: 0x0100 [0x1F] MOVE_ENTITY: Update entity position (mode=1)
  5: 0x0102 [0x00] END_REQSTACK()
```

### Event 811

#### Metadata

| Field        | Value   |
|--------------|---------|
| Entrypoint   | 0x0103  |
| Data Size    | 1 bytes |
| Instructions | 1       |

```
      00 01 02 03 04 05 06 07  08 09 0A 0B 0C 0D 0E 0F
      -- -- -- -- -- -- -- --  -- -- -- -- -- -- -- --
0100:          00                                          .            
```

#### Opcodes

```
  0: 0x0103 [0x00] END_REQSTACK()
```

### Event 65535.16

#### Metadata

| Field        | Value    |
|--------------|----------|
| Entrypoint   | 0x0104   |
| Data Size    | 16 bytes |
| Instructions | 3        |

```
      00 01 02 03 04 05 06 07  08 09 0A 0B 0C 0D 0E 0F
      -- -- -- -- -- -- -- --  -- -- -- -- -- -- -- --
0100:             4E 01 0A 21  03 01 37 27 80 28 80 02      N..!..7'.(..
0110: 80 29 80 00                                       .)..            
```

#### Opcodes

```
  0: 0x0104 [0x4E] SET_ENTITY_HIDE_FLAG: Hide Faihal (ID: 16982282/0x0103210A)
  1: 0x010A [0x37] UPDATE_EVENT_POSITION_AND_DIR: x=-88.346*, z=-10.673*, y=0.000*, direction=89.4°*
  2: 0x0113 [0x00] END_REQSTACK()
```

### Event 65535.17

#### Metadata

| Field        | Value    |
|--------------|----------|
| Entrypoint   | 0x0114   |
| Data Size    | 32 bytes |
| Instructions | 7        |

```
      00 01 02 03 04 05 06 07  08 09 0A 0B 0C 0D 0E 0F
      -- -- -- -- -- -- -- --  -- -- -- -- -- -- -- --
0110:             4E 00 0A 21  03 01 32 07 80 1F 00 2A      N..!..2....*
0120: 80 2B 80 02 80 1F 01 4A  0A 21 03 01 0C 21 03 01  .+.....J.!...!..
0130: 1C 2C 80 00                                       .,..            
```

#### Opcodes

```
  0: 0x0114 [0x4E] SET_ENTITY_HIDE_FLAG: Show Faihal (ID: 16982282/0x0103210A)
  1: 0x011A [0x32] ExtData[1]->MainSpeed = 13* * 0.1
  2: 0x011D [0x1F] MOVE_ENTITY: EventEntity moves to X=-88.569*, Z=-7.777*, Y=0.000*
  3: 0x0125 [0x1F] MOVE_ENTITY: Update entity position (mode=1)
  4: 0x0127 [0x4A] Faihal (ID: 16982282/0x0103210A) looks at Kobdyu (ID: 16982284/0x0103210C)
  5: 0x0130 [0x1C] WAIT(60* ticks)
  6: 0x0133 [0x00] END_REQSTACK()
```

### Event 65535.18

#### Metadata

| Field        | Value    |
|--------------|----------|
| Entrypoint   | 0x0134   |
| Data Size    | 16 bytes |
| Instructions | 3        |

```
      00 01 02 03 04 05 06 07  08 09 0A 0B 0C 0D 0E 0F
      -- -- -- -- -- -- -- --  -- -- -- -- -- -- -- --
0130:             4E 00 0A 21  03 01 37 2D 80 2E 80 02      N..!..7-....
0140: 80 2F 80 00                                       ./..            
```

#### Opcodes

```
  0: 0x0134 [0x4E] SET_ENTITY_HIDE_FLAG: Show Faihal (ID: 16982282/0x0103210A)
  1: 0x013A [0x37] UPDATE_EVENT_POSITION_AND_DIR: x=-91.472*, z=-2.136*, y=0.000*, direction=353.0°*
  2: 0x0143 [0x00] END_REQSTACK()
```

### Event 65535.19

#### Metadata

| Field        | Value    |
|--------------|----------|
| Entrypoint   | 0x0144   |
| Data Size    | 25 bytes |
| Instructions | 4        |

```
      00 01 02 03 04 05 06 07  08 09 0A 0B 0C 0D 0E 0F
      -- -- -- -- -- -- -- --  -- -- -- -- -- -- -- --
0140:             4E 00 0A 21  03 01 37 2A 80 2B 80 02      N..!..7*.+..
0150: 80 30 80 4A 0A 21 03 01  F0 FF FF 7F 00           .0.J.!.......   
```

#### Opcodes

```
  0: 0x0144 [0x4E] SET_ENTITY_HIDE_FLAG: Show Faihal (ID: 16982282/0x0103210A)
  1: 0x014A [0x37] UPDATE_EVENT_POSITION_AND_DIR: x=-88.569*, z=-7.777*, y=0.000*, direction=172.5°*
  2: 0x0153 [0x4A] Faihal (ID: 16982282/0x0103210A) looks at LocalPlayer
  3: 0x015C [0x00] END_REQSTACK()
```

### Event 812

#### Metadata

| Field        | Value   |
|--------------|---------|
| Entrypoint   | 0x015D  |
| Data Size    | 1 bytes |
| Instructions | 1       |

```
      00 01 02 03 04 05 06 07  08 09 0A 0B 0C 0D 0E 0F
      -- -- -- -- -- -- -- --  -- -- -- -- -- -- -- --
0150:                                         00                     .  
```

#### Opcodes

```
  0: 0x015D [0x00] END_REQSTACK()
```

### Event 65535.20

#### Metadata

| Field        | Value    |
|--------------|----------|
| Entrypoint   | 0x015E   |
| Data Size    | 19 bytes |
| Instructions | 3        |

```
      00 01 02 03 04 05 06 07  08 09 0A 0B 0C 0D 0E 0F
      -- -- -- -- -- -- -- --  -- -- -- -- -- -- -- --
0150:                                            37 31                71
0160: 80 32 80 02 80 33 80 4A  0A 21 03 01 0D 21 03 01  .2...3.J.!...!..
0170: 00                                                .               
```

#### Opcodes

```
  0: 0x015E [0x37] UPDATE_EVENT_POSITION_AND_DIR: x=-82.825*, z=-80.674*, y=0.000*, direction=182.9°*
  1: 0x0167 [0x4A] Faihal (ID: 16982282/0x0103210A) looks at Deminza (ID: 16982285/0x0103210D)
  2: 0x0170 [0x00] END_REQSTACK()
```

### Event 65535.21

#### Metadata

| Field        | Value    |
|--------------|----------|
| Entrypoint   | 0x0171   |
| Data Size    | 23 bytes |
| Instructions | 5        |

```
      00 01 02 03 04 05 06 07  08 09 0A 0B 0C 0D 0E 0F
      -- -- -- -- -- -- -- --  -- -- -- -- -- -- -- --
0170:    32 07 80 1F 00 34 80  35 80 02 80 1F 01 4A 0A   2....4.5.....J.
0180: 21 03 01 0D 21 03 01 00                           !...!...        
```

#### Opcodes

```
  0: 0x0171 [0x32] ExtData[1]->MainSpeed = 13* * 0.1
  1: 0x0174 [0x1F] MOVE_ENTITY: EventEntity moves to X=-80.945*, Z=-84.143*, Y=0.000*
  2: 0x017C [0x1F] MOVE_ENTITY: Update entity position (mode=1)
  3: 0x017E [0x4A] Faihal (ID: 16982282/0x0103210A) looks at Deminza (ID: 16982285/0x0103210D)
  4: 0x0187 [0x00] END_REQSTACK()
```

### Event 65535.22

#### Metadata

| Field        | Value    |
|--------------|----------|
| Entrypoint   | 0x0188   |
| Data Size    | 23 bytes |
| Instructions | 5        |

```
      00 01 02 03 04 05 06 07  08 09 0A 0B 0C 0D 0E 0F
      -- -- -- -- -- -- -- --  -- -- -- -- -- -- -- --
0180:                          32 07 80 1F 00 36 80 37          2....6.7
0190: 80 02 80 1F 01 4A 0A 21  03 01 0D 21 03 01 00     .....J.!...!... 
```

#### Opcodes

```
  0: 0x0188 [0x32] ExtData[1]->MainSpeed = 13* * 0.1
  1: 0x018B [0x1F] MOVE_ENTITY: EventEntity moves to X=-74.729*, Z=-86.178*, Y=0.000*
  2: 0x0193 [0x1F] MOVE_ENTITY: Update entity position (mode=1)
  3: 0x0195 [0x4A] Faihal (ID: 16982282/0x0103210A) looks at Deminza (ID: 16982285/0x0103210D)
  4: 0x019E [0x00] END_REQSTACK()
```

### Event 65535.23

#### Metadata

| Field        | Value    |
|--------------|----------|
| Entrypoint   | 0x019F   |
| Data Size    | 23 bytes |
| Instructions | 4        |

```
      00 01 02 03 04 05 06 07  08 09 0A 0B 0C 0D 0E 0F
      -- -- -- -- -- -- -- --  -- -- -- -- -- -- -- --
0190:                                               4E                 N
01A0: 00 0A 21 03 01 37 38 80  39 80 02 80 3A 80 4B 0A  ..!..78.9...:.K.
01B0: 21 03 01 3B 80 00                                 !..;..          
```

#### Opcodes

```
  0: 0x019F [0x4E] SET_ENTITY_HIDE_FLAG: Show Faihal (ID: 16982282/0x0103210A)
  1: 0x01A5 [0x37] UPDATE_EVENT_POSITION_AND_DIR: x=-74.044*, z=-86.145*, y=0.000*, direction=178.5°*
  2: 0x01AE [0x4B] UPDATE_ENTITY_YAW(entity=Faihal (ID: 16982282/0x0103210A), yaw=6.0°*)
  3: 0x01B5 [0x00] END_REQSTACK()
```

### Event 65535.24

#### Metadata

| Field        | Value    |
|--------------|----------|
| Entrypoint   | 0x01B6   |
| Data Size    | 19 bytes |
| Instructions | 3        |

```
      00 01 02 03 04 05 06 07  08 09 0A 0B 0C 0D 0E 0F
      -- -- -- -- -- -- -- --  -- -- -- -- -- -- -- --
01B0:                   37 34  80 35 80 02 80 33 80 4A        74.5...3.J
01C0: 0A 21 03 01 0D 21 03 01  00                       .!...!...       
```

#### Opcodes

```
  0: 0x01B6 [0x37] UPDATE_EVENT_POSITION_AND_DIR: x=-80.945*, z=-84.143*, y=0.000*, direction=182.9°*
  1: 0x01BF [0x4A] Faihal (ID: 16982282/0x0103210A) looks at Deminza (ID: 16982285/0x0103210D)
  2: 0x01C8 [0x00] END_REQSTACK()
```

### Event 65535.25

#### Metadata

| Field        | Value    |
|--------------|----------|
| Entrypoint   | 0x01C9   |
| Data Size    | 27 bytes |
| Instructions | 4        |

```
      00 01 02 03 04 05 06 07  08 09 0A 0B 0C 0D 0E 0F
      -- -- -- -- -- -- -- --  -- -- -- -- -- -- -- --
01C0:                             37 3C 80 3D 80 02 80           7<.=...
01D0: 3A 80 4B 0A 21 03 01 3E  80 79 00 0A 21 03 01 0D  :.K.!..>.y..!...
01E0: 21 03 01 00                                       !...            
```

#### Opcodes

```
  0: 0x01C9 [0x37] UPDATE_EVENT_POSITION_AND_DIR: x=-80.610*, z=-83.206*, y=0.000*, direction=178.5°*
  1: 0x01D2 [0x4B] UPDATE_ENTITY_YAW(entity=Faihal (ID: 16982282/0x0103210A), yaw=16.5°*)
  2: 0x01D9 [0x79] Faihal (ID: 16982282/0x0103210A) looks at Deminza (ID: 16982285/0x0103210D) (Basic look)
  3: 0x01E3 [0x00] END_REQSTACK()
```

### Event 813

#### Metadata

| Field        | Value   |
|--------------|---------|
| Entrypoint   | 0x01E4  |
| Data Size    | 1 bytes |
| Instructions | 1       |

```
      00 01 02 03 04 05 06 07  08 09 0A 0B 0C 0D 0E 0F
      -- -- -- -- -- -- -- --  -- -- -- -- -- -- -- --
01E0:             00                                        .           
```

#### Opcodes

```
  0: 0x01E4 [0x00] END_REQSTACK()
```

### Event 65535.26

#### Metadata

| Field        | Value    |
|--------------|----------|
| Entrypoint   | 0x01E5   |
| Data Size    | 10 bytes |
| Instructions | 2        |

```
      00 01 02 03 04 05 06 07  08 09 0A 0B 0C 0D 0E 0F
      -- -- -- -- -- -- -- --  -- -- -- -- -- -- -- --
01E0:                37 3F 80  40 80 41 80 42 80 00          7?.@.A.B.. 
```

#### Opcodes

```
  0: 0x01E5 [0x37] UPDATE_EVENT_POSITION_AND_DIR: x=13.532*, z=-102.090*, y=1.999*, direction=87.9°*
  1: 0x01EE [0x00] END_REQSTACK()
```

### Event 65535.27

#### Metadata

| Field        | Value    |
|--------------|----------|
| Entrypoint   | 0x01EF   |
| Data Size    | 33 bytes |
| Instructions | 6        |

```
      00 01 02 03 04 05 06 07  08 09 0A 0B 0C 0D 0E 0F
      -- -- -- -- -- -- -- --  -- -- -- -- -- -- -- --
01E0:                                               32                 2
01F0: 07 80 1F 00 43 80 44 80  41 80 1F 01 79 00 09 21  ....C.D.A...y..!
0200: 03 01 0A 21 03 01 4A 09  21 03 01 0A 21 03 01 00  ...!..J.!...!...
```

#### Opcodes

```
  0: 0x01EF [0x32] ExtData[1]->MainSpeed = 13* * 0.1
  1: 0x01F2 [0x1F] MOVE_ENTITY: EventEntity moves to X=11.015*, Z=-98.655*, Y=1.999*
  2: 0x01FA [0x1F] MOVE_ENTITY: Update entity position (mode=1)
  3: 0x01FC [0x79] Bernahn (ID: 16982281/0x01032109) looks at Faihal (ID: 16982282/0x0103210A) (Basic look)
  4: 0x0206 [0x4A] Bernahn (ID: 16982281/0x01032109) looks at Faihal (ID: 16982282/0x0103210A)
  5: 0x020F [0x00] END_REQSTACK()
```

### Event 65535.28

#### Metadata

| Field        | Value    |
|--------------|----------|
| Entrypoint   | 0x0210   |
| Data Size    | 18 bytes |
| Instructions | 2        |

```
      00 01 02 03 04 05 06 07  08 09 0A 0B 0C 0D 0E 0F
      -- -- -- -- -- -- -- --  -- -- -- -- -- -- -- --
0210: 37 45 80 46 80 41 80 47  80 4A 0A 21 03 01 F0 FF  7E.F.A.G.J.!....
0220: FF 7F                                             ..              
```

#### Opcodes

```
  0: 0x0210 [0x37] UPDATE_EVENT_POSITION_AND_DIR: x=11.461*, z=-98.861*, y=1.999*, direction=131.1°*
  1: 0x0219 [0x4A] Faihal (ID: 16982282/0x0103210A) looks at LocalPlayer
```
