# 16982325 - Iruki-Waraki

## Common Data

| Field            | Value                         |
|------------------|-------------------------------|
| Zone             | Aht Urhgan Whitegate (ID: 50) |
| Block Size       | 2988 bytes                    |
| Total Events     | 38                            |
| References Count | 129                           |

## List of Events

| Event ID                   | Entrypoint   |   Size |   Instructions |
|----------------------------|--------------|--------|----------------|
| [65535](#event-65535)      | 0x0000       |      1 |              1 |
| [259](#event-259)          | 0x0001       |      6 |              4 |
| [267](#event-267)          | 0x0007       |     21 |              6 |
| [260](#event-260)          | 0x001C       |    727 |            113 |
| [65535.1](#event-655351)   | 0x02F3       |     14 |              4 |
| [65535.2](#event-655352)   | 0x0301       |     14 |              4 |
| [65535.3](#event-655353)   | 0x030F       |     13 |              3 |
| [65535.4](#event-655354)   | 0x031C       |     14 |              4 |
| [261](#event-261)          | 0x032A       |     21 |              6 |
| [266](#event-266)          | 0x033F       |   1187 |            179 |
| [65535.5](#event-655355)   | 0x07E2       |     14 |              4 |
| [65535.6](#event-655356)   | 0x07F0       |     19 |              5 |
| [774](#event-774)          | 0x0803       |      1 |              1 |
| [775](#event-775)          | 0x0804       |      6 |              4 |
| [776](#event-776)          | 0x080A       |      1 |              1 |
| [777](#event-777)          | 0x080B       |      6 |              4 |
| [778](#event-778)          | 0x0811       |      1 |              1 |
| [779](#event-779)          | 0x0812       |     16 |              6 |
| [780](#event-780)          | 0x0822       |      1 |              1 |
| [781](#event-781)          | 0x0823       |      6 |              4 |
| [794](#event-794)          | 0x0829       |      6 |              4 |
| [65535.7](#event-655357)   | 0x082F       |     10 |              2 |
| [65535.8](#event-655358)   | 0x0839       |     10 |              2 |
| [782](#event-782)          | 0x0843       |      1 |              1 |
| [783](#event-783)          | 0x0844       |     10 |              6 |
| [784](#event-784)          | 0x084E       |      1 |              1 |
| [785](#event-785)          | 0x084F       |      6 |              4 |
| [786](#event-786)          | 0x0855       |      1 |              1 |
| [787](#event-787)          | 0x0856       |     14 |              8 |
| [65535.9](#event-655359)   | 0x0864       |     10 |              2 |
| [65535.10](#event-6553510) | 0x086E       |     10 |              4 |
| [65535.11](#event-6553511) | 0x0878       |      7 |              3 |
| [65535.12](#event-6553512) | 0x087F       |     17 |              5 |
| [65535.13](#event-6553513) | 0x0890       |      4 |              2 |
| [65535.14](#event-6553514) | 0x0894       |     10 |              2 |
| [65535.15](#event-6553515) | 0x089E       |     23 |              7 |
| [65535.16](#event-6553516) | 0x08B5       |     10 |              2 |
| [65535.17](#event-6553517) | 0x08BF       |     63 |             23 |

## DAT References (imed_data)

|   Index | Hex Value   |   Dec Value |
|---------|-------------|-------------|
|       0 | 0x16DE      |        5854 |
|       1 | 0x16DF      |        5855 |
|       2 | 0x00C8      |         200 |
|       3 | 0x0000      |           0 |
|       4 | 0x0013      |          19 |
|       5 | 0x005A      |          90 |
|       6 | 0x010B      |         267 |
|       7 | 0x0078      |         120 |
|       8 | 0x168D      |        5773 |
|       9 | 0x168E      |        5774 |
|      10 | 0x003C      |          60 |
|      11 | 0x0006      |           6 |
|      12 | 0x168F      |        5775 |
|      13 | 0x1690      |        5776 |
|      14 | 0x1691      |        5777 |
|      15 | 0x1692      |        5778 |
|      16 | 0x1693      |        5779 |
|      17 | 0x1694      |        5780 |
|      18 | 0x1695      |        5781 |
|      19 | 0x0022      |          34 |
|      20 | 0x1696      |        5782 |
|      21 | 0x001A      |          26 |
|      22 | 0x1697      |        5783 |
|      23 | 0x0031      |          49 |
|      24 | 0x1698      |        5784 |
|      25 | 0x1699      |        5785 |
|      26 | 0x169A      |        5786 |
|      27 | 0x0019      |          25 |
|      28 | 0x169B      |        5787 |
|      29 | 0x169C      |        5788 |
|      30 | 0x169D      |        5789 |
|      31 | 0x0018      |          24 |
|      32 | 0x169E      |        5790 |
|      33 | 0x002F      |          47 |
|      34 | 0x000D      |          13 |
|      35 | 0x17FDD     |       98269 |
|      36 | 0xFFFF951A  |  4294939930 |
|      37 | 0xFFFFE891  |  4294961297 |
|      38 | 0x17DEE     |       97774 |
|      39 | 0xFFFF99F9  |  4294941177 |
|      40 | 0xFFFFE890  |  4294961296 |
|      41 | 0x18BD1     |      101329 |
|      42 | 0xFFFF8E8E  |  4294938254 |
|      43 | 0x18381     |       99201 |
|      44 | 0xFFFF9474  |  4294939764 |
|      45 | 0x0844      |        2116 |
|      46 | 0x001E      |          30 |
|      47 | 0x16BD      |        5821 |
|      48 | 0x16BE      |        5822 |
|      49 | 0x16BF      |        5823 |
|      50 | 0x16C0      |        5824 |
|      51 | 0x16C2      |        5826 |
|      52 | 0x16C3      |        5827 |
|      53 | 0x16C4      |        5828 |
|      54 | 0x16C5      |        5829 |
|      55 | 0x0020      |          32 |
|      56 | 0x16C6      |        5830 |
|      57 | 0x16C7      |        5831 |
|      58 | 0x16C8      |        5832 |
|      59 | 0x16C9      |        5833 |
|      60 | 0x16CA      |        5834 |
|      61 | 0x16CB      |        5835 |
|      62 | 0x16CC      |        5836 |
|      63 | 0x0016      |          22 |
|      64 | 0x16CD      |        5837 |
|      65 | 0x16CE      |        5838 |
|      66 | 0x16CF      |        5839 |
|      67 | 0x16D0      |        5840 |
|      68 | 0x16D1      |        5841 |
|      69 | 0x16D2      |        5842 |
|      70 | 0x006E      |         110 |
|      71 | 0x1792F     |       96559 |
|      72 | 0xFFFF9C90  |  4294941840 |
|      73 | 0x010C      |         268 |
|      74 | 0x16D3      |        5843 |
|      75 | 0x16D4      |        5844 |
|      76 | 0x0352      |         850 |
|      77 | 0x0024      |          36 |
|      78 | 0x16D5      |        5845 |
|      79 | 0x16D6      |        5846 |
|      80 | 0x45C3      |       17859 |
|      81 | 0x16D7      |        5847 |
|      82 | 0x16D8      |        5848 |
|      83 | 0x16D9      |        5849 |
|      84 | 0x16DB      |        5851 |
|      85 | 0x0001      |           1 |
|      86 | 0x16DC      |        5852 |
|      87 | 0x00C9      |         201 |
|      88 | 0x17958     |       96600 |
|      89 | 0xFFFF9B8C  |  4294941580 |
|      90 | 0x17559     |       95577 |
|      91 | 0xFFFF9DDA  |  4294942170 |
|      92 | 0x171D      |        5917 |
|      93 | 0x172A      |        5930 |
|      94 | 0x1041      |        4161 |
|      95 | 0x15C2      |        5570 |
|      96 | 0x1736      |        5942 |
|      97 | 0x1740      |        5952 |
|      98 | 0x1741      |        5953 |
|      99 | 0x188F2     |      100594 |
|     100 | 0xFFFF948F  |  4294939791 |
|     101 | 0x003A      |          58 |
|     102 | 0x17E5E     |       97886 |
|     103 | 0xFFFF9418  |  4294939672 |
|     104 | 0x0829      |        2089 |
|     105 | 0x1746      |        5958 |
|     106 | 0x1747      |        5959 |
|     107 | 0x1753      |        5971 |
|     108 | 0x175C      |        5980 |
|     109 | 0x175D      |        5981 |
|     110 | 0x175E      |        5982 |
|     111 | 0x0987      |        2439 |
|     112 | 0x0096      |         150 |
|     113 | 0x18446     |       99398 |
|     114 | 0xFFFF9C3F  |  4294941759 |
|     115 | 0x0BEA      |        3050 |
|     116 | 0xFFFE78A7  |  4294867111 |
|     117 | 0xFFFFE9B5  |  4294961589 |
|     118 | 0x0830      |        2096 |
|     119 | 0xFFFE5BFA  |  4294859770 |
|     120 | 0xFFFFE74C  |  4294960972 |
|     121 | 0x0BF3      |        3059 |
|     122 | 0xFFFE62C4  |  4294861508 |
|     123 | 0xFFFFE7C5  |  4294961093 |
|     124 | 0x057C      |        1404 |
|     125 | 0x017C      |         380 |
|     126 | 0x002D      |          45 |
|     127 | 0x0400      |        1024 |
|     128 | 0x0015      |          21 |

## String References

- **5773**: Eh? What d'you want?
- **5774**: Shamarhaan told you about me?
- **5775**: I'm sorry, but I can't help you.
- **5776**: I don't have my automaton anymore...
- **5777**: A puppetmaster without an automaton is like a Goblin without a mask!
- **5778**: ...Did you just ask me what a Goblin without a mask is like?
- **5779**: Do you know what happened to the last person who asked me that?
- **5780**: ......
- **5781**: ......
- **5782**: I'm not telling you. Just remember, you don't want it to happen to you. Now get lost.
- **5783**: You want to ask about puppeteering anyway? Talk about not taking a hint...
- **5784**: Is any of this getting through to you? I can't talk about puppeteering without an automaton!
- **5785**: Can you talk about the beauty of the Mithra without their ears and tail? Of course not! And this is the same type of thing!
- **5786**: I'm nothing without ears and a ta--no no, without my automaton! See? Now you're confusing me!
- **5787**: That's why I can't talk to you about Mith--no, no! Argh! I can't think straight!
- **5788**: I need an automaton, or I can't even speak correctly!
- **5789**: Bring me an automaton, and then we can talk!
- **5790**: Got it? Now get out of here! Out, out!
- **5821**: You again? What do you want now?
- **5822**: Y-y-you brought me an a-a-automaton!?
- **5823**: F-for...m-m-me!?
- **5824**: ......
- **5826**: No no no...I...I can't possibly accept this.
- **5827**: Until recently, I was considered the top puppeteer on Urhguum, so I know how they work... This automaton won't work with anyone but you. Try it out, and you'll see what I mean.
- **5828**: My automaton only worked for me, and I couldn't have performed with another automaton, either. You form a sort of bond, you see.
- **5829**: What? Does that create a problem for you? Oh, yes...I did mention that I can't talk about puppeteering without an automaton, didn't I?
- **5830**: I was just saying that to get rid of you.
- **5831**: Don't get me wrong. I was completely serious about not being able to talk about Mithra if there are no ears or tail involved...
- **5832**: Um, anyway, what did you want to ask me about puppeteering?
- **5833**: Or did you come to ask me how Goblins look under their masks?
- **5834**: You see, about that...
- **5835**: Oh? You were more interested in puppeteering after all?
- **5836**: You want to know what it takes to become a puppetmaster, do you?
- **5837**: I don't know what you're talking about...
- **5838**: You're already a puppetmaster!
- **5839**: You have your own automaton. That's proof!
- **5840**: Huh? Shamarhaan told you you can't operate an automaton if you're not a puppetmaster?
- **5841**: Hmph, he's just making stuff up.
- **5842**: Well...come to think of it, he does have a point. If you can't let the automaton know what you're thinking, it's not going to move.
- **5843**: I've got something to help you with that... Ah, here it is!
- **5844**: You can use this controller... Now, try pushing here.
- **5845**: See? Now it knows what you're thinking!
- **5846**: And the more you work together, the more responsive it will become to your commands!
- **5847**: You can use this $1 to give direction to your automaton!
- **5848**: Oh! And you should give your automaton a name, too. It's all yours now, so you get to decide!
- **5849**: Choose your automaton's name. [Luron/Drille/Tournefoux/Chafouin/Plaisantin/Loustic/Histrion/Bobeche/Bougrion/Rouleteau/Allouette/Serenade/Ficelette/Tocadie/Caprice/Foucade/Capillotte/Quenotte/Pacotille/Comedie/Kagekiyo/Toraoh/Genta/Kintoki/Koumei/Pamama/Lobo/Tsukushi/Oniwaka/Kenbishi/Hannya/Mashira]
- **5851**: Are you sure this name is okay? [Yes, this is it./On second thought...]
- **5852**: Good luck! I'm behind you all the way!
- **5854**: Leave me alone...
- **5855**: How are you and your automaton doing? Is it getting more responsive?
- **5917**: You should head for Nashmau. Good luck, and be careful.
- **5930**: If anything else comes up, just let me know!
- **5942**: Bring me $0 and $1, and I'll explain to you my plan.
- **5952**: What are you still doing here? The thief is in Nashmau, right? I went through a lot to set up that teahouse, so you better make sure the thief gets there!
- **5953**: ...
- **5958**: How could Master Shamarhaan ever have decided I was fit for this trade?
- **5959**: I wonder how I can make Ellie appreciate me again... I wonder if Master Shamarhaan would have any good advice...
- **5971**: I don't have much of a choice, do I? I guess I'll head for Nashmau, then...
- **5980**: Hey, <Player>. How's everything going?
- **5981**: I'm taking a little break from work right now and spending some time with Ellie.
- **5982**: Your automaton will start to get sulky if you don't pay it enough attention, you know.

## Events

### Event 65535

#### Metadata

| Field        | Value   |
|--------------|---------|
| Entrypoint   | 0x0000  |
| Data Size    | 1 bytes |
| Instructions | 1       |

```
      00 01 02 03 04 05 06 07  08 09 0A 0B 0C 0D 0E 0F
      -- -- -- -- -- -- -- --  -- -- -- -- -- -- -- --
0000: 00                                                .               
```

#### Opcodes

```
  0: 0x0000 [0x00] END_REQSTACK()
```

### Event 259

#### Metadata

| Field        | Value   |
|--------------|---------|
| Entrypoint   | 0x0001  |
| Data Size    | 6 bytes |
| Instructions | 4       |

```
      00 01 02 03 04 05 06 07  08 09 0A 0B 0C 0D 0E 0F
      -- -- -- -- -- -- -- --  -- -- -- -- -- -- -- --
0000:    1D 00 80 23 21 00                               ...#!.         
```

#### Opcodes

```
  0: 0x0001 [0x1D] PRINT_EVENT_MESSAGE(message_id=5854*)
    → "Leave me alone..."
  1: 0x0004 [0x23] WAIT_FOR_DIALOG_INTERACTION
  2: 0x0005 [0x21] END_EVENT
  3: 0x0006 [0x00] END_REQSTACK()
```

### Event 267

#### Metadata

| Field        | Value    |
|--------------|----------|
| Entrypoint   | 0x0007   |
| Data Size    | 21 bytes |
| Instructions | 6        |

```
      00 01 02 03 04 05 06 07  08 09 0A 0B 0C 0D 0E 0F
      -- -- -- -- -- -- -- --  -- -- -- -- -- -- -- --
0000:                      79  00 F8 FF FF 7F F0 FF FF         y........
0010: 7F 1D 01 80 23 7B F8 FF  FF 7F 21 00              ....#{....!.    
```

#### Opcodes

```
  0: 0x0007 [0x79] EventEntity looks at LocalPlayer (Basic look)
  1: 0x0011 [0x1D] PRINT_EVENT_MESSAGE(message_id=5855*)
    → "How are you and your automaton doing? Is it getting more responsive?"
  2: 0x0014 [0x23] WAIT_FOR_DIALOG_INTERACTION
  3: 0x0015 [0x7B] EventEntity stops talking
  4: 0x001A [0x21] END_EVENT
  5: 0x001B [0x00] END_REQSTACK()
```

### Event 260

#### Metadata

| Field        | Value     |
|--------------|-----------|
| Entrypoint   | 0x001C    |
| Data Size    | 727 bytes |
| Instructions | 113       |

```
      00 01 02 03 04 05 06 07  08 09 0A 0B 0C 0D 0E 0F
      -- -- -- -- -- -- -- --  -- -- -- -- -- -- -- --
0010:                                      92 01 F8 FF              ....
0020: FF 7F 42 45 02 80 F8 FF  FF 7F F8 FF FF 7F 66 64  ..BE..........fd
0030: 6F 31 03 80 55 02 80 F8  FF FF 7F F8 FF FF 7F 66  o1..U..........f
0040: 64 6F 31 46 01 38 04 80  29 0A F0 FF FF 7F 93 92  do1F.8..).......
0050: 01 35 21 03 01 80 F0 FF  FF 7F 80 35 21 03 01 AB  .5!........5!...
0060: 03 AC 01 03 80 1E F0 FF  FF 7F 1C 05 80 45 06 80  .............E..
0070: F0 FF FF 7F F0 FF FF 7F  6B 31 30 30 03 80 45 02  ........k100..E.
0080: 80 F8 FF FF 7F F8 FF FF  7F 66 64 69 31 03 80 55  .........fdi1..U
0090: 02 80 F8 FF FF 7F F8 FF  FF 7F 66 64 69 31 1C 07  ..........fdi1..
00A0: 80 1D 08 80 23 29 0A 35  21 03 01 04 1D 09 80 23  ....#).5!......#
00B0: 1C 0A 80 52 06 80 F0 FF  FF 7F F0 FF FF 7F 6B 31  ...R..........k1
00C0: 30 30 45 06 80 F0 FF FF  7F F0 FF FF 7F 6B 31 30  00E..........k10
00D0: 31 03 80 6E F8 FF FF 7F  0B 80 99 F8 FF FF 7F 1D  1..n............
00E0: 0C 80 23 1C 0A 80 1D 0D  80 23 45 02 80 F8 FF FF  ..#......#E.....
00F0: 7F F8 FF FF 7F 6F 76 6C  32 03 80 52 06 80 F0 FF  .....ovl2..R....
0100: FF 7F F0 FF FF 7F 6B 31  30 31 45 06 80 F0 FF FF  ......k101E.....
0110: 7F F0 FF FF 7F 6B 31 30  32 03 80 7B 35 21 03 01  .....k102..{5!..
0120: 27 0A 35 21 03 01 05 1D  0E 80 23 1C 05 80 4A 35  '.5!......#...J5
0130: 21 03 01 F0 FF FF 7F 1D  0F 80 23 52 06 80 F0 FF  !.........#R....
0140: FF 7F F0 FF FF 7F 6B 31  30 32 45 06 80 F0 FF FF  ......k102E.....
0150: 7F F0 FF FF 7F 6B 31 30  33 03 80 1C 0A 80 1D 10  .....k103.......
0160: 80 23 52 06 80 F0 FF FF  7F F0 FF FF 7F 6B 31 30  .#R..........k10
0170: 33 45 06 80 F0 FF FF 7F  F0 FF FF 7F 6B 31 30 34  3E..........k104
0180: 03 80 7C 00 F8 FF FF 7F  1D 11 80 23 1D 12 80 23  ..|........#...#
0190: 52 06 80 F0 FF FF 7F F0  FF FF 7F 6B 31 30 34 45  R..........k104E
01A0: 06 80 F0 FF FF 7F F0 FF  FF 7F 6B 31 30 35 03 80  ..........k105..
01B0: 1E F0 FF FF 7F 7C 01 F8  FF FF 7F 6E F8 FF FF 7F  .....|.....n....
01C0: 13 80 99 F8 FF FF 7F 1D  14 80 23 1C 05 80 6E F8  ..........#...n.
01D0: FF FF 7F 15 80 99 F8 FF  FF 7F 1D 16 80 23 52 06  .............#R.
01E0: 80 F0 FF FF 7F F0 FF FF  7F 6B 31 30 35 45 06 80  .........k105E..
01F0: F0 FF FF 7F F0 FF FF 7F  6B 31 30 36 03 80 66 17  ........k106..f.
0200: 80 35 21 03 01 35 21 03  01 74 6C 6B 30 1D 18 80  .5!..5!..tlk0...
0210: 23 1D 19 80 23 66 17 80  35 21 03 01 35 21 03 01  #...#f..5!..5!..
0220: 74 6C 6B 31 52 06 80 F0  FF FF 7F F0 FF FF 7F 6B  tlk1R..........k
0230: 31 30 36 45 06 80 F0 FF  FF 7F F0 FF FF 7F 6B 31  106E..........k1
0240: 30 37 03 80 1D 1A 80 23  1C 0A 80 6E F8 FF FF 7F  07.....#...n....
0250: 1B 80 99 F8 FF FF 7F 1D  1C 80 23 1C 0A 80 6E F8  ..........#...n.
0260: FF FF 7F 13 80 99 F8 FF  FF 7F 1D 1D 80 23 52 06  .............#R.
0270: 80 F0 FF FF 7F F0 FF FF  7F 6B 31 30 37 45 06 80  .........k107E..
0280: F0 FF FF 7F F0 FF FF 7F  6B 31 30 38 03 80 1C 0A  ........k108....
0290: 80 1D 1E 80 23 1C 0A 80  6E F8 FF FF 7F 1F 80 99  ....#...n.......
02A0: F8 FF FF 7F 1C 0A 80 1D  20 80 23 29 0A 35 21 03  ........ .#).5!.
02B0: 01 07 AC 01 21 80 AB 04  45 02 80 F8 FF FF 7F F8  ....!...E.......
02C0: FF FF 7F 66 64 6F 31 03  80 1C 0A 80 52 06 80 F0  ...fdo1.....R...
02D0: FF FF 7F F0 FF FF 7F 6B  31 30 38 1C 0A 80 46 00  .......k108...F.
02E0: 45 02 80 F8 FF FF 7F F8  FF FF 7F 66 64 69 31 03  E..........fdi1.
02F0: 80 21 00                                          .!.             
```

#### Opcodes

```
  0: 0x001C [0x92] EventEntity->Render.Flags3 ^= 0x01
  1: 0x0022 [0x42] SET_CLI_EVENT_CANCEL_DATA()
  2: 0x0023 [0x45] LOAD_SCHEDULED_TASK: Load scheduler "fdo1" with entities [EventEntity, EventEntity], work=[200*, 0*]
  3: 0x0034 [0x55] WAIT_LOAD_SCHEDULER: Wait for scheduler "fdo1" with entities [EventEntity, EventEntity], work=200*
  4: 0x0043 [0x46] CAMERA_CONTROL: Disable user control
  5: 0x0045 [0x38] SET_CLIENT_EVENT_MODE(mode=19*)
  6: 0x0048 [0x29] REQ_SET_WAIT(priority=0x0A, entity_id=LocalPlayer, tag_num=0x93)
  7: 0x004F [0x92] Iruki-Waraki (ID: 16982325/0x01032135)->Render.Flags3 ^= 0x01
  8: 0x0055 [0x80] LOAD_WAIT(entity=LocalPlayer)
  9: 0x005A [0x80] LOAD_WAIT(entity=Iruki-Waraki (ID: 16982325/0x01032135))
 10: 0x005F [0xAB] EventEntity->Render.Flags0 ^= 0x20000 // Toggle bit 17
 11: 0x0061 [0xAC] EventEntity->StatusEvent = 0*
 12: 0x0065 [0x1E] EventEntity looks at LocalPlayer and starts talking
 13: 0x006A [0x1C] WAIT(90* ticks)
 14: 0x006D [0x45] LOAD_SCHEDULED_TASK: Load scheduler "k100" with entities [LocalPlayer, LocalPlayer], work=[267*, 0*]
 15: 0x007E [0x45] LOAD_SCHEDULED_TASK: Load scheduler "fdi1" with entities [EventEntity, EventEntity], work=[200*, 0*]
 16: 0x008F [0x55] WAIT_LOAD_SCHEDULER: Wait for scheduler "fdi1" with entities [EventEntity, EventEntity], work=200*
 17: 0x009E [0x1C] WAIT(120* ticks)
 18: 0x00A1 [0x1D] PRINT_EVENT_MESSAGE(message_id=5773*)
    → "Eh? What d'you want?"
 19: 0x00A4 [0x23] WAIT_FOR_DIALOG_INTERACTION
 20: 0x00A5 [0x29] REQ_SET_WAIT(priority=0x0A, entity_id=Iruki-Waraki (ID: 16982325/0x01032135), tag_num=0x04)
 21: 0x00AC [0x1D] PRINT_EVENT_MESSAGE(message_id=5774*)
    → "Shamarhaan told you about me?"
 22: 0x00AF [0x23] WAIT_FOR_DIALOG_INTERACTION
 23: 0x00B0 [0x1C] WAIT(60* ticks)
 24: 0x00B3 [0x52] END_LOAD_SCHEDULER: End scheduler "k100" with entities [LocalPlayer, LocalPlayer], work=267*
 25: 0x00C2 [0x45] LOAD_SCHEDULED_TASK: Load scheduler "k101" with entities [LocalPlayer, LocalPlayer], work=[267*, 0*]
 26: 0x00D3 [0x6E] EventEntity uses emote 6*
 27: 0x00DA [0x99] Wait for EventEntity animation to complete
 28: 0x00DF [0x1D] PRINT_EVENT_MESSAGE(message_id=5775*)
    → "I'm sorry, but I can't help you."
 29: 0x00E2 [0x23] WAIT_FOR_DIALOG_INTERACTION
 30: 0x00E3 [0x1C] WAIT(60* ticks)
 31: 0x00E6 [0x1D] PRINT_EVENT_MESSAGE(message_id=5776*)
    → "I don't have my automaton anymore..."
 32: 0x00E9 [0x23] WAIT_FOR_DIALOG_INTERACTION
 33: 0x00EA [0x45] LOAD_SCHEDULED_TASK: Load scheduler "ovl2" with entities [EventEntity, EventEntity], work=[200*, 0*]
 34: 0x00FB [0x52] END_LOAD_SCHEDULER: End scheduler "k101" with entities [LocalPlayer, LocalPlayer], work=267*
 35: 0x010A [0x45] LOAD_SCHEDULED_TASK: Load scheduler "k102" with entities [LocalPlayer, LocalPlayer], work=[267*, 0*]
 36: 0x011B [0x7B] Iruki-Waraki (ID: 16982325/0x01032135) stops talking
 37: 0x0120 [0x27] REQ_SET(priority=0x0A, entity_id=Iruki-Waraki (ID: 16982325/0x01032135), tag_num=0x05)
 38: 0x0127 [0x1D] PRINT_EVENT_MESSAGE(message_id=5777*)
    → "A puppetmaster without an automaton is like a Goblin without a mask!"
 39: 0x012A [0x23] WAIT_FOR_DIALOG_INTERACTION
 40: 0x012B [0x1C] WAIT(90* ticks)
 41: 0x012E [0x4A] Iruki-Waraki (ID: 16982325/0x01032135) looks at LocalPlayer
 42: 0x0137 [0x1D] PRINT_EVENT_MESSAGE(message_id=5778*)
    → "...Did you just ask me what a Goblin without a mask is like?"
 43: 0x013A [0x23] WAIT_FOR_DIALOG_INTERACTION
 44: 0x013B [0x52] END_LOAD_SCHEDULER: End scheduler "k102" with entities [LocalPlayer, LocalPlayer], work=267*
 45: 0x014A [0x45] LOAD_SCHEDULED_TASK: Load scheduler "k103" with entities [LocalPlayer, LocalPlayer], work=[267*, 0*]
 46: 0x015B [0x1C] WAIT(60* ticks)
 47: 0x015E [0x1D] PRINT_EVENT_MESSAGE(message_id=5779*)
    → "Do you know what happened to the last person who asked me that?"
 48: 0x0161 [0x23] WAIT_FOR_DIALOG_INTERACTION
 49: 0x0162 [0x52] END_LOAD_SCHEDULER: End scheduler "k103" with entities [LocalPlayer, LocalPlayer], work=267*
 50: 0x0171 [0x45] LOAD_SCHEDULED_TASK: Load scheduler "k104" with entities [LocalPlayer, LocalPlayer], work=[267*, 0*]
 51: 0x0182 [0x7C] EventEntity->Render.Flags2 |= 0x00
 52: 0x0188 [0x1D] PRINT_EVENT_MESSAGE(message_id=5780*)
    → "......"
 53: 0x018B [0x23] WAIT_FOR_DIALOG_INTERACTION
 54: 0x018C [0x1D] PRINT_EVENT_MESSAGE(message_id=5781*)
    → "......"
 55: 0x018F [0x23] WAIT_FOR_DIALOG_INTERACTION
 56: 0x0190 [0x52] END_LOAD_SCHEDULER: End scheduler "k104" with entities [LocalPlayer, LocalPlayer], work=267*
 57: 0x019F [0x45] LOAD_SCHEDULED_TASK: Load scheduler "k105" with entities [LocalPlayer, LocalPlayer], work=[267*, 0*]
 58: 0x01B0 [0x1E] EventEntity looks at LocalPlayer and starts talking
 59: 0x01B5 [0x7C] EventEntity->Render.Flags2 |= 0x01
 60: 0x01BB [0x6E] EventEntity uses emote 34*
 61: 0x01C2 [0x99] Wait for EventEntity animation to complete
 62: 0x01C7 [0x1D] PRINT_EVENT_MESSAGE(message_id=5782*)
    → "I'm not telling you. Just remember, you don't want it to happen to you. Now get lost."
 63: 0x01CA [0x23] WAIT_FOR_DIALOG_INTERACTION
 64: 0x01CB [0x1C] WAIT(90* ticks)
 65: 0x01CE [0x6E] EventEntity uses emote 26*
 66: 0x01D5 [0x99] Wait for EventEntity animation to complete
 67: 0x01DA [0x1D] PRINT_EVENT_MESSAGE(message_id=5783*)
    → "You want to ask about puppeteering anyway? Talk about not taking a hint..."
 68: 0x01DD [0x23] WAIT_FOR_DIALOG_INTERACTION
 69: 0x01DE [0x52] END_LOAD_SCHEDULER: End scheduler "k105" with entities [LocalPlayer, LocalPlayer], work=267*
 70: 0x01ED [0x45] LOAD_SCHEDULED_TASK: Load scheduler "k106" with entities [LocalPlayer, LocalPlayer], work=[267*, 0*]
 71: 0x01FE [0x66] LOAD_EXT_SCHEDULER_MAIN: Load scheduler "tlk0" with entities [Iruki-Waraki (ID: 16982325/0x01032135), Iruki-Waraki (ID: 16982325/0x01032135)], work=49*
 72: 0x020D [0x1D] PRINT_EVENT_MESSAGE(message_id=5784*)
    → "Is any of this getting through to you? I can't talk about puppeteering without an automaton!"
 73: 0x0210 [0x23] WAIT_FOR_DIALOG_INTERACTION
 74: 0x0211 [0x1D] PRINT_EVENT_MESSAGE(message_id=5785*)
    → "Can you talk about the beauty of the Mithra without their ears and tail? Of course not! And this is the same type of thing!"
 75: 0x0214 [0x23] WAIT_FOR_DIALOG_INTERACTION
 76: 0x0215 [0x66] LOAD_EXT_SCHEDULER_MAIN: Load scheduler "tlk1" with entities [Iruki-Waraki (ID: 16982325/0x01032135), Iruki-Waraki (ID: 16982325/0x01032135)], work=49*
 77: 0x0224 [0x52] END_LOAD_SCHEDULER: End scheduler "k106" with entities [LocalPlayer, LocalPlayer], work=267*
 78: 0x0233 [0x45] LOAD_SCHEDULED_TASK: Load scheduler "k107" with entities [LocalPlayer, LocalPlayer], work=[267*, 0*]
 79: 0x0244 [0x1D] PRINT_EVENT_MESSAGE(message_id=5786*)
    → "I'm nothing without ears and a ta--no no, without my automaton! See? Now you're confusing me!"
 80: 0x0247 [0x23] WAIT_FOR_DIALOG_INTERACTION
 81: 0x0248 [0x1C] WAIT(60* ticks)
 82: 0x024B [0x6E] EventEntity uses emote 25*
 83: 0x0252 [0x99] Wait for EventEntity animation to complete
 84: 0x0257 [0x1D] PRINT_EVENT_MESSAGE(message_id=5787*)
    → "That's why I can't talk to you about Mith--no, no! Argh! I can't think straight!"
 85: 0x025A [0x23] WAIT_FOR_DIALOG_INTERACTION
 86: 0x025B [0x1C] WAIT(60* ticks)
 87: 0x025E [0x6E] EventEntity uses emote 34*
 88: 0x0265 [0x99] Wait for EventEntity animation to complete
 89: 0x026A [0x1D] PRINT_EVENT_MESSAGE(message_id=5788*)
    → "I need an automaton, or I can't even speak correctly!"
 90: 0x026D [0x23] WAIT_FOR_DIALOG_INTERACTION
 91: 0x026E [0x52] END_LOAD_SCHEDULER: End scheduler "k107" with entities [LocalPlayer, LocalPlayer], work=267*
 92: 0x027D [0x45] LOAD_SCHEDULED_TASK: Load scheduler "k108" with entities [LocalPlayer, LocalPlayer], work=[267*, 0*]
 93: 0x028E [0x1C] WAIT(60* ticks)
 94: 0x0291 [0x1D] PRINT_EVENT_MESSAGE(message_id=5789*)
    → "Bring me an automaton, and then we can talk!"
 95: 0x0294 [0x23] WAIT_FOR_DIALOG_INTERACTION
 96: 0x0295 [0x1C] WAIT(60* ticks)
 97: 0x0298 [0x6E] EventEntity uses emote 24*
 98: 0x029F [0x99] Wait for EventEntity animation to complete
 99: 0x02A4 [0x1C] WAIT(60* ticks)
100: 0x02A7 [0x1D] PRINT_EVENT_MESSAGE(message_id=5790*)
    → "Got it? Now get out of here! Out, out!"
101: 0x02AA [0x23] WAIT_FOR_DIALOG_INTERACTION
102: 0x02AB [0x29] REQ_SET_WAIT(priority=0x0A, entity_id=Iruki-Waraki (ID: 16982325/0x01032135), tag_num=0x07)
103: 0x02B2 [0xAC] EventEntity->StatusEvent = 47*
104: 0x02B6 [0xAB] EventEntity->Render.Flags0 |= 0x40000 // Set bit 18
105: 0x02B8 [0x45] LOAD_SCHEDULED_TASK: Load scheduler "fdo1" with entities [EventEntity, EventEntity], work=[200*, 0*]
106: 0x02C9 [0x1C] WAIT(60* ticks)
107: 0x02CC [0x52] END_LOAD_SCHEDULER: End scheduler "k108" with entities [LocalPlayer, LocalPlayer], work=267*
108: 0x02DB [0x1C] WAIT(60* ticks)
109: 0x02DE [0x46] CAMERA_CONTROL: Restore default settings
110: 0x02E0 [0x45] LOAD_SCHEDULED_TASK: Load scheduler "fdi1" with entities [EventEntity, EventEntity], work=[200*, 0*]
111: 0x02F1 [0x21] END_EVENT
112: 0x02F2 [0x00] END_REQSTACK()
```

### Event 65535.1

#### Metadata

| Field        | Value    |
|--------------|----------|
| Entrypoint   | 0x02F3   |
| Data Size    | 14 bytes |
| Instructions | 4        |

```
      00 01 02 03 04 05 06 07  08 09 0A 0B 0C 0D 0E 0F
      -- -- -- -- -- -- -- --  -- -- -- -- -- -- -- --
02F0:          32 22 80 1F 00  23 80 24 80 25 80 1F 01     2"...#.$.%...
0300: 00                                                .               
```

#### Opcodes

```
  0: 0x02F3 [0x32] ExtData[1]->MainSpeed = 13* * 0.1
  1: 0x02F6 [0x1F] MOVE_ENTITY: EventEntity moves to X=98.269*, Z=-27.366*, Y=-5.999*
  2: 0x02FE [0x1F] MOVE_ENTITY: Update entity position (mode=1)
  3: 0x0300 [0x00] END_REQSTACK()
```

### Event 65535.2

#### Metadata

| Field        | Value    |
|--------------|----------|
| Entrypoint   | 0x0301   |
| Data Size    | 14 bytes |
| Instructions | 4        |

```
      00 01 02 03 04 05 06 07  08 09 0A 0B 0C 0D 0E 0F
      -- -- -- -- -- -- -- --  -- -- -- -- -- -- -- --
0300:    32 22 80 1F 00 26 80  27 80 28 80 1F 01 00      2"...&.'.(.... 
```

#### Opcodes

```
  0: 0x0301 [0x32] ExtData[1]->MainSpeed = 13* * 0.1
  1: 0x0304 [0x1F] MOVE_ENTITY: EventEntity moves to X=97.774*, Z=-26.119*, Y=-6.000*
  2: 0x030C [0x1F] MOVE_ENTITY: Update entity position (mode=1)
  3: 0x030E [0x00] END_REQSTACK()
```

### Event 65535.3

#### Metadata

| Field        | Value    |
|--------------|----------|
| Entrypoint   | 0x030F   |
| Data Size    | 13 bytes |
| Instructions | 3        |

```
      00 01 02 03 04 05 06 07  08 09 0A 0B 0C 0D 0E 0F
      -- -- -- -- -- -- -- --  -- -- -- -- -- -- -- --
0300:                                               6E                 n
0310: 35 21 03 01 04 80 99 35  21 03 01 00              5!.....5!...    
```

#### Opcodes

```
  0: 0x030F [0x6E] Iruki-Waraki (ID: 16982325/0x01032135) uses emote 19*
  1: 0x0316 [0x99] Wait for Iruki-Waraki (ID: 16982325/0x01032135) animation to complete
  2: 0x031B [0x00] END_REQSTACK()
```

### Event 65535.4

#### Metadata

| Field        | Value    |
|--------------|----------|
| Entrypoint   | 0x031C   |
| Data Size    | 14 bytes |
| Instructions | 4        |

```
      00 01 02 03 04 05 06 07  08 09 0A 0B 0C 0D 0E 0F
      -- -- -- -- -- -- -- --  -- -- -- -- -- -- -- --
0310:                                      32 22 80 1F              2"..
0320: 00 29 80 2A 80 25 80 1F  01 00                    .).*.%....      
```

#### Opcodes

```
  0: 0x031C [0x32] ExtData[1]->MainSpeed = 13* * 0.1
  1: 0x031F [0x1F] MOVE_ENTITY: EventEntity moves to X=101.329*, Z=-29.042*, Y=-5.999*
  2: 0x0327 [0x1F] MOVE_ENTITY: Update entity position (mode=1)
  3: 0x0329 [0x00] END_REQSTACK()
```

### Event 261

#### Metadata

| Field        | Value    |
|--------------|----------|
| Entrypoint   | 0x032A   |
| Data Size    | 21 bytes |
| Instructions | 6        |

```
      00 01 02 03 04 05 06 07  08 09 0A 0B 0C 0D 0E 0F
      -- -- -- -- -- -- -- --  -- -- -- -- -- -- -- --
0320:                                79 00 F8 FF FF 7F            y.....
0330: F0 FF FF 7F 1D 1E 80 23  7B F8 FF FF 7F 21 00     .......#{....!. 
```

#### Opcodes

```
  0: 0x032A [0x79] EventEntity looks at LocalPlayer (Basic look)
  1: 0x0334 [0x1D] PRINT_EVENT_MESSAGE(message_id=5789*)
    → "Bring me an automaton, and then we can talk!"
  2: 0x0337 [0x23] WAIT_FOR_DIALOG_INTERACTION
  3: 0x0338 [0x7B] EventEntity stops talking
  4: 0x033D [0x21] END_EVENT
  5: 0x033E [0x00] END_REQSTACK()
```

### Event 266

#### Metadata

| Field        | Value      |
|--------------|------------|
| Entrypoint   | 0x033F     |
| Data Size    | 1187 bytes |
| Instructions | 178        |

```
      00 01 02 03 04 05 06 07  08 09 0A 0B 0C 0D 0E 0F
      -- -- -- -- -- -- -- --  -- -- -- -- -- -- -- --
0330:                                               92                 .
0340: 01 F8 FF FF 7F 42 45 02  80 F8 FF FF 7F F8 FF FF  .....BE.........
0350: 7F 66 64 6F 31 03 80 55  02 80 F8 FF FF 7F F8 FF  .fdo1..U........
0360: FF 7F 66 64 6F 31 46 01  38 04 80 2F 00 96 20 03  ..fdo1F.8../.. .
0370: 01 4E 00 96 20 03 01 29  0A F0 FF FF 7F 93 29 0A  .N.. ..)......).
0380: 96 20 03 01 04 92 01 35  21 03 01 92 01 96 20 03  . .....5!..... .
0390: 01 80 F0 FF FF 7F 80 35  21 03 01 AB 03 AC 01 03  .......5!.......
03A0: 80 37 2B 80 2C 80 25 80  2D 80 1C 05 80 4A F0 FF  .7+.,.%.-....J..
03B0: FF 7F 35 21 03 01 1E F0  FF FF 7F 45 06 80 F0 FF  ..5!.......E....
03C0: FF 7F F0 FF FF 7F 6B 32  30 30 03 80 45 02 80 F8  ......k200..E...
03D0: FF FF 7F F8 FF FF 7F 66  64 69 31 03 80 55 02 80  .......fdi1..U..
03E0: F8 FF FF 7F F8 FF FF 7F  66 64 69 31 1C 2E 80 1D  ........fdi1....
03F0: 2F 80 23 52 06 80 F0 FF  FF 7F F0 FF FF 7F 6B 32  /.#R..........k2
0400: 30 30 45 06 80 F0 FF FF  7F F0 FF FF 7F 6B 32 30  00E..........k20
0410: 31 03 80 1D 30 80 23 1C  0A 80 4A 35 21 03 01 96  1...0.#...J5!...
0420: 20 03 01 1D 31 80 23 29  0A 35 21 03 01 0A 7C 00   ...1.#).5!...|.
0430: F8 FF FF 7F 1D 32 80 23  1D 12 80 23 52 06 80 F0  .....2.#...#R...
0440: FF FF 7F F0 FF FF 7F 6B  32 30 31 45 06 80 F0 FF  .......k201E....
0450: FF 7F F0 FF FF 7F 6B 32  30 32 03 80 7C 01 F8 FF  ......k202..|...
0460: FF 7F 6E F8 FF FF 7F 0B  80 99 F8 FF FF 7F 1D 33  ..n............3
0470: 80 23 1C 0A 80 1D 34 80  23 1C 0A 80 1D 35 80 23  .#....4.#....5.#
0480: 52 06 80 F0 FF FF 7F F0  FF FF 7F 6B 32 30 32 45  R..........k202E
0490: 06 80 F0 FF FF 7F F0 FF  FF 7F 6B 32 30 33 03 80  ..........k203..
04A0: 1E F0 FF FF 7F 1C 0A 80  1D 36 80 23 6E F8 FF FF  .........6.#n...
04B0: 7F 37 80 99 F8 FF FF 7F  1D 38 80 23 1D 39 80 23  .7.......8.#.9.#
04C0: 52 06 80 F0 FF FF 7F F0  FF FF 7F 6B 32 30 33 45  R..........k203E
04D0: 06 80 F0 FF FF 7F F0 FF  FF 7F 6B 32 30 34 03 80  ..........k204..
04E0: 1C 0A 80 1D 3A 80 23 66  17 80 35 21 03 01 35 21  ....:.#f..5!..5!
04F0: 03 01 74 6C 6B 30 1D 3B  80 23 52 06 80 F0 FF FF  ..tlk0.;.#R.....
0500: 7F F0 FF FF 7F 6B 32 30  34 45 06 80 F0 FF FF 7F  .....k204E......
0510: F0 FF FF 7F 6B 32 30 33  03 80 1D 3C 80 23 66 17  ....k203...<.#f.
0520: 80 35 21 03 01 35 21 03  01 74 6C 6B 31 1D 3D 80  .5!..5!..tlk1.=.
0530: 23 52 06 80 F0 FF FF 7F  F0 FF FF 7F 6B 32 30 33  #R..........k203
0540: 45 06 80 F0 FF FF 7F F0  FF FF 7F 6B 32 30 35 03  E..........k205.
0550: 80 1C 2E 80 1D 3E 80 23  6E F8 FF FF 7F 3F 80 99  .....>.#n....?..
0560: F8 FF FF 7F 1D 40 80 23  1D 41 80 23 1D 42 80 23  .....@.#.A.#.B.#
0570: 1C 0A 80 45 02 80 F8 FF  FF 7F F8 FF FF 7F 6F 76  ...E..........ov
0580: 6C 32 03 80 52 06 80 F0  FF FF 7F F0 FF FF 7F 6B  l2..R..........k
0590: 32 30 35 45 06 80 F0 FF  FF 7F F0 FF FF 7F 6B 32  205E..........k2
05A0: 30 36 03 80 1C 2E 80 1D  43 80 23 66 17 80 35 21  06......C.#f..5!
05B0: 03 01 35 21 03 01 74 68  6B 31 1D 44 80 23 1C 0A  ..5!..thk1.D.#..
05C0: 80 66 17 80 35 21 03 01  35 21 03 01 74 68 6B 32  .f..5!..5!..thk2
05D0: 1D 45 80 23 52 06 80 F0  FF FF 7F F0 FF FF 7F 6B  .E.#R..........k
05E0: 32 30 36 45 06 80 F0 FF  FF 7F F0 FF FF 7F 6B 32  206E..........k2
05F0: 30 37 03 80 27 0A 35 21  03 01 0B 1C 2E 80 66 17  07..'.5!......f.
0600: 80 35 21 03 01 35 21 03  01 73 68 61 30 1C 46 80  .5!..5!..sha0.F.
0610: 45 02 80 F8 FF FF 7F F8  FF FF 7F 66 64 6F 31 03  E..........fdo1.
0620: 80 55 02 80 F8 FF FF 7F  F8 FF FF 7F 66 64 6F 31  .U..........fdo1
0630: 52 06 80 F0 FF FF 7F F0  FF FF 7F 6B 32 30 37 66  R..........k207f
0640: 17 80 35 21 03 01 35 21  03 01 73 68 61 31 37 47  ..5!..5!..sha17G
0650: 80 48 80 25 80 49 80 1E  F0 FF FF 7F 1D 4A 80 23  .H.%.I.......J.#
0660: 1C 0A 80 1D 4B 80 23 1C  07 80 45 06 80 F0 FF FF  ....K.#...E.....
0670: 7F F0 FF FF 7F 6B 32 30  38 03 80 45 02 80 F8 FF  .....k208..E....
0680: FF 7F F8 FF FF 7F 66 64  69 30 03 80 4A F0 FF FF  ......fdi0..J...
0690: 7F 96 20 03 01 1C 07 80  5B 4C 80 96 20 03 01 96  .. .....[L.. ...
06A0: 20 03 01 70 61 30 32 53  96 20 03 01 96 20 03 01   ..pa02S. ... ..
06B0: 70 61 30 32 52 06 80 F0  FF FF 7F F0 FF FF 7F 6B  pa02R..........k
06C0: 32 30 38 45 06 80 F0 FF  FF 7F F0 FF FF 7F 6B 32  208E..........k2
06D0: 31 30 03 80 6E F8 FF FF  7F 4D 80 99 F8 FF FF 7F  10..n....M......
06E0: 1D 4E 80 23 1C 2E 80 1D  4F 80 23 03 03 10 50 80  .N.#....O.#...P.
06F0: 1D 51 80 23 52 06 80 F0  FF FF 7F F0 FF FF 7F 6B  .Q.#R..........k
0700: 32 31 30 45 06 80 F0 FF  FF 7F F0 FF FF 7F 73 30  210E..........s0
0710: 35 39 03 80 1D 52 80 23  24 53 80 03 80 03 80 25  59...R.#$S.....%
0720: 02 00 10 03 80 00 2B 07  01 2B 07 03 01 10 00 10  ......+..+......
0730: 24 54 80 55 80 03 80 25  02 00 10 03 80 00 43 07  $T.U...%......C.
0740: 01 51 07 02 00 10 55 80  00 51 07 01 18 07 01 51  .Q....U..Q.....Q
0750: 07 52 06 80 F0 FF FF 7F  F0 FF FF 7F 73 30 35 39  .R..........s059
0760: 45 06 80 F0 FF FF 7F F0  FF FF 7F 6B 32 30 39 03  E..........k209.
0770: 80 6E F8 FF FF 7F 22 80  99 F8 FF FF 7F 1D 56 80  .n....".......V.
0780: 23 1C 07 80 45 02 80 F8  FF FF 7F F8 FF FF 7F 66  #...E..........f
0790: 64 6F 31 03 80 1C 0A 80  52 06 80 F0 FF FF 7F F0  do1.....R.......
07A0: FF FF 7F 6B 32 30 39 AC  01 21 80 AB 04 4E 01 96  ...k209..!...N..
07B0: 20 03 01 2F 01 96 20 03  01 1C 46 80 46 00 45 02   ../.. ...F.F.E.
07C0: 80 F8 FF FF 7F F8 FF FF  7F 66 64 69 31 03 80 45  .........fdi1..E
07D0: 57 80 F8 FF FF 7F F8 FF  FF 7F 71 73 74 63 03 80  W.........qstc..
07E0: 21 00                                             !.              
```

#### Opcodes

```
  0: 0x033F [0x92] EventEntity->Render.Flags3 ^= 0x01
  1: 0x0345 [0x42] SET_CLI_EVENT_CANCEL_DATA()
  2: 0x0346 [0x45] LOAD_SCHEDULED_TASK: Load scheduler "fdo1" with entities [EventEntity, EventEntity], work=[200*, 0*]
  3: 0x0357 [0x55] WAIT_LOAD_SCHEDULER: Wait for scheduler "fdo1" with entities [EventEntity, EventEntity], work=200*
  4: 0x0366 [0x46] CAMERA_CONTROL: Disable user control
  5: 0x0368 [0x38] SET_CLIENT_EVENT_MODE(mode=19*)
  6: 0x036B [0x2F] Automaton (ID: 16982166/0x01032096)->Render.Flags0 &= ~0x80000 // Bit 19
  7: 0x0371 [0x4E] SET_ENTITY_HIDE_FLAG: Show Automaton (ID: 16982166/0x01032096)
  8: 0x0377 [0x29] REQ_SET_WAIT(priority=0x0A, entity_id=LocalPlayer, tag_num=0x93)
  9: 0x037E [0x29] REQ_SET_WAIT(priority=0x0A, entity_id=Automaton (ID: 16982166/0x01032096), tag_num=0x04)
 10: 0x0385 [0x92] Iruki-Waraki (ID: 16982325/0x01032135)->Render.Flags3 ^= 0x01
 11: 0x038B [0x92] Automaton (ID: 16982166/0x01032096)->Render.Flags3 ^= 0x01
 12: 0x0391 [0x80] LOAD_WAIT(entity=LocalPlayer)
 13: 0x0396 [0x80] LOAD_WAIT(entity=Iruki-Waraki (ID: 16982325/0x01032135))
 14: 0x039B [0xAB] EventEntity->Render.Flags0 ^= 0x20000 // Toggle bit 17
 15: 0x039D [0xAC] EventEntity->StatusEvent = 0*
 16: 0x03A1 [0x37] UPDATE_EVENT_POSITION_AND_DIR: x=99.201*, z=-27.532*, y=-5.999*, direction=186.0°*
 17: 0x03AA [0x1C] WAIT(90* ticks)
 18: 0x03AD [0x4A] LocalPlayer looks at Iruki-Waraki (ID: 16982325/0x01032135)
 19: 0x03B6 [0x1E] EventEntity looks at LocalPlayer and starts talking
 20: 0x03BB [0x45] LOAD_SCHEDULED_TASK: Load scheduler "k200" with entities [LocalPlayer, LocalPlayer], work=[267*, 0*]
 21: 0x03CC [0x45] LOAD_SCHEDULED_TASK: Load scheduler "fdi1" with entities [EventEntity, EventEntity], work=[200*, 0*]
 22: 0x03DD [0x55] WAIT_LOAD_SCHEDULER: Wait for scheduler "fdi1" with entities [EventEntity, EventEntity], work=200*
 23: 0x03EC [0x1C] WAIT(30* ticks)
 24: 0x03EF [0x1D] PRINT_EVENT_MESSAGE(message_id=5821*)
    → "You again? What do you want now?"
 25: 0x03F2 [0x23] WAIT_FOR_DIALOG_INTERACTION
 26: 0x03F3 [0x52] END_LOAD_SCHEDULER: End scheduler "k200" with entities [LocalPlayer, LocalPlayer], work=267*
 27: 0x0402 [0x45] LOAD_SCHEDULED_TASK: Load scheduler "k201" with entities [LocalPlayer, LocalPlayer], work=[267*, 0*]
 28: 0x0413 [0x1D] PRINT_EVENT_MESSAGE(message_id=5822*)
    → "Y-y-you brought me an a-a-automaton!?"
 29: 0x0416 [0x23] WAIT_FOR_DIALOG_INTERACTION
 30: 0x0417 [0x1C] WAIT(60* ticks)
 31: 0x041A [0x4A] Iruki-Waraki (ID: 16982325/0x01032135) looks at Automaton (ID: 16982166/0x01032096)
 32: 0x0423 [0x1D] PRINT_EVENT_MESSAGE(message_id=5823*)
    → "F-for...m-m-me!?"
 33: 0x0426 [0x23] WAIT_FOR_DIALOG_INTERACTION
 34: 0x0427 [0x29] REQ_SET_WAIT(priority=0x0A, entity_id=Iruki-Waraki (ID: 16982325/0x01032135), tag_num=0x0A)
 35: 0x042E [0x7C] EventEntity->Render.Flags2 |= 0x00
 36: 0x0434 [0x1D] PRINT_EVENT_MESSAGE(message_id=5824*)
    → "......"
 37: 0x0437 [0x23] WAIT_FOR_DIALOG_INTERACTION
 38: 0x0438 [0x1D] PRINT_EVENT_MESSAGE(message_id=5781*)
    → "......"
 39: 0x043B [0x23] WAIT_FOR_DIALOG_INTERACTION
 40: 0x043C [0x52] END_LOAD_SCHEDULER: End scheduler "k201" with entities [LocalPlayer, LocalPlayer], work=267*
 41: 0x044B [0x45] LOAD_SCHEDULED_TASK: Load scheduler "k202" with entities [LocalPlayer, LocalPlayer], work=[267*, 0*]
 42: 0x045C [0x7C] EventEntity->Render.Flags2 |= 0x01
 43: 0x0462 [0x6E] EventEntity uses emote 6*
 44: 0x0469 [0x99] Wait for EventEntity animation to complete
 45: 0x046E [0x1D] PRINT_EVENT_MESSAGE(message_id=5826*)
    → "No no no...I...I can't possibly accept this."
 46: 0x0471 [0x23] WAIT_FOR_DIALOG_INTERACTION
 47: 0x0472 [0x1C] WAIT(60* ticks)
 48: 0x0475 [0x1D] PRINT_EVENT_MESSAGE(message_id=5827*)
    → "Until recently, I was considered the top puppeteer on Urhguum, so I know how they work... This automaton won't work with anyone but you. Try it out, and you'll see what I mean."
 49: 0x0478 [0x23] WAIT_FOR_DIALOG_INTERACTION
 50: 0x0479 [0x1C] WAIT(60* ticks)
 51: 0x047C [0x1D] PRINT_EVENT_MESSAGE(message_id=5828*)
    → "My automaton only worked for me, and I couldn't have performed with another automaton, either. You form a sort of bond, you see."
 52: 0x047F [0x23] WAIT_FOR_DIALOG_INTERACTION
 53: 0x0480 [0x52] END_LOAD_SCHEDULER: End scheduler "k202" with entities [LocalPlayer, LocalPlayer], work=267*
 54: 0x048F [0x45] LOAD_SCHEDULED_TASK: Load scheduler "k203" with entities [LocalPlayer, LocalPlayer], work=[267*, 0*]
 55: 0x04A0 [0x1E] EventEntity looks at LocalPlayer and starts talking
 56: 0x04A5 [0x1C] WAIT(60* ticks)
 57: 0x04A8 [0x1D] PRINT_EVENT_MESSAGE(message_id=5829*)
    → "What? Does that create a problem for you? Oh, yes...I did mention that I can't talk about puppeteering without an automaton, didn't I?"
 58: 0x04AB [0x23] WAIT_FOR_DIALOG_INTERACTION
 59: 0x04AC [0x6E] EventEntity uses emote 32*
 60: 0x04B3 [0x99] Wait for EventEntity animation to complete
 61: 0x04B8 [0x1D] PRINT_EVENT_MESSAGE(message_id=5830*)
    → "I was just saying that to get rid of you."
 62: 0x04BB [0x23] WAIT_FOR_DIALOG_INTERACTION
 63: 0x04BC [0x1D] PRINT_EVENT_MESSAGE(message_id=5831*)
    → "Don't get me wrong. I was completely serious about not being able to talk about Mithra if there are no ears or tail involved..."
 64: 0x04BF [0x23] WAIT_FOR_DIALOG_INTERACTION
 65: 0x04C0 [0x52] END_LOAD_SCHEDULER: End scheduler "k203" with entities [LocalPlayer, LocalPlayer], work=267*
 66: 0x04CF [0x45] LOAD_SCHEDULED_TASK: Load scheduler "k204" with entities [LocalPlayer, LocalPlayer], work=[267*, 0*]
 67: 0x04E0 [0x1C] WAIT(60* ticks)
 68: 0x04E3 [0x1D] PRINT_EVENT_MESSAGE(message_id=5832*)
    → "Um, anyway, what did you want to ask me about puppeteering?"
 69: 0x04E6 [0x23] WAIT_FOR_DIALOG_INTERACTION
 70: 0x04E7 [0x66] LOAD_EXT_SCHEDULER_MAIN: Load scheduler "tlk0" with entities [Iruki-Waraki (ID: 16982325/0x01032135), Iruki-Waraki (ID: 16982325/0x01032135)], work=49*
 71: 0x04F6 [0x1D] PRINT_EVENT_MESSAGE(message_id=5833*)
    → "Or did you come to ask me how Goblins look under their masks?"
 72: 0x04F9 [0x23] WAIT_FOR_DIALOG_INTERACTION
 73: 0x04FA [0x52] END_LOAD_SCHEDULER: End scheduler "k204" with entities [LocalPlayer, LocalPlayer], work=267*
 74: 0x0509 [0x45] LOAD_SCHEDULED_TASK: Load scheduler "k203" with entities [LocalPlayer, LocalPlayer], work=[267*, 0*]
 75: 0x051A [0x1D] PRINT_EVENT_MESSAGE(message_id=5834*)
    → "You see, about that..."
 76: 0x051D [0x23] WAIT_FOR_DIALOG_INTERACTION
 77: 0x051E [0x66] LOAD_EXT_SCHEDULER_MAIN: Load scheduler "tlk1" with entities [Iruki-Waraki (ID: 16982325/0x01032135), Iruki-Waraki (ID: 16982325/0x01032135)], work=49*
 78: 0x052D [0x1D] PRINT_EVENT_MESSAGE(message_id=5835*)
    → "Oh? You were more interested in puppeteering after all?"
 79: 0x0530 [0x23] WAIT_FOR_DIALOG_INTERACTION
 80: 0x0531 [0x52] END_LOAD_SCHEDULER: End scheduler "k203" with entities [LocalPlayer, LocalPlayer], work=267*
 81: 0x0540 [0x45] LOAD_SCHEDULED_TASK: Load scheduler "k205" with entities [LocalPlayer, LocalPlayer], work=[267*, 0*]
 82: 0x0551 [0x1C] WAIT(30* ticks)
 83: 0x0554 [0x1D] PRINT_EVENT_MESSAGE(message_id=5836*)
    → "You want to know what it takes to become a puppetmaster, do you?"
 84: 0x0557 [0x23] WAIT_FOR_DIALOG_INTERACTION
 85: 0x0558 [0x6E] EventEntity uses emote 22*
 86: 0x055F [0x99] Wait for EventEntity animation to complete
 87: 0x0564 [0x1D] PRINT_EVENT_MESSAGE(message_id=5837*)
    → "I don't know what you're talking about..."
 88: 0x0567 [0x23] WAIT_FOR_DIALOG_INTERACTION
 89: 0x0568 [0x1D] PRINT_EVENT_MESSAGE(message_id=5838*)
    → "You're already a puppetmaster!"
 90: 0x056B [0x23] WAIT_FOR_DIALOG_INTERACTION
 91: 0x056C [0x1D] PRINT_EVENT_MESSAGE(message_id=5839*)
    → "You have your own automaton. That's proof!"
 92: 0x056F [0x23] WAIT_FOR_DIALOG_INTERACTION
 93: 0x0570 [0x1C] WAIT(60* ticks)
 94: 0x0573 [0x45] LOAD_SCHEDULED_TASK: Load scheduler "ovl2" with entities [EventEntity, EventEntity], work=[200*, 0*]
 95: 0x0584 [0x52] END_LOAD_SCHEDULER: End scheduler "k205" with entities [LocalPlayer, LocalPlayer], work=267*
 96: 0x0593 [0x45] LOAD_SCHEDULED_TASK: Load scheduler "k206" with entities [LocalPlayer, LocalPlayer], work=[267*, 0*]
 97: 0x05A4 [0x1C] WAIT(30* ticks)
 98: 0x05A7 [0x1D] PRINT_EVENT_MESSAGE(message_id=5840*)
    → "Huh? Shamarhaan told you you can't operate an automaton if you're not a puppetmaster?"
 99: 0x05AA [0x23] WAIT_FOR_DIALOG_INTERACTION
100: 0x05AB [0x66] LOAD_EXT_SCHEDULER_MAIN: Load scheduler "thk1" with entities [Iruki-Waraki (ID: 16982325/0x01032135), Iruki-Waraki (ID: 16982325/0x01032135)], work=49*
101: 0x05BA [0x1D] PRINT_EVENT_MESSAGE(message_id=5841*)
    → "Hmph, he's just making stuff up."
102: 0x05BD [0x23] WAIT_FOR_DIALOG_INTERACTION
103: 0x05BE [0x1C] WAIT(60* ticks)
104: 0x05C1 [0x66] LOAD_EXT_SCHEDULER_MAIN: Load scheduler "thk2" with entities [Iruki-Waraki (ID: 16982325/0x01032135), Iruki-Waraki (ID: 16982325/0x01032135)], work=49*
105: 0x05D0 [0x1D] PRINT_EVENT_MESSAGE(message_id=5842*)
    → "Well...come to think of it, he does have a point. If you can't let the automaton know what you're thinking, it's not going to move."
106: 0x05D3 [0x23] WAIT_FOR_DIALOG_INTERACTION
107: 0x05D4 [0x52] END_LOAD_SCHEDULER: End scheduler "k206" with entities [LocalPlayer, LocalPlayer], work=267*
108: 0x05E3 [0x45] LOAD_SCHEDULED_TASK: Load scheduler "k207" with entities [LocalPlayer, LocalPlayer], work=[267*, 0*]
109: 0x05F4 [0x27] REQ_SET(priority=0x0A, entity_id=Iruki-Waraki (ID: 16982325/0x01032135), tag_num=0x0B)
110: 0x05FB [0x1C] WAIT(30* ticks)
111: 0x05FE [0x66] LOAD_EXT_SCHEDULER_MAIN: Load scheduler "sha0" with entities [Iruki-Waraki (ID: 16982325/0x01032135), Iruki-Waraki (ID: 16982325/0x01032135)], work=49*
112: 0x060D [0x1C] WAIT(110* ticks)
113: 0x0610 [0x45] LOAD_SCHEDULED_TASK: Load scheduler "fdo1" with entities [EventEntity, EventEntity], work=[200*, 0*]
114: 0x0621 [0x55] WAIT_LOAD_SCHEDULER: Wait for scheduler "fdo1" with entities [EventEntity, EventEntity], work=200*
115: 0x0630 [0x52] END_LOAD_SCHEDULER: End scheduler "k207" with entities [LocalPlayer, LocalPlayer], work=267*
116: 0x063F [0x66] LOAD_EXT_SCHEDULER_MAIN: Load scheduler "sha1" with entities [Iruki-Waraki (ID: 16982325/0x01032135), Iruki-Waraki (ID: 16982325/0x01032135)], work=49*
117: 0x064E [0x37] UPDATE_EVENT_POSITION_AND_DIR: x=96.559*, z=-25.456*, y=-5.999*, direction=23.6°*
118: 0x0657 [0x1E] EventEntity looks at LocalPlayer and starts talking
119: 0x065C [0x1D] PRINT_EVENT_MESSAGE(message_id=5843*)
    → "I've got something to help you with that... Ah, here it is!"
120: 0x065F [0x23] WAIT_FOR_DIALOG_INTERACTION
121: 0x0660 [0x1C] WAIT(60* ticks)
122: 0x0663 [0x1D] PRINT_EVENT_MESSAGE(message_id=5844*)
    → "You can use this controller... Now, try pushing here."
123: 0x0666 [0x23] WAIT_FOR_DIALOG_INTERACTION
124: 0x0667 [0x1C] WAIT(120* ticks)
125: 0x066A [0x45] LOAD_SCHEDULED_TASK: Load scheduler "k208" with entities [LocalPlayer, LocalPlayer], work=[267*, 0*]
126: 0x067B [0x45] LOAD_SCHEDULED_TASK: Load scheduler "fdi0" with entities [EventEntity, EventEntity], work=[200*, 0*]
127: 0x068C [0x4A] LocalPlayer looks at Automaton (ID: 16982166/0x01032096)
128: 0x0695 [0x1C] WAIT(120* ticks)
129: 0x0698 [0x5B] LOAD_EXT_SCHEDULER: Load scheduler "pa02" with entities [Automaton (ID: 16982166/0x01032096), Automaton (ID: 16982166/0x01032096)], work=850*
130: 0x06A7 [0x53] WAIT_SCHEDULER_TASK: Wait for scheduler "pa02" with entities [Automaton (ID: 16982166/0x01032096), Automaton (ID: 16982166/0x01032096)]
131: 0x06B4 [0x52] END_LOAD_SCHEDULER: End scheduler "k208" with entities [LocalPlayer, LocalPlayer], work=267*
132: 0x06C3 [0x45] LOAD_SCHEDULED_TASK: Load scheduler "k210" with entities [LocalPlayer, LocalPlayer], work=[267*, 0*]
133: 0x06D4 [0x6E] EventEntity uses emote 36*
134: 0x06DB [0x99] Wait for EventEntity animation to complete
135: 0x06E0 [0x1D] PRINT_EVENT_MESSAGE(message_id=5845*)
    → "See? Now it knows what you're thinking!"
136: 0x06E3 [0x23] WAIT_FOR_DIALOG_INTERACTION
137: 0x06E4 [0x1C] WAIT(30* ticks)
138: 0x06E7 [0x1D] PRINT_EVENT_MESSAGE(message_id=5846*)
    → "And the more you work together, the more responsive it will become to your commands!"
139: 0x06EA [0x23] WAIT_FOR_DIALOG_INTERACTION
140: 0x06EB [0x03] Work_Zone[3] = 17859*
141: 0x06F0 [0x1D] PRINT_EVENT_MESSAGE(message_id=5847*)
    → "You can use this $1 to give direction to your automaton!"
142: 0x06F3 [0x23] WAIT_FOR_DIALOG_INTERACTION
143: 0x06F4 [0x52] END_LOAD_SCHEDULER: End scheduler "k210" with entities [LocalPlayer, LocalPlayer], work=267*
144: 0x0703 [0x45] LOAD_SCHEDULED_TASK: Load scheduler "s059" with entities [LocalPlayer, LocalPlayer], work=[267*, 0*]
145: 0x0714 [0x1D] PRINT_EVENT_MESSAGE(message_id=5848*)
    → "Oh! And you should give your automaton a name, too. It's all yours now, so you get to decide!"
146: 0x0717 [0x23] WAIT_FOR_DIALOG_INTERACTION
147: 0x0718 [0x24] CREATE_DIALOG(message_id=5849*, default_option=0*, option_flags=0*)
    → "Choose your automaton's name. [Luron/Drille/Tournefoux/Chafouin/Plaisantin/Loustic/Histrion/Bobeche/Bougrion/Rouleteau/Allouette/Serenade/Ficelette/Tocadie/Caprice/Foucade/Capillotte/Quenotte/Pacotille/Comedie/Kagekiyo/Toraoh/Genta/Kintoki/Koumei/Pamama/Lobo/Tsukushi/Oniwaka/Kenbishi/Hannya/Mashira]"
148: 0x071F [0x25] WAIT_DIALOG_SELECT()
149: 0x0720 [0x02] IF !(Work_Zone[0] == 0*) GOTO 0x072B
150: 0x0728 [0x01] GOTO 0x072B

SUBROUTINE_072B:
151: 0x072B [0x03] Work_Zone[1] = Work_Zone[0]
152: 0x0730 [0x24] CREATE_DIALOG(message_id=5851*, default_option=1*, option_flags=0*)
    → "Are you sure this name is okay? [Yes, this is it./On second thought...]"
153: 0x0737 [0x25] WAIT_DIALOG_SELECT()
154: 0x0738 [0x02] IF !(Work_Zone[0] == 0*) GOTO 0x0743
155: 0x0740 [0x01] GOTO 0x0751
156: 0x0743 [0x02] IF !(Work_Zone[0] == 1*) GOTO 0x0751
157: 0x074B [0x01] GOTO 0x0718

SUBROUTINE_0751:
158: 0x0751 [0x52] END_LOAD_SCHEDULER: End scheduler "s059" with entities [LocalPlayer, LocalPlayer], work=267*
159: 0x0760 [0x45] LOAD_SCHEDULED_TASK: Load scheduler "k209" with entities [LocalPlayer, LocalPlayer], work=[267*, 0*]
160: 0x0771 [0x6E] EventEntity uses emote 13*
161: 0x0778 [0x99] Wait for EventEntity animation to complete
162: 0x077D [0x1D] PRINT_EVENT_MESSAGE(message_id=5852*)
    → "Good luck! I'm behind you all the way!"
163: 0x0780 [0x23] WAIT_FOR_DIALOG_INTERACTION
164: 0x0781 [0x1C] WAIT(120* ticks)
165: 0x0784 [0x45] LOAD_SCHEDULED_TASK: Load scheduler "fdo1" with entities [EventEntity, EventEntity], work=[200*, 0*]
166: 0x0795 [0x1C] WAIT(60* ticks)
167: 0x0798 [0x52] END_LOAD_SCHEDULER: End scheduler "k209" with entities [LocalPlayer, LocalPlayer], work=267*
168: 0x07A7 [0xAC] EventEntity->StatusEvent = 47*
169: 0x07AB [0xAB] EventEntity->Render.Flags0 |= 0x40000 // Set bit 18
170: 0x07AD [0x4E] SET_ENTITY_HIDE_FLAG: Hide Automaton (ID: 16982166/0x01032096)
171: 0x07B3 [0x2F] Automaton (ID: 16982166/0x01032096)->Render.Flags0 |= 0x80000 // Bit 19
172: 0x07B9 [0x1C] WAIT(110* ticks)
173: 0x07BC [0x46] CAMERA_CONTROL: Restore default settings
174: 0x07BE [0x45] LOAD_SCHEDULED_TASK: Load scheduler "fdi1" with entities [EventEntity, EventEntity], work=[200*, 0*]
175: 0x07CF [0x45] LOAD_SCHEDULED_TASK: Load scheduler "qstc" with entities [EventEntity, EventEntity], work=[201*, 0*]
176: 0x07E0 [0x21] END_EVENT
177: 0x07E1 [0x00] END_REQSTACK()
```

#### Data or dead code:

```
# Dead code (unreachable instructions):
     0x074E [0x01] GOTO 0x0751
```

### Event 65535.5

#### Metadata

| Field        | Value    |
|--------------|----------|
| Entrypoint   | 0x07E2   |
| Data Size    | 14 bytes |
| Instructions | 4        |

```
      00 01 02 03 04 05 06 07  08 09 0A 0B 0C 0D 0E 0F
      -- -- -- -- -- -- -- --  -- -- -- -- -- -- -- --
07E0:       32 22 80 1F 00 58  80 59 80 28 80 1F 01 00    2"...X.Y.(....
```

#### Opcodes

```
  0: 0x07E2 [0x32] ExtData[1]->MainSpeed = 13* * 0.1
  1: 0x07E5 [0x1F] MOVE_ENTITY: EventEntity moves to X=96.600*, Z=-25.716*, Y=-6.000*
  2: 0x07ED [0x1F] MOVE_ENTITY: Update entity position (mode=1)
  3: 0x07EF [0x00] END_REQSTACK()
```

### Event 65535.6

#### Metadata

| Field        | Value    |
|--------------|----------|
| Entrypoint   | 0x07F0   |
| Data Size    | 19 bytes |
| Instructions | 5        |

```
      00 01 02 03 04 05 06 07  08 09 0A 0B 0C 0D 0E 0F
      -- -- -- -- -- -- -- --  -- -- -- -- -- -- -- --
07F0: 32 22 80 1F 00 5A 80 5B  80 28 80 1F 01 1E 96 20  2"...Z.[.(..... 
0800: 03 01 00                                          ...             
```

#### Opcodes

```
  0: 0x07F0 [0x32] ExtData[1]->MainSpeed = 13* * 0.1
  1: 0x07F3 [0x1F] MOVE_ENTITY: EventEntity moves to X=95.577*, Z=-25.126*, Y=-6.000*
  2: 0x07FB [0x1F] MOVE_ENTITY: Update entity position (mode=1)
  3: 0x07FD [0x1E] EventEntity looks at Automaton (ID: 16982166/0x01032096) and starts talking
  4: 0x0802 [0x00] END_REQSTACK()
```

### Event 774

#### Metadata

| Field        | Value   |
|--------------|---------|
| Entrypoint   | 0x0803  |
| Data Size    | 1 bytes |
| Instructions | 1       |

```
      00 01 02 03 04 05 06 07  08 09 0A 0B 0C 0D 0E 0F
      -- -- -- -- -- -- -- --  -- -- -- -- -- -- -- --
0800:          00                                          .            
```

#### Opcodes

```
  0: 0x0803 [0x00] END_REQSTACK()
```

### Event 775

#### Metadata

| Field        | Value   |
|--------------|---------|
| Entrypoint   | 0x0804  |
| Data Size    | 6 bytes |
| Instructions | 4       |

```
      00 01 02 03 04 05 06 07  08 09 0A 0B 0C 0D 0E 0F
      -- -- -- -- -- -- -- --  -- -- -- -- -- -- -- --
0800:             1D 5C 80 23  21 00                        .\.#!.      
```

#### Opcodes

```
  0: 0x0804 [0x1D] PRINT_EVENT_MESSAGE(message_id=5917*)
    → "You should head for Nashmau. Good luck, and be careful."
  1: 0x0807 [0x23] WAIT_FOR_DIALOG_INTERACTION
  2: 0x0808 [0x21] END_EVENT
  3: 0x0809 [0x00] END_REQSTACK()
```

### Event 776

#### Metadata

| Field        | Value   |
|--------------|---------|
| Entrypoint   | 0x080A  |
| Data Size    | 1 bytes |
| Instructions | 1       |

```
      00 01 02 03 04 05 06 07  08 09 0A 0B 0C 0D 0E 0F
      -- -- -- -- -- -- -- --  -- -- -- -- -- -- -- --
0800:                                00                           .     
```

#### Opcodes

```
  0: 0x080A [0x00] END_REQSTACK()
```

### Event 777

#### Metadata

| Field        | Value   |
|--------------|---------|
| Entrypoint   | 0x080B  |
| Data Size    | 6 bytes |
| Instructions | 4       |

```
      00 01 02 03 04 05 06 07  08 09 0A 0B 0C 0D 0E 0F
      -- -- -- -- -- -- -- --  -- -- -- -- -- -- -- --
0800:                                   1D 5D 80 23 21             .].#!
0810: 00                                                .               
```

#### Opcodes

```
  0: 0x080B [0x1D] PRINT_EVENT_MESSAGE(message_id=5930*)
    → "If anything else comes up, just let me know!"
  1: 0x080E [0x23] WAIT_FOR_DIALOG_INTERACTION
  2: 0x080F [0x21] END_EVENT
  3: 0x0810 [0x00] END_REQSTACK()
```

### Event 778

#### Metadata

| Field        | Value   |
|--------------|---------|
| Entrypoint   | 0x0811  |
| Data Size    | 1 bytes |
| Instructions | 1       |

```
      00 01 02 03 04 05 06 07  08 09 0A 0B 0C 0D 0E 0F
      -- -- -- -- -- -- -- --  -- -- -- -- -- -- -- --
0810:    00                                              .              
```

#### Opcodes

```
  0: 0x0811 [0x00] END_REQSTACK()
```

### Event 779

#### Metadata

| Field        | Value    |
|--------------|----------|
| Entrypoint   | 0x0812   |
| Data Size    | 16 bytes |
| Instructions | 6        |

```
      00 01 02 03 04 05 06 07  08 09 0A 0B 0C 0D 0E 0F
      -- -- -- -- -- -- -- --  -- -- -- -- -- -- -- --
0810:       03 02 10 5E 80 03  03 10 5F 80 1D 60 80 23    ...^...._..`.#
0820: 21 00                                             !.              
```

#### Opcodes

```
  0: 0x0812 [0x03] Work_Zone[2] = 4161*
  1: 0x0817 [0x03] Work_Zone[3] = 5570*
  2: 0x081C [0x1D] PRINT_EVENT_MESSAGE(message_id=5942*)
    → "Bring me $0 and $1, and I'll explain to you my plan."
  3: 0x081F [0x23] WAIT_FOR_DIALOG_INTERACTION
  4: 0x0820 [0x21] END_EVENT
  5: 0x0821 [0x00] END_REQSTACK()
```

### Event 780

#### Metadata

| Field        | Value   |
|--------------|---------|
| Entrypoint   | 0x0822  |
| Data Size    | 1 bytes |
| Instructions | 1       |

```
      00 01 02 03 04 05 06 07  08 09 0A 0B 0C 0D 0E 0F
      -- -- -- -- -- -- -- --  -- -- -- -- -- -- -- --
0820:       00                                            .             
```

#### Opcodes

```
  0: 0x0822 [0x00] END_REQSTACK()
```

### Event 781

#### Metadata

| Field        | Value   |
|--------------|---------|
| Entrypoint   | 0x0823  |
| Data Size    | 6 bytes |
| Instructions | 4       |

```
      00 01 02 03 04 05 06 07  08 09 0A 0B 0C 0D 0E 0F
      -- -- -- -- -- -- -- --  -- -- -- -- -- -- -- --
0820:          1D 61 80 23 21  00                          .a.#!.       
```

#### Opcodes

```
  0: 0x0823 [0x1D] PRINT_EVENT_MESSAGE(message_id=5952*)
    → "What are you still doing here? The thief is in Nashmau, right? I went through a lot to set up that teahouse, so you better make sure the thief gets there!"
  1: 0x0826 [0x23] WAIT_FOR_DIALOG_INTERACTION
  2: 0x0827 [0x21] END_EVENT
  3: 0x0828 [0x00] END_REQSTACK()
```

### Event 794

#### Metadata

| Field        | Value   |
|--------------|---------|
| Entrypoint   | 0x0829  |
| Data Size    | 6 bytes |
| Instructions | 4       |

```
      00 01 02 03 04 05 06 07  08 09 0A 0B 0C 0D 0E 0F
      -- -- -- -- -- -- -- --  -- -- -- -- -- -- -- --
0820:                             1D 62 80 23 21 00              .b.#!. 
```

#### Opcodes

```
  0: 0x0829 [0x1D] PRINT_EVENT_MESSAGE(message_id=5953*)
    → "..."
  1: 0x082C [0x23] WAIT_FOR_DIALOG_INTERACTION
  2: 0x082D [0x21] END_EVENT
  3: 0x082E [0x00] END_REQSTACK()
```

### Event 65535.7

#### Metadata

| Field        | Value    |
|--------------|----------|
| Entrypoint   | 0x082F   |
| Data Size    | 10 bytes |
| Instructions | 2        |

```
      00 01 02 03 04 05 06 07  08 09 0A 0B 0C 0D 0E 0F
      -- -- -- -- -- -- -- --  -- -- -- -- -- -- -- --
0820:                                               37                 7
0830: 63 80 64 80 25 80 65 80  00                       c.d.%.e..       
```

#### Opcodes

```
  0: 0x082F [0x37] UPDATE_EVENT_POSITION_AND_DIR: x=100.594*, z=-27.505*, y=-5.999*, direction=5.1°*
  1: 0x0838 [0x00] END_REQSTACK()
```

### Event 65535.8

#### Metadata

| Field        | Value    |
|--------------|----------|
| Entrypoint   | 0x0839   |
| Data Size    | 10 bytes |
| Instructions | 2        |

```
      00 01 02 03 04 05 06 07  08 09 0A 0B 0C 0D 0E 0F
      -- -- -- -- -- -- -- --  -- -- -- -- -- -- -- --
0830:                             37 66 80 67 80 28 80           7f.g.(.
0840: 68 80 00                                          h..             
```

#### Opcodes

```
  0: 0x0839 [0x37] UPDATE_EVENT_POSITION_AND_DIR: x=97.886*, z=-27.624*, y=-6.000*, direction=183.6°*
  1: 0x0842 [0x00] END_REQSTACK()
```

### Event 782

#### Metadata

| Field        | Value   |
|--------------|---------|
| Entrypoint   | 0x0843  |
| Data Size    | 1 bytes |
| Instructions | 1       |

```
      00 01 02 03 04 05 06 07  08 09 0A 0B 0C 0D 0E 0F
      -- -- -- -- -- -- -- --  -- -- -- -- -- -- -- --
0840:          00                                          .            
```

#### Opcodes

```
  0: 0x0843 [0x00] END_REQSTACK()
```

### Event 783

#### Metadata

| Field        | Value    |
|--------------|----------|
| Entrypoint   | 0x0844   |
| Data Size    | 10 bytes |
| Instructions | 6        |

```
      00 01 02 03 04 05 06 07  08 09 0A 0B 0C 0D 0E 0F
      -- -- -- -- -- -- -- --  -- -- -- -- -- -- -- --
0840:             1D 69 80 23  1D 6A 80 23 21 00            .i.#.j.#!.  
```

#### Opcodes

```
  0: 0x0844 [0x1D] PRINT_EVENT_MESSAGE(message_id=5958*)
    → "How could Master Shamarhaan ever have decided I was fit for this trade?"
  1: 0x0847 [0x23] WAIT_FOR_DIALOG_INTERACTION
  2: 0x0848 [0x1D] PRINT_EVENT_MESSAGE(message_id=5959*)
    → "I wonder how I can make Ellie appreciate me again... I wonder if Master Shamarhaan would have any good advice..."
  3: 0x084B [0x23] WAIT_FOR_DIALOG_INTERACTION
  4: 0x084C [0x21] END_EVENT
  5: 0x084D [0x00] END_REQSTACK()
```

### Event 784

#### Metadata

| Field        | Value   |
|--------------|---------|
| Entrypoint   | 0x084E  |
| Data Size    | 1 bytes |
| Instructions | 1       |

```
      00 01 02 03 04 05 06 07  08 09 0A 0B 0C 0D 0E 0F
      -- -- -- -- -- -- -- --  -- -- -- -- -- -- -- --
0840:                                            00                   . 
```

#### Opcodes

```
  0: 0x084E [0x00] END_REQSTACK()
```

### Event 785

#### Metadata

| Field        | Value   |
|--------------|---------|
| Entrypoint   | 0x084F  |
| Data Size    | 6 bytes |
| Instructions | 4       |

```
      00 01 02 03 04 05 06 07  08 09 0A 0B 0C 0D 0E 0F
      -- -- -- -- -- -- -- --  -- -- -- -- -- -- -- --
0840:                                               1D                 .
0850: 6B 80 23 21 00                                    k.#!.           
```

#### Opcodes

```
  0: 0x084F [0x1D] PRINT_EVENT_MESSAGE(message_id=5971*)
    → "I don't have much of a choice, do I? I guess I'll head for Nashmau, then..."
  1: 0x0852 [0x23] WAIT_FOR_DIALOG_INTERACTION
  2: 0x0853 [0x21] END_EVENT
  3: 0x0854 [0x00] END_REQSTACK()
```

### Event 786

#### Metadata

| Field        | Value   |
|--------------|---------|
| Entrypoint   | 0x0855  |
| Data Size    | 1 bytes |
| Instructions | 1       |

```
      00 01 02 03 04 05 06 07  08 09 0A 0B 0C 0D 0E 0F
      -- -- -- -- -- -- -- --  -- -- -- -- -- -- -- --
0850:                00                                      .          
```

#### Opcodes

```
  0: 0x0855 [0x00] END_REQSTACK()
```

### Event 787

#### Metadata

| Field        | Value    |
|--------------|----------|
| Entrypoint   | 0x0856   |
| Data Size    | 14 bytes |
| Instructions | 8        |

```
      00 01 02 03 04 05 06 07  08 09 0A 0B 0C 0D 0E 0F
      -- -- -- -- -- -- -- --  -- -- -- -- -- -- -- --
0850:                   1D 6C  80 23 1D 6D 80 23 1D 6E        .l.#.m.#.n
0860: 80 23 21 00                                       .#!.            
```

#### Opcodes

```
  0: 0x0856 [0x1D] PRINT_EVENT_MESSAGE(message_id=5980*)
    → "Hey, <Player>. How's everything going?"
  1: 0x0859 [0x23] WAIT_FOR_DIALOG_INTERACTION
  2: 0x085A [0x1D] PRINT_EVENT_MESSAGE(message_id=5981*)
    → "I'm taking a little break from work right now and spending some time with Ellie."
  3: 0x085D [0x23] WAIT_FOR_DIALOG_INTERACTION
  4: 0x085E [0x1D] PRINT_EVENT_MESSAGE(message_id=5982*)
    → "Your automaton will start to get sulky if you don't pay it enough attention, you know."
  5: 0x0861 [0x23] WAIT_FOR_DIALOG_INTERACTION
  6: 0x0862 [0x21] END_EVENT
  7: 0x0863 [0x00] END_REQSTACK()
```

### Event 65535.9

#### Metadata

| Field        | Value    |
|--------------|----------|
| Entrypoint   | 0x0864   |
| Data Size    | 10 bytes |
| Instructions | 2        |

```
      00 01 02 03 04 05 06 07  08 09 0A 0B 0C 0D 0E 0F
      -- -- -- -- -- -- -- --  -- -- -- -- -- -- -- --
0860:             37 29 80 2A  80 25 80 6F 80 00            7).*.%.o..  
```

#### Opcodes

```
  0: 0x0864 [0x37] UPDATE_EVENT_POSITION_AND_DIR: x=101.329*, z=-29.042*, y=-5.999*, direction=214.4°*
  1: 0x086D [0x00] END_REQSTACK()
```

### Event 65535.10

#### Metadata

| Field        | Value    |
|--------------|----------|
| Entrypoint   | 0x086E   |
| Data Size    | 10 bytes |
| Instructions | 4        |

```
      00 01 02 03 04 05 06 07  08 09 0A 0B 0C 0D 0E 0F
      -- -- -- -- -- -- -- --  -- -- -- -- -- -- -- --
0860:                                            AB 03                ..
0870: AC 01 03 80 1C 70 80 00                           .....p..        
```

#### Opcodes

```
  0: 0x086E [0xAB] EventEntity->Render.Flags0 ^= 0x20000 // Toggle bit 17
  1: 0x0870 [0xAC] EventEntity->StatusEvent = 0*
  2: 0x0874 [0x1C] WAIT(150* ticks)
  3: 0x0877 [0x00] END_REQSTACK()
```

### Event 65535.11

#### Metadata

| Field        | Value   |
|--------------|---------|
| Entrypoint   | 0x0878  |
| Data Size    | 7 bytes |
| Instructions | 3       |

```
      00 01 02 03 04 05 06 07  08 09 0A 0B 0C 0D 0E 0F
      -- -- -- -- -- -- -- --  -- -- -- -- -- -- -- --
0870:                          AC 01 21 80 AB 04 00             ..!.... 
```

#### Opcodes

```
  0: 0x0878 [0xAC] EventEntity->StatusEvent = 47*
  1: 0x087C [0xAB] EventEntity->Render.Flags0 |= 0x40000 // Set bit 18
  2: 0x087E [0x00] END_REQSTACK()
```

### Event 65535.12

#### Metadata

| Field        | Value    |
|--------------|----------|
| Entrypoint   | 0x087F   |
| Data Size    | 17 bytes |
| Instructions | 5        |

```
      00 01 02 03 04 05 06 07  08 09 0A 0B 0C 0D 0E 0F
      -- -- -- -- -- -- -- --  -- -- -- -- -- -- -- --
0870:                                               32                 2
0880: 22 80 1F 00 71 80 72 80  25 80 1F 01 39 73 80 00  "...q.r.%...9s..
```

#### Opcodes

```
  0: 0x087F [0x32] ExtData[1]->MainSpeed = 13* * 0.1
  1: 0x0882 [0x1F] MOVE_ENTITY: EventEntity moves to X=99.398*, Z=-25.537*, Y=-5.999*
  2: 0x088A [0x1F] MOVE_ENTITY: Update entity position (mode=1)
  3: 0x088C [0x39] SET_ENTITY_DIRECTION(direction=16.8°*)
  4: 0x088F [0x00] END_REQSTACK()
```

### Event 65535.13

#### Metadata

| Field        | Value   |
|--------------|---------|
| Entrypoint   | 0x0890  |
| Data Size    | 4 bytes |
| Instructions | 2       |

```
      00 01 02 03 04 05 06 07  08 09 0A 0B 0C 0D 0E 0F
      -- -- -- -- -- -- -- --  -- -- -- -- -- -- -- --
0890: 1C 05 80 00                                       ....            
```

#### Opcodes

```
  0: 0x0890 [0x1C] WAIT(90* ticks)
  1: 0x0893 [0x00] END_REQSTACK()
```

### Event 65535.14

#### Metadata

| Field        | Value    |
|--------------|----------|
| Entrypoint   | 0x0894   |
| Data Size    | 10 bytes |
| Instructions | 2        |

```
      00 01 02 03 04 05 06 07  08 09 0A 0B 0C 0D 0E 0F
      -- -- -- -- -- -- -- --  -- -- -- -- -- -- -- --
0890:             37 74 80 75  80 03 80 76 80 00            7t.u...v..  
```

#### Opcodes

```
  0: 0x0894 [0x37] UPDATE_EVENT_POSITION_AND_DIR: x=-100.185*, z=-5.707*, y=0.000*, direction=184.2°*
  1: 0x089D [0x00] END_REQSTACK()
```

### Event 65535.15

#### Metadata

| Field        | Value    |
|--------------|----------|
| Entrypoint   | 0x089E   |
| Data Size    | 23 bytes |
| Instructions | 7        |

```
      00 01 02 03 04 05 06 07  08 09 0A 0B 0C 0D 0E 0F
      -- -- -- -- -- -- -- --  -- -- -- -- -- -- -- --
0890:                                            32 22                2"
08A0: 80 1F 00 77 80 78 80 03  80 1F 01 4B 35 21 03 01  ...w.x.....K5!..
08B0: 79 80 6F 70 00                                    y.op.           
```

#### Opcodes

```
  0: 0x089E [0x32] ExtData[1]->MainSpeed = 13* * 0.1
  1: 0x08A1 [0x1F] MOVE_ENTITY: EventEntity moves to X=-107.526*, Z=-6.324*, Y=0.000*
  2: 0x08A9 [0x1F] MOVE_ENTITY: Update entity position (mode=1)
  3: 0x08AB [0x4B] UPDATE_ENTITY_YAW(entity=Iruki-Waraki (ID: 16982325/0x01032135), yaw=16.8°*)
  4: 0x08B2 [0x6F] WAIT_FRAME_DELAY: Yield until WaitTime reaches zero
  5: 0x08B3 [0x70] WAIT_ENTITY_RENDER_FLAG: Wait while EventEntity->Render.Flags3 bit 2 is set (cancel turn if not)
  6: 0x08B4 [0x00] END_REQSTACK()
```

### Event 65535.16

#### Metadata

| Field        | Value    |
|--------------|----------|
| Entrypoint   | 0x08B5   |
| Data Size    | 10 bytes |
| Instructions | 2        |

```
      00 01 02 03 04 05 06 07  08 09 0A 0B 0C 0D 0E 0F
      -- -- -- -- -- -- -- --  -- -- -- -- -- -- -- --
08B0:                37 71 80  72 80 25 80 73 80 00          7q.r.%.s.. 
```

#### Opcodes

```
  0: 0x08B5 [0x37] UPDATE_EVENT_POSITION_AND_DIR: x=99.398*, z=-25.537*, y=-5.999*, direction=268.1°*
  1: 0x08BE [0x00] END_REQSTACK()
```

### Event 65535.17

#### Metadata

| Field        | Value    |
|--------------|----------|
| Entrypoint   | 0x08BF   |
| Data Size    | 63 bytes |
| Instructions | 23       |

```
      00 01 02 03 04 05 06 07  08 09 0A 0B 0C 0D 0E 0F
      -- -- -- -- -- -- -- --  -- -- -- -- -- -- -- --
08B0:                                               1F                 .
08C0: 00 7A 80 7B 80 03 80 1F  01 1C 05 80 39 7C 80 6F  .z.{........9|.o
08D0: 70 1C 0A 80 39 7D 80 6F  70 1C 7E 80 39 7C 80 6F  p...9}.op.~.9|.o
08E0: 70 1C 0A 80 39 7F 80 6F  70 6E F8 FF FF 7F 80 80  p...9..opn......
08F0: 99 F8 FF FF 7F 99 F8 FF  FF 7F 1C 0A 80 00        ..............  
```

#### Opcodes

```
  0: 0x08BF [0x1F] MOVE_ENTITY: EventEntity moves to X=-105.788*, Z=-6.203*, Y=0.000*
  1: 0x08C7 [0x1F] MOVE_ENTITY: Update entity position (mode=1)
  2: 0x08C9 [0x1C] WAIT(90* ticks)
  3: 0x08CC [0x39] SET_ENTITY_DIRECTION(direction=7.7°*)
  4: 0x08CF [0x6F] WAIT_FRAME_DELAY: Yield until WaitTime reaches zero
  5: 0x08D0 [0x70] WAIT_ENTITY_RENDER_FLAG: Wait while EventEntity->Render.Flags3 bit 2 is set (cancel turn if not)
  6: 0x08D1 [0x1C] WAIT(60* ticks)
  7: 0x08D4 [0x39] SET_ENTITY_DIRECTION(direction=2.1°*)
  8: 0x08D7 [0x6F] WAIT_FRAME_DELAY: Yield until WaitTime reaches zero
  9: 0x08D8 [0x70] WAIT_ENTITY_RENDER_FLAG: Wait while EventEntity->Render.Flags3 bit 2 is set (cancel turn if not)
 10: 0x08D9 [0x1C] WAIT(45* ticks)
 11: 0x08DC [0x39] SET_ENTITY_DIRECTION(direction=7.7°*)
 12: 0x08DF [0x6F] WAIT_FRAME_DELAY: Yield until WaitTime reaches zero
 13: 0x08E0 [0x70] WAIT_ENTITY_RENDER_FLAG: Wait while EventEntity->Render.Flags3 bit 2 is set (cancel turn if not)
 14: 0x08E1 [0x1C] WAIT(60* ticks)
 15: 0x08E4 [0x39] SET_ENTITY_DIRECTION(direction=5.6°*)
 16: 0x08E7 [0x6F] WAIT_FRAME_DELAY: Yield until WaitTime reaches zero
 17: 0x08E8 [0x70] WAIT_ENTITY_RENDER_FLAG: Wait while EventEntity->Render.Flags3 bit 2 is set (cancel turn if not)
 18: 0x08E9 [0x6E] EventEntity uses emote 21*
 19: 0x08F0 [0x99] Wait for EventEntity animation to complete
 20: 0x08F5 [0x99] Wait for EventEntity animation to complete
 21: 0x08FA [0x1C] WAIT(60* ticks)
 22: 0x08FD [0x00] END_REQSTACK()
```
