# 16982252 - Cacaroon

## Common Data

| Field            | Value                         |
|------------------|-------------------------------|
| Zone             | Aht Urhgan Whitegate (ID: 50) |
| Block Size       | 904 bytes                     |
| Total Events     | 29                            |
| References Count | 53                            |

## List of Events

| Event ID                   | Entrypoint   |   Size |   Instructions |
|----------------------------|--------------|--------|----------------|
| [65535](#event-65535)      | 0x0000       |      1 |              1 |
| [248](#event-248)          | 0x0001       |     56 |             10 |
| [3022](#event-3022)        | 0x0039       |      1 |              1 |
| [3023](#event-3023)        | 0x003A       |    107 |             17 |
| [65535.1](#event-655351)   | 0x00A5       |      1 |              1 |
| [3035](#event-3035)        | 0x00A6       |      1 |              1 |
| [3036](#event-3036)        | 0x00A7       |    135 |             23 |
| [595](#event-595)          | 0x012E       |      1 |              1 |
| [608](#event-608)          | 0x012F       |     14 |              8 |
| [609](#event-609)          | 0x013D       |      1 |              1 |
| [65535.2](#event-655352)   | 0x013E       |     34 |              8 |
| [65535.3](#event-655353)   | 0x0160       |     10 |              2 |
| [65535.4](#event-655354)   | 0x016A       |     10 |              2 |
| [812](#event-812)          | 0x0174       |      1 |              1 |
| [65535.5](#event-655355)   | 0x0175       |      1 |              1 |
| [849](#event-849)          | 0x0176       |      1 |              1 |
| [850](#event-850)          | 0x0177       |      1 |              1 |
| [65535.6](#event-655356)   | 0x0178       |     18 |              6 |
| [65535.7](#event-655357)   | 0x018A       |     15 |              5 |
| [65535.8](#event-655358)   | 0x0199       |     15 |              5 |
| [65535.9](#event-655359)   | 0x01A8       |     15 |              5 |
| [65535.10](#event-6553510) | 0x01B7       |     15 |              5 |
| [65535.11](#event-6553511) | 0x01C6       |     15 |              5 |
| [65535.12](#event-6553512) | 0x01D5       |     15 |              5 |
| [65535.13](#event-6553513) | 0x01E4       |     15 |              5 |
| [65535.14](#event-6553514) | 0x01F3       |     15 |              5 |
| [853](#event-853)          | 0x0202       |     19 |              9 |
| [854](#event-854)          | 0x0215       |     11 |              5 |
| [855](#event-855)          | 0x0220       |     15 |              7 |

## DAT References (imed_data)

|   Index | Hex Value   |   Dec Value |
|---------|-------------|-------------|
|       0 | 0x034B      |         843 |
|       1 | 0x2436      |        9270 |
|       2 | 0x034A      |         842 |
|       3 | 0x2442      |        9282 |
|       4 | 0x2440      |        9280 |
|       5 | 0x2441      |        9281 |
|       6 | 0x2437      |        9271 |
|       7 | 0x2438      |        9272 |
|       8 | 0x243B      |        9275 |
|       9 | 0x24B6      |        9398 |
|      10 | 0x000D      |          13 |
|      11 | 0xFFFEDCDF  |  4294892767 |
|      12 | 0xFFFEBB86  |  4294884230 |
|      13 | 0x0000      |           0 |
|      14 | 0x04D4      |        1236 |
|      15 | 0xFFFEDCB4  |  4294892724 |
|      16 | 0xFFFEB4E8  |  4294882536 |
|      17 | 0xFFFEDEA8  |  4294893224 |
|      18 | 0xFFFEB220  |  4294881824 |
|      19 | 0xFFFEDE9D  |  4294893213 |
|      20 | 0xFFFEB09B  |  4294881435 |
|      21 | 0x0056      |          86 |
|      22 | 0xFFFEE3D7  |  4294894551 |
|      23 | 0xFFFEA8B8  |  4294879416 |
|      24 | 0x0F94      |        3988 |
|      25 | 0xFFFFCE9C  |  4294954652 |
|      26 | 0x0176      |         374 |
|      27 | 0x003C      |          60 |
|      28 | 0x0028      |          40 |
|      29 | 0xFFFFC820  |  4294952992 |
|      30 | 0x082B      |        2091 |
|      31 | 0x0034      |          52 |
|      32 | 0xFFFFB430  |  4294947888 |
|      33 | 0x1EBF      |        7871 |
|      34 | 0xFFFFA25E  |  4294943326 |
|      35 | 0x6EC0      |       28352 |
|      36 | 0xFFFFE891  |  4294961297 |
|      37 | 0xFFFEE675  |  4294895221 |
|      38 | 0xFFFEB22D  |  4294881837 |
|      39 | 0xFFFEE0F0  |  4294893808 |
|      40 | 0xFFFEB0BD  |  4294881469 |
|      41 | 0xFFFEDCAE  |  4294892718 |
|      42 | 0xFFFEB110  |  4294881552 |
|      43 | 0xFFFEDB35  |  4294892341 |
|      44 | 0xFFFEB454  |  4294882388 |
|      45 | 0xFFFEDE67  |  4294893159 |
|      46 | 0xFFFEBFC1  |  4294885313 |
|      47 | 0x3188      |       12680 |
|      48 | 0x3189      |       12681 |
|      49 | 0x318A      |       12682 |
|      50 | 0x3186      |       12678 |
|      51 | 0x318B      |       12683 |
|      52 | 0x3185      |       12677 |

## String References

- **9270**: Cacaroon got cheeep info, ya? Yooo got big gil? Cacaroon got big info!
- **9271**: Mercenary [maaan/laaady], look for Elvaan? With shiny shiny armor?
- **9272**: Mercenary [maaan/laaady], Cacaroon like things that go "clink clink," ya?
- **9275**: Cheeep info! Cacaroon only need one thing that go "clink clink," ya?
- **9280**: Very shiny shiny, ya?
- **9281**: Cacaroon will never forget shiny shiny Elvaan.
- **9282**: Shiny shiny Elvaan will come back to Cacaroon with "clink clink"!
- **9398**: Mamoook very spoooky place. Cacaroon never want go there.
- **12677**: Then Kakkaroon no more scared. Kakkaroon make nice with babeee Tarooo!
- **12678**: Cacaroon call friends now. Yooo ride boat to Ququroon now, ya?
- **12680**: Ah... Kakkaroon, ya? Maybe Cacaroon have info... Maybe no...
- **12681**: Ummm... Hrmmm...
- **12682**: Cacaroon got cheeep info, ya? Yooo got "clink clink"? Cacaroon got big info!
- **12683**: Cacaroon help, ya? Cacaroon use network. Cacaroon find help!

## Events

### Event 65535

#### Metadata

| Field        | Value   |
|--------------|---------|
| Entrypoint   | 0x0000  |
| Data Size    | 1 bytes |
| Instructions | 1       |

```
      00 01 02 03 04 05 06 07  08 09 0A 0B 0C 0D 0E 0F
      -- -- -- -- -- -- -- --  -- -- -- -- -- -- -- --
0000: 00                                                .               
```

#### Opcodes

```
  0: 0x0000 [0x00] END_REQSTACK()
```

### Event 248

#### Metadata

| Field        | Value    |
|--------------|----------|
| Entrypoint   | 0x0001   |
| Data Size    | 56 bytes |
| Instructions | 10       |

```
      00 01 02 03 04 05 06 07  08 09 0A 0B 0C 0D 0E 0F
      -- -- -- -- -- -- -- --  -- -- -- -- -- -- -- --
0000:    1E F0 FF FF 7F 6F 70  5B 00 80 F8 FF FF 7F F8   .....op[.......
0010: FF FF 7F 74 6C 62 30 1D  01 80 23 5B 00 80 F8 FF  ...tlb0...#[....
0020: FF 7F F8 FF FF 7F 74 6C  62 31 53 F8 FF FF 7F F8  ......tlb1S.....
0030: FF FF 7F 74 6C 62 31 21  00                       ...tlb1!.       
```

#### Opcodes

```
  0: 0x0001 [0x1E] EventEntity looks at LocalPlayer and starts talking
  1: 0x0006 [0x6F] WAIT_FRAME_DELAY: Yield until WaitTime reaches zero
  2: 0x0007 [0x70] WAIT_ENTITY_RENDER_FLAG: Wait while EventEntity->Render.Flags3 bit 2 is set (cancel turn if not)
  3: 0x0008 [0x5B] LOAD_EXT_SCHEDULER: Load scheduler "tlb0" with entities [EventEntity, EventEntity], work=843*
  4: 0x0017 [0x1D] PRINT_EVENT_MESSAGE(message_id=9270*)
    → "Cacaroon got cheeep info, ya? Yooo got big gil? Cacaroon got big info!"
  5: 0x001A [0x23] WAIT_FOR_DIALOG_INTERACTION
  6: 0x001B [0x5B] LOAD_EXT_SCHEDULER: Load scheduler "tlb1" with entities [EventEntity, EventEntity], work=843*
  7: 0x002A [0x53] WAIT_SCHEDULER_TASK: Wait for scheduler "tlb1" with entities [EventEntity, EventEntity]
  8: 0x0037 [0x21] END_EVENT
  9: 0x0038 [0x00] END_REQSTACK()
```

### Event 3022

#### Metadata

| Field        | Value   |
|--------------|---------|
| Entrypoint   | 0x0039  |
| Data Size    | 1 bytes |
| Instructions | 1       |

```
      00 01 02 03 04 05 06 07  08 09 0A 0B 0C 0D 0E 0F
      -- -- -- -- -- -- -- --  -- -- -- -- -- -- -- --
0030:                             00                             .      
```

#### Opcodes

```
  0: 0x0039 [0x00] END_REQSTACK()
```

### Event 3023

#### Metadata

| Field        | Value     |
|--------------|-----------|
| Entrypoint   | 0x003A    |
| Data Size    | 107 bytes |
| Instructions | 17        |

```
      00 01 02 03 04 05 06 07  08 09 0A 0B 0C 0D 0E 0F
      -- -- -- -- -- -- -- --  -- -- -- -- -- -- -- --
0030:                                1E F0 FF FF 7F 6F            .....o
0040: 70 5B 02 80 F8 FF FF 7F  F8 FF FF 7F 74 6C 6B 30  p[..........tlk0
0050: 1D 03 80 23 5B 02 80 F8  FF FF 7F F8 FF FF 7F 74  ...#[..........t
0060: 6C 6B 31 1D 04 80 23 53  F8 FF FF 7F F8 FF FF 7F  lk1...#S........
0070: 74 6C 6B 31 5B 00 80 F8  FF FF 7F F8 FF FF 7F 74  tlk1[..........t
0080: 6C 62 30 1D 05 80 23 5B  00 80 F8 FF FF 7F F8 FF  lb0...#[........
0090: FF 7F 74 6C 62 31 53 F8  FF FF 7F F8 FF FF 7F 74  ..tlb1S........t
00A0: 6C 62 31 21 00                                    lb1!.           
```

#### Opcodes

```
  0: 0x003A [0x1E] EventEntity looks at LocalPlayer and starts talking
  1: 0x003F [0x6F] WAIT_FRAME_DELAY: Yield until WaitTime reaches zero
  2: 0x0040 [0x70] WAIT_ENTITY_RENDER_FLAG: Wait while EventEntity->Render.Flags3 bit 2 is set (cancel turn if not)
  3: 0x0041 [0x5B] LOAD_EXT_SCHEDULER: Load scheduler "tlk0" with entities [EventEntity, EventEntity], work=842*
  4: 0x0050 [0x1D] PRINT_EVENT_MESSAGE(message_id=9282*)
    → "Shiny shiny Elvaan will come back to Cacaroon with "clink clink"!"
  5: 0x0053 [0x23] WAIT_FOR_DIALOG_INTERACTION
  6: 0x0054 [0x5B] LOAD_EXT_SCHEDULER: Load scheduler "tlk1" with entities [EventEntity, EventEntity], work=842*
  7: 0x0063 [0x1D] PRINT_EVENT_MESSAGE(message_id=9280*)
    → "Very shiny shiny, ya?"
  8: 0x0066 [0x23] WAIT_FOR_DIALOG_INTERACTION
  9: 0x0067 [0x53] WAIT_SCHEDULER_TASK: Wait for scheduler "tlk1" with entities [EventEntity, EventEntity]
 10: 0x0074 [0x5B] LOAD_EXT_SCHEDULER: Load scheduler "tlb0" with entities [EventEntity, EventEntity], work=843*
 11: 0x0083 [0x1D] PRINT_EVENT_MESSAGE(message_id=9281*)
    → "Cacaroon will never forget shiny shiny Elvaan."
 12: 0x0086 [0x23] WAIT_FOR_DIALOG_INTERACTION
 13: 0x0087 [0x5B] LOAD_EXT_SCHEDULER: Load scheduler "tlb1" with entities [EventEntity, EventEntity], work=843*
 14: 0x0096 [0x53] WAIT_SCHEDULER_TASK: Wait for scheduler "tlb1" with entities [EventEntity, EventEntity]
 15: 0x00A3 [0x21] END_EVENT
 16: 0x00A4 [0x00] END_REQSTACK()
```

### Event 65535.1

#### Metadata

| Field        | Value   |
|--------------|---------|
| Entrypoint   | 0x00A5  |
| Data Size    | 1 bytes |
| Instructions | 1       |

```
      00 01 02 03 04 05 06 07  08 09 0A 0B 0C 0D 0E 0F
      -- -- -- -- -- -- -- --  -- -- -- -- -- -- -- --
00A0:                00                                      .          
```

#### Opcodes

```
  0: 0x00A5 [0x00] END_REQSTACK()
```

### Event 3035

#### Metadata

| Field        | Value   |
|--------------|---------|
| Entrypoint   | 0x00A6  |
| Data Size    | 1 bytes |
| Instructions | 1       |

```
      00 01 02 03 04 05 06 07  08 09 0A 0B 0C 0D 0E 0F
      -- -- -- -- -- -- -- --  -- -- -- -- -- -- -- --
00A0:                   00                                    .         
```

#### Opcodes

```
  0: 0x00A6 [0x00] END_REQSTACK()
```

### Event 3036

#### Metadata

| Field        | Value     |
|--------------|-----------|
| Entrypoint   | 0x00A7    |
| Data Size    | 135 bytes |
| Instructions | 23        |

```
      00 01 02 03 04 05 06 07  08 09 0A 0B 0C 0D 0E 0F
      -- -- -- -- -- -- -- --  -- -- -- -- -- -- -- --
00A0:                      1E  F0 FF FF 7F 6F 70 81 00         .....op..
00B0: F8 FF FF 7F 7C 00 F8 FF  FF 7F 5B 00 80 F8 FF FF  ....|.....[.....
00C0: 7F F8 FF FF 7F 74 6C 62  30 1D 01 80 23 5B 00 80  .....tlb0...#[..
00D0: F8 FF FF 7F F8 FF FF 7F  74 6C 62 31 1D 06 80 23  ........tlb1...#
00E0: 53 F8 FF FF 7F F8 FF FF  7F 74 6C 62 31 5B 00 80  S........tlb1[..
00F0: F8 FF FF 7F F8 FF FF 7F  74 68 62 30 1D 07 80 23  ........thb0...#
0100: 1D 08 80 23 5B 00 80 F8  FF FF 7F F8 FF FF 7F 74  ...#[..........t
0110: 68 62 31 81 01 F8 FF FF  7F 7C 01 F8 FF FF 7F 53  hb1......|.....S
0120: F8 FF FF 7F F8 FF FF 7F  74 68 62 30 21 00        ........thb0!.  
```

#### Opcodes

```
  0: 0x00A7 [0x1E] EventEntity looks at LocalPlayer and starts talking
  1: 0x00AC [0x6F] WAIT_FRAME_DELAY: Yield until WaitTime reaches zero
  2: 0x00AD [0x70] WAIT_ENTITY_RENDER_FLAG: Wait while EventEntity->Render.Flags3 bit 2 is set (cancel turn if not)
  3: 0x00AE [0x81] SET_ENTITY_BLINKING(blink_flag=0x00, entity=EventEntity)
  4: 0x00B4 [0x7C] EventEntity->Render.Flags2 |= 0x00
  5: 0x00BA [0x5B] LOAD_EXT_SCHEDULER: Load scheduler "tlb0" with entities [EventEntity, EventEntity], work=843*
  6: 0x00C9 [0x1D] PRINT_EVENT_MESSAGE(message_id=9270*)
    → "Cacaroon got cheeep info, ya? Yooo got big gil? Cacaroon got big info!"
  7: 0x00CC [0x23] WAIT_FOR_DIALOG_INTERACTION
  8: 0x00CD [0x5B] LOAD_EXT_SCHEDULER: Load scheduler "tlb1" with entities [EventEntity, EventEntity], work=843*
  9: 0x00DC [0x1D] PRINT_EVENT_MESSAGE(message_id=9271*)
    → "Mercenary [maaan/laaady], look for Elvaan? With shiny shiny armor?"
 10: 0x00DF [0x23] WAIT_FOR_DIALOG_INTERACTION
 11: 0x00E0 [0x53] WAIT_SCHEDULER_TASK: Wait for scheduler "tlb1" with entities [EventEntity, EventEntity]
 12: 0x00ED [0x5B] LOAD_EXT_SCHEDULER: Load scheduler "thb0" with entities [EventEntity, EventEntity], work=843*
 13: 0x00FC [0x1D] PRINT_EVENT_MESSAGE(message_id=9272*)
    → "Mercenary [maaan/laaady], Cacaroon like things that go "clink clink," ya?"
 14: 0x00FF [0x23] WAIT_FOR_DIALOG_INTERACTION
 15: 0x0100 [0x1D] PRINT_EVENT_MESSAGE(message_id=9275*)
    → "Cheeep info! Cacaroon only need one thing that go "clink clink," ya?"
 16: 0x0103 [0x23] WAIT_FOR_DIALOG_INTERACTION
 17: 0x0104 [0x5B] LOAD_EXT_SCHEDULER: Load scheduler "thb1" with entities [EventEntity, EventEntity], work=843*
 18: 0x0113 [0x81] SET_ENTITY_BLINKING(blink_flag=0x01, entity=EventEntity)
 19: 0x0119 [0x7C] EventEntity->Render.Flags2 |= 0x01
 20: 0x011F [0x53] WAIT_SCHEDULER_TASK: Wait for scheduler "thb0" with entities [EventEntity, EventEntity]
 21: 0x012C [0x21] END_EVENT
 22: 0x012D [0x00] END_REQSTACK()
```

### Event 595

#### Metadata

| Field        | Value   |
|--------------|---------|
| Entrypoint   | 0x012E  |
| Data Size    | 1 bytes |
| Instructions | 1       |

```
      00 01 02 03 04 05 06 07  08 09 0A 0B 0C 0D 0E 0F
      -- -- -- -- -- -- -- --  -- -- -- -- -- -- -- --
0120:                                            00                   . 
```

#### Opcodes

```
  0: 0x012E [0x00] END_REQSTACK()
```

### Event 608

#### Metadata

| Field        | Value    |
|--------------|----------|
| Entrypoint   | 0x012F   |
| Data Size    | 14 bytes |
| Instructions | 8        |

```
      00 01 02 03 04 05 06 07  08 09 0A 0B 0C 0D 0E 0F
      -- -- -- -- -- -- -- --  -- -- -- -- -- -- -- --
0120:                                               42                 B
0130: 1E F0 FF FF 7F 6F 70 1D  09 80 23 21 00           .....op...#!.   
```

#### Opcodes

```
  0: 0x012F [0x42] SET_CLI_EVENT_CANCEL_DATA()
  1: 0x0130 [0x1E] EventEntity looks at LocalPlayer and starts talking
  2: 0x0135 [0x6F] WAIT_FRAME_DELAY: Yield until WaitTime reaches zero
  3: 0x0136 [0x70] WAIT_ENTITY_RENDER_FLAG: Wait while EventEntity->Render.Flags3 bit 2 is set (cancel turn if not)
  4: 0x0137 [0x1D] PRINT_EVENT_MESSAGE(message_id=9398*)
    → "Mamoook very spoooky place. Cacaroon never want go there."
  5: 0x013A [0x23] WAIT_FOR_DIALOG_INTERACTION
  6: 0x013B [0x21] END_EVENT
  7: 0x013C [0x00] END_REQSTACK()
```

### Event 609

#### Metadata

| Field        | Value   |
|--------------|---------|
| Entrypoint   | 0x013D  |
| Data Size    | 1 bytes |
| Instructions | 1       |

```
      00 01 02 03 04 05 06 07  08 09 0A 0B 0C 0D 0E 0F
      -- -- -- -- -- -- -- --  -- -- -- -- -- -- -- --
0130:                                         00                     .  
```

#### Opcodes

```
  0: 0x013D [0x00] END_REQSTACK()
```

### Event 65535.2

#### Metadata

| Field        | Value    |
|--------------|----------|
| Entrypoint   | 0x013E   |
| Data Size    | 34 bytes |
| Instructions | 8        |

```
      00 01 02 03 04 05 06 07  08 09 0A 0B 0C 0D 0E 0F
      -- -- -- -- -- -- -- --  -- -- -- -- -- -- -- --
0130:                                            32 0A                2.
0140: 80 37 0B 80 0C 80 0D 80  0E 80 1F 00 0F 80 10 80  .7..............
0150: 0D 80 1F 01 1F 00 11 80  12 80 0D 80 1F 01 6F 00  ..............o.
```

#### Opcodes

```
  0: 0x013E [0x32] ExtData[1]->MainSpeed = 13* * 0.1
  1: 0x0141 [0x37] UPDATE_EVENT_POSITION_AND_DIR: x=-74.529*, z=-83.066*, y=0.000*, direction=108.6°*
  2: 0x014A [0x1F] MOVE_ENTITY: EventEntity moves to X=-74.572*, Z=-84.760*, Y=0.000*
  3: 0x0152 [0x1F] MOVE_ENTITY: Update entity position (mode=1)
  4: 0x0154 [0x1F] MOVE_ENTITY: EventEntity moves to X=-74.072*, Z=-85.472*, Y=0.000*
  5: 0x015C [0x1F] MOVE_ENTITY: Update entity position (mode=1)
  6: 0x015E [0x6F] WAIT_FRAME_DELAY: Yield until WaitTime reaches zero
  7: 0x015F [0x00] END_REQSTACK()
```

### Event 65535.3

#### Metadata

| Field        | Value    |
|--------------|----------|
| Entrypoint   | 0x0160   |
| Data Size    | 10 bytes |
| Instructions | 2        |

```
      00 01 02 03 04 05 06 07  08 09 0A 0B 0C 0D 0E 0F
      -- -- -- -- -- -- -- --  -- -- -- -- -- -- -- --
0160: 37 13 80 14 80 0D 80 15  80 00                    7.........      
```

#### Opcodes

```
  0: 0x0160 [0x37] UPDATE_EVENT_POSITION_AND_DIR: x=-74.083*, z=-85.861*, y=0.000*, direction=7.6°*
  1: 0x0169 [0x00] END_REQSTACK()
```

### Event 65535.4

#### Metadata

| Field        | Value    |
|--------------|----------|
| Entrypoint   | 0x016A   |
| Data Size    | 10 bytes |
| Instructions | 2        |

```
      00 01 02 03 04 05 06 07  08 09 0A 0B 0C 0D 0E 0F
      -- -- -- -- -- -- -- --  -- -- -- -- -- -- -- --
0160:                                37 16 80 17 80 0D            7.....
0170: 80 18 80 00                                       ....            
```

#### Opcodes

```
  0: 0x016A [0x37] UPDATE_EVENT_POSITION_AND_DIR: x=-72.745*, z=-87.880*, y=0.000*, direction=350.5°*
  1: 0x0173 [0x00] END_REQSTACK()
```

### Event 812

#### Metadata

| Field        | Value   |
|--------------|---------|
| Entrypoint   | 0x0174  |
| Data Size    | 1 bytes |
| Instructions | 1       |

```
      00 01 02 03 04 05 06 07  08 09 0A 0B 0C 0D 0E 0F
      -- -- -- -- -- -- -- --  -- -- -- -- -- -- -- --
0170:             00                                        .           
```

#### Opcodes

```
  0: 0x0174 [0x00] END_REQSTACK()
```

### Event 65535.5

#### Metadata

| Field        | Value   |
|--------------|---------|
| Entrypoint   | 0x0175  |
| Data Size    | 1 bytes |
| Instructions | 1       |

```
      00 01 02 03 04 05 06 07  08 09 0A 0B 0C 0D 0E 0F
      -- -- -- -- -- -- -- --  -- -- -- -- -- -- -- --
0170:                00                                      .          
```

#### Opcodes

```
  0: 0x0175 [0x00] END_REQSTACK()
```

### Event 849

#### Metadata

| Field        | Value   |
|--------------|---------|
| Entrypoint   | 0x0176  |
| Data Size    | 1 bytes |
| Instructions | 1       |

```
      00 01 02 03 04 05 06 07  08 09 0A 0B 0C 0D 0E 0F
      -- -- -- -- -- -- -- --  -- -- -- -- -- -- -- --
0170:                   00                                    .         
```

#### Opcodes

```
  0: 0x0176 [0x00] END_REQSTACK()
```

### Event 850

#### Metadata

| Field        | Value   |
|--------------|---------|
| Entrypoint   | 0x0177  |
| Data Size    | 1 bytes |
| Instructions | 1       |

```
      00 01 02 03 04 05 06 07  08 09 0A 0B 0C 0D 0E 0F
      -- -- -- -- -- -- -- --  -- -- -- -- -- -- -- --
0170:                      00                                  .        
```

#### Opcodes

```
  0: 0x0177 [0x00] END_REQSTACK()
```

### Event 65535.6

#### Metadata

| Field        | Value    |
|--------------|----------|
| Entrypoint   | 0x0178   |
| Data Size    | 18 bytes |
| Instructions | 6        |

```
      00 01 02 03 04 05 06 07  08 09 0A 0B 0C 0D 0E 0F
      -- -- -- -- -- -- -- --  -- -- -- -- -- -- -- --
0170:                          32 0A 80 1F 00 19 80 1A          2.......
0180: 80 0D 80 1F 01 6F 1C 1B  80 00                    .....o....      
```

#### Opcodes

```
  0: 0x0178 [0x32] ExtData[1]->MainSpeed = 13* * 0.1
  1: 0x017B [0x1F] MOVE_ENTITY: EventEntity moves to X=-12.644*, Z=0.374*, Y=0.000*
  2: 0x0183 [0x1F] MOVE_ENTITY: Update entity position (mode=1)
  3: 0x0185 [0x6F] WAIT_FRAME_DELAY: Yield until WaitTime reaches zero
  4: 0x0186 [0x1C] WAIT(60* ticks)
  5: 0x0189 [0x00] END_REQSTACK()
```

### Event 65535.7

#### Metadata

| Field        | Value    |
|--------------|----------|
| Entrypoint   | 0x018A   |
| Data Size    | 15 bytes |
| Instructions | 5        |

```
      00 01 02 03 04 05 06 07  08 09 0A 0B 0C 0D 0E 0F
      -- -- -- -- -- -- -- --  -- -- -- -- -- -- -- --
0180:                                32 1C 80 1F 00 1D            2.....
0190: 80 1E 80 0D 80 1F 01 6F  00                       .......o.       
```

#### Opcodes

```
  0: 0x018A [0x32] ExtData[1]->MainSpeed = 40* * 0.1
  1: 0x018D [0x1F] MOVE_ENTITY: EventEntity moves to X=-14.304*, Z=2.091*, Y=0.000*
  2: 0x0195 [0x1F] MOVE_ENTITY: Update entity position (mode=1)
  3: 0x0197 [0x6F] WAIT_FRAME_DELAY: Yield until WaitTime reaches zero
  4: 0x0198 [0x00] END_REQSTACK()
```

### Event 65535.8

#### Metadata

| Field        | Value    |
|--------------|----------|
| Entrypoint   | 0x0199   |
| Data Size    | 15 bytes |
| Instructions | 5        |

```
      00 01 02 03 04 05 06 07  08 09 0A 0B 0C 0D 0E 0F
      -- -- -- -- -- -- -- --  -- -- -- -- -- -- -- --
0190:                             32 1F 80 1F 00 20 80           2.... .
01A0: 21 80 0D 80 1F 01 6F 00                           !.....o.        
```

#### Opcodes

```
  0: 0x0199 [0x32] ExtData[1]->MainSpeed = 52* * 0.1
  1: 0x019C [0x1F] MOVE_ENTITY: EventEntity moves to X=-19.408*, Z=7.871*, Y=0.000*
  2: 0x01A4 [0x1F] MOVE_ENTITY: Update entity position (mode=1)
  3: 0x01A6 [0x6F] WAIT_FRAME_DELAY: Yield until WaitTime reaches zero
  4: 0x01A7 [0x00] END_REQSTACK()
```

### Event 65535.9

#### Metadata

| Field        | Value    |
|--------------|----------|
| Entrypoint   | 0x01A8   |
| Data Size    | 15 bytes |
| Instructions | 5        |

```
      00 01 02 03 04 05 06 07  08 09 0A 0B 0C 0D 0E 0F
      -- -- -- -- -- -- -- --  -- -- -- -- -- -- -- --
01A0:                          32 1F 80 1F 00 22 80 23          2....".#
01B0: 80 24 80 1F 01 6F 00                              .$...o.         
```

#### Opcodes

```
  0: 0x01A8 [0x32] ExtData[1]->MainSpeed = 52* * 0.1
  1: 0x01AB [0x1F] MOVE_ENTITY: EventEntity moves to X=-23.970*, Z=28.352*, Y=-5.999*
  2: 0x01B3 [0x1F] MOVE_ENTITY: Update entity position (mode=1)
  3: 0x01B5 [0x6F] WAIT_FRAME_DELAY: Yield until WaitTime reaches zero
  4: 0x01B6 [0x00] END_REQSTACK()
```

### Event 65535.10

#### Metadata

| Field        | Value    |
|--------------|----------|
| Entrypoint   | 0x01B7   |
| Data Size    | 15 bytes |
| Instructions | 5        |

```
      00 01 02 03 04 05 06 07  08 09 0A 0B 0C 0D 0E 0F
      -- -- -- -- -- -- -- --  -- -- -- -- -- -- -- --
01B0:                      32  1C 80 1F 00 25 80 26 80         2....%.&.
01C0: 0D 80 1F 01 6F 00                                 ....o.          
```

#### Opcodes

```
  0: 0x01B7 [0x32] ExtData[1]->MainSpeed = 40* * 0.1
  1: 0x01BA [0x1F] MOVE_ENTITY: EventEntity moves to X=-72.075*, Z=-85.459*, Y=0.000*
  2: 0x01C2 [0x1F] MOVE_ENTITY: Update entity position (mode=1)
  3: 0x01C4 [0x6F] WAIT_FRAME_DELAY: Yield until WaitTime reaches zero
  4: 0x01C5 [0x00] END_REQSTACK()
```

### Event 65535.11

#### Metadata

| Field        | Value    |
|--------------|----------|
| Entrypoint   | 0x01C6   |
| Data Size    | 15 bytes |
| Instructions | 5        |

```
      00 01 02 03 04 05 06 07  08 09 0A 0B 0C 0D 0E 0F
      -- -- -- -- -- -- -- --  -- -- -- -- -- -- -- --
01C0:                   32 0A  80 1F 00 27 80 28 80 0D        2....'.(..
01D0: 80 1F 01 6F 00                                    ...o.           
```

#### Opcodes

```
  0: 0x01C6 [0x32] ExtData[1]->MainSpeed = 13* * 0.1
  1: 0x01C9 [0x1F] MOVE_ENTITY: EventEntity moves to X=-73.488*, Z=-85.827*, Y=0.000*
  2: 0x01D1 [0x1F] MOVE_ENTITY: Update entity position (mode=1)
  3: 0x01D3 [0x6F] WAIT_FRAME_DELAY: Yield until WaitTime reaches zero
  4: 0x01D4 [0x00] END_REQSTACK()
```

### Event 65535.12

#### Metadata

| Field        | Value    |
|--------------|----------|
| Entrypoint   | 0x01D5   |
| Data Size    | 15 bytes |
| Instructions | 5        |

```
      00 01 02 03 04 05 06 07  08 09 0A 0B 0C 0D 0E 0F
      -- -- -- -- -- -- -- --  -- -- -- -- -- -- -- --
01D0:                32 0A 80  1F 00 29 80 2A 80 0D 80       2....).*...
01E0: 1F 01 6F 00                                       ..o.            
```

#### Opcodes

```
  0: 0x01D5 [0x32] ExtData[1]->MainSpeed = 13* * 0.1
  1: 0x01D8 [0x1F] MOVE_ENTITY: EventEntity moves to X=-74.578*, Z=-85.744*, Y=0.000*
  2: 0x01E0 [0x1F] MOVE_ENTITY: Update entity position (mode=1)
  3: 0x01E2 [0x6F] WAIT_FRAME_DELAY: Yield until WaitTime reaches zero
  4: 0x01E3 [0x00] END_REQSTACK()
```

### Event 65535.13

#### Metadata

| Field        | Value    |
|--------------|----------|
| Entrypoint   | 0x01E4   |
| Data Size    | 15 bytes |
| Instructions | 5        |

```
      00 01 02 03 04 05 06 07  08 09 0A 0B 0C 0D 0E 0F
      -- -- -- -- -- -- -- --  -- -- -- -- -- -- -- --
01E0:             32 0A 80 1F  00 2B 80 2C 80 0D 80 1F      2....+.,....
01F0: 01 6F 00                                          .o.             
```

#### Opcodes

```
  0: 0x01E4 [0x32] ExtData[1]->MainSpeed = 13* * 0.1
  1: 0x01E7 [0x1F] MOVE_ENTITY: EventEntity moves to X=-74.955*, Z=-84.908*, Y=0.000*
  2: 0x01EF [0x1F] MOVE_ENTITY: Update entity position (mode=1)
  3: 0x01F1 [0x6F] WAIT_FRAME_DELAY: Yield until WaitTime reaches zero
  4: 0x01F2 [0x00] END_REQSTACK()
```

### Event 65535.14

#### Metadata

| Field        | Value    |
|--------------|----------|
| Entrypoint   | 0x01F3   |
| Data Size    | 15 bytes |
| Instructions | 5        |

```
      00 01 02 03 04 05 06 07  08 09 0A 0B 0C 0D 0E 0F
      -- -- -- -- -- -- -- --  -- -- -- -- -- -- -- --
01F0:          32 1C 80 1F 00  2D 80 2E 80 0D 80 1F 01     2....-.......
0200: 6F 00                                             o.              
```

#### Opcodes

```
  0: 0x01F3 [0x32] ExtData[1]->MainSpeed = 40* * 0.1
  1: 0x01F6 [0x1F] MOVE_ENTITY: EventEntity moves to X=-74.137*, Z=-81.983*, Y=0.000*
  2: 0x01FE [0x1F] MOVE_ENTITY: Update entity position (mode=1)
  3: 0x0200 [0x6F] WAIT_FRAME_DELAY: Yield until WaitTime reaches zero
  4: 0x0201 [0x00] END_REQSTACK()
```

### Event 853

#### Metadata

| Field        | Value    |
|--------------|----------|
| Entrypoint   | 0x0202   |
| Data Size    | 19 bytes |
| Instructions | 9        |

```
      00 01 02 03 04 05 06 07  08 09 0A 0B 0C 0D 0E 0F
      -- -- -- -- -- -- -- --  -- -- -- -- -- -- -- --
0200:       1E F0 FF FF 7F 1D  2F 80 23 1D 30 80 23 1D    ....../.#.0.#.
0210: 31 80 23 21 00                                    1.#!.           
```

#### Opcodes

```
  0: 0x0202 [0x1E] EventEntity looks at LocalPlayer and starts talking
  1: 0x0207 [0x1D] PRINT_EVENT_MESSAGE(message_id=12680*)
    → "Ah... Kakkaroon, ya? Maybe Cacaroon have info... Maybe no..."
  2: 0x020A [0x23] WAIT_FOR_DIALOG_INTERACTION
  3: 0x020B [0x1D] PRINT_EVENT_MESSAGE(message_id=12681*)
    → "Ummm... Hrmmm..."
  4: 0x020E [0x23] WAIT_FOR_DIALOG_INTERACTION
  5: 0x020F [0x1D] PRINT_EVENT_MESSAGE(message_id=12682*)
    → "Cacaroon got cheeep info, ya? Yooo got "clink clink"? Cacaroon got big info!"
  6: 0x0212 [0x23] WAIT_FOR_DIALOG_INTERACTION
  7: 0x0213 [0x21] END_EVENT
  8: 0x0214 [0x00] END_REQSTACK()
```

### Event 854

#### Metadata

| Field        | Value    |
|--------------|----------|
| Entrypoint   | 0x0215   |
| Data Size    | 11 bytes |
| Instructions | 5        |

```
      00 01 02 03 04 05 06 07  08 09 0A 0B 0C 0D 0E 0F
      -- -- -- -- -- -- -- --  -- -- -- -- -- -- -- --
0210:                1E F0 FF  FF 7F 1D 32 80 23 21 00       ......2.#!.
```

#### Opcodes

```
  0: 0x0215 [0x1E] EventEntity looks at LocalPlayer and starts talking
  1: 0x021A [0x1D] PRINT_EVENT_MESSAGE(message_id=12678*)
    → "Cacaroon call friends now. Yooo ride boat to Ququroon now, ya?"
  2: 0x021D [0x23] WAIT_FOR_DIALOG_INTERACTION
  3: 0x021E [0x21] END_EVENT
  4: 0x021F [0x00] END_REQSTACK()
```

### Event 855

#### Metadata

| Field        | Value    |
|--------------|----------|
| Entrypoint   | 0x0220   |
| Data Size    | 15 bytes |
| Instructions | 7        |

```
      00 01 02 03 04 05 06 07  08 09 0A 0B 0C 0D 0E 0F
      -- -- -- -- -- -- -- --  -- -- -- -- -- -- -- --
0220: 1E F0 FF FF 7F 1D 33 80  23 1D 34 80 23 21 00     ......3.#.4.#!. 
```

#### Opcodes

```
  0: 0x0220 [0x1E] EventEntity looks at LocalPlayer and starts talking
  1: 0x0225 [0x1D] PRINT_EVENT_MESSAGE(message_id=12683*)
    → "Cacaroon help, ya? Cacaroon use network. Cacaroon find help!"
  2: 0x0228 [0x23] WAIT_FOR_DIALOG_INTERACTION
  3: 0x0229 [0x1D] PRINT_EVENT_MESSAGE(message_id=12677*)
    → "Then Kakkaroon no more scared. Kakkaroon make nice with babeee Tarooo!"
  4: 0x022C [0x23] WAIT_FOR_DIALOG_INTERACTION
  5: 0x022D [0x21] END_EVENT
  6: 0x022E [0x00] END_REQSTACK()
```
