# 16982358

## Common Data

| Field            | Value                         |
|------------------|-------------------------------|
| Zone             | Aht Urhgan Whitegate (ID: 50) |
| Block Size       | 296 bytes                     |
| Total Events     | 6                             |
| References Count | 13                            |

## List of Events

| Event ID                  | Entrypoint   |   Size |   Instructions |
|---------------------------|--------------|--------|----------------|
| [65535](#event-65535)     | 0x0000       |      1 |              1 |
| [871](#event-871)         | 0x0001       |      1 |              1 |
| [65535.1](#event-65535-1) | 0x0002       |    106 |             19 |
| [872](#event-872)         | 0x006C       |      7 |              2 |
| [65535.2](#event-65535-2) | 0x0073       |     75 |             12 |
| [65535.3](#event-65535-3) | 0x00BE       |     14 |              4 |

## DAT References (imed_data)

|   Index | Hex Value   |   Dec Value |
|---------|-------------|-------------|
|       0 | 0x0168      |         360 |
|       1 | 0x0001      |           1 |
|       2 | 0x000D      |          13 |
|       3 | 0xFFFE741D  |  4294865949 |
|       4 | 0xE029      |       57385 |
|       5 | 0x0000      |           0 |
|       6 | 0x001E      |          30 |
|       7 | 0x0014      |          20 |
|       8 | 0x0078      |         120 |
|       9 | 0x0003      |           3 |
|      10 | 0xFFFE87EF  |  4294871023 |
|      11 | 0xE329      |       58153 |
|      12 | 0x0004      |           4 |

## Events

### Event 65535

#### Metadata

| Field        | Value   |
|--------------|---------|
| Entrypoint   | 0x0000  |
| Data Size    | 1 bytes |
| Instructions | 1       |

```
      00 01 02 03 04 05 06 07  08 09 0A 0B 0C 0D 0E 0F
      -- -- -- -- -- -- -- --  -- -- -- -- -- -- -- --
0000: 00                                                .               
```

#### Opcodes

```
  0: 0x0000 [0x00] END_REQSTACK()
```

### Event 871

#### Metadata

| Field        | Value   |
|--------------|---------|
| Entrypoint   | 0x0001  |
| Data Size    | 1 bytes |
| Instructions | 1       |

```
      00 01 02 03 04 05 06 07  08 09 0A 0B 0C 0D 0E 0F
      -- -- -- -- -- -- -- --  -- -- -- -- -- -- -- --
0000:    00                                              .              
```

#### Opcodes

```
  0: 0x0001 [0x00] END_REQSTACK()
```

### Event 65535.1

#### Metadata

| Field        | Value     |
|--------------|-----------|
| Entrypoint   | 0x0002    |
| Data Size    | 106 bytes |
| Instructions | 19        |

```
      00 01 02 03 04 05 06 07  08 09 0A 0B 0C 0D 0E 0F
      -- -- -- -- -- -- -- --  -- -- -- -- -- -- -- --
0000:       1C 00 80 03 25 10  01 80 32 02 80 1F 00 03    ....%...2.....
0010: 80 04 80 05 80 1F 01 1E  57 21 03 01 1C 06 80 4A  ........W!.....J
0020: 57 21 03 01 F8 FF FF 7F  2A 05 57 21 03 01 66 07  W!......*.W!..f.
0030: 80 F8 FF FF 7F F8 FF FF  7F 70 61 73 30 1C 08 80  .........pas0...
0040: 03 25 10 09 80 27 05 57  21 03 01 03 53 F8 FF FF  .%...'.W!...S...
0050: 7F F8 FF FF 7F 70 61 73  30 32 02 80 1F 00 0A 80  .....pas02......
0060: 0B 80 05 80 1F 01 03 25  10 0C 80 00              .......%....    
```

#### Opcodes

```
  0: 0x0002 [0x1C] WAIT(360* ticks)
  1: 0x0005 [0x03] Work_Zone[37] = 1*
  2: 0x000A [0x32] ExtData[1]->MainSpeed = 13* * 0.1
  3: 0x000D [0x1F] MOVE_ENTITY: EventEntity moves to X=-101.347*, Z=57.385*, Y=0.000*
  4: 0x0015 [0x1F] MOVE_ENTITY: Update entity position (mode=1)
  5: 0x0017 [0x1E] EventEntity looks at Unnamed NPC (ID: 16982359/0x01032157) and starts talking
  6: 0x001C [0x1C] WAIT(30* ticks)
  7: 0x001F [0x4A] Unnamed NPC (ID: 16982359/0x01032157) looks at EventEntity
  8: 0x0028 [0x2A] GET_REQ_LEVEL(level=5, entity_id=Unnamed NPC (ID: 16982359/0x01032157))
  9: 0x002E [0x66] LOAD_EXT_SCHEDULER_MAIN: Load scheduler "pas0" with entities [EventEntity, EventEntity], work=20*
 10: 0x003D [0x1C] WAIT(120* ticks)
 11: 0x0040 [0x03] Work_Zone[37] = 3*
 12: 0x0045 [0x27] REQ_SET(priority=0x05, entity_id=Unnamed NPC (ID: 16982359/0x01032157), tag_num=0x03)
 13: 0x004C [0x53] WAIT_SCHEDULER_TASK: Wait for scheduler "pas0" with entities [EventEntity, EventEntity]
 14: 0x0059 [0x32] ExtData[1]->MainSpeed = 13* * 0.1
 15: 0x005C [0x1F] MOVE_ENTITY: EventEntity moves to X=-96.273*, Z=58.153*, Y=0.000*
 16: 0x0064 [0x1F] MOVE_ENTITY: Update entity position (mode=1)
 17: 0x0066 [0x03] Work_Zone[37] = 4*
 18: 0x006B [0x00] END_REQSTACK()
```

### Event 872

#### Metadata

| Field        | Value   |
|--------------|---------|
| Entrypoint   | 0x006C  |
| Data Size    | 7 bytes |
| Instructions | 2       |

```
      00 01 02 03 04 05 06 07  08 09 0A 0B 0C 0D 0E 0F
      -- -- -- -- -- -- -- --  -- -- -- -- -- -- -- --
0060:                                      92 01 F8 FF              ....
0070: FF 7F 00                                          ...             
```

#### Opcodes

```
  0: 0x006C [0x92] EventEntity->Render.Flags3 ^= 0x01
  1: 0x0072 [0x00] END_REQSTACK()
```

### Event 65535.2

#### Metadata

| Field        | Value    |
|--------------|----------|
| Entrypoint   | 0x0073   |
| Data Size    | 75 bytes |
| Instructions | 12       |

```
      00 01 02 03 04 05 06 07  08 09 0A 0B 0C 0D 0E 0F
      -- -- -- -- -- -- -- --  -- -- -- -- -- -- -- --
0070:          32 02 80 1F 00  03 80 04 80 05 80 1F 01     2............
0080: 1E 57 21 03 01 1C 06 80  4A 57 21 03 01 F8 FF FF  .W!.....JW!.....
0090: 7F 2A 05 57 21 03 01 66  07 80 F8 FF FF 7F F8 FF  .*.W!..f........
00A0: FF 7F 70 61 73 30 1C 08  80 27 05 57 21 03 01 03  ..pas0...'.W!...
00B0: 53 F8 FF FF 7F F8 FF FF  7F 70 61 73 30 00        S........pas0.  
```

#### Opcodes

```
  0: 0x0073 [0x32] ExtData[1]->MainSpeed = 13* * 0.1
  1: 0x0076 [0x1F] MOVE_ENTITY: EventEntity moves to X=-101.347*, Z=57.385*, Y=0.000*
  2: 0x007E [0x1F] MOVE_ENTITY: Update entity position (mode=1)
  3: 0x0080 [0x1E] EventEntity looks at Unnamed NPC (ID: 16982359/0x01032157) and starts talking
  4: 0x0085 [0x1C] WAIT(30* ticks)
  5: 0x0088 [0x4A] Unnamed NPC (ID: 16982359/0x01032157) looks at EventEntity
  6: 0x0091 [0x2A] GET_REQ_LEVEL(level=5, entity_id=Unnamed NPC (ID: 16982359/0x01032157))
  7: 0x0097 [0x66] LOAD_EXT_SCHEDULER_MAIN: Load scheduler "pas0" with entities [EventEntity, EventEntity], work=20*
  8: 0x00A6 [0x1C] WAIT(120* ticks)
  9: 0x00A9 [0x27] REQ_SET(priority=0x05, entity_id=Unnamed NPC (ID: 16982359/0x01032157), tag_num=0x03)
 10: 0x00B0 [0x53] WAIT_SCHEDULER_TASK: Wait for scheduler "pas0" with entities [EventEntity, EventEntity]
 11: 0x00BD [0x00] END_REQSTACK()
```

### Event 65535.3

#### Metadata

| Field        | Value    |
|--------------|----------|
| Entrypoint   | 0x00BE   |
| Data Size    | 14 bytes |
| Instructions | 4        |

```
      00 01 02 03 04 05 06 07  08 09 0A 0B 0C 0D 0E 0F
      -- -- -- -- -- -- -- --  -- -- -- -- -- -- -- --
00B0:                                            32 02                2.
00C0: 80 1F 00 0A 80 0B 80 05  80 1F 01 00              ............    
```

#### Opcodes

```
  0: 0x00BE [0x32] ExtData[1]->MainSpeed = 13* * 0.1
  1: 0x00C1 [0x1F] MOVE_ENTITY: EventEntity moves to X=-96.273*, Z=58.153*, Y=0.000*
  2: 0x00C9 [0x1F] MOVE_ENTITY: Update entity position (mode=1)
  3: 0x00CB [0x00] END_REQSTACK()
```
