# 16982150 - Drahbah

## Common Data

| Field            | Value                         |
|------------------|-------------------------------|
| Zone             | Aht Urhgan Whitegate (ID: 50) |
| Block Size       | 172 bytes                     |
| Total Events     | 3                             |
| References Count | 12                            |

## List of Events

| Event ID              | Entrypoint   |   Size |   Instructions |
|-----------------------|--------------|--------|----------------|
| [65535](#event-65535) | 0x0000       |      1 |              1 |
| [678](#event-678)     | 0x0001       |     70 |             23 |
| [679](#event-679)     | 0x0047       |     22 |             12 |

## DAT References (imed_data)

|   Index | Hex Value   |   Dec Value |
|---------|-------------|-------------|
|       0 | 0x146A      |        5226 |
|       1 | 0x146B      |        5227 |
|       2 | 0x0000      |           0 |
|       3 | 0x146C      |        5228 |
|       4 | 0x146D      |        5229 |
|       5 | 0x0001      |           1 |
|       6 | 0x146E      |        5230 |
|       7 | 0x0002      |           2 |
|       8 | 0x146F      |        5231 |
|       9 | 0x1470      |        5232 |
|      10 | 0x1471      |        5233 |
|      11 | 0x1472      |        5234 |

## Events

### Event 65535

#### Metadata

| Field        | Value   |
|--------------|---------|
| Entrypoint   | 0x0000  |
| Data Size    | 1 bytes |
| Instructions | 1       |

```
      00 01 02 03 04 05 06 07  08 09 0A 0B 0C 0D 0E 0F
      -- -- -- -- -- -- -- --  -- -- -- -- -- -- -- --
0000: 00                                                .               
```

#### Opcodes

```
  0: 0x0000 [0x00] END_REQSTACK()
```

### Event 678

#### Metadata

| Field        | Value    |
|--------------|----------|
| Entrypoint   | 0x0001   |
| Data Size    | 70 bytes |
| Instructions | 23       |

```
      00 01 02 03 04 05 06 07  08 09 0A 0B 0C 0D 0E 0F
      -- -- -- -- -- -- -- --  -- -- -- -- -- -- -- --
0000:    1E F0 FF FF 7F 6F 70  1D 00 80 23 24 01 80 02   .....op...#$...
0010: 80 02 80 25 02 00 10 02  80 00 27 00 1D 03 80 23  ...%......'....#
0020: 1D 04 80 23 01 45 00 02  00 10 05 80 00 36 00 1D  ...#.E.......6..
0030: 06 80 23 01 45 00 02 00  10 07 80 00 45 00 1D 08  ..#.E.......E...
0040: 80 23 01 45 00 21 00                              .#.E.!.         
```

#### Opcodes

```
  0: 0x0001 [0x1E] EventEntity looks at LocalPlayer and starts talking
  1: 0x0006 [0x6F] WAIT_FRAME_DELAY: Yield until WaitTime reaches zero
  2: 0x0007 [0x70] WAIT_ENTITY_RENDER_FLAG: Wait while EventEntity->Render.Flags3 bit 2 is set (cancel turn if not)
  3: 0x0008 [0x1D] PRINT_EVENT_MESSAGE(message_id=5226*)
    → "Hello, I'm 	, and I'll appraise any item that you just can't figure out for the low, low price of 
\u0000 gil!\u007F1\u0000\u0007"
  4: 0x000B [0x23] WAIT_FOR_DIALOG_INTERACTION
  5: 0x000C [0x24] CREATE_DIALOG(message_id=5227*, default_option=0*, option_flags=0*)
    → "Have an item appraised?\u0007\u000BYes.\u0007Not now.\u0007What's this all about?\u007F1\u0000\u0007"
  6: 0x0013 [0x25] WAIT_DIALOG_SELECT()
  7: 0x0014 [0x02] IF !(Work_Zone[0] == 0*) GOTO 0x0027
  8: 0x001C [0x1D] PRINT_EVENT_MESSAGE(message_id=5228*)
    → "All right then, just trade me the item you want appraised and I'll tell you what it is for the ridiculously low price of 
\u0000 gil.\u007F1\u0000\u0007"
  9: 0x001F [0x23] WAIT_FOR_DIALOG_INTERACTION
 10: 0x0020 [0x1D] PRINT_EVENT_MESSAGE(message_id=5229*)
    → "I will put the appraised item into your treasure pool, but I might not be able to fit it into your bag if you haven't made space beforehand or if you've already got an item you can only have one of. Always make sure to clean your bag before asking for an appraisal!\u007F1\u0000\u0007"
 11: 0x0023 [0x23] WAIT_FOR_DIALOG_INTERACTION
 12: 0x0024 [0x01] GOTO 0x0045
 13: 0x0027 [0x02] IF !(Work_Zone[0] == 1*) GOTO 0x0036
 14: 0x002F [0x1D] PRINT_EVENT_MESSAGE(message_id=5230*)
    → "Please come again.\u007F1\u0000\u0007"
 15: 0x0032 [0x23] WAIT_FOR_DIALOG_INTERACTION
 16: 0x0033 [0x01] GOTO 0x0045
 17: 0x0036 [0x02] IF !(Work_Zone[0] == 2*) GOTO 0x0045
 18: 0x003E [0x1D] PRINT_EVENT_MESSAGE(message_id=5231*)
    → "Sometimes you come across an item that you just can't make heads or tails of. You'll know what I'm talking about when you see one. It could be an onion sword or a rune blade for all your eyes tell you! But there's no need for worry--just bring it to me and I'll tell you what it is.\u007F1\u0000\u0007"
 19: 0x0041 [0x23] WAIT_FOR_DIALOG_INTERACTION
 20: 0x0042 [0x01] GOTO 0x0045

SUBROUTINE_0045:
 21: 0x0045 [0x21] END_EVENT
 22: 0x0046 [0x00] END_REQSTACK()
```

### Event 679

#### Metadata

| Field        | Value    |
|--------------|----------|
| Entrypoint   | 0x0047   |
| Data Size    | 22 bytes |
| Instructions | 12       |

```
      00 01 02 03 04 05 06 07  08 09 0A 0B 0C 0D 0E 0F
      -- -- -- -- -- -- -- --  -- -- -- -- -- -- -- --
0040:                      42  1E F0 FF FF 7F 6F 70 1D         B.....op.
0050: 09 80 23 1D 0A 80 23 1D  0B 80 23 21 00           ..#...#...#!.   
```

#### Opcodes

```
  0: 0x0047 [0x42] SET_CLI_EVENT_CANCEL_DATA()
  1: 0x0048 [0x1E] EventEntity looks at LocalPlayer and starts talking
  2: 0x004D [0x6F] WAIT_FRAME_DELAY: Yield until WaitTime reaches zero
  3: 0x004E [0x70] WAIT_ENTITY_RENDER_FLAG: Wait while EventEntity->Render.Flags3 bit 2 is set (cancel turn if not)
  4: 0x004F [0x1D] PRINT_EVENT_MESSAGE(message_id=5232*)
    → "Thank you for your patronage.\u007F1\u0000\u0007"
  5: 0x0052 [0x23] WAIT_FOR_DIALOG_INTERACTION
  6: 0x0053 [0x1D] PRINT_EVENT_MESSAGE(message_id=5233*)
    → "Hmmm...\u0007This seems to be...\u007F1\u0000\u0007"
  7: 0x0056 [0x23] WAIT_FOR_DIALOG_INTERACTION
  8: 0x0057 [0x1D] PRINT_EVENT_MESSAGE(message_id=5234*)
    → "I have finished appraising your item. It is \u0001\u0001\u0001 \u0001\u0005$\u0002\u0001\u0000\u0000!\u0007I'll just put it in your treasure pool now...\u007F1\u0000\u0007"
  9: 0x005A [0x23] WAIT_FOR_DIALOG_INTERACTION
 10: 0x005B [0x21] END_EVENT
 11: 0x005C [0x00] END_REQSTACK()
```
