# 16982113 - Eunheem

## Common Data

| Field            | Value                         |
|------------------|-------------------------------|
| Zone             | Aht Urhgan Whitegate (ID: 50) |
| Block Size       | 152 bytes                     |
| Total Events     | 4                             |
| References Count | 5                             |

## List of Events

| Event ID                  | Entrypoint   |   Size |   Instructions |
|---------------------------|--------------|--------|----------------|
| [65535](#event-65535)     | 0x0000       |      1 |              1 |
| [285](#event-285)         | 0x0001       |     47 |              9 |
| [65535.1](#event-65535-1) | 0x0030       |      1 |              1 |
| [907](#event-907)         | 0x0031       |     51 |             11 |

## DAT References (imed_data)

|   Index | Hex Value   |   Dec Value |
|---------|-------------|-------------|
|       0 | 0x001E      |          30 |
|       1 | 0x0000      |           0 |
|       2 | 0x245C      |        9308 |
|       3 | 0x21AA      |        8618 |
|       4 | 0x21AB      |        8619 |

## Events

### Event 65535

#### Metadata

| Field        | Value   |
|--------------|---------|
| Entrypoint   | 0x0000  |
| Data Size    | 1 bytes |
| Instructions | 1       |

```
      00 01 02 03 04 05 06 07  08 09 0A 0B 0C 0D 0E 0F
      -- -- -- -- -- -- -- --  -- -- -- -- -- -- -- --
0000: 00                                                .               
```

#### Opcodes

```
  0: 0x0000 [0x00] END_REQSTACK()
```

### Event 285

#### Metadata

| Field        | Value    |
|--------------|----------|
| Entrypoint   | 0x0001   |
| Data Size    | 47 bytes |
| Instructions | 9        |

```
      00 01 02 03 04 05 06 07  08 09 0A 0B 0C 0D 0E 0F
      -- -- -- -- -- -- -- --  -- -- -- -- -- -- -- --
0000:    1E F0 FF FF 7F 1C 00  80 66 01 80 F8 FF FF 7F   ........f......
0010: F8 FF FF 7F 74 6C 6B 31  1D 02 80 23 66 01 80 F8  ....tlk1...#f...
0020: FF FF 7F F8 FF FF 7F 74  6C 6B 32 1C 00 80 21 00  .......tlk2...!.
```

#### Opcodes

```
  0: 0x0001 [0x1E] EventEntity looks at LocalPlayer and starts talking
  1: 0x0006 [0x1C] WAIT(30* ticks)
  2: 0x0009 [0x66] LOAD_EXT_SCHEDULER_MAIN: Load scheduler "tlk1" with entities [EventEntity, EventEntity], work=0*
  3: 0x0018 [0x1D] PRINT_EVENT_MESSAGE(message_id=9308*)
    → "No matter the size of the crowd, a trained Imperial guard can spot a suspicious character at a hundred yalms.\u007F1\u0000\u0007"
  4: 0x001B [0x23] WAIT_FOR_DIALOG_INTERACTION
  5: 0x001C [0x66] LOAD_EXT_SCHEDULER_MAIN: Load scheduler "tlk2" with entities [EventEntity, EventEntity], work=0*
  6: 0x002B [0x1C] WAIT(30* ticks)
  7: 0x002E [0x21] END_EVENT
  8: 0x002F [0x00] END_REQSTACK()
```

### Event 65535.1

#### Metadata

| Field        | Value   |
|--------------|---------|
| Entrypoint   | 0x0030  |
| Data Size    | 1 bytes |
| Instructions | 1       |

```
      00 01 02 03 04 05 06 07  08 09 0A 0B 0C 0D 0E 0F
      -- -- -- -- -- -- -- --  -- -- -- -- -- -- -- --
0030: 00                                                .               
```

#### Opcodes

```
  0: 0x0030 [0x00] END_REQSTACK()
```

### Event 907

#### Metadata

| Field        | Value    |
|--------------|----------|
| Entrypoint   | 0x0031   |
| Data Size    | 51 bytes |
| Instructions | 11       |

```
      00 01 02 03 04 05 06 07  08 09 0A 0B 0C 0D 0E 0F
      -- -- -- -- -- -- -- --  -- -- -- -- -- -- -- --
0030:    1E F0 FF FF 7F 1C 00  80 66 01 80 F8 FF FF 7F   ........f......
0040: F8 FF FF 7F 74 6C 6B 31  1D 03 80 23 1D 04 80 23  ....tlk1...#...#
0050: 66 01 80 F8 FF FF 7F F8  FF FF 7F 74 6C 6B 32 1C  f..........tlk2.
0060: 00 80 21 00                                       ..!.            
```

#### Opcodes

```
  0: 0x0031 [0x1E] EventEntity looks at LocalPlayer and starts talking
  1: 0x0036 [0x1C] WAIT(30* ticks)
  2: 0x0039 [0x66] LOAD_EXT_SCHEDULER_MAIN: Load scheduler "tlk1" with entities [EventEntity, EventEntity], work=0*
  3: 0x0048 [0x1D] PRINT_EVENT_MESSAGE(message_id=8618*)
    → "Walahra Temple can be found just past Serpentking Square.\u007F1\u0000\u0007"
  4: 0x004B [0x23] WAIT_FOR_DIALOG_INTERACTION
  5: 0x004C [0x1D] PRINT_EVENT_MESSAGE(message_id=8619*)
    → "To think, these two cases might finally see the light of day...\u007F1\u0000\u0007"
  6: 0x004F [0x23] WAIT_FOR_DIALOG_INTERACTION
  7: 0x0050 [0x66] LOAD_EXT_SCHEDULER_MAIN: Load scheduler "tlk2" with entities [EventEntity, EventEntity], work=0*
  8: 0x005F [0x1C] WAIT(30* ticks)
  9: 0x0062 [0x21] END_EVENT
 10: 0x0063 [0x00] END_REQSTACK()
```
