# 16982394

## Common Data

| Field            | Value                         |
|------------------|-------------------------------|
| Zone             | Aht Urhgan Whitegate (ID: 50) |
| Block Size       | 92 bytes                      |
| Total Events     | 3                             |
| References Count | 6                             |

## List of Events

| Event ID                  | Entrypoint   |   Size |   Instructions |
|---------------------------|--------------|--------|----------------|
| [65535](#event-65535)     | 0x0000       |      1 |              1 |
| [825](#event-825)         | 0x0001       |      1 |              1 |
| [65535.1](#event-65535-1) | 0x0002       |     38 |              8 |

## DAT References (imed_data)

|   Index | Hex Value   |   Dec Value |
|---------|-------------|-------------|
|       0 | 0x0028      |          40 |
|       1 | 0x188BD     |      100541 |
|       2 | 0x507EB     |      329707 |
|       3 | 0xFFFF98AA  |  4294940842 |
|       4 | 0x0003      |           3 |
|       5 | 0x0359      |         857 |

## Events

### Event 65535

#### Metadata

| Field        | Value   |
|--------------|---------|
| Entrypoint   | 0x0000  |
| Data Size    | 1 bytes |
| Instructions | 1       |

```
      00 01 02 03 04 05 06 07  08 09 0A 0B 0C 0D 0E 0F
      -- -- -- -- -- -- -- --  -- -- -- -- -- -- -- --
0000: 00                                                .               
```

#### Opcodes

```
  0: 0x0000 [0x00] END_REQSTACK()
```

### Event 825

#### Metadata

| Field        | Value   |
|--------------|---------|
| Entrypoint   | 0x0001  |
| Data Size    | 1 bytes |
| Instructions | 1       |

```
      00 01 02 03 04 05 06 07  08 09 0A 0B 0C 0D 0E 0F
      -- -- -- -- -- -- -- --  -- -- -- -- -- -- -- --
0000:    00                                              .              
```

#### Opcodes

```
  0: 0x0001 [0x00] END_REQSTACK()
```

### Event 65535.1

#### Metadata

| Field        | Value    |
|--------------|----------|
| Entrypoint   | 0x0002   |
| Data Size    | 38 bytes |
| Instructions | 8        |

```
      00 01 02 03 04 05 06 07  08 09 0A 0B 0C 0D 0E 0F
      -- -- -- -- -- -- -- --  -- -- -- -- -- -- -- --
0000:       32 00 80 1F 00 01  80 02 80 03 80 1F 01 6F    2............o
0010: 1E 65 21 03 01 1C 04 80  5B 05 80 7A 21 03 01 7A  .e!.....[..z!..z
0020: 21 03 01 6B 74 6E 30 00                           !..ktn0.        
```

#### Opcodes

```
  0: 0x0002 [0x32] ExtData[1]->MainSpeed = 40* * 0.1
  1: 0x0005 [0x1F] MOVE_ENTITY: EventEntity moves to X=100.541*, Z=329.707*, Y=-26.454*
  2: 0x000D [0x1F] MOVE_ENTITY: Update entity position (mode=1)
  3: 0x000F [0x6F] WAIT_FRAME_DELAY: Yield until WaitTime reaches zero
  4: 0x0010 [0x1E] EventEntity looks at Gadalar (ID: 16982373/0x01032165) and starts talking
  5: 0x0015 [0x1C] WAIT(3* ticks)
  6: 0x0018 [0x5B] LOAD_EXT_SCHEDULER: Load scheduler "ktn0" with entities [Unnamed NPC (ID: 16982394/0x0103217A), Unnamed NPC (ID: 16982394/0x0103217A)], work=857*
  7: 0x0027 [0x00] END_REQSTACK()
```
