# 16982106 - Musdahl

## Common Data

| Field            | Value                         |
|------------------|-------------------------------|
| Zone             | Aht Urhgan Whitegate (ID: 50) |
| Block Size       | 324 bytes                     |
| Total Events     | 11                            |
| References Count | 16                            |

## List of Events

| Event ID                  | Entrypoint   |   Size |   Instructions |
|---------------------------|--------------|--------|----------------|
| [65535](#event-65535)     | 0x0000       |      1 |              1 |
| [242](#event-242)         | 0x0001       |     47 |              9 |
| [3026](#event-3026)       | 0x0030       |     13 |              3 |
| [3033](#event-3033)       | 0x003D       |     13 |              3 |
| [809](#event-809)         | 0x004A       |      1 |              1 |
| [65535.1](#event-65535-1) | 0x004B       |     10 |              2 |
| [65535.2](#event-65535-2) | 0x0055       |     17 |              3 |
| [868](#event-868)         | 0x0066       |      7 |              2 |
| [65535.3](#event-65535-3) | 0x006D       |     67 |             17 |
| [872](#event-872)         | 0x00B0       |      7 |              2 |
| [65535.4](#event-65535-4) | 0x00B7       |     14 |              4 |

## DAT References (imed_data)

|   Index | Hex Value   |   Dec Value |
|---------|-------------|-------------|
|       0 | 0x001E      |          30 |
|       1 | 0x0000      |           0 |
|       2 | 0x2456      |        9302 |
|       3 | 0xE3D7      |       58327 |
|       4 | 0x0529      |        1321 |
|       5 | 0x01A6      |         422 |
|       6 | 0xE12B      |       57643 |
|       7 | 0x0B38      |        2872 |
|       8 | 0x05EE      |        1518 |
|       9 | 0x0028      |          40 |
|      10 | 0x14F14     |       85780 |
|      11 | 0xFFFFECC5  |  4294962373 |
|      12 | 0x003C      |          60 |
|      13 | 0x178F6     |       96502 |
|      14 | 0xFFFFEDA2  |  4294962594 |
|      15 | 0x0002      |           2 |

## Events

### Event 65535

#### Metadata

| Field        | Value   |
|--------------|---------|
| Entrypoint   | 0x0000  |
| Data Size    | 1 bytes |
| Instructions | 1       |

```
      00 01 02 03 04 05 06 07  08 09 0A 0B 0C 0D 0E 0F
      -- -- -- -- -- -- -- --  -- -- -- -- -- -- -- --
0000: 00                                                .               
```

#### Opcodes

```
  0: 0x0000 [0x00] END_REQSTACK()
```

### Event 242

#### Metadata

| Field        | Value    |
|--------------|----------|
| Entrypoint   | 0x0001   |
| Data Size    | 47 bytes |
| Instructions | 9        |

```
      00 01 02 03 04 05 06 07  08 09 0A 0B 0C 0D 0E 0F
      -- -- -- -- -- -- -- --  -- -- -- -- -- -- -- --
0000:    1E F0 FF FF 7F 1C 00  80 66 01 80 F8 FF FF 7F   ........f......
0010: F8 FF FF 7F 74 6C 6B 31  1D 02 80 23 66 01 80 F8  ....tlk1...#f...
0020: FF FF 7F F8 FF FF 7F 74  65 6E 31 1C 00 80 21 00  .......ten1...!.
```

#### Opcodes

```
  0: 0x0001 [0x1E] EventEntity looks at LocalPlayer and starts talking
  1: 0x0006 [0x1C] WAIT(30* ticks)
  2: 0x0009 [0x66] LOAD_EXT_SCHEDULER_MAIN: Load scheduler "tlk1" with entities [EventEntity, EventEntity], work=0*
  3: 0x0018 [0x1D] PRINT_EVENT_MESSAGE(message_id=9302*)
    → "The walls built to protect Al Zahbi from the beastmen have been reduced to rubble in several places by the endless waves of attacks. We cannot trust in them to keep us safe any longer.\u007F1\u0000\u0007"
  4: 0x001B [0x23] WAIT_FOR_DIALOG_INTERACTION
  5: 0x001C [0x66] LOAD_EXT_SCHEDULER_MAIN: Load scheduler "ten1" with entities [EventEntity, EventEntity], work=0*
  6: 0x002B [0x1C] WAIT(30* ticks)
  7: 0x002E [0x21] END_EVENT
  8: 0x002F [0x00] END_REQSTACK()
```

### Event 3026

#### Metadata

| Field        | Value    |
|--------------|----------|
| Entrypoint   | 0x0030   |
| Data Size    | 13 bytes |
| Instructions | 3        |

```
      00 01 02 03 04 05 06 07  08 09 0A 0B 0C 0D 0E 0F
      -- -- -- -- -- -- -- --  -- -- -- -- -- -- -- --
0030: 92 01 F8 FF FF 7F 94 01  F8 FF FF 7F 00           .............   
```

#### Opcodes

```
  0: 0x0030 [0x92] EventEntity->Render.Flags3 ^= 0x01
  1: 0x0036 [0x94] EventEntity->Render.Flags3 ^= 0x01
  2: 0x003C [0x00] END_REQSTACK()
```

### Event 3033

#### Metadata

| Field        | Value    |
|--------------|----------|
| Entrypoint   | 0x003D   |
| Data Size    | 13 bytes |
| Instructions | 3        |

```
      00 01 02 03 04 05 06 07  08 09 0A 0B 0C 0D 0E 0F
      -- -- -- -- -- -- -- --  -- -- -- -- -- -- -- --
0030:                                         92 01 F8               ...
0040: FF FF 7F 94 01 F8 FF FF  7F 00                    ..........      
```

#### Opcodes

```
  0: 0x003D [0x92] EventEntity->Render.Flags3 ^= 0x01
  1: 0x0043 [0x94] EventEntity->Render.Flags3 ^= 0x01
  2: 0x0049 [0x00] END_REQSTACK()
```

### Event 809

#### Metadata

| Field        | Value   |
|--------------|---------|
| Entrypoint   | 0x004A  |
| Data Size    | 1 bytes |
| Instructions | 1       |

```
      00 01 02 03 04 05 06 07  08 09 0A 0B 0C 0D 0E 0F
      -- -- -- -- -- -- -- --  -- -- -- -- -- -- -- --
0040:                                00                           .     
```

#### Opcodes

```
  0: 0x004A [0x00] END_REQSTACK()
```

### Event 65535.1

#### Metadata

| Field        | Value    |
|--------------|----------|
| Entrypoint   | 0x004B   |
| Data Size    | 10 bytes |
| Instructions | 2        |

```
      00 01 02 03 04 05 06 07  08 09 0A 0B 0C 0D 0E 0F
      -- -- -- -- -- -- -- --  -- -- -- -- -- -- -- --
0040:                                   37 03 80 04 80             7....
0050: 01 80 05 80 00                                    .....           
```

#### Opcodes

```
  0: 0x004B [0x37] UPDATE_EVENT_POSITION_AND_DIR: x=58.327*, z=1.321*, y=0.000*, direction=37.1°*
  1: 0x0054 [0x00] END_REQSTACK()
```

### Event 65535.2

#### Metadata

| Field        | Value    |
|--------------|----------|
| Entrypoint   | 0x0055   |
| Data Size    | 17 bytes |
| Instructions | 3        |

```
      00 01 02 03 04 05 06 07  08 09 0A 0B 0C 0D 0E 0F
      -- -- -- -- -- -- -- --  -- -- -- -- -- -- -- --
0050:                37 06 80  07 80 01 80 08 80 4B 5A       7........KZ
0060: 20 03 01 01 80 00                                  .....          
```

#### Opcodes

```
  0: 0x0055 [0x37] UPDATE_EVENT_POSITION_AND_DIR: x=57.643*, z=2.872*, y=0.000*, direction=133.4°*
  1: 0x005E [0x4B] UPDATE_ENTITY_YAW(entity=Musdahl (ID: 16982106/0x0103205A), yaw=0.0°*)
  2: 0x0065 [0x00] END_REQSTACK()
```

### Event 868

#### Metadata

| Field        | Value   |
|--------------|---------|
| Entrypoint   | 0x0066  |
| Data Size    | 7 bytes |
| Instructions | 2       |

```
      00 01 02 03 04 05 06 07  08 09 0A 0B 0C 0D 0E 0F
      -- -- -- -- -- -- -- --  -- -- -- -- -- -- -- --
0060:                   92 01  F8 FF FF 7F 00                 .......   
```

#### Opcodes

```
  0: 0x0066 [0x92] EventEntity->Render.Flags3 ^= 0x01
  1: 0x006C [0x00] END_REQSTACK()
```

### Event 65535.3

#### Metadata

| Field        | Value    |
|--------------|----------|
| Entrypoint   | 0x006D   |
| Data Size    | 67 bytes |
| Instructions | 17       |

```
      00 01 02 03 04 05 06 07  08 09 0A 0B 0C 0D 0E 0F
      -- -- -- -- -- -- -- --  -- -- -- -- -- -- -- --
0060:                                         32 09 80               2..
0070: 1F 00 0A 80 0B 80 01 80  1F 01 1C 0C 80 32 09 80  .............2..
0080: 1F 00 0D 80 0E 80 01 80  1F 01 03 25 10 0F 80 1C  ...........%....
0090: 0C 80 32 09 80 1F 00 0A  80 0B 80 01 80 1F 01 1C  ..2.............
00A0: 0C 80 32 09 80 1F 00 0D  80 0E 80 01 80 1F 01 00  ..2.............
```

#### Opcodes

```
  0: 0x006D [0x32] ExtData[1]->MainSpeed = 40* * 0.1
  1: 0x0070 [0x1F] MOVE_ENTITY: EventEntity moves to X=85.780*, Z=-4.923*, Y=0.000*
  2: 0x0078 [0x1F] MOVE_ENTITY: Update entity position (mode=1)
  3: 0x007A [0x1C] WAIT(60* ticks)
  4: 0x007D [0x32] ExtData[1]->MainSpeed = 40* * 0.1
  5: 0x0080 [0x1F] MOVE_ENTITY: EventEntity moves to X=96.502*, Z=-4.702*, Y=0.000*
  6: 0x0088 [0x1F] MOVE_ENTITY: Update entity position (mode=1)
  7: 0x008A [0x03] Work_Zone[37] = 2*
  8: 0x008F [0x1C] WAIT(60* ticks)
  9: 0x0092 [0x32] ExtData[1]->MainSpeed = 40* * 0.1
 10: 0x0095 [0x1F] MOVE_ENTITY: EventEntity moves to X=85.780*, Z=-4.923*, Y=0.000*
 11: 0x009D [0x1F] MOVE_ENTITY: Update entity position (mode=1)
 12: 0x009F [0x1C] WAIT(60* ticks)
 13: 0x00A2 [0x32] ExtData[1]->MainSpeed = 40* * 0.1
 14: 0x00A5 [0x1F] MOVE_ENTITY: EventEntity moves to X=96.502*, Z=-4.702*, Y=0.000*
 15: 0x00AD [0x1F] MOVE_ENTITY: Update entity position (mode=1)
 16: 0x00AF [0x00] END_REQSTACK()
```

### Event 872

#### Metadata

| Field        | Value   |
|--------------|---------|
| Entrypoint   | 0x00B0  |
| Data Size    | 7 bytes |
| Instructions | 2       |

```
      00 01 02 03 04 05 06 07  08 09 0A 0B 0C 0D 0E 0F
      -- -- -- -- -- -- -- --  -- -- -- -- -- -- -- --
00B0: 92 01 F8 FF FF 7F 00                              .......         
```

#### Opcodes

```
  0: 0x00B0 [0x92] EventEntity->Render.Flags3 ^= 0x01
  1: 0x00B6 [0x00] END_REQSTACK()
```

### Event 65535.4

#### Metadata

| Field        | Value    |
|--------------|----------|
| Entrypoint   | 0x00B7   |
| Data Size    | 14 bytes |
| Instructions | 4        |

```
      00 01 02 03 04 05 06 07  08 09 0A 0B 0C 0D 0E 0F
      -- -- -- -- -- -- -- --  -- -- -- -- -- -- -- --
00B0:                      32  09 80 1F 00 0D 80 0E 80         2........
00C0: 01 80 1F 01 00                                    .....           
```

#### Opcodes

```
  0: 0x00B7 [0x32] ExtData[1]->MainSpeed = 40* * 0.1
  1: 0x00BA [0x1F] MOVE_ENTITY: EventEntity moves to X=96.502*, Z=-4.702*, Y=0.000*
  2: 0x00C2 [0x1F] MOVE_ENTITY: Update entity position (mode=1)
  3: 0x00C4 [0x00] END_REQSTACK()
```
