# 16982136 - Gigirk

## Common Data

| Field            | Value                         |
|------------------|-------------------------------|
| Zone             | Aht Urhgan Whitegate (ID: 50) |
| Block Size       | 124 bytes                     |
| Total Events     | 2                             |
| References Count | 6                             |

## List of Events

| Event ID              | Entrypoint   |   Size |   Instructions |
|-----------------------|--------------|--------|----------------|
| [65535](#event-65535) | 0x0000       |      1 |              1 |
| [664](#event-664)     | 0x0001       |     73 |             15 |

## DAT References (imed_data)

|   Index | Hex Value   |   Dec Value |
|---------|-------------|-------------|
|       0 | 0x001E      |          30 |
|       1 | 0x003E      |          62 |
|       2 | 0x003C      |          60 |
|       3 | 0x18D9      |        6361 |
|       4 | 0x18DA      |        6362 |
|       5 | 0x18DB      |        6363 |

## Events

### Event 65535

#### Metadata

| Field        | Value   |
|--------------|---------|
| Entrypoint   | 0x0000  |
| Data Size    | 1 bytes |
| Instructions | 1       |

```
      00 01 02 03 04 05 06 07  08 09 0A 0B 0C 0D 0E 0F
      -- -- -- -- -- -- -- --  -- -- -- -- -- -- -- --
0000: 00                                                .               
```

#### Opcodes

```
  0: 0x0000 [0x00] END_REQSTACK()
```

### Event 664

#### Metadata

| Field        | Value    |
|--------------|----------|
| Entrypoint   | 0x0001   |
| Data Size    | 73 bytes |
| Instructions | 15       |

```
      00 01 02 03 04 05 06 07  08 09 0A 0B 0C 0D 0E 0F
      -- -- -- -- -- -- -- --  -- -- -- -- -- -- -- --
0000:    1E F0 FF FF 7F 1C 00  80 66 01 80 F8 FF FF 7F   ........f......
0010: F8 FF FF 7F 6B 69 64 30  1C 02 80 66 01 80 F8 FF  ....kid0...f....
0020: FF 7F F8 FF FF 7F 6E 61  79 30 1D 03 80 23 1D 04  ......nay0...#..
0030: 80 23 1D 05 80 23 66 01  80 F8 FF FF 7F F8 FF FF  .#...#f.........
0040: 7F 6E 61 79 31 1C 00 80  21 00                    .nay1...!.      
```

#### Opcodes

```
  0: 0x0001 [0x1E] EventEntity looks at LocalPlayer and starts talking
  1: 0x0006 [0x1C] WAIT(30* ticks)
  2: 0x0009 [0x66] LOAD_EXT_SCHEDULER_MAIN: Load scheduler "kid0" with entities [EventEntity, EventEntity], work=62*
  3: 0x0018 [0x1C] WAIT(60* ticks)
  4: 0x001B [0x66] LOAD_EXT_SCHEDULER_MAIN: Load scheduler "nay0" with entities [EventEntity, EventEntity], work=62*
  5: 0x002A [0x1D] PRINT_EVENT_MESSAGE(message_id=6361*)
    → "How am I going to enter the workshop without looking suspicious? I can't just waltz in... Maybe I could pretend to be a customer? Hmmm...how about an apprentice?\u007F1\u0000\u0007"
  6: 0x002D [0x23] WAIT_FOR_DIALOG_INTERACTION
  7: 0x002E [0x1D] PRINT_EVENT_MESSAGE(message_id=6362*)
    → "They say that the automaton is the apex of Near Eastern technology. I can't go back until I learn the secrets of their production...\u007F1\u0000\u0007"
  8: 0x0031 [0x23] WAIT_FOR_DIALOG_INTERACTION
  9: 0x0032 [0x1D] PRINT_EVENT_MESSAGE(message_id=6363*)
    → "The members of my guild back home will know instantly if I'm lying...\u007F1\u0000\u0007"
 10: 0x0035 [0x23] WAIT_FOR_DIALOG_INTERACTION
 11: 0x0036 [0x66] LOAD_EXT_SCHEDULER_MAIN: Load scheduler "nay1" with entities [EventEntity, EventEntity], work=62*
 12: 0x0045 [0x1C] WAIT(30* ticks)
 13: 0x0048 [0x21] END_EVENT
 14: 0x0049 [0x00] END_REQSTACK()
```
