# 16982569 - Ryo

## Common Data

| Field            | Value                         |
|------------------|-------------------------------|
| Zone             | Aht Urhgan Whitegate (ID: 50) |
| Block Size       | 3032 bytes                    |
| Total Events     | 3                             |
| References Count | 218                           |

## List of Events

| Event ID              | Entrypoint   |   Size |   Instructions |
|-----------------------|--------------|--------|----------------|
| [65535](#event-65535) | 0x0000       |      1 |              1 |
| [913](#event-913)     | 0x0001       |   2083 |            582 |
| [914](#event-914)     | 0x0824       |     46 |             20 |

## DAT References (imed_data)

|   Index | Hex Value   |   Dec Value |
|---------|-------------|-------------|
|       0 | 0x0001      |           1 |
|       1 | 0x0193      |         403 |
|       2 | 0x0000      |           0 |
|       3 | 0x337F      |       13183 |
|       4 | 0x0190      |         400 |
|       5 | 0x3380      |       13184 |
|       6 | 0x0194      |         404 |
|       7 | 0x3381      |       13185 |
|       8 | 0x3383      |       13187 |
|       9 | 0x3384      |       13188 |
|      10 | 0x3385      |       13189 |
|      11 | 0x3386      |       13190 |
|      12 | 0x3387      |       13191 |
|      13 | 0x012C      |         300 |
|      14 | 0x3382      |       13186 |
|      15 | 0x0002      |           2 |
|      16 | 0x00C8      |         200 |
|      17 | 0x339E      |       13214 |
|      18 | 0x339F      |       13215 |
|      19 | 0x33A0      |       13216 |
|      20 | 0x0003      |           3 |
|      21 | 0x33A1      |       13217 |
|      22 | 0x0004      |           4 |
|      23 | 0x33A2      |       13218 |
|      24 | 0x0005      |           5 |
|      25 | 0x33A3      |       13219 |
|      26 | 0x0006      |           6 |
|      27 | 0x33A4      |       13220 |
|      28 | 0x0007      |           7 |
|      29 | 0x33A5      |       13221 |
|      30 | 0x0008      |           8 |
|      31 | 0x33A6      |       13222 |
|      32 | 0x0009      |           9 |
|      33 | 0x33A7      |       13223 |
|      34 | 0x000A      |          10 |
|      35 | 0x33A8      |       13224 |
|      36 | 0x000B      |          11 |
|      37 | 0x33A9      |       13225 |
|      38 | 0x000C      |          12 |
|      39 | 0x33AA      |       13226 |
|      40 | 0x000D      |          13 |
|      41 | 0x33AB      |       13227 |
|      42 | 0x000E      |          14 |
|      43 | 0x33AC      |       13228 |
|      44 | 0x000F      |          15 |
|      45 | 0x33AD      |       13229 |
|      46 | 0x0010      |          16 |
|      47 | 0x33AE      |       13230 |
|      48 | 0x0011      |          17 |
|      49 | 0x33AF      |       13231 |
|      50 | 0x0012      |          18 |
|      51 | 0x33B0      |       13232 |
|      52 | 0x0013      |          19 |
|      53 | 0x33B1      |       13233 |
|      54 | 0x0014      |          20 |
|      55 | 0x33B2      |       13234 |
|      56 | 0x0015      |          21 |
|      57 | 0x33B3      |       13235 |
|      58 | 0x0016      |          22 |
|      59 | 0x33B4      |       13236 |
|      60 | 0x0017      |          23 |
|      61 | 0x33B5      |       13237 |
|      62 | 0x0018      |          24 |
|      63 | 0x33B6      |       13238 |
|      64 | 0x0019      |          25 |
|      65 | 0x33B7      |       13239 |
|      66 | 0x001A      |          26 |
|      67 | 0x33B8      |       13240 |
|      68 | 0x001B      |          27 |
|      69 | 0x33B9      |       13241 |
|      70 | 0x001C      |          28 |
|      71 | 0x33BA      |       13242 |
|      72 | 0x001D      |          29 |
|      73 | 0x33BB      |       13243 |
|      74 | 0x001E      |          30 |
|      75 | 0x33BC      |       13244 |
|      76 | 0x001F      |          31 |
|      77 | 0x33BD      |       13245 |
|      78 | 0x0020      |          32 |
|      79 | 0x33BE      |       13246 |
|      80 | 0x0021      |          33 |
|      81 | 0x33BF      |       13247 |
|      82 | 0x0022      |          34 |
|      83 | 0x33C0      |       13248 |
|      84 | 0x0023      |          35 |
|      85 | 0x33C1      |       13249 |
|      86 | 0x0024      |          36 |
|      87 | 0x33C2      |       13250 |
|      88 | 0x0025      |          37 |
|      89 | 0x33C3      |       13251 |
|      90 | 0x0026      |          38 |
|      91 | 0x33C4      |       13252 |
|      92 | 0x0027      |          39 |
|      93 | 0x33C5      |       13253 |
|      94 | 0x0028      |          40 |
|      95 | 0x33C6      |       13254 |
|      96 | 0x0029      |          41 |
|      97 | 0x33C7      |       13255 |
|      98 | 0x002A      |          42 |
|      99 | 0x33C8      |       13256 |
|     100 | 0x002B      |          43 |
|     101 | 0x33C9      |       13257 |
|     102 | 0x002C      |          44 |
|     103 | 0x33CA      |       13258 |
|     104 | 0x002D      |          45 |
|     105 | 0x33CB      |       13259 |
|     106 | 0x002E      |          46 |
|     107 | 0x33CC      |       13260 |
|     108 | 0x002F      |          47 |
|     109 | 0x33CD      |       13261 |
|     110 | 0x0030      |          48 |
|     111 | 0x33CE      |       13262 |
|     112 | 0x0031      |          49 |
|     113 | 0x33CF      |       13263 |
|     114 | 0x0032      |          50 |
|     115 | 0x33D0      |       13264 |
|     116 | 0x0033      |          51 |
|     117 | 0x33D1      |       13265 |
|     118 | 0x0034      |          52 |
|     119 | 0x33D2      |       13266 |
|     120 | 0x0035      |          53 |
|     121 | 0x33D3      |       13267 |
|     122 | 0x0036      |          54 |
|     123 | 0x33D4      |       13268 |
|     124 | 0x0037      |          55 |
|     125 | 0x33D5      |       13269 |
|     126 | 0x0038      |          56 |
|     127 | 0x33D6      |       13270 |
|     128 | 0x0039      |          57 |
|     129 | 0x33D7      |       13271 |
|     130 | 0x003A      |          58 |
|     131 | 0x33D8      |       13272 |
|     132 | 0x003B      |          59 |
|     133 | 0x33D9      |       13273 |
|     134 | 0x003C      |          60 |
|     135 | 0x33DB      |       13275 |
|     136 | 0x003D      |          61 |
|     137 | 0x33DC      |       13276 |
|     138 | 0x00C9      |         201 |
|     139 | 0x33DD      |       13277 |
|     140 | 0x33DE      |       13278 |
|     141 | 0x33DF      |       13279 |
|     142 | 0x33E0      |       13280 |
|     143 | 0x33E1      |       13281 |
|     144 | 0x33E2      |       13282 |
|     145 | 0x33E3      |       13283 |
|     146 | 0x33E4      |       13284 |
|     147 | 0x33E5      |       13285 |
|     148 | 0x33E6      |       13286 |
|     149 | 0x33E7      |       13287 |
|     150 | 0x33E8      |       13288 |
|     151 | 0x33E9      |       13289 |
|     152 | 0x33EA      |       13290 |
|     153 | 0x33EB      |       13291 |
|     154 | 0x33EC      |       13292 |
|     155 | 0x33ED      |       13293 |
|     156 | 0x33EE      |       13294 |
|     157 | 0x33EF      |       13295 |
|     158 | 0x33F0      |       13296 |
|     159 | 0x33F1      |       13297 |
|     160 | 0x33F2      |       13298 |
|     161 | 0x33F3      |       13299 |
|     162 | 0x33F4      |       13300 |
|     163 | 0x33F5      |       13301 |
|     164 | 0x33F6      |       13302 |
|     165 | 0x33F7      |       13303 |
|     166 | 0x33F8      |       13304 |
|     167 | 0x33F9      |       13305 |
|     168 | 0x33FA      |       13306 |
|     169 | 0x33FB      |       13307 |
|     170 | 0x33FC      |       13308 |
|     171 | 0x33FD      |       13309 |
|     172 | 0x33FE      |       13310 |
|     173 | 0x33FF      |       13311 |
|     174 | 0x3400      |       13312 |
|     175 | 0x3401      |       13313 |
|     176 | 0x3402      |       13314 |
|     177 | 0x3403      |       13315 |
|     178 | 0x3404      |       13316 |
|     179 | 0x3405      |       13317 |
|     180 | 0x3406      |       13318 |
|     181 | 0x3407      |       13319 |
|     182 | 0x3408      |       13320 |
|     183 | 0x3409      |       13321 |
|     184 | 0x340A      |       13322 |
|     185 | 0x340B      |       13323 |
|     186 | 0x340C      |       13324 |
|     187 | 0x340D      |       13325 |
|     188 | 0x340E      |       13326 |
|     189 | 0x340F      |       13327 |
|     190 | 0x3410      |       13328 |
|     191 | 0x3411      |       13329 |
|     192 | 0x3412      |       13330 |
|     193 | 0x3413      |       13331 |
|     194 | 0x3388      |       13192 |
|     195 | 0x3389      |       13193 |
|     196 | 0x338A      |       13194 |
|     197 | 0x338B      |       13195 |
|     198 | 0x0191      |         401 |
|     199 | 0x338C      |       13196 |
|     200 | 0x338D      |       13197 |
|     201 | 0x338E      |       13198 |
|     202 | 0x338F      |       13199 |
|     203 | 0x3390      |       13200 |
|     204 | 0x3398      |       13208 |
|     205 | 0x3391      |       13201 |
|     206 | 0x3392      |       13202 |
|     207 | 0x3393      |       13203 |
|     208 | 0x3394      |       13204 |
|     209 | 0x3395      |       13205 |
|     210 | 0x3396      |       13206 |
|     211 | 0x3397      |       13207 |
|     212 | 0x0192      |         402 |
|     213 | 0x339A      |       13210 |
|     214 | 0x3399      |       13209 |
|     215 | 0x339B      |       13211 |
|     216 | 0x339C      |       13212 |
|     217 | 0x339D      |       13213 |

## Events

### Event 65535

#### Metadata

| Field        | Value   |
|--------------|---------|
| Entrypoint   | 0x0000  |
| Data Size    | 1 bytes |
| Instructions | 1       |

```
      00 01 02 03 04 05 06 07  08 09 0A 0B 0C 0D 0E 0F
      -- -- -- -- -- -- -- --  -- -- -- -- -- -- -- --
0000: 00                                                .               
```

#### Opcodes

```
  0: 0x0000 [0x00] END_REQSTACK()
```

### Event 913

#### Metadata

| Field        | Value      |
|--------------|------------|
| Entrypoint   | 0x0001     |
| Data Size    | 2083 bytes |
| Instructions | 582        |

```
      00 01 02 03 04 05 06 07  08 09 0A 0B 0C 0D 0E 0F
      -- -- -- -- -- -- -- --  -- -- -- -- -- -- -- --
0000:    20 01 42 1E F0 FF FF  7F 6F 70 03 01 10 00 80    .B.....op.....
0010: 43 00 43 01 03 01 10 01  80 43 00 43 01 02 02 10  C.C......C.C....
0020: 02 80 00 35 00 1D 03 80  23 03 01 10 04 80 43 00  ...5....#.....C.
0030: 43 01 01 39 00 1D 05 80  23 05 02 00 03 01 10 06  C..9....#.......
0040: 80 43 00 43 01 24 07 80  02 80 02 10 25 02 00 10  .C.C.$......%...
0050: 02 80 00 6C 00 1D 08 80  23 1D 09 80 23 1D 0A 80  ...l....#...#...
0060: 23 1D 0B 80 23 1D 0C 80  23 01 10 08 02 00 10 00  #...#...#.......
0070: 80 00 84 00 03 01 10 0D  80 43 00 43 01 1D 0E 80  .........C.C....
0080: 23 01 10 08 02 00 10 0F  80 00 3A 04 03 01 10 10  #.........:.....
0090: 80 43 00 43 01 02 02 10  02 80 80 A4 00 1D 11 80  .C.C............
00A0: 23 01 37 04 02 02 10 00  80 80 B3 00 1D 12 80 23  #.7............#
00B0: 01 37 04 02 02 10 0F 80  80 C2 00 1D 13 80 23 01  .7............#.
00C0: 37 04 02 02 10 14 80 80  D1 00 1D 15 80 23 01 37  7............#.7
00D0: 04 02 02 10 16 80 80 E0  00 1D 17 80 23 01 37 04  ............#.7.
00E0: 02 02 10 18 80 80 EF 00  1D 19 80 23 01 37 04 02  ...........#.7..
00F0: 02 10 1A 80 80 FE 00 1D  1B 80 23 01 37 04 02 02  ..........#.7...
0100: 10 1C 80 80 0D 01 1D 1D  80 23 01 37 04 02 02 10  .........#.7....
0110: 1E 80 80 1C 01 1D 1F 80  23 01 37 04 02 02 10 20  ........#.7.... 
0120: 80 80 2B 01 1D 21 80 23  01 37 04 02 02 10 22 80  ..+..!.#.7....".
0130: 80 3A 01 1D 23 80 23 01  37 04 02 02 10 24 80 80  .:..#.#.7....$..
0140: 49 01 1D 25 80 23 01 37  04 02 02 10 26 80 80 58  I..%.#.7....&..X
0150: 01 1D 27 80 23 01 37 04  02 02 10 28 80 80 67 01  ..'.#.7....(..g.
0160: 1D 29 80 23 01 37 04 02  02 10 2A 80 80 76 01 1D  .).#.7....*..v..
0170: 2B 80 23 01 37 04 02 02  10 2C 80 80 85 01 1D 2D  +.#.7....,.....-
0180: 80 23 01 37 04 02 02 10  2E 80 80 94 01 1D 2F 80  .#.7........../.
0190: 23 01 37 04 02 02 10 30  80 80 A3 01 1D 31 80 23  #.7....0.....1.#
01A0: 01 37 04 02 02 10 32 80  80 B2 01 1D 33 80 23 01  .7....2.....3.#.
01B0: 37 04 02 02 10 34 80 80  C1 01 1D 35 80 23 01 37  7....4.....5.#.7
01C0: 04 02 02 10 36 80 80 D0  01 1D 37 80 23 01 37 04  ....6.....7.#.7.
01D0: 02 02 10 38 80 80 DF 01  1D 39 80 23 01 37 04 02  ...8.....9.#.7..
01E0: 02 10 3A 80 80 EE 01 1D  3B 80 23 01 37 04 02 02  ..:.....;.#.7...
01F0: 10 3C 80 80 FD 01 1D 3D  80 23 01 37 04 02 02 10  .<.....=.#.7....
0200: 3E 80 80 0C 02 1D 3F 80  23 01 37 04 02 02 10 40  >.....?.#.7....@
0210: 80 80 1B 02 1D 41 80 23  01 37 04 02 02 10 42 80  .....A.#.7....B.
0220: 80 2A 02 1D 43 80 23 01  37 04 02 02 10 44 80 80  .*..C.#.7....D..
0230: 39 02 1D 45 80 23 01 37  04 02 02 10 46 80 80 48  9..E.#.7....F..H
0240: 02 1D 47 80 23 01 37 04  02 02 10 48 80 80 57 02  ..G.#.7....H..W.
0250: 1D 49 80 23 01 37 04 02  02 10 4A 80 80 66 02 1D  .I.#.7....J..f..
0260: 4B 80 23 01 37 04 02 02  10 4C 80 80 75 02 1D 4D  K.#.7....L..u..M
0270: 80 23 01 37 04 02 02 10  4E 80 80 84 02 1D 4F 80  .#.7....N.....O.
0280: 23 01 37 04 02 02 10 50  80 80 93 02 1D 51 80 23  #.7....P.....Q.#
0290: 01 37 04 02 02 10 52 80  80 A2 02 1D 53 80 23 01  .7....R.....S.#.
02A0: 37 04 02 02 10 54 80 80  B1 02 1D 55 80 23 01 37  7....T.....U.#.7
02B0: 04 02 02 10 56 80 80 C0  02 1D 57 80 23 01 37 04  ....V.....W.#.7.
02C0: 02 02 10 58 80 80 CF 02  1D 59 80 23 01 37 04 02  ...X.....Y.#.7..
02D0: 02 10 5A 80 80 DE 02 1D  5B 80 23 01 37 04 02 02  ..Z.....[.#.7...
02E0: 10 5C 80 80 ED 02 1D 5D  80 23 01 37 04 02 02 10  .\.....].#.7....
02F0: 5E 80 80 FC 02 1D 5F 80  23 01 37 04 02 02 10 60  ^....._.#.7....`
0300: 80 80 0B 03 1D 61 80 23  01 37 04 02 02 10 62 80  .....a.#.7....b.
0310: 80 1A 03 1D 63 80 23 01  37 04 02 02 10 64 80 80  ....c.#.7....d..
0320: 29 03 1D 65 80 23 01 37  04 02 02 10 66 80 80 38  )..e.#.7....f..8
0330: 03 1D 67 80 23 01 37 04  02 02 10 68 80 80 47 03  ..g.#.7....h..G.
0340: 1D 69 80 23 01 37 04 02  02 10 6A 80 80 56 03 1D  .i.#.7....j..V..
0350: 6B 80 23 01 37 04 02 02  10 6C 80 80 65 03 1D 6D  k.#.7....l..e..m
0360: 80 23 01 37 04 02 02 10  6E 80 80 74 03 1D 6F 80  .#.7....n..t..o.
0370: 23 01 37 04 02 02 10 70  80 80 83 03 1D 71 80 23  #.7....p.....q.#
0380: 01 37 04 02 02 10 72 80  80 92 03 1D 73 80 23 01  .7....r.....s.#.
0390: 37 04 02 02 10 74 80 80  A1 03 1D 75 80 23 01 37  7....t.....u.#.7
03A0: 04 02 02 10 76 80 80 B0  03 1D 77 80 23 01 37 04  ....v.....w.#.7.
03B0: 02 02 10 78 80 80 BF 03  1D 79 80 23 01 37 04 02  ...x.....y.#.7..
03C0: 02 10 7A 80 80 CE 03 1D  7B 80 23 01 37 04 02 02  ..z.....{.#.7...
03D0: 10 7C 80 80 DD 03 1D 7D  80 23 01 37 04 02 02 10  .|.....}.#.7....
03E0: 7E 80 80 EC 03 1D 7F 80  23 01 37 04 02 02 10 80  ~.......#.7.....
03F0: 80 80 FB 03 1D 81 80 23  01 37 04 02 02 10 82 80  .......#.7......
0400: 80 0A 04 1D 83 80 23 01  37 04 02 02 10 84 80 80  ......#.7.......
0410: 19 04 1D 85 80 23 01 37  04 02 02 10 86 80 80 28  .....#.7.......(
0420: 04 1D 87 80 23 01 37 04  02 02 10 88 80 80 37 04  ....#.7.......7.
0430: 1D 89 80 23 01 37 04 01  10 08 02 00 10 14 80 00  ...#.7..........
0440: 87 07 03 01 10 8A 80 43  00 43 01 02 02 10 02 80  .......C.C......
0450: 80 5A 04 1D 8B 80 23 01  84 07 02 02 10 00 80 80  .Z....#.........
0460: 69 04 1D 8C 80 23 01 84  07 02 02 10 0F 80 80 78  i....#.........x
0470: 04 1D 8D 80 23 01 84 07  02 02 10 14 80 80 87 04  ....#...........
0480: 1D 8E 80 23 01 84 07 02  02 10 16 80 80 96 04 1D  ...#............
0490: 8F 80 23 01 84 07 02 02  10 18 80 80 A5 04 1D 90  ..#.............
04A0: 80 23 01 84 07 02 02 10  1A 80 80 B4 04 1D 91 80  .#..............
04B0: 23 01 84 07 02 02 10 1C  80 80 C3 04 1D 92 80 23  #..............#
04C0: 01 84 07 02 02 10 1E 80  80 D2 04 1D 93 80 23 01  ..............#.
04D0: 84 07 02 02 10 20 80 80  E1 04 1D 94 80 23 01 84  ..... .......#..
04E0: 07 02 02 10 22 80 80 F0  04 1D 95 80 23 01 84 07  ....".......#...
04F0: 02 02 10 24 80 80 FF 04  1D 96 80 23 01 84 07 02  ...$.......#....
0500: 02 10 26 80 80 0E 05 1D  97 80 23 01 84 07 02 02  ..&.......#.....
0510: 10 28 80 80 1D 05 1D 98  80 23 01 84 07 02 02 10  .(.......#......
0520: 2A 80 80 2C 05 1D 99 80  23 01 84 07 02 02 10 2C  *..,....#......,
0530: 80 80 3B 05 1D 9A 80 23  01 84 07 02 02 10 2E 80  ..;....#........
0540: 80 4A 05 1D 9B 80 23 01  84 07 02 02 10 30 80 80  .J....#......0..
0550: 59 05 1D 9C 80 23 01 84  07 02 02 10 32 80 80 68  Y....#......2..h
0560: 05 1D 9D 80 23 01 84 07  02 02 10 34 80 80 77 05  ....#......4..w.
0570: 1D 9E 80 23 01 84 07 02  02 10 36 80 80 86 05 1D  ...#......6.....
0580: 9F 80 23 01 84 07 02 02  10 38 80 80 95 05 1D A0  ..#......8......
0590: 80 23 01 84 07 02 02 10  3A 80 80 A4 05 1D A1 80  .#......:.......
05A0: 23 01 84 07 02 02 10 3C  80 80 B3 05 1D A2 80 23  #......<.......#
05B0: 01 84 07 02 02 10 3E 80  80 C2 05 1D A3 80 23 01  ......>.......#.
05C0: 84 07 02 02 10 40 80 80  D1 05 1D A4 80 23 01 84  .....@.......#..
05D0: 07 02 02 10 42 80 80 E0  05 1D A5 80 23 01 84 07  ....B.......#...
05E0: 02 02 10 44 80 80 EF 05  1D A6 80 23 01 84 07 02  ...D.......#....
05F0: 02 10 46 80 80 FE 05 1D  A7 80 23 01 84 07 02 02  ..F.......#.....
0600: 10 48 80 80 0D 06 1D A8  80 23 01 84 07 02 02 10  .H.......#......
0610: 4A 80 80 1C 06 1D A9 80  23 01 84 07 02 02 10 4C  J.......#......L
0620: 80 80 2B 06 1D AA 80 23  01 84 07 02 02 10 4E 80  ..+....#......N.
0630: 80 3A 06 1D AB 80 23 01  84 07 02 02 10 50 80 80  .:....#......P..
0640: 49 06 1D AC 80 23 01 84  07 02 02 10 52 80 80 58  I....#......R..X
0650: 06 1D AD 80 23 01 84 07  02 02 10 54 80 80 67 06  ....#......T..g.
0660: 1D AE 80 23 01 84 07 02  02 10 56 80 80 76 06 1D  ...#......V..v..
0670: AF 80 23 01 84 07 02 02  10 58 80 80 85 06 1D B0  ..#......X......
0680: 80 23 01 84 07 02 02 10  5A 80 80 94 06 1D B1 80  .#......Z.......
0690: 23 01 84 07 02 02 10 5C  80 80 A3 06 1D B2 80 23  #......\.......#
06A0: 01 84 07 02 02 10 5E 80  80 B2 06 1D B3 80 23 01  ......^.......#.
06B0: 84 07 02 02 10 60 80 80  C1 06 1D B4 80 23 01 84  .....`.......#..
06C0: 07 02 02 10 62 80 80 D0  06 1D B5 80 23 01 84 07  ....b.......#...
06D0: 02 02 10 64 80 80 DF 06  1D B6 80 23 01 84 07 02  ...d.......#....
06E0: 02 10 66 80 80 EE 06 1D  B7 80 23 01 84 07 02 02  ..f.......#.....
06F0: 10 68 80 80 FD 06 1D B8  80 23 01 84 07 02 02 10  .h.......#......
0700: 6A 80 80 0C 07 1D B9 80  23 01 84 07 02 02 10 6C  j.......#......l
0710: 80 80 1B 07 1D BA 80 23  01 84 07 02 02 10 6E 80  .......#......n.
0720: 80 2A 07 1D BB 80 23 01  84 07 02 02 10 70 80 80  .*....#......p..
0730: 39 07 1D BC 80 23 01 84  07 02 02 10 72 80 80 48  9....#......r..H
0740: 07 1D BD 80 23 01 84 07  02 02 10 74 80 80 57 07  ....#......t..W.
0750: 1D BE 80 23 01 84 07 02  02 10 76 80 80 66 07 1D  ...#......v..f..
0760: BF 80 23 01 84 07 02 02  10 78 80 80 75 07 1D C0  ..#......x..u...
0770: 80 23 01 84 07 02 02 10  7A 80 80 84 07 1D C1 80  .#......z.......
0780: 23 01 84 07 01 10 08 02  00 10 16 80 00 AB 07 1D  #...............
0790: C2 80 23 1D C3 80 23 1D  C4 80 23 1D C5 80 23 03  ..#...#...#...#.
07A0: 01 10 C6 80 43 00 43 01  01 10 08 02 00 10 18 80  ....C.C.........
07B0: 00 CA 07 1D C7 80 23 1D  C8 80 23 1D C9 80 23 1D  ......#...#...#.
07C0: CA 80 23 1D CB 80 23 01  10 08 02 00 10 1A 80 00  ..#...#.........
07D0: D9 07 1D CC 80 23 01 10  08 02 00 10 1C 80 00 09  .....#..........
07E0: 08 1D CD 80 23 1D CE 80  23 1D CF 80 23 1D D0 80  ....#...#...#...
07F0: 23 1D D1 80 23 1D D2 80  23 1D D3 80 23 03 01 10  #...#...#...#...
0800: D4 80 43 00 43 01 01 10  08 1D D5 80 23 06 02 00  ..C.C.......#...
0810: 02 02 00 00 80 00 1F 08  1D D6 80 23 01 39 00 2E  ...........#.9..
0820: 20 00 21 00                                        .!.            
```

#### Opcodes

```
  0: 0x0001 [0x20] SET_CLI_EVENT_UC_FLAG: Lock player control
  1: 0x0003 [0x42] SET_CLI_EVENT_CANCEL_DATA()
  2: 0x0004 [0x1E] EventEntity looks at LocalPlayer and starts talking
  3: 0x0009 [0x6F] WAIT_FRAME_DELAY: Yield until WaitTime reaches zero
  4: 0x000A [0x70] WAIT_ENTITY_RENDER_FLAG: Wait while EventEntity->Render.Flags3 bit 2 is set (cancel turn if not)
  5: 0x000B [0x03] Work_Zone[1] = 1*
  6: 0x0010 [0x43] SEND_EVENT_UPDATE: Send pending tag to server (packet 0x005B)
  7: 0x0012 [0x43] SEND_EVENT_UPDATE: Check pending flag (skip if not pending)
  8: 0x0014 [0x03] Work_Zone[1] = 403*
  9: 0x0019 [0x43] SEND_EVENT_UPDATE: Send pending tag to server (packet 0x005B)
 10: 0x001B [0x43] SEND_EVENT_UPDATE: Check pending flag (skip if not pending)
 11: 0x001D [0x02] IF !(Work_Zone[2] == 0*) GOTO 0x0035
 12: 0x0025 [0x1D] PRINT_EVENT_MESSAGE(message_id=13183*)
    → "Greetings, adventurer. My name is Ryo, apprentice to Master Sanraku. The master has instructed me to assist you in whatever way possible.\u007F1\u0000\u0007"
 13: 0x0028 [0x23] WAIT_FOR_DIALOG_INTERACTION
 14: 0x0029 [0x03] Work_Zone[1] = 400*
 15: 0x002E [0x43] SEND_EVENT_UPDATE: Send pending tag to server (packet 0x005B)
 16: 0x0030 [0x43] SEND_EVENT_UPDATE: Check pending flag (skip if not pending)
 17: 0x0032 [0x01] GOTO 0x0039
 18: 0x0035 [0x1D] PRINT_EVENT_MESSAGE(message_id=13184*)
    → "Good day, \u0008. How may I be of service?\u007F1\u0000\u0007"
 19: 0x0038 [0x23] WAIT_FOR_DIALOG_INTERACTION

SUBROUTINE_0039:
 20: 0x0039 [0x05] ExtData[1]->WorkLocal[2] = 1
 21: 0x003C [0x03] Work_Zone[1] = 404*
 22: 0x0041 [0x43] SEND_EVENT_UPDATE: Send pending tag to server (packet 0x005B)
 23: 0x0043 [0x43] SEND_EVENT_UPDATE: Check pending flag (skip if not pending)
 24: 0x0045 [0x24] CREATE_DIALOG(message_id=13185*, default_option=0*, option_flags=Work_Zone[2])
    → "What would you like to ask about?\u0007\u000BWhat's \u00072zeni\u00073?\u0007My zeni balance.\u0007Sanraku's subject of interest.\u0007Recommended fauna.\u0007The criteria for a good image.\u0007Far Eastern tally seals.\u0007Obtaining a soultrapper.\u0007Getting access to islets.\u0007Nothing.\u007F1\u0000\u0007"
 25: 0x004C [0x25] WAIT_DIALOG_SELECT()
 26: 0x004D [0x02] IF !(Work_Zone[0] == 0*) GOTO 0x006C
 27: 0x0055 [0x1D] PRINT_EVENT_MESSAGE(message_id=13187*)
    → "Ah yes, zeni... This may require some explaining. A keen eye and peerless attention to detail are attributes that made Master Sanraku the artistic genius that he is. The very same things, however, have also given him a somewhat calculating personality.\u007F1\u0000\u0007"
 28: 0x0058 [0x23] WAIT_FOR_DIALOG_INTERACTION
 29: 0x0059 [0x1D] PRINT_EVENT_MESSAGE(message_id=13188*)
    → "Take zeni, the Far Eastern currency, for example. This is Master Sanraku's way of keeping track of your contribution to his objectives.\u007F1\u0000\u0007"
 30: 0x005C [0x23] WAIT_FOR_DIALOG_INTERACTION
 31: 0x005D [0x1D] PRINT_EVENT_MESSAGE(message_id=13189*)
    → "Bringing him a soul plate image of fauna will earn you virtual zeni in your account. For your information, the account keeper is me.\u007F1\u0000\u0007"
 32: 0x0060 [0x23] WAIT_FOR_DIALOG_INTERACTION
 33: 0x0061 [0x1D] PRINT_EVENT_MESSAGE(message_id=13190*)
    → "On the other hand, Master Sanraku will deduct zeni from your account as a fee for providing information on fauna.\u007F1\u0000\u0007"
 34: 0x0064 [0x23] WAIT_FOR_DIALOG_INTERACTION
 35: 0x0065 [0x1D] PRINT_EVENT_MESSAGE(message_id=13191*)
    → "While I do not entirely agree to Master's cumbersome methodology, as a mere apprentice it is not my place to make comments.\u007F1\u0000\u0007"
 36: 0x0068 [0x23] WAIT_FOR_DIALOG_INTERACTION
 37: 0x0069 [0x01] GOTO 0x0810
 38: 0x006C [0x02] IF !(Work_Zone[0] == 1*) GOTO 0x0084
 39: 0x0074 [0x03] Work_Zone[1] = 300*
 40: 0x0079 [0x43] SEND_EVENT_UPDATE: Send pending tag to server (packet 0x005B)
 41: 0x007B [0x43] SEND_EVENT_UPDATE: Check pending flag (skip if not pending)
 42: 0x007D [0x1D] PRINT_EVENT_MESSAGE(message_id=13186*)
    → "You currently have 
\u0000 zeni in your account.\u007F1\u0000\u0007"
 43: 0x0080 [0x23] WAIT_FOR_DIALOG_INTERACTION
 44: 0x0081 [0x01] GOTO 0x0810
 45: 0x0084 [0x02] IF !(Work_Zone[0] == 2*) GOTO 0x043A
 46: 0x008C [0x03] Work_Zone[1] = 200*
 47: 0x0091 [0x43] SEND_EVENT_UPDATE: Send pending tag to server (packet 0x005B)
 48: 0x0093 [0x43] SEND_EVENT_UPDATE: Check pending flag (skip if not pending)
 49: 0x0095 [0x02] IF !(Work_Zone[2] == 0*) GOTO 0x00A4
 50: 0x009D [0x1D] PRINT_EVENT_MESSAGE(message_id=13214*)
    → "From my recent conversations with Master Sanraku, I would have to say that his current infatuation is with aquans, in particular those belonging to the crab family.\u007F1\u0000\u0007"
 51: 0x00A0 [0x23] WAIT_FOR_DIALOG_INTERACTION
 52: 0x00A1 [0x01] GOTO 0x0437
 53: 0x00A4 [0x02] IF !(Work_Zone[2] == 1*) GOTO 0x00B3
 54: 0x00AC [0x1D] PRINT_EVENT_MESSAGE(message_id=13215*)
    → "From my recent conversations with Master Sanraku, I would have to say that his current infatuation is with aquans, in particular those belonging to the pugil family.\u007F1\u0000\u0007"
 55: 0x00AF [0x23] WAIT_FOR_DIALOG_INTERACTION
 56: 0x00B0 [0x01] GOTO 0x0437
 57: 0x00B3 [0x02] IF !(Work_Zone[2] == 2*) GOTO 0x00C2
 58: 0x00BB [0x1D] PRINT_EVENT_MESSAGE(message_id=13216*)
    → "From my recent conversations with Master Sanraku, I would have to say that his current infatuation is with aquans, in particular those belonging to the sea monk family.\u007F1\u0000\u0007"
 59: 0x00BE [0x23] WAIT_FOR_DIALOG_INTERACTION
 60: 0x00BF [0x01] GOTO 0x0437
 61: 0x00C2 [0x02] IF !(Work_Zone[2] == 3*) GOTO 0x00D1
 62: 0x00CA [0x1D] PRINT_EVENT_MESSAGE(message_id=13217*)
    → "From my recent conversations with Master Sanraku, I would have to say that his current infatuation is with aquans, in particular those belonging to the orobon family.\u007F1\u0000\u0007"
 63: 0x00CD [0x23] WAIT_FOR_DIALOG_INTERACTION
 64: 0x00CE [0x01] GOTO 0x0437
 65: 0x00D1 [0x02] IF !(Work_Zone[2] == 4*) GOTO 0x00E0
 66: 0x00D9 [0x1D] PRINT_EVENT_MESSAGE(message_id=13218*)
    → "From my recent conversations with Master Sanraku, I would have to say that his current infatuation is with amorphs, in particular those belonging to the worm family.\u007F1\u0000\u0007"
 67: 0x00DC [0x23] WAIT_FOR_DIALOG_INTERACTION
 68: 0x00DD [0x01] GOTO 0x0437
 69: 0x00E0 [0x02] IF !(Work_Zone[2] == 5*) GOTO 0x00EF
 70: 0x00E8 [0x1D] PRINT_EVENT_MESSAGE(message_id=13219*)
    → "From my recent conversations with Master Sanraku, I would have to say that his current infatuation is with amorphs, in particular those belonging to the leech family.\u007F1\u0000\u0007"
 71: 0x00EB [0x23] WAIT_FOR_DIALOG_INTERACTION
 72: 0x00EC [0x01] GOTO 0x0437
 73: 0x00EF [0x02] IF !(Work_Zone[2] == 6*) GOTO 0x00FE
 74: 0x00F7 [0x1D] PRINT_EVENT_MESSAGE(message_id=13220*)
    → "From my recent conversations with Master Sanraku, I would have to say that his current infatuation is with amorphs, in particular those belonging to the slime family.\u007F1\u0000\u0007"
 75: 0x00FA [0x23] WAIT_FOR_DIALOG_INTERACTION
 76: 0x00FB [0x01] GOTO 0x0437
 77: 0x00FE [0x02] IF !(Work_Zone[2] == 7*) GOTO 0x010D
 78: 0x0106 [0x1D] PRINT_EVENT_MESSAGE(message_id=13221*)
    → "From my recent conversations with Master Sanraku, I would have to say that his current infatuation is with amorphs, in particular those belonging to the flan family.\u007F1\u0000\u0007"
 79: 0x0109 [0x23] WAIT_FOR_DIALOG_INTERACTION
 80: 0x010A [0x01] GOTO 0x0437
 81: 0x010D [0x02] IF !(Work_Zone[2] == 8*) GOTO 0x011C
 82: 0x0115 [0x1D] PRINT_EVENT_MESSAGE(message_id=13222*)
    → "From my recent conversations with Master Sanraku, I would have to say that his current infatuation is with arcanas, in particular those belonging to the bomb family.\u007F1\u0000\u0007"
 83: 0x0118 [0x23] WAIT_FOR_DIALOG_INTERACTION
 84: 0x0119 [0x01] GOTO 0x0437
 85: 0x011C [0x02] IF !(Work_Zone[2] == 9*) GOTO 0x012B
 86: 0x0124 [0x1D] PRINT_EVENT_MESSAGE(message_id=13223*)
    → "From my recent conversations with Master Sanraku, I would have to say that his current infatuation is with arcanas, in particular those belonging to the cluster bomb family.\u007F1\u0000\u0007"
 87: 0x0127 [0x23] WAIT_FOR_DIALOG_INTERACTION
 88: 0x0128 [0x01] GOTO 0x0437
 89: 0x012B [0x02] IF !(Work_Zone[2] == 10*) GOTO 0x013A
 90: 0x0133 [0x1D] PRINT_EVENT_MESSAGE(message_id=13224*)
    → "From my recent conversations with Master Sanraku, I would have to say that his current infatuation is with undeads, in particular those belonging to the ghost family.\u007F1\u0000\u0007"
 91: 0x0136 [0x23] WAIT_FOR_DIALOG_INTERACTION
 92: 0x0137 [0x01] GOTO 0x0437
 93: 0x013A [0x02] IF !(Work_Zone[2] == 11*) GOTO 0x0149
 94: 0x0142 [0x1D] PRINT_EVENT_MESSAGE(message_id=13225*)
    → "From my recent conversations with Master Sanraku, I would have to say that his current infatuation is with undeads, in particular those belonging to the skeleton family.\u007F1\u0000\u0007"
 95: 0x0145 [0x23] WAIT_FOR_DIALOG_INTERACTION
 96: 0x0146 [0x01] GOTO 0x0437
 97: 0x0149 [0x02] IF !(Work_Zone[2] == 12*) GOTO 0x0158
 98: 0x0151 [0x1D] PRINT_EVENT_MESSAGE(message_id=13226*)
    → "From my recent conversations with Master Sanraku, I would have to say that his current infatuation is with undeads, in particular those belonging to the doomed family.\u007F1\u0000\u0007"
 99: 0x0154 [0x23] WAIT_FOR_DIALOG_INTERACTION
100: 0x0155 [0x01] GOTO 0x0437
101: 0x0158 [0x02] IF !(Work_Zone[2] == 13*) GOTO 0x0167
102: 0x0160 [0x1D] PRINT_EVENT_MESSAGE(message_id=13227*)
    → "From my recent conversations with Master Sanraku, I would have to say that his current infatuation is with vermins, in particular those belonging to the chigoe family.\u007F1\u0000\u0007"
103: 0x0163 [0x23] WAIT_FOR_DIALOG_INTERACTION
104: 0x0164 [0x01] GOTO 0x0437
105: 0x0167 [0x02] IF !(Work_Zone[2] == 14*) GOTO 0x0176
106: 0x016F [0x1D] PRINT_EVENT_MESSAGE(message_id=13228*)
    → "From my recent conversations with Master Sanraku, I would have to say that his current infatuation is with vermins, in particular those belonging to the spider family.\u007F1\u0000\u0007"
107: 0x0172 [0x23] WAIT_FOR_DIALOG_INTERACTION
108: 0x0173 [0x01] GOTO 0x0437
109: 0x0176 [0x02] IF !(Work_Zone[2] == 15*) GOTO 0x0185
110: 0x017E [0x1D] PRINT_EVENT_MESSAGE(message_id=13229*)
    → "From my recent conversations with Master Sanraku, I would have to say that his current infatuation is with vermins, in particular those belonging to the bee family.\u007F1\u0000\u0007"
111: 0x0181 [0x23] WAIT_FOR_DIALOG_INTERACTION
112: 0x0182 [0x01] GOTO 0x0437
113: 0x0185 [0x02] IF !(Work_Zone[2] == 16*) GOTO 0x0194
114: 0x018D [0x1D] PRINT_EVENT_MESSAGE(message_id=13230*)
    → "From my recent conversations with Master Sanraku, I would have to say that his current infatuation is with vermins, in particular those belonging to the crawler family.\u007F1\u0000\u0007"
115: 0x0190 [0x23] WAIT_FOR_DIALOG_INTERACTION
116: 0x0191 [0x01] GOTO 0x0437
117: 0x0194 [0x02] IF !(Work_Zone[2] == 17*) GOTO 0x01A3
118: 0x019C [0x1D] PRINT_EVENT_MESSAGE(message_id=13231*)
    → "From my recent conversations with Master Sanraku, I would have to say that his current infatuation is with vermins, in particular those belonging to the wamoura larvae family.\u007F1\u0000\u0007"
119: 0x019F [0x23] WAIT_FOR_DIALOG_INTERACTION
120: 0x01A0 [0x01] GOTO 0x0437
121: 0x01A3 [0x02] IF !(Work_Zone[2] == 18*) GOTO 0x01B2
122: 0x01AB [0x1D] PRINT_EVENT_MESSAGE(message_id=13232*)
    → "From my recent conversations with Master Sanraku, I would have to say that his current infatuation is with vermins, in particular those belonging to the fly family.\u007F1\u0000\u0007"
123: 0x01AE [0x23] WAIT_FOR_DIALOG_INTERACTION
124: 0x01AF [0x01] GOTO 0x0437
125: 0x01B2 [0x02] IF !(Work_Zone[2] == 19*) GOTO 0x01C1
126: 0x01BA [0x1D] PRINT_EVENT_MESSAGE(message_id=13233*)
    → "From my recent conversations with Master Sanraku, I would have to say that his current infatuation is with vermins, in particular those belonging to the diremite family.\u007F1\u0000\u0007"
127: 0x01BD [0x23] WAIT_FOR_DIALOG_INTERACTION
128: 0x01BE [0x01] GOTO 0x0437
129: 0x01C1 [0x02] IF !(Work_Zone[2] == 20*) GOTO 0x01D0
130: 0x01C9 [0x1D] PRINT_EVENT_MESSAGE(message_id=13234*)
    → "From my recent conversations with Master Sanraku, I would have to say that his current infatuation is with vermins, in particular those belonging to the scorpion family.\u007F1\u0000\u0007"
131: 0x01CC [0x23] WAIT_FOR_DIALOG_INTERACTION
132: 0x01CD [0x01] GOTO 0x0437
133: 0x01D0 [0x02] IF !(Work_Zone[2] == 21*) GOTO 0x01DF
134: 0x01D8 [0x1D] PRINT_EVENT_MESSAGE(message_id=13235*)
    → "From my recent conversations with Master Sanraku, I would have to say that his current infatuation is with vermins, in particular those belonging to the wamoura family.\u007F1\u0000\u0007"
135: 0x01DB [0x23] WAIT_FOR_DIALOG_INTERACTION
136: 0x01DC [0x01] GOTO 0x0437
137: 0x01DF [0x02] IF !(Work_Zone[2] == 22*) GOTO 0x01EE
138: 0x01E7 [0x1D] PRINT_EVENT_MESSAGE(message_id=13236*)
    → "From my recent conversations with Master Sanraku, I would have to say that his current infatuation is with demons, in particular those belonging to the imp family.\u007F1\u0000\u0007"
139: 0x01EA [0x23] WAIT_FOR_DIALOG_INTERACTION
140: 0x01EB [0x01] GOTO 0x0437
141: 0x01EE [0x02] IF !(Work_Zone[2] == 23*) GOTO 0x01FD
142: 0x01F6 [0x1D] PRINT_EVENT_MESSAGE(message_id=13237*)
    → "From my recent conversations with Master Sanraku, I would have to say that his current infatuation is with dragons, in particular those belonging to the puk family.\u007F1\u0000\u0007"
143: 0x01F9 [0x23] WAIT_FOR_DIALOG_INTERACTION
144: 0x01FA [0x01] GOTO 0x0437
145: 0x01FD [0x02] IF !(Work_Zone[2] == 24*) GOTO 0x020C
146: 0x0205 [0x1D] PRINT_EVENT_MESSAGE(message_id=13238*)
    → "From my recent conversations with Master Sanraku, I would have to say that his current infatuation is with dragons, in particular those belonging to the wyvern family.\u007F1\u0000\u0007"
147: 0x0208 [0x23] WAIT_FOR_DIALOG_INTERACTION
148: 0x0209 [0x01] GOTO 0x0437
149: 0x020C [0x02] IF !(Work_Zone[2] == 25*) GOTO 0x021B
150: 0x0214 [0x1D] PRINT_EVENT_MESSAGE(message_id=13239*)
    → "From my recent conversations with Master Sanraku, I would have to say that his current infatuation is with dragons, in particular those belonging to the dragon family.\u007F1\u0000\u0007"
151: 0x0217 [0x23] WAIT_FOR_DIALOG_INTERACTION
152: 0x0218 [0x01] GOTO 0x0437
153: 0x021B [0x02] IF !(Work_Zone[2] == 26*) GOTO 0x022A
154: 0x0223 [0x1D] PRINT_EVENT_MESSAGE(message_id=13240*)
    → "From my recent conversations with Master Sanraku, I would have to say that his current infatuation is with birds, in particular those belonging to the bat family.\u007F1\u0000\u0007"
155: 0x0226 [0x23] WAIT_FOR_DIALOG_INTERACTION
156: 0x0227 [0x01] GOTO 0x0437
157: 0x022A [0x02] IF !(Work_Zone[2] == 27*) GOTO 0x0239
158: 0x0232 [0x1D] PRINT_EVENT_MESSAGE(message_id=13241*)
    → "From my recent conversations with Master Sanraku, I would have to say that his current infatuation is with birds, in particular those belonging to the flock bat family.\u007F1\u0000\u0007"
159: 0x0235 [0x23] WAIT_FOR_DIALOG_INTERACTION
160: 0x0236 [0x01] GOTO 0x0437
161: 0x0239 [0x02] IF !(Work_Zone[2] == 28*) GOTO 0x0248
162: 0x0241 [0x1D] PRINT_EVENT_MESSAGE(message_id=13242*)
    → "From my recent conversations with Master Sanraku, I would have to say that his current infatuation is with birds, in particular those belonging to the colibri family.\u007F1\u0000\u0007"
163: 0x0244 [0x23] WAIT_FOR_DIALOG_INTERACTION
164: 0x0245 [0x01] GOTO 0x0437
165: 0x0248 [0x02] IF !(Work_Zone[2] == 29*) GOTO 0x0257
166: 0x0250 [0x1D] PRINT_EVENT_MESSAGE(message_id=13243*)
    → "From my recent conversations with Master Sanraku, I would have to say that his current infatuation is with birds, in particular those belonging to the bird family.\u007F1\u0000\u0007"
167: 0x0253 [0x23] WAIT_FOR_DIALOG_INTERACTION
168: 0x0254 [0x01] GOTO 0x0437
169: 0x0257 [0x02] IF !(Work_Zone[2] == 30*) GOTO 0x0266
170: 0x025F [0x1D] PRINT_EVENT_MESSAGE(message_id=13244*)
    → "From my recent conversations with Master Sanraku, I would have to say that his current infatuation is with birds, in particular those belonging to the apkallu family.\u007F1\u0000\u0007"
171: 0x0262 [0x23] WAIT_FOR_DIALOG_INTERACTION
172: 0x0263 [0x01] GOTO 0x0437
173: 0x0266 [0x02] IF !(Work_Zone[2] == 31*) GOTO 0x0275
174: 0x026E [0x1D] PRINT_EVENT_MESSAGE(message_id=13245*)
    → "From my recent conversations with Master Sanraku, I would have to say that his current infatuation is with birds, in particular those belonging to the cockatrice family.\u007F1\u0000\u0007"
175: 0x0271 [0x23] WAIT_FOR_DIALOG_INTERACTION
176: 0x0272 [0x01] GOTO 0x0437
177: 0x0275 [0x02] IF !(Work_Zone[2] == 32*) GOTO 0x0284
178: 0x027D [0x1D] PRINT_EVENT_MESSAGE(message_id=13246*)
    → "From my recent conversations with Master Sanraku, I would have to say that his current infatuation is with beasts, in particular those belonging to the sheep family.\u007F1\u0000\u0007"
179: 0x0280 [0x23] WAIT_FOR_DIALOG_INTERACTION
180: 0x0281 [0x01] GOTO 0x0437
181: 0x0284 [0x02] IF !(Work_Zone[2] == 33*) GOTO 0x0293
182: 0x028C [0x1D] PRINT_EVENT_MESSAGE(message_id=13247*)
    → "From my recent conversations with Master Sanraku, I would have to say that his current infatuation is with beasts, in particular those belonging to the tiger family.\u007F1\u0000\u0007"
183: 0x028F [0x23] WAIT_FOR_DIALOG_INTERACTION
184: 0x0290 [0x01] GOTO 0x0437
185: 0x0293 [0x02] IF !(Work_Zone[2] == 34*) GOTO 0x02A2
186: 0x029B [0x1D] PRINT_EVENT_MESSAGE(message_id=13248*)
    → "From my recent conversations with Master Sanraku, I would have to say that his current infatuation is with beasts, in particular those belonging to the marid family.\u007F1\u0000\u0007"
187: 0x029E [0x23] WAIT_FOR_DIALOG_INTERACTION
188: 0x029F [0x01] GOTO 0x0437
189: 0x02A2 [0x02] IF !(Work_Zone[2] == 35*) GOTO 0x02B1
190: 0x02AA [0x1D] PRINT_EVENT_MESSAGE(message_id=13249*)
    → "From my recent conversations with Master Sanraku, I would have to say that his current infatuation is with beasts, in particular those belonging to the ram family.\u007F1\u0000\u0007"
191: 0x02AD [0x23] WAIT_FOR_DIALOG_INTERACTION
192: 0x02AE [0x01] GOTO 0x0437
193: 0x02B1 [0x02] IF !(Work_Zone[2] == 36*) GOTO 0x02C0
194: 0x02B9 [0x1D] PRINT_EVENT_MESSAGE(message_id=13250*)
    → "From my recent conversations with Master Sanraku, I would have to say that his current infatuation is with plantoids, in particular those belonging to the sapling family.\u007F1\u0000\u0007"
195: 0x02BC [0x23] WAIT_FOR_DIALOG_INTERACTION
196: 0x02BD [0x01] GOTO 0x0437
197: 0x02C0 [0x02] IF !(Work_Zone[2] == 37*) GOTO 0x02CF
198: 0x02C8 [0x1D] PRINT_EVENT_MESSAGE(message_id=13251*)
    → "From my recent conversations with Master Sanraku, I would have to say that his current infatuation is with plantoids, in particular those belonging to the flytrap family.\u007F1\u0000\u0007"
199: 0x02CB [0x23] WAIT_FOR_DIALOG_INTERACTION
200: 0x02CC [0x01] GOTO 0x0437
201: 0x02CF [0x02] IF !(Work_Zone[2] == 38*) GOTO 0x02DE
202: 0x02D7 [0x1D] PRINT_EVENT_MESSAGE(message_id=13252*)
    → "From my recent conversations with Master Sanraku, I would have to say that his current infatuation is with plantoids, in particular those belonging to the funguar family.\u007F1\u0000\u0007"
203: 0x02DA [0x23] WAIT_FOR_DIALOG_INTERACTION
204: 0x02DB [0x01] GOTO 0x0437
205: 0x02DE [0x02] IF !(Work_Zone[2] == 39*) GOTO 0x02ED
206: 0x02E6 [0x1D] PRINT_EVENT_MESSAGE(message_id=13253*)
    → "From my recent conversations with Master Sanraku, I would have to say that his current infatuation is with plantoids, in particular those belonging to the treant family.\u007F1\u0000\u0007"
207: 0x02E9 [0x23] WAIT_FOR_DIALOG_INTERACTION
208: 0x02EA [0x01] GOTO 0x0437
209: 0x02ED [0x02] IF !(Work_Zone[2] == 40*) GOTO 0x02FC
210: 0x02F5 [0x1D] PRINT_EVENT_MESSAGE(message_id=13254*)
    → "From my recent conversations with Master Sanraku, I would have to say that his current infatuation is with plantoids, in particular those belonging to the morbol family.\u007F1\u0000\u0007"
211: 0x02F8 [0x23] WAIT_FOR_DIALOG_INTERACTION
212: 0x02F9 [0x01] GOTO 0x0437
213: 0x02FC [0x02] IF !(Work_Zone[2] == 41*) GOTO 0x030B
214: 0x0304 [0x1D] PRINT_EVENT_MESSAGE(message_id=13255*)
    → "From my recent conversations with Master Sanraku, I would have to say that his current infatuation is with lizards, in particular those belonging to the lizard family.\u007F1\u0000\u0007"
215: 0x0307 [0x23] WAIT_FOR_DIALOG_INTERACTION
216: 0x0308 [0x01] GOTO 0x0437
217: 0x030B [0x02] IF !(Work_Zone[2] == 42*) GOTO 0x031A
218: 0x0313 [0x1D] PRINT_EVENT_MESSAGE(message_id=13256*)
    → "From my recent conversations with Master Sanraku, I would have to say that his current infatuation is with lizards, in particular those belonging to the raptor family.\u007F1\u0000\u0007"
219: 0x0316 [0x23] WAIT_FOR_DIALOG_INTERACTION
220: 0x0317 [0x01] GOTO 0x0437
221: 0x031A [0x02] IF !(Work_Zone[2] == 43*) GOTO 0x0329
222: 0x0322 [0x1D] PRINT_EVENT_MESSAGE(message_id=13257*)
    → "From my recent conversations with Master Sanraku, I would have to say that his current infatuation is with lizards, in particular those belonging to the bugard family.\u007F1\u0000\u0007"
223: 0x0325 [0x23] WAIT_FOR_DIALOG_INTERACTION
224: 0x0326 [0x01] GOTO 0x0437
225: 0x0329 [0x02] IF !(Work_Zone[2] == 44*) GOTO 0x0338
226: 0x0331 [0x1D] PRINT_EVENT_MESSAGE(message_id=13258*)
    → "From my recent conversations with Master Sanraku, I would have to say that his current infatuation is with lizards, in particular those belonging to the wivre family.\u007F1\u0000\u0007"
227: 0x0334 [0x23] WAIT_FOR_DIALOG_INTERACTION
228: 0x0335 [0x01] GOTO 0x0437
229: 0x0338 [0x02] IF !(Work_Zone[2] == 45*) GOTO 0x0347
230: 0x0340 [0x1D] PRINT_EVENT_MESSAGE(message_id=13259*)
    → "From my recent conversations with Master Sanraku, I would have to say that his current infatuation is with elementals, in particular those belonging to the fire elemental family.\u007F1\u0000\u0007"
231: 0x0343 [0x23] WAIT_FOR_DIALOG_INTERACTION
232: 0x0344 [0x01] GOTO 0x0437
233: 0x0347 [0x02] IF !(Work_Zone[2] == 46*) GOTO 0x0356
234: 0x034F [0x1D] PRINT_EVENT_MESSAGE(message_id=13260*)
    → "From my recent conversations with Master Sanraku, I would have to say that his current infatuation is with elementals, in particular those belonging to the ice elemental family.\u007F1\u0000\u0007"
235: 0x0352 [0x23] WAIT_FOR_DIALOG_INTERACTION
236: 0x0353 [0x01] GOTO 0x0437
237: 0x0356 [0x02] IF !(Work_Zone[2] == 47*) GOTO 0x0365
238: 0x035E [0x1D] PRINT_EVENT_MESSAGE(message_id=13261*)
    → "From my recent conversations with Master Sanraku, I would have to say that his current infatuation is with elementals, in particular those belonging to the wind elemental family.\u007F1\u0000\u0007"
239: 0x0361 [0x23] WAIT_FOR_DIALOG_INTERACTION
240: 0x0362 [0x01] GOTO 0x0437
241: 0x0365 [0x02] IF !(Work_Zone[2] == 48*) GOTO 0x0374
242: 0x036D [0x1D] PRINT_EVENT_MESSAGE(message_id=13262*)
    → "From my recent conversations with Master Sanraku, I would have to say that his current infatuation is with elementals, in particular those belonging to the earth elemental family.\u007F1\u0000\u0007"
243: 0x0370 [0x23] WAIT_FOR_DIALOG_INTERACTION
244: 0x0371 [0x01] GOTO 0x0437
245: 0x0374 [0x02] IF !(Work_Zone[2] == 49*) GOTO 0x0383
246: 0x037C [0x1D] PRINT_EVENT_MESSAGE(message_id=13263*)
    → "From my recent conversations with Master Sanraku, I would have to say that his current infatuation is with elementals, in particular those belonging to the thunder elemental family.\u007F1\u0000\u0007"
247: 0x037F [0x23] WAIT_FOR_DIALOG_INTERACTION
248: 0x0380 [0x01] GOTO 0x0437
249: 0x0383 [0x02] IF !(Work_Zone[2] == 50*) GOTO 0x0392
250: 0x038B [0x1D] PRINT_EVENT_MESSAGE(message_id=13264*)
    → "From my recent conversations with Master Sanraku, I would have to say that his current infatuation is with elementals, in particular those belonging to the water elemental family.\u007F1\u0000\u0007"
251: 0x038E [0x23] WAIT_FOR_DIALOG_INTERACTION
252: 0x038F [0x01] GOTO 0x0437
253: 0x0392 [0x02] IF !(Work_Zone[2] == 51*) GOTO 0x03A1
254: 0x039A [0x1D] PRINT_EVENT_MESSAGE(message_id=13265*)
    → "From my recent conversations with Master Sanraku, I would have to say that his current infatuation is with elementals, in particular those belonging to the dark elemental family.\u007F1\u0000\u0007"
255: 0x039D [0x23] WAIT_FOR_DIALOG_INTERACTION
256: 0x039E [0x01] GOTO 0x0437
257: 0x03A1 [0x02] IF !(Work_Zone[2] == 52*) GOTO 0x03B0
258: 0x03A9 [0x1D] PRINT_EVENT_MESSAGE(message_id=13266*)
    → "From my recent conversations with Master Sanraku, I would have to say that his current infatuation is with beastmen, in particular those belonging to the Moblin family.\u007F1\u0000\u0007"
259: 0x03AC [0x23] WAIT_FOR_DIALOG_INTERACTION
260: 0x03AD [0x01] GOTO 0x0437
261: 0x03B0 [0x02] IF !(Work_Zone[2] == 53*) GOTO 0x03BF
262: 0x03B8 [0x1D] PRINT_EVENT_MESSAGE(message_id=13267*)
    → "From my recent conversations with Master Sanraku, I would have to say that his current infatuation is with beastmen, in particular those belonging to the Poroggo family.\u007F1\u0000\u0007"
263: 0x03BB [0x23] WAIT_FOR_DIALOG_INTERACTION
264: 0x03BC [0x01] GOTO 0x0437
265: 0x03BF [0x02] IF !(Work_Zone[2] == 54*) GOTO 0x03CE
266: 0x03C7 [0x1D] PRINT_EVENT_MESSAGE(message_id=13268*)
    → "From my recent conversations with Master Sanraku, I would have to say that his current infatuation is with beastmen, in particular those belonging to the Sahagin family.\u007F1\u0000\u0007"
267: 0x03CA [0x23] WAIT_FOR_DIALOG_INTERACTION
268: 0x03CB [0x01] GOTO 0x0437
269: 0x03CE [0x02] IF !(Work_Zone[2] == 55*) GOTO 0x03DD
270: 0x03D6 [0x1D] PRINT_EVENT_MESSAGE(message_id=13269*)
    → "From my recent conversations with Master Sanraku, I would have to say that his current infatuation is with beastmen, in particular those belonging to the Mamool Ja family.\u007F1\u0000\u0007"
271: 0x03D9 [0x23] WAIT_FOR_DIALOG_INTERACTION
272: 0x03DA [0x01] GOTO 0x0437
273: 0x03DD [0x02] IF !(Work_Zone[2] == 56*) GOTO 0x03EC
274: 0x03E5 [0x1D] PRINT_EVENT_MESSAGE(message_id=13270*)
    → "From my recent conversations with Master Sanraku, I would have to say that his current infatuation is with beastmen, in particular those belonging to the Lamia family.\u007F1\u0000\u0007"
275: 0x03E8 [0x23] WAIT_FOR_DIALOG_INTERACTION
276: 0x03E9 [0x01] GOTO 0x0437
277: 0x03EC [0x02] IF !(Work_Zone[2] == 57*) GOTO 0x03FB
278: 0x03F4 [0x1D] PRINT_EVENT_MESSAGE(message_id=13271*)
    → "From my recent conversations with Master Sanraku, I would have to say that his current infatuation is with beastmen, in particular those belonging to the Merrow family.\u007F1\u0000\u0007"
279: 0x03F7 [0x23] WAIT_FOR_DIALOG_INTERACTION
280: 0x03F8 [0x01] GOTO 0x0437
281: 0x03FB [0x02] IF !(Work_Zone[2] == 58*) GOTO 0x040A
282: 0x0403 [0x1D] PRINT_EVENT_MESSAGE(message_id=13272*)
    → "From my recent conversations with Master Sanraku, I would have to say that his current infatuation is with beastmen, in particular those belonging to the Qiqirn family.\u007F1\u0000\u0007"
283: 0x0406 [0x23] WAIT_FOR_DIALOG_INTERACTION
284: 0x0407 [0x01] GOTO 0x0437
285: 0x040A [0x02] IF !(Work_Zone[2] == 59*) GOTO 0x0419
286: 0x0412 [0x1D] PRINT_EVENT_MESSAGE(message_id=13273*)
    → "From my recent conversations with Master Sanraku, I would have to say that his current infatuation is with beastmen, in particular those belonging to the Troll family.\u007F1\u0000\u0007"
287: 0x0415 [0x23] WAIT_FOR_DIALOG_INTERACTION
288: 0x0416 [0x01] GOTO 0x0437
289: 0x0419 [0x02] IF !(Work_Zone[2] == 60*) GOTO 0x0428
290: 0x0421 [0x1D] PRINT_EVENT_MESSAGE(message_id=13275*)
    → "From my recent conversations with Master Sanraku, I would have to say that his current infatuation is with undeads, in particular those belonging to the Qutrub family.\u007F1\u0000\u0007"
291: 0x0424 [0x23] WAIT_FOR_DIALOG_INTERACTION
292: 0x0425 [0x01] GOTO 0x0437
293: 0x0428 [0x02] IF !(Work_Zone[2] == 61*) GOTO 0x0437
294: 0x0430 [0x1D] PRINT_EVENT_MESSAGE(message_id=13276*)
    → "From my recent conversations with Master Sanraku, I would have to say that his current infatuation is with demons, in particular those belonging to the soulflayer family.\u007F1\u0000\u0007"
295: 0x0433 [0x23] WAIT_FOR_DIALOG_INTERACTION
296: 0x0434 [0x01] GOTO 0x0437

SUBROUTINE_0437:
297: 0x0437 [0x01] GOTO 0x0810
298: 0x043A [0x02] IF !(Work_Zone[0] == 3*) GOTO 0x0787
299: 0x0442 [0x03] Work_Zone[1] = 201*
300: 0x0447 [0x43] SEND_EVENT_UPDATE: Send pending tag to server (packet 0x005B)
301: 0x0449 [0x43] SEND_EVENT_UPDATE: Check pending flag (skip if not pending)
302: 0x044B [0x02] IF !(Work_Zone[2] == 0*) GOTO 0x045A
303: 0x0453 [0x1D] PRINT_EVENT_MESSAGE(message_id=13277*)
    → "Master Sanraku was mentioning how he would one day like to try his hand at painting a khimaira that dwells in Caederva Mire.\u007F1\u0000\u0007"
304: 0x0456 [0x23] WAIT_FOR_DIALOG_INTERACTION
305: 0x0457 [0x01] GOTO 0x0784
306: 0x045A [0x02] IF !(Work_Zone[2] == 1*) GOTO 0x0469
307: 0x0462 [0x1D] PRINT_EVENT_MESSAGE(message_id=13278*)
    → "Master Sanraku was mentioning how he would one day like to try his hand at painting a cerberus that dwells in Mount Zhayolm.\u007F1\u0000\u0007"
308: 0x0465 [0x23] WAIT_FOR_DIALOG_INTERACTION
309: 0x0466 [0x01] GOTO 0x0784
310: 0x0469 [0x02] IF !(Work_Zone[2] == 2*) GOTO 0x0478
311: 0x0471 [0x1D] PRINT_EVENT_MESSAGE(message_id=13279*)
    → "Master Sanraku was mentioning how he would one day like to try his hand at painting a hydra that dwells in the Wajaom Woodlands.\u007F1\u0000\u0007"
312: 0x0474 [0x23] WAIT_FOR_DIALOG_INTERACTION
313: 0x0475 [0x01] GOTO 0x0784
314: 0x0478 [0x02] IF !(Work_Zone[2] == 3*) GOTO 0x0487
315: 0x0480 [0x1D] PRINT_EVENT_MESSAGE(message_id=13280*)
    → "Master Sanraku was mentioning how he would one day like to try his hand at painting a mimic that dwells in the Ilrusi Atoll.\u007F1\u0000\u0007"
316: 0x0483 [0x23] WAIT_FOR_DIALOG_INTERACTION
317: 0x0484 [0x01] GOTO 0x0784
318: 0x0487 [0x02] IF !(Work_Zone[2] == 4*) GOTO 0x0496
319: 0x048F [0x1D] PRINT_EVENT_MESSAGE(message_id=13281*)
    → "Master Sanraku was mentioning how he would one day like to try his hand at painting an imp that dwells in the Ilrusi Atoll.\u007F1\u0000\u0007"
320: 0x0492 [0x23] WAIT_FOR_DIALOG_INTERACTION
321: 0x0493 [0x01] GOTO 0x0784
322: 0x0496 [0x02] IF !(Work_Zone[2] == 5*) GOTO 0x04A5
323: 0x049E [0x1D] PRINT_EVENT_MESSAGE(message_id=13282*)
    → "Master Sanraku was mentioning how he would one day like to try his hand at painting an orobon that dwells in the Ilrusi Atoll.\u007F1\u0000\u0007"
324: 0x04A1 [0x23] WAIT_FOR_DIALOG_INTERACTION
325: 0x04A2 [0x01] GOTO 0x0784
326: 0x04A5 [0x02] IF !(Work_Zone[2] == 6*) GOTO 0x04B4
327: 0x04AD [0x1D] PRINT_EVENT_MESSAGE(message_id=13283*)
    → "Master Sanraku was mentioning how he would one day like to try his hand at painting a khimaira that dwells in the Ilrusi Atoll.\u007F1\u0000\u0007"
328: 0x04B0 [0x23] WAIT_FOR_DIALOG_INTERACTION
329: 0x04B1 [0x01] GOTO 0x0784
330: 0x04B4 [0x02] IF !(Work_Zone[2] == 7*) GOTO 0x04C3
331: 0x04BC [0x1D] PRINT_EVENT_MESSAGE(message_id=13284*)
    → "Master Sanraku was mentioning how he would one day like to try his hand at painting a Moblin that dwells in the Ilrusi Atoll.\u007F1\u0000\u0007"
332: 0x04BF [0x23] WAIT_FOR_DIALOG_INTERACTION
333: 0x04C0 [0x01] GOTO 0x0784
334: 0x04C3 [0x02] IF !(Work_Zone[2] == 8*) GOTO 0x04D2
335: 0x04CB [0x1D] PRINT_EVENT_MESSAGE(message_id=13285*)
    → "Master Sanraku was mentioning how he would one day like to try his hand at painting a crab that dwells in Periqia.\u007F1\u0000\u0007"
336: 0x04CE [0x23] WAIT_FOR_DIALOG_INTERACTION
337: 0x04CF [0x01] GOTO 0x0784
338: 0x04D2 [0x02] IF !(Work_Zone[2] == 9*) GOTO 0x04E1
339: 0x04DA [0x1D] PRINT_EVENT_MESSAGE(message_id=13286*)
    → "Master Sanraku was mentioning how he would one day like to try his hand at painting a ghost that dwells in Periqia.\u007F1\u0000\u0007"
340: 0x04DD [0x23] WAIT_FOR_DIALOG_INTERACTION
341: 0x04DE [0x01] GOTO 0x0784
342: 0x04E1 [0x02] IF !(Work_Zone[2] == 10*) GOTO 0x04F0
343: 0x04E9 [0x1D] PRINT_EVENT_MESSAGE(message_id=13287*)
    → "Master Sanraku was mentioning how he would one day like to try his hand at painting an imp that dwells in Periqia.\u007F1\u0000\u0007"
344: 0x04EC [0x23] WAIT_FOR_DIALOG_INTERACTION
345: 0x04ED [0x01] GOTO 0x0784
346: 0x04F0 [0x02] IF !(Work_Zone[2] == 11*) GOTO 0x04FF
347: 0x04F8 [0x1D] PRINT_EVENT_MESSAGE(message_id=13288*)
    → "Master Sanraku was mentioning how he would one day like to try his hand at painting a Qiqirn that dwells in Periqia.\u007F1\u0000\u0007"
348: 0x04FB [0x23] WAIT_FOR_DIALOG_INTERACTION
349: 0x04FC [0x01] GOTO 0x0784
350: 0x04FF [0x02] IF !(Work_Zone[2] == 12*) GOTO 0x050E
351: 0x0507 [0x1D] PRINT_EVENT_MESSAGE(message_id=13289*)
    → "Master Sanraku was mentioning how he would one day like to try his hand at painting a dvergr that dwells in Periqia.\u007F1\u0000\u0007"
352: 0x050A [0x23] WAIT_FOR_DIALOG_INTERACTION
353: 0x050B [0x01] GOTO 0x0784
354: 0x050E [0x02] IF !(Work_Zone[2] == 13*) GOTO 0x051D
355: 0x0516 [0x1D] PRINT_EVENT_MESSAGE(message_id=13290*)
    → "Master Sanraku was mentioning how he would one day like to try his hand at painting a dragon that dwells in the Lebros Cavern.\u007F1\u0000\u0007"
356: 0x0519 [0x23] WAIT_FOR_DIALOG_INTERACTION
357: 0x051A [0x01] GOTO 0x0784
358: 0x051D [0x02] IF !(Work_Zone[2] == 14*) GOTO 0x052C
359: 0x0525 [0x1D] PRINT_EVENT_MESSAGE(message_id=13291*)
    → "Master Sanraku was mentioning how he would one day like to try his hand at painting a wamoura that dwells in the Lebros Cavern.\u007F1\u0000\u0007"
360: 0x0528 [0x23] WAIT_FOR_DIALOG_INTERACTION
361: 0x0529 [0x01] GOTO 0x0784
362: 0x052C [0x02] IF !(Work_Zone[2] == 15*) GOTO 0x053B
363: 0x0534 [0x1D] PRINT_EVENT_MESSAGE(message_id=13292*)
    → "Master Sanraku was mentioning how he would one day like to try his hand at painting a Cerberus that dwells in the Lebros Cavern.\u007F1\u0000\u0007"
364: 0x0537 [0x23] WAIT_FOR_DIALOG_INTERACTION
365: 0x0538 [0x01] GOTO 0x0784
366: 0x053B [0x02] IF !(Work_Zone[2] == 16*) GOTO 0x054A
367: 0x0543 [0x1D] PRINT_EVENT_MESSAGE(message_id=13293*)
    → "Master Sanraku was mentioning how he would one day like to try his hand at painting a fire elemental that dwells in the Lebros Cavern.\u007F1\u0000\u0007"
368: 0x0546 [0x23] WAIT_FOR_DIALOG_INTERACTION
369: 0x0547 [0x01] GOTO 0x0784
370: 0x054A [0x02] IF !(Work_Zone[2] == 17*) GOTO 0x0559
371: 0x0552 [0x1D] PRINT_EVENT_MESSAGE(message_id=13294*)
    → "Master Sanraku was mentioning how he would one day like to try his hand at painting a wyvern that dwells in the Mamool Ja Training Grounds.\u007F1\u0000\u0007"
372: 0x0555 [0x23] WAIT_FOR_DIALOG_INTERACTION
373: 0x0556 [0x01] GOTO 0x0784
374: 0x0559 [0x02] IF !(Work_Zone[2] == 18*) GOTO 0x0568
375: 0x0561 [0x1D] PRINT_EVENT_MESSAGE(message_id=13295*)
    → "Master Sanraku was mentioning how he would one day like to try his hand at painting a cockatrice that dwells in the Mamool Ja Training Grounds.\u007F1\u0000\u0007"
376: 0x0564 [0x23] WAIT_FOR_DIALOG_INTERACTION
377: 0x0565 [0x01] GOTO 0x0784
378: 0x0568 [0x02] IF !(Work_Zone[2] == 19*) GOTO 0x0577
379: 0x0570 [0x1D] PRINT_EVENT_MESSAGE(message_id=13296*)
    → "Master Sanraku was mentioning how he would one day like to try his hand at painting a marid that dwells in the Mamool Ja Training Grounds.\u007F1\u0000\u0007"
380: 0x0573 [0x23] WAIT_FOR_DIALOG_INTERACTION
381: 0x0574 [0x01] GOTO 0x0784
382: 0x0577 [0x02] IF !(Work_Zone[2] == 20*) GOTO 0x0586
383: 0x057F [0x1D] PRINT_EVENT_MESSAGE(message_id=13297*)
    → "Master Sanraku was mentioning how he would one day like to try his hand at painting a Poroggo that dwells in the Mamool Ja Training Grounds.\u007F1\u0000\u0007"
384: 0x0582 [0x23] WAIT_FOR_DIALOG_INTERACTION
385: 0x0583 [0x01] GOTO 0x0784
386: 0x0586 [0x02] IF !(Work_Zone[2] == 21*) GOTO 0x0595
387: 0x058E [0x1D] PRINT_EVENT_MESSAGE(message_id=13298*)
    → "Master Sanraku was mentioning how he would one day like to try his hand at painting a Qiqirn that dwells in the Mamool Ja Training Grounds.\u007F1\u0000\u0007"
388: 0x0591 [0x23] WAIT_FOR_DIALOG_INTERACTION
389: 0x0592 [0x01] GOTO 0x0784
390: 0x0595 [0x02] IF !(Work_Zone[2] == 22*) GOTO 0x05A4
391: 0x059D [0x1D] PRINT_EVENT_MESSAGE(message_id=13299*)
    → "Master Sanraku was mentioning how he would one day like to try his hand at painting a leech that dwells in the Mamool Ja Training Grounds.\u007F1\u0000\u0007"
392: 0x05A0 [0x23] WAIT_FOR_DIALOG_INTERACTION
393: 0x05A1 [0x01] GOTO 0x0784
394: 0x05A4 [0x02] IF !(Work_Zone[2] == 23*) GOTO 0x05B3
395: 0x05AC [0x1D] PRINT_EVENT_MESSAGE(message_id=13300*)
    → "Master Sanraku was mentioning how he would one day like to try his hand at painting a hydra that dwells in the Mamool Ja Training Grounds.\u007F1\u0000\u0007"
396: 0x05AF [0x23] WAIT_FOR_DIALOG_INTERACTION
397: 0x05B0 [0x01] GOTO 0x0784
398: 0x05B3 [0x02] IF !(Work_Zone[2] == 24*) GOTO 0x05C2
399: 0x05BB [0x1D] PRINT_EVENT_MESSAGE(message_id=13301*)
    → "Master Sanraku was mentioning how he would one day like to try his hand at painting a rabbit that dwells in the Leujaoam Sanctum.\u007F1\u0000\u0007"
400: 0x05BE [0x23] WAIT_FOR_DIALOG_INTERACTION
401: 0x05BF [0x01] GOTO 0x0784
402: 0x05C2 [0x02] IF !(Work_Zone[2] == 25*) GOTO 0x05D1
403: 0x05CA [0x1D] PRINT_EVENT_MESSAGE(message_id=13302*)
    → "Master Sanraku was mentioning how he would one day like to try his hand at painting an imp that dwells in the Leujaoam Sanctum.\u007F1\u0000\u0007"
404: 0x05CD [0x23] WAIT_FOR_DIALOG_INTERACTION
405: 0x05CE [0x01] GOTO 0x0784
406: 0x05D1 [0x02] IF !(Work_Zone[2] == 26*) GOTO 0x05E0
407: 0x05D9 [0x1D] PRINT_EVENT_MESSAGE(message_id=13303*)
    → "Master Sanraku was mentioning how he would one day like to try his hand at painting a vampyr that dwells in the Leujaoam Sanctum.\u007F1\u0000\u0007"
408: 0x05DC [0x23] WAIT_FOR_DIALOG_INTERACTION
409: 0x05DD [0x01] GOTO 0x0784
410: 0x05E0 [0x02] IF !(Work_Zone[2] == 27*) GOTO 0x05EF
411: 0x05E8 [0x1D] PRINT_EVENT_MESSAGE(message_id=13304*)
    → "Master Sanraku was mentioning how he would one day like to try his hand at painting an Opo-opo ithat dwells in the Ashu Talif.\u007F1\u0000\u0007"
412: 0x05EB [0x23] WAIT_FOR_DIALOG_INTERACTION
413: 0x05EC [0x01] GOTO 0x0784
414: 0x05EF [0x02] IF !(Work_Zone[2] == 28*) GOTO 0x05FE
415: 0x05F7 [0x1D] PRINT_EVENT_MESSAGE(message_id=13305*)
    → "Master Sanraku was mentioning how he would one day like to try his hand at painting an imp that dwells in Talacca Cove.\u007F1\u0000\u0007"
416: 0x05FA [0x23] WAIT_FOR_DIALOG_INTERACTION
417: 0x05FB [0x01] GOTO 0x0784
418: 0x05FE [0x02] IF !(Work_Zone[2] == 29*) GOTO 0x060D
419: 0x0606 [0x1D] PRINT_EVENT_MESSAGE(message_id=13306*)
    → "Master Sanraku was mentioning how he would one day like to try his hand at painting a orobon that dwells in Talacca Cove.\u007F1\u0000\u0007"
420: 0x0609 [0x23] WAIT_FOR_DIALOG_INTERACTION
421: 0x060A [0x01] GOTO 0x0784
422: 0x060D [0x02] IF !(Work_Zone[2] == 30*) GOTO 0x061C
423: 0x0615 [0x1D] PRINT_EVENT_MESSAGE(message_id=13307*)
    → "Master Sanraku was mentioning how he would one day like to try his hand at painting a wamoura larvae that dwells in the Navukgo Execution Chamber.\u007F1\u0000\u0007"
424: 0x0618 [0x23] WAIT_FOR_DIALOG_INTERACTION
425: 0x0619 [0x01] GOTO 0x0784
426: 0x061C [0x02] IF !(Work_Zone[2] == 31*) GOTO 0x062B
427: 0x0624 [0x1D] PRINT_EVENT_MESSAGE(message_id=13308*)
    → "Master Sanraku was mentioning how he would one day like to try his hand at painting a flan that dwells in the Navukgo Execution Chamber.\u007F1\u0000\u0007"
428: 0x0627 [0x23] WAIT_FOR_DIALOG_INTERACTION
429: 0x0628 [0x01] GOTO 0x0784
430: 0x062B [0x02] IF !(Work_Zone[2] == 32*) GOTO 0x063A
431: 0x0633 [0x1D] PRINT_EVENT_MESSAGE(message_id=13309*)
    → "Master Sanraku was mentioning how he would one day like to try his hand at painting a colibri that dwells in the Jade Sepulcher.\u007F1\u0000\u0007"
432: 0x0636 [0x23] WAIT_FOR_DIALOG_INTERACTION
433: 0x0637 [0x01] GOTO 0x0784
434: 0x063A [0x02] IF !(Work_Zone[2] == 33*) GOTO 0x0649
435: 0x0642 [0x1D] PRINT_EVENT_MESSAGE(message_id=13310*)
    → "Master Sanraku was mentioning how he would one day like to try his hand at painting a puk that dwells in the Jade Sepulcher.\u007F1\u0000\u0007"
436: 0x0645 [0x23] WAIT_FOR_DIALOG_INTERACTION
437: 0x0646 [0x01] GOTO 0x0784
438: 0x0649 [0x02] IF !(Work_Zone[2] == 34*) GOTO 0x0658
439: 0x0651 [0x1D] PRINT_EVENT_MESSAGE(message_id=13311*)
    → "Master Sanraku was mentioning how he would one day like to try his hand at painting a adamantoise that dwells in Nyzul Isle.\u007F1\u0000\u0007"
440: 0x0654 [0x23] WAIT_FOR_DIALOG_INTERACTION
441: 0x0655 [0x01] GOTO 0x0784
442: 0x0658 [0x02] IF !(Work_Zone[2] == 35*) GOTO 0x0667
443: 0x0660 [0x1D] PRINT_EVENT_MESSAGE(message_id=13312*)
    → "Master Sanraku was mentioning how he would one day like to try his hand at painting a behemoth that dwells in Nyzul Isle.\u007F1\u0000\u0007"
444: 0x0663 [0x23] WAIT_FOR_DIALOG_INTERACTION
445: 0x0664 [0x01] GOTO 0x0784
446: 0x0667 [0x02] IF !(Work_Zone[2] == 36*) GOTO 0x0676
447: 0x066F [0x1D] PRINT_EVENT_MESSAGE(message_id=13313*)
    → "Master Sanraku was mentioning how he would one day like to try his hand at painting a wyrm that dwells in Nyzul Isle.\u007F1\u0000\u0007"
448: 0x0672 [0x23] WAIT_FOR_DIALOG_INTERACTION
449: 0x0673 [0x01] GOTO 0x0784
450: 0x0676 [0x02] IF !(Work_Zone[2] == 37*) GOTO 0x0685
451: 0x067E [0x1D] PRINT_EVENT_MESSAGE(message_id=13314*)
    → "Master Sanraku was mentioning how he would one day like to try his hand at painting a khimaira that dwells in Nyzul Isle.\u007F1\u0000\u0007"
452: 0x0681 [0x23] WAIT_FOR_DIALOG_INTERACTION
453: 0x0682 [0x01] GOTO 0x0784
454: 0x0685 [0x02] IF !(Work_Zone[2] == 38*) GOTO 0x0694
455: 0x068D [0x1D] PRINT_EVENT_MESSAGE(message_id=13315*)
    → "Master Sanraku was mentioning how he would one day like to try his hand at painting a cerberus that dwells in Nyzul Isle.\u007F1\u0000\u0007"
456: 0x0690 [0x23] WAIT_FOR_DIALOG_INTERACTION
457: 0x0691 [0x01] GOTO 0x0784
458: 0x0694 [0x02] IF !(Work_Zone[2] == 39*) GOTO 0x06A3
459: 0x069C [0x1D] PRINT_EVENT_MESSAGE(message_id=13316*)
    → "Master Sanraku was mentioning how he would one day like to try his hand at painting a hydra that dwells in Nyzul Isle.\u007F1\u0000\u0007"
460: 0x069F [0x23] WAIT_FOR_DIALOG_INTERACTION
461: 0x06A0 [0x01] GOTO 0x0784
462: 0x06A3 [0x02] IF !(Work_Zone[2] == 40*) GOTO 0x06B2
463: 0x06AB [0x1D] PRINT_EVENT_MESSAGE(message_id=13317*)
    → "Master Sanraku was mentioning how he would one day like to try his hand at painting the legendary creature that dwells deep within the Zhayolm Remnants.\u007F1\u0000\u0007"
464: 0x06AE [0x23] WAIT_FOR_DIALOG_INTERACTION
465: 0x06AF [0x01] GOTO 0x0784
466: 0x06B2 [0x02] IF !(Work_Zone[2] == 41*) GOTO 0x06C1
467: 0x06BA [0x1D] PRINT_EVENT_MESSAGE(message_id=13318*)
    → "Master Sanraku was mentioning how he would one day like to try his hand at painting an imp that dwells in the Zhayolm Remnants.\u007F1\u0000\u0007"
468: 0x06BD [0x23] WAIT_FOR_DIALOG_INTERACTION
469: 0x06BE [0x01] GOTO 0x0784
470: 0x06C1 [0x02] IF !(Work_Zone[2] == 42*) GOTO 0x06D0
471: 0x06C9 [0x1D] PRINT_EVENT_MESSAGE(message_id=13319*)
    → "Master Sanraku was mentioning how he would one day like to try his hand at painting the legendary creature that dwells deep within the Arrapago Remnants.\u007F1\u0000\u0007"
472: 0x06CC [0x23] WAIT_FOR_DIALOG_INTERACTION
473: 0x06CD [0x01] GOTO 0x0784
474: 0x06D0 [0x02] IF !(Work_Zone[2] == 43*) GOTO 0x06DF
475: 0x06D8 [0x1D] PRINT_EVENT_MESSAGE(message_id=13320*)
    → "Master Sanraku was mentioning how he would one day like to try his hand at painting a flan that dwells in the Arrapago Remnants.\u007F1\u0000\u0007"
476: 0x06DB [0x23] WAIT_FOR_DIALOG_INTERACTION
477: 0x06DC [0x01] GOTO 0x0784
478: 0x06DF [0x02] IF !(Work_Zone[2] == 44*) GOTO 0x06EE
479: 0x06E7 [0x1D] PRINT_EVENT_MESSAGE(message_id=13321*)
    → "Master Sanraku was mentioning how he would one day like to try his hand at painting the legendary creature that dwells deep within the Bhaflau Remnants.\u007F1\u0000\u0007"
480: 0x06EA [0x23] WAIT_FOR_DIALOG_INTERACTION
481: 0x06EB [0x01] GOTO 0x0784
482: 0x06EE [0x02] IF !(Work_Zone[2] == 45*) GOTO 0x06FD
483: 0x06F6 [0x1D] PRINT_EVENT_MESSAGE(message_id=13322*)
    → "Master Sanraku was mentioning how he would one day like to try his hand at painting a soulflayer that dwells in the Bhaflau Remnants.\u007F1\u0000\u0007"
484: 0x06F9 [0x23] WAIT_FOR_DIALOG_INTERACTION
485: 0x06FA [0x01] GOTO 0x0784
486: 0x06FD [0x02] IF !(Work_Zone[2] == 46*) GOTO 0x070C
487: 0x0705 [0x1D] PRINT_EVENT_MESSAGE(message_id=13323*)
    → "Master Sanraku was mentioning how he would one day like to try his hand at painting the legendary creature that dwells deep within the Silver Sea Remnants.\u007F1\u0000\u0007"
488: 0x0708 [0x23] WAIT_FOR_DIALOG_INTERACTION
489: 0x0709 [0x01] GOTO 0x0784
490: 0x070C [0x02] IF !(Work_Zone[2] == 47*) GOTO 0x071B
491: 0x0714 [0x1D] PRINT_EVENT_MESSAGE(message_id=13324*)
    → "Master Sanraku was mentioning how he would one day like to try his hand at painting a Poroggo that dwells in the Silver Sea Remnants.\u007F1\u0000\u0007"
492: 0x0717 [0x23] WAIT_FOR_DIALOG_INTERACTION
493: 0x0718 [0x01] GOTO 0x0784
494: 0x071B [0x02] IF !(Work_Zone[2] == 48*) GOTO 0x072A
495: 0x0723 [0x1D] PRINT_EVENT_MESSAGE(message_id=13325*)
    → "Master Sanraku has been showing enthusiasm at painting the creature guarding the first wing of the Hazhalm Testing Grounds.\u007F1\u0000\u0007"
496: 0x0726 [0x23] WAIT_FOR_DIALOG_INTERACTION
497: 0x0727 [0x01] GOTO 0x0784
498: 0x072A [0x02] IF !(Work_Zone[2] == 49*) GOTO 0x0739
499: 0x0732 [0x1D] PRINT_EVENT_MESSAGE(message_id=13326*)
    → "Master Sanraku has been showing enthusiasm at painting the creature guarding the second wing of the Hazhalm Testing Grounds.\u007F1\u0000\u0007"
500: 0x0735 [0x23] WAIT_FOR_DIALOG_INTERACTION
501: 0x0736 [0x01] GOTO 0x0784
502: 0x0739 [0x02] IF !(Work_Zone[2] == 50*) GOTO 0x0748
503: 0x0741 [0x1D] PRINT_EVENT_MESSAGE(message_id=13327*)
    → "Master Sanraku has been showing enthusiasm at painting the creature guarding the third wing of the Hazhalm Testing Grounds.\u007F1\u0000\u0007"
504: 0x0744 [0x23] WAIT_FOR_DIALOG_INTERACTION
505: 0x0745 [0x01] GOTO 0x0784
506: 0x0748 [0x02] IF !(Work_Zone[2] == 51*) GOTO 0x0757
507: 0x0750 [0x1D] PRINT_EVENT_MESSAGE(message_id=13328*)
    → "Master Sanraku was mentioning how he would one day like to try his hand at painting the legendary creature that dwells deep within the Hazhalm Testing Grounds.\u007F1\u0000\u0007"
508: 0x0753 [0x23] WAIT_FOR_DIALOG_INTERACTION
509: 0x0754 [0x01] GOTO 0x0784
510: 0x0757 [0x02] IF !(Work_Zone[2] == 52*) GOTO 0x0766
511: 0x075F [0x1D] PRINT_EVENT_MESSAGE(message_id=13329*)
    → "Master Sanraku was pondering what painting technique would need to be applied in order to replicate the shimmering scales of an overlord of the Mamool Ja Savages.\u007F1\u0000\u0007"
512: 0x0762 [0x23] WAIT_FOR_DIALOG_INTERACTION
513: 0x0763 [0x01] GOTO 0x0784
514: 0x0766 [0x02] IF !(Work_Zone[2] == 53*) GOTO 0x0775
515: 0x076E [0x1D] PRINT_EVENT_MESSAGE(message_id=13330*)
    → "Master Sanraku was pondering what painting technique would need to be applied in order to replicate the rippling physique of a general of the Troll Mercenaries.\u007F1\u0000\u0007"
516: 0x0771 [0x23] WAIT_FOR_DIALOG_INTERACTION
517: 0x0772 [0x01] GOTO 0x0784
518: 0x0775 [0x02] IF !(Work_Zone[2] == 54*) GOTO 0x0784
519: 0x077D [0x1D] PRINT_EVENT_MESSAGE(message_id=13331*)
    → "Master Sanraku was pondering what painting technique would need to be applied in order to replicate the bewitching beauty of a general of the Undead Swarm.\u007F1\u0000\u0007"
520: 0x0780 [0x23] WAIT_FOR_DIALOG_INTERACTION
521: 0x0781 [0x01] GOTO 0x0784

SUBROUTINE_0784:
522: 0x0784 [0x01] GOTO 0x0810
523: 0x0787 [0x02] IF !(Work_Zone[0] == 4*) GOTO 0x07AB
524: 0x078F [0x1D] PRINT_EVENT_MESSAGE(message_id=13192*)
    → "This goes without saying, but the subject must be well framed in the shot.\u007F1\u0000\u0007"
525: 0x0792 [0x23] WAIT_FOR_DIALOG_INTERACTION
526: 0x0793 [0x1D] PRINT_EVENT_MESSAGE(message_id=13193*)
    → "And preferably, be of a creature in which Master is interested.\u007F1\u0000\u0007"
527: 0x0796 [0x23] WAIT_FOR_DIALOG_INTERACTION
528: 0x0797 [0x1D] PRINT_EVENT_MESSAGE(message_id=13194*)
    → "However, like his inability to stay faithful to one woman, his subject of interest is also prone to change.\u007F1\u0000\u0007"
529: 0x079A [0x23] WAIT_FOR_DIALOG_INTERACTION
530: 0x079B [0x1D] PRINT_EVENT_MESSAGE(message_id=13195*)
    → "One last thing. If you show me your soul plates before giving them to the master, I can give you an estimate on their worth in zeni.\u007F1\u0000\u0007"
531: 0x079E [0x23] WAIT_FOR_DIALOG_INTERACTION
532: 0x079F [0x03] Work_Zone[1] = 401*
533: 0x07A4 [0x43] SEND_EVENT_UPDATE: Send pending tag to server (packet 0x005B)
534: 0x07A6 [0x43] SEND_EVENT_UPDATE: Check pending flag (skip if not pending)
535: 0x07A8 [0x01] GOTO 0x0810
536: 0x07AB [0x02] IF !(Work_Zone[0] == 5*) GOTO 0x07CA
537: 0x07B3 [0x1D] PRINT_EVENT_MESSAGE(message_id=13196*)
    → "The pursuit of beauty in nature is often accompanied by unavoidable hazards. There are times when one has no choice but to slay an aggravated creature in self-defense.\u007F1\u0000\u0007"
538: 0x07B6 [0x23] WAIT_FOR_DIALOG_INTERACTION
539: 0x07B7 [0x1D] PRINT_EVENT_MESSAGE(message_id=13197*)
    → "When you defeat such a creature, bring back evidence of your feat to show to Master Sanraku.\u007F1\u0000\u0007"
540: 0x07BA [0x23] WAIT_FOR_DIALOG_INTERACTION
541: 0x07BB [0x1D] PRINT_EVENT_MESSAGE(message_id=13198*)
    → "From his numerous journeys across the globe, Master Sanraku has come to admire the courage and honor displayed by adventurers.\u007F1\u0000\u0007"
542: 0x07BE [0x23] WAIT_FOR_DIALOG_INTERACTION
543: 0x07BF [0x1D] PRINT_EVENT_MESSAGE(message_id=13199*)
    → "If you can prove your triumph over a formidable foe, the master will be pleased and reward you with a tally seal from the Far East.\u007F1\u0000\u0007"
544: 0x07C2 [0x23] WAIT_FOR_DIALOG_INTERACTION
545: 0x07C3 [0x1D] PRINT_EVENT_MESSAGE(message_id=13200*)
    → "Consider it a symbol of his faith in your ability. Please note, however, that it isn't just for show. There is nothing for which Master Sanraku does not have a purpose.\u007F1\u0000\u0007"
546: 0x07C6 [0x23] WAIT_FOR_DIALOG_INTERACTION
547: 0x07C7 [0x01] GOTO 0x0810
548: 0x07CA [0x02] IF !(Work_Zone[0] == 6*) GOTO 0x07D9
549: 0x07D2 [0x1D] PRINT_EVENT_MESSAGE(message_id=13208*)
    → "You can obtain a soultrapper by going to the Colosseum in the southeast area and speaking with a man named Zandjarl.\u007F1\u0000\u0007"
550: 0x07D5 [0x23] WAIT_FOR_DIALOG_INTERACTION
551: 0x07D6 [0x01] GOTO 0x0810
552: 0x07D9 [0x02] IF !(Work_Zone[0] == 7*) GOTO 0x0809
553: 0x07E1 [0x1D] PRINT_EVENT_MESSAGE(message_id=13201*)
    → "In the Wajaom Woodlands, Mount Zhayolm, and Caedarva Mire, you will find strange stone tablets that emit a soft glow from their engravings. These objects are thought to be a legacy of a long lost ancient civilization.\u007F1\u0000\u0007"
554: 0x07E4 [0x23] WAIT_FOR_DIALOG_INTERACTION
555: 0x07E5 [0x1D] PRINT_EVENT_MESSAGE(message_id=13202*)
    → "Legend says that sprinkling salt onto these tablets will teleport you to mystical islets.\u007F1\u0000\u0007"
556: 0x07E8 [0x23] WAIT_FOR_DIALOG_INTERACTION
557: 0x07E9 [0x1D] PRINT_EVENT_MESSAGE(message_id=13203*)
    → "Being a skeptic at heart, Master Sanraku couldn't resist the temptation to put this legend to the test, which he verified as fact.\u007F1\u0000\u0007"
558: 0x07EC [0x23] WAIT_FOR_DIALOG_INTERACTION
559: 0x07ED [0x1D] PRINT_EVENT_MESSAGE(message_id=13204*)
    → "Upon his return, he ranted on for weeks on end about the rare fauna he witnessed on these islets, like a young boy who had seen an airship for the first time.\u007F1\u0000\u0007"
560: 0x07F0 [0x23] WAIT_FOR_DIALOG_INTERACTION
561: 0x07F1 [0x1D] PRINT_EVENT_MESSAGE(message_id=13205*)
    → "I recall Master Sanraku using some variety of sea salt.\u007F1\u0000\u0007"
562: 0x07F4 [0x23] WAIT_FOR_DIALOG_INTERACTION
563: 0x07F5 [0x1D] PRINT_EVENT_MESSAGE(message_id=13206*)
    → "Unfortunately, I haven't yet had the privilege of seeing the islets with my own eyes.\u007F1\u0000\u0007"
564: 0x07F8 [0x23] WAIT_FOR_DIALOG_INTERACTION
565: 0x07F9 [0x1D] PRINT_EVENT_MESSAGE(message_id=13207*)
    → "But Master Sanraku will undoubtedly be pleased to have the opportunity to tell someone about his experience.\u007F1\u0000\u0007"
566: 0x07FC [0x23] WAIT_FOR_DIALOG_INTERACTION
567: 0x07FD [0x03] Work_Zone[1] = 402*
568: 0x0802 [0x43] SEND_EVENT_UPDATE: Send pending tag to server (packet 0x005B)
569: 0x0804 [0x43] SEND_EVENT_UPDATE: Check pending flag (skip if not pending)
570: 0x0806 [0x01] GOTO 0x0810
571: 0x0809 [0x1D] PRINT_EVENT_MESSAGE(message_id=13210*)
    → "Please do not hesitate to ask me if there is anything you wish to know.\u007F1\u0000\u0007"
572: 0x080C [0x23] WAIT_FOR_DIALOG_INTERACTION
573: 0x080D [0x06] ExtData[1]->WorkLocal[2] = 0

SUBROUTINE_0810:
574: 0x0810 [0x02] IF !(ExtData[1]->WorkLocal[2] == 1*) GOTO 0x081F
575: 0x0818 [0x1D] PRINT_EVENT_MESSAGE(message_id=13209*)
    → "Is there anything else with which I can assist?\u007F1\u0000\u0007"
576: 0x081B [0x23] WAIT_FOR_DIALOG_INTERACTION
577: 0x081C [0x01] GOTO 0x0039
578: 0x081F [0x2E] SET_CLI_EVENT_CANCEL_FLAGS()
579: 0x0820 [0x20] SET_CLI_EVENT_UC_FLAG: Unlock player control
580: 0x0822 [0x21] END_EVENT
581: 0x0823 [0x00] END_REQSTACK()
```

### Event 914

#### Metadata

| Field        | Value    |
|--------------|----------|
| Entrypoint   | 0x0824   |
| Data Size    | 46 bytes |
| Instructions | 20       |

```
      00 01 02 03 04 05 06 07  08 09 0A 0B 0C 0D 0E 0F
      -- -- -- -- -- -- -- --  -- -- -- -- -- -- -- --
0820:             03 03 00 02  10 20 01 42 1E F0 FF FF      ..... .B....
0830: 7F 6F 70 03 01 10 00 80  43 00 43 01 1D D7 80 23  .op.....C.C....#
0840: 1D D8 80 23 03 08 10 03  00 1D D9 80 23 2E 20 00  ...#........#. .
0850: 21 00                                             !.              
```

#### Opcodes

```
  0: 0x0824 [0x03] ExtData[1]->WorkLocal[3] = Work_Zone[2]
  1: 0x0829 [0x20] SET_CLI_EVENT_UC_FLAG: Lock player control
  2: 0x082B [0x42] SET_CLI_EVENT_CANCEL_DATA()
  3: 0x082C [0x1E] EventEntity looks at LocalPlayer and starts talking
  4: 0x0831 [0x6F] WAIT_FRAME_DELAY: Yield until WaitTime reaches zero
  5: 0x0832 [0x70] WAIT_ENTITY_RENDER_FLAG: Wait while EventEntity->Render.Flags3 bit 2 is set (cancel turn if not)
  6: 0x0833 [0x03] Work_Zone[1] = 1*
  7: 0x0838 [0x43] SEND_EVENT_UPDATE: Send pending tag to server (packet 0x005B)
  8: 0x083A [0x43] SEND_EVENT_UPDATE: Check pending flag (skip if not pending)
  9: 0x083C [0x1D] PRINT_EVENT_MESSAGE(message_id=13211*)
    → "You've brought me a soul plate for appraisal?\u007F1\u0000\u0007"
 10: 0x083F [0x23] WAIT_FOR_DIALOG_INTERACTION
 11: 0x0840 [0x1D] PRINT_EVENT_MESSAGE(message_id=13212*)
    → "Hmmm... Yes, I see...\u007F1\u0000\u0007"
 12: 0x0843 [0x23] WAIT_FOR_DIALOG_INTERACTION
 13: 0x0844 [0x03] Work_Zone[8] = ExtData[1]->WorkLocal[3]
 14: 0x0849 [0x1D] PRINT_EVENT_MESSAGE(message_id=13213*)
    → "This sample should earn you approximately 
\u0000 zeni.\u007F1\u0000\u0007"
 15: 0x084C [0x23] WAIT_FOR_DIALOG_INTERACTION
 16: 0x084D [0x2E] SET_CLI_EVENT_CANCEL_FLAGS()
 17: 0x084E [0x20] SET_CLI_EVENT_UC_FLAG: Unlock player control
 18: 0x0850 [0x21] END_EVENT
 19: 0x0851 [0x00] END_REQSTACK()
```
