# 16982543 - Mikilulu

## Common Data

| Field            | Value                         |
|------------------|-------------------------------|
| Zone             | Aht Urhgan Whitegate (ID: 50) |
| Block Size       | 740 bytes                     |
| Total Events     | 26                            |
| References Count | 32                            |

## List of Events

| Event ID                   | Entrypoint   |   Size |   Instructions |
|----------------------------|--------------|--------|----------------|
| [65535](#event-65535)      | 0x0000       |      1 |              1 |
| [889](#event-889)          | 0x0001       |      1 |              1 |
| [65535.1](#event-655351)   | 0x0002       |      9 |              3 |
| [65535.2](#event-655352)   | 0x000B       |     15 |              3 |
| [65535.3](#event-655353)   | 0x001A       |     53 |             11 |
| [65535.4](#event-655354)   | 0x004F       |      4 |              2 |
| [65535.5](#event-655355)   | 0x0053       |      2 |              2 |
| [65535.6](#event-655356)   | 0x0055       |     16 |              4 |
| [65535.7](#event-655357)   | 0x0065       |     15 |              3 |
| [65535.8](#event-655358)   | 0x0074       |     57 |             11 |
| [65535.9](#event-655359)   | 0x00AD       |     16 |              4 |
| [65535.10](#event-6553510) | 0x00BD       |      9 |              3 |
| [890](#event-890)          | 0x00C6       |      1 |              1 |
| [65535.11](#event-6553511) | 0x00C7       |      8 |              2 |
| [65535.12](#event-6553512) | 0x00CF       |     16 |              4 |
| [65535.13](#event-6553513) | 0x00DF       |      8 |              2 |
| [65535.14](#event-6553514) | 0x00E7       |     19 |              3 |
| [65535.15](#event-6553515) | 0x00FA       |     19 |              3 |
| [65535.16](#event-6553516) | 0x010D       |     19 |              3 |
| [65535.17](#event-6553517) | 0x0120       |     15 |              3 |
| [65535.18](#event-6553518) | 0x012F       |     16 |              2 |
| [65535.19](#event-6553519) | 0x013F       |     22 |              6 |
| [65535.20](#event-6553520) | 0x0155       |     57 |              9 |
| [65535.21](#event-6553521) | 0x018E       |     13 |              3 |
| [65535.22](#event-6553522) | 0x019B       |     42 |              7 |
| [65535.23](#event-6553523) | 0x01C5       |     37 |              5 |

## DAT References (imed_data)

|   Index | Hex Value   |   Dec Value |
|---------|-------------|-------------|
|       0 | 0xFFFDD7C7  |  4294825927 |
|       1 | 0xFFFFE527  |  4294960423 |
|       2 | 0x07CF      |        1999 |
|       3 | 0x01B1      |         433 |
|       4 | 0x0002      |           2 |
|       5 | 0x0028      |          40 |
|       6 | 0x0005      |           5 |
|       7 | 0x000A      |          10 |
|       8 | 0x0019      |          25 |
|       9 | 0x003C      |          60 |
|      10 | 0x0000      |           0 |
|      11 | 0x1388      |        5000 |
|      12 | 0x000D      |          13 |
|      13 | 0xFFFE1DDC  |  4294843868 |
|      14 | 0xFFFFD478  |  4294956152 |
|      15 | 0x00B4      |         180 |
|      16 | 0xFFFF2A4A  |  4294912586 |
|      17 | 0xFFFE7DA3  |  4294868387 |
|      18 | 0x179C      |        6044 |
|      19 | 0x0004      |           4 |
|      20 | 0x0078      |         120 |
|      21 | 0xFFFDD69E  |  4294825630 |
|      22 | 0xFFFFE05D  |  4294959197 |
|      23 | 0x005A      |          90 |
|      24 | 0x002A      |          42 |
|      25 | 0xFFFE1F5F  |  4294844255 |
|      26 | 0xFFFFE167  |  4294959463 |
|      27 | 0x1B58      |        7000 |
|      28 | 0x0800      |        2048 |
|      29 | 0x001D      |          29 |
|      30 | 0x0031      |          49 |
|      31 | 0x0001      |           1 |

## Events

### Event 65535

#### Metadata

| Field        | Value   |
|--------------|---------|
| Entrypoint   | 0x0000  |
| Data Size    | 1 bytes |
| Instructions | 1       |

```
      00 01 02 03 04 05 06 07  08 09 0A 0B 0C 0D 0E 0F
      -- -- -- -- -- -- -- --  -- -- -- -- -- -- -- --
0000: 00                                                .               
```

#### Opcodes

```
  0: 0x0000 [0x00] END_REQSTACK()
```

### Event 889

#### Metadata

| Field        | Value   |
|--------------|---------|
| Entrypoint   | 0x0001  |
| Data Size    | 1 bytes |
| Instructions | 1       |

```
      00 01 02 03 04 05 06 07  08 09 0A 0B 0C 0D 0E 0F
      -- -- -- -- -- -- -- --  -- -- -- -- -- -- -- --
0000:    00                                              .              
```

#### Opcodes

```
  0: 0x0001 [0x00] END_REQSTACK()
```

### Event 65535.1

#### Metadata

| Field        | Value   |
|--------------|---------|
| Entrypoint   | 0x0002  |
| Data Size    | 9 bytes |
| Instructions | 3       |

```
      00 01 02 03 04 05 06 07  08 09 0A 0B 0C 0D 0E 0F
      -- -- -- -- -- -- -- --  -- -- -- -- -- -- -- --
0000:       22 00 2F 00 F8 FF  FF 7F 00                   "./......     
```

#### Opcodes

```
  0: 0x0002 [0x22] ENTITY_HIDE_FLAG(enabled=0x00)
  1: 0x0004 [0x2F] EventEntity->Render.Flags0 &= ~0x80000 // Bit 19
  2: 0x000A [0x00] END_REQSTACK()
```

### Event 65535.2

#### Metadata

| Field        | Value    |
|--------------|----------|
| Entrypoint   | 0x000B   |
| Data Size    | 15 bytes |
| Instructions | 3        |

```
      00 01 02 03 04 05 06 07  08 09 0A 0B 0C 0D 0E 0F
      -- -- -- -- -- -- -- --  -- -- -- -- -- -- -- --
0000:                                   37 00 80 01 80             7....
0010: 02 80 03 80 1E 0E 22 03  01 00                    ......"...      
```

#### Opcodes

```
  0: 0x000B [0x37] UPDATE_EVENT_POSITION_AND_DIR: x=-141.369*, z=-6.873*, y=1.999*, direction=38.1°*
  1: 0x0014 [0x1E] EventEntity looks at Salwa-Molwa (ID: 16982542/0x0103220E) and starts talking
  2: 0x0019 [0x00] END_REQSTACK()
```

### Event 65535.3

#### Metadata

| Field        | Value    |
|--------------|----------|
| Entrypoint   | 0x001A   |
| Data Size    | 53 bytes |
| Instructions | 11       |

```
      00 01 02 03 04 05 06 07  08 09 0A 0B 0C 0D 0E 0F
      -- -- -- -- -- -- -- --  -- -- -- -- -- -- -- --
0010:                                1C 04 80 7B F8 FF            ...{..
0020: FF 7F 3B 0E 22 03 01 00  00 01 00 02 00 32 05 80  ..;."........2..
0030: 31 00 00 00 01 00 02 00  06 80 31 01 1C 07 80 6E  1.........1....n
0040: F8 FF FF 7F 08 80 99 F8  FF FF 7F 1C 09 80 00     ............... 
```

#### Opcodes

```
  0: 0x001A [0x1C] WAIT(2* ticks)
  1: 0x001D [0x7B] EventEntity stops talking
  2: 0x0022 [0x3B] GET_ENTITY_POSITION(entity=Salwa-Molwa (ID: 16982542/0x0103220E), x_destination=ExtData[1]->WorkLocal[0], y_destination=ExtData[1]->WorkLocal[1], z_destination=ExtData[1]->WorkLocal[2])
  3: 0x002D [0x32] ExtData[1]->MainSpeed = 40* * 0.1
  4: 0x0030 [0x31] UPDATE_ENTITY_POSITION: Set EventEntity goal position to X=ExtData[1]->WorkLocal[0], Z=ExtData[1]->WorkLocal[1], Y=ExtData[1]->WorkLocal[2], Time=5*
  5: 0x003A [0x31] UPDATE_ENTITY_POSITION: Move EventEntity towards goal position
  6: 0x003C [0x1C] WAIT(10* ticks)
  7: 0x003F [0x6E] EventEntity uses emote 25*
  8: 0x0046 [0x99] Wait for EventEntity animation to complete
  9: 0x004B [0x1C] WAIT(60* ticks)
 10: 0x004E [0x00] END_REQSTACK()
```

### Event 65535.4

#### Metadata

| Field        | Value   |
|--------------|---------|
| Entrypoint   | 0x004F  |
| Data Size    | 4 bytes |
| Instructions | 2       |

```
      00 01 02 03 04 05 06 07  08 09 0A 0B 0C 0D 0E 0F
      -- -- -- -- -- -- -- --  -- -- -- -- -- -- -- --
0040:                                               95                 .
0050: 0A 80 00                                          ...             
```

#### Opcodes

```
  0: 0x004F [0x95] SETUP_EVENT_NPC: Prepare NPC for event (Render.Flags3 = 0*)
  1: 0x0052 [0x00] END_REQSTACK()
```

### Event 65535.5

#### Metadata

| Field        | Value   |
|--------------|---------|
| Entrypoint   | 0x0053  |
| Data Size    | 2 bytes |
| Instructions | 2       |

```
      00 01 02 03 04 05 06 07  08 09 0A 0B 0C 0D 0E 0F
      -- -- -- -- -- -- -- --  -- -- -- -- -- -- -- --
0050:          96 00                                       ..           
```

#### Opcodes

```
  0: 0x0053 [0x96] UNSET_EVENT_NPC: Restore NPC after event (removes event NPC status)
  1: 0x0054 [0x00] END_REQSTACK()
```

### Event 65535.6

#### Metadata

| Field        | Value    |
|--------------|----------|
| Entrypoint   | 0x0055   |
| Data Size    | 16 bytes |
| Instructions | 4        |

```
      00 01 02 03 04 05 06 07  08 09 0A 0B 0C 0D 0E 0F
      -- -- -- -- -- -- -- --  -- -- -- -- -- -- -- --
0050:                6E F8 FF  FF 7F 08 80 99 F8 FF FF       n..........
0060: 7F 1C 09 80 00                                    .....           
```

#### Opcodes

```
  0: 0x0055 [0x6E] EventEntity uses emote 25*
  1: 0x005C [0x99] Wait for EventEntity animation to complete
  2: 0x0061 [0x1C] WAIT(60* ticks)
  3: 0x0064 [0x00] END_REQSTACK()
```

### Event 65535.7

#### Metadata

| Field        | Value    |
|--------------|----------|
| Entrypoint   | 0x0065   |
| Data Size    | 15 bytes |
| Instructions | 3        |

```
      00 01 02 03 04 05 06 07  08 09 0A 0B 0C 0D 0E 0F
      -- -- -- -- -- -- -- --  -- -- -- -- -- -- -- --
0060:                3A 0E 22  03 01 03 00 4B F8 FF FF       :."....K...
0070: 7F 03 00 00                                       ....            
```

#### Opcodes

```
  0: 0x0065 [0x3A] CONVERT_YAW_TO_BYTE(entity=Salwa-Molwa (ID: 16982542/0x0103220E), result_destination=ExtData[1]->WorkLocal[3])
  1: 0x006C [0x4B] UPDATE_ENTITY_YAW(entity=EventEntity, yaw=ExtData[1]->WorkLocal[3])
  2: 0x0073 [0x00] END_REQSTACK()
```

### Event 65535.8

#### Metadata

| Field        | Value    |
|--------------|----------|
| Entrypoint   | 0x0074   |
| Data Size    | 57 bytes |
| Instructions | 11       |

```
      00 01 02 03 04 05 06 07  08 09 0A 0B 0C 0D 0E 0F
      -- -- -- -- -- -- -- --  -- -- -- -- -- -- -- --
0070:             3B F8 FF FF  7F 00 00 01 00 02 00 3A      ;..........:
0080: F8 FF FF 7F 03 00 17 04  00 03 00 0B 80 16 05 00  ................
0090: 03 00 0B 80 07 00 00 04  00 07 01 00 05 00 32 0C  ..............2.
00A0: 80 1F 00 00 00 01 00 02  00 1F 01 6F 00           ...........o.   
```

#### Opcodes

```
  0: 0x0074 [0x3B] GET_ENTITY_POSITION(entity=EventEntity, x_destination=ExtData[1]->WorkLocal[0], y_destination=ExtData[1]->WorkLocal[1], z_destination=ExtData[1]->WorkLocal[2])
  1: 0x007F [0x3A] CONVERT_YAW_TO_BYTE(entity=EventEntity, result_destination=ExtData[1]->WorkLocal[3])
  2: 0x0086 [0x17] ExtData[1]->WorkLocal[4] = cos(ExtData[1]->WorkLocal[3]) * 5000*
  3: 0x008D [0x16] ExtData[1]->WorkLocal[5] = sin(ExtData[1]->WorkLocal[3]) * 5000*
  4: 0x0094 [0x07] ExtData[1]->WorkLocal[0] += ExtData[1]->WorkLocal[4]
  5: 0x0099 [0x07] ExtData[1]->WorkLocal[1] += ExtData[1]->WorkLocal[5]
  6: 0x009E [0x32] ExtData[1]->MainSpeed = 13* * 0.1
  7: 0x00A1 [0x1F] MOVE_ENTITY: EventEntity moves to X=ExtData[1]->WorkLocal[0], Z=ExtData[1]->WorkLocal[1], Y=ExtData[1]->WorkLocal[2]
  8: 0x00A9 [0x1F] MOVE_ENTITY: Update entity position (mode=1)
  9: 0x00AB [0x6F] WAIT_FRAME_DELAY: Yield until WaitTime reaches zero
 10: 0x00AC [0x00] END_REQSTACK()
```

### Event 65535.9

#### Metadata

| Field        | Value    |
|--------------|----------|
| Entrypoint   | 0x00AD   |
| Data Size    | 16 bytes |
| Instructions | 4        |

```
      00 01 02 03 04 05 06 07  08 09 0A 0B 0C 0D 0E 0F
      -- -- -- -- -- -- -- --  -- -- -- -- -- -- -- --
00A0:                                         32 0C 80               2..
00B0: 31 00 0D 80 0E 80 0A 80  0F 80 31 01 00           1.........1..   
```

#### Opcodes

```
  0: 0x00AD [0x32] ExtData[1]->MainSpeed = 13* * 0.1
  1: 0x00B0 [0x31] UPDATE_ENTITY_POSITION: Set EventEntity goal position to X=-123.428*, Z=-11.144*, Y=0.000*, Time=180*
  2: 0x00BA [0x31] UPDATE_ENTITY_POSITION: Move EventEntity towards goal position
  3: 0x00BC [0x00] END_REQSTACK()
```

### Event 65535.10

#### Metadata

| Field        | Value   |
|--------------|---------|
| Entrypoint   | 0x00BD  |
| Data Size    | 9 bytes |
| Instructions | 3       |

```
      00 01 02 03 04 05 06 07  08 09 0A 0B 0C 0D 0E 0F
      -- -- -- -- -- -- -- --  -- -- -- -- -- -- -- --
00B0:                                         22 01 2F               "./
00C0: 01 F8 FF FF 7F 00                                 ......          
```

#### Opcodes

```
  0: 0x00BD [0x22] ENTITY_HIDE_FLAG(enabled=0x01)
  1: 0x00BF [0x2F] EventEntity->Render.Flags0 |= 0x80000 // Bit 19
  2: 0x00C5 [0x00] END_REQSTACK()
```

### Event 890

#### Metadata

| Field        | Value   |
|--------------|---------|
| Entrypoint   | 0x00C6  |
| Data Size    | 1 bytes |
| Instructions | 1       |

```
      00 01 02 03 04 05 06 07  08 09 0A 0B 0C 0D 0E 0F
      -- -- -- -- -- -- -- --  -- -- -- -- -- -- -- --
00C0:                   00                                    .         
```

#### Opcodes

```
  0: 0x00C6 [0x00] END_REQSTACK()
```

### Event 65535.11

#### Metadata

| Field        | Value   |
|--------------|---------|
| Entrypoint   | 0x00C7  |
| Data Size    | 8 bytes |
| Instructions | 2       |

```
      00 01 02 03 04 05 06 07  08 09 0A 0B 0C 0D 0E 0F
      -- -- -- -- -- -- -- --  -- -- -- -- -- -- -- --
00C0:                      36  10 80 11 80 12 80 00            6....... 
```

#### Opcodes

```
  0: 0x00C7 [0x36] SET_ENTITY_EVENT_POSITION(pos_x=-54.710*, pos_z=-98.909*, pos_y=6.044*)
  1: 0x00CE [0x00] END_REQSTACK()
```

### Event 65535.12

#### Metadata

| Field        | Value    |
|--------------|----------|
| Entrypoint   | 0x00CF   |
| Data Size    | 16 bytes |
| Instructions | 4        |

```
      00 01 02 03 04 05 06 07  08 09 0A 0B 0C 0D 0E 0F
      -- -- -- -- -- -- -- --  -- -- -- -- -- -- -- --
00C0:                                               6E                 n
00D0: F8 FF FF 7F 13 80 99 F8  FF FF 7F 1C 14 80 00     ............... 
```

#### Opcodes

```
  0: 0x00CF [0x6E] EventEntity uses emote 4*
  1: 0x00D6 [0x99] Wait for EventEntity animation to complete
  2: 0x00DB [0x1C] WAIT(120* ticks)
  3: 0x00DE [0x00] END_REQSTACK()
```

### Event 65535.13

#### Metadata

| Field        | Value   |
|--------------|---------|
| Entrypoint   | 0x00DF  |
| Data Size    | 8 bytes |
| Instructions | 2       |

```
      00 01 02 03 04 05 06 07  08 09 0A 0B 0C 0D 0E 0F
      -- -- -- -- -- -- -- --  -- -- -- -- -- -- -- --
00D0:                                               36                 6
00E0: 15 80 16 80 02 80 00                              .......         
```

#### Opcodes

```
  0: 0x00DF [0x36] SET_ENTITY_EVENT_POSITION(pos_x=-141.666*, pos_z=-8.099*, pos_y=1.999*)
  1: 0x00E6 [0x00] END_REQSTACK()
```

### Event 65535.14

#### Metadata

| Field        | Value    |
|--------------|----------|
| Entrypoint   | 0x00E7   |
| Data Size    | 19 bytes |
| Instructions | 3        |

```
      00 01 02 03 04 05 06 07  08 09 0A 0B 0C 0D 0E 0F
      -- -- -- -- -- -- -- --  -- -- -- -- -- -- -- --
00E0:                      66  05 80 F8 FF FF 7F F8 FF         f........
00F0: FF 7F 64 69 73 30 1C 17  80 00                    ..dis0....      
```

#### Opcodes

```
  0: 0x00E7 [0x66] LOAD_EXT_SCHEDULER_MAIN: Load scheduler "dis0" with entities [EventEntity, EventEntity], work=40*
  1: 0x00F6 [0x1C] WAIT(90* ticks)
  2: 0x00F9 [0x00] END_REQSTACK()
```

### Event 65535.15

#### Metadata

| Field        | Value    |
|--------------|----------|
| Entrypoint   | 0x00FA   |
| Data Size    | 19 bytes |
| Instructions | 3        |

```
      00 01 02 03 04 05 06 07  08 09 0A 0B 0C 0D 0E 0F
      -- -- -- -- -- -- -- --  -- -- -- -- -- -- -- --
00F0:                                66 18 80 F8 FF FF            f.....
0100: 7F F8 FF FF 7F 6D 73 75  30 1C 0F 80 00           .....msu0....   
```

#### Opcodes

```
  0: 0x00FA [0x66] LOAD_EXT_SCHEDULER_MAIN: Load scheduler "msu0" with entities [EventEntity, EventEntity], work=42*
  1: 0x0109 [0x1C] WAIT(180* ticks)
  2: 0x010C [0x00] END_REQSTACK()
```

### Event 65535.16

#### Metadata

| Field        | Value    |
|--------------|----------|
| Entrypoint   | 0x010D   |
| Data Size    | 19 bytes |
| Instructions | 3        |

```
      00 01 02 03 04 05 06 07  08 09 0A 0B 0C 0D 0E 0F
      -- -- -- -- -- -- -- --  -- -- -- -- -- -- -- --
0100:                                         66 18 80               f..
0110: F8 FF FF 7F F8 FF FF 7F  6D 73 75 31 1C 17 80 00  ........msu1....
```

#### Opcodes

```
  0: 0x010D [0x66] LOAD_EXT_SCHEDULER_MAIN: Load scheduler "msu1" with entities [EventEntity, EventEntity], work=42*
  1: 0x011C [0x1C] WAIT(90* ticks)
  2: 0x011F [0x00] END_REQSTACK()
```

### Event 65535.17

#### Metadata

| Field        | Value    |
|--------------|----------|
| Entrypoint   | 0x0120   |
| Data Size    | 15 bytes |
| Instructions | 3        |

```
      00 01 02 03 04 05 06 07  08 09 0A 0B 0C 0D 0E 0F
      -- -- -- -- -- -- -- --  -- -- -- -- -- -- -- --
0120: 3A 0E 22 03 01 03 00 4B  F8 FF FF 7F 03 00 00     :."....K....... 
```

#### Opcodes

```
  0: 0x0120 [0x3A] CONVERT_YAW_TO_BYTE(entity=Salwa-Molwa (ID: 16982542/0x0103220E), result_destination=ExtData[1]->WorkLocal[3])
  1: 0x0127 [0x4B] UPDATE_ENTITY_YAW(entity=EventEntity, yaw=ExtData[1]->WorkLocal[3])
  2: 0x012E [0x00] END_REQSTACK()
```

### Event 65535.18

#### Metadata

| Field        | Value    |
|--------------|----------|
| Entrypoint   | 0x012F   |
| Data Size    | 16 bytes |
| Instructions | 2        |

```
      00 01 02 03 04 05 06 07  08 09 0A 0B 0C 0D 0E 0F
      -- -- -- -- -- -- -- --  -- -- -- -- -- -- -- --
0120:                                               66                 f
0130: 05 80 F8 FF FF 7F F8 FF  FF 7F 6F 62 69 30 00     ..........obi0. 
```

#### Opcodes

```
  0: 0x012F [0x66] LOAD_EXT_SCHEDULER_MAIN: Load scheduler "obi0" with entities [EventEntity, EventEntity], work=40*
  1: 0x013E [0x00] END_REQSTACK()
```

### Event 65535.19

#### Metadata

| Field        | Value    |
|--------------|----------|
| Entrypoint   | 0x013F   |
| Data Size    | 22 bytes |
| Instructions | 6        |

```
      00 01 02 03 04 05 06 07  08 09 0A 0B 0C 0D 0E 0F
      -- -- -- -- -- -- -- --  -- -- -- -- -- -- -- --
0130:                                               1C                 .
0140: 09 80 7B F8 FF FF 7F 32  0C 80 1F 00 19 80 1A 80  ..{....2........
0150: 0A 80 1F 01 00                                    .....           
```

#### Opcodes

```
  0: 0x013F [0x1C] WAIT(60* ticks)
  1: 0x0142 [0x7B] EventEntity stops talking
  2: 0x0147 [0x32] ExtData[1]->MainSpeed = 13* * 0.1
  3: 0x014A [0x1F] MOVE_ENTITY: EventEntity moves to X=-123.041*, Z=-7.833*, Y=0.000*
  4: 0x0152 [0x1F] MOVE_ENTITY: Update entity position (mode=1)
  5: 0x0154 [0x00] END_REQSTACK()
```

### Event 65535.20

#### Metadata

| Field        | Value    |
|--------------|----------|
| Entrypoint   | 0x0155   |
| Data Size    | 57 bytes |
| Instructions | 9        |

```
      00 01 02 03 04 05 06 07  08 09 0A 0B 0C 0D 0E 0F
      -- -- -- -- -- -- -- --  -- -- -- -- -- -- -- --
0150:                3B 0E 22  03 01 00 00 01 00 02 00       ;."........
0160: 3A 0E 22 03 01 03 00 17  04 00 03 00 1B 80 16 05  :.".............
0170: 00 03 00 1B 80 07 00 00  04 00 07 01 00 05 00 07  ................
0180: 03 00 1C 80 37 00 00 01  00 02 00 03 00 00        ....7.........  
```

#### Opcodes

```
  0: 0x0155 [0x3B] GET_ENTITY_POSITION(entity=Salwa-Molwa (ID: 16982542/0x0103220E), x_destination=ExtData[1]->WorkLocal[0], y_destination=ExtData[1]->WorkLocal[1], z_destination=ExtData[1]->WorkLocal[2])
  1: 0x0160 [0x3A] CONVERT_YAW_TO_BYTE(entity=Salwa-Molwa (ID: 16982542/0x0103220E), result_destination=ExtData[1]->WorkLocal[3])
  2: 0x0167 [0x17] ExtData[1]->WorkLocal[4] = cos(ExtData[1]->WorkLocal[3]) * 7000*
  3: 0x016E [0x16] ExtData[1]->WorkLocal[5] = sin(ExtData[1]->WorkLocal[3]) * 7000*
  4: 0x0175 [0x07] ExtData[1]->WorkLocal[0] += ExtData[1]->WorkLocal[4]
  5: 0x017A [0x07] ExtData[1]->WorkLocal[1] += ExtData[1]->WorkLocal[5]
  6: 0x017F [0x07] ExtData[1]->WorkLocal[3] += 2048*
  7: 0x0184 [0x37] UPDATE_EVENT_POSITION_AND_DIR: x=ExtData[1]->WorkLocal[0], z=ExtData[1]->WorkLocal[1], y=ExtData[1]->WorkLocal[2], direction=ExtData[1]->WorkLocal[3]
  8: 0x018D [0x00] END_REQSTACK()
```

### Event 65535.21

#### Metadata

| Field        | Value    |
|--------------|----------|
| Entrypoint   | 0x018E   |
| Data Size    | 13 bytes |
| Instructions | 3        |

```
      00 01 02 03 04 05 06 07  08 09 0A 0B 0C 0D 0E 0F
      -- -- -- -- -- -- -- --  -- -- -- -- -- -- -- --
0180:                                            6E F8                n.
0190: FF FF 7F 1D 80 99 F8 FF  FF 7F 00                 ...........     
```

#### Opcodes

```
  0: 0x018E [0x6E] EventEntity uses emote 29*
  1: 0x0195 [0x99] Wait for EventEntity animation to complete
  2: 0x019A [0x00] END_REQSTACK()
```

### Event 65535.22

#### Metadata

| Field        | Value    |
|--------------|----------|
| Entrypoint   | 0x019B   |
| Data Size    | 42 bytes |
| Instructions | 7        |

```
      00 01 02 03 04 05 06 07  08 09 0A 0B 0C 0D 0E 0F
      -- -- -- -- -- -- -- --  -- -- -- -- -- -- -- --
0190:                                   36 10 80 11 80             6....
01A0: 12 80 1E 0E 22 03 01 22  00 95 0A 80 66 1E 80 F8  ....".."....f...
01B0: FF FF 7F F8 FF FF 7F 73  68 61 30 6C F8 FF FF 7F  .......sha0l....
01C0: 0A 80 1F 80 00                                    .....           
```

#### Opcodes

```
  0: 0x019B [0x36] SET_ENTITY_EVENT_POSITION(pos_x=-54.710*, pos_z=-98.909*, pos_y=6.044*)
  1: 0x01A2 [0x1E] EventEntity looks at Salwa-Molwa (ID: 16982542/0x0103220E) and starts talking
  2: 0x01A7 [0x22] ENTITY_HIDE_FLAG(enabled=0x00)
  3: 0x01A9 [0x95] SETUP_EVENT_NPC: Prepare NPC for event (Render.Flags3 = 0*)
  4: 0x01AC [0x66] LOAD_EXT_SCHEDULER_MAIN: Load scheduler "sha0" with entities [EventEntity, EventEntity], work=49*
  5: 0x01BB [0x6C] FADE_ENTITY_COLOR(entity_id=EventEntity, end_alpha=0*, fade_time=1*)
  6: 0x01C4 [0x00] END_REQSTACK()
```

### Event 65535.23

#### Metadata

| Field        | Value    |
|--------------|----------|
| Entrypoint   | 0x01C5   |
| Data Size    | 37 bytes |
| Instructions | 5        |

```
      00 01 02 03 04 05 06 07  08 09 0A 0B 0C 0D 0E 0F
      -- -- -- -- -- -- -- --  -- -- -- -- -- -- -- --
01C0:                66 1E 80  F8 FF FF 7F F8 FF FF 7F       f..........
01D0: 73 68 61 31 53 F8 FF FF  7F F8 FF FF 7F 73 68 61  sha1S........sha
01E0: 31 7B 0F 22 03 01 1C 05  80 00                    1{."......      
```

#### Opcodes

```
  0: 0x01C5 [0x66] LOAD_EXT_SCHEDULER_MAIN: Load scheduler "sha1" with entities [EventEntity, EventEntity], work=49*
  1: 0x01D4 [0x53] WAIT_SCHEDULER_TASK: Wait for scheduler "sha1" with entities [EventEntity, EventEntity]
  2: 0x01E1 [0x7B] Mikilulu (ID: 16982543/0x0103220F) stops talking
  3: 0x01E6 [0x1C] WAIT(40* ticks)
  4: 0x01E9 [0x00] END_REQSTACK()
```
