# 16982033 - Zarfhid

## Common Data

| Field            | Value                         |
|------------------|-------------------------------|
| Zone             | Aht Urhgan Whitegate (ID: 50) |
| Block Size       | 144 bytes                     |
| Total Events     | 2                             |
| References Count | 6                             |

## List of Events

| Event ID              | Entrypoint   |   Size |   Instructions |
|-----------------------|--------------|--------|----------------|
| [65535](#event-65535) | 0x0000       |      1 |              1 |
| [220](#event-220)     | 0x0001       |     95 |             25 |

## DAT References (imed_data)

|   Index | Hex Value   |   Dec Value |
|---------|-------------|-------------|
|       0 | 0x0000      |           0 |
|       1 | 0x1246      |        4678 |
|       2 | 0x1247      |        4679 |
|       3 | 0x1248      |        4680 |
|       4 | 0x0001      |           1 |
|       5 | 0x0100      |         256 |

## String References

- **4678**: This is the exit. Would you like to enter Al Zahbi?
- **4679**: Enter the town? [Yes./Not yet.]
- **4680**: You may go through now. Many thanks for your patronage.

## Events

### Event 65535

#### Metadata

| Field        | Value   |
|--------------|---------|
| Entrypoint   | 0x0000  |
| Data Size    | 1 bytes |
| Instructions | 1       |

```
      00 01 02 03 04 05 06 07  08 09 0A 0B 0C 0D 0E 0F
      -- -- -- -- -- -- -- --  -- -- -- -- -- -- -- --
0000: 00                                                .               
```

#### Opcodes

```
  0: 0x0000 [0x00] END_REQSTACK()
```

### Event 220

#### Metadata

| Field        | Value    |
|--------------|----------|
| Entrypoint   | 0x0001   |
| Data Size    | 95 bytes |
| Instructions | 20       |

```
      00 01 02 03 04 05 06 07  08 09 0A 0B 0C 0D 0E 0F
      -- -- -- -- -- -- -- --  -- -- -- -- -- -- -- --
0000:    42 1E F0 FF FF 7F 6F  70 66 00 80 F8 FF FF 7F   B.....opf......
0010: F8 FF FF 7F 74 6C 6B 32  1D 01 80 23 5E 69 64 6C  ....tlk2...#^idl
0020: 30 24 02 80 00 80 00 80  25 02 00 10 00 80 00 52  0$......%......R
0030: 00 1D 03 80 23 6E F8 FF  FF 7F 04 80 99 F8 FF FF  ....#n..........
0040: 7F 29 80 F0 FF FF 7F 15  03 01 10 05 80 21 00 01  .)...........!..
0050: 5F 00 02 00 10 04 80 00  5F 00 21 00 01 5F 00 00  _......._.!.._..
```

#### Opcodes

```
  0: 0x0001 [0x42] SET_CLI_EVENT_CANCEL_DATA()
  1: 0x0002 [0x1E] EventEntity looks at LocalPlayer and starts talking
  2: 0x0007 [0x6F] WAIT_FRAME_DELAY: Yield until WaitTime reaches zero
  3: 0x0008 [0x70] WAIT_ENTITY_RENDER_FLAG: Wait while EventEntity->Render.Flags3 bit 2 is set (cancel turn if not)
  4: 0x0009 [0x66] LOAD_EXT_SCHEDULER_MAIN: Load scheduler "tlk2" with entities [EventEntity, EventEntity], work=0*
  5: 0x0018 [0x1D] PRINT_EVENT_MESSAGE(message_id=4678*)
    → "This is the exit. Would you like to enter Al Zahbi?"
  6: 0x001B [0x23] WAIT_FOR_DIALOG_INTERACTION
  7: 0x001C [0x5E] EventEntity goes idle (kills current action) (animation: "idl0")
  8: 0x0021 [0x24] CREATE_DIALOG(message_id=4679*, default_option=0*, option_flags=0*)
    → "Enter the town? [Yes./Not yet.]"
  9: 0x0028 [0x25] WAIT_DIALOG_SELECT()
 10: 0x0029 [0x02] IF !(Work_Zone[0] == 0*) GOTO 0x0052
 11: 0x0031 [0x1D] PRINT_EVENT_MESSAGE(message_id=4680*)
    → "You may go through now. Many thanks for your patronage."
 12: 0x0034 [0x23] WAIT_FOR_DIALOG_INTERACTION
 13: 0x0035 [0x6E] EventEntity uses emote 1*
 14: 0x003C [0x99] Wait for EventEntity animation to complete
 15: 0x0041 [0x29] REQ_SET_WAIT(priority=0x80, entity_id=LocalPlayer, tag_num=0x15)
 16: 0x0048 [0x03] Work_Zone[1] = 256*
 17: 0x004D [0x21] END_EVENT
 18: 0x004E [0x00] END_REQSTACK()

SUBROUTINE_005F:
 19: 0x005F [0x00] END_REQSTACK()
```

#### Data or dead code:

```
# Dead code (unreachable instructions):
     0x004F [0x01] GOTO 0x005F
     0x005C [0x01] GOTO 0x005F
```
