# 16982261 - Ahaadah

## Common Data

| Field            | Value                         |
|------------------|-------------------------------|
| Zone             | Aht Urhgan Whitegate (ID: 50) |
| Block Size       | 992 bytes                     |
| Total Events     | 26                            |
| References Count | 60                            |

## List of Events

| Event ID                    | Entrypoint   |   Size |   Instructions |
|-----------------------------|--------------|--------|----------------|
| [65535](#event-65535)       | 0x0000       |      1 |              1 |
| [1](#event-1)               | 0x0001       |     13 |              3 |
| [2](#event-2)               | 0x000E       |     13 |              3 |
| [3](#event-3)               | 0x001B       |     13 |              3 |
| [65535.1](#event-65535-1)   | 0x0028       |     15 |              3 |
| [65535.2](#event-65535-2)   | 0x0037       |     20 |              6 |
| [65535.3](#event-65535-3)   | 0x004B       |     15 |              5 |
| [65535.4](#event-65535-4)   | 0x005A       |     20 |              6 |
| [65535.5](#event-65535-5)   | 0x006E       |     15 |              3 |
| [65535.6](#event-65535-6)   | 0x007D       |     19 |              5 |
| [65535.7](#event-65535-7)   | 0x0090       |     18 |              4 |
| [65535.8](#event-65535-8)   | 0x00A2       |     19 |              5 |
| [65535.9](#event-65535-9)   | 0x00B5       |     15 |              3 |
| [65535.10](#event-65535-10) | 0x00C4       |     19 |              5 |
| [65535.11](#event-65535-11) | 0x00D7       |     15 |              3 |
| [65535.12](#event-65535-12) | 0x00E6       |     15 |              5 |
| [65535.13](#event-65535-13) | 0x00F5       |     19 |              5 |
| [65535.14](#event-65535-14) | 0x0108       |     19 |              5 |
| [65535.15](#event-65535-15) | 0x011B       |     20 |              6 |
| [15](#event-15)             | 0x012F       |     46 |             10 |
| [16](#event-16)             | 0x015D       |     46 |             10 |
| [17](#event-17)             | 0x018B       |     93 |             15 |
| [18](#event-18)             | 0x01E8       |     46 |             10 |
| [65535.16](#event-65535-16) | 0x0216       |      2 |              2 |
| [870](#event-870)           | 0x0218       |     34 |             10 |
| [879](#event-879)           | 0x023A       |     61 |             17 |

## DAT References (imed_data)

|   Index | Hex Value   |   Dec Value |
|---------|-------------|-------------|
|       0 | 0x4776      |       18294 |
|       1 | 0xFFFE8419  |  4294870041 |
|       2 | 0x07CF      |        1999 |
|       3 | 0x00F0      |         240 |
|       4 | 0x000D      |          13 |
|       5 | 0x52CE      |       21198 |
|       6 | 0xFFFE7ED1  |  4294868689 |
|       7 | 0x000B      |          11 |
|       8 | 0x5651      |       22097 |
|       9 | 0xFFFE7CB8  |  4294868152 |
|      10 | 0x2CBB      |       11451 |
|      11 | 0xFFFE8161  |  4294869345 |
|      12 | 0x4889      |       18569 |
|      13 | 0xFFFE839F  |  4294869919 |
|      14 | 0x0F62      |        3938 |
|      15 | 0x0028      |          40 |
|      16 | 0x3282      |       12930 |
|      17 | 0xFFFE86E6  |  4294870758 |
|      18 | 0x671B      |       26395 |
|      19 | 0xFFFE27D6  |  4294846422 |
|      20 | 0xFFFFE891  |  4294961297 |
|      21 | 0x05DD      |        1501 |
|      22 | 0x0000      |           0 |
|      23 | 0x000A      |          10 |
|      24 | 0x66DD      |       26333 |
|      25 | 0xFFFE1459  |  4294841433 |
|      26 | 0x6280      |       25216 |
|      27 | 0xFFFE1146  |  4294840646 |
|      28 | 0xFFFFE890  |  4294961296 |
|      29 | 0x0DA7      |        3495 |
|      30 | 0x68E4      |       26852 |
|      31 | 0xFFFE13A8  |  4294841256 |
|      32 | 0x6C5C      |       27740 |
|      33 | 0xFFFE2793  |  4294846355 |
|      34 | 0x0576      |        1398 |
|      35 | 0x000E      |          14 |
|      36 | 0x6A95      |       27285 |
|      37 | 0xFFFE2214  |  4294844948 |
|      38 | 0x6C36      |       27702 |
|      39 | 0xFFFE1E08  |  4294843912 |
|      40 | 0x0017      |          23 |
|      41 | 0x6A9A      |       27290 |
|      42 | 0xFFFE2102  |  4294844674 |
|      43 | 0x6FB8      |       28600 |
|      44 | 0xFFFE25FE  |  4294845950 |
|      45 | 0x0042      |          66 |
|      46 | 0x1303      |        4867 |
|      47 | 0x001E      |          30 |
|      48 | 0x0014      |          20 |
|      49 | 0x1304      |        4868 |
|      50 | 0x1305      |        4869 |
|      51 | 0x1306      |        4870 |
|      52 | 0x1307      |        4871 |
|      53 | 0x1C90      |        7312 |
|      54 | 0x1C91      |        7313 |
|      55 | 0x1CBD      |        7357 |
|      56 | 0x1CBE      |        7358 |
|      57 | 0x1CBF      |        7359 |
|      58 | 0x1CC0      |        7360 |
|      59 | 0x1CC1      |        7361 |

## Events

### Event 65535

#### Metadata

| Field        | Value   |
|--------------|---------|
| Entrypoint   | 0x0000  |
| Data Size    | 1 bytes |
| Instructions | 1       |

```
      00 01 02 03 04 05 06 07  08 09 0A 0B 0C 0D 0E 0F
      -- -- -- -- -- -- -- --  -- -- -- -- -- -- -- --
0000: 00                                                .               
```

#### Opcodes

```
  0: 0x0000 [0x00] END_REQSTACK()
```

### Event 1

#### Metadata

| Field        | Value    |
|--------------|----------|
| Entrypoint   | 0x0001   |
| Data Size    | 13 bytes |
| Instructions | 3        |

```
      00 01 02 03 04 05 06 07  08 09 0A 0B 0C 0D 0E 0F
      -- -- -- -- -- -- -- --  -- -- -- -- -- -- -- --
0000:    92 01 F8 FF FF 7F 94  01 F8 FF FF 7F 00         .............  
```

#### Opcodes

```
  0: 0x0001 [0x92] EventEntity->Render.Flags3 ^= 0x01
  1: 0x0007 [0x94] EventEntity->Render.Flags3 ^= 0x01
  2: 0x000D [0x00] END_REQSTACK()
```

### Event 2

#### Metadata

| Field        | Value    |
|--------------|----------|
| Entrypoint   | 0x000E   |
| Data Size    | 13 bytes |
| Instructions | 3        |

```
      00 01 02 03 04 05 06 07  08 09 0A 0B 0C 0D 0E 0F
      -- -- -- -- -- -- -- --  -- -- -- -- -- -- -- --
0000:                                            92 01                ..
0010: F8 FF FF 7F 94 01 F8 FF  FF 7F 00                 ...........     
```

#### Opcodes

```
  0: 0x000E [0x92] EventEntity->Render.Flags3 ^= 0x01
  1: 0x0014 [0x94] EventEntity->Render.Flags3 ^= 0x01
  2: 0x001A [0x00] END_REQSTACK()
```

### Event 3

#### Metadata

| Field        | Value    |
|--------------|----------|
| Entrypoint   | 0x001B   |
| Data Size    | 13 bytes |
| Instructions | 3        |

```
      00 01 02 03 04 05 06 07  08 09 0A 0B 0C 0D 0E 0F
      -- -- -- -- -- -- -- --  -- -- -- -- -- -- -- --
0010:                                   92 01 F8 FF FF             .....
0020: 7F 94 01 F8 FF FF 7F 00                           ........        
```

#### Opcodes

```
  0: 0x001B [0x92] EventEntity->Render.Flags3 ^= 0x01
  1: 0x0021 [0x94] EventEntity->Render.Flags3 ^= 0x01
  2: 0x0027 [0x00] END_REQSTACK()
```

### Event 65535.1

#### Metadata

| Field        | Value    |
|--------------|----------|
| Entrypoint   | 0x0028   |
| Data Size    | 15 bytes |
| Instructions | 3        |

```
      00 01 02 03 04 05 06 07  08 09 0A 0B 0C 0D 0E 0F
      -- -- -- -- -- -- -- --  -- -- -- -- -- -- -- --
0020:                          37 00 80 01 80 02 80 03          7.......
0030: 80 1E F0 FF FF 7F 00                              .......         
```

#### Opcodes

```
  0: 0x0028 [0x37] UPDATE_EVENT_POSITION_AND_DIR: x=18.294*, z=-97.255*, y=1.999*, direction=21.1°*
  1: 0x0031 [0x1E] EventEntity looks at LocalPlayer and starts talking
  2: 0x0036 [0x00] END_REQSTACK()
```

### Event 65535.2

#### Metadata

| Field        | Value    |
|--------------|----------|
| Entrypoint   | 0x0037   |
| Data Size    | 20 bytes |
| Instructions | 6        |

```
      00 01 02 03 04 05 06 07  08 09 0A 0B 0C 0D 0E 0F
      -- -- -- -- -- -- -- --  -- -- -- -- -- -- -- --
0030:                      32  04 80 1F 00 05 80 06 80         2........
0040: 02 80 1F 01 6F 1E F0 FF  FF 7F 00                 ....o......     
```

#### Opcodes

```
  0: 0x0037 [0x32] ExtData[1]->MainSpeed = 13* * 0.1
  1: 0x003A [0x1F] MOVE_ENTITY: EventEntity moves to X=21.198*, Z=-98.607*, Y=1.999*
  2: 0x0042 [0x1F] MOVE_ENTITY: Update entity position (mode=1)
  3: 0x0044 [0x6F] WAIT_FRAME_DELAY: Yield until WaitTime reaches zero
  4: 0x0045 [0x1E] EventEntity looks at LocalPlayer and starts talking
  5: 0x004A [0x00] END_REQSTACK()
```

### Event 65535.3

#### Metadata

| Field        | Value    |
|--------------|----------|
| Entrypoint   | 0x004B   |
| Data Size    | 15 bytes |
| Instructions | 5        |

```
      00 01 02 03 04 05 06 07  08 09 0A 0B 0C 0D 0E 0F
      -- -- -- -- -- -- -- --  -- -- -- -- -- -- -- --
0040:                                   32 07 80 1F 00             2....
0050: 08 80 09 80 02 80 1F 01  6F 00                    ........o.      
```

#### Opcodes

```
  0: 0x004B [0x32] ExtData[1]->MainSpeed = 11* * 0.1
  1: 0x004E [0x1F] MOVE_ENTITY: EventEntity moves to X=22.097*, Z=-99.144*, Y=1.999*
  2: 0x0056 [0x1F] MOVE_ENTITY: Update entity position (mode=1)
  3: 0x0058 [0x6F] WAIT_FRAME_DELAY: Yield until WaitTime reaches zero
  4: 0x0059 [0x00] END_REQSTACK()
```

### Event 65535.4

#### Metadata

| Field        | Value    |
|--------------|----------|
| Entrypoint   | 0x005A   |
| Data Size    | 20 bytes |
| Instructions | 6        |

```
      00 01 02 03 04 05 06 07  08 09 0A 0B 0C 0D 0E 0F
      -- -- -- -- -- -- -- --  -- -- -- -- -- -- -- --
0050:                                32 04 80 1F 00 0A            2.....
0060: 80 0B 80 02 80 1F 01 6F  1E F0 FF FF 7F 00        .......o......  
```

#### Opcodes

```
  0: 0x005A [0x32] ExtData[1]->MainSpeed = 13* * 0.1
  1: 0x005D [0x1F] MOVE_ENTITY: EventEntity moves to X=11.451*, Z=-97.951*, Y=1.999*
  2: 0x0065 [0x1F] MOVE_ENTITY: Update entity position (mode=1)
  3: 0x0067 [0x6F] WAIT_FRAME_DELAY: Yield until WaitTime reaches zero
  4: 0x0068 [0x1E] EventEntity looks at LocalPlayer and starts talking
  5: 0x006D [0x00] END_REQSTACK()
```

### Event 65535.5

#### Metadata

| Field        | Value    |
|--------------|----------|
| Entrypoint   | 0x006E   |
| Data Size    | 15 bytes |
| Instructions | 3        |

```
      00 01 02 03 04 05 06 07  08 09 0A 0B 0C 0D 0E 0F
      -- -- -- -- -- -- -- --  -- -- -- -- -- -- -- --
0060:                                            37 0C                7.
0070: 80 0D 80 02 80 0E 80 1E  F6 20 03 01 00           ......... ...   
```

#### Opcodes

```
  0: 0x006E [0x37] UPDATE_EVENT_POSITION_AND_DIR: x=18.569*, z=-97.377*, y=1.999*, direction=346.1°*
  1: 0x0077 [0x1E] EventEntity looks at Tinga-Matonga (ID: 16982262/0x010320F6) and starts talking
  2: 0x007C [0x00] END_REQSTACK()
```

### Event 65535.6

#### Metadata

| Field        | Value    |
|--------------|----------|
| Entrypoint   | 0x007D   |
| Data Size    | 19 bytes |
| Instructions | 5        |

```
      00 01 02 03 04 05 06 07  08 09 0A 0B 0C 0D 0E 0F
      -- -- -- -- -- -- -- --  -- -- -- -- -- -- -- --
0070:                                         32 0F 80               2..
0080: 1F 00 10 80 11 80 02 80  1F 01 1E F6 20 03 01 00  ............ ...
```

#### Opcodes

```
  0: 0x007D [0x32] ExtData[1]->MainSpeed = 40* * 0.1
  1: 0x0080 [0x1F] MOVE_ENTITY: EventEntity moves to X=12.930*, Z=-96.538*, Y=1.999*
  2: 0x0088 [0x1F] MOVE_ENTITY: Update entity position (mode=1)
  3: 0x008A [0x1E] EventEntity looks at Tinga-Matonga (ID: 16982262/0x010320F6) and starts talking
  4: 0x008F [0x00] END_REQSTACK()
```

### Event 65535.7

#### Metadata

| Field        | Value    |
|--------------|----------|
| Entrypoint   | 0x0090   |
| Data Size    | 18 bytes |
| Instructions | 4        |

```
      00 01 02 03 04 05 06 07  08 09 0A 0B 0C 0D 0E 0F
      -- -- -- -- -- -- -- --  -- -- -- -- -- -- -- --
0090: 37 12 80 13 80 14 80 15  80 95 16 80 1E F6 20 03  7............. .
00A0: 01 00                                             ..              
```

#### Opcodes

```
  0: 0x0090 [0x37] UPDATE_EVENT_POSITION_AND_DIR: x=26.395*, z=-120.874*, y=-5.999*, direction=131.9°*
  1: 0x0099 [0x95] SETUP_EVENT_NPC: Prepare NPC for event (Render.Flags3 = 0*)
  2: 0x009C [0x1E] EventEntity looks at Tinga-Matonga (ID: 16982262/0x010320F6) and starts talking
  3: 0x00A1 [0x00] END_REQSTACK()
```

### Event 65535.8

#### Metadata

| Field        | Value    |
|--------------|----------|
| Entrypoint   | 0x00A2   |
| Data Size    | 19 bytes |
| Instructions | 5        |

```
      00 01 02 03 04 05 06 07  08 09 0A 0B 0C 0D 0E 0F
      -- -- -- -- -- -- -- --  -- -- -- -- -- -- -- --
00A0:       32 17 80 1F 00 18  80 19 80 14 80 1F 01 1E    2.............
00B0: F6 20 03 01 00                                    . ...           
```

#### Opcodes

```
  0: 0x00A2 [0x32] ExtData[1]->MainSpeed = 10* * 0.1
  1: 0x00A5 [0x1F] MOVE_ENTITY: EventEntity moves to X=26.333*, Z=-125.863*, Y=-5.999*
  2: 0x00AD [0x1F] MOVE_ENTITY: Update entity position (mode=1)
  3: 0x00AF [0x1E] EventEntity looks at Tinga-Matonga (ID: 16982262/0x010320F6) and starts talking
  4: 0x00B4 [0x00] END_REQSTACK()
```

### Event 65535.9

#### Metadata

| Field        | Value    |
|--------------|----------|
| Entrypoint   | 0x00B5   |
| Data Size    | 15 bytes |
| Instructions | 3        |

```
      00 01 02 03 04 05 06 07  08 09 0A 0B 0C 0D 0E 0F
      -- -- -- -- -- -- -- --  -- -- -- -- -- -- -- --
00B0:                37 1A 80  1B 80 1C 80 1D 80 1E F8       7..........
00C0: 20 03 01 00                                        ...            
```

#### Opcodes

```
  0: 0x00B5 [0x37] UPDATE_EVENT_POSITION_AND_DIR: x=25.216*, z=-126.650*, y=-6.000*, direction=307.2°*
  1: 0x00BE [0x1E] EventEntity looks at Ratihb (ID: 16982264/0x010320F8) and starts talking
  2: 0x00C3 [0x00] END_REQSTACK()
```

### Event 65535.10

#### Metadata

| Field        | Value    |
|--------------|----------|
| Entrypoint   | 0x00C4   |
| Data Size    | 19 bytes |
| Instructions | 5        |

```
      00 01 02 03 04 05 06 07  08 09 0A 0B 0C 0D 0E 0F
      -- -- -- -- -- -- -- --  -- -- -- -- -- -- -- --
00C0:             32 04 80 1F  00 1E 80 1F 80 14 80 1F      2...........
00D0: 01 1E F7 20 03 01 00                              ... ...         
```

#### Opcodes

```
  0: 0x00C4 [0x32] ExtData[1]->MainSpeed = 13* * 0.1
  1: 0x00C7 [0x1F] MOVE_ENTITY: EventEntity moves to X=26.852*, Z=-126.040*, Y=-5.999*
  2: 0x00CF [0x1F] MOVE_ENTITY: Update entity position (mode=1)
  3: 0x00D1 [0x1E] EventEntity looks at Alcander (ID: 16982263/0x010320F7) and starts talking
  4: 0x00D6 [0x00] END_REQSTACK()
```

### Event 65535.11

#### Metadata

| Field        | Value    |
|--------------|----------|
| Entrypoint   | 0x00D7   |
| Data Size    | 15 bytes |
| Instructions | 3        |

```
      00 01 02 03 04 05 06 07  08 09 0A 0B 0C 0D 0E 0F
      -- -- -- -- -- -- -- --  -- -- -- -- -- -- -- --
00D0:                      37  20 80 21 80 14 80 22 80         7 .!...".
00E0: 1E F7 20 03 01 00                                 .. ...          
```

#### Opcodes

```
  0: 0x00D7 [0x37] UPDATE_EVENT_POSITION_AND_DIR: x=27.740*, z=-120.941*, y=-5.999*, direction=122.9°*
  1: 0x00E0 [0x1E] EventEntity looks at Alcander (ID: 16982263/0x010320F7) and starts talking
  2: 0x00E5 [0x00] END_REQSTACK()
```

### Event 65535.12

#### Metadata

| Field        | Value    |
|--------------|----------|
| Entrypoint   | 0x00E6   |
| Data Size    | 15 bytes |
| Instructions | 5        |

```
      00 01 02 03 04 05 06 07  08 09 0A 0B 0C 0D 0E 0F
      -- -- -- -- -- -- -- --  -- -- -- -- -- -- -- --
00E0:                   32 23  80 1F 00 24 80 25 80 14        2#...$.%..
00F0: 80 1F 01 6F 00                                    ...o.           
```

#### Opcodes

```
  0: 0x00E6 [0x32] ExtData[1]->MainSpeed = 14* * 0.1
  1: 0x00E9 [0x1F] MOVE_ENTITY: EventEntity moves to X=27.285*, Z=-122.348*, Y=-5.999*
  2: 0x00F1 [0x1F] MOVE_ENTITY: Update entity position (mode=1)
  3: 0x00F3 [0x6F] WAIT_FRAME_DELAY: Yield until WaitTime reaches zero
  4: 0x00F4 [0x00] END_REQSTACK()
```

### Event 65535.13

#### Metadata

| Field        | Value    |
|--------------|----------|
| Entrypoint   | 0x00F5   |
| Data Size    | 19 bytes |
| Instructions | 5        |

```
      00 01 02 03 04 05 06 07  08 09 0A 0B 0C 0D 0E 0F
      -- -- -- -- -- -- -- --  -- -- -- -- -- -- -- --
00F0:                32 04 80  1F 00 26 80 27 80 1C 80       2....&.'...
0100: 1F 01 1E F6 20 03 01 00                           .... ...        
```

#### Opcodes

```
  0: 0x00F5 [0x32] ExtData[1]->MainSpeed = 13* * 0.1
  1: 0x00F8 [0x1F] MOVE_ENTITY: EventEntity moves to X=27.702*, Z=-123.384*, Y=-6.000*
  2: 0x0100 [0x1F] MOVE_ENTITY: Update entity position (mode=1)
  3: 0x0102 [0x1E] EventEntity looks at Tinga-Matonga (ID: 16982262/0x010320F6) and starts talking
  4: 0x0107 [0x00] END_REQSTACK()
```

### Event 65535.14

#### Metadata

| Field        | Value    |
|--------------|----------|
| Entrypoint   | 0x0108   |
| Data Size    | 19 bytes |
| Instructions | 5        |

```
      00 01 02 03 04 05 06 07  08 09 0A 0B 0C 0D 0E 0F
      -- -- -- -- -- -- -- --  -- -- -- -- -- -- -- --
0100:                          32 28 80 1F 00 29 80 2A          2(...).*
0110: 80 1C 80 1F 01 1E F6 20  03 01 00                 ....... ...     
```

#### Opcodes

```
  0: 0x0108 [0x32] ExtData[1]->MainSpeed = 23* * 0.1
  1: 0x010B [0x1F] MOVE_ENTITY: EventEntity moves to X=27.290*, Z=-122.622*, Y=-6.000*
  2: 0x0113 [0x1F] MOVE_ENTITY: Update entity position (mode=1)
  3: 0x0115 [0x1E] EventEntity looks at Tinga-Matonga (ID: 16982262/0x010320F6) and starts talking
  4: 0x011A [0x00] END_REQSTACK()
```

### Event 65535.15

#### Metadata

| Field        | Value    |
|--------------|----------|
| Entrypoint   | 0x011B   |
| Data Size    | 20 bytes |
| Instructions | 6        |

```
      00 01 02 03 04 05 06 07  08 09 0A 0B 0C 0D 0E 0F
      -- -- -- -- -- -- -- --  -- -- -- -- -- -- -- --
0110:                                   32 0F 80 1F 00             2....
0120: 2B 80 2C 80 1C 80 1F 01  6F 1E F0 FF FF 7F 00     +.,.....o...... 
```

#### Opcodes

```
  0: 0x011B [0x32] ExtData[1]->MainSpeed = 40* * 0.1
  1: 0x011E [0x1F] MOVE_ENTITY: EventEntity moves to X=28.600*, Z=-121.346*, Y=-6.000*
  2: 0x0126 [0x1F] MOVE_ENTITY: Update entity position (mode=1)
  3: 0x0128 [0x6F] WAIT_FRAME_DELAY: Yield until WaitTime reaches zero
  4: 0x0129 [0x1E] EventEntity looks at LocalPlayer and starts talking
  5: 0x012E [0x00] END_REQSTACK()
```

### Event 15

#### Metadata

| Field        | Value    |
|--------------|----------|
| Entrypoint   | 0x012F   |
| Data Size    | 46 bytes |
| Instructions | 10       |

```
      00 01 02 03 04 05 06 07  08 09 0A 0B 0C 0D 0E 0F
      -- -- -- -- -- -- -- --  -- -- -- -- -- -- -- --
0120:                                               1E                 .
0130: F0 FF FF 7F 6F 70 66 2D  80 F5 20 03 01 F5 20 03  ....opf-.. ... .
0140: 01 74 6C 63 30 1D 2E 80  23 66 2D 80 F5 20 03 01  .tlc0...#f-.. ..
0150: F5 20 03 01 74 6C 63 31  1C 2F 80 21 00           . ..tlc1./.!.   
```

#### Opcodes

```
  0: 0x012F [0x1E] EventEntity looks at LocalPlayer and starts talking
  1: 0x0134 [0x6F] WAIT_FRAME_DELAY: Yield until WaitTime reaches zero
  2: 0x0135 [0x70] WAIT_ENTITY_RENDER_FLAG: Wait while EventEntity->Render.Flags3 bit 2 is set (cancel turn if not)
  3: 0x0136 [0x66] LOAD_EXT_SCHEDULER_MAIN: Load scheduler "tlc0" with entities [Ahaadah (ID: 16982261/0x010320F5), Ahaadah (ID: 16982261/0x010320F5)], work=66*
  4: 0x0145 [0x1D] PRINT_EVENT_MESSAGE(message_id=4867*)
    → "Meet me at Port Al Zahbi towards the south of town. Tinga spends much of his time there, and a little performance may be enough to draw the attention of our little fugitive.\u007F1\u0000\u0007"
  5: 0x0148 [0x23] WAIT_FOR_DIALOG_INTERACTION
  6: 0x0149 [0x66] LOAD_EXT_SCHEDULER_MAIN: Load scheduler "tlc1" with entities [Ahaadah (ID: 16982261/0x010320F5), Ahaadah (ID: 16982261/0x010320F5)], work=66*
  7: 0x0158 [0x1C] WAIT(30* ticks)
  8: 0x015B [0x21] END_EVENT
  9: 0x015C [0x00] END_REQSTACK()
```

### Event 16

#### Metadata

| Field        | Value    |
|--------------|----------|
| Entrypoint   | 0x015D   |
| Data Size    | 46 bytes |
| Instructions | 10       |

```
      00 01 02 03 04 05 06 07  08 09 0A 0B 0C 0D 0E 0F
      -- -- -- -- -- -- -- --  -- -- -- -- -- -- -- --
0150:                                         1E F0 FF               ...
0160: FF 7F 6F 70 66 30 80 F5  20 03 01 F5 20 03 01 74  ..opf0.. ... ..t
0170: 6C 6B 30 1D 31 80 23 66  30 80 F5 20 03 01 F5 20  lk0.1.#f0.. ... 
0180: 03 01 74 6C 6B 31 1C 2F  80 21 00                 ..tlk1./.!.     
```

#### Opcodes

```
  0: 0x015D [0x1E] EventEntity looks at LocalPlayer and starts talking
  1: 0x0162 [0x6F] WAIT_FRAME_DELAY: Yield until WaitTime reaches zero
  2: 0x0163 [0x70] WAIT_ENTITY_RENDER_FLAG: Wait while EventEntity->Render.Flags3 bit 2 is set (cancel turn if not)
  3: 0x0164 [0x66] LOAD_EXT_SCHEDULER_MAIN: Load scheduler "tlk0" with entities [Ahaadah (ID: 16982261/0x010320F5), Ahaadah (ID: 16982261/0x010320F5)], work=20*
  4: 0x0173 [0x1D] PRINT_EVENT_MESSAGE(message_id=4868*)
    → "My apologies. I was accosted by a customer. Tinga should be running around the port somewhere. I shall join you in the chase momentarily.\u007F1\u0000\u0007"
  5: 0x0176 [0x23] WAIT_FOR_DIALOG_INTERACTION
  6: 0x0177 [0x66] LOAD_EXT_SCHEDULER_MAIN: Load scheduler "tlk1" with entities [Ahaadah (ID: 16982261/0x010320F5), Ahaadah (ID: 16982261/0x010320F5)], work=20*
  7: 0x0186 [0x1C] WAIT(30* ticks)
  8: 0x0189 [0x21] END_EVENT
  9: 0x018A [0x00] END_REQSTACK()
```

### Event 17

#### Metadata

| Field        | Value    |
|--------------|----------|
| Entrypoint   | 0x018B   |
| Data Size    | 93 bytes |
| Instructions | 15       |

```
      00 01 02 03 04 05 06 07  08 09 0A 0B 0C 0D 0E 0F
      -- -- -- -- -- -- -- --  -- -- -- -- -- -- -- --
0180:                                   1E F0 FF FF 7F             .....
0190: 6F 70 66 30 80 F5 20 03  01 F5 20 03 01 74 68 6B  opf0.. ... ..thk
01A0: 31 1D 32 80 23 66 30 80  F5 20 03 01 F5 20 03 01  1.2.#f0.. ... ..
01B0: 74 68 6B 32 53 F5 20 03  01 F5 20 03 01 74 68 6B  thk2S. ... ..thk
01C0: 32 66 30 80 F5 20 03 01  F5 20 03 01 74 6C 6B 30  2f0.. ... ..tlk0
01D0: 1D 33 80 23 66 30 80 F5  20 03 01 F5 20 03 01 74  .3.#f0.. ... ..t
01E0: 6C 6B 31 1C 2F 80 21 00                           lk1./.!.        
```

#### Opcodes

```
  0: 0x018B [0x1E] EventEntity looks at LocalPlayer and starts talking
  1: 0x0190 [0x6F] WAIT_FRAME_DELAY: Yield until WaitTime reaches zero
  2: 0x0191 [0x70] WAIT_ENTITY_RENDER_FLAG: Wait while EventEntity->Render.Flags3 bit 2 is set (cancel turn if not)
  3: 0x0192 [0x66] LOAD_EXT_SCHEDULER_MAIN: Load scheduler "thk1" with entities [Ahaadah (ID: 16982261/0x010320F5), Ahaadah (ID: 16982261/0x010320F5)], work=20*
  4: 0x01A1 [0x1D] PRINT_EVENT_MESSAGE(message_id=4869*)
    → "Tinga must have followed Alcander out into Bhaflau Thickets.\u0007They probably haven't gone far.\u007F1\u0000\u0007"
  5: 0x01A4 [0x23] WAIT_FOR_DIALOG_INTERACTION
  6: 0x01A5 [0x66] LOAD_EXT_SCHEDULER_MAIN: Load scheduler "thk2" with entities [Ahaadah (ID: 16982261/0x010320F5), Ahaadah (ID: 16982261/0x010320F5)], work=20*
  7: 0x01B4 [0x53] WAIT_SCHEDULER_TASK: Wait for scheduler "thk2" with entities [Ahaadah (ID: 16982261/0x010320F5), Ahaadah (ID: 16982261/0x010320F5)]
  8: 0x01C1 [0x66] LOAD_EXT_SCHEDULER_MAIN: Load scheduler "tlk0" with entities [Ahaadah (ID: 16982261/0x010320F5), Ahaadah (ID: 16982261/0x010320F5)], work=20*
  9: 0x01D0 [0x1D] PRINT_EVENT_MESSAGE(message_id=4870*)
    → "You are their only hope.\u0007Alcander may have once been an adventurer, but his illness...\u0007He is in no shape to defend himself from the savage creatures out there...\u007F6\u0002\u0007You must hurry!\u007F1\u0000\u0007"
 10: 0x01D3 [0x23] WAIT_FOR_DIALOG_INTERACTION
 11: 0x01D4 [0x66] LOAD_EXT_SCHEDULER_MAIN: Load scheduler "tlk1" with entities [Ahaadah (ID: 16982261/0x010320F5), Ahaadah (ID: 16982261/0x010320F5)], work=20*
 12: 0x01E3 [0x1C] WAIT(30* ticks)
 13: 0x01E6 [0x21] END_EVENT
 14: 0x01E7 [0x00] END_REQSTACK()
```

### Event 18

#### Metadata

| Field        | Value    |
|--------------|----------|
| Entrypoint   | 0x01E8   |
| Data Size    | 46 bytes |
| Instructions | 10       |

```
      00 01 02 03 04 05 06 07  08 09 0A 0B 0C 0D 0E 0F
      -- -- -- -- -- -- -- --  -- -- -- -- -- -- -- --
01E0:                          1E F0 FF FF 7F 6F 70 66          .....opf
01F0: 2D 80 F5 20 03 01 F5 20  03 01 73 74 64 30 1D 34  -.. ... ..std0.4
0200: 80 23 66 2D 80 F5 20 03  01 F5 20 03 01 73 74 64  .#f-.. ... ..std
0210: 31 1C 2F 80 21 00                                 1./.!.          
```

#### Opcodes

```
  0: 0x01E8 [0x1E] EventEntity looks at LocalPlayer and starts talking
  1: 0x01ED [0x6F] WAIT_FRAME_DELAY: Yield until WaitTime reaches zero
  2: 0x01EE [0x70] WAIT_ENTITY_RENDER_FLAG: Wait while EventEntity->Render.Flags3 bit 2 is set (cancel turn if not)
  3: 0x01EF [0x66] LOAD_EXT_SCHEDULER_MAIN: Load scheduler "std0" with entities [Ahaadah (ID: 16982261/0x010320F5), Ahaadah (ID: 16982261/0x010320F5)], work=66*
  4: 0x01FE [0x1D] PRINT_EVENT_MESSAGE(message_id=4871*)
    → "Alcander and Tinga are safe? That is good news.\u0007And they have begun a journey to search for a cure?\u0007I do hope they find one...\u007F1\u0000\u0007"
  5: 0x0201 [0x23] WAIT_FOR_DIALOG_INTERACTION
  6: 0x0202 [0x66] LOAD_EXT_SCHEDULER_MAIN: Load scheduler "std1" with entities [Ahaadah (ID: 16982261/0x010320F5), Ahaadah (ID: 16982261/0x010320F5)], work=66*
  7: 0x0211 [0x1C] WAIT(30* ticks)
  8: 0x0214 [0x21] END_EVENT
  9: 0x0215 [0x00] END_REQSTACK()
```

### Event 65535.16

#### Metadata

| Field        | Value   |
|--------------|---------|
| Entrypoint   | 0x0216  |
| Data Size    | 2 bytes |
| Instructions | 2       |

```
      00 01 02 03 04 05 06 07  08 09 0A 0B 0C 0D 0E 0F
      -- -- -- -- -- -- -- --  -- -- -- -- -- -- -- --
0210:                   96 00                                 ..        
```

#### Opcodes

```
  0: 0x0216 [0x96] UNSET_EVENT_NPC: Restore NPC after event (removes event NPC status)
  1: 0x0217 [0x00] END_REQSTACK()
```

### Event 870

#### Metadata

| Field        | Value    |
|--------------|----------|
| Entrypoint   | 0x0218   |
| Data Size    | 34 bytes |
| Instructions | 10       |

```
      00 01 02 03 04 05 06 07  08 09 0A 0B 0C 0D 0E 0F
      -- -- -- -- -- -- -- --  -- -- -- -- -- -- -- --
0210:                          42 1E F0 FF FF 7F 1C 2F          B....../
0220: 80 66 30 80 F5 20 03 01  F5 20 03 01 74 6C 6B 30  .f0.. ... ..tlk0
0230: 1D 35 80 23 1D 36 80 23  21 00                    .5.#.6.#!.      
```

#### Opcodes

```
  0: 0x0218 [0x42] SET_CLI_EVENT_CANCEL_DATA()
  1: 0x0219 [0x1E] EventEntity looks at LocalPlayer and starts talking
  2: 0x021E [0x1C] WAIT(30* ticks)
  3: 0x0221 [0x66] LOAD_EXT_SCHEDULER_MAIN: Load scheduler "tlk0" with entities [Ahaadah (ID: 16982261/0x010320F5), Ahaadah (ID: 16982261/0x010320F5)], work=20*
  4: 0x0230 [0x1D] PRINT_EVENT_MESSAGE(message_id=7312*)
    → "Our new apprentice has been acting quite strange lately. Every night, he leaves the laboratory for a few hours.\u007F1\u0000\u0007"
  5: 0x0233 [0x23] WAIT_FOR_DIALOG_INTERACTION
  6: 0x0234 [0x1D] PRINT_EVENT_MESSAGE(message_id=7313*)
    → "None of our suppliers are open, so he cannot be purchasing ingredients... I wonder what in Altana's name he could be up to.\u007F1\u0000\u0007"
  7: 0x0237 [0x23] WAIT_FOR_DIALOG_INTERACTION
  8: 0x0238 [0x21] END_EVENT
  9: 0x0239 [0x00] END_REQSTACK()
```

### Event 879

#### Metadata

| Field        | Value    |
|--------------|----------|
| Entrypoint   | 0x023A   |
| Data Size    | 61 bytes |
| Instructions | 17       |

```
      00 01 02 03 04 05 06 07  08 09 0A 0B 0C 0D 0E 0F
      -- -- -- -- -- -- -- --  -- -- -- -- -- -- -- --
0230:                                42 1E F0 FF FF 7F            B.....
0240: 1C 2F 80 1D 37 80 23 66  30 80 F5 20 03 01 F5 20  ./..7.#f0.. ... 
0250: 03 01 74 6C 6B 30 1D 38  80 23 1D 39 80 23 1D 3A  ..tlk0.8.#.9.#.:
0260: 80 23 66 30 80 F5 20 03  01 F5 20 03 01 74 6C 6B  .#f0.. ... ..tlk
0270: 31 1D 3B 80 23 21 00                              1.;.#!.         
```

#### Opcodes

```
  0: 0x023A [0x42] SET_CLI_EVENT_CANCEL_DATA()
  1: 0x023B [0x1E] EventEntity looks at LocalPlayer and starts talking
  2: 0x0240 [0x1C] WAIT(30* ticks)
  3: 0x0243 [0x1D] PRINT_EVENT_MESSAGE(message_id=7357*)
    → "Just the other day, an old man with a strange mechanical contraption stopped by our guild.\u007F1\u0000\u0007"
  4: 0x0246 [0x23] WAIT_FOR_DIALOG_INTERACTION
  5: 0x0247 [0x66] LOAD_EXT_SCHEDULER_MAIN: Load scheduler "tlk0" with entities [Ahaadah (ID: 16982261/0x010320F5), Ahaadah (ID: 16982261/0x010320F5)], work=20*
  6: 0x0256 [0x1D] PRINT_EVENT_MESSAGE(message_id=7358*)
    → "He started going on about one of my apprentices stealing catalysts and secretly selling them on the black market. I was about to send for the authorities when he urged me to peer into his picture box.\u007F1\u0000\u0007"
  7: 0x0259 [0x23] WAIT_FOR_DIALOG_INTERACTION
  8: 0x025A [0x1D] PRINT_EVENT_MESSAGE(message_id=7359*)
    → "And that's when I saw the most amazing thing...\u0007But I couldn't be sure if my student was stealing, or merely slipping away for a few hours every night to call upon a forbidden lover. So, I decided to follow him and see what was truly occurring.\u007F1\u0000\u0007"
  9: 0x025D [0x23] WAIT_FOR_DIALOG_INTERACTION
 10: 0x025E [0x1D] PRINT_EVENT_MESSAGE(message_id=7360*)
    → "And lo and behold, I spied my young boy handing a package of herbs to a man all dressed in black. That is when I stepped from the shadows and confronted them both!\u007F1\u0000\u0007"
 11: 0x0261 [0x23] WAIT_FOR_DIALOG_INTERACTION
 12: 0x0262 [0x66] LOAD_EXT_SCHEDULER_MAIN: Load scheduler "tlk1" with entities [Ahaadah (ID: 16982261/0x010320F5), Ahaadah (ID: 16982261/0x010320F5)], work=20*
 13: 0x0271 [0x1D] PRINT_EVENT_MESSAGE(message_id=7361*)
    → "But after hearing that the man in black was not a merchant, but simply a poor soul who had asked my boy to bring him medicine for his sick mother, I decided to let him go back to his home with the package...the payment of which, of course, will be coming out of my apprentice's pay!\u007F1\u0000\u0007"
 14: 0x0274 [0x23] WAIT_FOR_DIALOG_INTERACTION
 15: 0x0275 [0x21] END_EVENT
 16: 0x0276 [0x00] END_REQSTACK()
```
