# 16982336

## Common Data

| Field            | Value                         |
|------------------|-------------------------------|
| Zone             | Aht Urhgan Whitegate (ID: 50) |
| Block Size       | 62608 bytes                   |
| Total Events     | 34                            |
| References Count | 879                           |

## List of Events

| Event ID              | Entrypoint   |   Size |   Instructions |
|-----------------------|--------------|--------|----------------|
| [65535](#event-65535) | 0x0000       |      1 |              1 |
| [545](#event-545)     | 0x0001       |    675 |             74 |
| [546](#event-546)     | 0x02A4       |   8325 |           1033 |
| [561](#event-561)     | 0x2329       |    308 |             35 |
| [571](#event-571)     | 0x245D       |    282 |             33 |
| [566](#event-566)     | 0x2577       |   3210 |            399 |
| [568](#event-568)     | 0x3201       |   1560 |            319 |
| [570](#event-570)     | 0x3819       |   1291 |            194 |
| [799](#event-799)     | 0x3D24       |   1983 |            241 |
| [577](#event-577)     | 0x44E3       |   1826 |            326 |
| [578](#event-578)     | 0x4C05       |   1978 |            304 |
| [579](#event-579)     | 0x53BF       |    892 |            105 |
| [580](#event-580)     | 0x573B       |   1672 |            211 |
| [576](#event-576)     | 0x5DC3       |   1268 |            146 |
| [620](#event-620)     | 0x62B7       |   2326 |            285 |
| [621](#event-621)     | 0x6BCD       |    253 |             32 |
| [627](#event-627)     | 0x6CCA       |   1188 |            132 |
| [262](#event-262)     | 0x716E       |   1192 |            150 |
| [264](#event-264)     | 0x7616       |    366 |             47 |
| [265](#event-265)     | 0x7784       |    487 |             60 |
| [800](#event-800)     | 0x796B       |   1783 |            243 |
| [802](#event-802)     | 0x8062       |   2535 |            305 |
| [803](#event-803)     | 0x8A49       |   2022 |            261 |
| [805](#event-805)     | 0x922F       |   1341 |            153 |
| [3095](#event-3095)   | 0x976C       |   6476 |            774 |
| [836](#event-836)     | 0xB0B8       |   2706 |            317 |
| [838](#event-838)     | 0xBB4A       |   1187 |            150 |
| [840](#event-840)     | 0xBFED       |   1403 |            168 |
| [843](#event-843)     | 0xC568       |   2485 |            270 |
| [845](#event-845)     | 0xCF1D       |   3819 |            447 |
| [900](#event-900)     | 0xDE08       |   1077 |            136 |
| [901](#event-901)     | 0xE23D       |    454 |             59 |
| [902](#event-902)     | 0xE403       |    272 |             36 |
| [905](#event-905)     | 0xE513       |    294 |             41 |

## DAT References (imed_data)

|   Index | Hex Value   |   Dec Value |
|---------|-------------|-------------|
|       0 | 0x00C8      |         200 |
|       1 | 0x0000      |           0 |
|       2 | 0x001B      |          27 |
|       3 | 0x00FD      |         253 |
|       4 | 0x003C      |          60 |
|       5 | 0x13FF      |        5119 |
|       6 | 0x1400      |        5120 |
|       7 | 0x1401      |        5121 |
|       8 | 0x1402      |        5122 |
|       9 | 0x0305      |         773 |
|      10 | 0x1403      |        5123 |
|      11 | 0x1404      |        5124 |
|      12 | 0x1405      |        5125 |
|      13 | 0x00C9      |         201 |
|      14 | 0x00FF      |         255 |
|      15 | 0x0078      |         120 |
|      16 | 0x1406      |        5126 |
|      17 | 0x1407      |        5127 |
|      18 | 0x1408      |        5128 |
|      19 | 0x00FE      |         254 |
|      20 | 0x1409      |        5129 |
|      21 | 0x0001      |           1 |
|      22 | 0x1446      |        5190 |
|      23 | 0x0002      |           2 |
|      24 | 0x0003      |           3 |
|      25 | 0x0004      |           4 |
|      26 | 0x0005      |           5 |
|      27 | 0x0006      |           6 |
|      28 | 0x0007      |           7 |
|      29 | 0x140C      |        5132 |
|      30 | 0x007A      |         122 |
|      31 | 0x001E      |          30 |
|      32 | 0x142C      |        5164 |
|      33 | 0x142D      |        5165 |
|      34 | 0x142E      |        5166 |
|      35 | 0x142F      |        5167 |
|      36 | 0x1430      |        5168 |
|      37 | 0x140D      |        5133 |
|      38 | 0x0190      |         400 |
|      39 | 0x140F      |        5135 |
|      40 | 0x022D      |         557 |
|      41 | 0x1411      |        5137 |
|      42 | 0x140E      |        5134 |
|      43 | 0x1410      |        5136 |
|      44 | 0x141B      |        5147 |
|      45 | 0x1006      |        4102 |
|      46 | 0x141C      |        5148 |
|      47 | 0x141D      |        5149 |
|      48 | 0x141E      |        5150 |
|      49 | 0x141F      |        5151 |
|      50 | 0x100E      |        4110 |
|      51 | 0x1420      |        5152 |
|      52 | 0x1421      |        5153 |
|      53 | 0x003D      |          61 |
|      54 | 0x000F      |          15 |
|      55 | 0x1422      |        5154 |
|      56 | 0x1423      |        5155 |
|      57 | 0x1429      |        5161 |
|      58 | 0x142A      |        5162 |
|      59 | 0x142B      |        5163 |
|      60 | 0x1431      |        5169 |
|      61 | 0x1432      |        5170 |
|      62 | 0x1433      |        5171 |
|      63 | 0x1434      |        5172 |
|      64 | 0x1435      |        5173 |
|      65 | 0x1436      |        5174 |
|      66 | 0x00F0      |         240 |
|      67 | 0x1437      |        5175 |
|      68 | 0x1438      |        5176 |
|      69 | 0x00B4      |         180 |
|      70 | 0x1439      |        5177 |
|      71 | 0x143A      |        5178 |
|      72 | 0x143B      |        5179 |
|      73 | 0x143C      |        5180 |
|      74 | 0x0014      |          20 |
|      75 | 0x143D      |        5181 |
|      76 | 0x143E      |        5182 |
|      77 | 0x143F      |        5183 |
|      78 | 0x1440      |        5184 |
|      79 | 0x1441      |        5185 |
|      80 | 0x1442      |        5186 |
|      81 | 0x00B2      |         178 |
|      82 | 0x088B      |        2187 |
|      83 | 0x1448      |        5192 |
|      84 | 0x1449      |        5193 |
|      85 | 0x144A      |        5194 |
|      86 | 0x001D      |          29 |
|      87 | 0x1A82      |        6786 |
|      88 | 0x1A83      |        6787 |
|      89 | 0x1A84      |        6788 |
|      90 | 0x1A85      |        6789 |
|      91 | 0x1A86      |        6790 |
|      92 | 0x1A87      |        6791 |
|      93 | 0x1A88      |        6792 |
|      94 | 0x1A93      |        6803 |
|      95 | 0x1B0F      |        6927 |
|      96 | 0x1AB7      |        6839 |
|      97 | 0x1AE7      |        6887 |
|      98 | 0x1AE8      |        6888 |
|      99 | 0x1A9D      |        6813 |
|     100 | 0x1AE9      |        6889 |
|     101 | 0x1AEA      |        6890 |
|     102 | 0x1AEB      |        6891 |
|     103 | 0x1AEC      |        6892 |
|     104 | 0x1AED      |        6893 |
|     105 | 0x1AEE      |        6894 |
|     106 | 0x1B10      |        6928 |
|     107 | 0x1AEF      |        6895 |
|     108 | 0x1AF0      |        6896 |
|     109 | 0x1AF1      |        6897 |
|     110 | 0x0020      |          32 |
|     111 | 0x1AF2      |        6898 |
|     112 | 0x1AF3      |        6899 |
|     113 | 0x1AF4      |        6900 |
|     114 | 0x1AF5      |        6901 |
|     115 | 0x1AF6      |        6902 |
|     116 | 0x0036      |          54 |
|     117 | 0x0009      |           9 |
|     118 | 0x00C7      |         199 |
|     119 | 0x1AF7      |        6903 |
|     120 | 0x0032      |          50 |
|     121 | 0x1AF8      |        6904 |
|     122 | 0x1AF9      |        6905 |
|     123 | 0x1AFA      |        6906 |
|     124 | 0x1AFB      |        6907 |
|     125 | 0x1AFC      |        6908 |
|     126 | 0x1AFD      |        6909 |
|     127 | 0x003E      |          62 |
|     128 | 0x1AFE      |        6910 |
|     129 | 0x1AFF      |        6911 |
|     130 | 0x1B00      |        6912 |
|     131 | 0x1B01      |        6913 |
|     132 | 0x1B02      |        6914 |
|     133 | 0x1B03      |        6915 |
|     134 | 0x0041      |          65 |
|     135 | 0x1B04      |        6916 |
|     136 | 0x1A92      |        6802 |
|     137 | 0x1A89      |        6793 |
|     138 | 0x1A8A      |        6794 |
|     139 | 0x1A8B      |        6795 |
|     140 | 0x1A8C      |        6796 |
|     141 | 0x1A8D      |        6797 |
|     142 | 0x1A8E      |        6798 |
|     143 | 0x1A8F      |        6799 |
|     144 | 0x1A90      |        6800 |
|     145 | 0x1A91      |        6801 |
|     146 | 0x1B05      |        6917 |
|     147 | 0x1A95      |        6805 |
|     148 | 0x1A96      |        6806 |
|     149 | 0x0008      |           8 |
|     150 | 0x1A99      |        6809 |
|     151 | 0x1A9A      |        6810 |
|     152 | 0x1A97      |        6807 |
|     153 | 0x1A9B      |        6811 |
|     154 | 0x1A98      |        6808 |
|     155 | 0x1A9C      |        6812 |
|     156 | 0x1B06      |        6918 |
|     157 | 0x1B09      |        6921 |
|     158 | 0x1B07      |        6919 |
|     159 | 0x1B0A      |        6922 |
|     160 | 0x1B08      |        6920 |
|     161 | 0x1B0B      |        6923 |
|     162 | 0x1B0C      |        6924 |
|     163 | 0x1A9E      |        6814 |
|     164 | 0x1B0D      |        6925 |
|     165 | 0x1AA0      |        6816 |
|     166 | 0x1AA8      |        6824 |
|     167 | 0x000B      |          11 |
|     168 | 0x1AAA      |        6826 |
|     169 | 0x1AA9      |        6825 |
|     170 | 0x1AA1      |        6817 |
|     171 | 0x1AA3      |        6819 |
|     172 | 0x1AA5      |        6821 |
|     173 | 0x1AAB      |        6827 |
|     174 | 0x1AAC      |        6828 |
|     175 | 0x1AAD      |        6829 |
|     176 | 0x1AAE      |        6830 |
|     177 | 0x1AAF      |        6831 |
|     178 | 0x1AB0      |        6832 |
|     179 | 0x1AB2      |        6834 |
|     180 | 0x1AB1      |        6833 |
|     181 | 0x1AA2      |        6818 |
|     182 | 0x1AA4      |        6820 |
|     183 | 0x1AA6      |        6822 |
|     184 | 0x1B0E      |        6926 |
|     185 | 0x1AA7      |        6823 |
|     186 | 0x0019      |          25 |
|     187 | 0x1AB4      |        6836 |
|     188 | 0x1AB6      |        6838 |
|     189 | 0x1AB5      |        6837 |
|     190 | 0x003F      |          63 |
|     191 | 0x0038      |          56 |
|     192 | 0x1AB8      |        6840 |
|     193 | 0x3FFE0     |      262112 |
|     194 | 0x3FF98     |      262040 |
|     195 | 0x3FE78     |      261752 |
|     196 | 0x1AB9      |        6841 |
|     197 | 0x01E1      |         481 |
|     198 | 0x0199      |         409 |
|     199 | 0x0079      |         121 |
|     200 | 0x01E2      |         482 |
|     201 | 0x019A      |         410 |
|     202 | 0x01E4      |         484 |
|     203 | 0x019C      |         412 |
|     204 | 0x007C      |         124 |
|     205 | 0x01E8      |         488 |
|     206 | 0x01F0      |         496 |
|     207 | 0x01B8      |         440 |
|     208 | 0x01D8      |         472 |
|     209 | 0x00F8      |         248 |
|     210 | 0x0178      |         376 |
|     211 | 0x1ABA      |        6842 |
|     212 | 0x1B12      |        6930 |
|     213 | 0x0235      |         565 |
|     214 | 0x1ABB      |        6843 |
|     215 | 0x0013      |          19 |
|     216 | 0x1ABC      |        6844 |
|     217 | 0x1ABD      |        6845 |
|     218 | 0x1ABE      |        6846 |
|     219 | 0x1ABF      |        6847 |
|     220 | 0x15C4      |        5572 |
|     221 | 0x1AC0      |        6848 |
|     222 | 0x0016      |          22 |
|     223 | 0x1AC1      |        6849 |
|     224 | 0x1AC2      |        6850 |
|     225 | 0x15BA      |        5562 |
|     226 | 0x1AC3      |        6851 |
|     227 | 0x1AC4      |        6852 |
|     228 | 0x1AC5      |        6853 |
|     229 | 0x1AC6      |        6854 |
|     230 | 0x0021      |          33 |
|     231 | 0x1AC7      |        6855 |
|     232 | 0x1AC8      |        6856 |
|     233 | 0x1AC9      |        6857 |
|     234 | 0x1ACB      |        6859 |
|     235 | 0x000A      |          10 |
|     236 | 0x1ACC      |        6860 |
|     237 | 0x1ACD      |        6861 |
|     238 | 0x1ACE      |        6862 |
|     239 | 0x0398      |         920 |
|     240 | 0x1ACF      |        6863 |
|     241 | 0x1AD0      |        6864 |
|     242 | 0x1AD1      |        6865 |
|     243 | 0x1AD2      |        6866 |
|     244 | 0x1AD3      |        6867 |
|     245 | 0x1AD4      |        6868 |
|     246 | 0x1AD5      |        6869 |
|     247 | 0x1AD6      |        6870 |
|     248 | 0x1AD7      |        6871 |
|     249 | 0x1AD8      |        6872 |
|     250 | 0x1AD9      |        6873 |
|     251 | 0x1ADA      |        6874 |
|     252 | 0x1ADB      |        6875 |
|     253 | 0x1ADC      |        6876 |
|     254 | 0x1ADD      |        6877 |
|     255 | 0x1ADE      |        6878 |
|     256 | 0x1ADF      |        6879 |
|     257 | 0x1AE0      |        6880 |
|     258 | 0x1000      |        4096 |
|     259 | 0x0267      |         615 |
|     260 | 0x0730      |        1840 |
|     261 | 0x08A5      |        2213 |
|     262 | 0x111A      |        4378 |
|     263 | 0x1AE1      |        6881 |
|     264 | 0x1AE2      |        6882 |
|     265 | 0x1AE3      |        6883 |
|     266 | 0x2204      |        8708 |
|     267 | 0x2205      |        8709 |
|     268 | 0x2206      |        8710 |
|     269 | 0x2207      |        8711 |
|     270 | 0x2208      |        8712 |
|     271 | 0x2209      |        8713 |
|     272 | 0x220A      |        8714 |
|     273 | 0x220B      |        8715 |
|     274 | 0x220C      |        8716 |
|     275 | 0x220D      |        8717 |
|     276 | 0x220E      |        8718 |
|     277 | 0x220F      |        8719 |
|     278 | 0x2210      |        8720 |
|     279 | 0x2211      |        8721 |
|     280 | 0x2212      |        8722 |
|     281 | 0x04F8      |        1272 |
|     282 | 0x2213      |        8723 |
|     283 | 0x2214      |        8724 |
|     284 | 0x2215      |        8725 |
|     285 | 0x2216      |        8726 |
|     286 | 0x2217      |        8727 |
|     287 | 0x2218      |        8728 |
|     288 | 0x2219      |        8729 |
|     289 | 0x221A      |        8730 |
|     290 | 0x0234      |         564 |
|     291 | 0x2566      |        9574 |
|     292 | 0x2567      |        9575 |
|     293 | 0x2568      |        9576 |
|     294 | 0x2569      |        9577 |
|     295 | 0x0045      |          69 |
|     296 | 0x256A      |        9578 |
|     297 | 0x256B      |        9579 |
|     298 | 0x259B      |        9627 |
|     299 | 0x259C      |        9628 |
|     300 | 0x259D      |        9629 |
|     301 | 0x259E      |        9630 |
|     302 | 0x259F      |        9631 |
|     303 | 0x256C      |        9580 |
|     304 | 0x2580      |        9600 |
|     305 | 0x2581      |        9601 |
|     306 | 0x0295      |         661 |
|     307 | 0x087D      |        2173 |
|     308 | 0x08F2      |        2290 |
|     309 | 0x4023      |       16419 |
|     310 | 0x256D      |        9581 |
|     311 | 0x256E      |        9582 |
|     312 | 0x256F      |        9583 |
|     313 | 0x2570      |        9584 |
|     314 | 0x2571      |        9585 |
|     315 | 0x2572      |        9586 |
|     316 | 0x2573      |        9587 |
|     317 | 0x02CE      |         718 |
|     318 | 0x036F      |         879 |
|     319 | 0x08F0      |        2288 |
|     320 | 0x4344      |       17220 |
|     321 | 0x2576      |        9590 |
|     322 | 0x2577      |        9591 |
|     323 | 0x2578      |        9592 |
|     324 | 0x2579      |        9593 |
|     325 | 0x257A      |        9594 |
|     326 | 0x0337      |         823 |
|     327 | 0x033C      |         828 |
|     328 | 0x08F1      |        2289 |
|     329 | 0x3499      |       13465 |
|     330 | 0x257B      |        9595 |
|     331 | 0x257C      |        9596 |
|     332 | 0x257D      |        9597 |
|     333 | 0x257E      |        9598 |
|     334 | 0x257F      |        9599 |
|     335 | 0x2582      |        9602 |
|     336 | 0x2587      |        9607 |
|     337 | 0x2588      |        9608 |
|     338 | 0x0352      |         850 |
|     339 | 0x2589      |        9609 |
|     340 | 0x258A      |        9610 |
|     341 | 0x258D      |        9613 |
|     342 | 0x258E      |        9614 |
|     343 | 0x258F      |        9615 |
|     344 | 0x2590      |        9616 |
|     345 | 0x2592      |        9618 |
|     346 | 0x2593      |        9619 |
|     347 | 0x2594      |        9620 |
|     348 | 0x2595      |        9621 |
|     349 | 0x258B      |        9611 |
|     350 | 0x169F      |        5791 |
|     351 | 0x16A0      |        5792 |
|     352 | 0x16A1      |        5793 |
|     353 | 0x16A2      |        5794 |
|     354 | 0x16A3      |        5795 |
|     355 | 0x16A4      |        5796 |
|     356 | 0x16A5      |        5797 |
|     357 | 0x16A6      |        5798 |
|     358 | 0x16A7      |        5799 |
|     359 | 0x16A8      |        5800 |
|     360 | 0x16A9      |        5801 |
|     361 | 0x16AA      |        5802 |
|     362 | 0x0011      |          17 |
|     363 | 0x00D7      |         215 |
|     364 | 0x16AB      |        5803 |
|     365 | 0x16AC      |        5804 |
|     366 | 0x0110      |         272 |
|     367 | 0x03E7      |         999 |
|     368 | 0x16AD      |        5805 |
|     369 | 0x16AE      |        5806 |
|     370 | 0x16AF      |        5807 |
|     371 | 0x16B0      |        5808 |
|     372 | 0x16B1      |        5809 |
|     373 | 0x16B2      |        5810 |
|     374 | 0x16B3      |        5811 |
|     375 | 0x16B4      |        5812 |
|     376 | 0x16B5      |        5813 |
|     377 | 0x16B6      |        5814 |
|     378 | 0x16B7      |        5815 |
|     379 | 0x16B8      |        5816 |
|     380 | 0x16B9      |        5817 |
|     381 | 0x16BA      |        5818 |
|     382 | 0x16BB      |        5819 |
|     383 | 0x16BC      |        5820 |
|     384 | 0x00C6      |         198 |
|     385 | 0x1B13      |        6931 |
|     386 | 0x1B14      |        6932 |
|     387 | 0x1B15      |        6933 |
|     388 | 0x0024      |          36 |
|     389 | 0x1B16      |        6934 |
|     390 | 0x1B17      |        6935 |
|     391 | 0x1B18      |        6936 |
|     392 | 0x1B19      |        6937 |
|     393 | 0x1B1A      |        6938 |
|     394 | 0x1B1B      |        6939 |
|     395 | 0x001A      |          26 |
|     396 | 0x1B1C      |        6940 |
|     397 | 0x1B1D      |        6941 |
|     398 | 0x1B1E      |        6942 |
|     399 | 0x1B1F      |        6943 |
|     400 | 0x1B20      |        6944 |
|     401 | 0x1B21      |        6945 |
|     402 | 0x005A      |          90 |
|     403 | 0x1B22      |        6946 |
|     404 | 0x1B23      |        6947 |
|     405 | 0x1B24      |        6948 |
|     406 | 0x1B25      |        6949 |
|     407 | 0x1B26      |        6950 |
|     408 | 0x1B27      |        6951 |
|     409 | 0x1B28      |        6952 |
|     410 | 0x1B2A      |        6954 |
|     411 | 0x1B2B      |        6955 |
|     412 | 0x04CC      |        1228 |
|     413 | 0x1B2C      |        6956 |
|     414 | 0x1B2D      |        6957 |
|     415 | 0x1B2E      |        6958 |
|     416 | 0x1B2F      |        6959 |
|     417 | 0x1B30      |        6960 |
|     418 | 0x1B31      |        6961 |
|     419 | 0x007F      |         127 |
|     420 | 0x0387      |         903 |
|     421 | 0x1B32      |        6962 |
|     422 | 0x1B33      |        6963 |
|     423 | 0x00E3      |         227 |
|     424 | 0x1B34      |        6964 |
|     425 | 0x1B35      |        6965 |
|     426 | 0x1B36      |        6966 |
|     427 | 0x1B37      |        6967 |
|     428 | 0x1B38      |        6968 |
|     429 | 0x1B39      |        6969 |
|     430 | 0x1B3A      |        6970 |
|     431 | 0x1B3B      |        6971 |
|     432 | 0x0BB8      |        3000 |
|     433 | 0x037E      |         894 |
|     434 | 0x00C4      |         196 |
|     435 | 0x012C      |         300 |
|     436 | 0x0315      |         789 |
|     437 | 0x007D      |         125 |
|     438 | 0x1B3C      |        6972 |
|     439 | 0x1B3D      |        6973 |
|     440 | 0x1B3F      |        6975 |
|     441 | 0x00C5      |         197 |
|     442 | 0x1B40      |        6976 |
|     443 | 0x1B41      |        6977 |
|     444 | 0x1B42      |        6978 |
|     445 | 0x000C      |          12 |
|     446 | 0x0050      |          80 |
|     447 | 0x1B43      |        6979 |
|     448 | 0x1B44      |        6980 |
|     449 | 0x1B45      |        6981 |
|     450 | 0x1B46      |        6982 |
|     451 | 0x1B47      |        6983 |
|     452 | 0x1B48      |        6984 |
|     453 | 0x1B49      |        6985 |
|     454 | 0x1B4A      |        6986 |
|     455 | 0x1B4B      |        6987 |
|     456 | 0x1B4C      |        6988 |
|     457 | 0x00E7      |         231 |
|     458 | 0x1B4D      |        6989 |
|     459 | 0x1B4E      |        6990 |
|     460 | 0x1B4F      |        6991 |
|     461 | 0x1B50      |        6992 |
|     462 | 0x1B51      |        6993 |
|     463 | 0x1B52      |        6994 |
|     464 | 0x1B53      |        6995 |
|     465 | 0x1B54      |        6996 |
|     466 | 0x1B55      |        6997 |
|     467 | 0x1B56      |        6998 |
|     468 | 0x1B59      |        7001 |
|     469 | 0x1B5A      |        7002 |
|     470 | 0x1B5B      |        7003 |
|     471 | 0x02D9      |         729 |
|     472 | 0x018C      |         396 |
|     473 | 0x1B5C      |        7004 |
|     474 | 0x1B5D      |        7005 |
|     475 | 0x1B5E      |        7006 |
|     476 | 0x1B5F      |        7007 |
|     477 | 0x1B60      |        7008 |
|     478 | 0x1B61      |        7009 |
|     479 | 0x0233      |         563 |
|     480 | 0x00A3      |         163 |
|     481 | 0x0343      |         835 |
|     482 | 0x0029      |          41 |
|     483 | 0x2A4D      |       10829 |
|     484 | 0x2A4E      |       10830 |
|     485 | 0x2A4F      |       10831 |
|     486 | 0x2A50      |       10832 |
|     487 | 0x2A51      |       10833 |
|     488 | 0x2A52      |       10834 |
|     489 | 0x2A53      |       10835 |
|     490 | 0x2A54      |       10836 |
|     491 | 0x0028      |          40 |
|     492 | 0x2A55      |       10837 |
|     493 | 0x2A56      |       10838 |
|     494 | 0x2A57      |       10839 |
|     495 | 0x2A58      |       10840 |
|     496 | 0x2A59      |       10841 |
|     497 | 0x2A5A      |       10842 |
|     498 | 0x2A5B      |       10843 |
|     499 | 0x0341      |         833 |
|     500 | 0x2A5C      |       10844 |
|     501 | 0x2A5D      |       10845 |
|     502 | 0x2A5E      |       10846 |
|     503 | 0x2A5F      |       10847 |
|     504 | 0x2A60      |       10848 |
|     505 | 0x2A61      |       10849 |
|     506 | 0x2A62      |       10850 |
|     507 | 0x2A63      |       10851 |
|     508 | 0x2A64      |       10852 |
|     509 | 0x0342      |         834 |
|     510 | 0x2A65      |       10853 |
|     511 | 0x2A66      |       10854 |
|     512 | 0x2A67      |       10855 |
|     513 | 0x2A68      |       10856 |
|     514 | 0x2A69      |       10857 |
|     515 | 0x2A6A      |       10858 |
|     516 | 0x2A6B      |       10859 |
|     517 | 0x2A6C      |       10860 |
|     518 | 0x2A6D      |       10861 |
|     519 | 0x2A6E      |       10862 |
|     520 | 0x2A6F      |       10863 |
|     521 | 0x2A70      |       10864 |
|     522 | 0x2A71      |       10865 |
|     523 | 0x2A72      |       10866 |
|     524 | 0x2A73      |       10867 |
|     525 | 0x2A74      |       10868 |
|     526 | 0x2A75      |       10869 |
|     527 | 0x2A76      |       10870 |
|     528 | 0x2A77      |       10871 |
|     529 | 0x2A78      |       10872 |
|     530 | 0x2A79      |       10873 |
|     531 | 0x2A7A      |       10874 |
|     532 | 0x2A7B      |       10875 |
|     533 | 0x2A7C      |       10876 |
|     534 | 0x2A7D      |       10877 |
|     535 | 0x00CC      |         204 |
|     536 | 0x00B5      |         181 |
|     537 | 0x2A7E      |       10878 |
|     538 | 0x2A7F      |       10879 |
|     539 | 0x2A80      |       10880 |
|     540 | 0x2A81      |       10881 |
|     541 | 0x2A82      |       10882 |
|     542 | 0x2A83      |       10883 |
|     543 | 0x2A84      |       10884 |
|     544 | 0x2A85      |       10885 |
|     545 | 0x2A86      |       10886 |
|     546 | 0x2A87      |       10887 |
|     547 | 0x2A88      |       10888 |
|     548 | 0x2A89      |       10889 |
|     549 | 0x2A8A      |       10890 |
|     550 | 0x2A8B      |       10891 |
|     551 | 0x2A8C      |       10892 |
|     552 | 0x00B6      |         182 |
|     553 | 0x2A8D      |       10893 |
|     554 | 0x2A8E      |       10894 |
|     555 | 0x2A8F      |       10895 |
|     556 | 0x2A90      |       10896 |
|     557 | 0x022F      |         559 |
|     558 | 0x038D      |         909 |
|     559 | 0x0096      |         150 |
|     560 | 0x00C2      |         194 |
|     561 | 0x0168      |         360 |
|     562 | 0x2A91      |       10897 |
|     563 | 0x2A92      |       10898 |
|     564 | 0x2A93      |       10899 |
|     565 | 0x2A94      |       10900 |
|     566 | 0x2A95      |       10901 |
|     567 | 0x2A96      |       10902 |
|     568 | 0x2A97      |       10903 |
|     569 | 0x2A98      |       10904 |
|     570 | 0x2A99      |       10905 |
|     571 | 0x2A9A      |       10906 |
|     572 | 0x2A9B      |       10907 |
|     573 | 0x2A9C      |       10908 |
|     574 | 0x2A9D      |       10909 |
|     575 | 0x2A9E      |       10910 |
|     576 | 0x2A9F      |       10911 |
|     577 | 0x2AA0      |       10912 |
|     578 | 0x2AA1      |       10913 |
|     579 | 0x2AA2      |       10914 |
|     580 | 0x2AA3      |       10915 |
|     581 | 0x2AA4      |       10916 |
|     582 | 0x2AA5      |       10917 |
|     583 | 0x2AA6      |       10918 |
|     584 | 0x2AA7      |       10919 |
|     585 | 0x2AA8      |       10920 |
|     586 | 0x2AA9      |       10921 |
|     587 | 0x2AAA      |       10922 |
|     588 | 0x2AAB      |       10923 |
|     589 | 0x2AAC      |       10924 |
|     590 | 0x2AAD      |       10925 |
|     591 | 0x2AAE      |       10926 |
|     592 | 0x2AAF      |       10927 |
|     593 | 0x2AB0      |       10928 |
|     594 | 0x2AB1      |       10929 |
|     595 | 0x0015      |          21 |
|     596 | 0x2AB2      |       10930 |
|     597 | 0x2AB3      |       10931 |
|     598 | 0x2AB4      |       10932 |
|     599 | 0x2AB5      |       10933 |
|     600 | 0x2AB6      |       10934 |
|     601 | 0x2AB7      |       10935 |
|     602 | 0x2AB8      |       10936 |
|     603 | 0x2AB9      |       10937 |
|     604 | 0x2ABA      |       10938 |
|     605 | 0x059F      |        1439 |
|     606 | 0x2ABB      |       10939 |
|     607 | 0x2ABC      |       10940 |
|     608 | 0x1862      |        6242 |
|     609 | 0x08BC      |        2236 |
|     610 | 0x2ABD      |       10941 |
|     611 | 0x2ABE      |       10942 |
|     612 | 0x0356      |         854 |
|     613 | 0x2ABF      |       10943 |
|     614 | 0x2AC0      |       10944 |
|     615 | 0x2AC1      |       10945 |
|     616 | 0x2AC2      |       10946 |
|     617 | 0x2AC3      |       10947 |
|     618 | 0x2AC4      |       10948 |
|     619 | 0x2AC5      |       10949 |
|     620 | 0x2AC6      |       10950 |
|     621 | 0x0363      |         867 |
|     622 | 0x2AC7      |       10951 |
|     623 | 0x560A      |       22026 |
|     624 | 0x4C58      |       19544 |
|     625 | 0x0D9F      |        3487 |
|     626 | 0x3D7B      |       15739 |
|     627 | 0x446D      |       17517 |
|     628 | 0x0D1E      |        3358 |
|     629 | 0x3D66      |       15718 |
|     630 | 0x498F      |       18831 |
|     631 | 0x0534      |        1332 |
|     632 | 0x41BF      |       16831 |
|     633 | 0x43B5      |       17333 |
|     634 | 0x078F      |        1935 |
|     635 | 0x0034      |          52 |
|     636 | 0x1BB9      |        7097 |
|     637 | 0x1BBA      |        7098 |
|     638 | 0x1BBB      |        7099 |
|     639 | 0x1BBC      |        7100 |
|     640 | 0x1BBD      |        7101 |
|     641 | 0x1BBE      |        7102 |
|     642 | 0x1BBF      |        7103 |
|     643 | 0x1BC0      |        7104 |
|     644 | 0x1BC1      |        7105 |
|     645 | 0x1BC2      |        7106 |
|     646 | 0x2784      |       10116 |
|     647 | 0x433F      |       17215 |
|     648 | 0x002F      |          47 |
|     649 | 0x1BC3      |        7107 |
|     650 | 0x1BC4      |        7108 |
|     651 | 0x1BC5      |        7109 |
|     652 | 0x1BC6      |        7110 |
|     653 | 0x1BC7      |        7111 |
|     654 | 0x1BC8      |        7112 |
|     655 | 0x0060      |          96 |
|     656 | 0x1BC9      |        7113 |
|     657 | 0x1BCA      |        7114 |
|     658 | 0x1BCB      |        7115 |
|     659 | 0x1BCC      |        7116 |
|     660 | 0x1BCD      |        7117 |
|     661 | 0x1BCE      |        7118 |
|     662 | 0x1BCF      |        7119 |
|     663 | 0x1BD0      |        7120 |
|     664 | 0x1BD1      |        7121 |
|     665 | 0x1BD2      |        7122 |
|     666 | 0x1BD3      |        7123 |
|     667 | 0x1BD4      |        7124 |
|     668 | 0x1BD5      |        7125 |
|     669 | 0x1BD6      |        7126 |
|     670 | 0x1BD7      |        7127 |
|     671 | 0x1BD8      |        7128 |
|     672 | 0x1BD9      |        7129 |
|     673 | 0x1BDA      |        7130 |
|     674 | 0x1BDB      |        7131 |
|     675 | 0x1BDC      |        7132 |
|     676 | 0x1BDD      |        7133 |
|     677 | 0x1BDE      |        7134 |
|     678 | 0x1BDF      |        7135 |
|     679 | 0x1BE0      |        7136 |
|     680 | 0x1BE1      |        7137 |
|     681 | 0x3CCC      |       15564 |
|     682 | 0x480A      |       18442 |
|     683 | 0x0FAB      |        4011 |
|     684 | 0x3558      |       13656 |
|     685 | 0x545C      |       21596 |
|     686 | 0x0094      |         148 |
|     687 | 0x3AF0      |       15088 |
|     688 | 0x4F46      |       20294 |
|     689 | 0x0FB4      |        4020 |
|     690 | 0x418E      |       16782 |
|     691 | 0x4F1B      |       20251 |
|     692 | 0x0FE1      |        4065 |
|     693 | 0x00C1      |         193 |
|     694 | 0x1BE3      |        7139 |
|     695 | 0x1BE4      |        7140 |
|     696 | 0x1BE5      |        7141 |
|     697 | 0x1BE6      |        7142 |
|     698 | 0x1BE7      |        7143 |
|     699 | 0x1BE8      |        7144 |
|     700 | 0x1BE9      |        7145 |
|     701 | 0x1BEA      |        7146 |
|     702 | 0x1BEB      |        7147 |
|     703 | 0x1BEC      |        7148 |
|     704 | 0x1BED      |        7149 |
|     705 | 0x1BEE      |        7150 |
|     706 | 0x1BEF      |        7151 |
|     707 | 0x1BF0      |        7152 |
|     708 | 0x1BF1      |        7153 |
|     709 | 0x10934     |       67892 |
|     710 | 0xFFFE03B1  |  4294837169 |
|     711 | 0xFFFFE69C  |  4294960796 |
|     712 | 0x0AD8      |        2776 |
|     713 | 0x12B3C     |       76604 |
|     714 | 0xFFFDEEFB  |  4294831867 |
|     715 | 0xFFFFE890  |  4294961296 |
|     716 | 0x0663      |        1635 |
|     717 | 0x12A0A     |       76298 |
|     718 | 0xFFFE09F0  |  4294838768 |
|     719 | 0x075F      |        1887 |
|     720 | 0x1BF3      |        7155 |
|     721 | 0x1BF4      |        7156 |
|     722 | 0x1BF5      |        7157 |
|     723 | 0x11959     |       72025 |
|     724 | 0xFFFE073A  |  4294838074 |
|     725 | 0x08AB      |        2219 |
|     726 | 0x1BF6      |        7158 |
|     727 | 0x1BF7      |        7159 |
|     728 | 0x044F      |        1103 |
|     729 | 0x1BF8      |        7160 |
|     730 | 0x1BF9      |        7161 |
|     731 | 0x11517     |       70935 |
|     732 | 0xFFFE0CEA  |  4294839530 |
|     733 | 0x0726      |        1830 |
|     734 | 0x1BFA      |        7162 |
|     735 | 0x1BFB      |        7163 |
|     736 | 0x1BFC      |        7164 |
|     737 | 0x1BFD      |        7165 |
|     738 | 0x1BFE      |        7166 |
|     739 | 0x1BFF      |        7167 |
|     740 | 0x1C00      |        7168 |
|     741 | 0x1C01      |        7169 |
|     742 | 0x1C02      |        7170 |
|     743 | 0x1C03      |        7171 |
|     744 | 0x1C04      |        7172 |
|     745 | 0x1C05      |        7173 |
|     746 | 0xFFFE9D37  |  4294876471 |
|     747 | 0x1175      |        4469 |
|     748 | 0x0D39      |        3385 |
|     749 | 0x03FA      |        1018 |
|     750 | 0x1C09      |        7177 |
|     751 | 0x1C0A      |        7178 |
|     752 | 0x1C0B      |        7179 |
|     753 | 0x1C0C      |        7180 |
|     754 | 0x1C0D      |        7181 |
|     755 | 0x1C10      |        7184 |
|     756 | 0x1C0E      |        7182 |
|     757 | 0x1C11      |        7185 |
|     758 | 0x1C12      |        7186 |
|     759 | 0x1C13      |        7187 |
|     760 | 0x0304      |         772 |
|     761 | 0x1C14      |        7188 |
|     762 | 0x1C15      |        7189 |
|     763 | 0x1C16      |        7190 |
|     764 | 0x1C17      |        7191 |
|     765 | 0x1C18      |        7192 |
|     766 | 0x1C19      |        7193 |
|     767 | 0xFFFEA0D7  |  4294877399 |
|     768 | 0x1837      |        6199 |
|     769 | 0x03A1      |         929 |
|     770 | 0xFFFEFFE2  |  4294901730 |
|     771 | 0xFFFFFCA0  |  4294966432 |
|     772 | 0x0801      |        2049 |
|     773 | 0x1C1A      |        7194 |
|     774 | 0x1C1B      |        7195 |
|     775 | 0x1C1C      |        7196 |
|     776 | 0x1C1D      |        7197 |
|     777 | 0x1C1E      |        7198 |
|     778 | 0x1C1F      |        7199 |
|     779 | 0x06E2      |        1762 |
|     780 | 0x1C20      |        7200 |
|     781 | 0x1C21      |        7201 |
|     782 | 0x1C0F      |        7183 |
|     783 | 0x54FB      |       21755 |
|     784 | 0x4CED      |       19693 |
|     785 | 0x0E3F      |        3647 |
|     786 | 0x4492      |       17554 |
|     787 | 0x532C      |       21292 |
|     788 | 0x0F5E      |        3934 |
|     789 | 0x1C23      |        7203 |
|     790 | 0x1C24      |        7204 |
|     791 | 0x1C25      |        7205 |
|     792 | 0x0030      |          48 |
|     793 | 0x1C26      |        7206 |
|     794 | 0x1C27      |        7207 |
|     795 | 0x1C28      |        7208 |
|     796 | 0x64BF      |       25791 |
|     797 | 0x049C      |        1180 |
|     798 | 0x0851      |        2129 |
|     799 | 0x1C29      |        7209 |
|     800 | 0x1C2A      |        7210 |
|     801 | 0x1C2B      |        7211 |
|     802 | 0x1C2C      |        7212 |
|     803 | 0x1C2D      |        7213 |
|     804 | 0x1C2E      |        7214 |
|     805 | 0x4B93      |       19347 |
|     806 | 0x40A0      |       16544 |
|     807 | 0x0C21      |        3105 |
|     808 | 0x1C2F      |        7215 |
|     809 | 0x1C30      |        7216 |
|     810 | 0x1C31      |        7217 |
|     811 | 0x1C32      |        7218 |
|     812 | 0x1C33      |        7219 |
|     813 | 0x1C34      |        7220 |
|     814 | 0x1C35      |        7221 |
|     815 | 0x1C36      |        7222 |
|     816 | 0x1C37      |        7223 |
|     817 | 0x1C38      |        7224 |
|     818 | 0x1C39      |        7225 |
|     819 | 0x1C3A      |        7226 |
|     820 | 0x1C3B      |        7227 |
|     821 | 0x1C3C      |        7228 |
|     822 | 0x1C3D      |        7229 |
|     823 | 0x1C3E      |        7230 |
|     824 | 0x1C3F      |        7231 |
|     825 | 0x1C40      |        7232 |
|     826 | 0x1C41      |        7233 |
|     827 | 0x1C42      |        7234 |
|     828 | 0x1C43      |        7235 |
|     829 | 0x1C44      |        7236 |
|     830 | 0x1C45      |        7237 |
|     831 | 0x1C46      |        7238 |
|     832 | 0x1C47      |        7239 |
|     833 | 0x1C48      |        7240 |
|     834 | 0x1C49      |        7241 |
|     835 | 0x1C4A      |        7242 |
|     836 | 0x1C4B      |        7243 |
|     837 | 0x1C4C      |        7244 |
|     838 | 0x1C4D      |        7245 |
|     839 | 0x1C4E      |        7246 |
|     840 | 0x1C4F      |        7247 |
|     841 | 0x1C50      |        7248 |
|     842 | 0x1C51      |        7249 |
|     843 | 0x1C52      |        7250 |
|     844 | 0x1C53      |        7251 |
|     845 | 0x1C54      |        7252 |
|     846 | 0x1C55      |        7253 |
|     847 | 0x1C56      |        7254 |
|     848 | 0x1C57      |        7255 |
|     849 | 0x1C58      |        7256 |
|     850 | 0x1C59      |        7257 |
|     851 | 0x1C5A      |        7258 |
|     852 | 0x25A0      |        9632 |
|     853 | 0x25A1      |        9633 |
|     854 | 0x25A2      |        9634 |
|     855 | 0x25A3      |        9635 |
|     856 | 0x25A4      |        9636 |
|     857 | 0x09C6      |        2502 |
|     858 | 0x25A6      |        9638 |
|     859 | 0x25A7      |        9639 |
|     860 | 0x1205      |        4613 |
|     861 | 0x126C      |        4716 |
|     862 | 0x1202      |        4610 |
|     863 | 0x25A8      |        9640 |
|     864 | 0x25A9      |        9641 |
|     865 | 0x25A5      |        9637 |
|     866 | 0x09C5      |        2501 |
|     867 | 0x12A2      |        4770 |
|     868 | 0x130E      |        4878 |
|     869 | 0x1290      |        4752 |
|     870 | 0x25B8      |        9656 |
|     871 | 0x25B9      |        9657 |
|     872 | 0x25AA      |        9642 |
|     873 | 0x25AB      |        9643 |
|     874 | 0x25AC      |        9644 |
|     875 | 0x25B2      |        9650 |
|     876 | 0x25B3      |        9651 |
|     877 | 0x25B4      |        9652 |
|     878 | 0x25B5      |        9653 |

## String References

- **5166**: You can see your name written in tiny letters on the edge of the picture.
- **5190**: What story would you like to be told? [Light crystal (success)./Light crystal (failure)./Aurora crystal./Light cluster (success)./Light cluster (failure)./Failure./All pictures shot.]
- **6793**: Lend your assistance? [Let me be of service!/I'm not in the mood...]
- **6795**: Select a type of beastman. [Lamia./Troll./Mamool Ja.]
- **6806**: One of the weak points is... [A certain weapon skill./A WS from a certain angle./A certain element./A certain sound./Their low strength.]
- **6807**: One of the weak points is... [A certain weapon skill./A WS from a certain angle./A certain element./A certain scent./Their sluggish movement.]
- **6808**: One of the weak points is... [A certain weapon skill./A WS from a certain angle./A certain element./A certain irritant./Landing after a fall.]
- **6813**: Is that correct? [Yes./No, wait...]
- **6840**: Select an enemy. [Lamia./Troll./Mamool Ja./Orobon./Wamouracampa./Puk.]
- **6841**: Select two weak points. [A certain weapon skill./A WS from a certain angle./A certain element./A certain sound./Low strength./A certain scent./Sluggish movement./A certain irritant./Landing after a fall.]
- **6842**: Which would you like to view? [Complete success./One success, one failure./Complete failure.]
- **6888**: What would you like to attempt? [Finding Faults./The Art of War./Nothing.]
- **6895**: Ask about which monster? [Orobon./Wamouracampa./Puk.]
- **6902**: Investigate the orobon? [I'll give it a try!/Not now.]
- **6909**: Investigate the wamouracampa? [I'll give it a try!/Not now.]
- **6915**: Investigate the puk? [I'll give it a try!/Not now.]
- **6918**: Stop an orobon's rage by... [Not attacking for a while./Casting cure a few times./Splashing it with water.]
- **6919**: Penetrate defenses by... [Shining light on it./Casting enfeebling magic./Hitting it repeatedly.]
- **6920**: Stop a puk from escaping by... [Using a weapon skill a few times./Disguising as a Mamool Ja./Distracting it with fruit.]
- **6930**: Which would you like to see? [Success./Failure.]
- **7182**: I'm clean, I tell you! [You do look awfully nice today./Alright. I give up.]
- **9580**: Which frame do you want? [I don't want a new frame./Valoredge X-900./Sharpshot Z-500./Stormwaker Y-700.]
- **9586**: Order the Valoredge X-900? [Yes, this is the one./What about the others?]
- **9593**: Order the Sharpshot Z-500? [Yes, this is the one./What about the others?]
- **9598**: Order the Stormwaker Y-700? [Yes, this is the one./What about the others?]
- **9635**: What do you wish to order? [Nothing at this time./The Soulsoother C-1000./The Spiritreaver M-400.]

## Events

### Event 65535

#### Metadata

| Field        | Value   |
|--------------|---------|
| Entrypoint   | 0x0000  |
| Data Size    | 1 bytes |
| Instructions | 1       |

```
      00 01 02 03 04 05 06 07  08 09 0A 0B 0C 0D 0E 0F
      -- -- -- -- -- -- -- --  -- -- -- -- -- -- -- --
0000: 00                                                .               
```

#### Opcodes

```
  0: 0x0000 [0x00] END_REQSTACK()
```

### Event 545

#### Metadata

| Field        | Value     |
|--------------|-----------|
| Entrypoint   | 0x0001    |
| Data Size    | 675 bytes |
| Instructions | 74        |

```
      00 01 02 03 04 05 06 07  08 09 0A 0B 0C 0D 0E 0F
      -- -- -- -- -- -- -- --  -- -- -- -- -- -- -- --
0000:    42 45 00 80 F8 FF FF  7F F8 FF FF 7F 66 64 6F   BE..........fdo
0010: 31 01 80 55 00 80 F8 FF  FF 7F F8 FF FF 7F 66 64  1..U..........fd
0020: 6F 31 46 01 38 02 80 92  01 41 21 03 01 29 05 F0  o1F.8....A!..)..
0030: FF FF 7F 99 80 41 21 03  01 4A F0 FF FF 7F 41 21  .....A!..J....A!
0040: 03 01 4A 41 21 03 01 F0  FF FF 7F 45 03 80 F8 FF  ..JA!......E....
0050: FF 7F F8 FF FF 7F 73 30  35 38 01 80 1C 04 80 45  ......s058.....E
0060: 00 80 F8 FF FF 7F F8 FF  FF 7F 66 64 69 31 01 80  ..........fdi1..
0070: 1C 04 80 2B 41 21 03 01  05 80 23 5B 04 80 41 21  ...+A!....#[..A!
0080: 03 01 41 21 03 01 74 6C  62 30 2B 41 21 03 01 06  ..A!..tlb0+A!...
0090: 80 23 2B 41 21 03 01 07  80 23 5B 04 80 41 21 03  .#+A!....#[..A!.
00A0: 01 41 21 03 01 74 6C 62  31 52 03 80 F8 FF FF 7F  .A!..tlb1R......
00B0: F8 FF FF 7F 73 30 35 38  45 03 80 F8 FF FF 7F F8  ....s058E.......
00C0: FF FF 7F 73 30 35 39 01  80 2B 41 21 03 01 08 80  ...s059..+A!....
00D0: 23 52 03 80 F8 FF FF 7F  F8 FF FF 7F 73 30 35 39  #R..........s059
00E0: 45 03 80 F8 FF FF 7F F8  FF FF 7F 73 30 36 30 01  E..........s060.
00F0: 80 27 05 41 21 03 01 03  03 02 10 09 80 2B 41 21  .'.A!........+A!
0100: 03 01 0A 80 23 55 03 80  F8 FF FF 7F F8 FF FF 7F  ....#U..........
0110: 73 30 36 30 45 03 80 F8  FF FF 7F F8 FF FF 7F 73  s060E..........s
0120: 30 36 31 01 80 2B 41 21  03 01 0B 80 23 5B 04 80  061..+A!....#[..
0130: 41 21 03 01 41 21 03 01  74 6C 6B 30 2B 41 21 03  A!..A!..tlk0+A!.
0140: 01 0C 80 23 45 0D 80 F0  FF FF 7F F0 FF FF 7F 77  ...#E..........w
0150: 68 6F 31 01 80 55 0D 80  F0 FF FF 7F F0 FF FF 7F  ho1..U..........
0160: 77 68 6F 31 52 03 80 F8  FF FF 7F F8 FF FF 7F 73  who1R..........s
0170: 30 36 31 1C 04 80 45 0E  80 F8 FF FF 7F F8 FF FF  061...E.........
0180: 7F 73 30 32 35 01 80 1C  04 80 45 0D 80 F0 FF FF  .s025.....E.....
0190: 7F F0 FF FF 7F 77 68 69  31 01 80 1C 0F 80 52 0E  .....whi1.....R.
01A0: 80 F8 FF FF 7F F8 FF FF  7F 73 30 32 35 45 0E 80  .........s025E..
01B0: F8 FF FF 7F F8 FF FF 7F  73 30 32 34 01 80 5B 04  ........s024..[.
01C0: 80 41 21 03 01 41 21 03  01 74 6C 6B 31 2B 41 21  .A!..A!..tlk1+A!
01D0: 03 01 10 80 23 52 0E 80  F8 FF FF 7F F8 FF FF 7F  ....#R..........
01E0: 73 30 32 34 45 03 80 F8  FF FF 7F F8 FF FF 7F 73  s024E..........s
01F0: 30 36 32 01 80 5B 04 80  41 21 03 01 41 21 03 01  062..[..A!..A!..
0200: 74 6C 62 30 2B 41 21 03  01 11 80 23 2B 41 21 03  tlb0+A!....#+A!.
0210: 01 12 80 23 5B 04 80 41  21 03 01 41 21 03 01 74  ...#[..A!..A!..t
0220: 6C 62 31 52 03 80 F8 FF  FF 7F F8 FF FF 7F 73 30  lb1R..........s0
0230: 36 32 45 13 80 F8 FF FF  7F F8 FF FF 7F 73 30 30  62E..........s00
0240: 39 01 80 1C 04 80 5B 04  80 41 21 03 01 41 21 03  9.....[..A!..A!.
0250: 01 74 68 6B 31 2B 41 21  03 01 14 80 23 45 00 80  .thk1+A!....#E..
0260: F8 FF FF 7F F8 FF FF 7F  66 64 6F 31 01 80 55 00  ........fdo1..U.
0270: 80 F8 FF FF 7F F8 FF FF  7F 66 64 6F 31 52 13 80  .........fdo1R..
0280: F8 FF FF 7F F8 FF FF 7F  73 30 30 39 46 00 1C 04  ........s009F...
0290: 80 45 00 80 F8 FF FF 7F  F8 FF FF 7F 66 64 69 31  .E..........fdi1
02A0: 01 80 21 00                                       ..!.            
```

#### Opcodes

```
  0: 0x0001 [0x42] SET_CLI_EVENT_CANCEL_DATA()
  1: 0x0002 [0x45] LOAD_SCHEDULED_TASK: Load scheduler "fdo1" with entities [EventEntity, EventEntity], work=[200*, 0*]
  2: 0x0013 [0x55] WAIT_LOAD_SCHEDULER: Wait for scheduler "fdo1" with entities [EventEntity, EventEntity], work=200*
  3: 0x0022 [0x46] CAMERA_CONTROL: Disable user control
  4: 0x0024 [0x38] SET_CLIENT_EVENT_MODE(mode=27*)
  5: 0x0027 [0x92] Balakaf (ID: 16982337/0x01032141)->Render.Flags3 ^= 0x01
  6: 0x002D [0x29] REQ_SET_WAIT(priority=0x05, entity_id=LocalPlayer, tag_num=0x99)
  7: 0x0034 [0x80] LOAD_WAIT(entity=Balakaf (ID: 16982337/0x01032141))
  8: 0x0039 [0x4A] LocalPlayer looks at Balakaf (ID: 16982337/0x01032141)
  9: 0x0042 [0x4A] Balakaf (ID: 16982337/0x01032141) looks at LocalPlayer
 10: 0x004B [0x45] LOAD_SCHEDULED_TASK: Load scheduler "s058" with entities [EventEntity, EventEntity], work=[253*, 0*]
 11: 0x005C [0x1C] WAIT(60* ticks)
 12: 0x005F [0x45] LOAD_SCHEDULED_TASK: Load scheduler "fdi1" with entities [EventEntity, EventEntity], work=[200*, 0*]
 13: 0x0070 [0x1C] WAIT(60* ticks)
 14: 0x0073 [0x2B] Balakaf (ID: 16982337/0x01032141) [5119*]:
    → "Be ye an adventurer? Ye look like ye've been to many a place."
 15: 0x007A [0x23] WAIT_FOR_DIALOG_INTERACTION
 16: 0x007B [0x5B] LOAD_EXT_SCHEDULER: Load scheduler "tlb0" with entities [Balakaf (ID: 16982337/0x01032141), Balakaf (ID: 16982337/0x01032141)], work=60*
 17: 0x008A [0x2B] Balakaf (ID: 16982337/0x01032141) [5120*]:
    → "Back in the day, I ventured far and wide meself, but now these old bones won't even allow me t' set foot outside of town."
 18: 0x0091 [0x23] WAIT_FOR_DIALOG_INTERACTION
 19: 0x0092 [0x2B] Balakaf (ID: 16982337/0x01032141) [5121*]:
    → "I'd love t' get back to the great outdoors, but the passage of time 'as been rough on me, it 'as."
 20: 0x0099 [0x23] WAIT_FOR_DIALOG_INTERACTION
 21: 0x009A [0x5B] LOAD_EXT_SCHEDULER: Load scheduler "tlb1" with entities [Balakaf (ID: 16982337/0x01032141), Balakaf (ID: 16982337/0x01032141)], work=60*
 22: 0x00A9 [0x52] END_LOAD_SCHEDULER: End scheduler "s058" with entities [EventEntity, EventEntity], work=253*
 23: 0x00B8 [0x45] LOAD_SCHEDULED_TASK: Load scheduler "s059" with entities [EventEntity, EventEntity], work=[253*, 0*]
 24: 0x00C9 [0x2B] Balakaf (ID: 16982337/0x01032141) [5122*]:
    → "I've still got me keen mind, though. Instead of adventures, I'm putting all me efforts into inventing, now."
 25: 0x00D0 [0x23] WAIT_FOR_DIALOG_INTERACTION
 26: 0x00D1 [0x52] END_LOAD_SCHEDULER: End scheduler "s059" with entities [EventEntity, EventEntity], work=253*
 27: 0x00E0 [0x45] LOAD_SCHEDULED_TASK: Load scheduler "s060" with entities [EventEntity, EventEntity], work=[253*, 0*]
 28: 0x00F1 [0x27] REQ_SET(priority=0x05, entity_id=Balakaf (ID: 16982337/0x01032141), tag_num=0x03)
 29: 0x00F8 [0x03] Work_Zone[2] = 773*
 30: 0x00FD [0x2B] Balakaf (ID: 16982337/0x01032141) [5123*]:
    → "Me greatest work as of late is the $3."
 31: 0x0104 [0x23] WAIT_FOR_DIALOG_INTERACTION
 32: 0x0105 [0x55] WAIT_LOAD_SCHEDULER: Wait for scheduler "s060" with entities [EventEntity, EventEntity], work=253*
 33: 0x0114 [0x45] LOAD_SCHEDULED_TASK: Load scheduler "s061" with entities [EventEntity, EventEntity], work=[253*, 0*]
 34: 0x0125 [0x2B] Balakaf (ID: 16982337/0x01032141) [5124*]:
    → "I created it using an Ahriman lens..."
 35: 0x012C [0x23] WAIT_FOR_DIALOG_INTERACTION
 36: 0x012D [0x5B] LOAD_EXT_SCHEDULER: Load scheduler "tlk0" with entities [Balakaf (ID: 16982337/0x01032141), Balakaf (ID: 16982337/0x01032141)], work=60*
 37: 0x013C [0x2B] Balakaf (ID: 16982337/0x01032141) [5125*]:
    → "The device burns an image onto the lens with a burst of light."
 38: 0x0143 [0x23] WAIT_FOR_DIALOG_INTERACTION
 39: 0x0144 [0x45] LOAD_SCHEDULED_TASK: Load scheduler "who1" with entities [LocalPlayer, LocalPlayer], work=[201*, 0*]
 40: 0x0155 [0x55] WAIT_LOAD_SCHEDULER: Wait for scheduler "who1" with entities [LocalPlayer, LocalPlayer], work=201*
 41: 0x0164 [0x52] END_LOAD_SCHEDULER: End scheduler "s061" with entities [EventEntity, EventEntity], work=253*
 42: 0x0173 [0x1C] WAIT(60* ticks)
 43: 0x0176 [0x45] LOAD_SCHEDULED_TASK: Load scheduler "s025" with entities [EventEntity, EventEntity], work=[255*, 0*]
 44: 0x0187 [0x1C] WAIT(60* ticks)
 45: 0x018A [0x45] LOAD_SCHEDULED_TASK: Load scheduler "whi1" with entities [LocalPlayer, LocalPlayer], work=[201*, 0*]
 46: 0x019B [0x1C] WAIT(120* ticks)
 47: 0x019E [0x52] END_LOAD_SCHEDULER: End scheduler "s025" with entities [EventEntity, EventEntity], work=255*
 48: 0x01AD [0x45] LOAD_SCHEDULED_TASK: Load scheduler "s024" with entities [EventEntity, EventEntity], work=[255*, 0*]
 49: 0x01BE [0x5B] LOAD_EXT_SCHEDULER: Load scheduler "tlk1" with entities [Balakaf (ID: 16982337/0x01032141), Balakaf (ID: 16982337/0x01032141)], work=60*
 50: 0x01CD [0x2B] Balakaf (ID: 16982337/0x01032141) [5126*]:
    → "Basically, it captures a picture of whatever it be aimed at."
 51: 0x01D4 [0x23] WAIT_FOR_DIALOG_INTERACTION
 52: 0x01D5 [0x52] END_LOAD_SCHEDULER: End scheduler "s024" with entities [EventEntity, EventEntity], work=255*
 53: 0x01E4 [0x45] LOAD_SCHEDULED_TASK: Load scheduler "s062" with entities [EventEntity, EventEntity], work=[253*, 0*]
 54: 0x01F5 [0x5B] LOAD_EXT_SCHEDULER: Load scheduler "tlb0" with entities [Balakaf (ID: 16982337/0x01032141), Balakaf (ID: 16982337/0x01032141)], work=60*
 55: 0x0204 [0x2B] Balakaf (ID: 16982337/0x01032141) [5127*]:
    → "And that brings me to me point. I want ye to go t' the places I traveled as a lad and bring their pictures back to me."
 56: 0x020B [0x23] WAIT_FOR_DIALOG_INTERACTION
 57: 0x020C [0x2B] Balakaf (ID: 16982337/0x01032141) [5128*]:
    → "I'd love t' see those lands again."
 58: 0x0213 [0x23] WAIT_FOR_DIALOG_INTERACTION
 59: 0x0214 [0x5B] LOAD_EXT_SCHEDULER: Load scheduler "tlb1" with entities [Balakaf (ID: 16982337/0x01032141), Balakaf (ID: 16982337/0x01032141)], work=60*
 60: 0x0223 [0x52] END_LOAD_SCHEDULER: End scheduler "s062" with entities [EventEntity, EventEntity], work=253*
 61: 0x0232 [0x45] LOAD_SCHEDULED_TASK: Load scheduler "s009" with entities [EventEntity, EventEntity], work=[254*, 0*]
 62: 0x0243 [0x1C] WAIT(60* ticks)
 63: 0x0246 [0x5B] LOAD_EXT_SCHEDULER: Load scheduler "thk1" with entities [Balakaf (ID: 16982337/0x01032141), Balakaf (ID: 16982337/0x01032141)], work=60*
 64: 0x0255 [0x2B] Balakaf (ID: 16982337/0x01032141) [5129*]:
    → "Let's see... First, I want t' see the volcano that can be glimpsed from the Wajaom Woodlands. I'll never forget the plumes of smoke billowing from its peak, even though it was a cloudy day when I saw it with me own eyes."
 65: 0x025C [0x23] WAIT_FOR_DIALOG_INTERACTION
 66: 0x025D [0x45] LOAD_SCHEDULED_TASK: Load scheduler "fdo1" with entities [EventEntity, EventEntity], work=[200*, 0*]
 67: 0x026E [0x55] WAIT_LOAD_SCHEDULER: Wait for scheduler "fdo1" with entities [EventEntity, EventEntity], work=200*
 68: 0x027D [0x52] END_LOAD_SCHEDULER: End scheduler "s009" with entities [EventEntity, EventEntity], work=254*
 69: 0x028C [0x46] CAMERA_CONTROL: Restore default settings
 70: 0x028E [0x1C] WAIT(60* ticks)
 71: 0x0291 [0x45] LOAD_SCHEDULED_TASK: Load scheduler "fdi1" with entities [EventEntity, EventEntity], work=[200*, 0*]
 72: 0x02A2 [0x21] END_EVENT
 73: 0x02A3 [0x00] END_REQSTACK()
```

### Event 546

#### Metadata

| Field        | Value      |
|--------------|------------|
| Entrypoint   | 0x02A4     |
| Data Size    | 8325 bytes |
| Instructions | 1033       |

```
      00 01 02 03 04 05 06 07  08 09 0A 0B 0C 0D 0E 0F
      -- -- -- -- -- -- -- --  -- -- -- -- -- -- -- --
02A0:             03 01 10 01  80 03 00 00 01 80 03 03      ............
02B0: 00 01 80 42 02 05 10 15  80 00 5F 03 24 16 80 01  ...B......_.$...
02C0: 80 01 80 25 02 00 10 01  80 00 D9 02 03 01 00 15  ...%............
02D0: 80 03 02 00 15 80 01 5C  03 02 00 10 15 80 00 EE  .......\........
02E0: 02 03 01 00 17 80 03 02  00 17 80 01 5C 03 02 00  ............\...
02F0: 10 17 80 00 08 03 03 01  00 15 80 03 02 00 15 80  ................
0300: 03 03 00 15 80 01 5C 03  02 00 10 18 80 00 1D 03  ......\.........
0310: 03 01 00 17 80 03 02 00  19 80 01 5C 03 02 00 10  ...........\....
0320: 19 80 00 32 03 03 01 00  18 80 03 02 00 19 80 01  ...2............
0330: 5C 03 02 00 10 1A 80 00  47 03 03 01 00 15 80 03  \.......G.......
0340: 02 00 17 80 01 5C 03 02  00 10 1B 80 00 5C 03 03  .....\.......\..
0350: 01 00 1C 80 03 02 00 15  80 01 5C 03 01 1C 04 02  ..........\.....
0360: 06 10 15 80 80 6F 03 03  01 00 15 80 01 CF 03 02  .....o..........
0370: 06 10 17 80 80 7F 03 03  01 00 17 80 01 CF 03 02  ................
0380: 06 10 18 80 80 8F 03 03  01 00 18 80 01 CF 03 02  ................
0390: 06 10 19 80 80 9F 03 03  01 00 19 80 01 CF 03 02  ................
03A0: 06 10 1A 80 80 AF 03 03  01 00 1A 80 01 CF 03 02  ................
03B0: 06 10 1B 80 80 BF 03 03  01 00 1B 80 01 CF 03 02  ................
03C0: 06 10 1C 80 80 CF 03 03  01 00 1C 80 01 CF 03 02  ................
03D0: 03 10 15 80 80 DF 03 03  02 00 15 80 01 0F 04 02  ................
03E0: 03 10 17 80 80 EF 03 03  02 00 17 80 01 0F 04 02  ................
03F0: 03 10 18 80 80 FF 03 03  02 00 18 80 01 0F 04 02  ................
0400: 03 10 19 80 80 0F 04 03  02 00 19 80 01 0F 04 02  ................
0410: 04 10 15 80 00 1C 04 03  03 00 15 80 45 00 80 F8  ............E...
0420: FF FF 7F F8 FF FF 7F 66  64 6F 31 01 80 55 00 80  .......fdo1..U..
0430: F8 FF FF 7F F8 FF FF 7F  66 64 6F 31 46 01 38 02  ........fdo1F.8.
0440: 80 92 01 41 21 03 01 29  05 F0 FF FF 7F 99 80 41  ...A!..).......A
0450: 21 03 01 4A F0 FF FF 7F  41 21 03 01 4A 41 21 03  !..J....A!..JA!.
0460: 01 F0 FF FF 7F 45 03 80  F8 FF FF 7F F8 FF FF 7F  .....E..........
0470: 73 30 36 36 01 80 1C 04  80 45 00 80 F8 FF FF 7F  s066.....E......
0480: F8 FF FF 7F 66 64 69 31  01 80 1C 04 80 5B 04 80  ....fdi1.....[..
0490: 41 21 03 01 41 21 03 01  74 6C 6B 30 2B 41 21 03  A!..A!..tlk0+A!.
04A0: 01 1D 80 23 02 06 10 1C  80 00 C4 04 02 03 10 15  ...#............
04B0: 80 00 C4 04 02 03 00 15  80 00 BF 04 01 C4 04 5D  ...............]
04C0: 01 80 0F 80 02 05 10 15  80 00 EC 04 02 01 00 1C  ................
04D0: 80 00 EC 04 02 02 00 15  80 00 EC 04 02 03 00 15  ................
04E0: 80 00 E7 04 01 EC 04 5D  01 80 0F 80 45 00 80 F8  .......]....E...
04F0: FF FF 7F F8 FF FF 7F 66  64 6F 31 01 80 55 00 80  .......fdo1..U..
0500: F8 FF FF 7F F8 FF FF 7F  66 64 6F 31 52 03 80 F8  ........fdo1R...
0510: FF FF 7F F8 FF FF 7F 73  30 36 36 5B 04 80 41 21  .......s066[..A!
0520: 03 01 41 21 03 01 74 6C  6B 31 1C 04 80 02 06 10  ..A!..tlk1......
0530: 1C 80 00 50 05 02 03 10  15 80 00 50 05 02 03 00  ...P.......P....
0540: 15 80 00 48 05 01 50 05  5C 00 1E 80 5C 01 1E 80  ...H..P.\...\...
0550: 02 05 10 15 80 00 7B 05  02 01 00 1C 80 00 7B 05  ......{.......{.
0560: 02 02 00 15 80 00 7B 05  02 03 00 15 80 00 73 05  ......{.......s.
0570: 01 7B 05 5C 00 1E 80 5C  01 1E 80 1C 04 80 02 01  .{.\...\........
0580: 00 15 80 80 C9 08 02 02  00 15 80 80 7C 07 02 03  ............|...
0590: 00 15 80 00 63 06 45 13  80 F8 FF FF 7F F8 FF FF  ....c.E.........
05A0: 7F 73 30 30 38 01 80 1C  1F 80 45 00 80 F8 FF FF  .s008.....E.....
05B0: 7F F8 FF FF 7F 66 64 69  31 01 80 1C 1F 80 2B 41  .....fdi1.....+A
05C0: 21 03 01 20 80 23 52 13  80 F8 FF FF 7F F8 FF FF  !.. .#R.........
05D0: 7F 73 30 30 38 45 13 80  F8 FF FF 7F F8 FF FF 7F  .s008E..........
05E0: 73 30 38 31 01 80 5B 04  80 41 21 03 01 41 21 03  s081..[..A!..A!.
05F0: 01 74 68 6B 31 2B 41 21  03 01 21 80 23 48 22 80  .thk1+A!..!.#H".
0600: 7C 00 41 21 03 01 1C 0F  80 2B 41 21 03 01 23 80  |.A!.....+A!..#.
0610: 23 52 13 80 F8 FF FF 7F  F8 FF FF 7F 73 30 38 31  #R..........s081
0620: 45 03 80 F8 FF FF 7F F8  FF FF 7F 73 30 36 32 01  E..........s062.
0630: 80 7C 01 41 21 03 01 1C  04 80 5B 04 80 41 21 03  .|.A!.....[..A!.
0640: 01 41 21 03 01 74 68 6B  32 2B 41 21 03 01 24 80  .A!..thk2+A!..$.
0650: 23 52 03 80 F8 FF FF 7F  F8 FF FF 7F 73 30 36 32  #R..........s062
0660: 01 EC 06 45 13 80 F8 FF  FF 7F F8 FF FF 7F 73 30  ...E..........s0
0670: 30 38 01 80 1C 1F 80 45  00 80 F8 FF FF 7F F8 FF  08.....E........
0680: FF 7F 66 64 69 31 01 80  1C 1F 80 2B 41 21 03 01  ..fdi1.....+A!..
0690: 25 80 23 45 00 80 F0 FF  FF 7F F0 FF FF 7F 6F 76  %.#E..........ov
06A0: 6C 31 01 80 52 13 80 F8  FF FF 7F F8 FF FF 7F 73  l1..R..........s
06B0: 30 30 38 45 13 80 F8 FF  FF 7F F8 FF FF 7F 73 30  008E..........s0
06C0: 32 31 01 80 1C 26 80 03  00 00 15 80 45 00 80 F0  21...&......E...
06D0: FF FF 7F F0 FF FF 7F 6F  76 6C 31 01 80 52 13 80  .......ovl1..R..
06E0: F8 FF FF 7F F8 FF FF 7F  73 30 32 31 45 03 80 F8  ........s021E...
06F0: FF FF 7F F8 FF FF 7F 73  30 36 37 01 80 02 03 00  .......s067.....
0700: 15 80 00 52 07 03 02 10  09 80 5B 04 80 41 21 03  ...R......[..A!.
0710: 01 41 21 03 01 74 6C 6B  30 2B 41 21 03 01 27 80  .A!..tlk0+A!..'.
0720: 23 5B 04 80 41 21 03 01  41 21 03 01 74 6C 6B 31  #[..A!..A!..tlk1
0730: 1C 04 80 5B 04 80 41 21  03 01 41 21 03 01 74 68  ...[..A!..A!..th
0740: 6B 31 03 02 10 28 80 2B  41 21 03 01 29 80 23 01  k1...(.+A!..).#.
0750: 79 07 1C 04 80 5B 04 80  41 21 03 01 41 21 03 01  y....[..A!..A!..
0760: 70 61 73 30 2B 41 21 03  01 2A 80 23 03 02 10 09  pas0+A!..*.#....
0770: 80 2B 41 21 03 01 27 80  23 01 C6 08 02 02 00 17  .+A!..'.#.......
0780: 80 80 21 08 45 13 80 F8  FF FF 7F F8 FF FF 7F 73  ..!.E..........s
0790: 30 38 31 01 80 1C 04 80  45 00 80 F8 FF FF 7F F8  081.....E.......
07A0: FF FF 7F 66 64 69 31 01  80 1C 04 80 2B 41 21 03  ...fdi1.....+A!.
07B0: 01 2B 80 23 52 13 80 F8  FF FF 7F F8 FF FF 7F 73  .+.#R..........s
07C0: 30 38 31 45 03 80 F8 FF  FF 7F F8 FF FF 7F 73 30  081E..........s0
07D0: 36 37 01 80 03 02 10 09  80 5B 04 80 41 21 03 01  67.......[..A!..
07E0: 41 21 03 01 74 6C 6B 30  2B 41 21 03 01 27 80 23  A!..tlk0+A!..'.#
07F0: 5B 04 80 41 21 03 01 41  21 03 01 74 6C 6B 31 1C  [..A!..A!..tlk1.
0800: 04 80 5B 04 80 41 21 03  01 41 21 03 01 74 68 6B  ..[..A!..A!..thk
0810: 31 03 02 10 28 80 2B 41  21 03 01 29 80 23 01 C6  1...(.+A!..).#..
0820: 08 02 02 00 18 80 80 C6  08 45 13 80 F8 FF FF 7F  .........E......
0830: F8 FF FF 7F 73 30 38 31  01 80 1C 04 80 45 00 80  ....s081.....E..
0840: F8 FF FF 7F F8 FF FF 7F  66 64 69 31 01 80 1C 04  ........fdi1....
0850: 80 2B 41 21 03 01 2B 80  23 52 13 80 F8 FF FF 7F  .+A!..+.#R......
0860: F8 FF FF 7F 73 30 38 31  45 03 80 F8 FF FF 7F F8  ....s081E.......
0870: FF FF 7F 73 30 36 37 01  80 03 02 10 09 80 5B 04  ...s067.......[.
0880: 80 41 21 03 01 41 21 03  01 74 6C 6B 30 2B 41 21  .A!..A!..tlk0+A!
0890: 03 01 27 80 23 5B 04 80  41 21 03 01 41 21 03 01  ..'.#[..A!..A!..
08A0: 74 6C 6B 31 1C 04 80 5B  04 80 41 21 03 01 41 21  tlk1...[..A!..A!
08B0: 03 01 74 68 6B 31 03 02  10 28 80 2B 41 21 03 01  ..thk1...(.+A!..
08C0: 29 80 23 01 C6 08 01 49  22 02 01 00 17 80 80 1D  ).#....I".......
08D0: 0C 02 02 00 15 80 80 76  09 45 13 80 F8 FF FF 7F  .......v.E......
08E0: F8 FF FF 7F 73 30 38 31  01 80 1C 04 80 45 00 80  ....s081.....E..
08F0: F8 FF FF 7F F8 FF FF 7F  66 64 69 31 01 80 1C 04  ........fdi1....
0900: 80 2B 41 21 03 01 2B 80  23 52 13 80 F8 FF FF 7F  .+A!..+.#R......
0910: F8 FF FF 7F 73 30 38 31  45 03 80 F8 FF FF 7F F8  ....s081E.......
0920: FF FF 7F 73 30 36 37 01  80 03 02 10 09 80 5B 04  ...s067.......[.
0930: 80 41 21 03 01 41 21 03  01 74 6C 6B 30 2B 41 21  .A!..A!..tlk0+A!
0940: 03 01 27 80 23 5B 04 80  41 21 03 01 41 21 03 01  ..'.#[..A!..A!..
0950: 74 6C 6B 31 1C 04 80 5B  04 80 41 21 03 01 41 21  tlk1...[..A!..A!
0960: 03 01 74 68 6B 31 03 02  10 28 80 2B 41 21 03 01  ..thk1...(.+A!..
0970: 29 80 23 01 1A 0C 02 02  00 17 80 80 4D 0A 45 13  ).#.........M.E.
0980: 80 F8 FF FF 7F F8 FF FF  7F 73 30 38 31 01 80 1C  .........s081...
0990: 04 80 45 00 80 F8 FF FF  7F F8 FF FF 7F 66 64 69  ..E..........fdi
09A0: 31 01 80 1C 04 80 2B 41  21 03 01 2C 80 23 52 13  1.....+A!..,.#R.
09B0: 80 F8 FF FF 7F F8 FF FF  7F 73 30 38 31 45 13 80  .........s081E..
09C0: F8 FF FF 7F F8 FF FF 7F  73 30 31 31 01 80 5B 04  ........s011..[.
09D0: 80 41 21 03 01 41 21 03  01 74 68 6B 31 03 02 10  .A!..A!..thk1...
09E0: 2D 80 2B 41 21 03 01 2E  80 23 5B 04 80 41 21 03  -.+A!....#[..A!.
09F0: 01 41 21 03 01 74 68 6B  32 03 02 10 09 80 2B 41  .A!..thk2.....+A
0A00: 21 03 01 2F 80 23 52 13  80 F8 FF FF 7F F8 FF FF  !../.#R.........
0A10: 7F 73 30 31 31 45 03 80  F8 FF FF 7F F8 FF FF 7F  .s011E..........
0A20: 73 30 36 37 01 80 5B 04  80 41 21 03 01 41 21 03  s067..[..A!..A!.
0A30: 01 70 61 73 30 2B 41 21  03 01 30 80 23 2B 41 21  .pas0+A!..0.#+A!
0A40: 03 01 27 80 23 03 00 00  17 80 01 1A 0C 02 02 00  ..'.#...........
0A50: 18 80 80 F2 0A 45 13 80  F8 FF FF 7F F8 FF FF 7F  .....E..........
0A60: 73 30 38 31 01 80 1C 04  80 45 00 80 F8 FF FF 7F  s081.....E......
0A70: F8 FF FF 7F 66 64 69 31  01 80 1C 04 80 2B 41 21  ....fdi1.....+A!
0A80: 03 01 2B 80 23 52 13 80  F8 FF FF 7F F8 FF FF 7F  ..+.#R..........
0A90: 73 30 38 31 45 03 80 F8  FF FF 7F F8 FF FF 7F 73  s081E..........s
0AA0: 30 36 37 01 80 5B 04 80  41 21 03 01 41 21 03 01  067..[..A!..A!..
0AB0: 74 6C 6B 30 03 02 10 09  80 2B 41 21 03 01 27 80  tlk0.....+A!..'.
0AC0: 23 5B 04 80 41 21 03 01  41 21 03 01 74 6C 6B 31  #[..A!..A!..tlk1
0AD0: 1C 04 80 5B 04 80 41 21  03 01 41 21 03 01 74 68  ...[..A!..A!..th
0AE0: 6B 31 03 02 10 28 80 2B  41 21 03 01 29 80 23 01  k1...(.+A!..).#.
0AF0: 1A 0C 02 02 00 19 80 80  1A 0C 45 13 80 F8 FF FF  ..........E.....
0B00: 7F F8 FF FF 7F 73 30 30  38 01 80 1C 1F 80 45 00  .....s008.....E.
0B10: 80 F8 FF FF 7F F8 FF FF  7F 66 64 69 31 01 80 1C  .........fdi1...
0B20: 1F 80 2B 41 21 03 01 31  80 23 52 13 80 F8 FF FF  ..+A!..1.#R.....
0B30: 7F F8 FF FF 7F 73 30 30  38 45 13 80 F8 FF FF 7F  .....s008E......
0B40: F8 FF FF 7F 73 30 31 31  01 80 5B 04 80 41 21 03  ....s011..[..A!.
0B50: 01 41 21 03 01 74 68 6B  31 03 02 10 32 80 2B 41  .A!..thk1...2.+A
0B60: 21 03 01 33 80 23 5B 04  80 41 21 03 01 41 21 03  !..3.#[..A!..A!.
0B70: 01 74 68 6B 32 03 02 10  2D 80 2B 41 21 03 01 34  .thk2...-.+A!..4
0B80: 80 23 5B 35 80 41 21 03  01 41 21 03 01 6D 6F 75  .#[5.A!..A!..mou
0B90: 30 1C 36 80 52 13 80 F8  FF FF 7F F8 FF FF 7F 73  0.6.R..........s
0BA0: 30 31 31 45 13 80 F8 FF  FF 7F F8 FF FF 7F 73 30  011E..........s0
0BB0: 31 30 01 80 2B 41 21 03  01 37 80 23 52 13 80 F8  10..+A!..7.#R...
0BC0: FF FF 7F F8 FF FF 7F 73  30 31 30 45 03 80 F8 FF  .......s010E....
0BD0: FF 7F F8 FF FF 7F 73 30  36 37 01 80 5B 35 80 41  ......s067..[5.A
0BE0: 21 03 01 41 21 03 01 6D  6F 75 31 1C 04 80 5B 04  !..A!..mou1...[.
0BF0: 80 41 21 03 01 41 21 03  01 70 61 73 30 2B 41 21  .A!..A!..pas0+A!
0C00: 03 01 38 80 23 03 02 10  09 80 2B 41 21 03 01 27  ..8.#.....+A!..'
0C10: 80 23 03 00 00 15 80 01  1A 0C 01 49 22 02 01 00  .#.........I"...
0C20: 18 80 80 6C 10 02 02 00  15 80 80 CA 0C 45 13 80  ...l.........E..
0C30: F8 FF FF 7F F8 FF FF 7F  73 30 38 31 01 80 1C 04  ........s081....
0C40: 80 45 00 80 F8 FF FF 7F  F8 FF FF 7F 66 64 69 31  .E..........fdi1
0C50: 01 80 1C 04 80 2B 41 21  03 01 2B 80 23 52 13 80  .....+A!..+.#R..
0C60: F8 FF FF 7F F8 FF FF 7F  73 30 38 31 45 03 80 F8  ........s081E...
0C70: FF FF 7F F8 FF FF 7F 73  30 36 37 01 80 5B 04 80  .......s067..[..
0C80: 41 21 03 01 41 21 03 01  74 6C 6B 30 03 02 10 09  A!..A!..tlk0....
0C90: 80 2B 41 21 03 01 27 80  23 5B 04 80 41 21 03 01  .+A!..'.#[..A!..
0CA0: 41 21 03 01 74 6C 6B 31  1C 04 80 5B 04 80 41 21  A!..tlk1...[..A!
0CB0: 03 01 41 21 03 01 74 68  6B 31 03 02 10 28 80 2B  ..A!..thk1...(.+
0CC0: 41 21 03 01 29 80 23 01  69 10 02 02 00 17 80 80  A!..).#.i.......
0CD0: 6F 0D 45 13 80 F8 FF FF  7F F8 FF FF 7F 73 30 38  o.E..........s08
0CE0: 31 01 80 1C 04 80 45 00  80 F8 FF FF 7F F8 FF FF  1.....E.........
0CF0: 7F 66 64 69 31 01 80 1C  04 80 2B 41 21 03 01 2B  .fdi1.....+A!..+
0D00: 80 23 52 13 80 F8 FF FF  7F F8 FF FF 7F 73 30 38  .#R..........s08
0D10: 31 45 03 80 F8 FF FF 7F  F8 FF FF 7F 73 30 36 37  1E..........s067
0D20: 01 80 5B 04 80 41 21 03  01 41 21 03 01 74 6C 6B  ..[..A!..A!..tlk
0D30: 30 03 02 10 09 80 2B 41  21 03 01 27 80 23 5B 04  0.....+A!..'.#[.
0D40: 80 41 21 03 01 41 21 03  01 74 6C 6B 31 1C 04 80  .A!..A!..tlk1...
0D50: 5B 04 80 41 21 03 01 41  21 03 01 74 68 6B 31 03  [..A!..A!..thk1.
0D60: 02 10 28 80 2B 41 21 03  01 29 80 23 01 69 10 02  ..(.+A!..).#.i..
0D70: 02 00 18 80 80 65 0F 02  03 00 15 80 00 4C 0E 45  .....e.......L.E
0D80: 13 80 F8 FF FF 7F F8 FF  FF 7F 73 30 30 38 01 80  ..........s008..
0D90: 1C 1F 80 45 00 80 F8 FF  FF 7F F8 FF FF 7F 66 64  ...E..........fd
0DA0: 69 31 01 80 1C 1F 80 2B  41 21 03 01 20 80 23 52  i1.....+A!.. .#R
0DB0: 13 80 F8 FF FF 7F F8 FF  FF 7F 73 30 30 38 45 13  ..........s008E.
0DC0: 80 F8 FF FF 7F F8 FF FF  7F 73 30 38 31 01 80 5B  .........s081..[
0DD0: 04 80 41 21 03 01 41 21  03 01 74 68 6B 31 2B 41  ..A!..A!..thk1+A
0DE0: 21 03 01 21 80 23 48 22  80 7C 00 41 21 03 01 1C  !..!.#H".|.A!...
0DF0: 0F 80 2B 41 21 03 01 23  80 23 52 13 80 F8 FF FF  ..+A!..#.#R.....
0E00: 7F F8 FF FF 7F 73 30 38  31 45 03 80 F8 FF FF 7F  .....s081E......
0E10: F8 FF FF 7F 73 30 36 32  01 80 7C 01 41 21 03 01  ....s062..|.A!..
0E20: 1C 04 80 5B 04 80 41 21  03 01 41 21 03 01 74 68  ...[..A!..A!..th
0E30: 6B 32 2B 41 21 03 01 24  80 23 52 03 80 F8 FF FF  k2+A!..$.#R.....
0E40: 7F F8 FF FF 7F 73 30 36  32 01 D5 0E 45 13 80 F8  .....s062...E...
0E50: FF FF 7F F8 FF FF 7F 73  30 30 38 01 80 1C 1F 80  .......s008.....
0E60: 45 00 80 F8 FF FF 7F F8  FF FF 7F 66 64 69 31 01  E..........fdi1.
0E70: 80 1C 1F 80 2B 41 21 03  01 25 80 23 45 00 80 F0  ....+A!..%.#E...
0E80: FF FF 7F F0 FF FF 7F 6F  76 6C 31 01 80 52 13 80  .......ovl1..R..
0E90: F8 FF FF 7F F8 FF FF 7F  73 30 30 38 45 13 80 F8  ........s008E...
0EA0: FF FF 7F F8 FF FF 7F 73  30 32 31 01 80 1C 26 80  .......s021...&.
0EB0: 03 00 00 15 80 45 00 80  F0 FF FF 7F F0 FF FF 7F  .....E..........
0EC0: 6F 76 6C 31 01 80 52 13  80 F8 FF FF 7F F8 FF FF  ovl1..R.........
0ED0: 7F 73 30 32 31 45 03 80  F8 FF FF 7F F8 FF FF 7F  .s021E..........
0EE0: 73 30 36 37 01 80 02 03  00 15 80 00 3B 0F 5B 04  s067........;.[.
0EF0: 80 41 21 03 01 41 21 03  01 74 6C 6B 30 03 02 10  .A!..A!..tlk0...
0F00: 09 80 2B 41 21 03 01 27  80 23 5B 04 80 41 21 03  ..+A!..'.#[..A!.
0F10: 01 41 21 03 01 74 6C 6B  31 1C 04 80 5B 04 80 41  .A!..tlk1...[..A
0F20: 21 03 01 41 21 03 01 74  68 6B 31 03 02 10 28 80  !..A!..thk1...(.
0F30: 2B 41 21 03 01 29 80 23  01 62 0F 1C 04 80 5B 04  +A!..).#.b....[.
0F40: 80 41 21 03 01 41 21 03  01 70 61 73 30 2B 41 21  .A!..A!..pas0+A!
0F50: 03 01 2A 80 23 03 02 10  09 80 2B 41 21 03 01 27  ..*.#.....+A!..'
0F60: 80 23 01 69 10 02 02 00  19 80 80 69 10 45 13 80  .#.i.......i.E..
0F70: F8 FF FF 7F F8 FF FF 7F  73 30 31 36 01 80 27 05  ........s016..'.
0F80: 41 21 03 01 03 1C 1F 80  45 00 80 F8 FF FF 7F F8  A!......E.......
0F90: FF FF 7F 66 64 69 31 01  80 1C 1F 80 2B 41 21 03  ...fdi1.....+A!.
0FA0: 01 39 80 23 52 13 80 F8  FF FF 7F F8 FF FF 7F 73  .9.#R..........s
0FB0: 30 31 36 45 13 80 F8 FF  FF 7F F8 FF FF 7F 73 30  016E..........s0
0FC0: 31 31 01 80 5B 04 80 41  21 03 01 41 21 03 01 74  11..[..A!..A!..t
0FD0: 68 6B 31 03 02 10 2D 80  03 03 10 32 80 2B 41 21  hk1...-....2.+A!
0FE0: 03 01 3A 80 23 5B 04 80  41 21 03 01 41 21 03 01  ..:.#[..A!..A!..
0FF0: 74 68 6B 32 2B 41 21 03  01 3B 80 23 52 13 80 F8  thk2+A!..;.#R...
1000: FF FF 7F F8 FF FF 7F 73  30 31 31 45 03 80 F8 FF  .......s011E....
1010: FF 7F F8 FF FF 7F 73 30  36 37 01 80 5B 04 80 41  ......s067..[..A
1020: 21 03 01 41 21 03 01 74  6C 6B 30 03 02 10 09 80  !..A!..tlk0.....
1030: 2B 41 21 03 01 27 80 23  5B 04 80 41 21 03 01 41  +A!..'.#[..A!..A
1040: 21 03 01 74 6C 6B 31 1C  04 80 5B 04 80 41 21 03  !..tlk1...[..A!.
1050: 01 41 21 03 01 74 68 6B  31 03 02 10 28 80 2B 41  .A!..thk1...(.+A
1060: 21 03 01 29 80 23 01 69  10 01 49 22 02 01 00 19  !..).#.i..I"....
1070: 80 80 BB 14 02 02 00 15  80 80 6A 12 02 03 00 15  ..........j.....
1080: 80 00 51 11 45 13 80 F8  FF FF 7F F8 FF FF 7F 73  ..Q.E..........s
1090: 30 30 38 01 80 1C 1F 80  45 00 80 F8 FF FF 7F F8  008.....E.......
10A0: FF FF 7F 66 64 69 31 01  80 1C 1F 80 2B 41 21 03  ...fdi1.....+A!.
10B0: 01 20 80 23 52 13 80 F8  FF FF 7F F8 FF FF 7F 73  . .#R..........s
10C0: 30 30 38 45 13 80 F8 FF  FF 7F F8 FF FF 7F 73 30  008E..........s0
10D0: 38 31 01 80 5B 04 80 41  21 03 01 41 21 03 01 74  81..[..A!..A!..t
10E0: 68 6B 31 2B 41 21 03 01  21 80 23 48 22 80 7C 00  hk1+A!..!.#H".|.
10F0: 41 21 03 01 1C 0F 80 2B  41 21 03 01 23 80 23 52  A!.....+A!..#.#R
1100: 13 80 F8 FF FF 7F F8 FF  FF 7F 73 30 38 31 45 03  ..........s081E.
1110: 80 F8 FF FF 7F F8 FF FF  7F 73 30 36 32 01 80 7C  .........s062..|
1120: 01 41 21 03 01 1C 04 80  5B 04 80 41 21 03 01 41  .A!.....[..A!..A
1130: 21 03 01 74 68 6B 32 2B  41 21 03 01 24 80 23 52  !..thk2+A!..$.#R
1140: 03 80 F8 FF FF 7F F8 FF  FF 7F 73 30 36 32 01 DA  ..........s062..
1150: 11 45 13 80 F8 FF FF 7F  F8 FF FF 7F 73 30 30 38  .E..........s008
1160: 01 80 1C 1F 80 45 00 80  F8 FF FF 7F F8 FF FF 7F  .....E..........
1170: 66 64 69 31 01 80 1C 1F  80 2B 41 21 03 01 25 80  fdi1.....+A!..%.
1180: 23 45 00 80 F0 FF FF 7F  F0 FF FF 7F 6F 76 6C 31  #E..........ovl1
1190: 01 80 52 13 80 F8 FF FF  7F F8 FF FF 7F 73 30 30  ..R..........s00
11A0: 38 45 13 80 F8 FF FF 7F  F8 FF FF 7F 73 30 32 31  8E..........s021
11B0: 01 80 1C 26 80 03 00 00  15 80 45 00 80 F0 FF FF  ...&......E.....
11C0: 7F F0 FF FF 7F 6F 76 6C  31 01 80 52 13 80 F8 FF  .....ovl1..R....
11D0: FF 7F F8 FF FF 7F 73 30  32 31 45 03 80 F8 FF FF  ......s021E.....
11E0: 7F F8 FF FF 7F 73 30 36  37 01 80 02 03 00 15 80  .....s067.......
11F0: 00 40 12 5B 04 80 41 21  03 01 41 21 03 01 74 6C  .@.[..A!..A!..tl
1200: 6B 30 03 02 10 09 80 2B  41 21 03 01 27 80 23 5B  k0.....+A!..'.#[
1210: 04 80 41 21 03 01 41 21  03 01 74 6C 6B 31 1C 04  ..A!..A!..tlk1..
1220: 80 5B 04 80 41 21 03 01  41 21 03 01 74 68 6B 31  .[..A!..A!..thk1
1230: 03 02 10 28 80 2B 41 21  03 01 29 80 23 01 67 12  ...(.+A!..).#.g.
1240: 1C 04 80 5B 04 80 41 21  03 01 41 21 03 01 70 61  ...[..A!..A!..pa
1250: 73 30 2B 41 21 03 01 2A  80 23 03 02 10 09 80 2B  s0+A!..*.#.....+
1260: 41 21 03 01 27 80 23 01  B8 14 02 02 00 17 80 80  A!..'.#.........
1270: 0F 13 45 13 80 F8 FF FF  7F F8 FF FF 7F 73 30 38  ..E..........s08
1280: 31 01 80 1C 04 80 45 00  80 F8 FF FF 7F F8 FF FF  1.....E.........
1290: 7F 66 64 69 31 01 80 1C  04 80 2B 41 21 03 01 2B  .fdi1.....+A!..+
12A0: 80 23 52 13 80 F8 FF FF  7F F8 FF FF 7F 73 30 38  .#R..........s08
12B0: 31 45 03 80 F8 FF FF 7F  F8 FF FF 7F 73 30 36 37  1E..........s067
12C0: 01 80 5B 04 80 41 21 03  01 41 21 03 01 74 6C 6B  ..[..A!..A!..tlk
12D0: 30 03 02 10 09 80 2B 41  21 03 01 27 80 23 5B 04  0.....+A!..'.#[.
12E0: 80 41 21 03 01 41 21 03  01 74 6C 6B 31 1C 04 80  .A!..A!..tlk1...
12F0: 5B 04 80 41 21 03 01 41  21 03 01 74 68 6B 31 03  [..A!..A!..thk1.
1300: 02 10 28 80 2B 41 21 03  01 29 80 23 01 B8 14 02  ..(.+A!..).#....
1310: 02 00 18 80 80 B4 13 45  13 80 F8 FF FF 7F F8 FF  .......E........
1320: FF 7F 73 30 38 31 01 80  1C 04 80 45 00 80 F8 FF  ..s081.....E....
1330: FF 7F F8 FF FF 7F 66 64  69 31 01 80 1C 04 80 2B  ......fdi1.....+
1340: 41 21 03 01 2B 80 23 52  13 80 F8 FF FF 7F F8 FF  A!..+.#R........
1350: FF 7F 73 30 38 31 45 03  80 F8 FF FF 7F F8 FF FF  ..s081E.........
1360: 7F 73 30 36 37 01 80 5B  04 80 41 21 03 01 41 21  .s067..[..A!..A!
1370: 03 01 74 6C 6B 30 03 02  10 09 80 2B 41 21 03 01  ..tlk0.....+A!..
1380: 27 80 23 5B 04 80 41 21  03 01 41 21 03 01 74 6C  '.#[..A!..A!..tl
1390: 6B 31 1C 04 80 5B 04 80  41 21 03 01 41 21 03 01  k1...[..A!..A!..
13A0: 74 68 6B 31 03 02 10 28  80 2B 41 21 03 01 29 80  thk1...(.+A!..).
13B0: 23 01 B8 14 02 02 00 19  80 80 B8 14 45 13 80 F8  #...........E...
13C0: FF FF 7F F8 FF FF 7F 73  30 31 36 01 80 27 05 41  .......s016..'.A
13D0: 21 03 01 03 1C 1F 80 45  00 80 F8 FF FF 7F F8 FF  !......E........
13E0: FF 7F 66 64 69 31 01 80  1C 1F 80 2B 41 21 03 01  ..fdi1.....+A!..
13F0: 39 80 23 52 13 80 F8 FF  FF 7F F8 FF FF 7F 73 30  9.#R..........s0
1400: 31 36 45 13 80 F8 FF FF  7F F8 FF FF 7F 73 30 31  16E..........s01
1410: 31 01 80 5B 04 80 41 21  03 01 41 21 03 01 74 68  1..[..A!..A!..th
1420: 6B 31 03 02 10 2D 80 03  03 10 32 80 2B 41 21 03  k1...-....2.+A!.
1430: 01 3A 80 23 5B 04 80 41  21 03 01 41 21 03 01 74  .:.#[..A!..A!..t
1440: 68 6B 32 2B 41 21 03 01  3B 80 23 52 13 80 F8 FF  hk2+A!..;.#R....
1450: FF 7F F8 FF FF 7F 73 30  31 31 45 03 80 F8 FF FF  ......s011E.....
1460: 7F F8 FF FF 7F 73 30 36  37 01 80 5B 04 80 41 21  .....s067..[..A!
1470: 03 01 41 21 03 01 74 6C  6B 30 03 02 10 09 80 2B  ..A!..tlk0.....+
1480: 41 21 03 01 27 80 23 5B  04 80 41 21 03 01 41 21  A!..'.#[..A!..A!
1490: 03 01 74 6C 6B 31 1C 04  80 5B 04 80 41 21 03 01  ..tlk1...[..A!..
14A0: 41 21 03 01 74 68 6B 31  03 02 10 28 80 2B 41 21  A!..thk1...(.+A!
14B0: 03 01 29 80 23 01 B8 14  01 49 22 02 01 00 1A 80  ..).#....I".....
14C0: 80 A6 17 02 02 00 15 80  80 68 15 45 13 80 F8 FF  .........h.E....
14D0: FF 7F F8 FF FF 7F 73 30  38 31 01 80 1C 04 80 45  ......s081.....E
14E0: 00 80 F8 FF FF 7F F8 FF  FF 7F 66 64 69 31 01 80  ..........fdi1..
14F0: 1C 04 80 2B 41 21 03 01  2B 80 23 52 13 80 F8 FF  ...+A!..+.#R....
1500: FF 7F F8 FF FF 7F 73 30  38 31 45 03 80 F8 FF FF  ......s081E.....
1510: 7F F8 FF FF 7F 73 30 36  37 01 80 5B 04 80 41 21  .....s067..[..A!
1520: 03 01 41 21 03 01 74 6C  6B 30 03 02 10 09 80 2B  ..A!..tlk0.....+
1530: 41 21 03 01 27 80 23 5B  04 80 41 21 03 01 41 21  A!..'.#[..A!..A!
1540: 03 01 74 6C 6B 31 1C 04  80 5B 04 80 41 21 03 01  ..tlk1...[..A!..
1550: 41 21 03 01 74 68 6B 31  03 02 10 28 80 2B 41 21  A!..thk1...(.+A!
1560: 03 01 29 80 23 01 A3 17  02 02 00 17 80 80 0D 16  ..).#...........
1570: 45 13 80 F8 FF FF 7F F8  FF FF 7F 73 30 38 31 01  E..........s081.
1580: 80 1C 04 80 45 00 80 F8  FF FF 7F F8 FF FF 7F 66  ....E..........f
1590: 64 69 31 01 80 1C 04 80  2B 41 21 03 01 2B 80 23  di1.....+A!..+.#
15A0: 52 13 80 F8 FF FF 7F F8  FF FF 7F 73 30 38 31 45  R..........s081E
15B0: 03 80 F8 FF FF 7F F8 FF  FF 7F 73 30 36 37 01 80  ..........s067..
15C0: 5B 04 80 41 21 03 01 41  21 03 01 74 6C 6B 30 03  [..A!..A!..tlk0.
15D0: 02 10 09 80 2B 41 21 03  01 27 80 23 5B 04 80 41  ....+A!..'.#[..A
15E0: 21 03 01 41 21 03 01 74  6C 6B 31 1C 04 80 5B 04  !..A!..tlk1...[.
15F0: 80 41 21 03 01 41 21 03  01 74 68 6B 31 03 02 10  .A!..A!..thk1...
1600: 28 80 2B 41 21 03 01 29  80 23 01 A3 17 02 02 00  (.+A!..).#......
1610: 18 80 80 A3 17 02 03 00  15 80 00 85 16 45 13 80  .............E..
1620: F8 FF FF 7F F8 FF FF 7F  73 30 38 31 01 80 1C 04  ........s081....
1630: 80 45 00 80 F8 FF FF 7F  F8 FF FF 7F 66 64 69 31  .E..........fdi1
1640: 01 80 1C 04 80 5B 04 80  41 21 03 01 41 21 03 01  .....[..A!..A!..
1650: 74 68 6B 31 2B 41 21 03  01 2C 80 23 5B 04 80 41  thk1+A!..,.#[..A
1660: 21 03 01 41 21 03 01 74  68 6B 32 2B 41 21 03 01  !..A!..thk2+A!..
1670: 24 80 23 52 13 80 F8 FF  FF 7F F8 FF FF 7F 73 30  $.#R..........s0
1680: 38 31 01 0E 17 45 13 80  F8 FF FF 7F F8 FF FF 7F  81...E..........
1690: 73 30 30 38 01 80 1C 1F  80 45 00 80 F8 FF FF 7F  s008.....E......
16A0: F8 FF FF 7F 66 64 69 31  01 80 1C 1F 80 2B 41 21  ....fdi1.....+A!
16B0: 03 01 25 80 23 45 00 80  F0 FF FF 7F F0 FF FF 7F  ..%.#E..........
16C0: 6F 76 6C 31 01 80 52 13  80 F8 FF FF 7F F8 FF FF  ovl1..R.........
16D0: 7F 73 30 30 38 45 13 80  F8 FF FF 7F F8 FF FF 7F  .s008E..........
16E0: 73 30 32 31 01 80 1C 26  80 03 00 00 15 80 45 00  s021...&......E.
16F0: 80 F0 FF FF 7F F0 FF FF  7F 6F 76 6C 31 01 80 52  .........ovl1..R
1700: 13 80 F8 FF FF 7F F8 FF  FF 7F 73 30 32 31 45 03  ..........s021E.
1710: 80 F8 FF FF 7F F8 FF FF  7F 73 30 36 37 01 80 02  .........s067...
1720: 04 10 15 80 00 74 17 5B  04 80 41 21 03 01 41 21  .....t.[..A!..A!
1730: 03 01 74 6C 6B 30 03 02  10 09 80 2B 41 21 03 01  ..tlk0.....+A!..
1740: 27 80 23 5B 04 80 41 21  03 01 41 21 03 01 74 6C  '.#[..A!..A!..tl
1750: 6B 31 1C 04 80 5B 04 80  41 21 03 01 41 21 03 01  k1...[..A!..A!..
1760: 74 68 6B 31 03 02 10 28  80 2B 41 21 03 01 29 80  thk1...(.+A!..).
1770: 23 01 A0 17 1C 04 80 5B  04 80 41 21 03 01 41 21  #......[..A!..A!
1780: 03 01 70 61 73 30 2B 41  21 03 01 2A 80 23 03 02  ..pas0+A!..*.#..
1790: 10 09 80 2B 41 21 03 01  27 80 23 03 00 00 15 80  ...+A!..'.#.....
17A0: 01 A3 17 01 49 22 02 01  00 1B 80 80 F5 1B 02 02  ....I"..........
17B0: 00 15 80 80 53 18 45 13  80 F8 FF FF 7F F8 FF FF  ....S.E.........
17C0: 7F 73 30 38 31 01 80 1C  04 80 45 00 80 F8 FF FF  .s081.....E.....
17D0: 7F F8 FF FF 7F 66 64 69  31 01 80 1C 04 80 2B 41  .....fdi1.....+A
17E0: 21 03 01 2B 80 23 52 13  80 F8 FF FF 7F F8 FF FF  !..+.#R.........
17F0: 7F 73 30 38 31 45 03 80  F8 FF FF 7F F8 FF FF 7F  .s081E..........
1800: 73 30 36 37 01 80 5B 04  80 41 21 03 01 41 21 03  s067..[..A!..A!.
1810: 01 74 6C 6B 30 03 02 10  09 80 2B 41 21 03 01 27  .tlk0.....+A!..'
1820: 80 23 5B 04 80 41 21 03  01 41 21 03 01 74 6C 6B  .#[..A!..A!..tlk
1830: 31 1C 04 80 5B 04 80 41  21 03 01 41 21 03 01 74  1...[..A!..A!..t
1840: 68 6B 31 03 02 10 28 80  2B 41 21 03 01 29 80 23  hk1...(.+A!..).#
1850: 01 F2 1B 02 02 00 17 80  80 F8 18 45 13 80 F8 FF  ...........E....
1860: FF 7F F8 FF FF 7F 73 30  38 31 01 80 1C 04 80 45  ......s081.....E
1870: 00 80 F8 FF FF 7F F8 FF  FF 7F 66 64 69 31 01 80  ..........fdi1..
1880: 1C 04 80 2B 41 21 03 01  2B 80 23 52 13 80 F8 FF  ...+A!..+.#R....
1890: FF 7F F8 FF FF 7F 73 30  38 31 45 03 80 F8 FF FF  ......s081E.....
18A0: 7F F8 FF FF 7F 73 30 36  37 01 80 5B 04 80 41 21  .....s067..[..A!
18B0: 03 01 41 21 03 01 74 6C  6B 30 03 02 10 09 80 2B  ..A!..tlk0.....+
18C0: 41 21 03 01 27 80 23 5B  04 80 41 21 03 01 41 21  A!..'.#[..A!..A!
18D0: 03 01 74 6C 6B 31 1C 04  80 5B 04 80 41 21 03 01  ..tlk1...[..A!..
18E0: 41 21 03 01 74 68 6B 31  03 02 10 28 80 2B 41 21  A!..thk1...(.+A!
18F0: 03 01 29 80 23 01 F2 1B  02 02 00 18 80 80 EE 1A  ..).#...........
1900: 02 03 00 15 80 00 D5 19  45 13 80 F8 FF FF 7F F8  ........E.......
1910: FF FF 7F 73 30 30 38 01  80 1C 1F 80 45 00 80 F8  ...s008.....E...
1920: FF FF 7F F8 FF FF 7F 66  64 69 31 01 80 1C 1F 80  .......fdi1.....
1930: 2B 41 21 03 01 20 80 23  52 13 80 F8 FF FF 7F F8  +A!.. .#R.......
1940: FF FF 7F 73 30 30 38 45  13 80 F8 FF FF 7F F8 FF  ...s008E........
1950: FF 7F 73 30 38 31 01 80  5B 04 80 41 21 03 01 41  ..s081..[..A!..A
1960: 21 03 01 74 68 6B 31 2B  41 21 03 01 21 80 23 48  !..thk1+A!..!.#H
1970: 22 80 7C 00 41 21 03 01  1C 0F 80 2B 41 21 03 01  ".|.A!.....+A!..
1980: 23 80 23 52 13 80 F8 FF  FF 7F F8 FF FF 7F 73 30  #.#R..........s0
1990: 38 31 45 03 80 F8 FF FF  7F F8 FF FF 7F 73 30 36  81E..........s06
19A0: 32 01 80 7C 01 41 21 03  01 1C 04 80 5B 04 80 41  2..|.A!.....[..A
19B0: 21 03 01 41 21 03 01 74  68 6B 32 2B 41 21 03 01  !..A!..thk2+A!..
19C0: 24 80 23 52 03 80 F8 FF  FF 7F F8 FF FF 7F 73 30  $.#R..........s0
19D0: 36 32 01 5E 1A 45 13 80  F8 FF FF 7F F8 FF FF 7F  62.^.E..........
19E0: 73 30 30 38 01 80 1C 1F  80 45 00 80 F8 FF FF 7F  s008.....E......
19F0: F8 FF FF 7F 66 64 69 31  01 80 1C 1F 80 2B 41 21  ....fdi1.....+A!
1A00: 03 01 25 80 23 45 00 80  F0 FF FF 7F F0 FF FF 7F  ..%.#E..........
1A10: 6F 76 6C 31 01 80 52 13  80 F8 FF FF 7F F8 FF FF  ovl1..R.........
1A20: 7F 73 30 30 38 45 13 80  F8 FF FF 7F F8 FF FF 7F  .s008E..........
1A30: 73 30 32 31 01 80 1C 26  80 03 00 00 15 80 45 00  s021...&......E.
1A40: 80 F0 FF FF 7F F0 FF FF  7F 6F 76 6C 31 01 80 52  .........ovl1..R
1A50: 13 80 F8 FF FF 7F F8 FF  FF 7F 73 30 32 31 45 03  ..........s021E.
1A60: 80 F8 FF FF 7F F8 FF FF  7F 73 30 36 37 01 80 02  .........s067...
1A70: 03 00 15 80 00 C4 1A 5B  04 80 41 21 03 01 41 21  .......[..A!..A!
1A80: 03 01 74 6C 6B 30 03 02  10 09 80 2B 41 21 03 01  ..tlk0.....+A!..
1A90: 27 80 23 5B 04 80 41 21  03 01 41 21 03 01 74 6C  '.#[..A!..A!..tl
1AA0: 6B 31 1C 04 80 5B 04 80  41 21 03 01 41 21 03 01  k1...[..A!..A!..
1AB0: 74 68 6B 31 03 02 10 28  80 2B 41 21 03 01 29 80  thk1...(.+A!..).
1AC0: 23 01 EB 1A 1C 04 80 5B  04 80 41 21 03 01 41 21  #......[..A!..A!
1AD0: 03 01 70 61 73 30 2B 41  21 03 01 2A 80 23 03 02  ..pas0+A!..*.#..
1AE0: 10 09 80 2B 41 21 03 01  27 80 23 01 F2 1B 02 02  ...+A!..'.#.....
1AF0: 00 19 80 80 F2 1B 45 13  80 F8 FF FF 7F F8 FF FF  ......E.........
1B00: 7F 73 30 31 36 01 80 27  05 41 21 03 01 03 1C 1F  .s016..'.A!.....
1B10: 80 45 00 80 F8 FF FF 7F  F8 FF FF 7F 66 64 69 31  .E..........fdi1
1B20: 01 80 1C 1F 80 2B 41 21  03 01 39 80 23 52 13 80  .....+A!..9.#R..
1B30: F8 FF FF 7F F8 FF FF 7F  73 30 31 36 45 13 80 F8  ........s016E...
1B40: FF FF 7F F8 FF FF 7F 73  30 31 31 01 80 5B 04 80  .......s011..[..
1B50: 41 21 03 01 41 21 03 01  74 68 6B 31 03 02 10 2D  A!..A!..thk1...-
1B60: 80 03 03 10 32 80 2B 41  21 03 01 3A 80 23 5B 04  ....2.+A!..:.#[.
1B70: 80 41 21 03 01 41 21 03  01 74 68 6B 32 2B 41 21  .A!..A!..thk2+A!
1B80: 03 01 3B 80 23 52 13 80  F8 FF FF 7F F8 FF FF 7F  ..;.#R..........
1B90: 73 30 31 31 45 03 80 F8  FF FF 7F F8 FF FF 7F 73  s011E..........s
1BA0: 30 36 37 01 80 5B 04 80  41 21 03 01 41 21 03 01  067..[..A!..A!..
1BB0: 74 6C 6B 30 03 02 10 09  80 2B 41 21 03 01 27 80  tlk0.....+A!..'.
1BC0: 23 5B 04 80 41 21 03 01  41 21 03 01 74 6C 6B 31  #[..A!..A!..tlk1
1BD0: 1C 04 80 5B 04 80 41 21  03 01 41 21 03 01 74 68  ...[..A!..A!..th
1BE0: 6B 31 03 02 10 28 80 2B  41 21 03 01 29 80 23 01  k1...(.+A!..).#.
1BF0: F2 1B 01 49 22 02 01 00  1C 80 80 49 22 02 02 00  ...I"......I"...
1C00: 15 80 80 FC 20 02 03 00  15 80 00 D0 1C 45 13 80  .... ........E..
1C10: F8 FF FF 7F F8 FF FF 7F  73 30 38 31 01 80 1C 04  ........s081....
1C20: 80 45 00 80 F8 FF FF 7F  F8 FF FF 7F 66 64 69 31  .E..........fdi1
1C30: 01 80 1C 04 80 5B 04 80  41 21 03 01 41 21 03 01  .....[..A!..A!..
1C40: 74 68 6B 31 2B 41 21 03  01 2C 80 23 5B 04 80 41  thk1+A!..,.#[..A
1C50: 21 03 01 41 21 03 01 74  68 6B 32 2B 41 21 03 01  !..A!..thk2+A!..
1C60: 24 80 23 52 13 80 F8 FF  FF 7F F8 FF FF 7F 73 30  $.#R..........s0
1C70: 38 31 45 03 80 F8 FF FF  7F F8 FF FF 7F 73 30 36  81E..........s06
1C80: 37 01 80 5B 04 80 41 21  03 01 41 21 03 01 74 6C  7..[..A!..A!..tl
1C90: 6B 30 03 02 10 09 80 2B  41 21 03 01 27 80 23 5B  k0.....+A!..'.#[
1CA0: 04 80 41 21 03 01 41 21  03 01 74 6C 6B 31 1C 04  ..A!..A!..tlk1..
1CB0: 80 5B 04 80 41 21 03 01  41 21 03 01 74 68 6B 31  .[..A!..A!..thk1
1CC0: 03 02 10 28 80 2B 41 21  03 01 29 80 23 01 F9 20  ...(.+A!..).#.. 
1CD0: 45 13 80 F8 FF FF 7F F8  FF FF 7F 73 30 30 38 01  E..........s008.
1CE0: 80 1C 1F 80 45 00 80 F8  FF FF 7F F8 FF FF 7F 66  ....E..........f
1CF0: 64 69 31 01 80 1C 1F 80  2B 41 21 03 01 25 80 23  di1.....+A!..%.#
1D00: 52 13 80 F8 FF FF 7F F8  FF FF 7F 73 30 30 38 45  R..........s008E
1D10: 13 80 F8 FF FF 7F F8 FF  FF 7F 73 30 31 34 01 80  ..........s014..
1D20: 2B 41 21 03 01 3C 80 23  52 13 80 F8 FF FF 7F F8  +A!..<.#R.......
1D30: FF FF 7F 73 30 31 34 45  13 80 F8 FF FF 7F F8 FF  ...s014E........
1D40: FF 7F 73 30 31 33 01 80  5B 04 80 41 21 03 01 41  ..s013..[..A!..A
1D50: 21 03 01 74 6C 62 30 2B  41 21 03 01 3D 80 23 2B  !..tlb0+A!..=.#+
1D60: 41 21 03 01 3E 80 23 5B  04 80 41 21 03 01 41 21  A!..>.#[..A!..A!
1D70: 03 01 74 6C 62 31 1C 04  80 52 13 80 F8 FF FF 7F  ..tlb1...R......
1D80: F8 FF FF 7F 73 30 31 33  45 13 80 F8 FF FF 7F F8  ....s013E.......
1D90: FF FF 7F 73 30 31 35 01  80 5B 04 80 41 21 03 01  ...s015..[..A!..
1DA0: 41 21 03 01 74 6C 6B 30  2B 41 21 03 01 3F 80 23  A!..tlk0+A!..?.#
1DB0: 2B 41 21 03 01 40 80 23  5B 04 80 41 21 03 01 41  +A!..@.#[..A!..A
1DC0: 21 03 01 74 6C 6B 31 52  13 80 F8 FF FF 7F F8 FF  !..tlk1R........
1DD0: FF 7F 73 30 31 35 45 03  80 F8 FF FF 7F F8 FF FF  ..s015E.........
1DE0: 7F 73 30 36 32 01 80 2B  41 21 03 01 41 80 23 5B  .s062..+A!..A.#[
1DF0: 04 80 41 21 03 01 41 21  03 01 70 61 73 30 1C 42  ..A!..A!..pas0.B
1E00: 80 52 03 80 F8 FF FF 7F  F8 FF FF 7F 73 30 36 32  .R..........s062
1E10: 45 13 80 F8 FF FF 7F F8  FF FF 7F 73 30 32 32 01  E..........s022.
1E20: 80 1C 04 80 5B 04 80 41  21 03 01 41 21 03 01 74  ....[..A!..A!..t
1E30: 6C 6B 30 2B 41 21 03 01  43 80 23 5B 04 80 41 21  lk0+A!..C.#[..A!
1E40: 03 01 41 21 03 01 74 6C  6B 31 2B 41 21 03 01 44  ..A!..tlk1+A!..D
1E50: 80 23 45 00 80 F8 FF FF  7F F8 FF FF 7F 66 64 6F  .#E..........fdo
1E60: 31 01 80 55 00 80 F8 FF  FF 7F F8 FF FF 7F 66 64  1..U..........fd
1E70: 6F 31 52 13 80 F8 FF FF  7F F8 FF FF 7F 73 30 32  o1R..........s02
1E80: 32 1C 04 80 45 13 80 F8  FF FF 7F F8 FF FF 7F 73  2...E..........s
1E90: 30 34 36 01 80 29 05 2C  21 03 01 1E 92 01 2C 21  046..).,!.....,!
1EA0: 03 01 1C 45 80 45 13 80  F8 FF FF 7F F8 FF FF 7F  ...E.E..........
1EB0: 73 30 32 33 01 80 1C 04  80 45 00 80 F8 FF FF 7F  s023.....E......
1EC0: F8 FF FF 7F 66 64 69 31  01 80 1C 04 80 2B 41 21  ....fdi1.....+A!
1ED0: 03 01 46 80 23 52 13 80  F8 FF FF 7F F8 FF FF 7F  ..F.#R..........
1EE0: 73 30 32 33 45 13 80 F8  FF FF 7F F8 FF FF 7F 73  s023E..........s
1EF0: 30 32 34 01 80 4A 41 21  03 01 2C 21 03 01 2B 41  024..JA!..,!..+A
1F00: 21 03 01 47 80 23 4A 2C  21 03 01 41 21 03 01 2B  !..G.#J,!..A!..+
1F10: 2C 21 03 01 48 80 23 27  05 2C 21 03 01 1F 4A F0  ,!..H.#'.,!...J.
1F20: FF FF 7F 2C 21 03 01 1C  04 80 27 05 41 21 03 01  ...,!.....'.A!..
1F30: 0C 1C 04 80 52 13 80 F8  FF FF 7F F8 FF FF 7F 73  ....R..........s
1F40: 30 32 34 45 13 80 F8 FF  FF 7F F8 FF FF 7F 73 30  024E..........s0
1F50: 32 35 01 80 2A 05 41 21  03 01 5B 04 80 41 21 03  25..*.A!..[..A!.
1F60: 01 41 21 03 01 74 6C 6B  30 2B 41 21 03 01 49 80  .A!..tlk0+A!..I.
1F70: 23 5B 04 80 41 21 03 01  41 21 03 01 74 6C 6B 31  #[..A!..A!..tlk1
1F80: 66 4A 80 2C 21 03 01 2C  21 03 01 74 6C 6B 30 2B  fJ.,!..,!..tlk0+
1F90: 2C 21 03 01 4B 80 23 27  05 F0 FF FF 7F 9A 66 4A  ,!..K.#'......fJ
1FA0: 80 2C 21 03 01 2C 21 03  01 74 6C 6B 31 27 05 41  .,!..,!..tlk1'.A
1FB0: 21 03 01 0D 52 13 80 F8  FF FF 7F F8 FF FF 7F 73  !...R..........s
1FC0: 30 32 35 02 87 7F 1A 80  80 DF 1F 45 13 80 F8 FF  025........E....
1FD0: FF 7F F8 FF FF 7F 73 30  32 39 01 80 01 0C 20 02  ......s029.... .
1FE0: 87 7F 1B 80 80 FB 1F 45  13 80 F8 FF FF 7F F8 FF  .......E........
1FF0: FF 7F 73 30 32 39 01 80  01 0C 20 45 13 80 F8 FF  ..s029.... E....
2000: FF 7F F8 FF FF 7F 73 30  32 36 01 80 2B 41 21 03  ......s026..+A!.
2010: 01 4C 80 23 2A 05 41 21  03 01 2A 05 F0 FF FF 7F  .L.#*.A!..*.....
2020: 1C 04 80 45 13 80 F8 FF  FF 7F F8 FF FF 7F 73 30  ...E..........s0
2030: 34 37 01 80 1C 0F 80 27  05 41 21 03 01 0C 1C 04  47.....'.A!.....
2040: 80 52 13 80 F8 FF FF 7F  F8 FF FF 7F 73 30 32 36  .R..........s026
2050: 52 13 80 F8 FF FF 7F F8  FF FF 7F 73 30 32 39 45  R..........s029E
2060: 13 80 F8 FF FF 7F F8 FF  FF 7F 73 30 32 37 01 80  ..........s027..
2070: 2A 05 41 21 03 01 5B 04  80 41 21 03 01 41 21 03  *.A!..[..A!..A!.
2080: 01 74 6C 6B 30 2B 41 21  03 01 4D 80 23 5B 04 80  .tlk0+A!..M.#[..
2090: 41 21 03 01 41 21 03 01  74 6C 6B 31 2B 41 21 03  A!..A!..tlk1+A!.
20A0: 01 4E 80 23 2B 2C 21 03  01 4F 80 23 52 13 80 F8  .N.#+,!..O.#R...
20B0: FF FF 7F F8 FF FF 7F 73  30 32 37 45 13 80 F8 FF  .......s027E....
20C0: FF 7F F8 FF FF 7F 73 30  32 38 01 80 4A 41 21 03  ......s028..JA!.
20D0: 01 F0 FF FF 7F 1C 1F 80  5B 04 80 41 21 03 01 41  ........[..A!..A
20E0: 21 03 01 74 6C 6B 30 2B  41 21 03 01 50 80 23 5D  !..tlk0+A!..P.#]
20F0: 01 80 0F 80 03 00 00 15  80 01 46 22 02 02 00 17  ..........F"....
2100: 80 80 A1 21 45 13 80 F8  FF FF 7F F8 FF FF 7F 73  ...!E..........s
2110: 30 38 31 01 80 1C 04 80  45 00 80 F8 FF FF 7F F8  081.....E.......
2120: FF FF 7F 66 64 69 31 01  80 1C 04 80 2B 41 21 03  ...fdi1.....+A!.
2130: 01 2B 80 23 52 13 80 F8  FF FF 7F F8 FF FF 7F 73  .+.#R..........s
2140: 30 38 31 45 03 80 F8 FF  FF 7F F8 FF FF 7F 73 30  081E..........s0
2150: 36 37 01 80 5B 04 80 41  21 03 01 41 21 03 01 74  67..[..A!..A!..t
2160: 6C 6B 30 03 02 10 09 80  2B 41 21 03 01 27 80 23  lk0.....+A!..'.#
2170: 5B 04 80 41 21 03 01 41  21 03 01 74 6C 6B 31 1C  [..A!..A!..tlk1.
2180: 04 80 5B 04 80 41 21 03  01 41 21 03 01 74 68 6B  ..[..A!..A!..thk
2190: 31 03 02 10 28 80 2B 41  21 03 01 29 80 23 01 46  1...(.+A!..).#.F
21A0: 22 02 02 00 18 80 80 46  22 45 13 80 F8 FF FF 7F  "......F"E......
21B0: F8 FF FF 7F 73 30 38 31  01 80 1C 04 80 45 00 80  ....s081.....E..
21C0: F8 FF FF 7F F8 FF FF 7F  66 64 69 31 01 80 1C 04  ........fdi1....
21D0: 80 2B 41 21 03 01 2B 80  23 52 13 80 F8 FF FF 7F  .+A!..+.#R......
21E0: F8 FF FF 7F 73 30 38 31  45 03 80 F8 FF FF 7F F8  ....s081E.......
21F0: FF FF 7F 73 30 36 37 01  80 5B 04 80 41 21 03 01  ...s067..[..A!..
2200: 41 21 03 01 74 6C 6B 30  03 02 10 09 80 2B 41 21  A!..tlk0.....+A!
2210: 03 01 27 80 23 5B 04 80  41 21 03 01 41 21 03 01  ..'.#[..A!..A!..
2220: 74 6C 6B 31 1C 04 80 5B  04 80 41 21 03 01 41 21  tlk1...[..A!..A!
2230: 03 01 74 68 6B 31 03 02  10 28 80 2B 41 21 03 01  ..thk1...(.+A!..
2240: 29 80 23 01 46 22 01 49  22 02 00 00 15 80 00 59  ).#.F".I"......Y
2250: 22 03 01 10 15 80 01 66  22 02 00 00 17 80 00 66  "......f"......f
2260: 22 03 01 10 17 80 45 00  80 F8 FF FF 7F F8 FF FF  ".....E.........
2270: 7F 66 64 6F 31 01 80 55  00 80 F8 FF FF 7F F8 FF  .fdo1..U........
2280: FF 7F 66 64 6F 31 52 03  80 F8 FF FF 7F F8 FF FF  ..fdo1R.........
2290: 7F 73 30 36 37 52 13 80  F8 FF FF 7F F8 FF FF 7F  .s067R..........
22A0: 73 30 32 38 02 06 10 1C  80 00 D5 22 02 03 10 15  s028......."....
22B0: 80 00 D5 22 02 00 00 15  80 00 D5 22 45 0D 80 F0  ..."......."E...
22C0: FF FF 7F F0 FF FF 7F 71  73 74 63 01 80 5C 00 51  .......qstc..\.Q
22D0: 80 5C 01 51 80 02 05 10  15 80 00 11 23 02 01 00  .\.Q........#...
22E0: 1C 80 00 11 23 02 02 00  15 80 00 11 23 02 03 00  ....#.......#...
22F0: 15 80 00 F8 22 01 11 23  45 0D 80 F0 FF FF 7F F0  ...."..#E.......
2300: FF FF 7F 71 73 74 63 01  80 5C 00 51 80 5C 01 51  ...qstc..\.Q.\.Q
2310: 80 46 00 1C 04 80 45 00  80 F8 FF FF 7F F8 FF FF  .F....E.........
2320: 7F 66 64 69 31 01 80 21  00                       .fdi1..!.       
```

#### Opcodes

```
  0: 0x02A4 [0x03] Work_Zone[1] = 0*
  1: 0x02A9 [0x03] ExtData[1]->WorkLocal[0] = 0*
  2: 0x02AE [0x03] ExtData[1]->WorkLocal[3] = 0*
  3: 0x02B3 [0x42] SET_CLI_EVENT_CANCEL_DATA()
  4: 0x02B4 [0x02] IF !(Work_Zone[5] == 1*) GOTO 0x035F
  5: 0x02BC [0x24] CREATE_DIALOG(message_id=5190*, default_option=0*, option_flags=0*)
    → "What story would you like to be told? [Light crystal (success)./Light crystal (failure)./Aurora crystal./Light cluster (success)./Light cluster (failure)./Failure./All pictures shot.]"
  6: 0x02C3 [0x25] WAIT_DIALOG_SELECT()
  7: 0x02C4 [0x02] IF !(Work_Zone[0] == 0*) GOTO 0x02D9
  8: 0x02CC [0x03] ExtData[1]->WorkLocal[1] = 1*
  9: 0x02D1 [0x03] ExtData[1]->WorkLocal[2] = 1*
 10: 0x02D6 [0x01] GOTO 0x035C
 11: 0x02D9 [0x02] IF !(Work_Zone[0] == 1*) GOTO 0x02EE
 12: 0x02E1 [0x03] ExtData[1]->WorkLocal[1] = 2*
 13: 0x02E6 [0x03] ExtData[1]->WorkLocal[2] = 2*
 14: 0x02EB [0x01] GOTO 0x035C
 15: 0x02EE [0x02] IF !(Work_Zone[0] == 2*) GOTO 0x0308
 16: 0x02F6 [0x03] ExtData[1]->WorkLocal[1] = 1*
 17: 0x02FB [0x03] ExtData[1]->WorkLocal[2] = 1*
 18: 0x0300 [0x03] ExtData[1]->WorkLocal[3] = 1*
 19: 0x0305 [0x01] GOTO 0x035C
 20: 0x0308 [0x02] IF !(Work_Zone[0] == 3*) GOTO 0x031D
 21: 0x0310 [0x03] ExtData[1]->WorkLocal[1] = 2*
 22: 0x0315 [0x03] ExtData[1]->WorkLocal[2] = 4*
 23: 0x031A [0x01] GOTO 0x035C
 24: 0x031D [0x02] IF !(Work_Zone[0] == 4*) GOTO 0x0332
 25: 0x0325 [0x03] ExtData[1]->WorkLocal[1] = 3*
 26: 0x032A [0x03] ExtData[1]->WorkLocal[2] = 4*
 27: 0x032F [0x01] GOTO 0x035C
 28: 0x0332 [0x02] IF !(Work_Zone[0] == 5*) GOTO 0x0347
 29: 0x033A [0x03] ExtData[1]->WorkLocal[1] = 1*
 30: 0x033F [0x03] ExtData[1]->WorkLocal[2] = 2*
 31: 0x0344 [0x01] GOTO 0x035C
 32: 0x0347 [0x02] IF !(Work_Zone[0] == 6*) GOTO 0x035C
 33: 0x034F [0x03] ExtData[1]->WorkLocal[1] = 7*
 34: 0x0354 [0x03] ExtData[1]->WorkLocal[2] = 1*
 35: 0x0359 [0x01] GOTO 0x035C

SUBROUTINE_035C:
 36: 0x035C [0x01] GOTO 0x041C
 37: 0x035F [0x02] IF !(Work_Zone[6] == 1*) GOTO 0x036F
 38: 0x0367 [0x03] ExtData[1]->WorkLocal[1] = 1*
 39: 0x036C [0x01] GOTO 0x03CF
 40: 0x036F [0x02] IF !(Work_Zone[6] == 2*) GOTO 0x037F
 41: 0x0377 [0x03] ExtData[1]->WorkLocal[1] = 2*
 42: 0x037C [0x01] GOTO 0x03CF
 43: 0x037F [0x02] IF !(Work_Zone[6] == 3*) GOTO 0x038F
 44: 0x0387 [0x03] ExtData[1]->WorkLocal[1] = 3*
 45: 0x038C [0x01] GOTO 0x03CF
 46: 0x038F [0x02] IF !(Work_Zone[6] == 4*) GOTO 0x039F
 47: 0x0397 [0x03] ExtData[1]->WorkLocal[1] = 4*
 48: 0x039C [0x01] GOTO 0x03CF
 49: 0x039F [0x02] IF !(Work_Zone[6] == 5*) GOTO 0x03AF
 50: 0x03A7 [0x03] ExtData[1]->WorkLocal[1] = 5*
 51: 0x03AC [0x01] GOTO 0x03CF
 52: 0x03AF [0x02] IF !(Work_Zone[6] == 6*) GOTO 0x03BF
 53: 0x03B7 [0x03] ExtData[1]->WorkLocal[1] = 6*
 54: 0x03BC [0x01] GOTO 0x03CF
 55: 0x03BF [0x02] IF !(Work_Zone[6] == 7*) GOTO 0x03CF
 56: 0x03C7 [0x03] ExtData[1]->WorkLocal[1] = 7*
 57: 0x03CC [0x01] GOTO 0x03CF

SUBROUTINE_03CF:
 58: 0x03CF [0x02] IF !(Work_Zone[3] == 1*) GOTO 0x03DF
 59: 0x03D7 [0x03] ExtData[1]->WorkLocal[2] = 1*
 60: 0x03DC [0x01] GOTO 0x040F
 61: 0x03DF [0x02] IF !(Work_Zone[3] == 2*) GOTO 0x03EF
 62: 0x03E7 [0x03] ExtData[1]->WorkLocal[2] = 2*
 63: 0x03EC [0x01] GOTO 0x040F
 64: 0x03EF [0x02] IF !(Work_Zone[3] == 3*) GOTO 0x03FF
 65: 0x03F7 [0x03] ExtData[1]->WorkLocal[2] = 3*
 66: 0x03FC [0x01] GOTO 0x040F
 67: 0x03FF [0x02] IF !(Work_Zone[3] == 4*) GOTO 0x040F
 68: 0x0407 [0x03] ExtData[1]->WorkLocal[2] = 4*
 69: 0x040C [0x01] GOTO 0x040F

SUBROUTINE_040F:
 70: 0x040F [0x02] IF !(Work_Zone[4] == 1*) GOTO 0x041C
 71: 0x0417 [0x03] ExtData[1]->WorkLocal[3] = 1*

SUBROUTINE_041C:
 72: 0x041C [0x45] LOAD_SCHEDULED_TASK: Load scheduler "fdo1" with entities [EventEntity, EventEntity], work=[200*, 0*]
 73: 0x042D [0x55] WAIT_LOAD_SCHEDULER: Wait for scheduler "fdo1" with entities [EventEntity, EventEntity], work=200*
 74: 0x043C [0x46] CAMERA_CONTROL: Disable user control
 75: 0x043E [0x38] SET_CLIENT_EVENT_MODE(mode=27*)
 76: 0x0441 [0x92] Balakaf (ID: 16982337/0x01032141)->Render.Flags3 ^= 0x01
 77: 0x0447 [0x29] REQ_SET_WAIT(priority=0x05, entity_id=LocalPlayer, tag_num=0x99)
 78: 0x044E [0x80] LOAD_WAIT(entity=Balakaf (ID: 16982337/0x01032141))
 79: 0x0453 [0x4A] LocalPlayer looks at Balakaf (ID: 16982337/0x01032141)
 80: 0x045C [0x4A] Balakaf (ID: 16982337/0x01032141) looks at LocalPlayer
 81: 0x0465 [0x45] LOAD_SCHEDULED_TASK: Load scheduler "s066" with entities [EventEntity, EventEntity], work=[253*, 0*]
 82: 0x0476 [0x1C] WAIT(60* ticks)
 83: 0x0479 [0x45] LOAD_SCHEDULED_TASK: Load scheduler "fdi1" with entities [EventEntity, EventEntity], work=[200*, 0*]
 84: 0x048A [0x1C] WAIT(60* ticks)
 85: 0x048D [0x5B] LOAD_EXT_SCHEDULER: Load scheduler "tlk0" with entities [Balakaf (ID: 16982337/0x01032141), Balakaf (ID: 16982337/0x01032141)], work=60*
 86: 0x049C [0x2B] Balakaf (ID: 16982337/0x01032141) [5132*]:
    → "Ye've brought me a picture? Let me see what ye've got 'ere..."
 87: 0x04A3 [0x23] WAIT_FOR_DIALOG_INTERACTION
 88: 0x04A4 [0x02] IF !(Work_Zone[6] == 7*) GOTO 0x04C4
 89: 0x04AC [0x02] IF !(Work_Zone[3] == 1*) GOTO 0x04C4
 90: 0x04B4 [0x02] IF !(ExtData[1]->WorkLocal[3] == 1*) GOTO 0x04BF
 91: 0x04BC [0x01] GOTO 0x04C4
 92: 0x04BF [0x5D] SET_MUSIC_VOLUME(volume=0*, fade_time=120*)

SUBROUTINE_04C4:
 93: 0x04C4 [0x02] IF !(Work_Zone[5] == 1*) GOTO 0x04EC
 94: 0x04CC [0x02] IF !(ExtData[1]->WorkLocal[1] == 7*) GOTO 0x04EC
 95: 0x04D4 [0x02] IF !(ExtData[1]->WorkLocal[2] == 1*) GOTO 0x04EC
 96: 0x04DC [0x02] IF !(ExtData[1]->WorkLocal[3] == 1*) GOTO 0x04E7
 97: 0x04E4 [0x01] GOTO 0x04EC
 98: 0x04E7 [0x5D] SET_MUSIC_VOLUME(volume=0*, fade_time=120*)

SUBROUTINE_04EC:
 99: 0x04EC [0x45] LOAD_SCHEDULED_TASK: Load scheduler "fdo1" with entities [EventEntity, EventEntity], work=[200*, 0*]
100: 0x04FD [0x55] WAIT_LOAD_SCHEDULER: Wait for scheduler "fdo1" with entities [EventEntity, EventEntity], work=200*
101: 0x050C [0x52] END_LOAD_SCHEDULER: End scheduler "s066" with entities [EventEntity, EventEntity], work=253*
102: 0x051B [0x5B] LOAD_EXT_SCHEDULER: Load scheduler "tlk1" with entities [Balakaf (ID: 16982337/0x01032141), Balakaf (ID: 16982337/0x01032141)], work=60*
103: 0x052A [0x1C] WAIT(60* ticks)
104: 0x052D [0x02] IF !(Work_Zone[6] == 7*) GOTO 0x0550
105: 0x0535 [0x02] IF !(Work_Zone[3] == 1*) GOTO 0x0550
106: 0x053D [0x02] IF !(ExtData[1]->WorkLocal[3] == 1*) GOTO 0x0548
107: 0x0545 [0x01] GOTO 0x0550
108: 0x0548 [0x5C] MUSIC_CONTROL: Set Idle (Day) music to song 122*
109: 0x054C [0x5C] MUSIC_CONTROL: Set Idle (Night) music to song 122*

SUBROUTINE_0550:
110: 0x0550 [0x02] IF !(Work_Zone[5] == 1*) GOTO 0x057B
111: 0x0558 [0x02] IF !(ExtData[1]->WorkLocal[1] == 7*) GOTO 0x057B
112: 0x0560 [0x02] IF !(ExtData[1]->WorkLocal[2] == 1*) GOTO 0x057B
113: 0x0568 [0x02] IF !(ExtData[1]->WorkLocal[3] == 1*) GOTO 0x0573
114: 0x0570 [0x01] GOTO 0x057B
115: 0x0573 [0x5C] MUSIC_CONTROL: Set Idle (Day) music to song 122*
116: 0x0577 [0x5C] MUSIC_CONTROL: Set Idle (Night) music to song 122*

SUBROUTINE_057B:
117: 0x057B [0x1C] WAIT(60* ticks)
118: 0x057E [0x02] IF !(ExtData[1]->WorkLocal[1] == 1*) GOTO 0x08C9
119: 0x0586 [0x02] IF !(ExtData[1]->WorkLocal[2] == 1*) GOTO 0x077C
120: 0x058E [0x02] IF !(ExtData[1]->WorkLocal[3] == 1*) GOTO 0x0663
121: 0x0596 [0x45] LOAD_SCHEDULED_TASK: Load scheduler "s008" with entities [EventEntity, EventEntity], work=[254*, 0*]
122: 0x05A7 [0x1C] WAIT(30* ticks)
123: 0x05AA [0x45] LOAD_SCHEDULED_TASK: Load scheduler "fdi1" with entities [EventEntity, EventEntity], work=[200*, 0*]
124: 0x05BB [0x1C] WAIT(30* ticks)
125: 0x05BE [0x2B] Balakaf (ID: 16982337/0x01032141) [5164*]:
    → "This be just what I wanted! This scenery brings back wonderful memor--what?"
126: 0x05C5 [0x23] WAIT_FOR_DIALOG_INTERACTION
127: 0x05C6 [0x52] END_LOAD_SCHEDULER: End scheduler "s008" with entities [EventEntity, EventEntity], work=254*
128: 0x05D5 [0x45] LOAD_SCHEDULED_TASK: Load scheduler "s081" with entities [EventEntity, EventEntity], work=[254*, 0*]
129: 0x05E6 [0x5B] LOAD_EXT_SCHEDULER: Load scheduler "thk1" with entities [Balakaf (ID: 16982337/0x01032141), Balakaf (ID: 16982337/0x01032141)], work=60*
130: 0x05F5 [0x2B] Balakaf (ID: 16982337/0x01032141) [5165*]:
    → "There's something on the edge of this picture..."
131: 0x05FC [0x23] WAIT_FOR_DIALOG_INTERACTION
132: 0x05FD [0x48] [System] [5166*]:
    → "You can see your name written in tiny letters on the edge of the picture."
133: 0x0600 [0x7C] Balakaf (ID: 16982337/0x01032141)->Render.Flags2 |= 0x00
134: 0x0606 [0x1C] WAIT(120* ticks)
135: 0x0609 [0x2B] Balakaf (ID: 16982337/0x01032141) [5167*]:
    → "..."
136: 0x0610 [0x23] WAIT_FOR_DIALOG_INTERACTION
137: 0x0611 [0x52] END_LOAD_SCHEDULER: End scheduler "s081" with entities [EventEntity, EventEntity], work=254*
138: 0x0620 [0x45] LOAD_SCHEDULED_TASK: Load scheduler "s062" with entities [EventEntity, EventEntity], work=[253*, 0*]
139: 0x0631 [0x7C] Balakaf (ID: 16982337/0x01032141)->Render.Flags2 |= 0x01
140: 0x0637 [0x1C] WAIT(60* ticks)
141: 0x063A [0x5B] LOAD_EXT_SCHEDULER: Load scheduler "thk2" with entities [Balakaf (ID: 16982337/0x01032141), Balakaf (ID: 16982337/0x01032141)], work=60*
142: 0x0649 [0x2B] Balakaf (ID: 16982337/0x01032141) [5168*]:
    → "Ye'll just have t' try again, won't ye?"
143: 0x0650 [0x23] WAIT_FOR_DIALOG_INTERACTION
144: 0x0651 [0x52] END_LOAD_SCHEDULER: End scheduler "s062" with entities [EventEntity, EventEntity], work=253*
145: 0x0660 [0x01] GOTO 0x06EC
146: 0x0663 [0x45] LOAD_SCHEDULED_TASK: Load scheduler "s008" with entities [EventEntity, EventEntity], work=[254*, 0*]
147: 0x0674 [0x1C] WAIT(30* ticks)
