# 16982426 - Zazarg

## Common Data

| Field            | Value                         |
|------------------|-------------------------------|
| Zone             | Aht Urhgan Whitegate (ID: 50) |
| Block Size       | 320 bytes                     |
| Total Events     | 10                            |
| References Count | 28                            |

## List of Events

| Event ID                 | Entrypoint   |   Size |   Instructions |
|--------------------------|--------------|--------|----------------|
| [65535](#event-65535)    | 0x0000       |      1 |              1 |
| [884](#event-884)        | 0x0001       |      1 |              1 |
| [65535.1](#event-655351) | 0x0002       |     24 |              6 |
| [65535.2](#event-655352) | 0x001A       |      4 |              2 |
| [65535.3](#event-655353) | 0x001E       |     15 |              5 |
| [65535.4](#event-655354) | 0x002D       |     26 |              8 |
| [65535.5](#event-655355) | 0x0047       |     15 |              5 |
| [65535.6](#event-655356) | 0x0056       |     21 |              2 |
| [65535.7](#event-655357) | 0x006B       |     21 |              2 |
| [65535.8](#event-655358) | 0x0080       |     21 |              2 |

## DAT References (imed_data)

|   Index | Hex Value   |   Dec Value |
|---------|-------------|-------------|
|       0 | 0x13496     |       78998 |
|       1 | 0xFFFF49F2  |  4294920690 |
|       2 | 0x1FA5      |        8101 |
|       3 | 0x0079      |         121 |
|       4 | 0x0012      |          18 |
|       5 | 0x1779E     |       96158 |
|       6 | 0xFFFF67BD  |  4294928317 |
|       7 | 0x2107      |        8455 |
|       8 | 0x026D      |         621 |
|       9 | 0x1A048     |      106568 |
|      10 | 0xFFFF8762  |  4294936418 |
|      11 | 0x000D      |          13 |
|      12 | 0x16B5E     |       93022 |
|      13 | 0x3A71      |       14961 |
|      14 | 0xFFFFB127  |  4294947111 |
|      15 | 0x16998     |       92568 |
|      16 | 0x353C      |       13628 |
|      17 | 0x157E5     |       88037 |
|      18 | 0x2662      |        9826 |
|      19 | 0xFFFFB136  |  4294947126 |
|      20 | 0x0008      |           8 |
|      21 | 0x000F      |          15 |
|      22 | 0x0088      |         136 |
|      23 | 0x006E      |         110 |
|      24 | 0x0000      |           0 |
|      25 | 0x0086      |         134 |
|      26 | 0x0002      |           2 |
|      27 | 0x005F      |          95 |

## Events

### Event 65535

#### Metadata

| Field        | Value   |
|--------------|---------|
| Entrypoint   | 0x0000  |
| Data Size    | 1 bytes |
| Instructions | 1       |

```
      00 01 02 03 04 05 06 07  08 09 0A 0B 0C 0D 0E 0F
      -- -- -- -- -- -- -- --  -- -- -- -- -- -- -- --
0000: 00                                                .               
```

#### Opcodes

```
  0: 0x0000 [0x00] END_REQSTACK()
```

### Event 884

#### Metadata

| Field        | Value   |
|--------------|---------|
| Entrypoint   | 0x0001  |
| Data Size    | 1 bytes |
| Instructions | 1       |

```
      00 01 02 03 04 05 06 07  08 09 0A 0B 0C 0D 0E 0F
      -- -- -- -- -- -- -- --  -- -- -- -- -- -- -- --
0000:    00                                              .              
```

#### Opcodes

```
  0: 0x0001 [0x00] END_REQSTACK()
```

### Event 65535.1

#### Metadata

| Field        | Value    |
|--------------|----------|
| Entrypoint   | 0x0002   |
| Data Size    | 24 bytes |
| Instructions | 6        |

```
      00 01 02 03 04 05 06 07  08 09 0A 0B 0C 0D 0E 0F
      -- -- -- -- -- -- -- --  -- -- -- -- -- -- -- --
0000:       37 00 80 01 80 02  80 03 80 32 04 80 1F 00    7........2....
0010: 05 80 06 80 07 80 1F 01  6F 00                    ........o.      
```

#### Opcodes

```
  0: 0x0002 [0x37] UPDATE_EVENT_POSITION_AND_DIR: x=78.998*, z=-46.606*, y=8.101*, direction=10.6°*
  1: 0x000B [0x32] ExtData[1]->MainSpeed = 18* * 0.1
  2: 0x000E [0x1F] MOVE_ENTITY: EventEntity moves to X=96.158*, Z=-38.979*, Y=8.455*
  3: 0x0016 [0x1F] MOVE_ENTITY: Update entity position (mode=1)
  4: 0x0018 [0x6F] WAIT_FRAME_DELAY: Yield until WaitTime reaches zero
  5: 0x0019 [0x00] END_REQSTACK()
```

### Event 65535.2

#### Metadata

| Field        | Value   |
|--------------|---------|
| Entrypoint   | 0x001A  |
| Data Size    | 4 bytes |
| Instructions | 2       |

```
      00 01 02 03 04 05 06 07  08 09 0A 0B 0C 0D 0E 0F
      -- -- -- -- -- -- -- --  -- -- -- -- -- -- -- --
0010:                                39 08 80 00                  9...  
```

#### Opcodes

```
  0: 0x001A [0x39] SET_ENTITY_DIRECTION(direction=3.4°*)
  1: 0x001D [0x00] END_REQSTACK()
```

### Event 65535.3

#### Metadata

| Field        | Value    |
|--------------|----------|
| Entrypoint   | 0x001E   |
| Data Size    | 15 bytes |
| Instructions | 5        |

```
      00 01 02 03 04 05 06 07  08 09 0A 0B 0C 0D 0E 0F
      -- -- -- -- -- -- -- --  -- -- -- -- -- -- -- --
0010:                                            32 04                2.
0020: 80 1F 00 09 80 0A 80 07  80 1F 01 6F 00           ...........o.   
```

#### Opcodes

```
  0: 0x001E [0x32] ExtData[1]->MainSpeed = 18* * 0.1
  1: 0x0021 [0x1F] MOVE_ENTITY: EventEntity moves to X=106.568*, Z=-30.878*, Y=8.455*
  2: 0x0029 [0x1F] MOVE_ENTITY: Update entity position (mode=1)
  3: 0x002B [0x6F] WAIT_FRAME_DELAY: Yield until WaitTime reaches zero
  4: 0x002C [0x00] END_REQSTACK()
```

### Event 65535.4

#### Metadata

| Field        | Value    |
|--------------|----------|
| Entrypoint   | 0x002D   |
| Data Size    | 26 bytes |
| Instructions | 8        |

```
      00 01 02 03 04 05 06 07  08 09 0A 0B 0C 0D 0E 0F
      -- -- -- -- -- -- -- --  -- -- -- -- -- -- -- --
0020:                                         32 0B 80               2..
0030: 1F 00 0C 80 0D 80 0E 80  1F 01 6F 1F 00 0F 80 10  ..........o.....
0040: 80 0E 80 1F 01 6F 00                              .....o.         
```

#### Opcodes

```
  0: 0x002D [0x32] ExtData[1]->MainSpeed = 13* * 0.1
  1: 0x0030 [0x1F] MOVE_ENTITY: EventEntity moves to X=93.022*, Z=14.961*, Y=-20.185*
  2: 0x0038 [0x1F] MOVE_ENTITY: Update entity position (mode=1)
  3: 0x003A [0x6F] WAIT_FRAME_DELAY: Yield until WaitTime reaches zero
  4: 0x003B [0x1F] MOVE_ENTITY: EventEntity moves to X=92.568*, Z=13.628*, Y=-20.185*
  5: 0x0043 [0x1F] MOVE_ENTITY: Update entity position (mode=1)
  6: 0x0045 [0x6F] WAIT_FRAME_DELAY: Yield until WaitTime reaches zero
  7: 0x0046 [0x00] END_REQSTACK()
```

### Event 65535.5

#### Metadata

| Field        | Value    |
|--------------|----------|
| Entrypoint   | 0x0047   |
| Data Size    | 15 bytes |
| Instructions | 5        |

```
      00 01 02 03 04 05 06 07  08 09 0A 0B 0C 0D 0E 0F
      -- -- -- -- -- -- -- --  -- -- -- -- -- -- -- --
0040:                      32  0B 80 1F 00 11 80 12 80         2........
0050: 13 80 1F 01 6F 00                                 ....o.          
```

#### Opcodes

```
  0: 0x0047 [0x32] ExtData[1]->MainSpeed = 13* * 0.1
  1: 0x004A [0x1F] MOVE_ENTITY: EventEntity moves to X=88.037*, Z=9.826*, Y=-20.170*
  2: 0x0052 [0x1F] MOVE_ENTITY: Update entity position (mode=1)
  3: 0x0054 [0x6F] WAIT_FRAME_DELAY: Yield until WaitTime reaches zero
  4: 0x0055 [0x00] END_REQSTACK()
```

### Event 65535.6

#### Metadata

| Field        | Value    |
|--------------|----------|
| Entrypoint   | 0x0056   |
| Data Size    | 21 bytes |
| Instructions | 2        |

```
      00 01 02 03 04 05 06 07  08 09 0A 0B 0C 0D 0E 0F
      -- -- -- -- -- -- -- --  -- -- -- -- -- -- -- --
0050:                   B6 0B  14 80 15 80 16 80 17 80        ..........
0060: 17 80 17 80 17 80 18 80  18 80 00                 ...........     
```

#### Opcodes

```
  0: 0x0056 [0xB6] ENTITY_APPEARANCE_HANDLER(case=Full entity look, race=8*, hair=15*, head=136*, body=110*, hands=110*, legs=110*, feet=110*, main=0*, sub=0*)
  1: 0x006A [0x00] END_REQSTACK()
```

### Event 65535.7

#### Metadata

| Field        | Value    |
|--------------|----------|
| Entrypoint   | 0x006B   |
| Data Size    | 21 bytes |
| Instructions | 2        |

```
      00 01 02 03 04 05 06 07  08 09 0A 0B 0C 0D 0E 0F
      -- -- -- -- -- -- -- --  -- -- -- -- -- -- -- --
0060:                                   B6 0B 14 80 15             .....
0070: 80 16 80 17 80 17 80 17  80 17 80 19 80 19 80 00  ................
```

#### Opcodes

```
  0: 0x006B [0xB6] ENTITY_APPEARANCE_HANDLER(case=Full entity look, race=8*, hair=15*, head=136*, body=110*, hands=110*, legs=110*, feet=110*, main=134*, sub=134*)
  1: 0x007F [0x00] END_REQSTACK()
```

### Event 65535.8

#### Metadata

| Field        | Value    |
|--------------|----------|
| Entrypoint   | 0x0080   |
| Data Size    | 21 bytes |
| Instructions | 2        |

```
      00 01 02 03 04 05 06 07  08 09 0A 0B 0C 0D 0E 0F
      -- -- -- -- -- -- -- --  -- -- -- -- -- -- -- --
0080: B6 0B 14 80 15 80 1A 80  1B 80 17 80 17 80 17 80  ................
0090: 19 80 19 80 00                                    .....           
```

#### Opcodes

```
  0: 0x0080 [0xB6] ENTITY_APPEARANCE_HANDLER(case=Full entity look, race=8*, hair=15*, head=2*, body=95*, hands=110*, legs=110*, feet=110*, main=134*, sub=134*)
  1: 0x0094 [0x00] END_REQSTACK()
```
