# 16982316 - Zabahf

## Common Data

| Field            | Value                         |
|------------------|-------------------------------|
| Zone             | Aht Urhgan Whitegate (ID: 50) |
| Block Size       | 1104 bytes                    |
| Total Events     | 38                            |
| References Count | 73                            |

## List of Events

| Event ID                   | Entrypoint   |   Size |   Instructions |
|----------------------------|--------------|--------|----------------|
| [65535](#event-65535)      | 0x0000       |      1 |              1 |
| [512](#event-512)          | 0x0001       |     52 |             12 |
| [520](#event-520)          | 0x0035       |      1 |              1 |
| [65535.1](#event-655351)   | 0x0036       |     15 |              3 |
| [523](#event-523)          | 0x0045       |     34 |             10 |
| [524](#event-524)          | 0x0067       |      1 |              1 |
| [65535.2](#event-655352)   | 0x0068       |     15 |              3 |
| [65535.3](#event-655353)   | 0x0077       |     14 |              4 |
| [525](#event-525)          | 0x0085       |      1 |              1 |
| [65535.4](#event-655354)   | 0x0086       |     15 |              3 |
| [65535.5](#event-655355)   | 0x0095       |     19 |              5 |
| [65535.6](#event-655356)   | 0x00A8       |     24 |              6 |
| [65535.7](#event-655357)   | 0x00C0       |     22 |              6 |
| [538](#event-538)          | 0x00D6       |     44 |              8 |
| [526](#event-526)          | 0x0102       |      1 |              1 |
| [65535.8](#event-655358)   | 0x0103       |     15 |              3 |
| [65535.9](#event-655359)   | 0x0112       |     29 |              7 |
| [65535.10](#event-6553510) | 0x012F       |     38 |              8 |
| [65535.11](#event-6553511) | 0x0155       |     22 |              6 |
| [65535.12](#event-6553512) | 0x016B       |     14 |              4 |
| [540](#event-540)          | 0x0179       |     14 |              6 |
| [527](#event-527)          | 0x0187       |      1 |              1 |
| [65535.13](#event-6553513) | 0x0188       |     15 |              3 |
| [533](#event-533)          | 0x0197       |     14 |              6 |
| [528](#event-528)          | 0x01A5       |      1 |              1 |
| [65535.14](#event-6553514) | 0x01A6       |     20 |              4 |
| [65535.15](#event-6553515) | 0x01BA       |     14 |              4 |
| [530](#event-530)          | 0x01C8       |     25 |              9 |
| [535](#event-535)          | 0x01E1       |     14 |              6 |
| [546](#event-546)          | 0x01EF       |      1 |              1 |
| [65535.16](#event-6553516) | 0x01F0       |     15 |              3 |
| [65535.17](#event-6553517) | 0x01FF       |     19 |              5 |
| [594](#event-594)          | 0x0212       |      1 |              1 |
| [774](#event-774)          | 0x0213       |      7 |              2 |
| [859](#event-859)          | 0x021A       |      7 |              2 |
| [872](#event-872)          | 0x0221       |      7 |              2 |
| [65535.18](#event-6553518) | 0x0228       |     38 |              9 |
| [65535.19](#event-6553519) | 0x024E       |     54 |              8 |

## DAT References (imed_data)

|   Index | Hex Value   |   Dec Value |
|---------|-------------|-------------|
|       0 | 0x001E      |          30 |
|       1 | 0x0014      |          20 |
|       2 | 0x135A      |        4954 |
|       3 | 0x135B      |        4955 |
|       4 | 0x135C      |        4956 |
|       5 | 0xFFFE9A2C  |  4294875692 |
|       6 | 0x209B      |        8347 |
|       7 | 0x0000      |           0 |
|       8 | 0x07DB      |        2011 |
|       9 | 0x1399      |        5017 |
|      10 | 0x139A      |        5018 |
|      11 | 0xFFFFD16F  |  4294955375 |
|      12 | 0x185C8     |       99784 |
|      13 | 0x07CF      |        1999 |
|      14 | 0x0C15      |        3093 |
|      15 | 0x000D      |          13 |
|      16 | 0xFFFFCFC9  |  4294954953 |
|      17 | 0x18D03     |      101635 |
|      18 | 0xFFFEA390  |  4294878096 |
|      19 | 0x0F14      |        3860 |
|      20 | 0x0B42      |        2882 |
|      21 | 0xFFFEA288  |  4294877832 |
|      22 | 0x10A1      |        4257 |
|      23 | 0xFFFEA731  |  4294879025 |
|      24 | 0x1515      |        5397 |
|      25 | 0xFFFEA7E8  |  4294879208 |
|      26 | 0x240C      |        9228 |
|      27 | 0x13C0      |        5056 |
|      28 | 0xFA45      |       64069 |
|      29 | 0xFFFEE2C8  |  4294894280 |
|      30 | 0x0E06      |        3590 |
|      31 | 0xECA1      |       60577 |
|      32 | 0xFFFEE85D  |  4294895709 |
|      33 | 0xEDE0      |       60896 |
|      34 | 0xFFFEEE01  |  4294897153 |
|      35 | 0x0028      |          40 |
|      36 | 0xDCA5      |       56485 |
|      37 | 0xFFFECC82  |  4294888578 |
|      38 | 0xCF13      |       53011 |
|      39 | 0xFFFECB9F  |  4294888351 |
|      40 | 0xAA85      |       43653 |
|      41 | 0xFFFEC3E6  |  4294886374 |
|      42 | 0x0145      |         325 |
|      43 | 0xFFFEC241  |  4294885953 |
|      44 | 0xFFFFDE7A  |  4294958714 |
|      45 | 0xFFFEC0AD  |  4294885549 |
|      46 | 0x13D4      |        5076 |
|      47 | 0xFFFE9A4B  |  4294875723 |
|      48 | 0x1856      |        6230 |
|      49 | 0x13F4      |        5108 |
|      50 | 0xFFFE9A62  |  4294875746 |
|      51 | 0x17F7      |        6135 |
|      52 | 0x0F4F      |        3919 |
|      53 | 0xFFFE8AC1  |  4294871745 |
|      54 | 0x17ED      |        6125 |
|      55 | 0x13F1      |        5105 |
|      56 | 0x0BDD      |        3037 |
|      57 | 0x13F2      |        5106 |
|      58 | 0x13E6      |        5094 |
|      59 | 0x6312      |       25362 |
|      60 | 0x1C906     |      116998 |
|      61 | 0xFFFFE891  |  4294961297 |
|      62 | 0x0851      |        2129 |
|      63 | 0x6599      |       26009 |
|      64 | 0x1DCA6     |      122022 |
|      65 | 0x01A4      |         420 |
|      66 | 0xFFFE6AE2  |  4294863586 |
|      67 | 0x2041      |        8257 |
|      68 | 0x0305      |         773 |
|      69 | 0xFFFE6A85  |  4294863493 |
|      70 | 0x32D5      |       13013 |
|      71 | 0x1C75      |        7285 |
|      72 | 0x1C76      |        7286 |

## String References

- **4954**: Isn't the air of Al Zahbi simply filthy? Whenever I come home, the first thing I notice is all the dust on my clothing.
- **4955**: What's this? There appears to be some refuse on your garments as well.
- **4956**: <Player> notices a scrap of paper inscribed with a "t" sticking to [his/her] clothing!
- **5017**: Wh-why would I want to go back and speak to Ekhu?
- **5018**: Well, if you insist...
- **5056**: Fixing someone's materialism with a potion? What a curious old lady! I smell a rat.
- **5076**: It was just as I suspected. Tehf must have really wanted that potion to be fooled with a lie like that...
- **5094**: I think I need a potion too, so I can express my feelings more clearly.
- **5105**: If you have come to talk about Bibiki Bay, I have nothing to say.
- **5106**: ...But oh, how I would love to go again.
- **5108**: You should watch out for that girl over there. She's bad news.
- **7285**: I can't get enough of this show! No matter how many times I see that adorable puppet pirouette, I always find myself coming back for more.
- **7286**: What is this? My wallet seems to have misplaced itself... Perhaps it stayed at home...

## Events

### Event 65535

#### Metadata

| Field        | Value   |
|--------------|---------|
| Entrypoint   | 0x0000  |
| Data Size    | 1 bytes |
| Instructions | 1       |

```
      00 01 02 03 04 05 06 07  08 09 0A 0B 0C 0D 0E 0F
      -- -- -- -- -- -- -- --  -- -- -- -- -- -- -- --
0000: 00                                                .               
```

#### Opcodes

```
  0: 0x0000 [0x00] END_REQSTACK()
```

### Event 512

#### Metadata

| Field        | Value    |
|--------------|----------|
| Entrypoint   | 0x0001   |
| Data Size    | 52 bytes |
| Instructions | 12       |

```
      00 01 02 03 04 05 06 07  08 09 0A 0B 0C 0D 0E 0F
      -- -- -- -- -- -- -- --  -- -- -- -- -- -- -- --
0000:    42 1E F0 FF FF 7F 1C  00 80 66 01 80 F8 FF FF   B........f.....
0010: 7F F8 FF FF 7F 74 6C 6B  30 1D 02 80 23 66 01 80  .....tlk0...#f..
0020: F8 FF FF 7F F8 FF FF 7F  74 6C 6B 31 1D 03 80 23  ........tlk1...#
0030: 48 04 80 21 00                                    H..!.           
```

#### Opcodes

```
  0: 0x0001 [0x42] SET_CLI_EVENT_CANCEL_DATA()
  1: 0x0002 [0x1E] EventEntity looks at LocalPlayer and starts talking
  2: 0x0007 [0x1C] WAIT(30* ticks)
  3: 0x000A [0x66] LOAD_EXT_SCHEDULER_MAIN: Load scheduler "tlk0" with entities [EventEntity, EventEntity], work=20*
  4: 0x0019 [0x1D] PRINT_EVENT_MESSAGE(message_id=4954*)
    → "Isn't the air of Al Zahbi simply filthy? Whenever I come home, the first thing I notice is all the dust on my clothing."
  5: 0x001C [0x23] WAIT_FOR_DIALOG_INTERACTION
  6: 0x001D [0x66] LOAD_EXT_SCHEDULER_MAIN: Load scheduler "tlk1" with entities [EventEntity, EventEntity], work=20*
  7: 0x002C [0x1D] PRINT_EVENT_MESSAGE(message_id=4955*)
    → "What's this? There appears to be some refuse on your garments as well."
  8: 0x002F [0x23] WAIT_FOR_DIALOG_INTERACTION
  9: 0x0030 [0x48] [System] [4956*]:
    → "<Player> notices a scrap of paper inscribed with a "t" sticking to [his/her] clothing!"
 10: 0x0033 [0x21] END_EVENT
 11: 0x0034 [0x00] END_REQSTACK()
```

### Event 520

#### Metadata

| Field        | Value   |
|--------------|---------|
| Entrypoint   | 0x0035  |
| Data Size    | 1 bytes |
| Instructions | 1       |

```
      00 01 02 03 04 05 06 07  08 09 0A 0B 0C 0D 0E 0F
      -- -- -- -- -- -- -- --  -- -- -- -- -- -- -- --
0030:                00                                      .          
```

#### Opcodes

```
  0: 0x0035 [0x00] END_REQSTACK()
```

### Event 65535.1

#### Metadata

| Field        | Value    |
|--------------|----------|
| Entrypoint   | 0x0036   |
| Data Size    | 15 bytes |
| Instructions | 3        |

```
      00 01 02 03 04 05 06 07  08 09 0A 0B 0C 0D 0E 0F
      -- -- -- -- -- -- -- --  -- -- -- -- -- -- -- --
0030:                   37 05  80 06 80 07 80 08 80 80        7.........
0040: F8 FF FF 7F 00                                    .....           
```

#### Opcodes

```
  0: 0x0036 [0x37] UPDATE_EVENT_POSITION_AND_DIR: x=-91.604*, z=8.347*, y=0.000*, direction=176.7°*
  1: 0x003F [0x80] LOAD_WAIT(entity=EventEntity)
  2: 0x0044 [0x00] END_REQSTACK()
```

### Event 523

#### Metadata

| Field        | Value    |
|--------------|----------|
| Entrypoint   | 0x0045   |
| Data Size    | 34 bytes |
| Instructions | 10       |

```
      00 01 02 03 04 05 06 07  08 09 0A 0B 0C 0D 0E 0F
      -- -- -- -- -- -- -- --  -- -- -- -- -- -- -- --
0040:                42 1E F0  FF FF 7F 1C 00 80 1D 09       B..........
0050: 80 23 66 01 80 F8 FF FF  7F F8 FF FF 7F 74 6C 6B  .#f..........tlk
0060: 30 1D 0A 80 23 21 00                              0...#!.         
```

#### Opcodes

```
  0: 0x0045 [0x42] SET_CLI_EVENT_CANCEL_DATA()
  1: 0x0046 [0x1E] EventEntity looks at LocalPlayer and starts talking
  2: 0x004B [0x1C] WAIT(30* ticks)
  3: 0x004E [0x1D] PRINT_EVENT_MESSAGE(message_id=5017*)
    → "Wh-why would I want to go back and speak to Ekhu?"
  4: 0x0051 [0x23] WAIT_FOR_DIALOG_INTERACTION
  5: 0x0052 [0x66] LOAD_EXT_SCHEDULER_MAIN: Load scheduler "tlk0" with entities [EventEntity, EventEntity], work=20*
  6: 0x0061 [0x1D] PRINT_EVENT_MESSAGE(message_id=5018*)
    → "Well, if you insist..."
  7: 0x0064 [0x23] WAIT_FOR_DIALOG_INTERACTION
  8: 0x0065 [0x21] END_EVENT
  9: 0x0066 [0x00] END_REQSTACK()
```

### Event 524

#### Metadata

| Field        | Value   |
|--------------|---------|
| Entrypoint   | 0x0067  |
| Data Size    | 1 bytes |
| Instructions | 1       |

```
      00 01 02 03 04 05 06 07  08 09 0A 0B 0C 0D 0E 0F
      -- -- -- -- -- -- -- --  -- -- -- -- -- -- -- --
0060:                      00                                  .        
```

#### Opcodes

```
  0: 0x0067 [0x00] END_REQSTACK()
```

### Event 65535.2

#### Metadata

| Field        | Value    |
|--------------|----------|
| Entrypoint   | 0x0068   |
| Data Size    | 15 bytes |
| Instructions | 3        |

```
      00 01 02 03 04 05 06 07  08 09 0A 0B 0C 0D 0E 0F
      -- -- -- -- -- -- -- --  -- -- -- -- -- -- -- --
0060:                          37 0B 80 0C 80 0D 80 0E          7.......
0070: 80 80 F8 FF FF 7F 00                              .......         
```

#### Opcodes

```
  0: 0x0068 [0x37] UPDATE_EVENT_POSITION_AND_DIR: x=-11.921*, z=99.784*, y=1.999*, direction=271.8°*
  1: 0x0071 [0x80] LOAD_WAIT(entity=EventEntity)
  2: 0x0076 [0x00] END_REQSTACK()
```

### Event 65535.3

#### Metadata

| Field        | Value    |
|--------------|----------|
| Entrypoint   | 0x0077   |
| Data Size    | 14 bytes |
| Instructions | 4        |

```
      00 01 02 03 04 05 06 07  08 09 0A 0B 0C 0D 0E 0F
      -- -- -- -- -- -- -- --  -- -- -- -- -- -- -- --
0070:                      32  0F 80 1F 00 10 80 11 80         2........
0080: 0D 80 1F 01 00                                    .....           
```

#### Opcodes

```
  0: 0x0077 [0x32] ExtData[1]->MainSpeed = 13* * 0.1
  1: 0x007A [0x1F] MOVE_ENTITY: EventEntity moves to X=-12.343*, Z=101.635*, Y=1.999*
  2: 0x0082 [0x1F] MOVE_ENTITY: Update entity position (mode=1)
  3: 0x0084 [0x00] END_REQSTACK()
```

### Event 525

#### Metadata

| Field        | Value   |
|--------------|---------|
| Entrypoint   | 0x0085  |
| Data Size    | 1 bytes |
| Instructions | 1       |

```
      00 01 02 03 04 05 06 07  08 09 0A 0B 0C 0D 0E 0F
      -- -- -- -- -- -- -- --  -- -- -- -- -- -- -- --
0080:                00                                      .          
```

#### Opcodes

```
  0: 0x0085 [0x00] END_REQSTACK()
```

### Event 65535.4

#### Metadata

| Field        | Value    |
|--------------|----------|
| Entrypoint   | 0x0086   |
| Data Size    | 15 bytes |
| Instructions | 3        |

```
      00 01 02 03 04 05 06 07  08 09 0A 0B 0C 0D 0E 0F
      -- -- -- -- -- -- -- --  -- -- -- -- -- -- -- --
0080:                   37 12  80 13 80 07 80 14 80 80        7.........
0090: F8 FF FF 7F 00                                    .....           
```

#### Opcodes

```
  0: 0x0086 [0x37] UPDATE_EVENT_POSITION_AND_DIR: x=-89.200*, z=3.860*, y=0.000*, direction=253.3°*
  1: 0x008F [0x80] LOAD_WAIT(entity=EventEntity)
  2: 0x0094 [0x00] END_REQSTACK()
```

### Event 65535.5

#### Metadata

| Field        | Value    |
|--------------|----------|
| Entrypoint   | 0x0095   |
| Data Size    | 19 bytes |
| Instructions | 5        |

```
      00 01 02 03 04 05 06 07  08 09 0A 0B 0C 0D 0E 0F
      -- -- -- -- -- -- -- --  -- -- -- -- -- -- -- --
0090:                32 0F 80  1F 00 15 80 16 80 07 80       2..........
00A0: 1F 01 1E 2F 21 03 01 00                           .../!...        
```

#### Opcodes

```
  0: 0x0095 [0x32] ExtData[1]->MainSpeed = 13* * 0.1
  1: 0x0098 [0x1F] MOVE_ENTITY: EventEntity moves to X=-89.464*, Z=4.257*, Y=0.000*
  2: 0x00A0 [0x1F] MOVE_ENTITY: Update entity position (mode=1)
  3: 0x00A2 [0x1E] EventEntity looks at Tehf Kimasnahya (ID: 16982319/0x0103212F) and starts talking
  4: 0x00A7 [0x00] END_REQSTACK()
```

### Event 65535.6

#### Metadata

| Field        | Value    |
|--------------|----------|
| Entrypoint   | 0x00A8   |
| Data Size    | 24 bytes |
| Instructions | 6        |

```
      00 01 02 03 04 05 06 07  08 09 0A 0B 0C 0D 0E 0F
      -- -- -- -- -- -- -- --  -- -- -- -- -- -- -- --
00A0:                          32 0F 80 1F 00 17 80 18          2.......
00B0: 80 07 80 1F 01 1F 00 19  80 1A 80 07 80 1F 01 00  ................
```

#### Opcodes

```
  0: 0x00A8 [0x32] ExtData[1]->MainSpeed = 13* * 0.1
  1: 0x00AB [0x1F] MOVE_ENTITY: EventEntity moves to X=-88.271*, Z=5.397*, Y=0.000*
  2: 0x00B3 [0x1F] MOVE_ENTITY: Update entity position (mode=1)
  3: 0x00B5 [0x1F] MOVE_ENTITY: EventEntity moves to X=-88.088*, Z=9.228*, Y=0.000*
  4: 0x00BD [0x1F] MOVE_ENTITY: Update entity position (mode=1)
  5: 0x00BF [0x00] END_REQSTACK()
```

### Event 65535.7

#### Metadata

| Field        | Value    |
|--------------|----------|
| Entrypoint   | 0x00C0   |
| Data Size    | 22 bytes |
| Instructions | 6        |

```
      00 01 02 03 04 05 06 07  08 09 0A 0B 0C 0D 0E 0F
      -- -- -- -- -- -- -- --  -- -- -- -- -- -- -- --
00C0: 32 0F 80 1F 00 17 80 18  80 07 80 1F 01 1E 2F 21  2............./!
00D0: 03 01 1C 00 80 00                                 ......          
```

#### Opcodes

```
  0: 0x00C0 [0x32] ExtData[1]->MainSpeed = 13* * 0.1
  1: 0x00C3 [0x1F] MOVE_ENTITY: EventEntity moves to X=-88.271*, Z=5.397*, Y=0.000*
  2: 0x00CB [0x1F] MOVE_ENTITY: Update entity position (mode=1)
  3: 0x00CD [0x1E] EventEntity looks at Tehf Kimasnahya (ID: 16982319/0x0103212F) and starts talking
  4: 0x00D2 [0x1C] WAIT(30* ticks)
  5: 0x00D5 [0x00] END_REQSTACK()
```

### Event 538

#### Metadata

| Field        | Value    |
|--------------|----------|
| Entrypoint   | 0x00D6   |
| Data Size    | 44 bytes |
| Instructions | 8        |

```
      00 01 02 03 04 05 06 07  08 09 0A 0B 0C 0D 0E 0F
      -- -- -- -- -- -- -- --  -- -- -- -- -- -- -- --
00D0:                   1E F0  FF FF 7F 1C 00 80 66 01        ........f.
00E0: 80 2C 21 03 01 2C 21 03  01 74 68 6B 31 1D 1B 80  .,!..,!..thk1...
00F0: 23 66 01 80 2C 21 03 01  2C 21 03 01 74 68 6B 32  #f..,!..,!..thk2
0100: 21 00                                             !.              
```

#### Opcodes

```
  0: 0x00D6 [0x1E] EventEntity looks at LocalPlayer and starts talking
  1: 0x00DB [0x1C] WAIT(30* ticks)
  2: 0x00DE [0x66] LOAD_EXT_SCHEDULER_MAIN: Load scheduler "thk1" with entities [Zabahf (ID: 16982316/0x0103212C), Zabahf (ID: 16982316/0x0103212C)], work=20*
  3: 0x00ED [0x1D] PRINT_EVENT_MESSAGE(message_id=5056*)
    → "Fixing someone's materialism with a potion? What a curious old lady! I smell a rat."
  4: 0x00F0 [0x23] WAIT_FOR_DIALOG_INTERACTION
  5: 0x00F1 [0x66] LOAD_EXT_SCHEDULER_MAIN: Load scheduler "thk2" with entities [Zabahf (ID: 16982316/0x0103212C), Zabahf (ID: 16982316/0x0103212C)], work=20*
  6: 0x0100 [0x21] END_EVENT
  7: 0x0101 [0x00] END_REQSTACK()
```

### Event 526

#### Metadata

| Field        | Value   |
|--------------|---------|
| Entrypoint   | 0x0102  |
| Data Size    | 1 bytes |
| Instructions | 1       |

```
      00 01 02 03 04 05 06 07  08 09 0A 0B 0C 0D 0E 0F
      -- -- -- -- -- -- -- --  -- -- -- -- -- -- -- --
0100:       00                                            .             
```

#### Opcodes

```
  0: 0x0102 [0x00] END_REQSTACK()
```

### Event 65535.8

#### Metadata

| Field        | Value    |
|--------------|----------|
| Entrypoint   | 0x0103   |
| Data Size    | 15 bytes |
| Instructions | 3        |

```
      00 01 02 03 04 05 06 07  08 09 0A 0B 0C 0D 0E 0F
      -- -- -- -- -- -- -- --  -- -- -- -- -- -- -- --
0100:          37 1C 80 1D 80  07 80 1E 80 80 F8 FF FF     7............
0110: 7F 00                                             ..              
```

#### Opcodes

```
  0: 0x0103 [0x37] UPDATE_EVENT_POSITION_AND_DIR: x=64.069*, z=-73.016*, y=0.000*, direction=315.5°*
  1: 0x010C [0x80] LOAD_WAIT(entity=EventEntity)
  2: 0x0111 [0x00] END_REQSTACK()
```

### Event 65535.9

#### Metadata

| Field        | Value    |
|--------------|----------|
| Entrypoint   | 0x0112   |
| Data Size    | 29 bytes |
| Instructions | 7        |

```
      00 01 02 03 04 05 06 07  08 09 0A 0B 0C 0D 0E 0F
      -- -- -- -- -- -- -- --  -- -- -- -- -- -- -- --
0110:       32 0F 80 1F 00 1F  80 20 80 07 80 1F 01 1F    2...... ......
0120: 00 21 80 22 80 07 80 1F  01 1E 33 21 03 01 00     .!."......3!... 
```

#### Opcodes

```
  0: 0x0112 [0x32] ExtData[1]->MainSpeed = 13* * 0.1
  1: 0x0115 [0x1F] MOVE_ENTITY: EventEntity moves to X=60.577*, Z=-71.587*, Y=0.000*
  2: 0x011D [0x1F] MOVE_ENTITY: Update entity position (mode=1)
  3: 0x011F [0x1F] MOVE_ENTITY: EventEntity moves to X=60.896*, Z=-70.143*, Y=0.000*
  4: 0x0127 [0x1F] MOVE_ENTITY: Update entity position (mode=1)
  5: 0x0129 [0x1E] EventEntity looks at Adahva (ID: 16982323/0x01032133) and starts talking
  6: 0x012E [0x00] END_REQSTACK()
```

### Event 65535.10

#### Metadata

| Field        | Value    |
|--------------|----------|
| Entrypoint   | 0x012F   |
| Data Size    | 38 bytes |
| Instructions | 8        |

```
      00 01 02 03 04 05 06 07  08 09 0A 0B 0C 0D 0E 0F
      -- -- -- -- -- -- -- --  -- -- -- -- -- -- -- --
0120:                                               32                 2
0130: 23 80 1F 00 24 80 25 80  07 80 1F 01 1F 00 26 80  #...$.%.......&.
0140: 27 80 07 80 1F 01 37 28  80 29 80 07 80 0D 80 80  '.....7(.)......
0150: F8 FF FF 7F 00                                    .....           
```

#### Opcodes

```
  0: 0x012F [0x32] ExtData[1]->MainSpeed = 40* * 0.1
  1: 0x0132 [0x1F] MOVE_ENTITY: EventEntity moves to X=56.485*, Z=-78.718*, Y=0.000*
  2: 0x013A [0x1F] MOVE_ENTITY: Update entity position (mode=1)
  3: 0x013C [0x1F] MOVE_ENTITY: EventEntity moves to X=53.011*, Z=-78.945*, Y=0.000*
  4: 0x0144 [0x1F] MOVE_ENTITY: Update entity position (mode=1)
  5: 0x0146 [0x37] UPDATE_EVENT_POSITION_AND_DIR: x=43.653*, z=-80.922*, y=0.000*, direction=175.7°*
  6: 0x014F [0x80] LOAD_WAIT(entity=EventEntity)
  7: 0x0154 [0x00] END_REQSTACK()
```

### Event 65535.11

#### Metadata

| Field        | Value    |
|--------------|----------|
| Entrypoint   | 0x0155   |
| Data Size    | 22 bytes |
| Instructions | 6        |

```
      00 01 02 03 04 05 06 07  08 09 0A 0B 0C 0D 0E 0F
      -- -- -- -- -- -- -- --  -- -- -- -- -- -- -- --
0150:                32 23 80  1F 00 2A 80 2B 80 07 80       2#...*.+...
0160: 1F 01 1E 2F 21 03 01 1C  00 80 00                 .../!......     
```

#### Opcodes

```
  0: 0x0155 [0x32] ExtData[1]->MainSpeed = 40* * 0.1
  1: 0x0158 [0x1F] MOVE_ENTITY: EventEntity moves to X=0.325*, Z=-81.343*, Y=0.000*
  2: 0x0160 [0x1F] MOVE_ENTITY: Update entity position (mode=1)
  3: 0x0162 [0x1E] EventEntity looks at Tehf Kimasnahya (ID: 16982319/0x0103212F) and starts talking
  4: 0x0167 [0x1C] WAIT(30* ticks)
  5: 0x016A [0x00] END_REQSTACK()
```

### Event 65535.12

#### Metadata

| Field        | Value    |
|--------------|----------|
| Entrypoint   | 0x016B   |
| Data Size    | 14 bytes |
| Instructions | 4        |

```
      00 01 02 03 04 05 06 07  08 09 0A 0B 0C 0D 0E 0F
      -- -- -- -- -- -- -- --  -- -- -- -- -- -- -- --
0160:                                   32 23 80 1F 00             2#...
0170: 2C 80 2D 80 07 80 1F 01  00                       ,.-......       
```

#### Opcodes

```
  0: 0x016B [0x32] ExtData[1]->MainSpeed = 40* * 0.1
  1: 0x016E [0x1F] MOVE_ENTITY: EventEntity moves to X=-8.582*, Z=-81.747*, Y=0.000*
  2: 0x0176 [0x1F] MOVE_ENTITY: Update entity position (mode=1)
  3: 0x0178 [0x00] END_REQSTACK()
```

### Event 540

#### Metadata

| Field        | Value    |
|--------------|----------|
| Entrypoint   | 0x0179   |
| Data Size    | 14 bytes |
| Instructions | 6        |

```
      00 01 02 03 04 05 06 07  08 09 0A 0B 0C 0D 0E 0F
      -- -- -- -- -- -- -- --  -- -- -- -- -- -- -- --
0170:                             1E F0 FF FF 7F 1C 00           .......
0180: 80 1D 2E 80 23 21 00                              ....#!.         
```

#### Opcodes

```
  0: 0x0179 [0x1E] EventEntity looks at LocalPlayer and starts talking
  1: 0x017E [0x1C] WAIT(30* ticks)
  2: 0x0181 [0x1D] PRINT_EVENT_MESSAGE(message_id=5076*)
    → "It was just as I suspected. Tehf must have really wanted that potion to be fooled with a lie like that..."
  3: 0x0184 [0x23] WAIT_FOR_DIALOG_INTERACTION
  4: 0x0185 [0x21] END_EVENT
  5: 0x0186 [0x00] END_REQSTACK()
```

### Event 527

#### Metadata

| Field        | Value   |
|--------------|---------|
| Entrypoint   | 0x0187  |
| Data Size    | 1 bytes |
| Instructions | 1       |

```
      00 01 02 03 04 05 06 07  08 09 0A 0B 0C 0D 0E 0F
      -- -- -- -- -- -- -- --  -- -- -- -- -- -- -- --
0180:                      00                                  .        
```

#### Opcodes

```
  0: 0x0187 [0x00] END_REQSTACK()
```

### Event 65535.13

#### Metadata

| Field        | Value    |
|--------------|----------|
| Entrypoint   | 0x0188   |
| Data Size    | 15 bytes |
| Instructions | 3        |

```
      00 01 02 03 04 05 06 07  08 09 0A 0B 0C 0D 0E 0F
      -- -- -- -- -- -- -- --  -- -- -- -- -- -- -- --
0180:                          37 2F 80 30 80 07 80 07          7/.0....
0190: 80 80 F8 FF FF 7F 00                              .......         
```

#### Opcodes

```
  0: 0x0188 [0x37] UPDATE_EVENT_POSITION_AND_DIR: x=-91.573*, z=6.230*, y=0.000*, direction=0.0°*
  1: 0x0191 [0x80] LOAD_WAIT(entity=EventEntity)
  2: 0x0196 [0x00] END_REQSTACK()
```

### Event 533

#### Metadata

| Field        | Value    |
|--------------|----------|
| Entrypoint   | 0x0197   |
| Data Size    | 14 bytes |
| Instructions | 6        |

```
      00 01 02 03 04 05 06 07  08 09 0A 0B 0C 0D 0E 0F
      -- -- -- -- -- -- -- --  -- -- -- -- -- -- -- --
0190:                      1E  F0 FF FF 7F 1C 00 80 1D         .........
01A0: 31 80 23 21 00                                    1.#!.           
```

#### Opcodes

```
  0: 0x0197 [0x1E] EventEntity looks at LocalPlayer and starts talking
  1: 0x019C [0x1C] WAIT(30* ticks)
  2: 0x019F [0x1D] PRINT_EVENT_MESSAGE(message_id=5108*)
    → "You should watch out for that girl over there. She's bad news."
  3: 0x01A2 [0x23] WAIT_FOR_DIALOG_INTERACTION
  4: 0x01A3 [0x21] END_EVENT
  5: 0x01A4 [0x00] END_REQSTACK()
```

### Event 528

#### Metadata

| Field        | Value   |
|--------------|---------|
| Entrypoint   | 0x01A5  |
| Data Size    | 1 bytes |
| Instructions | 1       |

```
      00 01 02 03 04 05 06 07  08 09 0A 0B 0C 0D 0E 0F
      -- -- -- -- -- -- -- --  -- -- -- -- -- -- -- --
01A0:                00                                      .          
```

#### Opcodes

```
  0: 0x01A5 [0x00] END_REQSTACK()
```

### Event 65535.14

#### Metadata

| Field        | Value    |
|--------------|----------|
| Entrypoint   | 0x01A6   |
| Data Size    | 20 bytes |
| Instructions | 4        |

```
      00 01 02 03 04 05 06 07  08 09 0A 0B 0C 0D 0E 0F
      -- -- -- -- -- -- -- --  -- -- -- -- -- -- -- --
01A0:                   37 32  80 33 80 07 80 34 80 80        72.3...4..
01B0: F8 FF FF 7F 1E 2A 21 03  01 00                    .....*!...      
```

#### Opcodes

```
  0: 0x01A6 [0x37] UPDATE_EVENT_POSITION_AND_DIR: x=-91.550*, z=6.135*, y=0.000*, direction=344.4°*
  1: 0x01AF [0x80] LOAD_WAIT(entity=EventEntity)
  2: 0x01B4 [0x1E] EventEntity looks at Ekhu Pesshyadha (ID: 16982314/0x0103212A) and starts talking
  3: 0x01B9 [0x00] END_REQSTACK()
```

### Event 65535.15

#### Metadata

| Field        | Value    |
|--------------|----------|
| Entrypoint   | 0x01BA   |
| Data Size    | 14 bytes |
| Instructions | 4        |

```
      00 01 02 03 04 05 06 07  08 09 0A 0B 0C 0D 0E 0F
      -- -- -- -- -- -- -- --  -- -- -- -- -- -- -- --
01B0:                                32 0F 80 1F 00 35            2....5
01C0: 80 36 80 07 80 1F 01 00                           .6......        
```

#### Opcodes

```
  0: 0x01BA [0x32] ExtData[1]->MainSpeed = 13* * 0.1
  1: 0x01BD [0x1F] MOVE_ENTITY: EventEntity moves to X=-95.551*, Z=6.125*, Y=0.000*
  2: 0x01C5 [0x1F] MOVE_ENTITY: Update entity position (mode=1)
  3: 0x01C7 [0x00] END_REQSTACK()
```

### Event 530

#### Metadata

| Field        | Value    |
|--------------|----------|
| Entrypoint   | 0x01C8   |
| Data Size    | 25 bytes |
| Instructions | 9        |

```
      00 01 02 03 04 05 06 07  08 09 0A 0B 0C 0D 0E 0F
      -- -- -- -- -- -- -- --  -- -- -- -- -- -- -- --
01C0:                          1E F0 FF FF 7F 1C 00 80          ........
01D0: 1D 37 80 23 4B 2C 21 03  01 38 80 1D 39 80 23 21  .7.#K,!..8..9.#!
01E0: 00                                                .               
```

#### Opcodes

```
  0: 0x01C8 [0x1E] EventEntity looks at LocalPlayer and starts talking
  1: 0x01CD [0x1C] WAIT(30* ticks)
  2: 0x01D0 [0x1D] PRINT_EVENT_MESSAGE(message_id=5105*)
    → "If you have come to talk about Bibiki Bay, I have nothing to say."
  3: 0x01D3 [0x23] WAIT_FOR_DIALOG_INTERACTION
  4: 0x01D4 [0x4B] UPDATE_ENTITY_YAW(entity=Zabahf (ID: 16982316/0x0103212C), yaw=16.7°*)
  5: 0x01DB [0x1D] PRINT_EVENT_MESSAGE(message_id=5106*)
    → "...But oh, how I would love to go again."
  6: 0x01DE [0x23] WAIT_FOR_DIALOG_INTERACTION
  7: 0x01DF [0x21] END_EVENT
  8: 0x01E0 [0x00] END_REQSTACK()
```

### Event 535

#### Metadata

| Field        | Value    |
|--------------|----------|
| Entrypoint   | 0x01E1   |
| Data Size    | 14 bytes |
| Instructions | 6        |

```
      00 01 02 03 04 05 06 07  08 09 0A 0B 0C 0D 0E 0F
      -- -- -- -- -- -- -- --  -- -- -- -- -- -- -- --
01E0:    1E F0 FF FF 7F 1C 00  80 1D 3A 80 23 21 00      .........:.#!. 
```

#### Opcodes

```
  0: 0x01E1 [0x1E] EventEntity looks at LocalPlayer and starts talking
  1: 0x01E6 [0x1C] WAIT(30* ticks)
  2: 0x01E9 [0x1D] PRINT_EVENT_MESSAGE(message_id=5094*)
    → "I think I need a potion too, so I can express my feelings more clearly."
  3: 0x01EC [0x23] WAIT_FOR_DIALOG_INTERACTION
  4: 0x01ED [0x21] END_EVENT
  5: 0x01EE [0x00] END_REQSTACK()
```

### Event 546

#### Metadata

| Field        | Value   |
|--------------|---------|
| Entrypoint   | 0x01EF  |
| Data Size    | 1 bytes |
| Instructions | 1       |

```
      00 01 02 03 04 05 06 07  08 09 0A 0B 0C 0D 0E 0F
      -- -- -- -- -- -- -- --  -- -- -- -- -- -- -- --
01E0:                                               00                 .
```

#### Opcodes

```
  0: 0x01EF [0x00] END_REQSTACK()
```

### Event 65535.16

#### Metadata

| Field        | Value    |
|--------------|----------|
| Entrypoint   | 0x01F0   |
| Data Size    | 15 bytes |
| Instructions | 3        |

```
      00 01 02 03 04 05 06 07  08 09 0A 0B 0C 0D 0E 0F
      -- -- -- -- -- -- -- --  -- -- -- -- -- -- -- --
01F0: 37 3B 80 3C 80 3D 80 3E  80 80 F8 FF FF 7F 00     7;.<.=.>....... 
```

#### Opcodes

```
  0: 0x01F0 [0x37] UPDATE_EVENT_POSITION_AND_DIR: x=25.362*, z=116.998*, y=-5.999*, direction=187.1°*
  1: 0x01F9 [0x80] LOAD_WAIT(entity=EventEntity)
  2: 0x01FE [0x00] END_REQSTACK()
```

### Event 65535.17

#### Metadata

| Field        | Value    |
|--------------|----------|
| Entrypoint   | 0x01FF   |
| Data Size    | 19 bytes |
| Instructions | 5        |

```
      00 01 02 03 04 05 06 07  08 09 0A 0B 0C 0D 0E 0F
      -- -- -- -- -- -- -- --  -- -- -- -- -- -- -- --
01F0:                                               32                 2
0200: 0F 80 1F 00 3F 80 40 80  3D 80 1F 01 1E 41 21 03  ....?.@.=....A!.
0210: 01 00                                             ..              
```

#### Opcodes

```
  0: 0x01FF [0x32] ExtData[1]->MainSpeed = 13* * 0.1
  1: 0x0202 [0x1F] MOVE_ENTITY: EventEntity moves to X=26.009*, Z=122.022*, Y=-5.999*
  2: 0x020A [0x1F] MOVE_ENTITY: Update entity position (mode=1)
  3: 0x020C [0x1E] EventEntity looks at Balakaf (ID: 16982337/0x01032141) and starts talking
  4: 0x0211 [0x00] END_REQSTACK()
```

### Event 594

#### Metadata

| Field        | Value   |
|--------------|---------|
| Entrypoint   | 0x0212  |
| Data Size    | 1 bytes |
| Instructions | 1       |

```
      00 01 02 03 04 05 06 07  08 09 0A 0B 0C 0D 0E 0F
      -- -- -- -- -- -- -- --  -- -- -- -- -- -- -- --
0210:       00                                            .             
```

#### Opcodes

```
  0: 0x0212 [0x00] END_REQSTACK()
```

### Event 774

#### Metadata

| Field        | Value   |
|--------------|---------|
| Entrypoint   | 0x0213  |
| Data Size    | 7 bytes |
| Instructions | 2       |

```
      00 01 02 03 04 05 06 07  08 09 0A 0B 0C 0D 0E 0F
      -- -- -- -- -- -- -- --  -- -- -- -- -- -- -- --
0210:          92 01 F8 FF FF  7F 00                       .......      
```

#### Opcodes

```
  0: 0x0213 [0x92] EventEntity->Render.Flags3 ^= 0x01
  1: 0x0219 [0x00] END_REQSTACK()
```

### Event 859

#### Metadata

| Field        | Value   |
|--------------|---------|
| Entrypoint   | 0x021A  |
| Data Size    | 7 bytes |
| Instructions | 2       |

```
      00 01 02 03 04 05 06 07  08 09 0A 0B 0C 0D 0E 0F
      -- -- -- -- -- -- -- --  -- -- -- -- -- -- -- --
0210:                                92 01 F8 FF FF 7F            ......
0220: 00                                                .               
```

#### Opcodes

```
  0: 0x021A [0x92] EventEntity->Render.Flags3 ^= 0x01
  1: 0x0220 [0x00] END_REQSTACK()
```

### Event 872

#### Metadata

| Field        | Value   |
|--------------|---------|
| Entrypoint   | 0x0221  |
| Data Size    | 7 bytes |
| Instructions | 2       |

```
      00 01 02 03 04 05 06 07  08 09 0A 0B 0C 0D 0E 0F
      -- -- -- -- -- -- -- --  -- -- -- -- -- -- -- --
0220:    92 01 F8 FF FF 7F 00                            .......        
```

#### Opcodes

```
  0: 0x0221 [0x92] EventEntity->Render.Flags3 ^= 0x01
  1: 0x0227 [0x00] END_REQSTACK()
```

### Event 65535.18

#### Metadata

| Field        | Value    |
|--------------|----------|
| Entrypoint   | 0x0228   |
| Data Size    | 38 bytes |
| Instructions | 9        |

```
      00 01 02 03 04 05 06 07  08 09 0A 0B 0C 0D 0E 0F
      -- -- -- -- -- -- -- --  -- -- -- -- -- -- -- --
0220:                          1C 41 80 22 00 37 42 80          .A.".7B.
0230: 43 80 07 80 44 80 80 F8  FF FF 7F 32 0F 80 1F 00  C...D......2....
0240: 45 80 46 80 07 80 1F 01  1E 6C 20 03 01 00        E.F......l ...  
```

#### Opcodes

```
  0: 0x0228 [0x1C] WAIT(420* ticks)
  1: 0x022B [0x22] ENTITY_HIDE_FLAG(enabled=0x00)
  2: 0x022D [0x37] UPDATE_EVENT_POSITION_AND_DIR: x=-103.710*, z=8.257*, y=0.000*, direction=67.9°*
  3: 0x0236 [0x80] LOAD_WAIT(entity=EventEntity)
  4: 0x023B [0x32] ExtData[1]->MainSpeed = 13* * 0.1
  5: 0x023E [0x1F] MOVE_ENTITY: EventEntity moves to X=-103.803*, Z=13.013*, Y=0.000*
  6: 0x0246 [0x1F] MOVE_ENTITY: Update entity position (mode=1)
  7: 0x0248 [0x1E] EventEntity looks at Zyfhil (ID: 16982124/0x0103206C) and starts talking
  8: 0x024D [0x00] END_REQSTACK()
```

### Event 65535.19

#### Metadata

| Field        | Value    |
|--------------|----------|
| Entrypoint   | 0x024E   |
| Data Size    | 54 bytes |
| Instructions | 8        |

```
      00 01 02 03 04 05 06 07  08 09 0A 0B 0C 0D 0E 0F
      -- -- -- -- -- -- -- --  -- -- -- -- -- -- -- --
0240:                                            66 01                f.
0250: 80 F8 FF FF 7F F8 FF FF  7F 74 6C 6B 30 1D 47 80  .........tlk0.G.
0260: 23 66 01 80 F8 FF FF 7F  F8 FF FF 7F 74 6C 6B 31  #f..........tlk1
0270: 66 01 80 F8 FF FF 7F F8  FF FF 7F 74 68 6B 31 1D  f..........thk1.
0280: 48 80 23 00                                       H.#.            
```

#### Opcodes

```
  0: 0x024E [0x66] LOAD_EXT_SCHEDULER_MAIN: Load scheduler "tlk0" with entities [EventEntity, EventEntity], work=20*
  1: 0x025D [0x1D] PRINT_EVENT_MESSAGE(message_id=7285*)
    → "I can't get enough of this show! No matter how many times I see that adorable puppet pirouette, I always find myself coming back for more."
  2: 0x0260 [0x23] WAIT_FOR_DIALOG_INTERACTION
  3: 0x0261 [0x66] LOAD_EXT_SCHEDULER_MAIN: Load scheduler "tlk1" with entities [EventEntity, EventEntity], work=20*
  4: 0x0270 [0x66] LOAD_EXT_SCHEDULER_MAIN: Load scheduler "thk1" with entities [EventEntity, EventEntity], work=20*
  5: 0x027F [0x1D] PRINT_EVENT_MESSAGE(message_id=7286*)
    → "What is this? My wallet seems to have misplaced itself... Perhaps it stayed at home..."
  6: 0x0282 [0x23] WAIT_FOR_DIALOG_INTERACTION
  7: 0x0283 [0x00] END_REQSTACK()
```
