# 16982309 - Zasshal

## Common Data

| Field            | Value                         |
|------------------|-------------------------------|
| Zone             | Aht Urhgan Whitegate (ID: 50) |
| Block Size       | 8440 bytes                    |
| Total Events     | 9                             |
| References Count | 134                           |

## List of Events

| Event ID              | Entrypoint   |   Size |   Instructions |
|-----------------------|--------------|--------|----------------|
| [65535](#event-65535) | 0x0000       |      1 |              1 |
| [817](#event-817)     | 0x0001       |     38 |             12 |
| [818](#event-818)     | 0x0027       |   2643 |            384 |
| [819](#event-819)     | 0x0A7A       |   1582 |            248 |
| [820](#event-820)     | 0x10A8       |   1360 |            268 |
| [821](#event-821)     | 0x15F8       |    548 |            104 |
| [822](#event-822)     | 0x181C       |     53 |             15 |
| [287](#event-287)     | 0x1851       |     56 |             16 |
| [286](#event-286)     | 0x1889       |   1569 |            177 |

## DAT References (imed_data)

|   Index | Hex Value   |   Dec Value |
|---------|-------------|-------------|
|       0 | 0x2AE2      |       10978 |
|       1 | 0x02E7      |         743 |
|       2 | 0x2AE3      |       10979 |
|       3 | 0x0000      |           0 |
|       4 | 0x2AE0      |       10976 |
|       5 | 0x2AE1      |       10977 |
|       6 | 0x0001      |           1 |
|       7 | 0x0013      |          19 |
|       8 | 0x000F      |          15 |
|       9 | 0x00D7      |         215 |
|      10 | 0x2AE4      |       10980 |
|      11 | 0x0015      |          21 |
|      12 | 0x003C      |          60 |
|      13 | 0x2AE5      |       10981 |
|      14 | 0x0009      |           9 |
|      15 | 0x2AE6      |       10982 |
|      16 | 0x2AE7      |       10983 |
|      17 | 0x2AE8      |       10984 |
|      18 | 0x2AE9      |       10985 |
|      19 | 0x2AEA      |       10986 |
|      20 | 0x0016      |          22 |
|      21 | 0x001E      |          30 |
|      22 | 0x2AEB      |       10987 |
|      23 | 0x0024      |          36 |
|      24 | 0x2AEC      |       10988 |
|      25 | 0x2AED      |       10989 |
|      26 | 0x2AEE      |       10990 |
|      27 | 0x2AEF      |       10991 |
|      28 | 0x2AF0      |       10992 |
|      29 | 0x2AF1      |       10993 |
|      30 | 0x0007      |           7 |
|      31 | 0x002D      |          45 |
|      32 | 0x2AF2      |       10994 |
|      33 | 0x000B      |          11 |
|      34 | 0x2AF3      |       10995 |
|      35 | 0x2AF4      |       10996 |
|      36 | 0x2AF5      |       10997 |
|      37 | 0x2AF6      |       10998 |
|      38 | 0x2AF7      |       10999 |
|      39 | 0x2AF8      |       11000 |
|      40 | 0x0023      |          35 |
|      41 | 0x2AF9      |       11001 |
|      42 | 0x2AFA      |       11002 |
|      43 | 0x2AFB      |       11003 |
|      44 | 0x2AFC      |       11004 |
|      45 | 0x0356      |         854 |
|      46 | 0x2AFD      |       11005 |
|      47 | 0x2AFE      |       11006 |
|      48 | 0x2AFF      |       11007 |
|      49 | 0x01F4      |         500 |
|      50 | 0x2B00      |       11008 |
|      51 | 0x2B01      |       11009 |
|      52 | 0x2B02      |       11010 |
|      53 | 0x09B9      |        2489 |
|      54 | 0x2B03      |       11011 |
|      55 | 0x0020      |          32 |
|      56 | 0x2B0D      |       11021 |
|      57 | 0x0063      |          99 |
|      58 | 0x0002      |           2 |
|      59 | 0x2B0E      |       11022 |
|      60 | 0x2B0F      |       11023 |
|      61 | 0x2B10      |       11024 |
|      62 | 0x2B11      |       11025 |
|      63 | 0x2B12      |       11026 |
|      64 | 0x2B13      |       11027 |
|      65 | 0x0004      |           4 |
|      66 | 0x2B14      |       11028 |
|      67 | 0x0003      |           3 |
|      68 | 0x2B15      |       11029 |
|      69 | 0x2B16      |       11030 |
|      70 | 0x2B17      |       11031 |
|      71 | 0x2B1F      |       11039 |
|      72 | 0x2B20      |       11040 |
|      73 | 0x2B21      |       11041 |
|      74 | 0x2B04      |       11012 |
|      75 | 0x2B05      |       11013 |
|      76 | 0x2B06      |       11014 |
|      77 | 0x0040      |          64 |
|      78 | 0x0005      |           5 |
|      79 | 0x0006      |           6 |
|      80 | 0x2B08      |       11016 |
|      81 | 0x001A      |          26 |
|      82 | 0x2B0C      |       11020 |
|      83 | 0x000A      |          10 |
|      84 | 0x000C      |          12 |
|      85 | 0x000D      |          13 |
|      86 | 0x000E      |          14 |
|      87 | 0x2B09      |       11017 |
|      88 | 0x2B0A      |       11018 |
|      89 | 0x2B0B      |       11019 |
|      90 | 0x0064      |         100 |
|      91 | 0x00C8      |         200 |
|      92 | 0x2B18      |       11032 |
|      93 | 0x2B19      |       11033 |
|      94 | 0x2B1E      |       11038 |
|      95 | 0x2B33      |       11059 |
|      96 | 0x2B34      |       11060 |
|      97 | 0x2B35      |       11061 |
|      98 | 0x2B36      |       11062 |
|      99 | 0x249F0     |      150000 |
|     100 | 0x2B3C      |       11068 |
|     101 | 0x2B37      |       11063 |
|     102 | 0x2B32      |       11058 |
|     103 | 0x2B38      |       11064 |
|     104 | 0x0010      |          16 |
|     105 | 0x2B3A      |       11066 |
|     106 | 0x2B3B      |       11067 |
|     107 | 0x2B39      |       11065 |
|     108 | 0x0065      |         101 |
|     109 | 0x2B1A      |       11034 |
|     110 | 0x2B1B      |       11035 |
|     111 | 0x2B1C      |       11036 |
|     112 | 0x2B1D      |       11037 |
|     113 | 0x2B3D      |       11069 |
|     114 | 0x2B3E      |       11070 |
|     115 | 0x2B22      |       11042 |
|     116 | 0x2B23      |       11043 |
|     117 | 0x2B24      |       11044 |
|     118 | 0x2B25      |       11045 |
|     119 | 0x0018      |          24 |
|     120 | 0x2B26      |       11046 |
|     121 | 0x2B27      |       11047 |
|     122 | 0x2B28      |       11048 |
|     123 | 0x2B29      |       11049 |
|     124 | 0x2B2A      |       11050 |
|     125 | 0x2B2B      |       11051 |
|     126 | 0x2B2C      |       11052 |
|     127 | 0x2B2D      |       11053 |
|     128 | 0x2B2E      |       11054 |
|     129 | 0x2B2F      |       11055 |
|     130 | 0x2B30      |       11056 |
|     131 | 0x0096      |         150 |
|     132 | 0x2B31      |       11057 |
|     133 | 0x00C9      |         201 |

## String References

- **10977**: Listen to his proposal? [Sure./Um, no thanks.]
- **11011**: Are you in? [I'm in./I'm out./3?/Exchanging Assault Points./Restrictions in the "Remnants."/Exchanging $1]
- **11014**: From which area will you exchange points? [I've changed my mind./Leujaoam Sanctum. ($0 pt.)/Mamool Ja Training Grounds. ($1 pt.)/Lebros Cavern. ($2 pt.)/Periqia. ($3 pt.)/Ilrusi Atoll. ($4 pt.)/Nyzul Isle.]
- **11016**: Exchange points for the permit? [Do it./Maybe not.]
- **11039**: The number of party members that can enter the same remnants area at the same time is restricted to 1-18 members.
- **11040**: All party members must be in possession of a $3 in order to enter the remnants, and meet the level 65 requirement.
- **11041**: All party members must be in possession of $6 in order to enter remnants with a "II" in their name, and meet the level 96 requirement.
- **11063**: Trade for the $1? [Yes, please./No, thank you.]
- **11064**: You're absolutely sure about this? [Don't make me say it again./On second thought...]
- **11068**: Current number of tokens: $2.
- **11070**: Is there something else? [Not really./Trading for $1.]

## Events

### Event 65535

#### Metadata

| Field        | Value   |
|--------------|---------|
| Entrypoint   | 0x0000  |
| Data Size    | 1 bytes |
| Instructions | 1       |

```
      00 01 02 03 04 05 06 07  08 09 0A 0B 0C 0D 0E 0F
      -- -- -- -- -- -- -- --  -- -- -- -- -- -- -- --
0000: 00                                                .               
```

#### Opcodes

```
  0: 0x0000 [0x00] END_REQSTACK()
```

### Event 817

#### Metadata

| Field        | Value    |
|--------------|----------|
| Entrypoint   | 0x0001   |
| Data Size    | 38 bytes |
| Instructions | 12       |

```
      00 01 02 03 04 05 06 07  08 09 0A 0B 0C 0D 0E 0F
      -- -- -- -- -- -- -- --  -- -- -- -- -- -- -- --
0000:    1E F0 FF FF 7F 6F 70  2B 25 21 03 01 00 80 23   .....op+%!....#
0010: 4B F8 FF FF 7F 01 80 6F  76 F8 FF FF 7F 2B 25 21  K......ov....+%!
0020: 03 01 02 80 23 21 00                              ....#!.         
```

#### Opcodes

```
  0: 0x0001 [0x1E] EventEntity looks at LocalPlayer and starts talking
  1: 0x0006 [0x6F] WAIT_FRAME_DELAY: Yield until WaitTime reaches zero
  2: 0x0007 [0x70] WAIT_ENTITY_RENDER_FLAG: Wait while EventEntity->Render.Flags3 bit 2 is set (cancel turn if not)
  3: 0x0008 [0x2B] Zasshal (ID: 16982309/0x01032125) [10978*]:
    → "Wot are you lookin' at? Move along, or you'll find me fists are as mean as me mouf."
  4: 0x000F [0x23] WAIT_FOR_DIALOG_INTERACTION
  5: 0x0010 [0x4B] UPDATE_ENTITY_YAW(entity=EventEntity, yaw=4.1°*)
  6: 0x0017 [0x6F] WAIT_FRAME_DELAY: Yield until WaitTime reaches zero
  7: 0x0018 [0x76] CHECK_ENTITY_RENDER_FLAGS: Wait until EventEntity Render.Flags0 and Render.Flags3 conditions are met
  8: 0x001D [0x2B] Zasshal (ID: 16982309/0x01032125) [10979*]:
    → "(Where am I gonna find meself a merc with the right amount o' rep...?)"
  9: 0x0024 [0x23] WAIT_FOR_DIALOG_INTERACTION
 10: 0x0025 [0x21] END_EVENT
 11: 0x0026 [0x00] END_REQSTACK()
```

### Event 818

#### Metadata

| Field        | Value      |
|--------------|------------|
| Entrypoint   | 0x0027     |
| Data Size    | 2643 bytes |
| Instructions | 281        |

```
      00 01 02 03 04 05 06 07  08 09 0A 0B 0C 0D 0E 0F
      -- -- -- -- -- -- -- --  -- -- -- -- -- -- -- --
0020:                      42  02 09 10 03 80 00 55 00         B......U.
0030: 1E F0 FF FF 7F 6F 70 2B  25 21 03 01 04 80 23 24  .....op+%!....#$
0040: 05 80 03 80 03 80 25 02  00 10 06 80 00 55 00 01  ......%......U..
0050: 78 0A 01 55 00 1A 7C 1C  46 01 38 07 80 92 01 25  x..U..|.F.8....%
0060: 21 03 01 94 01 F0 FF FF  7F 94 01 25 21 03 01 29  !..........%!..)
0070: 10 F0 FF FF 7F 38 80 F0  FF FF 7F 80 25 21 03 01  .....8......%!..
0080: 4A F0 FF FF 7F 25 21 03  01 1E F0 FF FF 7F 6F 70  J....%!.......op
0090: 1C 08 80 45 09 80 F0 FF  FF 7F F0 FF FF 7F 73 6C  ...E..........sl
00A0: 30 30 03 80 1A 5B 1C 6E  25 21 03 01 03 80 99 25  00...[.n%!.....%
00B0: 21 03 01 99 25 21 03 01  29 10 F0 FF FF 7F 1D 2B  !...%!..)......+
00C0: 25 21 03 01 0A 80 23 6E  F0 FF FF 7F 0B 80 99 F0  %!....#n........
00D0: FF FF 7F 99 F0 FF FF 7F  1C 0C 80 52 09 80 F0 FF  ...........R....
00E0: FF 7F F0 FF FF 7F 73 6C  30 30 45 09 80 F0 FF FF  ......sl00E.....
00F0: 7F F0 FF FF 7F 73 6C 30  31 03 80 2B 25 21 03 01  .....sl01..+%!..
0100: 0D 80 23 66 0E 80 25 21  03 01 25 21 03 01 74 77  ..#f..%!..%!..tw
0110: 62 30 2B 25 21 03 01 0F  80 23 52 09 80 F0 FF FF  b0+%!....#R.....
0120: 7F F0 FF FF 7F 73 6C 30  31 45 09 80 F0 FF FF 7F  .....sl01E......
0130: F0 FF FF 7F 73 6C 30 32  03 80 2B 25 21 03 01 10  ....sl02..+%!...
0140: 80 23 66 0E 80 25 21 03  01 25 21 03 01 74 77 62  .#f..%!..%!..twb
0150: 31 29 10 F0 FF FF 7F 1D  2B 25 21 03 01 11 80 23  1)......+%!....#
0160: 52 09 80 F0 FF FF 7F F0  FF FF 7F 73 6C 30 32 45  R..........sl02E
0170: 09 80 F0 FF FF 7F F0 FF  FF 7F 73 6C 30 33 03 80  ..........sl03..
0180: 66 0E 80 25 21 03 01 25  21 03 01 74 77 61 30 2B  f..%!..%!..twa0+
0190: 25 21 03 01 12 80 23 2B  25 21 03 01 13 80 23 52  %!....#+%!....#R
01A0: 09 80 F0 FF FF 7F F0 FF  FF 7F 73 6C 30 33 45 09  ..........sl03E.
01B0: 80 F0 FF FF 7F F0 FF FF  7F 73 6C 30 34 03 80 6E  .........sl04..n
01C0: F0 FF FF 7F 14 80 99 F0  FF FF 7F 99 F0 FF FF 7F  ................
01D0: 1C 15 80 66 0E 80 25 21  03 01 25 21 03 01 74 77  ...f..%!..%!..tw
01E0: 61 31 1C 15 80 2B 25 21  03 01 16 80 23 53 25 21  a1...+%!....#S%!
01F0: 03 01 25 21 03 01 74 77  61 31 52 09 80 F0 FF FF  ..%!..twa1R.....
0200: 7F F0 FF FF 7F 73 6C 30  34 45 09 80 F0 FF FF 7F  .....sl04E......
0210: F0 FF FF 7F 73 6C 30 35  03 80 6E 25 21 03 01 17  ....sl05..n%!...
0220: 80 99 25 21 03 01 99 25  21 03 01 29 10 F0 FF FF  ..%!...%!..)....
0230: 7F 1D 2B 25 21 03 01 18  80 23 2B 25 21 03 01 19  ..+%!....#+%!...
0240: 80 23 2B 25 21 03 01 1A  80 23 52 09 80 F0 FF FF  .#+%!....#R.....
0250: 7F F0 FF FF 7F 73 6C 30  35 45 09 80 F0 FF FF 7F  .....sl05E......
0260: F0 FF FF 7F 73 6C 30 36  03 80 66 0E 80 25 21 03  ....sl06..f..%!.
0270: 01 25 21 03 01 74 68 6B  31 1C 15 80 2B 25 21 03  .%!..thk1...+%!.
0280: 01 1B 80 23 2B 25 21 03  01 1C 80 23 52 09 80 F0  ...#+%!....#R...
0290: FF FF 7F F0 FF FF 7F 73  6C 30 36 45 09 80 F0 FF  .......sl06E....
02A0: FF 7F F0 FF FF 7F 73 6C  30 37 03 80 66 0E 80 25  ......sl07..f..%
02B0: 21 03 01 25 21 03 01 74  68 6B 32 2B 25 21 03 01  !..%!..thk2+%!..
02C0: 1D 80 23 52 09 80 F0 FF  FF 7F F0 FF FF 7F 73 6C  ..#R..........sl
02D0: 30 37 45 09 80 F0 FF FF  7F F0 FF FF 7F 73 6C 30  07E..........sl0
02E0: 38 03 80 6E F0 FF FF 7F  1E 80 99 F0 FF FF 7F 99  8..n............
02F0: F0 FF FF 7F 1C 1F 80 2B  25 21 03 01 20 80 23 6E  .......+%!.. .#n
0300: 25 21 03 01 21 80 99 25  21 03 01 99 25 21 03 01  %!..!..%!...%!..
0310: 29 10 F0 FF FF 7F 1D 2B  25 21 03 01 22 80 23 2B  )......+%!..".#+
0320: 25 21 03 01 23 80 23 52  09 80 F0 FF FF 7F F0 FF  %!..#.#R........
0330: FF 7F 73 6C 30 38 45 09  80 F0 FF FF 7F F0 FF FF  ..sl08E.........
0340: 7F 73 6C 30 39 03 80 66  0E 80 25 21 03 01 25 21  .sl09..f..%!..%!
0350: 03 01 74 68 6B 31 1C 15  80 2B 25 21 03 01 24 80  ..thk1...+%!..$.
0360: 23 52 09 80 F0 FF FF 7F  F0 FF FF 7F 73 6C 30 39  #R..........sl09
0370: 45 09 80 F0 FF FF 7F F0  FF FF 7F 73 6C 31 30 03  E..........sl10.
0380: 80 2B 25 21 03 01 25 80  23 66 0E 80 25 21 03 01  .+%!..%.#f..%!..
0390: 25 21 03 01 74 68 6B 32  53 25 21 03 01 25 21 03  %!..thk2S%!..%!.
03A0: 01 74 68 6B 32 52 09 80  F0 FF FF 7F F0 FF FF 7F  .thk2R..........
03B0: 73 6C 31 30 45 09 80 F0  FF FF 7F F0 FF FF 7F 73  sl10E..........s
03C0: 6C 31 31 03 80 2B 25 21  03 01 26 80 23 52 09 80  l11..+%!..&.#R..
03D0: F0 FF FF 7F F0 FF FF 7F  73 6C 31 31 45 09 80 F0  ........sl11E...
03E0: FF FF 7F F0 FF FF 7F 73  6C 31 32 03 80 7C 00 25  .......sl12..|.%
03F0: 21 03 01 2B 25 21 03 01  27 80 23 7C 01 25 21 03  !..+%!..'.#|.%!.
0400: 01 6E F0 FF FF 7F 28 80  99 F0 FF FF 7F 99 F0 FF  .n....(.........
0410: FF 7F 52 09 80 F0 FF FF  7F F0 FF FF 7F 73 6C 31  ..R..........sl1
0420: 32 45 09 80 F0 FF FF 7F  F0 FF FF 7F 73 6C 31 33  2E..........sl13
0430: 03 80 1C 1F 80 2B 25 21  03 01 29 80 23 66 0E 80  .....+%!..).#f..
0440: 25 21 03 01 25 21 03 01  74 77 61 30 29 10 F0 FF  %!..%!..twa0)...
0450: FF 7F 1D 2B 25 21 03 01  2A 80 23 52 09 80 F0 FF  ...+%!..*.#R....
0460: FF 7F F0 FF FF 7F 73 6C  31 33 45 09 80 F0 FF FF  ......sl13E.....
0470: 7F F0 FF FF 7F 73 6C 31  34 03 80 66 0E 80 25 21  .....sl14..f..%!
0480: 03 01 25 21 03 01 74 77  61 31 2B 25 21 03 01 2B  ..%!..twa1+%!..+
0490: 80 23 53 25 21 03 01 25  21 03 01 74 77 61 31 6E  .#S%!..%!..twa1n
04A0: 25 21 03 01 03 80 99 25  21 03 01 99 25 21 03 01  %!.....%!...%!..
04B0: 2B 25 21 03 01 2C 80 23  52 09 80 F0 FF FF 7F F0  +%!..,.#R.......
04C0: FF FF 7F 73 6C 31 34 45  09 80 F0 FF FF 7F F0 FF  ...sl14E........
04D0: FF 7F 73 6C 31 35 03 80  03 02 10 2D 80 2B 25 21  ..sl15.....-.+%!
04E0: 03 01 2E 80 23 2B 25 21  03 01 2F 80 23 52 09 80  ....#+%!../.#R..
04F0: F0 FF FF 7F F0 FF FF 7F  73 6C 31 35 45 09 80 F0  ........sl15E...
0500: FF FF 7F F0 FF FF 7F 73  6C 31 36 03 80 66 0E 80  .......sl16..f..
0510: 25 21 03 01 25 21 03 01  74 77 62 30 2B 25 21 03  %!..%!..twb0+%!.
0520: 01 30 80 23 03 02 10 31  80 2B 25 21 03 01 32 80  .0.#...1.+%!..2.
0530: 23 6E F0 FF FF 7F 14 80  99 F0 FF FF 7F 99 F0 FF  #n..............
0540: FF 7F 1C 15 80 52 09 80  F0 FF FF 7F F0 FF FF 7F  .....R..........
0550: 73 6C 31 36 45 09 80 F0  FF FF 7F F0 FF FF 7F 73  sl16E..........s
0560: 6C 31 37 03 80 1C 15 80  66 0E 80 25 21 03 01 25  l17.....f..%!..%
0570: 21 03 01 74 77 62 31 29  10 F0 FF FF 7F 1D 2B 25  !..twb1)......+%
0580: 21 03 01 33 80 23 2B 25  21 03 01 34 80 23 03 02  !..3.#+%!..4.#..
0590: 10 2D 80 03 03 10 35 80  24 36 80 03 80 37 80 25  .-....5.$6...7.%
05A0: 02 00 10 03 80 00 AE 05  01 E5 07 01 E2 07 02 00  ................
05B0: 10 06 80 00 DA 05 6E 25  21 03 01 28 80 99 25 21  ......n%!..(..%!
05C0: 03 01 99 25 21 03 01 2B  25 21 03 01 38 80 23 03  ...%!..+%!..8.#.
05D0: 01 10 39 80 01 50 0A 01  E2 07 02 00 10 3A 80 00  ..9..P.......:..
05E0: 0F 07 52 09 80 F0 FF FF  7F F0 FF FF 7F 73 6C 31  ..R..........sl1
05F0: 37 45 09 80 F0 FF FF 7F  F0 FF FF 7F 73 6C 31 38  7E..........sl18
0600: 03 80 66 0E 80 25 21 03  01 25 21 03 01 74 77 61  ..f..%!..%!..twa
0610: 30 03 02 10 2D 80 2B 25  21 03 01 3B 80 23 2B 25  0...-.+%!..;.#+%
0620: 21 03 01 3C 80 23 52 09  80 F0 FF FF 7F F0 FF FF  !..<.#R.........
0630: 7F 73 6C 31 38 45 09 80  F0 FF FF 7F F0 FF FF 7F  .sl18E..........
0640: 73 6C 31 39 03 80 66 0E  80 25 21 03 01 25 21 03  sl19..f..%!..%!.
0650: 01 74 77 61 31 03 02 10  31 80 2B 25 21 03 01 32  .twa1...1.+%!..2
0660: 80 23 2B 25 21 03 01 3D  80 23 52 09 80 F0 FF FF  .#+%!..=.#R.....
0670: 7F F0 FF FF 7F 73 6C 31  39 45 09 80 F0 FF FF 7F  .....sl19E......
0680: F0 FF FF 7F 73 6C 32 30  03 80 2B 25 21 03 01 3E  ....sl20..+%!..>
0690: 80 23 6E 25 21 03 01 14  80 99 25 21 03 01 99 25  .#n%!.....%!...%
06A0: 21 03 01 2B 25 21 03 01  3F 80 23 52 09 80 F0 FF  !..+%!..?.#R....
06B0: FF 7F F0 FF FF 7F 73 6C  32 30 45 09 80 F0 FF FF  ......sl20E.....
06C0: 7F F0 FF FF 7F 73 6C 32  31 03 80 2B 25 21 03 01  .....sl21..+%!..
06D0: 40 80 23 6E 25 21 03 01  41 80 99 25 21 03 01 99  @.#n%!..A..%!...
06E0: 25 21 03 01 2B 25 21 03  01 42 80 23 52 09 80 F0  %!..+%!..B.#R...
06F0: FF FF 7F F0 FF FF 7F 73  6C 32 31 45 09 80 F0 FF  .......sl21E....
0700: FF 7F F0 FF FF 7F 73 6C  31 37 03 80 01 E2 07 02  ......sl17......
0710: 00 10 43 80 00 C1 07 52  09 80 F0 FF FF 7F F0 FF  ..C....R........
0720: FF 7F 73 6C 31 37 45 09  80 F0 FF FF 7F F0 FF FF  ..sl17E.........
0730: 7F 73 6C 32 32 03 80 66  0E 80 25 21 03 01 25 21  .sl22..f..%!..%!
0740: 03 01 74 77 62 30 29 10  F0 FF FF 7F 1D 2B 25 21  ..twb0)......+%!
0750: 03 01 44 80 23 03 02 10  2D 80 03 03 10 31 80 2B  ..D.#...-....1.+
0760: 25 21 03 01 45 80 23 52  09 80 F0 FF FF 7F F0 FF  %!..E.#R........
0770: FF 7F 73 6C 32 32 45 09  80 F0 FF FF 7F F0 FF FF  ..sl22E.........
0780: 7F 73 6C 32 33 03 80 66  0E 80 25 21 03 01 25 21  .sl23..f..%!..%!
0790: 03 01 74 77 62 31 2B 25  21 03 01 46 80 23 52 09  ..twb1+%!..F.#R.
07A0: 80 F0 FF FF 7F F0 FF FF  7F 73 6C 32 33 45 09 80  .........sl23E..
07B0: F0 FF FF 7F F0 FF FF 7F  73 6C 31 37 03 80 01 E2  ........sl17....
07C0: 07 02 00 10 41 80 00 E2  07 48 47 80 23 03 02 10  ....A....HG.#...
07D0: 2D 80 48 48 80 23 03 02  10 2D 80 48 49 80 23 01  -.HH.#...-.HI.#.
07E0: E2 07 01 8E 05 52 09 80  F0 FF FF 7F F0 FF FF 7F  .....R..........
07F0: 73 6C 31 37 45 09 80 F0  FF FF 7F F0 FF FF 7F 73  sl17E..........s
0800: 6C 32 34 03 80 6E 25 21  03 01 21 80 99 25 21 03  l24..n%!..!..%!.
0810: 01 99 25 21 03 01 2B 25  21 03 01 4A 80 23 52 09  ..%!..+%!..J.#R.
0820: 80 F0 FF FF 7F F0 FF FF  7F 73 6C 32 34 45 09 80  .........sl24E..
0830: F0 FF FF 7F F0 FF FF 7F  73 6C 32 35 03 80 2B 25  ........sl25..+%
0840: 21 03 01 4B 80 23 03 01  10 03 80 43 00 43 01 24  !..K.#.....C.C.$
0850: 4C 80 03 80 4D 80 25 02  00 10 03 80 00 83 08 6E  L...M.%........n
0860: 25 21 03 01 28 80 99 25  21 03 01 99 25 21 03 01  %!..(..%!...%!..
0870: 2B 25 21 03 01 38 80 23  03 01 10 39 80 01 50 0A  +%!..8.#...9..P.
0880: 01 FC 08 02 00 10 06 80  00 98 08 03 00 00 03 80  ................
0890: 03 02 10 02 10 01 FC 08  02 00 10 3A 80 00 AD 08  ...........:....
08A0: 03 00 00 06 80 03 02 10  03 10 01 FC 08 02 00 10  ................
08B0: 43 80 00 C2 08 03 00 00  3A 80 03 02 10 04 10 01  C.......:.......
08C0: FC 08 02 00 10 41 80 00  D7 08 03 00 00 43 80 03  .....A.......C..
08D0: 02 10 05 10 01 FC 08 02  00 10 4E 80 00 EC 08 03  ..........N.....
08E0: 00 00 41 80 03 02 10 06  10 01 FC 08 02 00 10 4F  ..A............O
08F0: 80 00 FC 08 03 00 00 4E  80 01 FC 08 02 02 10 31  .......N.......1
0900: 80 04 0A 09 05 01 00 01  0D 09 06 01 00 03 02 10  ................
0910: 2D 80 24 50 80 06 80 03  80 25 02 00 10 03 80 00  -.$P.....%......
0920: 4E 09 02 01 00 03 80 00  4B 09 6E 25 21 03 01 51  N.......K.n%!..Q
0930: 80 99 25 21 03 01 99 25  21 03 01 03 02 10 31 80  ..%!...%!.....1.
0940: 2B 25 21 03 01 52 80 23  01 46 08 01 5C 09 02 00  +%!..R.#.F..\...
0950: 10 06 80 00 5C 09 01 46  08 01 5C 09 02 00 00 03  ....\..F..\.....
0960: 80 80 6C 09 03 01 10 53  80 01 BC 09 02 00 00 06  ..l....S........
0970: 80 80 7C 09 03 01 10 21  80 01 BC 09 02 00 00 3A  ..|....!.......:
0980: 80 80 8C 09 03 01 10 54  80 01 BC 09 02 00 00 43  .......T.......C
0990: 80 80 9C 09 03 01 10 55  80 01 BC 09 02 00 00 41  .......U.......A
09A0: 80 80 AC 09 03 01 10 56  80 01 BC 09 02 00 00 4E  .......V.......N
09B0: 80 80 BC 09 03 01 10 08  80 01 BC 09 43 00 43 01  ............C.C.
09C0: 52 09 80 F0 FF FF 7F F0  FF FF 7F 73 6C 32 35 45  R..........sl25E
09D0: 09 80 F0 FF FF 7F F0 FF  FF 7F 73 6C 32 36 03 80  ..........sl26..
09E0: 29 10 F0 FF FF 7F 1D 03  04 10 00 00 6E 25 21 03  )...........n%!.
09F0: 01 17 80 99 25 21 03 01  99 25 21 03 01 2B 25 21  ....%!...%!..+%!
0A00: 03 01 57 80 23 03 02 10  2D 80 2B 25 21 03 01 58  ..W.#...-.+%!..X
0A10: 80 23 52 09 80 F0 FF FF  7F F0 FF FF 7F 73 6C 32  .#R..........sl2
0A20: 36 45 09 80 F0 FF FF 7F  F0 FF FF 7F 73 6C 32 37  6E..........sl27
0A30: 03 80 6E 25 21 03 01 41  80 99 25 21 03 01 99 25  ..n%!..A..%!...%
0A40: 21 03 01 2B 25 21 03 01  59 80 23 03 01 10 5A 80  !..+%!..Y.#...Z.
0A50: 1A 7C 1C 1C 15 80 52 09  80 F0 FF FF 7F F0 FF FF  .|....R.........
0A60: 7F 73 6C 32 37 46 00 45  5B 80 F0 FF FF 7F F0 FF  .sl27F.E[.......
0A70: FF 7F 66 64 69 32 03 80  21 00                    ..fdi2..!.      
```

#### Opcodes

```
  0: 0x0027 [0x42] SET_CLI_EVENT_CANCEL_DATA()
  1: 0x0028 [0x02] IF !(Work_Zone[9] == 0*) GOTO 0x0055
  2: 0x0030 [0x1E] EventEntity looks at LocalPlayer and starts talking
  3: 0x0035 [0x6F] WAIT_FRAME_DELAY: Yield until WaitTime reaches zero
  4: 0x0036 [0x70] WAIT_ENTITY_RENDER_FLAG: Wait while EventEntity->Render.Flags3 bit 2 is set (cancel turn if not)
  5: 0x0037 [0x2B] Zasshal (ID: 16982309/0x01032125) [10976*]:
    → "I got a whoppin' great deal for an upstandin' mercenary like yourself. You keen?"
  6: 0x003E [0x23] WAIT_FOR_DIALOG_INTERACTION
  7: 0x003F [0x24] CREATE_DIALOG(message_id=10977*, default_option=0*, option_flags=0*)
    → "Listen to his proposal? [Sure./Um, no thanks.]"
  8: 0x0046 [0x25] WAIT_DIALOG_SELECT()
  9: 0x0047 [0x02] IF !(Work_Zone[0] == 1*) GOTO 0x0055
 10: 0x004F [0x01] GOTO 0x0A78

SUBROUTINE_0055:
 11: 0x0055 [0x1A] CALL_SUBROUTINE(address=0x1C7C)
 12: 0x0058 [0x46] CAMERA_CONTROL: Disable user control
 13: 0x005A [0x38] SET_CLIENT_EVENT_MODE(mode=19*)
 14: 0x005D [0x92] Zasshal (ID: 16982309/0x01032125)->Render.Flags3 ^= 0x01
 15: 0x0063 [0x94] LocalPlayer->Render.Flags3 ^= 0x01
 16: 0x0069 [0x94] Zasshal (ID: 16982309/0x01032125)->Render.Flags3 ^= 0x01
 17: 0x006F [0x29] REQ_SET_WAIT(priority=0x10, entity_id=LocalPlayer, tag_num=0x38)
 18: 0x0076 [0x80] LOAD_WAIT(entity=LocalPlayer)
 19: 0x007B [0x80] LOAD_WAIT(entity=Zasshal (ID: 16982309/0x01032125))
 20: 0x0080 [0x4A] LocalPlayer looks at Zasshal (ID: 16982309/0x01032125)
 21: 0x0089 [0x1E] EventEntity looks at LocalPlayer and starts talking
 22: 0x008E [0x6F] WAIT_FRAME_DELAY: Yield until WaitTime reaches zero
 23: 0x008F [0x70] WAIT_ENTITY_RENDER_FLAG: Wait while EventEntity->Render.Flags3 bit 2 is set (cancel turn if not)
 24: 0x0090 [0x1C] WAIT(15* ticks)
 25: 0x0093 [0x45] LOAD_SCHEDULED_TASK: Load scheduler "sl00" with entities [LocalPlayer, LocalPlayer], work=[215*, 0*]
 26: 0x00A4 [0x1A] CALL_SUBROUTINE(address=0x1C5B)
 27: 0x00A7 [0x6E] Zasshal (ID: 16982309/0x01032125) uses emote 0*
 28: 0x00AE [0x99] Wait for Zasshal (ID: 16982309/0x01032125) animation to complete
 29: 0x00B3 [0x99] Wait for Zasshal (ID: 16982309/0x01032125) animation to complete
 30: 0x00B8 [0x29] REQ_SET_WAIT(priority=0x10, entity_id=LocalPlayer, tag_num=0x1D)
 31: 0x00BF [0x2B] Zasshal (ID: 16982309/0x01032125) [10980*]:
    → "You know what I fink, [luv/mate]? You're a spy for one o' those foreign nations, ain't you?"
 32: 0x00C6 [0x23] WAIT_FOR_DIALOG_INTERACTION
 33: 0x00C7 [0x6E] LocalPlayer uses emote 21*
 34: 0x00CE [0x99] Wait for LocalPlayer animation to complete
 35: 0x00D3 [0x99] Wait for LocalPlayer animation to complete
 36: 0x00D8 [0x1C] WAIT(60* ticks)
 37: 0x00DB [0x52] END_LOAD_SCHEDULER: End scheduler "sl00" with entities [LocalPlayer, LocalPlayer], work=215*
 38: 0x00EA [0x45] LOAD_SCHEDULED_TASK: Load scheduler "sl01" with entities [LocalPlayer, LocalPlayer], work=[215*, 0*]
 39: 0x00FB [0x2B] Zasshal (ID: 16982309/0x01032125) [10981*]:
    → "I was just messin' wif ya, but it looks like I 'it the mark...hehe."
 40: 0x0102 [0x23] WAIT_FOR_DIALOG_INTERACTION
 41: 0x0103 [0x66] LOAD_EXT_SCHEDULER_MAIN: Load scheduler "twb0" with entities [Zasshal (ID: 16982309/0x01032125), Zasshal (ID: 16982309/0x01032125)], work=9*
 42: 0x0112 [0x2B] Zasshal (ID: 16982309/0x01032125) [10982*]:
    → "Don't come over all cold, now. I ain't gonna snitch on you to the boys in blue."
 43: 0x0119 [0x23] WAIT_FOR_DIALOG_INTERACTION
 44: 0x011A [0x52] END_LOAD_SCHEDULER: End scheduler "sl01" with entities [LocalPlayer, LocalPlayer], work=215*
 45: 0x0129 [0x45] LOAD_SCHEDULED_TASK: Load scheduler "sl02" with entities [LocalPlayer, LocalPlayer], work=[215*, 0*]
 46: 0x013A [0x2B] Zasshal (ID: 16982309/0x01032125) [10983*]:
    → "Look 'ere. I ain't no con artist."
 47: 0x0141 [0x23] WAIT_FOR_DIALOG_INTERACTION
 48: 0x0142 [0x66] LOAD_EXT_SCHEDULER_MAIN: Load scheduler "twb1" with entities [Zasshal (ID: 16982309/0x01032125), Zasshal (ID: 16982309/0x01032125)], work=9*
 49: 0x0151 [0x29] REQ_SET_WAIT(priority=0x10, entity_id=LocalPlayer, tag_num=0x1D)
 50: 0x0158 [0x2B] Zasshal (ID: 16982309/0x01032125) [10984*]:
    → "You got any interest in the Ruins of Alzadaal?"
 51: 0x015F [0x23] WAIT_FOR_DIALOG_INTERACTION
 52: 0x0160 [0x52] END_LOAD_SCHEDULER: End scheduler "sl02" with entities [LocalPlayer, LocalPlayer], work=215*
 53: 0x016F [0x45] LOAD_SCHEDULED_TASK: Load scheduler "sl03" with entities [LocalPlayer, LocalPlayer], work=[215*, 0*]
 54: 0x0180 [0x66] LOAD_EXT_SCHEDULER_MAIN: Load scheduler "twa0" with entities [Zasshal (ID: 16982309/0x01032125), Zasshal (ID: 16982309/0x01032125)], work=9*
 55: 0x018F [0x2B] Zasshal (ID: 16982309/0x01032125) [10985*]:
    → "You know, that place under the ocean wot's been protected as a piece o' cultural 'eritage. You must o' 'eard about it by now."
 56: 0x0196 [0x23] WAIT_FOR_DIALOG_INTERACTION
 57: 0x0197 [0x2B] Zasshal (ID: 16982309/0x01032125) [10986*]:
    → "Now, wot I'm offerin' you is a chance to enter the "remnants.""
 58: 0x019E [0x23] WAIT_FOR_DIALOG_INTERACTION
 59: 0x019F [0x52] END_LOAD_SCHEDULER: End scheduler "sl03" with entities [LocalPlayer, LocalPlayer], work=215*
 60: 0x01AE [0x45] LOAD_SCHEDULED_TASK: Load scheduler "sl04" with entities [LocalPlayer, LocalPlayer], work=[215*, 0*]
 61: 0x01BF [0x6E] LocalPlayer uses emote 22*
 62: 0x01C6 [0x99] Wait for LocalPlayer animation to complete
 63: 0x01CB [0x99] Wait for LocalPlayer animation to complete
 64: 0x01D0 [0x1C] WAIT(30* ticks)
 65: 0x01D3 [0x66] LOAD_EXT_SCHEDULER_MAIN: Load scheduler "twa1" with entities [Zasshal (ID: 16982309/0x01032125), Zasshal (ID: 16982309/0x01032125)], work=9*
 66: 0x01E2 [0x1C] WAIT(30* ticks)
 67: 0x01E5 [0x2B] Zasshal (ID: 16982309/0x01032125) [10987*]:
    → "You wot? You reckon any geezer can get in for the price of admission?"
 68: 0x01EC [0x23] WAIT_FOR_DIALOG_INTERACTION
 69: 0x01ED [0x53] WAIT_SCHEDULER_TASK: Wait for scheduler "twa1" with entities [Zasshal (ID: 16982309/0x01032125), Zasshal (ID: 16982309/0x01032125)]
 70: 0x01FA [0x52] END_LOAD_SCHEDULER: End scheduler "sl04" with entities [LocalPlayer, LocalPlayer], work=215*
 71: 0x0209 [0x45] LOAD_SCHEDULED_TASK: Load scheduler "sl05" with entities [LocalPlayer, LocalPlayer], work=[215*, 0*]
 72: 0x021A [0x6E] Zasshal (ID: 16982309/0x01032125) uses emote 36*
 73: 0x0221 [0x99] Wait for Zasshal (ID: 16982309/0x01032125) animation to complete
 74: 0x0226 [0x99] Wait for Zasshal (ID: 16982309/0x01032125) animation to complete
 75: 0x022B [0x29] REQ_SET_WAIT(priority=0x10, entity_id=LocalPlayer, tag_num=0x1D)
 76: 0x0232 [0x2B] Zasshal (ID: 16982309/0x01032125) [10988*]:
    → "Listen, [luv/mate], that particular part of the ruins ain't the 'ole kit and kaboodle, if you know wot I mean."
 77: 0x0239 [0x23] WAIT_FOR_DIALOG_INTERACTION
 78: 0x023A [0x2B] Zasshal (ID: 16982309/0x01032125) [10989*]:
    → "That's jus' the front door."
 79: 0x0241 [0x23] WAIT_FOR_DIALOG_INTERACTION
 80: 0x0242 [0x2B] Zasshal (ID: 16982309/0x01032125) [10990*]:
    → "The towers stickin' out o' the ocean round abouts are remnants o' the original Alzadaal complex."
 81: 0x0249 [0x23] WAIT_FOR_DIALOG_INTERACTION
 82: 0x024A [0x52] END_LOAD_SCHEDULER: End scheduler "sl05" with entities [LocalPlayer, LocalPlayer], work=215*
 83: 0x0259 [0x45] LOAD_SCHEDULED_TASK: Load scheduler "sl06" with entities [LocalPlayer, LocalPlayer], work=[215*, 0*]
 84: 0x026A [0x66] LOAD_EXT_SCHEDULER_MAIN: Load scheduler "thk1" with entities [Zasshal (ID: 16982309/0x01032125), Zasshal (ID: 16982309/0x01032125)], work=9*
 85: 0x0279 [0x1C] WAIT(30* ticks)
 86: 0x027C [0x2B] Zasshal (ID: 16982309/0x01032125) [10991*]:
    → "You've seen 'em on the Silver Sea ferry route, 'aven't you?"
 87: 0x0283 [0x23] WAIT_FOR_DIALOG_INTERACTION
 88: 0x0284 [0x2B] Zasshal (ID: 16982309/0x01032125) [10992*]:
    → "Now, there are four o' these towers that 'ave been identified by the Empire: the Arrapago Remnants, the Silver Sea Remnants, the Zhayolm Remnants, and the Bhaflau Remnants."
 89: 0x028B [0x23] WAIT_FOR_DIALOG_INTERACTION
 90: 0x028C [0x52] END_LOAD_SCHEDULER: End scheduler "sl06" with entities [LocalPlayer, LocalPlayer], work=215*
 91: 0x029B [0x45] LOAD_SCHEDULED_TASK: Load scheduler "sl07" with entities [LocalPlayer, LocalPlayer], work=[215*, 0*]
 92: 0x02AC [0x66] LOAD_EXT_SCHEDULER_MAIN: Load scheduler "thk2" with entities [Zasshal (ID: 16982309/0x01032125), Zasshal (ID: 16982309/0x01032125)], work=9*
 93: 0x02BB [0x2B] Zasshal (ID: 16982309/0x01032125) [10993*]:
    → "Accordin' to my sources, those remnants are fit to burstin' with tasty treasure."
 94: 0x02C2 [0x23] WAIT_FOR_DIALOG_INTERACTION
 95: 0x02C3 [0x52] END_LOAD_SCHEDULER: End scheduler "sl07" with entities [LocalPlayer, LocalPlayer], work=215*
 96: 0x02D2 [0x45] LOAD_SCHEDULED_TASK: Load scheduler "sl08" with entities [LocalPlayer, LocalPlayer], work=[215*, 0*]
 97: 0x02E3 [0x6E] LocalPlayer uses emote 7*
 98: 0x02EA [0x99] Wait for LocalPlayer animation to complete
 99: 0x02EF [0x99] Wait for LocalPlayer animation to complete
100: 0x02F4 [0x1C] WAIT(45* ticks)
101: 0x02F7 [0x2B] Zasshal (ID: 16982309/0x01032125) [10994*]:
    → "Don't you worry 'bout 'ow I get me information--that's me little secret."
102: 0x02FE [0x23] WAIT_FOR_DIALOG_INTERACTION
103: 0x02FF [0x6E] Zasshal (ID: 16982309/0x01032125) uses emote 11*
104: 0x0306 [0x99] Wait for Zasshal (ID: 16982309/0x01032125) animation to complete
105: 0x030B [0x99] Wait for Zasshal (ID: 16982309/0x01032125) animation to complete
106: 0x0310 [0x29] REQ_SET_WAIT(priority=0x10, entity_id=LocalPlayer, tag_num=0x1D)
107: 0x0317 [0x2B] Zasshal (ID: 16982309/0x01032125) [10995*]:
    → "All you got to fink about is 'ow I can get you in there."
108: 0x031E [0x23] WAIT_FOR_DIALOG_INTERACTION
109: 0x031F [0x2B] Zasshal (ID: 16982309/0x01032125) [10996*]:
    → "And 'ow you're gonna carry out all that shiny loot!"
110: 0x0326 [0x23] WAIT_FOR_DIALOG_INTERACTION
111: 0x0327 [0x52] END_LOAD_SCHEDULER: End scheduler "sl08" with entities [LocalPlayer, LocalPlayer], work=215*
112: 0x0336 [0x45] LOAD_SCHEDULED_TASK: Load scheduler "sl09" with entities [LocalPlayer, LocalPlayer], work=[215*, 0*]
113: 0x0347 [0x66] LOAD_EXT_SCHEDULER_MAIN: Load scheduler "thk1" with entities [Zasshal (ID: 16982309/0x01032125), Zasshal (ID: 16982309/0x01032125)], work=9*
114: 0x0356 [0x1C] WAIT(30* ticks)
115: 0x0359 [0x2B] Zasshal (ID: 16982309/0x01032125) [10997*]:
    → "This is just between you an' me, right?"
116: 0x0360 [0x23] WAIT_FOR_DIALOG_INTERACTION
117: 0x0361 [0x52] END_LOAD_SCHEDULER: End scheduler "sl09" with entities [LocalPlayer, LocalPlayer], work=215*
118: 0x0370 [0x45] LOAD_SCHEDULED_TASK: Load scheduler "sl10" with entities [LocalPlayer, LocalPlayer], work=[215*, 0*]
119: 0x0381 [0x2B] Zasshal (ID: 16982309/0x01032125) [10998*]:
    → "You see, there's sumfin' I just gotta 'ave..."
120: 0x0388 [0x23] WAIT_FOR_DIALOG_INTERACTION
121: 0x0389 [0x66] LOAD_EXT_SCHEDULER_MAIN: Load scheduler "thk2" with entities [Zasshal (ID: 16982309/0x01032125), Zasshal (ID: 16982309/0x01032125)], work=9*
122: 0x0398 [0x53] WAIT_SCHEDULER_TASK: Wait for scheduler "thk2" with entities [Zasshal (ID: 16982309/0x01032125), Zasshal (ID: 16982309/0x01032125)]
123: 0x03A5 [0x52] END_LOAD_SCHEDULER: End scheduler "sl10" with entities [LocalPlayer, LocalPlayer], work=215*
124: 0x03B4 [0x45] LOAD_SCHEDULED_TASK: Load scheduler "sl11" with entities [LocalPlayer, LocalPlayer], work=[215*, 0*]
125: 0x03C5 [0x2B] Zasshal (ID: 16982309/0x01032125) [10999*]:
    → "Assault Points!"
126: 0x03CC [0x23] WAIT_FOR_DIALOG_INTERACTION
127: 0x03CD [0x52] END_LOAD_SCHEDULER: End scheduler "sl11" with entities [LocalPlayer, LocalPlayer], work=215*
128: 0x03DC [0x45] LOAD_SCHEDULED_TASK: Load scheduler "sl12" with entities [LocalPlayer, LocalPlayer], work=[215*, 0*]
129: 0x03ED [0x7C] Zasshal (ID: 16982309/0x01032125)->Render.Flags2 |= 0x00
130: 0x03F3 [0x2B] Zasshal (ID: 16982309/0x01032125) [11000*]:
    → "..."
131: 0x03FA [0x23] WAIT_FOR_DIALOG_INTERACTION
132: 0x03FB [0x7C] Zasshal (ID: 16982309/0x01032125)->Render.Flags2 |= 0x01
133: 0x0401 [0x6E] LocalPlayer uses emote 35*
134: 0x0408 [0x99] Wait for LocalPlayer animation to complete
135: 0x040D [0x99] Wait for LocalPlayer animation to complete
136: 0x0412 [0x52] END_LOAD_SCHEDULER: End scheduler "sl12" with entities [LocalPlayer, LocalPlayer], work=215*
137: 0x0421 [0x45] LOAD_SCHEDULED_TASK: Load scheduler "sl13" with entities [LocalPlayer, LocalPlayer], work=[215*, 0*]
138: 0x0432 [0x1C] WAIT(45* ticks)
139: 0x0435 [0x2B] Zasshal (ID: 16982309/0x01032125) [11001*]:
    → "Wot? You fink I could just earn them meself?"
140: 0x043C [0x23] WAIT_FOR_DIALOG_INTERACTION
141: 0x043D [0x66] LOAD_EXT_SCHEDULER_MAIN: Load scheduler "twa0" with entities [Zasshal (ID: 16982309/0x01032125), Zasshal (ID: 16982309/0x01032125)], work=9*
142: 0x044C [0x29] REQ_SET_WAIT(priority=0x10, entity_id=LocalPlayer, tag_num=0x1D)
143: 0x0453 [0x2B] Zasshal (ID: 16982309/0x01032125) [11002*]:
    → "Listen, [luv/mate]. Not every geezer is blessed wif your bleedin' talent, alright?"
144: 0x045A [0x23] WAIT_FOR_DIALOG_INTERACTION
145: 0x045B [0x52] END_LOAD_SCHEDULER: End scheduler "sl13" with entities [LocalPlayer, LocalPlayer], work=215*
146: 0x046A [0x45] LOAD_SCHEDULED_TASK: Load scheduler "sl14" with entities [LocalPlayer, LocalPlayer], work=[215*, 0*]
147: 0x047B [0x66] LOAD_EXT_SCHEDULER_MAIN: Load scheduler "twa1" with entities [Zasshal (ID: 16982309/0x01032125), Zasshal (ID: 16982309/0x01032125)], work=9*
148: 0x048A [0x2B] Zasshal (ID: 16982309/0x01032125) [11003*]:
    → "I need a cartload o' those points, and that's all you need to know."
149: 0x0491 [0x23] WAIT_FOR_DIALOG_INTERACTION
150: 0x0492 [0x53] WAIT_SCHEDULER_TASK: Wait for scheduler "twa1" with entities [Zasshal (ID: 16982309/0x01032125), Zasshal (ID: 16982309/0x01032125)]
151: 0x049F [0x6E] Zasshal (ID: 16982309/0x01032125) uses emote 0*
152: 0x04A6 [0x99] Wait for Zasshal (ID: 16982309/0x01032125) animation to complete
153: 0x04AB [0x99] Wait for Zasshal (ID: 16982309/0x01032125) animation to complete
154: 0x04B0 [0x2B] Zasshal (ID: 16982309/0x01032125) [11004*]:
    → "'ave a gander at this."
155: 0x04B7 [0x23] WAIT_FOR_DIALOG_INTERACTION
156: 0x04B8 [0x52] END_LOAD_SCHEDULER: End scheduler "sl14" with entities [LocalPlayer, LocalPlayer], work=215*
157: 0x04C7 [0x45] LOAD_SCHEDULED_TASK: Load scheduler "sl15" with entities [LocalPlayer, LocalPlayer], work=[215*, 0*]
158: 0x04D8 [0x03] Work_Zone[2] = 854*
159: 0x04DD [0x2B] Zasshal (ID: 16982309/0x01032125) [11005*]:
    → "It's a $3."
160: 0x04E4 [0x23] WAIT_FOR_DIALOG_INTERACTION
161: 0x04E5 [0x2B] Zasshal (ID: 16982309/0x01032125) [11006*]:
    → "Wif this little scrap o' paper, you can get into the ruins for free."
162: 0x04EC [0x23] WAIT_FOR_DIALOG_INTERACTION
163: 0x04ED [0x52] END_LOAD_SCHEDULER: End scheduler "sl15" with entities [LocalPlayer, LocalPlayer], work=215*
164: 0x04FC [0x45] LOAD_SCHEDULED_TASK: Load scheduler "sl16" with entities [LocalPlayer, LocalPlayer], work=[215*, 0*]
165: 0x050D [0x66] LOAD_EXT_SCHEDULER_MAIN: Load scheduler "twb0" with entities [Zasshal (ID: 16982309/0x01032125), Zasshal (ID: 16982309/0x01032125)], work=9*
166: 0x051C [0x2B] Zasshal (ID: 16982309/0x01032125) [11007*]:
    → "Not only that, but it can get you into those areas wot are blocked off by the Imperial Army."
167: 0x0523 [0x23] WAIT_FOR_DIALOG_INTERACTION
168: 0x0524 [0x03] Work_Zone[2] = 500*
169: 0x0529 [0x2B] Zasshal (ID: 16982309/0x01032125) [11008*]:
    → "This magic ticket can be yours for $0 [Assault Point/Assault Points]. I don't give a fig wot area the points are from."
170: 0x0530 [0x23] WAIT_FOR_DIALOG_INTERACTION
171: 0x0531 [0x6E] LocalPlayer uses emote 22*
172: 0x0538 [0x99] Wait for LocalPlayer animation to complete
173: 0x053D [0x99] Wait for LocalPlayer animation to complete
174: 0x0542 [0x1C] WAIT(30* ticks)
175: 0x0545 [0x52] END_LOAD_SCHEDULER: End scheduler "sl16" with entities [LocalPlayer, LocalPlayer], work=215*
176: 0x0554 [0x45] LOAD_SCHEDULED_TASK: Load scheduler "sl17" with entities [LocalPlayer, LocalPlayer], work=[215*, 0*]
177: 0x0565 [0x1C] WAIT(30* ticks)
178: 0x0568 [0x66] LOAD_EXT_SCHEDULER_MAIN: Load scheduler "twb1" with entities [Zasshal (ID: 16982309/0x01032125), Zasshal (ID: 16982309/0x01032125)], work=9*
179: 0x0577 [0x29] REQ_SET_WAIT(priority=0x10, entity_id=LocalPlayer, tag_num=0x1D)
180: 0x057E [0x2B] Zasshal (ID: 16982309/0x01032125) [11009*]:
    → "'ow do we exchange Assault Points? Well, that's for me to know, and for you to keep your bleedin' nose out of. Not to worry, [luv/mate], it's nuffin' that'll come back to bite you in the bum."
181: 0x0585 [0x23] WAIT_FOR_DIALOG_INTERACTION
182: 0x0586 [0x2B] Zasshal (ID: 16982309/0x01032125) [11010*]:
    → "So, wot's it gonna be? Are you in?"
183: 0x058D [0x23] WAIT_FOR_DIALOG_INTERACTION

SUBROUTINE_058E:
184: 0x058E [0x03] Work_Zone[2] = 854*
185: 0x0593 [0x03] Work_Zone[3] = 2489*
186: 0x0598 [0x24] CREATE_DIALOG(message_id=11011*, default_option=0*, option_flags=32*)
    → "Are you in? [I'm in./I'm out./3?/Exchanging Assault Points./Restrictions in the "Remnants."/Exchanging $1]"
187: 0x059F [0x25] WAIT_DIALOG_SELECT()
188: 0x05A0 [0x02] IF !(Work_Zone[0] == 0*) GOTO 0x05AE
189: 0x05A8 [0x01] GOTO 0x07E5

SUBROUTINE_07E2:
190: 0x07E2 [0x01] GOTO 0x058E

SUBROUTINE_07E5:
191: 0x07E5 [0x52] END_LOAD_SCHEDULER: End scheduler "sl17" with entities [LocalPlayer, LocalPlayer], work=215*
192: 0x07F4 [0x45] LOAD_SCHEDULED_TASK: Load scheduler "sl24" with entities [LocalPlayer, LocalPlayer], work=[215*, 0*]
193: 0x0805 [0x6E] Zasshal (ID: 16982309/0x01032125) uses emote 11*
194: 0x080C [0x99] Wait for Zasshal (ID: 16982309/0x01032125) animation to complete
195: 0x0811 [0x99] Wait for Zasshal (ID: 16982309/0x01032125) animation to complete
196: 0x0816 [0x2B] Zasshal (ID: 16982309/0x01032125) [11012*]:
    → "Fantastic! Wif enuff points, I can... Ah, but never you mind!"
197: 0x081D [0x23] WAIT_FOR_DIALOG_INTERACTION
198: 0x081E [0x52] END_LOAD_SCHEDULER: End scheduler "sl24" with entities [LocalPlayer, LocalPlayer], work=215*
199: 0x082D [0x45] LOAD_SCHEDULED_TASK: Load scheduler "sl25" with entities [LocalPlayer, LocalPlayer], work=[215*, 0*]
200: 0x083E [0x2B] Zasshal (ID: 16982309/0x01032125) [11013*]:
    → "Down to brass tacks. Which area are you willin' to exchange points from?"
201: 0x0845 [0x23] WAIT_FOR_DIALOG_INTERACTION

SUBROUTINE_0846:
202: 0x0846 [0x03] Work_Zone[1] = 0*
203: 0x084B [0x43] SEND_EVENT_UPDATE: Send pending tag to server (packet 0x005B)
204: 0x084D [0x43] SEND_EVENT_UPDATE: Check pending flag (skip if not pending)
205: 0x084F [0x24] CREATE_DIALOG(message_id=11014*, default_option=0*, option_flags=64*)
    → "From which area will you exchange points? [I've changed my mind./Leujaoam Sanctum. ($0 pt.)/Mamool Ja Training Grounds. ($1 pt.)/Lebros Cavern. ($2 pt.)/Periqia. ($3 pt.)/Ilrusi Atoll. ($4 pt.)/Nyzul Isle.]"
206: 0x0856 [0x25] WAIT_DIALOG_SELECT()
207: 0x0857 [0x02] IF !(Work_Zone[0] == 0*) GOTO 0x0883
208: 0x085F [0x6E] Zasshal (ID: 16982309/0x01032125) uses emote 35*
209: 0x0866 [0x99] Wait for Zasshal (ID: 16982309/0x01032125) animation to complete
210: 0x086B [0x99] Wait for Zasshal (ID: 16982309/0x01032125) animation to complete
211: 0x0870 [0x2B] Zasshal (ID: 16982309/0x01032125) [11021*]:
    → "No dice? Well, I'll be standin' 'ere anytime you decide to grow a backbone."
212: 0x0877 [0x23] WAIT_FOR_DIALOG_INTERACTION
213: 0x0878 [0x03] Work_Zone[1] = 99*
214: 0x087D [0x01] GOTO 0x0A50

SUBROUTINE_08FC:
215: 0x08FC [0x02] IF !(Work_Zone[2] < 500*) GOTO 0x090A
216: 0x0904 [0x05] ExtData[1]->WorkLocal[1] = 1
217: 0x0907 [0x01] GOTO 0x090D
218: 0x090A [0x06] ExtData[1]->WorkLocal[1] = 0

SUBROUTINE_090D:
219: 0x090D [0x03] Work_Zone[2] = 854*
220: 0x0912 [0x24] CREATE_DIALOG(message_id=11016*, default_option=1*, option_flags=0*)
    → "Exchange points for the permit? [Do it./Maybe not.]"
221: 0x0919 [0x25] WAIT_DIALOG_SELECT()
222: 0x091A [0x02] IF !(Work_Zone[0] == 0*) GOTO 0x094E
223: 0x0922 [0x02] IF !(ExtData[1]->WorkLocal[1] == 0*) GOTO 0x094B
224: 0x092A [0x6E] Zasshal (ID: 16982309/0x01032125) uses emote 26*
225: 0x0931 [0x99] Wait for Zasshal (ID: 16982309/0x01032125) animation to complete
226: 0x0936 [0x99] Wait for Zasshal (ID: 16982309/0x01032125) animation to complete
227: 0x093B [0x03] Work_Zone[2] = 500*
228: 0x0940 [0x2B] Zasshal (ID: 16982309/0x01032125) [11020*]:
    → "Wot's this? You tryin' to stiff me on points? You need $0 [Assault Point/Assault Points], or no deal."
229: 0x0947 [0x23] WAIT_FOR_DIALOG_INTERACTION
230: 0x0948 [0x01] GOTO 0x0846
231: 0x094B [0x01] GOTO 0x095C
232: 0x094E [0x02] IF !(Work_Zone[0] == 1*) GOTO 0x095C
233: 0x0956 [0x01] GOTO 0x0846

SUBROUTINE_095C:
234: 0x095C [0x02] IF !(ExtData[1]->WorkLocal[0] == 0*) GOTO 0x096C
235: 0x0964 [0x03] Work_Zone[1] = 10*
236: 0x0969 [0x01] GOTO 0x09BC
237: 0x096C [0x02] IF !(ExtData[1]->WorkLocal[0] == 1*) GOTO 0x097C
238: 0x0974 [0x03] Work_Zone[1] = 11*
239: 0x0979 [0x01] GOTO 0x09BC
240: 0x097C [0x02] IF !(ExtData[1]->WorkLocal[0] == 2*) GOTO 0x098C
241: 0x0984 [0x03] Work_Zone[1] = 12*
242: 0x0989 [0x01] GOTO 0x09BC
243: 0x098C [0x02] IF !(ExtData[1]->WorkLocal[0] == 3*) GOTO 0x099C
244: 0x0994 [0x03] Work_Zone[1] = 13*
245: 0x0999 [0x01] GOTO 0x09BC
246: 0x099C [0x02] IF !(ExtData[1]->WorkLocal[0] == 4*) GOTO 0x09AC
247: 0x09A4 [0x03] Work_Zone[1] = 14*
248: 0x09A9 [0x01] GOTO 0x09BC
249: 0x09AC [0x02] IF !(ExtData[1]->WorkLocal[0] == 5*) GOTO 0x09BC
250: 0x09B4 [0x03] Work_Zone[1] = 15*
251: 0x09B9 [0x01] GOTO 0x09BC

SUBROUTINE_09BC:
252: 0x09BC [0x43] SEND_EVENT_UPDATE: Send pending tag to server (packet 0x005B)
253: 0x09BE [0x43] SEND_EVENT_UPDATE: Check pending flag (skip if not pending)
254: 0x09C0 [0x52] END_LOAD_SCHEDULER: End scheduler "sl25" with entities [LocalPlayer, LocalPlayer], work=215*
255: 0x09CF [0x45] LOAD_SCHEDULED_TASK: Load scheduler "sl26" with entities [LocalPlayer, LocalPlayer], work=[215*, 0*]
256: 0x09E0 [0x29] REQ_SET_WAIT(priority=0x10, entity_id=LocalPlayer, tag_num=0x1D)
257: 0x09E7 [0x03] Work_Zone[4] = ExtData[1]->WorkLocal[0]
258: 0x09EC [0x6E] Zasshal (ID: 16982309/0x01032125) uses emote 36*
259: 0x09F3 [0x99] Wait for Zasshal (ID: 16982309/0x01032125) animation to complete
260: 0x09F8 [0x99] Wait for Zasshal (ID: 16982309/0x01032125) animation to complete
261: 0x09FD [0x2B] Zasshal (ID: 16982309/0x01032125) [11017*]:
    → "It's a done deal! The permit in exchange for your [Leujaoam Sanctum/Mamool Ja Training Grounds/Lebros Cavern/Periqia/Ilrusi Atoll/Nyzul Isle] Assault Points."
262: 0x0A04 [0x23] WAIT_FOR_DIALOG_INTERACTION
263: 0x0A05 [0x03] Work_Zone[2] = 854*
264: 0x0A0A [0x2B] Zasshal (ID: 16982309/0x01032125) [11018*]:
    → "Here's your $3. This'll let you enter the ruins for nuffin' more than a wink and a smile. It's a one-time ticket, though; once you enter, the tricky sod'll disappear on you."
265: 0x0A11 [0x23] WAIT_FOR_DIALOG_INTERACTION
266: 0x0A12 [0x52] END_LOAD_SCHEDULER: End scheduler "sl26" with entities [LocalPlayer, LocalPlayer], work=215*
267: 0x0A21 [0x45] LOAD_SCHEDULED_TASK: Load scheduler "sl27" with entities [LocalPlayer, LocalPlayer], work=[215*, 0*]
268: 0x0A32 [0x6E] Zasshal (ID: 16982309/0x01032125) uses emote 4*
269: 0x0A39 [0x99] Wait for Zasshal (ID: 16982309/0x01032125) animation to complete
270: 0x0A3E [0x99] Wait for Zasshal (ID: 16982309/0x01032125) animation to complete
271: 0x0A43 [0x2B] Zasshal (ID: 16982309/0x01032125) [11019*]:
    → "Lemme know if you want another permit--I always need the points!"
272: 0x0A4A [0x23] WAIT_FOR_DIALOG_INTERACTION
273: 0x0A4B [0x03] Work_Zone[1] = 100*

SUBROUTINE_0A50:
274: 0x0A50 [0x1A] CALL_SUBROUTINE(address=0x1C7C)
275: 0x0A53 [0x1C] WAIT(30* ticks)
276: 0x0A56 [0x52] END_LOAD_SCHEDULER: End scheduler "sl27" with entities [LocalPlayer, LocalPlayer], work=215*
277: 0x0A65 [0x46] CAMERA_CONTROL: Restore default settings
278: 0x0A67 [0x45] LOAD_SCHEDULED_TASK: Load scheduler "fdi2" with entities [LocalPlayer, LocalPlayer], work=[200*, 0*]

SUBROUTINE_0A78:
279: 0x0A78 [0x21] END_EVENT
280: 0x0A79 [0x00] END_REQSTACK()
```

#### Data or dead code:

```
# Dead code (unreachable instructions):
     0x0052 [0x01] GOTO 0x0055
# Dead code (unreachable instructions):
     0x05AB [0x01] GOTO 0x07E2
     0x05D7 [0x01] GOTO 0x07E2
# Dead code (unreachable instructions):
     0x0880 [0x01] GOTO 0x08FC
# Dead code (unreachable instructions):
     0x0959 [0x01] GOTO 0x095C
```

### Event 819

#### Metadata

| Field        | Value      |
|--------------|------------|
| Entrypoint   | 0x0A7A     |
| Data Size    | 1582 bytes |
| Instructions | 147        |

```
      00 01 02 03 04 05 06 07  08 09 0A 0B 0C 0D 0E 0F
      -- -- -- -- -- -- -- --  -- -- -- -- -- -- -- --
0A70:                                42 1A 7C 1C 46 01            B.|.F.
0A80: 38 07 80 79 00 F0 FF FF  7F F0 FF FF 7F 92 01 25  8..y...........%
0A90: 21 03 01 94 01 F0 FF FF  7F 94 01 25 21 03 01 29  !..........%!..)
0AA0: 10 F0 FF FF 7F 38 80 F0  FF FF 7F 80 25 21 03 01  .....8......%!..
0AB0: 4A F0 FF FF 7F 25 21 03  01 1E F0 FF FF 7F 6F 70  J....%!.......op
0AC0: 1C 08 80 45 09 80 F0 FF  FF 7F F0 FF FF 7F 73 6C  ...E..........sl
0AD0: 31 34 03 80 1A 5B 1C 6E  25 21 03 01 03 80 99 25  14...[.n%!.....%
0AE0: 21 03 01 99 25 21 03 01  2B 25 21 03 01 2C 80 23  !...%!..+%!..,.#
0AF0: 52 09 80 F0 FF FF 7F F0  FF FF 7F 73 6C 31 34 45  R..........sl14E
0B00: 09 80 F0 FF FF 7F F0 FF  FF 7F 73 6C 31 35 03 80  ..........sl15..
0B10: 03 02 10 2D 80 2B 25 21  03 01 2E 80 23 2B 25 21  ...-.+%!....#+%!
0B20: 03 01 2F 80 23 52 09 80  F0 FF FF 7F F0 FF FF 7F  ../.#R..........
0B30: 73 6C 31 35 45 09 80 F0  FF FF 7F F0 FF FF 7F 73  sl15E..........s
0B40: 6C 31 36 03 80 66 0E 80  25 21 03 01 25 21 03 01  l16..f..%!..%!..
0B50: 74 77 62 30 2B 25 21 03  01 30 80 23 03 02 10 31  twb0+%!..0.#...1
0B60: 80 2B 25 21 03 01 32 80  23 6E F0 FF FF 7F 14 80  .+%!..2.#n......
0B70: 99 F0 FF FF 7F 99 F0 FF  FF 7F 1C 15 80 52 09 80  .............R..
0B80: F0 FF FF 7F F0 FF FF 7F  73 6C 31 36 45 09 80 F0  ........sl16E...
0B90: FF FF 7F F0 FF FF 7F 73  6C 31 37 03 80 1C 15 80  .......sl17.....
0BA0: 66 0E 80 25 21 03 01 25  21 03 01 74 77 62 31 29  f..%!..%!..twb1)
0BB0: 10 F0 FF FF 7F 1D 2B 25  21 03 01 33 80 23 2B 25  ......+%!..3.#+%
0BC0: 21 03 01 34 80 23 03 02  10 2D 80 03 03 10 35 80  !..4.#...-....5.
0BD0: 24 36 80 03 80 37 80 25  02 00 10 03 80 00 E6 0B  $6...7.%........
0BE0: 01 18 0E 01 15 0E 02 00  10 06 80 00 0D 0C 6E 25  ..............n%
0BF0: 21 03 01 28 80 99 25 21  03 01 99 25 21 03 01 2B  !..(..%!...%!..+
0C00: 25 21 03 01 38 80 23 01  7E 10 01 15 0E 02 00 10  %!..8.#.~.......
0C10: 3A 80 00 42 0D 52 09 80  F0 FF FF 7F F0 FF FF 7F  :..B.R..........
0C20: 73 6C 31 37 45 09 80 F0  FF FF 7F F0 FF FF 7F 73  sl17E..........s
0C30: 6C 31 38 03 80 66 0E 80  25 21 03 01 25 21 03 01  l18..f..%!..%!..
0C40: 74 77 61 30 03 02 10 2D  80 2B 25 21 03 01 3B 80  twa0...-.+%!..;.
0C50: 23 2B 25 21 03 01 3C 80  23 52 09 80 F0 FF FF 7F  #+%!..<.#R......
0C60: F0 FF FF 7F 73 6C 31 38  45 09 80 F0 FF FF 7F F0  ....sl18E.......
0C70: FF FF 7F 73 6C 31 39 03  80 66 0E 80 25 21 03 01  ...sl19..f..%!..
0C80: 25 21 03 01 74 77 61 31  03 02 10 31 80 2B 25 21  %!..twa1...1.+%!
0C90: 03 01 32 80 23 2B 25 21  03 01 3D 80 23 52 09 80  ..2.#+%!..=.#R..
0CA0: F0 FF FF 7F F0 FF FF 7F  73 6C 31 39 45 09 80 F0  ........sl19E...
0CB0: FF FF 7F F0 FF FF 7F 73  6C 32 30 03 80 2B 25 21  .......sl20..+%!
0CC0: 03 01 3E 80 23 6E 25 21  03 01 14 80 99 25 21 03  ..>.#n%!.....%!.
0CD0: 01 99 25 21 03 01 2B 25  21 03 01 3F 80 23 52 09  ..%!..+%!..?.#R.
0CE0: 80 F0 FF FF 7F F0 FF FF  7F 73 6C 32 30 45 09 80  .........sl20E..
0CF0: F0 FF FF 7F F0 FF FF 7F  73 6C 32 31 03 80 2B 25  ........sl21..+%
0D00: 21 03 01 40 80 23 6E 25  21 03 01 41 80 99 25 21  !..@.#n%!..A..%!
0D10: 03 01 99 25 21 03 01 2B  25 21 03 01 42 80 23 52  ...%!..+%!..B.#R
0D20: 09 80 F0 FF FF 7F F0 FF  FF 7F 73 6C 32 31 45 09  ..........sl21E.
0D30: 80 F0 FF FF 7F F0 FF FF  7F 73 6C 31 37 03 80 01  .........sl17...
0D40: 15 0E 02 00 10 43 80 00  F4 0D 52 09 80 F0 FF FF  .....C....R.....
0D50: 7F F0 FF FF 7F 73 6C 31  37 45 09 80 F0 FF FF 7F  .....sl17E......
0D60: F0 FF FF 7F 73 6C 32 32  03 80 66 0E 80 25 21 03  ....sl22..f..%!.
0D70: 01 25 21 03 01 74 77 62  30 29 10 F0 FF FF 7F 1D  .%!..twb0)......
0D80: 2B 25 21 03 01 44 80 23  03 02 10 2D 80 03 03 10  +%!..D.#...-....
0D90: 31 80 2B 25 21 03 01 45  80 23 52 09 80 F0 FF FF  1.+%!..E.#R.....
0DA0: 7F F0 FF FF 7F 73 6C 32  32 45 09 80 F0 FF FF 7F  .....sl22E......
0DB0: F0 FF FF 7F 73 6C 32 33  03 80 66 0E 80 25 21 03  ....sl23..f..%!.
0DC0: 01 25 21 03 01 74 77 62  31 2B 25 21 03 01 46 80  .%!..twb1+%!..F.
0DD0: 23 52 09 80 F0 FF FF 7F  F0 FF FF 7F 73 6C 32 33  #R..........sl23
0DE0: 45 09 80 F0 FF FF 7F F0  FF FF 7F 73 6C 31 37 03  E..........sl17.
0DF0: 80 01 15 0E 02 00 10 41  80 00 15 0E 48 47 80 23  .......A....HG.#
0E00: 03 02 10 2D 80 48 48 80  23 03 02 10 2D 80 48 49  ...-.HH.#...-.HI
0E10: 80 23 01 15 0E 01 C6 0B  52 09 80 F0 FF FF 7F F0  .#......R.......
0E20: FF FF 7F 73 6C 31 37 45  09 80 F0 FF FF 7F F0 FF  ...sl17E........
0E30: FF 7F 73 6C 32 34 03 80  6E 25 21 03 01 21 80 99  ..sl24..n%!..!..
0E40: 25 21 03 01 99 25 21 03  01 2B 25 21 03 01 4A 80  %!...%!..+%!..J.
0E50: 23 52 09 80 F0 FF FF 7F  F0 FF FF 7F 73 6C 32 34  #R..........sl24
0E60: 45 09 80 F0 FF FF 7F F0  FF FF 7F 73 6C 32 35 03  E..........sl25.
0E70: 80 2B 25 21 03 01 4B 80  23 03 01 10 03 80 43 00  .+%!..K.#.....C.
0E80: 43 01 24 4C 80 03 80 4D  80 25 02 00 10 03 80 00  C.$L...M.%......
0E90: B1 0E 6E 25 21 03 01 28  80 99 25 21 03 01 99 25  ..n%!..(..%!...%
0EA0: 21 03 01 2B 25 21 03 01  38 80 23 01 7E 10 01 2A  !..+%!..8.#.~..*
0EB0: 0F 02 00 10 06 80 00 C6  0E 03 00 00 03 80 03 02  ................
0EC0: 10 02 10 01 2A 0F 02 00  10 3A 80 00 DB 0E 03 00  ....*....:......
0ED0: 00 06 80 03 02 10 03 10  01 2A 0F 02 00 10 43 80  .........*....C.
0EE0: 00 F0 0E 03 00 00 3A 80  03 02 10 04 10 01 2A 0F  ......:.......*.
0EF0: 02 00 10 41 80 00 05 0F  03 00 00 43 80 03 02 10  ...A.......C....
0F00: 05 10 01 2A 0F 02 00 10  4E 80 00 1A 0F 03 00 00  ...*....N.......
0F10: 41 80 03 02 10 06 10 01  2A 0F 02 00 10 4F 80 00  A.......*....O..
0F20: 2A 0F 03 00 00 4E 80 01  2A 0F 02 02 10 31 80 04  *....N..*....1..
0F30: 38 0F 05 01 00 01 3B 0F  06 01 00 03 02 10 2D 80  8.....;.......-.
0F40: 24 50 80 06 80 03 80 25  02 00 10 03 80 00 7C 0F  $P.....%......|.
0F50: 02 01 00 03 80 00 79 0F  6E 25 21 03 01 51 80 99  ......y.n%!..Q..
0F60: 25 21 03 01 99 25 21 03  01 03 02 10 31 80 2B 25  %!...%!.....1.+%
0F70: 21 03 01 52 80 23 01 79  0E 01 8A 0F 02 00 10 06  !..R.#.y........
0F80: 80 00 8A 0F 01 79 0E 01  8A 0F 02 00 00 03 80 80  .....y..........
0F90: 9A 0F 03 01 10 53 80 01  EA 0F 02 00 00 06 80 80  .....S..........
0FA0: AA 0F 03 01 10 21 80 01  EA 0F 02 00 00 3A 80 80  .....!.......:..
0FB0: BA 0F 03 01 10 54 80 01  EA 0F 02 00 00 43 80 80  .....T.......C..
0FC0: CA 0F 03 01 10 55 80 01  EA 0F 02 00 00 41 80 80  .....U.......A..
0FD0: DA 0F 03 01 10 56 80 01  EA 0F 02 00 00 4E 80 80  .....V.......N..
0FE0: EA 0F 03 01 10 08 80 01  EA 0F 43 00 43 01 52 09  ..........C.C.R.
0FF0: 80 F0 FF FF 7F F0 FF FF  7F 73 6C 32 35 45 09 80  .........sl25E..
1000: F0 FF FF 7F F0 FF FF 7F  73 6C 32 36 03 80 29 10  ........sl26..).
1010: F0 FF FF 7F 1D 03 04 10  00 00 6E 25 21 03 01 17  ..........n%!...
1020: 80 99 25 21 03 01 99 25  21 03 01 2B 25 21 03 01  ..%!...%!..+%!..
1030: 57 80 23 03 02 10 2D 80  2B 25 21 03 01 58 80 23  W.#...-.+%!..X.#
1040: 52 09 80 F0 FF FF 7F F0  FF FF 7F 73 6C 32 36 45  R..........sl26E
1050: 09 80 F0 FF FF 7F F0 FF  FF 7F 73 6C 32 37 03 80  ..........sl27..
1060: 6E 25 21 03 01 41 80 99  25 21 03 01 99 25 21 03  n%!..A..%!...%!.
1070: 01 2B 25 21 03 01 59 80  23 03 01 10 5A 80 1A 7C  .+%!..Y.#...Z..|
1080: 1C 1C 15 80 52 09 80 F0  FF FF 7F F0 FF FF 7F 73  ....R..........s
1090: 6C 32 37 46 00 45 5B 80  F0 FF FF 7F F0 FF FF 7F  l27F.E[.........
10A0: 66 64 69 32 03 80 21 00                           fdi2..!.        
```

#### Opcodes

```
  0: 0x0A7A [0x42] SET_CLI_EVENT_CANCEL_DATA()
  1: 0x0A7B [0x1A] CALL_SUBROUTINE(address=0x1C7C)
  2: 0x0A7E [0x46] CAMERA_CONTROL: Disable user control
  3: 0x0A80 [0x38] SET_CLIENT_EVENT_MODE(mode=19*)
  4: 0x0A83 [0x79] LocalPlayer looks at LocalPlayer (Basic look)
  5: 0x0A8D [0x92] Zasshal (ID: 16982309/0x01032125)->Render.Flags3 ^= 0x01
  6: 0x0A93 [0x94] LocalPlayer->Render.Flags3 ^= 0x01
  7: 0x0A99 [0x94] Zasshal (ID: 16982309/0x01032125)->Render.Flags3 ^= 0x01
  8: 0x0A9F [0x29] REQ_SET_WAIT(priority=0x10, entity_id=LocalPlayer, tag_num=0x38)
  9: 0x0AA6 [0x80] LOAD_WAIT(entity=LocalPlayer)
 10: 0x0AAB [0x80] LOAD_WAIT(entity=Zasshal (ID: 16982309/0x01032125))
 11: 0x0AB0 [0x4A] LocalPlayer looks at Zasshal (ID: 16982309/0x01032125)
 12: 0x0AB9 [0x1E] EventEntity looks at LocalPlayer and starts talking
 13: 0x0ABE [0x6F] WAIT_FRAME_DELAY: Yield until WaitTime reaches zero
 14: 0x0ABF [0x70] WAIT_ENTITY_RENDER_FLAG: Wait while EventEntity->Render.Flags3 bit 2 is set (cancel turn if not)
 15: 0x0AC0 [0x1C] WAIT(15* ticks)
 16: 0x0AC3 [0x45] LOAD_SCHEDULED_TASK: Load scheduler "sl14" with entities [LocalPlayer, LocalPlayer], work=[215*, 0*]
 17: 0x0AD4 [0x1A] CALL_SUBROUTINE(address=0x1C5B)
 18: 0x0AD7 [0x6E] Zasshal (ID: 16982309/0x01032125) uses emote 0*
 19: 0x0ADE [0x99] Wait for Zasshal (ID: 16982309/0x01032125) animation to complete
 20: 0x0AE3 [0x99] Wait for Zasshal (ID: 16982309/0x01032125) animation to complete
 21: 0x0AE8 [0x2B] Zasshal (ID: 16982309/0x01032125) [11004*]:
    → "'ave a gander at this."
 22: 0x0AEF [0x23] WAIT_FOR_DIALOG_INTERACTION
 23: 0x0AF0 [0x52] END_LOAD_SCHEDULER: End scheduler "sl14" with entities [LocalPlayer, LocalPlayer], work=215*
 24: 0x0AFF [0x45] LOAD_SCHEDULED_TASK: Load scheduler "sl15" with entities [LocalPlayer, LocalPlayer], work=[215*, 0*]
 25: 0x0B10 [0x03] Work_Zone[2] = 854*
 26: 0x0B15 [0x2B] Zasshal (ID: 16982309/0x01032125) [11005*]:
    → "It's a $3."
 27: 0x0B1C [0x23] WAIT_FOR_DIALOG_INTERACTION
 28: 0x0B1D [0x2B] Zasshal (ID: 16982309/0x01032125) [11006*]:
    → "Wif this little scrap o' paper, you can get into the ruins for free."
 29: 0x0B24 [0x23] WAIT_FOR_DIALOG_INTERACTION
 30: 0x0B25 [0x52] END_LOAD_SCHEDULER: End scheduler "sl15" with entities [LocalPlayer, LocalPlayer], work=215*
 31: 0x0B34 [0x45] LOAD_SCHEDULED_TASK: Load scheduler "sl16" with entities [LocalPlayer, LocalPlayer], work=[215*, 0*]
 32: 0x0B45 [0x66] LOAD_EXT_SCHEDULER_MAIN: Load scheduler "twb0" with entities [Zasshal (ID: 16982309/0x01032125), Zasshal (ID: 16982309/0x01032125)], work=9*
 33: 0x0B54 [0x2B] Zasshal (ID: 16982309/0x01032125) [11007*]:
    → "Not only that, but it can get you into those areas wot are blocked off by the Imperial Army."
 34: 0x0B5B [0x23] WAIT_FOR_DIALOG_INTERACTION
 35: 0x0B5C [0x03] Work_Zone[2] = 500*
 36: 0x0B61 [0x2B] Zasshal (ID: 16982309/0x01032125) [11008*]:
    → "This magic ticket can be yours for $0 [Assault Point/Assault Points]. I don't give a fig wot area the points are from."
 37: 0x0B68 [0x23] WAIT_FOR_DIALOG_INTERACTION
 38: 0x0B69 [0x6E] LocalPlayer uses emote 22*
 39: 0x0B70 [0x99] Wait for LocalPlayer animation to complete
 40: 0x0B75 [0x99] Wait for LocalPlayer animation to complete
 41: 0x0B7A [0x1C] WAIT(30* ticks)
 42: 0x0B7D [0x52] END_LOAD_SCHEDULER: End scheduler "sl16" with entities [LocalPlayer, LocalPlayer], work=215*
 43: 0x0B8C [0x45] LOAD_SCHEDULED_TASK: Load scheduler "sl17" with entities [LocalPlayer, LocalPlayer], work=[215*, 0*]
 44: 0x0B9D [0x1C] WAIT(30* ticks)
 45: 0x0BA0 [0x66] LOAD_EXT_SCHEDULER_MAIN: Load scheduler "twb1" with entities [Zasshal (ID: 16982309/0x01032125), Zasshal (ID: 16982309/0x01032125)], work=9*
 46: 0x0BAF [0x29] REQ_SET_WAIT(priority=0x10, entity_id=LocalPlayer, tag_num=0x1D)
 47: 0x0BB6 [0x2B] Zasshal (ID: 16982309/0x01032125) [11009*]:
    → "'ow do we exchange Assault Points? Well, that's for me to know, and for you to keep your bleedin' nose out of. Not to worry, [luv/mate], it's nuffin' that'll come back to bite you in the bum."
 48: 0x0BBD [0x23] WAIT_FOR_DIALOG_INTERACTION
 49: 0x0BBE [0x2B] Zasshal (ID: 16982309/0x01032125) [11010*]:
    → "So, wot's it gonna be? Are you in?"
 50: 0x0BC5 [0x23] WAIT_FOR_DIALOG_INTERACTION
 51: 0x0BC6 [0x03] Work_Zone[2] = 854*
 52: 0x0BCB [0x03] Work_Zone[3] = 2489*
 53: 0x0BD0 [0x24] CREATE_DIALOG(message_id=11011*, default_option=0*, option_flags=32*)
    → "Are you in? [I'm in./I'm out./3?/Exchanging Assault Points./Restrictions in the "Remnants."/Exchanging $1]"
 54: 0x0BD7 [0x25] WAIT_DIALOG_SELECT()
 55: 0x0BD8 [0x02] IF !(Work_Zone[0] == 0*) GOTO 0x0BE6
 56: 0x0BE0 [0x01] GOTO 0x0E18

SUBROUTINE_0E15:
 57: 0x0E15 [0x01] GOTO 0x0BC6

SUBROUTINE_0E18:
 58: 0x0E18 [0x52] END_LOAD_SCHEDULER: End scheduler "sl17" with entities [LocalPlayer, LocalPlayer], work=215*
 59: 0x0E27 [0x45] LOAD_SCHEDULED_TASK: Load scheduler "sl24" with entities [LocalPlayer, LocalPlayer], work=[215*, 0*]
 60: 0x0E38 [0x6E] Zasshal (ID: 16982309/0x01032125) uses emote 11*
 61: 0x0E3F [0x99] Wait for Zasshal (ID: 16982309/0x01032125) animation to complete
 62: 0x0E44 [0x99] Wait for Zasshal (ID: 16982309/0x01032125) animation to complete
 63: 0x0E49 [0x2B] Zasshal (ID: 16982309/0x01032125) [11012*]:
    → "Fantastic! Wif enuff points, I can... Ah, but never you mind!"
 64: 0x0E50 [0x23] WAIT_FOR_DIALOG_INTERACTION
 65: 0x0E51 [0x52] END_LOAD_SCHEDULER: End scheduler "sl24" with entities [LocalPlayer, LocalPlayer], work=215*
 66: 0x0E60 [0x45] LOAD_SCHEDULED_TASK: Load scheduler "sl25" with entities [LocalPlayer, LocalPlayer], work=[215*, 0*]
 67: 0x0E71 [0x2B] Zasshal (ID: 16982309/0x01032125) [11013*]:
    → "Down to brass tacks. Which area are you willin' to exchange points from?"
 68: 0x0E78 [0x23] WAIT_FOR_DIALOG_INTERACTION

SUBROUTINE_0E79:
 69: 0x0E79 [0x03] Work_Zone[1] = 0*
 70: 0x0E7E [0x43] SEND_EVENT_UPDATE: Send pending tag to server (packet 0x005B)
 71: 0x0E80 [0x43] SEND_EVENT_UPDATE: Check pending flag (skip if not pending)
 72: 0x0E82 [0x24] CREATE_DIALOG(message_id=11014*, default_option=0*, option_flags=64*)
    → "From which area will you exchange points? [I've changed my mind./Leujaoam Sanctum. ($0 pt.)/Mamool Ja Training Grounds. ($1 pt.)/Lebros Cavern. ($2 pt.)/Periqia. ($3 pt.)/Ilrusi Atoll. ($4 pt.)/Nyzul Isle.]"
 73: 0x0E89 [0x25] WAIT_DIALOG_SELECT()
 74: 0x0E8A [0x02] IF !(Work_Zone[0] == 0*) GOTO 0x0EB1
 75: 0x0E92 [0x6E] Zasshal (ID: 16982309/0x01032125) uses emote 35*
 76: 0x0E99 [0x99] Wait for Zasshal (ID: 16982309/0x01032125) animation to complete
 77: 0x0E9E [0x99] Wait for Zasshal (ID: 16982309/0x01032125) animation to complete
 78: 0x0EA3 [0x2B] Zasshal (ID: 16982309/0x01032125) [11021*]:
    → "No dice? Well, I'll be standin' 'ere anytime you decide to grow a backbone."
 79: 0x0EAA [0x23] WAIT_FOR_DIALOG_INTERACTION
 80: 0x0EAB [0x01] GOTO 0x107E

SUBROUTINE_0F2A:
 81: 0x0F2A [0x02] IF !(Work_Zone[2] < 500*) GOTO 0x0F38
 82: 0x0F32 [0x05] ExtData[1]->WorkLocal[1] = 1
 83: 0x0F35 [0x01] GOTO 0x0F3B
 84: 0x0F38 [0x06] ExtData[1]->WorkLocal[1] = 0

SUBROUTINE_0F3B:
 85: 0x0F3B [0x03] Work_Zone[2] = 854*
 86: 0x0F40 [0x24] CREATE_DIALOG(message_id=11016*, default_option=1*, option_flags=0*)
    → "Exchange points for the permit? [Do it./Maybe not.]"
 87: 0x0F47 [0x25] WAIT_DIALOG_SELECT()
 88: 0x0F48 [0x02] IF !(Work_Zone[0] == 0*) GOTO 0x0F7C
 89: 0x0F50 [0x02] IF !(ExtData[1]->WorkLocal[1] == 0*) GOTO 0x0F79
 90: 0x0F58 [0x6E] Zasshal (ID: 16982309/0x01032125) uses emote 26*
 91: 0x0F5F [0x99] Wait for Zasshal (ID: 16982309/0x01032125) animation to complete
 92: 0x0F64 [0x99] Wait for Zasshal (ID: 16982309/0x01032125) animation to complete
 93: 0x0F69 [0x03] Work_Zone[2] = 500*
 94: 0x0F6E [0x2B] Zasshal (ID: 16982309/0x01032125) [11020*]:
    → "Wot's this? You tryin' to stiff me on points? You need $0 [Assault Point/Assault Points], or no deal."
 95: 0x0F75 [0x23] WAIT_FOR_DIALOG_INTERACTION
 96: 0x0F76 [0x01] GOTO 0x0E79
 97: 0x0F79 [0x01] GOTO 0x0F8A
 98: 0x0F7C [0x02] IF !(Work_Zone[0] == 1*) GOTO 0x0F8A
 99: 0x0F84 [0x01] GOTO 0x0E79

SUBROUTINE_0F8A:
100: 0x0F8A [0x02] IF !(ExtData[1]->WorkLocal[0] == 0*) GOTO 0x0F9A
101: 0x0F92 [0x03] Work_Zone[1] = 10*
102: 0x0F97 [0x01] GOTO 0x0FEA
103: 0x0F9A [0x02] IF !(ExtData[1]->WorkLocal[0] == 1*) GOTO 0x0FAA
104: 0x0FA2 [0x03] Work_Zone[1] = 11*
105: 0x0FA7 [0x01] GOTO 0x0FEA
106: 0x0FAA [0x02] IF !(ExtData[1]->WorkLocal[0] == 2*) GOTO 0x0FBA
107: 0x0FB2 [0x03] Work_Zone[1] = 12*
108: 0x0FB7 [0x01] GOTO 0x0FEA
109: 0x0FBA [0x02] IF !(ExtData[1]->WorkLocal[0] == 3*) GOTO 0x0FCA
110: 0x0FC2 [0x03] Work_Zone[1] = 13*
111: 0x0FC7 [0x01] GOTO 0x0FEA
112: 0x0FCA [0x02] IF !(ExtData[1]->WorkLocal[0] == 4*) GOTO 0x0FDA
113: 0x0FD2 [0x03] Work_Zone[1] = 14*
114: 0x0FD7 [0x01] GOTO 0x0FEA
115: 0x0FDA [0x02] IF !(ExtData[1]->WorkLocal[0] == 5*) GOTO 0x0FEA
116: 0x0FE2 [0x03] Work_Zone[1] = 15*
117: 0x0FE7 [0x01] GOTO 0x0FEA

SUBROUTINE_0FEA:
118: 0x0FEA [0x43] SEND_EVENT_UPDATE: Send pending tag to server (packet 0x005B)
119: 0x0FEC [0x43] SEND_EVENT_UPDATE: Check pending flag (skip if not pending)
120: 0x0FEE [0x52] END_LOAD_SCHEDULER: End scheduler "sl25" with entities [LocalPlayer, LocalPlayer], work=215*
121: 0x0FFD [0x45] LOAD_SCHEDULED_TASK: Load scheduler "sl26" with entities [LocalPlayer, LocalPlayer], work=[215*, 0*]
122: 0x100E [0x29] REQ_SET_WAIT(priority=0x10, entity_id=LocalPlayer, tag_num=0x1D)
123: 0x1015 [0x03] Work_Zone[4] = ExtData[1]->WorkLocal[0]
124: 0x101A [0x6E] Zasshal (ID: 16982309/0x01032125) uses emote 36*
125: 0x1021 [0x99] Wait for Zasshal (ID: 16982309/0x01032125) animation to complete
126: 0x1026 [0x99] Wait for Zasshal (ID: 16982309/0x01032125) animation to complete
127: 0x102B [0x2B] Zasshal (ID: 16982309/0x01032125) [11017*]:
    → "It's a done deal! The permit in exchange for your [Leujaoam Sanctum/Mamool Ja Training Grounds/Lebros Cavern/Periqia/Ilrusi Atoll/Nyzul Isle] Assault Points."
128: 0x1032 [0x23] WAIT_FOR_DIALOG_INTERACTION
129: 0x1033 [0x03] Work_Zone[2] = 854*
130: 0x1038 [0x2B] Zasshal (ID: 16982309/0x01032125) [11018*]:
    → "Here's your $3. This'll let you enter the ruins for nuffin' more than a wink and a smile. It's a one-time ticket, though; once you enter, the tricky sod'll disappear on you."
131: 0x103F [0x23] WAIT_FOR_DIALOG_INTERACTION
132: 0x1040 [0x52] END_LOAD_SCHEDULER: End scheduler "sl26" with entities [LocalPlayer, LocalPlayer], work=215*
133: 0x104F [0x45] LOAD_SCHEDULED_TASK: Load scheduler "sl27" with entities [LocalPlayer, LocalPlayer], work=[215*, 0*]
134: 0x1060 [0x6E] Zasshal (ID: 16982309/0x01032125) uses emote 4*
135: 0x1067 [0x99] Wait for Zasshal (ID: 16982309/0x01032125) animation to complete
136: 0x106C [0x99] Wait for Zasshal (ID: 16982309/0x01032125) animation to complete
137: 0x1071 [0x2B] Zasshal (ID: 16982309/0x01032125) [11019*]:
    → "Lemme know if you want another permit--I always need the points!"
138: 0x1078 [0x23] WAIT_FOR_DIALOG_INTERACTION
139: 0x1079 [0x03] Work_Zone[1] = 100*

SUBROUTINE_107E:
140: 0x107E [0x1A] CALL_SUBROUTINE(address=0x1C7C)
141: 0x1081 [0x1C] WAIT(30* ticks)
142: 0x1084 [0x52] END_LOAD_SCHEDULER: End scheduler "sl27" with entities [LocalPlayer, LocalPlayer], work=215*
143: 0x1093 [0x46] CAMERA_CONTROL: Restore default settings
144: 0x1095 [0x45] LOAD_SCHEDULED_TASK: Load scheduler "fdi2" with entities [LocalPlayer, LocalPlayer], work=[200*, 0*]
145: 0x10A6 [0x21] END_EVENT
146: 0x10A7 [0x00] END_REQSTACK()
```

#### Data or dead code:

```
# Dead code (unreachable instructions):
     0x0BE3 [0x01] GOTO 0x0E15
     0x0C0A [0x01] GOTO 0x0E15
# Dead code (unreachable instructions):
     0x0EAE [0x01] GOTO 0x0F2A
# Dead code (unreachable instructions):
     0x0F87 [0x01] GOTO 0x0F8A
```

### Event 820

#### Metadata

| Field        | Value      |
|--------------|------------|
| Entrypoint   | 0x10A8     |
| Data Size    | 1360 bytes |
| Instructions | 144        |

```
      00 01 02 03 04 05 06 07  08 09 0A 0B 0C 0D 0E 0F
      -- -- -- -- -- -- -- --  -- -- -- -- -- -- -- --
10A0:                          42 03 02 00 08 10 1E F0          B.......
10B0: FF FF 7F 6F 70 29 10 F0  FF FF 7F 1D 66 0E 80 25  ...op)......f..%
10C0: 21 03 01 25 21 03 01 74  77 62 30 2B 25 21 03 01  !..%!..twb0+%!..
10D0: 5C 80 23 2B 25 21 03 01  5D 80 23 66 0E 80 25 21  \.#+%!..].#f..%!
10E0: 03 01 25 21 03 01 74 77  62 31 03 02 10 2D 80 03  ..%!..twb1...-..
10F0: 03 10 35 80 24 36 80 03  80 02 00 25 02 00 10 03  ..5.$6.....%....
1100: 80 00 45 11 02 09 10 06  80 00 3F 11 53 25 21 03  ..E.......?.S%!.
1110: 01 25 21 03 01 74 77 62  31 6E 25 21 03 01 51 80  .%!..twb1n%!..Q.
1120: 99 25 21 03 01 99 25 21  03 01 1C 1F 80 29 10 F0  .%!...%!.....)..
1130: FF FF 7F 1D 2B 25 21 03  01 5E 80 23 01 F6 15 01  ....+%!..^.#....
1140: 10 14 01 0D 14 02 00 10  06 80 00 6C 11 6E 25 21  ...........l.n%!
1150: 03 01 28 80 99 25 21 03  01 99 25 21 03 01 2B 25  ..(..%!...%!..+%
1160: 21 03 01 38 80 23 01 F6  15 01 0D 14 02 00 10 3A  !..8.#.........:
1170: 80 00 01 12 03 02 10 2D  80 66 0E 80 25 21 03 01  .......-.f..%!..
1180: 25 21 03 01 74 77 61 30  2B 25 21 03 01 3B 80 23  %!..twa0+%!..;.#
1190: 2B 25 21 03 01 3C 80 23  66 0E 80 25 21 03 01 25  +%!..<.#f..%!..%
11A0: 21 03 01 74 77 61 31 03  02 10 31 80 2B 25 21 03  !..twa1...1.+%!.
11B0: 01 32 80 23 2B 25 21 03  01 3D 80 23 2B 25 21 03  .2.#+%!..=.#+%!.
11C0: 01 3E 80 23 6E 25 21 03  01 14 80 99 25 21 03 01  .>.#n%!.....%!..
11D0: 99 25 21 03 01 2B 25 21  03 01 3F 80 23 2B 25 21  .%!..+%!..?.#+%!
11E0: 03 01 40 80 23 6E 25 21  03 01 41 80 99 25 21 03  ..@.#n%!..A..%!.
11F0: 01 99 25 21 03 01 2B 25  21 03 01 42 80 23 01 0D  ..%!..+%!..B.#..
1200: 14 02 00 10 43 80 00 53  12 66 0E 80 25 21 03 01  ....C..S.f..%!..
1210: 25 21 03 01 74 77 62 30  29 10 F0 FF FF 7F 1D 2B  %!..twb0)......+
1220: 25 21 03 01 44 80 23 03  02 10 2D 80 03 03 10 31  %!..D.#...-....1
1230: 80 2B 25 21 03 01 45 80  23 66 0E 80 25 21 03 01  .+%!..E.#f..%!..
1240: 25 21 03 01 74 77 62 31  2B 25 21 03 01 46 80 23  %!..twb1+%!..F.#
1250: 01 0D 14 02 00 10 41 80  00 74 12 48 47 80 23 03  ......A..t.HG.#.
1260: 02 10 2D 80 48 48 80 23  03 02 10 2D 80 48 49 80  ..-.HH.#...-.HI.
1270: 23 01 0D 14 02 00 10 4E  80 00 0D 14 66 0E 80 25  #......N....f..%
1280: 21 03 01 25 21 03 01 74  77 61 30 03 03 10 35 80  !..%!..twa0...5.
1290: 2B 25 21 03 01 5F 80 23  29 10 F0 FF FF 7F 1D 2B  +%!.._.#)......+
12A0: 25 21 03 01 60 80 23 66  0E 80 25 21 03 01 25 21  %!..`.#f..%!..%!
12B0: 03 01 74 77 61 31 03 01  10 4E 80 43 00 43 01 29  ..twa1...N.C.C.)
12C0: 10 F0 FF FF 7F 1D 03 03  10 35 80 93 35 80 2B 25  .........5..5.+%
12D0: 21 03 01 61 80 23 6E 25  21 03 01 51 80 99 25 21  !..a.#n%!..Q..%!
12E0: 03 01 2B 25 21 03 01 62  80 23 93 03 80 03 01 10  ..+%!..b.#......
12F0: 4E 80 43 00 43 01 02 04  10 63 80 04 04 13 05 03  N.C.C....c......
1300: 00 01 07 13 06 03 00 48  64 80 23 03 03 10 35 80  .......Hd.#...5.
1310: 24 65 80 06 80 03 80 25  02 00 10 06 80 00 4C 13  $e.....%......L.
1320: 66 0E 80 25 21 03 01 25  21 03 01 74 77 62 30 2B  f..%!..%!..twb0+
1330: 25 21 03 01 66 80 23 66  0E 80 25 21 03 01 25 21  %!..f.#f..%!..%!
1340: 03 01 74 77 62 31 01 EA  10 01 4C 13 24 67 80 06  ..twb1....L.$g..
1350: 80 03 80 25 02 00 10 03  80 00 D3 13 02 03 00 03  ...%............
1360: 80 00 80 13 6E 25 21 03  01 68 80 99 25 21 03 01  ....n%!..h..%!..
1370: 03 04 10 63 80 2B 25 21  03 01 69 80 23 01 EA 10  ...c.+%!..i.#...
1380: 03 01 10 08 80 43 00 43  01 02 02 10 39 80 00 A8  .....C.C....9...
1390: 13 6E 25 21 03 01 51 80  99 25 21 03 01 2B 25 21  .n%!..Q..%!..+%!
13A0: 03 01 6A 80 23 01 EA 10  29 10 F0 FF FF 7F 1D 03  ..j.#...).......
13B0: 03 10 35 80 6E 25 21 03  01 17 80 99 25 21 03 01  ..5.n%!.....%!..
13C0: 2B 25 21 03 01 6B 80 23  03 01 10 6C 80 01 F6 15  +%!..k.#...l....
13D0: 01 07 14 02 00 10 06 80  00 07 14 66 0E 80 25 21  ...........f..%!
13E0: 03 01 25 21 03 01 74 77  62 30 2B 25 21 03 01 66  ..%!..twb0+%!..f
13F0: 80 23 66 0E 80 25 21 03  01 25 21 03 01 74 77 62  .#f..%!..%!..twb
1400: 31 01 EA 10 01 07 14 01  F6 15 01 0D 14 01 EA 10  1...............
1410: 6E 25 21 03 01 21 80 99  25 21 03 01 99 25 21 03  n%!..!..%!...%!.
1420: 01 2B 25 21 03 01 4A 80  23 2B 25 21 03 01 4B 80  .+%!..J.#+%!..K.
1430: 23 03 01 10 03 80 43 00  43 01 24 4C 80 03 80 4D  #.....C.C.$L...M
1440: 80 25 02 00 10 03 80 00  69 14 6E 25 21 03 01 28  .%......i.n%!..(
1450: 80 99 25 21 03 01 99 25  21 03 01 2B 25 21 03 01  ..%!...%!..+%!..
1460: 38 80 23 01 F6 15 01 E2  14 02 00 10 06 80 00 7E  8.#............~
1470: 14 03 00 00 03 80 03 02  10 02 10 01 E2 14 02 00  ................
1480: 10 3A 80 00 93 14 03 00  00 06 80 03 02 10 03 10  .:..............
1490: 01 E2 14 02 00 10 43 80  00 A8 14 03 00 00 3A 80  ......C.......:.
14A0: 03 02 10 04 10 01 E2 14  02 00 10 41 80 00 BD 14  ...........A....
14B0: 03 00 00 43 80 03 02 10  05 10 01 E2 14 02 00 10  ...C............
14C0: 4E 80 00 D2 14 03 00 00  41 80 03 02 10 06 10 01  N.......A.......
14D0: E2 14 02 00 10 4F 80 00  E2 14 03 00 00 4E 80 01  .....O.......N..
14E0: E2 14 02 02 10 31 80 04  F0 14 05 01 00 01 F3 14  .....1..........
14F0: 06 01 00 03 02 10 2D 80  24 50 80 06 80 03 80 25  ......-.$P.....%
1500: 02 00 10 03 80 00 34 15  02 01 00 03 80 00 31 15  ......4.......1.
1510: 6E 25 21 03 01 51 80 99  25 21 03 01 99 25 21 03  n%!..Q..%!...%!.
1520: 01 03 02 10 31 80 2B 25  21 03 01 52 80 23 01 31  ....1.+%!..R.#.1
1530: 14 01 42 15 02 00 10 06  80 00 42 15 01 31 14 01  ..B.......B..1..
1540: 42 15 02 00 00 03 80 80  52 15 03 01 10 53 80 01  B.......R....S..
1550: A2 15 02 00 00 06 80 80  62 15 03 01 10 21 80 01  ........b....!..
1560: A2 15 02 00 00 3A 80 80  72 15 03 01 10 54 80 01  .....:..r....T..
1570: A2 15 02 00 00 43 80 80  82 15 03 01 10 55 80 01  .....C.......U..
1580: A2 15 02 00 00 41 80 80  92 15 03 01 10 56 80 01  .....A.......V..
1590: A2 15 02 00 00 4E 80 80  A2 15 03 01 10 08 80 01  .....N..........
15A0: A2 15 43 00 43 01 29 10  F0 FF FF 7F 1D 03 04 10  ..C.C.).........
15B0: 00 00 6E 25 21 03 01 17  80 99 25 21 03 01 99 25  ..n%!.....%!...%
15C0: 21 03 01 2B 25 21 03 01  57 80 23 03 02 10 2D 80  !..+%!..W.#...-.
15D0: 2B 25 21 03 01 58 80 23  6E 25 21 03 01 41 80 99  +%!..X.#n%!..A..
15E0: 25 21 03 01 99 25 21 03  01 2B 25 21 03 01 59 80  %!...%!..+%!..Y.
15F0: 23 03 01 10 5A 80 21 00                           #...Z.!.        
```

#### Opcodes

```
  0: 0x10A8 [0x42] SET_CLI_EVENT_CANCEL_DATA()
  1: 0x10A9 [0x03] ExtData[1]->WorkLocal[2] = Work_Zone[8]
  2: 0x10AE [0x1E] EventEntity looks at LocalPlayer and starts talking
  3: 0x10B3 [0x6F] WAIT_FRAME_DELAY: Yield until WaitTime reaches zero
  4: 0x10B4 [0x70] WAIT_ENTITY_RENDER_FLAG: Wait while EventEntity->Render.Flags3 bit 2 is set (cancel turn if not)
  5: 0x10B5 [0x29] REQ_SET_WAIT(priority=0x10, entity_id=LocalPlayer, tag_num=0x1D)
  6: 0x10BC [0x66] LOAD_EXT_SCHEDULER_MAIN: Load scheduler "twb0" with entities [Zasshal (ID: 16982309/0x01032125), Zasshal (ID: 16982309/0x01032125)], work=9*
  7: 0x10CB [0x2B] Zasshal (ID: 16982309/0x01032125) [11032*]:
    → "Hehe... Back for more, [luv/mate]? Those ruins 'ave got a 'old on you, don't they?"
  8: 0x10D2 [0x23] WAIT_FOR_DIALOG_INTERACTION
  9: 0x10D3 [0x2B] Zasshal (ID: 16982309/0x01032125) [11033*]:
    → "I'll cut out the chitchat and get straight down to brass tacks."
 10: 0x10DA [0x23] WAIT_FOR_DIALOG_INTERACTION
 11: 0x10DB [0x66] LOAD_EXT_SCHEDULER_MAIN: Load scheduler "twb1" with entities [Zasshal (ID: 16982309/0x01032125), Zasshal (ID: 16982309/0x01032125)], work=9*
 12: 0x10EA [0x03] Work_Zone[2] = 854*
 13: 0x10EF [0x03] Work_Zone[3] = 2489*
 14: 0x10F4 [0x24] CREATE_DIALOG(message_id=11011*, default_option=0*, option_flags=ExtData[1]->WorkLocal[2])
    → "Are you in? [I'm in./I'm out./3?/Exchanging Assault Points./Restrictions in the "Remnants."/Exchanging $1]"
 15: 0x10FB [0x25] WAIT_DIALOG_SELECT()
 16: 0x10FC [0x02] IF !(Work_Zone[0] == 0*) GOTO 0x1145
 17: 0x1104 [0x02] IF !(Work_Zone[9] == 1*) GOTO 0x113F
 18: 0x110C [0x53] WAIT_SCHEDULER_TASK: Wait for scheduler "twb1" with entities [Zasshal (ID: 16982309/0x01032125), Zasshal (ID: 16982309/0x01032125)]
 19: 0x1119 [0x6E] Zasshal (ID: 16982309/0x01032125) uses emote 26*
 20: 0x1120 [0x99] Wait for Zasshal (ID: 16982309/0x01032125) animation to complete
 21: 0x1125 [0x99] Wait for Zasshal (ID: 16982309/0x01032125) animation to complete
 22: 0x112A [0x1C] WAIT(45* ticks)
 23: 0x112D [0x29] REQ_SET_WAIT(priority=0x10, entity_id=LocalPlayer, tag_num=0x1D)
 24: 0x1134 [0x2B] Zasshal (ID: 16982309/0x01032125) [11038*]:
    → "'ang about. Looks like the permit you got was the last one I 'ad, so it might take me a bit o' time to scrounge up some more. 'ere, don't gimme that look. I'll be restocked before you know it."
 25: 0x113B [0x23] WAIT_FOR_DIALOG_INTERACTION
 26: 0x113C [0x01] GOTO 0x15F6
 27: 0x113F [0x01] GOTO 0x1410

SUBROUTINE_1307:
 28: 0x1307 [0x48] [System] [11068*]:
    → "Current number of tokens: $2."
 29: 0x130A [0x23] WAIT_FOR_DIALOG_INTERACTION
 30: 0x130B [0x03] Work_Zone[3] = 2489*
 31: 0x1310 [0x24] CREATE_DIALOG(message_id=11063*, default_option=1*, option_flags=0*)
    → "Trade for the $1? [Yes, please./No, thank you.]"
 32: 0x1317 [0x25] WAIT_DIALOG_SELECT()
 33: 0x1318 [0x02] IF !(Work_Zone[0] == 1*) GOTO 0x134C
 34: 0x1320 [0x66] LOAD_EXT_SCHEDULER_MAIN: Load scheduler "twb0" with entities [Zasshal (ID: 16982309/0x01032125), Zasshal (ID: 16982309/0x01032125)], work=9*
 35: 0x132F [0x2B] Zasshal (ID: 16982309/0x01032125) [11058*]:
    → "Well, if you really want one I reckon you'll be willin' to come up with 'em somehow. Stop on by anytime. I'll keep up my end."
 36: 0x1336 [0x23] WAIT_FOR_DIALOG_INTERACTION
 37: 0x1337 [0x66] LOAD_EXT_SCHEDULER_MAIN: Load scheduler "twb1" with entities [Zasshal (ID: 16982309/0x01032125), Zasshal (ID: 16982309/0x01032125)], work=9*
 38: 0x1346 [0x01] GOTO 0x10EA

SUBROUTINE_134C:
 39: 0x134C [0x24] CREATE_DIALOG(message_id=11064*, default_option=1*, option_flags=0*)
    → "You're absolutely sure about this? [Don't make me say it again./On second thought...]"
 40: 0x1353 [0x25] WAIT_DIALOG_SELECT()
 41: 0x1354 [0x02] IF !(Work_Zone[0] == 0*) GOTO 0x13D3
 42: 0x135C [0x02] IF !(ExtData[1]->WorkLocal[3] == 0*) GOTO 0x1380
 43: 0x1364 [0x6E] Zasshal (ID: 16982309/0x01032125) uses emote 16*
 44: 0x136B [0x99] Wait for Zasshal (ID: 16982309/0x01032125) animation to complete
 45: 0x1370 [0x03] Work_Zone[4] = 150000*
 46: 0x1375 [0x2B] Zasshal (ID: 16982309/0x01032125) [11066*]:
    → "Hey, what's the big idea here?!? You don't even 'ave the number o' tokens we agreed upon. I 'ope you aren't expecting me to front you. No layaway plans here, <Player>."
 47: 0x137C [0x23] WAIT_FOR_DIALOG_INTERACTION
 48: 0x137D [0x01] GOTO 0x10EA
 49: 0x1380 [0x03] Work_Zone[1] = 15*
 50: 0x1385 [0x43] SEND_EVENT_UPDATE: Send pending tag to server (packet 0x005B)
 51: 0x1387 [0x43] SEND_EVENT_UPDATE: Check pending flag (skip if not pending)
 52: 0x1389 [0x02] IF !(Work_Zone[2] == 99*) GOTO 0x13A8
 53: 0x1391 [0x6E] Zasshal (ID: 16982309/0x01032125) uses emote 26*
 54: 0x1398 [0x99] Wait for Zasshal (ID: 16982309/0x01032125) animation to complete
 55: 0x139D [0x2B] Zasshal (ID: 16982309/0x01032125) [11067*]:
    → "Oh, you gotta be kidding me. Look at 'em bags, for Altana's sake. You couldn't fit a 'unk o' rock salt in there, let alone 'is. Go get your act together and come back. Then maybe we can deal."
 56: 0x13A4 [0x23] WAIT_FOR_DIALOG_INTERACTION
 57: 0x13A5 [0x01] GOTO 0x10EA
 58: 0x13A8 [0x29] REQ_SET_WAIT(priority=0x10, entity_id=LocalPlayer, tag_num=0x1D)
 59: 0x13AF [0x03] Work_Zone[3] = 2489*
 60: 0x13B4 [0x6E] Zasshal (ID: 16982309/0x01032125) uses emote 36*
 61: 0x13BB [0x99] Wait for Zasshal (ID: 16982309/0x01032125) animation to complete
 62: 0x13C0 [0x2B] Zasshal (ID: 16982309/0x01032125) [11065*]:
    → "Deal! That settles it then. 'Em there tokens for this 'ere copy of $1. No turning back now!"
 63: 0x13C7 [0x23] WAIT_FOR_DIALOG_INTERACTION
 64: 0x13C8 [0x03] Work_Zone[1] = 101*
 65: 0x13CD [0x01] GOTO 0x15F6

SUBROUTINE_1407:
 66: 0x1407 [0x01] GOTO 0x15F6

SUBROUTINE_140D:
 67: 0x140D [0x01] GOTO 0x10EA

SUBROUTINE_1410:
 68: 0x1410 [0x6E] Zasshal (ID: 16982309/0x01032125) uses emote 11*
 69: 0x1417 [0x99] Wait for Zasshal (ID: 16982309/0x01032125) animation to complete
 70: 0x141C [0x99] Wait for Zasshal (ID: 16982309/0x01032125) animation to complete
 71: 0x1421 [0x2B] Zasshal (ID: 16982309/0x01032125) [11012*]:
    → "Fantastic! Wif enuff points, I can... Ah, but never you mind!"
 72: 0x1428 [0x23] WAIT_FOR_DIALOG_INTERACTION
 73: 0x1429 [0x2B] Zasshal (ID: 16982309/0x01032125) [11013*]:
    → "Down to brass tacks. Which area are you willin' to exchange points from?"
 74: 0x1430 [0x23] WAIT_FOR_DIALOG_INTERACTION

SUBROUTINE_1431:
 75: 0x1431 [0x03] Work_Zone[1] = 0*
 76: 0x1436 [0x43] SEND_EVENT_UPDATE: Send pending tag to server (packet 0x005B)
 77: 0x1438 [0x43] SEND_EVENT_UPDATE: Check pending flag (skip if not pending)
 78: 0x143A [0x24] CREATE_DIALOG(message_id=11014*, default_option=0*, option_flags=64*)
    → "From which area will you exchange points? [I've changed my mind./Leujaoam Sanctum. ($0 pt.)/Mamool Ja Training Grounds. ($1 pt.)/Lebros Cavern. ($2 pt.)/Periqia. ($3 pt.)/Ilrusi Atoll. ($4 pt.)/Nyzul Isle.]"
 79: 0x1441 [0x25] WAIT_DIALOG_SELECT()
 80: 0x1442 [0x02] IF !(Work_Zone[0] == 0*) GOTO 0x1469
 81: 0x144A [0x6E] Zasshal (ID: 16982309/0x01032125) uses emote 35*
 82: 0x1451 [0x99] Wait for Zasshal (ID: 16982309/0x01032125) animation to complete
 83: 0x1456 [0x99] Wait for Zasshal (ID: 16982309/0x01032125) animation to complete
 84: 0x145B [0x2B] Zasshal (ID: 16982309/0x01032125) [11021*]:
    → "No dice? Well, I'll be standin' 'ere anytime you decide to grow a backbone."
 85: 0x1462 [0x23] WAIT_FOR_DIALOG_INTERACTION
 86: 0x1463 [0x01] GOTO 0x15F6

SUBROUTINE_14E2:
 87: 0x14E2 [0x02] IF !(Work_Zone[2] < 500*) GOTO 0x14F0
 88: 0x14EA [0x05] ExtData[1]->WorkLocal[1] = 1
 89: 0x14ED [0x01] GOTO 0x14F3
 90: 0x14F0 [0x06] ExtData[1]->WorkLocal[1] = 0

SUBROUTINE_14F3:
 91: 0x14F3 [0x03] Work_Zone[2] = 854*
 92: 0x14F8 [0x24] CREATE_DIALOG(message_id=11016*, default_option=1*, option_flags=0*)
    → "Exchange points for the permit? [Do it./Maybe not.]"
 93: 0x14FF [0x25] WAIT_DIALOG_SELECT()
 94: 0x1500 [0x02] IF !(Work_Zone[0] == 0*) GOTO 0x1534
 95: 0x1508 [0x02] IF !(ExtData[1]->WorkLocal[1] == 0*) GOTO 0x1531
 96: 0x1510 [0x6E] Zasshal (ID: 16982309/0x01032125) uses emote 26*
 97: 0x1517 [0x99] Wait for Zasshal (ID: 16982309/0x01032125) animation to complete
 98: 0x151C [0x99] Wait for Zasshal (ID: 16982309/0x01032125) animation to complete
 99: 0x1521 [0x03] Work_Zone[2] = 500*
100: 0x1526 [0x2B] Zasshal (ID: 16982309/0x01032125) [11020*]:
    → "Wot's this? You tryin' to stiff me on points? You need $0 [Assault Point/Assault Points], or no deal."
101: 0x152D [0x23] WAIT_FOR_DIALOG_INTERACTION
102: 0x152E [0x01] GOTO 0x1431
103: 0x1531 [0x01] GOTO 0x1542
104: 0x1534 [0x02] IF !(Work_Zone[0] == 1*) GOTO 0x1542
105: 0x153C [0x01] GOTO 0x1431

SUBROUTINE_1542:
106: 0x1542 [0x02] IF !(ExtData[1]->WorkLocal[0] == 0*) GOTO 0x1552
107: 0x154A [0x03] Work_Zone[1] = 10*
108: 0x154F [0x01] GOTO 0x15A2
109: 0x1552 [0x02] IF !(ExtData[1]->WorkLocal[0] == 1*) GOTO 0x1562
110: 0x155A [0x03] Work_Zone[1] = 11*
111: 0x155F [0x01] GOTO 0x15A2
112: 0x1562 [0x02] IF !(ExtData[1]->WorkLocal[0] == 2*) GOTO 0x1572
113: 0x156A [0x03] Work_Zone[1] = 12*
114: 0x156F [0x01] GOTO 0x15A2
115: 0x1572 [0x02] IF !(ExtData[1]->WorkLocal[0] == 3*) GOTO 0x1582
116: 0x157A [0x03] Work_Zone[1] = 13*
117: 0x157F [0x01] GOTO 0x15A2
118: 0x1582 [0x02] IF !(ExtData[1]->WorkLocal[0] == 4*) GOTO 0x1592
119: 0x158A [0x03] Work_Zone[1] = 14*
120: 0x158F [0x01] GOTO 0x15A2
121: 0x1592 [0x02] IF !(ExtData[1]->WorkLocal[0] == 5*) GOTO 0x15A2
122: 0x159A [0x03] Work_Zone[1] = 15*
123: 0x159F [0x01] GOTO 0x15A2

SUBROUTINE_15A2:
124: 0x15A2 [0x43] SEND_EVENT_UPDATE: Send pending tag to server (packet 0x005B)
125: 0x15A4 [0x43] SEND_EVENT_UPDATE: Check pending flag (skip if not pending)
126: 0x15A6 [0x29] REQ_SET_WAIT(priority=0x10, entity_id=LocalPlayer, tag_num=0x1D)
127: 0x15AD [0x03] Work_Zone[4] = ExtData[1]->WorkLocal[0]
128: 0x15B2 [0x6E] Zasshal (ID: 16982309/0x01032125) uses emote 36*
129: 0x15B9 [0x99] Wait for Zasshal (ID: 16982309/0x01032125) animation to complete
130: 0x15BE [0x99] Wait for Zasshal (ID: 16982309/0x01032125) animation to complete
131: 0x15C3 [0x2B] Zasshal (ID: 16982309/0x01032125) [11017*]:
    → "It's a done deal! The permit in exchange for your [Leujaoam Sanctum/Mamool Ja Training Grounds/Lebros Cavern/Periqia/Ilrusi Atoll/Nyzul Isle] Assault Points."
132: 0x15CA [0x23] WAIT_FOR_DIALOG_INTERACTION
133: 0x15CB [0x03] Work_Zone[2] = 854*
134: 0x15D0 [0x2B] Zasshal (ID: 16982309/0x01032125) [11018*]:
    → "Here's your $3. This'll let you enter the ruins for nuffin' more than a wink and a smile. It's a one-time ticket, though; once you enter, the tricky sod'll disappear on you."
135: 0x15D7 [0x23] WAIT_FOR_DIALOG_INTERACTION
136: 0x15D8 [0x6E] Zasshal (ID: 16982309/0x01032125) uses emote 4*
137: 0x15DF [0x99] Wait for Zasshal (ID: 16982309/0x01032125) animation to complete
138: 0x15E4 [0x99] Wait for Zasshal (ID: 16982309/0x01032125) animation to complete
139: 0x15E9 [0x2B] Zasshal (ID: 16982309/0x01032125) [11019*]:
    → "Lemme know if you want another permit--I always need the points!"
140: 0x15F0 [0x23] WAIT_FOR_DIALOG_INTERACTION
141: 0x15F1 [0x03] Work_Zone[1] = 100*

SUBROUTINE_15F6:
142: 0x15F6 [0x21] END_EVENT
143: 0x15F7 [0x00] END_REQSTACK()
```

#### Data or dead code:

```
# Dead code (unreachable instructions):
     0x1142 [0x01] GOTO 0x140D
     0x1169 [0x01] GOTO 0x140D
# Dead code (unreachable instructions):
     0x1349 [0x01] GOTO 0x134C
# Dead code (unreachable instructions):
     0x13D0 [0x01] GOTO 0x1407
     0x1404 [0x01] GOTO 0x1407
# Dead code (unreachable instructions):
     0x140A [0x01] GOTO 0x140D
# Dead code (unreachable instructions):
     0x1466 [0x01] GOTO 0x14E2
# Dead code (unreachable instructions):
     0x153F [0x01] GOTO 0x1542
```

### Event 821

#### Metadata

| Field        | Value     |
|--------------|-----------|
| Entrypoint   | 0x15F8    |
| Data Size    | 548 bytes |
| Instructions | 103       |

```
      00 01 02 03 04 05 06 07  08 09 0A 0B 0C 0D 0E 0F
      -- -- -- -- -- -- -- --  -- -- -- -- -- -- -- --
15F0:                          03 04 00 09 10 1E F0 FF          ........
1600: FF 7F 6F 70 29 10 F0 FF  FF 7F 1D 2B 25 21 03 01  ..op)......+%!..
1610: 6D 80 23 66 0E 80 25 21  03 01 25 21 03 01 74 77  m.#f..%!..%!..tw
1620: 62 30 03 02 10 2D 80 2B  25 21 03 01 6E 80 23 66  b0...-.+%!..n.#f
1630: 0E 80 25 21 03 01 25 21  03 01 74 77 62 31 2B 25  ..%!..%!..twb1+%
1640: 21 03 01 6F 80 23 53 25  21 03 01 25 21 03 01 74  !..o.#S%!..%!..t
1650: 77 62 31 6E 25 21 03 01  41 80 99 25 21 03 01 99  wb1n%!..A..%!...
1660: 25 21 03 01 2B 25 21 03  01 70 80 23 02 04 00 06  %!..+%!..p.#....
1670: 80 00 1A 18 2B 25 21 03  01 71 80 23 03 03 10 35  ....+%!..q.#...5
1680: 80 24 72 80 03 80 03 80  25 02 00 10 06 80 00 1A  .$r.....%.......
1690: 18 42 66 0E 80 25 21 03  01 25 21 03 01 74 77 61  .Bf..%!..%!..twa
16A0: 30 03 03 10 35 80 2B 25  21 03 01 5F 80 23 29 10  0...5.+%!.._.#).
16B0: F0 FF FF 7F 1D 2B 25 21  03 01 60 80 23 66 0E 80  .....+%!..`.#f..
16C0: 25 21 03 01 25 21 03 01  74 77 61 31 03 01 10 4E  %!..%!..twa1...N
16D0: 80 43 00 43 01 29 10 F0  FF FF 7F 1D 03 03 10 35  .C.C.).........5
16E0: 80 93 35 80 2B 25 21 03  01 61 80 23 6E 25 21 03  ..5.+%!..a.#n%!.
16F0: 01 51 80 99 25 21 03 01  2B 25 21 03 01 62 80 23  .Q..%!..+%!..b.#
1700: 93 03 80 03 01 10 4E 80  43 00 43 01 02 04 10 63  ......N.C.C....c
1710: 80 04 1A 17 05 03 00 01  1D 17 06 03 00 48 64 80  .............Hd.
1720: 23 03 03 10 35 80 24 65  80 06 80 03 80 25 02 00  #...5.$e.....%..
1730: 10 06 80 00 62 17 66 0E  80 25 21 03 01 25 21 03  ....b.f..%!..%!.
1740: 01 74 77 62 30 2B 25 21  03 01 66 80 23 66 0E 80  .twb0+%!..f.#f..
1750: 25 21 03 01 25 21 03 01  74 77 62 31 01 1A 18 01  %!..%!..twb1....
1760: 62 17 24 67 80 06 80 03  80 25 02 00 10 03 80 00  b.$g.....%......
1770: E6 17 02 03 00 03 80 00  96 17 6E 25 21 03 01 68  ..........n%!..h
1780: 80 99 25 21 03 01 03 04  10 63 80 2B 25 21 03 01  ..%!.....c.+%!..
1790: 69 80 23 01 1A 18 03 01  10 08 80 43 00 43 01 02  i.#........C.C..
17A0: 02 10 39 80 00 BE 17 6E  25 21 03 01 51 80 99 25  ..9....n%!..Q..%
17B0: 21 03 01 2B 25 21 03 01  6A 80 23 01 1A 18 29 10  !..+%!..j.#...).
17C0: F0 FF FF 7F 1D 03 03 10  35 80 6E 25 21 03 01 17  ........5.n%!...
17D0: 80 99 25 21 03 01 2B 25  21 03 01 6B 80 23 03 01  ..%!..+%!..k.#..
17E0: 10 6C 80 01 17 18 02 00  10 06 80 00 17 18 66 0E  .l............f.
17F0: 80 25 21 03 01 25 21 03  01 74 77 62 30 2B 25 21  .%!..%!..twb0+%!
1800: 03 01 66 80 23 66 0E 80  25 21 03 01 25 21 03 01  ..f.#f..%!..%!..
1810: 74 77 62 31 01 17 18 01  1A 18 21 00              twb1......!.    
```

#### Opcodes

```
  0: 0x15F8 [0x03] ExtData[1]->WorkLocal[4] = Work_Zone[9]
  1: 0x15FD [0x1E] EventEntity looks at LocalPlayer and starts talking
  2: 0x1602 [0x6F] WAIT_FRAME_DELAY: Yield until WaitTime reaches zero
  3: 0x1603 [0x70] WAIT_ENTITY_RENDER_FLAG: Wait while EventEntity->Render.Flags3 bit 2 is set (cancel turn if not)
  4: 0x1604 [0x29] REQ_SET_WAIT(priority=0x10, entity_id=LocalPlayer, tag_num=0x1D)
  5: 0x160B [0x2B] Zasshal (ID: 16982309/0x01032125) [11034*]:
    → "Wot's this? You fink I 'ave time to explain stuff again...?"
  6: 0x1612 [0x23] WAIT_FOR_DIALOG_INTERACTION
  7: 0x1613 [0x66] LOAD_EXT_SCHEDULER_MAIN: Load scheduler "twb0" with entities [Zasshal (ID: 16982309/0x01032125), Zasshal (ID: 16982309/0x01032125)], work=9*
  8: 0x1622 [0x03] Work_Zone[2] = 854*
  9: 0x1627 [0x2B] Zasshal (ID: 16982309/0x01032125) [11035*]:
    → "Look, you've got a free ticket into the ruins as long as you 'ave the $3. It'll vanish once you're in, but at least that tells you it's for real, right?"
 10: 0x162E [0x23] WAIT_FOR_DIALOG_INTERACTION
 11: 0x162F [0x66] LOAD_EXT_SCHEDULER_MAIN: Load scheduler "twb1" with entities [Zasshal (ID: 16982309/0x01032125), Zasshal (ID: 16982309/0x01032125)], work=9*
 12: 0x163E [0x2B] Zasshal (ID: 16982309/0x01032125) [11036*]:
    → "I can't give you more than one at a time, or the boys in blue will get suspicious. So don't even ask."
 13: 0x1645 [0x23] WAIT_FOR_DIALOG_INTERACTION
 14: 0x1646 [0x53] WAIT_SCHEDULER_TASK: Wait for scheduler "twb1" with entities [Zasshal (ID: 16982309/0x01032125), Zasshal (ID: 16982309/0x01032125)]
 15: 0x1653 [0x6E] Zasshal (ID: 16982309/0x01032125) uses emote 4*
 16: 0x165A [0x99] Wait for Zasshal (ID: 16982309/0x01032125) animation to complete
 17: 0x165F [0x99] Wait for Zasshal (ID: 16982309/0x01032125) animation to complete
 18: 0x1664 [0x2B] Zasshal (ID: 16982309/0x01032125) [11037*]:
    → "I'll always be 'ere with more permits as long as you 'ave the points to spend. Now, you better go grab that treasure before some other lucky sod makes off wif it."
 19: 0x166B [0x23] WAIT_FOR_DIALOG_INTERACTION
 20: 0x166C [0x02] IF !(ExtData[1]->WorkLocal[4] == 1*) GOTO 0x181A
 21: 0x1674 [0x2B] Zasshal (ID: 16982309/0x01032125) [11069*]:
    → "Something else I can 'elp you wif?"
 22: 0x167B [0x23] WAIT_FOR_DIALOG_INTERACTION
 23: 0x167C [0x03] Work_Zone[3] = 2489*
 24: 0x1681 [0x24] CREATE_DIALOG(message_id=11070*, default_option=0*, option_flags=0*)
    → "Is there something else? [Not really./Trading for $1.]"
 25: 0x1688 [0x25] WAIT_DIALOG_SELECT()
 26: 0x1689 [0x02] IF !(Work_Zone[0] == 1*) GOTO 0x181A
 27: 0x1691 [0x42] SET_CLI_EVENT_CANCEL_DATA()
 28: 0x1692 [0x66] LOAD_EXT_SCHEDULER_MAIN: Load scheduler "twa0" with entities [Zasshal (ID: 16982309/0x01032125), Zasshal (ID: 16982309/0x01032125)], work=9*
 29: 0x16A1 [0x03] Work_Zone[3] = 2489*
 30: 0x16A6 [0x2B] Zasshal (ID: 16982309/0x01032125) [11059*]:
    → "There's my favorite remnants romper! After a copy of $1, are you? Truth be told, I already had me 'ands on one before I ever 'eard you were looking. Sometimes I swear I'm blessed with the gift of foresight."
 31: 0x16AD [0x23] WAIT_FOR_DIALOG_INTERACTION
 32: 0x16AE [0x29] REQ_SET_WAIT(priority=0x10, entity_id=LocalPlayer, tag_num=0x1D)
 33: 0x16B5 [0x2B] Zasshal (ID: 16982309/0x01032125) [11060*]:
    → "I would 'ave said something to you sooner, but it just seemed a bit uncouth of me to be rubbing your nose in it by pointing it out. Hehehe."
 34: 0x16BC [0x23] WAIT_FOR_DIALOG_INTERACTION
 35: 0x16BD [0x66] LOAD_EXT_SCHEDULER_MAIN: Load scheduler "twa1" with entities [Zasshal (ID: 16982309/0x01032125), Zasshal (ID: 16982309/0x01032125)], work=9*
 36: 0x16CC [0x03] Work_Zone[1] = 5*
 37: 0x16D1 [0x43] SEND_EVENT_UPDATE: Send pending tag to server (packet 0x005B)
 38: 0x16D3 [0x43] SEND_EVENT_UPDATE: Check pending flag (skip if not pending)
 39: 0x16D5 [0x29] REQ_SET_WAIT(priority=0x10, entity_id=LocalPlayer, tag_num=0x1D)
 40: 0x16DC [0x03] Work_Zone[3] = 2489*
 41: 0x16E1 [0x93] DISPLAY_ITEM_INFO(item_id=2489*)
 42: 0x16E4 [0x2B] Zasshal (ID: 16982309/0x01032125) [11061*]:
    → "So, let's get down to brass tacks. You looking to trade your tokens for this 'ere copy of $1?"
 43: 0x16EB [0x23] WAIT_FOR_DIALOG_INTERACTION
 44: 0x16EC [0x6E] Zasshal (ID: 16982309/0x01032125) uses emote 26*
 45: 0x16F3 [0x99] Wait for Zasshal (ID: 16982309/0x01032125) animation to complete
 46: 0x16F8 [0x2B] Zasshal (ID: 16982309/0x01032125) [11062*]:
    → "Make sure you know you're getting into 'ere, all right? No refunds from me, ya 'ear?"
 47: 0x16FF [0x23] WAIT_FOR_DIALOG_INTERACTION
 48: 0x1700 [0x93] DISPLAY_ITEM_INFO(item_id=0*)
 49: 0x1703 [0x03] Work_Zone[1] = 5*
 50: 0x1708 [0x43] SEND_EVENT_UPDATE: Send pending tag to server (packet 0x005B)
 51: 0x170A [0x43] SEND_EVENT_UPDATE: Check pending flag (skip if not pending)
 52: 0x170C [0x02] IF !(Work_Zone[4] < 150000*) GOTO 0x171A
 53: 0x1714 [0x05] ExtData[1]->WorkLocal[3] = 1
 54: 0x1717 [0x01] GOTO 0x171D
 55: 0x171A [0x06] ExtData[1]->WorkLocal[3] = 0

SUBROUTINE_171D:
 56: 0x171D [0x48] [System] [11068*]:
    → "Current number of tokens: $2."
 57: 0x1720 [0x23] WAIT_FOR_DIALOG_INTERACTION
 58: 0x1721 [0x03] Work_Zone[3] = 2489*
 59: 0x1726 [0x24] CREATE_DIALOG(message_id=11063*, default_option=1*, option_flags=0*)
    → "Trade for the $1? [Yes, please./No, thank you.]"
 60: 0x172D [0x25] WAIT_DIALOG_SELECT()
 61: 0x172E [0x02] IF !(Work_Zone[0] == 1*) GOTO 0x1762
 62: 0x1736 [0x66] LOAD_EXT_SCHEDULER_MAIN: Load scheduler "twb0" with entities [Zasshal (ID: 16982309/0x01032125), Zasshal (ID: 16982309/0x01032125)], work=9*
 63: 0x1745 [0x2B] Zasshal (ID: 16982309/0x01032125) [11058*]:
    → "Well, if you really want one I reckon you'll be willin' to come up with 'em somehow. Stop on by anytime. I'll keep up my end."
 64: 0x174C [0x23] WAIT_FOR_DIALOG_INTERACTION
 65: 0x174D [0x66] LOAD_EXT_SCHEDULER_MAIN: Load scheduler "twb1" with entities [Zasshal (ID: 16982309/0x01032125), Zasshal (ID: 16982309/0x01032125)], work=9*
 66: 0x175C [0x01] GOTO 0x181A

SUBROUTINE_1762:
 67: 0x1762 [0x24] CREATE_DIALOG(message_id=11064*, default_option=1*, option_flags=0*)
    → "You're absolutely sure about this? [Don't make me say it again./On second thought...]"
 68: 0x1769 [0x25] WAIT_DIALOG_SELECT()
 69: 0x176A [0x02] IF !(Work_Zone[0] == 0*) GOTO 0x17E6
 70: 0x1772 [0x02] IF !(ExtData[1]->WorkLocal[3] == 0*) GOTO 0x1796
 71: 0x177A [0x6E] Zasshal (ID: 16982309/0x01032125) uses emote 16*
 72: 0x1781 [0x99] Wait for Zasshal (ID: 16982309/0x01032125) animation to complete
 73: 0x1786 [0x03] Work_Zone[4] = 150000*
 74: 0x178B [0x2B] Zasshal (ID: 16982309/0x01032125) [11066*]:
    → "Hey, what's the big idea here?!? You don't even 'ave the number o' tokens we agreed upon. I 'ope you aren't expecting me to front you. No layaway plans here, <Player>."
 75: 0x1792 [0x23] WAIT_FOR_DIALOG_INTERACTION
 76: 0x1793 [0x01] GOTO 0x181A
 77: 0x1796 [0x03] Work_Zone[1] = 15*
 78: 0x179B [0x43] SEND_EVENT_UPDATE: Send pending tag to server (packet 0x005B)
 79: 0x179D [0x43] SEND_EVENT_UPDATE: Check pending flag (skip if not pending)
 80: 0x179F [0x02] IF !(Work_Zone[2] == 99*) GOTO 0x17BE
 81: 0x17A7 [0x6E] Zasshal (ID: 16982309/0x01032125) uses emote 26*
 82: 0x17AE [0x99] Wait for Zasshal (ID: 16982309/0x01032125) animation to complete
 83: 0x17B3 [0x2B] Zasshal (ID: 16982309/0x01032125) [11067*]:
    → "Oh, you gotta be kidding me. Look at 'em bags, for Altana's sake. You couldn't fit a 'unk o' rock salt in there, let alone 'is. Go get your act together and come back. Then maybe we can deal."
 84: 0x17BA [0x23] WAIT_FOR_DIALOG_INTERACTION
 85: 0x17BB [0x01] GOTO 0x181A
 86: 0x17BE [0x29] REQ_SET_WAIT(priority=0x10, entity_id=LocalPlayer, tag_num=0x1D)
 87: 0x17C5 [0x03] Work_Zone[3] = 2489*
 88: 0x17CA [0x6E] Zasshal (ID: 16982309/0x01032125) uses emote 36*
 89: 0x17D1 [0x99] Wait for Zasshal (ID: 16982309/0x01032125) animation to complete
 90: 0x17D6 [0x2B] Zasshal (ID: 16982309/0x01032125) [11065*]:
    → "Deal! That settles it then. 'Em there tokens for this 'ere copy of $1. No turning back now!"
 91: 0x17DD [0x23] WAIT_FOR_DIALOG_INTERACTION
 92: 0x17DE [0x03] Work_Zone[1] = 101*
 93: 0x17E3 [0x01] GOTO 0x1817
 94: 0x17E6 [0x02] IF !(Work_Zone[0] == 1*) GOTO 0x1817
 95: 0x17EE [0x66] LOAD_EXT_SCHEDULER_MAIN: Load scheduler "twb0" with entities [Zasshal (ID: 16982309/0x01032125), Zasshal (ID: 16982309/0x01032125)], work=9*
 96: 0x17FD [0x2B] Zasshal (ID: 16982309/0x01032125) [11058*]:
    → "Well, if you really want one I reckon you'll be willin' to come up with 'em somehow. Stop on by anytime. I'll keep up my end."
 97: 0x1804 [0x23] WAIT_FOR_DIALOG_INTERACTION
 98: 0x1805 [0x66] LOAD_EXT_SCHEDULER_MAIN: Load scheduler "twb1" with entities [Zasshal (ID: 16982309/0x01032125), Zasshal (ID: 16982309/0x01032125)], work=9*
 99: 0x1814 [0x01] GOTO 0x1817

SUBROUTINE_1817:
100: 0x1817 [0x01] GOTO 0x181A

SUBROUTINE_181A:
101: 0x181A [0x21] END_EVENT
102: 0x181B [0x00] END_REQSTACK()
```

#### Data or dead code:

```
# Dead code (unreachable instructions):
     0x175F [0x01] GOTO 0x1762
```

### Event 822

#### Metadata

| Field        | Value    |
|--------------|----------|
| Entrypoint   | 0x181C   |
| Data Size    | 53 bytes |
| Instructions | 15       |

```
      00 01 02 03 04 05 06 07  08 09 0A 0B 0C 0D 0E 0F
      -- -- -- -- -- -- -- --  -- -- -- -- -- -- -- --
1810:                                      42 1E F0 FF              B...
1820: FF 7F 6F 70 03 02 10 2D  80 2B 25 21 03 01 58 80  ..op...-.+%!..X.
1830: 23 6E 25 21 03 01 41 80  99 25 21 03 01 99 25 21  #n%!..A..%!...%!
1840: 03 01 2B 25 21 03 01 59  80 23 03 01 10 5A 80 21  ..+%!..Y.#...Z.!
1850: 00                                                .               
```

#### Opcodes

```
  0: 0x181C [0x42] SET_CLI_EVENT_CANCEL_DATA()
  1: 0x181D [0x1E] EventEntity looks at LocalPlayer and starts talking
  2: 0x1822 [0x6F] WAIT_FRAME_DELAY: Yield until WaitTime reaches zero
  3: 0x1823 [0x70] WAIT_ENTITY_RENDER_FLAG: Wait while EventEntity->Render.Flags3 bit 2 is set (cancel turn if not)
  4: 0x1824 [0x03] Work_Zone[2] = 854*
  5: 0x1829 [0x2B] Zasshal (ID: 16982309/0x01032125) [11018*]:
    → "Here's your $3. This'll let you enter the ruins for nuffin' more than a wink and a smile. It's a one-time ticket, though; once you enter, the tricky sod'll disappear on you."
  6: 0x1830 [0x23] WAIT_FOR_DIALOG_INTERACTION
  7: 0x1831 [0x6E] Zasshal (ID: 16982309/0x01032125) uses emote 4*
  8: 0x1838 [0x99] Wait for Zasshal (ID: 16982309/0x01032125) animation to complete
  9: 0x183D [0x99] Wait for Zasshal (ID: 16982309/0x01032125) animation to complete
 10: 0x1842 [0x2B] Zasshal (ID: 16982309/0x01032125) [11019*]:
    → "Lemme know if you want another permit--I always need the points!"
 11: 0x1849 [0x23] WAIT_FOR_DIALOG_INTERACTION
 12: 0x184A [0x03] Work_Zone[1] = 100*
 13: 0x184F [0x21] END_EVENT
 14: 0x1850 [0x00] END_REQSTACK()
```

### Event 287

#### Metadata

| Field        | Value    |
|--------------|----------|
| Entrypoint   | 0x1851   |
| Data Size    | 56 bytes |
| Instructions | 16       |

```
      00 01 02 03 04 05 06 07  08 09 0A 0B 0C 0D 0E 0F
      -- -- -- -- -- -- -- --  -- -- -- -- -- -- -- --
1850:    42 1E F0 FF FF 7F 6F  70 03 01 10 4E 80 43 00   B.....op...N.C.
1860: 43 01 29 10 F0 FF FF 7F  1D 03 03 10 35 80 6E 25  C.).........5.n%
1870: 21 03 01 17 80 99 25 21  03 01 2B 25 21 03 01 6B  !.....%!..+%!..k
1880: 80 23 03 01 10 6C 80 21  00                       .#...l.!.       
```

#### Opcodes

```
  0: 0x1851 [0x42] SET_CLI_EVENT_CANCEL_DATA()
  1: 0x1852 [0x1E] EventEntity looks at LocalPlayer and starts talking
  2: 0x1857 [0x6F] WAIT_FRAME_DELAY: Yield until WaitTime reaches zero
  3: 0x1858 [0x70] WAIT_ENTITY_RENDER_FLAG: Wait while EventEntity->Render.Flags3 bit 2 is set (cancel turn if not)
  4: 0x1859 [0x03] Work_Zone[1] = 5*
  5: 0x185E [0x43] SEND_EVENT_UPDATE: Send pending tag to server (packet 0x005B)
  6: 0x1860 [0x43] SEND_EVENT_UPDATE: Check pending flag (skip if not pending)
  7: 0x1862 [0x29] REQ_SET_WAIT(priority=0x10, entity_id=LocalPlayer, tag_num=0x1D)
  8: 0x1869 [0x03] Work_Zone[3] = 2489*
  9: 0x186E [0x6E] Zasshal (ID: 16982309/0x01032125) uses emote 36*
 10: 0x1875 [0x99] Wait for Zasshal (ID: 16982309/0x01032125) animation to complete
 11: 0x187A [0x2B] Zasshal (ID: 16982309/0x01032125) [11065*]:
    → "Deal! That settles it then. 'Em there tokens for this 'ere copy of $1. No turning back now!"
 12: 0x1881 [0x23] WAIT_FOR_DIALOG_INTERACTION
 13: 0x1882 [0x03] Work_Zone[1] = 101*
 14: 0x1887 [0x21] END_EVENT
 15: 0x1888 [0x00] END_REQSTACK()
```

### Event 286

#### Metadata

