# 16982354 - Ghanraam

## Common Data

| Field            | Value                         |
|------------------|-------------------------------|
| Zone             | Aht Urhgan Whitegate (ID: 50) |
| Block Size       | 8776 bytes                    |
| Total Events     | 7                             |
| References Count | 255                           |

## List of Events

| Event ID              | Entrypoint   |   Size |   Instructions |
|-----------------------|--------------|--------|----------------|
| [65535](#event-65535) | 0x0000       |      1 |              1 |
| [814](#event-814)     | 0x0001       |    753 |            130 |
| [893](#event-893)     | 0x02F2       |     60 |             14 |
| [815](#event-815)     | 0x032E       |   6388 |           1451 |
| [816](#event-816)     | 0x1C22       |    451 |             83 |
| [826](#event-826)     | 0x1DE5       |     29 |              7 |
| [827](#event-827)     | 0x1E02       |     30 |              8 |

## DAT References (imed_data)

|   Index | Hex Value   |   Dec Value |
|---------|-------------|-------------|
|       0 | 0x001E      |          30 |
|       1 | 0x0000      |           0 |
|       2 | 0x1B64      |        7012 |
|       3 | 0x1B65      |        7013 |
|       4 | 0x1B66      |        7014 |
|       5 | 0x1B67      |        7015 |
|       6 | 0x1B68      |        7016 |
|       7 | 0x1B69      |        7017 |
|       8 | 0x1B6A      |        7018 |
|       9 | 0x1B6B      |        7019 |
|      10 | 0x1B6C      |        7020 |
|      11 | 0x1B6D      |        7021 |
|      12 | 0x1B6E      |        7022 |
|      13 | 0x1B6F      |        7023 |
|      14 | 0x1B70      |        7024 |
|      15 | 0x1B71      |        7025 |
|      16 | 0x1B72      |        7026 |
|      17 | 0x1B73      |        7027 |
|      18 | 0x1B74      |        7028 |
|      19 | 0x1B75      |        7029 |
|      20 | 0x0001      |           1 |
|      21 | 0x0002      |           2 |
|      22 | 0x0003      |           3 |
|      23 | 0x0004      |           4 |
|      24 | 0x0005      |           5 |
|      25 | 0x1B7B      |        7035 |
|      26 | 0x1B7C      |        7036 |
|      27 | 0x1B7D      |        7037 |
|      28 | 0x1B7E      |        7038 |
|      29 | 0x1B7F      |        7039 |
|      30 | 0x1B80      |        7040 |
|      31 | 0x1B81      |        7041 |
|      32 | 0x1B82      |        7042 |
|      33 | 0x1B83      |        7043 |
|      34 | 0x1B76      |        7030 |
|      35 | 0x1B84      |        7044 |
|      36 | 0x0888      |        2184 |
|      37 | 0x1B85      |        7045 |
|      38 | 0x1B86      |        7046 |
|      39 | 0x00B4      |         180 |
|      40 | 0x1B87      |        7047 |
|      41 | 0x1B88      |        7048 |
|      42 | 0x1B89      |        7049 |
|      43 | 0x1B8A      |        7050 |
|      44 | 0x1B8B      |        7051 |
|      45 | 0x1B8C      |        7052 |
|      46 | 0x1B8D      |        7053 |
|      47 | 0x0006      |           6 |
|      48 | 0x1B94      |        7060 |
|      49 | 0x1B8E      |        7054 |
|      50 | 0x1B90      |        7056 |
|      51 | 0x0007      |           7 |
|      52 | 0x0008      |           8 |
|      53 | 0x0009      |           9 |
|      54 | 0x000A      |          10 |
|      55 | 0x000B      |          11 |
|      56 | 0x1B96      |        7062 |
|      57 | 0x1B97      |        7063 |
|      58 | 0x00FF      |         255 |
|      59 | 0x007F      |         127 |
|      60 | 0x3ED5      |       16085 |
|      61 | 0x3ED6      |       16086 |
|      62 | 0x3ED7      |       16087 |
|      63 | 0x38D3      |       14547 |
|      64 | 0x38D4      |       14548 |
|      65 | 0x38D5      |       14549 |
|      66 | 0x3A72      |       14962 |
|      67 | 0x3A73      |       14963 |
|      68 | 0x3ED9      |       16089 |
|      69 | 0x3EDA      |       16090 |
|      70 | 0x3EDB      |       16091 |
|      71 | 0x38D7      |       14551 |
|      72 | 0x38D8      |       14552 |
|      73 | 0x38D9      |       14553 |
|      74 | 0x3A76      |       14966 |
|      75 | 0x3A77      |       14967 |
|      76 | 0x3EDD      |       16093 |
|      77 | 0x3EDE      |       16094 |
|      78 | 0x3EDF      |       16095 |
|      79 | 0x38DB      |       14555 |
|      80 | 0x38DC      |       14556 |
|      81 | 0x38DD      |       14557 |
|      82 | 0x3A7A      |       14970 |
|      83 | 0x3A7B      |       14971 |
|      84 | 0x3EE1      |       16097 |
|      85 | 0x3EE2      |       16098 |
|      86 | 0x3EE3      |       16099 |
|      87 | 0x38DF      |       14559 |
|      88 | 0x38E0      |       14560 |
|      89 | 0x38E1      |       14561 |
|      90 | 0x3A7E      |       14974 |
|      91 | 0x3A7F      |       14975 |
|      92 | 0x3EE5      |       16101 |
|      93 | 0x3EE6      |       16102 |
|      94 | 0x3EE7      |       16103 |
|      95 | 0x38E3      |       14563 |
|      96 | 0x38E4      |       14564 |
|      97 | 0x38E5      |       14565 |
|      98 | 0x3A82      |       14978 |
|      99 | 0x3A83      |       14979 |
|     100 | 0x1B98      |        7064 |
|     101 | 0x1B9A      |        7066 |
|     102 | 0x1B9B      |        7067 |
|     103 | 0x000C      |          12 |
|     104 | 0x000D      |          13 |
|     105 | 0x000E      |          14 |
|     106 | 0x000F      |          15 |
|     107 | 0x0010      |          16 |
|     108 | 0x0011      |          17 |
|     109 | 0x0012      |          18 |
|     110 | 0x0013      |          19 |
|     111 | 0x3A74      |       14964 |
|     112 | 0x3D0A      |       15626 |
|     113 | 0x3D0B      |       15627 |
|     114 | 0x3D0C      |       15628 |
|     115 | 0x3D60      |       15712 |
|     116 | 0x3D61      |       15713 |
|     117 | 0x3D62      |       15714 |
|     118 | 0x3A78      |       14968 |
|     119 | 0x3D0E      |       15630 |
|     120 | 0x3D0F      |       15631 |
|     121 | 0x3D10      |       15632 |
|     122 | 0x3D64      |       15716 |
|     123 | 0x3D65      |       15717 |
|     124 | 0x3D66      |       15718 |
|     125 | 0x3A7C      |       14972 |
|     126 | 0x3D12      |       15634 |
|     127 | 0x3D13      |       15635 |
|     128 | 0x3D14      |       15636 |
|     129 | 0x3D68      |       15720 |
|     130 | 0x3D69      |       15721 |
|     131 | 0x3D6A      |       15722 |
|     132 | 0x3A80      |       14976 |
|     133 | 0x3D16      |       15638 |
|     134 | 0x3D17      |       15639 |
|     135 | 0x3D18      |       15640 |
|     136 | 0x3D6C      |       15724 |
|     137 | 0x3D6D      |       15725 |
|     138 | 0x3D6E      |       15726 |
|     139 | 0x3A84      |       14980 |
|     140 | 0x3D1A      |       15642 |
|     141 | 0x3D1B      |       15643 |
|     142 | 0x3D1C      |       15644 |
|     143 | 0x3D70      |       15728 |
|     144 | 0x3D71      |       15729 |
|     145 | 0x3D72      |       15730 |
|     146 | 0x1B99      |        7065 |
|     147 | 0x0014      |          20 |
|     148 | 0x0015      |          21 |
|     149 | 0x0016      |          22 |
|     150 | 0x0017      |          23 |
|     151 | 0x0018      |          24 |
|     152 | 0x0019      |          25 |
|     153 | 0x001A      |          26 |
|     154 | 0x001B      |          27 |
|     155 | 0x1BA0      |        7072 |
|     156 | 0x1BA1      |        7073 |
|     157 | 0x483C      |       18492 |
|     158 | 0x4941      |       18753 |
|     159 | 0x49A3      |       18851 |
|     160 | 0x489D      |       18589 |
|     161 | 0x454E      |       17742 |
|     162 | 0x4653      |       18003 |
|     163 | 0x4550      |       17744 |
|     164 | 0x4A00      |       18944 |
|     165 | 0x1BA4      |        7076 |
|     166 | 0x001C      |          28 |
|     167 | 0x001D      |          29 |
|     168 | 0x001F      |          31 |
|     169 | 0x0020      |          32 |
|     170 | 0x0021      |          33 |
|     171 | 0x0022      |          34 |
|     172 | 0x0023      |          35 |
|     173 | 0x4624      |       17956 |
|     174 | 0x4672      |       18034 |
|     175 | 0x491F      |       18719 |
|     176 | 0x480B      |       18443 |
|     177 | 0x47FA      |       18426 |
|     178 | 0x46C8      |       18120 |
|     179 | 0x489E      |       18590 |
|     180 | 0x454F      |       17743 |
|     181 | 0x1BA2      |        7074 |
|     182 | 0x0024      |          36 |
|     183 | 0x0025      |          37 |
|     184 | 0x0026      |          38 |
|     185 | 0x0027      |          39 |
|     186 | 0x0028      |          40 |
|     187 | 0x0029      |          41 |
|     188 | 0x002A      |          42 |
|     189 | 0x002B      |          43 |
|     190 | 0x4920      |       18720 |
|     191 | 0x4942      |       18754 |
|     192 | 0x4A9E      |       19102 |
|     193 | 0x48A0      |       18592 |
|     194 | 0x1BA3      |        7075 |
|     195 | 0x002C      |          44 |
|     196 | 0x002D      |          45 |
|     197 | 0x002E      |          46 |
|     198 | 0x002F      |          47 |
|     199 | 0x1B95      |        7061 |
|     200 | 0x1B77      |        7031 |
|     201 | 0x1B78      |        7032 |
|     202 | 0x02EB      |         747 |
|     203 | 0x088B      |        2187 |
|     204 | 0x1B79      |        7033 |
|     205 | 0x3ED4      |       16084 |
|     206 | 0x3ED8      |       16088 |
|     207 | 0x3EDC      |       16092 |
|     208 | 0x3EE0      |       16096 |
|     209 | 0x3EE4      |       16100 |
|     210 | 0x02AE      |         686 |
|     211 | 0x38D2      |       14546 |
|     212 | 0x38D6      |       14550 |
|     213 | 0x38DA      |       14554 |
|     214 | 0x38DE      |       14558 |
|     215 | 0x38E2      |       14562 |
|     216 | 0x02DA      |         730 |
|     217 | 0x3A71      |       14961 |
|     218 | 0x3A75      |       14965 |
|     219 | 0x3A79      |       14969 |
|     220 | 0x3A7D      |       14973 |
|     221 | 0x3A81      |       14977 |
|     222 | 0x08F1      |        2289 |
|     223 | 0x3D09      |       15625 |
|     224 | 0x3D0D      |       15629 |
|     225 | 0x3D11      |       15633 |
|     226 | 0x3D15      |       15637 |
|     227 | 0x3D19      |       15641 |
|     228 | 0x0868      |        2152 |
|     229 | 0x3D5F      |       15711 |
|     230 | 0x3D63      |       15715 |
|     231 | 0x3D67      |       15719 |
|     232 | 0x3D6B      |       15723 |
|     233 | 0x3D6F      |       15727 |
|     234 | 0x1B7A      |        7034 |
|     235 | 0x1BA5      |        7077 |
|     236 | 0x1BA6      |        7078 |
|     237 | 0x1BA7      |        7079 |
|     238 | 0x1BA8      |        7080 |
|     239 | 0x1BAF      |        7087 |
|     240 | 0x1BAD      |        7085 |
|     241 | 0x1BAE      |        7086 |
|     242 | 0x1BB0      |        7088 |
|     243 | 0x1BB1      |        7089 |
|     244 | 0x1BA9      |        7081 |
|     245 | 0x1BAA      |        7082 |
|     246 | 0x1BAB      |        7083 |
|     247 | 0x1BAC      |        7084 |
|     248 | 0x1BB5      |        7093 |
|     249 | 0x1BB6      |        7094 |
|     250 | 0x1BB3      |        7091 |
|     251 | 0x1BB4      |        7092 |
|     252 | 0x1BB2      |        7090 |
|     253 | 0x1BB7      |        7095 |
|     254 | 0x1BB8      |        7096 |

## Events

### Event 65535

#### Metadata

| Field        | Value   |
|--------------|---------|
| Entrypoint   | 0x0000  |
| Data Size    | 1 bytes |
| Instructions | 1       |

```
      00 01 02 03 04 05 06 07  08 09 0A 0B 0C 0D 0E 0F
      -- -- -- -- -- -- -- --  -- -- -- -- -- -- -- --
0000: 00                                                .               
```

#### Opcodes

```
  0: 0x0000 [0x00] END_REQSTACK()
```

### Event 814

#### Metadata

| Field        | Value     |
|--------------|-----------|
| Entrypoint   | 0x0001    |
| Data Size    | 753 bytes |
| Instructions | 126       |

```
      00 01 02 03 04 05 06 07  08 09 0A 0B 0C 0D 0E 0F
      -- -- -- -- -- -- -- --  -- -- -- -- -- -- -- --
0000:    42 1E F0 FF FF 7F 1C  00 80 66 01 80 F8 FF FF   B........f.....
0010: 7F F8 FF FF 7F 74 68 6B  31 1D 02 80 23 53 F8 FF  .....thk1...#S..
0020: FF 7F F8 FF FF 7F 74 68  6B 31 66 01 80 F8 FF FF  ......thk1f.....
0030: 7F F8 FF FF 7F 74 68 6B  32 1D 03 80 23 53 F8 FF  .....thk2...#S..
0040: FF 7F F8 FF FF 7F 74 68  6B 32 66 01 80 F8 FF FF  ......thk2f.....
0050: 7F F8 FF FF 7F 74 6C 6B  30 1D 04 80 23 1D 05 80  .....tlk0...#...
0060: 23 1D 06 80 23 66 01 80  F8 FF FF 7F F8 FF FF 7F  #...#f..........
0070: 74 65 6E 30 1D 07 80 23  53 F8 FF FF 7F F8 FF FF  ten0...#S.......
0080: 7F 74 65 6E 30 66 01 80  F8 FF FF 7F F8 FF FF 7F  .ten0f..........
0090: 74 6C 6B 31 1D 08 80 23  1D 09 80 23 66 01 80 F8  tlk1...#...#f...
00A0: FF FF 7F F8 FF FF 7F 74  65 6E 31 1D 0A 80 23 53  .......ten1...#S
00B0: F8 FF FF 7F F8 FF FF 7F  74 65 6E 31 66 01 80 F8  ........ten1f...
00C0: FF FF 7F F8 FF FF 7F 74  6C 6B 30 1D 0B 80 23 66  .......tlk0...#f
00D0: 01 80 F8 FF FF 7F F8 FF  FF 7F 74 65 6E 30 1D 0C  ..........ten0..
00E0: 80 23 53 F8 FF FF 7F F8  FF FF 7F 74 65 6E 30 66  .#S........ten0f
00F0: 01 80 F8 FF FF 7F F8 FF  FF 7F 64 69 73 30 1D 0D  ..........dis0..
0100: 80 23 53 F8 FF FF 7F F8  FF FF 7F 64 69 73 30 66  .#S........dis0f
0110: 01 80 F8 FF FF 7F F8 FF  FF 7F 74 6C 6B 30 1D 0E  ..........tlk0..
0120: 80 23 1D 0F 80 23 66 01  80 F8 FF FF 7F F8 FF FF  .#...#f.........
0130: 7F 74 65 6E 30 1D 10 80  23 1D 11 80 23 24 12 80  .ten0...#...#$..
0140: 01 80 01 80 25 02 00 10  01 80 00 7C 01 66 01 80  ....%......|.f..
0150: F8 FF FF 7F F8 FF FF 7F  74 6C 6B 30 03 02 10 01  ........tlk0....
0160: 80 1D 13 80 23 66 01 80  F8 FF FF 7F F8 FF FF 7F  ....#f..........
0170: 74 65 6E 30 03 04 00 01  80 01 D4 02 02 00 10 14  ten0............
0180: 80 00 B3 01 66 01 80 F8  FF FF 7F F8 FF FF 7F 74  ....f..........t
0190: 6C 6B 30 03 02 10 14 80  1D 13 80 23 66 01 80 F8  lk0........#f...
01A0: FF FF 7F F8 FF FF 7F 74  65 6E 30 03 04 00 14 80  .......ten0.....
01B0: 01 D4 02 02 00 10 15 80  00 EA 01 66 01 80 F8 FF  ...........f....
01C0: FF 7F F8 FF FF 7F 74 6C  6B 30 03 02 10 15 80 1D  ......tlk0......
01D0: 13 80 23 66 01 80 F8 FF  FF 7F F8 FF FF 7F 74 65  ..#f..........te
01E0: 6E 30 03 04 00 15 80 01  D4 02 02 00 10 16 80 00  n0..............
01F0: 21 02 66 01 80 F8 FF FF  7F F8 FF FF 7F 74 6C 6B  !.f..........tlk
0200: 30 03 02 10 16 80 1D 13  80 23 66 01 80 F8 FF FF  0........#f.....
0210: 7F F8 FF FF 7F 74 65 6E  30 03 04 00 16 80 01 D4  .....ten0.......
0220: 02 02 00 10 17 80 00 58  02 66 01 80 F8 FF FF 7F  .......X.f......
0230: F8 FF FF 7F 74 6C 6B 30  03 02 10 17 80 1D 13 80  ....tlk0........
0240: 23 66 01 80 F8 FF FF 7F  F8 FF FF 7F 74 65 6E 30  #f..........ten0
0250: 03 04 00 17 80 01 D4 02  02 00 10 18 80 00 D4 02  ................
0260: 66 01 80 F8 FF FF 7F F8  FF FF 7F 74 6C 6B 30 1D  f..........tlk0.
0270: 19 80 23 1D 1A 80 23 1D  1B 80 23 1D 1C 80 23 66  ..#...#...#...#f
0280: 01 80 F8 FF FF 7F F8 FF  FF 7F 74 65 6E 30 1D 1D  ..........ten0..
0290: 80 23 1D 1E 80 23 66 01  80 F8 FF FF 7F F8 FF FF  .#...#f.........
02A0: 7F 64 69 73 30 1D 1F 80  23 66 01 80 F8 FF FF 7F  .dis0...#f......
02B0: F8 FF FF 7F 74 6C 6B 30  1D 20 80 23 66 01 80 F8  ....tlk0. .#f...
02C0: FF FF 7F F8 FF FF 7F 74  65 6E 30 1D 21 80 23 21  .......ten0.!.#!
02D0: 00 01 D4 02 24 22 80 01  80 01 80 25 02 00 10 01  ....$".....%....
02E0: 80 00 ED 02 1A AF 15 01  D4 02 01 ED 02 01 3D 01  ..............=.
02F0: 21 00                                             !.              
```

#### Opcodes

```
  0: 0x0001 [0x42] SET_CLI_EVENT_CANCEL_DATA()
  1: 0x0002 [0x1E] EventEntity looks at LocalPlayer and starts talking
  2: 0x0007 [0x1C] WAIT(30* ticks)
  3: 0x000A [0x66] LOAD_EXT_SCHEDULER_MAIN: Load scheduler "thk1" with entities [EventEntity, EventEntity], work=0*
  4: 0x0019 [0x1D] PRINT_EVENT_MESSAGE(message_id=7012*)
    → "I can see you are a most inquisitive individual.\u007F1\u0000\u0007"
  5: 0x001C [0x23] WAIT_FOR_DIALOG_INTERACTION
  6: 0x001D [0x53] WAIT_SCHEDULER_TASK: Wait for scheduler "thk1" with entities [EventEntity, EventEntity]
  7: 0x002A [0x66] LOAD_EXT_SCHEDULER_MAIN: Load scheduler "thk2" with entities [EventEntity, EventEntity], work=0*
  8: 0x0039 [0x1D] PRINT_EVENT_MESSAGE(message_id=7013*)
    → "Allow me to feed that burning curiosity with a delectable nugget of knowledge.\u007F1\u0000\u0007"
  9: 0x003C [0x23] WAIT_FOR_DIALOG_INTERACTION
 10: 0x003D [0x53] WAIT_SCHEDULER_TASK: Wait for scheduler "thk2" with entities [EventEntity, EventEntity]
 11: 0x004A [0x66] LOAD_EXT_SCHEDULER_MAIN: Load scheduler "tlk0" with entities [EventEntity, EventEntity], work=0*
 12: 0x0059 [0x1D] PRINT_EVENT_MESSAGE(message_id=7014*)
    → "You are familiar with the Ruins of Alzadaal?\u007F1\u0000\u0007"
 13: 0x005C [0x23] WAIT_FOR_DIALOG_INTERACTION
 14: 0x005D [0x1D] PRINT_EVENT_MESSAGE(message_id=7015*)
    → "Yes, those expansive ruins that honeycomb the western regions of this mighty nation.\u007F1\u0000\u0007"
 15: 0x0060 [0x23] WAIT_FOR_DIALOG_INTERACTION
 16: 0x0061 [0x1D] PRINT_EVENT_MESSAGE(message_id=7016*)
    → "Mount Zhayolm, Arrapago Reef, Bhaflau Thickets, the Silver Sea...\u0007Wonderfully rare pieces of armor have been discovered within the remnants at all of these locations.\u007F1\u0000\u0007"
 17: 0x0064 [0x23] WAIT_FOR_DIALOG_INTERACTION
 18: 0x0065 [0x66] LOAD_EXT_SCHEDULER_MAIN: Load scheduler "ten0" with entities [EventEntity, EventEntity], work=0*
 19: 0x0074 [0x1D] PRINT_EVENT_MESSAGE(message_id=7017*)
    → "How wonderfully rare, you ask?\u007F1\u0000\u0007"
 20: 0x0077 [0x23] WAIT_FOR_DIALOG_INTERACTION
 21: 0x0078 [0x53] WAIT_SCHEDULER_TASK: Wait for scheduler "ten0" with entities [EventEntity, EventEntity]
 22: 0x0085 [0x66] LOAD_EXT_SCHEDULER_MAIN: Load scheduler "tlk1" with entities [EventEntity, EventEntity], work=0*
 23: 0x0094 [0x1D] PRINT_EVENT_MESSAGE(message_id=7018*)
    → "Why, these relics are so splendidly rare that even I, an avid collector, have been unable to acquire a single piece!\u007F1\u0000\u0007"
 24: 0x0097 [0x23] WAIT_FOR_DIALOG_INTERACTION
 25: 0x0098 [0x1D] PRINT_EVENT_MESSAGE(message_id=7019*)
    → "Rumors among my fellow armor aficionados say that these lost treasures belonged to foreign mercenaries that fell in battle while escorting an archaeological research team.\u007F1\u0000\u0007"
 26: 0x009B [0x23] WAIT_FOR_DIALOG_INTERACTION
 27: 0x009C [0x66] LOAD_EXT_SCHEDULER_MAIN: Load scheduler "ten1" with entities [EventEntity, EventEntity], work=0*
 28: 0x00AB [0x1D] PRINT_EVENT_MESSAGE(message_id=7020*)
    → "The rumors also say that these were no ordinary mercenaries, but famous adventurers to whom the Imperial Palace extended a personal and lucrative invitation...\u007F1\u0000\u0007"
 29: 0x00AE [0x23] WAIT_FOR_DIALOG_INTERACTION
 30: 0x00AF [0x53] WAIT_SCHEDULER_TASK: Wait for scheduler "ten1" with entities [EventEntity, EventEntity]
 31: 0x00BC [0x66] LOAD_EXT_SCHEDULER_MAIN: Load scheduler "tlk0" with entities [EventEntity, EventEntity], work=0*
 32: 0x00CB [0x1D] PRINT_EVENT_MESSAGE(message_id=7021*)
    → "Funded by the inexhaustible coffers of the palace, the exquisite armor they wore was forged by the finest craftsmen, without regard for trivial matters such as \u00072cost.\u00073\u007F1\u0000\u0007"
 33: 0x00CE [0x23] WAIT_FOR_DIALOG_INTERACTION
 34: 0x00CF [0x66] LOAD_EXT_SCHEDULER_MAIN: Load scheduler "ten0" with entities [EventEntity, EventEntity], work=0*
 35: 0x00DE [0x1D] PRINT_EVENT_MESSAGE(message_id=7022*)
    → "Oh, how I would dearly love to behold such masterpieces...\u007F1\u0000\u0007"
 36: 0x00E1 [0x23] WAIT_FOR_DIALOG_INTERACTION
 37: 0x00E2 [0x53] WAIT_SCHEDULER_TASK: Wait for scheduler "ten0" with entities [EventEntity, EventEntity]
 38: 0x00EF [0x66] LOAD_EXT_SCHEDULER_MAIN: Load scheduler "dis0" with entities [EventEntity, EventEntity], work=0*
 39: 0x00FE [0x1D] PRINT_EVENT_MESSAGE(message_id=7023*)
    → "But let us not dwell on such negative emotions.\u0007I have piqued your interest, yes?\u007F1\u0000\u0007"
 40: 0x0101 [0x23] WAIT_FOR_DIALOG_INTERACTION
 41: 0x0102 [0x53] WAIT_SCHEDULER_TASK: Wait for scheduler "dis0" with entities [EventEntity, EventEntity]
 42: 0x010F [0x66] LOAD_EXT_SCHEDULER_MAIN: Load scheduler "tlk0" with entities [EventEntity, EventEntity], work=0*
 43: 0x011E [0x1D] PRINT_EVENT_MESSAGE(message_id=7024*)
    → "And now I have a request: I would ask that should you come into possession of such a wondrous treasure, that you surrender it to my greater expertise.\u007F1\u0000\u0007"
 44: 0x0121 [0x23] WAIT_FOR_DIALOG_INTERACTION
 45: 0x0122 [0x1D] PRINT_EVENT_MESSAGE(message_id=7025*)
    → "Though I may seem quite savory, I have connections with the Al Zahbi underground--specifically the Rogue Artisan Guild. They have expressed an interest in examining the craftsmanship of this armor.\u007F6\u0002\u0007Although I cannot deny my own desire to gaze upon...\u007F1\u0000\u0007"
 46: 0x0125 [0x23] WAIT_FOR_DIALOG_INTERACTION
 47: 0x0126 [0x66] LOAD_EXT_SCHEDULER_MAIN: Load scheduler "ten0" with entities [EventEntity, EventEntity], work=0*
 48: 0x0135 [0x1D] PRINT_EVENT_MESSAGE(message_id=7026*)
    → "Ahem. Naturally, I do not make this request devoid of the promise of compensation. After the armor is examined, it will be returned to you in pristine condition, reforged into a more powerful form.\u007F1\u0000\u0007"
 49: 0x0138 [0x23] WAIT_FOR_DIALOG_INTERACTION
 50: 0x0139 [0x1D] PRINT_EVENT_MESSAGE(message_id=7027*)
    → "Perhaps this catalog will better explain what you stand to gain...\u007F1\u0000\u0007"
 51: 0x013C [0x23] WAIT_FOR_DIALOG_INTERACTION
 52: 0x013D [0x24] CREATE_DIALOG(message_id=7028*, default_option=0*, option_flags=0*)
    → "Which do you wish to see?\u0007\u000BAres Plate Armor.\u0007Skadi Leather Armor.\u0007Usukane Armor.\u0007Marduk Jubbah.\u0007Morrigan Robe.\u0007None.\u007F1\u0000\u0007"
 53: 0x0144 [0x25] WAIT_DIALOG_SELECT()
 54: 0x0145 [0x02] IF !(Work_Zone[0] == 0*) GOTO 0x017C
 55: 0x014D [0x66] LOAD_EXT_SCHEDULER_MAIN: Load scheduler "tlk0" with entities [EventEntity, EventEntity], work=0*
 56: 0x015C [0x03] Work_Zone[2] = 0*
 57: 0x0161 [0x1D] PRINT_EVENT_MESSAGE(message_id=7029*)
    → "Ah, so the \u000C\u0000[Ares Plate Armor/Skadi Leather Armor/Usukane Armor/Marduk Jubbah/Morrigan Robe] has caught your eye. Would you like to hear more about the separate parts of the armor?\u007F1\u0000\u0007"
 58: 0x0164 [0x23] WAIT_FOR_DIALOG_INTERACTION
 59: 0x0165 [0x66] LOAD_EXT_SCHEDULER_MAIN: Load scheduler "ten0" with entities [EventEntity, EventEntity], work=0*
 60: 0x0174 [0x03] ExtData[1]->WorkLocal[4] = 0*
 61: 0x0179 [0x01] GOTO 0x02D4
 62: 0x017C [0x02] IF !(Work_Zone[0] == 1*) GOTO 0x01B3
 63: 0x0184 [0x66] LOAD_EXT_SCHEDULER_MAIN: Load scheduler "tlk0" with entities [EventEntity, EventEntity], work=0*
 64: 0x0193 [0x03] Work_Zone[2] = 1*
 65: 0x0198 [0x1D] PRINT_EVENT_MESSAGE(message_id=7029*)
    → "Ah, so the \u000C\u0000[Ares Plate Armor/Skadi Leather Armor/Usukane Armor/Marduk Jubbah/Morrigan Robe] has caught your eye. Would you like to hear more about the separate parts of the armor?\u007F1\u0000\u0007"
 66: 0x019B [0x23] WAIT_FOR_DIALOG_INTERACTION
 67: 0x019C [0x66] LOAD_EXT_SCHEDULER_MAIN: Load scheduler "ten0" with entities [EventEntity, EventEntity], work=0*
 68: 0x01AB [0x03] ExtData[1]->WorkLocal[4] = 1*
 69: 0x01B0 [0x01] GOTO 0x02D4
 70: 0x01B3 [0x02] IF !(Work_Zone[0] == 2*) GOTO 0x01EA
 71: 0x01BB [0x66] LOAD_EXT_SCHEDULER_MAIN: Load scheduler "tlk0" with entities [EventEntity, EventEntity], work=0*
 72: 0x01CA [0x03] Work_Zone[2] = 2*
 73: 0x01CF [0x1D] PRINT_EVENT_MESSAGE(message_id=7029*)
    → "Ah, so the \u000C\u0000[Ares Plate Armor/Skadi Leather Armor/Usukane Armor/Marduk Jubbah/Morrigan Robe] has caught your eye. Would you like to hear more about the separate parts of the armor?\u007F1\u0000\u0007"
 74: 0x01D2 [0x23] WAIT_FOR_DIALOG_INTERACTION
 75: 0x01D3 [0x66] LOAD_EXT_SCHEDULER_MAIN: Load scheduler "ten0" with entities [EventEntity, EventEntity], work=0*
 76: 0x01E2 [0x03] ExtData[1]->WorkLocal[4] = 2*
 77: 0x01E7 [0x01] GOTO 0x02D4
 78: 0x01EA [0x02] IF !(Work_Zone[0] == 3*) GOTO 0x0221
 79: 0x01F2 [0x66] LOAD_EXT_SCHEDULER_MAIN: Load scheduler "tlk0" with entities [EventEntity, EventEntity], work=0*
 80: 0x0201 [0x03] Work_Zone[2] = 3*
 81: 0x0206 [0x1D] PRINT_EVENT_MESSAGE(message_id=7029*)
    → "Ah, so the \u000C\u0000[Ares Plate Armor/Skadi Leather Armor/Usukane Armor/Marduk Jubbah/Morrigan Robe] has caught your eye. Would you like to hear more about the separate parts of the armor?\u007F1\u0000\u0007"
 82: 0x0209 [0x23] WAIT_FOR_DIALOG_INTERACTION
 83: 0x020A [0x66] LOAD_EXT_SCHEDULER_MAIN: Load scheduler "ten0" with entities [EventEntity, EventEntity], work=0*
 84: 0x0219 [0x03] ExtData[1]->WorkLocal[4] = 3*
 85: 0x021E [0x01] GOTO 0x02D4
 86: 0x0221 [0x02] IF !(Work_Zone[0] == 4*) GOTO 0x0258
 87: 0x0229 [0x66] LOAD_EXT_SCHEDULER_MAIN: Load scheduler "tlk0" with entities [EventEntity, EventEntity], work=0*
 88: 0x0238 [0x03] Work_Zone[2] = 4*
 89: 0x023D [0x1D] PRINT_EVENT_MESSAGE(message_id=7029*)
    → "Ah, so the \u000C\u0000[Ares Plate Armor/Skadi Leather Armor/Usukane Armor/Marduk Jubbah/Morrigan Robe] has caught your eye. Would you like to hear more about the separate parts of the armor?\u007F1\u0000\u0007"
 90: 0x0240 [0x23] WAIT_FOR_DIALOG_INTERACTION
 91: 0x0241 [0x66] LOAD_EXT_SCHEDULER_MAIN: Load scheduler "ten0" with entities [EventEntity, EventEntity], work=0*
 92: 0x0250 [0x03] ExtData[1]->WorkLocal[4] = 4*
 93: 0x0255 [0x01] GOTO 0x02D4
 94: 0x0258 [0x02] IF !(Work_Zone[0] == 5*) GOTO 0x02D4
 95: 0x0260 [0x66] LOAD_EXT_SCHEDULER_MAIN: Load scheduler "tlk0" with entities [EventEntity, EventEntity], work=0*
 96: 0x026F [0x1D] PRINT_EVENT_MESSAGE(message_id=7035*)
    → "There are five sets of armor that can be forged in this way.\u007F1\u0000\u0007"
 97: 0x0272 [0x23] WAIT_FOR_DIALOG_INTERACTION
 98: 0x0273 [0x1D] PRINT_EVENT_MESSAGE(message_id=7036*)
    → "You will have the chance to select which of these wondrous sets of armor you wish the Rogue Artisan Guild to focus their attention upon.\u007F1\u0000\u0007"
 99: 0x0276 [0x23] WAIT_FOR_DIALOG_INTERACTION
100: 0x0277 [0x1D] PRINT_EVENT_MESSAGE(message_id=7037*)
    → "As long as the guild isn't in the middle of reforging the set you have chosen, you can change your mind at any time.\u007F1\u0000\u0007"
101: 0x027A [0x23] WAIT_FOR_DIALOG_INTERACTION
102: 0x027B [0x1D] PRINT_EVENT_MESSAGE(message_id=7038*)
    → "Feel free to bring me even a single piece you have found in the remnants--I shall store it in my gallery with the utmost care and vigilance.\u007F1\u0000\u0007"
103: 0x027E [0x23] WAIT_FOR_DIALOG_INTERACTION
104: 0x027F [0x66] LOAD_EXT_SCHEDULER_MAIN: Load scheduler "ten0" with entities [EventEntity, EventEntity], work=0*
105: 0x028E [0x1D] PRINT_EVENT_MESSAGE(message_id=7039*)
    → "Be aware that I cannot accept pieces from more than one set at a time. I would dearly love to store them all, but the space is limited.\u007F1\u0000\u0007"
106: 0x0291 [0x23] WAIT_FOR_DIALOG_INTERACTION
107: 0x0292 [0x1D] PRINT_EVENT_MESSAGE(message_id=7040*)
    → "My gallery was meant to house my own personal collection, but...<sob>.\u007F1\u0000\u0007"
108: 0x0295 [0x23] WAIT_FOR_DIALOG_INTERACTION
109: 0x0296 [0x66] LOAD_EXT_SCHEDULER_MAIN: Load scheduler "dis0" with entities [EventEntity, EventEntity], work=0*
110: 0x02A5 [0x1D] PRINT_EVENT_MESSAGE(message_id=7041*)
    → "Ahem. Yes. I will gladly offer the use of my gallery, if only to display those treasures, for a short while...\u007F1\u0000\u0007"
111: 0x02A8 [0x23] WAIT_FOR_DIALOG_INTERACTION
112: 0x02A9 [0x66] LOAD_EXT_SCHEDULER_MAIN: Load scheduler "tlk0" with entities [EventEntity, EventEntity], work=0*
113: 0x02B8 [0x1D] PRINT_EVENT_MESSAGE(message_id=7042*)
    → "Do not be concerned by my zeal--the armor will be available to you at any time.\u007F1\u0000\u0007"
114: 0x02BB [0x23] WAIT_FOR_DIALOG_INTERACTION
115: 0x02BC [0x66] LOAD_EXT_SCHEDULER_MAIN: Load scheduler "ten0" with entities [EventEntity, EventEntity], work=0*
116: 0x02CB [0x1D] PRINT_EVENT_MESSAGE(message_id=7043*)
    → "I anxiously await any news of your success in obtaining these truly epic pieces.\u007F1\u0000\u0007"
117: 0x02CE [0x23] WAIT_FOR_DIALOG_INTERACTION
118: 0x02CF [0x21] END_EVENT
119: 0x02D0 [0x00] END_REQSTACK()

SUBROUTINE_02D4:
120: 0x02D4 [0x24] CREATE_DIALOG(message_id=7030*, default_option=0*, option_flags=0*)
    → "Hear about the parts?\u0007\u000BDo tell.\u0007Not right now.\u007F1\u0000\u0007"
121: 0x02DB [0x25] WAIT_DIALOG_SELECT()
122: 0x02DC [0x02] IF !(Work_Zone[0] == 0*) GOTO 0x02ED
123: 0x02E4 [0x1A] CALL_SUBROUTINE(address=0x15AF)
124: 0x02E7 [0x01] GOTO 0x02D4

SUBROUTINE_02ED:
125: 0x02ED [0x01] GOTO 0x013D
```

#### Data or dead code:

```
# Dead code (unreachable instructions):
     0x02D1 [0x01] GOTO 0x02D4
# Dead code (unreachable instructions):
     0x02EA [0x01] GOTO 0x02ED
# Dead code (unreachable instructions):
     0x02F0 [0x21] END_EVENT
     0x02F1 [0x00] END_REQSTACK()
```

### Event 893

#### Metadata

| Field        | Value    |
|--------------|----------|
| Entrypoint   | 0x02F2   |
| Data Size    | 60 bytes |
| Instructions | 14       |

```
      00 01 02 03 04 05 06 07  08 09 0A 0B 0C 0D 0E 0F
      -- -- -- -- -- -- -- --  -- -- -- -- -- -- -- --
02F0:       42 1E F0 FF FF 7F  1C 00 80 1D 23 80 23 66    B.........#.#f
0300: 01 80 F8 FF FF 7F F8 FF  FF 7F 74 6C 6B 30 03 02  ..........tlk0..
0310: 10 24 80 1D 25 80 23 66  01 80 F8 FF FF 7F F8 FF  .$..%.#f........
0320: FF 7F 74 65 6E 30 48 26  80 1C 27 80 21 00        ..ten0H&..'.!.  
```

#### Opcodes

```
  0: 0x02F2 [0x42] SET_CLI_EVENT_CANCEL_DATA()
  1: 0x02F3 [0x1E] EventEntity looks at LocalPlayer and starts talking
  2: 0x02F8 [0x1C] WAIT(30* ticks)
  3: 0x02FB [0x1D] PRINT_EVENT_MESSAGE(message_id=7044*)
    → "It has come to my attention that weapons of extraordinary quality have also been discovered within the ruins. I would be more than happy to offer the use of my gallery should you acquire any of these masterful pieces.\u007F1\u0000\u0007"
  4: 0x02FE [0x23] WAIT_FOR_DIALOG_INTERACTION
  5: 0x02FF [0x66] LOAD_EXT_SCHEDULER_MAIN: Load scheduler "tlk0" with entities [EventEntity, EventEntity], work=0*
  6: 0x030E [0x03] Work_Zone[2] = 2184*
  7: 0x0313 [0x1D] PRINT_EVENT_MESSAGE(message_id=7045*)
    → "Sadly, though, I originally fashioned my display cases and cabinets for the express purpose of housing fine armors.\u0007Weapons must to be stored separately and carefully, to ensure they don't suffer any nicks or dings.\u0007Should you want me to store a weapon, I'm afraid I'll have to ask that you contribute \u0001\u0001\u0001 \u0001\u0005$\u0002\u0000\u0000\u0000 to my gallery.\u007F1\u0000\u0007"
  8: 0x0316 [0x23] WAIT_FOR_DIALOG_INTERACTION
  9: 0x0317 [0x66] LOAD_EXT_SCHEDULER_MAIN: Load scheduler "ten0" with entities [EventEntity, EventEntity], work=0*
 10: 0x0326 [0x48] [System] [7046*]:
    → "\u001FyTurning in a weapon for safekeeping will result in all data associated with that weapon to be reset. Please exercise caution!\u007F1\u0000\u0007"
 11: 0x0329 [0x1C] WAIT(180* ticks)
 12: 0x032C [0x21] END_EVENT
 13: 0x032D [0x00] END_REQSTACK()
```

### Event 815

#### Metadata

| Field        | Value      |
|--------------|------------|
| Entrypoint   | 0x032E     |
| Data Size    | 6388 bytes |
| Instructions | 765        |

```
      00 01 02 03 04 05 06 07  08 09 0A 0B 0C 0D 0E 0F
      -- -- -- -- -- -- -- --  -- -- -- -- -- -- -- --
0320:                                            03 05                ..
0330: 00 01 80 03 01 10 01 80  1E F0 FF FF 7F 1C 00 80  ................
0340: 1D 28 80 23 24 29 80 01  80 01 80 25 02 00 10 01  .(.#$).....%....
0350: 80 00 BC 06 1D 2A 80 23  24 2B 80 01 80 01 80 25  .....*.#$+.....%
0360: 02 00 10 01 80 00 08 04  03 02 10 01 80 1D 13 80  ................
0370: 23 24 2C 80 01 80 01 80  25 02 00 10 01 80 00 8F  #$,.....%.......
0380: 03 03 04 00 01 80 1A AF  15 01 71 03 01 05 04 02  ..........q.....
0390: 00 10 14 80 00 05 04 03  01 10 14 80 43 00 43 01  ............C.C.
03A0: 02 03 10 01 80 80 B1 03  1D 2D 80 23 21 00 01 02  .........-.#!...
03B0: 04 02 03 10 14 80 80 C0  03 1D 2E 80 23 01 02 04  ............#...
03C0: 02 03 10 2F 80 80 CF 03  1D 30 80 23 01 02 04 03  .../.....0.#....
03D0: 03 10 01 80 1D 31 80 23  24 32 80 14 80 01 80 25  .....1.#$2.....%
03E0: 02 00 10 01 80 00 02 04  03 01 10 15 80 43 00 43  .............C.C
03F0: 01 02 03 10 01 80 00 FF  03 1D 2D 80 23 21 00 01  ..........-.#!..
0400: 02 04 01 05 04 01 B6 06  02 00 10 14 80 00 B0 04  ................
0410: 03 02 10 14 80 1D 13 80  23 24 2C 80 01 80 01 80  ........#$,.....
0420: 25 02 00 10 01 80 00 37  04 03 04 00 14 80 1A AF  %......7........
0430: 15 01 19 04 01 AD 04 02  00 10 14 80 00 AD 04 03  ................
0440: 01 10 16 80 43 00 43 01  02 03 10 01 80 80 59 04  ....C.C.......Y.
0450: 1D 2D 80 23 21 00 01 AA  04 02 03 10 15 80 80 68  .-.#!..........h
0460: 04 1D 2E 80 23 01 AA 04  02 03 10 2F 80 80 77 04  ....#....../..w.
0470: 1D 30 80 23 01 AA 04 03  03 10 14 80 1D 31 80 23  .0.#.........1.#
0480: 24 32 80 14 80 01 80 25  02 00 10 01 80 00 AA 04  $2.....%........
0490: 03 01 10 17 80 43 00 43  01 02 03 10 01 80 00 A7  .....C.C........
04A0: 04 1D 2D 80 23 21 00 01  AA 04 01 AD 04 01 B6 06  ..-.#!..........
04B0: 02 00 10 15 80 00 58 05  03 02 10 15 80 1D 13 80  ......X.........
04C0: 23 24 2C 80 01 80 01 80  25 02 00 10 01 80 00 DF  #$,.....%.......
04D0: 04 03 04 00 15 80 1A AF  15 01 C1 04 01 55 05 02  .............U..
04E0: 00 10 14 80 00 55 05 03  01 10 18 80 43 00 43 01  .....U......C.C.
04F0: 02 03 10 01 80 80 01 05  1D 2D 80 23 21 00 01 52  .........-.#!..R
0500: 05 02 03 10 16 80 80 10  05 1D 2E 80 23 01 52 05  ............#.R.
0510: 02 03 10 2F 80 80 1F 05  1D 30 80 23 01 52 05 03  .../.....0.#.R..
0520: 03 10 15 80 1D 31 80 23  24 32 80 14 80 01 80 25  .....1.#$2.....%
0530: 02 00 10 01 80 00 52 05  03 01 10 2F 80 43 00 43  ......R..../.C.C
0540: 01 02 03 10 01 80 00 4F  05 1D 2D 80 23 21 00 01  .......O..-.#!..
0550: 52 05 01 55 05 01 B6 06  02 00 10 16 80 00 00 06  R..U............
0560: 03 02 10 16 80 1D 13 80  23 24 2C 80 01 80 01 80  ........#$,.....
0570: 25 02 00 10 01 80 00 87  05 03 04 00 16 80 1A AF  %...............
0580: 15 01 69 05 01 FD 05 02  00 10 14 80 00 FD 05 03  ..i.............
0590: 01 10 33 80 43 00 43 01  02 03 10 01 80 80 A9 05  ..3.C.C.........
05A0: 1D 2D 80 23 21 00 01 FA  05 02 03 10 17 80 80 B8  .-.#!...........
05B0: 05 1D 2E 80 23 01 FA 05  02 03 10 2F 80 80 C7 05  ....#....../....
05C0: 1D 30 80 23 01 FA 05 03  03 10 16 80 1D 31 80 23  .0.#.........1.#
05D0: 24 32 80 14 80 01 80 25  02 00 10 01 80 00 FA 05  $2.....%........
05E0: 03 01 10 34 80 43 00 43  01 02 03 10 01 80 00 F7  ...4.C.C........
05F0: 05 1D 2D 80 23 21 00 01  FA 05 01 FD 05 01 B6 06  ..-.#!..........
0600: 02 00 10 17 80 00 A8 06  03 02 10 17 80 1D 13 80  ................
0610: 23 24 2C 80 01 80 01 80  25 02 00 10 01 80 00 2F  #$,.....%....../
0620: 06 03 04 00 17 80 1A AF  15 01 11 06 01 A5 06 02  ................
0630: 00 10 14 80 00 A5 06 03  01 10 35 80 43 00 43 01  ..........5.C.C.
0640: 02 03 10 01 80 80 51 06  1D 2D 80 23 21 00 01 A2  ......Q..-.#!...
0650: 06 02 03 10 18 80 80 60  06 1D 2E 80 23 01 A2 06  .......`....#...
0660: 02 03 10 2F 80 80 6F 06  1D 30 80 23 01 A2 06 03  .../..o..0.#....
0670: 03 10 17 80 1D 31 80 23  24 32 80 14 80 01 80 25  .....1.#$2.....%
0680: 02 00 10 01 80 00 A2 06  03 01 10 36 80 43 00 43  ...........6.C.C
0690: 01 02 03 10 01 80 00 9F  06 1D 2D 80 23 21 00 01  ..........-.#!..
06A0: A2 06 01 A5 06 01 B6 06  02 00 10 18 80 00 B6 06  ................
06B0: 01 44 03 01 B6 06 01 58  03 01 AD 15 02 00 10 14  .D.....X........
06C0: 80 00 8B 10 03 01 10 37  80 43 00 43 01 03 04 00  .......7.C.C....
06D0: 04 10 02 05 10 01 80 00  E1 06 1D 38 80 23 01 80  ...........8.#..
06E0: 10 02 05 00 01 80 00 F2  06 03 05 00 14 80 1D 39  ...............9
06F0: 80 23 03 00 00 3A 80 0F  00 00 02 10 03 01 00 3B  .#...:.........;
0700: 80 0F 01 00 03 10 03 03  00 00 00 02 04 00 14 80  ................
0710: 80 3E 07 03 02 10 3C 80  03 03 10 3D 80 03 04 10  .>....<....=....
0720: 3E 80 03 05 10 3F 80 03  06 10 40 80 03 07 10 41  >....?....@....A
0730: 80 03 08 10 42 80 03 09  10 43 80 01 0A 08 02 04  ....B....C......
0740: 00 15 80 80 71 07 03 02  10 44 80 03 03 10 45 80  ....q....D....E.
0750: 03 04 10 46 80 03 05 10  47 80 03 06 10 48 80 03  ...F....G....H..
0760: 07 10 49 80 03 08 10 4A  80 03 09 10 4B 80 01 0A  ..I....J....K...
0770: 08 02 04 00 16 80 80 A4  07 03 02 10 4C 80 03 03  ............L...
0780: 10 4D 80 03 04 10 4E 80  03 05 10 4F 80 03 06 10  .M....N....O....
0790: 50 80 03 07 10 51 80 03  08 10 52 80 03 09 10 53  P....Q....R....S
07A0: 80 01 0A 08 02 04 00 17  80 80 D7 07 03 02 10 54  ...............T
07B0: 80 03 03 10 55 80 03 04  10 56 80 03 05 10 57 80  ....U....V....W.
07C0: 03 06 10 58 80 03 07 10  59 80 03 08 10 5A 80 03  ...X....Y....Z..
07D0: 09 10 5B 80 01 0A 08 02  04 00 18 80 80 0A 08 03  ..[.............
07E0: 02 10 5C 80 03 03 10 5D  80 03 04 10 5E 80 03 05  ..\....]....^...
07F0: 10 5F 80 03 06 10 60 80  03 07 10 61 80 03 08 10  ._....`....a....
0800: 62 80 03 09 10 63 80 01  0A 08 24 64 80 01 80 03  b....c....$d....
0810: 00 25 02 00 10 01 80 00  90 08 02 04 00 14 80 80  .%..............
0820: 2A 08 03 02 10 3C 80 01  6A 08 02 04 00 15 80 80  *....<..j.......
0830: 3A 08 03 02 10 44 80 01  6A 08 02 04 00 16 80 80  :....D..j.......
0840: 4A 08 03 02 10 4C 80 01  6A 08 02 04 00 17 80 80  J....L..j.......
0850: 5A 08 03 02 10 54 80 01  6A 08 02 04 00 18 80 80  Z....T..j.......
0860: 6A 08 03 02 10 5C 80 01  6A 08 1D 65 80 23 24 66  j....\..j..e.#$f
0870: 80 14 80 01 80 25 02 00  10 01 80 00 8A 08 03 01  .....%..........
0880: 10 67 80 43 00 43 01 01  8A 08 01 C4 06 01 80 10  .g.C.C..........
0890: 02 00 10 14 80 00 0E 09  02 04 00 14 80 80 A8 08  ................
08A0: 03 02 10 3D 80 01 E8 08  02 04 00 15 80 80 B8 08  ...=............
08B0: 03 02 10 45 80 01 E8 08  02 04 00 16 80 80 C8 08  ...E............
08C0: 03 02 10 4D 80 01 E8 08  02 04 00 17 80 80 D8 08  ...M............
08D0: 03 02 10 55 80 01 E8 08  02 04 00 18 80 80 E8 08  ...U............
08E0: 03 02 10 5D 80 01 E8 08  1D 65 80 23 24 66 80 14  ...].....e.#$f..
08F0: 80 01 80 25 02 00 10 01  80 00 08 09 03 01 10 68  ...%...........h
0900: 80 43 00 43 01 01 08 09  01 C4 06 01 80 10 02 00  .C.C............
0910: 10 15 80 00 8C 09 02 04  00 14 80 80 26 09 03 02  ............&...
0920: 10 3E 80 01 66 09 02 04  00 15 80 80 36 09 03 02  .>..f.......6...
0930: 10 46 80 01 66 09 02 04  00 16 80 80 46 09 03 02  .F..f.......F...
0940: 10 4E 80 01 66 09 02 04  00 17 80 80 56 09 03 02  .N..f.......V...
0950: 10 56 80 01 66 09 02 04  00 18 80 80 66 09 03 02  .V..f.......f...
0960: 10 5E 80 01 66 09 1D 65  80 23 24 66 80 14 80 01  .^..f..e.#$f....
0970: 80 25 02 00 10 01 80 00  86 09 03 01 10 69 80 43  .%...........i.C
0980: 00 43 01 01 86 09 01 C4  06 01 80 10 02 00 10 16  .C..............
0990: 80 00 0A 0A 02 04 00 14  80 80 A4 09 03 02 10 3F  ...............?
09A0: 80 01 E4 09 02 04 00 15  80 80 B4 09 03 02 10 47  ...............G
09B0: 80 01 E4 09 02 04 00 16  80 80 C4 09 03 02 10 4F  ...............O
09C0: 80 01 E4 09 02 04 00 17  80 80 D4 09 03 02 10 57  ...............W
09D0: 80 01 E4 09 02 04 00 18  80 80 E4 09 03 02 10 5F  ..............._
09E0: 80 01 E4 09 1D 65 80 23  24 66 80 14 80 01 80 25  .....e.#$f.....%
09F0: 02 00 10 01 80 00 04 0A  03 01 10 6A 80 43 00 43  ...........j.C.C
0A00: 01 01 04 0A 01 C4 06 01  80 10 02 00 10 17 80 00  ................
0A10: 88 0A 02 04 00 14 80 80  22 0A 03 02 10 40 80 01  ........"....@..
0A20: 62 0A 02 04 00 15 80 80  32 0A 03 02 10 48 80 01  b.......2....H..
0A30: 62 0A 02 04 00 16 80 80  42 0A 03 02 10 50 80 01  b.......B....P..
0A40: 62 0A 02 04 00 17 80 80  52 0A 03 02 10 58 80 01  b.......R....X..
0A50: 62 0A 02 04 00 18 80 80  62 0A 03 02 10 60 80 01  b.......b....`..
0A60: 62 0A 1D 65 80 23 24 66  80 14 80 01 80 25 02 00  b..e.#$f.....%..
0A70: 10 01 80 00 82 0A 03 01  10 6B 80 43 00 43 01 01  .........k.C.C..
0A80: 82 0A 01 C4 06 01 80 10  02 00 10 18 80 00 06 0B  ................
0A90: 02 04 00 14 80 80 A0 0A  03 02 10 41 80 01 E0 0A  ...........A....
0AA0: 02 04 00 15 80 80 B0 0A  03 02 10 49 80 01 E0 0A  ...........I....
0AB0: 02 04 00 16 80 80 C0 0A  03 02 10 51 80 01 E0 0A  ...........Q....
0AC0: 02 04 00 17 80 80 D0 0A  03 02 10 59 80 01 E0 0A  ...........Y....
0AD0: 02 04 00 18 80 80 E0 0A  03 02 10 61 80 01 E0 0A  ...........a....
0AE0: 1D 65 80 23 24 66 80 14  80 01 80 25 02 00 10 01  .e.#$f.....%....
0AF0: 80 00 00 0B 03 01 10 6C  80 43 00 43 01 01 00 0B  .......l.C.C....
0B00: 01 C4 06 01 80 10 02 00  10 2F 80 00 84 0B 02 04  ........./......
0B10: 00 14 80 80 1E 0B 03 02  10 42 80 01 5E 0B 02 04  .........B..^...
0B20: 00 15 80 80 2E 0B 03 02  10 4A 80 01 5E 0B 02 04  .........J..^...
0B30: 00 16 80 80 3E 0B 03 02  10 52 80 01 5E 0B 02 04  ....>....R..^...
0B40: 00 17 80 80 4E 0B 03 02  10 5A 80 01 5E 0B 02 04  ....N....Z..^...
0B50: 00 18 80 80 5E 0B 03 02  10 62 80 01 5E 0B 1D 65  ....^....b..^..e
0B60: 80 23 24 66 80 14 80 01  80 25 02 00 10 01 80 00  .#$f.....%......
0B70: 7E 0B 03 01 10 6D 80 43  00 43 01 01 7E 0B 01 C4  ~....m.C.C..~...
0B80: 06 01 80 10 02 00 10 33  80 00 02 0C 02 04 00 14  .......3........
0B90: 80 80 9C 0B 03 02 10 43  80 01 DC 0B 02 04 00 15  .......C........
0BA0: 80 80 AC 0B 03 02 10 4B  80 01 DC 0B 02 04 00 16  .......K........
0BB0: 80 80 BC 0B 03 02 10 53  80 01 DC 0B 02 04 00 17  .......S........
0BC0: 80 80 CC 0B 03 02 10 5B  80 01 DC 0B 02 04 00 18  .......[........
0BD0: 80 80 DC 0B 03 02 10 63  80 01 DC 0B 1D 65 80 23  .......c.....e.#
0BE0: 24 66 80 14 80 01 80 25  02 00 10 01 80 00 FC 0B  $f.....%........
0BF0: 03 01 10 6E 80 43 00 43  01 01 FC 0B 01 C4 06 01  ...n.C.C........
0C00: 80 10 02 00 10 34 80 00  80 10 03 03 00 01 00 02  .....4..........
0C10: 04 00 14 80 80 3D 0C 03  02 10 6F 80 03 03 10 70  .....=....o....p
0C20: 80 03 04 10 71 80 03 05  10 72 80 03 06 10 73 80  ....q....r....s.
0C30: 03 07 10 74 80 03 08 10  75 80 01 F5 0C 02 04 00  ...t....u.......
0C40: 15 80 80 6B 0C 03 02 10  76 80 03 03 10 77 80 03  ...k....v....w..
0C50: 04 10 78 80 03 05 10 79  80 03 06 10 7A 80 03 07  ..x....y....z...
0C60: 10 7B 80 03 08 10 7C 80  01 F5 0C 02 04 00 16 80  .{....|.........
0C70: 80 99 0C 03 02 10 7D 80  03 03 10 7E 80 03 04 10  ......}....~....
0C80: 7F 80 03 05 10 80 80 03  06 10 81 80 03 07 10 82  ................
0C90: 80 03 08 10 83 80 01 F5  0C 02 04 00 17 80 80 C7  ................
0CA0: 0C 03 02 10 84 80 03 03  10 85 80 03 04 10 86 80  ................
0CB0: 03 05 10 87 80 03 06 10  88 80 03 07 10 89 80 03  ................
0CC0: 08 10 8A 80 01 F5 0C 02  04 00 18 80 80 F5 0C 03  ................
0CD0: 02 10 8B 80 03 03 10 8C  80 03 04 10 8D 80 03 05  ................
0CE0: 10 8E 80 03 06 10 8F 80  03 07 10 90 80 03 08 10  ................
0CF0: 91 80 01 F5 0C 24 92 80  01 80 03 00 25 02 00 10  .....$......%...
0D00: 01 80 00 7B 0D 02 04 00  14 80 80 15 0D 03 02 10  ...{............
0D10: 6F 80 01 55 0D 02 04 00  15 80 80 25 0D 03 02 10  o..U.......%....
0D20: 76 80 01 55 0D 02 04 00  16 80 80 35 0D 03 02 10  v..U.......5....
0D30: 7D 80 01 55 0D 02 04 00  17 80 80 45 0D 03 02 10  }..U.......E....
0D40: 84 80 01 55 0D 02 04 00  18 80 80 55 0D 03 02 10  ...U.......U....
0D50: 8B 80 01 55 0D 1D 65 80  23 24 66 80 14 80 01 80  ...U..e.#$f.....
0D60: 25 02 00 10 01 80 00 75  0D 03 01 10 93 80 43 00  %......u......C.
0D70: 43 01 01 75 0D 01 C4 06  01 7D 10 02 00 10 14 80  C..u.....}......
0D80: 00 F9 0D 02 04 00 14 80  80 93 0D 03 02 10 70 80  ..............p.
0D90: 01 D3 0D 02 04 00 15 80  80 A3 0D 03 02 10 77 80  ..............w.
0DA0: 01 D3 0D 02 04 00 16 80  80 B3 0D 03 02 10 7E 80  ..............~.
0DB0: 01 D3 0D 02 04 00 17 80  80 C3 0D 03 02 10 85 80  ................
0DC0: 01 D3 0D 02 04 00 18 80  80 D3 0D 03 02 10 8C 80  ................
0DD0: 01 D3 0D 1D 65 80 23 24  66 80 14 80 01 80 25 02  ....e.#$f.....%.
0DE0: 00 10 01 80 00 F3 0D 03  01 10 94 80 43 00 43 01  ............C.C.
0DF0: 01 F3 0D 01 C4 06 01 7D  10 02 00 10 15 80 00 77  .......}.......w
0E00: 0E 02 04 00 14 80 80 11  0E 03 02 10 71 80 01 51  ............q..Q
0E10: 0E 02 04 00 15 80 80 21  0E 03 02 10 78 80 01 51  .......!....x..Q
0E20: 0E 02 04 00 16 80 80 31  0E 03 02 10 7F 80 01 51  .......1.......Q
0E30: 0E 02 04 00 17 80 80 41  0E 03 02 10 86 80 01 51  .......A.......Q
0E40: 0E 02 04 00 18 80 80 51  0E 03 02 10 8D 80 01 51  .......Q.......Q
0E50: 0E 1D 65 80 23 24 66 80  14 80 01 80 25 02 00 10  ..e.#$f.....%...
0E60: 01 80 00 71 0E 03 01 10  95 80 43 00 43 01 01 71  ...q......C.C..q
0E70: 0E 01 C4 06 01 7D 10 02  00 10 16 80 00 F5 0E 02  .....}..........
0E80: 04 00 14 80 80 8F 0E 03  02 10 72 80 01 CF 0E 02  ..........r.....
0E90: 04 00 15 80 80 9F 0E 03  02 10 79 80 01 CF 0E 02  ..........y.....
0EA0: 04 00 16 80 80 AF 0E 03  02 10 80 80 01 CF 0E 02  ................
0EB0: 04 00 17 80 80 BF 0E 03  02 10 87 80 01 CF 0E 02  ................
0EC0: 04 00 18 80 80 CF 0E 03  02 10 8E 80 01 CF 0E 1D  ................
0ED0: 65 80 23 24 66 80 14 80  01 80 25 02 00 10 01 80  e.#$f.....%.....
0EE0: 00 EF 0E 03 01 10 96 80  43 00 43 01 01 EF 0E 01  ........C.C.....
0EF0: C4 06 01 7D 10 02 00 10  17 80 00 73 0F 02 04 00  ...}.......s....
0F00: 14 80 80 0D 0F 03 02 10  73 80 01 4D 0F 02 04 00  ........s..M....
0F10: 15 80 80 1D 0F 03 02 10  7A 80 01 4D 0F 02 04 00  ........z..M....
0F20: 16 80 80 2D 0F 03 02 10  81 80 01 4D 0F 02 04 00  ...-.......M....
0F30: 17 80 80 3D 0F 03 02 10  88 80 01 4D 0F 02 04 00  ...=.......M....
0F40: 18 80 80 4D 0F 03 02 10  8F 80 01 4D 0F 1D 65 80  ...M.......M..e.
0F50: 23 24 66 80 14 80 01 80  25 02 00 10 01 80 00 6D  #$f.....%......m
0F60: 0F 03 01 10 97 80 43 00  43 01 01 6D 0F 01 C4 06  ......C.C..m....
0F70: 01 7D 10 02 00 10 18 80  00 F1 0F 02 04 00 14 80  .}..............
0F80: 80 8B 0F 03 02 10 74 80  01 CB 0F 02 04 00 15 80  ......t.........
0F90: 80 9B 0F 03 02 10 7B 80  01 CB 0F 02 04 00 16 80  ......{.........
0FA0: 80 AB 0F 03 02 10 82 80  01 CB 0F 02 04 00 17 80  ................
0FB0: 80 BB 0F 03 02 10 89 80  01 CB 0F 02 04 00 18 80  ................
0FC0: 80 CB 0F 03 02 10 90 80  01 CB 0F 1D 65 80 23 24  ............e.#$
0FD0: 66 80 14 80 01 80 25 02  00 10 01 80 00 EB 0F 03  f.....%.........
0FE0: 01 10 98 80 43 00 43 01  01 EB 0F 01 C4 06 01 7D  ....C.C........}
0FF0: 10 02 00 10 2F 80 00 6F  10 02 04 00 14 80 80 09  ..../..o........
1000: 10 03 02 10 75 80 01 49  10 02 04 00 15 80 80 19  ....u..I........
1010: 10 03 02 10 7C 80 01 49  10 02 04 00 16 80 80 29  ....|..I.......)
1020: 10 03 02 10 83 80 01 49  10 02 04 00 17 80 80 39  .......I.......9
1030: 10 03 02 10 8A 80 01 49  10 02 04 00 18 80 80 49  .......I.......I
1040: 10 03 02 10 91 80 01 49  10 1D 65 80 23 24 66 80  .......I..e.#$f.
1050: 14 80 01 80 25 02 00 10  01 80 00 69 10 03 01 10  ....%......i....
1060: 99 80 43 00 43 01 01 69  10 01 C4 06 01 7D 10 02  ..C.C..i.....}..
1070: 00 10 33 80 00 7D 10 01  C4 06 01 7D 10 01 80 10  ..3..}.....}....
1080: 03 05 00 01 80 01 44 03  01 AD 15 02 00 10 15 80  ......D.........
1090: 00 9E 15 03 01 10 9A 80  43 00 43 01 02 05 10 01  ........C.C.....
10A0: 80 00 AB 10 1D 9B 80 23  01 93 15 02 05 00 01 80  .......#........
10B0: 00 BC 10 03 05 00 14 80  1D 9C 80 23 03 00 00 3A  ...........#...:
10C0: 80 0F 00 00 02 10 03 01  00 3A 80 0F 01 00 03 10  .........:......
10D0: 03 02 00 6A 80 0F 02 00  04 10 03 03 00 00 00 03  ...j............
10E0: 02 10 9D 80 03 03 10 9E  80 03 04 10 9F 80 03 05  ................
10F0: 10 A0 80 03 06 10 A1 80  03 07 10 A2 80 03 08 10  ................
1100: A3 80 03 09 10 A4 80 24  64 80 01 80 03 00 25 02  .......$d.....%.
1110: 00 10 01 80 00 42 11 03  02 10 9D 80 1D 65 80 23  .....B.......e.#
1120: 24 A5 80 14 80 01 80 25  02 00 10 01 80 00 3C 11  $......%......<.
1130: 03 01 10 A6 80 43 00 43  01 01 3C 11 01 93 10 01  .....C.C..<.....
1140: 93 15 02 00 10 14 80 00  75 11 03 02 10 9E 80 1D  ........u.......
1150: 65 80 23 24 A5 80 14 80  01 80 25 02 00 10 01 80  e.#$......%.....
1160: 00 6F 11 03 01 10 A7 80  43 00 43 01 01 6F 11 01  .o......C.C..o..
1170: 93 10 01 93 15 02 00 10  15 80 00 A8 11 03 02 10  ................
1180: 9F 80 1D 65 80 23 24 A5  80 14 80 01 80 25 02 00  ...e.#$......%..
1190: 10 01 80 00 A2 11 03 01  10 00 80 43 00 43 01 01  ...........C.C..
11A0: A2 11 01 93 10 01 93 15  02 00 10 16 80 00 DB 11  ................
11B0: 03 02 10 A0 80 1D 65 80  23 24 A5 80 14 80 01 80  ......e.#$......
11C0: 25 02 00 10 01 80 00 D5  11 03 01 10 A8 80 43 00  %.............C.
11D0: 43 01 01 D5 11 01 93 10  01 93 15 02 00 10 17 80  C...............
11E0: 00 0E 12 03 02 10 A1 80  1D 65 80 23 24 A5 80 14  .........e.#$...
11F0: 80 01 80 25 02 00 10 01  80 00 08 12 03 01 10 A9  ...%............
1200: 80 43 00 43 01 01 08 12  01 93 10 01 93 15 02 00  .C.C............
1210: 10 18 80 00 41 12 03 02  10 A2 80 1D 65 80 23 24  ....A.......e.#$
1220: A5 80 14 80 01 80 25 02  00 10 01 80 00 3B 12 03  ......%......;..
1230: 01 10 AA 80 43 00 43 01  01 3B 12 01 93 10 01 93  ....C.C..;......
1240: 15 02 00 10 2F 80 00 74  12 03 02 10 A3 80 1D 65  ..../..t.......e
1250: 80 23 24 A5 80 14 80 01  80 25 02 00 10 01 80 00  .#$......%......
1260: 6E 12 03 01 10 AB 80 43  00 43 01 01 6E 12 01 93  n......C.C..n...
1270: 10 01 93 15 02 00 10 33  80 00 A7 12 03 02 10 A4  .......3........
1280: 80 1D 65 80 23 24 A5 80  14 80 01 80 25 02 00 10  ..e.#$......%...
1290: 01 80 00 A1 12 03 01 10  AC 80 43 00 43 01 01 A1  ..........C.C...
12A0: 12 01 93 10 01 93 15 02  00 10 34 80 00 93 15 03  ..........4.....
12B0: 03 00 01 00 03 02 10 AD  80 03 03 10 AE 80 03 04  ................
12C0: 10 AF 80 03 05 10 B0 80  03 06 10 B1 80 03 07 10  ................
12D0: B2 80 03 08 10 B3 80 03  09 10 B4 80 24 B5 80 01  ............$...
12E0: 80 03 00 25 02 00 10 01  80 00 17 13 03 02 10 AD  ...%............
12F0: 80 1D 65 80 23 24 A5 80  14 80 01 80 25 02 00 10  ..e.#$......%...
1300: 01 80 00 11 13 03 01 10  B6 80 43 00 43 01 01 11  ..........C.C...
1310: 13 01 93 10 01 90 15 02  00 10 14 80 00 4A 13 03  .............J..
1320: 02 10 AE 80 1D 65 80 23  24 A5 80 14 80 01 80 25  .....e.#$......%
1330: 02 00 10 01 80 00 44 13  03 01 10 B7 80 43 00 43  ......D......C.C
1340: 01 01 44 13 01 93 10 01  90 15 02 00 10 15 80 00  ..D.............
1350: 7D 13 03 02 10 AF 80 1D  65 80 23 24 A5 80 14 80  }.......e.#$....
1360: 01 80 25 02 00 10 01 80  00 77 13 03 01 10 B8 80  ..%......w......
1370: 43 00 43 01 01 77 13 01  93 10 01 90 15 02 00 10  C.C..w..........
1380: 16 80 00 B0 13 03 02 10  B0 80 1D 65 80 23 24 A5  ...........e.#$.
1390: 80 14 80 01 80 25 02 00  10 01 80 00 AA 13 03 01  .....%..........
13A0: 10 B9 80 43 00 43 01 01  AA 13 01 93 10 01 90 15  ...C.C..........
13B0: 02 00 10 17 80 00 E3 13  03 02 10 B1 80 1D 65 80  ..............e.
13C0: 23 24 A5 80 14 80 01 80  25 02 00 10 01 80 00 DD  #$......%.......
13D0: 13 03 01 10 BA 80 43 00  43 01 01 DD 13 01 93 10  ......C.C.......
13E0: 01 90 15 02 00 10 18 80  00 16 14 03 02 10 B2 80  ................
13F0: 1D 65 80 23 24 A5 80 14  80 01 80 25 02 00 10 01  .e.#$......%....
1400: 80 00 10 14 03 01 10 BB  80 43 00 43 01 01 10 14  .........C.C....
1410: 01 93 10 01 90 15 02 00  10 2F 80 00 49 14 03 02  ........./..I...
1420: 10 B3 80 1D 65 80 23 24  A5 80 14 80 01 80 25 02  ....e.#$......%.
1430: 00 10 01 80 00 43 14 03  01 10 BC 80 43 00 43 01  .....C......C.C.
1440: 01 43 14 01 93 10 01 90  15 02 00 10 33 80 00 7C  .C..........3..|
1450: 14 03 02 10 B4 80 1D 65  80 23 24 A5 80 14 80 01  .......e.#$.....
1460: 80 25 02 00 10 01 80 00  76 14 03 01 10 BD 80 43  .%......v......C
1470: 00 43 01 01 76 14 01 93  10 01 90 15 02 00 10 34  .C..v..........4
1480: 80 00 82 15 03 03 00 02  00 03 02 10 BE 80 03 03  ................
1490: 10 BF 80 03 04 10 C0 80  03 05 10 C1 80 24 C2 80  .............$..
14A0: 01 80 03 00 25 02 00 10  01 80 00 D8 14 03 02 10  ....%...........
14B0: BE 80 1D 65 80 23 24 A5  80 14 80 01 80 25 02 00  ...e.#$......%..
14C0: 10 01 80 00 D2 14 03 01  10 C3 80 43 00 43 01 01  ...........C.C..
14D0: D2 14 01 93 10 01 7F 15  02 00 10 14 80 00 0B 15  ................
14E0: 03 02 10 BF 80 1D 65 80  23 24 A5 80 14 80 01 80  ......e.#$......
14F0: 25 02 00 10 01 80 00 05  15 03 01 10 C4 80 43 00  %.............C.
1500: 43 01 01 05 15 01 93 10  01 7F 15 02 00 10 15 80  C...............
1510: 00 3E 15 03 02 10 C0 80  1D 65 80 23 24 A5 80 14  .>.......e.#$...
1520: 80 01 80 25 02 00 10 01  80 00 38 15 03 01 10 C5  ...%......8.....
1530: 80 43 00 43 01 01 38 15  01 93 10 01 7F 15 02 00  .C.C..8.........
1540: 10 16 80 00 71 15 03 02  10 C1 80 1D 65 80 23 24  ....q.......e.#$
1550: A5 80 14 80 01 80 25 02  00 10 01 80 00 6B 15 03  ......%......k..
1560: 01 10 C6 80 43 00 43 01  01 6B 15 01 93 10 01 7F  ....C.C..k......
1570: 15 02 00 10 17 80 00 7F  15 01 AF 12 01 7F 15 01  ................
1580: 90 15 02 00 10 35 80 00  90 15 01 93 10 01 90 15  .....5..........
1590: 01 93 15 03 05 00 01 80  01 44 03 01 AD 15 02 00  .........D......
15A0: 10 16 80 00 AD 15 1D C7  80 23 01 AD 15 21 00 24  .........#...!.$
15B0: C8 80 01 80 01 80 25 02  00 10 01 80 00 F8 16 02  ......%.........
15C0: 04 00 01 80 80 FD 15 03  02 10 3C 80 03 03 10 3D  ..........<....=
15D0: 80 03 04 10 3E 80 66 01  80 F8 FF FF 7F F8 FF FF  ....>.f.........
15E0: 7F 74 6C 6B 30 1D C9 80  23 03 02 10 CA 80 03 03  .tlk0...#.......
15F0: 10 CB 80 1D CC 80 23 93  CD 80 01 F5 16 02 04 00  ......#.........
1600: 14 80 80 3B 16 03 02 10  44 80 03 03 10 45 80 03  ...;....D....E..
1610: 04 10 46 80 66 01 80 F8  FF FF 7F F8 FF FF 7F 74  ..F.f..........t
1620: 6C 6B 30 1D C9 80 23 03  02 10 CA 80 03 03 10 CB  lk0...#.........
1630: 80 1D CC 80 23 93 CE 80  01 F5 16 02 04 00 15 80  ....#...........
1640: 80 79 16 03 02 10 4C 80  03 03 10 4D 80 03 04 10  .y....L....M....
1650: 4E 80 66 01 80 F8 FF FF  7F F8 FF FF 7F 74 6C 6B  N.f..........tlk
1660: 30 1D C9 80 23 03 02 10  CA 80 03 03 10 CB 80 1D  0...#...........
1670: CC 80 23 93 CF 80 01 F5  16 02 04 00 16 80 80 B7  ..#.............
1680: 16 03 02 10 54 80 03 03  10 55 80 03 04 10 56 80  ....T....U....V.
1690: 66 01 80 F8 FF FF 7F F8  FF FF 7F 74 6C 6B 30 1D  f..........tlk0.
16A0: C9 80 23 03 02 10 CA 80  03 03 10 CB 80 1D CC 80  ..#.............
16B0: 23 93 D0 80 01 F5 16 02  04 00 17 80 80 F5 16 03  #...............
16C0: 02 10 5C 80 03 03 10 5D  80 03 04 10 5E 80 66 01  ..\....]....^.f.
16D0: 80 F8 FF FF 7F F8 FF FF  7F 74 6C 6B 30 1D C9 80  .........tlk0...
16E0: 23 03 02 10 CA 80 03 03  10 CB 80 1D CC 80 23 93  #.............#.
16F0: D1 80 01 F5 16 01 08 1C  02 00 10 14 80 00 39 18  ..............9.
1700: 02 04 00 01 80 80 3E 17  03 02 10 3F 80 03 03 10  ......>....?....
1710: 40 80 03 04 10 41 80 66  01 80 F8 FF FF 7F F8 FF  @....A.f........
1720: FF 7F 74 6C 6B 30 1D C9  80 23 03 02 10 D2 80 03  ..tlk0...#......
1730: 03 10 CB 80 1D CC 80 23  93 D3 80 01 36 18 02 04  .......#....6...
1740: 00 14 80 80 7C 17 03 02  10 47 80 03 03 10 48 80  ....|....G....H.
1750: 03 04 10 49 80 66 01 80  F8 FF FF 7F F8 FF FF 7F  ...I.f..........
1760: 74 6C 6B 30 1D C9 80 23  03 02 10 D2 80 03 03 10  tlk0...#........
1770: CB 80 1D CC 80 23 93 D4  80 01 36 18 02 04 00 15  .....#....6.....
1780: 80 80 BA 17 03 02 10 4F  80 03 03 10 50 80 03 04  .......O....P...
1790: 10 51 80 66 01 80 F8 FF  FF 7F F8 FF FF 7F 74 6C  .Q.f..........tl
17A0: 6B 30 1D C9 80 23 03 02  10 D2 80 03 03 10 CB 80  k0...#..........
17B0: 1D CC 80 23 93 D5 80 01  36 18 02 04 00 16 80 80  ...#....6.......
17C0: F8 17 03 02 10 57 80 03  03 10 58 80 03 04 10 59  .....W....X....Y
17D0: 80 66 01 80 F8 FF FF 7F  F8 FF FF 7F 74 6C 6B 30  .f..........tlk0
17E0: 1D C9 80 23 03 02 10 D2  80 03 03 10 CB 80 1D CC  ...#............
17F0: 80 23 93 D6 80 01 36 18  02 04 00 17 80 80 36 18  .#....6.......6.
1800: 03 02 10 5F 80 03 03 10  60 80 03 04 10 61 80 66  ..._....`....a.f
1810: 01 80 F8 FF FF 7F F8 FF  FF 7F 74 6C 6B 30 1D C9  ..........tlk0..
1820: 80 23 03 02 10 D2 80 03  03 10 CB 80 1D CC 80 23  .#.............#
1830: 93 D7 80 01 36 18 01 08  1C 02 00 10 15 80 00 7A  ....6..........z
1840: 19 02 04 00 01 80 80 7F  18 03 02 10 42 80 03 03  ............B...
1850: 10 43 80 03 04 10 6F 80  66 01 80 F8 FF FF 7F F8  .C....o.f.......
1860: FF FF 7F 74 6C 6B 30 1D  C9 80 23 03 02 10 D8 80  ...tlk0...#.....
1870: 03 03 10 CB 80 1D CC 80  23 93 D9 80 01 77 19 02  ........#....w..
1880: 04 00 14 80 80 BD 18 03  02 10 4A 80 03 03 10 4B  ..........J....K
1890: 80 03 04 10 76 80 66 01  80 F8 FF FF 7F F8 FF FF  ....v.f.........
18A0: 7F 74 6C 6B 30 1D C9 80  23 03 02 10 D8 80 03 03  .tlk0...#.......
18B0: 10 CB 80 1D CC 80 23 93  DA 80 01 77 19 02 04 00  ......#....w....
18C0: 15 80 80 FB 18 03 02 10  52 80 03 03 10 53 80 03  ........R....S..
18D0: 04 10 7D 80 66 01 80 F8  FF FF 7F F8 FF FF 7F 74  ..}.f..........t
18E0: 6C 6B 30 1D C9 80 23 03  02 10 D8 80 03 03 10 CB  lk0...#.........
18F0: 80 1D CC 80 23 93 DB 80  01 77 19 02 04 00 16 80  ....#....w......
1900: 80 39 19 03 02 10 5A 80  03 03 10 5B 80 03 04 10  .9....Z....[....
1910: 84 80 66 01 80 F8 FF FF  7F F8 FF FF 7F 74 6C 6B  ..f..........tlk
1920: 30 1D C9 80 23 03 02 10  D8 80 03 03 10 CB 80 1D  0...#...........
1930: CC 80 23 93 DC 80 01 77  19 02 04 00 17 80 80 77  ..#....w.......w
1940: 19 03 02 10 62 80 03 03  10 63 80 03 04 10 8B 80  ....b....c......
1950: 66 01 80 F8 FF FF 7F F8  FF FF 7F 74 6C 6B 30 1D  f..........tlk0.
1960: C9 80 23 03 02 10 D8 80  03 03 10 CB 80 1D CC 80  ..#.............
1970: 23 93 DD 80 01 77 19 01  08 1C 02 00 10 16 80 00  #....w..........
1980: BB 1A 02 04 00 01 80 80  C0 19 03 02 10 70 80 03  .............p..
1990: 03 10 71 80 03 04 10 72  80 66 01 80 F8 FF FF 7F  ..q....r.f......
19A0: F8 FF FF 7F 74 6C 6B 30  1D C9 80 23 03 02 10 DE  ....tlk0...#....
19B0: 80 03 03 10 CB 80 1D CC  80 23 93 DF 80 01 B8 1A  .........#......
19C0: 02 04 00 14 80 80 FE 19  03 02 10 77 80 03 03 10  ...........w....
19D0: 78 80 03 04 10 79 80 66  01 80 F8 FF FF 7F F8 FF  x....y.f........
19E0: FF 7F 74 6C 6B 30 1D C9  80 23 03 02 10 DE 80 03  ..tlk0...#......
19F0: 03 10 CB 80 1D CC 80 23  93 E0 80 01 B8 1A 02 04  .......#........
1A00: 00 15 80 80 3C 1A 03 02  10 7E 80 03 03 10 7F 80  ....<....~......
1A10: 03 04 10 80 80 66 01 80  F8 FF FF 7F F8 FF FF 7F  .....f..........
1A20: 74 6C 6B 30 1D C9 80 23  03 02 10 DE 80 03 03 10  tlk0...#........
1A30: CB 80 1D CC 80 23 93 E1  80 01 B8 1A 02 04 00 16  .....#..........
1A40: 80 80 7A 1A 03 02 10 85  80 03 03 10 86 80 03 04  ..z.............
1A50: 10 87 80 66 01 80 F8 FF  FF 7F F8 FF FF 7F 74 6C  ...f..........tl
1A60: 6B 30 1D C9 80 23 03 02  10 DE 80 03 03 10 CB 80  k0...#..........
1A70: 1D CC 80 23 93 E2 80 01  B8 1A 02 04 00 17 80 80  ...#............
1A80: B8 1A 03 02 10 8C 80 03  03 10 8D 80 03 04 10 8E  ................
1A90: 80 66 01 80 F8 FF FF 7F  F8 FF FF 7F 74 6C 6B 30  .f..........tlk0
1AA0: 1D C9 80 23 03 02 10 DE  80 03 03 10 CB 80 1D CC  ...#............
1AB0: 80 23 93 E3 80 01 B8 1A  01 08 1C 02 00 10 17 80  .#..............
1AC0: 00 FC 1B 02 04 00 01 80  80 01 1B 03 02 10 73 80  ..............s.
1AD0: 03 03 10 74 80 03 04 10  75 80 66 01 80 F8 FF FF  ...t....u.f.....
1AE0: 7F F8 FF FF 7F 74 6C 6B  30 1D C9 80 23 03 02 10  .....tlk0...#...
1AF0: E4 80 03 03 10 CB 80 1D  CC 80 23 93 E5 80 01 F9  ..........#.....
1B00: 1B 02 04 00 14 80 80 3F  1B 03 02 10 7A 80 03 03  .......?....z...
1B10: 10 7B 80 03 04 10 7C 80  66 01 80 F8 FF FF 7F F8  .{....|.f.......
1B20: FF FF 7F 74 6C 6B 30 1D  C9 80 23 03 02 10 E4 80  ...tlk0...#.....
1B30: 03 03 10 CB 80 1D CC 80  23 93 E6 80 01 F9 1B 02  ........#.......
1B40: 04 00 15 80 80 7D 1B 03  02 10 81 80 03 03 10 82  .....}..........
1B50: 80 03 04 10 83 80 66 01  80 F8 FF FF 7F F8 FF FF  ......f.........
1B60: 7F 74 6C 6B 30 1D C9 80  23 03 02 10 E4 80 03 03  .tlk0...#.......
1B70: 10 CB 80 1D CC 80 23 93  E7 80 01 F9 1B 02 04 00  ......#.........
1B80: 16 80 80 BB 1B 03 02 10  88 80 03 03 10 89 80 03  ................
1B90: 04 10 8A 80 66 01 80 F8  FF FF 7F F8 FF FF 7F 74  ....f..........t
1BA0: 6C 6B 30 1D C9 80 23 03  02 10 E4 80 03 03 10 CB  lk0...#.........
1BB0: 80 1D CC 80 23 93 E8 80  01 F9 1B 02 04 00 17 80  ....#...........
1BC0: 80 F9 1B 03 02 10 8F 80  03 03 10 90 80 03 04 10  ................
1BD0: 91 80 66 01 80 F8 FF FF  7F F8 FF FF 7F 74 6C 6B  ..f..........tlk
1BE0: 30 1D C9 80 23 03 02 10  E4 80 03 03 10 CB 80 1D  0...#...........
1BF0: CC 80 23 93 E9 80 01 F9  1B 01 08 1C 02 00 10 18  ..#.............
1C00: 80 00 08 1C 1B 01 08 1C  66 01 80 F8 FF FF 7F F8  ........f.......
1C10: FF FF 7F 74 65 6E 30 1D  EA 80 23 93 01 80 01 AF  ...ten0...#.....
1C20: 15 1B                                             ..              
```

#### Opcodes

```
  0: 0x032E [0x03] ExtData[1]->WorkLocal[5] = 0*
  1: 0x0333 [0x03] Work_Zone[1] = 0*
  2: 0x0338 [0x1E] EventEntity looks at LocalPlayer and starts talking
  3: 0x033D [0x1C] WAIT(30* ticks)
  4: 0x0340 [0x1D] PRINT_EVENT_MESSAGE(message_id=7047*)
    → "Ah, you have returned.\u007F1\u0000\u0007"
  5: 0x0343 [0x23] WAIT_FOR_DIALOG_INTERACTION
  6: 0x0344 [0x24] CREATE_DIALOG(message_id=7048*, default_option=0*, option_flags=0*)
    → "What would you wish of me?\u0007\u000BChoose armor set.\u0007Retrieve armor.\u0007Retrieve weapon.\u0007Nothing.\u007F1\u0000\u0007"
  7: 0x034B [0x25] WAIT_DIALOG_SELECT()
  8: 0x034C [0x02] IF !(Work_Zone[0] == 0*) GOTO 0x06BC
  9: 0x0354 [0x1D] PRINT_EVENT_MESSAGE(message_id=7049*)
    → "Which set of armor do you have your eye on?\u007F1\u0000\u0007"
 10: 0x0357 [0x23] WAIT_FOR_DIALOG_INTERACTION
 11: 0x0358 [0x24] CREATE_DIALOG(message_id=7050*, default_option=0*, option_flags=0*)
    → "Which do you choose?\u0007\u000BAres Plate Armor.\u0007Skadi Leather Armor.\u0007Usukane Armor.\u0007Marduk Jubbah.\u0007Morrigan Robe.\u0007None.\u007F1\u0000\u0007"
 12: 0x035F [0x25] WAIT_DIALOG_SELECT()
 13: 0x0360 [0x02] IF !(Work_Zone[0] == 0*) GOTO 0x0408
 14: 0x0368 [0x03] Work_Zone[2] = 0*
 15: 0x036D [0x1D] PRINT_EVENT_MESSAGE(message_id=7029*)
    → "Ah, so the \u000C\u0000[Ares Plate Armor/Skadi Leather Armor/Usukane Armor/Marduk Jubbah/Morrigan Robe] has caught your eye. Would you like to hear more about the separate parts of the armor?\u007F1\u0000\u0007"
 16: 0x0370 [0x23] WAIT_FOR_DIALOG_INTERACTION
 17: 0x0371 [0x24] CREATE_DIALOG(message_id=7051*, default_option=0*, option_flags=0*)
    → "Have you decided?\u0007\u000BAsk about the parts.\u0007This is the one.\u0007Not yet.\u007F1\u0000\u0007"
 18: 0x0378 [0x25] WAIT_DIALOG_SELECT()
 19: 0x0379 [0x02] IF !(Work_Zone[0] == 0*) GOTO 0x038F
 20: 0x0381 [0x03] ExtData[1]->WorkLocal[4] = 0*
 21: 0x0386 [0x1A] CALL_SUBROUTINE(address=0x15AF)
 22: 0x0389 [0x01] GOTO 0x0371

SUBROUTINE_0402:
 23: 0x0402 [0x01] GOTO 0x0405

SUBROUTINE_0405:
 24: 0x0405 [0x01] GOTO 0x06B6
 25: 0x0408 [0x02] IF !(Work_Zone[0] == 1*) GOTO 0x04B0
 26: 0x0410 [0x03] Work_Zone[2] = 1*
 27: 0x0415 [0x1D] PRINT_EVENT_MESSAGE(message_id=7029*)
    → "Ah, so the \u000C\u0000[Ares Plate Armor/Skadi Leather Armor/Usukane Armor/Marduk Jubbah/Morrigan Robe] has caught your eye. Would you like to hear more about the separate parts of the armor?\u007F1\u0000\u0007"
 28: 0x0418 [0x23] WAIT_FOR_DIALOG_INTERACTION

SUBROUTINE_0419:
 29: 0x0419 [0x24] CREATE_DIALOG(message_id=7051*, default_option=0*, option_flags=0*)
    → "Have you decided?\u0007\u000BAsk about the parts.\u0007This is the one.\u0007Not yet.\u007F1\u0000\u0007"
 30: 0x0420 [0x25] WAIT_DIALOG_SELECT()
 31: 0x0421 [0x02] IF !(Work_Zone[0] == 0*) GOTO 0x0437
 32: 0x0429 [0x03] ExtData[1]->WorkLocal[4] = 1*
 33: 0x042E [0x1A] CALL_SUBROUTINE(address=0x15AF)
 34: 0x0431 [0x01] GOTO 0x0419

SUBROUTINE_04AA:
 35: 0x04AA [0x01] GOTO 0x04AD

SUBROUTINE_04AD:
 36: 0x04AD [0x01] GOTO 0x06B6
 37: 0x04B0 [0x02] IF !(Work_Zone[0] == 2*) GOTO 0x0558
 38: 0x04B8 [0x03] Work_Zone[2] = 2*
 39: 0x04BD [0x1D] PRINT_EVENT_MESSAGE(message_id=7029*)
    → "Ah, so the \u000C\u0000[Ares Plate Armor/Skadi Leather Armor/Usukane Armor/Marduk Jubbah/Morrigan Robe] has caught your eye. Would you like to hear more about the separate parts of the armor?\u007F1\u0000\u0007"
 40: 0x04C0 [0x23] WAIT_FOR_DIALOG_INTERACTION

SUBROUTINE_04C1:
 41: 0x04C1 [0x24] CREATE_DIALOG(message_id=7051*, default_option=0*, option_flags=0*)
    → "Have you decided?\u0007\u000BAsk about the parts.\u0007This is the one.\u0007Not yet.\u007F1\u0000\u0007"
 42: 0x04C8 [0x25] WAIT_DIALOG_SELECT()
 43: 0x04C9 [0x02] IF !(Work_Zone[0] == 0*) GOTO 0x04DF
 44: 0x04D1 [0x03] ExtData[1]->WorkLocal[4] = 2*
 45: 0x04D6 [0x1A] CALL_SUBROUTINE(address=0x15AF)
 46: 0x04D9 [0x01] GOTO 0x04C1

SUBROUTINE_0552:
 47: 0x0552 [0x01] GOTO 0x0555

SUBROUTINE_0555:
 48: 0x0555 [0x01] GOTO 0x06B6
 49: 0x0558 [0x02] IF !(Work_Zone[0] == 3*) GOTO 0x0600
 50: 0x0560 [0x03] Work_Zone[2] = 3*
 51: 0x0565 [0x1D] PRINT_EVENT_MESSAGE(message_id=7029*)
    → "Ah, so the \u000C\u0000[Ares Plate Armor/Skadi Leather Armor/Usukane Armor/Marduk Jubbah/Morrigan Robe] has caught your eye. Would you like to hear more about the separate parts of the armor?\u007F1\u0000\u0007"
 52: 0x0568 [0x23] WAIT_FOR_DIALOG_INTERACTION

SUBROUTINE_0569:
 53: 0x0569 [0x24] CREATE_DIALOG(message_id=7051*, default_option=0*, option_flags=0*)
    → "Have you decided?\u0007\u000BAsk about the parts.\u0007This is the one.\u0007Not yet.\u007F1\u0000\u0007"
 54: 0x0570 [0x25] WAIT_DIALOG_SELECT()
 55: 0x0571 [0x02] IF !(Work_Zone[0] == 0*) GOTO 0x0587
 56: 0x0579 [0x03] ExtData[1]->WorkLocal[4] = 3*
 57: 0x057E [0x1A] CALL_SUBROUTINE(address=0x15AF)
 58: 0x0581 [0x01] GOTO 0x0569

SUBROUTINE_05FA:
 59: 0x05FA [0x01] GOTO 0x05FD

SUBROUTINE_05FD:
 60: 0x05FD [0x01] GOTO 0x06B6
 61: 0x0600 [0x02] IF !(Work_Zone[0] == 4*) GOTO 0x06A8
 62: 0x0608 [0x03] Work_Zone[2] = 4*
 63: 0x060D [0x1D] PRINT_EVENT_MESSAGE(message_id=7029*)
    → "Ah, so the \u000C\u0000[Ares Plate Armor/Skadi Leather Armor/Usukane Armor/Marduk Jubbah/Morrigan Robe] has caught your eye. Would you like to hear more about the separate parts of the armor?\u007F1\u0000\u0007"
 64: 0x0610 [0x23] WAIT_FOR_DIALOG_INTERACTION

SUBROUTINE_0611:
 65: 0x0611 [0x24] CREATE_DIALOG(message_id=7051*, default_option=0*, option_flags=0*)
    → "Have you decided?\u0007\u000BAsk about the parts.\u0007This is the one.\u0007Not yet.\u007F1\u0000\u0007"
 66: 0x0618 [0x25] WAIT_DIALOG_SELECT()
 67: 0x0619 [0x02] IF !(Work_Zone[0] == 0*) GOTO 0x062F
 68: 0x0621 [0x03] ExtData[1]->WorkLocal[4] = 4*
 69: 0x0626 [0x1A] CALL_SUBROUTINE(address=0x15AF)
 70: 0x0629 [0x01] GOTO 0x0611

SUBROUTINE_06A2:
 71: 0x06A2 [0x01] GOTO 0x06A5

SUBROUTINE_06A5:
 72: 0x06A5 [0x01] GOTO 0x06B6
 73: 0x06A8 [0x02] IF !(Work_Zone[0] == 5*) GOTO 0x06B6
 74: 0x06B0 [0x01] GOTO 0x0344

SUBROUTINE_06B6:
 75: 0x06B6 [0x01] GOTO 0x0358

SUBROUTINE_06C4:
 76: 0x06C4 [0x03] Work_Zone[1] = 11*
 77: 0x06C9 [0x43] SEND_EVENT_UPDATE: Send pending tag to server (packet 0x005B)
 78: 0x06CB [0x43] SEND_EVENT_UPDATE: Check pending flag (skip if not pending)
 79: 0x06CD [0x03] ExtData[1]->WorkLocal[4] = Work_Zone[4]
 80: 0x06D2 [0x02] IF !(Work_Zone[5] == 0*) GOTO 0x06E1
 81: 0x06DA [0x1D] PRINT_EVENT_MESSAGE(message_id=7062*)
    → "My gallery is currently a barren space of wasted potential...\u0007Not a piece of armor in sight...\u007F1\u0000\u0007"
 82: 0x06DD [0x23] WAIT_FOR_DIALOG_INTERACTION
 83: 0x06DE [0x01] GOTO 0x1080
 84: 0x06E1 [0x02] IF !(ExtData[1]->WorkLocal[5] == 0*) GOTO 0x06F2
 85: 0x06E9 [0x03] ExtData[1]->WorkLocal[5] = 1*
 86: 0x06EE [0x1D] PRINT_EVENT_MESSAGE(message_id=7063*)
    → "You...want your armor back?\u007F1\u0000\u0007"
 87: 0x06F1 [0x23] WAIT_FOR_DIALOG_INTERACTION
 88: 0x06F2 [0x03] ExtData[1]->WorkLocal[0] = 255*
 89: 0x06F7 [0x0F] ExtData[1]->WorkLocal[0] ^= Work_Zone[2]
 90: 0x06FC [0x03] ExtData[1]->WorkLocal[1] = 127*
 91: 0x0701 [0x0F] ExtData[1]->WorkLocal[1] ^= Work_Zone[3]
 92: 0x0706 [0x03] ExtData[1]->WorkLocal[3] = ExtData[1]->WorkLocal[0]
 93: 0x070B [0x02] IF !(ExtData[1]->WorkLocal[4] == 1*) GOTO 0x073E
 94: 0x0713 [0x03] Work_Zone[2] = 16085*
 95: 0x0718 [0x03] Work_Zone[3] = 16086*
 96: 0x071D [0x03] Work_Zone[4] = 16087*
 97: 0x0722 [0x03] Work_Zone[5] = 14547*
 98: 0x0727 [0x03] Work_Zone[6] = 14548*
 99: 0x072C [0x03] Work_Zone[7] = 14549*
100: 0x0731 [0x03] Work_Zone[8] = 14962*
101: 0x0736 [0x03] Work_Zone[9] = 14963*
102: 0x073B [0x01] GOTO 0x080A
103: 0x073E [0x02] IF !(ExtData[1]->WorkLocal[4] == 2*) GOTO 0x0771
104: 0x0746 [0x03] Work_Zone[2] = 16089*
105: 0x074B [0x03] Work_Zone[3] = 16090*
106: 0x0750 [0x03] Work_Zone[4] = 16091*
107: 0x0755 [0x03] Work_Zone[5] = 14551*
108: 0x075A [0x03] Work_Zone[6] = 14552*
109: 0x075F [0x03] Work_Zone[7] = 14553*
110: 0x0764 [0x03] Work_Zone[8] = 14966*
111: 0x0769 [0x03] Work_Zone[9] = 14967*
112: 0x076E [0x01] GOTO 0x080A
113: 0x0771 [0x02] IF !(ExtData[1]->WorkLocal[4] == 3*) GOTO 0x07A4
114: 0x0779 [0x03] Work_Zone[2] = 16093*
115: 0x077E [0x03] Work_Zone[3] = 16094*
116: 0x0783 [0x03] Work_Zone[4] = 16095*
117: 0x0788 [0x03] Work_Zone[5] = 14555*
118: 0x078D [0x03] Work_Zone[6] = 14556*
119: 0x0792 [0x03] Work_Zone[7] = 14557*
120: 0x0797 [0x03] Work_Zone[8] = 14970*
121: 0x079C [0x03] Work_Zone[9] = 14971*
122: 0x07A1 [0x01] GOTO 0x080A
123: 0x07A4 [0x02] IF !(ExtData[1]->WorkLocal[4] == 4*) GOTO 0x07D7
124: 0x07AC [0x03] Work_Zone[2] = 16097*
125: 0x07B1 [0x03] Work_Zone[3] = 16098*
126: 0x07B6 [0x03] Work_Zone[4] = 16099*
127: 0x07BB [0x03] Work_Zone[5] = 14559*
128: 0x07C0 [0x03] Work_Zone[6] = 14560*
129: 0x07C5 [0x03] Work_Zone[7] = 14561*
130: 0x07CA [0x03] Work_Zone[8] = 14974*
131: 0x07CF [0x03] Work_Zone[9] = 14975*
132: 0x07D4 [0x01] GOTO 0x080A
133: 0x07D7 [0x02] IF !(ExtData[1]->WorkLocal[4] == 5*) GOTO 0x080A
134: 0x07DF [0x03] Work_Zone[2] = 16101*
135: 0x07E4 [0x03] Work_Zone[3] = 16102*
136: 0x07E9 [0x03] Work_Zone[4] = 16103*
137: 0x07EE [0x03] Work_Zone[5] = 14563*
138: 0x07F3 [0x03] Work_Zone[6] = 14564*
139: 0x07F8 [0x03] Work_Zone[7] = 14565*
140: 0x07FD [0x03] Work_Zone[8] = 14978*
141: 0x0802 [0x03] Work_Zone[9] = 14979*
142: 0x0807 [0x01] GOTO 0x080A

SUBROUTINE_080A:
143: 0x080A [0x24] CREATE_DIALOG(message_id=7064*, default_option=0*, option_flags=ExtData[1]->WorkLocal[3])
    → "Which do you want back?\u0007\u000B\u007F\u0000\u0001\u0001\u0005#\u0002\u0000\u0000\u0000\u0007\u007F\u0000\u0001\u0001\u0005#\u0002\u0001\u0000\u0000\u0007\u007F\u0000\u0001\u0001\u0005#\u0002\u0002\u0000\u0000\u0007\u007F\u0000\u0001\u0001\u0005#\u0002\u0003\u0000\u0000\u0007\u007F\u0000\u0001\u0001\u0005#\u0002\u0004\u0000\u0000\u0007\u007F\u0000\u0001\u0001\u0005#\u0002\u0005\u0000\u0000\u0007\u007F\u0000\u0001\u0001\u0005#\u0002\u0006\u0000\u0000\u0007\u007F\u0000\u0001\u0001\u0005#\u0002\u0007\u0000\u0000\u0007Next page.\u0007None.\u007F1\u0000\u0007"
144: 0x0811 [0x25] WAIT_DIALOG_SELECT()
145: 0x0812 [0x02] IF !(Work_Zone[0] == 0*) GOTO 0x0890
146: 0x081A [0x02] IF !(ExtData[1]->WorkLocal[4] == 1*) GOTO 0x082A
147: 0x0822 [0x03] Work_Zone[2] = 16085*
148: 0x0827 [0x01] GOTO 0x086A
149: 0x082A [0x02] IF !(ExtData[1]->WorkLocal[4] == 2*) GOTO 0x083A
150: 0x0832 [0x03] Work_Zone[2] = 16089*
151: 0x0837 [0x01] GOTO 0x086A
152: 0x083A [0x02] IF !(ExtData[1]->WorkLocal[4] == 3*) GOTO 0x084A
153: 0x0842 [0x03] Work_Zone[2] = 16093*
154: 0x0847 [0x01] GOTO 0x086A
155: 0x084A [0x02] IF !(ExtData[1]->WorkLocal[4] == 4*) GOTO 0x085A
156: 0x0852 [0x03] Work_Zone[2] = 16097*
157: 0x0857 [0x01] GOTO 0x086A
158: 0x085A [0x02] IF !(ExtData[1]->WorkLocal[4] == 5*) GOTO 0x086A
159: 0x0862 [0x03] Work_Zone[2] = 16101*
160: 0x0867 [0x01] GOTO 0x086A

SUBROUTINE_086A:
161: 0x086A [0x1D] PRINT_EVENT_MESSAGE(message_id=7066*)
    → "You wish me to return the \u0001\u0005#\u0002\u0000\u0000\u0000...?\u007F1\u0000\u0007"
162: 0x086D [0x23] WAIT_FOR_DIALOG_INTERACTION
163: 0x086E [0x24] CREATE_DIALOG(message_id=7067*, default_option=1*, option_flags=0*)
    → "This is the armor you wish returned?\u0007\u000BThis is it.\u0007No, not this.\u007F1\u0000\u0007"
164: 0x0875 [0x25] WAIT_DIALOG_SELECT()
165: 0x0876 [0x02] IF !(Work_Zone[0] == 0*) GOTO 0x088A
166: 0x087E [0x03] Work_Zone[1] = 12*
167: 0x0883 [0x43] SEND_EVENT_UPDATE: Send pending tag to server (packet 0x005B)
168: 0x0885 [0x43] SEND_EVENT_UPDATE: Check pending flag (skip if not pending)
169: 0x0887 [0x01] GOTO 0x088A

SUBROUTINE_088A:
170: 0x088A [0x01] GOTO 0x06C4

SUBROUTINE_08E8:
171: 0x08E8 [0x1D] PRINT_EVENT_MESSAGE(message_id=7066*)
    → "You wish me to return the \u0001\u0005#\u0002\u0000\u0000\u0000...?\u007F1\u0000\u0007"
172: 0x08EB [0x23] WAIT_FOR_DIALOG_INTERACTION
173: 0x08EC [0x24] CREATE_DIALOG(message_id=7067*, default_option=1*, option_flags=0*)
    → "This is the armor you wish returned?\u0007\u000BThis is it.\u0007No, not this.\u007F1\u0000\u0007"
174: 0x08F3 [0x25] WAIT_DIALOG_SELECT()
175: 0x08F4 [0x02] IF !(Work_Zone[0] == 0*) GOTO 0x0908
176: 0x08FC [0x03] Work_Zone[1] = 13*
177: 0x0901 [0x43] SEND_EVENT_UPDATE: Send pending tag to server (packet 0x005B)
178: 0x0903 [0x43] SEND_EVENT_UPDATE: Check pending flag (skip if not pending)
179: 0x0905 [0x01] GOTO 0x0908

SUBROUTINE_0908:
180: 0x0908 [0x01] GOTO 0x06C4

SUBROUTINE_0966:
181: 0x0966 [0x1D] PRINT_EVENT_MESSAGE(message_id=7066*)
    → "You wish me to return the \u0001\u0005#\u0002\u0000\u0000\u0000...?\u007F1\u0000\u0007"
182: 0x0969 [0x23] WAIT_FOR_DIALOG_INTERACTION
183: 0x096A [0x24] CREATE_DIALOG(message_id=7067*, default_option=1*, option_flags=0*)
    → "This is the armor you wish returned?\u0007\u000BThis is it.\u0007No, not this.\u007F1\u0000\u0007"
184: 0x0971 [0x25] WAIT_DIALOG_SELECT()
185: 0x0972 [0x02] IF !(Work_Zone[0] == 0*) GOTO 0x0986
186: 0x097A [0x03] Work_Zone[1] = 14*
187: 0x097F [0x43] SEND_EVENT_UPDATE: Send pending tag to server (packet 0x005B)
188: 0x0981 [0x43] SEND_EVENT_UPDATE: Check pending flag (skip if not pending)
189: 0x0983 [0x01] GOTO 0x0986

SUBROUTINE_0986:
190: 0x0986 [0x01] GOTO 0x06C4

SUBROUTINE_09E4:
191: 0x09E4 [0x1D] PRINT_EVENT_MESSAGE(message_id=7066*)
    → "You wish me to return the \u0001\u0005#\u0002\u0000\u0000\u0000...?\u007F1\u0000\u0007"
192: 0x09E7 [0x23] WAIT_FOR_DIALOG_INTERACTION
193: 0x09E8 [0x24] CREATE_DIALOG(message_id=7067*, default_option=1*, option_flags=0*)
    → "This is the armor you wish returned?\u0007\u000BThis is it.\u0007No, not this.\u007F1\u0000\u0007"
194: 0x09EF [0x25] WAIT_DIALOG_SELECT()
195: 0x09F0 [0x02] IF !(Work_Zone[0] == 0*) GOTO 0x0A04
196: 0x09F8 [0x03] Work_Zone[1] = 15*
197: 0x09FD [0x43] SEND_EVENT_UPDATE: Send pending tag to server (packet 0x005B)
198: 0x09FF [0x43] SEND_EVENT_UPDATE: Check pending flag (skip if not pending)
199: 0x0A01 [0x01] GOTO 0x0A04

SUBROUTINE_0A04:
200: 0x0A04 [0x01] GOTO 0x06C4

SUBROUTINE_0A62:
201: 0x0A62 [0x1D] PRINT_EVENT_MESSAGE(message_id=7066*)
    → "You wish me to return the \u0001\u0005#\u0002\u0000\u0000\u0000...?\u007F1\u0000\u0007"
202: 0x0A65 [0x23] WAIT_FOR_DIALOG_INTERACTION
203: 0x0A66 [0x24] CREATE_DIALOG(message_id=7067*, default_option=1*, option_flags=0*)
    → "This is the armor you wish returned?\u0007\u000BThis is it.\u0007No, not this.\u007F1\u0000\u0007"
204: 0x0A6D [0x25] WAIT_DIALOG_SELECT()
205: 0x0A6E [0x02] IF !(Work_Zone[0] == 0*) GOTO 0x0A82
206: 0x0A76 [0x03] Work_Zone[1] = 16*
207: 0x0A7B [0x43] SEND_EVENT_UPDATE: Send pending tag to server (packet 0x005B)
208: 0x0A7D [0x43] SEND_EVENT_UPDATE: Check pending flag (skip if not pending)
209: 0x0A7F [0x01] GOTO 0x0A82

SUBROUTINE_0A82:
210: 0x0A82 [0x01] GOTO 0x06C4

SUBROUTINE_0AE0:
211: 0x0AE0 [0x1D] PRINT_EVENT_MESSAGE(message_id=7066*)
    → "You wish me to return the \u0001\u0005#\u0002\u0000\u0000\u0000...?\u007F1\u0000\u0007"
212: 0x0AE3 [0x23] WAIT_FOR_DIALOG_INTERACTION
213: 0x0AE4 [0x24] CREATE_DIALOG(message_id=7067*, default_option=1*, option_flags=0*)
    → "This is the armor you wish returned?\u0007\u000BThis is it.\u0007No, not this.\u007F1\u0000\u0007"
214: 0x0AEB [0x25] WAIT_DIALOG_SELECT()
215: 0x0AEC [0x02] IF !(Work_Zone[0] == 0*) GOTO 0x0B00
216: 0x0AF4 [0x03] Work_Zone[1] = 17*
217: 0x0AF9 [0x43] SEND_EVENT_UPDATE: Send pending tag to server (packet 0x005B)
218: 0x0AFB [0x43] SEND_EVENT_UPDATE: Check pending flag (skip if not pending)
219: 0x0AFD [0x01] GOTO 0x0B00

SUBROUTINE_0B00:
220: 0x0B00 [0x01] GOTO 0x06C4

SUBROUTINE_0B5E:
221: 0x0B5E [0x1D] PRINT_EVENT_MESSAGE(message_id=7066*)
    → "You wish me to return the \u0001\u0005#\u0002\u0000\u0000\u0000...?\u007F1\u0000\u0007"
222: 0x0B61 [0x23] WAIT_FOR_DIALOG_INTERACTION
223: 0x0B62 [0x24] CREATE_DIALOG(message_id=7067*, default_option=1*, option_flags=0*)
    → "This is the armor you wish returned?\u0007\u000BThis is it.\u0007No, not this.\u007F1\u0000\u0007"
224: 0x0B69 [0x25] WAIT_DIALOG_SELECT()
225: 0x0B6A [0x02] IF !(Work_Zone[0] == 0*) GOTO 0x0B7E
226: 0x0B72 [0x03] Work_Zone[1] = 18*
227: 0x0B77 [0x43] SEND_EVENT_UPDATE: Send pending tag to server (packet 0x005B)
228: 0x0B79 [0x43] SEND_EVENT_UPDATE: Check pending flag (skip if not pending)
229: 0x0B7B [0x01] GOTO 0x0B7E

SUBROUTINE_0B7E:
230: 0x0B7E [0x01] GOTO 0x06C4

SUBROUTINE_0BDC:
231: 0x0BDC [0x1D] PRINT_EVENT_MESSAGE(message_id=7066*)
    → "You wish me to return the \u0001\u0005#\u0002\u0000\u0000\u0000...?\u007F1\u0000\u0007"
232: 0x0BDF [0x23] WAIT_FOR_DIALOG_INTERACTION
233: 0x0BE0 [0x24] CREATE_DIALOG(message_id=7067*, default_option=1*, option_flags=0*)
    → "This is the armor you wish returned?\u0007\u000BThis is it.\u0007No, not this.\u007F1\u0000\u0007"
234: 0x0BE7 [0x25] WAIT_DIALOG_SELECT()
235: 0x0BE8 [0x02] IF !(Work_Zone[0] == 0*) GOTO 0x0BFC
236: 0x0BF0 [0x03] Work_Zone[1] = 19*
237: 0x0BF5 [0x43] SEND_EVENT_UPDATE: Send pending tag to server (packet 0x005B)
238: 0x0BF7 [0x43] SEND_EVENT_UPDATE: Check pending flag (skip if not pending)
239: 0x0BF9 [0x01] GOTO 0x0BFC

SUBROUTINE_0BFC:
240: 0x0BFC [0x01] GOTO 0x06C4

SUBROUTINE_0CF5:
241: 0x0CF5 [0x24] CREATE_DIALOG(message_id=7065*, default_option=0*, option_flags=ExtData[1]->WorkLocal[3])
    → "Which do you want back?\u0007\u000B\u007F\u0000\u0001\u0001\u0005#\u0002\u0000\u0000\u0000\u0007\u007F\u0000\u0001\u0001\u0005#\u0002\u0001\u0000\u0000\u0007\u007F\u0000\u0001\u0001\u0005#\u0002\u0002\u0000\u0000\u0007\u007F\u0000\u0001\u0001\u0005#\u0002\u0003\u0000\u0000\u0007\u007F\u0000\u0001\u0001\u0005#\u0002\u0004\u0000\u0000\u0007\u007F\u0000\u0001\u0001\u0005#\u0002\u0005\u0000\u0000\u0007\u007F\u0000\u0001\u0001\u0005#\u0002\u0006\u0000\u0000\u0007Previous page.\u0007None.\u007F1\u0000\u0007"
242: 0x0CFC [0x25] WAIT_DIALOG_SELECT()
243: 0x0CFD [0x02] IF !(Work_Zone[0] == 0*) GOTO 0x0D7B
244: 0x0D05 [0x02] IF !(ExtData[1]->WorkLocal[4] == 1*) GOTO 0x0D15
245: 0x0D0D [0x03] Work_Zone[2] = 14964*
246: 0x0D12 [0x01] GOTO 0x0D55
247: 0x0D15 [0x02] IF !(ExtData[1]->WorkLocal[4] == 2*) GOTO 0x0D25
248: 0x0D1D [0x03] Work_Zone[2] = 14968*
249: 0x0D22 [0x01] GOTO 0x0D55
250: 0x0D25 [0x02] IF !(ExtData[1]->WorkLocal[4] == 3*) GOTO 0x0D35
251: 0x0D2D [0x03] Work_Zone[2] = 14972*
252: 0x0D32 [0x01] GOTO 0x0D55
253: 0x0D35 [0x02] IF !(ExtData[1]->WorkLocal[4] == 4*) GOTO 0x0D45
254: 0x0D3D [0x03] Work_Zone[2] = 14976*
255: 0x0D42 [0x01] GOTO 0x0D55
256: 0x0D45 [0x02] IF !(ExtData[1]->WorkLocal[4] == 5*) GOTO 0x0D55
257: 0x0D4D [0x03] Work_Zone[2] = 14980*
258: 0x0D52 [0x01] GOTO 0x0D55

SUBROUTINE_0D55:
259: 0x0D55 [0x1D] PRINT_EVENT_MESSAGE(message_id=7066*)
    → "You wish me to return the \u0001\u0005#\u0002\u0000\u0000\u0000...?\u007F1\u0000\u0007"
260: 0x0D58 [0x23] WAIT_FOR_DIALOG_INTERACTION
261: 0x0D59 [0x24] CREATE_DIALOG(message_id=7067*, default_option=1*, option_flags=0*)
    → "This is the armor you wish returned?\u0007\u000BThis is it.\u0007No, not this.\u007F1\u0000\u0007"
262: 0x0D60 [0x25] WAIT_DIALOG_SELECT()
263: 0x0D61 [0x02] IF !(Work_Zone[0] == 0*) GOTO 0x0D75
264: 0x0D69 [0x03] Work_Zone[1] = 20*
265: 0x0D6E [0x43] SEND_EVENT_UPDATE: Send pending tag to server (packet 0x005B)
266: 0x0D70 [0x43] SEND_EVENT_UPDATE: Check pending flag (skip if not pending)
267: 0x0D72 [0x01] GOTO 0x0D75

SUBROUTINE_0D75:
268: 0x0D75 [0x01] GOTO 0x06C4

SUBROUTINE_0DD3:
269: 0x0DD3 [0x1D] PRINT_EVENT_MESSAGE(message_id=7066*)
    → "You wish me to return the \u0001\u0005#\u0002\u0000\u0000\u0000...?\u007F1\u0000\u0007"
270: 0x0DD6 [0x23] WAIT_FOR_DIALOG_INTERACTION
271: 0x0DD7 [0x24] CREATE_DIALOG(message_id=7067*, default_option=1*, option_flags=0*)
    → "This is the armor you wish returned?\u0007\u000BThis is it.\u0007No, not this.\u007F1\u0000\u0007"
272: 0x0DDE [0x25] WAIT_DIALOG_SELECT()
273: 0x0DDF [0x02] IF !(Work_Zone[0] == 0*) GOTO 0x0DF3
274: 0x0DE7 [0x03] Work_Zone[1] = 21*
275: 0x0DEC [0x43] SEND_EVENT_UPDATE: Send pending tag to server (packet 0x005B)
276: 0x0DEE [0x43] SEND_EVENT_UPDATE: Check pending flag (skip if not pending)
277: 0x0DF0 [0x01] GOTO 0x0DF3

SUBROUTINE_0DF3:
278: 0x0DF3 [0x01] GOTO 0x06C4

SUBROUTINE_0E51:
279: 0x0E51 [0x1D] PRINT_EVENT_MESSAGE(message_id=7066*)
    → "You wish me to return the \u0001\u0005#\u0002\u0000\u0000\u0000...?\u007F1\u0000\u0007"
280: 0x0E54 [0x23] WAIT_FOR_DIALOG_INTERACTION
281: 0x0E55 [0x24] CREATE_DIALOG(message_id=7067*, default_option=1*, option_flags=0*)
    → "This is the armor you wish returned?\u0007\u000BThis is it.\u0007No, not this.\u007F1\u0000\u0007"
282: 0x0E5C [0x25] WAIT_DIALOG_SELECT()
283: 0x0E5D [0x02] IF !(Work_Zone[0] == 0*) GOTO 0x0E71
284: 0x0E65 [0x03] Work_Zone[1] = 22*
285: 0x0E6A [0x43] SEND_EVENT_UPDATE: Send pending tag to server (packet 0x005B)
286: 0x0E6C [0x43] SEND_EVENT_UPDATE: Check pending flag (skip if not pending)
287: 0x0E6E [0x01] GOTO 0x0E71

SUBROUTINE_0E71:
288: 0x0E71 [0x01] GOTO 0x06C4

SUBROUTINE_0ECF:
289: 0x0ECF [0x1D] PRINT_EVENT_MESSAGE(message_id=7066*)
    → "You wish me to return the \u0001\u0005#\u0002\u0000\u0000\u0000...?\u007F1\u0000\u0007"
290: 0x0ED2 [0x23] WAIT_FOR_DIALOG_INTERACTION
291: 0x0ED3 [0x24] CREATE_DIALOG(message_id=7067*, default_option=1*, option_flags=0*)
    → "This is the armor you wish returned?\u0007\u000BThis is it.\u0007No, not this.\u007F1\u0000\u0007"
292: 0x0EDA [0x25] WAIT_DIALOG_SELECT()
293: 0x0EDB [0x02] IF !(Work_Zone[0] == 0*) GOTO 0x0EEF
294: 0x0EE3 [0x03] Work_Zone[1] = 23*
295: 0x0EE8 [0x43] SEND_EVENT_UPDATE: Send pending tag to server (packet 0x005B)
296: 0x0EEA [0x43] SEND_EVENT_UPDATE: Check pending flag (skip if not pending)
297: 0x0EEC [0x01] GOTO 0x0EEF

SUBROUTINE_0EEF:
298: 0x0EEF [0x01] GOTO 0x06C4

SUBROUTINE_0F4D:
299: 0x0F4D [0x1D] PRINT_EVENT_MESSAGE(message_id=7066*)
    → "You wish me to return the \u0001\u0005#\u0002\u0000\u0000\u0000...?\u007F1\u0000\u0007"
300: 0x0F50 [0x23] WAIT_FOR_DIALOG_INTERACTION
301: 0x0F51 [0x24] CREATE_DIALOG(message_id=7067*, default_option=1*, option_flags=0*)
    → "This is the armor you wish returned?\u0007\u000BThis is it.\u0007No, not this.\u007F1\u0000\u0007"
302: 0x0F58 [0x25] WAIT_DIALOG_SELECT()
303: 0x0F59 [0x02] IF !(Work_Zone[0] == 0*) GOTO 0x0F6D
304: 0x0F61 [0x03] Work_Zone[1] = 24*
305: 0x0F66 [0x43] SEND_EVENT_UPDATE: Send pending tag to server (packet 0x005B)
306: 0x0F68 [0x43] SEND_EVENT_UPDATE: Check pending flag (skip if not pending)
307: 0x0F6A [0x01] GOTO 0x0F6D

SUBROUTINE_0F6D:
308: 0x0F6D [0x01] GOTO 0x06C4

SUBROUTINE_0FCB:
309: 0x0FCB [0x1D] PRINT_EVENT_MESSAGE(message_id=7066*)
    → "You wish me to return the \u0001\u0005#\u0002\u0000\u0000\u0000...?\u007F1\u0000\u0007"
310: 0x0FCE [0x23] WAIT_FOR_DIALOG_INTERACTION
311: 0x0FCF [0x24] CREATE_DIALOG(message_id=7067*, default_option=1*, option_flags=0*)
    → "This is the armor you wish returned?\u0007\u000BThis is it.\u0007No, not this.\u007F1\u0000\u0007"
312: 0x0FD6 [0x25] WAIT_DIALOG_SELECT()
313: 0x0FD7 [0x02] IF !(Work_Zone[0] == 0*) GOTO 0x0FEB
314: 0x0FDF [0x03] Work_Zone[1] = 25*
315: 0x0FE4 [0x43] SEND_EVENT_UPDATE: Send pending tag to server (packet 0x005B)
316: 0x0FE6 [0x43] SEND_EVENT_UPDATE: Check pending flag (skip if not pending)
317: 0x0FE8 [0x01] GOTO 0x0FEB

SUBROUTINE_0FEB:
318: 0x0FEB [0x01] GOTO 0x06C4

SUBROUTINE_1049:
319: 0x1049 [0x1D] PRINT_EVENT_MESSAGE(message_id=7066*)
    → "You wish me to return the \u0001\u0005#\u0002\u0000\u0000\u0000...?\u007F1\u0000\u0007"
320: 0x104C [0x23] WAIT_FOR_DIALOG_INTERACTION
321: 0x104D [0x24] CREATE_DIALOG(message_id=7067*, default_option=1*, option_flags=0*)
    → "This is the armor you wish returned?\u0007\u000BThis is it.\u0007No, not this.\u007F1\u0000\u0007"
322: 0x1054 [0x25] WAIT_DIALOG_SELECT()
323: 0x1055 [0x02] IF !(Work_Zone[0] == 0*) GOTO 0x1069
324: 0x105D [0x03] Work_Zone[1] = 26*
325: 0x1062 [0x43] SEND_EVENT_UPDATE: Send pending tag to server (packet 0x005B)
326: 0x1064 [0x43] SEND_EVENT_UPDATE: Check pending flag (skip if not pending)
327: 0x1066 [0x01] GOTO 0x1069

SUBROUTINE_1069:
328: 0x1069 [0x01] GOTO 0x06C4

SUBROUTINE_107D:
329: 0x107D [0x01] GOTO 0x1080

SUBROUTINE_1080:
330: 0x1080 [0x03] ExtData[1]->WorkLocal[5] = 0*
331: 0x1085 [0x01] GOTO 0x0344

SUBROUTINE_1093:
332: 0x1093 [0x03] Work_Zone[1] = 27*
333: 0x1098 [0x43] SEND_EVENT_UPDATE: Send pending tag to server (packet 0x005B)
334: 0x109A [0x43] SEND_EVENT_UPDATE: Check pending flag (skip if not pending)
335: 0x109C [0x02] IF !(Work_Zone[5] == 0*) GOTO 0x10AB
336: 0x10A4 [0x1D] PRINT_EVENT_MESSAGE(message_id=7072*)
    → "My gallery currently holds not a single weapon, I fear...\u007F1\u0000\u0007"
337: 0x10A7 [0x23] WAIT_FOR_DIALOG_INTERACTION
338: 0x10A8 [0x01] GOTO 0x1593
339: 0x10AB [0x02] IF !(ExtData[1]->WorkLocal[5] == 0*) GOTO 0x10BC
340: 0x10B3 [0x03] ExtData[1]->WorkLocal[5] = 1*
341: 0x10B8 [0x1D] PRINT_EVENT_MESSAGE(message_id=7073*)
    → "You...want your weapon back?\u007F1\u0000\u0007"
342: 0x10BB [0x23] WAIT_FOR_DIALOG_INTERACTION
343: 0x10BC [0x03] ExtData[1]->WorkLocal[0] = 255*
344: 0x10C1 [0x0F] ExtData[1]->WorkLocal[0] ^= Work_Zone[2]
345: 0x10C6 [0x03] ExtData[1]->WorkLocal[1] = 255*
346: 0x10CB [0x0F] ExtData[1]->WorkLocal[1] ^= Work_Zone[3]
347: 0x10D0 [0x03] ExtData[1]->WorkLocal[2] = 15*
348: 0x10D5 [0x0F] ExtData[1]->WorkLocal[2] ^= Work_Zone[4]
349: 0x10DA [0x03] ExtData[1]->WorkLocal[3] = ExtData[1]->WorkLocal[0]
350: 0x10DF [0x03] Work_Zone[2] = 18492*
351: 0x10E4 [0x03] Work_Zone[3] = 18753*
352: 0x10E9 [0x03] Work_Zone[4] = 18851*
353: 0x10EE [0x03] Work_Zone[5] = 18589*
354: 0x10F3 [0x03] Work_Zone[6] = 17742*
355: 0x10F8 [0x03] Work_Zone[7] = 18003*
356: 0x10FD [0x03] Work_Zone[8] = 17744*
357: 0x1102 [0x03] Work_Zone[9] = 18944*
358: 0x1107 [0x24] CREATE_DIALOG(message_id=7064*, default_option=0*, option_flags=ExtData[1]->WorkLocal[3])
    → "Which do you want back?\u0007\u000B\u007F\u0000\u0001\u0001\u0005#\u0002\u0000\u0000\u0000\u0007\u007F\u0000\u0001\u0001\u0005#\u0002\u0001\u0000\u0000\u0007\u007F\u0000\u0001\u0001\u0005#\u0002\u0002\u0000\u0000\u0007\u007F\u0000\u0001\u0001\u0005#\u0002\u0003\u0000\u0000\u0007\u007F\u0000\u0001\u0001\u0005#\u0002\u0004\u0000\u0000\u0007\u007F\u0000\u0001\u0001\u0005#\u0002\u0005\u0000\u0000\u0007\u007F\u0000\u0001\u0001\u0005#\u0002\u0006\u0000\u0000\u0007\u007F\u0000\u0001\u0001\u0005#\u0002\u0007\u0000\u0000\u0007Next page.\u0007None.\u007F1\u0000\u0007"
359: 0x110E [0x25] WAIT_DIALOG_SELECT()
360: 0x110F [0x02] IF !(Work_Zone[0] == 0*) GOTO 0x1142
361: 0x1117 [0x03] Work_Zone[2] = 18492*
362: 0x111C [0x1D] PRINT_EVENT_MESSAGE(message_id=7066*)
    → "You wish me to return the \u0001\u0005#\u0002\u0000\u0000\u0000...?\u007F1\u0000\u0007"
363: 0x111F [0x23] WAIT_FOR_DIALOG_INTERACTION
364: 0x1120 [0x24] CREATE_DIALOG(message_id=7076*, default_option=1*, option_flags=0*)
    → "This is the weapon you wish returned?\u0007\u000BThis is it.\u0007No, not this.\u007F1\u0000\u0007"
365: 0x1127 [0x25] WAIT_DIALOG_SELECT()
366: 0x1128 [0x02] IF !(Work_Zone[0] == 0*) GOTO 0x113C
367: 0x1130 [0x03] Work_Zone[1] = 28*
368: 0x1135 [0x43] SEND_EVENT_UPDATE: Send pending tag to server (packet 0x005B)
369: 0x1137 [0x43] SEND_EVENT_UPDATE: Check pending flag (skip if not pending)
370: 0x1139 [0x01] GOTO 0x113C

SUBROUTINE_113C:
371: 0x113C [0x01] GOTO 0x1093

SUBROUTINE_116F:
372: 0x116F [0x01] GOTO 0x1093

SUBROUTINE_11A2:
373: 0x11A2 [0x01] GOTO 0x1093

SUBROUTINE_11D5:
374: 0x11D5 [0x01] GOTO 0x1093

SUBROUTINE_1208:
375: 0x1208 [0x01] GOTO 0x1093

SUBROUTINE_123B:
376: 0x123B [0x01] GOTO 0x1093

SUBROUTINE_126E:
377: 0x126E [0x01] GOTO 0x1093

SUBROUTINE_12A1:
378: 0x12A1 [0x01] GOTO 0x1093

SUBROUTINE_12AF:
379: 0x12AF [0x03] ExtData[1]->WorkLocal[3] = ExtData[1]->WorkLocal[1]
380: 0x12B4 [0x03] Work_Zone[2] = 17956*
381: 0x12B9 [0x03] Work_Zone[3] = 18034*
382: 0x12BE [0x03] Work_Zone[4] = 18719*
383: 0x12C3 [0x03] Work_Zone[5] = 18443*
384: 0x12C8 [0x03] Work_Zone[6] = 18426*
385: 0x12CD [0x03] Work_Zone[7] = 18120*
386: 0x12D2 [0x03] Work_Zone[8] = 18590*
387: 0x12D7 [0x03] Work_Zone[9] = 17743*
388: 0x12DC [0x24] CREATE_DIALOG(message_id=7074*, default_option=0*, option_flags=ExtData[1]->WorkLocal[3])
    → "Which do you want back?\u0007\u000B\u007F\u0000\u0001\u0001\u0005#\u0002\u0000\u0000\u0000\u0007\u007F\u0000\u0001\u0001\u0005#\u0002\u0001\u0000\u0000\u0007\u007F\u0000\u0001\u0001\u0005#\u0002\u0002\u0000\u0000\u0007\u007F\u0000\u0001\u0001\u0005#\u0002\u0003\u0000\u0000\u0007\u007F\u0000\u0001\u0001\u0005#\u0002\u0004\u0000\u0000\u0007\u007F\u0000\u0001\u0001\u0005#\u0002\u0005\u0000\u0000\u0007\u007F\u0000\u0001\u0001\u0005#\u0002\u0006\u0000\u0000\u0007\u007F\u0000\u0001\u0001\u0005#\u0002\u0007\u0000\u0000\u0007Next page.\u0007Previous page.\u0007None.\u007F1\u0000\u0007"
389: 0x12E3 [0x25] WAIT_DIALOG_SELECT()
390: 0x12E4 [0x02] IF !(Work_Zone[0] == 0*) GOTO 0x1317
391: 0x12EC [0x03] Work_Zone[2] = 17956*
392: 0x12F1 [0x1D] PRINT_EVENT_MESSAGE(message_id=7066*)
    → "You wish me to return the \u0001\u0005#\u0002\u0000\u0000\u0000...?\u007F1\u0000\u0007"
393: 0x12F4 [0x23] WAIT_FOR_DIALOG_INTERACTION
394: 0x12F5 [0x24] CREATE_DIALOG(message_id=7076*, default_option=1*, option_flags=0*)
    → "This is the weapon you wish returned?\u0007\u000BThis is it.\u0007No, not this.\u007F1\u0000\u0007"
395: 0x12FC [0x25] WAIT_DIALOG_SELECT()
396: 0x12FD [0x02] IF !(Work_Zone[0] == 0*) GOTO 0x1311
397: 0x1305 [0x03] Work_Zone[1] = 36*
398: 0x130A [0x43] SEND_EVENT_UPDATE: Send pending tag to server (packet 0x005B)
399: 0x130C [0x43] SEND_EVENT_UPDATE: Check pending flag (skip if not pending)
400: 0x130E [0x01] GOTO 0x1311

SUBROUTINE_1311:
401: 0x1311 [0x01] GOTO 0x1093

SUBROUTINE_1344:
402: 0x1344 [0x01] GOTO 0x1093

SUBROUTINE_1377:
403: 0x1377 [0x01] GOTO 0x1093

SUBROUTINE_13AA:
404: 0x13AA [0x01] GOTO 0x1093

SUBROUTINE_13DD:
405: 0x13DD [0x01] GOTO 0x1093

SUBROUTINE_1410:
406: 0x1410 [0x01] GOTO 0x1093

SUBROUTINE_1443:
407: 0x1443 [0x01] GOTO 0x1093

SUBROUTINE_1476:
408: 0x1476 [0x01] GOTO 0x1093

SUBROUTINE_14D2:
409: 0x14D2 [0x01] GOTO 0x1093

SUBROUTINE_1505:
410: 0x1505 [0x01] GOTO 0x1093

SUBROUTINE_1538:
411: 0x1538 [0x01] GOTO 0x1093

SUBROUTINE_156B:
412: 0x156B [0x01] GOTO 0x1093

SUBROUTINE_157F:
413: 0x157F [0x01] GOTO 0x1590
414: 0x1582 [0x02] IF !(Work_Zone[0] == 9*) GOTO 0x1590
415: 0x158A [0x01] GOTO 0x1093

SUBROUTINE_1590:
416: 0x1590 [0x01] GOTO 0x1593

SUBROUTINE_1593:
417: 0x1593 [0x03] ExtData[1]->WorkLocal[5] = 0*
418: 0x1598 [0x01] GOTO 0x0344

SUBROUTINE_15AD:
419: 0x15AD [0x21] END_EVENT
420: 0x15AE [0x00] END_REQSTACK()

SUBROUTINE_15AF:
421: 0x15AF [0x24] CREATE_DIALOG(message_id=7031*, default_option=0*, option_flags=0*)
    → "Which part do you ask about?\u0007\u000BThe head.\u0007The body.\u0007The hands.\u0007The legs.\u0007The feet.\u0007None.\u007F1\u0000\u0007"
422: 0x15B6 [0x25] WAIT_DIALOG_SELECT()
423: 0x15B7 [0x02] IF !(Work_Zone[0] == 0*) GOTO 0x16F8
424: 0x15BF [0x02] IF !(ExtData[1]->WorkLocal[4] == 0*) GOTO 0x15FD
425: 0x15C7 [0x03] Work_Zone[2] = 16085*
426: 0x15CC [0x03] Work_Zone[3] = 16086*
427: 0x15D1 [0x03] Work_Zone[4] = 16087*
428: 0x15D6 [0x66] LOAD_EXT_SCHEDULER_MAIN: Load scheduler "tlk0" with entities [EventEntity, EventEntity], work=0*
429: 0x15E5 [0x1D] PRINT_EVENT_MESSAGE(message_id=7032*)
    → "To create this part, you will need to prepare \u0001\u0001\u0001 \u0001\u0005$\u0002\u0000\u0000\u0000, \u0001\u0001\u0001 \u0001\u0005$\u0002\u0001\u0000\u0000, and \u0001\u0001\u0001 \u0001\u0005$\u0002\u0002\u0000\u0000.\u007F1\u0000\u0007"
430: 0x15E8 [0x23] WAIT_FOR_DIALOG_INTERACTION
431: 0x15E9 [0x03] Work_Zone[2] = 747*
432: 0x15EE [0x03] Work_Zone[3] = 2187*
433: 0x15F3 [0x1D] PRINT_EVENT_MESSAGE(message_id=7033*)
    → "As the mediator in this transaction, I also ask the paltry sum of 6 \u0001\u0005%\u0002\u0000\u0000\u0000 and 10 \u0001\u0005%\u0002\u0001\u0000\u0000.\u007F1\u0000\u0007"
434: 0x15F6 [0x23] WAIT_FOR_DIALOG_INTERACTION
435: 0x15F7 [0x93] DISPLAY_ITEM_INFO(item_id=16084*)
436: 0x15FA [0x01] GOTO 0x16F5
437: 0x15FD [0x02] IF !(ExtData[1]->WorkLocal[4] == 1*) GOTO 0x163B
438: 0x1605 [0x03] Work_Zone[2] = 16089*
439: 0x160A [0x03] Work_Zone[3] = 16090*
440: 0x160F [0x03] Work_Zone[4] = 16091*
441: 0x1614 [0x66] LOAD_EXT_SCHEDULER_MAIN: Load scheduler "tlk0" with entities [EventEntity, EventEntity], work=0*
442: 0x1623 [0x1D] PRINT_EVENT_MESSAGE(message_id=7032*)
    → "To create this part, you will need to prepare \u0001\u0001\u0001 \u0001\u0005$\u0002\u0000\u0000\u0000, \u0001\u0001\u0001 \u0001\u0005$\u0002\u0001\u0000\u0000, and \u0001\u0001\u0001 \u0001\u0005$\u0002\u0002\u0000\u0000.\u007F1\u0000\u0007"
443: 0x1626 [0x23] WAIT_FOR_DIALOG_INTERACTION
444: 0x1627 [0x03] Work_Zone[2] = 747*
445: 0x162C [0x03] Work_Zone[3] = 2187*
446: 0x1631 [0x1D] PRINT_EVENT_MESSAGE(message_id=7033*)
    → "As the mediator in this transaction, I also ask the paltry sum of 6 \u0001\u0005%\u0002\u0000\u0000\u0000 and 10 \u0001\u0005%\u0002\u0001\u0000\u0000.\u007F1\u0000\u0007"
447: 0x1634 [0x23] WAIT_FOR_DIALOG_INTERACTION
448: 0x1635 [0x93] DISPLAY_ITEM_INFO(item_id=16088*)
449: 0x1638 [0x01] GOTO 0x16F5
450: 0x163B [0x02] IF !(ExtData[1]->WorkLocal[4] == 2*) GOTO 0x1679
451: 0x1643 [0x03] Work_Zone[2] = 16093*
452: 0x1648 [0x03] Work_Zone[3] = 16094*
453: 0x164D [0x03] Work_Zone[4] = 16095*
454: 0x1652 [0x66] LOAD_EXT_SCHEDULER_MAIN: Load scheduler "tlk0" with entities [EventEntity, EventEntity], work=0*
455: 0x1661 [0x1D] PRINT_EVENT_MESSAGE(message_id=7032*)
    → "To create this part, you will need to prepare \u0001\u0001\u0001 \u0001\u0005$\u0002\u0000\u0000\u0000, \u0001\u0001\u0001 \u0001\u0005$\u0002\u0001\u0000\u0000, and \u0001\u0001\u0001 \u0001\u0005$\u0002\u0002\u0000\u0000.\u007F1\u0000\u0007"
456: 0x1664 [0x23] WAIT_FOR_DIALOG_INTERACTION
457: 0x1665 [0x03] Work_Zone[2] = 747*
458: 0x166A [0x03] Work_Zone[3] = 2187*
459: 0x166F [0x1D] PRINT_EVENT_MESSAGE(message_id=7033*)
    → "As the mediator in this transaction, I also ask the paltry sum of 6 \u0001\u0005%\u0002\u0000\u0000\u0000 and 10 \u0001\u0005%\u0002\u0001\u0000\u0000.\u007F1\u0000\u0007"
460: 0x1672 [0x23] WAIT_FOR_DIALOG_INTERACTION
461: 0x1673 [0x93] DISPLAY_ITEM_INFO(item_id=16092*)
462: 0x1676 [0x01] GOTO 0x16F5
463: 0x1679 [0x02] IF !(ExtData[1]->WorkLocal[4] == 3*) GOTO 0x16B7
464: 0x1681 [0x03] Work_Zone[2] = 16097*
465: 0x1686 [0x03] Work_Zone[3] = 16098*
466: 0x168B [0x03] Work_Zone[4] = 16099*
467: 0x1690 [0x66] LOAD_EXT_SCHEDULER_MAIN: Load scheduler "tlk0" with entities [EventEntity, EventEntity], work=0*
468: 0x169F [0x1D] PRINT_EVENT_MESSAGE(message_id=7032*)
    → "To create this part, you will need to prepare \u0001\u0001\u0001 \u0001\u0005$\u0002\u0000\u0000\u0000, \u0001\u0001\u0001 \u0001\u0005$\u0002\u0001\u0000\u0000, and \u0001\u0001\u0001 \u0001\u0005$\u0002\u0002\u0000\u0000.\u007F1\u0000\u0007"
469: 0x16A2 [0x23] WAIT_FOR_DIALOG_INTERACTION
470: 0x16A3 [0x03] Work_Zone[2] = 747*
471: 0x16A8 [0x03] Work_Zone[3] = 2187*
472: 0x16AD [0x1D] PRINT_EVENT_MESSAGE(message_id=7033*)
    → "As the mediator in this transaction, I also ask the paltry sum of 6 \u0001\u0005%\u0002\u0000\u0000\u0000 and 10 \u0001\u0005%\u0002\u0001\u0000\u0000.\u007F1\u0000\u0007"
473: 0x16B0 [0x23] WAIT_FOR_DIALOG_INTERACTION
474: 0x16B1 [0x93] DISPLAY_ITEM_INFO(item_id=16096*)
475: 0x16B4 [0x01] GOTO 0x16F5
476: 0x16B7 [0x02] IF !(ExtData[1]->WorkLocal[4] == 4*) GOTO 0x16F5
477: 0x16BF [0x03] Work_Zone[2] = 16101*
478: 0x16C4 [0x03] Work_Zone[3] = 16102*
479: 0x16C9 [0x03] Work_Zone[4] = 16103*
480: 0x16CE [0x66] LOAD_EXT_SCHEDULER_MAIN: Load scheduler "tlk0" with entities [EventEntity, EventEntity], work=0*
481: 0x16DD [0x1D] PRINT_EVENT_MESSAGE(message_id=7032*)
    → "To create this part, you will need to prepare \u0001\u0001\u0001 \u0001\u0005$\u0002\u0000\u0000\u0000, \u0001\u0001\u0001 \u0001\u0005$\u0002\u0001\u0000\u0000, and \u0001\u0001\u0001 \u0001\u0005$\u0002\u0002\u0000\u0000.\u007F1\u0000\u0007"
482: 0x16E0 [0x23] WAIT_FOR_DIALOG_INTERACTION
483: 0x16E1 [0x03] Work_Zone[2] = 747*
484: 0x16E6 [0x03] Work_Zone[3] = 2187*
485: 0x16EB [0x1D] PRINT_EVENT_MESSAGE(message_id=7033*)
    → "As the mediator in this transaction, I also ask the paltry sum of 6 \u0001\u0005%\u0002\u0000\u0000\u0000 and 10 \u0001\u0005%\u0002\u0001\u0000\u0000.\u007F1\u0000\u0007"
486: 0x16EE [0x23] WAIT_FOR_DIALOG_INTERACTION
487: 0x16EF [0x93] DISPLAY_ITEM_INFO(item_id=16100*)
488: 0x16F2 [0x01] GOTO 0x16F5

SUBROUTINE_16F5:
489: 0x16F5 [0x01] GOTO 0x1C08
490: 0x16F8 [0x02] IF !(Work_Zone[0] == 1*) GOTO 0x1839
491: 0x1700 [0x02] IF !(ExtData[1]->WorkLocal[4] == 0*) GOTO 0x173E
492: 0x1708 [0x03] Work_Zone[2] = 14547*
493: 0x170D [0x03] Work_Zone[3] = 14548*
494: 0x1712 [0x03] Work_Zone[4] = 14549*
495: 0x1717 [0x66] LOAD_EXT_SCHEDULER_MAIN: Load scheduler "tlk0" with entities [EventEntity, EventEntity], work=0*
496: 0x1726 [0x1D] PRINT_EVENT_MESSAGE(message_id=7032*)
    → "To create this part, you will need to prepare \u0001\u0001\u0001 \u0001\u0005$\u0002\u0000\u0000\u0000, \u0001\u0001\u0001 \u0001\u0005$\u0002\u0001\u0000\u0000, and \u0001\u0001\u0001 \u0001\u0005$\u0002\u0002\u0000\u0000.\u007F1\u0000\u0007"
497: 0x1729 [0x23] WAIT_FOR_DIALOG_INTERACTION
498: 0x172A [0x03] Work_Zone[2] = 686*
499: 0x172F [0x03] Work_Zone[3] = 2187*
500: 0x1734 [0x1D] PRINT_EVENT_MESSAGE(message_id=7033*)
    → "As the mediator in this transaction, I also ask the paltry sum of 6 \u0001\u0005%\u0002\u0000\u0000\u0000 and 10 \u0001\u0005%\u0002\u0001\u0000\u0000.\u007F1\u0000\u0007"
501: 0x1737 [0x23] WAIT_FOR_DIALOG_INTERACTION
502: 0x1738 [0x93] DISPLAY_ITEM_INFO(item_id=14546*)
503: 0x173B [0x01] GOTO 0x1836
504: 0x173E [0x02] IF !(ExtData[1]->WorkLocal[4] == 1*) GOTO 0x177C
505: 0x1746 [0x03] Work_Zone[2] = 14551*
506: 0x174B [0x03] Work_Zone[3] = 14552*
507: 0x1750 [0x03] Work_Zone[4] = 14553*
508: 0x1755 [0x66] LOAD_EXT_SCHEDULER_MAIN: Load scheduler "tlk0" with entities [EventEntity, EventEntity], work=0*
509: 0x1764 [0x1D] PRINT_EVENT_MESSAGE(message_id=7032*)
    → "To create this part, you will need to prepare \u0001\u0001\u0001 \u0001\u0005$\u0002\u0000\u0000\u0000, \u0001\u0001\u0001 \u0001\u0005$\u0002\u0001\u0000\u0000, and \u0001\u0001\u0001 \u0001\u0005$\u0002\u0002\u0000\u0000.\u007F1\u0000\u0007"
510: 0x1767 [0x23] WAIT_FOR_DIALOG_INTERACTION
511: 0x1768 [0x03] Work_Zone[2] = 686*
512: 0x176D [0x03] Work_Zone[3] = 2187*
513: 0x1772 [0x1D] PRINT_EVENT_MESSAGE(message_id=7033*)
    → "As the mediator in this transaction, I also ask the paltry sum of 6 \u0001\u0005%\u0002\u0000\u0000\u0000 and 10 \u0001\u0005%\u0002\u0001\u0000\u0000.\u007F1\u0000\u0007"
514: 0x1775 [0x23] WAIT_FOR_DIALOG_INTERACTION
515: 0x1776 [0x93] DISPLAY_ITEM_INFO(item_id=14550*)
516: 0x1779 [0x01] GOTO 0x1836
517: 0x177C [0x02] IF !(ExtData[1]->WorkLocal[4] == 2*) GOTO 0x17BA
518: 0x1784 [0x03] Work_Zone[2] = 14555*
519: 0x1789 [0x03] Work_Zone[3] = 14556*
520: 0x178E [0x03] Work_Zone[4] = 14557*
521: 0x1793 [0x66] LOAD_EXT_SCHEDULER_MAIN: Load scheduler "tlk0" with entities [EventEntity, EventEntity], work=0*
522: 0x17A2 [0x1D] PRINT_EVENT_MESSAGE(message_id=7032*)
