# 16982343

## Common Data

| Field            | Value                         |
|------------------|-------------------------------|
| Zone             | Aht Urhgan Whitegate (ID: 50) |
| Block Size       | 28844 bytes                   |
| Total Events     | 13                            |
| References Count | 577                           |

## List of Events

| Event ID                  | Entrypoint   |   Size |   Instructions |
|---------------------------|--------------|--------|----------------|
| [65535](#event-65535)     | 0x0000       |      1 |              1 |
| [5038](#event-5038)       | 0x0001       |      1 |              1 |
| [3095](#event-3095)       | 0x0002       |      1 |              1 |
| [65535.1](#event-65535-1) | 0x0003       |     10 |              2 |
| [3112](#event-3112)       | 0x000D       |  13390 |           1453 |
| [856](#event-856)         | 0x345B       |    683 |             74 |
| [859](#event-859)         | 0x3706       |    781 |            110 |
| [864](#event-864)         | 0x3A13       |    906 |            142 |
| [867](#event-867)         | 0x3D9D       |    620 |             85 |
| [868](#event-868)         | 0x4009       |    511 |             70 |
| [871](#event-871)         | 0x4208       |    406 |             60 |
| [872](#event-872)         | 0x439E       |   8229 |           1022 |
| [880](#event-880)         | 0x63C3       |    928 |            109 |

## DAT References (imed_data)

|   Index | Hex Value   |   Dec Value |
|---------|-------------|-------------|
|       0 | 0x6012      |       24594 |
|       1 | 0xFFFF4606  |  4294919686 |
|       2 | 0xFFFFE184  |  4294959492 |
|       3 | 0x0833      |        2099 |
|       4 | 0x00C8      |         200 |
|       5 | 0x0000      |           0 |
|       6 | 0x0013      |          19 |
|       7 | 0x0232      |         562 |
|       8 | 0x1384D     |       79949 |
|       9 | 0xCD10      |       52496 |
|      10 | 0xFFFFFFC4  |  4294967236 |
|      11 | 0x0C00      |        3072 |
|      12 | 0x13849     |       79945 |
|      13 | 0x6831      |       26673 |
|      14 | 0xFFFFFEBC  |  4294966972 |
|      15 | 0x0BD8      |        3032 |
|      16 | 0x000F      |          15 |
|      17 | 0x00C1      |         193 |
|      18 | 0x2BAC      |       11180 |
|      19 | 0x2BAD      |       11181 |
|      20 | 0x003C      |          60 |
|      21 | 0x001E      |          30 |
|      22 | 0x2BAE      |       11182 |
|      23 | 0x00F0      |         240 |
|      24 | 0x00BF      |         191 |
|      25 | 0x2BAF      |       11183 |
|      26 | 0x00B4      |         180 |
|      27 | 0x0078      |         120 |
|      28 | 0x03CB      |         971 |
|      29 | 0x2BB0      |       11184 |
|      30 | 0x14B71     |       84849 |
|      31 | 0xBBEA      |       48106 |
|      32 | 0x01E0      |         480 |
|      33 | 0x01A6      |         422 |
|      34 | 0x2BB1      |       11185 |
|      35 | 0x2BB2      |       11186 |
|      36 | 0x0318      |         792 |
|      37 | 0x2BB3      |       11187 |
|      38 | 0x005A      |          90 |
|      39 | 0x2BB4      |       11188 |
|      40 | 0x2BB5      |       11189 |
|      41 | 0x00FE      |         254 |
|      42 | 0x2BB6      |       11190 |
|      43 | 0x2BB7      |       11191 |
|      44 | 0x2BB8      |       11192 |
|      45 | 0x2BBC      |       11196 |
|      46 | 0x2BBD      |       11197 |
|      47 | 0x2BBE      |       11198 |
|      48 | 0x0001      |           1 |
|      49 | 0x2BB9      |       11193 |
|      50 | 0x2BBA      |       11194 |
|      51 | 0x007F      |         127 |
|      52 | 0x2BBB      |       11195 |
|      53 | 0x2BBF      |       11199 |
|      54 | 0x2BC0      |       11200 |
|      55 | 0x2BC1      |       11201 |
|      56 | 0x2BC2      |       11202 |
|      57 | 0x0005      |           5 |
|      58 | 0x2BC3      |       11203 |
|      59 | 0x2BC4      |       11204 |
|      60 | 0x2BC5      |       11205 |
|      61 | 0x2BC6      |       11206 |
|      62 | 0x2BC7      |       11207 |
|      63 | 0x2BC8      |       11208 |
|      64 | 0x2BC9      |       11209 |
|      65 | 0x2BCA      |       11210 |
|      66 | 0x2BCB      |       11211 |
|      67 | 0x2BCC      |       11212 |
|      68 | 0x2BCD      |       11213 |
|      69 | 0x2BCE      |       11214 |
|      70 | 0x2BCF      |       11215 |
|      71 | 0x2BD0      |       11216 |
|      72 | 0x2BD1      |       11217 |
|      73 | 0x2BD2      |       11218 |
|      74 | 0x2BD3      |       11219 |
|      75 | 0x2BD4      |       11220 |
|      76 | 0x2BD5      |       11221 |
|      77 | 0x2BD6      |       11222 |
|      78 | 0x2BD7      |       11223 |
|      79 | 0x2BD8      |       11224 |
|      80 | 0x2BD9      |       11225 |
|      81 | 0x13EE2     |       81634 |
|      82 | 0xBFA7      |       49063 |
|      83 | 0x0858      |        2136 |
|      84 | 0x14035     |       81973 |
|      85 | 0xC49F      |       50335 |
|      86 | 0x0803      |        2051 |
|      87 | 0x12AD8     |       76504 |
|      88 | 0xC0EA      |       49386 |
|      89 | 0x00D7      |         215 |
|      90 | 0x2BDA      |       11226 |
|      91 | 0x2BDB      |       11227 |
|      92 | 0x2BDC      |       11228 |
|      93 | 0x2BDD      |       11229 |
|      94 | 0x2BDE      |       11230 |
|      95 | 0x0353      |         851 |
|      96 | 0x0352      |         850 |
|      97 | 0x2BDF      |       11231 |
|      98 | 0x039E      |         926 |
|      99 | 0x2BE0      |       11232 |
|     100 | 0x132A5     |       78501 |
|     101 | 0xD24E      |       53838 |
|     102 | 0xFFFFFEC5  |  4294966981 |
|     103 | 0x01E3      |         483 |
|     104 | 0x2BE1      |       11233 |
|     105 | 0x2BE2      |       11234 |
|     106 | 0x2BE3      |       11235 |
|     107 | 0x2BE4      |       11236 |
|     108 | 0x13843     |       79939 |
|     109 | 0x5953      |       22867 |
|     110 | 0xFFFFFEC4  |  4294966980 |
|     111 | 0x0C14      |        3092 |
|     112 | 0x134BB     |       79035 |
|     113 | 0x5D16      |       23830 |
|     114 | 0x13BD6     |       80854 |
|     115 | 0x5D26      |       23846 |
|     116 | 0x13C8B     |       81035 |
|     117 | 0xCD77      |       52599 |
|     118 | 0x04DF      |        1247 |
|     119 | 0x13DBD     |       81341 |
|     120 | 0xC898      |       51352 |
|     121 | 0x139A2     |       80290 |
|     122 | 0xCAE9      |       51945 |
|     123 | 0x00D1      |         209 |
|     124 | 0x04A4      |        1188 |
|     125 | 0x12CDA     |       77018 |
|     126 | 0xC84F      |       51279 |
|     127 | 0x01E7      |         487 |
|     128 | 0x0171      |         369 |
|     129 | 0x00D2      |         210 |
|     130 | 0x1390C     |       80140 |
|     131 | 0x6C97      |       27799 |
|     132 | 0x0C08      |        3080 |
|     133 | 0x0345      |         837 |
|     134 | 0x12738     |       75576 |
|     135 | 0xBAE4      |       47844 |
|     136 | 0x0E01      |        3585 |
|     137 | 0x129A9     |       76201 |
|     138 | 0xB71A      |       46874 |
|     139 | 0x0181      |         385 |
|     140 | 0x0E78      |        3704 |
|     141 | 0x0009      |           9 |
|     142 | 0x2BE5      |       11237 |
|     143 | 0x2BE6      |       11238 |
|     144 | 0x1387E     |       79998 |
|     145 | 0x84DE      |       34014 |
|     146 | 0x0400      |        1024 |
|     147 | 0x1268A     |       75402 |
|     148 | 0x9046      |       36934 |
|     149 | 0x0278      |         632 |
|     150 | 0x14A5C     |       84572 |
|     151 | 0x8BFF      |       35839 |
|     152 | 0x047E      |        1150 |
|     153 | 0x14DC7     |       85447 |
|     154 | 0x8CE1      |       36065 |
|     155 | 0x05B6      |        1462 |
|     156 | 0x14B77     |       84855 |
|     157 | 0x868D      |       34445 |
|     158 | 0x05EB      |        1515 |
|     159 | 0x14844     |       84036 |
|     160 | 0x8AF3      |       35571 |
|     161 | 0x060A      |        1546 |
|     162 | 0x0437      |        1079 |
|     163 | 0x1381D     |       79901 |
|     164 | 0xBE5A      |       48730 |
|     165 | 0x03CA      |         970 |
|     166 | 0x2BE7      |       11239 |
|     167 | 0x2BE8      |       11240 |
|     168 | 0x2BE9      |       11241 |
|     169 | 0x2BEA      |       11242 |
|     170 | 0x2BEB      |       11243 |
|     171 | 0x0A0E      |        2574 |
|     172 | 0x2BEC      |       11244 |
|     173 | 0x00E9      |         233 |
|     174 | 0x0030      |          48 |
|     175 | 0x0011      |          17 |
|     176 | 0x0002      |           2 |
|     177 | 0x1EA83     |      125571 |
|     178 | 0x1D28A     |      119434 |
|     179 | 0x0BB8      |        3000 |
|     180 | 0x0035      |          53 |
|     181 | 0x1E905     |      125189 |
|     182 | 0x1D671     |      120433 |
|     183 | 0x0058      |          88 |
|     184 | 0x03AF      |         943 |
|     185 | 0x00B7      |         183 |
|     186 | 0x03B6      |         950 |
|     187 | 0x2BED      |       11245 |
|     188 | 0x2BEE      |       11246 |
|     189 | 0x2BEF      |       11247 |
|     190 | 0x2BF0      |       11248 |
|     191 | 0x2BF1      |       11249 |
|     192 | 0x2BF2      |       11250 |
|     193 | 0x2BF3      |       11251 |
|     194 | 0x00C0      |         192 |
|     195 | 0x2BF4      |       11252 |
|     196 | 0x2BF5      |       11253 |
|     197 | 0x2BF6      |       11254 |
|     198 | 0x2BF7      |       11255 |
|     199 | 0x2BF8      |       11256 |
|     200 | 0x2BF9      |       11257 |
|     201 | 0x0399      |         921 |
|     202 | 0x2BFA      |       11258 |
|     203 | 0x2BFB      |       11259 |
|     204 | 0x037B      |         891 |
|     205 | 0x2BFC      |       11260 |
|     206 | 0x2BFD      |       11261 |
|     207 | 0x2BFE      |       11262 |
|     208 | 0x2BFF      |       11263 |
|     209 | 0x2C00      |       11264 |
|     210 | 0x2C01      |       11265 |
|     211 | 0x2C02      |       11266 |
|     212 | 0x2C03      |       11267 |
|     213 | 0x2C04      |       11268 |
|     214 | 0x2C05      |       11269 |
|     215 | 0x0FFD      |        4093 |
|     216 | 0x2C06      |       11270 |
|     217 | 0x2C07      |       11271 |
|     218 | 0x2C08      |       11272 |
|     219 | 0x2C09      |       11273 |
|     220 | 0x2C0A      |       11274 |
|     221 | 0x2C0B      |       11275 |
|     222 | 0x2C0C      |       11276 |
|     223 | 0x2C0D      |       11277 |
|     224 | 0x17B2F     |       97071 |
|     225 | 0x1D4A4     |      119972 |
|     226 | 0x07D0      |        2000 |
|     227 | 0x000B      |          11 |
|     228 | 0x19873     |      104563 |
|     229 | 0x1D556     |      120150 |
|     230 | 0x0FF0      |        4080 |
|     231 | 0x0003      |           3 |
|     232 | 0x1D588     |      120200 |
|     233 | 0x028A      |         650 |
|     234 | 0x0004      |           4 |
|     235 | 0x02BC      |         700 |
|     236 | 0x0007      |           7 |
|     237 | 0x03E8      |        1000 |
|     238 | 0x0008      |           8 |
|     239 | 0x1D5EC     |      120300 |
|     240 | 0x0226      |         550 |
|     241 | 0x0672      |        1650 |
|     242 | 0x2C0E      |       11278 |
|     243 | 0x2C0F      |       11279 |
|     244 | 0x0032      |          50 |
|     245 | 0x0064      |         100 |
|     246 | 0x1ACC9     |      109769 |
|     247 | 0x1DB82     |      121730 |
|     248 | 0x040E      |        1038 |
|     249 | 0x2C10      |       11280 |
|     250 | 0x2C11      |       11281 |
|     251 | 0x1BE20     |      114208 |
|     252 | 0x1D2D0     |      119504 |
|     253 | 0x1C30A     |      115466 |
|     254 | 0x1D3DF     |      119775 |
|     255 | 0x040D      |        1037 |
|     256 | 0x2C12      |       11282 |
|     257 | 0x0389      |         905 |
|     258 | 0x2C13      |       11283 |
|     259 | 0x2C14      |       11284 |
|     260 | 0x2C15      |       11285 |
|     261 | 0x2C16      |       11286 |
|     262 | 0x2C17      |       11287 |
|     263 | 0x2C18      |       11288 |
|     264 | 0x2C19      |       11289 |
|     265 | 0x2C1A      |       11290 |
|     266 | 0x2C1B      |       11291 |
|     267 | 0x2C1C      |       11292 |
|     268 | 0x2C1E      |       11294 |
|     269 | 0x2C1F      |       11295 |
|     270 | 0x2C20      |       11296 |
|     271 | 0x0110      |         272 |
|     272 | 0x03E7      |         999 |
|     273 | 0x12D42     |       77122 |
|     274 | 0xBBD1      |       48081 |
|     275 | 0x0DC9      |        3529 |
|     276 | 0x13585     |       79237 |
|     277 | 0xD70E      |       55054 |
|     278 | 0xFFFFFEBB  |  4294966971 |
|     279 | 0x1318F     |       78223 |
|     280 | 0xDA28      |       55848 |
|     281 | 0x031B      |         795 |
|     282 | 0x13BDD     |       80861 |
|     283 | 0xD48A      |       54410 |
|     284 | 0x0383      |         899 |
|     285 | 0x13701     |       79617 |
|     286 | 0xCF2E      |       53038 |
|     287 | 0x03D1      |         977 |
|     288 | 0x14D88     |       85384 |
|     289 | 0xC1A2      |       49570 |
|     290 | 0x07D8      |        2008 |
|     291 | 0x00B2      |         178 |
|     292 | 0x2C22      |       11298 |
|     293 | 0x2C23      |       11299 |
|     294 | 0x2C24      |       11300 |
|     295 | 0x2C25      |       11301 |
|     296 | 0x2C26      |       11302 |
|     297 | 0x2C27      |       11303 |
|     298 | 0x2C28      |       11304 |
|     299 | 0x2C29      |       11305 |
|     300 | 0x2C2A      |       11306 |
|     301 | 0x2C2B      |       11307 |
|     302 | 0x2C2C      |       11308 |
|     303 | 0x2C2D      |       11309 |
|     304 | 0x2C2E      |       11310 |
|     305 | 0x0006      |           6 |
|     306 | 0x2C2F      |       11311 |
|     307 | 0x2C30      |       11312 |
|     308 | 0x2C31      |       11313 |
|     309 | 0x2C33      |       11315 |
|     310 | 0x2C34      |       11316 |
|     311 | 0x2C35      |       11317 |
|     312 | 0x2C36      |       11318 |
|     313 | 0x2C37      |       11319 |
|     314 | 0x2C38      |       11320 |
|     315 | 0x2C39      |       11321 |
|     316 | 0x2C3A      |       11322 |
|     317 | 0x2C3B      |       11323 |
|     318 | 0x2C3C      |       11324 |
|     319 | 0x2C3D      |       11325 |
|     320 | 0x2C3F      |       11327 |
|     321 | 0x2C40      |       11328 |
|     322 | 0x2C41      |       11329 |
|     323 | 0x2C42      |       11330 |
|     324 | 0x2C43      |       11331 |
|     325 | 0x2C44      |       11332 |
|     326 | 0x2C45      |       11333 |
|     327 | 0x2C46      |       11334 |
|     328 | 0x2C47      |       11335 |
|     329 | 0x2C48      |       11336 |
|     330 | 0x2C49      |       11337 |
|     331 | 0x2C4A      |       11338 |
|     332 | 0x2C4B      |       11339 |
|     333 | 0x2C4C      |       11340 |
|     334 | 0x2C4D      |       11341 |
|     335 | 0x2C4E      |       11342 |
|     336 | 0x2C4F      |       11343 |
|     337 | 0x2C50      |       11344 |
|     338 | 0x2C51      |       11345 |
|     339 | 0x2C52      |       11346 |
|     340 | 0x2C53      |       11347 |
|     341 | 0x2C54      |       11348 |
|     342 | 0x2C55      |       11349 |
|     343 | 0x2C56      |       11350 |
|     344 | 0x0434      |        1076 |
|     345 | 0x2C57      |       11351 |
|     346 | 0x2C58      |       11352 |
|     347 | 0x2C59      |       11353 |
|     348 | 0x2C5A      |       11354 |
|     349 | 0x2C5B      |       11355 |
|     350 | 0x2C5C      |       11356 |
|     351 | 0x2C5D      |       11357 |
|     352 | 0x2C5E      |       11358 |
|     353 | 0x2C5F      |       11359 |
|     354 | 0x2C60      |       11360 |
|     355 | 0x2C61      |       11361 |
|     356 | 0x2C62      |       11362 |
|     357 | 0x043C      |        1084 |
|     358 | 0x2C63      |       11363 |
|     359 | 0x2C64      |       11364 |
|     360 | 0x2C65      |       11365 |
|     361 | 0x2C66      |       11366 |
|     362 | 0x2C67      |       11367 |
|     363 | 0x2C68      |       11368 |
|     364 | 0x2C69      |       11369 |
|     365 | 0x2C6A      |       11370 |
|     366 | 0x2C6B      |       11371 |
|     367 | 0x2C6C      |       11372 |
|     368 | 0x2C6D      |       11373 |
|     369 | 0x2C6E      |       11374 |
|     370 | 0x2C6F      |       11375 |
|     371 | 0x2C70      |       11376 |
|     372 | 0x2C71      |       11377 |
|     373 | 0x13899     |       80025 |
|     374 | 0x6F04      |       28420 |
|     375 | 0x040C      |        1036 |
|     376 | 0x13AC1     |       80577 |
|     377 | 0x75C2      |       30146 |
|     378 | 0x1357B     |       79227 |
|     379 | 0x760D      |       30221 |
|     380 | 0x13DAF     |       81327 |
|     381 | 0xC46D      |       50285 |
|     382 | 0x02B4      |         692 |
|     383 | 0x2C72      |       11378 |
|     384 | 0x001B      |          27 |
|     385 | 0x6A8E      |       27278 |
|     386 | 0x1E59D     |      124317 |
|     387 | 0xFFFFE891  |  4294961297 |
|     388 | 0x0A0A      |        2570 |
|     389 | 0x1C5B      |        7259 |
|     390 | 0x1C5C      |        7260 |
|     391 | 0x1C5D      |        7261 |
|     392 | 0x1C5E      |        7262 |
|     393 | 0x1C5F      |        7263 |
|     394 | 0x012C      |         300 |
|     395 | 0x1C60      |        7264 |
|     396 | 0x0305      |         773 |
|     397 | 0x1C61      |        7265 |
|     398 | 0x037C      |         892 |
|     399 | 0x1C62      |        7266 |
|     400 | 0x1C63      |        7267 |
|     401 | 0x1C64      |        7268 |
|     402 | 0x1C65      |        7269 |
|     403 | 0x1C66      |        7270 |
|     404 | 0xFFFE6AF4  |  4294863604 |
|     405 | 0x36AB      |       13995 |
|     406 | 0x02E9      |         745 |
|     407 | 0xFFFE5BC5  |  4294859717 |
|     408 | 0x3EC8      |       16072 |
|     409 | 0x0242      |         578 |
|     410 | 0xFFFE5EF0  |  4294860528 |
|     411 | 0x3B89      |       15241 |
|     412 | 0x0AC4      |        2756 |
|     413 | 0xFFFE5CAD  |  4294859949 |
|     414 | 0x299A      |       10650 |
|     415 | 0x07C5      |        1989 |
|     416 | 0x18AF      |        6319 |
|     417 | 0x1C6E      |        7278 |
|     418 | 0x1C6F      |        7279 |
|     419 | 0x1C70      |        7280 |
|     420 | 0x0235      |         565 |
|     421 | 0x0BEC      |        3052 |
|     422 | 0x000D      |          13 |
|     423 | 0x1C84      |        7300 |
|     424 | 0x13A22     |       80418 |
|     425 | 0xFFFE001C  |  4294836252 |
|     426 | 0xFFFFE890  |  4294961296 |
|     427 | 0x0FC0      |        4032 |
|     428 | 0x1C85      |        7301 |
|     429 | 0x000A      |          10 |
|     430 | 0xFFFEA17F  |  4294877567 |
|     431 | 0x0D89      |        3465 |
|     432 | 0x0B5E      |        2910 |
|     433 | 0x1C8A      |        7306 |
|     434 | 0x1C8B      |        7307 |
|     435 | 0xFFFEC0AA  |  4294885546 |
|     436 | 0xFFFF94E2  |  4294939874 |
|     437 | 0x03C0      |         960 |
|     438 | 0x001D      |          29 |
|     439 | 0x1C8C      |        7308 |
|     440 | 0x1C8D      |        7309 |
|     441 | 0x178F6     |       96502 |
|     442 | 0xFFFFEDA2  |  4294962594 |
|     443 | 0x00A2      |         162 |
|     444 | 0x180C7     |       98503 |
|     445 | 0xFFFFEDB1  |  4294962609 |
|     446 | 0x0FFC      |        4092 |
|     447 | 0x18A27     |      100903 |
|     448 | 0xFFFFEDC2  |  4294962626 |
|     449 | 0x19318     |      103192 |
|     450 | 0xFFFFEDD1  |  4294962641 |
|     451 | 0xFFFE87EF  |  4294871023 |
|     452 | 0xE329      |       58153 |
|     453 | 0x06E1      |        1761 |
|     454 | 0xFFFE6F3C  |  4294864700 |
|     455 | 0xF966      |       63846 |
|     456 | 0x065D      |        1629 |
|     457 | 0x1CD6      |        7382 |
|     458 | 0x1CD7      |        7383 |
|     459 | 0x140C      |        5132 |
|     460 | 0xFFFE63D6  |  4294861782 |
|     461 | 0x31A5      |       12709 |
|     462 | 0x0B89      |        2953 |
|     463 | 0x12E41     |       77377 |
|     464 | 0xFFFDE503  |  4294829315 |
|     465 | 0x04EF      |        1263 |
|     466 | 0x13157     |       78167 |
|     467 | 0xFFFDEBC0  |  4294831040 |
|     468 | 0x0625      |        1573 |
|     469 | 0x131BC     |       78268 |
|     470 | 0xFFFDEF97  |  4294832023 |
|     471 | 0x0D28      |        3368 |
|     472 | 0x1C92      |        7314 |
|     473 | 0x1C93      |        7315 |
|     474 | 0x000C      |          12 |
|     475 | 0x1CAA      |        7338 |
|     476 | 0x1CAB      |        7339 |
|     477 | 0x1CAC      |        7340 |
|     478 | 0x1CAD      |        7341 |
|     479 | 0x1CB0      |        7344 |
|     480 | 0x1CAE      |        7342 |
|     481 | 0x1CAF      |        7343 |
|     482 | 0xFFFE6682  |  4294862466 |
|     483 | 0x3280      |       12928 |
|     484 | 0x0C4E      |        3150 |
|     485 | 0xFFFE6A85  |  4294863493 |
|     486 | 0x32D5      |       13013 |
|     487 | 0x0B52      |        2898 |
|     488 | 0xFFFE627E  |  4294861438 |
|     489 | 0x2E80      |       11904 |
|     490 | 0x0CAB      |        3243 |
|     491 | 0xFFFE6647  |  4294862407 |
|     492 | 0x314A      |       12618 |
|     493 | 0x0D37      |        3383 |
|     494 | 0xFFFE6898  |  4294863000 |
|     495 | 0x2FC7      |       12231 |
|     496 | 0x0BE0      |        3040 |
|     497 | 0x1C98      |        7320 |
|     498 | 0x1C99      |        7321 |
|     499 | 0x1C9A      |        7322 |
|     500 | 0x1C9B      |        7323 |
|     501 | 0x1C9C      |        7324 |
|     502 | 0xFFFE6AE2  |  4294863586 |
|     503 | 0x2041      |        8257 |
|     504 | 0x1C96      |        7318 |
|     505 | 0x1C97      |        7319 |
|     506 | 0x1C94      |        7316 |
|     507 | 0x1C95      |        7317 |
|     508 | 0x13355     |       78677 |
|     509 | 0xFFFDF485  |  4294833285 |
|     510 | 0x0DA3      |        3491 |
|     511 | 0x1C9D      |        7325 |
|     512 | 0x1C9E      |        7326 |
|     513 | 0x1C9F      |        7327 |
|     514 | 0x134B4     |       79028 |
|     515 | 0xFFFDE6AD  |  4294829741 |
|     516 | 0x0D9E      |        3486 |
|     517 | 0xFFFEAAAF  |  4294879919 |
|     518 | 0xFFFFE14B  |  4294959435 |
|     519 | 0x08E3      |        2275 |
|     520 | 0xFFFE9C1E  |  4294876190 |
|     521 | 0xFFFFEBF5  |  4294962165 |
|     522 | 0x0268      |         616 |
|     523 | 0x1CA0      |        7328 |
|     524 | 0x0096      |         150 |
|     525 | 0x1CA1      |        7329 |
|     526 | 0x1CA2      |        7330 |
|     527 | 0x1CA3      |        7331 |
|     528 | 0xFFFEB6DC  |  4294883036 |
|     529 | 0xFFFFC5DC  |  4294952412 |
|     530 | 0x0A82      |        2690 |
|     531 | 0xFFFE9B69  |  4294876009 |
|     532 | 0xFFFFD8BC  |  4294957244 |
|     533 | 0x0CB1      |        3249 |
|     534 | 0xFFFE9C6F  |  4294876271 |
|     535 | 0xFFFFE8DD  |  4294961373 |
|     536 | 0x1CA4      |        7332 |
|     537 | 0x1CA5      |        7333 |
|     538 | 0x1CA6      |        7334 |
|     539 | 0x14F14     |       85780 |
|     540 | 0xFFFFECC5  |  4294962373 |
|     541 | 0x0A93      |        2707 |
|     542 | 0xFFFE741D  |  4294865949 |
|     543 | 0xE029      |       57385 |
|     544 | 0x08D8      |        2264 |
|     545 | 0xFFFE6FFC  |  4294864892 |
|     546 | 0xE55F      |       58719 |
|     547 | 0x02F5      |         757 |
|     548 | 0x0014      |          20 |
|     549 | 0x1CA7      |        7335 |
|     550 | 0x1CA8      |        7336 |
|     551 | 0x1CA9      |        7337 |
|     552 | 0x007A      |         122 |
|     553 | 0x00C2      |         194 |
|     554 | 0x1CC2      |        7362 |
|     555 | 0x1CC3      |        7363 |
|     556 | 0x1CC4      |        7364 |
|     557 | 0x1CC5      |        7365 |
|     558 | 0x1CC6      |        7366 |
|     559 | 0x1CC7      |        7367 |
|     560 | 0x1CC8      |        7368 |
|     561 | 0x1CC9      |        7369 |
|     562 | 0x1CCA      |        7370 |
|     563 | 0x1CCB      |        7371 |
|     564 | 0x1CCC      |        7372 |
|     565 | 0x1CCD      |        7373 |
|     566 | 0x0103      |         259 |
|     567 | 0x0888      |        2184 |
|     568 | 0x1CCE      |        7374 |
|     569 | 0x1CCF      |        7375 |
|     570 | 0x1CD0      |        7376 |
|     571 | 0x0889      |        2185 |
|     572 | 0x1CD1      |        7377 |
|     573 | 0x1CD2      |        7378 |
|     574 | 0x088A      |        2186 |
|     575 | 0x1CD3      |        7379 |
|     576 | 0x00C9      |         201 |

## Events

### Event 65535

#### Metadata

| Field        | Value   |
|--------------|---------|
| Entrypoint   | 0x0000  |
| Data Size    | 1 bytes |
| Instructions | 1       |

```
      00 01 02 03 04 05 06 07  08 09 0A 0B 0C 0D 0E 0F
      -- -- -- -- -- -- -- --  -- -- -- -- -- -- -- --
0000: 00                                                .               
```

#### Opcodes

```
  0: 0x0000 [0x00] END_REQSTACK()
```

### Event 5038

#### Metadata

| Field        | Value   |
|--------------|---------|
| Entrypoint   | 0x0001  |
| Data Size    | 1 bytes |
| Instructions | 1       |

```
      00 01 02 03 04 05 06 07  08 09 0A 0B 0C 0D 0E 0F
      -- -- -- -- -- -- -- --  -- -- -- -- -- -- -- --
0000:    00                                              .              
```

#### Opcodes

```
  0: 0x0001 [0x00] END_REQSTACK()
```

### Event 3095

#### Metadata

| Field        | Value   |
|--------------|---------|
| Entrypoint   | 0x0002  |
| Data Size    | 1 bytes |
| Instructions | 1       |

```
      00 01 02 03 04 05 06 07  08 09 0A 0B 0C 0D 0E 0F
      -- -- -- -- -- -- -- --  -- -- -- -- -- -- -- --
0000:       00                                            .             
```

#### Opcodes

```
  0: 0x0002 [0x00] END_REQSTACK()
```

### Event 65535.1

#### Metadata

| Field        | Value    |
|--------------|----------|
| Entrypoint   | 0x0003   |
| Data Size    | 10 bytes |
| Instructions | 2        |

```
      00 01 02 03 04 05 06 07  08 09 0A 0B 0C 0D 0E 0F
      -- -- -- -- -- -- -- --  -- -- -- -- -- -- -- --
0000:          37 00 80 01 80  02 80 03 80 00              7.........   
```

#### Opcodes

```
  0: 0x0003 [0x37] UPDATE_EVENT_POSITION_AND_DIR: x=24.594*, z=-47.610*, y=-7.804*, direction=184.5°*
  1: 0x000C [0x00] END_REQSTACK()
```

### Event 3112

#### Metadata

| Field        | Value       |
|--------------|-------------|
| Entrypoint   | 0x000D      |
| Data Size    | 13390 bytes |
| Instructions | 1449        |

```
      00 01 02 03 04 05 06 07  08 09 0A 0B 0C 0D 0E 0F
      -- -- -- -- -- -- -- --  -- -- -- -- -- -- -- --
0000:                                         42 45 04               BE.
0010: 80 F0 FF FF 7F F0 FF FF  7F 66 64 6F 31 05 80 55  .........fdo1..U
0020: 04 80 F0 FF FF 7F F0 FF  FF 7F 66 64 6F 31 46 01  ..........fdo1F.
0030: 38 06 80 75 00 07 80 75  01 4E 00 CE 20 03 01 94  8..u...u.N.. ...
0040: 01 F1 20 03 01 94 01 F0  FF FF 7F 94 01 CE 20 03  .. ........... .
0050: 01 92 01 F1 20 03 01 92  01 CE 20 03 01 92 01 F2  .... ..... .....
0060: 20 03 01 BA F0 FF FF 7F  08 80 09 80 0A 80 0B 80   ...............
0070: BA CE 20 03 01 0C 80 0D  80 0E 80 0F 80 80 F0 FF  .. .............
0080: FF 7F 80 F1 20 03 01 80  CE 20 03 01 1C 10 80 4A  .... .... .....J
0090: F0 FF FF 7F F1 20 03 01  4A F1 20 03 01 F0 FF FF  ..... ..J. .....
00A0: 7F 45 11 80 F0 FF FF 7F  F0 FF FF 7F 73 31 39 38  .E..........s198
00B0: 05 80 1C 10 80 45 04 80  F0 FF FF 7F F0 FF FF 7F  .....E..........
00C0: 66 64 69 31 05 80 55 04  80 F0 FF FF 7F F0 FF FF  fdi1..U.........
00D0: 7F 66 64 69 31 2B F1 20  03 01 12 80 23 52 11 80  .fdi1+. ....#R..
00E0: F0 FF FF 7F F0 FF FF 7F  73 31 39 38 45 11 80 F0  ........s198E...
00F0: FF FF 7F F0 FF FF 7F 73  31 39 39 05 80 2B F1 20  .......s199..+. 
0100: 03 01 13 80 23 52 11 80  F0 FF FF 7F F0 FF FF 7F  ....#R..........
0110: 73 31 39 39 45 11 80 F0  FF FF 7F F0 FF FF 7F 73  s199E..........s
0120: 32 30 30 05 80 27 05 EF  20 03 01 05 1C 14 80 4A  200..'.. ......J
0130: F1 20 03 01 CE 20 03 01  1C 15 80 2B F1 20 03 01  . ... .....+. ..
0140: 16 80 23 27 05 CE 20 03  01 1C 1C 15 80 52 11 80  ..#'.. ......R..
0150: F0 FF FF 7F F0 FF FF 7F  73 32 30 30 45 11 80 F0  ........s200E...
0160: FF FF 7F F0 FF FF 7F 73  32 30 31 05 80 27 05 EF  .......s201..'..
0170: 20 03 01 06 1C 17 80 52  11 80 F0 FF FF 7F F0 FF   ......R........
0180: FF 7F 73 32 30 31 45 18  80 F0 FF FF 7F F0 FF FF  ..s201E.........
0190: 7F 73 31 34 37 05 80 2B  F1 20 03 01 19 80 23 52  .s147..+. ....#R
01A0: 18 80 F0 FF FF 7F F0 FF  FF 7F 73 31 34 37 45 11  ..........s147E.
01B0: 80 F0 FF FF 7F F0 FF FF  7F 73 32 30 32 05 80 2A  .........s202..*
01C0: 05 CE 20 03 01 1C 1A 80  52 11 80 F0 FF FF 7F F0  .. .....R.......
01D0: FF FF 7F 73 32 30 32 45  11 80 F0 FF FF 7F F0 FF  ...s202E........
01E0: FF 7F 73 32 30 33 05 80  4A F0 FF FF 7F CE 20 03  ..s203..J..... .
01F0: 01 1C 1B 80 52 11 80 F0  FF FF 7F F0 FF FF 7F 73  ....R..........s
0200: 32 30 33 45 11 80 F0 FF  FF 7F F0 FF FF 7F 73 32  203E..........s2
0210: 30 34 05 80 27 05 CE 20  03 01 1D 2A 05 CE 20 03  04..'.. ...*.. .
0220: 01 4A CE 20 03 01 F0 FF  FF 7F 1C 15 80 7B CE 20  .J. .........{. 
0230: 03 01 5B 1C 80 CE 20 03  01 CE 20 03 01 68 73 61  ..[... ... ..hsa
0240: 30 1C 14 80 52 11 80 F0  FF FF 7F F0 FF FF 7F 73  0...R..........s
0250: 32 30 34 45 18 80 F0 FF  FF 7F F0 FF FF 7F 73 30  204E..........s0
0260: 37 34 05 80 2B CE 20 03  01 1D 80 23 53 CE 20 03  74..+. ....#S. .
0270: 01 CE 20 03 01 68 73 61  30 52 18 80 F0 FF FF 7F  .. ..hsa0R......
0280: F0 FF FF 7F 73 30 37 34  45 11 80 F0 FF FF 7F F0  ....s074E.......
0290: FF FF 7F 73 32 30 35 05  80 BA CE 20 03 01 1E 80  ...s205.... ....
02A0: 1F 80 20 80 21 80 80 CE  20 03 01 27 05 CE 20 03  .. .!... ..'.. .
02B0: 01 1E 1C 14 80 2B CE 20  03 01 22 80 23 2A 05 CE  .....+. ..".#*..
02C0: 20 03 01 2B CE 20 03 01  23 80 23 52 11 80 F0 FF   ..+. ..#.#R....
02D0: FF 7F F0 FF FF 7F 73 32  30 35 45 11 80 F0 FF FF  ......s205E.....
02E0: 7F F0 FF FF 7F 73 32 30  36 05 80 4A F0 FF FF 7F  .....s206..J....
02F0: CE 20 03 01 4A F1 20 03  01 F0 FF FF 7F 5B 24 80  . ..J. ......[$.
0300: CE 20 03 01 CE 20 03 01  74 6C 6B 30 2B CE 20 03  . ... ..tlk0+. .
0310: 01 25 80 23 52 11 80 F0  FF FF 7F F0 FF FF 7F 73  .%.#R..........s
0320: 32 30 36 45 18 80 F0 FF  FF 7F F0 FF FF 7F 73 31  206E..........s1
0330: 34 39 05 80 1C 26 80 52  18 80 F0 FF FF 7F F0 FF  49...&.R........
0340: FF 7F 73 31 34 39 45 18  80 F0 FF FF 7F F0 FF FF  ..s149E.........
0350: 7F 73 31 35 30 05 80 2B  CE 20 03 01 27 80 23 5B  .s150..+. ..'.#[
0360: 24 80 CE 20 03 01 CE 20  03 01 74 6C 6B 31 52 18  $.. ... ..tlk1R.
0370: 80 F0 FF FF 7F F0 FF FF  7F 73 31 35 30 45 11 80  .........s150E..
0380: F0 FF FF 7F F0 FF FF 7F  73 32 30 37 05 80 2B CE  ........s207..+.
0390: 20 03 01 28 80 23 5B 29  80 CE 20 03 01 CE 20 03   ..(.#[).. ... .
03A0: 01 74 68 6B 30 2B CE 20  03 01 2A 80 23 52 11 80  .thk0+. ..*.#R..
03B0: F0 FF FF 7F F0 FF FF 7F  73 32 30 37 45 11 80 F0  ........s207E...
03C0: FF FF 7F F0 FF FF 7F 73  32 30 38 05 80 5B 29 80  .......s208..[).
03D0: CE 20 03 01 CE 20 03 01  74 68 6B 31 2B CE 20 03  . ... ..thk1+. .
03E0: 01 2B 80 23 24 2C 80 05  80 05 80 25 02 00 10 05  .+.#$,.....%....
03F0: 80 00 CE 04 52 11 80 F0  FF FF 7F F0 FF FF 7F 73  ....R..........s
0400: 32 30 38 45 18 80 F0 FF  FF 7F F0 FF FF 7F 73 31  208E..........s1
0410: 30 38 05 80 5B 24 80 CE  20 03 01 CE 20 03 01 74  08..[$.. ... ..t
0420: 6C 6B 30 2B CE 20 03 01  2D 80 23 5B 24 80 CE 20  lk0+. ..-.#[$.. 
0430: 03 01 CE 20 03 01 74 6C  6B 31 52 18 80 F0 FF FF  ... ..tlk1R.....
0440: 7F F0 FF FF 7F 73 31 30  38 45 11 80 F0 FF FF 7F  .....s108E......
0450: F0 FF FF 7F 73 32 30 39  05 80 66 05 80 F1 20 03  ....s209..f... .
0460: 01 F1 20 03 01 74 6C 6B  30 2B F1 20 03 01 2E 80  .. ..tlk0+. ....
0470: 23 66 05 80 F1 20 03 01  F1 20 03 01 74 65 6E 30  #f... ... ..ten0
0480: 52 11 80 F0 FF FF 7F F0  FF FF 7F 73 32 30 39 45  R..........s209E
0490: 18 80 F0 FF FF 7F F0 FF  FF 7F 73 31 35 31 05 80  ..........s151..
04A0: 2B F1 20 03 01 2F 80 23  52 18 80 F0 FF FF 7F F0  +. ../.#R.......
04B0: FF FF 7F 73 31 35 31 45  11 80 F0 FF FF 7F F0 FF  ...s151E........
04C0: FF 7F 73 32 30 38 05 80  01 E4 03 01 E8 04 02 00  ..s208..........
04D0: 10 30 80 00 E8 04 52 11  80 F0 FF FF 7F F0 FF FF  .0....R.........
04E0: 7F 73 32 30 38 01 E8 04  45 11 80 F0 FF FF 7F F0  .s208...E.......
04F0: FF FF 7F 73 32 31 30 05  80 5D 05 80 1B 80 5B 24  ...s210..]....[$
0500: 80 CE 20 03 01 CE 20 03  01 74 6C 6B 30 2B CE 20  .. ... ..tlk0+. 
0510: 03 01 31 80 23 52 11 80  F0 FF FF 7F F0 FF FF 7F  ..1.#R..........
0520: 73 32 31 30 45 18 80 F0  FF FF 7F F0 FF FF 7F 73  s210E..........s
0530: 31 35 32 05 80 2B CE 20  03 01 32 80 23 5B 24 80  152..+. ..2.#[$.
0540: CE 20 03 01 CE 20 03 01  74 6C 6B 31 52 18 80 F0  . ... ..tlk1R...
0550: FF FF 7F F0 FF FF 7F 73  31 35 32 45 11 80 F0 FF  .......s152E....
0560: FF 7F F0 FF FF 7F 73 32  31 31 05 80 4A F0 FF FF  ......s211..J...
0570: 7F F1 20 03 01 4A CE 20  03 01 F1 20 03 01 5C 00  .. ..J. ... ..\.
0580: 33 80 5C 01 33 80 9A 2B  F1 20 03 01 34 80 23 52  3.\.3..+. ..4.#R
0590: 11 80 F0 FF FF 7F F0 FF  FF 7F 73 32 31 31 45 11  ..........s211E.
05A0: 80 F0 FF FF 7F F0 FF FF  7F 73 32 31 32 05 80 5B  .........s212..[
05B0: 24 80 CE 20 03 01 CE 20  03 01 74 6C 6B 30 2B CE  $.. ... ..tlk0+.
05C0: 20 03 01 35 80 23 5B 24  80 CE 20 03 01 CE 20 03   ..5.#[$.. ... .
05D0: 01 74 6C 6B 31 52 11 80  F0 FF FF 7F F0 FF FF 7F  .tlk1R..........
05E0: 73 32 31 32 45 11 80 F0  FF FF 7F F0 FF FF 7F 73  s212E..........s
05F0: 32 31 33 05 80 2B F1 20  03 01 36 80 23 2B F1 20  213..+. ..6.#+. 
0600: 03 01 37 80 23 52 11 80  F0 FF FF 7F F0 FF FF 7F  ..7.#R..........
0610: 73 32 31 33 45 11 80 F0  FF FF 7F F0 FF FF 7F 73  s213E..........s
0620: 32 31 35 05 80 2B F1 20  03 01 38 80 23 52 11 80  215..+. ..8.#R..
0630: F0 FF FF 7F F0 FF FF 7F  73 32 31 35 45 11 80 F0  ........s215E...
0640: FF FF 7F F0 FF FF 7F 73  32 31 34 05 80 66 39 80  .......s214..f9.
0650: F1 20 03 01 F1 20 03 01  74 6C 62 30 2B F1 20 03  . ... ..tlb0+. .
0660: 01 3A 80 23 2B F1 20 03  01 3B 80 23 66 39 80 F1  .:.#+. ..;.#f9..
0670: 20 03 01 F1 20 03 01 74  6C 62 31 53 F1 20 03 01   ... ..tlb1S. ..
0680: F1 20 03 01 74 6C 62 31  52 11 80 F0 FF FF 7F F0  . ..tlb1R.......
0690: FF FF 7F 73 32 31 34 45  11 80 F0 FF FF 7F F0 FF  ...s214E........
06A0: FF 7F 73 32 31 36 05 80  29 05 F1 20 03 01 10 1C  ..s216..).. ....
06B0: 15 80 2B F1 20 03 01 3C  80 23 4A CE 20 03 01 F1  ..+. ..<.#J. ...
06C0: 20 03 01 1C 15 80 5B 24  80 CE 20 03 01 CE 20 03   .....[$.. ... .
06D0: 01 74 6C 6B 30 2B CE 20  03 01 3D 80 23 5B 24 80  .tlk0+. ..=.#[$.
06E0: CE 20 03 01 CE 20 03 01  74 6C 6B 31 52 11 80 F0  . ... ..tlk1R...
06F0: FF FF 7F F0 FF FF 7F 73  32 31 36 45 11 80 F0 FF  .......s216E....
0700: FF 7F F0 FF FF 7F 73 32  31 37 05 80 2B F1 20 03  ......s217..+. .
0710: 01 3E 80 23 52 11 80 F0  FF FF 7F F0 FF FF 7F 73  .>.#R..........s
0720: 32 31 37 45 11 80 F0 FF  FF 7F F0 FF FF 7F 73 32  217E..........s2
0730: 31 38 05 80 5B 24 80 CE  20 03 01 CE 20 03 01 74  18..[$.. ... ..t
0740: 6C 62 30 2B CE 20 03 01  3F 80 23 5B 24 80 CE 20  lb0+. ..?.#[$.. 
0750: 03 01 CE 20 03 01 74 6C  62 31 52 11 80 F0 FF FF  ... ..tlb1R.....
0760: 7F F0 FF FF 7F 73 32 31  38 45 11 80 F0 FF FF 7F  .....s218E......
0770: F0 FF FF 7F 73 32 31 39  05 80 2B F1 20 03 01 40  ....s219..+. ..@
0780: 80 23 5B 24 80 CE 20 03  01 CE 20 03 01 74 6C 62  .#[$.. ... ..tlb
0790: 30 2B CE 20 03 01 41 80  23 5B 24 80 CE 20 03 01  0+. ..A.#[$.. ..
07A0: CE 20 03 01 74 6C 62 31  52 11 80 F0 FF FF 7F F0  . ..tlb1R.......
07B0: FF FF 7F 73 32 31 39 45  11 80 F0 FF FF 7F F0 FF  ...s219E........
07C0: FF 7F 73 32 32 30 05 80  4A F1 20 03 01 F0 FF FF  ..s220..J. .....
07D0: 7F 1C 15 80 2B F1 20 03  01 42 80 23 52 11 80 F0  ....+. ..B.#R...
07E0: FF FF 7F F0 FF FF 7F 73  32 32 30 45 18 80 F0 FF  .......s220E....
07F0: FF 7F F0 FF FF 7F 73 31  30 39 05 80 66 05 80 F1  ......s109..f...
0800: 20 03 01 F1 20 03 01 74  6C 6B 30 2B F1 20 03 01   ... ..tlk0+. ..
0810: 43 80 23 66 05 80 F1 20  03 01 F1 20 03 01 74 65  C.#f... ... ..te
0820: 6E 30 5B 29 80 CE 20 03  01 CE 20 03 01 74 68 6B  n0[).. ... ..thk
0830: 30 2B CE 20 03 01 44 80  23 5B 29 80 CE 20 03 01  0+. ..D.#[).. ..
0840: CE 20 03 01 74 68 6B 31  52 18 80 F0 FF FF 7F F0  . ..thk1R.......
0850: FF FF 7F 73 31 30 39 45  18 80 F0 FF FF 7F F0 FF  ...s109E........
0860: FF 7F 73 31 31 30 05 80  66 05 80 F1 20 03 01 F1  ..s110..f... ...
0870: 20 03 01 74 6C 6B 30 2B  F1 20 03 01 45 80 23 66   ..tlk0+. ..E.#f
0880: 05 80 F1 20 03 01 F1 20  03 01 74 65 6E 30 52 18  ... ... ..ten0R.
0890: 80 F0 FF FF 7F F0 FF FF  7F 73 31 31 30 45 18 80  .........s110E..
08A0: F0 FF FF 7F F0 FF FF 7F  73 31 31 31 05 80 5B 24  ........s111..[$
08B0: 80 CE 20 03 01 CE 20 03  01 74 6C 62 30 2B CE 20  .. ... ..tlb0+. 
08C0: 03 01 46 80 23 2B CE 20  03 01 47 80 23 5B 24 80  ..F.#+. ..G.#[$.
08D0: CE 20 03 01 CE 20 03 01  74 6C 62 31 52 18 80 F0  . ... ..tlb1R...
08E0: FF FF 7F F0 FF FF 7F 73  31 31 31 45 11 80 F0 FF  .......s111E....
08F0: FF 7F F0 FF FF 7F 73 32  32 31 05 80 2B F1 20 03  ......s221..+. .
0900: 01 48 80 23 52 11 80 F0  FF FF 7F F0 FF FF 7F 73  .H.#R..........s
0910: 32 32 31 45 11 80 F0 FF  FF 7F F0 FF FF 7F 73 32  221E..........s2
0920: 32 33 05 80 27 05 F1 20  03 01 11 2B F1 20 03 01  23..'.. ...+. ..
0930: 49 80 23 2A 05 F1 20 03  01 5B 24 80 CE 20 03 01  I.#*.. ..[$.. ..
0940: CE 20 03 01 74 6C 62 30  2B CE 20 03 01 4A 80 23  . ..tlb0+. ..J.#
0950: 5B 24 80 CE 20 03 01 CE  20 03 01 74 6C 62 31 52  [$.. ... ..tlb1R
0960: 11 80 F0 FF FF 7F F0 FF  FF 7F 73 32 32 33 45 18  ..........s223E.
0970: 80 F0 FF FF 7F F0 FF FF  7F 73 31 31 32 05 80 2B  .........s112..+
0980: F1 20 03 01 4B 80 23 66  05 80 F1 20 03 01 F1 20  . ..K.#f... ... 
0990: 03 01 74 6C 6B 30 2B F1  20 03 01 4C 80 23 66 05  ..tlk0+. ..L.#f.
09A0: 80 F1 20 03 01 F1 20 03  01 74 65 6E 30 52 18 80  .. ... ..ten0R..
09B0: F0 FF FF 7F F0 FF FF 7F  73 31 31 32 45 18 80 F0  ........s112E...
09C0: FF FF 7F F0 FF FF 7F 73  31 31 33 05 80 5B 24 80  .......s113..[$.
09D0: CE 20 03 01 CE 20 03 01  74 6C 62 30 2B CE 20 03  . ... ..tlb0+. .
09E0: 01 4D 80 23 5B 24 80 CE  20 03 01 CE 20 03 01 74  .M.#[$.. ... ..t
09F0: 6C 62 31 52 18 80 F0 FF  FF 7F F0 FF FF 7F 73 31  lb1R..........s1
0A00: 31 33 45 18 80 F0 FF FF  7F F0 FF FF 7F 73 31 35  13E..........s15
0A10: 33 05 80 79 00 F1 20 03  01 CE 20 03 01 1C 14 80  3..y.. ... .....
0A20: 2B F1 20 03 01 4E 80 23  52 18 80 F0 FF FF 7F F0  +. ..N.#R.......
0A30: FF FF 7F 73 31 35 33 45  18 80 F0 FF FF 7F F0 FF  ...s153E........
0A40: FF 7F 73 31 31 34 05 80  7B F1 20 03 01 5B 24 80  ..s114..{. ..[$.
0A50: CE 20 03 01 CE 20 03 01  74 6C 62 30 2B CE 20 03  . ... ..tlb0+. .
0A60: 01 4F 80 23 5B 24 80 CE  20 03 01 CE 20 03 01 74  .O.#[$.. ... ..t
0A70: 6C 62 31 52 18 80 F0 FF  FF 7F F0 FF FF 7F 73 31  lb1R..........s1
0A80: 31 34 45 11 80 F0 FF FF  7F F0 FF FF 7F 73 32 32  14E..........s22
0A90: 34 05 80 66 05 80 F1 20  03 01 F1 20 03 01 74 6C  4..f... ... ..tl
0AA0: 6B 30 2B F1 20 03 01 50  80 23 45 04 80 F0 FF FF  k0+. ..P.#E.....
0AB0: 7F F0 FF FF 7F 66 64 6F  31 05 80 55 04 80 F0 FF  .....fdo1..U....
0AC0: FF 7F F0 FF FF 7F 66 64  6F 31 52 11 80 F0 FF FF  ......fdo1R.....
0AD0: 7F F0 FF FF 7F 73 32 32  34 6B 69 64 6C 30 F1 20  .....s224kidl0. 
0AE0: 03 01 4E 01 F0 FF FF 7F  4E 01 CE 20 03 01 4E 01  ..N.....N.. ..N.
0AF0: F1 20 03 01 2F 00 C7 20  03 01 4E 00 C7 20 03 01  . ../.. ..N.. ..
0B00: 2F 00 C4 20 03 01 4E 00  C4 20 03 01 2F 00 CA 20  /.. ..N.. ../.. 
0B10: 03 01 4E 00 CA 20 03 01  92 01 C7 20 03 01 92 01  ..N.. ..... ....
0B20: C4 20 03 01 92 01 CA 20  03 01 BA C7 20 03 01 51  . ..... .... ..Q
0B30: 80 52 80 20 80 53 80 80  C7 20 03 01 BA C4 20 03  .R. .S... .... .
0B40: 01 54 80 55 80 20 80 56  80 80 C4 20 03 01 BA CA  .T.U. .V... ....
0B50: 20 03 01 57 80 58 80 20  80 10 80 80 CA 20 03 01   ..W.X. ..... ..
0B60: 4A C7 20 03 01 CA 20 03  01 4A C4 20 03 01 CA 20  J. ... ..J. ... 
0B70: 03 01 45 11 80 F0 FF FF  7F F0 FF FF 7F 73 32 32  ..E..........s22
0B80: 35 05 80 1C 10 80 45 59  80 F0 FF FF 7F F0 FF FF  5.....EY........
0B90: 7F 65 66 6F 6E 05 80 55  59 80 F0 FF FF 7F F0 FF  .efon..UY.......
0BA0: FF 7F 65 66 6F 6E 2B F1  20 03 01 5A 80 23 52 11  ..efon+. ..Z.#R.
0BB0: 80 F0 FF FF 7F F0 FF FF  7F 73 32 32 35 45 11 80  .........s225E..
0BC0: F0 FF FF 7F F0 FF FF 7F  73 32 32 36 05 80 2B F1  ........s226..+.
0BD0: 20 03 01 5B 80 23 52 11  80 F0 FF FF 7F F0 FF FF   ..[.#R.........
0BE0: 7F 73 32 32 36 45 11 80  F0 FF FF 7F F0 FF FF 7F  .s226E..........
0BF0: 73 32 32 37 05 80 2B F1  20 03 01 5C 80 23 52 11  s227..+. ..\.#R.
0C00: 80 F0 FF FF 7F F0 FF FF  7F 73 32 32 37 45 18 80  .........s227E..
0C10: F0 FF FF 7F F0 FF FF 7F  73 31 35 34 05 80 2B F1  ........s154..+.
0C20: 20 03 01 5D 80 23 52 18  80 F0 FF FF 7F F0 FF FF   ..].#R.........
0C30: 7F 73 31 35 34 45 18 80  F0 FF FF 7F F0 FF FF 7F  .s154E..........
0C40: 73 31 31 35 05 80 27 05  C7 20 03 01 2A 27 05 C4  s115..'.. ..*'..
0C50: 20 03 01 1E 2B F1 20 03  01 5E 80 23 2A 05 C7 20   ...+. ..^.#*.. 
0C60: 03 01 2A 05 C4 20 03 01  1C 39 80 52 18 80 F0 FF  ..*.. ...9.R....
0C70: FF 7F F0 FF FF 7F 73 31  31 35 45 18 80 F0 FF FF  ......s115E.....
0C80: 7F F0 FF FF 7F 73 31 31  36 05 80 5B 5F 80 C7 20  .....s116..[_.. 
0C90: 03 01 C7 20 03 01 79 61  68 30 5B 60 80 C4 20 03  ... ..yah0[`.. .
0CA0: 01 C4 20 03 01 74 6C 6B  30 2B F1 20 03 01 61 80  .. ..tlk0+. ..a.
0CB0: 23 52 18 80 F0 FF FF 7F  F0 FF FF 7F 73 31 31 36  #R..........s116
0CC0: 45 11 80 F0 FF FF 7F F0  FF FF 7F 73 32 32 38 05  E..........s228.
0CD0: 80 5B 62 80 CA 20 03 01  CA 20 03 01 79 65 73 30  .[b.. ... ..yes0
0CE0: 2B F1 20 03 01 63 80 23  55 11 80 F0 FF FF 7F F0  +. ..c.#U.......
0CF0: FF FF 7F 73 32 32 38 45  04 80 F0 FF FF 7F F0 FF  ...s228E........
0D00: FF 7F 66 64 6F 31 05 80  55 04 80 F0 FF FF 7F F0  ..fdo1..U.......
0D10: FF FF 7F 66 64 6F 31 6B  69 64 6C 30 C4 20 03 01  ...fdo1kidl0. ..
0D20: 6B 69 64 6C 30 C7 20 03  01 6B 69 64 6C 30 CA 20  kidl0. ..kidl0. 
0D30: 03 01 4E 01 C7 20 03 01  4E 01 C4 20 03 01 4E 01  ..N.. ..N.. ..N.
0D40: CA 20 03 01 4E 00 CE 20  03 01 4E 00 F1 20 03 01  . ..N.. ..N.. ..
0D50: 4E 00 F0 FF FF 7F 80 CE  20 03 01 BA F1 20 03 01  N....... .... ..
0D60: 64 80 65 80 66 80 67 80  80 F1 20 03 01 80 F0 FF  d.e.f.g... .....
0D70: FF 7F 4A F1 20 03 01 F0  FF FF 7F 4A F0 FF FF 7F  ..J. ......J....
0D80: F1 20 03 01 45 18 80 F0  FF FF 7F F0 FF FF 7F 73  . ..E..........s
0D90: 31 35 35 05 80 1C 10 80  45 04 80 F0 FF FF 7F F0  155.....E.......
0DA0: FF FF 7F 66 64 69 31 05  80 55 04 80 F0 FF FF 7F  ...fdi1..U......
0DB0: F0 FF FF 7F 66 64 69 31  1C 1A 80 52 18 80 F0 FF  ....fdi1...R....
0DC0: FF 7F F0 FF FF 7F 73 31  35 35 45 18 80 F0 FF FF  ......s155E.....
0DD0: 7F F0 FF FF 7F 73 31 31  37 05 80 2B CE 20 03 01  .....s117..+. ..
0DE0: 68 80 23 5B 24 80 CE 20  03 01 CE 20 03 01 74 6C  h.#[$.. ... ..tl
0DF0: 6B 30 2B CE 20 03 01 69  80 23 5B 24 80 CE 20 03  k0+. ..i.#[$.. .
0E00: 01 CE 20 03 01 74 6C 6B  31 52 18 80 F0 FF FF 7F  .. ..tlk1R......
0E10: F0 FF FF 7F 73 31 31 37  45 18 80 F0 FF FF 7F F0  ....s117E.......
0E20: FF FF 7F 73 31 31 38 05  80 2B F1 20 03 01 6A 80  ...s118..+. ..j.
0E30: 23 2B F1 20 03 01 6B 80  23 45 04 80 F0 FF FF 7F  #+. ..k.#E......
0E40: F0 FF FF 7F 66 64 6F 31  05 80 55 04 80 F0 FF FF  ....fdo1..U.....
0E50: 7F F0 FF FF 7F 66 64 6F  31 52 18 80 F0 FF FF 7F  .....fdo1R......
0E60: F0 FF FF 7F 73 31 31 38  4E 01 F1 20 03 01 4E 01  ....s118N.. ..N.
0E70: F0 FF FF 7F 4E 01 CE 20  03 01 4E 00 CA 20 03 01  ....N.. ..N.. ..
0E80: 4E 00 C7 20 03 01 4E 00  C4 20 03 01 2F 00 A9 20  N.. ..N.. ../.. 
0E90: 03 01 4E 00 A9 20 03 01  2F 00 C5 20 03 01 4E 00  ..N.. ../.. ..N.
0EA0: C5 20 03 01 2F 00 C6 20  03 01 4E 00 C6 20 03 01  . ../.. ..N.. ..
0EB0: 4E 00 F1 20 03 01 92 01  A9 20 03 01 92 01 C5 20  N.. ..... ..... 
0EC0: 03 01 92 01 C6 20 03 01  29 05 CA 20 03 01 1B BA  ..... ..).. ....
0ED0: A9 20 03 01 6C 80 6D 80  6E 80 6F 80 80 A9 20 03  . ..l.m.n.o... .
0EE0: 01 BA C5 20 03 01 70 80  71 80 6E 80 6F 80 80 C5  ... ..p.q.n.o...
0EF0: 20 03 01 BA C6 20 03 01  72 80 73 80 6E 80 6F 80   .... ..r.s.n.o.
0F00: 80 C6 20 03 01 BA CA 20  03 01 74 80 75 80 0A 80  .. .... ..t.u...
0F10: 76 80 80 CA 20 03 01 BA  C7 20 03 01 77 80 78 80  v... .... ..w.x.
0F20: 20 80 76 80 80 C7 20 03  01 BA C4 20 03 01 79 80   .v... .... ..y.
0F30: 7A 80 7B 80 7C 80 80 C4  20 03 01 BA F1 20 03 01  z.{.|... .... ..
0F40: 7D 80 7E 80 20 80 7F 80  80 F1 20 03 01 4B F1 20  }.~. ..... ..K. 
0F50: 03 01 80 80 7C 00 F1 20  03 01 45 11 80 F0 FF FF  ....|.. ..E.....
0F60: 7F F0 FF FF 7F 73 32 32  32 05 80 27 05 EF 20 03  .....s222..'.. .
0F70: 01 05 1C 10 80 45 59 80  F0 FF FF 7F F0 FF FF 7F  .....EY.........
0F80: 65 66 6F 6E 05 80 55 59  80 F0 FF FF 7F F0 FF FF  efon..UY........
0F90: 7F 65 66 6F 6E 4A F2 20  03 01 C5 20 03 01 1C 14  .efonJ. ... ....
0FA0: 80 52 11 80 F0 FF FF 7F  F0 FF FF 7F 73 32 32 32  .R..........s222
0FB0: 45 11 80 F0 FF FF 7F F0  FF FF 7F 73 32 32 39 05  E..........s229.
0FC0: 80 27 05 C5 20 03 01 21  27 05 C6 20 03 01 1F 1C  .'.. ..!'.. ....
0FD0: 14 80 27 05 A9 20 03 01  25 1C 81 80 52 11 80 F0  ..'.. ..%...R...
0FE0: FF FF 7F F0 FF FF 7F 73  32 32 39 45 11 80 F0 FF  .......s229E....
0FF0: FF 7F F0 FF FF 7F 73 32  33 30 05 80 7A 00 C5 20  ......s230..z.. 
1000: 03 01 7A 00 C6 20 03 01  7A 00 A9 20 03 01 BA A9  ..z.. ..z.. ....
1010: 20 03 01 82 80 83 80 0E  80 84 80 80 A9 20 03 01   ............ ..
1020: 5B 85 80 A9 20 03 01 A9  20 03 01 73 74 62 30 27  [... ... ..stb0'
1030: 05 EF 20 03 01 06 BA C5  20 03 01 86 80 87 80 20  .. ..... ...... 
1040: 80 88 80 80 C5 20 03 01  BA C6 20 03 01 89 80 8A  ..... .... .....
1050: 80 8B 80 8C 80 80 C6 20  03 01 27 05 C5 20 03 01  ....... ..'.. ..
1060: 22 27 05 C6 20 03 01 20  4E 00 A9 20 03 01 2A 05  "'.. .. N.. ..*.
1070: C5 20 03 01 2A 05 C6 20  03 01 52 11 80 F0 FF FF  . ..*.. ..R.....
1080: 7F F0 FF FF 7F 73 32 33  30 45 11 80 F0 FF FF 7F  .....s230E......
1090: F0 FF FF 7F 73 32 33 32  05 80 66 8D 80 C5 20 03  ....s232..f... .
10A0: 01 C5 20 03 01 73 68 61  30 1C 15 80 66 06 80 C6  .. ..sha0...f...
10B0: 20 03 01 C6 20 03 01 73  68 61 30 53 C5 20 03 01   ... ..sha0S. ..
10C0: C5 20 03 01 73 68 61 30  53 C6 20 03 01 C6 20 03  . ..sha0S. ... .
10D0: 01 73 68 61 30 52 11 80  F0 FF FF 7F F0 FF FF 7F  .sha0R..........
10E0: 73 32 33 32 45 18 80 F0  FF FF 7F F0 FF FF 7F 73  s232E..........s
10F0: 31 35 36 05 80 2B C5 20  03 01 8E 80 23 2B C6 20  156..+. ....#+. 
1100: 03 01 8F 80 23 52 18 80  F0 FF FF 7F F0 FF FF 7F  ....#R..........
1110: 73 31 35 36 45 11 80 F0  FF FF 7F F0 FF FF 7F 73  s156E..........s
1120: 32 33 31 05 80 6B 69 64  6C 30 C5 20 03 01 6B 69  231..kidl0. ..ki
1130: 64 6C 30 C6 20 03 01 55  11 80 F0 FF FF 7F F0 FF  dl0. ..U........
1140: FF 7F 73 32 33 31 1C 15  80 45 18 80 F0 FF FF 7F  ..s231...E......
1150: F0 FF FF 7F 73 31 35 37  05 80 1C 15 80 1C 1B 80  ....s157........
1160: 52 18 80 F0 FF FF 7F F0  FF FF 7F 73 31 35 37 45  R..........s157E
1170: 11 80 F0 FF FF 7F F0 FF  FF 7F 73 32 33 33 05 80  ..........s233..
1180: 7B CA 20 03 01 4A F2 20  03 01 A9 20 03 01 BA CA  {. ..J. ... ....
1190: 20 03 01 90 80 91 80 20  80 92 80 80 CA 20 03 01   ...... ..... ..
11A0: BA F1 20 03 01 93 80 94  80 20 80 95 80 80 F1 20  .. ...... ..... 
11B0: 03 01 BA C4 20 03 01 96  80 97 80 20 80 98 80 80  .... ...... ....
11C0: C4 20 03 01 BA C7 20 03  01 99 80 9A 80 20 80 9B  . .... ...... ..
11D0: 80 80 C7 20 03 01 BA C5  20 03 01 9C 80 9D 80 20  ... .... ...... 
11E0: 80 9E 80 80 C5 20 03 01  BA C6 20 03 01 9F 80 A0  ..... .... .....
11F0: 80 20 80 A1 80 80 C6 20  03 01 1C 81 80 27 05 C7  . ..... .....'..
1200: 20 03 01 2B 27 05 C4 20  03 01 1F 5B A2 80 CA 20   ..+'.. ...[... 
1210: 03 01 CA 20 03 01 77 72  61 30 1C 15 80 52 11 80  ... ..wra0...R..
1220: F0 FF FF 7F F0 FF FF 7F  73 32 33 33 45 18 80 F0  ........s233E...
1230: FF FF 7F F0 FF FF 7F 73  31 34 38 05 80 2A 05 C7  .......s148..*..
1240: 20 03 01 2A 05 C4 20 03  01 53 CA 20 03 01 CA 20   ..*.. ..S. ... 
1250: 03 01 77 72 61 30 55 18  80 F0 FF FF 7F F0 FF FF  ..wra0U.........
1260: 7F 73 31 34 38 45 11 80  F0 FF FF 7F F0 FF FF 7F  .s148E..........
1270: 73 32 33 34 05 80 1C 14  80 5B A2 80 CA 20 03 01  s234.....[... ..
1280: CA 20 03 01 77 72 61 31  1C 26 80 52 11 80 F0 FF  . ..wra1.&.R....
1290: FF 7F F0 FF FF 7F 73 32  33 34 45 11 80 F0 FF FF  ......s234E.....
12A0: 7F F0 FF FF 7F 73 32 33  35 05 80 1C 17 80 5D 05  .....s235.....].
12B0: 80 1B 80 45 04 80 F0 FF  FF 7F F0 FF FF 7F 66 64  ...E..........fd
12C0: 6F 31 05 80 55 04 80 F0  FF FF 7F F0 FF FF 7F 66  o1..U..........f
12D0: 64 6F 31 52 11 80 F0 FF  FF 7F F0 FF FF 7F 73 32  do1R..........s2
12E0: 33 35 29 05 CA 20 03 01  1C 7C 01 F1 20 03 01 4E  35).. ...|.. ..N
12F0: 01 A9 20 03 01 2F 01 A9  20 03 01 4E 01 C5 20 03  .. ../.. ..N.. .
1300: 01 4E 01 C6 20 03 01 2F  01 C6 20 03 01 4E 01 CA  .N.. ../.. ..N..
1310: 20 03 01 4E 01 C7 20 03  01 2F 01 C7 20 03 01 4E   ..N.. ../.. ..N
1320: 01 C4 20 03 01 4E 00 F0  FF FF 7F 4E 00 CE 20 03  .. ..N.....N.. .
1330: 01 BA F1 20 03 01 A3 80  A4 80 20 80 A5 80 80 F1  ... ...... .....
1340: 20 03 01 4A F0 FF FF 7F  F1 20 03 01 4A CE 20 03   ..J..... ..J. .
1350: 01 F1 20 03 01 4A F1 20  03 01 F0 FF FF 7F 45 11  .. ..J. ......E.
1360: 80 F0 FF FF 7F F0 FF FF  7F 73 32 33 36 05 80 1C  .........s236...
1370: 10 80 45 04 80 F0 FF FF  7F F0 FF FF 7F 66 64 69  ..E..........fdi
1380: 31 05 80 55 04 80 F0 FF  FF 7F F0 FF FF 7F 66 64  1..U..........fd
1390: 69 31 2B F1 20 03 01 A6  80 23 52 11 80 F0 FF FF  i1+. ....#R.....
13A0: 7F F0 FF FF 7F 73 32 33  36 45 11 80 F0 FF FF 7F  .....s236E......
13B0: F0 FF FF 7F 73 32 33 37  05 80 2B F1 20 03 01 A7  ....s237..+. ...
13C0: 80 23 2B F1 20 03 01 A8  80 23 52 11 80 F0 FF FF  .#+. ....#R.....
13D0: 7F F0 FF FF 7F 73 32 33  37 45 11 80 F0 FF FF 7F  .....s237E......
13E0: F0 FF FF 7F 73 32 33 39  05 80 2B F1 20 03 01 A9  ....s239..+. ...
13F0: 80 23 2B F1 20 03 01 AA  80 23 52 11 80 F0 FF FF  .#+. ....#R.....
1400: 7F F0 FF FF 7F 73 32 33  39 45 11 80 F0 FF FF 7F  .....s239E......
1410: F0 FF FF 7F 73 32 34 30  05 80 4B CE 20 03 01 AB  ....s240..K. ...
1420: 80 1C 15 80 79 00 F0 FF  FF 7F CE 20 03 01 5B 24  ....y...... ..[$
1430: 80 CE 20 03 01 CE 20 03  01 74 6C 62 30 2B CE 20  .. ... ..tlb0+. 
1440: 03 01 AC 80 23 5B 24 80  CE 20 03 01 CE 20 03 01  ....#[$.. ... ..
1450: 74 6C 62 31 45 04 80 F0  FF FF 7F F0 FF FF 7F 66  tlb1E..........f
1460: 64 6F 31 05 80 55 04 80  F0 FF FF 7F F0 FF FF 7F  do1..U..........
1470: 66 64 6F 31 52 11 80 F0  FF FF 7F F0 FF FF 7F 73  fdo1R..........s
1480: 32 34 30 9F AD 80 D1 20  03 01 D1 20 03 01 73 74  240.... ... ..st
1490: 72 30 05 80 45 11 80 F0  FF FF 7F F0 FF FF 7F 73  r0..E..........s
14A0: 32 34 31 05 80 1C 10 80  45 04 80 F0 FF FF 7F F0  241.....E.......
14B0: FF FF 7F 66 64 69 31 05  80 55 04 80 F0 FF FF 7F  ...fdi1..U......
14C0: F0 FF FF 7F 66 64 69 31  1C 14 80 27 05 F0 FF FF  ....fdi1...'....
14D0: 7F B7 1C 1B 80 45 04 80  F0 FF FF 7F F0 FF FF 7F  .....E..........
14E0: 66 64 6F 31 05 80 55 04  80 F0 FF FF 7F F0 FF FF  fdo1..U.........
14F0: 7F 66 64 6F 31 52 11 80  F0 FF FF 7F F0 FF FF 7F  .fdo1R..........
1500: 73 32 34 31 7A 00 F0 FF  FF 7F 9F AD 80 D1 20 03  s241z......... .
1510: 01 D1 20 03 01 6B 69 6C  6C 05 80 6B 69 64 6C 30  .. ..kill..kidl0
1520: C4 20 03 01 4E 01 1E 20  03 01 1C 30 80 34 AE 80  . ..N.. ...0.4..
1530: 77 AF 80 B0 80 1C 30 80  4E 00 53 21 03 01 4E 00  w.....0.N.S!..N.
1540: CA 20 03 01 BA CA 20 03  01 B1 80 B2 80 B3 80 B4  . .... .........
1550: 80 80 CA 20 03 01 4E 00  C4 20 03 01 BA C4 20 03  ... ..N.. .... .
1560: 01 B5 80 B6 80 B3 80 B7  80 80 C4 20 03 01 4E 00  ........... ..N.
1570: 47 21 03 01 94 01 CA 20  03 01 94 01 C4 20 03 01  G!..... ..... ..
1580: 5B B8 80 CA 20 03 01 CA  20 03 01 6D 61 30 30 02  [... ... ..ma00.
1590: 02 10 05 80 00 A7 15 2D  F8 FF FF 7F F8 FF FF 7F  .......-........
15A0: 70 74 6B 6C 01 B4 15 2D  F8 FF FF 7F F8 FF FF 7F  ptkl...-........
15B0: 70 74 73 74 5C 00 B9 80  5C 01 B9 80 9A 45 11 80  ptst\...\....E..
15C0: F0 FF FF 7F F0 FF FF 7F  73 32 34 32 05 80 1C 10  ........s242....
15D0: 80 45 04 80 F0 FF FF 7F  F0 FF FF 7F 66 64 69 31  .E..........fdi1
15E0: 05 80 55 04 80 F0 FF FF  7F F0 FF FF 7F 66 64 69  ..U..........fdi
15F0: 31 1C 1A 80 52 11 80 F0  FF FF 7F F0 FF FF 7F 73  1...R..........s
1600: 32 34 32 45 11 80 F0 FF  FF 7F F0 FF FF 7F 73 32  242E..........s2
1610: 34 34 05 80 27 05 C4 20  03 01 20 2A 05 C4 20 03  44..'.. .. *.. .
1620: 01 55 11 80 F0 FF FF 7F  F0 FF FF 7F 73 32 34 34  .U..........s244
1630: 1C 15 80 45 11 80 F0 FF  FF 7F F0 FF FF 7F 73 32  ...E..........s2
1640: 34 35 05 80 5B BA 80 C4  20 03 01 C4 20 03 01 6D  45..[... ... ..m
1650: 61 30 30 2B C4 20 03 01  BB 80 23 55 11 80 F0 FF  a00+. ....#U....
1660: FF 7F F0 FF FF 7F 73 32  34 35 1C 15 80 45 11 80  ......s245...E..
1670: F0 FF FF 7F F0 FF FF 7F  73 32 34 38 05 80 2B CA  ........s248..+.
1680: 20 03 01 BC 80 23 2B CA  20 03 01 BD 80 23 52 11   ....#+. ....#R.
1690: 80 F0 FF FF 7F F0 FF FF  7F 73 32 34 38 45 11 80  .........s248E..
16A0: F0 FF FF 7F F0 FF FF 7F  73 32 34 37 05 80 2B CA  ........s247..+.
16B0: 20 03 01 BE 80 23 52 11  80 F0 FF FF 7F F0 FF FF   ....#R.........
16C0: 7F 73 32 34 37 45 11 80  F0 FF FF 7F F0 FF FF 7F  .s247E..........
16D0: 73 32 34 36 05 80 2B C4  20 03 01 BF 80 23 52 11  s246..+. ....#R.
16E0: 80 F0 FF FF 7F F0 FF FF  7F 73 32 34 36 45 18 80  .........s246E..
16F0: F0 FF FF 7F F0 FF FF 7F  73 31 35 38 05 80 2B CA  ........s158..+.
1700: 20 03 01 C0 80 23 52 18  80 F0 FF FF 7F F0 FF FF   ....#R.........
1710: 7F 73 31 35 38 45 18 80  F0 FF FF 7F F0 FF FF 7F  .s158E..........
1720: 73 31 35 39 05 80 2B C4  20 03 01 C1 80 23 52 18  s159..+. ....#R.
1730: 80 F0 FF FF 7F F0 FF FF  7F 73 31 35 39 45 C2 80  .........s159E..
1740: F0 FF FF 7F F0 FF FF 7F  73 30 38 35 05 80 6B 69  ........s085..ki
1750: 64 6C 30 C4 20 03 01 2B  CA 20 03 01 C3 80 23 2B  dl0. ..+. ....#+
1760: CA 20 03 01 C4 80 23 52  C2 80 F0 FF FF 7F F0 FF  . ....#R........
1770: FF 7F 73 30 38 35 45 C2  80 F0 FF FF 7F F0 FF FF  ..s085E.........
1780: 7F 73 31 30 30 05 80 2B  CA 20 03 01 C5 80 23 2B  .s100..+. ....#+
1790: CA 20 03 01 C6 80 23 52  C2 80 F0 FF FF 7F F0 FF  . ....#R........
17A0: FF 7F 73 31 30 30 45 18  80 F0 FF FF 7F F0 FF FF  ..s100E.........
17B0: 7F 73 31 36 30 05 80 2B  CA 20 03 01 C7 80 23 52  .s160..+. ....#R
17C0: 18 80 F0 FF FF 7F F0 FF  FF 7F 73 31 36 30 45 11  ..........s160E.
17D0: 80 F0 FF FF 7F F0 FF FF  7F 73 32 34 39 05 80 6B  .........s249..k
17E0: 69 64 6C 30 CA 20 03 01  4A CA 20 03 01 C4 20 03  idl0. ..J. ... .
17F0: 01 4A C4 20 03 01 CA 20  03 01 1C 15 80 2B C4 20  .J. ... .....+. 
1800: 03 01 C8 80 23 5B C9 80  CA 20 03 01 CA 20 03 01  ....#[... ... ..
1810: 74 6C 62 30 52 11 80 F0  FF FF 7F F0 FF FF 7F 73  tlb0R..........s
1820: 32 34 39 45 C2 80 F0 FF  FF 7F F0 FF FF 7F 73 30  249E..........s0
1830: 38 34 05 80 AE 03 CA 20  03 01 30 80 2B CA 20 03  84..... ..0.+. .
1840: 01 CA 80 23 5B C9 80 CA  20 03 01 CA 20 03 01 74  ...#[... ... ..t
1850: 6C 62 31 2B CA 20 03 01  CB 80 23 AE 04 CA 20 03  lb1+. ....#... .
1860: 01 00 00 55 C2 80 F0 FF  FF 7F F0 FF FF 7F 73 30  ...U..........s0
1870: 38 34 1C 15 80 45 C2 80  F0 FF FF 7F F0 FF FF 7F  84...E..........
1880: 73 31 30 31 05 80 5B CC  80 CA 20 03 01 CA 20 03  s101..[... ... .
1890: 01 74 6C 6B 30 2B CA 20  03 01 CD 80 23 2B CA 20  .tlk0+. ....#+. 
18A0: 03 01 CE 80 23 5B CC 80  CA 20 03 01 CA 20 03 01  ....#[... ... ..
18B0: 74 6C 6B 31 52 C2 80 F0  FF FF 7F F0 FF FF 7F 73  tlk1R..........s
18C0: 31 30 31 45 C2 80 F0 FF  FF 7F F0 FF FF 7F 73 30  101E..........s0
18D0: 38 36 05 80 2B CA 20 03  01 CF 80 23 2B C4 20 03  86..+. ....#+. .
18E0: 01 D0 80 23 2B CA 20 03  01 D1 80 23 52 C2 80 F0  ...#+. ....#R...
18F0: FF FF 7F F0 FF FF 7F 73  30 38 36 45 11 80 F0 FF  .......s086E....
1900: FF 7F F0 FF FF 7F 73 32  34 33 05 80 2B CA 20 03  ......s243..+. .
1910: 01 D2 80 23 52 11 80 F0  FF FF 7F F0 FF FF 7F 73  ...#R..........s
1920: 32 34 33 45 C2 80 F0 FF  FF 7F F0 FF FF 7F 73 30  243E..........s0
1930: 38 37 05 80 2B C4 20 03  01 D3 80 23 27 05 C4 20  87..+. ....#'.. 
1940: 03 01 21 1C 26 80 52 C2  80 F0 FF FF 7F F0 FF FF  ..!.&.R.........
1950: 7F 73 30 38 37 45 C2 80  F0 FF FF 7F F0 FF FF 7F  .s087E..........
1960: 73 30 38 38 05 80 2B CA  20 03 01 D4 80 23 2A 05  s088..+. ....#*.
1970: C4 20 03 01 4A CA 20 03  01 C4 20 03 01 5B 60 80  . ..J. ... ..[`.
1980: C4 20 03 01 C4 20 03 01  74 6C 6B 30 2B C4 20 03  . ... ..tlk0+. .
1990: 01 D5 80 23 5B 60 80 C4  20 03 01 C4 20 03 01 74  ...#[`.. ... ..t
19A0: 6C 6B 31 52 C2 80 F0 FF  FF 7F F0 FF FF 7F 73 30  lk1R..........s0
19B0: 38 38 45 C2 80 F0 FF FF  7F F0 FF FF 7F 73 30 38  88E..........s08
19C0: 39 05 80 5B 62 80 CA 20  03 01 CA 20 03 01 79 65  9..[b.. ... ..ye
19D0: 73 30 2B CA 20 03 01 D6  80 23 52 C2 80 F0 FF FF  s0+. ....#R.....
19E0: 7F F0 FF FF 7F 73 30 38  39 45 18 80 F0 FF FF 7F  .....s089E......
19F0: F0 FF FF 7F 73 31 38 31  05 80 4B CA 20 03 01 D7  ....s181..K. ...
1A00: 80 1C 15 80 2B C4 20 03  01 D8 80 23 52 18 80 F0  ....+. ....#R...
1A10: FF FF 7F F0 FF FF 7F 73  31 38 31 45 C2 80 F0 FF  .......s181E....
1A20: FF 7F F0 FF FF 7F 73 31  30 38 05 80 7B CA 20 03  ......s108..{. .
1A30: 01 2B CA 20 03 01 D9 80  23 52 C2 80 F0 FF FF 7F  .+. ....#R......
1A40: F0 FF FF 7F 73 31 30 38  45 C2 80 F0 FF FF 7F F0  ....s108E.......
1A50: FF FF 7F 73 30 39 30 05  80 2B CA 20 03 01 DA 80  ...s090..+. ....
1A60: 23 4B C4 20 03 01 D7 80  1C 15 80 2B CA 20 03 01  #K. .......+. ..
1A70: DB 80 23 52 C2 80 F0 FF  FF 7F F0 FF FF 7F 73 30  ..#R..........s0
1A80: 39 30 45 C2 80 F0 FF FF  7F F0 FF FF 7F 73 30 39  90E..........s09
1A90: 31 05 80 5B BA 80 C4 20  03 01 C4 20 03 01 6D 61  1..[... ... ..ma
1AA0: 30 30 5B 62 80 CA 20 03  01 CA 20 03 01 79 65 73  00[b.. ... ..yes
1AB0: 30 2B CA 20 03 01 DC 80  23 2B CA 20 03 01 DD 80  0+. ....#+. ....
1AC0: 23 52 C2 80 F0 FF FF 7F  F0 FF FF 7F 73 30 39 31  #R..........s091
1AD0: 45 C2 80 F0 FF FF 7F F0  FF FF 7F 73 30 39 32 05  E..........s092.
1AE0: 80 2B CA 20 03 01 DE 80  23 1C 15 80 52 C2 80 F0  .+. ....#...R...
1AF0: FF FF 7F F0 FF FF 7F 73  30 39 32 45 18 80 F0 FF  .......s092E....
1B00: FF 7F F0 FF FF 7F 73 31  36 31 05 80 5B B8 80 CA  ......s161..[...
1B10: 20 03 01 CA 20 03 01 6D  61 30 30 2B CA 20 03 01   ... ..ma00+. ..
1B20: DF 80 23 52 18 80 F0 FF  FF 7F F0 FF FF 7F 73 31  ..#R..........s1
1B30: 36 31 45 C2 80 F0 FF FF  7F F0 FF FF 7F 73 30 39  61E..........s09
1B40: 33 05 80 27 05 53 21 03  01 02 BA F0 FF FF 7F E0  3..'.S!.........
1B50: 80 E1 80 E2 80 E3 80 80  F0 FF FF 7F 5B BA 80 C4  ............[...
1B60: 20 03 01 C4 20 03 01 6D  61 30 31 53 C4 20 03 01   ... ..ma01S. ..
1B70: C4 20 03 01 6D 61 30 31  27 05 F0 FF FF 7F B8 1C  . ..ma01'.......
1B80: 15 80 52 C2 80 F0 FF FF  7F F0 FF FF 7F 73 30 39  ..R..........s09
1B90: 33 45 C2 80 F0 FF FF 7F  F0 FF FF 7F 73 30 39 34  3E..........s094
1BA0: 05 80 02 87 7F 30 80 80  BD 1B 33 01 37 E4 80 E5  .....0....3.7...
1BB0: 80 60 80 E6 80 80 F8 FF  FF 7F 01 54 1C 02 87 7F  .`.........T....
1BC0: B0 80 80 D8 1B 33 01 37  E4 80 E5 80 BA 80 E6 80  .....3.7........
1BD0: 80 F8 FF FF 7F 01 54 1C  02 87 7F E7 80 80 F3 1B  ......T.........
1BE0: 33 01 37 E4 80 E8 80 E9  80 E6 80 80 F8 FF FF 7F  3.7.............
1BF0: 01 54 1C 02 87 7F EA 80  80 0E 1C 33 01 37 E4 80  .T.........3.7..
1C00: E8 80 EB 80 E6 80 80 F8  FF FF 7F 01 54 1C 02 87  ............T...
1C10: 7F EC 80 80 29 1C 33 01  37 E4 80 E8 80 ED 80 E6  ....).3.7.......
1C20: 80 80 F8 FF FF 7F 01 54  1C 02 87 7F EE 80 80 44  .......T.......D
1C30: 1C 33 01 37 E4 80 EF 80  F0 80 E6 80 80 F8 FF FF  .3.7............
1C40: 7F 01 54 1C 33 01 37 E4  80 E8 80 F1 80 E6 80 80  ..T.3.7.........
1C50: F8 FF FF 7F 2A 05 F0 FF  FF 7F 27 05 53 21 03 01  ....*.....'.S!..
1C60: 03 55 C2 80 F0 FF FF 7F  F0 FF FF 7F 73 30 39 34  .U..........s094
1C70: 1C 15 80 45 C2 80 F0 FF  FF 7F F0 FF FF 7F 73 30  ...E..........s0
1C80: 39 37 05 80 5B B8 80 CA  20 03 01 CA 20 03 01 6D  97..[... ... ..m
1C90: 61 30 31 1C 17 80 2B CA  20 03 01 F2 80 23 53 CA  a01...+. ....#S.
1CA0: 20 03 01 CA 20 03 01 6D  61 30 31 52 C2 80 F0 FF   ... ..ma01R....
1CB0: FF 7F F0 FF FF 7F 73 30  39 37 45 C2 80 F0 FF FF  ......s097E.....
1CC0: 7F F0 FF FF 7F 73 30 39  35 05 80 48 F3 80 62 E7  .....s095..H..b.
1CD0: 80 F8 FF FF 7F F8 FF FF  7F 6D 61 69 6E 05 80 1C  .........main...
1CE0: F4 80 6B 69 64 6C 30 CA  20 03 01 6B 69 64 6C 30  ..kidl0. ..kidl0
1CF0: C4 20 03 01 4A C4 20 03  01 F0 FF FF 7F 4A CA 20  . ..J. ......J. 
1D00: 03 01 F0 FF FF 7F 1C F5  80 52 C2 80 F0 FF FF 7F  .........R......
1D10: F0 FF FF 7F 73 30 39 35  45 C2 80 F0 FF FF 7F F0  ....s095E.......
1D20: FF FF 7F 73 30 39 36 05  80 BA F0 FF FF 7F F6 80  ...s096.........
1D30: F7 80 E2 80 F8 80 80 F0  FF FF 7F 4A F0 FF FF 7F  ...........J....
1D40: CA 20 03 01 2B C4 20 03  01 F9 80 23 52 C2 80 F0  . ..+. ....#R...
1D50: FF FF 7F F0 FF FF 7F 73  30 39 36 45 C2 80 F0 FF  .......s096E....
1D60: FF 7F F0 FF FF 7F 73 31  30 36 05 80 AE 03 CA 20  ......s106..... 
1D70: 03 01 30 80 5B CC 80 CA  20 03 01 CA 20 03 01 74  ..0.[... ... ..t
1D80: 6C 6B 30 2B CA 20 03 01  FA 80 23 5B CC 80 CA 20  lk0+. ....#[... 
1D90: 03 01 CA 20 03 01 74 6C  6B 31 53 CA 20 03 01 CA  ... ..tlk1S. ...
1DA0: 20 03 01 74 6C 6B 31 27  05 CA 20 03 01 1F 1C 15   ..tlk1'.. .....
1DB0: 80 4B F0 FF FF 7F F8 80  27 05 C4 20 03 01 22 1C  .K......'.. ..".
1DC0: 26 80 52 C2 80 F0 FF FF  7F F0 FF FF 7F 73 31 30  &.R..........s10
1DD0: 36 45 C2 80 F0 FF FF 7F  F0 FF FF 7F 73 30 39 38  6E..........s098
1DE0: 05 80 7A 00 CA 20 03 01  7A 00 C4 20 03 01 BA CA  ..z.. ..z.. ....
1DF0: 20 03 01 FB 80 FC 80 E2  80 F8 80 80 CA 20 03 01   ............ ..
1E00: BA C4 20 03 01 FD 80 FE  80 E2 80 FF 80 80 C4 20  .. ............ 
1E10: 03 01 27 05 CA 20 03 01  20 27 05 C4 20 03 01 23  ..'.. .. '.. ..#
1E20: 2A 05 CA 20 03 01 2B CA  20 03 01 00 81 23 2A 05  *.. ..+. ....#*.
1E30: C4 20 03 01 52 C2 80 F0  FF FF 7F F0 FF FF 7F 73  . ..R..........s
1E40: 30 39 38 45 18 80 F0 FF  FF 7F F0 FF FF 7F 73 31  098E..........s1
1E50: 36 32 05 80 1C 1B 80 5B  C9 80 CA 20 03 01 CA 20  62.....[... ... 
1E60: 03 01 74 6C 62 30 52 18  80 F0 FF FF 7F F0 FF FF  ..tlb0R.........
1E70: 7F 73 31 36 32 45 C2 80  F0 FF FF 7F F0 FF FF 7F  .s162E..........
1E80: 73 30 39 39 05 80 5B 01  81 C4 20 03 01 C4 20 03  s099..[... ... .
1E90: 01 75 73 69 30 4A F0 FF  FF 7F CA 20 03 01 2B CA  .usi0J..... ..+.
1EA0: 20 03 01 02 81 23 2B CA  20 03 01 03 81 23 52 C2   ....#+. ....#R.
1EB0: 80 F0 FF FF 7F F0 FF FF  7F 73 30 39 39 45 18 80  .........s099E..
1EC0: F0 FF FF 7F F0 FF FF 7F  73 31 36 33 05 80 5B 01  ........s163..[.
1ED0: 81 C4 20 03 01 C4 20 03  01 68 69 6B 30 2B CA 20  .. ... ..hik0+. 
1EE0: 03 01 04 81 23 53 C4 20  03 01 C4 20 03 01 68 69  ....#S. ... ..hi
1EF0: 6B 30 52 C2 80 F0 FF FF  7F F0 FF FF 7F 73 31 36  k0R..........s16
1F00: 33 45 C2 80 F0 FF FF 7F  F0 FF FF 7F 73 31 30 32  3E..........s102
1F10: 05 80 5B 01 81 C4 20 03  01 C4 20 03 01 68 69 6B  ..[... ... ..hik
1F20: 31 5B C9 80 CA 20 03 01  CA 20 03 01 74 6C 62 31  1[... ... ..tlb1
1F30: 2B CA 20 03 01 05 81 23  24 06 81 05 80 05 80 25  +. ....#$......%
1F40: 02 00 10 05 80 00 8A 1F  52 C2 80 F0 FF FF 7F F0  ........R.......
1F50: FF FF 7F 73 31 30 32 45  C2 80 F0 FF FF 7F F0 FF  ...s102E........
1F60: FF 7F 73 31 30 33 05 80  2B C4 20 03 01 07 81 23  ..s103..+. ....#
1F70: 2B C4 20 03 01 08 81 23  52 C2 80 F0 FF FF 7F F0  +. ....#R.......
1F80: FF FF 7F 73 31 30 33 01  09 20 02 00 10 30 80 00  ...s103.. ...0..
1F90: 09 20 52 C2 80 F0 FF FF  7F F0 FF FF 7F 73 31 30  . R..........s10
1FA0: 32 45 C2 80 F0 FF FF 7F  F0 FF FF 7F 73 31 30 35  2E..........s105
1FB0: 05 80 2B CA 20 03 01 09  81 23 5B CC 80 CA 20 03  ..+. ....#[... .
1FC0: 01 CA 20 03 01 74 6C 6B  30 2B CA 20 03 01 0A 81  .. ..tlk0+. ....
1FD0: 23 5B CC 80 CA 20 03 01  CA 20 03 01 74 6C 6B 31  #[... ... ..tlk1
1FE0: 5B 01 81 C4 20 03 01 C4  20 03 01 75 64 65 30 2B  [... ... ..ude0+
1FF0: C4 20 03 01 0B 81 23 52  C2 80 F0 FF FF 7F F0 FF  . ....#R........
2000: FF 7F 73 31 30 35 01 09  20 5D 05 80 1B 80 45 C2  ..s105.. ]....E.
2010: 80 F0 FF FF 7F F0 FF FF  7F 73 32 34 35 05 80 6B  .........s245..k
2020: 69 64 6C 30 CA 20 03 01  6B 69 64 6C 30 C4 20 03  idl0. ..kidl0. .
2030: 01 BA F1 20 03 01 E0 80  E1 80 E2 80 E3 80 80 F1  ... ............
2040: 20 03 01 4A F1 20 03 01  CA 20 03 01 27 05 53 21   ..J. ... ..'.S!
2050: 03 01 02 4A CA 20 03 01  F1 20 03 01 4A F0 FF FF  ...J. ... ..J...
2060: 7F F1 20 03 01 4A C4 20  03 01 F1 20 03 01 1C 14  .. ..J. ... ....
2070: 80 27 05 F1 20 03 01 13  1C 14 80 52 C2 80 F0 FF  .'.. ......R....
2080: FF 7F F0 FF FF 7F 73 32  34 35 45 C2 80 F0 FF FF  ......s245E.....
2090: 7F F0 FF FF 7F 73 32 34  36 05 80 2B CA 20 03 01  .....s246..+. ..
20A0: 0C 81 23 2A 05 F1 20 03  01 1C 15 80 52 C2 80 F0  ..#*.. .....R...
20B0: FF FF 7F F0 FF FF 7F 73  32 34 36 45 C2 80 F0 FF  .......s246E....
20C0: FF 7F F0 FF FF 7F 73 31  30 39 05 80 2B F1 20 03  ......s109..+. .
20D0: 01 0D 81 23 52 C2 80 F0  FF FF 7F F0 FF FF 7F 73  ...#R..........s
20E0: 31 30 39 45 C2 80 F0 FF  FF 7F F0 FF FF 7F 73 31  109E..........s1
20F0: 31 30 05 80 2B C4 20 03  01 0E 81 23 52 C2 80 F0  10..+. ....#R...
2100: FF FF 7F F0 FF FF 7F 73  31 31 30 45 C2 80 F0 FF  .......s110E....
2110: FF 7F F0 FF FF 7F 73 31  31 31 05 80 27 05 CA 20  ......s111..'.. 
2120: 03 01 21 1C 10 80 4A F1  20 03 01 CA 20 03 01 27  ..!...J. ... ..'
2130: 05 C4 20 03 01 24 1C 15  80 27 05 F1 20 03 01 14  .. ..$...'.. ...
2140: 27 05 F0 FF FF 7F B9 1C  14 80 6A 05 80 15 80 10  '.........j.....
2150: 80 45 04 80 F0 FF FF 7F  F0 FF FF 7F 66 64 6F 31  .E..........fdo1
2160: 05 80 55 04 80 F0 FF FF  7F F0 FF FF 7F 66 64 6F  ..U..........fdo
2170: 31 52 C2 80 F0 FF FF 7F  F0 FF FF 7F 73 31 31 31  1R..........s111
2180: 7A 00 F0 FF FF 7F 7A 00  CA 20 03 01 7A 00 C4 20  z.....z.. ..z.. 
2190: 03 01 35 F4 80 78 1C 30  80 45 0F 81 F0 FF FF 7F  ..5..x.0.E......
21A0: F0 FF FF 7F 6E 6F 73 65  05 80 55 0F 81 F0 FF FF  ....nose..U.....
21B0: 7F F0 FF FF 7F 6E 6F 73  65 6A 10 81 14 80 10 80  .....nosej......
21C0: 2D F0 FF FF 7F F0 FF FF  7F 31 70 62 31 75 00 07  -........1pb1u..
21D0: 80 75 01 4E 00 1E 20 03  01 4E 00 C5 20 03 01 BA  .u.N.. ..N.. ...
21E0: C5 20 03 01 11 81 12 81  20 80 13 81 BA CA 20 03  . ...... ..... .
21F0: 01 14 81 15 81 16 81 5F  80 BA C4 20 03 01 17 81  ......._... ....
2200: 18 81 66 80 19 81 BA F0  FF FF 7F 1A 81 1B 81 16  ..f.............
2210: 81 1C 81 BA F1 20 03 01  1D 81 1E 81 16 81 1F 81  ..... ..........
2220: BA CE 20 03 01 20 81 21  81 20 80 22 81 80 C5 20  .. .. .!. ."... 
2230: 03 01 80 CA 20 03 01 80  C4 20 03 01 80 F0 FF FF  .... .... ......
2240: 7F 80 F1 20 03 01 80 CE  20 03 01 1C 10 80 4A CA  ... .... .....J.
2250: 20 03 01 C5 20 03 01 4A  C5 20 03 01 CA 20 03 01   ... ..J. ... ..
2260: 5C 00 23 81 5C 01 23 81  9A 27 05 CA 20 03 01 22  \.#.\.#..'.. .."
2270: 27 05 C4 20 03 01 25 27  05 F1 20 03 01 15 27 05  '.. ..%'.. ...'.
2280: F0 FF FF 7F BA 45 C2 80  F0 FF FF 7F F0 FF FF 7F  .....E..........
2290: 73 31 31 32 05 80 1C 10  80 45 04 80 F0 FF FF 7F  s112.....E......
22A0: F0 FF FF 7F 66 64 69 31  05 80 55 04 80 F0 FF FF  ....fdi1..U.....
22B0: 7F F0 FF FF 7F 66 64 69  31 2A 05 CA 20 03 01 4A  .....fdi1*.. ..J
22C0: F2 20 03 01 CA 20 03 01  4A CE 20 03 01 CA 20 03  . ... ..J. ... .
22D0: 01 2A 05 C4 20 03 01 52  C2 80 F0 FF FF 7F F0 FF  .*.. ..R........
22E0: FF 7F 73 31 31 32 45 C2  80 F0 FF FF 7F F0 FF FF  ..s112E.........
22F0: 7F 73 31 31 33 05 80 2B  C5 20 03 01 24 81 23 66  .s113..+. ..$.#f
2300: 8D 80 C5 20 03 01 C5 20  03 01 73 68 61 30 2B C5  ... ... ..sha0+.
2310: 20 03 01 25 81 23 2B C5  20 03 01 26 81 23 53 C5   ..%.#+. ..&.#S.
2320: 20 03 01 C5 20 03 01 73  68 61 30 52 C2 80 F0 FF   ... ..sha0R....
2330: FF 7F F0 FF FF 7F 73 31  31 33 45 18 80 F0 FF FF  ......s113E.....
2340: 7F F0 FF FF 7F 73 31 36  34 05 80 2B C4 20 03 01  .....s164..+. ..
2350: 27 81 23 52 18 80 F0 FF  FF 7F F0 FF FF 7F 73 31  '.#R..........s1
2360: 36 34 45 C2 80 F0 FF FF  7F F0 FF FF 7F 73 31 31  64E..........s11
2370: 34 05 80 2B C5 20 03 01  28 81 23 52 C2 80 F0 FF  4..+. ..(.#R....
2380: FF 7F F0 FF FF 7F 73 31  31 34 45 18 80 F0 FF FF  ......s114E.....
2390: 7F F0 FF FF 7F 73 30 37  35 05 80 2B C4 20 03 01  .....s075..+. ..
23A0: 29 81 23 2B C4 20 03 01  2A 81 23 52 18 80 F0 FF  ).#+. ..*.#R....
23B0: FF 7F F0 FF FF 7F 73 30  37 35 45 C2 80 F0 FF FF  ......s075E.....
23C0: 7F F0 FF FF 7F 73 31 31  35 05 80 66 8D 80 C5 20  .....s115..f... 
23D0: 03 01 C5 20 03 01 73 68  61 31 2B C5 20 03 01 2B  ... ..sha1+. ..+
23E0: 81 23 5B 62 80 CA 20 03  01 CA 20 03 01 74 75 6E  .#[b.. ... ..tun
23F0: 30 2B CA 20 03 01 2C 81  23 53 CA 20 03 01 CA 20  0+. ..,.#S. ... 
2400: 03 01 74 75 6E 30 52 C2  80 F0 FF FF 7F F0 FF FF  ..tun0R.........
2410: 7F 73 31 31 35 45 C2 80  F0 FF FF 7F F0 FF FF 7F  .s115E..........
2420: 73 31 31 36 05 80 2B C5  20 03 01 2D 81 23 2B C5  s116..+. ..-.#+.
2430: 20 03 01 2E 81 23 52 C2  80 F0 FF FF 7F F0 FF FF   ....#R.........
2440: 7F 73 31 31 36 45 C2 80  F0 FF FF 7F F0 FF FF 7F  .s116E..........
2450: 73 31 31 37 05 80 5B 62  80 CA 20 03 01 CA 20 03  s117..[b.. ... .
2460: 01 74 75 6E 31 2B CA 20  03 01 2F 81 23 2B C4 20  .tun1+. ../.#+. 
2470: 03 01 30 81 23 52 C2 80  F0 FF FF 7F F0 FF FF 7F  ..0.#R..........
2480: 73 31 31 37 45 C2 80 F0  FF FF 7F F0 FF FF 7F 73  s117E..........s
2490: 31 31 38 05 80 6E C5 20  03 01 31 81 99 C5 20 03  118..n. ..1... .
24A0: 01 2B C5 20 03 01 32 81  23 5B CC 80 CA 20 03 01  .+. ..2.#[... ..
24B0: CA 20 03 01 74 6C 6B 30  2B CA 20 03 01 33 81 23  . ..tlk0+. ..3.#
24C0: 5B CC 80 CA 20 03 01 CA  20 03 01 74 6C 6B 31 52  [... ... ..tlk1R
24D0: C2 80 F0 FF FF 7F F0 FF  FF 7F 73 31 31 38 45 18  ..........s118E.
24E0: 80 F0 FF FF 7F F0 FF FF  7F 73 31 31 39 05 80 5B  .........s119..[
24F0: 01 81 C4 20 03 01 C4 20  03 01 75 73 69 30 2B C5  ... ... ..usi0+.
2500: 20 03 01 34 81 23 52 18  80 F0 FF FF 7F F0 FF FF   ..4.#R.........
2510: 7F 73 31 31 39 45 18 80  F0 FF FF 7F F0 FF FF 7F  .s119E..........
2520: 73 31 32 30 05 80 79 00  F1 20 03 01 CA 20 03 01  s120..y.. ... ..
2530: 2B CA 20 03 01 35 81 23  AE 03 CA 20 03 01 30 80  +. ..5.#... ..0.
2540: 52 18 80 F0 FF FF 7F F0  FF FF 7F 73 31 32 30 45  R..........s120E
2550: C2 80 F0 FF FF 7F F0 FF  FF 7F 73 31 31 39 05 80  ..........s119..
2560: 7B F1 20 03 01 66 8D 80  C5 20 03 01 C5 20 03 01  {. ..f... ... ..
2570: 74 6C 6B 30 2B C5 20 03  01 36 81 23 66 8D 80 C5  tlk0+. ..6.#f...
2580: 20 03 01 C5 20 03 01 74  6C 6B 31 52 C2 80 F0 FF   ... ..tlk1R....
2590: FF 7F F0 FF FF 7F 73 31  31 39 45 C2 80 F0 FF FF  ......s119E.....
25A0: 7F F0 FF FF 7F 73 31 32  31 05 80 AE 04 CA 20 03  .....s121..... .
25B0: 01 00 00 5B CC 80 CA 20  03 01 CA 20 03 01 74 68  ...[... ... ..th
25C0: 6B 30 2B CA 20 03 01 37  81 23 52 C2 80 F0 FF FF  k0+. ..7.#R.....
25D0: 7F F0 FF FF 7F 73 31 32  31 45 C2 80 F0 FF FF 7F  .....s121E......
25E0: F0 FF FF 7F 73 31 32 30  05 80 AE 03 CA 20 03 01  ....s120..... ..
25F0: 30 80 5B CC 80 CA 20 03  01 CA 20 03 01 74 68 6B  0.[... ... ..thk
2600: 31 5B 01 81 C4 20 03 01  C4 20 03 01 75 64 65 30  1[... ... ..ude0
2610: 2B CA 20 03 01 38 81 23  55 C2 80 F0 FF FF 7F F0  +. ..8.#U.......
2620: FF FF 7F 73 31 32 30 1C  14 80 45 C2 80 F0 FF FF  ...s120...E.....
2630: 7F F0 FF FF 7F 73 31 32  32 05 80 1C 15 80 2B C5  .....s122.....+.
2640: 20 03 01 39 81 23 1C 15  80 52 C2 80 F0 FF FF 7F   ..9.#...R......
2650: F0 FF FF 7F 73 31 32 32  45 18 80 F0 FF FF 7F F0  ....s122E.......
2660: FF FF 7F 73 30 37 36 05  80 6B 69 64 6C 30 C4 20  ...s076..kidl0. 
2670: 03 01 66 8D 80 C5 20 03  01 C5 20 03 01 74 6C 6B  ..f... ... ..tlk
2680: 30 2B C5 20 03 01 3A 81  23 2B C5 20 03 01 3B 81  0+. ..:.#+. ..;.
2690: 23 66 8D 80 C5 20 03 01  C5 20 03 01 74 6C 6B 31  #f... ... ..tlk1
26A0: 52 18 80 F0 FF FF 7F F0  FF FF 7F 73 30 37 36 45  R..........s076E
26B0: C2 80 F0 FF FF 7F F0 FF  FF 7F 73 31 32 34 05 80  ..........s124..
26C0: 5B C9 80 CA 20 03 01 CA  20 03 01 74 6C 62 30 2B  [... ... ..tlb0+
26D0: CA 20 03 01 3C 81 23 5B  C9 80 CA 20 03 01 CA 20  . ..<.#[... ... 
26E0: 03 01 74 6C 62 31 2B CA  20 03 01 3D 81 23 52 C2  ..tlb1+. ..=.#R.
26F0: 80 F0 FF FF 7F F0 FF FF  7F 73 31 32 34 45 C2 80  .........s124E..
2700: F0 FF FF 7F F0 FF FF 7F  73 31 33 31 05 80 2B CA  ........s131..+.
2710: 20 03 01 3E 81 23 5B C9  80 CA 20 03 01 CA 20 03   ..>.#[... ... .
2720: 01 74 6C 62 30 52 C2 80  F0 FF FF 7F F0 FF FF 7F  .tlb0R..........
2730: 73 31 33 31 45 18 80 F0  FF FF 7F F0 FF FF 7F 73  s131E..........s
2740: 31 36 35 05 80 2B CA 20  03 01 3F 81 23 AE 04 CA  165..+. ..?.#...
2750: 20 03 01 00 00 5B C9 80  CA 20 03 01 CA 20 03 01   ....[... ... ..
2760: 74 6C 62 31 52 18 80 F0  FF FF 7F F0 FF FF 7F 73  tlb1R..........s
2770: 31 36 35 45 18 80 F0 FF  FF 7F F0 FF FF 7F 73 31  165E..........s1
2780: 32 31 05 80 66 8D 80 C5  20 03 01 C5 20 03 01 73  21..f... ... ..s
2790: 68 61 30 2B C5 20 03 01  40 81 23 53 C5 20 03 01  ha0+. ..@.#S. ..
27A0: C5 20 03 01 73 68 61 30  27 05 CE 20 03 01 1F 52  . ..sha0'.. ...R
27B0: 18 80 F0 FF FF 7F F0 FF  FF 7F 73 31 32 31 45 C2  ..........s121E.
27C0: 80 F0 FF FF 7F F0 FF FF  7F 73 31 32 33 05 80 2B  .........s123..+
27D0: CE 20 03 01 41 81 23 2A  05 CE 20 03 01 4A C4 20  . ..A.#*.. ..J. 
27E0: 03 01 CE 20 03 01 1C 15  80 4A CA 20 03 01 CE 20  ... .....J. ... 
27F0: 03 01 1C 15 80 52 C2 80  F0 FF FF 7F F0 FF FF 7F  .....R..........
2800: 73 31 32 33 45 18 80 F0  FF FF 7F F0 FF FF 7F 73  s123E..........s
2810: 31 36 36 05 80 4A F0 FF  FF 7F CE 20 03 01 4A F1  166..J..... ..J.
2820: 20 03 01 CE 20 03 01 2B  C4 20 03 01 42 81 23 52   ... ..+. ..B.#R
2830: 18 80 F0 FF FF 7F F0 FF  FF 7F 73 31 36 36 45 C2  ..........s166E.
2840: 80 F0 FF FF 7F F0 FF FF  7F 73 31 32 35 05 80 5B  .........s125..[
2850: 01 81 C4 20 03 01 C4 20  03 01 75 73 69 30 5B 24  ... ... ..usi0[$
2860: 80 CE 20 03 01 CE 20 03  01 74 6C 6B 30 2B CE 20  .. ... ..tlk0+. 
2870: 03 01 43 81 23 5B 24 80  CE 20 03 01 CE 20 03 01  ..C.#[$.. ... ..
2880: 74 6C 6B 31 52 C2 80 F0  FF FF 7F F0 FF FF 7F 73  tlk1R..........s
2890: 31 32 35 45 C2 80 F0 FF  FF 7F F0 FF FF 7F 73 31  125E..........s1
28A0: 32 36 05 80 2B CA 20 03  01 44 81 23 52 C2 80 F0  26..+. ..D.#R...
28B0: FF FF 7F F0 FF FF 7F 73  31 32 36 45 18 80 F0 FF  .......s126E....
28C0: FF 7F F0 FF FF 7F 73 31  36 37 05 80 4A F1 20 03  ......s167..J. .
28D0: 01 C4 20 03 01 2B C5 20  03 01 45 81 23 52 18 80  .. ..+. ..E.#R..
28E0: F0 FF FF 7F F0 FF FF 7F  73 31 36 37 45 18 80 F0  ........s167E...
28F0: FF FF 7F F0 FF FF 7F 73  31 36 38 05 80 5B 24 80  .......s168..[$.
2900: CE 20 03 01 CE 20 03 01  74 6C 6B 30 2B CE 20 03  . ... ..tlk0+. .
2910: 01 46 81 23 52 18 80 F0  FF FF 7F F0 FF FF 7F 73  .F.#R..........s
2920: 31 36 38 45 C2 80 F0 FF  FF 7F F0 FF FF 7F 73 31  168E..........s1
2930: 32 37 05 80 2B CE 20 03  01 47 81 23 2B CE 20 03  27..+. ..G.#+. .
2940: 01 48 81 23 5B 24 80 CE  20 03 01 CE 20 03 01 74  .H.#[$.. ... ..t
2950: 6C 6B 31 7C 00 CA 20 03  01 52 C2 80 F0 FF FF 7F  lk1|.. ..R......
2960: F0 FF FF 7F 73 31 32 37  45 C2 80 F0 FF FF 7F F0  ....s127E.......
2970: FF FF 7F 73 31 32 38 05  80 2B CA 20 03 01 49 81  ...s128..+. ..I.
2980: 23 7C 01 CA 20 03 01 55  C2 80 F0 FF FF 7F F0 FF  #|.. ..U........
2990: FF 7F 73 31 32 38 1C 15  80 45 18 80 F0 FF FF 7F  ..s128...E......
29A0: F0 FF FF 7F 73 31 36 39  05 80 2B C4 20 03 01 4A  ....s169..+. ..J
29B0: 81 23 52 18 80 F0 FF FF  7F F0 FF FF 7F 73 31 36  .#R..........s16
29C0: 39 45 C2 80 F0 FF FF 7F  F0 FF FF 7F 73 31 32 39  9E..........s129
29D0: 05 80 5B 29 80 CE 20 03  01 CE 20 03 01 74 68 6B  ..[).. ... ..thk
29E0: 30 2B CE 20 03 01 4B 81  23 5B 29 80 CE 20 03 01  0+. ..K.#[).. ..
29F0: CE 20 03 01 74 68 6B 31  52 C2 80 F0 FF FF 7F F0  . ..thk1R.......
2A00: FF FF 7F 73 31 32 39 45  C2 80 F0 FF FF 7F F0 FF  ...s129E........
2A10: FF 7F 73 31 33 30 05 80  79 00 F1 20 03 01 C5 20  ..s130..y.. ... 
2A20: 03 01 2B CA 20 03 01 4C  81 23 52 C2 80 F0 FF FF  ..+. ..L.#R.....
2A30: 7F F0 FF FF 7F 73 31 33  30 45 18 80 F0 FF FF 7F  .....s130E......
2A40: F0 FF FF 7F 73 30 37 37  05 80 4A CE 20 03 01 C5  ....s077..J. ...
2A50: 20 03 01 4A CA 20 03 01  CE 20 03 01 4A C4 20 03   ..J. ... ..J. .
2A60: 01 CE 20 03 01 66 8D 80  C5 20 03 01 C5 20 03 01  .. ..f... ... ..
2A70: 73 68 61 31 2B C5 20 03  01 4D 81 23 2B C5 20 03  sha1+. ..M.#+. .
2A80: 01 4E 81 23 52 18 80 F0  FF FF 7F F0 FF FF 7F 73  .N.#R..........s
2A90: 30 37 37 45 18 80 F0 FF  FF 7F F0 FF FF 7F 73 31  077E..........s1
2AA0: 32 32 05 80 5B 01 81 C4  20 03 01 C4 20 03 01 75  22..[... ... ..u
2AB0: 64 65 30 2B C4 20 03 01  4F 81 23 53 C4 20 03 01  de0+. ..O.#S. ..
2AC0: C4 20 03 01 75 64 65 30  52 18 80 F0 FF FF 7F F0  . ..ude0R.......
2AD0: FF FF 7F 73 31 32 32 45  C2 80 F0 FF FF 7F F0 FF  ...s122E........
2AE0: FF 7F 73 31 33 33 05 80  4A C4 20 03 01 CE 20 03  ..s133..J. ... .
2AF0: 01 5B 24 80 CE 20 03 01  CE 20 03 01 74 6C 62 30  .[$.. ... ..tlb0
2B00: 2B CE 20 03 01 50 81 23  5B 24 80 CE 20 03 01 CE  +. ..P.#[$.. ...
2B10: 20 03 01 74 6C 62 31 53  C5 20 03 01 C5 20 03 01   ..tlb1S. ... ..
2B20: 74 6C 6B 31 4A C5 20 03  01 CE 20 03 01 1C 15 80  tlk1J. ... .....
2B30: 2B C5 20 03 01 51 81 23  52 C2 80 F0 FF FF 7F F0  +. ..Q.#R.......
2B40: FF FF 7F 73 31 33 33 45  C2 80 F0 FF FF 7F F0 FF  ...s133E........
2B50: FF 7F 73 31 33 34 05 80  79 00 F1 20 03 01 CA 20  ..s134..y.. ... 
2B60: 03 01 5B 24 80 CE 20 03  01 CE 20 03 01 74 6C 62  ..[$.. ... ..tlb
2B70: 30 2B CE 20 03 01 52 81  23 5B 24 80 CE 20 03 01  0+. ..R.#[$.. ..
2B80: CE 20 03 01 74 6C 62 31  5B CC 80 CA 20 03 01 CA  . ..tlb1[... ...
2B90: 20 03 01 74 68 6B 30 2B  CA 20 03 01 53 81 23 5B   ..thk0+. ..S.#[
2BA0: CC 80 CA 20 03 01 CA 20  03 01 74 68 6B 31 52 C2  ... ... ..thk1R.
2BB0: 80 F0 FF FF 7F F0 FF FF  7F 73 31 33 34 45 18 80  .........s134E..
2BC0: F0 FF FF 7F F0 FF FF 7F  73 30 37 38 05 80 4A CE  ........s078..J.
2BD0: 20 03 01 CA 20 03 01 1C  15 80 5B 24 80 CE 20 03   ... .....[$.. .
2BE0: 01 CE 20 03 01 74 6C 62  30 2B CE 20 03 01 54 81  .. ..tlb0+. ..T.
2BF0: 23 5B 24 80 CE 20 03 01  CE 20 03 01 74 6C 62 31  #[$.. ... ..tlb1
2C00: 5B 01 81 C4 20 03 01 C4  20 03 01 75 64 65 31 2B  [... ... ..ude1+
2C10: C4 20 03 01 55 81 23 52  18 80 F0 FF FF 7F F0 FF  . ..U.#R........
2C20: FF 7F 73 30 37 38 45 C2  80 F0 FF FF 7F F0 FF FF  ..s078E.........
2C30: 7F 73 31 33 35 05 80 5B  24 80 CE 20 03 01 CE 20  .s135..[$.. ... 
2C40: 03 01 74 6C 62 30 2B CE  20 03 01 56 81 23 2B CE  ..tlb0+. ..V.#+.
2C50: 20 03 01 57 81 23 5B 24  80 CE 20 03 01 CE 20 03   ..W.#[$.. ... .
2C60: 01 74 6C 62 31 52 C2 80  F0 FF FF 7F F0 FF FF 7F  .tlb1R..........
2C70: 73 31 33 35 45 C2 80 F0  FF FF 7F F0 FF FF 7F 73  s135E..........s
2C80: 31 33 32 05 80 5B 58 81  CA 20 03 01 CA 20 03 01  132..[X.. ... ..
2C90: 74 6C 64 30 AE 03 CA 20  03 01 30 80 2B CA 20 03  tld0... ..0.+. .
2CA0: 01 59 81 23 AE 04 CA 20  03 01 00 00 5B 24 80 CE  .Y.#... ....[$..
2CB0: 20 03 01 CE 20 03 01 74  6C 62 30 2B CE 20 03 01   ... ..tlb0+. ..
2CC0: 5A 81 23 5B 24 80 CE 20  03 01 CE 20 03 01 74 6C  Z.#[$.. ... ..tl
2CD0: 62 31 52 C2 80 F0 FF FF  7F F0 FF FF 7F 73 31 33  b1R..........s13
2CE0: 32 45 18 80 F0 FF FF 7F  F0 FF FF 7F 73 31 37 30  2E..........s170
2CF0: 05 80 5B 58 81 CA 20 03  01 CA 20 03 01 74 6C 64  ..[X.. ... ..tld
2D00: 31 2B CA 20 03 01 5B 81  23 52 18 80 F0 FF FF 7F  1+. ..[.#R......
2D10: F0 FF FF 7F 73 31 37 30  45 18 80 F0 FF FF 7F F0  ....s170E.......
2D20: FF FF 7F 73 31 32 33 05  80 5B 24 80 CE 20 03 01  ...s123..[$.. ..
2D30: CE 20 03 01 74 6C 62 30  2B CE 20 03 01 5C 81 23  . ..tlb0+. ..\.#
2D40: 5B 24 80 CE 20 03 01 CE  20 03 01 74 6C 62 31 52  [$.. ... ..tlb1R
2D50: 18 80 F0 FF FF 7F F0 FF  FF 7F 73 31 32 33 45 18  ..........s123E.
2D60: 80 F0 FF FF 7F F0 FF FF  7F 73 31 32 34 05 80 4A  .........s124..J
2D70: F1 20 03 01 CE 20 03 01  1C 15 80 4A CE 20 03 01  . ... .....J. ..
2D80: F1 20 03 01 4A F0 FF FF  7F CE 20 03 01 2B F1 20  . ..J..... ..+. 
2D90: 03 01 5D 81 23 5B 24 80  CE 20 03 01 CE 20 03 01  ..].#[$.. ... ..
2DA0: 74 6C 62 30 2B CE 20 03  01 5E 81 23 5B 24 80 CE  tlb0+. ..^.#[$..
2DB0: 20 03 01 CE 20 03 01 74  6C 62 31 52 18 80 F0 FF   ... ..tlb1R....
2DC0: FF 7F F0 FF FF 7F 73 31  32 34 45 C2 80 F0 FF FF  ......s124E.....
2DD0: 7F F0 FF FF 7F 73 31 34  30 05 80 6B 69 64 6C 30  .....s140..kidl0
2DE0: C4 20 03 01 2B F1 20 03  01 5F 81 23 5B 24 80 CE  . ..+. .._.#[$..
2DF0: 20 03 01 CE 20 03 01 74  6C 62 30 2B CE 20 03 01   ... ..tlb0+. ..
2E00: 60 81 23 5B 24 80 CE 20  03 01 CE 20 03 01 74 6C  `.#[$.. ... ..tl
2E10: 62 31 27 05 CE 20 03 01  20 1C 1B 80 45 04 80 F0  b1'.. .. ...E...
2E20: FF FF 7F F0 FF FF 7F 66  64 6F 31 05 80 55 04 80  .......fdo1..U..
2E30: F0 FF FF 7F F0 FF FF 7F  66 64 6F 31 52 C2 80 F0  ........fdo1R...
2E40: FF FF 7F F0 FF FF 7F 73  31 34 30 4E 01 CE 20 03  .......s140N.. .
2E50: 01 4A F1 20 03 01 CA 20  03 01 4A F0 FF FF 7F CA  .J. ... ..J.....
2E60: 20 03 01 4A C5 20 03 01  CA 20 03 01 45 C2 80 F0   ..J. ... ..E...
2E70: FF FF 7F F0 FF FF 7F 73  31 33 36 05 80 1C 10 80  .......s136.....
2E80: 45 04 80 F0 FF FF 7F F0  FF FF 7F 66 64 69 31 05  E..........fdi1.
2E90: 80 55 04 80 F0 FF FF 7F  F0 FF FF 7F 66 64 69 31  .U..........fdi1
2EA0: AE 03 CA 20 03 01 30 80  5B 62 80 CA 20 03 01 CA  ... ..0.[b.. ...
2EB0: 20 03 01 79 65 73 30 2B  CA 20 03 01 61 81 23 66   ..yes0+. ..a.#f
2EC0: 8D 80 C5 20 03 01 C5 20  03 01 74 6C 6B 30 2B C5  ... ... ..tlk0+.
2ED0: 20 03 01 62 81 23 52 C2  80 F0 FF FF 7F F0 FF FF   ..b.#R.........
2EE0: 7F 73 31 33 36 45 C2 80  F0 FF FF 7F F0 FF FF 7F  .s136E..........
2EF0: 73 31 33 37 05 80 6B 69  64 6C 30 C5 20 03 01 4A  s137..kidl0. ..J
2F00: C4 20 03 01 C5 20 03 01  1C 15 80 4A CA 20 03 01  . ... .....J. ..
2F10: C5 20 03 01 1C 15 80 5B  60 80 C4 20 03 01 C4 20  . .....[`.. ... 
2F20: 03 01 74 6C 6B 30 2B C4  20 03 01 63 81 23 5B 60  ..tlk0+. ..c.#[`
2F30: 80 C4 20 03 01 C4 20 03  01 74 6C 6B 31 5B C9 80  .. ... ..tlk1[..
2F40: CA 20 03 01 CA 20 03 01  74 6C 62 30 2B CA 20 03  . ... ..tlb0+. .
2F50: 01 64 81 23 AE 04 CA 20  03 01 00 00 52 C2 80 F0  .d.#... ....R...
2F60: FF FF 7F F0 FF FF 7F 73  31 33 37 45 C2 80 F0 FF  .......s137E....
2F70: FF 7F F0 FF FF 7F 73 31  34 31 05 80 5D 05 80 1B  ......s141..]...
2F80: 80 5B 65 81 C5 20 03 01  C5 20 03 01 6C 73 74 30  .[e.. ... ..lst0
2F90: 1C 14 80 2B C5 20 03 01  66 81 23 5C 00 33 80 5C  ...+. ..f.#\.3.\
2FA0: 01 33 80 9A 52 C2 80 F0  FF FF 7F F0 FF FF 7F 73  .3..R..........s
2FB0: 31 34 31 45 18 80 F0 FF  FF 7F F0 FF FF 7F 73 31  141E..........s1
2FC0: 34 35 05 80 2B C5 20 03  01 67 81 23 52 18 80 F0  45..+. ..g.#R...
2FD0: FF FF 7F F0 FF FF 7F 73  31 34 35 45 C2 80 F0 FF  .......s145E....
2FE0: FF 7F F0 FF FF 7F 73 31  34 32 05 80 2B C4 20 03  ......s142..+. .
2FF0: 01 68 81 23 52 C2 80 F0  FF FF 7F F0 FF FF 7F 73  .h.#R..........s
3000: 31 34 32 45 C2 80 F0 FF  FF 7F F0 FF FF 7F 73 31  142E..........s1
3010: 34 33 05 80 6B 69 64 6C  30 CA 20 03 01 5B 65 81  43..kidl0. ..[e.
3020: C5 20 03 01 C5 20 03 01  6C 73 74 31 2B C5 20 03  . ... ..lst1+. .
3030: 01 69 81 23 2B C5 20 03  01 6A 81 23 52 C2 80 F0  .i.#+. ..j.#R...
3040: FF FF 7F F0 FF FF 7F 73  31 34 33 45 18 80 F0 FF  .......s143E....
3050: FF 7F F0 FF FF 7F 73 31  32 35 05 80 2B CA 20 03  ......s125..+. .
3060: 01 6B 81 23 52 18 80 F0  FF FF 7F F0 FF FF 7F 73  .k.#R..........s
3070: 31 32 35 45 18 80 F0 FF  FF 7F F0 FF FF 7F 73 31  125E..........s1
3080: 32 36 05 80 2B C5 20 03  01 6C 81 23 66 8D 80 C5  26..+. ..l.#f...
3090: 20 03 01 C5 20 03 01 74  6C 6B 30 2B C5 20 03 01   ... ..tlk0+. ..
30A0: 6D 81 23 66 8D 80 C5 20  03 01 C5 20 03 01 74 6C  m.#f... ... ..tl
30B0: 6B 31 52 18 80 F0 FF FF  7F F0 FF FF 7F 73 31 32  k1R..........s12
30C0: 36 45 18 80 F0 FF FF 7F  F0 FF FF 7F 73 31 32 37  6E..........s127
30D0: 05 80 AE 03 CA 20 03 01  30 80 5B 62 80 CA 20 03  ..... ..0.[b.. .
30E0: 01 CA 20 03 01 79 65 73  30 2B CA 20 03 01 6E 81  .. ..yes0+. ..n.
30F0: 23 AE 04 CA 20 03 01 00  00 2B CA 20 03 01 6F 81  #... ....+. ..o.
3100: 23 52 18 80 F0 FF FF 7F  F0 FF FF 7F 73 31 32 37  #R..........s127
3110: 45 18 80 F0 FF FF 7F F0  FF FF 7F 73 31 32 38 05  E..........s128.
3120: 80 4A C4 20 03 01 F0 FF  FF 7F 2B C5 20 03 01 70  .J. ......+. ..p
3130: 81 23 52 18 80 F0 FF FF  7F F0 FF FF 7F 73 31 32  .#R..........s12
3140: 38 45 C2 80 F0 FF FF 7F  F0 FF FF 7F 73 31 33 38  8E..........s138
3150: 05 80 2B C5 20 03 01 71  81 23 2B CA 20 03 01 72  ..+. ..q.#+. ..r
3160: 81 23 52 C2 80 F0 FF FF  7F F0 FF FF 7F 73 31 33  .#R..........s13
3170: 38 45 C2 80 F0 FF FF 7F  F0 FF FF 7F 73 31 33 39  8E..........s139
3180: 05 80 4A CA 20 03 01 F0  FF FF 7F 1C 15 80 4A C5  ..J. .........J.
3190: 20 03 01 F0 FF FF 7F 2B  CA 20 03 01 73 81 23 52   ......+. ..s.#R
31A0: C2 80 F0 FF FF 7F F0 FF  FF 7F 73 31 33 39 45 18  ..........s139E.
31B0: 80 F0 FF FF 7F F0 FF FF  7F 73 31 37 31 05 80 2B  .........s171..+
31C0: C4 20 03 01 74 81 23 5D  05 80 1B 80 45 04 80 F0  . ..t.#]....E...
31D0: FF FF 7F F0 FF FF 7F 66  64 6F 31 05 80 55 04 80  .......fdo1..U..
31E0: F0 FF FF 7F F0 FF FF 7F  66 64 6F 31 52 18 80 F0  ........fdo1R...
31F0: FF FF 7F F0 FF FF 7F 73  31 37 31 9F AD 80 D1 20  .......s171.... 
3200: 03 01 D1 20 03 01 73 74  72 30 05 80 45 C2 80 F0  ... ..str0..E...
3210: FF FF 7F F0 FF FF 7F 73  31 34 34 05 80 1C 10 80  .......s144.....
3220: 45 04 80 F0 FF FF 7F F0  FF FF 7F 66 64 69 31 05  E..........fdi1.
3230: 80 55 04 80 F0 FF FF 7F  F0 FF FF 7F 66 64 69 31  .U..........fdi1
3240: 27 05 CA 20 03 01 23 1C  10 80 27 05 C4 20 03 01  '.. ..#...'.. ..
3250: 26 1C 10 80 27 05 C5 20  03 01 23 1C 26 80 45 04  &...'.. ..#.&.E.
3260: 80 F0 FF FF 7F F0 FF FF  7F 66 64 6F 31 05 80 55  .........fdo1..U
3270: 04 80 F0 FF FF 7F F0 FF  FF 7F 66 64 6F 31 52 C2  ..........fdo1R.
3280: 80 F0 FF FF 7F F0 FF FF  7F 73 31 34 34 9F AD 80  .........s144...
3290: D1 20 03 01 D1 20 03 01  6B 69 6C 6C 05 80 7A 00  . ... ..kill..z.
32A0: CA 20 03 01 7A 00 C4 20  03 01 7A 00 C5 20 03 01  . ..z.. ..z.. ..
32B0: 4E 01 F0 FF FF 7F BA CA  20 03 01 75 81 76 81 0E  N....... ..u.v..
32C0: 80 77 81 80 CA 20 03 01  BA C4 20 03 01 78 81 79  .w... .... ..x.y
32D0: 81 66 80 77 81 80 C4 20  03 01 BA C5 20 03 01 7A  .f.w... .... ..z
32E0: 81 7B 81 66 80 77 81 80  C5 20 03 01 BA F1 20 03  .{.f.w... .... .
32F0: 01 7C 81 7D 81 20 80 7E  81 80 F1 20 03 01 4A F1  .|.}. .~... ..J.
3300: 20 03 01 CA 20 03 01 4A  F2 20 03 01 CA 20 03 01   ... ..J. ... ..
3310: 45 18 80 F0 FF FF 7F F0  FF FF 7F 73 31 37 32 05  E..........s172.
3320: 80 1C 10 80 45 04 80 F0  FF FF 7F F0 FF FF 7F 66  ....E..........f
3330: 64 69 31 05 80 55 04 80  F0 FF FF 7F F0 FF FF 7F  di1..U..........
3340: 66 64 69 31 55 18 80 F0  FF FF 7F F0 FF FF 7F 73  fdi1U..........s
3350: 31 37 32 1C 15 80 45 C2  80 F0 FF FF 7F F0 FF FF  172...E.........
3360: 7F 73 31 34 35 05 80 27  05 F1 20 03 01 16 27 05  .s145..'.. ...'.
3370: EF 20 03 01 05 2A 05 F1  20 03 01 27 05 CA 20 03  . ...*.. ..'.. .
3380: 01 24 27 05 C4 20 03 01  27 27 05 C5 20 03 01 24  .$'.. ..''.. ..$
3390: 2B F1 20 03 01 7F 81 23  52 C2 80 F0 FF FF 7F F0  +. ....#R.......
33A0: FF FF 7F 73 31 34 35 45  18 80 F0 FF FF 7F F0 FF  ...s145E........
33B0: FF 7F 73 31 37 33 05 80  79 00 F1 20 03 01 D1 20  ..s173..y.. ... 
33C0: 03 01 1C 1B 80 52 18 80  F0 FF FF 7F F0 FF FF 7F  .....R..........
33D0: 73 31 37 33 45 C2 80 F0  FF FF 7F F0 FF FF 7F 73  s173E..........s
33E0: 31 34 36 05 80 1C 1A 80  45 04 80 F0 FF FF 7F F0  146.....E.......
33F0: FF FF 7F 66 64 6F 31 05  80 55 04 80 F0 FF FF 7F  ...fdo1..U......
3400: F0 FF FF 7F 66 64 6F 31  52 C2 80 F0 FF FF 7F F0  ....fdo1R.......
3410: FF FF 7F 73 31 34 36 4E  01 C5 20 03 01 2F 01 C5  ...s146N.. ../..
3420: 20 03 01 4E 01 CA 20 03  01 2F 01 CA 20 03 01 4E   ..N.. ../.. ..N
3430: 01 C4 20 03 01 2F 01 C4  20 03 01 5C 00 23 81 5C  .. ../.. ..\.#.\
3440: 01 23 81 46 00 1C 14 80  45 04 80 F0 FF FF 7F F0  .#.F....E.......
3450: FF FF 7F 66 64 69 32 05  80 21 00                 ...fdi2..!.     
```

#### Opcodes

```
  0: 0x000D [0x42] SET_CLI_EVENT_CANCEL_DATA()
  1: 0x000E [0x45] LOAD_SCHEDULED_TASK: Load scheduler "fdo1" with entities [LocalPlayer, LocalPlayer], work=[200*, 0*]
  2: 0x001F [0x55] WAIT_LOAD_SCHEDULER: Wait for scheduler "fdo1" with entities [LocalPlayer, LocalPlayer], work=200*
  3: 0x002E [0x46] CAMERA_CONTROL: Disable user control
  4: 0x0030 [0x38] SET_CLIENT_EVENT_MODE(mode=19*)
  5: 0x0033 [0x75] LOAD_ROOM(Load indoor room, room=562*)
  6: 0x0037 [0x75] LOAD_ROOM(No action)
  7: 0x0039 [0x4E] SET_ENTITY_HIDE_FLAG: Show Gessho (ID: 16982222/0x010320CE)
  8: 0x003F [0x94] Nadeey (ID: 16982257/0x010320F1)->Render.Flags3 ^= 0x01
  9: 0x0045 [0x94] LocalPlayer->Render.Flags3 ^= 0x01
 10: 0x004B [0x94] Gessho (ID: 16982222/0x010320CE)->Render.Flags3 ^= 0x01
 11: 0x0051 [0x92] Nadeey (ID: 16982257/0x010320F1)->Render.Flags3 ^= 0x01
 12: 0x0057 [0x92] Gessho (ID: 16982222/0x010320CE)->Render.Flags3 ^= 0x01
 13: 0x005D [0x92] Kuhmden (ID: 16982258/0x010320F2)->Render.Flags3 ^= 0x01
 14: 0x0063 [0xBA] SET_ENTITY_POSITION(entity_id=LocalPlayer, pos_x=79.949*, pos_z=52.496*, pos_y=-0.060*, direction=270.0°*)
 15: 0x0070 [0xBA] SET_ENTITY_POSITION(entity_id=Gessho (ID: 16982222/0x010320CE), pos_x=79.945*, pos_z=26.673*, pos_y=-0.324*, direction=266.5°*)
 16: 0x007D [0x80] LOAD_WAIT(entity=LocalPlayer)
 17: 0x0082 [0x80] LOAD_WAIT(entity=Nadeey (ID: 16982257/0x010320F1))
 18: 0x0087 [0x80] LOAD_WAIT(entity=Gessho (ID: 16982222/0x010320CE))
 19: 0x008C [0x1C] WAIT(15* ticks)
 20: 0x008F [0x4A] LocalPlayer looks at Nadeey (ID: 16982257/0x010320F1)
 21: 0x0098 [0x4A] Nadeey (ID: 16982257/0x010320F1) looks at LocalPlayer
 22: 0x00A1 [0x45] LOAD_SCHEDULED_TASK: Load scheduler "s198" with entities [LocalPlayer, LocalPlayer], work=[193*, 0*]
 23: 0x00B2 [0x1C] WAIT(15* ticks)
 24: 0x00B5 [0x45] LOAD_SCHEDULED_TASK: Load scheduler "fdi1" with entities [LocalPlayer, LocalPlayer], work=[200*, 0*]
 25: 0x00C6 [0x55] WAIT_LOAD_SCHEDULER: Wait for scheduler "fdi1" with entities [LocalPlayer, LocalPlayer], work=200*
 26: 0x00D5 [0x2B] Nadeey (ID: 16982257/0x010320F1) [11180*]:
    → "Welcome to Walahra Temple.\u007F1\u0000\u0007"
 27: 0x00DC [0x23] WAIT_FOR_DIALOG_INTERACTION
 28: 0x00DD [0x52] END_LOAD_SCHEDULER: End scheduler "s198" with entities [LocalPlayer, LocalPlayer], work=193*
 29: 0x00EC [0x45] LOAD_SCHEDULED_TASK: Load scheduler "s199" with entities [LocalPlayer, LocalPlayer], work=[193*, 0*]
 30: 0x00FD [0x2B] Nadeey (ID: 16982257/0x010320F1) [11181*]:
    → "How may I aid you in your quest for knowledge?\u007F1\u0000\u0007"
 31: 0x0104 [0x23] WAIT_FOR_DIALOG_INTERACTION
 32: 0x0105 [0x52] END_LOAD_SCHEDULER: End scheduler "s199" with entities [LocalPlayer, LocalPlayer], work=193*
 33: 0x0114 [0x45] LOAD_SCHEDULED_TASK: Load scheduler "s200" with entities [LocalPlayer, LocalPlayer], work=[193*, 0*]
 34: 0x0125 [0x27] REQ_SET(priority=0x05, entity_id=Door: Walahra Temple (ID: 16982255/0x010320EF), tag_num=0x05)
 35: 0x012C [0x1C] WAIT(60* ticks)
 36: 0x012F [0x4A] Nadeey (ID: 16982257/0x010320F1) looks at Gessho (ID: 16982222/0x010320CE)
 37: 0x0138 [0x1C] WAIT(30* ticks)
 38: 0x013B [0x2B] Nadeey (ID: 16982257/0x010320F1) [11182*]:
    → "Hello, another soul thirsty for answers...\u007F1\u0000\u0007"
 39: 0x0142 [0x23] WAIT_FOR_DIALOG_INTERACTION
 40: 0x0143 [0x27] REQ_SET(priority=0x05, entity_id=Gessho (ID: 16982222/0x010320CE), tag_num=0x1C)
 41: 0x014A [0x1C] WAIT(30* ticks)
 42: 0x014D [0x52] END_LOAD_SCHEDULER: End scheduler "s200" with entities [LocalPlayer, LocalPlayer], work=193*
 43: 0x015C [0x45] LOAD_SCHEDULED_TASK: Load scheduler "s201" with entities [LocalPlayer, LocalPlayer], work=[193*, 0*]
 44: 0x016D [0x27] REQ_SET(priority=0x05, entity_id=Door: Walahra Temple (ID: 16982255/0x010320EF), tag_num=0x06)
 45: 0x0174 [0x1C] WAIT(240* ticks)
 46: 0x0177 [0x52] END_LOAD_SCHEDULER: End scheduler "s201" with entities [LocalPlayer, LocalPlayer], work=193*
 47: 0x0186 [0x45] LOAD_SCHEDULED_TASK: Load scheduler "s147" with entities [LocalPlayer, LocalPlayer], work=[191*, 0*]
 48: 0x0197 [0x2B] Nadeey (ID: 16982257/0x010320F1) [11183*]:
    → "This is turning out to be quite the day for visitors.\u007F1\u0000\u0007"
 49: 0x019E [0x23] WAIT_FOR_DIALOG_INTERACTION
 50: 0x019F [0x52] END_LOAD_SCHEDULER: End scheduler "s147" with entities [LocalPlayer, LocalPlayer], work=191*
 51: 0x01AE [0x45] LOAD_SCHEDULED_TASK: Load scheduler "s202" with entities [LocalPlayer, LocalPlayer], work=[193*, 0*]
 52: 0x01BF [0x2A] GET_REQ_LEVEL(level=5, entity_id=Gessho (ID: 16982222/0x010320CE))
 53: 0x01C5 [0x1C] WAIT(180* ticks)
 54: 0x01C8 [0x52] END_LOAD_SCHEDULER: End scheduler "s202" with entities [LocalPlayer, LocalPlayer], work=193*
 55: 0x01D7 [0x45] LOAD_SCHEDULED_TASK: Load scheduler "s203" with entities [LocalPlayer, LocalPlayer], work=[193*, 0*]
 56: 0x01E8 [0x4A] LocalPlayer looks at Gessho (ID: 16982222/0x010320CE)
 57: 0x01F1 [0x1C] WAIT(120* ticks)
 58: 0x01F4 [0x52] END_LOAD_SCHEDULER: End scheduler "s203" with entities [LocalPlayer, LocalPlayer], work=193*
 59: 0x0203 [0x45] LOAD_SCHEDULED_TASK: Load scheduler "s204" with entities [LocalPlayer, LocalPlayer], work=[193*, 0*]
 60: 0x0214 [0x27] REQ_SET(priority=0x05, entity_id=Gessho (ID: 16982222/0x010320CE), tag_num=0x1D)
 61: 0x021B [0x2A] GET_REQ_LEVEL(level=5, entity_id=Gessho (ID: 16982222/0x010320CE))
 62: 0x0221 [0x4A] Gessho (ID: 16982222/0x010320CE) looks at LocalPlayer
 63: 0x022A [0x1C] WAIT(30* ticks)
 64: 0x022D [0x7B] Gessho (ID: 16982222/0x010320CE) stops talking
 65: 0x0232 [0x5B] LOAD_EXT_SCHEDULER: Load scheduler "hsa0" with entities [Gessho (ID: 16982222/0x010320CE), Gessho (ID: 16982222/0x010320CE)], work=971*
 66: 0x0241 [0x1C] WAIT(60* ticks)
 67: 0x0244 [0x52] END_LOAD_SCHEDULER: End scheduler "s204" with entities [LocalPlayer, LocalPlayer], work=193*
 68: 0x0253 [0x45] LOAD_SCHEDULED_TASK: Load scheduler "s074" with entities [LocalPlayer, LocalPlayer], work=[191*, 0*]
 69: 0x0264 [0x2B] Gessho (ID: 16982222/0x010320CE) [11184*]:
    → "Greetings!\u007F1\u0000\u0007"
 70: 0x026B [0x23] WAIT_FOR_DIALOG_INTERACTION
 71: 0x026C [0x53] WAIT_SCHEDULER_TASK: Wait for scheduler "hsa0" with entities [Gessho (ID: 16982222/0x010320CE), Gessho (ID: 16982222/0x010320CE)]
 72: 0x0279 [0x52] END_LOAD_SCHEDULER: End scheduler "s074" with entities [LocalPlayer, LocalPlayer], work=191*
 73: 0x0288 [0x45] LOAD_SCHEDULED_TASK: Load scheduler "s205" with entities [LocalPlayer, LocalPlayer], work=[193*, 0*]
 74: 0x0299 [0xBA] SET_ENTITY_POSITION(entity_id=Gessho (ID: 16982222/0x010320CE), pos_x=84.849*, pos_z=48.106*, pos_y=0.480*, direction=37.1°*)
 75: 0x02A6 [0x80] LOAD_WAIT(entity=Gessho (ID: 16982222/0x010320CE))
 76: 0x02AB [0x27] REQ_SET(priority=0x05, entity_id=Gessho (ID: 16982222/0x010320CE), tag_num=0x1E)
 77: 0x02B2 [0x1C] WAIT(60* ticks)
 78: 0x02B5 [0x2B] Gessho (ID: 16982222/0x010320CE) [11185*]:
    → "\u0008!\u0007This is a coincidence.\u007F1\u0000\u0007"
 79: 0x02BC [0x23] WAIT_FOR_DIALOG_INTERACTION
 80: 0x02BD [0x2A] GET_REQ_LEVEL(level=5, entity_id=Gessho (ID: 16982222/0x010320CE))
 81: 0x02C3 [0x2B] Gessho (ID: 16982222/0x010320CE) [11186*]:
    → "Lord Nadeey, please excuse me while I compare notes with my esteemed colleague.\u007F1\u0000\u0007"
 82: 0x02CA [0x23] WAIT_FOR_DIALOG_INTERACTION
 83: 0x02CB [0x52] END_LOAD_SCHEDULER: End scheduler "s205" with entities [LocalPlayer, LocalPlayer], work=193*
 84: 0x02DA [0x45] LOAD_SCHEDULED_TASK: Load scheduler "s206" with entities [LocalPlayer, LocalPlayer], work=[193*, 0*]
 85: 0x02EB [0x4A] LocalPlayer looks at Gessho (ID: 16982222/0x010320CE)
 86: 0x02F4 [0x4A] Nadeey (ID: 16982257/0x010320F1) looks at LocalPlayer
 87: 0x02FD [0x5B] LOAD_EXT_SCHEDULER: Load scheduler "tlk0" with entities [Gessho (ID: 16982222/0x010320CE), Gessho (ID: 16982222/0x010320CE)], work=792*
 88: 0x030C [0x2B] Gessho (ID: 16982222/0x010320CE) [11187*]:
    → "How do you fare?\u0007Nothing terrible has befallen you?\u007F1\u0000\u0007"
 89: 0x0313 [0x23] WAIT_FOR_DIALOG_INTERACTION
 90: 0x0314 [0x52] END_LOAD_SCHEDULER: End scheduler "s206" with entities [LocalPlayer, LocalPlayer], work=193*
 91: 0x0323 [0x45] LOAD_SCHEDULED_TASK: Load scheduler "s149" with entities [LocalPlayer, LocalPlayer], work=[191*, 0*]
 92: 0x0334 [0x1C] WAIT(90* ticks)
 93: 0x0337 [0x52] END_LOAD_SCHEDULER: End scheduler "s149" with entities [LocalPlayer, LocalPlayer], work=191*
 94: 0x0346 [0x45] LOAD_SCHEDULED_TASK: Load scheduler "s150" with entities [LocalPlayer, LocalPlayer], work=[191*, 0*]
 95: 0x0357 [0x2B] Gessho (ID: 16982222/0x010320CE) [11188*]:
    → "No, no. You need not elaborate.\u007F1\u0000\u0007"
 96: 0x035E [0x23] WAIT_FOR_DIALOG_INTERACTION
 97: 0x035F [0x5B] LOAD_EXT_SCHEDULER: Load scheduler "tlk1" with entities [Gessho (ID: 16982222/0x010320CE), Gessho (ID: 16982222/0x010320CE)], work=792*
 98: 0x036E [0x52] END_LOAD_SCHEDULER: End scheduler "s150" with entities [LocalPlayer, LocalPlayer], work=191*
 99: 0x037D [0x45] LOAD_SCHEDULED_TASK: Load scheduler "s207" with entities [LocalPlayer, LocalPlayer], work=[193*, 0*]
100: 0x038E [0x2B] Gessho (ID: 16982222/0x010320CE) [11189*]:
    → "I'm sure you are here to give your weary spirit a moment's respite from the madness of our occupation.\u007F1\u0000\u0007"
101: 0x0395 [0x23] WAIT_FOR_DIALOG_INTERACTION
102: 0x0396 [0x5B] LOAD_EXT_SCHEDULER: Load scheduler "thk0" with entities [Gessho (ID: 16982222/0x010320CE), Gessho (ID: 16982222/0x010320CE)], work=254*
103: 0x03A5 [0x2B] Gessho (ID: 16982222/0x010320CE) [11190*]:
    → "Or perhaps...it is some duty that brings you to the temple?\u007F1\u0000\u0007"
104: 0x03AC [0x23] WAIT_FOR_DIALOG_INTERACTION
105: 0x03AD [0x52] END_LOAD_SCHEDULER: End scheduler "s207" with entities [LocalPlayer, LocalPlayer], work=193*
106: 0x03BC [0x45] LOAD_SCHEDULED_TASK: Load scheduler "s208" with entities [LocalPlayer, LocalPlayer], work=[193*, 0*]
107: 0x03CD [0x5B] LOAD_EXT_SCHEDULER: Load scheduler "thk1" with entities [Gessho (ID: 16982222/0x010320CE), Gessho (ID: 16982222/0x010320CE)], work=254*
108: 0x03DC [0x2B] Gessho (ID: 16982222/0x010320CE) [11191*]:
    → "What, pray tell, lures you within this hall of serenity?\u007F1\u0000\u0007"
109: 0x03E3 [0x23] WAIT_FOR_DIALOG_INTERACTION
110: 0x03E4 [0x24] CREATE_DIALOG(message_id=11192*, default_option=0*, option_flags=0*)
    → "Why have you come here?\u0007\u000BTo pursue Walahran philosophy.\u0007To speak with someone.\u007F1\u0000\u0007"
111: 0x03EB [0x25] WAIT_DIALOG_SELECT()
112: 0x03EC [0x02] IF !(Work_Zone[0] == 0*) GOTO 0x04CE
113: 0x03F4 [0x52] END_LOAD_SCHEDULER: End scheduler "s208" with entities [LocalPlayer, LocalPlayer], work=193*
114: 0x0403 [0x45] LOAD_SCHEDULED_TASK: Load scheduler "s108" with entities [LocalPlayer, LocalPlayer], work=[191*, 0*]
115: 0x0414 [0x5B] LOAD_EXT_SCHEDULER: Load scheduler "tlk0" with entities [Gessho (ID: 16982222/0x010320CE), Gessho (ID: 16982222/0x010320CE)], work=792*
116: 0x0423 [0x2B] Gessho (ID: 16982222/0x010320CE) [11196*]:
    → "Truly?\u0007A commendable endeavor, indeed.\u007F1\u0000\u0007"
117: 0x042A [0x23] WAIT_FOR_DIALOG_INTERACTION
118: 0x042B [0x5B] LOAD_EXT_SCHEDULER: Load scheduler "tlk1" with entities [Gessho (ID: 16982222/0x010320CE), Gessho (ID: 16982222/0x010320CE)], work=792*
119: 0x043A [0x52] END_LOAD_SCHEDULER: End scheduler "s108" with entities [LocalPlayer, LocalPlayer], work=191*
120: 0x0449 [0x45] LOAD_SCHEDULED_TASK: Load scheduler "s209" with entities [LocalPlayer, LocalPlayer], work=[193*, 0*]
121: 0x045A [0x66] LOAD_EXT_SCHEDULER_MAIN: Load scheduler "tlk0" with entities [Nadeey (ID: 16982257/0x010320F1), Nadeey (ID: 16982257/0x010320F1)], work=0*
122: 0x0469 [0x2B] Nadeey (ID: 16982257/0x010320F1) [11197*]:
    → "If you seek the wisdom of Walahra, then I would gladly set your feet upon the path.\u007F1\u0000\u0007"
123: 0x0470 [0x23] WAIT_FOR_DIALOG_INTERACTION
124: 0x0471 [0x66] LOAD_EXT_SCHEDULER_MAIN: Load scheduler "ten0" with entities [Nadeey (ID: 16982257/0x010320F1), Nadeey (ID: 16982257/0x010320F1)], work=0*
