# 16982268

## Common Data

| Field            | Value                         |
|------------------|-------------------------------|
| Zone             | Aht Urhgan Whitegate (ID: 50) |
| Block Size       | 34512 bytes                   |
| Total Events     | 18                            |
| References Count | 581                           |

## List of Events

| Event ID              | Entrypoint   |   Size |   Instructions |
|-----------------------|--------------|--------|----------------|
| [65535](#event-65535) | 0x0000       |      1 |              1 |
| [1](#event-1)         | 0x0001       |   2027 |            266 |
| [2](#event-2)         | 0x07EC       |    858 |            113 |
| [3](#event-3)         | 0x0B46       |   5832 |            749 |
| [39](#event-39)       | 0x220E       |   1440 |            177 |
| [40](#event-40)       | 0x27AE       |   1831 |            233 |
| [41](#event-41)       | 0x2ED5       |   1510 |            184 |
| [42](#event-42)       | 0x34BB       |    905 |            116 |
| [43](#event-43)       | 0x3844       |   1698 |            198 |
| [44](#event-44)       | 0x3EE6       |   1006 |            138 |
| [45](#event-45)       | 0x42D4       |   2878 |            370 |
| [686](#event-686)     | 0x4E12       |   3893 |            448 |
| [684](#event-684)     | 0x5D47       |    338 |             45 |
| [690](#event-690)     | 0x5E99       |   2036 |            229 |
| [691](#event-691)     | 0x668D       |   2358 |            263 |
| [692](#event-692)     | 0x6FC3       |    402 |             54 |
| [695](#event-695)     | 0x7155       |   2358 |            274 |
| [696](#event-696)     | 0x7A8B       |    729 |             83 |

## DAT References (imed_data)

|   Index | Hex Value   |   Dec Value |
|---------|-------------|-------------|
|       0 | 0x0013      |          19 |
|       1 | 0x000F      |          15 |
|       2 | 0x0106      |         262 |
|       3 | 0x0000      |           0 |
|       4 | 0x0014      |          20 |
|       5 | 0x1266      |        4710 |
|       6 | 0x1267      |        4711 |
|       7 | 0x1268      |        4712 |
|       8 | 0x0078      |         120 |
|       9 | 0x003C      |          60 |
|      10 | 0x1269      |        4713 |
|      11 | 0x002D      |          45 |
|      12 | 0x0064      |         100 |
|      13 | 0x00A3      |         163 |
|      14 | 0x126A      |        4714 |
|      15 | 0x0005      |           5 |
|      16 | 0x126B      |        4715 |
|      17 | 0x126C      |        4716 |
|      18 | 0x126D      |        4717 |
|      19 | 0x126E      |        4718 |
|      20 | 0x0031      |          49 |
|      21 | 0x126F      |        4719 |
|      22 | 0x001E      |          30 |
|      23 | 0x1270      |        4720 |
|      24 | 0x0019      |          25 |
|      25 | 0x0028      |          40 |
|      26 | 0x1271      |        4721 |
|      27 | 0x1272      |        4722 |
|      28 | 0x0021      |          33 |
|      29 | 0x1273      |        4723 |
|      30 | 0x0046      |          70 |
|      31 | 0x00C8      |         200 |
|      32 | 0x00B4      |         180 |
|      33 | 0x0050      |          80 |
|      34 | 0x0015      |          21 |
|      35 | 0x00B2      |         178 |
|      36 | 0x0002      |           2 |
|      37 | 0x1274      |        4724 |
|      38 | 0x1275      |        4725 |
|      39 | 0x1276      |        4726 |
|      40 | 0x1277      |        4727 |
|      41 | 0x1278      |        4728 |
|      42 | 0x1279      |        4729 |
|      43 | 0x127A      |        4730 |
|      44 | 0x127B      |        4731 |
|      45 | 0x127C      |        4732 |
|      46 | 0x127D      |        4733 |
|      47 | 0x127E      |        4734 |
|      48 | 0x127F      |        4735 |
|      49 | 0x1280      |        4736 |
|      50 | 0x1281      |        4737 |
|      51 | 0x1282      |        4738 |
|      52 | 0x1283      |        4739 |
|      53 | 0x1284      |        4740 |
|      54 | 0x1285      |        4741 |
|      55 | 0x1286      |        4742 |
|      56 | 0x1287      |        4743 |
|      57 | 0x1288      |        4744 |
|      58 | 0x1289      |        4745 |
|      59 | 0x1031      |        4145 |
|      60 | 0x128A      |        4746 |
|      61 | 0x0007      |           7 |
|      62 | 0x128B      |        4747 |
|      63 | 0x128C      |        4748 |
|      64 | 0x0096      |         150 |
|      65 | 0x128D      |        4749 |
|      66 | 0x128E      |        4750 |
|      67 | 0x128F      |        4751 |
|      68 | 0x006E      |         110 |
|      69 | 0x1290      |        4752 |
|      70 | 0x012C      |         300 |
|      71 | 0x0003      |           3 |
|      72 | 0x000C      |          12 |
|      73 | 0x1291      |        4753 |
|      74 | 0x1292      |        4754 |
|      75 | 0x001D      |          29 |
|      76 | 0x1293      |        4755 |
|      77 | 0x1294      |        4756 |
|      78 | 0x1295      |        4757 |
|      79 | 0x0016      |          22 |
|      80 | 0x1296      |        4758 |
|      81 | 0x005A      |          90 |
|      82 | 0x1297      |        4759 |
|      83 | 0x1298      |        4760 |
|      84 | 0x1299      |        4761 |
|      85 | 0x129A      |        4762 |
|      86 | 0x0004      |           4 |
|      87 | 0x129B      |        4763 |
|      88 | 0x129C      |        4764 |
|      89 | 0x129D      |        4765 |
|      90 | 0x0022      |          34 |
|      91 | 0x129E      |        4766 |
|      92 | 0x0024      |          36 |
|      93 | 0x000B      |          11 |
|      94 | 0x129F      |        4767 |
|      95 | 0x12A0      |        4768 |
|      96 | 0x000A      |          10 |
|      97 | 0x00E1      |         225 |
|      98 | 0x12A1      |        4769 |
|      99 | 0x12A2      |        4770 |
|     100 | 0x12A3      |        4771 |
|     101 | 0x0082      |         130 |
|     102 | 0x001A      |          26 |
|     103 | 0x0037      |          55 |
|     104 | 0x12A4      |        4772 |
|     105 | 0x12A5      |        4773 |
|     106 | 0x12A6      |        4774 |
|     107 | 0x12A7      |        4775 |
|     108 | 0x12A8      |        4776 |
|     109 | 0x0032      |          50 |
|     110 | 0x12A9      |        4777 |
|     111 | 0x12AA      |        4778 |
|     112 | 0x12AB      |        4779 |
|     113 | 0x12AC      |        4780 |
|     114 | 0x12AD      |        4781 |
|     115 | 0x12AE      |        4782 |
|     116 | 0x12AF      |        4783 |
|     117 | 0x12B0      |        4784 |
|     118 | 0x12B1      |        4785 |
|     119 | 0x12B2      |        4786 |
|     120 | 0x12B3      |        4787 |
|     121 | 0x12B4      |        4788 |
|     122 | 0x12B5      |        4789 |
|     123 | 0x0006      |           6 |
|     124 | 0x12B6      |        4790 |
|     125 | 0x12B7      |        4791 |
|     126 | 0x009F      |         159 |
|     127 | 0x12B8      |        4792 |
|     128 | 0x12B9      |        4793 |
|     129 | 0x12BA      |        4794 |
|     130 | 0x12BB      |        4795 |
|     131 | 0x12BC      |        4796 |
|     132 | 0x12BD      |        4797 |
|     133 | 0x12BE      |        4798 |
|     134 | 0x12BF      |        4799 |
|     135 | 0x12C0      |        4800 |
|     136 | 0x12C1      |        4801 |
|     137 | 0x12C2      |        4802 |
|     138 | 0x12C3      |        4803 |
|     139 | 0x0400      |        1024 |
|     140 | 0x12C4      |        4804 |
|     141 | 0x12C5      |        4805 |
|     142 | 0x12C6      |        4806 |
|     143 | 0x12C7      |        4807 |
|     144 | 0x12C8      |        4808 |
|     145 | 0x12C9      |        4809 |
|     146 | 0x00F0      |         240 |
|     147 | 0x12CA      |        4810 |
|     148 | 0x12CB      |        4811 |
|     149 | 0x12CC      |        4812 |
|     150 | 0x12CD      |        4813 |
|     151 | 0x12CE      |        4814 |
|     152 | 0x12CF      |        4815 |
|     153 | 0x12D0      |        4816 |
|     154 | 0x12D1      |        4817 |
|     155 | 0x12D2      |        4818 |
|     156 | 0x008C      |         140 |
|     157 | 0x12D3      |        4819 |
|     158 | 0x12D4      |        4820 |
|     159 | 0x12D5      |        4821 |
|     160 | 0x12D6      |        4822 |
|     161 | 0x12D7      |        4823 |
|     162 | 0x12D8      |        4824 |
|     163 | 0x12D9      |        4825 |
|     164 | 0x12DA      |        4826 |
|     165 | 0x12DB      |        4827 |
|     166 | 0x12DC      |        4828 |
|     167 | 0x12DD      |        4829 |
|     168 | 0x12DE      |        4830 |
|     169 | 0x12DF      |        4831 |
|     170 | 0x12E0      |        4832 |
|     171 | 0x12E1      |        4833 |
|     172 | 0x12E2      |        4834 |
|     173 | 0x12E3      |        4835 |
|     174 | 0x12E4      |        4836 |
|     175 | 0x12E5      |        4837 |
|     176 | 0x12E6      |        4838 |
|     177 | 0x12E7      |        4839 |
|     178 | 0x12E8      |        4840 |
|     179 | 0x12E9      |        4841 |
|     180 | 0x12EA      |        4842 |
|     181 | 0x0001      |           1 |
|     182 | 0x12EB      |        4843 |
|     183 | 0x12EC      |        4844 |
|     184 | 0x0107      |         263 |
|     185 | 0x2348      |        9032 |
|     186 | 0x2349      |        9033 |
|     187 | 0x234A      |        9034 |
|     188 | 0x234C      |        9036 |
|     189 | 0x234D      |        9037 |
|     190 | 0x0029      |          41 |
|     191 | 0x234E      |        9038 |
|     192 | 0x234F      |        9039 |
|     193 | 0x007B      |         123 |
|     194 | 0x2350      |        9040 |
|     195 | 0x0026      |          38 |
|     196 | 0x2351      |        9041 |
|     197 | 0x2352      |        9042 |
|     198 | 0x2354      |        9044 |
|     199 | 0x2355      |        9045 |
|     200 | 0x2356      |        9046 |
|     201 | 0x2357      |        9047 |
|     202 | 0x0023      |          35 |
|     203 | 0x2358      |        9048 |
|     204 | 0x2359      |        9049 |
|     205 | 0x235A      |        9050 |
|     206 | 0x235B      |        9051 |
|     207 | 0x235C      |        9052 |
|     208 | 0x235D      |        9053 |
|     209 | 0x0235      |         565 |
|     210 | 0x235E      |        9054 |
|     211 | 0x235F      |        9055 |
|     212 | 0x0009      |           9 |
|     213 | 0x2360      |        9056 |
|     214 | 0x2361      |        9057 |
|     215 | 0x2362      |        9058 |
|     216 | 0x2363      |        9059 |
|     217 | 0x2365      |        9061 |
|     218 | 0x2364      |        9060 |
|     219 | 0x2366      |        9062 |
|     220 | 0x2367      |        9063 |
|     221 | 0x2368      |        9064 |
|     222 | 0x2369      |        9065 |
|     223 | 0x236A      |        9066 |
|     224 | 0x236B      |        9067 |
|     225 | 0x236C      |        9068 |
|     226 | 0x236D      |        9069 |
|     227 | 0x236E      |        9070 |
|     228 | 0x236F      |        9071 |
|     229 | 0x2370      |        9072 |
|     230 | 0x2371      |        9073 |
|     231 | 0x2372      |        9074 |
|     232 | 0x2373      |        9075 |
|     233 | 0x2374      |        9076 |
|     234 | 0x2375      |        9077 |
|     235 | 0x2376      |        9078 |
|     236 | 0x2377      |        9079 |
|     237 | 0x2378      |        9080 |
|     238 | 0x2379      |        9081 |
|     239 | 0x237B      |        9083 |
|     240 | 0x237C      |        9084 |
|     241 | 0x237D      |        9085 |
|     242 | 0x237E      |        9086 |
|     243 | 0x237F      |        9087 |
|     244 | 0x2380      |        9088 |
|     245 | 0x2381      |        9089 |
|     246 | 0x2382      |        9090 |
|     247 | 0x00BE      |         190 |
|     248 | 0x01E0      |         480 |
|     249 | 0x2383      |        9091 |
|     250 | 0x0020      |          32 |
|     251 | 0x2384      |        9092 |
|     252 | 0x2385      |        9093 |
|     253 | 0x2386      |        9094 |
|     254 | 0x2387      |        9095 |
|     255 | 0x2388      |        9096 |
|     256 | 0x2389      |        9097 |
|     257 | 0x238A      |        9098 |
|     258 | 0x00C9      |         201 |
|     259 | 0x238C      |        9100 |
|     260 | 0x238D      |        9101 |
|     261 | 0x238E      |        9102 |
|     262 | 0x238F      |        9103 |
|     263 | 0x2390      |        9104 |
|     264 | 0x2391      |        9105 |
|     265 | 0x2392      |        9106 |
|     266 | 0x2393      |        9107 |
|     267 | 0x2394      |        9108 |
|     268 | 0x2395      |        9109 |
|     269 | 0x2396      |        9110 |
|     270 | 0x2397      |        9111 |
|     271 | 0x0025      |          37 |
|     272 | 0x2398      |        9112 |
|     273 | 0x2399      |        9113 |
|     274 | 0x239A      |        9114 |
|     275 | 0x239B      |        9115 |
|     276 | 0x239C      |        9116 |
|     277 | 0x239D      |        9117 |
|     278 | 0x23A0      |        9120 |
|     279 | 0x23A1      |        9121 |
|     280 | 0x23A2      |        9122 |
|     281 | 0x23A3      |        9123 |
|     282 | 0x23A4      |        9124 |
|     283 | 0x23A5      |        9125 |
|     284 | 0x23A6      |        9126 |
|     285 | 0x23A7      |        9127 |
|     286 | 0x23A8      |        9128 |
|     287 | 0x23A9      |        9129 |
|     288 | 0x23AA      |        9130 |
|     289 | 0x23AB      |        9131 |
|     290 | 0x23AC      |        9132 |
|     291 | 0x23AD      |        9133 |
|     292 | 0x23AE      |        9134 |
|     293 | 0x23AF      |        9135 |
|     294 | 0x008A      |         138 |
|     295 | 0x23B0      |        9136 |
|     296 | 0x002F      |          47 |
|     297 | 0x23B1      |        9137 |
|     298 | 0x23B2      |        9138 |
|     299 | 0x23B3      |        9139 |
|     300 | 0x23B4      |        9140 |
|     301 | 0x23B5      |        9141 |
|     302 | 0x23B6      |        9142 |
|     303 | 0x23B7      |        9143 |
|     304 | 0x23B8      |        9144 |
|     305 | 0x002A      |          42 |
|     306 | 0x23B9      |        9145 |
|     307 | 0x0237      |         567 |
|     308 | 0x007C      |         124 |
|     309 | 0x23BB      |        9147 |
|     310 | 0x23BC      |        9148 |
|     311 | 0x23BD      |        9149 |
|     312 | 0x23BE      |        9150 |
|     313 | 0x1044      |        4164 |
|     314 | 0x23C0      |        9152 |
|     315 | 0x23C1      |        9153 |
|     316 | 0x23C2      |        9154 |
|     317 | 0x23C3      |        9155 |
|     318 | 0x23C4      |        9156 |
|     319 | 0x23C5      |        9157 |
|     320 | 0x0308      |         776 |
|     321 | 0x23C6      |        9158 |
|     322 | 0x23C7      |        9159 |
|     323 | 0x23C8      |        9160 |
|     324 | 0x23C9      |        9161 |
|     325 | 0x23CA      |        9162 |
|     326 | 0x23CB      |        9163 |
|     327 | 0x23CC      |        9164 |
|     328 | 0x23CD      |        9165 |
|     329 | 0x23CE      |        9166 |
|     330 | 0x0008      |           8 |
|     331 | 0x23CF      |        9167 |
|     332 | 0x23D2      |        9170 |
|     333 | 0x23D3      |        9171 |
|     334 | 0x23D4      |        9172 |
|     335 | 0x23D5      |        9173 |
|     336 | 0x23D6      |        9174 |
|     337 | 0x23D7      |        9175 |
|     338 | 0x11A7      |        4519 |
|     339 | 0x23D8      |        9176 |
|     340 | 0x23D9      |        9177 |
|     341 | 0x23DA      |        9178 |
|     342 | 0x23DB      |        9179 |
|     343 | 0x23DC      |        9180 |
|     344 | 0x23DD      |        9181 |
|     345 | 0x23DE      |        9182 |
|     346 | 0x23DF      |        9183 |
|     347 | 0x23E0      |        9184 |
|     348 | 0x0045      |          69 |
|     349 | 0x23E1      |        9185 |
|     350 | 0x23E2      |        9186 |
|     351 | 0x23E3      |        9187 |
|     352 | 0x23E4      |        9188 |
|     353 | 0x23E5      |        9189 |
|     354 | 0x23E6      |        9190 |
|     355 | 0x23E7      |        9191 |
|     356 | 0x23E8      |        9192 |
|     357 | 0x23E9      |        9193 |
|     358 | 0x23EA      |        9194 |
|     359 | 0x23EB      |        9195 |
|     360 | 0x23EC      |        9196 |
|     361 | 0x23ED      |        9197 |
|     362 | 0x006F      |         111 |
|     363 | 0x23EE      |        9198 |
|     364 | 0x23EF      |        9199 |
|     365 | 0x23F0      |        9200 |
|     366 | 0x23F1      |        9201 |
|     367 | 0x23F2      |        9202 |
|     368 | 0x23F3      |        9203 |
|     369 | 0x23F4      |        9204 |
|     370 | 0x23F5      |        9205 |
|     371 | 0x23F6      |        9206 |
|     372 | 0x23F7      |        9207 |
|     373 | 0x23F8      |        9208 |
|     374 | 0x23F9      |        9209 |
|     375 | 0x23FA      |        9210 |
|     376 | 0x23FB      |        9211 |
|     377 | 0x23FC      |        9212 |
|     378 | 0x23FD      |        9213 |
|     379 | 0x23FE      |        9214 |
|     380 | 0x23FF      |        9215 |
|     381 | 0x2400      |        9216 |
|     382 | 0x2401      |        9217 |
|     383 | 0x2402      |        9218 |
|     384 | 0x0108      |         264 |
|     385 | 0x26CA      |        9930 |
|     386 | 0x26CB      |        9931 |
|     387 | 0x26CC      |        9932 |
|     388 | 0x26CD      |        9933 |
|     389 | 0x26CE      |        9934 |
|     390 | 0x26CF      |        9935 |
|     391 | 0x26D0      |        9936 |
|     392 | 0x26D1      |        9937 |
|     393 | 0x26D2      |        9938 |
|     394 | 0x26D3      |        9939 |
|     395 | 0x26D4      |        9940 |
|     396 | 0x26D5      |        9941 |
|     397 | 0x26D6      |        9942 |
|     398 | 0x26D7      |        9943 |
|     399 | 0x26D8      |        9944 |
|     400 | 0x26D9      |        9945 |
|     401 | 0x26DA      |        9946 |
|     402 | 0x26DB      |        9947 |
|     403 | 0x26DC      |        9948 |
|     404 | 0x26DD      |        9949 |
|     405 | 0x26DE      |        9950 |
|     406 | 0x001B      |          27 |
|     407 | 0x26DF      |        9951 |
|     408 | 0x26E0      |        9952 |
|     409 | 0x26E1      |        9953 |
|     410 | 0x26E3      |        9955 |
|     411 | 0x26E4      |        9956 |
|     412 | 0x26E5      |        9957 |
|     413 | 0x26E6      |        9958 |
|     414 | 0x26E7      |        9959 |
|     415 | 0x26E8      |        9960 |
|     416 | 0x26E9      |        9961 |
|     417 | 0x26EA      |        9962 |
|     418 | 0x26EB      |        9963 |
|     419 | 0x26EC      |        9964 |
|     420 | 0x26ED      |        9965 |
|     421 | 0x26EE      |        9966 |
|     422 | 0x0011      |          17 |
|     423 | 0x26EF      |        9967 |
|     424 | 0x26F0      |        9968 |
|     425 | 0x26F1      |        9969 |
|     426 | 0x26F2      |        9970 |
|     427 | 0x26F3      |        9971 |
|     428 | 0x26F4      |        9972 |
|     429 | 0x26F5      |        9973 |
|     430 | 0x26F6      |        9974 |
|     431 | 0x26F7      |        9975 |
|     432 | 0x26F8      |        9976 |
|     433 | 0x26F9      |        9977 |
|     434 | 0x26FA      |        9978 |
|     435 | 0x26FB      |        9979 |
|     436 | 0x26FC      |        9980 |
|     437 | 0x26FD      |        9981 |
|     438 | 0x26FE      |        9982 |
|     439 | 0x26FF      |        9983 |
|     440 | 0x2700      |        9984 |
|     441 | 0x2701      |        9985 |
|     442 | 0x2702      |        9986 |
|     443 | 0x2703      |        9987 |
|     444 | 0x2704      |        9988 |
|     445 | 0x2705      |        9989 |
|     446 | 0x2706      |        9990 |
|     447 | 0x2707      |        9991 |
|     448 | 0x2708      |        9992 |
|     449 | 0x2709      |        9993 |
|     450 | 0x270A      |        9994 |
|     451 | 0x270B      |        9995 |
|     452 | 0x270C      |        9996 |
|     453 | 0x0010      |          16 |
|     454 | 0x270D      |        9997 |
|     455 | 0x2710      |       10000 |
|     456 | 0x2711      |       10001 |
|     457 | 0x2712      |       10002 |
|     458 | 0x2713      |       10003 |
|     459 | 0x2714      |       10004 |
|     460 | 0x2715      |       10005 |
|     461 | 0x271A      |       10010 |
|     462 | 0x271B      |       10011 |
|     463 | 0x271C      |       10012 |
|     464 | 0x271D      |       10013 |
|     465 | 0x271E      |       10014 |
|     466 | 0x004B      |          75 |
|     467 | 0x271F      |       10015 |
|     468 | 0x2720      |       10016 |
|     469 | 0x2721      |       10017 |
|     470 | 0x2722      |       10018 |
|     471 | 0x2723      |       10019 |
|     472 | 0x2724      |       10020 |
|     473 | 0x2725      |       10021 |
|     474 | 0x2726      |       10022 |
|     475 | 0x2727      |       10023 |
|     476 | 0x2728      |       10024 |
|     477 | 0x2729      |       10025 |
|     478 | 0x272A      |       10026 |
|     479 | 0x272B      |       10027 |
|     480 | 0x272C      |       10028 |
|     481 | 0x272D      |       10029 |
|     482 | 0x0190      |         400 |
|     483 | 0x272E      |       10030 |
|     484 | 0x272F      |       10031 |
|     485 | 0x2730      |       10032 |
|     486 | 0x2731      |       10033 |
|     487 | 0x2732      |       10034 |
|     488 | 0x2733      |       10035 |
|     489 | 0x2734      |       10036 |
|     490 | 0x2735      |       10037 |
|     491 | 0x2736      |       10038 |
|     492 | 0x2737      |       10039 |
|     493 | 0x2738      |       10040 |
|     494 | 0x2739      |       10041 |
|     495 | 0x273A      |       10042 |
|     496 | 0x273B      |       10043 |
|     497 | 0x273C      |       10044 |
|     498 | 0x273D      |       10045 |
|     499 | 0x273E      |       10046 |
|     500 | 0x273F      |       10047 |
|     501 | 0x2740      |       10048 |
|     502 | 0x2741      |       10049 |
|     503 | 0x2742      |       10050 |
|     504 | 0x2743      |       10051 |
|     505 | 0x2744      |       10052 |
|     506 | 0x2745      |       10053 |
|     507 | 0x2746      |       10054 |
|     508 | 0x2747      |       10055 |
|     509 | 0x2748      |       10056 |
|     510 | 0x2749      |       10057 |
|     511 | 0x274A      |       10058 |
|     512 | 0x274B      |       10059 |
|     513 | 0x274C      |       10060 |
|     514 | 0x274D      |       10061 |
|     515 | 0x274E      |       10062 |
|     516 | 0x274F      |       10063 |
|     517 | 0x2750      |       10064 |
|     518 | 0x2751      |       10065 |
|     519 | 0x2752      |       10066 |
|     520 | 0x2753      |       10067 |
|     521 | 0x2754      |       10068 |
|     522 | 0x2755      |       10069 |
|     523 | 0x2758      |       10072 |
|     524 | 0x2759      |       10073 |
|     525 | 0x275A      |       10074 |
|     526 | 0x275B      |       10075 |
|     527 | 0x275C      |       10076 |
|     528 | 0x275D      |       10077 |
|     529 | 0x275E      |       10078 |
|     530 | 0x275F      |       10079 |
|     531 | 0x010E      |         270 |
|     532 | 0x2760      |       10080 |
|     533 | 0x2761      |       10081 |
|     534 | 0x2762      |       10082 |
|     535 | 0x2763      |       10083 |
|     536 | 0x2764      |       10084 |
|     537 | 0x2765      |       10085 |
|     538 | 0x007A      |         122 |
|     539 | 0x2766      |       10086 |
|     540 | 0x2767      |       10087 |
|     541 | 0x2768      |       10088 |
|     542 | 0x2769      |       10089 |
|     543 | 0x276A      |       10090 |
|     544 | 0x276B      |       10091 |
|     545 | 0x276C      |       10092 |
|     546 | 0x276D      |       10093 |
|     547 | 0x276E      |       10094 |
|     548 | 0x276F      |       10095 |
|     549 | 0x2770      |       10096 |
|     550 | 0x2771      |       10097 |
|     551 | 0x2772      |       10098 |
|     552 | 0x2773      |       10099 |
|     553 | 0x2774      |       10100 |
|     554 | 0x2775      |       10101 |
|     555 | 0x2776      |       10102 |
|     556 | 0x2777      |       10103 |
|     557 | 0x2778      |       10104 |
|     558 | 0x2779      |       10105 |
|     559 | 0x277A      |       10106 |
|     560 | 0x277B      |       10107 |
|     561 | 0x277C      |       10108 |
|     562 | 0x277D      |       10109 |
|     563 | 0x277E      |       10110 |
|     564 | 0x277F      |       10111 |
|     565 | 0x2780      |       10112 |
|     566 | 0x2781      |       10113 |
|     567 | 0x2782      |       10114 |
|     568 | 0x2783      |       10115 |
|     569 | 0x2784      |       10116 |
|     570 | 0x2785      |       10117 |
|     571 | 0x007D      |         125 |
|     572 | 0x2786      |       10118 |
|     573 | 0x2787      |       10119 |
|     574 | 0x2788      |       10120 |
|     575 | 0x2789      |       10121 |
|     576 | 0x278A      |       10122 |
|     577 | 0x278B      |       10123 |
|     578 | 0x278C      |       10124 |
|     579 | 0x278D      |       10125 |
|     580 | 0x00D7      |         215 |

## String References

- **4842**: What do you say? [Leave it to me./Not my problem.]
- **9115**: Help out? [All right. Fine./No way. Grow a spine!]

## Events

### Event 65535

#### Metadata

| Field        | Value   |
|--------------|---------|
| Entrypoint   | 0x0000  |
| Data Size    | 1 bytes |
| Instructions | 1       |

```
      00 01 02 03 04 05 06 07  08 09 0A 0B 0C 0D 0E 0F
      -- -- -- -- -- -- -- --  -- -- -- -- -- -- -- --
0000: 00                                                .               
```

#### Opcodes

```
  0: 0x0000 [0x00] END_REQSTACK()
```

### Event 1

#### Metadata

| Field        | Value      |
|--------------|------------|
| Entrypoint   | 0x0001     |
| Data Size    | 2027 bytes |
| Instructions | 266        |

```
      00 01 02 03 04 05 06 07  08 09 0A 0B 0C 0D 0E 0F
      -- -- -- -- -- -- -- --  -- -- -- -- -- -- -- --
0000:    42 1A 74 7C 46 01 38  00 80 29 10 F0 FF FF 7F   B.t|F.8..).....
0010: 39 80 F0 FF FF 7F 80 F5  20 03 01 79 00 F0 FF FF  9....... ..y....
0020: 7F F5 20 03 01 1C 01 80  45 02 80 F0 FF FF 7F F0  .. .....E.......
0030: FF FF 7F 73 30 30 30 03  80 1A DD 7C 66 04 80 F5  ...s000....|f...
0040: 20 03 01 F5 20 03 01 74  6C 6B 30 2B F5 20 03 01   ... ..tlk0+. ..
0050: 05 80 23 52 02 80 F0 FF  FF 7F F0 FF FF 7F 73 30  ..#R..........s0
0060: 30 30 45 02 80 F0 FF FF  7F F0 FF FF 7F 73 30 31  00E..........s01
0070: 31 03 80 2B F5 20 03 01  06 80 23 2F 00 F6 20 03  1..+. ....#/.. .
0080: 01 2F 00 F7 20 03 01 4E  00 F6 20 03 01 4E 00 F7  ./.. ..N.. ..N..
0090: 20 03 01 80 F6 20 03 01  80 F7 20 03 01 1C 01 80   .... .... .....
00A0: 2B 11 21 03 01 07 80 5D  03 80 08 80 66 04 80 F5  +.!....]....f...
00B0: 20 03 01 F5 20 03 01 74  6C 6B 31 1C 09 80 2B 11   ... ..tlk1...+.
00C0: 21 03 01 0A 80 4A F5 20  03 01 F7 20 03 01 1C 0B  !....J. ... ....
00D0: 80 6F 76 F5 20 03 01 52  02 80 F0 FF FF 7F F0 FF  .ov. ..R........
00E0: FF 7F 73 30 31 31 45 02  80 F0 FF FF 7F F0 FF FF  ..s011E.........
00F0: 7F 73 30 30 31 03 80 92  01 F0 FF FF 7F 27 10 12  .s001........'..
0100: 21 03 01 5A 27 0A F6 20  03 01 04 27 0A F7 20 03  !..Z'.. ...'.. .
0110: 01 04 1C 0C 80 5C 00 0D  80 5C 01 0D 80 66 04 80  .....\...\...f..
0120: F5 20 03 01 F5 20 03 01  74 6C 6B 30 2B F5 20 03  . ... ..tlk0+. .
0130: 01 0E 80 23 66 04 80 F5  20 03 01 F5 20 03 01 74  ...#f... ... ..t
0140: 6C 6B 31 1C 09 80 2A 0A  F7 20 03 01 66 0F 80 F7  lk1...*.. ..f...
0150: 20 03 01 F7 20 03 01 74  6C 62 30 2B F7 20 03 01   ... ..tlb0+. ..
0160: 10 80 23 2B F7 20 03 01  11 80 23 66 0F 80 F7 20  ..#+. ....#f... 
0170: 03 01 F7 20 03 01 74 6C  62 31 52 02 80 F0 FF FF  ... ..tlb1R.....
0180: 7F F0 FF FF 7F 73 30 30  31 45 02 80 F0 FF FF 7F  .....s001E......
0190: F0 FF FF 7F 73 30 30 32  03 80 92 00 F0 FF FF 7F  ....s002........
01A0: 27 10 12 21 03 01 5B 66  04 80 F5 20 03 01 F5 20  '..!..[f... ... 
01B0: 03 01 74 68 6B 31 2B F5  20 03 01 12 80 23 66 04  ..thk1+. ....#f.
01C0: 80 F5 20 03 01 F5 20 03  01 74 68 6B 32 1C 09 80  .. ... ..thk2...
01D0: 79 00 F5 20 03 01 F6 20  03 01 2B F5 20 03 01 13  y.. ... ..+. ...
01E0: 80 23 1C 0B 80 29 0A F6  20 03 01 05 52 02 80 F0  .#...).. ...R...
01F0: FF FF 7F F0 FF FF 7F 73  30 30 32 45 02 80 F0 FF  .......s002E....
0200: FF 7F F0 FF FF 7F 73 30  31 32 03 80 4A F5 20 03  ......s012..J. .
0210: 01 F6 20 03 01 22 00 4A  F6 20 03 01 F5 20 03 01  .. ..".J. ... ..
0220: 4A F0 FF FF 7F F6 20 03  01 1C 04 80 66 14 80 F6  J..... .....f...
0230: 20 03 01 F6 20 03 01 74  6C 6B 30 2B F6 20 03 01   ... ..tlk0+. ..
0240: 15 80 23 66 14 80 F6 20  03 01 F6 20 03 01 74 6C  ..#f... ... ..tl
0250: 6B 31 1C 09 80 4A F7 20  03 01 F6 20 03 01 1C 16  k1...J. ... ....
0260: 80 52 02 80 F0 FF FF 7F  F0 FF FF 7F 73 30 31 32  .R..........s012
0270: 45 02 80 F0 FF FF 7F F0  FF FF 7F 73 30 31 34 03  E..........s014.
0280: 80 2B F7 20 03 01 17 80  23 4A F6 20 03 01 F7 20  .+. ....#J. ... 
0290: 03 01 6F 76 F6 20 03 01  6E F6 20 03 01 18 80 99  ..ov. ..n. .....
02A0: F6 20 03 01 99 F6 20 03  01 1C 19 80 2B F6 20 03  . .... .....+. .
02B0: 01 1A 80 23 1C 09 80 52  02 80 F0 FF FF 7F F0 FF  ...#...R........
02C0: FF 7F 73 30 31 34 45 02  80 F0 FF FF 7F F0 FF FF  ..s014E.........
02D0: 7F 73 30 31 33 03 80 2B  F7 20 03 01 1B 80 23 1C  .s013..+. ....#.
02E0: 09 80 52 02 80 F0 FF FF  7F F0 FF FF 7F 73 30 31  ..R..........s01
02F0: 33 45 02 80 F0 FF FF 7F  F0 FF FF 7F 73 30 31 30  3E..........s010
0300: 03 80 6E F6 20 03 01 1C  80 99 F6 20 03 01 99 F6  ..n. ...... ....
0310: 20 03 01 1C 0C 80 2B F6  20 03 01 1D 80 23 1C 1E   .....+. ....#..
0320: 80 52 02 80 F0 FF FF 7F  F0 FF FF 7F 73 30 31 30  .R..........s010
0330: 45 02 80 F0 FF FF 7F F0  FF FF 7F 73 30 30 34 03  E..........s004.
0340: 80 5D 03 80 1F 80 27 0A  F6 20 03 01 06 1C 19 80  .]....'.. ......
0350: 4A F5 20 03 01 F6 20 03  01 4A F7 20 03 01 F6 20  J. ... ..J. ... 
0360: 03 01 1C 20 80 52 02 80  F0 FF FF 7F F0 FF FF 7F  ... .R..........
0370: 73 30 30 34 45 02 80 F0  FF FF 7F F0 FF FF 7F 73  s004E..........s
0380: 30 31 39 03 80 27 10 12  21 03 01 5A 1C 21 80 4E  019..'..!..Z.!.N
0390: 01 F6 20 03 01 66 22 80  F5 20 03 01 F5 20 03 01  .. ..f".. ... ..
03A0: 64 69 73 30 4A F7 20 03  01 F0 FF FF 7F 1C 09 80  dis0J. .........
03B0: 5C 00 23 80 5C 01 23 80  66 24 80 F7 20 03 01 F7  \.#.\.#.f$.. ...
03C0: 20 03 01 74 6C 64 30 2B  F7 20 03 01 25 80 23 66   ..tld0+. ..%.#f
03D0: 24 80 F7 20 03 01 F7 20  03 01 74 6C 64 31 1C 09  $.. ... ..tld1..
03E0: 80 52 02 80 F0 FF FF 7F  F0 FF FF 7F 73 30 31 39  .R..........s019
03F0: 45 02 80 F0 FF FF 7F F0  FF FF 7F 73 30 32 30 03  E..........s020.
0400: 80 79 00 F5 20 03 01 F7  20 03 01 4A F0 FF FF 7F  .y.. ... ..J....
0410: F7 20 03 01 27 0A F7 20  03 01 05 2B F7 20 03 01  . ..'.. ...+. ..
0420: 26 80 23 1C 21 80 52 02  80 F0 FF FF 7F F0 FF FF  &.#.!.R.........
0430: 7F 73 30 32 30 45 02 80  F0 FF FF 7F F0 FF FF 7F  .s020E..........
0440: 73 30 30 38 03 80 27 10  12 21 03 01 5B 4A F5 20  s008..'..!..[J. 
0450: 03 01 F7 20 03 01 1C 16  80 2B F7 20 03 01 27 80  ... .....+. ..'.
0460: 23 2B F7 20 03 01 28 80  23 52 02 80 F0 FF FF 7F  #+. ..(.#R......
0470: F0 FF FF 7F 73 30 30 38  45 02 80 F0 FF FF 7F F0  ....s008E.......
0480: FF FF 7F 73 30 30 33 03  80 2B F7 20 03 01 29 80  ...s003..+. ..).
0490: 23 1C 09 80 66 24 80 F7  20 03 01 F7 20 03 01 74  #...f$.. ... ..t
04A0: 68 62 31 2B F7 20 03 01  2A 80 23 66 24 80 F7 20  hb1+. ..*.#f$.. 
04B0: 03 01 F7 20 03 01 74 68  62 32 2B F7 20 03 01 2B  ... ..thb2+. ..+
04C0: 80 23 94 01 F7 20 03 01  1C 09 80 52 02 80 F0 FF  .#... .....R....
04D0: FF 7F F0 FF FF 7F 73 30  30 33 45 02 80 F0 FF FF  ......s003E.....
04E0: 7F F0 FF FF 7F 73 30 32  32 03 80 2B F7 20 03 01  .....s022..+. ..
04F0: 2C 80 23 1C 09 80 52 02  80 F0 FF FF 7F F0 FF FF  ,.#...R.........
0500: 7F 73 30 32 32 45 02 80  F0 FF FF 7F F0 FF FF 7F  .s022E..........
0510: 73 30 31 35 03 80 22 01  27 0A F7 20 03 01 06 2B  s015..".'.. ...+
0520: F7 20 03 01 2D 80 23 2B  F7 20 03 01 2E 80 23 2B  . ..-.#+. ....#+
0530: F7 20 03 01 2F 80 23 1C  16 80 22 00 52 02 80 F0  . ../.#...".R...
0540: FF FF 7F F0 FF FF 7F 73  30 31 35 45 02 80 F0 FF  .......s015E....
0550: FF 7F F0 FF FF 7F 73 30  30 39 03 80 4A F7 20 03  ......s009..J. .
0560: 01 F0 FF FF 7F 2B F7 20  03 01 30 80 23 2B F7 20  .....+. ..0.#+. 
0570: 03 01 31 80 23 1C 16 80  52 02 80 F0 FF FF 7F F0  ..1.#...R.......
0580: FF FF 7F 73 30 30 39 45  02 80 F0 FF FF 7F F0 FF  ...s009E........
0590: FF 7F 73 30 31 36 03 80  66 0F 80 F7 20 03 01 F7  ..s016..f... ...
05A0: 20 03 01 74 6C 62 30 2B  F7 20 03 01 32 80 23 2B   ..tlb0+. ..2.#+
05B0: F7 20 03 01 33 80 23 66  0F 80 F7 20 03 01 F7 20  . ..3.#f... ... 
05C0: 03 01 74 6C 62 31 1C 09  80 66 24 80 F7 20 03 01  ..tlb1...f$.. ..
05D0: F7 20 03 01 74 68 62 31  2B F7 20 03 01 34 80 23  . ..thb1+. ..4.#
05E0: 2B F7 20 03 01 35 80 23  66 24 80 F7 20 03 01 F7  +. ..5.#f$.. ...
05F0: 20 03 01 74 68 62 32 1C  09 80 52 02 80 F0 FF FF   ..thb2...R.....
0600: 7F F0 FF FF 7F 73 30 31  36 45 02 80 F0 FF FF 7F  .....s016E......
0610: F0 FF FF 7F 73 30 30 36  03 80 4A F5 20 03 01 F0  ....s006..J. ...
0620: FF FF 7F 66 04 80 F5 20  03 01 F5 20 03 01 74 6C  ...f... ... ..tl
0630: 6B 30 2B F5 20 03 01 36  80 23 66 04 80 F5 20 03  k0+. ..6.#f... .
0640: 01 F5 20 03 01 74 6C 6B  31 1C 16 80 79 00 F0 FF  .. ..tlk1...y...
0650: FF 7F F5 20 03 01 1C 01  80 4A F7 20 03 01 F5 20  ... .....J. ... 
0660: 03 01 27 0A F7 20 03 01  07 2B F7 20 03 01 37 80  ..'.. ...+. ..7.
0670: 1C 0B 80 2A 0A F7 20 03  01 66 0F 80 F7 20 03 01  ...*.. ..f... ..
0680: F7 20 03 01 74 6C 62 30  2B F7 20 03 01 38 80 23  . ..tlb0+. ..8.#
0690: 66 0F 80 F7 20 03 01 F7  20 03 01 74 6C 62 31 1C  f... ... ..tlb1.
06A0: 09 80 52 02 80 F0 FF FF  7F F0 FF FF 7F 73 30 30  ..R..........s00
06B0: 36 45 02 80 F0 FF FF 7F  F0 FF FF 7F 73 30 32 31  6E..........s021
06C0: 03 80 4A F5 20 03 01 F7  20 03 01 1C 16 80 66 04  ..J. ... .....f.
06D0: 80 F5 20 03 01 F5 20 03  01 74 6C 6B 30 2B F5 20  .. ... ..tlk0+. 
06E0: 03 01 39 80 23 66 04 80  F5 20 03 01 F5 20 03 01  ..9.#f... ... ..
06F0: 74 6C 6B 31 1C 09 80 66  04 80 F5 20 03 01 F5 20  tlk1...f... ... 
0700: 03 01 74 68 6B 31 1C 09  80 2B F5 20 03 01 3A 80  ..thk1...+. ..:.
0710: 23 66 04 80 F5 20 03 01  F5 20 03 01 74 68 6B 32  #f... ... ..thk2
0720: 52 02 80 F0 FF FF 7F F0  FF FF 7F 73 30 32 31 45  R..........s021E
0730: 02 80 F0 FF FF 7F F0 FF  FF 7F 73 30 31 37 03 80  ..........s017..
0740: 4A F5 20 03 01 F0 FF FF  7F 1C 16 80 03 02 10 3B  J. ............;
0750: 80 2B F5 20 03 01 3C 80  23 6E F0 FF FF 7F 3D 80  .+. ..<.#n....=.
0760: 99 F0 FF FF 7F 1C 09 80  66 04 80 F5 20 03 01 F5  ........f... ...
0770: 20 03 01 74 6C 6B 30 2B  F5 20 03 01 3E 80 23 66   ..tlk0+. ..>.#f
0780: 04 80 F5 20 03 01 F5 20  03 01 74 6C 6B 31 4A F7  ... ... ..tlk1J.
0790: 20 03 01 F0 FF FF 7F 1C  09 80 52 02 80 F0 FF FF   .........R.....
07A0: 7F F0 FF FF 7F 73 30 31  37 45 02 80 F0 FF FF 7F  .....s017E......
07B0: F0 FF FF 7F 73 30 31 38  03 80 2B F7 20 03 01 3F  ....s018..+. ..?
07C0: 80 23 1C 16 80 1A 89 7C  52 02 80 F0 FF FF 7F F0  .#.....|R.......
07D0: FF FF 7F 73 30 31 38 46  00 45 1F 80 F0 FF FF 7F  ...s018F.E......
07E0: F0 FF FF 7F 66 64 69 32  03 80 21 00              ....fdi2..!.    
```

#### Opcodes

```
  0: 0x0001 [0x42] SET_CLI_EVENT_CANCEL_DATA()
  1: 0x0002 [0x1A] CALL_SUBROUTINE(address=0x7C74)
  2: 0x0005 [0x46] CAMERA_CONTROL: Disable user control
  3: 0x0007 [0x38] SET_CLIENT_EVENT_MODE(mode=19*)
  4: 0x000A [0x29] REQ_SET_WAIT(priority=0x10, entity_id=LocalPlayer, tag_num=0x39)
  5: 0x0011 [0x80] LOAD_WAIT(entity=LocalPlayer)
  6: 0x0016 [0x80] LOAD_WAIT(entity=Ahaadah (ID: 16982261/0x010320F5))
  7: 0x001B [0x79] LocalPlayer looks at Ahaadah (ID: 16982261/0x010320F5) (Basic look)
  8: 0x0025 [0x1C] WAIT(15* ticks)
  9: 0x0028 [0x45] LOAD_SCHEDULED_TASK: Load scheduler "s000" with entities [LocalPlayer, LocalPlayer], work=[262*, 0*]
 10: 0x0039 [0x1A] CALL_SUBROUTINE(address=0x7CDD)
 11: 0x003C [0x66] LOAD_EXT_SCHEDULER_MAIN: Load scheduler "tlk0" with entities [Ahaadah (ID: 16982261/0x010320F5), Ahaadah (ID: 16982261/0x010320F5)], work=20*
 12: 0x004B [0x2B] Ahaadah (ID: 16982261/0x010320F5) [4710*]:
    → "Good day to you, adventurer. The passage over there leads to the Alchemists' Guild."
 13: 0x0052 [0x23] WAIT_FOR_DIALOG_INTERACTION
 14: 0x0053 [0x52] END_LOAD_SCHEDULER: End scheduler "s000" with entities [LocalPlayer, LocalPlayer], work=262*
 15: 0x0062 [0x45] LOAD_SCHEDULED_TASK: Load scheduler "s011" with entities [LocalPlayer, LocalPlayer], work=[262*, 0*]
 16: 0x0073 [0x2B] Ahaadah (ID: 16982261/0x010320F5) [4711*]:
    → "Long have I practiced the art of alchemy, yet I do not find myself becoming bored. It truly is fascinating..."
 17: 0x007A [0x23] WAIT_FOR_DIALOG_INTERACTION
 18: 0x007B [0x2F] Tinga-Matonga (ID: 16982262/0x010320F6)->Render.Flags0 &= ~0x80000 // Bit 19
 19: 0x0081 [0x2F] Alcander (ID: 16982263/0x010320F7)->Render.Flags0 &= ~0x80000 // Bit 19
 20: 0x0087 [0x4E] SET_ENTITY_HIDE_FLAG: Show Tinga-Matonga (ID: 16982262/0x010320F6)
 21: 0x008D [0x4E] SET_ENTITY_HIDE_FLAG: Show Alcander (ID: 16982263/0x010320F7)
 22: 0x0093 [0x80] LOAD_WAIT(entity=Tinga-Matonga (ID: 16982262/0x010320F6))
 23: 0x0098 [0x80] LOAD_WAIT(entity=Alcander (ID: 16982263/0x010320F7))
 24: 0x009D [0x1C] WAIT(15* ticks)
 25: 0x00A0 [0x2B] ??? (ID: 16982289/0x01032111) [4712*]:
    → "No! Lemme go!"
 26: 0x00A7 [0x5D] SET_MUSIC_VOLUME(volume=0*, fade_time=120*)
 27: 0x00AC [0x66] LOAD_EXT_SCHEDULER_MAIN: Load scheduler "tlk1" with entities [Ahaadah (ID: 16982261/0x010320F5), Ahaadah (ID: 16982261/0x010320F5)], work=20*
 28: 0x00BB [0x1C] WAIT(60* ticks)
 29: 0x00BE [0x2B] ??? (ID: 16982289/0x01032111) [4713*]:
    → "Stop that! Behave yourself!"
 30: 0x00C5 [0x4A] Ahaadah (ID: 16982261/0x010320F5) looks at Alcander (ID: 16982263/0x010320F7)
 31: 0x00CE [0x1C] WAIT(45* ticks)
 32: 0x00D1 [0x6F] WAIT_FRAME_DELAY: Yield until WaitTime reaches zero
 33: 0x00D2 [0x76] CHECK_ENTITY_RENDER_FLAGS: Wait until Ahaadah (ID: 16982261/0x010320F5) Render.Flags0 and Render.Flags3 conditions are met
 34: 0x00D7 [0x52] END_LOAD_SCHEDULER: End scheduler "s011" with entities [LocalPlayer, LocalPlayer], work=262*
 35: 0x00E6 [0x45] LOAD_SCHEDULED_TASK: Load scheduler "s001" with entities [LocalPlayer, LocalPlayer], work=[262*, 0*]
 36: 0x00F7 [0x92] LocalPlayer->Render.Flags3 ^= 0x01
 37: 0x00FD [0x27] REQ_SET(priority=0x10, entity_id=Unnamed NPC (ID: 16982290/0x01032112), tag_num=0x5A)
 38: 0x0104 [0x27] REQ_SET(priority=0x0A, entity_id=Tinga-Matonga (ID: 16982262/0x010320F6), tag_num=0x04)
 39: 0x010B [0x27] REQ_SET(priority=0x0A, entity_id=Alcander (ID: 16982263/0x010320F7), tag_num=0x04)
 40: 0x0112 [0x1C] WAIT(100* ticks)
 41: 0x0115 [0x5C] MUSIC_CONTROL: Set Idle (Day) music to song 163*
 42: 0x0119 [0x5C] MUSIC_CONTROL: Set Idle (Night) music to song 163*
 43: 0x011D [0x66] LOAD_EXT_SCHEDULER_MAIN: Load scheduler "tlk0" with entities [Ahaadah (ID: 16982261/0x010320F5), Ahaadah (ID: 16982261/0x010320F5)], work=20*
 44: 0x012C [0x2B] Ahaadah (ID: 16982261/0x010320F5) [4714*]:
    → "Again, you come before me... Nothing has changed since the last time."
 45: 0x0133 [0x23] WAIT_FOR_DIALOG_INTERACTION
 46: 0x0134 [0x66] LOAD_EXT_SCHEDULER_MAIN: Load scheduler "tlk1" with entities [Ahaadah (ID: 16982261/0x010320F5), Ahaadah (ID: 16982261/0x010320F5)], work=20*
 47: 0x0143 [0x1C] WAIT(60* ticks)
 48: 0x0146 [0x2A] GET_REQ_LEVEL(level=10, entity_id=Alcander (ID: 16982263/0x010320F7))
 49: 0x014C [0x66] LOAD_EXT_SCHEDULER_MAIN: Load scheduler "tlb0" with entities [Alcander (ID: 16982263/0x010320F7), Alcander (ID: 16982263/0x010320F7)], work=5*
 50: 0x015B [0x2B] Alcander (ID: 16982263/0x010320F7) [4715*]:
    → "Please, won't you reconsider?"
 51: 0x0162 [0x23] WAIT_FOR_DIALOG_INTERACTION
 52: 0x0163 [0x2B] Alcander (ID: 16982263/0x010320F7) [4716*]:
    → "This child has nimble fingers and would soon pick up the trade if he were to live at the guild..."
 53: 0x016A [0x23] WAIT_FOR_DIALOG_INTERACTION
 54: 0x016B [0x66] LOAD_EXT_SCHEDULER_MAIN: Load scheduler "tlb1" with entities [Alcander (ID: 16982263/0x010320F7), Alcander (ID: 16982263/0x010320F7)], work=5*
 55: 0x017A [0x52] END_LOAD_SCHEDULER: End scheduler "s001" with entities [LocalPlayer, LocalPlayer], work=262*
 56: 0x0189 [0x45] LOAD_SCHEDULED_TASK: Load scheduler "s002" with entities [LocalPlayer, LocalPlayer], work=[262*, 0*]
 57: 0x019A [0x92] LocalPlayer->Render.Flags3 = Flags3  // No change (flag=0)
 58: 0x01A0 [0x27] REQ_SET(priority=0x10, entity_id=Unnamed NPC (ID: 16982290/0x01032112), tag_num=0x5B)
 59: 0x01A7 [0x66] LOAD_EXT_SCHEDULER_MAIN: Load scheduler "thk1" with entities [Ahaadah (ID: 16982261/0x010320F5), Ahaadah (ID: 16982261/0x010320F5)], work=20*
 60: 0x01B6 [0x2B] Ahaadah (ID: 16982261/0x010320F5) [4717*]:
    → "Yes, and he uses those nimble fingers to pilfer my goods!"
 61: 0x01BD [0x23] WAIT_FOR_DIALOG_INTERACTION
 62: 0x01BE [0x66] LOAD_EXT_SCHEDULER_MAIN: Load scheduler "thk2" with entities [Ahaadah (ID: 16982261/0x010320F5), Ahaadah (ID: 16982261/0x010320F5)], work=20*
 63: 0x01CD [0x1C] WAIT(60* ticks)
 64: 0x01D0 [0x79] Ahaadah (ID: 16982261/0x010320F5) looks at Tinga-Matonga (ID: 16982262/0x010320F6) (Basic look)
 65: 0x01DA [0x2B] Ahaadah (ID: 16982261/0x010320F5) [4718*]:
    → "What have you done with those herbs and vials?"
 66: 0x01E1 [0x23] WAIT_FOR_DIALOG_INTERACTION
 67: 0x01E2 [0x1C] WAIT(45* ticks)
 68: 0x01E5 [0x29] REQ_SET_WAIT(priority=0x0A, entity_id=Tinga-Matonga (ID: 16982262/0x010320F6), tag_num=0x05)
 69: 0x01EC [0x52] END_LOAD_SCHEDULER: End scheduler "s002" with entities [LocalPlayer, LocalPlayer], work=262*
 70: 0x01FB [0x45] LOAD_SCHEDULED_TASK: Load scheduler "s012" with entities [LocalPlayer, LocalPlayer], work=[262*, 0*]
 71: 0x020C [0x4A] Ahaadah (ID: 16982261/0x010320F5) looks at Tinga-Matonga (ID: 16982262/0x010320F6)
 72: 0x0215 [0x22] ENTITY_HIDE_FLAG(enabled=0x00)
 73: 0x0217 [0x4A] Tinga-Matonga (ID: 16982262/0x010320F6) looks at Ahaadah (ID: 16982261/0x010320F5)
 74: 0x0220 [0x4A] LocalPlayer looks at Tinga-Matonga (ID: 16982262/0x010320F6)
 75: 0x0229 [0x1C] WAIT(20* ticks)
 76: 0x022C [0x66] LOAD_EXT_SCHEDULER_MAIN: Load scheduler "tlk0" with entities [Tinga-Matonga (ID: 16982262/0x010320F6), Tinga-Matonga (ID: 16982262/0x010320F6)], work=49*
 77: 0x023B [0x2B] Tinga-Matonga (ID: 16982262/0x010320F6) [4719*]:
    → "Ah, what are you gripin' about? It was just a bunch of junk anyway."
 78: 0x0242 [0x23] WAIT_FOR_DIALOG_INTERACTION
 79: 0x0243 [0x66] LOAD_EXT_SCHEDULER_MAIN: Load scheduler "tlk1" with entities [Tinga-Matonga (ID: 16982262/0x010320F6), Tinga-Matonga (ID: 16982262/0x010320F6)], work=49*
 80: 0x0252 [0x1C] WAIT(60* ticks)
 81: 0x0255 [0x4A] Alcander (ID: 16982263/0x010320F7) looks at Tinga-Matonga (ID: 16982262/0x010320F6)
 82: 0x025E [0x1C] WAIT(30* ticks)
 83: 0x0261 [0x52] END_LOAD_SCHEDULER: End scheduler "s012" with entities [LocalPlayer, LocalPlayer], work=262*
 84: 0x0270 [0x45] LOAD_SCHEDULED_TASK: Load scheduler "s014" with entities [LocalPlayer, LocalPlayer], work=[262*, 0*]
 85: 0x0281 [0x2B] Alcander (ID: 16982263/0x010320F7) [4720*]:
    → "Tinga! Mind your manners!"
 86: 0x0288 [0x23] WAIT_FOR_DIALOG_INTERACTION
 87: 0x0289 [0x4A] Tinga-Matonga (ID: 16982262/0x010320F6) looks at Alcander (ID: 16982263/0x010320F7)
 88: 0x0292 [0x6F] WAIT_FRAME_DELAY: Yield until WaitTime reaches zero
 89: 0x0293 [0x76] CHECK_ENTITY_RENDER_FLAGS: Wait until Tinga-Matonga (ID: 16982262/0x010320F6) Render.Flags0 and Render.Flags3 conditions are met
 90: 0x0298 [0x6E] Tinga-Matonga (ID: 16982262/0x010320F6) uses emote 25*
 91: 0x029F [0x99] Wait for Tinga-Matonga (ID: 16982262/0x010320F6) animation to complete
 92: 0x02A4 [0x99] Wait for Tinga-Matonga (ID: 16982262/0x010320F6) animation to complete
 93: 0x02A9 [0x1C] WAIT(40* ticks)
 94: 0x02AC [0x2B] Tinga-Matonga (ID: 16982262/0x010320F6) [4721*]:
    → "Who asked you!? I don't need no stinkin' job! If you love this place so much, why don't you work here!?"
 95: 0x02B3 [0x23] WAIT_FOR_DIALOG_INTERACTION
 96: 0x02B4 [0x1C] WAIT(60* ticks)
 97: 0x02B7 [0x52] END_LOAD_SCHEDULER: End scheduler "s014" with entities [LocalPlayer, LocalPlayer], work=262*
 98: 0x02C6 [0x45] LOAD_SCHEDULED_TASK: Load scheduler "s013" with entities [LocalPlayer, LocalPlayer], work=[262*, 0*]
 99: 0x02D7 [0x2B] Alcander (ID: 16982263/0x010320F7) [4722*]:
    → "I won't always be around to take care of you. Try to understand."
100: 0x02DE [0x23] WAIT_FOR_DIALOG_INTERACTION
101: 0x02DF [0x1C] WAIT(60* ticks)
102: 0x02E2 [0x52] END_LOAD_SCHEDULER: End scheduler "s013" with entities [LocalPlayer, LocalPlayer], work=262*
103: 0x02F1 [0x45] LOAD_SCHEDULED_TASK: Load scheduler "s010" with entities [LocalPlayer, LocalPlayer], work=[262*, 0*]
104: 0x0302 [0x6E] Tinga-Matonga (ID: 16982262/0x010320F6) uses emote 33*
105: 0x0309 [0x99] Wait for Tinga-Matonga (ID: 16982262/0x010320F6) animation to complete
106: 0x030E [0x99] Wait for Tinga-Matonga (ID: 16982262/0x010320F6) animation to complete
107: 0x0313 [0x1C] WAIT(100* ticks)
108: 0x0316 [0x2B] Tinga-Matonga (ID: 16982262/0x010320F6) [4723*]:
    → "I don't need no one to take care of me! Stay out of my life!"
109: 0x031D [0x23] WAIT_FOR_DIALOG_INTERACTION
110: 0x031E [0x1C] WAIT(70* ticks)
111: 0x0321 [0x52] END_LOAD_SCHEDULER: End scheduler "s010" with entities [LocalPlayer, LocalPlayer], work=262*
112: 0x0330 [0x45] LOAD_SCHEDULED_TASK: Load scheduler "s004" with entities [LocalPlayer, LocalPlayer], work=[262*, 0*]
113: 0x0341 [0x5D] SET_MUSIC_VOLUME(volume=0*, fade_time=200*)
114: 0x0346 [0x27] REQ_SET(priority=0x0A, entity_id=Tinga-Matonga (ID: 16982262/0x010320F6), tag_num=0x06)
115: 0x034D [0x1C] WAIT(40* ticks)
116: 0x0350 [0x4A] Ahaadah (ID: 16982261/0x010320F5) looks at Tinga-Matonga (ID: 16982262/0x010320F6)
117: 0x0359 [0x4A] Alcander (ID: 16982263/0x010320F7) looks at Tinga-Matonga (ID: 16982262/0x010320F6)
118: 0x0362 [0x1C] WAIT(180* ticks)
119: 0x0365 [0x52] END_LOAD_SCHEDULER: End scheduler "s004" with entities [LocalPlayer, LocalPlayer], work=262*
120: 0x0374 [0x45] LOAD_SCHEDULED_TASK: Load scheduler "s019" with entities [LocalPlayer, LocalPlayer], work=[262*, 0*]
121: 0x0385 [0x27] REQ_SET(priority=0x10, entity_id=Unnamed NPC (ID: 16982290/0x01032112), tag_num=0x5A)
122: 0x038C [0x1C] WAIT(80* ticks)
123: 0x038F [0x4E] SET_ENTITY_HIDE_FLAG: Hide Tinga-Matonga (ID: 16982262/0x010320F6)
124: 0x0395 [0x66] LOAD_EXT_SCHEDULER_MAIN: Load scheduler "dis0" with entities [Ahaadah (ID: 16982261/0x010320F5), Ahaadah (ID: 16982261/0x010320F5)], work=21*
125: 0x03A4 [0x4A] Alcander (ID: 16982263/0x010320F7) looks at LocalPlayer
126: 0x03AD [0x1C] WAIT(60* ticks)
127: 0x03B0 [0x5C] MUSIC_CONTROL: Set Idle (Day) music to song 178*
128: 0x03B4 [0x5C] MUSIC_CONTROL: Set Idle (Night) music to song 178*
129: 0x03B8 [0x66] LOAD_EXT_SCHEDULER_MAIN: Load scheduler "tld0" with entities [Alcander (ID: 16982263/0x010320F7), Alcander (ID: 16982263/0x010320F7)], work=2*
130: 0x03C7 [0x2B] Alcander (ID: 16982263/0x010320F7) [4724*]:
    → "<Sigh>... I'm sorry you had to see that."
131: 0x03CE [0x23] WAIT_FOR_DIALOG_INTERACTION
132: 0x03CF [0x66] LOAD_EXT_SCHEDULER_MAIN: Load scheduler "tld1" with entities [Alcander (ID: 16982263/0x010320F7), Alcander (ID: 16982263/0x010320F7)], work=2*
133: 0x03DE [0x1C] WAIT(60* ticks)
134: 0x03E1 [0x52] END_LOAD_SCHEDULER: End scheduler "s019" with entities [LocalPlayer, LocalPlayer], work=262*
135: 0x03F0 [0x45] LOAD_SCHEDULED_TASK: Load scheduler "s020" with entities [LocalPlayer, LocalPlayer], work=[262*, 0*]
136: 0x0401 [0x79] Ahaadah (ID: 16982261/0x010320F5) looks at Alcander (ID: 16982263/0x010320F7) (Basic look)
137: 0x040B [0x4A] LocalPlayer looks at Alcander (ID: 16982263/0x010320F7)
138: 0x0414 [0x27] REQ_SET(priority=0x0A, entity_id=Alcander (ID: 16982263/0x010320F7), tag_num=0x05)
139: 0x041B [0x2B] Alcander (ID: 16982263/0x010320F7) [4725*]:
    → "You're an adventurer, right? I've done a fair share of adventuring myself, traveling the world with my sword and my wits."
140: 0x0422 [0x23] WAIT_FOR_DIALOG_INTERACTION
141: 0x0423 [0x1C] WAIT(80* ticks)
142: 0x0426 [0x52] END_LOAD_SCHEDULER: End scheduler "s020" with entities [LocalPlayer, LocalPlayer], work=262*
143: 0x0435 [0x45] LOAD_SCHEDULED_TASK: Load scheduler "s008" with entities [LocalPlayer, LocalPlayer], work=[262*, 0*]
144: 0x0446 [0x27] REQ_SET(priority=0x10, entity_id=Unnamed NPC (ID: 16982290/0x01032112), tag_num=0x5B)
145: 0x044D [0x4A] Ahaadah (ID: 16982261/0x010320F5) looks at Alcander (ID: 16982263/0x010320F7)
146: 0x0456 [0x1C] WAIT(30* ticks)
147: 0x0459 [0x2B] Alcander (ID: 16982263/0x010320F7) [4726*]:
    → "It was not long after I arrived in Al Zahbi when I ran into Tinga."
148: 0x0460 [0x23] WAIT_FOR_DIALOG_INTERACTION
149: 0x0461 [0x2B] Alcander (ID: 16982263/0x010320F7) [4727*]:
    → "He had lost both his parents... An orphan..."
150: 0x0468 [0x23] WAIT_FOR_DIALOG_INTERACTION
151: 0x0469 [0x52] END_LOAD_SCHEDULER: End scheduler "s008" with entities [LocalPlayer, LocalPlayer], work=262*
152: 0x0478 [0x45] LOAD_SCHEDULED_TASK: Load scheduler "s003" with entities [LocalPlayer, LocalPlayer], work=[262*, 0*]
153: 0x0489 [0x2B] Alcander (ID: 16982263/0x010320F7) [4728*]:
    → "I tried to find somebody to take him in, but every door was slammed in my face."
154: 0x0490 [0x23] WAIT_FOR_DIALOG_INTERACTION
155: 0x0491 [0x1C] WAIT(60* ticks)
156: 0x0494 [0x66] LOAD_EXT_SCHEDULER_MAIN: Load scheduler "thb1" with entities [Alcander (ID: 16982263/0x010320F7), Alcander (ID: 16982263/0x010320F7)], work=2*
157: 0x04A3 [0x2B] Alcander (ID: 16982263/0x010320F7) [4729*]:
    → "So I decided to look after him for a time and found myself getting attached to the little scamp..."
158: 0x04AA [0x23] WAIT_FOR_DIALOG_INTERACTION
159: 0x04AB [0x66] LOAD_EXT_SCHEDULER_MAIN: Load scheduler "thb2" with entities [Alcander (ID: 16982263/0x010320F7), Alcander (ID: 16982263/0x010320F7)], work=2*
160: 0x04BA [0x2B] Alcander (ID: 16982263/0x010320F7) [4730*]:
    → "I couldn't just leave him and pick up my adventures again."
161: 0x04C1 [0x23] WAIT_FOR_DIALOG_INTERACTION
162: 0x04C2 [0x94] Alcander (ID: 16982263/0x010320F7)->Render.Flags3 ^= 0x01
163: 0x04C8 [0x1C] WAIT(60* ticks)
164: 0x04CB [0x52] END_LOAD_SCHEDULER: End scheduler "s003" with entities [LocalPlayer, LocalPlayer], work=262*
165: 0x04DA [0x45] LOAD_SCHEDULED_TASK: Load scheduler "s022" with entities [LocalPlayer, LocalPlayer], work=[262*, 0*]
166: 0x04EB [0x2B] Alcander (ID: 16982263/0x010320F7) [4731*]:
    → "I was going to continue my mercenary work here and raise Tinga as my own..."
167: 0x04F2 [0x23] WAIT_FOR_DIALOG_INTERACTION
168: 0x04F3 [0x1C] WAIT(60* ticks)
169: 0x04F6 [0x52] END_LOAD_SCHEDULER: End scheduler "s022" with entities [LocalPlayer, LocalPlayer], work=262*
170: 0x0505 [0x45] LOAD_SCHEDULED_TASK: Load scheduler "s015" with entities [LocalPlayer, LocalPlayer], work=[262*, 0*]
171: 0x0516 [0x22] ENTITY_HIDE_FLAG(enabled=0x01)
172: 0x0518 [0x27] REQ_SET(priority=0x0A, entity_id=Alcander (ID: 16982263/0x010320F7), tag_num=0x06)
173: 0x051F [0x2B] Alcander (ID: 16982263/0x010320F7) [4732*]:
    → "But then I realized I could no longer swing a sword. It seems I've contracted some sort of illness..."
174: 0x0526 [0x23] WAIT_FOR_DIALOG_INTERACTION
175: 0x0527 [0x2B] Alcander (ID: 16982263/0x010320F7) [4733*]:
    → "The doctor says there is not much time left for me."
176: 0x052E [0x23] WAIT_FOR_DIALOG_INTERACTION
177: 0x052F [0x2B] Alcander (ID: 16982263/0x010320F7) [4734*]:
    → "Before I pass from this life, I want to make sure Tinga has some way to support himself."
178: 0x0536 [0x23] WAIT_FOR_DIALOG_INTERACTION
179: 0x0537 [0x1C] WAIT(30* ticks)
180: 0x053A [0x22] ENTITY_HIDE_FLAG(enabled=0x00)
181: 0x053C [0x52] END_LOAD_SCHEDULER: End scheduler "s015" with entities [LocalPlayer, LocalPlayer], work=262*
182: 0x054B [0x45] LOAD_SCHEDULED_TASK: Load scheduler "s009" with entities [LocalPlayer, LocalPlayer], work=[262*, 0*]
183: 0x055C [0x4A] Alcander (ID: 16982263/0x010320F7) looks at LocalPlayer
184: 0x0565 [0x2B] Alcander (ID: 16982263/0x010320F7) [4735*]:
    → "Well, you can see how well that effort is going. He has no mind to begin a trade and is only interested in causing mischief."
185: 0x056C [0x23] WAIT_FOR_DIALOG_INTERACTION
186: 0x056D [0x2B] Alcander (ID: 16982263/0x010320F7) [4736*]:
    → "But deep down, I know he's a good kid."
187: 0x0574 [0x23] WAIT_FOR_DIALOG_INTERACTION
188: 0x0575 [0x1C] WAIT(30* ticks)
189: 0x0578 [0x52] END_LOAD_SCHEDULER: End scheduler "s009" with entities [LocalPlayer, LocalPlayer], work=262*
190: 0x0587 [0x45] LOAD_SCHEDULED_TASK: Load scheduler "s016" with entities [LocalPlayer, LocalPlayer], work=[262*, 0*]
191: 0x0598 [0x66] LOAD_EXT_SCHEDULER_MAIN: Load scheduler "tlb0" with entities [Alcander (ID: 16982263/0x010320F7), Alcander (ID: 16982263/0x010320F7)], work=5*
192: 0x05A7 [0x2B] Alcander (ID: 16982263/0x010320F7) [4737*]:
    → "What do you say? Do you think you can help out a fellow adventurer?"
193: 0x05AE [0x23] WAIT_FOR_DIALOG_INTERACTION
194: 0x05AF [0x2B] Alcander (ID: 16982263/0x010320F7) [4738*]:
    → "I need you to help me turn his life around."
195: 0x05B6 [0x23] WAIT_FOR_DIALOG_INTERACTION
196: 0x05B7 [0x66] LOAD_EXT_SCHEDULER_MAIN: Load scheduler "tlb1" with entities [Alcander (ID: 16982263/0x010320F7), Alcander (ID: 16982263/0x010320F7)], work=5*
197: 0x05C6 [0x1C] WAIT(60* ticks)
198: 0x05C9 [0x66] LOAD_EXT_SCHEDULER_MAIN: Load scheduler "thb1" with entities [Alcander (ID: 16982263/0x010320F7), Alcander (ID: 16982263/0x010320F7)], work=2*
199: 0x05D8 [0x2B] Alcander (ID: 16982263/0x010320F7) [4739*]:
    → "Any time I try to have a serious talk with him, he just runs away..."
200: 0x05DF [0x23] WAIT_FOR_DIALOG_INTERACTION
201: 0x05E0 [0x2B] Alcander (ID: 16982263/0x010320F7) [4740*]:
    → "To tell the truth, I have no idea where he is most of the time."
202: 0x05E7 [0x23] WAIT_FOR_DIALOG_INTERACTION
203: 0x05E8 [0x66] LOAD_EXT_SCHEDULER_MAIN: Load scheduler "thb2" with entities [Alcander (ID: 16982263/0x010320F7), Alcander (ID: 16982263/0x010320F7)], work=2*
204: 0x05F7 [0x1C] WAIT(60* ticks)
205: 0x05FA [0x52] END_LOAD_SCHEDULER: End scheduler "s016" with entities [LocalPlayer, LocalPlayer], work=262*
206: 0x0609 [0x45] LOAD_SCHEDULED_TASK: Load scheduler "s006" with entities [LocalPlayer, LocalPlayer], work=[262*, 0*]
207: 0x061A [0x4A] Ahaadah (ID: 16982261/0x010320F5) looks at LocalPlayer
208: 0x0623 [0x66] LOAD_EXT_SCHEDULER_MAIN: Load scheduler "tlk0" with entities [Ahaadah (ID: 16982261/0x010320F5), Ahaadah (ID: 16982261/0x010320F5)], work=20*
209: 0x0632 [0x2B] Ahaadah (ID: 16982261/0x010320F5) [4741*]:
    → "Quite the dilemma. Perhaps I may be of assistance?"
210: 0x0639 [0x23] WAIT_FOR_DIALOG_INTERACTION
211: 0x063A [0x66] LOAD_EXT_SCHEDULER_MAIN: Load scheduler "tlk1" with entities [Ahaadah (ID: 16982261/0x010320F5), Ahaadah (ID: 16982261/0x010320F5)], work=20*
212: 0x0649 [0x1C] WAIT(30* ticks)
213: 0x064C [0x79] LocalPlayer looks at Ahaadah (ID: 16982261/0x010320F5) (Basic look)
214: 0x0656 [0x1C] WAIT(15* ticks)
215: 0x0659 [0x4A] Alcander (ID: 16982263/0x010320F7) looks at Ahaadah (ID: 16982261/0x010320F5)
216: 0x0662 [0x27] REQ_SET(priority=0x0A, entity_id=Alcander (ID: 16982263/0x010320F7), tag_num=0x07)
217: 0x0669 [0x2B] Alcander (ID: 16982263/0x010320F7) [4742*]:
    → "!!!"
218: 0x0670 [0x1C] WAIT(45* ticks)
219: 0x0673 [0x2A] GET_REQ_LEVEL(level=10, entity_id=Alcander (ID: 16982263/0x010320F7))
220: 0x0679 [0x66] LOAD_EXT_SCHEDULER_MAIN: Load scheduler "tlb0" with entities [Alcander (ID: 16982263/0x010320F7), Alcander (ID: 16982263/0x010320F7)], work=5*
221: 0x0688 [0x2B] Alcander (ID: 16982263/0x010320F7) [4743*]:
    → "You would help us!?"
222: 0x068F [0x23] WAIT_FOR_DIALOG_INTERACTION
223: 0x0690 [0x66] LOAD_EXT_SCHEDULER_MAIN: Load scheduler "tlb1" with entities [Alcander (ID: 16982263/0x010320F7), Alcander (ID: 16982263/0x010320F7)], work=5*
224: 0x069F [0x1C] WAIT(60* ticks)
225: 0x06A2 [0x52] END_LOAD_SCHEDULER: End scheduler "s006" with entities [LocalPlayer, LocalPlayer], work=262*
226: 0x06B1 [0x45] LOAD_SCHEDULED_TASK: Load scheduler "s021" with entities [LocalPlayer, LocalPlayer], work=[262*, 0*]
227: 0x06C2 [0x4A] Ahaadah (ID: 16982261/0x010320F5) looks at Alcander (ID: 16982263/0x010320F7)
228: 0x06CB [0x1C] WAIT(30* ticks)
229: 0x06CE [0x66] LOAD_EXT_SCHEDULER_MAIN: Load scheduler "tlk0" with entities [Ahaadah (ID: 16982261/0x010320F5), Ahaadah (ID: 16982261/0x010320F5)], work=20*
230: 0x06DD [0x2B] Ahaadah (ID: 16982261/0x010320F5) [4744*]:
    → "I'm not so cold-hearted as all that."
231: 0x06E4 [0x23] WAIT_FOR_DIALOG_INTERACTION
232: 0x06E5 [0x66] LOAD_EXT_SCHEDULER_MAIN: Load scheduler "tlk1" with entities [Ahaadah (ID: 16982261/0x010320F5), Ahaadah (ID: 16982261/0x010320F5)], work=20*
233: 0x06F4 [0x1C] WAIT(60* ticks)
234: 0x06F7 [0x66] LOAD_EXT_SCHEDULER_MAIN: Load scheduler "thk1" with entities [Ahaadah (ID: 16982261/0x010320F5), Ahaadah (ID: 16982261/0x010320F5)], work=20*
235: 0x0706 [0x1C] WAIT(60* ticks)
236: 0x0709 [0x2B] Ahaadah (ID: 16982261/0x010320F5) [4745*]:
    → "The problem is how to draw Tinga out of hiding..."
237: 0x0710 [0x23] WAIT_FOR_DIALOG_INTERACTION
238: 0x0711 [0x66] LOAD_EXT_SCHEDULER_MAIN: Load scheduler "thk2" with entities [Ahaadah (ID: 16982261/0x010320F5), Ahaadah (ID: 16982261/0x010320F5)], work=20*
239: 0x0720 [0x52] END_LOAD_SCHEDULER: End scheduler "s021" with entities [LocalPlayer, LocalPlayer], work=262*
240: 0x072F [0x45] LOAD_SCHEDULED_TASK: Load scheduler "s017" with entities [LocalPlayer, LocalPlayer], work=[262*, 0*]
241: 0x0740 [0x4A] Ahaadah (ID: 16982261/0x010320F5) looks at LocalPlayer
242: 0x0749 [0x1C] WAIT(30* ticks)
243: 0x074C [0x03] Work_Zone[2] = 4145*
244: 0x0751 [0x2B] Ahaadah (ID: 16982261/0x010320F5) [4746*]:
    → "How about we pretend to leave this $0 behind by mistake?"
245: 0x0758 [0x23] WAIT_FOR_DIALOG_INTERACTION
246: 0x0759 [0x6E] LocalPlayer uses emote 7*
247: 0x0760 [0x99] Wait for LocalPlayer animation to complete
248: 0x0765 [0x1C] WAIT(60* ticks)
249: 0x0768 [0x66] LOAD_EXT_SCHEDULER_MAIN: Load scheduler "tlk0" with entities [Ahaadah (ID: 16982261/0x010320F5), Ahaadah (ID: 16982261/0x010320F5)], work=20*
250: 0x0777 [0x2B] Ahaadah (ID: 16982261/0x010320F5) [4747*]:
    → "Excellent. Please go on ahead. I shall join you once my work here is done for the day."
251: 0x077E [0x23] WAIT_FOR_DIALOG_INTERACTION
252: 0x077F [0x66] LOAD_EXT_SCHEDULER_MAIN: Load scheduler "tlk1" with entities [Ahaadah (ID: 16982261/0x010320F5), Ahaadah (ID: 16982261/0x010320F5)], work=20*
253: 0x078E [0x4A] Alcander (ID: 16982263/0x010320F7) looks at LocalPlayer
254: 0x0797 [0x1C] WAIT(60* ticks)
255: 0x079A [0x52] END_LOAD_SCHEDULER: End scheduler "s017" with entities [LocalPlayer, LocalPlayer], work=262*
256: 0x07A9 [0x45] LOAD_SCHEDULED_TASK: Load scheduler "s018" with entities [LocalPlayer, LocalPlayer], work=[262*, 0*]
257: 0x07BA [0x2B] Alcander (ID: 16982263/0x010320F7) [4748*]:
    → "Thank you, Ahaadah."
258: 0x07C1 [0x23] WAIT_FOR_DIALOG_INTERACTION
259: 0x07C2 [0x1C] WAIT(30* ticks)
260: 0x07C5 [0x1A] CALL_SUBROUTINE(address=0x7C89)
261: 0x07C8 [0x52] END_LOAD_SCHEDULER: End scheduler "s018" with entities [LocalPlayer, LocalPlayer], work=262*
262: 0x07D7 [0x46] CAMERA_CONTROL: Restore default settings
263: 0x07D9 [0x45] LOAD_SCHEDULED_TASK: Load scheduler "fdi2" with entities [LocalPlayer, LocalPlayer], work=[200*, 0*]
264: 0x07EA [0x21] END_EVENT
265: 0x07EB [0x00] END_REQSTACK()
```

### Event 2

#### Metadata

| Field        | Value     |
|--------------|-----------|
| Entrypoint   | 0x07EC    |
| Data Size    | 858 bytes |
| Instructions | 113       |

```
      00 01 02 03 04 05 06 07  08 09 0A 0B 0C 0D 0E 0F
      -- -- -- -- -- -- -- --  -- -- -- -- -- -- -- --
07E0:                                      42 1A 74 7C              B.t|
07F0: 46 01 38 00 80 5D 03 80  40 80 2F 00 F6 20 03 01  F.8..]..@./.. ..
0800: 2F 00 F7 20 03 01 29 10  F0 FF FF 7F 3A 29 01 F5  /.. ..).....:)..
0810: 20 03 01 04 27 14 F6 20  03 01 07 80 F0 FF FF 7F   ...'.. ........
0820: 80 F6 20 03 01 80 F5 20  03 01 80 F7 20 03 01 4E  .. .... .... ..N
0830: 00 F6 20 03 01 45 02 80  F0 FF FF 7F F0 FF FF 7F  .. ..E..........
0840: 73 30 32 33 03 80 1A DD  7C 79 00 F0 FF FF 7F F5  s023....|y......
0850: 20 03 01 1C 20 80 52 02  80 F0 FF FF 7F F0 FF FF   ... .R.........
0860: 7F 73 30 32 33 45 02 80  F0 FF FF 7F F0 FF FF 7F  .s023E..........
0870: 73 30 32 34 03 80 4A F0  FF FF 7F F5 20 03 01 27  s024..J..... ..'
0880: 14 F5 20 03 01 05 1C 09  80 2B F5 20 03 01 41 80  .. ......+. ..A.
0890: 23 2A 14 F5 20 03 01 52  02 80 F0 FF FF 7F F0 FF  #*.. ..R........
08A0: FF 7F 73 30 32 34 45 02  80 F0 FF FF 7F F0 FF FF  ..s024E.........
08B0: 7F 73 30 32 35 03 80 27  14 F5 20 03 01 06 4A F0  .s025..'.. ...J.
08C0: FF FF 7F F5 20 03 01 2A  14 F5 20 03 01 2B F5 20  .... ..*.. ..+. 
08D0: 03 01 42 80 23 52 02 80  F0 FF FF 7F F0 FF FF 7F  ..B.#R..........
08E0: 73 30 32 35 45 02 80 F0  FF FF 7F F0 FF FF 7F 73  s025E..........s
08F0: 30 32 36 03 80 1C 01 80  29 14 F6 20 03 01 08 66  026.....).. ...f
0900: 14 80 F6 20 03 01 F6 20  03 01 73 68 61 30 2B F5  ... ... ..sha0+.
0910: 20 03 01 43 80 23 1C 44  80 55 02 80 F0 FF FF 7F   ..C.#.D.U......
0920: F0 FF FF 7F 73 30 32 39  45 02 80 F0 FF FF 7F F0  ....s029E.......
0930: FF FF 7F 73 30 32 37 03  80 2B F5 20 03 01 45 80  ...s027..+. ..E.
0940: 23 27 10 F0 FF FF 7F 3B  1C 09 80 27 14 F5 20 03  #'.....;...'.. .
0950: 01 07 1C 46 80 79 00 F6  20 03 01 F0 FF FF 7F 52  ...F.y.. ......R
0960: 02 80 F0 FF FF 7F F0 FF  FF 7F 73 30 32 37 45 02  ..........s027E.
0970: 80 F0 FF FF 7F F0 FF FF  7F 73 30 32 38 03 80 27  .........s028..'
0980: 10 FB 20 03 01 03 1C 08  80 52 02 80 F0 FF FF 7F  .. ......R......
0990: F0 FF FF 7F 73 30 32 38  45 02 80 F0 FF FF 7F F0  ....s028E.......
09A0: FF FF 7F 73 30 32 39 03  80 55 02 80 F0 FF FF 7F  ...s029..U......
09B0: F0 FF FF 7F 73 30 32 39  62 47 80 FB 20 03 01 FB  ....s029bG.. ...
09C0: 20 03 01 6D 61 69 6E 03  80 1C 09 80 1A 74 7C 6B   ..main......t|k
09D0: 69 64 6C 30 F6 20 03 01  27 10 F0 FF FF 7F 3C 27  idl0. ..'.....<'
09E0: 10 F5 20 03 01 08 4A F0  FF FF 7F F6 20 03 01 4A  .. ...J..... ..J
09F0: F5 20 03 01 F6 20 03 01  1C 16 80 5C 00 0D 80 5C  . ... .....\...\
0A00: 01 0D 80 9A 29 10 F6 20  03 01 09 52 02 80 F0 FF  ....).. ...R....
0A10: FF 7F F0 FF FF 7F 73 30  32 39 45 02 80 F0 FF FF  ......s029E.....
0A20: 7F F0 FF FF 7F 73 30 33  31 03 80 1C 01 80 1A DD  .....s031.......
0A30: 7C 6E F6 20 03 01 48 80  99 F6 20 03 01 99 F6 20  |n. ..H... .... 
0A40: 03 01 1C 09 80 52 02 80  F0 FF FF 7F F0 FF FF 7F  .....R..........
0A50: 73 30 33 31 45 02 80 F0  FF FF 7F F0 FF FF 7F 73  s031E..........s
0A60: 30 33 30 03 80 55 02 80  F0 FF FF 7F F0 FF FF 7F  030..U..........
0A70: 73 30 33 30 45 02 80 F0  FF FF 7F F0 FF FF 7F 73  s030E..........s
0A80: 30 33 32 03 80 55 02 80  F0 FF FF 7F F0 FF FF 7F  032..U..........
0A90: 73 30 33 32 2B F5 20 03  01 49 80 23 45 02 80 F0  s032+. ..I.#E...
0AA0: FF FF 7F F0 FF FF 7F 73  30 33 33 03 80 4A F6 20  .......s033..J. 
0AB0: 03 01 F5 20 03 01 1C 01  80 6E F6 20 03 01 22 80  ... .....n. ..".
0AC0: 99 F6 20 03 01 99 F6 20  03 01 1C 0B 80 52 02 80  .. .... .....R..
0AD0: F0 FF FF 7F F0 FF FF 7F  73 30 33 33 45 02 80 F0  ........s033E...
0AE0: FF FF 7F F0 FF FF 7F 73  30 33 34 03 80 27 10 F6  .......s034..'..
0AF0: 20 03 01 0A 1C 09 80 2B  F5 20 03 01 4A 80 23 27   ......+. ..J.#'
0B00: 10 F5 20 03 01 09 1C 19  80 27 10 F0 FF FF 7F 3D  .. ......'.....=
0B10: 1C 09 80 1A 74 7C 1C 16  80 52 02 80 F0 FF FF 7F  ....t|...R......
0B20: F0 FF FF 7F 73 30 33 34  5C 00 23 80 5C 01 23 80  ....s034\.#.\.#.
0B30: 9A 46 00 45 1F 80 F0 FF  FF 7F F0 FF FF 7F 66 64  .F.E..........fd
0B40: 69 32 03 80 21 00                                 i2..!.          
```

#### Opcodes

```
  0: 0x07EC [0x42] SET_CLI_EVENT_CANCEL_DATA()
  1: 0x07ED [0x1A] CALL_SUBROUTINE(address=0x7C74)
  2: 0x07F0 [0x46] CAMERA_CONTROL: Disable user control
  3: 0x07F2 [0x38] SET_CLIENT_EVENT_MODE(mode=19*)
  4: 0x07F5 [0x5D] SET_MUSIC_VOLUME(volume=0*, fade_time=150*)
  5: 0x07FA [0x2F] Tinga-Matonga (ID: 16982262/0x010320F6)->Render.Flags0 &= ~0x80000 // Bit 19
  6: 0x0800 [0x2F] Alcander (ID: 16982263/0x010320F7)->Render.Flags0 &= ~0x80000 // Bit 19
  7: 0x0806 [0x29] REQ_SET_WAIT(priority=0x10, entity_id=LocalPlayer, tag_num=0x3A)
  8: 0x080D [0x29] REQ_SET_WAIT(priority=0x01, entity_id=Ahaadah (ID: 16982261/0x010320F5), tag_num=0x04)
  9: 0x0814 [0x27] REQ_SET(priority=0x14, entity_id=Tinga-Matonga (ID: 16982262/0x010320F6), tag_num=0x07)
 10: 0x081B [0x80] LOAD_WAIT(entity=LocalPlayer)
 11: 0x0820 [0x80] LOAD_WAIT(entity=Tinga-Matonga (ID: 16982262/0x010320F6))
 12: 0x0825 [0x80] LOAD_WAIT(entity=Ahaadah (ID: 16982261/0x010320F5))
 13: 0x082A [0x80] LOAD_WAIT(entity=Alcander (ID: 16982263/0x010320F7))
 14: 0x082F [0x4E] SET_ENTITY_HIDE_FLAG: Show Tinga-Matonga (ID: 16982262/0x010320F6)
 15: 0x0835 [0x45] LOAD_SCHEDULED_TASK: Load scheduler "s023" with entities [LocalPlayer, LocalPlayer], work=[262*, 0*]
 16: 0x0846 [0x1A] CALL_SUBROUTINE(address=0x7CDD)
 17: 0x0849 [0x79] LocalPlayer looks at Ahaadah (ID: 16982261/0x010320F5) (Basic look)
 18: 0x0853 [0x1C] WAIT(180* ticks)
 19: 0x0856 [0x52] END_LOAD_SCHEDULER: End scheduler "s023" with entities [LocalPlayer, LocalPlayer], work=262*
 20: 0x0865 [0x45] LOAD_SCHEDULED_TASK: Load scheduler "s024" with entities [LocalPlayer, LocalPlayer], work=[262*, 0*]
 21: 0x0876 [0x4A] LocalPlayer looks at Ahaadah (ID: 16982261/0x010320F5)
 22: 0x087F [0x27] REQ_SET(priority=0x14, entity_id=Ahaadah (ID: 16982261/0x010320F5), tag_num=0x05)
 23: 0x0886 [0x1C] WAIT(60* ticks)
 24: 0x0889 [0x2B] Ahaadah (ID: 16982261/0x010320F5) [4749*]:
    → "Hail! I trust I did not keep you waiting too long? Have you brought the item I requested?"
 25: 0x0890 [0x23] WAIT_FOR_DIALOG_INTERACTION
 26: 0x0891 [0x2A] GET_REQ_LEVEL(level=20, entity_id=Ahaadah (ID: 16982261/0x010320F5))
 27: 0x0897 [0x52] END_LOAD_SCHEDULER: End scheduler "s024" with entities [LocalPlayer, LocalPlayer], work=262*
 28: 0x08A6 [0x45] LOAD_SCHEDULED_TASK: Load scheduler "s025" with entities [LocalPlayer, LocalPlayer], work=[262*, 0*]
 29: 0x08B7 [0x27] REQ_SET(priority=0x14, entity_id=Ahaadah (ID: 16982261/0x010320F5), tag_num=0x06)
 30: 0x08BE [0x4A] LocalPlayer looks at Ahaadah (ID: 16982261/0x010320F5)
 31: 0x08C7 [0x2A] GET_REQ_LEVEL(level=20, entity_id=Ahaadah (ID: 16982261/0x010320F5))
 32: 0x08CD [0x2B] Ahaadah (ID: 16982261/0x010320F5) [4750*]:
    → "(Play the part of a merchant. Just follow my lead.)"
 33: 0x08D4 [0x23] WAIT_FOR_DIALOG_INTERACTION
 34: 0x08D5 [0x52] END_LOAD_SCHEDULER: End scheduler "s025" with entities [LocalPlayer, LocalPlayer], work=262*
 35: 0x08E4 [0x45] LOAD_SCHEDULED_TASK: Load scheduler "s026" with entities [LocalPlayer, LocalPlayer], work=[262*, 0*]
 36: 0x08F5 [0x1C] WAIT(15* ticks)
 37: 0x08F8 [0x29] REQ_SET_WAIT(priority=0x14, entity_id=Tinga-Matonga (ID: 16982262/0x010320F6), tag_num=0x08)
 38: 0x08FF [0x66] LOAD_EXT_SCHEDULER_MAIN: Load scheduler "sha0" with entities [Tinga-Matonga (ID: 16982262/0x010320F6), Tinga-Matonga (ID: 16982262/0x010320F6)], work=49*
 39: 0x090E [0x2B] Ahaadah (ID: 16982261/0x010320F5) [4751*]:
    → "Yes! This is exactly what I was searching for! You've done well to obtain such an extraordinarily rare item!"
 40: 0x0915 [0x23] WAIT_FOR_DIALOG_INTERACTION
 41: 0x0916 [0x1C] WAIT(110* ticks)
 42: 0x0919 [0x55] WAIT_LOAD_SCHEDULER: Wait for scheduler "s029" with entities [LocalPlayer, LocalPlayer], work=262*
 43: 0x0928 [0x45] LOAD_SCHEDULED_TASK: Load scheduler "s027" with entities [LocalPlayer, LocalPlayer], work=[262*, 0*]
 44: 0x0939 [0x2B] Ahaadah (ID: 16982261/0x010320F5) [4752*]:
    → "What's this!? You say you have something even more impressive for sale? Well then, my good merchant, lead on!"
 45: 0x0940 [0x23] WAIT_FOR_DIALOG_INTERACTION
 46: 0x0941 [0x27] REQ_SET(priority=0x10, entity_id=LocalPlayer, tag_num=0x3B)
 47: 0x0948 [0x1C] WAIT(60* ticks)
 48: 0x094B [0x27] REQ_SET(priority=0x14, entity_id=Ahaadah (ID: 16982261/0x010320F5), tag_num=0x07)
 49: 0x0952 [0x1C] WAIT(300* ticks)
 50: 0x0955 [0x79] Tinga-Matonga (ID: 16982262/0x010320F6) looks at LocalPlayer (Basic look)
 51: 0x095F [0x52] END_LOAD_SCHEDULER: End scheduler "s027" with entities [LocalPlayer, LocalPlayer], work=262*
 52: 0x096E [0x45] LOAD_SCHEDULED_TASK: Load scheduler "s028" with entities [LocalPlayer, LocalPlayer], work=[262*, 0*]
 53: 0x097F [0x27] REQ_SET(priority=0x10, entity_id=Taishu-Yaashu (ID: 16982267/0x010320FB), tag_num=0x03)
 54: 0x0986 [0x1C] WAIT(120* ticks)
 55: 0x0989 [0x52] END_LOAD_SCHEDULER: End scheduler "s028" with entities [LocalPlayer, LocalPlayer], work=262*
 56: 0x0998 [0x45] LOAD_SCHEDULED_TASK: Load scheduler "s029" with entities [LocalPlayer, LocalPlayer], work=[262*, 0*]
 57: 0x09A9 [0x55] WAIT_LOAD_SCHEDULER: Wait for scheduler "s029" with entities [LocalPlayer, LocalPlayer], work=262*
 58: 0x09B8 [0x62] LOAD_EVENT_SCHEDULER: Load scheduler "main" with entities [Taishu-Yaashu (ID: 16982267/0x010320FB), Taishu-Yaashu (ID: 16982267/0x010320FB)], work=[3*, 0*]
 59: 0x09C9 [0x1C] WAIT(60* ticks)
 60: 0x09CC [0x1A] CALL_SUBROUTINE(address=0x7C74)
 61: 0x09CF [0x6B] STOP_AND_IDLE: Tinga-Matonga (ID: 16982262/0x010320F6) stops current action and resets to idle (animation="idl0")
 62: 0x09D8 [0x27] REQ_SET(priority=0x10, entity_id=LocalPlayer, tag_num=0x3C)
 63: 0x09DF [0x27] REQ_SET(priority=0x10, entity_id=Ahaadah (ID: 16982261/0x010320F5), tag_num=0x08)
 64: 0x09E6 [0x4A] LocalPlayer looks at Tinga-Matonga (ID: 16982262/0x010320F6)
 65: 0x09EF [0x4A] Ahaadah (ID: 16982261/0x010320F5) looks at Tinga-Matonga (ID: 16982262/0x010320F6)
 66: 0x09F8 [0x1C] WAIT(30* ticks)
 67: 0x09FB [0x5C] MUSIC_CONTROL: Set Idle (Day) music to song 163*
 68: 0x09FF [0x5C] MUSIC_CONTROL: Set Idle (Night) music to song 163*
 69: 0x0A03 [0x9A] WAIT_MUSIC_SERVER()
 70: 0x0A04 [0x29] REQ_SET_WAIT(priority=0x10, entity_id=Tinga-Matonga (ID: 16982262/0x010320F6), tag_num=0x09)
 71: 0x0A0B [0x52] END_LOAD_SCHEDULER: End scheduler "s029" with entities [LocalPlayer, LocalPlayer], work=262*
 72: 0x0A1A [0x45] LOAD_SCHEDULED_TASK: Load scheduler "s031" with entities [LocalPlayer, LocalPlayer], work=[262*, 0*]
 73: 0x0A2B [0x1C] WAIT(15* ticks)
 74: 0x0A2E [0x1A] CALL_SUBROUTINE(address=0x7CDD)
 75: 0x0A31 [0x6E] Tinga-Matonga (ID: 16982262/0x010320F6) uses emote 12*
 76: 0x0A38 [0x99] Wait for Tinga-Matonga (ID: 16982262/0x010320F6) animation to complete
 77: 0x0A3D [0x99] Wait for Tinga-Matonga (ID: 16982262/0x010320F6) animation to complete
 78: 0x0A42 [0x1C] WAIT(60* ticks)
 79: 0x0A45 [0x52] END_LOAD_SCHEDULER: End scheduler "s031" with entities [LocalPlayer, LocalPlayer], work=262*
 80: 0x0A54 [0x45] LOAD_SCHEDULED_TASK: Load scheduler "s030" with entities [LocalPlayer, LocalPlayer], work=[262*, 0*]
 81: 0x0A65 [0x55] WAIT_LOAD_SCHEDULER: Wait for scheduler "s030" with entities [LocalPlayer, LocalPlayer], work=262*
 82: 0x0A74 [0x45] LOAD_SCHEDULED_TASK: Load scheduler "s032" with entities [LocalPlayer, LocalPlayer], work=[262*, 0*]
 83: 0x0A85 [0x55] WAIT_LOAD_SCHEDULER: Wait for scheduler "s032" with entities [LocalPlayer, LocalPlayer], work=262*
 84: 0x0A94 [0x2B] Ahaadah (ID: 16982261/0x010320F5) [4753*]:
    → "Well, well. Look who decided to show up."
 85: 0x0A9B [0x23] WAIT_FOR_DIALOG_INTERACTION
 86: 0x0A9C [0x45] LOAD_SCHEDULED_TASK: Load scheduler "s033" with entities [LocalPlayer, LocalPlayer], work=[262*, 0*]
 87: 0x0AAD [0x4A] Tinga-Matonga (ID: 16982262/0x010320F6) looks at Ahaadah (ID: 16982261/0x010320F5)
 88: 0x0AB6 [0x1C] WAIT(15* ticks)
 89: 0x0AB9 [0x6E] Tinga-Matonga (ID: 16982262/0x010320F6) uses emote 21*
 90: 0x0AC0 [0x99] Wait for Tinga-Matonga (ID: 16982262/0x010320F6) animation to complete
 91: 0x0AC5 [0x99] Wait for Tinga-Matonga (ID: 16982262/0x010320F6) animation to complete
 92: 0x0ACA [0x1C] WAIT(45* ticks)
 93: 0x0ACD [0x52] END_LOAD_SCHEDULER: End scheduler "s033" with entities [LocalPlayer, LocalPlayer], work=262*
 94: 0x0ADC [0x45] LOAD_SCHEDULED_TASK: Load scheduler "s034" with entities [LocalPlayer, LocalPlayer], work=[262*, 0*]
 95: 0x0AED [0x27] REQ_SET(priority=0x10, entity_id=Tinga-Matonga (ID: 16982262/0x010320F6), tag_num=0x0A)
 96: 0x0AF4 [0x1C] WAIT(60* ticks)
 97: 0x0AF7 [0x2B] Ahaadah (ID: 16982261/0x010320F5) [4754*]:
    → "Hey! Come back here!"
 98: 0x0AFE [0x23] WAIT_FOR_DIALOG_INTERACTION
 99: 0x0AFF [0x27] REQ_SET(priority=0x10, entity_id=Ahaadah (ID: 16982261/0x010320F5), tag_num=0x09)
100: 0x0B06 [0x1C] WAIT(40* ticks)
101: 0x0B09 [0x27] REQ_SET(priority=0x10, entity_id=LocalPlayer, tag_num=0x3D)
102: 0x0B10 [0x1C] WAIT(60* ticks)
103: 0x0B13 [0x1A] CALL_SUBROUTINE(address=0x7C74)
104: 0x0B16 [0x1C] WAIT(30* ticks)
105: 0x0B19 [0x52] END_LOAD_SCHEDULER: End scheduler "s034" with entities [LocalPlayer, LocalPlayer], work=262*
106: 0x0B28 [0x5C] MUSIC_CONTROL: Set Idle (Day) music to song 178*
107: 0x0B2C [0x5C] MUSIC_CONTROL: Set Idle (Night) music to song 178*
108: 0x0B30 [0x9A] WAIT_MUSIC_SERVER()
109: 0x0B31 [0x46] CAMERA_CONTROL: Restore default settings
110: 0x0B33 [0x45] LOAD_SCHEDULED_TASK: Load scheduler "fdi2" with entities [LocalPlayer, LocalPlayer], work=[200*, 0*]
111: 0x0B44 [0x21] END_EVENT
112: 0x0B45 [0x00] END_REQSTACK()
```

### Event 3

#### Metadata

| Field        | Value      |
|--------------|------------|
| Entrypoint   | 0x0B46     |
| Data Size    | 5832 bytes |
| Instructions | 748        |

```
      00 01 02 03 04 05 06 07  08 09 0A 0B 0C 0D 0E 0F
      -- -- -- -- -- -- -- --  -- -- -- -- -- -- -- --
0B40:                   42 1A  74 7C 46 01 38 00 80 2F        B.t|F.8../
0B50: 00 F6 20 03 01 4E 00 F6  20 03 01 2F 00 F7 20 03  .. ..N.. ../.. .
0B60: 01 29 10 F0 FF FF 7F 3E  29 10 F5 20 03 01 0A 29  .).....>).. ...)
0B70: 10 F6 20 03 01 0B 80 F0  FF FF 7F 80 F6 20 03 01  .. .......... ..
0B80: 80 F5 20 03 01 4A F5 20  03 01 F6 20 03 01 4A F0  .. ..J. ... ..J.
0B90: FF FF 7F F6 20 03 01 5C  00 23 80 5C 01 23 80 9A  .... ..\.#.\.#..
0BA0: 45 02 80 F0 FF FF 7F F0  FF FF 7F 73 30 33 35 03  E..........s035.
0BB0: 80 6E F6 20 03 01 4B 80  99 F6 20 03 01 99 F6 20  .n. ..K... .... 
0BC0: 03 01 1A DD 7C 1C 09 80  66 14 80 F6 20 03 01 F6  ....|...f... ...
0BD0: 20 03 01 73 68 61 30 1C  16 80 52 02 80 F0 FF FF   ..sha0...R.....
0BE0: 7F F0 FF FF 7F 73 30 33  35 45 02 80 F0 FF FF 7F  .....s035E......
0BF0: F0 FF FF 7F 73 30 33 36  03 80 53 F6 20 03 01 F6  ....s036..S. ...
0C00: 20 03 01 73 68 61 30 66  14 80 F6 20 03 01 F6 20   ..sha0f... ... 
0C10: 03 01 73 68 61 31 52 02  80 F0 FF FF 7F F0 FF FF  ..sha1R.........
0C20: 7F 73 30 33 36 45 02 80  F0 FF FF 7F F0 FF FF 7F  .s036E..........
0C30: 73 30 33 37 03 80 53 F6  20 03 01 F6 20 03 01 73  s037..S. ... ..s
0C40: 68 61 31 4A F6 20 03 01  F5 20 03 01 27 10 F0 FF  ha1J. ... ..'...
0C50: FF 7F 3F 27 10 F5 20 03  01 0B 2B F5 20 03 01 4C  ..?'.. ...+. ..L
0C60: 80 23 2B F6 20 03 01 4D  80 23 55 02 80 F0 FF FF  .#+. ..M.#U.....
0C70: 7F F0 FF FF 7F 73 30 33  37 1C 16 80 52 02 80 F0  .....s037...R...
0C80: FF FF 7F F0 FF FF 7F 73  30 33 37 45 02 80 F0 FF  .......s037E....
0C90: FF 7F F0 FF FF 7F 73 30  33 38 03 80 94 01 F6 20  ......s038..... 
0CA0: 03 01 2B F5 20 03 01 4E  80 23 1C 21 80 52 02 80  ..+. ..N.#.!.R..
0CB0: F0 FF FF 7F F0 FF FF 7F  73 30 33 38 45 02 80 F0  ........s038E...
0CC0: FF FF 7F F0 FF FF 7F 73  30 33 39 03 80 6E F6 20  .......s039..n. 
0CD0: 03 01 4F 80 99 F6 20 03  01 2B F6 20 03 01 50 80  ..O... ..+. ..P.
0CE0: 23 1C 51 80 6E F5 20 03  01 18 80 99 F5 20 03 01  #.Q.n. ...... ..
0CF0: 99 F5 20 03 01 52 02 80  F0 FF FF 7F F0 FF FF 7F  .. ..R..........
0D00: 73 30 33 39 45 02 80 F0  FF FF 7F F0 FF FF 7F 73  s039E..........s
0D10: 30 34 32 03 80 2B F5 20  03 01 52 80 23 1C 16 80  042..+. ..R.#...
0D20: 2B F5 20 03 01 53 80 23  52 02 80 F0 FF FF 7F F0  +. ..S.#R.......
0D30: FF FF 7F 73 30 34 32 45  02 80 F0 FF FF 7F F0 FF  ...s042E........
0D40: FF 7F 73 30 34 33 03 80  2B F6 20 03 01 54 80 23  ..s043..+. ..T.#
0D50: 52 02 80 F0 FF FF 7F F0  FF FF 7F 73 30 34 33 45  R..........s043E
0D60: 02 80 F0 FF FF 7F F0 FF  FF 7F 73 30 35 30 03 80  ..........s050..
0D70: 6E F5 20 03 01 22 80 99  F5 20 03 01 2B F5 20 03  n. .."... ..+. .
0D80: 01 55 80 23 52 02 80 F0  FF FF 7F F0 FF FF 7F 73  .U.#R..........s
0D90: 30 35 30 45 02 80 F0 FF  FF 7F F0 FF FF 7F 73 30  050E..........s0
0DA0: 34 34 03 80 29 10 F5 20  03 01 17 6E F6 20 03 01  44..).. ...n. ..
0DB0: 56 80 99 F6 20 03 01 2B  F6 20 03 01 57 80 23 52  V... ..+. ..W.#R
0DC0: 02 80 F0 FF FF 7F F0 FF  FF 7F 73 30 34 34 45 02  ..........s044E.
0DD0: 80 F0 FF FF 7F F0 FF FF  7F 73 30 34 35 03 80 2B  .........s045..+
0DE0: F6 20 03 01 58 80 23 6E  F6 20 03 01 03 80 99 F6  . ..X.#n. ......
0DF0: 20 03 01 99 F6 20 03 01  1C 09 80 2B F6 20 03 01   .... .....+. ..
0E00: 59 80 23 6E F6 20 03 01  5A 80 99 F6 20 03 01 99  Y.#n. ..Z... ...
0E10: F6 20 03 01 1C 09 80 2B  F6 20 03 01 5B 80 23 6E  . .....+. ..[.#n
0E20: F6 20 03 01 5C 80 99 F6  20 03 01 99 F6 20 03 01  . ..\... .... ..
0E30: 1C 09 80 6E F6 20 03 01  5D 80 99 F6 20 03 01 99  ...n. ..]... ...
0E40: F6 20 03 01 2B F6 20 03  01 5E 80 23 1C 0B 80 52  . ..+. ..^.#...R
0E50: 02 80 F0 FF FF 7F F0 FF  FF 7F 73 30 34 35 45 02  ..........s045E.
0E60: 80 F0 FF FF 7F F0 FF FF  7F 73 30 34 36 03 80 27  .........s046..'
0E70: 10 F6 20 03 01 0C 2B F6  20 03 01 5F 80 23 52 02  .. ...+. .._.#R.
0E80: 80 F0 FF FF 7F F0 FF FF  7F 73 30 34 36 45 02 80  .........s046E..
0E90: F0 FF FF 7F F0 FF FF 7F  73 30 34 39 03 80 6E F6  ........s049..n.
0EA0: 20 03 01 60 80 99 F6 20  03 01 99 F6 20 03 01 1C   ..`... .... ...
0EB0: 09 80 52 02 80 F0 FF FF  7F F0 FF FF 7F 73 30 34  ..R..........s04
0EC0: 39 45 02 80 F0 FF FF 7F  F0 FF FF 7F 73 30 34 37  9E..........s047
0ED0: 03 80 1C 40 80 9F 61 80  F8 FF FF 7F F8 FF FF 7F  ...@..a.........
0EE0: 73 74 72 30 03 80 45 02  80 F0 FF FF 7F F0 FF FF  str0..E.........
0EF0: 7F 30 64 62 6E 03 80 1C  51 80 52 02 80 F0 FF FF  .0dbn...Q.R.....
0F00: 7F F0 FF FF 7F 73 30 34  37 45 02 80 F0 FF FF 7F  .....s047E......
0F10: F0 FF FF 7F 73 30 34 38  03 80 1C 21 80 2B F5 20  ....s048...!.+. 
0F20: 03 01 62 80 23 4A F6 20  03 01 F5 20 03 01 2B F6  ..b.#J. ... ..+.
0F30: 20 03 01 63 80 23 1C 16  80 27 10 F8 20 03 01 02   ..c.#...'.. ...
0F40: 27 10 F9 20 03 01 02 27  10 FA 20 03 01 02 2B F8  '.. ...'.. ...+.
0F50: 20 03 01 64 80 23 52 02  80 F0 FF FF 7F F0 FF FF   ..d.#R.........
0F60: 7F 73 30 35 30 45 02 80  F0 FF FF 7F F0 FF FF 7F  .s050E..........
0F70: 73 30 35 36 03 80 27 10  F0 FF FF 7F 40 27 10 F5  s056..'.....@'..
0F80: 20 03 01 0C 1C 51 80 52  02 80 F0 FF FF 7F F0 FF   ....Q.R........
0F90: FF 7F 73 30 35 36 45 02  80 F0 FF FF 7F F0 FF FF  ..s056E.........
0FA0: 7F 73 30 35 31 03 80 4A  F5 20 03 01 F9 20 03 01  .s051..J. ... ..
0FB0: 4A F6 20 03 01 F8 20 03  01 4A F0 FF FF 7F FA 20  J. ... ..J..... 
0FC0: 03 01 27 10 F8 20 03 01  03 27 10 F9 20 03 01 03  ..'.. ...'.. ...
0FD0: 27 10 FA 20 03 01 03 1C  65 80 6E F8 20 03 01 66  '.. ....e.n. ..f
0FE0: 80 99 F8 20 03 01 1C 67  80 2B F8 20 03 01 68 80  ... ...g.+. ..h.
0FF0: 23 6E F9 20 03 01 66 80  99 F9 20 03 01 2B F9 20  #n. ..f... ..+. 
1000: 03 01 69 80 23 1C 09 80  6E FA 20 03 01 18 80 99  ..i.#...n. .....
1010: FA 20 03 01 2B FA 20 03  01 6A 80 23 1C 08 80 52  . ..+. ..j.#...R
1020: 02 80 F0 FF FF 7F F0 FF  FF 7F 73 30 35 31 45 02  ..........s051E.
1030: 80 F0 FF FF 7F F0 FF FF  7F 73 30 35 32 03 80 66  .........s052..f
1040: 14 80 F6 20 03 01 F6 20  03 01 74 6C 6B 30 1C 16  ... ... ..tlk0..
1050: 80 2B F6 20 03 01 6B 80  23 66 14 80 F6 20 03 01  .+. ..k.#f... ..
1060: F6 20 03 01 74 6C 6B 31  1C 21 80 52 02 80 F0 FF  . ..tlk1.!.R....
1070: FF 7F F0 FF FF 7F 73 30  35 32 45 02 80 F0 FF FF  ......s052E.....
1080: 7F F0 FF FF 7F 73 30 35  33 03 80 27 10 F8 20 03  .....s053..'.. .
1090: 01 04 2B F8 20 03 01 6C  80 23 1C 6D 80 52 02 80  ..+. ..l.#.m.R..
10A0: F0 FF FF 7F F0 FF FF 7F  73 30 35 33 45 02 80 F0  ........s053E...
10B0: FF FF 7F F0 FF FF 7F 73  30 35 34 03 80 27 10 F9  .......s054..'..
10C0: 20 03 01 04 2B F9 20 03  01 6E 80 23 1C 6D 80 52   ...+. ..n.#.m.R
10D0: 02 80 F0 FF FF 7F F0 FF  FF 7F 73 30 35 34 45 02  ..........s054E.
10E0: 80 F0 FF FF 7F F0 FF FF  7F 73 30 35 35 03 80 29  .........s055..)
10F0: 10 FA 20 03 01 04 6E FA  20 03 01 1C 80 99 FA 20  .. ...n. ...... 
1100: 03 01 1C 1E 80 2B FA 20  03 01 6F 80 23 1C 0B 80  .....+. ..o.#...
1110: 27 10 F7 20 03 01 08 4E  00 F7 20 03 01 2B F7 20  '.. ...N.. ..+. 
1120: 03 01 70 80 23 1C 18 80  27 10 F7 20 03 01 09 52  ..p.#...'.. ...R
1130: 02 80 F0 FF FF 7F F0 FF  FF 7F 73 30 35 35 45 02  ..........s055E.
1140: 80 F0 FF FF 7F F0 FF FF  7F 73 30 35 37 03 80 4A  .........s057..J
1150: F0 FF FF 7F F7 20 03 01  4A F6 20 03 01 F7 20 03  ..... ..J. ... .
1160: 01 4A F5 20 03 01 F7 20  03 01 4A FA 20 03 01 F7  .J. ... ..J. ...
1170: 20 03 01 4A F9 20 03 01  F7 20 03 01 4A F8 20 03   ..J. ... ..J. .
1180: 01 F7 20 03 01 1C 19 80  2B F8 20 03 01 71 80 23  .. .....+. ..q.#
1190: 1C 09 80 52 02 80 F0 FF  FF 7F F0 FF FF 7F 73 30  ...R..........s0
11A0: 35 37 45 02 80 F0 FF FF  7F F0 FF FF 7F 73 30 35  57E..........s05
11B0: 38 03 80 66 04 80 F5 20  03 01 F5 20 03 01 74 6C  8..f... ... ..tl
11C0: 6B 30 2B F5 20 03 01 72  80 23 66 04 80 F5 20 03  k0+. ..r.#f... .
11D0: 01 F5 20 03 01 74 6C 6B  31 4A F0 FF FF 7F F7 20  .. ..tlk1J..... 
11E0: 03 01 4A F6 20 03 01 F7  20 03 01 4A F5 20 03 01  ..J. ... ..J. ..
11F0: F7 20 03 01 4A FA 20 03  01 F7 20 03 01 4A F9 20  . ..J. ... ..J. 
1200: 03 01 F7 20 03 01 4A F8  20 03 01 F7 20 03 01 1C  ... ..J. ... ...
1210: 51 80 27 10 F7 20 03 01  0A 52 02 80 F0 FF FF 7F  Q.'.. ...R......
1220: F0 FF FF 7F 73 30 35 38  45 02 80 F0 FF FF 7F F0  ....s058E.......
1230: FF FF 7F 73 30 35 39 03  80 4A F0 FF FF 7F F7 20  ...s059..J..... 
1240: 03 01 4A F6 20 03 01 F7  20 03 01 4A F5 20 03 01  ..J. ... ..J. ..
1250: F7 20 03 01 4A FA 20 03  01 F7 20 03 01 4A F9 20  . ..J. ... ..J. 
1260: 03 01 F7 20 03 01 4A F8  20 03 01 F7 20 03 01 2B  ... ..J. ... ..+
1270: F7 20 03 01 73 80 23 4A  F0 FF FF 7F F7 20 03 01  . ..s.#J..... ..
1280: 4A F6 20 03 01 F7 20 03  01 4A F5 20 03 01 F7 20  J. ... ..J. ... 
1290: 03 01 4A FA 20 03 01 F7  20 03 01 4A F9 20 03 01  ..J. ... ..J. ..
12A0: F7 20 03 01 4A F8 20 03  01 F7 20 03 01 2B F6 20  . ..J. ... ..+. 
12B0: 03 01 74 80 23 1C 21 80  52 02 80 F0 FF FF 7F F0  ..t.#.!.R.......
12C0: FF FF 7F 73 30 35 39 45  02 80 F0 FF FF 7F F0 FF  ...s059E........
12D0: FF 7F 73 30 36 30 03 80  4A F0 FF FF 7F F7 20 03  ..s060..J..... .
12E0: 01 4A F5 20 03 01 F7 20  03 01 4A FA 20 03 01 F7  .J. ... ..J. ...
12F0: 20 03 01 4A F9 20 03 01  F7 20 03 01 4A F8 20 03   ..J. ... ..J. .
1300: 01 F7 20 03 01 27 10 F7  20 03 01 0B 4A F0 FF FF  .. ..'.. ...J...
1310: 7F F7 20 03 01 4A F5 20  03 01 F7 20 03 01 4A FA  .. ..J. ... ..J.
1320: 20 03 01 F7 20 03 01 4A  F9 20 03 01 F7 20 03 01   ... ..J. ... ..
1330: 4A F8 20 03 01 F7 20 03  01 1C 60 80 2B F7 20 03  J. ... ...`.+. .
1340: 01 75 80 23 1C 0C 80 52  02 80 F0 FF FF 7F F0 FF  .u.#...R........
1350: FF 7F 73 30 36 30 45 02  80 F0 FF FF 7F F0 FF FF  ..s060E.........
1360: 7F 73 30 36 31 03 80 94  01 F7 20 03 01 4A F8 20  .s061..... ..J. 
1370: 03 01 F7 20 03 01 2B F8  20 03 01 76 80 23 4A FA  ... ..+. ..v.#J.
1380: 20 03 01 F7 20 03 01 6E  FA 20 03 01 0F 80 99 FA   ... ..n. ......
1390: 20 03 01 2B FA 20 03 01  77 80 23 1C 09 80 52 02   ..+. ..w.#...R.
13A0: 80 F0 FF FF 7F F0 FF FF  7F 73 30 36 31 45 02 80  .........s061E..
13B0: F0 FF FF 7F F0 FF FF 7F  73 30 36 32 03 80 94 01  ........s062....
13C0: F7 20 03 01 4A F9 20 03  01 F7 20 03 01 2B F9 20  . ..J. ... ..+. 
13D0: 03 01 78 80 23 1C 09 80  52 02 80 F0 FF FF 7F F0  ..x.#...R.......
13E0: FF FF 7F 73 30 36 32 45  02 80 F0 FF FF 7F F0 FF  ...s062E........
13F0: FF 7F 73 30 36 33 03 80  4A F7 20 03 01 F8 20 03  ..s063..J. ... .
1400: 01 1C 16 80 66 0F 80 F7  20 03 01 F7 20 03 01 74  ....f... ... ..t
1410: 6C 62 30 2B F7 20 03 01  79 80 23 1C 16 80 66 0F  lb0+. ..y.#...f.
1420: 80 F7 20 03 01 F7 20 03  01 74 6C 62 31 1C 09 80  .. ... ..tlb1...
1430: 52 02 80 F0 FF FF 7F F0  FF FF 7F 73 30 36 33 45  R..........s063E
1440: 02 80 F0 FF FF 7F F0 FF  FF 7F 73 30 36 34 03 80  ..........s064..
1450: 94 01 F7 20 03 01 66 03  80 F8 20 03 01 F8 20 03  ... ..f... ... .
1460: 01 74 6C 6B 31 1C 6D 80  2B F8 20 03 01 7A 80 23  .tlk1.m.+. ..z.#
1470: 1C 21 80 52 02 80 F0 FF  FF 7F F0 FF FF 7F 73 30  .!.R..........s0
1480: 36 34 45 02 80 F0 FF FF  7F F0 FF FF 7F 73 30 36  64E..........s06
1490: 35 03 80 6E FA 20 03 01  7B 80 99 FA 20 03 01 2B  5..n. ..{... ..+
14A0: FA 20 03 01 7C 80 23 66  03 80 F8 20 03 01 F8 20  . ..|.#f... ... 
14B0: 03 01 74 65 6E 31 1C 16  80 6E F9 20 03 01 03 80  ..ten1...n. ....
14C0: 99 F9 20 03 01 2B F9 20  03 01 7D 80 23 1C 04 80  .. ..+. ..}.#...
14D0: 52 02 80 F0 FF FF 7F F0  FF FF 7F 73 30 36 35 45  R..........s065E
14E0: 02 80 F0 FF FF 7F F0 FF  FF 7F 73 30 36 36 03 80  ..........s066..
14F0: 1C 40 80 79 00 F7 20 03  01 F9 20 03 01 1C 04 80  .@.y.. ... .....
1500: 52 02 80 F0 FF FF 7F F0  FF FF 7F 73 30 36 36 45  R..........s066E
1510: 02 80 F0 FF FF 7F F0 FF  FF 7F 73 30 36 37 03 80  ..........s067..
1520: 27 10 12 21 03 01 55 1C  1F 80 52 02 80 F0 FF FF  '..!..U...R.....
1530: 7F F0 FF FF 7F 73 30 36  37 79 00 F7 20 03 01 F8  .....s067y.. ...
1540: 20 03 01 5C 00 7E 80 5C  01 7E 80 45 02 80 F0 FF   ..\.~.\.~.E....
1550: FF 7F F0 FF FF 7F 73 30  36 38 03 80 27 10 12 21  ......s068..'..!
1560: 03 01 56 29 10 FD 20 03  01 0B 79 00 F7 20 03 01  ..V).. ...y.. ..
1570: FD 20 03 01 2B F7 20 03  01 7F 80 23 1C 09 80 79  . ..+. ....#...y
1580: 00 F7 20 03 01 F8 20 03  01 2B F7 20 03 01 80 80  .. ... ..+. ....
1590: 23 1C 04 80 52 02 80 F0  FF FF 7F F0 FF FF 7F 73  #...R..........s
15A0: 30 36 38 45 02 80 F0 FF  FF 7F F0 FF FF 7F 73 30  068E..........s0
15B0: 36 39 03 80 4A F7 20 03  01 F6 20 03 01 2B F7 20  69..J. ... ..+. 
15C0: 03 01 81 80 23 7B F6 20  03 01 4B F6 20 03 01 1F  ....#{. ..K. ...
15D0: 80 2B F6 20 03 01 82 80  23 1C 60 80 52 02 80 F0  .+. ....#.`.R...
15E0: FF FF 7F F0 FF FF 7F 73  30 36 39 45 02 80 F0 FF  .......s069E....
15F0: FF 7F F0 FF FF 7F 73 30  37 30 03 80 2B F7 20 03  ......s070..+. .
1600: 01 83 80 23 2B F6 20 03  01 84 80 23 52 02 80 F0  ...#+. ....#R...
1610: FF FF 7F F0 FF FF 7F 73  30 37 30 45 02 80 F0 FF  .......s070E....
1620: FF 7F F0 FF FF 7F 73 30  37 31 03 80 2B F7 20 03  ......s071..+. .
1630: 01 85 80 23 1C 60 80 52  02 80 F0 FF FF 7F F0 FF  ...#.`.R........
1640: FF 7F 73 30 37 31 45 02  80 F0 FF FF 7F F0 FF FF  ..s071E.........
1650: 7F 73 30 37 32 03 80 4A  F6 20 03 01 F7 20 03 01  .s072..J. ... ..
1660: 2B F6 20 03 01 86 80 23  1C 60 80 52 02 80 F0 FF  +. ....#.`.R....
1670: FF 7F F0 FF FF 7F 73 30  37 32 45 02 80 F0 FF FF  ......s072E.....
1680: 7F F0 FF FF 7F 73 30 37  33 03 80 2B F6 20 03 01  .....s073..+. ..
1690: 87 80 23 1C 60 80 7C 00  F7 20 03 01 2B F7 20 03  ..#.`.|.. ..+. .
16A0: 01 88 80 23 7C 01 F7 20  03 01 1C 60 80 52 02 80  ...#|.. ...`.R..
16B0: F0 FF FF 7F F0 FF FF 7F  73 30 37 33 45 02 80 F0  ........s073E...
16C0: FF FF 7F F0 FF FF 7F 73  30 37 34 03 80 2B F6 20  .......s074..+. 
16D0: 03 01 89 80 23 2B F6 20  03 01 8A 80 23 1C 60 80  ....#+. ....#.`.
16E0: 52 02 80 F0 FF FF 7F F0  FF FF 7F 73 30 37 34 45  R..........s074E
16F0: 02 80 F0 FF FF 7F F0 FF  FF 7F 73 30 37 35 03 80  ..........s075..
1700: 4B F6 20 03 01 8B 80 2B  F6 20 03 01 8C 80 23 1C  K. ....+. ....#.
1710: 60 80 52 02 80 F0 FF FF  7F F0 FF FF 7F 73 30 37  `.R..........s07
1720: 35 45 02 80 F0 FF FF 7F  F0 FF FF 7F 73 30 37 36  5E..........s076
1730: 03 80 1C 09 80 2B F7 20  03 01 8D 80 23 1C 16 80  .....+. ....#...
1740: 52 02 80 F0 FF FF 7F F0  FF FF 7F 73 30 37 36 45  R..........s076E
1750: 02 80 F0 FF FF 7F F0 FF  FF 7F 73 30 37 37 03 80  ..........s077..
1760: 2B F7 20 03 01 8E 80 23  1C 19 80 52 02 80 F0 FF  +. ....#...R....
1770: FF 7F F0 FF FF 7F 73 30  37 37 45 02 80 F0 FF FF  ......s077E.....
1780: 7F F0 FF FF 7F 73 30 37  38 03 80 4A F7 20 03 01  .....s078..J. ..
1790: F8 20 03 01 27 10 12 21  03 01 57 2B F7 20 03 01  . ..'..!..W+. ..
17A0: 8F 80 23 1C 09 80 52 02  80 F0 FF FF 7F F0 FF FF  ..#...R.........
17B0: 7F 73 30 37 38 45 02 80  F0 FF FF 7F F0 FF FF 7F  .s078E..........
17C0: 73 30 37 39 03 80 4A F0  FF FF 7F F7 20 03 01 4A  s079..J..... ..J
17D0: F5 20 03 01 F7 20 03 01  4A FA 20 03 01 F7 20 03  . ... ..J. ... .
17E0: 01 4A F9 20 03 01 F7 20  03 01 4A F8 20 03 01 F7  .J. ... ..J. ...
17F0: 20 03 01 27 10 F7 20 03  01 0C 4A F0 FF FF 7F F7   ..'.. ...J.....
1800: 20 03 01 4A F5 20 03 01  F7 20 03 01 4A FA 20 03   ..J. ... ..J. .
1810: 01 F7 20 03 01 4A F9 20  03 01 F7 20 03 01 4A F8  .. ..J. ... ..J.
1820: 20 03 01 F7 20 03 01 1C  21 80 4A F0 FF FF 7F F7   ... ...!.J.....
1830: 20 03 01 4A F5 20 03 01  F7 20 03 01 4A FA 20 03   ..J. ... ..J. .
1840: 01 F7 20 03 01 4A F9 20  03 01 F7 20 03 01 4A F8  .. ..J. ... ..J.
1850: 20 03 01 F7 20 03 01 27  10 F5 20 03 01 0D 2B F5   ... ..'.. ...+.
1860: 20 03 01 90 80 23 1C 21  80 52 02 80 F0 FF FF 7F   ....#.!.R......
1870: F0 FF FF 7F 73 30 37 39  45 02 80 F0 FF FF 7F F0  ....s079E.......
1880: FF FF 7F 73 30 38 30 03  80 79 00 F7 20 03 01 F5  ...s080..y.. ...
1890: 20 03 01 2B F7 20 03 01  91 80 23 1C 21 80 52 02   ..+. ....#.!.R.
18A0: 80 F0 FF FF 7F F0 FF FF  7F 73 30 38 30 45 02 80  .........s080E..
18B0: F0 FF FF 7F F0 FF FF 7F  73 30 38 31 03 80 4A F0  ........s081..J.
18C0: FF FF 7F F7 20 03 01 4A  F5 20 03 01 F7 20 03 01  .... ..J. ... ..
18D0: 4A FA 20 03 01 F7 20 03  01 4A F9 20 03 01 F7 20  J. ... ..J. ... 
18E0: 03 01 4A F8 20 03 01 F7  20 03 01 27 10 F7 20 03  ..J. ... ..'.. .
18F0: 01 0D 4A F0 FF FF 7F F7  20 03 01 4A F5 20 03 01  ..J..... ..J. ..
1900: F7 20 03 01 4A FA 20 03  01 F7 20 03 01 4A F9 20  . ..J. ... ..J. 
1910: 03 01 F7 20 03 01 4A F8  20 03 01 F7 20 03 01 1C  ... ..J. ... ...
1920: 92 80 1A 74 7C 52 02 80  F0 FF FF 7F F0 FF FF 7F  ...t|R..........
1930: 73 30 38 31 27 10 F0 FF  FF 7F 41 27 10 F5 20 03  s081'.....A'.. .
1940: 01 0E 27 10 F6 20 03 01  0F 27 10 FA 20 03 01 05  ..'.. ...'.. ...
1950: 27 10 F9 20 03 01 06 27  10 F8 20 03 01 06 1C 0C  '.. ...'.. .....
1960: 80 4E 01 F7 20 03 01 45  02 80 F0 FF FF 7F F0 FF  .N.. ..E........
1970: FF 7F 73 30 38 32 03 80  4A F0 FF FF 7F F7 20 03  ..s082..J..... .
1980: 01 4A F5 20 03 01 F7 20  03 01 4A FA 20 03 01 F7  .J. ... ..J. ...
1990: 20 03 01 4A F9 20 03 01  F7 20 03 01 4A F8 20 03   ..J. ... ..J. .
19A0: 01 F7 20 03 01 94 01 F7  20 03 01 45 1F 80 F0 FF  .. ..... ..E....
19B0: FF 7F F0 FF FF 7F 66 64  69 32 03 80 7B F0 FF FF  ......fdi2..{...
19C0: 7F 7B F5 20 03 01 2B F8  20 03 01 93 80 23 4A FA  .{. ..+. ....#J.
19D0: 20 03 01 F8 20 03 01 2B  FA 20 03 01 94 80 23 1C   ... ..+. ....#.
19E0: 60 80 52 02 80 F0 FF FF  7F F0 FF FF 7F 73 30 38  `.R..........s08
19F0: 32 45 02 80 F0 FF FF 7F  F0 FF FF 7F 73 30 38 34  2E..........s084
1A00: 03 80 4A F9 20 03 01 F8  20 03 01 1C 60 80 4A F8  ..J. ... ...`.J.
1A10: 20 03 01 FA 20 03 01 2B  F8 20 03 01 95 80 23 1C   ... ..+. ....#.
1A20: 04 80 4A F0 FF FF 7F F8  20 03 01 1C 60 80 4A F5  ..J..... ...`.J.
1A30: 20 03 01 F8 20 03 01 2B  F8 20 03 01 96 80 23 52   ... ..+. ....#R
1A40: 02 80 F0 FF FF 7F F0 FF  FF 7F 73 30 38 34 45 02  ..........s084E.
1A50: 80 F0 FF FF 7F F0 FF FF  7F 73 30 38 35 03 80 4E  .........s085..N
1A60: 01 FA 20 03 01 27 10 F6  20 03 01 10 2B F6 20 03  .. ..'.. ...+. .
1A70: 01 97 80 1C 16 80 52 02  80 F0 FF FF 7F F0 FF FF  ......R.........
1A80: 7F 73 30 38 35 45 02 80  F0 FF FF 7F F0 FF FF 7F  .s085E..........
1A90: 73 30 38 36 03 80 4A FA  20 03 01 F6 20 03 01 4A  s086..J. ... ..J
1AA0: F8 20 03 01 F6 20 03 01  4A F9 20 03 01 F6 20 03  . ... ..J. ... .
1AB0: 01 4A F5 20 03 01 F6 20  03 01 4A F0 FF FF 7F F6  .J. ... ..J.....
1AC0: 20 03 01 1C 09 80 27 10  F6 20 03 01 11 79 00 F6   .....'.. ...y..
1AD0: 20 03 01 F8 20 03 01 1C  16 80 4A FA 20 03 01 F6   ... .....J. ...
1AE0: 20 03 01 4A F8 20 03 01  F6 20 03 01 4A F9 20 03   ..J. ... ..J. .
1AF0: 01 F6 20 03 01 4A F5 20  03 01 F6 20 03 01 4A F0  .. ..J. ... ..J.
1B00: FF FF 7F F6 20 03 01 2B  F6 20 03 01 98 80 23 1C  .... ..+. ....#.
1B10: 09 80 2B F6 20 03 01 99  80 23 52 02 80 F0 FF FF  ..+. ....#R.....
1B20: 7F F0 FF FF 7F 73 30 38  36 45 02 80 F0 FF FF 7F  .....s086E......
1B30: F0 FF FF 7F 73 30 38 37  03 80 2B F6 20 03 01 9A  ....s087..+. ...
1B40: 80 23 4A F8 20 03 01 F6  20 03 01 52 02 80 F0 FF  .#J. ... ..R....
1B50: FF 7F F0 FF FF 7F 73 30  38 37 45 02 80 F0 FF FF  ......s087E.....
1B60: 7F F0 FF FF 7F 73 30 38  38 03 80 27 10 F5 20 03  .....s088..'.. .
1B70: 01 0F 2B F8 20 03 01 9B  80 23 2A 10 F5 20 03 01  ..+. ....#*.. ..
1B80: 79 00 F5 20 03 01 F8 20  03 01 66 04 80 F5 20 03  y.. ... ..f... .
1B90: 01 F5 20 03 01 74 6C 6B  30 1C 16 80 79 00 F8 20  .. ..tlk0...y.. 
1BA0: 03 01 F5 20 03 01 66 04  80 F5 20 03 01 F5 20 03  ... ..f... ... .
1BB0: 01 74 6C 6B 31 1C 09 80  6E F8 20 03 01 66 80 99  .tlk1...n. ..f..
1BC0: F8 20 03 01 1C 9C 80 27  10 F8 20 03 01 07 4A F8  . .....'.. ...J.
1BD0: 20 03 01 F6 20 03 01 1C  21 80 52 02 80 F0 FF FF   ... ...!.R.....
1BE0: 7F F0 FF FF 7F 73 30 38  38 45 02 80 F0 FF FF 7F  .....s088E......
1BF0: F0 FF FF 7F 73 30 38 39  03 80 27 10 F5 20 03 01  ....s089..'.. ..
1C00: 10 1C 09 80 66 4B 80 F5  20 03 01 F5 20 03 01 73  ....fK.. ... ..s
1C10: 68 61 30 1C 09 80 2B F5  20 03 01 9D 80 23 4A F6  ha0...+. ....#J.
1C20: 20 03 01 F5 20 03 01 6E  F6 20 03 01 00 80 99 F6   ... ..n. ......
1C30: 20 03 01 2B F6 20 03 01  9E 80 23 52 02 80 F0 FF   ..+. ....#R....
1C40: FF 7F F0 FF FF 7F 73 30  38 39 45 02 80 F0 FF FF  ......s089E.....
1C50: 7F F0 FF FF 7F 73 30 39  30 03 80 79 00 F5 20 03  .....s090..y.. .
1C60: 01 F6 20 03 01 2B F5 20  03 01 9F 80 23 52 02 80  .. ..+. ....#R..
1C70: F0 FF FF 7F F0 FF FF 7F  73 30 39 30 45 02 80 F0  ........s090E...
1C80: FF FF 7F F0 FF FF 7F 73  30 39 31 03 80 2B F6 20  .......s091..+. 
1C90: 03 01 A0 80 23 6E F6 20  03 01 0F 80 99 F6 20 03  ....#n. ...... .
1CA0: 01 2B F6 20 03 01 A1 80  23 1A 01 7D 1C 16 80 52  .+. ....#..}...R
1CB0: 02 80 F0 FF FF 7F F0 FF  FF 7F 73 30 39 31 1A 89  ..........s091..
1CC0: 7C 1A 22 7D 4E 00 FB 20  03 01 2F 00 FB 20 03 01  |."}N.. ../.. ..
1CD0: 92 01 FB 20 03 01 94 01  FB 20 03 01 29 10 F6 20  ... ..... ..).. 
1CE0: 03 01 13 29 10 FB 20 03  01 08 80 F6 20 03 01 80  ...).. ..... ...
1CF0: FB 20 03 01 4A F6 20 03  01 FB 20 03 01 45 02 80  . ..J. ... ..E..
1D00: F0 FF FF 7F F0 FF FF 7F  6B 61 30 30 03 80 1C 01  ........ka00....
1D10: 80 1A 43 7D 66 14 80 FB  20 03 01 FB 20 03 01 74  ..C}f... ... ..t
1D20: 6C 6B 30 2B FB 20 03 01  A2 80 23 52 02 80 F0 FF  lk0+. ....#R....
1D30: FF 7F F0 FF FF 7F 6B 61  30 30 45 02 80 F0 FF FF  ......ka00E.....
1D40: 7F F0 FF FF 7F 6B 61 30  31 03 80 66 14 80 FB 20  .....ka01..f... 
1D50: 03 01 FB 20 03 01 74 6C  6B 31 66 14 80 F6 20 03  ... ..tlk1f... .
1D60: 01 F6 20 03 01 74 68 6B  31 2B F6 20 03 01 A3 80  .. ..thk1+. ....
1D70: 23 52 02 80 F0 FF FF 7F  F0 FF FF 7F 6B 61 30 31  #R..........ka01
1D80: 45 02 80 F0 FF FF 7F F0  FF FF 7F 6B 61 30 32 03  E..........ka02.
1D90: 80 2B FB 20 03 01 A4 80  23 66 14 80 F6 20 03 01  .+. ....#f... ..
1DA0: F6 20 03 01 74 68 6B 32  1C 0B 80 2B F6 20 03 01  . ..thk2...+. ..
1DB0: A5 80 23 6E FB 20 03 01  18 80 99 FB 20 03 01 99  ..#n. ...... ...
1DC0: FB 20 03 01 2B FB 20 03  01 A6 80 23 1A 89 7C 1C  . ..+. ....#..|.
1DD0: 16 80 52 02 80 F0 FF FF  7F F0 FF FF 7F 6B 61 30  ..R..........ka0
1DE0: 32 4E 01 FB 20 03 01 2F  01 FB 20 03 01 29 10 F6  2N.. ../.. ..)..
1DF0: 20 03 01 14 4A F6 20 03  01 F5 20 03 01 6F 76 F6   ...J. ... ..ov.
1E00: 20 03 01 80 F6 20 03 01  29 10 FD 20 03 01 0D 79   .... ..).. ...y
1E10: 00 F6 20 03 01 FD 20 03  01 45 02 80 F0 FF FF 7F  .. ... ..E......
1E20: F0 FF FF 7F 73 30 39 32  03 80 45 1F 80 F0 FF FF  ....s092..E.....
1E30: 7F F0 FF FF 7F 66 64 69  32 03 80 2B F6 20 03 01  .....fdi2..+. ..
1E40: A7 80 23 2B F6 20 03 01  A8 80 23 52 02 80 F0 FF  ..#+. ....#R....
1E50: FF 7F F0 FF FF 7F 73 30  39 32 45 02 80 F0 FF FF  ......s092E.....
1E60: 7F F0 FF FF 7F 73 30 39  33 03 80 2B F5 20 03 01  .....s093..+. ..
1E70: A9 80 23 52 02 80 F0 FF  FF 7F F0 FF FF 7F 73 30  ..#R..........s0
1E80: 39 33 45 02 80 F0 FF FF  7F F0 FF FF 7F 73 30 39  93E..........s09
1E90: 34 03 80 2B F5 20 03 01  AA 80 23 52 02 80 F0 FF  4..+. ....#R....
1EA0: FF 7F F0 FF FF 7F 73 30  39 34 27 10 12 21 03 01  ......s094'..!..
1EB0: 58 45 02 80 F0 FF FF 7F  F0 FF FF 7F 73 30 39 35  XE..........s095
1EC0: 03 80 2B F5 20 03 01 AB  80 23 2B F5 20 03 01 AC  ..+. ....#+. ...
1ED0: 80 23 79 00 F6 20 03 01  F5 20 03 01 1C 09 80 1A  .#y.. ... ......
1EE0: 01 7D 1C 16 80 52 02 80  F0 FF FF 7F F0 FF FF 7F  .}...R..........
1EF0: 73 30 39 35 1A 89 7C 1A  22 7D 29 10 F6 20 03 01  s095..|."}).. ..
1F00: 15 29 10 F7 20 03 01 0E  4E 00 F7 20 03 01 7B F6  .).. ...N.. ..{.
1F10: 20 03 01 7B F7 20 03 01  80 F6 20 03 01 80 F7 20   ..{. .... .... 
1F20: 03 01 1C 16 80 27 10 F7  20 03 01 0F 45 02 80 F0  .....'.. ...E...
1F30: FF FF 7F F0 FF FF 7F 6B  61 30 35 03 80 1C 01 80  .......ka05.....
1F40: 1A 43 7D 2A 10 F7 20 03  01 4A F7 20 03 01 F6 20  .C}*.. ..J. ... 
1F50: 03 01 6F 76 F7 20 03 01  1C 0B 80 2B F7 20 03 01  ..ov. .....+. ..
1F60: AD 80 23 52 02 80 F0 FF  FF 7F F0 FF FF 7F 6B 61  ..#R..........ka
1F70: 30 35 45 02 80 F0 FF FF  7F F0 FF FF 7F 6B 61 30  05E..........ka0
1F80: 36 03 80 29 10 F7 20 03  01 10 6E F6 20 03 01 0F  6..).. ...n. ...
1F90: 80 99 F6 20 03 01 99 F6  20 03 01 2B F7 20 03 01  ... .... ..+. ..
1FA0: AE 80 23 52 02 80 F0 FF  FF 7F F0 FF FF 7F 6B 61  ..#R..........ka
1FB0: 30 36 45 02 80 F0 FF FF  7F F0 FF FF 7F 6B 61 30  06E..........ka0
1FC0: 37 03 80 2B F7 20 03 01  AF 80 23 1A 89 7C 1C 16  7..+. ....#..|..
1FD0: 80 52 02 80 F0 FF FF 7F  F0 FF FF 7F 6B 61 30 37  .R..........ka07
1FE0: 6B 69 64 6C 30 F7 20 03  01 29 10 F7 20 03 01 11  kidl0. ..).. ...
1FF0: 29 10 F6 20 03 01 14 29  10 FD 20 03 01 0D 79 00  ).. ...).. ...y.
2000: F6 20 03 01 FD 20 03 01  27 10 12 21 03 01 59 4E  . ... ..'..!..YN
2010: 00 F0 FF FF 7F 45 02 80  F0 FF FF 7F F0 FF FF 7F  .....E..........
2020: 73 30 39 36 03 80 45 1F  80 F0 FF FF 7F F0 FF FF  s096..E.........
2030: 7F 66 64 69 32 03 80 4A  F6 20 03 01 F7 20 03 01  .fdi2..J. ... ..
2040: 2B F6 20 03 01 B0 80 23  52 02 80 F0 FF FF 7F F0  +. ....#R.......
2050: FF FF 7F 73 30 39 36 45  02 80 F0 FF FF 7F F0 FF  ...s096E........
2060: FF 7F 73 30 39 37 03 80  27 10 F6 20 03 01 12 66  ..s097..'.. ...f
2070: 4B 80 F5 20 03 01 F5 20  03 01 73 68 61 31 4A FA  K.. ... ..sha1J.
2080: 20 03 01 F6 20 03 01 4A  F8 20 03 01 F6 20 03 01   ... ..J. ... ..
2090: 4A F9 20 03 01 F6 20 03  01 4A F0 FF FF 7F F6 20  J. ... ..J..... 
20A0: 03 01 1C 21 80 27 10 F5  20 03 01 11 2B F5 20 03  ...!.'.. ...+. .
20B0: 01 B1 80 23 1C 09 80 52  02 80 F0 FF FF 7F F0 FF  ...#...R........
20C0: FF 7F 73 30 39 37 45 02  80 F0 FF FF 7F F0 FF FF  ..s097E.........
20D0: 7F 73 30 39 38 03 80 4A  FA 20 03 01 F5 20 03 01  .s098..J. ... ..
20E0: 4A F8 20 03 01 F5 20 03  01 4A F9 20 03 01 F5 20  J. ... ..J. ... 
20F0: 03 01 27 10 F5 20 03 01  12 4A F0 FF FF 7F F5 20  ..'.. ...J..... 
2100: 03 01 2B F5 20 03 01 B2  80 23 52 02 80 F0 FF FF  ..+. ....#R.....
2110: 7F F0 FF FF 7F 73 30 39  38 45 02 80 F0 FF FF 7F  .....s098E......
2120: F0 FF FF 7F 73 30 39 39  03 80 4E 00 FA 20 03 01  ....s099..N.. ..
2130: 2B F5 20 03 01 B3 80 23  24 B4 80 03 80 03 80 25  +. ....#$......%
2140: 02 00 10 B5 80 00 86 21  6E F0 FF FF 7F 7B 80 99  .......!n....{..
2150: F0 FF FF 7F 1C 0B 80 66  04 80 F5 20 03 01 F5 20  .......f... ... 
2160: 03 01 74 6C 6B 30 2B F5  20 03 01 B6 80 23 66 04  ..tlk0+. ....#f.
2170: 80 F5 20 03 01 F5 20 03  01 74 6C 6B 31 1C 16 80  .. ... ..tlk1...
2180: 01 38 21 01 86 21 6E F0  FF FF 7F 3D 80 99 F0 FF  .8!..!n....=....
2190: FF 7F 1C 0B 80 52 02 80  F0 FF FF 7F F0 FF FF 7F  .....R..........
21A0: 73 30 39 39 45 02 80 F0  FF FF 7F F0 FF FF 7F 73  s099E..........s
21B0: 31 30 30 03 80 66 04 80  F5 20 03 01 F5 20 03 01  100..f... ... ..
