# 16982321 - Foudeel

## Common Data

| Field            | Value                         |
|------------------|-------------------------------|
| Zone             | Aht Urhgan Whitegate (ID: 50) |
| Block Size       | 1736 bytes                    |
| Total Events     | 64                            |
| References Count | 131                           |

## List of Events

| Event ID                    | Entrypoint   |   Size |   Instructions |
|-----------------------------|--------------|--------|----------------|
| [65535](#event-65535)       | 0x0000       |      1 |              1 |
| [520](#event-520)           | 0x0001       |      1 |              1 |
| [65535.1](#event-65535-1)   | 0x0002       |     15 |              3 |
| [65535.2](#event-65535-2)   | 0x0011       |     14 |              4 |
| [525](#event-525)           | 0x001F       |      1 |              1 |
| [65535.3](#event-65535-3)   | 0x0020       |     47 |              8 |
| [527](#event-527)           | 0x004F       |      1 |              1 |
| [65535.4](#event-65535-4)   | 0x0050       |     15 |              3 |
| [65535.5](#event-65535-5)   | 0x005F       |     14 |              4 |
| [65535.6](#event-65535-6)   | 0x006D       |     14 |              4 |
| [575](#event-575)           | 0x007B       |      1 |              1 |
| [65535.7](#event-65535-7)   | 0x007C       |     15 |              3 |
| [65535.8](#event-65535-8)   | 0x008B       |     14 |              4 |
| [65535.9](#event-65535-9)   | 0x0099       |     15 |              3 |
| [65535.10](#event-65535-10) | 0x00A8       |     15 |              3 |
| [65535.11](#event-65535-11) | 0x00B7       |     14 |              4 |
| [65535.12](#event-65535-12) | 0x00C5       |     24 |              6 |
| [65535.13](#event-65535-13) | 0x00DD       |     15 |              3 |
| [65535.14](#event-65535-14) | 0x00EC       |     24 |              3 |
| [65535.15](#event-65535-15) | 0x0104       |     22 |              3 |
| [65535.16](#event-65535-16) | 0x011A       |     15 |              3 |
| [65535.17](#event-65535-17) | 0x0129       |     15 |              3 |
| [65535.18](#event-65535-18) | 0x0138       |     13 |              3 |
| [65535.19](#event-65535-19) | 0x0145       |     16 |              2 |
| [65535.20](#event-65535-20) | 0x0155       |     14 |              4 |
| [269](#event-269)           | 0x0163       |      1 |              1 |
| [65535.21](#event-65535-21) | 0x0164       |     15 |              3 |
| [65535.22](#event-65535-22) | 0x0173       |     22 |              6 |
| [65535.23](#event-65535-23) | 0x0189       |     24 |              6 |
| [65535.24](#event-65535-24) | 0x01A1       |     19 |              5 |
| [65535.25](#event-65535-25) | 0x01B4       |     14 |              4 |
| [65535.26](#event-65535-26) | 0x01C2       |     20 |              4 |
| [65535.27](#event-65535-27) | 0x01D6       |     35 |              7 |
| [65535.28](#event-65535-28) | 0x01F9       |     15 |              3 |
| [65535.29](#event-65535-29) | 0x0208       |     14 |              4 |
| [800](#event-800)           | 0x0216       |      1 |              1 |
| [65535.30](#event-65535-30) | 0x0217       |     15 |              3 |
| [65535.31](#event-65535-31) | 0x0226       |     14 |              4 |
| [803](#event-803)           | 0x0234       |      1 |              1 |
| [65535.32](#event-65535-32) | 0x0235       |     15 |              3 |
| [65535.33](#event-65535-33) | 0x0244       |     24 |              3 |
| [65535.34](#event-65535-34) | 0x025C       |     14 |              4 |
| [65535.35](#event-65535-35) | 0x026A       |     14 |              4 |
| [65535.36](#event-65535-36) | 0x0278       |     15 |              3 |
| [65535.37](#event-65535-37) | 0x0287       |     40 |              8 |
| [836](#event-836)           | 0x02AF       |      1 |              1 |
| [65535.38](#event-65535-38) | 0x02B0       |     22 |              6 |
| [65535.39](#event-65535-39) | 0x02C6       |     14 |              4 |
| [838](#event-838)           | 0x02D4       |      1 |              1 |
| [65535.40](#event-65535-40) | 0x02D5       |     22 |              6 |
| [65535.41](#event-65535-41) | 0x02EB       |     14 |              4 |
| [840](#event-840)           | 0x02F9       |      1 |              1 |
| [843](#event-843)           | 0x02FA       |      1 |              1 |
| [845](#event-845)           | 0x02FB       |      1 |              1 |
| [65535.42](#event-65535-42) | 0x02FC       |     24 |              6 |
| [65535.43](#event-65535-43) | 0x0314       |     14 |              4 |
| [65535.44](#event-65535-44) | 0x0322       |     22 |              6 |
| [864](#event-864)           | 0x0338       |      7 |              2 |
| [65535.45](#event-65535-45) | 0x033F       |     19 |              5 |
| [65535.46](#event-65535-46) | 0x0352       |     19 |              5 |
| [65535.47](#event-65535-47) | 0x0365       |     19 |              5 |
| [65535.48](#event-65535-48) | 0x0378       |     29 |              7 |
| [65535.49](#event-65535-49) | 0x0395       |     14 |              4 |
| [872](#event-872)           | 0x03A3       |      7 |              2 |

## DAT References (imed_data)

|   Index | Hex Value   |   Dec Value |
|---------|-------------|-------------|
|       0 | 0xFFFEA1BD  |  4294877629 |
|       1 | 0x1125      |        4389 |
|       2 | 0x0000      |           0 |
|       3 | 0x0B86      |        2950 |
|       4 | 0x0028      |          40 |
|       5 | 0xFFFE9EC1  |  4294876865 |
|       6 | 0x0069      |         105 |
|       7 | 0x000D      |          13 |
|       8 | 0x0078      |         120 |
|       9 | 0x0002      |           2 |
|      10 | 0x049E      |        1182 |
|      11 | 0xFFFF91F5  |  4294939125 |
|      12 | 0x71E5      |       29157 |
|      13 | 0xFFFFE891  |  4294961297 |
|      14 | 0x02D6      |         726 |
|      15 | 0xFFFF96D9  |  4294940377 |
|      16 | 0x62BE      |       25278 |
|      17 | 0xFFFFE890  |  4294961296 |
|      18 | 0x03D8      |         984 |
|      19 | 0xD826      |       55334 |
|      20 | 0x04E5      |        1253 |
|      21 | 0x0014      |          20 |
|      22 | 0x1580B     |       88075 |
|      23 | 0x0744      |        1860 |
|      24 | 0xFFFFA95D  |  4294945117 |
|      25 | 0x5F1B      |       24347 |
|      26 | 0xFFFFABEF  |  4294945775 |
|      27 | 0x4307      |       17159 |
|      28 | 0xFFFFF1B1  |  4294963633 |
|      29 | 0x15CCB     |       89291 |
|      30 | 0x055C      |        1372 |
|      31 | 0x0758      |        1880 |
|      32 | 0x0001      |           1 |
|      33 | 0x0005      |           5 |
|      34 | 0x008A      |         138 |
|      35 | 0x00F9      |         249 |
|      36 | 0x72BE9     |      469993 |
|      37 | 0x398BA     |      235706 |
|      38 | 0xFFFFA304  |  4294943492 |
|      39 | 0x04D4      |        1236 |
|      40 | 0x8E7D0     |      583632 |
|      41 | 0x575D5     |      357845 |
|      42 | 0xFFFF99AB  |  4294941099 |
|      43 | 0x035D      |         861 |
|      44 | 0x002B      |          43 |
|      45 | 0x0003      |           3 |
|      46 | 0x1E29B     |      123547 |
|      47 | 0x0C66      |        3174 |
|      48 | 0x1BB66     |      113510 |
|      49 | 0x36FE      |       14078 |
|      50 | 0x09A9      |        2473 |
|      51 | 0x1B02A     |      110634 |
|      52 | 0x3B0E      |       15118 |
|      53 | 0x001E      |          30 |
|      54 | 0x1B4B8     |      111800 |
|      55 | 0x4E75      |       20085 |
|      56 | 0x1B55C     |      111964 |
|      57 | 0x6A0A      |       27146 |
|      58 | 0xFFFFFEC5  |  4294966981 |
|      59 | 0x1D53D     |      120125 |
|      60 | 0x7A54      |       31316 |
|      61 | 0x1DE7F     |      122495 |
|      62 | 0x7D81      |       32129 |
|      63 | 0xFFFCD584  |  4294759812 |
|      64 | 0xFFF40FB1  |  4294184881 |
|      65 | 0xFFFFD361  |  4294955873 |
|      66 | 0x0B0B      |        2827 |
|      67 | 0xFFFD3495  |  4294784149 |
|      68 | 0xFFF363A0  |  4294140832 |
|      69 | 0xFFFFE8EA  |  4294961386 |
|      70 | 0x0414      |        1044 |
|      71 | 0xFFFD41FF  |  4294787583 |
|      72 | 0xFFF354F0  |  4294137072 |
|      73 | 0xFFFFEC96  |  4294962326 |
|      74 | 0x0373      |         883 |
|      75 | 0xFFFB2BE2  |  4294650850 |
|      76 | 0xFFFACD17  |  4294626583 |
|      77 | 0xFFFFDAF1  |  4294957809 |
|      78 | 0x080A      |        2058 |
|      79 | 0xFFFAE3C1  |  4294632385 |
|      80 | 0xFFFAC137  |  4294623543 |
|      81 | 0xFFFFDB6A  |  4294957930 |
|      82 | 0xFFFFD671  |  4294956657 |
|      83 | 0x6EB8      |       28344 |
|      84 | 0x0B69      |        2921 |
|      85 | 0xFFFFA9EA  |  4294945258 |
|      86 | 0x67B2      |       26546 |
|      87 | 0xFFFDB7C2  |  4294817730 |
|      88 | 0x03BA      |         954 |
|      89 | 0x0708      |        1800 |
|      90 | 0x0FA9      |        4009 |
|      91 | 0x001C      |          28 |
|      92 | 0xFFFDD925  |  4294826277 |
|      93 | 0x0362      |         866 |
|      94 | 0x07CF      |        1999 |
|      95 | 0xFFFE0BBC  |  4294839228 |
|      96 | 0x0759      |        1881 |
|      97 | 0x03DF      |         991 |
|      98 | 0xFFFFA911  |  4294945041 |
|      99 | 0x6F7F      |       28543 |
|     100 | 0x0156      |         342 |
|     101 | 0xFFFFC499  |  4294952089 |
|     102 | 0x6B65      |       27493 |
|     103 | 0x003C      |          60 |
|     104 | 0x0009      |           9 |
|     105 | 0x50F2      |       20722 |
|     106 | 0x5168      |       20840 |
|     107 | 0x3D7A      |       15738 |
|     108 | 0x4FAF      |       20399 |
|     109 | 0x5149      |       20809 |
|     110 | 0x536C      |       21356 |
|     111 | 0x4D8F      |       19855 |
|     112 | 0x3C34      |       15412 |
|     113 | 0x4FAC      |       20396 |
|     114 | 0x0518      |        1304 |
|     115 | 0x4F58      |       20312 |
|     116 | 0x0F6C      |        3948 |
|     117 | 0x4C63      |       19555 |
|     118 | 0x2C39      |       11321 |
|     119 | 0x4A57      |       19031 |
|     120 | 0x4FCB      |       20427 |
|     121 | 0x13355     |       78677 |
|     122 | 0xFFFDF485  |  4294833285 |
|     123 | 0x131BC     |       78268 |
|     124 | 0xFFFDEF97  |  4294832023 |
|     125 | 0x13157     |       78167 |
|     126 | 0xFFFDEBC0  |  4294831040 |
|     127 | 0x12E41     |       77377 |
|     128 | 0xFFFDE503  |  4294829315 |
|     129 | 0x1430E     |       82702 |
|     130 | 0xFFFDEDF7  |  4294831607 |

## Events

### Event 65535

#### Metadata

| Field        | Value   |
|--------------|---------|
| Entrypoint   | 0x0000  |
| Data Size    | 1 bytes |
| Instructions | 1       |

```
      00 01 02 03 04 05 06 07  08 09 0A 0B 0C 0D 0E 0F
      -- -- -- -- -- -- -- --  -- -- -- -- -- -- -- --
0000: 00                                                .               
```

#### Opcodes

```
  0: 0x0000 [0x00] END_REQSTACK()
```

### Event 520

#### Metadata

| Field        | Value   |
|--------------|---------|
| Entrypoint   | 0x0001  |
| Data Size    | 1 bytes |
| Instructions | 1       |

```
      00 01 02 03 04 05 06 07  08 09 0A 0B 0C 0D 0E 0F
      -- -- -- -- -- -- -- --  -- -- -- -- -- -- -- --
0000:    00                                              .              
```

#### Opcodes

```
  0: 0x0001 [0x00] END_REQSTACK()
```

### Event 65535.1

#### Metadata

| Field        | Value    |
|--------------|----------|
| Entrypoint   | 0x0002   |
| Data Size    | 15 bytes |
| Instructions | 3        |

```
      00 01 02 03 04 05 06 07  08 09 0A 0B 0C 0D 0E 0F
      -- -- -- -- -- -- -- --  -- -- -- -- -- -- -- --
0000:       37 00 80 01 80 02  80 03 80 80 F8 FF FF 7F    7.............
0010: 00                                                .               
```

#### Opcodes

```
  0: 0x0002 [0x37] UPDATE_EVENT_POSITION_AND_DIR: x=-89.667*, z=4.389*, y=0.000*, direction=259.3°*
  1: 0x000B [0x80] LOAD_WAIT(entity=EventEntity)
  2: 0x0010 [0x00] END_REQSTACK()
```

### Event 65535.2

#### Metadata

| Field        | Value    |
|--------------|----------|
| Entrypoint   | 0x0011   |
| Data Size    | 14 bytes |
| Instructions | 4        |

```
      00 01 02 03 04 05 06 07  08 09 0A 0B 0C 0D 0E 0F
      -- -- -- -- -- -- -- --  -- -- -- -- -- -- -- --
0010:    32 04 80 1F 00 05 80  06 80 02 80 1F 01 00      2............. 
```

#### Opcodes

```
  0: 0x0011 [0x32] ExtData[1]->MainSpeed = 40* * 0.1
  1: 0x0014 [0x1F] MOVE_ENTITY: EventEntity moves to X=-90.431*, Z=0.105*, Y=0.000*
  2: 0x001C [0x1F] MOVE_ENTITY: Update entity position (mode=1)
  3: 0x001E [0x00] END_REQSTACK()
```

### Event 525

#### Metadata

| Field        | Value   |
|--------------|---------|
| Entrypoint   | 0x001F  |
| Data Size    | 1 bytes |
| Instructions | 1       |

```
      00 01 02 03 04 05 06 07  08 09 0A 0B 0C 0D 0E 0F
      -- -- -- -- -- -- -- --  -- -- -- -- -- -- -- --
0010:                                               00                 .
```

#### Opcodes

```
  0: 0x001F [0x00] END_REQSTACK()
```

### Event 65535.3

#### Metadata

| Field        | Value    |
|--------------|----------|
| Entrypoint   | 0x0020   |
| Data Size    | 47 bytes |
| Instructions | 8        |

```
      00 01 02 03 04 05 06 07  08 09 0A 0B 0C 0D 0E 0F
      -- -- -- -- -- -- -- --  -- -- -- -- -- -- -- --
0020: 32 07 80 1F 00 00 80 01  80 02 80 1F 01 1E 2F 21  2............./!
0030: 03 01 1C 08 80 79 00 2F  21 03 01 31 21 03 01 66  .....y./!..1!..f
0040: 09 80 31 21 03 01 31 21  03 01 6B 73 6B 30 00     ..1!..1!..ksk0. 
```

#### Opcodes

```
  0: 0x0020 [0x32] ExtData[1]->MainSpeed = 13* * 0.1
  1: 0x0023 [0x1F] MOVE_ENTITY: EventEntity moves to X=-89.667*, Z=4.389*, Y=0.000*
  2: 0x002B [0x1F] MOVE_ENTITY: Update entity position (mode=1)
  3: 0x002D [0x1E] EventEntity looks at Tehf Kimasnahya (ID: 16982319/0x0103212F) and starts talking
  4: 0x0032 [0x1C] WAIT(120* ticks)
  5: 0x0035 [0x79] Tehf Kimasnahya (ID: 16982319/0x0103212F) looks at Foudeel (ID: 16982321/0x01032131) (Basic look)
  6: 0x003F [0x66] LOAD_EXT_SCHEDULER_MAIN: Load scheduler "ksk0" with entities [Foudeel (ID: 16982321/0x01032131), Foudeel (ID: 16982321/0x01032131)], work=2*
  7: 0x004E [0x00] END_REQSTACK()
```

### Event 527

#### Metadata

| Field        | Value   |
|--------------|---------|
| Entrypoint   | 0x004F  |
| Data Size    | 1 bytes |
| Instructions | 1       |

```
      00 01 02 03 04 05 06 07  08 09 0A 0B 0C 0D 0E 0F
      -- -- -- -- -- -- -- --  -- -- -- -- -- -- -- --
0040:                                               00                 .
```

#### Opcodes

```
  0: 0x004F [0x00] END_REQSTACK()
```

### Event 65535.4

#### Metadata

| Field        | Value    |
|--------------|----------|
| Entrypoint   | 0x0050   |
| Data Size    | 15 bytes |
| Instructions | 3        |

```
      00 01 02 03 04 05 06 07  08 09 0A 0B 0C 0D 0E 0F
      -- -- -- -- -- -- -- --  -- -- -- -- -- -- -- --
0050: 37 05 80 06 80 02 80 0A  80 80 F8 FF FF 7F 00     7.............. 
```

#### Opcodes

```
  0: 0x0050 [0x37] UPDATE_EVENT_POSITION_AND_DIR: x=-90.431*, z=0.105*, y=0.000*, direction=103.9°*
  1: 0x0059 [0x80] LOAD_WAIT(entity=EventEntity)
  2: 0x005E [0x00] END_REQSTACK()
```

### Event 65535.5

#### Metadata

| Field        | Value    |
|--------------|----------|
| Entrypoint   | 0x005F   |
| Data Size    | 14 bytes |
| Instructions | 4        |

```
      00 01 02 03 04 05 06 07  08 09 0A 0B 0C 0D 0E 0F
      -- -- -- -- -- -- -- --  -- -- -- -- -- -- -- --
0050:                                               32                 2
0060: 04 80 1F 00 00 80 01 80  02 80 1F 01 00           .............   
```

#### Opcodes

```
  0: 0x005F [0x32] ExtData[1]->MainSpeed = 40* * 0.1
  1: 0x0062 [0x1F] MOVE_ENTITY: EventEntity moves to X=-89.667*, Z=4.389*, Y=0.000*
  2: 0x006A [0x1F] MOVE_ENTITY: Update entity position (mode=1)
  3: 0x006C [0x00] END_REQSTACK()
```

### Event 65535.6

#### Metadata

| Field        | Value    |
|--------------|----------|
| Entrypoint   | 0x006D   |
| Data Size    | 14 bytes |
| Instructions | 4        |

```
      00 01 02 03 04 05 06 07  08 09 0A 0B 0C 0D 0E 0F
      -- -- -- -- -- -- -- --  -- -- -- -- -- -- -- --
0060:                                         32 07 80               2..
0070: 1F 00 05 80 06 80 02 80  1F 01 00                 ...........     
```

#### Opcodes

```
  0: 0x006D [0x32] ExtData[1]->MainSpeed = 13* * 0.1
  1: 0x0070 [0x1F] MOVE_ENTITY: EventEntity moves to X=-90.431*, Z=0.105*, Y=0.000*
  2: 0x0078 [0x1F] MOVE_ENTITY: Update entity position (mode=1)
  3: 0x007A [0x00] END_REQSTACK()
```

### Event 575

#### Metadata

| Field        | Value   |
|--------------|---------|
| Entrypoint   | 0x007B  |
| Data Size    | 1 bytes |
| Instructions | 1       |

```
      00 01 02 03 04 05 06 07  08 09 0A 0B 0C 0D 0E 0F
      -- -- -- -- -- -- -- --  -- -- -- -- -- -- -- --
0070:                                   00                         .    
```

#### Opcodes

```
  0: 0x007B [0x00] END_REQSTACK()
```

### Event 65535.7

#### Metadata

| Field        | Value    |
|--------------|----------|
| Entrypoint   | 0x007C   |
| Data Size    | 15 bytes |
| Instructions | 3        |

```
      00 01 02 03 04 05 06 07  08 09 0A 0B 0C 0D 0E 0F
      -- -- -- -- -- -- -- --  -- -- -- -- -- -- -- --
0070:                                      37 0B 80 0C              7...
0080: 80 0D 80 0E 80 80 F8 FF  FF 7F 00                 ...........     
```

#### Opcodes

```
  0: 0x007C [0x37] UPDATE_EVENT_POSITION_AND_DIR: x=-28.171*, z=29.157*, y=-5.999*, direction=63.8°*
  1: 0x0085 [0x80] LOAD_WAIT(entity=EventEntity)
  2: 0x008A [0x00] END_REQSTACK()
```

### Event 65535.8

#### Metadata

| Field        | Value    |
|--------------|----------|
| Entrypoint   | 0x008B   |
| Data Size    | 14 bytes |
| Instructions | 4        |

```
      00 01 02 03 04 05 06 07  08 09 0A 0B 0C 0D 0E 0F
      -- -- -- -- -- -- -- --  -- -- -- -- -- -- -- --
0080:                                   32 07 80 1F 00             2....
0090: 0F 80 10 80 11 80 1F 01  00                       .........       
```

#### Opcodes

```
  0: 0x008B [0x32] ExtData[1]->MainSpeed = 13* * 0.1
  1: 0x008E [0x1F] MOVE_ENTITY: EventEntity moves to X=-26.919*, Z=25.278*, Y=-6.000*
  2: 0x0096 [0x1F] MOVE_ENTITY: Update entity position (mode=1)
  3: 0x0098 [0x00] END_REQSTACK()
```

### Event 65535.9

#### Metadata

| Field        | Value    |
|--------------|----------|
| Entrypoint   | 0x0099   |
| Data Size    | 15 bytes |
| Instructions | 3        |

```
      00 01 02 03 04 05 06 07  08 09 0A 0B 0C 0D 0E 0F
      -- -- -- -- -- -- -- --  -- -- -- -- -- -- -- --
0090:                             37 0F 80 10 80 11 80           7......
00A0: 12 80 80 F8 FF FF 7F 00                           ........        
```

#### Opcodes

```
  0: 0x0099 [0x37] UPDATE_EVENT_POSITION_AND_DIR: x=-26.919*, z=25.278*, y=-6.000*, direction=86.5°*
  1: 0x00A2 [0x80] LOAD_WAIT(entity=EventEntity)
  2: 0x00A7 [0x00] END_REQSTACK()
```

### Event 65535.10

#### Metadata

| Field        | Value    |
|--------------|----------|
| Entrypoint   | 0x00A8   |
| Data Size    | 15 bytes |
| Instructions | 3        |

```
      00 01 02 03 04 05 06 07  08 09 0A 0B 0C 0D 0E 0F
      -- -- -- -- -- -- -- --  -- -- -- -- -- -- -- --
00A0:                          37 13 80 14 80 02 80 15          7.......
00B0: 80 80 F8 FF FF 7F 00                              .......         
```

#### Opcodes

```
  0: 0x00A8 [0x37] UPDATE_EVENT_POSITION_AND_DIR: x=55.334*, z=1.253*, y=0.000*, direction=1.8°*
  1: 0x00B1 [0x80] LOAD_WAIT(entity=EventEntity)
  2: 0x00B6 [0x00] END_REQSTACK()
```

### Event 65535.11

#### Metadata

| Field        | Value    |
|--------------|----------|
| Entrypoint   | 0x00B7   |
| Data Size    | 14 bytes |
| Instructions | 4        |

```
      00 01 02 03 04 05 06 07  08 09 0A 0B 0C 0D 0E 0F
      -- -- -- -- -- -- -- --  -- -- -- -- -- -- -- --
00B0:                      32  04 80 1F 00 16 80 17 80         2........
00C0: 02 80 1F 01 00                                    .....           
```

#### Opcodes

```
  0: 0x00B7 [0x32] ExtData[1]->MainSpeed = 40* * 0.1
  1: 0x00BA [0x1F] MOVE_ENTITY: EventEntity moves to X=88.075*, Z=1.860*, Y=0.000*
  2: 0x00C2 [0x1F] MOVE_ENTITY: Update entity position (mode=1)
  3: 0x00C4 [0x00] END_REQSTACK()
```

### Event 65535.12

#### Metadata

| Field        | Value    |
|--------------|----------|
| Entrypoint   | 0x00C5   |
| Data Size    | 24 bytes |
| Instructions | 6        |

```
      00 01 02 03 04 05 06 07  08 09 0A 0B 0C 0D 0E 0F
      -- -- -- -- -- -- -- --  -- -- -- -- -- -- -- --
00C0:                32 04 80  1F 00 18 80 19 80 11 80       2..........
00D0: 1F 01 1F 00 1A 80 1B 80  1C 80 1F 01 00           .............   
```

#### Opcodes

```
  0: 0x00C5 [0x32] ExtData[1]->MainSpeed = 40* * 0.1
  1: 0x00C8 [0x1F] MOVE_ENTITY: EventEntity moves to X=-22.179*, Z=24.347*, Y=-6.000*
  2: 0x00D0 [0x1F] MOVE_ENTITY: Update entity position (mode=1)
  3: 0x00D2 [0x1F] MOVE_ENTITY: EventEntity moves to X=-21.521*, Z=17.159*, Y=-3.663*
  4: 0x00DA [0x1F] MOVE_ENTITY: Update entity position (mode=1)
  5: 0x00DC [0x00] END_REQSTACK()
```

### Event 65535.13

#### Metadata

| Field        | Value    |
|--------------|----------|
| Entrypoint   | 0x00DD   |
| Data Size    | 15 bytes |
| Instructions | 3        |

```
      00 01 02 03 04 05 06 07  08 09 0A 0B 0C 0D 0E 0F
      -- -- -- -- -- -- -- --  -- -- -- -- -- -- -- --
00D0:                                         37 1D 80               7..
00E0: 1E 80 02 80 1F 80 80 F8  FF FF 7F 00              ............    
```

#### Opcodes

```
  0: 0x00DD [0x37] UPDATE_EVENT_POSITION_AND_DIR: x=89.291*, z=1.372*, y=0.000*, direction=165.2°*
  1: 0x00E6 [0x80] LOAD_WAIT(entity=EventEntity)
  2: 0x00EB [0x00] END_REQSTACK()
```

### Event 65535.14

#### Metadata

| Field        | Value    |
|--------------|----------|
| Entrypoint   | 0x00EC   |
| Data Size    | 24 bytes |
| Instructions | 3        |

```
      00 01 02 03 04 05 06 07  08 09 0A 0B 0C 0D 0E 0F
      -- -- -- -- -- -- -- --  -- -- -- -- -- -- -- --
00E0:                                      95 02 80 B6              ....
00F0: 0B 20 80 21 80 02 80 22  80 22 80 22 80 22 80 23  . .!...".".".".#
0100: 80 02 80 00                                       ....            
```

#### Opcodes

```
  0: 0x00EC [0x95] SETUP_EVENT_NPC: Prepare NPC for event (Render.Flags3 = 0*)
  1: 0x00EF [0xB6] ENTITY_APPEARANCE_HANDLER(case=Full entity look, race=1*, hair=5*, head=0*, body=138*, hands=138*, legs=138*, feet=138*, main=249*, sub=0*)
  2: 0x0103 [0x00] END_REQSTACK()
```

### Event 65535.15

#### Metadata

| Field        | Value    |
|--------------|----------|
| Entrypoint   | 0x0104   |
| Data Size    | 22 bytes |
| Instructions | 3        |

```
      00 01 02 03 04 05 06 07  08 09 0A 0B 0C 0D 0E 0F
      -- -- -- -- -- -- -- --  -- -- -- -- -- -- -- --
0100:             96 B6 0B 20  80 21 80 02 80 22 80 22      ... .!..."."
0110: 80 22 80 22 80 02 80 02  80 00                    ."."......      
```

#### Opcodes

```
  0: 0x0104 [0x96] UNSET_EVENT_NPC: Restore NPC after event (removes event NPC status)
  1: 0x0105 [0xB6] ENTITY_APPEARANCE_HANDLER(case=Full entity look, race=1*, hair=5*, head=0*, body=138*, hands=138*, legs=138*, feet=138*, main=0*, sub=0*)
  2: 0x0119 [0x00] END_REQSTACK()
```

### Event 65535.16

#### Metadata

| Field        | Value    |
|--------------|----------|
| Entrypoint   | 0x011A   |
| Data Size    | 15 bytes |
| Instructions | 3        |

```
      00 01 02 03 04 05 06 07  08 09 0A 0B 0C 0D 0E 0F
      -- -- -- -- -- -- -- --  -- -- -- -- -- -- -- --
0110:                                37 24 80 25 80 26            7$.%.&
0120: 80 27 80 80 F8 FF FF 7F  00                       .'.......       
```

#### Opcodes

```
  0: 0x011A [0x37] UPDATE_EVENT_POSITION_AND_DIR: x=469.993*, z=235.706*, y=-23.804*, direction=108.6°*
  1: 0x0123 [0x80] LOAD_WAIT(entity=EventEntity)
  2: 0x0128 [0x00] END_REQSTACK()
```

### Event 65535.17

#### Metadata

| Field        | Value    |
|--------------|----------|
| Entrypoint   | 0x0129   |
| Data Size    | 15 bytes |
| Instructions | 3        |

```
      00 01 02 03 04 05 06 07  08 09 0A 0B 0C 0D 0E 0F
      -- -- -- -- -- -- -- --  -- -- -- -- -- -- -- --
0120:                             37 28 80 29 80 2A 80           7(.).*.
0130: 2B 80 80 F8 FF FF 7F 00                           +.......        
```

#### Opcodes

```
  0: 0x0129 [0x37] UPDATE_EVENT_POSITION_AND_DIR: x=583.632*, z=357.845*, y=-26.197*, direction=75.7°*
  1: 0x0132 [0x80] LOAD_WAIT(entity=EventEntity)
  2: 0x0137 [0x00] END_REQSTACK()
```

### Event 65535.18

#### Metadata

| Field        | Value    |
|--------------|----------|
| Entrypoint   | 0x0138   |
| Data Size    | 13 bytes |
| Instructions | 3        |

```
      00 01 02 03 04 05 06 07  08 09 0A 0B 0C 0D 0E 0F
      -- -- -- -- -- -- -- --  -- -- -- -- -- -- -- --
0130:                          6E 31 21 03 01 2C 80 99          n1!..,..
0140: 31 21 03 01 00                                    1!...           
```

#### Opcodes

```
  0: 0x0138 [0x6E] Foudeel (ID: 16982321/0x01032131) uses emote 43*
  1: 0x013F [0x99] Wait for Foudeel (ID: 16982321/0x01032131) animation to complete
  2: 0x0144 [0x00] END_REQSTACK()
```

### Event 65535.19

#### Metadata

| Field        | Value    |
|--------------|----------|
| Entrypoint   | 0x0145   |
| Data Size    | 16 bytes |
| Instructions | 2        |

```
      00 01 02 03 04 05 06 07  08 09 0A 0B 0C 0D 0E 0F
      -- -- -- -- -- -- -- --  -- -- -- -- -- -- -- --
0140:                66 2D 80  31 21 03 01 AE 21 03 01       f-.1!...!..
0150: 6B 65 69 30 00                                    kei0.           
```

#### Opcodes

```
  0: 0x0145 [0x66] LOAD_EXT_SCHEDULER_MAIN: Load scheduler "kei0" with entities [Foudeel (ID: 16982321/0x01032131), Mishhar (ID: 16982446/0x010321AE)], work=3*
  1: 0x0154 [0x00] END_REQSTACK()
```

### Event 65535.20

#### Metadata

| Field        | Value    |
|--------------|----------|
| Entrypoint   | 0x0155   |
| Data Size    | 14 bytes |
| Instructions | 4        |

```
      00 01 02 03 04 05 06 07  08 09 0A 0B 0C 0D 0E 0F
      -- -- -- -- -- -- -- --  -- -- -- -- -- -- -- --
0150:                32 04 80  1F 00 2E 80 2F 80 02 80       2....../...
0160: 1F 01 00                                          ...             
```

#### Opcodes

```
  0: 0x0155 [0x32] ExtData[1]->MainSpeed = 40* * 0.1
  1: 0x0158 [0x1F] MOVE_ENTITY: EventEntity moves to X=123.547*, Z=3.174*, Y=0.000*
  2: 0x0160 [0x1F] MOVE_ENTITY: Update entity position (mode=1)
  3: 0x0162 [0x00] END_REQSTACK()
```

### Event 269

#### Metadata

| Field        | Value   |
|--------------|---------|
| Entrypoint   | 0x0163  |
| Data Size    | 1 bytes |
| Instructions | 1       |

```
      00 01 02 03 04 05 06 07  08 09 0A 0B 0C 0D 0E 0F
      -- -- -- -- -- -- -- --  -- -- -- -- -- -- -- --
0160:          00                                          .            
```

#### Opcodes

```
  0: 0x0163 [0x00] END_REQSTACK()
```

### Event 65535.21

#### Metadata

| Field        | Value    |
|--------------|----------|
| Entrypoint   | 0x0164   |
| Data Size    | 15 bytes |
| Instructions | 3        |

```
      00 01 02 03 04 05 06 07  08 09 0A 0B 0C 0D 0E 0F
      -- -- -- -- -- -- -- --  -- -- -- -- -- -- -- --
0160:             37 30 80 31  80 02 80 32 80 80 F8 FF      70.1...2....
0170: FF 7F 00                                          ...             
```

#### Opcodes

```
  0: 0x0164 [0x37] UPDATE_EVENT_POSITION_AND_DIR: x=113.510*, z=14.078*, y=0.000*, direction=217.3°*
  1: 0x016D [0x80] LOAD_WAIT(entity=EventEntity)
  2: 0x0172 [0x00] END_REQSTACK()
```

### Event 65535.22

#### Metadata

| Field        | Value    |
|--------------|----------|
| Entrypoint   | 0x0173   |
| Data Size    | 22 bytes |
| Instructions | 6        |

```
      00 01 02 03 04 05 06 07  08 09 0A 0B 0C 0D 0E 0F
      -- -- -- -- -- -- -- --  -- -- -- -- -- -- -- --
0170:          32 04 80 1F 00  33 80 34 80 02 80 1F 01     2....3.4.....
0180: 1E 30 21 03 01 1C 35 80  00                       .0!...5..       
```

#### Opcodes

```
  0: 0x0173 [0x32] ExtData[1]->MainSpeed = 40* * 0.1
  1: 0x0176 [0x1F] MOVE_ENTITY: EventEntity moves to X=110.634*, Z=15.118*, Y=0.000*
  2: 0x017E [0x1F] MOVE_ENTITY: Update entity position (mode=1)
  3: 0x0180 [0x1E] EventEntity looks at Bashraf (ID: 16982320/0x01032130) and starts talking
  4: 0x0185 [0x1C] WAIT(30* ticks)
  5: 0x0188 [0x00] END_REQSTACK()
```

### Event 65535.23

#### Metadata

| Field        | Value    |
|--------------|----------|
| Entrypoint   | 0x0189   |
| Data Size    | 24 bytes |
| Instructions | 6        |

```
      00 01 02 03 04 05 06 07  08 09 0A 0B 0C 0D 0E 0F
      -- -- -- -- -- -- -- --  -- -- -- -- -- -- -- --
0180:                             32 07 80 1F 00 36 80           2....6.
0190: 37 80 02 80 1F 01 1F 00  38 80 39 80 3A 80 1F 01  7.......8.9.:...
01A0: 00                                                .               
```

#### Opcodes

```
  0: 0x0189 [0x32] ExtData[1]->MainSpeed = 13* * 0.1
  1: 0x018C [0x1F] MOVE_ENTITY: EventEntity moves to X=111.800*, Z=20.085*, Y=0.000*
  2: 0x0194 [0x1F] MOVE_ENTITY: Update entity position (mode=1)
  3: 0x0196 [0x1F] MOVE_ENTITY: EventEntity moves to X=111.964*, Z=27.146*, Y=-0.315*
  4: 0x019E [0x1F] MOVE_ENTITY: Update entity position (mode=1)
  5: 0x01A0 [0x00] END_REQSTACK()
```

### Event 65535.24

#### Metadata

| Field        | Value    |
|--------------|----------|
| Entrypoint   | 0x01A1   |
| Data Size    | 19 bytes |
| Instructions | 5        |

```
      00 01 02 03 04 05 06 07  08 09 0A 0B 0C 0D 0E 0F
      -- -- -- -- -- -- -- --  -- -- -- -- -- -- -- --
01A0:    32 07 80 1F 00 3B 80  3C 80 3A 80 1F 01 1E 35   2....;.<.:....5
01B0: 20 03 01 00                                        ...            
```

#### Opcodes

```
  0: 0x01A1 [0x32] ExtData[1]->MainSpeed = 13* * 0.1
  1: 0x01A4 [0x1F] MOVE_ENTITY: EventEntity moves to X=120.125*, Z=31.316*, Y=-0.315*
  2: 0x01AC [0x1F] MOVE_ENTITY: Update entity position (mode=1)
  3: 0x01AE [0x1E] EventEntity looks at Sharin-Garin (ID: 16982069/0x01032035) and starts talking
  4: 0x01B3 [0x00] END_REQSTACK()
```

### Event 65535.25

#### Metadata

| Field        | Value    |
|--------------|----------|
| Entrypoint   | 0x01B4   |
| Data Size    | 14 bytes |
| Instructions | 4        |

```
      00 01 02 03 04 05 06 07  08 09 0A 0B 0C 0D 0E 0F
      -- -- -- -- -- -- -- --  -- -- -- -- -- -- -- --
01B0:             32 07 80 1F  00 3D 80 3E 80 3A 80 1F      2....=.>.:..
01C0: 01 00                                             ..              
```

#### Opcodes

```
  0: 0x01B4 [0x32] ExtData[1]->MainSpeed = 13* * 0.1
  1: 0x01B7 [0x1F] MOVE_ENTITY: EventEntity moves to X=122.495*, Z=32.129*, Y=-0.315*
  2: 0x01BF [0x1F] MOVE_ENTITY: Update entity position (mode=1)
  3: 0x01C1 [0x00] END_REQSTACK()
```

### Event 65535.26

#### Metadata

| Field        | Value    |
|--------------|----------|
| Entrypoint   | 0x01C2   |
| Data Size    | 20 bytes |
| Instructions | 4        |

```
      00 01 02 03 04 05 06 07  08 09 0A 0B 0C 0D 0E 0F
      -- -- -- -- -- -- -- --  -- -- -- -- -- -- -- --
01C0:       37 3F 80 40 80 41  80 42 80 80 F8 FF FF 7F    7?.@.A.B......
01D0: 1E A5 20 03 01 00                                 .. ...          
```

#### Opcodes

```
  0: 0x01C2 [0x37] UPDATE_EVENT_POSITION_AND_DIR: x=-207.484*, z=-782.415*, y=-11.423*, direction=248.5°*
  1: 0x01CB [0x80] LOAD_WAIT(entity=EventEntity)
  2: 0x01D0 [0x1E] EventEntity looks at Unnamed NPC (ID: 16982181/0x010320A5) and starts talking
  3: 0x01D5 [0x00] END_REQSTACK()
```

### Event 65535.27

#### Metadata

| Field        | Value    |
|--------------|----------|
| Entrypoint   | 0x01D6   |
| Data Size    | 35 bytes |
| Instructions | 7        |

```
      00 01 02 03 04 05 06 07  08 09 0A 0B 0C 0D 0E 0F
      -- -- -- -- -- -- -- --  -- -- -- -- -- -- -- --
01D0:                   37 43  80 44 80 45 80 46 80 80        7C.D.E.F..
01E0: F8 FF FF 7F 32 07 80 1F  00 47 80 48 80 49 80 1F  ....2....G.H.I..
01F0: 01 4B 31 21 03 01 4A 80  00                       .K1!..J..       
```

#### Opcodes

```
  0: 0x01D6 [0x37] UPDATE_EVENT_POSITION_AND_DIR: x=-183.147*, z=-826.464*, y=-5.910*, direction=91.8°*
  1: 0x01DF [0x80] LOAD_WAIT(entity=EventEntity)
  2: 0x01E4 [0x32] ExtData[1]->MainSpeed = 13* * 0.1
  3: 0x01E7 [0x1F] MOVE_ENTITY: EventEntity moves to X=-179.713*, Z=-830.224*, Y=-4.970*
  4: 0x01EF [0x1F] MOVE_ENTITY: Update entity position (mode=1)
  5: 0x01F1 [0x4B] UPDATE_ENTITY_YAW(entity=Foudeel (ID: 16982321/0x01032131), yaw=4.9°*)
  6: 0x01F8 [0x00] END_REQSTACK()
```

### Event 65535.28

#### Metadata

| Field        | Value    |
|--------------|----------|
| Entrypoint   | 0x01F9   |
| Data Size    | 15 bytes |
| Instructions | 3        |

```
      00 01 02 03 04 05 06 07  08 09 0A 0B 0C 0D 0E 0F
      -- -- -- -- -- -- -- --  -- -- -- -- -- -- -- --
01F0:                             37 4B 80 4C 80 4D 80           7K.L.M.
0200: 4E 80 80 F8 FF FF 7F 00                           N.......        
```

#### Opcodes

```
  0: 0x01F9 [0x37] UPDATE_EVENT_POSITION_AND_DIR: x=-316.446*, z=-340.713*, y=-9.487*, direction=180.9°*
  1: 0x0202 [0x80] LOAD_WAIT(entity=EventEntity)
  2: 0x0207 [0x00] END_REQSTACK()
```

### Event 65535.29

#### Metadata

| Field        | Value    |
|--------------|----------|
| Entrypoint   | 0x0208   |
| Data Size    | 14 bytes |
| Instructions | 4        |

```
      00 01 02 03 04 05 06 07  08 09 0A 0B 0C 0D 0E 0F
      -- -- -- -- -- -- -- --  -- -- -- -- -- -- -- --
0200:                          32 04 80 1F 00 4F 80 50          2....O.P
0210: 80 51 80 1F 01 00                                 .Q....          
```

#### Opcodes

```
  0: 0x0208 [0x32] ExtData[1]->MainSpeed = 40* * 0.1
  1: 0x020B [0x1F] MOVE_ENTITY: EventEntity moves to X=-334.911*, Z=-343.753*, Y=-9.366*
  2: 0x0213 [0x1F] MOVE_ENTITY: Update entity position (mode=1)
  3: 0x0215 [0x00] END_REQSTACK()
```

### Event 800

#### Metadata

| Field        | Value   |
|--------------|---------|
| Entrypoint   | 0x0216  |
| Data Size    | 1 bytes |
| Instructions | 1       |

```
      00 01 02 03 04 05 06 07  08 09 0A 0B 0C 0D 0E 0F
      -- -- -- -- -- -- -- --  -- -- -- -- -- -- -- --
0210:                   00                                    .         
```

#### Opcodes

```
  0: 0x0216 [0x00] END_REQSTACK()
```

### Event 65535.30

#### Metadata

| Field        | Value    |
|--------------|----------|
| Entrypoint   | 0x0217   |
| Data Size    | 15 bytes |
| Instructions | 3        |

```
      00 01 02 03 04 05 06 07  08 09 0A 0B 0C 0D 0E 0F
      -- -- -- -- -- -- -- --  -- -- -- -- -- -- -- --
0210:                      37  52 80 53 80 0D 80 54 80         7R.S...T.
0220: 80 F8 FF FF 7F 00                                 ......          
```

#### Opcodes

```
  0: 0x0217 [0x37] UPDATE_EVENT_POSITION_AND_DIR: x=-10.639*, z=28.344*, y=-5.999*, direction=256.7°*
  1: 0x0220 [0x80] LOAD_WAIT(entity=EventEntity)
  2: 0x0225 [0x00] END_REQSTACK()
```

### Event 65535.31

#### Metadata

| Field        | Value    |
|--------------|----------|
| Entrypoint   | 0x0226   |
| Data Size    | 14 bytes |
| Instructions | 4        |

```
      00 01 02 03 04 05 06 07  08 09 0A 0B 0C 0D 0E 0F
      -- -- -- -- -- -- -- --  -- -- -- -- -- -- -- --
0220:                   32 04  80 1F 00 55 80 56 80 0D        2....U.V..
0230: 80 1F 01 00                                       ....            
```

#### Opcodes

```
  0: 0x0226 [0x32] ExtData[1]->MainSpeed = 40* * 0.1
  1: 0x0229 [0x1F] MOVE_ENTITY: EventEntity moves to X=-22.038*, Z=26.546*, Y=-5.999*
  2: 0x0231 [0x1F] MOVE_ENTITY: Update entity position (mode=1)
  3: 0x0233 [0x00] END_REQSTACK()
```

### Event 803

#### Metadata

| Field        | Value   |
|--------------|---------|
| Entrypoint   | 0x0234  |
| Data Size    | 1 bytes |
| Instructions | 1       |

```
      00 01 02 03 04 05 06 07  08 09 0A 0B 0C 0D 0E 0F
      -- -- -- -- -- -- -- --  -- -- -- -- -- -- -- --
0230:             00                                        .           
```

#### Opcodes

```
  0: 0x0234 [0x00] END_REQSTACK()
```

### Event 65535.32

#### Metadata

| Field        | Value    |
|--------------|----------|
| Entrypoint   | 0x0235   |
| Data Size    | 15 bytes |
| Instructions | 3        |

```
      00 01 02 03 04 05 06 07  08 09 0A 0B 0C 0D 0E 0F
      -- -- -- -- -- -- -- --  -- -- -- -- -- -- -- --
0230:                37 57 80  58 80 59 80 5A 80 80 F8       7W.X.Y.Z...
0240: FF FF 7F 00                                       ....            
```

#### Opcodes

```
  0: 0x0235 [0x37] UPDATE_EVENT_POSITION_AND_DIR: x=-149.566*, z=0.954*, y=1.800*, direction=352.3°*
  1: 0x023E [0x80] LOAD_WAIT(entity=EventEntity)
  2: 0x0243 [0x00] END_REQSTACK()
```

### Event 65535.33

#### Metadata

| Field        | Value    |
|--------------|----------|
| Entrypoint   | 0x0244   |
| Data Size    | 24 bytes |
| Instructions | 3        |

```
      00 01 02 03 04 05 06 07  08 09 0A 0B 0C 0D 0E 0F
      -- -- -- -- -- -- -- --  -- -- -- -- -- -- -- --
0240:             95 02 80 B6  0B 2D 80 02 80 02 80 5B      .....-.....[
0250: 80 5B 80 5B 80 5B 80 23  80 02 80 00              .[.[.[.#....    
```

#### Opcodes

```
  0: 0x0244 [0x95] SETUP_EVENT_NPC: Prepare NPC for event (Render.Flags3 = 0*)
  1: 0x0247 [0xB6] ENTITY_APPEARANCE_HANDLER(case=Full entity look, race=3*, hair=0*, head=0*, body=28*, hands=28*, legs=28*, feet=28*, main=249*, sub=0*)
  2: 0x025B [0x00] END_REQSTACK()
```

### Event 65535.34

#### Metadata

| Field        | Value    |
|--------------|----------|
| Entrypoint   | 0x025C   |
| Data Size    | 14 bytes |
| Instructions | 4        |

```
      00 01 02 03 04 05 06 07  08 09 0A 0B 0C 0D 0E 0F
      -- -- -- -- -- -- -- --  -- -- -- -- -- -- -- --
0250:                                      32 07 80 1F              2...
0260: 00 5C 80 5D 80 5E 80 1F  01 00                    .\.].^....      
```

#### Opcodes

```
  0: 0x025C [0x32] ExtData[1]->MainSpeed = 13* * 0.1
  1: 0x025F [0x1F] MOVE_ENTITY: EventEntity moves to X=-141.019*, Z=0.866*, Y=1.999*
  2: 0x0267 [0x1F] MOVE_ENTITY: Update entity position (mode=1)
  3: 0x0269 [0x00] END_REQSTACK()
```

### Event 65535.35

#### Metadata

| Field        | Value    |
|--------------|----------|
| Entrypoint   | 0x026A   |
| Data Size    | 14 bytes |
| Instructions | 4        |

```
      00 01 02 03 04 05 06 07  08 09 0A 0B 0C 0D 0E 0F
      -- -- -- -- -- -- -- --  -- -- -- -- -- -- -- --
0260:                                32 07 80 1F 00 5F            2...._
0270: 80 60 80 61 80 1F 01 00                           .`.a....        
```

#### Opcodes

```
  0: 0x026A [0x32] ExtData[1]->MainSpeed = 13* * 0.1
  1: 0x026D [0x1F] MOVE_ENTITY: EventEntity moves to X=-128.068*, Z=1.881*, Y=0.991*
  2: 0x0275 [0x1F] MOVE_ENTITY: Update entity position (mode=1)
  3: 0x0277 [0x00] END_REQSTACK()
```

### Event 65535.36

#### Metadata

| Field        | Value    |
|--------------|----------|
| Entrypoint   | 0x0278   |
| Data Size    | 15 bytes |
| Instructions | 3        |

```
      00 01 02 03 04 05 06 07  08 09 0A 0B 0C 0D 0E 0F
      -- -- -- -- -- -- -- --  -- -- -- -- -- -- -- --
0270:                          37 62 80 63 80 0D 80 64          7b.c...d
0280: 80 80 F8 FF FF 7F 00                              .......         
```

#### Opcodes

```
  0: 0x0278 [0x37] UPDATE_EVENT_POSITION_AND_DIR: x=-22.255*, z=28.543*, y=-5.999*, direction=30.1°*
  1: 0x0281 [0x80] LOAD_WAIT(entity=EventEntity)
  2: 0x0286 [0x00] END_REQSTACK()
```

### Event 65535.37

#### Metadata

| Field        | Value    |
|--------------|----------|
| Entrypoint   | 0x0287   |
| Data Size    | 40 bytes |
| Instructions | 8        |

```
      00 01 02 03 04 05 06 07  08 09 0A 0B 0C 0D 0E 0F
      -- -- -- -- -- -- -- --  -- -- -- -- -- -- -- --
0280:                      32  04 80 1F 00 65 80 66 80         2....e.f.
0290: 11 80 1F 01 1E AE 21 03  01 1C 67 80 66 68 80 31  ......!...g.fh.1
02A0: 21 03 01 31 21 03 01 73  68 61 30 1C 08 80 00     !..1!..sha0.... 
```

#### Opcodes

```
  0: 0x0287 [0x32] ExtData[1]->MainSpeed = 40* * 0.1
  1: 0x028A [0x1F] MOVE_ENTITY: EventEntity moves to X=-15.207*, Z=27.493*, Y=-6.000*
  2: 0x0292 [0x1F] MOVE_ENTITY: Update entity position (mode=1)
  3: 0x0294 [0x1E] EventEntity looks at Mishhar (ID: 16982446/0x010321AE) and starts talking
  4: 0x0299 [0x1C] WAIT(60* ticks)
  5: 0x029C [0x66] LOAD_EXT_SCHEDULER_MAIN: Load scheduler "sha0" with entities [Foudeel (ID: 16982321/0x01032131), Foudeel (ID: 16982321/0x01032131)], work=9*
  6: 0x02AB [0x1C] WAIT(120* ticks)
  7: 0x02AE [0x00] END_REQSTACK()
```

### Event 836

#### Metadata

| Field        | Value   |
|--------------|---------|
| Entrypoint   | 0x02AF  |
| Data Size    | 1 bytes |
| Instructions | 1       |

```
      00 01 02 03 04 05 06 07  08 09 0A 0B 0C 0D 0E 0F
      -- -- -- -- -- -- -- --  -- -- -- -- -- -- -- --
02A0:                                               00                 .
```

#### Opcodes

```
  0: 0x02AF [0x00] END_REQSTACK()
```

### Event 65535.38

#### Metadata

| Field        | Value    |
|--------------|----------|
| Entrypoint   | 0x02B0   |
| Data Size    | 22 bytes |
| Instructions | 6        |

```
      00 01 02 03 04 05 06 07  08 09 0A 0B 0C 0D 0E 0F
      -- -- -- -- -- -- -- --  -- -- -- -- -- -- -- --
02B0: 32 07 80 1F 00 69 80 6A  80 02 80 1F 01 1E 76 20  2....i.j......v 
02C0: 03 01 1C 35 80 00                                 ...5..          
```

#### Opcodes

```
  0: 0x02B0 [0x32] ExtData[1]->MainSpeed = 13* * 0.1
  1: 0x02B3 [0x1F] MOVE_ENTITY: EventEntity moves to X=20.722*, Z=20.840*, Y=0.000*
  2: 0x02BB [0x1F] MOVE_ENTITY: Update entity position (mode=1)
  3: 0x02BD [0x1E] EventEntity looks at Kubhe Ijyuhla (ID: 16982134/0x01032076) and starts talking
  4: 0x02C2 [0x1C] WAIT(30* ticks)
  5: 0x02C5 [0x00] END_REQSTACK()
```

### Event 65535.39

#### Metadata

| Field        | Value    |
|--------------|----------|
| Entrypoint   | 0x02C6   |
| Data Size    | 14 bytes |
| Instructions | 4        |

```
      00 01 02 03 04 05 06 07  08 09 0A 0B 0C 0D 0E 0F
      -- -- -- -- -- -- -- --  -- -- -- -- -- -- -- --
02C0:                   32 07  80 1F 00 6B 80 6C 80 02        2....k.l..
02D0: 80 1F 01 00                                       ....            
```

#### Opcodes

```
  0: 0x02C6 [0x32] ExtData[1]->MainSpeed = 13* * 0.1
  1: 0x02C9 [0x1F] MOVE_ENTITY: EventEntity moves to X=15.738*, Z=20.399*, Y=0.000*
  2: 0x02D1 [0x1F] MOVE_ENTITY: Update entity position (mode=1)
  3: 0x02D3 [0x00] END_REQSTACK()
```

### Event 838

#### Metadata

| Field        | Value   |
|--------------|---------|
| Entrypoint   | 0x02D4  |
| Data Size    | 1 bytes |
| Instructions | 1       |

```
      00 01 02 03 04 05 06 07  08 09 0A 0B 0C 0D 0E 0F
      -- -- -- -- -- -- -- --  -- -- -- -- -- -- -- --
02D0:             00                                        .           
```

#### Opcodes

```
  0: 0x02D4 [0x00] END_REQSTACK()
```

### Event 65535.40

#### Metadata

| Field        | Value    |
|--------------|----------|
| Entrypoint   | 0x02D5   |
| Data Size    | 22 bytes |
| Instructions | 6        |

```
      00 01 02 03 04 05 06 07  08 09 0A 0B 0C 0D 0E 0F
      -- -- -- -- -- -- -- --  -- -- -- -- -- -- -- --
02D0:                32 07 80  1F 00 6D 80 6E 80 02 80       2....m.n...
02E0: 1F 01 1E 76 20 03 01 1C  35 80 00                 ...v ...5..     
```

#### Opcodes

```
  0: 0x02D5 [0x32] ExtData[1]->MainSpeed = 13* * 0.1
  1: 0x02D8 [0x1F] MOVE_ENTITY: EventEntity moves to X=20.809*, Z=21.356*, Y=0.000*
  2: 0x02E0 [0x1F] MOVE_ENTITY: Update entity position (mode=1)
  3: 0x02E2 [0x1E] EventEntity looks at Kubhe Ijyuhla (ID: 16982134/0x01032076) and starts talking
  4: 0x02E7 [0x1C] WAIT(30* ticks)
  5: 0x02EA [0x00] END_REQSTACK()
```

### Event 65535.41

#### Metadata

| Field        | Value    |
|--------------|----------|
| Entrypoint   | 0x02EB   |
| Data Size    | 14 bytes |
| Instructions | 4        |

```
      00 01 02 03 04 05 06 07  08 09 0A 0B 0C 0D 0E 0F
      -- -- -- -- -- -- -- --  -- -- -- -- -- -- -- --
02E0:                                   32 07 80 1F 00             2....
02F0: 6F 80 70 80 02 80 1F 01  00                       o.p......       
```

#### Opcodes

```
  0: 0x02EB [0x32] ExtData[1]->MainSpeed = 13* * 0.1
  1: 0x02EE [0x1F] MOVE_ENTITY: EventEntity moves to X=19.855*, Z=15.412*, Y=0.000*
  2: 0x02F6 [0x1F] MOVE_ENTITY: Update entity position (mode=1)
  3: 0x02F8 [0x00] END_REQSTACK()
```

### Event 840

#### Metadata

| Field        | Value   |
|--------------|---------|
| Entrypoint   | 0x02F9  |
| Data Size    | 1 bytes |
| Instructions | 1       |

```
      00 01 02 03 04 05 06 07  08 09 0A 0B 0C 0D 0E 0F
      -- -- -- -- -- -- -- --  -- -- -- -- -- -- -- --
02F0:                             00                             .      
```

#### Opcodes

```
  0: 0x02F9 [0x00] END_REQSTACK()
```

### Event 843

#### Metadata

| Field        | Value   |
|--------------|---------|
| Entrypoint   | 0x02FA  |
| Data Size    | 1 bytes |
| Instructions | 1       |

```
      00 01 02 03 04 05 06 07  08 09 0A 0B 0C 0D 0E 0F
      -- -- -- -- -- -- -- --  -- -- -- -- -- -- -- --
02F0:                                00                           .     
```

#### Opcodes

```
  0: 0x02FA [0x00] END_REQSTACK()
```

### Event 845

#### Metadata

| Field        | Value   |
|--------------|---------|
| Entrypoint   | 0x02FB  |
| Data Size    | 1 bytes |
| Instructions | 1       |

```
      00 01 02 03 04 05 06 07  08 09 0A 0B 0C 0D 0E 0F
      -- -- -- -- -- -- -- --  -- -- -- -- -- -- -- --
02F0:                                   00                         .    
```

#### Opcodes

```
  0: 0x02FB [0x00] END_REQSTACK()
```

### Event 65535.42

#### Metadata

| Field        | Value    |
|--------------|----------|
| Entrypoint   | 0x02FC   |
| Data Size    | 24 bytes |
| Instructions | 6        |

```
      00 01 02 03 04 05 06 07  08 09 0A 0B 0C 0D 0E 0F
      -- -- -- -- -- -- -- --  -- -- -- -- -- -- -- --
02F0:                                      32 07 80 1F              2...
0300: 00 71 80 72 80 02 80 1F  01 1F 00 73 80 74 80 02  .q.r.......s.t..
0310: 80 1F 01 00                                       ....            
```

#### Opcodes

```
  0: 0x02FC [0x32] ExtData[1]->MainSpeed = 13* * 0.1
  1: 0x02FF [0x1F] MOVE_ENTITY: EventEntity moves to X=20.396*, Z=1.304*, Y=0.000*
  2: 0x0307 [0x1F] MOVE_ENTITY: Update entity position (mode=1)
  3: 0x0309 [0x1F] MOVE_ENTITY: EventEntity moves to X=20.312*, Z=3.948*, Y=0.000*
  4: 0x0311 [0x1F] MOVE_ENTITY: Update entity position (mode=1)
  5: 0x0313 [0x00] END_REQSTACK()
```

### Event 65535.43

#### Metadata

| Field        | Value    |
|--------------|----------|
| Entrypoint   | 0x0314   |
| Data Size    | 14 bytes |
| Instructions | 4        |

```
      00 01 02 03 04 05 06 07  08 09 0A 0B 0C 0D 0E 0F
      -- -- -- -- -- -- -- --  -- -- -- -- -- -- -- --
0310:             32 07 80 1F  00 75 80 76 80 02 80 1F      2....u.v....
0320: 01 00                                             ..              
```

#### Opcodes

```
  0: 0x0314 [0x32] ExtData[1]->MainSpeed = 13* * 0.1
  1: 0x0317 [0x1F] MOVE_ENTITY: EventEntity moves to X=19.555*, Z=11.321*, Y=0.000*
  2: 0x031F [0x1F] MOVE_ENTITY: Update entity position (mode=1)
  3: 0x0321 [0x00] END_REQSTACK()
```

### Event 65535.44

#### Metadata

| Field        | Value    |
|--------------|----------|
| Entrypoint   | 0x0322   |
| Data Size    | 22 bytes |
| Instructions | 6        |

```
      00 01 02 03 04 05 06 07  08 09 0A 0B 0C 0D 0E 0F
      -- -- -- -- -- -- -- --  -- -- -- -- -- -- -- --
0320:       32 07 80 1F 00 77  80 78 80 02 80 1F 01 1E    2....w.x......
0330: 30 21 03 01 1C 35 80 00                           0!...5..        
```

#### Opcodes

```
  0: 0x0322 [0x32] ExtData[1]->MainSpeed = 13* * 0.1
  1: 0x0325 [0x1F] MOVE_ENTITY: EventEntity moves to X=19.031*, Z=20.427*, Y=0.000*
  2: 0x032D [0x1F] MOVE_ENTITY: Update entity position (mode=1)
  3: 0x032F [0x1E] EventEntity looks at Bashraf (ID: 16982320/0x01032130) and starts talking
  4: 0x0334 [0x1C] WAIT(30* ticks)
  5: 0x0337 [0x00] END_REQSTACK()
```

### Event 864

#### Metadata

| Field        | Value   |
|--------------|---------|
| Entrypoint   | 0x0338  |
| Data Size    | 7 bytes |
| Instructions | 2       |

```
      00 01 02 03 04 05 06 07  08 09 0A 0B 0C 0D 0E 0F
      -- -- -- -- -- -- -- --  -- -- -- -- -- -- -- --
0330:                          92 01 F8 FF FF 7F 00             ....... 
```

#### Opcodes

```
  0: 0x0338 [0x92] EventEntity->Render.Flags3 ^= 0x01
  1: 0x033E [0x00] END_REQSTACK()
```

### Event 65535.45

#### Metadata

| Field        | Value    |
|--------------|----------|
| Entrypoint   | 0x033F   |
| Data Size    | 19 bytes |
| Instructions | 5        |

```
      00 01 02 03 04 05 06 07  08 09 0A 0B 0C 0D 0E 0F
      -- -- -- -- -- -- -- --  -- -- -- -- -- -- -- --
0330:                                               32                 2
0340: 07 80 1F 00 79 80 7A 80  11 80 1F 01 1E 54 20 03  ....y.z......T .
0350: 01 00                                             ..              
```

#### Opcodes

```
  0: 0x033F [0x32] ExtData[1]->MainSpeed = 13* * 0.1
  1: 0x0342 [0x1F] MOVE_ENTITY: EventEntity moves to X=78.677*, Z=-134.011*, Y=-6.000*
  2: 0x034A [0x1F] MOVE_ENTITY: Update entity position (mode=1)
  3: 0x034C [0x1E] EventEntity looks at Yafaaf (ID: 16982100/0x01032054) and starts talking
  4: 0x0351 [0x00] END_REQSTACK()
```

### Event 65535.46

#### Metadata

| Field        | Value    |
|--------------|----------|
| Entrypoint   | 0x0352   |
| Data Size    | 19 bytes |
| Instructions | 5        |

```
      00 01 02 03 04 05 06 07  08 09 0A 0B 0C 0D 0E 0F
      -- -- -- -- -- -- -- --  -- -- -- -- -- -- -- --
0350:       32 07 80 1F 00 7B  80 7C 80 11 80 1F 01 1E    2....{.|......
0360: 54 20 03 01 00                                    T ...           
```

#### Opcodes

```
  0: 0x0352 [0x32] ExtData[1]->MainSpeed = 13* * 0.1
  1: 0x0355 [0x1F] MOVE_ENTITY: EventEntity moves to X=78.268*, Z=-135.273*, Y=-6.000*
  2: 0x035D [0x1F] MOVE_ENTITY: Update entity position (mode=1)
  3: 0x035F [0x1E] EventEntity looks at Yafaaf (ID: 16982100/0x01032054) and starts talking
  4: 0x0364 [0x00] END_REQSTACK()
```

### Event 65535.47

#### Metadata

| Field        | Value    |
|--------------|----------|
| Entrypoint   | 0x0365   |
| Data Size    | 19 bytes |
| Instructions | 5        |

```
      00 01 02 03 04 05 06 07  08 09 0A 0B 0C 0D 0E 0F
      -- -- -- -- -- -- -- --  -- -- -- -- -- -- -- --
0360:                32 07 80  1F 00 7D 80 7E 80 11 80       2....}.~...
0370: 1F 01 1E 54 20 03 01 00                           ...T ...        
```

#### Opcodes

```
  0: 0x0365 [0x32] ExtData[1]->MainSpeed = 13* * 0.1
  1: 0x0368 [0x1F] MOVE_ENTITY: EventEntity moves to X=78.167*, Z=-136.256*, Y=-6.000*
  2: 0x0370 [0x1F] MOVE_ENTITY: Update entity position (mode=1)
  3: 0x0372 [0x1E] EventEntity looks at Yafaaf (ID: 16982100/0x01032054) and starts talking
  4: 0x0377 [0x00] END_REQSTACK()
```

### Event 65535.48

#### Metadata

| Field        | Value    |
|--------------|----------|
| Entrypoint   | 0x0378   |
| Data Size    | 29 bytes |
| Instructions | 7        |

```
      00 01 02 03 04 05 06 07  08 09 0A 0B 0C 0D 0E 0F
      -- -- -- -- -- -- -- --  -- -- -- -- -- -- -- --
0370:                          1C 67 80 32 07 80 1F 00          .g.2....
0380: 7F 80 80 80 11 80 1F 01  1E 54 20 03 01 27 05 32  .........T ..'.2
0390: 21 03 01 3B 00                                    !..;.           
```

#### Opcodes

```
  0: 0x0378 [0x1C] WAIT(60* ticks)
  1: 0x037B [0x32] ExtData[1]->MainSpeed = 13* * 0.1
  2: 0x037E [0x1F] MOVE_ENTITY: EventEntity moves to X=77.377*, Z=-137.981*, Y=-6.000*
  3: 0x0386 [0x1F] MOVE_ENTITY: Update entity position (mode=1)
  4: 0x0388 [0x1E] EventEntity looks at Yafaaf (ID: 16982100/0x01032054) and starts talking
  5: 0x038D [0x27] REQ_SET(priority=0x05, entity_id=Wahboud (ID: 16982322/0x01032132), tag_num=0x3B)
  6: 0x0394 [0x00] END_REQSTACK()
```

### Event 65535.49

#### Metadata

| Field        | Value    |
|--------------|----------|
| Entrypoint   | 0x0395   |
| Data Size    | 14 bytes |
| Instructions | 4        |

```
      00 01 02 03 04 05 06 07  08 09 0A 0B 0C 0D 0E 0F
      -- -- -- -- -- -- -- --  -- -- -- -- -- -- -- --
0390:                32 07 80  1F 00 81 80 82 80 11 80       2..........
03A0: 1F 01 00                                          ...             
```

#### Opcodes

```
  0: 0x0395 [0x32] ExtData[1]->MainSpeed = 13* * 0.1
  1: 0x0398 [0x1F] MOVE_ENTITY: EventEntity moves to X=82.702*, Z=-135.689*, Y=-6.000*
  2: 0x03A0 [0x1F] MOVE_ENTITY: Update entity position (mode=1)
  3: 0x03A2 [0x00] END_REQSTACK()
```

### Event 872

#### Metadata

| Field        | Value   |
|--------------|---------|
| Entrypoint   | 0x03A3  |
| Data Size    | 7 bytes |
| Instructions | 2       |

```
      00 01 02 03 04 05 06 07  08 09 0A 0B 0C 0D 0E 0F
      -- -- -- -- -- -- -- --  -- -- -- -- -- -- -- --
03A0:          92 01 F8 FF FF  7F 00                       .......      
```

#### Opcodes

```
  0: 0x03A3 [0x92] EventEntity->Render.Flags3 ^= 0x01
  1: 0x03A9 [0x00] END_REQSTACK()
```
