# 16982273 - Qutiba

## Common Data

| Field            | Value                         |
|------------------|-------------------------------|
| Zone             | Aht Urhgan Whitegate (ID: 50) |
| Block Size       | 2096 bytes                    |
| Total Events     | 31                            |
| References Count | 88                            |

## List of Events

| Event ID                 | Entrypoint   |   Size |   Instructions |
|--------------------------|--------------|--------|----------------|
| [65535](#event-65535)    | 0x0000       |      1 |              1 |
| [3092](#event-3092)      | 0x0001       |      1 |              1 |
| [797](#event-797)        | 0x0002       |      1 |              1 |
| [514](#event-514)        | 0x0003       |     34 |             12 |
| [40](#event-40)          | 0x0025       |      7 |              2 |
| [42](#event-42)          | 0x002C       |      7 |              2 |
| [45](#event-45)          | 0x0033       |      7 |              2 |
| [51](#event-51)          | 0x003A       |    127 |             19 |
| [52](#event-52)          | 0x00B9       |     33 |             11 |
| [54](#event-54)          | 0x00DA       |     96 |             16 |
| [55](#event-55)          | 0x013A       |     13 |              7 |
| [57](#event-57)          | 0x0147       |    827 |            260 |
| [579](#event-579)        | 0x0482       |      1 |              1 |
| [580](#event-580)        | 0x0483       |      1 |              1 |
| [65535.1](#event-655351) | 0x0484       |     15 |              3 |
| [65535.2](#event-655352) | 0x0493       |     19 |              5 |
| [585](#event-585)        | 0x04A6       |     63 |             16 |
| [581](#event-581)        | 0x04E5       |     96 |             20 |
| [3026](#event-3026)      | 0x0545       |      7 |              2 |
| [3027](#event-3027)      | 0x054C       |      7 |              2 |
| [3033](#event-3033)      | 0x0553       |      7 |              2 |
| [3034](#event-3034)      | 0x055A       |      7 |              2 |
| [65535.3](#event-655353) | 0x0561       |     18 |              4 |
| [860](#event-860)        | 0x0573       |    104 |             21 |
| [864](#event-864)        | 0x05DB       |      7 |              2 |
| [65535.4](#event-655354) | 0x05E2       |     19 |              5 |
| [65535.5](#event-655355) | 0x05F5       |     19 |              5 |
| [65535.6](#event-655356) | 0x0608       |     19 |              5 |
| [65535.7](#event-655357) | 0x061B       |     19 |              5 |
| [65535.8](#event-655358) | 0x062E       |     14 |              4 |
| [872](#event-872)        | 0x063C       |      7 |              2 |

## DAT References (imed_data)

|   Index | Hex Value   |   Dec Value |
|---------|-------------|-------------|
|       0 | 0x001E      |          30 |
|       1 | 0x1365      |        4965 |
|       2 | 0x0020      |          32 |
|       3 | 0x1366      |        4966 |
|       4 | 0x1367      |        4967 |
|       5 | 0x235E      |        9054 |
|       6 | 0x003C      |          60 |
|       7 | 0x0013      |          19 |
|       8 | 0x235F      |        9055 |
|       9 | 0x0009      |           9 |
|      10 | 0x2360      |        9056 |
|      11 | 0x0007      |           7 |
|      12 | 0x2361      |        9057 |
|      13 | 0x001A      |          26 |
|      14 | 0x236C      |        9068 |
|      15 | 0x239E      |        9118 |
|      16 | 0x239F      |        9119 |
|      17 | 0x23FA      |        9210 |
|      18 | 0x240D      |        9229 |
|      19 | 0x240E      |        9230 |
|      20 | 0x0001      |           1 |
|      21 | 0x240F      |        9231 |
|      22 | 0x2410      |        9232 |
|      23 | 0x0000      |           0 |
|      24 | 0x2411      |        9233 |
|      25 | 0x2412      |        9234 |
|      26 | 0x0002      |           2 |
|      27 | 0x2416      |        9238 |
|      28 | 0x2418      |        9240 |
|      29 | 0x241C      |        9244 |
|      30 | 0x2414      |        9236 |
|      31 | 0x0003      |           3 |
|      32 | 0x241A      |        9242 |
|      33 | 0x2420      |        9248 |
|      34 | 0x0004      |           4 |
|      35 | 0x2422      |        9250 |
|      36 | 0x0005      |           5 |
|      37 | 0x241E      |        9246 |
|      38 | 0x0006      |           6 |
|      39 | 0x2430      |        9264 |
|      40 | 0x0008      |           8 |
|      41 | 0x000A      |          10 |
|      42 | 0x000B      |          11 |
|      43 | 0x000C      |          12 |
|      44 | 0x000D      |          13 |
|      45 | 0x000E      |          14 |
|      46 | 0x000F      |          15 |
|      47 | 0x0010      |          16 |
|      48 | 0x0011      |          17 |
|      49 | 0x2428      |        9256 |
|      50 | 0x2429      |        9257 |
|      51 | 0x242A      |        9258 |
|      52 | 0x2424      |        9252 |
|      53 | 0x242C      |        9260 |
|      54 | 0x14EF6     |       85750 |
|      55 | 0xFFFDE578  |  4294829432 |
|      56 | 0xFFFFE890  |  4294961296 |
|      57 | 0x0398      |         920 |
|      58 | 0x140AE     |       82094 |
|      59 | 0xFFFDE731  |  4294829873 |
|      60 | 0x15C4      |        5572 |
|      61 | 0x1AE4      |        6884 |
|      62 | 0x15BA      |        5562 |
|      63 | 0x1AE5      |        6885 |
|      64 | 0x1ACA      |        6858 |
|      65 | 0x1AE6      |        6886 |
|      66 | 0x1000      |        4096 |
|      67 | 0x0267      |         615 |
|      68 | 0x0730      |        1840 |
|      69 | 0x08A5      |        2213 |
|      70 | 0x111A      |        4378 |
|      71 | 0x1AE1      |        6881 |
|      72 | 0x1AE2      |        6882 |
|      73 | 0x1AE3      |        6883 |
|      74 | 0x1C77      |        7287 |
|      75 | 0x1C78      |        7288 |
|      76 | 0x1C79      |        7289 |
|      77 | 0x1C7A      |        7290 |
|      78 | 0x13355     |       78677 |
|      79 | 0xFFFDF485  |  4294833285 |
|      80 | 0x131BC     |       78268 |
|      81 | 0xFFFDEF97  |  4294832023 |
|      82 | 0x13157     |       78167 |
|      83 | 0xFFFDEBC0  |  4294831040 |
|      84 | 0x12E41     |       77377 |
|      85 | 0xFFFDE503  |  4294829315 |
|      86 | 0x1430E     |       82702 |
|      87 | 0xFFFDEDF7  |  4294831607 |

## String References

- **4965**: No matter how many times I come here, the tea always has such an exquisite flavor. This cup is also adorable. I wonder where it was created...
- **4966**: Hm? There's something stuck on it...
- **4967**: <Player> finds a scrap of paper inscribed with the letter "A" on the bottom of Qutiba's cup!
- **6858**: You should be able to gather $0 from the beehives of the Wajaom Woodlands.
- **6881**: First, you need $0... Then mix together $1, $2, $3, and $4...
- **6884**: You can't expect me to give out the recipe for $0 every time you happen to forget it.
- **6885**: If you want to hear it again, you must bring me $0.
- **6886**: You already forgot how to make $0?
- **7287**: Just between you and me, do you feel that there may be something lacking from our fine establishment's cuisine?
- **7288**: I say the culprit is our limited selection of titillating ingredients from Aradjiah and beyond.
- **7289**: I say the culprit is our chef's refusal to step from the boundaries of traditional Aht Urhganian spices.
- **7290**: I hear the customers whisper, but I just cannot see the problem. We use only the finest ingredients....
- **9068**: Don't tell me he's done it again... When it comes to food, the boss just loses his head.
- **9118**: Well, the boss is a master culinarian after all, so I'm sure you'll find him somewhere where there's food.
- **9210**: A hearty welcome into the Epicureans...
- **9229**: We'd like to show our appreciation for your help by teaching you one of our special recipes.
- **9230**: The list of recipes we have created is quite long, but Ulamaal would like to keep them secret, so I will have to give them out bits at a time.
- **9231**: Not much time has passed since I told you the last recipe... I'm sorry, but please wait a bit longer.
- **9232**: Learn a secret recipe? [Yes, please!/Not now.]
- **9233**: A shame... I thought this would be the perfect opportunity to repay you for your kindness. Just ask anytime you would like a recipe!
- **9234**: Listen closely, now. I'm going to teach you the recipe for...oh yes, this is a good one...$0!
- **9236**: All right, got your ink and parchment ready? Here goes... Use $0 on $1, and voila! You're finished!
- **9238**: All right, got your ink and parchment ready? Here goes... First, you will need $0.
- **9240**: Then, just mix together $0 and $1, and voila! Simple as melon pie, right?
- **9242**: All right, got your ink and parchment ready? Here goes... First, you will need $0. Then, just mix together $1, $2, and $3.
- **9244**: You'll have to use four ingredients for this one--$0, $1, $2, and $3.
- **9246**: Ah, you'll also need $0, $1, and $2!
- **9248**: Ah, you'll also need $0, $1, $2, and $3!
- **9250**: I'm sorry, I nearly forgot the last ingredient...$0! That should be all. It's quite a lot, but it should be worth it just to see the look on the person's face who takes the first bite!
- **9252**: It's all up to you now! Give it your best shot!
- **9256**: Unfortunately, you don't seem to have enough skill to make it...
- **9257**: Do you have any friends who can cook? Perhaps you can ask them to help.
- **9258**: Ulamaal wants to keep the recipes a secret, but I personally would like as many people as possible to enjoy Near Eastern cuisine.
- **9260**: This recipe is quite difficult if you have no experience making confections.
- **9264**: Ah, you'll also need $0, $1, and 2 $2!

## Events

### Event 65535

#### Metadata

| Field        | Value   |
|--------------|---------|
| Entrypoint   | 0x0000  |
| Data Size    | 1 bytes |
| Instructions | 1       |

```
      00 01 02 03 04 05 06 07  08 09 0A 0B 0C 0D 0E 0F
      -- -- -- -- -- -- -- --  -- -- -- -- -- -- -- --
0000: 00                                                .               
```

#### Opcodes

```
  0: 0x0000 [0x00] END_REQSTACK()
```

### Event 3092

#### Metadata

| Field        | Value   |
|--------------|---------|
| Entrypoint   | 0x0001  |
| Data Size    | 1 bytes |
| Instructions | 1       |

```
      00 01 02 03 04 05 06 07  08 09 0A 0B 0C 0D 0E 0F
      -- -- -- -- -- -- -- --  -- -- -- -- -- -- -- --
0000:    00                                              .              
```

#### Opcodes

```
  0: 0x0001 [0x00] END_REQSTACK()
```

### Event 797

#### Metadata

| Field        | Value   |
|--------------|---------|
| Entrypoint   | 0x0002  |
| Data Size    | 1 bytes |
| Instructions | 1       |

```
      00 01 02 03 04 05 06 07  08 09 0A 0B 0C 0D 0E 0F
      -- -- -- -- -- -- -- --  -- -- -- -- -- -- -- --
0000:       00                                            .             
```

#### Opcodes

```
  0: 0x0002 [0x00] END_REQSTACK()
```

### Event 514

#### Metadata

| Field        | Value    |
|--------------|----------|
| Entrypoint   | 0x0003   |
| Data Size    | 34 bytes |
| Instructions | 12       |

```
      00 01 02 03 04 05 06 07  08 09 0A 0B 0C 0D 0E 0F
      -- -- -- -- -- -- -- --  -- -- -- -- -- -- -- --
0000:          42 1E F0 FF FF  7F 1C 00 80 1D 01 80 23     B...........#
0010: 6E 01 21 03 01 02 80 99  01 21 03 01 1D 03 80 23  n.!......!.....#
0020: 48 04 80 21 00                                    H..!.           
```

#### Opcodes

```
  0: 0x0003 [0x42] SET_CLI_EVENT_CANCEL_DATA()
  1: 0x0004 [0x1E] EventEntity looks at LocalPlayer and starts talking
  2: 0x0009 [0x1C] WAIT(30* ticks)
  3: 0x000C [0x1D] PRINT_EVENT_MESSAGE(message_id=4965*)
    → "No matter how many times I come here, the tea always has such an exquisite flavor. This cup is also adorable. I wonder where it was created..."
  4: 0x000F [0x23] WAIT_FOR_DIALOG_INTERACTION
  5: 0x0010 [0x6E] Qutiba (ID: 16982273/0x01032101) uses emote 32*
  6: 0x0017 [0x99] Wait for Qutiba (ID: 16982273/0x01032101) animation to complete
  7: 0x001C [0x1D] PRINT_EVENT_MESSAGE(message_id=4966*)
    → "Hm? There's something stuck on it..."
  8: 0x001F [0x23] WAIT_FOR_DIALOG_INTERACTION
  9: 0x0020 [0x48] [System] [4967*]:
    → "<Player> finds a scrap of paper inscribed with the letter "A" on the bottom of Qutiba's cup!"
 10: 0x0023 [0x21] END_EVENT
 11: 0x0024 [0x00] END_REQSTACK()
```

### Event 40

#### Metadata

| Field        | Value   |
|--------------|---------|
| Entrypoint   | 0x0025  |
| Data Size    | 7 bytes |
| Instructions | 2       |

```
      00 01 02 03 04 05 06 07  08 09 0A 0B 0C 0D 0E 0F
      -- -- -- -- -- -- -- --  -- -- -- -- -- -- -- --
0020:                94 01 F8  FF FF 7F 00                   .......    
```

#### Opcodes

```
  0: 0x0025 [0x94] EventEntity->Render.Flags3 ^= 0x01
  1: 0x002B [0x00] END_REQSTACK()
```

### Event 42

#### Metadata

| Field        | Value   |
|--------------|---------|
| Entrypoint   | 0x002C  |
| Data Size    | 7 bytes |
| Instructions | 2       |

```
      00 01 02 03 04 05 06 07  08 09 0A 0B 0C 0D 0E 0F
      -- -- -- -- -- -- -- --  -- -- -- -- -- -- -- --
0020:                                      94 01 F8 FF              ....
0030: FF 7F 00                                          ...             
```

#### Opcodes

```
  0: 0x002C [0x94] EventEntity->Render.Flags3 ^= 0x01
  1: 0x0032 [0x00] END_REQSTACK()
```

### Event 45

#### Metadata

| Field        | Value   |
|--------------|---------|
| Entrypoint   | 0x0033  |
| Data Size    | 7 bytes |
| Instructions | 2       |

```
      00 01 02 03 04 05 06 07  08 09 0A 0B 0C 0D 0E 0F
      -- -- -- -- -- -- -- --  -- -- -- -- -- -- -- --
0030:          94 01 F8 FF FF  7F 00                       .......      
```

#### Opcodes

```
  0: 0x0033 [0x94] EventEntity->Render.Flags3 ^= 0x01
  1: 0x0039 [0x00] END_REQSTACK()
```

### Event 51

#### Metadata

| Field        | Value     |
|--------------|-----------|
| Entrypoint   | 0x003A    |
| Data Size    | 127 bytes |
| Instructions | 19        |

```
      00 01 02 03 04 05 06 07  08 09 0A 0B 0C 0D 0E 0F
      -- -- -- -- -- -- -- --  -- -- -- -- -- -- -- --
0030:                                4A 01 21 03 01 F0            J.!...
0040: FF FF 7F 4A 02 21 03 01  F0 FF FF 7F 2B 01 21 03  ...J.!......+.!.
0050: 01 05 80 23 1C 06 80 66  07 80 01 21 03 01 01 21  ...#...f...!...!
0060: 03 01 74 6C 6B 30 2B 01  21 03 01 08 80 23 66 07  ..tlk0+.!....#f.
0070: 80 01 21 03 01 01 21 03  01 74 6C 6B 31 66 09 80  ..!...!..tlk1f..
0080: 02 21 03 01 02 21 03 01  74 77 62 30 2B 02 21 03  .!...!..twb0+.!.
0090: 01 0A 80 23 6E 01 21 03  01 0B 80 99 01 21 03 01  ...#n.!......!..
00A0: 66 09 80 02 21 03 01 02  21 03 01 74 77 62 31 2B  f...!...!..twb1+
00B0: 01 21 03 01 0C 80 23 21  00                       .!....#!.       
```

#### Opcodes

```
  0: 0x003A [0x4A] Qutiba (ID: 16982273/0x01032101) looks at LocalPlayer
  1: 0x0043 [0x4A] Ulamaal (ID: 16982274/0x01032102) looks at LocalPlayer
  2: 0x004C [0x2B] Qutiba (ID: 16982273/0x01032101) [9054*]:
    → "Well hello, adventurer. We are called the "Epicureans"--devotees to mastering the art of culinary delight."
  3: 0x0053 [0x23] WAIT_FOR_DIALOG_INTERACTION
  4: 0x0054 [0x1C] WAIT(60* ticks)
  5: 0x0057 [0x66] LOAD_EXT_SCHEDULER_MAIN: Load scheduler "tlk0" with entities [Qutiba (ID: 16982273/0x01032101), Qutiba (ID: 16982273/0x01032101)], work=19*
  6: 0x0066 [0x2B] Qutiba (ID: 16982273/0x01032101) [9055*]:
    → "Our leader goes by the moniker "Serpenttongue Maudadt." Do you know of him?"
  7: 0x006D [0x23] WAIT_FOR_DIALOG_INTERACTION
  8: 0x006E [0x66] LOAD_EXT_SCHEDULER_MAIN: Load scheduler "tlk1" with entities [Qutiba (ID: 16982273/0x01032101), Qutiba (ID: 16982273/0x01032101)], work=19*
  9: 0x007D [0x66] LOAD_EXT_SCHEDULER_MAIN: Load scheduler "twb0" with entities [Ulamaal (ID: 16982274/0x01032102), Ulamaal (ID: 16982274/0x01032102)], work=9*
 10: 0x008C [0x2B] Ulamaal (ID: 16982274/0x01032102) [9056*]:
    → "I find it hard to believe that someone does not know of Serpenttongue Maudadt. You are aware of the fact that the rulers of Aht Urhgan are named after serpents, yes?"
 11: 0x0093 [0x23] WAIT_FOR_DIALOG_INTERACTION
 12: 0x0094 [0x6E] Qutiba (ID: 16982273/0x01032101) uses emote 7*
 13: 0x009B [0x99] Wait for Qutiba (ID: 16982273/0x01032101) animation to complete
 14: 0x00A0 [0x66] LOAD_EXT_SCHEDULER_MAIN: Load scheduler "twb1" with entities [Ulamaal (ID: 16982274/0x01032102), Ulamaal (ID: 16982274/0x01032102)], work=9*
 15: 0x00AF [0x2B] Qutiba (ID: 16982273/0x01032101) [9057*]:
    → "Serpenttongue Maudadt rules over Aht Urhgan's cuisine."
 16: 0x00B6 [0x23] WAIT_FOR_DIALOG_INTERACTION
 17: 0x00B7 [0x21] END_EVENT
 18: 0x00B8 [0x00] END_REQSTACK()
```

### Event 52

#### Metadata

| Field        | Value    |
|--------------|----------|
| Entrypoint   | 0x00B9   |
| Data Size    | 33 bytes |
| Instructions | 11       |

```
      00 01 02 03 04 05 06 07  08 09 0A 0B 0C 0D 0E 0F
      -- -- -- -- -- -- -- --  -- -- -- -- -- -- -- --
00B0:                             1E F0 FF FF 7F 6F 70           .....op
00C0: 6E F8 FF FF 7F 0D 80 99  F8 FF FF 7F 99 F8 FF FF  n...............
00D0: 7F 1C 00 80 1D 0E 80 23  21 00                    .......#!.      
```

#### Opcodes

```
  0: 0x00B9 [0x1E] EventEntity looks at LocalPlayer and starts talking
  1: 0x00BE [0x6F] WAIT_FRAME_DELAY: Yield until WaitTime reaches zero
  2: 0x00BF [0x70] WAIT_ENTITY_RENDER_FLAG: Wait while EventEntity->Render.Flags3 bit 2 is set (cancel turn if not)
  3: 0x00C0 [0x6E] EventEntity uses emote 26*
  4: 0x00C7 [0x99] Wait for EventEntity animation to complete
  5: 0x00CC [0x99] Wait for EventEntity animation to complete
  6: 0x00D1 [0x1C] WAIT(30* ticks)
  7: 0x00D4 [0x1D] PRINT_EVENT_MESSAGE(message_id=9068*)
    → "Don't tell me he's done it again... When it comes to food, the boss just loses his head."
  8: 0x00D7 [0x23] WAIT_FOR_DIALOG_INTERACTION
  9: 0x00D8 [0x21] END_EVENT
 10: 0x00D9 [0x00] END_REQSTACK()
```

### Event 54

#### Metadata

| Field        | Value    |
|--------------|----------|
| Entrypoint   | 0x00DA   |
| Data Size    | 96 bytes |
| Instructions | 16       |

```
      00 01 02 03 04 05 06 07  08 09 0A 0B 0C 0D 0E 0F
      -- -- -- -- -- -- -- --  -- -- -- -- -- -- -- --
00D0:                                1E F0 FF FF 7F 6F            .....o
00E0: 70 66 07 80 01 21 03 01  01 21 03 01 74 6C 6B 30  pf...!...!..tlk0
00F0: 1D 0F 80 23 66 07 80 01  21 03 01 01 21 03 01 74  ...#f...!...!..t
0100: 6C 6B 31 4A 02 21 03 01  F0 FF FF 7F 1C 00 80 66  lk1J.!.........f
0110: 09 80 02 21 03 01 02 21  03 01 74 77 62 30 2B 02  ...!...!..twb0+.
0120: 21 03 01 10 80 23 66 09  80 02 21 03 01 02 21 03  !....#f...!...!.
0130: 01 74 77 62 31 1C 00 80  21 00                    .twb1...!.      
```

#### Opcodes

```
  0: 0x00DA [0x1E] EventEntity looks at LocalPlayer and starts talking
  1: 0x00DF [0x6F] WAIT_FRAME_DELAY: Yield until WaitTime reaches zero
  2: 0x00E0 [0x70] WAIT_ENTITY_RENDER_FLAG: Wait while EventEntity->Render.Flags3 bit 2 is set (cancel turn if not)
  3: 0x00E1 [0x66] LOAD_EXT_SCHEDULER_MAIN: Load scheduler "tlk0" with entities [Qutiba (ID: 16982273/0x01032101), Qutiba (ID: 16982273/0x01032101)], work=19*
  4: 0x00F0 [0x1D] PRINT_EVENT_MESSAGE(message_id=9118*)
    → "Well, the boss is a master culinarian after all, so I'm sure you'll find him somewhere where there's food."
  5: 0x00F3 [0x23] WAIT_FOR_DIALOG_INTERACTION
  6: 0x00F4 [0x66] LOAD_EXT_SCHEDULER_MAIN: Load scheduler "tlk1" with entities [Qutiba (ID: 16982273/0x01032101), Qutiba (ID: 16982273/0x01032101)], work=19*
  7: 0x0103 [0x4A] Ulamaal (ID: 16982274/0x01032102) looks at LocalPlayer
  8: 0x010C [0x1C] WAIT(30* ticks)
  9: 0x010F [0x66] LOAD_EXT_SCHEDULER_MAIN: Load scheduler "twb0" with entities [Ulamaal (ID: 16982274/0x01032102), Ulamaal (ID: 16982274/0x01032102)], work=9*
 10: 0x011E [0x2B] Ulamaal (ID: 16982274/0x01032102) [9119*]:
    → "Speaking of which, I think there's a chef from Windurst somewhere in Aht Urhgan Whitegate. Maybe you can get some information from her."
 11: 0x0125 [0x23] WAIT_FOR_DIALOG_INTERACTION
 12: 0x0126 [0x66] LOAD_EXT_SCHEDULER_MAIN: Load scheduler "twb1" with entities [Ulamaal (ID: 16982274/0x01032102), Ulamaal (ID: 16982274/0x01032102)], work=9*
 13: 0x0135 [0x1C] WAIT(30* ticks)
 14: 0x0138 [0x21] END_EVENT
 15: 0x0139 [0x00] END_REQSTACK()
```

### Event 55

#### Metadata

| Field        | Value    |
|--------------|----------|
| Entrypoint   | 0x013A   |
| Data Size    | 13 bytes |
| Instructions | 7        |

```
      00 01 02 03 04 05 06 07  08 09 0A 0B 0C 0D 0E 0F
      -- -- -- -- -- -- -- --  -- -- -- -- -- -- -- --
0130:                                1E F0 FF FF 7F 6F            .....o
0140: 70 1D 11 80 23 21 00                              p...#!.         
```

#### Opcodes

```
  0: 0x013A [0x1E] EventEntity looks at LocalPlayer and starts talking
  1: 0x013F [0x6F] WAIT_FRAME_DELAY: Yield until WaitTime reaches zero
  2: 0x0140 [0x70] WAIT_ENTITY_RENDER_FLAG: Wait while EventEntity->Render.Flags3 bit 2 is set (cancel turn if not)
  3: 0x0141 [0x1D] PRINT_EVENT_MESSAGE(message_id=9210*)
    → "A hearty welcome into the Epicureans..."
  4: 0x0144 [0x23] WAIT_FOR_DIALOG_INTERACTION
  5: 0x0145 [0x21] END_EVENT
  6: 0x0146 [0x00] END_REQSTACK()
```

### Event 57

#### Metadata

| Field        | Value     |
|--------------|-----------|
| Entrypoint   | 0x0147    |
| Data Size    | 827 bytes |
| Instructions | 259       |

```
      00 01 02 03 04 05 06 07  08 09 0A 0B 0C 0D 0E 0F
      -- -- -- -- -- -- -- --  -- -- -- -- -- -- -- --
0140:                      42  1E F0 FF FF 7F 6F 70 1D         B.....op.
0150: 12 80 23 1D 13 80 23 02  09 10 14 80 00 66 01 1D  ..#...#......f..
0160: 15 80 23 01 80 04 24 16  80 17 80 17 80 25 02 00  ..#...$......%..
0170: 10 14 80 00 80 01 1D 18  80 23 01 80 04 01 80 01  .........#......
0180: 03 01 10 14 80 43 00 43  01 93 02 10 1D 19 80 23  .....C.C.......#
0190: 93 17 80 03 01 10 1A 80  43 00 43 01 02 08 10 17  ........C.C.....
01A0: 80 80 BD 01 1D 1B 80 23  03 01 10 1A 80 43 00 43  .......#.....C.C
01B0: 01 03 00 00 04 10 1D 1C  80 23 01 46 04 02 08 10  .........#.F....
01C0: 14 80 80 E7 01 1D 1B 80  23 03 01 10 1A 80 43 00  ........#.....C.
01D0: 43 01 1D 1D 80 23 03 01  10 1A 80 43 00 43 01 03  C....#.....C.C..
01E0: 00 00 02 10 01 46 04 02  08 10 1A 80 80 FB 01 03  .....F..........
01F0: 00 00 04 10 1D 1E 80 23  01 46 04 02 08 10 1F 80  .......#.F......
0200: 80 25 02 1D 20 80 23 03  01 10 1A 80 43 00 43 01  .%.. .#.....C.C.
0210: 1D 21 80 23 03 01 10 1A  80 43 00 43 01 03 00 00  .!.#.....C.C....
0220: 02 10 01 46 04 02 08 10  22 80 80 53 02 1D 20 80  ...F...."..S.. .
0230: 23 03 01 10 1A 80 43 00  43 01 1D 21 80 23 03 01  #.....C.C..!.#..
0240: 10 1A 80 43 00 43 01 03  00 00 03 10 1D 23 80 23  ...C.C.......#.#
0250: 01 46 04 02 08 10 24 80  80 74 02 1D 20 80 23 03  .F....$..t.. .#.
0260: 01 10 1A 80 43 00 43 01  03 00 00 05 10 1D 25 80  ....C.C.......%.
0270: 23 01 46 04 02 08 10 26  80 80 A2 02 1D 20 80 23  #.F....&..... .#
0280: 03 01 10 1A 80 43 00 43  01 1D 27 80 23 03 01 10  .....C.C..'.#...
0290: 1A 80 43 00 43 01 03 00  00 03 10 1D 23 80 23 01  ..C.C.......#.#.
02A0: 46 04 02 08 10 0B 80 80  C3 02 1D 20 80 23 03 01  F.......... .#..
02B0: 10 1A 80 43 00 43 01 03  00 00 05 10 1D 25 80 23  ...C.C.......%.#
02C0: 01 46 04 02 08 10 28 80  80 E0 02 1D 20 80 23 03  .F....(..... .#.
02D0: 01 10 1A 80 43 00 43 01  03 00 00 02 10 01 46 04  ....C.C.......F.
02E0: 02 08 10 09 80 80 0E 03  1D 20 80 23 03 01 10 1A  ......... .#....
02F0: 80 43 00 43 01 1D 21 80  23 03 01 10 1A 80 43 00  .C.C..!.#.....C.
0300: 43 01 03 00 00 03 10 1D  23 80 23 01 46 04 02 08  C.......#.#.F...
0310: 10 29 80 80 2F 03 1D 20  80 23 03 01 10 1A 80 43  .)../.. .#.....C
0320: 00 43 01 03 00 00 05 10  1D 25 80 23 01 46 04 02  .C.......%.#.F..
0330: 08 10 2A 80 80 5D 03 1D  20 80 23 03 01 10 1A 80  ..*..].. .#.....
0340: 43 00 43 01 1D 27 80 23  03 01 10 1A 80 43 00 43  C.C..'.#.....C.C
0350: 01 03 00 00 03 10 1D 23  80 23 01 46 04 02 08 10  .......#.#.F....
0360: 2B 80 80 8B 03 1D 20 80  23 03 01 10 1A 80 43 00  +..... .#.....C.
0370: 43 01 1D 21 80 23 03 01  10 1A 80 43 00 43 01 03  C..!.#.....C.C..
0380: 00 00 03 10 1D 23 80 23  01 46 04 02 08 10 2C 80  .....#.#.F....,.
0390: 80 9F 03 03 00 00 04 10  1D 1E 80 23 01 46 04 02  ...........#.F..
03A0: 08 10 2D 80 80 BC 03 1D  20 80 23 03 01 10 1A 80  ..-..... .#.....
03B0: 43 00 43 01 03 00 00 02  10 01 46 04 02 08 10 2E  C.C.......F.....
03C0: 80 80 EA 03 1D 20 80 23  03 01 10 1A 80 43 00 43  ..... .#.....C.C
03D0: 01 1D 21 80 23 03 01 10  1A 80 43 00 43 01 03 00  ..!.#.....C.C...
03E0: 00 03 10 1D 23 80 23 01  46 04 02 08 10 2F 80 80  ....#.#.F..../..
03F0: 18 04 1D 20 80 23 03 01  10 1A 80 43 00 43 01 1D  ... .#.....C.C..
0400: 21 80 23 03 01 10 1A 80  43 00 43 01 03 00 00 03  !.#.....C.C.....
0410: 10 1D 23 80 23 01 46 04  02 08 10 30 80 80 46 04  ..#.#.F....0..F.
0420: 1D 20 80 23 03 01 10 1A  80 43 00 43 01 1D 21 80  . .#.....C.C..!.
0430: 23 03 01 10 1A 80 43 00  43 01 03 00 00 03 10 1D  #.....C.C.......
0440: 23 80 23 01 46 04 02 00  00 17 80 80 5D 04 1D 31  #.#.F.......]..1
0450: 80 23 1D 32 80 23 1D 33  80 23 01 7B 04 02 00 00  .#.2.#.3.#.{....
0460: 14 80 80 6C 04 1D 34 80  23 01 7B 04 02 00 00 1A  ...l..4.#.{.....
0470: 80 80 7B 04 1D 35 80 23  01 7B 04 03 01 10 1F 80  ..{..5.#.{......
0480: 21 00                                             !.              
```

#### Opcodes

```
  0: 0x0147 [0x42] SET_CLI_EVENT_CANCEL_DATA()
  1: 0x0148 [0x1E] EventEntity looks at LocalPlayer and starts talking
  2: 0x014D [0x6F] WAIT_FRAME_DELAY: Yield until WaitTime reaches zero
  3: 0x014E [0x70] WAIT_ENTITY_RENDER_FLAG: Wait while EventEntity->Render.Flags3 bit 2 is set (cancel turn if not)
  4: 0x014F [0x1D] PRINT_EVENT_MESSAGE(message_id=9229*)
    → "We'd like to show our appreciation for your help by teaching you one of our special recipes."
  5: 0x0152 [0x23] WAIT_FOR_DIALOG_INTERACTION
  6: 0x0153 [0x1D] PRINT_EVENT_MESSAGE(message_id=9230*)
    → "The list of recipes we have created is quite long, but Ulamaal would like to keep them secret, so I will have to give them out bits at a time."
  7: 0x0156 [0x23] WAIT_FOR_DIALOG_INTERACTION
  8: 0x0157 [0x02] IF !(Work_Zone[9] == 1*) GOTO 0x0166
  9: 0x015F [0x1D] PRINT_EVENT_MESSAGE(message_id=9231*)
    → "Not much time has passed since I told you the last recipe... I'm sorry, but please wait a bit longer."
 10: 0x0162 [0x23] WAIT_FOR_DIALOG_INTERACTION
 11: 0x0163 [0x01] GOTO 0x0480
 12: 0x0166 [0x24] CREATE_DIALOG(message_id=9232*, default_option=0*, option_flags=0*)
    → "Learn a secret recipe? [Yes, please!/Not now.]"
 13: 0x016D [0x25] WAIT_DIALOG_SELECT()
 14: 0x016E [0x02] IF !(Work_Zone[0] == 1*) GOTO 0x0180
 15: 0x0176 [0x1D] PRINT_EVENT_MESSAGE(message_id=9233*)
    → "A shame... I thought this would be the perfect opportunity to repay you for your kindness. Just ask anytime you would like a recipe!"
 16: 0x0179 [0x23] WAIT_FOR_DIALOG_INTERACTION
 17: 0x017A [0x01] GOTO 0x0480

SUBROUTINE_0180:
 18: 0x0180 [0x03] Work_Zone[1] = 1*
 19: 0x0185 [0x43] SEND_EVENT_UPDATE: Send pending tag to server (packet 0x005B)
 20: 0x0187 [0x43] SEND_EVENT_UPDATE: Check pending flag (skip if not pending)
 21: 0x0189 [0x93] DISPLAY_ITEM_INFO(item_id=Work_Zone[2])
 22: 0x018C [0x1D] PRINT_EVENT_MESSAGE(message_id=9234*)
    → "Listen closely, now. I'm going to teach you the recipe for...oh yes, this is a good one...$0!"
 23: 0x018F [0x23] WAIT_FOR_DIALOG_INTERACTION
 24: 0x0190 [0x93] DISPLAY_ITEM_INFO(item_id=0*)
 25: 0x0193 [0x03] Work_Zone[1] = 2*
 26: 0x0198 [0x43] SEND_EVENT_UPDATE: Send pending tag to server (packet 0x005B)
 27: 0x019A [0x43] SEND_EVENT_UPDATE: Check pending flag (skip if not pending)
 28: 0x019C [0x02] IF !(Work_Zone[8] == 0*) GOTO 0x01BD
 29: 0x01A4 [0x1D] PRINT_EVENT_MESSAGE(message_id=9238*)
    → "All right, got your ink and parchment ready? Here goes... First, you will need $0."
 30: 0x01A7 [0x23] WAIT_FOR_DIALOG_INTERACTION
 31: 0x01A8 [0x03] Work_Zone[1] = 2*
 32: 0x01AD [0x43] SEND_EVENT_UPDATE: Send pending tag to server (packet 0x005B)
 33: 0x01AF [0x43] SEND_EVENT_UPDATE: Check pending flag (skip if not pending)
 34: 0x01B1 [0x03] ExtData[1]->WorkLocal[0] = Work_Zone[4]
 35: 0x01B6 [0x1D] PRINT_EVENT_MESSAGE(message_id=9240*)
    → "Then, just mix together $0 and $1, and voila! Simple as melon pie, right?"
 36: 0x01B9 [0x23] WAIT_FOR_DIALOG_INTERACTION
 37: 0x01BA [0x01] GOTO 0x0446
 38: 0x01BD [0x02] IF !(Work_Zone[8] == 1*) GOTO 0x01E7
 39: 0x01C5 [0x1D] PRINT_EVENT_MESSAGE(message_id=9238*)
    → "All right, got your ink and parchment ready? Here goes... First, you will need $0."
 40: 0x01C8 [0x23] WAIT_FOR_DIALOG_INTERACTION
 41: 0x01C9 [0x03] Work_Zone[1] = 2*
 42: 0x01CE [0x43] SEND_EVENT_UPDATE: Send pending tag to server (packet 0x005B)
 43: 0x01D0 [0x43] SEND_EVENT_UPDATE: Check pending flag (skip if not pending)
 44: 0x01D2 [0x1D] PRINT_EVENT_MESSAGE(message_id=9244*)
    → "You'll have to use four ingredients for this one--$0, $1, $2, and $3."
 45: 0x01D5 [0x23] WAIT_FOR_DIALOG_INTERACTION
 46: 0x01D6 [0x03] Work_Zone[1] = 2*
 47: 0x01DB [0x43] SEND_EVENT_UPDATE: Send pending tag to server (packet 0x005B)
 48: 0x01DD [0x43] SEND_EVENT_UPDATE: Check pending flag (skip if not pending)
 49: 0x01DF [0x03] ExtData[1]->WorkLocal[0] = Work_Zone[2]
 50: 0x01E4 [0x01] GOTO 0x0446
 51: 0x01E7 [0x02] IF !(Work_Zone[8] == 2*) GOTO 0x01FB
 52: 0x01EF [0x03] ExtData[1]->WorkLocal[0] = Work_Zone[4]
 53: 0x01F4 [0x1D] PRINT_EVENT_MESSAGE(message_id=9236*)
    → "All right, got your ink and parchment ready? Here goes... Use $0 on $1, and voila! You're finished!"
 54: 0x01F7 [0x23] WAIT_FOR_DIALOG_INTERACTION
 55: 0x01F8 [0x01] GOTO 0x0446
 56: 0x01FB [0x02] IF !(Work_Zone[8] == 3*) GOTO 0x0225
 57: 0x0203 [0x1D] PRINT_EVENT_MESSAGE(message_id=9242*)
    → "All right, got your ink and parchment ready? Here goes... First, you will need $0. Then, just mix together $1, $2, and $3."
 58: 0x0206 [0x23] WAIT_FOR_DIALOG_INTERACTION
 59: 0x0207 [0x03] Work_Zone[1] = 2*
 60: 0x020C [0x43] SEND_EVENT_UPDATE: Send pending tag to server (packet 0x005B)
 61: 0x020E [0x43] SEND_EVENT_UPDATE: Check pending flag (skip if not pending)
 62: 0x0210 [0x1D] PRINT_EVENT_MESSAGE(message_id=9248*)
    → "Ah, you'll also need $0, $1, $2, and $3!"
 63: 0x0213 [0x23] WAIT_FOR_DIALOG_INTERACTION
 64: 0x0214 [0x03] Work_Zone[1] = 2*
 65: 0x0219 [0x43] SEND_EVENT_UPDATE: Send pending tag to server (packet 0x005B)
 66: 0x021B [0x43] SEND_EVENT_UPDATE: Check pending flag (skip if not pending)
 67: 0x021D [0x03] ExtData[1]->WorkLocal[0] = Work_Zone[2]
 68: 0x0222 [0x01] GOTO 0x0446
 69: 0x0225 [0x02] IF !(Work_Zone[8] == 4*) GOTO 0x0253
 70: 0x022D [0x1D] PRINT_EVENT_MESSAGE(message_id=9242*)
    → "All right, got your ink and parchment ready? Here goes... First, you will need $0. Then, just mix together $1, $2, and $3."
 71: 0x0230 [0x23] WAIT_FOR_DIALOG_INTERACTION
 72: 0x0231 [0x03] Work_Zone[1] = 2*
 73: 0x0236 [0x43] SEND_EVENT_UPDATE: Send pending tag to server (packet 0x005B)
 74: 0x0238 [0x43] SEND_EVENT_UPDATE: Check pending flag (skip if not pending)
 75: 0x023A [0x1D] PRINT_EVENT_MESSAGE(message_id=9248*)
    → "Ah, you'll also need $0, $1, $2, and $3!"
 76: 0x023D [0x23] WAIT_FOR_DIALOG_INTERACTION
 77: 0x023E [0x03] Work_Zone[1] = 2*
 78: 0x0243 [0x43] SEND_EVENT_UPDATE: Send pending tag to server (packet 0x005B)
 79: 0x0245 [0x43] SEND_EVENT_UPDATE: Check pending flag (skip if not pending)
 80: 0x0247 [0x03] ExtData[1]->WorkLocal[0] = Work_Zone[3]
 81: 0x024C [0x1D] PRINT_EVENT_MESSAGE(message_id=9250*)
    → "I'm sorry, I nearly forgot the last ingredient...$0! That should be all. It's quite a lot, but it should be worth it just to see the look on the person's face who takes the first bite!"
 82: 0x024F [0x23] WAIT_FOR_DIALOG_INTERACTION
 83: 0x0250 [0x01] GOTO 0x0446
 84: 0x0253 [0x02] IF !(Work_Zone[8] == 5*) GOTO 0x0274
 85: 0x025B [0x1D] PRINT_EVENT_MESSAGE(message_id=9242*)
    → "All right, got your ink and parchment ready? Here goes... First, you will need $0. Then, just mix together $1, $2, and $3."
 86: 0x025E [0x23] WAIT_FOR_DIALOG_INTERACTION
 87: 0x025F [0x03] Work_Zone[1] = 2*
 88: 0x0264 [0x43] SEND_EVENT_UPDATE: Send pending tag to server (packet 0x005B)
 89: 0x0266 [0x43] SEND_EVENT_UPDATE: Check pending flag (skip if not pending)
 90: 0x0268 [0x03] ExtData[1]->WorkLocal[0] = Work_Zone[5]
 91: 0x026D [0x1D] PRINT_EVENT_MESSAGE(message_id=9246*)
    → "Ah, you'll also need $0, $1, and $2!"
 92: 0x0270 [0x23] WAIT_FOR_DIALOG_INTERACTION
 93: 0x0271 [0x01] GOTO 0x0446
 94: 0x0274 [0x02] IF !(Work_Zone[8] == 6*) GOTO 0x02A2
 95: 0x027C [0x1D] PRINT_EVENT_MESSAGE(message_id=9242*)
    → "All right, got your ink and parchment ready? Here goes... First, you will need $0. Then, just mix together $1, $2, and $3."
 96: 0x027F [0x23] WAIT_FOR_DIALOG_INTERACTION
 97: 0x0280 [0x03] Work_Zone[1] = 2*
 98: 0x0285 [0x43] SEND_EVENT_UPDATE: Send pending tag to server (packet 0x005B)
 99: 0x0287 [0x43] SEND_EVENT_UPDATE: Check pending flag (skip if not pending)
100: 0x0289 [0x1D] PRINT_EVENT_MESSAGE(message_id=9264*)
    → "Ah, you'll also need $0, $1, and 2 $2!"
101: 0x028C [0x23] WAIT_FOR_DIALOG_INTERACTION
102: 0x028D [0x03] Work_Zone[1] = 2*
103: 0x0292 [0x43] SEND_EVENT_UPDATE: Send pending tag to server (packet 0x005B)
104: 0x0294 [0x43] SEND_EVENT_UPDATE: Check pending flag (skip if not pending)
105: 0x0296 [0x03] ExtData[1]->WorkLocal[0] = Work_Zone[3]
106: 0x029B [0x1D] PRINT_EVENT_MESSAGE(message_id=9250*)
    → "I'm sorry, I nearly forgot the last ingredient...$0! That should be all. It's quite a lot, but it should be worth it just to see the look on the person's face who takes the first bite!"
107: 0x029E [0x23] WAIT_FOR_DIALOG_INTERACTION
108: 0x029F [0x01] GOTO 0x0446
109: 0x02A2 [0x02] IF !(Work_Zone[8] == 7*) GOTO 0x02C3
110: 0x02AA [0x1D] PRINT_EVENT_MESSAGE(message_id=9242*)
    → "All right, got your ink and parchment ready? Here goes... First, you will need $0. Then, just mix together $1, $2, and $3."
111: 0x02AD [0x23] WAIT_FOR_DIALOG_INTERACTION
112: 0x02AE [0x03] Work_Zone[1] = 2*
113: 0x02B3 [0x43] SEND_EVENT_UPDATE: Send pending tag to server (packet 0x005B)
114: 0x02B5 [0x43] SEND_EVENT_UPDATE: Check pending flag (skip if not pending)
115: 0x02B7 [0x03] ExtData[1]->WorkLocal[0] = Work_Zone[5]
116: 0x02BC [0x1D] PRINT_EVENT_MESSAGE(message_id=9246*)
    → "Ah, you'll also need $0, $1, and $2!"
117: 0x02BF [0x23] WAIT_FOR_DIALOG_INTERACTION
118: 0x02C0 [0x01] GOTO 0x0446
119: 0x02C3 [0x02] IF !(Work_Zone[8] == 8*) GOTO 0x02E0
120: 0x02CB [0x1D] PRINT_EVENT_MESSAGE(message_id=9242*)
    → "All right, got your ink and parchment ready? Here goes... First, you will need $0. Then, just mix together $1, $2, and $3."
121: 0x02CE [0x23] WAIT_FOR_DIALOG_INTERACTION
122: 0x02CF [0x03] Work_Zone[1] = 2*
123: 0x02D4 [0x43] SEND_EVENT_UPDATE: Send pending tag to server (packet 0x005B)
124: 0x02D6 [0x43] SEND_EVENT_UPDATE: Check pending flag (skip if not pending)
125: 0x02D8 [0x03] ExtData[1]->WorkLocal[0] = Work_Zone[2]
126: 0x02DD [0x01] GOTO 0x0446
127: 0x02E0 [0x02] IF !(Work_Zone[8] == 9*) GOTO 0x030E
128: 0x02E8 [0x1D] PRINT_EVENT_MESSAGE(message_id=9242*)
    → "All right, got your ink and parchment ready? Here goes... First, you will need $0. Then, just mix together $1, $2, and $3."
129: 0x02EB [0x23] WAIT_FOR_DIALOG_INTERACTION
130: 0x02EC [0x03] Work_Zone[1] = 2*
131: 0x02F1 [0x43] SEND_EVENT_UPDATE: Send pending tag to server (packet 0x005B)
132: 0x02F3 [0x43] SEND_EVENT_UPDATE: Check pending flag (skip if not pending)
133: 0x02F5 [0x1D] PRINT_EVENT_MESSAGE(message_id=9248*)
    → "Ah, you'll also need $0, $1, $2, and $3!"
134: 0x02F8 [0x23] WAIT_FOR_DIALOG_INTERACTION
135: 0x02F9 [0x03] Work_Zone[1] = 2*
136: 0x02FE [0x43] SEND_EVENT_UPDATE: Send pending tag to server (packet 0x005B)
137: 0x0300 [0x43] SEND_EVENT_UPDATE: Check pending flag (skip if not pending)
138: 0x0302 [0x03] ExtData[1]->WorkLocal[0] = Work_Zone[3]
139: 0x0307 [0x1D] PRINT_EVENT_MESSAGE(message_id=9250*)
    → "I'm sorry, I nearly forgot the last ingredient...$0! That should be all. It's quite a lot, but it should be worth it just to see the look on the person's face who takes the first bite!"
140: 0x030A [0x23] WAIT_FOR_DIALOG_INTERACTION
141: 0x030B [0x01] GOTO 0x0446
142: 0x030E [0x02] IF !(Work_Zone[8] == 10*) GOTO 0x032F
143: 0x0316 [0x1D] PRINT_EVENT_MESSAGE(message_id=9242*)
    → "All right, got your ink and parchment ready? Here goes... First, you will need $0. Then, just mix together $1, $2, and $3."
144: 0x0319 [0x23] WAIT_FOR_DIALOG_INTERACTION
145: 0x031A [0x03] Work_Zone[1] = 2*
146: 0x031F [0x43] SEND_EVENT_UPDATE: Send pending tag to server (packet 0x005B)
147: 0x0321 [0x43] SEND_EVENT_UPDATE: Check pending flag (skip if not pending)
148: 0x0323 [0x03] ExtData[1]->WorkLocal[0] = Work_Zone[5]
149: 0x0328 [0x1D] PRINT_EVENT_MESSAGE(message_id=9246*)
    → "Ah, you'll also need $0, $1, and $2!"
150: 0x032B [0x23] WAIT_FOR_DIALOG_INTERACTION
151: 0x032C [0x01] GOTO 0x0446
152: 0x032F [0x02] IF !(Work_Zone[8] == 11*) GOTO 0x035D
153: 0x0337 [0x1D] PRINT_EVENT_MESSAGE(message_id=9242*)
    → "All right, got your ink and parchment ready? Here goes... First, you will need $0. Then, just mix together $1, $2, and $3."
154: 0x033A [0x23] WAIT_FOR_DIALOG_INTERACTION
155: 0x033B [0x03] Work_Zone[1] = 2*
156: 0x0340 [0x43] SEND_EVENT_UPDATE: Send pending tag to server (packet 0x005B)
157: 0x0342 [0x43] SEND_EVENT_UPDATE: Check pending flag (skip if not pending)
158: 0x0344 [0x1D] PRINT_EVENT_MESSAGE(message_id=9264*)
    → "Ah, you'll also need $0, $1, and 2 $2!"
159: 0x0347 [0x23] WAIT_FOR_DIALOG_INTERACTION
160: 0x0348 [0x03] Work_Zone[1] = 2*
161: 0x034D [0x43] SEND_EVENT_UPDATE: Send pending tag to server (packet 0x005B)
162: 0x034F [0x43] SEND_EVENT_UPDATE: Check pending flag (skip if not pending)
163: 0x0351 [0x03] ExtData[1]->WorkLocal[0] = Work_Zone[3]
164: 0x0356 [0x1D] PRINT_EVENT_MESSAGE(message_id=9250*)
    → "I'm sorry, I nearly forgot the last ingredient...$0! That should be all. It's quite a lot, but it should be worth it just to see the look on the person's face who takes the first bite!"
165: 0x0359 [0x23] WAIT_FOR_DIALOG_INTERACTION
166: 0x035A [0x01] GOTO 0x0446
167: 0x035D [0x02] IF !(Work_Zone[8] == 12*) GOTO 0x038B
168: 0x0365 [0x1D] PRINT_EVENT_MESSAGE(message_id=9242*)
    → "All right, got your ink and parchment ready? Here goes... First, you will need $0. Then, just mix together $1, $2, and $3."
169: 0x0368 [0x23] WAIT_FOR_DIALOG_INTERACTION
170: 0x0369 [0x03] Work_Zone[1] = 2*
171: 0x036E [0x43] SEND_EVENT_UPDATE: Send pending tag to server (packet 0x005B)
172: 0x0370 [0x43] SEND_EVENT_UPDATE: Check pending flag (skip if not pending)
173: 0x0372 [0x1D] PRINT_EVENT_MESSAGE(message_id=9248*)
    → "Ah, you'll also need $0, $1, $2, and $3!"
174: 0x0375 [0x23] WAIT_FOR_DIALOG_INTERACTION
175: 0x0376 [0x03] Work_Zone[1] = 2*
176: 0x037B [0x43] SEND_EVENT_UPDATE: Send pending tag to server (packet 0x005B)
177: 0x037D [0x43] SEND_EVENT_UPDATE: Check pending flag (skip if not pending)
178: 0x037F [0x03] ExtData[1]->WorkLocal[0] = Work_Zone[3]
179: 0x0384 [0x1D] PRINT_EVENT_MESSAGE(message_id=9250*)
    → "I'm sorry, I nearly forgot the last ingredient...$0! That should be all. It's quite a lot, but it should be worth it just to see the look on the person's face who takes the first bite!"
180: 0x0387 [0x23] WAIT_FOR_DIALOG_INTERACTION
181: 0x0388 [0x01] GOTO 0x0446
182: 0x038B [0x02] IF !(Work_Zone[8] == 13*) GOTO 0x039F
183: 0x0393 [0x03] ExtData[1]->WorkLocal[0] = Work_Zone[4]
184: 0x0398 [0x1D] PRINT_EVENT_MESSAGE(message_id=9236*)
    → "All right, got your ink and parchment ready? Here goes... Use $0 on $1, and voila! You're finished!"
185: 0x039B [0x23] WAIT_FOR_DIALOG_INTERACTION
186: 0x039C [0x01] GOTO 0x0446
187: 0x039F [0x02] IF !(Work_Zone[8] == 14*) GOTO 0x03BC
188: 0x03A7 [0x1D] PRINT_EVENT_MESSAGE(message_id=9242*)
    → "All right, got your ink and parchment ready? Here goes... First, you will need $0. Then, just mix together $1, $2, and $3."
189: 0x03AA [0x23] WAIT_FOR_DIALOG_INTERACTION
190: 0x03AB [0x03] Work_Zone[1] = 2*
191: 0x03B0 [0x43] SEND_EVENT_UPDATE: Send pending tag to server (packet 0x005B)
192: 0x03B2 [0x43] SEND_EVENT_UPDATE: Check pending flag (skip if not pending)
193: 0x03B4 [0x03] ExtData[1]->WorkLocal[0] = Work_Zone[2]
194: 0x03B9 [0x01] GOTO 0x0446
195: 0x03BC [0x02] IF !(Work_Zone[8] == 15*) GOTO 0x03EA
196: 0x03C4 [0x1D] PRINT_EVENT_MESSAGE(message_id=9242*)
    → "All right, got your ink and parchment ready? Here goes... First, you will need $0. Then, just mix together $1, $2, and $3."
197: 0x03C7 [0x23] WAIT_FOR_DIALOG_INTERACTION
198: 0x03C8 [0x03] Work_Zone[1] = 2*
199: 0x03CD [0x43] SEND_EVENT_UPDATE: Send pending tag to server (packet 0x005B)
200: 0x03CF [0x43] SEND_EVENT_UPDATE: Check pending flag (skip if not pending)
201: 0x03D1 [0x1D] PRINT_EVENT_MESSAGE(message_id=9248*)
    → "Ah, you'll also need $0, $1, $2, and $3!"
202: 0x03D4 [0x23] WAIT_FOR_DIALOG_INTERACTION
203: 0x03D5 [0x03] Work_Zone[1] = 2*
204: 0x03DA [0x43] SEND_EVENT_UPDATE: Send pending tag to server (packet 0x005B)
205: 0x03DC [0x43] SEND_EVENT_UPDATE: Check pending flag (skip if not pending)
206: 0x03DE [0x03] ExtData[1]->WorkLocal[0] = Work_Zone[3]
207: 0x03E3 [0x1D] PRINT_EVENT_MESSAGE(message_id=9250*)
    → "I'm sorry, I nearly forgot the last ingredient...$0! That should be all. It's quite a lot, but it should be worth it just to see the look on the person's face who takes the first bite!"
208: 0x03E6 [0x23] WAIT_FOR_DIALOG_INTERACTION
209: 0x03E7 [0x01] GOTO 0x0446
210: 0x03EA [0x02] IF !(Work_Zone[8] == 16*) GOTO 0x0418
211: 0x03F2 [0x1D] PRINT_EVENT_MESSAGE(message_id=9242*)
    → "All right, got your ink and parchment ready? Here goes... First, you will need $0. Then, just mix together $1, $2, and $3."
212: 0x03F5 [0x23] WAIT_FOR_DIALOG_INTERACTION
213: 0x03F6 [0x03] Work_Zone[1] = 2*
214: 0x03FB [0x43] SEND_EVENT_UPDATE: Send pending tag to server (packet 0x005B)
215: 0x03FD [0x43] SEND_EVENT_UPDATE: Check pending flag (skip if not pending)
216: 0x03FF [0x1D] PRINT_EVENT_MESSAGE(message_id=9248*)
    → "Ah, you'll also need $0, $1, $2, and $3!"
217: 0x0402 [0x23] WAIT_FOR_DIALOG_INTERACTION
218: 0x0403 [0x03] Work_Zone[1] = 2*
219: 0x0408 [0x43] SEND_EVENT_UPDATE: Send pending tag to server (packet 0x005B)
220: 0x040A [0x43] SEND_EVENT_UPDATE: Check pending flag (skip if not pending)
221: 0x040C [0x03] ExtData[1]->WorkLocal[0] = Work_Zone[3]
222: 0x0411 [0x1D] PRINT_EVENT_MESSAGE(message_id=9250*)
    → "I'm sorry, I nearly forgot the last ingredient...$0! That should be all. It's quite a lot, but it should be worth it just to see the look on the person's face who takes the first bite!"
223: 0x0414 [0x23] WAIT_FOR_DIALOG_INTERACTION
224: 0x0415 [0x01] GOTO 0x0446
225: 0x0418 [0x02] IF !(Work_Zone[8] == 17*) GOTO 0x0446
226: 0x0420 [0x1D] PRINT_EVENT_MESSAGE(message_id=9242*)
    → "All right, got your ink and parchment ready? Here goes... First, you will need $0. Then, just mix together $1, $2, and $3."
227: 0x0423 [0x23] WAIT_FOR_DIALOG_INTERACTION
228: 0x0424 [0x03] Work_Zone[1] = 2*
229: 0x0429 [0x43] SEND_EVENT_UPDATE: Send pending tag to server (packet 0x005B)
230: 0x042B [0x43] SEND_EVENT_UPDATE: Check pending flag (skip if not pending)
231: 0x042D [0x1D] PRINT_EVENT_MESSAGE(message_id=9248*)
    → "Ah, you'll also need $0, $1, $2, and $3!"
232: 0x0430 [0x23] WAIT_FOR_DIALOG_INTERACTION
233: 0x0431 [0x03] Work_Zone[1] = 2*
234: 0x0436 [0x43] SEND_EVENT_UPDATE: Send pending tag to server (packet 0x005B)
235: 0x0438 [0x43] SEND_EVENT_UPDATE: Check pending flag (skip if not pending)
236: 0x043A [0x03] ExtData[1]->WorkLocal[0] = Work_Zone[3]
237: 0x043F [0x1D] PRINT_EVENT_MESSAGE(message_id=9250*)
    → "I'm sorry, I nearly forgot the last ingredient...$0! That should be all. It's quite a lot, but it should be worth it just to see the look on the person's face who takes the first bite!"
238: 0x0442 [0x23] WAIT_FOR_DIALOG_INTERACTION
239: 0x0443 [0x01] GOTO 0x0446

SUBROUTINE_0446:
240: 0x0446 [0x02] IF !(ExtData[1]->WorkLocal[0] == 0*) GOTO 0x045D
241: 0x044E [0x1D] PRINT_EVENT_MESSAGE(message_id=9256*)
    → "Unfortunately, you don't seem to have enough skill to make it..."
242: 0x0451 [0x23] WAIT_FOR_DIALOG_INTERACTION
243: 0x0452 [0x1D] PRINT_EVENT_MESSAGE(message_id=9257*)
    → "Do you have any friends who can cook? Perhaps you can ask them to help."
244: 0x0455 [0x23] WAIT_FOR_DIALOG_INTERACTION
245: 0x0456 [0x1D] PRINT_EVENT_MESSAGE(message_id=9258*)
    → "Ulamaal wants to keep the recipes a secret, but I personally would like as many people as possible to enjoy Near Eastern cuisine."
246: 0x0459 [0x23] WAIT_FOR_DIALOG_INTERACTION
247: 0x045A [0x01] GOTO 0x047B
248: 0x045D [0x02] IF !(ExtData[1]->WorkLocal[0] == 1*) GOTO 0x046C
249: 0x0465 [0x1D] PRINT_EVENT_MESSAGE(message_id=9252*)
    → "It's all up to you now! Give it your best shot!"
250: 0x0468 [0x23] WAIT_FOR_DIALOG_INTERACTION
251: 0x0469 [0x01] GOTO 0x047B
252: 0x046C [0x02] IF !(ExtData[1]->WorkLocal[0] == 2*) GOTO 0x047B
253: 0x0474 [0x1D] PRINT_EVENT_MESSAGE(message_id=9260*)
    → "This recipe is quite difficult if you have no experience making confections."
254: 0x0477 [0x23] WAIT_FOR_DIALOG_INTERACTION
255: 0x0478 [0x01] GOTO 0x047B

SUBROUTINE_047B:
256: 0x047B [0x03] Work_Zone[1] = 3*

SUBROUTINE_0480:
257: 0x0480 [0x21] END_EVENT
258: 0x0481 [0x00] END_REQSTACK()
```

#### Data or dead code:

```
# Dead code (unreachable instructions):
     0x017D [0x01] GOTO 0x0180
```

### Event 579

#### Metadata

| Field        | Value   |
|--------------|---------|
| Entrypoint   | 0x0482  |
| Data Size    | 1 bytes |
| Instructions | 1       |

```
      00 01 02 03 04 05 06 07  08 09 0A 0B 0C 0D 0E 0F
      -- -- -- -- -- -- -- --  -- -- -- -- -- -- -- --
0480:       00                                            .             
```

#### Opcodes

```
  0: 0x0482 [0x00] END_REQSTACK()
```

### Event 580

#### Metadata

| Field        | Value   |
|--------------|---------|
| Entrypoint   | 0x0483  |
| Data Size    | 1 bytes |
| Instructions | 1       |

```
      00 01 02 03 04 05 06 07  08 09 0A 0B 0C 0D 0E 0F
      -- -- -- -- -- -- -- --  -- -- -- -- -- -- -- --
0480:          00                                          .            
```

#### Opcodes

```
  0: 0x0483 [0x00] END_REQSTACK()
```

### Event 65535.1

#### Metadata

| Field        | Value    |
|--------------|----------|
| Entrypoint   | 0x0484   |
| Data Size    | 15 bytes |
| Instructions | 3        |

```
      00 01 02 03 04 05 06 07  08 09 0A 0B 0C 0D 0E 0F
      -- -- -- -- -- -- -- --  -- -- -- -- -- -- -- --
0480:             37 36 80 37  80 38 80 39 80 80 F8 FF      76.7.8.9....
0490: FF 7F 00                                          ...             
```

#### Opcodes

```
  0: 0x0484 [0x37] UPDATE_EVENT_POSITION_AND_DIR: x=85.750*, z=-137.864*, y=-6.000*, direction=80.9°*
  1: 0x048D [0x80] LOAD_WAIT(entity=EventEntity)
  2: 0x0492 [0x00] END_REQSTACK()
```

### Event 65535.2

#### Metadata

| Field        | Value    |
|--------------|----------|
| Entrypoint   | 0x0493   |
| Data Size    | 19 bytes |
| Instructions | 5        |

```
      00 01 02 03 04 05 06 07  08 09 0A 0B 0C 0D 0E 0F
      -- -- -- -- -- -- -- --  -- -- -- -- -- -- -- --
0490:          32 2C 80 1F 00  3A 80 3B 80 38 80 1F 01     2,...:.;.8...
04A0: 1E 02 21 03 01 00                                 ..!...          
```

#### Opcodes

```
  0: 0x0493 [0x32] ExtData[1]->MainSpeed = 13* * 0.1
  1: 0x0496 [0x1F] MOVE_ENTITY: EventEntity moves to X=82.094*, Z=-137.423*, Y=-6.000*
  2: 0x049E [0x1F] MOVE_ENTITY: Update entity position (mode=1)
  3: 0x04A0 [0x1E] EventEntity looks at Ulamaal (ID: 16982274/0x01032102) and starts talking
  4: 0x04A5 [0x00] END_REQSTACK()
```

### Event 585

#### Metadata

| Field        | Value    |
|--------------|----------|
| Entrypoint   | 0x04A6   |
| Data Size    | 63 bytes |
| Instructions | 16       |

```
      00 01 02 03 04 05 06 07  08 09 0A 0B 0C 0D 0E 0F
      -- -- -- -- -- -- -- --  -- -- -- -- -- -- -- --
04A0:                   1E F0  FF FF 7F 1C 00 80 66 07        ........f.
04B0: 80 01 21 03 01 01 21 03  01 74 6C 6B 30 02 03 10  ..!...!..tlk0...
04C0: 14 80 00 DA 04 03 02 10  3C 80 1D 3D 80 23 03 02  ........<..=.#..
04D0: 10 3E 80 1D 3F 80 23 01  E3 04 03 02 10 3E 80 1D  .>..?.#......>..
04E0: 40 80 23 21 00                                    @.#!.           
```

#### Opcodes

```
  0: 0x04A6 [0x1E] EventEntity looks at LocalPlayer and starts talking
  1: 0x04AB [0x1C] WAIT(30* ticks)
  2: 0x04AE [0x66] LOAD_EXT_SCHEDULER_MAIN: Load scheduler "tlk0" with entities [Qutiba (ID: 16982273/0x01032101), Qutiba (ID: 16982273/0x01032101)], work=19*
  3: 0x04BD [0x02] IF !(Work_Zone[3] == 1*) GOTO 0x04DA
  4: 0x04C5 [0x03] Work_Zone[2] = 5572*
  5: 0x04CA [0x1D] PRINT_EVENT_MESSAGE(message_id=6884*)
    → "You can't expect me to give out the recipe for $0 every time you happen to forget it."
  6: 0x04CD [0x23] WAIT_FOR_DIALOG_INTERACTION
  7: 0x04CE [0x03] Work_Zone[2] = 5562*
  8: 0x04D3 [0x1D] PRINT_EVENT_MESSAGE(message_id=6885*)
    → "If you want to hear it again, you must bring me $0."
  9: 0x04D6 [0x23] WAIT_FOR_DIALOG_INTERACTION
 10: 0x04D7 [0x01] GOTO 0x04E3
 11: 0x04DA [0x03] Work_Zone[2] = 5562*
 12: 0x04DF [0x1D] PRINT_EVENT_MESSAGE(message_id=6858*)
    → "You should be able to gather $0 from the beehives of the Wajaom Woodlands."
 13: 0x04E2 [0x23] WAIT_FOR_DIALOG_INTERACTION

SUBROUTINE_04E3:
 14: 0x04E3 [0x21] END_EVENT
 15: 0x04E4 [0x00] END_REQSTACK()
```

### Event 581

#### Metadata

| Field        | Value    |
|--------------|----------|
| Entrypoint   | 0x04E5   |
| Data Size    | 96 bytes |
| Instructions | 20       |

```
      00 01 02 03 04 05 06 07  08 09 0A 0B 0C 0D 0E 0F
      -- -- -- -- -- -- -- --  -- -- -- -- -- -- -- --
04E0:                1E F0 FF  FF 7F 03 02 10 3C 80 1D       ........<..
04F0: 41 80 23 66 07 80 01 21  03 01 01 21 03 01 74 6C  A.#f...!...!..tl
0500: 6B 30 03 02 10 42 80 03  03 10 43 80 03 04 10 44  k0...B....C....D
0510: 80 03 05 10 45 80 03 06  10 46 80 1D 47 80 23 03  ....E....F..G.#.
0520: 02 10 3E 80 2B 01 21 03  01 48 80 23 66 07 80 01  ..>.+.!..H.#f...
0530: 21 03 01 01 21 03 01 74  6C 6B 31 2B 01 21 03 01  !...!..tlk1+.!..
0540: 49 80 23 21 00                                    I.#!.           
```

#### Opcodes

```
  0: 0x04E5 [0x1E] EventEntity looks at LocalPlayer and starts talking
  1: 0x04EA [0x03] Work_Zone[2] = 5572*
  2: 0x04EF [0x1D] PRINT_EVENT_MESSAGE(message_id=6886*)
    → "You already forgot how to make $0?"
  3: 0x04F2 [0x23] WAIT_FOR_DIALOG_INTERACTION
  4: 0x04F3 [0x66] LOAD_EXT_SCHEDULER_MAIN: Load scheduler "tlk0" with entities [Qutiba (ID: 16982273/0x01032101), Qutiba (ID: 16982273/0x01032101)], work=19*
  5: 0x0502 [0x03] Work_Zone[2] = 4096*
  6: 0x0507 [0x03] Work_Zone[3] = 615*
  7: 0x050C [0x03] Work_Zone[4] = 1840*
  8: 0x0511 [0x03] Work_Zone[5] = 2213*
  9: 0x0516 [0x03] Work_Zone[6] = 4378*
 10: 0x051B [0x1D] PRINT_EVENT_MESSAGE(message_id=6881*)
    → "First, you need $0... Then mix together $1, $2, $3, and $4..."
 11: 0x051E [0x23] WAIT_FOR_DIALOG_INTERACTION
 12: 0x051F [0x03] Work_Zone[2] = 5562*
 13: 0x0524 [0x2B] Qutiba (ID: 16982273/0x01032101) [6882*]:
    → "Oh yes, and the $0 you just brought me."
 14: 0x052B [0x23] WAIT_FOR_DIALOG_INTERACTION
 15: 0x052C [0x66] LOAD_EXT_SCHEDULER_MAIN: Load scheduler "tlk1" with entities [Qutiba (ID: 16982273/0x01032101), Qutiba (ID: 16982273/0x01032101)], work=19*
 16: 0x053B [0x2B] Qutiba (ID: 16982273/0x01032101) [6883*]:
    → "That should be all you need, but I think that it will still be rather difficult if you have no experience in making sweets."
 17: 0x0542 [0x23] WAIT_FOR_DIALOG_INTERACTION
 18: 0x0543 [0x21] END_EVENT
 19: 0x0544 [0x00] END_REQSTACK()
```

### Event 3026

#### Metadata

| Field        | Value   |
|--------------|---------|
| Entrypoint   | 0x0545  |
| Data Size    | 7 bytes |
| Instructions | 2       |

```
      00 01 02 03 04 05 06 07  08 09 0A 0B 0C 0D 0E 0F
      -- -- -- -- -- -- -- --  -- -- -- -- -- -- -- --
0540:                92 01 F8  FF FF 7F 00                   .......    
```

#### Opcodes

```
  0: 0x0545 [0x92] EventEntity->Render.Flags3 ^= 0x01
  1: 0x054B [0x00] END_REQSTACK()
```

### Event 3027

#### Metadata

| Field        | Value   |
|--------------|---------|
| Entrypoint   | 0x054C  |
| Data Size    | 7 bytes |
| Instructions | 2       |

```
      00 01 02 03 04 05 06 07  08 09 0A 0B 0C 0D 0E 0F
      -- -- -- -- -- -- -- --  -- -- -- -- -- -- -- --
0540:                                      92 01 F8 FF              ....
0550: FF 7F 00                                          ...             
```

#### Opcodes

```
  0: 0x054C [0x92] EventEntity->Render.Flags3 ^= 0x01
  1: 0x0552 [0x00] END_REQSTACK()
```

### Event 3033

#### Metadata

| Field        | Value   |
|--------------|---------|
| Entrypoint   | 0x0553  |
| Data Size    | 7 bytes |
| Instructions | 2       |

```
      00 01 02 03 04 05 06 07  08 09 0A 0B 0C 0D 0E 0F
      -- -- -- -- -- -- -- --  -- -- -- -- -- -- -- --
0550:          92 01 F8 FF FF  7F 00                       .......      
```

#### Opcodes

```
  0: 0x0553 [0x92] EventEntity->Render.Flags3 ^= 0x01
  1: 0x0559 [0x00] END_REQSTACK()
```

### Event 3034

#### Metadata

| Field        | Value   |
|--------------|---------|
| Entrypoint   | 0x055A  |
| Data Size    | 7 bytes |
| Instructions | 2       |

```
      00 01 02 03 04 05 06 07  08 09 0A 0B 0C 0D 0E 0F
      -- -- -- -- -- -- -- --  -- -- -- -- -- -- -- --
0550:                                92 01 F8 FF FF 7F            ......
0560: 00                                                .               
```

#### Opcodes

```
  0: 0x055A [0x92] EventEntity->Render.Flags3 ^= 0x01
  1: 0x0560 [0x00] END_REQSTACK()
```

### Event 65535.3

#### Metadata

| Field        | Value    |
|--------------|----------|
| Entrypoint   | 0x0561   |
| Data Size    | 18 bytes |
| Instructions | 4        |

```
      00 01 02 03 04 05 06 07  08 09 0A 0B 0C 0D 0E 0F
      -- -- -- -- -- -- -- --  -- -- -- -- -- -- -- --
0560:    6E F8 FF FF 7F 22 80  99 F8 FF FF 7F 99 F8 FF   n....".........
0570: FF 7F 00                                          ...             
```

#### Opcodes

```
  0: 0x0561 [0x6E] EventEntity uses emote 4*
  1: 0x0568 [0x99] Wait for EventEntity animation to complete
  2: 0x056D [0x99] Wait for EventEntity animation to complete
  3: 0x0572 [0x00] END_REQSTACK()
```

### Event 860

#### Metadata

| Field        | Value     |
|--------------|-----------|
| Entrypoint   | 0x0573    |
| Data Size    | 104 bytes |
| Instructions | 21        |

```
      00 01 02 03 04 05 06 07  08 09 0A 0B 0C 0D 0E 0F
      -- -- -- -- -- -- -- --  -- -- -- -- -- -- -- --
0570:          1E F0 FF FF 7F  1C 00 80 1D 4A 80 23 02     .........J.#.
0580: 02 10 14 80 80 9D 05 66  07 80 01 21 03 01 01 21  .......f...!...!
0590: 03 01 74 6C 6B 30 1D 4B  80 23 01 D9 05 02 02 10  ..tlk0.K.#......
05A0: 1A 80 80 BB 05 66 07 80  01 21 03 01 01 21 03 01  .....f...!...!..
05B0: 74 6C 6B 30 1D 4C 80 23  01 D9 05 02 02 10 1F 80  tlk0.L.#........
05C0: 80 D9 05 66 07 80 01 21  03 01 01 21 03 01 74 68  ...f...!...!..th
05D0: 6B 31 1D 4D 80 23 01 D9  05 21 00                 k1.M.#...!.     
```

#### Opcodes

```
  0: 0x0573 [0x1E] EventEntity looks at LocalPlayer and starts talking
  1: 0x0578 [0x1C] WAIT(30* ticks)
  2: 0x057B [0x1D] PRINT_EVENT_MESSAGE(message_id=7287*)
    → "Just between you and me, do you feel that there may be something lacking from our fine establishment's cuisine?"
  3: 0x057E [0x23] WAIT_FOR_DIALOG_INTERACTION
  4: 0x057F [0x02] IF !(Work_Zone[2] == 1*) GOTO 0x059D
  5: 0x0587 [0x66] LOAD_EXT_SCHEDULER_MAIN: Load scheduler "tlk0" with entities [Qutiba (ID: 16982273/0x01032101), Qutiba (ID: 16982273/0x01032101)], work=19*
  6: 0x0596 [0x1D] PRINT_EVENT_MESSAGE(message_id=7288*)
    → "I say the culprit is our limited selection of titillating ingredients from Aradjiah and beyond."
  7: 0x0599 [0x23] WAIT_FOR_DIALOG_INTERACTION
  8: 0x059A [0x01] GOTO 0x05D9
  9: 0x059D [0x02] IF !(Work_Zone[2] == 2*) GOTO 0x05BB
 10: 0x05A5 [0x66] LOAD_EXT_SCHEDULER_MAIN: Load scheduler "tlk0" with entities [Qutiba (ID: 16982273/0x01032101), Qutiba (ID: 16982273/0x01032101)], work=19*
 11: 0x05B4 [0x1D] PRINT_EVENT_MESSAGE(message_id=7289*)
    → "I say the culprit is our chef's refusal to step from the boundaries of traditional Aht Urhganian spices."
 12: 0x05B7 [0x23] WAIT_FOR_DIALOG_INTERACTION
 13: 0x05B8 [0x01] GOTO 0x05D9
 14: 0x05BB [0x02] IF !(Work_Zone[2] == 3*) GOTO 0x05D9
 15: 0x05C3 [0x66] LOAD_EXT_SCHEDULER_MAIN: Load scheduler "thk1" with entities [Qutiba (ID: 16982273/0x01032101), Qutiba (ID: 16982273/0x01032101)], work=19*
 16: 0x05D2 [0x1D] PRINT_EVENT_MESSAGE(message_id=7290*)
    → "I hear the customers whisper, but I just cannot see the problem. We use only the finest ingredients...."
 17: 0x05D5 [0x23] WAIT_FOR_DIALOG_INTERACTION
 18: 0x05D6 [0x01] GOTO 0x05D9

SUBROUTINE_05D9:
 19: 0x05D9 [0x21] END_EVENT
 20: 0x05DA [0x00] END_REQSTACK()
```

### Event 864

#### Metadata

| Field        | Value   |
|--------------|---------|
| Entrypoint   | 0x05DB  |
| Data Size    | 7 bytes |
| Instructions | 2       |

```
      00 01 02 03 04 05 06 07  08 09 0A 0B 0C 0D 0E 0F
      -- -- -- -- -- -- -- --  -- -- -- -- -- -- -- --
05D0:                                   92 01 F8 FF FF             .....
05E0: 7F 00                                             ..              
```

#### Opcodes

```
  0: 0x05DB [0x92] EventEntity->Render.Flags3 ^= 0x01
  1: 0x05E1 [0x00] END_REQSTACK()
```

### Event 65535.4

#### Metadata

| Field        | Value    |
|--------------|----------|
| Entrypoint   | 0x05E2   |
| Data Size    | 19 bytes |
| Instructions | 5        |

```
      00 01 02 03 04 05 06 07  08 09 0A 0B 0C 0D 0E 0F
      -- -- -- -- -- -- -- --  -- -- -- -- -- -- -- --
05E0:       32 2C 80 1F 00 4E  80 4F 80 38 80 1F 01 1E    2,...N.O.8....
05F0: 54 20 03 01 00                                    T ...           
```

#### Opcodes

```
  0: 0x05E2 [0x32] ExtData[1]->MainSpeed = 13* * 0.1
  1: 0x05E5 [0x1F] MOVE_ENTITY: EventEntity moves to X=78.677*, Z=-134.011*, Y=-6.000*
  2: 0x05ED [0x1F] MOVE_ENTITY: Update entity position (mode=1)
  3: 0x05EF [0x1E] EventEntity looks at Yafaaf (ID: 16982100/0x01032054) and starts talking
  4: 0x05F4 [0x00] END_REQSTACK()
```

### Event 65535.5

#### Metadata

| Field        | Value    |
|--------------|----------|
| Entrypoint   | 0x05F5   |
| Data Size    | 19 bytes |
| Instructions | 5        |

```
      00 01 02 03 04 05 06 07  08 09 0A 0B 0C 0D 0E 0F
      -- -- -- -- -- -- -- --  -- -- -- -- -- -- -- --
05F0:                32 2C 80  1F 00 50 80 51 80 38 80       2,...P.Q.8.
0600: 1F 01 1E 54 20 03 01 00                           ...T ...        
```

#### Opcodes

```
  0: 0x05F5 [0x32] ExtData[1]->MainSpeed = 13* * 0.1
  1: 0x05F8 [0x1F] MOVE_ENTITY: EventEntity moves to X=78.268*, Z=-135.273*, Y=-6.000*
  2: 0x0600 [0x1F] MOVE_ENTITY: Update entity position (mode=1)
  3: 0x0602 [0x1E] EventEntity looks at Yafaaf (ID: 16982100/0x01032054) and starts talking
  4: 0x0607 [0x00] END_REQSTACK()
```

### Event 65535.6

#### Metadata

| Field        | Value    |
|--------------|----------|
| Entrypoint   | 0x0608   |
| Data Size    | 19 bytes |
| Instructions | 5        |

```
      00 01 02 03 04 05 06 07  08 09 0A 0B 0C 0D 0E 0F
      -- -- -- -- -- -- -- --  -- -- -- -- -- -- -- --
0600:                          32 2C 80 1F 00 52 80 53          2,...R.S
0610: 80 38 80 1F 01 1E 54 20  03 01 00                 .8....T ...     
```

#### Opcodes

```
  0: 0x0608 [0x32] ExtData[1]->MainSpeed = 13* * 0.1
  1: 0x060B [0x1F] MOVE_ENTITY: EventEntity moves to X=78.167*, Z=-136.256*, Y=-6.000*
  2: 0x0613 [0x1F] MOVE_ENTITY: Update entity position (mode=1)
  3: 0x0615 [0x1E] EventEntity looks at Yafaaf (ID: 16982100/0x01032054) and starts talking
  4: 0x061A [0x00] END_REQSTACK()
```

### Event 65535.7

#### Metadata

| Field        | Value    |
|--------------|----------|
| Entrypoint   | 0x061B   |
| Data Size    | 19 bytes |
| Instructions | 5        |

```
      00 01 02 03 04 05 06 07  08 09 0A 0B 0C 0D 0E 0F
      -- -- -- -- -- -- -- --  -- -- -- -- -- -- -- --
0610:                                   32 2C 80 1F 00             2,...
0620: 54 80 55 80 38 80 1F 01  1E 54 20 03 01 00        T.U.8....T ...  
```

#### Opcodes

```
  0: 0x061B [0x32] ExtData[1]->MainSpeed = 13* * 0.1
  1: 0x061E [0x1F] MOVE_ENTITY: EventEntity moves to X=77.377*, Z=-137.981*, Y=-6.000*
  2: 0x0626 [0x1F] MOVE_ENTITY: Update entity position (mode=1)
  3: 0x0628 [0x1E] EventEntity looks at Yafaaf (ID: 16982100/0x01032054) and starts talking
  4: 0x062D [0x00] END_REQSTACK()
```

### Event 65535.8

#### Metadata

| Field        | Value    |
|--------------|----------|
| Entrypoint   | 0x062E   |
| Data Size    | 14 bytes |
| Instructions | 4        |

```
      00 01 02 03 04 05 06 07  08 09 0A 0B 0C 0D 0E 0F
      -- -- -- -- -- -- -- --  -- -- -- -- -- -- -- --
0620:                                            32 2C                2,
0630: 80 1F 00 56 80 57 80 38  80 1F 01 00              ...V.W.8....    
```

#### Opcodes

```
  0: 0x062E [0x32] ExtData[1]->MainSpeed = 13* * 0.1
  1: 0x0631 [0x1F] MOVE_ENTITY: EventEntity moves to X=82.702*, Z=-135.689*, Y=-6.000*
  2: 0x0639 [0x1F] MOVE_ENTITY: Update entity position (mode=1)
  3: 0x063B [0x00] END_REQSTACK()
```

### Event 872

#### Metadata

| Field        | Value   |
|--------------|---------|
| Entrypoint   | 0x063C  |
| Data Size    | 7 bytes |
| Instructions | 2       |

```
      00 01 02 03 04 05 06 07  08 09 0A 0B 0C 0D 0E 0F
      -- -- -- -- -- -- -- --  -- -- -- -- -- -- -- --
0630:                                      92 01 F8 FF              ....
0640: FF 7F 00                                          ...             
```

#### Opcodes

```
  0: 0x063C [0x92] EventEntity->Render.Flags3 ^= 0x01
  1: 0x0642 [0x00] END_REQSTACK()
```
