# 16982144 - Ubahrid

## Common Data

| Field            | Value                         |
|------------------|-------------------------------|
| Zone             | Aht Urhgan Whitegate (ID: 50) |
| Block Size       | 108 bytes                     |
| Total Events     | 2                             |
| References Count | 6                             |

## List of Events

| Event ID              | Entrypoint   |   Size |   Instructions |
|-----------------------|--------------|--------|----------------|
| [65535](#event-65535) | 0x0000       |      1 |              1 |
| [672](#event-672)     | 0x0001       |     58 |             14 |

## DAT References (imed_data)

|   Index | Hex Value   |   Dec Value |
|---------|-------------|-------------|
|       0 | 0x001E      |          30 |
|       1 | 0x0000      |           0 |
|       2 | 0x18FD      |        6397 |
|       3 | 0x18FE      |        6398 |
|       4 | 0x0002      |           2 |
|       5 | 0x18FF      |        6399 |

## String References

- **6397**: You appear to be an adventurer. Are you aware that there is a place called the "Chamber of Passage" in this town?
- **6398**: Apparently, it allows you to be instantly transported to an area that you have previously visited...of all things!
- **6399**: Then again, I wonder how much truth there is in such tales. After all, people also insist that there are ships that can fly in the sky!

## Events

### Event 65535

#### Metadata

| Field        | Value   |
|--------------|---------|
| Entrypoint   | 0x0000  |
| Data Size    | 1 bytes |
| Instructions | 1       |

```
      00 01 02 03 04 05 06 07  08 09 0A 0B 0C 0D 0E 0F
      -- -- -- -- -- -- -- --  -- -- -- -- -- -- -- --
0000: 00                                                .               
```

#### Opcodes

```
  0: 0x0000 [0x00] END_REQSTACK()
```

### Event 672

#### Metadata

| Field        | Value    |
|--------------|----------|
| Entrypoint   | 0x0001   |
| Data Size    | 58 bytes |
| Instructions | 14       |

```
      00 01 02 03 04 05 06 07  08 09 0A 0B 0C 0D 0E 0F
      -- -- -- -- -- -- -- --  -- -- -- -- -- -- -- --
0000:    1E F0 FF FF 7F 1C 00  80 66 01 80 F8 FF FF 7F   ........f......
0010: F8 FF FF 7F 74 6C 6B 31  1D 02 80 23 1D 03 80 23  ....tlk1...#...#
0020: 1C 00 80 66 04 80 F8 FF  FF 7F F8 FF FF 7F 64 69  ...f..........di
0030: 73 30 1D 05 80 23 1C 00  80 21 00                 s0...#...!.     
```

#### Opcodes

```
  0: 0x0001 [0x1E] EventEntity looks at LocalPlayer and starts talking
  1: 0x0006 [0x1C] WAIT(30* ticks)
  2: 0x0009 [0x66] LOAD_EXT_SCHEDULER_MAIN: Load scheduler "tlk1" with entities [EventEntity, EventEntity], work=0*
  3: 0x0018 [0x1D] PRINT_EVENT_MESSAGE(message_id=6397*)
    → "You appear to be an adventurer. Are you aware that there is a place called the "Chamber of Passage" in this town?"
  4: 0x001B [0x23] WAIT_FOR_DIALOG_INTERACTION
  5: 0x001C [0x1D] PRINT_EVENT_MESSAGE(message_id=6398*)
    → "Apparently, it allows you to be instantly transported to an area that you have previously visited...of all things!"
  6: 0x001F [0x23] WAIT_FOR_DIALOG_INTERACTION
  7: 0x0020 [0x1C] WAIT(30* ticks)
  8: 0x0023 [0x66] LOAD_EXT_SCHEDULER_MAIN: Load scheduler "dis0" with entities [EventEntity, EventEntity], work=2*
  9: 0x0032 [0x1D] PRINT_EVENT_MESSAGE(message_id=6399*)
    → "Then again, I wonder how much truth there is in such tales. After all, people also insist that there are ships that can fly in the sky!"
 10: 0x0035 [0x23] WAIT_FOR_DIALOG_INTERACTION
 11: 0x0036 [0x1C] WAIT(30* ticks)
 12: 0x0039 [0x21] END_EVENT
 13: 0x003A [0x00] END_REQSTACK()
```
