# 16982337 - Balakaf

## Common Data

| Field            | Value                         |
|------------------|-------------------------------|
| Zone             | Aht Urhgan Whitegate (ID: 50) |
| Block Size       | 1216 bytes                    |
| Total Events     | 24                            |
| References Count | 52                            |

## List of Events

| Event ID                  | Entrypoint   |   Size |   Instructions |
|---------------------------|--------------|--------|----------------|
| [65535](#event-65535)     | 0x0000       |      1 |              1 |
| [515](#event-515)         | 0x0001       |     18 |              8 |
| [545](#event-545)         | 0x0013       |      1 |              1 |
| [65535.1](#event-65535-1) | 0x0014       |     34 |              4 |
| [553](#event-553)         | 0x0036       |     35 |              9 |
| [586](#event-586)         | 0x0059       |    130 |             33 |
| [546](#event-546)         | 0x00DB       |      1 |              1 |
| [556](#event-556)         | 0x00DC       |     29 |              7 |
| [555](#event-555)         | 0x00F9       |     34 |              8 |
| [557](#event-557)         | 0x011B       |     44 |             12 |
| [558](#event-558)         | 0x0147       |     38 |             10 |
| [554](#event-554)         | 0x016D       |    205 |             40 |
| [65535.2](#event-65535-2) | 0x023A       |     22 |              6 |
| [65535.3](#event-65535-3) | 0x0250       |     22 |              6 |
| [65535.4](#event-65535-4) | 0x0266       |     30 |              8 |
| [559](#event-559)         | 0x0284       |     48 |             10 |
| [560](#event-560)         | 0x02B4       |     59 |             15 |
| [561](#event-561)         | 0x02EF       |      1 |              1 |
| [856](#event-856)         | 0x02F0       |      1 |              1 |
| [857](#event-857)         | 0x02F1       |     71 |             15 |
| [872](#event-872)         | 0x0338       |      1 |              1 |
| [873](#event-873)         | 0x0339       |     29 |              7 |
| [880](#event-880)         | 0x0356       |      1 |              1 |
| [881](#event-881)         | 0x0357       |     38 |             10 |

## DAT References (imed_data)

|   Index | Hex Value   |   Dec Value |
|---------|-------------|-------------|
|       0 | 0x001E      |          30 |
|       1 | 0x135D      |        4957 |
|       2 | 0x135E      |        4958 |
|       3 | 0x003C      |          60 |
|       4 | 0x00B4      |         180 |
|       5 | 0x1006      |        4102 |
|       6 | 0x140A      |        5130 |
|       7 | 0x140B      |        5131 |
|       8 | 0x0001      |           1 |
|       9 | 0x1419      |        5145 |
|      10 | 0x0002      |           2 |
|      11 | 0x141A      |        5146 |
|      12 | 0x0003      |           3 |
|      13 | 0x1424      |        5156 |
|      14 | 0x0004      |           4 |
|      15 | 0x1425      |        5157 |
|      16 | 0x0005      |           5 |
|      17 | 0x1426      |        5158 |
|      18 | 0x0006      |           6 |
|      19 | 0x1427      |        5159 |
|      20 | 0x0007      |           7 |
|      21 | 0x1428      |        5160 |
|      22 | 0x1412      |        5138 |
|      23 | 0x022D      |         557 |
|      24 | 0x1413      |        5139 |
|      25 | 0x1414      |        5140 |
|      26 | 0x0305      |         773 |
|      27 | 0x1415      |        5141 |
|      28 | 0x1416      |        5142 |
|      29 | 0x1417      |        5143 |
|      30 | 0x1418      |        5144 |
|      31 | 0x000D      |          13 |
|      32 | 0x6515      |       25877 |
|      33 | 0x1E2F8     |      123640 |
|      34 | 0xFFFFE891  |  4294961297 |
|      35 | 0x0028      |          40 |
|      36 | 0x63A1      |       25505 |
|      37 | 0x1EE0E     |      126478 |
|      38 | 0x1447      |        5191 |
|      39 | 0x1434      |        5172 |
|      40 | 0x1435      |        5173 |
|      41 | 0x1443      |        5187 |
|      42 | 0x1444      |        5188 |
|      43 | 0x1445      |        5189 |
|      44 | 0x1C67      |        7271 |
|      45 | 0x1C68      |        7272 |
|      46 | 0x1C69      |        7273 |
|      47 | 0x1C6A      |        7274 |
|      48 | 0x1CAA      |        7338 |
|      49 | 0x037C      |         892 |
|      50 | 0x1CD4      |        7380 |
|      51 | 0x1CD5      |        7381 |

## Events

### Event 65535

#### Metadata

| Field        | Value   |
|--------------|---------|
| Entrypoint   | 0x0000  |
| Data Size    | 1 bytes |
| Instructions | 1       |

```
      00 01 02 03 04 05 06 07  08 09 0A 0B 0C 0D 0E 0F
      -- -- -- -- -- -- -- --  -- -- -- -- -- -- -- --
0000: 00                                                .               
```

#### Opcodes

```
  0: 0x0000 [0x00] END_REQSTACK()
```

### Event 515

#### Metadata

| Field        | Value    |
|--------------|----------|
| Entrypoint   | 0x0001   |
| Data Size    | 18 bytes |
| Instructions | 8        |

```
      00 01 02 03 04 05 06 07  08 09 0A 0B 0C 0D 0E 0F
      -- -- -- -- -- -- -- --  -- -- -- -- -- -- -- --
0000:    42 1E F0 FF FF 7F 1C  00 80 1D 01 80 23 48 02   B...........#H.
0010: 80 21 00                                          .!.             
```

#### Opcodes

```
  0: 0x0001 [0x42] SET_CLI_EVENT_CANCEL_DATA()
  1: 0x0002 [0x1E] EventEntity looks at LocalPlayer and starts talking
  2: 0x0007 [0x1C] WAIT(30* ticks)
  3: 0x000A [0x1D] PRINT_EVENT_MESSAGE(message_id=4957*)
    → "Ye be wantin' a scrap of paper with a letter on it?\u0007Why, I could write such a thing for ye meself!\u007F1\u0000\u0007"
  4: 0x000D [0x23] WAIT_FOR_DIALOG_INTERACTION
  5: 0x000E [0x48] [System] [4958*]:
    → "\u001F\u000FBalakaf writes the letter \u00072D\u00073 on a scrap of paper and hands it to \u0008!\u007F1\u0000\u0007"
  6: 0x0011 [0x21] END_EVENT
  7: 0x0012 [0x00] END_REQSTACK()
```

### Event 545

#### Metadata

| Field        | Value   |
|--------------|---------|
| Entrypoint   | 0x0013  |
| Data Size    | 1 bytes |
| Instructions | 1       |

```
      00 01 02 03 04 05 06 07  08 09 0A 0B 0C 0D 0E 0F
      -- -- -- -- -- -- -- --  -- -- -- -- -- -- -- --
0010:          00                                          .            
```

#### Opcodes

```
  0: 0x0013 [0x00] END_REQSTACK()
```

### Event 65535.1

#### Metadata

| Field        | Value    |
|--------------|----------|
| Entrypoint   | 0x0014   |
| Data Size    | 34 bytes |
| Instructions | 4        |

```
      00 01 02 03 04 05 06 07  08 09 0A 0B 0C 0D 0E 0F
      -- -- -- -- -- -- -- --  -- -- -- -- -- -- -- --
0010:             5B 03 80 41  21 03 01 41 21 03 01 74      [..A!..A!..t
0020: 6C 6B 30 1C 04 80 5B 03  80 41 21 03 01 41 21 03  lk0...[..A!..A!.
0030: 01 74 6C 6B 31 00                                 .tlk1.          
```

#### Opcodes

```
  0: 0x0014 [0x5B] LOAD_EXT_SCHEDULER: Load scheduler "tlk0" with entities [Balakaf (ID: 16982337/0x01032141), Balakaf (ID: 16982337/0x01032141)], work=60*
  1: 0x0023 [0x1C] WAIT(180* ticks)
  2: 0x0026 [0x5B] LOAD_EXT_SCHEDULER: Load scheduler "tlk1" with entities [Balakaf (ID: 16982337/0x01032141), Balakaf (ID: 16982337/0x01032141)], work=60*
  3: 0x0035 [0x00] END_REQSTACK()
```

### Event 553

#### Metadata

| Field        | Value    |
|--------------|----------|
| Entrypoint   | 0x0036   |
| Data Size    | 35 bytes |
| Instructions | 9        |

```
      00 01 02 03 04 05 06 07  08 09 0A 0B 0C 0D 0E 0F
      -- -- -- -- -- -- -- --  -- -- -- -- -- -- -- --
0030:                   1E F0  FF FF 7F 03 02 10 05 80        ..........
0040: 1D 06 80 23 5B 03 80 41  21 03 01 41 21 03 01 74  ...#[..A!..A!..t
0050: 6C 6B 30 1D 07 80 23 21  00                       lk0...#!.       
```

#### Opcodes

```
  0: 0x0036 [0x1E] EventEntity looks at LocalPlayer and starts talking
  1: 0x003B [0x03] Work_Zone[2] = 4102*
  2: 0x0040 [0x1D] PRINT_EVENT_MESSAGE(message_id=5130*)
    → "Why, I forgot to mention to ye a mighty important piece of information.\u0007Ye be needin' \u0001\u0001\u0001 \u0001\u0005$\u0002\u0000\u0000\u0000 t' take a picture.\u007F1\u0000\u0007"
  3: 0x0043 [0x23] WAIT_FOR_DIALOG_INTERACTION
  4: 0x0044 [0x5B] LOAD_EXT_SCHEDULER: Load scheduler "tlk0" with entities [Balakaf (ID: 16982337/0x01032141), Balakaf (ID: 16982337/0x01032141)], work=60*
  5: 0x0053 [0x1D] PRINT_EVENT_MESSAGE(message_id=5131*)
    → "I don't have any on me at the moment, so if ye could find one yourself, that'd be great. I'll be sure to reimburse ye, though, so don't work up a sweat.\u007F1\u0000\u0007"
  6: 0x0056 [0x23] WAIT_FOR_DIALOG_INTERACTION
  7: 0x0057 [0x21] END_EVENT
  8: 0x0058 [0x00] END_REQSTACK()
```

### Event 586

#### Metadata

| Field        | Value     |
|--------------|-----------|
| Entrypoint   | 0x0059    |
| Data Size    | 130 bytes |
| Instructions | 33        |

```
      00 01 02 03 04 05 06 07  08 09 0A 0B 0C 0D 0E 0F
      -- -- -- -- -- -- -- --  -- -- -- -- -- -- -- --
0050:                             1E F0 FF FF 7F 1C 00           .......
0060: 80 5B 03 80 41 21 03 01  41 21 03 01 74 68 6B 31  .[..A!..A!..thk1
0070: 02 06 10 08 80 80 7F 00  1D 09 80 23 01 D9 00 02  ...........#....
0080: 06 10 0A 80 80 8E 00 1D  0B 80 23 01 D9 00 02 06  ..........#.....
0090: 10 0C 80 80 9D 00 1D 0D  80 23 01 D9 00 02 06 10  .........#......
00A0: 0E 80 80 AC 00 1D 0F 80  23 01 D9 00 02 06 10 10  ........#.......
00B0: 80 80 BB 00 1D 11 80 23  01 D9 00 02 06 10 12 80  .......#........
00C0: 80 CA 00 1D 13 80 23 01  D9 00 02 06 10 14 80 80  ......#.........
00D0: D9 00 1D 15 80 23 01 D9  00 21 00                 .....#...!.     
```

#### Opcodes

```
  0: 0x0059 [0x1E] EventEntity looks at LocalPlayer and starts talking
  1: 0x005E [0x1C] WAIT(30* ticks)
  2: 0x0061 [0x5B] LOAD_EXT_SCHEDULER: Load scheduler "thk1" with entities [Balakaf (ID: 16982337/0x01032141), Balakaf (ID: 16982337/0x01032141)], work=60*
  3: 0x0070 [0x02] IF !(Work_Zone[6] == 1*) GOTO 0x007F
  4: 0x0078 [0x1D] PRINT_EVENT_MESSAGE(message_id=5145*)
    → "First, I want t' see the volcano that can be glimpsed from the Wajaom Woodlands. I'll never forget the plumes of smoke billowing from its peak, even though it was a cloudy day when I saw it with me own eyes.\u007F1\u0000\u0007"
  5: 0x007B [0x23] WAIT_FOR_DIALOG_INTERACTION
  6: 0x007C [0x01] GOTO 0x00D9
  7: 0x007F [0x02] IF !(Work_Zone[6] == 2*) GOTO 0x008E
  8: 0x0087 [0x1D] PRINT_EVENT_MESSAGE(message_id=5146*)
    → "Next, I want t' see the \u00072Lovers' Rocks\u00073 at Arrapago Reef. Standing in the snow and looking upon those two pillars standing side by side always made me think of me dear wife.\u007F1\u0000\u0007"
  9: 0x008A [0x23] WAIT_FOR_DIALOG_INTERACTION
 10: 0x008B [0x01] GOTO 0x00D9
 11: 0x008E [0x02] IF !(Work_Zone[6] == 3*) GOTO 0x009D
 12: 0x0096 [0x1D] PRINT_EVENT_MESSAGE(message_id=5156*)
    → "Next, I want t' see the ruins that can be glimpsed from Mount Zhayolm. I still remember the sight of them bathed in the gentle glow of the evening sun.\u007F1\u0000\u0007"
 13: 0x0099 [0x23] WAIT_FOR_DIALOG_INTERACTION
 14: 0x009A [0x01] GOTO 0x00D9
 15: 0x009D [0x02] IF !(Work_Zone[6] == 4*) GOTO 0x00AC
 16: 0x00A5 [0x1D] PRINT_EVENT_MESSAGE(message_id=5157*)
    → "Next, I want t' see the flows of lava seeping from the heights of Halvung. It was quite the spectacle for a young lad traipsing through in the wee hours of the morning.\u007F1\u0000\u0007"
 17: 0x00A8 [0x23] WAIT_FOR_DIALOG_INTERACTION
 18: 0x00A9 [0x01] GOTO 0x00D9
 19: 0x00AC [0x02] IF !(Work_Zone[6] == 5*) GOTO 0x00BB
 20: 0x00B4 [0x1D] PRINT_EVENT_MESSAGE(message_id=5158*)
    → "Next, I want t' see the ruins in the Aydeewa Subterrane. The howl of the wind there seemed to speak volumes to me...\u007F1\u0000\u0007"
 21: 0x00B7 [0x23] WAIT_FOR_DIALOG_INTERACTION
 22: 0x00B8 [0x01] GOTO 0x00D9
 23: 0x00BB [0x02] IF !(Work_Zone[6] == 6*) GOTO 0x00CA
 24: 0x00C3 [0x1D] PRINT_EVENT_MESSAGE(message_id=5159*)
    → "Next, I want t' see the waterfall in Mamook. I was lost for words in its beauty, an opalescent thread reflecting the light of the sun.\u007F1\u0000\u0007"
 25: 0x00C6 [0x23] WAIT_FOR_DIALOG_INTERACTION
 26: 0x00C7 [0x01] GOTO 0x00D9
 27: 0x00CA [0x02] IF !(Work_Zone[6] == 7*) GOTO 0x00D9
 28: 0x00D2 [0x1D] PRINT_EVENT_MESSAGE(message_id=5160*)
    → "Next, I want t' see the graveyard in Caedarva Mire. By nightfall, I began t' imagine the tombstones to be monstrous men... That place be more than a mite terrifying.\u007F1\u0000\u0007"
 29: 0x00D5 [0x23] WAIT_FOR_DIALOG_INTERACTION
 30: 0x00D6 [0x01] GOTO 0x00D9

SUBROUTINE_00D9:
 31: 0x00D9 [0x21] END_EVENT
 32: 0x00DA [0x00] END_REQSTACK()
```

### Event 546

#### Metadata

| Field        | Value   |
|--------------|---------|
| Entrypoint   | 0x00DB  |
| Data Size    | 1 bytes |
| Instructions | 1       |

```
      00 01 02 03 04 05 06 07  08 09 0A 0B 0C 0D 0E 0F
      -- -- -- -- -- -- -- --  -- -- -- -- -- -- -- --
00D0:                                   00                         .    
```

#### Opcodes

```
  0: 0x00DB [0x00] END_REQSTACK()
```

### Event 556

#### Metadata

| Field        | Value    |
|--------------|----------|
| Entrypoint   | 0x00DC   |
| Data Size    | 29 bytes |
| Instructions | 7        |

```
      00 01 02 03 04 05 06 07  08 09 0A 0B 0C 0D 0E 0F
      -- -- -- -- -- -- -- --  -- -- -- -- -- -- -- --
00D0:                                      1E F0 FF FF              ....
00E0: 7F 1C 00 80 5B 03 80 41  21 03 01 41 21 03 01 74  ....[..A!..A!..t
00F0: 6C 62 30 1D 16 80 23 21  00                       lb0...#!.       
```

#### Opcodes

```
  0: 0x00DC [0x1E] EventEntity looks at LocalPlayer and starts talking
  1: 0x00E1 [0x1C] WAIT(30* ticks)
  2: 0x00E4 [0x5B] LOAD_EXT_SCHEDULER: Load scheduler "tlb0" with entities [Balakaf (ID: 16982337/0x01032141), Balakaf (ID: 16982337/0x01032141)], work=60*
  3: 0x00F3 [0x1D] PRINT_EVENT_MESSAGE(message_id=5138*)
    → "Looking at the picture ye brought me has made me feel like a young man again...\u007F1\u0000\u0007"
  4: 0x00F6 [0x23] WAIT_FOR_DIALOG_INTERACTION
  5: 0x00F7 [0x21] END_EVENT
  6: 0x00F8 [0x00] END_REQSTACK()
```

### Event 555

#### Metadata

| Field        | Value    |
|--------------|----------|
| Entrypoint   | 0x00F9   |
| Data Size    | 34 bytes |
| Instructions | 8        |

```
      00 01 02 03 04 05 06 07  08 09 0A 0B 0C 0D 0E 0F
      -- -- -- -- -- -- -- --  -- -- -- -- -- -- -- --
00F0:                             1E F0 FF FF 7F 1C 00           .......
0100: 80 03 02 10 17 80 5B 03  80 41 21 03 01 41 21 03  ......[..A!..A!.
0110: 01 74 6C 6B 30 1D 18 80  23 21 00                 .tlk0...#!.     
```

#### Opcodes

```
  0: 0x00F9 [0x1E] EventEntity looks at LocalPlayer and starts talking
  1: 0x00FE [0x1C] WAIT(30* ticks)
  2: 0x0101 [0x03] Work_Zone[2] = 557*
  3: 0x0106 [0x5B] LOAD_EXT_SCHEDULER: Load scheduler "tlk0" with entities [Balakaf (ID: 16982337/0x01032141), Balakaf (ID: 16982337/0x01032141)], work=60*
  4: 0x0115 [0x1D] PRINT_EVENT_MESSAGE(message_id=5139*)
    → "I'm all out of \u0001\u0005%\u0002\u0000\u0000\u0000! I'll have t' order more, now.\u007F1\u0000\u0007"
  5: 0x0118 [0x23] WAIT_FOR_DIALOG_INTERACTION
  6: 0x0119 [0x21] END_EVENT
  7: 0x011A [0x00] END_REQSTACK()
```

### Event 557

#### Metadata

| Field        | Value    |
|--------------|----------|
| Entrypoint   | 0x011B   |
| Data Size    | 44 bytes |
| Instructions | 12       |

```
      00 01 02 03 04 05 06 07  08 09 0A 0B 0C 0D 0E 0F
      -- -- -- -- -- -- -- --  -- -- -- -- -- -- -- --
0110:                                   42 1E F0 FF FF             B....
0120: 7F 1C 00 80 03 02 10 17  80 1D 19 80 23 5B 03 80  ............#[..
0130: 41 21 03 01 41 21 03 01  74 6C 6B 30 03 02 10 1A  A!..A!..tlk0....
0140: 80 1D 1B 80 23 21 00                              ....#!.         
```

#### Opcodes

```
  0: 0x011B [0x42] SET_CLI_EVENT_CANCEL_DATA()
  1: 0x011C [0x1E] EventEntity looks at LocalPlayer and starts talking
  2: 0x0121 [0x1C] WAIT(30* ticks)
  3: 0x0124 [0x03] Work_Zone[2] = 557*
  4: 0x0129 [0x1D] PRINT_EVENT_MESSAGE(message_id=5140*)
    → "Why, this be a genuine \u0001\u0005#\u0002\u0000\u0000\u0000!\u007F1\u0000\u0007"
  5: 0x012C [0x23] WAIT_FOR_DIALOG_INTERACTION
  6: 0x012D [0x5B] LOAD_EXT_SCHEDULER: Load scheduler "tlk0" with entities [Balakaf (ID: 16982337/0x01032141), Balakaf (ID: 16982337/0x01032141)], work=60*
  7: 0x013C [0x03] Work_Zone[2] = 773*
  8: 0x0141 [0x1D] PRINT_EVENT_MESSAGE(message_id=5141*)
    → "I've had a heck of a time getting my hands on these lately.\u0007It'll take a mite, but ye should be able t' use the \u0001\u00053\u0002\u0000\u0000\u0000 with this.\u007F1\u0000\u0007"
  9: 0x0144 [0x23] WAIT_FOR_DIALOG_INTERACTION
 10: 0x0145 [0x21] END_EVENT
 11: 0x0146 [0x00] END_REQSTACK()
```

### Event 558

#### Metadata

| Field        | Value    |
|--------------|----------|
| Entrypoint   | 0x0147   |
| Data Size    | 38 bytes |
| Instructions | 10       |

```
      00 01 02 03 04 05 06 07  08 09 0A 0B 0C 0D 0E 0F
      -- -- -- -- -- -- -- --  -- -- -- -- -- -- -- --
0140:                      1E  F0 FF FF 7F 1C 00 80 03         .........
0150: 02 10 1A 80 5B 03 80 41  21 03 01 41 21 03 01 74  ....[..A!..A!..t
0160: 6C 6B 30 1D 1C 80 23 1D  1D 80 23 21 00           lk0...#...#!.   
```

#### Opcodes

```
  0: 0x0147 [0x1E] EventEntity looks at LocalPlayer and starts talking
  1: 0x014C [0x1C] WAIT(30* ticks)
  2: 0x014F [0x03] Work_Zone[2] = 773*
  3: 0x0154 [0x5B] LOAD_EXT_SCHEDULER: Load scheduler "tlk0" with entities [Balakaf (ID: 16982337/0x01032141), Balakaf (ID: 16982337/0x01032141)], work=60*
  4: 0x0163 [0x1D] PRINT_EVENT_MESSAGE(message_id=5142*)
    → "I had t' dismantle the \u0001\u00053\u0002\u0000\u0000\u0000 for the time being. It'll take a mite until it's up and working again, so if ye could just check back with me later.\u007F1\u0000\u0007"
  5: 0x0166 [0x23] WAIT_FOR_DIALOG_INTERACTION
  6: 0x0167 [0x1D] PRINT_EVENT_MESSAGE(message_id=5143*)
    → "It'd be nice if I didn't have to take the fandangled thing apart every time t' change the lens, but there be no use in complaining.\u007F1\u0000\u0007"
  7: 0x016A [0x23] WAIT_FOR_DIALOG_INTERACTION
  8: 0x016B [0x21] END_EVENT
  9: 0x016C [0x00] END_REQSTACK()
```

### Event 554

#### Metadata

| Field        | Value     |
|--------------|-----------|
| Entrypoint   | 0x016D    |
| Data Size    | 205 bytes |
| Instructions | 40        |

```
      00 01 02 03 04 05 06 07  08 09 0A 0B 0C 0D 0E 0F
      -- -- -- -- -- -- -- --  -- -- -- -- -- -- -- --
0160:                                         42 1E F0               B..
0170: FF FF 7F 1C 00 80 5B 03  80 41 21 03 01 41 21 03  ......[..A!..A!.
0180: 01 74 6C 6B 30 03 02 10  1A 80 2B 41 21 03 01 1E  .tlk0.....+A!...
0190: 80 23 5B 03 80 41 21 03  01 41 21 03 01 74 6C 6B  .#[..A!..A!..tlk
01A0: 31 1C 03 80 5B 03 80 41  21 03 01 41 21 03 01 74  1...[..A!..A!..t
01B0: 68 6B 31 02 03 10 08 80  80 C6 01 2B 41 21 03 01  hk1........+A!..
01C0: 09 80 23 01 38 02 02 03  10 0A 80 80 D9 01 2B 41  ..#.8.........+A
01D0: 21 03 01 0B 80 23 01 38  02 02 03 10 0C 80 80 EC  !....#.8........
01E0: 01 2B 41 21 03 01 0D 80  23 01 38 02 02 03 10 0E  .+A!....#.8.....
01F0: 80 80 FF 01 2B 41 21 03  01 0F 80 23 01 38 02 02  ....+A!....#.8..
0200: 03 10 10 80 80 12 02 2B  41 21 03 01 11 80 23 01  .......+A!....#.
0210: 38 02 02 03 10 12 80 80  25 02 2B 41 21 03 01 13  8.......%.+A!...
0220: 80 23 01 38 02 02 03 10  14 80 80 38 02 2B 41 21  .#.8.......8.+A!
0230: 03 01 15 80 23 01 38 02  21 00                    ....#.8.!.      
```

#### Opcodes

```
  0: 0x016D [0x42] SET_CLI_EVENT_CANCEL_DATA()
  1: 0x016E [0x1E] EventEntity looks at LocalPlayer and starts talking
  2: 0x0173 [0x1C] WAIT(30* ticks)
  3: 0x0176 [0x5B] LOAD_EXT_SCHEDULER: Load scheduler "tlk0" with entities [Balakaf (ID: 16982337/0x01032141), Balakaf (ID: 16982337/0x01032141)], work=60*
  4: 0x0185 [0x03] Work_Zone[2] = 773*
  5: 0x018A [0x2B] Balakaf (ID: 16982337/0x01032141) [5144*]:
    → "Welcome back. I was starting t' think ye'd forgotten about me. The \u0001\u00053\u0002\u0000\u0000\u0000 be ready for use, now.\u007F1\u0000\u0007"
  6: 0x0191 [0x23] WAIT_FOR_DIALOG_INTERACTION
  7: 0x0192 [0x5B] LOAD_EXT_SCHEDULER: Load scheduler "tlk1" with entities [Balakaf (ID: 16982337/0x01032141), Balakaf (ID: 16982337/0x01032141)], work=60*
  8: 0x01A1 [0x1C] WAIT(60* ticks)
  9: 0x01A4 [0x5B] LOAD_EXT_SCHEDULER: Load scheduler "thk1" with entities [Balakaf (ID: 16982337/0x01032141), Balakaf (ID: 16982337/0x01032141)], work=60*
 10: 0x01B3 [0x02] IF !(Work_Zone[3] == 1*) GOTO 0x01C6
 11: 0x01BB [0x2B] Balakaf (ID: 16982337/0x01032141) [5145*]:
    → "First, I want t' see the volcano that can be glimpsed from the Wajaom Woodlands. I'll never forget the plumes of smoke billowing from its peak, even though it was a cloudy day when I saw it with me own eyes.\u007F1\u0000\u0007"
 12: 0x01C2 [0x23] WAIT_FOR_DIALOG_INTERACTION
 13: 0x01C3 [0x01] GOTO 0x0238
 14: 0x01C6 [0x02] IF !(Work_Zone[3] == 2*) GOTO 0x01D9
 15: 0x01CE [0x2B] Balakaf (ID: 16982337/0x01032141) [5146*]:
    → "Next, I want t' see the \u00072Lovers' Rocks\u00073 at Arrapago Reef. Standing in the snow and looking upon those two pillars standing side by side always made me think of me dear wife.\u007F1\u0000\u0007"
 16: 0x01D5 [0x23] WAIT_FOR_DIALOG_INTERACTION
 17: 0x01D6 [0x01] GOTO 0x0238
 18: 0x01D9 [0x02] IF !(Work_Zone[3] == 3*) GOTO 0x01EC
 19: 0x01E1 [0x2B] Balakaf (ID: 16982337/0x01032141) [5156*]:
    → "Next, I want t' see the ruins that can be glimpsed from Mount Zhayolm. I still remember the sight of them bathed in the gentle glow of the evening sun.\u007F1\u0000\u0007"
 20: 0x01E8 [0x23] WAIT_FOR_DIALOG_INTERACTION
 21: 0x01E9 [0x01] GOTO 0x0238
 22: 0x01EC [0x02] IF !(Work_Zone[3] == 4*) GOTO 0x01FF
 23: 0x01F4 [0x2B] Balakaf (ID: 16982337/0x01032141) [5157*]:
    → "Next, I want t' see the flows of lava seeping from the heights of Halvung. It was quite the spectacle for a young lad traipsing through in the wee hours of the morning.\u007F1\u0000\u0007"
 24: 0x01FB [0x23] WAIT_FOR_DIALOG_INTERACTION
 25: 0x01FC [0x01] GOTO 0x0238
 26: 0x01FF [0x02] IF !(Work_Zone[3] == 5*) GOTO 0x0212
 27: 0x0207 [0x2B] Balakaf (ID: 16982337/0x01032141) [5158*]:
    → "Next, I want t' see the ruins in the Aydeewa Subterrane. The howl of the wind there seemed to speak volumes to me...\u007F1\u0000\u0007"
 28: 0x020E [0x23] WAIT_FOR_DIALOG_INTERACTION
 29: 0x020F [0x01] GOTO 0x0238
 30: 0x0212 [0x02] IF !(Work_Zone[3] == 6*) GOTO 0x0225
 31: 0x021A [0x2B] Balakaf (ID: 16982337/0x01032141) [5159*]:
    → "Next, I want t' see the waterfall in Mamook. I was lost for words in its beauty, an opalescent thread reflecting the light of the sun.\u007F1\u0000\u0007"
 32: 0x0221 [0x23] WAIT_FOR_DIALOG_INTERACTION
 33: 0x0222 [0x01] GOTO 0x0238
 34: 0x0225 [0x02] IF !(Work_Zone[3] == 7*) GOTO 0x0238
 35: 0x022D [0x2B] Balakaf (ID: 16982337/0x01032141) [5160*]:
    → "Next, I want t' see the graveyard in Caedarva Mire. By nightfall, I began t' imagine the tombstones to be monstrous men... That place be more than a mite terrifying.\u007F1\u0000\u0007"
 36: 0x0234 [0x23] WAIT_FOR_DIALOG_INTERACTION
 37: 0x0235 [0x01] GOTO 0x0238

SUBROUTINE_0238:
 38: 0x0238 [0x21] END_EVENT
 39: 0x0239 [0x00] END_REQSTACK()
```

### Event 65535.2

#### Metadata

| Field        | Value    |
|--------------|----------|
| Entrypoint   | 0x023A   |
| Data Size    | 22 bytes |
| Instructions | 6        |

```
      00 01 02 03 04 05 06 07  08 09 0A 0B 0C 0D 0E 0F
      -- -- -- -- -- -- -- --  -- -- -- -- -- -- -- --
0230:                                32 1F 80 1F 00 20            2.... 
0240: 80 21 80 22 80 1F 01 1E  2C 21 03 01 1C 00 80 00  .!."....,!......
```

#### Opcodes

```
  0: 0x023A [0x32] ExtData[1]->MainSpeed = 13* * 0.1
  1: 0x023D [0x1F] MOVE_ENTITY: EventEntity moves to X=25.877*, Z=123.640*, Y=-5.999*
  2: 0x0245 [0x1F] MOVE_ENTITY: Update entity position (mode=1)
  3: 0x0247 [0x1E] EventEntity looks at Zabahf (ID: 16982316/0x0103212C) and starts talking
  4: 0x024C [0x1C] WAIT(30* ticks)
  5: 0x024F [0x00] END_REQSTACK()
```

### Event 65535.3

#### Metadata

| Field        | Value    |
|--------------|----------|
| Entrypoint   | 0x0250   |
| Data Size    | 22 bytes |
| Instructions | 6        |

```
      00 01 02 03 04 05 06 07  08 09 0A 0B 0C 0D 0E 0F
      -- -- -- -- -- -- -- --  -- -- -- -- -- -- -- --
0250: 32 23 80 1F 00 24 80 25  80 22 80 1F 01 1E 2C 21  2#...$.%."....,!
0260: 03 01 1C 00 80 00                                 ......          
```

#### Opcodes

```
  0: 0x0250 [0x32] ExtData[1]->MainSpeed = 40* * 0.1
  1: 0x0253 [0x1F] MOVE_ENTITY: EventEntity moves to X=25.505*, Z=126.478*, Y=-5.999*
  2: 0x025B [0x1F] MOVE_ENTITY: Update entity position (mode=1)
  3: 0x025D [0x1E] EventEntity looks at Zabahf (ID: 16982316/0x0103212C) and starts talking
  4: 0x0262 [0x1C] WAIT(30* ticks)
  5: 0x0265 [0x00] END_REQSTACK()
```

### Event 65535.4

#### Metadata

| Field        | Value    |
|--------------|----------|
| Entrypoint   | 0x0266   |
| Data Size    | 30 bytes |
| Instructions | 8        |

```
      00 01 02 03 04 05 06 07  08 09 0A 0B 0C 0D 0E 0F
      -- -- -- -- -- -- -- --  -- -- -- -- -- -- -- --
0260:                   42 1E  F0 FF FF 7F 1C 00 80 5B        B........[
0270: 03 80 41 21 03 01 41 21  03 01 70 61 73 30 1D 26  ..A!..A!..pas0.&
0280: 80 23 21 00                                       .#!.            
```

#### Opcodes

```
  0: 0x0266 [0x42] SET_CLI_EVENT_CANCEL_DATA()
  1: 0x0267 [0x1E] EventEntity looks at LocalPlayer and starts talking
  2: 0x026C [0x1C] WAIT(30* ticks)
  3: 0x026F [0x5B] LOAD_EXT_SCHEDULER: Load scheduler "pas0" with entities [Balakaf (ID: 16982337/0x01032141), Balakaf (ID: 16982337/0x01032141)], work=60*
  4: 0x027E [0x1D] PRINT_EVENT_MESSAGE(message_id=5191*)
    → "Thanks for yer trouble. I may ask more of ye later.\u007F1\u0000\u0007"
  5: 0x0281 [0x23] WAIT_FOR_DIALOG_INTERACTION
  6: 0x0282 [0x21] END_EVENT
  7: 0x0283 [0x00] END_REQSTACK()
```

### Event 559

#### Metadata

| Field        | Value    |
|--------------|----------|
| Entrypoint   | 0x0284   |
| Data Size    | 48 bytes |
| Instructions | 10       |

```
      00 01 02 03 04 05 06 07  08 09 0A 0B 0C 0D 0E 0F
      -- -- -- -- -- -- -- --  -- -- -- -- -- -- -- --
0280:             1E F0 FF FF  7F 1C 00 80 5B 03 80 41      ........[..A
0290: 21 03 01 41 21 03 01 74  6C 6B 30 1D 27 80 23 1D  !..A!..tlk0.'.#.
02A0: 28 80 23 5B 03 80 41 21  03 01 41 21 03 01 74 6C  (.#[..A!..A!..tl
02B0: 6B 31 21 00                                       k1!.            
```

#### Opcodes

```
  0: 0x0284 [0x1E] EventEntity looks at LocalPlayer and starts talking
  1: 0x0289 [0x1C] WAIT(30* ticks)
  2: 0x028C [0x5B] LOAD_EXT_SCHEDULER: Load scheduler "tlk0" with entities [Balakaf (ID: 16982337/0x01032141), Balakaf (ID: 16982337/0x01032141)], work=60*
  3: 0x029B [0x1D] PRINT_EVENT_MESSAGE(message_id=5172*)
    → "Someday ye'll enjoy reminiscing as much as I do, so be sure to visit as many places as ye can while ye've still got life in yer bones.\u007F1\u0000\u0007"
  4: 0x029E [0x23] WAIT_FOR_DIALOG_INTERACTION
  5: 0x029F [0x1D] PRINT_EVENT_MESSAGE(message_id=5173*)
    → "Make sure ye burn each image right onto yer heart, ye hear me?\u007F1\u0000\u0007"
  6: 0x02A2 [0x23] WAIT_FOR_DIALOG_INTERACTION
  7: 0x02A3 [0x5B] LOAD_EXT_SCHEDULER: Load scheduler "tlk1" with entities [Balakaf (ID: 16982337/0x01032141), Balakaf (ID: 16982337/0x01032141)], work=60*
  8: 0x02B2 [0x21] END_EVENT
  9: 0x02B3 [0x00] END_REQSTACK()
```

### Event 560

#### Metadata

| Field        | Value    |
|--------------|----------|
| Entrypoint   | 0x02B4   |
| Data Size    | 59 bytes |
| Instructions | 15       |

```
      00 01 02 03 04 05 06 07  08 09 0A 0B 0C 0D 0E 0F
      -- -- -- -- -- -- -- --  -- -- -- -- -- -- -- --
02B0:             42 1E F0 FF  FF 7F 1C 00 80 1D 29 80      B.........).
02C0: 23 1C 03 80 5B 03 80 41  21 03 01 41 21 03 01 74  #...[..A!..A!..t
02D0: 6C 6B 30 1D 2A 80 23 5B  03 80 41 21 03 01 41 21  lk0.*.#[..A!..A!
02E0: 03 01 74 6C 6B 31 1C 03  80 1D 2B 80 23 21 00     ..tlk1....+.#!. 
```

#### Opcodes

```
  0: 0x02B4 [0x42] SET_CLI_EVENT_CANCEL_DATA()
  1: 0x02B5 [0x1E] EventEntity looks at LocalPlayer and starts talking
  2: 0x02BA [0x1C] WAIT(30* ticks)
  3: 0x02BD [0x1D] PRINT_EVENT_MESSAGE(message_id=5187*)
    → "Looking back on these pictures reminds me of when I was but a lad...\u007F1\u0000\u0007"
  4: 0x02C0 [0x23] WAIT_FOR_DIALOG_INTERACTION
  5: 0x02C1 [0x1C] WAIT(60* ticks)
  6: 0x02C4 [0x5B] LOAD_EXT_SCHEDULER: Load scheduler "tlk0" with entities [Balakaf (ID: 16982337/0x01032141), Balakaf (ID: 16982337/0x01032141)], work=60*
  7: 0x02D3 [0x1D] PRINT_EVENT_MESSAGE(message_id=5188*)
    → "That reminds me!\u007F6\u0001\u0007I dropped a fair sum o' gold on me travels...\u007F1\u0000\u0007"
  8: 0x02D6 [0x23] WAIT_FOR_DIALOG_INTERACTION
  9: 0x02D7 [0x5B] LOAD_EXT_SCHEDULER: Load scheduler "tlk1" with entities [Balakaf (ID: 16982337/0x01032141), Balakaf (ID: 16982337/0x01032141)], work=60*
 10: 0x02E6 [0x1C] WAIT(60* ticks)
 11: 0x02E9 [0x1D] PRINT_EVENT_MESSAGE(message_id=5189*)
    → "That wasn't a good memory at all...\u007F1\u0000\u0007"
 12: 0x02EC [0x23] WAIT_FOR_DIALOG_INTERACTION
 13: 0x02ED [0x21] END_EVENT
 14: 0x02EE [0x00] END_REQSTACK()
```

### Event 561

#### Metadata

| Field        | Value   |
|--------------|---------|
| Entrypoint   | 0x02EF  |
| Data Size    | 1 bytes |
| Instructions | 1       |

```
      00 01 02 03 04 05 06 07  08 09 0A 0B 0C 0D 0E 0F
      -- -- -- -- -- -- -- --  -- -- -- -- -- -- -- --
02E0:                                               00                 .
```

#### Opcodes

```
  0: 0x02EF [0x00] END_REQSTACK()
```

### Event 856

#### Metadata

| Field        | Value   |
|--------------|---------|
| Entrypoint   | 0x02F0  |
| Data Size    | 1 bytes |
| Instructions | 1       |

```
      00 01 02 03 04 05 06 07  08 09 0A 0B 0C 0D 0E 0F
      -- -- -- -- -- -- -- --  -- -- -- -- -- -- -- --
02F0: 00                                                .               
```

#### Opcodes

```
  0: 0x02F0 [0x00] END_REQSTACK()
```

### Event 857

#### Metadata

| Field        | Value    |
|--------------|----------|
| Entrypoint   | 0x02F1   |
| Data Size    | 71 bytes |
| Instructions | 15       |

```
      00 01 02 03 04 05 06 07  08 09 0A 0B 0C 0D 0E 0F
      -- -- -- -- -- -- -- --  -- -- -- -- -- -- -- --
02F0:    1E F0 FF FF 7F 1C 00  80 5B 03 80 41 21 03 01   ........[..A!..
0300: 41 21 03 01 74 6C 6B 30  1D 2C 80 23 1D 2D 80 23  A!..tlk0.,.#.-.#
0310: 5B 03 80 41 21 03 01 41  21 03 01 74 6C 6B 31 1D  [..A!..A!..tlk1.
0320: 2E 80 23 5B 03 80 41 21  03 01 41 21 03 01 74 6C  ..#[..A!..A!..tl
0330: 6B 30 1D 2F 80 23 21 00                           k0./.#!.        
```

#### Opcodes

```
  0: 0x02F1 [0x1E] EventEntity looks at LocalPlayer and starts talking
  1: 0x02F6 [0x1C] WAIT(30* ticks)
  2: 0x02F9 [0x5B] LOAD_EXT_SCHEDULER: Load scheduler "tlk0" with entities [Balakaf (ID: 16982337/0x01032141), Balakaf (ID: 16982337/0x01032141)], work=60*
  3: 0x0308 [0x1D] PRINT_EVENT_MESSAGE(message_id=7271*)
    → "Oh, I forgot t' tell ye...\u007F1\u0000\u0007"
  4: 0x030B [0x23] WAIT_FOR_DIALOG_INTERACTION
  5: 0x030C [0x1D] PRINT_EVENT_MESSAGE(message_id=7272*)
    → "Once ye've recorded the image onto the film, the gears inside go and reset t' their original position.\u007F1\u0000\u0007"
  6: 0x030F [0x23] WAIT_FOR_DIALOG_INTERACTION
  7: 0x0310 [0x5B] LOAD_EXT_SCHEDULER: Load scheduler "tlk1" with entities [Balakaf (ID: 16982337/0x01032141), Balakaf (ID: 16982337/0x01032141)], work=60*
  8: 0x031F [0x1D] PRINT_EVENT_MESSAGE(message_id=7273*)
    → "If ye try recordin' again, it'll erase what ye did before!\u007F1\u0000\u0007"
  9: 0x0322 [0x23] WAIT_FOR_DIALOG_INTERACTION
 10: 0x0323 [0x5B] LOAD_EXT_SCHEDULER: Load scheduler "tlk0" with entities [Balakaf (ID: 16982337/0x01032141), Balakaf (ID: 16982337/0x01032141)], work=60*
 11: 0x0332 [0x1D] PRINT_EVENT_MESSAGE(message_id=7274*)
    → "What I'm tryin' t' get at is, that once ye've found somethin' ye like, come back here before doin' anything else! Got it?\u007F1\u0000\u0007"
 12: 0x0335 [0x23] WAIT_FOR_DIALOG_INTERACTION
 13: 0x0336 [0x21] END_EVENT
 14: 0x0337 [0x00] END_REQSTACK()
```

### Event 872

#### Metadata

| Field        | Value   |
|--------------|---------|
| Entrypoint   | 0x0338  |
| Data Size    | 1 bytes |
| Instructions | 1       |

```
      00 01 02 03 04 05 06 07  08 09 0A 0B 0C 0D 0E 0F
      -- -- -- -- -- -- -- --  -- -- -- -- -- -- -- --
0330:                          00                               .       
```

#### Opcodes

```
  0: 0x0338 [0x00] END_REQSTACK()
```

### Event 873

#### Metadata

| Field        | Value    |
|--------------|----------|
| Entrypoint   | 0x0339   |
| Data Size    | 29 bytes |
| Instructions | 7        |

```
      00 01 02 03 04 05 06 07  08 09 0A 0B 0C 0D 0E 0F
      -- -- -- -- -- -- -- --  -- -- -- -- -- -- -- --
0330:                             1E F0 FF FF 7F 1C 00           .......
0340: 80 5B 03 80 41 21 03 01  41 21 03 01 74 6C 6B 30  .[..A!..A!..tlk0
0350: 1D 30 80 23 21 00                                 .0.#!.          
```

#### Opcodes

```
  0: 0x0339 [0x1E] EventEntity looks at LocalPlayer and starts talking
  1: 0x033E [0x1C] WAIT(30* ticks)
  2: 0x0341 [0x5B] LOAD_EXT_SCHEDULER: Load scheduler "tlk0" with entities [Balakaf (ID: 16982337/0x01032141), Balakaf (ID: 16982337/0x01032141)], work=60*
  3: 0x0350 [0x1D] PRINT_EVENT_MESSAGE(message_id=7338*)
    → "I must say, \u0008, ye sure have lived up t' me expectations.\u007F1\u0000\u0007"
  4: 0x0353 [0x23] WAIT_FOR_DIALOG_INTERACTION
  5: 0x0354 [0x21] END_EVENT
  6: 0x0355 [0x00] END_REQSTACK()
```

### Event 880

#### Metadata

| Field        | Value   |
|--------------|---------|
| Entrypoint   | 0x0356  |
| Data Size    | 1 bytes |
| Instructions | 1       |

```
      00 01 02 03 04 05 06 07  08 09 0A 0B 0C 0D 0E 0F
      -- -- -- -- -- -- -- --  -- -- -- -- -- -- -- --
0350:                   00                                    .         
```

#### Opcodes

```
  0: 0x0356 [0x00] END_REQSTACK()
```

### Event 881

#### Metadata

| Field        | Value    |
|--------------|----------|
| Entrypoint   | 0x0357   |
| Data Size    | 38 bytes |
| Instructions | 10       |

```
      00 01 02 03 04 05 06 07  08 09 0A 0B 0C 0D 0E 0F
      -- -- -- -- -- -- -- --  -- -- -- -- -- -- -- --
0350:                      1E  F0 FF FF 7F 1C 00 80 5B         ........[
0360: 03 80 41 21 03 01 41 21  03 01 74 6C 6B 30 03 02  ..A!..A!..tlk0..
0370: 10 31 80 1D 32 80 23 1D  33 80 23 21 00           .1..2.#.3.#!.   
```

#### Opcodes

```
  0: 0x0357 [0x1E] EventEntity looks at LocalPlayer and starts talking
  1: 0x035C [0x1C] WAIT(30* ticks)
  2: 0x035F [0x5B] LOAD_EXT_SCHEDULER: Load scheduler "tlk0" with entities [Balakaf (ID: 16982337/0x01032141), Balakaf (ID: 16982337/0x01032141)], work=60*
  3: 0x036E [0x03] Work_Zone[2] = 892*
  4: 0x0373 [0x1D] PRINT_EVENT_MESSAGE(message_id=7380*)
    → "Thanks t' ye, me \u0001\u00053\u0002\u0000\u0000\u0000 was voted best invention of the week by the Al Zahbi board of inventors!\u007F1\u0000\u0007"
  5: 0x0376 [0x23] WAIT_FOR_DIALOG_INTERACTION
  6: 0x0377 [0x1D] PRINT_EVENT_MESSAGE(message_id=7381*)
    → "Now, all I have t' do is fix 'er up so anybody can make their own move-ys!\u007F1\u0000\u0007"
  7: 0x037A [0x23] WAIT_FOR_DIALOG_INTERACTION
  8: 0x037B [0x21] END_EVENT
  9: 0x037C [0x00] END_REQSTACK()
```
