# 16982361

## Common Data

| Field            | Value                         |
|------------------|-------------------------------|
| Zone             | Aht Urhgan Whitegate (ID: 50) |
| Block Size       | 46136 bytes                   |
| Total Events     | 16                            |
| References Count | 1084                          |

## List of Events

| Event ID              | Entrypoint   |   Size |   Instructions |
|-----------------------|--------------|--------|----------------|
| [65535](#event-65535) | 0x0000       |      1 |              1 |
| [883](#event-883)     | 0x0001       |    852 |            105 |
| [884](#event-884)     | 0x0355       |   9630 |           1266 |
| [547](#event-547)     | 0x28F3       |   1750 |            214 |
| [548](#event-548)     | 0x2FC9       |   2581 |            321 |
| [552](#event-552)     | 0x39DE       |    575 |             72 |
| [646](#event-646)     | 0x3C1D       |      1 |              1 |
| [591](#event-591)     | 0x3C1E       |   1238 |            166 |
| [593](#event-593)     | 0x40F4       |    642 |             80 |
| [595](#event-595)     | 0x4376       |   1089 |            136 |
| [609](#event-609)     | 0x47B7       |    297 |             37 |
| [772](#event-772)     | 0x48E0       |    594 |             84 |
| [797](#event-797)     | 0x4B32       |   1285 |            178 |
| [798](#event-798)     | 0x5037       |    290 |             42 |
| [3092](#event-3092)   | 0x5159       |  11074 |           1399 |
| [3093](#event-3093)   | 0x7C9B       |   9820 |           1265 |

## DAT References (imed_data)

|   Index | Hex Value   |   Dec Value |
|---------|-------------|-------------|
|       0 | 0x00C8      |         200 |
|       1 | 0x0000      |           0 |
|       2 | 0x0013      |          19 |
|       3 | 0x0235      |         565 |
|       4 | 0x13A07     |       80391 |
|       5 | 0xFFFDE965  |  4294830437 |
|       6 | 0xFFFFE890  |  4294961296 |
|       7 | 0x0418      |        1048 |
|       8 | 0x13A44     |       80452 |
|       9 | 0xFFFDF3EE  |  4294833134 |
|      10 | 0x0417      |        1047 |
|      11 | 0x003C      |          60 |
|      12 | 0x0136      |         310 |
|      13 | 0x0031      |          49 |
|      14 | 0x1FF8      |        8184 |
|      15 | 0x1FF9      |        8185 |
|      16 | 0x002D      |          45 |
|      17 | 0x1FFA      |        8186 |
|      18 | 0x1FFB      |        8187 |
|      19 | 0x000E      |          14 |
|      20 | 0x1FFC      |        8188 |
|      21 | 0x000F      |          15 |
|      22 | 0x1FFD      |        8189 |
|      23 | 0x001E      |          30 |
|      24 | 0x1FFE      |        8190 |
|      25 | 0x1FFF      |        8191 |
|      26 | 0x2000      |        8192 |
|      27 | 0x2001      |        8193 |
|      28 | 0x2002      |        8194 |
|      29 | 0x0025      |          37 |
|      30 | 0x2003      |        8195 |
|      31 | 0x2004      |        8196 |
|      32 | 0x000C      |          12 |
|      33 | 0x2005      |        8197 |
|      34 | 0x005A      |          90 |
|      35 | 0x00C9      |         201 |
|      36 | 0x138B1     |       80049 |
|      37 | 0xFFFDF3B7  |  4294833079 |
|      38 | 0x0078      |         120 |
|      39 | 0x00A3      |         163 |
|      40 | 0x2006      |        8198 |
|      41 | 0x2007      |        8199 |
|      42 | 0x2008      |        8200 |
|      43 | 0x2009      |        8201 |
|      44 | 0x200A      |        8202 |
|      45 | 0x200B      |        8203 |
|      46 | 0x0020      |          32 |
|      47 | 0x0016      |          22 |
|      48 | 0x200C      |        8204 |
|      49 | 0x200D      |        8205 |
|      50 | 0x0026      |          38 |
|      51 | 0x200E      |        8206 |
|      52 | 0x200F      |        8207 |
|      53 | 0x2010      |        8208 |
|      54 | 0x0001      |           1 |
|      55 | 0x2011      |        8209 |
|      56 | 0x2012      |        8210 |
|      57 | 0x2013      |        8211 |
|      58 | 0x0009      |           9 |
|      59 | 0x2014      |        8212 |
|      60 | 0x2015      |        8213 |
|      61 | 0x2016      |        8214 |
|      62 | 0x2017      |        8215 |
|      63 | 0x2018      |        8216 |
|      64 | 0x0010      |          16 |
|      65 | 0x2019      |        8217 |
|      66 | 0x201A      |        8218 |
|      67 | 0x000A      |          10 |
|      68 | 0x201B      |        8219 |
|      69 | 0x0015      |          21 |
|      70 | 0x201C      |        8220 |
|      71 | 0x00B2      |         178 |
|      72 | 0x201D      |        8221 |
|      73 | 0x201E      |        8222 |
|      74 | 0x201F      |        8223 |
|      75 | 0x0006      |           6 |
|      76 | 0x2020      |        8224 |
|      77 | 0x2021      |        8225 |
|      78 | 0x2022      |        8226 |
|      79 | 0x2023      |        8227 |
|      80 | 0x2024      |        8228 |
|      81 | 0x2026      |        8230 |
|      82 | 0x00ED      |         237 |
|      83 | 0x0131      |         305 |
|      84 | 0x18055     |       98389 |
|      85 | 0x3155      |       12629 |
|      86 | 0xFFFFB127  |  4294947111 |
|      87 | 0x07F3      |        2035 |
|      88 | 0x173D6     |       95190 |
|      89 | 0x3A0D      |       14861 |
|      90 | 0x01F4      |         500 |
|      91 | 0x009A      |         154 |
|      92 | 0x0190      |         400 |
|      93 | 0x2027      |        8231 |
|      94 | 0x0045      |          69 |
|      95 | 0x2028      |        8232 |
|      96 | 0x2029      |        8233 |
|      97 | 0x202A      |        8234 |
|      98 | 0x007B      |         123 |
|      99 | 0x202B      |        8235 |
|     100 | 0x202C      |        8236 |
|     101 | 0x202D      |        8237 |
|     102 | 0x03BE      |         958 |
|     103 | 0x202E      |        8238 |
|     104 | 0x202F      |        8239 |
|     105 | 0x2030      |        8240 |
|     106 | 0x2031      |        8241 |
|     107 | 0x2032      |        8242 |
|     108 | 0x2033      |        8243 |
|     109 | 0x2034      |        8244 |
|     110 | 0x2035      |        8245 |
|     111 | 0x2036      |        8246 |
|     112 | 0x2037      |        8247 |
|     113 | 0x0004      |           4 |
|     114 | 0x2038      |        8248 |
|     115 | 0x2039      |        8249 |
|     116 | 0x001A      |          26 |
|     117 | 0x203A      |        8250 |
|     118 | 0x203B      |        8251 |
|     119 | 0x203C      |        8252 |
|     120 | 0x203D      |        8253 |
|     121 | 0x203E      |        8254 |
|     122 | 0x203F      |        8255 |
|     123 | 0x2040      |        8256 |
|     124 | 0x2041      |        8257 |
|     125 | 0x2042      |        8258 |
|     126 | 0x2043      |        8259 |
|     127 | 0x2044      |        8260 |
|     128 | 0x2045      |        8261 |
|     129 | 0x2046      |        8262 |
|     130 | 0x2047      |        8263 |
|     131 | 0x2048      |        8264 |
|     132 | 0x2049      |        8265 |
|     133 | 0x204A      |        8266 |
|     134 | 0x204B      |        8267 |
|     135 | 0x204C      |        8268 |
|     136 | 0x204D      |        8269 |
|     137 | 0x204E      |        8270 |
|     138 | 0x2050      |        8272 |
|     139 | 0x2051      |        8273 |
|     140 | 0x2052      |        8274 |
|     141 | 0x2053      |        8275 |
|     142 | 0x2054      |        8276 |
|     143 | 0x2055      |        8277 |
|     144 | 0x0007      |           7 |
|     145 | 0x2056      |        8278 |
|     146 | 0x2057      |        8279 |
|     147 | 0x2058      |        8280 |
|     148 | 0x2059      |        8281 |
|     149 | 0x205A      |        8282 |
|     150 | 0x205B      |        8283 |
|     151 | 0x00EC      |         236 |
|     152 | 0x0098      |         152 |
|     153 | 0x0226      |         550 |
|     154 | 0x0005      |           5 |
|     155 | 0x205C      |        8284 |
|     156 | 0x205D      |        8285 |
|     157 | 0x0019      |          25 |
|     158 | 0x205E      |        8286 |
|     159 | 0x205F      |        8287 |
|     160 | 0x2060      |        8288 |
|     161 | 0x2061      |        8289 |
|     162 | 0x2062      |        8290 |
|     163 | 0x2063      |        8291 |
|     164 | 0x0024      |          36 |
|     165 | 0x2064      |        8292 |
|     166 | 0x2065      |        8293 |
|     167 | 0x2066      |        8294 |
|     168 | 0x2067      |        8295 |
|     169 | 0x0478      |        1144 |
|     170 | 0x2068      |        8296 |
|     171 | 0x15E2F     |       89647 |
|     172 | 0xFFFF5992  |  4294924690 |
|     173 | 0x2133      |        8499 |
|     174 | 0x0D75      |        3445 |
|     175 | 0x16D50     |       93520 |
|     176 | 0xFFFF540A  |  4294923274 |
|     177 | 0x2107      |        8455 |
|     178 | 0x1654A     |       91466 |
|     179 | 0xFFFF54D6  |  4294923478 |
|     180 | 0x20AF      |        8367 |
|     181 | 0x0D76      |        3446 |
|     182 | 0x2069      |        8297 |
|     183 | 0x0021      |          33 |
|     184 | 0x206A      |        8298 |
|     185 | 0x206B      |        8299 |
|     186 | 0x206C      |        8300 |
|     187 | 0x206D      |        8301 |
|     188 | 0x206E      |        8302 |
|     189 | 0x206F      |        8303 |
|     190 | 0x2070      |        8304 |
|     191 | 0x2071      |        8305 |
|     192 | 0x2072      |        8306 |
|     193 | 0x2073      |        8307 |
|     194 | 0x2074      |        8308 |
|     195 | 0x2075      |        8309 |
|     196 | 0x2076      |        8310 |
|     197 | 0x2077      |        8311 |
|     198 | 0x2078      |        8312 |
|     199 | 0x2079      |        8313 |
|     200 | 0x207A      |        8314 |
|     201 | 0x207B      |        8315 |
|     202 | 0x207C      |        8316 |
|     203 | 0x207D      |        8317 |
|     204 | 0x207E      |        8318 |
|     205 | 0x2080      |        8320 |
|     206 | 0x2081      |        8321 |
|     207 | 0x2082      |        8322 |
|     208 | 0x0023      |          35 |
|     209 | 0x008C      |         140 |
|     210 | 0x0032      |          50 |
|     211 | 0x0003      |           3 |
|     212 | 0x0110      |         272 |
|     213 | 0x03E7      |         999 |
|     214 | 0x1333F     |       78655 |
|     215 | 0xFFFDED74  |  4294831476 |
|     216 | 0x0082      |         130 |
|     217 | 0x125D9     |       75225 |
|     218 | 0xFFFDE80D  |  4294830093 |
|     219 | 0x0D3F      |        3391 |
|     220 | 0x13DA9     |       81321 |
|     221 | 0xFFFDDC7E  |  4294827134 |
|     222 | 0x0BEB      |        3051 |
|     223 | 0x12C59     |       76889 |
|     224 | 0xFFFDDBA5  |  4294826917 |
|     225 | 0x0BEC      |        3052 |
|     226 | 0x14422     |       82978 |
|     227 | 0xFFFDE567  |  4294829415 |
|     228 | 0x0379      |         889 |
|     229 | 0x14F77     |       85879 |
|     230 | 0xFFFDE597  |  4294829463 |
|     231 | 0x03FA      |        1018 |
|     232 | 0x2083      |        8323 |
|     233 | 0x2084      |        8324 |
|     234 | 0x2085      |        8325 |
|     235 | 0x2086      |        8326 |
|     236 | 0x2087      |        8327 |
|     237 | 0x0014      |          20 |
|     238 | 0x0033      |          51 |
|     239 | 0x0137      |         311 |
|     240 | 0x0064      |         100 |
|     241 | 0x2088      |        8328 |
|     242 | 0x000D      |          13 |
|     243 | 0x2089      |        8329 |
|     244 | 0x208A      |        8330 |
|     245 | 0x208B      |        8331 |
|     246 | 0x208C      |        8332 |
|     247 | 0x208D      |        8333 |
|     248 | 0x208E      |        8334 |
|     249 | 0x208F      |        8335 |
|     250 | 0x2090      |        8336 |
|     251 | 0x2091      |        8337 |
|     252 | 0x2092      |        8338 |
|     253 | 0x2093      |        8339 |
|     254 | 0x2094      |        8340 |
|     255 | 0x2095      |        8341 |
|     256 | 0x2096      |        8342 |
|     257 | 0x2097      |        8343 |
|     258 | 0x2098      |        8344 |
|     259 | 0x2099      |        8345 |
|     260 | 0x209A      |        8346 |
|     261 | 0x209B      |        8347 |
|     262 | 0x209C      |        8348 |
|     263 | 0x209D      |        8349 |
|     264 | 0x209E      |        8350 |
|     265 | 0x209F      |        8351 |
|     266 | 0x20A0      |        8352 |
|     267 | 0x20A1      |        8353 |
|     268 | 0x022F      |         559 |
|     269 | 0xB58B      |       46475 |
|     270 | 0x0BCC      |        3020 |
|     271 | 0x0979      |        2425 |
|     272 | 0xC4DB      |       50395 |
|     273 | 0x0514      |        1300 |
|     274 | 0x0345      |         837 |
|     275 | 0x03BF      |         959 |
|     276 | 0x00B9      |         185 |
|     277 | 0x20A2      |        8354 |
|     278 | 0x20A3      |        8355 |
|     279 | 0x20A4      |        8356 |
|     280 | 0x20A5      |        8357 |
|     281 | 0x20A6      |        8358 |
|     282 | 0x20A7      |        8359 |
|     283 | 0x20A8      |        8360 |
|     284 | 0x20A9      |        8361 |
|     285 | 0x20AA      |        8362 |
|     286 | 0x20AB      |        8363 |
|     287 | 0x20AC      |        8364 |
|     288 | 0x20AD      |        8365 |
|     289 | 0x20AE      |        8366 |
|     290 | 0x0347      |         839 |
|     291 | 0x20B0      |        8368 |
|     292 | 0x20B1      |        8369 |
|     293 | 0x20B2      |        8370 |
|     294 | 0x20B3      |        8371 |
|     295 | 0x20B4      |        8372 |
|     296 | 0x20B5      |        8373 |
|     297 | 0x20B6      |        8374 |
|     298 | 0x20B7      |        8375 |
|     299 | 0x20B8      |        8376 |
|     300 | 0x20B9      |        8377 |
|     301 | 0x0002      |           2 |
|     302 | 0x20BA      |        8378 |
|     303 | 0x20BB      |        8379 |
|     304 | 0x20BC      |        8380 |
|     305 | 0x20BD      |        8381 |
|     306 | 0x20BE      |        8382 |
|     307 | 0x20BF      |        8383 |
|     308 | 0x001D      |          29 |
|     309 | 0x20C0      |        8384 |
|     310 | 0x20C1      |        8385 |
|     311 | 0x20C2      |        8386 |
|     312 | 0x20C3      |        8387 |
|     313 | 0x20C4      |        8388 |
|     314 | 0x20C5      |        8389 |
|     315 | 0x20C6      |        8390 |
|     316 | 0x20C7      |        8391 |
|     317 | 0x20C8      |        8392 |
|     318 | 0x20C9      |        8393 |
|     319 | 0x20CA      |        8394 |
|     320 | 0x20CB      |        8395 |
|     321 | 0x20CC      |        8396 |
|     322 | 0x0109      |         265 |
|     323 | 0x004B      |          75 |
|     324 | 0x1CD8      |        7384 |
|     325 | 0x1CD9      |        7385 |
|     326 | 0x1CDA      |        7386 |
|     327 | 0x1CDB      |        7387 |
|     328 | 0x1CDC      |        7388 |
|     329 | 0x1CDD      |        7389 |
|     330 | 0x1CDE      |        7390 |
|     331 | 0x1CDF      |        7391 |
|     332 | 0x1CE0      |        7392 |
|     333 | 0x034E      |         846 |
|     334 | 0x0096      |         150 |
|     335 | 0x1CE1      |        7393 |
|     336 | 0x1CE2      |        7394 |
|     337 | 0x1CE3      |        7395 |
|     338 | 0x1CE4      |        7396 |
|     339 | 0x00B4      |         180 |
|     340 | 0x1CE5      |        7397 |
|     341 | 0x1CE6      |        7398 |
|     342 | 0x1CE7      |        7399 |
|     343 | 0x1CE8      |        7400 |
|     344 | 0x1CE9      |        7401 |
|     345 | 0x1CEA      |        7402 |
|     346 | 0x1CEB      |        7403 |
|     347 | 0x0052      |          82 |
|     348 | 0x1CEC      |        7404 |
|     349 | 0x1CED      |        7405 |
|     350 | 0x1CEE      |        7406 |
|     351 | 0x1CEF      |        7407 |
|     352 | 0x1CF0      |        7408 |
|     353 | 0x1CF1      |        7409 |
|     354 | 0x00D4      |         212 |
|     355 | 0x1CF2      |        7410 |
|     356 | 0x00D5      |         213 |
|     357 | 0x1CF4      |        7412 |
|     358 | 0x00D6      |         214 |
|     359 | 0x004D      |          77 |
|     360 | 0x1CF3      |        7411 |
|     361 | 0x00D7      |         215 |
|     362 | 0x008A      |         138 |
|     363 | 0x0118      |         280 |
|     364 | 0x1CF6      |        7414 |
|     365 | 0x1CF7      |        7415 |
|     366 | 0x1CF8      |        7416 |
|     367 | 0x006E      |         110 |
|     368 | 0x1CF9      |        7417 |
|     369 | 0x1CFA      |        7418 |
|     370 | 0x0041      |          65 |
|     371 | 0x00D8      |         216 |
|     372 | 0x1CFB      |        7419 |
|     373 | 0x00FA      |         250 |
|     374 | 0x1CFC      |        7420 |
|     375 | 0x1CFD      |        7421 |
|     376 | 0x1CFE      |        7422 |
|     377 | 0x1CFF      |        7423 |
|     378 | 0x007F      |         127 |
|     379 | 0x0073      |         115 |
|     380 | 0x0318      |         792 |
|     381 | 0x010A      |         266 |
|     382 | 0x1D00      |        7424 |
|     383 | 0x1D01      |        7425 |
|     384 | 0x1D02      |        7426 |
|     385 | 0x1D03      |        7427 |
|     386 | 0x010B      |         267 |
|     387 | 0x01C2      |         450 |
|     388 | 0x1D04      |        7428 |
|     389 | 0x1D05      |        7429 |
|     390 | 0x0027      |          39 |
|     391 | 0x1D06      |        7430 |
|     392 | 0x0022      |          34 |
|     393 | 0x1D07      |        7431 |
|     394 | 0x1D08      |        7432 |
|     395 | 0x1D09      |        7433 |
|     396 | 0x1D0A      |        7434 |
|     397 | 0x1D0B      |        7435 |
|     398 | 0x0008      |           8 |
|     399 | 0x1D0C      |        7436 |
|     400 | 0x1D0D      |        7437 |
|     401 | 0x1D0E      |        7438 |
|     402 | 0x1D0F      |        7439 |
|     403 | 0x1D10      |        7440 |
|     404 | 0x1D11      |        7441 |
|     405 | 0x1D12      |        7442 |
|     406 | 0x1D13      |        7443 |
|     407 | 0x1D14      |        7444 |
|     408 | 0x1D15      |        7445 |
|     409 | 0x1D16      |        7446 |
|     410 | 0x1D17      |        7447 |
|     411 | 0x1D18      |        7448 |
|     412 | 0x1D19      |        7449 |
|     413 | 0x1D1A      |        7450 |
|     414 | 0x1D1B      |        7451 |
|     415 | 0x1D1C      |        7452 |
|     416 | 0x103217C   |    16982396 |
|     417 | 0x1D1D      |        7453 |
|     418 | 0x1D1E      |        7454 |
|     419 | 0x1D1F      |        7455 |
|     420 | 0x1D20      |        7456 |
|     421 | 0x1D21      |        7457 |
|     422 | 0x1D22      |        7458 |
|     423 | 0x1D23      |        7459 |
|     424 | 0x1D24      |        7460 |
|     425 | 0x1D25      |        7461 |
|     426 | 0x1D26      |        7462 |
|     427 | 0x1D27      |        7463 |
|     428 | 0x034A      |         842 |
|     429 | 0x1D2D      |        7469 |
|     430 | 0x1D2E      |        7470 |
|     431 | 0x1D2F      |        7471 |
|     432 | 0x1D30      |        7472 |
|     433 | 0x1D31      |        7473 |
|     434 | 0x034B      |         843 |
|     435 | 0x1D32      |        7474 |
|     436 | 0x1D33      |        7475 |
|     437 | 0x1D34      |        7476 |
|     438 | 0x1D35      |        7477 |
|     439 | 0x1D36      |        7478 |
|     440 | 0x1D38      |        7480 |
|     441 | 0x1D37      |        7479 |
|     442 | 0x1D39      |        7481 |
|     443 | 0x1D3A      |        7482 |
|     444 | 0x1D3C      |        7484 |
|     445 | 0x1D3D      |        7485 |
|     446 | 0x1D3E      |        7486 |
|     447 | 0x1D3F      |        7487 |
|     448 | 0x1D40      |        7488 |
|     449 | 0x1D41      |        7489 |
|     450 | 0x1D42      |        7490 |
|     451 | 0x1D43      |        7491 |
|     452 | 0x1D3B      |        7483 |
|     453 | 0x1D44      |        7492 |
|     454 | 0x1D2A      |        7466 |
|     455 | 0x1D2B      |        7467 |
|     456 | 0x1D2C      |        7468 |
|     457 | 0x011B      |         283 |
|     458 | 0x1D45      |        7493 |
|     459 | 0x1D46      |        7494 |
|     460 | 0x1D47      |        7495 |
|     461 | 0x1D48      |        7496 |
|     462 | 0x1D49      |        7497 |
|     463 | 0x1D4A      |        7498 |
|     464 | 0x1D4B      |        7499 |
|     465 | 0x1D4C      |        7500 |
|     466 | 0x1D4D      |        7501 |
|     467 | 0x011D      |         285 |
|     468 | 0x1D4E      |        7502 |
|     469 | 0x00AC      |         172 |
|     470 | 0x1D4F      |        7503 |
|     471 | 0x1D50      |        7504 |
|     472 | 0x1D51      |        7505 |
|     473 | 0x1D52      |        7506 |
|     474 | 0x1D53      |        7507 |
|     475 | 0x1D54      |        7508 |
|     476 | 0x1D55      |        7509 |
|     477 | 0x1D56      |        7510 |
|     478 | 0x1D57      |        7511 |
|     479 | 0x1D58      |        7512 |
|     480 | 0x1D59      |        7513 |
|     481 | 0x1D5A      |        7514 |
|     482 | 0x1D5B      |        7515 |
|     483 | 0x1D5C      |        7516 |
|     484 | 0x1D5D      |        7517 |
|     485 | 0x1D5E      |        7518 |
|     486 | 0x1D5F      |        7519 |
|     487 | 0x1D60      |        7520 |
|     488 | 0x1D61      |        7521 |
|     489 | 0x1D62      |        7522 |
|     490 | 0x0350      |         848 |
|     491 | 0x1D63      |        7523 |
|     492 | 0x1D64      |        7524 |
|     493 | 0x037E      |         894 |
|     494 | 0x0122      |         290 |
|     495 | 0x289B      |       10395 |
|     496 | 0x289C      |       10396 |
|     497 | 0x289D      |       10397 |
|     498 | 0x289E      |       10398 |
|     499 | 0x289F      |       10399 |
|     500 | 0x28A0      |       10400 |
|     501 | 0x28A1      |       10401 |
|     502 | 0x28A2      |       10402 |
|     503 | 0x28A3      |       10403 |
|     504 | 0x28A4      |       10404 |
|     505 | 0x28A5      |       10405 |
|     506 | 0x28A6      |       10406 |
|     507 | 0x28A7      |       10407 |
|     508 | 0x28A8      |       10408 |
|     509 | 0x28A9      |       10409 |
|     510 | 0x28AA      |       10410 |
|     511 | 0x28AB      |       10411 |
|     512 | 0x28AC      |       10412 |
|     513 | 0x28AD      |       10413 |
|     514 | 0x28AE      |       10414 |
|     515 | 0x28AF      |       10415 |
|     516 | 0x28B0      |       10416 |
|     517 | 0x28B1      |       10417 |
|     518 | 0x28B2      |       10418 |
|     519 | 0x28B3      |       10419 |
|     520 | 0x28B5      |       10421 |
|     521 | 0x28B4      |       10420 |
|     522 | 0x28B6      |       10422 |
|     523 | 0x108A3     |       67747 |
|     524 | 0xFFFE0D6B  |  4294839659 |
|     525 | 0xFFFFE69D  |  4294960797 |
|     526 | 0x0D7D      |        3453 |
|     527 | 0x28B7      |       10423 |
|     528 | 0x28B8      |       10424 |
|     529 | 0x28B9      |       10425 |
|     530 | 0x28BA      |       10426 |
|     531 | 0x28BB      |       10427 |
|     532 | 0x28BC      |       10428 |
|     533 | 0x28BD      |       10429 |
|     534 | 0x28BE      |       10430 |
|     535 | 0x28BF      |       10431 |
|     536 | 0x28C0      |       10432 |
|     537 | 0x28C1      |       10433 |
|     538 | 0x28C3      |       10435 |
|     539 | 0x28C4      |       10436 |
|     540 | 0x28C5      |       10437 |
|     541 | 0x28C6      |       10438 |
|     542 | 0x28C7      |       10439 |
|     543 | 0x28C8      |       10440 |
|     544 | 0x28C9      |       10441 |
|     545 | 0x28CA      |       10442 |
|     546 | 0x28CB      |       10443 |
|     547 | 0x28CD      |       10445 |
|     548 | 0x28CE      |       10446 |
|     549 | 0x28CF      |       10447 |
|     550 | 0x28D0      |       10448 |
|     551 | 0x28D1      |       10449 |
|     552 | 0x28D2      |       10450 |
|     553 | 0x28D3      |       10451 |
|     554 | 0x28D4      |       10452 |
|     555 | 0x28D5      |       10453 |
|     556 | 0x28D6      |       10454 |
|     557 | 0x28D7      |       10455 |
|     558 | 0x28D8      |       10456 |
|     559 | 0x28D9      |       10457 |
|     560 | 0x28DA      |       10458 |
|     561 | 0x28DB      |       10459 |
|     562 | 0x28DC      |       10460 |
|     563 | 0x28DD      |       10461 |
|     564 | 0x0046      |          70 |
|     565 | 0x28DE      |       10462 |
|     566 | 0x28DF      |       10463 |
|     567 | 0x28E0      |       10464 |
|     568 | 0x28E1      |       10465 |
|     569 | 0x28E2      |       10466 |
|     570 | 0x28E3      |       10467 |
|     571 | 0x28E4      |       10468 |
|     572 | 0x28E5      |       10469 |
|     573 | 0x28E6      |       10470 |
|     574 | 0xFFFDED87  |  4294831495 |
|     575 | 0xFFFDD845  |  4294826053 |
|     576 | 0x1DC8      |        7624 |
|     577 | 0x03E1      |         993 |
|     578 | 0x28E8      |       10472 |
|     579 | 0x28E9      |       10473 |
|     580 | 0x28EA      |       10474 |
|     581 | 0x28EB      |       10475 |
|     582 | 0x28EC      |       10476 |
|     583 | 0x28ED      |       10477 |
|     584 | 0x28EE      |       10478 |
|     585 | 0x28EF      |       10479 |
|     586 | 0x28F0      |       10480 |
|     587 | 0x28F1      |       10481 |
|     588 | 0x28F2      |       10482 |
|     589 | 0x28F3      |       10483 |
|     590 | 0x28F4      |       10484 |
|     591 | 0x28F5      |       10485 |
|     592 | 0x28F6      |       10486 |
|     593 | 0x28F7      |       10487 |
|     594 | 0x28F8      |       10488 |
|     595 | 0x28F9      |       10489 |
|     596 | 0x28FA      |       10490 |
|     597 | 0x28FB      |       10491 |
|     598 | 0x28FC      |       10492 |
|     599 | 0x28FD      |       10493 |
|     600 | 0x28FE      |       10494 |
|     601 | 0x28FF      |       10495 |
|     602 | 0x2900      |       10496 |
|     603 | 0x2901      |       10497 |
|     604 | 0x2902      |       10498 |
|     605 | 0x2903      |       10499 |
|     606 | 0x2904      |       10500 |
|     607 | 0x2905      |       10501 |
|     608 | 0x2906      |       10502 |
|     609 | 0x2907      |       10503 |
|     610 | 0x2908      |       10504 |
|     611 | 0x2909      |       10505 |
|     612 | 0x290A      |       10506 |
|     613 | 0x290B      |       10507 |
|     614 | 0x01D6      |         470 |
|     615 | 0x00FE      |         254 |
|     616 | 0x12468     |       74856 |
|     617 | 0xFFFE1491  |  4294841489 |
|     618 | 0x0816      |        2070 |
|     619 | 0x12082     |       73858 |
|     620 | 0xFFFE1718  |  4294842136 |
|     621 | 0x07D0      |        2000 |
|     622 | 0x289A      |       10394 |
|     623 | 0x290C      |       10508 |
|     624 | 0x0029      |          41 |
|     625 | 0x290D      |       10509 |
|     626 | 0x10726     |       67366 |
|     627 | 0xFFFDFB4F  |  4294835023 |
|     628 | 0x0050      |          80 |
|     629 | 0x290E      |       10510 |
|     630 | 0x290F      |       10511 |
|     631 | 0x2910      |       10512 |
|     632 | 0x2911      |       10513 |
|     633 | 0x2912      |       10514 |
|     634 | 0x00B6      |         182 |
|     635 | 0x2913      |       10515 |
|     636 | 0x2914      |       10516 |
|     637 | 0x117A9     |       71593 |
|     638 | 0xFFFE117F  |  4294840703 |
|     639 | 0x11596     |       71062 |
|     640 | 0xFFFDFEC6  |  4294835910 |
|     641 | 0x03E8      |        1000 |
|     642 | 0x2915      |       10517 |
|     643 | 0x0028      |          40 |
|     644 | 0x2916      |       10518 |
|     645 | 0x2917      |       10519 |
|     646 | 0x2918      |       10520 |
|     647 | 0x2919      |       10521 |
|     648 | 0x02CE      |         718 |
|     649 | 0x291A      |       10522 |
|     650 | 0x291B      |       10523 |
|     651 | 0x291C      |       10524 |
|     652 | 0x291D      |       10525 |
|     653 | 0x291E      |       10526 |
|     654 | 0x291F      |       10527 |
|     655 | 0x2920      |       10528 |
|     656 | 0x2921      |       10529 |
|     657 | 0x2922      |       10530 |
|     658 | 0x2923      |       10531 |
|     659 | 0x00AE      |         174 |
|     660 | 0x2924      |       10532 |
|     661 | 0x2925      |       10533 |
|     662 | 0x2926      |       10534 |
|     663 | 0x2927      |       10535 |
|     664 | 0x2928      |       10536 |
|     665 | 0x2929      |       10537 |
|     666 | 0x0258      |         600 |
|     667 | 0x292A      |       10538 |
|     668 | 0x292B      |       10539 |
|     669 | 0x104F5     |       66805 |
|     670 | 0xFFFE3901  |  4294850817 |
|     671 | 0x0F81      |        3969 |
|     672 | 0xFE4F      |       65103 |
|     673 | 0xFFFE3250  |  4294849104 |
|     674 | 0x0F82      |        3970 |
|     675 | 0x00B7      |         183 |
|     676 | 0x292C      |       10540 |
|     677 | 0x292D      |       10541 |
|     678 | 0x292E      |       10542 |
|     679 | 0x292F      |       10543 |
|     680 | 0x2930      |       10544 |
|     681 | 0x0123      |         291 |
|     682 | 0x2931      |       10545 |
|     683 | 0x2932      |       10546 |
|     684 | 0x10FF1     |       69617 |
|     685 | 0xFFFE1C5E  |  4294843486 |
|     686 | 0x2933      |       10547 |
|     687 | 0x2934      |       10548 |
|     688 | 0x12C76     |       76918 |
|     689 | 0xFFFE2490  |  4294845584 |
|     690 | 0xFFFFE891  |  4294961297 |
|     691 | 0x2935      |       10549 |
|     692 | 0x2936      |       10550 |
|     693 | 0x2937      |       10551 |
|     694 | 0x038C      |         908 |
|     695 | 0x2938      |       10552 |
|     696 | 0x039F      |         927 |
|     697 | 0x2939      |       10553 |
|     698 | 0x293A      |       10554 |
|     699 | 0x293B      |       10555 |
|     700 | 0x293C      |       10556 |
|     701 | 0x293D      |       10557 |
|     702 | 0x293E      |       10558 |
|     703 | 0x293F      |       10559 |
|     704 | 0x2940      |       10560 |
|     705 | 0x2941      |       10561 |
|     706 | 0x2942      |       10562 |
|     707 | 0x2943      |       10563 |
|     708 | 0x2944      |       10564 |
|     709 | 0x2945      |       10565 |
|     710 | 0x2946      |       10566 |
|     711 | 0x2947      |       10567 |
|     712 | 0x2948      |       10568 |
|     713 | 0x2949      |       10569 |
|     714 | 0x294A      |       10570 |
|     715 | 0x294B      |       10571 |
|     716 | 0x294C      |       10572 |
|     717 | 0x012C      |         300 |
|     718 | 0x12D00     |       77056 |
|     719 | 0xFFFE32F9  |  4294849273 |
|     720 | 0xFFFFE60E  |  4294960654 |
|     721 | 0x12F1C     |       77596 |
|     722 | 0xFFFE2C0E  |  4294847502 |
|     723 | 0x294D      |       10573 |
|     724 | 0x294E      |       10574 |
|     725 | 0x037B      |         891 |
|     726 | 0x294F      |       10575 |
|     727 | 0x2950      |       10576 |
|     728 | 0x039E      |         926 |
|     729 | 0x1045      |        4165 |
|     730 | 0x2951      |       10577 |
|     731 | 0x2952      |       10578 |
|     732 | 0x038B      |         907 |
|     733 | 0x2953      |       10579 |
|     734 | 0x00DC      |         220 |
|     735 | 0x0391      |         913 |
|     736 | 0x2954      |       10580 |
|     737 | 0x035A      |         858 |
|     738 | 0x2955      |       10581 |
|     739 | 0x0392      |         914 |
|     740 | 0x038A      |         906 |
|     741 | 0x2956      |       10582 |
|     742 | 0x2957      |       10583 |
|     743 | 0x2958      |       10584 |
|     744 | 0x2959      |       10585 |
|     745 | 0x295A      |       10586 |
|     746 | 0x00AF      |         175 |
|     747 | 0x295B      |       10587 |
|     748 | 0x295C      |       10588 |
|     749 | 0x295D      |       10589 |
|     750 | 0x295E      |       10590 |
|     751 | 0x295F      |       10591 |
|     752 | 0x2960      |       10592 |
|     753 | 0x2961      |       10593 |
|     754 | 0x2962      |       10594 |
|     755 | 0x2963      |       10595 |
|     756 | 0x2964      |       10596 |
|     757 | 0x2965      |       10597 |
|     758 | 0x2966      |       10598 |
|     759 | 0x2967      |       10599 |
|     760 | 0x2968      |       10600 |
|     761 | 0x2969      |       10601 |
|     762 | 0x296A      |       10602 |
|     763 | 0x296B      |       10603 |
|     764 | 0x296C      |       10604 |
|     765 | 0x296D      |       10605 |
|     766 | 0x296E      |       10606 |
|     767 | 0x296F      |       10607 |
|     768 | 0x2970      |       10608 |
|     769 | 0x2971      |       10609 |
|     770 | 0x10FA2     |       69538 |
|     771 | 0xFFFE1972  |  4294842738 |
|     772 | 0xFFFFE69C  |  4294960796 |
|     773 | 0x2972      |       10610 |
|     774 | 0x00B5      |         181 |
|     775 | 0x2973      |       10611 |
|     776 | 0x2974      |       10612 |
|     777 | 0x2975      |       10613 |
|     778 | 0x0233      |         563 |
|     779 | 0x58AC      |       22700 |
|     780 | 0xFFFF4DE9  |  4294921705 |
|     781 | 0xFFFFE184  |  4294959492 |
|     782 | 0x843C      |       33852 |
|     783 | 0xFFFF3003  |  4294914051 |
|     784 | 0xFFFFE637  |  4294960695 |
|     785 | 0x0B1C      |        2844 |
|     786 | 0x6642      |       26178 |
|     787 | 0xFFFF1F45  |  4294909765 |
|     788 | 0x0FD7      |        4055 |
|     789 | 0x03AA      |         938 |
|     790 | 0x2976      |       10614 |
|     791 | 0x2977      |       10615 |
|     792 | 0x2978      |       10616 |
|     793 | 0x2979      |       10617 |
|     794 | 0x297A      |       10618 |
|     795 | 0x297B      |       10619 |
|     796 | 0x297C      |       10620 |
|     797 | 0x297D      |       10621 |
|     798 | 0x297E      |       10622 |
|     799 | 0x297F      |       10623 |
|     800 | 0x2980      |       10624 |
|     801 | 0x2981      |       10625 |
|     802 | 0x2982      |       10626 |
|     803 | 0x2983      |       10627 |
|     804 | 0x2984      |       10628 |
|     805 | 0x81EC      |       33260 |
|     806 | 0xFFFF3473  |  4294915187 |
|     807 | 0x0B07      |        2823 |
|     808 | 0x2985      |       10629 |
|     809 | 0x8852      |       34898 |
|     810 | 0xFFFF2263  |  4294910563 |
|     811 | 0xFFFFE633  |  4294960691 |
|     812 | 0x2986      |       10630 |
|     813 | 0x2987      |       10631 |
|     814 | 0x2988      |       10632 |
|     815 | 0x2989      |       10633 |
|     816 | 0x298A      |       10634 |
|     817 | 0x298B      |       10635 |
|     818 | 0x298C      |       10636 |
|     819 | 0x655D      |       25949 |
|     820 | 0xFFFF4993  |  4294920595 |
|     821 | 0x00A7      |         167 |
|     822 | 0x67F3      |       26611 |
|     823 | 0xFFFF4D8E  |  4294921614 |
|     824 | 0x0FE1      |        4065 |
|     825 | 0x6D92      |       28050 |
|     826 | 0xFFFF560F  |  4294923791 |
|     827 | 0x0696      |        1686 |
|     828 | 0x298D      |       10637 |
|     829 | 0x298E      |       10638 |
|     830 | 0x5C34      |       23604 |
|     831 | 0xFFFF4683  |  4294919811 |
|     832 | 0x0F39      |        3897 |
|     833 | 0x298F      |       10639 |
|     834 | 0x2990      |       10640 |
|     835 | 0x2991      |       10641 |
|     836 | 0x2992      |       10642 |
|     837 | 0x2993      |       10643 |
|     838 | 0x2994      |       10644 |
|     839 | 0x2995      |       10645 |
|     840 | 0x2996      |       10646 |
|     841 | 0x0356      |         854 |
|     842 | 0x2997      |       10647 |
|     843 | 0x2998      |       10648 |
|     844 | 0x2999      |       10649 |
|     845 | 0x299A      |       10650 |
|     846 | 0x299B      |       10651 |
|     847 | 0x299C      |       10652 |
|     848 | 0x299D      |       10653 |
|     849 | 0x299E      |       10654 |
|     850 | 0x299F      |       10655 |
|     851 | 0x2897      |       10391 |
|     852 | 0x29A0      |       10656 |
|     853 | 0x29A1      |       10657 |
|     854 | 0x29A2      |       10658 |
|     855 | 0x29A3      |       10659 |
|     856 | 0x29A4      |       10660 |
|     857 | 0x0341      |         833 |
|     858 | 0x29A5      |       10661 |
|     859 | 0x29A6      |       10662 |
|     860 | 0x29A7      |       10663 |
|     861 | 0x0343      |         835 |
|     862 | 0x29A8      |       10664 |
|     863 | 0x29A9      |       10665 |
|     864 | 0x29AA      |       10666 |
|     865 | 0x29AB      |       10667 |
|     866 | 0x29AC      |       10668 |
|     867 | 0x29AD      |       10669 |
|     868 | 0x29AE      |       10670 |
|     869 | 0x29AF      |       10671 |
|     870 | 0x29B0      |       10672 |
|     871 | 0x29B1      |       10673 |
|     872 | 0x29B2      |       10674 |
|     873 | 0x29B3      |       10675 |
|     874 | 0x29B4      |       10676 |
|     875 | 0x29B5      |       10677 |
|     876 | 0x29B6      |       10678 |
|     877 | 0x29B7      |       10679 |
|     878 | 0x29B8      |       10680 |
|     879 | 0x8A7B      |       35451 |
|     880 | 0xFFFF3551  |  4294915409 |
|     881 | 0x00A9      |         169 |
|     882 | 0x29B9      |       10681 |
|     883 | 0x29BA      |       10682 |
|     884 | 0x29BB      |       10683 |
|     885 | 0x29BC      |       10684 |
|     886 | 0x29BD      |       10685 |
|     887 | 0x29BE      |       10686 |
|     888 | 0x29BF      |       10687 |
|     889 | 0x58A6      |       22694 |
|     890 | 0xFFFF60AA  |  4294926506 |
|     891 | 0xFFFFE188  |  4294959496 |
|     892 | 0x0FC6      |        4038 |
|     893 | 0x5EA6      |       24230 |
|     894 | 0xFFFF5F99  |  4294926233 |
|     895 | 0x069E      |        1694 |
|     896 | 0x29C2      |       10690 |
|     897 | 0x29C3      |       10691 |
|     898 | 0x29C4      |       10692 |
|     899 | 0x29C5      |       10693 |
|     900 | 0x6006      |       24582 |
|     901 | 0xFFFF583A  |  4294924346 |
|     902 | 0x0114      |         276 |
|     903 | 0x29C6      |       10694 |
|     904 | 0x29C7      |       10695 |
|     905 | 0x87BF      |       34751 |
|     906 | 0xFFFF3D35  |  4294917429 |
|     907 | 0xFFFFE4CF  |  4294960335 |
|     908 | 0x29C8      |       10696 |
|     909 | 0x29C9      |       10697 |
|     910 | 0x29CA      |       10698 |
|     911 | 0x29CB      |       10699 |
|     912 | 0x29CE      |       10702 |
|     913 | 0x29CC      |       10700 |
|     914 | 0x29CD      |       10701 |
|     915 | 0x29CF      |       10703 |
|     916 | 0x29D0      |       10704 |
|     917 | 0x29D1      |       10705 |
|     918 | 0x29D2      |       10706 |
|     919 | 0x29D3      |       10707 |
|     920 | 0x29D4      |       10708 |
|     921 | 0x29D5      |       10709 |
|     922 | 0x29D6      |       10710 |
|     923 | 0x29D7      |       10711 |
|     924 | 0xFFFFD896  |  4294957206 |
|     925 | 0x9562      |       38242 |
|     926 | 0x0419      |        1049 |
|     927 | 0x2279      |        8825 |
|     928 | 0x29D8      |       10712 |
|     929 | 0x29D9      |       10713 |
|     930 | 0x29DA      |       10714 |
|     931 | 0x03A7      |         935 |
|     932 | 0x29DB      |       10715 |
|     933 | 0x29DC      |       10716 |
|     934 | 0xFFFFF834  |  4294965300 |
|     935 | 0x50CF      |       20687 |
|     936 | 0x0DDB      |        3547 |
|     937 | 0x29DD      |       10717 |
|     938 | 0x29DE      |       10718 |
|     939 | 0x29DF      |       10719 |
|     940 | 0x29E0      |       10720 |
|     941 | 0x29E1      |       10721 |
|     942 | 0x29E2      |       10722 |
|     943 | 0x29E3      |       10723 |
|     944 | 0x05A4      |        1444 |
|     945 | 0x6186      |       24966 |
|     946 | 0x0DDC      |        3548 |
|     947 | 0x29E4      |       10724 |
|     948 | 0x29E5      |       10725 |
|     949 | 0x29E6      |       10726 |
|     950 | 0x29E7      |       10727 |
|     951 | 0xFFFFFBDD  |  4294966237 |
|     952 | 0x3B9D      |       15261 |
|     953 | 0x0BC9      |        3017 |
|     954 | 0x29E8      |       10728 |
|     955 | 0x29E9      |       10729 |
|     956 | 0x29EA      |       10730 |
|     957 | 0x29EB      |       10731 |
|     958 | 0x29EC      |       10732 |
|     959 | 0x0399      |         921 |
|     960 | 0x29ED      |       10733 |
|     961 | 0x29EE      |       10734 |
|     962 | 0xFFFFFC0B  |  4294966283 |
|     963 | 0x6384      |       25476 |
|     964 | 0x29EF      |       10735 |
|     965 | 0x29F0      |       10736 |
|     966 | 0x29F1      |       10737 |
|     967 | 0xFFFFFFED  |  4294967277 |
|     968 | 0x6FB6      |       28598 |
|     969 | 0x0393      |         915 |
|     970 | 0x03A6      |         934 |
|     971 | 0x29F3      |       10739 |
|     972 | 0x29F4      |       10740 |
|     973 | 0x29F5      |       10741 |
|     974 | 0x29F6      |       10742 |
|     975 | 0x29F7      |       10743 |
|     976 | 0x29F8      |       10744 |
|     977 | 0x29F9      |       10745 |
|     978 | 0x29FA      |       10746 |
|     979 | 0x29FB      |       10747 |
|     980 | 0x29FC      |       10748 |
|     981 | 0x29FD      |       10749 |
|     982 | 0x29FE      |       10750 |
|     983 | 0x29FF      |       10751 |
|     984 | 0x2A00      |       10752 |
|     985 | 0xFFFFF8F1  |  4294965489 |
|     986 | 0x85FB      |       34299 |
|     987 | 0x035F      |         863 |
|     988 | 0x2A01      |       10753 |
|     989 | 0x2A02      |       10754 |
|     990 | 0x2A03      |       10755 |
|     991 | 0x2A04      |       10756 |
|     992 | 0x2A05      |       10757 |
|     993 | 0x2A06      |       10758 |
|     994 | 0x2A07      |       10759 |
|     995 | 0x2A08      |       10760 |
|     996 | 0x2A09      |       10761 |
|     997 | 0x2A0A      |       10762 |
|     998 | 0x2A0B      |       10763 |
|     999 | 0x2A0C      |       10764 |
|    1000 | 0x2A0D      |       10765 |
|    1001 | 0x2A0E      |       10766 |
|    1002 | 0x2A0F      |       10767 |
|    1003 | 0x2A10      |       10768 |
|    1004 | 0x2A11      |       10769 |
|    1005 | 0x2A12      |       10770 |
|    1006 | 0x2A13      |       10771 |
|    1007 | 0x2A14      |       10772 |
|    1008 | 0x6FF1      |       28657 |
|    1009 | 0xFFFF4DAE  |  4294921646 |
|    1010 | 0x66A3      |       26275 |
|    1011 | 0xFFFF5163  |  4294922595 |
|    1012 | 0x6574      |       25972 |
|    1013 | 0xFFFF558D  |  4294923661 |
|    1014 | 0x00F1      |         241 |
|    1015 | 0x662B      |       26155 |
|    1016 | 0xFFFF4897  |  4294920343 |
|    1017 | 0x64C3      |       25795 |
|    1018 | 0xFFFF4D50  |  4294921552 |
|    1019 | 0x88FC      |       35068 |
|    1020 | 0xFFFF2C05  |  4294913029 |
|    1021 | 0x0C0A      |        3082 |
|    1022 | 0x0355      |         853 |
|    1023 | 0x2A15      |       10773 |
|    1024 | 0x2A16      |       10774 |
|    1025 | 0x2A18      |       10776 |
|    1026 | 0x2A19      |       10777 |
|    1027 | 0x2A1A      |       10778 |
|    1028 | 0x2A1B      |       10779 |
|    1029 | 0x2A1C      |       10780 |
|    1030 | 0x2A1D      |       10781 |
|    1031 | 0x2A1E      |       10782 |
|    1032 | 0x2A1F      |       10783 |
|    1033 | 0x2A20      |       10784 |
|    1034 | 0x2A21      |       10785 |
|    1035 | 0x2A22      |       10786 |
|    1036 | 0x2A23      |       10787 |
|    1037 | 0x2A24      |       10788 |
|    1038 | 0x2A25      |       10789 |
|    1039 | 0x2A26      |       10790 |
|    1040 | 0x2A27      |       10791 |
|    1041 | 0x2A28      |       10792 |
|    1042 | 0x2A29      |       10793 |
|    1043 | 0x2A2A      |       10794 |
|    1044 | 0x2A2B      |       10795 |
|    1045 | 0x2A2C      |       10796 |
|    1046 | 0x2A2D      |       10797 |
|    1047 | 0x2A2E      |       10798 |
|    1048 | 0x2A2F      |       10799 |
|    1049 | 0x2A30      |       10800 |
|    1050 | 0x2A31      |       10801 |
|    1051 | 0x2A32      |       10802 |
|    1052 | 0x2A33      |       10803 |
|    1053 | 0x2A34      |       10804 |
|    1054 | 0x2A35      |       10805 |
|    1055 | 0x2A36      |       10806 |
|    1056 | 0x2A37      |       10807 |
|    1057 | 0x2A38      |       10808 |
|    1058 | 0x7ECD      |       32461 |
|    1059 | 0xFFFF4086  |  4294918278 |
|    1060 | 0xFFFFE3E1  |  4294960097 |
|    1061 | 0x0806      |        2054 |
|    1062 | 0x2A39      |       10809 |
|    1063 | 0x6373      |       25459 |
|    1064 | 0xFFFF55AF  |  4294923695 |
|    1065 | 0x00F3      |         243 |
|    1066 | 0x2A3A      |       10810 |
|    1067 | 0x2A3B      |       10811 |
|    1068 | 0x2A3C      |       10812 |
|    1069 | 0x2A3D      |       10813 |
|    1070 | 0x2A3E      |       10814 |
|    1071 | 0x2A3F      |       10815 |
|    1072 | 0x2A40      |       10816 |
|    1073 | 0x2A41      |       10817 |
|    1074 | 0x2A42      |       10818 |
|    1075 | 0x2A43      |       10819 |
|    1076 | 0x2A44      |       10820 |
|    1077 | 0x2A45      |       10821 |
|    1078 | 0x6457      |       25687 |
|    1079 | 0xFFFF4896  |  4294920342 |
|    1080 | 0x07D1      |        2001 |
|    1081 | 0x2A46      |       10822 |
|    1082 | 0x2A47      |       10823 |
|    1083 | 0x2A48      |       10824 |

## Events

### Event 65535

#### Metadata

| Field        | Value   |
|--------------|---------|
| Entrypoint   | 0x0000  |
| Data Size    | 1 bytes |
| Instructions | 1       |

```
      00 01 02 03 04 05 06 07  08 09 0A 0B 0C 0D 0E 0F
      -- -- -- -- -- -- -- --  -- -- -- -- -- -- -- --
0000: 00                                                .               
```

#### Opcodes

```
  0: 0x0000 [0x00] END_REQSTACK()
```

### Event 883

#### Metadata

| Field        | Value     |
|--------------|-----------|
| Entrypoint   | 0x0001    |
| Data Size    | 852 bytes |
| Instructions | 105       |

```
      00 01 02 03 04 05 06 07  08 09 0A 0B 0C 0D 0E 0F
      -- -- -- -- -- -- -- --  -- -- -- -- -- -- -- --
0000:    42 45 00 80 F8 FF FF  7F F8 FF FF 7F 66 64 6F   BE..........fdo
0010: 31 01 80 55 00 80 F8 FF  FF 7F F8 FF FF 7F 66 64  1..U..........fd
0020: 6F 31 46 01 38 02 80 75  00 03 80 75 01 92 01 5C  o1F.8..u...u...\
0030: 21 03 01 92 01 5D 21 03  01 92 01 82 20 03 01 92  !....]!..... ...
0040: 01 7E 20 03 01 92 01 53  20 03 01 92 01 54 20 03  .~ ....S ....T .
0050: 01 94 01 F0 FF FF 7F 94  01 5C 21 03 01 22 01 BA  .........\!.."..
0060: 5C 21 03 01 04 80 05 80  06 80 07 80 BA F0 FF FF  \!..............
0070: 7F 08 80 09 80 06 80 0A  80 4A 5C 21 03 01 F0 FF  .........J\!....
0080: FF 7F 1C 0B 80 45 0C 80  F0 FF FF 7F F0 FF FF 7F  .....E..........
0090: 7A 7A 7A 61 01 80 45 00  80 F0 FF FF 7F F0 FF FF  zzza..E.........
00A0: 7F 66 64 69 31 01 80 1C  0B 80 66 0D 80 5C 21 03  .fdi1.....f..\!.
00B0: 01 5C 21 03 01 74 6C 6B  30 2B 5C 21 03 01 0E 80  .\!..tlk0+\!....
00C0: 23 2B 5C 21 03 01 0F 80  23 66 0D 80 5C 21 03 01  #+\!....#f..\!..
00D0: 5C 21 03 01 74 6C 6B 31  1C 0B 80 45 00 80 F8 FF  \!..tlk1...E....
00E0: FF 7F F8 FF FF 7F 66 64  6F 31 01 80 55 00 80 F8  ......fdo1..U...
00F0: FF FF 7F F8 FF FF 7F 66  64 6F 31 52 0C 80 F0 FF  .......fdo1R....
0100: FF 7F F0 FF FF 7F 7A 7A  7A 61 1C 0B 80 66 0D 80  ......zzza...f..
0110: 5C 21 03 01 5C 21 03 01  74 68 6B 31 53 5C 21 03  \!..\!..thk1S\!.
0120: 01 5C 21 03 01 74 68 6B  31 45 0C 80 F0 FF FF 7F  .\!..thk1E......
0130: F0 FF FF 7F 7A 7A 7A 62  01 80 45 00 80 F0 FF FF  ....zzzb..E.....
0140: 7F F0 FF FF 7F 66 64 69  31 01 80 1C 10 80 2B 5C  .....fdi1.....+\
0150: 21 03 01 11 80 23 66 0D  80 5C 21 03 01 5C 21 03  !....#f..\!..\!.
0160: 01 74 68 6B 32 2B 5C 21  03 01 12 80 23 99 5C 21  .thk2+\!....#.\!
0170: 03 01 52 0C 80 F0 FF FF  7F F0 FF FF 7F 7A 7A 7A  ..R..........zzz
0180: 62 45 0C 80 F0 FF FF 7F  F0 FF FF 7F 7A 7A 7A 63  bE..........zzzc
0190: 01 80 6E 5C 21 03 01 13  80 99 5C 21 03 01 2B 5C  ..n\!.....\!..+\
01A0: 21 03 01 14 80 23 99 5C  21 03 01 1C 15 80 6E 5C  !....#.\!.....n\
01B0: 21 03 01 13 80 99 5C 21  03 01 2B 5C 21 03 01 16  !.....\!..+\!...
01C0: 80 23 99 5C 21 03 01 52  0C 80 F0 FF FF 7F F0 FF  .#.\!..R........
01D0: FF 7F 7A 7A 7A 63 45 0C  80 F0 FF FF 7F F0 FF FF  ..zzzcE.........
01E0: 7F 7A 7A 7A 64 01 80 1C  17 80 66 0D 80 5C 21 03  .zzzd.....f..\!.
01F0: 01 5C 21 03 01 74 68 6B  31 2B 5C 21 03 01 18 80  .\!..thk1+\!....
0200: 23 2B 5C 21 03 01 19 80  23 66 0D 80 5C 21 03 01  #+\!....#f..\!..
0210: 5C 21 03 01 74 68 6B 32  53 5C 21 03 01 5C 21 03  \!..thk2S\!..\!.
0220: 01 74 68 6B 32 1C 17 80  6E 5C 21 03 01 01 80 99  .thk2...n\!.....
0230: 5C 21 03 01 2B 5C 21 03  01 1A 80 23 52 0C 80 F0  \!..+\!....#R...
0240: FF FF 7F F0 FF FF 7F 7A  7A 7A 64 45 0C 80 F0 FF  .......zzzdE....
0250: FF 7F F0 FF FF 7F 7A 7A  7A 65 01 80 66 0D 80 5C  ......zzze..f..\
0260: 21 03 01 5C 21 03 01 74  6C 6B 30 2B 5C 21 03 01  !..\!..tlk0+\!..
0270: 1B 80 23 2B 5C 21 03 01  1C 80 23 66 0D 80 5C 21  ..#+\!....#f..\!
0280: 03 01 5C 21 03 01 74 6C  6B 31 52 0C 80 F0 FF FF  ..\!..tlk1R.....
0290: 7F F0 FF FF 7F 7A 7A 7A  65 45 0C 80 F0 FF FF 7F  .....zzzeE......
02A0: F0 FF FF 7F 7A 7A 7A 67  01 80 6E 5C 21 03 01 1D  ....zzzg..n\!...
02B0: 80 99 5C 21 03 01 2B 5C  21 03 01 1E 80 23 2B 5C  ..\!..+\!....#+\
02C0: 21 03 01 1F 80 23 52 0C  80 F0 FF FF 7F F0 FF FF  !....#R.........
02D0: 7F 7A 7A 7A 67 45 0C 80  F0 FF FF 7F F0 FF FF 7F  .zzzgE..........
02E0: 7A 7A 7A 66 01 80 6E 5C  21 03 01 20 80 99 5C 21  zzzf..n\!.. ..\!
02F0: 03 01 2B 5C 21 03 01 21  80 23 1C 22 80 45 00 80  ..+\!..!.#.".E..
0300: F8 FF FF 7F F8 FF FF 7F  66 64 6F 31 01 80 55 00  ........fdo1..U.
0310: 80 F8 FF FF 7F F8 FF FF  7F 66 64 6F 31 1C 17 80  .........fdo1...
0320: 52 0C 80 F0 FF FF 7F F0  FF FF 7F 7A 7A 7A 66 46  R..........zzzfF
0330: 00 45 23 80 F8 FF FF 7F  F8 FF FF 7F 71 73 74 63  .E#.........qstc
0340: 01 80 45 00 80 F0 FF FF  7F F0 FF FF 7F 66 64 69  ..E..........fdi
0350: 32 01 80 21 00                                    2..!.           
```

#### Opcodes

```
  0: 0x0001 [0x42] SET_CLI_EVENT_CANCEL_DATA()
  1: 0x0002 [0x45] LOAD_SCHEDULED_TASK: Load scheduler "fdo1" with entities [EventEntity, EventEntity], work=[200*, 0*]
  2: 0x0013 [0x55] WAIT_LOAD_SCHEDULER: Wait for scheduler "fdo1" with entities [EventEntity, EventEntity], work=200*
  3: 0x0022 [0x46] CAMERA_CONTROL: Disable user control
  4: 0x0024 [0x38] SET_CLIENT_EVENT_MODE(mode=19*)
  5: 0x0027 [0x75] LOAD_ROOM(Load indoor room, room=565*)
  6: 0x002B [0x75] LOAD_ROOM(No action)
  7: 0x002D [0x92] Fari-Wari (ID: 16982364/0x0103215C)->Render.Flags3 ^= 0x01
  8: 0x0033 [0x92] Biyaada (ID: 16982365/0x0103215D)->Render.Flags3 ^= 0x01
  9: 0x0039 [0x92] Zubyahn (ID: 16982146/0x01032082)->Render.Flags3 ^= 0x01
 10: 0x003F [0x92] Halbeeya (ID: 16982142/0x0103207E)->Render.Flags3 ^= 0x01
 11: 0x0045 [0x92] Fayeewah (ID: 16982099/0x01032053)->Render.Flags3 ^= 0x01
 12: 0x004B [0x92] Yafaaf (ID: 16982100/0x01032054)->Render.Flags3 ^= 0x01
 13: 0x0051 [0x94] LocalPlayer->Render.Flags3 ^= 0x01
 14: 0x0057 [0x94] Fari-Wari (ID: 16982364/0x0103215C)->Render.Flags3 ^= 0x01
 15: 0x005D [0x22] ENTITY_HIDE_FLAG(enabled=0x01)
 16: 0x005F [0xBA] SET_ENTITY_POSITION(entity_id=Fari-Wari (ID: 16982364/0x0103215C), pos_x=80.391*, pos_z=-136.859*, pos_y=-6.000*, direction=92.1*)
 17: 0x006C [0xBA] SET_ENTITY_POSITION(entity_id=LocalPlayer, pos_x=80.452*, pos_z=-134.162*, pos_y=-6.000*, direction=92.0*)
 18: 0x0079 [0x4A] Fari-Wari (ID: 16982364/0x0103215C) looks at LocalPlayer
 19: 0x0082 [0x1C] WAIT(60* ticks)
 20: 0x0085 [0x45] LOAD_SCHEDULED_TASK: Load scheduler "zzza" with entities [LocalPlayer, LocalPlayer], work=[310*, 0*]
 21: 0x0096 [0x45] LOAD_SCHEDULED_TASK: Load scheduler "fdi1" with entities [LocalPlayer, LocalPlayer], work=[200*, 0*]
 22: 0x00A7 [0x1C] WAIT(60* ticks)
 23: 0x00AA [0x66] LOAD_EXT_SCHEDULER_MAIN: Load scheduler "tlk0" with entities [Fari-Wari (ID: 16982364/0x0103215C), Fari-Wari (ID: 16982364/0x0103215C)], work=49*
 24: 0x00B9 [0x2B] Fari-Wari (ID: 16982364/0x0103215C) [8184*]:
     "My resourceful attendant!\u0007I have breathlessly awaited your return!\u007F1\u0000\u0007"
 25: 0x00C0 [0x23] WAIT_FOR_DIALOG_INTERACTION
 26: 0x00C1 [0x2B] Fari-Wari (ID: 16982364/0x0103215C) [8185*]:
     "You must tell me all that you have learned!\u007F1\u0000\u0007"
 27: 0x00C8 [0x23] WAIT_FOR_DIALOG_INTERACTION
 28: 0x00C9 [0x66] LOAD_EXT_SCHEDULER_MAIN: Load scheduler "tlk1" with entities [Fari-Wari (ID: 16982364/0x0103215C), Fari-Wari (ID: 16982364/0x0103215C)], work=49*
 29: 0x00D8 [0x1C] WAIT(60* ticks)
 30: 0x00DB [0x45] LOAD_SCHEDULED_TASK: Load scheduler "fdo1" with entities [EventEntity, EventEntity], work=[200*, 0*]
 31: 0x00EC [0x55] WAIT_LOAD_SCHEDULER: Wait for scheduler "fdo1" with entities [EventEntity, EventEntity], work=200*
 32: 0x00FB [0x52] END_LOAD_SCHEDULER: End scheduler "zzza" with entities [LocalPlayer, LocalPlayer], work=310*
 33: 0x010A [0x1C] WAIT(60* ticks)
 34: 0x010D [0x66] LOAD_EXT_SCHEDULER_MAIN: Load scheduler "thk1" with entities [Fari-Wari (ID: 16982364/0x0103215C), Fari-Wari (ID: 16982364/0x0103215C)], work=49*
 35: 0x011C [0x53] WAIT_SCHEDULER_TASK: Wait for scheduler "thk1" with entities [Fari-Wari (ID: 16982364/0x0103215C), Fari-Wari (ID: 16982364/0x0103215C)]
 36: 0x0129 [0x45] LOAD_SCHEDULED_TASK: Load scheduler "zzzb" with entities [LocalPlayer, LocalPlayer], work=[310*, 0*]
 37: 0x013A [0x45] LOAD_SCHEDULED_TASK: Load scheduler "fdi1" with entities [LocalPlayer, LocalPlayer], work=[200*, 0*]
 38: 0x014B [0x1C] WAIT(45* ticks)
 39: 0x014E [0x2B] Fari-Wari (ID: 16982364/0x0103215C) [8186*]:
     "...\u007F1\u0000\u0007"
 40: 0x0155 [0x23] WAIT_FOR_DIALOG_INTERACTION
 41: 0x0156 [0x66] LOAD_EXT_SCHEDULER_MAIN: Load scheduler "thk2" with entities [Fari-Wari (ID: 16982364/0x0103215C), Fari-Wari (ID: 16982364/0x0103215C)], work=49*
 42: 0x0165 [0x2B] Fari-Wari (ID: 16982364/0x0103215C) [8187*]:
     "The Galeserpent General and the Stoneserpent General...\u007F1\u0000\u0007"
 43: 0x016C [0x23] WAIT_FOR_DIALOG_INTERACTION
 44: 0x016D [0x99] Wait for Fari-Wari (ID: 16982364/0x0103215C) animation to complete
 45: 0x0172 [0x52] END_LOAD_SCHEDULER: End scheduler "zzzb" with entities [LocalPlayer, LocalPlayer], work=310*
 46: 0x0181 [0x45] LOAD_SCHEDULED_TASK: Load scheduler "zzzc" with entities [LocalPlayer, LocalPlayer], work=[310*, 0*]
 47: 0x0192 [0x6E] Fari-Wari (ID: 16982364/0x0103215C) uses emote 14*
 48: 0x0199 [0x99] Wait for Fari-Wari (ID: 16982364/0x0103215C) animation to complete
 49: 0x019E [0x2B] Fari-Wari (ID: 16982364/0x0103215C) [8188*]:
     "I knew it all along!\u0007My minstrel's instinct could sense a plot dripping with friendships and falling outs, anger and passion!\u007F1\u0000\u0007"
 50: 0x01A5 [0x23] WAIT_FOR_DIALOG_INTERACTION
 51: 0x01A6 [0x99] Wait for Fari-Wari (ID: 16982364/0x0103215C) animation to complete
 52: 0x01AB [0x1C] WAIT(15* ticks)
 53: 0x01AE [0x6E] Fari-Wari (ID: 16982364/0x0103215C) uses emote 14*
 54: 0x01B5 [0x99] Wait for Fari-Wari (ID: 16982364/0x0103215C) animation to complete
 55: 0x01BA [0x2B] Fari-Wari (ID: 16982364/0x0103215C) [8189*]:
     "Well, perhaps not all of those, but certainly more drama than our dear Biyaada suspected!\u007F1\u0000\u0007"
 56: 0x01C1 [0x23] WAIT_FOR_DIALOG_INTERACTION
 57: 0x01C2 [0x99] Wait for Fari-Wari (ID: 16982364/0x0103215C) animation to complete
 58: 0x01C7 [0x52] END_LOAD_SCHEDULER: End scheduler "zzzc" with entities [LocalPlayer, LocalPlayer], work=310*
 59: 0x01D6 [0x45] LOAD_SCHEDULED_TASK: Load scheduler "zzzd" with entities [LocalPlayer, LocalPlayer], work=[310*, 0*]
 60: 0x01E7 [0x1C] WAIT(30* ticks)
 61: 0x01EA [0x66] LOAD_EXT_SCHEDULER_MAIN: Load scheduler "thk1" with entities [Fari-Wari (ID: 16982364/0x0103215C), Fari-Wari (ID: 16982364/0x0103215C)], work=49*
 62: 0x01F9 [0x2B] Fari-Wari (ID: 16982364/0x0103215C) [8190*]:
     "Hm.\u007F1\u0000\u0007"
 63: 0x0200 [0x23] WAIT_FOR_DIALOG_INTERACTION
 64: 0x0201 [0x2B] Fari-Wari (ID: 16982364/0x0103215C) [8191*]:
     "Hmmm!\u007F1\u0000\u0007"
 65: 0x0208 [0x23] WAIT_FOR_DIALOG_INTERACTION
 66: 0x0209 [0x66] LOAD_EXT_SCHEDULER_MAIN: Load scheduler "thk2" with entities [Fari-Wari (ID: 16982364/0x0103215C), Fari-Wari (ID: 16982364/0x0103215C)], work=49*
 67: 0x0218 [0x53] WAIT_SCHEDULER_TASK: Wait for scheduler "thk2" with entities [Fari-Wari (ID: 16982364/0x0103215C), Fari-Wari (ID: 16982364/0x0103215C)]
 68: 0x0225 [0x1C] WAIT(30* ticks)
 69: 0x0228 [0x6E] Fari-Wari (ID: 16982364/0x0103215C) uses emote 0*
 70: 0x022F [0x99] Wait for Fari-Wari (ID: 16982364/0x0103215C) animation to complete
 71: 0x0234 [0x2B] Fari-Wari (ID: 16982364/0x0103215C) [8192*]:
     "Yes!\u0007I see it taking shape before me!\u007F1\u0000\u0007"
 72: 0x023B [0x23] WAIT_FOR_DIALOG_INTERACTION
 73: 0x023C [0x52] END_LOAD_SCHEDULER: End scheduler "zzzd" with entities [LocalPlayer, LocalPlayer], work=310*
 74: 0x024B [0x45] LOAD_SCHEDULED_TASK: Load scheduler "zzze" with entities [LocalPlayer, LocalPlayer], work=[310*, 0*]
 75: 0x025C [0x66] LOAD_EXT_SCHEDULER_MAIN: Load scheduler "tlk0" with entities [Fari-Wari (ID: 16982364/0x0103215C), Fari-Wari (ID: 16982364/0x0103215C)], work=49*
 76: 0x026B [0x2B] Fari-Wari (ID: 16982364/0x0103215C) [8193*]:
     "I see the birth of a truly ageless masterpiece!\u0007You have shown your worth yet again, my astute attendant!\u007F1\u0000\u0007"
 77: 0x0272 [0x23] WAIT_FOR_DIALOG_INTERACTION
 78: 0x0273 [0x2B] Fari-Wari (ID: 16982364/0x0103215C) [8194*]:
     "Here is your attendant's fee.\u007F1\u0000\u0007"
 79: 0x027A [0x23] WAIT_FOR_DIALOG_INTERACTION
 80: 0x027B [0x66] LOAD_EXT_SCHEDULER_MAIN: Load scheduler "tlk1" with entities [Fari-Wari (ID: 16982364/0x0103215C), Fari-Wari (ID: 16982364/0x0103215C)], work=49*
 81: 0x028A [0x52] END_LOAD_SCHEDULER: End scheduler "zzze" with entities [LocalPlayer, LocalPlayer], work=310*
 82: 0x0299 [0x45] LOAD_SCHEDULED_TASK: Load scheduler "zzzg" with entities [LocalPlayer, LocalPlayer], work=[310*, 0*]
 83: 0x02AA [0x6E] Fari-Wari (ID: 16982364/0x0103215C) uses emote 37*
 84: 0x02B1 [0x99] Wait for Fari-Wari (ID: 16982364/0x0103215C) animation to complete
 85: 0x02B6 [0x2B] Fari-Wari (ID: 16982364/0x0103215C) [8195*]:
     "A pittance, you say?\u0007You were just witness to an historical, never-to-be-repeated moment of grand inspiration!\u0007Some might say I should be charging you!\u007F1\u0000\u0007"
 86: 0x02BD [0x23] WAIT_FOR_DIALOG_INTERACTION
 87: 0x02BE [0x2B] Fari-Wari (ID: 16982364/0x0103215C) [8196*]:
     "Now, I must put quill to parchment, forthwith!\u007F1\u0000\u0007"
 88: 0x02C5 [0x23] WAIT_FOR_DIALOG_INTERACTION
 89: 0x02C6 [0x52] END_LOAD_SCHEDULER: End scheduler "zzzg" with entities [LocalPlayer, LocalPlayer], work=310*
 90: 0x02D5 [0x45] LOAD_SCHEDULED_TASK: Load scheduler "zzzf" with entities [LocalPlayer, LocalPlayer], work=[310*, 0*]
 91: 0x02E6 [0x6E] Fari-Wari (ID: 16982364/0x0103215C) uses emote 12*
 92: 0x02ED [0x99] Wait for Fari-Wari (ID: 16982364/0x0103215C) animation to complete
 93: 0x02F2 [0x2B] Fari-Wari (ID: 16982364/0x0103215C) [8197*]:
     "Oh, and \u0008?\u0007Do not stray too far, or too long.\u0007I foresee the day when I shall have need of your talents once again!\u007F1\u0000\u0007"
 94: 0x02F9 [0x23] WAIT_FOR_DIALOG_INTERACTION
 95: 0x02FA [0x1C] WAIT(90* ticks)
 96: 0x02FD [0x45] LOAD_SCHEDULED_TASK: Load scheduler "fdo1" with entities [EventEntity, EventEntity], work=[200*, 0*]
 97: 0x030E [0x55] WAIT_LOAD_SCHEDULER: Wait for scheduler "fdo1" with entities [EventEntity, EventEntity], work=200*
 98: 0x031D [0x1C] WAIT(30* ticks)
 99: 0x0320 [0x52] END_LOAD_SCHEDULER: End scheduler "zzzf" with entities [LocalPlayer, LocalPlayer], work=310*
100: 0x032F [0x46] CAMERA_CONTROL: Restore default settings
101: 0x0331 [0x45] LOAD_SCHEDULED_TASK: Load scheduler "qstc" with entities [EventEntity, EventEntity], work=[201*, 0*]
102: 0x0342 [0x45] LOAD_SCHEDULED_TASK: Load scheduler "fdi2" with entities [LocalPlayer, LocalPlayer], work=[200*, 0*]
103: 0x0353 [0x21] END_EVENT
104: 0x0354 [0x00] END_REQSTACK()
```

### Event 884

#### Metadata

| Field        | Value      |
|--------------|------------|
| Entrypoint   | 0x0355     |
| Data Size    | 9630 bytes |
| Instructions | 1266       |

```
      00 01 02 03 04 05 06 07  08 09 0A 0B 0C 0D 0E 0F
      -- -- -- -- -- -- -- --  -- -- -- -- -- -- -- --
0350:                42 45 00  80 F8 FF FF 7F F8 FF FF       BE.........
0360: 7F 66 64 6F 31 01 80 55  00 80 F8 FF FF 7F F8 FF  .fdo1..U........
0370: FF 7F 66 64 6F 31 46 01  38 02 80 75 00 03 80 75  ..fdo1F.8..u...u
0380: 01 92 01 5C 21 03 01 92  01 99 21 03 01 92 01 82  ...\!.....!.....
0390: 20 03 01 92 01 7E 20 03  01 92 01 53 20 03 01 92   ....~ ....S ...
03A0: 01 54 20 03 01 4E 00 99  21 03 01 2F 00 99 21 03  .T ..N..!../..!.
03B0: 01 94 01 F0 FF FF 7F 94  01 5C 21 03 01 94 01 99  .........\!.....
03C0: 21 03 01 80 F0 FF FF 7F  80 5C 21 03 01 80 99 21  !........\!....!
03D0: 03 01 22 01 BA F0 FF FF  7F 24 80 25 80 06 80 07  .."......$.%....
03E0: 80 BA 5C 21 03 01 04 80  05 80 06 80 07 80 4A 5C  ..\!..........J\
03F0: 21 03 01 F0 FF FF 7F 5D  01 80 26 80 1C 0B 80 45  !......]..&....E
0400: 0C 80 F0 FF FF 7F F0 FF  FF 7F 6C 30 30 30 01 80  ..........l000..
0410: 45 00 80 F0 FF FF 7F F0  FF FF 7F 66 64 69 31 01  E..........fdi1.
0420: 80 5C 00 27 80 5C 01 27  80 9A 1C 0B 80 66 0D 80  .\.'.\.'.....f..
0430: 5C 21 03 01 5C 21 03 01  74 6C 6B 30 2B 5C 21 03  \!..\!..tlk0+\!.
0440: 01 28 80 23 2B 5C 21 03  01 29 80 23 52 0C 80 F0  .(.#+\!..).#R...
0450: FF FF 7F F0 FF FF 7F 6C  30 30 30 45 0C 80 F0 FF  .......l000E....
0460: FF 7F F0 FF FF 7F 6C 30  30 31 01 80 66 0D 80 5C  ......l001..f..\
0470: 21 03 01 5C 21 03 01 74  6C 6B 31 27 10 99 21 03  !..\!..tlk1'..!.
0480: 01 02 1C 17 80 2B 99 21  03 01 2A 80 23 4A F0 FF  .....+.!..*.#J..
0490: FF 7F 99 21 03 01 4A 5C  21 03 01 99 21 03 01 2B  ...!..J\!...!..+
04A0: 99 21 03 01 2B 80 23 2A  10 99 21 03 01 52 0C 80  .!..+.#*..!..R..
04B0: F0 FF FF 7F F0 FF FF 7F  6C 30 30 31 45 0C 80 F0  ........l001E...
04C0: FF FF 7F F0 FF FF 7F 6C  30 30 32 01 80 2B 5C 21  .......l002..+\!
04D0: 03 01 2C 80 23 4A 99 21  03 01 5C 21 03 01 6F 70  ..,.#J.!..\!..op
04E0: 2B 99 21 03 01 2D 80 23  52 0C 80 F0 FF FF 7F F0  +.!..-.#R.......
04F0: FF FF 7F 6C 30 30 32 45  0C 80 F0 FF FF 7F F0 FF  ...l002E........
0500: FF 7F 6B 75 64 6E 01 80  1C 15 80 6E 99 21 03 01  ..kudn.....n.!..
0510: 2E 80 99 99 21 03 01 6E  5C 21 03 01 2F 80 99 5C  ....!..n\!../..\
0520: 21 03 01 2B 99 21 03 01  30 80 23 2B 99 21 03 01  !..+.!..0.#+.!..
0530: 31 80 23 52 0C 80 F0 FF  FF 7F F0 FF FF 7F 6B 75  1.#R..........ku
0540: 64 6E 45 0C 80 F0 FF FF  7F F0 FF FF 7F 6C 30 30  dnE..........l00
0550: 33 01 80 6E 5C 21 03 01  32 80 99 5C 21 03 01 2B  3..n\!..2..\!..+
0560: 5C 21 03 01 33 80 23 2B  5C 21 03 01 34 80 23 99  \!..3.#+\!..4.#.
0570: 5C 21 03 01 52 0C 80 F0  FF FF 7F F0 FF FF 7F 6C  \!..R..........l
0580: 30 30 33 45 0C 80 F0 FF  FF 7F F0 FF FF 7F 63 6C  003E..........cl
0590: 61 70 01 80 1C 15 80 2B  5C 21 03 01 35 80 23 6E  ap.....+\!..5.#n
05A0: 5C 21 03 01 36 80 99 5C  21 03 01 2B 5C 21 03 01  \!..6..\!..+\!..
05B0: 37 80 23 99 5C 21 03 01  52 0C 80 F0 FF FF 7F F0  7.#.\!..R.......
05C0: FF FF 7F 63 6C 61 70 4A  99 21 03 01 5C 21 03 01  ...clapJ.!..\!..
05D0: 45 0C 80 F0 FF FF 7F F0  FF FF 7F 6C 30 30 34 01  E..........l004.
05E0: 80 6E 99 21 03 01 2E 80  99 99 21 03 01 2B 99 21  .n.!......!..+.!
05F0: 03 01 38 80 23 2B 5C 21  03 01 39 80 23 66 3A 80  ..8.#+\!..9.#f:.
0600: 99 21 03 01 99 21 03 01  74 77 62 30 2B 99 21 03  .!...!..twb0+.!.
0610: 01 3B 80 23 2B 99 21 03  01 3C 80 23 66 3A 80 99  .;.#+.!..<.#f:..
0620: 21 03 01 99 21 03 01 74  77 62 31 52 0C 80 F0 FF  !...!..twb1R....
0630: FF 7F F0 FF FF 7F 6C 30  30 34 45 0C 80 F0 FF FF  ......l004E.....
0640: 7F F0 FF FF 7F 6C 30 30  35 01 80 66 0D 80 5C 21  .....l005..f..\!
0650: 03 01 5C 21 03 01 74 68  6B 31 2B 5C 21 03 01 3D  ..\!..thk1+\!..=
0660: 80 23 2B 5C 21 03 01 3E  80 23 66 0D 80 5C 21 03  .#+\!..>.#f..\!.
0670: 01 5C 21 03 01 74 68 6B  32 52 0C 80 F0 FF FF 7F  .\!..thk2R......
0680: F0 FF FF 7F 6C 30 30 35  45 0C 80 F0 FF FF 7F F0  ....l005E.......
0690: FF FF 7F 62 75 79 75 01  80 2B 5C 21 03 01 3F 80  ...buyu..+\!..?.
06A0: 23 6E 5C 21 03 01 40 80  99 5C 21 03 01 2B 5C 21  #n\!..@..\!..+\!
06B0: 03 01 41 80 23 52 0C 80  F0 FF FF 7F F0 FF FF 7F  ..A.#R..........
06C0: 62 75 79 75 45 0C 80 F0  FF FF 7F F0 FF FF 7F 6C  buyuE..........l
06D0: 30 30 36 01 80 5D 01 80  26 80 1C 0B 80 66 3A 80  006..]..&....f:.
06E0: 99 21 03 01 99 21 03 01  74 77 62 30 2B 99 21 03  .!...!..twb0+.!.
06F0: 01 42 80 23 66 3A 80 99  21 03 01 99 21 03 01 74  .B.#f:..!...!..t
0700: 77 62 31 1C 43 80 66 0D  80 5C 21 03 01 5C 21 03  wb1.C.f..\!..\!.
0710: 01 74 6C 6B 30 2B 5C 21  03 01 44 80 23 66 0D 80  .tlk0+\!..D.#f..
0720: 5C 21 03 01 5C 21 03 01  74 6C 6B 31 1C 43 80 6E  \!..\!..tlk1.C.n
0730: 99 21 03 01 45 80 99 99  21 03 01 2B 99 21 03 01  .!..E...!..+.!..
0740: 46 80 23 52 0C 80 F0 FF  FF 7F F0 FF FF 7F 6C 30  F.#R..........l0
0750: 30 36 45 0C 80 F0 FF FF  7F F0 FF FF 7F 6D 65 7A  06E..........mez
0760: 75 01 80 5C 00 47 80 5C  01 47 80 9A 66 0D 80 5C  u..\.G.\.G..f..\
0770: 21 03 01 5C 21 03 01 74  6C 6B 30 2B 5C 21 03 01  !..\!..tlk0+\!..
0780: 48 80 23 1C 43 80 66 0D  80 5C 21 03 01 5C 21 03  H.#.C.f..\!..\!.
0790: 01 74 6C 6B 31 52 0C 80  F0 FF FF 7F F0 FF FF 7F  .tlk1R..........
07A0: 6D 65 7A 75 45 0C 80 F0  FF FF 7F F0 FF FF 7F 6C  mezuE..........l
07B0: 30 30 37 01 80 6F 70 66  3A 80 99 21 03 01 99 21  007..opf:..!...!
07C0: 03 01 74 77 61 30 2B 99  21 03 01 49 80 23 66 3A  ..twa0+.!..I.#f:
07D0: 80 99 21 03 01 99 21 03  01 74 77 61 62 6E 5C 21  ..!...!..twabn\!
07E0: 03 01 2E 80 99 5C 21 03  01 2B 5C 21 03 01 4A 80  .....\!..+\!..J.
07F0: 23 4A 99 21 03 01 5C 21  03 01 6F 70 6E 99 21 03  #J.!..\!..opn.!.
0800: 01 4B 80 99 99 21 03 01  2B 99 21 03 01 4C 80 23  .K...!..+.!..L.#
0810: 99 99 21 03 01 52 0C 80  F0 FF FF 7F F0 FF FF 7F  ..!..R..........
0820: 6C 30 30 37 45 0C 80 F0  FF FF 7F F0 FF FF 7F 6C  l007E..........l
0830: 30 30 38 01 80 2B 99 21  03 01 4D 80 23 6E 5C 21  008..+.!..M.#n\!
0840: 03 01 32 80 99 5C 21 03  01 2B 5C 21 03 01 4E 80  ..2..\!..+\!..N.
0850: 23 52 0C 80 F0 FF FF 7F  F0 FF FF 7F 6C 30 30 38  #R..........l008
0860: 45 0C 80 F0 FF FF 7F F0  FF FF 7F 6C 30 30 39 01  E..........l009.
0870: 80 1C 17 80 79 00 99 21  03 01 5C 21 03 01 66 3A  ....y..!..\!..f:
0880: 80 99 21 03 01 99 21 03  01 74 77 61 30 2B 99 21  ..!...!..twa0+.!
0890: 03 01 4F 80 23 2B 99 21  03 01 50 80 23 66 3A 80  ..O.#+.!..P.#f:.
08A0: 99 21 03 01 99 21 03 01  74 77 61 31 1C 43 80 52  .!...!..twa1.C.R
08B0: 0C 80 F0 FF FF 7F F0 FF  FF 7F 6C 30 30 39 45 0C  ..........l009E.
08C0: 80 F0 FF FF 7F F0 FF FF  7F 79 6F 73 68 01 80 1C  .........yosh...
08D0: 10 80 2B 99 21 03 01 51  80 23 1C 0B 80 5D 01 80  ..+.!..Q.#...]..
08E0: 26 80 45 00 80 F8 FF FF  7F F8 FF FF 7F 66 64 6F  &.E..........fdo
08F0: 31 01 80 55 00 80 F8 FF  FF 7F F8 FF FF 7F 66 64  1..U..........fd
0900: 6F 31 52 0C 80 F0 FF FF  7F F0 FF FF 7F 79 6F 73  o1R..........yos
0910: 68 4E 01 F0 FF FF 7F 4E  01 5C 21 03 01 4E 01 99  hN.....N.\!..N..
0920: 21 03 01 4E 01 F8 20 03  01 4E 01 53 20 03 01 4E  !..N.. ..N.S ..N
0930: 01 54 20 03 01 4E 01 82  20 03 01 4E 01 7E 20 03  .T ..N.. ..N.~ .
0940: 01 1C 15 80 34 52 80 77  01 80 36 80 AB 09 1C 17  ....4R.w..6.....
0950: 80 4E 01 1E 20 03 01 1C  43 80 75 00 53 80 75 01  .N.. ...C.u.S.u.
0960: BA 98 21 03 01 54 80 55  80 56 80 57 80 BA 9A 21  ..!..T.U.V.W...!
0970: 03 01 58 80 59 80 56 80  5A 80 4E 00 98 21 03 01  ..X.Y.V.Z.N..!..
0980: 4E 00 9A 21 03 01 29 10  9A 21 03 01 09 80 9A 21  N..!..)..!.....!
0990: 03 01 80 98 21 03 01 92  01 98 21 03 01 92 01 9A  ....!.....!.....
09A0: 21 03 01 94 01 98 21 03  01 94 01 9A 21 03 01 7B  !.....!.....!..{
09B0: 98 21 03 01 1C 0B 80 45  0C 80 F0 FF FF 7F F0 FF  .!.....E........
09C0: FF 7F 62 61 73 73 01 80  45 00 80 F0 FF FF 7F F0  ..bass..E.......
09D0: FF FF 7F 66 64 69 31 01  80 5C 00 5B 80 5C 01 5B  ...fdi1..\.[.\.[
09E0: 80 9A 1C 5C 80 52 0C 80  F0 FF FF 7F F0 FF FF 7F  ...\.R..........
09F0: 62 61 73 73 45 0C 80 F0  FF FF 7F F0 FF FF 7F 6B  bassE..........k
0A00: 30 30 30 01 80 5D 01 80  26 80 1C 0B 80 2B 9A 21  000..]..&....+.!
0A10: 03 01 5D 80 23 66 5E 80  98 21 03 01 98 21 03 01  ..].#f^..!...!..
0A20: 74 77 62 30 2B 98 21 03  01 5F 80 23 52 0C 80 F0  twb0+.!.._.#R...
0A30: FF FF 7F F0 FF FF 7F 6B  30 30 30 45 0C 80 F0 FF  .......k000E....
0A40: FF 7F F0 FF FF 7F 6B 30  30 31 01 80 1C 17 80 6E  ......k001.....n
0A50: 9A 21 03 01 2F 80 99 9A  21 03 01 2B 9A 21 03 01  .!../...!..+.!..
0A60: 60 80 23 2B 98 21 03 01  61 80 23 66 5E 80 98 21  `.#+.!..a.#f^..!
0A70: 03 01 98 21 03 01 74 77  62 31 52 0C 80 F0 FF FF  ...!..twb1R.....
0A80: 7F F0 FF FF 7F 6B 30 30  31 79 00 98 21 03 01 9A  .....k001y..!...
0A90: 21 03 01 45 0C 80 F0 FF  FF 7F F0 FF FF 7F 6B 30  !..E..........k0
0AA0: 30 32 01 80 5C 00 62 80  5C 01 62 80 9A 2B 9A 21  02..\.b.\.b..+.!
0AB0: 03 01 63 80 23 6E 98 21  03 01 2E 80 99 98 21 03  ..c.#n.!......!.
0AC0: 01 2B 98 21 03 01 64 80  23 2B 98 21 03 01 65 80  .+.!..d.#+.!..e.
0AD0: 23 52 0C 80 F0 FF FF 7F  F0 FF FF 7F 6B 30 30 32  #R..........k002
0AE0: 45 0C 80 F0 FF FF 7F F0  FF FF 7F 6B 30 30 33 01  E..........k003.
0AF0: 80 5B 66 80 9A 21 03 01  9A 21 03 01 75 64 65 30  .[f..!...!..ude0
0B00: 2B 9A 21 03 01 67 80 23  2B 9A 21 03 01 68 80 23  +.!..g.#+.!..h.#
0B10: 2B 9A 21 03 01 69 80 23  52 0C 80 F0 FF FF 7F F0  +.!..i.#R.......
0B20: FF FF 7F 6B 30 30 33 45  0C 80 F0 FF FF 7F F0 FF  ...k003E........
0B30: FF 7F 6B 30 30 32 01 80  2B 98 21 03 01 6A 80 23  ..k002..+.!..j.#
0B40: 2B 9A 21 03 01 6B 80 23  52 0C 80 F0 FF FF 7F F0  +.!..k.#R.......
0B50: FF FF 7F 6B 30 30 32 45  0C 80 F0 FF FF 7F F0 FF  ...k002E........
0B60: FF 7F 6B 30 30 34 01 80  66 5E 80 98 21 03 01 98  ..k004..f^..!...
0B70: 21 03 01 74 77 62 30 2B  98 21 03 01 6C 80 23 2B  !..twb0+.!..l.#+
0B80: 98 21 03 01 6D 80 23 66  5E 80 98 21 03 01 98 21  .!..m.#f^..!...!
0B90: 03 01 74 77 62 31 52 0C  80 F0 FF FF 7F F0 FF FF  ..twb1R.........
0BA0: 7F 6B 30 30 34 45 0C 80  F0 FF FF 7F F0 FF FF 7F  .k004E..........
0BB0: 6B 30 30 35 01 80 5B 66  80 9A 21 03 01 9A 21 03  k005..[f..!...!.
0BC0: 01 75 64 65 31 2B 9A 21  03 01 6E 80 23 6E 98 21  .ude1+.!..n.#n.!
0BD0: 03 01 4B 80 99 98 21 03  01 2B 98 21 03 01 6F 80  ..K...!..+.!..o.
0BE0: 23 2B 98 21 03 01 70 80  23 52 0C 80 F0 FF FF 7F  #+.!..p.#R......
0BF0: F0 FF FF 7F 6B 30 30 35  45 0C 80 F0 FF FF 7F F0  ....k005E.......
0C00: FF FF 7F 6B 30 30 36 01  80 6E 9A 21 03 01 71 80  ...k006..n.!..q.
0C10: 99 9A 21 03 01 2B 9A 21  03 01 72 80 23 2B 98 21  ..!..+.!..r.#+.!
0C20: 03 01 73 80 23 52 0C 80  F0 FF FF 7F F0 FF FF 7F  ..s.#R..........
0C30: 6B 30 30 36 45 0C 80 F0  FF FF 7F F0 FF FF 7F 6B  k006E..........k
0C40: 30 30 32 01 80 6E 9A 21  03 01 74 80 99 9A 21 03  002..n.!..t...!.
0C50: 01 2B 9A 21 03 01 75 80  23 2B 98 21 03 01 76 80  .+.!..u.#+.!..v.
0C60: 23 52 0C 80 F0 FF FF 7F  F0 FF FF 7F 6B 30 30 32  #R..........k002
0C70: 45 0C 80 F0 FF FF 7F F0  FF FF 7F 6B 30 30 37 01  E..........k007.
0C80: 80 1C 17 80 66 5E 80 9A  21 03 01 9A 21 03 01 74  ....f^..!...!..t
0C90: 77 61 30 2B 9A 21 03 01  77 80 23 2B 9A 21 03 01  wa0+.!..w.#+.!..
0CA0: 78 80 23 2B 9A 21 03 01  79 80 23 66 5E 80 9A 21  x.#+.!..y.#f^..!
0CB0: 03 01 9A 21 03 01 74 77  61 31 52 0C 80 F0 FF FF  ...!..twa1R.....
0CC0: 7F F0 FF FF 7F 6B 30 30  37 45 0C 80 F0 FF FF 7F  .....k007E......
0CD0: F0 FF FF 7F 6B 30 30 38  01 80 6E 98 21 03 01 2E  ....k008..n.!...
0CE0: 80 99 98 21 03 01 2B 98  21 03 01 7A 80 23 2B 9A  ...!..+.!..z.#+.
0CF0: 21 03 01 7B 80 23 2B 9A  21 03 01 7C 80 23 27 10  !..{.#+.!..|.#'.
0D00: 9A 21 03 01 05 1C 17 80  52 0C 80 F0 FF FF 7F F0  .!......R.......
0D10: FF FF 7F 6B 30 30 38 45  0C 80 F0 FF FF 7F F0 FF  ...k008E........
0D20: FF 7F 6B 30 30 39 01 80  1C 0B 80 2B 98 21 03 01  ..k009.....+.!..
0D30: 7D 80 23 1C 17 80 2A 10  9A 21 03 01 4A 9A 21 03  }.#...*..!..J.!.
0D40: 01 98 21 03 01 1C 17 80  2B 9A 21 03 01 7E 80 23  ..!.....+.!..~.#
0D50: 52 0C 80 F0 FF FF 7F F0  FF FF 7F 6B 30 30 39 45  R..........k009E
0D60: 0C 80 F0 FF FF 7F F0 FF  FF 7F 6B 30 31 30 01 80  ..........k010..
0D70: 1C 17 80 5D 01 80 26 80  5B 66 80 9A 21 03 01 9A  ...]..&.[f..!...
0D80: 21 03 01 75 64 65 30 2B  9A 21 03 01 7F 80 23 52  !..ude0+.!....#R
0D90: 0C 80 F0 FF FF 7F F0 FF  FF 7F 6B 30 31 30 45 0C  ..........k010E.
0DA0: 80 F0 FF FF 7F F0 FF FF  7F 6B 30 31 31 01 80 6E  .........k011..n
0DB0: 98 21 03 01 45 80 99 98  21 03 01 2B 98 21 03 01  .!..E...!..+.!..
0DC0: 80 80 23 52 0C 80 F0 FF  FF 7F F0 FF FF 7F 6B 30  ..#R..........k0
0DD0: 31 31 45 0C 80 F0 FF FF  7F F0 FF FF 7F 6B 30 31  11E..........k01
0DE0: 32 01 80 5C 00 5B 80 5C  01 5B 80 9A 2B 9A 21 03  2..\.[.\.[..+.!.
0DF0: 01 81 80 23 2B 9A 21 03  01 82 80 23 2B 9A 21 03  ...#+.!....#+.!.
0E00: 01 83 80 23 52 0C 80 F0  FF FF 7F F0 FF FF 7F 6B  ...#R..........k
0E10: 30 31 32 79 00 98 21 03  01 9A 21 03 01 45 0C 80  012y..!...!..E..
0E20: F0 FF FF 7F F0 FF FF 7F  6B 30 31 33 01 80 5B 66  ........k013..[f
0E30: 80 9A 21 03 01 9A 21 03  01 75 64 65 31 2B 9A 21  ..!...!..ude1+.!
0E40: 03 01 84 80 23 1C 17 80  66 5E 80 98 21 03 01 98  ....#...f^..!...
0E50: 21 03 01 74 77 61 30 2B  98 21 03 01 85 80 23 2B  !..twa0+.!....#+
0E60: 98 21 03 01 86 80 23 66  5E 80 98 21 03 01 98 21  .!....#f^..!...!
0E70: 03 01 74 77 61 31 52 0C  80 F0 FF FF 7F F0 FF FF  ..twa1R.........
0E80: 7F 6B 30 31 33 45 0C 80  F0 FF FF 7F F0 FF FF 7F  .k013E..........
0E90: 6B 30 31 35 01 80 66 5E  80 9A 21 03 01 9A 21 03  k015..f^..!...!.
0EA0: 01 74 77 61 30 2B 9A 21  03 01 87 80 23 2B 9A 21  .twa0+.!....#+.!
0EB0: 03 01 88 80 23 2B 9A 21  03 01 89 80 23 66 5E 80  ....#+.!....#f^.
0EC0: 9A 21 03 01 9A 21 03 01  74 77 61 31 52 0C 80 F0  .!...!..twa1R...
0ED0: FF FF 7F F0 FF FF 7F 6B  30 31 35 45 0C 80 F0 FF  .......k015E....
0EE0: FF 7F F0 FF FF 7F 6B 30  31 34 01 80 2B 9A 21 03  ......k014..+.!.
0EF0: 01 8A 80 23 2B 9A 21 03  01 8B 80 23 66 5E 80 98  ...#+.!....#f^..
0F00: 21 03 01 98 21 03 01 74  68 6B 31 2B 9A 21 03 01  !...!..thk1+.!..
0F10: 8C 80 23 52 0C 80 F0 FF  FF 7F F0 FF FF 7F 6B 30  ..#R..........k0
0F20: 31 34 45 0C 80 F0 FF FF  7F F0 FF FF 7F 6B 30 31  14E..........k01
0F30: 36 01 80 1C 10 80 2B 98  21 03 01 8D 80 23 66 5E  6.....+.!....#f^
0F40: 80 98 21 03 01 98 21 03  01 74 68 6B 32 1C 15 80  ..!...!..thk2...
0F50: 2B 98 21 03 01 8E 80 23  52 0C 80 F0 FF FF 7F F0  +.!....#R.......
0F60: FF FF 7F 6B 30 31 36 45  0C 80 F0 FF FF 7F F0 FF  ...k016E........
0F70: FF 7F 6B 30 31 37 01 80  1C 17 80 2B 98 21 03 01  ..k017.....+.!..
0F80: 8F 80 23 6E 98 21 03 01  90 80 99 98 21 03 01 2B  ..#n.!......!..+
0F90: 98 21 03 01 91 80 23 52  0C 80 F0 FF FF 7F F0 FF  .!....#R........
0FA0: FF 7F 6B 30 31 37 45 0C  80 F0 FF FF 7F F0 FF FF  ..k017E.........
0FB0: 7F 6B 30 31 38 01 80 1C  15 80 5B 66 80 9A 21 03  .k018.....[f..!.
0FC0: 01 9A 21 03 01 75 64 65  30 2B 9A 21 03 01 92 80  ..!..ude0+.!....
0FD0: 23 2B 9A 21 03 01 93 80  23 5B 66 80 9A 21 03 01  #+.!....#[f..!..
0FE0: 9A 21 03 01 75 64 65 31  52 0C 80 F0 FF FF 7F F0  .!..ude1R.......
0FF0: FF FF 7F 6B 30 31 38 45  0C 80 F0 FF FF 7F F0 FF  ...k018E........
1000: FF 7F 6B 30 31 39 01 80  1C 15 80 2B 98 21 03 01  ..k019.....+.!..
1010: 94 80 23 1C 43 80 2B 98  21 03 01 95 80 23 52 0C  ..#.C.+.!....#R.
1020: 80 F0 FF FF 7F F0 FF FF  7F 6B 30 31 39 45 0C 80  .........k019E..
1030: F0 FF FF 7F F0 FF FF 7F  6B 30 32 30 01 80 1C 15  ........k020....
1040: 80 2B 9A 21 03 01 96 80  23 27 10 9A 21 03 01 06  .+.!....#'..!...
1050: 1C 0B 80 5D 01 80 26 80  45 00 80 F8 FF FF 7F F8  ...]..&.E.......
1060: FF FF 7F 66 64 6F 31 01  80 55 00 80 F8 FF FF 7F  ...fdo1..U......
1070: F8 FF FF 7F 66 64 6F 31  52 0C 80 F0 FF FF 7F F0  ....fdo1R.......
1080: FF FF 7F 6C 30 30 39 4E  01 98 21 03 01 1C 15 80  ...l009N..!.....
1090: 34 97 80 77 13 80 36 80  AB 09 1C 17 80 4E 01 1E  4..w..6......N..
10A0: 20 03 01 4E 01 F0 FF FF  7F 4E 01 5C 21 03 01 4E   ..N.....N.\!..N
10B0: 01 99 21 03 01 4E 01 F8  20 03 01 4E 01 53 20 03  ..!..N.. ..N.S .
10C0: 01 4E 01 54 20 03 01 4E  01 82 20 03 01 4E 01 7E  .N.T ..N.. ..N.~
10D0: 20 03 01 4E 00 9A 21 03  01 4E 00 9B 21 03 01 4E   ..N..!..N..!..N
10E0: 00 9C 21 03 01 4E 00 9D  21 03 01 4E 00 9E 21 03  ..!..N..!..N..!.
10F0: 01 4E 00 9F 21 03 01 4E  00 9C 21 03 01 80 9A 21  .N..!..N..!....!
1100: 03 01 80 9B 21 03 01 80  9C 21 03 01 2F 00 9A 21  ....!....!../..!
1110: 03 01 2F 00 9B 21 03 01  2F 00 9C 21 03 01 92 01  ../..!../..!....
1120: 9B 21 03 01 92 01 9C 21  03 01 94 01 9B 21 03 01  .!.....!.....!..
1130: 94 01 9C 21 03 01 5C 00  98 80 5C 01 98 80 9A 1C  ...!..\...\.....
1140: 0B 80 27 10 9A 21 03 01  02 7B 9A 21 03 01 45 0C  ..'..!...{.!..E.
1150: 80 F0 FF FF 7F F0 FF FF  7F 6A 30 30 30 01 80 45  .........j000..E
1160: 00 80 F0 FF FF 7F F0 FF  FF 7F 66 64 69 31 01 80  ..........fdi1..
1170: 1C 99 80 27 10 9B 21 03  01 02 27 10 9C 21 03 01  ...'..!...'..!..
1180: 02 27 10 9D 21 03 01 02  27 10 9E 21 03 01 02 27  .'..!...'..!...'
1190: 10 9F 21 03 01 02 1C 9A  80 52 0C 80 F0 FF FF 7F  ..!......R......
11A0: F0 FF FF 7F 6A 30 30 30  45 0C 80 F0 FF FF 7F F0  ....j000E.......
11B0: FF FF 7F 6A 30 30 31 01  80 2B 9B 21 03 01 9B 80  ...j001..+.!....
11C0: 23 1C 26 80 2A 10 9A 21  03 01 2A 10 9C 21 03 01  #.&.*..!..*..!..
11D0: 52 0C 80 F0 FF FF 7F F0  FF FF 7F 6A 30 30 31 45  R..........j001E
11E0: 0C 80 F0 FF FF 7F F0 FF  FF 7F 6A 30 30 32 01 80  ..........j002..
11F0: 1C 0B 80 4A 9A 21 03 01  9B 21 03 01 2B 9A 21 03  ...J.!...!..+.!.
1200: 01 9C 80 23 1C 17 80 52  0C 80 F0 FF FF 7F F0 FF  ...#...R........
1210: FF 7F 6A 30 30 32 4A 9A  21 03 01 9B 21 03 01 45  ..j002J.!...!..E
1220: 0C 80 F0 FF FF 7F F0 FF  FF 7F 6A 30 30 33 01 80  ..........j003..
1230: 6E 9B 21 03 01 9D 80 99  9B 21 03 01 6E 9D 21 03  n.!......!..n.!.
1240: 01 90 80 99 9D 21 03 01  6E 9E 21 03 01 90 80 99  .....!..n.!.....
1250: 9E 21 03 01 2B 9B 21 03  01 9E 80 23 99 9B 21 03  .!..+.!....#..!.
1260: 01 52 0C 80 F0 FF FF 7F  F0 FF FF 7F 6A 30 30 33  .R..........j003
1270: 45 0C 80 F0 FF FF 7F F0  FF FF 7F 6A 30 30 34 01  E..........j004.
1280: 80 6E 9D 21 03 01 9D 80  99 9D 21 03 01 6E 9E 21  .n.!......!..n.!
1290: 03 01 2F 80 99 9E 21 03  01 27 10 9B 21 03 01 03  ../...!..'..!...
12A0: 27 10 9C 21 03 01 03 6E  9A 21 03 01 71 80 99 9A  '..!...n.!..q...
12B0: 21 03 01 2B 9A 21 03 01  9F 80 23 2A 10 9B 21 03  !..+.!....#*..!.
12C0: 01 66 3A 80 9B 21 03 01  9B 21 03 01 74 77 61 30  .f:..!...!..twa0
12D0: 2B 9B 21 03 01 A0 80 23  6E 9C 21 03 01 74 80 99  +.!....#n.!..t..
12E0: 9C 21 03 01 2B 9C 21 03  01 A1 80 23 66 3A 80 9B  .!..+.!....#f:..
12F0: 21 03 01 9B 21 03 01 74  77 61 31 1C 15 80 52 0C  !...!..twa1...R.
1300: 80 F0 FF FF 7F F0 FF FF  7F 6A 30 30 34 45 0C 80  .........j004E..
1310: F0 FF FF 7F F0 FF FF 7F  6A 30 30 35 01 80 66 3A  ........j005..f:
1320: 80 9C 21 03 01 9C 21 03  01 74 77 61 30 2B 9C 21  ..!...!..twa0+.!
1330: 03 01 A2 80 23 66 3A 80  9C 21 03 01 9C 21 03 01  ....#f:..!...!..
1340: 74 77 61 31 1C 15 80 6E  9A 21 03 01 71 80 99 9A  twa1...n.!..q...
1350: 21 03 01 2B 9A 21 03 01  A3 80 23 53 9C 21 03 01  !..+.!....#S.!..
1360: 9C 21 03 01 74 77 61 31  6E 9C 21 03 01 A4 80 99  .!..twa1n.!.....
1370: 9C 21 03 01 2B 9C 21 03  01 A5 80 23 52 0C 80 F0  .!..+.!....#R...
1380: FF FF 7F F0 FF FF 7F 6A  30 30 35 45 0C 80 F0 FF  .......j005E....
1390: FF 7F F0 FF FF 7F 6A 30  30 36 01 80 1C 17 80 5B  ......j006.....[
13A0: 66 80 9A 21 03 01 9A 21  03 01 75 64 65 30 2B 9A  f..!...!..ude0+.
13B0: 21 03 01 A6 80 23 5B 66  80 9A 21 03 01 9A 21 03  !....#[f..!...!.
13C0: 01 75 64 65 31 52 0C 80  F0 FF FF 7F F0 FF FF 7F  .ude1R..........
13D0: 6A 30 30 36 45 0C 80 F0  FF FF 7F F0 FF FF 7F 6A  j006E..........j
13E0: 30 30 37 01 80 27 10 9C  21 03 01 04 2B 9C 21 03  007..'..!...+.!.
13F0: 01 A7 80 23 6E 9B 21 03  01 02 80 99 9B 21 03 01  ...#n.!......!..
1400: 2B 9B 21 03 01 A8 80 23  52 0C 80 F0 FF FF 7F F0  +.!....#R.......
1410: FF FF 7F 6A 30 30 37 45  0C 80 F0 FF FF 7F F0 FF  ...j007E........
1420: FF 7F 67 61 68 61 01 80  5B A9 80 9A 21 03 01 9A  ..gaha..[...!...
1430: 21 03 01 67 61 68 30 2B  9A 21 03 01 AA 80 23 BA  !..gah0+.!....#.
1440: 9E 21 03 01 AB 80 AC 80  AD 80 AE 80 BA 9F 21 03  .!............!.
1450: 01 AF 80 B0 80 B1 80 AE  80 BA 9D 21 03 01 B2 80  ...........!....
1460: B3 80 B4 80 B5 80 4A 9D  21 03 01 9A 21 03 01 4A  ......J.!...!..J
1470: 9E 21 03 01 9A 21 03 01  1C 17 80 52 0C 80 F0 FF  .!...!.....R....
1480: FF 7F F0 FF FF 7F 67 61  68 61 45 0C 80 F0 FF FF  ......gahaE.....
1490: 7F F0 FF FF 7F 6A 30 30  38 01 80 6E 9E 21 03 01  .....j008..n.!..
14A0: 4B 80 99 9E 21 03 01 6E  9F 21 03 01 9A 80 99 9F  K...!..n.!......
14B0: 21 03 01 66 3A 80 9B 21  03 01 9B 21 03 01 74 77  !..f:..!...!..tw
14C0: 61 30 2B 9B 21 03 01 B6  80 23 66 3A 80 9B 21 03  a0+.!....#f:..!.
14D0: 01 9B 21 03 01 74 77 61  31 6B 69 64 6C 30 9A 21  ..!..twa1kidl0.!
14E0: 03 01 6E 9C 21 03 01 B7  80 99 9C 21 03 01 99 9E  ..n.!......!....
14F0: 21 03 01 99 9F 21 03 01  1C 43 80 6E 9E 21 03 01  !....!...C.n.!..
1500: 9A 80 99 9E 21 03 01 6E  9F 21 03 01 4B 80 99 9F  ....!..n.!..K...
1510: 21 03 01 2B 9C 21 03 01  B8 80 23 52 0C 80 F0 FF  !..+.!....#R....
1520: FF 7F F0 FF FF 7F 6A 30  30 38 45 0C 80 F0 FF FF  ......j008E.....
1530: 7F F0 FF FF 7F 6A 30 31  34 01 80 5B 66 80 9A 21  .....j014..[f..!
1540: 03 01 9A 21 03 01 75 64  65 30 2B 9A 21 03 01 B9  ...!..ude0+.!...
1550: 80 23 66 3A 80 9B 21 03  01 9B 21 03 01 74 77 62  .#f:..!...!..twb
1560: 30 2B 9C 21 03 01 BA 80  23 66 3A 80 9B 21 03 01  0+.!....#f:..!..
1570: 9B 21 03 01 74 77 62 31  52 0C 80 F0 FF FF 7F F0  .!..twb1R.......
1580: FF FF 7F 6A 30 31 34 45  0C 80 F0 FF FF 7F F0 FF  ...j014E........
1590: FF 7F 6A 30 30 39 01 80  6E 9E 21 03 01 4B 80 99  ..j009..n.!..K..
15A0: 9E 21 03 01 2B 9A 21 03  01 BB 80 23 6E 9C 21 03  .!..+.!....#n.!.
15B0: 01 4B 80 99 9C 21 03 01  2B 9C 21 03 01 BC 80 23  .K...!..+.!....#
15C0: 66 3A 80 9B 21 03 01 9B  21 03 01 74 77 62 30 2B  f:..!...!..twb0+
15D0: 9B 21 03 01 BD 80 23 66  3A 80 9B 21 03 01 9B 21  .!....#f:..!...!
15E0: 03 01 74 77 62 31 52 0C  80 F0 FF FF 7F F0 FF FF  ..twb1R.........
15F0: 7F 6A 30 30 39 45 0C 80  F0 FF FF 7F F0 FF FF 7F  .j009E..........
1600: 6A 30 31 35 01 80 1C 10  80 2B 9A 21 03 01 BE 80  j015.....+.!....
1610: 23 52 0C 80 F0 FF FF 7F  F0 FF FF 7F 6A 30 31 35  #R..........j015
1620: 45 0C 80 F0 FF FF 7F F0  FF FF 7F 6A 30 31 36 01  E..........j016.
1630: 80 66 3A 80 9C 21 03 01  9C 21 03 01 74 77 61 30  .f:..!...!..twa0
1640: 2B 9C 21 03 01 BF 80 23  1C 15 80 66 3A 80 9C 21  +.!....#...f:..!
1650: 03 01 9C 21 03 01 74 77  61 31 52 0C 80 F0 FF FF  ...!..twa1R.....
1660: 7F F0 FF FF 7F 6A 30 31  36 45 0C 80 F0 FF FF 7F  .....j016E......
1670: F0 FF FF 7F 6A 30 31 37  01 80 1C 17 80 2B 9A 21  ....j017.....+.!
1680: 03 01 C0 80 23 1C 15 80  66 3A 80 9B 21 03 01 9B  ....#...f:..!...
1690: 21 03 01 74 68 6B 31 2B  9C 21 03 01 C1 80 23 2B  !..thk1+.!....#+
16A0: 9C 21 03 01 C2 80 23 66  3A 80 9B 21 03 01 9B 21  .!....#f:..!...!
16B0: 03 01 74 68 6B 32 52 0C  80 F0 FF FF 7F F0 FF FF  ..thk2R.........
16C0: 7F 6A 30 31 37 45 0C 80  F0 FF FF 7F F0 FF FF 7F  .j017E..........
16D0: 6A 30 31 38 01 80 1C 15  80 5B 66 80 9A 21 03 01  j018.....[f..!..
16E0: 9A 21 03 01 75 64 65 31  2B 9A 21 03 01 C3 80 23  .!..ude1+.!....#
16F0: 52 0C 80 F0 FF FF 7F F0  FF FF 7F 6A 30 31 38 45  R..........j018E
1700: 0C 80 F0 FF FF 7F F0 FF  FF 7F 6A 30 31 39 01 80  ..........j019..
1710: 1C 15 80 6E 9F 21 03 01  9A 80 99 9F 21 03 01 6E  ...n.!......!..n
1720: 9C 21 03 01 4B 80 99 9C  21 03 01 2B 9C 21 03 01  .!..K...!..+.!..
1730: C4 80 23 52 0C 80 F0 FF  FF 7F F0 FF FF 7F 6A 30  ..#R..........j0
1740: 31 39 45 0C 80 F0 FF FF  7F F0 FF FF 7F 6A 30 32  19E..........j02
1750: 30 01 80 1C 15 80 27 10  9A 21 03 01 03 1C 17 80  0.....'..!......
1760: 2B 9A 21 03 01 C5 80 23  2B 9A 21 03 01 C6 80 23  +.!....#+.!....#
1770: 52 0C 80 F0 FF FF 7F F0  FF FF 7F 6A 30 32 30 45  R..........j020E
1780: 0C 80 F0 FF FF 7F F0 FF  FF 7F 6A 30 31 31 01 80  ..........j011..
1790: 1C 43 80 6E 9C 21 03 01  A4 80 99 9C 21 03 01 2B  .C.n.!......!..+
17A0: 9C 21 03 01 C7 80 23 6E  9B 21 03 01 B7 80 99 9B  .!....#n.!......
17B0: 21 03 01 1C 43 80 6E 9F  21 03 01 A4 80 99 9F 21  !...C.n.!......!
17C0: 03 01 2B 9B 21 03 01 C8  80 23 52 0C 80 F0 FF FF  ..+.!....#R.....
17D0: 7F F0 FF FF 7F 6A 30 31  31 45 0C 80 F0 FF FF 7F  .....j011E......
17E0: F0 FF FF 7F 6A 30 31 32  01 80 4A 9A 21 03 01 9C  ....j012..J.!...
17F0: 21 03 01 6F 70 6E 9A 21  03 01 9D 80 99 9A 21 03  !..opn.!......!.
1800: 01 2B 9A 21 03 01 C9 80  23 52 0C 80 F0 FF FF 7F  .+.!....#R......
1810: F0 FF FF 7F 6A 30 31 32  45 0C 80 F0 FF FF 7F F0  ....j012E.......
1820: FF FF 7F 6A 30 32 31 01  80 5B 66 80 9A 21 03 01  ...j021..[f..!..
1830: 9A 21 03 01 75 64 65 30  2B 9A 21 03 01 CA 80 23  .!..ude0+.!....#
1840: 2B 9A 21 03 01 CB 80 23  5B 66 80 9A 21 03 01 9A  +.!....#[f..!...
1850: 21 03 01 75 64 65 31 6E  9B 21 03 01 02 80 99 9B  !..ude1n.!......
1860: 21 03 01 2B 9B 21 03 01  CC 80 23 52 0C 80 F0 FF  !..+.!....#R....
1870: FF 7F F0 FF FF 7F 6A 30  32 31 45 0C 80 F0 FF FF  ......j021E.....
1880: 7F F0 FF FF 7F 6A 30 32  32 01 80 6E 9A 21 03 01  .....j022..n.!..
1890: 71 80 99 9A 21 03 01 2B  9A 21 03 01 CD 80 23 2B  q...!..+.!....#+
18A0: 9A 21 03 01 CE 80 23 99  9A 21 03 01 52 0C 80 F0  .!....#..!..R...
18B0: FF FF 7F F0 FF FF 7F 6A  30 32 32 45 0C 80 F0 FF  .......j022E....
18C0: FF 7F F0 FF FF 7F 6A 30  31 33 01 80 1C 10 80 27  ......j013.....'
18D0: 10 9A 21 03 01 04 6E 9C  21 03 01 9A 80 99 9C 21  ..!...n.!......!
18E0: 03 01 6E 9E 21 03 01 02  80 99 9E 21 03 01 2B 9C  ..n.!......!..+.
18F0: 21 03 01 CF 80 6E 9B 21  03 01 D0 80 99 9B 21 03  !....n.!......!.
1900: 01 1C D1 80 5D 01 80 26  80 45 00 80 F8 FF FF 7F  ....]..&.E......
1910: F8 FF FF 7F 66 64 6F 31  01 80 55 00 80 F8 FF FF  ....fdo1..U.....
1920: 7F F8 FF FF 7F 66 64 6F  31 52 0C 80 F0 FF FF 7F  .....fdo1R......
1930: F0 FF FF 7F 6A 30 31 33  2A 10 9A 21 03 01 6A 01  ....j013*..!..j.
1940: 80 0B 80 15 80 4E 01 9B  21 03 01 4E 01 9C 21 03  .....N..!..N..!.
1950: 01 35 D2 80 78 1C D3 80  22 00 45 D4 80 F0 FF FF  .5..x...".E.....
1960: 7F F0 FF FF 7F 6E 6F 73  65 01 80 55 D4 80 F0 FF  .....nose..U....
1970: FF 7F F0 FF FF 7F 6E 6F  73 65 6A D5 80 0B 80 15  ......nosej.....
1980: 80 AB 0A 2D F0 FF FF 7F  F0 FF FF 7F 31 70 62 31  ...-........1pb1
1990: 1C 17 80 4E 00 1E 20 03  01 1C D3 80 75 00 03 80  ...N.. .....u...
19A0: 75 01 4E 00 F0 FF FF 7F  4E 00 99 21 03 01 4E 00  u.N.....N..!..N.
19B0: 5C 21 03 01 80 99 21 03  01 80 5C 21 03 01 80 F0  \!....!...\!....
19C0: FF FF 7F BA F0 FF FF 7F  24 80 25 80 06 80 07 80  ........$.%.....
19D0: BA 5C 21 03 01 04 80 05  80 06 80 07 80 BA 99 21  .\!............!
19E0: 03 01 D6 80 D7 80 06 80  D8 80 BA F8 20 03 01 D9  ............ ...
19F0: 80 DA 80 06 80 DB 80 BA  53 20 03 01 DC 80 DD 80  ........S ......
1A00: 06 80 DE 80 BA 54 20 03  01 DF 80 E0 80 06 80 E1  .....T .........
1A10: 80 BA 82 20 03 01 E2 80  E3 80 06 80 E4 80 BA 7E  ... ...........~
1A20: 20 03 01 E5 80 E6 80 06  80 E7 80 4E 00 F8 20 03   ..........N.. .
1A30: 01 4E 00 53 20 03 01 4E  00 54 20 03 01 4E 00 99  .N.S ..N.T ..N..
1A40: 21 03 01 4E 00 82 20 03  01 4E 00 7E 20 03 01 4A  !..N.. ..N.~ ..J
1A50: 5C 21 03 01 99 21 03 01  4A F0 FF FF 7F 99 21 03  \!...!..J.....!.
1A60: 01 5C 00 47 80 5C 01 47  80 9A 4A 99 21 03 01 5C  .\.G.\.G..J.!..\
1A70: 21 03 01 66 3A 80 99 21  03 01 99 21 03 01 74 6C  !..f:..!...!..tl
1A80: 6B 30 1C 10 80 45 0C 80  F0 FF FF 7F F0 FF FF 7F  k0...E..........
1A90: 79 30 30 30 01 80 45 00  80 F0 FF FF 7F F0 FF FF  y000..E.........
1AA0: 7F 66 64 69 31 01 80 1C  22 80 2B 99 21 03 01 E8  .fdi1...".+.!...
1AB0: 80 23 1C 43 80 66 3A 80  99 21 03 01 99 21 03 01  .#.C.f:..!...!..
1AC0: 74 6C 6B 31 52 0C 80 F0  FF FF 7F F0 FF FF 7F 79  tlk1R..........y
1AD0: 30 30 30 45 0C 80 F0 FF  FF 7F F0 FF FF 7F 79 30  000E..........y0
1AE0: 30 31 01 80 6E 5C 21 03  01 2E 80 99 5C 21 03 01  01..n\!.....\!..
1AF0: 2B 5C 21 03 01 E9 80 23  66 3A 80 99 21 03 01 99  +\!....#f:..!...
1B00: 21 03 01 74 77 61 30 2B  99 21 03 01 EA 80 23 2B  !..twa0+.!....#+
1B10: 99 21 03 01 EB 80 23 66  3A 80 99 21 03 01 99 21  .!....#f:..!...!
1B20: 03 01 74 77 61 31 52 0C  80 F0 FF FF 7F F0 FF FF  ..twa1R.........
1B30: 7F 79 30 30 31 45 0C 80  F0 FF FF 7F F0 FF FF 7F  .y001E..........
1B40: 6B 6F 6B 6F 01 80 6E 5C  21 03 01 2F 80 99 5C 21  koko..n\!../..\!
1B50: 03 01 1C 15 80 2B 5C 21  03 01 EC 80 23 1C ED 80  .....+\!....#...
1B60: 99 5C 21 03 01 45 00 80  F8 FF FF 7F F8 FF FF 7F  .\!..E..........
1B70: 66 64 6F 31 01 80 55 00  80 F8 FF FF 7F F8 FF FF  fdo1..U.........
1B80: 7F 66 64 6F 31 52 0C 80  F0 FF FF 7F F0 FF FF 7F  .fdo1R..........
1B90: 6B 6F 6B 6F 1C 15 80 34  EE 80 77 01 80 36 80 AB  koko...4..w..6..
1BA0: 09 1C 17 80 45 EF 80 F0  FF FF 7F F0 FF FF 7F 77  ....E..........w
1BB0: 61 6A 61 01 80 45 00 80  F0 FF FF 7F F0 FF FF 7F  aja..E..........
1BC0: 66 64 69 31 01 80 1C F0  80 2B 99 21 03 01 F1 80  fdi1.....+.!....
1BD0: 23 1C 22 80 45 00 80 F8  FF FF 7F F8 FF FF 7F 66  #.".E..........f
1BE0: 64 6F 31 01 80 55 00 80  F8 FF FF 7F F8 FF FF 7F  do1..U..........
1BF0: 66 64 6F 31 52 EF 80 F0  FF FF 7F F0 FF FF 7F 77  fdo1R..........w
1C00: 61 6A 61 6A 01 80 0B 80  15 80 35 D2 80 78 1C D3  ajaj......5..x..
1C10: 80 22 00 45 D4 80 F0 FF  FF 7F F0 FF FF 7F 6E 6F  .".E..........no
1C20: 73 65 01 80 55 D4 80 F0  FF FF 7F F0 FF FF 7F 6E  se..U..........n
1C30: 6F 73 65 6A D5 80 0B 80  15 80 AB 0A 2D F0 FF FF  osej........-...
1C40: 7F F0 FF FF 7F 31 70 62  31 1C 17 80 4E 00 1E 20  .....1pb1...N.. 
1C50: 03 01 1C D3 80 75 00 03  80 75 01 80 99 21 03 01  .....u...u...!..
1C60: 80 5C 21 03 01 80 F0 FF  FF 7F BA F0 FF FF 7F 24  .\!............$
1C70: 80 25 80 06 80 07 80 BA  5C 21 03 01 04 80 05 80  .%......\!......
1C80: 06 80 07 80 BA 99 21 03  01 D6 80 D7 80 06 80 D8  ......!.........
1C90: 80 BA F8 20 03 01 D9 80  DA 80 06 80 DB 80 BA 53  ... ...........S
1CA0: 20 03 01 DC 80 DD 80 06  80 DE 80 BA 54 20 03 01   ...........T ..
1CB0: DF 80 E0 80 06 80 E1 80  BA 82 20 03 01 E2 80 E3  .......... .....
1CC0: 80 06 80 E4 80 BA 7E 20  03 01 E5 80 E6 80 06 80  ......~ ........
1CD0: E7 80 4E 00 F8 20 03 01  4E 00 53 20 03 01 4E 00  ..N.. ..N.S ..N.
1CE0: 54 20 03 01 4E 00 99 21  03 01 4A 5C 21 03 01 99  T ..N..!..J\!...
1CF0: 21 03 01 4A F0 FF FF 7F  99 21 03 01 45 0C 80 F0  !..J.....!..E...
1D00: FF FF 7F F0 FF FF 7F 79  30 30 32 01 80 45 00 80  .......y002..E..
1D10: F0 FF FF 7F F0 FF FF 7F  66 64 69 31 01 80 1C 17  ........fdi1....
1D20: 80 6E 99 21 03 01 F2 80  99 99 21 03 01 1C 0B 80  .n.!......!.....
1D30: 6E 5C 21 03 01 02 80 99  5C 21 03 01 2B 5C 21 03  n\!.....\!..+\!.
1D40: 01 F3 80 23 52 0C 80 F0  FF FF 7F F0 FF FF 7F 79  ...#R..........y
1D50: 30 30 32 45 0C 80 F0 FF  FF 7F F0 FF FF 7F 79 30  002E..........y0
1D60: 30 33 01 80 2B 5C 21 03  01 F4 80 23 99 99 21 03  03..+\!....#..!.
1D70: 01 6E 99 21 03 01 90 80  99 99 21 03 01 2B 99 21  .n.!......!..+.!
1D80: 03 01 F5 80 23 99 5C 21  03 01 52 0C 80 F0 FF FF  ....#.\!..R.....
1D90: 7F F0 FF FF 7F 79 30 30  33 45 0C 80 F0 FF FF 7F  .....y003E......
1DA0: F0 FF FF 7F 79 30 30 32  01 80 66 0D 80 5C 21 03  ....y002..f..\!.
1DB0: 01 5C 21 03 01 74 6C 6B  30 2B 5C 21 03 01 F6 80  .\!..tlk0+\!....
1DC0: 23 66 0D 80 5C 21 03 01  5C 21 03 01 74 6C 6B 31  #f..\!..\!..tlk1
1DD0: 2B 99 21 03 01 F7 80 23  6E 5C 21 03 01 9A 80 99  +.!....#n\!.....
1DE0: 5C 21 03 01 2B 5C 21 03  01 F8 80 23 52 0C 80 F0  \!..+\!....#R...
1DF0: FF FF 7F F0 FF FF 7F 79  30 30 32 45 0C 80 F0 FF  .......y002E....
1E00: FF 7F F0 FF FF 7F 79 30  30 34 01 80 6E 99 21 03  ......y004..n.!.
1E10: 01 2F 80 99 99 21 03 01  2B 99 21 03 01 F9 80 23  ./...!..+.!....#
1E20: 1C 15 80 2B 99 21 03 01  FA 80 23 7B 99 21 03 01  ...+.!....#{.!..
1E30: 2B 99 21 03 01 FB 80 23  52 0C 80 F0 FF FF 7F F0  +.!....#R.......
1E40: FF FF 7F 79 30 30 34 45  0C 80 F0 FF FF 7F F0 FF  ...y004E........
1E50: FF 7F 79 30 30 31 01 80  66 0D 80 5C 21 03 01 5C  ..y001..f..\!..\
1E60: 21 03 01 74 6C 6B 30 2B  5C 21 03 01 FC 80 23 66  !..tlk0+\!....#f
1E70: 0D 80 5C 21 03 01 5C 21  03 01 74 6C 6B 31 79 00  ..\!..\!..tlk1y.
1E80: 99 21 03 01 5C 21 03 01  2B 99 21 03 01 FD 80 23  .!..\!..+.!....#
1E90: 52 0C 80 F0 FF FF 7F F0  FF FF 7F 79 30 30 31 45  R..........y001E
1EA0: 0C 80 F0 FF FF 7F F0 FF  FF 7F 79 30 30 35 01 80  ..........y005..
1EB0: 6E 5C 21 03 01 74 80 99  5C 21 03 01 2B 5C 21 03  n\!..t..\!..+\!.
1EC0: 01 FE 80 23 66 3A 80 99  21 03 01 99 21 03 01 74  ...#f:..!...!..t
1ED0: 77 61 30 2B 99 21 03 01  FF 80 23 2B 99 21 03 01  wa0+.!....#+.!..
1EE0: 00 81 23 99 5C 21 03 01  66 3A 80 99 21 03 01 99  ..#.\!..f:..!...
1EF0: 21 03 01 74 77 61 31 52  0C 80 F0 FF FF 7F F0 FF  !..twa1R........
1F00: FF 7F 79 30 30 35 45 0C  80 F0 FF FF 7F F0 FF FF  ..y005E.........
1F10: 7F 79 30 30 36 01 80 66  3A 80 99 21 03 01 99 21  .y006..f:..!...!
1F20: 03 01 74 77 61 30 2B 5C  21 03 01 01 81 23 66 3A  ..twa0+\!....#f:
1F30: 80 99 21 03 01 99 21 03  01 74 77 62 30 2B 99 21  ..!...!..twb0+.!
1F40: 03 01 02 81 23 2B 99 21  03 01 03 81 23 2B 99 21  ....#+.!....#+.!
1F50: 03 01 04 81 23 66 3A 80  99 21 03 01 99 21 03 01  ....#f:..!...!..
1F60: 74 77 62 30 1C 15 80 52  0C 80 F0 FF FF 7F F0 FF  twb0...R........
1F70: FF 7F 79 30 30 36 45 0C  80 F0 FF FF 7F F0 FF FF  ..y006E.........
1F80: 7F 79 30 30 37 01 80 6E  99 21 03 01 A4 80 99 99  .y007..n.!......
1F90: 21 03 01 2B 99 21 03 01  05 81 23 2B 99 21 03 01  !..+.!....#+.!..
1FA0: 06 81 23 6E 5C 21 03 01  90 80 99 5C 21 03 01 2B  ..#n\!.....\!..+
1FB0: 5C 21 03 01 07 81 23 99  5C 21 03 01 52 0C 80 F0  \!....#.\!..R...
1FC0: FF FF 7F F0 FF FF 7F 79  30 30 37 45 0C 80 F0 FF  .......y007E....
1FD0: FF 7F F0 FF FF 7F 79 30  30 38 01 80 2B 99 21 03  ......y008..+.!.
1FE0: 01 08 81 23 6E 5C 21 03  01 45 80 99 5C 21 03 01  ...#n\!..E..\!..
1FF0: 2B 5C 21 03 01 09 81 23  52 0C 80 F0 FF FF 7F F0  +\!....#R.......
2000: FF FF 7F 79 30 30 38 45  0C 80 F0 FF FF 7F F0 FF  ...y008E........
2010: FF 7F 79 30 30 39 01 80  1C 17 80 2B 99 21 03 01  ..y009.....+.!..
2020: 0A 81 23 7B 99 21 03 01  2B 99 21 03 01 0B 81 23  ..#{.!..+.!....#
2030: 1C 0B 80 5D 01 80 26 80  45 00 80 F8 FF FF 7F F8  ...]..&.E.......
2040: FF FF 7F 66 64 6F 31 01  80 55 00 80 F8 FF FF 7F  ...fdo1..U......
2050: F8 FF FF 7F 66 64 6F 31  52 0C 80 F0 FF FF 7F F0  ....fdo1R.......
2060: FF FF 7F 79 30 30 39 34  0C 81 77 01 80 36 80 1C  ...y0094..w..6..
2070: 17 80 4E 01 1E 20 03 01  AB 09 1C 43 80 4E 00 A9  ..N.. .....C.N..
2080: 20 03 01 4E 00 9A 21 03  01 1C 9A 80 29 10 9A 21   ..N..!.....)..!
2090: 03 01 07 80 A9 20 03 01  80 9A 21 03 01 2F 00 A9  ..... ....!../..
20A0: 20 03 01 2F 00 9A 21 03  01 94 01 9A 21 03 01 94   ../..!.....!...
20B0: 01 A9 20 03 01 92 01 A9  20 03 01 80 F0 FF FF 7F  .. ..... .......
20C0: BA 9A 21 03 01 01 80 0D  81 01 80 0E 81 BA A9 20  ..!............ 
20D0: 03 01 0F 81 10 81 01 80  11 81 5B 12 81 A9 20 03  ..........[... .
20E0: 01 A9 20 03 01 73 74 61  30 53 A9 20 03 01 A9 20  .. ..sta0S. ... 
20F0: 03 01 73 74 61 30 5B 13  81 9A 21 03 01 9A 21 03  ..sta0[...!...!.
2100: 01 68 69 7A 30 53 9A 21  03 01 9A 21 03 01 68 69  .hiz0S.!...!..hi
2110: 7A 30 5C 00 14 81 5C 01  14 81 9A 1C 0B 80 45 0C  z0\...\.......E.
2120: 80 F0 FF FF 7F F0 FF FF  7F 6F 6F 6F 6F 01 80 45  .........oooo..E
2130: 00 80 F0 FF FF 7F F0 FF  FF 7F 66 64 69 31 01 80  ..........fdi1..
2140: 1C 00 80 52 0C 80 F0 FF  FF 7F F0 FF FF 7F 6F 6F  ...R..........oo
2150: 6F 6F 45 0C 80 F0 FF FF  7F F0 FF FF 7F 6F 6F 6F  ooE..........ooo
2160: 61 01 80 1C 17 80 2B A9  20 03 01 15 81 23 2B A9  a.....+. ....#+.
2170: 20 03 01 16 81 23 2B 9A  21 03 01 17 81 23 52 0C   ....#+.!....#R.
2180: 80 F0 FF FF 7F F0 FF FF  7F 6F 6F 6F 61 45 0C 80  .........oooaE..
2190: F0 FF FF 7F F0 FF FF 7F  6F 6F 6F 62 01 80 2B A9  ........ooob..+.
21A0: 20 03 01 18 81 23 2B 9A  21 03 01 19 81 23 52 0C   ....#+.!....#R.
21B0: 80 F0 FF FF 7F F0 FF FF  7F 6F 6F 6F 62 45 0C 80  .........ooobE..
21C0: F0 FF FF 7F F0 FF FF 7F  6F 6F 6F 63 01 80 1C 17  ........oooc....
21D0: 80 2B A9 20 03 01 1A 81  23 2B 9A 21 03 01 1B 81  .+. ....#+.!....
21E0: 23 52 0C 80 F0 FF FF 7F  F0 FF FF 7F 6F 6F 6F 63  #R..........oooc
21F0: 45 0C 80 F0 FF FF 7F F0  FF FF 7F 6F 6F 6F 64 01  E..........oood.
2200: 80 1C 15 80 5B 12 81 A9  20 03 01 A9 20 03 01 73  ....[... ... ..s
2210: 74 61 31 2B A9 20 03 01  1C 81 23 52 0C 80 F0 FF  ta1+. ....#R....
2220: FF 7F F0 FF FF 7F 6F 6F  6F 64 45 0C 80 F0 FF FF  ......ooodE.....
2230: 7F F0 FF FF 7F 6F 6F 6F  65 01 80 1C 43 80 2B 9A  .....oooe...C.+.
2240: 21 03 01 1D 81 23 52 0C  80 F0 FF FF 7F F0 FF FF  !....#R.........
2250: 7F 6F 6F 6F 65 45 0C 80  F0 FF FF 7F F0 FF FF 7F  .oooeE..........
2260: 6F 6F 6F 66 01 80 5B 12  81 A9 20 03 01 A9 20 03  ooof..[... ... .
2270: 01 73 74 62 30 2B A9 20  03 01 1E 81 23 2B 9A 21  .stb0+. ....#+.!
2280: 03 01 1F 81 23 52 0C 80  F0 FF FF 7F F0 FF FF 7F  ....#R..........
2290: 6F 6F 6F 66 45 0C 80 F0  FF FF 7F F0 FF FF 7F 6F  ooofE..........o
22A0: 6F 6F 6E 01 80 1C 43 80  5B 12 81 A9 20 03 01 A9  oon...C.[... ...
22B0: 20 03 01 73 74 62 31 2B  A9 20 03 01 20 81 23 2B   ..stb1+. .. .#+
22C0: 9A 21 03 01 21 81 23 52  0C 80 F0 FF FF 7F F0 FF  .!..!.#R........
22D0: FF 7F 6F 6F 6F 6E 7B A9  20 03 01 45 0C 80 F0 FF  ..ooon{. ..E....
22E0: FF 7F F0 FF FF 7F 6F 6F  6F 67 01 80 1C 10 80 7B  ......ooog.....{
22F0: A9 20 03 01 5B 22 81 A9  20 03 01 A9 20 03 01 75  . ..[".. ... ..u
2300: 64 65 30 2B A9 20 03 01  B4 80 23 53 A9 20 03 01  de0+. ....#S. ..
2310: A9 20 03 01 75 64 65 30  52 0C 80 F0 FF FF 7F F0  . ..ude0R.......
2320: FF FF 7F 6F 6F 6F 67 45  0C 80 F0 FF FF 7F F0 FF  ...ooogE........
2330: FF 7F 6F 6F 6F 68 01 80  1C 17 80 5B 13 81 9A 21  ..oooh.....[...!
2340: 03 01 9A 21 03 01 68 69  7A 31 2B 9A 21 03 01 23  ...!..hiz1+.!..#
2350: 81 23 52 0C 80 F0 FF FF  7F F0 FF FF 7F 6F 6F 6F  .#R..........ooo
2360: 68 45 0C 80 F0 FF FF 7F  F0 FF FF 7F 6F 6F 6F 69  hE..........oooi
2370: 01 80 1C 17 80 2B A9 20  03 01 24 81 23 5B 22 81  .....+. ..$.#[".
2380: A9 20 03 01 A9 20 03 01  75 64 65 31 5B 13 81 9A  . ... ..ude1[...
2390: 21 03 01 9A 21 03 01 68  69 7A 30 2B A9 20 03 01  !...!..hiz0+. ..
23A0: 25 81 23 52 0C 80 F0 FF  FF 7F F0 FF FF 7F 6F 6F  %.#R..........oo
23B0: 6F 69 45 0C 80 F0 FF FF  7F F0 FF FF 7F 6F 6F 6F  oiE..........ooo
23C0: 6A 01 80 5B 12 81 A9 20  03 01 A9 20 03 01 73 74  j..[... ... ..st
23D0: 62 30 2B A9 20 03 01 26  81 23 2B A9 20 03 01 27  b0+. ..&.#+. ..'
