# 16982402 - Qultada

## Common Data

| Field            | Value                         |
|------------------|-------------------------------|
| Zone             | Aht Urhgan Whitegate (ID: 50) |
| Block Size       | 184 bytes                     |
| Total Events     | 6                             |
| References Count | 12                            |

## List of Events

| Event ID                  | Entrypoint   |   Size |   Instructions |
|---------------------------|--------------|--------|----------------|
| [65535](#event-65535)     | 0x0000       |      1 |              1 |
| [548](#event-548)         | 0x0001       |      1 |              1 |
| [65535.1](#event-65535-1) | 0x0002       |     29 |              3 |
| [65535.2](#event-65535-2) | 0x001F       |     10 |              2 |
| [65535.3](#event-65535-3) | 0x0029       |     23 |              5 |
| [65535.4](#event-65535-4) | 0x0040       |     29 |              3 |

## DAT References (imed_data)

|   Index | Hex Value   |   Dec Value |
|---------|-------------|-------------|
|       0 | 0x0348      |         840 |
|       1 | 0x215B9     |      136633 |
|       2 | 0xFFFFF28A  |  4294963850 |
|       3 | 0xFFFFF830  |  4294965296 |
|       4 | 0x0514      |        1300 |
|       5 | 0x21A2D     |      137773 |
|       6 | 0xFFFFF2A8  |  4294963880 |
|       7 | 0x0AC7      |        2759 |
|       8 | 0x0028      |          40 |
|       9 | 0x20906     |      133382 |
|      10 | 0xFFFFFBA9  |  4294966185 |
|      11 | 0xFFFFFAA7  |  4294965927 |

## Events

### Event 65535

#### Metadata

| Field        | Value   |
|--------------|---------|
| Entrypoint   | 0x0000  |
| Data Size    | 1 bytes |
| Instructions | 1       |

```
      00 01 02 03 04 05 06 07  08 09 0A 0B 0C 0D 0E 0F
      -- -- -- -- -- -- -- --  -- -- -- -- -- -- -- --
0000: 00                                                .               
```

#### Opcodes

```
  0: 0x0000 [0x00] END_REQSTACK()
```

### Event 548

#### Metadata

| Field        | Value   |
|--------------|---------|
| Entrypoint   | 0x0001  |
| Data Size    | 1 bytes |
| Instructions | 1       |

```
      00 01 02 03 04 05 06 07  08 09 0A 0B 0C 0D 0E 0F
      -- -- -- -- -- -- -- --  -- -- -- -- -- -- -- --
0000:    00                                              .              
```

#### Opcodes

```
  0: 0x0001 [0x00] END_REQSTACK()
```

### Event 65535.1

#### Metadata

| Field        | Value    |
|--------------|----------|
| Entrypoint   | 0x0002   |
| Data Size    | 29 bytes |
| Instructions | 3        |

```
      00 01 02 03 04 05 06 07  08 09 0A 0B 0C 0D 0E 0F
      -- -- -- -- -- -- -- --  -- -- -- -- -- -- -- --
0000:       5B 00 80 82 21 03  01 82 21 03 01 63 72 30    [...!...!..cr0
0010: 31 53 82 21 03 01 82 21  03 01 63 72 30 31 00     1S.!...!..cr01. 
```

#### Opcodes

```
  0: 0x0002 [0x5B] LOAD_EXT_SCHEDULER: Load scheduler "cr01" with entities [Qultada (ID: 16982402/0x01032182), Qultada (ID: 16982402/0x01032182)], work=840*
  1: 0x0011 [0x53] WAIT_SCHEDULER_TASK: Wait for scheduler "cr01" with entities [Qultada (ID: 16982402/0x01032182), Qultada (ID: 16982402/0x01032182)]
  2: 0x001E [0x00] END_REQSTACK()
```

### Event 65535.2

#### Metadata

| Field        | Value    |
|--------------|----------|
| Entrypoint   | 0x001F   |
| Data Size    | 10 bytes |
| Instructions | 2        |

```
      00 01 02 03 04 05 06 07  08 09 0A 0B 0C 0D 0E 0F
      -- -- -- -- -- -- -- --  -- -- -- -- -- -- -- --
0010:                                               37                 7
0020: 01 80 02 80 03 80 04 80  00                       .........       
```

#### Opcodes

```
  0: 0x001F [0x37] UPDATE_EVENT_POSITION_AND_DIR: x=136.633*, z=-3.446*, y=-2.000*, direction=114.3°*
  1: 0x0028 [0x00] END_REQSTACK()
```

### Event 65535.3

#### Metadata

| Field        | Value    |
|--------------|----------|
| Entrypoint   | 0x0029   |
| Data Size    | 23 bytes |
| Instructions | 5        |

```
      00 01 02 03 04 05 06 07  08 09 0A 0B 0C 0D 0E 0F
      -- -- -- -- -- -- -- --  -- -- -- -- -- -- -- --
0020:                             37 05 80 06 80 03 80           7......
0030: 07 80 32 08 80 1F 00 09  80 0A 80 0B 80 1F 01 00  ..2.............
```

#### Opcodes

```
  0: 0x0029 [0x37] UPDATE_EVENT_POSITION_AND_DIR: x=137.773*, z=-3.416*, y=-2.000*, direction=242.5°*
  1: 0x0032 [0x32] ExtData[1]->MainSpeed = 40* * 0.1
  2: 0x0035 [0x1F] MOVE_ENTITY: EventEntity moves to X=133.382*, Z=-1.111*, Y=-1.369*
  3: 0x003D [0x1F] MOVE_ENTITY: Update entity position (mode=1)
  4: 0x003F [0x00] END_REQSTACK()
```

### Event 65535.4

#### Metadata

| Field        | Value    |
|--------------|----------|
| Entrypoint   | 0x0040   |
| Data Size    | 29 bytes |
| Instructions | 3        |

```
      00 01 02 03 04 05 06 07  08 09 0A 0B 0C 0D 0E 0F
      -- -- -- -- -- -- -- --  -- -- -- -- -- -- -- --
0040: 5B 00 80 82 21 03 01 82  21 03 01 63 72 30 32 53  [...!...!..cr02S
0050: 82 21 03 01 82 21 03 01  63 72 30 30 00           .!...!..cr00.   
```

#### Opcodes

```
  0: 0x0040 [0x5B] LOAD_EXT_SCHEDULER: Load scheduler "cr02" with entities [Qultada (ID: 16982402/0x01032182), Qultada (ID: 16982402/0x01032182)], work=840*
  1: 0x004F [0x53] WAIT_SCHEDULER_TASK: Wait for scheduler "cr00" with entities [Qultada (ID: 16982402/0x01032182), Qultada (ID: 16982402/0x01032182)]
  2: 0x005C [0x00] END_REQSTACK()
```
