# 16982145 - Nijaom

## Common Data

| Field            | Value                         |
|------------------|-------------------------------|
| Zone             | Aht Urhgan Whitegate (ID: 50) |
| Block Size       | 108 bytes                     |
| Total Events     | 2                             |
| References Count | 6                             |

## List of Events

| Event ID              | Entrypoint   |   Size |   Instructions |
|-----------------------|--------------|--------|----------------|
| [65535](#event-65535) | 0x0000       |      1 |              1 |
| [673](#event-673)     | 0x0001       |     59 |             15 |

## DAT References (imed_data)

|   Index | Hex Value   |   Dec Value |
|---------|-------------|-------------|
|       0 | 0x001E      |          30 |
|       1 | 0x0041      |          65 |
|       2 | 0x1900      |        6400 |
|       3 | 0x1901      |        6401 |
|       4 | 0x1902      |        6402 |
|       5 | 0x1903      |        6403 |

## String References

- **6400**: They say this auction house is connected with another auction house located in the Grand Duchy of Jeuno.
- **6401**: There are rumors that some dubious folk called the "Tenshodo" are somehow behind it all.
- **6402**: An amazing variety of wares are sold daily in Jeuno's auction house. It's huge business!
- **6403**: Thanks to the Tenshodo, my goods are selling faster than ever before!

## Events

### Event 65535

#### Metadata

| Field        | Value   |
|--------------|---------|
| Entrypoint   | 0x0000  |
| Data Size    | 1 bytes |
| Instructions | 1       |

```
      00 01 02 03 04 05 06 07  08 09 0A 0B 0C 0D 0E 0F
      -- -- -- -- -- -- -- --  -- -- -- -- -- -- -- --
0000: 00                                                .               
```

#### Opcodes

```
  0: 0x0000 [0x00] END_REQSTACK()
```

### Event 673

#### Metadata

| Field        | Value    |
|--------------|----------|
| Entrypoint   | 0x0001   |
| Data Size    | 59 bytes |
| Instructions | 15       |

```
      00 01 02 03 04 05 06 07  08 09 0A 0B 0C 0D 0E 0F
      -- -- -- -- -- -- -- --  -- -- -- -- -- -- -- --
0000:    1E F0 FF FF 7F 1C 00  80 5B 01 80 F8 FF FF 7F   ........[......
0010: F8 FF FF 7F 74 6C 6B 30  1D 02 80 23 1D 03 80 23  ....tlk0...#...#
0020: 5B 01 80 F8 FF FF 7F F8  FF FF 7F 74 68 6B 31 1D  [..........thk1.
0030: 04 80 23 1D 05 80 23 1C  00 80 21 00              ..#...#...!.    
```

#### Opcodes

```
  0: 0x0001 [0x1E] EventEntity looks at LocalPlayer and starts talking
  1: 0x0006 [0x1C] WAIT(30* ticks)
  2: 0x0009 [0x5B] LOAD_EXT_SCHEDULER: Load scheduler "tlk0" with entities [EventEntity, EventEntity], work=65*
  3: 0x0018 [0x1D] PRINT_EVENT_MESSAGE(message_id=6400*)
    → "They say this auction house is connected with another auction house located in the Grand Duchy of Jeuno."
  4: 0x001B [0x23] WAIT_FOR_DIALOG_INTERACTION
  5: 0x001C [0x1D] PRINT_EVENT_MESSAGE(message_id=6401*)
    → "There are rumors that some dubious folk called the "Tenshodo" are somehow behind it all."
  6: 0x001F [0x23] WAIT_FOR_DIALOG_INTERACTION
  7: 0x0020 [0x5B] LOAD_EXT_SCHEDULER: Load scheduler "thk1" with entities [EventEntity, EventEntity], work=65*
  8: 0x002F [0x1D] PRINT_EVENT_MESSAGE(message_id=6402*)
    → "An amazing variety of wares are sold daily in Jeuno's auction house. It's huge business!"
  9: 0x0032 [0x23] WAIT_FOR_DIALOG_INTERACTION
 10: 0x0033 [0x1D] PRINT_EVENT_MESSAGE(message_id=6403*)
    → "Thanks to the Tenshodo, my goods are selling faster than ever before!"
 11: 0x0036 [0x23] WAIT_FOR_DIALOG_INTERACTION
 12: 0x0037 [0x1C] WAIT(30* ticks)
 13: 0x003A [0x21] END_EVENT
 14: 0x003B [0x00] END_REQSTACK()
```
