# 16982401 - Qultada

## Common Data

| Field            | Value                         |
|------------------|-------------------------------|
| Zone             | Aht Urhgan Whitegate (ID: 50) |
| Block Size       | 136 bytes                     |
| Total Events     | 5                             |
| References Count | 9                             |

## List of Events

| Event ID                  | Entrypoint   |   Size |   Instructions |
|---------------------------|--------------|--------|----------------|
| [65535](#event-65535)     | 0x0000       |      1 |              1 |
| [548](#event-548)         | 0x0001       |      1 |              1 |
| [65535.1](#event-65535-1) | 0x0002       |     29 |              3 |
| [65535.2](#event-65535-2) | 0x001F       |     10 |              2 |
| [65535.3](#event-65535-3) | 0x0029       |     23 |              5 |

## DAT References (imed_data)

|   Index | Hex Value   |   Dec Value |
|---------|-------------|-------------|
|       0 | 0x0348      |         840 |
|       1 | 0x24516     |      148758 |
|       2 | 0x08A6      |        2214 |
|       3 | 0xFFFFF830  |  4294965296 |
|       4 | 0x0042      |          66 |
|       5 | 0x0028      |          40 |
|       6 | 0x21F17     |      139031 |
|       7 | 0x0751      |        1873 |
|       8 | 0xFFFFF831  |  4294965297 |

## Events

### Event 65535

#### Metadata

| Field        | Value   |
|--------------|---------|
| Entrypoint   | 0x0000  |
| Data Size    | 1 bytes |
| Instructions | 1       |

```
      00 01 02 03 04 05 06 07  08 09 0A 0B 0C 0D 0E 0F
      -- -- -- -- -- -- -- --  -- -- -- -- -- -- -- --
0000: 00                                                .               
```

#### Opcodes

```
  0: 0x0000 [0x00] END_REQSTACK()
```

### Event 548

#### Metadata

| Field        | Value   |
|--------------|---------|
| Entrypoint   | 0x0001  |
| Data Size    | 1 bytes |
| Instructions | 1       |

```
      00 01 02 03 04 05 06 07  08 09 0A 0B 0C 0D 0E 0F
      -- -- -- -- -- -- -- --  -- -- -- -- -- -- -- --
0000:    00                                              .              
```

#### Opcodes

```
  0: 0x0001 [0x00] END_REQSTACK()
```

### Event 65535.1

#### Metadata

| Field        | Value    |
|--------------|----------|
| Entrypoint   | 0x0002   |
| Data Size    | 29 bytes |
| Instructions | 3        |

```
      00 01 02 03 04 05 06 07  08 09 0A 0B 0C 0D 0E 0F
      -- -- -- -- -- -- -- --  -- -- -- -- -- -- -- --
0000:       5B 00 80 81 21 03  01 81 21 03 01 63 72 30    [...!...!..cr0
0010: 30 53 81 21 03 01 81 21  03 01 63 72 30 30 00     0S.!...!..cr00. 
```

#### Opcodes

```
  0: 0x0002 [0x5B] LOAD_EXT_SCHEDULER: Load scheduler "cr00" with entities [Qultada (ID: 16982401/0x01032181), Qultada (ID: 16982401/0x01032181)], work=840*
  1: 0x0011 [0x53] WAIT_SCHEDULER_TASK: Wait for scheduler "cr00" with entities [Qultada (ID: 16982401/0x01032181), Qultada (ID: 16982401/0x01032181)]
  2: 0x001E [0x00] END_REQSTACK()
```

### Event 65535.2

#### Metadata

| Field        | Value    |
|--------------|----------|
| Entrypoint   | 0x001F   |
| Data Size    | 10 bytes |
| Instructions | 2        |

```
      00 01 02 03 04 05 06 07  08 09 0A 0B 0C 0D 0E 0F
      -- -- -- -- -- -- -- --  -- -- -- -- -- -- -- --
0010:                                               37                 7
0020: 01 80 02 80 03 80 04 80  00                       .........       
```

#### Opcodes

```
  0: 0x001F [0x37] UPDATE_EVENT_POSITION_AND_DIR: x=148.758*, z=2.214*, y=-2.000*, direction=5.8°*
  1: 0x0028 [0x00] END_REQSTACK()
```

### Event 65535.3

#### Metadata

| Field        | Value    |
|--------------|----------|
| Entrypoint   | 0x0029   |
| Data Size    | 23 bytes |
| Instructions | 5        |

```
      00 01 02 03 04 05 06 07  08 09 0A 0B 0C 0D 0E 0F
      -- -- -- -- -- -- -- --  -- -- -- -- -- -- -- --
0020:                             37 01 80 02 80 03 80           7......
0030: 04 80 32 05 80 1F 00 06  80 07 80 08 80 1F 01 00  ..2.............
```

#### Opcodes

```
  0: 0x0029 [0x37] UPDATE_EVENT_POSITION_AND_DIR: x=148.758*, z=2.214*, y=-2.000*, direction=5.8°*
  1: 0x0032 [0x32] ExtData[1]->MainSpeed = 40* * 0.1
  2: 0x0035 [0x1F] MOVE_ENTITY: EventEntity moves to X=139.031*, Z=1.873*, Y=-1.999*
  3: 0x003D [0x1F] MOVE_ENTITY: Update entity position (mode=1)
  4: 0x003F [0x00] END_REQSTACK()
```
