# 16982274 - Ulamaal

## Common Data

| Field            | Value                         |
|------------------|-------------------------------|
| Zone             | Aht Urhgan Whitegate (ID: 50) |
| Block Size       | 1592 bytes                    |
| Total Events     | 29                            |
| References Count | 66                            |

## List of Events

| Event ID                 | Entrypoint   |   Size |   Instructions |
|--------------------------|--------------|--------|----------------|
| [65535](#event-65535)    | 0x0000       |      1 |              1 |
| [3092](#event-3092)      | 0x0001       |      1 |              1 |
| [797](#event-797)        | 0x0002       |      1 |              1 |
| [40](#event-40)          | 0x0003       |      7 |              2 |
| [42](#event-42)          | 0x000A       |      7 |              2 |
| [45](#event-45)          | 0x0011       |      7 |              2 |
| [51](#event-51)          | 0x0018       |      1 |              1 |
| [53](#event-53)          | 0x0019       |     33 |             11 |
| [54](#event-54)          | 0x003A       |      1 |              1 |
| [56](#event-56)          | 0x003B       |     13 |              7 |
| [58](#event-58)          | 0x0048       |    831 |            262 |
| [579](#event-579)        | 0x0387       |      1 |              1 |
| [580](#event-580)        | 0x0388       |      1 |              1 |
| [65535.1](#event-655351) | 0x0389       |     20 |              4 |
| [3026](#event-3026)      | 0x039D       |      7 |              2 |
| [3027](#event-3027)      | 0x03A4       |      7 |              2 |
| [3033](#event-3033)      | 0x03AB       |      7 |              2 |
| [3034](#event-3034)      | 0x03B2       |      7 |              2 |
| [65535.2](#event-655352) | 0x03B9       |     18 |              4 |
| [861](#event-861)        | 0x03CB       |     52 |             12 |
| [875](#event-875)        | 0x03FF       |     34 |             10 |
| [864](#event-864)        | 0x0421       |      7 |              2 |
| [65535.3](#event-655353) | 0x0428       |     19 |              5 |
| [65535.4](#event-655354) | 0x043B       |     19 |              5 |
| [65535.5](#event-655355) | 0x044E       |     19 |              5 |
| [65535.6](#event-655356) | 0x0461       |     19 |              5 |
| [65535.7](#event-655357) | 0x0474       |     14 |              4 |
| [65535.8](#event-655358) | 0x0482       |     32 |              8 |
| [872](#event-872)        | 0x04A2       |      7 |              2 |

## DAT References (imed_data)

|   Index | Hex Value   |   Dec Value |
|---------|-------------|-------------|
|       0 | 0x001A      |          26 |
|       1 | 0x001E      |          30 |
|       2 | 0x237A      |        9082 |
|       3 | 0x2402      |        9218 |
|       4 | 0x2406      |        9222 |
|       5 | 0x2407      |        9223 |
|       6 | 0x0001      |           1 |
|       7 | 0x2408      |        9224 |
|       8 | 0x2409      |        9225 |
|       9 | 0x240A      |        9226 |
|      10 | 0x0000      |           0 |
|      11 | 0x240B      |        9227 |
|      12 | 0x240C      |        9228 |
|      13 | 0x0002      |           2 |
|      14 | 0x2415      |        9237 |
|      15 | 0x2417      |        9239 |
|      16 | 0x241B      |        9243 |
|      17 | 0x2413      |        9235 |
|      18 | 0x0003      |           3 |
|      19 | 0x2419      |        9241 |
|      20 | 0x241F      |        9247 |
|      21 | 0x0004      |           4 |
|      22 | 0x2421      |        9249 |
|      23 | 0x0005      |           5 |
|      24 | 0x241D      |        9245 |
|      25 | 0x0006      |           6 |
|      26 | 0x242F      |        9263 |
|      27 | 0x0007      |           7 |
|      28 | 0x0008      |           8 |
|      29 | 0x0009      |           9 |
|      30 | 0x000A      |          10 |
|      31 | 0x000B      |          11 |
|      32 | 0x000C      |          12 |
|      33 | 0x000D      |          13 |
|      34 | 0x000E      |          14 |
|      35 | 0x000F      |          15 |
|      36 | 0x0010      |          16 |
|      37 | 0x0011      |          17 |
|      38 | 0x2425      |        9253 |
|      39 | 0x2426      |        9254 |
|      40 | 0x2427      |        9255 |
|      41 | 0x2423      |        9251 |
|      42 | 0x242B      |        9259 |
|      43 | 0x13FAB     |       81835 |
|      44 | 0xFFFDEF57  |  4294831959 |
|      45 | 0xFFFFE890  |  4294961296 |
|      46 | 0x1C7B      |        7291 |
|      47 | 0x1C7C      |        7292 |
|      48 | 0x1C7D      |        7293 |
|      49 | 0x1CB3      |        7347 |
|      50 | 0x1CB4      |        7348 |
|      51 | 0x13355     |       78677 |
|      52 | 0xFFFDF485  |  4294833285 |
|      53 | 0x131BC     |       78268 |
|      54 | 0xFFFDEF97  |  4294832023 |
|      55 | 0x13157     |       78167 |
|      56 | 0xFFFDEBC0  |  4294831040 |
|      57 | 0x12E41     |       77377 |
|      58 | 0xFFFDE503  |  4294829315 |
|      59 | 0x1430E     |       82702 |
|      60 | 0xFFFDEDF7  |  4294831607 |
|      61 | 0x0028      |          40 |
|      62 | 0x131EB     |       78315 |
|      63 | 0xFFFDEDBE  |  4294831550 |
|      64 | 0x0013      |          19 |
|      65 | 0x005A      |          90 |

## String References

- **7291**: Greetings, traveller! Have you heard of our special of the day?
- **7292**: Ratihb came up with the idea himself. However, because we only serve ten specials a day, we're sold out before the first customer even sits down.
- **7293**: I haven't even had the chance to try one...
- **7347**: I'm sorry, [sir/ma'am], but if you came to purchase more than one of today's specials, you no longer can. One special per customer, please.
- **7348**: (Hopefully now this means I'll be able to finally buy myself one!)
- **9082**: It's always us who has to apologize for the boss's actions. I don't know what to do about him.
- **9218**: Come again anytime you want to taste test our dishes!
- **9222**: We can't have you thinking that the Epicureans just take and take and never give anything in return, now can we?
- **9223**: So as a token of our appreciation for your help, we've decided to let you know one of the recipes from our "Super-Secret Recipe Cookbook"!
- **9224**: But come to think of it, we taught you one just moments ago! If we handed out our secret recipes left and right, they wouldn't be a secret anymore, now would they?
- **9225**: I'll teach you whatever recipe strikes me at the moment. Are you ready?
- **9226**: Learn a secret recipe? [Yes, please!/Not interested.]
- **9227**: Oh? Well, just ask if you ever want to know!
- **9228**: That's the spirit! All right, here goes... I'm going to teach you the recipe for...$0!
- **9235**: Are you ready? Here goes... Just use $0 on $1, and you are all done!
- **9237**: Are you ready? Here goes... First, you'll need $0.
- **9239**: Then you only need two ingredients--$0 and $1. A piece of cake, right?
- **9241**: Are you ready? Here goes... First, you'll need $0. You also must have $1, $2, and $3.
- **9243**: You also must have $0, $1, $2, and $3.
- **9245**: Oh, there are more...$0, $1, and $2!
- **9247**: Oh, there are more...$0, $1, $2, and $3!
- **9249**: ...And last, but not least, $0! I know that's a lot, but just wait until you taste it!
- **9251**: So what do you think? Did you write that all down? Now all that's left is to try it out!
- **9253**: Anyway, now you know how to make it, but I'm afraid you don't have enough skill...
- **9254**: Ah, but then again...
- **9255**: You could always have someone else make it for you. It's a secret recipe, though, so make sure to ask someone you can trust.
- **9259**: I think it may be rather difficult for you to do if you have no experience in making confections...
- **9263**: Oh, there are more...$0, $1, and 2 $2!

## Events

### Event 65535

#### Metadata

| Field        | Value   |
|--------------|---------|
| Entrypoint   | 0x0000  |
| Data Size    | 1 bytes |
| Instructions | 1       |

```
      00 01 02 03 04 05 06 07  08 09 0A 0B 0C 0D 0E 0F
      -- -- -- -- -- -- -- --  -- -- -- -- -- -- -- --
0000: 00                                                .               
```

#### Opcodes

```
  0: 0x0000 [0x00] END_REQSTACK()
```

### Event 3092

#### Metadata

| Field        | Value   |
|--------------|---------|
| Entrypoint   | 0x0001  |
| Data Size    | 1 bytes |
| Instructions | 1       |

```
      00 01 02 03 04 05 06 07  08 09 0A 0B 0C 0D 0E 0F
      -- -- -- -- -- -- -- --  -- -- -- -- -- -- -- --
0000:    00                                              .              
```

#### Opcodes

```
  0: 0x0001 [0x00] END_REQSTACK()
```

### Event 797

#### Metadata

| Field        | Value   |
|--------------|---------|
| Entrypoint   | 0x0002  |
| Data Size    | 1 bytes |
| Instructions | 1       |

```
      00 01 02 03 04 05 06 07  08 09 0A 0B 0C 0D 0E 0F
      -- -- -- -- -- -- -- --  -- -- -- -- -- -- -- --
0000:       00                                            .             
```

#### Opcodes

```
  0: 0x0002 [0x00] END_REQSTACK()
```

### Event 40

#### Metadata

| Field        | Value   |
|--------------|---------|
| Entrypoint   | 0x0003  |
| Data Size    | 7 bytes |
| Instructions | 2       |

```
      00 01 02 03 04 05 06 07  08 09 0A 0B 0C 0D 0E 0F
      -- -- -- -- -- -- -- --  -- -- -- -- -- -- -- --
0000:          94 01 F8 FF FF  7F 00                       .......      
```

#### Opcodes

```
  0: 0x0003 [0x94] EventEntity->Render.Flags3 ^= 0x01
  1: 0x0009 [0x00] END_REQSTACK()
```

### Event 42

#### Metadata

| Field        | Value   |
|--------------|---------|
| Entrypoint   | 0x000A  |
| Data Size    | 7 bytes |
| Instructions | 2       |

```
      00 01 02 03 04 05 06 07  08 09 0A 0B 0C 0D 0E 0F
      -- -- -- -- -- -- -- --  -- -- -- -- -- -- -- --
0000:                                94 01 F8 FF FF 7F            ......
0010: 00                                                .               
```

#### Opcodes

```
  0: 0x000A [0x94] EventEntity->Render.Flags3 ^= 0x01
  1: 0x0010 [0x00] END_REQSTACK()
```

### Event 45

#### Metadata

| Field        | Value   |
|--------------|---------|
| Entrypoint   | 0x0011  |
| Data Size    | 7 bytes |
| Instructions | 2       |

```
      00 01 02 03 04 05 06 07  08 09 0A 0B 0C 0D 0E 0F
      -- -- -- -- -- -- -- --  -- -- -- -- -- -- -- --
0010:    94 01 F8 FF FF 7F 00                            .......        
```

#### Opcodes

```
  0: 0x0011 [0x94] EventEntity->Render.Flags3 ^= 0x01
  1: 0x0017 [0x00] END_REQSTACK()
```

### Event 51

#### Metadata

| Field        | Value   |
|--------------|---------|
| Entrypoint   | 0x0018  |
| Data Size    | 1 bytes |
| Instructions | 1       |

```
      00 01 02 03 04 05 06 07  08 09 0A 0B 0C 0D 0E 0F
      -- -- -- -- -- -- -- --  -- -- -- -- -- -- -- --
0010:                          00                               .       
```

#### Opcodes

```
  0: 0x0018 [0x00] END_REQSTACK()
```

### Event 53

#### Metadata

| Field        | Value    |
|--------------|----------|
| Entrypoint   | 0x0019   |
| Data Size    | 33 bytes |
| Instructions | 11       |

```
      00 01 02 03 04 05 06 07  08 09 0A 0B 0C 0D 0E 0F
      -- -- -- -- -- -- -- --  -- -- -- -- -- -- -- --
0010:                             1E F0 FF FF 7F 6F 70           .....op
0020: 6E F8 FF FF 7F 00 80 99  F8 FF FF 7F 99 F8 FF FF  n...............
0030: 7F 1C 01 80 1D 02 80 23  21 00                    .......#!.      
```

#### Opcodes

```
  0: 0x0019 [0x1E] EventEntity looks at LocalPlayer and starts talking
  1: 0x001E [0x6F] WAIT_FRAME_DELAY: Yield until WaitTime reaches zero
  2: 0x001F [0x70] WAIT_ENTITY_RENDER_FLAG: Wait while EventEntity->Render.Flags3 bit 2 is set (cancel turn if not)
  3: 0x0020 [0x6E] EventEntity uses emote 26*
  4: 0x0027 [0x99] Wait for EventEntity animation to complete
  5: 0x002C [0x99] Wait for EventEntity animation to complete
  6: 0x0031 [0x1C] WAIT(30* ticks)
  7: 0x0034 [0x1D] PRINT_EVENT_MESSAGE(message_id=9082*)
    → "It's always us who has to apologize for the boss's actions. I don't know what to do about him."
  8: 0x0037 [0x23] WAIT_FOR_DIALOG_INTERACTION
  9: 0x0038 [0x21] END_EVENT
 10: 0x0039 [0x00] END_REQSTACK()
```

### Event 54

#### Metadata

| Field        | Value   |
|--------------|---------|
| Entrypoint   | 0x003A  |
| Data Size    | 1 bytes |
| Instructions | 1       |

```
      00 01 02 03 04 05 06 07  08 09 0A 0B 0C 0D 0E 0F
      -- -- -- -- -- -- -- --  -- -- -- -- -- -- -- --
0030:                                00                           .     
```

#### Opcodes

```
  0: 0x003A [0x00] END_REQSTACK()
```

### Event 56

#### Metadata

| Field        | Value    |
|--------------|----------|
| Entrypoint   | 0x003B   |
| Data Size    | 13 bytes |
| Instructions | 7        |

```
      00 01 02 03 04 05 06 07  08 09 0A 0B 0C 0D 0E 0F
      -- -- -- -- -- -- -- --  -- -- -- -- -- -- -- --
0030:                                   1E F0 FF FF 7F             .....
0040: 6F 70 1D 03 80 23 21 00                           op...#!.        
```

#### Opcodes

```
  0: 0x003B [0x1E] EventEntity looks at LocalPlayer and starts talking
  1: 0x0040 [0x6F] WAIT_FRAME_DELAY: Yield until WaitTime reaches zero
  2: 0x0041 [0x70] WAIT_ENTITY_RENDER_FLAG: Wait while EventEntity->Render.Flags3 bit 2 is set (cancel turn if not)
  3: 0x0042 [0x1D] PRINT_EVENT_MESSAGE(message_id=9218*)
    → "Come again anytime you want to taste test our dishes!"
  4: 0x0045 [0x23] WAIT_FOR_DIALOG_INTERACTION
  5: 0x0046 [0x21] END_EVENT
  6: 0x0047 [0x00] END_REQSTACK()
```

### Event 58

#### Metadata

| Field        | Value     |
|--------------|-----------|
| Entrypoint   | 0x0048    |
| Data Size    | 831 bytes |
| Instructions | 261       |

```
      00 01 02 03 04 05 06 07  08 09 0A 0B 0C 0D 0E 0F
      -- -- -- -- -- -- -- --  -- -- -- -- -- -- -- --
0040:                          42 1E F0 FF FF 7F 6F 70          B.....op
0050: 1D 04 80 23 1D 05 80 23  02 09 10 06 80 00 67 00  ...#...#......g.
0060: 1D 07 80 23 01 85 03 1D  08 80 23 24 09 80 0A 80  ...#......#$....
0070: 0A 80 25 02 00 10 06 80  00 85 00 1D 0B 80 23 01  ..%...........#.
0080: 85 03 01 85 00 03 01 10  06 80 43 00 43 01 93 02  ..........C.C...
0090: 10 1D 0C 80 23 93 0A 80  03 01 10 0D 80 43 00 43  ....#........C.C
00A0: 01 02 08 10 0A 80 80 C2  00 1D 0E 80 23 03 01 10  ............#...
00B0: 0D 80 43 00 43 01 03 00  00 04 10 1D 0F 80 23 01  ..C.C.........#.
00C0: 4B 03 02 08 10 06 80 80  EC 00 1D 0E 80 23 03 01  K............#..
00D0: 10 0D 80 43 00 43 01 1D  10 80 23 03 01 10 0D 80  ...C.C....#.....
00E0: 43 00 43 01 03 00 00 02  10 01 4B 03 02 08 10 0D  C.C.......K.....
00F0: 80 80 00 01 03 00 00 04  10 1D 11 80 23 01 4B 03  ............#.K.
0100: 02 08 10 12 80 80 2A 01  1D 13 80 23 03 01 10 0D  ......*....#....
0110: 80 43 00 43 01 1D 14 80  23 03 01 10 0D 80 43 00  .C.C....#.....C.
0120: 43 01 03 00 00 02 10 01  4B 03 02 08 10 15 80 80  C.......K.......
0130: 58 01 1D 13 80 23 03 01  10 0D 80 43 00 43 01 1D  X....#.....C.C..
0140: 14 80 23 03 01 10 0D 80  43 00 43 01 03 00 00 03  ..#.....C.C.....
0150: 10 1D 16 80 23 01 4B 03  02 08 10 17 80 80 79 01  ....#.K.......y.
0160: 1D 13 80 23 03 01 10 0D  80 43 00 43 01 03 00 00  ...#.....C.C....
0170: 05 10 1D 18 80 23 01 4B  03 02 08 10 19 80 80 A7  .....#.K........
0180: 01 1D 13 80 23 03 01 10  0D 80 43 00 43 01 1D 1A  ....#.....C.C...
0190: 80 23 03 01 10 0D 80 43  00 43 01 03 00 00 03 10  .#.....C.C......
01A0: 1D 16 80 23 01 4B 03 02  08 10 1B 80 80 C8 01 1D  ...#.K..........
01B0: 13 80 23 03 01 10 0D 80  43 00 43 01 03 00 00 05  ..#.....C.C.....
01C0: 10 1D 18 80 23 01 4B 03  02 08 10 1C 80 80 E5 01  ....#.K.........
01D0: 1D 13 80 23 03 01 10 0D  80 43 00 43 01 03 00 00  ...#.....C.C....
01E0: 02 10 01 4B 03 02 08 10  1D 80 80 13 02 1D 13 80  ...K............
01F0: 23 03 01 10 0D 80 43 00  43 01 1D 14 80 23 03 01  #.....C.C....#..
0200: 10 0D 80 43 00 43 01 03  00 00 03 10 1D 16 80 23  ...C.C.........#
0210: 01 4B 03 02 08 10 1E 80  80 34 02 1D 13 80 23 03  .K.......4....#.
0220: 01 10 0D 80 43 00 43 01  03 00 00 05 10 1D 18 80  ....C.C.........
0230: 23 01 4B 03 02 08 10 1F  80 80 62 02 1D 13 80 23  #.K.......b....#
0240: 03 01 10 0D 80 43 00 43  01 1D 1A 80 23 03 01 10  .....C.C....#...
0250: 0D 80 43 00 43 01 03 00  00 03 10 1D 16 80 23 01  ..C.C.........#.
0260: 4B 03 02 08 10 20 80 80  90 02 1D 13 80 23 03 01  K.... .......#..
0270: 10 0D 80 43 00 43 01 1D  14 80 23 03 01 10 0D 80  ...C.C....#.....
0280: 43 00 43 01 03 00 00 03  10 1D 16 80 23 01 4B 03  C.C.........#.K.
0290: 02 08 10 21 80 80 A4 02  03 00 00 04 10 1D 11 80  ...!............
02A0: 23 01 4B 03 02 08 10 22  80 80 C1 02 1D 13 80 23  #.K....".......#
02B0: 03 01 10 0D 80 43 00 43  01 03 00 00 02 10 01 4B  .....C.C.......K
02C0: 03 02 08 10 23 80 80 EF  02 1D 13 80 23 03 01 10  ....#.......#...
02D0: 0D 80 43 00 43 01 1D 14  80 23 03 01 10 0D 80 43  ..C.C....#.....C
02E0: 00 43 01 03 00 00 03 10  1D 16 80 23 01 4B 03 02  .C.........#.K..
02F0: 08 10 24 80 80 1D 03 1D  13 80 23 03 01 10 0D 80  ..$.......#.....
0300: 43 00 43 01 1D 14 80 23  03 01 10 0D 80 43 00 43  C.C....#.....C.C
0310: 01 03 00 00 03 10 1D 16  80 23 01 4B 03 02 08 10  .........#.K....
0320: 25 80 80 4B 03 1D 13 80  23 03 01 10 0D 80 43 00  %..K....#.....C.
0330: 43 01 1D 14 80 23 03 01  10 0D 80 43 00 43 01 03  C....#.....C.C..
0340: 00 00 03 10 1D 16 80 23  01 4B 03 02 00 00 0A 80  .......#.K......
0350: 80 62 03 1D 26 80 23 1D  27 80 23 1D 28 80 23 01  .b..&.#.'.#.(.#.
0360: 80 03 02 00 00 06 80 80  71 03 1D 29 80 23 01 80  ........q..).#..
0370: 03 02 00 00 0D 80 80 80  03 1D 2A 80 23 01 80 03  ..........*.#...
0380: 03 01 10 12 80 21 00                              .....!.         
```

#### Opcodes

```
  0: 0x0048 [0x42] SET_CLI_EVENT_CANCEL_DATA()
  1: 0x0049 [0x1E] EventEntity looks at LocalPlayer and starts talking
  2: 0x004E [0x6F] WAIT_FRAME_DELAY: Yield until WaitTime reaches zero
  3: 0x004F [0x70] WAIT_ENTITY_RENDER_FLAG: Wait while EventEntity->Render.Flags3 bit 2 is set (cancel turn if not)
  4: 0x0050 [0x1D] PRINT_EVENT_MESSAGE(message_id=9222*)
    → "We can't have you thinking that the Epicureans just take and take and never give anything in return, now can we?"
  5: 0x0053 [0x23] WAIT_FOR_DIALOG_INTERACTION
  6: 0x0054 [0x1D] PRINT_EVENT_MESSAGE(message_id=9223*)
    → "So as a token of our appreciation for your help, we've decided to let you know one of the recipes from our "Super-Secret Recipe Cookbook"!"
  7: 0x0057 [0x23] WAIT_FOR_DIALOG_INTERACTION
  8: 0x0058 [0x02] IF !(Work_Zone[9] == 1*) GOTO 0x0067
  9: 0x0060 [0x1D] PRINT_EVENT_MESSAGE(message_id=9224*)
    → "But come to think of it, we taught you one just moments ago! If we handed out our secret recipes left and right, they wouldn't be a secret anymore, now would they?"
 10: 0x0063 [0x23] WAIT_FOR_DIALOG_INTERACTION
 11: 0x0064 [0x01] GOTO 0x0385
 12: 0x0067 [0x1D] PRINT_EVENT_MESSAGE(message_id=9225*)
    → "I'll teach you whatever recipe strikes me at the moment. Are you ready?"
 13: 0x006A [0x23] WAIT_FOR_DIALOG_INTERACTION
 14: 0x006B [0x24] CREATE_DIALOG(message_id=9226*, default_option=0*, option_flags=0*)
    → "Learn a secret recipe? [Yes, please!/Not interested.]"
 15: 0x0072 [0x25] WAIT_DIALOG_SELECT()
 16: 0x0073 [0x02] IF !(Work_Zone[0] == 1*) GOTO 0x0085
 17: 0x007B [0x1D] PRINT_EVENT_MESSAGE(message_id=9227*)
    → "Oh? Well, just ask if you ever want to know!"
 18: 0x007E [0x23] WAIT_FOR_DIALOG_INTERACTION
 19: 0x007F [0x01] GOTO 0x0385

SUBROUTINE_0085:
 20: 0x0085 [0x03] Work_Zone[1] = 1*
 21: 0x008A [0x43] SEND_EVENT_UPDATE: Send pending tag to server (packet 0x005B)
 22: 0x008C [0x43] SEND_EVENT_UPDATE: Check pending flag (skip if not pending)
 23: 0x008E [0x93] DISPLAY_ITEM_INFO(item_id=Work_Zone[2])
 24: 0x0091 [0x1D] PRINT_EVENT_MESSAGE(message_id=9228*)
    → "That's the spirit! All right, here goes... I'm going to teach you the recipe for...$0!"
 25: 0x0094 [0x23] WAIT_FOR_DIALOG_INTERACTION
 26: 0x0095 [0x93] DISPLAY_ITEM_INFO(item_id=0*)
 27: 0x0098 [0x03] Work_Zone[1] = 2*
 28: 0x009D [0x43] SEND_EVENT_UPDATE: Send pending tag to server (packet 0x005B)
 29: 0x009F [0x43] SEND_EVENT_UPDATE: Check pending flag (skip if not pending)
 30: 0x00A1 [0x02] IF !(Work_Zone[8] == 0*) GOTO 0x00C2
 31: 0x00A9 [0x1D] PRINT_EVENT_MESSAGE(message_id=9237*)
    → "Are you ready? Here goes... First, you'll need $0."
 32: 0x00AC [0x23] WAIT_FOR_DIALOG_INTERACTION
 33: 0x00AD [0x03] Work_Zone[1] = 2*
 34: 0x00B2 [0x43] SEND_EVENT_UPDATE: Send pending tag to server (packet 0x005B)
 35: 0x00B4 [0x43] SEND_EVENT_UPDATE: Check pending flag (skip if not pending)
 36: 0x00B6 [0x03] ExtData[1]->WorkLocal[0] = Work_Zone[4]
 37: 0x00BB [0x1D] PRINT_EVENT_MESSAGE(message_id=9239*)
    → "Then you only need two ingredients--$0 and $1. A piece of cake, right?"
 38: 0x00BE [0x23] WAIT_FOR_DIALOG_INTERACTION
 39: 0x00BF [0x01] GOTO 0x034B
 40: 0x00C2 [0x02] IF !(Work_Zone[8] == 1*) GOTO 0x00EC
 41: 0x00CA [0x1D] PRINT_EVENT_MESSAGE(message_id=9237*)
    → "Are you ready? Here goes... First, you'll need $0."
 42: 0x00CD [0x23] WAIT_FOR_DIALOG_INTERACTION
 43: 0x00CE [0x03] Work_Zone[1] = 2*
 44: 0x00D3 [0x43] SEND_EVENT_UPDATE: Send pending tag to server (packet 0x005B)
 45: 0x00D5 [0x43] SEND_EVENT_UPDATE: Check pending flag (skip if not pending)
 46: 0x00D7 [0x1D] PRINT_EVENT_MESSAGE(message_id=9243*)
    → "You also must have $0, $1, $2, and $3."
 47: 0x00DA [0x23] WAIT_FOR_DIALOG_INTERACTION
 48: 0x00DB [0x03] Work_Zone[1] = 2*
 49: 0x00E0 [0x43] SEND_EVENT_UPDATE: Send pending tag to server (packet 0x005B)
 50: 0x00E2 [0x43] SEND_EVENT_UPDATE: Check pending flag (skip if not pending)
 51: 0x00E4 [0x03] ExtData[1]->WorkLocal[0] = Work_Zone[2]
 52: 0x00E9 [0x01] GOTO 0x034B
 53: 0x00EC [0x02] IF !(Work_Zone[8] == 2*) GOTO 0x0100
 54: 0x00F4 [0x03] ExtData[1]->WorkLocal[0] = Work_Zone[4]
 55: 0x00F9 [0x1D] PRINT_EVENT_MESSAGE(message_id=9235*)
    → "Are you ready? Here goes... Just use $0 on $1, and you are all done!"
 56: 0x00FC [0x23] WAIT_FOR_DIALOG_INTERACTION
 57: 0x00FD [0x01] GOTO 0x034B
 58: 0x0100 [0x02] IF !(Work_Zone[8] == 3*) GOTO 0x012A
 59: 0x0108 [0x1D] PRINT_EVENT_MESSAGE(message_id=9241*)
    → "Are you ready? Here goes... First, you'll need $0. You also must have $1, $2, and $3."
 60: 0x010B [0x23] WAIT_FOR_DIALOG_INTERACTION
 61: 0x010C [0x03] Work_Zone[1] = 2*
 62: 0x0111 [0x43] SEND_EVENT_UPDATE: Send pending tag to server (packet 0x005B)
 63: 0x0113 [0x43] SEND_EVENT_UPDATE: Check pending flag (skip if not pending)
 64: 0x0115 [0x1D] PRINT_EVENT_MESSAGE(message_id=9247*)
    → "Oh, there are more...$0, $1, $2, and $3!"
 65: 0x0118 [0x23] WAIT_FOR_DIALOG_INTERACTION
 66: 0x0119 [0x03] Work_Zone[1] = 2*
 67: 0x011E [0x43] SEND_EVENT_UPDATE: Send pending tag to server (packet 0x005B)
 68: 0x0120 [0x43] SEND_EVENT_UPDATE: Check pending flag (skip if not pending)
 69: 0x0122 [0x03] ExtData[1]->WorkLocal[0] = Work_Zone[2]
 70: 0x0127 [0x01] GOTO 0x034B
 71: 0x012A [0x02] IF !(Work_Zone[8] == 4*) GOTO 0x0158
 72: 0x0132 [0x1D] PRINT_EVENT_MESSAGE(message_id=9241*)
    → "Are you ready? Here goes... First, you'll need $0. You also must have $1, $2, and $3."
 73: 0x0135 [0x23] WAIT_FOR_DIALOG_INTERACTION
 74: 0x0136 [0x03] Work_Zone[1] = 2*
 75: 0x013B [0x43] SEND_EVENT_UPDATE: Send pending tag to server (packet 0x005B)
 76: 0x013D [0x43] SEND_EVENT_UPDATE: Check pending flag (skip if not pending)
 77: 0x013F [0x1D] PRINT_EVENT_MESSAGE(message_id=9247*)
    → "Oh, there are more...$0, $1, $2, and $3!"
 78: 0x0142 [0x23] WAIT_FOR_DIALOG_INTERACTION
 79: 0x0143 [0x03] Work_Zone[1] = 2*
 80: 0x0148 [0x43] SEND_EVENT_UPDATE: Send pending tag to server (packet 0x005B)
 81: 0x014A [0x43] SEND_EVENT_UPDATE: Check pending flag (skip if not pending)
 82: 0x014C [0x03] ExtData[1]->WorkLocal[0] = Work_Zone[3]
 83: 0x0151 [0x1D] PRINT_EVENT_MESSAGE(message_id=9249*)
    → "...And last, but not least, $0! I know that's a lot, but just wait until you taste it!"
 84: 0x0154 [0x23] WAIT_FOR_DIALOG_INTERACTION
 85: 0x0155 [0x01] GOTO 0x034B
 86: 0x0158 [0x02] IF !(Work_Zone[8] == 5*) GOTO 0x0179
 87: 0x0160 [0x1D] PRINT_EVENT_MESSAGE(message_id=9241*)
    → "Are you ready? Here goes... First, you'll need $0. You also must have $1, $2, and $3."
 88: 0x0163 [0x23] WAIT_FOR_DIALOG_INTERACTION
 89: 0x0164 [0x03] Work_Zone[1] = 2*
 90: 0x0169 [0x43] SEND_EVENT_UPDATE: Send pending tag to server (packet 0x005B)
 91: 0x016B [0x43] SEND_EVENT_UPDATE: Check pending flag (skip if not pending)
 92: 0x016D [0x03] ExtData[1]->WorkLocal[0] = Work_Zone[5]
 93: 0x0172 [0x1D] PRINT_EVENT_MESSAGE(message_id=9245*)
    → "Oh, there are more...$0, $1, and $2!"
 94: 0x0175 [0x23] WAIT_FOR_DIALOG_INTERACTION
 95: 0x0176 [0x01] GOTO 0x034B
 96: 0x0179 [0x02] IF !(Work_Zone[8] == 6*) GOTO 0x01A7
 97: 0x0181 [0x1D] PRINT_EVENT_MESSAGE(message_id=9241*)
    → "Are you ready? Here goes... First, you'll need $0. You also must have $1, $2, and $3."
 98: 0x0184 [0x23] WAIT_FOR_DIALOG_INTERACTION
 99: 0x0185 [0x03] Work_Zone[1] = 2*
100: 0x018A [0x43] SEND_EVENT_UPDATE: Send pending tag to server (packet 0x005B)
101: 0x018C [0x43] SEND_EVENT_UPDATE: Check pending flag (skip if not pending)
102: 0x018E [0x1D] PRINT_EVENT_MESSAGE(message_id=9263*)
    → "Oh, there are more...$0, $1, and 2 $2!"
103: 0x0191 [0x23] WAIT_FOR_DIALOG_INTERACTION
104: 0x0192 [0x03] Work_Zone[1] = 2*
105: 0x0197 [0x43] SEND_EVENT_UPDATE: Send pending tag to server (packet 0x005B)
106: 0x0199 [0x43] SEND_EVENT_UPDATE: Check pending flag (skip if not pending)
107: 0x019B [0x03] ExtData[1]->WorkLocal[0] = Work_Zone[3]
108: 0x01A0 [0x1D] PRINT_EVENT_MESSAGE(message_id=9249*)
    → "...And last, but not least, $0! I know that's a lot, but just wait until you taste it!"
109: 0x01A3 [0x23] WAIT_FOR_DIALOG_INTERACTION
110: 0x01A4 [0x01] GOTO 0x034B
111: 0x01A7 [0x02] IF !(Work_Zone[8] == 7*) GOTO 0x01C8
112: 0x01AF [0x1D] PRINT_EVENT_MESSAGE(message_id=9241*)
    → "Are you ready? Here goes... First, you'll need $0. You also must have $1, $2, and $3."
113: 0x01B2 [0x23] WAIT_FOR_DIALOG_INTERACTION
114: 0x01B3 [0x03] Work_Zone[1] = 2*
115: 0x01B8 [0x43] SEND_EVENT_UPDATE: Send pending tag to server (packet 0x005B)
116: 0x01BA [0x43] SEND_EVENT_UPDATE: Check pending flag (skip if not pending)
117: 0x01BC [0x03] ExtData[1]->WorkLocal[0] = Work_Zone[5]
118: 0x01C1 [0x1D] PRINT_EVENT_MESSAGE(message_id=9245*)
    → "Oh, there are more...$0, $1, and $2!"
119: 0x01C4 [0x23] WAIT_FOR_DIALOG_INTERACTION
120: 0x01C5 [0x01] GOTO 0x034B
121: 0x01C8 [0x02] IF !(Work_Zone[8] == 8*) GOTO 0x01E5
122: 0x01D0 [0x1D] PRINT_EVENT_MESSAGE(message_id=9241*)
    → "Are you ready? Here goes... First, you'll need $0. You also must have $1, $2, and $3."
123: 0x01D3 [0x23] WAIT_FOR_DIALOG_INTERACTION
124: 0x01D4 [0x03] Work_Zone[1] = 2*
125: 0x01D9 [0x43] SEND_EVENT_UPDATE: Send pending tag to server (packet 0x005B)
126: 0x01DB [0x43] SEND_EVENT_UPDATE: Check pending flag (skip if not pending)
127: 0x01DD [0x03] ExtData[1]->WorkLocal[0] = Work_Zone[2]
128: 0x01E2 [0x01] GOTO 0x034B
129: 0x01E5 [0x02] IF !(Work_Zone[8] == 9*) GOTO 0x0213
130: 0x01ED [0x1D] PRINT_EVENT_MESSAGE(message_id=9241*)
    → "Are you ready? Here goes... First, you'll need $0. You also must have $1, $2, and $3."
131: 0x01F0 [0x23] WAIT_FOR_DIALOG_INTERACTION
132: 0x01F1 [0x03] Work_Zone[1] = 2*
133: 0x01F6 [0x43] SEND_EVENT_UPDATE: Send pending tag to server (packet 0x005B)
134: 0x01F8 [0x43] SEND_EVENT_UPDATE: Check pending flag (skip if not pending)
135: 0x01FA [0x1D] PRINT_EVENT_MESSAGE(message_id=9247*)
    → "Oh, there are more...$0, $1, $2, and $3!"
136: 0x01FD [0x23] WAIT_FOR_DIALOG_INTERACTION
137: 0x01FE [0x03] Work_Zone[1] = 2*
138: 0x0203 [0x43] SEND_EVENT_UPDATE: Send pending tag to server (packet 0x005B)
139: 0x0205 [0x43] SEND_EVENT_UPDATE: Check pending flag (skip if not pending)
140: 0x0207 [0x03] ExtData[1]->WorkLocal[0] = Work_Zone[3]
141: 0x020C [0x1D] PRINT_EVENT_MESSAGE(message_id=9249*)
    → "...And last, but not least, $0! I know that's a lot, but just wait until you taste it!"
142: 0x020F [0x23] WAIT_FOR_DIALOG_INTERACTION
143: 0x0210 [0x01] GOTO 0x034B
144: 0x0213 [0x02] IF !(Work_Zone[8] == 10*) GOTO 0x0234
145: 0x021B [0x1D] PRINT_EVENT_MESSAGE(message_id=9241*)
    → "Are you ready? Here goes... First, you'll need $0. You also must have $1, $2, and $3."
146: 0x021E [0x23] WAIT_FOR_DIALOG_INTERACTION
147: 0x021F [0x03] Work_Zone[1] = 2*
148: 0x0224 [0x43] SEND_EVENT_UPDATE: Send pending tag to server (packet 0x005B)
149: 0x0226 [0x43] SEND_EVENT_UPDATE: Check pending flag (skip if not pending)
150: 0x0228 [0x03] ExtData[1]->WorkLocal[0] = Work_Zone[5]
151: 0x022D [0x1D] PRINT_EVENT_MESSAGE(message_id=9245*)
    → "Oh, there are more...$0, $1, and $2!"
152: 0x0230 [0x23] WAIT_FOR_DIALOG_INTERACTION
153: 0x0231 [0x01] GOTO 0x034B
154: 0x0234 [0x02] IF !(Work_Zone[8] == 11*) GOTO 0x0262
155: 0x023C [0x1D] PRINT_EVENT_MESSAGE(message_id=9241*)
    → "Are you ready? Here goes... First, you'll need $0. You also must have $1, $2, and $3."
156: 0x023F [0x23] WAIT_FOR_DIALOG_INTERACTION
157: 0x0240 [0x03] Work_Zone[1] = 2*
158: 0x0245 [0x43] SEND_EVENT_UPDATE: Send pending tag to server (packet 0x005B)
159: 0x0247 [0x43] SEND_EVENT_UPDATE: Check pending flag (skip if not pending)
160: 0x0249 [0x1D] PRINT_EVENT_MESSAGE(message_id=9263*)
    → "Oh, there are more...$0, $1, and 2 $2!"
161: 0x024C [0x23] WAIT_FOR_DIALOG_INTERACTION
162: 0x024D [0x03] Work_Zone[1] = 2*
163: 0x0252 [0x43] SEND_EVENT_UPDATE: Send pending tag to server (packet 0x005B)
164: 0x0254 [0x43] SEND_EVENT_UPDATE: Check pending flag (skip if not pending)
165: 0x0256 [0x03] ExtData[1]->WorkLocal[0] = Work_Zone[3]
166: 0x025B [0x1D] PRINT_EVENT_MESSAGE(message_id=9249*)
    → "...And last, but not least, $0! I know that's a lot, but just wait until you taste it!"
167: 0x025E [0x23] WAIT_FOR_DIALOG_INTERACTION
168: 0x025F [0x01] GOTO 0x034B
169: 0x0262 [0x02] IF !(Work_Zone[8] == 12*) GOTO 0x0290
170: 0x026A [0x1D] PRINT_EVENT_MESSAGE(message_id=9241*)
    → "Are you ready? Here goes... First, you'll need $0. You also must have $1, $2, and $3."
171: 0x026D [0x23] WAIT_FOR_DIALOG_INTERACTION
172: 0x026E [0x03] Work_Zone[1] = 2*
173: 0x0273 [0x43] SEND_EVENT_UPDATE: Send pending tag to server (packet 0x005B)
174: 0x0275 [0x43] SEND_EVENT_UPDATE: Check pending flag (skip if not pending)
175: 0x0277 [0x1D] PRINT_EVENT_MESSAGE(message_id=9247*)
    → "Oh, there are more...$0, $1, $2, and $3!"
176: 0x027A [0x23] WAIT_FOR_DIALOG_INTERACTION
177: 0x027B [0x03] Work_Zone[1] = 2*
178: 0x0280 [0x43] SEND_EVENT_UPDATE: Send pending tag to server (packet 0x005B)
179: 0x0282 [0x43] SEND_EVENT_UPDATE: Check pending flag (skip if not pending)
180: 0x0284 [0x03] ExtData[1]->WorkLocal[0] = Work_Zone[3]
181: 0x0289 [0x1D] PRINT_EVENT_MESSAGE(message_id=9249*)
    → "...And last, but not least, $0! I know that's a lot, but just wait until you taste it!"
182: 0x028C [0x23] WAIT_FOR_DIALOG_INTERACTION
183: 0x028D [0x01] GOTO 0x034B
184: 0x0290 [0x02] IF !(Work_Zone[8] == 13*) GOTO 0x02A4
185: 0x0298 [0x03] ExtData[1]->WorkLocal[0] = Work_Zone[4]
186: 0x029D [0x1D] PRINT_EVENT_MESSAGE(message_id=9235*)
    → "Are you ready? Here goes... Just use $0 on $1, and you are all done!"
187: 0x02A0 [0x23] WAIT_FOR_DIALOG_INTERACTION
188: 0x02A1 [0x01] GOTO 0x034B
189: 0x02A4 [0x02] IF !(Work_Zone[8] == 14*) GOTO 0x02C1
190: 0x02AC [0x1D] PRINT_EVENT_MESSAGE(message_id=9241*)
    → "Are you ready? Here goes... First, you'll need $0. You also must have $1, $2, and $3."
191: 0x02AF [0x23] WAIT_FOR_DIALOG_INTERACTION
192: 0x02B0 [0x03] Work_Zone[1] = 2*
193: 0x02B5 [0x43] SEND_EVENT_UPDATE: Send pending tag to server (packet 0x005B)
194: 0x02B7 [0x43] SEND_EVENT_UPDATE: Check pending flag (skip if not pending)
195: 0x02B9 [0x03] ExtData[1]->WorkLocal[0] = Work_Zone[2]
196: 0x02BE [0x01] GOTO 0x034B
197: 0x02C1 [0x02] IF !(Work_Zone[8] == 15*) GOTO 0x02EF
198: 0x02C9 [0x1D] PRINT_EVENT_MESSAGE(message_id=9241*)
    → "Are you ready? Here goes... First, you'll need $0. You also must have $1, $2, and $3."
199: 0x02CC [0x23] WAIT_FOR_DIALOG_INTERACTION
200: 0x02CD [0x03] Work_Zone[1] = 2*
201: 0x02D2 [0x43] SEND_EVENT_UPDATE: Send pending tag to server (packet 0x005B)
202: 0x02D4 [0x43] SEND_EVENT_UPDATE: Check pending flag (skip if not pending)
203: 0x02D6 [0x1D] PRINT_EVENT_MESSAGE(message_id=9247*)
    → "Oh, there are more...$0, $1, $2, and $3!"
204: 0x02D9 [0x23] WAIT_FOR_DIALOG_INTERACTION
205: 0x02DA [0x03] Work_Zone[1] = 2*
206: 0x02DF [0x43] SEND_EVENT_UPDATE: Send pending tag to server (packet 0x005B)
207: 0x02E1 [0x43] SEND_EVENT_UPDATE: Check pending flag (skip if not pending)
208: 0x02E3 [0x03] ExtData[1]->WorkLocal[0] = Work_Zone[3]
209: 0x02E8 [0x1D] PRINT_EVENT_MESSAGE(message_id=9249*)
    → "...And last, but not least, $0! I know that's a lot, but just wait until you taste it!"
210: 0x02EB [0x23] WAIT_FOR_DIALOG_INTERACTION
211: 0x02EC [0x01] GOTO 0x034B
212: 0x02EF [0x02] IF !(Work_Zone[8] == 16*) GOTO 0x031D
213: 0x02F7 [0x1D] PRINT_EVENT_MESSAGE(message_id=9241*)
    → "Are you ready? Here goes... First, you'll need $0. You also must have $1, $2, and $3."
214: 0x02FA [0x23] WAIT_FOR_DIALOG_INTERACTION
215: 0x02FB [0x03] Work_Zone[1] = 2*
216: 0x0300 [0x43] SEND_EVENT_UPDATE: Send pending tag to server (packet 0x005B)
217: 0x0302 [0x43] SEND_EVENT_UPDATE: Check pending flag (skip if not pending)
218: 0x0304 [0x1D] PRINT_EVENT_MESSAGE(message_id=9247*)
    → "Oh, there are more...$0, $1, $2, and $3!"
219: 0x0307 [0x23] WAIT_FOR_DIALOG_INTERACTION
220: 0x0308 [0x03] Work_Zone[1] = 2*
221: 0x030D [0x43] SEND_EVENT_UPDATE: Send pending tag to server (packet 0x005B)
222: 0x030F [0x43] SEND_EVENT_UPDATE: Check pending flag (skip if not pending)
223: 0x0311 [0x03] ExtData[1]->WorkLocal[0] = Work_Zone[3]
224: 0x0316 [0x1D] PRINT_EVENT_MESSAGE(message_id=9249*)
    → "...And last, but not least, $0! I know that's a lot, but just wait until you taste it!"
225: 0x0319 [0x23] WAIT_FOR_DIALOG_INTERACTION
226: 0x031A [0x01] GOTO 0x034B
227: 0x031D [0x02] IF !(Work_Zone[8] == 17*) GOTO 0x034B
228: 0x0325 [0x1D] PRINT_EVENT_MESSAGE(message_id=9241*)
    → "Are you ready? Here goes... First, you'll need $0. You also must have $1, $2, and $3."
229: 0x0328 [0x23] WAIT_FOR_DIALOG_INTERACTION
230: 0x0329 [0x03] Work_Zone[1] = 2*
231: 0x032E [0x43] SEND_EVENT_UPDATE: Send pending tag to server (packet 0x005B)
232: 0x0330 [0x43] SEND_EVENT_UPDATE: Check pending flag (skip if not pending)
233: 0x0332 [0x1D] PRINT_EVENT_MESSAGE(message_id=9247*)
    → "Oh, there are more...$0, $1, $2, and $3!"
234: 0x0335 [0x23] WAIT_FOR_DIALOG_INTERACTION
235: 0x0336 [0x03] Work_Zone[1] = 2*
236: 0x033B [0x43] SEND_EVENT_UPDATE: Send pending tag to server (packet 0x005B)
237: 0x033D [0x43] SEND_EVENT_UPDATE: Check pending flag (skip if not pending)
238: 0x033F [0x03] ExtData[1]->WorkLocal[0] = Work_Zone[3]
239: 0x0344 [0x1D] PRINT_EVENT_MESSAGE(message_id=9249*)
    → "...And last, but not least, $0! I know that's a lot, but just wait until you taste it!"
240: 0x0347 [0x23] WAIT_FOR_DIALOG_INTERACTION
241: 0x0348 [0x01] GOTO 0x034B

SUBROUTINE_034B:
242: 0x034B [0x02] IF !(ExtData[1]->WorkLocal[0] == 0*) GOTO 0x0362
243: 0x0353 [0x1D] PRINT_EVENT_MESSAGE(message_id=9253*)
    → "Anyway, now you know how to make it, but I'm afraid you don't have enough skill..."
244: 0x0356 [0x23] WAIT_FOR_DIALOG_INTERACTION
245: 0x0357 [0x1D] PRINT_EVENT_MESSAGE(message_id=9254*)
    → "Ah, but then again..."
246: 0x035A [0x23] WAIT_FOR_DIALOG_INTERACTION
247: 0x035B [0x1D] PRINT_EVENT_MESSAGE(message_id=9255*)
    → "You could always have someone else make it for you. It's a secret recipe, though, so make sure to ask someone you can trust."
248: 0x035E [0x23] WAIT_FOR_DIALOG_INTERACTION
249: 0x035F [0x01] GOTO 0x0380
250: 0x0362 [0x02] IF !(ExtData[1]->WorkLocal[0] == 1*) GOTO 0x0371
251: 0x036A [0x1D] PRINT_EVENT_MESSAGE(message_id=9251*)
    → "So what do you think? Did you write that all down? Now all that's left is to try it out!"
252: 0x036D [0x23] WAIT_FOR_DIALOG_INTERACTION
253: 0x036E [0x01] GOTO 0x0380
254: 0x0371 [0x02] IF !(ExtData[1]->WorkLocal[0] == 2*) GOTO 0x0380
255: 0x0379 [0x1D] PRINT_EVENT_MESSAGE(message_id=9259*)
    → "I think it may be rather difficult for you to do if you have no experience in making confections..."
256: 0x037C [0x23] WAIT_FOR_DIALOG_INTERACTION
257: 0x037D [0x01] GOTO 0x0380

SUBROUTINE_0380:
258: 0x0380 [0x03] Work_Zone[1] = 3*

SUBROUTINE_0385:
259: 0x0385 [0x21] END_EVENT
260: 0x0386 [0x00] END_REQSTACK()
```

#### Data or dead code:

```
# Dead code (unreachable instructions):
     0x0082 [0x01] GOTO 0x0085
```

### Event 579

#### Metadata

| Field        | Value   |
|--------------|---------|
| Entrypoint   | 0x0387  |
| Data Size    | 1 bytes |
| Instructions | 1       |

```
      00 01 02 03 04 05 06 07  08 09 0A 0B 0C 0D 0E 0F
      -- -- -- -- -- -- -- --  -- -- -- -- -- -- -- --
0380:                      00                                  .        
```

#### Opcodes

```
  0: 0x0387 [0x00] END_REQSTACK()
```

### Event 580

#### Metadata

| Field        | Value   |
|--------------|---------|
| Entrypoint   | 0x0388  |
| Data Size    | 1 bytes |
| Instructions | 1       |

```
      00 01 02 03 04 05 06 07  08 09 0A 0B 0C 0D 0E 0F
      -- -- -- -- -- -- -- --  -- -- -- -- -- -- -- --
0380:                          00                               .       
```

#### Opcodes

```
  0: 0x0388 [0x00] END_REQSTACK()
```

### Event 65535.1

#### Metadata

| Field        | Value    |
|--------------|----------|
| Entrypoint   | 0x0389   |
| Data Size    | 20 bytes |
| Instructions | 4        |

```
      00 01 02 03 04 05 06 07  08 09 0A 0B 0C 0D 0E 0F
      -- -- -- -- -- -- -- --  -- -- -- -- -- -- -- --
0380:                             37 2B 80 2C 80 2D 80           7+.,.-.
0390: 15 80 80 F8 FF FF 7F 1E  F0 FF FF 7F 00           .............   
```

#### Opcodes

```
  0: 0x0389 [0x37] UPDATE_EVENT_POSITION_AND_DIR: x=81.835*, z=-135.337*, y=-6.000*, direction=0.4°*
  1: 0x0392 [0x80] LOAD_WAIT(entity=EventEntity)
  2: 0x0397 [0x1E] EventEntity looks at LocalPlayer and starts talking
  3: 0x039C [0x00] END_REQSTACK()
```

### Event 3026

#### Metadata

| Field        | Value   |
|--------------|---------|
| Entrypoint   | 0x039D  |
| Data Size    | 7 bytes |
| Instructions | 2       |

```
      00 01 02 03 04 05 06 07  08 09 0A 0B 0C 0D 0E 0F
      -- -- -- -- -- -- -- --  -- -- -- -- -- -- -- --
0390:                                         92 01 F8               ...
03A0: FF FF 7F 00                                       ....            
```

#### Opcodes

```
  0: 0x039D [0x92] EventEntity->Render.Flags3 ^= 0x01
  1: 0x03A3 [0x00] END_REQSTACK()
```

### Event 3027

#### Metadata

| Field        | Value   |
|--------------|---------|
| Entrypoint   | 0x03A4  |
| Data Size    | 7 bytes |
| Instructions | 2       |

```
      00 01 02 03 04 05 06 07  08 09 0A 0B 0C 0D 0E 0F
      -- -- -- -- -- -- -- --  -- -- -- -- -- -- -- --
03A0:             92 01 F8 FF  FF 7F 00                     .......     
```

#### Opcodes

```
  0: 0x03A4 [0x92] EventEntity->Render.Flags3 ^= 0x01
  1: 0x03AA [0x00] END_REQSTACK()
```

### Event 3033

#### Metadata

| Field        | Value   |
|--------------|---------|
| Entrypoint   | 0x03AB  |
| Data Size    | 7 bytes |
| Instructions | 2       |

```
      00 01 02 03 04 05 06 07  08 09 0A 0B 0C 0D 0E 0F
      -- -- -- -- -- -- -- --  -- -- -- -- -- -- -- --
03A0:                                   92 01 F8 FF FF             .....
03B0: 7F 00                                             ..              
```

#### Opcodes

```
  0: 0x03AB [0x92] EventEntity->Render.Flags3 ^= 0x01
  1: 0x03B1 [0x00] END_REQSTACK()
```

### Event 3034

#### Metadata

| Field        | Value   |
|--------------|---------|
| Entrypoint   | 0x03B2  |
| Data Size    | 7 bytes |
| Instructions | 2       |

```
      00 01 02 03 04 05 06 07  08 09 0A 0B 0C 0D 0E 0F
      -- -- -- -- -- -- -- --  -- -- -- -- -- -- -- --
03B0:       92 01 F8 FF FF 7F  00                         .......       
```

#### Opcodes

```
  0: 0x03B2 [0x92] EventEntity->Render.Flags3 ^= 0x01
  1: 0x03B8 [0x00] END_REQSTACK()
```

### Event 65535.2

#### Metadata

| Field        | Value    |
|--------------|----------|
| Entrypoint   | 0x03B9   |
| Data Size    | 18 bytes |
| Instructions | 4        |

```
      00 01 02 03 04 05 06 07  08 09 0A 0B 0C 0D 0E 0F
      -- -- -- -- -- -- -- --  -- -- -- -- -- -- -- --
03B0:                             6E F8 FF FF 7F 00 80           n......
03C0: 99 F8 FF FF 7F 99 F8 FF  FF 7F 00                 ...........     
```

#### Opcodes

```
  0: 0x03B9 [0x6E] EventEntity uses emote 26*
  1: 0x03C0 [0x99] Wait for EventEntity animation to complete
  2: 0x03C5 [0x99] Wait for EventEntity animation to complete
  3: 0x03CA [0x00] END_REQSTACK()
```

### Event 861

#### Metadata

| Field        | Value    |
|--------------|----------|
| Entrypoint   | 0x03CB   |
| Data Size    | 52 bytes |
| Instructions | 12       |

```
      00 01 02 03 04 05 06 07  08 09 0A 0B 0C 0D 0E 0F
      -- -- -- -- -- -- -- --  -- -- -- -- -- -- -- --
03C0:                                   1E F0 FF FF 7F             .....
03D0: 1C 01 80 1D 2E 80 23 66  1D 80 02 21 03 01 02 21  ......#f...!...!
03E0: 03 01 74 77 62 30 1D 2F  80 23 66 1D 80 02 21 03  ..twb0./.#f...!.
03F0: 01 02 21 03 01 74 77 62  31 1D 30 80 23 21 00     ..!..twb1.0.#!. 
```

#### Opcodes

```
  0: 0x03CB [0x1E] EventEntity looks at LocalPlayer and starts talking
  1: 0x03D0 [0x1C] WAIT(30* ticks)
  2: 0x03D3 [0x1D] PRINT_EVENT_MESSAGE(message_id=7291*)
    → "Greetings, traveller! Have you heard of our special of the day?"
  3: 0x03D6 [0x23] WAIT_FOR_DIALOG_INTERACTION
  4: 0x03D7 [0x66] LOAD_EXT_SCHEDULER_MAIN: Load scheduler "twb0" with entities [Ulamaal (ID: 16982274/0x01032102), Ulamaal (ID: 16982274/0x01032102)], work=9*
  5: 0x03E6 [0x1D] PRINT_EVENT_MESSAGE(message_id=7292*)
    → "Ratihb came up with the idea himself. However, because we only serve ten specials a day, we're sold out before the first customer even sits down."
  6: 0x03E9 [0x23] WAIT_FOR_DIALOG_INTERACTION
  7: 0x03EA [0x66] LOAD_EXT_SCHEDULER_MAIN: Load scheduler "twb1" with entities [Ulamaal (ID: 16982274/0x01032102), Ulamaal (ID: 16982274/0x01032102)], work=9*
  8: 0x03F9 [0x1D] PRINT_EVENT_MESSAGE(message_id=7293*)
    → "I haven't even had the chance to try one..."
  9: 0x03FC [0x23] WAIT_FOR_DIALOG_INTERACTION
 10: 0x03FD [0x21] END_EVENT
 11: 0x03FE [0x00] END_REQSTACK()
```

### Event 875

#### Metadata

| Field        | Value    |
|--------------|----------|
| Entrypoint   | 0x03FF   |
| Data Size    | 34 bytes |
| Instructions | 10       |

```
      00 01 02 03 04 05 06 07  08 09 0A 0B 0C 0D 0E 0F
      -- -- -- -- -- -- -- --  -- -- -- -- -- -- -- --
03F0:                                               42                 B
0400: 1E F0 FF FF 7F 1C 01 80  1D 31 80 23 66 1D 80 02  .........1.#f...
0410: 21 03 01 02 21 03 01 74  77 62 30 1D 32 80 23 21  !...!..twb0.2.#!
0420: 00                                                .               
```

#### Opcodes

```
  0: 0x03FF [0x42] SET_CLI_EVENT_CANCEL_DATA()
  1: 0x0400 [0x1E] EventEntity looks at LocalPlayer and starts talking
  2: 0x0405 [0x1C] WAIT(30* ticks)
  3: 0x0408 [0x1D] PRINT_EVENT_MESSAGE(message_id=7347*)
    → "I'm sorry, [sir/ma'am], but if you came to purchase more than one of today's specials, you no longer can. One special per customer, please."
  4: 0x040B [0x23] WAIT_FOR_DIALOG_INTERACTION
  5: 0x040C [0x66] LOAD_EXT_SCHEDULER_MAIN: Load scheduler "twb0" with entities [Ulamaal (ID: 16982274/0x01032102), Ulamaal (ID: 16982274/0x01032102)], work=9*
  6: 0x041B [0x1D] PRINT_EVENT_MESSAGE(message_id=7348*)
    → "(Hopefully now this means I'll be able to finally buy myself one!)"
  7: 0x041E [0x23] WAIT_FOR_DIALOG_INTERACTION
  8: 0x041F [0x21] END_EVENT
  9: 0x0420 [0x00] END_REQSTACK()
```

### Event 864

#### Metadata

| Field        | Value   |
|--------------|---------|
| Entrypoint   | 0x0421  |
| Data Size    | 7 bytes |
| Instructions | 2       |

```
      00 01 02 03 04 05 06 07  08 09 0A 0B 0C 0D 0E 0F
      -- -- -- -- -- -- -- --  -- -- -- -- -- -- -- --
0420:    92 01 F8 FF FF 7F 00                            .......        
```

#### Opcodes

```
  0: 0x0421 [0x92] EventEntity->Render.Flags3 ^= 0x01
  1: 0x0427 [0x00] END_REQSTACK()
```

### Event 65535.3

#### Metadata

| Field        | Value    |
|--------------|----------|
| Entrypoint   | 0x0428   |
| Data Size    | 19 bytes |
| Instructions | 5        |

```
      00 01 02 03 04 05 06 07  08 09 0A 0B 0C 0D 0E 0F
      -- -- -- -- -- -- -- --  -- -- -- -- -- -- -- --
0420:                          32 21 80 1F 00 33 80 34          2!...3.4
0430: 80 2D 80 1F 01 1E 54 20  03 01 00                 .-....T ...     
```

#### Opcodes

```
  0: 0x0428 [0x32] ExtData[1]->MainSpeed = 13* * 0.1
  1: 0x042B [0x1F] MOVE_ENTITY: EventEntity moves to X=78.677*, Z=-134.011*, Y=-6.000*
  2: 0x0433 [0x1F] MOVE_ENTITY: Update entity position (mode=1)
  3: 0x0435 [0x1E] EventEntity looks at Yafaaf (ID: 16982100/0x01032054) and starts talking
  4: 0x043A [0x00] END_REQSTACK()
```

### Event 65535.4

#### Metadata

| Field        | Value    |
|--------------|----------|
| Entrypoint   | 0x043B   |
| Data Size    | 19 bytes |
| Instructions | 5        |

```
      00 01 02 03 04 05 06 07  08 09 0A 0B 0C 0D 0E 0F
      -- -- -- -- -- -- -- --  -- -- -- -- -- -- -- --
0430:                                   32 21 80 1F 00             2!...
0440: 35 80 36 80 2D 80 1F 01  1E 54 20 03 01 00        5.6.-....T ...  
```

#### Opcodes

```
  0: 0x043B [0x32] ExtData[1]->MainSpeed = 13* * 0.1
  1: 0x043E [0x1F] MOVE_ENTITY: EventEntity moves to X=78.268*, Z=-135.273*, Y=-6.000*
  2: 0x0446 [0x1F] MOVE_ENTITY: Update entity position (mode=1)
  3: 0x0448 [0x1E] EventEntity looks at Yafaaf (ID: 16982100/0x01032054) and starts talking
  4: 0x044D [0x00] END_REQSTACK()
```

### Event 65535.5

#### Metadata

| Field        | Value    |
|--------------|----------|
| Entrypoint   | 0x044E   |
| Data Size    | 19 bytes |
| Instructions | 5        |

```
      00 01 02 03 04 05 06 07  08 09 0A 0B 0C 0D 0E 0F
      -- -- -- -- -- -- -- --  -- -- -- -- -- -- -- --
0440:                                            32 21                2!
0450: 80 1F 00 37 80 38 80 2D  80 1F 01 1E 54 20 03 01  ...7.8.-....T ..
0460: 00                                                .               
```

#### Opcodes

```
  0: 0x044E [0x32] ExtData[1]->MainSpeed = 13* * 0.1
  1: 0x0451 [0x1F] MOVE_ENTITY: EventEntity moves to X=78.167*, Z=-136.256*, Y=-6.000*
  2: 0x0459 [0x1F] MOVE_ENTITY: Update entity position (mode=1)
  3: 0x045B [0x1E] EventEntity looks at Yafaaf (ID: 16982100/0x01032054) and starts talking
  4: 0x0460 [0x00] END_REQSTACK()
```

### Event 65535.6

#### Metadata

| Field        | Value    |
|--------------|----------|
| Entrypoint   | 0x0461   |
| Data Size    | 19 bytes |
| Instructions | 5        |

```
      00 01 02 03 04 05 06 07  08 09 0A 0B 0C 0D 0E 0F
      -- -- -- -- -- -- -- --  -- -- -- -- -- -- -- --
0460:    32 21 80 1F 00 39 80  3A 80 2D 80 1F 01 1E 54   2!...9.:.-....T
0470: 20 03 01 00                                        ...            
```

#### Opcodes

```
  0: 0x0461 [0x32] ExtData[1]->MainSpeed = 13* * 0.1
  1: 0x0464 [0x1F] MOVE_ENTITY: EventEntity moves to X=77.377*, Z=-137.981*, Y=-6.000*
  2: 0x046C [0x1F] MOVE_ENTITY: Update entity position (mode=1)
  3: 0x046E [0x1E] EventEntity looks at Yafaaf (ID: 16982100/0x01032054) and starts talking
  4: 0x0473 [0x00] END_REQSTACK()
```

### Event 65535.7

#### Metadata

| Field        | Value    |
|--------------|----------|
| Entrypoint   | 0x0474   |
| Data Size    | 14 bytes |
| Instructions | 4        |

```
      00 01 02 03 04 05 06 07  08 09 0A 0B 0C 0D 0E 0F
      -- -- -- -- -- -- -- --  -- -- -- -- -- -- -- --
0470:             32 21 80 1F  00 3B 80 3C 80 2D 80 1F      2!...;.<.-..
0480: 01 00                                             ..              
```

#### Opcodes

```
  0: 0x0474 [0x32] ExtData[1]->MainSpeed = 13* * 0.1
  1: 0x0477 [0x1F] MOVE_ENTITY: EventEntity moves to X=82.702*, Z=-135.689*, Y=-6.000*
  2: 0x047F [0x1F] MOVE_ENTITY: Update entity position (mode=1)
  3: 0x0481 [0x00] END_REQSTACK()
```

### Event 65535.8

#### Metadata

| Field        | Value    |
|--------------|----------|
| Entrypoint   | 0x0482   |
| Data Size    | 32 bytes |
| Instructions | 8        |

```
      00 01 02 03 04 05 06 07  08 09 0A 0B 0C 0D 0E 0F
      -- -- -- -- -- -- -- --  -- -- -- -- -- -- -- --
0480:       32 3D 80 1F 00 3E  80 3F 80 2D 80 1F 01 1C    2=...>.?.-....
0490: 17 80 6E 02 21 03 01 40  80 99 02 21 03 01 1C 41  ..n.!..@...!...A
04A0: 80 00                                             ..              
```

#### Opcodes

```
  0: 0x0482 [0x32] ExtData[1]->MainSpeed = 40* * 0.1
  1: 0x0485 [0x1F] MOVE_ENTITY: EventEntity moves to X=78.315*, Z=-135.746*, Y=-6.000*
  2: 0x048D [0x1F] MOVE_ENTITY: Update entity position (mode=1)
  3: 0x048F [0x1C] WAIT(5* ticks)
  4: 0x0492 [0x6E] Ulamaal (ID: 16982274/0x01032102) uses emote 19*
  5: 0x0499 [0x99] Wait for Ulamaal (ID: 16982274/0x01032102) animation to complete
  6: 0x049E [0x1C] WAIT(90* ticks)
  7: 0x04A1 [0x00] END_REQSTACK()
```

### Event 872

#### Metadata

| Field        | Value   |
|--------------|---------|
| Entrypoint   | 0x04A2  |
| Data Size    | 7 bytes |
| Instructions | 2       |

```
      00 01 02 03 04 05 06 07  08 09 0A 0B 0C 0D 0E 0F
      -- -- -- -- -- -- -- --  -- -- -- -- -- -- -- --
04A0:       92 01 F8 FF FF 7F  00                         .......       
```

#### Opcodes

```
  0: 0x04A2 [0x92] EventEntity->Render.Flags3 ^= 0x01
  1: 0x04A8 [0x00] END_REQSTACK()
```
