# 16982414 - Yadhiwa

## Common Data

| Field            | Value                         |
|------------------|-------------------------------|
| Zone             | Aht Urhgan Whitegate (ID: 50) |
| Block Size       | 352 bytes                     |
| Total Events     | 12                            |
| References Count | 25                            |

## List of Events

| Event ID                 | Entrypoint   |   Size |   Instructions |
|--------------------------|--------------|--------|----------------|
| [65535](#event-65535)    | 0x0000       |      1 |              1 |
| [591](#event-591)        | 0x0001       |      1 |              1 |
| [65535.1](#event-655351) | 0x0002       |     14 |              4 |
| [65535.2](#event-655352) | 0x0010       |     24 |              6 |
| [592](#event-592)        | 0x0028       |      1 |              1 |
| [65535.3](#event-655353) | 0x0029       |     10 |              2 |
| [65535.4](#event-655354) | 0x0033       |     61 |              5 |
| [65535.5](#event-655355) | 0x0070       |     23 |              5 |
| [65535.6](#event-655356) | 0x0087       |      4 |              2 |
| [65535.7](#event-655357) | 0x008B       |     13 |              3 |
| [65535.8](#event-655358) | 0x0098       |      8 |              2 |
| [65535.9](#event-655359) | 0x00A0       |     27 |              7 |

## DAT References (imed_data)

|   Index | Hex Value   |   Dec Value |
|---------|-------------|-------------|
|       0 | 0x0028      |          40 |
|       1 | 0x11E2A     |       73258 |
|       2 | 0xFFFE0F7C  |  4294840188 |
|       3 | 0xFFFFE890  |  4294961296 |
|       4 | 0x13777     |       79735 |
|       5 | 0xFFFE2811  |  4294846481 |
|       6 | 0x13197     |       78231 |
|       7 | 0xFFFE3319  |  4294849305 |
|       8 | 0xFFFFCB97  |  4294953879 |
|       9 | 0x17DCC     |       97740 |
|      10 | 0x07CF      |        1999 |
|      11 | 0x01F3      |         499 |
|      12 | 0x001F      |          31 |
|      13 | 0x00E4      |         228 |
|      14 | 0x0000      |           0 |
|      15 | 0x000D      |          13 |
|      16 | 0xFFFFCAD1  |  4294953681 |
|      17 | 0x188B1     |      100529 |
|      18 | 0x00C8      |         200 |
|      19 | 0x0019      |          25 |
|      20 | 0x1460      |        5216 |
|      21 | 0xFFFFCF78  |  4294954872 |
|      22 | 0x17356     |       95062 |
|      23 | 0xFFFFACDF  |  4294946015 |
|      24 | 0x1620F     |       90639 |

## Events

### Event 65535

#### Metadata

| Field        | Value   |
|--------------|---------|
| Entrypoint   | 0x0000  |
| Data Size    | 1 bytes |
| Instructions | 1       |

```
      00 01 02 03 04 05 06 07  08 09 0A 0B 0C 0D 0E 0F
      -- -- -- -- -- -- -- --  -- -- -- -- -- -- -- --
0000: 00                                                .               
```

#### Opcodes

```
  0: 0x0000 [0x00] END_REQSTACK()
```

### Event 591

#### Metadata

| Field        | Value   |
|--------------|---------|
| Entrypoint   | 0x0001  |
| Data Size    | 1 bytes |
| Instructions | 1       |

```
      00 01 02 03 04 05 06 07  08 09 0A 0B 0C 0D 0E 0F
      -- -- -- -- -- -- -- --  -- -- -- -- -- -- -- --
0000:    00                                              .              
```

#### Opcodes

```
  0: 0x0001 [0x00] END_REQSTACK()
```

### Event 65535.1

#### Metadata

| Field        | Value    |
|--------------|----------|
| Entrypoint   | 0x0002   |
| Data Size    | 14 bytes |
| Instructions | 4        |

```
      00 01 02 03 04 05 06 07  08 09 0A 0B 0C 0D 0E 0F
      -- -- -- -- -- -- -- --  -- -- -- -- -- -- -- --
0000:       32 00 80 1F 00 01  80 02 80 03 80 1F 01 00    2.............
```

#### Opcodes

```
  0: 0x0002 [0x32] ExtData[1]->MainSpeed = 40* * 0.1
  1: 0x0005 [0x1F] MOVE_ENTITY: EventEntity moves to X=73.258*, Z=-127.108*, Y=-6.000*
  2: 0x000D [0x1F] MOVE_ENTITY: Update entity position (mode=1)
  3: 0x000F [0x00] END_REQSTACK()
```

### Event 65535.2

#### Metadata

| Field        | Value    |
|--------------|----------|
| Entrypoint   | 0x0010   |
| Data Size    | 24 bytes |
| Instructions | 6        |

```
      00 01 02 03 04 05 06 07  08 09 0A 0B 0C 0D 0E 0F
      -- -- -- -- -- -- -- --  -- -- -- -- -- -- -- --
0010: 32 00 80 1F 00 04 80 05  80 03 80 1F 01 1F 00 06  2...............
0020: 80 07 80 03 80 1F 01 00                           ........        
```

#### Opcodes

```
  0: 0x0010 [0x32] ExtData[1]->MainSpeed = 40* * 0.1
  1: 0x0013 [0x1F] MOVE_ENTITY: EventEntity moves to X=79.735*, Z=-120.815*, Y=-6.000*
  2: 0x001B [0x1F] MOVE_ENTITY: Update entity position (mode=1)
  3: 0x001D [0x1F] MOVE_ENTITY: EventEntity moves to X=78.231*, Z=-117.991*, Y=-6.000*
  4: 0x0025 [0x1F] MOVE_ENTITY: Update entity position (mode=1)
  5: 0x0027 [0x00] END_REQSTACK()
```

### Event 592

#### Metadata

| Field        | Value   |
|--------------|---------|
| Entrypoint   | 0x0028  |
| Data Size    | 1 bytes |
| Instructions | 1       |

```
      00 01 02 03 04 05 06 07  08 09 0A 0B 0C 0D 0E 0F
      -- -- -- -- -- -- -- --  -- -- -- -- -- -- -- --
0020:                          00                               .       
```

#### Opcodes

```
  0: 0x0028 [0x00] END_REQSTACK()
```

### Event 65535.3

#### Metadata

| Field        | Value    |
|--------------|----------|
| Entrypoint   | 0x0029   |
| Data Size    | 10 bytes |
| Instructions | 2        |

```
      00 01 02 03 04 05 06 07  08 09 0A 0B 0C 0D 0E 0F
      -- -- -- -- -- -- -- --  -- -- -- -- -- -- -- --
0020:                             37 08 80 09 80 0A 80           7......
0030: 0B 80 00                                          ...             
```

#### Opcodes

```
  0: 0x0029 [0x37] UPDATE_EVENT_POSITION_AND_DIR: x=-13.417*, z=97.740*, y=1.999*, direction=43.9°*
  1: 0x0032 [0x00] END_REQSTACK()
```

### Event 65535.4

#### Metadata

| Field        | Value    |
|--------------|----------|
| Entrypoint   | 0x0033   |
| Data Size    | 61 bytes |
| Instructions | 5        |

```
      00 01 02 03 04 05 06 07  08 09 0A 0B 0C 0D 0E 0F
      -- -- -- -- -- -- -- --  -- -- -- -- -- -- -- --
0030:          66 0C 80 8E 21  03 01 8E 21 03 01 64 61     f...!...!..da
0040: 69 30 9F 0D 80 8E 21 03  01 8E 21 03 01 6D 61 69  i0....!...!..mai
0050: 6E 0E 80 53 8E 21 03 01  8E 21 03 01 64 61 69 30  n..S.!...!..dai0
0060: 66 0C 80 8E 21 03 01 8E  21 03 01 64 61 69 31 00  f...!...!..dai1.
```

#### Opcodes

```
  0: 0x0033 [0x66] LOAD_EXT_SCHEDULER_MAIN: Load scheduler "dai0" with entities [Yadhiwa (ID: 16982414/0x0103218E), Yadhiwa (ID: 16982414/0x0103218E)], work=31*
  1: 0x0042 [0x9F] LOAD_SCHEDULED_TASK_ALT: Load scheduler "main" with entities [Yadhiwa (ID: 16982414/0x0103218E), Yadhiwa (ID: 16982414/0x0103218E)], work=[228*, 0*]
  2: 0x0053 [0x53] WAIT_SCHEDULER_TASK: Wait for scheduler "dai0" with entities [Yadhiwa (ID: 16982414/0x0103218E), Yadhiwa (ID: 16982414/0x0103218E)]
  3: 0x0060 [0x66] LOAD_EXT_SCHEDULER_MAIN: Load scheduler "dai1" with entities [Yadhiwa (ID: 16982414/0x0103218E), Yadhiwa (ID: 16982414/0x0103218E)], work=31*
  4: 0x006F [0x00] END_REQSTACK()
```

### Event 65535.5

#### Metadata

| Field        | Value    |
|--------------|----------|
| Entrypoint   | 0x0070   |
| Data Size    | 23 bytes |
| Instructions | 5        |

```
      00 01 02 03 04 05 06 07  08 09 0A 0B 0C 0D 0E 0F
      -- -- -- -- -- -- -- --  -- -- -- -- -- -- -- --
0070: 37 08 80 09 80 0A 80 0B  80 32 0F 80 1F 00 10 80  7........2......
0080: 11 80 0A 80 1F 01 00                              .......         
```

#### Opcodes

```
  0: 0x0070 [0x37] UPDATE_EVENT_POSITION_AND_DIR: x=-13.417*, z=97.740*, y=1.999*, direction=43.9°*
  1: 0x0079 [0x32] ExtData[1]->MainSpeed = 13* * 0.1
  2: 0x007C [0x1F] MOVE_ENTITY: EventEntity moves to X=-13.615*, Z=100.529*, Y=1.999*
  3: 0x0084 [0x1F] MOVE_ENTITY: Update entity position (mode=1)
  4: 0x0086 [0x00] END_REQSTACK()
```

### Event 65535.6

#### Metadata

| Field        | Value   |
|--------------|---------|
| Entrypoint   | 0x0087  |
| Data Size    | 4 bytes |
| Instructions | 2       |

```
      00 01 02 03 04 05 06 07  08 09 0A 0B 0C 0D 0E 0F
      -- -- -- -- -- -- -- --  -- -- -- -- -- -- -- --
0080:                      39  12 80 00                        9...     
```

#### Opcodes

```
  0: 0x0087 [0x39] SET_ENTITY_DIRECTION(direction=1.1°*)
  1: 0x008A [0x00] END_REQSTACK()
```

### Event 65535.7

#### Metadata

| Field        | Value    |
|--------------|----------|
| Entrypoint   | 0x008B   |
| Data Size    | 13 bytes |
| Instructions | 3        |

```
      00 01 02 03 04 05 06 07  08 09 0A 0B 0C 0D 0E 0F
      -- -- -- -- -- -- -- --  -- -- -- -- -- -- -- --
0080:                                   6E 8E 21 03 01             n.!..
0090: 13 80 99 8E 21 03 01 00                           ....!...        
```

#### Opcodes

```
  0: 0x008B [0x6E] Yadhiwa (ID: 16982414/0x0103218E) uses emote 25*
  1: 0x0092 [0x99] Wait for Yadhiwa (ID: 16982414/0x0103218E) animation to complete
  2: 0x0097 [0x00] END_REQSTACK()
```

### Event 65535.8

#### Metadata

| Field        | Value   |
|--------------|---------|
| Entrypoint   | 0x0098  |
| Data Size    | 8 bytes |
| Instructions | 2       |

```
      00 01 02 03 04 05 06 07  08 09 0A 0B 0C 0D 0E 0F
      -- -- -- -- -- -- -- --  -- -- -- -- -- -- -- --
0090:                          2B 8E 21 03 01 14 80 00          +.!.....
```

#### Opcodes

```
  0: 0x0098 [0x2B] Yadhiwa (ID: 16982414/0x0103218E) [5216*]:
    → "Ah well. Let's go!"
  1: 0x009F [0x00] END_REQSTACK()
```

### Event 65535.9

#### Metadata

| Field        | Value    |
|--------------|----------|
| Entrypoint   | 0x00A0   |
| Data Size    | 27 bytes |
| Instructions | 7        |

```
      00 01 02 03 04 05 06 07  08 09 0A 0B 0C 0D 0E 0F
      -- -- -- -- -- -- -- --  -- -- -- -- -- -- -- --
00A0: 32 00 80 1F 00 15 80 16  80 0A 80 1F 01 32 00 80  2............2..
00B0: 1F 00 17 80 18 80 0E 80  1F 01 00                 ...........     
```

#### Opcodes

```
  0: 0x00A0 [0x32] ExtData[1]->MainSpeed = 40* * 0.1
  1: 0x00A3 [0x1F] MOVE_ENTITY: EventEntity moves to X=-12.424*, Z=95.062*, Y=1.999*
  2: 0x00AB [0x1F] MOVE_ENTITY: Update entity position (mode=1)
  3: 0x00AD [0x32] ExtData[1]->MainSpeed = 40* * 0.1
  4: 0x00B0 [0x1F] MOVE_ENTITY: EventEntity moves to X=-21.281*, Z=90.639*, Y=0.000*
  5: 0x00B8 [0x1F] MOVE_ENTITY: Update entity position (mode=1)
  6: 0x00BA [0x00] END_REQSTACK()
```
