# 16982256

## Common Data

| Field            | Value                         |
|------------------|-------------------------------|
| Zone             | Aht Urhgan Whitegate (ID: 50) |
| Block Size       | 132 bytes                     |
| Total Events     | 2                             |
| References Count | 7                             |

## List of Events

| Event ID              | Entrypoint   |   Size |   Instructions |
|-----------------------|--------------|--------|----------------|
| [65535](#event-65535) | 0x0000       |      1 |              1 |
| [112](#event-112)     | 0x0001       |     78 |             14 |

## DAT References (imed_data)

|   Index | Hex Value   |   Dec Value |
|---------|-------------|-------------|
|       0 | 0x11F7      |        4599 |
|       1 | 0x0001      |           1 |
|       2 | 0x0000      |           0 |
|       3 | 0x00C8      |         200 |
|       4 | 0x003C      |          60 |
|       5 | 0x010C      |         268 |
|       6 | 0x00B4      |         180 |

## Events

### Event 65535

#### Metadata

| Field        | Value   |
|--------------|---------|
| Entrypoint   | 0x0000  |
| Data Size    | 1 bytes |
| Instructions | 1       |

```
      00 01 02 03 04 05 06 07  08 09 0A 0B 0C 0D 0E 0F
      -- -- -- -- -- -- -- --  -- -- -- -- -- -- -- --
0000: 00                                                .               
```

#### Opcodes

```
  0: 0x0000 [0x00] END_REQSTACK()
```

### Event 112

#### Metadata

| Field        | Value    |
|--------------|----------|
| Entrypoint   | 0x0001   |
| Data Size    | 78 bytes |
| Instructions | 14       |

```
      00 01 02 03 04 05 06 07  08 09 0A 0B 0C 0D 0E 0F
      -- -- -- -- -- -- -- --  -- -- -- -- -- -- -- --
0000:    24 00 80 01 80 02 80  25 02 00 10 02 80 00 42   $......%......B
0010: 00 42 03 01 10 01 80 45  03 80 F0 FF FF 7F F0 FF  .B.....E........
0020: FF 7F 66 64 6F 31 02 80  1C 04 80 45 05 80 F0 FF  ..fdo1.....E....
0030: FF 7F F0 FF FF 7F 64 6F  72 32 02 80 1C 06 80 01  ......dor2......
0040: 4D 00 02 00 10 01 80 00  4D 00 01 4D 00 21 00     M.......M..M.!. 
```

#### Opcodes

```
  0: 0x0001 [0x24] CREATE_DIALOG(message_id=4599*, default_option=1*, option_flags=0*)
    → "DEBUG: Open the door?\u0007\u000BYes.\u0007No.\u007F1\u0000\u0007"
  1: 0x0008 [0x25] WAIT_DIALOG_SELECT()
  2: 0x0009 [0x02] IF !(Work_Zone[0] == 0*) GOTO 0x0042
  3: 0x0011 [0x42] SET_CLI_EVENT_CANCEL_DATA()
  4: 0x0012 [0x03] Work_Zone[1] = 1*
  5: 0x0017 [0x45] LOAD_SCHEDULED_TASK: Load scheduler "fdo1" with entities [LocalPlayer, LocalPlayer], work=[200*, 0*]
  6: 0x0028 [0x1C] WAIT(60* ticks)
  7: 0x002B [0x45] LOAD_SCHEDULED_TASK: Load scheduler "dor2" with entities [LocalPlayer, LocalPlayer], work=[268*, 0*]
  8: 0x003C [0x1C] WAIT(180* ticks)
  9: 0x003F [0x01] GOTO 0x004D
 10: 0x0042 [0x02] IF !(Work_Zone[0] == 1*) GOTO 0x004D
 11: 0x004A [0x01] GOTO 0x004D

SUBROUTINE_004D:
 12: 0x004D [0x21] END_EVENT
 13: 0x004E [0x00] END_REQSTACK()
```
