# 16982276 - Wazyih

## Common Data

| Field            | Value                         |
|------------------|-------------------------------|
| Zone             | Aht Urhgan Whitegate (ID: 50) |
| Block Size       | 888 bytes                     |
| Total Events     | 37                            |
| References Count | 75                            |

## List of Events

| Event ID                   | Entrypoint   |   Size |   Instructions |
|----------------------------|--------------|--------|----------------|
| [65535](#event-65535)      | 0x0000       |      1 |              1 |
| [686](#event-686)          | 0x0001       |      1 |              1 |
| [690](#event-690)          | 0x0002       |      1 |              1 |
| [691](#event-691)          | 0x0003       |      1 |              1 |
| [695](#event-695)          | 0x0004       |      1 |              1 |
| [684](#event-684)          | 0x0005       |      1 |              1 |
| [65535.1](#event-655351)   | 0x0006       |     10 |              2 |
| [65535.2](#event-655352)   | 0x0010       |     10 |              2 |
| [65535.3](#event-655353)   | 0x001A       |     10 |              2 |
| [65535.4](#event-655354)   | 0x0024       |     14 |              4 |
| [65535.5](#event-655355)   | 0x0032       |     21 |              5 |
| [65535.6](#event-655356)   | 0x0047       |     10 |              2 |
| [65535.7](#event-655357)   | 0x0051       |     24 |              6 |
| [65535.8](#event-655358)   | 0x0069       |     10 |              2 |
| [65535.9](#event-655359)   | 0x0073       |     14 |              4 |
| [65535.10](#event-6553510) | 0x0081       |     10 |              2 |
| [65535.11](#event-6553511) | 0x008B       |     10 |              2 |
| [65535.12](#event-6553512) | 0x0095       |     14 |              4 |
| [65535.13](#event-6553513) | 0x00A3       |     14 |              4 |
| [65535.14](#event-6553514) | 0x00B1       |      3 |              2 |
| [65535.15](#event-6553515) | 0x00B4       |     10 |              2 |
| [65535.16](#event-6553516) | 0x00BE       |     14 |              4 |
| [65535.17](#event-6553517) | 0x00CC       |     14 |              4 |
| [65535.18](#event-6553518) | 0x00DA       |     10 |              2 |
| [65535.19](#event-6553519) | 0x00E4       |     10 |              2 |
| [65535.20](#event-6553520) | 0x00EE       |     10 |              2 |
| [65535.21](#event-6553521) | 0x00F8       |     14 |              4 |
| [65535.22](#event-6553522) | 0x0106       |     14 |              4 |
| [65535.23](#event-6553523) | 0x0114       |     14 |              4 |
| [65535.24](#event-6553524) | 0x0122       |     14 |              4 |
| [65535.25](#event-6553525) | 0x0130       |     14 |              4 |
| [685](#event-685)          | 0x013E       |     13 |              7 |
| [688](#event-688)          | 0x014B       |     22 |             12 |
| [689](#event-689)          | 0x0161       |     13 |              7 |
| [694](#event-694)          | 0x016E       |     17 |              9 |
| [697](#event-697)          | 0x017F       |     26 |             11 |
| [699](#event-699)          | 0x0199       |     13 |              7 |

## DAT References (imed_data)

|   Index | Hex Value   |   Dec Value |
|---------|-------------|-------------|
|       0 | 0xFFFE90C6  |  4294873286 |
|       1 | 0xFFFE92F1  |  4294873841 |
|       2 | 0xFFFFE890  |  4294961296 |
|       3 | 0x0776      |        1910 |
|       4 | 0xFFFF15B3  |  4294907315 |
|       5 | 0x10CB0     |       68784 |
|       6 | 0x0000      |           0 |
|       7 | 0x0444      |        1092 |
|       8 | 0xFFFF15A0  |  4294907296 |
|       9 | 0x10549     |       66889 |
|      10 | 0x042F      |        1071 |
|      11 | 0x000D      |          13 |
|      12 | 0x0046      |          70 |
|      13 | 0x0015      |          21 |
|      14 | 0x12114     |       74004 |
|      15 | 0xFFFFE3B3  |  4294960051 |
|      16 | 0x040F      |        1039 |
|      17 | 0x0028      |          40 |
|      18 | 0x118FE     |       71934 |
|      19 | 0xFFFFB0D2  |  4294947026 |
|      20 | 0xD26F      |       53871 |
|      21 | 0xFFFFAE55  |  4294946389 |
|      22 | 0xFFFFE891  |  4294961297 |
|      23 | 0xFFFF520D  |  4294922765 |
|      24 | 0x13034     |       77876 |
|      25 | 0x0882      |        2178 |
|      26 | 0xFFFF4646  |  4294919750 |
|      27 | 0x1317D     |       78205 |
|      28 | 0xFFFF1B4C  |  4294908748 |
|      29 | 0x1879E     |      100254 |
|      30 | 0x09F9      |        2553 |
|      31 | 0x67EA      |       26602 |
|      32 | 0xFFFE33EB  |  4294849515 |
|      33 | 0x0473      |        1139 |
|      34 | 0x6B35      |       27445 |
|      35 | 0xFFFE146B  |  4294841451 |
|      36 | 0xFFFF1964  |  4294908260 |
|      37 | 0x1368F     |       79503 |
|      38 | 0xFFFE6795  |  4294862741 |
|      39 | 0xFFFFCB08  |  4294953736 |
|      40 | 0x0287      |         647 |
|      41 | 0xFFFE6762  |  4294862690 |
|      42 | 0xFFFFAF67  |  4294946663 |
|      43 | 0xFFFE75E9  |  4294866409 |
|      44 | 0xFFFFDDD8  |  4294958552 |
|      45 | 0x5265      |       21093 |
|      46 | 0xFFFE27EA  |  4294846442 |
|      47 | 0x07CF      |        1999 |
|      48 | 0x06EC      |        1772 |
|      49 | 0xFFFF126D  |  4294906477 |
|      50 | 0xFA61      |       64097 |
|      51 | 0x09BB      |        2491 |
|      52 | 0xFFFE6739  |  4294862649 |
|      53 | 0x545C      |       21596 |
|      54 | 0x03A7      |         935 |
|      55 | 0xFFFE6752  |  4294862674 |
|      56 | 0x5079      |       20601 |
|      57 | 0xFFFE5C3B  |  4294859835 |
|      58 | 0x404F      |       16463 |
|      59 | 0xFFFE5785  |  4294858629 |
|      60 | 0x3C1B      |       15387 |
|      61 | 0xFFFE55B8  |  4294858168 |
|      62 | 0x324C      |       12876 |
|      63 | 0xFFFE0C29  |  4294839337 |
|      64 | 0x204B      |        8267 |
|      65 | 0x03C6      |         966 |
|      66 | 0x2716      |       10006 |
|      67 | 0x2717      |       10007 |
|      68 | 0x2718      |       10008 |
|      69 | 0x2719      |       10009 |
|      70 | 0x2756      |       10070 |
|      71 | 0x2757      |       10071 |
|      72 | 0x278E      |       10126 |
|      73 | 0x278F      |       10127 |
|      74 | 0x2791      |       10129 |

## String References

- **10006**: I think Saliyahf is probably somewhere around Philosopher's Alley...
- **10007**: Oh, I remember you...
- **10008**: What? A woman is being harassed by mercenaries? I've got to go help her!
- **10009**: Ummm... Which way was it again? Ah, I've got to hurry!
- **10070**: I think the package dropped somewhere along the edge of the street in the Commoner's Ward.
- **10071**: But I was so absorbed in my own escape that I couldn't tell you the exact location... I'm very sorry.
- **10126**: Oh, thank you so much for earlier!
- **10127**: I told you I would thank you, didn't I? Saliyahf has something I want to give to you, so talk to him, okay?
- **10129**: Oh, hey! How are things? Same as always, here! I've got to work hard and make sure the mercenaries get a good impression of this town!

## Events

### Event 65535

#### Metadata

| Field        | Value   |
|--------------|---------|
| Entrypoint   | 0x0000  |
| Data Size    | 1 bytes |
| Instructions | 1       |

```
      00 01 02 03 04 05 06 07  08 09 0A 0B 0C 0D 0E 0F
      -- -- -- -- -- -- -- --  -- -- -- -- -- -- -- --
0000: 00                                                .               
```

#### Opcodes

```
  0: 0x0000 [0x00] END_REQSTACK()
```

### Event 686

#### Metadata

| Field        | Value   |
|--------------|---------|
| Entrypoint   | 0x0001  |
| Data Size    | 1 bytes |
| Instructions | 1       |

```
      00 01 02 03 04 05 06 07  08 09 0A 0B 0C 0D 0E 0F
      -- -- -- -- -- -- -- --  -- -- -- -- -- -- -- --
0000:    00                                              .              
```

#### Opcodes

```
  0: 0x0001 [0x00] END_REQSTACK()
```

### Event 690

#### Metadata

| Field        | Value   |
|--------------|---------|
| Entrypoint   | 0x0002  |
| Data Size    | 1 bytes |
| Instructions | 1       |

```
      00 01 02 03 04 05 06 07  08 09 0A 0B 0C 0D 0E 0F
      -- -- -- -- -- -- -- --  -- -- -- -- -- -- -- --
0000:       00                                            .             
```

#### Opcodes

```
  0: 0x0002 [0x00] END_REQSTACK()
```

### Event 691

#### Metadata

| Field        | Value   |
|--------------|---------|
| Entrypoint   | 0x0003  |
| Data Size    | 1 bytes |
| Instructions | 1       |

```
      00 01 02 03 04 05 06 07  08 09 0A 0B 0C 0D 0E 0F
      -- -- -- -- -- -- -- --  -- -- -- -- -- -- -- --
0000:          00                                          .            
```

#### Opcodes

```
  0: 0x0003 [0x00] END_REQSTACK()
```

### Event 695

#### Metadata

| Field        | Value   |
|--------------|---------|
| Entrypoint   | 0x0004  |
| Data Size    | 1 bytes |
| Instructions | 1       |

```
      00 01 02 03 04 05 06 07  08 09 0A 0B 0C 0D 0E 0F
      -- -- -- -- -- -- -- --  -- -- -- -- -- -- -- --
0000:             00                                        .           
```

#### Opcodes

```
  0: 0x0004 [0x00] END_REQSTACK()
```

### Event 684

#### Metadata

| Field        | Value   |
|--------------|---------|
| Entrypoint   | 0x0005  |
| Data Size    | 1 bytes |
| Instructions | 1       |

```
      00 01 02 03 04 05 06 07  08 09 0A 0B 0C 0D 0E 0F
      -- -- -- -- -- -- -- --  -- -- -- -- -- -- -- --
0000:                00                                      .          
```

#### Opcodes

```
  0: 0x0005 [0x00] END_REQSTACK()
```

### Event 65535.1

#### Metadata

| Field        | Value    |
|--------------|----------|
| Entrypoint   | 0x0006   |
| Data Size    | 10 bytes |
| Instructions | 2        |

```
      00 01 02 03 04 05 06 07  08 09 0A 0B 0C 0D 0E 0F
      -- -- -- -- -- -- -- --  -- -- -- -- -- -- -- --
0000:                   37 00  80 01 80 02 80 03 80 00        7.........
```

#### Opcodes

```
  0: 0x0006 [0x37] UPDATE_EVENT_POSITION_AND_DIR: x=-94.010*, z=-93.455*, y=-6.000*, direction=167.9°*
  1: 0x000F [0x00] END_REQSTACK()
```

### Event 65535.2

#### Metadata

| Field        | Value    |
|--------------|----------|
| Entrypoint   | 0x0010   |
| Data Size    | 10 bytes |
| Instructions | 2        |

```
      00 01 02 03 04 05 06 07  08 09 0A 0B 0C 0D 0E 0F
      -- -- -- -- -- -- -- --  -- -- -- -- -- -- -- --
0010: 37 04 80 05 80 06 80 07  80 00                    7.........      
```

#### Opcodes

```
  0: 0x0010 [0x37] UPDATE_EVENT_POSITION_AND_DIR: x=-59.981*, z=68.784*, y=0.000*, direction=96.0°*
  1: 0x0019 [0x00] END_REQSTACK()
```

### Event 65535.3

#### Metadata

| Field        | Value    |
|--------------|----------|
| Entrypoint   | 0x001A   |
| Data Size    | 10 bytes |
| Instructions | 2        |

```
      00 01 02 03 04 05 06 07  08 09 0A 0B 0C 0D 0E 0F
      -- -- -- -- -- -- -- --  -- -- -- -- -- -- -- --
0010:                                37 08 80 09 80 06            7.....
0020: 80 0A 80 00                                       ....            
```

#### Opcodes

```
  0: 0x001A [0x37] UPDATE_EVENT_POSITION_AND_DIR: x=-60.000*, z=66.889*, y=0.000*, direction=94.1°*
  1: 0x0023 [0x00] END_REQSTACK()
```

### Event 65535.4

#### Metadata

| Field        | Value    |
|--------------|----------|
| Entrypoint   | 0x0024   |
| Data Size    | 14 bytes |
| Instructions | 4        |

```
      00 01 02 03 04 05 06 07  08 09 0A 0B 0C 0D 0E 0F
      -- -- -- -- -- -- -- --  -- -- -- -- -- -- -- --
0020:             32 0B 80 1F  00 08 80 09 80 06 80 1F      2...........
0030: 01 00                                             ..              
```

#### Opcodes

```
  0: 0x0024 [0x32] ExtData[1]->MainSpeed = 13* * 0.1
  1: 0x0027 [0x1F] MOVE_ENTITY: EventEntity moves to X=-60.000*, Z=66.889*, Y=0.000*
  2: 0x002F [0x1F] MOVE_ENTITY: Update entity position (mode=1)
  3: 0x0031 [0x00] END_REQSTACK()
```

### Event 65535.5

#### Metadata

| Field        | Value    |
|--------------|----------|
| Entrypoint   | 0x0032   |
| Data Size    | 21 bytes |
| Instructions | 5        |

```
      00 01 02 03 04 05 06 07  08 09 0A 0B 0C 0D 0E 0F
      -- -- -- -- -- -- -- --  -- -- -- -- -- -- -- --
0030:       1C 0C 80 6E 04 21  03 01 0D 80 99 04 21 03    ...n.!......!.
0040: 01 99 04 21 03 01 00                              ...!...         
```

#### Opcodes

```
  0: 0x0032 [0x1C] WAIT(70* ticks)
  1: 0x0035 [0x6E] Wazyih (ID: 16982276/0x01032104) uses emote 21*
  2: 0x003C [0x99] Wait for Wazyih (ID: 16982276/0x01032104) animation to complete
  3: 0x0041 [0x99] Wait for Wazyih (ID: 16982276/0x01032104) animation to complete
  4: 0x0046 [0x00] END_REQSTACK()
```

### Event 65535.6

#### Metadata

| Field        | Value    |
|--------------|----------|
| Entrypoint   | 0x0047   |
| Data Size    | 10 bytes |
| Instructions | 2        |

```
      00 01 02 03 04 05 06 07  08 09 0A 0B 0C 0D 0E 0F
      -- -- -- -- -- -- -- --  -- -- -- -- -- -- -- --
0040:                      37  0E 80 0F 80 06 80 10 80         7........
0050: 00                                                .               
```

#### Opcodes

```
  0: 0x0047 [0x37] UPDATE_EVENT_POSITION_AND_DIR: x=74.004*, z=-7.245*, y=0.000*, direction=91.3°*
  1: 0x0050 [0x00] END_REQSTACK()
```

### Event 65535.7

#### Metadata

| Field        | Value    |
|--------------|----------|
| Entrypoint   | 0x0051   |
| Data Size    | 24 bytes |
| Instructions | 6        |

```
      00 01 02 03 04 05 06 07  08 09 0A 0B 0C 0D 0E 0F
      -- -- -- -- -- -- -- --  -- -- -- -- -- -- -- --
0050:    32 11 80 1F 00 12 80  13 80 06 80 1F 01 1F 00   2..............
0060: 14 80 15 80 16 80 1F 01  00                       .........       
```

#### Opcodes

```
  0: 0x0051 [0x32] ExtData[1]->MainSpeed = 40* * 0.1
  1: 0x0054 [0x1F] MOVE_ENTITY: EventEntity moves to X=71.934*, Z=-20.270*, Y=0.000*
  2: 0x005C [0x1F] MOVE_ENTITY: Update entity position (mode=1)
  3: 0x005E [0x1F] MOVE_ENTITY: EventEntity moves to X=53.871*, Z=-20.907*, Y=-5.999*
  4: 0x0066 [0x1F] MOVE_ENTITY: Update entity position (mode=1)
  5: 0x0068 [0x00] END_REQSTACK()
```

### Event 65535.8

#### Metadata

| Field        | Value    |
|--------------|----------|
| Entrypoint   | 0x0069   |
| Data Size    | 10 bytes |
| Instructions | 2        |

```
      00 01 02 03 04 05 06 07  08 09 0A 0B 0C 0D 0E 0F
      -- -- -- -- -- -- -- --  -- -- -- -- -- -- -- --
0060:                             37 17 80 18 80 06 80           7......
0070: 19 80 00                                          ...             
```

#### Opcodes

```
  0: 0x0069 [0x37] UPDATE_EVENT_POSITION_AND_DIR: x=-44.531*, z=77.876*, y=0.000*, direction=191.4°*
  1: 0x0072 [0x00] END_REQSTACK()
```

### Event 65535.9

#### Metadata

| Field        | Value    |
|--------------|----------|
| Entrypoint   | 0x0073   |
| Data Size    | 14 bytes |
| Instructions | 4        |

```
      00 01 02 03 04 05 06 07  08 09 0A 0B 0C 0D 0E 0F
      -- -- -- -- -- -- -- --  -- -- -- -- -- -- -- --
0070:          32 11 80 1F 00  1A 80 1B 80 06 80 1F 01     2............
0080: 00                                                .               
```

#### Opcodes

```
  0: 0x0073 [0x32] ExtData[1]->MainSpeed = 40* * 0.1
  1: 0x0076 [0x1F] MOVE_ENTITY: EventEntity moves to X=-47.546*, Z=78.205*, Y=0.000*
  2: 0x007E [0x1F] MOVE_ENTITY: Update entity position (mode=1)
  3: 0x0080 [0x00] END_REQSTACK()
```

### Event 65535.10

#### Metadata

| Field        | Value    |
|--------------|----------|
| Entrypoint   | 0x0081   |
| Data Size    | 10 bytes |
| Instructions | 2        |

```
      00 01 02 03 04 05 06 07  08 09 0A 0B 0C 0D 0E 0F
      -- -- -- -- -- -- -- --  -- -- -- -- -- -- -- --
0080:    37 1C 80 1D 80 06 80  1E 80 00                  7.........     
```

#### Opcodes

```
  0: 0x0081 [0x37] UPDATE_EVENT_POSITION_AND_DIR: x=-58.548*, z=100.254*, y=0.000*, direction=224.4°*
  1: 0x008A [0x00] END_REQSTACK()
```

### Event 65535.11

#### Metadata

| Field        | Value    |
|--------------|----------|
| Entrypoint   | 0x008B   |
| Data Size    | 10 bytes |
| Instructions | 2        |

```
      00 01 02 03 04 05 06 07  08 09 0A 0B 0C 0D 0E 0F
      -- -- -- -- -- -- -- --  -- -- -- -- -- -- -- --
0080:                                   37 1F 80 20 80             7.. .
0090: 16 80 21 80 00                                    ..!..           
```

#### Opcodes

```
  0: 0x008B [0x37] UPDATE_EVENT_POSITION_AND_DIR: x=26.602*, z=-117.781*, y=-5.999*, direction=100.1°*
  1: 0x0094 [0x00] END_REQSTACK()
```

### Event 65535.12

#### Metadata

| Field        | Value    |
|--------------|----------|
| Entrypoint   | 0x0095   |
| Data Size    | 14 bytes |
| Instructions | 4        |

```
      00 01 02 03 04 05 06 07  08 09 0A 0B 0C 0D 0E 0F
      -- -- -- -- -- -- -- --  -- -- -- -- -- -- -- --
0090:                32 11 80  1F 00 22 80 23 80 16 80       2....".#...
00A0: 1F 01 00                                          ...             
```

#### Opcodes

```
  0: 0x0095 [0x32] ExtData[1]->MainSpeed = 40* * 0.1
  1: 0x0098 [0x1F] MOVE_ENTITY: EventEntity moves to X=27.445*, Z=-125.845*, Y=-5.999*
  2: 0x00A0 [0x1F] MOVE_ENTITY: Update entity position (mode=1)
  3: 0x00A2 [0x00] END_REQSTACK()
```

### Event 65535.13

#### Metadata

| Field        | Value    |
|--------------|----------|
| Entrypoint   | 0x00A3   |
| Data Size    | 14 bytes |
| Instructions | 4        |

```
      00 01 02 03 04 05 06 07  08 09 0A 0B 0C 0D 0E 0F
      -- -- -- -- -- -- -- --  -- -- -- -- -- -- -- --
00A0:          32 11 80 1F 00  24 80 25 80 06 80 1F 01     2....$.%.....
00B0: 00                                                .               
```

#### Opcodes

```
  0: 0x00A3 [0x32] ExtData[1]->MainSpeed = 40* * 0.1
  1: 0x00A6 [0x1F] MOVE_ENTITY: EventEntity moves to X=-59.036*, Z=79.503*, Y=0.000*
  2: 0x00AE [0x1F] MOVE_ENTITY: Update entity position (mode=1)
  3: 0x00B0 [0x00] END_REQSTACK()
```

### Event 65535.14

#### Metadata

| Field        | Value   |
|--------------|---------|
| Entrypoint   | 0x00B1  |
| Data Size    | 3 bytes |
| Instructions | 2       |

```
      00 01 02 03 04 05 06 07  08 09 0A 0B 0C 0D 0E 0F
      -- -- -- -- -- -- -- --  -- -- -- -- -- -- -- --
00B0:    22 01 00                                        "..            
```

#### Opcodes

```
  0: 0x00B1 [0x22] ENTITY_HIDE_FLAG(enabled=0x01)
  1: 0x00B3 [0x00] END_REQSTACK()
```

### Event 65535.15

#### Metadata

| Field        | Value    |
|--------------|----------|
| Entrypoint   | 0x00B4   |
| Data Size    | 10 bytes |
| Instructions | 2        |

```
      00 01 02 03 04 05 06 07  08 09 0A 0B 0C 0D 0E 0F
      -- -- -- -- -- -- -- --  -- -- -- -- -- -- -- --
00B0:             37 26 80 27  80 06 80 28 80 00            7&.'...(..  
```

#### Opcodes

```
  0: 0x00B4 [0x37] UPDATE_EVENT_POSITION_AND_DIR: x=-104.555*, z=-13.560*, y=0.000*, direction=56.9°*
  1: 0x00BD [0x00] END_REQSTACK()
```

### Event 65535.16

#### Metadata

| Field        | Value    |
|--------------|----------|
| Entrypoint   | 0x00BE   |
| Data Size    | 14 bytes |
| Instructions | 4        |

```
      00 01 02 03 04 05 06 07  08 09 0A 0B 0C 0D 0E 0F
      -- -- -- -- -- -- -- --  -- -- -- -- -- -- -- --
00B0:                                            32 11                2.
00C0: 80 1F 00 29 80 2A 80 06  80 1F 01 00              ...).*......    
```

#### Opcodes

```
  0: 0x00BE [0x32] ExtData[1]->MainSpeed = 40* * 0.1
  1: 0x00C1 [0x1F] MOVE_ENTITY: EventEntity moves to X=-104.606*, Z=-20.633*, Y=0.000*
  2: 0x00C9 [0x1F] MOVE_ENTITY: Update entity position (mode=1)
  3: 0x00CB [0x00] END_REQSTACK()
```

### Event 65535.17

#### Metadata

| Field        | Value    |
|--------------|----------|
| Entrypoint   | 0x00CC   |
| Data Size    | 14 bytes |
| Instructions | 4        |

```
      00 01 02 03 04 05 06 07  08 09 0A 0B 0C 0D 0E 0F
      -- -- -- -- -- -- -- --  -- -- -- -- -- -- -- --
00C0:                                      32 11 80 1F              2...
00D0: 00 2B 80 2C 80 06 80 1F  01 00                    .+.,......      
```

#### Opcodes

```
  0: 0x00CC [0x32] ExtData[1]->MainSpeed = 40* * 0.1
  1: 0x00CF [0x1F] MOVE_ENTITY: EventEntity moves to X=-100.887*, Z=-8.744*, Y=0.000*
  2: 0x00D7 [0x1F] MOVE_ENTITY: Update entity position (mode=1)
  3: 0x00D9 [0x00] END_REQSTACK()
```

### Event 65535.18

#### Metadata

| Field        | Value    |
|--------------|----------|
| Entrypoint   | 0x00DA   |
| Data Size    | 10 bytes |
| Instructions | 2        |

```
      00 01 02 03 04 05 06 07  08 09 0A 0B 0C 0D 0E 0F
      -- -- -- -- -- -- -- --  -- -- -- -- -- -- -- --
00D0:                                37 2D 80 2E 80 2F            7-.../
00E0: 80 30 80 00                                       .0..            
```

#### Opcodes

```
  0: 0x00DA [0x37] UPDATE_EVENT_POSITION_AND_DIR: x=21.093*, z=-120.854*, y=1.999*, direction=155.7°*
  1: 0x00E3 [0x00] END_REQSTACK()
```

### Event 65535.19

#### Metadata

| Field        | Value    |
|--------------|----------|
| Entrypoint   | 0x00E4   |
| Data Size    | 10 bytes |
| Instructions | 2        |

```
      00 01 02 03 04 05 06 07  08 09 0A 0B 0C 0D 0E 0F
      -- -- -- -- -- -- -- --  -- -- -- -- -- -- -- --
00E0:             37 31 80 32  80 06 80 33 80 00            71.2...3..  
```

#### Opcodes

```
  0: 0x00E4 [0x37] UPDATE_EVENT_POSITION_AND_DIR: x=-60.819*, z=64.097*, y=0.000*, direction=218.9°*
  1: 0x00ED [0x00] END_REQSTACK()
```

### Event 65535.20

#### Metadata

| Field        | Value    |
|--------------|----------|
| Entrypoint   | 0x00EE   |
| Data Size    | 10 bytes |
| Instructions | 2        |

```
      00 01 02 03 04 05 06 07  08 09 0A 0B 0C 0D 0E 0F
      -- -- -- -- -- -- -- --  -- -- -- -- -- -- -- --
00E0:                                            37 34                74
00F0: 80 35 80 06 80 36 80 00                           .5...6..        
```

#### Opcodes

```
  0: 0x00EE [0x37] UPDATE_EVENT_POSITION_AND_DIR: x=-104.647*, z=21.596*, y=0.000*, direction=82.2°*
  1: 0x00F7 [0x00] END_REQSTACK()
```

### Event 65535.21

#### Metadata

| Field        | Value    |
|--------------|----------|
| Entrypoint   | 0x00F8   |
| Data Size    | 14 bytes |
| Instructions | 4        |

```
      00 01 02 03 04 05 06 07  08 09 0A 0B 0C 0D 0E 0F
      -- -- -- -- -- -- -- --  -- -- -- -- -- -- -- --
00F0:                          32 0B 80 1F 00 37 80 38          2....7.8
0100: 80 06 80 1F 01 00                                 ......          
```

#### Opcodes

```
  0: 0x00F8 [0x32] ExtData[1]->MainSpeed = 13* * 0.1
  1: 0x00FB [0x1F] MOVE_ENTITY: EventEntity moves to X=-104.622*, Z=20.601*, Y=0.000*
  2: 0x0103 [0x1F] MOVE_ENTITY: Update entity position (mode=1)
  3: 0x0105 [0x00] END_REQSTACK()
```

### Event 65535.22

#### Metadata

| Field        | Value    |
|--------------|----------|
| Entrypoint   | 0x0106   |
| Data Size    | 14 bytes |
| Instructions | 4        |

```
      00 01 02 03 04 05 06 07  08 09 0A 0B 0C 0D 0E 0F
      -- -- -- -- -- -- -- --  -- -- -- -- -- -- -- --
0100:                   32 0B  80 1F 00 39 80 3A 80 06        2....9.:..
0110: 80 1F 01 00                                       ....            
```

#### Opcodes

```
  0: 0x0106 [0x32] ExtData[1]->MainSpeed = 13* * 0.1
  1: 0x0109 [0x1F] MOVE_ENTITY: EventEntity moves to X=-107.461*, Z=16.463*, Y=0.000*
  2: 0x0111 [0x1F] MOVE_ENTITY: Update entity position (mode=1)
  3: 0x0113 [0x00] END_REQSTACK()
```

### Event 65535.23

#### Metadata

| Field        | Value    |
|--------------|----------|
| Entrypoint   | 0x0114   |
| Data Size    | 14 bytes |
| Instructions | 4        |

```
      00 01 02 03 04 05 06 07  08 09 0A 0B 0C 0D 0E 0F
      -- -- -- -- -- -- -- --  -- -- -- -- -- -- -- --
0110:             32 11 80 1F  00 3B 80 3C 80 06 80 1F      2....;.<....
0120: 01 00                                             ..              
```

#### Opcodes

```
  0: 0x0114 [0x32] ExtData[1]->MainSpeed = 40* * 0.1
  1: 0x0117 [0x1F] MOVE_ENTITY: EventEntity moves to X=-108.667*, Z=15.387*, Y=0.000*
  2: 0x011F [0x1F] MOVE_ENTITY: Update entity position (mode=1)
  3: 0x0121 [0x00] END_REQSTACK()
```

### Event 65535.24

#### Metadata

| Field        | Value    |
|--------------|----------|
| Entrypoint   | 0x0122   |
| Data Size    | 14 bytes |
| Instructions | 4        |

```
      00 01 02 03 04 05 06 07  08 09 0A 0B 0C 0D 0E 0F
      -- -- -- -- -- -- -- --  -- -- -- -- -- -- -- --
0120:       32 11 80 1F 00 3D  80 3E 80 06 80 1F 01 00    2....=.>......
```

#### Opcodes

```
  0: 0x0122 [0x32] ExtData[1]->MainSpeed = 40* * 0.1
  1: 0x0125 [0x1F] MOVE_ENTITY: EventEntity moves to X=-109.128*, Z=12.876*, Y=0.000*
  2: 0x012D [0x1F] MOVE_ENTITY: Update entity position (mode=1)
  3: 0x012F [0x00] END_REQSTACK()
```

### Event 65535.25

#### Metadata

| Field        | Value    |
|--------------|----------|
| Entrypoint   | 0x0130   |
| Data Size    | 14 bytes |
| Instructions | 4        |

```
      00 01 02 03 04 05 06 07  08 09 0A 0B 0C 0D 0E 0F
      -- -- -- -- -- -- -- --  -- -- -- -- -- -- -- --
0130: 32 0B 80 1F 00 3F 80 40  80 41 80 1F 01 00        2....?.@.A....  
```

#### Opcodes

```
  0: 0x0130 [0x32] ExtData[1]->MainSpeed = 13* * 0.1
  1: 0x0133 [0x1F] MOVE_ENTITY: EventEntity moves to X=-127.959*, Z=8.267*, Y=0.966*
  2: 0x013B [0x1F] MOVE_ENTITY: Update entity position (mode=1)
  3: 0x013D [0x00] END_REQSTACK()
```

### Event 685

#### Metadata

| Field        | Value    |
|--------------|----------|
| Entrypoint   | 0x013E   |
| Data Size    | 13 bytes |
| Instructions | 7        |

```
      00 01 02 03 04 05 06 07  08 09 0A 0B 0C 0D 0E 0F
      -- -- -- -- -- -- -- --  -- -- -- -- -- -- -- --
0130:                                            1E F0                ..
0140: FF FF 7F 6F 70 1D 42 80  23 21 00                 ...op.B.#!.     
```

#### Opcodes

```
  0: 0x013E [0x1E] EventEntity looks at LocalPlayer and starts talking
  1: 0x0143 [0x6F] WAIT_FRAME_DELAY: Yield until WaitTime reaches zero
  2: 0x0144 [0x70] WAIT_ENTITY_RENDER_FLAG: Wait while EventEntity->Render.Flags3 bit 2 is set (cancel turn if not)
  3: 0x0145 [0x1D] PRINT_EVENT_MESSAGE(message_id=10006*)
    → "I think Saliyahf is probably somewhere around Philosopher's Alley..."
  4: 0x0148 [0x23] WAIT_FOR_DIALOG_INTERACTION
  5: 0x0149 [0x21] END_EVENT
  6: 0x014A [0x00] END_REQSTACK()
```

### Event 688

#### Metadata

| Field        | Value    |
|--------------|----------|
| Entrypoint   | 0x014B   |
| Data Size    | 22 bytes |
| Instructions | 12       |

```
      00 01 02 03 04 05 06 07  08 09 0A 0B 0C 0D 0E 0F
      -- -- -- -- -- -- -- --  -- -- -- -- -- -- -- --
0140:                                   42 1E F0 FF FF             B....
0150: 7F 6F 70 1D 43 80 23 1D  44 80 23 1D 45 80 23 21  .op.C.#.D.#.E.#!
0160: 00                                                .               
```

#### Opcodes

```
  0: 0x014B [0x42] SET_CLI_EVENT_CANCEL_DATA()
  1: 0x014C [0x1E] EventEntity looks at LocalPlayer and starts talking
  2: 0x0151 [0x6F] WAIT_FRAME_DELAY: Yield until WaitTime reaches zero
  3: 0x0152 [0x70] WAIT_ENTITY_RENDER_FLAG: Wait while EventEntity->Render.Flags3 bit 2 is set (cancel turn if not)
  4: 0x0153 [0x1D] PRINT_EVENT_MESSAGE(message_id=10007*)
    → "Oh, I remember you..."
  5: 0x0156 [0x23] WAIT_FOR_DIALOG_INTERACTION
  6: 0x0157 [0x1D] PRINT_EVENT_MESSAGE(message_id=10008*)
    → "What? A woman is being harassed by mercenaries? I've got to go help her!"
  7: 0x015A [0x23] WAIT_FOR_DIALOG_INTERACTION
  8: 0x015B [0x1D] PRINT_EVENT_MESSAGE(message_id=10009*)
    → "Ummm... Which way was it again? Ah, I've got to hurry!"
  9: 0x015E [0x23] WAIT_FOR_DIALOG_INTERACTION
 10: 0x015F [0x21] END_EVENT
 11: 0x0160 [0x00] END_REQSTACK()
```

### Event 689

#### Metadata

| Field        | Value    |
|--------------|----------|
| Entrypoint   | 0x0161   |
| Data Size    | 13 bytes |
| Instructions | 7        |

```
      00 01 02 03 04 05 06 07  08 09 0A 0B 0C 0D 0E 0F
      -- -- -- -- -- -- -- --  -- -- -- -- -- -- -- --
0160:    1E F0 FF FF 7F 6F 70  1D 45 80 23 21 00         .....op.E.#!.  
```

#### Opcodes

```
  0: 0x0161 [0x1E] EventEntity looks at LocalPlayer and starts talking
  1: 0x0166 [0x6F] WAIT_FRAME_DELAY: Yield until WaitTime reaches zero
  2: 0x0167 [0x70] WAIT_ENTITY_RENDER_FLAG: Wait while EventEntity->Render.Flags3 bit 2 is set (cancel turn if not)
  3: 0x0168 [0x1D] PRINT_EVENT_MESSAGE(message_id=10009*)
    → "Ummm... Which way was it again? Ah, I've got to hurry!"
  4: 0x016B [0x23] WAIT_FOR_DIALOG_INTERACTION
  5: 0x016C [0x21] END_EVENT
  6: 0x016D [0x00] END_REQSTACK()
```

### Event 694

#### Metadata

| Field        | Value    |
|--------------|----------|
| Entrypoint   | 0x016E   |
| Data Size    | 17 bytes |
| Instructions | 9        |

```
      00 01 02 03 04 05 06 07  08 09 0A 0B 0C 0D 0E 0F
      -- -- -- -- -- -- -- --  -- -- -- -- -- -- -- --
0160:                                            1E F0                ..
0170: FF FF 7F 6F 70 1D 46 80  23 1D 47 80 23 21 00     ...op.F.#.G.#!. 
```

#### Opcodes

```
  0: 0x016E [0x1E] EventEntity looks at LocalPlayer and starts talking
  1: 0x0173 [0x6F] WAIT_FRAME_DELAY: Yield until WaitTime reaches zero
  2: 0x0174 [0x70] WAIT_ENTITY_RENDER_FLAG: Wait while EventEntity->Render.Flags3 bit 2 is set (cancel turn if not)
  3: 0x0175 [0x1D] PRINT_EVENT_MESSAGE(message_id=10070*)
    → "I think the package dropped somewhere along the edge of the street in the Commoner's Ward."
  4: 0x0178 [0x23] WAIT_FOR_DIALOG_INTERACTION
  5: 0x0179 [0x1D] PRINT_EVENT_MESSAGE(message_id=10071*)
    → "But I was so absorbed in my own escape that I couldn't tell you the exact location... I'm very sorry."
  6: 0x017C [0x23] WAIT_FOR_DIALOG_INTERACTION
  7: 0x017D [0x21] END_EVENT
  8: 0x017E [0x00] END_REQSTACK()
```

### Event 697

#### Metadata

| Field        | Value    |
|--------------|----------|
| Entrypoint   | 0x017F   |
| Data Size    | 26 bytes |
| Instructions | 11       |

```
      00 01 02 03 04 05 06 07  08 09 0A 0B 0C 0D 0E 0F
      -- -- -- -- -- -- -- --  -- -- -- -- -- -- -- --
0170:                                               42                 B
0180: 1E F0 FF FF 7F 6F 70 02  09 10 06 80 00 93 01 1D  .....op.........
0190: 48 80 23 1D 49 80 23 21  00                       H.#.I.#!.       
```

#### Opcodes

```
  0: 0x017F [0x42] SET_CLI_EVENT_CANCEL_DATA()
  1: 0x0180 [0x1E] EventEntity looks at LocalPlayer and starts talking
  2: 0x0185 [0x6F] WAIT_FRAME_DELAY: Yield until WaitTime reaches zero
  3: 0x0186 [0x70] WAIT_ENTITY_RENDER_FLAG: Wait while EventEntity->Render.Flags3 bit 2 is set (cancel turn if not)
  4: 0x0187 [0x02] IF !(Work_Zone[9] == 0*) GOTO 0x0193
  5: 0x018F [0x1D] PRINT_EVENT_MESSAGE(message_id=10126*)
    → "Oh, thank you so much for earlier!"
  6: 0x0192 [0x23] WAIT_FOR_DIALOG_INTERACTION
  7: 0x0193 [0x1D] PRINT_EVENT_MESSAGE(message_id=10127*)
    → "I told you I would thank you, didn't I? Saliyahf has something I want to give to you, so talk to him, okay?"
  8: 0x0196 [0x23] WAIT_FOR_DIALOG_INTERACTION
  9: 0x0197 [0x21] END_EVENT
 10: 0x0198 [0x00] END_REQSTACK()
```

### Event 699

#### Metadata

| Field        | Value    |
|--------------|----------|
| Entrypoint   | 0x0199   |
| Data Size    | 13 bytes |
| Instructions | 7        |

```
      00 01 02 03 04 05 06 07  08 09 0A 0B 0C 0D 0E 0F
      -- -- -- -- -- -- -- --  -- -- -- -- -- -- -- --
0190:                             1E F0 FF FF 7F 6F 70           .....op
01A0: 1D 4A 80 23 21 00                                 .J.#!.          
```

#### Opcodes

```
  0: 0x0199 [0x1E] EventEntity looks at LocalPlayer and starts talking
  1: 0x019E [0x6F] WAIT_FRAME_DELAY: Yield until WaitTime reaches zero
  2: 0x019F [0x70] WAIT_ENTITY_RENDER_FLAG: Wait while EventEntity->Render.Flags3 bit 2 is set (cancel turn if not)
  3: 0x01A0 [0x1D] PRINT_EVENT_MESSAGE(message_id=10129*)
    → "Oh, hey! How are things? Same as always, here! I've got to work hard and make sure the mercenaries get a good impression of this town!"
  4: 0x01A3 [0x23] WAIT_FOR_DIALOG_INTERACTION
  5: 0x01A4 [0x21] END_EVENT
  6: 0x01A5 [0x00] END_REQSTACK()
```
