# 16982156 - Naja Salaheem

## Common Data

| Field            | Value                         |
|------------------|-------------------------------|
| Zone             | Aht Urhgan Whitegate (ID: 50) |
| Block Size       | 3084 bytes                    |
| Total Events     | 133                           |
| References Count | 111                           |

## List of Events

| Event ID                   | Entrypoint   |   Size |   Instructions |
|----------------------------|--------------|--------|----------------|
| [65535](#event-65535)      | 0x0000       |      1 |              1 |
| [506](#event-506)          | 0x0001       |      1 |              1 |
| [65535.1](#event-655351)   | 0x0002       |     22 |              4 |
| [65535.2](#event-655352)   | 0x0018       |     22 |              4 |
| [65535.3](#event-655353)   | 0x002E       |      4 |              2 |
| [65535.4](#event-655354)   | 0x0032       |      2 |              2 |
| [65535.5](#event-655355)   | 0x0034       |     16 |              2 |
| [65535.6](#event-655356)   | 0x0044       |     14 |              2 |
| [65535.7](#event-655357)   | 0x0052       |     16 |              2 |
| [65535.8](#event-655358)   | 0x0062       |     14 |              2 |
| [65535.9](#event-655359)   | 0x0070       |     22 |              3 |
| [65535.10](#event-6553510) | 0x0086       |     14 |              2 |
| [65535.11](#event-6553511) | 0x0094       |     16 |              2 |
| [65535.12](#event-6553512) | 0x00A4       |     20 |              3 |
| [65535.13](#event-6553513) | 0x00B8       |     22 |              3 |
| [65535.14](#event-6553514) | 0x00CE       |     14 |              2 |
| [65535.15](#event-6553515) | 0x00DC       |     16 |              2 |
| [65535.16](#event-6553516) | 0x00EC       |     20 |              3 |
| [65535.17](#event-6553517) | 0x0100       |     16 |              2 |
| [65535.18](#event-6553518) | 0x0110       |     14 |              2 |
| [65535.19](#event-6553519) | 0x011E       |     16 |              2 |
| [65535.20](#event-6553520) | 0x012E       |     14 |              2 |
| [65535.21](#event-6553521) | 0x013C       |     22 |              3 |
| [65535.22](#event-6553522) | 0x0152       |     20 |              3 |
| [65535.23](#event-6553523) | 0x0166       |     16 |              2 |
| [65535.24](#event-6553524) | 0x0176       |     14 |              2 |
| [65535.25](#event-6553525) | 0x0184       |     22 |              3 |
| [65535.26](#event-6553526) | 0x019A       |     14 |              2 |
| [65535.27](#event-6553527) | 0x01A8       |     16 |              2 |
| [65535.28](#event-6553528) | 0x01B8       |     14 |              2 |
| [65535.29](#event-6553529) | 0x01C6       |     16 |              2 |
| [65535.30](#event-6553530) | 0x01D6       |     20 |              3 |
| [65535.31](#event-6553531) | 0x01EA       |     16 |              2 |
| [65535.32](#event-6553532) | 0x01FA       |     14 |              2 |
| [65535.33](#event-6553533) | 0x0208       |     16 |              2 |
| [65535.34](#event-6553534) | 0x0218       |     14 |              2 |
| [65535.35](#event-6553535) | 0x0226       |     22 |              3 |
| [65535.36](#event-6553536) | 0x023C       |     14 |              2 |
| [65535.37](#event-6553537) | 0x024A       |     16 |              2 |
| [65535.38](#event-6553538) | 0x025A       |     20 |              3 |
| [65535.39](#event-6553539) | 0x026E       |     22 |              3 |
| [65535.40](#event-6553540) | 0x0284       |     14 |              2 |
| [65535.41](#event-6553541) | 0x0292       |     16 |              2 |
| [65535.42](#event-6553542) | 0x02A2       |     20 |              3 |
| [65535.43](#event-6553543) | 0x02B6       |     22 |              3 |
| [65535.44](#event-6553544) | 0x02CC       |     14 |              2 |
| [65535.45](#event-6553545) | 0x02DA       |     16 |              2 |
| [65535.46](#event-6553546) | 0x02EA       |     20 |              3 |
| [65535.47](#event-6553547) | 0x02FE       |     16 |              2 |
| [65535.48](#event-6553548) | 0x030E       |     14 |              2 |
| [65535.49](#event-6553549) | 0x031C       |     16 |              2 |
| [65535.50](#event-6553550) | 0x032C       |     14 |              2 |
| [65535.51](#event-6553551) | 0x033A       |     16 |              2 |
| [65535.52](#event-6553552) | 0x034A       |     14 |              2 |
| [65535.53](#event-6553553) | 0x0358       |     16 |              2 |
| [65535.54](#event-6553554) | 0x0368       |     14 |              2 |
| [65535.55](#event-6553555) | 0x0376       |     16 |              2 |
| [65535.56](#event-6553556) | 0x0386       |     14 |              2 |
| [65535.57](#event-6553557) | 0x0394       |     22 |              3 |
| [65535.58](#event-6553558) | 0x03AA       |     14 |              2 |
| [65535.59](#event-6553559) | 0x03B8       |     16 |              2 |
| [65535.60](#event-6553560) | 0x03C8       |     20 |              3 |
| [65535.61](#event-6553561) | 0x03DC       |     22 |              3 |
| [65535.62](#event-6553562) | 0x03F2       |     14 |              2 |
| [65535.63](#event-6553563) | 0x0400       |     53 |              9 |
| [65535.64](#event-6553564) | 0x0435       |     28 |              8 |
| [36](#event-36)            | 0x0451       |      1 |              1 |
| [65535.65](#event-6553565) | 0x0452       |     10 |              2 |
| [65535.66](#event-6553566) | 0x045C       |     15 |              5 |
| [65535.67](#event-6553567) | 0x046B       |     10 |              2 |
| [65535.68](#event-6553568) | 0x0475       |     10 |              2 |
| [65535.69](#event-6553569) | 0x047F       |     32 |              4 |
| [3026](#event-3026)        | 0x049F       |     13 |              3 |
| [3033](#event-3033)        | 0x04AC       |     13 |              3 |
| [65535.70](#event-6553570) | 0x04B9       |     50 |              6 |
| [65535.71](#event-6553571) | 0x04EB       |     64 |              6 |
| [65535.72](#event-6553572) | 0x052B       |     10 |              2 |
| [65535.73](#event-6553573) | 0x0535       |     25 |              7 |
| [65535.74](#event-6553574) | 0x054E       |    110 |              9 |
| [5030](#event-5030)        | 0x05BC       |      1 |              1 |
| [5031](#event-5031)        | 0x05BD       |      1 |              1 |
| [5045](#event-5045)        | 0x05BE       |      1 |              1 |
| [5046](#event-5046)        | 0x05BF       |      1 |              1 |
| [5047](#event-5047)        | 0x05C0       |     38 |             12 |
| [65535.75](#event-6553575) | 0x05E6       |     47 |              5 |
| [65535.76](#event-6553576) | 0x0615       |     10 |              2 |
| [65535.77](#event-6553577) | 0x061F       |     10 |              2 |
| [65535.78](#event-6553578) | 0x0629       |     15 |              5 |
| [65535.79](#event-6553579) | 0x0638       |     10 |              2 |
| [65535.80](#event-6553580) | 0x0642       |     15 |              5 |
| [65535.81](#event-6553581) | 0x0651       |     15 |              5 |
| [65535.82](#event-6553582) | 0x0660       |     15 |              5 |
| [65535.83](#event-6553583) | 0x066F       |     10 |              2 |
| [65535.84](#event-6553584) | 0x0679       |     10 |              2 |
| [65535.85](#event-6553585) | 0x0683       |     15 |              5 |
| [65535.86](#event-6553586) | 0x0692       |     10 |              2 |
| [65535.87](#event-6553587) | 0x069C       |     15 |              5 |
| [65535.88](#event-6553588) | 0x06AB       |     15 |              5 |
| [5048](#event-5048)        | 0x06BA       |      1 |              1 |
| [5049](#event-5049)        | 0x06BB       |      1 |              1 |
| [5050](#event-5050)        | 0x06BC       |      1 |              1 |
| [5051](#event-5051)        | 0x06BD       |      1 |              1 |
| [5052](#event-5052)        | 0x06BE       |      1 |              1 |
| [5053](#event-5053)        | 0x06BF       |      1 |              1 |
| [5054](#event-5054)        | 0x06C0       |      1 |              1 |
| [5055](#event-5055)        | 0x06C1       |      1 |              1 |
| [5057](#event-5057)        | 0x06C2       |      1 |              1 |
| [65535.89](#event-6553589) | 0x06C3       |     31 |              9 |
| [65535.90](#event-6553590) | 0x06E2       |     20 |              6 |
| [65535.91](#event-6553591) | 0x06F6       |     15 |              5 |
| [65535.92](#event-6553592) | 0x0705       |     31 |              9 |
| [5059](#event-5059)        | 0x0724       |    168 |             40 |
| [5060](#event-5060)        | 0x07CC       |      1 |              1 |
| [5062](#event-5062)        | 0x07CD       |      1 |              1 |
| [5067](#event-5067)        | 0x07CE       |      1 |              1 |
| [5068](#event-5068)        | 0x07CF       |      1 |              1 |
| [5063](#event-5063)        | 0x07D0       |      1 |              1 |
| [5061](#event-5061)        | 0x07D1       |      1 |              1 |
| [65535.93](#event-6553593) | 0x07D2       |     34 |              8 |
| [65535.94](#event-6553594) | 0x07F4       |     10 |              2 |
| [65535.95](#event-6553595) | 0x07FE       |     20 |              6 |
| [5064](#event-5064)        | 0x0812       |      1 |              1 |
| [5069](#event-5069)        | 0x0813       |      1 |              1 |
| [65535.96](#event-6553596) | 0x0814       |     15 |              5 |
| [5071](#event-5071)        | 0x0823       |      1 |              1 |
| [5073](#event-5073)        | 0x0824       |      1 |              1 |
| [5075](#event-5075)        | 0x0825       |      1 |              1 |
| [5076](#event-5076)        | 0x0826       |      1 |              1 |
| [5077](#event-5077)        | 0x0827       |      1 |              1 |
| [5078](#event-5078)        | 0x0828       |      1 |              1 |
| [65535.97](#event-6553597) | 0x0829       |      1 |              1 |
| [65535.98](#event-6553598) | 0x082A       |      1 |              1 |
| [65535.99](#event-6553599) | 0x082B       |      1 |              1 |

## DAT References (imed_data)

|   Index | Hex Value   |   Dec Value |
|---------|-------------|-------------|
|       0 | 0x0002      |           2 |
|       1 | 0x0000      |           0 |
|       2 | 0x0341      |         833 |
|       3 | 0x0342      |         834 |
|       4 | 0x0343      |         835 |
|       5 | 0x0344      |         836 |
|       6 | 0x0356      |         854 |
|       7 | 0x0363      |         867 |
|       8 | 0x000B      |          11 |
|       9 | 0x57AB      |       22443 |
|      10 | 0xFFFF57AE  |  4294924206 |
|      11 | 0xFFFFE188  |  4294959496 |
|      12 | 0x5D75      |       23925 |
|      13 | 0xFFFF5745  |  4294924101 |
|      14 | 0x58AC      |       22700 |
|      15 | 0xFFFF4DE9  |  4294921705 |
|      16 | 0xFFFFE184  |  4294959492 |
|      17 | 0x0043      |          67 |
|      18 | 0x6822      |       26658 |
|      19 | 0xFFFF5722  |  4294924066 |
|      20 | 0x6397      |       25495 |
|      21 | 0xFFFF5430  |  4294923312 |
|      22 | 0x0C10      |        3088 |
|      23 | 0x0096      |         150 |
|      24 | 0x0014      |          20 |
|      25 | 0x001E      |          30 |
|      26 | 0x0110      |         272 |
|      27 | 0x000A      |          10 |
|      28 | 0x610D      |       24845 |
|      29 | 0xFFFF5537  |  4294923575 |
|      30 | 0x585A      |       22618 |
|      31 | 0xFFFF5525  |  4294923557 |
|      32 | 0x0102      |         258 |
|      33 | 0x1A50      |        6736 |
|      34 | 0x1A51      |        6737 |
|      35 | 0x0338      |         824 |
|      36 | 0x1A52      |        6738 |
|      37 | 0x6F79      |       28537 |
|      38 | 0xFFFF497E  |  4294920574 |
|      39 | 0x08D2      |        2258 |
|      40 | 0x88A7      |       34983 |
|      41 | 0xFFFF5863  |  4294924387 |
|      42 | 0xFFFFE3E1  |  4294960097 |
|      43 | 0x0400      |        1024 |
|      44 | 0x88B3      |       34995 |
|      45 | 0xFFFF55AC  |  4294923692 |
|      46 | 0xFFFFE3DD  |  4294960093 |
|      47 | 0x22D88     |      142728 |
|      48 | 0x005E      |          94 |
|      49 | 0xFFFFF830  |  4294965296 |
|      50 | 0x000D      |          13 |
|      51 | 0x000C      |          12 |
|      52 | 0x23BED     |      146413 |
|      53 | 0x240EF     |      147695 |
|      54 | 0xFFFFFFB3  |  4294967219 |
|      55 | 0x24EE3     |      151267 |
|      56 | 0xFFFFFFF4  |  4294967284 |
|      57 | 0xFFFFF769  |  4294965097 |
|      58 | 0xFFFFFCE8  |  4294966504 |
|      59 | 0xB4C2      |       46274 |
|      60 | 0x0C00      |        3072 |
|      61 | 0x24193     |      147859 |
|      62 | 0xFFFFFF8D  |  4294967181 |
|      63 | 0x0809      |        2057 |
|      64 | 0x23782     |      145282 |
|      65 | 0x00B2      |         178 |
|      66 | 0x22740     |      141120 |
|      67 | 0xFFFFFC3F  |  4294966335 |
|      68 | 0x070F      |        1807 |
|      69 | 0x20C04     |      134148 |
|      70 | 0xFFFFF691  |  4294964881 |
|      71 | 0xFFFFF9E7  |  4294965735 |
|      72 | 0x58B8      |       22712 |
|      73 | 0xFFFF45FE  |  4294919678 |
|      74 | 0x60B2      |       24754 |
|      75 | 0xFFFF466A  |  4294919786 |
|      76 | 0x64CC      |       25804 |
|      77 | 0xFFFF4DAF  |  4294921647 |
|      78 | 0x640D      |       25613 |
|      79 | 0xFFFF531D  |  4294923037 |
|      80 | 0x598E      |       22926 |
|      81 | 0xFFFF5538  |  4294923576 |
|      82 | 0x5EEA      |       24298 |
|      83 | 0xFFFF5585  |  4294923653 |
|      84 | 0x0001      |           1 |
|      85 | 0x15C5      |        5573 |
|      86 | 0x252A      |        9514 |
|      87 | 0x15CA      |        5578 |
|      88 | 0x252B      |        9515 |
|      89 | 0x252C      |        9516 |
|      90 | 0x252D      |        9517 |
|      91 | 0x252E      |        9518 |
|      92 | 0x252F      |        9519 |
|      93 | 0x2530      |        9520 |
|      94 | 0x1056      |        4182 |
|      95 | 0x2531      |        9521 |
|      96 | 0x003C      |          60 |
|      97 | 0x2532      |        9522 |
|      98 | 0x8D3A      |       36154 |
|      99 | 0xFFFF2603  |  4294911491 |
|     100 | 0xFFFFE633  |  4294960691 |
|     101 | 0x8E78      |       36472 |
|     102 | 0xFFFF4D65  |  4294921573 |
|     103 | 0x6396      |       25494 |
|     104 | 0xFFFF4D32  |  4294921522 |
|     105 | 0x07DF      |        2015 |
|     106 | 0x6F20      |       28448 |
|     107 | 0xFFFF4D6D  |  4294921581 |
|     108 | 0x4F22      |       20258 |
|     109 | 0xFFFF073E  |  4294903614 |
|     110 | 0xFFFFE891  |  4294961297 |

## String References

- **9521**: Naja Salaheem hands you $0!

## Events

### Event 65535

#### Metadata

| Field        | Value   |
|--------------|---------|
| Entrypoint   | 0x0000  |
| Data Size    | 1 bytes |
| Instructions | 1       |

```
      00 01 02 03 04 05 06 07  08 09 0A 0B 0C 0D 0E 0F
      -- -- -- -- -- -- -- --  -- -- -- -- -- -- -- --
0000: 00                                                .               
```

#### Opcodes

```
  0: 0x0000 [0x00] END_REQSTACK()
```

### Event 506

#### Metadata

| Field        | Value   |
|--------------|---------|
| Entrypoint   | 0x0001  |
| Data Size    | 1 bytes |
| Instructions | 1       |

```
      00 01 02 03 04 05 06 07  08 09 0A 0B 0C 0D 0E 0F
      -- -- -- -- -- -- -- --  -- -- -- -- -- -- -- --
0000:    00                                              .              
```

#### Opcodes

```
  0: 0x0001 [0x00] END_REQSTACK()
```

### Event 65535.1

#### Metadata

| Field        | Value    |
|--------------|----------|
| Entrypoint   | 0x0002   |
| Data Size    | 22 bytes |
| Instructions | 4        |

```
      00 01 02 03 04 05 06 07  08 09 0A 0B 0C 0D 0E 0F
      -- -- -- -- -- -- -- --  -- -- -- -- -- -- -- --
0000:       95 00 80 80 F8 FF  FF 7F 2C 8C 20 03 01 8C    ........,. ...
0010: 20 03 01 77 6F 66 32 00                            ..wof2.        
```

#### Opcodes

```
  0: 0x0002 [0x95] SETUP_EVENT_NPC: Prepare NPC for event (Render.Flags3 = 2*)
  1: 0x0005 [0x80] LOAD_WAIT(entity=EventEntity)
  2: 0x000A [0x2C] CREATE_SCHEDULER_TASK: Create scheduler "wof2" with entities [Naja Salaheem (ID: 16982156/0x0103208C), Naja Salaheem (ID: 16982156/0x0103208C)]
  3: 0x0017 [0x00] END_REQSTACK()
```

### Event 65535.2

#### Metadata

| Field        | Value    |
|--------------|----------|
| Entrypoint   | 0x0018   |
| Data Size    | 22 bytes |
| Instructions | 4        |

```
      00 01 02 03 04 05 06 07  08 09 0A 0B 0C 0D 0E 0F
      -- -- -- -- -- -- -- --  -- -- -- -- -- -- -- --
0010:                          95 01 80 80 F8 FF FF 7F          ........
0020: 2C 8C 20 03 01 8C 20 03  01 77 6F 6E 32 00        ,. ... ..won2.  
```

#### Opcodes

```
  0: 0x0018 [0x95] SETUP_EVENT_NPC: Prepare NPC for event (Render.Flags3 = 0*)
  1: 0x001B [0x80] LOAD_WAIT(entity=EventEntity)
  2: 0x0020 [0x2C] CREATE_SCHEDULER_TASK: Create scheduler "won2" with entities [Naja Salaheem (ID: 16982156/0x0103208C), Naja Salaheem (ID: 16982156/0x0103208C)]
  3: 0x002D [0x00] END_REQSTACK()
```

### Event 65535.3

#### Metadata

| Field        | Value   |
|--------------|---------|
| Entrypoint   | 0x002E  |
| Data Size    | 4 bytes |
| Instructions | 2       |

```
      00 01 02 03 04 05 06 07  08 09 0A 0B 0C 0D 0E 0F
      -- -- -- -- -- -- -- --  -- -- -- -- -- -- -- --
0020:                                            95 01                ..
0030: 80 00                                             ..              
```

#### Opcodes

```
  0: 0x002E [0x95] SETUP_EVENT_NPC: Prepare NPC for event (Render.Flags3 = 0*)
  1: 0x0031 [0x00] END_REQSTACK()
```

### Event 65535.4

#### Metadata

| Field        | Value   |
|--------------|---------|
| Entrypoint   | 0x0032  |
| Data Size    | 2 bytes |
| Instructions | 2       |

```
      00 01 02 03 04 05 06 07  08 09 0A 0B 0C 0D 0E 0F
      -- -- -- -- -- -- -- --  -- -- -- -- -- -- -- --
0030:       96 00                                         ..            
```

#### Opcodes

```
  0: 0x0032 [0x96] UNSET_EVENT_NPC: Restore NPC after event (removes event NPC status)
  1: 0x0033 [0x00] END_REQSTACK()
```

### Event 65535.5

#### Metadata

| Field        | Value    |
|--------------|----------|
| Entrypoint   | 0x0034   |
| Data Size    | 16 bytes |
| Instructions | 2        |

```
      00 01 02 03 04 05 06 07  08 09 0A 0B 0C 0D 0E 0F
      -- -- -- -- -- -- -- --  -- -- -- -- -- -- -- --
0030:             5B 02 80 F8  FF FF 7F F8 FF FF 7F 74      [..........t
0040: 6C 6B 30 00                                       lk0.            
```

#### Opcodes

```
  0: 0x0034 [0x5B] LOAD_EXT_SCHEDULER: Load scheduler "tlk0" with entities [EventEntity, EventEntity], work=833*
  1: 0x0043 [0x00] END_REQSTACK()
```

### Event 65535.6

#### Metadata

| Field        | Value    |
|--------------|----------|
| Entrypoint   | 0x0044   |
| Data Size    | 14 bytes |
| Instructions | 2        |

```
      00 01 02 03 04 05 06 07  08 09 0A 0B 0C 0D 0E 0F
      -- -- -- -- -- -- -- --  -- -- -- -- -- -- -- --
0040:             53 F8 FF FF  7F F8 FF FF 7F 74 6C 6B      S........tlk
0050: 30 00                                             0.              
```

#### Opcodes

```
  0: 0x0044 [0x53] WAIT_SCHEDULER_TASK: Wait for scheduler "tlk0" with entities [EventEntity, EventEntity]
  1: 0x0051 [0x00] END_REQSTACK()
```

### Event 65535.7

#### Metadata

| Field        | Value    |
|--------------|----------|
| Entrypoint   | 0x0052   |
| Data Size    | 16 bytes |
| Instructions | 2        |

```
      00 01 02 03 04 05 06 07  08 09 0A 0B 0C 0D 0E 0F
      -- -- -- -- -- -- -- --  -- -- -- -- -- -- -- --
0050:       5B 02 80 F8 FF FF  7F F8 FF FF 7F 74 6C 6B    [..........tlk
0060: 31 00                                             1.              
```

#### Opcodes

```
  0: 0x0052 [0x5B] LOAD_EXT_SCHEDULER: Load scheduler "tlk1" with entities [EventEntity, EventEntity], work=833*
  1: 0x0061 [0x00] END_REQSTACK()
```

### Event 65535.8

#### Metadata

| Field        | Value    |
|--------------|----------|
| Entrypoint   | 0x0062   |
| Data Size    | 14 bytes |
| Instructions | 2        |

```
      00 01 02 03 04 05 06 07  08 09 0A 0B 0C 0D 0E 0F
      -- -- -- -- -- -- -- --  -- -- -- -- -- -- -- --
0060:       53 F8 FF FF 7F F8  FF FF 7F 74 6C 6B 31 00    S........tlk1.
```

#### Opcodes

```
  0: 0x0062 [0x53] WAIT_SCHEDULER_TASK: Wait for scheduler "tlk1" with entities [EventEntity, EventEntity]
  1: 0x006F [0x00] END_REQSTACK()
```

### Event 65535.9

#### Metadata

| Field        | Value    |
|--------------|----------|
| Entrypoint   | 0x0070   |
| Data Size    | 22 bytes |
| Instructions | 3        |

```
      00 01 02 03 04 05 06 07  08 09 0A 0B 0C 0D 0E 0F
      -- -- -- -- -- -- -- --  -- -- -- -- -- -- -- --
0070: 81 00 F8 FF FF 7F 5B 02  80 F8 FF FF 7F F8 FF FF  ......[.........
0080: 7F 74 68 6B 30 00                                 .thk0.          
```

#### Opcodes

```
  0: 0x0070 [0x81] SET_ENTITY_BLINKING(blink_flag=0x00, entity=EventEntity)
  1: 0x0076 [0x5B] LOAD_EXT_SCHEDULER: Load scheduler "thk0" with entities [EventEntity, EventEntity], work=833*
  2: 0x0085 [0x00] END_REQSTACK()
```

### Event 65535.10

#### Metadata

| Field        | Value    |
|--------------|----------|
| Entrypoint   | 0x0086   |
| Data Size    | 14 bytes |
| Instructions | 2        |

```
      00 01 02 03 04 05 06 07  08 09 0A 0B 0C 0D 0E 0F
      -- -- -- -- -- -- -- --  -- -- -- -- -- -- -- --
0080:                   53 F8  FF FF 7F F8 FF FF 7F 74        S........t
0090: 68 6B 30 00                                       hk0.            
```

#### Opcodes

```
  0: 0x0086 [0x53] WAIT_SCHEDULER_TASK: Wait for scheduler "thk0" with entities [EventEntity, EventEntity]
  1: 0x0093 [0x00] END_REQSTACK()
```

### Event 65535.11

#### Metadata

| Field        | Value    |
|--------------|----------|
| Entrypoint   | 0x0094   |
| Data Size    | 16 bytes |
| Instructions | 2        |

```
      00 01 02 03 04 05 06 07  08 09 0A 0B 0C 0D 0E 0F
      -- -- -- -- -- -- -- --  -- -- -- -- -- -- -- --
0090:             5B 02 80 F8  FF FF 7F F8 FF FF 7F 74      [..........t
00A0: 68 6B 31 00                                       hk1.            
```

#### Opcodes

```
  0: 0x0094 [0x5B] LOAD_EXT_SCHEDULER: Load scheduler "thk1" with entities [EventEntity, EventEntity], work=833*
  1: 0x00A3 [0x00] END_REQSTACK()
```

### Event 65535.12

#### Metadata

| Field        | Value    |
|--------------|----------|
| Entrypoint   | 0x00A4   |
| Data Size    | 20 bytes |
| Instructions | 3        |

```
      00 01 02 03 04 05 06 07  08 09 0A 0B 0C 0D 0E 0F
      -- -- -- -- -- -- -- --  -- -- -- -- -- -- -- --
00A0:             53 F8 FF FF  7F F8 FF FF 7F 74 68 6B      S........thk
00B0: 31 81 01 F8 FF FF 7F 00                           1.......        
```

#### Opcodes

```
  0: 0x00A4 [0x53] WAIT_SCHEDULER_TASK: Wait for scheduler "thk1" with entities [EventEntity, EventEntity]
  1: 0x00B1 [0x81] SET_ENTITY_BLINKING(blink_flag=0x01, entity=EventEntity)
  2: 0x00B7 [0x00] END_REQSTACK()
```

### Event 65535.13

#### Metadata

| Field        | Value    |
|--------------|----------|
| Entrypoint   | 0x00B8   |
| Data Size    | 22 bytes |
| Instructions | 3        |

```
      00 01 02 03 04 05 06 07  08 09 0A 0B 0C 0D 0E 0F
      -- -- -- -- -- -- -- --  -- -- -- -- -- -- -- --
00B0:                          81 00 F8 FF FF 7F 5B 02          ......[.
00C0: 80 F8 FF FF 7F F8 FF FF  7F 70 6E 74 30 00        .........pnt0.  
```

#### Opcodes

```
  0: 0x00B8 [0x81] SET_ENTITY_BLINKING(blink_flag=0x00, entity=EventEntity)
  1: 0x00BE [0x5B] LOAD_EXT_SCHEDULER: Load scheduler "pnt0" with entities [EventEntity, EventEntity], work=833*
  2: 0x00CD [0x00] END_REQSTACK()
```

### Event 65535.14

#### Metadata

| Field        | Value    |
|--------------|----------|
| Entrypoint   | 0x00CE   |
| Data Size    | 14 bytes |
| Instructions | 2        |

```
      00 01 02 03 04 05 06 07  08 09 0A 0B 0C 0D 0E 0F
      -- -- -- -- -- -- -- --  -- -- -- -- -- -- -- --
00C0:                                            53 F8                S.
00D0: FF FF 7F F8 FF FF 7F 70  6E 74 30 00              .......pnt0.    
```

#### Opcodes

```
  0: 0x00CE [0x53] WAIT_SCHEDULER_TASK: Wait for scheduler "pnt0" with entities [EventEntity, EventEntity]
  1: 0x00DB [0x00] END_REQSTACK()
```

### Event 65535.15

#### Metadata

| Field        | Value    |
|--------------|----------|
| Entrypoint   | 0x00DC   |
| Data Size    | 16 bytes |
| Instructions | 2        |

```
      00 01 02 03 04 05 06 07  08 09 0A 0B 0C 0D 0E 0F
      -- -- -- -- -- -- -- --  -- -- -- -- -- -- -- --
00D0:                                      5B 02 80 F8              [...
00E0: FF FF 7F F8 FF FF 7F 70  6E 74 31 00              .......pnt1.    
```

#### Opcodes

```
  0: 0x00DC [0x5B] LOAD_EXT_SCHEDULER: Load scheduler "pnt1" with entities [EventEntity, EventEntity], work=833*
  1: 0x00EB [0x00] END_REQSTACK()
```

### Event 65535.16

#### Metadata

| Field        | Value    |
|--------------|----------|
| Entrypoint   | 0x00EC   |
| Data Size    | 20 bytes |
| Instructions | 3        |

```
      00 01 02 03 04 05 06 07  08 09 0A 0B 0C 0D 0E 0F
      -- -- -- -- -- -- -- --  -- -- -- -- -- -- -- --
00E0:                                      53 F8 FF FF              S...
00F0: 7F F8 FF FF 7F 70 6E 74  31 81 01 F8 FF FF 7F 00  .....pnt1.......
```

#### Opcodes

```
  0: 0x00EC [0x53] WAIT_SCHEDULER_TASK: Wait for scheduler "pnt1" with entities [EventEntity, EventEntity]
  1: 0x00F9 [0x81] SET_ENTITY_BLINKING(blink_flag=0x01, entity=EventEntity)
  2: 0x00FF [0x00] END_REQSTACK()
```

### Event 65535.17

#### Metadata

| Field        | Value    |
|--------------|----------|
| Entrypoint   | 0x0100   |
| Data Size    | 16 bytes |
| Instructions | 2        |

```
      00 01 02 03 04 05 06 07  08 09 0A 0B 0C 0D 0E 0F
      -- -- -- -- -- -- -- --  -- -- -- -- -- -- -- --
0100: 5B 03 80 F8 FF FF 7F F8  FF FF 7F 61 67 72 30 00  [..........agr0.
```

#### Opcodes

```
  0: 0x0100 [0x5B] LOAD_EXT_SCHEDULER: Load scheduler "agr0" with entities [EventEntity, EventEntity], work=834*
  1: 0x010F [0x00] END_REQSTACK()
```

### Event 65535.18

#### Metadata

| Field        | Value    |
|--------------|----------|
| Entrypoint   | 0x0110   |
| Data Size    | 14 bytes |
| Instructions | 2        |

```
      00 01 02 03 04 05 06 07  08 09 0A 0B 0C 0D 0E 0F
      -- -- -- -- -- -- -- --  -- -- -- -- -- -- -- --
0110: 53 F8 FF FF 7F F8 FF FF  7F 61 67 72 30 00        S........agr0.  
```

#### Opcodes

```
  0: 0x0110 [0x53] WAIT_SCHEDULER_TASK: Wait for scheduler "agr0" with entities [EventEntity, EventEntity]
  1: 0x011D [0x00] END_REQSTACK()
```

### Event 65535.19

#### Metadata

| Field        | Value    |
|--------------|----------|
| Entrypoint   | 0x011E   |
| Data Size    | 16 bytes |
| Instructions | 2        |

```
      00 01 02 03 04 05 06 07  08 09 0A 0B 0C 0D 0E 0F
      -- -- -- -- -- -- -- --  -- -- -- -- -- -- -- --
0110:                                            5B 03                [.
0120: 80 F8 FF FF 7F F8 FF FF  7F 61 67 72 31 00        .........agr1.  
```

#### Opcodes

```
  0: 0x011E [0x5B] LOAD_EXT_SCHEDULER: Load scheduler "agr1" with entities [EventEntity, EventEntity], work=834*
  1: 0x012D [0x00] END_REQSTACK()
```

### Event 65535.20

#### Metadata

| Field        | Value    |
|--------------|----------|
| Entrypoint   | 0x012E   |
| Data Size    | 14 bytes |
| Instructions | 2        |

```
      00 01 02 03 04 05 06 07  08 09 0A 0B 0C 0D 0E 0F
      -- -- -- -- -- -- -- --  -- -- -- -- -- -- -- --
0120:                                            53 F8                S.
0130: FF FF 7F F8 FF FF 7F 61  67 72 31 00              .......agr1.    
```

#### Opcodes

```
  0: 0x012E [0x53] WAIT_SCHEDULER_TASK: Wait for scheduler "agr1" with entities [EventEntity, EventEntity]
  1: 0x013B [0x00] END_REQSTACK()
```

### Event 65535.21

#### Metadata

| Field        | Value    |
|--------------|----------|
| Entrypoint   | 0x013C   |
| Data Size    | 22 bytes |
| Instructions | 3        |

```
      00 01 02 03 04 05 06 07  08 09 0A 0B 0C 0D 0E 0F
      -- -- -- -- -- -- -- --  -- -- -- -- -- -- -- --
0130:                                      81 00 F8 FF              ....
0140: FF 7F 5B 03 80 F8 FF FF  7F F8 FF FF 7F 61 67 62  ..[..........agb
0150: 30 00                                             0.              
```

#### Opcodes

```
  0: 0x013C [0x81] SET_ENTITY_BLINKING(blink_flag=0x00, entity=EventEntity)
  1: 0x0142 [0x5B] LOAD_EXT_SCHEDULER: Load scheduler "agb0" with entities [EventEntity, EventEntity], work=834*
  2: 0x0151 [0x00] END_REQSTACK()
```

### Event 65535.22

#### Metadata

| Field        | Value    |
|--------------|----------|
| Entrypoint   | 0x0152   |
| Data Size    | 20 bytes |
| Instructions | 3        |

```
      00 01 02 03 04 05 06 07  08 09 0A 0B 0C 0D 0E 0F
      -- -- -- -- -- -- -- --  -- -- -- -- -- -- -- --
0150:       53 F8 FF FF 7F F8  FF FF 7F 61 67 62 30 81    S........agb0.
0160: 01 F8 FF FF 7F 00                                 ......          
```

#### Opcodes

```
  0: 0x0152 [0x53] WAIT_SCHEDULER_TASK: Wait for scheduler "agb0" with entities [EventEntity, EventEntity]
  1: 0x015F [0x81] SET_ENTITY_BLINKING(blink_flag=0x01, entity=EventEntity)
  2: 0x0165 [0x00] END_REQSTACK()
```

### Event 65535.23

#### Metadata

| Field        | Value    |
|--------------|----------|
| Entrypoint   | 0x0166   |
| Data Size    | 16 bytes |
| Instructions | 2        |

```
      00 01 02 03 04 05 06 07  08 09 0A 0B 0C 0D 0E 0F
      -- -- -- -- -- -- -- --  -- -- -- -- -- -- -- --
0160:                   5B 04  80 F8 FF FF 7F F8 FF FF        [.........
0170: 7F 70 61 73 30 00                                 .pas0.          
```

#### Opcodes

```
  0: 0x0166 [0x5B] LOAD_EXT_SCHEDULER: Load scheduler "pas0" with entities [EventEntity, EventEntity], work=835*
  1: 0x0175 [0x00] END_REQSTACK()
```

### Event 65535.24

#### Metadata

| Field        | Value    |
|--------------|----------|
| Entrypoint   | 0x0176   |
| Data Size    | 14 bytes |
| Instructions | 2        |

```
      00 01 02 03 04 05 06 07  08 09 0A 0B 0C 0D 0E 0F
      -- -- -- -- -- -- -- --  -- -- -- -- -- -- -- --
0170:                   53 F8  FF FF 7F F8 FF FF 7F 70        S........p
0180: 61 73 30 00                                       as0.            
```

#### Opcodes

```
  0: 0x0176 [0x53] WAIT_SCHEDULER_TASK: Wait for scheduler "pas0" with entities [EventEntity, EventEntity]
  1: 0x0183 [0x00] END_REQSTACK()
```

### Event 65535.25

#### Metadata

| Field        | Value    |
|--------------|----------|
| Entrypoint   | 0x0184   |
| Data Size    | 22 bytes |
| Instructions | 3        |

```
      00 01 02 03 04 05 06 07  08 09 0A 0B 0C 0D 0E 0F
      -- -- -- -- -- -- -- --  -- -- -- -- -- -- -- --
0180:             81 00 F8 FF  FF 7F 5B 04 80 F8 FF FF      ......[.....
0190: 7F F8 FF FF 7F 68 61 70  30 00                    .....hap0.      
```

#### Opcodes

```
  0: 0x0184 [0x81] SET_ENTITY_BLINKING(blink_flag=0x00, entity=EventEntity)
  1: 0x018A [0x5B] LOAD_EXT_SCHEDULER: Load scheduler "hap0" with entities [EventEntity, EventEntity], work=835*
  2: 0x0199 [0x00] END_REQSTACK()
```

### Event 65535.26

#### Metadata

| Field        | Value    |
|--------------|----------|
| Entrypoint   | 0x019A   |
| Data Size    | 14 bytes |
| Instructions | 2        |

```
      00 01 02 03 04 05 06 07  08 09 0A 0B 0C 0D 0E 0F
      -- -- -- -- -- -- -- --  -- -- -- -- -- -- -- --
0190:                                53 F8 FF FF 7F F8            S.....
01A0: FF FF 7F 68 61 70 30 00                           ...hap0.        
```

#### Opcodes

```
  0: 0x019A [0x53] WAIT_SCHEDULER_TASK: Wait for scheduler "hap0" with entities [EventEntity, EventEntity]
  1: 0x01A7 [0x00] END_REQSTACK()
```

### Event 65535.27

#### Metadata

| Field        | Value    |
|--------------|----------|
| Entrypoint   | 0x01A8   |
| Data Size    | 16 bytes |
| Instructions | 2        |

```
      00 01 02 03 04 05 06 07  08 09 0A 0B 0C 0D 0E 0F
      -- -- -- -- -- -- -- --  -- -- -- -- -- -- -- --
01A0:                          5B 04 80 F8 FF FF 7F F8          [.......
01B0: FF FF 7F 68 61 70 31 00                           ...hap1.        
```

#### Opcodes

```
  0: 0x01A8 [0x5B] LOAD_EXT_SCHEDULER: Load scheduler "hap1" with entities [EventEntity, EventEntity], work=835*
  1: 0x01B7 [0x00] END_REQSTACK()
```

### Event 65535.28

#### Metadata

| Field        | Value    |
|--------------|----------|
| Entrypoint   | 0x01B8   |
| Data Size    | 14 bytes |
| Instructions | 2        |

```
      00 01 02 03 04 05 06 07  08 09 0A 0B 0C 0D 0E 0F
      -- -- -- -- -- -- -- --  -- -- -- -- -- -- -- --
01B0:                          53 F8 FF FF 7F F8 FF FF          S.......
01C0: 7F 68 61 70 31 00                                 .hap1.          
```

#### Opcodes

```
  0: 0x01B8 [0x53] WAIT_SCHEDULER_TASK: Wait for scheduler "hap1" with entities [EventEntity, EventEntity]
  1: 0x01C5 [0x00] END_REQSTACK()
```

### Event 65535.29

#### Metadata

| Field        | Value    |
|--------------|----------|
| Entrypoint   | 0x01C6   |
| Data Size    | 16 bytes |
| Instructions | 2        |

```
      00 01 02 03 04 05 06 07  08 09 0A 0B 0C 0D 0E 0F
      -- -- -- -- -- -- -- --  -- -- -- -- -- -- -- --
01C0:                   5B 04  80 F8 FF FF 7F F8 FF FF        [.........
01D0: 7F 68 61 70 72 00                                 .hapr.          
```

#### Opcodes

```
  0: 0x01C6 [0x5B] LOAD_EXT_SCHEDULER: Load scheduler "hapr" with entities [EventEntity, EventEntity], work=835*
  1: 0x01D5 [0x00] END_REQSTACK()
```

### Event 65535.30

#### Metadata

| Field        | Value    |
|--------------|----------|
| Entrypoint   | 0x01D6   |
| Data Size    | 20 bytes |
| Instructions | 3        |

```
      00 01 02 03 04 05 06 07  08 09 0A 0B 0C 0D 0E 0F
      -- -- -- -- -- -- -- --  -- -- -- -- -- -- -- --
01D0:                   53 F8  FF FF 7F F8 FF FF 7F 68        S........h
01E0: 61 70 72 81 01 F8 FF FF  7F 00                    apr.......      
```

#### Opcodes

```
  0: 0x01D6 [0x53] WAIT_SCHEDULER_TASK: Wait for scheduler "hapr" with entities [EventEntity, EventEntity]
  1: 0x01E3 [0x81] SET_ENTITY_BLINKING(blink_flag=0x01, entity=EventEntity)
  2: 0x01E9 [0x00] END_REQSTACK()
```

### Event 65535.31

#### Metadata

| Field        | Value    |
|--------------|----------|
| Entrypoint   | 0x01EA   |
| Data Size    | 16 bytes |
| Instructions | 2        |

```
      00 01 02 03 04 05 06 07  08 09 0A 0B 0C 0D 0E 0F
      -- -- -- -- -- -- -- --  -- -- -- -- -- -- -- --
01E0:                                5B 05 80 F8 FF FF            [.....
01F0: 7F F8 FF FF 7F 70 6E 62  30 00                    .....pnb0.      
```

#### Opcodes

```
  0: 0x01EA [0x5B] LOAD_EXT_SCHEDULER: Load scheduler "pnb0" with entities [EventEntity, EventEntity], work=836*
  1: 0x01F9 [0x00] END_REQSTACK()
```

### Event 65535.32

#### Metadata

| Field        | Value    |
|--------------|----------|
| Entrypoint   | 0x01FA   |
| Data Size    | 14 bytes |
| Instructions | 2        |

```
      00 01 02 03 04 05 06 07  08 09 0A 0B 0C 0D 0E 0F
      -- -- -- -- -- -- -- --  -- -- -- -- -- -- -- --
01F0:                                53 F8 FF FF 7F F8            S.....
0200: FF FF 7F 70 6E 62 30 00                           ...pnb0.        
```

#### Opcodes

```
  0: 0x01FA [0x53] WAIT_SCHEDULER_TASK: Wait for scheduler "pnb0" with entities [EventEntity, EventEntity]
  1: 0x0207 [0x00] END_REQSTACK()
```

### Event 65535.33

#### Metadata

| Field        | Value    |
|--------------|----------|
| Entrypoint   | 0x0208   |
| Data Size    | 16 bytes |
| Instructions | 2        |

```
      00 01 02 03 04 05 06 07  08 09 0A 0B 0C 0D 0E 0F
      -- -- -- -- -- -- -- --  -- -- -- -- -- -- -- --
0200:                          5B 05 80 F8 FF FF 7F F8          [.......
0210: FF FF 7F 70 6E 62 31 00                           ...pnb1.        
```

#### Opcodes

```
  0: 0x0208 [0x5B] LOAD_EXT_SCHEDULER: Load scheduler "pnb1" with entities [EventEntity, EventEntity], work=836*
  1: 0x0217 [0x00] END_REQSTACK()
```

### Event 65535.34

#### Metadata

| Field        | Value    |
|--------------|----------|
| Entrypoint   | 0x0218   |
| Data Size    | 14 bytes |
| Instructions | 2        |

```
      00 01 02 03 04 05 06 07  08 09 0A 0B 0C 0D 0E 0F
      -- -- -- -- -- -- -- --  -- -- -- -- -- -- -- --
0210:                          53 F8 FF FF 7F F8 FF FF          S.......
0220: 7F 70 6E 62 31 00                                 .pnb1.          
```

#### Opcodes

```
  0: 0x0218 [0x53] WAIT_SCHEDULER_TASK: Wait for scheduler "pnb1" with entities [EventEntity, EventEntity]
  1: 0x0225 [0x00] END_REQSTACK()
```

### Event 65535.35

#### Metadata

| Field        | Value    |
|--------------|----------|
| Entrypoint   | 0x0226   |
| Data Size    | 22 bytes |
| Instructions | 3        |

```
      00 01 02 03 04 05 06 07  08 09 0A 0B 0C 0D 0E 0F
      -- -- -- -- -- -- -- --  -- -- -- -- -- -- -- --
0220:                   81 00  F8 FF FF 7F 5B 06 80 F8        ......[...
0230: FF FF 7F F8 FF FF 7F 74  6C 63 30 00              .......tlc0.    
```

#### Opcodes

```
  0: 0x0226 [0x81] SET_ENTITY_BLINKING(blink_flag=0x00, entity=EventEntity)
  1: 0x022C [0x5B] LOAD_EXT_SCHEDULER: Load scheduler "tlc0" with entities [EventEntity, EventEntity], work=854*
  2: 0x023B [0x00] END_REQSTACK()
```

### Event 65535.36

#### Metadata

| Field        | Value    |
|--------------|----------|
| Entrypoint   | 0x023C   |
| Data Size    | 14 bytes |
| Instructions | 2        |

```
      00 01 02 03 04 05 06 07  08 09 0A 0B 0C 0D 0E 0F
      -- -- -- -- -- -- -- --  -- -- -- -- -- -- -- --
0230:                                      53 F8 FF FF              S...
0240: 7F F8 FF FF 7F 74 6C 63  30 00                    .....tlc0.      
```

#### Opcodes

```
  0: 0x023C [0x53] WAIT_SCHEDULER_TASK: Wait for scheduler "tlc0" with entities [EventEntity, EventEntity]
  1: 0x0249 [0x00] END_REQSTACK()
```

### Event 65535.37

#### Metadata

| Field        | Value    |
|--------------|----------|
| Entrypoint   | 0x024A   |
| Data Size    | 16 bytes |
| Instructions | 2        |

```
      00 01 02 03 04 05 06 07  08 09 0A 0B 0C 0D 0E 0F
      -- -- -- -- -- -- -- --  -- -- -- -- -- -- -- --
0240:                                5B 06 80 F8 FF FF            [.....
0250: 7F F8 FF FF 7F 74 6C 63  31 00                    .....tlc1.      
```

#### Opcodes

```
  0: 0x024A [0x5B] LOAD_EXT_SCHEDULER: Load scheduler "tlc1" with entities [EventEntity, EventEntity], work=854*
  1: 0x0259 [0x00] END_REQSTACK()
```

### Event 65535.38

#### Metadata

| Field        | Value    |
|--------------|----------|
| Entrypoint   | 0x025A   |
| Data Size    | 20 bytes |
| Instructions | 3        |

```
      00 01 02 03 04 05 06 07  08 09 0A 0B 0C 0D 0E 0F
      -- -- -- -- -- -- -- --  -- -- -- -- -- -- -- --
0250:                                53 F8 FF FF 7F F8            S.....
0260: FF FF 7F 74 6C 63 31 81  01 F8 FF FF 7F 00        ...tlc1.......  
```

#### Opcodes

```
  0: 0x025A [0x53] WAIT_SCHEDULER_TASK: Wait for scheduler "tlc1" with entities [EventEntity, EventEntity]
  1: 0x0267 [0x81] SET_ENTITY_BLINKING(blink_flag=0x01, entity=EventEntity)
  2: 0x026D [0x00] END_REQSTACK()
```

### Event 65535.39

#### Metadata

| Field        | Value    |
|--------------|----------|
| Entrypoint   | 0x026E   |
| Data Size    | 22 bytes |
| Instructions | 3        |

```
      00 01 02 03 04 05 06 07  08 09 0A 0B 0C 0D 0E 0F
      -- -- -- -- -- -- -- --  -- -- -- -- -- -- -- --
0260:                                            81 00                ..
0270: F8 FF FF 7F 5B 06 80 F8  FF FF 7F F8 FF FF 7F 74  ....[..........t
0280: 6C 64 30 00                                       ld0.            
```

#### Opcodes

```
  0: 0x026E [0x81] SET_ENTITY_BLINKING(blink_flag=0x00, entity=EventEntity)
  1: 0x0274 [0x5B] LOAD_EXT_SCHEDULER: Load scheduler "tld0" with entities [EventEntity, EventEntity], work=854*
  2: 0x0283 [0x00] END_REQSTACK()
```

### Event 65535.40

#### Metadata

| Field        | Value    |
|--------------|----------|
| Entrypoint   | 0x0284   |
| Data Size    | 14 bytes |
| Instructions | 2        |

```
      00 01 02 03 04 05 06 07  08 09 0A 0B 0C 0D 0E 0F
      -- -- -- -- -- -- -- --  -- -- -- -- -- -- -- --
0280:             53 F8 FF FF  7F F8 FF FF 7F 74 6C 64      S........tld
0290: 30 00                                             0.              
```

#### Opcodes

```
  0: 0x0284 [0x53] WAIT_SCHEDULER_TASK: Wait for scheduler "tld0" with entities [EventEntity, EventEntity]
  1: 0x0291 [0x00] END_REQSTACK()
```

### Event 65535.41

#### Metadata

| Field        | Value    |
|--------------|----------|
| Entrypoint   | 0x0292   |
| Data Size    | 16 bytes |
| Instructions | 2        |

```
      00 01 02 03 04 05 06 07  08 09 0A 0B 0C 0D 0E 0F
      -- -- -- -- -- -- -- --  -- -- -- -- -- -- -- --
0290:       5B 06 80 F8 FF FF  7F F8 FF FF 7F 74 6C 64    [..........tld
02A0: 31 00                                             1.              
```

#### Opcodes

```
  0: 0x0292 [0x5B] LOAD_EXT_SCHEDULER: Load scheduler "tld1" with entities [EventEntity, EventEntity], work=854*
  1: 0x02A1 [0x00] END_REQSTACK()
```

### Event 65535.42

#### Metadata

| Field        | Value    |
|--------------|----------|
| Entrypoint   | 0x02A2   |
| Data Size    | 20 bytes |
| Instructions | 3        |

```
      00 01 02 03 04 05 06 07  08 09 0A 0B 0C 0D 0E 0F
      -- -- -- -- -- -- -- --  -- -- -- -- -- -- -- --
02A0:       53 F8 FF FF 7F F8  FF FF 7F 74 6C 64 31 81    S........tld1.
02B0: 01 F8 FF FF 7F 00                                 ......          
```

#### Opcodes

```
  0: 0x02A2 [0x53] WAIT_SCHEDULER_TASK: Wait for scheduler "tld1" with entities [EventEntity, EventEntity]
  1: 0x02AF [0x81] SET_ENTITY_BLINKING(blink_flag=0x01, entity=EventEntity)
  2: 0x02B5 [0x00] END_REQSTACK()
```

### Event 65535.43

#### Metadata

| Field        | Value    |
|--------------|----------|
| Entrypoint   | 0x02B6   |
| Data Size    | 22 bytes |
| Instructions | 3        |

```
      00 01 02 03 04 05 06 07  08 09 0A 0B 0C 0D 0E 0F
      -- -- -- -- -- -- -- --  -- -- -- -- -- -- -- --
02B0:                   81 00  F8 FF FF 7F 5B 07 80 F8        ......[...
02C0: FF FF 7F F8 FF FF 7F 61  67 73 30 00              .......ags0.    
```

#### Opcodes

```
  0: 0x02B6 [0x81] SET_ENTITY_BLINKING(blink_flag=0x00, entity=EventEntity)
  1: 0x02BC [0x5B] LOAD_EXT_SCHEDULER: Load scheduler "ags0" with entities [EventEntity, EventEntity], work=867*
  2: 0x02CB [0x00] END_REQSTACK()
```

### Event 65535.44

#### Metadata

| Field        | Value    |
|--------------|----------|
| Entrypoint   | 0x02CC   |
| Data Size    | 14 bytes |
| Instructions | 2        |

```
      00 01 02 03 04 05 06 07  08 09 0A 0B 0C 0D 0E 0F
      -- -- -- -- -- -- -- --  -- -- -- -- -- -- -- --
02C0:                                      53 F8 FF FF              S...
02D0: 7F F8 FF FF 7F 61 67 73  30 00                    .....ags0.      
```

#### Opcodes

```
  0: 0x02CC [0x53] WAIT_SCHEDULER_TASK: Wait for scheduler "ags0" with entities [EventEntity, EventEntity]
  1: 0x02D9 [0x00] END_REQSTACK()
```

### Event 65535.45

#### Metadata

| Field        | Value    |
|--------------|----------|
| Entrypoint   | 0x02DA   |
| Data Size    | 16 bytes |
| Instructions | 2        |

```
      00 01 02 03 04 05 06 07  08 09 0A 0B 0C 0D 0E 0F
      -- -- -- -- -- -- -- --  -- -- -- -- -- -- -- --
02D0:                                5B 07 80 F8 FF FF            [.....
02E0: 7F F8 FF FF 7F 61 67 73  31 00                    .....ags1.      
```

#### Opcodes

```
  0: 0x02DA [0x5B] LOAD_EXT_SCHEDULER: Load scheduler "ags1" with entities [EventEntity, EventEntity], work=867*
  1: 0x02E9 [0x00] END_REQSTACK()
```

### Event 65535.46

#### Metadata

| Field        | Value    |
|--------------|----------|
| Entrypoint   | 0x02EA   |
| Data Size    | 20 bytes |
| Instructions | 3        |

```
      00 01 02 03 04 05 06 07  08 09 0A 0B 0C 0D 0E 0F
      -- -- -- -- -- -- -- --  -- -- -- -- -- -- -- --
02E0:                                53 F8 FF FF 7F F8            S.....
02F0: FF FF 7F 61 67 73 31 81  01 F8 FF FF 7F 00        ...ags1.......  
```

#### Opcodes

```
  0: 0x02EA [0x53] WAIT_SCHEDULER_TASK: Wait for scheduler "ags1" with entities [EventEntity, EventEntity]
  1: 0x02F7 [0x81] SET_ENTITY_BLINKING(blink_flag=0x01, entity=EventEntity)
  2: 0x02FD [0x00] END_REQSTACK()
```

### Event 65535.47

#### Metadata

| Field        | Value    |
|--------------|----------|
| Entrypoint   | 0x02FE   |
| Data Size    | 16 bytes |
| Instructions | 2        |

```
      00 01 02 03 04 05 06 07  08 09 0A 0B 0C 0D 0E 0F
      -- -- -- -- -- -- -- --  -- -- -- -- -- -- -- --
02F0:                                            5B 03                [.
0300: 80 F8 FF FF 7F F8 FF FF  7F 64 73 6B 30 00        .........dsk0.  
```

#### Opcodes

```
  0: 0x02FE [0x5B] LOAD_EXT_SCHEDULER: Load scheduler "dsk0" with entities [EventEntity, EventEntity], work=834*
  1: 0x030D [0x00] END_REQSTACK()
```

### Event 65535.48

#### Metadata

| Field        | Value    |
|--------------|----------|
| Entrypoint   | 0x030E   |
| Data Size    | 14 bytes |
| Instructions | 2        |

```
      00 01 02 03 04 05 06 07  08 09 0A 0B 0C 0D 0E 0F
      -- -- -- -- -- -- -- --  -- -- -- -- -- -- -- --
0300:                                            53 F8                S.
0310: FF FF 7F F8 FF FF 7F 64  73 6B 30 00              .......dsk0.    
```

#### Opcodes

```
  0: 0x030E [0x53] WAIT_SCHEDULER_TASK: Wait for scheduler "dsk0" with entities [EventEntity, EventEntity]
  1: 0x031B [0x00] END_REQSTACK()
```

### Event 65535.49

#### Metadata

| Field        | Value    |
|--------------|----------|
| Entrypoint   | 0x031C   |
| Data Size    | 16 bytes |
| Instructions | 2        |

```
      00 01 02 03 04 05 06 07  08 09 0A 0B 0C 0D 0E 0F
      -- -- -- -- -- -- -- --  -- -- -- -- -- -- -- --
0310:                                      5B 03 80 F8              [...
0320: FF FF 7F F8 FF FF 7F 64  73 6B 31 00              .......dsk1.    
```

#### Opcodes

```
  0: 0x031C [0x5B] LOAD_EXT_SCHEDULER: Load scheduler "dsk1" with entities [EventEntity, EventEntity], work=834*
  1: 0x032B [0x00] END_REQSTACK()
```

### Event 65535.50

#### Metadata

| Field        | Value    |
|--------------|----------|
| Entrypoint   | 0x032C   |
| Data Size    | 14 bytes |
| Instructions | 2        |

```
      00 01 02 03 04 05 06 07  08 09 0A 0B 0C 0D 0E 0F
      -- -- -- -- -- -- -- --  -- -- -- -- -- -- -- --
0320:                                      53 F8 FF FF              S...
0330: 7F F8 FF FF 7F 64 73 6B  31 00                    .....dsk1.      
```

#### Opcodes

```
  0: 0x032C [0x53] WAIT_SCHEDULER_TASK: Wait for scheduler "dsk1" with entities [EventEntity, EventEntity]
  1: 0x0339 [0x00] END_REQSTACK()
```

### Event 65535.51

#### Metadata

| Field        | Value    |
|--------------|----------|
| Entrypoint   | 0x033A   |
| Data Size    | 16 bytes |
| Instructions | 2        |

```
      00 01 02 03 04 05 06 07  08 09 0A 0B 0C 0D 0E 0F
      -- -- -- -- -- -- -- --  -- -- -- -- -- -- -- --
0330:                                5B 03 80 F8 FF FF            [.....
0340: 7F F8 FF FF 7F 64 73 6B  6C 00                    .....dskl.      
```

#### Opcodes

```
  0: 0x033A [0x5B] LOAD_EXT_SCHEDULER: Load scheduler "dskl" with entities [EventEntity, EventEntity], work=834*
  1: 0x0349 [0x00] END_REQSTACK()
```

### Event 65535.52

#### Metadata

| Field        | Value    |
|--------------|----------|
| Entrypoint   | 0x034A   |
| Data Size    | 14 bytes |
| Instructions | 2        |

```
      00 01 02 03 04 05 06 07  08 09 0A 0B 0C 0D 0E 0F
      -- -- -- -- -- -- -- --  -- -- -- -- -- -- -- --
0340:                                53 F8 FF FF 7F F8            S.....
0350: FF FF 7F 64 73 6B 6C 00                           ...dskl.        
```

#### Opcodes

```
  0: 0x034A [0x53] WAIT_SCHEDULER_TASK: Wait for scheduler "dskl" with entities [EventEntity, EventEntity]
  1: 0x0357 [0x00] END_REQSTACK()
```

### Event 65535.53

#### Metadata

| Field        | Value    |
|--------------|----------|
| Entrypoint   | 0x0358   |
| Data Size    | 16 bytes |
| Instructions | 2        |

```
      00 01 02 03 04 05 06 07  08 09 0A 0B 0C 0D 0E 0F
      -- -- -- -- -- -- -- --  -- -- -- -- -- -- -- --
0350:                          5B 03 80 F8 FF FF 7F F8          [.......
0360: FF FF 7F 64 73 74 30 00                           ...dst0.        
```

#### Opcodes

```
  0: 0x0358 [0x5B] LOAD_EXT_SCHEDULER: Load scheduler "dst0" with entities [EventEntity, EventEntity], work=834*
  1: 0x0367 [0x00] END_REQSTACK()
```

### Event 65535.54

#### Metadata

| Field        | Value    |
|--------------|----------|
| Entrypoint   | 0x0368   |
| Data Size    | 14 bytes |
| Instructions | 2        |

```
      00 01 02 03 04 05 06 07  08 09 0A 0B 0C 0D 0E 0F
      -- -- -- -- -- -- -- --  -- -- -- -- -- -- -- --
0360:                          53 F8 FF FF 7F F8 FF FF          S.......
0370: 7F 64 73 74 30 00                                 .dst0.          
```

#### Opcodes

```
  0: 0x0368 [0x53] WAIT_SCHEDULER_TASK: Wait for scheduler "dst0" with entities [EventEntity, EventEntity]
  1: 0x0375 [0x00] END_REQSTACK()
```

### Event 65535.55

#### Metadata

| Field        | Value    |
|--------------|----------|
| Entrypoint   | 0x0376   |
| Data Size    | 16 bytes |
| Instructions | 2        |

```
      00 01 02 03 04 05 06 07  08 09 0A 0B 0C 0D 0E 0F
      -- -- -- -- -- -- -- --  -- -- -- -- -- -- -- --
0370:                   5B 03  80 F8 FF FF 7F F8 FF FF        [.........
0380: 7F 64 73 74 31 00                                 .dst1.          
```

#### Opcodes

```
  0: 0x0376 [0x5B] LOAD_EXT_SCHEDULER: Load scheduler "dst1" with entities [EventEntity, EventEntity], work=834*
  1: 0x0385 [0x00] END_REQSTACK()
```

### Event 65535.56

#### Metadata

| Field        | Value    |
|--------------|----------|
| Entrypoint   | 0x0386   |
| Data Size    | 14 bytes |
| Instructions | 2        |

```
      00 01 02 03 04 05 06 07  08 09 0A 0B 0C 0D 0E 0F
      -- -- -- -- -- -- -- --  -- -- -- -- -- -- -- --
0380:                   53 F8  FF FF 7F F8 FF FF 7F 64        S........d
0390: 73 74 31 00                                       st1.            
```

#### Opcodes

```
  0: 0x0386 [0x53] WAIT_SCHEDULER_TASK: Wait for scheduler "dst1" with entities [EventEntity, EventEntity]
  1: 0x0393 [0x00] END_REQSTACK()
```

### Event 65535.57

#### Metadata

| Field        | Value    |
|--------------|----------|
| Entrypoint   | 0x0394   |
| Data Size    | 22 bytes |
| Instructions | 3        |

```
      00 01 02 03 04 05 06 07  08 09 0A 0B 0C 0D 0E 0F
      -- -- -- -- -- -- -- --  -- -- -- -- -- -- -- --
0390:             81 00 F8 FF  FF 7F 5B 03 80 F8 FF FF      ......[.....
03A0: 7F F8 FF FF 7F 64 73 63  30 00                    .....dsc0.      
```

#### Opcodes

```
  0: 0x0394 [0x81] SET_ENTITY_BLINKING(blink_flag=0x00, entity=EventEntity)
  1: 0x039A [0x5B] LOAD_EXT_SCHEDULER: Load scheduler "dsc0" with entities [EventEntity, EventEntity], work=834*
  2: 0x03A9 [0x00] END_REQSTACK()
```

### Event 65535.58

#### Metadata

| Field        | Value    |
|--------------|----------|
| Entrypoint   | 0x03AA   |
| Data Size    | 14 bytes |
| Instructions | 2        |

```
      00 01 02 03 04 05 06 07  08 09 0A 0B 0C 0D 0E 0F
      -- -- -- -- -- -- -- --  -- -- -- -- -- -- -- --
03A0:                                53 F8 FF FF 7F F8            S.....
03B0: FF FF 7F 64 73 63 30 00                           ...dsc0.        
```

#### Opcodes

```
  0: 0x03AA [0x53] WAIT_SCHEDULER_TASK: Wait for scheduler "dsc0" with entities [EventEntity, EventEntity]
  1: 0x03B7 [0x00] END_REQSTACK()
```

### Event 65535.59

#### Metadata

| Field        | Value    |
|--------------|----------|
| Entrypoint   | 0x03B8   |
| Data Size    | 16 bytes |
| Instructions | 2        |

```
      00 01 02 03 04 05 06 07  08 09 0A 0B 0C 0D 0E 0F
      -- -- -- -- -- -- -- --  -- -- -- -- -- -- -- --
03B0:                          5B 03 80 F8 FF FF 7F F8          [.......
03C0: FF FF 7F 64 73 63 31 00                           ...dsc1.        
```

#### Opcodes

```
  0: 0x03B8 [0x5B] LOAD_EXT_SCHEDULER: Load scheduler "dsc1" with entities [EventEntity, EventEntity], work=834*
  1: 0x03C7 [0x00] END_REQSTACK()
```

### Event 65535.60

#### Metadata

| Field        | Value    |
|--------------|----------|
| Entrypoint   | 0x03C8   |
| Data Size    | 20 bytes |
| Instructions | 3        |

```
      00 01 02 03 04 05 06 07  08 09 0A 0B 0C 0D 0E 0F
      -- -- -- -- -- -- -- --  -- -- -- -- -- -- -- --
03C0:                          53 F8 FF FF 7F F8 FF FF          S.......
03D0: 7F 64 73 63 31 81 01 F8  FF FF 7F 00              .dsc1.......    
```

#### Opcodes

```
  0: 0x03C8 [0x53] WAIT_SCHEDULER_TASK: Wait for scheduler "dsc1" with entities [EventEntity, EventEntity]
  1: 0x03D5 [0x81] SET_ENTITY_BLINKING(blink_flag=0x01, entity=EventEntity)
  2: 0x03DB [0x00] END_REQSTACK()
```

### Event 65535.61

#### Metadata

| Field        | Value    |
|--------------|----------|
| Entrypoint   | 0x03DC   |
| Data Size    | 22 bytes |
| Instructions | 3        |

```
      00 01 02 03 04 05 06 07  08 09 0A 0B 0C 0D 0E 0F
      -- -- -- -- -- -- -- --  -- -- -- -- -- -- -- --
03D0:                                      81 00 F8 FF              ....
03E0: FF 7F 5B 03 80 F8 FF FF  7F F8 FF FF 7F 64 73 63  ..[..........dsc
03F0: 6C 00                                             l.              
```

#### Opcodes

```
  0: 0x03DC [0x81] SET_ENTITY_BLINKING(blink_flag=0x00, entity=EventEntity)
  1: 0x03E2 [0x5B] LOAD_EXT_SCHEDULER: Load scheduler "dscl" with entities [EventEntity, EventEntity], work=834*
  2: 0x03F1 [0x00] END_REQSTACK()
```

### Event 65535.62

#### Metadata

| Field        | Value    |
|--------------|----------|
| Entrypoint   | 0x03F2   |
| Data Size    | 14 bytes |
| Instructions | 2        |

```
      00 01 02 03 04 05 06 07  08 09 0A 0B 0C 0D 0E 0F
      -- -- -- -- -- -- -- --  -- -- -- -- -- -- -- --
03F0:       53 F8 FF FF 7F F8  FF FF 7F 64 73 63 6C 00    S........dscl.
```

#### Opcodes

```
  0: 0x03F2 [0x53] WAIT_SCHEDULER_TASK: Wait for scheduler "dscl" with entities [EventEntity, EventEntity]
  1: 0x03FF [0x00] END_REQSTACK()
```

### Event 65535.63

#### Metadata

| Field        | Value    |
|--------------|----------|
| Entrypoint   | 0x0400   |
| Data Size    | 53 bytes |
| Instructions | 9        |

```
      00 01 02 03 04 05 06 07  08 09 0A 0B 0C 0D 0E 0F
      -- -- -- -- -- -- -- --  -- -- -- -- -- -- -- --
0400: 5B 03 80 F8 FF FF 7F F8  FF FF 7F 64 73 6B 31 53  [..........dsk1S
0410: F8 FF FF 7F F8 FF FF 7F  64 73 6B 31 32 08 80 1F  ........dsk12...
0420: 00 09 80 0A 80 0B 80 1F  01 1F 00 0C 80 0D 80 0B  ................
0430: 80 1F 01 6F 00                                    ...o.           
```

#### Opcodes

```
  0: 0x0400 [0x5B] LOAD_EXT_SCHEDULER: Load scheduler "dsk1" with entities [EventEntity, EventEntity], work=834*
  1: 0x040F [0x53] WAIT_SCHEDULER_TASK: Wait for scheduler "dsk1" with entities [EventEntity, EventEntity]
  2: 0x041C [0x32] ExtData[1]->MainSpeed = 11* * 0.1
  3: 0x041F [0x1F] MOVE_ENTITY: EventEntity moves to X=22.443*, Z=-43.090*, Y=-7.800*
  4: 0x0427 [0x1F] MOVE_ENTITY: Update entity position (mode=1)
  5: 0x0429 [0x1F] MOVE_ENTITY: EventEntity moves to X=23.925*, Z=-43.195*, Y=-7.800*
  6: 0x0431 [0x1F] MOVE_ENTITY: Update entity position (mode=1)
  7: 0x0433 [0x6F] WAIT_FRAME_DELAY: Yield until WaitTime reaches zero
  8: 0x0434 [0x00] END_REQSTACK()
```

### Event 65535.64

#### Metadata

| Field        | Value    |
|--------------|----------|
| Entrypoint   | 0x0435   |
| Data Size    | 28 bytes |
| Instructions | 8        |

```
      00 01 02 03 04 05 06 07  08 09 0A 0B 0C 0D 0E 0F
      -- -- -- -- -- -- -- --  -- -- -- -- -- -- -- --
0430:                32 08 80  1F 00 0E 80 0F 80 10 80       2..........
0440: 1F 01 6F 4B F8 FF FF 7F  01 80 6F 76 F8 FF FF 7F  ..oK......ov....
0450: 00                                                .               
```

#### Opcodes

```
  0: 0x0435 [0x32] ExtData[1]->MainSpeed = 11* * 0.1
  1: 0x0438 [0x1F] MOVE_ENTITY: EventEntity moves to X=22.700*, Z=-45.591*, Y=-7.804*
  2: 0x0440 [0x1F] MOVE_ENTITY: Update entity position (mode=1)
  3: 0x0442 [0x6F] WAIT_FRAME_DELAY: Yield until WaitTime reaches zero
  4: 0x0443 [0x4B] UPDATE_ENTITY_YAW(entity=EventEntity, yaw=0.0*)
  5: 0x044A [0x6F] WAIT_FRAME_DELAY: Yield until WaitTime reaches zero
  6: 0x044B [0x76] CHECK_ENTITY_RENDER_FLAGS: Wait until EventEntity Render.Flags0 and Render.Flags3 conditions are met
  7: 0x0450 [0x00] END_REQSTACK()
```

### Event 36

#### Metadata

| Field        | Value   |
|--------------|---------|
| Entrypoint   | 0x0451  |
| Data Size    | 1 bytes |
| Instructions | 1       |

```
      00 01 02 03 04 05 06 07  08 09 0A 0B 0C 0D 0E 0F
      -- -- -- -- -- -- -- --  -- -- -- -- -- -- -- --
0450:    00                                              .              
```

#### Opcodes

```
  0: 0x0451 [0x00] END_REQSTACK()
```

### Event 65535.65

#### Metadata

| Field        | Value    |
|--------------|----------|
| Entrypoint   | 0x0452   |
| Data Size    | 10 bytes |
| Instructions | 2        |

```
      00 01 02 03 04 05 06 07  08 09 0A 0B 0C 0D 0E 0F
      -- -- -- -- -- -- -- --  -- -- -- -- -- -- -- --
0450:       37 0C 80 0D 80 0B  80 11 80 00                7.........    
```

#### Opcodes

```
  0: 0x0452 [0x37] UPDATE_EVENT_POSITION_AND_DIR: x=23.925*, z=-43.195*, y=-7.800*, direction=5.9*
  1: 0x045B [0x00] END_REQSTACK()
```

### Event 65535.66

#### Metadata

| Field        | Value    |
|--------------|----------|
| Entrypoint   | 0x045C   |
| Data Size    | 15 bytes |
| Instructions | 5        |

```
      00 01 02 03 04 05 06 07  08 09 0A 0B 0C 0D 0E 0F
      -- -- -- -- -- -- -- --  -- -- -- -- -- -- -- --
0450:                                      32 08 80 1F              2...
0460: 00 12 80 13 80 0B 80 1F  01 6F 00                 .........o.     
```

#### Opcodes

```
  0: 0x045C [0x32] ExtData[1]->MainSpeed = 11* * 0.1
  1: 0x045F [0x1F] MOVE_ENTITY: EventEntity moves to X=26.658*, Z=-43.230*, Y=-7.800*
  2: 0x0467 [0x1F] MOVE_ENTITY: Update entity position (mode=1)
  3: 0x0469 [0x6F] WAIT_FRAME_DELAY: Yield until WaitTime reaches zero
  4: 0x046A [0x00] END_REQSTACK()
```

### Event 65535.67

#### Metadata

| Field        | Value    |
|--------------|----------|
| Entrypoint   | 0x046B   |
| Data Size    | 10 bytes |
| Instructions | 2        |

```
      00 01 02 03 04 05 06 07  08 09 0A 0B 0C 0D 0E 0F
      -- -- -- -- -- -- -- --  -- -- -- -- -- -- -- --
0460:                                   37 0E 80 0F 80             7....
0470: 10 80 01 80 00                                    .....           
```

#### Opcodes

```
  0: 0x046B [0x37] UPDATE_EVENT_POSITION_AND_DIR: x=22.700*, z=-45.591*, y=-7.804*, direction=0.0*
  1: 0x0474 [0x00] END_REQSTACK()
```

### Event 65535.68

#### Metadata

| Field        | Value    |
|--------------|----------|
| Entrypoint   | 0x0475   |
| Data Size    | 10 bytes |
| Instructions | 2        |

```
      00 01 02 03 04 05 06 07  08 09 0A 0B 0C 0D 0E 0F
      -- -- -- -- -- -- -- --  -- -- -- -- -- -- -- --
0470:                37 14 80  15 80 10 80 16 80 00          7......... 
```

#### Opcodes

```
  0: 0x0475 [0x37] UPDATE_EVENT_POSITION_AND_DIR: x=25.495*, z=-43.984*, y=-7.804*, direction=271.4*
  1: 0x047E [0x00] END_REQSTACK()
```

### Event 65535.69

#### Metadata

| Field        | Value    |
|--------------|----------|
| Entrypoint   | 0x047F   |
| Data Size    | 32 bytes |
| Instructions | 4        |

```
      00 01 02 03 04 05 06 07  08 09 0A 0B 0C 0D 0E 0F
      -- -- -- -- -- -- -- --  -- -- -- -- -- -- -- --
0470:                                               1C                 .
0480: 17 80 5B 05 80 8C 20 03  01 8C 20 03 01 67 69 7A  ..[... ... ..giz
0490: 32 53 8C 20 03 01 8C 20  03 01 67 69 7A 32 00     2S. ... ..giz2. 
```

#### Opcodes

```
  0: 0x047F [0x1C] WAIT(150* ticks)
  1: 0x0482 [0x5B] LOAD_EXT_SCHEDULER: Load scheduler "giz2" with entities [Naja Salaheem (ID: 16982156/0x0103208C), Naja Salaheem (ID: 16982156/0x0103208C)], work=836*
  2: 0x0491 [0x53] WAIT_SCHEDULER_TASK: Wait for scheduler "giz2" with entities [Naja Salaheem (ID: 16982156/0x0103208C), Naja Salaheem (ID: 16982156/0x0103208C)]
  3: 0x049E [0x00] END_REQSTACK()
```

### Event 3026

#### Metadata

| Field        | Value    |
|--------------|----------|
| Entrypoint   | 0x049F   |
| Data Size    | 13 bytes |
| Instructions | 3        |

```
      00 01 02 03 04 05 06 07  08 09 0A 0B 0C 0D 0E 0F
      -- -- -- -- -- -- -- --  -- -- -- -- -- -- -- --
0490:                                               92                 .
04A0: 01 F8 FF FF 7F 94 01 F8  FF FF 7F 00              ............    
```

#### Opcodes

```
  0: 0x049F [0x92] EventEntity->Render.Flags3 ^= 0x01
  1: 0x04A5 [0x94] EventEntity->Render.Flags3 ^= 0x01
  2: 0x04AB [0x00] END_REQSTACK()
```

### Event 3033

#### Metadata

| Field        | Value    |
|--------------|----------|
| Entrypoint   | 0x04AC   |
| Data Size    | 13 bytes |
| Instructions | 3        |

```
      00 01 02 03 04 05 06 07  08 09 0A 0B 0C 0D 0E 0F
      -- -- -- -- -- -- -- --  -- -- -- -- -- -- -- --
04A0:                                      92 01 F8 FF              ....
04B0: FF 7F 94 01 F8 FF FF 7F  00                       .........       
```

#### Opcodes

```
  0: 0x04AC [0x92] EventEntity->Render.Flags3 ^= 0x01
  1: 0x04B2 [0x94] EventEntity->Render.Flags3 ^= 0x01
  2: 0x04B8 [0x00] END_REQSTACK()
```

### Event 65535.70

#### Metadata

| Field        | Value    |
|--------------|----------|
| Entrypoint   | 0x04B9   |
| Data Size    | 50 bytes |
| Instructions | 6        |

```
      00 01 02 03 04 05 06 07  08 09 0A 0B 0C 0D 0E 0F
      -- -- -- -- -- -- -- --  -- -- -- -- -- -- -- --
04B0:                             1C 18 80 5B 04 80 8C           ...[...
04C0: 20 03 01 8C 20 03 01 68  61 70 30 1C 19 80 5B 04   ... ..hap0...[.
04D0: 80 8C 20 03 01 8C 20 03  01 68 61 70 72 53 8C 20  .. ... ..haprS. 
04E0: 03 01 8C 20 03 01 68 61  70 72 00                 ... ..hapr.     
```

#### Opcodes

```
  0: 0x04B9 [0x1C] WAIT(20* ticks)
  1: 0x04BC [0x5B] LOAD_EXT_SCHEDULER: Load scheduler "hap0" with entities [Naja Salaheem (ID: 16982156/0x0103208C), Naja Salaheem (ID: 16982156/0x0103208C)], work=835*
  2: 0x04CB [0x1C] WAIT(30* ticks)
  3: 0x04CE [0x5B] LOAD_EXT_SCHEDULER: Load scheduler "hapr" with entities [Naja Salaheem (ID: 16982156/0x0103208C), Naja Salaheem (ID: 16982156/0x0103208C)], work=835*
  4: 0x04DD [0x53] WAIT_SCHEDULER_TASK: Wait for scheduler "hapr" with entities [Naja Salaheem (ID: 16982156/0x0103208C), Naja Salaheem (ID: 16982156/0x0103208C)]
  5: 0x04EA [0x00] END_REQSTACK()
```

### Event 65535.71

#### Metadata

| Field        | Value    |
|--------------|----------|
| Entrypoint   | 0x04EB   |
| Data Size    | 64 bytes |
| Instructions | 6        |

```
      00 01 02 03 04 05 06 07  08 09 0A 0B 0C 0D 0E 0F
      -- -- -- -- -- -- -- --  -- -- -- -- -- -- -- --
04E0:                                   5B 02 80 8C 20             [... 
04F0: 03 01 8C 20 03 01 74 6C  6B 30 1C 18 80 45 1A 80  ... ..tlk0...E..
0500: 8C 20 03 01 8C 20 03 01  73 75 74 65 01 80 5B 02  . ... ..sute..[.
0510: 80 8C 20 03 01 8C 20 03  01 74 6C 6B 31 53 8C 20  .. ... ..tlk1S. 
0520: 03 01 8C 20 03 01 74 6C  6B 31 00                 ... ..tlk1.     
```

#### Opcodes

```
  0: 0x04EB [0x5B] LOAD_EXT_SCHEDULER: Load scheduler "tlk0" with entities [Naja Salaheem (ID: 16982156/0x0103208C), Naja Salaheem (ID: 16982156/0x0103208C)], work=833*
  1: 0x04FA [0x1C] WAIT(20* ticks)
  2: 0x04FD [0x45] LOAD_SCHEDULED_TASK: Load scheduler "sute" with entities [Naja Salaheem (ID: 16982156/0x0103208C), Naja Salaheem (ID: 16982156/0x0103208C)], work=[272*, 0*]
  3: 0x050E [0x5B] LOAD_EXT_SCHEDULER: Load scheduler "tlk1" with entities [Naja Salaheem (ID: 16982156/0x0103208C), Naja Salaheem (ID: 16982156/0x0103208C)], work=833*
  4: 0x051D [0x53] WAIT_SCHEDULER_TASK: Wait for scheduler "tlk1" with entities [Naja Salaheem (ID: 16982156/0x0103208C), Naja Salaheem (ID: 16982156/0x0103208C)]
  5: 0x052A [0x00] END_REQSTACK()
```

### Event 65535.72

#### Metadata

| Field        | Value    |
|--------------|----------|
| Entrypoint   | 0x052B   |
| Data Size    | 10 bytes |
| Instructions | 2        |

```
      00 01 02 03 04 05 06 07  08 09 0A 0B 0C 0D 0E 0F
      -- -- -- -- -- -- -- --  -- -- -- -- -- -- -- --
0520:                                   37 0E 80 0F 80             7....
0530: 10 80 01 80 00                                    .....           
```

#### Opcodes

```
  0: 0x052B [0x37] UPDATE_EVENT_POSITION_AND_DIR: x=22.700*, z=-45.591*, y=-7.804*, direction=0.0*
  1: 0x0534 [0x00] END_REQSTACK()
```

### Event 65535.73

#### Metadata

| Field        | Value    |
|--------------|----------|
| Entrypoint   | 0x0535   |
| Data Size    | 25 bytes |
| Instructions | 7        |

```
      00 01 02 03 04 05 06 07  08 09 0A 0B 0C 0D 0E 0F
      -- -- -- -- -- -- -- --  -- -- -- -- -- -- -- --
0530:                32 1B 80  1F 00 1C 80 1D 80 10 80       2..........
0540: 1F 01 1F 00 1E 80 1F 80  10 80 1F 01 6F 00        ............o.  
```

#### Opcodes

```
  0: 0x0535 [0x32] ExtData[1]->MainSpeed = 10* * 0.1
  1: 0x0538 [0x1F] MOVE_ENTITY: EventEntity moves to X=24.845*, Z=-43.721*, Y=-7.804*
  2: 0x0540 [0x1F] MOVE_ENTITY: Update entity position (mode=1)
  3: 0x0542 [0x1F] MOVE_ENTITY: EventEntity moves to X=22.618*, Z=-43.739*, Y=-7.804*
  4: 0x054A [0x1F] MOVE_ENTITY: Update entity position (mode=1)
  5: 0x054C [0x6F] WAIT_FRAME_DELAY: Yield until WaitTime reaches zero
  6: 0x054D [0x00] END_REQSTACK()
```

### Event 65535.74

#### Metadata

| Field        | Value     |
|--------------|-----------|
| Entrypoint   | 0x054E    |
| Data Size    | 110 bytes |
| Instructions | 9         |

```
      00 01 02 03 04 05 06 07  08 09 0A 0B 0C 0D 0E 0F
      -- -- -- -- -- -- -- --  -- -- -- -- -- -- -- --
0540:                                            5B 04                [.
0550: 80 8C 20 03 01 8C 20 03  01 68 61 70 31 53 8C 20  .. ... ..hap1S. 
0560: 03 01 8C 20 03 01 68 61  70 31 5B 04 80 8C 20 03  ... ..hap1[... .
0570: 01 8C 20 03 01 68 61 70  72 81 01 8C 20 03 01 53  .. ..hapr... ..S
0580: 8C 20 03 01 8C 20 03 01  68 61 70 72 5B 04 80 8C  . ... ..hapr[...
0590: 20 03 01 8C 20 03 01 70  61 73 30 52 20 80 F0 FF   ... ..pas0R ...
05A0: FF 7F F0 FF FF 7F 31 63  39 38 45 20 80 F0 FF FF  ......1c98E ....
05B0: 7F F0 FF FF 7F 31 63 30  34 01 80 00              .....1c04...    
```

#### Opcodes

```
  0: 0x054E [0x5B] LOAD_EXT_SCHEDULER: Load scheduler "hap1" with entities [Naja Salaheem (ID: 16982156/0x0103208C), Naja Salaheem (ID: 16982156/0x0103208C)], work=835*
  1: 0x055D [0x53] WAIT_SCHEDULER_TASK: Wait for scheduler "hap1" with entities [Naja Salaheem (ID: 16982156/0x0103208C), Naja Salaheem (ID: 16982156/0x0103208C)]
  2: 0x056A [0x5B] LOAD_EXT_SCHEDULER: Load scheduler "hapr" with entities [Naja Salaheem (ID: 16982156/0x0103208C), Naja Salaheem (ID: 16982156/0x0103208C)], work=835*
  3: 0x0579 [0x81] SET_ENTITY_BLINKING(blink_flag=0x01, entity=Naja Salaheem (ID: 16982156/0x0103208C))
  4: 0x057F [0x53] WAIT_SCHEDULER_TASK: Wait for scheduler "hapr" with entities [Naja Salaheem (ID: 16982156/0x0103208C), Naja Salaheem (ID: 16982156/0x0103208C)]
  5: 0x058C [0x5B] LOAD_EXT_SCHEDULER: Load scheduler "pas0" with entities [Naja Salaheem (ID: 16982156/0x0103208C), Naja Salaheem (ID: 16982156/0x0103208C)], work=835*
  6: 0x059B [0x52] END_LOAD_SCHEDULER: End scheduler "1c98" with entities [LocalPlayer, LocalPlayer], work=258*
  7: 0x05AA [0x45] LOAD_SCHEDULED_TASK: Load scheduler "1c04" with entities [LocalPlayer, LocalPlayer], work=[258*, 0*]
  8: 0x05BB [0x00] END_REQSTACK()
```

### Event 5030

#### Metadata

| Field        | Value   |
|--------------|---------|
| Entrypoint   | 0x05BC  |
| Data Size    | 1 bytes |
| Instructions | 1       |

```
      00 01 02 03 04 05 06 07  08 09 0A 0B 0C 0D 0E 0F
      -- -- -- -- -- -- -- --  -- -- -- -- -- -- -- --
05B0:                                      00                       .   
```

#### Opcodes

```
  0: 0x05BC [0x00] END_REQSTACK()
```

### Event 5031

#### Metadata

| Field        | Value   |
|--------------|---------|
| Entrypoint   | 0x05BD  |
| Data Size    | 1 bytes |
| Instructions | 1       |

```
      00 01 02 03 04 05 06 07  08 09 0A 0B 0C 0D 0E 0F
      -- -- -- -- -- -- -- --  -- -- -- -- -- -- -- --
05B0:                                         00                     .  
```

#### Opcodes

```
  0: 0x05BD [0x00] END_REQSTACK()
```

### Event 5045

#### Metadata

| Field        | Value   |
|--------------|---------|
| Entrypoint   | 0x05BE  |
| Data Size    | 1 bytes |
| Instructions | 1       |

```
      00 01 02 03 04 05 06 07  08 09 0A 0B 0C 0D 0E 0F
      -- -- -- -- -- -- -- --  -- -- -- -- -- -- -- --
05B0:                                            00                   . 
```

#### Opcodes

```
  0: 0x05BE [0x00] END_REQSTACK()
```

### Event 5046

#### Metadata

| Field        | Value   |
|--------------|---------|
| Entrypoint   | 0x05BF  |
| Data Size    | 1 bytes |
| Instructions | 1       |

```
      00 01 02 03 04 05 06 07  08 09 0A 0B 0C 0D 0E 0F
      -- -- -- -- -- -- -- --  -- -- -- -- -- -- -- --
05B0:                                               00                 .
```

#### Opcodes

```
  0: 0x05BF [0x00] END_REQSTACK()
```

### Event 5047

#### Metadata

| Field        | Value    |
|--------------|----------|
| Entrypoint   | 0x05C0   |
| Data Size    | 38 bytes |
| Instructions | 12       |

```
      00 01 02 03 04 05 06 07  08 09 0A 0B 0C 0D 0E 0F
      -- -- -- -- -- -- -- --  -- -- -- -- -- -- -- --
05C0: 1E F0 FF FF 7F 6F 70 2B  8C 20 03 01 21 80 23 2B  .....op+. ..!.#+
05D0: 8C 20 03 01 22 80 23 03  02 10 23 80 2B 8C 20 03  . ..".#...#.+. .
05E0: 01 24 80 23 21 00                                 .$.#!.          
```

#### Opcodes

```
  0: 0x05C0 [0x1E] EventEntity looks at LocalPlayer and starts talking
  1: 0x05C5 [0x6F] WAIT_FRAME_DELAY: Yield until WaitTime reaches zero
  2: 0x05C6 [0x70] WAIT_ENTITY_RENDER_FLAG: Wait while EventEntity->Render.Flags3 bit 2 is set (cancel turn if not)
  3: 0x05C7 [0x2B] Naja Salaheem (ID: 16982156/0x0103208C) [6736*]:
     "The Dark Rider has been most frequently sighted in the Wajaom Woodlands, the Bhaflau Thickets, Mount Zhayolm, and Caedarva Mire."
  4: 0x05CE [0x23] WAIT_FOR_DIALOG_INTERACTION
  5: 0x05CF [0x2B] Naja Salaheem (ID: 16982156/0x0103208C) [6737*]:
     "You should be able to find a hoofprint in one of those areas."
  6: 0x05D6 [0x23] WAIT_FOR_DIALOG_INTERACTION
  7: 0x05D7 [0x03] Work_Zone[2] = 824*
  8: 0x05DC [0x2B] Naja Salaheem (ID: 16982156/0x0103208C) [6738*]:
     "Now go put that $3 wherever you find a Dark Rider hoofprint!"
  9: 0x05E3 [0x23] WAIT_FOR_DIALOG_INTERACTION
 10: 0x05E4 [0x21] END_EVENT
 11: 0x05E5 [0x00] END_REQSTACK()
```

### Event 65535.75

#### Metadata

| Field        | Value    |
|--------------|----------|
| Entrypoint   | 0x05E6   |
| Data Size    | 47 bytes |
| Instructions | 5        |

```
      00 01 02 03 04 05 06 07  08 09 0A 0B 0C 0D 0E 0F
      -- -- -- -- -- -- -- --  -- -- -- -- -- -- -- --
05E0:                   5B 02  80 8C 20 03 01 8C 20 03        [... ... .
05F0: 01 74 6C 6B 30 1C 18 80  5B 02 80 8C 20 03 01 8C  .tlk0...[... ...
0600: 20 03 01 74 6C 6B 31 53  8C 20 03 01 8C 20 03 01   ..tlk1S. ... ..
0610: 74 6C 6B 31 00                                    tlk1.           
```

#### Opcodes

```
  0: 0x05E6 [0x5B] LOAD_EXT_SCHEDULER: Load scheduler "tlk0" with entities [Naja Salaheem (ID: 16982156/0x0103208C), Naja Salaheem (ID: 16982156/0x0103208C)], work=833*
  1: 0x05F5 [0x1C] WAIT(20* ticks)
  2: 0x05F8 [0x5B] LOAD_EXT_SCHEDULER: Load scheduler "tlk1" with entities [Naja Salaheem (ID: 16982156/0x0103208C), Naja Salaheem (ID: 16982156/0x0103208C)], work=833*
  3: 0x0607 [0x53] WAIT_SCHEDULER_TASK: Wait for scheduler "tlk1" with entities [Naja Salaheem (ID: 16982156/0x0103208C), Naja Salaheem (ID: 16982156/0x0103208C)]
  4: 0x0614 [0x00] END_REQSTACK()
```

### Event 65535.76

#### Metadata

| Field        | Value    |
|--------------|----------|
| Entrypoint   | 0x0615   |
| Data Size    | 10 bytes |
| Instructions | 2        |

```
      00 01 02 03 04 05 06 07  08 09 0A 0B 0C 0D 0E 0F
      -- -- -- -- -- -- -- --  -- -- -- -- -- -- -- --
0610:                37 25 80  26 80 10 80 27 80 00          7%.&...'.. 
```

#### Opcodes

```
  0: 0x0615 [0x37] UPDATE_EVENT_POSITION_AND_DIR: x=28.537*, z=-46.722*, y=-7.804*, direction=198.5*
  1: 0x061E [0x00] END_REQSTACK()
```

### Event 65535.77

#### Metadata

| Field        | Value    |
|--------------|----------|
| Entrypoint   | 0x061F   |
| Data Size    | 10 bytes |
| Instructions | 2        |

```
      00 01 02 03 04 05 06 07  08 09 0A 0B 0C 0D 0E 0F
      -- -- -- -- -- -- -- --  -- -- -- -- -- -- -- --
0610:                                               37                 7
0620: 28 80 29 80 2A 80 2B 80  00                       (.).*.+..       
```

#### Opcodes

```
  0: 0x061F [0x37] UPDATE_EVENT_POSITION_AND_DIR: x=34.983*, z=-42.909*, y=-7.199*, direction=90.0*
  1: 0x0628 [0x00] END_REQSTACK()
```

### Event 65535.78

#### Metadata

| Field        | Value    |
|--------------|----------|
| Entrypoint   | 0x0629   |
| Data Size    | 15 bytes |
| Instructions | 5        |

```
      00 01 02 03 04 05 06 07  08 09 0A 0B 0C 0D 0E 0F
      -- -- -- -- -- -- -- --  -- -- -- -- -- -- -- --
0620:                             32 08 80 1F 00 2C 80           2....,.
0630: 2D 80 2E 80 1F 01 6F 00                           -.....o.        
```

#### Opcodes

```
  0: 0x0629 [0x32] ExtData[1]->MainSpeed = 11* * 0.1
  1: 0x062C [0x1F] MOVE_ENTITY: EventEntity moves to X=34.995*, Z=-43.604*, Y=-7.203*
  2: 0x0634 [0x1F] MOVE_ENTITY: Update entity position (mode=1)
  3: 0x0636 [0x6F] WAIT_FRAME_DELAY: Yield until WaitTime reaches zero
  4: 0x0637 [0x00] END_REQSTACK()
```

### Event 65535.79

#### Metadata

| Field        | Value    |
|--------------|----------|
| Entrypoint   | 0x0638   |
| Data Size    | 10 bytes |
| Instructions | 2        |

```
      00 01 02 03 04 05 06 07  08 09 0A 0B 0C 0D 0E 0F
      -- -- -- -- -- -- -- --  -- -- -- -- -- -- -- --
0630:                          37 2F 80 30 80 31 80 32          7/.0.1.2
0640: 80 00                                             ..              
```

#### Opcodes

```
  0: 0x0638 [0x37] UPDATE_EVENT_POSITION_AND_DIR: x=142.728*, z=0.094*, y=-2.000*, direction=1.1*
  1: 0x0641 [0x00] END_REQSTACK()
```

### Event 65535.80

#### Metadata

| Field        | Value    |
|--------------|----------|
| Entrypoint   | 0x0642   |
| Data Size    | 15 bytes |
| Instructions | 5        |

```
      00 01 02 03 04 05 06 07  08 09 0A 0B 0C 0D 0E 0F
      -- -- -- -- -- -- -- --  -- -- -- -- -- -- -- --
0640:       32 33 80 1F 00 34  80 18 80 31 80 1F 01 6F    23...4...1...o
0650: 00                                                .               
```

#### Opcodes

```
  0: 0x0642 [0x32] ExtData[1]->MainSpeed = 12* * 0.1
  1: 0x0645 [0x1F] MOVE_ENTITY: EventEntity moves to X=146.413*, Z=0.020*, Y=-2.000*
  2: 0x064D [0x1F] MOVE_ENTITY: Update entity position (mode=1)
  3: 0x064F [0x6F] WAIT_FRAME_DELAY: Yield until WaitTime reaches zero
  4: 0x0650 [0x00] END_REQSTACK()
```

### Event 65535.81

#### Metadata

| Field        | Value    |
|--------------|----------|
| Entrypoint   | 0x0651   |
| Data Size    | 15 bytes |
| Instructions | 5        |

```
      00 01 02 03 04 05 06 07  08 09 0A 0B 0C 0D 0E 0F
      -- -- -- -- -- -- -- --  -- -- -- -- -- -- -- --
0650:    32 08 80 1F 00 35 80  36 80 31 80 1F 01 6F 00   2....5.6.1...o.
```

#### Opcodes

```
  0: 0x0651 [0x32] ExtData[1]->MainSpeed = 11* * 0.1
  1: 0x0654 [0x1F] MOVE_ENTITY: EventEntity moves to X=147.695*, Z=-0.077*, Y=-2.000*
  2: 0x065C [0x1F] MOVE_ENTITY: Update entity position (mode=1)
  3: 0x065E [0x6F] WAIT_FRAME_DELAY: Yield until WaitTime reaches zero
  4: 0x065F [0x00] END_REQSTACK()
```

### Event 65535.82

#### Metadata

| Field        | Value    |
|--------------|----------|
| Entrypoint   | 0x0660   |
| Data Size    | 15 bytes |
| Instructions | 5        |

```
      00 01 02 03 04 05 06 07  08 09 0A 0B 0C 0D 0E 0F
      -- -- -- -- -- -- -- --  -- -- -- -- -- -- -- --
0660: 32 08 80 1F 00 37 80 38  80 39 80 1F 01 6F 00     2....7.8.9...o. 
```

#### Opcodes

```
  0: 0x0660 [0x32] ExtData[1]->MainSpeed = 11* * 0.1
  1: 0x0663 [0x1F] MOVE_ENTITY: EventEntity moves to X=151.267*, Z=-0.012*, Y=-2.199*
  2: 0x066B [0x1F] MOVE_ENTITY: Update entity position (mode=1)
  3: 0x066D [0x6F] WAIT_FRAME_DELAY: Yield until WaitTime reaches zero
  4: 0x066E [0x00] END_REQSTACK()
```

### Event 65535.83

#### Metadata

| Field        | Value    |
|--------------|----------|
| Entrypoint   | 0x066F   |
| Data Size    | 10 bytes |
| Instructions | 2        |

```
      00 01 02 03 04 05 06 07  08 09 0A 0B 0C 0D 0E 0F
      -- -- -- -- -- -- -- --  -- -- -- -- -- -- -- --
0660:                                               37                 7
0670: 3A 80 3B 80 01 80 3C 80  00                       :.;...<..       
```

#### Opcodes

```
  0: 0x066F [0x37] UPDATE_EVENT_POSITION_AND_DIR: x=-0.792*, z=46.274*, y=0.000*, direction=270.0*
  1: 0x0678 [0x00] END_REQSTACK()
```

### Event 65535.84

#### Metadata

| Field        | Value    |
|--------------|----------|
| Entrypoint   | 0x0679   |
| Data Size    | 10 bytes |
| Instructions | 2        |

```
      00 01 02 03 04 05 06 07  08 09 0A 0B 0C 0D 0E 0F
      -- -- -- -- -- -- -- --  -- -- -- -- -- -- -- --
0670:                             37 3D 80 3E 80 31 80           7=.>.1.
0680: 3F 80 00                                          ?..             
```

#### Opcodes

```
  0: 0x0679 [0x37] UPDATE_EVENT_POSITION_AND_DIR: x=147.859*, z=-0.115*, y=-2.000*, direction=180.8*
  1: 0x0682 [0x00] END_REQSTACK()
```

### Event 65535.85

#### Metadata

| Field        | Value    |
|--------------|----------|
| Entrypoint   | 0x0683   |
| Data Size    | 15 bytes |
| Instructions | 5        |

```
      00 01 02 03 04 05 06 07  08 09 0A 0B 0C 0D 0E 0F
      -- -- -- -- -- -- -- --  -- -- -- -- -- -- -- --
0680:          32 1B 80 1F 00  40 80 41 80 31 80 1F 01     2....@.A.1...
0690: 6F 00                                             o.              
```

#### Opcodes

```
  0: 0x0683 [0x32] ExtData[1]->MainSpeed = 10* * 0.1
  1: 0x0686 [0x1F] MOVE_ENTITY: EventEntity moves to X=145.282*, Z=0.178*, Y=-2.000*
  2: 0x068E [0x1F] MOVE_ENTITY: Update entity position (mode=1)
  3: 0x0690 [0x6F] WAIT_FRAME_DELAY: Yield until WaitTime reaches zero
  4: 0x0691 [0x00] END_REQSTACK()
```

### Event 65535.86

#### Metadata

| Field        | Value    |
|--------------|----------|
| Entrypoint   | 0x0692   |
| Data Size    | 10 bytes |
| Instructions | 2        |

```
      00 01 02 03 04 05 06 07  08 09 0A 0B 0C 0D 0E 0F
      -- -- -- -- -- -- -- --  -- -- -- -- -- -- -- --
0690:       37 42 80 43 80 31  80 44 80 00                7B.C.1.D..    
```

#### Opcodes

```
  0: 0x0692 [0x37] UPDATE_EVENT_POSITION_AND_DIR: x=141.120*, z=-0.961*, y=-2.000*, direction=158.8*
  1: 0x069B [0x00] END_REQSTACK()
```

### Event 65535.87

#### Metadata

| Field        | Value    |
|--------------|----------|
| Entrypoint   | 0x069C   |
| Data Size    | 15 bytes |
| Instructions | 5        |

```
      00 01 02 03 04 05 06 07  08 09 0A 0B 0C 0D 0E 0F
      -- -- -- -- -- -- -- --  -- -- -- -- -- -- -- --
0690:                                      32 08 80 1F              2...
06A0: 00 42 80 43 80 31 80 1F  01 6F 00                 .B.C.1...o.     
```

#### Opcodes

```
  0: 0x069C [0x32] ExtData[1]->MainSpeed = 11* * 0.1
  1: 0x069F [0x1F] MOVE_ENTITY: EventEntity moves to X=141.120*, Z=-0.961*, Y=-2.000*
  2: 0x06A7 [0x1F] MOVE_ENTITY: Update entity position (mode=1)
  3: 0x06A9 [0x6F] WAIT_FRAME_DELAY: Yield until WaitTime reaches zero
  4: 0x06AA [0x00] END_REQSTACK()
```

### Event 65535.88

#### Metadata

| Field        | Value    |
|--------------|----------|
| Entrypoint   | 0x06AB   |
| Data Size    | 15 bytes |
| Instructions | 5        |

```
      00 01 02 03 04 05 06 07  08 09 0A 0B 0C 0D 0E 0F
      -- -- -- -- -- -- -- --  -- -- -- -- -- -- -- --
06A0:                                   32 08 80 1F 00             2....
06B0: 45 80 46 80 47 80 1F 01  6F 00                    E.F.G...o.      
```

#### Opcodes

```
  0: 0x06AB [0x32] ExtData[1]->MainSpeed = 11* * 0.1
  1: 0x06AE [0x1F] MOVE_ENTITY: EventEntity moves to X=134.148*, Z=-2.415*, Y=-1.561*
  2: 0x06B6 [0x1F] MOVE_ENTITY: Update entity position (mode=1)
  3: 0x06B8 [0x6F] WAIT_FRAME_DELAY: Yield until WaitTime reaches zero
  4: 0x06B9 [0x00] END_REQSTACK()
```

### Event 5048

#### Metadata

| Field        | Value   |
|--------------|---------|
| Entrypoint   | 0x06BA  |
| Data Size    | 1 bytes |
| Instructions | 1       |

```
      00 01 02 03 04 05 06 07  08 09 0A 0B 0C 0D 0E 0F
      -- -- -- -- -- -- -- --  -- -- -- -- -- -- -- --
06B0:                                00                           .     
```

#### Opcodes

```
  0: 0x06BA [0x00] END_REQSTACK()
```

### Event 5049

#### Metadata

| Field        | Value   |
|--------------|---------|
| Entrypoint   | 0x06BB  |
| Data Size    | 1 bytes |
| Instructions | 1       |

```
      00 01 02 03 04 05 06 07  08 09 0A 0B 0C 0D 0E 0F
      -- -- -- -- -- -- -- --  -- -- -- -- -- -- -- --
06B0:                                   00                         .    
```

#### Opcodes

```
  0: 0x06BB [0x00] END_REQSTACK()
```

### Event 5050

#### Metadata

| Field        | Value   |
|--------------|---------|
| Entrypoint   | 0x06BC  |
| Data Size    | 1 bytes |
| Instructions | 1       |

```
      00 01 02 03 04 05 06 07  08 09 0A 0B 0C 0D 0E 0F
      -- -- -- -- -- -- -- --  -- -- -- -- -- -- -- --
06B0:                                      00                       .   
```

#### Opcodes

```
  0: 0x06BC [0x00] END_REQSTACK()
```

### Event 5051

#### Metadata

| Field        | Value   |
|--------------|---------|
| Entrypoint   | 0x06BD  |
| Data Size    | 1 bytes |
| Instructions | 1       |

```
      00 01 02 03 04 05 06 07  08 09 0A 0B 0C 0D 0E 0F
      -- -- -- -- -- -- -- --  -- -- -- -- -- -- -- --
06B0:                                         00                     .  
```

#### Opcodes

```
  0: 0x06BD [0x00] END_REQSTACK()
```

### Event 5052

#### Metadata

| Field        | Value   |
|--------------|---------|
| Entrypoint   | 0x06BE  |
| Data Size    | 1 bytes |
| Instructions | 1       |

```
      00 01 02 03 04 05 06 07  08 09 0A 0B 0C 0D 0E 0F
      -- -- -- -- -- -- -- --  -- -- -- -- -- -- -- --
06B0:                                            00                   . 
```

#### Opcodes

```
  0: 0x06BE [0x00] END_REQSTACK()
```

### Event 5053

#### Metadata

| Field        | Value   |
|--------------|---------|
| Entrypoint   | 0x06BF  |
| Data Size    | 1 bytes |
| Instructions | 1       |

```
      00 01 02 03 04 05 06 07  08 09 0A 0B 0C 0D 0E 0F
      -- -- -- -- -- -- -- --  -- -- -- -- -- -- -- --
06B0:                                               00                 .
```

#### Opcodes

```
  0: 0x06BF [0x00] END_REQSTACK()
```

### Event 5054

#### Metadata

| Field        | Value   |
|--------------|---------|
| Entrypoint   | 0x06C0  |
| Data Size    | 1 bytes |
| Instructions | 1       |

```
      00 01 02 03 04 05 06 07  08 09 0A 0B 0C 0D 0E 0F
      -- -- -- -- -- -- -- --  -- -- -- -- -- -- -- --
06C0: 00                                                .               
```

#### Opcodes

```
  0: 0x06C0 [0x00] END_REQSTACK()
```

### Event 5055

#### Metadata

| Field        | Value   |
|--------------|---------|
| Entrypoint   | 0x06C1  |
| Data Size    | 1 bytes |
| Instructions | 1       |

```
      00 01 02 03 04 05 06 07  08 09 0A 0B 0C 0D 0E 0F
      -- -- -- -- -- -- -- --  -- -- -- -- -- -- -- --
06C0:    00                                              .              
```

#### Opcodes

```
  0: 0x06C1 [0x00] END_REQSTACK()
```

### Event 5057

#### Metadata

| Field        | Value   |
|--------------|---------|
| Entrypoint   | 0x06C2  |
| Data Size    | 1 bytes |
| Instructions | 1       |

```
      00 01 02 03 04 05 06 07  08 09 0A 0B 0C 0D 0E 0F
      -- -- -- -- -- -- -- --  -- -- -- -- -- -- -- --
06C0:       00                                            .             
```

#### Opcodes

```
  0: 0x06C2 [0x00] END_REQSTACK()
```

### Event 65535.89

#### Metadata

| Field        | Value    |
|--------------|----------|
| Entrypoint   | 0x06C3   |
| Data Size    | 31 bytes |
| Instructions | 9        |

```
      00 01 02 03 04 05 06 07  08 09 0A 0B 0C 0D 0E 0F
      -- -- -- -- -- -- -- --  -- -- -- -- -- -- -- --
06C0:          32 08 80 1F 00  48 80 49 80 10 80 1F 01     2....H.I.....
06D0: 6F 1F 00 4A 80 4B 80 10  80 1F 01 6F 1E 8D 20 03  o..J.K.....o.. .
06E0: 01 00                                             ..              
```

#### Opcodes

```
  0: 0x06C3 [0x32] ExtData[1]->MainSpeed = 11* * 0.1
  1: 0x06C6 [0x1F] MOVE_ENTITY: EventEntity moves to X=22.712*, Z=-47.618*, Y=-7.804*
  2: 0x06CE [0x1F] MOVE_ENTITY: Update entity position (mode=1)
  3: 0x06D0 [0x6F] WAIT_FRAME_DELAY: Yield until WaitTime reaches zero
  4: 0x06D1 [0x1F] MOVE_ENTITY: EventEntity moves to X=24.754*, Z=-47.510*, Y=-7.804*
  5: 0x06D9 [0x1F] MOVE_ENTITY: Update entity position (mode=1)
  6: 0x06DB [0x6F] WAIT_FRAME_DELAY: Yield until WaitTime reaches zero
  7: 0x06DC [0x1E] EventEntity looks at Abquhbah (ID: 16982157/0x0103208D) and starts talking
  8: 0x06E1 [0x00] END_REQSTACK()
```

### Event 65535.90

#### Metadata

| Field        | Value    |
|--------------|----------|
| Entrypoint   | 0x06E2   |
| Data Size    | 20 bytes |
| Instructions | 6        |

```
      00 01 02 03 04 05 06 07  08 09 0A 0B 0C 0D 0E 0F
      -- -- -- -- -- -- -- --  -- -- -- -- -- -- -- --
06E0:       32 08 80 1F 00 4C  80 4D 80 10 80 1F 01 6F    2....L.M.....o
06F0: 1E 91 21 03 01 00                                 ..!...          
```

#### Opcodes

```
  0: 0x06E2 [0x32] ExtData[1]->MainSpeed = 11* * 0.1
  1: 0x06E5 [0x1F] MOVE_ENTITY: EventEntity moves to X=25.804*, Z=-45.649*, Y=-7.804*
  2: 0x06ED [0x1F] MOVE_ENTITY: Update entity position (mode=1)
  3: 0x06EF [0x6F] WAIT_FRAME_DELAY: Yield until WaitTime reaches zero
  4: 0x06F0 [0x1E] EventEntity looks at Liliroon (ID: 16982417/0x01032191) and starts talking
  5: 0x06F5 [0x00] END_REQSTACK()
```

### Event 65535.91

#### Metadata

| Field        | Value    |
|--------------|----------|
| Entrypoint   | 0x06F6   |
| Data Size    | 15 bytes |
| Instructions | 5        |

```
      00 01 02 03 04 05 06 07  08 09 0A 0B 0C 0D 0E 0F
      -- -- -- -- -- -- -- --  -- -- -- -- -- -- -- --
06F0:                   32 08  80 1F 00 4E 80 4F 80 10        2....N.O..
0700: 80 1F 01 6F 00                                    ...o.           
```

#### Opcodes

```
  0: 0x06F6 [0x32] ExtData[1]->MainSpeed = 11* * 0.1
  1: 0x06F9 [0x1F] MOVE_ENTITY: EventEntity moves to X=25.613*, Z=-44.259*, Y=-7.804*
  2: 0x0701 [0x1F] MOVE_ENTITY: Update entity position (mode=1)
  3: 0x0703 [0x6F] WAIT_FRAME_DELAY: Yield until WaitTime reaches zero
  4: 0x0704 [0x00] END_REQSTACK()
```

### Event 65535.92

#### Metadata

| Field        | Value    |
|--------------|----------|
| Entrypoint   | 0x0705   |
| Data Size    | 31 bytes |
| Instructions | 9        |

```
      00 01 02 03 04 05 06 07  08 09 0A 0B 0C 0D 0E 0F
      -- -- -- -- -- -- -- --  -- -- -- -- -- -- -- --
0700:                32 08 80  1F 00 50 80 51 80 10 80       2....P.Q...
0710: 1F 01 6F 1F 00 52 80 53  80 10 80 1F 01 6F 1E F0  ..o..R.S.....o..
0720: FF FF 7F 00                                       ....            
```

#### Opcodes

```
  0: 0x0705 [0x32] ExtData[1]->MainSpeed = 11* * 0.1
  1: 0x0708 [0x1F] MOVE_ENTITY: EventEntity moves to X=22.926*, Z=-43.720*, Y=-7.804*
  2: 0x0710 [0x1F] MOVE_ENTITY: Update entity position (mode=1)
  3: 0x0712 [0x6F] WAIT_FRAME_DELAY: Yield until WaitTime reaches zero
  4: 0x0713 [0x1F] MOVE_ENTITY: EventEntity moves to X=24.298*, Z=-43.643*, Y=-7.804*
  5: 0x071B [0x1F] MOVE_ENTITY: Update entity position (mode=1)
  6: 0x071D [0x6F] WAIT_FRAME_DELAY: Yield until WaitTime reaches zero
  7: 0x071E [0x1E] EventEntity looks at LocalPlayer and starts talking
  8: 0x0723 [0x00] END_REQSTACK()
```

### Event 5059

#### Metadata

| Field        | Value     |
|--------------|-----------|
| Entrypoint   | 0x0724    |
| Data Size    | 168 bytes |
| Instructions | 40        |

```
      00 01 02 03 04 05 06 07  08 09 0A 0B 0C 0D 0E 0F
      -- -- -- -- -- -- -- --  -- -- -- -- -- -- -- --
0720:             03 03 00 02  10 03 02 00 05 10 42 1E      ..........B.
0730: F0 FF FF 7F 6F 70 02 02  00 54 80 00 4B 07 03 02  ....op...T..K...
0740: 10 55 80 2B 8C 20 03 01  56 80 23 02 02 00 00 80  .U.+. ..V.#.....
0750: 00 60 07 03 02 10 57 80  2B 8C 20 03 01 56 80 23  .`....W.+. ..V.#
0760: 2B 8C 20 03 01 58 80 23  2B 8C 20 03 01 59 80 23  +. ..X.#+. ..Y.#
0770: 2B 8C 20 03 01 5A 80 23  02 02 00 54 80 00 8D 07  +. ..Z.#...T....
0780: 03 02 10 55 80 2B 8C 20  03 01 5B 80 23 02 02 00  ...U.+. ..[.#...
0790: 00 80 00 A2 07 03 02 10  57 80 2B 8C 20 03 01 5B  ........W.+. ..[
07A0: 80 23 03 02 10 03 00 2B  8C 20 03 01 5C 80 23 2B  .#.....+. ..\.#+
07B0: 8C 20 03 01 5D 80 23 03  02 10 5E 80 48 5F 80 1C  . ..].#...^.H_..
07C0: 60 80 2B 8C 20 03 01 61  80 23 21 00              `.+. ..a.#!.    
```

#### Opcodes

```
  0: 0x0724 [0x03] ExtData[1]->WorkLocal[3] = Work_Zone[2]
  1: 0x0729 [0x03] ExtData[1]->WorkLocal[2] = Work_Zone[5]
  2: 0x072E [0x42] SET_CLI_EVENT_CANCEL_DATA()
  3: 0x072F [0x1E] EventEntity looks at LocalPlayer and starts talking
  4: 0x0734 [0x6F] WAIT_FRAME_DELAY: Yield until WaitTime reaches zero
  5: 0x0735 [0x70] WAIT_ENTITY_RENDER_FLAG: Wait while EventEntity->Render.Flags3 bit 2 is set (cancel turn if not)
  6: 0x0736 [0x02] IF !(ExtData[1]->WorkLocal[2] == 1*) GOTO 0x074B
  7: 0x073E [0x03] Work_Zone[2] = 5573*
  8: 0x0743 [0x2B] Naja Salaheem (ID: 16982156/0x0103208C) [9514*]:
     "Well, if it isn't $0!"
  9: 0x074A [0x23] WAIT_FOR_DIALOG_INTERACTION
 10: 0x074B [0x02] IF !(ExtData[1]->WorkLocal[2] == 2*) GOTO 0x0760
 11: 0x0753 [0x03] Work_Zone[2] = 5578*
 12: 0x0758 [0x2B] Naja Salaheem (ID: 16982156/0x0103208C) [9514*]:
     "Well, if it isn't $0!"
 13: 0x075F [0x23] WAIT_FOR_DIALOG_INTERACTION
 14: 0x0760 [0x2B] Naja Salaheem (ID: 16982156/0x0103208C) [9515*]:
     "Somethin' on your mind, <Player>?"
 15: 0x0767 [0x23] WAIT_FOR_DIALOG_INTERACTION
 16: 0x0768 [0x2B] Naja Salaheem (ID: 16982156/0x0103208C) [9516*]:
     "Ya say ya wanna show how much ya apprrreciate each and every day you work here? Have ya been talkin' to Abquhbah again?"
 17: 0x076F [0x23] WAIT_FOR_DIALOG_INTERACTION
 18: 0x0770 [0x2B] Naja Salaheem (ID: 16982156/0x0103208C) [9517*]:
     "Ya know, I've always prrreferred a perspirin' mercenary to a perceptive mercenary..."
 19: 0x0777 [0x23] WAIT_FOR_DIALOG_INTERACTION
 20: 0x0778 [0x02] IF !(ExtData[1]->WorkLocal[2] == 1*) GOTO 0x078D
 21: 0x0780 [0x03] Work_Zone[2] = 5573*
 22: 0x0785 [0x2B] Naja Salaheem (ID: 16982156/0x0103208C) [9518*]:
     "But I can't fault ya choice in desserts."
 23: 0x078C [0x23] WAIT_FOR_DIALOG_INTERACTION
 24: 0x078D [0x02] IF !(ExtData[1]->WorkLocal[2] == 2*) GOTO 0x07A2
 25: 0x0795 [0x03] Work_Zone[2] = 5578*
 26: 0x079A [0x2B] Naja Salaheem (ID: 16982156/0x0103208C) [9518*]:
     "But I can't fault ya choice in desserts."
 27: 0x07A1 [0x23] WAIT_FOR_DIALOG_INTERACTION
 28: 0x07A2 [0x03] Work_Zone[2] = ExtData[1]->WorkLocal[3]
 29: 0x07A7 [0x2B] Naja Salaheem (ID: 16982156/0x0103208C) [9519*]:
     "Good work[./, Private Second Class./, Private First Class./, Superior Private./, Lance Corporal./, Corporal./, Sergeant./, Sergeant Major./, Chief Sergeant./, Second Lieutenant./, First Lieutenant./, Captain.]"
 30: 0x07AE [0x23] WAIT_FOR_DIALOG_INTERACTION
 31: 0x07AF [0x2B] Naja Salaheem (ID: 16982156/0x0103208C) [9520*]:
     "Now here's a little somethin' from me."
 32: 0x07B6 [0x23] WAIT_FOR_DIALOG_INTERACTION
 33: 0x07B7 [0x03] Work_Zone[2] = 4182*
 34: 0x07BC [0x48] [System] [9521*]:
     "Naja Salaheem hands you $0!"
 35: 0x07BF [0x1C] WAIT(60* ticks)
 36: 0x07C2 [0x2B] Naja Salaheem (ID: 16982156/0x0103208C) [9522*]:
     "Makes your eyes well up with tears of joy, don't it?"
 37: 0x07C9 [0x23] WAIT_FOR_DIALOG_INTERACTION
 38: 0x07CA [0x21] END_EVENT
 39: 0x07CB [0x00] END_REQSTACK()
```

### Event 5060

#### Metadata

| Field        | Value   |
|--------------|---------|
| Entrypoint   | 0x07CC  |
| Data Size    | 1 bytes |
| Instructions | 1       |

```
      00 01 02 03 04 05 06 07  08 09 0A 0B 0C 0D 0E 0F
      -- -- -- -- -- -- -- --  -- -- -- -- -- -- -- --
07C0:                                      00                       .   
```

#### Opcodes

```
  0: 0x07CC [0x00] END_REQSTACK()
```

### Event 5062

#### Metadata

| Field        | Value   |
|--------------|---------|
| Entrypoint   | 0x07CD  |
| Data Size    | 1 bytes |
| Instructions | 1       |

```
      00 01 02 03 04 05 06 07  08 09 0A 0B 0C 0D 0E 0F
      -- -- -- -- -- -- -- --  -- -- -- -- -- -- -- --
07C0:                                         00                     .  
```

#### Opcodes

```
  0: 0x07CD [0x00] END_REQSTACK()
```

### Event 5067

#### Metadata

| Field        | Value   |
|--------------|---------|
| Entrypoint   | 0x07CE  |
| Data Size    | 1 bytes |
| Instructions | 1       |

```
      00 01 02 03 04 05 06 07  08 09 0A 0B 0C 0D 0E 0F
      -- -- -- -- -- -- -- --  -- -- -- -- -- -- -- --
07C0:                                            00                   . 
```

#### Opcodes

```
  0: 0x07CE [0x00] END_REQSTACK()
```

### Event 5068

#### Metadata

| Field        | Value   |
|--------------|---------|
| Entrypoint   | 0x07CF  |
| Data Size    | 1 bytes |
| Instructions | 1       |

```
      00 01 02 03 04 05 06 07  08 09 0A 0B 0C 0D 0E 0F
      -- -- -- -- -- -- -- --  -- -- -- -- -- -- -- --
07C0:                                               00                 .
```

#### Opcodes

```
  0: 0x07CF [0x00] END_REQSTACK()
```

### Event 5063

#### Metadata

| Field        | Value   |
|--------------|---------|
| Entrypoint   | 0x07D0  |
| Data Size    | 1 bytes |
| Instructions | 1       |

```
      00 01 02 03 04 05 06 07  08 09 0A 0B 0C 0D 0E 0F
      -- -- -- -- -- -- -- --  -- -- -- -- -- -- -- --
07D0: 00                                                .               
```

#### Opcodes

```
  0: 0x07D0 [0x00] END_REQSTACK()
```

### Event 5061

#### Metadata

| Field        | Value   |
|--------------|---------|
| Entrypoint   | 0x07D1  |
| Data Size    | 1 bytes |
| Instructions | 1       |

```
      00 01 02 03 04 05 06 07  08 09 0A 0B 0C 0D 0E 0F
      -- -- -- -- -- -- -- --  -- -- -- -- -- -- -- --
07D0:    00                                              .              
```

#### Opcodes

```
  0: 0x07D1 [0x00] END_REQSTACK()
```

### Event 65535.93

#### Metadata

| Field        | Value    |
|--------------|----------|
| Entrypoint   | 0x07D2   |
| Data Size    | 34 bytes |
| Instructions | 8        |

```
      00 01 02 03 04 05 06 07  08 09 0A 0B 0C 0D 0E 0F
      -- -- -- -- -- -- -- --  -- -- -- -- -- -- -- --
07D0:       32 32 80 1F 00 62  80 63 80 64 80 1F 01 1F    22...b.c.d....
07E0: 00 65 80 66 80 2E 80 1F  01 1F 00 67 80 68 80 10  .e.f.......g.h..
07F0: 80 1F 01 00                                       ....            
```

#### Opcodes

```
  0: 0x07D2 [0x32] ExtData[1]->MainSpeed = 13* * 0.1
  1: 0x07D5 [0x1F] MOVE_ENTITY: EventEntity moves to X=36.154*, Z=-55.805*, Y=-6.605*
  2: 0x07DD [0x1F] MOVE_ENTITY: Update entity position (mode=1)
  3: 0x07DF [0x1F] MOVE_ENTITY: EventEntity moves to X=36.472*, Z=-45.723*, Y=-7.203*
  4: 0x07E7 [0x1F] MOVE_ENTITY: Update entity position (mode=1)
  5: 0x07E9 [0x1F] MOVE_ENTITY: EventEntity moves to X=25.494*, Z=-45.774*, Y=-7.804*
  6: 0x07F1 [0x1F] MOVE_ENTITY: Update entity position (mode=1)
  7: 0x07F3 [0x00] END_REQSTACK()
```

### Event 65535.94

#### Metadata

| Field        | Value    |
|--------------|----------|
| Entrypoint   | 0x07F4   |
| Data Size    | 10 bytes |
| Instructions | 2        |

```
      00 01 02 03 04 05 06 07  08 09 0A 0B 0C 0D 0E 0F
      -- -- -- -- -- -- -- --  -- -- -- -- -- -- -- --
07F0:             37 67 80 68  80 10 80 69 80 00            7g.h...i..  
```

#### Opcodes

```
  0: 0x07F4 [0x37] UPDATE_EVENT_POSITION_AND_DIR: x=25.494*, z=-45.774*, y=-7.804*, direction=177.1*
  1: 0x07FD [0x00] END_REQSTACK()
```

### Event 65535.95

#### Metadata

| Field        | Value    |
|--------------|----------|
| Entrypoint   | 0x07FE   |
| Data Size    | 20 bytes |
| Instructions | 6        |

```
      00 01 02 03 04 05 06 07  08 09 0A 0B 0C 0D 0E 0F
      -- -- -- -- -- -- -- --  -- -- -- -- -- -- -- --
07F0:                                            32 32                22
0800: 80 1F 00 6A 80 6B 80 10  80 1F 01 6F 1E 8D 20 03  ...j.k.....o.. .
0810: 01 00                                             ..              
```

#### Opcodes

```
  0: 0x07FE [0x32] ExtData[1]->MainSpeed = 13* * 0.1
  1: 0x0801 [0x1F] MOVE_ENTITY: EventEntity moves to X=28.448*, Z=-45.715*, Y=-7.804*
  2: 0x0809 [0x1F] MOVE_ENTITY: Update entity position (mode=1)
  3: 0x080B [0x6F] WAIT_FRAME_DELAY: Yield until WaitTime reaches zero
  4: 0x080C [0x1E] EventEntity looks at Abquhbah (ID: 16982157/0x0103208D) and starts talking
  5: 0x0811 [0x00] END_REQSTACK()
```

### Event 5064

#### Metadata

| Field        | Value   |
|--------------|---------|
| Entrypoint   | 0x0812  |
| Data Size    | 1 bytes |
| Instructions | 1       |

```
      00 01 02 03 04 05 06 07  08 09 0A 0B 0C 0D 0E 0F
      -- -- -- -- -- -- -- --  -- -- -- -- -- -- -- --
0810:       00                                            .             
```

#### Opcodes

```
  0: 0x0812 [0x00] END_REQSTACK()
```

### Event 5069

#### Metadata

| Field        | Value   |
|--------------|---------|
| Entrypoint   | 0x0813  |
| Data Size    | 1 bytes |
| Instructions | 1       |

```
      00 01 02 03 04 05 06 07  08 09 0A 0B 0C 0D 0E 0F
      -- -- -- -- -- -- -- --  -- -- -- -- -- -- -- --
0810:          00                                          .            
```

#### Opcodes

```
  0: 0x0813 [0x00] END_REQSTACK()
```

### Event 65535.96

#### Metadata

| Field        | Value    |
|--------------|----------|
| Entrypoint   | 0x0814   |
| Data Size    | 15 bytes |
| Instructions | 5        |

```
      00 01 02 03 04 05 06 07  08 09 0A 0B 0C 0D 0E 0F
      -- -- -- -- -- -- -- --  -- -- -- -- -- -- -- --
0810:             32 08 80 1F  00 6C 80 6D 80 6E 80 1F      2....l.m.n..
0820: 01 6F 00                                          .o.             
```

#### Opcodes

```
  0: 0x0814 [0x32] ExtData[1]->MainSpeed = 11* * 0.1
  1: 0x0817 [0x1F] MOVE_ENTITY: EventEntity moves to X=20.258*, Z=-63.682*, Y=-5.999*
  2: 0x081F [0x1F] MOVE_ENTITY: Update entity position (mode=1)
  3: 0x0821 [0x6F] WAIT_FRAME_DELAY: Yield until WaitTime reaches zero
  4: 0x0822 [0x00] END_REQSTACK()
```

### Event 5071

#### Metadata

| Field        | Value   |
|--------------|---------|
| Entrypoint   | 0x0823  |
| Data Size    | 1 bytes |
