# 16982324

## Common Data

| Field            | Value                         |
|------------------|-------------------------------|
| Zone             | Aht Urhgan Whitegate (ID: 50) |
| Block Size       | 19332 bytes                   |
| Total Events     | 17                            |
| References Count | 387                           |

## List of Events

| Event ID              | Entrypoint   |   Size |   Instructions |
|-----------------------|--------------|--------|----------------|
| [65535](#event-65535) | 0x0000       |      1 |              1 |
| [774](#event-774)     | 0x0001       |   2022 |            282 |
| [776](#event-776)     | 0x07E7       |    751 |             93 |
| [778](#event-778)     | 0x0AD6       |    642 |             88 |
| [780](#event-780)     | 0x0D58       |    603 |             81 |
| [782](#event-782)     | 0x0FB3       |    422 |             54 |
| [784](#event-784)     | 0x1159       |    639 |             84 |
| [786](#event-786)     | 0x13D8       |    520 |             69 |
| [789](#event-789)     | 0x15E0       |    733 |            126 |
| [793](#event-793)     | 0x18BD       |    429 |             48 |
| [5048](#event-5048)   | 0x1A6A       |   2074 |            248 |
| [5049](#event-5049)   | 0x2284       |    503 |             59 |
| [5050](#event-5050)   | 0x247B       |   1242 |            156 |
| [5051](#event-5051)   | 0x2955       |    834 |            104 |
| [5052](#event-5052)   | 0x2C97       |    798 |             92 |
| [5053](#event-5053)   | 0x2FB5       |    503 |             61 |
| [5054](#event-5054)   | 0x31AC       |   4983 |            642 |

## DAT References (imed_data)

|   Index | Hex Value   |   Dec Value |
|---------|-------------|-------------|
|       0 | 0x00C8      |         200 |
|       1 | 0x0000      |           0 |
|       2 | 0x0013      |          19 |
|       3 | 0x0078      |         120 |
|       4 | 0x0023      |          35 |
|       5 | 0x16F1      |        5873 |
|       6 | 0x16F2      |        5874 |
|       7 | 0x086A      |        2154 |
|       8 | 0x0020      |          32 |
|       9 | 0x16F3      |        5875 |
|      10 | 0x16F4      |        5876 |
|      11 | 0x16F5      |        5877 |
|      12 | 0x0010      |          16 |
|      13 | 0x0001      |           1 |
|      14 | 0x00A3      |         163 |
|      15 | 0x16F6      |        5878 |
|      16 | 0x16F7      |        5879 |
|      17 | 0x16F8      |        5880 |
|      18 | 0x0027      |          39 |
|      19 | 0x16F9      |        5881 |
|      20 | 0x0018      |          24 |
|      21 | 0x16FA      |        5882 |
|      22 | 0x16FB      |        5883 |
|      23 | 0x0015      |          21 |
|      24 | 0x16FC      |        5884 |
|      25 | 0x16FD      |        5885 |
|      26 | 0x0004      |           4 |
|      27 | 0x16FE      |        5886 |
|      28 | 0x16FF      |        5887 |
|      29 | 0x1700      |        5888 |
|      30 | 0x1701      |        5889 |
|      31 | 0x003C      |          60 |
|      32 | 0x0006      |           6 |
|      33 | 0x005A      |          90 |
|      34 | 0x1702      |        5890 |
|      35 | 0x1703      |        5891 |
|      36 | 0x1704      |        5892 |
|      37 | 0x0014      |          20 |
|      38 | 0x1705      |        5893 |
|      39 | 0x0096      |         150 |
|      40 | 0x1706      |        5894 |
|      41 | 0x1707      |        5895 |
|      42 | 0x00B2      |         178 |
|      43 | 0x1708      |        5896 |
|      44 | 0x1709      |        5897 |
|      45 | 0x170A      |        5898 |
|      46 | 0x170B      |        5899 |
|      47 | 0x0031      |          49 |
|      48 | 0x170C      |        5900 |
|      49 | 0x170D      |        5901 |
|      50 | 0x170E      |        5902 |
|      51 | 0x170F      |        5903 |
|      52 | 0x1710      |        5904 |
|      53 | 0x1711      |        5905 |
|      54 | 0x1712      |        5906 |
|      55 | 0x1713      |        5907 |
|      56 | 0x0002      |           2 |
|      57 | 0x1714      |        5908 |
|      58 | 0x0BEA      |        3050 |
|      59 | 0x1715      |        5909 |
|      60 | 0x1716      |        5910 |
|      61 | 0x1717      |        5911 |
|      62 | 0x1718      |        5912 |
|      63 | 0x1719      |        5913 |
|      64 | 0x171A      |        5914 |
|      65 | 0x171B      |        5915 |
|      66 | 0x0009      |           9 |
|      67 | 0x171C      |        5916 |
|      68 | 0x171E      |        5918 |
|      69 | 0x171F      |        5919 |
|      70 | 0x1720      |        5920 |
|      71 | 0x1721      |        5921 |
|      72 | 0x0007      |           7 |
|      73 | 0x1722      |        5922 |
|      74 | 0x1723      |        5923 |
|      75 | 0x1724      |        5924 |
|      76 | 0x1725      |        5925 |
|      77 | 0x1726      |        5926 |
|      78 | 0x1727      |        5927 |
|      79 | 0x1728      |        5928 |
|      80 | 0x1729      |        5929 |
|      81 | 0x172A      |        5930 |
|      82 | 0x00C9      |         201 |
|      83 | 0x001E      |          30 |
|      84 | 0x011E      |         286 |
|      85 | 0x172B      |        5931 |
|      86 | 0x172C      |        5932 |
|      87 | 0x172D      |        5933 |
|      88 | 0x172E      |        5934 |
|      89 | 0x172F      |        5935 |
|      90 | 0x1730      |        5936 |
|      91 | 0x1731      |        5937 |
|      92 | 0x000B      |          11 |
|      93 | 0x1732      |        5938 |
|      94 | 0x1041      |        4161 |
|      95 | 0x15C2      |        5570 |
|      96 | 0x1733      |        5939 |
|      97 | 0x1734      |        5940 |
|      98 | 0x1735      |        5941 |
|      99 | 0x1737      |        5943 |
|     100 | 0x1738      |        5944 |
|     101 | 0x1739      |        5945 |
|     102 | 0x173A      |        5946 |
|     103 | 0x0024      |          36 |
|     104 | 0x173B      |        5947 |
|     105 | 0x173C      |        5948 |
|     106 | 0x173D      |        5949 |
|     107 | 0x001A      |          26 |
|     108 | 0x173E      |        5950 |
|     109 | 0x173F      |        5951 |
|     110 | 0x1741      |        5953 |
|     111 | 0x1742      |        5954 |
|     112 | 0x1743      |        5955 |
|     113 | 0x1744      |        5956 |
|     114 | 0x1745      |        5957 |
|     115 | 0x1746      |        5958 |
|     116 | 0x1747      |        5959 |
|     117 | 0x00B8      |         184 |
|     118 | 0x1748      |        5960 |
|     119 | 0x1749      |        5961 |
|     120 | 0x0019      |          25 |
|     121 | 0x174A      |        5962 |
|     122 | 0x174B      |        5963 |
|     123 | 0x174C      |        5964 |
|     124 | 0x174D      |        5965 |
|     125 | 0x174E      |        5966 |
|     126 | 0x174F      |        5967 |
|     127 | 0x1750      |        5968 |
|     128 | 0x1751      |        5969 |
|     129 | 0x1752      |        5970 |
|     130 | 0x1754      |        5972 |
|     131 | 0x1755      |        5973 |
|     132 | 0x0353      |         851 |
|     133 | 0x1756      |        5974 |
|     134 | 0x1757      |        5975 |
|     135 | 0x1758      |        5976 |
|     136 | 0x1759      |        5977 |
|     137 | 0x175A      |        5978 |
|     138 | 0x0008      |           8 |
|     139 | 0x175B      |        5979 |
|     140 | 0x1761      |        5985 |
|     141 | 0x003B      |          59 |
|     142 | 0x1762      |        5986 |
|     143 | 0x1763      |        5987 |
|     144 | 0x1764      |        5988 |
|     145 | 0x1765      |        5989 |
|     146 | 0x1766      |        5990 |
|     147 | 0x38BB      |       14523 |
|     148 | 0x3A52      |       14930 |
|     149 | 0x3D46      |       15686 |
|     150 | 0x1768      |        5992 |
|     151 | 0x1769      |        5993 |
|     152 | 0x176A      |        5994 |
|     153 | 0x176B      |        5995 |
|     154 | 0x0312      |         786 |
|     155 | 0x0664      |        1636 |
|     156 | 0x06A3      |        1699 |
|     157 | 0x08F1      |        2289 |
|     158 | 0x088B      |        2187 |
|     159 | 0x176D      |        5997 |
|     160 | 0x176E      |        5998 |
|     161 | 0x176C      |        5996 |
|     162 | 0x02F2      |         754 |
|     163 | 0x0335      |         821 |
|     164 | 0x0868      |        2152 |
|     165 | 0x088A      |        2186 |
|     166 | 0x0003      |           3 |
|     167 | 0x176F      |        5999 |
|     168 | 0x177A      |        6010 |
|     169 | 0x177B      |        6011 |
|     170 | 0x177C      |        6012 |
|     171 | 0x177D      |        6013 |
|     172 | 0x177E      |        6014 |
|     173 | 0x177F      |        6015 |
|     174 | 0x1780      |        6016 |
|     175 | 0x1781      |        6017 |
|     176 | 0x000F      |          15 |
|     177 | 0x1782      |        6018 |
|     178 | 0x0356      |         854 |
|     179 | 0x1783      |        6019 |
|     180 | 0x1784      |        6020 |
|     181 | 0x1785      |        6021 |
|     182 | 0x1786      |        6022 |
|     183 | 0x1787      |        6023 |
|     184 | 0x1788      |        6024 |
|     185 | 0x2433      |        9267 |
|     186 | 0x002D      |          45 |
|     187 | 0x178A      |        6026 |
|     188 | 0x178B      |        6027 |
|     189 | 0x178C      |        6028 |
|     190 | 0x0344      |         836 |
|     191 | 0x178D      |        6029 |
|     192 | 0x178E      |        6030 |
|     193 | 0x6D49      |       27977 |
|     194 | 0xFFFF4447  |  4294919239 |
|     195 | 0xFFFFE188  |  4294959496 |
|     196 | 0x0874      |        2164 |
|     197 | 0x712B      |       28971 |
|     198 | 0xFFFF537B  |  4294923131 |
|     199 | 0xFFFFE184  |  4294959492 |
|     200 | 0x0800      |        2048 |
|     201 | 0xFFFF4D9F  |  4294921631 |
|     202 | 0xFFFF47C3  |  4294920131 |
|     203 | 0x178F      |        6031 |
|     204 | 0x1790      |        6032 |
|     205 | 0x006E      |         110 |
|     206 | 0x1791      |        6033 |
|     207 | 0x1792      |        6034 |
|     208 | 0x1793      |        6035 |
|     209 | 0x1794      |        6036 |
|     210 | 0x1795      |        6037 |
|     211 | 0x1789      |        6025 |
|     212 | 0x0064      |         100 |
|     213 | 0x1796      |        6038 |
|     214 | 0x1797      |        6039 |
|     215 | 0x1798      |        6040 |
|     216 | 0x1799      |        6041 |
|     217 | 0x179A      |        6042 |
|     218 | 0x179B      |        6043 |
|     219 | 0x0342      |         834 |
|     220 | 0x179C      |        6044 |
|     221 | 0x179D      |        6045 |
|     222 | 0x179E      |        6046 |
|     223 | 0x179F      |        6047 |
|     224 | 0x17A0      |        6048 |
|     225 | 0x17A1      |        6049 |
|     226 | 0x17A2      |        6050 |
|     227 | 0xFFFFFD13  |  4294966547 |
|     228 | 0xFFFECE64  |  4294889060 |
|     229 | 0x0BB8      |        3000 |
|     230 | 0x0404      |        1028 |
|     231 | 0xFFFECEC2  |  4294889154 |
|     232 | 0x0B59      |        2905 |
|     233 | 0x07C5      |        1989 |
|     234 | 0xFFFED0CE  |  4294889678 |
|     235 | 0x0911      |        2321 |
|     236 | 0xFFFFF830  |  4294965296 |
|     237 | 0xFFFEDB08  |  4294892296 |
|     238 | 0x0400      |        1024 |
|     239 | 0x07D0      |        2000 |
|     240 | 0x17A3      |        6051 |
|     241 | 0x17A4      |        6052 |
|     242 | 0x17A5      |        6053 |
|     243 | 0x17A6      |        6054 |
|     244 | 0x17A7      |        6055 |
|     245 | 0x17A8      |        6056 |
|     246 | 0x17AA      |        6058 |
|     247 | 0x17AB      |        6059 |
|     248 | 0x17AC      |        6060 |
|     249 | 0x17BF      |        6079 |
|     250 | 0x17C0      |        6080 |
|     251 | 0x8986      |       35206 |
|     252 | 0xFFFF4DE2  |  4294921698 |
|     253 | 0xFFFFE3DD  |  4294960093 |
|     254 | 0x17C1      |        6081 |
|     255 | 0x17C2      |        6082 |
|     256 | 0x17C3      |        6083 |
|     257 | 0x17C4      |        6084 |
|     258 | 0x17C5      |        6085 |
|     259 | 0x17C6      |        6086 |
|     260 | 0x17C7      |        6087 |
|     261 | 0x17C8      |        6088 |
|     262 | 0x0341      |         833 |
|     263 | 0x17C9      |        6089 |
|     264 | 0x17CA      |        6090 |
|     265 | 0x17CB      |        6091 |
|     266 | 0x17CC      |        6092 |
|     267 | 0x17CD      |        6093 |
|     268 | 0x17CE      |        6094 |
|     269 | 0x17CF      |        6095 |
|     270 | 0x17D0      |        6096 |
|     271 | 0x17D1      |        6097 |
|     272 | 0x17D2      |        6098 |
|     273 | 0x17D3      |        6099 |
|     274 | 0x03A1      |         929 |
|     275 | 0x17D4      |        6100 |
|     276 | 0x17D5      |        6101 |
|     277 | 0x17D6      |        6102 |
|     278 | 0x17E8      |        6120 |
|     279 | 0x17E9      |        6121 |
|     280 | 0x17E3      |        6115 |
|     281 | 0x17EA      |        6122 |
|     282 | 0x17EB      |        6123 |
|     283 | 0x17F2      |        6130 |
|     284 | 0x17F3      |        6131 |
|     285 | 0xFFFFFF07  |  4294967047 |
|     286 | 0x05D1      |        1489 |
|     287 | 0x17F4      |        6132 |
|     288 | 0x17F5      |        6133 |
|     289 | 0x17F6      |        6134 |
|     290 | 0x17F7      |        6135 |
|     291 | 0x17F8      |        6136 |
|     292 | 0x17F9      |        6137 |
|     293 | 0x5531      |       21809 |
|     294 | 0xFFFF4AFE  |  4294920958 |
|     295 | 0x0FB5      |        4021 |
|     296 | 0x1808      |        6152 |
|     297 | 0x1809      |        6153 |
|     298 | 0x180A      |        6154 |
|     299 | 0x180F      |        6159 |
|     300 | 0x1810      |        6160 |
|     301 | 0x1811      |        6161 |
|     302 | 0x71F3      |       29171 |
|     303 | 0x1812      |        6162 |
|     304 | 0x1813      |        6163 |
|     305 | 0x1814      |        6164 |
|     306 | 0x1815      |        6165 |
|     307 | 0x1816      |        6166 |
|     308 | 0x1817      |        6167 |
|     309 | 0x1818      |        6168 |
|     310 | 0x1819      |        6169 |
|     311 | 0x181A      |        6170 |
|     312 | 0x181B      |        6171 |
|     313 | 0x000D      |          13 |
|     314 | 0x181C      |        6172 |
|     315 | 0x181D      |        6173 |
|     316 | 0x181E      |        6174 |
|     317 | 0x181F      |        6175 |
|     318 | 0x1820      |        6176 |
|     319 | 0x17AD      |        6061 |
|     320 | 0x17AE      |        6062 |
|     321 | 0x0388      |         904 |
|     322 | 0x037A      |         890 |
|     323 | 0x0005      |           5 |
|     324 | 0x000A      |          10 |
|     325 | 0x17AF      |        6063 |
|     326 | 0x17B0      |        6064 |
|     327 | 0x17B1      |        6065 |
|     328 | 0x17B2      |        6066 |
|     329 | 0x17B3      |        6067 |
|     330 | 0x17B4      |        6068 |
|     331 | 0x17B6      |        6070 |
|     332 | 0x17B9      |        6073 |
|     333 | 0x17BB      |        6075 |
|     334 | 0x17BC      |        6076 |
|     335 | 0x17BD      |        6077 |
|     336 | 0x17BE      |        6078 |
|     337 | 0x17B5      |        6069 |
|     338 | 0x17B7      |        6071 |
|     339 | 0x17B8      |        6072 |
|     340 | 0x17BA      |        6074 |
|     341 | 0x17D7      |        6103 |
|     342 | 0x17D8      |        6104 |
|     343 | 0x17D9      |        6105 |
|     344 | 0x17DA      |        6106 |
|     345 | 0x17DB      |        6107 |
|     346 | 0x17DC      |        6108 |
|     347 | 0x17DD      |        6109 |
|     348 | 0x17DE      |        6110 |
|     349 | 0x17DF      |        6111 |
|     350 | 0x17E0      |        6112 |
|     351 | 0x17E1      |        6113 |
|     352 | 0x17E2      |        6114 |
|     353 | 0x17E4      |        6116 |
|     354 | 0x09B9      |        2489 |
|     355 | 0x17EC      |        6124 |
|     356 | 0x17ED      |        6125 |
|     357 | 0x17EE      |        6126 |
|     358 | 0x17EF      |        6127 |
|     359 | 0x17F0      |        6128 |
|     360 | 0x17F1      |        6129 |
|     361 | 0x17E5      |        6117 |
|     362 | 0x17E6      |        6118 |
|     363 | 0x17E7      |        6119 |
|     364 | 0x17FA      |        6138 |
|     365 | 0x17FD      |        6141 |
|     366 | 0x17FE      |        6142 |
|     367 | 0x17FF      |        6143 |
|     368 | 0x17FB      |        6139 |
|     369 | 0x17FC      |        6140 |
|     370 | 0xE678      |       59000 |
|     371 | 0xDEA8      |       57000 |
|     372 | 0x1800      |        6144 |
|     373 | 0x1801      |        6145 |
|     374 | 0x1802      |        6146 |
|     375 | 0x1803      |        6147 |
|     376 | 0x1EC9B     |      126107 |
|     377 | 0xFFFFFB97  |  4294966167 |
|     378 | 0x09B6      |        2486 |
|     379 | 0x180B      |        6155 |
|     380 | 0x180C      |        6156 |
|     381 | 0x180D      |        6157 |
|     382 | 0x180E      |        6158 |
|     383 | 0x1804      |        6148 |
|     384 | 0x1805      |        6149 |
|     385 | 0x1806      |        6150 |
|     386 | 0x1807      |        6151 |

## Events

### Event 65535

#### Metadata

| Field        | Value   |
|--------------|---------|
| Entrypoint   | 0x0000  |
| Data Size    | 1 bytes |
| Instructions | 1       |

```
      00 01 02 03 04 05 06 07  08 09 0A 0B 0C 0D 0E 0F
      -- -- -- -- -- -- -- --  -- -- -- -- -- -- -- --
0000: 00                                                .               
```

#### Opcodes

```
  0: 0x0000 [0x00] END_REQSTACK()
```

### Event 774

#### Metadata

| Field        | Value      |
|--------------|------------|
| Entrypoint   | 0x0001     |
| Data Size    | 2022 bytes |
| Instructions | 282        |

```
      00 01 02 03 04 05 06 07  08 09 0A 0B 0C 0D 0E 0F
      -- -- -- -- -- -- -- --  -- -- -- -- -- -- -- --
0000:    42 45 00 80 F8 FF FF  7F F8 FF FF 7F 66 64 6F   BE..........fdo
0010: 31 01 80 55 00 80 F8 FF  FF 7F F8 FF FF 7F 66 64  1..U..........fd
0020: 6F 31 46 01 38 02 80 27  0A F0 FF FF 7F 0D 80 35  o1F.8..'.......5
0030: 21 03 01 27 0A 35 21 03  01 1F 27 0A 37 21 03 01  !..'.5!...'.7!..
0040: 06 80 37 21 03 01 80 39  21 03 01 80 3A 21 03 01  ..7!...9!...:!..
0050: 80 38 21 03 01 92 01 35  21 03 01 92 01 37 21 03  .8!....5!....7!.
0060: 01 92 01 39 21 03 01 92  01 3A 21 03 01 92 01 38  ...9!....:!....8
0070: 21 03 01 1C 03 80 45 04  80 F8 FF FF 7F F8 FF FF  !.....E.........
0080: 7F 73 32 37 30 01 80 45  00 80 F8 FF FF 7F F8 FF  .s270..E........
0090: FF 7F 66 64 69 31 01 80  55 00 80 F8 FF FF 7F F8  ..fdi1..U.......
00A0: FF FF 7F 66 64 69 31 2B  35 21 03 01 05 80 23 27  ...fdi1+5!....#'
00B0: 0A 35 21 03 01 1E 2B 35  21 03 01 06 80 23 2A 0A  .5!...+5!....#*.
00C0: 35 21 03 01 4B 35 21 03  01 07 80 6F 76 35 21 03  5!..K5!....ov5!.
00D0: 01 6E 35 21 03 01 08 80  99 35 21 03 01 99 35 21  .n5!.....5!...5!
00E0: 03 01 27 0A 35 21 03 01  21 2B 35 21 03 01 09 80  ..'.5!..!+5!....
00F0: 23 2A 0A 35 21 03 01 45  04 80 F8 FF FF 7F F8 FF  #*.5!..E........
0100: FF 7F 73 32 37 31 01 80  27 0A 35 21 03 01 20 2B  ..s271..'.5!.. +
0110: 35 21 03 01 0A 80 23 2A  0A 35 21 03 01 4A F0 FF  5!....#*.5!..J..
0120: FF 7F 35 21 03 01 29 0A  36 21 03 01 05 79 00 35  ..5!..).6!...y.5
0130: 21 03 01 36 21 03 01 2B  35 21 03 01 0B 80 23 45  !..6!..+5!....#E
0140: 00 80 F8 FF FF 7F F8 FF  FF 7F 66 64 6F 31 01 80  ..........fdo1..
0150: 55 00 80 F8 FF FF 7F F8  FF FF 7F 66 64 6F 31 77  U..........fdo1w
0160: 0C 80 0D 80 5C 00 0E 80  5C 01 0E 80 45 04 80 F8  ....\...\...E...
0170: FF FF 7F F8 FF FF 7F 73  32 37 32 01 80 4E 00 37  .......s272..N.7
0180: 21 03 01 27 0A 36 21 03  01 06 29 0A 35 21 03 01  !..'.6!...).5!..
0190: 22 29 0A 37 21 03 01 03  79 00 35 21 03 01 3A 21  ").7!...y.5!..:!
01A0: 03 01 27 0A 35 21 03 01  23 27 0A 37 21 03 01 04  ..'.5!..#'.7!...
01B0: 45 00 80 F8 FF FF 7F F8  FF FF 7F 66 64 69 31 01  E..........fdi1.
01C0: 80 27 0A 39 21 03 01 02  55 00 80 F8 FF FF 7F F8  .'.9!...U.......
01D0: FF FF 7F 66 64 69 31 2B  35 21 03 01 0F 80 23 2B  ...fdi1+5!....#+
01E0: 35 21 03 01 10 80 23 2A  0A 39 21 03 01 66 02 80  5!....#*.9!..f..
01F0: 39 21 03 01 39 21 03 01  74 6C 6B 30 2B 35 21 03  9!..9!..tlk0+5!.
0200: 01 11 80 23 53 39 21 03  01 39 21 03 01 74 6C 6B  ...#S9!..9!..tlk
0210: 30 66 02 80 39 21 03 01  39 21 03 01 74 6C 6B 31  0f..9!..9!..tlk1
0220: 53 39 21 03 01 39 21 03  01 74 6C 6B 31 55 04 80  S9!..9!..tlk1U..
0230: F8 FF FF 7F F8 FF FF 7F  73 32 37 32 45 04 80 F8  ........s272E...
0240: FF FF 7F F8 FF FF 7F 73  32 37 33 01 80 66 12 80  .......s273..f..
0250: 3A 21 03 01 3A 21 03 01  74 6C 6B 30 2B 3A 21 03  :!..:!..tlk0+:!.
0260: 01 13 80 23 6E 39 21 03  01 14 80 99 39 21 03 01  ...#n9!.....9!..
0270: 99 39 21 03 01 27 0A 39  21 03 01 04 2B 39 21 03  .9!..'.9!...+9!.
0280: 01 15 80 23 2B 3A 21 03  01 16 80 23 2A 0A 39 21  ...#+:!....#*.9!
0290: 03 01 55 04 80 F8 FF FF  7F F8 FF FF 7F 73 32 37  ..U..........s27
02A0: 33 6E 39 21 03 01 17 80  99 39 21 03 01 99 39 21  3n9!.....9!...9!
02B0: 03 01 27 0A 39 21 03 01  04 66 12 80 3A 21 03 01  ..'.9!...f..:!..
02C0: 3A 21 03 01 74 6C 6B 31  2B 39 21 03 01 18 80 23  :!..tlk1+9!....#
02D0: 53 3A 21 03 01 3A 21 03  01 74 6C 6B 31 66 12 80  S:!..:!..tlk1f..
02E0: 3A 21 03 01 3A 21 03 01  74 6C 6B 30 45 04 80 F8  :!..:!..tlk0E...
02F0: FF FF 7F F8 FF FF 7F 73  32 37 34 01 80 2B 3A 21  .......s274..+:!
0300: 03 01 19 80 23 2A 0A 39  21 03 01 6E 39 21 03 01  ....#*.9!..n9!..
0310: 1A 80 99 39 21 03 01 99  39 21 03 01 27 0A 39 21  ...9!...9!..'.9!
0320: 03 01 04 2B 39 21 03 01  1B 80 23 66 12 80 3A 21  ...+9!....#f..:!
0330: 03 01 3A 21 03 01 74 6C  6B 31 2A 0A 39 21 03 01  ..:!..tlk1*.9!..
0340: 66 02 80 39 21 03 01 39  21 03 01 74 6C 6B 30 55  f..9!..9!..tlk0U
0350: 04 80 F8 FF FF 7F F8 FF  FF 7F 73 32 37 34 27 0A  ..........s274'.
0360: 38 21 03 01 04 2B 39 21  03 01 1C 80 23 66 12 80  8!...+9!....#f..
0370: 3A 21 03 01 3A 21 03 01  74 6C 6B 30 2B 3A 21 03  :!..:!..tlk0+:!.
0380: 01 1D 80 23 66 02 80 39  21 03 01 39 21 03 01 74  ...#f..9!..9!..t
0390: 6C 6B 31 7C 00 39 21 03  01 2B 39 21 03 01 1E 80  lk1|.9!..+9!....
03A0: 23 7C 01 39 21 03 01 79  00 39 21 03 01 39 21 03  #|.9!..y.9!..9!.
03B0: 01 2A 0A 38 21 03 01 53  39 21 03 01 39 21 03 01  .*.8!..S9!..9!..
03C0: 74 6C 6B 31 45 04 80 F8  FF FF 7F F8 FF FF 7F 73  tlk1E..........s
03D0: 32 37 35 01 80 1C 1F 80  6E 39 21 03 01 20 80 99  275.....n9!.. ..
03E0: 39 21 03 01 99 39 21 03  01 1C 21 80 79 00 39 21  9!...9!...!.y.9!
03F0: 03 01 36 21 03 01 2B 39  21 03 01 22 80 23 66 12  ..6!..+9!..".#f.
0400: 80 3A 21 03 01 3A 21 03  01 74 6C 6B 31 7C 00 3A  .:!..:!..tlk1|.:
0410: 21 03 01 7C 00 39 21 03  01 2B 3A 21 03 01 23 80  !..|.9!..+:!..#.
0420: 23 2B 39 21 03 01 24 80  23 79 00 3A 21 03 01 36  #+9!..$.#y.:!..6
0430: 21 03 01 7C 01 3A 21 03  01 7C 01 3A 21 03 01 6E  !..|.:!..|.:!..n
0440: 3A 21 03 01 20 80 99 3A  21 03 01 99 3A 21 03 01  :!.. ..:!...:!..
0450: 1C 21 80 6E 3A 21 03 01  25 80 99 3A 21 03 01 99  .!.n:!..%..:!...
0460: 3A 21 03 01 27 0A 3A 21  03 01 03 2B 3A 21 03 01  :!..'.:!...+:!..
0470: 26 80 23 2A 0A 3A 21 03  01 55 04 80 F8 FF FF 7F  &.#*.:!..U......
0480: F8 FF FF 7F 73 32 37 35  45 04 80 F8 FF FF 7F F8  ....s275E.......
0490: FF FF 7F 73 32 37 36 01  80 27 0A 3A 21 03 01 02  ...s276..'.:!...
04A0: 27 0A 39 21 03 01 03 1C  27 80 2B 3A 21 03 01 28  '.9!....'.+:!..(
04B0: 80 23 2B 39 21 03 01 29  80 23 55 04 80 F8 FF FF  .#+9!..).#U.....
04C0: 7F F8 FF FF 7F 73 32 37  36 45 04 80 F8 FF FF 7F  .....s276E......
04D0: F8 FF FF 7F 73 32 37 38  01 80 1C 1F 80 29 0A 35  ....s278.....).5
04E0: 21 03 01 1E 79 00 35 21  03 01 35 21 03 01 29 0A  !...y.5!..5!..).
04F0: 35 21 03 01 25 45 00 80  F8 FF FF 7F F8 FF FF 7F  5!..%E..........
0500: 66 64 6F 31 01 80 55 00  80 F8 FF FF 7F F8 FF FF  fdo1..U.........
0510: 7F 66 64 6F 31 5C 00 2A  80 5C 01 2A 80 78 29 0A  .fdo1\.*.\.*.x).
0520: 35 21 03 01 24 29 0A 36  21 03 01 05 79 00 35 21  5!..$).6!...y.5!
0530: 03 01 36 21 03 01 45 04  80 F8 FF FF 7F F8 FF FF  ..6!..E.........
0540: 7F 73 32 37 37 01 80 45  00 80 F8 FF FF 7F F8 FF  .s277..E........
0550: FF 7F 66 64 69 31 01 80  55 00 80 F8 FF FF 7F F8  ..fdi1..U.......
0560: FF FF 7F 66 64 69 31 2B  35 21 03 01 2B 80 23 2B  ...fdi1+5!..+.#+
0570: 35 21 03 01 2C 80 23 2B  35 21 03 01 2D 80 23 79  5!..,.#+5!..-.#y
0580: 00 35 21 03 01 F0 FF FF  7F 4A 35 21 03 01 F0 FF  .5!......J5!....
0590: FF 7F 2B 35 21 03 01 2E  80 23 66 2F 80 35 21 03  ..+5!....#f/.5!.
05A0: 01 35 21 03 01 74 6C 6B  30 2B 35 21 03 01 30 80  .5!..tlk0+5!..0.
05B0: 23 2B 35 21 03 01 31 80  23 66 2F 80 35 21 03 01  #+5!..1.#f/.5!..
05C0: 35 21 03 01 74 6C 6B 31  24 32 80 01 80 01 80 25  5!..tlk1$2.....%
05D0: 02 00 10 01 80 00 01 06  66 2F 80 35 21 03 01 35  ........f/.5!..5
05E0: 21 03 01 74 6C 6B 30 2B  35 21 03 01 33 80 23 66  !..tlk0+5!..3.#f
05F0: 2F 80 35 21 03 01 35 21  03 01 74 6C 6B 31 01 C1  /.5!..5!..tlk1..
0600: 06 02 00 10 0D 80 00 6B  06 66 2F 80 35 21 03 01  .......k.f/.5!..
0610: 35 21 03 01 74 6C 6B 30  2B 35 21 03 01 34 80 23  5!..tlk0+5!..4.#
0620: 02 00 10 01 80 01 68 06  24 35 80 01 80 01 80 25  ......h.$5.....%
0630: 02 00 10 01 80 00 52 06  66 2F 80 35 21 03 01 35  ......R.f/.5!..5
0640: 21 03 01 74 6C 6B 31 2B  35 21 03 01 36 80 23 01  !..tlk1+5!..6.#.
0650: 65 06 02 00 10 0D 80 00  65 06 2B 35 21 03 01 37  e.......e.+5!..7
0660: 80 23 01 65 06 01 20 06  01 C1 06 02 00 10 38 80  .#.e.. .......8.
0670: 00 C1 06 1C 03 80 02 00  10 01 80 01 BE 06 24 35  ..............$5
0680: 80 01 80 01 80 25 02 00  10 01 80 00 99 06 2B 35  .....%........+5
0690: 21 03 01 36 80 23 01 BB  06 02 00 10 0D 80 00 BB  !..6.#..........
06A0: 06 66 2F 80 35 21 03 01  35 21 03 01 74 6C 6B 30  .f/.5!..5!..tlk0
06B0: 2B 35 21 03 01 37 80 23  01 BB 06 01 76 06 01 C1  +5!..7.#....v...
06C0: 06 2B 35 21 03 01 39 80  23 4B 35 21 03 01 3A 80  .+5!..9.#K5!..:.
06D0: 2B 35 21 03 01 3B 80 23  6F 76 35 21 03 01 4A 35  +5!..;.#ov5!..J5
06E0: 21 03 01 F0 FF FF 7F 2B  35 21 03 01 3C 80 23 66  !......+5!..<.#f
06F0: 2F 80 35 21 03 01 35 21  03 01 74 68 6B 31 2B 35  /.5!..5!..thk1+5
0700: 21 03 01 3D 80 23 66 2F  80 35 21 03 01 35 21 03  !..=.#f/.5!..5!.
0710: 01 74 68 6B 30 53 35 21  03 01 35 21 03 01 74 68  .thk0S5!..5!..th
0720: 6B 30 66 2F 80 35 21 03  01 35 21 03 01 74 6C 6B  k0f/.5!..5!..tlk
0730: 30 2B 35 21 03 01 3E 80  23 66 2F 80 35 21 03 01  0+5!..>.#f/.5!..
0740: 35 21 03 01 74 6C 6B 31  2B 35 21 03 01 3F 80 23  5!..tlk1+5!..?.#
0750: 2B 35 21 03 01 40 80 23  66 2F 80 35 21 03 01 35  +5!..@.#f/.5!..5
0760: 21 03 01 74 6C 6B 30 2B  35 21 03 01 41 80 23 66  !..tlk0+5!..A.#f
0770: 2F 80 35 21 03 01 35 21  03 01 74 6C 6B 31 53 35  /.5!..5!..tlk1S5
0780: 21 03 01 35 21 03 01 74  6C 6B 31 6E 35 21 03 01  !..5!..tlk1n5!..
0790: 42 80 99 35 21 03 01 99  35 21 03 01 2B 35 21 03  B..5!...5!..+5!.
07A0: 01 43 80 23 45 00 80 F8  FF FF 7F F8 FF FF 7F 66  .C.#E..........f
07B0: 64 6F 31 01 80 55 00 80  F8 FF FF 7F F8 FF FF 7F  do1..U..........
07C0: 66 64 6F 31 29 0A 35 21  03 01 1D 29 0A 35 21 03  fdo1).5!...).5!.
07D0: 01 1F 46 00 45 00 80 F8  FF FF 7F F8 FF FF 7F 66  ..F.E..........f
07E0: 64 69 31 01 80 21 00                              di1..!.         
```

#### Opcodes

```
  0: 0x0001 [0x42] SET_CLI_EVENT_CANCEL_DATA()
  1: 0x0002 [0x45] LOAD_SCHEDULED_TASK: Load scheduler "fdo1" with entities [EventEntity, EventEntity], work=[200*, 0*]
  2: 0x0013 [0x55] WAIT_LOAD_SCHEDULER: Wait for scheduler "fdo1" with entities [EventEntity, EventEntity], work=200*
  3: 0x0022 [0x46] CAMERA_CONTROL: Disable user control
  4: 0x0024 [0x38] SET_CLIENT_EVENT_MODE(mode=19*)
  5: 0x0027 [0x27] REQ_SET(priority=0x0A, entity_id=LocalPlayer, tag_num=0x0D)
  6: 0x002E [0x80] LOAD_WAIT(entity=Iruki-Waraki (ID: 16982325/0x01032135))
  7: 0x0033 [0x27] REQ_SET(priority=0x0A, entity_id=Iruki-Waraki (ID: 16982325/0x01032135), tag_num=0x1F)
  8: 0x003A [0x27] REQ_SET(priority=0x0A, entity_id=Elisabeth (ID: 16982327/0x01032137), tag_num=0x06)
  9: 0x0041 [0x80] LOAD_WAIT(entity=Elisabeth (ID: 16982327/0x01032137))
 10: 0x0046 [0x80] LOAD_WAIT(entity=Abeesha (ID: 16982329/0x01032139))
 11: 0x004B [0x80] LOAD_WAIT(entity=Laruha (ID: 16982330/0x0103213A))
 12: 0x0050 [0x80] LOAD_WAIT(entity=Yafahb (ID: 16982328/0x01032138))
 13: 0x0055 [0x92] Iruki-Waraki (ID: 16982325/0x01032135)->Render.Flags3 ^= 0x01
 14: 0x005B [0x92] Elisabeth (ID: 16982327/0x01032137)->Render.Flags3 ^= 0x01
 15: 0x0061 [0x92] Abeesha (ID: 16982329/0x01032139)->Render.Flags3 ^= 0x01
 16: 0x0067 [0x92] Laruha (ID: 16982330/0x0103213A)->Render.Flags3 ^= 0x01
 17: 0x006D [0x92] Yafahb (ID: 16982328/0x01032138)->Render.Flags3 ^= 0x01
 18: 0x0073 [0x1C] WAIT(120* ticks)
 19: 0x0076 [0x45] LOAD_SCHEDULED_TASK: Load scheduler "s270" with entities [EventEntity, EventEntity], work=[35*, 0*]
 20: 0x0087 [0x45] LOAD_SCHEDULED_TASK: Load scheduler "fdi1" with entities [EventEntity, EventEntity], work=[200*, 0*]
 21: 0x0098 [0x55] WAIT_LOAD_SCHEDULER: Wait for scheduler "fdi1" with entities [EventEntity, EventEntity], work=200*
 22: 0x00A7 [0x2B] Iruki-Waraki (ID: 16982325/0x01032135) [5873*]:
    → "Oh, it's you...just when I needed some help, too. You've got great timing, you know that?\u007F1\u0000\u0007"
 23: 0x00AE [0x23] WAIT_FOR_DIALOG_INTERACTION
 24: 0x00AF [0x27] REQ_SET(priority=0x0A, entity_id=Iruki-Waraki (ID: 16982325/0x01032135), tag_num=0x1E)
 25: 0x00B6 [0x2B] Iruki-Waraki (ID: 16982325/0x01032135) [5874*]:
    → "I want you to help me look for my automaton.\u007F1\u0000\u0007"
 26: 0x00BD [0x23] WAIT_FOR_DIALOG_INTERACTION
 27: 0x00BE [0x2A] GET_REQ_LEVEL(level=10, entity_id=Iruki-Waraki (ID: 16982325/0x01032135))
 28: 0x00C4 [0x4B] UPDATE_ENTITY_YAW(entity=Iruki-Waraki (ID: 16982325/0x01032135), yaw=11.8°*)
 29: 0x00CB [0x6F] WAIT_FRAME_DELAY: Yield until WaitTime reaches zero
 30: 0x00CC [0x76] CHECK_ENTITY_RENDER_FLAGS: Wait until Iruki-Waraki (ID: 16982325/0x01032135) Render.Flags0 and Render.Flags3 conditions are met
 31: 0x00D1 [0x6E] Iruki-Waraki (ID: 16982325/0x01032135) uses emote 32*
 32: 0x00D8 [0x99] Wait for Iruki-Waraki (ID: 16982325/0x01032135) animation to complete
 33: 0x00DD [0x99] Wait for Iruki-Waraki (ID: 16982325/0x01032135) animation to complete
 34: 0x00E2 [0x27] REQ_SET(priority=0x0A, entity_id=Iruki-Waraki (ID: 16982325/0x01032135), tag_num=0x21)
 35: 0x00E9 [0x2B] Iruki-Waraki (ID: 16982325/0x01032135) [5875*]:
    → "What?\u0007You mean I never told you that my automaton was stolen?\u007F1\u0000\u0007"
 36: 0x00F0 [0x23] WAIT_FOR_DIALOG_INTERACTION
 37: 0x00F1 [0x2A] GET_REQ_LEVEL(level=10, entity_id=Iruki-Waraki (ID: 16982325/0x01032135))
 38: 0x00F7 [0x45] LOAD_SCHEDULED_TASK: Load scheduler "s271" with entities [EventEntity, EventEntity], work=[35*, 0*]
 39: 0x0108 [0x27] REQ_SET(priority=0x0A, entity_id=Iruki-Waraki (ID: 16982325/0x01032135), tag_num=0x20)
 40: 0x010F [0x2B] Iruki-Waraki (ID: 16982325/0x01032135) [5876*]:
    → "I still remember it like it was yesterday...\u007F1\u0000\u0007"
 41: 0x0116 [0x23] WAIT_FOR_DIALOG_INTERACTION
 42: 0x0117 [0x2A] GET_REQ_LEVEL(level=10, entity_id=Iruki-Waraki (ID: 16982325/0x01032135))
 43: 0x011D [0x4A] LocalPlayer looks at Iruki-Waraki (ID: 16982325/0x01032135)
 44: 0x0126 [0x29] REQ_SET_WAIT(priority=0x0A, entity_id=Unnamed NPC (ID: 16982326/0x01032136), tag_num=0x05)
 45: 0x012D [0x79] Iruki-Waraki (ID: 16982325/0x01032135) looks at Unnamed NPC (ID: 16982326/0x01032136) (Basic look)
 46: 0x0137 [0x2B] Iruki-Waraki (ID: 16982325/0x01032135) [5877*]:
    → "It was not long before I met you...\u007F1\u0000\u0007"
 47: 0x013E [0x23] WAIT_FOR_DIALOG_INTERACTION
 48: 0x013F [0x45] LOAD_SCHEDULED_TASK: Load scheduler "fdo1" with entities [EventEntity, EventEntity], work=[200*, 0*]
 49: 0x0150 [0x55] WAIT_LOAD_SCHEDULER: Wait for scheduler "fdo1" with entities [EventEntity, EventEntity], work=200*
 50: 0x015F [0x77] SET_EVENT_TIME_WEATHER(hour=16*, weather=1*)
 51: 0x0164 [0x5C] MUSIC_CONTROL: Set Idle (Day) music to song 163*
 52: 0x0168 [0x5C] MUSIC_CONTROL: Set Idle (Night) music to song 163*
 53: 0x016C [0x45] LOAD_SCHEDULED_TASK: Load scheduler "s272" with entities [EventEntity, EventEntity], work=[35*, 0*]
 54: 0x017D [0x4E] SET_ENTITY_HIDE_FLAG: Show Elisabeth (ID: 16982327/0x01032137)
 55: 0x0183 [0x27] REQ_SET(priority=0x0A, entity_id=Unnamed NPC (ID: 16982326/0x01032136), tag_num=0x06)
 56: 0x018A [0x29] REQ_SET_WAIT(priority=0x0A, entity_id=Iruki-Waraki (ID: 16982325/0x01032135), tag_num=0x22)
 57: 0x0191 [0x29] REQ_SET_WAIT(priority=0x0A, entity_id=Elisabeth (ID: 16982327/0x01032137), tag_num=0x03)
 58: 0x0198 [0x79] Iruki-Waraki (ID: 16982325/0x01032135) looks at Laruha (ID: 16982330/0x0103213A) (Basic look)
 59: 0x01A2 [0x27] REQ_SET(priority=0x0A, entity_id=Iruki-Waraki (ID: 16982325/0x01032135), tag_num=0x23)
 60: 0x01A9 [0x27] REQ_SET(priority=0x0A, entity_id=Elisabeth (ID: 16982327/0x01032137), tag_num=0x04)
 61: 0x01B0 [0x45] LOAD_SCHEDULED_TASK: Load scheduler "fdi1" with entities [EventEntity, EventEntity], work=[200*, 0*]
 62: 0x01C1 [0x27] REQ_SET(priority=0x0A, entity_id=Abeesha (ID: 16982329/0x01032139), tag_num=0x02)
 63: 0x01C8 [0x55] WAIT_LOAD_SCHEDULER: Wait for scheduler "fdi1" with entities [EventEntity, EventEntity], work=200*
 64: 0x01D7 [0x2B] Iruki-Waraki (ID: 16982325/0x01032135) [5878*]:
    → "In an effort to gather knowledge on my audience, I made it a point to observe the people at Balrahn Way each day.\u007F1\u0000\u0007"
 65: 0x01DE [0x23] WAIT_FOR_DIALOG_INTERACTION
 66: 0x01DF [0x2B] Iruki-Waraki (ID: 16982325/0x01032135) [5879*]:
    → "On this particular day, I headed out for the crowds as always...\u007F1\u0000\u0007"
 67: 0x01E6 [0x23] WAIT_FOR_DIALOG_INTERACTION
 68: 0x01E7 [0x2A] GET_REQ_LEVEL(level=10, entity_id=Abeesha (ID: 16982329/0x01032139))
 69: 0x01ED [0x66] LOAD_EXT_SCHEDULER_MAIN: Load scheduler "tlk0" with entities [Abeesha (ID: 16982329/0x01032139), Abeesha (ID: 16982329/0x01032139)], work=19*
 70: 0x01FC [0x2B] Iruki-Waraki (ID: 16982325/0x01032135) [5880*]:
    → "That's when tragedy struck.\u007F1\u0000\u0007"
 71: 0x0203 [0x23] WAIT_FOR_DIALOG_INTERACTION
 72: 0x0204 [0x53] WAIT_SCHEDULER_TASK: Wait for scheduler "tlk0" with entities [Abeesha (ID: 16982329/0x01032139), Abeesha (ID: 16982329/0x01032139)]
 73: 0x0211 [0x66] LOAD_EXT_SCHEDULER_MAIN: Load scheduler "tlk1" with entities [Abeesha (ID: 16982329/0x01032139), Abeesha (ID: 16982329/0x01032139)], work=19*
 74: 0x0220 [0x53] WAIT_SCHEDULER_TASK: Wait for scheduler "tlk1" with entities [Abeesha (ID: 16982329/0x01032139), Abeesha (ID: 16982329/0x01032139)]
 75: 0x022D [0x55] WAIT_LOAD_SCHEDULER: Wait for scheduler "s272" with entities [EventEntity, EventEntity], work=35*
 76: 0x023C [0x45] LOAD_SCHEDULED_TASK: Load scheduler "s273" with entities [EventEntity, EventEntity], work=[35*, 0*]
 77: 0x024D [0x66] LOAD_EXT_SCHEDULER_MAIN: Load scheduler "tlk0" with entities [Laruha (ID: 16982330/0x0103213A), Laruha (ID: 16982330/0x0103213A)], work=39*
 78: 0x025C [0x2B] Laruha (ID: 16982330/0x0103213A) [5881*]:
    → "Oh oh, and you wouldn't belieeeve...\u007F1\u0000\u0007"
 79: 0x0263 [0x23] WAIT_FOR_DIALOG_INTERACTION
 80: 0x0264 [0x6E] Abeesha (ID: 16982329/0x01032139) uses emote 24*
 81: 0x026B [0x99] Wait for Abeesha (ID: 16982329/0x01032139) animation to complete
 82: 0x0270 [0x99] Wait for Abeesha (ID: 16982329/0x01032139) animation to complete
 83: 0x0275 [0x27] REQ_SET(priority=0x0A, entity_id=Abeesha (ID: 16982329/0x01032139), tag_num=0x04)
 84: 0x027C [0x2B] Abeesha (ID: 16982329/0x01032139) [5882*]:
    → "Haha, that's a wig? Get out of here! Are you serious?\u007F1\u0000\u0007"
 85: 0x0283 [0x23] WAIT_FOR_DIALOG_INTERACTION
 86: 0x0284 [0x2B] Laruha (ID: 16982330/0x0103213A) [5883*]:
    → "And you should see that other guy...\u007F1\u0000\u0007"
 87: 0x028B [0x23] WAIT_FOR_DIALOG_INTERACTION
 88: 0x028C [0x2A] GET_REQ_LEVEL(level=10, entity_id=Abeesha (ID: 16982329/0x01032139))
 89: 0x0292 [0x55] WAIT_LOAD_SCHEDULER: Wait for scheduler "s273" with entities [EventEntity, EventEntity], work=35*
 90: 0x02A1 [0x6E] Abeesha (ID: 16982329/0x01032139) uses emote 21*
 91: 0x02A8 [0x99] Wait for Abeesha (ID: 16982329/0x01032139) animation to complete
 92: 0x02AD [0x99] Wait for Abeesha (ID: 16982329/0x01032139) animation to complete
 93: 0x02B2 [0x27] REQ_SET(priority=0x0A, entity_id=Abeesha (ID: 16982329/0x01032139), tag_num=0x04)
 94: 0x02B9 [0x66] LOAD_EXT_SCHEDULER_MAIN: Load scheduler "tlk1" with entities [Laruha (ID: 16982330/0x0103213A), Laruha (ID: 16982330/0x0103213A)], work=39*
 95: 0x02C8 [0x2B] Abeesha (ID: 16982329/0x01032139) [5884*]:
    → "No way! Why would he be wearing a fake beard? What's the point?\u007F1\u0000\u0007"
 96: 0x02CF [0x23] WAIT_FOR_DIALOG_INTERACTION
 97: 0x02D0 [0x53] WAIT_SCHEDULER_TASK: Wait for scheduler "tlk1" with entities [Laruha (ID: 16982330/0x0103213A), Laruha (ID: 16982330/0x0103213A)]
 98: 0x02DD [0x66] LOAD_EXT_SCHEDULER_MAIN: Load scheduler "tlk0" with entities [Laruha (ID: 16982330/0x0103213A), Laruha (ID: 16982330/0x0103213A)], work=39*
 99: 0x02EC [0x45] LOAD_SCHEDULED_TASK: Load scheduler "s274" with entities [EventEntity, EventEntity], work=[35*, 0*]
100: 0x02FD [0x2B] Laruha (ID: 16982330/0x0103213A) [5885*]:
    → "And for some reason, that guy...\u007F1\u0000\u0007"
101: 0x0304 [0x23] WAIT_FOR_DIALOG_INTERACTION
102: 0x0305 [0x2A] GET_REQ_LEVEL(level=10, entity_id=Abeesha (ID: 16982329/0x01032139))
103: 0x030B [0x6E] Abeesha (ID: 16982329/0x01032139) uses emote 4*
104: 0x0312 [0x99] Wait for Abeesha (ID: 16982329/0x01032139) animation to complete
105: 0x0317 [0x99] Wait for Abeesha (ID: 16982329/0x01032139) animation to complete
106: 0x031C [0x27] REQ_SET(priority=0x0A, entity_id=Abeesha (ID: 16982329/0x01032139), tag_num=0x04)
107: 0x0323 [0x2B] Abeesha (ID: 16982329/0x01032139) [5886*]:
    → "Have you ever seen that guy's sideburns? Out of this world!\u007F1\u0000\u0007"
108: 0x032A [0x23] WAIT_FOR_DIALOG_INTERACTION
109: 0x032B [0x66] LOAD_EXT_SCHEDULER_MAIN: Load scheduler "tlk1" with entities [Laruha (ID: 16982330/0x0103213A), Laruha (ID: 16982330/0x0103213A)], work=39*
110: 0x033A [0x2A] GET_REQ_LEVEL(level=10, entity_id=Abeesha (ID: 16982329/0x01032139))
111: 0x0340 [0x66] LOAD_EXT_SCHEDULER_MAIN: Load scheduler "tlk0" with entities [Abeesha (ID: 16982329/0x01032139), Abeesha (ID: 16982329/0x01032139)], work=19*
112: 0x034F [0x55] WAIT_LOAD_SCHEDULER: Wait for scheduler "s274" with entities [EventEntity, EventEntity], work=35*
113: 0x035E [0x27] REQ_SET(priority=0x0A, entity_id=Yafahb (ID: 16982328/0x01032138), tag_num=0x04)
114: 0x0365 [0x2B] Abeesha (ID: 16982329/0x01032139) [5887*]:
    → "Hahaha, where did you manage to find such a ridiculous person?\u007F1\u0000\u0007"
115: 0x036C [0x23] WAIT_FOR_DIALOG_INTERACTION
116: 0x036D [0x66] LOAD_EXT_SCHEDULER_MAIN: Load scheduler "tlk0" with entities [Laruha (ID: 16982330/0x0103213A), Laruha (ID: 16982330/0x0103213A)], work=39*
117: 0x037C [0x2B] Laruha (ID: 16982330/0x0103213A) [5888*]:
    → "Oh, come on. You know! He's always at that teahouse...the big lout...\u007F1\u0000\u0007"
118: 0x0383 [0x23] WAIT_FOR_DIALOG_INTERACTION
119: 0x0384 [0x66] LOAD_EXT_SCHEDULER_MAIN: Load scheduler "tlk1" with entities [Abeesha (ID: 16982329/0x01032139), Abeesha (ID: 16982329/0x01032139)], work=19*
120: 0x0393 [0x7C] Abeesha (ID: 16982329/0x01032139)->Render.Flags2 |= 0x00
121: 0x0399 [0x2B] Abeesha (ID: 16982329/0x01032139) [5889*]:
    → "...\u007F1\u0000\u0007"
122: 0x03A0 [0x23] WAIT_FOR_DIALOG_INTERACTION
123: 0x03A1 [0x7C] Abeesha (ID: 16982329/0x01032139)->Render.Flags2 |= 0x01
124: 0x03A7 [0x79] Abeesha (ID: 16982329/0x01032139) looks at Abeesha (ID: 16982329/0x01032139) (Basic look)
125: 0x03B1 [0x2A] GET_REQ_LEVEL(level=10, entity_id=Yafahb (ID: 16982328/0x01032138))
126: 0x03B7 [0x53] WAIT_SCHEDULER_TASK: Wait for scheduler "tlk1" with entities [Abeesha (ID: 16982329/0x01032139), Abeesha (ID: 16982329/0x01032139)]
127: 0x03C4 [0x45] LOAD_SCHEDULED_TASK: Load scheduler "s275" with entities [EventEntity, EventEntity], work=[35*, 0*]
128: 0x03D5 [0x1C] WAIT(60* ticks)
129: 0x03D8 [0x6E] Abeesha (ID: 16982329/0x01032139) uses emote 6*
130: 0x03DF [0x99] Wait for Abeesha (ID: 16982329/0x01032139) animation to complete
131: 0x03E4 [0x99] Wait for Abeesha (ID: 16982329/0x01032139) animation to complete
132: 0x03E9 [0x1C] WAIT(90* ticks)
133: 0x03EC [0x79] Abeesha (ID: 16982329/0x01032139) looks at Unnamed NPC (ID: 16982326/0x01032136) (Basic look)
134: 0x03F6 [0x2B] Abeesha (ID: 16982329/0x01032139) [5890*]:
    → "...That's...my father.\u007F1\u0000\u0007"
135: 0x03FD [0x23] WAIT_FOR_DIALOG_INTERACTION
136: 0x03FE [0x66] LOAD_EXT_SCHEDULER_MAIN: Load scheduler "tlk1" with entities [Laruha (ID: 16982330/0x0103213A), Laruha (ID: 16982330/0x0103213A)], work=39*
137: 0x040D [0x7C] Laruha (ID: 16982330/0x0103213A)->Render.Flags2 |= 0x00
138: 0x0413 [0x7C] Abeesha (ID: 16982329/0x01032139)->Render.Flags2 |= 0x00
139: 0x0419 [0x2B] Laruha (ID: 16982330/0x0103213A) [5891*]:
    → "...\u007F1\u0000\u0007"
140: 0x0420 [0x23] WAIT_FOR_DIALOG_INTERACTION
141: 0x0421 [0x2B] Abeesha (ID: 16982329/0x01032139) [5892*]:
    → "...\u007F1\u0000\u0007"
142: 0x0428 [0x23] WAIT_FOR_DIALOG_INTERACTION
143: 0x0429 [0x79] Laruha (ID: 16982330/0x0103213A) looks at Unnamed NPC (ID: 16982326/0x01032136) (Basic look)
144: 0x0433 [0x7C] Laruha (ID: 16982330/0x0103213A)->Render.Flags2 |= 0x01
145: 0x0439 [0x7C] Laruha (ID: 16982330/0x0103213A)->Render.Flags2 |= 0x01
146: 0x043F [0x6E] Laruha (ID: 16982330/0x0103213A) uses emote 6*
147: 0x0446 [0x99] Wait for Laruha (ID: 16982330/0x0103213A) animation to complete
148: 0x044B [0x99] Wait for Laruha (ID: 16982330/0x0103213A) animation to complete
149: 0x0450 [0x1C] WAIT(90* ticks)
150: 0x0453 [0x6E] Laruha (ID: 16982330/0x0103213A) uses emote 20*
151: 0x045A [0x99] Wait for Laruha (ID: 16982330/0x0103213A) animation to complete
152: 0x045F [0x99] Wait for Laruha (ID: 16982330/0x0103213A) animation to complete
153: 0x0464 [0x27] REQ_SET(priority=0x0A, entity_id=Laruha (ID: 16982330/0x0103213A), tag_num=0x03)
154: 0x046B [0x2B] Laruha (ID: 16982330/0x0103213A) [5893*]:
    → "Well, ummm... Today's teatime's on me, okay?\u007F1\u0000\u0007"
155: 0x0472 [0x23] WAIT_FOR_DIALOG_INTERACTION
156: 0x0473 [0x2A] GET_REQ_LEVEL(level=10, entity_id=Laruha (ID: 16982330/0x0103213A))
157: 0x0479 [0x55] WAIT_LOAD_SCHEDULER: Wait for scheduler "s275" with entities [EventEntity, EventEntity], work=35*
158: 0x0488 [0x45] LOAD_SCHEDULED_TASK: Load scheduler "s276" with entities [EventEntity, EventEntity], work=[35*, 0*]
159: 0x0499 [0x27] REQ_SET(priority=0x0A, entity_id=Laruha (ID: 16982330/0x0103213A), tag_num=0x02)
160: 0x04A0 [0x27] REQ_SET(priority=0x0A, entity_id=Abeesha (ID: 16982329/0x01032139), tag_num=0x03)
161: 0x04A7 [0x1C] WAIT(150* ticks)
162: 0x04AA [0x2B] Laruha (ID: 16982330/0x0103213A) [5894*]:
    → "What would you like, coffee or chai?\u007F1\u0000\u0007"
163: 0x04B1 [0x23] WAIT_FOR_DIALOG_INTERACTION
164: 0x04B2 [0x2B] Abeesha (ID: 16982329/0x01032139) [5895*]:
    → "...Just leave me alone...\u007F1\u0000\u0007"
165: 0x04B9 [0x23] WAIT_FOR_DIALOG_INTERACTION
166: 0x04BA [0x55] WAIT_LOAD_SCHEDULER: Wait for scheduler "s276" with entities [EventEntity, EventEntity], work=35*
167: 0x04C9 [0x45] LOAD_SCHEDULED_TASK: Load scheduler "s278" with entities [EventEntity, EventEntity], work=[35*, 0*]
168: 0x04DA [0x1C] WAIT(60* ticks)
169: 0x04DD [0x29] REQ_SET_WAIT(priority=0x0A, entity_id=Iruki-Waraki (ID: 16982325/0x01032135), tag_num=0x1E)
170: 0x04E4 [0x79] Iruki-Waraki (ID: 16982325/0x01032135) looks at Iruki-Waraki (ID: 16982325/0x01032135) (Basic look)
171: 0x04EE [0x29] REQ_SET_WAIT(priority=0x0A, entity_id=Iruki-Waraki (ID: 16982325/0x01032135), tag_num=0x25)
172: 0x04F5 [0x45] LOAD_SCHEDULED_TASK: Load scheduler "fdo1" with entities [EventEntity, EventEntity], work=[200*, 0*]
173: 0x0506 [0x55] WAIT_LOAD_SCHEDULER: Wait for scheduler "fdo1" with entities [EventEntity, EventEntity], work=200*
174: 0x0515 [0x5C] MUSIC_CONTROL: Set Idle (Day) music to song 178*
175: 0x0519 [0x5C] MUSIC_CONTROL: Set Idle (Night) music to song 178*
176: 0x051D [0x78] ENABLE_GAME_TIMER_RESET_WEATHER()
177: 0x051E [0x29] REQ_SET_WAIT(priority=0x0A, entity_id=Iruki-Waraki (ID: 16982325/0x01032135), tag_num=0x24)
178: 0x0525 [0x29] REQ_SET_WAIT(priority=0x0A, entity_id=Unnamed NPC (ID: 16982326/0x01032136), tag_num=0x05)
179: 0x052C [0x79] Iruki-Waraki (ID: 16982325/0x01032135) looks at Unnamed NPC (ID: 16982326/0x01032136) (Basic look)
180: 0x0536 [0x45] LOAD_SCHEDULED_TASK: Load scheduler "s277" with entities [EventEntity, EventEntity], work=[35*, 0*]
181: 0x0547 [0x45] LOAD_SCHEDULED_TASK: Load scheduler "fdi1" with entities [EventEntity, EventEntity], work=[200*, 0*]
182: 0x0558 [0x55] WAIT_LOAD_SCHEDULER: Wait for scheduler "fdi1" with entities [EventEntity, EventEntity], work=200*
183: 0x0567 [0x2B] Iruki-Waraki (ID: 16982325/0x01032135) [5896*]:
    → "...And that was it.\u007F1\u0000\u0007"
184: 0x056E [0x23] WAIT_FOR_DIALOG_INTERACTION
185: 0x056F [0x2B] Iruki-Waraki (ID: 16982325/0x01032135) [5897*]:
    → "Everything happened so fast... I lost track of the two girls while searching for my automaton.\u007F1\u0000\u0007"
186: 0x0576 [0x23] WAIT_FOR_DIALOG_INTERACTION
187: 0x0577 [0x2B] Iruki-Waraki (ID: 16982325/0x01032135) [5898*]:
    → "Where could they have gone?\u007F1\u0000\u0007"
188: 0x057E [0x23] WAIT_FOR_DIALOG_INTERACTION
189: 0x057F [0x79] Iruki-Waraki (ID: 16982325/0x01032135) looks at LocalPlayer (Basic look)
190: 0x0589 [0x4A] Iruki-Waraki (ID: 16982325/0x01032135) looks at LocalPlayer
191: 0x0592 [0x2B] Iruki-Waraki (ID: 16982325/0x01032135) [5899*]:
    → "Oh yeah, it was later that I met someone who witnessed the whole thing...and that's how I found out my automaton was actually stolen.\u007F1\u0000\u0007"
192: 0x0599 [0x23] WAIT_FOR_DIALOG_INTERACTION
193: 0x059A [0x66] LOAD_EXT_SCHEDULER_MAIN: Load scheduler "tlk0" with entities [Iruki-Waraki (ID: 16982325/0x01032135), Iruki-Waraki (ID: 16982325/0x01032135)], work=49*
194: 0x05A9 [0x2B] Iruki-Waraki (ID: 16982325/0x01032135) [5900*]:
    → "Well? Do you think you could help me find it?\u007F1\u0000\u0007"
195: 0x05B0 [0x23] WAIT_FOR_DIALOG_INTERACTION
196: 0x05B1 [0x2B] Iruki-Waraki (ID: 16982325/0x01032135) [5901*]:
    → "You understand how difficult it would be to have your automaton torn away from you, don't you?\u007F1\u0000\u0007"
197: 0x05B8 [0x23] WAIT_FOR_DIALOG_INTERACTION
198: 0x05B9 [0x66] LOAD_EXT_SCHEDULER_MAIN: Load scheduler "tlk1" with entities [Iruki-Waraki (ID: 16982325/0x01032135), Iruki-Waraki (ID: 16982325/0x01032135)], work=49*
199: 0x05C8 [0x24] CREATE_DIALOG(message_id=5902*, default_option=0*, option_flags=0*)
    → "Sympathize with him?\u0007\u000BMust be terrible...\u0007No.\u0007...\u007F1\u0000\u0007"
200: 0x05CF [0x25] WAIT_DIALOG_SELECT()
201: 0x05D0 [0x02] IF !(Work_Zone[0] == 0*) GOTO 0x0601
202: 0x05D8 [0x66] LOAD_EXT_SCHEDULER_MAIN: Load scheduler "tlk0" with entities [Iruki-Waraki (ID: 16982325/0x01032135), Iruki-Waraki (ID: 16982325/0x01032135)], work=49*
203: 0x05E7 [0x2B] Iruki-Waraki (ID: 16982325/0x01032135) [5903*]:
    → "And it is! I knew you'd understand!\u007F1\u0000\u0007"
204: 0x05EE [0x23] WAIT_FOR_DIALOG_INTERACTION
205: 0x05EF [0x66] LOAD_EXT_SCHEDULER_MAIN: Load scheduler "tlk1" with entities [Iruki-Waraki (ID: 16982325/0x01032135), Iruki-Waraki (ID: 16982325/0x01032135)], work=49*
206: 0x05FE [0x01] GOTO 0x06C1
207: 0x0601 [0x02] IF !(Work_Zone[0] == 1*) GOTO 0x066B
208: 0x0609 [0x66] LOAD_EXT_SCHEDULER_MAIN: Load scheduler "tlk0" with entities [Iruki-Waraki (ID: 16982325/0x01032135), Iruki-Waraki (ID: 16982325/0x01032135)], work=49*
209: 0x0618 [0x2B] Iruki-Waraki (ID: 16982325/0x01032135) [5904*]:
    → "How can you say that? Think! Just think about it for a while! Imagine my pain!\u007F1\u0000\u0007"
210: 0x061F [0x23] WAIT_FOR_DIALOG_INTERACTION

SUBROUTINE_0620:
211: 0x0620 [0x02] IF !(Work_Zone[0] == 0*) GOTO 0x0668
212: 0x0628 [0x24] CREATE_DIALOG(message_id=5905*, default_option=0*, option_flags=0*)
    → "Sympathize with him?\u0007\u000BYou poor thing...\u0007Whatever.\u007F1\u0000\u0007"
213: 0x062F [0x25] WAIT_DIALOG_SELECT()
214: 0x0630 [0x02] IF !(Work_Zone[0] == 0*) GOTO 0x0652
215: 0x0638 [0x66] LOAD_EXT_SCHEDULER_MAIN: Load scheduler "tlk1" with entities [Iruki-Waraki (ID: 16982325/0x01032135), Iruki-Waraki (ID: 16982325/0x01032135)], work=49*
216: 0x0647 [0x2B] Iruki-Waraki (ID: 16982325/0x01032135) [5906*]:
    → "Your hesitation is a little suspicious...but thanks for your sympathy!\u007F1\u0000\u0007"
217: 0x064E [0x23] WAIT_FOR_DIALOG_INTERACTION
218: 0x064F [0x01] GOTO 0x0665
219: 0x0652 [0x02] IF !(Work_Zone[0] == 1*) GOTO 0x0665
220: 0x065A [0x2B] Iruki-Waraki (ID: 16982325/0x01032135) [5907*]:
    → "Oh please! Just think about it a little more!\u007F1\u0000\u0007"
221: 0x0661 [0x23] WAIT_FOR_DIALOG_INTERACTION
222: 0x0662 [0x01] GOTO 0x0665

SUBROUTINE_0665:
223: 0x0665 [0x01] GOTO 0x0620
224: 0x0668 [0x01] GOTO 0x06C1
225: 0x066B [0x02] IF !(Work_Zone[0] == 2*) GOTO 0x06C1
226: 0x0673 [0x1C] WAIT(120* ticks)

SUBROUTINE_0676:
227: 0x0676 [0x02] IF !(Work_Zone[0] == 0*) GOTO 0x06BE
228: 0x067E [0x24] CREATE_DIALOG(message_id=5905*, default_option=0*, option_flags=0*)
    → "Sympathize with him?\u0007\u000BYou poor thing...\u0007Whatever.\u007F1\u0000\u0007"
229: 0x0685 [0x25] WAIT_DIALOG_SELECT()
230: 0x0686 [0x02] IF !(Work_Zone[0] == 0*) GOTO 0x0699
231: 0x068E [0x2B] Iruki-Waraki (ID: 16982325/0x01032135) [5906*]:
    → "Your hesitation is a little suspicious...but thanks for your sympathy!\u007F1\u0000\u0007"
232: 0x0695 [0x23] WAIT_FOR_DIALOG_INTERACTION
233: 0x0696 [0x01] GOTO 0x06BB
234: 0x0699 [0x02] IF !(Work_Zone[0] == 1*) GOTO 0x06BB
235: 0x06A1 [0x66] LOAD_EXT_SCHEDULER_MAIN: Load scheduler "tlk0" with entities [Iruki-Waraki (ID: 16982325/0x01032135), Iruki-Waraki (ID: 16982325/0x01032135)], work=49*
236: 0x06B0 [0x2B] Iruki-Waraki (ID: 16982325/0x01032135) [5907*]:
    → "Oh please! Just think about it a little more!\u007F1\u0000\u0007"
237: 0x06B7 [0x23] WAIT_FOR_DIALOG_INTERACTION
238: 0x06B8 [0x01] GOTO 0x06BB

SUBROUTINE_06BB:
239: 0x06BB [0x01] GOTO 0x0676
240: 0x06BE [0x01] GOTO 0x06C1

SUBROUTINE_06C1:
241: 0x06C1 [0x2B] Iruki-Waraki (ID: 16982325/0x01032135) [5908*]:
    → "All right, then.\u0007You go check Nashmau. Leave Al Zahbi to me.\u007F1\u0000\u0007"
242: 0x06C8 [0x23] WAIT_FOR_DIALOG_INTERACTION
243: 0x06C9 [0x4B] UPDATE_ENTITY_YAW(entity=Iruki-Waraki (ID: 16982325/0x01032135), yaw=16.8°*)
244: 0x06D0 [0x2B] Iruki-Waraki (ID: 16982325/0x01032135) [5909*]:
    → "And remember, we're not just looking for the thief. I want my automaton back, too!\u007F1\u0000\u0007"
245: 0x06D7 [0x23] WAIT_FOR_DIALOG_INTERACTION
246: 0x06D8 [0x6F] WAIT_FRAME_DELAY: Yield until WaitTime reaches zero
247: 0x06D9 [0x76] CHECK_ENTITY_RENDER_FLAGS: Wait until Iruki-Waraki (ID: 16982325/0x01032135) Render.Flags0 and Render.Flags3 conditions are met
248: 0x06DE [0x4A] Iruki-Waraki (ID: 16982325/0x01032135) looks at LocalPlayer
249: 0x06E7 [0x2B] Iruki-Waraki (ID: 16982325/0x01032135) [5910*]:
    → "Ack, I almost left out some important information!\u0007Let me describe my automaton and the thief to you...\u007F1\u0000\u0007"
250: 0x06EE [0x23] WAIT_FOR_DIALOG_INTERACTION
251: 0x06EF [0x66] LOAD_EXT_SCHEDULER_MAIN: Load scheduler "thk1" with entities [Iruki-Waraki (ID: 16982325/0x01032135), Iruki-Waraki (ID: 16982325/0x01032135)], work=49*
252: 0x06FE [0x2B] Iruki-Waraki (ID: 16982325/0x01032135) [5911*]:
    → "My automaton is...ummm... Well, let's just say you'll know it when you see it.\u007F1\u0000\u0007"
253: 0x0705 [0x23] WAIT_FOR_DIALOG_INTERACTION
254: 0x0706 [0x66] LOAD_EXT_SCHEDULER_MAIN: Load scheduler "thk0" with entities [Iruki-Waraki (ID: 16982325/0x01032135), Iruki-Waraki (ID: 16982325/0x01032135)], work=49*
255: 0x0715 [0x53] WAIT_SCHEDULER_TASK: Wait for scheduler "thk0" with entities [Iruki-Waraki (ID: 16982325/0x01032135), Iruki-Waraki (ID: 16982325/0x01032135)]
256: 0x0722 [0x66] LOAD_EXT_SCHEDULER_MAIN: Load scheduler "tlk0" with entities [Iruki-Waraki (ID: 16982325/0x01032135), Iruki-Waraki (ID: 16982325/0x01032135)], work=49*
257: 0x0731 [0x2B] Iruki-Waraki (ID: 16982325/0x01032135) [5912*]:
    → "It looks just like a normal automaton, but the way it acts is completely unique. You'll notice it immediately.\u007F1\u0000\u0007"
258: 0x0738 [0x23] WAIT_FOR_DIALOG_INTERACTION
259: 0x0739 [0x66] LOAD_EXT_SCHEDULER_MAIN: Load scheduler "tlk1" with entities [Iruki-Waraki (ID: 16982325/0x01032135), Iruki-Waraki (ID: 16982325/0x01032135)], work=49*
260: 0x0748 [0x2B] Iruki-Waraki (ID: 16982325/0x01032135) [5913*]:
    → "Anyway, just be careful.\u007F1\u0000\u0007"
261: 0x074F [0x23] WAIT_FOR_DIALOG_INTERACTION
262: 0x0750 [0x2B] Iruki-Waraki (ID: 16982325/0x01032135) [5914*]:
    → "I've heard that the thief is a bald Hume. Finding him might lead you to the automaton.\u007F1\u0000\u0007"
263: 0x0757 [0x23] WAIT_FOR_DIALOG_INTERACTION
264: 0x0758 [0x66] LOAD_EXT_SCHEDULER_MAIN: Load scheduler "tlk0" with entities [Iruki-Waraki (ID: 16982325/0x01032135), Iruki-Waraki (ID: 16982325/0x01032135)], work=49*
265: 0x0767 [0x2B] Iruki-Waraki (ID: 16982325/0x01032135) [5915*]:
    → "I want to know where he is and what he's doing. If you find anything, don't mess around--come straight to me.\u007F1\u0000\u0007"
266: 0x076E [0x23] WAIT_FOR_DIALOG_INTERACTION
267: 0x076F [0x66] LOAD_EXT_SCHEDULER_MAIN: Load scheduler "tlk1" with entities [Iruki-Waraki (ID: 16982325/0x01032135), Iruki-Waraki (ID: 16982325/0x01032135)], work=49*
268: 0x077E [0x53] WAIT_SCHEDULER_TASK: Wait for scheduler "tlk1" with entities [Iruki-Waraki (ID: 16982325/0x01032135), Iruki-Waraki (ID: 16982325/0x01032135)]
269: 0x078B [0x6E] Iruki-Waraki (ID: 16982325/0x01032135) uses emote 9*
270: 0x0792 [0x99] Wait for Iruki-Waraki (ID: 16982325/0x01032135) animation to complete
271: 0x0797 [0x99] Wait for Iruki-Waraki (ID: 16982325/0x01032135) animation to complete
272: 0x079C [0x2B] Iruki-Waraki (ID: 16982325/0x01032135) [5916*]:
    → "Remember, I'm counting on you! Good luck, and be careful!\u007F1\u0000\u0007"
273: 0x07A3 [0x23] WAIT_FOR_DIALOG_INTERACTION
274: 0x07A4 [0x45] LOAD_SCHEDULED_TASK: Load scheduler "fdo1" with entities [EventEntity, EventEntity], work=[200*, 0*]
275: 0x07B5 [0x55] WAIT_LOAD_SCHEDULER: Wait for scheduler "fdo1" with entities [EventEntity, EventEntity], work=200*
276: 0x07C4 [0x29] REQ_SET_WAIT(priority=0x0A, entity_id=Iruki-Waraki (ID: 16982325/0x01032135), tag_num=0x1D)
277: 0x07CB [0x29] REQ_SET_WAIT(priority=0x0A, entity_id=Iruki-Waraki (ID: 16982325/0x01032135), tag_num=0x1F)
278: 0x07D2 [0x46] CAMERA_CONTROL: Restore default settings
279: 0x07D4 [0x45] LOAD_SCHEDULED_TASK: Load scheduler "fdi1" with entities [EventEntity, EventEntity], work=[200*, 0*]
280: 0x07E5 [0x21] END_EVENT
281: 0x07E6 [0x00] END_REQSTACK()
```

### Event 776

#### Metadata

| Field        | Value     |
|--------------|-----------|
| Entrypoint   | 0x07E7    |
| Data Size    | 751 bytes |
| Instructions | 93        |

```
      00 01 02 03 04 05 06 07  08 09 0A 0B 0C 0D 0E 0F
      -- -- -- -- -- -- -- --  -- -- -- -- -- -- -- --
07E0:                      42  45 00 80 F8 FF FF 7F F8         BE.......
07F0: FF FF 7F 66 64 6F 31 01  80 55 00 80 F8 FF FF 7F  ...fdo1..U......
0800: F8 FF FF 7F 66 64 6F 31  46 01 38 02 80 29 0A F0  ....fdo1F.8..)..
0810: FF FF 7F 0F 27 0A 35 21  03 01 1E 80 35 21 03 01  ....'.5!....5!..
0820: 92 01 35 21 03 01 1C 03  80 45 04 80 F8 FF FF 7F  ..5!.....E......
0830: F8 FF FF 7F 73 32 37 6A  01 80 45 00 80 F8 FF FF  ....s27j..E.....
0840: 7F F8 FF FF 7F 66 64 69  31 01 80 2B 35 21 03 01  .....fdi1..+5!..
0850: 44 80 23 6E 35 21 03 01  08 80 99 35 21 03 01 99  D.#n5!.....5!...
0860: 35 21 03 01 27 0A 35 21  03 01 21 2B 35 21 03 01  5!..'.5!..!+5!..
0870: 45 80 23 2A 0A 35 21 03  01 66 2F 80 35 21 03 01  E.#*.5!..f/.5!..
0880: 35 21 03 01 74 6C 6B 30  2B 35 21 03 01 46 80 23  5!..tlk0+5!..F.#
0890: 66 2F 80 35 21 03 01 35  21 03 01 74 6C 6B 31 53  f/.5!..5!..tlk1S
08A0: 35 21 03 01 35 21 03 01  74 6C 6B 31 6E 35 21 03  5!..5!..tlk1n5!.
08B0: 01 17 80 99 35 21 03 01  99 35 21 03 01 52 04 80  ....5!...5!..R..
08C0: F8 FF FF 7F F8 FF FF 7F  73 32 37 6A 45 04 80 F8  ........s27jE...
08D0: FF FF 7F F8 FF FF 7F 73  32 37 6B 01 80 27 0A 35  .......s27k..'.5
08E0: 21 03 01 21 2B 35 21 03  01 47 80 23 2A 0A 35 21  !..!+5!..G.#*.5!
08F0: 03 01 52 04 80 F8 FF FF  7F F8 FF FF 7F 73 32 37  ..R..........s27
0900: 6B 45 04 80 F8 FF FF 7F  F8 FF FF 7F 73 32 37 6C  kE..........s27l
0910: 01 80 6E 35 21 03 01 48  80 99 35 21 03 01 99 35  ..n5!..H..5!...5
0920: 21 03 01 2B 35 21 03 01  49 80 23 6E 35 21 03 01  !..+5!..I.#n5!..
0930: 48 80 99 35 21 03 01 99  35 21 03 01 27 0A 35 21  H..5!...5!..'.5!
0940: 03 01 21 2B 35 21 03 01  4A 80 23 2A 0A 35 21 03  ..!+5!..J.#*.5!.
0950: 01 52 04 80 F8 FF FF 7F  F8 FF FF 7F 73 32 37 6C  .R..........s27l
0960: 45 04 80 F8 FF FF 7F F8  FF FF 7F 73 32 37 6B 01  E..........s27k.
0970: 80 66 2F 80 35 21 03 01  35 21 03 01 74 6C 6B 30  .f/.5!..5!..tlk0
0980: 2B 35 21 03 01 4B 80 23  66 2F 80 35 21 03 01 35  +5!..K.#f/.5!..5
0990: 21 03 01 74 6C 6B 31 2B  35 21 03 01 4C 80 23 53  !..tlk1+5!..L.#S
09A0: 35 21 03 01 35 21 03 01  74 6C 6B 31 52 04 80 F8  5!..5!..tlk1R...
09B0: FF FF 7F F8 FF FF 7F 73  32 37 6B 45 04 80 F8 FF  .......s27kE....
09C0: FF 7F F8 FF FF 7F 73 32  37 6D 01 80 4B 35 21 03  ......s27m..K5!.
09D0: 01 01 80 2B 35 21 03 01  4D 80 23 6F 76 35 21 03  ...+5!..M.#ov5!.
09E0: 01 4A 35 21 03 01 F0 FF  FF 7F 2B 35 21 03 01 4E  .J5!......+5!..N
09F0: 80 23 66 2F 80 35 21 03  01 35 21 03 01 74 6C 6B  .#f/.5!..5!..tlk
0A00: 30 2B 35 21 03 01 4F 80  23 53 35 21 03 01 35 21  0+5!..O.#S5!..5!
0A10: 03 01 74 6C 6B 30 52 04  80 F8 FF FF 7F F8 FF FF  ..tlk0R.........
0A20: 7F 73 32 37 6D 45 04 80  F8 FF FF 7F F8 FF FF 7F  .s27mE..........
0A30: 73 32 37 6B 01 80 66 2F  80 35 21 03 01 35 21 03  s27k..f/.5!..5!.
0A40: 01 74 6C 6B 31 2B 35 21  03 01 50 80 23 53 35 21  .tlk1+5!..P.#S5!
0A50: 03 01 35 21 03 01 74 6C  6B 31 6E 35 21 03 01 42  ..5!..tlk1n5!..B
0A60: 80 99 35 21 03 01 99 35  21 03 01 2B 35 21 03 01  ..5!...5!..+5!..
0A70: 51 80 23 45 00 80 F8 FF  FF 7F F8 FF FF 7F 66 64  Q.#E..........fd
0A80: 6F 31 01 80 55 00 80 F8  FF FF 7F F8 FF FF 7F 66  o1..U..........f
0A90: 64 6F 31 29 0A 35 21 03  01 1D 29 0A 35 21 03 01  do1).5!...).5!..
0AA0: 1F 52 04 80 F8 FF FF 7F  F8 FF FF 7F 73 32 37 6B  .R..........s27k
0AB0: 46 00 45 00 80 F8 FF FF  7F F8 FF FF 7F 66 64 69  F.E..........fdi
0AC0: 31 01 80 45 52 80 F8 FF  FF 7F F8 FF FF 7F 71 73  1..ER.........qs
0AD0: 74 63 01 80 21 00                                 tc..!.          
```

#### Opcodes

```
  0: 0x07E7 [0x42] SET_CLI_EVENT_CANCEL_DATA()
  1: 0x07E8 [0x45] LOAD_SCHEDULED_TASK: Load scheduler "fdo1" with entities [EventEntity, EventEntity], work=[200*, 0*]
  2: 0x07F9 [0x55] WAIT_LOAD_SCHEDULER: Wait for scheduler "fdo1" with entities [EventEntity, EventEntity], work=200*
  3: 0x0808 [0x46] CAMERA_CONTROL: Disable user control
  4: 0x080A [0x38] SET_CLIENT_EVENT_MODE(mode=19*)
  5: 0x080D [0x29] REQ_SET_WAIT(priority=0x0A, entity_id=LocalPlayer, tag_num=0x0F)
  6: 0x0814 [0x27] REQ_SET(priority=0x0A, entity_id=Iruki-Waraki (ID: 16982325/0x01032135), tag_num=0x1E)
  7: 0x081B [0x80] LOAD_WAIT(entity=Iruki-Waraki (ID: 16982325/0x01032135))
  8: 0x0820 [0x92] Iruki-Waraki (ID: 16982325/0x01032135)->Render.Flags3 ^= 0x01
  9: 0x0826 [0x1C] WAIT(120* ticks)
 10: 0x0829 [0x45] LOAD_SCHEDULED_TASK: Load scheduler "s27j" with entities [EventEntity, EventEntity], work=[35*, 0*]
 11: 0x083A [0x45] LOAD_SCHEDULED_TASK: Load scheduler "fdi1" with entities [EventEntity, EventEntity], work=[200*, 0*]
 12: 0x084B [0x2B] Iruki-Waraki (ID: 16982325/0x01032135) [5918*]:
    → "So how did it go? No luck at all here...\u007F1\u0000\u0007"
 13: 0x0852 [0x23] WAIT_FOR_DIALOG_INTERACTION
 14: 0x0853 [0x6E] Iruki-Waraki (ID: 16982325/0x01032135) uses emote 32*
 15: 0x085A [0x99] Wait for Iruki-Waraki (ID: 16982325/0x01032135) animation to complete
 16: 0x085F [0x99] Wait for Iruki-Waraki (ID: 16982325/0x01032135) animation to complete
 17: 0x0864 [0x27] REQ_SET(priority=0x0A, entity_id=Iruki-Waraki (ID: 16982325/0x01032135), tag_num=0x21)
 18: 0x086B [0x2B] Iruki-Waraki (ID: 16982325/0x01032135) [5919*]:
    → "Everyone in this town just has a different shape to their hips...totally not what I'm looking for...\u0007Ah, of course I'm talking about automatons!\u007F1\u0000\u0007"
 19: 0x0872 [0x23] WAIT_FOR_DIALOG_INTERACTION
 20: 0x0873 [0x2A] GET_REQ_LEVEL(level=10, entity_id=Iruki-Waraki (ID: 16982325/0x01032135))
 21: 0x0879 [0x66] LOAD_EXT_SCHEDULER_MAIN: Load scheduler "tlk0" with entities [Iruki-Waraki (ID: 16982325/0x01032135), Iruki-Waraki (ID: 16982325/0x01032135)], work=49*
 22: 0x0888 [0x2B] Iruki-Waraki (ID: 16982325/0x01032135) [5920*]:
    → "So you couldn't find anything either, could you?\u007F1\u0000\u0007"
 23: 0x088F [0x23] WAIT_FOR_DIALOG_INTERACTION
 24: 0x0890 [0x66] LOAD_EXT_SCHEDULER_MAIN: Load scheduler "tlk1" with entities [Iruki-Waraki (ID: 16982325/0x01032135), Iruki-Waraki (ID: 16982325/0x01032135)], work=49*
 25: 0x089F [0x53] WAIT_SCHEDULER_TASK: Wait for scheduler "tlk1" with entities [Iruki-Waraki (ID: 16982325/0x01032135), Iruki-Waraki (ID: 16982325/0x01032135)]
 26: 0x08AC [0x6E] Iruki-Waraki (ID: 16982325/0x01032135) uses emote 21*
 27: 0x08B3 [0x99] Wait for Iruki-Waraki (ID: 16982325/0x01032135) animation to complete
 28: 0x08B8 [0x99] Wait for Iruki-Waraki (ID: 16982325/0x01032135) animation to complete
 29: 0x08BD [0x52] END_LOAD_SCHEDULER: End scheduler "s27j" with entities [EventEntity, EventEntity], work=35*
 30: 0x08CC [0x45] LOAD_SCHEDULED_TASK: Load scheduler "s27k" with entities [EventEntity, EventEntity], work=[35*, 0*]
 31: 0x08DD [0x27] REQ_SET(priority=0x0A, entity_id=Iruki-Waraki (ID: 16982325/0x01032135), tag_num=0x21)
 32: 0x08E4 [0x2B] Iruki-Waraki (ID: 16982325/0x01032135) [5921*]:
    → "What!?\u0007You found an automaton that fit my description?\u007F1\u0000\u0007"
 33: 0x08EB [0x23] WAIT_FOR_DIALOG_INTERACTION
 34: 0x08EC [0x2A] GET_REQ_LEVEL(level=10, entity_id=Iruki-Waraki (ID: 16982325/0x01032135))
 35: 0x08F2 [0x52] END_LOAD_SCHEDULER: End scheduler "s27k" with entities [EventEntity, EventEntity], work=35*
 36: 0x0901 [0x45] LOAD_SCHEDULED_TASK: Load scheduler "s27l" with entities [EventEntity, EventEntity], work=[35*, 0*]
 37: 0x0912 [0x6E] Iruki-Waraki (ID: 16982325/0x01032135) uses emote 7*
 38: 0x0919 [0x99] Wait for Iruki-Waraki (ID: 16982325/0x01032135) animation to complete
 39: 0x091E [0x99] Wait for Iruki-Waraki (ID: 16982325/0x01032135) animation to complete
 40: 0x0923 [0x2B] Iruki-Waraki (ID: 16982325/0x01032135) [5922*]:
    → "Hmmm...\u0007An automaton with a foul mouth...fluent in the common tongue...\u007F1\u0000\u0007"
 41: 0x092A [0x23] WAIT_FOR_DIALOG_INTERACTION
 42: 0x092B [0x6E] Iruki-Waraki (ID: 16982325/0x01032135) uses emote 7*
 43: 0x0932 [0x99] Wait for Iruki-Waraki (ID: 16982325/0x01032135) animation to complete
 44: 0x0937 [0x99] Wait for Iruki-Waraki (ID: 16982325/0x01032135) animation to complete
 45: 0x093C [0x27] REQ_SET(priority=0x0A, entity_id=Iruki-Waraki (ID: 16982325/0x01032135), tag_num=0x21)
 46: 0x0943 [0x2B] Iruki-Waraki (ID: 16982325/0x01032135) [5923*]:
    → "And accompanied by a bald Hume? That sounds like...no, that must be my automaton!\u007F1\u0000\u0007"
 47: 0x094A [0x23] WAIT_FOR_DIALOG_INTERACTION
 48: 0x094B [0x2A] GET_REQ_LEVEL(level=10, entity_id=Iruki-Waraki (ID: 16982325/0x01032135))
 49: 0x0951 [0x52] END_LOAD_SCHEDULER: End scheduler "s27l" with entities [EventEntity, EventEntity], work=35*
 50: 0x0960 [0x45] LOAD_SCHEDULED_TASK: Load scheduler "s27k" with entities [EventEntity, EventEntity], work=[35*, 0*]
 51: 0x0971 [0x66] LOAD_EXT_SCHEDULER_MAIN: Load scheduler "tlk0" with entities [Iruki-Waraki (ID: 16982325/0x01032135), Iruki-Waraki (ID: 16982325/0x01032135)], work=49*
 52: 0x0980 [0x2B] Iruki-Waraki (ID: 16982325/0x01032135) [5924*]:
    → "Well, how was it? Did everything seem okay?\u007F1\u0000\u0007"
 53: 0x0987 [0x23] WAIT_FOR_DIALOG_INTERACTION
 54: 0x0988 [0x66] LOAD_EXT_SCHEDULER_MAIN: Load scheduler "tlk1" with entities [Iruki-Waraki (ID: 16982325/0x01032135), Iruki-Waraki (ID: 16982325/0x01032135)], work=49*
 55: 0x0997 [0x2B] Iruki-Waraki (ID: 16982325/0x01032135) [5925*]:
    → "What!?\u0007It had the bald Hume at its beck and call?\u007F1\u0000\u0007"
 56: 0x099E [0x23] WAIT_FOR_DIALOG_INTERACTION
 57: 0x099F [0x53] WAIT_SCHEDULER_TASK: Wait for scheduler "tlk1" with entities [Iruki-Waraki (ID: 16982325/0x01032135), Iruki-Waraki (ID: 16982325/0x01032135)]
 58: 0x09AC [0x52] END_LOAD_SCHEDULER: End scheduler "s27k" with entities [EventEntity, EventEntity], work=35*
 59: 0x09BB [0x45] LOAD_SCHEDULED_TASK: Load scheduler "s27m" with entities [EventEntity, EventEntity], work=[35*, 0*]
 60: 0x09CC [0x4B] UPDATE_ENTITY_YAW(entity=Iruki-Waraki (ID: 16982325/0x01032135), yaw=0.0°*)
 61: 0x09D3 [0x2B] Iruki-Waraki (ID: 16982325/0x01032135) [5926*]:
    → "...I should have known.\u0007I was a fool for worrying.\u007F1\u0000\u0007"
 62: 0x09DA [0x23] WAIT_FOR_DIALOG_INTERACTION
 63: 0x09DB [0x6F] WAIT_FRAME_DELAY: Yield until WaitTime reaches zero
 64: 0x09DC [0x76] CHECK_ENTITY_RENDER_FLAGS: Wait until Iruki-Waraki (ID: 16982325/0x01032135) Render.Flags0 and Render.Flags3 conditions are met
 65: 0x09E1 [0x4A] Iruki-Waraki (ID: 16982325/0x01032135) looks at LocalPlayer
 66: 0x09EA [0x2B] Iruki-Waraki (ID: 16982325/0x01032135) [5927*]:
    → "Anyway, just knowing that my automaton is well is all the information I need for now.\u007F1\u0000\u0007"
 67: 0x09F1 [0x23] WAIT_FOR_DIALOG_INTERACTION
 68: 0x09F2 [0x66] LOAD_EXT_SCHEDULER_MAIN: Load scheduler "tlk0" with entities [Iruki-Waraki (ID: 16982325/0x01032135), Iruki-Waraki (ID: 16982325/0x01032135)], work=49*
 69: 0x0A01 [0x2B] Iruki-Waraki (ID: 16982325/0x01032135) [5928*]:
    → "Thanks for your help. Here's a little token of thanks for your time.\u007F1\u0000\u0007"
 70: 0x0A08 [0x23] WAIT_FOR_DIALOG_INTERACTION
 71: 0x0A09 [0x53] WAIT_SCHEDULER_TASK: Wait for scheduler "tlk0" with entities [Iruki-Waraki (ID: 16982325/0x01032135), Iruki-Waraki (ID: 16982325/0x01032135)]
 72: 0x0A16 [0x52] END_LOAD_SCHEDULER: End scheduler "s27m" with entities [EventEntity, EventEntity], work=35*
 73: 0x0A25 [0x45] LOAD_SCHEDULED_TASK: Load scheduler "s27k" with entities [EventEntity, EventEntity], work=[35*, 0*]
 74: 0x0A36 [0x66] LOAD_EXT_SCHEDULER_MAIN: Load scheduler "tlk1" with entities [Iruki-Waraki (ID: 16982325/0x01032135), Iruki-Waraki (ID: 16982325/0x01032135)], work=49*
 75: 0x0A45 [0x2B] Iruki-Waraki (ID: 16982325/0x01032135) [5929*]:
    → "Master Shamarhaan gave this to me, but I've never had the chance to use it... You'd probably appreciate it more than I could.\u007F1\u0000\u0007"
 76: 0x0A4C [0x23] WAIT_FOR_DIALOG_INTERACTION
 77: 0x0A4D [0x53] WAIT_SCHEDULER_TASK: Wait for scheduler "tlk1" with entities [Iruki-Waraki (ID: 16982325/0x01032135), Iruki-Waraki (ID: 16982325/0x01032135)]
 78: 0x0A5A [0x6E] Iruki-Waraki (ID: 16982325/0x01032135) uses emote 9*
 79: 0x0A61 [0x99] Wait for Iruki-Waraki (ID: 16982325/0x01032135) animation to complete
 80: 0x0A66 [0x99] Wait for Iruki-Waraki (ID: 16982325/0x01032135) animation to complete
 81: 0x0A6B [0x2B] Iruki-Waraki (ID: 16982325/0x01032135) [5930*]:
    → "If anything else comes up, just let me know!\u007F1\u0000\u0007"
 82: 0x0A72 [0x23] WAIT_FOR_DIALOG_INTERACTION
 83: 0x0A73 [0x45] LOAD_SCHEDULED_TASK: Load scheduler "fdo1" with entities [EventEntity, EventEntity], work=[200*, 0*]
 84: 0x0A84 [0x55] WAIT_LOAD_SCHEDULER: Wait for scheduler "fdo1" with entities [EventEntity, EventEntity], work=200*
 85: 0x0A93 [0x29] REQ_SET_WAIT(priority=0x0A, entity_id=Iruki-Waraki (ID: 16982325/0x01032135), tag_num=0x1D)
 86: 0x0A9A [0x29] REQ_SET_WAIT(priority=0x0A, entity_id=Iruki-Waraki (ID: 16982325/0x01032135), tag_num=0x1F)
 87: 0x0AA1 [0x52] END_LOAD_SCHEDULER: End scheduler "s27k" with entities [EventEntity, EventEntity], work=35*
 88: 0x0AB0 [0x46] CAMERA_CONTROL: Restore default settings
 89: 0x0AB2 [0x45] LOAD_SCHEDULED_TASK: Load scheduler "fdi1" with entities [EventEntity, EventEntity], work=[200*, 0*]
 90: 0x0AC3 [0x45] LOAD_SCHEDULED_TASK: Load scheduler "qstc" with entities [EventEntity, EventEntity], work=[201*, 0*]
 91: 0x0AD4 [0x21] END_EVENT
 92: 0x0AD5 [0x00] END_REQSTACK()
```

### Event 778

#### Metadata

| Field        | Value     |
|--------------|-----------|
| Entrypoint   | 0x0AD6    |
| Data Size    | 642 bytes |
| Instructions | 88        |

```
      00 01 02 03 04 05 06 07  08 09 0A 0B 0C 0D 0E 0F
      -- -- -- -- -- -- -- --  -- -- -- -- -- -- -- --
0AD0:                   42 45  00 80 F8 FF FF 7F F8 FF        BE........
0AE0: FF 7F 66 64 6F 31 01 80  55 00 80 F8 FF FF 7F F8  ..fdo1..U.......
0AF0: FF FF 7F 66 64 6F 31 46  01 38 02 80 29 0A F0 FF  ...fdo1F.8..)...
0B00: FF 7F 95 29 10 35 21 03  01 15 27 0A 35 21 03 01  ...).5!...'.5!..
0B10: 1E 80 35 21 03 01 1C 03  80 92 01 35 21 03 01 80  ..5!.......5!...
0B20: F0 FF FF 7F 80 35 21 03  01 4A F0 FF FF 7F 35 21  .....5!..J....5!
0B30: 03 01 1C 53 80 45 54 80  F0 FF FF 7F F0 FF FF 7F  ...S.ET.........
0B40: 77 30 30 30 01 80 45 00  80 F8 FF FF 7F F8 FF FF  w000..E.........
0B50: 7F 66 64 69 31 01 80 1C  1F 80 6E 35 21 03 01 48  .fdi1.....n5!..H
0B60: 80 99 35 21 03 01 99 35  21 03 01 27 0A 35 21 03  ..5!...5!..'.5!.
0B70: 01 21 2B 35 21 03 01 55  80 23 1C 1F 80 2A 0A 35  .!+5!..U.#...*.5
0B80: 21 03 01 52 54 80 F0 FF  FF 7F F0 FF FF 7F 77 30  !..RT.........w0
0B90: 30 30 45 54 80 F0 FF FF  7F F0 FF FF 7F 77 30 30  00ET.........w00
0BA0: 31 01 80 1C 53 80 4A 35  21 03 01 F0 FF FF 7F 2B  1...S.J5!......+
0BB0: 35 21 03 01 56 80 23 1C  1F 80 52 54 80 F0 FF FF  5!..V.#...RT....
0BC0: 7F F0 FF FF 7F 77 30 30  31 45 54 80 F0 FF FF 7F  .....w001ET.....
0BD0: F0 FF FF 7F 77 30 30 32  01 80 66 2F 80 35 21 03  ....w002..f/.5!.
0BE0: 01 35 21 03 01 74 6C 6B  30 1C 53 80 2B 35 21 03  .5!..tlk0.S.+5!.
0BF0: 01 57 80 23 2B 35 21 03  01 58 80 23 1C 53 80 2B  .W.#+5!..X.#.S.+
0C00: 35 21 03 01 59 80 23 52  54 80 F0 FF FF 7F F0 FF  5!..Y.#RT.......
0C10: FF 7F 77 30 30 32 45 54  80 F0 FF FF 7F F0 FF FF  ..w002ET........
0C20: 7F 77 30 30 33 01 80 66  2F 80 35 21 03 01 35 21  .w003..f/.5!..5!
0C30: 03 01 74 6C 6B 31 2B 35  21 03 01 5A 80 23 24 5B  ..tlk1+5!..Z.#$[
0C40: 80 01 80 01 80 25 02 00  10 01 80 00 51 0C 01 51  .....%......Q..Q
0C50: 0C 52 54 80 F0 FF FF 7F  F0 FF FF 7F 77 30 30 33  .RT.........w003
0C60: 45 54 80 F0 FF FF 7F F0  FF FF 7F 77 30 30 34 01  ET.........w004.
0C70: 80 6E 35 21 03 01 5C 80  99 35 21 03 01 99 35 21  .n5!..\..5!...5!
0C80: 03 01 27 0A 35 21 03 01  21 2B 35 21 03 01 5D 80  ..'.5!..!+5!..].
0C90: 23 1C 53 80 03 02 10 5E  80 03 03 10 5F 80 2A 0A  #.S....^...._.*.
0CA0: 35 21 03 01 66 2F 80 35  21 03 01 35 21 03 01 74  5!..f/.5!..5!..t
0CB0: 6C 6B 30 2B 35 21 03 01  60 80 23 1C 53 80 52 54  lk0+5!..`.#.S.RT
0CC0: 80 F0 FF FF 7F F0 FF FF  7F 77 30 30 34 45 54 80  .........w004ET.
0CD0: F0 FF FF 7F F0 FF FF 7F  77 30 30 35 01 80 1C 53  ........w005...S
0CE0: 80 2B 35 21 03 01 61 80  23 2B 35 21 03 01 62 80  .+5!..a.#+5!..b.
0CF0: 23 66 2F 80 35 21 03 01  35 21 03 01 74 6C 6B 31  #f/.5!..5!..tlk1
0D00: 1C 1F 80 45 00 80 F8 FF  FF 7F F8 FF FF 7F 66 64  ...E..........fd
0D10: 6F 31 01 80 55 00 80 F8  FF FF 7F F8 FF FF 7F 66  o1..U..........f
0D20: 64 6F 31 52 54 80 F0 FF  FF 7F F0 FF FF 7F 77 30  do1RT.........w0
0D30: 30 35 29 0A 35 21 03 01  1D 29 0A 35 21 03 01 1F  05).5!...).5!...
0D40: 46 00 1C 1F 80 45 00 80  F8 FF FF 7F F8 FF FF 7F  F....E..........
0D50: 66 64 69 31 01 80 21 00                           fdi1..!.        
```

#### Opcodes

```
  0: 0x0AD6 [0x42] SET_CLI_EVENT_CANCEL_DATA()
  1: 0x0AD7 [0x45] LOAD_SCHEDULED_TASK: Load scheduler "fdo1" with entities [EventEntity, EventEntity], work=[200*, 0*]
  2: 0x0AE8 [0x55] WAIT_LOAD_SCHEDULER: Wait for scheduler "fdo1" with entities [EventEntity, EventEntity], work=200*
  3: 0x0AF7 [0x46] CAMERA_CONTROL: Disable user control
  4: 0x0AF9 [0x38] SET_CLIENT_EVENT_MODE(mode=19*)
  5: 0x0AFC [0x29] REQ_SET_WAIT(priority=0x0A, entity_id=LocalPlayer, tag_num=0x95)
  6: 0x0B03 [0x29] REQ_SET_WAIT(priority=0x10, entity_id=Iruki-Waraki (ID: 16982325/0x01032135), tag_num=0x15)
  7: 0x0B0A [0x27] REQ_SET(priority=0x0A, entity_id=Iruki-Waraki (ID: 16982325/0x01032135), tag_num=0x1E)
  8: 0x0B11 [0x80] LOAD_WAIT(entity=Iruki-Waraki (ID: 16982325/0x01032135))
  9: 0x0B16 [0x1C] WAIT(120* ticks)
 10: 0x0B19 [0x92] Iruki-Waraki (ID: 16982325/0x01032135)->Render.Flags3 ^= 0x01
 11: 0x0B1F [0x80] LOAD_WAIT(entity=LocalPlayer)
 12: 0x0B24 [0x80] LOAD_WAIT(entity=Iruki-Waraki (ID: 16982325/0x01032135))
 13: 0x0B29 [0x4A] LocalPlayer looks at Iruki-Waraki (ID: 16982325/0x01032135)
 14: 0x0B32 [0x1C] WAIT(30* ticks)
 15: 0x0B35 [0x45] LOAD_SCHEDULED_TASK: Load scheduler "w000" with entities [LocalPlayer, LocalPlayer], work=[286*, 0*]
 16: 0x0B46 [0x45] LOAD_SCHEDULED_TASK: Load scheduler "fdi1" with entities [EventEntity, EventEntity], work=[200*, 0*]
 17: 0x0B57 [0x1C] WAIT(60* ticks)
 18: 0x0B5A [0x6E] Iruki-Waraki (ID: 16982325/0x01032135) uses emote 7*
 19: 0x0B61 [0x99] Wait for Iruki-Waraki (ID: 16982325/0x01032135) animation to complete
 20: 0x0B66 [0x99] Wait for Iruki-Waraki (ID: 16982325/0x01032135) animation to complete
 21: 0x0B6B [0x27] REQ_SET(priority=0x0A, entity_id=Iruki-Waraki (ID: 16982325/0x01032135), tag_num=0x21)
 22: 0x0B72 [0x2B] Iruki-Waraki (ID: 16982325/0x01032135) [5931*]:
    → "It's a foolproof plan! I'm a genius!\u007F1\u0000\u0007"
 23: 0x0B79 [0x23] WAIT_FOR_DIALOG_INTERACTION
 24: 0x0B7A [0x1C] WAIT(60* ticks)
 25: 0x0B7D [0x2A] GET_REQ_LEVEL(level=10, entity_id=Iruki-Waraki (ID: 16982325/0x01032135))
 26: 0x0B83 [0x52] END_LOAD_SCHEDULER: End scheduler "w000" with entities [LocalPlayer, LocalPlayer], work=286*
 27: 0x0B92 [0x45] LOAD_SCHEDULED_TASK: Load scheduler "w001" with entities [LocalPlayer, LocalPlayer], work=[286*, 0*]
 28: 0x0BA3 [0x1C] WAIT(30* ticks)
 29: 0x0BA6 [0x4A] Iruki-Waraki (ID: 16982325/0x01032135) looks at LocalPlayer
 30: 0x0BAF [0x2B] Iruki-Waraki (ID: 16982325/0x01032135) [5932*]:
    → "Oh...you again!\u0007You always have such great timing...\u007F1\u0000\u0007"
 31: 0x0BB6 [0x23] WAIT_FOR_DIALOG_INTERACTION
 32: 0x0BB7 [0x1C] WAIT(60* ticks)
 33: 0x0BBA [0x52] END_LOAD_SCHEDULER: End scheduler "w001" with entities [LocalPlayer, LocalPlayer], work=286*
 34: 0x0BC9 [0x45] LOAD_SCHEDULED_TASK: Load scheduler "w002" with entities [LocalPlayer, LocalPlayer], work=[286*, 0*]
 35: 0x0BDA [0x66] LOAD_EXT_SCHEDULER_MAIN: Load scheduler "tlk0" with entities [Iruki-Waraki (ID: 16982325/0x01032135), Iruki-Waraki (ID: 16982325/0x01032135)], work=49*
 36: 0x0BE9 [0x1C] WAIT(30* ticks)
 37: 0x0BEC [0x2B] Iruki-Waraki (ID: 16982325/0x01032135) [5933*]:
    → "I've been thinking of a way to get my automaton back.\u007F1\u0000\u0007"
 38: 0x0BF3 [0x23] WAIT_FOR_DIALOG_INTERACTION
 39: 0x0BF4 [0x2B] Iruki-Waraki (ID: 16982325/0x01032135) [5934*]:
    → "It would be nice if this could all be solved by talking it out, but the thief knows me... As soon as he catches sight of my face, he's sure to take off at top speed.\u007F1\u0000\u0007"
 40: 0x0BFB [0x23] WAIT_FOR_DIALOG_INTERACTION
 41: 0x0BFC [0x1C] WAIT(30* ticks)
 42: 0x0BFF [0x2B] Iruki-Waraki (ID: 16982325/0x01032135) [5935*]:
    → "It would bring all our efforts to nothing if he escaped, so I've been hard at work formulating a foolproof strategy to recover what is rightfully mine.\u007F1\u0000\u0007"
 43: 0x0C06 [0x23] WAIT_FOR_DIALOG_INTERACTION
 44: 0x0C07 [0x52] END_LOAD_SCHEDULER: End scheduler "w002" with entities [LocalPlayer, LocalPlayer], work=286*
 45: 0x0C16 [0x45] LOAD_SCHEDULED_TASK: Load scheduler "w003" with entities [LocalPlayer, LocalPlayer], work=[286*, 0*]
 46: 0x0C27 [0x66] LOAD_EXT_SCHEDULER_MAIN: Load scheduler "tlk1" with entities [Iruki-Waraki (ID: 16982325/0x01032135), Iruki-Waraki (ID: 16982325/0x01032135)], work=49*
 47: 0x0C36 [0x2B] Iruki-Waraki (ID: 16982325/0x01032135) [5936*]:
    → "I can't do it without you, though. You will help me, right?\u007F1\u0000\u0007"
 48: 0x0C3D [0x23] WAIT_FOR_DIALOG_INTERACTION
 49: 0x0C3E [0x24] CREATE_DIALOG(message_id=5937*, default_option=0*, option_flags=0*)
    → "Help him out?\u0007\u000BOf course!\u0007Don't feel like it...\u007F1\u0000\u0007"
 50: 0x0C45 [0x25] WAIT_DIALOG_SELECT()
 51: 0x0C46 [0x02] IF !(Work_Zone[0] == 0*) GOTO 0x0C51
 52: 0x0C4E [0x01] GOTO 0x0C51

SUBROUTINE_0C51:
 53: 0x0C51 [0x52] END_LOAD_SCHEDULER: End scheduler "w003" with entities [LocalPlayer, LocalPlayer], work=286*
 54: 0x0C60 [0x45] LOAD_SCHEDULED_TASK: Load scheduler "w004" with entities [LocalPlayer, LocalPlayer], work=[286*, 0*]
 55: 0x0C71 [0x6E] Iruki-Waraki (ID: 16982325/0x01032135) uses emote 11*
 56: 0x0C78 [0x99] Wait for Iruki-Waraki (ID: 16982325/0x01032135) animation to complete
 57: 0x0C7D [0x99] Wait for Iruki-Waraki (ID: 16982325/0x01032135) animation to complete
 58: 0x0C82 [0x27] REQ_SET(priority=0x0A, entity_id=Iruki-Waraki (ID: 16982325/0x01032135), tag_num=0x21)
 59: 0x0C89 [0x2B] Iruki-Waraki (ID: 16982325/0x01032135) [5938*]:
    → "It's settled, then!\u0007First, we've got to make the preparations...\u007F1\u0000\u0007"
 60: 0x0C90 [0x23] WAIT_FOR_DIALOG_INTERACTION
 61: 0x0C91 [0x1C] WAIT(30* ticks)
 62: 0x0C94 [0x03] Work_Zone[2] = 4161*
 63: 0x0C99 [0x03] Work_Zone[3] = 5570*
 64: 0x0C9E [0x2A] GET_REQ_LEVEL(level=10, entity_id=Iruki-Waraki (ID: 16982325/0x01032135))
 65: 0x0CA4 [0x66] LOAD_EXT_SCHEDULER_MAIN: Load scheduler "tlk0" with entities [Iruki-Waraki (ID: 16982325/0x01032135), Iruki-Waraki (ID: 16982325/0x01032135)], work=49*
 66: 0x0CB3 [0x2B] Iruki-Waraki (ID: 16982325/0x01032135) [5939*]:
    → "I need you to bring me \u0001\u0001\u0001 \u0001\u0005$\u0002\u0000\u0000\u0000 and \u0001\u0001\u0001 \u0001\u0005$\u0002\u0001\u0000\u0000.\u007F1\u0000\u0007"
 67: 0x0CBA [0x23] WAIT_FOR_DIALOG_INTERACTION
 68: 0x0CBB [0x1C] WAIT(30* ticks)
 69: 0x0CBE [0x52] END_LOAD_SCHEDULER: End scheduler "w004" with entities [LocalPlayer, LocalPlayer], work=286*
 70: 0x0CCD [0x45] LOAD_SCHEDULED_TASK: Load scheduler "w005" with entities [LocalPlayer, LocalPlayer], work=[286*, 0*]
 71: 0x0CDE [0x1C] WAIT(30* ticks)
 72: 0x0CE1 [0x2B] Iruki-Waraki (ID: 16982325/0x01032135) [5940*]:
    → "Give them to me as soon as you can find them. In the meantime, I'll be busy gathering the other necessary items...\u007F1\u0000\u0007"
 73: 0x0CE8 [0x23] WAIT_FOR_DIALOG_INTERACTION
 74: 0x0CE9 [0x2B] Iruki-Waraki (ID: 16982325/0x01032135) [5941*]:
    → "I'll let you know the details of the plan after the preparations are complete. Good luck!\u007F1\u0000\u0007"
 75: 0x0CF0 [0x23] WAIT_FOR_DIALOG_INTERACTION
 76: 0x0CF1 [0x66] LOAD_EXT_SCHEDULER_MAIN: Load scheduler "tlk1" with entities [Iruki-Waraki (ID: 16982325/0x01032135), Iruki-Waraki (ID: 16982325/0x01032135)], work=49*
 77: 0x0D00 [0x1C] WAIT(60* ticks)
 78: 0x0D03 [0x45] LOAD_SCHEDULED_TASK: Load scheduler "fdo1" with entities [EventEntity, EventEntity], work=[200*, 0*]
 79: 0x0D14 [0x55] WAIT_LOAD_SCHEDULER: Wait for scheduler "fdo1" with entities [EventEntity, EventEntity], work=200*
 80: 0x0D23 [0x52] END_LOAD_SCHEDULER: End scheduler "w005" with entities [LocalPlayer, LocalPlayer], work=286*
 81: 0x0D32 [0x29] REQ_SET_WAIT(priority=0x0A, entity_id=Iruki-Waraki (ID: 16982325/0x01032135), tag_num=0x1D)
 82: 0x0D39 [0x29] REQ_SET_WAIT(priority=0x0A, entity_id=Iruki-Waraki (ID: 16982325/0x01032135), tag_num=0x1F)
 83: 0x0D40 [0x46] CAMERA_CONTROL: Restore default settings
 84: 0x0D42 [0x1C] WAIT(60* ticks)
 85: 0x0D45 [0x45] LOAD_SCHEDULED_TASK: Load scheduler "fdi1" with entities [EventEntity, EventEntity], work=[200*, 0*]
 86: 0x0D56 [0x21] END_EVENT
 87: 0x0D57 [0x00] END_REQSTACK()
```

### Event 780

#### Metadata

| Field        | Value     |
|--------------|-----------|
| Entrypoint   | 0x0D58    |
| Data Size    | 603 bytes |
| Instructions | 81        |

```
      00 01 02 03 04 05 06 07  08 09 0A 0B 0C 0D 0E 0F
      -- -- -- -- -- -- -- --  -- -- -- -- -- -- -- --
0D50:                          42 45 00 80 F8 FF FF 7F          BE......
0D60: F8 FF FF 7F 66 64 6F 31  01 80 55 00 80 F8 FF FF  ....fdo1..U.....
0D70: 7F F8 FF FF 7F 66 64 6F  31 46 01 38 02 80 29 10  .....fdo1F.8..).
0D80: 35 21 03 01 16 29 0A F0  FF FF 7F 95 27 0A 35 21  5!...)......'.5!
0D90: 03 01 1E 80 35 21 03 01  1C 03 80 92 01 35 21 03  ....5!.......5!.
0DA0: 01 80 F0 FF FF 7F 80 35  21 03 01 4A F0 FF FF 7F  .......5!..J....
0DB0: 35 21 03 01 4A 35 21 03  01 F0 FF FF 7F 1C 53 80  5!..J5!.......S.
0DC0: 45 54 80 F0 FF FF 7F F0  FF FF 7F 77 30 30 36 01  ET.........w006.
0DD0: 80 45 00 80 F8 FF FF 7F  F8 FF FF 7F 66 64 69 31  .E..........fdi1
0DE0: 01 80 1C 1F 80 66 2F 80  35 21 03 01 35 21 03 01  .....f/.5!..5!..
0DF0: 74 6C 6B 30 2B 35 21 03  01 63 80 23 1C 53 80 52  tlk0+5!..c.#.S.R
0E00: 54 80 F0 FF FF 7F F0 FF  FF 7F 77 30 30 36 45 54  T.........w006ET
0E10: 80 F0 FF FF 7F F0 FF FF  7F 77 30 30 37 01 80 1C  .........w007...
0E20: 53 80 66 2F 80 35 21 03  01 35 21 03 01 74 6C 6B  S.f/.5!..5!..tlk
0E30: 31 2B 35 21 03 01 64 80  23 53 35 21 03 01 35 21  1+5!..d.#S5!..5!
0E40: 03 01 74 6C 6B 31 66 2F  80 35 21 03 01 35 21 03  ..tlk1f/.5!..5!.
0E50: 01 74 6C 6B 30 2B 35 21  03 01 65 80 23 1C 53 80  .tlk0+5!..e.#.S.
0E60: 52 54 80 F0 FF FF 7F F0  FF FF 7F 77 30 30 37 45  RT.........w007E
0E70: 54 80 F0 FF FF 7F F0 FF  FF 7F 77 30 30 38 01 80  T.........w008..
0E80: 66 2F 80 35 21 03 01 35  21 03 01 74 6C 6B 31 1C  f/.5!..5!..tlk1.
0E90: 53 80 2B 35 21 03 01 66  80 23 53 35 21 03 01 35  S.+5!..f.#S5!..5
0EA0: 21 03 01 74 6C 6B 31 6E  35 21 03 01 67 80 99 35  !..tlk1n5!..g..5
0EB0: 21 03 01 99 35 21 03 01  2B 35 21 03 01 68 80 23  !...5!..+5!..h.#
0EC0: 1C 53 80 52 54 80 F0 FF  FF 7F F0 FF FF 7F 77 30  .S.RT.........w0
0ED0: 30 38 45 54 80 F0 FF FF  7F F0 FF FF 7F 77 30 30  08ET.........w00
0EE0: 39 01 80 1C 53 80 2B 35  21 03 01 69 80 23 2B 35  9...S.+5!..i.#+5
0EF0: 21 03 01 6A 80 23 1C 53  80 6E 35 21 03 01 6B 80  !..j.#.S.n5!..k.
0F00: 99 35 21 03 01 99 35 21  03 01 27 0A 35 21 03 01  .5!...5!..'.5!..
0F10: 21 2B 35 21 03 01 6C 80  23 1C 53 80 52 54 80 F0  !+5!..l.#.S.RT..
0F20: FF FF 7F F0 FF FF 7F 77  30 30 39 45 54 80 F0 FF  .......w009ET...
0F30: FF 7F F0 FF FF 7F 77 30  31 30 01 80 2A 0A 35 21  ......w010..*.5!
0F40: 03 01 6E 35 21 03 01 67  80 99 35 21 03 01 99 35  ..n5!..g..5!...5
0F50: 21 03 01 2B 35 21 03 01  6D 80 23 1C 1F 80 45 00  !..+5!..m.#...E.
0F60: 80 F8 FF FF 7F F8 FF FF  7F 66 64 6F 31 01 80 55  .........fdo1..U
0F70: 00 80 F8 FF FF 7F F8 FF  FF 7F 66 64 6F 31 52 54  ..........fdo1RT
0F80: 80 F0 FF FF 7F F0 FF FF  7F 77 30 31 30 29 0A 35  .........w010).5
0F90: 21 03 01 1D 29 0A 35 21  03 01 1F 46 00 1C 1F 80  !...).5!...F....
0FA0: 45 00 80 F8 FF FF 7F F8  FF FF 7F 66 64 69 31 01  E..........fdi1.
0FB0: 80 21 00                                          .!.             
```

#### Opcodes

```
  0: 0x0D58 [0x42] SET_CLI_EVENT_CANCEL_DATA()
  1: 0x0D59 [0x45] LOAD_SCHEDULED_TASK: Load scheduler "fdo1" with entities [EventEntity, EventEntity], work=[200*, 0*]
  2: 0x0D6A [0x55] WAIT_LOAD_SCHEDULER: Wait for scheduler "fdo1" with entities [EventEntity, EventEntity], work=200*
  3: 0x0D79 [0x46] CAMERA_CONTROL: Disable user control
  4: 0x0D7B [0x38] SET_CLIENT_EVENT_MODE(mode=19*)
  5: 0x0D7E [0x29] REQ_SET_WAIT(priority=0x10, entity_id=Iruki-Waraki (ID: 16982325/0x01032135), tag_num=0x16)
  6: 0x0D85 [0x29] REQ_SET_WAIT(priority=0x0A, entity_id=LocalPlayer, tag_num=0x95)
  7: 0x0D8C [0x27] REQ_SET(priority=0x0A, entity_id=Iruki-Waraki (ID: 16982325/0x01032135), tag_num=0x1E)
  8: 0x0D93 [0x80] LOAD_WAIT(entity=Iruki-Waraki (ID: 16982325/0x01032135))
  9: 0x0D98 [0x1C] WAIT(120* ticks)
 10: 0x0D9B [0x92] Iruki-Waraki (ID: 16982325/0x01032135)->Render.Flags3 ^= 0x01
 11: 0x0DA1 [0x80] LOAD_WAIT(entity=LocalPlayer)
 12: 0x0DA6 [0x80] LOAD_WAIT(entity=Iruki-Waraki (ID: 16982325/0x01032135))
 13: 0x0DAB [0x4A] LocalPlayer looks at Iruki-Waraki (ID: 16982325/0x01032135)
 14: 0x0DB4 [0x4A] Iruki-Waraki (ID: 16982325/0x01032135) looks at LocalPlayer
 15: 0x0DBD [0x1C] WAIT(30* ticks)
 16: 0x0DC0 [0x45] LOAD_SCHEDULED_TASK: Load scheduler "w006" with entities [LocalPlayer, LocalPlayer], work=[286*, 0*]
 17: 0x0DD1 [0x45] LOAD_SCHEDULED_TASK: Load scheduler "fdi1" with entities [EventEntity, EventEntity], work=[200*, 0*]
 18: 0x0DE2 [0x1C] WAIT(60* ticks)
 19: 0x0DE5 [0x66] LOAD_EXT_SCHEDULER_MAIN: Load scheduler "tlk0" with entities [Iruki-Waraki (ID: 16982325/0x01032135), Iruki-Waraki (ID: 16982325/0x01032135)], work=49*
 20: 0x0DF4 [0x2B] Iruki-Waraki (ID: 16982325/0x01032135) [5943*]:
    → "This is exactly what I needed! Thanks! I've finished my preparations, too.\u007F1\u0000\u0007"
 21: 0x0DFB [0x23] WAIT_FOR_DIALOG_INTERACTION
 22: 0x0DFC [0x1C] WAIT(30* ticks)
 23: 0x0DFF [0x52] END_LOAD_SCHEDULER: End scheduler "w006" with entities [LocalPlayer, LocalPlayer], work=286*
 24: 0x0E0E [0x45] LOAD_SCHEDULED_TASK: Load scheduler "w007" with entities [LocalPlayer, LocalPlayer], work=[286*, 0*]
 25: 0x0E1F [0x1C] WAIT(30* ticks)
 26: 0x0E22 [0x66] LOAD_EXT_SCHEDULER_MAIN: Load scheduler "tlk1" with entities [Iruki-Waraki (ID: 16982325/0x01032135), Iruki-Waraki (ID: 16982325/0x01032135)], work=49*
 27: 0x0E31 [0x2B] Iruki-Waraki (ID: 16982325/0x01032135) [5944*]:
    → "Okay, just let me confirm one thing...\u0007You've managed to get in the thief's good graces, right?\u007F1\u0000\u0007"
 28: 0x0E38 [0x23] WAIT_FOR_DIALOG_INTERACTION
 29: 0x0E39 [0x53] WAIT_SCHEDULER_TASK: Wait for scheduler "tlk1" with entities [Iruki-Waraki (ID: 16982325/0x01032135), Iruki-Waraki (ID: 16982325/0x01032135)]
 30: 0x0E46 [0x66] LOAD_EXT_SCHEDULER_MAIN: Load scheduler "tlk0" with entities [Iruki-Waraki (ID: 16982325/0x01032135), Iruki-Waraki (ID: 16982325/0x01032135)], work=49*
 31: 0x0E55 [0x2B] Iruki-Waraki (ID: 16982325/0x01032135) [5945*]:
    → "So... I want you to invite him for a cup of tea.\u007F1\u0000\u0007"
 32: 0x0E5C [0x23] WAIT_FOR_DIALOG_INTERACTION
 33: 0x0E5D [0x1C] WAIT(30* ticks)
 34: 0x0E60 [0x52] END_LOAD_SCHEDULER: End scheduler "w007" with entities [LocalPlayer, LocalPlayer], work=286*
 35: 0x0E6F [0x45] LOAD_SCHEDULED_TASK: Load scheduler "w008" with entities [LocalPlayer, LocalPlayer], work=[286*, 0*]
 36: 0x0E80 [0x66] LOAD_EXT_SCHEDULER_MAIN: Load scheduler "tlk1" with entities [Iruki-Waraki (ID: 16982325/0x01032135), Iruki-Waraki (ID: 16982325/0x01032135)], work=49*
 37: 0x0E8F [0x1C] WAIT(30* ticks)
 38: 0x0E92 [0x2B] Iruki-Waraki (ID: 16982325/0x01032135) [5946*]:
    → "He must always keep the automaton where he can keep his eye on it so I can't get it back.\u007F1\u0000\u0007"
 39: 0x0E99 [0x23] WAIT_FOR_DIALOG_INTERACTION
 40: 0x0E9A [0x53] WAIT_SCHEDULER_TASK: Wait for scheduler "tlk1" with entities [Iruki-Waraki (ID: 16982325/0x01032135), Iruki-Waraki (ID: 16982325/0x01032135)]
 41: 0x0EA7 [0x6E] Iruki-Waraki (ID: 16982325/0x01032135) uses emote 36*
 42: 0x0EAE [0x99] Wait for Iruki-Waraki (ID: 16982325/0x01032135) animation to complete
 43: 0x0EB3 [0x99] Wait for Iruki-Waraki (ID: 16982325/0x01032135) animation to complete
 44: 0x0EB8 [0x2B] Iruki-Waraki (ID: 16982325/0x01032135) [5947*]:
    → "All we have to do is slip something into his drink to make him sleep and take the automaton while he's out!\u007F1\u0000\u0007"
 45: 0x0EBF [0x23] WAIT_FOR_DIALOG_INTERACTION
 46: 0x0EC0 [0x1C] WAIT(30* ticks)
 47: 0x0EC3 [0x52] END_LOAD_SCHEDULER: End scheduler "w008" with entities [LocalPlayer, LocalPlayer], work=286*
 48: 0x0ED2 [0x45] LOAD_SCHEDULED_TASK: Load scheduler "w009" with entities [LocalPlayer, LocalPlayer], work=[286*, 0*]
 49: 0x0EE3 [0x1C] WAIT(30* ticks)
 50: 0x0EE6 [0x2B] Iruki-Waraki (ID: 16982325/0x01032135) [5948*]:
    → "He knows my face, so I need you to lure him in.\u007F1\u0000\u0007"
 51: 0x0EED [0x23] WAIT_FOR_DIALOG_INTERACTION
 52: 0x0EEE [0x2B] Iruki-Waraki (ID: 16982325/0x01032135) [5949*]:
    → "I'll set up a teahouse at the port in Nashmau.\u007F1\u0000\u0007"
 53: 0x0EF5 [0x23] WAIT_FOR_DIALOG_INTERACTION
 54: 0x0EF6 [0x1C] WAIT(30* ticks)
 55: 0x0EF9 [0x6E] Iruki-Waraki (ID: 16982325/0x01032135) uses emote 26*
 56: 0x0F00 [0x99] Wait for Iruki-Waraki (ID: 16982325/0x01032135) animation to complete
 57: 0x0F05 [0x99] Wait for Iruki-Waraki (ID: 16982325/0x01032135) animation to complete
 58: 0x0F0A [0x27] REQ_SET(priority=0x0A, entity_id=Iruki-Waraki (ID: 16982325/0x01032135), tag_num=0x21)
 59: 0x0F11 [0x2B] Iruki-Waraki (ID: 16982325/0x01032135) [5950*]:
    → "I've already prepared all kinds of fancy teahouse materials just for the occasion. It wasn't easy, but a man's gotta do what a man's gotta do.\u007F1\u0000\u0007"
 60: 0x0F18 [0x23] WAIT_FOR_DIALOG_INTERACTION
 61: 0x0F19 [0x1C] WAIT(30* ticks)
 62: 0x0F1C [0x52] END_LOAD_SCHEDULER: End scheduler "w009" with entities [LocalPlayer, LocalPlayer], work=286*
 63: 0x0F2B [0x45] LOAD_SCHEDULED_TASK: Load scheduler "w010" with entities [LocalPlayer, LocalPlayer], work=[286*, 0*]
 64: 0x0F3C [0x2A] GET_REQ_LEVEL(level=10, entity_id=Iruki-Waraki (ID: 16982325/0x01032135))
 65: 0x0F42 [0x6E] Iruki-Waraki (ID: 16982325/0x01032135) uses emote 36*
 66: 0x0F49 [0x99] Wait for Iruki-Waraki (ID: 16982325/0x01032135) animation to complete
 67: 0x0F4E [0x99] Wait for Iruki-Waraki (ID: 16982325/0x01032135) animation to complete
 68: 0x0F53 [0x2B] Iruki-Waraki (ID: 16982325/0x01032135) [5951*]:
    → "Now...let the games begin! I'll let you handle the invitation!\u007F1\u0000\u0007"
 69: 0x0F5A [0x23] WAIT_FOR_DIALOG_INTERACTION
 70: 0x0F5B [0x1C] WAIT(60* ticks)
 71: 0x0F5E [0x45] LOAD_SCHEDULED_TASK: Load scheduler "fdo1" with entities [EventEntity, EventEntity], work=[200*, 0*]
 72: 0x0F6F [0x55] WAIT_LOAD_SCHEDULER: Wait for scheduler "fdo1" with entities [EventEntity, EventEntity], work=200*
 73: 0x0F7E [0x52] END_LOAD_SCHEDULER: End scheduler "w010" with entities [LocalPlayer, LocalPlayer], work=286*
 74: 0x0F8D [0x29] REQ_SET_WAIT(priority=0x0A, entity_id=Iruki-Waraki (ID: 16982325/0x01032135), tag_num=0x1D)
 75: 0x0F94 [0x29] REQ_SET_WAIT(priority=0x0A, entity_id=Iruki-Waraki (ID: 16982325/0x01032135), tag_num=0x1F)
 76: 0x0F9B [0x46] CAMERA_CONTROL: Restore default settings
 77: 0x0F9D [0x1C] WAIT(60* ticks)
 78: 0x0FA0 [0x45] LOAD_SCHEDULED_TASK: Load scheduler "fdi1" with entities [EventEntity, EventEntity], work=[200*, 0*]
 79: 0x0FB1 [0x21] END_EVENT
 80: 0x0FB2 [0x00] END_REQSTACK()
```

### Event 782

#### Metadata

| Field        | Value     |
|--------------|-----------|
| Entrypoint   | 0x0FB3    |
| Data Size    | 422 bytes |
| Instructions | 54        |

```
      00 01 02 03 04 05 06 07  08 09 0A 0B 0C 0D 0E 0F
      -- -- -- -- -- -- -- --  -- -- -- -- -- -- -- --
0FB0:          42 45 00 80 F8  FF FF 7F F8 FF FF 7F 66     BE..........f
0FC0: 64 6F 31 01 80 55 00 80  F8 FF FF 7F F8 FF FF 7F  do1..U..........
0FD0: 66 64 6F 31 46 01 92 01  35 21 03 01 80 35 21 03  fdo1F...5!...5!.
0FE0: 01 29 0A 35 21 03 01 1F  29 0A 36 21 03 01 03 38  .).5!...).6!...8
0FF0: 02 80 4E 01 F0 FF FF 7F  79 00 35 21 03 01 36 21  ..N.....y.5!..6!
1000: 03 01 1C 03 80 45 04 80  F8 FF FF 7F F8 FF FF 7F  .....E..........
1010: 73 32 39 30 01 80 45 00  80 F8 FF FF 7F F8 FF FF  s290..E.........
1020: 7F 66 64 69 31 01 80 55  00 80 F8 FF FF 7F F8 FF  .fdi1..U........
1030: FF 7F 66 64 69 31 7C 00  35 21 03 01 2B 35 21 03  ..fdi1|.5!..+5!.
1040: 01 6E 80 23 7C 01 35 21  03 01 2B 35 21 03 01 6F  .n.#|.5!..+5!..o
1050: 80 23 29 0A 36 21 03 01  04 79 00 35 21 03 01 36  .#).6!...y.5!..6
1060: 21 03 01 2B 35 21 03 01  70 80 23 29 0A 36 21 03  !..+5!..p.#).6!.
1070: 01 03 79 00 35 21 03 01  36 21 03 01 2B 35 21 03  ..y.5!..6!..+5!.
1080: 01 71 80 23 45 04 80 F8  FF FF 7F F8 FF FF 7F 73  .q.#E..........s
1090: 32 39 31 01 80 29 0A 35  21 03 01 1E 27 0A 35 21  291..).5!...'.5!
10A0: 03 01 20 2B 35 21 03 01  72 80 23 2A 0A 35 21 03  .. +5!..r.#*.5!.
10B0: 01 27 0A 36 21 03 01 05  79 00 35 21 03 01 36 21  .'.6!...y.5!..6!
10C0: 03 01 2B 35 21 03 01 73  80 23 55 04 80 F8 FF FF  ..+5!..s.#U.....
10D0: 7F F8 FF FF 7F 73 32 39  31 45 04 80 F8 FF FF 7F  .....s291E......
10E0: F8 FF FF 7F 73 32 39 32  01 80 2B 35 21 03 01 74  ....s292..+5!..t
10F0: 80 23 55 04 80 F8 FF FF  7F F8 FF FF 7F 73 32 39  .#U..........s29
1100: 32 45 00 80 F8 FF FF 7F  F8 FF FF 7F 66 64 6F 31  2E..........fdo1
1110: 01 80 55 00 80 F8 FF FF  7F F8 FF FF 7F 66 64 6F  ..U..........fdo
1120: 31 52 04 80 F8 FF FF 7F  F8 FF FF 7F 73 32 39 31  1R..........s291
1130: 29 0A 35 21 03 01 1D 29  0A 35 21 03 01 1F 46 00  ).5!...).5!...F.
1140: 4E 00 F0 FF FF 7F 45 00  80 F8 FF FF 7F F8 FF FF  N.....E.........
1150: 7F 66 64 69 31 01 80 21  00                       .fdi1..!.       
```

#### Opcodes

```
  0: 0x0FB3 [0x42] SET_CLI_EVENT_CANCEL_DATA()
  1: 0x0FB4 [0x45] LOAD_SCHEDULED_TASK: Load scheduler "fdo1" with entities [EventEntity, EventEntity], work=[200*, 0*]
  2: 0x0FC5 [0x55] WAIT_LOAD_SCHEDULER: Wait for scheduler "fdo1" with entities [EventEntity, EventEntity], work=200*
  3: 0x0FD4 [0x46] CAMERA_CONTROL: Disable user control
  4: 0x0FD6 [0x92] Iruki-Waraki (ID: 16982325/0x01032135)->Render.Flags3 ^= 0x01
  5: 0x0FDC [0x80] LOAD_WAIT(entity=Iruki-Waraki (ID: 16982325/0x01032135))
  6: 0x0FE1 [0x29] REQ_SET_WAIT(priority=0x0A, entity_id=Iruki-Waraki (ID: 16982325/0x01032135), tag_num=0x1F)
  7: 0x0FE8 [0x29] REQ_SET_WAIT(priority=0x0A, entity_id=Unnamed NPC (ID: 16982326/0x01032136), tag_num=0x03)
  8: 0x0FEF [0x38] SET_CLIENT_EVENT_MODE(mode=19*)
  9: 0x0FF2 [0x4E] SET_ENTITY_HIDE_FLAG: Hide LocalPlayer
 10: 0x0FF8 [0x79] Iruki-Waraki (ID: 16982325/0x01032135) looks at Unnamed NPC (ID: 16982326/0x01032136) (Basic look)
 11: 0x1002 [0x1C] WAIT(120* ticks)
 12: 0x1005 [0x45] LOAD_SCHEDULED_TASK: Load scheduler "s290" with entities [EventEntity, EventEntity], work=[35*, 0*]
 13: 0x1016 [0x45] LOAD_SCHEDULED_TASK: Load scheduler "fdi1" with entities [EventEntity, EventEntity], work=[200*, 0*]
 14: 0x1027 [0x55] WAIT_LOAD_SCHEDULER: Wait for scheduler "fdi1" with entities [EventEntity, EventEntity], work=200*
 15: 0x1036 [0x7C] Iruki-Waraki (ID: 16982325/0x01032135)->Render.Flags2 |= 0x00
 16: 0x103C [0x2B] Iruki-Waraki (ID: 16982325/0x01032135) [5953*]:
    → "...\u007F1\u0000\u0007"
 17: 0x1043 [0x23] WAIT_FOR_DIALOG_INTERACTION
 18: 0x1044 [0x7C] Iruki-Waraki (ID: 16982325/0x01032135)->Render.Flags2 |= 0x01
 19: 0x104A [0x2B] Iruki-Waraki (ID: 16982325/0x01032135) [5954*]:
    → "I know, I know.\u0007I've got to go get Ellie...\u007F1\u0000\u0007"
 20: 0x1051 [0x23] WAIT_FOR_DIALOG_INTERACTION
 21: 0x1052 [0x29] REQ_SET_WAIT(priority=0x0A, entity_id=Unnamed NPC (ID: 16982326/0x01032136), tag_num=0x04)
 22: 0x1059 [0x79] Iruki-Waraki (ID: 16982325/0x01032135) looks at Unnamed NPC (ID: 16982326/0x01032136) (Basic look)
 23: 0x1063 [0x2B] Iruki-Waraki (ID: 16982325/0x01032135) [5955*]:
    → "But...I just can't bring myself to do it. Even if I go, she's just going to say the exact same things.\u007F1\u0000\u0007"
 24: 0x106A [0x23] WAIT_FOR_DIALOG_INTERACTION
 25: 0x106B [0x29] REQ_SET_WAIT(priority=0x0A, entity_id=Unnamed NPC (ID: 16982326/0x01032136), tag_num=0x03)
 26: 0x1072 [0x79] Iruki-Waraki (ID: 16982325/0x01032135) looks at Unnamed NPC (ID: 16982326/0x01032136) (Basic look)
 27: 0x107C [0x2B] Iruki-Waraki (ID: 16982325/0x01032135) [5956*]:
    → "And she's right. I can't put on shows like Ellie can. I can't do anything by myself.\u007F1\u0000\u0007"
 28: 0x1083 [0x23] WAIT_FOR_DIALOG_INTERACTION
 29: 0x1084 [0x45] LOAD_SCHEDULED_TASK: Load scheduler "s291" with entities [EventEntity, EventEntity], work=[35*, 0*]
 30: 0x1095 [0x29] REQ_SET_WAIT(priority=0x0A, entity_id=Iruki-Waraki (ID: 16982325/0x01032135), tag_num=0x1E)
 31: 0x109C [0x27] REQ_SET(priority=0x0A, entity_id=Iruki-Waraki (ID: 16982325/0x01032135), tag_num=0x20)
 32: 0x10A3 [0x2B] Iruki-Waraki (ID: 16982325/0x01032135) [5957*]:
    → "I'm a failure... I mean, have you ever heard of a puppetmaster rejected by his own automaton?\u007F1\u0000\u0007"
 33: 0x10AA [0x23] WAIT_FOR_DIALOG_INTERACTION
 34: 0x10AB [0x2A] GET_REQ_LEVEL(level=10, entity_id=Iruki-Waraki (ID: 16982325/0x01032135))
 35: 0x10B1 [0x27] REQ_SET(priority=0x0A, entity_id=Unnamed NPC (ID: 16982326/0x01032136), tag_num=0x05)
 36: 0x10B8 [0x79] Iruki-Waraki (ID: 16982325/0x01032135) looks at Unnamed NPC (ID: 16982326/0x01032136) (Basic look)
 37: 0x10C2 [0x2B] Iruki-Waraki (ID: 16982325/0x01032135) [5958*]:
    → "How could Master Shamarhaan ever have decided I was fit for this trade?\u007F1\u0000\u0007"
 38: 0x10C9 [0x23] WAIT_FOR_DIALOG_INTERACTION
 39: 0x10CA [0x55] WAIT_LOAD_SCHEDULER: Wait for scheduler "s291" with entities [EventEntity, EventEntity], work=35*
 40: 0x10D9 [0x45] LOAD_SCHEDULED_TASK: Load scheduler "s292" with entities [EventEntity, EventEntity], work=[35*, 0*]
 41: 0x10EA [0x2B] Iruki-Waraki (ID: 16982325/0x01032135) [5959*]:
    → "I wonder how I can make Ellie appreciate me again... I wonder if Master Shamarhaan would have any good advice...\u007F1\u0000\u0007"
 42: 0x10F1 [0x23] WAIT_FOR_DIALOG_INTERACTION
 43: 0x10F2 [0x55] WAIT_LOAD_SCHEDULER: Wait for scheduler "s292" with entities [EventEntity, EventEntity], work=35*
 44: 0x1101 [0x45] LOAD_SCHEDULED_TASK: Load scheduler "fdo1" with entities [EventEntity, EventEntity], work=[200*, 0*]
 45: 0x1112 [0x55] WAIT_LOAD_SCHEDULER: Wait for scheduler "fdo1" with entities [EventEntity, EventEntity], work=200*
 46: 0x1121 [0x52] END_LOAD_SCHEDULER: End scheduler "s291" with entities [EventEntity, EventEntity], work=35*
 47: 0x1130 [0x29] REQ_SET_WAIT(priority=0x0A, entity_id=Iruki-Waraki (ID: 16982325/0x01032135), tag_num=0x1D)
 48: 0x1137 [0x29] REQ_SET_WAIT(priority=0x0A, entity_id=Iruki-Waraki (ID: 16982325/0x01032135), tag_num=0x1F)
 49: 0x113E [0x46] CAMERA_CONTROL: Restore default settings
 50: 0x1140 [0x4E] SET_ENTITY_HIDE_FLAG: Show LocalPlayer
 51: 0x1146 [0x45] LOAD_SCHEDULED_TASK: Load scheduler "fdi1" with entities [EventEntity, EventEntity], work=[200*, 0*]
 52: 0x1157 [0x21] END_EVENT
 53: 0x1158 [0x00] END_REQSTACK()
```

### Event 784

#### Metadata

| Field        | Value     |
|--------------|-----------|
| Entrypoint   | 0x1159    |
| Data Size    | 639 bytes |
| Instructions | 84        |

```
      00 01 02 03 04 05 06 07  08 09 0A 0B 0C 0D 0E 0F
      -- -- -- -- -- -- -- --  -- -- -- -- -- -- -- --
1150:                             42 45 00 80 F8 FF FF           BE.....
1160: 7F F8 FF FF 7F 66 64 6F  31 01 80 55 00 80 F8 FF  .....fdo1..U....
1170: FF 7F F8 FF FF 7F 66 64  6F 31 46 01 38 02 80 27  ......fdo1F.8..'
1180: 0A F0 FF FF 7F 96 27 0A  35 21 03 01 1E 80 35 21  ......'.5!....5!
1190: 03 01 1C 03 80 92 01 35  21 03 01 92 01 38 21 03  .......5!....8!.
11A0: 01 4E 00 38 21 03 01 80  38 21 03 01 80 F0 FF FF  .N.8!...8!......
11B0: 7F 80 35 21 03 01 4A F0  FF FF 7F 35 21 03 01 45  ..5!..J....5!..E
11C0: 75 80 F0 FF FF 7F F0 FF  FF 7F 77 30 30 30 01 80  u.........w000..
11D0: 45 00 80 F8 FF FF 7F F8  FF FF 7F 66 64 69 31 01  E..........fdi1.
11E0: 80 1C 1F 80 29 0A 38 21  03 01 02 66 42 80 38 21  ....).8!...fB.8!
11F0: 03 01 38 21 03 01 74 6C  6B 30 2B 38 21 03 01 76  ..8!..tlk0+8!..v
1200: 80 23 66 42 80 38 21 03  01 38 21 03 01 74 6C 6B  .#fB.8!..8!..tlk
1210: 31 79 00 35 21 03 01 38  21 03 01 2B 35 21 03 01  1y.5!..8!..+5!..
1220: 77 80 23 53 38 21 03 01  38 21 03 01 74 6C 6B 31  w.#S8!..8!..tlk1
1230: 6E 38 21 03 01 78 80 99  38 21 03 01 99 38 21 03  n8!..x..8!...8!.
1240: 01 27 0A 38 21 03 01 05  2B 38 21 03 01 79 80 23  .'.8!...+8!..y.#
1250: 2B 38 21 03 01 7A 80 23  2A 0A 38 21 03 01 52 75  +8!..z.#*.8!..Ru
