# 16982161 - Ghatsad

## Common Data

| Field            | Value                         |
|------------------|-------------------------------|
| Zone             | Aht Urhgan Whitegate (ID: 50) |
| Block Size       | 720 bytes                     |
| Total Events     | 30                            |
| References Count | 56                            |

## List of Events

| Event ID                  | Entrypoint   |   Size |   Instructions |
|---------------------------|--------------|--------|----------------|
| [65535](#event-65535)     | 0x0000       |      1 |              1 |
| [256](#event-256)         | 0x0001       |      6 |              4 |
| [65535.1](#event-65535-1) | 0x0007       |      4 |              2 |
| [65535.2](#event-65535-2) | 0x000B       |      2 |              2 |
| [65535.3](#event-65535-3) | 0x000D       |      1 |              1 |
| [65535.4](#event-65535-4) | 0x000E       |      1 |              1 |
| [65535.5](#event-65535-5) | 0x000F       |      1 |              1 |
| [263](#event-263)         | 0x0010       |      6 |              4 |
| [622](#event-622)         | 0x0016       |    104 |             25 |
| [624](#event-624)         | 0x007E       |      7 |              5 |
| [625](#event-625)         | 0x0085       |      7 |              5 |
| [626](#event-626)         | 0x008C       |     10 |              6 |
| [628](#event-628)         | 0x0096       |     10 |              6 |
| [629](#event-629)         | 0x00A0       |     10 |              6 |
| [3113](#event-3113)       | 0x00AA       |      1 |              1 |
| [65535.6](#event-65535-6) | 0x00AB       |     34 |             10 |
| [900](#event-900)         | 0x00CD       |      1 |              1 |
| [901](#event-901)         | 0x00CE       |      1 |              1 |
| [902](#event-902)         | 0x00CF       |      1 |              1 |
| [903](#event-903)         | 0x00D0       |     50 |             17 |
| [904](#event-904)         | 0x0102       |      6 |              4 |
| [905](#event-905)         | 0x0108       |      1 |              1 |
| [65535.7](#event-65535-7) | 0x0109       |      1 |              1 |
| [946](#event-946)         | 0x010A       |     10 |              6 |
| [947](#event-947)         | 0x0114       |     10 |              6 |
| [948](#event-948)         | 0x011E       |     10 |              6 |
| [949](#event-949)         | 0x0128       |      6 |              4 |
| [950](#event-950)         | 0x012E       |     24 |             12 |
| [951](#event-951)         | 0x0146       |     10 |              6 |
| [952](#event-952)         | 0x0150       |     24 |             12 |

## DAT References (imed_data)

|   Index | Hex Value   |   Dec Value |
|---------|-------------|-------------|
|       0 | 0x2564      |        9572 |
|       1 | 0x0000      |           0 |
|       2 | 0x16AA      |        5802 |
|       3 | 0x0001      |           1 |
|       4 | 0x0295      |         661 |
|       5 | 0x087D      |        2173 |
|       6 | 0x08F2      |        2290 |
|       7 | 0x4023      |       16419 |
|       8 | 0x0002      |           2 |
|       9 | 0x02CE      |         718 |
|      10 | 0x036F      |         879 |
|      11 | 0x08F0      |        2288 |
|      12 | 0x4344      |       17220 |
|      13 | 0x0003      |           3 |
|      14 | 0x0337      |         823 |
|      15 | 0x033C      |         828 |
|      16 | 0x08F1      |        2289 |
|      17 | 0x3499      |       13465 |
|      18 | 0x2574      |        9588 |
|      19 | 0x2575      |        9589 |
|      20 | 0x2583      |        9603 |
|      21 | 0x2584      |        9604 |
|      22 | 0x2585      |        9605 |
|      23 | 0x2586      |        9606 |
|      24 | 0x2597      |        9623 |
|      25 | 0x2598      |        9624 |
|      26 | 0x2599      |        9625 |
|      27 | 0x259A      |        9626 |
|      28 | 0x000D      |          13 |
|      29 | 0xFFFFF5FD  |  4294964733 |
|      30 | 0xB863      |       47203 |
|      31 | 0xC1D3      |       49619 |
|      32 | 0x25AF      |        9647 |
|      33 | 0x25AE      |        9646 |
|      34 | 0x25AD      |        9645 |
|      35 | 0x25B0      |        9648 |
|      36 | 0x25B1      |        9649 |
|      37 | 0x25C9      |        9673 |
|      38 | 0x25CA      |        9674 |
|      39 | 0x25CB      |        9675 |
|      40 | 0x25CC      |        9676 |
|      41 | 0x25CD      |        9677 |
|      42 | 0x25CE      |        9678 |
|      43 | 0x25CF      |        9679 |
|      44 | 0x25D0      |        9680 |
|      45 | 0x003C      |          60 |
|      46 | 0x25D1      |        9681 |
|      47 | 0x25D2      |        9682 |
|      48 | 0x25D3      |        9683 |
|      49 | 0x25D4      |        9684 |
|      50 | 0x25D5      |        9685 |
|      51 | 0x25D6      |        9686 |
|      52 | 0x25D7      |        9687 |
|      53 | 0x25D8      |        9688 |
|      54 | 0x25D9      |        9689 |
|      55 | 0x25DA      |        9690 |

## Events

### Event 65535

#### Metadata

| Field        | Value   |
|--------------|---------|
| Entrypoint   | 0x0000  |
| Data Size    | 1 bytes |
| Instructions | 1       |

```
      00 01 02 03 04 05 06 07  08 09 0A 0B 0C 0D 0E 0F
      -- -- -- -- -- -- -- --  -- -- -- -- -- -- -- --
0000: 00                                                .               
```

#### Opcodes

```
  0: 0x0000 [0x00] END_REQSTACK()
```

### Event 256

#### Metadata

| Field        | Value   |
|--------------|---------|
| Entrypoint   | 0x0001  |
| Data Size    | 6 bytes |
| Instructions | 4       |

```
      00 01 02 03 04 05 06 07  08 09 0A 0B 0C 0D 0E 0F
      -- -- -- -- -- -- -- --  -- -- -- -- -- -- -- --
0000:    1D 00 80 23 21 00                               ...#!.         
```

#### Opcodes

```
  0: 0x0001 [0x1D] PRINT_EVENT_MESSAGE(message_id=9572*)
    → "Sorry, but could you come back later?\u0007I can't leave my work right now...\u007F1\u0000\u0007"
  1: 0x0004 [0x23] WAIT_FOR_DIALOG_INTERACTION
  2: 0x0005 [0x21] END_EVENT
  3: 0x0006 [0x00] END_REQSTACK()
```

### Event 65535.1

#### Metadata

| Field        | Value   |
|--------------|---------|
| Entrypoint   | 0x0007  |
| Data Size    | 4 bytes |
| Instructions | 2       |

```
      00 01 02 03 04 05 06 07  08 09 0A 0B 0C 0D 0E 0F
      -- -- -- -- -- -- -- --  -- -- -- -- -- -- -- --
0000:                      95  01 80 00                        ....     
```

#### Opcodes

```
  0: 0x0007 [0x95] SETUP_EVENT_NPC: Prepare NPC for event (Render.Flags3 = 0*)
  1: 0x000A [0x00] END_REQSTACK()
```

### Event 65535.2

#### Metadata

| Field        | Value   |
|--------------|---------|
| Entrypoint   | 0x000B  |
| Data Size    | 2 bytes |
| Instructions | 2       |

```
      00 01 02 03 04 05 06 07  08 09 0A 0B 0C 0D 0E 0F
      -- -- -- -- -- -- -- --  -- -- -- -- -- -- -- --
0000:                                   96 00                      ..   
```

#### Opcodes

```
  0: 0x000B [0x96] UNSET_EVENT_NPC: Restore NPC after event (removes event NPC status)
  1: 0x000C [0x00] END_REQSTACK()
```

### Event 65535.3

#### Metadata

| Field        | Value   |
|--------------|---------|
| Entrypoint   | 0x000D  |
| Data Size    | 1 bytes |
| Instructions | 1       |

```
      00 01 02 03 04 05 06 07  08 09 0A 0B 0C 0D 0E 0F
      -- -- -- -- -- -- -- --  -- -- -- -- -- -- -- --
0000:                                         00                     .  
```

#### Opcodes

```
  0: 0x000D [0x00] END_REQSTACK()
```

### Event 65535.4

#### Metadata

| Field        | Value   |
|--------------|---------|
| Entrypoint   | 0x000E  |
| Data Size    | 1 bytes |
| Instructions | 1       |

```
      00 01 02 03 04 05 06 07  08 09 0A 0B 0C 0D 0E 0F
      -- -- -- -- -- -- -- --  -- -- -- -- -- -- -- --
0000:                                            00                   . 
```

#### Opcodes

```
  0: 0x000E [0x00] END_REQSTACK()
```

### Event 65535.5

#### Metadata

| Field        | Value   |
|--------------|---------|
| Entrypoint   | 0x000F  |
| Data Size    | 1 bytes |
| Instructions | 1       |

```
      00 01 02 03 04 05 06 07  08 09 0A 0B 0C 0D 0E 0F
      -- -- -- -- -- -- -- --  -- -- -- -- -- -- -- --
0000:                                               00                 .
```

#### Opcodes

```
  0: 0x000F [0x00] END_REQSTACK()
```

### Event 263

#### Metadata

| Field        | Value   |
|--------------|---------|
| Entrypoint   | 0x0010  |
| Data Size    | 6 bytes |
| Instructions | 4       |

```
      00 01 02 03 04 05 06 07  08 09 0A 0B 0C 0D 0E 0F
      -- -- -- -- -- -- -- --  -- -- -- -- -- -- -- --
0010: 1D 02 80 23 21 00                                 ...#!.          
```

#### Opcodes

```
  0: 0x0010 [0x1D] PRINT_EVENT_MESSAGE(message_id=5802*)
    → "I am fairly certain that some old models of mine are lying dormant somewhere on Arrapago Reef.\u007F1\u0000\u0007"
  1: 0x0013 [0x23] WAIT_FOR_DIALOG_INTERACTION
  2: 0x0014 [0x21] END_EVENT
  3: 0x0015 [0x00] END_REQSTACK()
```

### Event 622

#### Metadata

| Field        | Value     |
|--------------|-----------|
| Entrypoint   | 0x0016    |
| Data Size    | 104 bytes |
| Instructions | 25        |

```
      00 01 02 03 04 05 06 07  08 09 0A 0B 0C 0D 0E 0F
      -- -- -- -- -- -- -- --  -- -- -- -- -- -- -- --
0010:                   42 02  03 10 03 80 80 36 00 03        B......6..
0020: 00 17 04 80 03 01 17 05  80 03 02 17 06 80 03 03  ................
0030: 17 07 80 01 74 00 02 03  10 08 80 80 55 00 03 00  ....t.......U...
0040: 17 09 80 03 01 17 0A 80  03 02 17 0B 80 03 03 17  ................
0050: 0C 80 01 74 00 02 03 10  0D 80 80 74 00 03 00 17  ...t.......t....
0060: 0E 80 03 01 17 0F 80 03  02 17 10 80 03 03 17 11  ................
0070: 80 01 74 00 1D 12 80 23  1D 13 80 23 21 00        ..t....#...#!.  
```

#### Opcodes

```
  0: 0x0016 [0x42] SET_CLI_EVENT_CANCEL_DATA()
  1: 0x0017 [0x02] IF !(Work_Zone[3] == 1*) GOTO 0x0036
  2: 0x001F [0x03] Work_Zone_1700[0] = 661*
  3: 0x0024 [0x03] Work_Zone_1700[1] = 2173*
  4: 0x0029 [0x03] Work_Zone_1700[2] = 2290*
  5: 0x002E [0x03] Work_Zone_1700[3] = 16419*
  6: 0x0033 [0x01] GOTO 0x0074
  7: 0x0036 [0x02] IF !(Work_Zone[3] == 2*) GOTO 0x0055
  8: 0x003E [0x03] Work_Zone_1700[0] = 718*
  9: 0x0043 [0x03] Work_Zone_1700[1] = 879*
 10: 0x0048 [0x03] Work_Zone_1700[2] = 2288*
 11: 0x004D [0x03] Work_Zone_1700[3] = 17220*
 12: 0x0052 [0x01] GOTO 0x0074
 13: 0x0055 [0x02] IF !(Work_Zone[3] == 3*) GOTO 0x0074
 14: 0x005D [0x03] Work_Zone_1700[0] = 823*
 15: 0x0062 [0x03] Work_Zone_1700[1] = 828*
 16: 0x0067 [0x03] Work_Zone_1700[2] = 2289*
 17: 0x006C [0x03] Work_Zone_1700[3] = 13465*
 18: 0x0071 [0x01] GOTO 0x0074

SUBROUTINE_0074:
 19: 0x0074 [0x1D] PRINT_EVENT_MESSAGE(message_id=9588*)
    → "Have you found the materials I need yet? Don't forget--I need \u0001\u0001\u0001 \u0001\u0005$\u0002\u0008\u0000\u0000, \u0001\u0001\u0001 \u0001\u0005$\u0002	\u0000\u0000, \u0001\u0001\u0001 \u0001\u0005$\u0002
\u0000\u0000, and \u0001\u0001\u0001 \u0001\u0005$\u0002\u000B\u0000\u0000.\u007F1\u0000\u0007"
 20: 0x0077 [0x23] WAIT_FOR_DIALOG_INTERACTION
 21: 0x0078 [0x1D] PRINT_EVENT_MESSAGE(message_id=9589*)
    → "Also, remember to bring 
\u0006 \u0001	)\u0002\u0006\u0000\u0000\u0002\u0005\u0000\u0000 to cover the costs of production.\u007F1\u0000\u0007"
 22: 0x007B [0x23] WAIT_FOR_DIALOG_INTERACTION
 23: 0x007C [0x21] END_EVENT
 24: 0x007D [0x00] END_REQSTACK()
```

### Event 624

#### Metadata

| Field        | Value   |
|--------------|---------|
| Entrypoint   | 0x007E  |
| Data Size    | 7 bytes |
| Instructions | 5       |

```
      00 01 02 03 04 05 06 07  08 09 0A 0B 0C 0D 0E 0F
      -- -- -- -- -- -- -- --  -- -- -- -- -- -- -- --
0070:                                            42 1D                B.
0080: 14 80 23 21 00                                    ..#!.           
```

#### Opcodes

```
  0: 0x007E [0x42] SET_CLI_EVENT_CANCEL_DATA()
  1: 0x007F [0x1D] PRINT_EVENT_MESSAGE(message_id=9603*)
    → "That should be it for the ingredients. Now all I need is payment in the form of 
\u0006 \u0001	)\u0002\u0006\u0000\u0000\u0002\u0005\u0000\u0000 and I can start work immediately.\u007F1\u0000\u0007"
  2: 0x0082 [0x23] WAIT_FOR_DIALOG_INTERACTION
  3: 0x0083 [0x21] END_EVENT
  4: 0x0084 [0x00] END_REQSTACK()
```

### Event 625

#### Metadata

| Field        | Value   |
|--------------|---------|
| Entrypoint   | 0x0085  |
| Data Size    | 7 bytes |
| Instructions | 5       |

```
      00 01 02 03 04 05 06 07  08 09 0A 0B 0C 0D 0E 0F
      -- -- -- -- -- -- -- --  -- -- -- -- -- -- -- --
0080:                42 1D 15  80 23 21 00                   B...#!.    
```

#### Opcodes

```
  0: 0x0085 [0x42] SET_CLI_EVENT_CANCEL_DATA()
  1: 0x0086 [0x1D] PRINT_EVENT_MESSAGE(message_id=9604*)
    → "Thank you. Now I've got everything I need.\u0007I will order my pupil to start the preparations immediately. Please come back a bit later.\u007F1\u0000\u0007"
  2: 0x0089 [0x23] WAIT_FOR_DIALOG_INTERACTION
  3: 0x008A [0x21] END_EVENT
  4: 0x008B [0x00] END_REQSTACK()
```

### Event 626

#### Metadata

| Field        | Value    |
|--------------|----------|
| Entrypoint   | 0x008C   |
| Data Size    | 10 bytes |
| Instructions | 6        |

```
      00 01 02 03 04 05 06 07  08 09 0A 0B 0C 0D 0E 0F
      -- -- -- -- -- -- -- --  -- -- -- -- -- -- -- --
0080:                                      1D 16 80 23              ...#
0090: 1D 17 80 23 21 00                                 ...#!.          
```

#### Opcodes

```
  0: 0x008C [0x1D] PRINT_EVENT_MESSAGE(message_id=9605*)
    → "You're back early.\u0007Frames aren't made by synthesis, you know. You wouldn't want a defective product, now, would you?\u007F1\u0000\u0007"
  1: 0x008F [0x23] WAIT_FOR_DIALOG_INTERACTION
  2: 0x0090 [0x1D] PRINT_EVENT_MESSAGE(message_id=9606*)
    → "Go have a sip of chai at Shararat Teahouse or something, and try to hold in your excitement a bit.\u007F1\u0000\u0007"
  3: 0x0093 [0x23] WAIT_FOR_DIALOG_INTERACTION
  4: 0x0094 [0x21] END_EVENT
  5: 0x0095 [0x00] END_REQSTACK()
```

### Event 628

#### Metadata

| Field        | Value    |
|--------------|----------|
| Entrypoint   | 0x0096   |
| Data Size    | 10 bytes |
| Instructions | 6        |

```
      00 01 02 03 04 05 06 07  08 09 0A 0B 0C 0D 0E 0F
      -- -- -- -- -- -- -- --  -- -- -- -- -- -- -- --
0090:                   1D 18  80 23 1D 19 80 23 21 00        ...#...#!.
```

#### Opcodes

```
  0: 0x0096 [0x1D] PRINT_EVENT_MESSAGE(message_id=9623*)
    → "You can customize the automaton to suit your taste by changing its head and frame.\u007F1\u0000\u0007"
  1: 0x0099 [0x23] WAIT_FOR_DIALOG_INTERACTION
  2: 0x009A [0x1D] PRINT_EVENT_MESSAGE(message_id=9624*)
    → "Of course, the automaton looks just fine with its original parts, but mixing things up every now and then can lead to interesting results.\u007F1\u0000\u0007"
  3: 0x009D [0x23] WAIT_FOR_DIALOG_INTERACTION
  4: 0x009E [0x21] END_EVENT
  5: 0x009F [0x00] END_REQSTACK()
```

### Event 629

#### Metadata

| Field        | Value    |
|--------------|----------|
| Entrypoint   | 0x00A0   |
| Data Size    | 10 bytes |
| Instructions | 6        |

```
      00 01 02 03 04 05 06 07  08 09 0A 0B 0C 0D 0E 0F
      -- -- -- -- -- -- -- --  -- -- -- -- -- -- -- --
00A0: 1D 1A 80 23 1D 1B 80 23  21 00                    ...#...#!.      
```

#### Opcodes

```
  0: 0x00A0 [0x1D] PRINT_EVENT_MESSAGE(message_id=9625*)
    → "You can alter your automaton's abilities and character by equipping attachments.\u007F1\u0000\u0007"
  1: 0x00A3 [0x23] WAIT_FOR_DIALOG_INTERACTION
  2: 0x00A4 [0x1D] PRINT_EVENT_MESSAGE(message_id=9626*)
    → "The more attachments you have, the more you can customize \u001C\u0000 to suit your fighting style.\u007F1\u0000\u0007"
  3: 0x00A7 [0x23] WAIT_FOR_DIALOG_INTERACTION
  4: 0x00A8 [0x21] END_EVENT
  5: 0x00A9 [0x00] END_REQSTACK()
```

### Event 3113

#### Metadata

| Field        | Value   |
|--------------|---------|
| Entrypoint   | 0x00AA  |
| Data Size    | 1 bytes |
| Instructions | 1       |

```
      00 01 02 03 04 05 06 07  08 09 0A 0B 0C 0D 0E 0F
      -- -- -- -- -- -- -- --  -- -- -- -- -- -- -- --
00A0:                                00                           .     
```

#### Opcodes

```
  0: 0x00AA [0x00] END_REQSTACK()
```

### Event 65535.6

#### Metadata

| Field        | Value    |
|--------------|----------|
| Entrypoint   | 0x00AB   |
| Data Size    | 34 bytes |
| Instructions | 10       |

```
      00 01 02 03 04 05 06 07  08 09 0A 0B 0C 0D 0E 0F
      -- -- -- -- -- -- -- --  -- -- -- -- -- -- -- --
00A0:                                   32 1C 80 1F 00             2....
00B0: 1D 80 1E 80 01 80 1F 01  6F 1F 00 1D 80 1F 80 01  ........o.......
00C0: 80 1F 01 6F 1C 0D 80 1E  DC 20 03 01 00           ...o..... ...   
```

#### Opcodes

```
  0: 0x00AB [0x32] ExtData[1]->MainSpeed = 13* * 0.1
  1: 0x00AE [0x1F] MOVE_ENTITY: EventEntity moves to X=-2.563*, Z=47.203*, Y=0.000*
  2: 0x00B6 [0x1F] MOVE_ENTITY: Update entity position (mode=1)
  3: 0x00B8 [0x6F] WAIT_FRAME_DELAY: Yield until WaitTime reaches zero
  4: 0x00B9 [0x1F] MOVE_ENTITY: EventEntity moves to X=-2.563*, Z=49.619*, Y=0.000*
  5: 0x00C1 [0x1F] MOVE_ENTITY: Update entity position (mode=1)
  6: 0x00C3 [0x6F] WAIT_FRAME_DELAY: Yield until WaitTime reaches zero
  7: 0x00C4 [0x1C] WAIT(3* ticks)
  8: 0x00C7 [0x1E] EventEntity looks at Unnamed NPC (ID: 16982236/0x010320DC) and starts talking
  9: 0x00CC [0x00] END_REQSTACK()
```

### Event 900

#### Metadata

| Field        | Value   |
|--------------|---------|
| Entrypoint   | 0x00CD  |
| Data Size    | 1 bytes |
| Instructions | 1       |

```
      00 01 02 03 04 05 06 07  08 09 0A 0B 0C 0D 0E 0F
      -- -- -- -- -- -- -- --  -- -- -- -- -- -- -- --
00C0:                                         00                     .  
```

#### Opcodes

```
  0: 0x00CD [0x00] END_REQSTACK()
```

### Event 901

#### Metadata

| Field        | Value   |
|--------------|---------|
| Entrypoint   | 0x00CE  |
| Data Size    | 1 bytes |
| Instructions | 1       |

```
      00 01 02 03 04 05 06 07  08 09 0A 0B 0C 0D 0E 0F
      -- -- -- -- -- -- -- --  -- -- -- -- -- -- -- --
00C0:                                            00                   . 
```

#### Opcodes

```
  0: 0x00CE [0x00] END_REQSTACK()
```

### Event 902

#### Metadata

| Field        | Value   |
|--------------|---------|
| Entrypoint   | 0x00CF  |
| Data Size    | 1 bytes |
| Instructions | 1       |

```
      00 01 02 03 04 05 06 07  08 09 0A 0B 0C 0D 0E 0F
      -- -- -- -- -- -- -- --  -- -- -- -- -- -- -- --
00C0:                                               00                 .
```

#### Opcodes

```
  0: 0x00CF [0x00] END_REQSTACK()
```

### Event 903

#### Metadata

| Field        | Value    |
|--------------|----------|
| Entrypoint   | 0x00D0   |
| Data Size    | 50 bytes |
| Instructions | 10       |

```
      00 01 02 03 04 05 06 07  08 09 0A 0B 0C 0D 0E 0F
      -- -- -- -- -- -- -- --  -- -- -- -- -- -- -- --
00D0: 02 02 10 01 80 00 E1 00  1D 20 80 23 21 00 01 F4  ......... .#!...
00E0: 00 02 02 10 0D 80 03 F0  00 1D 21 80 23 01 F4 00  ..........!.#...
00F0: 1D 22 80 23 02 03 10 01  80 00 00 01 1D 23 80 23  .".#.........#.#
0100: 21 00                                             !.              
```

#### Opcodes

```
  0: 0x00D0 [0x02] IF !(Work_Zone[2] == 0*) GOTO 0x00E1
  1: 0x00D8 [0x1D] PRINT_EVENT_MESSAGE(message_id=9647*)
    → "Ah, good news, \u0008! The craftsman who carves all my automaton heads dropped by yesterday morning with your order. Now I need only insert the control center and make a few minor adjustments. Our journey is almost over.\u007F1\u0000\u0007"
  2: 0x00DB [0x23] WAIT_FOR_DIALOG_INTERACTION
  3: 0x00DC [0x21] END_EVENT
  4: 0x00DD [0x00] END_REQSTACK()

SUBROUTINE_00F4:
  5: 0x00F4 [0x02] IF !(Work_Zone[3] == 0*) GOTO 0x0100
  6: 0x00FC [0x1D] PRINT_EVENT_MESSAGE(message_id=9648*)
    → "<Yawn......>\u0007I have had so much work these past weeks... I can barely keep my eyes open, let alone my mind focused...\u007F1\u0000\u0007"
  7: 0x00FF [0x23] WAIT_FOR_DIALOG_INTERACTION
  8: 0x0100 [0x21] END_EVENT
  9: 0x0101 [0x00] END_REQSTACK()
```

#### Data or dead code:

```
# Dead code (unreachable instructions):
     0x00DE [0x01] GOTO 0x00F4
```

### Event 904

#### Metadata

| Field        | Value   |
|--------------|---------|
| Entrypoint   | 0x0102  |
| Data Size    | 6 bytes |
| Instructions | 4       |

```
      00 01 02 03 04 05 06 07  08 09 0A 0B 0C 0D 0E 0F
      -- -- -- -- -- -- -- --  -- -- -- -- -- -- -- --
0100:       1D 24 80 23 21 00                             .$.#!.        
```

#### Opcodes

```
  0: 0x0102 [0x1D] PRINT_EVENT_MESSAGE(message_id=9649*)
    → "Ah, just what the doctor ordered! Your generosity is much appreciated, \u0008!\u007F1\u0000\u0007"
  1: 0x0105 [0x23] WAIT_FOR_DIALOG_INTERACTION
  2: 0x0106 [0x21] END_EVENT
  3: 0x0107 [0x00] END_REQSTACK()
```

### Event 905

#### Metadata

| Field        | Value   |
|--------------|---------|
| Entrypoint   | 0x0108  |
| Data Size    | 1 bytes |
| Instructions | 1       |

```
      00 01 02 03 04 05 06 07  08 09 0A 0B 0C 0D 0E 0F
      -- -- -- -- -- -- -- --  -- -- -- -- -- -- -- --
0100:                          00                               .       
```

#### Opcodes

```
  0: 0x0108 [0x00] END_REQSTACK()
```

### Event 65535.7

#### Metadata

| Field        | Value   |
|--------------|---------|
| Entrypoint   | 0x0109  |
| Data Size    | 1 bytes |
| Instructions | 1       |

```
      00 01 02 03 04 05 06 07  08 09 0A 0B 0C 0D 0E 0F
      -- -- -- -- -- -- -- --  -- -- -- -- -- -- -- --
0100:                             00                             .      
```

#### Opcodes

```
  0: 0x0109 [0x00] END_REQSTACK()
```

### Event 946

#### Metadata

| Field        | Value    |
|--------------|----------|
| Entrypoint   | 0x010A   |
| Data Size    | 10 bytes |
| Instructions | 6        |

```
      00 01 02 03 04 05 06 07  08 09 0A 0B 0C 0D 0E 0F
      -- -- -- -- -- -- -- --  -- -- -- -- -- -- -- --
0100:                                1D 25 80 23 1D 26            .%.#.&
0110: 80 23 21 00                                       .#!.            
```

#### Opcodes

```
  0: 0x010A [0x1D] PRINT_EVENT_MESSAGE(message_id=9673*)
    → "Ah, \u0008! How kind of you to visit me at my humble studio.\u0007Just applying the finishing touches to my latest work, here...\u007F1\u0000\u0007"
  1: 0x010D [0x23] WAIT_FOR_DIALOG_INTERACTION
  2: 0x010E [0x1D] PRINT_EVENT_MESSAGE(message_id=9674*)
    → "All I need is--<ahem>--that one part we spoke of, and this beauty will be complete.\u0007Yes, you should be able to find it around Mount Zhayolm, I'd wager.\u007F1\u0000\u0007"
  3: 0x0111 [0x23] WAIT_FOR_DIALOG_INTERACTION
  4: 0x0112 [0x21] END_EVENT
  5: 0x0113 [0x00] END_REQSTACK()
```

### Event 947

#### Metadata

| Field        | Value    |
|--------------|----------|
| Entrypoint   | 0x0114   |
| Data Size    | 10 bytes |
| Instructions | 6        |

```
      00 01 02 03 04 05 06 07  08 09 0A 0B 0C 0D 0E 0F
      -- -- -- -- -- -- -- --  -- -- -- -- -- -- -- --
0110:             1D 27 80 23  1D 28 80 23 21 00            .'.#.(.#!.  
```

#### Opcodes

```
  0: 0x0114 [0x1D] PRINT_EVENT_MESSAGE(message_id=9675*)
    → "Any luck hunting down that rare part for me?\u0007Hm? \u007F\u0000\u0001\u0001\u0001\u0001 \u0001\u0005$\u0002\u0000\u0000\u0000, you say?\u007F1\u0000\u0007"
  1: 0x0117 [0x23] WAIT_FOR_DIALOG_INTERACTION
  2: 0x0118 [0x1D] PRINT_EVENT_MESSAGE(message_id=9676*)
    → "That's a tall order, there.\u0007Perhaps you should seek out a veteran treasure hunter, or one acquainted with the environs.\u007F1\u0000\u0007"
  3: 0x011B [0x23] WAIT_FOR_DIALOG_INTERACTION
  4: 0x011C [0x21] END_EVENT
  5: 0x011D [0x00] END_REQSTACK()
```

### Event 948

#### Metadata

| Field        | Value    |
|--------------|----------|
| Entrypoint   | 0x011E   |
| Data Size    | 10 bytes |
| Instructions | 6        |

```
      00 01 02 03 04 05 06 07  08 09 0A 0B 0C 0D 0E 0F
      -- -- -- -- -- -- -- --  -- -- -- -- -- -- -- --
0110:                                            1D 29                .)
0120: 80 23 1D 2A 80 23 21 00                           .#.*.#!.        
```

#### Opcodes

```
  0: 0x011E [0x1D] PRINT_EVENT_MESSAGE(message_id=9677*)
    → "Phew! Another grueling day at the workshop.\u0007What's that? You've recovered the part for me?\u007F1\u0000\u0007"
  1: 0x0121 [0x23] WAIT_FOR_DIALOG_INTERACTION
  2: 0x0122 [0x1D] PRINT_EVENT_MESSAGE(message_id=9678*)
    → "Splendid! I'm just about to head out for the day, so if you could just deliver it to--<ahem>--the agreed-upon location, all should be in order.\u007F1\u0000\u0007"
  3: 0x0125 [0x23] WAIT_FOR_DIALOG_INTERACTION
  4: 0x0126 [0x21] END_EVENT
  5: 0x0127 [0x00] END_REQSTACK()
```

### Event 949

#### Metadata

| Field        | Value   |
|--------------|---------|
| Entrypoint   | 0x0128  |
| Data Size    | 6 bytes |
| Instructions | 4       |

```
      00 01 02 03 04 05 06 07  08 09 0A 0B 0C 0D 0E 0F
      -- -- -- -- -- -- -- --  -- -- -- -- -- -- -- --
0120:                          1D 2B 80 23 21 00                .+.#!.  
```

#### Opcodes

```
  0: 0x0128 [0x1D] PRINT_EVENT_MESSAGE(message_id=9679*)
    → "Greetings, \u0008. I heard that, ah, a certain someone's waiting for an opportunity to thank you in person.\u0007I was just--<ahem>--going to head over that way myself, so perhaps I'll see you there.\u007F1\u0000\u0007"
  1: 0x012B [0x23] WAIT_FOR_DIALOG_INTERACTION
  2: 0x012C [0x21] END_EVENT
  3: 0x012D [0x00] END_REQSTACK()
```

### Event 950

#### Metadata

| Field        | Value    |
|--------------|----------|
| Entrypoint   | 0x012E   |
| Data Size    | 24 bytes |
| Instructions | 12       |

```
      00 01 02 03 04 05 06 07  08 09 0A 0B 0C 0D 0E 0F
      -- -- -- -- -- -- -- --  -- -- -- -- -- -- -- --
0120:                                            48 2C                H,
0130: 80 1C 2D 80 1D 2E 80 23  1D 2F 80 23 1D 30 80 23  ..-....#./.#.0.#
0140: 1D 31 80 23 21 00                                 .1.#!.          
```

#### Opcodes

```
  0: 0x012E [0x48] [System] [9680*]:
    → "\u001F\u000FGhatsad cautiously surveys the room.\u0000\u0007"
  1: 0x0131 [0x1C] WAIT(60* ticks)
  2: 0x0134 [0x1D] PRINT_EVENT_MESSAGE(message_id=9681*)
    → "(I tell you, \u0008, ever since Lord Razfahd returned, her Majesty has been quite literally bounding about the palace in joy.)\u007F1\u0000\u0007"
  3: 0x0137 [0x23] WAIT_FOR_DIALOG_INTERACTION
  4: 0x0138 [0x1D] PRINT_EVENT_MESSAGE(message_id=9682*)
    → "(I must confess, it brought a tear to this old Galka's eye as well.)\u007F1\u0000\u0007"
  5: 0x013B [0x23] WAIT_FOR_DIALOG_INTERACTION
  6: 0x013C [0x1D] PRINT_EVENT_MESSAGE(message_id=9683*)
    → "(I did tutor the boy as a child, you know.\u0007Were it not beyond my station, why, I'd say I think of him almost as a son of my own.)\u007F1\u0000\u0007"
  7: 0x013F [0x23] WAIT_FOR_DIALOG_INTERACTION
  8: 0x0140 [0x1D] PRINT_EVENT_MESSAGE(message_id=9684*)
    → "(In any event, we owe you a true debt of gratitude.\u0007Thank you, \u0008.)\u007F1\u0000\u0007"
  9: 0x0143 [0x23] WAIT_FOR_DIALOG_INTERACTION
 10: 0x0144 [0x21] END_EVENT
 11: 0x0145 [0x00] END_REQSTACK()
```

### Event 951

#### Metadata

| Field        | Value    |
|--------------|----------|
| Entrypoint   | 0x0146   |
| Data Size    | 10 bytes |
| Instructions | 6        |

```
      00 01 02 03 04 05 06 07  08 09 0A 0B 0C 0D 0E 0F
      -- -- -- -- -- -- -- --  -- -- -- -- -- -- -- --
0140:                   1D 32  80 23 1D 33 80 23 21 00        .2.#.3.#!.
```

#### Opcodes

```
  0: 0x0146 [0x1D] PRINT_EVENT_MESSAGE(message_id=9685*)
    → "Orders upon orders! It's all work and no play for the busy puppetcrafter.\u0007My apologies, but could you return another time?\u007F1\u0000\u0007"
  1: 0x0149 [0x23] WAIT_FOR_DIALOG_INTERACTION
  2: 0x014A [0x1D] PRINT_EVENT_MESSAGE(message_id=9686*)
    → "Oh, and \u0008...the--<ahem>--business partner of whom we spoke said he's eagerly awaiting your arrival.\u007F1\u0000\u0007"
  3: 0x014D [0x23] WAIT_FOR_DIALOG_INTERACTION
  4: 0x014E [0x21] END_EVENT
  5: 0x014F [0x00] END_REQSTACK()
```

### Event 952

#### Metadata

| Field        | Value    |
|--------------|----------|
| Entrypoint   | 0x0150   |
| Data Size    | 24 bytes |
| Instructions | 12       |

```
      00 01 02 03 04 05 06 07  08 09 0A 0B 0C 0D 0E 0F
      -- -- -- -- -- -- -- --  -- -- -- -- -- -- -- --
0150: 48 2C 80 1C 2D 80 1D 34  80 23 1D 35 80 23 1D 36  H,..-..4.#.5.#.6
0160: 80 23 1D 37 80 23 21 00                           .#.7.#!.        
```

#### Opcodes

```
  0: 0x0150 [0x48] [System] [9680*]:
    → "\u001F\u000FGhatsad cautiously surveys the room.\u0000\u0007"
  1: 0x0153 [0x1C] WAIT(60* ticks)
  2: 0x0156 [0x1D] PRINT_EVENT_MESSAGE(message_id=9687*)
    → "(A divine receptacle--a marvel of science, born of the centuries-long struggle of our forbears...\u0007Now we repair it, only to demolish it again like so much scrap metal.)\u007F1\u0000\u0007"
  3: 0x0159 [0x23] WAIT_FOR_DIALOG_INTERACTION
  4: 0x015A [0x1D] PRINT_EVENT_MESSAGE(message_id=9688*)
    → "(How foolish we were to presume that we--mere mortals--could wield the power of the divine.\u0007Still, there must be another way, and we will--no, we must--find it someday.)\u007F1\u0000\u0007"
  5: 0x015D [0x23] WAIT_FOR_DIALOG_INTERACTION
  6: 0x015E [0x1D] PRINT_EVENT_MESSAGE(message_id=9689*)
    → "(Ah, but forgive me, \u0008. I'm sure you have more pressing matters to attend than one scientist's idle ramblings.)\u007F1\u0000\u0007"
  7: 0x0161 [0x23] WAIT_FOR_DIALOG_INTERACTION
  8: 0x0162 [0x1D] PRINT_EVENT_MESSAGE(message_id=9690*)
    → "(We shall call upon you if we have need of your services again.\u0007Until then, be well.)\u007F1\u0000\u0007"
  9: 0x0165 [0x23] WAIT_FOR_DIALOG_INTERACTION
 10: 0x0166 [0x21] END_EVENT
 11: 0x0167 [0x00] END_REQSTACK()
```
