# 16982544 - Clavauert

## Common Data

| Field            | Value                         |
|------------------|-------------------------------|
| Zone             | Aht Urhgan Whitegate (ID: 50) |
| Block Size       | 2276 bytes                    |
| Total Events     | 73                            |
| References Count | 110                           |

## List of Events

| Event ID                    | Entrypoint   |   Size |   Instructions |
|-----------------------------|--------------|--------|----------------|
| [65535](#event-65535)       | 0x0000       |      1 |              1 |
| [889](#event-889)           | 0x0001       |      1 |              1 |
| [65535.1](#event-65535-1)   | 0x0002       |      9 |              3 |
| [65535.2](#event-65535-2)   | 0x000B       |      3 |              2 |
| [65535.3](#event-65535-3)   | 0x000E       |      3 |              2 |
| [65535.4](#event-65535-4)   | 0x0011       |     14 |              2 |
| [65535.5](#event-65535-5)   | 0x001F       |     28 |              6 |
| [65535.6](#event-65535-6)   | 0x003B       |     20 |              6 |
| [65535.7](#event-65535-7)   | 0x004F       |     22 |              4 |
| [65535.8](#event-65535-8)   | 0x0065       |     14 |              2 |
| [65535.9](#event-65535-9)   | 0x0073       |     34 |             10 |
| [65535.10](#event-65535-10) | 0x0095       |     14 |              2 |
| [65535.11](#event-65535-11) | 0x00A3       |     63 |             14 |
| [65535.12](#event-65535-12) | 0x00E2       |     17 |              3 |
| [65535.13](#event-65535-13) | 0x00F3       |     99 |             13 |
| [65535.14](#event-65535-14) | 0x0156       |     15 |              3 |
| [65535.15](#event-65535-15) | 0x0165       |     21 |              5 |
| [65535.16](#event-65535-16) | 0x017A       |     21 |              5 |
| [65535.17](#event-65535-17) | 0x018F       |     66 |              6 |
| [65535.18](#event-65535-18) | 0x01D1       |     37 |              5 |
| [65535.19](#event-65535-19) | 0x01F6       |     17 |              5 |
| [65535.20](#event-65535-20) | 0x0207       |     21 |              5 |
| [65535.21](#event-65535-21) | 0x021C       |     19 |              5 |
| [65535.22](#event-65535-22) | 0x022F       |     18 |              4 |
| [65535.23](#event-65535-23) | 0x0241       |     14 |              4 |
| [65535.24](#event-65535-24) | 0x024F       |     16 |              4 |
| [65535.25](#event-65535-25) | 0x025F       |     13 |              3 |
| [65535.26](#event-65535-26) | 0x026C       |     66 |              6 |
| [65535.27](#event-65535-27) | 0x02AE       |     59 |             11 |
| [65535.28](#event-65535-28) | 0x02E9       |     17 |              5 |
| [65535.29](#event-65535-29) | 0x02FA       |     28 |              8 |
| [65535.30](#event-65535-30) | 0x0316       |     15 |              5 |
| [65535.31](#event-65535-31) | 0x0325       |     23 |              7 |
| [65535.32](#event-65535-32) | 0x033C       |     21 |              5 |
| [65535.33](#event-65535-33) | 0x0351       |     27 |              5 |
| [65535.34](#event-65535-34) | 0x036C       |     16 |              4 |
| [65535.35](#event-65535-35) | 0x037C       |     16 |              4 |
| [65535.36](#event-65535-36) | 0x038C       |     16 |              4 |
| [65535.37](#event-65535-37) | 0x039C       |     38 |             10 |
| [65535.38](#event-65535-38) | 0x03C2       |      9 |              3 |
| [65535.39](#event-65535-39) | 0x03CB       |     16 |              4 |
| [890](#event-890)           | 0x03DB       |      1 |              1 |
| [65535.40](#event-65535-40) | 0x03DC       |     16 |              4 |
| [65535.41](#event-65535-41) | 0x03EC       |     62 |             12 |
| [65535.42](#event-65535-42) | 0x042A       |     27 |              3 |
| [65535.43](#event-65535-43) | 0x0445       |      9 |              3 |
| [65535.44](#event-65535-44) | 0x044E       |      8 |              2 |
| [65535.45](#event-65535-45) | 0x0456       |      8 |              2 |
| [65535.46](#event-65535-46) | 0x045E       |      8 |              2 |
| [65535.47](#event-65535-47) | 0x0466       |      8 |              2 |
| [65535.48](#event-65535-48) | 0x046E       |     10 |              2 |
| [65535.49](#event-65535-49) | 0x0478       |     16 |              4 |
| [65535.50](#event-65535-50) | 0x0488       |     16 |              2 |
| [65535.51](#event-65535-51) | 0x0498       |     16 |              2 |
| [65535.52](#event-65535-52) | 0x04A8       |     28 |              5 |
| [65535.53](#event-65535-53) | 0x04C4       |     19 |              5 |
| [65535.54](#event-65535-54) | 0x04D7       |     32 |              8 |
| [65535.55](#event-65535-55) | 0x04F7       |     25 |              6 |
| [65535.56](#event-65535-56) | 0x0510       |     16 |              4 |
| [65535.57](#event-65535-57) | 0x0520       |     15 |              5 |
| [65535.58](#event-65535-58) | 0x052F       |     16 |              4 |
| [65535.59](#event-65535-59) | 0x053F       |     16 |              4 |
| [65535.60](#event-65535-60) | 0x054F       |     13 |              3 |
| [65535.61](#event-65535-61) | 0x055C       |     15 |              5 |
| [65535.62](#event-65535-62) | 0x056B       |     19 |              3 |
| [65535.63](#event-65535-63) | 0x057E       |     16 |              4 |
| [65535.64](#event-65535-64) | 0x058E       |     16 |              4 |
| [65535.65](#event-65535-65) | 0x059E       |     24 |              6 |
| [65535.66](#event-65535-66) | 0x05B6       |     16 |              4 |
| [65535.67](#event-65535-67) | 0x05C6       |     16 |              4 |
| [65535.68](#event-65535-68) | 0x05D6       |     16 |              4 |
| [65535.69](#event-65535-69) | 0x05E6       |     14 |              4 |
| [892](#event-892)           | 0x05F4       |      1 |              1 |

## DAT References (imed_data)

|   Index | Hex Value   |   Dec Value |
|---------|-------------|-------------|
|       0 | 0xFFFE070B  |  4294838027 |
|       1 | 0x0241      |         577 |
|       2 | 0x050C      |        1292 |
|       3 | 0x06BC      |        1724 |
|       4 | 0xFFFDF13B  |  4294832443 |
|       5 | 0xFFFFF8D3  |  4294965459 |
|       6 | 0x07CF      |        1999 |
|       7 | 0x076E      |        1902 |
|       8 | 0x000F      |          15 |
|       9 | 0xFFFDD4EC  |  4294825196 |
|      10 | 0xFFFFF22C  |  4294963756 |
|      11 | 0x000D      |          13 |
|      12 | 0xFFFDD3D8  |  4294824920 |
|      13 | 0xFFFFEF46  |  4294963014 |
|      14 | 0xFFF91DC4  |  4294516164 |
|      15 | 0x65878     |      415864 |
|      16 | 0xFFFF989B  |  4294940827 |
|      17 | 0x08F5      |        2293 |
|      18 | 0x336D7     |      210647 |
|      19 | 0x4269F     |      272031 |
|      20 | 0xFFFF9C37  |  4294941751 |
|      21 | 0x0919      |        2329 |
|      22 | 0x331D3     |      209363 |
|      23 | 0x42EA1     |      274081 |
|      24 | 0xFFFF9E47  |  4294942279 |
|      25 | 0x0014      |          20 |
|      26 | 0xFFF8B390  |  4294488976 |
|      27 | 0xE789      |       59273 |
|      28 | 0xFFFFD64D  |  4294956621 |
|      29 | 0x0800      |        2048 |
|      30 | 0xFFF89066  |  4294479974 |
|      31 | 0xEAA7      |       60071 |
|      32 | 0xFFFFD411  |  4294956049 |
|      33 | 0x008C      |         140 |
|      34 | 0x014A      |         330 |
|      35 | 0x003C      |          60 |
|      36 | 0x0078      |         120 |
|      37 | 0x0001      |           1 |
|      38 | 0x2789C     |      161948 |
|      39 | 0x483AC     |      295852 |
|      40 | 0xFFFFA42A  |  4294943786 |
|      41 | 0x0945      |        2373 |
|      42 | 0x0015      |          21 |
|      43 | 0x00C8      |         200 |
|      44 | 0x005A      |          90 |
|      45 | 0xFFF85A7D  |  4294466173 |
|      46 | 0xFFF44F55  |  4294201173 |
|      47 | 0xFFFF9524  |  4294939940 |
|      48 | 0x05AB      |        1451 |
|      49 | 0x0004      |           4 |
|      50 | 0x00B4      |         180 |
|      51 | 0x001A      |          26 |
|      52 | 0x0050      |          80 |
|      53 | 0xF054      |       61524 |
|      54 | 0xFFFC5FB5  |  4294729653 |
|      55 | 0xFFFFF63A  |  4294964794 |
|      56 | 0x0F1D      |        3869 |
|      57 | 0x001D      |          29 |
|      58 | 0x00F0      |         240 |
|      59 | 0x0028      |          40 |
|      60 | 0x0010      |          16 |
|      61 | 0xFFFDD195  |  4294824341 |
|      62 | 0xFFFFED37  |  4294962487 |
|      63 | 0x0021      |          33 |
|      64 | 0x000A      |          10 |
|      65 | 0xFFFDD5D7  |  4294825431 |
|      66 | 0xFFFFF3EB  |  4294964203 |
|      67 | 0x0020      |          32 |
|      68 | 0x0013      |          19 |
|      69 | 0x1CCC2     |      117954 |
|      70 | 0xFFFDA32D  |  4294812461 |
|      71 | 0x39B8      |       14776 |
|      72 | 0x0E55      |        3669 |
|      73 | 0x000B      |          11 |
|      74 | 0x0024      |          36 |
|      75 | 0xFFFDD8B8  |  4294826168 |
|      76 | 0xFFFFE367  |  4294959975 |
|      77 | 0x0006      |           6 |
|      78 | 0x001E      |          30 |
|      79 | 0x0007      |           7 |
|      80 | 0xFFFE1E19  |  4294843929 |
|      81 | 0xFFFFE418  |  4294960152 |
|      82 | 0x0000      |           0 |
|      83 | 0x0096      |         150 |
|      84 | 0x05DC      |        1500 |
|      85 | 0x03E8      |        1000 |
|      86 | 0xA4FEA     |      675818 |
|      87 | 0x314D8     |      201944 |
|      88 | 0xFFFFC164  |  4294951268 |
|      89 | 0xFFFF2F98  |  4294913944 |
|      90 | 0xFFFE7C02  |  4294867970 |
|      91 | 0x174A      |        5962 |
|      92 | 0xFFFF377C  |  4294915964 |
|      93 | 0xFFFE7AA5  |  4294867621 |
|      94 | 0x174E      |        5966 |
|      95 | 0xFFFDD4BB  |  4294825147 |
|      96 | 0xFFFFE4C4  |  4294960324 |
|      97 | 0xA5A82     |      678530 |
|      98 | 0x31FA7     |      204711 |
|      99 | 0xFFFFC1AB  |  4294951339 |
|     100 | 0x0400      |        1024 |
|     101 | 0xFFFFFC00  |  4294966272 |
|     102 | 0xFFFDE436  |  4294829110 |
|     103 | 0xFFFFDEA8  |  4294958760 |
|     104 | 0xFFFDE81E  |  4294830110 |
|     105 | 0x0016      |          22 |
|     106 | 0x0032      |          50 |
|     107 | 0x0200      |         512 |
|     108 | 0x0009      |           9 |
|     109 | 0xFFFE0F2E  |  4294840110 |

## Events

### Event 65535

#### Metadata

| Field        | Value   |
|--------------|---------|
| Entrypoint   | 0x0000  |
| Data Size    | 1 bytes |
| Instructions | 1       |

```
      00 01 02 03 04 05 06 07  08 09 0A 0B 0C 0D 0E 0F
      -- -- -- -- -- -- -- --  -- -- -- -- -- -- -- --
0000: 00                                                .               
```

#### Opcodes

```
  0: 0x0000 [0x00] END_REQSTACK()
```

### Event 889

#### Metadata

| Field        | Value   |
|--------------|---------|
| Entrypoint   | 0x0001  |
| Data Size    | 1 bytes |
| Instructions | 1       |

```
      00 01 02 03 04 05 06 07  08 09 0A 0B 0C 0D 0E 0F
      -- -- -- -- -- -- -- --  -- -- -- -- -- -- -- --
0000:    00                                              .              
```

#### Opcodes

```
  0: 0x0001 [0x00] END_REQSTACK()
```

### Event 65535.1

#### Metadata

| Field        | Value   |
|--------------|---------|
| Entrypoint   | 0x0002  |
| Data Size    | 9 bytes |
| Instructions | 3       |

```
      00 01 02 03 04 05 06 07  08 09 0A 0B 0C 0D 0E 0F
      -- -- -- -- -- -- -- --  -- -- -- -- -- -- -- --
0000:       22 00 2F 00 F8 FF  FF 7F 00                   "./......     
```

#### Opcodes

```
  0: 0x0002 [0x22] ENTITY_HIDE_FLAG(enabled=0x00)
  1: 0x0004 [0x2F] EventEntity->Render.Flags0 &= ~0x80000 // Bit 19
  2: 0x000A [0x00] END_REQSTACK()
```

### Event 65535.2

#### Metadata

| Field        | Value   |
|--------------|---------|
| Entrypoint   | 0x000B  |
| Data Size    | 3 bytes |
| Instructions | 2       |

```
      00 01 02 03 04 05 06 07  08 09 0A 0B 0C 0D 0E 0F
      -- -- -- -- -- -- -- --  -- -- -- -- -- -- -- --
0000:                                   22 01 00                   "..  
```

#### Opcodes

```
  0: 0x000B [0x22] ENTITY_HIDE_FLAG(enabled=0x01)
  1: 0x000D [0x00] END_REQSTACK()
```

### Event 65535.3

#### Metadata

| Field        | Value   |
|--------------|---------|
| Entrypoint   | 0x000E  |
| Data Size    | 3 bytes |
| Instructions | 2       |

```
      00 01 02 03 04 05 06 07  08 09 0A 0B 0C 0D 0E 0F
      -- -- -- -- -- -- -- --  -- -- -- -- -- -- -- --
0000:                                            22 00                ".
0010: 00                                                .               
```

#### Opcodes

```
  0: 0x000E [0x22] ENTITY_HIDE_FLAG(enabled=0x00)
  1: 0x0010 [0x00] END_REQSTACK()
```

### Event 65535.4

#### Metadata

| Field        | Value    |
|--------------|----------|
| Entrypoint   | 0x0011   |
| Data Size    | 14 bytes |
| Instructions | 2        |

```
      00 01 02 03 04 05 06 07  08 09 0A 0B 0C 0D 0E 0F
      -- -- -- -- -- -- -- --  -- -- -- -- -- -- -- --
0010:    BA F8 FF FF 7F 00 80  01 80 02 80 03 80 00      .............. 
```

#### Opcodes

```
  0: 0x0011 [0xBA] SET_ENTITY_POSITION(entity_id=EventEntity, pos_x=-129.269*, pos_z=0.577*, pos_y=1.292*, direction=151.5°*)
  1: 0x001E [0x00] END_REQSTACK()
```

### Event 65535.5

#### Metadata

| Field        | Value    |
|--------------|----------|
| Entrypoint   | 0x001F   |
| Data Size    | 28 bytes |
| Instructions | 6        |

```
      00 01 02 03 04 05 06 07  08 09 0A 0B 0C 0D 0E 0F
      -- -- -- -- -- -- -- --  -- -- -- -- -- -- -- --
0010:                                               BA                 .
0020: F8 FF FF 7F 04 80 05 80  06 80 07 80 32 08 80 1F  ............2...
0030: 00 09 80 0A 80 06 80 1F  01 6F 00                 .........o.     
```

#### Opcodes

```
  0: 0x001F [0xBA] SET_ENTITY_POSITION(entity_id=EventEntity, pos_x=-134.853*, pos_z=-1.837*, pos_y=1.999*, direction=167.2°*)
  1: 0x002C [0x32] ExtData[1]->MainSpeed = 15* * 0.1
  2: 0x002F [0x1F] MOVE_ENTITY: EventEntity moves to X=-142.100*, Z=-3.540*, Y=1.999*
  3: 0x0037 [0x1F] MOVE_ENTITY: Update entity position (mode=1)
  4: 0x0039 [0x6F] WAIT_FRAME_DELAY: Yield until WaitTime reaches zero
  5: 0x003A [0x00] END_REQSTACK()
```

### Event 65535.6

#### Metadata

| Field        | Value    |
|--------------|----------|
| Entrypoint   | 0x003B   |
| Data Size    | 20 bytes |
| Instructions | 6        |

```
      00 01 02 03 04 05 06 07  08 09 0A 0B 0C 0D 0E 0F
      -- -- -- -- -- -- -- --  -- -- -- -- -- -- -- --
0030:                                   32 0B 80 1F 00             2....
0040: 0C 80 0D 80 06 80 1F 01  6F 1E F0 FF FF 7F 00     ........o...... 
```

#### Opcodes

```
  0: 0x003B [0x32] ExtData[1]->MainSpeed = 13* * 0.1
  1: 0x003E [0x1F] MOVE_ENTITY: EventEntity moves to X=-142.376*, Z=-4.282*, Y=1.999*
  2: 0x0046 [0x1F] MOVE_ENTITY: Update entity position (mode=1)
  3: 0x0048 [0x6F] WAIT_FRAME_DELAY: Yield until WaitTime reaches zero
  4: 0x0049 [0x1E] EventEntity looks at LocalPlayer and starts talking
  5: 0x004E [0x00] END_REQSTACK()
```

### Event 65535.7

#### Metadata

| Field        | Value    |
|--------------|----------|
| Entrypoint   | 0x004F   |
| Data Size    | 22 bytes |
| Instructions | 4        |

```
      00 01 02 03 04 05 06 07  08 09 0A 0B 0C 0D 0E 0F
      -- -- -- -- -- -- -- --  -- -- -- -- -- -- -- --
0040:                                               22                 "
0050: 00 2F 00 F8 FF FF 7F BA  F8 FF FF 7F 0E 80 0F 80  ./..............
0060: 10 80 11 80 00                                    .....           
```

#### Opcodes

```
  0: 0x004F [0x22] ENTITY_HIDE_FLAG(enabled=0x00)
  1: 0x0051 [0x2F] EventEntity->Render.Flags0 &= ~0x80000 // Bit 19
  2: 0x0057 [0xBA] SET_ENTITY_POSITION(entity_id=EventEntity, pos_x=-451.132*, pos_z=415.864*, pos_y=-26.469*, direction=201.5°*)
  3: 0x0064 [0x00] END_REQSTACK()
```

### Event 65535.8

#### Metadata

| Field        | Value    |
|--------------|----------|
| Entrypoint   | 0x0065   |
| Data Size    | 14 bytes |
| Instructions | 2        |

```
      00 01 02 03 04 05 06 07  08 09 0A 0B 0C 0D 0E 0F
      -- -- -- -- -- -- -- --  -- -- -- -- -- -- -- --
0060:                BA F8 FF  FF 7F 12 80 13 80 14 80       ...........
0070: 15 80 00                                          ...             
```

#### Opcodes

```
  0: 0x0065 [0xBA] SET_ENTITY_POSITION(entity_id=EventEntity, pos_x=210.647*, pos_z=272.031*, pos_y=-25.545*, direction=204.7°*)
  1: 0x0072 [0x00] END_REQSTACK()
```

### Event 65535.9

#### Metadata

| Field        | Value    |
|--------------|----------|
| Entrypoint   | 0x0073   |
| Data Size    | 34 bytes |
| Instructions | 10       |

```
      00 01 02 03 04 05 06 07  08 09 0A 0B 0C 0D 0E 0F
      -- -- -- -- -- -- -- --  -- -- -- -- -- -- -- --
0070:          32 0B 80 1F 00  16 80 17 80 18 80 1F 01     2............
0080: 6F 1E D4 20 03 01 6F 70  6E F8 FF FF 7F 19 80 99  o.. ..opn.......
0090: F8 FF FF 7F 00                                    .....           
```

#### Opcodes

```
  0: 0x0073 [0x32] ExtData[1]->MainSpeed = 13* * 0.1
  1: 0x0076 [0x1F] MOVE_ENTITY: EventEntity moves to X=209.363*, Z=274.081*, Y=-25.017*
  2: 0x007E [0x1F] MOVE_ENTITY: Update entity position (mode=1)
  3: 0x0080 [0x6F] WAIT_FRAME_DELAY: Yield until WaitTime reaches zero
  4: 0x0081 [0x1E] EventEntity looks at Unnamed NPC (ID: 16982228/0x010320D4) and starts talking
  5: 0x0086 [0x6F] WAIT_FRAME_DELAY: Yield until WaitTime reaches zero
  6: 0x0087 [0x70] WAIT_ENTITY_RENDER_FLAG: Wait while EventEntity->Render.Flags3 bit 2 is set (cancel turn if not)
  7: 0x0088 [0x6E] EventEntity uses emote 20*
  8: 0x008F [0x99] Wait for EventEntity animation to complete
  9: 0x0094 [0x00] END_REQSTACK()
```

### Event 65535.10

#### Metadata

| Field        | Value    |
|--------------|----------|
| Entrypoint   | 0x0095   |
| Data Size    | 14 bytes |
| Instructions | 2        |

```
      00 01 02 03 04 05 06 07  08 09 0A 0B 0C 0D 0E 0F
      -- -- -- -- -- -- -- --  -- -- -- -- -- -- -- --
0090:                BA F8 FF  FF 7F 1A 80 1B 80 1C 80       ...........
00A0: 1D 80 00                                          ...             
```

#### Opcodes

```
  0: 0x0095 [0xBA] SET_ENTITY_POSITION(entity_id=EventEntity, pos_x=-478.320*, pos_z=59.273*, pos_y=-10.675*, direction=180.0°*)
  1: 0x00A2 [0x00] END_REQSTACK()
```

### Event 65535.11

#### Metadata

| Field        | Value    |
|--------------|----------|
| Entrypoint   | 0x00A3   |
| Data Size    | 63 bytes |
| Instructions | 14       |

```
      00 01 02 03 04 05 06 07  08 09 0A 0B 0C 0D 0E 0F
      -- -- -- -- -- -- -- --  -- -- -- -- -- -- -- --
00A0:          32 0B 80 31 00  1E 80 1F 80 20 80 21 80     2..1..... .!.
00B0: 31 01 79 00 F8 FF FF 7F  18 22 03 01 1C 22 80 7B  1.y......"...".{
00C0: F8 FF FF 7F 1C 23 80 1E  12 22 03 01 6F 76 F8 FF  .....#..."..ov..
00D0: FF 7F 1C 24 80 6E F8 FF  FF 7F 19 80 99 F8 FF FF  ...$.n..........
00E0: 7F 00                                             ..              
```

#### Opcodes

```
  0: 0x00A3 [0x32] ExtData[1]->MainSpeed = 13* * 0.1
  1: 0x00A6 [0x31] UPDATE_ENTITY_POSITION: Set EventEntity goal position to X=-487.322*, Z=60.071*, Y=-11.247*, Time=140*
  2: 0x00B0 [0x31] UPDATE_ENTITY_POSITION: Move EventEntity towards goal position
  3: 0x00B2 [0x79] EventEntity looks at Unnamed NPC (ID: 16982552/0x01032218) (Basic look)
  4: 0x00BC [0x1C] WAIT(330* ticks)
  5: 0x00BF [0x7B] EventEntity stops talking
  6: 0x00C4 [0x1C] WAIT(60* ticks)
  7: 0x00C7 [0x1E] EventEntity looks at Unnamed NPC (ID: 16982546/0x01032212) and starts talking
  8: 0x00CC [0x6F] WAIT_FRAME_DELAY: Yield until WaitTime reaches zero
  9: 0x00CD [0x76] CHECK_ENTITY_RENDER_FLAGS: Wait until EventEntity Render.Flags0 and Render.Flags3 conditions are met
 10: 0x00D2 [0x1C] WAIT(120* ticks)
 11: 0x00D5 [0x6E] EventEntity uses emote 20*
 12: 0x00DC [0x99] Wait for EventEntity animation to complete
 13: 0x00E1 [0x00] END_REQSTACK()
```

### Event 65535.12

#### Metadata

| Field        | Value    |
|--------------|----------|
| Entrypoint   | 0x00E2   |
| Data Size    | 17 bytes |
| Instructions | 3        |

```
      00 01 02 03 04 05 06 07  08 09 0A 0B 0C 0D 0E 0F
      -- -- -- -- -- -- -- --  -- -- -- -- -- -- -- --
00E0:       95 25 80 BA F8 FF  FF 7F 26 80 27 80 28 80    .%......&.'.(.
00F0: 29 80 00                                          )..             
```

#### Opcodes

```
  0: 0x00E2 [0x95] SETUP_EVENT_NPC: Prepare NPC for event (Render.Flags3 = 1*)
  1: 0x00E5 [0xBA] SET_ENTITY_POSITION(entity_id=EventEntity, pos_x=161.948*, pos_z=295.852*, pos_y=-23.510*, direction=208.6°*)
  2: 0x00F2 [0x00] END_REQSTACK()
```

### Event 65535.13

#### Metadata

| Field        | Value    |
|--------------|----------|
| Entrypoint   | 0x00F3   |
| Data Size    | 99 bytes |
| Instructions | 13       |

```
      00 01 02 03 04 05 06 07  08 09 0A 0B 0C 0D 0E 0F
      -- -- -- -- -- -- -- --  -- -- -- -- -- -- -- --
00F0:          66 2A 80 F8 FF  FF 7F F8 FF FF 7F 70 6F     f*.........po
0100: 69 30 1C 2B 80 66 2A 80  F8 FF FF 7F F8 FF FF 7F  i0.+.f*.........
0110: 70 6F 69 31 1C 23 80 1E  11 22 03 01 6F 76 F8 FF  poi1.#..."..ov..
0120: FF 7F 66 19 80 F8 FF FF  7F F8 FF FF 7F 70 61 73  ..f..........pas
0130: 30 1C 2C 80 66 19 80 F8  FF FF 7F F8 FF FF 7F 74  0.,.f..........t
0140: 6C 6B 30 1C 24 80 66 19  80 F8 FF FF 7F F8 FF FF  lk0.$.f.........
0150: 7F 74 6C 6B 31 00                                 .tlk1.          
```

#### Opcodes

```
  0: 0x00F3 [0x66] LOAD_EXT_SCHEDULER_MAIN: Load scheduler "poi0" with entities [EventEntity, EventEntity], work=21*
  1: 0x0102 [0x1C] WAIT(200* ticks)
  2: 0x0105 [0x66] LOAD_EXT_SCHEDULER_MAIN: Load scheduler "poi1" with entities [EventEntity, EventEntity], work=21*
  3: 0x0114 [0x1C] WAIT(60* ticks)
  4: 0x0117 [0x1E] EventEntity looks at Unnamed NPC (ID: 16982545/0x01032211) and starts talking
  5: 0x011C [0x6F] WAIT_FRAME_DELAY: Yield until WaitTime reaches zero
  6: 0x011D [0x76] CHECK_ENTITY_RENDER_FLAGS: Wait until EventEntity Render.Flags0 and Render.Flags3 conditions are met
  7: 0x0122 [0x66] LOAD_EXT_SCHEDULER_MAIN: Load scheduler "pas0" with entities [EventEntity, EventEntity], work=20*
  8: 0x0131 [0x1C] WAIT(90* ticks)
  9: 0x0134 [0x66] LOAD_EXT_SCHEDULER_MAIN: Load scheduler "tlk0" with entities [EventEntity, EventEntity], work=20*
 10: 0x0143 [0x1C] WAIT(120* ticks)
 11: 0x0146 [0x66] LOAD_EXT_SCHEDULER_MAIN: Load scheduler "tlk1" with entities [EventEntity, EventEntity], work=20*
 12: 0x0155 [0x00] END_REQSTACK()
```

### Event 65535.14

#### Metadata

| Field        | Value    |
|--------------|----------|
| Entrypoint   | 0x0156   |
| Data Size    | 15 bytes |
| Instructions | 3        |

```
      00 01 02 03 04 05 06 07  08 09 0A 0B 0C 0D 0E 0F
      -- -- -- -- -- -- -- --  -- -- -- -- -- -- -- --
0150:                   96 BA  F8 FF FF 7F 2D 80 2E 80        ......-...
0160: 2F 80 30 80 00                                    /.0..           
```

#### Opcodes

```
  0: 0x0156 [0x96] UNSET_EVENT_NPC: Restore NPC after event (removes event NPC status)
  1: 0x0157 [0xBA] SET_ENTITY_POSITION(entity_id=EventEntity, pos_x=-501.123*, pos_z=-766.123*, pos_y=-27.356*, direction=127.5°*)
  2: 0x0164 [0x00] END_REQSTACK()
```

### Event 65535.15

#### Metadata

| Field        | Value    |
|--------------|----------|
| Entrypoint   | 0x0165   |
| Data Size    | 21 bytes |
| Instructions | 5        |

```
      00 01 02 03 04 05 06 07  08 09 0A 0B 0C 0D 0E 0F
      -- -- -- -- -- -- -- --  -- -- -- -- -- -- -- --
0160:                6E F8 FF  FF 7F 31 80 99 F8 FF FF       n....1.....
0170: 7F 99 F8 FF FF 7F 1C 32  80 00                    .......2..      
```

#### Opcodes

```
  0: 0x0165 [0x6E] EventEntity uses emote 4*
  1: 0x016C [0x99] Wait for EventEntity animation to complete
  2: 0x0171 [0x99] Wait for EventEntity animation to complete
  3: 0x0176 [0x1C] WAIT(180* ticks)
  4: 0x0179 [0x00] END_REQSTACK()
```

### Event 65535.16

#### Metadata

| Field        | Value    |
|--------------|----------|
| Entrypoint   | 0x017A   |
| Data Size    | 21 bytes |
| Instructions | 5        |

```
      00 01 02 03 04 05 06 07  08 09 0A 0B 0C 0D 0E 0F
      -- -- -- -- -- -- -- --  -- -- -- -- -- -- -- --
0170:                                6E F8 FF FF 7F 33            n....3
0180: 80 99 F8 FF FF 7F 99 F8  FF FF 7F 1C 34 80 00     ............4.. 
```

#### Opcodes

```
  0: 0x017A [0x6E] EventEntity uses emote 26*
  1: 0x0181 [0x99] Wait for EventEntity animation to complete
  2: 0x0186 [0x99] Wait for EventEntity animation to complete
  3: 0x018B [0x1C] WAIT(80* ticks)
  4: 0x018E [0x00] END_REQSTACK()
```

### Event 65535.17

#### Metadata

| Field        | Value    |
|--------------|----------|
| Entrypoint   | 0x018F   |
| Data Size    | 66 bytes |
| Instructions | 6        |

```
      00 01 02 03 04 05 06 07  08 09 0A 0B 0C 0D 0E 0F
      -- -- -- -- -- -- -- --  -- -- -- -- -- -- -- --
0180:                                               37                 7
0190: 35 80 36 80 37 80 38 80  66 39 80 F8 FF FF 7F F8  5.6.7.8.f9......
01A0: FF FF 7F 73 68 61 30 53  F8 FF FF 7F F8 FF FF 7F  ...sha0S........
01B0: 73 68 61 30 66 39 80 F8  FF FF 7F F8 FF FF 7F 73  sha0f9.........s
01C0: 69 72 30 53 F8 FF FF 7F  F8 FF FF 7F 73 69 72 30  ir0S........sir0
01D0: 00                                                .               
```

#### Opcodes

```
  0: 0x018F [0x37] UPDATE_EVENT_POSITION_AND_DIR: x=61.524*, z=-237.643*, y=-2.502*, direction=340.0°*
  1: 0x0198 [0x66] LOAD_EXT_SCHEDULER_MAIN: Load scheduler "sha0" with entities [EventEntity, EventEntity], work=29*
  2: 0x01A7 [0x53] WAIT_SCHEDULER_TASK: Wait for scheduler "sha0" with entities [EventEntity, EventEntity]
  3: 0x01B4 [0x66] LOAD_EXT_SCHEDULER_MAIN: Load scheduler "sir0" with entities [EventEntity, EventEntity], work=29*
  4: 0x01C3 [0x53] WAIT_SCHEDULER_TASK: Wait for scheduler "sir0" with entities [EventEntity, EventEntity]
  5: 0x01D0 [0x00] END_REQSTACK()
```

### Event 65535.18

#### Metadata

| Field        | Value    |
|--------------|----------|
| Entrypoint   | 0x01D1   |
| Data Size    | 37 bytes |
| Instructions | 5        |

```
      00 01 02 03 04 05 06 07  08 09 0A 0B 0C 0D 0E 0F
      -- -- -- -- -- -- -- --  -- -- -- -- -- -- -- --
01D0:    1C 3A 80 66 39 80 F8  FF FF 7F F8 FF FF 7F 73   .:.f9.........s
01E0: 69 72 31 1C 3B 80 66 39  80 F8 FF FF 7F F8 FF FF  ir1.;.f9........
01F0: 7F 73 68 61 31 00                                 .sha1.          
```

#### Opcodes

```
  0: 0x01D1 [0x1C] WAIT(240* ticks)
  1: 0x01D4 [0x66] LOAD_EXT_SCHEDULER_MAIN: Load scheduler "sir1" with entities [EventEntity, EventEntity], work=29*
  2: 0x01E3 [0x1C] WAIT(40* ticks)
  3: 0x01E6 [0x66] LOAD_EXT_SCHEDULER_MAIN: Load scheduler "sha1" with entities [EventEntity, EventEntity], work=29*
  4: 0x01F5 [0x00] END_REQSTACK()
```

### Event 65535.19

#### Metadata

| Field        | Value    |
|--------------|----------|
| Entrypoint   | 0x01F6   |
| Data Size    | 17 bytes |
| Instructions | 5        |

```
      00 01 02 03 04 05 06 07  08 09 0A 0B 0C 0D 0E 0F
      -- -- -- -- -- -- -- --  -- -- -- -- -- -- -- --
01F0:                   37 0C  80 0D 80 06 80 07 80 1E        7.........
0200: F0 FF FF 7F 6F 70 00                              ....op.         
```

#### Opcodes

```
  0: 0x01F6 [0x37] UPDATE_EVENT_POSITION_AND_DIR: x=-142.376*, z=-4.282*, y=1.999*, direction=167.2°*
  1: 0x01FF [0x1E] EventEntity looks at LocalPlayer and starts talking
  2: 0x0204 [0x6F] WAIT_FRAME_DELAY: Yield until WaitTime reaches zero
  3: 0x0205 [0x70] WAIT_ENTITY_RENDER_FLAG: Wait while EventEntity->Render.Flags3 bit 2 is set (cancel turn if not)
  4: 0x0206 [0x00] END_REQSTACK()
```

### Event 65535.20

#### Metadata

| Field        | Value    |
|--------------|----------|
| Entrypoint   | 0x0207   |
| Data Size    | 21 bytes |
| Instructions | 5        |

```
      00 01 02 03 04 05 06 07  08 09 0A 0B 0C 0D 0E 0F
      -- -- -- -- -- -- -- --  -- -- -- -- -- -- -- --
0200:                      6E  F8 FF FF 7F 3C 80 99 F8         n....<...
0210: FF FF 7F 99 F8 FF FF 7F  1C 23 80 00              .........#..    
```

#### Opcodes

```
  0: 0x0207 [0x6E] EventEntity uses emote 16*
  1: 0x020E [0x99] Wait for EventEntity animation to complete
  2: 0x0213 [0x99] Wait for EventEntity animation to complete
  3: 0x0218 [0x1C] WAIT(60* ticks)
  4: 0x021B [0x00] END_REQSTACK()
```

### Event 65535.21

#### Metadata

| Field        | Value    |
|--------------|----------|
| Entrypoint   | 0x021C   |
| Data Size    | 19 bytes |
| Instructions | 5        |

```
      00 01 02 03 04 05 06 07  08 09 0A 0B 0C 0D 0E 0F
      -- -- -- -- -- -- -- --  -- -- -- -- -- -- -- --
0210:                                      32 3B 80 1F              2;..
0220: 00 3D 80 3E 80 06 80 1F  01 1E F0 FF FF 7F 00     .=.>........... 
```

#### Opcodes

```
  0: 0x021C [0x32] ExtData[1]->MainSpeed = 40* * 0.1
  1: 0x021F [0x1F] MOVE_ENTITY: EventEntity moves to X=-142.955*, Z=-4.809*, Y=1.999*
  2: 0x0227 [0x1F] MOVE_ENTITY: Update entity position (mode=1)
  3: 0x0229 [0x1E] EventEntity looks at LocalPlayer and starts talking
  4: 0x022E [0x00] END_REQSTACK()
```

### Event 65535.22

#### Metadata

| Field        | Value    |
|--------------|----------|
| Entrypoint   | 0x022F   |
| Data Size    | 18 bytes |
| Instructions | 4        |

```
      00 01 02 03 04 05 06 07  08 09 0A 0B 0C 0D 0E 0F
      -- -- -- -- -- -- -- --  -- -- -- -- -- -- -- --
0220:                                               6E                 n
0230: F8 FF FF 7F 3F 80 99 F8  FF FF 7F 99 F8 FF FF 7F  ....?...........
0240: 00                                                .               
```

#### Opcodes

```
  0: 0x022F [0x6E] EventEntity uses emote 33*
  1: 0x0236 [0x99] Wait for EventEntity animation to complete
  2: 0x023B [0x99] Wait for EventEntity animation to complete
  3: 0x0240 [0x00] END_REQSTACK()
```

### Event 65535.23

#### Metadata

| Field        | Value    |
|--------------|----------|
| Entrypoint   | 0x0241   |
| Data Size    | 14 bytes |
| Instructions | 4        |

```
      00 01 02 03 04 05 06 07  08 09 0A 0B 0C 0D 0E 0F
      -- -- -- -- -- -- -- --  -- -- -- -- -- -- -- --
0240:    32 40 80 1F 00 41 80  42 80 06 80 1F 01 00      2@...A.B...... 
```

#### Opcodes

```
  0: 0x0241 [0x32] ExtData[1]->MainSpeed = 10* * 0.1
  1: 0x0244 [0x1F] MOVE_ENTITY: EventEntity moves to X=-141.865*, Z=-3.093*, Y=1.999*
  2: 0x024C [0x1F] MOVE_ENTITY: Update entity position (mode=1)
  3: 0x024E [0x00] END_REQSTACK()
```

### Event 65535.24

#### Metadata

| Field        | Value    |
|--------------|----------|
| Entrypoint   | 0x024F   |
| Data Size    | 16 bytes |
| Instructions | 4        |

```
      00 01 02 03 04 05 06 07  08 09 0A 0B 0C 0D 0E 0F
      -- -- -- -- -- -- -- --  -- -- -- -- -- -- -- --
0240:                                               6E                 n
0250: F8 FF FF 7F 43 80 99 F8  FF FF 7F 1C 24 80 00     ....C.......$.. 
```

#### Opcodes

```
  0: 0x024F [0x6E] EventEntity uses emote 32*
  1: 0x0256 [0x99] Wait for EventEntity animation to complete
  2: 0x025B [0x1C] WAIT(120* ticks)
  3: 0x025E [0x00] END_REQSTACK()
```

### Event 65535.25

#### Metadata

| Field        | Value    |
|--------------|----------|
| Entrypoint   | 0x025F   |
| Data Size    | 13 bytes |
| Instructions | 3        |

```
      00 01 02 03 04 05 06 07  08 09 0A 0B 0C 0D 0E 0F
      -- -- -- -- -- -- -- --  -- -- -- -- -- -- -- --
0250:                                               6E                 n
0260: F8 FF FF 7F 44 80 99 F8  FF FF 7F 00              ....D.......    
```

#### Opcodes

```
  0: 0x025F [0x6E] EventEntity uses emote 19*
  1: 0x0266 [0x99] Wait for EventEntity animation to complete
  2: 0x026B [0x00] END_REQSTACK()
```

### Event 65535.26

#### Metadata

| Field        | Value    |
|--------------|----------|
| Entrypoint   | 0x026C   |
| Data Size    | 66 bytes |
| Instructions | 6        |

```
      00 01 02 03 04 05 06 07  08 09 0A 0B 0C 0D 0E 0F
      -- -- -- -- -- -- -- --  -- -- -- -- -- -- -- --
0260:                                      37 45 80 46              7E.F
0270: 80 47 80 48 80 66 39 80  F8 FF FF 7F F8 FF FF 7F  .G.H.f9.........
0280: 73 68 61 30 53 F8 FF FF  7F F8 FF FF 7F 73 68 61  sha0S........sha
0290: 30 66 39 80 F8 FF FF 7F  F8 FF FF 7F 73 69 72 30  0f9.........sir0
02A0: 53 F8 FF FF 7F F8 FF FF  7F 73 69 72 30 00        S........sir0.  
```

#### Opcodes

```
  0: 0x026C [0x37] UPDATE_EVENT_POSITION_AND_DIR: x=117.954*, z=-154.835*, y=14.776*, direction=322.5°*
  1: 0x0275 [0x66] LOAD_EXT_SCHEDULER_MAIN: Load scheduler "sha0" with entities [EventEntity, EventEntity], work=29*
  2: 0x0284 [0x53] WAIT_SCHEDULER_TASK: Wait for scheduler "sha0" with entities [EventEntity, EventEntity]
  3: 0x0291 [0x66] LOAD_EXT_SCHEDULER_MAIN: Load scheduler "sir0" with entities [EventEntity, EventEntity], work=29*
  4: 0x02A0 [0x53] WAIT_SCHEDULER_TASK: Wait for scheduler "sir0" with entities [EventEntity, EventEntity]
  5: 0x02AD [0x00] END_REQSTACK()
```

### Event 65535.27

#### Metadata

| Field        | Value    |
|--------------|----------|
| Entrypoint   | 0x02AE   |
| Data Size    | 59 bytes |
| Instructions | 11       |

```
      00 01 02 03 04 05 06 07  08 09 0A 0B 0C 0D 0E 0F
      -- -- -- -- -- -- -- --  -- -- -- -- -- -- -- --
02A0:                                            1C 21                .!
02B0: 80 66 39 80 F8 FF FF 7F  F8 FF FF 7F 73 69 72 31  .f9.........sir1
02C0: 1C 3B 80 66 39 80 F8 FF  FF 7F F8 FF FF 7F 73 68  .;.f9.........sh
02D0: 61 31 1C 3B 80 1E 13 22  03 01 6F 70 6E F8 FF FF  a1.;..."..opn...
02E0: 7F 49 80 99 F8 FF FF 7F  00                       .I.......       
```

#### Opcodes

```
  0: 0x02AE [0x1C] WAIT(140* ticks)
  1: 0x02B1 [0x66] LOAD_EXT_SCHEDULER_MAIN: Load scheduler "sir1" with entities [EventEntity, EventEntity], work=29*
  2: 0x02C0 [0x1C] WAIT(40* ticks)
  3: 0x02C3 [0x66] LOAD_EXT_SCHEDULER_MAIN: Load scheduler "sha1" with entities [EventEntity, EventEntity], work=29*
  4: 0x02D2 [0x1C] WAIT(40* ticks)
  5: 0x02D5 [0x1E] EventEntity looks at Unnamed NPC (ID: 16982547/0x01032213) and starts talking
  6: 0x02DA [0x6F] WAIT_FRAME_DELAY: Yield until WaitTime reaches zero
  7: 0x02DB [0x70] WAIT_ENTITY_RENDER_FLAG: Wait while EventEntity->Render.Flags3 bit 2 is set (cancel turn if not)
  8: 0x02DC [0x6E] EventEntity uses emote 11*
  9: 0x02E3 [0x99] Wait for EventEntity animation to complete
 10: 0x02E8 [0x00] END_REQSTACK()
```

### Event 65535.28

#### Metadata

| Field        | Value    |
|--------------|----------|
| Entrypoint   | 0x02E9   |
| Data Size    | 17 bytes |
| Instructions | 5        |

```
      00 01 02 03 04 05 06 07  08 09 0A 0B 0C 0D 0E 0F
      -- -- -- -- -- -- -- --  -- -- -- -- -- -- -- --
02E0:                             37 0C 80 0D 80 06 80           7......
02F0: 07 80 1E F0 FF FF 7F 6F  70 00                    .......op.      
```

#### Opcodes

```
  0: 0x02E9 [0x37] UPDATE_EVENT_POSITION_AND_DIR: x=-142.376*, z=-4.282*, y=1.999*, direction=167.2°*
  1: 0x02F2 [0x1E] EventEntity looks at LocalPlayer and starts talking
  2: 0x02F7 [0x6F] WAIT_FRAME_DELAY: Yield until WaitTime reaches zero
  3: 0x02F8 [0x70] WAIT_ENTITY_RENDER_FLAG: Wait while EventEntity->Render.Flags3 bit 2 is set (cancel turn if not)
  4: 0x02F9 [0x00] END_REQSTACK()
```

### Event 65535.29

#### Metadata

| Field        | Value    |
|--------------|----------|
| Entrypoint   | 0x02FA   |
| Data Size    | 28 bytes |
| Instructions | 8        |

```
      00 01 02 03 04 05 06 07  08 09 0A 0B 0C 0D 0E 0F
      -- -- -- -- -- -- -- --  -- -- -- -- -- -- -- --
02F0:                                1E F0 FF FF 7F 6F            .....o
0300: 70 6E F8 FF FF 7F 4A 80  99 F8 FF FF 7F 99 F8 FF  pn....J.........
0310: FF 7F 1C 24 80 00                                 ...$..          
```

#### Opcodes

```
  0: 0x02FA [0x1E] EventEntity looks at LocalPlayer and starts talking
  1: 0x02FF [0x6F] WAIT_FRAME_DELAY: Yield until WaitTime reaches zero
  2: 0x0300 [0x70] WAIT_ENTITY_RENDER_FLAG: Wait while EventEntity->Render.Flags3 bit 2 is set (cancel turn if not)
  3: 0x0301 [0x6E] EventEntity uses emote 36*
  4: 0x0308 [0x99] Wait for EventEntity animation to complete
  5: 0x030D [0x99] Wait for EventEntity animation to complete
  6: 0x0312 [0x1C] WAIT(120* ticks)
  7: 0x0315 [0x00] END_REQSTACK()
```

### Event 65535.30

#### Metadata

| Field        | Value    |
|--------------|----------|
| Entrypoint   | 0x0316   |
| Data Size    | 15 bytes |
| Instructions | 5        |

```
      00 01 02 03 04 05 06 07  08 09 0A 0B 0C 0D 0E 0F
      -- -- -- -- -- -- -- --  -- -- -- -- -- -- -- --
0310:                   32 40  80 1F 00 4B 80 4C 80 06        2@...K.L..
0320: 80 1F 01 6F 00                                    ...o.           
```

#### Opcodes

```
  0: 0x0316 [0x32] ExtData[1]->MainSpeed = 10* * 0.1
  1: 0x0319 [0x1F] MOVE_ENTITY: EventEntity moves to X=-141.128*, Z=-7.321*, Y=1.999*
  2: 0x0321 [0x1F] MOVE_ENTITY: Update entity position (mode=1)
  3: 0x0323 [0x6F] WAIT_FRAME_DELAY: Yield until WaitTime reaches zero
  4: 0x0324 [0x00] END_REQSTACK()
```

### Event 65535.31

#### Metadata

| Field        | Value    |
|--------------|----------|
| Entrypoint   | 0x0325   |
| Data Size    | 23 bytes |
| Instructions | 7        |

```
      00 01 02 03 04 05 06 07  08 09 0A 0B 0C 0D 0E 0F
      -- -- -- -- -- -- -- --  -- -- -- -- -- -- -- --
0320:                1E F0 FF  FF 7F 6F 70 6E F8 FF FF       .....opn...
0330: 7F 3C 80 99 F8 FF FF 7F  1C 24 80 00              .<.......$..    
```

#### Opcodes

```
  0: 0x0325 [0x1E] EventEntity looks at LocalPlayer and starts talking
  1: 0x032A [0x6F] WAIT_FRAME_DELAY: Yield until WaitTime reaches zero
  2: 0x032B [0x70] WAIT_ENTITY_RENDER_FLAG: Wait while EventEntity->Render.Flags3 bit 2 is set (cancel turn if not)
  3: 0x032C [0x6E] EventEntity uses emote 16*
  4: 0x0333 [0x99] Wait for EventEntity animation to complete
  5: 0x0338 [0x1C] WAIT(120* ticks)
  6: 0x033B [0x00] END_REQSTACK()
```

### Event 65535.32

#### Metadata

| Field        | Value    |
|--------------|----------|
| Entrypoint   | 0x033C   |
| Data Size    | 21 bytes |
| Instructions | 5        |

```
      00 01 02 03 04 05 06 07  08 09 0A 0B 0C 0D 0E 0F
      -- -- -- -- -- -- -- --  -- -- -- -- -- -- -- --
0330:                                      6E F8 FF FF              n...
0340: 7F 4D 80 99 F8 FF FF 7F  99 F8 FF FF 7F 1C 2C 80  .M............,.
0350: 00                                                .               
```

#### Opcodes

```
  0: 0x033C [0x6E] EventEntity uses emote 6*
  1: 0x0343 [0x99] Wait for EventEntity animation to complete
  2: 0x0348 [0x99] Wait for EventEntity animation to complete
  3: 0x034D [0x1C] WAIT(90* ticks)
  4: 0x0350 [0x00] END_REQSTACK()
```

### Event 65535.33

#### Metadata

| Field        | Value    |
|--------------|----------|
| Entrypoint   | 0x0351   |
| Data Size    | 27 bytes |
| Instructions | 5        |

```
      00 01 02 03 04 05 06 07  08 09 0A 0B 0C 0D 0E 0F
      -- -- -- -- -- -- -- --  -- -- -- -- -- -- -- --
0350:    3B 0E 22 03 01 00 00  01 00 02 00 32 40 80 31   ;."........2@.1
0360: 00 00 00 01 00 02 00 4E  80 31 01 00              .......N.1..    
```

#### Opcodes

```
  0: 0x0351 [0x3B] GET_ENTITY_POSITION(entity=Salwa-Molwa (ID: 16982542/0x0103220E), x_destination=ExtData[1]->WorkLocal[0], y_destination=ExtData[1]->WorkLocal[1], z_destination=ExtData[1]->WorkLocal[2])
  1: 0x035C [0x32] ExtData[1]->MainSpeed = 10* * 0.1
  2: 0x035F [0x31] UPDATE_ENTITY_POSITION: Set EventEntity goal position to X=ExtData[1]->WorkLocal[0], Z=ExtData[1]->WorkLocal[1], Y=ExtData[1]->WorkLocal[2], Time=30*
  3: 0x0369 [0x31] UPDATE_ENTITY_POSITION: Move EventEntity towards goal position
  4: 0x036B [0x00] END_REQSTACK()
```

### Event 65535.34

#### Metadata

| Field        | Value    |
|--------------|----------|
| Entrypoint   | 0x036C   |
| Data Size    | 16 bytes |
| Instructions | 4        |

```
      00 01 02 03 04 05 06 07  08 09 0A 0B 0C 0D 0E 0F
      -- -- -- -- -- -- -- --  -- -- -- -- -- -- -- --
0360:                                      6E F8 FF FF              n...
0370: 7F 49 80 99 F8 FF FF 7F  1C 24 80 00              .I.......$..    
```

#### Opcodes

```
  0: 0x036C [0x6E] EventEntity uses emote 11*
  1: 0x0373 [0x99] Wait for EventEntity animation to complete
  2: 0x0378 [0x1C] WAIT(120* ticks)
  3: 0x037B [0x00] END_REQSTACK()
```

### Event 65535.35

#### Metadata

| Field        | Value    |
|--------------|----------|
| Entrypoint   | 0x037C   |
| Data Size    | 16 bytes |
| Instructions | 4        |

```
      00 01 02 03 04 05 06 07  08 09 0A 0B 0C 0D 0E 0F
      -- -- -- -- -- -- -- --  -- -- -- -- -- -- -- --
0370:                                      6E F8 FF FF              n...
0380: 7F 4A 80 99 F8 FF FF 7F  1C 24 80 00              .J.......$..    
```

#### Opcodes

```
  0: 0x037C [0x6E] EventEntity uses emote 36*
  1: 0x0383 [0x99] Wait for EventEntity animation to complete
  2: 0x0388 [0x1C] WAIT(120* ticks)
  3: 0x038B [0x00] END_REQSTACK()
```

### Event 65535.36

#### Metadata

| Field        | Value    |
|--------------|----------|
| Entrypoint   | 0x038C   |
| Data Size    | 16 bytes |
| Instructions | 4        |

```
      00 01 02 03 04 05 06 07  08 09 0A 0B 0C 0D 0E 0F
      -- -- -- -- -- -- -- --  -- -- -- -- -- -- -- --
0380:                                      6E F8 FF FF              n...
0390: 7F 3C 80 99 F8 FF FF 7F  1C 24 80 00              .<.......$..    
```

#### Opcodes

```
  0: 0x038C [0x6E] EventEntity uses emote 16*
  1: 0x0393 [0x99] Wait for EventEntity animation to complete
  2: 0x0398 [0x1C] WAIT(120* ticks)
  3: 0x039B [0x00] END_REQSTACK()
```

### Event 65535.37

#### Metadata

| Field        | Value    |
|--------------|----------|
| Entrypoint   | 0x039C   |
| Data Size    | 38 bytes |
| Instructions | 10       |

```
      00 01 02 03 04 05 06 07  08 09 0A 0B 0C 0D 0E 0F
      -- -- -- -- -- -- -- --  -- -- -- -- -- -- -- --
0390:                                      1E 58 20 03              .X .
03A0: 01 6F 70 6E F8 FF FF 7F  4F 80 99 F8 FF FF 7F 1C  .opn....O.......
03B0: 21 80 32 0B 80 31 00 50  80 51 80 52 80 32 80 31  !.2..1.P.Q.R.2.1
03C0: 01 00                                             ..              
```

#### Opcodes

```
  0: 0x039C [0x1E] EventEntity looks at Maudaal (ID: 16982104/0x01032058) and starts talking
  1: 0x03A1 [0x6F] WAIT_FRAME_DELAY: Yield until WaitTime reaches zero
  2: 0x03A2 [0x70] WAIT_ENTITY_RENDER_FLAG: Wait while EventEntity->Render.Flags3 bit 2 is set (cancel turn if not)
  3: 0x03A3 [0x6E] EventEntity uses emote 7*
  4: 0x03AA [0x99] Wait for EventEntity animation to complete
  5: 0x03AF [0x1C] WAIT(140* ticks)
  6: 0x03B2 [0x32] ExtData[1]->MainSpeed = 13* * 0.1
  7: 0x03B5 [0x31] UPDATE_ENTITY_POSITION: Set EventEntity goal position to X=-123.367*, Z=-7.144*, Y=0.000*, Time=180*
  8: 0x03BF [0x31] UPDATE_ENTITY_POSITION: Move EventEntity towards goal position
  9: 0x03C1 [0x00] END_REQSTACK()
```

### Event 65535.38

#### Metadata

| Field        | Value   |
|--------------|---------|
| Entrypoint   | 0x03C2  |
| Data Size    | 9 bytes |
| Instructions | 3       |

```
      00 01 02 03 04 05 06 07  08 09 0A 0B 0C 0D 0E 0F
      -- -- -- -- -- -- -- --  -- -- -- -- -- -- -- --
03C0:       22 01 2F 01 F8 FF  FF 7F 00                   "./......     
```

#### Opcodes

```
  0: 0x03C2 [0x22] ENTITY_HIDE_FLAG(enabled=0x01)
  1: 0x03C4 [0x2F] EventEntity->Render.Flags0 |= 0x80000 // Bit 19
  2: 0x03CA [0x00] END_REQSTACK()
```

### Event 65535.39

#### Metadata

| Field        | Value    |
|--------------|----------|
| Entrypoint   | 0x03CB   |
| Data Size    | 16 bytes |
| Instructions | 4        |

```
      00 01 02 03 04 05 06 07  08 09 0A 0B 0C 0D 0E 0F
      -- -- -- -- -- -- -- --  -- -- -- -- -- -- -- --
03C0:                                   6E F8 FF FF 7F             n....
03D0: 19 80 99 F8 FF FF 7F 1C  2C 80 00                 ........,..     
```

#### Opcodes

```
  0: 0x03CB [0x6E] EventEntity uses emote 20*
  1: 0x03D2 [0x99] Wait for EventEntity animation to complete
  2: 0x03D7 [0x1C] WAIT(90* ticks)
  3: 0x03DA [0x00] END_REQSTACK()
```

### Event 890

#### Metadata

| Field        | Value   |
|--------------|---------|
| Entrypoint   | 0x03DB  |
| Data Size    | 1 bytes |
| Instructions | 1       |

```
      00 01 02 03 04 05 06 07  08 09 0A 0B 0C 0D 0E 0F
      -- -- -- -- -- -- -- --  -- -- -- -- -- -- -- --
03D0:                                   00                         .    
```

#### Opcodes

```
  0: 0x03DB [0x00] END_REQSTACK()
```

### Event 65535.40

#### Metadata

| Field        | Value    |
|--------------|----------|
| Entrypoint   | 0x03DC   |
| Data Size    | 16 bytes |
| Instructions | 4        |

```
      00 01 02 03 04 05 06 07  08 09 0A 0B 0C 0D 0E 0F
      -- -- -- -- -- -- -- --  -- -- -- -- -- -- -- --
03D0:                                      6E F8 FF FF              n...
03E0: 7F 43 80 99 F8 FF FF 7F  1C 53 80 00              .C.......S..    
```

#### Opcodes

```
  0: 0x03DC [0x6E] EventEntity uses emote 32*
  1: 0x03E3 [0x99] Wait for EventEntity animation to complete
  2: 0x03E8 [0x1C] WAIT(150* ticks)
  3: 0x03EB [0x00] END_REQSTACK()
```

### Event 65535.41

#### Metadata

| Field        | Value    |
|--------------|----------|
| Entrypoint   | 0x03EC   |
| Data Size    | 62 bytes |
| Instructions | 12       |

```
      00 01 02 03 04 05 06 07  08 09 0A 0B 0C 0D 0E 0F
      -- -- -- -- -- -- -- --  -- -- -- -- -- -- -- --
03E0:                                      3B F8 FF FF              ;...
03F0: 7F 00 00 01 00 02 00 3A  F8 FF FF 7F 03 00 17 04  .......:........
0400: 00 03 00 54 80 16 05 00  03 00 54 80 07 00 00 04  ...T......T.....
0410: 00 07 01 00 05 00 08 02  00 55 80 32 0B 80 1F 00  .........U.2....
0420: 00 00 01 00 02 00 1F 01  6F 00                    ........o.      
```

#### Opcodes

```
  0: 0x03EC [0x3B] GET_ENTITY_POSITION(entity=EventEntity, x_destination=ExtData[1]->WorkLocal[0], y_destination=ExtData[1]->WorkLocal[1], z_destination=ExtData[1]->WorkLocal[2])
  1: 0x03F7 [0x3A] CONVERT_YAW_TO_BYTE(entity=EventEntity, result_destination=ExtData[1]->WorkLocal[3])
  2: 0x03FE [0x17] ExtData[1]->WorkLocal[4] = cos(ExtData[1]->WorkLocal[3]) * 1500*
  3: 0x0405 [0x16] ExtData[1]->WorkLocal[5] = sin(ExtData[1]->WorkLocal[3]) * 1500*
  4: 0x040C [0x07] ExtData[1]->WorkLocal[0] += ExtData[1]->WorkLocal[4]
  5: 0x0411 [0x07] ExtData[1]->WorkLocal[1] += ExtData[1]->WorkLocal[5]
  6: 0x0416 [0x08] ExtData[1]->WorkLocal[2] -= 1000*
  7: 0x041B [0x32] ExtData[1]->MainSpeed = 13* * 0.1
  8: 0x041E [0x1F] MOVE_ENTITY: EventEntity moves to X=ExtData[1]->WorkLocal[0], Z=ExtData[1]->WorkLocal[1], Y=ExtData[1]->WorkLocal[2]
  9: 0x0426 [0x1F] MOVE_ENTITY: Update entity position (mode=1)
 10: 0x0428 [0x6F] WAIT_FRAME_DELAY: Yield until WaitTime reaches zero
 11: 0x0429 [0x00] END_REQSTACK()
```

### Event 65535.42

#### Metadata

| Field        | Value    |
|--------------|----------|
| Entrypoint   | 0x042A   |
| Data Size    | 27 bytes |
| Instructions | 3        |

```
      00 01 02 03 04 05 06 07  08 09 0A 0B 0C 0D 0E 0F
      -- -- -- -- -- -- -- --  -- -- -- -- -- -- -- --
0420:                                2C F8 FF FF 7F F8            ,.....
0430: FF FF 7F 63 6F 72 70 53  F8 FF FF 7F F8 FF FF 7F  ...corpS........
0440: 63 6F 72 70 00                                    corp.           
```

#### Opcodes

```
  0: 0x042A [0x2C] CREATE_SCHEDULER_TASK: Create scheduler "corp" with entities [EventEntity, EventEntity]
  1: 0x0437 [0x53] WAIT_SCHEDULER_TASK: Wait for scheduler "corp" with entities [EventEntity, EventEntity]
  2: 0x0444 [0x00] END_REQSTACK()
```

### Event 65535.43

#### Metadata

| Field        | Value   |
|--------------|---------|
| Entrypoint   | 0x0445  |
| Data Size    | 9 bytes |
| Instructions | 3       |

```
      00 01 02 03 04 05 06 07  08 09 0A 0B 0C 0D 0E 0F
      -- -- -- -- -- -- -- --  -- -- -- -- -- -- -- --
0440:                22 00 2F  00 F8 FF FF 7F 00             "./......  
```

#### Opcodes

```
  0: 0x0445 [0x22] ENTITY_HIDE_FLAG(enabled=0x00)
  1: 0x0447 [0x2F] EventEntity->Render.Flags0 &= ~0x80000 // Bit 19
  2: 0x044D [0x00] END_REQSTACK()
```

### Event 65535.44

#### Metadata

| Field        | Value   |
|--------------|---------|
| Entrypoint   | 0x044E  |
| Data Size    | 8 bytes |
| Instructions | 2       |

```
      00 01 02 03 04 05 06 07  08 09 0A 0B 0C 0D 0E 0F
      -- -- -- -- -- -- -- --  -- -- -- -- -- -- -- --
0440:                                            36 56                6V
0450: 80 57 80 58 80 00                                 .W.X..          
```

#### Opcodes

```
  0: 0x044E [0x36] SET_ENTITY_EVENT_POSITION(pos_x=675.818*, pos_z=201.944*, pos_y=-16.028*)
  1: 0x0455 [0x00] END_REQSTACK()
```

### Event 65535.45

#### Metadata

| Field        | Value   |
|--------------|---------|
| Entrypoint   | 0x0456  |
| Data Size    | 8 bytes |
| Instructions | 2       |

```
      00 01 02 03 04 05 06 07  08 09 0A 0B 0C 0D 0E 0F
      -- -- -- -- -- -- -- --  -- -- -- -- -- -- -- --
0450:                   36 59  80 5A 80 5B 80 00              6Y.Z.[..  
```

#### Opcodes

```
  0: 0x0456 [0x36] SET_ENTITY_EVENT_POSITION(pos_x=-53.352*, pos_z=-99.326*, pos_y=5.962*)
  1: 0x045D [0x00] END_REQSTACK()
```

### Event 65535.46

#### Metadata

| Field        | Value   |
|--------------|---------|
| Entrypoint   | 0x045E  |
| Data Size    | 8 bytes |
| Instructions | 2       |

```
      00 01 02 03 04 05 06 07  08 09 0A 0B 0C 0D 0E 0F
      -- -- -- -- -- -- -- --  -- -- -- -- -- -- -- --
0450:                                            36 5C                6\
0460: 80 5D 80 5E 80 00                                 .].^..          
```

#### Opcodes

```
  0: 0x045E [0x36] SET_ENTITY_EVENT_POSITION(pos_x=-51.332*, pos_z=-99.675*, pos_y=5.966*)
  1: 0x0465 [0x00] END_REQSTACK()
```

### Event 65535.47

#### Metadata

| Field        | Value   |
|--------------|---------|
| Entrypoint   | 0x0466  |
| Data Size    | 8 bytes |
| Instructions | 2       |

```
      00 01 02 03 04 05 06 07  08 09 0A 0B 0C 0D 0E 0F
      -- -- -- -- -- -- -- --  -- -- -- -- -- -- -- --
0460:                   36 5F  80 60 80 06 80 00              6_.`....  
```

#### Opcodes

```
  0: 0x0466 [0x36] SET_ENTITY_EVENT_POSITION(pos_x=-142.149*, pos_z=-6.972*, pos_y=1.999*)
  1: 0x046D [0x00] END_REQSTACK()
```

### Event 65535.48

#### Metadata

| Field        | Value    |
|--------------|----------|
| Entrypoint   | 0x046E   |
| Data Size    | 10 bytes |
| Instructions | 2        |

```
      00 01 02 03 04 05 06 07  08 09 0A 0B 0C 0D 0E 0F
      -- -- -- -- -- -- -- --  -- -- -- -- -- -- -- --
0460:                                            37 61                7a
0470: 80 62 80 63 80 64 80 00                           .b.c.d..        
```

#### Opcodes

```
  0: 0x046E [0x37] UPDATE_EVENT_POSITION_AND_DIR: x=678.530*, z=204.711*, y=-15.957*, direction=90.0°*
  1: 0x0477 [0x00] END_REQSTACK()
```

### Event 65535.49

#### Metadata

| Field        | Value    |
|--------------|----------|
| Entrypoint   | 0x0478   |
| Data Size    | 16 bytes |
| Instructions | 4        |

```
      00 01 02 03 04 05 06 07  08 09 0A 0B 0C 0D 0E 0F
      -- -- -- -- -- -- -- --  -- -- -- -- -- -- -- --
0470:                          6E F8 FF FF 7F 52 80 99          n....R..
0480: F8 FF FF 7F 1C 2C 80 00                           .....,..        
```

#### Opcodes

```
  0: 0x0478 [0x6E] EventEntity uses emote 0*
  1: 0x047F [0x99] Wait for EventEntity animation to complete
  2: 0x0484 [0x1C] WAIT(90* ticks)
  3: 0x0487 [0x00] END_REQSTACK()
```

### Event 65535.50

#### Metadata

| Field        | Value    |
|--------------|----------|
| Entrypoint   | 0x0488   |
| Data Size    | 16 bytes |
| Instructions | 2        |

```
      00 01 02 03 04 05 06 07  08 09 0A 0B 0C 0D 0E 0F
      -- -- -- -- -- -- -- --  -- -- -- -- -- -- -- --
0480:                          66 39 80 F8 FF FF 7F F8          f9......
0490: FF FF 7F 73 68 61 30 00                           ...sha0.        
```

#### Opcodes

```
  0: 0x0488 [0x66] LOAD_EXT_SCHEDULER_MAIN: Load scheduler "sha0" with entities [EventEntity, EventEntity], work=29*
  1: 0x0497 [0x00] END_REQSTACK()
```

### Event 65535.51

#### Metadata

| Field        | Value    |
|--------------|----------|
| Entrypoint   | 0x0498   |
| Data Size    | 16 bytes |
| Instructions | 2        |

```
      00 01 02 03 04 05 06 07  08 09 0A 0B 0C 0D 0E 0F
      -- -- -- -- -- -- -- --  -- -- -- -- -- -- -- --
0490:                          66 39 80 F8 FF FF 7F F8          f9......
04A0: FF FF 7F 73 68 61 31 00                           ...sha1.        
```

#### Opcodes

```
  0: 0x0498 [0x66] LOAD_EXT_SCHEDULER_MAIN: Load scheduler "sha1" with entities [EventEntity, EventEntity], work=29*
  1: 0x04A7 [0x00] END_REQSTACK()
```

### Event 65535.52

#### Metadata

| Field        | Value    |
|--------------|----------|
| Entrypoint   | 0x04A8   |
| Data Size    | 28 bytes |
| Instructions | 5        |

```
      00 01 02 03 04 05 06 07  08 09 0A 0B 0C 0D 0E 0F
      -- -- -- -- -- -- -- --  -- -- -- -- -- -- -- --
04A0:                          7B F8 FF FF 7F 79 02 F8          {....y..
04B0: FF FF 7F 65 80 52 80 6E  F8 FF FF 7F 19 80 99 F8  ...e.R.n........
04C0: FF FF 7F 00                                       ....            
```

#### Opcodes

```
  0: 0x04A8 [0x7B] EventEntity stops talking
  1: 0x04AD [0x79] EventEntity looks at Unknown NPC (ID: 2152890469/0x80528065) (Direct axis set)
  2: 0x04B7 [0x6E] EventEntity uses emote 20*
  3: 0x04BE [0x99] Wait for EventEntity animation to complete
  4: 0x04C3 [0x00] END_REQSTACK()
```

### Event 65535.53

#### Metadata

| Field        | Value    |
|--------------|----------|
| Entrypoint   | 0x04C4   |
| Data Size    | 19 bytes |
| Instructions | 5        |

```
      00 01 02 03 04 05 06 07  08 09 0A 0B 0C 0D 0E 0F
      -- -- -- -- -- -- -- --  -- -- -- -- -- -- -- --
04C0:             1C 23 80 6E  F8 FF FF 7F 31 80 99 F8      .#.n....1...
04D0: FF FF 7F 1C 24 80 00                              ....$..         
```

#### Opcodes

```
  0: 0x04C4 [0x1C] WAIT(60* ticks)
  1: 0x04C7 [0x6E] EventEntity uses emote 4*
  2: 0x04CE [0x99] Wait for EventEntity animation to complete
  3: 0x04D3 [0x1C] WAIT(120* ticks)
  4: 0x04D6 [0x00] END_REQSTACK()
```

### Event 65535.54

#### Metadata

| Field        | Value    |
|--------------|----------|
| Entrypoint   | 0x04D7   |
| Data Size    | 32 bytes |
| Instructions | 8        |

```
      00 01 02 03 04 05 06 07  08 09 0A 0B 0C 0D 0E 0F
      -- -- -- -- -- -- -- --  -- -- -- -- -- -- -- --
04D0:                      1E  58 20 03 01 4A 58 20 03         .X ..JX .
04E0: 01 F8 FF FF 7F 6F 70 6E  F8 FF FF 7F 19 80 99 F8  .....opn........
04F0: FF FF 7F 1C 2C 80 00                              ....,..         
```

#### Opcodes

```
  0: 0x04D7 [0x1E] EventEntity looks at Maudaal (ID: 16982104/0x01032058) and starts talking
  1: 0x04DC [0x4A] Maudaal (ID: 16982104/0x01032058) looks at EventEntity
  2: 0x04E5 [0x6F] WAIT_FRAME_DELAY: Yield until WaitTime reaches zero
  3: 0x04E6 [0x70] WAIT_ENTITY_RENDER_FLAG: Wait while EventEntity->Render.Flags3 bit 2 is set (cancel turn if not)
  4: 0x04E7 [0x6E] EventEntity uses emote 20*
  5: 0x04EE [0x99] Wait for EventEntity animation to complete
  6: 0x04F3 [0x1C] WAIT(90* ticks)
  7: 0x04F6 [0x00] END_REQSTACK()
```

### Event 65535.55

#### Metadata

| Field        | Value    |
|--------------|----------|
| Entrypoint   | 0x04F7   |
| Data Size    | 25 bytes |
| Instructions | 6        |

```
      00 01 02 03 04 05 06 07  08 09 0A 0B 0C 0D 0E 0F
      -- -- -- -- -- -- -- --  -- -- -- -- -- -- -- --
04F0:                      32  0B 80 1F 00 66 80 67 80         2....f.g.
0500: 06 80 1F 01 6F 79 00 F8  FF FF 7F F0 FF FF 7F 00  ....oy..........
```

#### Opcodes

```
  0: 0x04F7 [0x32] ExtData[1]->MainSpeed = 13* * 0.1
  1: 0x04FA [0x1F] MOVE_ENTITY: EventEntity moves to X=-138.186*, Z=-8.536*, Y=1.999*
  2: 0x0502 [0x1F] MOVE_ENTITY: Update entity position (mode=1)
  3: 0x0504 [0x6F] WAIT_FRAME_DELAY: Yield until WaitTime reaches zero
  4: 0x0505 [0x79] EventEntity looks at LocalPlayer (Basic look)
  5: 0x050F [0x00] END_REQSTACK()
```

### Event 65535.56

#### Metadata

| Field        | Value    |
|--------------|----------|
| Entrypoint   | 0x0510   |
| Data Size    | 16 bytes |
| Instructions | 4        |

```
      00 01 02 03 04 05 06 07  08 09 0A 0B 0C 0D 0E 0F
      -- -- -- -- -- -- -- --  -- -- -- -- -- -- -- --
0510: 6E F8 FF FF 7F 31 80 99  F8 FF FF 7F 1C 2C 80 00  n....1.......,..
```

#### Opcodes

```
  0: 0x0510 [0x6E] EventEntity uses emote 4*
  1: 0x0517 [0x99] Wait for EventEntity animation to complete
  2: 0x051C [0x1C] WAIT(90* ticks)
  3: 0x051F [0x00] END_REQSTACK()
```

### Event 65535.57

#### Metadata

| Field        | Value    |
|--------------|----------|
| Entrypoint   | 0x0520   |
| Data Size    | 15 bytes |
| Instructions | 5        |

```
      00 01 02 03 04 05 06 07  08 09 0A 0B 0C 0D 0E 0F
      -- -- -- -- -- -- -- --  -- -- -- -- -- -- -- --
0520: 32 0B 80 1F 00 68 80 67  80 06 80 1F 01 6F 00     2....h.g.....o. 
```

#### Opcodes

```
  0: 0x0520 [0x32] ExtData[1]->MainSpeed = 13* * 0.1
  1: 0x0523 [0x1F] MOVE_ENTITY: EventEntity moves to X=-137.186*, Z=-8.536*, Y=1.999*
  2: 0x052B [0x1F] MOVE_ENTITY: Update entity position (mode=1)
  3: 0x052D [0x6F] WAIT_FRAME_DELAY: Yield until WaitTime reaches zero
  4: 0x052E [0x00] END_REQSTACK()
```

### Event 65535.58

#### Metadata

| Field        | Value    |
|--------------|----------|
| Entrypoint   | 0x052F   |
| Data Size    | 16 bytes |
| Instructions | 4        |

```
      00 01 02 03 04 05 06 07  08 09 0A 0B 0C 0D 0E 0F
      -- -- -- -- -- -- -- --  -- -- -- -- -- -- -- --
0520:                                               6E                 n
0530: F8 FF FF 7F 33 80 99 F8  FF FF 7F 1C 2C 80 00     ....3.......,.. 
```

#### Opcodes

```
  0: 0x052F [0x6E] EventEntity uses emote 26*
  1: 0x0536 [0x99] Wait for EventEntity animation to complete
  2: 0x053B [0x1C] WAIT(90* ticks)
  3: 0x053E [0x00] END_REQSTACK()
```

### Event 65535.59

#### Metadata

| Field        | Value    |
|--------------|----------|
| Entrypoint   | 0x053F   |
| Data Size    | 16 bytes |
| Instructions | 4        |

```
      00 01 02 03 04 05 06 07  08 09 0A 0B 0C 0D 0E 0F
      -- -- -- -- -- -- -- --  -- -- -- -- -- -- -- --
0530:                                               6E                 n
0540: F8 FF FF 7F 69 80 99 F8  FF FF 7F 1C 2C 80 00     ....i.......,.. 
```

#### Opcodes

```
  0: 0x053F [0x6E] EventEntity uses emote 22*
  1: 0x0546 [0x99] Wait for EventEntity animation to complete
  2: 0x054B [0x1C] WAIT(90* ticks)
  3: 0x054E [0x00] END_REQSTACK()
```

### Event 65535.60

#### Metadata

| Field        | Value    |
|--------------|----------|
| Entrypoint   | 0x054F   |
| Data Size    | 13 bytes |
| Instructions | 3        |

```
      00 01 02 03 04 05 06 07  08 09 0A 0B 0C 0D 0E 0F
      -- -- -- -- -- -- -- --  -- -- -- -- -- -- -- --
0540:                                               6E                 n
0550: F8 FF FF 7F 3C 80 99 F8  FF FF 7F 00              ....<.......    
```

#### Opcodes

```
  0: 0x054F [0x6E] EventEntity uses emote 16*
  1: 0x0556 [0x99] Wait for EventEntity animation to complete
  2: 0x055B [0x00] END_REQSTACK()
```

### Event 65535.61

#### Metadata

| Field        | Value    |
|--------------|----------|
| Entrypoint   | 0x055C   |
| Data Size    | 15 bytes |
| Instructions | 5        |

```
      00 01 02 03 04 05 06 07  08 09 0A 0B 0C 0D 0E 0F
      -- -- -- -- -- -- -- --  -- -- -- -- -- -- -- --
0550:                                      7B F8 FF FF              {...
0560: 7F 4B F8 FF FF 7F 52 80  6F 70 00                 .K....R.op.     
```

#### Opcodes

```
  0: 0x055C [0x7B] EventEntity stops talking
  1: 0x0561 [0x4B] UPDATE_ENTITY_YAW(entity=EventEntity, yaw=0.0°*)
  2: 0x0568 [0x6F] WAIT_FRAME_DELAY: Yield until WaitTime reaches zero
  3: 0x0569 [0x70] WAIT_ENTITY_RENDER_FLAG: Wait while EventEntity->Render.Flags3 bit 2 is set (cancel turn if not)
  4: 0x056A [0x00] END_REQSTACK()
```

### Event 65535.62

#### Metadata

| Field        | Value    |
|--------------|----------|
| Entrypoint   | 0x056B   |
| Data Size    | 19 bytes |
| Instructions | 3        |

```
      00 01 02 03 04 05 06 07  08 09 0A 0B 0C 0D 0E 0F
      -- -- -- -- -- -- -- --  -- -- -- -- -- -- -- --
0560:                                   59 03 F8 FF FF             Y....
0570: 7F 6A 80 79 02 F8 FF FF  7F 6B 80 52 80 00        .j.y.....k.R..  
```

#### Opcodes

```
  0: 0x056B [0x59] UPDATE_ENTITY_DATA: Set EventEntity turn speed head = 50*
  1: 0x0573 [0x79] EventEntity looks at Unknown NPC (ID: 2152890475/0x8052806B) (Direct axis set)
  2: 0x057D [0x00] END_REQSTACK()
```

### Event 65535.63

#### Metadata

| Field        | Value    |
|--------------|----------|
| Entrypoint   | 0x057E   |
| Data Size    | 16 bytes |
| Instructions | 4        |

```
      00 01 02 03 04 05 06 07  08 09 0A 0B 0C 0D 0E 0F
      -- -- -- -- -- -- -- --  -- -- -- -- -- -- -- --
0570:                                            6E F8                n.
0580: FF FF 7F 3C 80 99 F8 FF  FF 7F 1C 2C 80 00        ...<.......,..  
```

#### Opcodes

```
  0: 0x057E [0x6E] EventEntity uses emote 16*
  1: 0x0585 [0x99] Wait for EventEntity animation to complete
  2: 0x058A [0x1C] WAIT(90* ticks)
  3: 0x058D [0x00] END_REQSTACK()
```

### Event 65535.64

#### Metadata

| Field        | Value    |
|--------------|----------|
| Entrypoint   | 0x058E   |
| Data Size    | 16 bytes |
| Instructions | 4        |

```
      00 01 02 03 04 05 06 07  08 09 0A 0B 0C 0D 0E 0F
      -- -- -- -- -- -- -- --  -- -- -- -- -- -- -- --
0580:                                            6E F8                n.
0590: FF FF 7F 19 80 99 F8 FF  FF 7F 1C 2C 80 00        ...........,..  
```

#### Opcodes

```
  0: 0x058E [0x6E] EventEntity uses emote 20*
  1: 0x0595 [0x99] Wait for EventEntity animation to complete
  2: 0x059A [0x1C] WAIT(90* ticks)
  3: 0x059D [0x00] END_REQSTACK()
```

### Event 65535.65

#### Metadata

| Field        | Value    |
|--------------|----------|
| Entrypoint   | 0x059E   |
| Data Size    | 24 bytes |
| Instructions | 6        |

```
      00 01 02 03 04 05 06 07  08 09 0A 0B 0C 0D 0E 0F
      -- -- -- -- -- -- -- --  -- -- -- -- -- -- -- --
0590:                                            6E F8                n.
05A0: FF FF 7F 2A 80 99 F8 FF  FF 7F 1C 21 80 1E F0 FF  ...*.......!....
05B0: FF 7F 1C 2C 80 00                                 ...,..          
```

#### Opcodes

```
  0: 0x059E [0x6E] EventEntity uses emote 21*
  1: 0x05A5 [0x99] Wait for EventEntity animation to complete
  2: 0x05AA [0x1C] WAIT(140* ticks)
  3: 0x05AD [0x1E] EventEntity looks at LocalPlayer and starts talking
  4: 0x05B2 [0x1C] WAIT(90* ticks)
  5: 0x05B5 [0x00] END_REQSTACK()
```

### Event 65535.66

#### Metadata

| Field        | Value    |
|--------------|----------|
| Entrypoint   | 0x05B6   |
| Data Size    | 16 bytes |
| Instructions | 4        |

```
      00 01 02 03 04 05 06 07  08 09 0A 0B 0C 0D 0E 0F
      -- -- -- -- -- -- -- --  -- -- -- -- -- -- -- --
05B0:                   6E F8  FF FF 7F 52 80 99 F8 FF        n....R....
05C0: FF 7F 1C 24 80 00                                 ...$..          
```

#### Opcodes

```
  0: 0x05B6 [0x6E] EventEntity uses emote 0*
  1: 0x05BD [0x99] Wait for EventEntity animation to complete
  2: 0x05C2 [0x1C] WAIT(120* ticks)
  3: 0x05C5 [0x00] END_REQSTACK()
```

### Event 65535.67

#### Metadata

| Field        | Value    |
|--------------|----------|
| Entrypoint   | 0x05C6   |
| Data Size    | 16 bytes |
| Instructions | 4        |

```
      00 01 02 03 04 05 06 07  08 09 0A 0B 0C 0D 0E 0F
      -- -- -- -- -- -- -- --  -- -- -- -- -- -- -- --
05C0:                   6E F8  FF FF 7F 4F 80 99 F8 FF        n....O....
05D0: FF 7F 1C 2C 80 00                                 ...,..          
```

#### Opcodes

```
  0: 0x05C6 [0x6E] EventEntity uses emote 7*
  1: 0x05CD [0x99] Wait for EventEntity animation to complete
  2: 0x05D2 [0x1C] WAIT(90* ticks)
  3: 0x05D5 [0x00] END_REQSTACK()
```

### Event 65535.68

#### Metadata

| Field        | Value    |
|--------------|----------|
| Entrypoint   | 0x05D6   |
| Data Size    | 16 bytes |
| Instructions | 4        |

```
      00 01 02 03 04 05 06 07  08 09 0A 0B 0C 0D 0E 0F
      -- -- -- -- -- -- -- --  -- -- -- -- -- -- -- --
05D0:                   6E F8  FF FF 7F 6C 80 99 F8 FF        n....l....
05E0: FF 7F 1C 24 80 00                                 ...$..          
```

#### Opcodes

```
  0: 0x05D6 [0x6E] EventEntity uses emote 9*
  1: 0x05DD [0x99] Wait for EventEntity animation to complete
  2: 0x05E2 [0x1C] WAIT(120* ticks)
  3: 0x05E5 [0x00] END_REQSTACK()
```

### Event 65535.69

#### Metadata

| Field        | Value    |
|--------------|----------|
| Entrypoint   | 0x05E6   |
| Data Size    | 14 bytes |
| Instructions | 4        |

```
      00 01 02 03 04 05 06 07  08 09 0A 0B 0C 0D 0E 0F
      -- -- -- -- -- -- -- --  -- -- -- -- -- -- -- --
05E0:                   32 0B  80 1F 00 6D 80 67 80 52        2....m.g.R
05F0: 80 1F 01 00                                       ....            
```

#### Opcodes

```
  0: 0x05E6 [0x32] ExtData[1]->MainSpeed = 13* * 0.1
  1: 0x05E9 [0x1F] MOVE_ENTITY: EventEntity moves to X=-127.186*, Z=-8.536*, Y=0.000*
  2: 0x05F1 [0x1F] MOVE_ENTITY: Update entity position (mode=1)
  3: 0x05F3 [0x00] END_REQSTACK()
```

### Event 892

#### Metadata

| Field        | Value   |
|--------------|---------|
| Entrypoint   | 0x05F4  |
| Data Size    | 1 bytes |
| Instructions | 1       |

```
      00 01 02 03 04 05 06 07  08 09 0A 0B 0C 0D 0E 0F
      -- -- -- -- -- -- -- --  -- -- -- -- -- -- -- --
05F0:             00                                        .           
```

#### Opcodes

```
  0: 0x05F4 [0x00] END_REQSTACK()
```
