# 16982291

## Common Data

| Field            | Value                         |
|------------------|-------------------------------|
| Zone             | Aht Urhgan Whitegate (ID: 50) |
| Block Size       | 15056 bytes                   |
| Total Events     | 14                            |
| References Count | 252                           |

## List of Events

| Event ID              | Entrypoint   |   Size |   Instructions |
|-----------------------|--------------|--------|----------------|
| [65535](#event-65535) | 0x0000       |      1 |              1 |
| [504](#event-504)     | 0x0001       |    607 |             98 |
| [505](#event-505)     | 0x0260       |   1182 |            177 |
| [506](#event-506)     | 0x06FE       |    750 |             91 |
| [4](#event-4)         | 0x09EC       |    918 |            135 |
| [6](#event-6)         | 0x0D82       |    506 |             67 |
| [9](#event-9)         | 0x0F7C       |    560 |             71 |
| [11](#event-11)       | 0x11AC       |    994 |            129 |
| [60](#event-60)       | 0x158E       |   3175 |            443 |
| [62](#event-62)       | 0x21F5       |    880 |            126 |
| [65](#event-65)       | 0x2565       |    489 |             75 |
| [67](#event-67)       | 0x274E       |    492 |             66 |
| [69](#event-69)       | 0x293A       |   1102 |            146 |
| [78](#event-78)       | 0x2D88       |   2320 |            372 |

## DAT References (imed_data)

|   Index | Hex Value   |   Dec Value |
|---------|-------------|-------------|
|       0 | 0x0013      |          19 |
|       1 | 0x022F      |         559 |
|       2 | 0x0000      |           0 |
|       3 | 0x001E      |          30 |
|       4 | 0x000F      |          15 |
|       5 | 0x0102      |         258 |
|       6 | 0x003C      |          60 |
|       7 | 0x1309      |        4873 |
|       8 | 0x130A      |        4874 |
|       9 | 0x0032      |          50 |
|      10 | 0x0001      |           1 |
|      11 | 0x0110      |         272 |
|      12 | 0x03E7      |         999 |
|      13 | 0x00C8      |         200 |
|      14 | 0x0345      |         837 |
|      15 | 0x1312      |        4882 |
|      16 | 0x0078      |         120 |
|      17 | 0x1315      |        4885 |
|      18 | 0x1313      |        4883 |
|      19 | 0x1314      |        4884 |
|      20 | 0x1316      |        4886 |
|      21 | 0x1317      |        4887 |
|      22 | 0x1318      |        4888 |
|      23 | 0x1319      |        4889 |
|      24 | 0x002D      |          45 |
|      25 | 0x0003      |           3 |
|      26 | 0x0096      |         150 |
|      27 | 0x0233      |         563 |
|      28 | 0x0164      |         356 |
|      29 | 0x130B      |        4875 |
|      30 | 0x130C      |        4876 |
|      31 | 0x0168      |         360 |
|      32 | 0x130D      |        4877 |
|      33 | 0x130E      |        4878 |
|      34 | 0x130F      |        4879 |
|      35 | 0x0190      |         400 |
|      36 | 0x1310      |        4880 |
|      37 | 0x1311      |        4881 |
|      38 | 0x131A      |        4890 |
|      39 | 0x131B      |        4891 |
|      40 | 0x131C      |        4892 |
|      41 | 0x131D      |        4893 |
|      42 | 0x0103      |         259 |
|      43 | 0x0129      |         297 |
|      44 | 0x1324      |        4900 |
|      45 | 0x1325      |        4901 |
|      46 | 0x1326      |        4902 |
|      47 | 0x1327      |        4903 |
|      48 | 0x012B      |         299 |
|      49 | 0x1328      |        4904 |
|      50 | 0x0033      |          51 |
|      51 | 0x00FF      |         255 |
|      52 | 0x00AE      |         174 |
|      53 | 0x1329      |        4905 |
|      54 | 0x0044      |          68 |
|      55 | 0x132A      |        4906 |
|      56 | 0x132B      |        4907 |
|      57 | 0x00B2      |         178 |
|      58 | 0x132C      |        4908 |
|      59 | 0x132D      |        4909 |
|      60 | 0x132E      |        4910 |
|      61 | 0x132F      |        4911 |
|      62 | 0x1330      |        4912 |
|      63 | 0x1331      |        4913 |
|      64 | 0x1332      |        4914 |
|      65 | 0x1335      |        4917 |
|      66 | 0x1333      |        4915 |
|      67 | 0x1338      |        4920 |
|      68 | 0x1339      |        4921 |
|      69 | 0x133A      |        4922 |
|      70 | 0x08A9      |        2217 |
|      71 | 0x133B      |        4923 |
|      72 | 0x133C      |        4924 |
|      73 | 0x133D      |        4925 |
|      74 | 0x133E      |        4926 |
|      75 | 0x133F      |        4927 |
|      76 | 0x1340      |        4928 |
|      77 | 0x00C9      |         201 |
|      78 | 0x00A3      |         163 |
|      79 | 0x15B1      |        5553 |
|      80 | 0x15B2      |        5554 |
|      81 | 0x0051      |          81 |
|      82 | 0x15B3      |        5555 |
|      83 | 0x0054      |          84 |
|      84 | 0x15B8      |        5560 |
|      85 | 0x15B4      |        5556 |
|      86 | 0x15B5      |        5557 |
|      87 | 0x0050      |          80 |
|      88 | 0x005A      |          90 |
|      89 | 0x15B6      |        5558 |
|      90 | 0x0395      |         917 |
|      91 | 0x03A1      |         929 |
|      92 | 0x15B7      |        5559 |
|      93 | 0x15B9      |        5561 |
|      94 | 0x030A      |         778 |
|      95 | 0x15BA      |        5562 |
|      96 | 0x00B4      |         180 |
|      97 | 0x15BB      |        5563 |
|      98 | 0x15BC      |        5564 |
|      99 | 0x15BD      |        5565 |
|     100 | 0x15BE      |        5566 |
|     101 | 0x0006      |           6 |
|     102 | 0x15BF      |        5567 |
|     103 | 0x15C0      |        5568 |
|     104 | 0x0007      |           7 |
|     105 | 0x15C1      |        5569 |
|     106 | 0x15C2      |        5570 |
|     107 | 0x15C3      |        5571 |
|     108 | 0x15C4      |        5572 |
|     109 | 0x15C5      |        5573 |
|     110 | 0x2227      |        8743 |
|     111 | 0x0005      |           5 |
|     112 | 0x2223      |        8739 |
|     113 | 0x2224      |        8740 |
|     114 | 0x2225      |        8741 |
|     115 | 0x2226      |        8742 |
|     116 | 0x2228      |        8744 |
|     117 | 0x03E8      |        1000 |
|     118 | 0x222A      |        8746 |
|     119 | 0x222B      |        8747 |
|     120 | 0x2229      |        8745 |
|     121 | 0x012C      |         300 |
|     122 | 0x222C      |        8748 |
|     123 | 0x222D      |        8749 |
|     124 | 0x008F      |         143 |
|     125 | 0x2279      |        8825 |
|     126 | 0x222E      |        8750 |
|     127 | 0x222F      |        8751 |
|     128 | 0x0002      |           2 |
|     129 | 0x2230      |        8752 |
|     130 | 0x2231      |        8753 |
|     131 | 0x0004      |           4 |
|     132 | 0x2232      |        8754 |
|     133 | 0x2233      |        8755 |
|     134 | 0x0008      |           8 |
|     135 | 0x0009      |           9 |
|     136 | 0x2234      |        8756 |
|     137 | 0x2235      |        8757 |
|     138 | 0x000A      |          10 |
|     139 | 0x000B      |          11 |
|     140 | 0x000C      |          12 |
|     141 | 0x2236      |        8758 |
|     142 | 0x2237      |        8759 |
|     143 | 0x000D      |          13 |
|     144 | 0x000E      |          14 |
|     145 | 0x2238      |        8760 |
|     146 | 0x2239      |        8761 |
|     147 | 0x0010      |          16 |
|     148 | 0x0011      |          17 |
|     149 | 0x0012      |          18 |
|     150 | 0x223A      |        8762 |
|     151 | 0x223B      |        8763 |
|     152 | 0x0014      |          20 |
|     153 | 0x0015      |          21 |
|     154 | 0x223C      |        8764 |
|     155 | 0x223D      |        8765 |
|     156 | 0x0016      |          22 |
|     157 | 0x0017      |          23 |
|     158 | 0x0018      |          24 |
|     159 | 0x223E      |        8766 |
|     160 | 0x223F      |        8767 |
|     161 | 0x0019      |          25 |
|     162 | 0x001A      |          26 |
|     163 | 0x001B      |          27 |
|     164 | 0x2240      |        8768 |
|     165 | 0x2241      |        8769 |
|     166 | 0x001C      |          28 |
|     167 | 0x001D      |          29 |
|     168 | 0x0028      |          40 |
|     169 | 0x2242      |        8770 |
|     170 | 0x0063      |          99 |
|     171 | 0x227A      |        8826 |
|     172 | 0x004B      |          75 |
|     173 | 0x0029      |          41 |
|     174 | 0x00B9      |         185 |
|     175 | 0x0046      |          70 |
|     176 | 0x002A      |          42 |
|     177 | 0x0041      |          65 |
|     178 | 0x002B      |          43 |
|     179 | 0x2243      |        8771 |
|     180 | 0x2244      |        8772 |
|     181 | 0x2245      |        8773 |
|     182 | 0x2246      |        8774 |
|     183 | 0x2247      |        8775 |
|     184 | 0x2248      |        8776 |
|     185 | 0x2249      |        8777 |
|     186 | 0x224A      |        8778 |
|     187 | 0x224B      |        8779 |
|     188 | 0x224C      |        8780 |
|     189 | 0x224D      |        8781 |
|     190 | 0x224F      |        8783 |
|     191 | 0x2250      |        8784 |
|     192 | 0x2251      |        8785 |
|     193 | 0x2252      |        8786 |
|     194 | 0x2254      |        8788 |
|     195 | 0x2255      |        8789 |
|     196 | 0x2256      |        8790 |
|     197 | 0x2257      |        8791 |
|     198 | 0x2258      |        8792 |
|     199 | 0x2259      |        8793 |
|     200 | 0x225A      |        8794 |
|     201 | 0x225B      |        8795 |
|     202 | 0x225C      |        8796 |
|     203 | 0x225D      |        8797 |
|     204 | 0x225E      |        8798 |
|     205 | 0x225F      |        8799 |
|     206 | 0x002C      |          44 |
|     207 | 0x2260      |        8800 |
|     208 | 0x2262      |        8802 |
|     209 | 0x2264      |        8804 |
|     210 | 0x2266      |        8806 |
|     211 | 0x2267      |        8807 |
|     212 | 0x2268      |        8808 |
|     213 | 0x2269      |        8809 |
|     214 | 0x227B      |        8827 |
|     215 | 0x226A      |        8810 |
|     216 | 0x226B      |        8811 |
|     217 | 0x226C      |        8812 |
|     218 | 0x226D      |        8813 |
|     219 | 0x2261      |        8801 |
|     220 | 0x2263      |        8803 |
|     221 | 0x2265      |        8805 |
|     222 | 0x226E      |        8814 |
|     223 | 0x226F      |        8815 |
|     224 | 0x2270      |        8816 |
|     225 | 0x0240      |         576 |
|     226 | 0x01F7      |         503 |
|     227 | 0x0229      |         553 |
|     228 | 0x2272      |        8818 |
|     229 | 0x2273      |        8819 |
|     230 | 0x2274      |        8820 |
|     231 | 0x2275      |        8821 |
|     232 | 0x2276      |        8822 |
|     233 | 0x2277      |        8823 |
|     234 | 0x2278      |        8824 |
|     235 | 0x00DC      |         220 |
|     236 | 0x00A7      |         167 |
|     237 | 0x227C      |        8828 |
|     238 | 0x227D      |        8829 |
|     239 | 0x227E      |        8830 |
|     240 | 0x227F      |        8831 |
|     241 | 0x2280      |        8832 |
|     242 | 0x2281      |        8833 |
|     243 | 0x2282      |        8834 |
|     244 | 0x2283      |        8835 |
|     245 | 0x2284      |        8836 |
|     246 | 0x2285      |        8837 |
|     247 | 0x2286      |        8838 |
|     248 | 0x2287      |        8839 |
|     249 | 0x2288      |        8840 |
|     250 | 0x2289      |        8841 |
|     251 | 0x00D7      |         215 |

## String References

- **4893**: $P103$P<Player>u$8$i$141p$s/=I
- **4902**: Heard of it? [Of course./I'm afraid not.]
- **4914**: Help out? [Okay, why not./Not today.]
- **5554**: Ahkk Jharcham looks pretty happy about something.
- **5558**: Ahkk Jharcham reaches into her pockets, but all she can find is a few cookie crumbs.
- **5562**: Ahkk Jharcham begins furiously scribbling a map of town with a giant "X" covering a certain place.
- **5566**: Did you see the map? [O-of course not! Heheh!/Meow! I confess!]
- **5568**: Ahkk Jharcham has unknowingly provided you with information on the back alleys of Al Zahbi! Now you can exit to any area from your residence.
- **5573**: You have learned your way through the back alleys of Al Zahbi! Now you can exit to any area from your residence.
- **8744**: Gaze on fate's tapestry? [Gaze away./I weave my own tapestry.]
- **8751**: Destiny is something that... [Is immutable./One forges for oneself./Is unknowable.]
- **8753**: Do goals require sacrifice? [Not if you think hard enough./Occasionally./Absolutely.]
- **8755**: Do you... [Read the scroll?/Throw the scroll away?/Burn the scroll?]
- **8757**: Offer yourself? [Offer another.../I have no such courage./Without hesitation.]
- **8759**: Which do you choose? [A chaotic life./A tranquil life./A mix of both.]
- **8761**: What do you do? [If it keeps me from dying.../Fall, and keep my humanity./Embrace life as a beast.]
- **8763**: Do you... [Brace for the blow?/Try to reason with him?/Cut him down?]
- **8765**: Do you... [Seek a cure?/Leave the world together?/Grant the request?]
- **8767**: Do you... [Tend to his wounds?/End his pain?/Ignore your old friend?]
- **8769**: Do you... [Try to remove him from power?/Carry out the order?/Follow your sense of justice?]
- **8811**: Your words have... [...moved me to action./...been forgotten.]
- **8825**: 
- **8826**: DEBUG: Your cobalt value is $7 percent.
- **8827**: DEBUG: Your divination results are now beyond the realm of mortal men. Lucky you.

## Events

### Event 65535

#### Metadata

| Field        | Value   |
|--------------|---------|
| Entrypoint   | 0x0000  |
| Data Size    | 1 bytes |
| Instructions | 1       |

```
      00 01 02 03 04 05 06 07  08 09 0A 0B 0C 0D 0E 0F
      -- -- -- -- -- -- -- --  -- -- -- -- -- -- -- --
0000: 00                                                .               
```

#### Opcodes

```
  0: 0x0000 [0x00] END_REQSTACK()
```

### Event 504

#### Metadata

| Field        | Value     |
|--------------|-----------|
| Entrypoint   | 0x0001    |
| Data Size    | 607 bytes |
| Instructions | 98        |

```
      00 01 02 03 04 05 06 07  08 09 0A 0B 0C 0D 0E 0F
      -- -- -- -- -- -- -- --  -- -- -- -- -- -- -- --
0000:    42 1A 6A 34 46 01 38  00 80 34 01 80 77 02 80   B.j4F.8..4..w..
0010: 02 80 1C 03 80 AB 09 79  00 F0 FF FF 7F F0 FF FF  .......y........
0020: 7F 27 10 A8 20 03 01 02  27 10 AA 20 03 01 04 27  .'.. ...'.. ...'
0030: 10 AB 20 03 01 04 27 10  AC 20 03 01 04 27 10 AD  .. ...'.. ...'..
0040: 20 03 01 04 27 10 AE 20  03 01 04 27 10 AF 20 03   ...'.. ...'.. .
0050: 01 04 27 10 C0 20 03 01  04 27 10 C1 20 03 01 04  ..'.. ...'.. ...
0060: 27 10 C2 20 03 01 04 27  10 C3 20 03 01 04 92 01  '.. ...'.. .....
0070: F0 FF FF 7F 92 01 A8 20  03 01 92 01 AA 20 03 01  ....... ..... ..
0080: 92 01 AB 20 03 01 92 01  AC 20 03 01 92 01 AD 20  ... ..... ..... 
0090: 03 01 92 01 AE 20 03 01  92 01 AF 20 03 01 92 01  ..... ..... ....
00A0: C0 20 03 01 92 01 C1 20  03 01 92 01 C2 20 03 01  . ..... ..... ..
00B0: 92 01 C3 20 03 01 94 01  F0 FF FF 7F 94 01 A8 20  ... ........... 
00C0: 03 01 94 01 AA 20 03 01  94 01 AB 20 03 01 94 01  ..... ..... ....
00D0: AC 20 03 01 94 01 AD 20  03 01 94 01 AE 20 03 01  . ..... ..... ..
00E0: 94 01 AF 20 03 01 94 01  C0 20 03 01 94 01 C1 20  ... ..... ..... 
00F0: 03 01 94 01 C2 20 03 01  94 01 C3 20 03 01 29 10  ..... ..... ..).
0100: F0 FF FF 7F 1E 29 10 AA  20 03 01 09 29 10 AB 20  .....).. ...).. 
0110: 03 01 09 29 10 AC 20 03  01 09 29 10 AD 20 03 01  ...).. ...).. ..
0120: 09 29 10 AE 20 03 01 09  29 10 AF 20 03 01 09 29  .).. ...).. ...)
0130: 10 C0 20 03 01 09 29 10  C1 20 03 01 09 29 10 C2  .. ...).. ...)..
0140: 20 03 01 09 29 10 C3 20  03 01 09 80 AA 20 03 01   ...).. ..... ..
0150: 80 AB 20 03 01 80 AC 20  03 01 80 AD 20 03 01 80  .. .... .... ...
0160: AE 20 03 01 80 AF 20 03  01 80 C0 20 03 01 80 C1  . .... .... ....
0170: 20 03 01 80 C2 20 03 01  80 C3 20 03 01 29 10 F0   .... .... ..)..
0180: FF FF 7F 18 29 10 C0 20  03 01 0A 29 10 C1 20 03  ....).. ...).. .
0190: 01 0A 29 10 C2 20 03 01  0A 29 10 C3 20 03 01 0A  ..).. ...).. ...
01A0: 7B F0 FF FF 7F 1C 04 80  45 05 80 F0 FF FF 7F F0  {.......E.......
01B0: FF FF 7F 64 61 30 30 02  80 1A 49 34 1C 06 80 2B  ...da00...I4...+
01C0: A8 20 03 01 07 80 23 52  05 80 F0 FF FF 7F F0 FF  . ....#R........
01D0: FF 7F 64 61 30 30 45 05  80 F0 FF FF 7F F0 FF FF  ..da00E.........
01E0: 7F 64 61 30 31 02 80 1C  06 80 2B A8 20 03 01 08  .da01.....+. ...
01F0: 80 23 6A 02 80 06 80 04  80 1A 6A 34 1C 03 80 52  .#j.......j4...R
0200: 05 80 F0 FF FF 7F F0 FF  FF 7F 64 61 30 31 35 09  ..........da015.
0210: 80 78 1C 0A 80 45 0B 80  F0 FF FF 7F F0 FF FF 7F  .x...E..........
0220: 6E 6F 73 65 02 80 55 0B  80 F0 FF FF 7F F0 FF FF  nose..U.........
0230: 7F 6E 6F 73 65 6A 0C 80  06 80 04 80 AB 0A 2D F0  .nosej........-.
0240: FF FF 7F F0 FF FF 7F 31  70 62 31 46 00 45 0D 80  .......1pb1F.E..
0250: F0 FF FF 7F F0 FF FF 7F  66 64 69 32 02 80 21 00  ........fdi2..!.
```

#### Opcodes

```
  0: 0x0001 [0x42] SET_CLI_EVENT_CANCEL_DATA()
  1: 0x0002 [0x1A] CALL_SUBROUTINE(address=0x346A)
  2: 0x0005 [0x46] CAMERA_CONTROL: Disable user control
  3: 0x0007 [0x38] SET_CLIENT_EVENT_MODE(mode=19*)
  4: 0x000A [0x34] LOAD_UNLOAD_ZONE(zone_id=559*)
  5: 0x000D [0x77] SET_EVENT_TIME_WEATHER(hour=0*, weather=0*)
  6: 0x0012 [0x1C] WAIT(30* ticks)
  7: 0x0015 [0xAB] EventEntity->UnknownFlag = 1 // Enable unknown flag
  8: 0x0017 [0x79] LocalPlayer looks at LocalPlayer (Basic look)
  9: 0x0021 [0x27] REQ_SET(priority=0x10, entity_id=Nashmeira (ID: 16982184/0x010320A8), tag_num=0x02)
 10: 0x0028 [0x27] REQ_SET(priority=0x10, entity_id=??? (ID: 16982186/0x010320AA), tag_num=0x04)
 11: 0x002F [0x27] REQ_SET(priority=0x10, entity_id=??? (ID: 16982187/0x010320AB), tag_num=0x04)
 12: 0x0036 [0x27] REQ_SET(priority=0x10, entity_id=??? (ID: 16982188/0x010320AC), tag_num=0x04)
 13: 0x003D [0x27] REQ_SET(priority=0x10, entity_id=??? (ID: 16982189/0x010320AD), tag_num=0x04)
 14: 0x0044 [0x27] REQ_SET(priority=0x10, entity_id=??? (ID: 16982190/0x010320AE), tag_num=0x04)
 15: 0x004B [0x27] REQ_SET(priority=0x10, entity_id=??? (ID: 16982191/0x010320AF), tag_num=0x04)
 16: 0x0052 [0x27] REQ_SET(priority=0x10, entity_id=Unnamed NPC (ID: 16982208/0x010320C0), tag_num=0x04)
 17: 0x0059 [0x27] REQ_SET(priority=0x10, entity_id=Unnamed NPC (ID: 16982209/0x010320C1), tag_num=0x04)
 18: 0x0060 [0x27] REQ_SET(priority=0x10, entity_id=Unnamed NPC (ID: 16982210/0x010320C2), tag_num=0x04)
 19: 0x0067 [0x27] REQ_SET(priority=0x10, entity_id=Unnamed NPC (ID: 16982211/0x010320C3), tag_num=0x04)
 20: 0x006E [0x92] LocalPlayer->Render.Flags3 ^= 0x01
 21: 0x0074 [0x92] Nashmeira (ID: 16982184/0x010320A8)->Render.Flags3 ^= 0x01
 22: 0x007A [0x92] ??? (ID: 16982186/0x010320AA)->Render.Flags3 ^= 0x01
 23: 0x0080 [0x92] ??? (ID: 16982187/0x010320AB)->Render.Flags3 ^= 0x01
 24: 0x0086 [0x92] ??? (ID: 16982188/0x010320AC)->Render.Flags3 ^= 0x01
 25: 0x008C [0x92] ??? (ID: 16982189/0x010320AD)->Render.Flags3 ^= 0x01
 26: 0x0092 [0x92] ??? (ID: 16982190/0x010320AE)->Render.Flags3 ^= 0x01
 27: 0x0098 [0x92] ??? (ID: 16982191/0x010320AF)->Render.Flags3 ^= 0x01
 28: 0x009E [0x92] Unnamed NPC (ID: 16982208/0x010320C0)->Render.Flags3 ^= 0x01
 29: 0x00A4 [0x92] Unnamed NPC (ID: 16982209/0x010320C1)->Render.Flags3 ^= 0x01
 30: 0x00AA [0x92] Unnamed NPC (ID: 16982210/0x010320C2)->Render.Flags3 ^= 0x01
 31: 0x00B0 [0x92] Unnamed NPC (ID: 16982211/0x010320C3)->Render.Flags3 ^= 0x01
 32: 0x00B6 [0x94] LocalPlayer->Render.Flags3 ^= 0x01
 33: 0x00BC [0x94] Nashmeira (ID: 16982184/0x010320A8)->Render.Flags3 ^= 0x01
 34: 0x00C2 [0x94] ??? (ID: 16982186/0x010320AA)->Render.Flags3 ^= 0x01
 35: 0x00C8 [0x94] ??? (ID: 16982187/0x010320AB)->Render.Flags3 ^= 0x01
 36: 0x00CE [0x94] ??? (ID: 16982188/0x010320AC)->Render.Flags3 ^= 0x01
 37: 0x00D4 [0x94] ??? (ID: 16982189/0x010320AD)->Render.Flags3 ^= 0x01
 38: 0x00DA [0x94] ??? (ID: 16982190/0x010320AE)->Render.Flags3 ^= 0x01
 39: 0x00E0 [0x94] ??? (ID: 16982191/0x010320AF)->Render.Flags3 ^= 0x01
 40: 0x00E6 [0x94] Unnamed NPC (ID: 16982208/0x010320C0)->Render.Flags3 ^= 0x01
 41: 0x00EC [0x94] Unnamed NPC (ID: 16982209/0x010320C1)->Render.Flags3 ^= 0x01
 42: 0x00F2 [0x94] Unnamed NPC (ID: 16982210/0x010320C2)->Render.Flags3 ^= 0x01
 43: 0x00F8 [0x94] Unnamed NPC (ID: 16982211/0x010320C3)->Render.Flags3 ^= 0x01
 44: 0x00FE [0x29] REQ_SET_WAIT(priority=0x10, entity_id=LocalPlayer, tag_num=0x1E)
 45: 0x0105 [0x29] REQ_SET_WAIT(priority=0x10, entity_id=??? (ID: 16982186/0x010320AA), tag_num=0x09)
 46: 0x010C [0x29] REQ_SET_WAIT(priority=0x10, entity_id=??? (ID: 16982187/0x010320AB), tag_num=0x09)
 47: 0x0113 [0x29] REQ_SET_WAIT(priority=0x10, entity_id=??? (ID: 16982188/0x010320AC), tag_num=0x09)
 48: 0x011A [0x29] REQ_SET_WAIT(priority=0x10, entity_id=??? (ID: 16982189/0x010320AD), tag_num=0x09)
 49: 0x0121 [0x29] REQ_SET_WAIT(priority=0x10, entity_id=??? (ID: 16982190/0x010320AE), tag_num=0x09)
 50: 0x0128 [0x29] REQ_SET_WAIT(priority=0x10, entity_id=??? (ID: 16982191/0x010320AF), tag_num=0x09)
 51: 0x012F [0x29] REQ_SET_WAIT(priority=0x10, entity_id=Unnamed NPC (ID: 16982208/0x010320C0), tag_num=0x09)
 52: 0x0136 [0x29] REQ_SET_WAIT(priority=0x10, entity_id=Unnamed NPC (ID: 16982209/0x010320C1), tag_num=0x09)
 53: 0x013D [0x29] REQ_SET_WAIT(priority=0x10, entity_id=Unnamed NPC (ID: 16982210/0x010320C2), tag_num=0x09)
 54: 0x0144 [0x29] REQ_SET_WAIT(priority=0x10, entity_id=Unnamed NPC (ID: 16982211/0x010320C3), tag_num=0x09)
 55: 0x014B [0x80] LOAD_WAIT(entity=??? (ID: 16982186/0x010320AA))
 56: 0x0150 [0x80] LOAD_WAIT(entity=??? (ID: 16982187/0x010320AB))
 57: 0x0155 [0x80] LOAD_WAIT(entity=??? (ID: 16982188/0x010320AC))
 58: 0x015A [0x80] LOAD_WAIT(entity=??? (ID: 16982189/0x010320AD))
 59: 0x015F [0x80] LOAD_WAIT(entity=??? (ID: 16982190/0x010320AE))
 60: 0x0164 [0x80] LOAD_WAIT(entity=??? (ID: 16982191/0x010320AF))
 61: 0x0169 [0x80] LOAD_WAIT(entity=Unnamed NPC (ID: 16982208/0x010320C0))
 62: 0x016E [0x80] LOAD_WAIT(entity=Unnamed NPC (ID: 16982209/0x010320C1))
 63: 0x0173 [0x80] LOAD_WAIT(entity=Unnamed NPC (ID: 16982210/0x010320C2))
 64: 0x0178 [0x80] LOAD_WAIT(entity=Unnamed NPC (ID: 16982211/0x010320C3))
 65: 0x017D [0x29] REQ_SET_WAIT(priority=0x10, entity_id=LocalPlayer, tag_num=0x18)
 66: 0x0184 [0x29] REQ_SET_WAIT(priority=0x10, entity_id=Unnamed NPC (ID: 16982208/0x010320C0), tag_num=0x0A)
 67: 0x018B [0x29] REQ_SET_WAIT(priority=0x10, entity_id=Unnamed NPC (ID: 16982209/0x010320C1), tag_num=0x0A)
 68: 0x0192 [0x29] REQ_SET_WAIT(priority=0x10, entity_id=Unnamed NPC (ID: 16982210/0x010320C2), tag_num=0x0A)
 69: 0x0199 [0x29] REQ_SET_WAIT(priority=0x10, entity_id=Unnamed NPC (ID: 16982211/0x010320C3), tag_num=0x0A)
 70: 0x01A0 [0x7B] LocalPlayer stops talking
 71: 0x01A5 [0x1C] WAIT(15* ticks)
 72: 0x01A8 [0x45] LOAD_SCHEDULED_TASK: Load scheduler "da00" with entities [LocalPlayer, LocalPlayer], work=[258*, 0*]
 73: 0x01B9 [0x1A] CALL_SUBROUTINE(address=0x3449)
 74: 0x01BC [0x1C] WAIT(60* ticks)
 75: 0x01BF [0x2B] Nashmeira (ID: 16982184/0x010320A8) [4873*]:
    → "We are the Empress... The Empress and Aht Urhgan are as one..."
 76: 0x01C6 [0x23] WAIT_FOR_DIALOG_INTERACTION
 77: 0x01C7 [0x52] END_LOAD_SCHEDULER: End scheduler "da00" with entities [LocalPlayer, LocalPlayer], work=258*
 78: 0x01D6 [0x45] LOAD_SCHEDULED_TASK: Load scheduler "da01" with entities [LocalPlayer, LocalPlayer], work=[258*, 0*]
 79: 0x01E7 [0x1C] WAIT(60* ticks)
 80: 0x01EA [0x2B] Nashmeira (ID: 16982184/0x010320A8) [4874*]:
    → "Our wishes are the wishes of the Empire..."
 81: 0x01F1 [0x23] WAIT_FOR_DIALOG_INTERACTION
 82: 0x01F2 [0x6A] CHANGE_SOUND_VOLUME: Set (Effects/System/Zone/Master)* volume to 0*, fade_time=60*
 83: 0x01F9 [0x1A] CALL_SUBROUTINE(address=0x346A)
 84: 0x01FC [0x1C] WAIT(30* ticks)
 85: 0x01FF [0x52] END_LOAD_SCHEDULER: End scheduler "da01" with entities [LocalPlayer, LocalPlayer], work=258*
 86: 0x020E [0x35] LOAD_ZONE_NO_CLOSE(zone_id=50*)
 87: 0x0211 [0x78] ENABLE_GAME_TIMER_RESET_WEATHER()
 88: 0x0212 [0x1C] WAIT(1* ticks)
 89: 0x0215 [0x45] LOAD_SCHEDULED_TASK: Load scheduler "nose" with entities [LocalPlayer, LocalPlayer], work=[272*, 0*]
 90: 0x0226 [0x55] WAIT_LOAD_SCHEDULER: Wait for scheduler "nose" with entities [LocalPlayer, LocalPlayer], work=272*
 91: 0x0235 [0x6A] CHANGE_SOUND_VOLUME: Set (Effects/System/Zone/Master)* volume to 999*, fade_time=60*
 92: 0x023C [0xAB] EventEntity->UnknownFlag = 0 // Disable unknown flag
 93: 0x023E [0x2D] CREATE_ZONE_SCHEDULER_TASK: Create scheduler "1pb1" with entities [LocalPlayer, LocalPlayer]
 94: 0x024B [0x46] CAMERA_CONTROL: Restore default settings
 95: 0x024D [0x45] LOAD_SCHEDULED_TASK: Load scheduler "fdi2" with entities [LocalPlayer, LocalPlayer], work=[200*, 0*]
 96: 0x025E [0x21] END_EVENT
 97: 0x025F [0x00] END_REQSTACK()
```

### Event 505

#### Metadata

| Field        | Value      |
|--------------|------------|
| Entrypoint   | 0x0260     |
| Data Size    | 1182 bytes |
| Instructions | 177        |

```
      00 01 02 03 04 05 06 07  08 09 0A 0B 0C 0D 0E 0F
      -- -- -- -- -- -- -- --  -- -- -- -- -- -- -- --
0260: 42 1A 6A 34 46 01 38 00  80 79 00 F0 FF FF 7F F0  B.j4F.8..y......
0270: FF FF 7F 34 01 80 77 02  80 02 80 1C 03 80 AB 09  ...4..w.........
0280: 29 10 A9 20 03 01 04 29  10 B0 20 03 01 04 29 10  ).. ...).. ...).
0290: B1 20 03 01 04 29 10 B2  20 03 01 04 29 10 B3 20  . ...).. ...).. 
02A0: 03 01 04 29 10 B4 20 03  01 04 29 10 B5 20 03 01  ...).. ...).. ..
02B0: 04 29 10 B6 20 03 01 04  29 10 B7 20 03 01 04 29  .).. ...).. ...)
02C0: 10 B8 20 03 01 04 29 10  B9 20 03 01 04 29 10 BA  .. ...).. ...)..
02D0: 20 03 01 04 29 10 BB 20  03 01 04 29 10 BC 20 03   ...).. ...).. .
02E0: 01 04 29 10 BD 20 03 01  04 29 10 BE 20 03 01 04  ..).. ...).. ...
02F0: 29 10 BF 20 03 01 04 92  01 A9 20 03 01 92 01 B0  ).. ...... .....
0300: 20 03 01 92 01 B1 20 03  01 92 01 B2 20 03 01 92   ..... ..... ...
0310: 01 B3 20 03 01 92 01 B4  20 03 01 92 01 B5 20 03  .. ..... ..... .
0320: 01 92 01 B6 20 03 01 92  01 B7 20 03 01 92 01 B8  .... ..... .....
0330: 20 03 01 92 01 B9 20 03  01 92 01 BA 20 03 01 92   ..... ..... ...
0340: 01 BB 20 03 01 92 01 BC  20 03 01 92 01 BD 20 03  .. ..... ..... .
0350: 01 92 01 BE 20 03 01 92  01 BF 20 03 01 94 01 A9  .... ..... .....
0360: 20 03 01 94 01 B0 20 03  01 94 01 B1 20 03 01 94   ..... ..... ...
0370: 01 B2 20 03 01 94 01 B3  20 03 01 94 01 B4 20 03  .. ..... ..... .
0380: 01 94 01 B5 20 03 01 94  01 B6 20 03 01 94 01 B7  .... ..... .....
0390: 20 03 01 94 01 B8 20 03  01 94 01 B9 20 03 01 94   ..... ..... ...
03A0: 01 BA 20 03 01 94 01 BB  20 03 01 94 01 BC 20 03  .. ..... ..... .
03B0: 01 94 01 BD 20 03 01 94  01 BE 20 03 01 94 01 BF  .... ..... .....
03C0: 20 03 01 29 10 A9 20 03  01 09 29 10 B0 20 03 01   ..).. ...).. ..
03D0: 09 29 10 B1 20 03 01 09  29 10 B2 20 03 01 09 29  .).. ...).. ...)
03E0: 10 B3 20 03 01 09 29 10  B4 20 03 01 09 29 10 B5  .. ...).. ...)..
03F0: 20 03 01 09 29 10 B6 20  03 01 09 29 10 B7 20 03   ...).. ...).. .
0400: 01 09 29 10 B8 20 03 01  09 29 10 B9 20 03 01 09  ..).. ...).. ...
0410: 29 10 BA 20 03 01 09 29  10 BB 20 03 01 09 29 10  ).. ...).. ...).
0420: BC 20 03 01 09 29 10 BD  20 03 01 09 29 10 BE 20  . ...).. ...).. 
0430: 03 01 09 29 10 BF 20 03  01 09 80 A9 20 03 01 80  ...).. ..... ...
0440: B0 20 03 01 80 B1 20 03  01 80 B2 20 03 01 80 B3  . .... .... ....
0450: 20 03 01 80 B4 20 03 01  80 B5 20 03 01 80 B6 20   .... .... .... 
0460: 03 01 80 B7 20 03 01 80  B8 20 03 01 80 B9 20 03  .... .... .... .
0470: 01 80 BA 20 03 01 80 BB  20 03 01 80 BC 20 03 01  ... .... .... ..
0480: 80 BD 20 03 01 80 BE 20  03 01 80 BF 20 03 01 1C  .. .... .... ...
0490: 04 80 5B 0E 80 A9 20 03  01 A9 20 03 01 73 74 62  ..[... ... ..stb
04A0: 30 27 10 12 21 03 01 5C  1A 49 34 2B 11 21 03 01  0'..!..\.I4+.!..
04B0: 0F 80 1C 10 80 2B 11 21  03 01 11 80 1C 10 80 2B  .....+.!.......+
04C0: 11 21 03 01 12 80 1C 10  80 2B 11 21 03 01 11 80  .!.......+.!....
04D0: 1C 10 80 2B 11 21 03 01  13 80 1C 10 80 2B 11 21  ...+.!.......+.!
04E0: 03 01 11 80 1C 10 80 52  05 80 F0 FF FF 7F F0 FF  .......R........
04F0: FF 7F 64 72 30 33 45 05  80 F0 FF FF 7F F0 FF FF  ..dr03E.........
0500: 7F 64 72 30 30 02 80 2B  A9 20 03 01 14 80 23 52  .dr00..+. ....#R
0510: 05 80 F0 FF FF 7F F0 FF  FF 7F 64 72 30 30 45 05  ..........dr00E.
0520: 80 F0 FF FF 7F F0 FF FF  7F 64 72 30 34 02 80 5B  .........dr04..[
0530: 0E 80 A9 20 03 01 A9 20  03 01 73 74 62 31 2B A9  ... ... ..stb1+.
0540: 20 03 01 15 80 23 52 05  80 F0 FF FF 7F F0 FF FF   ....#R.........
0550: 7F 64 72 30 34 45 05 80  F0 FF FF 7F F0 FF FF 7F  .dr04E..........
0560: 64 72 30 36 02 80 5B 0E  80 A9 20 03 01 A9 20 03  dr06..[... ... .
0570: 01 73 74 61 30 2B A9 20  03 01 16 80 23 2B A9 20  .sta0+. ....#+. 
0580: 03 01 17 80 23 5B 0E 80  A9 20 03 01 A9 20 03 01  ....#[... ... ..
0590: 73 74 61 31 53 A9 20 03  01 A9 20 03 01 73 74 61  sta1S. ... ..sta
05A0: 31 52 05 80 F0 FF FF 7F  F0 FF FF 7F 64 72 30 36  1R..........dr06
05B0: 45 05 80 F0 FF FF 7F F0  FF FF 7F 64 72 30 35 02  E..........dr05.
05C0: 80 27 10 A9 20 03 01 0A  1C 18 80 27 10 B0 20 03  .'.. ......'.. .
05D0: 01 0A 27 10 B1 20 03 01  0A 1C 19 80 27 10 B2 20  ..'.. ......'.. 
05E0: 03 01 0A 27 10 B3 20 03  01 0A 1C 19 80 27 10 B4  ...'.. ......'..
05F0: 20 03 01 0A 27 10 B5 20  03 01 0A 1C 19 80 27 10   ...'.. ......'.
0600: B6 20 03 01 0A 27 10 B7  20 03 01 0A 1C 19 80 27  . ...'.. ......'
0610: 10 B8 20 03 01 0A 27 10  B9 20 03 01 0A 1C 19 80  .. ...'.. ......
0620: 27 10 BA 20 03 01 0A 27  10 BB 20 03 01 0A 1C 19  '.. ...'.. .....
0630: 80 27 10 BC 20 03 01 0A  27 10 BD 20 03 01 0A 1C  .'.. ...'.. ....
0640: 19 80 27 10 BE 20 03 01  0A 27 10 BF 20 03 01 0A  ..'.. ...'.. ...
0650: 52 05 80 F0 FF FF 7F F0  FF FF 7F 64 72 30 35 45  R..........dr05E
0660: 05 80 F0 FF FF 7F F0 FF  FF 7F 64 72 30 31 02 80  ..........dr01..
0670: 1C 1A 80 6A 02 80 06 80  04 80 1A 6A 34 1C 03 80  ...j.......j4...
0680: 6B 69 64 6C 30 A9 20 03  01 52 05 80 F0 FF FF 7F  kidl0. ..R......
0690: F0 FF FF 7F 64 72 30 31  45 05 80 F0 FF FF 7F F0  ....dr01E.......
06A0: FF FF 7F 30 62 6C 66 02  80 1C 04 80 35 09 80 78  ...0blf.....5..x
06B0: 1C 0A 80 45 0B 80 F0 FF  FF 7F F0 FF FF 7F 6E 6F  ...E..........no
06C0: 73 65 02 80 55 0B 80 F0  FF FF 7F F0 FF FF 7F 6E  se..U..........n
06D0: 6F 73 65 6A 0C 80 06 80  04 80 AB 0A 2D F0 FF FF  osej........-...
06E0: 7F F0 FF FF 7F 31 70 62  31 46 00 45 0D 80 F0 FF  .....1pb1F.E....
06F0: FF 7F F0 FF FF 7F 66 64  69 32 02 80 21 00        ......fdi2..!.  
```

#### Opcodes

```
  0: 0x0260 [0x42] SET_CLI_EVENT_CANCEL_DATA()
  1: 0x0261 [0x1A] CALL_SUBROUTINE(address=0x346A)
  2: 0x0264 [0x46] CAMERA_CONTROL: Disable user control
  3: 0x0266 [0x38] SET_CLIENT_EVENT_MODE(mode=19*)
  4: 0x0269 [0x79] LocalPlayer looks at LocalPlayer (Basic look)
  5: 0x0273 [0x34] LOAD_UNLOAD_ZONE(zone_id=559*)
  6: 0x0276 [0x77] SET_EVENT_TIME_WEATHER(hour=0*, weather=0*)
  7: 0x027B [0x1C] WAIT(30* ticks)
  8: 0x027E [0xAB] EventEntity->UnknownFlag = 1 // Enable unknown flag
  9: 0x0280 [0x29] REQ_SET_WAIT(priority=0x10, entity_id=Razfahd (ID: 16982185/0x010320A9), tag_num=0x04)
 10: 0x0287 [0x29] REQ_SET_WAIT(priority=0x10, entity_id=??? (ID: 16982192/0x010320B0), tag_num=0x04)
 11: 0x028E [0x29] REQ_SET_WAIT(priority=0x10, entity_id=??? (ID: 16982193/0x010320B1), tag_num=0x04)
 12: 0x0295 [0x29] REQ_SET_WAIT(priority=0x10, entity_id=??? (ID: 16982194/0x010320B2), tag_num=0x04)
 13: 0x029C [0x29] REQ_SET_WAIT(priority=0x10, entity_id=??? (ID: 16982195/0x010320B3), tag_num=0x04)
 14: 0x02A3 [0x29] REQ_SET_WAIT(priority=0x10, entity_id=??? (ID: 16982196/0x010320B4), tag_num=0x04)
 15: 0x02AA [0x29] REQ_SET_WAIT(priority=0x10, entity_id=??? (ID: 16982197/0x010320B5), tag_num=0x04)
 16: 0x02B1 [0x29] REQ_SET_WAIT(priority=0x10, entity_id=??? (ID: 16982198/0x010320B6), tag_num=0x04)
 17: 0x02B8 [0x29] REQ_SET_WAIT(priority=0x10, entity_id=??? (ID: 16982199/0x010320B7), tag_num=0x04)
 18: 0x02BF [0x29] REQ_SET_WAIT(priority=0x10, entity_id=??? (ID: 16982200/0x010320B8), tag_num=0x04)
 19: 0x02C6 [0x29] REQ_SET_WAIT(priority=0x10, entity_id=??? (ID: 16982201/0x010320B9), tag_num=0x04)
 20: 0x02CD [0x29] REQ_SET_WAIT(priority=0x10, entity_id=??? (ID: 16982202/0x010320BA), tag_num=0x04)
 21: 0x02D4 [0x29] REQ_SET_WAIT(priority=0x10, entity_id=??? (ID: 16982203/0x010320BB), tag_num=0x04)
 22: 0x02DB [0x29] REQ_SET_WAIT(priority=0x10, entity_id=??? (ID: 16982204/0x010320BC), tag_num=0x04)
 23: 0x02E2 [0x29] REQ_SET_WAIT(priority=0x10, entity_id=??? (ID: 16982205/0x010320BD), tag_num=0x04)
 24: 0x02E9 [0x29] REQ_SET_WAIT(priority=0x10, entity_id=??? (ID: 16982206/0x010320BE), tag_num=0x04)
 25: 0x02F0 [0x29] REQ_SET_WAIT(priority=0x10, entity_id=??? (ID: 16982207/0x010320BF), tag_num=0x04)
 26: 0x02F7 [0x92] Razfahd (ID: 16982185/0x010320A9)->Render.Flags3 ^= 0x01
 27: 0x02FD [0x92] ??? (ID: 16982192/0x010320B0)->Render.Flags3 ^= 0x01
 28: 0x0303 [0x92] ??? (ID: 16982193/0x010320B1)->Render.Flags3 ^= 0x01
 29: 0x0309 [0x92] ??? (ID: 16982194/0x010320B2)->Render.Flags3 ^= 0x01
 30: 0x030F [0x92] ??? (ID: 16982195/0x010320B3)->Render.Flags3 ^= 0x01
 31: 0x0315 [0x92] ??? (ID: 16982196/0x010320B4)->Render.Flags3 ^= 0x01
 32: 0x031B [0x92] ??? (ID: 16982197/0x010320B5)->Render.Flags3 ^= 0x01
 33: 0x0321 [0x92] ??? (ID: 16982198/0x010320B6)->Render.Flags3 ^= 0x01
 34: 0x0327 [0x92] ??? (ID: 16982199/0x010320B7)->Render.Flags3 ^= 0x01
 35: 0x032D [0x92] ??? (ID: 16982200/0x010320B8)->Render.Flags3 ^= 0x01
 36: 0x0333 [0x92] ??? (ID: 16982201/0x010320B9)->Render.Flags3 ^= 0x01
 37: 0x0339 [0x92] ??? (ID: 16982202/0x010320BA)->Render.Flags3 ^= 0x01
 38: 0x033F [0x92] ??? (ID: 16982203/0x010320BB)->Render.Flags3 ^= 0x01
 39: 0x0345 [0x92] ??? (ID: 16982204/0x010320BC)->Render.Flags3 ^= 0x01
 40: 0x034B [0x92] ??? (ID: 16982205/0x010320BD)->Render.Flags3 ^= 0x01
 41: 0x0351 [0x92] ??? (ID: 16982206/0x010320BE)->Render.Flags3 ^= 0x01
 42: 0x0357 [0x92] ??? (ID: 16982207/0x010320BF)->Render.Flags3 ^= 0x01
 43: 0x035D [0x94] Razfahd (ID: 16982185/0x010320A9)->Render.Flags3 ^= 0x01
 44: 0x0363 [0x94] ??? (ID: 16982192/0x010320B0)->Render.Flags3 ^= 0x01
 45: 0x0369 [0x94] ??? (ID: 16982193/0x010320B1)->Render.Flags3 ^= 0x01
 46: 0x036F [0x94] ??? (ID: 16982194/0x010320B2)->Render.Flags3 ^= 0x01
 47: 0x0375 [0x94] ??? (ID: 16982195/0x010320B3)->Render.Flags3 ^= 0x01
 48: 0x037B [0x94] ??? (ID: 16982196/0x010320B4)->Render.Flags3 ^= 0x01
 49: 0x0381 [0x94] ??? (ID: 16982197/0x010320B5)->Render.Flags3 ^= 0x01
 50: 0x0387 [0x94] ??? (ID: 16982198/0x010320B6)->Render.Flags3 ^= 0x01
 51: 0x038D [0x94] ??? (ID: 16982199/0x010320B7)->Render.Flags3 ^= 0x01
 52: 0x0393 [0x94] ??? (ID: 16982200/0x010320B8)->Render.Flags3 ^= 0x01
 53: 0x0399 [0x94] ??? (ID: 16982201/0x010320B9)->Render.Flags3 ^= 0x01
 54: 0x039F [0x94] ??? (ID: 16982202/0x010320BA)->Render.Flags3 ^= 0x01
 55: 0x03A5 [0x94] ??? (ID: 16982203/0x010320BB)->Render.Flags3 ^= 0x01
 56: 0x03AB [0x94] ??? (ID: 16982204/0x010320BC)->Render.Flags3 ^= 0x01
 57: 0x03B1 [0x94] ??? (ID: 16982205/0x010320BD)->Render.Flags3 ^= 0x01
 58: 0x03B7 [0x94] ??? (ID: 16982206/0x010320BE)->Render.Flags3 ^= 0x01
 59: 0x03BD [0x94] ??? (ID: 16982207/0x010320BF)->Render.Flags3 ^= 0x01
 60: 0x03C3 [0x29] REQ_SET_WAIT(priority=0x10, entity_id=Razfahd (ID: 16982185/0x010320A9), tag_num=0x09)
 61: 0x03CA [0x29] REQ_SET_WAIT(priority=0x10, entity_id=??? (ID: 16982192/0x010320B0), tag_num=0x09)
 62: 0x03D1 [0x29] REQ_SET_WAIT(priority=0x10, entity_id=??? (ID: 16982193/0x010320B1), tag_num=0x09)
 63: 0x03D8 [0x29] REQ_SET_WAIT(priority=0x10, entity_id=??? (ID: 16982194/0x010320B2), tag_num=0x09)
 64: 0x03DF [0x29] REQ_SET_WAIT(priority=0x10, entity_id=??? (ID: 16982195/0x010320B3), tag_num=0x09)
 65: 0x03E6 [0x29] REQ_SET_WAIT(priority=0x10, entity_id=??? (ID: 16982196/0x010320B4), tag_num=0x09)
 66: 0x03ED [0x29] REQ_SET_WAIT(priority=0x10, entity_id=??? (ID: 16982197/0x010320B5), tag_num=0x09)
 67: 0x03F4 [0x29] REQ_SET_WAIT(priority=0x10, entity_id=??? (ID: 16982198/0x010320B6), tag_num=0x09)
 68: 0x03FB [0x29] REQ_SET_WAIT(priority=0x10, entity_id=??? (ID: 16982199/0x010320B7), tag_num=0x09)
 69: 0x0402 [0x29] REQ_SET_WAIT(priority=0x10, entity_id=??? (ID: 16982200/0x010320B8), tag_num=0x09)
 70: 0x0409 [0x29] REQ_SET_WAIT(priority=0x10, entity_id=??? (ID: 16982201/0x010320B9), tag_num=0x09)
 71: 0x0410 [0x29] REQ_SET_WAIT(priority=0x10, entity_id=??? (ID: 16982202/0x010320BA), tag_num=0x09)
 72: 0x0417 [0x29] REQ_SET_WAIT(priority=0x10, entity_id=??? (ID: 16982203/0x010320BB), tag_num=0x09)
 73: 0x041E [0x29] REQ_SET_WAIT(priority=0x10, entity_id=??? (ID: 16982204/0x010320BC), tag_num=0x09)
 74: 0x0425 [0x29] REQ_SET_WAIT(priority=0x10, entity_id=??? (ID: 16982205/0x010320BD), tag_num=0x09)
 75: 0x042C [0x29] REQ_SET_WAIT(priority=0x10, entity_id=??? (ID: 16982206/0x010320BE), tag_num=0x09)
 76: 0x0433 [0x29] REQ_SET_WAIT(priority=0x10, entity_id=??? (ID: 16982207/0x010320BF), tag_num=0x09)
 77: 0x043A [0x80] LOAD_WAIT(entity=Razfahd (ID: 16982185/0x010320A9))
 78: 0x043F [0x80] LOAD_WAIT(entity=??? (ID: 16982192/0x010320B0))
 79: 0x0444 [0x80] LOAD_WAIT(entity=??? (ID: 16982193/0x010320B1))
 80: 0x0449 [0x80] LOAD_WAIT(entity=??? (ID: 16982194/0x010320B2))
 81: 0x044E [0x80] LOAD_WAIT(entity=??? (ID: 16982195/0x010320B3))
 82: 0x0453 [0x80] LOAD_WAIT(entity=??? (ID: 16982196/0x010320B4))
 83: 0x0458 [0x80] LOAD_WAIT(entity=??? (ID: 16982197/0x010320B5))
 84: 0x045D [0x80] LOAD_WAIT(entity=??? (ID: 16982198/0x010320B6))
 85: 0x0462 [0x80] LOAD_WAIT(entity=??? (ID: 16982199/0x010320B7))
 86: 0x0467 [0x80] LOAD_WAIT(entity=??? (ID: 16982200/0x010320B8))
 87: 0x046C [0x80] LOAD_WAIT(entity=??? (ID: 16982201/0x010320B9))
 88: 0x0471 [0x80] LOAD_WAIT(entity=??? (ID: 16982202/0x010320BA))
 89: 0x0476 [0x80] LOAD_WAIT(entity=??? (ID: 16982203/0x010320BB))
 90: 0x047B [0x80] LOAD_WAIT(entity=??? (ID: 16982204/0x010320BC))
 91: 0x0480 [0x80] LOAD_WAIT(entity=??? (ID: 16982205/0x010320BD))
 92: 0x0485 [0x80] LOAD_WAIT(entity=??? (ID: 16982206/0x010320BE))
 93: 0x048A [0x80] LOAD_WAIT(entity=??? (ID: 16982207/0x010320BF))
 94: 0x048F [0x1C] WAIT(15* ticks)
 95: 0x0492 [0x5B] LOAD_EXT_SCHEDULER: Load scheduler "stb0" with entities [Razfahd (ID: 16982185/0x010320A9), Razfahd (ID: 16982185/0x010320A9)], work=837*
 96: 0x04A1 [0x27] REQ_SET(priority=0x10, entity_id=Unnamed NPC (ID: 16982290/0x01032112), tag_num=0x5C)
 97: 0x04A8 [0x1A] CALL_SUBROUTINE(address=0x3449)
 98: 0x04AB [0x2B] ??? (ID: 16982289/0x01032111) [4882*]:
    → "We unite...!"
 99: 0x04B2 [0x1C] WAIT(120* ticks)
100: 0x04B5 [0x2B] ??? (ID: 16982289/0x01032111) [4885*]:
    → "For the Empress!"
101: 0x04BC [0x1C] WAIT(120* ticks)
102: 0x04BF [0x2B] ??? (ID: 16982289/0x01032111) [4883*]:
    → "We fight...!"
103: 0x04C6 [0x1C] WAIT(120* ticks)
104: 0x04C9 [0x2B] ??? (ID: 16982289/0x01032111) [4885*]:
    → "For the Empress!"
105: 0x04D0 [0x1C] WAIT(120* ticks)
106: 0x04D3 [0x2B] ??? (ID: 16982289/0x01032111) [4884*]:
    → "We fall...!"
107: 0x04DA [0x1C] WAIT(120* ticks)
108: 0x04DD [0x2B] ??? (ID: 16982289/0x01032111) [4885*]:
    → "For the Empress!"
109: 0x04E4 [0x1C] WAIT(120* ticks)
110: 0x04E7 [0x52] END_LOAD_SCHEDULER: End scheduler "dr03" with entities [LocalPlayer, LocalPlayer], work=258*
111: 0x04F6 [0x45] LOAD_SCHEDULED_TASK: Load scheduler "dr00" with entities [LocalPlayer, LocalPlayer], work=[258*, 0*]
112: 0x0507 [0x2B] Razfahd (ID: 16982185/0x010320A9) [4886*]:
    → "The Imperial city of Al Zahbi is beset by barbaric hordes, and the heretics on our eastern borders bide their time, waiting for the most opportune moment to strike..."
113: 0x050E [0x23] WAIT_FOR_DIALOG_INTERACTION
114: 0x050F [0x52] END_LOAD_SCHEDULER: End scheduler "dr00" with entities [LocalPlayer, LocalPlayer], work=258*
115: 0x051E [0x45] LOAD_SCHEDULED_TASK: Load scheduler "dr04" with entities [LocalPlayer, LocalPlayer], work=[258*, 0*]
116: 0x052F [0x5B] LOAD_EXT_SCHEDULER: Load scheduler "stb1" with entities [Razfahd (ID: 16982185/0x010320A9), Razfahd (ID: 16982185/0x010320A9)], work=837*
117: 0x053E [0x2B] Razfahd (ID: 16982185/0x010320A9) [4887*]:
    → "But I do not despair. This tells us that the prophesied Age of Judgment is at hand. Now is the time to prove your loyalty to Her Magnificence, the Empress."
118: 0x0545 [0x23] WAIT_FOR_DIALOG_INTERACTION
119: 0x0546 [0x52] END_LOAD_SCHEDULER: End scheduler "dr04" with entities [LocalPlayer, LocalPlayer], work=258*
120: 0x0555 [0x45] LOAD_SCHEDULED_TASK: Load scheduler "dr06" with entities [LocalPlayer, LocalPlayer], work=[258*, 0*]
121: 0x0566 [0x5B] LOAD_EXT_SCHEDULER: Load scheduler "sta0" with entities [Razfahd (ID: 16982185/0x010320A9), Razfahd (ID: 16982185/0x010320A9)], work=837*
122: 0x0575 [0x2B] Razfahd (ID: 16982185/0x010320A9) [4888*]:
    → "Rise, my immortal lions! Let us rend the flesh of our enemies!"
123: 0x057C [0x23] WAIT_FOR_DIALOG_INTERACTION
124: 0x057D [0x2B] Razfahd (ID: 16982185/0x010320A9) [4889*]:
    → "Place your lives in my hands! We shall win glory for the Empress and the Empire!"
125: 0x0584 [0x23] WAIT_FOR_DIALOG_INTERACTION
126: 0x0585 [0x5B] LOAD_EXT_SCHEDULER: Load scheduler "sta1" with entities [Razfahd (ID: 16982185/0x010320A9), Razfahd (ID: 16982185/0x010320A9)], work=837*
127: 0x0594 [0x53] WAIT_SCHEDULER_TASK: Wait for scheduler "sta1" with entities [Razfahd (ID: 16982185/0x010320A9), Razfahd (ID: 16982185/0x010320A9)]
128: 0x05A1 [0x52] END_LOAD_SCHEDULER: End scheduler "dr06" with entities [LocalPlayer, LocalPlayer], work=258*
129: 0x05B0 [0x45] LOAD_SCHEDULED_TASK: Load scheduler "dr05" with entities [LocalPlayer, LocalPlayer], work=[258*, 0*]
130: 0x05C1 [0x27] REQ_SET(priority=0x10, entity_id=Razfahd (ID: 16982185/0x010320A9), tag_num=0x0A)
131: 0x05C8 [0x1C] WAIT(45* ticks)
132: 0x05CB [0x27] REQ_SET(priority=0x10, entity_id=??? (ID: 16982192/0x010320B0), tag_num=0x0A)
133: 0x05D2 [0x27] REQ_SET(priority=0x10, entity_id=??? (ID: 16982193/0x010320B1), tag_num=0x0A)
134: 0x05D9 [0x1C] WAIT(3* ticks)
135: 0x05DC [0x27] REQ_SET(priority=0x10, entity_id=??? (ID: 16982194/0x010320B2), tag_num=0x0A)
136: 0x05E3 [0x27] REQ_SET(priority=0x10, entity_id=??? (ID: 16982195/0x010320B3), tag_num=0x0A)
137: 0x05EA [0x1C] WAIT(3* ticks)
138: 0x05ED [0x27] REQ_SET(priority=0x10, entity_id=??? (ID: 16982196/0x010320B4), tag_num=0x0A)
139: 0x05F4 [0x27] REQ_SET(priority=0x10, entity_id=??? (ID: 16982197/0x010320B5), tag_num=0x0A)
140: 0x05FB [0x1C] WAIT(3* ticks)
141: 0x05FE [0x27] REQ_SET(priority=0x10, entity_id=??? (ID: 16982198/0x010320B6), tag_num=0x0A)
142: 0x0605 [0x27] REQ_SET(priority=0x10, entity_id=??? (ID: 16982199/0x010320B7), tag_num=0x0A)
143: 0x060C [0x1C] WAIT(3* ticks)
144: 0x060F [0x27] REQ_SET(priority=0x10, entity_id=??? (ID: 16982200/0x010320B8), tag_num=0x0A)
145: 0x0616 [0x27] REQ_SET(priority=0x10, entity_id=??? (ID: 16982201/0x010320B9), tag_num=0x0A)
146: 0x061D [0x1C] WAIT(3* ticks)
147: 0x0620 [0x27] REQ_SET(priority=0x10, entity_id=??? (ID: 16982202/0x010320BA), tag_num=0x0A)
148: 0x0627 [0x27] REQ_SET(priority=0x10, entity_id=??? (ID: 16982203/0x010320BB), tag_num=0x0A)
149: 0x062E [0x1C] WAIT(3* ticks)
150: 0x0631 [0x27] REQ_SET(priority=0x10, entity_id=??? (ID: 16982204/0x010320BC), tag_num=0x0A)
151: 0x0638 [0x27] REQ_SET(priority=0x10, entity_id=??? (ID: 16982205/0x010320BD), tag_num=0x0A)
152: 0x063F [0x1C] WAIT(3* ticks)
153: 0x0642 [0x27] REQ_SET(priority=0x10, entity_id=??? (ID: 16982206/0x010320BE), tag_num=0x0A)
154: 0x0649 [0x27] REQ_SET(priority=0x10, entity_id=??? (ID: 16982207/0x010320BF), tag_num=0x0A)
155: 0x0650 [0x52] END_LOAD_SCHEDULER: End scheduler "dr05" with entities [LocalPlayer, LocalPlayer], work=258*
156: 0x065F [0x45] LOAD_SCHEDULED_TASK: Load scheduler "dr01" with entities [LocalPlayer, LocalPlayer], work=[258*, 0*]
157: 0x0670 [0x1C] WAIT(150* ticks)
158: 0x0673 [0x6A] CHANGE_SOUND_VOLUME: Set (Effects/System/Zone/Master)* volume to 0*, fade_time=60*
159: 0x067A [0x1A] CALL_SUBROUTINE(address=0x346A)
160: 0x067D [0x1C] WAIT(30* ticks)
161: 0x0680 [0x6B] STOP_AND_IDLE: Razfahd (ID: 16982185/0x010320A9) stops current action and resets to idle (animation="idl0")
162: 0x0689 [0x52] END_LOAD_SCHEDULER: End scheduler "dr01" with entities [LocalPlayer, LocalPlayer], work=258*
163: 0x0698 [0x45] LOAD_SCHEDULED_TASK: Load scheduler "0blf" with entities [LocalPlayer, LocalPlayer], work=[258*, 0*]
164: 0x06A9 [0x1C] WAIT(15* ticks)
165: 0x06AC [0x35] LOAD_ZONE_NO_CLOSE(zone_id=50*)
166: 0x06AF [0x78] ENABLE_GAME_TIMER_RESET_WEATHER()
167: 0x06B0 [0x1C] WAIT(1* ticks)
168: 0x06B3 [0x45] LOAD_SCHEDULED_TASK: Load scheduler "nose" with entities [LocalPlayer, LocalPlayer], work=[272*, 0*]
169: 0x06C4 [0x55] WAIT_LOAD_SCHEDULER: Wait for scheduler "nose" with entities [LocalPlayer, LocalPlayer], work=272*
170: 0x06D3 [0x6A] CHANGE_SOUND_VOLUME: Set (Effects/System/Zone/Master)* volume to 999*, fade_time=60*
171: 0x06DA [0xAB] EventEntity->UnknownFlag = 0 // Disable unknown flag
172: 0x06DC [0x2D] CREATE_ZONE_SCHEDULER_TASK: Create scheduler "1pb1" with entities [LocalPlayer, LocalPlayer]
173: 0x06E9 [0x46] CAMERA_CONTROL: Restore default settings
174: 0x06EB [0x45] LOAD_SCHEDULED_TASK: Load scheduler "fdi2" with entities [LocalPlayer, LocalPlayer], work=[200*, 0*]
175: 0x06FC [0x21] END_EVENT
176: 0x06FD [0x00] END_REQSTACK()
```

### Event 506

#### Metadata

| Field        | Value     |
|--------------|-----------|
| Entrypoint   | 0x06FE    |
| Data Size    | 750 bytes |
| Instructions | 91        |

```
      00 01 02 03 04 05 06 07  08 09 0A 0B 0C 0D 0E 0F
      -- -- -- -- -- -- -- --  -- -- -- -- -- -- -- --
06F0:                                            42 1A                B.
0700: 6A 34 46 01 38 00 80 75  00 1B 80 75 01 79 00 F0  j4F.8..u...u.y..
0710: FF FF 7F F0 FF FF 7F 92  01 F0 FF FF 7F 92 01 8C  ................
0720: 20 03 01 29 10 F0 FF FF  7F 26 80 F0 FF FF 7F 80   ..).....&......
0730: 8C 20 03 01 1C 03 80 81  00 8C 20 03 01 5B 1C 80  . ........ ..[..
0740: 8C 20 03 01 8C 20 03 01  74 68 6B 31 45 05 80 F0  . ... ..thk1E...
0750: FF FF 7F F0 FF FF 7F 64  6E 30 30 02 80 1C 04 80  .......dn00.....
0760: 1A 49 34 2B 8C 20 03 01  1D 80 23 81 01 8C 20 03  .I4+. ....#... .
0770: 01 5B 1C 80 8C 20 03 01  8C 20 03 01 74 68 6B 32  .[... ... ..thk2
0780: 53 8C 20 03 01 8C 20 03  01 74 68 6B 32 52 05 80  S. ... ..thk2R..
0790: F0 FF FF 7F F0 FF FF 7F  64 6E 30 30 45 05 80 F0  ........dn00E...
07A0: FF FF 7F F0 FF FF 7F 64  6E 30 31 02 80 5B 1C 80  .......dn01..[..
07B0: 8C 20 03 01 8C 20 03 01  74 6C 6B 30 2B 8C 20 03  . ... ..tlk0+. .
07C0: 01 1E 80 23 1A 6A 34 1C  03 80 5B 1C 80 8C 20 03  ...#.j4...[... .
07D0: 01 8C 20 03 01 74 6C 6B  32 53 8C 20 03 01 8C 20  .. ..tlk2S. ... 
07E0: 03 01 74 6C 6B 32 52 05  80 F0 FF FF 7F F0 FF FF  ..tlk2R.........
07F0: 7F 64 6E 30 31 45 05 80  F0 FF FF 7F F0 FF FF 7F  .dn01E..........
0800: 64 6E 30 32 02 80 1A 49  34 5B 1F 80 8C 20 03 01  dn02...I4[... ..
0810: 8C 20 03 01 64 69 73 30  2B 8C 20 03 01 20 80 23  . ..dis0+. .. .#
0820: 53 8C 20 03 01 8C 20 03  01 64 69 73 30 52 05 80  S. ... ..dis0R..
0830: F0 FF FF 7F F0 FF FF 7F  64 6E 30 32 45 05 80 F0  ........dn02E...
0840: FF FF 7F F0 FF FF 7F 64  6E 30 33 02 80 2B 8C 20  .......dn03..+. 
0850: 03 01 21 80 23 5B 1F 80  8C 20 03 01 8C 20 03 01  ..!.#[... ... ..
0860: 70 6F 69 31 1C 04 80 52  05 80 F0 FF FF 7F F0 FF  poi1...R........
0870: FF 7F 64 6E 30 33 45 05  80 F0 FF FF 7F F0 FF FF  ..dn03E.........
0880: 7F 64 6E 30 34 02 80 2B  8C 20 03 01 22 80 23 1A  .dn04..+. ..".#.
0890: 6A 34 1C 03 80 5B 1F 80  8C 20 03 01 8C 20 03 01  j4...[... ... ..
08A0: 70 6F 69 32 53 8C 20 03  01 8C 20 03 01 70 6F 69  poi2S. ... ..poi
08B0: 32 52 05 80 F0 FF FF 7F  F0 FF FF 7F 64 6E 30 34  2R..........dn04
08C0: 45 05 80 F0 FF FF 7F F0  FF FF 7F 64 6E 30 35 02  E..........dn05.
08D0: 80 1A 49 34 5B 23 80 8C  20 03 01 8C 20 03 01 79  ..I4[#.. ... ..y
08E0: 6B 6F 30 2B 8C 20 03 01  24 80 23 5B 23 80 8C 20  ko0+. ..$.#[#.. 
08F0: 03 01 8C 20 03 01 6D 6B  75 30 52 05 80 F0 FF FF  ... ..mku0R.....
0900: 7F F0 FF FF 7F 64 6E 30  35 45 05 80 F0 FF FF 7F  .....dn05E......
0910: F0 FF FF 7F 64 6E 30 36  02 80 1C 06 80 2B 8C 20  ....dn06.....+. 
0920: 03 01 25 80 23 1A 6A 34  1C 03 80 5B 23 80 8C 20  ..%.#.j4...[#.. 
0930: 03 01 8C 20 03 01 79 6B  6F 31 53 8C 20 03 01 8C  ... ..yko1S. ...
0940: 20 03 01 79 6B 6F 31 52  05 80 F0 FF FF 7F F0 FF   ..yko1R........
0950: FF 7F 64 6E 30 36 45 05  80 F0 FF FF 7F F0 FF FF  ..dn06E.........
0960: 7F 64 6E 30 37 02 80 1A  49 34 2B 8C 20 03 01 26  .dn07...I4+. ..&
0970: 80 23 5B 1C 80 8C 20 03  01 8C 20 03 01 74 6C 6B  .#[... ... ..tlk
0980: 30 2B 8C 20 03 01 27 80  23 52 05 80 F0 FF FF 7F  0+. ..'.#R......
0990: F0 FF FF 7F 64 6E 30 37  45 05 80 F0 FF FF 7F F0  ....dn07E.......
09A0: FF FF 7F 64 6E 30 33 02  80 2B 8C 20 03 01 28 80  ...dn03..+. ..(.
09B0: 23 48 29 80 23 1A 6A 34  1C 03 80 5B 1C 80 8C 20  #H).#.j4...[... 
09C0: 03 01 8C 20 03 01 74 6C  6B 32 53 8C 20 03 01 8C  ... ..tlk2S. ...
09D0: 20 03 01 74 6C 6B 32 46  00 45 0D 80 F0 FF FF 7F   ..tlk2F.E......
09E0: F0 FF FF 7F 66 64 69 32  02 80 21 00              ....fdi2..!.    
```

#### Opcodes

```
  0: 0x06FE [0x42] SET_CLI_EVENT_CANCEL_DATA()
  1: 0x06FF [0x1A] CALL_SUBROUTINE(address=0x346A)
  2: 0x0702 [0x46] CAMERA_CONTROL: Disable user control
  3: 0x0704 [0x38] SET_CLIENT_EVENT_MODE(mode=19*)
  4: 0x0707 [0x75] LOAD_ROOM(Load indoor room, room=563*)
  5: 0x070B [0x75] LOAD_ROOM(No action)
  6: 0x070D [0x79] LocalPlayer looks at LocalPlayer (Basic look)
  7: 0x0717 [0x92] LocalPlayer->Render.Flags3 ^= 0x01
  8: 0x071D [0x92] Naja Salaheem (ID: 16982156/0x0103208C)->Render.Flags3 ^= 0x01
  9: 0x0723 [0x29] REQ_SET_WAIT(priority=0x10, entity_id=LocalPlayer, tag_num=0x26)
 10: 0x072A [0x80] LOAD_WAIT(entity=LocalPlayer)
 11: 0x072F [0x80] LOAD_WAIT(entity=Naja Salaheem (ID: 16982156/0x0103208C))
 12: 0x0734 [0x1C] WAIT(30* ticks)
 13: 0x0737 [0x81] SET_ENTITY_BLINKING(blink_flag=0x00, entity=Naja Salaheem (ID: 16982156/0x0103208C))
 14: 0x073D [0x5B] LOAD_EXT_SCHEDULER: Load scheduler "thk1" with entities [Naja Salaheem (ID: 16982156/0x0103208C), Naja Salaheem (ID: 16982156/0x0103208C)], work=356*
 15: 0x074C [0x45] LOAD_SCHEDULED_TASK: Load scheduler "dn00" with entities [LocalPlayer, LocalPlayer], work=[258*, 0*]
 16: 0x075D [0x1C] WAIT(15* ticks)
 17: 0x0760 [0x1A] CALL_SUBROUTINE(address=0x3449)
 18: 0x0763 [0x2B] Naja Salaheem (ID: 16982156/0x0103208C) [4875*]:
    → "$3n$3@$7406112=g$2757964AD$3$3$2* ?!$6292038$P15*)ADH"f$>$3l$3Fcc"
 19: 0x076A [0x23] WAIT_FOR_DIALOG_INTERACTION
 20: 0x076B [0x81] SET_ENTITY_BLINKING(blink_flag=0x01, entity=Naja Salaheem (ID: 16982156/0x0103208C))
 21: 0x0771 [0x5B] LOAD_EXT_SCHEDULER: Load scheduler "thk2" with entities [Naja Salaheem (ID: 16982156/0x0103208C), Naja Salaheem (ID: 16982156/0x0103208C)], work=356*
 22: 0x0780 [0x53] WAIT_SCHEDULER_TASK: Wait for scheduler "thk2" with entities [Naja Salaheem (ID: 16982156/0x0103208C), Naja Salaheem (ID: 16982156/0x0103208C)]
 23: 0x078D [0x52] END_LOAD_SCHEDULER: End scheduler "dn00" with entities [LocalPlayer, LocalPlayer], work=258*
 24: 0x079C [0x45] LOAD_SCHEDULED_TASK: Load scheduler "dn01" with entities [LocalPlayer, LocalPlayer], work=[258*, 0*]
 25: 0x07AD [0x5B] LOAD_EXT_SCHEDULER: Load scheduler "tlk0" with entities [Naja Salaheem (ID: 16982156/0x0103208C), Naja Salaheem (ID: 16982156/0x0103208C)], work=356*
 26: 0x07BC [0x2B] Naja Salaheem (ID: 16982156/0x0103208C) [4876*]:
    → "There's nothin' like being a mercenary! You've gotta get down and dirrrty and show you've got guts! You can't sit arrround expecting the world to come to you if you wanna make waves in this type of work."
 27: 0x07C3 [0x23] WAIT_FOR_DIALOG_INTERACTION
 28: 0x07C4 [0x1A] CALL_SUBROUTINE(address=0x346A)
 29: 0x07C7 [0x1C] WAIT(30* ticks)
 30: 0x07CA [0x5B] LOAD_EXT_SCHEDULER: Load scheduler "tlk2" with entities [Naja Salaheem (ID: 16982156/0x0103208C), Naja Salaheem (ID: 16982156/0x0103208C)], work=356*
 31: 0x07D9 [0x53] WAIT_SCHEDULER_TASK: Wait for scheduler "tlk2" with entities [Naja Salaheem (ID: 16982156/0x0103208C), Naja Salaheem (ID: 16982156/0x0103208C)]
 32: 0x07E6 [0x52] END_LOAD_SCHEDULER: End scheduler "dn01" with entities [LocalPlayer, LocalPlayer], work=258*
 33: 0x07F5 [0x45] LOAD_SCHEDULED_TASK: Load scheduler "dn02" with entities [LocalPlayer, LocalPlayer], work=[258*, 0*]
 34: 0x0806 [0x1A] CALL_SUBROUTINE(address=0x3449)
 35: 0x0809 [0x5B] LOAD_EXT_SCHEDULER: Load scheduler "dis0" with entities [Naja Salaheem (ID: 16982156/0x0103208C), Naja Salaheem (ID: 16982156/0x0103208C)], work=360*
 36: 0x0818 [0x2B] Naja Salaheem (ID: 16982156/0x0103208C) [4877*]:
    → "But what d'you know, anyway? You better watch that mouth of yourrrs if you wanna deal with me!"
 37: 0x081F [0x23] WAIT_FOR_DIALOG_INTERACTION
 38: 0x0820 [0x53] WAIT_SCHEDULER_TASK: Wait for scheduler "dis0" with entities [Naja Salaheem (ID: 16982156/0x0103208C), Naja Salaheem (ID: 16982156/0x0103208C)]
 39: 0x082D [0x52] END_LOAD_SCHEDULER: End scheduler "dn02" with entities [LocalPlayer, LocalPlayer], work=258*
 40: 0x083C [0x45] LOAD_SCHEDULED_TASK: Load scheduler "dn03" with entities [LocalPlayer, LocalPlayer], work=[258*, 0*]
 41: 0x084D [0x2B] Naja Salaheem (ID: 16982156/0x0103208C) [4878*]:
    → """)"$30i)g$4260393[6ADf$7cc"
 42: 0x0854 [0x23] WAIT_FOR_DIALOG_INTERACTION
 43: 0x0855 [0x5B] LOAD_EXT_SCHEDULER: Load scheduler "poi1" with entities [Naja Salaheem (ID: 16982156/0x0103208C), Naja Salaheem (ID: 16982156/0x0103208C)], work=360*
 44: 0x0864 [0x1C] WAIT(15* ticks)
 45: 0x0867 [0x52] END_LOAD_SCHEDULER: End scheduler "dn03" with entities [LocalPlayer, LocalPlayer], work=258*
 46: 0x0876 [0x45] LOAD_SCHEDULED_TASK: Load scheduler "dn04" with entities [LocalPlayer, LocalPlayer], work=[258*, 0*]
 47: 0x0887 [0x2B] Naja Salaheem (ID: 16982156/0x0103208C) [4879*]:
    → "11M$2228797L$3V$3}$7406112=gM$2228797L$3X$3e$3S$3}$6816365Hq4$6750765E`"iq>fAI"
 48: 0x088E [0x23] WAIT_FOR_DIALOG_INTERACTION
 49: 0x088F [0x1A] CALL_SUBROUTINE(address=0x346A)
 50: 0x0892 [0x1C] WAIT(30* ticks)
 51: 0x0895 [0x5B] LOAD_EXT_SCHEDULER: Load scheduler "poi2" with entities [Naja Salaheem (ID: 16982156/0x0103208C), Naja Salaheem (ID: 16982156/0x0103208C)], work=360*
 52: 0x08A4 [0x53] WAIT_SCHEDULER_TASK: Wait for scheduler "poi2" with entities [Naja Salaheem (ID: 16982156/0x0103208C), Naja Salaheem (ID: 16982156/0x0103208C)]
 53: 0x08B1 [0x52] END_LOAD_SCHEDULER: End scheduler "dn04" with entities [LocalPlayer, LocalPlayer], work=258*
 54: 0x08C0 [0x45] LOAD_SCHEDULED_TASK: Load scheduler "dn05" with entities [LocalPlayer, LocalPlayer], work=[258*, 0*]
 55: 0x08D1 [0x1A] CALL_SUBROUTINE(address=0x3449)
 56: 0x08D4 [0x5B] LOAD_EXT_SCHEDULER: Load scheduler "yko0" with entities [Naja Salaheem (ID: 16982156/0x0103208C), Naja Salaheem (ID: 16982156/0x0103208C)], work=400*
 57: 0x08E3 [0x2B] Naja Salaheem (ID: 16982156/0x0103208C) [4880*]:
    → "q$4981307$3J$6619711AF)9D]HB"
 58: 0x08EA [0x23] WAIT_FOR_DIALOG_INTERACTION
 59: 0x08EB [0x5B] LOAD_EXT_SCHEDULER: Load scheduler "mku0" with entities [Naja Salaheem (ID: 16982156/0x0103208C), Naja Salaheem (ID: 16982156/0x0103208C)], work=400*
 60: 0x08FA [0x52] END_LOAD_SCHEDULER: End scheduler "dn05" with entities [LocalPlayer, LocalPlayer], work=258*
 61: 0x0909 [0x45] LOAD_SCHEDULED_TASK: Load scheduler "dn06" with entities [LocalPlayer, LocalPlayer], work=[258*, 0*]
 62: 0x091A [0x1C] WAIT(60* ticks)
 63: 0x091D [0x2B] Naja Salaheem (ID: 16982156/0x0103208C) [4881*]:
    → "$3t$3t$3$1t "Bg`bi`q>f$4918604M)gA+5H)A=/GA $3X$3J$3E$3gL$KM A=AD1F)K%B"
 64: 0x0924 [0x23] WAIT_FOR_DIALOG_INTERACTION
 65: 0x0925 [0x1A] CALL_SUBROUTINE(address=0x346A)
 66: 0x0928 [0x1C] WAIT(30* ticks)
 67: 0x092B [0x5B] LOAD_EXT_SCHEDULER: Load scheduler "yko1" with entities [Naja Salaheem (ID: 16982156/0x0103208C), Naja Salaheem (ID: 16982156/0x0103208C)], work=400*
 68: 0x093A [0x53] WAIT_SCHEDULER_TASK: Wait for scheduler "yko1" with entities [Naja Salaheem (ID: 16982156/0x0103208C), Naja Salaheem (ID: 16982156/0x0103208C)]
 69: 0x0947 [0x52] END_LOAD_SCHEDULER: End scheduler "dn06" with entities [LocalPlayer, LocalPlayer], work=258*
 70: 0x0956 [0x45] LOAD_SCHEDULED_TASK: Load scheduler "dn07" with entities [LocalPlayer, LocalPlayer], work=[258*, 0*]
 71: 0x0967 [0x1A] CALL_SUBROUTINE(address=0x3449)
 72: 0x096A [0x2B] Naja Salaheem (ID: 16982156/0x0103208C) [4890*]:
    → "Heh heh, you're doing prrretty well. Looks like some of that mercenary spirit is starting to sink in!"
 73: 0x0971 [0x23] WAIT_FOR_DIALOG_INTERACTION
 74: 0x0972 [0x5B] LOAD_EXT_SCHEDULER: Load scheduler "tlk0" with entities [Naja Salaheem (ID: 16982156/0x0103208C), Naja Salaheem (ID: 16982156/0x0103208C)], work=356*
 75: 0x0981 [0x2B] Naja Salaheem (ID: 16982156/0x0103208C) [4891*]:
    → "Then again, it's usually times like these when people start slacking off and scrrrewing everything up."
 76: 0x0988 [0x23] WAIT_FOR_DIALOG_INTERACTION
 77: 0x0989 [0x52] END_LOAD_SCHEDULER: End scheduler "dn07" with entities [LocalPlayer, LocalPlayer], work=258*
 78: 0x0998 [0x45] LOAD_SCHEDULED_TASK: Load scheduler "dn03" with entities [LocalPlayer, LocalPlayer], work=[258*, 0*]
 79: 0x09A9 [0x2B] Naja Salaheem (ID: 16982156/0x0103208C) [4892*]:
    → "I've got a job that's just perrrfect for you. So get rrready and get out there!"
 80: 0x09B0 [0x23] WAIT_FOR_DIALOG_INTERACTION
 81: 0x09B1 [0x48] [System] [4893*]:
    → "$P103$P<Player>u$8$i$141p$s/=I"
 82: 0x09B4 [0x23] WAIT_FOR_DIALOG_INTERACTION
 83: 0x09B5 [0x1A] CALL_SUBROUTINE(address=0x346A)
 84: 0x09B8 [0x1C] WAIT(30* ticks)
 85: 0x09BB [0x5B] LOAD_EXT_SCHEDULER: Load scheduler "tlk2" with entities [Naja Salaheem (ID: 16982156/0x0103208C), Naja Salaheem (ID: 16982156/0x0103208C)], work=356*
 86: 0x09CA [0x53] WAIT_SCHEDULER_TASK: Wait for scheduler "tlk2" with entities [Naja Salaheem (ID: 16982156/0x0103208C), Naja Salaheem (ID: 16982156/0x0103208C)]
 87: 0x09D7 [0x46] CAMERA_CONTROL: Restore default settings
 88: 0x09D9 [0x45] LOAD_SCHEDULED_TASK: Load scheduler "fdi2" with entities [LocalPlayer, LocalPlayer], work=[200*, 0*]
 89: 0x09EA [0x21] END_EVENT
 90: 0x09EB [0x00] END_REQSTACK()
```

### Event 4

#### Metadata

| Field        | Value     |
|--------------|-----------|
| Entrypoint   | 0x09EC    |
| Data Size    | 918 bytes |
| Instructions | 134       |

```
      00 01 02 03 04 05 06 07  08 09 0A 0B 0C 0D 0E 0F
      -- -- -- -- -- -- -- --  -- -- -- -- -- -- -- --
09E0:                                      42 1A 6A 34              B.j4
09F0: 46 01 38 00 80 92 01 14  21 03 01 94 01 F0 FF FF  F.8.....!.......
0A00: 7F 94 01 14 21 03 01 29  10 F0 FF FF 7F 20 80 F0  ....!..)..... ..
0A10: FF FF 7F 80 14 21 03 01  4A F0 FF FF 7F 14 21 03  .....!..J.....!.
0A20: 01 4A 14 21 03 01 F0 FF  FF 7F 1C 03 80 45 2A 80  .J.!.........E*.
0A30: F0 FF FF 7F F0 FF FF 7F  6F 64 30 30 02 80 1A 49  ........od00...I
0A40: 34 5B 2B 80 14 21 03 01  14 21 03 01 74 6C 6B 30  4[+..!...!..tlk0
0A50: 2B 14 21 03 01 2C 80 23  52 2A 80 F0 FF FF 7F F0  +.!..,.#R*......
0A60: FF FF 7F 6F 64 30 30 45  2A 80 F0 FF FF 7F F0 FF  ...od00E*.......
0A70: FF 7F 6F 64 30 31 02 80  5B 2B 80 14 21 03 01 14  ..od01..[+..!...
0A80: 21 03 01 74 6C 6B 31 2B  14 21 03 01 2D 80 23 24  !..tlk1+.!..-.#$
0A90: 2E 80 02 80 02 80 25 02  00 10 02 80 00 AA 0A 2B  ......%........+
0AA0: 14 21 03 01 2F 80 23 01  5D 0C 02 00 10 0A 80 00  .!../.#.].......
0AB0: 5D 0C 53 14 21 03 01 14  21 03 01 74 6C 6B 31 5B  ].S.!...!..tlk1[
0AC0: 30 80 14 21 03 01 14 21  03 01 64 69 73 30 2B 14  0..!...!..dis0+.
0AD0: 21 03 01 31 80 23 5D 02  80 06 80 1A 6A 34 1C 03  !..1.#].....j4..
0AE0: 80 34 32 80 77 33 80 0A  80 1C 03 80 AB 09 1C 03  .42.w3..........
0AF0: 80 5C 00 34 80 5C 01 34  80 9A 52 2A 80 F0 FF FF  .\.4.\.4..R*....
0B00: 7F F0 FF FF 7F 6F 64 30  31 45 2A 80 F0 FF FF 7F  .....od01E*.....
0B10: F0 FF FF 7F 6F 64 30 32  02 80 1C 04 80 1A 49 34  ....od02......I4
0B20: 2B 14 21 03 01 35 80 23  1A 6A 34 1C 03 80 34 36  +.!..5.#.j4...46
0B30: 80 77 33 80 0A 80 1C 03  80 27 10 1C 21 03 01 02  .w3......'..!...
0B40: 92 01 1C 21 03 01 94 01  1C 21 03 01 29 10 1C 21  ...!.....!..)..!
0B50: 03 01 09 80 1C 21 03 01  52 2A 80 F0 FF FF 7F F0  .....!..R*......
0B60: FF FF 7F 6F 64 30 32 45  2A 80 F0 FF FF 7F F0 FF  ...od02E*.......
0B70: FF 7F 6F 64 30 34 02 80  1A 49 34 2B 14 21 03 01  ..od04...I4+.!..
0B80: 37 80 23 27 10 1C 21 03  01 0A 52 2A 80 F0 FF FF  7.#'..!...R*....
0B90: 7F F0 FF FF 7F 6F 64 30  34 45 2A 80 F0 FF FF 7F  .....od04E*.....
0BA0: F0 FF FF 7F 6F 64 30 36  02 80 2B 14 21 03 01 38  ....od06..+.!..8
0BB0: 80 23 5D 02 80 06 80 6A  02 80 06 80 04 80 1A 6A  .#]....j.......j
0BC0: 34 1C 03 80 29 10 1C 21  03 01 05 52 2A 80 F0 FF  4...)..!...R*...
0BD0: FF 7F F0 FF FF 7F 6F 64  30 36 45 2A 80 F0 FF FF  ......od06E*....
0BE0: 7F F0 FF FF 7F 30 62 6C  66 02 80 35 09 80 78 1C  .....0blf..5..x.
0BF0: 0A 80 AB 0A 45 0B 80 F0  FF FF 7F F0 FF FF 7F 6E  ....E..........n
0C00: 6F 73 65 02 80 55 0B 80  F0 FF FF 7F F0 FF FF 7F  ose..U..........
0C10: 6E 6F 73 65 6A 0C 80 06  80 04 80 2D F0 FF FF 7F  nosej......-....
0C20: F0 FF FF 7F 31 70 62 31  1C 03 80 5C 00 39 80 5C  ....1pb1...\.9.\
0C30: 01 39 80 9A 80 F0 FF FF  7F 80 14 21 03 01 45 2A  .9.........!..E*
0C40: 80 F0 FF FF 7F F0 FF FF  7F 6F 64 30 31 02 80 1A  .........od01...
0C50: 49 34 2B 14 21 03 01 3A  80 23 01 5D 0C 52 2A 80  I4+.!..:.#.].R*.
0C60: F0 FF FF 7F F0 FF FF 7F  6F 64 30 31 45 2A 80 F0  ........od01E*..
0C70: FF FF 7F F0 FF FF 7F 6F  64 30 37 02 80 2B 14 21  .......od07..+.!
0C80: 03 01 3B 80 23 2B 14 21  03 01 3C 80 23 52 2A 80  ..;.#+.!..<.#R*.
0C90: F0 FF FF 7F F0 FF FF 7F  6F 64 30 37 45 2A 80 F0  ........od07E*..
0CA0: FF FF 7F F0 FF FF 7F 6F  64 30 38 02 80 2B 14 21  .......od08..+.!
0CB0: 03 01 3D 80 23 7B 14 21  03 01 5B 2B 80 14 21 03  ..=.#{.!..[+..!.
0CC0: 01 14 21 03 01 74 68 6B  31 2B 14 21 03 01 3E 80  ..!..thk1+.!..>.
0CD0: 23 52 2A 80 F0 FF FF 7F  F0 FF FF 7F 6F 64 30 38  #R*.........od08
0CE0: 45 2A 80 F0 FF FF 7F F0  FF FF 7F 6F 64 30 39 02  E*.........od09.
0CF0: 80 5B 2B 80 14 21 03 01  14 21 03 01 74 68 6B 32  .[+..!...!..thk2
0D00: 79 00 14 21 03 01 F0 FF  FF 7F 2B 14 21 03 01 3F  y..!......+.!..?
0D10: 80 23 24 40 80 02 80 02  80 25 02 00 10 0A 80 00  .#$@.....%......
0D20: 30 0D 2B 14 21 03 01 41  80 23 01 12 0D 01 30 0D  0.+.!..A.#....0.
0D30: 52 2A 80 F0 FF FF 7F F0  FF FF 7F 6F 64 30 39 45  R*.........od09E
0D40: 2A 80 F0 FF FF 7F F0 FF  FF 7F 6F 64 31 30 02 80  *.........od10..
0D50: 2B 14 21 03 01 42 80 23  1A 6A 34 1C 03 80 52 2A  +.!..B.#.j4...R*
0D60: 80 F0 FF FF 7F F0 FF FF  7F 6F 64 31 30 46 00 45  .........od10F.E
0D70: 0D 80 F0 FF FF 7F F0 FF  FF 7F 66 64 69 32 02 80  ..........fdi2..
0D80: 21 00                                             !.              
```

#### Opcodes

```
  0: 0x09EC [0x42] SET_CLI_EVENT_CANCEL_DATA()
  1: 0x09ED [0x1A] CALL_SUBROUTINE(address=0x346A)
  2: 0x09F0 [0x46] CAMERA_CONTROL: Disable user control
  3: 0x09F2 [0x38] SET_CLIENT_EVENT_MODE(mode=19*)
  4: 0x09F5 [0x92] Dkhaaya (ID: 16982292/0x01032114)->Render.Flags3 ^= 0x01
  5: 0x09FB [0x94] LocalPlayer->Render.Flags3 ^= 0x01
  6: 0x0A01 [0x94] Dkhaaya (ID: 16982292/0x01032114)->Render.Flags3 ^= 0x01
  7: 0x0A07 [0x29] REQ_SET_WAIT(priority=0x10, entity_id=LocalPlayer, tag_num=0x20)
  8: 0x0A0E [0x80] LOAD_WAIT(entity=LocalPlayer)
  9: 0x0A13 [0x80] LOAD_WAIT(entity=Dkhaaya (ID: 16982292/0x01032114))
 10: 0x0A18 [0x4A] LocalPlayer looks at Dkhaaya (ID: 16982292/0x01032114)
 11: 0x0A21 [0x4A] Dkhaaya (ID: 16982292/0x01032114) looks at LocalPlayer
 12: 0x0A2A [0x1C] WAIT(30* ticks)
 13: 0x0A2D [0x45] LOAD_SCHEDULED_TASK: Load scheduler "od00" with entities [LocalPlayer, LocalPlayer], work=[259*, 0*]
 14: 0x0A3E [0x1A] CALL_SUBROUTINE(address=0x3449)
 15: 0x0A41 [0x5B] LOAD_EXT_SCHEDULER: Load scheduler "tlk0" with entities [Dkhaaya (ID: 16982292/0x01032114), Dkhaaya (ID: 16982292/0x01032114)], work=297*
 16: 0x0A50 [0x2B] Dkhaaya (ID: 16982292/0x01032114) [4900*]:
    → "You a mercenary? Huh? An adventurer, you say? Well, whatever."
 17: 0x0A57 [0x23] WAIT_FOR_DIALOG_INTERACTION
 18: 0x0A58 [0x52] END_LOAD_SCHEDULER: End scheduler "od00" with entities [LocalPlayer, LocalPlayer], work=259*
 19: 0x0A67 [0x45] LOAD_SCHEDULED_TASK: Load scheduler "od01" with entities [LocalPlayer, LocalPlayer], work=[259*, 0*]
 20: 0x0A78 [0x5B] LOAD_EXT_SCHEDULER: Load scheduler "tlk1" with entities [Dkhaaya (ID: 16982292/0x01032114), Dkhaaya (ID: 16982292/0x01032114)], work=297*
 21: 0x0A87 [0x2B] Dkhaaya (ID: 16982292/0x01032114) [4901*]:
    → "Got a question for you, "adventurer." You ever hear the name "Olduum"?"
 22: 0x0A8E [0x23] WAIT_FOR_DIALOG_INTERACTION
 23: 0x0A8F [0x24] CREATE_DIALOG(message_id=4902*, default_option=0*, option_flags=0*)
    → "Heard of it? [Of course./I'm afraid not.]"
 24: 0x0A96 [0x25] WAIT_DIALOG_SELECT()
 25: 0x0A97 [0x02] IF !(Work_Zone[0] == 0*) GOTO 0x0AAA
 26: 0x0A9F [0x2B] Dkhaaya (ID: 16982292/0x01032114) [4903*]:
    → "Good, then I don't have to waste my breath on explanations. The name's Dkhaaya. I've been researching the Olduum civilization for longer than I care to remember."
 27: 0x0AA6 [0x23] WAIT_FOR_DIALOG_INTERACTION
 28: 0x0AA7 [0x01] GOTO 0x0C5D
 29: 0x0AAA [0x02] IF !(Work_Zone[0] == 1*) GOTO 0x0C5D
 30: 0x0AB2 [0x53] WAIT_SCHEDULER_TASK: Wait for scheduler "tlk1" with entities [Dkhaaya (ID: 16982292/0x01032114), Dkhaaya (ID: 16982292/0x01032114)]
 31: 0x0ABF [0x5B] LOAD_EXT_SCHEDULER: Load scheduler "dis0" with entities [Dkhaaya (ID: 16982292/0x01032114), Dkhaaya (ID: 16982292/0x01032114)], work=299*
 32: 0x0ACE [0x2B] Dkhaaya (ID: 16982292/0x01032114) [4904*]:
    → "No? Don't people remember the old tales anymore? Well, whatever. I won't bore you with any "When I was young..." anecdotes and get right down to facts."
 33: 0x0AD5 [0x23] WAIT_FOR_DIALOG_INTERACTION
 34: 0x0AD6 [0x5D] SET_MUSIC_VOLUME(volume=0*, fade_time=60*)
 35: 0x0ADB [0x1A] CALL_SUBROUTINE(address=0x346A)
 36: 0x0ADE [0x1C] WAIT(30* ticks)
 37: 0x0AE1 [0x34] LOAD_UNLOAD_ZONE(zone_id=51*)
 38: 0x0AE4 [0x77] SET_EVENT_TIME_WEATHER(hour=255*, weather=1*)
 39: 0x0AE9 [0x1C] WAIT(30* ticks)
 40: 0x0AEC [0xAB] EventEntity->UnknownFlag = 1 // Enable unknown flag
 41: 0x0AEE [0x1C] WAIT(30* ticks)
 42: 0x0AF1 [0x5C] MUSIC_CONTROL: Set Idle (Day) music to song 174*
 43: 0x0AF5 [0x5C] MUSIC_CONTROL: Set Idle (Night) music to song 174*
 44: 0x0AF9 [0x9A] WAIT_MUSIC_SERVER()
 45: 0x0AFA [0x52] END_LOAD_SCHEDULER: End scheduler "od01" with entities [LocalPlayer, LocalPlayer], work=259*
 46: 0x0B09 [0x45] LOAD_SCHEDULED_TASK: Load scheduler "od02" with entities [LocalPlayer, LocalPlayer], work=[259*, 0*]
 47: 0x0B1A [0x1C] WAIT(15* ticks)
 48: 0x0B1D [0x1A] CALL_SUBROUTINE(address=0x3449)
 49: 0x0B20 [0x2B] Dkhaaya (ID: 16982292/0x01032114) [4905*]:
    → "The west of the Aradjiah Continent is dotted with ancient ruins. Some say these ruins are the remnants of a civilization mentioned in the folklore surrounding the Ramuh constellation."
 50: 0x0B27 [0x23] WAIT_FOR_DIALOG_INTERACTION
 51: 0x0B28 [0x1A] CALL_SUBROUTINE(address=0x346A)
 52: 0x0B2B [0x1C] WAIT(30* ticks)
 53: 0x0B2E [0x34] LOAD_UNLOAD_ZONE(zone_id=68*)
 54: 0x0B31 [0x77] SET_EVENT_TIME_WEATHER(hour=255*, weather=1*)
 55: 0x0B36 [0x1C] WAIT(30* ticks)
 56: 0x0B39 [0x27] REQ_SET(priority=0x10, entity_id=Unnamed NPC (ID: 16982300/0x0103211C), tag_num=0x02)
 57: 0x0B40 [0x92] Unnamed NPC (ID: 16982300/0x0103211C)->Render.Flags3 ^= 0x01
 58: 0x0B46 [0x94] Unnamed NPC (ID: 16982300/0x0103211C)->Render.Flags3 ^= 0x01
 59: 0x0B4C [0x29] REQ_SET_WAIT(priority=0x10, entity_id=Unnamed NPC (ID: 16982300/0x0103211C), tag_num=0x09)
 60: 0x0B53 [0x80] LOAD_WAIT(entity=Unnamed NPC (ID: 16982300/0x0103211C))
 61: 0x0B58 [0x52] END_LOAD_SCHEDULER: End scheduler "od02" with entities [LocalPlayer, LocalPlayer], work=259*
 62: 0x0B67 [0x45] LOAD_SCHEDULED_TASK: Load scheduler "od04" with entities [LocalPlayer, LocalPlayer], work=[259*, 0*]
 63: 0x0B78 [0x1A] CALL_SUBROUTINE(address=0x3449)
 64: 0x0B7B [0x2B] Dkhaaya (ID: 16982292/0x01032114) [4906*]:
    → "Can't say as I've found anything to substantiate that claim just yet... You never can tell how much truth is in those old stories, so no one knows if such a civilization even existed. Course, that's always a good reason to try and find out."
 65: 0x0B82 [0x23] WAIT_FOR_DIALOG_INTERACTION
 66: 0x0B83 [0x27] REQ_SET(priority=0x10, entity_id=Unnamed NPC (ID: 16982300/0x0103211C), tag_num=0x0A)
 67: 0x0B8A [0x52] END_LOAD_SCHEDULER: End scheduler "od04" with entities [LocalPlayer, LocalPlayer], work=259*
 68: 0x0B99 [0x45] LOAD_SCHEDULED_TASK: Load scheduler "od06" with entities [LocalPlayer, LocalPlayer], work=[259*, 0*]
 69: 0x0BAA [0x2B] Dkhaaya (ID: 16982292/0x01032114) [4907*]:
    → "You see, Ramuh's symbol is the "Olduum staff," a weapon said to have power over lightning itself. That's where the name for the civilization comes from."
 70: 0x0BB1 [0x23] WAIT_FOR_DIALOG_INTERACTION
 71: 0x0BB2 [0x5D] SET_MUSIC_VOLUME(volume=0*, fade_time=60*)
 72: 0x0BB7 [0x6A] CHANGE_SOUND_VOLUME: Set (Effects/System/Zone/Master)* volume to 0*, fade_time=60*
 73: 0x0BBE [0x1A] CALL_SUBROUTINE(address=0x346A)
 74: 0x0BC1 [0x1C] WAIT(30* ticks)
 75: 0x0BC4 [0x29] REQ_SET_WAIT(priority=0x10, entity_id=Unnamed NPC (ID: 16982300/0x0103211C), tag_num=0x05)
 76: 0x0BCB [0x52] END_LOAD_SCHEDULER: End scheduler "od06" with entities [LocalPlayer, LocalPlayer], work=259*
 77: 0x0BDA [0x45] LOAD_SCHEDULED_TASK: Load scheduler "0blf" with entities [LocalPlayer, LocalPlayer], work=[259*, 0*]
 78: 0x0BEB [0x35] LOAD_ZONE_NO_CLOSE(zone_id=50*)
 79: 0x0BEE [0x78] ENABLE_GAME_TIMER_RESET_WEATHER()
 80: 0x0BEF [0x1C] WAIT(1* ticks)
 81: 0x0BF2 [0xAB] EventEntity->UnknownFlag = 0 // Disable unknown flag
 82: 0x0BF4 [0x45] LOAD_SCHEDULED_TASK: Load scheduler "nose" with entities [LocalPlayer, LocalPlayer], work=[272*, 0*]
 83: 0x0C05 [0x55] WAIT_LOAD_SCHEDULER: Wait for scheduler "nose" with entities [LocalPlayer, LocalPlayer], work=272*
 84: 0x0C14 [0x6A] CHANGE_SOUND_VOLUME: Set (Effects/System/Zone/Master)* volume to 999*, fade_time=60*
 85: 0x0C1B [0x2D] CREATE_ZONE_SCHEDULER_TASK: Create scheduler "1pb1" with entities [LocalPlayer, LocalPlayer]
 86: 0x0C28 [0x1C] WAIT(30* ticks)
 87: 0x0C2B [0x5C] MUSIC_CONTROL: Set Idle (Day) music to song 178*
 88: 0x0C2F [0x5C] MUSIC_CONTROL: Set Idle (Night) music to song 178*
 89: 0x0C33 [0x9A] WAIT_MUSIC_SERVER()
 90: 0x0C34 [0x80] LOAD_WAIT(entity=LocalPlayer)
 91: 0x0C39 [0x80] LOAD_WAIT(entity=Dkhaaya (ID: 16982292/0x01032114))
 92: 0x0C3E [0x45] LOAD_SCHEDULED_TASK: Load scheduler "od01" with entities [LocalPlayer, LocalPlayer], work=[259*, 0*]
 93: 0x0C4F [0x1A] CALL_SUBROUTINE(address=0x3449)
 94: 0x0C52 [0x2B] Dkhaaya (ID: 16982292/0x01032114) [4908*]:
    → "Listen to me prattle away without even introducing myself. The name's Dkhaaya. I've been researching the Olduum civilization for longer than I care to remember."
 95: 0x0C59 [0x23] WAIT_FOR_DIALOG_INTERACTION
 96: 0x0C5A [0x01] GOTO 0x0C5D

SUBROUTINE_0C5D:
 97: 0x0C5D [0x52] END_LOAD_SCHEDULER: End scheduler "od01" with entities [LocalPlayer, LocalPlayer], work=259*
 98: 0x0C6C [0x45] LOAD_SCHEDULED_TASK: Load scheduler "od07" with entities [LocalPlayer, LocalPlayer], work=[259*, 0*]
 99: 0x0C7D [0x2B] Dkhaaya (ID: 16982292/0x01032114) [4909*]:
    → "As you can see, I'm too old to go traipsing around ruins, looking for clues to the past."
100: 0x0C84 [0x23] WAIT_FOR_DIALOG_INTERACTION
101: 0x0C85 [0x2B] Dkhaaya (ID: 16982292/0x01032114) [4910*]:
    → "That's why I need strong, young mercenaries like you. Adventurers. Whatever."
102: 0x0C8C [0x23] WAIT_FOR_DIALOG_INTERACTION
103: 0x0C8D [0x52] END_LOAD_SCHEDULER: End scheduler "od07" with entities [LocalPlayer, LocalPlayer], work=259*
104: 0x0C9C [0x45] LOAD_SCHEDULED_TASK: Load scheduler "od08" with entities [LocalPlayer, LocalPlayer], work=[259*, 0*]
105: 0x0CAD [0x2B] Dkhaaya (ID: 16982292/0x01032114) [4911*]:
    → "Now don't go hurting your brain trying to think too much. All I want you to do is bring me back some trinket recovered from the ruins."
106: 0x0CB4 [0x23] WAIT_FOR_DIALOG_INTERACTION
107: 0x0CB5 [0x7B] Dkhaaya (ID: 16982292/0x01032114) stops talking
108: 0x0CBA [0x5B] LOAD_EXT_SCHEDULER: Load scheduler "thk1" with entities [Dkhaaya (ID: 16982292/0x01032114), Dkhaaya (ID: 16982292/0x01032114)], work=297*
109: 0x0CC9 [0x2B] Dkhaaya (ID: 16982292/0x01032114) [4912*]:
    → "A reward? Well, it may not be uncommon for the people of this land, but I think I have something you might be able to use."
110: 0x0CD0 [0x23] WAIT_FOR_DIALOG_INTERACTION
111: 0x0CD1 [0x52] END_LOAD_SCHEDULER: End scheduler "od08" with entities [LocalPlayer, LocalPlayer], work=259*
112: 0x0CE0 [0x45] LOAD_SCHEDULED_TASK: Load scheduler "od09" with entities [LocalPlayer, LocalPlayer], work=[259*, 0*]
113: 0x0CF1 [0x5B] LOAD_EXT_SCHEDULER: Load scheduler "thk2" with entities [Dkhaaya (ID: 16982292/0x01032114), Dkhaaya (ID: 16982292/0x01032114)], work=297*
114: 0x0D00 [0x79] Dkhaaya (ID: 16982292/0x01032114) looks at LocalPlayer (Basic look)
115: 0x0D0A [0x2B] Dkhaaya (ID: 16982292/0x01032114) [4913*]:
    → "What do you say? Will you help an old man in his research?"
116: 0x0D11 [0x23] WAIT_FOR_DIALOG_INTERACTION

SUBROUTINE_0D12:
117: 0x0D12 [0x24] CREATE_DIALOG(message_id=4914*, default_option=0*, option_flags=0*)
    → "Help out? [Okay, why not./Not today.]"
118: 0x0D19 [0x25] WAIT_DIALOG_SELECT()
119: 0x0D1A [0x02] IF !(Work_Zone[0] == 1*) GOTO 0x0D30
120: 0x0D22 [0x2B] Dkhaaya (ID: 16982292/0x01032114) [4917*]:
    → "Are you certain? You could be passing up an opportunity to be part of something important..."
121: 0x0D29 [0x23] WAIT_FOR_DIALOG_INTERACTION
122: 0x0D2A [0x01] GOTO 0x0D12

SUBROUTINE_0D30:
123: 0x0D30 [0x52] END_LOAD_SCHEDULER: End scheduler "od09" with entities [LocalPlayer, LocalPlayer], work=259*
124: 0x0D3F [0x45] LOAD_SCHEDULED_TASK: Load scheduler "od10" with entities [LocalPlayer, LocalPlayer], work=[259*, 0*]
125: 0x0D50 [0x2B] Dkhaaya (ID: 16982292/0x01032114) [4915*]:
    → "Who said you young people were good for nothing? Probably me, but that's neither here nor there. Now, I'd appreciate any Olduum artifacts you can dig up--doesn't much matter where you get them from."
126: 0x0D57 [0x23] WAIT_FOR_DIALOG_INTERACTION
127: 0x0D58 [0x1A] CALL_SUBROUTINE(address=0x346A)
128: 0x0D5B [0x1C] WAIT(30* ticks)
129: 0x0D5E [0x52] END_LOAD_SCHEDULER: End scheduler "od10" with entities [LocalPlayer, LocalPlayer], work=259*
130: 0x0D6D [0x46] CAMERA_CONTROL: Restore default settings
131: 0x0D6F [0x45] LOAD_SCHEDULED_TASK: Load scheduler "fdi2" with entities [LocalPlayer, LocalPlayer], work=[200*, 0*]
132: 0x0D80 [0x21] END_EVENT
133: 0x0D81 [0x00] END_REQSTACK()
```

#### Data or dead code:

```
# Dead code (unreachable instructions):
     0x0D2D [0x01] GOTO 0x0D30
```

### Event 6

#### Metadata

| Field        | Value     |
|--------------|-----------|
| Entrypoint   | 0x0D82    |
| Data Size    | 506 bytes |
| Instructions | 67        |

```
      00 01 02 03 04 05 06 07  08 09 0A 0B 0C 0D 0E 0F
      -- -- -- -- -- -- -- --  -- -- -- -- -- -- -- --
0D80:       42 1A 6A 34 46 01  38 00 80 92 01 14 21 03    B.j4F.8.....!.
0D90: 01 94 01 F0 FF FF 7F 94  01 14 21 03 01 29 10 F0  ..........!..)..
0DA0: FF FF 7F 20 80 F0 FF FF  7F 80 14 21 03 01 4A F0  ... .......!..J.
0DB0: FF FF 7F 14 21 03 01 4A  14 21 03 01 F0 FF FF 7F  ....!..J.!......
0DC0: 1C 03 80 45 2A 80 F0 FF  FF 7F F0 FF FF 7F 6F 64  ...E*.........od
0DD0: 32 30 02 80 1A 49 34 2B  14 21 03 01 43 80 23 03  20...I4+.!..C.#.
0DE0: 01 10 0A 80 43 00 43 01  52 2A 80 F0 FF FF 7F F0  ....C.C.R*......
0DF0: FF FF 7F 6F 64 32 30 45  2A 80 F0 FF FF 7F F0 FF  ...od20E*.......
0E00: FF 7F 6F 64 32 31 02 80  1C 06 80 7B 14 21 03 01  ..od21.....{.!..
0E10: 5B 2B 80 14 21 03 01 14  21 03 01 74 68 6B 31 2B  [+..!...!..thk1+
0E20: 14 21 03 01 44 80 23 5B  2B 80 14 21 03 01 14 21  .!..D.#[+..!...!
0E30: 03 01 74 68 6B 32 79 00  14 21 03 01 F0 FF FF 7F  ..thk2y..!......
0E40: 2B 14 21 03 01 45 80 23  53 14 21 03 01 14 21 03  +.!..E.#S.!...!.
0E50: 01 74 68 6B 32 52 2A 80  F0 FF FF 7F F0 FF FF 7F  .thk2R*.........
0E60: 6F 64 32 31 45 2A 80 F0  FF FF 7F F0 FF FF 7F 6F  od21E*.........o
0E70: 64 32 32 02 80 5B 2B 80  14 21 03 01 14 21 03 01  d22..[+..!...!..
0E80: 70 61 73 30 93 46 80 2B  14 21 03 01 47 80 23 53  pas0.F.+.!..G.#S
0E90: 14 21 03 01 14 21 03 01  70 61 73 30 93 02 80 2B  .!...!..pas0...+
0EA0: 14 21 03 01 48 80 23 52  2A 80 F0 FF FF 7F F0 FF  .!..H.#R*.......
0EB0: FF 7F 6F 64 32 32 45 2A  80 F0 FF FF 7F F0 FF FF  ..od22E*........
0EC0: 7F 6F 64 32 34 02 80 7B  14 21 03 01 5B 2B 80 14  .od24..{.!..[+..
0ED0: 21 03 01 14 21 03 01 74  68 6B 31 53 14 21 03 01  !...!..thk1S.!..
0EE0: 14 21 03 01 74 68 6B 31  2B 14 21 03 01 49 80 23  .!..thk1+.!..I.#
0EF0: 2B 14 21 03 01 4A 80 23  5B 2B 80 14 21 03 01 14  +.!..J.#[+..!...
0F00: 21 03 01 74 68 6B 32 79  00 14 21 03 01 F0 FF FF  !..thk2y..!.....
0F10: 7F 52 2A 80 F0 FF FF 7F  F0 FF FF 7F 6F 64 32 34  .R*.........od24
0F20: 45 2A 80 F0 FF FF 7F F0  FF FF 7F 6F 64 32 33 02  E*.........od23.
0F30: 80 2B 14 21 03 01 4B 80  23 2B 14 21 03 01 4C 80  .+.!..K.#+.!..L.
0F40: 23 1A 6A 34 1C 03 80 52  2A 80 F0 FF FF 7F F0 FF  #.j4...R*.......
0F50: FF 7F 6F 64 32 33 46 00  45 4D 80 F8 FF FF 7F F8  ..od23F.EM......
0F60: FF FF 7F 71 73 74 63 02  80 45 0D 80 F0 FF FF 7F  ...qstc..E......
0F70: F0 FF FF 7F 66 64 69 32  02 80 21 00              ....fdi2..!.    
```

#### Opcodes

```
  0: 0x0D82 [0x42] SET_CLI_EVENT_CANCEL_DATA()
  1: 0x0D83 [0x1A] CALL_SUBROUTINE(address=0x346A)
  2: 0x0D86 [0x46] CAMERA_CONTROL: Disable user control
  3: 0x0D88 [0x38] SET_CLIENT_EVENT_MODE(mode=19*)
  4: 0x0D8B [0x92] Dkhaaya (ID: 16982292/0x01032114)->Render.Flags3 ^= 0x01
  5: 0x0D91 [0x94] LocalPlayer->Render.Flags3 ^= 0x01
  6: 0x0D97 [0x94] Dkhaaya (ID: 16982292/0x01032114)->Render.Flags3 ^= 0x01
  7: 0x0D9D [0x29] REQ_SET_WAIT(priority=0x10, entity_id=LocalPlayer, tag_num=0x20)
  8: 0x0DA4 [0x80] LOAD_WAIT(entity=LocalPlayer)
  9: 0x0DA9 [0x80] LOAD_WAIT(entity=Dkhaaya (ID: 16982292/0x01032114))
 10: 0x0DAE [0x4A] LocalPlayer looks at Dkhaaya (ID: 16982292/0x01032114)
 11: 0x0DB7 [0x4A] Dkhaaya (ID: 16982292/0x01032114) looks at LocalPlayer
 12: 0x0DC0 [0x1C] WAIT(30* ticks)
 13: 0x0DC3 [0x45] LOAD_SCHEDULED_TASK: Load scheduler "od20" with entities [LocalPlayer, LocalPlayer], work=[259*, 0*]
 14: 0x0DD4 [0x1A] CALL_SUBROUTINE(address=0x3449)
 15: 0x0DD7 [0x2B] Dkhaaya (ID: 16982292/0x01032114) [4920*]:
    → "You found something!?"
 16: 0x0DDE [0x23] WAIT_FOR_DIALOG_INTERACTION
 17: 0x0DDF [0x03] Work_Zone[1] = 1*
 18: 0x0DE4 [0x43] SEND_EVENT_UPDATE: Send pending tag to server (packet 0x005B)
 19: 0x0DE6 [0x43] SEND_EVENT_UPDATE: Check pending flag (skip if not pending)
 20: 0x0DE8 [0x52] END_LOAD_SCHEDULER: End scheduler "od20" with entities [LocalPlayer, LocalPlayer], work=259*
 21: 0x0DF7 [0x45] LOAD_SCHEDULED_TASK: Load scheduler "od21" with entities [LocalPlayer, LocalPlayer], work=[259*, 0*]
 22: 0x0E08 [0x1C] WAIT(60* ticks)
 23: 0x0E0B [0x7B] Dkhaaya (ID: 16982292/0x01032114) stops talking
 24: 0x0E10 [0x5B] LOAD_EXT_SCHEDULER: Load scheduler "thk1" with entities [Dkhaaya (ID: 16982292/0x01032114), Dkhaaya (ID: 16982292/0x01032114)], work=297*
 25: 0x0E1F [0x2B] Dkhaaya (ID: 16982292/0x01032114) [4921*]:
    → "Oh, $6... I suppose I shouldn't have expected too much from an amateur..."
 26: 0x0E26 [0x23] WAIT_FOR_DIALOG_INTERACTION
 27: 0x0E27 [0x5B] LOAD_EXT_SCHEDULER: Load scheduler "thk2" with entities [Dkhaaya (ID: 16982292/0x01032114), Dkhaaya (ID: 16982292/0x01032114)], work=297*
 28: 0x0E36 [0x79] Dkhaaya (ID: 16982292/0x01032114) looks at LocalPlayer (Basic look)
 29: 0x0E40 [0x2B] Dkhaaya (ID: 16982292/0x01032114) [4922*]:
    → "Uh, I mean, good job! My manners are slipping in my old age... Even a small discovery may lead to something big, that's what I always say."
 30: 0x0E47 [0x23] WAIT_FOR_DIALOG_INTERACTION
 31: 0x0E48 [0x53] WAIT_SCHEDULER_TASK: Wait for scheduler "thk2" with entities [Dkhaaya (ID: 16982292/0x01032114), Dkhaaya (ID: 16982292/0x01032114)]
 32: 0x0E55 [0x52] END_LOAD_SCHEDULER: End scheduler "od21" with entities [LocalPlayer, LocalPlayer], work=259*
 33: 0x0E64 [0x45] LOAD_SCHEDULED_TASK: Load scheduler "od22" with entities [LocalPlayer, LocalPlayer], work=[259*, 0*]
 34: 0x0E75 [0x5B] LOAD_EXT_SCHEDULER: Load scheduler "pas0" with entities [Dkhaaya (ID: 16982292/0x01032114), Dkhaaya (ID: 16982292/0x01032114)], work=297*
 35: 0x0E84 [0x93] DISPLAY_ITEM_INFO(item_id=2217*)
 36: 0x0E87 [0x2B] Dkhaaya (ID: 16982292/0x01032114) [4923*]:
    → "Here's your reward, like I promised. What do you think? This ring was excavated from the Aydeewa Subterrane."
 37: 0x0E8E [0x23] WAIT_FOR_DIALOG_INTERACTION
 38: 0x0E8F [0x53] WAIT_SCHEDULER_TASK: Wait for scheduler "pas0" with entities [Dkhaaya (ID: 16982292/0x01032114), Dkhaaya (ID: 16982292/0x01032114)]
 39: 0x0E9C [0x93] DISPLAY_ITEM_INFO(item_id=0*)
 40: 0x0E9F [0x2B] Dkhaaya (ID: 16982292/0x01032114) [4924*]:
    → "There've been a lot of rings of this exact same type dug up in that area. I've recorded this one in my journal, so you may as well have it."
 41: 0x0EA6 [0x23] WAIT_FOR_DIALOG_INTERACTION
 42: 0x0EA7 [0x52] END_LOAD_SCHEDULER: End scheduler "od22" with entities [LocalPlayer, LocalPlayer], work=259*
 43: 0x0EB6 [0x45] LOAD_SCHEDULED_TASK: Load scheduler "od24" with entities [LocalPlayer, LocalPlayer], work=[259*, 0*]
 44: 0x0EC7 [0x7B] Dkhaaya (ID: 16982292/0x01032114) stops talking
 45: 0x0ECC [0x5B] LOAD_EXT_SCHEDULER: Load scheduler "thk1" with entities [Dkhaaya (ID: 16982292/0x01032114), Dkhaaya (ID: 16982292/0x01032114)], work=297*
 46: 0x0EDB [0x53] WAIT_SCHEDULER_TASK: Wait for scheduler "thk1" with entities [Dkhaaya (ID: 16982292/0x01032114), Dkhaaya (ID: 16982292/0x01032114)]
 47: 0x0EE8 [0x2B] Dkhaaya (ID: 16982292/0x01032114) [4925*]:
    → "It always struck me as odd that they didn't find any rings of a different design. I mean, it's a fashion item, right?"
 48: 0x0EEF [0x23] WAIT_FOR_DIALOG_INTERACTION
 49: 0x0EF0 [0x2B] Dkhaaya (ID: 16982292/0x01032114) [4926*]:
    → "But this is the only design I've ever seen. Maybe the Olduum made them for something other than decoration. That's what I'm thinking."
 50: 0x0EF7 [0x23] WAIT_FOR_DIALOG_INTERACTION
 51: 0x0EF8 [0x5B] LOAD_EXT_SCHEDULER: Load scheduler "thk2" with entities [Dkhaaya (ID: 16982292/0x01032114), Dkhaaya (ID: 16982292/0x01032114)], work=297*
 52: 0x0F07 [0x79] Dkhaaya (ID: 16982292/0x01032114) looks at LocalPlayer (Basic look)
 53: 0x0F11 [0x52] END_LOAD_SCHEDULER: End scheduler "od24" with entities [LocalPlayer, LocalPlayer], work=259*
 54: 0x0F20 [0x45] LOAD_SCHEDULED_TASK: Load scheduler "od23" with entities [LocalPlayer, LocalPlayer], work=[259*, 0*]
 55: 0x0F31 [0x2B] Dkhaaya (ID: 16982292/0x01032114) [4927*]:
    → "Legend has it that the Olduum were able to move wagons using the power of lightning. I wouldn't be surprised if that ring had some secret use that we're not aware of."
 56: 0x0F38 [0x23] WAIT_FOR_DIALOG_INTERACTION
 57: 0x0F39 [0x2B] Dkhaaya (ID: 16982292/0x01032114) [4928*]:
    → "A curious young monkey like you just might be able to figure it out."
 58: 0x0F40 [0x23] WAIT_FOR_DIALOG_INTERACTION
 59: 0x0F41 [0x1A] CALL_SUBROUTINE(address=0x346A)
 60: 0x0F44 [0x1C] WAIT(30* ticks)
 61: 0x0F47 [0x52] END_LOAD_SCHEDULER: End scheduler "od23" with entities [LocalPlayer, LocalPlayer], work=259*
 62: 0x0F56 [0x46] CAMERA_CONTROL: Restore default settings
 63: 0x0F58 [0x45] LOAD_SCHEDULED_TASK: Load scheduler "qstc" with entities [EventEntity, EventEntity], work=[201*, 0*]
 64: 0x0F69 [0x45] LOAD_SCHEDULED_TASK: Load scheduler "fdi2" with entities [LocalPlayer, LocalPlayer], work=[200*, 0*]
 65: 0x0F7A [0x21] END_EVENT
 66: 0x0F7B [0x00] END_REQSTACK()
```

### Event 9

#### Metadata

| Field        | Value     |
|--------------|-----------|
| Entrypoint   | 0x0F7C    |
| Data Size    | 560 bytes |
| Instructions | 71        |

```
      00 01 02 03 04 05 06 07  08 09 0A 0B 0C 0D 0E 0F
      -- -- -- -- -- -- -- --  -- -- -- -- -- -- -- --
0F70:                                      42 1A 6A 34              B.j4
0F80: 46 01 38 00 80 92 01 15  21 03 01 94 01 F0 FF FF  F.8.....!.......
0F90: 7F 94 01 15 21 03 01 29  10 F0 FF FF 7F 21 80 F0  ....!..).....!..
0FA0: FF FF 7F 80 15 21 03 01  4A F0 FF FF 7F 15 21 03  .....!..J.....!.
0FB0: 01 5C 00 4E 80 5C 01 4E  80 9A 1C 03 80 45 2A 80  .\.N.\.N.....E*.
0FC0: F0 FF FF 7F F0 FF FF 7F  6D 6D 30 30 02 80 1A 49  ........mm00...I
0FD0: 34 2B 15 21 03 01 4F 80  23 48 50 80 1C 10 80 5B  4+.!..O.#HP....[
0FE0: 51 80 15 21 03 01 15 21  03 01 68 61 69 30 2B 15  Q..!...!..hai0+.
0FF0: 21 03 01 52 80 23 53 15  21 03 01 15 21 03 01 68  !..R.#S.!...!..h
1000: 61 69 30 52 2A 80 F0 FF  FF 7F F0 FF FF 7F 6D 6D  ai0R*.........mm
1010: 30 30 45 2A 80 F0 FF FF  7F F0 FF FF 7F 6D 6D 30  00E*.........mm0
1020: 31 02 80 81 00 15 21 03  01 5B 53 80 15 21 03 01  1.....!..[S..!..
1030: 15 21 03 01 6B 69 73 69  2B 15 21 03 01 54 80 1C  .!..kisi+.!..T..
1040: 03 80 53 15 21 03 01 15  21 03 01 6B 69 73 69 81  ..S.!...!..kisi.
1050: 01 15 21 03 01 52 2A 80  F0 FF FF 7F F0 FF FF 7F  ..!..R*.........
1060: 6D 6D 30 31 45 2A 80 F0  FF FF 7F F0 FF FF 7F 6D  mm01E*.........m
1070: 6D 30 32 02 80 2B 15 21  03 01 55 80 23 5B 51 80  m02..+.!..U.#[Q.
1080: 15 21 03 01 15 21 03 01  68 61 69 30 2B 15 21 03  .!...!..hai0+.!.
1090: 01 56 80 23 53 15 21 03  01 15 21 03 01 68 61 69  .V.#S.!...!..hai
10A0: 30 52 2A 80 F0 FF FF 7F  F0 FF FF 7F 6D 6D 30 32  0R*.........mm02
10B0: 45 2A 80 F0 FF FF 7F F0  FF FF 7F 6D 6D 30 33 02  E*.........mm03.
10C0: 80 5B 57 80 15 21 03 01  15 21 03 01 61 77 77 30  .[W..!...!..aww0
10D0: 1C 58 80 5B 57 80 15 21  03 01 15 21 03 01 61 77  .X.[W..!...!..aw
10E0: 77 31 53 15 21 03 01 15  21 03 01 61 77 77 31 48  w1S.!...!..aww1H
10F0: 59 80 5B 57 80 15 21 03  01 15 21 03 01 74 68 6B  Y.[W..!...!..thk
1100: 30 53 15 21 03 01 15 21  03 01 74 68 6B 30 1C 03  0S.!...!..thk0..
1110: 80 52 2A 80 F0 FF FF 7F  F0 FF FF 7F 6D 6D 30 33  .R*.........mm03
1120: 45 2A 80 F0 FF FF 7F F0  FF FF 7F 6D 6D 30 34 02  E*.........mm04.
1130: 80 5B 51 80 15 21 03 01  15 21 03 01 62 69 6B 30  .[Q..!...!..bik0
1140: 03 02 10 5A 80 03 03 10  5B 80 2B 15 21 03 01 5C  ...Z....[.+.!..\
1150: 80 55 2A 80 F0 FF FF 7F  F0 FF FF 7F 6D 6D 30 34  .U*.........mm04
1160: 45 2A 80 F0 FF FF 7F F0  FF FF 7F 6D 6D 30 35 02  E*.........mm05.
1170: 80 5D 02 80 06 80 1C 58  80 1A 6A 34 1C 03 80 52  .].....X..j4...R
1180: 2A 80 F0 FF FF 7F F0 FF  FF 7F 6D 6D 30 35 5C 00  *.........mm05\.
1190: 39 80 5C 01 39 80 9A 46  00 45 0D 80 F0 FF FF 7F  9.\.9..F.E......
11A0: F0 FF FF 7F 66 64 69 32  02 80 21 00              ....fdi2..!.    
```

#### Opcodes

```
  0: 0x0F7C [0x42] SET_CLI_EVENT_CANCEL_DATA()
  1: 0x0F7D [0x1A] CALL_SUBROUTINE(address=0x346A)
  2: 0x0F80 [0x46] CAMERA_CONTROL: Disable user control
  3: 0x0F82 [0x38] SET_CLIENT_EVENT_MODE(mode=19*)
  4: 0x0F85 [0x92] Ahkk Jharcham (ID: 16982293/0x01032115)->Render.Flags3 ^= 0x01
  5: 0x0F8B [0x94] LocalPlayer->Render.Flags3 ^= 0x01
  6: 0x0F91 [0x94] Ahkk Jharcham (ID: 16982293/0x01032115)->Render.Flags3 ^= 0x01
  7: 0x0F97 [0x29] REQ_SET_WAIT(priority=0x10, entity_id=LocalPlayer, tag_num=0x21)
  8: 0x0F9E [0x80] LOAD_WAIT(entity=LocalPlayer)
  9: 0x0FA3 [0x80] LOAD_WAIT(entity=Ahkk Jharcham (ID: 16982293/0x01032115))
 10: 0x0FA8 [0x4A] LocalPlayer looks at Ahkk Jharcham (ID: 16982293/0x01032115)
 11: 0x0FB1 [0x5C] MUSIC_CONTROL: Set Idle (Day) music to song 163*
 12: 0x0FB5 [0x5C] MUSIC_CONTROL: Set Idle (Night) music to song 163*
 13: 0x0FB9 [0x9A] WAIT_MUSIC_SERVER()
 14: 0x0FBA [0x1C] WAIT(30* ticks)
 15: 0x0FBD [0x45] LOAD_SCHEDULED_TASK: Load scheduler "mm00" with entities [LocalPlayer, LocalPlayer], work=[259*, 0*]
 16: 0x0FCE [0x1A] CALL_SUBROUTINE(address=0x3449)
 17: 0x0FD1 [0x2B] Ahkk Jharcham (ID: 16982293/0x01032115) [5553*]:
    → "Mew mew mew mew mew meooowt Tulutululu`t Meow!"
 18: 0x0FD8 [0x23] WAIT_FOR_DIALOG_INTERACTION
 19: 0x0FD9 [0x48] [System] [5554*]:
    → "Ahkk Jharcham looks pretty happy about something."
 20: 0x0FDC [0x1C] WAIT(120* ticks)
 21: 0x0FDF [0x5B] LOAD_EXT_SCHEDULER: Load scheduler "hai0" with entities [Ahkk Jharcham (ID: 16982293/0x01032115), Ahkk Jharcham (ID: 16982293/0x01032115)], work=81*
 22: 0x0FEE [0x2B] Ahkk Jharcham (ID: 16982293/0x01032115) [5555*]:
    → "Meow meow, what a beautiful dayt The adults said they wouldn't tell me their secrrret, but I found out anywayt Now I can sneak around town by a hidden west wayt"
 23: 0x0FF5 [0x23] WAIT_FOR_DIALOG_INTERACTION
 24: 0x0FF6 [0x53] WAIT_SCHEDULER_TASK: Wait for scheduler "hai0" with entities [Ahkk Jharcham (ID: 16982293/0x01032115), Ahkk Jharcham (ID: 16982293/0x01032115)]
 25: 0x1003 [0x52] END_LOAD_SCHEDULER: End scheduler "mm00" with entities [LocalPlayer, LocalPlayer], work=259*
 26: 0x1012 [0x45] LOAD_SCHEDULED_TASK: Load scheduler "mm01" with entities [LocalPlayer, LocalPlayer], work=[259*, 0*]
 27: 0x1023 [0x81] SET_ENTITY_BLINKING(blink_flag=0x00, entity=Ahkk Jharcham (ID: 16982293/0x01032115))
 28: 0x1029 [0x5B] LOAD_EXT_SCHEDULER: Load scheduler "kisi" with entities [Ahkk Jharcham (ID: 16982293/0x01032115), Ahkk Jharcham (ID: 16982293/0x01032115)], work=84*
 29: 0x1038 [0x2B] Ahkk Jharcham (ID: 16982293/0x01032115) [5560*]:
    → "Myehehe..."
 30: 0x103F [0x1C] WAIT(30* ticks)
 31: 0x1042 [0x53] WAIT_SCHEDULER_TASK: Wait for scheduler "kisi" with entities [Ahkk Jharcham (ID: 16982293/0x01032115), Ahkk Jharcham (ID: 16982293/0x01032115)]
 32: 0x104F [0x81] SET_ENTITY_BLINKING(blink_flag=0x01, entity=Ahkk Jharcham (ID: 16982293/0x01032115))
 33: 0x1055 [0x52] END_LOAD_SCHEDULER: End scheduler "mm01" with entities [LocalPlayer, LocalPlayer], work=259*
 34: 0x1064 [0x45] LOAD_SCHEDULED_TASK: Load scheduler "mm02" with entities [LocalPlayer, LocalPlayer], work=[259*, 0*]
 35: 0x1075 [0x2B] Ahkk Jharcham (ID: 16982293/0x01032115) [5556*]:
    → "I'd better wrrrite this down before I forget..."
 36: 0x107C [0x23] WAIT_FOR_DIALOG_INTERACTION
 37: 0x107D [0x5B] LOAD_EXT_SCHEDULER: Load scheduler "hai0" with entities [Ahkk Jharcham (ID: 16982293/0x01032115), Ahkk Jharcham (ID: 16982293/0x01032115)], work=81*
 38: 0x108C [0x2B] Ahkk Jharcham (ID: 16982293/0x01032115) [5557*]:
    → "I need some parchment... Meow?"
 39: 0x1093 [0x23] WAIT_FOR_DIALOG_INTERACTION
 40: 0x1094 [0x53] WAIT_SCHEDULER_TASK: Wait for scheduler "hai0" with entities [Ahkk Jharcham (ID: 16982293/0x01032115), Ahkk Jharcham (ID: 16982293/0x01032115)]
 41: 0x10A1 [0x52] END_LOAD_SCHEDULER: End scheduler "mm02" with entities [LocalPlayer, LocalPlayer], work=259*
 42: 0x10B0 [0x45] LOAD_SCHEDULED_TASK: Load scheduler "mm03" with entities [LocalPlayer, LocalPlayer], work=[259*, 0*]
 43: 0x10C1 [0x5B] LOAD_EXT_SCHEDULER: Load scheduler "aww0" with entities [Ahkk Jharcham (ID: 16982293/0x01032115), Ahkk Jharcham (ID: 16982293/0x01032115)], work=80*
 44: 0x10D0 [0x1C] WAIT(90* ticks)
 45: 0x10D3 [0x5B] LOAD_EXT_SCHEDULER: Load scheduler "aww1" with entities [Ahkk Jharcham (ID: 16982293/0x01032115), Ahkk Jharcham (ID: 16982293/0x01032115)], work=80*
 46: 0x10E2 [0x53] WAIT_SCHEDULER_TASK: Wait for scheduler "aww1" with entities [Ahkk Jharcham (ID: 16982293/0x01032115), Ahkk Jharcham (ID: 16982293/0x01032115)]
 47: 0x10EF [0x48] [System] [5558*]:
    → "Ahkk Jharcham reaches into her pockets, but all she can find is a few cookie crumbs."
 48: 0x10F2 [0x5B] LOAD_EXT_SCHEDULER: Load scheduler "thk0" with entities [Ahkk Jharcham (ID: 16982293/0x01032115), Ahkk Jharcham (ID: 16982293/0x01032115)], work=80*
 49: 0x1101 [0x53] WAIT_SCHEDULER_TASK: Wait for scheduler "thk0" with entities [Ahkk Jharcham (ID: 16982293/0x01032115), Ahkk Jharcham (ID: 16982293/0x01032115)]
 50: 0x110E [0x1C] WAIT(30* ticks)
 51: 0x1111 [0x52] END_LOAD_SCHEDULER: End scheduler "mm03" with entities [LocalPlayer, LocalPlayer], work=259*
 52: 0x1120 [0x45] LOAD_SCHEDULED_TASK: Load scheduler "mm04" with entities [LocalPlayer, LocalPlayer], work=[259*, 0*]
 53: 0x1131 [0x5B] LOAD_EXT_SCHEDULER: Load scheduler "bik0" with entities [Ahkk Jharcham (ID: 16982293/0x01032115), Ahkk Jharcham (ID: 16982293/0x01032115)], work=81*
 54: 0x1140 [0x03] Work_Zone[2] = 917*
 55: 0x1145 [0x03] Work_Zone[3] = 929*
 56: 0x114A [0x2B] Ahkk Jharcham (ID: 16982293/0x01032115) [5559*]:
    → "How am I supposed to rrremember the secret now? I wish I had $0 and $1..."
 57: 0x1151 [0x55] WAIT_LOAD_SCHEDULER: Wait for scheduler "mm04" with entities [LocalPlayer, LocalPlayer], work=259*
 58: 0x1160 [0x45] LOAD_SCHEDULED_TASK: Load scheduler "mm05" with entities [LocalPlayer, LocalPlayer], work=[259*, 0*]
 59: 0x1171 [0x5D] SET_MUSIC_VOLUME(volume=0*, fade_time=60*)
 60: 0x1176 [0x1C] WAIT(90* ticks)
 61: 0x1179 [0x1A] CALL_SUBROUTINE(address=0x346A)
 62: 0x117C [0x1C] WAIT(30* ticks)
 63: 0x117F [0x52] END_LOAD_SCHEDULER: End scheduler "mm05" with entities [LocalPlayer, LocalPlayer], work=259*
 64: 0x118E [0x5C] MUSIC_CONTROL: Set Idle (Day) music to song 178*
 65: 0x1192 [0x5C] MUSIC_CONTROL: Set Idle (Night) music to song 178*
 66: 0x1196 [0x9A] WAIT_MUSIC_SERVER()
 67: 0x1197 [0x46] CAMERA_CONTROL: Restore default settings
 68: 0x1199 [0x45] LOAD_SCHEDULED_TASK: Load scheduler "fdi2" with entities [LocalPlayer, LocalPlayer], work=[200*, 0*]
 69: 0x11AA [0x21] END_EVENT
 70: 0x11AB [0x00] END_REQSTACK()
```

### Event 11

#### Metadata

| Field        | Value     |
|--------------|-----------|
| Entrypoint   | 0x11AC    |
| Data Size    | 994 bytes |
| Instructions | 129       |

```
      00 01 02 03 04 05 06 07  08 09 0A 0B 0C 0D 0E 0F
      -- -- -- -- -- -- -- --  -- -- -- -- -- -- -- --
11A0:                                      42 1A 6A 34              B.j4
11B0: 46 01 38 00 80 92 01 15  21 03 01 94 01 F0 FF FF  F.8.....!.......
11C0: 7F 94 01 15 21 03 01 29  10 F0 FF FF 7F 21 80 F0  ....!..).....!..
11D0: FF FF 7F 80 15 21 03 01  4A F0 FF FF 7F 15 21 03  .....!..J.....!.
11E0: 01 5C 00 4E 80 5C 01 4E  80 9A 1C 03 80 45 2A 80  .\.N.\.N.....E*.
11F0: F0 FF FF 7F F0 FF FF 7F  6D 6D 31 30 02 80 1A 49  ........mm10...I
1200: 34 4A 15 21 03 01 F0 FF  FF 7F 6F 76 15 21 03 01  4J.!......ov.!..
1210: 1C 04 80 5B 51 80 15 21  03 01 15 21 03 01 62 69  ...[Q..!...!..bi
1220: 6B 30 2B 15 21 03 01 5D  80 23 52 2A 80 F0 FF FF  k0+.!..].#R*....
1230: 7F F0 FF FF 7F 6D 6D 31  30 45 2A 80 F0 FF FF 7F  .....mm10E*.....
1240: F0 FF FF 7F 6D 6D 31 31  02 80 4B 15 21 03 01 5E  ....mm11..K.!..^
1250: 80 6F 76 15 21 03 01 5B  51 80 15 21 03 01 15 21  .ov.!..[Q..!...!
1260: 03 01 6D 65 6D 30 1C 06  80 52 2A 80 F0 FF FF 7F  ..mem0...R*.....
1270: F0 FF FF 7F 6D 6D 31 31  45 2A 80 F0 FF FF 7F F0  ....mm11E*......
1280: FF FF 7F 6D 6D 31 32 02  80 53 15 21 03 01 15 21  ...mm12..S.!...!
1290: 03 01 6D 65 6D 30 1C 06  80 48 5F 80 1C 60 80 5B  ..mem0...H_..`.[
12A0: 51 80 15 21 03 01 15 21  03 01 6D 65 6D 31 53 15  Q..!...!..mem1S.
12B0: 21 03 01 15 21 03 01 6D  65 6D 31 52 2A 80 F0 FF  !...!..mem1R*...
12C0: FF 7F F0 FF FF 7F 6D 6D  31 32 45 2A 80 F0 FF FF  ......mm12E*....
12D0: 7F F0 FF FF 7F 6D 6D 31  33 02 80 5B 51 80 15 21  .....mm13..[Q..!
12E0: 03 01 15 21 03 01 68 61  69 30 2B 15 21 03 01 61  ...!..hai0+.!..a
12F0: 80 23 53 15 21 03 01 15  21 03 01 68 61 69 30 52  .#S.!...!..hai0R
1300: 2A 80 F0 FF FF 7F F0 FF  FF 7F 6D 6D 31 33 45 2A  *.........mm13E*
1310: 80 F0 FF FF 7F F0 FF FF  7F 6D 6D 31 34 02 80 81  .........mm14...
1320: 00 15 21 03 01 5B 53 80  15 21 03 01 15 21 03 01  ..!..[S..!...!..
1330: 6B 69 73 69 2B 15 21 03  01 54 80 1C 03 80 53 15  kisi+.!..T....S.
1340: 21 03 01 15 21 03 01 6B  69 73 69 81 01 15 21 03  !...!..kisi...!.
1350: 01 5D 02 80 06 80 2B 15  21 03 01 62 80 23 4A 15  .]....+.!..b.#J.
1360: 21 03 01 F0 FF FF 7F 6F  76 15 21 03 01 52 2A 80  !......ov.!..R*.
1370: F0 FF FF 7F F0 FF FF 7F  6D 6D 31 34 45 2A 80 F0  ........mm14E*..
1380: FF FF 7F F0 FF FF 7F 6D  6D 31 35 02 80 5B 57 80  .......mm15..[W.
1390: 15 21 03 01 15 21 03 01  74 6C 6B 30 29 10 F0 FF  .!...!..tlk0)...
13A0: FF 7F 1D 2B 15 21 03 01  63 80 23 5B 57 80 15 21  ...+.!..c.#[W..!
13B0: 03 01 15 21 03 01 74 6C  6B 31 24 64 80 02 80 02  ...!..tlk1$d....
13C0: 80 25 02 00 10 02 80 00  46 14 6E F0 FF FF 7F 65  .%......F.n....e
13D0: 80 99 F0 FF FF 7F 99 F0  FF FF 7F 1C 06 80 5C 00  ..............\.
13E0: 39 80 5C 01 39 80 9A 52  2A 80 F0 FF FF 7F F0 FF  9.\.9..R*.......
13F0: FF 7F 6D 6D 31 35 45 2A  80 F0 FF FF 7F F0 FF FF  ..mm15E*........
1400: 7F 6D 6D 31 36 02 80 5B  57 80 15 21 03 01 15 21  .mm16..[W..!...!
1410: 03 01 74 68 6B 30 2B 15  21 03 01 66 80 23 53 15  ..thk0+.!..f.#S.
1420: 21 03 01 15 21 03 01 74  68 6B 30 1A 6A 34 1C 03  !...!..thk0.j4..
1430: 80 52 2A 80 F0 FF FF 7F  F0 FF FF 7F 6D 6D 31 36  .R*.........mm16
1440: 48 67 80 01 65 15 02 00  10 0A 80 00 65 15 6E F0  Hg..e.......e.n.
1450: FF FF 7F 68 80 99 F0 FF  FF 7F 99 F0 FF FF 7F 1C  ...h............
1460: 06 80 52 2A 80 F0 FF FF  7F F0 FF FF 7F 6D 6D 31  ..R*.........mm1
1470: 35 45 2A 80 F0 FF FF 7F  F0 FF FF 7F 6D 6D 31 37  5E*.........mm17
1480: 02 80 5B 51 80 15 21 03  01 15 21 03 01 61 6E 67  ..[Q..!...!..ang
1490: 30 2B 15 21 03 01 69 80  23 53 15 21 03 01 15 21  0+.!..i.#S.!...!
14A0: 03 01 61 6E 67 30 1C 10  80 55 2A 80 F0 FF FF 7F  ..ang0...U*.....
14B0: F0 FF FF 7F 6D 6D 31 37  45 2A 80 F0 FF FF 7F F0  ....mm17E*......
14C0: FF FF 7F 6D 6D 31 39 02  80 7C 00 15 21 03 01 2B  ...mm19..|..!..+
14D0: 15 21 03 01 6A 80 23 5C  00 39 80 5C 01 39 80 9A  .!..j.#\.9.\.9..
14E0: 29 10 F0 FF FF 7F 1D 5B  57 80 15 21 03 01 15 21  )......[W..!...!
14F0: 03 01 74 6C 6B 30 7C 01  15 21 03 01 2B 15 21 03  ..tlk0|..!..+.!.
1500: 01 6B 80 23 5B 57 80 15  21 03 01 15 21 03 01 74  .k.#[W..!...!..t
1510: 6C 6B 31 2B 15 21 03 01  6C 80 53 15 21 03 01 15  lk1+.!..l.S.!...
1520: 21 03 01 74 6C 6B 31 55  2A 80 F0 FF FF 7F F0 FF  !..tlk1U*.......
1530: FF 7F 6D 6D 31 39 45 2A  80 F0 FF FF 7F F0 FF FF  ..mm19E*........
1540: 7F 6D 6D 32 30 02 80 5B  51 80 15 21 03 01 15 21  .mm20..[Q..!...!
1550: 03 01 68 61 69 30 1C 06  80 1A 6A 34 1C 03 80 48  ..hai0....j4...H
1560: 6D 80 01 65 15 1C 06 80  46 00 45 4D 80 F8 FF FF  m..e....F.EM....
1570: 7F F8 FF FF 7F 71 73 74  63 02 80 45 0D 80 F0 FF  .....qstc..E....
1580: FF 7F F0 FF FF 7F 66 64  69 32 02 80 21 00        ......fdi2..!.  
```

#### Opcodes

```
  0: 0x11AC [0x42] SET_CLI_EVENT_CANCEL_DATA()
  1: 0x11AD [0x1A] CALL_SUBROUTINE(address=0x346A)
  2: 0x11B0 [0x46] CAMERA_CONTROL: Disable user control
  3: 0x11B2 [0x38] SET_CLIENT_EVENT_MODE(mode=19*)
  4: 0x11B5 [0x92] Ahkk Jharcham (ID: 16982293/0x01032115)->Render.Flags3 ^= 0x01
  5: 0x11BB [0x94] LocalPlayer->Render.Flags3 ^= 0x01
  6: 0x11C1 [0x94] Ahkk Jharcham (ID: 16982293/0x01032115)->Render.Flags3 ^= 0x01
  7: 0x11C7 [0x29] REQ_SET_WAIT(priority=0x10, entity_id=LocalPlayer, tag_num=0x21)
  8: 0x11CE [0x80] LOAD_WAIT(entity=LocalPlayer)
  9: 0x11D3 [0x80] LOAD_WAIT(entity=Ahkk Jharcham (ID: 16982293/0x01032115))
 10: 0x11D8 [0x4A] LocalPlayer looks at Ahkk Jharcham (ID: 16982293/0x01032115)
 11: 0x11E1 [0x5C] MUSIC_CONTROL: Set Idle (Day) music to song 163*
 12: 0x11E5 [0x5C] MUSIC_CONTROL: Set Idle (Night) music to song 163*
 13: 0x11E9 [0x9A] WAIT_MUSIC_SERVER()
 14: 0x11EA [0x1C] WAIT(30* ticks)
 15: 0x11ED [0x45] LOAD_SCHEDULED_TASK: Load scheduler "mm10" with entities [LocalPlayer, LocalPlayer], work=[259*, 0*]
 16: 0x11FE [0x1A] CALL_SUBROUTINE(address=0x3449)
 17: 0x1201 [0x4A] Ahkk Jharcham (ID: 16982293/0x01032115) looks at LocalPlayer
 18: 0x120A [0x6F] WAIT_FRAME_DELAY: Yield until WaitTime reaches zero
 19: 0x120B [0x76] CHECK_ENTITY_RENDER_FLAGS: Wait until Ahkk Jharcham (ID: 16982293/0x01032115) Render.Flags0 and Render.Flags3 conditions are met
