# 16982637 - Mrohk Sahjuuli

## Common Data

| Field            | Value                         |
|------------------|-------------------------------|
| Zone             | Aht Urhgan Whitegate (ID: 50) |
| Block Size       | 6672 bytes                    |
| Total Events     | 9                             |
| References Count | 132                           |

## List of Events

| Event ID              | Entrypoint   |   Size |   Instructions |
|-----------------------|--------------|--------|----------------|
| [65535](#event-65535) | 0x0000       |      1 |              1 |
| [969](#event-969)     | 0x0001       |    635 |            126 |
| [973](#event-973)     | 0x027C       |    189 |             39 |
| [974](#event-974)     | 0x0339       |    121 |             33 |
| [975](#event-975)     | 0x03B2       |     28 |             10 |
| [970](#event-970)     | 0x03CE       |    223 |             48 |
| [971](#event-971)     | 0x04AD       |    153 |             42 |
| [976](#event-976)     | 0x0546       |     39 |             11 |
| [972](#event-972)     | 0x056D       |   4700 |            938 |

## DAT References (imed_data)

|   Index | Hex Value   |   Dec Value |
|---------|-------------|-------------|
|       0 | 0x0000      |           0 |
|       1 | 0x0032      |          50 |
|       2 | 0x37A3      |       14243 |
|       3 | 0x37A4      |       14244 |
|       4 | 0x37A7      |       14247 |
|       5 | 0x37A5      |       14245 |
|       6 | 0x000B      |          11 |
|       7 | 0x37A8      |       14248 |
|       8 | 0x37A9      |       14249 |
|       9 | 0x37AA      |       14250 |
|      10 | 0x0007      |           7 |
|      11 | 0x37AB      |       14251 |
|      12 | 0x0001      |           1 |
|      13 | 0x0004      |           4 |
|      14 | 0x0F28      |        3880 |
|      15 | 0x0F29      |        3881 |
|      16 | 0x0002      |           2 |
|      17 | 0x0F2A      |        3882 |
|      18 | 0x0003      |           3 |
|      19 | 0x0F2B      |        3883 |
|      20 | 0x0F2C      |        3884 |
|      21 | 0x37AF      |       14255 |
|      22 | 0x37B0      |       14256 |
|      23 | 0x0008      |           8 |
|      24 | 0x37B1      |       14257 |
|      25 | 0x37AC      |       14252 |
|      26 | 0x37AD      |       14253 |
|      27 | 0x37AE      |       14254 |
|      28 | 0x0013      |          19 |
|      29 | 0x37A6      |       14246 |
|      30 | 0x37D0      |       14288 |
|      31 | 0x37D1      |       14289 |
|      32 | 0x37D2      |       14290 |
|      33 | 0x37CF      |       14287 |
|      34 | 0x37B2      |       14258 |
|      35 | 0x37B3      |       14259 |
|      36 | 0x37B4      |       14260 |
|      37 | 0x000A      |          10 |
|      38 | 0x37B5      |       14261 |
|      39 | 0x37B6      |       14262 |
|      40 | 0x37B8      |       14264 |
|      41 | 0x37B9      |       14265 |
|      42 | 0x37BA      |       14266 |
|      43 | 0x37BB      |       14267 |
|      44 | 0x37BC      |       14268 |
|      45 | 0x37BD      |       14269 |
|      46 | 0x37BE      |       14270 |
|      47 | 0x0005      |           5 |
|      48 | 0x37C1      |       14273 |
|      49 | 0x37C2      |       14274 |
|      50 | 0x37C3      |       14275 |
|      51 | 0x37C4      |       14276 |
|      52 | 0x37C5      |       14277 |
|      53 | 0x37C6      |       14278 |
|      54 | 0x0006      |           6 |
|      55 | 0x0020      |          32 |
|      56 | 0x37D3      |       14291 |
|      57 | 0x37C8      |       14280 |
|      58 | 0x07FE      |        2046 |
|      59 | 0x37C9      |       14281 |
|      60 | 0x0019      |          25 |
|      61 | 0x37CB      |       14283 |
|      62 | 0x0014      |          20 |
|      63 | 0x37CC      |       14284 |
|      64 | 0x0015      |          21 |
|      65 | 0x0016      |          22 |
|      66 | 0x0017      |          23 |
|      67 | 0x0018      |          24 |
|      68 | 0x37D4      |       14292 |
|      69 | 0x001F      |          31 |
|      70 | 0x37CA      |       14282 |
|      71 | 0x007D      |         125 |
|      72 | 0x37CD      |       14285 |
|      73 | 0x007E      |         126 |
|      74 | 0x007F      |         127 |
|      75 | 0x0080      |         128 |
|      76 | 0x0081      |         129 |
|      77 | 0x0082      |         130 |
|      78 | 0x0083      |         131 |
|      79 | 0x0084      |         132 |
|      80 | 0x0085      |         133 |
|      81 | 0x0086      |         134 |
|      82 | 0x0021      |          33 |
|      83 | 0x0087      |         135 |
|      84 | 0x0088      |         136 |
|      85 | 0x0089      |         137 |
|      86 | 0x008A      |         138 |
|      87 | 0x008B      |         139 |
|      88 | 0x0022      |          34 |
|      89 | 0x008C      |         140 |
|      90 | 0x008D      |         141 |
|      91 | 0x008E      |         142 |
|      92 | 0x008F      |         143 |
|      93 | 0x0090      |         144 |
|      94 | 0x0023      |          35 |
|      95 | 0x0091      |         145 |
|      96 | 0x0092      |         146 |
|      97 | 0x0093      |         147 |
|      98 | 0x0094      |         148 |
|      99 | 0x0095      |         149 |
|     100 | 0x001A      |          26 |
|     101 | 0x0064      |         100 |
|     102 | 0x37CE      |       14286 |
|     103 | 0x0065      |         101 |
|     104 | 0x0066      |         102 |
|     105 | 0x0067      |         103 |
|     106 | 0x0068      |         104 |
|     107 | 0x001B      |          27 |
|     108 | 0x0069      |         105 |
|     109 | 0x006A      |         106 |
|     110 | 0x006B      |         107 |
|     111 | 0x006C      |         108 |
|     112 | 0x006D      |         109 |
|     113 | 0x001C      |          28 |
|     114 | 0x006E      |         110 |
|     115 | 0x006F      |         111 |
|     116 | 0x0070      |         112 |
|     117 | 0x0071      |         113 |
|     118 | 0x0072      |         114 |
|     119 | 0x0009      |           9 |
|     120 | 0x001D      |          29 |
|     121 | 0x0073      |         115 |
|     122 | 0x0074      |         116 |
|     123 | 0x0075      |         117 |
|     124 | 0x0076      |         118 |
|     125 | 0x0077      |         119 |
|     126 | 0x001E      |          30 |
|     127 | 0x0078      |         120 |
|     128 | 0x0079      |         121 |
|     129 | 0x007A      |         122 |
|     130 | 0x007B      |         123 |
|     131 | 0x007C      |         124 |

## String References

- **14243**: Hi there, [tomcat/pussycat].
- **14244**: You look trrrustworthy enough. Got a minute to spare?
- **14245**: %bp$P157+\\7)H Listen to her? [I like where this is going./Get me away from her!]
- **14246**: Did I rrrub you the wrong way? Oh well, come back when you set your fur straight.
- **14247**: Want me to whispurrr some sweet nothings in your ear?
- **14248**: That's the arrrdor I was looking for!
- **14249**: Then it's time to talk about the undersea rrruins of Alzadaal that lie at the western edge of the Arrradjiah Continent. In other words, around here. Stop me if you've already heard about it and the rrremnants that dot the landscapes within.
- **14250**: Do you know of the remnants? [Yes, so stop right there./No, please tell me more.]
- **14251**: That's exactly what I wanted to hear! (My eyes, they're grrreat at picking out capable adventurers.)
- **14252**: No...? Have you been living under a rrrock all these years!? (I can't believe my eyes would fail me for this fool.)
- **14253**: Let's get you up to speed before you become a cat's paw. There are four remnants within the Ruins of Alzadaal: Zhayolm, Arrapago, Bhaflau, and Silver Sea.
- **14254**: Some fat cats thought they collected all they could long ago and abandoned the rrremnants, but there's still lots more to salvage down there.
- **14255**: Here's an example of what you can dig up in the rrruins. I'd been searrrching all over the realm for it!
- **14256**: I like your face, [loverboy/pretty girl], so I'll let you in on a little secret. People have found certain pieces of equipment that rrresonate with these artifacts. If you find any, show them to me and I'll sweeten your kitty.
- **14257**: Oh...but let's keep this a secrrret from Ghanraam, shall we? Otherwise I'll tear your throat out and leave it on my master's doorstep!
- **14258**: You brrrought one! I always knew you had a killer instinct. Now, how about I keep it warm for you?
- **14259**: Hand it over? [Might as well./I'd rather not.]
- **14260**: Thanks! I'll make sure to keep it in purrrfect condition for you!
- **14261**: Fine, I rrrespect that you don't want to live under the cat's foot...but see if I ever take anything you bring me again!
- **14262**: $1 more $0 for me--er, you? Alrrright then.
- **14264**: My, my, my, look what the cat dragged in. I'd be happy to rrreconstruct this for you...under one condition.
- **14265**: I prrromise I won't leave any marks...so what do you say?
- **14266**: Agree to her terms? [I've no other choice./Never!]
- **14267**: Good kitty! Now, I'll need a few $0 to get this prrrocess started.
- **14268**: To rrrestore $1, you'll need to bring me $2 $0 . Oh, and I'll also be taking $4 $0$3 as compensation for my suffering. Got it?
- **14269**: Also...you didn't happen to rrreceive anything from that scumbag Ghanraam, did you? Well, there's more than one way to skin a cat--if you did, things are going to get a little prrricey.
- **14270**: Don't go down without a fight! Oh, and can I have all your materrrials if you die?
- **14273**: It's prrrobably not the cat's meow, but it's good enough, right?
- **14274**: Exchange items? [Yes./No.]
- **14275**: Thanks!
- **14276**: Here's your rrreward, sugarpelt. I didn't want to keep you waiting, so I prrrepared one in advance.
- **14277**: Brrring some more when you have the time!
- **14278**: Brrring some more when you have the time! (And don't you dare breathe a word of this to Ghanrrraam!)
- **14280**: They say that knowledge is power, so how about I overrrpower you with some knowledge, precious paws?
- **14281**: About what do you wish to know? [Plan stock numbers./Ker armor./Sigyn armor./Omodaka armor./Nabu armor./Fea armor./Ares +1 armor./Skadi +1 armor./Usukane +1 armor./Marduk +1 armor./Morrigan +1 armor./Nothing.]
- **14282**: Which parts? [#./$1./$2./$3./$4./None of these./None, I'm done.]
- **14283**: What do you want to check? [%./$1./$2./$3./$4./None of these./None, I'm done.]
- **14284**: I've got my paws on $1 $0 .
- **14285**: For this, I rrrequire...$0 and $2 $0$0 . Also, I'll need $4 $0$3 as compensation for my suffering.
- **14286**: For this, I rrrequire...$0, $1, and $3 $0 . Also, I'll need $5 $0$4 as compensation for my suffering.
- **14287**: Don't keep me waiting for too long, lover[boy/girl]. And I know my precious <Player> would never betrrray me, but don't go to Ghanraam if you like your head attached to your neck!
- **14288**: What do you want frrrom me?
- **14289**: What do you want from her? [Show me what can be salvaged!/Nothing whatsoever.]
- **14290**: You can find these thrrroughout the four remnants. Don't forrrget about the equipment they can modify, either.
- **14291**: Can't you count!? I said brrring me $1 $0! All the money and equipment in the world won't matter if you don't have the prrroper amount of $0!
- **14292**: These plans are all grrreat and all, but where's the equipment with which to synthesize them?

## Events

### Event 65535

#### Metadata

| Field        | Value   |
|--------------|---------|
| Entrypoint   | 0x0000  |
| Data Size    | 1 bytes |
| Instructions | 1       |

```
      00 01 02 03 04 05 06 07  08 09 0A 0B 0C 0D 0E 0F
      -- -- -- -- -- -- -- --  -- -- -- -- -- -- -- --
0000: 00                                                .               
```

#### Opcodes

```
  0: 0x0000 [0x00] END_REQSTACK()
```

### Event 969

#### Metadata

| Field        | Value     |
|--------------|-----------|
| Entrypoint   | 0x0001    |
| Data Size    | 635 bytes |
| Instructions | 95        |

```
      00 01 02 03 04 05 06 07  08 09 0A 0B 0C 0D 0E 0F
      -- -- -- -- -- -- -- --  -- -- -- -- -- -- -- --
0000:    03 00 00 02 10 1E F0  FF FF 7F 6F 76 F0 FF FF   ..........ov...
0010: 7F 02 00 00 00 80 00 60  00 66 01 80 F8 FF FF 7F  .......`.f......
0020: F8 FF FF 7F 74 68 6B 31  1D 02 80 23 66 01 80 F8  ....thk1...#f...
0030: FF FF 7F F8 FF FF 7F 74  68 6B 32 66 01 80 F8 FF  .......thk2f....
0040: FF 7F F8 FF FF 7F 74 6C  6B 30 1D 03 80 23 66 01  ......tlk0...#f.
0050: 80 F8 FF FF 7F F8 FF FF  7F 74 6C 6B 31 01 82 00  .........tlk1...
0060: 66 01 80 F8 FF FF 7F F8  FF FF 7F 74 6C 6B 30 1D  f..........tlk0.
0070: 04 80 23 66 01 80 F8 FF  FF 7F F8 FF FF 7F 74 6C  ..#f..........tl
0080: 6B 31 24 05 80 00 80 00  80 25 02 00 10 00 80 00  k1$......%......
0090: 53 02 6E F8 FF FF 7F 06  80 99 F8 FF FF 7F 1D 07  S.n.............
00A0: 80 23 99 F8 FF FF 7F 66  01 80 F8 FF FF 7F F8 FF  .#.....f........
00B0: FF 7F 74 6C 6B 30 1D 08  80 23 66 01 80 F8 FF FF  ..tlk0...#f.....
00C0: 7F F8 FF FF 7F 74 6C 6B  31 24 09 80 00 80 00 80  .....tlk1$......
00D0: 25 02 00 10 00 80 00 77  01 6E F8 FF FF 7F 0A 80  %......w.n......
00E0: 99 F8 FF FF 7F 1D 0B 80  23 99 F8 FF FF 7F 03 02  ........#.......
00F0: 10 0C 80 13 00 00 0D 80  02 00 00 00 80 80 06 01  ................
0100: 93 0E 80 01 3E 01 02 00  00 0C 80 80 14 01 93 0F  ....>...........
0110: 80 01 3E 01 02 00 00 10  80 80 22 01 93 11 80 01  ..>.......".....
0120: 3E 01 02 00 00 12 80 80  30 01 93 13 80 01 3E 01  >.......0.....>.
0130: 02 00 00 0D 80 80 3E 01  93 14 80 01 3E 01 66 01  ......>.....>.f.
0140: 80 F8 FF FF 7F F8 FF FF  7F 70 61 73 30 1D 15 80  .........pas0...
0150: 23 93 00 80 1D 16 80 23  6E F8 FF FF 7F 17 80 99  #......#n.......
0160: F8 FF FF 7F 1D 18 80 23  99 F8 FF FF 7F 03 01 10  .......#........
0170: 10 80 21 00 01 50 02 02  00 10 0C 80 00 50 02 66  ..!..P.......P.f
0180: 01 80 F8 FF FF 7F F8 FF  FF 7F 74 68 6B 31 1D 19  ..........thk1..
0190: 80 23 66 01 80 F8 FF FF  7F F8 FF FF 7F 74 68 6B  .#f..........thk
01A0: 32 66 01 80 F8 FF FF 7F  F8 FF FF 7F 74 6C 6B 30  2f..........tlk0
01B0: 1D 1A 80 23 1D 1B 80 23  66 01 80 F8 FF FF 7F F8  ...#...#f.......
01C0: FF FF 7F 74 6C 6B 31 03  02 10 00 80 13 00 00 0D  ...tlk1.........
01D0: 80 02 00 00 00 80 80 DF  01 93 0E 80 01 17 02 02  ................
01E0: 00 00 0C 80 80 ED 01 93  0F 80 01 17 02 02 00 00  ................
01F0: 10 80 80 FB 01 93 11 80  01 17 02 02 00 00 12 80  ................
0200: 80 09 02 93 13 80 01 17  02 02 00 00 0D 80 80 17  ................
0210: 02 93 14 80 01 17 02 66  01 80 F8 FF FF 7F F8 FF  .......f........
0220: FF 7F 70 61 73 30 1D 15  80 23 93 00 80 1D 16 80  ..pas0...#......
0230: 23 6E F8 FF FF 7F 17 80  99 F8 FF FF 7F 1D 18 80  #n..............
0240: 23 99 F8 FF FF 7F 03 01  10 10 80 21 00 01 50 02  #..........!..P.
0250: 01 7A 02 02 00 10 0C 80  00 7A 02 6E F8 FF FF 7F  .z.......z.n....
0260: 1C 80 99 F8 FF FF 7F 1D  1D 80 23 99 F8 FF FF 7F  ..........#.....
0270: 03 01 10 0C 80 21 00 01  7A 02 21 00              .....!..z.!.    
```

#### Opcodes

```
  0: 0x0001 [0x03] ExtData[1]->WorkLocal[0] = Work_Zone[2]
  1: 0x0006 [0x1E] EventEntity looks at LocalPlayer and starts talking
  2: 0x000B [0x6F] WAIT_FRAME_DELAY: Yield until WaitTime reaches zero
  3: 0x000C [0x76] CHECK_ENTITY_RENDER_FLAGS: Wait until LocalPlayer Render.Flags0 and Render.Flags3 conditions are met
  4: 0x0011 [0x02] IF !(ExtData[1]->WorkLocal[0] == 0*) GOTO 0x0060
  5: 0x0019 [0x66] LOAD_EXT_SCHEDULER_MAIN: Load scheduler "thk1" with entities [EventEntity, EventEntity], work=50*
  6: 0x0028 [0x1D] PRINT_EVENT_MESSAGE(message_id=14243*)
    → "Hi there, [tomcat/pussycat]."
  7: 0x002B [0x23] WAIT_FOR_DIALOG_INTERACTION
  8: 0x002C [0x66] LOAD_EXT_SCHEDULER_MAIN: Load scheduler "thk2" with entities [EventEntity, EventEntity], work=50*
  9: 0x003B [0x66] LOAD_EXT_SCHEDULER_MAIN: Load scheduler "tlk0" with entities [EventEntity, EventEntity], work=50*
 10: 0x004A [0x1D] PRINT_EVENT_MESSAGE(message_id=14244*)
    → "You look trrrustworthy enough. Got a minute to spare?"
 11: 0x004D [0x23] WAIT_FOR_DIALOG_INTERACTION
 12: 0x004E [0x66] LOAD_EXT_SCHEDULER_MAIN: Load scheduler "tlk1" with entities [EventEntity, EventEntity], work=50*
 13: 0x005D [0x01] GOTO 0x0082
 14: 0x0060 [0x66] LOAD_EXT_SCHEDULER_MAIN: Load scheduler "tlk0" with entities [EventEntity, EventEntity], work=50*
 15: 0x006F [0x1D] PRINT_EVENT_MESSAGE(message_id=14247*)
    → "Want me to whispurrr some sweet nothings in your ear?"
 16: 0x0072 [0x23] WAIT_FOR_DIALOG_INTERACTION
 17: 0x0073 [0x66] LOAD_EXT_SCHEDULER_MAIN: Load scheduler "tlk1" with entities [EventEntity, EventEntity], work=50*

SUBROUTINE_0082:
 18: 0x0082 [0x24] CREATE_DIALOG(message_id=14245*, default_option=0*, option_flags=0*)
    → "%bp$P157+\7)H Listen to her? [I like where this is going./Get me away from her!]"
 19: 0x0089 [0x25] WAIT_DIALOG_SELECT()
 20: 0x008A [0x02] IF !(Work_Zone[0] == 0*) GOTO 0x0253
 21: 0x0092 [0x6E] EventEntity uses emote 11*
 22: 0x0099 [0x99] Wait for EventEntity animation to complete
 23: 0x009E [0x1D] PRINT_EVENT_MESSAGE(message_id=14248*)
    → "That's the arrrdor I was looking for!"
 24: 0x00A1 [0x23] WAIT_FOR_DIALOG_INTERACTION
 25: 0x00A2 [0x99] Wait for EventEntity animation to complete
 26: 0x00A7 [0x66] LOAD_EXT_SCHEDULER_MAIN: Load scheduler "tlk0" with entities [EventEntity, EventEntity], work=50*
 27: 0x00B6 [0x1D] PRINT_EVENT_MESSAGE(message_id=14249*)
    → "Then it's time to talk about the undersea rrruins of Alzadaal that lie at the western edge of the Arrradjiah Continent. In other words, around here. Stop me if you've already heard about it and the rrremnants that dot the landscapes within."
 28: 0x00B9 [0x23] WAIT_FOR_DIALOG_INTERACTION
 29: 0x00BA [0x66] LOAD_EXT_SCHEDULER_MAIN: Load scheduler "tlk1" with entities [EventEntity, EventEntity], work=50*
 30: 0x00C9 [0x24] CREATE_DIALOG(message_id=14250*, default_option=0*, option_flags=0*)
    → "Do you know of the remnants? [Yes, so stop right there./No, please tell me more.]"
 31: 0x00D0 [0x25] WAIT_DIALOG_SELECT()
 32: 0x00D1 [0x02] IF !(Work_Zone[0] == 0*) GOTO 0x0177
 33: 0x00D9 [0x6E] EventEntity uses emote 7*
 34: 0x00E0 [0x99] Wait for EventEntity animation to complete
 35: 0x00E5 [0x1D] PRINT_EVENT_MESSAGE(message_id=14251*)
    → "That's exactly what I wanted to hear! (My eyes, they're grrreat at picking out capable adventurers.)"
 36: 0x00E8 [0x23] WAIT_FOR_DIALOG_INTERACTION
 37: 0x00E9 [0x99] Wait for EventEntity animation to complete
 38: 0x00EE [0x03] Work_Zone[2] = 1*
 39: 0x00F3 [0x13] ExtData[1]->WorkLocal[0] = rand() % 4*
 40: 0x00F8 [0x02] IF !(ExtData[1]->WorkLocal[0] == 0*) GOTO 0x0106
 41: 0x0100 [0x93] DISPLAY_ITEM_INFO(item_id=3880*)
 42: 0x0103 [0x01] GOTO 0x013E
 43: 0x0106 [0x02] IF !(ExtData[1]->WorkLocal[0] == 1*) GOTO 0x0114
 44: 0x010E [0x93] DISPLAY_ITEM_INFO(item_id=3881*)
 45: 0x0111 [0x01] GOTO 0x013E
 46: 0x0114 [0x02] IF !(ExtData[1]->WorkLocal[0] == 2*) GOTO 0x0122
 47: 0x011C [0x93] DISPLAY_ITEM_INFO(item_id=3882*)
 48: 0x011F [0x01] GOTO 0x013E
 49: 0x0122 [0x02] IF !(ExtData[1]->WorkLocal[0] == 3*) GOTO 0x0130
 50: 0x012A [0x93] DISPLAY_ITEM_INFO(item_id=3883*)
 51: 0x012D [0x01] GOTO 0x013E
 52: 0x0130 [0x02] IF !(ExtData[1]->WorkLocal[0] == 4*) GOTO 0x013E
 53: 0x0138 [0x93] DISPLAY_ITEM_INFO(item_id=3884*)
 54: 0x013B [0x01] GOTO 0x013E

SUBROUTINE_013E:
 55: 0x013E [0x66] LOAD_EXT_SCHEDULER_MAIN: Load scheduler "pas0" with entities [EventEntity, EventEntity], work=50*
 56: 0x014D [0x1D] PRINT_EVENT_MESSAGE(message_id=14255*)
    → "Here's an example of what you can dig up in the rrruins. I'd been searrrching all over the realm for it!"
 57: 0x0150 [0x23] WAIT_FOR_DIALOG_INTERACTION
 58: 0x0151 [0x93] DISPLAY_ITEM_INFO(item_id=0*)
 59: 0x0154 [0x1D] PRINT_EVENT_MESSAGE(message_id=14256*)
    → "I like your face, [loverboy/pretty girl], so I'll let you in on a little secret. People have found certain pieces of equipment that rrresonate with these artifacts. If you find any, show them to me and I'll sweeten your kitty."
 60: 0x0157 [0x23] WAIT_FOR_DIALOG_INTERACTION
 61: 0x0158 [0x6E] EventEntity uses emote 8*
 62: 0x015F [0x99] Wait for EventEntity animation to complete
 63: 0x0164 [0x1D] PRINT_EVENT_MESSAGE(message_id=14257*)
    → "Oh...but let's keep this a secrrret from Ghanraam, shall we? Otherwise I'll tear your throat out and leave it on my master's doorstep!"
 64: 0x0167 [0x23] WAIT_FOR_DIALOG_INTERACTION
 65: 0x0168 [0x99] Wait for EventEntity animation to complete
 66: 0x016D [0x03] Work_Zone[1] = 2*
 67: 0x0172 [0x21] END_EVENT
 68: 0x0173 [0x00] END_REQSTACK()

SUBROUTINE_0217:
 69: 0x0217 [0x66] LOAD_EXT_SCHEDULER_MAIN: Load scheduler "pas0" with entities [EventEntity, EventEntity], work=50*
 70: 0x0226 [0x1D] PRINT_EVENT_MESSAGE(message_id=14255*)
    → "Here's an example of what you can dig up in the rrruins. I'd been searrrching all over the realm for it!"
 71: 0x0229 [0x23] WAIT_FOR_DIALOG_INTERACTION
 72: 0x022A [0x93] DISPLAY_ITEM_INFO(item_id=0*)
 73: 0x022D [0x1D] PRINT_EVENT_MESSAGE(message_id=14256*)
    → "I like your face, [loverboy/pretty girl], so I'll let you in on a little secret. People have found certain pieces of equipment that rrresonate with these artifacts. If you find any, show them to me and I'll sweeten your kitty."
 74: 0x0230 [0x23] WAIT_FOR_DIALOG_INTERACTION
 75: 0x0231 [0x6E] EventEntity uses emote 8*
 76: 0x0238 [0x99] Wait for EventEntity animation to complete
 77: 0x023D [0x1D] PRINT_EVENT_MESSAGE(message_id=14257*)
    → "Oh...but let's keep this a secrrret from Ghanraam, shall we? Otherwise I'll tear your throat out and leave it on my master's doorstep!"
 78: 0x0240 [0x23] WAIT_FOR_DIALOG_INTERACTION
 79: 0x0241 [0x99] Wait for EventEntity animation to complete
 80: 0x0246 [0x03] Work_Zone[1] = 2*
 81: 0x024B [0x21] END_EVENT
 82: 0x024C [0x00] END_REQSTACK()

SUBROUTINE_0250:
 83: 0x0250 [0x01] GOTO 0x027A
 84: 0x0253 [0x02] IF !(Work_Zone[0] == 1*) GOTO 0x027A
 85: 0x025B [0x6E] EventEntity uses emote 19*
 86: 0x0262 [0x99] Wait for EventEntity animation to complete
 87: 0x0267 [0x1D] PRINT_EVENT_MESSAGE(message_id=14246*)
    → "Did I rrrub you the wrong way? Oh well, come back when you set your fur straight."
 88: 0x026A [0x23] WAIT_FOR_DIALOG_INTERACTION
 89: 0x026B [0x99] Wait for EventEntity animation to complete
 90: 0x0270 [0x03] Work_Zone[1] = 1*
 91: 0x0275 [0x21] END_EVENT
 92: 0x0276 [0x00] END_REQSTACK()

SUBROUTINE_027A:
 93: 0x027A [0x21] END_EVENT
 94: 0x027B [0x00] END_REQSTACK()
```

#### Data or dead code:

```
# Dead code (unreachable instructions):
     0x0174 [0x01] GOTO 0x0250
# Dead code (unreachable instructions):
     0x024D [0x01] GOTO 0x0250
# Dead code (unreachable instructions):
     0x0277 [0x01] GOTO 0x027A
```

### Event 973

#### Metadata

| Field        | Value     |
|--------------|-----------|
| Entrypoint   | 0x027C    |
| Data Size    | 189 bytes |
| Instructions | 39        |

```
      00 01 02 03 04 05 06 07  08 09 0A 0B 0C 0D 0E 0F
      -- -- -- -- -- -- -- --  -- -- -- -- -- -- -- --
0270:                                      1E F0 FF FF              ....
0280: 7F 6F 76 F0 FF FF 7F 66  01 80 F8 FF FF 7F F8 FF  .ov....f........
0290: FF 7F 74 6C 6B 30 1D 1E  80 23 24 1F 80 0C 80 00  ..tlk0...#$.....
02A0: 80 25 02 00 10 00 80 00  1D 03 13 00 00 0D 80 02  .%..............
02B0: 00 00 00 80 80 BD 02 93  0E 80 01 F5 02 02 00 00  ................
02C0: 0C 80 80 CB 02 93 0F 80  01 F5 02 02 00 00 10 80  ................
02D0: 80 D9 02 93 11 80 01 F5  02 02 00 00 12 80 80 E7  ................
02E0: 02 93 13 80 01 F5 02 02  00 00 0D 80 80 F5 02 93  ................
02F0: 14 80 01 F5 02 66 01 80  F8 FF FF 7F F8 FF FF 7F  .....f..........
0300: 74 6C 6B 31 66 01 80 F8  FF FF 7F F8 FF FF 7F 70  tlk1f..........p
0310: 61 73 30 1D 20 80 23 93  00 80 01 1D 03 6E F8 FF  as0. .#......n..
0320: FF 7F 17 80 99 F8 FF FF  7F 1D 21 80 23 99 F8 FF  ..........!.#...
0330: FF 7F 03 01 10 00 80 21  00                       .......!.       
```

#### Opcodes

```
  0: 0x027C [0x1E] EventEntity looks at LocalPlayer and starts talking
  1: 0x0281 [0x6F] WAIT_FRAME_DELAY: Yield until WaitTime reaches zero
  2: 0x0282 [0x76] CHECK_ENTITY_RENDER_FLAGS: Wait until LocalPlayer Render.Flags0 and Render.Flags3 conditions are met
  3: 0x0287 [0x66] LOAD_EXT_SCHEDULER_MAIN: Load scheduler "tlk0" with entities [EventEntity, EventEntity], work=50*
  4: 0x0296 [0x1D] PRINT_EVENT_MESSAGE(message_id=14288*)
    → "What do you want frrrom me?"
  5: 0x0299 [0x23] WAIT_FOR_DIALOG_INTERACTION
  6: 0x029A [0x24] CREATE_DIALOG(message_id=14289*, default_option=1*, option_flags=0*)
    → "What do you want from her? [Show me what can be salvaged!/Nothing whatsoever.]"
  7: 0x02A1 [0x25] WAIT_DIALOG_SELECT()
  8: 0x02A2 [0x02] IF !(Work_Zone[0] == 0*) GOTO 0x031D
  9: 0x02AA [0x13] ExtData[1]->WorkLocal[0] = rand() % 4*
 10: 0x02AF [0x02] IF !(ExtData[1]->WorkLocal[0] == 0*) GOTO 0x02BD
 11: 0x02B7 [0x93] DISPLAY_ITEM_INFO(item_id=3880*)
 12: 0x02BA [0x01] GOTO 0x02F5
 13: 0x02BD [0x02] IF !(ExtData[1]->WorkLocal[0] == 1*) GOTO 0x02CB
 14: 0x02C5 [0x93] DISPLAY_ITEM_INFO(item_id=3881*)
 15: 0x02C8 [0x01] GOTO 0x02F5
 16: 0x02CB [0x02] IF !(ExtData[1]->WorkLocal[0] == 2*) GOTO 0x02D9
 17: 0x02D3 [0x93] DISPLAY_ITEM_INFO(item_id=3882*)
 18: 0x02D6 [0x01] GOTO 0x02F5
 19: 0x02D9 [0x02] IF !(ExtData[1]->WorkLocal[0] == 3*) GOTO 0x02E7
 20: 0x02E1 [0x93] DISPLAY_ITEM_INFO(item_id=3883*)
 21: 0x02E4 [0x01] GOTO 0x02F5
 22: 0x02E7 [0x02] IF !(ExtData[1]->WorkLocal[0] == 4*) GOTO 0x02F5
 23: 0x02EF [0x93] DISPLAY_ITEM_INFO(item_id=3884*)
 24: 0x02F2 [0x01] GOTO 0x02F5

SUBROUTINE_02F5:
 25: 0x02F5 [0x66] LOAD_EXT_SCHEDULER_MAIN: Load scheduler "tlk1" with entities [EventEntity, EventEntity], work=50*
 26: 0x0304 [0x66] LOAD_EXT_SCHEDULER_MAIN: Load scheduler "pas0" with entities [EventEntity, EventEntity], work=50*
 27: 0x0313 [0x1D] PRINT_EVENT_MESSAGE(message_id=14290*)
    → "You can find these thrrroughout the four remnants. Don't forrrget about the equipment they can modify, either."
 28: 0x0316 [0x23] WAIT_FOR_DIALOG_INTERACTION
 29: 0x0317 [0x93] DISPLAY_ITEM_INFO(item_id=0*)
 30: 0x031A [0x01] GOTO 0x031D

SUBROUTINE_031D:
 31: 0x031D [0x6E] EventEntity uses emote 8*
 32: 0x0324 [0x99] Wait for EventEntity animation to complete
 33: 0x0329 [0x1D] PRINT_EVENT_MESSAGE(message_id=14287*)
    → "Don't keep me waiting for too long, lover[boy/girl]. And I know my precious <Player> would never betrrray me, but don't go to Ghanraam if you like your head attached to your neck!"
 34: 0x032C [0x23] WAIT_FOR_DIALOG_INTERACTION
 35: 0x032D [0x99] Wait for EventEntity animation to complete
 36: 0x0332 [0x03] Work_Zone[1] = 0*
 37: 0x0337 [0x21] END_EVENT
 38: 0x0338 [0x00] END_REQSTACK()
```

### Event 974

#### Metadata

| Field        | Value     |
|--------------|-----------|
| Entrypoint   | 0x0339    |
| Data Size    | 121 bytes |
| Instructions | 22        |

```
      00 01 02 03 04 05 06 07  08 09 0A 0B 0C 0D 0E 0F
      -- -- -- -- -- -- -- --  -- -- -- -- -- -- -- --
0330:                             1E F0 FF FF 7F 6F 76           .....ov
0340: F0 FF FF 7F 6E F8 FF FF  7F 06 80 99 F8 FF FF 7F  ....n...........
0350: 1D 22 80 23 99 F8 FF FF  7F 24 23 80 00 80 00 80  .".#.....$#.....
0360: 25 02 00 10 00 80 00 89  03 42 6E F8 FF FF 7F 06  %........Bn.....
0370: 80 99 F8 FF FF 7F 1D 24  80 23 99 F8 FF FF 7F 03  .......$.#......
0380: 01 10 25 80 21 00 01 B0  03 02 00 10 0C 80 00 B0  ..%.!...........
0390: 03 6E F8 FF FF 7F 1C 80  99 F8 FF FF 7F 1D 26 80  .n............&.
03A0: 23 99 F8 FF FF 7F 03 01  10 12 80 21 00 01 B0 03  #..........!....
03B0: 21 00                                             !.              
```

#### Opcodes

```
  0: 0x0339 [0x1E] EventEntity looks at LocalPlayer and starts talking
  1: 0x033E [0x6F] WAIT_FRAME_DELAY: Yield until WaitTime reaches zero
  2: 0x033F [0x76] CHECK_ENTITY_RENDER_FLAGS: Wait until LocalPlayer Render.Flags0 and Render.Flags3 conditions are met
  3: 0x0344 [0x6E] EventEntity uses emote 11*
  4: 0x034B [0x99] Wait for EventEntity animation to complete
  5: 0x0350 [0x1D] PRINT_EVENT_MESSAGE(message_id=14258*)
    → "You brrrought one! I always knew you had a killer instinct. Now, how about I keep it warm for you?"
  6: 0x0353 [0x23] WAIT_FOR_DIALOG_INTERACTION
  7: 0x0354 [0x99] Wait for EventEntity animation to complete
  8: 0x0359 [0x24] CREATE_DIALOG(message_id=14259*, default_option=0*, option_flags=0*)
    → "Hand it over? [Might as well./I'd rather not.]"
  9: 0x0360 [0x25] WAIT_DIALOG_SELECT()
 10: 0x0361 [0x02] IF !(Work_Zone[0] == 0*) GOTO 0x0389
 11: 0x0369 [0x42] SET_CLI_EVENT_CANCEL_DATA()
 12: 0x036A [0x6E] EventEntity uses emote 11*
 13: 0x0371 [0x99] Wait for EventEntity animation to complete
 14: 0x0376 [0x1D] PRINT_EVENT_MESSAGE(message_id=14260*)
    → "Thanks! I'll make sure to keep it in purrrfect condition for you!"
 15: 0x0379 [0x23] WAIT_FOR_DIALOG_INTERACTION
 16: 0x037A [0x99] Wait for EventEntity animation to complete
 17: 0x037F [0x03] Work_Zone[1] = 10*
 18: 0x0384 [0x21] END_EVENT
 19: 0x0385 [0x00] END_REQSTACK()

SUBROUTINE_03B0:
 20: 0x03B0 [0x21] END_EVENT
 21: 0x03B1 [0x00] END_REQSTACK()
```

#### Data or dead code:

```
# Dead code (unreachable instructions):
     0x0386 [0x01] GOTO 0x03B0
     0x03AD [0x01] GOTO 0x03B0
```

### Event 975

#### Metadata

| Field        | Value    |
|--------------|----------|
| Entrypoint   | 0x03B2   |
| Data Size    | 28 bytes |
| Instructions | 10       |

```
      00 01 02 03 04 05 06 07  08 09 0A 0B 0C 0D 0E 0F
      -- -- -- -- -- -- -- --  -- -- -- -- -- -- -- --
03B0:       42 03 00 00 02 10  1E F0 FF FF 7F 6F 76 F0    B..........ov.
03C0: FF FF 7F 1D 27 80 23 03  01 10 00 80 21 00        ....'.#.....!.  
```

#### Opcodes

```
  0: 0x03B2 [0x42] SET_CLI_EVENT_CANCEL_DATA()
  1: 0x03B3 [0x03] ExtData[1]->WorkLocal[0] = Work_Zone[2]
  2: 0x03B8 [0x1E] EventEntity looks at LocalPlayer and starts talking
  3: 0x03BD [0x6F] WAIT_FRAME_DELAY: Yield until WaitTime reaches zero
  4: 0x03BE [0x76] CHECK_ENTITY_RENDER_FLAGS: Wait until LocalPlayer Render.Flags0 and Render.Flags3 conditions are met
  5: 0x03C3 [0x1D] PRINT_EVENT_MESSAGE(message_id=14262*)
    → "$1 more $0 for me--er, you? Alrrright then."
  6: 0x03C6 [0x23] WAIT_FOR_DIALOG_INTERACTION
  7: 0x03C7 [0x03] Work_Zone[1] = 0*
  8: 0x03CC [0x21] END_EVENT
  9: 0x03CD [0x00] END_REQSTACK()
```

### Event 970

#### Metadata

| Field        | Value     |
|--------------|-----------|
| Entrypoint   | 0x03CE    |
| Data Size    | 223 bytes |
| Instructions | 37        |

```
      00 01 02 03 04 05 06 07  08 09 0A 0B 0C 0D 0E 0F
      -- -- -- -- -- -- -- --  -- -- -- -- -- -- -- --
03C0:                                            1E F0                ..
03D0: FF FF 7F 6F 76 F0 FF FF  7F 02 09 10 00 80 00 06  ...ov...........
03E0: 04 66 01 80 F8 FF FF 7F  F8 FF FF 7F 74 6C 6B 30  .f..........tlk0
03F0: 1D 28 80 23 66 01 80 F8  FF FF 7F F8 FF FF 7F 74  .(.#f..........t
0400: 6C 6B 31 01 28 04 66 01  80 F8 FF FF 7F F8 FF FF  lk1.(.f.........
0410: 7F 74 6C 6B 30 1D 29 80  23 66 01 80 F8 FF FF 7F  .tlk0.).#f......
0420: F8 FF FF 7F 74 6C 6B 31  24 2A 80 00 80 00 80 25  ....tlk1$*.....%
0430: 02 00 10 00 80 00 84 04  42 6E F8 FF FF 7F 06 80  ........Bn......
0440: 99 F8 FF FF 7F 66 01 80  F8 FF FF 7F F8 FF FF 7F  .....f..........
0450: 74 6C 6B 30 1D 2B 80 23  99 F8 FF FF 7F 1D 2C 80  tlk0.+.#......,.
0460: 23 1D 2D 80 23 6E F8 FF  FF 7F 17 80 99 F8 FF FF  #.-.#n..........
0470: 7F 1D 2E 80 23 99 F8 FF  FF 7F 03 01 10 2F 80 21  ....#......../.!
0480: 00 01 AB 04 02 00 10 0C  80 00 AB 04 6E F8 FF FF  ............n...
0490: 7F 1C 80 99 F8 FF FF 7F  1D 1D 80 23 99 F8 FF FF  ...........#....
04A0: 7F 03 01 10 0D 80 21 00  01 AB 04 21 00           ......!....!.   
```

#### Opcodes

```
  0: 0x03CE [0x1E] EventEntity looks at LocalPlayer and starts talking
  1: 0x03D3 [0x6F] WAIT_FRAME_DELAY: Yield until WaitTime reaches zero
  2: 0x03D4 [0x76] CHECK_ENTITY_RENDER_FLAGS: Wait until LocalPlayer Render.Flags0 and Render.Flags3 conditions are met
  3: 0x03D9 [0x02] IF !(Work_Zone[9] == 0*) GOTO 0x0406
  4: 0x03E1 [0x66] LOAD_EXT_SCHEDULER_MAIN: Load scheduler "tlk0" with entities [EventEntity, EventEntity], work=50*
  5: 0x03F0 [0x1D] PRINT_EVENT_MESSAGE(message_id=14264*)
    → "My, my, my, look what the cat dragged in. I'd be happy to rrreconstruct this for you...under one condition."
  6: 0x03F3 [0x23] WAIT_FOR_DIALOG_INTERACTION
  7: 0x03F4 [0x66] LOAD_EXT_SCHEDULER_MAIN: Load scheduler "tlk1" with entities [EventEntity, EventEntity], work=50*
  8: 0x0403 [0x01] GOTO 0x0428
  9: 0x0406 [0x66] LOAD_EXT_SCHEDULER_MAIN: Load scheduler "tlk0" with entities [EventEntity, EventEntity], work=50*
 10: 0x0415 [0x1D] PRINT_EVENT_MESSAGE(message_id=14265*)
    → "I prrromise I won't leave any marks...so what do you say?"
 11: 0x0418 [0x23] WAIT_FOR_DIALOG_INTERACTION
 12: 0x0419 [0x66] LOAD_EXT_SCHEDULER_MAIN: Load scheduler "tlk1" with entities [EventEntity, EventEntity], work=50*

SUBROUTINE_0428:
 13: 0x0428 [0x24] CREATE_DIALOG(message_id=14266*, default_option=0*, option_flags=0*)
    → "Agree to her terms? [I've no other choice./Never!]"
 14: 0x042F [0x25] WAIT_DIALOG_SELECT()
 15: 0x0430 [0x02] IF !(Work_Zone[0] == 0*) GOTO 0x0484
 16: 0x0438 [0x42] SET_CLI_EVENT_CANCEL_DATA()
 17: 0x0439 [0x6E] EventEntity uses emote 11*
 18: 0x0440 [0x99] Wait for EventEntity animation to complete
 19: 0x0445 [0x66] LOAD_EXT_SCHEDULER_MAIN: Load scheduler "tlk0" with entities [EventEntity, EventEntity], work=50*
 20: 0x0454 [0x1D] PRINT_EVENT_MESSAGE(message_id=14267*)
    → "Good kitty! Now, I'll need a few $0 to get this prrrocess started."
 21: 0x0457 [0x23] WAIT_FOR_DIALOG_INTERACTION
 22: 0x0458 [0x99] Wait for EventEntity animation to complete
 23: 0x045D [0x1D] PRINT_EVENT_MESSAGE(message_id=14268*)
    → "To rrrestore $1, you'll need to bring me $2 $0 . Oh, and I'll also be taking $4 $0$3 as compensation for my suffering. Got it?"
 24: 0x0460 [0x23] WAIT_FOR_DIALOG_INTERACTION
 25: 0x0461 [0x1D] PRINT_EVENT_MESSAGE(message_id=14269*)
    → "Also...you didn't happen to rrreceive anything from that scumbag Ghanraam, did you? Well, there's more than one way to skin a cat--if you did, things are going to get a little prrricey."
 26: 0x0464 [0x23] WAIT_FOR_DIALOG_INTERACTION
 27: 0x0465 [0x6E] EventEntity uses emote 8*
 28: 0x046C [0x99] Wait for EventEntity animation to complete
 29: 0x0471 [0x1D] PRINT_EVENT_MESSAGE(message_id=14270*)
    → "Don't go down without a fight! Oh, and can I have all your materrrials if you die?"
 30: 0x0474 [0x23] WAIT_FOR_DIALOG_INTERACTION
 31: 0x0475 [0x99] Wait for EventEntity animation to complete
 32: 0x047A [0x03] Work_Zone[1] = 5*
 33: 0x047F [0x21] END_EVENT
 34: 0x0480 [0x00] END_REQSTACK()

SUBROUTINE_04AB:
 35: 0x04AB [0x21] END_EVENT
 36: 0x04AC [0x00] END_REQSTACK()
```

#### Data or dead code:

```
# Dead code (unreachable instructions):
     0x0481 [0x01] GOTO 0x04AB
     0x04A8 [0x01] GOTO 0x04AB
```

### Event 971

#### Metadata

| Field        | Value     |
|--------------|-----------|
| Entrypoint   | 0x04AD    |
| Data Size    | 153 bytes |
| Instructions | 31        |

```
      00 01 02 03 04 05 06 07  08 09 0A 0B 0C 0D 0E 0F
      -- -- -- -- -- -- -- --  -- -- -- -- -- -- -- --
04A0:                                         03 06 00               ...
04B0: 08 10 1E F0 FF FF 7F 6F  76 F0 FF FF 7F 93 02 10  .......ov.......
04C0: 1D 30 80 23 93 00 80 24  31 80 0C 80 00 80 25 02  .0.#...$1.....%.
04D0: 00 10 00 80 00 1D 05 42  6E F8 FF FF 7F 06 80 99  .......Bn.......
04E0: F8 FF FF 7F 1D 32 80 23  99 F8 FF FF 7F 1D 33 80  .....2.#......3.
04F0: 23 66 01 80 F8 FF FF 7F  F8 FF FF 7F 74 6C 6B 30  #f..........tlk0
0500: 02 06 00 00 80 00 0F 05  1D 34 80 23 01 13 05 1D  .........4.#....
0510: 35 80 23 03 01 10 36 80  21 00 01 44 05 02 00 10  5.#...6.!..D....
0520: 0C 80 00 44 05 6E F8 FF  FF 7F 1C 80 99 F8 FF FF  ...D.n..........
0530: 7F 1D 1D 80 23 99 F8 FF  FF 7F 03 01 10 0A 80 21  ....#..........!
0540: 00 01 44 05 21 00                                 ..D.!.          
```

#### Opcodes

```
  0: 0x04AD [0x03] ExtData[1]->WorkLocal[6] = Work_Zone[8]
  1: 0x04B2 [0x1E] EventEntity looks at LocalPlayer and starts talking
  2: 0x04B7 [0x6F] WAIT_FRAME_DELAY: Yield until WaitTime reaches zero
  3: 0x04B8 [0x76] CHECK_ENTITY_RENDER_FLAGS: Wait until LocalPlayer Render.Flags0 and Render.Flags3 conditions are met
  4: 0x04BD [0x93] DISPLAY_ITEM_INFO(item_id=Work_Zone[2])
  5: 0x04C0 [0x1D] PRINT_EVENT_MESSAGE(message_id=14273*)
    → "It's prrrobably not the cat's meow, but it's good enough, right?"
  6: 0x04C3 [0x23] WAIT_FOR_DIALOG_INTERACTION
  7: 0x04C4 [0x93] DISPLAY_ITEM_INFO(item_id=0*)
  8: 0x04C7 [0x24] CREATE_DIALOG(message_id=14274*, default_option=1*, option_flags=0*)
    → "Exchange items? [Yes./No.]"
  9: 0x04CE [0x25] WAIT_DIALOG_SELECT()
 10: 0x04CF [0x02] IF !(Work_Zone[0] == 0*) GOTO 0x051D
 11: 0x04D7 [0x42] SET_CLI_EVENT_CANCEL_DATA()
 12: 0x04D8 [0x6E] EventEntity uses emote 11*
 13: 0x04DF [0x99] Wait for EventEntity animation to complete
 14: 0x04E4 [0x1D] PRINT_EVENT_MESSAGE(message_id=14275*)
    → "Thanks!"
 15: 0x04E7 [0x23] WAIT_FOR_DIALOG_INTERACTION
 16: 0x04E8 [0x99] Wait for EventEntity animation to complete
 17: 0x04ED [0x1D] PRINT_EVENT_MESSAGE(message_id=14276*)
    → "Here's your rrreward, sugarpelt. I didn't want to keep you waiting, so I prrrepared one in advance."
 18: 0x04F0 [0x23] WAIT_FOR_DIALOG_INTERACTION
 19: 0x04F1 [0x66] LOAD_EXT_SCHEDULER_MAIN: Load scheduler "tlk0" with entities [EventEntity, EventEntity], work=50*
 20: 0x0500 [0x02] IF !(ExtData[1]->WorkLocal[6] == 0*) GOTO 0x050F
 21: 0x0508 [0x1D] PRINT_EVENT_MESSAGE(message_id=14277*)
    → "Brrring some more when you have the time!"
 22: 0x050B [0x23] WAIT_FOR_DIALOG_INTERACTION
 23: 0x050C [0x01] GOTO 0x0513
 24: 0x050F [0x1D] PRINT_EVENT_MESSAGE(message_id=14278*)
    → "Brrring some more when you have the time! (And don't you dare breathe a word of this to Ghanrrraam!)"
 25: 0x0512 [0x23] WAIT_FOR_DIALOG_INTERACTION

SUBROUTINE_0513:
 26: 0x0513 [0x03] Work_Zone[1] = 6*
 27: 0x0518 [0x21] END_EVENT
 28: 0x0519 [0x00] END_REQSTACK()

SUBROUTINE_0544:
 29: 0x0544 [0x21] END_EVENT
 30: 0x0545 [0x00] END_REQSTACK()
```

#### Data or dead code:

```
# Dead code (unreachable instructions):
     0x051A [0x01] GOTO 0x0544
     0x0541 [0x01] GOTO 0x0544
```

### Event 976

#### Metadata

| Field        | Value    |
|--------------|----------|
| Entrypoint   | 0x0546   |
| Data Size    | 39 bytes |
| Instructions | 11       |

```
      00 01 02 03 04 05 06 07  08 09 0A 0B 0C 0D 0E 0F
      -- -- -- -- -- -- -- --  -- -- -- -- -- -- -- --
0540:                   1E F0  FF FF 7F 6F 76 F0 FF FF        .....ov...
0550: 7F 6E F8 FF FF 7F 37 80  99 F8 FF FF 7F 1D 38 80  .n....7.......8.
0560: 23 99 F8 FF FF 7F 03 01  10 0A 80 21 00           #..........!.   
```

#### Opcodes

```
  0: 0x0546 [0x1E] EventEntity looks at LocalPlayer and starts talking
  1: 0x054B [0x6F] WAIT_FRAME_DELAY: Yield until WaitTime reaches zero
  2: 0x054C [0x76] CHECK_ENTITY_RENDER_FLAGS: Wait until LocalPlayer Render.Flags0 and Render.Flags3 conditions are met
  3: 0x0551 [0x6E] EventEntity uses emote 32*
  4: 0x0558 [0x99] Wait for EventEntity animation to complete
  5: 0x055D [0x1D] PRINT_EVENT_MESSAGE(message_id=14291*)
    → "Can't you count!? I said brrring me $1 $0! All the money and equipment in the world won't matter if you don't have the prrroper amount of $0!"
  6: 0x0560 [0x23] WAIT_FOR_DIALOG_INTERACTION
  7: 0x0561 [0x99] Wait for EventEntity animation to complete
  8: 0x0566 [0x03] Work_Zone[1] = 7*
  9: 0x056B [0x21] END_EVENT
 10: 0x056C [0x00] END_REQSTACK()
```

### Event 972

#### Metadata

| Field        | Value      |
|--------------|------------|
| Entrypoint   | 0x056D     |
| Data Size    | 4700 bytes |
| Instructions | 249        |

```
      00 01 02 03 04 05 06 07  08 09 0A 0B 0C 0D 0E 0F
      -- -- -- -- -- -- -- --  -- -- -- -- -- -- -- --
0560:                                         1E F0 FF               ...
0570: FF 7F 6F 76 F0 FF FF 7F  66 01 80 F8 FF FF 7F F8  ..ov....f.......
0580: FF FF 7F 74 6C 6B 30 1D  39 80 23 66 01 80 F8 FF  ...tlk0.9.#f....
0590: FF 7F F8 FF FF 7F 74 6C  6B 31 03 08 00 00 80 03  ......tlk1......
05A0: 00 00 02 10 03 09 00 00  80 02 00 00 00 80 80 B9  ................
05B0: 05 03 08 00 3A 80 01 D9  05 02 00 00 0C 80 80 C9  ....:...........
05C0: 05 03 08 00 00 80 01 D9  05 02 00 00 10 80 80 D9  ................
05D0: 05 03 08 00 0C 80 01 D9  05 24 3B 80 09 00 08 00  .........$;.....
05E0: 25 02 00 10 00 80 00 73  07 03 09 00 00 80 03 01  %......s........
05F0: 10 3C 80 43 00 43 01 03  08 00 08 10 24 3D 80 09  .<.C.C......$=..
0600: 00 08 00 25 02 00 10 00  80 00 42 06 03 01 10 3E  ...%......B....>
0610: 80 43 00 43 01 66 01 80  F8 FF FF 7F F8 FF FF 7F  .C.C.f..........
0620: 74 6C 6B 30 1D 3F 80 23  66 01 80 F8 FF FF 7F F8  tlk0.?.#f.......
0630: FF FF 7F 74 6C 6B 31 03  09 00 00 80 01 EE 05 01  ...tlk1.........
0640: 70 07 02 00 10 0C 80 00  80 06 03 01 10 40 80 43  p............@.C
0650: 00 43 01 66 01 80 F8 FF  FF 7F F8 FF FF 7F 74 6C  .C.f..........tl
0660: 6B 30 1D 3F 80 23 66 01  80 F8 FF FF 7F F8 FF FF  k0.?.#f.........
0670: 7F 74 6C 6B 31 03 09 00  0C 80 01 EE 05 01 70 07  .tlk1.........p.
0680: 02 00 10 10 80 00 BE 06  03 01 10 41 80 43 00 43  ...........A.C.C
0690: 01 66 01 80 F8 FF FF 7F  F8 FF FF 7F 74 6C 6B 30  .f..........tlk0
06A0: 1D 3F 80 23 66 01 80 F8  FF FF 7F F8 FF FF 7F 74  .?.#f..........t
06B0: 6C 6B 31 03 09 00 10 80  01 EE 05 01 70 07 02 00  lk1.........p...
06C0: 10 12 80 00 FC 06 03 01  10 42 80 43 00 43 01 66  .........B.C.C.f
06D0: 01 80 F8 FF FF 7F F8 FF  FF 7F 74 6C 6B 30 1D 3F  ..........tlk0.?
06E0: 80 23 66 01 80 F8 FF FF  7F F8 FF FF 7F 74 6C 6B  .#f..........tlk
06F0: 31 03 09 00 12 80 01 EE  05 01 70 07 02 00 10 0D  1.........p.....
0700: 80 00 3A 07 03 01 10 43  80 43 00 43 01 66 01 80  ..:....C.C.C.f..
0710: F8 FF FF 7F F8 FF FF 7F  74 6C 6B 30 1D 3F 80 23  ........tlk0.?.#
0720: 66 01 80 F8 FF FF 7F F8  FF FF 7F 74 6C 6B 31 03  f..........tlk1.
0730: 09 00 0D 80 01 EE 05 01  70 07 02 00 10 2F 80 00  ........p..../..
0740: 52 07 03 09 00 00 80 03  01 10 00 80 01 A9 05 01  R...............
0750: 70 07 02 00 10 36 80 00  70 07 02 00 00 00 80 00  p....6..p.......
0760: 66 07 1D 44 80 23 03 01  10 00 80 21 00 01 70 07  f..D.#.....!..p.
0770: 01 C7 17 02 00 10 0C 80  00 12 09 03 09 00 00 80  ................
0780: 03 01 10 45 80 43 00 43  01 24 46 80 09 00 00 80  ...E.C.C.$F.....
0790: 25 02 00 10 00 80 00 D5  07 03 01 10 47 80 43 00  %...........G.C.
07A0: 43 01 93 09 10 66 01 80  F8 FF FF 7F F8 FF FF 7F  C....f..........
07B0: 74 6C 6B 30 1D 48 80 23  66 01 80 F8 FF FF 7F F8  tlk0.H.#f.......
07C0: FF FF 7F 74 6C 6B 31 93  00 80 03 09 00 00 80 01  ...tlk1.........
07D0: 80 07 01 0F 09 02 00 10  0C 80 00 19 08 03 01 10  ................
07E0: 49 80 43 00 43 01 93 09  10 66 01 80 F8 FF FF 7F  I.C.C....f......
07F0: F8 FF FF 7F 74 6C 6B 30  1D 48 80 23 66 01 80 F8  ....tlk0.H.#f...
0800: FF FF 7F F8 FF FF 7F 74  6C 6B 31 93 00 80 03 09  .......tlk1.....
0810: 00 0C 80 01 80 07 01 0F  09 02 00 10 10 80 00 5D  ...............]
0820: 08 03 01 10 4A 80 43 00  43 01 93 09 10 66 01 80  ....J.C.C....f..
0830: F8 FF FF 7F F8 FF FF 7F  74 6C 6B 30 1D 48 80 23  ........tlk0.H.#
0840: 66 01 80 F8 FF FF 7F F8  FF FF 7F 74 6C 6B 31 93  f..........tlk1.
0850: 00 80 03 09 00 10 80 01  80 07 01 0F 09 02 00 10  ................
0860: 12 80 00 A1 08 03 01 10  4B 80 43 00 43 01 93 09  ........K.C.C...
0870: 10 66 01 80 F8 FF FF 7F  F8 FF FF 7F 74 6C 6B 30  .f..........tlk0
0880: 1D 48 80 23 66 01 80 F8  FF FF 7F F8 FF FF 7F 74  .H.#f..........t
0890: 6C 6B 31 93 00 80 03 09  00 12 80 01 80 07 01 0F  lk1.............
08A0: 09 02 00 10 0D 80 00 E5  08 03 01 10 4C 80 43 00  ............L.C.
08B0: 43 01 93 09 10 66 01 80  F8 FF FF 7F F8 FF FF 7F  C....f..........
08C0: 74 6C 6B 30 1D 48 80 23  66 01 80 F8 FF FF 7F F8  tlk0.H.#f.......
08D0: FF FF 7F 74 6C 6B 31 93  00 80 03 09 00 0D 80 01  ...tlk1.........
08E0: 80 07 01 0F 09 02 00 10  2F 80 00 FD 08 03 09 00  ......../.......
08F0: 0C 80 03 01 10 00 80 01  A9 05 01 0F 09 02 00 10  ................
0900: 36 80 00 0F 09 03 01 10  00 80 21 00 01 0F 09 01  6.........!.....
0910: C7 17 02 00 10 10 80 00  B1 0A 03 09 00 00 80 03  ................
0920: 01 10 37 80 43 00 43 01  24 46 80 09 00 00 80 25  ..7.C.C.$F.....%
0930: 02 00 10 00 80 00 74 09  03 01 10 4D 80 43 00 43  ......t....M.C.C
0940: 01 93 09 10 66 01 80 F8  FF FF 7F F8 FF FF 7F 74  ....f..........t
0950: 6C 6B 30 1D 48 80 23 66  01 80 F8 FF FF 7F F8 FF  lk0.H.#f........
0960: FF 7F 74 6C 6B 31 93 00  80 03 09 00 00 80 01 1F  ..tlk1..........
0970: 09 01 AE 0A 02 00 10 0C  80 00 B8 09 03 01 10 4E  ...............N
0980: 80 43 00 43 01 93 09 10  66 01 80 F8 FF FF 7F F8  .C.C....f.......
0990: FF FF 7F 74 6C 6B 30 1D  48 80 23 66 01 80 F8 FF  ...tlk0.H.#f....
09A0: FF 7F F8 FF FF 7F 74 6C  6B 31 93 00 80 03 09 00  ......tlk1......
09B0: 0C 80 01 1F 09 01 AE 0A  02 00 10 10 80 00 FC 09  ................
09C0: 03 01 10 4F 80 43 00 43  01 93 09 10 66 01 80 F8  ...O.C.C....f...
09D0: FF FF 7F F8 FF FF 7F 74  6C 6B 30 1D 48 80 23 66  .......tlk0.H.#f
09E0: 01 80 F8 FF FF 7F F8 FF  FF 7F 74 6C 6B 31 93 00  ..........tlk1..
09F0: 80 03 09 00 10 80 01 1F  09 01 AE 0A 02 00 10 12  ................
0A00: 80 00 40 0A 03 01 10 50  80 43 00 43 01 93 09 10  ..@....P.C.C....
0A10: 66 01 80 F8 FF FF 7F F8  FF FF 7F 74 6C 6B 30 1D  f..........tlk0.
0A20: 48 80 23 66 01 80 F8 FF  FF 7F F8 FF FF 7F 74 6C  H.#f..........tl
0A30: 6B 31 93 00 80 03 09 00  12 80 01 1F 09 01 AE 0A  k1..............
0A40: 02 00 10 0D 80 00 84 0A  03 01 10 51 80 43 00 43  ...........Q.C.C
0A50: 01 93 09 10 66 01 80 F8  FF FF 7F F8 FF FF 7F 74  ....f..........t
0A60: 6C 6B 30 1D 48 80 23 66  01 80 F8 FF FF 7F F8 FF  lk0.H.#f........
0A70: FF 7F 74 6C 6B 31 93 00  80 03 09 00 0D 80 01 1F  ..tlk1..........
0A80: 09 01 AE 0A 02 00 10 2F  80 00 9C 0A 03 09 00 10  ......./........
0A90: 80 03 01 10 00 80 01 A9  05 01 AE 0A 02 00 10 36  ...............6
0AA0: 80 00 AE 0A 03 01 10 00  80 21 00 01 AE 0A 01 C7  .........!......
0AB0: 17 02 00 10 12 80 00 50  0C 03 09 00 00 80 03 01  .......P........
0AC0: 10 52 80 43 00 43 01 24  46 80 09 00 00 80 25 02  .R.C.C.$F.....%.
0AD0: 00 10 00 80 00 13 0B 03  01 10 53 80 43 00 43 01  ..........S.C.C.
0AE0: 93 09 10 66 01 80 F8 FF  FF 7F F8 FF FF 7F 74 6C  ...f..........tl
0AF0: 6B 30 1D 48 80 23 66 01  80 F8 FF FF 7F F8 FF FF  k0.H.#f.........
0B00: 7F 74 6C 6B 31 93 00 80  03 09 00 00 80 01 BE 0A  .tlk1...........
0B10: 01 4D 0C 02 00 10 0C 80  00 57 0B 03 01 10 54 80  .M.......W....T.
0B20: 43 00 43 01 93 09 10 66  01 80 F8 FF FF 7F F8 FF  C.C....f........
0B30: FF 7F 74 6C 6B 30 1D 48  80 23 66 01 80 F8 FF FF  ..tlk0.H.#f.....
0B40: 7F F8 FF FF 7F 74 6C 6B  31 93 00 80 03 09 00 0C  .....tlk1.......
0B50: 80 01 BE 0A 01 4D 0C 02  00 10 10 80 00 9B 0B 03  .....M..........
0B60: 01 10 55 80 43 00 43 01  93 09 10 66 01 80 F8 FF  ..U.C.C....f....
0B70: FF 7F F8 FF FF 7F 74 6C  6B 30 1D 48 80 23 66 01  ......tlk0.H.#f.
0B80: 80 F8 FF FF 7F F8 FF FF  7F 74 6C 6B 31 93 00 80  .........tlk1...
0B90: 03 09 00 10 80 01 BE 0A  01 4D 0C 02 00 10 12 80  .........M......
0BA0: 00 DF 0B 03 01 10 56 80  43 00 43 01 93 09 10 66  ......V.C.C....f
0BB0: 01 80 F8 FF FF 7F F8 FF  FF 7F 74 6C 6B 30 1D 48  ..........tlk0.H
0BC0: 80 23 66 01 80 F8 FF FF  7F F8 FF FF 7F 74 6C 6B  .#f..........tlk
0BD0: 31 93 00 80 03 09 00 12  80 01 BE 0A 01 4D 0C 02  1............M..
0BE0: 00 10 0D 80 00 23 0C 03  01 10 57 80 43 00 43 01  .....#....W.C.C.
0BF0: 93 09 10 66 01 80 F8 FF  FF 7F F8 FF FF 7F 74 6C  ...f..........tl
0C00: 6B 30 1D 48 80 23 66 01  80 F8 FF FF 7F F8 FF FF  k0.H.#f.........
0C10: 7F 74 6C 6B 31 93 00 80  03 09 00 0D 80 01 BE 0A  .tlk1...........
0C20: 01 4D 0C 02 00 10 2F 80  00 3B 0C 03 09 00 12 80  .M..../..;......
0C30: 03 01 10 00 80 01 A9 05  01 4D 0C 02 00 10 36 80  .........M....6.
0C40: 00 4D 0C 03 01 10 00 80  21 00 01 4D 0C 01 C7 17  .M......!..M....
0C50: 02 00 10 0D 80 00 EF 0D  03 09 00 00 80 03 01 10  ................
0C60: 58 80 43 00 43 01 24 46  80 09 00 00 80 25 02 00  X.C.C.$F.....%..
0C70: 10 00 80 00 B2 0C 03 01  10 59 80 43 00 43 01 93  .........Y.C.C..
0C80: 09 10 66 01 80 F8 FF FF  7F F8 FF FF 7F 74 6C 6B  ..f..........tlk
0C90: 30 1D 48 80 23 66 01 80  F8 FF FF 7F F8 FF FF 7F  0.H.#f..........
0CA0: 74 6C 6B 31 93 00 80 03  09 00 00 80 01 5D 0C 01  tlk1.........]..
0CB0: EC 0D 02 00 10 0C 80 00  F6 0C 03 01 10 5A 80 43  .............Z.C
0CC0: 00 43 01 93 09 10 66 01  80 F8 FF FF 7F F8 FF FF  .C....f.........
0CD0: 7F 74 6C 6B 30 1D 48 80  23 66 01 80 F8 FF FF 7F  .tlk0.H.#f......
0CE0: F8 FF FF 7F 74 6C 6B 31  93 00 80 03 09 00 0C 80  ....tlk1........
0CF0: 01 5D 0C 01 EC 0D 02 00  10 10 80 00 3A 0D 03 01  .]..........:...
0D00: 10 5B 80 43 00 43 01 93  09 10 66 01 80 F8 FF FF  .[.C.C....f.....
0D10: 7F F8 FF FF 7F 74 6C 6B  30 1D 48 80 23 66 01 80  .....tlk0.H.#f..
0D20: F8 FF FF 7F F8 FF FF 7F  74 6C 6B 31 93 00 80 03  ........tlk1....
0D30: 09 00 10 80 01 5D 0C 01  EC 0D 02 00 10 12 80 00  .....]..........
0D40: 7E 0D 03 01 10 5C 80 43  00 43 01 93 09 10 66 01  ~....\.C.C....f.
0D50: 80 F8 FF FF 7F F8 FF FF  7F 74 6C 6B 30 1D 48 80  .........tlk0.H.
0D60: 23 66 01 80 F8 FF FF 7F  F8 FF FF 7F 74 6C 6B 31  #f..........tlk1
0D70: 93 00 80 03 09 00 12 80  01 5D 0C 01 EC 0D 02 00  .........]......
0D80: 10 0D 80 00 C2 0D 03 01  10 5D 80 43 00 43 01 93  .........].C.C..
0D90: 09 10 66 01 80 F8 FF FF  7F F8 FF FF 7F 74 6C 6B  ..f..........tlk
0DA0: 30 1D 48 80 23 66 01 80  F8 FF FF 7F F8 FF FF 7F  0.H.#f..........
0DB0: 74 6C 6B 31 93 00 80 03  09 00 0D 80 01 5D 0C 01  tlk1.........]..
0DC0: EC 0D 02 00 10 2F 80 00  DA 0D 03 09 00 0D 80 03  ...../..........
0DD0: 01 10 00 80 01 A9 05 01  EC 0D 02 00 10 36 80 00  .............6..
0DE0: EC 0D 03 01 10 00 80 21  00 01 EC 0D 01 C7 17 02  .......!........
0DF0: 00 10 2F 80 00 8E 0F 03  09 00 00 80 03 01 10 5E  ../............^
0E00: 80 43 00 43 01 24 46 80  09 00 00 80 25 02 00 10  .C.C.$F.....%...
0E10: 00 80 00 51 0E 03 01 10  5F 80 43 00 43 01 93 09  ...Q...._.C.C...
0E20: 10 66 01 80 F8 FF FF 7F  F8 FF FF 7F 74 6C 6B 30  .f..........tlk0
0E30: 1D 48 80 23 66 01 80 F8  FF FF 7F F8 FF FF 7F 74  .H.#f..........t
0E40: 6C 6B 31 93 00 80 03 09  00 00 80 01 FC 0D 01 8B  lk1.............
0E50: 0F 02 00 10 0C 80 00 95  0E 03 01 10 60 80 43 00  ............`.C.
0E60: 43 01 93 09 10 66 01 80  F8 FF FF 7F F8 FF FF 7F  C....f..........
0E70: 74 6C 6B 30 1D 48 80 23  66 01 80 F8 FF FF 7F F8  tlk0.H.#f.......
0E80: FF FF 7F 74 6C 6B 31 93  00 80 03 09 00 0C 80 01  ...tlk1.........
0E90: FC 0D 01 8B 0F 02 00 10  10 80 00 D9 0E 03 01 10  ................
0EA0: 61 80 43 00 43 01 93 09  10 66 01 80 F8 FF FF 7F  a.C.C....f......
0EB0: F8 FF FF 7F 74 6C 6B 30  1D 48 80 23 66 01 80 F8  ....tlk0.H.#f...
0EC0: FF FF 7F F8 FF FF 7F 74  6C 6B 31 93 00 80 03 09  .......tlk1.....
0ED0: 00 10 80 01 FC 0D 01 8B  0F 02 00 10 12 80 00 1D  ................
0EE0: 0F 03 01 10 62 80 43 00  43 01 93 09 10 66 01 80  ....b.C.C....f..
0EF0: F8 FF FF 7F F8 FF FF 7F  74 6C 6B 30 1D 48 80 23  ........tlk0.H.#
0F00: 66 01 80 F8 FF FF 7F F8  FF FF 7F 74 6C 6B 31 93  f..........tlk1.
0F10: 00 80 03 09 00 12 80 01  FC 0D 01 8B 0F 02 00 10  ................
0F20: 0D 80 00 61 0F 03 01 10  63 80 43 00 43 01 93 09  ...a....c.C.C...
0F30: 10 66 01 80 F8 FF FF 7F  F8 FF FF 7F 74 6C 6B 30  .f..........tlk0
0F40: 1D 48 80 23 66 01 80 F8  FF FF 7F F8 FF FF 7F 74  .H.#f..........t
0F50: 6C 6B 31 93 00 80 03 09  00 0D 80 01 FC 0D 01 8B  lk1.............
0F60: 0F 02 00 10 2F 80 00 79  0F 03 09 00 2F 80 03 01  ..../..y..../...
0F70: 10 00 80 01 A9 05 01 8B  0F 02 00 10 36 80 00 8B  ............6...
0F80: 0F 03 01 10 00 80 21 00  01 8B 0F 01 C7 17 02 00  ......!.........
0F90: 10 36 80 00 2D 11 03 09  00 00 80 03 01 10 64 80  .6..-.........d.
0FA0: 43 00 43 01 24 46 80 09  00 00 80 25 02 00 10 00  C.C.$F.....%....
0FB0: 80 00 F0 0F 03 01 10 65  80 43 00 43 01 93 09 10  .......e.C.C....
0FC0: 66 01 80 F8 FF FF 7F F8  FF FF 7F 74 6C 6B 30 1D  f..........tlk0.
0FD0: 66 80 23 66 01 80 F8 FF  FF 7F F8 FF FF 7F 74 6C  f.#f..........tl
0FE0: 6B 31 93 00 80 03 09 00  00 80 01 9B 0F 01 2A 11  k1............*.
0FF0: 02 00 10 0C 80 00 34 10  03 01 10 67 80 43 00 43  ......4....g.C.C
1000: 01 93 09 10 66 01 80 F8  FF FF 7F F8 FF FF 7F 74  ....f..........t
1010: 6C 6B 30 1D 66 80 23 66  01 80 F8 FF FF 7F F8 FF  lk0.f.#f........
1020: FF 7F 74 6C 6B 31 93 00  80 03 09 00 0C 80 01 9B  ..tlk1..........
1030: 0F 01 2A 11 02 00 10 10  80 00 78 10 03 01 10 68  ..*.......x....h
1040: 80 43 00 43 01 93 09 10  66 01 80 F8 FF FF 7F F8  .C.C....f.......
1050: FF FF 7F 74 6C 6B 30 1D  66 80 23 66 01 80 F8 FF  ...tlk0.f.#f....
1060: FF 7F F8 FF FF 7F 74 6C  6B 31 93 00 80 03 09 00  ......tlk1......
1070: 10 80 01 9B 0F 01 2A 11  02 00 10 12 80 00 BC 10  ......*.........
1080: 03 01 10 69 80 43 00 43  01 93 09 10 66 01 80 F8  ...i.C.C....f...
1090: FF FF 7F F8 FF FF 7F 74  6C 6B 30 1D 66 80 23 66  .......tlk0.f.#f
10A0: 01 80 F8 FF FF 7F F8 FF  FF 7F 74 6C 6B 31 93 00  ..........tlk1..
10B0: 80 03 09 00 12 80 01 9B  0F 01 2A 11 02 00 10 0D  ..........*.....
10C0: 80 00 00 11 03 01 10 6A  80 43 00 43 01 93 09 10  .......j.C.C....
10D0: 66 01 80 F8 FF FF 7F F8  FF FF 7F 74 6C 6B 30 1D  f..........tlk0.
10E0: 66 80 23 66 01 80 F8 FF  FF 7F F8 FF FF 7F 74 6C  f.#f..........tl
10F0: 6B 31 93 00 80 03 09 00  0D 80 01 9B 0F 01 2A 11  k1............*.
1100: 02 00 10 2F 80 00 18 11  03 09 00 36 80 03 01 10  .../.......6....
1110: 00 80 01 A9 05 01 2A 11  02 00 10 36 80 00 2A 11  ......*....6..*.
1120: 03 01 10 00 80 21 00 01  2A 11 01 C7 17 02 00 10  .....!..*.......
1130: 0A 80 00 CC 12 03 09 00  00 80 03 01 10 6B 80 43  .............k.C
1140: 00 43 01 24 46 80 09 00  00 80 25 02 00 10 00 80  .C.$F.....%.....
1150: 00 8F 11 03 01 10 6C 80  43 00 43 01 93 09 10 66  ......l.C.C....f
1160: 01 80 F8 FF FF 7F F8 FF  FF 7F 74 6C 6B 30 1D 66  ..........tlk0.f
1170: 80 23 66 01 80 F8 FF FF  7F F8 FF FF 7F 74 6C 6B  .#f..........tlk
1180: 31 93 00 80 03 09 00 00  80 01 3A 11 01 C9 12 02  1.........:.....
1190: 00 10 0C 80 00 D3 11 03  01 10 6D 80 43 00 43 01  ..........m.C.C.
11A0: 93 09 10 66 01 80 F8 FF  FF 7F F8 FF FF 7F 74 6C  ...f..........tl
11B0: 6B 30 1D 66 80 23 66 01  80 F8 FF FF 7F F8 FF FF  k0.f.#f.........
11C0: 7F 74 6C 6B 31 93 00 80  03 09 00 0C 80 01 3A 11  .tlk1.........:.
11D0: 01 C9 12 02 00 10 10 80  00 17 12 03 01 10 6E 80  ..............n.
11E0: 43 00 43 01 93 09 10 66  01 80 F8 FF FF 7F F8 FF  C.C....f........
11F0: FF 7F 74 6C 6B 30 1D 66  80 23 66 01 80 F8 FF FF  ..tlk0.f.#f.....
1200: 7F F8 FF FF 7F 74 6C 6B  31 93 00 80 03 09 00 10  .....tlk1.......
1210: 80 01 3A 11 01 C9 12 02  00 10 12 80 00 5B 12 03  ..:..........[..
1220: 01 10 6F 80 43 00 43 01  93 09 10 66 01 80 F8 FF  ..o.C.C....f....
1230: FF 7F F8 FF FF 7F 74 6C  6B 30 1D 66 80 23 66 01  ......tlk0.f.#f.
1240: 80 F8 FF FF 7F F8 FF FF  7F 74 6C 6B 31 93 00 80  .........tlk1...
1250: 03 09 00 12 80 01 3A 11  01 C9 12 02 00 10 0D 80  ......:.........
1260: 00 9F 12 03 01 10 70 80  43 00 43 01 93 09 10 66  ......p.C.C....f
1270: 01 80 F8 FF FF 7F F8 FF  FF 7F 74 6C 6B 30 1D 66  ..........tlk0.f
1280: 80 23 66 01 80 F8 FF FF  7F F8 FF FF 7F 74 6C 6B  .#f..........tlk
1290: 31 93 00 80 03 09 00 0D  80 01 3A 11 01 C9 12 02  1.........:.....
12A0: 00 10 2F 80 00 B7 12 03  09 00 0A 80 03 01 10 00  ../.............
12B0: 80 01 A9 05 01 C9 12 02  00 10 36 80 00 C9 12 03  ..........6.....
12C0: 01 10 00 80 21 00 01 C9  12 01 C7 17 02 00 10 17  ....!...........
12D0: 80 00 6B 14 03 09 00 00  80 03 01 10 71 80 43 00  ..k.........q.C.
12E0: 43 01 24 46 80 09 00 00  80 25 02 00 10 00 80 00  C.$F.....%......
12F0: 2E 13 03 01 10 72 80 43  00 43 01 93 09 10 66 01  .....r.C.C....f.
1300: 80 F8 FF FF 7F F8 FF FF  7F 74 6C 6B 30 1D 66 80  .........tlk0.f.
1310: 23 66 01 80 F8 FF FF 7F  F8 FF FF 7F 74 6C 6B 31  #f..........tlk1
1320: 93 00 80 03 09 00 00 80  01 D9 12 01 68 14 02 00  ............h...
1330: 10 0C 80 00 72 13 03 01  10 73 80 43 00 43 01 93  ....r....s.C.C..
1340: 09 10 66 01 80 F8 FF FF  7F F8 FF FF 7F 74 6C 6B  ..f..........tlk
1350: 30 1D 66 80 23 66 01 80  F8 FF FF 7F F8 FF FF 7F  0.f.#f..........
1360: 74 6C 6B 31 93 00 80 03  09 00 0C 80 01 D9 12 01  tlk1............
1370: 68 14 02 00 10 10 80 00  B6 13 03 01 10 74 80 43  h............t.C
1380: 00 43 01 93 09 10 66 01  80 F8 FF FF 7F F8 FF FF  .C....f.........
1390: 7F 74 6C 6B 30 1D 66 80  23 66 01 80 F8 FF FF 7F  .tlk0.f.#f......
13A0: F8 FF FF 7F 74 6C 6B 31  93 00 80 03 09 00 10 80  ....tlk1........
13B0: 01 D9 12 01 68 14 02 00  10 12 80 00 FA 13 03 01  ....h...........
13C0: 10 75 80 43 00 43 01 93  09 10 66 01 80 F8 FF FF  .u.C.C....f.....
13D0: 7F F8 FF FF 7F 74 6C 6B  30 1D 66 80 23 66 01 80  .....tlk0.f.#f..
13E0: F8 FF FF 7F F8 FF FF 7F  74 6C 6B 31 93 00 80 03  ........tlk1....
13F0: 09 00 12 80 01 D9 12 01  68 14 02 00 10 0D 80 00  ........h.......
1400: 3E 14 03 01 10 76 80 43  00 43 01 93 09 10 66 01  >....v.C.C....f.
1410: 80 F8 FF FF 7F F8 FF FF  7F 74 6C 6B 30 1D 66 80  .........tlk0.f.
1420: 23 66 01 80 F8 FF FF 7F  F8 FF FF 7F 74 6C 6B 31  #f..........tlk1
1430: 93 00 80 03 09 00 0D 80  01 D9 12 01 68 14 02 00  ............h...
1440: 10 2F 80 00 56 14 03 09  00 17 80 03 01 10 00 80  ./..V...........
1450: 01 A9 05 01 68 14 02 00  10 36 80 00 68 14 03 01  ....h....6..h...
1460: 10 00 80 21 00 01 68 14  01 C7 17 02 00 10 77 80  ...!..h.......w.
1470: 00 0A 16 03 09 00 00 80  03 01 10 78 80 43 00 43  ...........x.C.C
1480: 01 24 46 80 09 00 00 80  25 02 00 10 00 80 00 CD  .$F.....%.......
1490: 14 03 01 10 79 80 43 00  43 01 93 09 10 66 01 80  ....y.C.C....f..
14A0: F8 FF FF 7F F8 FF FF 7F  74 6C 6B 30 1D 66 80 23  ........tlk0.f.#
14B0: 66 01 80 F8 FF FF 7F F8  FF FF 7F 74 6C 6B 31 93  f..........tlk1.
14C0: 00 80 03 09 00 00 80 01  78 14 01 07 16 02 00 10  ........x.......
14D0: 0C 80 00 11 15 03 01 10  7A 80 43 00 43 01 93 09  ........z.C.C...
14E0: 10 66 01 80 F8 FF FF 7F  F8 FF FF 7F 74 6C 6B 30  .f..........tlk0
14F0: 1D 66 80 23 66 01 80 F8  FF FF 7F F8 FF FF 7F 74  .f.#f..........t
1500: 6C 6B 31 93 00 80 03 09  00 0C 80 01 78 14 01 07  lk1.........x...
1510: 16 02 00 10 10 80 00 55  15 03 01 10 7B 80 43 00  .......U....{.C.
1520: 43 01 93 09 10 66 01 80  F8 FF FF 7F F8 FF FF 7F  C....f..........
1530: 74 6C 6B 30 1D 66 80 23  66 01 80 F8 FF FF 7F F8  tlk0.f.#f.......
1540: FF FF 7F 74 6C 6B 31 93  00 80 03 09 00 10 80 01  ...tlk1.........
1550: 78 14 01 07 16 02 00 10  12 80 00 99 15 03 01 10  x...............
1560: 7C 80 43 00 43 01 93 09  10 66 01 80 F8 FF FF 7F  |.C.C....f......
1570: F8 FF FF 7F 74 6C 6B 30  1D 66 80 23 66 01 80 F8  ....tlk0.f.#f...
1580: FF FF 7F F8 FF FF 7F 74  6C 6B 31 93 00 80 03 09  .......tlk1.....
1590: 00 12 80 01 78 14 01 07  16 02 00 10 0D 80 00 DD  ....x...........
15A0: 15 03 01 10 7D 80 43 00  43 01 93 09 10 66 01 80  ....}.C.C....f..
15B0: F8 FF FF 7F F8 FF FF 7F  74 6C 6B 30 1D 66 80 23  ........tlk0.f.#
15C0: 66 01 80 F8 FF FF 7F F8  FF FF 7F 74 6C 6B 31 93  f..........tlk1.
15D0: 00 80 03 09 00 0D 80 01  78 14 01 07 16 02 00 10  ........x.......
15E0: 2F 80 00 F5 15 03 09 00  77 80 03 01 10 00 80 01  /.......w.......
15F0: A9 05 01 07 16 02 00 10  36 80 00 07 16 03 01 10  ........6.......
1600: 00 80 21 00 01 07 16 01  C7 17 02 00 10 25 80 00  ..!..........%..
1610: A9 17 03 09 00 00 80 03  01 10 7E 80 43 00 43 01  ..........~.C.C.
1620: 24 46 80 09 00 00 80 25  02 00 10 00 80 00 6C 16  $F.....%......l.
1630: 03 01 10 7F 80 43 00 43  01 93 09 10 66 01 80 F8  .....C.C....f...
1640: FF FF 7F F8 FF FF 7F 74  6C 6B 30 1D 66 80 23 66  .......tlk0.f.#f
1650: 01 80 F8 FF FF 7F F8 FF  FF 7F 74 6C 6B 31 93 00  ..........tlk1..
1660: 80 03 09 00 00 80 01 17  16 01 A6 17 02 00 10 0C  ................
1670: 80 00 B0 16 03 01 10 80  80 43 00 43 01 93 09 10  .........C.C....
1680: 66 01 80 F8 FF FF 7F F8  FF FF 7F 74 6C 6B 30 1D  f..........tlk0.
1690: 66 80 23 66 01 80 F8 FF  FF 7F F8 FF FF 7F 74 6C  f.#f..........tl
16A0: 6B 31 93 00 80 03 09 00  0C 80 01 17 16 01 A6 17  k1..............
16B0: 02 00 10 10 80 00 F4 16  03 01 10 81 80 43 00 43  .............C.C
16C0: 01 93 09 10 66 01 80 F8  FF FF 7F F8 FF FF 7F 74  ....f..........t
16D0: 6C 6B 30 1D 66 80 23 66  01 80 F8 FF FF 7F F8 FF  lk0.f.#f........
16E0: FF 7F 74 6C 6B 31 93 00  80 03 09 00 10 80 01 17  ..tlk1..........
16F0: 16 01 A6 17 02 00 10 12  80 00 38 17 03 01 10 82  ..........8.....
1700: 80 43 00 43 01 93 09 10  66 01 80 F8 FF FF 7F F8  .C.C....f.......
1710: FF FF 7F 74 6C 6B 30 1D  66 80 23 66 01 80 F8 FF  ...tlk0.f.#f....
1720: FF 7F F8 FF FF 7F 74 6C  6B 31 93 00 80 03 09 00  ......tlk1......
1730: 12 80 01 17 16 01 A6 17  02 00 10 0D 80 00 7C 17  ..............|.
1740: 03 01 10 83 80 43 00 43  01 93 09 10 66 01 80 F8  .....C.C....f...
1750: FF FF 7F F8 FF FF 7F 74  6C 6B 30 1D 66 80 23 66  .......tlk0.f.#f
1760: 01 80 F8 FF FF 7F F8 FF  FF 7F 74 6C 6B 31 93 00  ..........tlk1..
1770: 80 03 09 00 0D 80 01 17  16 01 A6 17 02 00 10 2F  .............../
1780: 80 00 94 17 03 09 00 25  80 03 01 10 00 80 01 A9  .......%........
1790: 05 01 A6 17 02 00 10 36  80 00 A6 17 03 01 10 00  .......6........
17A0: 80 21 00 01 A6 17 01 C7  17 02 00 10 06 80 00 C7  .!..............
17B0: 17 02 00 00 00 80 00 BD  17 1D 44 80 23 03 01 10  ..........D.#...
17C0: 00 80 21 00 01 C7 17 21  00                       ..!....!.       
```

#### Opcodes

```
  0: 0x056D [0x1E] EventEntity looks at LocalPlayer and starts talking
  1: 0x0572 [0x6F] WAIT_FRAME_DELAY: Yield until WaitTime reaches zero
  2: 0x0573 [0x76] CHECK_ENTITY_RENDER_FLAGS: Wait until LocalPlayer Render.Flags0 and Render.Flags3 conditions are met
  3: 0x0578 [0x66] LOAD_EXT_SCHEDULER_MAIN: Load scheduler "tlk0" with entities [EventEntity, EventEntity], work=50*
  4: 0x0587 [0x1D] PRINT_EVENT_MESSAGE(message_id=14280*)
    → "They say that knowledge is power, so how about I overrrpower you with some knowledge, precious paws?"
  5: 0x058A [0x23] WAIT_FOR_DIALOG_INTERACTION
  6: 0x058B [0x66] LOAD_EXT_SCHEDULER_MAIN: Load scheduler "tlk1" with entities [EventEntity, EventEntity], work=50*
  7: 0x059A [0x03] ExtData[1]->WorkLocal[8] = 0*
  8: 0x059F [0x03] ExtData[1]->WorkLocal[0] = Work_Zone[2]
  9: 0x05A4 [0x03] ExtData[1]->WorkLocal[9] = 0*
 10: 0x05A9 [0x02] IF !(ExtData[1]->WorkLocal[0] == 0*) GOTO 0x05B9
 11: 0x05B1 [0x03] ExtData[1]->WorkLocal[8] = 2046*
 12: 0x05B6 [0x01] GOTO 0x05D9
 13: 0x05B9 [0x02] IF !(ExtData[1]->WorkLocal[0] == 1*) GOTO 0x05C9
 14: 0x05C1 [0x03] ExtData[1]->WorkLocal[8] = 0*
 15: 0x05C6 [0x01] GOTO 0x05D9
 16: 0x05C9 [0x02] IF !(ExtData[1]->WorkLocal[0] == 2*) GOTO 0x05D9
 17: 0x05D1 [0x03] ExtData[1]->WorkLocal[8] = 1*
 18: 0x05D6 [0x01] GOTO 0x05D9

SUBROUTINE_05D9:
 19: 0x05D9 [0x24] CREATE_DIALOG(message_id=14281*, default_option=ExtData[1]->WorkLocal[9], option_flags=ExtData[1]->WorkLocal[8])
    → "About what do you wish to know? [Plan stock numbers./Ker armor./Sigyn armor./Omodaka armor./Nabu armor./Fea armor./Ares +1 armor./Skadi +1 armor./Usukane +1 armor./Marduk +1 armor./Morrigan +1 armor./Nothing.]"
 20: 0x05E0 [0x25] WAIT_DIALOG_SELECT()
 21: 0x05E1 [0x02] IF !(Work_Zone[0] == 0*) GOTO 0x0773
 22: 0x05E9 [0x03] ExtData[1]->WorkLocal[9] = 0*

SUBROUTINE_05EE:
 23: 0x05EE [0x03] Work_Zone[1] = 25*
 24: 0x05F3 [0x43] SEND_EVENT_UPDATE: Send pending tag to server (packet 0x005B)
 25: 0x05F5 [0x43] SEND_EVENT_UPDATE: Check pending flag (skip if not pending)
 26: 0x05F7 [0x03] ExtData[1]->WorkLocal[8] = Work_Zone[8]
 27: 0x05FC [0x24] CREATE_DIALOG(message_id=14283*, default_option=ExtData[1]->WorkLocal[9], option_flags=ExtData[1]->WorkLocal[8])
    → "What do you want to check? [%./$1./$2./$3./$4./None of these./None, I'm done.]"
 28: 0x0603 [0x25] WAIT_DIALOG_SELECT()
 29: 0x0604 [0x02] IF !(Work_Zone[0] == 0*) GOTO 0x0642
 30: 0x060C [0x03] Work_Zone[1] = 20*
 31: 0x0611 [0x43] SEND_EVENT_UPDATE: Send pending tag to server (packet 0x005B)
 32: 0x0613 [0x43] SEND_EVENT_UPDATE: Check pending flag (skip if not pending)
 33: 0x0615 [0x66] LOAD_EXT_SCHEDULER_MAIN: Load scheduler "tlk0" with entities [EventEntity, EventEntity], work=50*
 34: 0x0624 [0x1D] PRINT_EVENT_MESSAGE(message_id=14284*)
    → "I've got my paws on $1 $0 ."
 35: 0x0627 [0x23] WAIT_FOR_DIALOG_INTERACTION
 36: 0x0628 [0x66] LOAD_EXT_SCHEDULER_MAIN: Load scheduler "tlk1" with entities [EventEntity, EventEntity], work=50*
 37: 0x0637 [0x03] ExtData[1]->WorkLocal[9] = 0*
 38: 0x063C [0x01] GOTO 0x05EE

SUBROUTINE_0770:
 39: 0x0770 [0x01] GOTO 0x17C7
 40: 0x0773 [0x02] IF !(Work_Zone[0] == 1*) GOTO 0x0912
 41: 0x077B [0x03] ExtData[1]->WorkLocal[9] = 0*

SUBROUTINE_0780:
 42: 0x0780 [0x03] Work_Zone[1] = 31*
 43: 0x0785 [0x43] SEND_EVENT_UPDATE: Send pending tag to server (packet 0x005B)
 44: 0x0787 [0x43] SEND_EVENT_UPDATE: Check pending flag (skip if not pending)
 45: 0x0789 [0x24] CREATE_DIALOG(message_id=14282*, default_option=ExtData[1]->WorkLocal[9], option_flags=0*)
    → "Which parts? [#./$1./$2./$3./$4./None of these./None, I'm done.]"
 46: 0x0790 [0x25] WAIT_DIALOG_SELECT()
 47: 0x0791 [0x02] IF !(Work_Zone[0] == 0*) GOTO 0x07D5
 48: 0x0799 [0x03] Work_Zone[1] = 125*
 49: 0x079E [0x43] SEND_EVENT_UPDATE: Send pending tag to server (packet 0x005B)
 50: 0x07A0 [0x43] SEND_EVENT_UPDATE: Check pending flag (skip if not pending)
 51: 0x07A2 [0x93] DISPLAY_ITEM_INFO(item_id=Work_Zone[9])
 52: 0x07A5 [0x66] LOAD_EXT_SCHEDULER_MAIN: Load scheduler "tlk0" with entities [EventEntity, EventEntity], work=50*
 53: 0x07B4 [0x1D] PRINT_EVENT_MESSAGE(message_id=14285*)
    → "For this, I rrrequire...$0 and $2 $0$0 . Also, I'll need $4 $0$3 as compensation for my suffering."
 54: 0x07B7 [0x23] WAIT_FOR_DIALOG_INTERACTION
 55: 0x07B8 [0x66] LOAD_EXT_SCHEDULER_MAIN: Load scheduler "tlk1" with entities [EventEntity, EventEntity], work=50*
 56: 0x07C7 [0x93] DISPLAY_ITEM_INFO(item_id=0*)
 57: 0x07CA [0x03] ExtData[1]->WorkLocal[9] = 0*
 58: 0x07CF [0x01] GOTO 0x0780

SUBROUTINE_090F:
 59: 0x090F [0x01] GOTO 0x17C7
 60: 0x0912 [0x02] IF !(Work_Zone[0] == 2*) GOTO 0x0AB1
 61: 0x091A [0x03] ExtData[1]->WorkLocal[9] = 0*

SUBROUTINE_091F:
 62: 0x091F [0x03] Work_Zone[1] = 32*
 63: 0x0924 [0x43] SEND_EVENT_UPDATE: Send pending tag to server (packet 0x005B)
 64: 0x0926 [0x43] SEND_EVENT_UPDATE: Check pending flag (skip if not pending)
 65: 0x0928 [0x24] CREATE_DIALOG(message_id=14282*, default_option=ExtData[1]->WorkLocal[9], option_flags=0*)
    → "Which parts? [#./$1./$2./$3./$4./None of these./None, I'm done.]"
 66: 0x092F [0x25] WAIT_DIALOG_SELECT()
 67: 0x0930 [0x02] IF !(Work_Zone[0] == 0*) GOTO 0x0974
 68: 0x0938 [0x03] Work_Zone[1] = 130*
 69: 0x093D [0x43] SEND_EVENT_UPDATE: Send pending tag to server (packet 0x005B)
 70: 0x093F [0x43] SEND_EVENT_UPDATE: Check pending flag (skip if not pending)
 71: 0x0941 [0x93] DISPLAY_ITEM_INFO(item_id=Work_Zone[9])
 72: 0x0944 [0x66] LOAD_EXT_SCHEDULER_MAIN: Load scheduler "tlk0" with entities [EventEntity, EventEntity], work=50*
 73: 0x0953 [0x1D] PRINT_EVENT_MESSAGE(message_id=14285*)
    → "For this, I rrrequire...$0 and $2 $0$0 . Also, I'll need $4 $0$3 as compensation for my suffering."
 74: 0x0956 [0x23] WAIT_FOR_DIALOG_INTERACTION
 75: 0x0957 [0x66] LOAD_EXT_SCHEDULER_MAIN: Load scheduler "tlk1" with entities [EventEntity, EventEntity], work=50*
 76: 0x0966 [0x93] DISPLAY_ITEM_INFO(item_id=0*)
 77: 0x0969 [0x03] ExtData[1]->WorkLocal[9] = 0*
 78: 0x096E [0x01] GOTO 0x091F

SUBROUTINE_0AAE:
 79: 0x0AAE [0x01] GOTO 0x17C7
 80: 0x0AB1 [0x02] IF !(Work_Zone[0] == 3*) GOTO 0x0C50
 81: 0x0AB9 [0x03] ExtData[1]->WorkLocal[9] = 0*

SUBROUTINE_0ABE:
 82: 0x0ABE [0x03] Work_Zone[1] = 33*
 83: 0x0AC3 [0x43] SEND_EVENT_UPDATE: Send pending tag to server (packet 0x005B)
 84: 0x0AC5 [0x43] SEND_EVENT_UPDATE: Check pending flag (skip if not pending)
 85: 0x0AC7 [0x24] CREATE_DIALOG(message_id=14282*, default_option=ExtData[1]->WorkLocal[9], option_flags=0*)
    → "Which parts? [#./$1./$2./$3./$4./None of these./None, I'm done.]"
 86: 0x0ACE [0x25] WAIT_DIALOG_SELECT()
 87: 0x0ACF [0x02] IF !(Work_Zone[0] == 0*) GOTO 0x0B13
 88: 0x0AD7 [0x03] Work_Zone[1] = 135*
 89: 0x0ADC [0x43] SEND_EVENT_UPDATE: Send pending tag to server (packet 0x005B)
 90: 0x0ADE [0x43] SEND_EVENT_UPDATE: Check pending flag (skip if not pending)
 91: 0x0AE0 [0x93] DISPLAY_ITEM_INFO(item_id=Work_Zone[9])
 92: 0x0AE3 [0x66] LOAD_EXT_SCHEDULER_MAIN: Load scheduler "tlk0" with entities [EventEntity, EventEntity], work=50*
 93: 0x0AF2 [0x1D] PRINT_EVENT_MESSAGE(message_id=14285*)
    → "For this, I rrrequire...$0 and $2 $0$0 . Also, I'll need $4 $0$3 as compensation for my suffering."
 94: 0x0AF5 [0x23] WAIT_FOR_DIALOG_INTERACTION
 95: 0x0AF6 [0x66] LOAD_EXT_SCHEDULER_MAIN: Load scheduler "tlk1" with entities [EventEntity, EventEntity], work=50*
 96: 0x0B05 [0x93] DISPLAY_ITEM_INFO(item_id=0*)
 97: 0x0B08 [0x03] ExtData[1]->WorkLocal[9] = 0*
 98: 0x0B0D [0x01] GOTO 0x0ABE

SUBROUTINE_0C4D:
 99: 0x0C4D [0x01] GOTO 0x17C7
100: 0x0C50 [0x02] IF !(Work_Zone[0] == 4*) GOTO 0x0DEF
101: 0x0C58 [0x03] ExtData[1]->WorkLocal[9] = 0*

SUBROUTINE_0C5D:
102: 0x0C5D [0x03] Work_Zone[1] = 34*
103: 0x0C62 [0x43] SEND_EVENT_UPDATE: Send pending tag to server (packet 0x005B)
104: 0x0C64 [0x43] SEND_EVENT_UPDATE: Check pending flag (skip if not pending)
105: 0x0C66 [0x24] CREATE_DIALOG(message_id=14282*, default_option=ExtData[1]->WorkLocal[9], option_flags=0*)
    → "Which parts? [#./$1./$2./$3./$4./None of these./None, I'm done.]"
106: 0x0C6D [0x25] WAIT_DIALOG_SELECT()
107: 0x0C6E [0x02] IF !(Work_Zone[0] == 0*) GOTO 0x0CB2
108: 0x0C76 [0x03] Work_Zone[1] = 140*
109: 0x0C7B [0x43] SEND_EVENT_UPDATE: Send pending tag to server (packet 0x005B)
110: 0x0C7D [0x43] SEND_EVENT_UPDATE: Check pending flag (skip if not pending)
111: 0x0C7F [0x93] DISPLAY_ITEM_INFO(item_id=Work_Zone[9])
112: 0x0C82 [0x66] LOAD_EXT_SCHEDULER_MAIN: Load scheduler "tlk0" with entities [EventEntity, EventEntity], work=50*
113: 0x0C91 [0x1D] PRINT_EVENT_MESSAGE(message_id=14285*)
    → "For this, I rrrequire...$0 and $2 $0$0 . Also, I'll need $4 $0$3 as compensation for my suffering."
114: 0x0C94 [0x23] WAIT_FOR_DIALOG_INTERACTION
115: 0x0C95 [0x66] LOAD_EXT_SCHEDULER_MAIN: Load scheduler "tlk1" with entities [EventEntity, EventEntity], work=50*
116: 0x0CA4 [0x93] DISPLAY_ITEM_INFO(item_id=0*)
117: 0x0CA7 [0x03] ExtData[1]->WorkLocal[9] = 0*
118: 0x0CAC [0x01] GOTO 0x0C5D

SUBROUTINE_0DEC:
119: 0x0DEC [0x01] GOTO 0x17C7
120: 0x0DEF [0x02] IF !(Work_Zone[0] == 5*) GOTO 0x0F8E
121: 0x0DF7 [0x03] ExtData[1]->WorkLocal[9] = 0*

SUBROUTINE_0DFC:
122: 0x0DFC [0x03] Work_Zone[1] = 35*
123: 0x0E01 [0x43] SEND_EVENT_UPDATE: Send pending tag to server (packet 0x005B)
124: 0x0E03 [0x43] SEND_EVENT_UPDATE: Check pending flag (skip if not pending)
125: 0x0E05 [0x24] CREATE_DIALOG(message_id=14282*, default_option=ExtData[1]->WorkLocal[9], option_flags=0*)
    → "Which parts? [#./$1./$2./$3./$4./None of these./None, I'm done.]"
126: 0x0E0C [0x25] WAIT_DIALOG_SELECT()
127: 0x0E0D [0x02] IF !(Work_Zone[0] == 0*) GOTO 0x0E51
128: 0x0E15 [0x03] Work_Zone[1] = 145*
129: 0x0E1A [0x43] SEND_EVENT_UPDATE: Send pending tag to server (packet 0x005B)
130: 0x0E1C [0x43] SEND_EVENT_UPDATE: Check pending flag (skip if not pending)
131: 0x0E1E [0x93] DISPLAY_ITEM_INFO(item_id=Work_Zone[9])
132: 0x0E21 [0x66] LOAD_EXT_SCHEDULER_MAIN: Load scheduler "tlk0" with entities [EventEntity, EventEntity], work=50*
133: 0x0E30 [0x1D] PRINT_EVENT_MESSAGE(message_id=14285*)
    → "For this, I rrrequire...$0 and $2 $0$0 . Also, I'll need $4 $0$3 as compensation for my suffering."
134: 0x0E33 [0x23] WAIT_FOR_DIALOG_INTERACTION
135: 0x0E34 [0x66] LOAD_EXT_SCHEDULER_MAIN: Load scheduler "tlk1" with entities [EventEntity, EventEntity], work=50*
136: 0x0E43 [0x93] DISPLAY_ITEM_INFO(item_id=0*)
137: 0x0E46 [0x03] ExtData[1]->WorkLocal[9] = 0*
138: 0x0E4B [0x01] GOTO 0x0DFC

SUBROUTINE_0F8B:
139: 0x0F8B [0x01] GOTO 0x17C7
140: 0x0F8E [0x02] IF !(Work_Zone[0] == 6*) GOTO 0x112D
141: 0x0F96 [0x03] ExtData[1]->WorkLocal[9] = 0*

SUBROUTINE_0F9B:
142: 0x0F9B [0x03] Work_Zone[1] = 26*
143: 0x0FA0 [0x43] SEND_EVENT_UPDATE: Send pending tag to server (packet 0x005B)
144: 0x0FA2 [0x43] SEND_EVENT_UPDATE: Check pending flag (skip if not pending)
145: 0x0FA4 [0x24] CREATE_DIALOG(message_id=14282*, default_option=ExtData[1]->WorkLocal[9], option_flags=0*)
    → "Which parts? [#./$1./$2./$3./$4./None of these./None, I'm done.]"
146: 0x0FAB [0x25] WAIT_DIALOG_SELECT()
147: 0x0FAC [0x02] IF !(Work_Zone[0] == 0*) GOTO 0x0FF0
148: 0x0FB4 [0x03] Work_Zone[1] = 100*
149: 0x0FB9 [0x43] SEND_EVENT_UPDATE: Send pending tag to server (packet 0x005B)
150: 0x0FBB [0x43] SEND_EVENT_UPDATE: Check pending flag (skip if not pending)
151: 0x0FBD [0x93] DISPLAY_ITEM_INFO(item_id=Work_Zone[9])
152: 0x0FC0 [0x66] LOAD_EXT_SCHEDULER_MAIN: Load scheduler "tlk0" with entities [EventEntity, EventEntity], work=50*
153: 0x0FCF [0x1D] PRINT_EVENT_MESSAGE(message_id=14286*)
    → "For this, I rrrequire...$0, $1, and $3 $0 . Also, I'll need $5 $0$4 as compensation for my suffering."
154: 0x0FD2 [0x23] WAIT_FOR_DIALOG_INTERACTION
155: 0x0FD3 [0x66] LOAD_EXT_SCHEDULER_MAIN: Load scheduler "tlk1" with entities [EventEntity, EventEntity], work=50*
156: 0x0FE2 [0x93] DISPLAY_ITEM_INFO(item_id=0*)
157: 0x0FE5 [0x03] ExtData[1]->WorkLocal[9] = 0*
158: 0x0FEA [0x01] GOTO 0x0F9B

SUBROUTINE_112A:
159: 0x112A [0x01] GOTO 0x17C7
160: 0x112D [0x02] IF !(Work_Zone[0] == 7*) GOTO 0x12CC
161: 0x1135 [0x03] ExtData[1]->WorkLocal[9] = 0*

SUBROUTINE_113A:
162: 0x113A [0x03] Work_Zone[1] = 27*
163: 0x113F [0x43] SEND_EVENT_UPDATE: Send pending tag to server (packet 0x005B)
164: 0x1141 [0x43] SEND_EVENT_UPDATE: Check pending flag (skip if not pending)
165: 0x1143 [0x24] CREATE_DIALOG(message_id=14282*, default_option=ExtData[1]->WorkLocal[9], option_flags=0*)
    → "Which parts? [#./$1./$2./$3./$4./None of these./None, I'm done.]"
166: 0x114A [0x25] WAIT_DIALOG_SELECT()
167: 0x114B [0x02] IF !(Work_Zone[0] == 0*) GOTO 0x118F
168: 0x1153 [0x03] Work_Zone[1] = 105*
169: 0x1158 [0x43] SEND_EVENT_UPDATE: Send pending tag to server (packet 0x005B)
170: 0x115A [0x43] SEND_EVENT_UPDATE: Check pending flag (skip if not pending)
171: 0x115C [0x93] DISPLAY_ITEM_INFO(item_id=Work_Zone[9])
172: 0x115F [0x66] LOAD_EXT_SCHEDULER_MAIN: Load scheduler "tlk0" with entities [EventEntity, EventEntity], work=50*
173: 0x116E [0x1D] PRINT_EVENT_MESSAGE(message_id=14286*)
    → "For this, I rrrequire...$0, $1, and $3 $0 . Also, I'll need $5 $0$4 as compensation for my suffering."
174: 0x1171 [0x23] WAIT_FOR_DIALOG_INTERACTION
175: 0x1172 [0x66] LOAD_EXT_SCHEDULER_MAIN: Load scheduler "tlk1" with entities [EventEntity, EventEntity], work=50*
176: 0x1181 [0x93] DISPLAY_ITEM_INFO(item_id=0*)
177: 0x1184 [0x03] ExtData[1]->WorkLocal[9] = 0*
178: 0x1189 [0x01] GOTO 0x113A

SUBROUTINE_12C9:
179: 0x12C9 [0x01] GOTO 0x17C7
180: 0x12CC [0x02] IF !(Work_Zone[0] == 8*) GOTO 0x146B
181: 0x12D4 [0x03] ExtData[1]->WorkLocal[9] = 0*

SUBROUTINE_12D9:
182: 0x12D9 [0x03] Work_Zone[1] = 28*
183: 0x12DE [0x43] SEND_EVENT_UPDATE: Send pending tag to server (packet 0x005B)
184: 0x12E0 [0x43] SEND_EVENT_UPDATE: Check pending flag (skip if not pending)
185: 0x12E2 [0x24] CREATE_DIALOG(message_id=14282*, default_option=ExtData[1]->WorkLocal[9], option_flags=0*)
    → "Which parts? [#./$1./$2./$3./$4./None of these./None, I'm done.]"
186: 0x12E9 [0x25] WAIT_DIALOG_SELECT()
187: 0x12EA [0x02] IF !(Work_Zone[0] == 0*) GOTO 0x132E
188: 0x12F2 [0x03] Work_Zone[1] = 110*
189: 0x12F7 [0x43] SEND_EVENT_UPDATE: Send pending tag to server (packet 0x005B)
190: 0x12F9 [0x43] SEND_EVENT_UPDATE: Check pending flag (skip if not pending)
191: 0x12FB [0x93] DISPLAY_ITEM_INFO(item_id=Work_Zone[9])
192: 0x12FE [0x66] LOAD_EXT_SCHEDULER_MAIN: Load scheduler "tlk0" with entities [EventEntity, EventEntity], work=50*
193: 0x130D [0x1D] PRINT_EVENT_MESSAGE(message_id=14286*)
    → "For this, I rrrequire...$0, $1, and $3 $0 . Also, I'll need $5 $0$4 as compensation for my suffering."
194: 0x1310 [0x23] WAIT_FOR_DIALOG_INTERACTION
195: 0x1311 [0x66] LOAD_EXT_SCHEDULER_MAIN: Load scheduler "tlk1" with entities [EventEntity, EventEntity], work=50*
196: 0x1320 [0x93] DISPLAY_ITEM_INFO(item_id=0*)
197: 0x1323 [0x03] ExtData[1]->WorkLocal[9] = 0*
198: 0x1328 [0x01] GOTO 0x12D9

SUBROUTINE_1468:
199: 0x1468 [0x01] GOTO 0x17C7
200: 0x146B [0x02] IF !(Work_Zone[0] == 9*) GOTO 0x160A
201: 0x1473 [0x03] ExtData[1]->WorkLocal[9] = 0*

SUBROUTINE_1478:
202: 0x1478 [0x03] Work_Zone[1] = 29*
203: 0x147D [0x43] SEND_EVENT_UPDATE: Send pending tag to server (packet 0x005B)
204: 0x147F [0x43] SEND_EVENT_UPDATE: Check pending flag (skip if not pending)
205: 0x1481 [0x24] CREATE_DIALOG(message_id=14282*, default_option=ExtData[1]->WorkLocal[9], option_flags=0*)
    → "Which parts? [#./$1./$2./$3./$4./None of these./None, I'm done.]"
206: 0x1488 [0x25] WAIT_DIALOG_SELECT()
207: 0x1489 [0x02] IF !(Work_Zone[0] == 0*) GOTO 0x14CD
208: 0x1491 [0x03] Work_Zone[1] = 115*
209: 0x1496 [0x43] SEND_EVENT_UPDATE: Send pending tag to server (packet 0x005B)
210: 0x1498 [0x43] SEND_EVENT_UPDATE: Check pending flag (skip if not pending)
211: 0x149A [0x93] DISPLAY_ITEM_INFO(item_id=Work_Zone[9])
212: 0x149D [0x66] LOAD_EXT_SCHEDULER_MAIN: Load scheduler "tlk0" with entities [EventEntity, EventEntity], work=50*
213: 0x14AC [0x1D] PRINT_EVENT_MESSAGE(message_id=14286*)
    → "For this, I rrrequire...$0, $1, and $3 $0 . Also, I'll need $5 $0$4 as compensation for my suffering."
214: 0x14AF [0x23] WAIT_FOR_DIALOG_INTERACTION
215: 0x14B0 [0x66] LOAD_EXT_SCHEDULER_MAIN: Load scheduler "tlk1" with entities [EventEntity, EventEntity], work=50*
216: 0x14BF [0x93] DISPLAY_ITEM_INFO(item_id=0*)
217: 0x14C2 [0x03] ExtData[1]->WorkLocal[9] = 0*
218: 0x14C7 [0x01] GOTO 0x1478

SUBROUTINE_1607:
219: 0x1607 [0x01] GOTO 0x17C7
220: 0x160A [0x02] IF !(Work_Zone[0] == 10*) GOTO 0x17A9
221: 0x1612 [0x03] ExtData[1]->WorkLocal[9] = 0*

SUBROUTINE_1617:
222: 0x1617 [0x03] Work_Zone[1] = 30*
223: 0x161C [0x43] SEND_EVENT_UPDATE: Send pending tag to server (packet 0x005B)
224: 0x161E [0x43] SEND_EVENT_UPDATE: Check pending flag (skip if not pending)
225: 0x1620 [0x24] CREATE_DIALOG(message_id=14282*, default_option=ExtData[1]->WorkLocal[9], option_flags=0*)
    → "Which parts? [#./$1./$2./$3./$4./None of these./None, I'm done.]"
226: 0x1627 [0x25] WAIT_DIALOG_SELECT()
227: 0x1628 [0x02] IF !(Work_Zone[0] == 0*) GOTO 0x166C
228: 0x1630 [0x03] Work_Zone[1] = 120*
229: 0x1635 [0x43] SEND_EVENT_UPDATE: Send pending tag to server (packet 0x005B)
230: 0x1637 [0x43] SEND_EVENT_UPDATE: Check pending flag (skip if not pending)
231: 0x1639 [0x93] DISPLAY_ITEM_INFO(item_id=Work_Zone[9])
232: 0x163C [0x66] LOAD_EXT_SCHEDULER_MAIN: Load scheduler "tlk0" with entities [EventEntity, EventEntity], work=50*
233: 0x164B [0x1D] PRINT_EVENT_MESSAGE(message_id=14286*)
    → "For this, I rrrequire...$0, $1, and $3 $0 . Also, I'll need $5 $0$4 as compensation for my suffering."
234: 0x164E [0x23] WAIT_FOR_DIALOG_INTERACTION
235: 0x164F [0x66] LOAD_EXT_SCHEDULER_MAIN: Load scheduler "tlk1" with entities [EventEntity, EventEntity], work=50*
236: 0x165E [0x93] DISPLAY_ITEM_INFO(item_id=0*)
237: 0x1661 [0x03] ExtData[1]->WorkLocal[9] = 0*
238: 0x1666 [0x01] GOTO 0x1617

SUBROUTINE_17A6:
239: 0x17A6 [0x01] GOTO 0x17C7
240: 0x17A9 [0x02] IF !(Work_Zone[0] == 11*) GOTO 0x17C7
241: 0x17B1 [0x02] IF !(ExtData[1]->WorkLocal[0] == 0*) GOTO 0x17BD
242: 0x17B9 [0x1D] PRINT_EVENT_MESSAGE(message_id=14292*)
    → "These plans are all grrreat and all, but where's the equipment with which to synthesize them?"
243: 0x17BC [0x23] WAIT_FOR_DIALOG_INTERACTION
244: 0x17BD [0x03] Work_Zone[1] = 0*
245: 0x17C2 [0x21] END_EVENT
246: 0x17C3 [0x00] END_REQSTACK()

SUBROUTINE_17C7:
247: 0x17C7 [0x21] END_EVENT
248: 0x17C8 [0x00] END_REQSTACK()
```

#### Data or dead code:

```
# Dead code (unreachable instructions):
     0x063F [0x01] GOTO 0x0770
     0x067D [0x01] GOTO 0x0770
     0x06BB [0x01] GOTO 0x0770
     0x06F9 [0x01] GOTO 0x0770
     0x0737 [0x01] GOTO 0x0770
     0x074F [0x01] GOTO 0x0770
     0x076D [0x01] GOTO 0x0770
# Dead code (unreachable instructions):
     0x07D2 [0x01] GOTO 0x090F
     0x0816 [0x01] GOTO 0x090F
     0x085A [0x01] GOTO 0x090F
     0x089E [0x01] GOTO 0x090F
     0x08E2 [0x01] GOTO 0x090F
     0x08FA [0x01] GOTO 0x090F
     0x090C [0x01] GOTO 0x090F
# Dead code (unreachable instructions):
     0x0971 [0x01] GOTO 0x0AAE
     0x09B5 [0x01] GOTO 0x0AAE
     0x09F9 [0x01] GOTO 0x0AAE
     0x0A3D [0x01] GOTO 0x0AAE
     0x0A81 [0x01] GOTO 0x0AAE
     0x0A99 [0x01] GOTO 0x0AAE
     0x0AAB [0x01] GOTO 0x0AAE
# Dead code (unreachable instructions):
     0x0B10 [0x01] GOTO 0x0C4D
     0x0B54 [0x01] GOTO 0x0C4D
     0x0B98 [0x01] GOTO 0x0C4D
     0x0BDC [0x01] GOTO 0x0C4D
     0x0C20 [0x01] GOTO 0x0C4D
     0x0C38 [0x01] GOTO 0x0C4D
     0x0C4A [0x01] GOTO 0x0C4D
# Dead code (unreachable instructions):
     0x0CAF [0x01] GOTO 0x0DEC
     0x0CF3 [0x01] GOTO 0x0DEC
     0x0D37 [0x01] GOTO 0x0DEC
     0x0D7B [0x01] GOTO 0x0DEC
     0x0DBF [0x01] GOTO 0x0DEC
     0x0DD7 [0x01] GOTO 0x0DEC
     0x0DE9 [0x01] GOTO 0x0DEC
# Dead code (unreachable instructions):
     0x0E4E [0x01] GOTO 0x0F8B
     0x0E92 [0x01] GOTO 0x0F8B
     0x0ED6 [0x01] GOTO 0x0F8B
     0x0F1A [0x01] GOTO 0x0F8B
     0x0F5E [0x01] GOTO 0x0F8B
     0x0F76 [0x01] GOTO 0x0F8B
     0x0F88 [0x01] GOTO 0x0F8B
# Dead code (unreachable instructions):
     0x0FED [0x01] GOTO 0x112A
     0x1031 [0x01] GOTO 0x112A
     0x1075 [0x01] GOTO 0x112A
     0x10B9 [0x01] GOTO 0x112A
     0x10FD [0x01] GOTO 0x112A
     0x1115 [0x01] GOTO 0x112A
     0x1127 [0x01] GOTO 0x112A
# Dead code (unreachable instructions):
     0x118C [0x01] GOTO 0x12C9
     0x11D0 [0x01] GOTO 0x12C9
     0x1214 [0x01] GOTO 0x12C9
     0x1258 [0x01] GOTO 0x12C9
     0x129C [0x01] GOTO 0x12C9
     0x12B4 [0x01] GOTO 0x12C9
     0x12C6 [0x01] GOTO 0x12C9
# Dead code (unreachable instructions):
     0x132B [0x01] GOTO 0x1468
     0x136F [0x01] GOTO 0x1468
     0x13B3 [0x01] GOTO 0x1468
     0x13F7 [0x01] GOTO 0x1468
     0x143B [0x01] GOTO 0x1468
     0x1453 [0x01] GOTO 0x1468
     0x1465 [0x01] GOTO 0x1468
# Dead code (unreachable instructions):
     0x14CA [0x01] GOTO 0x1607
     0x150E [0x01] GOTO 0x1607
     0x1552 [0x01] GOTO 0x1607
     0x1596 [0x01] GOTO 0x1607
     0x15DA [0x01] GOTO 0x1607
     0x15F2 [0x01] GOTO 0x1607
     0x1604 [0x01] GOTO 0x1607
# Dead code (unreachable instructions):
     0x1669 [0x01] GOTO 0x17A6
     0x16AD [0x01] GOTO 0x17A6
     0x16F1 [0x01] GOTO 0x17A6
     0x1735 [0x01] GOTO 0x17A6
     0x1779 [0x01] GOTO 0x17A6
     0x1791 [0x01] GOTO 0x17A6
     0x17A3 [0x01] GOTO 0x17A6
# Dead code (unreachable instructions):
     0x17C4 [0x01] GOTO 0x17C7
```
