# 16982333 - Warjal

## Common Data

| Field            | Value                         |
|------------------|-------------------------------|
| Zone             | Aht Urhgan Whitegate (ID: 50) |
| Block Size       | 772 bytes                     |
| Total Events     | 16                            |
| References Count | 31                            |

## List of Events

| Event ID                 | Entrypoint   |   Size |   Instructions |
|--------------------------|--------------|--------|----------------|
| [65535](#event-65535)    | 0x0000       |      1 |              1 |
| [5048](#event-5048)      | 0x0001       |      1 |              1 |
| [5049](#event-5049)      | 0x0002       |      1 |              1 |
| [5050](#event-5050)      | 0x0003       |      1 |              1 |
| [5051](#event-5051)      | 0x0004       |      1 |              1 |
| [5052](#event-5052)      | 0x0005       |      1 |              1 |
| [5053](#event-5053)      | 0x0006       |      1 |              1 |
| [5054](#event-5054)      | 0x0007       |      1 |              1 |
| [65535.1](#event-655351) | 0x0008       |      4 |              2 |
| [65535.2](#event-655352) | 0x000C       |      2 |              2 |
| [65535.3](#event-655353) | 0x000E       |    141 |             24 |
| [65535.4](#event-655354) | 0x009B       |    111 |             18 |
| [65535.5](#event-655355) | 0x010A       |    243 |             49 |
| [65535.6](#event-655356) | 0x01FD       |     21 |              2 |
| [65535.7](#event-655357) | 0x0212       |     21 |              2 |
| [65535.8](#event-655358) | 0x0227       |     14 |              4 |

## DAT References (imed_data)

|   Index | Hex Value   |   Dec Value |
|---------|-------------|-------------|
|       0 | 0x0001      |           1 |
|       1 | 0x0000      |           0 |
|       2 | 0x0002      |           2 |
|       3 | 0x0028      |          40 |
|       4 | 0x037A      |         890 |
|       5 | 0x0094      |         148 |
|       6 | 0x0071      |         113 |
|       7 | 0x00B7      |         183 |
|       8 | 0x005A      |          90 |
|       9 | 0x00B0      |         176 |
|      10 | 0x008D      |         141 |
|      11 | 0x00D3      |         211 |
|      12 | 0x001C      |          28 |
|      13 | 0xDEA8      |       57000 |
|      14 | 0x0004      |           4 |
|      15 | 0x0016      |          22 |
|      16 | 0xFFFFFFFC  |  4294967292 |
|      17 | 0x0003      |           3 |
|      18 | 0x001A      |          26 |
|      19 | 0x001B      |          27 |
|      20 | 0x001E      |          30 |
|      21 | 0x0050      |          80 |
|      22 | 0x00F0      |         240 |
|      23 | 0x003C      |          60 |
|      24 | 0x0BB8      |        3000 |
|      25 | 0x0009      |           9 |
|      26 | 0x0081      |         129 |
|      27 | 0x0008      |           8 |
|      28 | 0x6FFF      |       28671 |
|      29 | 0xFFFF4D9F  |  4294921631 |
|      30 | 0xFFFFE184  |  4294959492 |

## Events

### Event 65535

#### Metadata

| Field        | Value   |
|--------------|---------|
| Entrypoint   | 0x0000  |
| Data Size    | 1 bytes |
| Instructions | 1       |

```
      00 01 02 03 04 05 06 07  08 09 0A 0B 0C 0D 0E 0F
      -- -- -- -- -- -- -- --  -- -- -- -- -- -- -- --
0000: 00                                                .               
```

#### Opcodes

```
  0: 0x0000 [0x00] END_REQSTACK()
```

### Event 5048

#### Metadata

| Field        | Value   |
|--------------|---------|
| Entrypoint   | 0x0001  |
| Data Size    | 1 bytes |
| Instructions | 1       |

```
      00 01 02 03 04 05 06 07  08 09 0A 0B 0C 0D 0E 0F
      -- -- -- -- -- -- -- --  -- -- -- -- -- -- -- --
0000:    00                                              .              
```

#### Opcodes

```
  0: 0x0001 [0x00] END_REQSTACK()
```

### Event 5049

#### Metadata

| Field        | Value   |
|--------------|---------|
| Entrypoint   | 0x0002  |
| Data Size    | 1 bytes |
| Instructions | 1       |

```
      00 01 02 03 04 05 06 07  08 09 0A 0B 0C 0D 0E 0F
      -- -- -- -- -- -- -- --  -- -- -- -- -- -- -- --
0000:       00                                            .             
```

#### Opcodes

```
  0: 0x0002 [0x00] END_REQSTACK()
```

### Event 5050

#### Metadata

| Field        | Value   |
|--------------|---------|
| Entrypoint   | 0x0003  |
| Data Size    | 1 bytes |
| Instructions | 1       |

```
      00 01 02 03 04 05 06 07  08 09 0A 0B 0C 0D 0E 0F
      -- -- -- -- -- -- -- --  -- -- -- -- -- -- -- --
0000:          00                                          .            
```

#### Opcodes

```
  0: 0x0003 [0x00] END_REQSTACK()
```

### Event 5051

#### Metadata

| Field        | Value   |
|--------------|---------|
| Entrypoint   | 0x0004  |
| Data Size    | 1 bytes |
| Instructions | 1       |

```
      00 01 02 03 04 05 06 07  08 09 0A 0B 0C 0D 0E 0F
      -- -- -- -- -- -- -- --  -- -- -- -- -- -- -- --
0000:             00                                        .           
```

#### Opcodes

```
  0: 0x0004 [0x00] END_REQSTACK()
```

### Event 5052

#### Metadata

| Field        | Value   |
|--------------|---------|
| Entrypoint   | 0x0005  |
| Data Size    | 1 bytes |
| Instructions | 1       |

```
      00 01 02 03 04 05 06 07  08 09 0A 0B 0C 0D 0E 0F
      -- -- -- -- -- -- -- --  -- -- -- -- -- -- -- --
0000:                00                                      .          
```

#### Opcodes

```
  0: 0x0005 [0x00] END_REQSTACK()
```

### Event 5053

#### Metadata

| Field        | Value   |
|--------------|---------|
| Entrypoint   | 0x0006  |
| Data Size    | 1 bytes |
| Instructions | 1       |

```
      00 01 02 03 04 05 06 07  08 09 0A 0B 0C 0D 0E 0F
      -- -- -- -- -- -- -- --  -- -- -- -- -- -- -- --
0000:                   00                                    .         
```

#### Opcodes

```
  0: 0x0006 [0x00] END_REQSTACK()
```

### Event 5054

#### Metadata

| Field        | Value   |
|--------------|---------|
| Entrypoint   | 0x0007  |
| Data Size    | 1 bytes |
| Instructions | 1       |

```
      00 01 02 03 04 05 06 07  08 09 0A 0B 0C 0D 0E 0F
      -- -- -- -- -- -- -- --  -- -- -- -- -- -- -- --
0000:                      00                                  .        
```

#### Opcodes

```
  0: 0x0007 [0x00] END_REQSTACK()
```

### Event 65535.1

#### Metadata

| Field        | Value   |
|--------------|---------|
| Entrypoint   | 0x0008  |
| Data Size    | 4 bytes |
| Instructions | 2       |

```
      00 01 02 03 04 05 06 07  08 09 0A 0B 0C 0D 0E 0F
      -- -- -- -- -- -- -- --  -- -- -- -- -- -- -- --
0000:                          95 00 80 00                      ....    
```

#### Opcodes

```
  0: 0x0008 [0x95] SETUP_EVENT_NPC: Prepare NPC for event (Render.Flags3 = 1*)
  1: 0x000B [0x00] END_REQSTACK()
```

### Event 65535.2

#### Metadata

| Field        | Value   |
|--------------|---------|
| Entrypoint   | 0x000C  |
| Data Size    | 2 bytes |
| Instructions | 2       |

```
      00 01 02 03 04 05 06 07  08 09 0A 0B 0C 0D 0E 0F
      -- -- -- -- -- -- -- --  -- -- -- -- -- -- -- --
0000:                                      96 00                    ..  
```

#### Opcodes

```
  0: 0x000C [0x96] UNSET_EVENT_NPC: Restore NPC after event (removes event NPC status)
  1: 0x000D [0x00] END_REQSTACK()
```

### Event 65535.3

#### Metadata

| Field        | Value     |
|--------------|-----------|
| Entrypoint   | 0x000E    |
| Data Size    | 141 bytes |
| Instructions | 24        |

```
      00 01 02 03 04 05 06 07  08 09 0A 0B 0C 0D 0E 0F
      -- -- -- -- -- -- -- --  -- -- -- -- -- -- -- --
0000:                                            03 00                ..
0010: 00 01 80 02 21 10 02 80  00 1E 00 0B 00 00 02 00  ....!...........
0020: 00 20 10 03 9A 00 03 02  00 00 00 14 02 00 03 80  . ..............
0030: 13 02 00 02 00 1C 02 00  13 01 00 02 80 02 01 00  ................
0040: 01 80 80 5A 00 5B 04 80  F8 FF FF 7F F8 FF FF 7F  ...Z.[..........
0050: 75 64 74 31 1C 05 80 01  94 00 02 01 00 00 80 80  udt1............
0060: 77 00 5B 04 80 F8 FF FF  7F F8 FF FF 7F 75 64 74  w.[..........udt
0070: 66 1C 06 80 01 94 00 02  01 00 02 80 80 94 00 5B  f..............[
0080: 04 80 F8 FF FF 7F F8 FF  FF 7F 75 64 74 73 1C 07  ..........udts..
0090: 80 01 94 00 0B 00 00 01  1E 00 00                 ...........     
```

#### Opcodes

```
  0: 0x000E [0x03] ExtData[1]->WorkLocal[0] = 0*
  1: 0x0013 [0x02] IF !(Work_Zone[33] == 2*) GOTO 0x001E
  2: 0x001B [0x0B] ExtData[1]->WorkLocal[0]++
  3: 0x001E [0x02] IF !(ExtData[1]->WorkLocal[0] >= Work_Zone[32]) GOTO 0x009A
  4: 0x0026 [0x03] ExtData[1]->WorkLocal[2] = ExtData[1]->WorkLocal[0]
  5: 0x002B [0x14] ExtData[1]->WorkLocal[2] *= 40*
  6: 0x0030 [0x13] ExtData[1]->WorkLocal[2] = rand() % ExtData[1]->WorkLocal[2]
  7: 0x0035 [0x1C] WAIT(ExtData[1]->WorkLocal[2] ticks)
  8: 0x0038 [0x13] ExtData[1]->WorkLocal[1] = rand() % 2*
  9: 0x003D [0x02] IF !(ExtData[1]->WorkLocal[1] == 0*) GOTO 0x005A
 10: 0x0045 [0x5B] LOAD_EXT_SCHEDULER: Load scheduler "udt1" with entities [EventEntity, EventEntity], work=890*
 11: 0x0054 [0x1C] WAIT(148* ticks)
 12: 0x0057 [0x01] GOTO 0x0094
 13: 0x005A [0x02] IF !(ExtData[1]->WorkLocal[1] == 1*) GOTO 0x0077
 14: 0x0062 [0x5B] LOAD_EXT_SCHEDULER: Load scheduler "udtf" with entities [EventEntity, EventEntity], work=890*
 15: 0x0071 [0x1C] WAIT(113* ticks)
 16: 0x0074 [0x01] GOTO 0x0094
 17: 0x0077 [0x02] IF !(ExtData[1]->WorkLocal[1] == 2*) GOTO 0x0094
 18: 0x007F [0x5B] LOAD_EXT_SCHEDULER: Load scheduler "udts" with entities [EventEntity, EventEntity], work=890*
 19: 0x008E [0x1C] WAIT(183* ticks)
 20: 0x0091 [0x01] GOTO 0x0094

SUBROUTINE_0094:
 21: 0x0094 [0x0B] ExtData[1]->WorkLocal[0]++
 22: 0x0097 [0x01] GOTO 0x001E
 23: 0x009A [0x00] END_REQSTACK()
```

### Event 65535.4

#### Metadata

| Field        | Value     |
|--------------|-----------|
| Entrypoint   | 0x009B    |
| Data Size    | 111 bytes |
| Instructions | 18        |

```
      00 01 02 03 04 05 06 07  08 09 0A 0B 0C 0D 0E 0F
      -- -- -- -- -- -- -- --  -- -- -- -- -- -- -- --
0090:                                   13 00 00 08 80             .....
00A0: 1C 00 00 13 00 00 02 80  02 00 00 01 80 80 C5 00  ................
00B0: 5B 04 80 F8 FF FF 7F F8  FF FF 7F 66 6B 6E 31 1C  [..........fkn1.
00C0: 09 80 01 FF 00 02 00 00  00 80 80 E2 00 5B 04 80  .............[..
00D0: F8 FF FF 7F F8 FF FF 7F  66 6B 6E 66 1C 0A 80 01  ........fknf....
00E0: FF 00 02 00 00 02 80 80  FF 00 5B 04 80 F8 FF FF  ..........[.....
00F0: 7F F8 FF FF 7F 66 6B 6E  73 1C 0B 80 01 FF 00 0B  .....fkns.......
0100: 22 10 27 0A F0 FF FF 7F  11 00                    ".'.......      
```

#### Opcodes

```
  0: 0x009B [0x13] ExtData[1]->WorkLocal[0] = rand() % 90*
  1: 0x00A0 [0x1C] WAIT(ExtData[1]->WorkLocal[0] ticks)
  2: 0x00A3 [0x13] ExtData[1]->WorkLocal[0] = rand() % 2*
  3: 0x00A8 [0x02] IF !(ExtData[1]->WorkLocal[0] == 0*) GOTO 0x00C5
  4: 0x00B0 [0x5B] LOAD_EXT_SCHEDULER: Load scheduler "fkn1" with entities [EventEntity, EventEntity], work=890*
  5: 0x00BF [0x1C] WAIT(176* ticks)
  6: 0x00C2 [0x01] GOTO 0x00FF
  7: 0x00C5 [0x02] IF !(ExtData[1]->WorkLocal[0] == 1*) GOTO 0x00E2
  8: 0x00CD [0x5B] LOAD_EXT_SCHEDULER: Load scheduler "fknf" with entities [EventEntity, EventEntity], work=890*
  9: 0x00DC [0x1C] WAIT(141* ticks)
 10: 0x00DF [0x01] GOTO 0x00FF
 11: 0x00E2 [0x02] IF !(ExtData[1]->WorkLocal[0] == 2*) GOTO 0x00FF
 12: 0x00EA [0x5B] LOAD_EXT_SCHEDULER: Load scheduler "fkns" with entities [EventEntity, EventEntity], work=890*
 13: 0x00F9 [0x1C] WAIT(211* ticks)
 14: 0x00FC [0x01] GOTO 0x00FF

SUBROUTINE_00FF:
 15: 0x00FF [0x0B] Work_Zone[34]++
 16: 0x0102 [0x27] REQ_SET(priority=0x0A, entity_id=LocalPlayer, tag_num=0x11)
 17: 0x0109 [0x00] END_REQSTACK()
```

### Event 65535.5

#### Metadata

| Field        | Value     |
|--------------|-----------|
| Entrypoint   | 0x010A    |
| Data Size    | 243 bytes |
| Instructions | 49        |

```
      00 01 02 03 04 05 06 07  08 09 0A 0B 0C 0D 0E 0F
      -- -- -- -- -- -- -- --  -- -- -- -- -- -- -- --
0100:                                32 0C 80 06 05 00            2.....
0110: 03 03 00 0D 80 03 06 00  01 80 03 07 00 01 80 02  ................
0120: 24 10 01 80 00 FC 01 13  04 00 0E 80 3E 23 10 00  $...........>#..
0130: 80 41 01 57 06 00 03 04  00 0F 80 05 05 00 01 E7  .A.W............
0140: 01 02 05 00 01 80 00 D2  01 13 04 00 0E 80 08 07  ................
0150: 00 02 80 07 07 00 04 00  02 07 00 10 80 03 6D 01  ..............m.
0160: 03 04 00 0E 80 07 07 00  11 80 01 7F 01 02 07 00  ................
0170: 0E 80 02 7F 01 03 04 00  01 80 08 07 00 0E 80 02  ................
0180: 04 00 01 80 80 8F 01 03  04 00 12 80 01 CF 01 02  ................
0190: 04 00 00 80 80 9F 01 03  04 00 13 80 01 CF 01 02  ................
01A0: 04 00 02 80 80 AF 01 03  04 00 0C 80 01 CF 01 02  ................
01B0: 04 00 11 80 80 BF 01 03  04 00 0C 80 01 CF 01 02  ................
01C0: 04 00 0E 80 80 CF 01 03  04 00 14 80 01 CF 01 01  ................
01D0: E7 01 03 04 00 15 80 06  05 00 02 06 00 16 80 03  ................
01E0: E7 01 03 04 00 17 80 32  04 00 07 03 00 18 80 1F  .......2........
01F0: 00 03 00 01 80 01 80 1F  01 01 1F 01 00           .............   
```

#### Opcodes

```
  0: 0x010A [0x32] ExtData[1]->MainSpeed = 28* * 0.1
  1: 0x010D [0x06] ExtData[1]->WorkLocal[5] = 0
  2: 0x0110 [0x03] ExtData[1]->WorkLocal[3] = 57000*
  3: 0x0115 [0x03] ExtData[1]->WorkLocal[6] = 0*
  4: 0x011A [0x03] ExtData[1]->WorkLocal[7] = 0*
  5: 0x011F [0x02] IF !(Work_Zone[36] == 0*) GOTO 0x01FC
  6: 0x0127 [0x13] ExtData[1]->WorkLocal[4] = rand() % 4*
  7: 0x012C [0x3E] IF !(Work_Zone[35] bit 1*) GOTO 0x0141
  8: 0x0133 [0x57] CREATE_FRAME_DELAY(delay=ExtData[1]->WorkLocal[6])
  9: 0x0136 [0x03] ExtData[1]->WorkLocal[4] = 22*
 10: 0x013B [0x05] ExtData[1]->WorkLocal[5] = 1
 11: 0x013E [0x01] GOTO 0x01E7
 12: 0x0141 [0x02] IF !(ExtData[1]->WorkLocal[5] == 0*) GOTO 0x01D2
 13: 0x0149 [0x13] ExtData[1]->WorkLocal[4] = rand() % 4*
 14: 0x014E [0x08] ExtData[1]->WorkLocal[7] -= 2*
 15: 0x0153 [0x07] ExtData[1]->WorkLocal[7] += ExtData[1]->WorkLocal[4]
 16: 0x0158 [0x02] IF !(ExtData[1]->WorkLocal[7] >= 4294967292*) GOTO 0x016D
 17: 0x0160 [0x03] ExtData[1]->WorkLocal[4] = 4*
 18: 0x0165 [0x07] ExtData[1]->WorkLocal[7] += 3*
 19: 0x016A [0x01] GOTO 0x017F
 20: 0x016D [0x02] IF !(ExtData[1]->WorkLocal[7] <= 4*) GOTO 0x017F
 21: 0x0175 [0x03] ExtData[1]->WorkLocal[4] = 0*
 22: 0x017A [0x08] ExtData[1]->WorkLocal[7] -= 4*

SUBROUTINE_017F:
 23: 0x017F [0x02] IF !(ExtData[1]->WorkLocal[4] == 0*) GOTO 0x018F
 24: 0x0187 [0x03] ExtData[1]->WorkLocal[4] = 26*
 25: 0x018C [0x01] GOTO 0x01CF
 26: 0x018F [0x02] IF !(ExtData[1]->WorkLocal[4] == 1*) GOTO 0x019F
 27: 0x0197 [0x03] ExtData[1]->WorkLocal[4] = 27*
 28: 0x019C [0x01] GOTO 0x01CF
 29: 0x019F [0x02] IF !(ExtData[1]->WorkLocal[4] == 2*) GOTO 0x01AF
 30: 0x01A7 [0x03] ExtData[1]->WorkLocal[4] = 28*
 31: 0x01AC [0x01] GOTO 0x01CF
 32: 0x01AF [0x02] IF !(ExtData[1]->WorkLocal[4] == 3*) GOTO 0x01BF
 33: 0x01B7 [0x03] ExtData[1]->WorkLocal[4] = 28*
 34: 0x01BC [0x01] GOTO 0x01CF
 35: 0x01BF [0x02] IF !(ExtData[1]->WorkLocal[4] == 4*) GOTO 0x01CF
 36: 0x01C7 [0x03] ExtData[1]->WorkLocal[4] = 30*
 37: 0x01CC [0x01] GOTO 0x01CF

SUBROUTINE_01CF:
 38: 0x01CF [0x01] GOTO 0x01E7
 39: 0x01D2 [0x03] ExtData[1]->WorkLocal[4] = 80*
 40: 0x01D7 [0x06] ExtData[1]->WorkLocal[5] = 0
 41: 0x01DA [0x02] IF !(ExtData[1]->WorkLocal[6] >= 240*) GOTO 0x01E7
 42: 0x01E2 [0x03] ExtData[1]->WorkLocal[4] = 60*

SUBROUTINE_01E7:
 43: 0x01E7 [0x32] ExtData[1]->MainSpeed = ExtData[1]->WorkLocal[4] * 0.1
 44: 0x01EA [0x07] ExtData[1]->WorkLocal[3] += 3000*
 45: 0x01EF [0x1F] MOVE_ENTITY: EventEntity moves to X=ExtData[1]->WorkLocal[3], Z=0.000*, Y=0.000*
 46: 0x01F7 [0x1F] MOVE_ENTITY: Update entity position (mode=1)
 47: 0x01F9 [0x01] GOTO 0x011F
 48: 0x01FC [0x00] END_REQSTACK()
```

### Event 65535.6

#### Metadata

| Field        | Value    |
|--------------|----------|
| Entrypoint   | 0x01FD   |
| Data Size    | 21 bytes |
| Instructions | 2        |

```
      00 01 02 03 04 05 06 07  08 09 0A 0B 0C 0D 0E 0F
      -- -- -- -- -- -- -- --  -- -- -- -- -- -- -- --
01F0:                                         B6 0B 00               ...
0200: 80 19 80 01 80 01 80 01  80 1A 80 01 80 01 80 01  ................
0210: 80 00                                             ..              
```

#### Opcodes

```
  0: 0x01FD [0xB6] ENTITY_APPEARANCE_HANDLER(case=Full entity look, race=1*, hair=9*, head=0*, body=0*, hands=0*, legs=129*, feet=0*, main=0*, sub=0*)
  1: 0x0211 [0x00] END_REQSTACK()
```

### Event 65535.7

#### Metadata

| Field        | Value    |
|--------------|----------|
| Entrypoint   | 0x0212   |
| Data Size    | 21 bytes |
| Instructions | 2        |

```
      00 01 02 03 04 05 06 07  08 09 0A 0B 0C 0D 0E 0F
      -- -- -- -- -- -- -- --  -- -- -- -- -- -- -- --
0210:       B6 0B 00 80 11 80  01 80 01 80 01 80 1A 80    ..............
0220: 01 80 01 80 01 80 00                              .......         
```

#### Opcodes

```
  0: 0x0212 [0xB6] ENTITY_APPEARANCE_HANDLER(case=Full entity look, race=1*, hair=3*, head=0*, body=0*, hands=0*, legs=129*, feet=0*, main=0*, sub=0*)
  1: 0x0226 [0x00] END_REQSTACK()
```

### Event 65535.8

#### Metadata

| Field        | Value    |
|--------------|----------|
| Entrypoint   | 0x0227   |
| Data Size    | 14 bytes |
| Instructions | 4        |

```
      00 01 02 03 04 05 06 07  08 09 0A 0B 0C 0D 0E 0F
      -- -- -- -- -- -- -- --  -- -- -- -- -- -- -- --
0220:                      32  1B 80 1F 00 1C 80 1D 80         2........
0230: 1E 80 1F 01 00                                    .....           
```

#### Opcodes

```
  0: 0x0227 [0x32] ExtData[1]->MainSpeed = 8* * 0.1
  1: 0x022A [0x1F] MOVE_ENTITY: EventEntity moves to X=28.671*, Z=-45.665*, Y=-7.804*
  2: 0x0232 [0x1F] MOVE_ENTITY: Update entity position (mode=1)
  3: 0x0234 [0x00] END_REQSTACK()
```
