# 16982449 - Briallen

## Common Data

| Field            | Value                         |
|------------------|-------------------------------|
| Zone             | Aht Urhgan Whitegate (ID: 50) |
| Block Size       | 192 bytes                     |
| Total Events     | 7                             |
| References Count | 16                            |

## List of Events

| Event ID                 | Entrypoint   |   Size |   Instructions |
|--------------------------|--------------|--------|----------------|
| [65535](#event-65535)    | 0x0000       |      1 |              1 |
| [575](#event-575)        | 0x0001       |      1 |              1 |
| [65535.1](#event-655351) | 0x0002       |     15 |              3 |
| [65535.2](#event-655352) | 0x0011       |     15 |              3 |
| [65535.3](#event-655353) | 0x0020       |     23 |              5 |
| [65535.4](#event-655354) | 0x0037       |     14 |              4 |
| [65535.5](#event-655355) | 0x0045       |     14 |              4 |

## DAT References (imed_data)

|   Index | Hex Value   |   Dec Value |
|---------|-------------|-------------|
|       0 | 0x15A38     |       88632 |
|       1 | 0xFFFFFD70  |  4294966640 |
|       2 | 0x0000      |           0 |
|       3 | 0x0810      |        2064 |
|       4 | 0x92F3D     |      601917 |
|       5 | 0x54310     |      344848 |
|       6 | 0xFFFF9A70  |  4294941296 |
|       7 | 0x0D2B      |        3371 |
|       8 | 0x0028      |          40 |
|       9 | 0x93E09     |      605705 |
|      10 | 0x56394     |      353172 |
|      11 | 0xFFFFA219  |  4294943257 |
|      12 | 0x18F82     |      102274 |
|      13 | 0xFFFFFD8A  |  4294966666 |
|      14 | 0x1E461     |      124001 |
|      15 | 0xFFFFFB94  |  4294966164 |

## Events

### Event 65535

#### Metadata

| Field        | Value   |
|--------------|---------|
| Entrypoint   | 0x0000  |
| Data Size    | 1 bytes |
| Instructions | 1       |

```
      00 01 02 03 04 05 06 07  08 09 0A 0B 0C 0D 0E 0F
      -- -- -- -- -- -- -- --  -- -- -- -- -- -- -- --
0000: 00                                                .               
```

#### Opcodes

```
  0: 0x0000 [0x00] END_REQSTACK()
```

### Event 575

#### Metadata

| Field        | Value   |
|--------------|---------|
| Entrypoint   | 0x0001  |
| Data Size    | 1 bytes |
| Instructions | 1       |

```
      00 01 02 03 04 05 06 07  08 09 0A 0B 0C 0D 0E 0F
      -- -- -- -- -- -- -- --  -- -- -- -- -- -- -- --
0000:    00                                              .              
```

#### Opcodes

```
  0: 0x0001 [0x00] END_REQSTACK()
```

### Event 65535.1

#### Metadata

| Field        | Value    |
|--------------|----------|
| Entrypoint   | 0x0002   |
| Data Size    | 15 bytes |
| Instructions | 3        |

```
      00 01 02 03 04 05 06 07  08 09 0A 0B 0C 0D 0E 0F
      -- -- -- -- -- -- -- --  -- -- -- -- -- -- -- --
0000:       37 00 80 01 80 02  80 03 80 80 F8 FF FF 7F    7.............
0010: 00                                                .               
```

#### Opcodes

```
  0: 0x0002 [0x37] UPDATE_EVENT_POSITION_AND_DIR: x=88.632*, z=-0.656*, y=0.000*, direction=181.4°*
  1: 0x000B [0x80] LOAD_WAIT(entity=EventEntity)
  2: 0x0010 [0x00] END_REQSTACK()
```

### Event 65535.2

#### Metadata

| Field        | Value    |
|--------------|----------|
| Entrypoint   | 0x0011   |
| Data Size    | 15 bytes |
| Instructions | 3        |

```
      00 01 02 03 04 05 06 07  08 09 0A 0B 0C 0D 0E 0F
      -- -- -- -- -- -- -- --  -- -- -- -- -- -- -- --
0010:    37 04 80 05 80 06 80  07 80 80 F8 FF FF 7F 00   7..............
```

#### Opcodes

```
  0: 0x0011 [0x37] UPDATE_EVENT_POSITION_AND_DIR: x=601.917*, z=344.848*, y=-26.000*, direction=296.3°*
  1: 0x001A [0x80] LOAD_WAIT(entity=EventEntity)
  2: 0x001F [0x00] END_REQSTACK()
```

### Event 65535.3

#### Metadata

| Field        | Value    |
|--------------|----------|
| Entrypoint   | 0x0020   |
| Data Size    | 23 bytes |
| Instructions | 5        |

```
      00 01 02 03 04 05 06 07  08 09 0A 0B 0C 0D 0E 0F
      -- -- -- -- -- -- -- --  -- -- -- -- -- -- -- --
0020: 32 08 80 1F 00 09 80 0A  80 0B 80 1F 01 4A B1 21  2............J.!
0030: 03 01 AF 21 03 01 00                              ...!...         
```

#### Opcodes

```
  0: 0x0020 [0x32] ExtData[1]->MainSpeed = 40* * 0.1
  1: 0x0023 [0x1F] MOVE_ENTITY: EventEntity moves to X=605.705*, Z=353.172*, Y=-24.039*
  2: 0x002B [0x1F] MOVE_ENTITY: Update entity position (mode=1)
  3: 0x002D [0x4A] Briallen (ID: 16982449/0x010321B1) looks at Isween (ID: 16982447/0x010321AF)
  4: 0x0036 [0x00] END_REQSTACK()
```

### Event 65535.4

#### Metadata

| Field        | Value    |
|--------------|----------|
| Entrypoint   | 0x0037   |
| Data Size    | 14 bytes |
| Instructions | 4        |

```
      00 01 02 03 04 05 06 07  08 09 0A 0B 0C 0D 0E 0F
      -- -- -- -- -- -- -- --  -- -- -- -- -- -- -- --
0030:                      32  08 80 1F 00 0C 80 0D 80         2........
0040: 02 80 1F 01 00                                    .....           
```

#### Opcodes

```
  0: 0x0037 [0x32] ExtData[1]->MainSpeed = 40* * 0.1
  1: 0x003A [0x1F] MOVE_ENTITY: EventEntity moves to X=102.274*, Z=-0.630*, Y=0.000*
  2: 0x0042 [0x1F] MOVE_ENTITY: Update entity position (mode=1)
  3: 0x0044 [0x00] END_REQSTACK()
```

### Event 65535.5

#### Metadata

| Field        | Value    |
|--------------|----------|
| Entrypoint   | 0x0045   |
| Data Size    | 14 bytes |
| Instructions | 4        |

```
      00 01 02 03 04 05 06 07  08 09 0A 0B 0C 0D 0E 0F
      -- -- -- -- -- -- -- --  -- -- -- -- -- -- -- --
0040:                32 08 80  1F 00 0E 80 0F 80 02 80       2..........
0050: 1F 01 00                                          ...             
```

#### Opcodes

```
  0: 0x0045 [0x32] ExtData[1]->MainSpeed = 40* * 0.1
  1: 0x0048 [0x1F] MOVE_ENTITY: EventEntity moves to X=124.001*, Z=-1.132*, Y=0.000*
  2: 0x0050 [0x1F] MOVE_ENTITY: Update entity position (mode=1)
  3: 0x0052 [0x00] END_REQSTACK()
```
