# 16982212 - Mnejing

## Common Data

| Field            | Value                         |
|------------------|-------------------------------|
| Zone             | Aht Urhgan Whitegate (ID: 50) |
| Block Size       | 3164 bytes                    |
| Total Events     | 154                           |
| References Count | 116                           |

## List of Events

| Event ID                     | Entrypoint   |   Size |   Instructions |
|------------------------------|--------------|--------|----------------|
| [65535](#event-65535)        | 0x0000       |      1 |              1 |
| [65535.1](#event-655351)     | 0x0001       |      1 |              1 |
| [65535.2](#event-655352)     | 0x0002       |     18 |              4 |
| [65535.3](#event-655353)     | 0x0014       |     10 |              2 |
| [65535.4](#event-655354)     | 0x001E       |      9 |              3 |
| [65535.5](#event-655355)     | 0x0027       |      9 |              3 |
| [65535.6](#event-655356)     | 0x0030       |     10 |              2 |
| [65535.7](#event-655357)     | 0x003A       |     10 |              2 |
| [65535.8](#event-655358)     | 0x0044       |      1 |              1 |
| [3027](#event-3027)          | 0x0045       |      1 |              1 |
| [3034](#event-3034)          | 0x0046       |      1 |              1 |
| [3078](#event-3078)          | 0x0047       |      1 |              1 |
| [65535.9](#event-655359)     | 0x0048       |     10 |              2 |
| [65535.10](#event-6553510)   | 0x0052       |     39 |             11 |
| [65535.11](#event-6553511)   | 0x0079       |     10 |              2 |
| [65535.12](#event-6553512)   | 0x0083       |     15 |              5 |
| [65535.13](#event-6553513)   | 0x0092       |     27 |              9 |
| [65535.14](#event-6553514)   | 0x00AD       |     10 |              2 |
| [65535.15](#event-6553515)   | 0x00B7       |     22 |              8 |
| [3090](#event-3090)          | 0x00CD       |      1 |              1 |
| [3093](#event-3093)          | 0x00CE       |      1 |              1 |
| [65535.16](#event-6553516)   | 0x00CF       |      3 |              2 |
| [65535.17](#event-6553517)   | 0x00D2       |     25 |              7 |
| [65535.18](#event-6553518)   | 0x00EB       |     22 |              8 |
| [65535.19](#event-6553519)   | 0x0101       |     20 |              6 |
| [3095](#event-3095)          | 0x0115       |      1 |              1 |
| [65535.20](#event-6553520)   | 0x0116       |     10 |              2 |
| [65535.21](#event-6553521)   | 0x0120       |     15 |              5 |
| [825](#event-825)            | 0x012F       |      1 |              1 |
| [3112](#event-3112)          | 0x0130       |      1 |              1 |
| [65535.22](#event-6553522)   | 0x0131       |     14 |              4 |
| [65535.23](#event-6553523)   | 0x013F       |     22 |              6 |
| [65535.24](#event-6553524)   | 0x0155       |     14 |              4 |
| [65535.25](#event-6553525)   | 0x0163       |     22 |              6 |
| [65535.26](#event-6553526)   | 0x0179       |     14 |              4 |
| [65535.27](#event-6553527)   | 0x0187       |     22 |              6 |
| [65535.28](#event-6553528)   | 0x019D       |     14 |              4 |
| [65535.29](#event-6553529)   | 0x01AB       |     19 |              5 |
| [65535.30](#event-6553530)   | 0x01BE       |     14 |              4 |
| [65535.31](#event-6553531)   | 0x01CC       |     14 |              4 |
| [3130](#event-3130)          | 0x01DA       |      1 |              1 |
| [3131](#event-3131)          | 0x01DB       |      1 |              1 |
| [3140](#event-3140)          | 0x01DC       |      7 |              2 |
| [65535.32](#event-6553532)   | 0x01E3       |     22 |              6 |
| [65535.33](#event-6553533)   | 0x01F9       |     22 |              6 |
| [3155](#event-3155)          | 0x020F       |      1 |              1 |
| [65535.34](#event-6553534)   | 0x0210       |     29 |              9 |
| [65535.35](#event-6553535)   | 0x022D       |     41 |             13 |
| [3215](#event-3215)          | 0x0256       |      1 |              1 |
| [3216](#event-3216)          | 0x0257       |      1 |              1 |
| [65535.36](#event-6553536)   | 0x0258       |      1 |              1 |
| [65535.37](#event-6553537)   | 0x0259       |      1 |              1 |
| [65535.38](#event-6553538)   | 0x025A       |      1 |              1 |
| [65535.39](#event-6553539)   | 0x025B       |      1 |              1 |
| [65535.40](#event-6553540)   | 0x025C       |      1 |              1 |
| [65535.41](#event-6553541)   | 0x025D       |      1 |              1 |
| [65535.42](#event-6553542)   | 0x025E       |      1 |              1 |
| [65535.43](#event-6553543)   | 0x025F       |      1 |              1 |
| [65535.44](#event-6553544)   | 0x0260       |      1 |              1 |
| [65535.45](#event-6553545)   | 0x0261       |      1 |              1 |
| [65535.46](#event-6553546)   | 0x0262       |      1 |              1 |
| [65535.47](#event-6553547)   | 0x0263       |     24 |              6 |
| [65535.48](#event-6553548)   | 0x027B       |      1 |              1 |
| [65535.49](#event-6553549)   | 0x027C       |      1 |              1 |
| [65535.50](#event-6553550)   | 0x027D       |     30 |              8 |
| [65535.51](#event-6553551)   | 0x029B       |     14 |              4 |
| [65535.52](#event-6553552)   | 0x02A9       |     26 |              8 |
| [65535.53](#event-6553553)   | 0x02C3       |     24 |              6 |
| [65535.54](#event-6553554)   | 0x02DB       |     24 |              6 |
| [65535.55](#event-6553555)   | 0x02F3       |     23 |              7 |
| [65535.56](#event-6553556)   | 0x030A       |     34 |              4 |
| [65535.57](#event-6553557)   | 0x032C       |     20 |              6 |
| [65535.58](#event-6553558)   | 0x0340       |     15 |              5 |
| [65535.59](#event-6553559)   | 0x034F       |     10 |              2 |
| [65535.60](#event-6553560)   | 0x0359       |     10 |              2 |
| [65535.61](#event-6553561)   | 0x0363       |     26 |              8 |
| [65535.62](#event-6553562)   | 0x037D       |     19 |              5 |
| [65535.63](#event-6553563)   | 0x0390       |      1 |              1 |
| [65535.64](#event-6553564)   | 0x0391       |      1 |              1 |
| [65535.65](#event-6553565)   | 0x0392       |     30 |              6 |
| [65535.66](#event-6553566)   | 0x03B0       |     16 |              2 |
| [65535.67](#event-6553567)   | 0x03C0       |     14 |              2 |
| [65535.68](#event-6553568)   | 0x03CE       |     16 |              2 |
| [65535.69](#event-6553569)   | 0x03DE       |     14 |              2 |
| [65535.70](#event-6553570)   | 0x03EC       |     16 |              2 |
| [65535.71](#event-6553571)   | 0x03FC       |     14 |              2 |
| [65535.72](#event-6553572)   | 0x040A       |     16 |              2 |
| [65535.73](#event-6553573)   | 0x041A       |     14 |              2 |
| [65535.74](#event-6553574)   | 0x0428       |     16 |              2 |
| [65535.75](#event-6553575)   | 0x0438       |     14 |              2 |
| [65535.76](#event-6553576)   | 0x0446       |     16 |              2 |
| [65535.77](#event-6553577)   | 0x0456       |     14 |              2 |
| [65535.78](#event-6553578)   | 0x0464       |     16 |              2 |
| [65535.79](#event-6553579)   | 0x0474       |     14 |              2 |
| [65535.80](#event-6553580)   | 0x0482       |     16 |              2 |
| [65535.81](#event-6553581)   | 0x0492       |     14 |              2 |
| [65535.82](#event-6553582)   | 0x04A0       |     16 |              2 |
| [65535.83](#event-6553583)   | 0x04B0       |     14 |              2 |
| [65535.84](#event-6553584)   | 0x04BE       |     16 |              2 |
| [65535.85](#event-6553585)   | 0x04CE       |     14 |              2 |
| [65535.86](#event-6553586)   | 0x04DC       |      9 |              3 |
| [65535.87](#event-6553587)   | 0x04E5       |     16 |              2 |
| [65535.88](#event-6553588)   | 0x04F5       |     14 |              2 |
| [65535.89](#event-6553589)   | 0x0503       |     16 |              2 |
| [65535.90](#event-6553590)   | 0x0513       |     14 |              2 |
| [65535.91](#event-6553591)   | 0x0521       |     16 |              2 |
| [65535.92](#event-6553592)   | 0x0531       |     14 |              2 |
| [65535.93](#event-6553593)   | 0x053F       |     16 |              2 |
| [65535.94](#event-6553594)   | 0x054F       |     14 |              2 |
| [65535.95](#event-6553595)   | 0x055D       |     44 |              4 |
| [65535.96](#event-6553596)   | 0x0589       |     14 |              2 |
| [65535.97](#event-6553597)   | 0x0597       |     16 |              2 |
| [65535.98](#event-6553598)   | 0x05A7       |     14 |              2 |
| [65535.99](#event-6553599)   | 0x05B5       |     16 |              2 |
| [65535.100](#event-65535100) | 0x05C5       |     14 |              2 |
| [65535.101](#event-65535101) | 0x05D3       |     16 |              2 |
| [65535.102](#event-65535102) | 0x05E3       |     14 |              2 |
| [65535.103](#event-65535103) | 0x05F1       |     16 |              2 |
| [65535.104](#event-65535104) | 0x0601       |     14 |              2 |
| [65535.105](#event-65535105) | 0x060F       |     16 |              2 |
| [65535.106](#event-65535106) | 0x061F       |     14 |              2 |
| [65535.107](#event-65535107) | 0x062D       |     16 |              2 |
| [65535.108](#event-65535108) | 0x063D       |     14 |              2 |
| [65535.109](#event-65535109) | 0x064B       |     16 |              2 |
| [65535.110](#event-65535110) | 0x065B       |     14 |              2 |
| [65535.111](#event-65535111) | 0x0669       |     16 |              2 |
| [65535.112](#event-65535112) | 0x0679       |     14 |              2 |
| [65535.113](#event-65535113) | 0x0687       |     16 |              2 |
| [65535.114](#event-65535114) | 0x0697       |     14 |              2 |
| [65535.115](#event-65535115) | 0x06A5       |     16 |              2 |
| [65535.116](#event-65535116) | 0x06B5       |     14 |              2 |
| [65535.117](#event-65535117) | 0x06C3       |     16 |              2 |
| [65535.118](#event-65535118) | 0x06D3       |     14 |              2 |
| [65535.119](#event-65535119) | 0x06E1       |     16 |              2 |
| [65535.120](#event-65535120) | 0x06F1       |     14 |              2 |
| [65535.121](#event-65535121) | 0x06FF       |     16 |              2 |
| [65535.122](#event-65535122) | 0x070F       |     14 |              2 |
| [65535.123](#event-65535123) | 0x071D       |     16 |              2 |
| [65535.124](#event-65535124) | 0x072D       |     14 |              2 |
| [65535.125](#event-65535125) | 0x073B       |     16 |              2 |
| [65535.126](#event-65535126) | 0x074B       |     14 |              2 |
| [65535.127](#event-65535127) | 0x0759       |     16 |              2 |
| [65535.128](#event-65535128) | 0x0769       |     14 |              2 |
| [65535.129](#event-65535129) | 0x0777       |     16 |              2 |
| [65535.130](#event-65535130) | 0x0787       |     14 |              2 |
| [65535.131](#event-65535131) | 0x0795       |     57 |              5 |
| [65535.132](#event-65535132) | 0x07CE       |      1 |              1 |
| [65535.133](#event-65535133) | 0x07CF       |     14 |              4 |
| [65535.134](#event-65535134) | 0x07DD       |     10 |              2 |
| [65535.135](#event-65535135) | 0x07E7       |      1 |              1 |
| [65535.136](#event-65535136) | 0x07E8       |     22 |              6 |
| [65535.137](#event-65535137) | 0x07FE       |      7 |              2 |
| [65535.138](#event-65535138) | 0x0805       |      7 |              2 |
| [65535.139](#event-65535139) | 0x080C       |      7 |              2 |

## DAT References (imed_data)

|   Index | Hex Value   |   Dec Value |
|---------|-------------|-------------|
|       0 | 0x0000      |           0 |
|       1 | 0x0001      |           1 |
|       2 | 0x0080      |         128 |
|       3 | 0x04D9      |        1241 |
|       4 | 0xC70E      |       50958 |
|       5 | 0x0400      |        1024 |
|       6 | 0x000A      |          10 |
|       7 | 0x0034      |          52 |
|       8 | 0xC666      |       50790 |
|       9 | 0xFFFFFFEC  |  4294967276 |
|      10 | 0x0C00      |        3072 |
|      11 | 0xD160      |       53600 |
|      12 | 0xFFFFFB41  |  4294966081 |
|      13 | 0x001F      |          31 |
|      14 | 0xC5E6      |       50662 |
|      15 | 0xBDF5      |       48629 |
|      16 | 0x000B      |          11 |
|      17 | 0x000F      |          15 |
|      18 | 0x0469      |        1129 |
|      19 | 0xB630      |       46640 |
|      20 | 0x0800      |        2048 |
|      21 | 0x0028      |          40 |
|      22 | 0x0AE4      |        2788 |
|      23 | 0xB095      |       45205 |
|      24 | 0xFFFFF5E0  |  4294964704 |
|      25 | 0x7810      |       30736 |
|      26 | 0x0182      |         386 |
|      27 | 0x620F      |       25103 |
|      28 | 0x03ED      |        1005 |
|      29 | 0x2B8E      |       11150 |
|      30 | 0xFFFFDAF4  |  4294957812 |
|      31 | 0xCDB5      |       52661 |
|      32 | 0x0833      |        2099 |
|      33 | 0xFFFFDC97  |  4294958231 |
|      34 | 0xC3EE      |       50158 |
|      35 | 0x000D      |          13 |
|      36 | 0x13277     |       78455 |
|      37 | 0xC446      |       50246 |
|      38 | 0x01E0      |         480 |
|      39 | 0x135A1     |       79265 |
|      40 | 0x8AEA      |       35562 |
|      41 | 0x0181      |         385 |
|      42 | 0x001E      |          30 |
|      43 | 0x1FC05     |      130053 |
|      44 | 0x1D68A     |      120458 |
|      45 | 0x0BB7      |        2999 |
|      46 | 0x1E905     |      125189 |
|      47 | 0x1D671     |      120433 |
|      48 | 0x0BB8      |        3000 |
|      49 | 0x1DC28     |      121896 |
|      50 | 0x1D718     |      120600 |
|      51 | 0x1AE5E     |      110174 |
|      52 | 0x1D06E     |      118894 |
|      53 | 0x07D0      |        2000 |
|      54 | 0x19ED0     |      106192 |
|      55 | 0x1D012     |      118802 |
|      56 | 0x133F4     |       78836 |
|      57 | 0xC6DE      |       50910 |
|      58 | 0x11CE8     |       72936 |
|      59 | 0xB0CC      |       45260 |
|      60 | 0x13BA1     |       80801 |
|      61 | 0x5A86      |       23174 |
|      62 | 0xFFFFFEC4  |  4294966980 |
|      63 | 0x061E      |        1566 |
|      64 | 0xC0DA      |       49370 |
|      65 | 0x003C      |          60 |
|      66 | 0x0348      |         840 |
|      67 | 0xC356      |       50006 |
|      68 | 0xFFFFFFBD  |  4294967229 |
|      69 | 0xC670      |       50800 |
|      70 | 0xC350      |       50000 |
|      71 | 0x141B8     |       82360 |
|      72 | 0xC485      |       50309 |
|      73 | 0x14526     |       83238 |
|      74 | 0xBD91      |       48529 |
|      75 | 0x14D69     |       85353 |
|      76 | 0xB6E0      |       46816 |
|      77 | 0xFFFFFCA5  |  4294966437 |
|      78 | 0xFFFF7DDD  |  4294933981 |
|      79 | 0x000C      |          12 |
|      80 | 0x150CE     |       86222 |
|      81 | 0xB287      |       45703 |
|      82 | 0x14E2B     |       85547 |
|      83 | 0xB098      |       45208 |
|      84 | 0x15593     |       87443 |
|      85 | 0xA2FD      |       41725 |
|      86 | 0xFFFFFAE7  |  4294965991 |
|      87 | 0xFFFF806E  |  4294934638 |
|      88 | 0xFFFFFC8D  |  4294966413 |
|      89 | 0xFFFF836C  |  4294935404 |
|      90 | 0x0389      |         905 |
|      91 | 0x00B8      |         184 |
|      92 | 0xB2BE      |       45758 |
|      93 | 0x02BE      |         702 |
|      94 | 0xFFFFD714  |  4294956820 |
|      95 | 0x02B7      |         695 |
|      96 | 0xFFFF8EC7  |  4294938311 |
|      97 | 0xFFF893BE  |  4294480830 |
|      98 | 0x649BC     |      412092 |
|      99 | 0xFFFFF060  |  4294963296 |
|     100 | 0x12B43     |       76611 |
|     101 | 0xBE53      |       48723 |
|     102 | 0x042D      |        1069 |
|     103 | 0x03A5      |         933 |
|     104 | 0x042C      |        1068 |
|     105 | 0x0353      |         851 |
|     106 | 0x035A      |         858 |
|     107 | 0x038A      |         906 |
|     108 | 0x038B      |         907 |
|     109 | 0xFFFFFD7B  |  4294966651 |
|     110 | 0xAF9E      |       44958 |
|     111 | 0xFFFFFC55  |  4294966357 |
|     112 | 0xAFDF      |       45023 |
|     113 | 0x23DD7     |      146903 |
|     114 | 0xFFFFFDE7  |  4294966759 |
|     115 | 0xFFFFF830  |  4294965296 |

## Events

### Event 65535

#### Metadata

| Field        | Value   |
|--------------|---------|
| Entrypoint   | 0x0000  |
| Data Size    | 1 bytes |
| Instructions | 1       |

```
      00 01 02 03 04 05 06 07  08 09 0A 0B 0C 0D 0E 0F
      -- -- -- -- -- -- -- --  -- -- -- -- -- -- -- --
0000: 00                                                .               
```

#### Opcodes

```
  0: 0x0000 [0x00] END_REQSTACK()
```

### Event 65535.1

#### Metadata

| Field        | Value   |
|--------------|---------|
| Entrypoint   | 0x0001  |
| Data Size    | 1 bytes |
| Instructions | 1       |

```
      00 01 02 03 04 05 06 07  08 09 0A 0B 0C 0D 0E 0F
      -- -- -- -- -- -- -- --  -- -- -- -- -- -- -- --
0000:    00                                              .              
```

#### Opcodes

```
  0: 0x0001 [0x00] END_REQSTACK()
```

### Event 65535.2

#### Metadata

| Field        | Value    |
|--------------|----------|
| Entrypoint   | 0x0002   |
| Data Size    | 18 bytes |
| Instructions | 4        |

```
      00 01 02 03 04 05 06 07  08 09 0A 0B 0C 0D 0E 0F
      -- -- -- -- -- -- -- --  -- -- -- -- -- -- -- --
0000:       22 00 2F 00 F8 FF  FF 7F 6C F8 FF FF 7F 00    "./.....l.....
0010: 80 01 80 00                                       ....            
```

#### Opcodes

```
  0: 0x0002 [0x22] ENTITY_HIDE_FLAG(enabled=0x00)
  1: 0x0004 [0x2F] EventEntity->Render.Flags0 &= ~0x80000 // Bit 19
  2: 0x000A [0x6C] FADE_ENTITY_COLOR(entity_id=EventEntity, end_alpha=0*, fade_time=1*)
  3: 0x0013 [0x00] END_REQSTACK()
```

### Event 65535.3

#### Metadata

| Field        | Value    |
|--------------|----------|
| Entrypoint   | 0x0014   |
| Data Size    | 10 bytes |
| Instructions | 2        |

```
      00 01 02 03 04 05 06 07  08 09 0A 0B 0C 0D 0E 0F
      -- -- -- -- -- -- -- --  -- -- -- -- -- -- -- --
0010:             6C F8 FF FF  7F 02 80 01 80 00            l.........  
```

#### Opcodes

```
  0: 0x0014 [0x6C] FADE_ENTITY_COLOR(entity_id=EventEntity, end_alpha=128*, fade_time=1*)
  1: 0x001D [0x00] END_REQSTACK()
```

### Event 65535.4

#### Metadata

| Field        | Value   |
|--------------|---------|
| Entrypoint   | 0x001E  |
| Data Size    | 9 bytes |
| Instructions | 3       |

```
      00 01 02 03 04 05 06 07  08 09 0A 0B 0C 0D 0E 0F
      -- -- -- -- -- -- -- --  -- -- -- -- -- -- -- --
0010:                                            22 00                ".
0020: 2F 00 F8 FF FF 7F 00                              /......         
```

#### Opcodes

```
  0: 0x001E [0x22] ENTITY_HIDE_FLAG(enabled=0x00)
  1: 0x0020 [0x2F] EventEntity->Render.Flags0 &= ~0x80000 // Bit 19
  2: 0x0026 [0x00] END_REQSTACK()
```

### Event 65535.5

#### Metadata

| Field        | Value   |
|--------------|---------|
| Entrypoint   | 0x0027  |
| Data Size    | 9 bytes |
| Instructions | 3       |

```
      00 01 02 03 04 05 06 07  08 09 0A 0B 0C 0D 0E 0F
      -- -- -- -- -- -- -- --  -- -- -- -- -- -- -- --
0020:                      22  01 2F 01 F8 FF FF 7F 00         "./......
```

#### Opcodes

```
  0: 0x0027 [0x22] ENTITY_HIDE_FLAG(enabled=0x01)
  1: 0x0029 [0x2F] EventEntity->Render.Flags0 |= 0x80000 // Bit 19
  2: 0x002F [0x00] END_REQSTACK()
```

### Event 65535.6

#### Metadata

| Field        | Value    |
|--------------|----------|
| Entrypoint   | 0x0030   |
| Data Size    | 10 bytes |
| Instructions | 2        |

```
      00 01 02 03 04 05 06 07  08 09 0A 0B 0C 0D 0E 0F
      -- -- -- -- -- -- -- --  -- -- -- -- -- -- -- --
0030: 6C F8 FF FF 7F 00 80 01  80 00                    l.........      
```

#### Opcodes

```
  0: 0x0030 [0x6C] FADE_ENTITY_COLOR(entity_id=EventEntity, end_alpha=0*, fade_time=1*)
  1: 0x0039 [0x00] END_REQSTACK()
```

### Event 65535.7

#### Metadata

| Field        | Value    |
|--------------|----------|
| Entrypoint   | 0x003A   |
| Data Size    | 10 bytes |
| Instructions | 2        |

```
      00 01 02 03 04 05 06 07  08 09 0A 0B 0C 0D 0E 0F
      -- -- -- -- -- -- -- --  -- -- -- -- -- -- -- --
0030:                                6C F8 FF FF 7F 02            l.....
0040: 80 01 80 00                                       ....            
```

#### Opcodes

```
  0: 0x003A [0x6C] FADE_ENTITY_COLOR(entity_id=EventEntity, end_alpha=128*, fade_time=1*)
  1: 0x0043 [0x00] END_REQSTACK()
```

### Event 65535.8

#### Metadata

| Field        | Value   |
|--------------|---------|
| Entrypoint   | 0x0044  |
| Data Size    | 1 bytes |
| Instructions | 1       |

```
      00 01 02 03 04 05 06 07  08 09 0A 0B 0C 0D 0E 0F
      -- -- -- -- -- -- -- --  -- -- -- -- -- -- -- --
0040:             00                                        .           
```

#### Opcodes

```
  0: 0x0044 [0x00] END_REQSTACK()
```

### Event 3027

#### Metadata

| Field        | Value   |
|--------------|---------|
| Entrypoint   | 0x0045  |
| Data Size    | 1 bytes |
| Instructions | 1       |

```
      00 01 02 03 04 05 06 07  08 09 0A 0B 0C 0D 0E 0F
      -- -- -- -- -- -- -- --  -- -- -- -- -- -- -- --
0040:                00                                      .          
```

#### Opcodes

```
  0: 0x0045 [0x00] END_REQSTACK()
```

### Event 3034

#### Metadata

| Field        | Value   |
|--------------|---------|
| Entrypoint   | 0x0046  |
| Data Size    | 1 bytes |
| Instructions | 1       |

```
      00 01 02 03 04 05 06 07  08 09 0A 0B 0C 0D 0E 0F
      -- -- -- -- -- -- -- --  -- -- -- -- -- -- -- --
0040:                   00                                    .         
```

#### Opcodes

```
  0: 0x0046 [0x00] END_REQSTACK()
```

### Event 3078

#### Metadata

| Field        | Value   |
|--------------|---------|
| Entrypoint   | 0x0047  |
| Data Size    | 1 bytes |
| Instructions | 1       |

```
      00 01 02 03 04 05 06 07  08 09 0A 0B 0C 0D 0E 0F
      -- -- -- -- -- -- -- --  -- -- -- -- -- -- -- --
0040:                      00                                  .        
```

#### Opcodes

```
  0: 0x0047 [0x00] END_REQSTACK()
```

### Event 65535.9

#### Metadata

| Field        | Value    |
|--------------|----------|
| Entrypoint   | 0x0048   |
| Data Size    | 10 bytes |
| Instructions | 2        |

```
      00 01 02 03 04 05 06 07  08 09 0A 0B 0C 0D 0E 0F
      -- -- -- -- -- -- -- --  -- -- -- -- -- -- -- --
0040:                          37 03 80 04 80 00 80 05          7.......
0050: 80 00                                             ..              
```

#### Opcodes

```
  0: 0x0048 [0x37] UPDATE_EVENT_POSITION_AND_DIR: x=1.241*, z=50.958*, y=0.000*, direction=90.0°*
  1: 0x0051 [0x00] END_REQSTACK()
```

### Event 65535.10

#### Metadata

| Field        | Value    |
|--------------|----------|
| Entrypoint   | 0x0052   |
| Data Size    | 39 bytes |
| Instructions | 11       |

```
      00 01 02 03 04 05 06 07  08 09 0A 0B 0C 0D 0E 0F
      -- -- -- -- -- -- -- --  -- -- -- -- -- -- -- --
0050:       32 06 80 1F 00 07  80 08 80 09 80 1F 01 6F    2............o
0060: 4B F8 FF FF 7F 0A 80 6F  76 F8 FF FF 7F 1F 00 01  K......ov.......
0070: 80 0B 80 0C 80 1F 01 6F  00                       .......o.       
```

#### Opcodes

```
  0: 0x0052 [0x32] ExtData[1]->MainSpeed = 10* * 0.1
  1: 0x0055 [0x1F] MOVE_ENTITY: EventEntity moves to X=0.052*, Z=50.790*, Y=-0.020*
  2: 0x005D [0x1F] MOVE_ENTITY: Update entity position (mode=1)
  3: 0x005F [0x6F] WAIT_FRAME_DELAY: Yield until WaitTime reaches zero
  4: 0x0060 [0x4B] UPDATE_ENTITY_YAW(entity=EventEntity, yaw=16.9°*)
  5: 0x0067 [0x6F] WAIT_FRAME_DELAY: Yield until WaitTime reaches zero
  6: 0x0068 [0x76] CHECK_ENTITY_RENDER_FLAGS: Wait until EventEntity Render.Flags0 and Render.Flags3 conditions are met
  7: 0x006D [0x1F] MOVE_ENTITY: EventEntity moves to X=0.001*, Z=53.600*, Y=-1.215*
  8: 0x0075 [0x1F] MOVE_ENTITY: Update entity position (mode=1)
  9: 0x0077 [0x6F] WAIT_FRAME_DELAY: Yield until WaitTime reaches zero
 10: 0x0078 [0x00] END_REQSTACK()
```

### Event 65535.11

#### Metadata

| Field        | Value    |
|--------------|----------|
| Entrypoint   | 0x0079   |
| Data Size    | 10 bytes |
| Instructions | 2        |

```
      00 01 02 03 04 05 06 07  08 09 0A 0B 0C 0D 0E 0F
      -- -- -- -- -- -- -- --  -- -- -- -- -- -- -- --
0070:                             37 0D 80 0E 80 09 80           7......
0080: 05 80 00                                          ...             
```

#### Opcodes

```
  0: 0x0079 [0x37] UPDATE_EVENT_POSITION_AND_DIR: x=0.031*, z=50.662*, y=-0.020*, direction=90.0°*
  1: 0x0082 [0x00] END_REQSTACK()
```

### Event 65535.12

#### Metadata

| Field        | Value    |
|--------------|----------|
| Entrypoint   | 0x0083   |
| Data Size    | 15 bytes |
| Instructions | 5        |

```
      00 01 02 03 04 05 06 07  08 09 0A 0B 0C 0D 0E 0F
      -- -- -- -- -- -- -- --  -- -- -- -- -- -- -- --
0080:          32 06 80 1F 00  01 80 0F 80 00 80 1F 01     2............
0090: 6F 00                                             o.              
```

#### Opcodes

```
  0: 0x0083 [0x32] ExtData[1]->MainSpeed = 10* * 0.1
  1: 0x0086 [0x1F] MOVE_ENTITY: EventEntity moves to X=0.001*, Z=48.629*, Y=0.000*
  2: 0x008E [0x1F] MOVE_ENTITY: Update entity position (mode=1)
  3: 0x0090 [0x6F] WAIT_FRAME_DELAY: Yield until WaitTime reaches zero
  4: 0x0091 [0x00] END_REQSTACK()
```

### Event 65535.13

#### Metadata

| Field        | Value    |
|--------------|----------|
| Entrypoint   | 0x0092   |
| Data Size    | 27 bytes |
| Instructions | 9        |

```
      00 01 02 03 04 05 06 07  08 09 0A 0B 0C 0D 0E 0F
      -- -- -- -- -- -- -- --  -- -- -- -- -- -- -- --
0090:       32 10 80 1F 00 03  80 04 80 00 80 1F 01 6F    2............o
00A0: 1C 11 80 4B F8 FF FF 7F  05 80 6F 70 00           ...K......op.   
```

#### Opcodes

```
  0: 0x0092 [0x32] ExtData[1]->MainSpeed = 11* * 0.1
  1: 0x0095 [0x1F] MOVE_ENTITY: EventEntity moves to X=1.241*, Z=50.958*, Y=0.000*
  2: 0x009D [0x1F] MOVE_ENTITY: Update entity position (mode=1)
  3: 0x009F [0x6F] WAIT_FRAME_DELAY: Yield until WaitTime reaches zero
  4: 0x00A0 [0x1C] WAIT(15* ticks)
  5: 0x00A3 [0x4B] UPDATE_ENTITY_YAW(entity=EventEntity, yaw=5.6°*)
  6: 0x00AA [0x6F] WAIT_FRAME_DELAY: Yield until WaitTime reaches zero
  7: 0x00AB [0x70] WAIT_ENTITY_RENDER_FLAG: Wait while EventEntity->Render.Flags3 bit 2 is set (cancel turn if not)
  8: 0x00AC [0x00] END_REQSTACK()
```

### Event 65535.14

#### Metadata

| Field        | Value    |
|--------------|----------|
| Entrypoint   | 0x00AD   |
| Data Size    | 10 bytes |
| Instructions | 2        |

```
      00 01 02 03 04 05 06 07  08 09 0A 0B 0C 0D 0E 0F
      -- -- -- -- -- -- -- --  -- -- -- -- -- -- -- --
00A0:                                         37 12 80               7..
00B0: 13 80 00 80 14 80 00                              .......         
```

#### Opcodes

```
  0: 0x00AD [0x37] UPDATE_EVENT_POSITION_AND_DIR: x=1.129*, z=46.640*, y=0.000*, direction=180.0°*
  1: 0x00B6 [0x00] END_REQSTACK()
```

### Event 65535.15

#### Metadata

| Field        | Value    |
|--------------|----------|
| Entrypoint   | 0x00B7   |
| Data Size    | 22 bytes |
| Instructions | 8        |

```
      00 01 02 03 04 05 06 07  08 09 0A 0B 0C 0D 0E 0F
      -- -- -- -- -- -- -- --  -- -- -- -- -- -- -- --
00B0:                      32  15 80 1F 00 16 80 17 80         2........
00C0: 00 80 1F 01 6F 1E A9 20  03 01 6F 70 00           ....o.. ..op.   
```

#### Opcodes

```
  0: 0x00B7 [0x32] ExtData[1]->MainSpeed = 40* * 0.1
  1: 0x00BA [0x1F] MOVE_ENTITY: EventEntity moves to X=2.788*, Z=45.205*, Y=0.000*
  2: 0x00C2 [0x1F] MOVE_ENTITY: Update entity position (mode=1)
  3: 0x00C4 [0x6F] WAIT_FRAME_DELAY: Yield until WaitTime reaches zero
  4: 0x00C5 [0x1E] EventEntity looks at Razfahd (ID: 16982185/0x010320A9) and starts talking
  5: 0x00CA [0x6F] WAIT_FRAME_DELAY: Yield until WaitTime reaches zero
  6: 0x00CB [0x70] WAIT_ENTITY_RENDER_FLAG: Wait while EventEntity->Render.Flags3 bit 2 is set (cancel turn if not)
  7: 0x00CC [0x00] END_REQSTACK()
```

### Event 3090

#### Metadata

| Field        | Value   |
|--------------|---------|
| Entrypoint   | 0x00CD  |
| Data Size    | 1 bytes |
| Instructions | 1       |

```
      00 01 02 03 04 05 06 07  08 09 0A 0B 0C 0D 0E 0F
      -- -- -- -- -- -- -- --  -- -- -- -- -- -- -- --
00C0:                                         00                     .  
```

#### Opcodes

```
  0: 0x00CD [0x00] END_REQSTACK()
```

### Event 3093

#### Metadata

| Field        | Value   |
|--------------|---------|
| Entrypoint   | 0x00CE  |
| Data Size    | 1 bytes |
| Instructions | 1       |

```
      00 01 02 03 04 05 06 07  08 09 0A 0B 0C 0D 0E 0F
      -- -- -- -- -- -- -- --  -- -- -- -- -- -- -- --
00C0:                                            00                   . 
```

#### Opcodes

```
  0: 0x00CE [0x00] END_REQSTACK()
```

### Event 65535.16

#### Metadata

| Field        | Value   |
|--------------|---------|
| Entrypoint   | 0x00CF  |
| Data Size    | 3 bytes |
| Instructions | 2       |

```
      00 01 02 03 04 05 06 07  08 09 0A 0B 0C 0D 0E 0F
      -- -- -- -- -- -- -- --  -- -- -- -- -- -- -- --
00C0:                                               A4                 .
00D0: 01 00                                             ..              
```

#### Opcodes

```
  0: 0x00CF [0xA4] EventEntity->Flags3.unknown_3_2 = 1
  1: 0x00D1 [0x00] END_REQSTACK()
```

### Event 65535.17

#### Metadata

| Field        | Value    |
|--------------|----------|
| Entrypoint   | 0x00D2   |
| Data Size    | 25 bytes |
| Instructions | 7        |

```
      00 01 02 03 04 05 06 07  08 09 0A 0B 0C 0D 0E 0F
      -- -- -- -- -- -- -- --  -- -- -- -- -- -- -- --
00D0:       1E CA 20 03 01 32  10 80 1F 00 18 80 19 80    .. ..2........
00E0: 00 80 1F 01 6F 1E CA 20  03 01 00                 ....o.. ...     
```

#### Opcodes

```
  0: 0x00D2 [0x1E] EventEntity looks at Aphmau (ID: 16982218/0x010320CA) and starts talking
  1: 0x00D7 [0x32] ExtData[1]->MainSpeed = 11* * 0.1
  2: 0x00DA [0x1F] MOVE_ENTITY: EventEntity moves to X=-2.592*, Z=30.736*, Y=0.000*
  3: 0x00E2 [0x1F] MOVE_ENTITY: Update entity position (mode=1)
  4: 0x00E4 [0x6F] WAIT_FRAME_DELAY: Yield until WaitTime reaches zero
  5: 0x00E5 [0x1E] EventEntity looks at Aphmau (ID: 16982218/0x010320CA) and starts talking
  6: 0x00EA [0x00] END_REQSTACK()
```

### Event 65535.18

#### Metadata

| Field        | Value    |
|--------------|----------|
| Entrypoint   | 0x00EB   |
| Data Size    | 22 bytes |
| Instructions | 8        |

```
      00 01 02 03 04 05 06 07  08 09 0A 0B 0C 0D 0E 0F
      -- -- -- -- -- -- -- --  -- -- -- -- -- -- -- --
00E0:                                   32 10 80 1F 00             2....
00F0: 1A 80 1B 80 00 80 1F 01  6F 1E A9 20 03 01 6F 70  ........o.. ..op
0100: 00                                                .               
```

#### Opcodes

```
  0: 0x00EB [0x32] ExtData[1]->MainSpeed = 11* * 0.1
  1: 0x00EE [0x1F] MOVE_ENTITY: EventEntity moves to X=0.386*, Z=25.103*, Y=0.000*
  2: 0x00F6 [0x1F] MOVE_ENTITY: Update entity position (mode=1)
  3: 0x00F8 [0x6F] WAIT_FRAME_DELAY: Yield until WaitTime reaches zero
  4: 0x00F9 [0x1E] EventEntity looks at Razfahd (ID: 16982185/0x010320A9) and starts talking
  5: 0x00FE [0x6F] WAIT_FRAME_DELAY: Yield until WaitTime reaches zero
  6: 0x00FF [0x70] WAIT_ENTITY_RENDER_FLAG: Wait while EventEntity->Render.Flags3 bit 2 is set (cancel turn if not)
  7: 0x0100 [0x00] END_REQSTACK()
```

### Event 65535.19

#### Metadata

| Field        | Value    |
|--------------|----------|
| Entrypoint   | 0x0101   |
| Data Size    | 20 bytes |
| Instructions | 6        |

```
      00 01 02 03 04 05 06 07  08 09 0A 0B 0C 0D 0E 0F
      -- -- -- -- -- -- -- --  -- -- -- -- -- -- -- --
0100:    32 10 80 1F 00 1C 80  1D 80 00 80 1F 01 6F 1E   2............o.
0110: A9 20 03 01 00                                    . ...           
```

#### Opcodes

```
  0: 0x0101 [0x32] ExtData[1]->MainSpeed = 11* * 0.1
  1: 0x0104 [0x1F] MOVE_ENTITY: EventEntity moves to X=1.005*, Z=11.150*, Y=0.000*
  2: 0x010C [0x1F] MOVE_ENTITY: Update entity position (mode=1)
  3: 0x010E [0x6F] WAIT_FRAME_DELAY: Yield until WaitTime reaches zero
  4: 0x010F [0x1E] EventEntity looks at Razfahd (ID: 16982185/0x010320A9) and starts talking
  5: 0x0114 [0x00] END_REQSTACK()
```

### Event 3095

#### Metadata

| Field        | Value   |
|--------------|---------|
| Entrypoint   | 0x0115  |
| Data Size    | 1 bytes |
| Instructions | 1       |

```
      00 01 02 03 04 05 06 07  08 09 0A 0B 0C 0D 0E 0F
      -- -- -- -- -- -- -- --  -- -- -- -- -- -- -- --
0110:                00                                      .          
```

#### Opcodes

```
  0: 0x0115 [0x00] END_REQSTACK()
```

### Event 65535.20

#### Metadata

| Field        | Value    |
|--------------|----------|
| Entrypoint   | 0x0116   |
| Data Size    | 10 bytes |
| Instructions | 2        |

```
      00 01 02 03 04 05 06 07  08 09 0A 0B 0C 0D 0E 0F
      -- -- -- -- -- -- -- --  -- -- -- -- -- -- -- --
0110:                   37 1E  80 1F 80 00 80 20 80 00        7...... ..
```

#### Opcodes

```
  0: 0x0116 [0x37] UPDATE_EVENT_POSITION_AND_DIR: x=-9.484*, z=52.661*, y=0.000*, direction=184.5°*
  1: 0x011F [0x00] END_REQSTACK()
```

### Event 65535.21

#### Metadata

| Field        | Value    |
|--------------|----------|
| Entrypoint   | 0x0120   |
| Data Size    | 15 bytes |
| Instructions | 5        |

```
      00 01 02 03 04 05 06 07  08 09 0A 0B 0C 0D 0E 0F
      -- -- -- -- -- -- -- --  -- -- -- -- -- -- -- --
0120: 32 10 80 1F 00 21 80 22  80 00 80 1F 01 6F 00     2....!.".....o. 
```

#### Opcodes

```
  0: 0x0120 [0x32] ExtData[1]->MainSpeed = 11* * 0.1
  1: 0x0123 [0x1F] MOVE_ENTITY: EventEntity moves to X=-9.065*, Z=50.158*, Y=0.000*
  2: 0x012B [0x1F] MOVE_ENTITY: Update entity position (mode=1)
  3: 0x012D [0x6F] WAIT_FRAME_DELAY: Yield until WaitTime reaches zero
  4: 0x012E [0x00] END_REQSTACK()
```

### Event 825

#### Metadata

| Field        | Value   |
|--------------|---------|
| Entrypoint   | 0x012F  |
| Data Size    | 1 bytes |
| Instructions | 1       |

```
      00 01 02 03 04 05 06 07  08 09 0A 0B 0C 0D 0E 0F
      -- -- -- -- -- -- -- --  -- -- -- -- -- -- -- --
0120:                                               00                 .
```

#### Opcodes

```
  0: 0x012F [0x00] END_REQSTACK()
```

### Event 3112

#### Metadata

| Field        | Value   |
|--------------|---------|
| Entrypoint   | 0x0130  |
| Data Size    | 1 bytes |
| Instructions | 1       |

```
      00 01 02 03 04 05 06 07  08 09 0A 0B 0C 0D 0E 0F
      -- -- -- -- -- -- -- --  -- -- -- -- -- -- -- --
0130: 00                                                .               
```

#### Opcodes

```
  0: 0x0130 [0x00] END_REQSTACK()
```

### Event 65535.22

#### Metadata

| Field        | Value    |
|--------------|----------|
| Entrypoint   | 0x0131   |
| Data Size    | 14 bytes |
| Instructions | 4        |

```
      00 01 02 03 04 05 06 07  08 09 0A 0B 0C 0D 0E 0F
      -- -- -- -- -- -- -- --  -- -- -- -- -- -- -- --
0130:    32 23 80 1F 00 24 80  25 80 26 80 1F 01 00      2#...$.%.&.... 
```

#### Opcodes

```
  0: 0x0131 [0x32] ExtData[1]->MainSpeed = 13* * 0.1
  1: 0x0134 [0x1F] MOVE_ENTITY: EventEntity moves to X=78.455*, Z=50.246*, Y=0.480*
  2: 0x013C [0x1F] MOVE_ENTITY: Update entity position (mode=1)
  3: 0x013E [0x00] END_REQSTACK()
```

### Event 65535.23

#### Metadata

| Field        | Value    |
|--------------|----------|
| Entrypoint   | 0x013F   |
| Data Size    | 22 bytes |
| Instructions | 6        |

```
      00 01 02 03 04 05 06 07  08 09 0A 0B 0C 0D 0E 0F
      -- -- -- -- -- -- -- --  -- -- -- -- -- -- -- --
0130:                                               32                 2
0140: 23 80 1F 00 27 80 28 80  29 80 1F 01 1E A9 20 03  #...'.(.)..... .
0150: 01 1C 2A 80 00                                    ..*..           
```

#### Opcodes

```
  0: 0x013F [0x32] ExtData[1]->MainSpeed = 13* * 0.1
  1: 0x0142 [0x1F] MOVE_ENTITY: EventEntity moves to X=79.265*, Z=35.562*, Y=0.385*
  2: 0x014A [0x1F] MOVE_ENTITY: Update entity position (mode=1)
  3: 0x014C [0x1E] EventEntity looks at Razfahd (ID: 16982185/0x010320A9) and starts talking
  4: 0x0151 [0x1C] WAIT(30* ticks)
  5: 0x0154 [0x00] END_REQSTACK()
```

### Event 65535.24

#### Metadata

| Field        | Value    |
|--------------|----------|
| Entrypoint   | 0x0155   |
| Data Size    | 14 bytes |
| Instructions | 4        |

```
      00 01 02 03 04 05 06 07  08 09 0A 0B 0C 0D 0E 0F
      -- -- -- -- -- -- -- --  -- -- -- -- -- -- -- --
0150:                32 23 80  1F 00 2B 80 2C 80 2D 80       2#...+.,.-.
0160: 1F 01 00                                          ...             
```

#### Opcodes

```
  0: 0x0155 [0x32] ExtData[1]->MainSpeed = 13* * 0.1
  1: 0x0158 [0x1F] MOVE_ENTITY: EventEntity moves to X=130.053*, Z=120.458*, Y=2.999*
  2: 0x0160 [0x1F] MOVE_ENTITY: Update entity position (mode=1)
  3: 0x0162 [0x00] END_REQSTACK()
```

### Event 65535.25

#### Metadata

| Field        | Value    |
|--------------|----------|
| Entrypoint   | 0x0163   |
| Data Size    | 22 bytes |
| Instructions | 6        |

```
      00 01 02 03 04 05 06 07  08 09 0A 0B 0C 0D 0E 0F
      -- -- -- -- -- -- -- --  -- -- -- -- -- -- -- --
0160:          32 23 80 1F 00  2E 80 2F 80 30 80 1F 01     2#...../.0...
0170: 1E CA 20 03 01 1C 2A 80  00                       .. ...*..       
```

#### Opcodes

```
  0: 0x0163 [0x32] ExtData[1]->MainSpeed = 13* * 0.1
  1: 0x0166 [0x1F] MOVE_ENTITY: EventEntity moves to X=125.189*, Z=120.433*, Y=3.000*
  2: 0x016E [0x1F] MOVE_ENTITY: Update entity position (mode=1)
  3: 0x0170 [0x1E] EventEntity looks at Aphmau (ID: 16982218/0x010320CA) and starts talking
  4: 0x0175 [0x1C] WAIT(30* ticks)
  5: 0x0178 [0x00] END_REQSTACK()
```

### Event 65535.26

#### Metadata

| Field        | Value    |
|--------------|----------|
| Entrypoint   | 0x0179   |
| Data Size    | 14 bytes |
| Instructions | 4        |

```
      00 01 02 03 04 05 06 07  08 09 0A 0B 0C 0D 0E 0F
      -- -- -- -- -- -- -- --  -- -- -- -- -- -- -- --
0170:                             32 23 80 1F 00 31 80           2#...1.
0180: 32 80 2D 80 1F 01 00                              2.-....         
```

#### Opcodes

```
  0: 0x0179 [0x32] ExtData[1]->MainSpeed = 13* * 0.1
  1: 0x017C [0x1F] MOVE_ENTITY: EventEntity moves to X=121.896*, Z=120.600*, Y=2.999*
  2: 0x0184 [0x1F] MOVE_ENTITY: Update entity position (mode=1)
  3: 0x0186 [0x00] END_REQSTACK()
```

### Event 65535.27

#### Metadata

| Field        | Value    |
|--------------|----------|
| Entrypoint   | 0x0187   |
| Data Size    | 22 bytes |
| Instructions | 6        |

```
      00 01 02 03 04 05 06 07  08 09 0A 0B 0C 0D 0E 0F
      -- -- -- -- -- -- -- --  -- -- -- -- -- -- -- --
0180:                      32  23 80 1F 00 33 80 34 80         2#...3.4.
0190: 35 80 1F 01 1E F0 FF FF  7F 1C 2A 80 00           5.........*..   
```

#### Opcodes

```
  0: 0x0187 [0x32] ExtData[1]->MainSpeed = 13* * 0.1
  1: 0x018A [0x1F] MOVE_ENTITY: EventEntity moves to X=110.174*, Z=118.894*, Y=2.000*
  2: 0x0192 [0x1F] MOVE_ENTITY: Update entity position (mode=1)
  3: 0x0194 [0x1E] EventEntity looks at LocalPlayer and starts talking
  4: 0x0199 [0x1C] WAIT(30* ticks)
  5: 0x019C [0x00] END_REQSTACK()
```

### Event 65535.28

#### Metadata

| Field        | Value    |
|--------------|----------|
| Entrypoint   | 0x019D   |
| Data Size    | 14 bytes |
| Instructions | 4        |

```
      00 01 02 03 04 05 06 07  08 09 0A 0B 0C 0D 0E 0F
      -- -- -- -- -- -- -- --  -- -- -- -- -- -- -- --
0190:                                         32 23 80               2#.
01A0: 1F 00 36 80 37 80 35 80  1F 01 00                 ..6.7.5....     
```

#### Opcodes

```
  0: 0x019D [0x32] ExtData[1]->MainSpeed = 13* * 0.1
  1: 0x01A0 [0x1F] MOVE_ENTITY: EventEntity moves to X=106.192*, Z=118.802*, Y=2.000*
  2: 0x01A8 [0x1F] MOVE_ENTITY: Update entity position (mode=1)
  3: 0x01AA [0x00] END_REQSTACK()
```

### Event 65535.29

#### Metadata

| Field        | Value    |
|--------------|----------|
| Entrypoint   | 0x01AB   |
| Data Size    | 19 bytes |
| Instructions | 5        |

```
      00 01 02 03 04 05 06 07  08 09 0A 0B 0C 0D 0E 0F
      -- -- -- -- -- -- -- --  -- -- -- -- -- -- -- --
01A0:                                   32 23 80 1F 00             2#...
01B0: 38 80 39 80 26 80 1F 01  1E C5 20 03 01 00        8.9.&..... ...  
```

#### Opcodes

```
  0: 0x01AB [0x32] ExtData[1]->MainSpeed = 13* * 0.1
  1: 0x01AE [0x1F] MOVE_ENTITY: EventEntity moves to X=78.836*, Z=50.910*, Y=0.480*
  2: 0x01B6 [0x1F] MOVE_ENTITY: Update entity position (mode=1)
  3: 0x01B8 [0x1E] EventEntity looks at Rishfee (ID: 16982213/0x010320C5) and starts talking
  4: 0x01BD [0x00] END_REQSTACK()
```

### Event 65535.30

#### Metadata

| Field        | Value    |
|--------------|----------|
| Entrypoint   | 0x01BE   |
| Data Size    | 14 bytes |
| Instructions | 4        |

```
      00 01 02 03 04 05 06 07  08 09 0A 0B 0C 0D 0E 0F
      -- -- -- -- -- -- -- --  -- -- -- -- -- -- -- --
01B0:                                            32 23                2#
01C0: 80 1F 00 3A 80 3B 80 26  80 1F 01 00              ...:.;.&....    
```

#### Opcodes

```
  0: 0x01BE [0x32] ExtData[1]->MainSpeed = 13* * 0.1
  1: 0x01C1 [0x1F] MOVE_ENTITY: EventEntity moves to X=72.936*, Z=45.260*, Y=0.480*
  2: 0x01C9 [0x1F] MOVE_ENTITY: Update entity position (mode=1)
  3: 0x01CB [0x00] END_REQSTACK()
```

### Event 65535.31

#### Metadata

| Field        | Value    |
|--------------|----------|
| Entrypoint   | 0x01CC   |
| Data Size    | 14 bytes |
| Instructions | 4        |

```
      00 01 02 03 04 05 06 07  08 09 0A 0B 0C 0D 0E 0F
      -- -- -- -- -- -- -- --  -- -- -- -- -- -- -- --
01C0:                                      32 23 80 1F              2#..
01D0: 00 3C 80 3D 80 3E 80 1F  01 00                    .<.=.>....      
```

#### Opcodes

```
  0: 0x01CC [0x32] ExtData[1]->MainSpeed = 13* * 0.1
  1: 0x01CF [0x1F] MOVE_ENTITY: EventEntity moves to X=80.801*, Z=23.174*, Y=-0.316*
  2: 0x01D7 [0x1F] MOVE_ENTITY: Update entity position (mode=1)
  3: 0x01D9 [0x00] END_REQSTACK()
```

### Event 3130

#### Metadata

| Field        | Value   |
|--------------|---------|
| Entrypoint   | 0x01DA  |
| Data Size    | 1 bytes |
| Instructions | 1       |

```
      00 01 02 03 04 05 06 07  08 09 0A 0B 0C 0D 0E 0F
      -- -- -- -- -- -- -- --  -- -- -- -- -- -- -- --
01D0:                                00                           .     
```

#### Opcodes

```
  0: 0x01DA [0x00] END_REQSTACK()
```

### Event 3131

#### Metadata

| Field        | Value   |
|--------------|---------|
| Entrypoint   | 0x01DB  |
| Data Size    | 1 bytes |
| Instructions | 1       |

```
      00 01 02 03 04 05 06 07  08 09 0A 0B 0C 0D 0E 0F
      -- -- -- -- -- -- -- --  -- -- -- -- -- -- -- --
01D0:                                   00                         .    
```

#### Opcodes

```
  0: 0x01DB [0x00] END_REQSTACK()
```

### Event 3140

#### Metadata

| Field        | Value   |
|--------------|---------|
| Entrypoint   | 0x01DC  |
| Data Size    | 7 bytes |
| Instructions | 2       |

```
      00 01 02 03 04 05 06 07  08 09 0A 0B 0C 0D 0E 0F
      -- -- -- -- -- -- -- --  -- -- -- -- -- -- -- --
01D0:                                      92 01 F8 FF              ....
01E0: FF 7F 00                                          ...             
```

#### Opcodes

```
  0: 0x01DC [0x92] EventEntity->Render.Flags3 ^= 0x01
  1: 0x01E2 [0x00] END_REQSTACK()
```

### Event 65535.32

#### Metadata

| Field        | Value    |
|--------------|----------|
| Entrypoint   | 0x01E3   |
| Data Size    | 22 bytes |
| Instructions | 6        |

```
      00 01 02 03 04 05 06 07  08 09 0A 0B 0C 0D 0E 0F
      -- -- -- -- -- -- -- --  -- -- -- -- -- -- -- --
01E0:          32 23 80 1F 00  3F 80 40 80 00 80 1F 01     2#...?.@.....
01F0: 1E E6 20 03 01 1C 41 80  00                       .. ...A..       
```

#### Opcodes

```
  0: 0x01E3 [0x32] ExtData[1]->MainSpeed = 13* * 0.1
  1: 0x01E6 [0x1F] MOVE_ENTITY: EventEntity moves to X=1.566*, Z=49.370*, Y=0.000*
  2: 0x01EE [0x1F] MOVE_ENTITY: Update entity position (mode=1)
  3: 0x01F0 [0x1E] EventEntity looks at Bharifhal (ID: 16982246/0x010320E6) and starts talking
  4: 0x01F5 [0x1C] WAIT(60* ticks)
  5: 0x01F8 [0x00] END_REQSTACK()
```

### Event 65535.33

#### Metadata

| Field        | Value    |
|--------------|----------|
| Entrypoint   | 0x01F9   |
| Data Size    | 22 bytes |
| Instructions | 6        |

```
      00 01 02 03 04 05 06 07  08 09 0A 0B 0C 0D 0E 0F
      -- -- -- -- -- -- -- --  -- -- -- -- -- -- -- --
01F0:                             32 23 80 1F 00 42 80           2#...B.
0200: 43 80 00 80 1F 01 1E F0  FF FF 7F 1C 2A 80 00     C...........*.. 
```

#### Opcodes

```
  0: 0x01F9 [0x32] ExtData[1]->MainSpeed = 13* * 0.1
  1: 0x01FC [0x1F] MOVE_ENTITY: EventEntity moves to X=0.840*, Z=50.006*, Y=0.000*
  2: 0x0204 [0x1F] MOVE_ENTITY: Update entity position (mode=1)
  3: 0x0206 [0x1E] EventEntity looks at LocalPlayer and starts talking
  4: 0x020B [0x1C] WAIT(30* ticks)
  5: 0x020E [0x00] END_REQSTACK()
```

### Event 3155

#### Metadata

| Field        | Value   |
|--------------|---------|
| Entrypoint   | 0x020F  |
| Data Size    | 1 bytes |
| Instructions | 1       |

```
      00 01 02 03 04 05 06 07  08 09 0A 0B 0C 0D 0E 0F
      -- -- -- -- -- -- -- --  -- -- -- -- -- -- -- --
0200:                                               00                 .
```

#### Opcodes

```
  0: 0x020F [0x00] END_REQSTACK()
```

### Event 65535.34

#### Metadata

| Field        | Value    |
|--------------|----------|
| Entrypoint   | 0x0210   |
| Data Size    | 29 bytes |
| Instructions | 9        |

```
      00 01 02 03 04 05 06 07  08 09 0A 0B 0C 0D 0E 0F
      -- -- -- -- -- -- -- --  -- -- -- -- -- -- -- --
0210: 32 10 80 1F 00 44 80 45  80 09 80 1F 01 6F 1C 11  2....D.E.....o..
0220: 80 1F 00 44 80 46 80 00  80 1F 01 6F 00           ...D.F.....o.   
```

#### Opcodes

```
  0: 0x0210 [0x32] ExtData[1]->MainSpeed = 11* * 0.1
  1: 0x0213 [0x1F] MOVE_ENTITY: EventEntity moves to X=-0.067*, Z=50.800*, Y=-0.020*
  2: 0x021B [0x1F] MOVE_ENTITY: Update entity position (mode=1)
  3: 0x021D [0x6F] WAIT_FRAME_DELAY: Yield until WaitTime reaches zero
  4: 0x021E [0x1C] WAIT(15* ticks)
  5: 0x0221 [0x1F] MOVE_ENTITY: EventEntity moves to X=-0.067*, Z=50.000*, Y=0.000*
  6: 0x0229 [0x1F] MOVE_ENTITY: Update entity position (mode=1)
  7: 0x022B [0x6F] WAIT_FRAME_DELAY: Yield until WaitTime reaches zero
  8: 0x022C [0x00] END_REQSTACK()
```

### Event 65535.35

#### Metadata

| Field        | Value    |
|--------------|----------|
| Entrypoint   | 0x022D   |
| Data Size    | 41 bytes |
| Instructions | 13       |

```
      00 01 02 03 04 05 06 07  08 09 0A 0B 0C 0D 0E 0F
      -- -- -- -- -- -- -- --  -- -- -- -- -- -- -- --
0220:                                         32 10 80               2..
0230: 1F 00 44 80 45 80 09 80  1F 01 6F 1C 11 80 1F 00  ..D.E.....o.....
0240: 03 80 04 80 00 80 1F 01  6F 1C 11 80 4B F8 FF FF  ........o...K...
0250: 7F 05 80 6F 70 00                                 ...op.          
```

#### Opcodes

```
  0: 0x022D [0x32] ExtData[1]->MainSpeed = 11* * 0.1
  1: 0x0230 [0x1F] MOVE_ENTITY: EventEntity moves to X=-0.067*, Z=50.800*, Y=-0.020*
  2: 0x0238 [0x1F] MOVE_ENTITY: Update entity position (mode=1)
  3: 0x023A [0x6F] WAIT_FRAME_DELAY: Yield until WaitTime reaches zero
  4: 0x023B [0x1C] WAIT(15* ticks)
  5: 0x023E [0x1F] MOVE_ENTITY: EventEntity moves to X=1.241*, Z=50.958*, Y=0.000*
  6: 0x0246 [0x1F] MOVE_ENTITY: Update entity position (mode=1)
  7: 0x0248 [0x6F] WAIT_FRAME_DELAY: Yield until WaitTime reaches zero
  8: 0x0249 [0x1C] WAIT(15* ticks)
  9: 0x024C [0x4B] UPDATE_ENTITY_YAW(entity=EventEntity, yaw=5.6°*)
 10: 0x0253 [0x6F] WAIT_FRAME_DELAY: Yield until WaitTime reaches zero
 11: 0x0254 [0x70] WAIT_ENTITY_RENDER_FLAG: Wait while EventEntity->Render.Flags3 bit 2 is set (cancel turn if not)
 12: 0x0255 [0x00] END_REQSTACK()
```

### Event 3215

#### Metadata

| Field        | Value   |
|--------------|---------|
| Entrypoint   | 0x0256  |
| Data Size    | 1 bytes |
| Instructions | 1       |

```
      00 01 02 03 04 05 06 07  08 09 0A 0B 0C 0D 0E 0F
      -- -- -- -- -- -- -- --  -- -- -- -- -- -- -- --
0250:                   00                                    .         
```

#### Opcodes

```
  0: 0x0256 [0x00] END_REQSTACK()
```

### Event 3216

#### Metadata

| Field        | Value   |
|--------------|---------|
| Entrypoint   | 0x0257  |
| Data Size    | 1 bytes |
| Instructions | 1       |

```
      00 01 02 03 04 05 06 07  08 09 0A 0B 0C 0D 0E 0F
      -- -- -- -- -- -- -- --  -- -- -- -- -- -- -- --
0250:                      00                                  .        
```

#### Opcodes

```
  0: 0x0257 [0x00] END_REQSTACK()
```

### Event 65535.36

#### Metadata

| Field        | Value   |
|--------------|---------|
| Entrypoint   | 0x0258  |
| Data Size    | 1 bytes |
| Instructions | 1       |

```
      00 01 02 03 04 05 06 07  08 09 0A 0B 0C 0D 0E 0F
      -- -- -- -- -- -- -- --  -- -- -- -- -- -- -- --
0250:                          00                               .       
```

#### Opcodes

```
  0: 0x0258 [0x00] END_REQSTACK()
```

### Event 65535.37

#### Metadata

| Field        | Value   |
|--------------|---------|
| Entrypoint   | 0x0259  |
| Data Size    | 1 bytes |
| Instructions | 1       |

```
      00 01 02 03 04 05 06 07  08 09 0A 0B 0C 0D 0E 0F
      -- -- -- -- -- -- -- --  -- -- -- -- -- -- -- --
0250:                             00                             .      
```

#### Opcodes

```
  0: 0x0259 [0x00] END_REQSTACK()
```

### Event 65535.38

#### Metadata

| Field        | Value   |
|--------------|---------|
| Entrypoint   | 0x025A  |
| Data Size    | 1 bytes |
| Instructions | 1       |

```
      00 01 02 03 04 05 06 07  08 09 0A 0B 0C 0D 0E 0F
      -- -- -- -- -- -- -- --  -- -- -- -- -- -- -- --
0250:                                00                           .     
```

#### Opcodes

```
  0: 0x025A [0x00] END_REQSTACK()
```

### Event 65535.39

#### Metadata

| Field        | Value   |
|--------------|---------|
| Entrypoint   | 0x025B  |
| Data Size    | 1 bytes |
| Instructions | 1       |

```
      00 01 02 03 04 05 06 07  08 09 0A 0B 0C 0D 0E 0F
      -- -- -- -- -- -- -- --  -- -- -- -- -- -- -- --
0250:                                   00                         .    
```

#### Opcodes

```
  0: 0x025B [0x00] END_REQSTACK()
```

### Event 65535.40

#### Metadata

| Field        | Value   |
|--------------|---------|
| Entrypoint   | 0x025C  |
| Data Size    | 1 bytes |
| Instructions | 1       |

```
      00 01 02 03 04 05 06 07  08 09 0A 0B 0C 0D 0E 0F
      -- -- -- -- -- -- -- --  -- -- -- -- -- -- -- --
0250:                                      00                       .   
```

#### Opcodes

```
  0: 0x025C [0x00] END_REQSTACK()
```

### Event 65535.41

#### Metadata

| Field        | Value   |
|--------------|---------|
| Entrypoint   | 0x025D  |
| Data Size    | 1 bytes |
| Instructions | 1       |

```
      00 01 02 03 04 05 06 07  08 09 0A 0B 0C 0D 0E 0F
      -- -- -- -- -- -- -- --  -- -- -- -- -- -- -- --
0250:                                         00                     .  
```

#### Opcodes

```
  0: 0x025D [0x00] END_REQSTACK()
```

### Event 65535.42

#### Metadata

| Field        | Value   |
|--------------|---------|
| Entrypoint   | 0x025E  |
| Data Size    | 1 bytes |
| Instructions | 1       |

```
      00 01 02 03 04 05 06 07  08 09 0A 0B 0C 0D 0E 0F
      -- -- -- -- -- -- -- --  -- -- -- -- -- -- -- --
0250:                                            00                   . 
```

#### Opcodes

```
  0: 0x025E [0x00] END_REQSTACK()
```

### Event 65535.43

#### Metadata

| Field        | Value   |
|--------------|---------|
| Entrypoint   | 0x025F  |
| Data Size    | 1 bytes |
| Instructions | 1       |

```
      00 01 02 03 04 05 06 07  08 09 0A 0B 0C 0D 0E 0F
      -- -- -- -- -- -- -- --  -- -- -- -- -- -- -- --
0250:                                               00                 .
```

#### Opcodes

```
  0: 0x025F [0x00] END_REQSTACK()
```

### Event 65535.44

#### Metadata

| Field        | Value   |
|--------------|---------|
| Entrypoint   | 0x0260  |
| Data Size    | 1 bytes |
| Instructions | 1       |

```
      00 01 02 03 04 05 06 07  08 09 0A 0B 0C 0D 0E 0F
      -- -- -- -- -- -- -- --  -- -- -- -- -- -- -- --
0260: 00                                                .               
```

#### Opcodes

```
  0: 0x0260 [0x00] END_REQSTACK()
```

### Event 65535.45

#### Metadata

| Field        | Value   |
|--------------|---------|
| Entrypoint   | 0x0261  |
| Data Size    | 1 bytes |
| Instructions | 1       |

```
      00 01 02 03 04 05 06 07  08 09 0A 0B 0C 0D 0E 0F
      -- -- -- -- -- -- -- --  -- -- -- -- -- -- -- --
0260:    00                                              .              
```

#### Opcodes

```
  0: 0x0261 [0x00] END_REQSTACK()
```

### Event 65535.46

#### Metadata

| Field        | Value   |
|--------------|---------|
| Entrypoint   | 0x0262  |
| Data Size    | 1 bytes |
| Instructions | 1       |

```
      00 01 02 03 04 05 06 07  08 09 0A 0B 0C 0D 0E 0F
      -- -- -- -- -- -- -- --  -- -- -- -- -- -- -- --
0260:       00                                            .             
```

#### Opcodes

```
  0: 0x0262 [0x00] END_REQSTACK()
```

### Event 65535.47

#### Metadata

| Field        | Value    |
|--------------|----------|
| Entrypoint   | 0x0263   |
| Data Size    | 24 bytes |
| Instructions | 6        |

```
      00 01 02 03 04 05 06 07  08 09 0A 0B 0C 0D 0E 0F
      -- -- -- -- -- -- -- --  -- -- -- -- -- -- -- --
0260:          32 23 80 1F 00  47 80 48 80 26 80 1F 01     2#...G.H.&...
0270: 6F 4A F8 FF FF 7F F0 FF  FF 7F 00                 oJ.........     
```

#### Opcodes

```
  0: 0x0263 [0x32] ExtData[1]->MainSpeed = 13* * 0.1
  1: 0x0266 [0x1F] MOVE_ENTITY: EventEntity moves to X=82.360*, Z=50.309*, Y=0.480*
  2: 0x026E [0x1F] MOVE_ENTITY: Update entity position (mode=1)
  3: 0x0270 [0x6F] WAIT_FRAME_DELAY: Yield until WaitTime reaches zero
  4: 0x0271 [0x4A] EventEntity looks at LocalPlayer
  5: 0x027A [0x00] END_REQSTACK()
```

### Event 65535.48

#### Metadata

| Field        | Value   |
|--------------|---------|
| Entrypoint   | 0x027B  |
| Data Size    | 1 bytes |
| Instructions | 1       |

```
      00 01 02 03 04 05 06 07  08 09 0A 0B 0C 0D 0E 0F
      -- -- -- -- -- -- -- --  -- -- -- -- -- -- -- --
0270:                                   00                         .    
```

#### Opcodes

```
  0: 0x027B [0x00] END_REQSTACK()
```

### Event 65535.49

#### Metadata

| Field        | Value   |
|--------------|---------|
| Entrypoint   | 0x027C  |
| Data Size    | 1 bytes |
| Instructions | 1       |

```
      00 01 02 03 04 05 06 07  08 09 0A 0B 0C 0D 0E 0F
      -- -- -- -- -- -- -- --  -- -- -- -- -- -- -- --
0270:                                      00                       .   
```

#### Opcodes

```
  0: 0x027C [0x00] END_REQSTACK()
```

### Event 65535.50

#### Metadata

| Field        | Value    |
|--------------|----------|
| Entrypoint   | 0x027D   |
| Data Size    | 30 bytes |
| Instructions | 8        |

```
      00 01 02 03 04 05 06 07  08 09 0A 0B 0C 0D 0E 0F
      -- -- -- -- -- -- -- --  -- -- -- -- -- -- -- --
0270:                                         32 23 80               2#.
0280: 1F 00 49 80 4A 80 26 80  1F 01 1F 00 4B 80 4C 80  ..I.J.&.....K.L.
0290: 26 80 1F 01 6F 1E F0 FF  FF 7F 00                 &...o......     
```

#### Opcodes

```
  0: 0x027D [0x32] ExtData[1]->MainSpeed = 13* * 0.1
  1: 0x0280 [0x1F] MOVE_ENTITY: EventEntity moves to X=83.238*, Z=48.529*, Y=0.480*
  2: 0x0288 [0x1F] MOVE_ENTITY: Update entity position (mode=1)
  3: 0x028A [0x1F] MOVE_ENTITY: EventEntity moves to X=85.353*, Z=46.816*, Y=0.480*
  4: 0x0292 [0x1F] MOVE_ENTITY: Update entity position (mode=1)
  5: 0x0294 [0x6F] WAIT_FRAME_DELAY: Yield until WaitTime reaches zero
  6: 0x0295 [0x1E] EventEntity looks at LocalPlayer and starts talking
  7: 0x029A [0x00] END_REQSTACK()
```

### Event 65535.51

#### Metadata

| Field        | Value    |
|--------------|----------|
| Entrypoint   | 0x029B   |
| Data Size    | 14 bytes |
| Instructions | 4        |

```
      00 01 02 03 04 05 06 07  08 09 0A 0B 0C 0D 0E 0F
      -- -- -- -- -- -- -- --  -- -- -- -- -- -- -- --
0290:                                   32 10 80 1F 00             2....
02A0: 4D 80 4E 80 00 80 1F 01  00                       M.N......       
```

#### Opcodes

```
  0: 0x029B [0x32] ExtData[1]->MainSpeed = 11* * 0.1
  1: 0x029E [0x1F] MOVE_ENTITY: EventEntity moves to X=-0.859*, Z=-33.315*, Y=0.000*
  2: 0x02A6 [0x1F] MOVE_ENTITY: Update entity position (mode=1)
  3: 0x02A8 [0x00] END_REQSTACK()
```

### Event 65535.52

#### Metadata

| Field        | Value    |
|--------------|----------|
| Entrypoint   | 0x02A9   |
| Data Size    | 26 bytes |
| Instructions | 8        |

```
      00 01 02 03 04 05 06 07  08 09 0A 0B 0C 0D 0E 0F
      -- -- -- -- -- -- -- --  -- -- -- -- -- -- -- --
02A0:                             32 4F 80 1F 00 50 80           2O...P.
02B0: 51 80 26 80 1F 01 6F 1E  F0 FF FF 7F 6F 76 F8 FF  Q.&...o.....ov..
02C0: FF 7F 00                                          ...             
```

#### Opcodes

```
  0: 0x02A9 [0x32] ExtData[1]->MainSpeed = 12* * 0.1
  1: 0x02AC [0x1F] MOVE_ENTITY: EventEntity moves to X=86.222*, Z=45.703*, Y=0.480*
  2: 0x02B4 [0x1F] MOVE_ENTITY: Update entity position (mode=1)
  3: 0x02B6 [0x6F] WAIT_FRAME_DELAY: Yield until WaitTime reaches zero
  4: 0x02B7 [0x1E] EventEntity looks at LocalPlayer and starts talking
  5: 0x02BC [0x6F] WAIT_FRAME_DELAY: Yield until WaitTime reaches zero
  6: 0x02BD [0x76] CHECK_ENTITY_RENDER_FLAGS: Wait until EventEntity Render.Flags0 and Render.Flags3 conditions are met
  7: 0x02C2 [0x00] END_REQSTACK()
```

### Event 65535.53

#### Metadata

| Field        | Value    |
|--------------|----------|
| Entrypoint   | 0x02C3   |
| Data Size    | 24 bytes |
| Instructions | 6        |

```
      00 01 02 03 04 05 06 07  08 09 0A 0B 0C 0D 0E 0F
      -- -- -- -- -- -- -- --  -- -- -- -- -- -- -- --
02C0:          32 23 80 1F 00  52 80 53 80 26 80 1F 01     2#...R.S.&...
02D0: 1F 00 54 80 55 80 26 80  1F 01 00                 ..T.U.&....     
```

#### Opcodes

```
  0: 0x02C3 [0x32] ExtData[1]->MainSpeed = 13* * 0.1
  1: 0x02C6 [0x1F] MOVE_ENTITY: EventEntity moves to X=85.547*, Z=45.208*, Y=0.480*
  2: 0x02CE [0x1F] MOVE_ENTITY: Update entity position (mode=1)
  3: 0x02D0 [0x1F] MOVE_ENTITY: EventEntity moves to X=87.443*, Z=41.725*, Y=0.480*
  4: 0x02D8 [0x1F] MOVE_ENTITY: Update entity position (mode=1)
  5: 0x02DA [0x00] END_REQSTACK()
```

### Event 65535.54

#### Metadata

| Field        | Value    |
|--------------|----------|
| Entrypoint   | 0x02DB   |
| Data Size    | 24 bytes |
| Instructions | 6        |

```
      00 01 02 03 04 05 06 07  08 09 0A 0B 0C 0D 0E 0F
      -- -- -- -- -- -- -- --  -- -- -- -- -- -- -- --
02D0:                                   32 23 80 1F 00             2#...
02E0: 56 80 57 80 00 80 1F 01  6F 4A F8 FF FF 7F CC 20  V.W.....oJ..... 
02F0: 03 01 00                                          ...             
```

#### Opcodes

```
  0: 0x02DB [0x32] ExtData[1]->MainSpeed = 13* * 0.1
  1: 0x02DE [0x1F] MOVE_ENTITY: EventEntity moves to X=-1.305*, Z=-32.658*, Y=0.000*
  2: 0x02E6 [0x1F] MOVE_ENTITY: Update entity position (mode=1)
  3: 0x02E8 [0x6F] WAIT_FRAME_DELAY: Yield until WaitTime reaches zero
  4: 0x02E9 [0x4A] EventEntity looks at Nashmeira (ID: 16982220/0x010320CC)
  5: 0x02F2 [0x00] END_REQSTACK()
```

### Event 65535.55

#### Metadata

| Field        | Value    |
|--------------|----------|
| Entrypoint   | 0x02F3   |
| Data Size    | 23 bytes |
| Instructions | 7        |

```
      00 01 02 03 04 05 06 07  08 09 0A 0B 0C 0D 0E 0F
      -- -- -- -- -- -- -- --  -- -- -- -- -- -- -- --
02F0:          32 4F 80 1F 00  58 80 59 80 00 80 1F 01     2O...X.Y.....
0300: 6F 1C 06 80 1E CC 20 03  01 00                    o..... ...      
```

#### Opcodes

```
  0: 0x02F3 [0x32] ExtData[1]->MainSpeed = 12* * 0.1
  1: 0x02F6 [0x1F] MOVE_ENTITY: EventEntity moves to X=-0.883*, Z=-31.892*, Y=0.000*
  2: 0x02FE [0x1F] MOVE_ENTITY: Update entity position (mode=1)
  3: 0x0300 [0x6F] WAIT_FRAME_DELAY: Yield until WaitTime reaches zero
  4: 0x0301 [0x1C] WAIT(10* ticks)
  5: 0x0304 [0x1E] EventEntity looks at Nashmeira (ID: 16982220/0x010320CC) and starts talking
  6: 0x0309 [0x00] END_REQSTACK()
```

### Event 65535.56

#### Metadata

| Field        | Value    |
|--------------|----------|
| Entrypoint   | 0x030A   |
| Data Size    | 34 bytes |
| Instructions | 4        |

```
      00 01 02 03 04 05 06 07  08 09 0A 0B 0C 0D 0E 0F
      -- -- -- -- -- -- -- --  -- -- -- -- -- -- -- --
0300:                                5B 5A 80 C4 20 03            [Z.. .
0310: 01 C4 20 03 01 75 64 65  31 53 C4 20 03 01 C4 20  .. ..ude1S. ... 
0320: 03 01 75 64 65 31 1E 95  20 03 01 00              ..ude1.. ...    
```

#### Opcodes

```
  0: 0x030A [0x5B] LOAD_EXT_SCHEDULER: Load scheduler "ude1" with entities [Mnejing (ID: 16982212/0x010320C4), Mnejing (ID: 16982212/0x010320C4)], work=905*
  1: 0x0319 [0x53] WAIT_SCHEDULER_TASK: Wait for scheduler "ude1" with entities [Mnejing (ID: 16982212/0x010320C4), Mnejing (ID: 16982212/0x010320C4)]
  2: 0x0326 [0x1E] EventEntity looks at Ghatsad (ID: 16982165/0x01032095) and starts talking
  3: 0x032B [0x00] END_REQSTACK()
```

### Event 65535.57

#### Metadata

| Field        | Value    |
|--------------|----------|
| Entrypoint   | 0x032C   |
| Data Size    | 20 bytes |
| Instructions | 6        |

```
      00 01 02 03 04 05 06 07  08 09 0A 0B 0C 0D 0E 0F
      -- -- -- -- -- -- -- --  -- -- -- -- -- -- -- --
0320:                                      32 10 80 1F              2...
0330: 00 5B 80 5C 80 00 80 1F  01 6F 1E CC 20 03 01 00  .[.\.....o.. ...
```

#### Opcodes

```
  0: 0x032C [0x32] ExtData[1]->MainSpeed = 11* * 0.1
  1: 0x032F [0x1F] MOVE_ENTITY: EventEntity moves to X=0.184*, Z=45.758*, Y=0.000*
  2: 0x0337 [0x1F] MOVE_ENTITY: Update entity position (mode=1)
  3: 0x0339 [0x6F] WAIT_FRAME_DELAY: Yield until WaitTime reaches zero
  4: 0x033A [0x1E] EventEntity looks at Nashmeira (ID: 16982220/0x010320CC) and starts talking
  5: 0x033F [0x00] END_REQSTACK()
```

### Event 65535.58

#### Metadata

| Field        | Value    |
|--------------|----------|
| Entrypoint   | 0x0340   |
| Data Size    | 15 bytes |
| Instructions | 5        |

```
      00 01 02 03 04 05 06 07  08 09 0A 0B 0C 0D 0E 0F
      -- -- -- -- -- -- -- --  -- -- -- -- -- -- -- --
0340: 32 23 80 1F 00 5D 80 5E  80 00 80 1F 01 6F 00     2#...].^.....o. 
```

#### Opcodes

```
  0: 0x0340 [0x32] ExtData[1]->MainSpeed = 13* * 0.1
  1: 0x0343 [0x1F] MOVE_ENTITY: EventEntity moves to X=0.702*, Z=-10.476*, Y=0.000*
  2: 0x034B [0x1F] MOVE_ENTITY: Update entity position (mode=1)
  3: 0x034D [0x6F] WAIT_FRAME_DELAY: Yield until WaitTime reaches zero
  4: 0x034E [0x00] END_REQSTACK()
```

### Event 65535.59

#### Metadata

| Field        | Value    |
|--------------|----------|
| Entrypoint   | 0x034F   |
| Data Size    | 10 bytes |
| Instructions | 2        |

```
      00 01 02 03 04 05 06 07  08 09 0A 0B 0C 0D 0E 0F
      -- -- -- -- -- -- -- --  -- -- -- -- -- -- -- --
0340:                                               6C                 l
0350: F8 FF FF 7F 00 80 01 80  00                       .........       
```

#### Opcodes

```
  0: 0x034F [0x6C] FADE_ENTITY_COLOR(entity_id=EventEntity, end_alpha=0*, fade_time=1*)
  1: 0x0358 [0x00] END_REQSTACK()
```

### Event 65535.60

#### Metadata

| Field        | Value    |
|--------------|----------|
| Entrypoint   | 0x0359   |
| Data Size    | 10 bytes |
| Instructions | 2        |

```
      00 01 02 03 04 05 06 07  08 09 0A 0B 0C 0D 0E 0F
      -- -- -- -- -- -- -- --  -- -- -- -- -- -- -- --
0350:                             6C F8 FF FF 7F 02 80           l......
0360: 01 80 00                                          ...             
```

#### Opcodes

```
  0: 0x0359 [0x6C] FADE_ENTITY_COLOR(entity_id=EventEntity, end_alpha=128*, fade_time=1*)
  1: 0x0362 [0x00] END_REQSTACK()
```

### Event 65535.61

#### Metadata

| Field        | Value    |
|--------------|----------|
| Entrypoint   | 0x0363   |
| Data Size    | 26 bytes |
| Instructions | 8        |

```
      00 01 02 03 04 05 06 07  08 09 0A 0B 0C 0D 0E 0F
      -- -- -- -- -- -- -- --  -- -- -- -- -- -- -- --
0360:          32 23 80 1F 00  5F 80 60 80 00 80 1F 01     2#..._.`.....
0370: 6F 1E F0 FF FF 7F 6F 76  F8 FF FF 7F 00           o.....ov.....   
```

#### Opcodes

```
  0: 0x0363 [0x32] ExtData[1]->MainSpeed = 13* * 0.1
  1: 0x0366 [0x1F] MOVE_ENTITY: EventEntity moves to X=0.695*, Z=-28.985*, Y=0.000*
  2: 0x036E [0x1F] MOVE_ENTITY: Update entity position (mode=1)
  3: 0x0370 [0x6F] WAIT_FRAME_DELAY: Yield until WaitTime reaches zero
  4: 0x0371 [0x1E] EventEntity looks at LocalPlayer and starts talking
  5: 0x0376 [0x6F] WAIT_FRAME_DELAY: Yield until WaitTime reaches zero
  6: 0x0377 [0x76] CHECK_ENTITY_RENDER_FLAGS: Wait until EventEntity Render.Flags0 and Render.Flags3 conditions are met
  7: 0x037C [0x00] END_REQSTACK()
```

### Event 65535.62

#### Metadata

| Field        | Value    |
|--------------|----------|
| Entrypoint   | 0x037D   |
| Data Size    | 19 bytes |
| Instructions | 5        |

```
      00 01 02 03 04 05 06 07  08 09 0A 0B 0C 0D 0E 0F
      -- -- -- -- -- -- -- --  -- -- -- -- -- -- -- --
0370:                                         32 23 80               2#.
0380: 1F 00 61 80 62 80 63 80  1F 01 1E CC 20 03 01 00  ..a.b.c..... ...
```

#### Opcodes

```
  0: 0x037D [0x32] ExtData[1]->MainSpeed = 13* * 0.1
  1: 0x0380 [0x1F] MOVE_ENTITY: EventEntity moves to X=-486.466*, Z=412.092*, Y=-4.000*
  2: 0x0388 [0x1F] MOVE_ENTITY: Update entity position (mode=1)
  3: 0x038A [0x1E] EventEntity looks at Nashmeira (ID: 16982220/0x010320CC) and starts talking
  4: 0x038F [0x00] END_REQSTACK()
```

### Event 65535.63

#### Metadata

| Field        | Value   |
|--------------|---------|
| Entrypoint   | 0x0390  |
| Data Size    | 1 bytes |
| Instructions | 1       |

```
      00 01 02 03 04 05 06 07  08 09 0A 0B 0C 0D 0E 0F
      -- -- -- -- -- -- -- --  -- -- -- -- -- -- -- --
0390: 00                                                .               
```

#### Opcodes

```
  0: 0x0390 [0x00] END_REQSTACK()
```

### Event 65535.64

#### Metadata

| Field        | Value   |
|--------------|---------|
| Entrypoint   | 0x0391  |
| Data Size    | 1 bytes |
| Instructions | 1       |

```
      00 01 02 03 04 05 06 07  08 09 0A 0B 0C 0D 0E 0F
      -- -- -- -- -- -- -- --  -- -- -- -- -- -- -- --
0390:    00                                              .              
```

#### Opcodes

```
  0: 0x0391 [0x00] END_REQSTACK()
```

### Event 65535.65

#### Metadata

| Field        | Value    |
|--------------|----------|
| Entrypoint   | 0x0392   |
| Data Size    | 30 bytes |
| Instructions | 6        |

```
      00 01 02 03 04 05 06 07  08 09 0A 0B 0C 0D 0E 0F
      -- -- -- -- -- -- -- --  -- -- -- -- -- -- -- --
0390:       32 10 80 1F 00 64  80 65 80 26 80 1F 01 6F    2....d.e.&...o
03A0: 5B 66 80 F8 FF FF 7F F8  FF FF 7F 75 73 69 30 00  [f.........usi0.
```

#### Opcodes

```
  0: 0x0392 [0x32] ExtData[1]->MainSpeed = 11* * 0.1
  1: 0x0395 [0x1F] MOVE_ENTITY: EventEntity moves to X=76.611*, Z=48.723*, Y=0.480*
  2: 0x039D [0x1F] MOVE_ENTITY: Update entity position (mode=1)
  3: 0x039F [0x6F] WAIT_FRAME_DELAY: Yield until WaitTime reaches zero
  4: 0x03A0 [0x5B] LOAD_EXT_SCHEDULER: Load scheduler "usi0" with entities [EventEntity, EventEntity], work=1069*
  5: 0x03AF [0x00] END_REQSTACK()
```

### Event 65535.66

#### Metadata

| Field        | Value    |
|--------------|----------|
| Entrypoint   | 0x03B0   |
| Data Size    | 16 bytes |
| Instructions | 2        |

```
      00 01 02 03 04 05 06 07  08 09 0A 0B 0C 0D 0E 0F
      -- -- -- -- -- -- -- --  -- -- -- -- -- -- -- --
03B0: 5B 5A 80 F8 FF FF 7F F8  FF FF 7F 75 73 69 30 00  [Z.........usi0.
```

#### Opcodes

```
  0: 0x03B0 [0x5B] LOAD_EXT_SCHEDULER: Load scheduler "usi0" with entities [EventEntity, EventEntity], work=905*
  1: 0x03BF [0x00] END_REQSTACK()
```

### Event 65535.67

#### Metadata

| Field        | Value    |
|--------------|----------|
| Entrypoint   | 0x03C0   |
| Data Size    | 14 bytes |
| Instructions | 2        |

```
      00 01 02 03 04 05 06 07  08 09 0A 0B 0C 0D 0E 0F
      -- -- -- -- -- -- -- --  -- -- -- -- -- -- -- --
03C0: 53 F8 FF FF 7F F8 FF FF  7F 75 73 69 30 00        S........usi0.  
```

#### Opcodes

```
  0: 0x03C0 [0x53] WAIT_SCHEDULER_TASK: Wait for scheduler "usi0" with entities [EventEntity, EventEntity]
  1: 0x03CD [0x00] END_REQSTACK()
```

### Event 65535.68

#### Metadata

| Field        | Value    |
|--------------|----------|
| Entrypoint   | 0x03CE   |
| Data Size    | 16 bytes |
| Instructions | 2        |

```
      00 01 02 03 04 05 06 07  08 09 0A 0B 0C 0D 0E 0F
      -- -- -- -- -- -- -- --  -- -- -- -- -- -- -- --
03C0:                                            5B 5A                [Z
03D0: 80 F8 FF FF 7F F8 FF FF  7F 68 69 6B 30 00        .........hik0.  
```

#### Opcodes

```
  0: 0x03CE [0x5B] LOAD_EXT_SCHEDULER: Load scheduler "hik0" with entities [EventEntity, EventEntity], work=905*
  1: 0x03DD [0x00] END_REQSTACK()
```

### Event 65535.69

#### Metadata

| Field        | Value    |
|--------------|----------|
| Entrypoint   | 0x03DE   |
| Data Size    | 14 bytes |
| Instructions | 2        |

```
      00 01 02 03 04 05 06 07  08 09 0A 0B 0C 0D 0E 0F
      -- -- -- -- -- -- -- --  -- -- -- -- -- -- -- --
03D0:                                            53 F8                S.
03E0: FF FF 7F F8 FF FF 7F 68  69 6B 30 00              .......hik0.    
```

#### Opcodes

```
  0: 0x03DE [0x53] WAIT_SCHEDULER_TASK: Wait for scheduler "hik0" with entities [EventEntity, EventEntity]
  1: 0x03EB [0x00] END_REQSTACK()
```

### Event 65535.70

#### Metadata

| Field        | Value    |
|--------------|----------|
| Entrypoint   | 0x03EC   |
| Data Size    | 16 bytes |
| Instructions | 2        |

```
      00 01 02 03 04 05 06 07  08 09 0A 0B 0C 0D 0E 0F
      -- -- -- -- -- -- -- --  -- -- -- -- -- -- -- --
03E0:                                      5B 5A 80 F8              [Z..
03F0: FF FF 7F F8 FF FF 7F 68  69 6B 31 00              .......hik1.    
```

#### Opcodes

```
  0: 0x03EC [0x5B] LOAD_EXT_SCHEDULER: Load scheduler "hik1" with entities [EventEntity, EventEntity], work=905*
  1: 0x03FB [0x00] END_REQSTACK()
```

### Event 65535.71

#### Metadata

| Field        | Value    |
|--------------|----------|
| Entrypoint   | 0x03FC   |
| Data Size    | 14 bytes |
| Instructions | 2        |

```
      00 01 02 03 04 05 06 07  08 09 0A 0B 0C 0D 0E 0F
      -- -- -- -- -- -- -- --  -- -- -- -- -- -- -- --
03F0:                                      53 F8 FF FF              S...
0400: 7F F8 FF FF 7F 68 69 6B  31 00                    .....hik1.      
```

#### Opcodes

```
  0: 0x03FC [0x53] WAIT_SCHEDULER_TASK: Wait for scheduler "hik1" with entities [EventEntity, EventEntity]
  1: 0x0409 [0x00] END_REQSTACK()
```

### Event 65535.72

#### Metadata

| Field        | Value    |
|--------------|----------|
| Entrypoint   | 0x040A   |
| Data Size    | 16 bytes |
| Instructions | 2        |

```
      00 01 02 03 04 05 06 07  08 09 0A 0B 0C 0D 0E 0F
      -- -- -- -- -- -- -- --  -- -- -- -- -- -- -- --
0400:                                5B 5A 80 F8 FF FF            [Z....
0410: 7F F8 FF FF 7F 75 64 65  30 00                    .....ude0.      
```

#### Opcodes

```
  0: 0x040A [0x5B] LOAD_EXT_SCHEDULER: Load scheduler "ude0" with entities [EventEntity, EventEntity], work=905*
  1: 0x0419 [0x00] END_REQSTACK()
```

### Event 65535.73

#### Metadata

| Field        | Value    |
|--------------|----------|
| Entrypoint   | 0x041A   |
| Data Size    | 14 bytes |
| Instructions | 2        |

```
      00 01 02 03 04 05 06 07  08 09 0A 0B 0C 0D 0E 0F
      -- -- -- -- -- -- -- --  -- -- -- -- -- -- -- --
0410:                                53 F8 FF FF 7F F8            S.....
0420: FF FF 7F 75 64 65 30 00                           ...ude0.        
```

#### Opcodes

```
  0: 0x041A [0x53] WAIT_SCHEDULER_TASK: Wait for scheduler "ude0" with entities [EventEntity, EventEntity]
  1: 0x0427 [0x00] END_REQSTACK()
```

### Event 65535.74

#### Metadata

| Field        | Value    |
|--------------|----------|
| Entrypoint   | 0x0428   |
| Data Size    | 16 bytes |
| Instructions | 2        |

```
      00 01 02 03 04 05 06 07  08 09 0A 0B 0C 0D 0E 0F
      -- -- -- -- -- -- -- --  -- -- -- -- -- -- -- --
0420:                          5B 5A 80 F8 FF FF 7F F8          [Z......
0430: FF FF 7F 75 64 65 31 00                           ...ude1.        
```

#### Opcodes

```
  0: 0x0428 [0x5B] LOAD_EXT_SCHEDULER: Load scheduler "ude1" with entities [EventEntity, EventEntity], work=905*
  1: 0x0437 [0x00] END_REQSTACK()
```

### Event 65535.75

#### Metadata

| Field        | Value    |
|--------------|----------|
| Entrypoint   | 0x0438   |
| Data Size    | 14 bytes |
| Instructions | 2        |

```
      00 01 02 03 04 05 06 07  08 09 0A 0B 0C 0D 0E 0F
      -- -- -- -- -- -- -- --  -- -- -- -- -- -- -- --
0430:                          53 F8 FF FF 7F F8 FF FF          S.......
0440: 7F 75 64 65 31 00                                 .ude1.          
```

#### Opcodes

```
  0: 0x0438 [0x53] WAIT_SCHEDULER_TASK: Wait for scheduler "ude1" with entities [EventEntity, EventEntity]
  1: 0x0445 [0x00] END_REQSTACK()
```

### Event 65535.76

#### Metadata

| Field        | Value    |
|--------------|----------|
| Entrypoint   | 0x0446   |
| Data Size    | 16 bytes |
| Instructions | 2        |

```
      00 01 02 03 04 05 06 07  08 09 0A 0B 0C 0D 0E 0F
      -- -- -- -- -- -- -- --  -- -- -- -- -- -- -- --
0440:                   5B 67  80 F8 FF FF 7F F8 FF FF        [g........
0450: 7F 75 64 62 73 00                                 .udbs.          
```

#### Opcodes

```
  0: 0x0446 [0x5B] LOAD_EXT_SCHEDULER: Load scheduler "udbs" with entities [EventEntity, EventEntity], work=933*
  1: 0x0455 [0x00] END_REQSTACK()
```

### Event 65535.77

#### Metadata

| Field        | Value    |
|--------------|----------|
| Entrypoint   | 0x0456   |
| Data Size    | 14 bytes |
| Instructions | 2        |

```
      00 01 02 03 04 05 06 07  08 09 0A 0B 0C 0D 0E 0F
      -- -- -- -- -- -- -- --  -- -- -- -- -- -- -- --
0450:                   53 F8  FF FF 7F F8 FF FF 7F 75        S........u
0460: 64 62 73 00                                       dbs.            
```

#### Opcodes

```
  0: 0x0456 [0x53] WAIT_SCHEDULER_TASK: Wait for scheduler "udbs" with entities [EventEntity, EventEntity]
  1: 0x0463 [0x00] END_REQSTACK()
```

### Event 65535.78

#### Metadata

| Field        | Value    |
|--------------|----------|
| Entrypoint   | 0x0464   |
| Data Size    | 16 bytes |
| Instructions | 2        |

```
      00 01 02 03 04 05 06 07  08 09 0A 0B 0C 0D 0E 0F
      -- -- -- -- -- -- -- --  -- -- -- -- -- -- -- --
0460:             5B 67 80 F8  FF FF 7F F8 FF FF 7F 75      [g.........u
0470: 64 62 31 00                                       db1.            
```

#### Opcodes

```
  0: 0x0464 [0x5B] LOAD_EXT_SCHEDULER: Load scheduler "udb1" with entities [EventEntity, EventEntity], work=933*
  1: 0x0473 [0x00] END_REQSTACK()
```

### Event 65535.79

#### Metadata

| Field        | Value    |
|--------------|----------|
| Entrypoint   | 0x0474   |
| Data Size    | 14 bytes |
| Instructions | 2        |

```
      00 01 02 03 04 05 06 07  08 09 0A 0B 0C 0D 0E 0F
      -- -- -- -- -- -- -- --  -- -- -- -- -- -- -- --
0470:             53 F8 FF FF  7F F8 FF FF 7F 75 64 62      S........udb
0480: 31 00                                             1.              
```

#### Opcodes

```
  0: 0x0474 [0x53] WAIT_SCHEDULER_TASK: Wait for scheduler "udb1" with entities [EventEntity, EventEntity]
  1: 0x0481 [0x00] END_REQSTACK()
```

### Event 65535.80

#### Metadata

| Field        | Value    |
|--------------|----------|
| Entrypoint   | 0x0482   |
| Data Size    | 16 bytes |
| Instructions | 2        |

```
      00 01 02 03 04 05 06 07  08 09 0A 0B 0C 0D 0E 0F
      -- -- -- -- -- -- -- --  -- -- -- -- -- -- -- --
0480:       5B 66 80 F8 FF FF  7F F8 FF FF 7F 75 73 69    [f.........usi
0490: 30 00                                             0.              
```

#### Opcodes

```
  0: 0x0482 [0x5B] LOAD_EXT_SCHEDULER: Load scheduler "usi0" with entities [EventEntity, EventEntity], work=1069*
  1: 0x0491 [0x00] END_REQSTACK()
```

### Event 65535.81

#### Metadata

| Field        | Value    |
|--------------|----------|
| Entrypoint   | 0x0492   |
| Data Size    | 14 bytes |
| Instructions | 2        |

```
      00 01 02 03 04 05 06 07  08 09 0A 0B 0C 0D 0E 0F
      -- -- -- -- -- -- -- --  -- -- -- -- -- -- -- --
0490:       53 F8 FF FF 7F F8  FF FF 7F 75 73 69 30 00    S........usi0.
```

#### Opcodes

```
  0: 0x0492 [0x53] WAIT_SCHEDULER_TASK: Wait for scheduler "usi0" with entities [EventEntity, EventEntity]
  1: 0x049F [0x00] END_REQSTACK()
```

### Event 65535.82

#### Metadata

| Field        | Value    |
|--------------|----------|
| Entrypoint   | 0x04A0   |
| Data Size    | 16 bytes |
| Instructions | 2        |

```
      00 01 02 03 04 05 06 07  08 09 0A 0B 0C 0D 0E 0F
      -- -- -- -- -- -- -- --  -- -- -- -- -- -- -- --
04A0: 5B 68 80 F8 FF FF 7F F8  FF FF 7F 73 74 70 30 00  [h.........stp0.
```

#### Opcodes

```
  0: 0x04A0 [0x5B] LOAD_EXT_SCHEDULER: Load scheduler "stp0" with entities [EventEntity, EventEntity], work=1068*
  1: 0x04AF [0x00] END_REQSTACK()
```

### Event 65535.83

#### Metadata

| Field        | Value    |
|--------------|----------|
| Entrypoint   | 0x04B0   |
| Data Size    | 14 bytes |
| Instructions | 2        |

```
      00 01 02 03 04 05 06 07  08 09 0A 0B 0C 0D 0E 0F
      -- -- -- -- -- -- -- --  -- -- -- -- -- -- -- --
04B0: 53 F8 FF FF 7F F8 FF FF  7F 73 74 70 30 00        S........stp0.  
```

#### Opcodes

```
  0: 0x04B0 [0x53] WAIT_SCHEDULER_TASK: Wait for scheduler "stp0" with entities [EventEntity, EventEntity]
  1: 0x04BD [0x00] END_REQSTACK()
```

### Event 65535.84

#### Metadata

| Field        | Value    |
|--------------|----------|
| Entrypoint   | 0x04BE   |
| Data Size    | 16 bytes |
| Instructions | 2        |

```
      00 01 02 03 04 05 06 07  08 09 0A 0B 0C 0D 0E 0F
      -- -- -- -- -- -- -- --  -- -- -- -- -- -- -- --
04B0:                                            5B 68                [h
04C0: 80 F8 FF FF 7F F8 FF FF  7F 6D 6E 30 30 00        .........mn00.  
```

#### Opcodes

```
  0: 0x04BE [0x5B] LOAD_EXT_SCHEDULER: Load scheduler "mn00" with entities [EventEntity, EventEntity], work=1068*
  1: 0x04CD [0x00] END_REQSTACK()
```

### Event 65535.85

#### Metadata

| Field        | Value    |
|--------------|----------|
| Entrypoint   | 0x04CE   |
| Data Size    | 14 bytes |
| Instructions | 2        |

```
      00 01 02 03 04 05 06 07  08 09 0A 0B 0C 0D 0E 0F
      -- -- -- -- -- -- -- --  -- -- -- -- -- -- -- --
04C0:                                            53 F8                S.
04D0: FF FF 7F F8 FF FF 7F 6D  6E 30 30 00              .......mn00.    
```

#### Opcodes

```
  0: 0x04CE [0x53] WAIT_SCHEDULER_TASK: Wait for scheduler "mn00" with entities [EventEntity, EventEntity]
  1: 0x04DB [0x00] END_REQSTACK()
```

### Event 65535.86

#### Metadata

| Field        | Value   |
|--------------|---------|
| Entrypoint   | 0x04DC  |
| Data Size    | 9 bytes |
| Instructions | 3       |

```
      00 01 02 03 04 05 06 07  08 09 0A 0B 0C 0D 0E 0F
      -- -- -- -- -- -- -- --  -- -- -- -- -- -- -- --
04D0:                                      5E 69 64 6C              ^idl
04E0: 30 1C 41 80 00                                    0.A..           
```

#### Opcodes

```
  0: 0x04DC [0x5E] EventEntity goes idle (kills current action) (animation: "idl0")
  1: 0x04E1 [0x1C] WAIT(60* ticks)
  2: 0x04E4 [0x00] END_REQSTACK()
```

### Event 65535.87

#### Metadata

| Field        | Value    |
|--------------|----------|
| Entrypoint   | 0x04E5   |
| Data Size    | 16 bytes |
| Instructions | 2        |

```
      00 01 02 03 04 05 06 07  08 09 0A 0B 0C 0D 0E 0F
      -- -- -- -- -- -- -- --  -- -- -- -- -- -- -- --
04E0:                5B 69 80  F8 FF FF 7F F8 FF FF 7F       [i.........
04F0: 73 69 6C 30 00                                    sil0.           
```

#### Opcodes

```
  0: 0x04E5 [0x5B] LOAD_EXT_SCHEDULER: Load scheduler "sil0" with entities [EventEntity, EventEntity], work=851*
  1: 0x04F4 [0x00] END_REQSTACK()
```

### Event 65535.88

#### Metadata

| Field        | Value    |
|--------------|----------|
| Entrypoint   | 0x04F5   |
| Data Size    | 14 bytes |
| Instructions | 2        |

```
      00 01 02 03 04 05 06 07  08 09 0A 0B 0C 0D 0E 0F
      -- -- -- -- -- -- -- --  -- -- -- -- -- -- -- --
04F0:                53 F8 FF  FF 7F F8 FF FF 7F 73 69       S........si
0500: 6C 30 00                                          l0.             
```

#### Opcodes

```
  0: 0x04F5 [0x53] WAIT_SCHEDULER_TASK: Wait for scheduler "sil0" with entities [EventEntity, EventEntity]
  1: 0x0502 [0x00] END_REQSTACK()
```

### Event 65535.89

#### Metadata

| Field        | Value    |
|--------------|----------|
| Entrypoint   | 0x0503   |
| Data Size    | 16 bytes |
| Instructions | 2        |

```
      00 01 02 03 04 05 06 07  08 09 0A 0B 0C 0D 0E 0F
      -- -- -- -- -- -- -- --  -- -- -- -- -- -- -- --
0500:          5B 69 80 F8 FF  FF 7F F8 FF FF 7F 79 61     [i.........ya
0510: 68 30 00                                          h0.             
```

#### Opcodes

```
  0: 0x0503 [0x5B] LOAD_EXT_SCHEDULER: Load scheduler "yah0" with entities [EventEntity, EventEntity], work=851*
  1: 0x0512 [0x00] END_REQSTACK()
```

### Event 65535.90

#### Metadata

| Field        | Value    |
|--------------|----------|
| Entrypoint   | 0x0513   |
| Data Size    | 14 bytes |
| Instructions | 2        |

```
      00 01 02 03 04 05 06 07  08 09 0A 0B 0C 0D 0E 0F
      -- -- -- -- -- -- -- --  -- -- -- -- -- -- -- --
0510:          53 F8 FF FF 7F  F8 FF FF 7F 79 61 68 30     S........yah0
0520: 00                                                .               
```

#### Opcodes

```
  0: 0x0513 [0x53] WAIT_SCHEDULER_TASK: Wait for scheduler "yah0" with entities [EventEntity, EventEntity]
  1: 0x0520 [0x00] END_REQSTACK()
```

### Event 65535.91

#### Metadata

| Field        | Value    |
|--------------|----------|
| Entrypoint   | 0x0521   |
| Data Size    | 16 bytes |
| Instructions | 2        |

```
      00 01 02 03 04 05 06 07  08 09 0A 0B 0C 0D 0E 0F
      -- -- -- -- -- -- -- --  -- -- -- -- -- -- -- --
0520:    5B 6A 80 F8 FF FF 7F  F8 FF FF 7F 74 6C 6B 30   [j.........tlk0
0530: 00                                                .               
```

#### Opcodes

```
  0: 0x0521 [0x5B] LOAD_EXT_SCHEDULER: Load scheduler "tlk0" with entities [EventEntity, EventEntity], work=858*
  1: 0x0530 [0x00] END_REQSTACK()
```

### Event 65535.92

#### Metadata

| Field        | Value    |
|--------------|----------|
| Entrypoint   | 0x0531   |
| Data Size    | 14 bytes |
| Instructions | 2        |

```
      00 01 02 03 04 05 06 07  08 09 0A 0B 0C 0D 0E 0F
      -- -- -- -- -- -- -- --  -- -- -- -- -- -- -- --
0530:    53 F8 FF FF 7F F8 FF  FF 7F 74 6C 6B 30 00      S........tlk0. 
```

#### Opcodes

```
  0: 0x0531 [0x53] WAIT_SCHEDULER_TASK: Wait for scheduler "tlk0" with entities [EventEntity, EventEntity]
  1: 0x053E [0x00] END_REQSTACK()
```

### Event 65535.93

#### Metadata

| Field        | Value    |
|--------------|----------|
| Entrypoint   | 0x053F   |
| Data Size    | 16 bytes |
| Instructions | 2        |

```
      00 01 02 03 04 05 06 07  08 09 0A 0B 0C 0D 0E 0F
      -- -- -- -- -- -- -- --  -- -- -- -- -- -- -- --
0530:                                               5B                 [
0540: 6A 80 F8 FF FF 7F F8 FF  FF 7F 74 6C 6B 31 00     j.........tlk1. 
```

#### Opcodes

```
  0: 0x053F [0x5B] LOAD_EXT_SCHEDULER: Load scheduler "tlk1" with entities [EventEntity, EventEntity], work=858*
  1: 0x054E [0x00] END_REQSTACK()
```

### Event 65535.94

#### Metadata

| Field        | Value    |
|--------------|----------|
| Entrypoint   | 0x054F   |
| Data Size    | 14 bytes |
| Instructions | 2        |

```
      00 01 02 03 04 05 06 07  08 09 0A 0B 0C 0D 0E 0F
      -- -- -- -- -- -- -- --  -- -- -- -- -- -- -- --
0540:                                               53                 S
0550: F8 FF FF 7F F8 FF FF 7F  74 6C 6B 31 00           ........tlk1.   
```

#### Opcodes

```
  0: 0x054F [0x53] WAIT_SCHEDULER_TASK: Wait for scheduler "tlk1" with entities [EventEntity, EventEntity]
  1: 0x055C [0x00] END_REQSTACK()
```

### Event 65535.95

#### Metadata

| Field        | Value    |
|--------------|----------|
| Entrypoint   | 0x055D   |
| Data Size    | 44 bytes |
| Instructions | 4        |

```
      00 01 02 03 04 05 06 07  08 09 0A 0B 0C 0D 0E 0F
      -- -- -- -- -- -- -- --  -- -- -- -- -- -- -- --
0550:                                         5B 6A 80               [j.
0560: F8 FF FF 7F F8 FF FF 7F  74 6C 6B 30 53 F8 FF FF  ........tlk0S...
0570: 7F F8 FF FF 7F 74 6C 6B  30 5B 6A 80 F8 FF FF 7F  .....tlk0[j.....
0580: F8 FF FF 7F 74 6C 6B 31  00                       ....tlk1.       
```

#### Opcodes

```
  0: 0x055D [0x5B] LOAD_EXT_SCHEDULER: Load scheduler "tlk0" with entities [EventEntity, EventEntity], work=858*
  1: 0x056C [0x53] WAIT_SCHEDULER_TASK: Wait for scheduler "tlk0" with entities [EventEntity, EventEntity]
  2: 0x0579 [0x5B] LOAD_EXT_SCHEDULER: Load scheduler "tlk1" with entities [EventEntity, EventEntity], work=858*
  3: 0x0588 [0x00] END_REQSTACK()
```

### Event 65535.96

#### Metadata

| Field        | Value    |
|--------------|----------|
| Entrypoint   | 0x0589   |
| Data Size    | 14 bytes |
| Instructions | 2        |

```
      00 01 02 03 04 05 06 07  08 09 0A 0B 0C 0D 0E 0F
      -- -- -- -- -- -- -- --  -- -- -- -- -- -- -- --
0580:                             53 F8 FF FF 7F F8 FF           S......
0590: FF 7F 74 6C 6B 31 00                              ..tlk1.         
```

#### Opcodes

```
  0: 0x0589 [0x53] WAIT_SCHEDULER_TASK: Wait for scheduler "tlk1" with entities [EventEntity, EventEntity]
  1: 0x0596 [0x00] END_REQSTACK()
```

### Event 65535.97

#### Metadata

| Field        | Value    |
|--------------|----------|
| Entrypoint   | 0x0597   |
| Data Size    | 16 bytes |
| Instructions | 2        |

```
      00 01 02 03 04 05 06 07  08 09 0A 0B 0C 0D 0E 0F
      -- -- -- -- -- -- -- --  -- -- -- -- -- -- -- --
0590:                      5B  6A 80 F8 FF FF 7F F8 FF         [j.......
05A0: FF 7F 74 68 6B 30 00                              ..thk0.         
```

#### Opcodes

```
  0: 0x0597 [0x5B] LOAD_EXT_SCHEDULER: Load scheduler "thk0" with entities [EventEntity, EventEntity], work=858*
  1: 0x05A6 [0x00] END_REQSTACK()
```

### Event 65535.98

#### Metadata

| Field        | Value    |
|--------------|----------|
| Entrypoint   | 0x05A7   |
| Data Size    | 14 bytes |
| Instructions | 2        |

```
      00 01 02 03 04 05 06 07  08 09 0A 0B 0C 0D 0E 0F
      -- -- -- -- -- -- -- --  -- -- -- -- -- -- -- --
05A0:                      53  F8 FF FF 7F F8 FF FF 7F         S........
05B0: 74 68 6B 30 00                                    thk0.           
```

#### Opcodes

```
  0: 0x05A7 [0x53] WAIT_SCHEDULER_TASK: Wait for scheduler "thk0" with entities [EventEntity, EventEntity]
  1: 0x05B4 [0x00] END_REQSTACK()
```

### Event 65535.99

#### Metadata

| Field        | Value    |
|--------------|----------|
| Entrypoint   | 0x05B5   |
| Data Size    | 16 bytes |
| Instructions | 2        |

```
      00 01 02 03 04 05 06 07  08 09 0A 0B 0C 0D 0E 0F
      -- -- -- -- -- -- -- --  -- -- -- -- -- -- -- --
05B0:                5B 6A 80  F8 FF FF 7F F8 FF FF 7F       [j.........
05C0: 74 68 6B 31 00                                    thk1.           
```

#### Opcodes

```
  0: 0x05B5 [0x5B] LOAD_EXT_SCHEDULER: Load scheduler "thk1" with entities [EventEntity, EventEntity], work=858*
  1: 0x05C4 [0x00] END_REQSTACK()
```

### Event 65535.100

#### Metadata

| Field        | Value    |
|--------------|----------|
| Entrypoint   | 0x05C5   |
| Data Size    | 14 bytes |
| Instructions | 2        |

```
      00 01 02 03 04 05 06 07  08 09 0A 0B 0C 0D 0E 0F
      -- -- -- -- -- -- -- --  -- -- -- -- -- -- -- --
05C0:                53 F8 FF  FF 7F F8 FF FF 7F 74 68       S........th
05D0: 6B 31 00                                          k1.             
```

#### Opcodes

```
  0: 0x05C5 [0x53] WAIT_SCHEDULER_TASK: Wait for scheduler "thk1" with entities [EventEntity, EventEntity]
  1: 0x05D2 [0x00] END_REQSTACK()
```

### Event 65535.101

#### Metadata

| Field        | Value    |
|--------------|----------|
| Entrypoint   | 0x05D3   |
| Data Size    | 16 bytes |
| Instructions | 2        |

```
      00 01 02 03 04 05 06 07  08 09 0A 0B 0C 0D 0E 0F
      -- -- -- -- -- -- -- --  -- -- -- -- -- -- -- --
05D0:          5B 6A 80 F8 FF  FF 7F F8 FF FF 7F 74 6B     [j.........tk
05E0: 61 30 00                                          a0.             
```

#### Opcodes

```
  0: 0x05D3 [0x5B] LOAD_EXT_SCHEDULER: Load scheduler "tka0" with entities [EventEntity, EventEntity], work=858*
  1: 0x05E2 [0x00] END_REQSTACK()
```

### Event 65535.102

#### Metadata

| Field        | Value    |
|--------------|----------|
| Entrypoint   | 0x05E3   |
| Data Size    | 14 bytes |
| Instructions | 2        |

```
      00 01 02 03 04 05 06 07  08 09 0A 0B 0C 0D 0E 0F
      -- -- -- -- -- -- -- --  -- -- -- -- -- -- -- --
05E0:          53 F8 FF FF 7F  F8 FF FF 7F 74 6B 61 30     S........tka0
05F0: 00                                                .               
```

#### Opcodes

```
  0: 0x05E3 [0x53] WAIT_SCHEDULER_TASK: Wait for scheduler "tka0" with entities [EventEntity, EventEntity]
  1: 0x05F0 [0x00] END_REQSTACK()
```

### Event 65535.103

#### Metadata

| Field        | Value    |
|--------------|----------|
| Entrypoint   | 0x05F1   |
| Data Size    | 16 bytes |
| Instructions | 2        |

```
      00 01 02 03 04 05 06 07  08 09 0A 0B 0C 0D 0E 0F
      -- -- -- -- -- -- -- --  -- -- -- -- -- -- -- --
05F0:    5B 6A 80 F8 FF FF 7F  F8 FF FF 7F 74 6B 61 31   [j.........tka1
0600: 00                                                .               
```

#### Opcodes

```
  0: 0x05F1 [0x5B] LOAD_EXT_SCHEDULER: Load scheduler "tka1" with entities [EventEntity, EventEntity], work=858*
  1: 0x0600 [0x00] END_REQSTACK()
```

### Event 65535.104

#### Metadata

| Field        | Value    |
|--------------|----------|
| Entrypoint   | 0x0601   |
| Data Size    | 14 bytes |
| Instructions | 2        |

```
      00 01 02 03 04 05 06 07  08 09 0A 0B 0C 0D 0E 0F
      -- -- -- -- -- -- -- --  -- -- -- -- -- -- -- --
0600:    53 F8 FF FF 7F F8 FF  FF 7F 74 6B 61 31 00      S........tka1. 
```

#### Opcodes

```
  0: 0x0601 [0x53] WAIT_SCHEDULER_TASK: Wait for scheduler "tka1" with entities [EventEntity, EventEntity]
  1: 0x060E [0x00] END_REQSTACK()
```

### Event 65535.105

#### Metadata

| Field        | Value    |
|--------------|----------|
| Entrypoint   | 0x060F   |
| Data Size    | 16 bytes |
| Instructions | 2        |

```
      00 01 02 03 04 05 06 07  08 09 0A 0B 0C 0D 0E 0F
      -- -- -- -- -- -- -- --  -- -- -- -- -- -- -- --
0600:                                               5B                 [
0610: 6A 80 F8 FF FF 7F F8 FF  FF 7F 74 75 6E 30 00     j.........tun0. 
```

#### Opcodes

```
  0: 0x060F [0x5B] LOAD_EXT_SCHEDULER: Load scheduler "tun0" with entities [EventEntity, EventEntity], work=858*
  1: 0x061E [0x00] END_REQSTACK()
```

### Event 65535.106

#### Metadata

| Field        | Value    |
|--------------|----------|
| Entrypoint   | 0x061F   |
| Data Size    | 14 bytes |
| Instructions | 2        |

```
      00 01 02 03 04 05 06 07  08 09 0A 0B 0C 0D 0E 0F
      -- -- -- -- -- -- -- --  -- -- -- -- -- -- -- --
0610:                                               53                 S
0620: F8 FF FF 7F F8 FF FF 7F  74 75 6E 30 00           ........tun0.   
```

#### Opcodes

```
  0: 0x061F [0x53] WAIT_SCHEDULER_TASK: Wait for scheduler "tun0" with entities [EventEntity, EventEntity]
  1: 0x062C [0x00] END_REQSTACK()
```

### Event 65535.107

#### Metadata

| Field        | Value    |
|--------------|----------|
| Entrypoint   | 0x062D   |
| Data Size    | 16 bytes |
| Instructions | 2        |

```
      00 01 02 03 04 05 06 07  08 09 0A 0B 0C 0D 0E 0F
      -- -- -- -- -- -- -- --  -- -- -- -- -- -- -- --
0620:                                         5B 6A 80               [j.
0630: F8 FF FF 7F F8 FF FF 7F  74 75 6E 31 00           ........tun1.   
```

#### Opcodes

```
  0: 0x062D [0x5B] LOAD_EXT_SCHEDULER: Load scheduler "tun1" with entities [EventEntity, EventEntity], work=858*
  1: 0x063C [0x00] END_REQSTACK()
```

### Event 65535.108

#### Metadata

| Field        | Value    |
|--------------|----------|
| Entrypoint   | 0x063D   |
| Data Size    | 14 bytes |
| Instructions | 2        |

```
      00 01 02 03 04 05 06 07  08 09 0A 0B 0C 0D 0E 0F
      -- -- -- -- -- -- -- --  -- -- -- -- -- -- -- --
0630:                                         53 F8 FF               S..
0640: FF 7F F8 FF FF 7F 74 75  6E 31 00                 ......tun1.     
```

#### Opcodes

```
  0: 0x063D [0x53] WAIT_SCHEDULER_TASK: Wait for scheduler "tun1" with entities [EventEntity, EventEntity]
  1: 0x064A [0x00] END_REQSTACK()
```

### Event 65535.109

#### Metadata

| Field        | Value    |
|--------------|----------|
| Entrypoint   | 0x064B   |
| Data Size    | 16 bytes |
| Instructions | 2        |

```
      00 01 02 03 04 05 06 07  08 09 0A 0B 0C 0D 0E 0F
      -- -- -- -- -- -- -- --  -- -- -- -- -- -- -- --
0640:                                   5B 6A 80 F8 FF             [j...
0650: FF 7F F8 FF FF 7F 79 61  68 63 00                 ......yahc.     
```

#### Opcodes

```
  0: 0x064B [0x5B] LOAD_EXT_SCHEDULER: Load scheduler "yahc" with entities [EventEntity, EventEntity], work=858*
  1: 0x065A [0x00] END_REQSTACK()
```

### Event 65535.110

#### Metadata

| Field        | Value    |
|--------------|----------|
| Entrypoint   | 0x065B   |
| Data Size    | 14 bytes |
| Instructions | 2        |

```
      00 01 02 03 04 05 06 07  08 09 0A 0B 0C 0D 0E 0F
      -- -- -- -- -- -- -- --  -- -- -- -- -- -- -- --
0650:                                   53 F8 FF FF 7F             S....
0660: F8 FF FF 7F 79 61 68 63  00                       ....yahc.       
```

#### Opcodes

```
  0: 0x065B [0x53] WAIT_SCHEDULER_TASK: Wait for scheduler "yahc" with entities [EventEntity, EventEntity]
  1: 0x0668 [0x00] END_REQSTACK()
```

### Event 65535.111

#### Metadata

| Field        | Value    |
|--------------|----------|
| Entrypoint   | 0x0669   |
| Data Size    | 16 bytes |
| Instructions | 2        |

```
      00 01 02 03 04 05 06 07  08 09 0A 0B 0C 0D 0E 0F
      -- -- -- -- -- -- -- --  -- -- -- -- -- -- -- --
0660:                             5B 6B 80 F8 FF FF 7F           [k.....
0670: F8 FF FF 7F 6B 6F 75 30  00                       ....kou0.       
```

#### Opcodes

```
  0: 0x0669 [0x5B] LOAD_EXT_SCHEDULER: Load scheduler "kou0" with entities [EventEntity, EventEntity], work=906*
  1: 0x0678 [0x00] END_REQSTACK()
```

### Event 65535.112

#### Metadata

| Field        | Value    |
|--------------|----------|
| Entrypoint   | 0x0679   |
| Data Size    | 14 bytes |
| Instructions | 2        |

```
      00 01 02 03 04 05 06 07  08 09 0A 0B 0C 0D 0E 0F
      -- -- -- -- -- -- -- --  -- -- -- -- -- -- -- --
0670:                             53 F8 FF FF 7F F8 FF           S......
0680: FF 7F 6B 6F 75 30 00                              ..kou0.         
```

#### Opcodes

```
  0: 0x0679 [0x53] WAIT_SCHEDULER_TASK: Wait for scheduler "kou0" with entities [EventEntity, EventEntity]
  1: 0x0686 [0x00] END_REQSTACK()
```

### Event 65535.113

#### Metadata

| Field        | Value    |
|--------------|----------|
| Entrypoint   | 0x0687   |
| Data Size    | 16 bytes |
| Instructions | 2        |

```
      00 01 02 03 04 05 06 07  08 09 0A 0B 0C 0D 0E 0F
      -- -- -- -- -- -- -- --  -- -- -- -- -- -- -- --
0680:                      5B  6B 80 F8 FF FF 7F F8 FF         [k.......
0690: FF 7F 6B 6F 75 31 00                              ..kou1.         
```

#### Opcodes

```
  0: 0x0687 [0x5B] LOAD_EXT_SCHEDULER: Load scheduler "kou1" with entities [EventEntity, EventEntity], work=906*
  1: 0x0696 [0x00] END_REQSTACK()
```

### Event 65535.114

#### Metadata

| Field        | Value    |
|--------------|----------|
| Entrypoint   | 0x0697   |
| Data Size    | 14 bytes |
| Instructions | 2        |

```
      00 01 02 03 04 05 06 07  08 09 0A 0B 0C 0D 0E 0F
      -- -- -- -- -- -- -- --  -- -- -- -- -- -- -- --
0690:                      53  F8 FF FF 7F F8 FF FF 7F         S........
06A0: 6B 6F 75 31 00                                    kou1.           
```

#### Opcodes

```
  0: 0x0697 [0x53] WAIT_SCHEDULER_TASK: Wait for scheduler "kou1" with entities [EventEntity, EventEntity]
  1: 0x06A4 [0x00] END_REQSTACK()
```

### Event 65535.115

#### Metadata

| Field        | Value    |
|--------------|----------|
| Entrypoint   | 0x06A5   |
| Data Size    | 16 bytes |
| Instructions | 2        |

```
      00 01 02 03 04 05 06 07  08 09 0A 0B 0C 0D 0E 0F
      -- -- -- -- -- -- -- --  -- -- -- -- -- -- -- --
06A0:                5B 6B 80  F8 FF FF 7F F8 FF FF 7F       [k.........
06B0: 69 79 61 30 00                                    iya0.           
```

#### Opcodes

```
  0: 0x06A5 [0x5B] LOAD_EXT_SCHEDULER: Load scheduler "iya0" with entities [EventEntity, EventEntity], work=906*
  1: 0x06B4 [0x00] END_REQSTACK()
```

### Event 65535.116

#### Metadata

| Field        | Value    |
|--------------|----------|
| Entrypoint   | 0x06B5   |
| Data Size    | 14 bytes |
| Instructions | 2        |

```
      00 01 02 03 04 05 06 07  08 09 0A 0B 0C 0D 0E 0F
      -- -- -- -- -- -- -- --  -- -- -- -- -- -- -- --
06B0:                53 F8 FF  FF 7F F8 FF FF 7F 69 79       S........iy
06C0: 61 30 00                                          a0.             
```

#### Opcodes

```
  0: 0x06B5 [0x53] WAIT_SCHEDULER_TASK: Wait for scheduler "iya0" with entities [EventEntity, EventEntity]
  1: 0x06C2 [0x00] END_REQSTACK()
```

### Event 65535.117

#### Metadata

| Field        | Value    |
|--------------|----------|
| Entrypoint   | 0x06C3   |
| Data Size    | 16 bytes |
| Instructions | 2        |

```
      00 01 02 03 04 05 06 07  08 09 0A 0B 0C 0D 0E 0F
      -- -- -- -- -- -- -- --  -- -- -- -- -- -- -- --
06C0:          5B 6B 80 F8 FF  FF 7F F8 FF FF 7F 79 65     [k.........ye
