# 16982356

## Common Data

| Field            | Value                         |
|------------------|-------------------------------|
| Zone             | Aht Urhgan Whitegate (ID: 50) |
| Block Size       | 740 bytes                     |
| Total Events     | 7                             |
| References Count | 20                            |

## List of Events

| Event ID                  | Entrypoint   |   Size |   Instructions |
|---------------------------|--------------|--------|----------------|
| [65535](#event-65535)     | 0x0000       |      1 |              1 |
| [859](#event-859)         | 0x0001       |      1 |              1 |
| [872](#event-872)         | 0x0002       |      7 |              2 |
| [65535.1](#event-65535-1) | 0x0009       |    336 |             62 |
| [65535.2](#event-65535-2) | 0x0159       |     98 |             16 |
| [65535.3](#event-65535-3) | 0x01BB       |    158 |             32 |
| [65535.4](#event-65535-4) | 0x0259       |     14 |              4 |

## DAT References (imed_data)

|   Index | Hex Value   |   Dec Value |
|---------|-------------|-------------|
|       0 | 0x0140      |         320 |
|       1 | 0x0002      |           2 |
|       2 | 0x00F0      |         240 |
|       3 | 0xFFFE6AE2  |  4294863586 |
|       4 | 0x2041      |        8257 |
|       5 | 0x0000      |           0 |
|       6 | 0x0305      |         773 |
|       7 | 0x000D      |          13 |
|       8 | 0xFFFE627E  |  4294861438 |
|       9 | 0x2E80      |       11904 |
|      10 | 0x0001      |           1 |
|      11 | 0xFFFE6647  |  4294862407 |
|      12 | 0x314A      |       12618 |
|      13 | 0xFFFE6898  |  4294863000 |
|      14 | 0x2FC7      |       12231 |
|      15 | 0x0003      |           3 |
|      16 | 0x001E      |          30 |
|      17 | 0x005A      |          90 |
|      18 | 0xFFFE5CAD  |  4294859949 |
|      19 | 0x299A      |       10650 |

## Events

### Event 65535

#### Metadata

| Field        | Value   |
|--------------|---------|
| Entrypoint   | 0x0000  |
| Data Size    | 1 bytes |
| Instructions | 1       |

```
      00 01 02 03 04 05 06 07  08 09 0A 0B 0C 0D 0E 0F
      -- -- -- -- -- -- -- --  -- -- -- -- -- -- -- --
0000: 00                                                .               
```

#### Opcodes

```
  0: 0x0000 [0x00] END_REQSTACK()
```

### Event 859

#### Metadata

| Field        | Value   |
|--------------|---------|
| Entrypoint   | 0x0001  |
| Data Size    | 1 bytes |
| Instructions | 1       |

```
      00 01 02 03 04 05 06 07  08 09 0A 0B 0C 0D 0E 0F
      -- -- -- -- -- -- -- --  -- -- -- -- -- -- -- --
0000:    00                                              .              
```

#### Opcodes

```
  0: 0x0001 [0x00] END_REQSTACK()
```

### Event 872

#### Metadata

| Field        | Value   |
|--------------|---------|
| Entrypoint   | 0x0002  |
| Data Size    | 7 bytes |
| Instructions | 2       |

```
      00 01 02 03 04 05 06 07  08 09 0A 0B 0C 0D 0E 0F
      -- -- -- -- -- -- -- --  -- -- -- -- -- -- -- --
0000:       92 01 F8 FF FF 7F  00                         .......       
```

#### Opcodes

```
  0: 0x0002 [0x92] EventEntity->Render.Flags3 ^= 0x01
  1: 0x0008 [0x00] END_REQSTACK()
```

### Event 65535.1

#### Metadata

| Field        | Value     |
|--------------|-----------|
| Entrypoint   | 0x0009    |
| Data Size    | 336 bytes |
| Instructions | 62        |

```
      00 01 02 03 04 05 06 07  08 09 0A 0B 0C 0D 0E 0F
      -- -- -- -- -- -- -- --  -- -- -- -- -- -- -- --
0000:                             1C 00 80 03 25 10 01           ....%..
0010: 80 1C 02 80 22 00 37 03  80 04 80 05 80 06 80 80  ....".7.........
0020: F8 FF FF 7F 13 00 00 01  80 02 00 00 05 80 80 46  ...............F
0030: 00 32 07 80 1F 00 08 80  09 80 05 80 1F 01 03 27  .2.............'
0040: 10 0A 80 01 80 00 02 00  00 0A 80 80 63 00 32 07  ............c.2.
0050: 80 1F 00 0B 80 0C 80 05  80 1F 01 03 27 10 01 80  ............'...
0060: 01 80 00 02 00 00 01 80  80 80 00 32 07 80 1F 00  ...........2....
0070: 0D 80 0E 80 05 80 1F 01  03 27 10 0F 80 01 80 00  .........'......
0080: 1E 6C 20 03 01 1C 10 80  79 00 54 21 03 01 6F 20  .l .....y.T!..o 
0090: 03 01 03 25 10 0A 80 1C  11 80 79 00 54 21 03 01  ...%......y.T!..
00A0: 6E 20 03 01 1C 11 80 02  00 00 05 80 80 B7 00 1E  n ..............
00B0: 55 21 03 01 01 D7 00 02  00 00 0A 80 80 C7 00 1E  U!..............
00C0: 7B 20 03 01 01 D7 00 02  00 00 01 80 80 D7 00 1E  { ..............
00D0: 2C 21 03 01 01 D7 00 1C  10 80 66 05 80 54 21 03  ,!........f..T!.
00E0: 01 54 21 03 01 74 6C 6B  30 1C 11 80 66 05 80 54  .T!..tlk0...f..T
00F0: 21 03 01 54 21 03 01 74  65 6E 30 53 54 21 03 01  !..T!..ten0ST!..
0100: 54 21 03 01 74 65 6E 30  03 25 10 0F 80 32 07 80  T!..ten0.%...2..
0110: 1F 00 12 80 13 80 05 80  1F 01 03 26 10 0A 80 B4  ...........&....
0120: 06 00 02 00 00 05 80 80  34 01 29 05 55 21 03 01  ........4.).U!..
0130: 04 01 58 01 02 00 00 0A  80 80 46 01 29 05 7B 20  ..X.......F.).{ 
0140: 03 01 08 01 58 01 02 00  00 01 80 80 58 01 29 05  ....X.......X.).
0150: 2C 21 03 01 25 01 58 01  00                       ,!..%.X..       
```

#### Opcodes

```
  0: 0x0009 [0x1C] WAIT(320* ticks)
  1: 0x000C [0x03] Work_Zone[37] = 2*
  2: 0x0011 [0x1C] WAIT(240* ticks)
  3: 0x0014 [0x22] ENTITY_HIDE_FLAG(enabled=0x00)
  4: 0x0016 [0x37] UPDATE_EVENT_POSITION_AND_DIR: x=-103.710*, z=8.257*, y=0.000*, direction=67.9°*
  5: 0x001F [0x80] LOAD_WAIT(entity=EventEntity)
  6: 0x0024 [0x13] ExtData[1]->WorkLocal[0] = rand() % 2*
  7: 0x0029 [0x02] IF !(ExtData[1]->WorkLocal[0] == 0*) GOTO 0x0046
  8: 0x0031 [0x32] ExtData[1]->MainSpeed = 13* * 0.1
  9: 0x0034 [0x1F] MOVE_ENTITY: EventEntity moves to X=-105.858*, Z=11.904*, Y=0.000*
 10: 0x003C [0x1F] MOVE_ENTITY: Update entity position (mode=1)
 11: 0x003E [0x03] Work_Zone[39] = 1*
 12: 0x0043 [0x01] GOTO 0x0080
 13: 0x0046 [0x02] IF !(ExtData[1]->WorkLocal[0] == 1*) GOTO 0x0063
 14: 0x004E [0x32] ExtData[1]->MainSpeed = 13* * 0.1
 15: 0x0051 [0x1F] MOVE_ENTITY: EventEntity moves to X=-104.889*, Z=12.618*, Y=0.000*
 16: 0x0059 [0x1F] MOVE_ENTITY: Update entity position (mode=1)
 17: 0x005B [0x03] Work_Zone[39] = 2*
 18: 0x0060 [0x01] GOTO 0x0080
 19: 0x0063 [0x02] IF !(ExtData[1]->WorkLocal[0] == 2*) GOTO 0x0080
 20: 0x006B [0x32] ExtData[1]->MainSpeed = 13* * 0.1
 21: 0x006E [0x1F] MOVE_ENTITY: EventEntity moves to X=-104.296*, Z=12.231*, Y=0.000*
 22: 0x0076 [0x1F] MOVE_ENTITY: Update entity position (mode=1)
 23: 0x0078 [0x03] Work_Zone[39] = 3*
 24: 0x007D [0x01] GOTO 0x0080

SUBROUTINE_0080:
 25: 0x0080 [0x1E] EventEntity looks at Zyfhil (ID: 16982124/0x0103206C) and starts talking
 26: 0x0085 [0x1C] WAIT(30* ticks)
 27: 0x0088 [0x79] Unnamed NPC (ID: 16982356/0x01032154) looks at Talwahn (ID: 16982127/0x0103206F) (Basic look)
 28: 0x0092 [0x03] Work_Zone[37] = 1*
 29: 0x0097 [0x1C] WAIT(90* ticks)
 30: 0x009A [0x79] Unnamed NPC (ID: 16982356/0x01032154) looks at Tafeesa (ID: 16982126/0x0103206E) (Basic look)
 31: 0x00A4 [0x1C] WAIT(90* ticks)
 32: 0x00A7 [0x02] IF !(ExtData[1]->WorkLocal[0] == 0*) GOTO 0x00B7
 33: 0x00AF [0x1E] EventEntity looks at Bajhaam (ID: 16982357/0x01032155) and starts talking
 34: 0x00B4 [0x01] GOTO 0x00D7
 35: 0x00B7 [0x02] IF !(ExtData[1]->WorkLocal[0] == 1*) GOTO 0x00C7
 36: 0x00BF [0x1E] EventEntity looks at Rujen-Gorgen (ID: 16982139/0x0103207B) and starts talking
 37: 0x00C4 [0x01] GOTO 0x00D7
 38: 0x00C7 [0x02] IF !(ExtData[1]->WorkLocal[0] == 2*) GOTO 0x00D7
 39: 0x00CF [0x1E] EventEntity looks at Zabahf (ID: 16982316/0x0103212C) and starts talking
 40: 0x00D4 [0x01] GOTO 0x00D7

SUBROUTINE_00D7:
 41: 0x00D7 [0x1C] WAIT(30* ticks)
 42: 0x00DA [0x66] LOAD_EXT_SCHEDULER_MAIN: Load scheduler "tlk0" with entities [Unnamed NPC (ID: 16982356/0x01032154), Unnamed NPC (ID: 16982356/0x01032154)], work=0*
 43: 0x00E9 [0x1C] WAIT(90* ticks)
 44: 0x00EC [0x66] LOAD_EXT_SCHEDULER_MAIN: Load scheduler "ten0" with entities [Unnamed NPC (ID: 16982356/0x01032154), Unnamed NPC (ID: 16982356/0x01032154)], work=0*
 45: 0x00FB [0x53] WAIT_SCHEDULER_TASK: Wait for scheduler "ten0" with entities [Unnamed NPC (ID: 16982356/0x01032154), Unnamed NPC (ID: 16982356/0x01032154)]
 46: 0x0108 [0x03] Work_Zone[37] = 3*
 47: 0x010D [0x32] ExtData[1]->MainSpeed = 13* * 0.1
 48: 0x0110 [0x1F] MOVE_ENTITY: EventEntity moves to X=-107.347*, Z=10.650*, Y=0.000*
 49: 0x0118 [0x1F] MOVE_ENTITY: Update entity position (mode=1)
 50: 0x011A [0x03] Work_Zone[38] = 1*
 51: 0x011F [0xB4] UI_WINDOW_STRING_HANDLER(case=0x06 - Toggle query message flag, flag_value=0x00)
 52: 0x0122 [0x02] IF !(ExtData[1]->WorkLocal[0] == 0*) GOTO 0x0134
 53: 0x012A [0x29] REQ_SET_WAIT(priority=0x05, entity_id=Bajhaam (ID: 16982357/0x01032155), tag_num=0x04)
 54: 0x0131 [0x01] GOTO 0x0158
 55: 0x0134 [0x02] IF !(ExtData[1]->WorkLocal[0] == 1*) GOTO 0x0146
 56: 0x013C [0x29] REQ_SET_WAIT(priority=0x05, entity_id=Rujen-Gorgen (ID: 16982139/0x0103207B), tag_num=0x08)
 57: 0x0143 [0x01] GOTO 0x0158
 58: 0x0146 [0x02] IF !(ExtData[1]->WorkLocal[0] == 2*) GOTO 0x0158
 59: 0x014E [0x29] REQ_SET_WAIT(priority=0x05, entity_id=Zabahf (ID: 16982316/0x0103212C), tag_num=0x25)
 60: 0x0155 [0x01] GOTO 0x0158

SUBROUTINE_0158:
 61: 0x0158 [0x00] END_REQSTACK()
```

### Event 65535.2

#### Metadata

| Field        | Value    |
|--------------|----------|
| Entrypoint   | 0x0159   |
| Data Size    | 98 bytes |
| Instructions | 16       |

```
      00 01 02 03 04 05 06 07  08 09 0A 0B 0C 0D 0E 0F
      -- -- -- -- -- -- -- --  -- -- -- -- -- -- -- --
0150:                             79 00 54 21 03 01 6E           y.T!..n
0160: 20 03 01 1C 11 80 02 05  10 0A 80 80 76 01 1E 55   ...........v..U
0170: 21 03 01 01 96 01 02 05  10 01 80 80 86 01 1E 7B  !..............{
0180: 20 03 01 01 96 01 02 05  10 0F 80 80 96 01 1E 2C   ..............,
0190: 21 03 01 01 96 01 1C 10  80 66 05 80 54 21 03 01  !........f..T!..
01A0: 54 21 03 01 74 6C 6B 30  1C 11 80 66 05 80 54 21  T!..tlk0...f..T!
01B0: 03 01 54 21 03 01 74 65  6E 30 00                 ..T!..ten0.     
```

#### Opcodes

```
  0: 0x0159 [0x79] Unnamed NPC (ID: 16982356/0x01032154) looks at Tafeesa (ID: 16982126/0x0103206E) (Basic look)
  1: 0x0163 [0x1C] WAIT(90* ticks)
  2: 0x0166 [0x02] IF !(Work_Zone[5] == 1*) GOTO 0x0176
  3: 0x016E [0x1E] EventEntity looks at Bajhaam (ID: 16982357/0x01032155) and starts talking
  4: 0x0173 [0x01] GOTO 0x0196
  5: 0x0176 [0x02] IF !(Work_Zone[5] == 2*) GOTO 0x0186
  6: 0x017E [0x1E] EventEntity looks at Rujen-Gorgen (ID: 16982139/0x0103207B) and starts talking
  7: 0x0183 [0x01] GOTO 0x0196
  8: 0x0186 [0x02] IF !(Work_Zone[5] == 3*) GOTO 0x0196
  9: 0x018E [0x1E] EventEntity looks at Zabahf (ID: 16982316/0x0103212C) and starts talking
 10: 0x0193 [0x01] GOTO 0x0196

SUBROUTINE_0196:
 11: 0x0196 [0x1C] WAIT(30* ticks)
 12: 0x0199 [0x66] LOAD_EXT_SCHEDULER_MAIN: Load scheduler "tlk0" with entities [Unnamed NPC (ID: 16982356/0x01032154), Unnamed NPC (ID: 16982356/0x01032154)], work=0*
 13: 0x01A8 [0x1C] WAIT(90* ticks)
 14: 0x01AB [0x66] LOAD_EXT_SCHEDULER_MAIN: Load scheduler "ten0" with entities [Unnamed NPC (ID: 16982356/0x01032154), Unnamed NPC (ID: 16982356/0x01032154)], work=0*
 15: 0x01BA [0x00] END_REQSTACK()
```

### Event 65535.3

#### Metadata

| Field        | Value     |
|--------------|-----------|
| Entrypoint   | 0x01BB    |
| Data Size    | 158 bytes |
| Instructions | 32        |

```
      00 01 02 03 04 05 06 07  08 09 0A 0B 0C 0D 0E 0F
      -- -- -- -- -- -- -- --  -- -- -- -- -- -- -- --
01B0:                                   02 05 10 0A 80             .....
01C0: 80 D3 01 32 07 80 1F 00  08 80 09 80 05 80 1F 01  ...2............
01D0: 01 03 02 02 05 10 01 80  80 EB 01 32 07 80 1F 00  ...........2....
01E0: 0B 80 0C 80 05 80 1F 01  01 03 02 02 05 10 0F 80  ................
01F0: 80 03 02 32 07 80 1F 00  0D 80 0E 80 05 80 1F 01  ...2............
0200: 01 03 02 1E 6C 20 03 01  1C 10 80 79 00 54 21 03  ....l .....y.T!.
0210: 01 6F 20 03 01 1C 11 80  79 00 54 21 03 01 6E 20  .o .....y.T!..n 
0220: 03 01 1C 11 80 02 05 10  0A 80 80 35 02 1E 55 21  ...........5..U!
0230: 03 01 01 55 02 02 05 10  01 80 80 45 02 1E 7B 20  ...U.......E..{ 
0240: 03 01 01 55 02 02 05 10  0F 80 80 55 02 1E 2C 21  ...U.......U..,!
0250: 03 01 01 55 02 1C 10 80  00                       ...U.....       
```

#### Opcodes

```
  0: 0x01BB [0x02] IF !(Work_Zone[5] == 1*) GOTO 0x01D3
  1: 0x01C3 [0x32] ExtData[1]->MainSpeed = 13* * 0.1
  2: 0x01C6 [0x1F] MOVE_ENTITY: EventEntity moves to X=-105.858*, Z=11.904*, Y=0.000*
  3: 0x01CE [0x1F] MOVE_ENTITY: Update entity position (mode=1)
  4: 0x01D0 [0x01] GOTO 0x0203
  5: 0x01D3 [0x02] IF !(Work_Zone[5] == 2*) GOTO 0x01EB
  6: 0x01DB [0x32] ExtData[1]->MainSpeed = 13* * 0.1
  7: 0x01DE [0x1F] MOVE_ENTITY: EventEntity moves to X=-104.889*, Z=12.618*, Y=0.000*
  8: 0x01E6 [0x1F] MOVE_ENTITY: Update entity position (mode=1)
  9: 0x01E8 [0x01] GOTO 0x0203
 10: 0x01EB [0x02] IF !(Work_Zone[5] == 3*) GOTO 0x0203
 11: 0x01F3 [0x32] ExtData[1]->MainSpeed = 13* * 0.1
 12: 0x01F6 [0x1F] MOVE_ENTITY: EventEntity moves to X=-104.296*, Z=12.231*, Y=0.000*
 13: 0x01FE [0x1F] MOVE_ENTITY: Update entity position (mode=1)
 14: 0x0200 [0x01] GOTO 0x0203

SUBROUTINE_0203:
 15: 0x0203 [0x1E] EventEntity looks at Zyfhil (ID: 16982124/0x0103206C) and starts talking
 16: 0x0208 [0x1C] WAIT(30* ticks)
 17: 0x020B [0x79] Unnamed NPC (ID: 16982356/0x01032154) looks at Talwahn (ID: 16982127/0x0103206F) (Basic look)
 18: 0x0215 [0x1C] WAIT(90* ticks)
 19: 0x0218 [0x79] Unnamed NPC (ID: 16982356/0x01032154) looks at Tafeesa (ID: 16982126/0x0103206E) (Basic look)
 20: 0x0222 [0x1C] WAIT(90* ticks)
 21: 0x0225 [0x02] IF !(Work_Zone[5] == 1*) GOTO 0x0235
 22: 0x022D [0x1E] EventEntity looks at Bajhaam (ID: 16982357/0x01032155) and starts talking
 23: 0x0232 [0x01] GOTO 0x0255
 24: 0x0235 [0x02] IF !(Work_Zone[5] == 2*) GOTO 0x0245
 25: 0x023D [0x1E] EventEntity looks at Rujen-Gorgen (ID: 16982139/0x0103207B) and starts talking
 26: 0x0242 [0x01] GOTO 0x0255
 27: 0x0245 [0x02] IF !(Work_Zone[5] == 3*) GOTO 0x0255
 28: 0x024D [0x1E] EventEntity looks at Zabahf (ID: 16982316/0x0103212C) and starts talking
 29: 0x0252 [0x01] GOTO 0x0255

SUBROUTINE_0255:
 30: 0x0255 [0x1C] WAIT(30* ticks)
 31: 0x0258 [0x00] END_REQSTACK()
```

### Event 65535.4

#### Metadata

| Field        | Value    |
|--------------|----------|
| Entrypoint   | 0x0259   |
| Data Size    | 14 bytes |
| Instructions | 4        |

```
      00 01 02 03 04 05 06 07  08 09 0A 0B 0C 0D 0E 0F
      -- -- -- -- -- -- -- --  -- -- -- -- -- -- -- --
0250:                             32 07 80 1F 00 12 80           2......
0260: 13 80 05 80 1F 01 00                              .......         
```

#### Opcodes

```
  0: 0x0259 [0x32] ExtData[1]->MainSpeed = 13* * 0.1
  1: 0x025C [0x1F] MOVE_ENTITY: EventEntity moves to X=-107.347*, Z=10.650*, Y=0.000*
  2: 0x0264 [0x1F] MOVE_ENTITY: Update entity position (mode=1)
  3: 0x0266 [0x00] END_REQSTACK()
```
