# 16982143 - Teteroon

## Common Data

| Field            | Value                         |
|------------------|-------------------------------|
| Zone             | Aht Urhgan Whitegate (ID: 50) |
| Block Size       | 556 bytes                     |
| Total Events     | 8                             |
| References Count | 31                            |

## List of Events

| Event ID                  | Entrypoint   |   Size |   Instructions |
|---------------------------|--------------|--------|----------------|
| [65535](#event-65535)     | 0x0000       |      1 |              1 |
| [671](#event-671)         | 0x0001       |     51 |             11 |
| [867](#event-867)         | 0x0034       |      7 |              2 |
| [65535.1](#event-65535-1) | 0x003B       |    174 |             33 |
| [872](#event-872)         | 0x00E9       |      7 |              2 |
| [65535.2](#event-65535-2) | 0x00F0       |     70 |             16 |
| [65535.3](#event-65535-3) | 0x0136       |     37 |              9 |
| [65535.4](#event-65535-4) | 0x015B       |     35 |              4 |

## DAT References (imed_data)

|   Index | Hex Value   |   Dec Value |
|---------|-------------|-------------|
|       0 | 0x001E      |          30 |
|       1 | 0x034B      |         843 |
|       2 | 0x18FB      |        6395 |
|       3 | 0x18FC      |        6396 |
|       4 | 0x0028      |          40 |
|       5 | 0xFFFEB6DC  |  4294883036 |
|       6 | 0xFFFFC5DC  |  4294952412 |
|       7 | 0x0000      |           0 |
|       8 | 0xFFFEAAAF  |  4294879919 |
|       9 | 0xFFFFE14B  |  4294959435 |
|      10 | 0xFFFE9FC3  |  4294877123 |
|      11 | 0xFFFFF060  |  4294963296 |
|      12 | 0xFFFE9C1E  |  4294876190 |
|      13 | 0xFFFFEBF5  |  4294962165 |
|      14 | 0x0268      |         616 |
|      15 | 0x01E0      |         480 |
|      16 | 0xFFFE9762  |  4294874978 |
|      17 | 0xFFFFE7E0  |  4294961120 |
|      18 | 0xFFFE9B69  |  4294876009 |
|      19 | 0xFFFFD8BC  |  4294957244 |
|      20 | 0x0078      |         120 |
|      21 | 0xFFFEA964  |  4294879588 |
|      22 | 0xFFFFD78B  |  4294956939 |
|      23 | 0x0003      |           3 |
|      24 | 0x003C      |          60 |
|      25 | 0xFFFEA553  |  4294878547 |
|      26 | 0xFFFFE67D  |  4294960765 |
|      27 | 0xFFFE9C6F  |  4294876271 |
|      28 | 0xFFFFE8DD  |  4294961373 |
|      29 | 0x0001      |           1 |
|      30 | 0x00B4      |         180 |

## Events

### Event 65535

#### Metadata

| Field        | Value   |
|--------------|---------|
| Entrypoint   | 0x0000  |
| Data Size    | 1 bytes |
| Instructions | 1       |

```
      00 01 02 03 04 05 06 07  08 09 0A 0B 0C 0D 0E 0F
      -- -- -- -- -- -- -- --  -- -- -- -- -- -- -- --
0000: 00                                                .               
```

#### Opcodes

```
  0: 0x0000 [0x00] END_REQSTACK()
```

### Event 671

#### Metadata

| Field        | Value    |
|--------------|----------|
| Entrypoint   | 0x0001   |
| Data Size    | 51 bytes |
| Instructions | 11       |

```
      00 01 02 03 04 05 06 07  08 09 0A 0B 0C 0D 0E 0F
      -- -- -- -- -- -- -- --  -- -- -- -- -- -- -- --
0000:    1E F0 FF FF 7F 1C 00  80 5B 01 80 F8 FF FF 7F   ........[......
0010: F8 FF FF 7F 74 6C 62 30  1D 02 80 23 1D 03 80 23  ....tlb0...#...#
0020: 5B 01 80 F8 FF FF 7F F8  FF FF 7F 74 6C 62 31 1C  [..........tlb1.
0030: 00 80 21 00                                       ..!.            
```

#### Opcodes

```
  0: 0x0001 [0x1E] EventEntity looks at LocalPlayer and starts talking
  1: 0x0006 [0x1C] WAIT(30* ticks)
  2: 0x0009 [0x5B] LOAD_EXT_SCHEDULER: Load scheduler "tlb0" with entities [EventEntity, EventEntity], work=843*
  3: 0x0018 [0x1D] PRINT_EVENT_MESSAGE(message_id=6395*)
    → "Teteroon at yooor service!\u0007Teteroon is meeercenary.\u007F1\u0000\u0007"
  4: 0x001B [0x23] WAIT_FOR_DIALOG_INTERACTION
  5: 0x001C [0x1D] PRINT_EVENT_MESSAGE(message_id=6396*)
    → "Three cheers fooor the Empreeess!\u0007...Just little joooke. Ha ha!\u007F1\u0000\u0007"
  6: 0x001F [0x23] WAIT_FOR_DIALOG_INTERACTION
  7: 0x0020 [0x5B] LOAD_EXT_SCHEDULER: Load scheduler "tlb1" with entities [EventEntity, EventEntity], work=843*
  8: 0x002F [0x1C] WAIT(30* ticks)
  9: 0x0032 [0x21] END_EVENT
 10: 0x0033 [0x00] END_REQSTACK()
```

### Event 867

#### Metadata

| Field        | Value   |
|--------------|---------|
| Entrypoint   | 0x0034  |
| Data Size    | 7 bytes |
| Instructions | 2       |

```
      00 01 02 03 04 05 06 07  08 09 0A 0B 0C 0D 0E 0F
      -- -- -- -- -- -- -- --  -- -- -- -- -- -- -- --
0030:             92 01 F8 FF  FF 7F 00                     .......     
```

#### Opcodes

```
  0: 0x0034 [0x92] EventEntity->Render.Flags3 ^= 0x01
  1: 0x003A [0x00] END_REQSTACK()
```

### Event 65535.1

#### Metadata

| Field        | Value     |
|--------------|-----------|
| Entrypoint   | 0x003B    |
| Data Size    | 174 bytes |
| Instructions | 33        |

```
      00 01 02 03 04 05 06 07  08 09 0A 0B 0C 0D 0E 0F
      -- -- -- -- -- -- -- --  -- -- -- -- -- -- -- --
0030:                                   32 04 80 1F 00             2....
0040: 05 80 06 80 07 80 1F 01  1F 00 08 80 09 80 07 80  ................
0050: 1F 01 1F 00 0A 80 0B 80  07 80 1F 01 1F 00 0C 80  ................
0060: 0D 80 07 80 1F 01 4B 7F  20 03 01 0E 80 27 05 29  ......K. ....'.)
0070: 21 03 01 0A 1C 0F 80 1F  00 10 80 11 80 07 80 1F  !...............
0080: 01 1F 00 12 80 13 80 07  80 1F 01 1C 14 80 1F 00  ................
0090: 15 80 16 80 07 80 1F 01  03 25 10 17 80 1C 18 80  .........%......
00A0: 1F 00 19 80 1A 80 07 80  1F 01 1C 00 80 1F 00 1B  ................
00B0: 80 1C 80 07 80 1F 01 4B  7F 20 03 01 0E 80 2A 05  .......K. ....*.
00C0: 29 21 03 01 5B 01 80 F8  FF FF 7F F8 FF FF 7F 68  )!..[..........h
00D0: 61 70 30 53 F8 FF FF 7F  F8 FF FF 7F 68 61 70 30  ap0S........hap0
00E0: 03 26 10 1D 80 B4 06 00  00                       .&.......       
```

#### Opcodes

```
  0: 0x003B [0x32] ExtData[1]->MainSpeed = 40* * 0.1
  1: 0x003E [0x1F] MOVE_ENTITY: EventEntity moves to X=-84.260*, Z=-14.884*, Y=0.000*
  2: 0x0046 [0x1F] MOVE_ENTITY: Update entity position (mode=1)
  3: 0x0048 [0x1F] MOVE_ENTITY: EventEntity moves to X=-87.377*, Z=-7.861*, Y=0.000*
  4: 0x0050 [0x1F] MOVE_ENTITY: Update entity position (mode=1)
  5: 0x0052 [0x1F] MOVE_ENTITY: EventEntity moves to X=-90.173*, Z=-4.000*, Y=0.000*
  6: 0x005A [0x1F] MOVE_ENTITY: Update entity position (mode=1)
  7: 0x005C [0x1F] MOVE_ENTITY: EventEntity moves to X=-91.106*, Z=-5.131*, Y=0.000*
  8: 0x0064 [0x1F] MOVE_ENTITY: Update entity position (mode=1)
  9: 0x0066 [0x4B] UPDATE_ENTITY_YAW(entity=Teteroon (ID: 16982143/0x0103207F), yaw=3.4°*)
 10: 0x006D [0x27] REQ_SET(priority=0x05, entity_id=Mushayra (ID: 16982313/0x01032129), tag_num=0x0A)
 11: 0x0074 [0x1C] WAIT(480* ticks)
 12: 0x0077 [0x1F] MOVE_ENTITY: EventEntity moves to X=-92.318*, Z=-6.176*, Y=0.000*
 13: 0x007F [0x1F] MOVE_ENTITY: Update entity position (mode=1)
 14: 0x0081 [0x1F] MOVE_ENTITY: EventEntity moves to X=-91.287*, Z=-10.052*, Y=0.000*
 15: 0x0089 [0x1F] MOVE_ENTITY: Update entity position (mode=1)
 16: 0x008B [0x1C] WAIT(120* ticks)
 17: 0x008E [0x1F] MOVE_ENTITY: EventEntity moves to X=-87.708*, Z=-10.357*, Y=0.000*
 18: 0x0096 [0x1F] MOVE_ENTITY: Update entity position (mode=1)
 19: 0x0098 [0x03] Work_Zone[37] = 3*
 20: 0x009D [0x1C] WAIT(60* ticks)
 21: 0x00A0 [0x1F] MOVE_ENTITY: EventEntity moves to X=-88.749*, Z=-6.531*, Y=0.000*
 22: 0x00A8 [0x1F] MOVE_ENTITY: Update entity position (mode=1)
 23: 0x00AA [0x1C] WAIT(30* ticks)
 24: 0x00AD [0x1F] MOVE_ENTITY: EventEntity moves to X=-91.025*, Z=-5.923*, Y=0.000*
 25: 0x00B5 [0x1F] MOVE_ENTITY: Update entity position (mode=1)
 26: 0x00B7 [0x4B] UPDATE_ENTITY_YAW(entity=Teteroon (ID: 16982143/0x0103207F), yaw=3.4°*)
 27: 0x00BE [0x2A] GET_REQ_LEVEL(level=5, entity_id=Mushayra (ID: 16982313/0x01032129))
 28: 0x00C4 [0x5B] LOAD_EXT_SCHEDULER: Load scheduler "hap0" with entities [EventEntity, EventEntity], work=843*
 29: 0x00D3 [0x53] WAIT_SCHEDULER_TASK: Wait for scheduler "hap0" with entities [EventEntity, EventEntity]
 30: 0x00E0 [0x03] Work_Zone[38] = 1*
 31: 0x00E5 [0xB4] UI_WINDOW_STRING_HANDLER(case=0x06 - Toggle query message flag, flag_value=0x00)
 32: 0x00E8 [0x00] END_REQSTACK()
```

### Event 872

#### Metadata

| Field        | Value   |
|--------------|---------|
| Entrypoint   | 0x00E9  |
| Data Size    | 7 bytes |
| Instructions | 2       |

```
      00 01 02 03 04 05 06 07  08 09 0A 0B 0C 0D 0E 0F
      -- -- -- -- -- -- -- --  -- -- -- -- -- -- -- --
00E0:                             92 01 F8 FF FF 7F 00           .......
```

#### Opcodes

```
  0: 0x00E9 [0x92] EventEntity->Render.Flags3 ^= 0x01
  1: 0x00EF [0x00] END_REQSTACK()
```

### Event 65535.2

#### Metadata

| Field        | Value    |
|--------------|----------|
| Entrypoint   | 0x00F0   |
| Data Size    | 70 bytes |
| Instructions | 16       |

```
      00 01 02 03 04 05 06 07  08 09 0A 0B 0C 0D 0E 0F
      -- -- -- -- -- -- -- --  -- -- -- -- -- -- -- --
00F0: 32 04 80 1F 00 10 80 11  80 07 80 1F 01 1F 00 12  2...............
0100: 80 13 80 07 80 1F 01 1C  18 80 1F 00 15 80 16 80  ................
0110: 07 80 1F 01 1C 18 80 1F  00 19 80 1A 80 07 80 1F  ................
0120: 01 1C 00 80 1F 00 1B 80  1C 80 07 80 1F 01 4B 7F  ..............K.
0130: 20 03 01 0E 80 00                                  .....          
```

#### Opcodes

```
  0: 0x00F0 [0x32] ExtData[1]->MainSpeed = 40* * 0.1
  1: 0x00F3 [0x1F] MOVE_ENTITY: EventEntity moves to X=-92.318*, Z=-6.176*, Y=0.000*
  2: 0x00FB [0x1F] MOVE_ENTITY: Update entity position (mode=1)
  3: 0x00FD [0x1F] MOVE_ENTITY: EventEntity moves to X=-91.287*, Z=-10.052*, Y=0.000*
  4: 0x0105 [0x1F] MOVE_ENTITY: Update entity position (mode=1)
  5: 0x0107 [0x1C] WAIT(60* ticks)
  6: 0x010A [0x1F] MOVE_ENTITY: EventEntity moves to X=-87.708*, Z=-10.357*, Y=0.000*
  7: 0x0112 [0x1F] MOVE_ENTITY: Update entity position (mode=1)
  8: 0x0114 [0x1C] WAIT(60* ticks)
  9: 0x0117 [0x1F] MOVE_ENTITY: EventEntity moves to X=-88.749*, Z=-6.531*, Y=0.000*
 10: 0x011F [0x1F] MOVE_ENTITY: Update entity position (mode=1)
 11: 0x0121 [0x1C] WAIT(30* ticks)
 12: 0x0124 [0x1F] MOVE_ENTITY: EventEntity moves to X=-91.025*, Z=-5.923*, Y=0.000*
 13: 0x012C [0x1F] MOVE_ENTITY: Update entity position (mode=1)
 14: 0x012E [0x4B] UPDATE_ENTITY_YAW(entity=Teteroon (ID: 16982143/0x0103207F), yaw=3.4°*)
 15: 0x0135 [0x00] END_REQSTACK()
```

### Event 65535.3

#### Metadata

| Field        | Value    |
|--------------|----------|
| Entrypoint   | 0x0136   |
| Data Size    | 37 bytes |
| Instructions | 9        |

```
      00 01 02 03 04 05 06 07  08 09 0A 0B 0C 0D 0E 0F
      -- -- -- -- -- -- -- --  -- -- -- -- -- -- -- --
0130:                   1C 1E  80 1F 00 10 80 11 80 07        ..........
0140: 80 1F 01 1F 00 12 80 13  80 07 80 1F 01 1C 14 80  ................
0150: 1F 00 15 80 16 80 07 80  1F 01 00                 ...........     
```

#### Opcodes

```
  0: 0x0136 [0x1C] WAIT(180* ticks)
  1: 0x0139 [0x1F] MOVE_ENTITY: EventEntity moves to X=-92.318*, Z=-6.176*, Y=0.000*
  2: 0x0141 [0x1F] MOVE_ENTITY: Update entity position (mode=1)
  3: 0x0143 [0x1F] MOVE_ENTITY: EventEntity moves to X=-91.287*, Z=-10.052*, Y=0.000*
  4: 0x014B [0x1F] MOVE_ENTITY: Update entity position (mode=1)
  5: 0x014D [0x1C] WAIT(120* ticks)
  6: 0x0150 [0x1F] MOVE_ENTITY: EventEntity moves to X=-87.708*, Z=-10.357*, Y=0.000*
  7: 0x0158 [0x1F] MOVE_ENTITY: Update entity position (mode=1)
  8: 0x015A [0x00] END_REQSTACK()
```

### Event 65535.4

#### Metadata

| Field        | Value    |
|--------------|----------|
| Entrypoint   | 0x015B   |
| Data Size    | 35 bytes |
| Instructions | 4        |

```
      00 01 02 03 04 05 06 07  08 09 0A 0B 0C 0D 0E 0F
      -- -- -- -- -- -- -- --  -- -- -- -- -- -- -- --
0150:                                   2A 05 29 21 03             *.)!.
0160: 01 5B 01 80 F8 FF FF 7F  F8 FF FF 7F 68 61 70 30  .[..........hap0
0170: 53 F8 FF FF 7F F8 FF FF  7F 68 61 70 30 00        S........hap0.  
```

#### Opcodes

```
  0: 0x015B [0x2A] GET_REQ_LEVEL(level=5, entity_id=Mushayra (ID: 16982313/0x01032129))
  1: 0x0161 [0x5B] LOAD_EXT_SCHEDULER: Load scheduler "hap0" with entities [EventEntity, EventEntity], work=843*
  2: 0x0170 [0x53] WAIT_SCHEDULER_TASK: Wait for scheduler "hap0" with entities [EventEntity, EventEntity]
  3: 0x017D [0x00] END_REQSTACK()
```
