# 16982124 - Zyfhil

## Common Data

| Field            | Value                         |
|------------------|-------------------------------|
| Zone             | Aht Urhgan Whitegate (ID: 50) |
| Block Size       | 312 bytes                     |
| Total Events     | 8                             |
| References Count | 12                            |

## List of Events

| Event ID              | Entrypoint   |   Size |   Instructions |
|-----------------------|--------------|--------|----------------|
| [65535](#event-65535) | 0x0000       |      1 |              1 |
| [653](#event-653)     | 0x0001       |    101 |             19 |
| [774](#event-774)     | 0x0066       |      7 |              2 |
| [859](#event-859)     | 0x006D       |      7 |              2 |
| [872](#event-872)     | 0x0074       |      7 |              2 |
| [858](#event-858)     | 0x007B       |     52 |             12 |
| [874](#event-874)     | 0x00AF       |     34 |             10 |
| [3220](#event-3220)   | 0x00D1       |      7 |              2 |

## DAT References (imed_data)

|   Index | Hex Value   |   Dec Value |
|---------|-------------|-------------|
|       0 | 0x001E      |          30 |
|       1 | 0x0000      |           0 |
|       2 | 0x18AF      |        6319 |
|       3 | 0x18B0      |        6320 |
|       4 | 0x18B1      |        6321 |
|       5 | 0x18B2      |        6322 |
|       6 | 0x18B3      |        6323 |
|       7 | 0x1C6B      |        7275 |
|       8 | 0x1C6C      |        7276 |
|       9 | 0x1C6D      |        7277 |
|      10 | 0x1CB1      |        7345 |
|      11 | 0x1CB2      |        7346 |

## String References

- **6319**: Come one, come all! There's room for everyone--no pushing, now!
- **6320**: Witness the amazing antics of the singing, dancing Petrino! Cute, isn't she?
- **6323**: You've never seen anything like it! Come one, come all! Feast your eyes on the amazing Petrino!
- **7275**: You seem the understanding type, my friend. Might you not listen to my humble plea?
- **7276**: It seems that there is a thief among my patrons, and his despicable deeds are driving all the poor lords and ladies from my act.
- **7277**: If the fiend isn't brought to justice, I may just have to pack up and move my show elsewhere...
- **7345**: Did you hear the news, [fine sir/fine lady]? We finally caught the thief who was pilfering pennies from my patrons' pockets!
- **7346**: And all thanks to Petrino! It was she who cornered the fiend after we received a tip from a friendly old man! Now the show can go on!

## Events

### Event 65535

#### Metadata

| Field        | Value   |
|--------------|---------|
| Entrypoint   | 0x0000  |
| Data Size    | 1 bytes |
| Instructions | 1       |

```
      00 01 02 03 04 05 06 07  08 09 0A 0B 0C 0D 0E 0F
      -- -- -- -- -- -- -- --  -- -- -- -- -- -- -- --
0000: 00                                                .               
```

#### Opcodes

```
  0: 0x0000 [0x00] END_REQSTACK()
```

### Event 653

#### Metadata

| Field        | Value     |
|--------------|-----------|
| Entrypoint   | 0x0001    |
| Data Size    | 101 bytes |
| Instructions | 19        |

```
      00 01 02 03 04 05 06 07  08 09 0A 0B 0C 0D 0E 0F
      -- -- -- -- -- -- -- --  -- -- -- -- -- -- -- --
0000:    1E F0 FF FF 7F 1C 00  80 66 01 80 6C 20 03 01   ........f..l ..
0010: 6C 20 03 01 74 6C 6B 30  1D 02 80 23 1D 03 80 23  l ..tlk0...#...#
0020: 66 01 80 6C 20 03 01 6C  20 03 01 74 65 6E 30 2B  f..l ..l ..ten0+
0030: 6D 20 03 01 04 80 23 2B  6D 20 03 01 05 80 23 66  m ....#+m ....#f
0040: 01 80 6C 20 03 01 6C 20  03 01 74 6C 6B 30 1D 06  ..l ..l ..tlk0..
0050: 80 23 66 01 80 6C 20 03  01 6C 20 03 01 74 65 6E  .#f..l ..l ..ten
0060: 30 1C 00 80 21 00                                 0...!.          
```

#### Opcodes

```
  0: 0x0001 [0x1E] EventEntity looks at LocalPlayer and starts talking
  1: 0x0006 [0x1C] WAIT(30* ticks)
  2: 0x0009 [0x66] LOAD_EXT_SCHEDULER_MAIN: Load scheduler "tlk0" with entities [Zyfhil (ID: 16982124/0x0103206C), Zyfhil (ID: 16982124/0x0103206C)], work=0*
  3: 0x0018 [0x1D] PRINT_EVENT_MESSAGE(message_id=6319*)
    → "Come one, come all! There's room for everyone--no pushing, now!"
  4: 0x001B [0x23] WAIT_FOR_DIALOG_INTERACTION
  5: 0x001C [0x1D] PRINT_EVENT_MESSAGE(message_id=6320*)
    → "Witness the amazing antics of the singing, dancing Petrino! Cute, isn't she?"
  6: 0x001F [0x23] WAIT_FOR_DIALOG_INTERACTION
  7: 0x0020 [0x66] LOAD_EXT_SCHEDULER_MAIN: Load scheduler "ten0" with entities [Zyfhil (ID: 16982124/0x0103206C), Zyfhil (ID: 16982124/0x0103206C)], work=0*
  8: 0x002F [0x2B] Petrino (ID: 16982125/0x0103206D) [6321*]:
    → "Lalalalula`t Petrino looovest singing very muuucht Lululalulala`t"
  9: 0x0036 [0x23] WAIT_FOR_DIALOG_INTERACTION
 10: 0x0037 [0x2B] Petrino (ID: 16982125/0x0103206D) [6322*]:
    → "Tatatataaat Petrino looovest dancing even moooret Tetetetutaaat"
 11: 0x003E [0x23] WAIT_FOR_DIALOG_INTERACTION
 12: 0x003F [0x66] LOAD_EXT_SCHEDULER_MAIN: Load scheduler "tlk0" with entities [Zyfhil (ID: 16982124/0x0103206C), Zyfhil (ID: 16982124/0x0103206C)], work=0*
 13: 0x004E [0x1D] PRINT_EVENT_MESSAGE(message_id=6323*)
    → "You've never seen anything like it! Come one, come all! Feast your eyes on the amazing Petrino!"
 14: 0x0051 [0x23] WAIT_FOR_DIALOG_INTERACTION
 15: 0x0052 [0x66] LOAD_EXT_SCHEDULER_MAIN: Load scheduler "ten0" with entities [Zyfhil (ID: 16982124/0x0103206C), Zyfhil (ID: 16982124/0x0103206C)], work=0*
 16: 0x0061 [0x1C] WAIT(30* ticks)
 17: 0x0064 [0x21] END_EVENT
 18: 0x0065 [0x00] END_REQSTACK()
```

### Event 774

#### Metadata

| Field        | Value   |
|--------------|---------|
| Entrypoint   | 0x0066  |
| Data Size    | 7 bytes |
| Instructions | 2       |

```
      00 01 02 03 04 05 06 07  08 09 0A 0B 0C 0D 0E 0F
      -- -- -- -- -- -- -- --  -- -- -- -- -- -- -- --
0060:                   92 01  F8 FF FF 7F 00                 .......   
```

#### Opcodes

```
  0: 0x0066 [0x92] EventEntity->Render.Flags3 ^= 0x01
  1: 0x006C [0x00] END_REQSTACK()
```

### Event 859

#### Metadata

| Field        | Value   |
|--------------|---------|
| Entrypoint   | 0x006D  |
| Data Size    | 7 bytes |
| Instructions | 2       |

```
      00 01 02 03 04 05 06 07  08 09 0A 0B 0C 0D 0E 0F
      -- -- -- -- -- -- -- --  -- -- -- -- -- -- -- --
0060:                                         92 01 F8               ...
0070: FF FF 7F 00                                       ....            
```

#### Opcodes

```
  0: 0x006D [0x92] EventEntity->Render.Flags3 ^= 0x01
  1: 0x0073 [0x00] END_REQSTACK()
```

### Event 872

#### Metadata

| Field        | Value   |
|--------------|---------|
| Entrypoint   | 0x0074  |
| Data Size    | 7 bytes |
| Instructions | 2       |

```
      00 01 02 03 04 05 06 07  08 09 0A 0B 0C 0D 0E 0F
      -- -- -- -- -- -- -- --  -- -- -- -- -- -- -- --
0070:             92 01 F8 FF  FF 7F 00                     .......     
```

#### Opcodes

```
  0: 0x0074 [0x92] EventEntity->Render.Flags3 ^= 0x01
  1: 0x007A [0x00] END_REQSTACK()
```

### Event 858

#### Metadata

| Field        | Value    |
|--------------|----------|
| Entrypoint   | 0x007B   |
| Data Size    | 52 bytes |
| Instructions | 12       |

```
      00 01 02 03 04 05 06 07  08 09 0A 0B 0C 0D 0E 0F
      -- -- -- -- -- -- -- --  -- -- -- -- -- -- -- --
0070:                                   1E F0 FF FF 7F             .....
0080: 1C 00 80 66 01 80 6C 20  03 01 6C 20 03 01 74 6C  ...f..l ..l ..tl
0090: 6B 30 1D 07 80 23 1D 08  80 23 66 01 80 6C 20 03  k0...#...#f..l .
00A0: 01 6C 20 03 01 74 65 6E  30 1D 09 80 23 21 00     .l ..ten0...#!. 
```

#### Opcodes

```
  0: 0x007B [0x1E] EventEntity looks at LocalPlayer and starts talking
  1: 0x0080 [0x1C] WAIT(30* ticks)
  2: 0x0083 [0x66] LOAD_EXT_SCHEDULER_MAIN: Load scheduler "tlk0" with entities [Zyfhil (ID: 16982124/0x0103206C), Zyfhil (ID: 16982124/0x0103206C)], work=0*
  3: 0x0092 [0x1D] PRINT_EVENT_MESSAGE(message_id=7275*)
    → "You seem the understanding type, my friend. Might you not listen to my humble plea?"
  4: 0x0095 [0x23] WAIT_FOR_DIALOG_INTERACTION
  5: 0x0096 [0x1D] PRINT_EVENT_MESSAGE(message_id=7276*)
    → "It seems that there is a thief among my patrons, and his despicable deeds are driving all the poor lords and ladies from my act."
  6: 0x0099 [0x23] WAIT_FOR_DIALOG_INTERACTION
  7: 0x009A [0x66] LOAD_EXT_SCHEDULER_MAIN: Load scheduler "ten0" with entities [Zyfhil (ID: 16982124/0x0103206C), Zyfhil (ID: 16982124/0x0103206C)], work=0*
  8: 0x00A9 [0x1D] PRINT_EVENT_MESSAGE(message_id=7277*)
    → "If the fiend isn't brought to justice, I may just have to pack up and move my show elsewhere..."
  9: 0x00AC [0x23] WAIT_FOR_DIALOG_INTERACTION
 10: 0x00AD [0x21] END_EVENT
 11: 0x00AE [0x00] END_REQSTACK()
```

### Event 874

#### Metadata

| Field        | Value    |
|--------------|----------|
| Entrypoint   | 0x00AF   |
| Data Size    | 34 bytes |
| Instructions | 10       |

```
      00 01 02 03 04 05 06 07  08 09 0A 0B 0C 0D 0E 0F
      -- -- -- -- -- -- -- --  -- -- -- -- -- -- -- --
00A0:                                               42                 B
00B0: 1E F0 FF FF 7F 1C 00 80  66 01 80 6C 20 03 01 6C  ........f..l ..l
00C0: 20 03 01 74 6C 6B 30 1D  0A 80 23 1D 0B 80 23 21   ..tlk0...#...#!
00D0: 00                                                .               
```

#### Opcodes

```
  0: 0x00AF [0x42] SET_CLI_EVENT_CANCEL_DATA()
  1: 0x00B0 [0x1E] EventEntity looks at LocalPlayer and starts talking
  2: 0x00B5 [0x1C] WAIT(30* ticks)
  3: 0x00B8 [0x66] LOAD_EXT_SCHEDULER_MAIN: Load scheduler "tlk0" with entities [Zyfhil (ID: 16982124/0x0103206C), Zyfhil (ID: 16982124/0x0103206C)], work=0*
  4: 0x00C7 [0x1D] PRINT_EVENT_MESSAGE(message_id=7345*)
    → "Did you hear the news, [fine sir/fine lady]? We finally caught the thief who was pilfering pennies from my patrons' pockets!"
  5: 0x00CA [0x23] WAIT_FOR_DIALOG_INTERACTION
  6: 0x00CB [0x1D] PRINT_EVENT_MESSAGE(message_id=7346*)
    → "And all thanks to Petrino! It was she who cornered the fiend after we received a tip from a friendly old man! Now the show can go on!"
  7: 0x00CE [0x23] WAIT_FOR_DIALOG_INTERACTION
  8: 0x00CF [0x21] END_EVENT
  9: 0x00D0 [0x00] END_REQSTACK()
```

### Event 3220

#### Metadata

| Field        | Value   |
|--------------|---------|
| Entrypoint   | 0x00D1  |
| Data Size    | 7 bytes |
| Instructions | 2       |

```
      00 01 02 03 04 05 06 07  08 09 0A 0B 0C 0D 0E 0F
      -- -- -- -- -- -- -- --  -- -- -- -- -- -- -- --
00D0:    92 01 F8 FF FF 7F 00                            .......        
```

#### Opcodes

```
  0: 0x00D1 [0x92] EventEntity->Render.Flags3 ^= 0x01
  1: 0x00D7 [0x00] END_REQSTACK()
```
