# 16982452 - Attendant

## Common Data

| Field            | Value                         |
|------------------|-------------------------------|
| Zone             | Aht Urhgan Whitegate (ID: 50) |
| Block Size       | 6784 bytes                    |
| Total Events     | 9                             |
| References Count | 194                           |

## List of Events

| Event ID                  | Entrypoint   |   Size |   Instructions |
|---------------------------|--------------|--------|----------------|
| [65535](#event-65535)     | 0x0000       |      6 |              2 |
| [70](#event-70)           | 0x0006       |      1 |              1 |
| [65535.1](#event-65535-1) | 0x0007       |     20 |              3 |
| [72](#event-72)           | 0x001B       |      1 |              1 |
| [65535.2](#event-65535-2) | 0x001C       |     20 |              3 |
| [83](#event-83)           | 0x0030       |   3770 |            942 |
| [65535.3](#event-65535-3) | 0x0EEA       |   2138 |            210 |

## DAT References (imed_data)

|   Index | Hex Value   |   Dec Value |
|---------|-------------|-------------|
|       0 | 0x0002      |           2 |
|       1 | 0x1CD61     |      118113 |
|       2 | 0xFFFF008F  |  4294901903 |
|       3 | 0xFFFFE891  |  4294961297 |
|       4 | 0x0889      |        2185 |
|       5 | 0x1C39D     |      115613 |
|       6 | 0xFFFE8407  |  4294870023 |
|       7 | 0xFFFFE890  |  4294961296 |
|       8 | 0x0866      |        2150 |
|       9 | 0x0001      |           1 |
|      10 | 0x0000      |           0 |
|      11 | 0x0003      |           3 |
|      12 | 0x260C      |        9740 |
|      13 | 0x000F      |          15 |
|      14 | 0x0008      |           8 |
|      15 | 0x0007      |           7 |
|      16 | 0x03FC      |        1020 |
|      17 | 0x0034      |          52 |
|      18 | 0x0020      |          32 |
|      19 | 0x104A      |        4170 |
|      20 | 0x1047      |        4167 |
|      21 | 0x1048      |        4168 |
|      22 | 0x1049      |        4169 |
|      23 | 0x0004      |           4 |
|      24 | 0x1057      |        4183 |
|      25 | 0x0005      |           5 |
|      26 | 0x1058      |        4184 |
|      27 | 0x0006      |           6 |
|      28 | 0x1059      |        4185 |
|      29 | 0x105A      |        4186 |
|      30 | 0x1077      |        4215 |
|      31 | 0x0009      |           9 |
|      32 | 0x1078      |        4216 |
|      33 | 0x000A      |          10 |
|      34 | 0x1079      |        4217 |
|      35 | 0x000B      |          11 |
|      36 | 0x107A      |        4218 |
|      37 | 0x000C      |          12 |
|      38 | 0x10A0      |        4256 |
|      39 | 0x000D      |          13 |
|      40 | 0x10A1      |        4257 |
|      41 | 0x000E      |          14 |
|      42 | 0x14AE      |        5294 |
|      43 | 0x14AF      |        5295 |
|      44 | 0x0010      |          16 |
|      45 | 0x14B0      |        5296 |
|      46 | 0x0011      |          17 |
|      47 | 0x14B1      |        5297 |
|      48 | 0x0012      |          18 |
|      49 | 0x1453      |        5203 |
|      50 | 0x0013      |          19 |
|      51 | 0x1454      |        5204 |
|      52 | 0x0014      |          20 |
|      53 | 0x1455      |        5205 |
|      54 | 0x0015      |          21 |
|      55 | 0x1456      |        5206 |
|      56 | 0x0016      |          22 |
|      57 | 0x10C8      |        4296 |
|      58 | 0x0017      |          23 |
|      59 | 0x10C9      |        4297 |
|      60 | 0x0018      |          24 |
|      61 | 0x10CA      |        4298 |
|      62 | 0x0019      |          25 |
|      63 | 0x1477      |        5239 |
|      64 | 0x001A      |          26 |
|      65 | 0x15A9      |        5545 |
|      66 | 0x001B      |          27 |
|      67 | 0x15AC      |        5548 |
|      68 | 0x001C      |          28 |
|      69 | 0x15A7      |        5543 |
|      70 | 0x001D      |          29 |
|      71 | 0x15AF      |        5551 |
|      72 | 0x001E      |          30 |
|      73 | 0x15B1      |        5553 |
|      74 | 0x001F      |          31 |
|      75 | 0x15B8      |        5560 |
|      76 | 0x10CB      |        4299 |
|      77 | 0x0021      |          33 |
|      78 | 0x10CC      |        4300 |
|      79 | 0x0022      |          34 |
|      80 | 0x10CD      |        4301 |
|      81 | 0x0023      |          35 |
|      82 | 0x10CE      |        4302 |
|      83 | 0x0024      |          36 |
|      84 | 0x10CF      |        4303 |
|      85 | 0x0025      |          37 |
|      86 | 0x1146      |        4422 |
|      87 | 0x0026      |          38 |
|      88 | 0x1147      |        4423 |
|      89 | 0x0027      |          39 |
|      90 | 0x1148      |        4424 |
|      91 | 0x0028      |          40 |
|      92 | 0x1149      |        4425 |
|      93 | 0x0029      |          41 |
|      94 | 0x1159      |        4441 |
|      95 | 0x002A      |          42 |
|      96 | 0x115A      |        4442 |
|      97 | 0x002B      |          43 |
|      98 | 0x11A0      |        4512 |
|      99 | 0x002C      |          44 |
|     100 | 0x10BB      |        4283 |
|     101 | 0x002D      |          45 |
|     102 | 0x10BE      |        4286 |
|     103 | 0x002E      |          46 |
|     104 | 0x118D      |        4493 |
|     105 | 0x002F      |          47 |
|     106 | 0x1192      |        4498 |
|     107 | 0x0030      |          48 |
|     108 | 0x11AC      |        4524 |
|     109 | 0x0031      |          49 |
|     110 | 0x11BD      |        4541 |
|     111 | 0x0032      |          50 |
|     112 | 0x11CE      |        4558 |
|     113 | 0x0033      |          51 |
|     114 | 0x1465      |        5221 |
|     115 | 0x0035      |          53 |
|     116 | 0x0036      |          54 |
|     117 | 0x0037      |          55 |
|     118 | 0x0038      |          56 |
|     119 | 0x0039      |          57 |
|     120 | 0x003A      |          58 |
|     121 | 0x003B      |          59 |
|     122 | 0x003C      |          60 |
|     123 | 0x003D      |          61 |
|     124 | 0x003E      |          62 |
|     125 | 0x003F      |          63 |
|     126 | 0x260D      |        9741 |
|     127 | 0x260E      |        9742 |
|     128 | 0x0064      |         100 |
|     129 | 0x260F      |        9743 |
|     130 | 0x2610      |        9744 |
|     131 | 0x2612      |        9746 |
|     132 | 0x2613      |        9747 |
|     133 | 0x2614      |        9748 |
|     134 | 0x2615      |        9749 |
|     135 | 0x0100      |         256 |
|     136 | 0x2616      |        9750 |
|     137 | 0x00B4      |         180 |
|     138 | 0x2617      |        9751 |
|     139 | 0x2DCC6     |      187590 |
|     140 | 0xFFFEB4E8  |  4294882536 |
|     141 | 0x2AE80     |      175744 |
|     142 | 0xFFFE8D72  |  4294872434 |
|     143 | 0x28D98     |      167320 |
|     144 | 0xFFFEC398  |  4294886296 |
|     145 | 0x2A35A     |      172890 |
|     146 | 0xFFFEBA0D  |  4294883853 |
|     147 | 0x2B493     |      177299 |
|     148 | 0xFFFEAE17  |  4294880791 |
|     149 | 0x2B935     |      178485 |
|     150 | 0xFFFE9D8C  |  4294876556 |
|     151 | 0xFFFEBD81  |  4294884737 |
|     152 | 0x2E06E     |      188526 |
|     153 | 0xFFFE8EB2  |  4294872754 |
|     154 | 0x2ABB6     |      175030 |
|     155 | 0x2D1F1     |      184817 |
|     156 | 0xFFFEC839  |  4294887481 |
|     157 | 0x2C882     |      182402 |
|     158 | 0xFFFE960F  |  4294874639 |
|     159 | 0xFFFECC5E  |  4294888542 |
|     160 | 0x2DE05     |      187909 |
|     161 | 0xFFFF0080  |  4294901888 |
|     162 | 0xFFFECB68  |  4294888296 |
|     163 | 0xFFFED109  |  4294889737 |
|     164 | 0x2CEFF     |      184063 |
|     165 | 0xFFFEDDF8  |  4294893048 |
|     166 | 0x2B8DB     |      178395 |
|     167 | 0xFFFE9E58  |  4294876760 |
|     168 | 0xFFFEDA2C  |  4294892076 |
|     169 | 0x2ACF3     |      175347 |
|     170 | 0xFFFEFA52  |  4294900306 |
|     171 | 0xFFFED720  |  4294891296 |
|     172 | 0xFFFECD21  |  4294888737 |
|     173 | 0x2C7B7     |      182199 |
|     174 | 0xFFFEE848  |  4294895688 |
|     175 | 0x2C87F     |      182399 |
|     176 | 0xFFFE9E3C  |  4294876732 |
|     177 | 0x2619      |        9753 |
|     178 | 0x2618      |        9752 |
|     179 | 0x261A      |        9754 |
|     180 | 0x0083      |         131 |
|     181 | 0x0060      |          96 |
|     182 | 0x006B      |         107 |
|     183 | 0x0095      |         149 |
|     184 | 0x0087      |         135 |
|     185 | 0x009D      |         157 |
|     186 | 0x0074      |         116 |
|     187 | 0x00A0      |         160 |
|     188 | 0x007D      |         125 |
|     189 | 0x0065      |         101 |
|     190 | 0x0082      |         130 |
|     191 | 0x0086      |         134 |
|     192 | 0x0077      |         119 |
|     193 | 0x008F      |         143 |

## Events

### Event 65535

#### Metadata

| Field        | Value   |
|--------------|---------|
| Entrypoint   | 0x0000  |
| Data Size    | 6 bytes |
| Instructions | 2       |

```
      00 01 02 03 04 05 06 07  08 09 0A 0B 0C 0D 0E 0F
      -- -- -- -- -- -- -- --  -- -- -- -- -- -- -- --
0000: 03 16 00 00 80 00                                 ......          
```

#### Opcodes

```
  0: 0x0000 [0x03] ExtData[1]->WorkLocal[22] = 2*
  1: 0x0005 [0x00] END_REQSTACK()
```

### Event 70

#### Metadata

| Field        | Value   |
|--------------|---------|
| Entrypoint   | 0x0006  |
| Data Size    | 1 bytes |
| Instructions | 1       |

```
      00 01 02 03 04 05 06 07  08 09 0A 0B 0C 0D 0E 0F
      -- -- -- -- -- -- -- --  -- -- -- -- -- -- -- --
0000:                   00                                    .         
```

#### Opcodes

```
  0: 0x0006 [0x00] END_REQSTACK()
```

### Event 65535.1

#### Metadata

| Field        | Value    |
|--------------|----------|
| Entrypoint   | 0x0007   |
| Data Size    | 20 bytes |
| Instructions | 3        |

```
      00 01 02 03 04 05 06 07  08 09 0A 0B 0C 0D 0E 0F
      -- -- -- -- -- -- -- --  -- -- -- -- -- -- -- --
0000:                      79  00 F8 FF FF 7F F0 FF FF         y........
0010: 7F 37 01 80 02 80 03 80  04 80 00                 .7.........     
```

#### Opcodes

```
  0: 0x0007 [0x79] EventEntity looks at LocalPlayer (Basic look)
  1: 0x0011 [0x37] UPDATE_EVENT_POSITION_AND_DIR: x=118.113*, z=-65.393*, y=-5.999*, direction=192.0°*
  2: 0x001A [0x00] END_REQSTACK()
```

### Event 72

#### Metadata

| Field        | Value   |
|--------------|---------|
| Entrypoint   | 0x001B  |
| Data Size    | 1 bytes |
| Instructions | 1       |

```
      00 01 02 03 04 05 06 07  08 09 0A 0B 0C 0D 0E 0F
      -- -- -- -- -- -- -- --  -- -- -- -- -- -- -- --
0010:                                   00                         .    
```

#### Opcodes

```
  0: 0x001B [0x00] END_REQSTACK()
```

### Event 65535.2

#### Metadata

| Field        | Value    |
|--------------|----------|
| Entrypoint   | 0x001C   |
| Data Size    | 20 bytes |
| Instructions | 3        |

```
      00 01 02 03 04 05 06 07  08 09 0A 0B 0C 0D 0E 0F
      -- -- -- -- -- -- -- --  -- -- -- -- -- -- -- --
0010:                                      79 00 F8 FF              y...
0020: FF 7F F0 FF FF 7F 37 05  80 06 80 07 80 08 80 00  ......7.........
```

#### Opcodes

```
  0: 0x001C [0x79] EventEntity looks at LocalPlayer (Basic look)
  1: 0x0026 [0x37] UPDATE_EVENT_POSITION_AND_DIR: x=115.613*, z=-97.273*, y=-6.000*, direction=189.0°*
  2: 0x002F [0x00] END_REQSTACK()
```

### Event 83

#### Metadata

| Field        | Value      |
|--------------|------------|
| Entrypoint   | 0x0030     |
| Data Size    | 3770 bytes |
| Instructions | 545        |

```
      00 01 02 03 04 05 06 07  08 09 0A 0B 0C 0D 0E 0F
      -- -- -- -- -- -- -- --  -- -- -- -- -- -- -- --
0030: 03 00 00 02 10 03 01 00  03 10 03 02 00 04 10 03  ................
0040: 17 00 05 10 03 18 00 06  10 1E F0 FF FF 7F 06 0C  ................
0050: 00 2E 06 0B 00 02 17 00  09 80 01 6B 00 3C 00 00  ...........k.<..
0060: 0A 80 09 80 3C 0B 00 0B  80 09 80 24 0C 80 0C 00  ....<......$....
0070: 0B 00 25 03 0C 00 00 10  40 0A 80 0D 80 01 10 00  ..%.....@.......
0080: 10 02 00 10 09 80 00 6F  0B 06 03 00 06 0D 00 2E  .......o........
0090: 02 17 00 09 80 01 9F 00  3C 00 00 0A 80 09 80 03  ........<.......
00A0: 04 00 03 00 14 04 00 0E  80 03 05 00 04 00 07 05  ................
00B0: 00 0F 80 06 08 00 06 06  00 06 07 00 03 0B 00 10  ................
00C0: 80 06 02 10 06 03 10 06  04 10 06 05 10 06 06 10  ................
00D0: 06 07 10 06 08 10 06 09  10 02 08 00 11 80 03 10  ................
00E0: 06 02 08 00 12 80 04 FB  00 03 09 00 01 00 03 0A  ................
00F0: 00 08 00 08 0A 00 12 80  01 05 01 03 09 00 00 00  ................
0100: 03 0A 00 08 00 3E 09 00  0A 00 0F 01 01 0A 06 02  .....>..........
0110: 06 00 04 00 04 07 06 02  06 00 05 00 05 07 06 02  ................
0120: 08 00 0A 80 80 2F 01 03  09 00 13 80 01 24 05 02  ...../.......$..
0130: 08 00 09 80 80 3F 01 03  09 00 14 80 01 24 05 02  .....?.......$..
0140: 08 00 00 80 80 4F 01 03  09 00 15 80 01 24 05 02  .....O.......$..
0150: 08 00 0B 80 80 5F 01 03  09 00 16 80 01 24 05 02  ....._.......$..
0160: 08 00 17 80 80 6F 01 03  09 00 18 80 01 24 05 02  .....o.......$..
0170: 08 00 19 80 80 7F 01 03  09 00 1A 80 01 24 05 02  .............$..
0180: 08 00 1B 80 80 8F 01 03  09 00 1C 80 01 24 05 02  .............$..
0190: 08 00 0F 80 80 9F 01 03  09 00 1D 80 01 24 05 02  .............$..
01A0: 08 00 0E 80 80 AF 01 03  09 00 1E 80 01 24 05 02  .............$..
01B0: 08 00 1F 80 80 BF 01 03  09 00 20 80 01 24 05 02  .......... ..$..
01C0: 08 00 21 80 80 CF 01 03  09 00 22 80 01 24 05 02  ..!......."..$..
01D0: 08 00 23 80 80 DF 01 03  09 00 24 80 01 24 05 02  ..#.......$..$..
01E0: 08 00 25 80 80 EF 01 03  09 00 26 80 01 24 05 02  ..%.......&..$..
01F0: 08 00 27 80 80 FF 01 03  09 00 28 80 01 24 05 02  ..'.......(..$..
0200: 08 00 29 80 80 0F 02 03  09 00 2A 80 01 24 05 02  ..).......*..$..
0210: 08 00 0D 80 80 1F 02 03  09 00 2B 80 01 24 05 02  ..........+..$..
0220: 08 00 2C 80 80 2F 02 03  09 00 2D 80 01 24 05 02  ..,../....-..$..
0230: 08 00 2E 80 80 3F 02 03  09 00 2F 80 01 24 05 02  .....?..../..$..
0240: 08 00 30 80 80 4F 02 03  09 00 31 80 01 24 05 02  ..0..O....1..$..
0250: 08 00 32 80 80 5F 02 03  09 00 33 80 01 24 05 02  ..2.._....3..$..
0260: 08 00 34 80 80 6F 02 03  09 00 35 80 01 24 05 02  ..4..o....5..$..
0270: 08 00 36 80 80 7F 02 03  09 00 37 80 01 24 05 02  ..6.......7..$..
0280: 08 00 38 80 80 8F 02 03  09 00 39 80 01 24 05 02  ..8.......9..$..
0290: 08 00 3A 80 80 9F 02 03  09 00 3B 80 01 24 05 02  ..:.......;..$..
02A0: 08 00 3C 80 80 AF 02 03  09 00 3D 80 01 24 05 02  ..<.......=..$..
02B0: 08 00 3E 80 80 BF 02 03  09 00 3F 80 01 24 05 02  ..>.......?..$..
02C0: 08 00 40 80 80 CF 02 03  09 00 41 80 01 24 05 02  ..@.......A..$..
02D0: 08 00 42 80 80 DF 02 03  09 00 43 80 01 24 05 02  ..B.......C..$..
02E0: 08 00 44 80 80 EF 02 03  09 00 45 80 01 24 05 02  ..D.......E..$..
02F0: 08 00 46 80 80 FF 02 03  09 00 47 80 01 24 05 02  ..F.......G..$..
0300: 08 00 48 80 80 0F 03 03  09 00 49 80 01 24 05 02  ..H.......I..$..
0310: 08 00 4A 80 80 1F 03 03  09 00 4B 80 01 24 05 02  ..J.......K..$..
0320: 08 00 12 80 80 2F 03 03  09 00 4C 80 01 24 05 02  ...../....L..$..
0330: 08 00 4D 80 80 3F 03 03  09 00 4E 80 01 24 05 02  ..M..?....N..$..
0340: 08 00 4F 80 80 4F 03 03  09 00 50 80 01 24 05 02  ..O..O....P..$..
0350: 08 00 51 80 80 5F 03 03  09 00 52 80 01 24 05 02  ..Q.._....R..$..
0360: 08 00 53 80 80 6F 03 03  09 00 54 80 01 24 05 02  ..S..o....T..$..
0370: 08 00 55 80 80 7F 03 03  09 00 56 80 01 24 05 02  ..U.......V..$..
0380: 08 00 57 80 80 8F 03 03  09 00 58 80 01 24 05 02  ..W.......X..$..
0390: 08 00 59 80 80 9F 03 03  09 00 5A 80 01 24 05 02  ..Y.......Z..$..
03A0: 08 00 5B 80 80 AF 03 03  09 00 5C 80 01 24 05 02  ..[.......\..$..
03B0: 08 00 5D 80 80 BF 03 03  09 00 5E 80 01 24 05 02  ..].......^..$..
03C0: 08 00 5F 80 80 CF 03 03  09 00 60 80 01 24 05 02  .._.......`..$..
03D0: 08 00 61 80 80 DF 03 03  09 00 62 80 01 24 05 02  ..a.......b..$..
03E0: 08 00 63 80 80 EF 03 03  09 00 64 80 01 24 05 02  ..c.......d..$..
03F0: 08 00 65 80 80 FF 03 03  09 00 66 80 01 24 05 02  ..e.......f..$..
0400: 08 00 67 80 80 0F 04 03  09 00 68 80 01 24 05 02  ..g.......h..$..
0410: 08 00 69 80 80 1F 04 03  09 00 6A 80 01 24 05 02  ..i.......j..$..
0420: 08 00 6B 80 80 2F 04 03  09 00 6C 80 01 24 05 02  ..k../....l..$..
0430: 08 00 6D 80 80 3F 04 03  09 00 6E 80 01 24 05 02  ..m..?....n..$..
0440: 08 00 6F 80 80 4F 04 03  09 00 70 80 01 24 05 02  ..o..O....p..$..
0450: 08 00 71 80 80 5F 04 03  09 00 72 80 01 24 05 02  ..q.._....r..$..
0460: 08 00 11 80 80 6F 04 03  09 00 0A 80 01 24 05 02  .....o.......$..
0470: 08 00 73 80 80 7F 04 03  09 00 0A 80 01 24 05 02  ..s..........$..
0480: 08 00 74 80 80 8F 04 03  09 00 0A 80 01 24 05 02  ..t..........$..
0490: 08 00 75 80 80 9F 04 03  09 00 0A 80 01 24 05 02  ..u..........$..
04A0: 08 00 76 80 80 AF 04 03  09 00 0A 80 01 24 05 02  ..v..........$..
04B0: 08 00 77 80 80 BF 04 03  09 00 0A 80 01 24 05 02  ..w..........$..
04C0: 08 00 78 80 80 CF 04 03  09 00 0A 80 01 24 05 02  ..x..........$..
04D0: 08 00 79 80 80 DF 04 03  09 00 0A 80 01 24 05 02  ..y..........$..
04E0: 08 00 7A 80 80 EF 04 03  09 00 0A 80 01 24 05 02  ..z..........$..
04F0: 08 00 7B 80 80 FF 04 03  09 00 0A 80 01 24 05 02  ..{..........$..
0500: 08 00 7C 80 80 0F 05 03  09 00 0A 80 01 24 05 02  ..|..........$..
0510: 08 00 7D 80 80 1F 05 03  09 00 0A 80 01 24 05 03  ..}..........$..
0520: 09 00 0A 80 02 07 00 0A  80 80 40 05 03 02 10 09  ..........@.....
0530: 00 3D 0B 00 00 80 09 80  03 0E 00 08 00 01 04 06  .=..............
0540: 02 07 00 09 80 80 5C 05  03 03 10 09 00 3D 0B 00  ......\......=..
0550: 0B 80 09 80 03 0F 00 08  00 01 04 06 02 07 00 00  ................
0560: 80 80 78 05 03 04 10 09  00 3D 0B 00 17 80 09 80  ..x......=......
0570: 03 10 00 08 00 01 04 06  02 07 00 0B 80 80 94 05  ................
0580: 03 05 10 09 00 3D 0B 00  19 80 09 80 03 11 00 08  .....=..........
0590: 00 01 04 06 02 07 00 17  80 80 B0 05 03 06 10 09  ................
05A0: 00 3D 0B 00 1B 80 09 80  03 12 00 08 00 01 04 06  .=..............
05B0: 02 07 00 19 80 80 CC 05  03 07 10 09 00 3D 0B 00  .............=..
05C0: 0F 80 09 80 03 13 00 08  00 01 04 06 02 07 00 1B  ................
05D0: 80 80 E8 05 03 08 10 09  00 3D 0B 00 0E 80 09 80  .........=......
05E0: 03 14 00 08 00 01 04 06  02 07 00 0F 80 80 04 06  ................
05F0: 03 09 10 09 00 3D 0B 00  1F 80 09 80 03 15 00 08  .....=..........
0600: 00 01 04 06 0B 07 00 0B  06 00 0B 08 00 01 D9 00  ................
0610: 02 07 00 0A 80 00 35 06  02 03 00 0A 80 00 2A 06  ......5.......*.
0620: 1D 7E 80 23 01 51 00 01  35 06 0C 03 00 03 0D 00  .~.#.Q..5.......
0630: 21 80 01 8F 00 02 03 00  0A 80 00 44 06 3C 0B 00  !..........D.<..
0640: 09 80 09 80 03 09 00 06  00 0C 09 00 02 09 00 05  ................
0650: 00 05 5B 06 3C 0B 00 21  80 09 80 24 7F 80 0D 00  ..[.<..!...$....
0660: 0B 00 25 03 0D 00 00 10  02 00 10 0A 80 00 76 06  ..%...........v.
0670: 01 51 00 01 69 0B 02 00  10 09 80 00 89 06 0C 03  .Q..i...........
0680: 00 03 0D 00 21 80 01 69  0B 02 00 10 21 80 00 9C  ....!..i....!...
0690: 06 0B 03 00 03 0D 00 09  80 01 69 0B 02 00 10 00  ..........i.....
06A0: 80 80 AC 06 03 08 00 0E  00 01 1C 07 02 00 10 0B  ................
06B0: 80 80 BC 06 03 08 00 0F  00 01 1C 07 02 00 10 17  ................
06C0: 80 80 CC 06 03 08 00 10  00 01 1C 07 02 00 10 19  ................
06D0: 80 80 DC 06 03 08 00 11  00 01 1C 07 02 00 10 1B  ................
06E0: 80 80 EC 06 03 08 00 12  00 01 1C 07 02 00 10 0F  ................
06F0: 80 80 FC 06 03 08 00 13  00 01 1C 07 02 00 10 0E  ................
0700: 80 80 0C 07 03 08 00 14  00 01 1C 07 02 00 10 1F  ................
0710: 80 80 1C 07 03 08 00 15  00 01 1C 07 02 08 00 0A  ................
0720: 80 80 2C 07 03 09 00 13  80 01 21 0B 02 08 00 09  ..,.......!.....
0730: 80 80 3C 07 03 09 00 14  80 01 21 0B 02 08 00 00  ..<.......!.....
0740: 80 80 4C 07 03 09 00 15  80 01 21 0B 02 08 00 0B  ..L.......!.....
0750: 80 80 5C 07 03 09 00 16  80 01 21 0B 02 08 00 17  ..\.......!.....
0760: 80 80 6C 07 03 09 00 18  80 01 21 0B 02 08 00 19  ..l.......!.....
0770: 80 80 7C 07 03 09 00 1A  80 01 21 0B 02 08 00 1B  ..|.......!.....
0780: 80 80 8C 07 03 09 00 1C  80 01 21 0B 02 08 00 0F  ..........!.....
0790: 80 80 9C 07 03 09 00 1D  80 01 21 0B 02 08 00 0E  ..........!.....
07A0: 80 80 AC 07 03 09 00 1E  80 01 21 0B 02 08 00 1F  ..........!.....
07B0: 80 80 BC 07 03 09 00 20  80 01 21 0B 02 08 00 21  ....... ..!....!
07C0: 80 80 CC 07 03 09 00 22  80 01 21 0B 02 08 00 23  ......."..!....#
07D0: 80 80 DC 07 03 09 00 24  80 01 21 0B 02 08 00 25  .......$..!....%
07E0: 80 80 EC 07 03 09 00 26  80 01 21 0B 02 08 00 27  .......&..!....'
07F0: 80 80 FC 07 03 09 00 28  80 01 21 0B 02 08 00 29  .......(..!....)
0800: 80 80 0C 08 03 09 00 2A  80 01 21 0B 02 08 00 0D  .......*..!.....
0810: 80 80 1C 08 03 09 00 2B  80 01 21 0B 02 08 00 2C  .......+..!....,
0820: 80 80 2C 08 03 09 00 2D  80 01 21 0B 02 08 00 2E  ..,....-..!.....
0830: 80 80 3C 08 03 09 00 2F  80 01 21 0B 02 08 00 30  ..<..../..!....0
0840: 80 80 4C 08 03 09 00 31  80 01 21 0B 02 08 00 32  ..L....1..!....2
0850: 80 80 5C 08 03 09 00 33  80 01 21 0B 02 08 00 34  ..\....3..!....4
0860: 80 80 6C 08 03 09 00 35  80 01 21 0B 02 08 00 36  ..l....5..!....6
0870: 80 80 7C 08 03 09 00 37  80 01 21 0B 02 08 00 38  ..|....7..!....8
0880: 80 80 8C 08 03 09 00 39  80 01 21 0B 02 08 00 3A  .......9..!....:
0890: 80 80 9C 08 03 09 00 3B  80 01 21 0B 02 08 00 3C  .......;..!....<
08A0: 80 80 AC 08 03 09 00 3D  80 01 21 0B 02 08 00 3E  .......=..!....>
08B0: 80 80 BC 08 03 09 00 3F  80 01 21 0B 02 08 00 40  .......?..!....@
08C0: 80 80 CC 08 03 09 00 41  80 01 21 0B 02 08 00 42  .......A..!....B
08D0: 80 80 DC 08 03 09 00 43  80 01 21 0B 02 08 00 44  .......C..!....D
08E0: 80 80 EC 08 03 09 00 45  80 01 21 0B 02 08 00 46  .......E..!....F
08F0: 80 80 FC 08 03 09 00 47  80 01 21 0B 02 08 00 48  .......G..!....H
0900: 80 80 0C 09 03 09 00 49  80 01 21 0B 02 08 00 4A  .......I..!....J
0910: 80 80 1C 09 03 09 00 4B  80 01 21 0B 02 08 00 12  .......K..!.....
0920: 80 80 2C 09 03 09 00 4C  80 01 21 0B 02 08 00 4D  ..,....L..!....M
0930: 80 80 3C 09 03 09 00 4E  80 01 21 0B 02 08 00 4F  ..<....N..!....O
0940: 80 80 4C 09 03 09 00 50  80 01 21 0B 02 08 00 51  ..L....P..!....Q
0950: 80 80 5C 09 03 09 00 52  80 01 21 0B 02 08 00 53  ..\....R..!....S
0960: 80 80 6C 09 03 09 00 54  80 01 21 0B 02 08 00 55  ..l....T..!....U
0970: 80 80 7C 09 03 09 00 56  80 01 21 0B 02 08 00 57  ..|....V..!....W
0980: 80 80 8C 09 03 09 00 58  80 01 21 0B 02 08 00 59  .......X..!....Y
0990: 80 80 9C 09 03 09 00 5A  80 01 21 0B 02 08 00 5B  .......Z..!....[
09A0: 80 80 AC 09 03 09 00 5C  80 01 21 0B 02 08 00 5D  .......\..!....]
09B0: 80 80 BC 09 03 09 00 5E  80 01 21 0B 02 08 00 5F  .......^..!...._
09C0: 80 80 CC 09 03 09 00 60  80 01 21 0B 02 08 00 61  .......`..!....a
09D0: 80 80 DC 09 03 09 00 62  80 01 21 0B 02 08 00 63  .......b..!....c
09E0: 80 80 EC 09 03 09 00 64  80 01 21 0B 02 08 00 65  .......d..!....e
09F0: 80 80 FC 09 03 09 00 66  80 01 21 0B 02 08 00 67  .......f..!....g
0A00: 80 80 0C 0A 03 09 00 68  80 01 21 0B 02 08 00 69  .......h..!....i
0A10: 80 80 1C 0A 03 09 00 6A  80 01 21 0B 02 08 00 6B  .......j..!....k
0A20: 80 80 2C 0A 03 09 00 6C  80 01 21 0B 02 08 00 6D  ..,....l..!....m
0A30: 80 80 3C 0A 03 09 00 6E  80 01 21 0B 02 08 00 6F  ..<....n..!....o
0A40: 80 80 4C 0A 03 09 00 70  80 01 21 0B 02 08 00 71  ..L....p..!....q
0A50: 80 80 5C 0A 03 09 00 72  80 01 21 0B 02 08 00 11  ..\....r..!.....
0A60: 80 80 6C 0A 03 09 00 0A  80 01 21 0B 02 08 00 73  ..l.......!....s
0A70: 80 80 7C 0A 03 09 00 0A  80 01 21 0B 02 08 00 74  ..|.......!....t
0A80: 80 80 8C 0A 03 09 00 0A  80 01 21 0B 02 08 00 75  ..........!....u
0A90: 80 80 9C 0A 03 09 00 0A  80 01 21 0B 02 08 00 76  ..........!....v
0AA0: 80 80 AC 0A 03 09 00 0A  80 01 21 0B 02 08 00 77  ..........!....w
0AB0: 80 80 BC 0A 03 09 00 0A  80 01 21 0B 02 08 00 78  ..........!....x
0AC0: 80 80 CC 0A 03 09 00 0A  80 01 21 0B 02 08 00 79  ..........!....y
0AD0: 80 80 DC 0A 03 09 00 0A  80 01 21 0B 02 08 00 7A  ..........!....z
0AE0: 80 80 EC 0A 03 09 00 0A  80 01 21 0B 02 08 00 7B  ..........!....{
0AF0: 80 80 FC 0A 03 09 00 0A  80 01 21 0B 02 08 00 7C  ..........!....|
0B00: 80 80 0C 0B 03 09 00 0A  80 01 21 0B 02 08 00 7D  ..........!....}
0B10: 80 80 1C 0B 03 09 00 0A  80 01 21 0B 03 09 00 0A  ..........!.....
0B20: 80 03 02 10 09 00 03 03  10 80 80 1D 81 80 23 24  ..............#$
0B30: 82 80 09 80 0A 80 25 02  00 10 0A 80 00 69 0B 42  ......%......i.B
0B40: 40 2C 80 4A 80 01 10 08  00 43 00 43 01 03 00 00  @,.J.....C.C....
0B50: 02 10 03 01 00 03 10 02  05 10 0A 80 00 66 0B 1D  .............f..
0B60: 83 80 23 01 E8 0E 01 69  0B 01 8F 00 01 E8 0E 02  ..#....i........
0B70: 00 10 00 80 00 C1 0B 1D  84 80 23 02 18 00 0A 80  ..........#.....
0B80: 00 8A 0B 1D 85 80 23 01  51 00 24 86 80 09 80 0A  ......#.Q.$.....
0B90: 80 25 02 00 10 0A 80 00  B0 0B 42 73 87 80 F8 FF  .%........Bs....
0BA0: FF 7F F0 FF FF 7F 1D 88  80 23 1C 89 80 01 BE 0B  .........#......
0BB0: 02 00 10 09 80 00 BE 0B  01 51 00 01 BE 0B 01 E8  .........Q......
0BC0: 0E 02 00 10 0B 80 00 E8  0E 1D 8A 80 23 42 8D 6F  ............#B.o
0BD0: 80 09 80 02 16 00 0A 80  80 74 0C 8B 6F 80 0A 80  .........t..o...
0BE0: 8B 80 8C 80 31 00 00 00  00 00 00 00 00 00 00 00  ....1...........
0BF0: 00 00 00 00 8B 6F 80 09  80 8D 80 8E 80 32 00 00  .....o.......2..
0C00: 00 00 00 00 00 00 00 00  00 00 00 00 00 8B 6F 80  ..............o.
0C10: 00 80 8F 80 90 80 33 00  00 00 00 00 00 00 00 00  ......3.........
0C20: 00 00 00 00 00 00 8B 6F  80 0B 80 91 80 92 80 34  .......o.......4
0C30: 00 00 00 00 00 00 00 00  00 00 00 00 00 00 00 8B  ................
0C40: 6F 80 17 80 93 80 94 80  35 00 00 00 00 00 00 00  o.......5.......
0C50: 00 00 00 00 00 00 00 00  8B 6F 80 19 80 95 80 96  .........o......
0C60: 80 36 00 00 00 00 00 00  00 00 00 00 00 00 00 00  .6..............
0C70: 00 01 57 0E 02 16 00 09  80 80 15 0D 8B 6F 80 0A  ..W..........o..
0C80: 80 8B 80 97 80 31 00 00  00 00 00 00 00 00 00 00  .....1..........
0C90: 00 00 00 00 00 8B 6F 80  09 80 98 80 99 80 32 00  ......o.......2.
0CA0: 00 00 00 00 00 00 00 00  00 00 00 00 00 00 8B 6F  ...............o
0CB0: 80 00 80 8F 80 90 80 33  00 00 00 00 00 00 00 00  .......3........
0CC0: 00 00 00 00 00 00 00 8B  6F 80 0B 80 9A 80 92 80  ........o.......
0CD0: 34 00 00 00 00 00 00 00  00 00 00 00 00 00 00 00  4...............
0CE0: 8B 6F 80 17 80 9B 80 9C  80 35 00 00 00 00 00 00  .o.......5......
0CF0: 00 00 00 00 00 00 00 00  00 8B 6F 80 19 80 9D 80  ..........o.....
0D00: 9E 80 36 00 00 00 00 00  00 00 00 00 00 00 00 00  ..6.............
0D10: 00 00 01 57 0E 02 16 00  00 80 80 B6 0D 8B 6F 80  ...W..........o.
0D20: 0A 80 8B 80 9F 80 31 00  00 00 00 00 00 00 00 00  ......1.........
0D30: 00 00 00 00 00 00 8B 6F  80 09 80 A0 80 A1 80 32  .......o.......2
0D40: 00 00 00 00 00 00 00 00  00 00 00 00 00 00 00 8B  ................
0D50: 6F 80 00 80 8F 80 A2 80  33 00 00 00 00 00 00 00  o.......3.......
0D60: 00 00 00 00 00 00 00 00  8B 6F 80 0B 80 9A 80 A3  .........o......
0D70: 80 34 00 00 00 00 00 00  00 00 00 00 00 00 00 00  .4..............
0D80: 00 8B 6F 80 17 80 A4 80  A5 80 35 00 00 00 00 00  ..o.......5.....
0D90: 00 00 00 00 00 00 00 00  00 00 8B 6F 80 19 80 A6  ...........o....
0DA0: 80 A7 80 36 00 00 00 00  00 00 00 00 00 00 00 00  ...6............
0DB0: 00 00 00 01 57 0E 02 16  00 0B 80 80 57 0E 8B 6F  ....W.......W..o
0DC0: 80 0A 80 8B 80 A8 80 31  00 00 00 00 00 00 00 00  .......1........
0DD0: 00 00 00 00 00 00 00 8B  6F 80 09 80 A9 80 AA 80  ........o.......
0DE0: 32 00 00 00 00 00 00 00  00 00 00 00 00 00 00 00  2...............
0DF0: 8B 6F 80 00 80 8F 80 AB  80 33 00 00 00 00 00 00  .o.......3......
0E00: 00 00 00 00 00 00 00 00  00 8B 6F 80 0B 80 91 80  ..........o.....
0E10: AC 80 34 00 00 00 00 00  00 00 00 00 00 00 00 00  ..4.............
0E20: 00 00 8B 6F 80 17 80 AD  80 AE 80 35 00 00 00 00  ...o.......5....
0E30: 00 00 00 00 00 00 00 00  00 00 00 8B 6F 80 19 80  ............o...
0E40: AF 80 B0 80 36 00 00 00  00 00 00 00 00 00 00 00  ....6...........
0E50: 00 00 00 00 01 57 0E 03  02 10 09 00 1D B1 80 23  .....W.........#
0E60: 8A A8 00 6F 80 0A 80 A8  00 6F 80 09 80 A8 00 6F  ...o.....o.....o
0E70: 80 00 80 A8 00 6F 80 0B  80 A8 00 6F 80 17 80 A8  .....o.....o....
0E80: 00 6F 80 19 80 03 0D 00  02 00 0B 0D 00 2E 24 B2  .o............$.
0E90: 80 0D 00 0A 80 25 02 00  10 0A 80 00 A4 0E 01 51  .....%.........Q
0EA0: 00 01 E5 0E 03 0D 00 00  10 03 09 00 00 10 0C 09  ................
0EB0: 00 40 2C 80 4A 80 01 10  09 00 03 00 17 00 10 24  .@,.J..........$
0EC0: B3 80 09 80 0A 80 25 02  00 10 0A 80 00 D7 0E 42  ......%........B
0ED0: 43 00 43 01 01 E5 0E 02  00 10 09 80 00 E5 0E 01  C.C.............
0EE0: 8D 0E 01 E5 0E 01 E8 0E  21 00                    ........!.      
```

#### Opcodes

```
  0: 0x0030 [0x03] ExtData[1]->WorkLocal[0] = Work_Zone[2]
  1: 0x0035 [0x03] ExtData[1]->WorkLocal[1] = Work_Zone[3]
  2: 0x003A [0x03] ExtData[1]->WorkLocal[2] = Work_Zone[4]
  3: 0x003F [0x03] ExtData[1]->WorkLocal[23] = Work_Zone[5]
  4: 0x0044 [0x03] ExtData[1]->WorkLocal[24] = Work_Zone[6]
  5: 0x0049 [0x1E] EventEntity looks at LocalPlayer and starts talking
  6: 0x004E [0x06] ExtData[1]->WorkLocal[12] = 0
  7: 0x0051 [0x2E] SET_CLI_EVENT_CANCEL_FLAGS()
  8: 0x0052 [0x06] ExtData[1]->WorkLocal[11] = 0
  9: 0x0055 [0x02] IF !(ExtData[1]->WorkLocal[23] == 1*) GOTO 0x006B
 10: 0x005D [0x3C] SET_BIT_FLAG_CONDITIONAL(target_work_offset=ExtData[1]->WorkLocal[0], bit_index_work_offset=0*, condition_work_offset=1*)
 11: 0x0064 [0x3C] SET_BIT_FLAG_CONDITIONAL(target_work_offset=ExtData[1]->WorkLocal[11], bit_index_work_offset=3*, condition_work_offset=1*)
 12: 0x006B [0x24] CREATE_DIALOG(message_id=9740*, default_option=ExtData[1]->WorkLocal[12], option_flags=ExtData[1]->WorkLocal[11])
    → "How may I help you?\u0007\u000BI'm fine.\u0007I need more party items.\u0007Digestive magic.\u0007Attendant location.\u007F1\u0000\u0007"
 13: 0x0072 [0x25] WAIT_DIALOG_SELECT()
 14: 0x0073 [0x03] ExtData[1]->WorkLocal[12] = Work_Zone[0]
 15: 0x0078 [0x40] SET_BIT_WORK_RANGE(start_bit=0*, end_bit=15*, target=Work_Zone[1], source=Work_Zone[0])
 16: 0x0081 [0x02] IF !(Work_Zone[0] == 1*) GOTO 0x0B6F
 17: 0x0089 [0x06] ExtData[1]->WorkLocal[3] = 0
 18: 0x008C [0x06] ExtData[1]->WorkLocal[13] = 0
 19: 0x008F [0x2E] SET_CLI_EVENT_CANCEL_FLAGS()
 20: 0x0090 [0x02] IF !(ExtData[1]->WorkLocal[23] == 1*) GOTO 0x009F
 21: 0x0098 [0x3C] SET_BIT_FLAG_CONDITIONAL(target_work_offset=ExtData[1]->WorkLocal[0], bit_index_work_offset=0*, condition_work_offset=1*)
 22: 0x009F [0x03] ExtData[1]->WorkLocal[4] = ExtData[1]->WorkLocal[3]
 23: 0x00A4 [0x14] ExtData[1]->WorkLocal[4] *= 8*
 24: 0x00A9 [0x03] ExtData[1]->WorkLocal[5] = ExtData[1]->WorkLocal[4]
 25: 0x00AE [0x07] ExtData[1]->WorkLocal[5] += 7*
 26: 0x00B3 [0x06] ExtData[1]->WorkLocal[8] = 0
 27: 0x00B6 [0x06] ExtData[1]->WorkLocal[6] = 0
 28: 0x00B9 [0x06] ExtData[1]->WorkLocal[7] = 0
 29: 0x00BC [0x03] ExtData[1]->WorkLocal[11] = 1020*
 30: 0x00C1 [0x06] Work_Zone[2] = 0
 31: 0x00C4 [0x06] Work_Zone[3] = 0
 32: 0x00C7 [0x06] Work_Zone[4] = 0
 33: 0x00CA [0x06] Work_Zone[5] = 0
 34: 0x00CD [0x06] Work_Zone[6] = 0
 35: 0x00D0 [0x06] Work_Zone[7] = 0
 36: 0x00D3 [0x06] Work_Zone[8] = 0
 37: 0x00D6 [0x06] Work_Zone[9] = 0
 38: 0x00D9 [0x02] IF !(ExtData[1]->WorkLocal[8] >= 52*) GOTO 0x0610
 39: 0x00E1 [0x02] IF !(ExtData[1]->WorkLocal[8] < 32*) GOTO 0x00FB
 40: 0x00E9 [0x03] ExtData[1]->WorkLocal[9] = ExtData[1]->WorkLocal[1]
 41: 0x00EE [0x03] ExtData[1]->WorkLocal[10] = ExtData[1]->WorkLocal[8]
 42: 0x00F3 [0x08] ExtData[1]->WorkLocal[10] -= 32*
 43: 0x00F8 [0x01] GOTO 0x0105
 44: 0x00FB [0x03] ExtData[1]->WorkLocal[9] = ExtData[1]->WorkLocal[0]
 45: 0x0100 [0x03] ExtData[1]->WorkLocal[10] = ExtData[1]->WorkLocal[8]

SUBROUTINE_0105:
 46: 0x0105 [0x3E] IF !(ExtData[1]->WorkLocal[9] bit ExtData[1]->WorkLocal[10]) GOTO 0x010F
 47: 0x010C [0x01] GOTO 0x060A
 48: 0x010F [0x02] IF !(ExtData[1]->WorkLocal[6] < ExtData[1]->WorkLocal[4]) GOTO 0x0607
 49: 0x0117 [0x02] IF !(ExtData[1]->WorkLocal[6] > ExtData[1]->WorkLocal[5]) GOTO 0x0607
 50: 0x011F [0x02] IF !(ExtData[1]->WorkLocal[8] == 0*) GOTO 0x012F
 51: 0x0127 [0x03] ExtData[1]->WorkLocal[9] = 4170*
 52: 0x012C [0x01] GOTO 0x0524
 53: 0x012F [0x02] IF !(ExtData[1]->WorkLocal[8] == 1*) GOTO 0x013F
 54: 0x0137 [0x03] ExtData[1]->WorkLocal[9] = 4167*
 55: 0x013C [0x01] GOTO 0x0524
 56: 0x013F [0x02] IF !(ExtData[1]->WorkLocal[8] == 2*) GOTO 0x014F
 57: 0x0147 [0x03] ExtData[1]->WorkLocal[9] = 4168*
 58: 0x014C [0x01] GOTO 0x0524
 59: 0x014F [0x02] IF !(ExtData[1]->WorkLocal[8] == 3*) GOTO 0x015F
 60: 0x0157 [0x03] ExtData[1]->WorkLocal[9] = 4169*
 61: 0x015C [0x01] GOTO 0x0524
 62: 0x015F [0x02] IF !(ExtData[1]->WorkLocal[8] == 4*) GOTO 0x016F
 63: 0x0167 [0x03] ExtData[1]->WorkLocal[9] = 4183*
 64: 0x016C [0x01] GOTO 0x0524
 65: 0x016F [0x02] IF !(ExtData[1]->WorkLocal[8] == 5*) GOTO 0x017F
 66: 0x0177 [0x03] ExtData[1]->WorkLocal[9] = 4184*
 67: 0x017C [0x01] GOTO 0x0524
 68: 0x017F [0x02] IF !(ExtData[1]->WorkLocal[8] == 6*) GOTO 0x018F
 69: 0x0187 [0x03] ExtData[1]->WorkLocal[9] = 4185*
 70: 0x018C [0x01] GOTO 0x0524
 71: 0x018F [0x02] IF !(ExtData[1]->WorkLocal[8] == 7*) GOTO 0x019F
 72: 0x0197 [0x03] ExtData[1]->WorkLocal[9] = 4186*
 73: 0x019C [0x01] GOTO 0x0524
 74: 0x019F [0x02] IF !(ExtData[1]->WorkLocal[8] == 8*) GOTO 0x01AF
 75: 0x01A7 [0x03] ExtData[1]->WorkLocal[9] = 4215*
 76: 0x01AC [0x01] GOTO 0x0524
 77: 0x01AF [0x02] IF !(ExtData[1]->WorkLocal[8] == 9*) GOTO 0x01BF
 78: 0x01B7 [0x03] ExtData[1]->WorkLocal[9] = 4216*
 79: 0x01BC [0x01] GOTO 0x0524
 80: 0x01BF [0x02] IF !(ExtData[1]->WorkLocal[8] == 10*) GOTO 0x01CF
 81: 0x01C7 [0x03] ExtData[1]->WorkLocal[9] = 4217*
 82: 0x01CC [0x01] GOTO 0x0524
 83: 0x01CF [0x02] IF !(ExtData[1]->WorkLocal[8] == 11*) GOTO 0x01DF
 84: 0x01D7 [0x03] ExtData[1]->WorkLocal[9] = 4218*
 85: 0x01DC [0x01] GOTO 0x0524
 86: 0x01DF [0x02] IF !(ExtData[1]->WorkLocal[8] == 12*) GOTO 0x01EF
 87: 0x01E7 [0x03] ExtData[1]->WorkLocal[9] = 4256*
 88: 0x01EC [0x01] GOTO 0x0524
 89: 0x01EF [0x02] IF !(ExtData[1]->WorkLocal[8] == 13*) GOTO 0x01FF
 90: 0x01F7 [0x03] ExtData[1]->WorkLocal[9] = 4257*
 91: 0x01FC [0x01] GOTO 0x0524
 92: 0x01FF [0x02] IF !(ExtData[1]->WorkLocal[8] == 14*) GOTO 0x020F
 93: 0x0207 [0x03] ExtData[1]->WorkLocal[9] = 5294*
 94: 0x020C [0x01] GOTO 0x0524
 95: 0x020F [0x02] IF !(ExtData[1]->WorkLocal[8] == 15*) GOTO 0x021F
 96: 0x0217 [0x03] ExtData[1]->WorkLocal[9] = 5295*
 97: 0x021C [0x01] GOTO 0x0524
 98: 0x021F [0x02] IF !(ExtData[1]->WorkLocal[8] == 16*) GOTO 0x022F
 99: 0x0227 [0x03] ExtData[1]->WorkLocal[9] = 5296*
100: 0x022C [0x01] GOTO 0x0524
101: 0x022F [0x02] IF !(ExtData[1]->WorkLocal[8] == 17*) GOTO 0x023F
102: 0x0237 [0x03] ExtData[1]->WorkLocal[9] = 5297*
103: 0x023C [0x01] GOTO 0x0524
104: 0x023F [0x02] IF !(ExtData[1]->WorkLocal[8] == 18*) GOTO 0x024F
105: 0x0247 [0x03] ExtData[1]->WorkLocal[9] = 5203*
106: 0x024C [0x01] GOTO 0x0524
107: 0x024F [0x02] IF !(ExtData[1]->WorkLocal[8] == 19*) GOTO 0x025F
108: 0x0257 [0x03] ExtData[1]->WorkLocal[9] = 5204*
109: 0x025C [0x01] GOTO 0x0524
110: 0x025F [0x02] IF !(ExtData[1]->WorkLocal[8] == 20*) GOTO 0x026F
111: 0x0267 [0x03] ExtData[1]->WorkLocal[9] = 5205*
112: 0x026C [0x01] GOTO 0x0524
113: 0x026F [0x02] IF !(ExtData[1]->WorkLocal[8] == 21*) GOTO 0x027F
114: 0x0277 [0x03] ExtData[1]->WorkLocal[9] = 5206*
115: 0x027C [0x01] GOTO 0x0524
116: 0x027F [0x02] IF !(ExtData[1]->WorkLocal[8] == 22*) GOTO 0x028F
117: 0x0287 [0x03] ExtData[1]->WorkLocal[9] = 4296*
118: 0x028C [0x01] GOTO 0x0524
119: 0x028F [0x02] IF !(ExtData[1]->WorkLocal[8] == 23*) GOTO 0x029F
120: 0x0297 [0x03] ExtData[1]->WorkLocal[9] = 4297*
121: 0x029C [0x01] GOTO 0x0524
122: 0x029F [0x02] IF !(ExtData[1]->WorkLocal[8] == 24*) GOTO 0x02AF
123: 0x02A7 [0x03] ExtData[1]->WorkLocal[9] = 4298*
124: 0x02AC [0x01] GOTO 0x0524
125: 0x02AF [0x02] IF !(ExtData[1]->WorkLocal[8] == 25*) GOTO 0x02BF
126: 0x02B7 [0x03] ExtData[1]->WorkLocal[9] = 5239*
127: 0x02BC [0x01] GOTO 0x0524
128: 0x02BF [0x02] IF !(ExtData[1]->WorkLocal[8] == 26*) GOTO 0x02CF
129: 0x02C7 [0x03] ExtData[1]->WorkLocal[9] = 5545*
130: 0x02CC [0x01] GOTO 0x0524
131: 0x02CF [0x02] IF !(ExtData[1]->WorkLocal[8] == 27*) GOTO 0x02DF
132: 0x02D7 [0x03] ExtData[1]->WorkLocal[9] = 5548*
133: 0x02DC [0x01] GOTO 0x0524
134: 0x02DF [0x02] IF !(ExtData[1]->WorkLocal[8] == 28*) GOTO 0x02EF
135: 0x02E7 [0x03] ExtData[1]->WorkLocal[9] = 5543*
136: 0x02EC [0x01] GOTO 0x0524
137: 0x02EF [0x02] IF !(ExtData[1]->WorkLocal[8] == 29*) GOTO 0x02FF
138: 0x02F7 [0x03] ExtData[1]->WorkLocal[9] = 5551*
139: 0x02FC [0x01] GOTO 0x0524
140: 0x02FF [0x02] IF !(ExtData[1]->WorkLocal[8] == 30*) GOTO 0x030F
141: 0x0307 [0x03] ExtData[1]->WorkLocal[9] = 5553*
142: 0x030C [0x01] GOTO 0x0524
143: 0x030F [0x02] IF !(ExtData[1]->WorkLocal[8] == 31*) GOTO 0x031F
144: 0x0317 [0x03] ExtData[1]->WorkLocal[9] = 5560*
145: 0x031C [0x01] GOTO 0x0524
146: 0x031F [0x02] IF !(ExtData[1]->WorkLocal[8] == 32*) GOTO 0x032F
147: 0x0327 [0x03] ExtData[1]->WorkLocal[9] = 4299*
148: 0x032C [0x01] GOTO 0x0524
149: 0x032F [0x02] IF !(ExtData[1]->WorkLocal[8] == 33*) GOTO 0x033F
150: 0x0337 [0x03] ExtData[1]->WorkLocal[9] = 4300*
151: 0x033C [0x01] GOTO 0x0524
152: 0x033F [0x02] IF !(ExtData[1]->WorkLocal[8] == 34*) GOTO 0x034F
153: 0x0347 [0x03] ExtData[1]->WorkLocal[9] = 4301*
154: 0x034C [0x01] GOTO 0x0524
155: 0x034F [0x02] IF !(ExtData[1]->WorkLocal[8] == 35*) GOTO 0x035F
156: 0x0357 [0x03] ExtData[1]->WorkLocal[9] = 4302*
157: 0x035C [0x01] GOTO 0x0524
158: 0x035F [0x02] IF !(ExtData[1]->WorkLocal[8] == 36*) GOTO 0x036F
159: 0x0367 [0x03] ExtData[1]->WorkLocal[9] = 4303*
160: 0x036C [0x01] GOTO 0x0524
161: 0x036F [0x02] IF !(ExtData[1]->WorkLocal[8] == 37*) GOTO 0x037F
162: 0x0377 [0x03] ExtData[1]->WorkLocal[9] = 4422*
163: 0x037C [0x01] GOTO 0x0524
164: 0x037F [0x02] IF !(ExtData[1]->WorkLocal[8] == 38*) GOTO 0x038F
165: 0x0387 [0x03] ExtData[1]->WorkLocal[9] = 4423*
166: 0x038C [0x01] GOTO 0x0524
167: 0x038F [0x02] IF !(ExtData[1]->WorkLocal[8] == 39*) GOTO 0x039F
168: 0x0397 [0x03] ExtData[1]->WorkLocal[9] = 4424*
169: 0x039C [0x01] GOTO 0x0524
170: 0x039F [0x02] IF !(ExtData[1]->WorkLocal[8] == 40*) GOTO 0x03AF
171: 0x03A7 [0x03] ExtData[1]->WorkLocal[9] = 4425*
172: 0x03AC [0x01] GOTO 0x0524
173: 0x03AF [0x02] IF !(ExtData[1]->WorkLocal[8] == 41*) GOTO 0x03BF
174: 0x03B7 [0x03] ExtData[1]->WorkLocal[9] = 4441*
175: 0x03BC [0x01] GOTO 0x0524
176: 0x03BF [0x02] IF !(ExtData[1]->WorkLocal[8] == 42*) GOTO 0x03CF
177: 0x03C7 [0x03] ExtData[1]->WorkLocal[9] = 4442*
178: 0x03CC [0x01] GOTO 0x0524
179: 0x03CF [0x02] IF !(ExtData[1]->WorkLocal[8] == 43*) GOTO 0x03DF
180: 0x03D7 [0x03] ExtData[1]->WorkLocal[9] = 4512*
181: 0x03DC [0x01] GOTO 0x0524
182: 0x03DF [0x02] IF !(ExtData[1]->WorkLocal[8] == 44*) GOTO 0x03EF
183: 0x03E7 [0x03] ExtData[1]->WorkLocal[9] = 4283*
184: 0x03EC [0x01] GOTO 0x0524
185: 0x03EF [0x02] IF !(ExtData[1]->WorkLocal[8] == 45*) GOTO 0x03FF
186: 0x03F7 [0x03] ExtData[1]->WorkLocal[9] = 4286*
187: 0x03FC [0x01] GOTO 0x0524
188: 0x03FF [0x02] IF !(ExtData[1]->WorkLocal[8] == 46*) GOTO 0x040F
189: 0x0407 [0x03] ExtData[1]->WorkLocal[9] = 4493*
190: 0x040C [0x01] GOTO 0x0524
191: 0x040F [0x02] IF !(ExtData[1]->WorkLocal[8] == 47*) GOTO 0x041F
192: 0x0417 [0x03] ExtData[1]->WorkLocal[9] = 4498*
193: 0x041C [0x01] GOTO 0x0524
194: 0x041F [0x02] IF !(ExtData[1]->WorkLocal[8] == 48*) GOTO 0x042F
195: 0x0427 [0x03] ExtData[1]->WorkLocal[9] = 4524*
196: 0x042C [0x01] GOTO 0x0524
197: 0x042F [0x02] IF !(ExtData[1]->WorkLocal[8] == 49*) GOTO 0x043F
198: 0x0437 [0x03] ExtData[1]->WorkLocal[9] = 4541*
199: 0x043C [0x01] GOTO 0x0524
200: 0x043F [0x02] IF !(ExtData[1]->WorkLocal[8] == 50*) GOTO 0x044F
201: 0x0447 [0x03] ExtData[1]->WorkLocal[9] = 4558*
202: 0x044C [0x01] GOTO 0x0524
203: 0x044F [0x02] IF !(ExtData[1]->WorkLocal[8] == 51*) GOTO 0x045F
204: 0x0457 [0x03] ExtData[1]->WorkLocal[9] = 5221*
205: 0x045C [0x01] GOTO 0x0524
206: 0x045F [0x02] IF !(ExtData[1]->WorkLocal[8] == 52*) GOTO 0x046F
207: 0x0467 [0x03] ExtData[1]->WorkLocal[9] = 0*
208: 0x046C [0x01] GOTO 0x0524
209: 0x046F [0x02] IF !(ExtData[1]->WorkLocal[8] == 53*) GOTO 0x047F
210: 0x0477 [0x03] ExtData[1]->WorkLocal[9] = 0*
211: 0x047C [0x01] GOTO 0x0524
212: 0x047F [0x02] IF !(ExtData[1]->WorkLocal[8] == 54*) GOTO 0x048F
213: 0x0487 [0x03] ExtData[1]->WorkLocal[9] = 0*
214: 0x048C [0x01] GOTO 0x0524
215: 0x048F [0x02] IF !(ExtData[1]->WorkLocal[8] == 55*) GOTO 0x049F
216: 0x0497 [0x03] ExtData[1]->WorkLocal[9] = 0*
217: 0x049C [0x01] GOTO 0x0524
218: 0x049F [0x02] IF !(ExtData[1]->WorkLocal[8] == 56*) GOTO 0x04AF
219: 0x04A7 [0x03] ExtData[1]->WorkLocal[9] = 0*
220: 0x04AC [0x01] GOTO 0x0524
221: 0x04AF [0x02] IF !(ExtData[1]->WorkLocal[8] == 57*) GOTO 0x04BF
222: 0x04B7 [0x03] ExtData[1]->WorkLocal[9] = 0*
223: 0x04BC [0x01] GOTO 0x0524
224: 0x04BF [0x02] IF !(ExtData[1]->WorkLocal[8] == 58*) GOTO 0x04CF
225: 0x04C7 [0x03] ExtData[1]->WorkLocal[9] = 0*
226: 0x04CC [0x01] GOTO 0x0524
227: 0x04CF [0x02] IF !(ExtData[1]->WorkLocal[8] == 59*) GOTO 0x04DF
228: 0x04D7 [0x03] ExtData[1]->WorkLocal[9] = 0*
229: 0x04DC [0x01] GOTO 0x0524
230: 0x04DF [0x02] IF !(ExtData[1]->WorkLocal[8] == 60*) GOTO 0x04EF
231: 0x04E7 [0x03] ExtData[1]->WorkLocal[9] = 0*
232: 0x04EC [0x01] GOTO 0x0524
233: 0x04EF [0x02] IF !(ExtData[1]->WorkLocal[8] == 61*) GOTO 0x04FF
234: 0x04F7 [0x03] ExtData[1]->WorkLocal[9] = 0*
235: 0x04FC [0x01] GOTO 0x0524
236: 0x04FF [0x02] IF !(ExtData[1]->WorkLocal[8] == 62*) GOTO 0x050F
237: 0x0507 [0x03] ExtData[1]->WorkLocal[9] = 0*
238: 0x050C [0x01] GOTO 0x0524
239: 0x050F [0x02] IF !(ExtData[1]->WorkLocal[8] == 63*) GOTO 0x051F
240: 0x0517 [0x03] ExtData[1]->WorkLocal[9] = 0*
241: 0x051C [0x01] GOTO 0x0524
242: 0x051F [0x03] ExtData[1]->WorkLocal[9] = 0*

SUBROUTINE_0524:
243: 0x0524 [0x02] IF !(ExtData[1]->WorkLocal[7] == 0*) GOTO 0x0540
244: 0x052C [0x03] Work_Zone[2] = ExtData[1]->WorkLocal[9]
245: 0x0531 [0x3D] CLEAR_BIT_FLAG_CONDITIONAL(target_work_offset=ExtData[1]->WorkLocal[11], bit_index_work_offset=2*, condition_work_offset=1*)
246: 0x0538 [0x03] ExtData[1]->WorkLocal[14] = ExtData[1]->WorkLocal[8]
247: 0x053D [0x01] GOTO 0x0604
248: 0x0540 [0x02] IF !(ExtData[1]->WorkLocal[7] == 1*) GOTO 0x055C
249: 0x0548 [0x03] Work_Zone[3] = ExtData[1]->WorkLocal[9]
250: 0x054D [0x3D] CLEAR_BIT_FLAG_CONDITIONAL(target_work_offset=ExtData[1]->WorkLocal[11], bit_index_work_offset=3*, condition_work_offset=1*)
251: 0x0554 [0x03] ExtData[1]->WorkLocal[15] = ExtData[1]->WorkLocal[8]
252: 0x0559 [0x01] GOTO 0x0604
253: 0x055C [0x02] IF !(ExtData[1]->WorkLocal[7] == 2*) GOTO 0x0578
254: 0x0564 [0x03] Work_Zone[4] = ExtData[1]->WorkLocal[9]
255: 0x0569 [0x3D] CLEAR_BIT_FLAG_CONDITIONAL(target_work_offset=ExtData[1]->WorkLocal[11], bit_index_work_offset=4*, condition_work_offset=1*)
256: 0x0570 [0x03] ExtData[1]->WorkLocal[16] = ExtData[1]->WorkLocal[8]
257: 0x0575 [0x01] GOTO 0x0604
258: 0x0578 [0x02] IF !(ExtData[1]->WorkLocal[7] == 3*) GOTO 0x0594
259: 0x0580 [0x03] Work_Zone[5] = ExtData[1]->WorkLocal[9]
260: 0x0585 [0x3D] CLEAR_BIT_FLAG_CONDITIONAL(target_work_offset=ExtData[1]->WorkLocal[11], bit_index_work_offset=5*, condition_work_offset=1*)
261: 0x058C [0x03] ExtData[1]->WorkLocal[17] = ExtData[1]->WorkLocal[8]
262: 0x0591 [0x01] GOTO 0x0604
263: 0x0594 [0x02] IF !(ExtData[1]->WorkLocal[7] == 4*) GOTO 0x05B0
264: 0x059C [0x03] Work_Zone[6] = ExtData[1]->WorkLocal[9]
265: 0x05A1 [0x3D] CLEAR_BIT_FLAG_CONDITIONAL(target_work_offset=ExtData[1]->WorkLocal[11], bit_index_work_offset=6*, condition_work_offset=1*)
266: 0x05A8 [0x03] ExtData[1]->WorkLocal[18] = ExtData[1]->WorkLocal[8]
267: 0x05AD [0x01] GOTO 0x0604
268: 0x05B0 [0x02] IF !(ExtData[1]->WorkLocal[7] == 5*) GOTO 0x05CC
269: 0x05B8 [0x03] Work_Zone[7] = ExtData[1]->WorkLocal[9]
270: 0x05BD [0x3D] CLEAR_BIT_FLAG_CONDITIONAL(target_work_offset=ExtData[1]->WorkLocal[11], bit_index_work_offset=7*, condition_work_offset=1*)
271: 0x05C4 [0x03] ExtData[1]->WorkLocal[19] = ExtData[1]->WorkLocal[8]
272: 0x05C9 [0x01] GOTO 0x0604
273: 0x05CC [0x02] IF !(ExtData[1]->WorkLocal[7] == 6*) GOTO 0x05E8
274: 0x05D4 [0x03] Work_Zone[8] = ExtData[1]->WorkLocal[9]
275: 0x05D9 [0x3D] CLEAR_BIT_FLAG_CONDITIONAL(target_work_offset=ExtData[1]->WorkLocal[11], bit_index_work_offset=8*, condition_work_offset=1*)
276: 0x05E0 [0x03] ExtData[1]->WorkLocal[20] = ExtData[1]->WorkLocal[8]
277: 0x05E5 [0x01] GOTO 0x0604
278: 0x05E8 [0x02] IF !(ExtData[1]->WorkLocal[7] == 7*) GOTO 0x0604
279: 0x05F0 [0x03] Work_Zone[9] = ExtData[1]->WorkLocal[9]
280: 0x05F5 [0x3D] CLEAR_BIT_FLAG_CONDITIONAL(target_work_offset=ExtData[1]->WorkLocal[11], bit_index_work_offset=9*, condition_work_offset=1*)
281: 0x05FC [0x03] ExtData[1]->WorkLocal[21] = ExtData[1]->WorkLocal[8]
282: 0x0601 [0x01] GOTO 0x0604

SUBROUTINE_0604:
283: 0x0604 [0x0B] ExtData[1]->WorkLocal[7]++
284: 0x0607 [0x0B] ExtData[1]->WorkLocal[6]++

SUBROUTINE_060A:
285: 0x060A [0x0B] ExtData[1]->WorkLocal[8]++
286: 0x060D [0x01] GOTO 0x00D9
287: 0x0610 [0x02] IF !(ExtData[1]->WorkLocal[7] == 0*) GOTO 0x0635
288: 0x0618 [0x02] IF !(ExtData[1]->WorkLocal[3] == 0*) GOTO 0x062A
289: 0x0620 [0x1D] PRINT_EVENT_MESSAGE(message_id=9741*)
    → "I'm terribly sorry, but there are no items available to you at this time.\u007F1\u0000\u0007"
290: 0x0623 [0x23] WAIT_FOR_DIALOG_INTERACTION
291: 0x0624 [0x01] GOTO 0x0051

SUBROUTINE_0635:
292: 0x0635 [0x02] IF !(ExtData[1]->WorkLocal[3] == 0*) GOTO 0x0644
293: 0x063D [0x3C] SET_BIT_FLAG_CONDITIONAL(target_work_offset=ExtData[1]->WorkLocal[11], bit_index_work_offset=1*, condition_work_offset=1*)
294: 0x0644 [0x03] ExtData[1]->WorkLocal[9] = ExtData[1]->WorkLocal[6]
295: 0x0649 [0x0C] ExtData[1]->WorkLocal[9]--
296: 0x064C [0x02] IF !(ExtData[1]->WorkLocal[9] > ExtData[1]->WorkLocal[5]) GOTO 0x065B
297: 0x0654 [0x3C] SET_BIT_FLAG_CONDITIONAL(target_work_offset=ExtData[1]->WorkLocal[11], bit_index_work_offset=10*, condition_work_offset=1*)
298: 0x065B [0x24] CREATE_DIALOG(message_id=9742*, default_option=ExtData[1]->WorkLocal[13], option_flags=ExtData[1]->WorkLocal[11])
    → "Which item do you ask for?\u0007\u000BNone.\u0007Back.\u0007\u007F\u0000\u0001\u0001\u0001\u0001 \u0001\u0005$\u0002\u0000\u0000\u0000.\u0007\u007F\u0000\u0001\u0001\u0001\u0001 \u0001\u0005$\u0002\u0001\u0000\u0000.\u0007\u007F\u0000\u0001\u0001\u0001\u0001 \u0001\u0005$\u0002\u0002\u0000\u0000.\u0007\u007F\u0000\u0001\u0001\u0001\u0001 \u0001\u0005$\u0002\u0003\u0000\u0000.\u0007\u007F\u0000\u0001\u0001\u0001\u0001 \u0001\u0005$\u0002\u0004\u0000\u0000.\u0007\u007F\u0000\u0001\u0001\u0001\u0001 \u0001\u0005$\u0002\u0005\u0000\u0000.\u0007\u007F\u0000\u0001\u0001\u0001\u0001 \u0001\u0005$\u0002\u0006\u0000\u0000.\u0007\u007F\u0000\u0001\u0001\u0001\u0001 \u0001\u0005$\u0002\u0007\u0000\u0000.\u0007Next.\u007F1\u0000\u0007"
299: 0x0662 [0x25] WAIT_DIALOG_SELECT()
300: 0x0663 [0x03] ExtData[1]->WorkLocal[13] = Work_Zone[0]
301: 0x0668 [0x02] IF !(Work_Zone[0] == 0*) GOTO 0x0676
302: 0x0670 [0x01] GOTO 0x0051

SUBROUTINE_071C:
303: 0x071C [0x02] IF !(ExtData[1]->WorkLocal[8] == 0*) GOTO 0x072C
304: 0x0724 [0x03] ExtData[1]->WorkLocal[9] = 4170*
305: 0x0729 [0x01] GOTO 0x0B21
306: 0x072C [0x02] IF !(ExtData[1]->WorkLocal[8] == 1*) GOTO 0x073C
307: 0x0734 [0x03] ExtData[1]->WorkLocal[9] = 4167*
308: 0x0739 [0x01] GOTO 0x0B21
309: 0x073C [0x02] IF !(ExtData[1]->WorkLocal[8] == 2*) GOTO 0x074C
310: 0x0744 [0x03] ExtData[1]->WorkLocal[9] = 4168*
311: 0x0749 [0x01] GOTO 0x0B21
312: 0x074C [0x02] IF !(ExtData[1]->WorkLocal[8] == 3*) GOTO 0x075C
313: 0x0754 [0x03] ExtData[1]->WorkLocal[9] = 4169*
314: 0x0759 [0x01] GOTO 0x0B21
315: 0x075C [0x02] IF !(ExtData[1]->WorkLocal[8] == 4*) GOTO 0x076C
316: 0x0764 [0x03] ExtData[1]->WorkLocal[9] = 4183*
317: 0x0769 [0x01] GOTO 0x0B21
318: 0x076C [0x02] IF !(ExtData[1]->WorkLocal[8] == 5*) GOTO 0x077C
319: 0x0774 [0x03] ExtData[1]->WorkLocal[9] = 4184*
320: 0x0779 [0x01] GOTO 0x0B21
321: 0x077C [0x02] IF !(ExtData[1]->WorkLocal[8] == 6*) GOTO 0x078C
322: 0x0784 [0x03] ExtData[1]->WorkLocal[9] = 4185*
323: 0x0789 [0x01] GOTO 0x0B21
324: 0x078C [0x02] IF !(ExtData[1]->WorkLocal[8] == 7*) GOTO 0x079C
325: 0x0794 [0x03] ExtData[1]->WorkLocal[9] = 4186*
326: 0x0799 [0x01] GOTO 0x0B21
327: 0x079C [0x02] IF !(ExtData[1]->WorkLocal[8] == 8*) GOTO 0x07AC
328: 0x07A4 [0x03] ExtData[1]->WorkLocal[9] = 4215*
329: 0x07A9 [0x01] GOTO 0x0B21
330: 0x07AC [0x02] IF !(ExtData[1]->WorkLocal[8] == 9*) GOTO 0x07BC
331: 0x07B4 [0x03] ExtData[1]->WorkLocal[9] = 4216*
332: 0x07B9 [0x01] GOTO 0x0B21
333: 0x07BC [0x02] IF !(ExtData[1]->WorkLocal[8] == 10*) GOTO 0x07CC
334: 0x07C4 [0x03] ExtData[1]->WorkLocal[9] = 4217*
335: 0x07C9 [0x01] GOTO 0x0B21
336: 0x07CC [0x02] IF !(ExtData[1]->WorkLocal[8] == 11*) GOTO 0x07DC
337: 0x07D4 [0x03] ExtData[1]->WorkLocal[9] = 4218*
338: 0x07D9 [0x01] GOTO 0x0B21
339: 0x07DC [0x02] IF !(ExtData[1]->WorkLocal[8] == 12*) GOTO 0x07EC
340: 0x07E4 [0x03] ExtData[1]->WorkLocal[9] = 4256*
341: 0x07E9 [0x01] GOTO 0x0B21
342: 0x07EC [0x02] IF !(ExtData[1]->WorkLocal[8] == 13*) GOTO 0x07FC
343: 0x07F4 [0x03] ExtData[1]->WorkLocal[9] = 4257*
344: 0x07F9 [0x01] GOTO 0x0B21
345: 0x07FC [0x02] IF !(ExtData[1]->WorkLocal[8] == 14*) GOTO 0x080C
346: 0x0804 [0x03] ExtData[1]->WorkLocal[9] = 5294*
347: 0x0809 [0x01] GOTO 0x0B21
348: 0x080C [0x02] IF !(ExtData[1]->WorkLocal[8] == 15*) GOTO 0x081C
349: 0x0814 [0x03] ExtData[1]->WorkLocal[9] = 5295*
350: 0x0819 [0x01] GOTO 0x0B21
351: 0x081C [0x02] IF !(ExtData[1]->WorkLocal[8] == 16*) GOTO 0x082C
352: 0x0824 [0x03] ExtData[1]->WorkLocal[9] = 5296*
353: 0x0829 [0x01] GOTO 0x0B21
354: 0x082C [0x02] IF !(ExtData[1]->WorkLocal[8] == 17*) GOTO 0x083C
355: 0x0834 [0x03] ExtData[1]->WorkLocal[9] = 5297*
356: 0x0839 [0x01] GOTO 0x0B21
357: 0x083C [0x02] IF !(ExtData[1]->WorkLocal[8] == 18*) GOTO 0x084C
358: 0x0844 [0x03] ExtData[1]->WorkLocal[9] = 5203*
359: 0x0849 [0x01] GOTO 0x0B21
360: 0x084C [0x02] IF !(ExtData[1]->WorkLocal[8] == 19*) GOTO 0x085C
361: 0x0854 [0x03] ExtData[1]->WorkLocal[9] = 5204*
362: 0x0859 [0x01] GOTO 0x0B21
363: 0x085C [0x02] IF !(ExtData[1]->WorkLocal[8] == 20*) GOTO 0x086C
364: 0x0864 [0x03] ExtData[1]->WorkLocal[9] = 5205*
365: 0x0869 [0x01] GOTO 0x0B21
366: 0x086C [0x02] IF !(ExtData[1]->WorkLocal[8] == 21*) GOTO 0x087C
367: 0x0874 [0x03] ExtData[1]->WorkLocal[9] = 5206*
368: 0x0879 [0x01] GOTO 0x0B21
369: 0x087C [0x02] IF !(ExtData[1]->WorkLocal[8] == 22*) GOTO 0x088C
370: 0x0884 [0x03] ExtData[1]->WorkLocal[9] = 4296*
371: 0x0889 [0x01] GOTO 0x0B21
372: 0x088C [0x02] IF !(ExtData[1]->WorkLocal[8] == 23*) GOTO 0x089C
373: 0x0894 [0x03] ExtData[1]->WorkLocal[9] = 4297*
374: 0x0899 [0x01] GOTO 0x0B21
375: 0x089C [0x02] IF !(ExtData[1]->WorkLocal[8] == 24*) GOTO 0x08AC
376: 0x08A4 [0x03] ExtData[1]->WorkLocal[9] = 4298*
377: 0x08A9 [0x01] GOTO 0x0B21
378: 0x08AC [0x02] IF !(ExtData[1]->WorkLocal[8] == 25*) GOTO 0x08BC
379: 0x08B4 [0x03] ExtData[1]->WorkLocal[9] = 5239*
380: 0x08B9 [0x01] GOTO 0x0B21
381: 0x08BC [0x02] IF !(ExtData[1]->WorkLocal[8] == 26*) GOTO 0x08CC
382: 0x08C4 [0x03] ExtData[1]->WorkLocal[9] = 5545*
383: 0x08C9 [0x01] GOTO 0x0B21
384: 0x08CC [0x02] IF !(ExtData[1]->WorkLocal[8] == 27*) GOTO 0x08DC
385: 0x08D4 [0x03] ExtData[1]->WorkLocal[9] = 5548*
386: 0x08D9 [0x01] GOTO 0x0B21
387: 0x08DC [0x02] IF !(ExtData[1]->WorkLocal[8] == 28*) GOTO 0x08EC
388: 0x08E4 [0x03] ExtData[1]->WorkLocal[9] = 5543*
389: 0x08E9 [0x01] GOTO 0x0B21
390: 0x08EC [0x02] IF !(ExtData[1]->WorkLocal[8] == 29*) GOTO 0x08FC
391: 0x08F4 [0x03] ExtData[1]->WorkLocal[9] = 5551*
392: 0x08F9 [0x01] GOTO 0x0B21
393: 0x08FC [0x02] IF !(ExtData[1]->WorkLocal[8] == 30*) GOTO 0x090C
394: 0x0904 [0x03] ExtData[1]->WorkLocal[9] = 5553*
395: 0x0909 [0x01] GOTO 0x0B21
396: 0x090C [0x02] IF !(ExtData[1]->WorkLocal[8] == 31*) GOTO 0x091C
397: 0x0914 [0x03] ExtData[1]->WorkLocal[9] = 5560*
398: 0x0919 [0x01] GOTO 0x0B21
399: 0x091C [0x02] IF !(ExtData[1]->WorkLocal[8] == 32*) GOTO 0x092C
400: 0x0924 [0x03] ExtData[1]->WorkLocal[9] = 4299*
401: 0x0929 [0x01] GOTO 0x0B21
402: 0x092C [0x02] IF !(ExtData[1]->WorkLocal[8] == 33*) GOTO 0x093C
403: 0x0934 [0x03] ExtData[1]->WorkLocal[9] = 4300*
404: 0x0939 [0x01] GOTO 0x0B21
405: 0x093C [0x02] IF !(ExtData[1]->WorkLocal[8] == 34*) GOTO 0x094C
406: 0x0944 [0x03] ExtData[1]->WorkLocal[9] = 4301*
407: 0x0949 [0x01] GOTO 0x0B21
408: 0x094C [0x02] IF !(ExtData[1]->WorkLocal[8] == 35*) GOTO 0x095C
409: 0x0954 [0x03] ExtData[1]->WorkLocal[9] = 4302*
410: 0x0959 [0x01] GOTO 0x0B21
411: 0x095C [0x02] IF !(ExtData[1]->WorkLocal[8] == 36*) GOTO 0x096C
412: 0x0964 [0x03] ExtData[1]->WorkLocal[9] = 4303*
413: 0x0969 [0x01] GOTO 0x0B21
414: 0x096C [0x02] IF !(ExtData[1]->WorkLocal[8] == 37*) GOTO 0x097C
415: 0x0974 [0x03] ExtData[1]->WorkLocal[9] = 4422*
416: 0x0979 [0x01] GOTO 0x0B21
417: 0x097C [0x02] IF !(ExtData[1]->WorkLocal[8] == 38*) GOTO 0x098C
418: 0x0984 [0x03] ExtData[1]->WorkLocal[9] = 4423*
419: 0x0989 [0x01] GOTO 0x0B21
420: 0x098C [0x02] IF !(ExtData[1]->WorkLocal[8] == 39*) GOTO 0x099C
421: 0x0994 [0x03] ExtData[1]->WorkLocal[9] = 4424*
422: 0x0999 [0x01] GOTO 0x0B21
423: 0x099C [0x02] IF !(ExtData[1]->WorkLocal[8] == 40*) GOTO 0x09AC
424: 0x09A4 [0x03] ExtData[1]->WorkLocal[9] = 4425*
425: 0x09A9 [0x01] GOTO 0x0B21
426: 0x09AC [0x02] IF !(ExtData[1]->WorkLocal[8] == 41*) GOTO 0x09BC
427: 0x09B4 [0x03] ExtData[1]->WorkLocal[9] = 4441*
428: 0x09B9 [0x01] GOTO 0x0B21
429: 0x09BC [0x02] IF !(ExtData[1]->WorkLocal[8] == 42*) GOTO 0x09CC
430: 0x09C4 [0x03] ExtData[1]->WorkLocal[9] = 4442*
431: 0x09C9 [0x01] GOTO 0x0B21
432: 0x09CC [0x02] IF !(ExtData[1]->WorkLocal[8] == 43*) GOTO 0x09DC
433: 0x09D4 [0x03] ExtData[1]->WorkLocal[9] = 4512*
434: 0x09D9 [0x01] GOTO 0x0B21
435: 0x09DC [0x02] IF !(ExtData[1]->WorkLocal[8] == 44*) GOTO 0x09EC
436: 0x09E4 [0x03] ExtData[1]->WorkLocal[9] = 4283*
437: 0x09E9 [0x01] GOTO 0x0B21
438: 0x09EC [0x02] IF !(ExtData[1]->WorkLocal[8] == 45*) GOTO 0x09FC
439: 0x09F4 [0x03] ExtData[1]->WorkLocal[9] = 4286*
440: 0x09F9 [0x01] GOTO 0x0B21
441: 0x09FC [0x02] IF !(ExtData[1]->WorkLocal[8] == 46*) GOTO 0x0A0C
442: 0x0A04 [0x03] ExtData[1]->WorkLocal[9] = 4493*
443: 0x0A09 [0x01] GOTO 0x0B21
444: 0x0A0C [0x02] IF !(ExtData[1]->WorkLocal[8] == 47*) GOTO 0x0A1C
445: 0x0A14 [0x03] ExtData[1]->WorkLocal[9] = 4498*
446: 0x0A19 [0x01] GOTO 0x0B21
447: 0x0A1C [0x02] IF !(ExtData[1]->WorkLocal[8] == 48*) GOTO 0x0A2C
448: 0x0A24 [0x03] ExtData[1]->WorkLocal[9] = 4524*
449: 0x0A29 [0x01] GOTO 0x0B21
450: 0x0A2C [0x02] IF !(ExtData[1]->WorkLocal[8] == 49*) GOTO 0x0A3C
451: 0x0A34 [0x03] ExtData[1]->WorkLocal[9] = 4541*
452: 0x0A39 [0x01] GOTO 0x0B21
453: 0x0A3C [0x02] IF !(ExtData[1]->WorkLocal[8] == 50*) GOTO 0x0A4C
454: 0x0A44 [0x03] ExtData[1]->WorkLocal[9] = 4558*
455: 0x0A49 [0x01] GOTO 0x0B21
456: 0x0A4C [0x02] IF !(ExtData[1]->WorkLocal[8] == 51*) GOTO 0x0A5C
457: 0x0A54 [0x03] ExtData[1]->WorkLocal[9] = 5221*
458: 0x0A59 [0x01] GOTO 0x0B21
459: 0x0A5C [0x02] IF !(ExtData[1]->WorkLocal[8] == 52*) GOTO 0x0A6C
460: 0x0A64 [0x03] ExtData[1]->WorkLocal[9] = 0*
461: 0x0A69 [0x01] GOTO 0x0B21
462: 0x0A6C [0x02] IF !(ExtData[1]->WorkLocal[8] == 53*) GOTO 0x0A7C
463: 0x0A74 [0x03] ExtData[1]->WorkLocal[9] = 0*
464: 0x0A79 [0x01] GOTO 0x0B21
465: 0x0A7C [0x02] IF !(ExtData[1]->WorkLocal[8] == 54*) GOTO 0x0A8C
466: 0x0A84 [0x03] ExtData[1]->WorkLocal[9] = 0*
467: 0x0A89 [0x01] GOTO 0x0B21
468: 0x0A8C [0x02] IF !(ExtData[1]->WorkLocal[8] == 55*) GOTO 0x0A9C
469: 0x0A94 [0x03] ExtData[1]->WorkLocal[9] = 0*
470: 0x0A99 [0x01] GOTO 0x0B21
471: 0x0A9C [0x02] IF !(ExtData[1]->WorkLocal[8] == 56*) GOTO 0x0AAC
472: 0x0AA4 [0x03] ExtData[1]->WorkLocal[9] = 0*
473: 0x0AA9 [0x01] GOTO 0x0B21
474: 0x0AAC [0x02] IF !(ExtData[1]->WorkLocal[8] == 57*) GOTO 0x0ABC
475: 0x0AB4 [0x03] ExtData[1]->WorkLocal[9] = 0*
476: 0x0AB9 [0x01] GOTO 0x0B21
477: 0x0ABC [0x02] IF !(ExtData[1]->WorkLocal[8] == 58*) GOTO 0x0ACC
478: 0x0AC4 [0x03] ExtData[1]->WorkLocal[9] = 0*
479: 0x0AC9 [0x01] GOTO 0x0B21
480: 0x0ACC [0x02] IF !(ExtData[1]->WorkLocal[8] == 59*) GOTO 0x0ADC
481: 0x0AD4 [0x03] ExtData[1]->WorkLocal[9] = 0*
482: 0x0AD9 [0x01] GOTO 0x0B21
483: 0x0ADC [0x02] IF !(ExtData[1]->WorkLocal[8] == 60*) GOTO 0x0AEC
484: 0x0AE4 [0x03] ExtData[1]->WorkLocal[9] = 0*
485: 0x0AE9 [0x01] GOTO 0x0B21
486: 0x0AEC [0x02] IF !(ExtData[1]->WorkLocal[8] == 61*) GOTO 0x0AFC
487: 0x0AF4 [0x03] ExtData[1]->WorkLocal[9] = 0*
488: 0x0AF9 [0x01] GOTO 0x0B21
489: 0x0AFC [0x02] IF !(ExtData[1]->WorkLocal[8] == 62*) GOTO 0x0B0C
490: 0x0B04 [0x03] ExtData[1]->WorkLocal[9] = 0*
491: 0x0B09 [0x01] GOTO 0x0B21
492: 0x0B0C [0x02] IF !(ExtData[1]->WorkLocal[8] == 63*) GOTO 0x0B1C
493: 0x0B14 [0x03] ExtData[1]->WorkLocal[9] = 0*
494: 0x0B19 [0x01] GOTO 0x0B21
495: 0x0B1C [0x03] ExtData[1]->WorkLocal[9] = 0*

SUBROUTINE_0B21:
496: 0x0B21 [0x03] Work_Zone[2] = ExtData[1]->WorkLocal[9]
497: 0x0B26 [0x03] Work_Zone[3] = 100*
498: 0x0B2B [0x1D] PRINT_EVENT_MESSAGE(message_id=9743*)
    → "I can offer you \u0001\u0001\u0001 \u0001\u0005$\u0002\u0000\u0000\u0000 for 
\u0001 gil.\u0007Please be aware that all items purchased in the hostel are temporary and will disappear upon leaving the premises.\u007F1\u0000\u0007"
499: 0x0B2E [0x23] WAIT_FOR_DIALOG_INTERACTION
500: 0x0B2F [0x24] CREATE_DIALOG(message_id=9744*, default_option=1*, option_flags=0*)
    → "Purchase \u0001\u0001\u0001 \u0001\u0005$\u0002\u0000\u0000\u0000?\u0007\u000BYes.\u0007No.\u007F1\u0000\u0007"
501: 0x0B36 [0x25] WAIT_DIALOG_SELECT()
502: 0x0B37 [0x02] IF !(Work_Zone[0] == 0*) GOTO 0x0B69
503: 0x0B3F [0x42] SET_CLI_EVENT_CANCEL_DATA()
504: 0x0B40 [0x40] SET_BIT_WORK_RANGE(start_bit=16*, end_bit=31*, target=Work_Zone[1], source=ExtData[1]->WorkLocal[8])
505: 0x0B49 [0x43] SEND_EVENT_UPDATE: Send pending tag to server (packet 0x005B)
506: 0x0B4B [0x43] SEND_EVENT_UPDATE: Check pending flag (skip if not pending)
507: 0x0B4D [0x03] ExtData[1]->WorkLocal[0] = Work_Zone[2]
508: 0x0B52 [0x03] ExtData[1]->WorkLocal[1] = Work_Zone[3]
509: 0x0B57 [0x02] IF !(Work_Zone[5] == 0*) GOTO 0x0B66
510: 0x0B5F [0x1D] PRINT_EVENT_MESSAGE(message_id=9746*)
    → "My apologies, there seems to have been some problem with the transaction.\u007F1\u0000\u0007"
511: 0x0B62 [0x23] WAIT_FOR_DIALOG_INTERACTION
512: 0x0B63 [0x01] GOTO 0x0EE8
513: 0x0B66 [0x01] GOTO 0x0B69

SUBROUTINE_0B69:
514: 0x0B69 [0x01] GOTO 0x008F

SUBROUTINE_0BBE:
515: 0x0BBE [0x01] GOTO 0x0EE8
516: 0x0BC1 [0x02] IF !(Work_Zone[0] == 3*) GOTO 0x0EE8
517: 0x0BC9 [0x1D] PRINT_EVENT_MESSAGE(message_id=9751*)
    → "If you would like me to stand somewhere else, please review the locations displayed on the map, then select a location number from the list.\u007F1\u0000\u0007"
518: 0x0BCC [0x23] WAIT_FOR_DIALOG_INTERACTION
519: 0x0BCD [0x42] SET_CLI_EVENT_CANCEL_DATA()
520: 0x0BCE [0x8D] OPEN_MAP_WITH_PROPERTIES(map_id=50*, properties=1*)
521: 0x0BD3 [0x02] IF !(ExtData[1]->WorkLocal[22] == 0*) GOTO 0x0C74
522: 0x0BDB [0x8B] SET_EVENT_MARK: Add/update map marker on map 50* at (187.590*, -84.760*), index=0*, name=(no name)
523: 0x0BE4 [0x31] UPDATE_ENTITY_POSITION: Set EventEntity goal position to X=ExtData[1]->WorkLocal[0], Z=ExtData[1]->WorkLocal[0], Y=ExtData[1]->WorkLocal[0], Time=ExtData[1]->WorkLocal[0]
524: 0x0BEE [0x00] END_REQSTACK()

SUBROUTINE_0E57:
525: 0x0E57 [0x03] Work_Zone[2] = ExtData[1]->WorkLocal[9]
526: 0x0E5C [0x1D] PRINT_EVENT_MESSAGE(message_id=9753*)
    → "Here are the available locations.\u007F1\u0000\u0007"
527: 0x0E5F [0x23] WAIT_FOR_DIALOG_INTERACTION
528: 0x0E60 [0x8A] CLOSE_MAP()
529: 0x0E61 [0xA8] MAP_MARKER_CONTROL: Reset/unlock markers (no map display), zone=50*, marker=0*
530: 0x0E67 [0xA8] MAP_MARKER_CONTROL: Reset/unlock markers (no map display), zone=50*, marker=1*
531: 0x0E6D [0xA8] MAP_MARKER_CONTROL: Reset/unlock markers (no map display), zone=50*, marker=2*
532: 0x0E73 [0xA8] MAP_MARKER_CONTROL: Reset/unlock markers (no map display), zone=50*, marker=3*
533: 0x0E79 [0xA8] MAP_MARKER_CONTROL: Reset/unlock markers (no map display), zone=50*, marker=4*
534: 0x0E7F [0xA8] MAP_MARKER_CONTROL: Reset/unlock markers (no map display), zone=50*, marker=5*
535: 0x0E85 [0x03] ExtData[1]->WorkLocal[13] = ExtData[1]->WorkLocal[2]
536: 0x0E8A [0x0B] ExtData[1]->WorkLocal[13]++

SUBROUTINE_0E8D:
537: 0x0E8D [0x2E] SET_CLI_EVENT_CANCEL_FLAGS()
538: 0x0E8E [0x24] CREATE_DIALOG(message_id=9752*, default_option=ExtData[1]->WorkLocal[13], option_flags=0*)
    → "Where shall I stand?\u0007\u000BHere is fine.\u00071.\u00072.\u00073.\u00074.\u00075.\u00076.\u007F1\u0000\u0007"
539: 0x0E95 [0x25] WAIT_DIALOG_SELECT()
540: 0x0E96 [0x02] IF !(Work_Zone[0] == 0*) GOTO 0x0EA4
541: 0x0E9E [0x01] GOTO 0x0051

SUBROUTINE_0EE5:
542: 0x0EE5 [0x01] GOTO 0x0EE8

SUBROUTINE_0EE8:
543: 0x0EE8 [0x21] END_EVENT
544: 0x0EE9 [0x00] END_REQSTACK()
```

#### Data or dead code:

```
# Dead code (unreachable instructions):
     0x0627 [0x01] GOTO 0x0635
# Dead code (unreachable instructions):
     0x0673 [0x01] GOTO 0x0B69
# Dead code (unreachable instructions):
     0x0B6C [0x01] GOTO 0x0EE8
     0x0BBB [0x01] GOTO 0x0BBE
# Dead code (unreachable instructions):
     0x0BEF [0x00] END_REQSTACK()
     0x0BF0 [0x00] END_REQSTACK()
     0x0BF1 [0x00] END_REQSTACK()
     0x0BF2 [0x00] END_REQSTACK()
     0x0BF3 [0x00] END_REQSTACK()
     0x0BF4 [0x8B] SET_EVENT_MARK: Add/update map marker on map 50* at (175.744*, -94.862*), index=1*, name=(no name)
     0x0BFD [0x32] ExtData[1]->MainSpeed = ExtData[1]->WorkLocal[0] * 0.1
     0x0C00 [0x00] END_REQSTACK()
     0x0C01 [0x00] END_REQSTACK()
     0x0C02 [0x00] END_REQSTACK()
     0x0C03 [0x00] END_REQSTACK()
     0x0C04 [0x00] END_REQSTACK()
     0x0C05 [0x00] END_REQSTACK()
     0x0C06 [0x00] END_REQSTACK()
     0x0C07 [0x00] END_REQSTACK()
     0x0C08 [0x00] END_REQSTACK()
     0x0C09 [0x00] END_REQSTACK()
     0x0C0A [0x00] END_REQSTACK()
     0x0C0B [0x00] END_REQSTACK()
     0x0C0C [0x00] END_REQSTACK()
     0x0C0D [0x8B] SET_EVENT_MARK: Add/update map marker on map 50* at (167.320*, -81.000*), index=2*, name=(no name)
     0x0C16 [0x33] EventEntity->Render.Flags0 &= ~ 0x200000 // Bit 21 (flag=0x00)
     0x0C18 [0x00] END_REQSTACK()
     0x0C19 [0x00] END_REQSTACK()
     0x0C1A [0x00] END_REQSTACK()
     0x0C1B [0x00] END_REQSTACK()
     0x0C1C [0x00] END_REQSTACK()
     0x0C1D [0x00] END_REQSTACK()
     0x0C1E [0x00] END_REQSTACK()
     0x0C1F [0x00] END_REQSTACK()
     0x0C20 [0x00] END_REQSTACK()
     0x0C21 [0x00] END_REQSTACK()
     0x0C22 [0x00] END_REQSTACK()
     0x0C23 [0x00] END_REQSTACK()
     0x0C24 [0x00] END_REQSTACK()
     0x0C25 [0x00] END_REQSTACK()
     0x0C26 [0x8B] SET_EVENT_MARK: Add/update map marker on map 50* at (172.890*, -83.443*), index=3*, name=(no name)
     0x0C2F [0x34] LOAD_UNLOAD_ZONE(zone_id=ExtData[1]->WorkLocal[0])
     0x0C32 [0x00] END_REQSTACK()
     0x0C33 [0x00] END_REQSTACK()
     0x0C34 [0x00] END_REQSTACK()
     0x0C35 [0x00] END_REQSTACK()
     0x0C36 [0x00] END_REQSTACK()
     0x0C37 [0x00] END_REQSTACK()
     0x0C38 [0x00] END_REQSTACK()
     0x0C39 [0x00] END_REQSTACK()
     0x0C3A [0x00] END_REQSTACK()
     0x0C3B [0x00] END_REQSTACK()
     0x0C3C [0x00] END_REQSTACK()
     0x0C3D [0x00] END_REQSTACK()
     0x0C3E [0x00] END_REQSTACK()
     0x0C3F [0x8B] SET_EVENT_MARK: Add/update map marker on map 50* at (177.299*, -86.505*), index=4*, name=(no name)
     0x0C48 [0x35] LOAD_ZONE_NO_CLOSE(zone_id=ExtData[1]->WorkLocal[0])
     0x0C4B [0x00] END_REQSTACK()
     0x0C4C [0x00] END_REQSTACK()
     0x0C4D [0x00] END_REQSTACK()
     0x0C4E [0x00] END_REQSTACK()
     0x0C4F [0x00] END_REQSTACK()
     0x0C50 [0x00] END_REQSTACK()
     0x0C51 [0x00] END_REQSTACK()
     0x0C52 [0x00] END_REQSTACK()
     0x0C53 [0x00] END_REQSTACK()
     0x0C54 [0x00] END_REQSTACK()
     0x0C55 [0x00] END_REQSTACK()
     0x0C56 [0x00] END_REQSTACK()
     0x0C57 [0x00] END_REQSTACK()
     0x0C58 [0x8B] SET_EVENT_MARK: Add/update map marker on map 50* at (178.485*, -90.740*), index=5*, name=(no name)
     0x0C61 [0x36] SET_ENTITY_EVENT_POSITION(pos_x=ExtData[1]->WorkLocal[0], pos_z=ExtData[1]->WorkLocal[0], pos_y=ExtData[1]->WorkLocal[0])
     0x0C68 [0x00] END_REQSTACK()
     0x0C69 [0x00] END_REQSTACK()
     0x0C6A [0x00] END_REQSTACK()
     0x0C6B [0x00] END_REQSTACK()
     0x0C6C [0x00] END_REQSTACK()
     0x0C6D [0x00] END_REQSTACK()
     0x0C6E [0x00] END_REQSTACK()
     0x0C6F [0x00] END_REQSTACK()
     0x0C70 [0x00] END_REQSTACK()
     0x0C71 [0x01] GOTO 0x0E57
     0x0C90 [0x00] END_REQSTACK()
     0x0C91 [0x00] END_REQSTACK()
     0x0C92 [0x00] END_REQSTACK()
     0x0C93 [0x00] END_REQSTACK()
     0x0C94 [0x00] END_REQSTACK()
     0x0C95 [0x8B] SET_EVENT_MARK: Add/update map marker on map 50* at (188.526*, -94.542*), index=1*, name=(no name)
     0x0C9E [0x32] ExtData[1]->MainSpeed = ExtData[1]->WorkLocal[0] * 0.1
     0x0CA1 [0x00] END_REQSTACK()
     0x0CA2 [0x00] END_REQSTACK()
     0x0CA3 [0x00] END_REQSTACK()
     0x0CA4 [0x00] END_REQSTACK()
     0x0CA5 [0x00] END_REQSTACK()
     0x0CA6 [0x00] END_REQSTACK()
     0x0CA7 [0x00] END_REQSTACK()
     0x0CA8 [0x00] END_REQSTACK()
     0x0CA9 [0x00] END_REQSTACK()
     0x0CAA [0x00] END_REQSTACK()
     0x0CAB [0x00] END_REQSTACK()
     0x0CAC [0x00] END_REQSTACK()
     0x0CAD [0x00] END_REQSTACK()
     0x0CAE [0x8B] SET_EVENT_MARK: Add/update map marker on map 50* at (167.320*, -81.000*), index=2*, name=(no name)
     0x0CB7 [0x33] EventEntity->Render.Flags0 &= ~ 0x200000 // Bit 21 (flag=0x00)
     0x0CB9 [0x00] END_REQSTACK()
     0x0CBA [0x00] END_REQSTACK()
     0x0CBB [0x00] END_REQSTACK()
     0x0CBC [0x00] END_REQSTACK()
     0x0CBD [0x00] END_REQSTACK()
     0x0CBE [0x00] END_REQSTACK()
     0x0CBF [0x00] END_REQSTACK()
     0x0CC0 [0x00] END_REQSTACK()
     0x0CC1 [0x00] END_REQSTACK()
     0x0CC2 [0x00] END_REQSTACK()
     0x0CC3 [0x00] END_REQSTACK()
     0x0CC4 [0x00] END_REQSTACK()
     0x0CC5 [0x00] END_REQSTACK()
     0x0CC6 [0x00] END_REQSTACK()
     0x0CC7 [0x8B] SET_EVENT_MARK: Add/update map marker on map 50* at (175.030*, -83.443*), index=3*, name=(no name)
     0x0CD0 [0x34] LOAD_UNLOAD_ZONE(zone_id=ExtData[1]->WorkLocal[0])
     0x0CD3 [0x00] END_REQSTACK()
     0x0CD4 [0x00] END_REQSTACK()
     0x0CD5 [0x00] END_REQSTACK()
     0x0CD6 [0x00] END_REQSTACK()
     0x0CD7 [0x00] END_REQSTACK()
     0x0CD8 [0x00] END_REQSTACK()
     0x0CD9 [0x00] END_REQSTACK()
     0x0CDA [0x00] END_REQSTACK()
     0x0CDB [0x00] END_REQSTACK()
     0x0CDC [0x00] END_REQSTACK()
     0x0CDD [0x00] END_REQSTACK()
     0x0CDE [0x00] END_REQSTACK()
     0x0CDF [0x00] END_REQSTACK()
     0x0CE0 [0x8B] SET_EVENT_MARK: Add/update map marker on map 50* at (184.817*, -79.815*), index=4*, name=(no name)
     0x0CE9 [0x35] LOAD_ZONE_NO_CLOSE(zone_id=ExtData[1]->WorkLocal[0])
     0x0CEC [0x00] END_REQSTACK()
     0x0CED [0x00] END_REQSTACK()
     0x0CEE [0x00] END_REQSTACK()
     0x0CEF [0x00] END_REQSTACK()
     0x0CF0 [0x00] END_REQSTACK()
     0x0CF1 [0x00] END_REQSTACK()
     0x0CF2 [0x00] END_REQSTACK()
     0x0CF3 [0x00] END_REQSTACK()
     0x0CF4 [0x00] END_REQSTACK()
     0x0CF5 [0x00] END_REQSTACK()
     0x0CF6 [0x00] END_REQSTACK()
     0x0CF7 [0x00] END_REQSTACK()
     0x0CF8 [0x00] END_REQSTACK()
     0x0CF9 [0x8B] SET_EVENT_MARK: Add/update map marker on map 50* at (182.402*, -92.657*), index=5*, name=(no name)
     0x0D02 [0x36] SET_ENTITY_EVENT_POSITION(pos_x=ExtData[1]->WorkLocal[0], pos_z=ExtData[1]->WorkLocal[0], pos_y=ExtData[1]->WorkLocal[0])
     0x0D09 [0x00] END_REQSTACK()
     0x0D0A [0x00] END_REQSTACK()
     0x0D0B [0x00] END_REQSTACK()
     0x0D0C [0x00] END_REQSTACK()
     0x0D0D [0x00] END_REQSTACK()
     0x0D0E [0x00] END_REQSTACK()
     0x0D0F [0x00] END_REQSTACK()
     0x0D10 [0x00] END_REQSTACK()
     0x0D11 [0x00] END_REQSTACK()
     0x0D12 [0x01] GOTO 0x0E57
     0x0D31 [0x00] END_REQSTACK()
     0x0D32 [0x00] END_REQSTACK()
     0x0D33 [0x00] END_REQSTACK()
     0x0D34 [0x00] END_REQSTACK()
     0x0D35 [0x00] END_REQSTACK()
     0x0D36 [0x8B] SET_EVENT_MARK: Add/update map marker on map 50* at (187.909*, -65.408*), index=1*, name=(no name)
     0x0D3F [0x32] ExtData[1]->MainSpeed = ExtData[1]->WorkLocal[0] * 0.1
     0x0D42 [0x00] END_REQSTACK()
     0x0D43 [0x00] END_REQSTACK()
     0x0D44 [0x00] END_REQSTACK()
     0x0D45 [0x00] END_REQSTACK()
     0x0D46 [0x00] END_REQSTACK()
     0x0D47 [0x00] END_REQSTACK()
     0x0D48 [0x00] END_REQSTACK()
     0x0D49 [0x00] END_REQSTACK()
     0x0D4A [0x00] END_REQSTACK()
     0x0D4B [0x00] END_REQSTACK()
     0x0D4C [0x00] END_REQSTACK()
     0x0D4D [0x00] END_REQSTACK()
     0x0D4E [0x00] END_REQSTACK()
     0x0D4F [0x8B] SET_EVENT_MARK: Add/update map marker on map 50* at (167.320*, -79.000*), index=2*, name=(no name)
     0x0D58 [0x33] EventEntity->Render.Flags0 &= ~ 0x200000 // Bit 21 (flag=0x00)
     0x0D5A [0x00] END_REQSTACK()
     0x0D5B [0x00] END_REQSTACK()
     0x0D5C [0x00] END_REQSTACK()
     0x0D5D [0x00] END_REQSTACK()
     0x0D5E [0x00] END_REQSTACK()
     0x0D5F [0x00] END_REQSTACK()
     0x0D60 [0x00] END_REQSTACK()
     0x0D61 [0x00] END_REQSTACK()
     0x0D62 [0x00] END_REQSTACK()
     0x0D63 [0x00] END_REQSTACK()
     0x0D64 [0x00] END_REQSTACK()
     0x0D65 [0x00] END_REQSTACK()
     0x0D66 [0x00] END_REQSTACK()
     0x0D67 [0x00] END_REQSTACK()
     0x0D68 [0x8B] SET_EVENT_MARK: Add/update map marker on map 50* at (175.030*, -77.559*), index=3*, name=(no name)
     0x0D71 [0x34] LOAD_UNLOAD_ZONE(zone_id=ExtData[1]->WorkLocal[0])
     0x0D74 [0x00] END_REQSTACK()
     0x0D75 [0x00] END_REQSTACK()
     0x0D76 [0x00] END_REQSTACK()
     0x0D77 [0x00] END_REQSTACK()
     0x0D78 [0x00] END_REQSTACK()
     0x0D79 [0x00] END_REQSTACK()
     0x0D7A [0x00] END_REQSTACK()
     0x0D7B [0x00] END_REQSTACK()
     0x0D7C [0x00] END_REQSTACK()
     0x0D7D [0x00] END_REQSTACK()
     0x0D7E [0x00] END_REQSTACK()
     0x0D7F [0x00] END_REQSTACK()
     0x0D80 [0x00] END_REQSTACK()
     0x0D81 [0x8B] SET_EVENT_MARK: Add/update map marker on map 50* at (184.063*, -74.248*), index=4*, name=(no name)
     0x0D8A [0x35] LOAD_ZONE_NO_CLOSE(zone_id=ExtData[1]->WorkLocal[0])
     0x0D8D [0x00] END_REQSTACK()
     0x0D8E [0x00] END_REQSTACK()
     0x0D8F [0x00] END_REQSTACK()
     0x0D90 [0x00] END_REQSTACK()
     0x0D91 [0x00] END_REQSTACK()
     0x0D92 [0x00] END_REQSTACK()
     0x0D93 [0x00] END_REQSTACK()
     0x0D94 [0x00] END_REQSTACK()
     0x0D95 [0x00] END_REQSTACK()
     0x0D96 [0x00] END_REQSTACK()
     0x0D97 [0x00] END_REQSTACK()
     0x0D98 [0x00] END_REQSTACK()
     0x0D99 [0x00] END_REQSTACK()
     0x0D9A [0x8B] SET_EVENT_MARK: Add/update map marker on map 50* at (178.395*, -90.536*), index=5*, name=(no name)
     0x0DA3 [0x36] SET_ENTITY_EVENT_POSITION(pos_x=ExtData[1]->WorkLocal[0], pos_z=ExtData[1]->WorkLocal[0], pos_y=ExtData[1]->WorkLocal[0])
     0x0DAA [0x00] END_REQSTACK()
     0x0DAB [0x00] END_REQSTACK()
     0x0DAC [0x00] END_REQSTACK()
     0x0DAD [0x00] END_REQSTACK()
     0x0DAE [0x00] END_REQSTACK()
     0x0DAF [0x00] END_REQSTACK()
     0x0DB0 [0x00] END_REQSTACK()
     0x0DB1 [0x00] END_REQSTACK()
     0x0DB2 [0x00] END_REQSTACK()
     0x0DB3 [0x01] GOTO 0x0E57
     0x0DD2 [0x00] END_REQSTACK()
     0x0DD3 [0x00] END_REQSTACK()
     0x0DD4 [0x00] END_REQSTACK()
     0x0DD5 [0x00] END_REQSTACK()
     0x0DD6 [0x00] END_REQSTACK()
     0x0DD7 [0x8B] SET_EVENT_MARK: Add/update map marker on map 50* at (175.347*, -66.990*), index=1*, name=(no name)
     0x0DE0 [0x32] ExtData[1]->MainSpeed = ExtData[1]->WorkLocal[0] * 0.1
     0x0DE3 [0x00] END_REQSTACK()
     0x0DE4 [0x00] END_REQSTACK()
     0x0DE5 [0x00] END_REQSTACK()
     0x0DE6 [0x00] END_REQSTACK()
     0x0DE7 [0x00] END_REQSTACK()
     0x0DE8 [0x00] END_REQSTACK()
     0x0DE9 [0x00] END_REQSTACK()
     0x0DEA [0x00] END_REQSTACK()
     0x0DEB [0x00] END_REQSTACK()
     0x0DEC [0x00] END_REQSTACK()
     0x0DED [0x00] END_REQSTACK()
     0x0DEE [0x00] END_REQSTACK()
     0x0DEF [0x00] END_REQSTACK()
     0x0DF0 [0x8B] SET_EVENT_MARK: Add/update map marker on map 50* at (167.320*, -76.000*), index=2*, name=(no name)
     0x0DF9 [0x33] EventEntity->Render.Flags0 &= ~ 0x200000 // Bit 21 (flag=0x00)
     0x0DFB [0x00] END_REQSTACK()
     0x0DFC [0x00] END_REQSTACK()
     0x0DFD [0x00] END_REQSTACK()
     0x0DFE [0x00] END_REQSTACK()
     0x0DFF [0x00] END_REQSTACK()
     0x0E00 [0x00] END_REQSTACK()
     0x0E01 [0x00] END_REQSTACK()
     0x0E02 [0x00] END_REQSTACK()
     0x0E03 [0x00] END_REQSTACK()
     0x0E04 [0x00] END_REQSTACK()
     0x0E05 [0x00] END_REQSTACK()
     0x0E06 [0x00] END_REQSTACK()
     0x0E07 [0x00] END_REQSTACK()
     0x0E08 [0x00] END_REQSTACK()
     0x0E09 [0x8B] SET_EVENT_MARK: Add/update map marker on map 50* at (172.890*, -78.559*), index=3*, name=(no name)
     0x0E12 [0x34] LOAD_UNLOAD_ZONE(zone_id=ExtData[1]->WorkLocal[0])
     0x0E15 [0x00] END_REQSTACK()
     0x0E16 [0x00] END_REQSTACK()
     0x0E17 [0x00] END_REQSTACK()
     0x0E18 [0x00] END_REQSTACK()
     0x0E19 [0x00] END_REQSTACK()
     0x0E1A [0x00] END_REQSTACK()
     0x0E1B [0x00] END_REQSTACK()
     0x0E1C [0x00] END_REQSTACK()
     0x0E1D [0x00] END_REQSTACK()
     0x0E1E [0x00] END_REQSTACK()
     0x0E1F [0x00] END_REQSTACK()
     0x0E20 [0x00] END_REQSTACK()
     0x0E21 [0x00] END_REQSTACK()
     0x0E22 [0x8B] SET_EVENT_MARK: Add/update map marker on map 50* at (182.199*, -71.608*), index=4*, name=(no name)
     0x0E2B [0x35] LOAD_ZONE_NO_CLOSE(zone_id=ExtData[1]->WorkLocal[0])
     0x0E2E [0x00] END_REQSTACK()
     0x0E2F [0x00] END_REQSTACK()
     0x0E30 [0x00] END_REQSTACK()
     0x0E31 [0x00] END_REQSTACK()
     0x0E32 [0x00] END_REQSTACK()
     0x0E33 [0x00] END_REQSTACK()
     0x0E34 [0x00] END_REQSTACK()
     0x0E35 [0x00] END_REQSTACK()
     0x0E36 [0x00] END_REQSTACK()
     0x0E37 [0x00] END_REQSTACK()
     0x0E38 [0x00] END_REQSTACK()
     0x0E39 [0x00] END_REQSTACK()
     0x0E3A [0x00] END_REQSTACK()
     0x0E3B [0x8B] SET_EVENT_MARK: Add/update map marker on map 50* at (182.399*, -90.564*), index=5*, name=(no name)
     0x0E44 [0x36] SET_ENTITY_EVENT_POSITION(pos_x=ExtData[1]->WorkLocal[0], pos_z=ExtData[1]->WorkLocal[0], pos_y=ExtData[1]->WorkLocal[0])
     0x0E4B [0x00] END_REQSTACK()
     0x0E4C [0x00] END_REQSTACK()
     0x0E4D [0x00] END_REQSTACK()
     0x0E4E [0x00] END_REQSTACK()
     0x0E4F [0x00] END_REQSTACK()
     0x0E50 [0x00] END_REQSTACK()
     0x0E51 [0x00] END_REQSTACK()
     0x0E52 [0x00] END_REQSTACK()
     0x0E53 [0x00] END_REQSTACK()
     0x0E54 [0x01] GOTO 0x0E57
# Dead code (unreachable instructions):
     0x0EA1 [0x01] GOTO 0x0EE5
     0x0EE2 [0x01] GOTO 0x0EE5
```

### Event 65535.3

#### Metadata

| Field        | Value      |
|--------------|------------|
| Entrypoint   | 0x0EEA     |
| Data Size    | 2138 bytes |
| Instructions | 210        |

```
      00 01 02 03 04 05 06 07  08 09 0A 0B 0C 0D 0E 0F
      -- -- -- -- -- -- -- --  -- -- -- -- -- -- -- --
0EE0:                                03 19 00 16 00 14            ......
0EF0: 19 00 17 80 03 1A 00 19  00 07 1A 00 0B 80 41 19  ..............A.
0F00: 00 1A 00 28 10 1B 00 02  16 00 0A 80 80 16 11 02  ...(............
0F10: 1B 00 0A 80 80 2E 0F B6  0B 09 80 09 80 0A 80 57  ...............W
0F20: 80 0A 80 B4 80 B5 80 0A  80 0A 80 01 13 11 02 1B  ................
0F30: 00 09 80 80 4D 0F B6 0B  00 80 0A 80 0A 80 4A 80  ....M.........J.
0F40: 0A 80 4A 80 4A 80 0A 80  0A 80 01 13 11 02 1B 00  ..J.J...........
0F50: 00 80 80 6C 0F B6 0B 0B  80 09 80 0A 80 B5 80 0A  ...l............
0F60: 80 B4 80 B5 80 0A 80 0A  80 01 13 11 02 1B 00 0B  ................
0F70: 80 80 8B 0F B6 0B 17 80  0A 80 0A 80 32 80 0A 80  ............2...
0F80: B4 80 B5 80 0A 80 0A 80  01 13 11 02 1B 00 17 80  ................
0F90: 80 AA 0F B6 0B 19 80 0A  80 0A 80 21 80 0A 80 B4  ...........!....
0FA0: 80 B5 80 0A 80 0A 80 01  13 11 02 1B 00 19 80 80  ................
0FB0: C9 0F B6 0B 1B 80 00 80  0A 80 B6 80 0A 80 B6 80  ................
0FC0: B6 80 0A 80 0A 80 01 13  11 02 1B 00 1B 80 80 E8  ................
0FD0: 0F B6 0B 0F 80 0A 80 0A  80 4A 80 0A 80 4A 80 0A  .........J...J..
0FE0: 80 0A 80 0A 80 01 13 11  02 1B 00 0F 80 80 07 10  ................
0FF0: B6 0B 0E 80 23 80 0A 80  4A 80 0A 80 4A 80 4A 80  ....#...J...J.J.
1000: 0A 80 0A 80 01 13 11 02  1B 00 0E 80 80 26 10 B6  .............&..
1010: 0B 09 80 1B 80 0A 80 61  80 0A 80 B7 80 B7 80 0A  .......a........
1020: 80 0A 80 01 13 11 02 1B  00 1F 80 80 45 10 B6 0B  ............E...
1030: 00 80 00 80 0A 80 6D 80  0A 80 B7 80 B7 80 0A 80  ......m.........
1040: 0A 80 01 13 11 02 1B 00  21 80 80 64 10 B6 0B 00  ........!..d....
1050: 80 00 80 0A 80 B8 80 0A  80 B8 80 B8 80 0A 80 0A  ................
1060: 80 01 13 11 02 1B 00 23  80 80 83 10 B6 0B 0F 80  .......#........
1070: 0A 80 0A 80 B8 80 0A 80  B8 80 B8 80 0A 80 0A 80  ................
1080: 01 13 11 02 1B 00 25 80  80 A2 10 B6 0B 00 80 0A  ......%.........
1090: 80 0A 80 B9 80 B9 80 B9  80 B9 80 0A 80 0A 80 01  ................
10A0: 13 11 02 1B 00 27 80 80  C1 10 B6 0B 0F 80 0A 80  .....'..........
10B0: 0A 80 B9 80 B9 80 B9 80  B9 80 0A 80 0A 80 01 13  ................
10C0: 11 02 1B 00 29 80 80 E0  10 B6 0B 00 80 00 80 BA  ....)...........
10D0: 80 BA 80 BA 80 BA 80 BA  80 0A 80 0A 80 01 13 11  ................
10E0: 02 1B 00 0D 80 80 FF 10  B6 0B 09 80 25 80 0A 80  ............%...
10F0: 0A 80 0A 80 12 80 0A 80  0A 80 0A 80 01 13 11 B6  ................
1100: 0B 09 80 09 80 0A 80 57  80 0A 80 B4 80 B5 80 0A  .......W........
1110: 80 0A 80 01 43 17 02 16  00 09 80 80 25 13 02 1B  ....C.......%...
1120: 00 0A 80 80 3D 11 B6 0B  09 80 00 80 0A 80 59 80  ....=.........Y.
1130: 0A 80 B4 80 B5 80 0A 80  0A 80 01 22 13 02 1B 00  ..........."....
1140: 09 80 80 5C 11 B6 0B 00  80 17 80 0A 80 4A 80 0A  ...\.........J..
1150: 80 4A 80 4A 80 0A 80 0A  80 01 22 13 02 1B 00 00  .J.J......".....
1160: 80 80 7B 11 B6 0B 0B 80  0B 80 0A 80 B5 80 0A 80  ..{.............
1170: B4 80 B5 80 0A 80 0A 80  01 22 13 02 1B 00 0B 80  ........."......
1180: 80 9A 11 B6 0B 17 80 19  80 0A 80 32 80 0A 80 B4  ...........2....
1190: 80 B5 80 0A 80 0A 80 01  22 13 02 1B 00 17 80 80  ........".......
11A0: B9 11 B6 0B 19 80 0A 80  0A 80 67 80 0A 80 67 80  ..........g...g.
11B0: 67 80 0A 80 0A 80 01 22  13 02 1B 00 19 80 80 D8  g......"........
11C0: 11 B6 0B 1B 80 17 80 0A  80 77 80 0A 80 77 80 77  .........w...w.w
11D0: 80 0A 80 0A 80 01 22 13  02 1B 00 1B 80 80 F7 11  ......".........
11E0: B6 0B 0F 80 1F 80 0A 80  4A 80 0A 80 4A 80 0A 80  ........J...J...
11F0: 0A 80 0A 80 01 22 13 02  1B 00 0F 80 80 16 12 B6  ....."..........
1200: 0B 0E 80 23 80 0A 80 0D  80 0A 80 0D 80 0D 80 0A  ...#............
1210: 80 0A 80 01 22 13 02 1B  00 0E 80 80 35 12 B6 0B  ....".......5...
1220: 0B 80 0A 80 0A 80 63 80  0A 80 B7 80 B7 80 0A 80  ......c.........
1230: 0A 80 01 22 13 02 1B 00  1F 80 80 54 12 B6 0B 17  ...".......T....
1240: 80 23 80 0A 80 6B 80 0A  80 21 80 21 80 0A 80 0A  .#...k...!.!....
1250: 80 01 22 13 02 1B 00 21  80 80 73 12 B6 0B 00 80  .."....!..s.....
1260: 17 80 0A 80 BB 80 0A 80  BB 80 BB 80 0A 80 0A 80  ................
1270: 01 22 13 02 1B 00 23 80  80 92 12 B6 0B 0F 80 1F  ."....#.........
1280: 80 0A 80 BB 80 0A 80 BB  80 BB 80 0A 80 0A 80 01  ................
1290: 22 13 02 1B 00 25 80 80  B1 12 B6 0B 00 80 17 80  "....%..........
12A0: 0A 80 B9 80 B9 80 B9 80  B9 80 0A 80 0A 80 01 22  ..............."
12B0: 13 02 1B 00 27 80 80 D0  12 B6 0B 0F 80 1F 80 0A  ....'...........
12C0: 80 B9 80 B9 80 B9 80 B9  80 0A 80 0A 80 01 22 13  ..............".
12D0: 02 1B 00 29 80 80 EF 12  B6 0B 00 80 17 80 BA 80  ...)............
12E0: BA 80 BA 80 BA 80 BA 80  0A 80 0A 80 01 22 13 02  ............."..
12F0: 1B 00 0D 80 80 0E 13 B6  0B 09 80 0E 80 0A 80 0A  ................
1300: 80 0A 80 12 80 0A 80 0A  80 0A 80 01 22 13 B6 0B  ............"...
1310: 09 80 00 80 0A 80 59 80  0A 80 B4 80 B5 80 0A 80  ......Y.........
1320: 0A 80 01 43 17 02 16 00  00 80 80 34 15 02 1B 00  ...C.......4....
1330: 0A 80 80 4C 13 B6 0B 09  80 19 80 0A 80 3C 80 0A  ...L.........<..
1340: 80 B4 80 B5 80 0A 80 0A  80 01 31 15 02 1B 00 09  ..........1.....
1350: 80 80 6B 13 B6 0B 00 80  0F 80 0A 80 4A 80 0A 80  ..k.........J...
1360: 4A 80 4A 80 0A 80 0A 80  01 31 15 02 1B 00 00 80  J.J......1......
1370: 80 8A 13 B6 0B 0B 80 09  80 BC 80 B5 80 0A 80 B4  ................
1380: 80 B5 80 0A 80 0A 80 01  31 15 02 1B 00 0B 80 80  ........1.......
1390: A9 13 B6 0B 17 80 21 80  0A 80 BD 80 0A 80 B4 80  ......!.........
13A0: B5 80 0A 80 0A 80 01 31  15 02 1B 00 17 80 80 C8  .......1........
13B0: 13 B6 0B 19 80 0A 80 0A  80 69 80 0A 80 69 80 69  .........i...i.i
13C0: 80 0A 80 0A 80 01 31 15  02 1B 00 19 80 80 E7 13  ......1.........
13D0: B6 0B 1B 80 1F 80 0A 80  BE 80 0A 80 BE 80 BE 80  ................
13E0: 0A 80 0A 80 01 31 15 02  1B 00 1B 80 80 06 14 B6  .....1..........
13F0: 0B 0F 80 21 80 0A 80 4A  80 0A 80 4A 80 0A 80 0A  ...!...J...J....
1400: 80 0A 80 01 31 15 02 1B  00 0F 80 80 25 14 B6 0B  ....1.......%...
1410: 0E 80 23 80 0A 80 76 80  0A 80 0D 80 76 80 0A 80  ..#...v.....v...
1420: 0A 80 01 31 15 02 1B 00  0E 80 80 44 14 B6 0B 19  ...1.......D....
1430: 80 21 80 0A 80 BF 80 0A  80 BF 80 BF 80 0A 80 0A  .!..............
1440: 80 01 31 15 02 1B 00 1F  80 80 63 14 B6 0B 1B 80  ..1.......c.....
1450: 1B 80 0A 80 6D 80 0A 80  B7 80 B7 80 0A 80 0A 80  ....m...........
1460: 01 31 15 02 1B 00 21 80  80 82 14 B6 0B 00 80 0F  .1....!.........
1470: 80 0A 80 B8 80 0A 80 B8  80 B8 80 0A 80 0A 80 01  ................
1480: 31 15 02 1B 00 23 80 80  A1 14 B6 0B 0F 80 21 80  1....#........!.
1490: 0A 80 B8 80 0A 80 B8 80  B8 80 0A 80 0A 80 01 31  ...............1
14A0: 15 02 1B 00 25 80 80 C0  14 B6 0B 00 80 0F 80 0A  ....%...........
14B0: 80 B9 80 B9 80 B9 80 B9  80 0A 80 0A 80 01 31 15  ..............1.
14C0: 02 1B 00 27 80 80 DF 14  B6 0B 0F 80 21 80 0A 80  ...'........!...
14D0: B9 80 B9 80 B9 80 B9 80  0A 80 0A 80 01 31 15 02  .............1..
14E0: 1B 00 29 80 80 FE 14 B6  0B 0F 80 0A 80 BA 80 BA  ..).............
14F0: 80 BA 80 BA 80 BA 80 0A  80 0A 80 01 31 15 02 1B  ............1...
1500: 00 0D 80 80 1D 15 B6 0B  0B 80 0D 80 0A 80 0A 80  ................
1510: 0A 80 12 80 0A 80 0A 80  0A 80 01 31 15 B6 0B 09  ...........1....
1520: 80 19 80 0A 80 3C 80 0A  80 B4 80 B5 80 0A 80 0A  .....<..........
1530: 80 01 43 17 02 16 00 0B  80 80 43 17 02 1B 00 0A  ..C.......C.....
1540: 80 80 5B 15 B6 0B 09 80  0F 80 0A 80 3A 80 0A 80  ..[.........:...
1550: B4 80 B5 80 0A 80 0A 80  01 40 17 02 1B 00 09 80  .........@......
1560: 80 7A 15 B6 0B 00 80 29  80 0A 80 4A 80 0A 80 4A  .z.....)...J...J
1570: 80 4A 80 0A 80 0A 80 01  40 17 02 1B 00 00 80 80  .J......@.......
1580: 99 15 B6 0B 0B 80 0B 80  C0 80 B5 80 0A 80 B4 80  ................
1590: B5 80 0A 80 0A 80 01 40  17 02 1B 00 0B 80 80 B8  .......@........
15A0: 15 B6 0B 17 80 29 80 0A  80 BD 80 0A 80 B4 80 B5  .....)..........
15B0: 80 0A 80 0A 80 01 40 17  02 1B 00 17 80 80 D7 15  ......@.........
15C0: B6 0B 19 80 0A 80 3C 80  3C 80 0A 80 B6 80 B6 80  ......<.<.......
15D0: 0A 80 0A 80 01 40 17 02  1B 00 19 80 80 F6 15 B6  .....@..........
15E0: 0B 1B 80 29 80 0A 80 B4  80 0A 80 B4 80 B4 80 0A  ...)............
15F0: 80 0A 80 01 40 17 02 1B  00 1B 80 80 15 16 B6 0B  ....@...........
1600: 0F 80 27 80 0A 80 4A 80  0A 80 4A 80 0A 80 0A 80  ..'...J...J.....
1610: 0A 80 01 40 17 02 1B 00  0F 80 80 34 16 B6 0B 0E  ...@.......4....
1620: 80 23 80 0A 80 51 80 0A  80 0D 80 0D 80 0A 80 0A  .#...Q..........
1630: 80 01 40 17 02 1B 00 0E  80 80 53 16 B6 0B 0E 80  ..@.......S.....
1640: 1F 80 0A 80 C1 80 0A 80  C1 80 C1 80 0A 80 0A 80  ................
1650: 01 40 17 02 1B 00 1F 80  80 72 16 B6 0B 0F 80 0E  .@.......r......
1660: 80 0A 80 6B 80 0A 80 21  80 21 80 0A 80 0A 80 01  ...k...!.!......
1670: 40 17 02 1B 00 21 80 80  91 16 B6 0B 00 80 29 80  @....!........).
1680: 0A 80 BB 80 0A 80 BB 80  BB 80 0A 80 0A 80 01 40  ...............@
1690: 17 02 1B 00 23 80 80 B0  16 B6 0B 0F 80 27 80 0A  ....#........'..
16A0: 80 BB 80 0A 80 BB 80 BB  80 0A 80 0A 80 01 40 17  ..............@.
16B0: 02 1B 00 25 80 80 CF 16  B6 0B 00 80 29 80 0A 80  ...%........)...
16C0: B9 80 B9 80 B9 80 B9 80  0A 80 0A 80 01 40 17 02  .............@..
16D0: 1B 00 27 80 80 EE 16 B6  0B 0F 80 27 80 0A 80 B9  ..'........'....
16E0: 80 B9 80 B9 80 B9 80 0A  80 0A 80 01 40 17 02 1B  ............@...
16F0: 00 29 80 80 0D 17 B6 0B  0F 80 1F 80 BA 80 BA 80  .)..............
1700: BA 80 BA 80 BA 80 0A 80  0A 80 01 40 17 02 1B 00  ...........@....
1710: 0D 80 80 2C 17 B6 0B 0E  80 23 80 0A 80 0A 80 0A  ...,.....#......
1720: 80 12 80 0A 80 0A 80 0A  80 01 40 17 B6 0B 09 80  ..........@.....
1730: 09 80 0A 80 57 80 0A 80  B4 80 B5 80 0A 80 0A 80  ....W...........
1740: 01 43 17 00                                       .C..            
```

#### Opcodes

```
  0: 0x0EEA [0x03] ExtData[1]->WorkLocal[25] = ExtData[1]->WorkLocal[22]
  1: 0x0EEF [0x14] ExtData[1]->WorkLocal[25] *= 4*
  2: 0x0EF4 [0x03] ExtData[1]->WorkLocal[26] = ExtData[1]->WorkLocal[25]
  3: 0x0EF9 [0x07] ExtData[1]->WorkLocal[26] += 3*
  4: 0x0EFE [0x41] ExtData[1]->WorkLocal[27] = Work_Zone[40] (bits ExtData[1]->WorkLocal[25]-ExtData[1]->WorkLocal[26])
  5: 0x0F07 [0x02] IF !(ExtData[1]->WorkLocal[22] == 0*) GOTO 0x1116
  6: 0x0F0F [0x02] IF !(ExtData[1]->WorkLocal[27] == 0*) GOTO 0x0F2E
  7: 0x0F17 [0xB6] ENTITY_APPEARANCE_HANDLER(case=Full entity look, race=1*, hair=1*, head=0*, body=38*, hands=0*, legs=131*, feet=96*, main=0*, sub=0*)
  8: 0x0F2B [0x01] GOTO 0x1113
  9: 0x0F2E [0x02] IF !(ExtData[1]->WorkLocal[27] == 1*) GOTO 0x0F4D
 10: 0x0F36 [0xB6] ENTITY_APPEARANCE_HANDLER(case=Full entity look, race=2*, hair=0*, head=0*, body=31*, hands=0*, legs=31*, feet=31*, main=0*, sub=0*)
 11: 0x0F4A [0x01] GOTO 0x1113
 12: 0x0F4D [0x02] IF !(ExtData[1]->WorkLocal[27] == 2*) GOTO 0x0F6C
 13: 0x0F55 [0xB6] ENTITY_APPEARANCE_HANDLER(case=Full entity look, race=3*, hair=1*, head=0*, body=96*, hands=0*, legs=131*, feet=96*, main=0*, sub=0*)
 14: 0x0F69 [0x01] GOTO 0x1113
 15: 0x0F6C [0x02] IF !(ExtData[1]->WorkLocal[27] == 3*) GOTO 0x0F8B
 16: 0x0F74 [0xB6] ENTITY_APPEARANCE_HANDLER(case=Full entity look, race=4*, hair=0*, head=0*, body=19*, hands=0*, legs=131*, feet=96*, main=0*, sub=0*)
 17: 0x0F88 [0x01] GOTO 0x1113
 18: 0x0F8B [0x02] IF !(ExtData[1]->WorkLocal[27] == 4*) GOTO 0x0FAA
 19: 0x0F93 [0xB6] ENTITY_APPEARANCE_HANDLER(case=Full entity look, race=5*, hair=0*, head=0*, body=10*, hands=0*, legs=131*, feet=96*, main=0*, sub=0*)
 20: 0x0FA7 [0x01] GOTO 0x1113
 21: 0x0FAA [0x02] IF !(ExtData[1]->WorkLocal[27] == 5*) GOTO 0x0FC9
 22: 0x0FB2 [0xB6] ENTITY_APPEARANCE_HANDLER(case=Full entity look, race=6*, hair=2*, head=0*, body=107*, hands=0*, legs=107*, feet=107*, main=0*, sub=0*)
 23: 0x0FC6 [0x01] GOTO 0x1113
 24: 0x0FC9 [0x02] IF !(ExtData[1]->WorkLocal[27] == 6*) GOTO 0x0FE8
 25: 0x0FD1 [0xB6] ENTITY_APPEARANCE_HANDLER(case=Full entity look, race=7*, hair=0*, head=0*, body=31*, hands=0*, legs=31*, feet=0*, main=0*, sub=0*)
 26: 0x0FE5 [0x01] GOTO 0x1113
 27: 0x0FE8 [0x02] IF !(ExtData[1]->WorkLocal[27] == 7*) GOTO 0x1007
 28: 0x0FF0 [0xB6] ENTITY_APPEARANCE_HANDLER(case=Full entity look, race=8*, hair=11*, head=0*, body=31*, hands=0*, legs=31*, feet=31*, main=0*, sub=0*)
 29: 0x1004 [0x01] GOTO 0x1113
 30: 0x1007 [0x02] IF !(ExtData[1]->WorkLocal[27] == 8*) GOTO 0x1026
 31: 0x100F [0xB6] ENTITY_APPEARANCE_HANDLER(case=Full entity look, race=1*, hair=6*, head=0*, body=43*, hands=0*, legs=149*, feet=149*, main=0*, sub=0*)
 32: 0x1023 [0x01] GOTO 0x1113
 33: 0x1026 [0x02] IF !(ExtData[1]->WorkLocal[27] == 9*) GOTO 0x1045
 34: 0x102E [0xB6] ENTITY_APPEARANCE_HANDLER(case=Full entity look, race=2*, hair=2*, head=0*, body=49*, hands=0*, legs=149*, feet=149*, main=0*, sub=0*)
 35: 0x1042 [0x01] GOTO 0x1113
 36: 0x1045 [0x02] IF !(ExtData[1]->WorkLocal[27] == 10*) GOTO 0x1064
 37: 0x104D [0xB6] ENTITY_APPEARANCE_HANDLER(case=Full entity look, race=2*, hair=2*, head=0*, body=135*, hands=0*, legs=135*, feet=135*, main=0*, sub=0*)
 38: 0x1061 [0x01] GOTO 0x1113
 39: 0x1064 [0x02] IF !(ExtData[1]->WorkLocal[27] == 11*) GOTO 0x1083
 40: 0x106C [0xB6] ENTITY_APPEARANCE_HANDLER(case=Full entity look, race=7*, hair=0*, head=0*, body=135*, hands=0*, legs=135*, feet=135*, main=0*, sub=0*)
 41: 0x1080 [0x01] GOTO 0x1113
 42: 0x1083 [0x02] IF !(ExtData[1]->WorkLocal[27] == 12*) GOTO 0x10A2
 43: 0x108B [0xB6] ENTITY_APPEARANCE_HANDLER(case=Full entity look, race=2*, hair=0*, head=0*, body=157*, hands=157*, legs=157*, feet=157*, main=0*, sub=0*)
 44: 0x109F [0x01] GOTO 0x1113
 45: 0x10A2 [0x02] IF !(ExtData[1]->WorkLocal[27] == 13*) GOTO 0x10C1
 46: 0x10AA [0xB6] ENTITY_APPEARANCE_HANDLER(case=Full entity look, race=7*, hair=0*, head=0*, body=157*, hands=157*, legs=157*, feet=157*, main=0*, sub=0*)
 47: 0x10BE [0x01] GOTO 0x1113
 48: 0x10C1 [0x02] IF !(ExtData[1]->WorkLocal[27] == 14*) GOTO 0x10E0
 49: 0x10C9 [0xB6] ENTITY_APPEARANCE_HANDLER(case=Full entity look, race=2*, hair=2*, head=116*, body=116*, hands=116*, legs=116*, feet=116*, main=0*, sub=0*)
 50: 0x10DD [0x01] GOTO 0x1113
 51: 0x10E0 [0x02] IF !(ExtData[1]->WorkLocal[27] == 15*) GOTO 0x10FF
 52: 0x10E8 [0xB6] ENTITY_APPEARANCE_HANDLER(case=Full entity look, race=1*, hair=12*, head=0*, body=0*, hands=0*, legs=32*, feet=0*, main=0*, sub=0*)
 53: 0x10FC [0x01] GOTO 0x1113
 54: 0x10FF [0xB6] ENTITY_APPEARANCE_HANDLER(case=Full entity look, race=1*, hair=1*, head=0*, body=38*, hands=0*, legs=131*, feet=96*, main=0*, sub=0*)

SUBROUTINE_1113:
 55: 0x1113 [0x01] GOTO 0x1743
 56: 0x1116 [0x02] IF !(ExtData[1]->WorkLocal[22] == 1*) GOTO 0x1325
 57: 0x111E [0x02] IF !(ExtData[1]->WorkLocal[27] == 0*) GOTO 0x113D
 58: 0x1126 [0xB6] ENTITY_APPEARANCE_HANDLER(case=Full entity look, race=1*, hair=2*, head=0*, body=39*, hands=0*, legs=131*, feet=96*, main=0*, sub=0*)
 59: 0x113A [0x01] GOTO 0x1322
 60: 0x113D [0x02] IF !(ExtData[1]->WorkLocal[27] == 1*) GOTO 0x115C
 61: 0x1145 [0xB6] ENTITY_APPEARANCE_HANDLER(case=Full entity look, race=2*, hair=4*, head=0*, body=31*, hands=0*, legs=31*, feet=31*, main=0*, sub=0*)
 62: 0x1159 [0x01] GOTO 0x1322
 63: 0x115C [0x02] IF !(ExtData[1]->WorkLocal[27] == 2*) GOTO 0x117B
 64: 0x1164 [0xB6] ENTITY_APPEARANCE_HANDLER(case=Full entity look, race=3*, hair=3*, head=0*, body=96*, hands=0*, legs=131*, feet=96*, main=0*, sub=0*)
 65: 0x1178 [0x01] GOTO 0x1322
 66: 0x117B [0x02] IF !(ExtData[1]->WorkLocal[27] == 3*) GOTO 0x119A
 67: 0x1183 [0xB6] ENTITY_APPEARANCE_HANDLER(case=Full entity look, race=4*, hair=5*, head=0*, body=19*, hands=0*, legs=131*, feet=96*, main=0*, sub=0*)
 68: 0x1197 [0x01] GOTO 0x1322
 69: 0x119A [0x02] IF !(ExtData[1]->WorkLocal[27] == 4*) GOTO 0x11B9
 70: 0x11A2 [0xB6] ENTITY_APPEARANCE_HANDLER(case=Full entity look, race=5*, hair=0*, head=0*, body=46*, hands=0*, legs=46*, feet=46*, main=0*, sub=0*)
 71: 0x11B6 [0x01] GOTO 0x1322
 72: 0x11B9 [0x02] IF !(ExtData[1]->WorkLocal[27] == 5*) GOTO 0x11D8
 73: 0x11C1 [0xB6] ENTITY_APPEARANCE_HANDLER(case=Full entity look, race=6*, hair=4*, head=0*, body=57*, hands=0*, legs=57*, feet=57*, main=0*, sub=0*)
 74: 0x11D5 [0x01] GOTO 0x1322
 75: 0x11D8 [0x02] IF !(ExtData[1]->WorkLocal[27] == 6*) GOTO 0x11F7
 76: 0x11E0 [0xB6] ENTITY_APPEARANCE_HANDLER(case=Full entity look, race=7*, hair=9*, head=0*, body=31*, hands=0*, legs=31*, feet=0*, main=0*, sub=0*)
 77: 0x11F4 [0x01] GOTO 0x1322
 78: 0x11F7 [0x02] IF !(ExtData[1]->WorkLocal[27] == 7*) GOTO 0x1216
 79: 0x11FF [0xB6] ENTITY_APPEARANCE_HANDLER(case=Full entity look, race=8*, hair=11*, head=0*, body=15*, hands=0*, legs=15*, feet=15*, main=0*, sub=0*)
 80: 0x1213 [0x01] GOTO 0x1322
 81: 0x1216 [0x02] IF !(ExtData[1]->WorkLocal[27] == 8*) GOTO 0x1235
 82: 0x121E [0xB6] ENTITY_APPEARANCE_HANDLER(case=Full entity look, race=3*, hair=0*, head=0*, body=44*, hands=0*, legs=149*, feet=149*, main=0*, sub=0*)
 83: 0x1232 [0x01] GOTO 0x1322
 84: 0x1235 [0x02] IF !(ExtData[1]->WorkLocal[27] == 9*) GOTO 0x1254
 85: 0x123D [0xB6] ENTITY_APPEARANCE_HANDLER(case=Full entity look, race=4*, hair=11*, head=0*, body=48*, hands=0*, legs=10*, feet=10*, main=0*, sub=0*)
 86: 0x1251 [0x01] GOTO 0x1322
 87: 0x1254 [0x02] IF !(ExtData[1]->WorkLocal[27] == 10*) GOTO 0x1273
 88: 0x125C [0xB6] ENTITY_APPEARANCE_HANDLER(case=Full entity look, race=2*, hair=4*, head=0*, body=160*, hands=0*, legs=160*, feet=160*, main=0*, sub=0*)
 89: 0x1270 [0x01] GOTO 0x1322
 90: 0x1273 [0x02] IF !(ExtData[1]->WorkLocal[27] == 11*) GOTO 0x1292
 91: 0x127B [0xB6] ENTITY_APPEARANCE_HANDLER(case=Full entity look, race=7*, hair=9*, head=0*, body=160*, hands=0*, legs=160*, feet=160*, main=0*, sub=0*)
 92: 0x128F [0x01] GOTO 0x1322
 93: 0x1292 [0x02] IF !(ExtData[1]->WorkLocal[27] == 12*) GOTO 0x12B1
 94: 0x129A [0xB6] ENTITY_APPEARANCE_HANDLER(case=Full entity look, race=2*, hair=4*, head=0*, body=157*, hands=157*, legs=157*, feet=157*, main=0*, sub=0*)
 95: 0x12AE [0x01] GOTO 0x1322
 96: 0x12B1 [0x02] IF !(ExtData[1]->WorkLocal[27] == 13*) GOTO 0x12D0
 97: 0x12B9 [0xB6] ENTITY_APPEARANCE_HANDLER(case=Full entity look, race=7*, hair=9*, head=0*, body=157*, hands=157*, legs=157*, feet=157*, main=0*, sub=0*)
 98: 0x12CD [0x01] GOTO 0x1322
 99: 0x12D0 [0x02] IF !(ExtData[1]->WorkLocal[27] == 14*) GOTO 0x12EF
100: 0x12D8 [0xB6] ENTITY_APPEARANCE_HANDLER(case=Full entity look, race=2*, hair=4*, head=116*, body=116*, hands=116*, legs=116*, feet=116*, main=0*, sub=0*)
101: 0x12EC [0x01] GOTO 0x1322
102: 0x12EF [0x02] IF !(ExtData[1]->WorkLocal[27] == 15*) GOTO 0x130E
103: 0x12F7 [0xB6] ENTITY_APPEARANCE_HANDLER(case=Full entity look, race=1*, hair=8*, head=0*, body=0*, hands=0*, legs=32*, feet=0*, main=0*, sub=0*)
104: 0x130B [0x01] GOTO 0x1322
105: 0x130E [0xB6] ENTITY_APPEARANCE_HANDLER(case=Full entity look, race=1*, hair=2*, head=0*, body=39*, hands=0*, legs=131*, feet=96*, main=0*, sub=0*)

SUBROUTINE_1322:
106: 0x1322 [0x01] GOTO 0x1743
107: 0x1325 [0x02] IF !(ExtData[1]->WorkLocal[22] == 2*) GOTO 0x1534
108: 0x132D [0x02] IF !(ExtData[1]->WorkLocal[27] == 0*) GOTO 0x134C
109: 0x1335 [0xB6] ENTITY_APPEARANCE_HANDLER(case=Full entity look, race=1*, hair=5*, head=0*, body=24*, hands=0*, legs=131*, feet=96*, main=0*, sub=0*)
110: 0x1349 [0x01] GOTO 0x1531
111: 0x134C [0x02] IF !(ExtData[1]->WorkLocal[27] == 1*) GOTO 0x136B
112: 0x1354 [0xB6] ENTITY_APPEARANCE_HANDLER(case=Full entity look, race=2*, hair=7*, head=0*, body=31*, hands=0*, legs=31*, feet=31*, main=0*, sub=0*)
113: 0x1368 [0x01] GOTO 0x1531
114: 0x136B [0x02] IF !(ExtData[1]->WorkLocal[27] == 2*) GOTO 0x138A
115: 0x1373 [0xB6] ENTITY_APPEARANCE_HANDLER(case=Full entity look, race=3*, hair=1*, head=125*, body=96*, hands=0*, legs=131*, feet=96*, main=0*, sub=0*)
116: 0x1387 [0x01] GOTO 0x1531
117: 0x138A [0x02] IF !(ExtData[1]->WorkLocal[27] == 3*) GOTO 0x13A9
118: 0x1392 [0xB6] ENTITY_APPEARANCE_HANDLER(case=Full entity look, race=4*, hair=10*, head=0*, body=101*, hands=0*, legs=131*, feet=96*, main=0*, sub=0*)
119: 0x13A6 [0x01] GOTO 0x1531
120: 0x13A9 [0x02] IF !(ExtData[1]->WorkLocal[27] == 4*) GOTO 0x13C8
121: 0x13B1 [0xB6] ENTITY_APPEARANCE_HANDLER(case=Full entity look, race=5*, hair=0*, head=0*, body=47*, hands=0*, legs=47*, feet=47*, main=0*, sub=0*)
122: 0x13C5 [0x01] GOTO 0x1531
123: 0x13C8 [0x02] IF !(ExtData[1]->WorkLocal[27] == 5*) GOTO 0x13E7
124: 0x13D0 [0xB6] ENTITY_APPEARANCE_HANDLER(case=Full entity look, race=6*, hair=9*, head=0*, body=130*, hands=0*, legs=130*, feet=130*, main=0*, sub=0*)
125: 0x13E4 [0x01] GOTO 0x1531
126: 0x13E7 [0x02] IF !(ExtData[1]->WorkLocal[27] == 6*) GOTO 0x1406
127: 0x13EF [0xB6] ENTITY_APPEARANCE_HANDLER(case=Full entity look, race=7*, hair=10*, head=0*, body=31*, hands=0*, legs=31*, feet=0*, main=0*, sub=0*)
128: 0x1403 [0x01] GOTO 0x1531
129: 0x1406 [0x02] IF !(ExtData[1]->WorkLocal[27] == 7*) GOTO 0x1425
130: 0x140E [0xB6] ENTITY_APPEARANCE_HANDLER(case=Full entity look, race=8*, hair=11*, head=0*, body=56*, hands=0*, legs=15*, feet=56*, main=0*, sub=0*)
131: 0x1422 [0x01] GOTO 0x1531
132: 0x1425 [0x02] IF !(ExtData[1]->WorkLocal[27] == 8*) GOTO 0x1444
133: 0x142D [0xB6] ENTITY_APPEARANCE_HANDLER(case=Full entity look, race=5*, hair=10*, head=0*, body=134*, hands=0*, legs=134*, feet=134*, main=0*, sub=0*)
134: 0x1441 [0x01] GOTO 0x1531
135: 0x1444 [0x02] IF !(ExtData[1]->WorkLocal[27] == 9*) GOTO 0x1463
136: 0x144C [0xB6] ENTITY_APPEARANCE_HANDLER(case=Full entity look, race=6*, hair=6*, head=0*, body=49*, hands=0*, legs=149*, feet=149*, main=0*, sub=0*)
137: 0x1460 [0x01] GOTO 0x1531
138: 0x1463 [0x02] IF !(ExtData[1]->WorkLocal[27] == 10*) GOTO 0x1482
139: 0x146B [0xB6] ENTITY_APPEARANCE_HANDLER(case=Full entity look, race=2*, hair=7*, head=0*, body=135*, hands=0*, legs=135*, feet=135*, main=0*, sub=0*)
140: 0x147F [0x01] GOTO 0x1531
141: 0x1482 [0x02] IF !(ExtData[1]->WorkLocal[27] == 11*) GOTO 0x14A1
142: 0x148A [0xB6] ENTITY_APPEARANCE_HANDLER(case=Full entity look, race=7*, hair=10*, head=0*, body=135*, hands=0*, legs=135*, feet=135*, main=0*, sub=0*)
143: 0x149E [0x01] GOTO 0x1531
144: 0x14A1 [0x02] IF !(ExtData[1]->WorkLocal[27] == 12*) GOTO 0x14C0
145: 0x14A9 [0xB6] ENTITY_APPEARANCE_HANDLER(case=Full entity look, race=2*, hair=7*, head=0*, body=157*, hands=157*, legs=157*, feet=157*, main=0*, sub=0*)
146: 0x14BD [0x01] GOTO 0x1531
147: 0x14C0 [0x02] IF !(ExtData[1]->WorkLocal[27] == 13*) GOTO 0x14DF
148: 0x14C8 [0xB6] ENTITY_APPEARANCE_HANDLER(case=Full entity look, race=7*, hair=10*, head=0*, body=157*, hands=157*, legs=157*, feet=157*, main=0*, sub=0*)
149: 0x14DC [0x01] GOTO 0x1531
150: 0x14DF [0x02] IF !(ExtData[1]->WorkLocal[27] == 14*) GOTO 0x14FE
151: 0x14E7 [0xB6] ENTITY_APPEARANCE_HANDLER(case=Full entity look, race=7*, hair=0*, head=116*, body=116*, hands=116*, legs=116*, feet=116*, main=0*, sub=0*)
152: 0x14FB [0x01] GOTO 0x1531
153: 0x14FE [0x02] IF !(ExtData[1]->WorkLocal[27] == 15*) GOTO 0x151D
154: 0x1506 [0xB6] ENTITY_APPEARANCE_HANDLER(case=Full entity look, race=3*, hair=15*, head=0*, body=0*, hands=0*, legs=32*, feet=0*, main=0*, sub=0*)
155: 0x151A [0x01] GOTO 0x1531
156: 0x151D [0xB6] ENTITY_APPEARANCE_HANDLER(case=Full entity look, race=1*, hair=5*, head=0*, body=24*, hands=0*, legs=131*, feet=96*, main=0*, sub=0*)

SUBROUTINE_1531:
157: 0x1531 [0x01] GOTO 0x1743
158: 0x1534 [0x02] IF !(ExtData[1]->WorkLocal[22] == 3*) GOTO 0x1743
159: 0x153C [0x02] IF !(ExtData[1]->WorkLocal[27] == 0*) GOTO 0x155B
160: 0x1544 [0xB6] ENTITY_APPEARANCE_HANDLER(case=Full entity look, race=1*, hair=7*, head=0*, body=23*, hands=0*, legs=131*, feet=96*, main=0*, sub=0*)
161: 0x1558 [0x01] GOTO 0x1740
162: 0x155B [0x02] IF !(ExtData[1]->WorkLocal[27] == 1*) GOTO 0x157A
163: 0x1563 [0xB6] ENTITY_APPEARANCE_HANDLER(case=Full entity look, race=2*, hair=14*, head=0*, body=31*, hands=0*, legs=31*, feet=31*, main=0*, sub=0*)
164: 0x1577 [0x01] GOTO 0x1740
165: 0x157A [0x02] IF !(ExtData[1]->WorkLocal[27] == 2*) GOTO 0x1599
166: 0x1582 [0xB6] ENTITY_APPEARANCE_HANDLER(case=Full entity look, race=3*, hair=3*, head=119*, body=96*, hands=0*, legs=131*, feet=96*, main=0*, sub=0*)
167: 0x1596 [0x01] GOTO 0x1740
168: 0x1599 [0x02] IF !(ExtData[1]->WorkLocal[27] == 3*) GOTO 0x15B8
169: 0x15A1 [0xB6] ENTITY_APPEARANCE_HANDLER(case=Full entity look, race=4*, hair=14*, head=0*, body=101*, hands=0*, legs=131*, feet=96*, main=0*, sub=0*)
170: 0x15B5 [0x01] GOTO 0x1740
171: 0x15B8 [0x02] IF !(ExtData[1]->WorkLocal[27] == 4*) GOTO 0x15D7
172: 0x15C0 [0xB6] ENTITY_APPEARANCE_HANDLER(case=Full entity look, race=5*, hair=0*, head=24*, body=24*, hands=0*, legs=107*, feet=107*, main=0*, sub=0*)
173: 0x15D4 [0x01] GOTO 0x1740
174: 0x15D7 [0x02] IF !(ExtData[1]->WorkLocal[27] == 5*) GOTO 0x15F6
