# 16982404 - Aznahf

## Common Data

| Field            | Value                         |
|------------------|-------------------------------|
| Zone             | Aht Urhgan Whitegate (ID: 50) |
| Block Size       | 228 bytes                     |
| Total Events     | 8                             |
| References Count | 19                            |

## List of Events

| Event ID                 | Entrypoint   |   Size |   Instructions |
|--------------------------|--------------|--------|----------------|
| [65535](#event-65535)    | 0x0000       |      1 |              1 |
| [548](#event-548)        | 0x0001       |      1 |              1 |
| [65535.1](#event-655351) | 0x0002       |     14 |              4 |
| [797](#event-797)        | 0x0010       |      1 |              1 |
| [65535.2](#event-655352) | 0x0011       |     21 |              2 |
| [65535.3](#event-655353) | 0x0026       |     28 |              6 |
| [65535.4](#event-655354) | 0x0042       |     14 |              4 |
| [65535.5](#event-655355) | 0x0050       |     21 |              2 |

## DAT References (imed_data)

|   Index | Hex Value   |   Dec Value |
|---------|-------------|-------------|
|       0 | 0x000D      |          13 |
|       1 | 0x22066     |      139366 |
|       2 | 0x2394      |        9108 |
|       3 | 0xFFFFF830  |  4294965296 |
|       4 | 0x0003      |           3 |
|       5 | 0x000B      |          11 |
|       6 | 0x0000      |           0 |
|       7 | 0x008F      |         143 |
|       8 | 0x0083      |         131 |
|       9 | 0x00FF      |         255 |
|      10 | 0x11F74     |       73588 |
|      11 | 0xFFFE0B08  |  4294839048 |
|      12 | 0xFFFFE891  |  4294961297 |
|      13 | 0x089F      |        2207 |
|      14 | 0x12AF3     |       76531 |
|      15 | 0xFFFE0F9B  |  4294840219 |
|      16 | 0x14941     |       84289 |
|      17 | 0xFFFE2C04  |  4294847492 |
|      18 | 0x009D      |         157 |

## Events

### Event 65535

#### Metadata

| Field        | Value   |
|--------------|---------|
| Entrypoint   | 0x0000  |
| Data Size    | 1 bytes |
| Instructions | 1       |

```
      00 01 02 03 04 05 06 07  08 09 0A 0B 0C 0D 0E 0F
      -- -- -- -- -- -- -- --  -- -- -- -- -- -- -- --
0000: 00                                                .               
```

#### Opcodes

```
  0: 0x0000 [0x00] END_REQSTACK()
```

### Event 548

#### Metadata

| Field        | Value   |
|--------------|---------|
| Entrypoint   | 0x0001  |
| Data Size    | 1 bytes |
| Instructions | 1       |

```
      00 01 02 03 04 05 06 07  08 09 0A 0B 0C 0D 0E 0F
      -- -- -- -- -- -- -- --  -- -- -- -- -- -- -- --
0000:    00                                              .              
```

#### Opcodes

```
  0: 0x0001 [0x00] END_REQSTACK()
```

### Event 65535.1

#### Metadata

| Field        | Value    |
|--------------|----------|
| Entrypoint   | 0x0002   |
| Data Size    | 14 bytes |
| Instructions | 4        |

```
      00 01 02 03 04 05 06 07  08 09 0A 0B 0C 0D 0E 0F
      -- -- -- -- -- -- -- --  -- -- -- -- -- -- -- --
0000:       32 00 80 1F 00 01  80 02 80 03 80 1F 01 00    2.............
```

#### Opcodes

```
  0: 0x0002 [0x32] ExtData[1]->MainSpeed = 13* * 0.1
  1: 0x0005 [0x1F] MOVE_ENTITY: EventEntity moves to X=139.366*, Z=9.108*, Y=-2.000*
  2: 0x000D [0x1F] MOVE_ENTITY: Update entity position (mode=1)
  3: 0x000F [0x00] END_REQSTACK()
```

### Event 797

#### Metadata

| Field        | Value   |
|--------------|---------|
| Entrypoint   | 0x0010  |
| Data Size    | 1 bytes |
| Instructions | 1       |

```
      00 01 02 03 04 05 06 07  08 09 0A 0B 0C 0D 0E 0F
      -- -- -- -- -- -- -- --  -- -- -- -- -- -- -- --
0010: 00                                                .               
```

#### Opcodes

```
  0: 0x0010 [0x00] END_REQSTACK()
```

### Event 65535.2

#### Metadata

| Field        | Value    |
|--------------|----------|
| Entrypoint   | 0x0011   |
| Data Size    | 21 bytes |
| Instructions | 2        |

```
      00 01 02 03 04 05 06 07  08 09 0A 0B 0C 0D 0E 0F
      -- -- -- -- -- -- -- --  -- -- -- -- -- -- -- --
0010:    B6 0B 04 80 05 80 06  80 07 80 06 80 08 80 08   ...............
0020: 80 09 80 06 80 00                                 ......          
```

#### Opcodes

```
  0: 0x0011 [0xB6] ENTITY_APPEARANCE_HANDLER(case=Full entity look, race=3*, hair=11*, head=0*, body=143*, hands=0*, legs=131*, feet=131*, main=255*, sub=0*)
  1: 0x0025 [0x00] END_REQSTACK()
```

### Event 65535.3

#### Metadata

| Field        | Value    |
|--------------|----------|
| Entrypoint   | 0x0026   |
| Data Size    | 28 bytes |
| Instructions | 6        |

```
      00 01 02 03 04 05 06 07  08 09 0A 0B 0C 0D 0E 0F
      -- -- -- -- -- -- -- --  -- -- -- -- -- -- -- --
0020:                   37 0A  80 0B 80 0C 80 0D 80 32        7........2
0030: 00 80 1F 00 0E 80 0F 80  0C 80 1F 01 1E 83 21 03  ..............!.
0040: 01 00                                             ..              
```

#### Opcodes

```
  0: 0x0026 [0x37] UPDATE_EVENT_POSITION_AND_DIR: x=73.588*, z=-128.248*, y=-5.999*, direction=194.0°*
  1: 0x002F [0x32] ExtData[1]->MainSpeed = 13* * 0.1
  2: 0x0032 [0x1F] MOVE_ENTITY: EventEntity moves to X=76.531*, Z=-127.077*, Y=-5.999*
  3: 0x003A [0x1F] MOVE_ENTITY: Update entity position (mode=1)
  4: 0x003C [0x1E] EventEntity looks at Zweeha (ID: 16982403/0x01032183) and starts talking
  5: 0x0041 [0x00] END_REQSTACK()
```

### Event 65535.4

#### Metadata

| Field        | Value    |
|--------------|----------|
| Entrypoint   | 0x0042   |
| Data Size    | 14 bytes |
| Instructions | 4        |

```
      00 01 02 03 04 05 06 07  08 09 0A 0B 0C 0D 0E 0F
      -- -- -- -- -- -- -- --  -- -- -- -- -- -- -- --
0040:       32 00 80 1F 00 10  80 11 80 0C 80 1F 01 00    2.............
```

#### Opcodes

```
  0: 0x0042 [0x32] ExtData[1]->MainSpeed = 13* * 0.1
  1: 0x0045 [0x1F] MOVE_ENTITY: EventEntity moves to X=84.289*, Z=-119.804*, Y=-5.999*
  2: 0x004D [0x1F] MOVE_ENTITY: Update entity position (mode=1)
  3: 0x004F [0x00] END_REQSTACK()
```

### Event 65535.5

#### Metadata

| Field        | Value    |
|--------------|----------|
| Entrypoint   | 0x0050   |
| Data Size    | 21 bytes |
| Instructions | 2        |

```
      00 01 02 03 04 05 06 07  08 09 0A 0B 0C 0D 0E 0F
      -- -- -- -- -- -- -- --  -- -- -- -- -- -- -- --
0050: B6 0B 04 80 05 80 06 80  12 80 12 80 08 80 08 80  ................
0060: 09 80 06 80 00                                    .....           
```

#### Opcodes

```
  0: 0x0050 [0xB6] ENTITY_APPEARANCE_HANDLER(case=Full entity look, race=3*, hair=11*, head=0*, body=157*, hands=157*, legs=131*, feet=131*, main=255*, sub=0*)
  1: 0x0064 [0x00] END_REQSTACK()
```
