# 16982277 - Caradoc

## Common Data

| Field            | Value                         |
|------------------|-------------------------------|
| Zone             | Aht Urhgan Whitegate (ID: 50) |
| Block Size       | 232 bytes                     |
| Total Events     | 7                             |
| References Count | 19                            |

## List of Events

| Event ID                  | Entrypoint   |   Size |   Instructions |
|---------------------------|--------------|--------|----------------|
| [65535](#event-65535)     | 0x0000       |      1 |              1 |
| [686](#event-686)         | 0x0001       |      1 |              1 |
| [690](#event-690)         | 0x0002       |      1 |              1 |
| [65535.1](#event-65535-1) | 0x0003       |     30 |              3 |
| [65535.2](#event-65535-2) | 0x0021       |     30 |              3 |
| [65535.3](#event-65535-3) | 0x003F       |      9 |              3 |
| [65535.4](#event-65535-4) | 0x0048       |     38 |              5 |

## DAT References (imed_data)

|   Index | Hex Value   |   Dec Value |
|---------|-------------|-------------|
|       0 | 0x0001      |           1 |
|       1 | 0x0020      |          32 |
|       2 | 0x0015      |          21 |
|       3 | 0x0014      |          20 |
|       4 | 0x0000      |           0 |
|       5 | 0xFFFF1D3D  |  4294909245 |
|       6 | 0x18BC9     |      101321 |
|       7 | 0x041F      |        1055 |
|       8 | 0x0003      |           3 |
|       9 | 0x6912      |       26898 |
|      10 | 0xFFFE1059  |  4294840409 |
|      11 | 0xFFFFE890  |  4294961296 |
|      12 | 0x0474      |        1140 |
|      13 | 0xFFFE65C9  |  4294862281 |
|      14 | 0xFFFFA8C5  |  4294944965 |
|      15 | 0x01FB      |         507 |
|      16 | 0x000E      |          14 |
|      17 | 0x001C      |          28 |
|      18 | 0x001D      |          29 |

## Events

### Event 65535

#### Metadata

| Field        | Value   |
|--------------|---------|
| Entrypoint   | 0x0000  |
| Data Size    | 1 bytes |
| Instructions | 1       |

```
      00 01 02 03 04 05 06 07  08 09 0A 0B 0C 0D 0E 0F
      -- -- -- -- -- -- -- --  -- -- -- -- -- -- -- --
0000: 00                                                .               
```

#### Opcodes

```
  0: 0x0000 [0x00] END_REQSTACK()
```

### Event 686

#### Metadata

| Field        | Value   |
|--------------|---------|
| Entrypoint   | 0x0001  |
| Data Size    | 1 bytes |
| Instructions | 1       |

```
      00 01 02 03 04 05 06 07  08 09 0A 0B 0C 0D 0E 0F
      -- -- -- -- -- -- -- --  -- -- -- -- -- -- -- --
0000:    00                                              .              
```

#### Opcodes

```
  0: 0x0001 [0x00] END_REQSTACK()
```

### Event 690

#### Metadata

| Field        | Value   |
|--------------|---------|
| Entrypoint   | 0x0002  |
| Data Size    | 1 bytes |
| Instructions | 1       |

```
      00 01 02 03 04 05 06 07  08 09 0A 0B 0C 0D 0E 0F
      -- -- -- -- -- -- -- --  -- -- -- -- -- -- -- --
0000:       00                                            .             
```

#### Opcodes

```
  0: 0x0002 [0x00] END_REQSTACK()
```

### Event 65535.1

#### Metadata

| Field        | Value    |
|--------------|----------|
| Entrypoint   | 0x0003   |
| Data Size    | 30 bytes |
| Instructions | 3        |

```
      00 01 02 03 04 05 06 07  08 09 0A 0B 0C 0D 0E 0F
      -- -- -- -- -- -- -- --  -- -- -- -- -- -- -- --
0000:          B6 0B 00 80 00  80 01 80 02 80 02 80 02     .............
0010: 80 03 80 04 80 04 80 37  05 80 06 80 04 80 07 80  .......7........
0020: 00                                                .               
```

#### Opcodes

```
  0: 0x0003 [0xB6] ENTITY_APPEARANCE_HANDLER(case=Full entity look, race=1*, hair=1*, head=32*, body=21*, hands=21*, legs=21*, feet=20*, main=0*, sub=0*)
  1: 0x0017 [0x37] UPDATE_EVENT_POSITION_AND_DIR: x=-58.051*, z=101.321*, y=0.000*, direction=92.7°*
  2: 0x0020 [0x00] END_REQSTACK()
```

### Event 65535.2

#### Metadata

| Field        | Value    |
|--------------|----------|
| Entrypoint   | 0x0021   |
| Data Size    | 30 bytes |
| Instructions | 3        |

```
      00 01 02 03 04 05 06 07  08 09 0A 0B 0C 0D 0E 0F
      -- -- -- -- -- -- -- --  -- -- -- -- -- -- -- --
0020:    B6 0B 00 80 00 80 01  80 08 80 08 80 08 80 03   ...............
0030: 80 04 80 04 80 37 09 80  0A 80 0B 80 0C 80 00     .....7......... 
```

#### Opcodes

```
  0: 0x0021 [0xB6] ENTITY_APPEARANCE_HANDLER(case=Full entity look, race=1*, hair=1*, head=32*, body=3*, hands=3*, legs=3*, feet=20*, main=0*, sub=0*)
  1: 0x0035 [0x37] UPDATE_EVENT_POSITION_AND_DIR: x=26.898*, z=-126.887*, y=-6.000*, direction=100.2°*
  2: 0x003E [0x00] END_REQSTACK()
```

### Event 65535.3

#### Metadata

| Field        | Value   |
|--------------|---------|
| Entrypoint   | 0x003F  |
| Data Size    | 9 bytes |
| Instructions | 3       |

```
      00 01 02 03 04 05 06 07  08 09 0A 0B 0C 0D 0E 0F
      -- -- -- -- -- -- -- --  -- -- -- -- -- -- -- --
0030:                                               22                 "
0040: 01 2F 01 05 21 03 01 00                           ./..!...        
```

#### Opcodes

```
  0: 0x003F [0x22] ENTITY_HIDE_FLAG(enabled=0x01)
  1: 0x0041 [0x2F] Caradoc (ID: 16982277/0x01032105)->Render.Flags0 |= 0x80000 // Bit 19
  2: 0x0047 [0x00] END_REQSTACK()
```

### Event 65535.4

#### Metadata

| Field        | Value    |
|--------------|----------|
| Entrypoint   | 0x0048   |
| Data Size    | 38 bytes |
| Instructions | 5        |

```
      00 01 02 03 04 05 06 07  08 09 0A 0B 0C 0D 0E 0F
      -- -- -- -- -- -- -- --  -- -- -- -- -- -- -- --
0040:                          37 0D 80 0E 80 04 80 0F          7.......
0050: 80 B6 0B 00 80 10 80 11  80 12 80 12 80 12 80 12  ................
0060: 80 04 80 04 80 22 00 2F  00 F8 FF FF 7F 00        ....."./......  
```

#### Opcodes

```
  0: 0x0048 [0x37] UPDATE_EVENT_POSITION_AND_DIR: x=-105.015*, z=-22.331*, y=0.000*, direction=44.6°*
  1: 0x0051 [0xB6] ENTITY_APPEARANCE_HANDLER(case=Full entity look, race=1*, hair=14*, head=28*, body=29*, hands=29*, legs=29*, feet=29*, main=0*, sub=0*)
  2: 0x0065 [0x22] ENTITY_HIDE_FLAG(enabled=0x00)
  3: 0x0067 [0x2F] EventEntity->Render.Flags0 &= ~0x80000 // Bit 19
  4: 0x006D [0x00] END_REQSTACK()
```
