# 16982107 - Jumaaf

## Common Data

| Field            | Value                         |
|------------------|-------------------------------|
| Zone             | Aht Urhgan Whitegate (ID: 50) |
| Block Size       | 236 bytes                     |
| Total Events     | 7                             |
| References Count | 10                            |

## List of Events

| Event ID                 | Entrypoint   |   Size |   Instructions |
|--------------------------|--------------|--------|----------------|
| [65535](#event-65535)    | 0x0000       |      1 |              1 |
| [3002](#event-3002)      | 0x0001       |     13 |              3 |
| [243](#event-243)        | 0x000E       |     44 |              8 |
| [868](#event-868)        | 0x003A       |      7 |              2 |
| [65535.1](#event-655351) | 0x0041       |     62 |             16 |
| [872](#event-872)        | 0x007F       |      7 |              2 |
| [65535.2](#event-655352) | 0x0086       |     17 |              5 |

## DAT References (imed_data)

|   Index | Hex Value   |   Dec Value |
|---------|-------------|-------------|
|       0 | 0x001E      |          30 |
|       1 | 0x0014      |          20 |
|       2 | 0x2457      |        9303 |
|       3 | 0x0028      |          40 |
|       4 | 0x14F14     |       85780 |
|       5 | 0xFFFFECC5  |  4294962373 |
|       6 | 0x0000      |           0 |
|       7 | 0x003C      |          60 |
|       8 | 0x178F6     |       96502 |
|       9 | 0xFFFFEDA2  |  4294962594 |

## String References

- **9303**: This is the Commissions Agency. If you are a mercenary looking for work, you have come to the right place.

## Events

### Event 65535

#### Metadata

| Field        | Value   |
|--------------|---------|
| Entrypoint   | 0x0000  |
| Data Size    | 1 bytes |
| Instructions | 1       |

```
      00 01 02 03 04 05 06 07  08 09 0A 0B 0C 0D 0E 0F
      -- -- -- -- -- -- -- --  -- -- -- -- -- -- -- --
0000: 00                                                .               
```

#### Opcodes

```
  0: 0x0000 [0x00] END_REQSTACK()
```

### Event 3002

#### Metadata

| Field        | Value    |
|--------------|----------|
| Entrypoint   | 0x0001   |
| Data Size    | 13 bytes |
| Instructions | 3        |

```
      00 01 02 03 04 05 06 07  08 09 0A 0B 0C 0D 0E 0F
      -- -- -- -- -- -- -- --  -- -- -- -- -- -- -- --
0000:    92 01 F8 FF FF 7F 94  01 F8 FF FF 7F 00         .............  
```

#### Opcodes

```
  0: 0x0001 [0x92] EventEntity->Render.Flags3 ^= 0x01
  1: 0x0007 [0x94] EventEntity->Render.Flags3 ^= 0x01
  2: 0x000D [0x00] END_REQSTACK()
```

### Event 243

#### Metadata

| Field        | Value    |
|--------------|----------|
| Entrypoint   | 0x000E   |
| Data Size    | 44 bytes |
| Instructions | 8        |

```
      00 01 02 03 04 05 06 07  08 09 0A 0B 0C 0D 0E 0F
      -- -- -- -- -- -- -- --  -- -- -- -- -- -- -- --
0000:                                            1E F0                ..
0010: FF FF 7F 1C 00 80 66 01  80 F8 FF FF 7F F8 FF FF  ......f.........
0020: 7F 74 6C 6B 30 1D 02 80  23 66 01 80 F8 FF FF 7F  .tlk0...#f......
0030: F8 FF FF 7F 74 6C 6B 31  21 00                    ....tlk1!.      
```

#### Opcodes

```
  0: 0x000E [0x1E] EventEntity looks at LocalPlayer and starts talking
  1: 0x0013 [0x1C] WAIT(30* ticks)
  2: 0x0016 [0x66] LOAD_EXT_SCHEDULER_MAIN: Load scheduler "tlk0" with entities [EventEntity, EventEntity], work=20*
  3: 0x0025 [0x1D] PRINT_EVENT_MESSAGE(message_id=9303*)
    → "This is the Commissions Agency. If you are a mercenary looking for work, you have come to the right place."
  4: 0x0028 [0x23] WAIT_FOR_DIALOG_INTERACTION
  5: 0x0029 [0x66] LOAD_EXT_SCHEDULER_MAIN: Load scheduler "tlk1" with entities [EventEntity, EventEntity], work=20*
  6: 0x0038 [0x21] END_EVENT
  7: 0x0039 [0x00] END_REQSTACK()
```

### Event 868

#### Metadata

| Field        | Value   |
|--------------|---------|
| Entrypoint   | 0x003A  |
| Data Size    | 7 bytes |
| Instructions | 2       |

```
      00 01 02 03 04 05 06 07  08 09 0A 0B 0C 0D 0E 0F
      -- -- -- -- -- -- -- --  -- -- -- -- -- -- -- --
0030:                                92 01 F8 FF FF 7F            ......
0040: 00                                                .               
```

#### Opcodes

```
  0: 0x003A [0x92] EventEntity->Render.Flags3 ^= 0x01
  1: 0x0040 [0x00] END_REQSTACK()
```

### Event 65535.1

#### Metadata

| Field        | Value    |
|--------------|----------|
| Entrypoint   | 0x0041   |
| Data Size    | 62 bytes |
| Instructions | 16       |

```
      00 01 02 03 04 05 06 07  08 09 0A 0B 0C 0D 0E 0F
      -- -- -- -- -- -- -- --  -- -- -- -- -- -- -- --
0040:    32 03 80 1F 00 04 80  05 80 06 80 1F 01 1C 07   2..............
0050: 80 32 03 80 1F 00 08 80  09 80 06 80 1F 01 1C 07  .2..............
0060: 80 32 03 80 1F 00 04 80  05 80 06 80 1F 01 1C 07  .2..............
0070: 80 32 03 80 1F 00 08 80  09 80 06 80 1F 01 00     .2............. 
```

#### Opcodes

```
  0: 0x0041 [0x32] ExtData[1]->MainSpeed = 40* * 0.1
  1: 0x0044 [0x1F] MOVE_ENTITY: EventEntity moves to X=85.780*, Z=-4.923*, Y=0.000*
  2: 0x004C [0x1F] MOVE_ENTITY: Update entity position (mode=1)
  3: 0x004E [0x1C] WAIT(60* ticks)
  4: 0x0051 [0x32] ExtData[1]->MainSpeed = 40* * 0.1
  5: 0x0054 [0x1F] MOVE_ENTITY: EventEntity moves to X=96.502*, Z=-4.702*, Y=0.000*
  6: 0x005C [0x1F] MOVE_ENTITY: Update entity position (mode=1)
  7: 0x005E [0x1C] WAIT(60* ticks)
  8: 0x0061 [0x32] ExtData[1]->MainSpeed = 40* * 0.1
  9: 0x0064 [0x1F] MOVE_ENTITY: EventEntity moves to X=85.780*, Z=-4.923*, Y=0.000*
 10: 0x006C [0x1F] MOVE_ENTITY: Update entity position (mode=1)
 11: 0x006E [0x1C] WAIT(60* ticks)
 12: 0x0071 [0x32] ExtData[1]->MainSpeed = 40* * 0.1
 13: 0x0074 [0x1F] MOVE_ENTITY: EventEntity moves to X=96.502*, Z=-4.702*, Y=0.000*
 14: 0x007C [0x1F] MOVE_ENTITY: Update entity position (mode=1)
 15: 0x007E [0x00] END_REQSTACK()
```

### Event 872

#### Metadata

| Field        | Value   |
|--------------|---------|
| Entrypoint   | 0x007F  |
| Data Size    | 7 bytes |
| Instructions | 2       |

```
      00 01 02 03 04 05 06 07  08 09 0A 0B 0C 0D 0E 0F
      -- -- -- -- -- -- -- --  -- -- -- -- -- -- -- --
0070:                                               92                 .
0080: 01 F8 FF FF 7F 00                                 ......          
```

#### Opcodes

```
  0: 0x007F [0x92] EventEntity->Render.Flags3 ^= 0x01
  1: 0x0085 [0x00] END_REQSTACK()
```

### Event 65535.2

#### Metadata

| Field        | Value    |
|--------------|----------|
| Entrypoint   | 0x0086   |
| Data Size    | 17 bytes |
| Instructions | 5        |

```
      00 01 02 03 04 05 06 07  08 09 0A 0B 0C 0D 0E 0F
      -- -- -- -- -- -- -- --  -- -- -- -- -- -- -- --
0080:                   1C 00  80 32 03 80 1F 00 08 80        ...2......
0090: 09 80 06 80 1F 01 00                              .......         
```

#### Opcodes

```
  0: 0x0086 [0x1C] WAIT(30* ticks)
  1: 0x0089 [0x32] ExtData[1]->MainSpeed = 40* * 0.1
  2: 0x008C [0x1F] MOVE_ENTITY: EventEntity moves to X=96.502*, Z=-4.702*, Y=0.000*
  3: 0x0094 [0x1F] MOVE_ENTITY: Update entity position (mode=1)
  4: 0x0096 [0x00] END_REQSTACK()
```
