# 16982329 - Abeesha

## Common Data

| Field            | Value                         |
|------------------|-------------------------------|
| Zone             | Aht Urhgan Whitegate (ID: 50) |
| Block Size       | 260 bytes                     |
| Total Events     | 5                             |
| References Count | 17                            |

## List of Events

| Event ID                  | Entrypoint   |   Size |   Instructions |
|---------------------------|--------------|--------|----------------|
| [65535](#event-65535)     | 0x0000       |      1 |              1 |
| [774](#event-774)         | 0x0001       |     12 |              3 |
| [65535.1](#event-65535-1) | 0x000D       |    112 |             15 |
| [65535.2](#event-65535-2) | 0x007D       |     27 |              7 |
| [65535.3](#event-65535-3) | 0x0098       |      4 |              2 |

## DAT References (imed_data)

|   Index | Hex Value   |   Dec Value |
|---------|-------------|-------------|
|       0 | 0xFFFE591A  |  4294859034 |
|       1 | 0xFFFFEC70  |  4294962288 |
|       2 | 0x0000      |           0 |
|       3 | 0x017C      |         380 |
|       4 | 0x000F      |          15 |
|       5 | 0x0027      |          39 |
|       6 | 0x0028      |          40 |
|       7 | 0x0004      |           4 |
|       8 | 0x0078      |         120 |
|       9 | 0x001E      |          30 |
|      10 | 0x002D      |          45 |
|      11 | 0x000D      |          13 |
|      12 | 0xFFFFB1E0  |  4294947296 |
|      13 | 0x07D0      |        2000 |
|      14 | 0xFFFFCEC6  |  4294954694 |
|      15 | 0xFFFFDF24  |  4294958884 |
|      16 | 0x005A      |          90 |

## Events

### Event 65535

#### Metadata

| Field        | Value   |
|--------------|---------|
| Entrypoint   | 0x0000  |
| Data Size    | 1 bytes |
| Instructions | 1       |

```
      00 01 02 03 04 05 06 07  08 09 0A 0B 0C 0D 0E 0F
      -- -- -- -- -- -- -- --  -- -- -- -- -- -- -- --
0000: 00                                                .               
```

#### Opcodes

```
  0: 0x0000 [0x00] END_REQSTACK()
```

### Event 774

#### Metadata

| Field        | Value    |
|--------------|----------|
| Entrypoint   | 0x0001   |
| Data Size    | 12 bytes |
| Instructions | 3        |

```
      00 01 02 03 04 05 06 07  08 09 0A 0B 0C 0D 0E 0F
      -- -- -- -- -- -- -- --  -- -- -- -- -- -- -- --
0000:    22 00 37 00 80 01 80  02 80 03 80 00            ".7.........   
```

#### Opcodes

```
  0: 0x0001 [0x22] ENTITY_HIDE_FLAG(enabled=0x00)
  1: 0x0003 [0x37] UPDATE_EVENT_POSITION_AND_DIR: x=-108.262*, z=-5.008*, y=0.000*, direction=33.4°*
  2: 0x000C [0x00] END_REQSTACK()
```

### Event 65535.1

#### Metadata

| Field        | Value     |
|--------------|-----------|
| Entrypoint   | 0x000D    |
| Data Size    | 112 bytes |
| Instructions | 15        |

```
      00 01 02 03 04 05 06 07  08 09 0A 0B 0C 0D 0E 0F
      -- -- -- -- -- -- -- --  -- -- -- -- -- -- -- --
0000:                                         79 00 3A               y.:
0010: 21 03 01 39 21 03 01 79  00 39 21 03 01 3A 21 03  !..9!..y.9!..:!.
0020: 01 1C 04 80 66 05 80 3A  21 03 01 3A 21 03 01 74  ....f..:!..:!..t
0030: 6C 6B 30 1C 06 80 6E 39  21 03 01 07 80 99 39 21  lk0...n9!.....9!
0040: 03 01 1C 08 80 66 05 80  3A 21 03 01 3A 21 03 01  .....f..:!..:!..
0050: 74 6C 6B 31 27 0A 35 21  03 01 1F 1C 09 80 27 0A  tlk1'.5!......'.
0060: 37 21 03 01 05 79 00 35  21 03 01 3A 21 03 01 53  7!...y.5!..:!..S
0070: 3A 21 03 01 3A 21 03 01  74 6C 6B 31 00           :!..:!..tlk1.   
```

#### Opcodes

```
  0: 0x000D [0x79] Laruha (ID: 16982330/0x0103213A) looks at Abeesha (ID: 16982329/0x01032139) (Basic look)
  1: 0x0017 [0x79] Abeesha (ID: 16982329/0x01032139) looks at Laruha (ID: 16982330/0x0103213A) (Basic look)
  2: 0x0021 [0x1C] WAIT(15* ticks)
  3: 0x0024 [0x66] LOAD_EXT_SCHEDULER_MAIN: Load scheduler "tlk0" with entities [Laruha (ID: 16982330/0x0103213A), Laruha (ID: 16982330/0x0103213A)], work=39*
  4: 0x0033 [0x1C] WAIT(40* ticks)
  5: 0x0036 [0x6E] Abeesha (ID: 16982329/0x01032139) uses emote 4*
  6: 0x003D [0x99] Wait for Abeesha (ID: 16982329/0x01032139) animation to complete
  7: 0x0042 [0x1C] WAIT(120* ticks)
  8: 0x0045 [0x66] LOAD_EXT_SCHEDULER_MAIN: Load scheduler "tlk1" with entities [Laruha (ID: 16982330/0x0103213A), Laruha (ID: 16982330/0x0103213A)], work=39*
  9: 0x0054 [0x27] REQ_SET(priority=0x0A, entity_id=Iruki-Waraki (ID: 16982325/0x01032135), tag_num=0x1F)
 10: 0x005B [0x1C] WAIT(30* ticks)
 11: 0x005E [0x27] REQ_SET(priority=0x0A, entity_id=Elisabeth (ID: 16982327/0x01032137), tag_num=0x05)
 12: 0x0065 [0x79] Iruki-Waraki (ID: 16982325/0x01032135) looks at Laruha (ID: 16982330/0x0103213A) (Basic look)
 13: 0x006F [0x53] WAIT_SCHEDULER_TASK: Wait for scheduler "tlk1" with entities [Laruha (ID: 16982330/0x0103213A), Laruha (ID: 16982330/0x0103213A)]
 14: 0x007C [0x00] END_REQSTACK()
```

### Event 65535.2

#### Metadata

| Field        | Value    |
|--------------|----------|
| Entrypoint   | 0x007D   |
| Data Size    | 27 bytes |
| Instructions | 7        |

```
      00 01 02 03 04 05 06 07  08 09 0A 0B 0C 0D 0E 0F
      -- -- -- -- -- -- -- --  -- -- -- -- -- -- -- --
0070:                                         1C 0A 80               ...
0080: 32 0B 80 1F 00 0C 80 0D  80 02 80 1F 01 1F 00 0E  2...............
0090: 80 0F 80 02 80 1F 01 00                           ........        
```

#### Opcodes

```
  0: 0x007D [0x1C] WAIT(45* ticks)
  1: 0x0080 [0x32] ExtData[1]->MainSpeed = 13* * 0.1
  2: 0x0083 [0x1F] MOVE_ENTITY: EventEntity moves to X=-20.000*, Z=2.000*, Y=0.000*
  3: 0x008B [0x1F] MOVE_ENTITY: Update entity position (mode=1)
  4: 0x008D [0x1F] MOVE_ENTITY: EventEntity moves to X=-12.602*, Z=-8.412*, Y=0.000*
  5: 0x0095 [0x1F] MOVE_ENTITY: Update entity position (mode=1)
  6: 0x0097 [0x00] END_REQSTACK()
```

### Event 65535.3

#### Metadata

| Field        | Value   |
|--------------|---------|
| Entrypoint   | 0x0098  |
| Data Size    | 4 bytes |
| Instructions | 2       |

```
      00 01 02 03 04 05 06 07  08 09 0A 0B 0C 0D 0E 0F
      -- -- -- -- -- -- -- --  -- -- -- -- -- -- -- --
0090:                          1C 10 80 00                      ....    
```

#### Opcodes

```
  0: 0x0098 [0x1C] WAIT(90* ticks)
  1: 0x009B [0x00] END_REQSTACK()
```
