# 16982450 - Attendant

## Common Data

| Field            | Value                         |
|------------------|-------------------------------|
| Zone             | Aht Urhgan Whitegate (ID: 50) |
| Block Size       | 6912 bytes                    |
| Total Events     | 11                            |
| References Count | 196                           |

## List of Events

| Event ID                 | Entrypoint   |   Size |   Instructions |
|--------------------------|--------------|--------|----------------|
| [65535](#event-65535)    | 0x0000       |      6 |              2 |
| [70](#event-70)          | 0x0006       |      1 |              1 |
| [65535.1](#event-655351) | 0x0007       |     20 |              3 |
| [65535.2](#event-655352) | 0x001B       |     56 |             12 |
| [72](#event-72)          | 0x0053       |      1 |              1 |
| [65535.3](#event-655353) | 0x0054       |     20 |              3 |
| [65535.4](#event-655354) | 0x0068       |     56 |             12 |
| [81](#event-81)          | 0x00A0       |   3770 |            942 |
| [65535.5](#event-655355) | 0x0F5A       |   2138 |            210 |

## DAT References (imed_data)

|   Index | Hex Value   |   Dec Value |
|---------|-------------|-------------|
|       0 | 0x0000      |           0 |
|       1 | 0x1CCB4     |      117940 |
|       2 | 0xFFFF0B2D  |  4294904621 |
|       3 | 0xFFFFE891  |  4294961297 |
|       4 | 0x07C4      |        1988 |
|       5 | 0x0001      |           1 |
|       6 | 0x003C      |          60 |
|       7 | 0x25F4      |        9716 |
|       8 | 0x1C458     |      115800 |
|       9 | 0xFFFE8E2F  |  4294872623 |
|      10 | 0xFFFFE890  |  4294961296 |
|      11 | 0x0755      |        1877 |
|      12 | 0x0009      |           9 |
|      13 | 0x260A      |        9738 |
|      14 | 0x0003      |           3 |
|      15 | 0x260C      |        9740 |
|      16 | 0x000F      |          15 |
|      17 | 0x0008      |           8 |
|      18 | 0x0007      |           7 |
|      19 | 0x03FC      |        1020 |
|      20 | 0x0034      |          52 |
|      21 | 0x0020      |          32 |
|      22 | 0x104A      |        4170 |
|      23 | 0x1047      |        4167 |
|      24 | 0x0002      |           2 |
|      25 | 0x1048      |        4168 |
|      26 | 0x1049      |        4169 |
|      27 | 0x0004      |           4 |
|      28 | 0x1057      |        4183 |
|      29 | 0x0005      |           5 |
|      30 | 0x1058      |        4184 |
|      31 | 0x0006      |           6 |
|      32 | 0x1059      |        4185 |
|      33 | 0x105A      |        4186 |
|      34 | 0x1077      |        4215 |
|      35 | 0x1078      |        4216 |
|      36 | 0x000A      |          10 |
|      37 | 0x1079      |        4217 |
|      38 | 0x000B      |          11 |
|      39 | 0x107A      |        4218 |
|      40 | 0x000C      |          12 |
|      41 | 0x10A0      |        4256 |
|      42 | 0x000D      |          13 |
|      43 | 0x10A1      |        4257 |
|      44 | 0x000E      |          14 |
|      45 | 0x14AE      |        5294 |
|      46 | 0x14AF      |        5295 |
|      47 | 0x0010      |          16 |
|      48 | 0x14B0      |        5296 |
|      49 | 0x0011      |          17 |
|      50 | 0x14B1      |        5297 |
|      51 | 0x0012      |          18 |
|      52 | 0x1453      |        5203 |
|      53 | 0x0013      |          19 |
|      54 | 0x1454      |        5204 |
|      55 | 0x0014      |          20 |
|      56 | 0x1455      |        5205 |
|      57 | 0x0015      |          21 |
|      58 | 0x1456      |        5206 |
|      59 | 0x0016      |          22 |
|      60 | 0x10C8      |        4296 |
|      61 | 0x0017      |          23 |
|      62 | 0x10C9      |        4297 |
|      63 | 0x0018      |          24 |
|      64 | 0x10CA      |        4298 |
|      65 | 0x0019      |          25 |
|      66 | 0x1477      |        5239 |
|      67 | 0x001A      |          26 |
|      68 | 0x15A9      |        5545 |
|      69 | 0x001B      |          27 |
|      70 | 0x15AC      |        5548 |
|      71 | 0x001C      |          28 |
|      72 | 0x15A7      |        5543 |
|      73 | 0x001D      |          29 |
|      74 | 0x15AF      |        5551 |
|      75 | 0x001E      |          30 |
|      76 | 0x15B1      |        5553 |
|      77 | 0x001F      |          31 |
|      78 | 0x15B8      |        5560 |
|      79 | 0x10CB      |        4299 |
|      80 | 0x0021      |          33 |
|      81 | 0x10CC      |        4300 |
|      82 | 0x0022      |          34 |
|      83 | 0x10CD      |        4301 |
|      84 | 0x0023      |          35 |
|      85 | 0x10CE      |        4302 |
|      86 | 0x0024      |          36 |
|      87 | 0x10CF      |        4303 |
|      88 | 0x0025      |          37 |
|      89 | 0x1146      |        4422 |
|      90 | 0x0026      |          38 |
|      91 | 0x1147      |        4423 |
|      92 | 0x0027      |          39 |
|      93 | 0x1148      |        4424 |
|      94 | 0x0028      |          40 |
|      95 | 0x1149      |        4425 |
|      96 | 0x0029      |          41 |
|      97 | 0x1159      |        4441 |
|      98 | 0x002A      |          42 |
|      99 | 0x115A      |        4442 |
|     100 | 0x002B      |          43 |
|     101 | 0x11A0      |        4512 |
|     102 | 0x002C      |          44 |
|     103 | 0x10BB      |        4283 |
|     104 | 0x002D      |          45 |
|     105 | 0x10BE      |        4286 |
|     106 | 0x002E      |          46 |
|     107 | 0x118D      |        4493 |
|     108 | 0x002F      |          47 |
|     109 | 0x1192      |        4498 |
|     110 | 0x0030      |          48 |
|     111 | 0x11AC      |        4524 |
|     112 | 0x0031      |          49 |
|     113 | 0x11BD      |        4541 |
|     114 | 0x0032      |          50 |
|     115 | 0x11CE      |        4558 |
|     116 | 0x0033      |          51 |
|     117 | 0x1465      |        5221 |
|     118 | 0x0035      |          53 |
|     119 | 0x0036      |          54 |
|     120 | 0x0037      |          55 |
|     121 | 0x0038      |          56 |
|     122 | 0x0039      |          57 |
|     123 | 0x003A      |          58 |
|     124 | 0x003B      |          59 |
|     125 | 0x003D      |          61 |
|     126 | 0x003E      |          62 |
|     127 | 0x003F      |          63 |
|     128 | 0x260D      |        9741 |
|     129 | 0x260E      |        9742 |
|     130 | 0x0064      |         100 |
|     131 | 0x260F      |        9743 |
|     132 | 0x2610      |        9744 |
|     133 | 0x2612      |        9746 |
|     134 | 0x2613      |        9747 |
|     135 | 0x2614      |        9748 |
|     136 | 0x2615      |        9749 |
|     137 | 0x0100      |         256 |
|     138 | 0x2616      |        9750 |
|     139 | 0x00B4      |         180 |
|     140 | 0x2617      |        9751 |
|     141 | 0x2DCC6     |      187590 |
|     142 | 0xFFFEB4E8  |  4294882536 |
|     143 | 0x2AE80     |      175744 |
|     144 | 0xFFFE8D72  |  4294872434 |
|     145 | 0x28D98     |      167320 |
|     146 | 0xFFFEC398  |  4294886296 |
|     147 | 0x2A35A     |      172890 |
|     148 | 0xFFFEBA0D  |  4294883853 |
|     149 | 0x2B493     |      177299 |
|     150 | 0xFFFEAE17  |  4294880791 |
|     151 | 0x2B935     |      178485 |
|     152 | 0xFFFE9D8C  |  4294876556 |
|     153 | 0xFFFEBD81  |  4294884737 |
|     154 | 0x2E06E     |      188526 |
|     155 | 0xFFFE8EB2  |  4294872754 |
|     156 | 0x2ABB6     |      175030 |
|     157 | 0x2D1F1     |      184817 |
|     158 | 0xFFFEC839  |  4294887481 |
|     159 | 0x2C882     |      182402 |
|     160 | 0xFFFE960F  |  4294874639 |
|     161 | 0xFFFECC5E  |  4294888542 |
|     162 | 0x2DE05     |      187909 |
|     163 | 0xFFFF0080  |  4294901888 |
|     164 | 0xFFFECB68  |  4294888296 |
|     165 | 0xFFFED109  |  4294889737 |
|     166 | 0x2CEFF     |      184063 |
|     167 | 0xFFFEDDF8  |  4294893048 |
|     168 | 0x2B8DB     |      178395 |
|     169 | 0xFFFE9E58  |  4294876760 |
|     170 | 0xFFFEDA2C  |  4294892076 |
|     171 | 0x2ACF3     |      175347 |
|     172 | 0xFFFEFA52  |  4294900306 |
|     173 | 0xFFFED720  |  4294891296 |
|     174 | 0xFFFECD21  |  4294888737 |
|     175 | 0x2C7B7     |      182199 |
|     176 | 0xFFFEE848  |  4294895688 |
|     177 | 0x2C87F     |      182399 |
|     178 | 0xFFFE9E3C  |  4294876732 |
|     179 | 0x2619      |        9753 |
|     180 | 0x2618      |        9752 |
|     181 | 0x261A      |        9754 |
|     182 | 0x0083      |         131 |
|     183 | 0x0060      |          96 |
|     184 | 0x006B      |         107 |
|     185 | 0x0095      |         149 |
|     186 | 0x0087      |         135 |
|     187 | 0x009D      |         157 |
|     188 | 0x0074      |         116 |
|     189 | 0x00A0      |         160 |
|     190 | 0x007D      |         125 |
|     191 | 0x0065      |         101 |
|     192 | 0x0082      |         130 |
|     193 | 0x0086      |         134 |
|     194 | 0x0077      |         119 |
|     195 | 0x008F      |         143 |

## String References

- **9716**: Welcome to the Kokba Hostel!
- **9738**: Thank you for your patronage! We hope you visit again soon!
- **9740**: How may I help you? [I'm fine./I need more party items./Digestive magic./Attendant location.]
- **9741**: I'm terribly sorry, but there are no items available to you at this time.
- **9742**: Which item do you ask for? [None./Back./$0./$1./$2./$3./$4./$5./$6./$7./Next.]
- **9743**: I can offer you $0 for $1 gil. Please be aware that all items purchased in the hostel are temporary and will disappear upon leaving the premises.
- **9744**: Purchase $0? [Yes./No.]
- **9746**: My apologies, there seems to have been some problem with the transaction.
- **9747**: A certain Tarutaru has developed a new spell that will magically remove any lingering food effects.
- **9748**: However, you do not appear to require this service at this time.
- **9749**: Have your current food effects removed? [Yes, please!/No, thanks!]
- **9750**: Flabby...? Uh, fla-whatsit... (How did this go again?) FLUSH!!!
- **9751**: If you would like me to stand somewhere else, please review the locations displayed on the map, then select a location number from the list.
- **9752**: Where shall I stand? [Here is fine./1."."./4./5./6.]
- **9753**: Here are the available locations.
- **9754**: Location $8 is your choice? [Yes./No.]

## Events

### Event 65535

#### Metadata

| Field        | Value   |
|--------------|---------|
| Entrypoint   | 0x0000  |
| Data Size    | 6 bytes |
| Instructions | 2       |

```
      00 01 02 03 04 05 06 07  08 09 0A 0B 0C 0D 0E 0F
      -- -- -- -- -- -- -- --  -- -- -- -- -- -- -- --
0000: 03 16 00 00 80 00                                 ......          
```

#### Opcodes

```
  0: 0x0000 [0x03] ExtData[1]->WorkLocal[22] = 0*
  1: 0x0005 [0x00] END_REQSTACK()
```

### Event 70

#### Metadata

| Field        | Value   |
|--------------|---------|
| Entrypoint   | 0x0006  |
| Data Size    | 1 bytes |
| Instructions | 1       |

```
      00 01 02 03 04 05 06 07  08 09 0A 0B 0C 0D 0E 0F
      -- -- -- -- -- -- -- --  -- -- -- -- -- -- -- --
0000:                   00                                    .         
```

#### Opcodes

```
  0: 0x0006 [0x00] END_REQSTACK()
```

### Event 65535.1

#### Metadata

| Field        | Value    |
|--------------|----------|
| Entrypoint   | 0x0007   |
| Data Size    | 20 bytes |
| Instructions | 3        |

```
      00 01 02 03 04 05 06 07  08 09 0A 0B 0C 0D 0E 0F
      -- -- -- -- -- -- -- --  -- -- -- -- -- -- -- --
0000:                      79  00 F8 FF FF 7F F0 FF FF         y........
0010: 7F 37 01 80 02 80 03 80  04 80 00                 .7.........     
```

#### Opcodes

```
  0: 0x0007 [0x79] EventEntity looks at LocalPlayer (Basic look)
  1: 0x0011 [0x37] UPDATE_EVENT_POSITION_AND_DIR: x=117.940*, z=-62.675*, y=-5.999*, direction=174.7°*
  2: 0x001A [0x00] END_REQSTACK()
```

### Event 65535.2

#### Metadata

| Field        | Value    |
|--------------|----------|
| Entrypoint   | 0x001B   |
| Data Size    | 56 bytes |
| Instructions | 12       |

```
      00 01 02 03 04 05 06 07  08 09 0A 0B 0C 0D 0E 0F
      -- -- -- -- -- -- -- --  -- -- -- -- -- -- -- --
0010:                                   6E B2 21 03 01             n.!..
0020: 05 80 99 B2 21 03 01 6E  B3 21 03 01 05 80 99 B3  ....!..n.!......
0030: 21 03 01 6E B4 21 03 01  05 80 99 B4 21 03 01 6E  !..n.!......!..n
0040: B5 21 03 01 05 80 99 B5  21 03 01 1C 06 80 1D 07  .!......!.......
0050: 80 23 00                                          .#.             
```

#### Opcodes

```
  0: 0x001B [0x6E] Attendant (ID: 16982450/0x010321B2) uses emote 1*
  1: 0x0022 [0x99] Wait for Attendant (ID: 16982450/0x010321B2) animation to complete
  2: 0x0027 [0x6E] Attendant (ID: 16982451/0x010321B3) uses emote 1*
  3: 0x002E [0x99] Wait for Attendant (ID: 16982451/0x010321B3) animation to complete
  4: 0x0033 [0x6E] Attendant (ID: 16982452/0x010321B4) uses emote 1*
  5: 0x003A [0x99] Wait for Attendant (ID: 16982452/0x010321B4) animation to complete
  6: 0x003F [0x6E] Attendant (ID: 16982453/0x010321B5) uses emote 1*
  7: 0x0046 [0x99] Wait for Attendant (ID: 16982453/0x010321B5) animation to complete
  8: 0x004B [0x1C] WAIT(60* ticks)
  9: 0x004E [0x1D] PRINT_EVENT_MESSAGE(message_id=9716*)
    → "Welcome to the Kokba Hostel!"
 10: 0x0051 [0x23] WAIT_FOR_DIALOG_INTERACTION
 11: 0x0052 [0x00] END_REQSTACK()
```

### Event 72

#### Metadata

| Field        | Value   |
|--------------|---------|
| Entrypoint   | 0x0053  |
| Data Size    | 1 bytes |
| Instructions | 1       |

```
      00 01 02 03 04 05 06 07  08 09 0A 0B 0C 0D 0E 0F
      -- -- -- -- -- -- -- --  -- -- -- -- -- -- -- --
0050:          00                                          .            
```

#### Opcodes

```
  0: 0x0053 [0x00] END_REQSTACK()
```

### Event 65535.3

#### Metadata

| Field        | Value    |
|--------------|----------|
| Entrypoint   | 0x0054   |
| Data Size    | 20 bytes |
| Instructions | 3        |

```
      00 01 02 03 04 05 06 07  08 09 0A 0B 0C 0D 0E 0F
      -- -- -- -- -- -- -- --  -- -- -- -- -- -- -- --
0050:             79 00 F8 FF  FF 7F F0 FF FF 7F 37 08      y.........7.
0060: 80 09 80 0A 80 0B 80 00                           ........        
```

#### Opcodes

```
  0: 0x0054 [0x79] EventEntity looks at LocalPlayer (Basic look)
  1: 0x005E [0x37] UPDATE_EVENT_POSITION_AND_DIR: x=115.800*, z=-94.673*, y=-6.000*, direction=165.0°*
  2: 0x0067 [0x00] END_REQSTACK()
```

### Event 65535.4

#### Metadata

| Field        | Value    |
|--------------|----------|
| Entrypoint   | 0x0068   |
| Data Size    | 56 bytes |
| Instructions | 12       |

```
      00 01 02 03 04 05 06 07  08 09 0A 0B 0C 0D 0E 0F
      -- -- -- -- -- -- -- --  -- -- -- -- -- -- -- --
0060:                          6E B2 21 03 01 0C 80 99          n.!.....
0070: B2 21 03 01 6E B3 21 03  01 0C 80 99 B3 21 03 01  .!..n.!......!..
0080: 6E B4 21 03 01 0C 80 99  B4 21 03 01 6E B5 21 03  n.!......!..n.!.
0090: 01 0C 80 99 B5 21 03 01  1C 06 80 1D 0D 80 23 00  .....!........#.
```

#### Opcodes

```
  0: 0x0068 [0x6E] Attendant (ID: 16982450/0x010321B2) uses emote 9*
  1: 0x006F [0x99] Wait for Attendant (ID: 16982450/0x010321B2) animation to complete
  2: 0x0074 [0x6E] Attendant (ID: 16982451/0x010321B3) uses emote 9*
  3: 0x007B [0x99] Wait for Attendant (ID: 16982451/0x010321B3) animation to complete
  4: 0x0080 [0x6E] Attendant (ID: 16982452/0x010321B4) uses emote 9*
  5: 0x0087 [0x99] Wait for Attendant (ID: 16982452/0x010321B4) animation to complete
  6: 0x008C [0x6E] Attendant (ID: 16982453/0x010321B5) uses emote 9*
  7: 0x0093 [0x99] Wait for Attendant (ID: 16982453/0x010321B5) animation to complete
  8: 0x0098 [0x1C] WAIT(60* ticks)
  9: 0x009B [0x1D] PRINT_EVENT_MESSAGE(message_id=9738*)
    → "Thank you for your patronage! We hope you visit again soon!"
 10: 0x009E [0x23] WAIT_FOR_DIALOG_INTERACTION
 11: 0x009F [0x00] END_REQSTACK()
```

### Event 81

#### Metadata

| Field        | Value      |
|--------------|------------|
| Entrypoint   | 0x00A0     |
| Data Size    | 3770 bytes |
| Instructions | 545        |

```
      00 01 02 03 04 05 06 07  08 09 0A 0B 0C 0D 0E 0F
      -- -- -- -- -- -- -- --  -- -- -- -- -- -- -- --
00A0: 03 00 00 02 10 03 01 00  03 10 03 02 00 04 10 03  ................
00B0: 17 00 05 10 03 18 00 06  10 1E F0 FF FF 7F 06 0C  ................
00C0: 00 2E 06 0B 00 02 17 00  05 80 01 DB 00 3C 00 00  .............<..
00D0: 00 80 05 80 3C 0B 00 0E  80 05 80 24 0F 80 0C 00  ....<......$....
00E0: 0B 00 25 03 0C 00 00 10  40 00 80 10 80 01 10 00  ..%.....@.......
00F0: 10 02 00 10 05 80 00 DF  0B 06 03 00 06 0D 00 2E  ................
0100: 02 17 00 05 80 01 0F 01  3C 00 00 00 80 05 80 03  ........<.......
0110: 04 00 03 00 14 04 00 11  80 03 05 00 04 00 07 05  ................
0120: 00 12 80 06 08 00 06 06  00 06 07 00 03 0B 00 13  ................
0130: 80 06 02 10 06 03 10 06  04 10 06 05 10 06 06 10  ................
0140: 06 07 10 06 08 10 06 09  10 02 08 00 14 80 03 80  ................
0150: 06 02 08 00 15 80 04 6B  01 03 09 00 01 00 03 0A  .......k........
0160: 00 08 00 08 0A 00 15 80  01 75 01 03 09 00 00 00  .........u......
0170: 03 0A 00 08 00 3E 09 00  0A 00 7F 01 01 7A 06 02  .....>.......z..
0180: 06 00 04 00 04 77 06 02  06 00 05 00 05 77 06 02  .....w.......w..
0190: 08 00 00 80 80 9F 01 03  09 00 16 80 01 94 05 02  ................
01A0: 08 00 05 80 80 AF 01 03  09 00 17 80 01 94 05 02  ................
01B0: 08 00 18 80 80 BF 01 03  09 00 19 80 01 94 05 02  ................
01C0: 08 00 0E 80 80 CF 01 03  09 00 1A 80 01 94 05 02  ................
01D0: 08 00 1B 80 80 DF 01 03  09 00 1C 80 01 94 05 02  ................
01E0: 08 00 1D 80 80 EF 01 03  09 00 1E 80 01 94 05 02  ................
01F0: 08 00 1F 80 80 FF 01 03  09 00 20 80 01 94 05 02  .......... .....
0200: 08 00 12 80 80 0F 02 03  09 00 21 80 01 94 05 02  ..........!.....
0210: 08 00 11 80 80 1F 02 03  09 00 22 80 01 94 05 02  ..........".....
0220: 08 00 0C 80 80 2F 02 03  09 00 23 80 01 94 05 02  ...../....#.....
0230: 08 00 24 80 80 3F 02 03  09 00 25 80 01 94 05 02  ..$..?....%.....
0240: 08 00 26 80 80 4F 02 03  09 00 27 80 01 94 05 02  ..&..O....'.....
0250: 08 00 28 80 80 5F 02 03  09 00 29 80 01 94 05 02  ..(.._....).....
0260: 08 00 2A 80 80 6F 02 03  09 00 2B 80 01 94 05 02  ..*..o....+.....
0270: 08 00 2C 80 80 7F 02 03  09 00 2D 80 01 94 05 02  ..,.......-.....
0280: 08 00 10 80 80 8F 02 03  09 00 2E 80 01 94 05 02  ................
0290: 08 00 2F 80 80 9F 02 03  09 00 30 80 01 94 05 02  ../.......0.....
02A0: 08 00 31 80 80 AF 02 03  09 00 32 80 01 94 05 02  ..1.......2.....
02B0: 08 00 33 80 80 BF 02 03  09 00 34 80 01 94 05 02  ..3.......4.....
02C0: 08 00 35 80 80 CF 02 03  09 00 36 80 01 94 05 02  ..5.......6.....
02D0: 08 00 37 80 80 DF 02 03  09 00 38 80 01 94 05 02  ..7.......8.....
02E0: 08 00 39 80 80 EF 02 03  09 00 3A 80 01 94 05 02  ..9.......:.....
02F0: 08 00 3B 80 80 FF 02 03  09 00 3C 80 01 94 05 02  ..;.......<.....
0300: 08 00 3D 80 80 0F 03 03  09 00 3E 80 01 94 05 02  ..=.......>.....
0310: 08 00 3F 80 80 1F 03 03  09 00 40 80 01 94 05 02  ..?.......@.....
0320: 08 00 41 80 80 2F 03 03  09 00 42 80 01 94 05 02  ..A../....B.....
0330: 08 00 43 80 80 3F 03 03  09 00 44 80 01 94 05 02  ..C..?....D.....
0340: 08 00 45 80 80 4F 03 03  09 00 46 80 01 94 05 02  ..E..O....F.....
0350: 08 00 47 80 80 5F 03 03  09 00 48 80 01 94 05 02  ..G.._....H.....
0360: 08 00 49 80 80 6F 03 03  09 00 4A 80 01 94 05 02  ..I..o....J.....
0370: 08 00 4B 80 80 7F 03 03  09 00 4C 80 01 94 05 02  ..K.......L.....
0380: 08 00 4D 80 80 8F 03 03  09 00 4E 80 01 94 05 02  ..M.......N.....
0390: 08 00 15 80 80 9F 03 03  09 00 4F 80 01 94 05 02  ..........O.....
03A0: 08 00 50 80 80 AF 03 03  09 00 51 80 01 94 05 02  ..P.......Q.....
03B0: 08 00 52 80 80 BF 03 03  09 00 53 80 01 94 05 02  ..R.......S.....
03C0: 08 00 54 80 80 CF 03 03  09 00 55 80 01 94 05 02  ..T.......U.....
03D0: 08 00 56 80 80 DF 03 03  09 00 57 80 01 94 05 02  ..V.......W.....
03E0: 08 00 58 80 80 EF 03 03  09 00 59 80 01 94 05 02  ..X.......Y.....
03F0: 08 00 5A 80 80 FF 03 03  09 00 5B 80 01 94 05 02  ..Z.......[.....
0400: 08 00 5C 80 80 0F 04 03  09 00 5D 80 01 94 05 02  ..\.......].....
0410: 08 00 5E 80 80 1F 04 03  09 00 5F 80 01 94 05 02  ..^......._.....
0420: 08 00 60 80 80 2F 04 03  09 00 61 80 01 94 05 02  ..`../....a.....
0430: 08 00 62 80 80 3F 04 03  09 00 63 80 01 94 05 02  ..b..?....c.....
0440: 08 00 64 80 80 4F 04 03  09 00 65 80 01 94 05 02  ..d..O....e.....
0450: 08 00 66 80 80 5F 04 03  09 00 67 80 01 94 05 02  ..f.._....g.....
0460: 08 00 68 80 80 6F 04 03  09 00 69 80 01 94 05 02  ..h..o....i.....
0470: 08 00 6A 80 80 7F 04 03  09 00 6B 80 01 94 05 02  ..j.......k.....
0480: 08 00 6C 80 80 8F 04 03  09 00 6D 80 01 94 05 02  ..l.......m.....
0490: 08 00 6E 80 80 9F 04 03  09 00 6F 80 01 94 05 02  ..n.......o.....
04A0: 08 00 70 80 80 AF 04 03  09 00 71 80 01 94 05 02  ..p.......q.....
04B0: 08 00 72 80 80 BF 04 03  09 00 73 80 01 94 05 02  ..r.......s.....
04C0: 08 00 74 80 80 CF 04 03  09 00 75 80 01 94 05 02  ..t.......u.....
04D0: 08 00 14 80 80 DF 04 03  09 00 00 80 01 94 05 02  ................
04E0: 08 00 76 80 80 EF 04 03  09 00 00 80 01 94 05 02  ..v.............
04F0: 08 00 77 80 80 FF 04 03  09 00 00 80 01 94 05 02  ..w.............
0500: 08 00 78 80 80 0F 05 03  09 00 00 80 01 94 05 02  ..x.............
0510: 08 00 79 80 80 1F 05 03  09 00 00 80 01 94 05 02  ..y.............
0520: 08 00 7A 80 80 2F 05 03  09 00 00 80 01 94 05 02  ..z../..........
0530: 08 00 7B 80 80 3F 05 03  09 00 00 80 01 94 05 02  ..{..?..........
0540: 08 00 7C 80 80 4F 05 03  09 00 00 80 01 94 05 02  ..|..O..........
0550: 08 00 06 80 80 5F 05 03  09 00 00 80 01 94 05 02  ....._..........
0560: 08 00 7D 80 80 6F 05 03  09 00 00 80 01 94 05 02  ..}..o..........
0570: 08 00 7E 80 80 7F 05 03  09 00 00 80 01 94 05 02  ..~.............
0580: 08 00 7F 80 80 8F 05 03  09 00 00 80 01 94 05 03  ................
0590: 09 00 00 80 02 07 00 00  80 80 B0 05 03 02 10 09  ................
05A0: 00 3D 0B 00 18 80 05 80  03 0E 00 08 00 01 74 06  .=............t.
05B0: 02 07 00 05 80 80 CC 05  03 03 10 09 00 3D 0B 00  .............=..
05C0: 0E 80 05 80 03 0F 00 08  00 01 74 06 02 07 00 18  ..........t.....
05D0: 80 80 E8 05 03 04 10 09  00 3D 0B 00 1B 80 05 80  .........=......
05E0: 03 10 00 08 00 01 74 06  02 07 00 0E 80 80 04 06  ......t.........
05F0: 03 05 10 09 00 3D 0B 00  1D 80 05 80 03 11 00 08  .....=..........
0600: 00 01 74 06 02 07 00 1B  80 80 20 06 03 06 10 09  ..t....... .....
0610: 00 3D 0B 00 1F 80 05 80  03 12 00 08 00 01 74 06  .=............t.
0620: 02 07 00 1D 80 80 3C 06  03 07 10 09 00 3D 0B 00  ......<......=..
0630: 12 80 05 80 03 13 00 08  00 01 74 06 02 07 00 1F  ..........t.....
0640: 80 80 58 06 03 08 10 09  00 3D 0B 00 11 80 05 80  ..X......=......
0650: 03 14 00 08 00 01 74 06  02 07 00 12 80 80 74 06  ......t.......t.
0660: 03 09 10 09 00 3D 0B 00  0C 80 05 80 03 15 00 08  .....=..........
0670: 00 01 74 06 0B 07 00 0B  06 00 0B 08 00 01 49 01  ..t...........I.
0680: 02 07 00 00 80 00 A5 06  02 03 00 00 80 00 9A 06  ................
0690: 1D 80 80 23 01 C1 00 01  A5 06 0C 03 00 03 0D 00  ...#............
06A0: 24 80 01 FF 00 02 03 00  00 80 00 B4 06 3C 0B 00  $............<..
06B0: 05 80 05 80 03 09 00 06  00 0C 09 00 02 09 00 05  ................
06C0: 00 05 CB 06 3C 0B 00 24  80 05 80 24 81 80 0D 00  ....<..$...$....
06D0: 0B 00 25 03 0D 00 00 10  02 00 10 00 80 00 E6 06  ..%.............
06E0: 01 C1 00 01 D9 0B 02 00  10 05 80 00 F9 06 0C 03  ................
06F0: 00 03 0D 00 24 80 01 D9  0B 02 00 10 24 80 00 0C  ....$.......$...
0700: 07 0B 03 00 03 0D 00 05  80 01 D9 0B 02 00 10 18  ................
0710: 80 80 1C 07 03 08 00 0E  00 01 8C 07 02 00 10 0E  ................
0720: 80 80 2C 07 03 08 00 0F  00 01 8C 07 02 00 10 1B  ..,.............
0730: 80 80 3C 07 03 08 00 10  00 01 8C 07 02 00 10 1D  ..<.............
0740: 80 80 4C 07 03 08 00 11  00 01 8C 07 02 00 10 1F  ..L.............
0750: 80 80 5C 07 03 08 00 12  00 01 8C 07 02 00 10 12  ..\.............
0760: 80 80 6C 07 03 08 00 13  00 01 8C 07 02 00 10 11  ..l.............
0770: 80 80 7C 07 03 08 00 14  00 01 8C 07 02 00 10 0C  ..|.............
0780: 80 80 8C 07 03 08 00 15  00 01 8C 07 02 08 00 00  ................
0790: 80 80 9C 07 03 09 00 16  80 01 91 0B 02 08 00 05  ................
07A0: 80 80 AC 07 03 09 00 17  80 01 91 0B 02 08 00 18  ................
07B0: 80 80 BC 07 03 09 00 19  80 01 91 0B 02 08 00 0E  ................
07C0: 80 80 CC 07 03 09 00 1A  80 01 91 0B 02 08 00 1B  ................
07D0: 80 80 DC 07 03 09 00 1C  80 01 91 0B 02 08 00 1D  ................
07E0: 80 80 EC 07 03 09 00 1E  80 01 91 0B 02 08 00 1F  ................
07F0: 80 80 FC 07 03 09 00 20  80 01 91 0B 02 08 00 12  ....... ........
0800: 80 80 0C 08 03 09 00 21  80 01 91 0B 02 08 00 11  .......!........
0810: 80 80 1C 08 03 09 00 22  80 01 91 0B 02 08 00 0C  ......."........
0820: 80 80 2C 08 03 09 00 23  80 01 91 0B 02 08 00 24  ..,....#.......$
0830: 80 80 3C 08 03 09 00 25  80 01 91 0B 02 08 00 26  ..<....%.......&
0840: 80 80 4C 08 03 09 00 27  80 01 91 0B 02 08 00 28  ..L....'.......(
0850: 80 80 5C 08 03 09 00 29  80 01 91 0B 02 08 00 2A  ..\....).......*
0860: 80 80 6C 08 03 09 00 2B  80 01 91 0B 02 08 00 2C  ..l....+.......,
0870: 80 80 7C 08 03 09 00 2D  80 01 91 0B 02 08 00 10  ..|....-........
0880: 80 80 8C 08 03 09 00 2E  80 01 91 0B 02 08 00 2F  .............../
0890: 80 80 9C 08 03 09 00 30  80 01 91 0B 02 08 00 31  .......0.......1
08A0: 80 80 AC 08 03 09 00 32  80 01 91 0B 02 08 00 33  .......2.......3
08B0: 80 80 BC 08 03 09 00 34  80 01 91 0B 02 08 00 35  .......4.......5
08C0: 80 80 CC 08 03 09 00 36  80 01 91 0B 02 08 00 37  .......6.......7
08D0: 80 80 DC 08 03 09 00 38  80 01 91 0B 02 08 00 39  .......8.......9
08E0: 80 80 EC 08 03 09 00 3A  80 01 91 0B 02 08 00 3B  .......:.......;
08F0: 80 80 FC 08 03 09 00 3C  80 01 91 0B 02 08 00 3D  .......<.......=
0900: 80 80 0C 09 03 09 00 3E  80 01 91 0B 02 08 00 3F  .......>.......?
0910: 80 80 1C 09 03 09 00 40  80 01 91 0B 02 08 00 41  .......@.......A
0920: 80 80 2C 09 03 09 00 42  80 01 91 0B 02 08 00 43  ..,....B.......C
0930: 80 80 3C 09 03 09 00 44  80 01 91 0B 02 08 00 45  ..<....D.......E
0940: 80 80 4C 09 03 09 00 46  80 01 91 0B 02 08 00 47  ..L....F.......G
0950: 80 80 5C 09 03 09 00 48  80 01 91 0B 02 08 00 49  ..\....H.......I
0960: 80 80 6C 09 03 09 00 4A  80 01 91 0B 02 08 00 4B  ..l....J.......K
0970: 80 80 7C 09 03 09 00 4C  80 01 91 0B 02 08 00 4D  ..|....L.......M
0980: 80 80 8C 09 03 09 00 4E  80 01 91 0B 02 08 00 15  .......N........
0990: 80 80 9C 09 03 09 00 4F  80 01 91 0B 02 08 00 50  .......O.......P
09A0: 80 80 AC 09 03 09 00 51  80 01 91 0B 02 08 00 52  .......Q.......R
09B0: 80 80 BC 09 03 09 00 53  80 01 91 0B 02 08 00 54  .......S.......T
09C0: 80 80 CC 09 03 09 00 55  80 01 91 0B 02 08 00 56  .......U.......V
09D0: 80 80 DC 09 03 09 00 57  80 01 91 0B 02 08 00 58  .......W.......X
09E0: 80 80 EC 09 03 09 00 59  80 01 91 0B 02 08 00 5A  .......Y.......Z
09F0: 80 80 FC 09 03 09 00 5B  80 01 91 0B 02 08 00 5C  .......[.......\
0A00: 80 80 0C 0A 03 09 00 5D  80 01 91 0B 02 08 00 5E  .......].......^
0A10: 80 80 1C 0A 03 09 00 5F  80 01 91 0B 02 08 00 60  ......._.......`
0A20: 80 80 2C 0A 03 09 00 61  80 01 91 0B 02 08 00 62  ..,....a.......b
0A30: 80 80 3C 0A 03 09 00 63  80 01 91 0B 02 08 00 64  ..<....c.......d
0A40: 80 80 4C 0A 03 09 00 65  80 01 91 0B 02 08 00 66  ..L....e.......f
0A50: 80 80 5C 0A 03 09 00 67  80 01 91 0B 02 08 00 68  ..\....g.......h
0A60: 80 80 6C 0A 03 09 00 69  80 01 91 0B 02 08 00 6A  ..l....i.......j
0A70: 80 80 7C 0A 03 09 00 6B  80 01 91 0B 02 08 00 6C  ..|....k.......l
0A80: 80 80 8C 0A 03 09 00 6D  80 01 91 0B 02 08 00 6E  .......m.......n
0A90: 80 80 9C 0A 03 09 00 6F  80 01 91 0B 02 08 00 70  .......o.......p
0AA0: 80 80 AC 0A 03 09 00 71  80 01 91 0B 02 08 00 72  .......q.......r
0AB0: 80 80 BC 0A 03 09 00 73  80 01 91 0B 02 08 00 74  .......s.......t
0AC0: 80 80 CC 0A 03 09 00 75  80 01 91 0B 02 08 00 14  .......u........
0AD0: 80 80 DC 0A 03 09 00 00  80 01 91 0B 02 08 00 76  ...............v
0AE0: 80 80 EC 0A 03 09 00 00  80 01 91 0B 02 08 00 77  ...............w
0AF0: 80 80 FC 0A 03 09 00 00  80 01 91 0B 02 08 00 78  ...............x
0B00: 80 80 0C 0B 03 09 00 00  80 01 91 0B 02 08 00 79  ...............y
0B10: 80 80 1C 0B 03 09 00 00  80 01 91 0B 02 08 00 7A  ...............z
0B20: 80 80 2C 0B 03 09 00 00  80 01 91 0B 02 08 00 7B  ..,............{
0B30: 80 80 3C 0B 03 09 00 00  80 01 91 0B 02 08 00 7C  ..<............|
0B40: 80 80 4C 0B 03 09 00 00  80 01 91 0B 02 08 00 06  ..L.............
0B50: 80 80 5C 0B 03 09 00 00  80 01 91 0B 02 08 00 7D  ..\............}
0B60: 80 80 6C 0B 03 09 00 00  80 01 91 0B 02 08 00 7E  ..l............~
0B70: 80 80 7C 0B 03 09 00 00  80 01 91 0B 02 08 00 7F  ..|.............
0B80: 80 80 8C 0B 03 09 00 00  80 01 91 0B 03 09 00 00  ................
0B90: 80 03 02 10 09 00 03 03  10 82 80 1D 83 80 23 24  ..............#$
0BA0: 84 80 05 80 00 80 25 02  00 10 00 80 00 D9 0B 42  ......%........B
0BB0: 40 2F 80 4D 80 01 10 08  00 43 00 43 01 03 00 00  @/.M.....C.C....
0BC0: 02 10 03 01 00 03 10 02  05 10 00 80 00 D6 0B 1D  ................
0BD0: 85 80 23 01 58 0F 01 D9  0B 01 FF 00 01 58 0F 02  ..#.X........X..
0BE0: 00 10 18 80 00 31 0C 1D  86 80 23 02 18 00 00 80  .....1....#.....
0BF0: 00 FA 0B 1D 87 80 23 01  C1 00 24 88 80 05 80 00  ......#...$.....
0C00: 80 25 02 00 10 00 80 00  20 0C 42 73 89 80 F8 FF  .%...... .Bs....
0C10: FF 7F F0 FF FF 7F 1D 8A  80 23 1C 8B 80 01 2E 0C  .........#......
0C20: 02 00 10 05 80 00 2E 0C  01 C1 00 01 2E 0C 01 58  ...............X
0C30: 0F 02 00 10 0E 80 00 58  0F 1D 8C 80 23 42 8D 72  .......X....#B.r
0C40: 80 05 80 02 16 00 00 80  80 E4 0C 8B 72 80 00 80  ............r...
0C50: 8D 80 8E 80 31 00 00 00  00 00 00 00 00 00 00 00  ....1...........
0C60: 00 00 00 00 8B 72 80 05  80 8F 80 90 80 32 00 00  .....r.......2..
0C70: 00 00 00 00 00 00 00 00  00 00 00 00 00 8B 72 80  ..............r.
0C80: 18 80 91 80 92 80 33 00  00 00 00 00 00 00 00 00  ......3.........
0C90: 00 00 00 00 00 00 8B 72  80 0E 80 93 80 94 80 34  .......r.......4
0CA0: 00 00 00 00 00 00 00 00  00 00 00 00 00 00 00 8B  ................
0CB0: 72 80 1B 80 95 80 96 80  35 00 00 00 00 00 00 00  r.......5.......
0CC0: 00 00 00 00 00 00 00 00  8B 72 80 1D 80 97 80 98  .........r......
0CD0: 80 36 00 00 00 00 00 00  00 00 00 00 00 00 00 00  .6..............
0CE0: 00 01 C7 0E 02 16 00 05  80 80 85 0D 8B 72 80 00  .............r..
0CF0: 80 8D 80 99 80 31 00 00  00 00 00 00 00 00 00 00  .....1..........
0D00: 00 00 00 00 00 8B 72 80  05 80 9A 80 9B 80 32 00  ......r.......2.
0D10: 00 00 00 00 00 00 00 00  00 00 00 00 00 00 8B 72  ...............r
0D20: 80 18 80 91 80 92 80 33  00 00 00 00 00 00 00 00  .......3........
0D30: 00 00 00 00 00 00 00 8B  72 80 0E 80 9C 80 94 80  ........r.......
0D40: 34 00 00 00 00 00 00 00  00 00 00 00 00 00 00 00  4...............
0D50: 8B 72 80 1B 80 9D 80 9E  80 35 00 00 00 00 00 00  .r.......5......
0D60: 00 00 00 00 00 00 00 00  00 8B 72 80 1D 80 9F 80  ..........r.....
0D70: A0 80 36 00 00 00 00 00  00 00 00 00 00 00 00 00  ..6.............
0D80: 00 00 01 C7 0E 02 16 00  18 80 80 26 0E 8B 72 80  ...........&..r.
0D90: 00 80 8D 80 A1 80 31 00  00 00 00 00 00 00 00 00  ......1.........
0DA0: 00 00 00 00 00 00 8B 72  80 05 80 A2 80 A3 80 32  .......r.......2
0DB0: 00 00 00 00 00 00 00 00  00 00 00 00 00 00 00 8B  ................
0DC0: 72 80 18 80 91 80 A4 80  33 00 00 00 00 00 00 00  r.......3.......
0DD0: 00 00 00 00 00 00 00 00  8B 72 80 0E 80 9C 80 A5  .........r......
0DE0: 80 34 00 00 00 00 00 00  00 00 00 00 00 00 00 00  .4..............
0DF0: 00 8B 72 80 1B 80 A6 80  A7 80 35 00 00 00 00 00  ..r.......5.....
0E00: 00 00 00 00 00 00 00 00  00 00 8B 72 80 1D 80 A8  ...........r....
0E10: 80 A9 80 36 00 00 00 00  00 00 00 00 00 00 00 00  ...6............
0E20: 00 00 00 01 C7 0E 02 16  00 0E 80 80 C7 0E 8B 72  ...............r
0E30: 80 00 80 8D 80 AA 80 31  00 00 00 00 00 00 00 00  .......1........
0E40: 00 00 00 00 00 00 00 8B  72 80 05 80 AB 80 AC 80  ........r.......
0E50: 32 00 00 00 00 00 00 00  00 00 00 00 00 00 00 00  2...............
0E60: 8B 72 80 18 80 91 80 AD  80 33 00 00 00 00 00 00  .r.......3......
0E70: 00 00 00 00 00 00 00 00  00 8B 72 80 0E 80 93 80  ..........r.....
0E80: AE 80 34 00 00 00 00 00  00 00 00 00 00 00 00 00  ..4.............
0E90: 00 00 8B 72 80 1B 80 AF  80 B0 80 35 00 00 00 00  ...r.......5....
0EA0: 00 00 00 00 00 00 00 00  00 00 00 8B 72 80 1D 80  ............r...
0EB0: B1 80 B2 80 36 00 00 00  00 00 00 00 00 00 00 00  ....6...........
0EC0: 00 00 00 00 01 C7 0E 03  02 10 09 00 1D B3 80 23  ...............#
0ED0: 8A A8 00 72 80 00 80 A8  00 72 80 05 80 A8 00 72  ...r.....r.....r
0EE0: 80 18 80 A8 00 72 80 0E  80 A8 00 72 80 1B 80 A8  .....r.....r....
0EF0: 00 72 80 1D 80 03 0D 00  02 00 0B 0D 00 2E 24 B4  .r............$.
0F00: 80 0D 00 00 80 25 02 00  10 00 80 00 14 0F 01 C1  .....%..........
0F10: 00 01 55 0F 03 0D 00 00  10 03 09 00 00 10 0C 09  ..U.............
0F20: 00 40 2F 80 4D 80 01 10  09 00 03 00 17 00 10 24  .@/.M..........$
0F30: B5 80 05 80 00 80 25 02  00 10 00 80 00 47 0F 42  ......%......G.B
0F40: 43 00 43 01 01 55 0F 02  00 10 05 80 00 55 0F 01  C.C..U.......U..
0F50: FD 0E 01 55 0F 01 58 0F  21 00                    ...U..X.!.      
```

#### Opcodes

```
  0: 0x00A0 [0x03] ExtData[1]->WorkLocal[0] = Work_Zone[2]
  1: 0x00A5 [0x03] ExtData[1]->WorkLocal[1] = Work_Zone[3]
  2: 0x00AA [0x03] ExtData[1]->WorkLocal[2] = Work_Zone[4]
  3: 0x00AF [0x03] ExtData[1]->WorkLocal[23] = Work_Zone[5]
  4: 0x00B4 [0x03] ExtData[1]->WorkLocal[24] = Work_Zone[6]
  5: 0x00B9 [0x1E] EventEntity looks at LocalPlayer and starts talking
  6: 0x00BE [0x06] ExtData[1]->WorkLocal[12] = 0
  7: 0x00C1 [0x2E] SET_CLI_EVENT_CANCEL_FLAGS()
  8: 0x00C2 [0x06] ExtData[1]->WorkLocal[11] = 0
  9: 0x00C5 [0x02] IF !(ExtData[1]->WorkLocal[23] == 1*) GOTO 0x00DB
 10: 0x00CD [0x3C] SET_BIT_FLAG_CONDITIONAL(target_work_offset=ExtData[1]->WorkLocal[0], bit_index_work_offset=0*, condition_work_offset=1*)
 11: 0x00D4 [0x3C] SET_BIT_FLAG_CONDITIONAL(target_work_offset=ExtData[1]->WorkLocal[11], bit_index_work_offset=3*, condition_work_offset=1*)
 12: 0x00DB [0x24] CREATE_DIALOG(message_id=9740*, default_option=ExtData[1]->WorkLocal[12], option_flags=ExtData[1]->WorkLocal[11])
    → "How may I help you? [I'm fine./I need more party items./Digestive magic./Attendant location.]"
 13: 0x00E2 [0x25] WAIT_DIALOG_SELECT()
 14: 0x00E3 [0x03] ExtData[1]->WorkLocal[12] = Work_Zone[0]
 15: 0x00E8 [0x40] SET_BIT_WORK_RANGE(start_bit=0*, end_bit=15*, target=Work_Zone[1], source=Work_Zone[0])
 16: 0x00F1 [0x02] IF !(Work_Zone[0] == 1*) GOTO 0x0BDF
 17: 0x00F9 [0x06] ExtData[1]->WorkLocal[3] = 0
 18: 0x00FC [0x06] ExtData[1]->WorkLocal[13] = 0
 19: 0x00FF [0x2E] SET_CLI_EVENT_CANCEL_FLAGS()
 20: 0x0100 [0x02] IF !(ExtData[1]->WorkLocal[23] == 1*) GOTO 0x010F
 21: 0x0108 [0x3C] SET_BIT_FLAG_CONDITIONAL(target_work_offset=ExtData[1]->WorkLocal[0], bit_index_work_offset=0*, condition_work_offset=1*)
 22: 0x010F [0x03] ExtData[1]->WorkLocal[4] = ExtData[1]->WorkLocal[3]
 23: 0x0114 [0x14] ExtData[1]->WorkLocal[4] *= 8*
 24: 0x0119 [0x03] ExtData[1]->WorkLocal[5] = ExtData[1]->WorkLocal[4]
 25: 0x011E [0x07] ExtData[1]->WorkLocal[5] += 7*
 26: 0x0123 [0x06] ExtData[1]->WorkLocal[8] = 0
 27: 0x0126 [0x06] ExtData[1]->WorkLocal[6] = 0
 28: 0x0129 [0x06] ExtData[1]->WorkLocal[7] = 0
 29: 0x012C [0x03] ExtData[1]->WorkLocal[11] = 1020*
 30: 0x0131 [0x06] Work_Zone[2] = 0
 31: 0x0134 [0x06] Work_Zone[3] = 0
 32: 0x0137 [0x06] Work_Zone[4] = 0
 33: 0x013A [0x06] Work_Zone[5] = 0
 34: 0x013D [0x06] Work_Zone[6] = 0
 35: 0x0140 [0x06] Work_Zone[7] = 0
 36: 0x0143 [0x06] Work_Zone[8] = 0
 37: 0x0146 [0x06] Work_Zone[9] = 0
 38: 0x0149 [0x02] IF !(ExtData[1]->WorkLocal[8] >= 52*) GOTO 0x0680
 39: 0x0151 [0x02] IF !(ExtData[1]->WorkLocal[8] < 32*) GOTO 0x016B
 40: 0x0159 [0x03] ExtData[1]->WorkLocal[9] = ExtData[1]->WorkLocal[1]
 41: 0x015E [0x03] ExtData[1]->WorkLocal[10] = ExtData[1]->WorkLocal[8]
 42: 0x0163 [0x08] ExtData[1]->WorkLocal[10] -= 32*
 43: 0x0168 [0x01] GOTO 0x0175
 44: 0x016B [0x03] ExtData[1]->WorkLocal[9] = ExtData[1]->WorkLocal[0]
 45: 0x0170 [0x03] ExtData[1]->WorkLocal[10] = ExtData[1]->WorkLocal[8]

SUBROUTINE_0175:
 46: 0x0175 [0x3E] IF !(ExtData[1]->WorkLocal[9] bit ExtData[1]->WorkLocal[10]) GOTO 0x017F
 47: 0x017C [0x01] GOTO 0x067A
 48: 0x017F [0x02] IF !(ExtData[1]->WorkLocal[6] < ExtData[1]->WorkLocal[4]) GOTO 0x0677
 49: 0x0187 [0x02] IF !(ExtData[1]->WorkLocal[6] > ExtData[1]->WorkLocal[5]) GOTO 0x0677
 50: 0x018F [0x02] IF !(ExtData[1]->WorkLocal[8] == 0*) GOTO 0x019F
 51: 0x0197 [0x03] ExtData[1]->WorkLocal[9] = 4170*
 52: 0x019C [0x01] GOTO 0x0594
 53: 0x019F [0x02] IF !(ExtData[1]->WorkLocal[8] == 1*) GOTO 0x01AF
 54: 0x01A7 [0x03] ExtData[1]->WorkLocal[9] = 4167*
 55: 0x01AC [0x01] GOTO 0x0594
 56: 0x01AF [0x02] IF !(ExtData[1]->WorkLocal[8] == 2*) GOTO 0x01BF
 57: 0x01B7 [0x03] ExtData[1]->WorkLocal[9] = 4168*
 58: 0x01BC [0x01] GOTO 0x0594
 59: 0x01BF [0x02] IF !(ExtData[1]->WorkLocal[8] == 3*) GOTO 0x01CF
 60: 0x01C7 [0x03] ExtData[1]->WorkLocal[9] = 4169*
 61: 0x01CC [0x01] GOTO 0x0594
 62: 0x01CF [0x02] IF !(ExtData[1]->WorkLocal[8] == 4*) GOTO 0x01DF
 63: 0x01D7 [0x03] ExtData[1]->WorkLocal[9] = 4183*
 64: 0x01DC [0x01] GOTO 0x0594
 65: 0x01DF [0x02] IF !(ExtData[1]->WorkLocal[8] == 5*) GOTO 0x01EF
 66: 0x01E7 [0x03] ExtData[1]->WorkLocal[9] = 4184*
 67: 0x01EC [0x01] GOTO 0x0594
 68: 0x01EF [0x02] IF !(ExtData[1]->WorkLocal[8] == 6*) GOTO 0x01FF
 69: 0x01F7 [0x03] ExtData[1]->WorkLocal[9] = 4185*
 70: 0x01FC [0x01] GOTO 0x0594
 71: 0x01FF [0x02] IF !(ExtData[1]->WorkLocal[8] == 7*) GOTO 0x020F
 72: 0x0207 [0x03] ExtData[1]->WorkLocal[9] = 4186*
 73: 0x020C [0x01] GOTO 0x0594
 74: 0x020F [0x02] IF !(ExtData[1]->WorkLocal[8] == 8*) GOTO 0x021F
 75: 0x0217 [0x03] ExtData[1]->WorkLocal[9] = 4215*
 76: 0x021C [0x01] GOTO 0x0594
 77: 0x021F [0x02] IF !(ExtData[1]->WorkLocal[8] == 9*) GOTO 0x022F
 78: 0x0227 [0x03] ExtData[1]->WorkLocal[9] = 4216*
 79: 0x022C [0x01] GOTO 0x0594
 80: 0x022F [0x02] IF !(ExtData[1]->WorkLocal[8] == 10*) GOTO 0x023F
 81: 0x0237 [0x03] ExtData[1]->WorkLocal[9] = 4217*
 82: 0x023C [0x01] GOTO 0x0594
 83: 0x023F [0x02] IF !(ExtData[1]->WorkLocal[8] == 11*) GOTO 0x024F
 84: 0x0247 [0x03] ExtData[1]->WorkLocal[9] = 4218*
 85: 0x024C [0x01] GOTO 0x0594
 86: 0x024F [0x02] IF !(ExtData[1]->WorkLocal[8] == 12*) GOTO 0x025F
 87: 0x0257 [0x03] ExtData[1]->WorkLocal[9] = 4256*
 88: 0x025C [0x01] GOTO 0x0594
 89: 0x025F [0x02] IF !(ExtData[1]->WorkLocal[8] == 13*) GOTO 0x026F
 90: 0x0267 [0x03] ExtData[1]->WorkLocal[9] = 4257*
 91: 0x026C [0x01] GOTO 0x0594
 92: 0x026F [0x02] IF !(ExtData[1]->WorkLocal[8] == 14*) GOTO 0x027F
 93: 0x0277 [0x03] ExtData[1]->WorkLocal[9] = 5294*
 94: 0x027C [0x01] GOTO 0x0594
 95: 0x027F [0x02] IF !(ExtData[1]->WorkLocal[8] == 15*) GOTO 0x028F
 96: 0x0287 [0x03] ExtData[1]->WorkLocal[9] = 5295*
 97: 0x028C [0x01] GOTO 0x0594
 98: 0x028F [0x02] IF !(ExtData[1]->WorkLocal[8] == 16*) GOTO 0x029F
 99: 0x0297 [0x03] ExtData[1]->WorkLocal[9] = 5296*
100: 0x029C [0x01] GOTO 0x0594
101: 0x029F [0x02] IF !(ExtData[1]->WorkLocal[8] == 17*) GOTO 0x02AF
102: 0x02A7 [0x03] ExtData[1]->WorkLocal[9] = 5297*
103: 0x02AC [0x01] GOTO 0x0594
104: 0x02AF [0x02] IF !(ExtData[1]->WorkLocal[8] == 18*) GOTO 0x02BF
105: 0x02B7 [0x03] ExtData[1]->WorkLocal[9] = 5203*
106: 0x02BC [0x01] GOTO 0x0594
107: 0x02BF [0x02] IF !(ExtData[1]->WorkLocal[8] == 19*) GOTO 0x02CF
108: 0x02C7 [0x03] ExtData[1]->WorkLocal[9] = 5204*
109: 0x02CC [0x01] GOTO 0x0594
110: 0x02CF [0x02] IF !(ExtData[1]->WorkLocal[8] == 20*) GOTO 0x02DF
111: 0x02D7 [0x03] ExtData[1]->WorkLocal[9] = 5205*
112: 0x02DC [0x01] GOTO 0x0594
113: 0x02DF [0x02] IF !(ExtData[1]->WorkLocal[8] == 21*) GOTO 0x02EF
114: 0x02E7 [0x03] ExtData[1]->WorkLocal[9] = 5206*
115: 0x02EC [0x01] GOTO 0x0594
116: 0x02EF [0x02] IF !(ExtData[1]->WorkLocal[8] == 22*) GOTO 0x02FF
117: 0x02F7 [0x03] ExtData[1]->WorkLocal[9] = 4296*
118: 0x02FC [0x01] GOTO 0x0594
119: 0x02FF [0x02] IF !(ExtData[1]->WorkLocal[8] == 23*) GOTO 0x030F
120: 0x0307 [0x03] ExtData[1]->WorkLocal[9] = 4297*
121: 0x030C [0x01] GOTO 0x0594
122: 0x030F [0x02] IF !(ExtData[1]->WorkLocal[8] == 24*) GOTO 0x031F
123: 0x0317 [0x03] ExtData[1]->WorkLocal[9] = 4298*
124: 0x031C [0x01] GOTO 0x0594
125: 0x031F [0x02] IF !(ExtData[1]->WorkLocal[8] == 25*) GOTO 0x032F
126: 0x0327 [0x03] ExtData[1]->WorkLocal[9] = 5239*
127: 0x032C [0x01] GOTO 0x0594
128: 0x032F [0x02] IF !(ExtData[1]->WorkLocal[8] == 26*) GOTO 0x033F
129: 0x0337 [0x03] ExtData[1]->WorkLocal[9] = 5545*
130: 0x033C [0x01] GOTO 0x0594
131: 0x033F [0x02] IF !(ExtData[1]->WorkLocal[8] == 27*) GOTO 0x034F
132: 0x0347 [0x03] ExtData[1]->WorkLocal[9] = 5548*
133: 0x034C [0x01] GOTO 0x0594
134: 0x034F [0x02] IF !(ExtData[1]->WorkLocal[8] == 28*) GOTO 0x035F
135: 0x0357 [0x03] ExtData[1]->WorkLocal[9] = 5543*
136: 0x035C [0x01] GOTO 0x0594
137: 0x035F [0x02] IF !(ExtData[1]->WorkLocal[8] == 29*) GOTO 0x036F
138: 0x0367 [0x03] ExtData[1]->WorkLocal[9] = 5551*
139: 0x036C [0x01] GOTO 0x0594
140: 0x036F [0x02] IF !(ExtData[1]->WorkLocal[8] == 30*) GOTO 0x037F
141: 0x0377 [0x03] ExtData[1]->WorkLocal[9] = 5553*
142: 0x037C [0x01] GOTO 0x0594
143: 0x037F [0x02] IF !(ExtData[1]->WorkLocal[8] == 31*) GOTO 0x038F
144: 0x0387 [0x03] ExtData[1]->WorkLocal[9] = 5560*
145: 0x038C [0x01] GOTO 0x0594
146: 0x038F [0x02] IF !(ExtData[1]->WorkLocal[8] == 32*) GOTO 0x039F
147: 0x0397 [0x03] ExtData[1]->WorkLocal[9] = 4299*
148: 0x039C [0x01] GOTO 0x0594
149: 0x039F [0x02] IF !(ExtData[1]->WorkLocal[8] == 33*) GOTO 0x03AF
150: 0x03A7 [0x03] ExtData[1]->WorkLocal[9] = 4300*
151: 0x03AC [0x01] GOTO 0x0594
152: 0x03AF [0x02] IF !(ExtData[1]->WorkLocal[8] == 34*) GOTO 0x03BF
153: 0x03B7 [0x03] ExtData[1]->WorkLocal[9] = 4301*
154: 0x03BC [0x01] GOTO 0x0594
155: 0x03BF [0x02] IF !(ExtData[1]->WorkLocal[8] == 35*) GOTO 0x03CF
156: 0x03C7 [0x03] ExtData[1]->WorkLocal[9] = 4302*
157: 0x03CC [0x01] GOTO 0x0594
158: 0x03CF [0x02] IF !(ExtData[1]->WorkLocal[8] == 36*) GOTO 0x03DF
159: 0x03D7 [0x03] ExtData[1]->WorkLocal[9] = 4303*
160: 0x03DC [0x01] GOTO 0x0594
161: 0x03DF [0x02] IF !(ExtData[1]->WorkLocal[8] == 37*) GOTO 0x03EF
162: 0x03E7 [0x03] ExtData[1]->WorkLocal[9] = 4422*
163: 0x03EC [0x01] GOTO 0x0594
164: 0x03EF [0x02] IF !(ExtData[1]->WorkLocal[8] == 38*) GOTO 0x03FF
165: 0x03F7 [0x03] ExtData[1]->WorkLocal[9] = 4423*
166: 0x03FC [0x01] GOTO 0x0594
167: 0x03FF [0x02] IF !(ExtData[1]->WorkLocal[8] == 39*) GOTO 0x040F
168: 0x0407 [0x03] ExtData[1]->WorkLocal[9] = 4424*
169: 0x040C [0x01] GOTO 0x0594
170: 0x040F [0x02] IF !(ExtData[1]->WorkLocal[8] == 40*) GOTO 0x041F
171: 0x0417 [0x03] ExtData[1]->WorkLocal[9] = 4425*
172: 0x041C [0x01] GOTO 0x0594
173: 0x041F [0x02] IF !(ExtData[1]->WorkLocal[8] == 41*) GOTO 0x042F
174: 0x0427 [0x03] ExtData[1]->WorkLocal[9] = 4441*
175: 0x042C [0x01] GOTO 0x0594
176: 0x042F [0x02] IF !(ExtData[1]->WorkLocal[8] == 42*) GOTO 0x043F
177: 0x0437 [0x03] ExtData[1]->WorkLocal[9] = 4442*
178: 0x043C [0x01] GOTO 0x0594
179: 0x043F [0x02] IF !(ExtData[1]->WorkLocal[8] == 43*) GOTO 0x044F
180: 0x0447 [0x03] ExtData[1]->WorkLocal[9] = 4512*
181: 0x044C [0x01] GOTO 0x0594
182: 0x044F [0x02] IF !(ExtData[1]->WorkLocal[8] == 44*) GOTO 0x045F
183: 0x0457 [0x03] ExtData[1]->WorkLocal[9] = 4283*
184: 0x045C [0x01] GOTO 0x0594
185: 0x045F [0x02] IF !(ExtData[1]->WorkLocal[8] == 45*) GOTO 0x046F
186: 0x0467 [0x03] ExtData[1]->WorkLocal[9] = 4286*
187: 0x046C [0x01] GOTO 0x0594
188: 0x046F [0x02] IF !(ExtData[1]->WorkLocal[8] == 46*) GOTO 0x047F
189: 0x0477 [0x03] ExtData[1]->WorkLocal[9] = 4493*
190: 0x047C [0x01] GOTO 0x0594
191: 0x047F [0x02] IF !(ExtData[1]->WorkLocal[8] == 47*) GOTO 0x048F
192: 0x0487 [0x03] ExtData[1]->WorkLocal[9] = 4498*
193: 0x048C [0x01] GOTO 0x0594
194: 0x048F [0x02] IF !(ExtData[1]->WorkLocal[8] == 48*) GOTO 0x049F
195: 0x0497 [0x03] ExtData[1]->WorkLocal[9] = 4524*
196: 0x049C [0x01] GOTO 0x0594
197: 0x049F [0x02] IF !(ExtData[1]->WorkLocal[8] == 49*) GOTO 0x04AF
198: 0x04A7 [0x03] ExtData[1]->WorkLocal[9] = 4541*
199: 0x04AC [0x01] GOTO 0x0594
200: 0x04AF [0x02] IF !(ExtData[1]->WorkLocal[8] == 50*) GOTO 0x04BF
201: 0x04B7 [0x03] ExtData[1]->WorkLocal[9] = 4558*
202: 0x04BC [0x01] GOTO 0x0594
203: 0x04BF [0x02] IF !(ExtData[1]->WorkLocal[8] == 51*) GOTO 0x04CF
204: 0x04C7 [0x03] ExtData[1]->WorkLocal[9] = 5221*
205: 0x04CC [0x01] GOTO 0x0594
206: 0x04CF [0x02] IF !(ExtData[1]->WorkLocal[8] == 52*) GOTO 0x04DF
207: 0x04D7 [0x03] ExtData[1]->WorkLocal[9] = 0*
208: 0x04DC [0x01] GOTO 0x0594
209: 0x04DF [0x02] IF !(ExtData[1]->WorkLocal[8] == 53*) GOTO 0x04EF
210: 0x04E7 [0x03] ExtData[1]->WorkLocal[9] = 0*
211: 0x04EC [0x01] GOTO 0x0594
212: 0x04EF [0x02] IF !(ExtData[1]->WorkLocal[8] == 54*) GOTO 0x04FF
213: 0x04F7 [0x03] ExtData[1]->WorkLocal[9] = 0*
214: 0x04FC [0x01] GOTO 0x0594
215: 0x04FF [0x02] IF !(ExtData[1]->WorkLocal[8] == 55*) GOTO 0x050F
216: 0x0507 [0x03] ExtData[1]->WorkLocal[9] = 0*
217: 0x050C [0x01] GOTO 0x0594
218: 0x050F [0x02] IF !(ExtData[1]->WorkLocal[8] == 56*) GOTO 0x051F
219: 0x0517 [0x03] ExtData[1]->WorkLocal[9] = 0*
220: 0x051C [0x01] GOTO 0x0594
221: 0x051F [0x02] IF !(ExtData[1]->WorkLocal[8] == 57*) GOTO 0x052F
222: 0x0527 [0x03] ExtData[1]->WorkLocal[9] = 0*
223: 0x052C [0x01] GOTO 0x0594
224: 0x052F [0x02] IF !(ExtData[1]->WorkLocal[8] == 58*) GOTO 0x053F
225: 0x0537 [0x03] ExtData[1]->WorkLocal[9] = 0*
226: 0x053C [0x01] GOTO 0x0594
227: 0x053F [0x02] IF !(ExtData[1]->WorkLocal[8] == 59*) GOTO 0x054F
228: 0x0547 [0x03] ExtData[1]->WorkLocal[9] = 0*
229: 0x054C [0x01] GOTO 0x0594
230: 0x054F [0x02] IF !(ExtData[1]->WorkLocal[8] == 60*) GOTO 0x055F
231: 0x0557 [0x03] ExtData[1]->WorkLocal[9] = 0*
232: 0x055C [0x01] GOTO 0x0594
233: 0x055F [0x02] IF !(ExtData[1]->WorkLocal[8] == 61*) GOTO 0x056F
234: 0x0567 [0x03] ExtData[1]->WorkLocal[9] = 0*
235: 0x056C [0x01] GOTO 0x0594
236: 0x056F [0x02] IF !(ExtData[1]->WorkLocal[8] == 62*) GOTO 0x057F
237: 0x0577 [0x03] ExtData[1]->WorkLocal[9] = 0*
238: 0x057C [0x01] GOTO 0x0594
239: 0x057F [0x02] IF !(ExtData[1]->WorkLocal[8] == 63*) GOTO 0x058F
240: 0x0587 [0x03] ExtData[1]->WorkLocal[9] = 0*
241: 0x058C [0x01] GOTO 0x0594
242: 0x058F [0x03] ExtData[1]->WorkLocal[9] = 0*

SUBROUTINE_0594:
243: 0x0594 [0x02] IF !(ExtData[1]->WorkLocal[7] == 0*) GOTO 0x05B0
244: 0x059C [0x03] Work_Zone[2] = ExtData[1]->WorkLocal[9]
245: 0x05A1 [0x3D] CLEAR_BIT_FLAG_CONDITIONAL(target_work_offset=ExtData[1]->WorkLocal[11], bit_index_work_offset=2*, condition_work_offset=1*)
246: 0x05A8 [0x03] ExtData[1]->WorkLocal[14] = ExtData[1]->WorkLocal[8]
247: 0x05AD [0x01] GOTO 0x0674
248: 0x05B0 [0x02] IF !(ExtData[1]->WorkLocal[7] == 1*) GOTO 0x05CC
249: 0x05B8 [0x03] Work_Zone[3] = ExtData[1]->WorkLocal[9]
250: 0x05BD [0x3D] CLEAR_BIT_FLAG_CONDITIONAL(target_work_offset=ExtData[1]->WorkLocal[11], bit_index_work_offset=3*, condition_work_offset=1*)
251: 0x05C4 [0x03] ExtData[1]->WorkLocal[15] = ExtData[1]->WorkLocal[8]
252: 0x05C9 [0x01] GOTO 0x0674
253: 0x05CC [0x02] IF !(ExtData[1]->WorkLocal[7] == 2*) GOTO 0x05E8
254: 0x05D4 [0x03] Work_Zone[4] = ExtData[1]->WorkLocal[9]
255: 0x05D9 [0x3D] CLEAR_BIT_FLAG_CONDITIONAL(target_work_offset=ExtData[1]->WorkLocal[11], bit_index_work_offset=4*, condition_work_offset=1*)
256: 0x05E0 [0x03] ExtData[1]->WorkLocal[16] = ExtData[1]->WorkLocal[8]
257: 0x05E5 [0x01] GOTO 0x0674
258: 0x05E8 [0x02] IF !(ExtData[1]->WorkLocal[7] == 3*) GOTO 0x0604
259: 0x05F0 [0x03] Work_Zone[5] = ExtData[1]->WorkLocal[9]
260: 0x05F5 [0x3D] CLEAR_BIT_FLAG_CONDITIONAL(target_work_offset=ExtData[1]->WorkLocal[11], bit_index_work_offset=5*, condition_work_offset=1*)
261: 0x05FC [0x03] ExtData[1]->WorkLocal[17] = ExtData[1]->WorkLocal[8]
262: 0x0601 [0x01] GOTO 0x0674
263: 0x0604 [0x02] IF !(ExtData[1]->WorkLocal[7] == 4*) GOTO 0x0620
264: 0x060C [0x03] Work_Zone[6] = ExtData[1]->WorkLocal[9]
265: 0x0611 [0x3D] CLEAR_BIT_FLAG_CONDITIONAL(target_work_offset=ExtData[1]->WorkLocal[11], bit_index_work_offset=6*, condition_work_offset=1*)
266: 0x0618 [0x03] ExtData[1]->WorkLocal[18] = ExtData[1]->WorkLocal[8]
267: 0x061D [0x01] GOTO 0x0674
268: 0x0620 [0x02] IF !(ExtData[1]->WorkLocal[7] == 5*) GOTO 0x063C
269: 0x0628 [0x03] Work_Zone[7] = ExtData[1]->WorkLocal[9]
270: 0x062D [0x3D] CLEAR_BIT_FLAG_CONDITIONAL(target_work_offset=ExtData[1]->WorkLocal[11], bit_index_work_offset=7*, condition_work_offset=1*)
271: 0x0634 [0x03] ExtData[1]->WorkLocal[19] = ExtData[1]->WorkLocal[8]
272: 0x0639 [0x01] GOTO 0x0674
273: 0x063C [0x02] IF !(ExtData[1]->WorkLocal[7] == 6*) GOTO 0x0658
274: 0x0644 [0x03] Work_Zone[8] = ExtData[1]->WorkLocal[9]
275: 0x0649 [0x3D] CLEAR_BIT_FLAG_CONDITIONAL(target_work_offset=ExtData[1]->WorkLocal[11], bit_index_work_offset=8*, condition_work_offset=1*)
276: 0x0650 [0x03] ExtData[1]->WorkLocal[20] = ExtData[1]->WorkLocal[8]
277: 0x0655 [0x01] GOTO 0x0674
278: 0x0658 [0x02] IF !(ExtData[1]->WorkLocal[7] == 7*) GOTO 0x0674
279: 0x0660 [0x03] Work_Zone[9] = ExtData[1]->WorkLocal[9]
280: 0x0665 [0x3D] CLEAR_BIT_FLAG_CONDITIONAL(target_work_offset=ExtData[1]->WorkLocal[11], bit_index_work_offset=9*, condition_work_offset=1*)
281: 0x066C [0x03] ExtData[1]->WorkLocal[21] = ExtData[1]->WorkLocal[8]
282: 0x0671 [0x01] GOTO 0x0674

SUBROUTINE_0674:
283: 0x0674 [0x0B] ExtData[1]->WorkLocal[7]++
284: 0x0677 [0x0B] ExtData[1]->WorkLocal[6]++

SUBROUTINE_067A:
285: 0x067A [0x0B] ExtData[1]->WorkLocal[8]++
286: 0x067D [0x01] GOTO 0x0149
287: 0x0680 [0x02] IF !(ExtData[1]->WorkLocal[7] == 0*) GOTO 0x06A5
288: 0x0688 [0x02] IF !(ExtData[1]->WorkLocal[3] == 0*) GOTO 0x069A
289: 0x0690 [0x1D] PRINT_EVENT_MESSAGE(message_id=9741*)
    → "I'm terribly sorry, but there are no items available to you at this time."
290: 0x0693 [0x23] WAIT_FOR_DIALOG_INTERACTION
291: 0x0694 [0x01] GOTO 0x00C1

SUBROUTINE_06A5:
292: 0x06A5 [0x02] IF !(ExtData[1]->WorkLocal[3] == 0*) GOTO 0x06B4
293: 0x06AD [0x3C] SET_BIT_FLAG_CONDITIONAL(target_work_offset=ExtData[1]->WorkLocal[11], bit_index_work_offset=1*, condition_work_offset=1*)
294: 0x06B4 [0x03] ExtData[1]->WorkLocal[9] = ExtData[1]->WorkLocal[6]
295: 0x06B9 [0x0C] ExtData[1]->WorkLocal[9]--
296: 0x06BC [0x02] IF !(ExtData[1]->WorkLocal[9] > ExtData[1]->WorkLocal[5]) GOTO 0x06CB
297: 0x06C4 [0x3C] SET_BIT_FLAG_CONDITIONAL(target_work_offset=ExtData[1]->WorkLocal[11], bit_index_work_offset=10*, condition_work_offset=1*)
298: 0x06CB [0x24] CREATE_DIALOG(message_id=9742*, default_option=ExtData[1]->WorkLocal[13], option_flags=ExtData[1]->WorkLocal[11])
    → "Which item do you ask for? [None./Back./$0./$1./$2./$3./$4./$5./$6./$7./Next.]"
299: 0x06D2 [0x25] WAIT_DIALOG_SELECT()
300: 0x06D3 [0x03] ExtData[1]->WorkLocal[13] = Work_Zone[0]
301: 0x06D8 [0x02] IF !(Work_Zone[0] == 0*) GOTO 0x06E6
302: 0x06E0 [0x01] GOTO 0x00C1

SUBROUTINE_078C:
303: 0x078C [0x02] IF !(ExtData[1]->WorkLocal[8] == 0*) GOTO 0x079C
304: 0x0794 [0x03] ExtData[1]->WorkLocal[9] = 4170*
305: 0x0799 [0x01] GOTO 0x0B91
306: 0x079C [0x02] IF !(ExtData[1]->WorkLocal[8] == 1*) GOTO 0x07AC
307: 0x07A4 [0x03] ExtData[1]->WorkLocal[9] = 4167*
308: 0x07A9 [0x01] GOTO 0x0B91
309: 0x07AC [0x02] IF !(ExtData[1]->WorkLocal[8] == 2*) GOTO 0x07BC
310: 0x07B4 [0x03] ExtData[1]->WorkLocal[9] = 4168*
311: 0x07B9 [0x01] GOTO 0x0B91
312: 0x07BC [0x02] IF !(ExtData[1]->WorkLocal[8] == 3*) GOTO 0x07CC
313: 0x07C4 [0x03] ExtData[1]->WorkLocal[9] = 4169*
314: 0x07C9 [0x01] GOTO 0x0B91
315: 0x07CC [0x02] IF !(ExtData[1]->WorkLocal[8] == 4*) GOTO 0x07DC
316: 0x07D4 [0x03] ExtData[1]->WorkLocal[9] = 4183*
317: 0x07D9 [0x01] GOTO 0x0B91
318: 0x07DC [0x02] IF !(ExtData[1]->WorkLocal[8] == 5*) GOTO 0x07EC
319: 0x07E4 [0x03] ExtData[1]->WorkLocal[9] = 4184*
320: 0x07E9 [0x01] GOTO 0x0B91
321: 0x07EC [0x02] IF !(ExtData[1]->WorkLocal[8] == 6*) GOTO 0x07FC
322: 0x07F4 [0x03] ExtData[1]->WorkLocal[9] = 4185*
323: 0x07F9 [0x01] GOTO 0x0B91
324: 0x07FC [0x02] IF !(ExtData[1]->WorkLocal[8] == 7*) GOTO 0x080C
325: 0x0804 [0x03] ExtData[1]->WorkLocal[9] = 4186*
326: 0x0809 [0x01] GOTO 0x0B91
327: 0x080C [0x02] IF !(ExtData[1]->WorkLocal[8] == 8*) GOTO 0x081C
328: 0x0814 [0x03] ExtData[1]->WorkLocal[9] = 4215*
329: 0x0819 [0x01] GOTO 0x0B91
330: 0x081C [0x02] IF !(ExtData[1]->WorkLocal[8] == 9*) GOTO 0x082C
331: 0x0824 [0x03] ExtData[1]->WorkLocal[9] = 4216*
332: 0x0829 [0x01] GOTO 0x0B91
333: 0x082C [0x02] IF !(ExtData[1]->WorkLocal[8] == 10*) GOTO 0x083C
334: 0x0834 [0x03] ExtData[1]->WorkLocal[9] = 4217*
335: 0x0839 [0x01] GOTO 0x0B91
336: 0x083C [0x02] IF !(ExtData[1]->WorkLocal[8] == 11*) GOTO 0x084C
337: 0x0844 [0x03] ExtData[1]->WorkLocal[9] = 4218*
338: 0x0849 [0x01] GOTO 0x0B91
339: 0x084C [0x02] IF !(ExtData[1]->WorkLocal[8] == 12*) GOTO 0x085C
340: 0x0854 [0x03] ExtData[1]->WorkLocal[9] = 4256*
341: 0x0859 [0x01] GOTO 0x0B91
342: 0x085C [0x02] IF !(ExtData[1]->WorkLocal[8] == 13*) GOTO 0x086C
343: 0x0864 [0x03] ExtData[1]->WorkLocal[9] = 4257*
344: 0x0869 [0x01] GOTO 0x0B91
345: 0x086C [0x02] IF !(ExtData[1]->WorkLocal[8] == 14*) GOTO 0x087C
346: 0x0874 [0x03] ExtData[1]->WorkLocal[9] = 5294*
347: 0x0879 [0x01] GOTO 0x0B91
348: 0x087C [0x02] IF !(ExtData[1]->WorkLocal[8] == 15*) GOTO 0x088C
349: 0x0884 [0x03] ExtData[1]->WorkLocal[9] = 5295*
350: 0x0889 [0x01] GOTO 0x0B91
351: 0x088C [0x02] IF !(ExtData[1]->WorkLocal[8] == 16*) GOTO 0x089C
352: 0x0894 [0x03] ExtData[1]->WorkLocal[9] = 5296*
353: 0x0899 [0x01] GOTO 0x0B91
354: 0x089C [0x02] IF !(ExtData[1]->WorkLocal[8] == 17*) GOTO 0x08AC
355: 0x08A4 [0x03] ExtData[1]->WorkLocal[9] = 5297*
356: 0x08A9 [0x01] GOTO 0x0B91
357: 0x08AC [0x02] IF !(ExtData[1]->WorkLocal[8] == 18*) GOTO 0x08BC
358: 0x08B4 [0x03] ExtData[1]->WorkLocal[9] = 5203*
359: 0x08B9 [0x01] GOTO 0x0B91
360: 0x08BC [0x02] IF !(ExtData[1]->WorkLocal[8] == 19*) GOTO 0x08CC
361: 0x08C4 [0x03] ExtData[1]->WorkLocal[9] = 5204*
362: 0x08C9 [0x01] GOTO 0x0B91
363: 0x08CC [0x02] IF !(ExtData[1]->WorkLocal[8] == 20*) GOTO 0x08DC
364: 0x08D4 [0x03] ExtData[1]->WorkLocal[9] = 5205*
365: 0x08D9 [0x01] GOTO 0x0B91
366: 0x08DC [0x02] IF !(ExtData[1]->WorkLocal[8] == 21*) GOTO 0x08EC
367: 0x08E4 [0x03] ExtData[1]->WorkLocal[9] = 5206*
368: 0x08E9 [0x01] GOTO 0x0B91
369: 0x08EC [0x02] IF !(ExtData[1]->WorkLocal[8] == 22*) GOTO 0x08FC
370: 0x08F4 [0x03] ExtData[1]->WorkLocal[9] = 4296*
371: 0x08F9 [0x01] GOTO 0x0B91
372: 0x08FC [0x02] IF !(ExtData[1]->WorkLocal[8] == 23*) GOTO 0x090C
373: 0x0904 [0x03] ExtData[1]->WorkLocal[9] = 4297*
374: 0x0909 [0x01] GOTO 0x0B91
375: 0x090C [0x02] IF !(ExtData[1]->WorkLocal[8] == 24*) GOTO 0x091C
376: 0x0914 [0x03] ExtData[1]->WorkLocal[9] = 4298*
377: 0x0919 [0x01] GOTO 0x0B91
378: 0x091C [0x02] IF !(ExtData[1]->WorkLocal[8] == 25*) GOTO 0x092C
379: 0x0924 [0x03] ExtData[1]->WorkLocal[9] = 5239*
380: 0x0929 [0x01] GOTO 0x0B91
381: 0x092C [0x02] IF !(ExtData[1]->WorkLocal[8] == 26*) GOTO 0x093C
382: 0x0934 [0x03] ExtData[1]->WorkLocal[9] = 5545*
383: 0x0939 [0x01] GOTO 0x0B91
384: 0x093C [0x02] IF !(ExtData[1]->WorkLocal[8] == 27*) GOTO 0x094C
385: 0x0944 [0x03] ExtData[1]->WorkLocal[9] = 5548*
386: 0x0949 [0x01] GOTO 0x0B91
387: 0x094C [0x02] IF !(ExtData[1]->WorkLocal[8] == 28*) GOTO 0x095C
388: 0x0954 [0x03] ExtData[1]->WorkLocal[9] = 5543*
389: 0x0959 [0x01] GOTO 0x0B91
390: 0x095C [0x02] IF !(ExtData[1]->WorkLocal[8] == 29*) GOTO 0x096C
391: 0x0964 [0x03] ExtData[1]->WorkLocal[9] = 5551*
392: 0x0969 [0x01] GOTO 0x0B91
393: 0x096C [0x02] IF !(ExtData[1]->WorkLocal[8] == 30*) GOTO 0x097C
394: 0x0974 [0x03] ExtData[1]->WorkLocal[9] = 5553*
395: 0x0979 [0x01] GOTO 0x0B91
396: 0x097C [0x02] IF !(ExtData[1]->WorkLocal[8] == 31*) GOTO 0x098C
397: 0x0984 [0x03] ExtData[1]->WorkLocal[9] = 5560*
398: 0x0989 [0x01] GOTO 0x0B91
399: 0x098C [0x02] IF !(ExtData[1]->WorkLocal[8] == 32*) GOTO 0x099C
400: 0x0994 [0x03] ExtData[1]->WorkLocal[9] = 4299*
401: 0x0999 [0x01] GOTO 0x0B91
402: 0x099C [0x02] IF !(ExtData[1]->WorkLocal[8] == 33*) GOTO 0x09AC
403: 0x09A4 [0x03] ExtData[1]->WorkLocal[9] = 4300*
404: 0x09A9 [0x01] GOTO 0x0B91
405: 0x09AC [0x02] IF !(ExtData[1]->WorkLocal[8] == 34*) GOTO 0x09BC
406: 0x09B4 [0x03] ExtData[1]->WorkLocal[9] = 4301*
407: 0x09B9 [0x01] GOTO 0x0B91
408: 0x09BC [0x02] IF !(ExtData[1]->WorkLocal[8] == 35*) GOTO 0x09CC
409: 0x09C4 [0x03] ExtData[1]->WorkLocal[9] = 4302*
410: 0x09C9 [0x01] GOTO 0x0B91
411: 0x09CC [0x02] IF !(ExtData[1]->WorkLocal[8] == 36*) GOTO 0x09DC
412: 0x09D4 [0x03] ExtData[1]->WorkLocal[9] = 4303*
413: 0x09D9 [0x01] GOTO 0x0B91
414: 0x09DC [0x02] IF !(ExtData[1]->WorkLocal[8] == 37*) GOTO 0x09EC
415: 0x09E4 [0x03] ExtData[1]->WorkLocal[9] = 4422*
416: 0x09E9 [0x01] GOTO 0x0B91
417: 0x09EC [0x02] IF !(ExtData[1]->WorkLocal[8] == 38*) GOTO 0x09FC
418: 0x09F4 [0x03] ExtData[1]->WorkLocal[9] = 4423*
419: 0x09F9 [0x01] GOTO 0x0B91
420: 0x09FC [0x02] IF !(ExtData[1]->WorkLocal[8] == 39*) GOTO 0x0A0C
421: 0x0A04 [0x03] ExtData[1]->WorkLocal[9] = 4424*
422: 0x0A09 [0x01] GOTO 0x0B91
423: 0x0A0C [0x02] IF !(ExtData[1]->WorkLocal[8] == 40*) GOTO 0x0A1C
424: 0x0A14 [0x03] ExtData[1]->WorkLocal[9] = 4425*
425: 0x0A19 [0x01] GOTO 0x0B91
426: 0x0A1C [0x02] IF !(ExtData[1]->WorkLocal[8] == 41*) GOTO 0x0A2C
427: 0x0A24 [0x03] ExtData[1]->WorkLocal[9] = 4441*
428: 0x0A29 [0x01] GOTO 0x0B91
429: 0x0A2C [0x02] IF !(ExtData[1]->WorkLocal[8] == 42*) GOTO 0x0A3C
430: 0x0A34 [0x03] ExtData[1]->WorkLocal[9] = 4442*
431: 0x0A39 [0x01] GOTO 0x0B91
432: 0x0A3C [0x02] IF !(ExtData[1]->WorkLocal[8] == 43*) GOTO 0x0A4C
433: 0x0A44 [0x03] ExtData[1]->WorkLocal[9] = 4512*
434: 0x0A49 [0x01] GOTO 0x0B91
435: 0x0A4C [0x02] IF !(ExtData[1]->WorkLocal[8] == 44*) GOTO 0x0A5C
436: 0x0A54 [0x03] ExtData[1]->WorkLocal[9] = 4283*
437: 0x0A59 [0x01] GOTO 0x0B91
438: 0x0A5C [0x02] IF !(ExtData[1]->WorkLocal[8] == 45*) GOTO 0x0A6C
439: 0x0A64 [0x03] ExtData[1]->WorkLocal[9] = 4286*
440: 0x0A69 [0x01] GOTO 0x0B91
441: 0x0A6C [0x02] IF !(ExtData[1]->WorkLocal[8] == 46*) GOTO 0x0A7C
442: 0x0A74 [0x03] ExtData[1]->WorkLocal[9] = 4493*
443: 0x0A79 [0x01] GOTO 0x0B91
444: 0x0A7C [0x02] IF !(ExtData[1]->WorkLocal[8] == 47*) GOTO 0x0A8C
445: 0x0A84 [0x03] ExtData[1]->WorkLocal[9] = 4498*
446: 0x0A89 [0x01] GOTO 0x0B91
447: 0x0A8C [0x02] IF !(ExtData[1]->WorkLocal[8] == 48*) GOTO 0x0A9C
448: 0x0A94 [0x03] ExtData[1]->WorkLocal[9] = 4524*
449: 0x0A99 [0x01] GOTO 0x0B91
450: 0x0A9C [0x02] IF !(ExtData[1]->WorkLocal[8] == 49*) GOTO 0x0AAC
451: 0x0AA4 [0x03] ExtData[1]->WorkLocal[9] = 4541*
452: 0x0AA9 [0x01] GOTO 0x0B91
453: 0x0AAC [0x02] IF !(ExtData[1]->WorkLocal[8] == 50*) GOTO 0x0ABC
454: 0x0AB4 [0x03] ExtData[1]->WorkLocal[9] = 4558*
455: 0x0AB9 [0x01] GOTO 0x0B91
456: 0x0ABC [0x02] IF !(ExtData[1]->WorkLocal[8] == 51*) GOTO 0x0ACC
457: 0x0AC4 [0x03] ExtData[1]->WorkLocal[9] = 5221*
458: 0x0AC9 [0x01] GOTO 0x0B91
459: 0x0ACC [0x02] IF !(ExtData[1]->WorkLocal[8] == 52*) GOTO 0x0ADC
460: 0x0AD4 [0x03] ExtData[1]->WorkLocal[9] = 0*
461: 0x0AD9 [0x01] GOTO 0x0B91
462: 0x0ADC [0x02] IF !(ExtData[1]->WorkLocal[8] == 53*) GOTO 0x0AEC
463: 0x0AE4 [0x03] ExtData[1]->WorkLocal[9] = 0*
464: 0x0AE9 [0x01] GOTO 0x0B91
465: 0x0AEC [0x02] IF !(ExtData[1]->WorkLocal[8] == 54*) GOTO 0x0AFC
466: 0x0AF4 [0x03] ExtData[1]->WorkLocal[9] = 0*
467: 0x0AF9 [0x01] GOTO 0x0B91
468: 0x0AFC [0x02] IF !(ExtData[1]->WorkLocal[8] == 55*) GOTO 0x0B0C
469: 0x0B04 [0x03] ExtData[1]->WorkLocal[9] = 0*
470: 0x0B09 [0x01] GOTO 0x0B91
471: 0x0B0C [0x02] IF !(ExtData[1]->WorkLocal[8] == 56*) GOTO 0x0B1C
472: 0x0B14 [0x03] ExtData[1]->WorkLocal[9] = 0*
473: 0x0B19 [0x01] GOTO 0x0B91
474: 0x0B1C [0x02] IF !(ExtData[1]->WorkLocal[8] == 57*) GOTO 0x0B2C
475: 0x0B24 [0x03] ExtData[1]->WorkLocal[9] = 0*
476: 0x0B29 [0x01] GOTO 0x0B91
477: 0x0B2C [0x02] IF !(ExtData[1]->WorkLocal[8] == 58*) GOTO 0x0B3C
478: 0x0B34 [0x03] ExtData[1]->WorkLocal[9] = 0*
479: 0x0B39 [0x01] GOTO 0x0B91
480: 0x0B3C [0x02] IF !(ExtData[1]->WorkLocal[8] == 59*) GOTO 0x0B4C
481: 0x0B44 [0x03] ExtData[1]->WorkLocal[9] = 0*
482: 0x0B49 [0x01] GOTO 0x0B91
483: 0x0B4C [0x02] IF !(ExtData[1]->WorkLocal[8] == 60*) GOTO 0x0B5C
484: 0x0B54 [0x03] ExtData[1]->WorkLocal[9] = 0*
485: 0x0B59 [0x01] GOTO 0x0B91
486: 0x0B5C [0x02] IF !(ExtData[1]->WorkLocal[8] == 61*) GOTO 0x0B6C
487: 0x0B64 [0x03] ExtData[1]->WorkLocal[9] = 0*
488: 0x0B69 [0x01] GOTO 0x0B91
489: 0x0B6C [0x02] IF !(ExtData[1]->WorkLocal[8] == 62*) GOTO 0x0B7C
490: 0x0B74 [0x03] ExtData[1]->WorkLocal[9] = 0*
491: 0x0B79 [0x01] GOTO 0x0B91
492: 0x0B7C [0x02] IF !(ExtData[1]->WorkLocal[8] == 63*) GOTO 0x0B8C
493: 0x0B84 [0x03] ExtData[1]->WorkLocal[9] = 0*
494: 0x0B89 [0x01] GOTO 0x0B91
495: 0x0B8C [0x03] ExtData[1]->WorkLocal[9] = 0*

SUBROUTINE_0B91:
496: 0x0B91 [0x03] Work_Zone[2] = ExtData[1]->WorkLocal[9]
497: 0x0B96 [0x03] Work_Zone[3] = 100*
498: 0x0B9B [0x1D] PRINT_EVENT_MESSAGE(message_id=9743*)
    → "I can offer you $0 for $1 gil. Please be aware that all items purchased in the hostel are temporary and will disappear upon leaving the premises."
499: 0x0B9E [0x23] WAIT_FOR_DIALOG_INTERACTION
500: 0x0B9F [0x24] CREATE_DIALOG(message_id=9744*, default_option=1*, option_flags=0*)
    → "Purchase $0? [Yes./No.]"
501: 0x0BA6 [0x25] WAIT_DIALOG_SELECT()
502: 0x0BA7 [0x02] IF !(Work_Zone[0] == 0*) GOTO 0x0BD9
503: 0x0BAF [0x42] SET_CLI_EVENT_CANCEL_DATA()
504: 0x0BB0 [0x40] SET_BIT_WORK_RANGE(start_bit=16*, end_bit=31*, target=Work_Zone[1], source=ExtData[1]->WorkLocal[8])
505: 0x0BB9 [0x43] SEND_EVENT_UPDATE: Send pending tag to server (packet 0x005B)
506: 0x0BBB [0x43] SEND_EVENT_UPDATE: Check pending flag (skip if not pending)
507: 0x0BBD [0x03] ExtData[1]->WorkLocal[0] = Work_Zone[2]
508: 0x0BC2 [0x03] ExtData[1]->WorkLocal[1] = Work_Zone[3]
509: 0x0BC7 [0x02] IF !(Work_Zone[5] == 0*) GOTO 0x0BD6
510: 0x0BCF [0x1D] PRINT_EVENT_MESSAGE(message_id=9746*)
    → "My apologies, there seems to have been some problem with the transaction."
511: 0x0BD2 [0x23] WAIT_FOR_DIALOG_INTERACTION
512: 0x0BD3 [0x01] GOTO 0x0F58
513: 0x0BD6 [0x01] GOTO 0x0BD9

SUBROUTINE_0BD9:
514: 0x0BD9 [0x01] GOTO 0x00FF

SUBROUTINE_0C2E:
515: 0x0C2E [0x01] GOTO 0x0F58
516: 0x0C31 [0x02] IF !(Work_Zone[0] == 3*) GOTO 0x0F58
517: 0x0C39 [0x1D] PRINT_EVENT_MESSAGE(message_id=9751*)
    → "If you would like me to stand somewhere else, please review the locations displayed on the map, then select a location number from the list."
518: 0x0C3C [0x23] WAIT_FOR_DIALOG_INTERACTION
519: 0x0C3D [0x42] SET_CLI_EVENT_CANCEL_DATA()
520: 0x0C3E [0x8D] OPEN_MAP_WITH_PROPERTIES(map_id=50*, properties=1*)
521: 0x0C43 [0x02] IF !(ExtData[1]->WorkLocal[22] == 0*) GOTO 0x0CE4
522: 0x0C4B [0x8B] SET_EVENT_MARK: Add/update map marker on map 50* at (187.590*, -84.760*), index=0*, name=(no name)
523: 0x0C54 [0x31] UPDATE_ENTITY_POSITION: Set EventEntity goal position to X=ExtData[1]->WorkLocal[0], Z=ExtData[1]->WorkLocal[0], Y=ExtData[1]->WorkLocal[0], Time=ExtData[1]->WorkLocal[0]
524: 0x0C5E [0x00] END_REQSTACK()

SUBROUTINE_0EC7:
525: 0x0EC7 [0x03] Work_Zone[2] = ExtData[1]->WorkLocal[9]
526: 0x0ECC [0x1D] PRINT_EVENT_MESSAGE(message_id=9753*)
    → "Here are the available locations."
527: 0x0ECF [0x23] WAIT_FOR_DIALOG_INTERACTION
528: 0x0ED0 [0x8A] CLOSE_MAP()
529: 0x0ED1 [0xA8] MAP_MARKER_CONTROL: Reset/unlock markers (no map display), zone=50*, marker=0*
530: 0x0ED7 [0xA8] MAP_MARKER_CONTROL: Reset/unlock markers (no map display), zone=50*, marker=1*
531: 0x0EDD [0xA8] MAP_MARKER_CONTROL: Reset/unlock markers (no map display), zone=50*, marker=2*
532: 0x0EE3 [0xA8] MAP_MARKER_CONTROL: Reset/unlock markers (no map display), zone=50*, marker=3*
533: 0x0EE9 [0xA8] MAP_MARKER_CONTROL: Reset/unlock markers (no map display), zone=50*, marker=4*
534: 0x0EEF [0xA8] MAP_MARKER_CONTROL: Reset/unlock markers (no map display), zone=50*, marker=5*
535: 0x0EF5 [0x03] ExtData[1]->WorkLocal[13] = ExtData[1]->WorkLocal[2]
536: 0x0EFA [0x0B] ExtData[1]->WorkLocal[13]++

SUBROUTINE_0EFD:
537: 0x0EFD [0x2E] SET_CLI_EVENT_CANCEL_FLAGS()
538: 0x0EFE [0x24] CREATE_DIALOG(message_id=9752*, default_option=ExtData[1]->WorkLocal[13], option_flags=0*)
    → "Where shall I stand? [Here is fine./1."."./4./5./6.]"
539: 0x0F05 [0x25] WAIT_DIALOG_SELECT()
540: 0x0F06 [0x02] IF !(Work_Zone[0] == 0*) GOTO 0x0F14
541: 0x0F0E [0x01] GOTO 0x00C1

SUBROUTINE_0F55:
542: 0x0F55 [0x01] GOTO 0x0F58

SUBROUTINE_0F58:
543: 0x0F58 [0x21] END_EVENT
544: 0x0F59 [0x00] END_REQSTACK()
```

#### Data or dead code:

```
# Dead code (unreachable instructions):
     0x0697 [0x01] GOTO 0x06A5
# Dead code (unreachable instructions):
     0x06E3 [0x01] GOTO 0x0BD9
# Dead code (unreachable instructions):
     0x0BDC [0x01] GOTO 0x0F58
     0x0C2B [0x01] GOTO 0x0C2E
# Dead code (unreachable instructions):
     0x0C5F [0x00] END_REQSTACK()
     0x0C60 [0x00] END_REQSTACK()
     0x0C61 [0x00] END_REQSTACK()
     0x0C62 [0x00] END_REQSTACK()
     0x0C63 [0x00] END_REQSTACK()
     0x0C64 [0x8B] SET_EVENT_MARK: Add/update map marker on map 50* at (175.744*, -94.862*), index=1*, name=(no name)
     0x0C6D [0x32] ExtData[1]->MainSpeed = ExtData[1]->WorkLocal[0] * 0.1
     0x0C70 [0x00] END_REQSTACK()
     0x0C71 [0x00] END_REQSTACK()
     0x0C72 [0x00] END_REQSTACK()
     0x0C73 [0x00] END_REQSTACK()
     0x0C74 [0x00] END_REQSTACK()
     0x0C75 [0x00] END_REQSTACK()
     0x0C76 [0x00] END_REQSTACK()
     0x0C77 [0x00] END_REQSTACK()
     0x0C78 [0x00] END_REQSTACK()
     0x0C79 [0x00] END_REQSTACK()
     0x0C7A [0x00] END_REQSTACK()
     0x0C7B [0x00] END_REQSTACK()
     0x0C7C [0x00] END_REQSTACK()
     0x0C7D [0x8B] SET_EVENT_MARK: Add/update map marker on map 50* at (167.320*, -81.000*), index=2*, name=(no name)
     0x0C86 [0x33] EventEntity->Render.Flags0 &= ~ 0x200000 // Bit 21 (flag=0x00)
     0x0C88 [0x00] END_REQSTACK()
     0x0C89 [0x00] END_REQSTACK()
     0x0C8A [0x00] END_REQSTACK()
     0x0C8B [0x00] END_REQSTACK()
     0x0C8C [0x00] END_REQSTACK()
     0x0C8D [0x00] END_REQSTACK()
     0x0C8E [0x00] END_REQSTACK()
     0x0C8F [0x00] END_REQSTACK()
     0x0C90 [0x00] END_REQSTACK()
     0x0C91 [0x00] END_REQSTACK()
     0x0C92 [0x00] END_REQSTACK()
     0x0C93 [0x00] END_REQSTACK()
     0x0C94 [0x00] END_REQSTACK()
     0x0C95 [0x00] END_REQSTACK()
     0x0C96 [0x8B] SET_EVENT_MARK: Add/update map marker on map 50* at (172.890*, -83.443*), index=3*, name=(no name)
     0x0C9F [0x34] LOAD_UNLOAD_ZONE(zone_id=ExtData[1]->WorkLocal[0])
     0x0CA2 [0x00] END_REQSTACK()
     0x0CA3 [0x00] END_REQSTACK()
     0x0CA4 [0x00] END_REQSTACK()
     0x0CA5 [0x00] END_REQSTACK()
     0x0CA6 [0x00] END_REQSTACK()
     0x0CA7 [0x00] END_REQSTACK()
     0x0CA8 [0x00] END_REQSTACK()
     0x0CA9 [0x00] END_REQSTACK()
     0x0CAA [0x00] END_REQSTACK()
     0x0CAB [0x00] END_REQSTACK()
     0x0CAC [0x00] END_REQSTACK()
     0x0CAD [0x00] END_REQSTACK()
     0x0CAE [0x00] END_REQSTACK()
     0x0CAF [0x8B] SET_EVENT_MARK: Add/update map marker on map 50* at (177.299*, -86.505*), index=4*, name=(no name)
     0x0CB8 [0x35] LOAD_ZONE_NO_CLOSE(zone_id=ExtData[1]->WorkLocal[0])
     0x0CBB [0x00] END_REQSTACK()
     0x0CBC [0x00] END_REQSTACK()
     0x0CBD [0x00] END_REQSTACK()
     0x0CBE [0x00] END_REQSTACK()
     0x0CBF [0x00] END_REQSTACK()
     0x0CC0 [0x00] END_REQSTACK()
     0x0CC1 [0x00] END_REQSTACK()
     0x0CC2 [0x00] END_REQSTACK()
     0x0CC3 [0x00] END_REQSTACK()
     0x0CC4 [0x00] END_REQSTACK()
     0x0CC5 [0x00] END_REQSTACK()
     0x0CC6 [0x00] END_REQSTACK()
     0x0CC7 [0x00] END_REQSTACK()
     0x0CC8 [0x8B] SET_EVENT_MARK: Add/update map marker on map 50* at (178.485*, -90.740*), index=5*, name=(no name)
     0x0CD1 [0x36] SET_ENTITY_EVENT_POSITION(pos_x=ExtData[1]->WorkLocal[0], pos_z=ExtData[1]->WorkLocal[0], pos_y=ExtData[1]->WorkLocal[0])
     0x0CD8 [0x00] END_REQSTACK()
     0x0CD9 [0x00] END_REQSTACK()
     0x0CDA [0x00] END_REQSTACK()
     0x0CDB [0x00] END_REQSTACK()
     0x0CDC [0x00] END_REQSTACK()
     0x0CDD [0x00] END_REQSTACK()
     0x0CDE [0x00] END_REQSTACK()
     0x0CDF [0x00] END_REQSTACK()
     0x0CE0 [0x00] END_REQSTACK()
     0x0CE1 [0x01] GOTO 0x0EC7
     0x0D00 [0x00] END_REQSTACK()
     0x0D01 [0x00] END_REQSTACK()
     0x0D02 [0x00] END_REQSTACK()
     0x0D03 [0x00] END_REQSTACK()
     0x0D04 [0x00] END_REQSTACK()
     0x0D05 [0x8B] SET_EVENT_MARK: Add/update map marker on map 50* at (188.526*, -94.542*), index=1*, name=(no name)
     0x0D0E [0x32] ExtData[1]->MainSpeed = ExtData[1]->WorkLocal[0] * 0.1
     0x0D11 [0x00] END_REQSTACK()
     0x0D12 [0x00] END_REQSTACK()
     0x0D13 [0x00] END_REQSTACK()
     0x0D14 [0x00] END_REQSTACK()
     0x0D15 [0x00] END_REQSTACK()
     0x0D16 [0x00] END_REQSTACK()
     0x0D17 [0x00] END_REQSTACK()
     0x0D18 [0x00] END_REQSTACK()
     0x0D19 [0x00] END_REQSTACK()
     0x0D1A [0x00] END_REQSTACK()
     0x0D1B [0x00] END_REQSTACK()
     0x0D1C [0x00] END_REQSTACK()
     0x0D1D [0x00] END_REQSTACK()
     0x0D1E [0x8B] SET_EVENT_MARK: Add/update map marker on map 50* at (167.320*, -81.000*), index=2*, name=(no name)
     0x0D27 [0x33] EventEntity->Render.Flags0 &= ~ 0x200000 // Bit 21 (flag=0x00)
     0x0D29 [0x00] END_REQSTACK()
     0x0D2A [0x00] END_REQSTACK()
     0x0D2B [0x00] END_REQSTACK()
     0x0D2C [0x00] END_REQSTACK()
     0x0D2D [0x00] END_REQSTACK()
     0x0D2E [0x00] END_REQSTACK()
     0x0D2F [0x00] END_REQSTACK()
     0x0D30 [0x00] END_REQSTACK()
     0x0D31 [0x00] END_REQSTACK()
     0x0D32 [0x00] END_REQSTACK()
     0x0D33 [0x00] END_REQSTACK()
     0x0D34 [0x00] END_REQSTACK()
     0x0D35 [0x00] END_REQSTACK()
     0x0D36 [0x00] END_REQSTACK()
     0x0D37 [0x8B] SET_EVENT_MARK: Add/update map marker on map 50* at (175.030*, -83.443*), index=3*, name=(no name)
     0x0D40 [0x34] LOAD_UNLOAD_ZONE(zone_id=ExtData[1]->WorkLocal[0])
     0x0D43 [0x00] END_REQSTACK()
     0x0D44 [0x00] END_REQSTACK()
     0x0D45 [0x00] END_REQSTACK()
     0x0D46 [0x00] END_REQSTACK()
     0x0D47 [0x00] END_REQSTACK()
     0x0D48 [0x00] END_REQSTACK()
     0x0D49 [0x00] END_REQSTACK()
     0x0D4A [0x00] END_REQSTACK()
     0x0D4B [0x00] END_REQSTACK()
     0x0D4C [0x00] END_REQSTACK()
     0x0D4D [0x00] END_REQSTACK()
     0x0D4E [0x00] END_REQSTACK()
     0x0D4F [0x00] END_REQSTACK()
     0x0D50 [0x8B] SET_EVENT_MARK: Add/update map marker on map 50* at (184.817*, -79.815*), index=4*, name=(no name)
     0x0D59 [0x35] LOAD_ZONE_NO_CLOSE(zone_id=ExtData[1]->WorkLocal[0])
     0x0D5C [0x00] END_REQSTACK()
     0x0D5D [0x00] END_REQSTACK()
     0x0D5E [0x00] END_REQSTACK()
     0x0D5F [0x00] END_REQSTACK()
     0x0D60 [0x00] END_REQSTACK()
     0x0D61 [0x00] END_REQSTACK()
     0x0D62 [0x00] END_REQSTACK()
     0x0D63 [0x00] END_REQSTACK()
     0x0D64 [0x00] END_REQSTACK()
     0x0D65 [0x00] END_REQSTACK()
     0x0D66 [0x00] END_REQSTACK()
     0x0D67 [0x00] END_REQSTACK()
     0x0D68 [0x00] END_REQSTACK()
     0x0D69 [0x8B] SET_EVENT_MARK: Add/update map marker on map 50* at (182.402*, -92.657*), index=5*, name=(no name)
     0x0D72 [0x36] SET_ENTITY_EVENT_POSITION(pos_x=ExtData[1]->WorkLocal[0], pos_z=ExtData[1]->WorkLocal[0], pos_y=ExtData[1]->WorkLocal[0])
     0x0D79 [0x00] END_REQSTACK()
     0x0D7A [0x00] END_REQSTACK()
     0x0D7B [0x00] END_REQSTACK()
     0x0D7C [0x00] END_REQSTACK()
     0x0D7D [0x00] END_REQSTACK()
     0x0D7E [0x00] END_REQSTACK()
     0x0D7F [0x00] END_REQSTACK()
     0x0D80 [0x00] END_REQSTACK()
     0x0D81 [0x00] END_REQSTACK()
     0x0D82 [0x01] GOTO 0x0EC7
     0x0DA1 [0x00] END_REQSTACK()
     0x0DA2 [0x00] END_REQSTACK()
     0x0DA3 [0x00] END_REQSTACK()
     0x0DA4 [0x00] END_REQSTACK()
     0x0DA5 [0x00] END_REQSTACK()
     0x0DA6 [0x8B] SET_EVENT_MARK: Add/update map marker on map 50* at (187.909*, -65.408*), index=1*, name=(no name)
     0x0DAF [0x32] ExtData[1]->MainSpeed = ExtData[1]->WorkLocal[0] * 0.1
     0x0DB2 [0x00] END_REQSTACK()
     0x0DB3 [0x00] END_REQSTACK()
     0x0DB4 [0x00] END_REQSTACK()
     0x0DB5 [0x00] END_REQSTACK()
     0x0DB6 [0x00] END_REQSTACK()
     0x0DB7 [0x00] END_REQSTACK()
     0x0DB8 [0x00] END_REQSTACK()
     0x0DB9 [0x00] END_REQSTACK()
     0x0DBA [0x00] END_REQSTACK()
     0x0DBB [0x00] END_REQSTACK()
     0x0DBC [0x00] END_REQSTACK()
     0x0DBD [0x00] END_REQSTACK()
     0x0DBE [0x00] END_REQSTACK()
     0x0DBF [0x8B] SET_EVENT_MARK: Add/update map marker on map 50* at (167.320*, -79.000*), index=2*, name=(no name)
     0x0DC8 [0x33] EventEntity->Render.Flags0 &= ~ 0x200000 // Bit 21 (flag=0x00)
     0x0DCA [0x00] END_REQSTACK()
     0x0DCB [0x00] END_REQSTACK()
     0x0DCC [0x00] END_REQSTACK()
     0x0DCD [0x00] END_REQSTACK()
     0x0DCE [0x00] END_REQSTACK()
     0x0DCF [0x00] END_REQSTACK()
     0x0DD0 [0x00] END_REQSTACK()
     0x0DD1 [0x00] END_REQSTACK()
     0x0DD2 [0x00] END_REQSTACK()
     0x0DD3 [0x00] END_REQSTACK()
     0x0DD4 [0x00] END_REQSTACK()
     0x0DD5 [0x00] END_REQSTACK()
     0x0DD6 [0x00] END_REQSTACK()
     0x0DD7 [0x00] END_REQSTACK()
     0x0DD8 [0x8B] SET_EVENT_MARK: Add/update map marker on map 50* at (175.030*, -77.559*), index=3*, name=(no name)
     0x0DE1 [0x34] LOAD_UNLOAD_ZONE(zone_id=ExtData[1]->WorkLocal[0])
     0x0DE4 [0x00] END_REQSTACK()
     0x0DE5 [0x00] END_REQSTACK()
     0x0DE6 [0x00] END_REQSTACK()
     0x0DE7 [0x00] END_REQSTACK()
     0x0DE8 [0x00] END_REQSTACK()
     0x0DE9 [0x00] END_REQSTACK()
     0x0DEA [0x00] END_REQSTACK()
     0x0DEB [0x00] END_REQSTACK()
     0x0DEC [0x00] END_REQSTACK()
     0x0DED [0x00] END_REQSTACK()
     0x0DEE [0x00] END_REQSTACK()
     0x0DEF [0x00] END_REQSTACK()
     0x0DF0 [0x00] END_REQSTACK()
     0x0DF1 [0x8B] SET_EVENT_MARK: Add/update map marker on map 50* at (184.063*, -74.248*), index=4*, name=(no name)
     0x0DFA [0x35] LOAD_ZONE_NO_CLOSE(zone_id=ExtData[1]->WorkLocal[0])
     0x0DFD [0x00] END_REQSTACK()
     0x0DFE [0x00] END_REQSTACK()
     0x0DFF [0x00] END_REQSTACK()
     0x0E00 [0x00] END_REQSTACK()
     0x0E01 [0x00] END_REQSTACK()
     0x0E02 [0x00] END_REQSTACK()
     0x0E03 [0x00] END_REQSTACK()
     0x0E04 [0x00] END_REQSTACK()
     0x0E05 [0x00] END_REQSTACK()
     0x0E06 [0x00] END_REQSTACK()
     0x0E07 [0x00] END_REQSTACK()
     0x0E08 [0x00] END_REQSTACK()
     0x0E09 [0x00] END_REQSTACK()
     0x0E0A [0x8B] SET_EVENT_MARK: Add/update map marker on map 50* at (178.395*, -90.536*), index=5*, name=(no name)
     0x0E13 [0x36] SET_ENTITY_EVENT_POSITION(pos_x=ExtData[1]->WorkLocal[0], pos_z=ExtData[1]->WorkLocal[0], pos_y=ExtData[1]->WorkLocal[0])
     0x0E1A [0x00] END_REQSTACK()
     0x0E1B [0x00] END_REQSTACK()
     0x0E1C [0x00] END_REQSTACK()
     0x0E1D [0x00] END_REQSTACK()
     0x0E1E [0x00] END_REQSTACK()
     0x0E1F [0x00] END_REQSTACK()
     0x0E20 [0x00] END_REQSTACK()
     0x0E21 [0x00] END_REQSTACK()
     0x0E22 [0x00] END_REQSTACK()
     0x0E23 [0x01] GOTO 0x0EC7
     0x0E42 [0x00] END_REQSTACK()
     0x0E43 [0x00] END_REQSTACK()
     0x0E44 [0x00] END_REQSTACK()
     0x0E45 [0x00] END_REQSTACK()
     0x0E46 [0x00] END_REQSTACK()
     0x0E47 [0x8B] SET_EVENT_MARK: Add/update map marker on map 50* at (175.347*, -66.990*), index=1*, name=(no name)
     0x0E50 [0x32] ExtData[1]->MainSpeed = ExtData[1]->WorkLocal[0] * 0.1
     0x0E53 [0x00] END_REQSTACK()
     0x0E54 [0x00] END_REQSTACK()
     0x0E55 [0x00] END_REQSTACK()
     0x0E56 [0x00] END_REQSTACK()
     0x0E57 [0x00] END_REQSTACK()
     0x0E58 [0x00] END_REQSTACK()
     0x0E59 [0x00] END_REQSTACK()
     0x0E5A [0x00] END_REQSTACK()
     0x0E5B [0x00] END_REQSTACK()
     0x0E5C [0x00] END_REQSTACK()
     0x0E5D [0x00] END_REQSTACK()
     0x0E5E [0x00] END_REQSTACK()
     0x0E5F [0x00] END_REQSTACK()
     0x0E60 [0x8B] SET_EVENT_MARK: Add/update map marker on map 50* at (167.320*, -76.000*), index=2*, name=(no name)
     0x0E69 [0x33] EventEntity->Render.Flags0 &= ~ 0x200000 // Bit 21 (flag=0x00)
     0x0E6B [0x00] END_REQSTACK()
     0x0E6C [0x00] END_REQSTACK()
     0x0E6D [0x00] END_REQSTACK()
     0x0E6E [0x00] END_REQSTACK()
     0x0E6F [0x00] END_REQSTACK()
     0x0E70 [0x00] END_REQSTACK()
     0x0E71 [0x00] END_REQSTACK()
     0x0E72 [0x00] END_REQSTACK()
     0x0E73 [0x00] END_REQSTACK()
     0x0E74 [0x00] END_REQSTACK()
     0x0E75 [0x00] END_REQSTACK()
     0x0E76 [0x00] END_REQSTACK()
     0x0E77 [0x00] END_REQSTACK()
     0x0E78 [0x00] END_REQSTACK()
     0x0E79 [0x8B] SET_EVENT_MARK: Add/update map marker on map 50* at (172.890*, -78.559*), index=3*, name=(no name)
     0x0E82 [0x34] LOAD_UNLOAD_ZONE(zone_id=ExtData[1]->WorkLocal[0])
     0x0E85 [0x00] END_REQSTACK()
     0x0E86 [0x00] END_REQSTACK()
     0x0E87 [0x00] END_REQSTACK()
     0x0E88 [0x00] END_REQSTACK()
     0x0E89 [0x00] END_REQSTACK()
     0x0E8A [0x00] END_REQSTACK()
     0x0E8B [0x00] END_REQSTACK()
     0x0E8C [0x00] END_REQSTACK()
     0x0E8D [0x00] END_REQSTACK()
     0x0E8E [0x00] END_REQSTACK()
     0x0E8F [0x00] END_REQSTACK()
     0x0E90 [0x00] END_REQSTACK()
     0x0E91 [0x00] END_REQSTACK()
     0x0E92 [0x8B] SET_EVENT_MARK: Add/update map marker on map 50* at (182.199*, -71.608*), index=4*, name=(no name)
     0x0E9B [0x35] LOAD_ZONE_NO_CLOSE(zone_id=ExtData[1]->WorkLocal[0])
     0x0E9E [0x00] END_REQSTACK()
     0x0E9F [0x00] END_REQSTACK()
     0x0EA0 [0x00] END_REQSTACK()
     0x0EA1 [0x00] END_REQSTACK()
     0x0EA2 [0x00] END_REQSTACK()
     0x0EA3 [0x00] END_REQSTACK()
     0x0EA4 [0x00] END_REQSTACK()
     0x0EA5 [0x00] END_REQSTACK()
     0x0EA6 [0x00] END_REQSTACK()
     0x0EA7 [0x00] END_REQSTACK()
     0x0EA8 [0x00] END_REQSTACK()
     0x0EA9 [0x00] END_REQSTACK()
     0x0EAA [0x00] END_REQSTACK()
     0x0EAB [0x8B] SET_EVENT_MARK: Add/update map marker on map 50* at (182.399*, -90.564*), index=5*, name=(no name)
     0x0EB4 [0x36] SET_ENTITY_EVENT_POSITION(pos_x=ExtData[1]->WorkLocal[0], pos_z=ExtData[1]->WorkLocal[0], pos_y=ExtData[1]->WorkLocal[0])
     0x0EBB [0x00] END_REQSTACK()
     0x0EBC [0x00] END_REQSTACK()
     0x0EBD [0x00] END_REQSTACK()
     0x0EBE [0x00] END_REQSTACK()
     0x0EBF [0x00] END_REQSTACK()
     0x0EC0 [0x00] END_REQSTACK()
     0x0EC1 [0x00] END_REQSTACK()
     0x0EC2 [0x00] END_REQSTACK()
     0x0EC3 [0x00] END_REQSTACK()
     0x0EC4 [0x01] GOTO 0x0EC7
# Dead code (unreachable instructions):
     0x0F11 [0x01] GOTO 0x0F55
     0x0F52 [0x01] GOTO 0x0F55
```

### Event 65535.5

#### Metadata

| Field        | Value      |
|--------------|------------|
| Entrypoint   | 0x0F5A     |
| Data Size    | 2138 bytes |
| Instructions | 210        |

```
      00 01 02 03 04 05 06 07  08 09 0A 0B 0C 0D 0E 0F
      -- -- -- -- -- -- -- --  -- -- -- -- -- -- -- --
0F50:                                03 19 00 16 00 14            ......
0F60: 19 00 1B 80 03 1A 00 19  00 07 1A 00 0E 80 41 19  ..............A.
0F70: 00 1A 00 28 10 1B 00 02  16 00 00 80 80 86 11 02  ...(............
0F80: 1B 00 00 80 80 9E 0F B6  0B 05 80 05 80 00 80 5A  ...............Z
0F90: 80 00 80 B6 80 B7 80 00  80 00 80 01 83 11 02 1B  ................
0FA0: 00 05 80 80 BD 0F B6 0B  18 80 00 80 00 80 4D 80  ..............M.
0FB0: 00 80 4D 80 4D 80 00 80  00 80 01 83 11 02 1B 00  ..M.M...........
0FC0: 18 80 80 DC 0F B6 0B 0E  80 05 80 00 80 B7 80 00  ................
0FD0: 80 B6 80 B7 80 00 80 00  80 01 83 11 02 1B 00 0E  ................
0FE0: 80 80 FB 0F B6 0B 1B 80  00 80 00 80 35 80 00 80  ............5...
0FF0: B6 80 B7 80 00 80 00 80  01 83 11 02 1B 00 1B 80  ................
1000: 80 1A 10 B6 0B 1D 80 00  80 00 80 24 80 00 80 B6  ...........$....
1010: 80 B7 80 00 80 00 80 01  83 11 02 1B 00 1D 80 80  ................
1020: 39 10 B6 0B 1F 80 18 80  00 80 B8 80 00 80 B8 80  9...............
1030: B8 80 00 80 00 80 01 83  11 02 1B 00 1F 80 80 58  ...............X
1040: 10 B6 0B 12 80 00 80 00  80 4D 80 00 80 4D 80 00  .........M...M..
1050: 80 00 80 00 80 01 83 11  02 1B 00 12 80 80 77 10  ..............w.
1060: B6 0B 11 80 26 80 00 80  4D 80 00 80 4D 80 4D 80  ....&...M...M.M.
1070: 00 80 00 80 01 83 11 02  1B 00 11 80 80 96 10 B6  ................
1080: 0B 05 80 1F 80 00 80 64  80 00 80 B9 80 B9 80 00  .......d........
1090: 80 00 80 01 83 11 02 1B  00 0C 80 80 B5 10 B6 0B  ................
10A0: 18 80 18 80 00 80 70 80  00 80 B9 80 B9 80 00 80  ......p.........
10B0: 00 80 01 83 11 02 1B 00  24 80 80 D4 10 B6 0B 18  ........$.......
10C0: 80 18 80 00 80 BA 80 00  80 BA 80 BA 80 00 80 00  ................
10D0: 80 01 83 11 02 1B 00 26  80 80 F3 10 B6 0B 12 80  .......&........
10E0: 00 80 00 80 BA 80 00 80  BA 80 BA 80 00 80 00 80  ................
10F0: 01 83 11 02 1B 00 28 80  80 12 11 B6 0B 18 80 00  ......(.........
1100: 80 00 80 BB 80 BB 80 BB  80 BB 80 00 80 00 80 01  ................
1110: 83 11 02 1B 00 2A 80 80  31 11 B6 0B 12 80 00 80  .....*..1.......
1120: 00 80 BB 80 BB 80 BB 80  BB 80 00 80 00 80 01 83  ................
1130: 11 02 1B 00 2C 80 80 50  11 B6 0B 18 80 18 80 BC  ....,..P........
1140: 80 BC 80 BC 80 BC 80 BC  80 00 80 00 80 01 83 11  ................
1150: 02 1B 00 10 80 80 6F 11  B6 0B 05 80 28 80 00 80  ......o.....(...
1160: 00 80 00 80 15 80 00 80  00 80 00 80 01 83 11 B6  ................
1170: 0B 05 80 05 80 00 80 5A  80 00 80 B6 80 B7 80 00  .......Z........
1180: 80 00 80 01 B3 17 02 16  00 05 80 80 95 13 02 1B  ................
1190: 00 00 80 80 AD 11 B6 0B  05 80 18 80 00 80 5C 80  ..............\.
11A0: 00 80 B6 80 B7 80 00 80  00 80 01 92 13 02 1B 00  ................
11B0: 05 80 80 CC 11 B6 0B 18  80 1B 80 00 80 4D 80 00  .............M..
11C0: 80 4D 80 4D 80 00 80 00  80 01 92 13 02 1B 00 18  .M.M............
11D0: 80 80 EB 11 B6 0B 0E 80  0E 80 00 80 B7 80 00 80  ................
11E0: B6 80 B7 80 00 80 00 80  01 92 13 02 1B 00 0E 80  ................
11F0: 80 0A 12 B6 0B 1B 80 1D  80 00 80 35 80 00 80 B6  ...........5....
1200: 80 B7 80 00 80 00 80 01  92 13 02 1B 00 1B 80 80  ................
1210: 29 12 B6 0B 1D 80 00 80  00 80 6A 80 00 80 6A 80  ).........j...j.
1220: 6A 80 00 80 00 80 01 92  13 02 1B 00 1D 80 80 48  j..............H
1230: 12 B6 0B 1F 80 1B 80 00  80 7A 80 00 80 7A 80 7A  .........z...z.z
1240: 80 00 80 00 80 01 92 13  02 1B 00 1F 80 80 67 12  ..............g.
1250: B6 0B 12 80 0C 80 00 80  4D 80 00 80 4D 80 00 80  ........M...M...
1260: 00 80 00 80 01 92 13 02  1B 00 12 80 80 86 12 B6  ................
1270: 0B 11 80 26 80 00 80 10  80 00 80 10 80 10 80 00  ...&............
1280: 80 00 80 01 92 13 02 1B  00 11 80 80 A5 12 B6 0B  ................
1290: 0E 80 00 80 00 80 66 80  00 80 B9 80 B9 80 00 80  ......f.........
12A0: 00 80 01 92 13 02 1B 00  0C 80 80 C4 12 B6 0B 1B  ................
12B0: 80 26 80 00 80 6E 80 00  80 24 80 24 80 00 80 00  .&...n...$.$....
12C0: 80 01 92 13 02 1B 00 24  80 80 E3 12 B6 0B 18 80  .......$........
12D0: 1B 80 00 80 BD 80 00 80  BD 80 BD 80 00 80 00 80  ................
12E0: 01 92 13 02 1B 00 26 80  80 02 13 B6 0B 12 80 0C  ......&.........
12F0: 80 00 80 BD 80 00 80 BD  80 BD 80 00 80 00 80 01  ................
1300: 92 13 02 1B 00 28 80 80  21 13 B6 0B 18 80 1B 80  .....(..!.......
1310: 00 80 BB 80 BB 80 BB 80  BB 80 00 80 00 80 01 92  ................
1320: 13 02 1B 00 2A 80 80 40  13 B6 0B 12 80 0C 80 00  ....*..@........
1330: 80 BB 80 BB 80 BB 80 BB  80 00 80 00 80 01 92 13  ................
1340: 02 1B 00 2C 80 80 5F 13  B6 0B 18 80 1B 80 BC 80  ...,.._.........
1350: BC 80 BC 80 BC 80 BC 80  00 80 00 80 01 92 13 02  ................
1360: 1B 00 10 80 80 7E 13 B6  0B 05 80 11 80 00 80 00  .....~..........
1370: 80 00 80 15 80 00 80 00  80 00 80 01 92 13 B6 0B  ................
1380: 05 80 18 80 00 80 5C 80  00 80 B6 80 B7 80 00 80  ......\.........
1390: 00 80 01 B3 17 02 16 00  18 80 80 A4 15 02 1B 00  ................
13A0: 00 80 80 BC 13 B6 0B 05  80 1D 80 00 80 3F 80 00  .............?..
13B0: 80 B6 80 B7 80 00 80 00  80 01 A1 15 02 1B 00 05  ................
13C0: 80 80 DB 13 B6 0B 18 80  12 80 00 80 4D 80 00 80  ............M...
13D0: 4D 80 4D 80 00 80 00 80  01 A1 15 02 1B 00 18 80  M.M.............
13E0: 80 FA 13 B6 0B 0E 80 05  80 BE 80 B7 80 00 80 B6  ................
13F0: 80 B7 80 00 80 00 80 01  A1 15 02 1B 00 0E 80 80  ................
1400: 19 14 B6 0B 1B 80 24 80  00 80 BF 80 00 80 B6 80  ......$.........
1410: B7 80 00 80 00 80 01 A1  15 02 1B 00 1B 80 80 38  ...............8
1420: 14 B6 0B 1D 80 00 80 00  80 6C 80 00 80 6C 80 6C  .........l...l.l
1430: 80 00 80 00 80 01 A1 15  02 1B 00 1D 80 80 57 14  ..............W.
1440: B6 0B 1F 80 0C 80 00 80  C0 80 00 80 C0 80 C0 80  ................
1450: 00 80 00 80 01 A1 15 02  1B 00 1F 80 80 76 14 B6  .............v..
1460: 0B 12 80 24 80 00 80 4D  80 00 80 4D 80 00 80 00  ...$...M...M....
1470: 80 00 80 01 A1 15 02 1B  00 12 80 80 95 14 B6 0B  ................
1480: 11 80 26 80 00 80 79 80  00 80 10 80 79 80 00 80  ..&...y.....y...
1490: 00 80 01 A1 15 02 1B 00  11 80 80 B4 14 B6 0B 1D  ................
14A0: 80 24 80 00 80 C1 80 00  80 C1 80 C1 80 00 80 00  .$..............
14B0: 80 01 A1 15 02 1B 00 0C  80 80 D3 14 B6 0B 1F 80  ................
14C0: 1F 80 00 80 70 80 00 80  B9 80 B9 80 00 80 00 80  ....p...........
14D0: 01 A1 15 02 1B 00 24 80  80 F2 14 B6 0B 18 80 12  ......$.........
14E0: 80 00 80 BA 80 00 80 BA  80 BA 80 00 80 00 80 01  ................
14F0: A1 15 02 1B 00 26 80 80  11 15 B6 0B 12 80 24 80  .....&........$.
1500: 00 80 BA 80 00 80 BA 80  BA 80 00 80 00 80 01 A1  ................
1510: 15 02 1B 00 28 80 80 30  15 B6 0B 18 80 12 80 00  ....(..0........
1520: 80 BB 80 BB 80 BB 80 BB  80 00 80 00 80 01 A1 15  ................
1530: 02 1B 00 2A 80 80 4F 15  B6 0B 12 80 24 80 00 80  ...*..O.....$...
1540: BB 80 BB 80 BB 80 BB 80  00 80 00 80 01 A1 15 02  ................
1550: 1B 00 2C 80 80 6E 15 B6  0B 12 80 00 80 BC 80 BC  ..,..n..........
1560: 80 BC 80 BC 80 BC 80 00  80 00 80 01 A1 15 02 1B  ................
1570: 00 10 80 80 8D 15 B6 0B  0E 80 10 80 00 80 00 80  ................
1580: 00 80 15 80 00 80 00 80  00 80 01 A1 15 B6 0B 05  ................
1590: 80 1D 80 00 80 3F 80 00  80 B6 80 B7 80 00 80 00  .....?..........
15A0: 80 01 B3 17 02 16 00 0E  80 80 B3 17 02 1B 00 00  ................
15B0: 80 80 CB 15 B6 0B 05 80  12 80 00 80 3D 80 00 80  ............=...
15C0: B6 80 B7 80 00 80 00 80  01 B0 17 02 1B 00 05 80  ................
15D0: 80 EA 15 B6 0B 18 80 2C  80 00 80 4D 80 00 80 4D  .......,...M...M
15E0: 80 4D 80 00 80 00 80 01  B0 17 02 1B 00 18 80 80  .M..............
15F0: 09 16 B6 0B 0E 80 0E 80  C2 80 B7 80 00 80 B6 80  ................
1600: B7 80 00 80 00 80 01 B0  17 02 1B 00 0E 80 80 28  ...............(
1610: 16 B6 0B 1B 80 2C 80 00  80 BF 80 00 80 B6 80 B7  .....,..........
1620: 80 00 80 00 80 01 B0 17  02 1B 00 1B 80 80 47 16  ..............G.
1630: B6 0B 1D 80 00 80 3F 80  3F 80 00 80 B8 80 B8 80  ......?.?.......
1640: 00 80 00 80 01 B0 17 02  1B 00 1D 80 80 66 16 B6  .............f..
1650: 0B 1F 80 2C 80 00 80 B6  80 00 80 B6 80 B6 80 00  ...,............
1660: 80 00 80 01 B0 17 02 1B  00 1F 80 80 85 16 B6 0B  ................
1670: 12 80 2A 80 00 80 4D 80  00 80 4D 80 00 80 00 80  ..*...M...M.....
1680: 00 80 01 B0 17 02 1B 00  12 80 80 A4 16 B6 0B 11  ................
1690: 80 26 80 00 80 54 80 00  80 10 80 10 80 00 80 00  .&...T..........
16A0: 80 01 B0 17 02 1B 00 11  80 80 C3 16 B6 0B 11 80  ................
16B0: 0C 80 00 80 C3 80 00 80  C3 80 C3 80 00 80 00 80  ................
16C0: 01 B0 17 02 1B 00 0C 80  80 E2 16 B6 0B 12 80 11  ................
16D0: 80 00 80 6E 80 00 80 24  80 24 80 00 80 00 80 01  ...n...$.$......
16E0: B0 17 02 1B 00 24 80 80  01 17 B6 0B 18 80 2C 80  .....$........,.
16F0: 00 80 BD 80 00 80 BD 80  BD 80 00 80 00 80 01 B0  ................
1700: 17 02 1B 00 26 80 80 20  17 B6 0B 12 80 2A 80 00  ....&.. .....*..
1710: 80 BD 80 00 80 BD 80 BD  80 00 80 00 80 01 B0 17  ................
1720: 02 1B 00 28 80 80 3F 17  B6 0B 18 80 2C 80 00 80  ...(..?.....,...
1730: BB 80 BB 80 BB 80 BB 80  00 80 00 80 01 B0 17 02  ................
1740: 1B 00 2A 80 80 5E 17 B6  0B 12 80 2A 80 00 80 BB  ..*..^.....*....
1750: 80 BB 80 BB 80 BB 80 00  80 00 80 01 B0 17 02 1B  ................
1760: 00 2C 80 80 7D 17 B6 0B  12 80 0C 80 BC 80 BC 80  .,..}...........
1770: BC 80 BC 80 BC 80 00 80  00 80 01 B0 17 02 1B 00  ................
1780: 10 80 80 9C 17 B6 0B 11  80 26 80 00 80 00 80 00  .........&......
1790: 80 15 80 00 80 00 80 00  80 01 B0 17 B6 0B 05 80  ................
17A0: 05 80 00 80 5A 80 00 80  B6 80 B7 80 00 80 00 80  ....Z...........
17B0: 01 B3 17 00                                       ....            
```

#### Opcodes

```
  0: 0x0F5A [0x03] ExtData[1]->WorkLocal[25] = ExtData[1]->WorkLocal[22]
  1: 0x0F5F [0x14] ExtData[1]->WorkLocal[25] *= 4*
  2: 0x0F64 [0x03] ExtData[1]->WorkLocal[26] = ExtData[1]->WorkLocal[25]
  3: 0x0F69 [0x07] ExtData[1]->WorkLocal[26] += 3*
  4: 0x0F6E [0x41] ExtData[1]->WorkLocal[27] = Work_Zone[40] (bits ExtData[1]->WorkLocal[25]-ExtData[1]->WorkLocal[26])
  5: 0x0F77 [0x02] IF !(ExtData[1]->WorkLocal[22] == 0*) GOTO 0x1186
  6: 0x0F7F [0x02] IF !(ExtData[1]->WorkLocal[27] == 0*) GOTO 0x0F9E
  7: 0x0F87 [0xB6] ENTITY_APPEARANCE_HANDLER(case=Full entity look, race=1*, hair=1*, head=0*, body=38*, hands=0*, legs=131*, feet=96*, main=0*, sub=0*)
  8: 0x0F9B [0x01] GOTO 0x1183
  9: 0x0F9E [0x02] IF !(ExtData[1]->WorkLocal[27] == 1*) GOTO 0x0FBD
 10: 0x0FA6 [0xB6] ENTITY_APPEARANCE_HANDLER(case=Full entity look, race=2*, hair=0*, head=0*, body=31*, hands=0*, legs=31*, feet=31*, main=0*, sub=0*)
 11: 0x0FBA [0x01] GOTO 0x1183
 12: 0x0FBD [0x02] IF !(ExtData[1]->WorkLocal[27] == 2*) GOTO 0x0FDC
 13: 0x0FC5 [0xB6] ENTITY_APPEARANCE_HANDLER(case=Full entity look, race=3*, hair=1*, head=0*, body=96*, hands=0*, legs=131*, feet=96*, main=0*, sub=0*)
 14: 0x0FD9 [0x01] GOTO 0x1183
 15: 0x0FDC [0x02] IF !(ExtData[1]->WorkLocal[27] == 3*) GOTO 0x0FFB
 16: 0x0FE4 [0xB6] ENTITY_APPEARANCE_HANDLER(case=Full entity look, race=4*, hair=0*, head=0*, body=19*, hands=0*, legs=131*, feet=96*, main=0*, sub=0*)
 17: 0x0FF8 [0x01] GOTO 0x1183
 18: 0x0FFB [0x02] IF !(ExtData[1]->WorkLocal[27] == 4*) GOTO 0x101A
 19: 0x1003 [0xB6] ENTITY_APPEARANCE_HANDLER(case=Full entity look, race=5*, hair=0*, head=0*, body=10*, hands=0*, legs=131*, feet=96*, main=0*, sub=0*)
 20: 0x1017 [0x01] GOTO 0x1183
 21: 0x101A [0x02] IF !(ExtData[1]->WorkLocal[27] == 5*) GOTO 0x1039
 22: 0x1022 [0xB6] ENTITY_APPEARANCE_HANDLER(case=Full entity look, race=6*, hair=2*, head=0*, body=107*, hands=0*, legs=107*, feet=107*, main=0*, sub=0*)
 23: 0x1036 [0x01] GOTO 0x1183
 24: 0x1039 [0x02] IF !(ExtData[1]->WorkLocal[27] == 6*) GOTO 0x1058
 25: 0x1041 [0xB6] ENTITY_APPEARANCE_HANDLER(case=Full entity look, race=7*, hair=0*, head=0*, body=31*, hands=0*, legs=31*, feet=0*, main=0*, sub=0*)
 26: 0x1055 [0x01] GOTO 0x1183
 27: 0x1058 [0x02] IF !(ExtData[1]->WorkLocal[27] == 7*) GOTO 0x1077
 28: 0x1060 [0xB6] ENTITY_APPEARANCE_HANDLER(case=Full entity look, race=8*, hair=11*, head=0*, body=31*, hands=0*, legs=31*, feet=31*, main=0*, sub=0*)
 29: 0x1074 [0x01] GOTO 0x1183
 30: 0x1077 [0x02] IF !(ExtData[1]->WorkLocal[27] == 8*) GOTO 0x1096
 31: 0x107F [0xB6] ENTITY_APPEARANCE_HANDLER(case=Full entity look, race=1*, hair=6*, head=0*, body=43*, hands=0*, legs=149*, feet=149*, main=0*, sub=0*)
 32: 0x1093 [0x01] GOTO 0x1183
 33: 0x1096 [0x02] IF !(ExtData[1]->WorkLocal[27] == 9*) GOTO 0x10B5
 34: 0x109E [0xB6] ENTITY_APPEARANCE_HANDLER(case=Full entity look, race=2*, hair=2*, head=0*, body=49*, hands=0*, legs=149*, feet=149*, main=0*, sub=0*)
 35: 0x10B2 [0x01] GOTO 0x1183
 36: 0x10B5 [0x02] IF !(ExtData[1]->WorkLocal[27] == 10*) GOTO 0x10D4
 37: 0x10BD [0xB6] ENTITY_APPEARANCE_HANDLER(case=Full entity look, race=2*, hair=2*, head=0*, body=135*, hands=0*, legs=135*, feet=135*, main=0*, sub=0*)
 38: 0x10D1 [0x01] GOTO 0x1183
 39: 0x10D4 [0x02] IF !(ExtData[1]->WorkLocal[27] == 11*) GOTO 0x10F3
 40: 0x10DC [0xB6] ENTITY_APPEARANCE_HANDLER(case=Full entity look, race=7*, hair=0*, head=0*, body=135*, hands=0*, legs=135*, feet=135*, main=0*, sub=0*)
 41: 0x10F0 [0x01] GOTO 0x1183
 42: 0x10F3 [0x02] IF !(ExtData[1]->WorkLocal[27] == 12*) GOTO 0x1112
 43: 0x10FB [0xB6] ENTITY_APPEARANCE_HANDLER(case=Full entity look, race=2*, hair=0*, head=0*, body=157*, hands=157*, legs=157*, feet=157*, main=0*, sub=0*)
 44: 0x110F [0x01] GOTO 0x1183
 45: 0x1112 [0x02] IF !(ExtData[1]->WorkLocal[27] == 13*) GOTO 0x1131
 46: 0x111A [0xB6] ENTITY_APPEARANCE_HANDLER(case=Full entity look, race=7*, hair=0*, head=0*, body=157*, hands=157*, legs=157*, feet=157*, main=0*, sub=0*)
 47: 0x112E [0x01] GOTO 0x1183
 48: 0x1131 [0x02] IF !(ExtData[1]->WorkLocal[27] == 14*) GOTO 0x1150
 49: 0x1139 [0xB6] ENTITY_APPEARANCE_HANDLER(case=Full entity look, race=2*, hair=2*, head=116*, body=116*, hands=116*, legs=116*, feet=116*, main=0*, sub=0*)
 50: 0x114D [0x01] GOTO 0x1183
 51: 0x1150 [0x02] IF !(ExtData[1]->WorkLocal[27] == 15*) GOTO 0x116F
 52: 0x1158 [0xB6] ENTITY_APPEARANCE_HANDLER(case=Full entity look, race=1*, hair=12*, head=0*, body=0*, hands=0*, legs=32*, feet=0*, main=0*, sub=0*)
 53: 0x116C [0x01] GOTO 0x1183
 54: 0x116F [0xB6] ENTITY_APPEARANCE_HANDLER(case=Full entity look, race=1*, hair=1*, head=0*, body=38*, hands=0*, legs=131*, feet=96*, main=0*, sub=0*)

SUBROUTINE_1183:
 55: 0x1183 [0x01] GOTO 0x17B3
 56: 0x1186 [0x02] IF !(ExtData[1]->WorkLocal[22] == 1*) GOTO 0x1395
 57: 0x118E [0x02] IF !(ExtData[1]->WorkLocal[27] == 0*) GOTO 0x11AD
 58: 0x1196 [0xB6] ENTITY_APPEARANCE_HANDLER(case=Full entity look, race=1*, hair=2*, head=0*, body=39*, hands=0*, legs=131*, feet=96*, main=0*, sub=0*)
 59: 0x11AA [0x01] GOTO 0x1392
 60: 0x11AD [0x02] IF !(ExtData[1]->WorkLocal[27] == 1*) GOTO 0x11CC
 61: 0x11B5 [0xB6] ENTITY_APPEARANCE_HANDLER(case=Full entity look, race=2*, hair=4*, head=0*, body=31*, hands=0*, legs=31*, feet=31*, main=0*, sub=0*)
 62: 0x11C9 [0x01] GOTO 0x1392
 63: 0x11CC [0x02] IF !(ExtData[1]->WorkLocal[27] == 2*) GOTO 0x11EB
 64: 0x11D4 [0xB6] ENTITY_APPEARANCE_HANDLER(case=Full entity look, race=3*, hair=3*, head=0*, body=96*, hands=0*, legs=131*, feet=96*, main=0*, sub=0*)
 65: 0x11E8 [0x01] GOTO 0x1392
 66: 0x11EB [0x02] IF !(ExtData[1]->WorkLocal[27] == 3*) GOTO 0x120A
 67: 0x11F3 [0xB6] ENTITY_APPEARANCE_HANDLER(case=Full entity look, race=4*, hair=5*, head=0*, body=19*, hands=0*, legs=131*, feet=96*, main=0*, sub=0*)
 68: 0x1207 [0x01] GOTO 0x1392
 69: 0x120A [0x02] IF !(ExtData[1]->WorkLocal[27] == 4*) GOTO 0x1229
 70: 0x1212 [0xB6] ENTITY_APPEARANCE_HANDLER(case=Full entity look, race=5*, hair=0*, head=0*, body=46*, hands=0*, legs=46*, feet=46*, main=0*, sub=0*)
 71: 0x1226 [0x01] GOTO 0x1392
 72: 0x1229 [0x02] IF !(ExtData[1]->WorkLocal[27] == 5*) GOTO 0x1248
 73: 0x1231 [0xB6] ENTITY_APPEARANCE_HANDLER(case=Full entity look, race=6*, hair=4*, head=0*, body=57*, hands=0*, legs=57*, feet=57*, main=0*, sub=0*)
 74: 0x1245 [0x01] GOTO 0x1392
 75: 0x1248 [0x02] IF !(ExtData[1]->WorkLocal[27] == 6*) GOTO 0x1267
 76: 0x1250 [0xB6] ENTITY_APPEARANCE_HANDLER(case=Full entity look, race=7*, hair=9*, head=0*, body=31*, hands=0*, legs=31*, feet=0*, main=0*, sub=0*)
 77: 0x1264 [0x01] GOTO 0x1392
 78: 0x1267 [0x02] IF !(ExtData[1]->WorkLocal[27] == 7*) GOTO 0x1286
 79: 0x126F [0xB6] ENTITY_APPEARANCE_HANDLER(case=Full entity look, race=8*, hair=11*, head=0*, body=15*, hands=0*, legs=15*, feet=15*, main=0*, sub=0*)
 80: 0x1283 [0x01] GOTO 0x1392
 81: 0x1286 [0x02] IF !(ExtData[1]->WorkLocal[27] == 8*) GOTO 0x12A5
 82: 0x128E [0xB6] ENTITY_APPEARANCE_HANDLER(case=Full entity look, race=3*, hair=0*, head=0*, body=44*, hands=0*, legs=149*, feet=149*, main=0*, sub=0*)
 83: 0x12A2 [0x01] GOTO 0x1392
 84: 0x12A5 [0x02] IF !(ExtData[1]->WorkLocal[27] == 9*) GOTO 0x12C4
 85: 0x12AD [0xB6] ENTITY_APPEARANCE_HANDLER(case=Full entity look, race=4*, hair=11*, head=0*, body=48*, hands=0*, legs=10*, feet=10*, main=0*, sub=0*)
 86: 0x12C1 [0x01] GOTO 0x1392
 87: 0x12C4 [0x02] IF !(ExtData[1]->WorkLocal[27] == 10*) GOTO 0x12E3
 88: 0x12CC [0xB6] ENTITY_APPEARANCE_HANDLER(case=Full entity look, race=2*, hair=4*, head=0*, body=160*, hands=0*, legs=160*, feet=160*, main=0*, sub=0*)
 89: 0x12E0 [0x01] GOTO 0x1392
 90: 0x12E3 [0x02] IF !(ExtData[1]->WorkLocal[27] == 11*) GOTO 0x1302
 91: 0x12EB [0xB6] ENTITY_APPEARANCE_HANDLER(case=Full entity look, race=7*, hair=9*, head=0*, body=160*, hands=0*, legs=160*, feet=160*, main=0*, sub=0*)
 92: 0x12FF [0x01] GOTO 0x1392
 93: 0x1302 [0x02] IF !(ExtData[1]->WorkLocal[27] == 12*) GOTO 0x1321
 94: 0x130A [0xB6] ENTITY_APPEARANCE_HANDLER(case=Full entity look, race=2*, hair=4*, head=0*, body=157*, hands=157*, legs=157*, feet=157*, main=0*, sub=0*)
 95: 0x131E [0x01] GOTO 0x1392
 96: 0x1321 [0x02] IF !(ExtData[1]->WorkLocal[27] == 13*) GOTO 0x1340
 97: 0x1329 [0xB6] ENTITY_APPEARANCE_HANDLER(case=Full entity look, race=7*, hair=9*, head=0*, body=157*, hands=157*, legs=157*, feet=157*, main=0*, sub=0*)
 98: 0x133D [0x01] GOTO 0x1392
 99: 0x1340 [0x02] IF !(ExtData[1]->WorkLocal[27] == 14*) GOTO 0x135F
100: 0x1348 [0xB6] ENTITY_APPEARANCE_HANDLER(case=Full entity look, race=2*, hair=4*, head=116*, body=116*, hands=116*, legs=116*, feet=116*, main=0*, sub=0*)
101: 0x135C [0x01] GOTO 0x1392
102: 0x135F [0x02] IF !(ExtData[1]->WorkLocal[27] == 15*) GOTO 0x137E
103: 0x1367 [0xB6] ENTITY_APPEARANCE_HANDLER(case=Full entity look, race=1*, hair=8*, head=0*, body=0*, hands=0*, legs=32*, feet=0*, main=0*, sub=0*)
104: 0x137B [0x01] GOTO 0x1392
105: 0x137E [0xB6] ENTITY_APPEARANCE_HANDLER(case=Full entity look, race=1*, hair=2*, head=0*, body=39*, hands=0*, legs=131*, feet=96*, main=0*, sub=0*)

SUBROUTINE_1392:
106: 0x1392 [0x01] GOTO 0x17B3
107: 0x1395 [0x02] IF !(ExtData[1]->WorkLocal[22] == 2*) GOTO 0x15A4
108: 0x139D [0x02] IF !(ExtData[1]->WorkLocal[27] == 0*) GOTO 0x13BC
109: 0x13A5 [0xB6] ENTITY_APPEARANCE_HANDLER(case=Full entity look, race=1*, hair=5*, head=0*, body=24*, hands=0*, legs=131*, feet=96*, main=0*, sub=0*)
110: 0x13B9 [0x01] GOTO 0x15A1
111: 0x13BC [0x02] IF !(ExtData[1]->WorkLocal[27] == 1*) GOTO 0x13DB
112: 0x13C4 [0xB6] ENTITY_APPEARANCE_HANDLER(case=Full entity look, race=2*, hair=7*, head=0*, body=31*, hands=0*, legs=31*, feet=31*, main=0*, sub=0*)
113: 0x13D8 [0x01] GOTO 0x15A1
114: 0x13DB [0x02] IF !(ExtData[1]->WorkLocal[27] == 2*) GOTO 0x13FA
115: 0x13E3 [0xB6] ENTITY_APPEARANCE_HANDLER(case=Full entity look, race=3*, hair=1*, head=125*, body=96*, hands=0*, legs=131*, feet=96*, main=0*, sub=0*)
116: 0x13F7 [0x01] GOTO 0x15A1
117: 0x13FA [0x02] IF !(ExtData[1]->WorkLocal[27] == 3*) GOTO 0x1419
118: 0x1402 [0xB6] ENTITY_APPEARANCE_HANDLER(case=Full entity look, race=4*, hair=10*, head=0*, body=101*, hands=0*, legs=131*, feet=96*, main=0*, sub=0*)
119: 0x1416 [0x01] GOTO 0x15A1
120: 0x1419 [0x02] IF !(ExtData[1]->WorkLocal[27] == 4*) GOTO 0x1438
121: 0x1421 [0xB6] ENTITY_APPEARANCE_HANDLER(case=Full entity look, race=5*, hair=0*, head=0*, body=47*, hands=0*, legs=47*, feet=47*, main=0*, sub=0*)
122: 0x1435 [0x01] GOTO 0x15A1
123: 0x1438 [0x02] IF !(ExtData[1]->WorkLocal[27] == 5*) GOTO 0x1457
124: 0x1440 [0xB6] ENTITY_APPEARANCE_HANDLER(case=Full entity look, race=6*, hair=9*, head=0*, body=130*, hands=0*, legs=130*, feet=130*, main=0*, sub=0*)
125: 0x1454 [0x01] GOTO 0x15A1
126: 0x1457 [0x02] IF !(ExtData[1]->WorkLocal[27] == 6*) GOTO 0x1476
127: 0x145F [0xB6] ENTITY_APPEARANCE_HANDLER(case=Full entity look, race=7*, hair=10*, head=0*, body=31*, hands=0*, legs=31*, feet=0*, main=0*, sub=0*)
128: 0x1473 [0x01] GOTO 0x15A1
129: 0x1476 [0x02] IF !(ExtData[1]->WorkLocal[27] == 7*) GOTO 0x1495
130: 0x147E [0xB6] ENTITY_APPEARANCE_HANDLER(case=Full entity look, race=8*, hair=11*, head=0*, body=56*, hands=0*, legs=15*, feet=56*, main=0*, sub=0*)
131: 0x1492 [0x01] GOTO 0x15A1
132: 0x1495 [0x02] IF !(ExtData[1]->WorkLocal[27] == 8*) GOTO 0x14B4
133: 0x149D [0xB6] ENTITY_APPEARANCE_HANDLER(case=Full entity look, race=5*, hair=10*, head=0*, body=134*, hands=0*, legs=134*, feet=134*, main=0*, sub=0*)
