# 16982357 - Bajhaam

## Common Data

| Field            | Value                         |
|------------------|-------------------------------|
| Zone             | Aht Urhgan Whitegate (ID: 50) |
| Block Size       | 180 bytes                     |
| Total Events     | 5                             |
| References Count | 10                            |

## List of Events

| Event ID                 | Entrypoint   |   Size |   Instructions |
|--------------------------|--------------|--------|----------------|
| [65535](#event-65535)    | 0x0000       |      1 |              1 |
| [859](#event-859)        | 0x0001       |      7 |              2 |
| [872](#event-872)        | 0x0008       |      7 |              2 |
| [65535.1](#event-655351) | 0x000F       |     40 |              8 |
| [65535.2](#event-655352) | 0x0037       |     49 |              9 |

## DAT References (imed_data)

|   Index | Hex Value   |   Dec Value |
|---------|-------------|-------------|
|       0 | 0x003C      |          60 |
|       1 | 0x000D      |          13 |
|       2 | 0xFFFE63D6  |  4294861782 |
|       3 | 0x31A5      |       12709 |
|       4 | 0x0000      |           0 |
|       5 | 0x0078      |         120 |
|       6 | 0x1C71      |        7281 |
|       7 | 0x066A      |        1642 |
|       8 | 0x0003      |           3 |
|       9 | 0x1C72      |        7282 |

## String References

- **7281**: Hm? I could have sworn I felt something brush up against my vest...
- **7282**: My--my wallet is gone!

## Events

### Event 65535

#### Metadata

| Field        | Value   |
|--------------|---------|
| Entrypoint   | 0x0000  |
| Data Size    | 1 bytes |
| Instructions | 1       |

```
      00 01 02 03 04 05 06 07  08 09 0A 0B 0C 0D 0E 0F
      -- -- -- -- -- -- -- --  -- -- -- -- -- -- -- --
0000: 00                                                .               
```

#### Opcodes

```
  0: 0x0000 [0x00] END_REQSTACK()
```

### Event 859

#### Metadata

| Field        | Value   |
|--------------|---------|
| Entrypoint   | 0x0001  |
| Data Size    | 7 bytes |
| Instructions | 2       |

```
      00 01 02 03 04 05 06 07  08 09 0A 0B 0C 0D 0E 0F
      -- -- -- -- -- -- -- --  -- -- -- -- -- -- -- --
0000:    92 01 F8 FF FF 7F 00                            .......        
```

#### Opcodes

```
  0: 0x0001 [0x92] EventEntity->Render.Flags3 ^= 0x01
  1: 0x0007 [0x00] END_REQSTACK()
```

### Event 872

#### Metadata

| Field        | Value   |
|--------------|---------|
| Entrypoint   | 0x0008  |
| Data Size    | 7 bytes |
| Instructions | 2       |

```
      00 01 02 03 04 05 06 07  08 09 0A 0B 0C 0D 0E 0F
      -- -- -- -- -- -- -- --  -- -- -- -- -- -- -- --
0000:                          92 01 F8 FF FF 7F 00             ....... 
```

#### Opcodes

```
  0: 0x0008 [0x92] EventEntity->Render.Flags3 ^= 0x01
  1: 0x000E [0x00] END_REQSTACK()
```

### Event 65535.1

#### Metadata

| Field        | Value    |
|--------------|----------|
| Entrypoint   | 0x000F   |
| Data Size    | 40 bytes |
| Instructions | 8        |

```
      00 01 02 03 04 05 06 07  08 09 0A 0B 0C 0D 0E 0F
      -- -- -- -- -- -- -- --  -- -- -- -- -- -- -- --
0000:                                               1C                 .
0010: 00 80 32 01 80 1F 00 02  80 03 80 04 80 1F 01 1E  ..2.............
0020: 6C 20 03 01 1C 05 80 66  04 80 F8 FF FF 7F F8 FF  l .....f........
0030: FF 7F 74 68 6B 31 00                              ..thk1.         
```

#### Opcodes

```
  0: 0x000F [0x1C] WAIT(60* ticks)
  1: 0x0012 [0x32] ExtData[1]->MainSpeed = 13* * 0.1
  2: 0x0015 [0x1F] MOVE_ENTITY: EventEntity moves to X=-105.514*, Z=12.709*, Y=0.000*
  3: 0x001D [0x1F] MOVE_ENTITY: Update entity position (mode=1)
  4: 0x001F [0x1E] EventEntity looks at Zyfhil (ID: 16982124/0x0103206C) and starts talking
  5: 0x0024 [0x1C] WAIT(120* ticks)
  6: 0x0027 [0x66] LOAD_EXT_SCHEDULER_MAIN: Load scheduler "thk1" with entities [EventEntity, EventEntity], work=0*
  7: 0x0036 [0x00] END_REQSTACK()
```

### Event 65535.2

#### Metadata

| Field        | Value    |
|--------------|----------|
| Entrypoint   | 0x0037   |
| Data Size    | 49 bytes |
| Instructions | 9        |

```
      00 01 02 03 04 05 06 07  08 09 0A 0B 0C 0D 0E 0F
      -- -- -- -- -- -- -- --  -- -- -- -- -- -- -- --
0030:                      66  04 80 F8 FF FF 7F F8 FF         f........
0040: FF 7F 74 68 6B 32 1D 06  80 23 4B 55 21 03 01 07  ..thk2...#KU!...
0050: 80 1C 00 80 66 08 80 F8  FF FF 7F F8 FF FF 7F 73  ....f..........s
0060: 64 6F 30 1D 09 80 23 00                           do0...#.        
```

#### Opcodes

```
  0: 0x0037 [0x66] LOAD_EXT_SCHEDULER_MAIN: Load scheduler "thk2" with entities [EventEntity, EventEntity], work=0*
  1: 0x0046 [0x1D] PRINT_EVENT_MESSAGE(message_id=7281*)
    → "Hm? I could have sworn I felt something brush up against my vest..."
  2: 0x0049 [0x23] WAIT_FOR_DIALOG_INTERACTION
  3: 0x004A [0x4B] UPDATE_ENTITY_YAW(entity=Bajhaam (ID: 16982357/0x01032155), yaw=9.0°*)
  4: 0x0051 [0x1C] WAIT(60* ticks)
  5: 0x0054 [0x66] LOAD_EXT_SCHEDULER_MAIN: Load scheduler "sdo0" with entities [EventEntity, EventEntity], work=3*
  6: 0x0063 [0x1D] PRINT_EVENT_MESSAGE(message_id=7282*)
    → "My--my wallet is gone!"
  7: 0x0066 [0x23] WAIT_FOR_DIALOG_INTERACTION
  8: 0x0067 [0x00] END_REQSTACK()
```
