# 16982032 - Tazhaal

## Common Data

| Field            | Value                         |
|------------------|-------------------------------|
| Zone             | Aht Urhgan Whitegate (ID: 50) |
| Block Size       | 168 bytes                     |
| Total Events     | 3                             |
| References Count | 9                             |

## List of Events

| Event ID              | Entrypoint   |   Size |   Instructions |
|-----------------------|--------------|--------|----------------|
| [65535](#event-65535) | 0x0000       |      1 |              1 |
| [221](#event-221)     | 0x0001       |     99 |             23 |
| [3097](#event-3097)   | 0x0064       |      1 |              1 |

## DAT References (imed_data)

|   Index | Hex Value   |   Dec Value |
|---------|-------------|-------------|
|       0 | 0x000A      |          10 |
|       1 | 0x123C      |        4668 |
|       2 | 0x123D      |        4669 |
|       3 | 0x0000      |           0 |
|       4 | 0x0064      |         100 |
|       5 | 0x000B      |          11 |
|       6 | 0x1240      |        4672 |
|       7 | 0x014D      |         333 |
|       8 | 0x1241      |        4673 |

## String References

- **4668**: The ship fare to Mhaura is $1 gil. Will you be boarding now?
- **4669**: Board the ship to Mhaura? [Yes, please./Not right now.]
- **4672**: Thank you. Please go to the pier now, and have a safe trip!
- **4673**: I am sorry, but it seems you do not have enough gil.

## Events

### Event 65535

#### Metadata

| Field        | Value   |
|--------------|---------|
| Entrypoint   | 0x0000  |
| Data Size    | 1 bytes |
| Instructions | 1       |

```
      00 01 02 03 04 05 06 07  08 09 0A 0B 0C 0D 0E 0F
      -- -- -- -- -- -- -- --  -- -- -- -- -- -- -- --
0000: 00                                                .               
```

#### Opcodes

```
  0: 0x0000 [0x00] END_REQSTACK()
```

### Event 221

#### Metadata

| Field        | Value    |
|--------------|----------|
| Entrypoint   | 0x0001   |
| Data Size    | 99 bytes |
| Instructions | 23       |

```
      00 01 02 03 04 05 06 07  08 09 0A 0B 0C 0D 0E 0F
      -- -- -- -- -- -- -- --  -- -- -- -- -- -- -- --
0000:    42 1E F0 FF FF 7F 6F  70 66 00 80 F8 FF FF 7F   B.....opf......
0010: F8 FF FF 7F 74 6C 6B 30  1D 01 80 23 5E 69 64 6C  ....tlk0...#^idl
0020: 30 24 02 80 03 80 03 80  25 02 00 10 03 80 00 62  0$......%......b
0030: 00 02 02 10 04 80 04 5B  00 66 05 80 F8 FF FF 7F  .......[.f......
0040: F8 FF FF 7F 6B 61 73 30  1D 06 80 23 03 01 10 07  ....kas0...#....
0050: 80 29 80 F0 FF FF 7F 14  01 5F 00 1D 08 80 23 01  .)......._....#.
0060: 62 00 21 00                                       b.!.            
```

#### Opcodes

```
  0: 0x0001 [0x42] SET_CLI_EVENT_CANCEL_DATA()
  1: 0x0002 [0x1E] EventEntity looks at LocalPlayer and starts talking
  2: 0x0007 [0x6F] WAIT_FRAME_DELAY: Yield until WaitTime reaches zero
  3: 0x0008 [0x70] WAIT_ENTITY_RENDER_FLAG: Wait while EventEntity->Render.Flags3 bit 2 is set (cancel turn if not)
  4: 0x0009 [0x66] LOAD_EXT_SCHEDULER_MAIN: Load scheduler "tlk0" with entities [EventEntity, EventEntity], work=10*
  5: 0x0018 [0x1D] PRINT_EVENT_MESSAGE(message_id=4668*)
    → "The ship fare to Mhaura is $1 gil. Will you be boarding now?"
  6: 0x001B [0x23] WAIT_FOR_DIALOG_INTERACTION
  7: 0x001C [0x5E] EventEntity goes idle (kills current action) (animation: "idl0")
  8: 0x0021 [0x24] CREATE_DIALOG(message_id=4669*, default_option=0*, option_flags=0*)
    → "Board the ship to Mhaura? [Yes, please./Not right now.]"
  9: 0x0028 [0x25] WAIT_DIALOG_SELECT()
 10: 0x0029 [0x02] IF !(Work_Zone[0] == 0*) GOTO 0x0062
 11: 0x0031 [0x02] IF !(Work_Zone[2] < 100*) GOTO 0x005B
 12: 0x0039 [0x66] LOAD_EXT_SCHEDULER_MAIN: Load scheduler "kas0" with entities [EventEntity, EventEntity], work=11*
 13: 0x0048 [0x1D] PRINT_EVENT_MESSAGE(message_id=4672*)
    → "Thank you. Please go to the pier now, and have a safe trip!"
 14: 0x004B [0x23] WAIT_FOR_DIALOG_INTERACTION
 15: 0x004C [0x03] Work_Zone[1] = 333*
 16: 0x0051 [0x29] REQ_SET_WAIT(priority=0x80, entity_id=LocalPlayer, tag_num=0x14)
 17: 0x0058 [0x01] GOTO 0x005F
 18: 0x005B [0x1D] PRINT_EVENT_MESSAGE(message_id=4673*)
    → "I am sorry, but it seems you do not have enough gil."
 19: 0x005E [0x23] WAIT_FOR_DIALOG_INTERACTION

SUBROUTINE_005F:
 20: 0x005F [0x01] GOTO 0x0062

SUBROUTINE_0062:
 21: 0x0062 [0x21] END_EVENT
 22: 0x0063 [0x00] END_REQSTACK()
```

### Event 3097

#### Metadata

| Field        | Value   |
|--------------|---------|
| Entrypoint   | 0x0064  |
| Data Size    | 1 bytes |
| Instructions | 1       |

```
      00 01 02 03 04 05 06 07  08 09 0A 0B 0C 0D 0E 0F
      -- -- -- -- -- -- -- --  -- -- -- -- -- -- -- --
0060:             00                                        .           
```

#### Opcodes

```
  0: 0x0064 [0x00] END_REQSTACK()
```
