# 16982328 - Yafahb

## Common Data

| Field            | Value                         |
|------------------|-------------------------------|
| Zone             | Aht Urhgan Whitegate (ID: 50) |
| Block Size       | 268 bytes                     |
| Total Events     | 6                             |
| References Count | 21                            |

## List of Events

| Event ID                 | Entrypoint   |   Size |   Instructions |
|--------------------------|--------------|--------|----------------|
| [65535](#event-65535)    | 0x0000       |      1 |              1 |
| [784](#event-784)        | 0x0001       |     10 |              2 |
| [65535.1](#event-655351) | 0x000B       |     20 |              6 |
| [774](#event-774)        | 0x001F       |     12 |              3 |
| [65535.2](#event-655352) | 0x002B       |     97 |             13 |
| [65535.3](#event-655353) | 0x008C       |      4 |              2 |

## DAT References (imed_data)

|   Index | Hex Value   |   Dec Value |
|---------|-------------|-------------|
|       0 | 0x16F68     |       94056 |
|       1 | 0xFFFF8F26  |  4294938406 |
|       2 | 0xFFFFE891  |  4294961297 |
|       3 | 0x002E      |          46 |
|       4 | 0x0028      |          40 |
|       5 | 0x186E5     |      100069 |
|       6 | 0xFFFF8CF5  |  4294937845 |
|       7 | 0xFFFE5823  |  4294858787 |
|       8 | 0xFFFFDF25  |  4294958885 |
|       9 | 0x0000      |           0 |
|      10 | 0x0FA6      |        4006 |
|      11 | 0xFFFE59F4  |  4294859252 |
|      12 | 0xFFFFE33D  |  4294959933 |
|      13 | 0x017D      |         381 |
|      14 | 0x0006      |           6 |
|      15 | 0xFFFE5F8E  |  4294860686 |
|      16 | 0xFFFFE606  |  4294960646 |
|      17 | 0x0009      |           9 |
|      18 | 0xFFFE6380  |  4294861696 |
|      19 | 0xFFFFE570  |  4294960496 |
|      20 | 0x005A      |          90 |

## Events

### Event 65535

#### Metadata

| Field        | Value   |
|--------------|---------|
| Entrypoint   | 0x0000  |
| Data Size    | 1 bytes |
| Instructions | 1       |

```
      00 01 02 03 04 05 06 07  08 09 0A 0B 0C 0D 0E 0F
      -- -- -- -- -- -- -- --  -- -- -- -- -- -- -- --
0000: 00                                                .               
```

#### Opcodes

```
  0: 0x0000 [0x00] END_REQSTACK()
```

### Event 784

#### Metadata

| Field        | Value    |
|--------------|----------|
| Entrypoint   | 0x0001   |
| Data Size    | 10 bytes |
| Instructions | 2        |

```
      00 01 02 03 04 05 06 07  08 09 0A 0B 0C 0D 0E 0F
      -- -- -- -- -- -- -- --  -- -- -- -- -- -- -- --
0000:    37 00 80 01 80 02 80  03 80 00                  7.........     
```

#### Opcodes

```
  0: 0x0001 [0x37] UPDATE_EVENT_POSITION_AND_DIR: x=94.056*, z=-28.890*, y=-5.999*, direction=4.0°*
  1: 0x000A [0x00] END_REQSTACK()
```

### Event 65535.1

#### Metadata

| Field        | Value    |
|--------------|----------|
| Entrypoint   | 0x000B   |
| Data Size    | 20 bytes |
| Instructions | 6        |

```
      00 01 02 03 04 05 06 07  08 09 0A 0B 0C 0D 0E 0F
      -- -- -- -- -- -- -- --  -- -- -- -- -- -- -- --
0000:                                   32 04 80 1F 00             2....
0010: 05 80 06 80 02 80 1F 01  6F 1E 35 21 03 01 00     ........o.5!... 
```

#### Opcodes

```
  0: 0x000B [0x32] ExtData[1]->MainSpeed = 40* * 0.1
  1: 0x000E [0x1F] MOVE_ENTITY: EventEntity moves to X=100.069*, Z=-29.451*, Y=-5.999*
  2: 0x0016 [0x1F] MOVE_ENTITY: Update entity position (mode=1)
  3: 0x0018 [0x6F] WAIT_FRAME_DELAY: Yield until WaitTime reaches zero
  4: 0x0019 [0x1E] EventEntity looks at Iruki-Waraki (ID: 16982325/0x01032135) and starts talking
  5: 0x001E [0x00] END_REQSTACK()
```

### Event 774

#### Metadata

| Field        | Value    |
|--------------|----------|
| Entrypoint   | 0x001F   |
| Data Size    | 12 bytes |
| Instructions | 3        |

```
      00 01 02 03 04 05 06 07  08 09 0A 0B 0C 0D 0E 0F
      -- -- -- -- -- -- -- --  -- -- -- -- -- -- -- --
0010:                                               22                 "
0020: 00 37 07 80 08 80 09 80  0A 80 00                 .7.........     
```

#### Opcodes

```
  0: 0x001F [0x22] ENTITY_HIDE_FLAG(enabled=0x00)
  1: 0x0021 [0x37] UPDATE_EVENT_POSITION_AND_DIR: x=-108.509*, z=-8.411*, y=0.000*, direction=352.1°*
  2: 0x002A [0x00] END_REQSTACK()
```

### Event 65535.2

#### Metadata

| Field        | Value    |
|--------------|----------|
| Entrypoint   | 0x002B   |
| Data Size    | 97 bytes |
| Instructions | 13       |

```
      00 01 02 03 04 05 06 07  08 09 0A 0B 0C 0D 0E 0F
      -- -- -- -- -- -- -- --  -- -- -- -- -- -- -- --
0020:                                   37 0B 80 0C 80             7....
0030: 09 80 0D 80 32 0E 80 1F  00 0F 80 10 80 09 80 1F  ....2...........
0040: 01 66 11 80 38 21 03 01  38 21 03 01 73 68 61 30  .f..8!..8!..sha0
0050: 53 38 21 03 01 38 21 03  01 73 68 61 30 4E 01 37  S8!..8!..sha0N.7
0060: 21 03 01 66 11 80 38 21  03 01 38 21 03 01 73 68  !..f..8!..8!..sh
0070: 61 31 53 38 21 03 01 38  21 03 01 73 68 61 31 1F  a1S8!..8!..sha1.
0080: 00 12 80 13 80 09 80 1F  01 22 01 00              ........."..    
```

#### Opcodes

```
  0: 0x002B [0x37] UPDATE_EVENT_POSITION_AND_DIR: x=-108.044*, z=-7.363*, y=0.000*, direction=33.5°*
  1: 0x0034 [0x32] ExtData[1]->MainSpeed = 6* * 0.1
  2: 0x0037 [0x1F] MOVE_ENTITY: EventEntity moves to X=-106.610*, Z=-6.650*, Y=0.000*
  3: 0x003F [0x1F] MOVE_ENTITY: Update entity position (mode=1)
  4: 0x0041 [0x66] LOAD_EXT_SCHEDULER_MAIN: Load scheduler "sha0" with entities [Yafahb (ID: 16982328/0x01032138), Yafahb (ID: 16982328/0x01032138)], work=9*
  5: 0x0050 [0x53] WAIT_SCHEDULER_TASK: Wait for scheduler "sha0" with entities [Yafahb (ID: 16982328/0x01032138), Yafahb (ID: 16982328/0x01032138)]
  6: 0x005D [0x4E] SET_ENTITY_HIDE_FLAG: Hide Elisabeth (ID: 16982327/0x01032137)
  7: 0x0063 [0x66] LOAD_EXT_SCHEDULER_MAIN: Load scheduler "sha1" with entities [Yafahb (ID: 16982328/0x01032138), Yafahb (ID: 16982328/0x01032138)], work=9*
  8: 0x0072 [0x53] WAIT_SCHEDULER_TASK: Wait for scheduler "sha1" with entities [Yafahb (ID: 16982328/0x01032138), Yafahb (ID: 16982328/0x01032138)]
  9: 0x007F [0x1F] MOVE_ENTITY: EventEntity moves to X=-105.600*, Z=-6.800*, Y=0.000*
 10: 0x0087 [0x1F] MOVE_ENTITY: Update entity position (mode=1)
 11: 0x0089 [0x22] ENTITY_HIDE_FLAG(enabled=0x01)
 12: 0x008B [0x00] END_REQSTACK()
```

### Event 65535.3

#### Metadata

| Field        | Value   |
|--------------|---------|
| Entrypoint   | 0x008C  |
| Data Size    | 4 bytes |
| Instructions | 2       |

```
      00 01 02 03 04 05 06 07  08 09 0A 0B 0C 0D 0E 0F
      -- -- -- -- -- -- -- --  -- -- -- -- -- -- -- --
0080:                                      1C 14 80 00              ....
```

#### Opcodes

```
  0: 0x008C [0x1C] WAIT(90* ticks)
  1: 0x008F [0x00] END_REQSTACK()
```
