# 16982108 - Qahzwin

## Common Data

| Field            | Value                         |
|------------------|-------------------------------|
| Zone             | Aht Urhgan Whitegate (ID: 50) |
| Block Size       | 240 bytes                     |
| Total Events     | 6                             |
| References Count | 11                            |

## List of Events

| Event ID                 | Entrypoint   |   Size |   Instructions |
|--------------------------|--------------|--------|----------------|
| [65535](#event-65535)    | 0x0000       |      1 |              1 |
| [244](#event-244)        | 0x0001       |     44 |              8 |
| [868](#event-868)        | 0x002D       |      7 |              2 |
| [65535.1](#event-655351) | 0x0034       |     78 |             20 |
| [872](#event-872)        | 0x0082       |      7 |              2 |
| [65535.2](#event-655352) | 0x0089       |     17 |              5 |

## DAT References (imed_data)

|   Index | Hex Value   |   Dec Value |
|---------|-------------|-------------|
|       0 | 0x001E      |          30 |
|       1 | 0x0014      |          20 |
|       2 | 0x2458      |        9304 |
|       3 | 0x0028      |          40 |
|       4 | 0x14F14     |       85780 |
|       5 | 0xFFFFECC5  |  4294962373 |
|       6 | 0x0000      |           0 |
|       7 | 0x003C      |          60 |
|       8 | 0x178F6     |       96502 |
|       9 | 0xFFFFEDA2  |  4294962594 |
|      10 | 0x0001      |           1 |

## String References

- **9304**: Welcome to the Chamber of Passage. You must have permission from the Imperial Army if you want to use the runic portal inside.

## Events

### Event 65535

#### Metadata

| Field        | Value   |
|--------------|---------|
| Entrypoint   | 0x0000  |
| Data Size    | 1 bytes |
| Instructions | 1       |

```
      00 01 02 03 04 05 06 07  08 09 0A 0B 0C 0D 0E 0F
      -- -- -- -- -- -- -- --  -- -- -- -- -- -- -- --
0000: 00                                                .               
```

#### Opcodes

```
  0: 0x0000 [0x00] END_REQSTACK()
```

### Event 244

#### Metadata

| Field        | Value    |
|--------------|----------|
| Entrypoint   | 0x0001   |
| Data Size    | 44 bytes |
| Instructions | 8        |

```
      00 01 02 03 04 05 06 07  08 09 0A 0B 0C 0D 0E 0F
      -- -- -- -- -- -- -- --  -- -- -- -- -- -- -- --
0000:    1E F0 FF FF 7F 1C 00  80 66 01 80 F8 FF FF 7F   ........f......
0010: F8 FF FF 7F 74 6C 6B 30  1D 02 80 23 66 01 80 F8  ....tlk0...#f...
0020: FF FF 7F F8 FF FF 7F 74  6C 6B 31 21 00           .......tlk1!.   
```

#### Opcodes

```
  0: 0x0001 [0x1E] EventEntity looks at LocalPlayer and starts talking
  1: 0x0006 [0x1C] WAIT(30* ticks)
  2: 0x0009 [0x66] LOAD_EXT_SCHEDULER_MAIN: Load scheduler "tlk0" with entities [EventEntity, EventEntity], work=20*
  3: 0x0018 [0x1D] PRINT_EVENT_MESSAGE(message_id=9304*)
    → "Welcome to the Chamber of Passage. You must have permission from the Imperial Army if you want to use the runic portal inside."
  4: 0x001B [0x23] WAIT_FOR_DIALOG_INTERACTION
  5: 0x001C [0x66] LOAD_EXT_SCHEDULER_MAIN: Load scheduler "tlk1" with entities [EventEntity, EventEntity], work=20*
  6: 0x002B [0x21] END_EVENT
  7: 0x002C [0x00] END_REQSTACK()
```

### Event 868

#### Metadata

| Field        | Value   |
|--------------|---------|
| Entrypoint   | 0x002D  |
| Data Size    | 7 bytes |
| Instructions | 2       |

```
      00 01 02 03 04 05 06 07  08 09 0A 0B 0C 0D 0E 0F
      -- -- -- -- -- -- -- --  -- -- -- -- -- -- -- --
0020:                                         92 01 F8               ...
0030: FF FF 7F 00                                       ....            
```

#### Opcodes

```
  0: 0x002D [0x92] EventEntity->Render.Flags3 ^= 0x01
  1: 0x0033 [0x00] END_REQSTACK()
```

### Event 65535.1

#### Metadata

| Field        | Value    |
|--------------|----------|
| Entrypoint   | 0x0034   |
| Data Size    | 78 bytes |
| Instructions | 20       |

```
      00 01 02 03 04 05 06 07  08 09 0A 0B 0C 0D 0E 0F
      -- -- -- -- -- -- -- --  -- -- -- -- -- -- -- --
0030:             32 03 80 1F  00 04 80 05 80 06 80 1F      2...........
0040: 01 1C 07 80 32 03 80 1F  00 08 80 09 80 06 80 1F  ....2...........
0050: 01 1C 00 80 03 25 10 0A  80 1C 00 80 32 03 80 1F  .....%......2...
0060: 00 04 80 05 80 06 80 1F  01 1C 07 80 32 03 80 1F  ............2...
0070: 00 08 80 09 80 06 80 1F  01 03 26 10 0A 80 B4 06  ..........&.....
0080: 00 00                                             ..              
```

#### Opcodes

```
  0: 0x0034 [0x32] ExtData[1]->MainSpeed = 40* * 0.1
  1: 0x0037 [0x1F] MOVE_ENTITY: EventEntity moves to X=85.780*, Z=-4.923*, Y=0.000*
  2: 0x003F [0x1F] MOVE_ENTITY: Update entity position (mode=1)
  3: 0x0041 [0x1C] WAIT(60* ticks)
  4: 0x0044 [0x32] ExtData[1]->MainSpeed = 40* * 0.1
  5: 0x0047 [0x1F] MOVE_ENTITY: EventEntity moves to X=96.502*, Z=-4.702*, Y=0.000*
  6: 0x004F [0x1F] MOVE_ENTITY: Update entity position (mode=1)
  7: 0x0051 [0x1C] WAIT(30* ticks)
  8: 0x0054 [0x03] Work_Zone[37] = 1*
  9: 0x0059 [0x1C] WAIT(30* ticks)
 10: 0x005C [0x32] ExtData[1]->MainSpeed = 40* * 0.1
 11: 0x005F [0x1F] MOVE_ENTITY: EventEntity moves to X=85.780*, Z=-4.923*, Y=0.000*
 12: 0x0067 [0x1F] MOVE_ENTITY: Update entity position (mode=1)
 13: 0x0069 [0x1C] WAIT(60* ticks)
 14: 0x006C [0x32] ExtData[1]->MainSpeed = 40* * 0.1
 15: 0x006F [0x1F] MOVE_ENTITY: EventEntity moves to X=96.502*, Z=-4.702*, Y=0.000*
 16: 0x0077 [0x1F] MOVE_ENTITY: Update entity position (mode=1)
 17: 0x0079 [0x03] Work_Zone[38] = 1*
 18: 0x007E [0xB4] UI_WINDOW_STRING_HANDLER(case=0x06 - Toggle query message flag, flag_value=0x00)
 19: 0x0081 [0x00] END_REQSTACK()
```

### Event 872

#### Metadata

| Field        | Value   |
|--------------|---------|
| Entrypoint   | 0x0082  |
| Data Size    | 7 bytes |
| Instructions | 2       |

```
      00 01 02 03 04 05 06 07  08 09 0A 0B 0C 0D 0E 0F
      -- -- -- -- -- -- -- --  -- -- -- -- -- -- -- --
0080:       92 01 F8 FF FF 7F  00                         .......       
```

#### Opcodes

```
  0: 0x0082 [0x92] EventEntity->Render.Flags3 ^= 0x01
  1: 0x0088 [0x00] END_REQSTACK()
```

### Event 65535.2

#### Metadata

| Field        | Value    |
|--------------|----------|
| Entrypoint   | 0x0089   |
| Data Size    | 17 bytes |
| Instructions | 5        |

```
      00 01 02 03 04 05 06 07  08 09 0A 0B 0C 0D 0E 0F
      -- -- -- -- -- -- -- --  -- -- -- -- -- -- -- --
0080:                             1C 07 80 32 03 80 1F           ...2...
0090: 00 08 80 09 80 06 80 1F  01 00                    ..........      
```

#### Opcodes

```
  0: 0x0089 [0x1C] WAIT(60* ticks)
  1: 0x008C [0x32] ExtData[1]->MainSpeed = 40* * 0.1
  2: 0x008F [0x1F] MOVE_ENTITY: EventEntity moves to X=96.502*, Z=-4.702*, Y=0.000*
  3: 0x0097 [0x1F] MOVE_ENTITY: Update entity position (mode=1)
  4: 0x0099 [0x00] END_REQSTACK()
```
