# 16982302 - Lathuya

## Common Data

| Field            | Value                         |
|------------------|-------------------------------|
| Zone             | Aht Urhgan Whitegate (ID: 50) |
| Block Size       | 3616 bytes                    |
| Total Events     | 36                            |
| References Count | 43                            |

## List of Events

| Event ID                 | Entrypoint   |   Size |   Instructions |
|--------------------------|--------------|--------|----------------|
| [65535](#event-65535)    | 0x0000       |      1 |              1 |
| [770](#event-770)        | 0x0001       |     83 |             13 |
| [771](#event-771)        | 0x0054       |     53 |             11 |
| [714](#event-714)        | 0x0089       |      1 |              1 |
| [715](#event-715)        | 0x008A       |    132 |             22 |
| [716](#event-716)        | 0x010E       |      1 |              1 |
| [718](#event-718)        | 0x010F       |     53 |             11 |
| [730](#event-730)        | 0x0144       |      1 |              1 |
| [731](#event-731)        | 0x0145       |    356 |             63 |
| [732](#event-732)        | 0x02A9       |    196 |             47 |
| [733](#event-733)        | 0x036D       |    144 |             31 |
| [734](#event-734)        | 0x03FD       |    154 |             35 |
| [735](#event-735)        | 0x0497       |     60 |             10 |
| [736](#event-736)        | 0x04D3       |      1 |              1 |
| [737](#event-737)        | 0x04D4       |     53 |             11 |
| [738](#event-738)        | 0x0509       |      1 |              1 |
| [739](#event-739)        | 0x050A       |    356 |             63 |
| [740](#event-740)        | 0x066E       |    196 |             47 |
| [741](#event-741)        | 0x0732       |    144 |             31 |
| [742](#event-742)        | 0x07C2       |    154 |             35 |
| [743](#event-743)        | 0x085C       |     60 |             10 |
| [744](#event-744)        | 0x0898       |      1 |              1 |
| [745](#event-745)        | 0x0899       |     53 |             11 |
| [746](#event-746)        | 0x08CE       |      1 |              1 |
| [747](#event-747)        | 0x08CF       |    356 |             63 |
| [748](#event-748)        | 0x0A33       |    196 |             47 |
| [749](#event-749)        | 0x0AF7       |    144 |             31 |
| [750](#event-750)        | 0x0B87       |    154 |             35 |
| [751](#event-751)        | 0x0C21       |     60 |             10 |
| [752](#event-752)        | 0x0C5D       |      1 |              1 |
| [753](#event-753)        | 0x0C5E       |     60 |             10 |
| [65535.1](#event-655351) | 0x0C9A       |      4 |              2 |
| [65535.2](#event-655352) | 0x0C9E       |      2 |              2 |
| [65535.3](#event-655353) | 0x0CA0       |      9 |              3 |
| [65535.4](#event-655354) | 0x0CA9       |     15 |              3 |
| [65535.5](#event-655355) | 0x0CB8       |     27 |              9 |

## DAT References (imed_data)

|   Index | Hex Value   |   Dec Value |
|---------|-------------|-------------|
|       0 | 0x0020      |          32 |
|       1 | 0x22D3      |        8915 |
|       2 | 0x0021      |          33 |
|       3 | 0x22D4      |        8916 |
|       4 | 0x22D5      |        8917 |
|       5 | 0x22D6      |        8918 |
|       6 | 0x22C7      |        8903 |
|       7 | 0x22C8      |        8904 |
|       8 | 0x001E      |          30 |
|       9 | 0x22C9      |        8905 |
|      10 | 0x22CA      |        8906 |
|      11 | 0x22CB      |        8907 |
|      12 | 0x000C      |          12 |
|      13 | 0x0001      |           1 |
|      14 | 0x3A50      |       14928 |
|      15 | 0x2312      |        8978 |
|      16 | 0x0002      |           2 |
|      17 | 0x2313      |        8979 |
|      18 | 0x0003      |           3 |
|      19 | 0x3CF0      |       15600 |
|      20 | 0x0005      |           5 |
|      21 | 0x0006      |           6 |
|      22 | 0x38B9      |       14521 |
|      23 | 0x0008      |           8 |
|      24 | 0x0009      |           9 |
|      25 | 0x2314      |        8980 |
|      26 | 0x2315      |        8981 |
|      27 | 0x2316      |        8982 |
|      28 | 0x2317      |        8983 |
|      29 | 0x2318      |        8984 |
|      30 | 0x2319      |        8985 |
|      31 | 0x231A      |        8986 |
|      32 | 0x231B      |        8987 |
|      33 | 0x2340      |        9024 |
|      34 | 0x0000      |           0 |
|      35 | 0x002D      |          45 |
|      36 | 0xFFFE8EB5  |  4294872757 |
|      37 | 0x7D71      |       32113 |
|      38 | 0xFFFFE890  |  4294961296 |
|      39 | 0x069A      |        1690 |
|      40 | 0x000B      |          11 |
|      41 | 0xFFFE8C97  |  4294872215 |
|      42 | 0x7B96      |       31638 |

## Events

### Event 65535

#### Metadata

| Field        | Value   |
|--------------|---------|
| Entrypoint   | 0x0000  |
| Data Size    | 1 bytes |
| Instructions | 1       |

```
      00 01 02 03 04 05 06 07  08 09 0A 0B 0C 0D 0E 0F
      -- -- -- -- -- -- -- --  -- -- -- -- -- -- -- --
0000: 00                                                .               
```

#### Opcodes

```
  0: 0x0000 [0x00] END_REQSTACK()
```

### Event 770

#### Metadata

| Field        | Value    |
|--------------|----------|
| Entrypoint   | 0x0001   |
| Data Size    | 83 bytes |
| Instructions | 13       |

```
      00 01 02 03 04 05 06 07  08 09 0A 0B 0C 0D 0E 0F
      -- -- -- -- -- -- -- --  -- -- -- -- -- -- -- --
0000:    1E F0 FF FF 7F 6F 70  66 00 80 1E 21 03 01 1E   .....opf...!...
0010: 21 03 01 74 6C 63 30 2B  1E 21 03 01 01 80 23 66  !..tlc0+.!....#f
0020: 02 80 1E 21 03 01 1E 21  03 01 74 63 73 74 2B 1E  ...!...!..tcst+.
0030: 21 03 01 03 80 23 66 02  80 1E 21 03 01 1E 21 03  !....#f...!...!.
0040: 01 73 74 64 31 53 1E 21  03 01 1E 21 03 01 73 74  .std1S.!...!..st
0050: 64 31 21 00                                       d1!.            
```

#### Opcodes

```
  0: 0x0001 [0x1E] EventEntity looks at LocalPlayer and starts talking
  1: 0x0006 [0x6F] WAIT_FRAME_DELAY: Yield until WaitTime reaches zero
  2: 0x0007 [0x70] WAIT_ENTITY_RENDER_FLAG: Wait while EventEntity->Render.Flags3 bit 2 is set (cancel turn if not)
  3: 0x0008 [0x66] LOAD_EXT_SCHEDULER_MAIN: Load scheduler "tlc0" with entities [Lathuya (ID: 16982302/0x0103211E), Lathuya (ID: 16982302/0x0103211E)], work=32*
  4: 0x0017 [0x2B] Lathuya (ID: 16982302/0x0103211E) [8915*]:
    → "Oh. Um. I'm afraid the master craftsman is not available. That is to say, he's not here..."
  5: 0x001E [0x23] WAIT_FOR_DIALOG_INTERACTION
  6: 0x001F [0x66] LOAD_EXT_SCHEDULER_MAIN: Load scheduler "tcst" with entities [Lathuya (ID: 16982302/0x0103211E), Lathuya (ID: 16982302/0x0103211E)], work=33*
  7: 0x002E [0x2B] Lathuya (ID: 16982302/0x0103211E) [8916*]:
    → "Our store is small, but we're actually affiliated with the Empire and see to all their uniform needs. If you find yourself in service to the Empire, perhaps you'll meet my boss some day..."
  8: 0x0035 [0x23] WAIT_FOR_DIALOG_INTERACTION
  9: 0x0036 [0x66] LOAD_EXT_SCHEDULER_MAIN: Load scheduler "std1" with entities [Lathuya (ID: 16982302/0x0103211E), Lathuya (ID: 16982302/0x0103211E)], work=33*
 10: 0x0045 [0x53] WAIT_SCHEDULER_TASK: Wait for scheduler "std1" with entities [Lathuya (ID: 16982302/0x0103211E), Lathuya (ID: 16982302/0x0103211E)]
 11: 0x0052 [0x21] END_EVENT
 12: 0x0053 [0x00] END_REQSTACK()
```

### Event 771

#### Metadata

| Field        | Value    |
|--------------|----------|
| Entrypoint   | 0x0054   |
| Data Size    | 53 bytes |
| Instructions | 11       |

```
      00 01 02 03 04 05 06 07  08 09 0A 0B 0C 0D 0E 0F
      -- -- -- -- -- -- -- --  -- -- -- -- -- -- -- --
0050:             1E F0 FF FF  7F 6F 70 66 00 80 1E 21      .....opf...!
0060: 03 01 1E 21 03 01 61 6B  62 30 2B 1E 21 03 01 04  ...!..akb0+.!...
0070: 80 23 2B 1E 21 03 01 05  80 23 53 1E 21 03 01 1E  .#+.!....#S.!...
0080: 21 03 01 61 6B 62 30 21  00                       !..akb0!.       
```

#### Opcodes

```
  0: 0x0054 [0x1E] EventEntity looks at LocalPlayer and starts talking
  1: 0x0059 [0x6F] WAIT_FRAME_DELAY: Yield until WaitTime reaches zero
  2: 0x005A [0x70] WAIT_ENTITY_RENDER_FLAG: Wait while EventEntity->Render.Flags3 bit 2 is set (cancel turn if not)
  3: 0x005B [0x66] LOAD_EXT_SCHEDULER_MAIN: Load scheduler "akb0" with entities [Lathuya (ID: 16982302/0x0103211E), Lathuya (ID: 16982302/0x0103211E)], work=32*
  4: 0x006A [0x2B] Lathuya (ID: 16982302/0x0103211E) [8917*]:
    → "Ah, [Mister/Miss] <Player>. The boss has retired for the day. He won't wake up, even if Al Zahbi comes under attack from the beastmen. He's not easily excited..."
  5: 0x0071 [0x23] WAIT_FOR_DIALOG_INTERACTION
  6: 0x0072 [0x2B] Lathuya (ID: 16982302/0x0103211E) [8918*]:
    → "If you have business with my boss, you'll have to wait just a touch. A thousand pardons."
  7: 0x0079 [0x23] WAIT_FOR_DIALOG_INTERACTION
  8: 0x007A [0x53] WAIT_SCHEDULER_TASK: Wait for scheduler "akb0" with entities [Lathuya (ID: 16982302/0x0103211E), Lathuya (ID: 16982302/0x0103211E)]
  9: 0x0087 [0x21] END_EVENT
 10: 0x0088 [0x00] END_REQSTACK()
```

### Event 714

#### Metadata

| Field        | Value   |
|--------------|---------|
| Entrypoint   | 0x0089  |
| Data Size    | 1 bytes |
| Instructions | 1       |

```
      00 01 02 03 04 05 06 07  08 09 0A 0B 0C 0D 0E 0F
      -- -- -- -- -- -- -- --  -- -- -- -- -- -- -- --
0080:                             00                             .      
```

#### Opcodes

```
  0: 0x0089 [0x00] END_REQSTACK()
```

### Event 715

#### Metadata

| Field        | Value     |
|--------------|-----------|
| Entrypoint   | 0x008A    |
| Data Size    | 132 bytes |
| Instructions | 22        |

```
      00 01 02 03 04 05 06 07  08 09 0A 0B 0C 0D 0E 0F
      -- -- -- -- -- -- -- --  -- -- -- -- -- -- -- --
0080:                                1E F0 FF FF 7F 6F            .....o
0090: 70 2B 1E 21 03 01 06 80  23 2B 1E 21 03 01 07 80  p+.!....#+.!....
00A0: 23 66 08 80 1E 21 03 01  1E 21 03 01 64 69 73 30  #f...!...!..dis0
00B0: 2B 1E 21 03 01 09 80 23  53 1E 21 03 01 1E 21 03  +.!....#S.!...!.
00C0: 01 64 69 73 30 7C 00 1E  21 03 01 2B 1E 21 03 01  .dis0|..!..+.!..
00D0: 0A 80 23 7C 01 1E 21 03  01 66 02 80 1E 21 03 01  ..#|..!..f...!..
00E0: 1E 21 03 01 74 6C 62 30  2B 1E 21 03 01 0B 80 23  .!..tlb0+.!....#
00F0: 66 02 80 1E 21 03 01 1E  21 03 01 74 6C 62 31 53  f...!...!..tlb1S
0100: 1E 21 03 01 1E 21 03 01  74 6C 62 31 21 00        .!...!..tlb1!.  
```

#### Opcodes

```
  0: 0x008A [0x1E] EventEntity looks at LocalPlayer and starts talking
  1: 0x008F [0x6F] WAIT_FRAME_DELAY: Yield until WaitTime reaches zero
  2: 0x0090 [0x70] WAIT_ENTITY_RENDER_FLAG: Wait while EventEntity->Render.Flags3 bit 2 is set (cancel turn if not)
  3: 0x0091 [0x2B] Lathuya (ID: 16982302/0x0103211E) [8903*]:
    → "What's that? You want to know where he's gone?"
  4: 0x0098 [0x23] WAIT_FOR_DIALOG_INTERACTION
  5: 0x0099 [0x2B] Lathuya (ID: 16982302/0x0103211E) [8904*]:
    → "My m-most humble apologies. When the orders start piling up, my boss goes fishing. "Runs away" is perhaps a more fitting term. The problem is, he doesn't go to the sea, or to a river..."
  6: 0x00A0 [0x23] WAIT_FOR_DIALOG_INTERACTION
  7: 0x00A1 [0x66] LOAD_EXT_SCHEDULER_MAIN: Load scheduler "dis0" with entities [Lathuya (ID: 16982302/0x0103211E), Lathuya (ID: 16982302/0x0103211E)], work=30*
  8: 0x00B0 [0x2B] Lathuya (ID: 16982302/0x0103211E) [8905*]:
    → "There's a place beneath the Wajaom Woodlands--an expansive network of caves known as the Aydeewa Subterrane. If you went in there without a map, you'd never come out..."
  9: 0x00B7 [0x23] WAIT_FOR_DIALOG_INTERACTION
 10: 0x00B8 [0x53] WAIT_SCHEDULER_TASK: Wait for scheduler "dis0" with entities [Lathuya (ID: 16982302/0x0103211E), Lathuya (ID: 16982302/0x0103211E)]
 11: 0x00C5 [0x7C] Lathuya (ID: 16982302/0x0103211E)->Render.Flags2 |= 0x00
 12: 0x00CB [0x2B] Lathuya (ID: 16982302/0x0103211E) [8906*]:
    → "..."
 13: 0x00D2 [0x23] WAIT_FOR_DIALOG_INTERACTION
 14: 0x00D3 [0x7C] Lathuya (ID: 16982302/0x0103211E)->Render.Flags2 |= 0x01
 15: 0x00D9 [0x66] LOAD_EXT_SCHEDULER_MAIN: Load scheduler "tlb0" with entities [Lathuya (ID: 16982302/0x0103211E), Lathuya (ID: 16982302/0x0103211E)], work=33*
 16: 0x00E8 [0x2B] Lathuya (ID: 16982302/0x0103211E) [8907*]:
    → "I'm sure once my boss comes back, he'll get right to work on your armor... That is, if you wouldn't mind waiting. A thousand thousand thousand pardons..."
 17: 0x00EF [0x23] WAIT_FOR_DIALOG_INTERACTION
 18: 0x00F0 [0x66] LOAD_EXT_SCHEDULER_MAIN: Load scheduler "tlb1" with entities [Lathuya (ID: 16982302/0x0103211E), Lathuya (ID: 16982302/0x0103211E)], work=33*
 19: 0x00FF [0x53] WAIT_SCHEDULER_TASK: Wait for scheduler "tlb1" with entities [Lathuya (ID: 16982302/0x0103211E), Lathuya (ID: 16982302/0x0103211E)]
 20: 0x010C [0x21] END_EVENT
 21: 0x010D [0x00] END_REQSTACK()
```

### Event 716

#### Metadata

| Field        | Value   |
|--------------|---------|
| Entrypoint   | 0x010E  |
| Data Size    | 1 bytes |
| Instructions | 1       |

```
      00 01 02 03 04 05 06 07  08 09 0A 0B 0C 0D 0E 0F
      -- -- -- -- -- -- -- --  -- -- -- -- -- -- -- --
0100:                                            00                   . 
```

#### Opcodes

```
  0: 0x010E [0x00] END_REQSTACK()
```

### Event 718

#### Metadata

| Field        | Value    |
|--------------|----------|
| Entrypoint   | 0x010F   |
| Data Size    | 53 bytes |
| Instructions | 11       |

```
      00 01 02 03 04 05 06 07  08 09 0A 0B 0C 0D 0E 0F
      -- -- -- -- -- -- -- --  -- -- -- -- -- -- -- --
0100:                                               1E                 .
0110: F0 FF FF 7F 6F 70 66 00  80 1E 21 03 01 1E 21 03  ....opf...!...!.
0120: 01 61 6B 62 30 2B 1E 21  03 01 04 80 23 2B 1E 21  .akb0+.!....#+.!
0130: 03 01 05 80 23 53 1E 21  03 01 1E 21 03 01 61 6B  ....#S.!...!..ak
0140: 62 30 21 00                                       b0!.            
```

#### Opcodes

```
  0: 0x010F [0x1E] EventEntity looks at LocalPlayer and starts talking
  1: 0x0114 [0x6F] WAIT_FRAME_DELAY: Yield until WaitTime reaches zero
  2: 0x0115 [0x70] WAIT_ENTITY_RENDER_FLAG: Wait while EventEntity->Render.Flags3 bit 2 is set (cancel turn if not)
  3: 0x0116 [0x66] LOAD_EXT_SCHEDULER_MAIN: Load scheduler "akb0" with entities [Lathuya (ID: 16982302/0x0103211E), Lathuya (ID: 16982302/0x0103211E)], work=32*
  4: 0x0125 [0x2B] Lathuya (ID: 16982302/0x0103211E) [8917*]:
    → "Ah, [Mister/Miss] <Player>. The boss has retired for the day. He won't wake up, even if Al Zahbi comes under attack from the beastmen. He's not easily excited..."
  5: 0x012C [0x23] WAIT_FOR_DIALOG_INTERACTION
  6: 0x012D [0x2B] Lathuya (ID: 16982302/0x0103211E) [8918*]:
    → "If you have business with my boss, you'll have to wait just a touch. A thousand pardons."
  7: 0x0134 [0x23] WAIT_FOR_DIALOG_INTERACTION
  8: 0x0135 [0x53] WAIT_SCHEDULER_TASK: Wait for scheduler "akb0" with entities [Lathuya (ID: 16982302/0x0103211E), Lathuya (ID: 16982302/0x0103211E)]
  9: 0x0142 [0x21] END_EVENT
 10: 0x0143 [0x00] END_REQSTACK()
```

### Event 730

#### Metadata

| Field        | Value   |
|--------------|---------|
| Entrypoint   | 0x0144  |
| Data Size    | 1 bytes |
| Instructions | 1       |

```
      00 01 02 03 04 05 06 07  08 09 0A 0B 0C 0D 0E 0F
      -- -- -- -- -- -- -- --  -- -- -- -- -- -- -- --
0140:             00                                        .           
```

#### Opcodes

```
  0: 0x0144 [0x00] END_REQSTACK()
```

### Event 731

#### Metadata

| Field        | Value     |
|--------------|-----------|
| Entrypoint   | 0x0145    |
| Data Size    | 356 bytes |
| Instructions | 63        |

```
      00 01 02 03 04 05 06 07  08 09 0A 0B 0C 0D 0E 0F
      -- -- -- -- -- -- -- --  -- -- -- -- -- -- -- --
0140:                1E F0 FF  FF 7F 6F 70 03 01 10 0C       .....op....
0150: 80 43 00 43 01 02 09 10  0D 80 80 B2 01 03 02 10  .C.C............
0160: 0E 80 66 08 80 1E 21 03  01 1E 21 03 01 74 68 6B  ..f...!...!..thk
0170: 31 2B 1E 21 03 01 0F 80  23 66 08 80 1E 21 03 01  1+.!....#f...!..
0180: 1E 21 03 01 74 68 6B 32  53 1E 21 03 01 1E 21 03  .!..thk2S.!...!.
0190: 01 74 68 6B 32 03 01 10  10 80 43 00 43 01 2B 1E  .thk2.....C.C.+.
01A0: 21 03 01 11 80 23 03 01  10 12 80 43 00 43 01 01  !....#.....C.C..
01B0: 6C 02 02 09 10 10 80 80  0F 02 03 02 10 13 80 66  l..............f
01C0: 08 80 1E 21 03 01 1E 21  03 01 74 68 6B 31 2B 1E  ...!...!..thk1+.
01D0: 21 03 01 0F 80 23 66 08  80 1E 21 03 01 1E 21 03  !....#f...!...!.
01E0: 01 74 68 6B 32 53 1E 21  03 01 1E 21 03 01 74 68  .thk2S.!...!..th
01F0: 6B 32 03 01 10 14 80 43  00 43 01 2B 1E 21 03 01  k2.....C.C.+.!..
0200: 11 80 23 03 01 10 15 80  43 00 43 01 01 6C 02 02  ..#.....C.C..l..
0210: 09 10 12 80 80 6C 02 03  02 10 16 80 66 08 80 1E  .....l......f...
0220: 21 03 01 1E 21 03 01 74  68 6B 31 2B 1E 21 03 01  !...!..thk1+.!..
0230: 0F 80 23 66 08 80 1E 21  03 01 1E 21 03 01 74 68  ..#f...!...!..th
0240: 6B 32 53 1E 21 03 01 1E  21 03 01 74 68 6B 32 03  k2S.!...!..thk2.
0250: 01 10 17 80 43 00 43 01  2B 1E 21 03 01 11 80 23  ....C.C.+.!....#
0260: 03 01 10 18 80 43 00 43  01 01 6C 02 2B 1E 21 03  .....C.C..l.+.!.
0270: 01 19 80 23 66 08 80 1E  21 03 01 1E 21 03 01 74  ...#f...!...!..t
0280: 6C 6B 30 2B 1E 21 03 01  1A 80 23 66 08 80 1E 21  lk0+.!....#f...!
0290: 03 01 1E 21 03 01 74 6C  6B 31 53 1E 21 03 01 1E  ...!..tlk1S.!...
02A0: 21 03 01 74 6C 6B 31 21  00                       !..tlk1!.       
```

#### Opcodes

```
  0: 0x0145 [0x1E] EventEntity looks at LocalPlayer and starts talking
  1: 0x014A [0x6F] WAIT_FRAME_DELAY: Yield until WaitTime reaches zero
  2: 0x014B [0x70] WAIT_ENTITY_RENDER_FLAG: Wait while EventEntity->Render.Flags3 bit 2 is set (cancel turn if not)
  3: 0x014C [0x03] Work_Zone[1] = 12*
  4: 0x0151 [0x43] SEND_EVENT_UPDATE: Send pending tag to server (packet 0x005B)
  5: 0x0153 [0x43] SEND_EVENT_UPDATE: Check pending flag (skip if not pending)
  6: 0x0155 [0x02] IF !(Work_Zone[9] == 1*) GOTO 0x01B2
  7: 0x015D [0x03] Work_Zone[2] = 14928*
  8: 0x0162 [0x66] LOAD_EXT_SCHEDULER_MAIN: Load scheduler "thk1" with entities [Lathuya (ID: 16982302/0x0103211E), Lathuya (ID: 16982302/0x0103211E)], work=30*
  9: 0x0171 [0x2B] Lathuya (ID: 16982302/0x0103211E) [8978*]:
    → "The materials for making the $0? Ah, just a moment..."
 10: 0x0178 [0x23] WAIT_FOR_DIALOG_INTERACTION
 11: 0x0179 [0x66] LOAD_EXT_SCHEDULER_MAIN: Load scheduler "thk2" with entities [Lathuya (ID: 16982302/0x0103211E), Lathuya (ID: 16982302/0x0103211E)], work=30*
 12: 0x0188 [0x53] WAIT_SCHEDULER_TASK: Wait for scheduler "thk2" with entities [Lathuya (ID: 16982302/0x0103211E), Lathuya (ID: 16982302/0x0103211E)]
 13: 0x0195 [0x03] Work_Zone[1] = 2*
 14: 0x019A [0x43] SEND_EVENT_UPDATE: Send pending tag to server (packet 0x005B)
 15: 0x019C [0x43] SEND_EVENT_UPDATE: Check pending flag (skip if not pending)
 16: 0x019E [0x2B] Lathuya (ID: 16982302/0x0103211E) [8979*]:
    → "According to the list here, we need $1, $2, $3, and $4."
 17: 0x01A5 [0x23] WAIT_FOR_DIALOG_INTERACTION
 18: 0x01A6 [0x03] Work_Zone[1] = 3*
 19: 0x01AB [0x43] SEND_EVENT_UPDATE: Send pending tag to server (packet 0x005B)
 20: 0x01AD [0x43] SEND_EVENT_UPDATE: Check pending flag (skip if not pending)
 21: 0x01AF [0x01] GOTO 0x026C
 22: 0x01B2 [0x02] IF !(Work_Zone[9] == 2*) GOTO 0x020F
 23: 0x01BA [0x03] Work_Zone[2] = 15600*
 24: 0x01BF [0x66] LOAD_EXT_SCHEDULER_MAIN: Load scheduler "thk1" with entities [Lathuya (ID: 16982302/0x0103211E), Lathuya (ID: 16982302/0x0103211E)], work=30*
 25: 0x01CE [0x2B] Lathuya (ID: 16982302/0x0103211E) [8978*]:
    → "The materials for making the $0? Ah, just a moment..."
 26: 0x01D5 [0x23] WAIT_FOR_DIALOG_INTERACTION
 27: 0x01D6 [0x66] LOAD_EXT_SCHEDULER_MAIN: Load scheduler "thk2" with entities [Lathuya (ID: 16982302/0x0103211E), Lathuya (ID: 16982302/0x0103211E)], work=30*
 28: 0x01E5 [0x53] WAIT_SCHEDULER_TASK: Wait for scheduler "thk2" with entities [Lathuya (ID: 16982302/0x0103211E), Lathuya (ID: 16982302/0x0103211E)]
 29: 0x01F2 [0x03] Work_Zone[1] = 5*
 30: 0x01F7 [0x43] SEND_EVENT_UPDATE: Send pending tag to server (packet 0x005B)
 31: 0x01F9 [0x43] SEND_EVENT_UPDATE: Check pending flag (skip if not pending)
 32: 0x01FB [0x2B] Lathuya (ID: 16982302/0x0103211E) [8979*]:
    → "According to the list here, we need $1, $2, $3, and $4."
 33: 0x0202 [0x23] WAIT_FOR_DIALOG_INTERACTION
 34: 0x0203 [0x03] Work_Zone[1] = 6*
 35: 0x0208 [0x43] SEND_EVENT_UPDATE: Send pending tag to server (packet 0x005B)
 36: 0x020A [0x43] SEND_EVENT_UPDATE: Check pending flag (skip if not pending)
 37: 0x020C [0x01] GOTO 0x026C
 38: 0x020F [0x02] IF !(Work_Zone[9] == 3*) GOTO 0x026C
 39: 0x0217 [0x03] Work_Zone[2] = 14521*
 40: 0x021C [0x66] LOAD_EXT_SCHEDULER_MAIN: Load scheduler "thk1" with entities [Lathuya (ID: 16982302/0x0103211E), Lathuya (ID: 16982302/0x0103211E)], work=30*
 41: 0x022B [0x2B] Lathuya (ID: 16982302/0x0103211E) [8978*]:
    → "The materials for making the $0? Ah, just a moment..."
 42: 0x0232 [0x23] WAIT_FOR_DIALOG_INTERACTION
 43: 0x0233 [0x66] LOAD_EXT_SCHEDULER_MAIN: Load scheduler "thk2" with entities [Lathuya (ID: 16982302/0x0103211E), Lathuya (ID: 16982302/0x0103211E)], work=30*
 44: 0x0242 [0x53] WAIT_SCHEDULER_TASK: Wait for scheduler "thk2" with entities [Lathuya (ID: 16982302/0x0103211E), Lathuya (ID: 16982302/0x0103211E)]
 45: 0x024F [0x03] Work_Zone[1] = 8*
 46: 0x0254 [0x43] SEND_EVENT_UPDATE: Send pending tag to server (packet 0x005B)
 47: 0x0256 [0x43] SEND_EVENT_UPDATE: Check pending flag (skip if not pending)
 48: 0x0258 [0x2B] Lathuya (ID: 16982302/0x0103211E) [8979*]:
    → "According to the list here, we need $1, $2, $3, and $4."
 49: 0x025F [0x23] WAIT_FOR_DIALOG_INTERACTION
 50: 0x0260 [0x03] Work_Zone[1] = 9*
 51: 0x0265 [0x43] SEND_EVENT_UPDATE: Send pending tag to server (packet 0x005B)
 52: 0x0267 [0x43] SEND_EVENT_UPDATE: Check pending flag (skip if not pending)
 53: 0x0269 [0x01] GOTO 0x026C

SUBROUTINE_026C:
 54: 0x026C [0x2B] Lathuya (ID: 16982302/0x0103211E) [8980*]:
    → "The crafting fee comes to $2 $0$0 . We require customers to pay up front for made-to-order pieces."
 55: 0x0273 [0x23] WAIT_FOR_DIALOG_INTERACTION
 56: 0x0274 [0x66] LOAD_EXT_SCHEDULER_MAIN: Load scheduler "tlk0" with entities [Lathuya (ID: 16982302/0x0103211E), Lathuya (ID: 16982302/0x0103211E)], work=30*
 57: 0x0283 [0x2B] Lathuya (ID: 16982302/0x0103211E) [8981*]:
    → "Please show me the materials first, and then we can settle the payment."
 58: 0x028A [0x23] WAIT_FOR_DIALOG_INTERACTION
 59: 0x028B [0x66] LOAD_EXT_SCHEDULER_MAIN: Load scheduler "tlk1" with entities [Lathuya (ID: 16982302/0x0103211E), Lathuya (ID: 16982302/0x0103211E)], work=30*
 60: 0x029A [0x53] WAIT_SCHEDULER_TASK: Wait for scheduler "tlk1" with entities [Lathuya (ID: 16982302/0x0103211E), Lathuya (ID: 16982302/0x0103211E)]
 61: 0x02A7 [0x21] END_EVENT
 62: 0x02A8 [0x00] END_REQSTACK()
```

### Event 732

#### Metadata

| Field        | Value     |
|--------------|-----------|
| Entrypoint   | 0x02A9    |
| Data Size    | 196 bytes |
| Instructions | 47        |

```
      00 01 02 03 04 05 06 07  08 09 0A 0B 0C 0D 0E 0F
      -- -- -- -- -- -- -- --  -- -- -- -- -- -- -- --
02A0:                             42 1E F0 FF FF 7F 6F           B.....o
02B0: 70 03 01 10 0C 80 43 00  43 01 02 09 10 0D 80 80  p.....C.C.......
02C0: E4 02 03 01 10 10 80 43  00 43 01 2B 1E 21 03 01  .......C.C.+.!..
02D0: 1B 80 23 03 01 10 12 80  43 00 43 01 03 02 10 0E  ..#.....C.C.....
02E0: 80 01 38 03 02 09 10 10  80 80 0E 03 03 01 10 14  ..8.............
02F0: 80 43 00 43 01 2B 1E 21  03 01 1B 80 23 03 01 10  .C.C.+.!....#...
0300: 15 80 43 00 43 01 03 02  10 13 80 01 38 03 02 09  ..C.C.......8...
0310: 10 12 80 80 38 03 03 01  10 17 80 43 00 43 01 2B  ....8......C.C.+
0320: 1E 21 03 01 1B 80 23 03  01 10 18 80 43 00 43 01  .!....#.....C.C.
0330: 03 02 10 16 80 01 38 03  66 08 80 1E 21 03 01 1E  ......8.f...!...
0340: 21 03 01 74 68 6B 31 2B  1E 21 03 01 1C 80 23 66  !..thk1+.!....#f
0350: 08 80 1E 21 03 01 1E 21  03 01 74 68 6B 32 53 1E  ...!...!..thk2S.
0360: 21 03 01 1E 21 03 01 74  68 6B 32 21 00           !...!..thk2!.   
```

#### Opcodes

```
  0: 0x02A9 [0x42] SET_CLI_EVENT_CANCEL_DATA()
  1: 0x02AA [0x1E] EventEntity looks at LocalPlayer and starts talking
  2: 0x02AF [0x6F] WAIT_FRAME_DELAY: Yield until WaitTime reaches zero
  3: 0x02B0 [0x70] WAIT_ENTITY_RENDER_FLAG: Wait while EventEntity->Render.Flags3 bit 2 is set (cancel turn if not)
  4: 0x02B1 [0x03] Work_Zone[1] = 12*
  5: 0x02B6 [0x43] SEND_EVENT_UPDATE: Send pending tag to server (packet 0x005B)
  6: 0x02B8 [0x43] SEND_EVENT_UPDATE: Check pending flag (skip if not pending)
  7: 0x02BA [0x02] IF !(Work_Zone[9] == 1*) GOTO 0x02E4
  8: 0x02C2 [0x03] Work_Zone[1] = 2*
  9: 0x02C7 [0x43] SEND_EVENT_UPDATE: Send pending tag to server (packet 0x005B)
 10: 0x02C9 [0x43] SEND_EVENT_UPDATE: Check pending flag (skip if not pending)
 11: 0x02CB [0x2B] Lathuya (ID: 16982302/0x0103211E) [8982*]:
    → "Okay... We have $1, $2, $3...and $4. Everything seems to be in order."
 12: 0x02D2 [0x23] WAIT_FOR_DIALOG_INTERACTION
 13: 0x02D3 [0x03] Work_Zone[1] = 3*
 14: 0x02D8 [0x43] SEND_EVENT_UPDATE: Send pending tag to server (packet 0x005B)
 15: 0x02DA [0x43] SEND_EVENT_UPDATE: Check pending flag (skip if not pending)
 16: 0x02DC [0x03] Work_Zone[2] = 14928*
 17: 0x02E1 [0x01] GOTO 0x0338
 18: 0x02E4 [0x02] IF !(Work_Zone[9] == 2*) GOTO 0x030E
 19: 0x02EC [0x03] Work_Zone[1] = 5*
 20: 0x02F1 [0x43] SEND_EVENT_UPDATE: Send pending tag to server (packet 0x005B)
 21: 0x02F3 [0x43] SEND_EVENT_UPDATE: Check pending flag (skip if not pending)
 22: 0x02F5 [0x2B] Lathuya (ID: 16982302/0x0103211E) [8982*]:
    → "Okay... We have $1, $2, $3...and $4. Everything seems to be in order."
 23: 0x02FC [0x23] WAIT_FOR_DIALOG_INTERACTION
 24: 0x02FD [0x03] Work_Zone[1] = 6*
 25: 0x0302 [0x43] SEND_EVENT_UPDATE: Send pending tag to server (packet 0x005B)
 26: 0x0304 [0x43] SEND_EVENT_UPDATE: Check pending flag (skip if not pending)
 27: 0x0306 [0x03] Work_Zone[2] = 15600*
 28: 0x030B [0x01] GOTO 0x0338
 29: 0x030E [0x02] IF !(Work_Zone[9] == 3*) GOTO 0x0338
 30: 0x0316 [0x03] Work_Zone[1] = 8*
 31: 0x031B [0x43] SEND_EVENT_UPDATE: Send pending tag to server (packet 0x005B)
 32: 0x031D [0x43] SEND_EVENT_UPDATE: Check pending flag (skip if not pending)
 33: 0x031F [0x2B] Lathuya (ID: 16982302/0x0103211E) [8982*]:
    → "Okay... We have $1, $2, $3...and $4. Everything seems to be in order."
 34: 0x0326 [0x23] WAIT_FOR_DIALOG_INTERACTION
 35: 0x0327 [0x03] Work_Zone[1] = 9*
 36: 0x032C [0x43] SEND_EVENT_UPDATE: Send pending tag to server (packet 0x005B)
 37: 0x032E [0x43] SEND_EVENT_UPDATE: Check pending flag (skip if not pending)
 38: 0x0330 [0x03] Work_Zone[2] = 14521*
 39: 0x0335 [0x01] GOTO 0x0338

SUBROUTINE_0338:
 40: 0x0338 [0x66] LOAD_EXT_SCHEDULER_MAIN: Load scheduler "thk1" with entities [Lathuya (ID: 16982302/0x0103211E), Lathuya (ID: 16982302/0x0103211E)], work=30*
 41: 0x0347 [0x2B] Lathuya (ID: 16982302/0x0103211E) [8983*]:
    → "Now the crafting fee for the $0... We require an up-front payment of $2 $0$0 ."
 42: 0x034E [0x23] WAIT_FOR_DIALOG_INTERACTION
 43: 0x034F [0x66] LOAD_EXT_SCHEDULER_MAIN: Load scheduler "thk2" with entities [Lathuya (ID: 16982302/0x0103211E), Lathuya (ID: 16982302/0x0103211E)], work=30*
 44: 0x035E [0x53] WAIT_SCHEDULER_TASK: Wait for scheduler "thk2" with entities [Lathuya (ID: 16982302/0x0103211E), Lathuya (ID: 16982302/0x0103211E)]
 45: 0x036B [0x21] END_EVENT
 46: 0x036C [0x00] END_REQSTACK()
```

### Event 733

#### Metadata

| Field        | Value     |
|--------------|-----------|
| Entrypoint   | 0x036D    |
| Data Size    | 144 bytes |
| Instructions | 31        |

```
      00 01 02 03 04 05 06 07  08 09 0A 0B 0C 0D 0E 0F
      -- -- -- -- -- -- -- --  -- -- -- -- -- -- -- --
0360:                                         1E F0 FF               ...
0370: FF 7F 6F 70 03 01 10 0C  80 43 00 43 01 02 09 10  ..op.....C.C....
0380: 0D 80 80 96 03 03 01 10  12 80 43 00 43 01 03 02  ..........C.C...
0390: 10 0E 80 01 C8 03 02 09  10 10 80 80 AF 03 03 01  ................
03A0: 10 15 80 43 00 43 01 03  02 10 13 80 01 C8 03 02  ...C.C..........
03B0: 09 10 12 80 80 C8 03 03  01 10 18 80 43 00 43 01  ............C.C.
03C0: 03 02 10 16 80 01 C8 03  66 08 80 1E 21 03 01 1E  ........f...!...
03D0: 21 03 01 74 68 6B 31 2B  1E 21 03 01 1C 80 23 66  !..thk1+.!....#f
03E0: 08 80 1E 21 03 01 1E 21  03 01 74 68 6B 32 53 1E  ...!...!..thk2S.
03F0: 21 03 01 1E 21 03 01 74  68 6B 32 21 00           !...!..thk2!.   
```

#### Opcodes

```
  0: 0x036D [0x1E] EventEntity looks at LocalPlayer and starts talking
  1: 0x0372 [0x6F] WAIT_FRAME_DELAY: Yield until WaitTime reaches zero
  2: 0x0373 [0x70] WAIT_ENTITY_RENDER_FLAG: Wait while EventEntity->Render.Flags3 bit 2 is set (cancel turn if not)
  3: 0x0374 [0x03] Work_Zone[1] = 12*
  4: 0x0379 [0x43] SEND_EVENT_UPDATE: Send pending tag to server (packet 0x005B)
  5: 0x037B [0x43] SEND_EVENT_UPDATE: Check pending flag (skip if not pending)
  6: 0x037D [0x02] IF !(Work_Zone[9] == 1*) GOTO 0x0396
  7: 0x0385 [0x03] Work_Zone[1] = 3*
  8: 0x038A [0x43] SEND_EVENT_UPDATE: Send pending tag to server (packet 0x005B)
  9: 0x038C [0x43] SEND_EVENT_UPDATE: Check pending flag (skip if not pending)
 10: 0x038E [0x03] Work_Zone[2] = 14928*
 11: 0x0393 [0x01] GOTO 0x03C8
 12: 0x0396 [0x02] IF !(Work_Zone[9] == 2*) GOTO 0x03AF
 13: 0x039E [0x03] Work_Zone[1] = 6*
 14: 0x03A3 [0x43] SEND_EVENT_UPDATE: Send pending tag to server (packet 0x005B)
 15: 0x03A5 [0x43] SEND_EVENT_UPDATE: Check pending flag (skip if not pending)
 16: 0x03A7 [0x03] Work_Zone[2] = 15600*
 17: 0x03AC [0x01] GOTO 0x03C8
 18: 0x03AF [0x02] IF !(Work_Zone[9] == 3*) GOTO 0x03C8
 19: 0x03B7 [0x03] Work_Zone[1] = 9*
 20: 0x03BC [0x43] SEND_EVENT_UPDATE: Send pending tag to server (packet 0x005B)
 21: 0x03BE [0x43] SEND_EVENT_UPDATE: Check pending flag (skip if not pending)
 22: 0x03C0 [0x03] Work_Zone[2] = 14521*
 23: 0x03C5 [0x01] GOTO 0x03C8

SUBROUTINE_03C8:
 24: 0x03C8 [0x66] LOAD_EXT_SCHEDULER_MAIN: Load scheduler "thk1" with entities [Lathuya (ID: 16982302/0x0103211E), Lathuya (ID: 16982302/0x0103211E)], work=30*
 25: 0x03D7 [0x2B] Lathuya (ID: 16982302/0x0103211E) [8983*]:
    → "Now the crafting fee for the $0... We require an up-front payment of $2 $0$0 ."
 26: 0x03DE [0x23] WAIT_FOR_DIALOG_INTERACTION
 27: 0x03DF [0x66] LOAD_EXT_SCHEDULER_MAIN: Load scheduler "thk2" with entities [Lathuya (ID: 16982302/0x0103211E), Lathuya (ID: 16982302/0x0103211E)], work=30*
 28: 0x03EE [0x53] WAIT_SCHEDULER_TASK: Wait for scheduler "thk2" with entities [Lathuya (ID: 16982302/0x0103211E), Lathuya (ID: 16982302/0x0103211E)]
 29: 0x03FB [0x21] END_EVENT
 30: 0x03FC [0x00] END_REQSTACK()
```

### Event 734

#### Metadata

| Field        | Value     |
|--------------|-----------|
| Entrypoint   | 0x03FD    |
| Data Size    | 154 bytes |
| Instructions | 35        |

```
      00 01 02 03 04 05 06 07  08 09 0A 0B 0C 0D 0E 0F
      -- -- -- -- -- -- -- --  -- -- -- -- -- -- -- --
03F0:                                         42 1E F0               B..
0400: FF FF 7F 6F 70 03 01 10  0C 80 43 00 43 01 02 09  ...op.....C.C...
0410: 10 0D 80 80 22 04 03 01  10 12 80 43 00 43 01 01  ...."......C.C..
0420: 4A 04 02 09 10 10 80 80  36 04 03 01 10 15 80 43  J.......6......C
0430: 00 43 01 01 4A 04 02 09  10 12 80 80 4A 04 03 01  .C..J.......J...
0440: 10 18 80 43 00 43 01 01  4A 04 2B 1E 21 03 01 1D  ...C.C..J.+.!...
0450: 80 23 66 08 80 1E 21 03  01 1E 21 03 01 61 6B 62  .#f...!...!..akb
0460: 30 2B 1E 21 03 01 1E 80  23 53 1E 21 03 01 1E 21  0+.!....#S.!...!
0470: 03 01 61 6B 62 30 2B 1E  21 03 01 1F 80 23 66 08  ..akb0+.!....#f.
0480: 80 1E 21 03 01 1E 21 03  01 70 61 73 30 2B 1E 21  ..!...!..pas0+.!
0490: 03 01 20 80 23 21 00                              .. .#!.         
```

#### Opcodes

```
  0: 0x03FD [0x42] SET_CLI_EVENT_CANCEL_DATA()
  1: 0x03FE [0x1E] EventEntity looks at LocalPlayer and starts talking
  2: 0x0403 [0x6F] WAIT_FRAME_DELAY: Yield until WaitTime reaches zero
  3: 0x0404 [0x70] WAIT_ENTITY_RENDER_FLAG: Wait while EventEntity->Render.Flags3 bit 2 is set (cancel turn if not)
  4: 0x0405 [0x03] Work_Zone[1] = 12*
  5: 0x040A [0x43] SEND_EVENT_UPDATE: Send pending tag to server (packet 0x005B)
  6: 0x040C [0x43] SEND_EVENT_UPDATE: Check pending flag (skip if not pending)
  7: 0x040E [0x02] IF !(Work_Zone[9] == 1*) GOTO 0x0422
  8: 0x0416 [0x03] Work_Zone[1] = 3*
  9: 0x041B [0x43] SEND_EVENT_UPDATE: Send pending tag to server (packet 0x005B)
 10: 0x041D [0x43] SEND_EVENT_UPDATE: Check pending flag (skip if not pending)
 11: 0x041F [0x01] GOTO 0x044A
 12: 0x0422 [0x02] IF !(Work_Zone[9] == 2*) GOTO 0x0436
 13: 0x042A [0x03] Work_Zone[1] = 6*
 14: 0x042F [0x43] SEND_EVENT_UPDATE: Send pending tag to server (packet 0x005B)
 15: 0x0431 [0x43] SEND_EVENT_UPDATE: Check pending flag (skip if not pending)
 16: 0x0433 [0x01] GOTO 0x044A
 17: 0x0436 [0x02] IF !(Work_Zone[9] == 3*) GOTO 0x044A
 18: 0x043E [0x03] Work_Zone[1] = 9*
 19: 0x0443 [0x43] SEND_EVENT_UPDATE: Send pending tag to server (packet 0x005B)
 20: 0x0445 [0x43] SEND_EVENT_UPDATE: Check pending flag (skip if not pending)
 21: 0x0447 [0x01] GOTO 0x044A

SUBROUTINE_044A:
 22: 0x044A [0x2B] Lathuya (ID: 16982302/0x0103211E) [8984*]:
    → "Yes. The payment. Let me just count... $2 $0$0 . It's all here."
 23: 0x0451 [0x23] WAIT_FOR_DIALOG_INTERACTION
 24: 0x0452 [0x66] LOAD_EXT_SCHEDULER_MAIN: Load scheduler "akb0" with entities [Lathuya (ID: 16982302/0x0103211E), Lathuya (ID: 16982302/0x0103211E)], work=30*
 25: 0x0461 [0x2B] Lathuya (ID: 16982302/0x0103211E) [8985*]:
    → "I'll make sure the materials you've brought go directly to the boss."
 26: 0x0468 [0x23] WAIT_FOR_DIALOG_INTERACTION
 27: 0x0469 [0x53] WAIT_SCHEDULER_TASK: Wait for scheduler "akb0" with entities [Lathuya (ID: 16982302/0x0103211E), Lathuya (ID: 16982302/0x0103211E)]
 28: 0x0476 [0x2B] Lathuya (ID: 16982302/0x0103211E) [8986*]:
    → "The completion of your order will take some time... Would you mind returning to our store a little later? A thousand pardons..."
 29: 0x047D [0x23] WAIT_FOR_DIALOG_INTERACTION
 30: 0x047E [0x66] LOAD_EXT_SCHEDULER_MAIN: Load scheduler "pas0" with entities [Lathuya (ID: 16982302/0x0103211E), Lathuya (ID: 16982302/0x0103211E)], work=30*
 31: 0x048D [0x2B] Lathuya (ID: 16982302/0x0103211E) [8987*]:
    → "Thank you. Here, please don't lose this. (Phew, I get so nervous dealing with customers...)"
 32: 0x0494 [0x23] WAIT_FOR_DIALOG_INTERACTION
 33: 0x0495 [0x21] END_EVENT
 34: 0x0496 [0x00] END_REQSTACK()
```

### Event 735

#### Metadata

| Field        | Value    |
|--------------|----------|
| Entrypoint   | 0x0497   |
| Data Size    | 60 bytes |
| Instructions | 10       |

```
      00 01 02 03 04 05 06 07  08 09 0A 0B 0C 0D 0E 0F
      -- -- -- -- -- -- -- --  -- -- -- -- -- -- -- --
0490:                      1E  F0 FF FF 7F 6F 70 66 00         .....opf.
04A0: 80 1E 21 03 01 1E 21 03  01 74 6C 63 30 2B 1E 21  ..!...!..tlc0+.!
04B0: 03 01 1F 80 23 66 00 80  1E 21 03 01 1E 21 03 01  ....#f...!...!..
04C0: 74 6C 63 31 53 1E 21 03  01 1E 21 03 01 74 6C 63  tlc1S.!...!..tlc
04D0: 30 21 00                                          0!.             
```

#### Opcodes

```
  0: 0x0497 [0x1E] EventEntity looks at LocalPlayer and starts talking
  1: 0x049C [0x6F] WAIT_FRAME_DELAY: Yield until WaitTime reaches zero
  2: 0x049D [0x70] WAIT_ENTITY_RENDER_FLAG: Wait while EventEntity->Render.Flags3 bit 2 is set (cancel turn if not)
  3: 0x049E [0x66] LOAD_EXT_SCHEDULER_MAIN: Load scheduler "tlc0" with entities [Lathuya (ID: 16982302/0x0103211E), Lathuya (ID: 16982302/0x0103211E)], work=32*
  4: 0x04AD [0x2B] Lathuya (ID: 16982302/0x0103211E) [8986*]:
    → "The completion of your order will take some time... Would you mind returning to our store a little later? A thousand pardons..."
  5: 0x04B4 [0x23] WAIT_FOR_DIALOG_INTERACTION
  6: 0x04B5 [0x66] LOAD_EXT_SCHEDULER_MAIN: Load scheduler "tlc1" with entities [Lathuya (ID: 16982302/0x0103211E), Lathuya (ID: 16982302/0x0103211E)], work=32*
  7: 0x04C4 [0x53] WAIT_SCHEDULER_TASK: Wait for scheduler "tlc0" with entities [Lathuya (ID: 16982302/0x0103211E), Lathuya (ID: 16982302/0x0103211E)]
  8: 0x04D1 [0x21] END_EVENT
  9: 0x04D2 [0x00] END_REQSTACK()
```

### Event 736

#### Metadata

| Field        | Value   |
|--------------|---------|
| Entrypoint   | 0x04D3  |
| Data Size    | 1 bytes |
| Instructions | 1       |

```
      00 01 02 03 04 05 06 07  08 09 0A 0B 0C 0D 0E 0F
      -- -- -- -- -- -- -- --  -- -- -- -- -- -- -- --
04D0:          00                                          .            
```

#### Opcodes

```
  0: 0x04D3 [0x00] END_REQSTACK()
```

### Event 737

#### Metadata

| Field        | Value    |
|--------------|----------|
| Entrypoint   | 0x04D4   |
| Data Size    | 53 bytes |
| Instructions | 11       |

```
      00 01 02 03 04 05 06 07  08 09 0A 0B 0C 0D 0E 0F
      -- -- -- -- -- -- -- --  -- -- -- -- -- -- -- --
04D0:             1E F0 FF FF  7F 6F 70 66 00 80 1E 21      .....opf...!
04E0: 03 01 1E 21 03 01 61 6B  62 30 2B 1E 21 03 01 04  ...!..akb0+.!...
04F0: 80 23 2B 1E 21 03 01 05  80 23 53 1E 21 03 01 1E  .#+.!....#S.!...
0500: 21 03 01 61 6B 62 30 21  00                       !..akb0!.       
```

#### Opcodes

```
  0: 0x04D4 [0x1E] EventEntity looks at LocalPlayer and starts talking
  1: 0x04D9 [0x6F] WAIT_FRAME_DELAY: Yield until WaitTime reaches zero
  2: 0x04DA [0x70] WAIT_ENTITY_RENDER_FLAG: Wait while EventEntity->Render.Flags3 bit 2 is set (cancel turn if not)
  3: 0x04DB [0x66] LOAD_EXT_SCHEDULER_MAIN: Load scheduler "akb0" with entities [Lathuya (ID: 16982302/0x0103211E), Lathuya (ID: 16982302/0x0103211E)], work=32*
  4: 0x04EA [0x2B] Lathuya (ID: 16982302/0x0103211E) [8917*]:
    → "Ah, [Mister/Miss] <Player>. The boss has retired for the day. He won't wake up, even if Al Zahbi comes under attack from the beastmen. He's not easily excited..."
  5: 0x04F1 [0x23] WAIT_FOR_DIALOG_INTERACTION
  6: 0x04F2 [0x2B] Lathuya (ID: 16982302/0x0103211E) [8918*]:
    → "If you have business with my boss, you'll have to wait just a touch. A thousand pardons."
  7: 0x04F9 [0x23] WAIT_FOR_DIALOG_INTERACTION
  8: 0x04FA [0x53] WAIT_SCHEDULER_TASK: Wait for scheduler "akb0" with entities [Lathuya (ID: 16982302/0x0103211E), Lathuya (ID: 16982302/0x0103211E)]
  9: 0x0507 [0x21] END_EVENT
 10: 0x0508 [0x00] END_REQSTACK()
```

### Event 738

#### Metadata

| Field        | Value   |
|--------------|---------|
| Entrypoint   | 0x0509  |
| Data Size    | 1 bytes |
| Instructions | 1       |

```
      00 01 02 03 04 05 06 07  08 09 0A 0B 0C 0D 0E 0F
      -- -- -- -- -- -- -- --  -- -- -- -- -- -- -- --
0500:                             00                             .      
```

#### Opcodes

```
  0: 0x0509 [0x00] END_REQSTACK()
```

### Event 739

#### Metadata

| Field        | Value     |
|--------------|-----------|
| Entrypoint   | 0x050A    |
| Data Size    | 356 bytes |
| Instructions | 63        |

```
      00 01 02 03 04 05 06 07  08 09 0A 0B 0C 0D 0E 0F
      -- -- -- -- -- -- -- --  -- -- -- -- -- -- -- --
0500:                                1E F0 FF FF 7F 6F            .....o
0510: 70 03 01 10 0C 80 43 00  43 01 02 09 10 0D 80 80  p.....C.C.......
0520: 77 05 03 02 10 0E 80 66  08 80 1E 21 03 01 1E 21  w......f...!...!
0530: 03 01 74 68 6B 31 2B 1E  21 03 01 0F 80 23 66 08  ..thk1+.!....#f.
0540: 80 1E 21 03 01 1E 21 03  01 74 68 6B 32 53 1E 21  ..!...!..thk2S.!
0550: 03 01 1E 21 03 01 74 68  6B 32 03 01 10 10 80 43  ...!..thk2.....C
0560: 00 43 01 2B 1E 21 03 01  11 80 23 03 01 10 12 80  .C.+.!....#.....
0570: 43 00 43 01 01 31 06 02  09 10 10 80 80 D4 05 03  C.C..1..........
0580: 02 10 13 80 66 08 80 1E  21 03 01 1E 21 03 01 74  ....f...!...!..t
0590: 68 6B 31 2B 1E 21 03 01  0F 80 23 66 08 80 1E 21  hk1+.!....#f...!
05A0: 03 01 1E 21 03 01 74 68  6B 32 53 1E 21 03 01 1E  ...!..thk2S.!...
05B0: 21 03 01 74 68 6B 32 03  01 10 14 80 43 00 43 01  !..thk2.....C.C.
05C0: 2B 1E 21 03 01 11 80 23  03 01 10 15 80 43 00 43  +.!....#.....C.C
05D0: 01 01 31 06 02 09 10 12  80 80 31 06 03 02 10 16  ..1.......1.....
05E0: 80 66 08 80 1E 21 03 01  1E 21 03 01 74 68 6B 31  .f...!...!..thk1
05F0: 2B 1E 21 03 01 0F 80 23  66 08 80 1E 21 03 01 1E  +.!....#f...!...
0600: 21 03 01 74 68 6B 32 53  1E 21 03 01 1E 21 03 01  !..thk2S.!...!..
0610: 74 68 6B 32 03 01 10 17  80 43 00 43 01 2B 1E 21  thk2.....C.C.+.!
0620: 03 01 11 80 23 03 01 10  18 80 43 00 43 01 01 31  ....#.....C.C..1
0630: 06 2B 1E 21 03 01 19 80  23 66 08 80 1E 21 03 01  .+.!....#f...!..
0640: 1E 21 03 01 74 6C 6B 30  2B 1E 21 03 01 1A 80 23  .!..tlk0+.!....#
0650: 66 08 80 1E 21 03 01 1E  21 03 01 74 6C 6B 31 53  f...!...!..tlk1S
0660: 1E 21 03 01 1E 21 03 01  74 6C 6B 31 21 00        .!...!..tlk1!.  
```

#### Opcodes

```
  0: 0x050A [0x1E] EventEntity looks at LocalPlayer and starts talking
  1: 0x050F [0x6F] WAIT_FRAME_DELAY: Yield until WaitTime reaches zero
  2: 0x0510 [0x70] WAIT_ENTITY_RENDER_FLAG: Wait while EventEntity->Render.Flags3 bit 2 is set (cancel turn if not)
  3: 0x0511 [0x03] Work_Zone[1] = 12*
  4: 0x0516 [0x43] SEND_EVENT_UPDATE: Send pending tag to server (packet 0x005B)
  5: 0x0518 [0x43] SEND_EVENT_UPDATE: Check pending flag (skip if not pending)
  6: 0x051A [0x02] IF !(Work_Zone[9] == 1*) GOTO 0x0577
  7: 0x0522 [0x03] Work_Zone[2] = 14928*
  8: 0x0527 [0x66] LOAD_EXT_SCHEDULER_MAIN: Load scheduler "thk1" with entities [Lathuya (ID: 16982302/0x0103211E), Lathuya (ID: 16982302/0x0103211E)], work=30*
  9: 0x0536 [0x2B] Lathuya (ID: 16982302/0x0103211E) [8978*]:
    → "The materials for making the $0? Ah, just a moment..."
 10: 0x053D [0x23] WAIT_FOR_DIALOG_INTERACTION
 11: 0x053E [0x66] LOAD_EXT_SCHEDULER_MAIN: Load scheduler "thk2" with entities [Lathuya (ID: 16982302/0x0103211E), Lathuya (ID: 16982302/0x0103211E)], work=30*
 12: 0x054D [0x53] WAIT_SCHEDULER_TASK: Wait for scheduler "thk2" with entities [Lathuya (ID: 16982302/0x0103211E), Lathuya (ID: 16982302/0x0103211E)]
 13: 0x055A [0x03] Work_Zone[1] = 2*
 14: 0x055F [0x43] SEND_EVENT_UPDATE: Send pending tag to server (packet 0x005B)
 15: 0x0561 [0x43] SEND_EVENT_UPDATE: Check pending flag (skip if not pending)
 16: 0x0563 [0x2B] Lathuya (ID: 16982302/0x0103211E) [8979*]:
    → "According to the list here, we need $1, $2, $3, and $4."
 17: 0x056A [0x23] WAIT_FOR_DIALOG_INTERACTION
 18: 0x056B [0x03] Work_Zone[1] = 3*
 19: 0x0570 [0x43] SEND_EVENT_UPDATE: Send pending tag to server (packet 0x005B)
 20: 0x0572 [0x43] SEND_EVENT_UPDATE: Check pending flag (skip if not pending)
 21: 0x0574 [0x01] GOTO 0x0631
 22: 0x0577 [0x02] IF !(Work_Zone[9] == 2*) GOTO 0x05D4
 23: 0x057F [0x03] Work_Zone[2] = 15600*
 24: 0x0584 [0x66] LOAD_EXT_SCHEDULER_MAIN: Load scheduler "thk1" with entities [Lathuya (ID: 16982302/0x0103211E), Lathuya (ID: 16982302/0x0103211E)], work=30*
 25: 0x0593 [0x2B] Lathuya (ID: 16982302/0x0103211E) [8978*]:
    → "The materials for making the $0? Ah, just a moment..."
 26: 0x059A [0x23] WAIT_FOR_DIALOG_INTERACTION
 27: 0x059B [0x66] LOAD_EXT_SCHEDULER_MAIN: Load scheduler "thk2" with entities [Lathuya (ID: 16982302/0x0103211E), Lathuya (ID: 16982302/0x0103211E)], work=30*
 28: 0x05AA [0x53] WAIT_SCHEDULER_TASK: Wait for scheduler "thk2" with entities [Lathuya (ID: 16982302/0x0103211E), Lathuya (ID: 16982302/0x0103211E)]
 29: 0x05B7 [0x03] Work_Zone[1] = 5*
 30: 0x05BC [0x43] SEND_EVENT_UPDATE: Send pending tag to server (packet 0x005B)
 31: 0x05BE [0x43] SEND_EVENT_UPDATE: Check pending flag (skip if not pending)
 32: 0x05C0 [0x2B] Lathuya (ID: 16982302/0x0103211E) [8979*]:
    → "According to the list here, we need $1, $2, $3, and $4."
 33: 0x05C7 [0x23] WAIT_FOR_DIALOG_INTERACTION
 34: 0x05C8 [0x03] Work_Zone[1] = 6*
 35: 0x05CD [0x43] SEND_EVENT_UPDATE: Send pending tag to server (packet 0x005B)
 36: 0x05CF [0x43] SEND_EVENT_UPDATE: Check pending flag (skip if not pending)
 37: 0x05D1 [0x01] GOTO 0x0631
 38: 0x05D4 [0x02] IF !(Work_Zone[9] == 3*) GOTO 0x0631
 39: 0x05DC [0x03] Work_Zone[2] = 14521*
 40: 0x05E1 [0x66] LOAD_EXT_SCHEDULER_MAIN: Load scheduler "thk1" with entities [Lathuya (ID: 16982302/0x0103211E), Lathuya (ID: 16982302/0x0103211E)], work=30*
 41: 0x05F0 [0x2B] Lathuya (ID: 16982302/0x0103211E) [8978*]:
    → "The materials for making the $0? Ah, just a moment..."
 42: 0x05F7 [0x23] WAIT_FOR_DIALOG_INTERACTION
 43: 0x05F8 [0x66] LOAD_EXT_SCHEDULER_MAIN: Load scheduler "thk2" with entities [Lathuya (ID: 16982302/0x0103211E), Lathuya (ID: 16982302/0x0103211E)], work=30*
 44: 0x0607 [0x53] WAIT_SCHEDULER_TASK: Wait for scheduler "thk2" with entities [Lathuya (ID: 16982302/0x0103211E), Lathuya (ID: 16982302/0x0103211E)]
 45: 0x0614 [0x03] Work_Zone[1] = 8*
 46: 0x0619 [0x43] SEND_EVENT_UPDATE: Send pending tag to server (packet 0x005B)
 47: 0x061B [0x43] SEND_EVENT_UPDATE: Check pending flag (skip if not pending)
 48: 0x061D [0x2B] Lathuya (ID: 16982302/0x0103211E) [8979*]:
    → "According to the list here, we need $1, $2, $3, and $4."
 49: 0x0624 [0x23] WAIT_FOR_DIALOG_INTERACTION
 50: 0x0625 [0x03] Work_Zone[1] = 9*
 51: 0x062A [0x43] SEND_EVENT_UPDATE: Send pending tag to server (packet 0x005B)
 52: 0x062C [0x43] SEND_EVENT_UPDATE: Check pending flag (skip if not pending)
 53: 0x062E [0x01] GOTO 0x0631

SUBROUTINE_0631:
 54: 0x0631 [0x2B] Lathuya (ID: 16982302/0x0103211E) [8980*]:
    → "The crafting fee comes to $2 $0$0 . We require customers to pay up front for made-to-order pieces."
 55: 0x0638 [0x23] WAIT_FOR_DIALOG_INTERACTION
 56: 0x0639 [0x66] LOAD_EXT_SCHEDULER_MAIN: Load scheduler "tlk0" with entities [Lathuya (ID: 16982302/0x0103211E), Lathuya (ID: 16982302/0x0103211E)], work=30*
 57: 0x0648 [0x2B] Lathuya (ID: 16982302/0x0103211E) [8981*]:
    → "Please show me the materials first, and then we can settle the payment."
 58: 0x064F [0x23] WAIT_FOR_DIALOG_INTERACTION
 59: 0x0650 [0x66] LOAD_EXT_SCHEDULER_MAIN: Load scheduler "tlk1" with entities [Lathuya (ID: 16982302/0x0103211E), Lathuya (ID: 16982302/0x0103211E)], work=30*
 60: 0x065F [0x53] WAIT_SCHEDULER_TASK: Wait for scheduler "tlk1" with entities [Lathuya (ID: 16982302/0x0103211E), Lathuya (ID: 16982302/0x0103211E)]
 61: 0x066C [0x21] END_EVENT
 62: 0x066D [0x00] END_REQSTACK()
```

### Event 740

#### Metadata

| Field        | Value     |
|--------------|-----------|
| Entrypoint   | 0x066E    |
| Data Size    | 196 bytes |
| Instructions | 47        |

```
      00 01 02 03 04 05 06 07  08 09 0A 0B 0C 0D 0E 0F
      -- -- -- -- -- -- -- --  -- -- -- -- -- -- -- --
0660:                                            42 1E                B.
0670: F0 FF FF 7F 6F 70 03 01  10 0C 80 43 00 43 01 02  ....op.....C.C..
0680: 09 10 0D 80 80 A9 06 03  01 10 10 80 43 00 43 01  ............C.C.
0690: 2B 1E 21 03 01 1B 80 23  03 01 10 12 80 43 00 43  +.!....#.....C.C
06A0: 01 03 02 10 0E 80 01 FD  06 02 09 10 10 80 80 D3  ................
06B0: 06 03 01 10 14 80 43 00  43 01 2B 1E 21 03 01 1B  ......C.C.+.!...
06C0: 80 23 03 01 10 15 80 43  00 43 01 03 02 10 13 80  .#.....C.C......
06D0: 01 FD 06 02 09 10 12 80  80 FD 06 03 01 10 17 80  ................
06E0: 43 00 43 01 2B 1E 21 03  01 1B 80 23 03 01 10 18  C.C.+.!....#....
06F0: 80 43 00 43 01 03 02 10  16 80 01 FD 06 66 08 80  .C.C.........f..
0700: 1E 21 03 01 1E 21 03 01  74 68 6B 31 2B 1E 21 03  .!...!..thk1+.!.
0710: 01 1C 80 23 66 08 80 1E  21 03 01 1E 21 03 01 74  ...#f...!...!..t
0720: 68 6B 32 53 1E 21 03 01  1E 21 03 01 74 68 6B 32  hk2S.!...!..thk2
0730: 21 00                                             !.              
```

#### Opcodes

```
  0: 0x066E [0x42] SET_CLI_EVENT_CANCEL_DATA()
  1: 0x066F [0x1E] EventEntity looks at LocalPlayer and starts talking
  2: 0x0674 [0x6F] WAIT_FRAME_DELAY: Yield until WaitTime reaches zero
  3: 0x0675 [0x70] WAIT_ENTITY_RENDER_FLAG: Wait while EventEntity->Render.Flags3 bit 2 is set (cancel turn if not)
  4: 0x0676 [0x03] Work_Zone[1] = 12*
  5: 0x067B [0x43] SEND_EVENT_UPDATE: Send pending tag to server (packet 0x005B)
  6: 0x067D [0x43] SEND_EVENT_UPDATE: Check pending flag (skip if not pending)
  7: 0x067F [0x02] IF !(Work_Zone[9] == 1*) GOTO 0x06A9
  8: 0x0687 [0x03] Work_Zone[1] = 2*
  9: 0x068C [0x43] SEND_EVENT_UPDATE: Send pending tag to server (packet 0x005B)
 10: 0x068E [0x43] SEND_EVENT_UPDATE: Check pending flag (skip if not pending)
 11: 0x0690 [0x2B] Lathuya (ID: 16982302/0x0103211E) [8982*]:
    → "Okay... We have $1, $2, $3...and $4. Everything seems to be in order."
 12: 0x0697 [0x23] WAIT_FOR_DIALOG_INTERACTION
 13: 0x0698 [0x03] Work_Zone[1] = 3*
 14: 0x069D [0x43] SEND_EVENT_UPDATE: Send pending tag to server (packet 0x005B)
 15: 0x069F [0x43] SEND_EVENT_UPDATE: Check pending flag (skip if not pending)
 16: 0x06A1 [0x03] Work_Zone[2] = 14928*
 17: 0x06A6 [0x01] GOTO 0x06FD
 18: 0x06A9 [0x02] IF !(Work_Zone[9] == 2*) GOTO 0x06D3
 19: 0x06B1 [0x03] Work_Zone[1] = 5*
 20: 0x06B6 [0x43] SEND_EVENT_UPDATE: Send pending tag to server (packet 0x005B)
 21: 0x06B8 [0x43] SEND_EVENT_UPDATE: Check pending flag (skip if not pending)
 22: 0x06BA [0x2B] Lathuya (ID: 16982302/0x0103211E) [8982*]:
    → "Okay... We have $1, $2, $3...and $4. Everything seems to be in order."
 23: 0x06C1 [0x23] WAIT_FOR_DIALOG_INTERACTION
 24: 0x06C2 [0x03] Work_Zone[1] = 6*
 25: 0x06C7 [0x43] SEND_EVENT_UPDATE: Send pending tag to server (packet 0x005B)
 26: 0x06C9 [0x43] SEND_EVENT_UPDATE: Check pending flag (skip if not pending)
 27: 0x06CB [0x03] Work_Zone[2] = 15600*
 28: 0x06D0 [0x01] GOTO 0x06FD
 29: 0x06D3 [0x02] IF !(Work_Zone[9] == 3*) GOTO 0x06FD
 30: 0x06DB [0x03] Work_Zone[1] = 8*
 31: 0x06E0 [0x43] SEND_EVENT_UPDATE: Send pending tag to server (packet 0x005B)
 32: 0x06E2 [0x43] SEND_EVENT_UPDATE: Check pending flag (skip if not pending)
 33: 0x06E4 [0x2B] Lathuya (ID: 16982302/0x0103211E) [8982*]:
    → "Okay... We have $1, $2, $3...and $4. Everything seems to be in order."
 34: 0x06EB [0x23] WAIT_FOR_DIALOG_INTERACTION
 35: 0x06EC [0x03] Work_Zone[1] = 9*
 36: 0x06F1 [0x43] SEND_EVENT_UPDATE: Send pending tag to server (packet 0x005B)
 37: 0x06F3 [0x43] SEND_EVENT_UPDATE: Check pending flag (skip if not pending)
 38: 0x06F5 [0x03] Work_Zone[2] = 14521*
 39: 0x06FA [0x01] GOTO 0x06FD

SUBROUTINE_06FD:
 40: 0x06FD [0x66] LOAD_EXT_SCHEDULER_MAIN: Load scheduler "thk1" with entities [Lathuya (ID: 16982302/0x0103211E), Lathuya (ID: 16982302/0x0103211E)], work=30*
 41: 0x070C [0x2B] Lathuya (ID: 16982302/0x0103211E) [8983*]:
    → "Now the crafting fee for the $0... We require an up-front payment of $2 $0$0 ."
 42: 0x0713 [0x23] WAIT_FOR_DIALOG_INTERACTION
 43: 0x0714 [0x66] LOAD_EXT_SCHEDULER_MAIN: Load scheduler "thk2" with entities [Lathuya (ID: 16982302/0x0103211E), Lathuya (ID: 16982302/0x0103211E)], work=30*
 44: 0x0723 [0x53] WAIT_SCHEDULER_TASK: Wait for scheduler "thk2" with entities [Lathuya (ID: 16982302/0x0103211E), Lathuya (ID: 16982302/0x0103211E)]
 45: 0x0730 [0x21] END_EVENT
 46: 0x0731 [0x00] END_REQSTACK()
```

### Event 741

#### Metadata

| Field        | Value     |
|--------------|-----------|
| Entrypoint   | 0x0732    |
| Data Size    | 144 bytes |
| Instructions | 31        |

```
      00 01 02 03 04 05 06 07  08 09 0A 0B 0C 0D 0E 0F
      -- -- -- -- -- -- -- --  -- -- -- -- -- -- -- --
0730:       1E F0 FF FF 7F 6F  70 03 01 10 0C 80 43 00    .....op.....C.
0740: 43 01 02 09 10 0D 80 80  5B 07 03 01 10 12 80 43  C.......[......C
0750: 00 43 01 03 02 10 0E 80  01 8D 07 02 09 10 10 80  .C..............
0760: 80 74 07 03 01 10 15 80  43 00 43 01 03 02 10 13  .t......C.C.....
0770: 80 01 8D 07 02 09 10 12  80 80 8D 07 03 01 10 18  ................
0780: 80 43 00 43 01 03 02 10  16 80 01 8D 07 66 08 80  .C.C.........f..
0790: 1E 21 03 01 1E 21 03 01  74 68 6B 31 2B 1E 21 03  .!...!..thk1+.!.
07A0: 01 1C 80 23 66 08 80 1E  21 03 01 1E 21 03 01 74  ...#f...!...!..t
07B0: 68 6B 32 53 1E 21 03 01  1E 21 03 01 74 68 6B 32  hk2S.!...!..thk2
07C0: 21 00                                             !.              
```

#### Opcodes

```
  0: 0x0732 [0x1E] EventEntity looks at LocalPlayer and starts talking
  1: 0x0737 [0x6F] WAIT_FRAME_DELAY: Yield until WaitTime reaches zero
  2: 0x0738 [0x70] WAIT_ENTITY_RENDER_FLAG: Wait while EventEntity->Render.Flags3 bit 2 is set (cancel turn if not)
  3: 0x0739 [0x03] Work_Zone[1] = 12*
  4: 0x073E [0x43] SEND_EVENT_UPDATE: Send pending tag to server (packet 0x005B)
  5: 0x0740 [0x43] SEND_EVENT_UPDATE: Check pending flag (skip if not pending)
  6: 0x0742 [0x02] IF !(Work_Zone[9] == 1*) GOTO 0x075B
  7: 0x074A [0x03] Work_Zone[1] = 3*
  8: 0x074F [0x43] SEND_EVENT_UPDATE: Send pending tag to server (packet 0x005B)
  9: 0x0751 [0x43] SEND_EVENT_UPDATE: Check pending flag (skip if not pending)
 10: 0x0753 [0x03] Work_Zone[2] = 14928*
 11: 0x0758 [0x01] GOTO 0x078D
 12: 0x075B [0x02] IF !(Work_Zone[9] == 2*) GOTO 0x0774
 13: 0x0763 [0x03] Work_Zone[1] = 6*
 14: 0x0768 [0x43] SEND_EVENT_UPDATE: Send pending tag to server (packet 0x005B)
 15: 0x076A [0x43] SEND_EVENT_UPDATE: Check pending flag (skip if not pending)
 16: 0x076C [0x03] Work_Zone[2] = 15600*
 17: 0x0771 [0x01] GOTO 0x078D
 18: 0x0774 [0x02] IF !(Work_Zone[9] == 3*) GOTO 0x078D
 19: 0x077C [0x03] Work_Zone[1] = 9*
 20: 0x0781 [0x43] SEND_EVENT_UPDATE: Send pending tag to server (packet 0x005B)
 21: 0x0783 [0x43] SEND_EVENT_UPDATE: Check pending flag (skip if not pending)
 22: 0x0785 [0x03] Work_Zone[2] = 14521*
 23: 0x078A [0x01] GOTO 0x078D

SUBROUTINE_078D:
 24: 0x078D [0x66] LOAD_EXT_SCHEDULER_MAIN: Load scheduler "thk1" with entities [Lathuya (ID: 16982302/0x0103211E), Lathuya (ID: 16982302/0x0103211E)], work=30*
 25: 0x079C [0x2B] Lathuya (ID: 16982302/0x0103211E) [8983*]:
    → "Now the crafting fee for the $0... We require an up-front payment of $2 $0$0 ."
 26: 0x07A3 [0x23] WAIT_FOR_DIALOG_INTERACTION
 27: 0x07A4 [0x66] LOAD_EXT_SCHEDULER_MAIN: Load scheduler "thk2" with entities [Lathuya (ID: 16982302/0x0103211E), Lathuya (ID: 16982302/0x0103211E)], work=30*
 28: 0x07B3 [0x53] WAIT_SCHEDULER_TASK: Wait for scheduler "thk2" with entities [Lathuya (ID: 16982302/0x0103211E), Lathuya (ID: 16982302/0x0103211E)]
 29: 0x07C0 [0x21] END_EVENT
 30: 0x07C1 [0x00] END_REQSTACK()
```

### Event 742

#### Metadata

| Field        | Value     |
|--------------|-----------|
| Entrypoint   | 0x07C2    |
| Data Size    | 154 bytes |
| Instructions | 35        |

```
      00 01 02 03 04 05 06 07  08 09 0A 0B 0C 0D 0E 0F
      -- -- -- -- -- -- -- --  -- -- -- -- -- -- -- --
07C0:       42 1E F0 FF FF 7F  6F 70 03 01 10 0C 80 43    B.....op.....C
07D0: 00 43 01 02 09 10 0D 80  80 E7 07 03 01 10 12 80  .C..............
07E0: 43 00 43 01 01 0F 08 02  09 10 10 80 80 FB 07 03  C.C.............
07F0: 01 10 15 80 43 00 43 01  01 0F 08 02 09 10 12 80  ....C.C.........
0800: 80 0F 08 03 01 10 18 80  43 00 43 01 01 0F 08 2B  ........C.C....+
0810: 1E 21 03 01 1D 80 23 66  08 80 1E 21 03 01 1E 21  .!....#f...!...!
0820: 03 01 61 6B 62 30 2B 1E  21 03 01 1E 80 23 53 1E  ..akb0+.!....#S.
0830: 21 03 01 1E 21 03 01 61  6B 62 30 2B 1E 21 03 01  !...!..akb0+.!..
0840: 1F 80 23 66 08 80 1E 21  03 01 1E 21 03 01 70 61  ..#f...!...!..pa
0850: 73 30 2B 1E 21 03 01 20  80 23 21 00              s0+.!.. .#!.    
```

#### Opcodes

```
  0: 0x07C2 [0x42] SET_CLI_EVENT_CANCEL_DATA()
  1: 0x07C3 [0x1E] EventEntity looks at LocalPlayer and starts talking
  2: 0x07C8 [0x6F] WAIT_FRAME_DELAY: Yield until WaitTime reaches zero
  3: 0x07C9 [0x70] WAIT_ENTITY_RENDER_FLAG: Wait while EventEntity->Render.Flags3 bit 2 is set (cancel turn if not)
  4: 0x07CA [0x03] Work_Zone[1] = 12*
  5: 0x07CF [0x43] SEND_EVENT_UPDATE: Send pending tag to server (packet 0x005B)
  6: 0x07D1 [0x43] SEND_EVENT_UPDATE: Check pending flag (skip if not pending)
  7: 0x07D3 [0x02] IF !(Work_Zone[9] == 1*) GOTO 0x07E7
  8: 0x07DB [0x03] Work_Zone[1] = 3*
  9: 0x07E0 [0x43] SEND_EVENT_UPDATE: Send pending tag to server (packet 0x005B)
 10: 0x07E2 [0x43] SEND_EVENT_UPDATE: Check pending flag (skip if not pending)
 11: 0x07E4 [0x01] GOTO 0x080F
 12: 0x07E7 [0x02] IF !(Work_Zone[9] == 2*) GOTO 0x07FB
 13: 0x07EF [0x03] Work_Zone[1] = 6*
 14: 0x07F4 [0x43] SEND_EVENT_UPDATE: Send pending tag to server (packet 0x005B)
 15: 0x07F6 [0x43] SEND_EVENT_UPDATE: Check pending flag (skip if not pending)
 16: 0x07F8 [0x01] GOTO 0x080F
 17: 0x07FB [0x02] IF !(Work_Zone[9] == 3*) GOTO 0x080F
 18: 0x0803 [0x03] Work_Zone[1] = 9*
 19: 0x0808 [0x43] SEND_EVENT_UPDATE: Send pending tag to server (packet 0x005B)
 20: 0x080A [0x43] SEND_EVENT_UPDATE: Check pending flag (skip if not pending)
 21: 0x080C [0x01] GOTO 0x080F

SUBROUTINE_080F:
 22: 0x080F [0x2B] Lathuya (ID: 16982302/0x0103211E) [8984*]:
    → "Yes. The payment. Let me just count... $2 $0$0 . It's all here."
 23: 0x0816 [0x23] WAIT_FOR_DIALOG_INTERACTION
 24: 0x0817 [0x66] LOAD_EXT_SCHEDULER_MAIN: Load scheduler "akb0" with entities [Lathuya (ID: 16982302/0x0103211E), Lathuya (ID: 16982302/0x0103211E)], work=30*
 25: 0x0826 [0x2B] Lathuya (ID: 16982302/0x0103211E) [8985*]:
    → "I'll make sure the materials you've brought go directly to the boss."
 26: 0x082D [0x23] WAIT_FOR_DIALOG_INTERACTION
 27: 0x082E [0x53] WAIT_SCHEDULER_TASK: Wait for scheduler "akb0" with entities [Lathuya (ID: 16982302/0x0103211E), Lathuya (ID: 16982302/0x0103211E)]
 28: 0x083B [0x2B] Lathuya (ID: 16982302/0x0103211E) [8986*]:
    → "The completion of your order will take some time... Would you mind returning to our store a little later? A thousand pardons..."
 29: 0x0842 [0x23] WAIT_FOR_DIALOG_INTERACTION
 30: 0x0843 [0x66] LOAD_EXT_SCHEDULER_MAIN: Load scheduler "pas0" with entities [Lathuya (ID: 16982302/0x0103211E), Lathuya (ID: 16982302/0x0103211E)], work=30*
 31: 0x0852 [0x2B] Lathuya (ID: 16982302/0x0103211E) [8987*]:
    → "Thank you. Here, please don't lose this. (Phew, I get so nervous dealing with customers...)"
 32: 0x0859 [0x23] WAIT_FOR_DIALOG_INTERACTION
 33: 0x085A [0x21] END_EVENT
 34: 0x085B [0x00] END_REQSTACK()
```

### Event 743

#### Metadata

| Field        | Value    |
|--------------|----------|
| Entrypoint   | 0x085C   |
| Data Size    | 60 bytes |
| Instructions | 10       |

```
      00 01 02 03 04 05 06 07  08 09 0A 0B 0C 0D 0E 0F
      -- -- -- -- -- -- -- --  -- -- -- -- -- -- -- --
0850:                                      1E F0 FF FF              ....
0860: 7F 6F 70 66 00 80 1E 21  03 01 1E 21 03 01 74 6C  .opf...!...!..tl
0870: 63 30 2B 1E 21 03 01 1F  80 23 66 00 80 1E 21 03  c0+.!....#f...!.
0880: 01 1E 21 03 01 74 6C 63  31 53 1E 21 03 01 1E 21  ..!..tlc1S.!...!
0890: 03 01 74 6C 63 30 21 00                           ..tlc0!.        
```

#### Opcodes

```
  0: 0x085C [0x1E] EventEntity looks at LocalPlayer and starts talking
  1: 0x0861 [0x6F] WAIT_FRAME_DELAY: Yield until WaitTime reaches zero
  2: 0x0862 [0x70] WAIT_ENTITY_RENDER_FLAG: Wait while EventEntity->Render.Flags3 bit 2 is set (cancel turn if not)
  3: 0x0863 [0x66] LOAD_EXT_SCHEDULER_MAIN: Load scheduler "tlc0" with entities [Lathuya (ID: 16982302/0x0103211E), Lathuya (ID: 16982302/0x0103211E)], work=32*
  4: 0x0872 [0x2B] Lathuya (ID: 16982302/0x0103211E) [8986*]:
    → "The completion of your order will take some time... Would you mind returning to our store a little later? A thousand pardons..."
  5: 0x0879 [0x23] WAIT_FOR_DIALOG_INTERACTION
  6: 0x087A [0x66] LOAD_EXT_SCHEDULER_MAIN: Load scheduler "tlc1" with entities [Lathuya (ID: 16982302/0x0103211E), Lathuya (ID: 16982302/0x0103211E)], work=32*
  7: 0x0889 [0x53] WAIT_SCHEDULER_TASK: Wait for scheduler "tlc0" with entities [Lathuya (ID: 16982302/0x0103211E), Lathuya (ID: 16982302/0x0103211E)]
  8: 0x0896 [0x21] END_EVENT
  9: 0x0897 [0x00] END_REQSTACK()
```

### Event 744

#### Metadata

| Field        | Value   |
|--------------|---------|
| Entrypoint   | 0x0898  |
| Data Size    | 1 bytes |
| Instructions | 1       |

```
      00 01 02 03 04 05 06 07  08 09 0A 0B 0C 0D 0E 0F
      -- -- -- -- -- -- -- --  -- -- -- -- -- -- -- --
0890:                          00                               .       
```

#### Opcodes

```
  0: 0x0898 [0x00] END_REQSTACK()
```

### Event 745

#### Metadata

| Field        | Value    |
|--------------|----------|
| Entrypoint   | 0x0899   |
| Data Size    | 53 bytes |
| Instructions | 11       |

```
      00 01 02 03 04 05 06 07  08 09 0A 0B 0C 0D 0E 0F
      -- -- -- -- -- -- -- --  -- -- -- -- -- -- -- --
0890:                             1E F0 FF FF 7F 6F 70           .....op
08A0: 66 00 80 1E 21 03 01 1E  21 03 01 61 6B 62 30 2B  f...!...!..akb0+
08B0: 1E 21 03 01 04 80 23 2B  1E 21 03 01 05 80 23 53  .!....#+.!....#S
08C0: 1E 21 03 01 1E 21 03 01  61 6B 62 30 21 00        .!...!..akb0!.  
```

#### Opcodes

```
  0: 0x0899 [0x1E] EventEntity looks at LocalPlayer and starts talking
  1: 0x089E [0x6F] WAIT_FRAME_DELAY: Yield until WaitTime reaches zero
  2: 0x089F [0x70] WAIT_ENTITY_RENDER_FLAG: Wait while EventEntity->Render.Flags3 bit 2 is set (cancel turn if not)
  3: 0x08A0 [0x66] LOAD_EXT_SCHEDULER_MAIN: Load scheduler "akb0" with entities [Lathuya (ID: 16982302/0x0103211E), Lathuya (ID: 16982302/0x0103211E)], work=32*
  4: 0x08AF [0x2B] Lathuya (ID: 16982302/0x0103211E) [8917*]:
    → "Ah, [Mister/Miss] <Player>. The boss has retired for the day. He won't wake up, even if Al Zahbi comes under attack from the beastmen. He's not easily excited..."
  5: 0x08B6 [0x23] WAIT_FOR_DIALOG_INTERACTION
  6: 0x08B7 [0x2B] Lathuya (ID: 16982302/0x0103211E) [8918*]:
    → "If you have business with my boss, you'll have to wait just a touch. A thousand pardons."
  7: 0x08BE [0x23] WAIT_FOR_DIALOG_INTERACTION
  8: 0x08BF [0x53] WAIT_SCHEDULER_TASK: Wait for scheduler "akb0" with entities [Lathuya (ID: 16982302/0x0103211E), Lathuya (ID: 16982302/0x0103211E)]
  9: 0x08CC [0x21] END_EVENT
 10: 0x08CD [0x00] END_REQSTACK()
```

### Event 746

#### Metadata

| Field        | Value   |
|--------------|---------|
| Entrypoint   | 0x08CE  |
| Data Size    | 1 bytes |
| Instructions | 1       |

```
      00 01 02 03 04 05 06 07  08 09 0A 0B 0C 0D 0E 0F
      -- -- -- -- -- -- -- --  -- -- -- -- -- -- -- --
08C0:                                            00                   . 
```

#### Opcodes

```
  0: 0x08CE [0x00] END_REQSTACK()
```

### Event 747

#### Metadata

| Field        | Value     |
|--------------|-----------|
| Entrypoint   | 0x08CF    |
| Data Size    | 356 bytes |
| Instructions | 63        |

```
      00 01 02 03 04 05 06 07  08 09 0A 0B 0C 0D 0E 0F
      -- -- -- -- -- -- -- --  -- -- -- -- -- -- -- --
08C0:                                               1E                 .
08D0: F0 FF FF 7F 6F 70 03 01  10 0C 80 43 00 43 01 02  ....op.....C.C..
08E0: 09 10 0D 80 80 3C 09 03  02 10 0E 80 66 08 80 1E  .....<......f...
08F0: 21 03 01 1E 21 03 01 74  68 6B 31 2B 1E 21 03 01  !...!..thk1+.!..
0900: 0F 80 23 66 08 80 1E 21  03 01 1E 21 03 01 74 68  ..#f...!...!..th
0910: 6B 32 53 1E 21 03 01 1E  21 03 01 74 68 6B 32 03  k2S.!...!..thk2.
0920: 01 10 10 80 43 00 43 01  2B 1E 21 03 01 11 80 23  ....C.C.+.!....#
0930: 03 01 10 12 80 43 00 43  01 01 F6 09 02 09 10 10  .....C.C........
0940: 80 80 99 09 03 02 10 13  80 66 08 80 1E 21 03 01  .........f...!..
0950: 1E 21 03 01 74 68 6B 31  2B 1E 21 03 01 0F 80 23  .!..thk1+.!....#
0960: 66 08 80 1E 21 03 01 1E  21 03 01 74 68 6B 32 53  f...!...!..thk2S
0970: 1E 21 03 01 1E 21 03 01  74 68 6B 32 03 01 10 14  .!...!..thk2....
0980: 80 43 00 43 01 2B 1E 21  03 01 11 80 23 03 01 10  .C.C.+.!....#...
0990: 15 80 43 00 43 01 01 F6  09 02 09 10 12 80 80 F6  ..C.C...........
09A0: 09 03 02 10 16 80 66 08  80 1E 21 03 01 1E 21 03  ......f...!...!.
09B0: 01 74 68 6B 31 2B 1E 21  03 01 0F 80 23 66 08 80  .thk1+.!....#f..
09C0: 1E 21 03 01 1E 21 03 01  74 68 6B 32 53 1E 21 03  .!...!..thk2S.!.
09D0: 01 1E 21 03 01 74 68 6B  32 03 01 10 17 80 43 00  ..!..thk2.....C.
09E0: 43 01 2B 1E 21 03 01 11  80 23 03 01 10 18 80 43  C.+.!....#.....C
09F0: 00 43 01 01 F6 09 2B 1E  21 03 01 19 80 23 66 08  .C....+.!....#f.
0A00: 80 1E 21 03 01 1E 21 03  01 74 6C 6B 30 2B 1E 21  ..!...!..tlk0+.!
0A10: 03 01 1A 80 23 66 08 80  1E 21 03 01 1E 21 03 01  ....#f...!...!..
0A20: 74 6C 6B 31 53 1E 21 03  01 1E 21 03 01 74 6C 6B  tlk1S.!...!..tlk
0A30: 31 21 00                                          1!.             
```

#### Opcodes

```
  0: 0x08CF [0x1E] EventEntity looks at LocalPlayer and starts talking
  1: 0x08D4 [0x6F] WAIT_FRAME_DELAY: Yield until WaitTime reaches zero
  2: 0x08D5 [0x70] WAIT_ENTITY_RENDER_FLAG: Wait while EventEntity->Render.Flags3 bit 2 is set (cancel turn if not)
  3: 0x08D6 [0x03] Work_Zone[1] = 12*
  4: 0x08DB [0x43] SEND_EVENT_UPDATE: Send pending tag to server (packet 0x005B)
  5: 0x08DD [0x43] SEND_EVENT_UPDATE: Check pending flag (skip if not pending)
  6: 0x08DF [0x02] IF !(Work_Zone[9] == 1*) GOTO 0x093C
  7: 0x08E7 [0x03] Work_Zone[2] = 14928*
  8: 0x08EC [0x66] LOAD_EXT_SCHEDULER_MAIN: Load scheduler "thk1" with entities [Lathuya (ID: 16982302/0x0103211E), Lathuya (ID: 16982302/0x0103211E)], work=30*
  9: 0x08FB [0x2B] Lathuya (ID: 16982302/0x0103211E) [8978*]:
    → "The materials for making the $0? Ah, just a moment..."
 10: 0x0902 [0x23] WAIT_FOR_DIALOG_INTERACTION
 11: 0x0903 [0x66] LOAD_EXT_SCHEDULER_MAIN: Load scheduler "thk2" with entities [Lathuya (ID: 16982302/0x0103211E), Lathuya (ID: 16982302/0x0103211E)], work=30*
 12: 0x0912 [0x53] WAIT_SCHEDULER_TASK: Wait for scheduler "thk2" with entities [Lathuya (ID: 16982302/0x0103211E), Lathuya (ID: 16982302/0x0103211E)]
 13: 0x091F [0x03] Work_Zone[1] = 2*
 14: 0x0924 [0x43] SEND_EVENT_UPDATE: Send pending tag to server (packet 0x005B)
 15: 0x0926 [0x43] SEND_EVENT_UPDATE: Check pending flag (skip if not pending)
 16: 0x0928 [0x2B] Lathuya (ID: 16982302/0x0103211E) [8979*]:
    → "According to the list here, we need $1, $2, $3, and $4."
 17: 0x092F [0x23] WAIT_FOR_DIALOG_INTERACTION
 18: 0x0930 [0x03] Work_Zone[1] = 3*
 19: 0x0935 [0x43] SEND_EVENT_UPDATE: Send pending tag to server (packet 0x005B)
 20: 0x0937 [0x43] SEND_EVENT_UPDATE: Check pending flag (skip if not pending)
 21: 0x0939 [0x01] GOTO 0x09F6
 22: 0x093C [0x02] IF !(Work_Zone[9] == 2*) GOTO 0x0999
 23: 0x0944 [0x03] Work_Zone[2] = 15600*
 24: 0x0949 [0x66] LOAD_EXT_SCHEDULER_MAIN: Load scheduler "thk1" with entities [Lathuya (ID: 16982302/0x0103211E), Lathuya (ID: 16982302/0x0103211E)], work=30*
 25: 0x0958 [0x2B] Lathuya (ID: 16982302/0x0103211E) [8978*]:
    → "The materials for making the $0? Ah, just a moment..."
 26: 0x095F [0x23] WAIT_FOR_DIALOG_INTERACTION
 27: 0x0960 [0x66] LOAD_EXT_SCHEDULER_MAIN: Load scheduler "thk2" with entities [Lathuya (ID: 16982302/0x0103211E), Lathuya (ID: 16982302/0x0103211E)], work=30*
 28: 0x096F [0x53] WAIT_SCHEDULER_TASK: Wait for scheduler "thk2" with entities [Lathuya (ID: 16982302/0x0103211E), Lathuya (ID: 16982302/0x0103211E)]
 29: 0x097C [0x03] Work_Zone[1] = 5*
 30: 0x0981 [0x43] SEND_EVENT_UPDATE: Send pending tag to server (packet 0x005B)
 31: 0x0983 [0x43] SEND_EVENT_UPDATE: Check pending flag (skip if not pending)
 32: 0x0985 [0x2B] Lathuya (ID: 16982302/0x0103211E) [8979*]:
    → "According to the list here, we need $1, $2, $3, and $4."
 33: 0x098C [0x23] WAIT_FOR_DIALOG_INTERACTION
 34: 0x098D [0x03] Work_Zone[1] = 6*
 35: 0x0992 [0x43] SEND_EVENT_UPDATE: Send pending tag to server (packet 0x005B)
 36: 0x0994 [0x43] SEND_EVENT_UPDATE: Check pending flag (skip if not pending)
 37: 0x0996 [0x01] GOTO 0x09F6
 38: 0x0999 [0x02] IF !(Work_Zone[9] == 3*) GOTO 0x09F6
 39: 0x09A1 [0x03] Work_Zone[2] = 14521*
 40: 0x09A6 [0x66] LOAD_EXT_SCHEDULER_MAIN: Load scheduler "thk1" with entities [Lathuya (ID: 16982302/0x0103211E), Lathuya (ID: 16982302/0x0103211E)], work=30*
 41: 0x09B5 [0x2B] Lathuya (ID: 16982302/0x0103211E) [8978*]:
    → "The materials for making the $0? Ah, just a moment..."
 42: 0x09BC [0x23] WAIT_FOR_DIALOG_INTERACTION
 43: 0x09BD [0x66] LOAD_EXT_SCHEDULER_MAIN: Load scheduler "thk2" with entities [Lathuya (ID: 16982302/0x0103211E), Lathuya (ID: 16982302/0x0103211E)], work=30*
 44: 0x09CC [0x53] WAIT_SCHEDULER_TASK: Wait for scheduler "thk2" with entities [Lathuya (ID: 16982302/0x0103211E), Lathuya (ID: 16982302/0x0103211E)]
 45: 0x09D9 [0x03] Work_Zone[1] = 8*
 46: 0x09DE [0x43] SEND_EVENT_UPDATE: Send pending tag to server (packet 0x005B)
 47: 0x09E0 [0x43] SEND_EVENT_UPDATE: Check pending flag (skip if not pending)
 48: 0x09E2 [0x2B] Lathuya (ID: 16982302/0x0103211E) [8979*]:
    → "According to the list here, we need $1, $2, $3, and $4."
 49: 0x09E9 [0x23] WAIT_FOR_DIALOG_INTERACTION
 50: 0x09EA [0x03] Work_Zone[1] = 9*
 51: 0x09EF [0x43] SEND_EVENT_UPDATE: Send pending tag to server (packet 0x005B)
 52: 0x09F1 [0x43] SEND_EVENT_UPDATE: Check pending flag (skip if not pending)
 53: 0x09F3 [0x01] GOTO 0x09F6

SUBROUTINE_09F6:
 54: 0x09F6 [0x2B] Lathuya (ID: 16982302/0x0103211E) [8980*]:
    → "The crafting fee comes to $2 $0$0 . We require customers to pay up front for made-to-order pieces."
 55: 0x09FD [0x23] WAIT_FOR_DIALOG_INTERACTION
 56: 0x09FE [0x66] LOAD_EXT_SCHEDULER_MAIN: Load scheduler "tlk0" with entities [Lathuya (ID: 16982302/0x0103211E), Lathuya (ID: 16982302/0x0103211E)], work=30*
 57: 0x0A0D [0x2B] Lathuya (ID: 16982302/0x0103211E) [8981*]:
    → "Please show me the materials first, and then we can settle the payment."
 58: 0x0A14 [0x23] WAIT_FOR_DIALOG_INTERACTION
 59: 0x0A15 [0x66] LOAD_EXT_SCHEDULER_MAIN: Load scheduler "tlk1" with entities [Lathuya (ID: 16982302/0x0103211E), Lathuya (ID: 16982302/0x0103211E)], work=30*
 60: 0x0A24 [0x53] WAIT_SCHEDULER_TASK: Wait for scheduler "tlk1" with entities [Lathuya (ID: 16982302/0x0103211E), Lathuya (ID: 16982302/0x0103211E)]
 61: 0x0A31 [0x21] END_EVENT
 62: 0x0A32 [0x00] END_REQSTACK()
```

### Event 748

#### Metadata

| Field        | Value     |
|--------------|-----------|
| Entrypoint   | 0x0A33    |
| Data Size    | 196 bytes |
| Instructions | 47        |

```
      00 01 02 03 04 05 06 07  08 09 0A 0B 0C 0D 0E 0F
      -- -- -- -- -- -- -- --  -- -- -- -- -- -- -- --
0A30:          42 1E F0 FF FF  7F 6F 70 03 01 10 0C 80     B.....op.....
0A40: 43 00 43 01 02 09 10 0D  80 80 6E 0A 03 01 10 10  C.C.......n.....
0A50: 80 43 00 43 01 2B 1E 21  03 01 1B 80 23 03 01 10  .C.C.+.!....#...
0A60: 12 80 43 00 43 01 03 02  10 0E 80 01 C2 0A 02 09  ..C.C...........
0A70: 10 10 80 80 98 0A 03 01  10 14 80 43 00 43 01 2B  ...........C.C.+
0A80: 1E 21 03 01 1B 80 23 03  01 10 15 80 43 00 43 01  .!....#.....C.C.
0A90: 03 02 10 13 80 01 C2 0A  02 09 10 12 80 80 C2 0A  ................
0AA0: 03 01 10 17 80 43 00 43  01 2B 1E 21 03 01 1B 80  .....C.C.+.!....
0AB0: 23 03 01 10 18 80 43 00  43 01 03 02 10 16 80 01  #.....C.C.......
0AC0: C2 0A 66 08 80 1E 21 03  01 1E 21 03 01 74 68 6B  ..f...!...!..thk
0AD0: 31 2B 1E 21 03 01 1C 80  23 66 08 80 1E 21 03 01  1+.!....#f...!..
0AE0: 1E 21 03 01 74 68 6B 32  53 1E 21 03 01 1E 21 03  .!..thk2S.!...!.
0AF0: 01 74 68 6B 32 21 00                              .thk2!.         
```

#### Opcodes

```
  0: 0x0A33 [0x42] SET_CLI_EVENT_CANCEL_DATA()
  1: 0x0A34 [0x1E] EventEntity looks at LocalPlayer and starts talking
  2: 0x0A39 [0x6F] WAIT_FRAME_DELAY: Yield until WaitTime reaches zero
  3: 0x0A3A [0x70] WAIT_ENTITY_RENDER_FLAG: Wait while EventEntity->Render.Flags3 bit 2 is set (cancel turn if not)
  4: 0x0A3B [0x03] Work_Zone[1] = 12*
  5: 0x0A40 [0x43] SEND_EVENT_UPDATE: Send pending tag to server (packet 0x005B)
  6: 0x0A42 [0x43] SEND_EVENT_UPDATE: Check pending flag (skip if not pending)
  7: 0x0A44 [0x02] IF !(Work_Zone[9] == 1*) GOTO 0x0A6E
  8: 0x0A4C [0x03] Work_Zone[1] = 2*
  9: 0x0A51 [0x43] SEND_EVENT_UPDATE: Send pending tag to server (packet 0x005B)
 10: 0x0A53 [0x43] SEND_EVENT_UPDATE: Check pending flag (skip if not pending)
 11: 0x0A55 [0x2B] Lathuya (ID: 16982302/0x0103211E) [8982*]:
    → "Okay... We have $1, $2, $3...and $4. Everything seems to be in order."
 12: 0x0A5C [0x23] WAIT_FOR_DIALOG_INTERACTION
 13: 0x0A5D [0x03] Work_Zone[1] = 3*
 14: 0x0A62 [0x43] SEND_EVENT_UPDATE: Send pending tag to server (packet 0x005B)
 15: 0x0A64 [0x43] SEND_EVENT_UPDATE: Check pending flag (skip if not pending)
 16: 0x0A66 [0x03] Work_Zone[2] = 14928*
 17: 0x0A6B [0x01] GOTO 0x0AC2
 18: 0x0A6E [0x02] IF !(Work_Zone[9] == 2*) GOTO 0x0A98
 19: 0x0A76 [0x03] Work_Zone[1] = 5*
 20: 0x0A7B [0x43] SEND_EVENT_UPDATE: Send pending tag to server (packet 0x005B)
 21: 0x0A7D [0x43] SEND_EVENT_UPDATE: Check pending flag (skip if not pending)
 22: 0x0A7F [0x2B] Lathuya (ID: 16982302/0x0103211E) [8982*]:
    → "Okay... We have $1, $2, $3...and $4. Everything seems to be in order."
 23: 0x0A86 [0x23] WAIT_FOR_DIALOG_INTERACTION
 24: 0x0A87 [0x03] Work_Zone[1] = 6*
 25: 0x0A8C [0x43] SEND_EVENT_UPDATE: Send pending tag to server (packet 0x005B)
 26: 0x0A8E [0x43] SEND_EVENT_UPDATE: Check pending flag (skip if not pending)
 27: 0x0A90 [0x03] Work_Zone[2] = 15600*
 28: 0x0A95 [0x01] GOTO 0x0AC2
 29: 0x0A98 [0x02] IF !(Work_Zone[9] == 3*) GOTO 0x0AC2
 30: 0x0AA0 [0x03] Work_Zone[1] = 8*
 31: 0x0AA5 [0x43] SEND_EVENT_UPDATE: Send pending tag to server (packet 0x005B)
 32: 0x0AA7 [0x43] SEND_EVENT_UPDATE: Check pending flag (skip if not pending)
 33: 0x0AA9 [0x2B] Lathuya (ID: 16982302/0x0103211E) [8982*]:
    → "Okay... We have $1, $2, $3...and $4. Everything seems to be in order."
 34: 0x0AB0 [0x23] WAIT_FOR_DIALOG_INTERACTION
 35: 0x0AB1 [0x03] Work_Zone[1] = 9*
 36: 0x0AB6 [0x43] SEND_EVENT_UPDATE: Send pending tag to server (packet 0x005B)
 37: 0x0AB8 [0x43] SEND_EVENT_UPDATE: Check pending flag (skip if not pending)
 38: 0x0ABA [0x03] Work_Zone[2] = 14521*
 39: 0x0ABF [0x01] GOTO 0x0AC2

SUBROUTINE_0AC2:
 40: 0x0AC2 [0x66] LOAD_EXT_SCHEDULER_MAIN: Load scheduler "thk1" with entities [Lathuya (ID: 16982302/0x0103211E), Lathuya (ID: 16982302/0x0103211E)], work=30*
 41: 0x0AD1 [0x2B] Lathuya (ID: 16982302/0x0103211E) [8983*]:
    → "Now the crafting fee for the $0... We require an up-front payment of $2 $0$0 ."
 42: 0x0AD8 [0x23] WAIT_FOR_DIALOG_INTERACTION
 43: 0x0AD9 [0x66] LOAD_EXT_SCHEDULER_MAIN: Load scheduler "thk2" with entities [Lathuya (ID: 16982302/0x0103211E), Lathuya (ID: 16982302/0x0103211E)], work=30*
 44: 0x0AE8 [0x53] WAIT_SCHEDULER_TASK: Wait for scheduler "thk2" with entities [Lathuya (ID: 16982302/0x0103211E), Lathuya (ID: 16982302/0x0103211E)]
 45: 0x0AF5 [0x21] END_EVENT
 46: 0x0AF6 [0x00] END_REQSTACK()
```

### Event 749

#### Metadata

| Field        | Value     |
|--------------|-----------|
| Entrypoint   | 0x0AF7    |
| Data Size    | 144 bytes |
| Instructions | 31        |

```
      00 01 02 03 04 05 06 07  08 09 0A 0B 0C 0D 0E 0F
      -- -- -- -- -- -- -- --  -- -- -- -- -- -- -- --
0AF0:                      1E  F0 FF FF 7F 6F 70 03 01         .....op..
0B00: 10 0C 80 43 00 43 01 02  09 10 0D 80 80 20 0B 03  ...C.C....... ..
0B10: 01 10 12 80 43 00 43 01  03 02 10 0E 80 01 52 0B  ....C.C.......R.
0B20: 02 09 10 10 80 80 39 0B  03 01 10 15 80 43 00 43  ......9......C.C
0B30: 01 03 02 10 13 80 01 52  0B 02 09 10 12 80 80 52  .......R.......R
0B40: 0B 03 01 10 18 80 43 00  43 01 03 02 10 16 80 01  ......C.C.......
0B50: 52 0B 66 08 80 1E 21 03  01 1E 21 03 01 74 68 6B  R.f...!...!..thk
0B60: 31 2B 1E 21 03 01 1C 80  23 66 08 80 1E 21 03 01  1+.!....#f...!..
0B70: 1E 21 03 01 74 68 6B 32  53 1E 21 03 01 1E 21 03  .!..thk2S.!...!.
0B80: 01 74 68 6B 32 21 00                              .thk2!.         
```

#### Opcodes

```
  0: 0x0AF7 [0x1E] EventEntity looks at LocalPlayer and starts talking
  1: 0x0AFC [0x6F] WAIT_FRAME_DELAY: Yield until WaitTime reaches zero
  2: 0x0AFD [0x70] WAIT_ENTITY_RENDER_FLAG: Wait while EventEntity->Render.Flags3 bit 2 is set (cancel turn if not)
  3: 0x0AFE [0x03] Work_Zone[1] = 12*
  4: 0x0B03 [0x43] SEND_EVENT_UPDATE: Send pending tag to server (packet 0x005B)
  5: 0x0B05 [0x43] SEND_EVENT_UPDATE: Check pending flag (skip if not pending)
  6: 0x0B07 [0x02] IF !(Work_Zone[9] == 1*) GOTO 0x0B20
  7: 0x0B0F [0x03] Work_Zone[1] = 3*
  8: 0x0B14 [0x43] SEND_EVENT_UPDATE: Send pending tag to server (packet 0x005B)
  9: 0x0B16 [0x43] SEND_EVENT_UPDATE: Check pending flag (skip if not pending)
 10: 0x0B18 [0x03] Work_Zone[2] = 14928*
 11: 0x0B1D [0x01] GOTO 0x0B52
 12: 0x0B20 [0x02] IF !(Work_Zone[9] == 2*) GOTO 0x0B39
 13: 0x0B28 [0x03] Work_Zone[1] = 6*
 14: 0x0B2D [0x43] SEND_EVENT_UPDATE: Send pending tag to server (packet 0x005B)
 15: 0x0B2F [0x43] SEND_EVENT_UPDATE: Check pending flag (skip if not pending)
 16: 0x0B31 [0x03] Work_Zone[2] = 15600*
 17: 0x0B36 [0x01] GOTO 0x0B52
 18: 0x0B39 [0x02] IF !(Work_Zone[9] == 3*) GOTO 0x0B52
 19: 0x0B41 [0x03] Work_Zone[1] = 9*
 20: 0x0B46 [0x43] SEND_EVENT_UPDATE: Send pending tag to server (packet 0x005B)
 21: 0x0B48 [0x43] SEND_EVENT_UPDATE: Check pending flag (skip if not pending)
 22: 0x0B4A [0x03] Work_Zone[2] = 14521*
 23: 0x0B4F [0x01] GOTO 0x0B52

SUBROUTINE_0B52:
 24: 0x0B52 [0x66] LOAD_EXT_SCHEDULER_MAIN: Load scheduler "thk1" with entities [Lathuya (ID: 16982302/0x0103211E), Lathuya (ID: 16982302/0x0103211E)], work=30*
 25: 0x0B61 [0x2B] Lathuya (ID: 16982302/0x0103211E) [8983*]:
    → "Now the crafting fee for the $0... We require an up-front payment of $2 $0$0 ."
 26: 0x0B68 [0x23] WAIT_FOR_DIALOG_INTERACTION
 27: 0x0B69 [0x66] LOAD_EXT_SCHEDULER_MAIN: Load scheduler "thk2" with entities [Lathuya (ID: 16982302/0x0103211E), Lathuya (ID: 16982302/0x0103211E)], work=30*
 28: 0x0B78 [0x53] WAIT_SCHEDULER_TASK: Wait for scheduler "thk2" with entities [Lathuya (ID: 16982302/0x0103211E), Lathuya (ID: 16982302/0x0103211E)]
 29: 0x0B85 [0x21] END_EVENT
 30: 0x0B86 [0x00] END_REQSTACK()
```

### Event 750

#### Metadata

| Field        | Value     |
|--------------|-----------|
| Entrypoint   | 0x0B87    |
| Data Size    | 154 bytes |
| Instructions | 35        |

```
      00 01 02 03 04 05 06 07  08 09 0A 0B 0C 0D 0E 0F
      -- -- -- -- -- -- -- --  -- -- -- -- -- -- -- --
0B80:                      42  1E F0 FF FF 7F 6F 70 03         B.....op.
0B90: 01 10 0C 80 43 00 43 01  02 09 10 0D 80 80 AC 0B  ....C.C.........
0BA0: 03 01 10 12 80 43 00 43  01 01 D4 0B 02 09 10 10  .....C.C........
0BB0: 80 80 C0 0B 03 01 10 15  80 43 00 43 01 01 D4 0B  .........C.C....
0BC0: 02 09 10 12 80 80 D4 0B  03 01 10 18 80 43 00 43  .............C.C
0BD0: 01 01 D4 0B 2B 1E 21 03  01 1D 80 23 66 08 80 1E  ....+.!....#f...
0BE0: 21 03 01 1E 21 03 01 61  6B 62 30 2B 1E 21 03 01  !...!..akb0+.!..
0BF0: 1E 80 23 53 1E 21 03 01  1E 21 03 01 61 6B 62 30  ..#S.!...!..akb0
0C00: 2B 1E 21 03 01 1F 80 23  66 08 80 1E 21 03 01 1E  +.!....#f...!...
0C10: 21 03 01 70 61 73 30 2B  1E 21 03 01 20 80 23 21  !..pas0+.!.. .#!
0C20: 00                                                .               
```

#### Opcodes

```
  0: 0x0B87 [0x42] SET_CLI_EVENT_CANCEL_DATA()
  1: 0x0B88 [0x1E] EventEntity looks at LocalPlayer and starts talking
  2: 0x0B8D [0x6F] WAIT_FRAME_DELAY: Yield until WaitTime reaches zero
  3: 0x0B8E [0x70] WAIT_ENTITY_RENDER_FLAG: Wait while EventEntity->Render.Flags3 bit 2 is set (cancel turn if not)
  4: 0x0B8F [0x03] Work_Zone[1] = 12*
  5: 0x0B94 [0x43] SEND_EVENT_UPDATE: Send pending tag to server (packet 0x005B)
  6: 0x0B96 [0x43] SEND_EVENT_UPDATE: Check pending flag (skip if not pending)
  7: 0x0B98 [0x02] IF !(Work_Zone[9] == 1*) GOTO 0x0BAC
  8: 0x0BA0 [0x03] Work_Zone[1] = 3*
  9: 0x0BA5 [0x43] SEND_EVENT_UPDATE: Send pending tag to server (packet 0x005B)
 10: 0x0BA7 [0x43] SEND_EVENT_UPDATE: Check pending flag (skip if not pending)
 11: 0x0BA9 [0x01] GOTO 0x0BD4
 12: 0x0BAC [0x02] IF !(Work_Zone[9] == 2*) GOTO 0x0BC0
 13: 0x0BB4 [0x03] Work_Zone[1] = 6*
 14: 0x0BB9 [0x43] SEND_EVENT_UPDATE: Send pending tag to server (packet 0x005B)
 15: 0x0BBB [0x43] SEND_EVENT_UPDATE: Check pending flag (skip if not pending)
 16: 0x0BBD [0x01] GOTO 0x0BD4
 17: 0x0BC0 [0x02] IF !(Work_Zone[9] == 3*) GOTO 0x0BD4
 18: 0x0BC8 [0x03] Work_Zone[1] = 9*
 19: 0x0BCD [0x43] SEND_EVENT_UPDATE: Send pending tag to server (packet 0x005B)
 20: 0x0BCF [0x43] SEND_EVENT_UPDATE: Check pending flag (skip if not pending)
 21: 0x0BD1 [0x01] GOTO 0x0BD4

SUBROUTINE_0BD4:
 22: 0x0BD4 [0x2B] Lathuya (ID: 16982302/0x0103211E) [8984*]:
    → "Yes. The payment. Let me just count... $2 $0$0 . It's all here."
 23: 0x0BDB [0x23] WAIT_FOR_DIALOG_INTERACTION
 24: 0x0BDC [0x66] LOAD_EXT_SCHEDULER_MAIN: Load scheduler "akb0" with entities [Lathuya (ID: 16982302/0x0103211E), Lathuya (ID: 16982302/0x0103211E)], work=30*
 25: 0x0BEB [0x2B] Lathuya (ID: 16982302/0x0103211E) [8985*]:
    → "I'll make sure the materials you've brought go directly to the boss."
 26: 0x0BF2 [0x23] WAIT_FOR_DIALOG_INTERACTION
 27: 0x0BF3 [0x53] WAIT_SCHEDULER_TASK: Wait for scheduler "akb0" with entities [Lathuya (ID: 16982302/0x0103211E), Lathuya (ID: 16982302/0x0103211E)]
 28: 0x0C00 [0x2B] Lathuya (ID: 16982302/0x0103211E) [8986*]:
    → "The completion of your order will take some time... Would you mind returning to our store a little later? A thousand pardons..."
 29: 0x0C07 [0x23] WAIT_FOR_DIALOG_INTERACTION
 30: 0x0C08 [0x66] LOAD_EXT_SCHEDULER_MAIN: Load scheduler "pas0" with entities [Lathuya (ID: 16982302/0x0103211E), Lathuya (ID: 16982302/0x0103211E)], work=30*
 31: 0x0C17 [0x2B] Lathuya (ID: 16982302/0x0103211E) [8987*]:
    → "Thank you. Here, please don't lose this. (Phew, I get so nervous dealing with customers...)"
 32: 0x0C1E [0x23] WAIT_FOR_DIALOG_INTERACTION
 33: 0x0C1F [0x21] END_EVENT
 34: 0x0C20 [0x00] END_REQSTACK()
```

### Event 751

#### Metadata

| Field        | Value    |
|--------------|----------|
| Entrypoint   | 0x0C21   |
| Data Size    | 60 bytes |
| Instructions | 10       |

```
      00 01 02 03 04 05 06 07  08 09 0A 0B 0C 0D 0E 0F
      -- -- -- -- -- -- -- --  -- -- -- -- -- -- -- --
0C20:    1E F0 FF FF 7F 6F 70  66 00 80 1E 21 03 01 1E   .....opf...!...
0C30: 21 03 01 74 6C 63 30 2B  1E 21 03 01 1F 80 23 66  !..tlc0+.!....#f
0C40: 00 80 1E 21 03 01 1E 21  03 01 74 6C 63 31 53 1E  ...!...!..tlc1S.
0C50: 21 03 01 1E 21 03 01 74  6C 63 30 21 00           !...!..tlc0!.   
```

#### Opcodes

```
  0: 0x0C21 [0x1E] EventEntity looks at LocalPlayer and starts talking
  1: 0x0C26 [0x6F] WAIT_FRAME_DELAY: Yield until WaitTime reaches zero
  2: 0x0C27 [0x70] WAIT_ENTITY_RENDER_FLAG: Wait while EventEntity->Render.Flags3 bit 2 is set (cancel turn if not)
  3: 0x0C28 [0x66] LOAD_EXT_SCHEDULER_MAIN: Load scheduler "tlc0" with entities [Lathuya (ID: 16982302/0x0103211E), Lathuya (ID: 16982302/0x0103211E)], work=32*
  4: 0x0C37 [0x2B] Lathuya (ID: 16982302/0x0103211E) [8986*]:
    → "The completion of your order will take some time... Would you mind returning to our store a little later? A thousand pardons..."
  5: 0x0C3E [0x23] WAIT_FOR_DIALOG_INTERACTION
  6: 0x0C3F [0x66] LOAD_EXT_SCHEDULER_MAIN: Load scheduler "tlc1" with entities [Lathuya (ID: 16982302/0x0103211E), Lathuya (ID: 16982302/0x0103211E)], work=32*
  7: 0x0C4E [0x53] WAIT_SCHEDULER_TASK: Wait for scheduler "tlc0" with entities [Lathuya (ID: 16982302/0x0103211E), Lathuya (ID: 16982302/0x0103211E)]
  8: 0x0C5B [0x21] END_EVENT
  9: 0x0C5C [0x00] END_REQSTACK()
```

### Event 752

#### Metadata

| Field        | Value   |
|--------------|---------|
| Entrypoint   | 0x0C5D  |
| Data Size    | 1 bytes |
| Instructions | 1       |

```
      00 01 02 03 04 05 06 07  08 09 0A 0B 0C 0D 0E 0F
      -- -- -- -- -- -- -- --  -- -- -- -- -- -- -- --
0C50:                                         00                     .  
```

#### Opcodes

```
  0: 0x0C5D [0x00] END_REQSTACK()
```

### Event 753

#### Metadata

| Field        | Value    |
|--------------|----------|
| Entrypoint   | 0x0C5E   |
| Data Size    | 60 bytes |
| Instructions | 10       |

```
      00 01 02 03 04 05 06 07  08 09 0A 0B 0C 0D 0E 0F
      -- -- -- -- -- -- -- --  -- -- -- -- -- -- -- --
0C50:                                            1E F0                ..
0C60: FF FF 7F 6F 70 66 08 80  1E 21 03 01 1E 21 03 01  ...opf...!...!..
0C70: 74 68 6B 31 2B 1E 21 03  01 21 80 23 66 08 80 1E  thk1+.!..!.#f...
0C80: 21 03 01 1E 21 03 01 74  68 6B 32 53 1E 21 03 01  !...!..thk2S.!..
0C90: 1E 21 03 01 74 68 6B 32  21 00                    .!..thk2!.      
```

#### Opcodes

```
  0: 0x0C5E [0x1E] EventEntity looks at LocalPlayer and starts talking
  1: 0x0C63 [0x6F] WAIT_FRAME_DELAY: Yield until WaitTime reaches zero
  2: 0x0C64 [0x70] WAIT_ENTITY_RENDER_FLAG: Wait while EventEntity->Render.Flags3 bit 2 is set (cancel turn if not)
  3: 0x0C65 [0x66] LOAD_EXT_SCHEDULER_MAIN: Load scheduler "thk1" with entities [Lathuya (ID: 16982302/0x0103211E), Lathuya (ID: 16982302/0x0103211E)], work=30*
  4: 0x0C74 [0x2B] Lathuya (ID: 16982302/0x0103211E) [9024*]:
    → "I honestly have no idea what the boss was talking about. I still have a long way to go..."
  5: 0x0C7B [0x23] WAIT_FOR_DIALOG_INTERACTION
  6: 0x0C7C [0x66] LOAD_EXT_SCHEDULER_MAIN: Load scheduler "thk2" with entities [Lathuya (ID: 16982302/0x0103211E), Lathuya (ID: 16982302/0x0103211E)], work=30*
  7: 0x0C8B [0x53] WAIT_SCHEDULER_TASK: Wait for scheduler "thk2" with entities [Lathuya (ID: 16982302/0x0103211E), Lathuya (ID: 16982302/0x0103211E)]
  8: 0x0C98 [0x21] END_EVENT
  9: 0x0C99 [0x00] END_REQSTACK()
```

### Event 65535.1

#### Metadata

| Field        | Value   |
|--------------|---------|
| Entrypoint   | 0x0C9A  |
| Data Size    | 4 bytes |
| Instructions | 2       |

```
      00 01 02 03 04 05 06 07  08 09 0A 0B 0C 0D 0E 0F
      -- -- -- -- -- -- -- --  -- -- -- -- -- -- -- --
0C90:                                95 22 80 00                  ."..  
```

#### Opcodes

```
  0: 0x0C9A [0x95] SETUP_EVENT_NPC: Prepare NPC for event (Render.Flags3 = 0*)
  1: 0x0C9D [0x00] END_REQSTACK()
```

### Event 65535.2

#### Metadata

| Field        | Value   |
|--------------|---------|
| Entrypoint   | 0x0C9E  |
| Data Size    | 2 bytes |
| Instructions | 2       |

```
      00 01 02 03 04 05 06 07  08 09 0A 0B 0C 0D 0E 0F
      -- -- -- -- -- -- -- --  -- -- -- -- -- -- -- --
0C90:                                            96 00                ..
```

#### Opcodes

```
  0: 0x0C9E [0x96] UNSET_EVENT_NPC: Restore NPC after event (removes event NPC status)
  1: 0x0C9F [0x00] END_REQSTACK()
```

### Event 65535.3

#### Metadata

| Field        | Value   |
|--------------|---------|
| Entrypoint   | 0x0CA0  |
| Data Size    | 9 bytes |
| Instructions | 3       |

```
      00 01 02 03 04 05 06 07  08 09 0A 0B 0C 0D 0E 0F
      -- -- -- -- -- -- -- --  -- -- -- -- -- -- -- --
0CA0: 1C 23 80 1E 1F 21 03 01  00                       .#...!...       
```

#### Opcodes

```
  0: 0x0CA0 [0x1C] WAIT(45* ticks)
  1: 0x0CA3 [0x1E] EventEntity looks at Kushdeel (ID: 16982303/0x0103211F) and starts talking
  2: 0x0CA8 [0x00] END_REQSTACK()
```

### Event 65535.4

#### Metadata

| Field        | Value    |
|--------------|----------|
| Entrypoint   | 0x0CA9   |
| Data Size    | 15 bytes |
| Instructions | 3        |

```
      00 01 02 03 04 05 06 07  08 09 0A 0B 0C 0D 0E 0F
      -- -- -- -- -- -- -- --  -- -- -- -- -- -- -- --
0CA0:                             7B F8 FF FF 7F 37 24           {....7$
0CB0: 80 25 80 26 80 27 80 00                           .%.&.'..        
```

#### Opcodes

```
  0: 0x0CA9 [0x7B] EventEntity stops talking
  1: 0x0CAE [0x37] UPDATE_EVENT_POSITION_AND_DIR: x=-94.539*, z=32.113*, y=-6.000*, direction=148.5°*
  2: 0x0CB7 [0x00] END_REQSTACK()
```

### Event 65535.5

#### Metadata

| Field        | Value    |
|--------------|----------|
| Entrypoint   | 0x0CB8   |
| Data Size    | 27 bytes |
| Instructions | 9        |

```
      00 01 02 03 04 05 06 07  08 09 0A 0B 0C 0D 0E 0F
      -- -- -- -- -- -- -- --  -- -- -- -- -- -- -- --
0CB0:                          7B F8 FF FF 7F 32 28 80          {....2(.
0CC0: 1F 00 29 80 2A 80 26 80  1F 01 6F 1E F0 FF FF 7F  ..).*.&...o.....
0CD0: 6F 70 00                                          op.             
```

#### Opcodes

```
  0: 0x0CB8 [0x7B] EventEntity stops talking
  1: 0x0CBD [0x32] ExtData[1]->MainSpeed = 11* * 0.1
  2: 0x0CC0 [0x1F] MOVE_ENTITY: EventEntity moves to X=-95.081*, Z=31.638*, Y=-6.000*
  3: 0x0CC8 [0x1F] MOVE_ENTITY: Update entity position (mode=1)
  4: 0x0CCA [0x6F] WAIT_FRAME_DELAY: Yield until WaitTime reaches zero
  5: 0x0CCB [0x1E] EventEntity looks at LocalPlayer and starts talking
  6: 0x0CD0 [0x6F] WAIT_FRAME_DELAY: Yield until WaitTime reaches zero
  7: 0x0CD1 [0x70] WAIT_ENTITY_RENDER_FLAG: Wait while EventEntity->Render.Flags3 bit 2 is set (cancel turn if not)
  8: 0x0CD2 [0x00] END_REQSTACK()
```
