# 16982272 - Maudadt

## Common Data

| Field            | Value                         |
|------------------|-------------------------------|
| Zone             | Aht Urhgan Whitegate (ID: 50) |
| Block Size       | 1392 bytes                    |
| Total Events     | 34                            |
| References Count | 82                            |

## List of Events

| Event ID                    | Entrypoint   |   Size |   Instructions |
|-----------------------------|--------------|--------|----------------|
| [65535](#event-65535)       | 0x0000       |      1 |              1 |
| [39](#event-39)             | 0x0001       |      7 |              2 |
| [65535.1](#event-65535-1)   | 0x0008       |     23 |              5 |
| [65535.2](#event-65535-2)   | 0x001F       |     14 |              4 |
| [65535.3](#event-65535-3)   | 0x002D       |     14 |              4 |
| [40](#event-40)             | 0x003B       |      7 |              2 |
| [65535.4](#event-65535-4)   | 0x0042       |     10 |              2 |
| [65535.5](#event-65535-5)   | 0x004C       |     14 |              4 |
| [65535.6](#event-65535-6)   | 0x005A       |     14 |              4 |
| [65535.7](#event-65535-7)   | 0x0068       |     14 |              4 |
| [65535.8](#event-65535-8)   | 0x0076       |     10 |              2 |
| [41](#event-41)             | 0x0080       |      7 |              2 |
| [65535.9](#event-65535-9)   | 0x0087       |     10 |              2 |
| [65535.10](#event-65535-10) | 0x0091       |     23 |              5 |
| [65535.11](#event-65535-11) | 0x00A8       |     14 |              4 |
| [65535.12](#event-65535-12) | 0x00B6       |     14 |              4 |
| [65535.13](#event-65535-13) | 0x00C4       |     10 |              2 |
| [65535.14](#event-65535-14) | 0x00CE       |     10 |              2 |
| [45](#event-45)             | 0x00D8       |     27 |              3 |
| [65535.15](#event-65535-15) | 0x00F3       |     19 |              3 |
| [65535.16](#event-65535-16) | 0x0106       |      1 |              1 |
| [65535.17](#event-65535-17) | 0x0107       |     10 |              2 |
| [65535.18](#event-65535-18) | 0x0111       |     14 |              4 |
| [65535.19](#event-65535-19) | 0x011F       |     15 |              5 |
| [65535.20](#event-65535-20) | 0x012E       |      3 |              2 |
| [580](#event-580)           | 0x0131       |      1 |              1 |
| [65535.21](#event-65535-21) | 0x0132       |     15 |              3 |
| [65535.22](#event-65535-22) | 0x0141       |     14 |              4 |
| [65535.23](#event-65535-23) | 0x014F       |     14 |              4 |
| [65535.24](#event-65535-24) | 0x015D       |     21 |              2 |
| [864](#event-864)           | 0x0172       |      7 |              2 |
| [65535.25](#event-65535-25) | 0x0179       |    472 |             95 |
| [872](#event-872)           | 0x0351       |      7 |              2 |
| [65535.26](#event-65535-26) | 0x0358       |     55 |             13 |

## DAT References (imed_data)

|   Index | Hex Value   |   Dec Value |
|---------|-------------|-------------|
|       0 | 0xFFFFB3CF  |  4294947791 |
|       1 | 0x7246      |       29254 |
|       2 | 0xFFFFE891  |  4294961297 |
|       3 | 0x0FF6      |        4086 |
|       4 | 0x000D      |          13 |
|       5 | 0xFFFFBD0C  |  4294950156 |
|       6 | 0x7364      |       29540 |
|       7 | 0xFFFFBC62  |  4294949986 |
|       8 | 0x7D9A      |       32154 |
|       9 | 0xFFFFC1CF  |  4294951375 |
|      10 | 0xB1C8      |       45512 |
|      11 | 0x14776     |       83830 |
|      12 | 0xFFFE091A  |  4294838554 |
|      13 | 0xFFFFE890  |  4294961296 |
|      14 | 0x0090      |         144 |
|      15 | 0x16632     |       91698 |
|      16 | 0xFFFE07A4  |  4294838180 |
|      17 | 0xFFFFE69D  |  4294960797 |
|      18 | 0x158AD     |       88237 |
|      19 | 0xFFFE09DD  |  4294838749 |
|      20 | 0x13DAA     |       81322 |
|      21 | 0xFFFE1066  |  4294840422 |
|      22 | 0x15616     |       87574 |
|      23 | 0xFFFE2BC9  |  4294847433 |
|      24 | 0x0C77      |        3191 |
|      25 | 0xFFFFC561  |  4294952289 |
|      26 | 0xD422      |       54306 |
|      27 | 0x053D      |        1341 |
|      28 | 0x016C      |         364 |
|      29 | 0xFFFFD21E  |  4294955550 |
|      30 | 0x0000      |           0 |
|      31 | 0x0FFE      |        4094 |
|      32 | 0x09B5      |        2485 |
|      33 | 0xFFFFD12F  |  4294955311 |
|      34 | 0x0012      |          18 |
|      35 | 0xFFFFD275  |  4294955637 |
|      36 | 0xFFFFD171  |  4294955377 |
|      37 | 0xFFFF9A0B  |  4294941195 |
|      38 | 0xFFFFFDC5  |  4294966725 |
|      39 | 0xFFFF21C9  |  4294910409 |
|      40 | 0xFFFFE282  |  4294959746 |
|      41 | 0x0A79      |        2681 |
|      42 | 0x00B4      |         180 |
|      43 | 0x0008      |           8 |
|      44 | 0x0025      |          37 |
|      45 | 0x0003      |           3 |
|      46 | 0x14A5D     |       84573 |
|      47 | 0xFFFE06C3  |  4294837955 |
|      48 | 0x0FFB      |        4091 |
|      49 | 0x0001      |           1 |
|      50 | 0x0080      |         128 |
|      51 | 0x16231     |       90673 |
|      52 | 0xFFFE07AB  |  4294838187 |
|      53 | 0x139A9     |       80297 |
|      54 | 0xFFFDF1C1  |  4294832577 |
|      55 | 0x13823     |       79907 |
|      56 | 0xFFFDECE2  |  4294831330 |
|      57 | 0x0FAC      |        4012 |
|      58 | 0x0028      |          40 |
|      59 | 0x14EA0     |       85664 |
|      60 | 0xFFFDECF4  |  4294831348 |
|      61 | 0x14CE5     |       85221 |
|      62 | 0xFFFDF9BD  |  4294834621 |
|      63 | 0x0032      |          50 |
|      64 | 0x01F4      |         500 |
|      65 | 0x0002      |           2 |
|      66 | 0x003C      |          60 |
|      67 | 0x13355     |       78677 |
|      68 | 0xFFFDF485  |  4294833285 |
|      69 | 0x131BC     |       78268 |
|      70 | 0xFFFDEF97  |  4294832023 |
|      71 | 0x13157     |       78167 |
|      72 | 0xFFFDEBC0  |  4294831040 |
|      73 | 0x12E41     |       77377 |
|      74 | 0xFFFDE503  |  4294829315 |
|      75 | 0x134B4     |       79028 |
|      76 | 0xFFFDE6AD  |  4294829741 |
|      77 | 0x13967     |       80231 |
|      78 | 0xFFFDF3A7  |  4294833063 |
|      79 | 0x0005      |           5 |
|      80 | 0x1430E     |       82702 |
|      81 | 0xFFFDEDF7  |  4294831607 |

## Events

### Event 65535

#### Metadata

| Field        | Value   |
|--------------|---------|
| Entrypoint   | 0x0000  |
| Data Size    | 1 bytes |
| Instructions | 1       |

```
      00 01 02 03 04 05 06 07  08 09 0A 0B 0C 0D 0E 0F
      -- -- -- -- -- -- -- --  -- -- -- -- -- -- -- --
0000: 00                                                .               
```

#### Opcodes

```
  0: 0x0000 [0x00] END_REQSTACK()
```

### Event 39

#### Metadata

| Field        | Value   |
|--------------|---------|
| Entrypoint   | 0x0001  |
| Data Size    | 7 bytes |
| Instructions | 2       |

```
      00 01 02 03 04 05 06 07  08 09 0A 0B 0C 0D 0E 0F
      -- -- -- -- -- -- -- --  -- -- -- -- -- -- -- --
0000:    94 01 F8 FF FF 7F 00                            .......        
```

#### Opcodes

```
  0: 0x0001 [0x94] EventEntity->Render.Flags3 ^= 0x01
  1: 0x0007 [0x00] END_REQSTACK()
```

### Event 65535.1

#### Metadata

| Field        | Value    |
|--------------|----------|
| Entrypoint   | 0x0008   |
| Data Size    | 23 bytes |
| Instructions | 5        |

```
      00 01 02 03 04 05 06 07  08 09 0A 0B 0C 0D 0E 0F
      -- -- -- -- -- -- -- --  -- -- -- -- -- -- -- --
0000:                          37 00 80 01 80 02 80 03          7.......
0010: 80 32 04 80 1F 00 05 80  06 80 02 80 1F 01 00     .2............. 
```

#### Opcodes

```
  0: 0x0008 [0x37] UPDATE_EVENT_POSITION_AND_DIR: x=-19.505*, z=29.254*, y=-5.999*, direction=359.1°*
  1: 0x0011 [0x32] ExtData[1]->MainSpeed = 13* * 0.1
  2: 0x0014 [0x1F] MOVE_ENTITY: EventEntity moves to X=-17.140*, Z=29.540*, Y=-5.999*
  3: 0x001C [0x1F] MOVE_ENTITY: Update entity position (mode=1)
  4: 0x001E [0x00] END_REQSTACK()
```

### Event 65535.2

#### Metadata

| Field        | Value    |
|--------------|----------|
| Entrypoint   | 0x001F   |
| Data Size    | 14 bytes |
| Instructions | 4        |

```
      00 01 02 03 04 05 06 07  08 09 0A 0B 0C 0D 0E 0F
      -- -- -- -- -- -- -- --  -- -- -- -- -- -- -- --
0010:                                               32                 2
0020: 04 80 1F 00 07 80 08 80  02 80 1F 01 00           .............   
```

#### Opcodes

```
  0: 0x001F [0x32] ExtData[1]->MainSpeed = 13* * 0.1
  1: 0x0022 [0x1F] MOVE_ENTITY: EventEntity moves to X=-17.310*, Z=32.154*, Y=-5.999*
  2: 0x002A [0x1F] MOVE_ENTITY: Update entity position (mode=1)
  3: 0x002C [0x00] END_REQSTACK()
```

### Event 65535.3

#### Metadata

| Field        | Value    |
|--------------|----------|
| Entrypoint   | 0x002D   |
| Data Size    | 14 bytes |
| Instructions | 4        |

```
      00 01 02 03 04 05 06 07  08 09 0A 0B 0C 0D 0E 0F
      -- -- -- -- -- -- -- --  -- -- -- -- -- -- -- --
0020:                                         32 04 80               2..
0030: 1F 00 09 80 0A 80 02 80  1F 01 00                 ...........     
```

#### Opcodes

```
  0: 0x002D [0x32] ExtData[1]->MainSpeed = 13* * 0.1
  1: 0x0030 [0x1F] MOVE_ENTITY: EventEntity moves to X=-15.921*, Z=45.512*, Y=-5.999*
  2: 0x0038 [0x1F] MOVE_ENTITY: Update entity position (mode=1)
  3: 0x003A [0x00] END_REQSTACK()
```

### Event 40

#### Metadata

| Field        | Value   |
|--------------|---------|
| Entrypoint   | 0x003B  |
| Data Size    | 7 bytes |
| Instructions | 2       |

```
      00 01 02 03 04 05 06 07  08 09 0A 0B 0C 0D 0E 0F
      -- -- -- -- -- -- -- --  -- -- -- -- -- -- -- --
0030:                                   94 01 F8 FF FF             .....
0040: 7F 00                                             ..              
```

#### Opcodes

```
  0: 0x003B [0x94] EventEntity->Render.Flags3 ^= 0x01
  1: 0x0041 [0x00] END_REQSTACK()
```

### Event 65535.4

#### Metadata

| Field        | Value    |
|--------------|----------|
| Entrypoint   | 0x0042   |
| Data Size    | 10 bytes |
| Instructions | 2        |

```
      00 01 02 03 04 05 06 07  08 09 0A 0B 0C 0D 0E 0F
      -- -- -- -- -- -- -- --  -- -- -- -- -- -- -- --
0040:       37 0B 80 0C 80 0D  80 0E 80 00                7.........    
```

#### Opcodes

```
  0: 0x0042 [0x37] UPDATE_EVENT_POSITION_AND_DIR: x=83.830*, z=-128.742*, y=-6.000*, direction=12.7°*
  1: 0x004B [0x00] END_REQSTACK()
```

### Event 65535.5

#### Metadata

| Field        | Value    |
|--------------|----------|
| Entrypoint   | 0x004C   |
| Data Size    | 14 bytes |
| Instructions | 4        |

```
      00 01 02 03 04 05 06 07  08 09 0A 0B 0C 0D 0E 0F
      -- -- -- -- -- -- -- --  -- -- -- -- -- -- -- --
0040:                                      32 04 80 1F              2...
0050: 00 0F 80 10 80 11 80 1F  01 00                    ..........      
```

#### Opcodes

```
  0: 0x004C [0x32] ExtData[1]->MainSpeed = 13* * 0.1
  1: 0x004F [0x1F] MOVE_ENTITY: EventEntity moves to X=91.698*, Z=-129.116*, Y=-6.499*
  2: 0x0057 [0x1F] MOVE_ENTITY: Update entity position (mode=1)
  3: 0x0059 [0x00] END_REQSTACK()
```

### Event 65535.6

#### Metadata

| Field        | Value    |
|--------------|----------|
| Entrypoint   | 0x005A   |
| Data Size    | 14 bytes |
| Instructions | 4        |

```
      00 01 02 03 04 05 06 07  08 09 0A 0B 0C 0D 0E 0F
      -- -- -- -- -- -- -- --  -- -- -- -- -- -- -- --
0050:                                32 04 80 1F 00 12            2.....
0060: 80 13 80 0D 80 1F 01 00                           ........        
```

#### Opcodes

```
  0: 0x005A [0x32] ExtData[1]->MainSpeed = 13* * 0.1
  1: 0x005D [0x1F] MOVE_ENTITY: EventEntity moves to X=88.237*, Z=-128.547*, Y=-6.000*
  2: 0x0065 [0x1F] MOVE_ENTITY: Update entity position (mode=1)
  3: 0x0067 [0x00] END_REQSTACK()
```

### Event 65535.7

#### Metadata

| Field        | Value    |
|--------------|----------|
| Entrypoint   | 0x0068   |
| Data Size    | 14 bytes |
| Instructions | 4        |

```
      00 01 02 03 04 05 06 07  08 09 0A 0B 0C 0D 0E 0F
      -- -- -- -- -- -- -- --  -- -- -- -- -- -- -- --
0060:                          32 04 80 1F 00 14 80 15          2.......
0070: 80 0D 80 1F 01 00                                 ......          
```

#### Opcodes

```
  0: 0x0068 [0x32] ExtData[1]->MainSpeed = 13* * 0.1
  1: 0x006B [0x1F] MOVE_ENTITY: EventEntity moves to X=81.322*, Z=-126.874*, Y=-6.000*
  2: 0x0073 [0x1F] MOVE_ENTITY: Update entity position (mode=1)
  3: 0x0075 [0x00] END_REQSTACK()
```

### Event 65535.8

#### Metadata

| Field        | Value    |
|--------------|----------|
| Entrypoint   | 0x0076   |
| Data Size    | 10 bytes |
| Instructions | 2        |

```
      00 01 02 03 04 05 06 07  08 09 0A 0B 0C 0D 0E 0F
      -- -- -- -- -- -- -- --  -- -- -- -- -- -- -- --
0070:                   37 16  80 17 80 0D 80 18 80 00        7.........
```

#### Opcodes

```
  0: 0x0076 [0x37] UPDATE_EVENT_POSITION_AND_DIR: x=87.574*, z=-119.863*, y=-6.000*, direction=280.5°*
  1: 0x007F [0x00] END_REQSTACK()
```

### Event 41

#### Metadata

| Field        | Value   |
|--------------|---------|
| Entrypoint   | 0x0080  |
| Data Size    | 7 bytes |
| Instructions | 2       |

```
      00 01 02 03 04 05 06 07  08 09 0A 0B 0C 0D 0E 0F
      -- -- -- -- -- -- -- --  -- -- -- -- -- -- -- --
0080: 94 01 F8 FF FF 7F 00                              .......         
```

#### Opcodes

```
  0: 0x0080 [0x94] EventEntity->Render.Flags3 ^= 0x01
  1: 0x0086 [0x00] END_REQSTACK()
```

### Event 65535.9

#### Metadata

| Field        | Value    |
|--------------|----------|
| Entrypoint   | 0x0087   |
| Data Size    | 10 bytes |
| Instructions | 2        |

```
      00 01 02 03 04 05 06 07  08 09 0A 0B 0C 0D 0E 0F
      -- -- -- -- -- -- -- --  -- -- -- -- -- -- -- --
0080:                      37  19 80 1A 80 02 80 1B 80         7........
0090: 00                                                .               
```

#### Opcodes

```
  0: 0x0087 [0x37] UPDATE_EVENT_POSITION_AND_DIR: x=-15.007*, z=54.306*, y=-5.999*, direction=117.9°*
  1: 0x0090 [0x00] END_REQSTACK()
```

### Event 65535.10

#### Metadata

| Field        | Value    |
|--------------|----------|
| Entrypoint   | 0x0091   |
| Data Size    | 23 bytes |
| Instructions | 5        |

```
      00 01 02 03 04 05 06 07  08 09 0A 0B 0C 0D 0E 0F
      -- -- -- -- -- -- -- --  -- -- -- -- -- -- -- --
0090:    37 1C 80 1D 80 1E 80  1F 80 32 04 80 1F 00 20   7........2.... 
00A0: 80 21 80 1E 80 1F 01 00                           .!......        
```

#### Opcodes

```
  0: 0x0091 [0x37] UPDATE_EVENT_POSITION_AND_DIR: x=0.364*, z=-11.746*, y=0.000*, direction=359.8°*
  1: 0x009A [0x32] ExtData[1]->MainSpeed = 13* * 0.1
  2: 0x009D [0x1F] MOVE_ENTITY: EventEntity moves to X=2.485*, Z=-11.985*, Y=0.000*
  3: 0x00A5 [0x1F] MOVE_ENTITY: Update entity position (mode=1)
  4: 0x00A7 [0x00] END_REQSTACK()
```

### Event 65535.11

#### Metadata

| Field        | Value    |
|--------------|----------|
| Entrypoint   | 0x00A8   |
| Data Size    | 14 bytes |
| Instructions | 4        |

```
      00 01 02 03 04 05 06 07  08 09 0A 0B 0C 0D 0E 0F
      -- -- -- -- -- -- -- --  -- -- -- -- -- -- -- --
00A0:                          32 22 80 1F 00 23 80 24          2"...#.$
00B0: 80 1E 80 1F 01 00                                 ......          
```

#### Opcodes

```
  0: 0x00A8 [0x32] ExtData[1]->MainSpeed = 18* * 0.1
  1: 0x00AB [0x1F] MOVE_ENTITY: EventEntity moves to X=-11.659*, Z=-11.919*, Y=0.000*
  2: 0x00B3 [0x1F] MOVE_ENTITY: Update entity position (mode=1)
  3: 0x00B5 [0x00] END_REQSTACK()
```

### Event 65535.12

#### Metadata

| Field        | Value    |
|--------------|----------|
| Entrypoint   | 0x00B6   |
| Data Size    | 14 bytes |
| Instructions | 4        |

```
      00 01 02 03 04 05 06 07  08 09 0A 0B 0C 0D 0E 0F
      -- -- -- -- -- -- -- --  -- -- -- -- -- -- -- --
00B0:                   32 04  80 1F 00 25 80 26 80 1E        2....%.&..
00C0: 80 1F 01 00                                       ....            
```

#### Opcodes

```
  0: 0x00B6 [0x32] ExtData[1]->MainSpeed = 13* * 0.1
  1: 0x00B9 [0x1F] MOVE_ENTITY: EventEntity moves to X=-26.101*, Z=-0.571*, Y=0.000*
  2: 0x00C1 [0x1F] MOVE_ENTITY: Update entity position (mode=1)
  3: 0x00C3 [0x00] END_REQSTACK()
```

### Event 65535.13

#### Metadata

| Field        | Value    |
|--------------|----------|
| Entrypoint   | 0x00C4   |
| Data Size    | 10 bytes |
| Instructions | 2        |

```
      00 01 02 03 04 05 06 07  08 09 0A 0B 0C 0D 0E 0F
      -- -- -- -- -- -- -- --  -- -- -- -- -- -- -- --
00C0:             37 27 80 28  80 1E 80 29 80 00            7'.(...)..  
```

#### Opcodes

```
  0: 0x00C4 [0x37] UPDATE_EVENT_POSITION_AND_DIR: x=-56.887*, z=-7.550*, y=0.000*, direction=235.6°*
  1: 0x00CD [0x00] END_REQSTACK()
```

### Event 65535.14

#### Metadata

| Field        | Value    |
|--------------|----------|
| Entrypoint   | 0x00CE   |
| Data Size    | 10 bytes |
| Instructions | 2        |

```
      00 01 02 03 04 05 06 07  08 09 0A 0B 0C 0D 0E 0F
      -- -- -- -- -- -- -- --  -- -- -- -- -- -- -- --
00C0:                                            6C 00                l.
00D0: 21 03 01 1E 80 2A 80 00                           !....*..        
```

#### Opcodes

```
  0: 0x00CE [0x6C] FADE_ENTITY_COLOR(entity_id=Maudadt (ID: 16982272/0x01032100), end_alpha=0*, fade_time=180*)
  1: 0x00D7 [0x00] END_REQSTACK()
```

### Event 45

#### Metadata

| Field        | Value    |
|--------------|----------|
| Entrypoint   | 0x00D8   |
| Data Size    | 27 bytes |
| Instructions | 3        |

```
      00 01 02 03 04 05 06 07  08 09 0A 0B 0C 0D 0E 0F
      -- -- -- -- -- -- -- --  -- -- -- -- -- -- -- --
00D0:                          94 01 F8 FF FF 7F B6 0B          ........
00E0: 2B 80 1E 80 1E 80 2C 80  1E 80 2D 80 2D 80 1E 80  +.....,...-.-...
00F0: 1E 80 00                                          ...             
```

#### Opcodes

```
  0: 0x00D8 [0x94] EventEntity->Render.Flags3 ^= 0x01
  1: 0x00DE [0xB6] ENTITY_APPEARANCE_HANDLER(case=Full entity look, race=8*, hair=0*, head=0*, body=37*, hands=0*, legs=3*, feet=3*, main=0*, sub=0*)
  2: 0x00F2 [0x00] END_REQSTACK()
```

### Event 65535.15

#### Metadata

| Field        | Value    |
|--------------|----------|
| Entrypoint   | 0x00F3   |
| Data Size    | 19 bytes |
| Instructions | 3        |

```
      00 01 02 03 04 05 06 07  08 09 0A 0B 0C 0D 0E 0F
      -- -- -- -- -- -- -- --  -- -- -- -- -- -- -- --
00F0:          37 2E 80 2F 80  0D 80 30 80 6C 00 21 03     7../...0.l.!.
0100: 01 1E 80 31 80 00                                 ...1..          
```

#### Opcodes

```
  0: 0x00F3 [0x37] UPDATE_EVENT_POSITION_AND_DIR: x=84.573*, z=-129.341*, y=-6.000*, direction=359.5°*
  1: 0x00FC [0x6C] FADE_ENTITY_COLOR(entity_id=Maudadt (ID: 16982272/0x01032100), end_alpha=0*, fade_time=1*)
  2: 0x0105 [0x00] END_REQSTACK()
```

### Event 65535.16

#### Metadata

| Field        | Value   |
|--------------|---------|
| Entrypoint   | 0x0106  |
| Data Size    | 1 bytes |
| Instructions | 1       |

```
      00 01 02 03 04 05 06 07  08 09 0A 0B 0C 0D 0E 0F
      -- -- -- -- -- -- -- --  -- -- -- -- -- -- -- --
0100:                   00                                    .         
```

#### Opcodes

```
  0: 0x0106 [0x00] END_REQSTACK()
```

### Event 65535.17

#### Metadata

| Field        | Value    |
|--------------|----------|
| Entrypoint   | 0x0107   |
| Data Size    | 10 bytes |
| Instructions | 2        |

```
      00 01 02 03 04 05 06 07  08 09 0A 0B 0C 0D 0E 0F
      -- -- -- -- -- -- -- --  -- -- -- -- -- -- -- --
0100:                      6C  00 21 03 01 32 80 2A 80         l.!..2.*.
0110: 00                                                .               
```

#### Opcodes

```
  0: 0x0107 [0x6C] FADE_ENTITY_COLOR(entity_id=Maudadt (ID: 16982272/0x01032100), end_alpha=128*, fade_time=180*)
  1: 0x0110 [0x00] END_REQSTACK()
```

### Event 65535.18

#### Metadata

| Field        | Value    |
|--------------|----------|
| Entrypoint   | 0x0111   |
| Data Size    | 14 bytes |
| Instructions | 4        |

```
      00 01 02 03 04 05 06 07  08 09 0A 0B 0C 0D 0E 0F
      -- -- -- -- -- -- -- --  -- -- -- -- -- -- -- --
0110:    32 04 80 1F 00 33 80  34 80 11 80 1F 01 00      2....3.4...... 
```

#### Opcodes

```
  0: 0x0111 [0x32] ExtData[1]->MainSpeed = 13* * 0.1
  1: 0x0114 [0x1F] MOVE_ENTITY: EventEntity moves to X=90.673*, Z=-129.109*, Y=-6.499*
  2: 0x011C [0x1F] MOVE_ENTITY: Update entity position (mode=1)
  3: 0x011E [0x00] END_REQSTACK()
```

### Event 65535.19

#### Metadata

| Field        | Value    |
|--------------|----------|
| Entrypoint   | 0x011F   |
| Data Size    | 15 bytes |
| Instructions | 5        |

```
      00 01 02 03 04 05 06 07  08 09 0A 0B 0C 0D 0E 0F
      -- -- -- -- -- -- -- --  -- -- -- -- -- -- -- --
0110:                                               32                 2
0120: 04 80 1F 00 35 80 36 80  0D 80 1F 01 6F 00        ....5.6.....o.  
```

#### Opcodes

```
  0: 0x011F [0x32] ExtData[1]->MainSpeed = 13* * 0.1
  1: 0x0122 [0x1F] MOVE_ENTITY: EventEntity moves to X=80.297*, Z=-134.719*, Y=-6.000*
  2: 0x012A [0x1F] MOVE_ENTITY: Update entity position (mode=1)
  3: 0x012C [0x6F] WAIT_FRAME_DELAY: Yield until WaitTime reaches zero
  4: 0x012D [0x00] END_REQSTACK()
```

### Event 65535.20

#### Metadata

| Field        | Value   |
|--------------|---------|
| Entrypoint   | 0x012E  |
| Data Size    | 3 bytes |
| Instructions | 2       |

```
      00 01 02 03 04 05 06 07  08 09 0A 0B 0C 0D 0E 0F
      -- -- -- -- -- -- -- --  -- -- -- -- -- -- -- --
0120:                                            22 01                ".
0130: 00                                                .               
```

#### Opcodes

```
  0: 0x012E [0x22] ENTITY_HIDE_FLAG(enabled=0x01)
  1: 0x0130 [0x00] END_REQSTACK()
```

### Event 580

#### Metadata

| Field        | Value   |
|--------------|---------|
| Entrypoint   | 0x0131  |
| Data Size    | 1 bytes |
| Instructions | 1       |

```
      00 01 02 03 04 05 06 07  08 09 0A 0B 0C 0D 0E 0F
      -- -- -- -- -- -- -- --  -- -- -- -- -- -- -- --
0130:    00                                              .              
```

#### Opcodes

```
  0: 0x0131 [0x00] END_REQSTACK()
```

### Event 65535.21

#### Metadata

| Field        | Value    |
|--------------|----------|
| Entrypoint   | 0x0132   |
| Data Size    | 15 bytes |
| Instructions | 3        |

```
      00 01 02 03 04 05 06 07  08 09 0A 0B 0C 0D 0E 0F
      -- -- -- -- -- -- -- --  -- -- -- -- -- -- -- --
0130:       37 37 80 38 80 0D  80 39 80 80 F8 FF FF 7F    77.8...9......
0140: 00                                                .               
```

#### Opcodes

```
  0: 0x0132 [0x37] UPDATE_EVENT_POSITION_AND_DIR: x=79.907*, z=-135.966*, y=-6.000*, direction=352.6°*
  1: 0x013B [0x80] LOAD_WAIT(entity=EventEntity)
  2: 0x0140 [0x00] END_REQSTACK()
```

### Event 65535.22

#### Metadata

| Field        | Value    |
|--------------|----------|
| Entrypoint   | 0x0141   |
| Data Size    | 14 bytes |
| Instructions | 4        |

```
      00 01 02 03 04 05 06 07  08 09 0A 0B 0C 0D 0E 0F
      -- -- -- -- -- -- -- --  -- -- -- -- -- -- -- --
0140:    32 3A 80 1F 00 3B 80  3C 80 0D 80 1F 01 00      2:...;.<...... 
```

#### Opcodes

```
  0: 0x0141 [0x32] ExtData[1]->MainSpeed = 40* * 0.1
  1: 0x0144 [0x1F] MOVE_ENTITY: EventEntity moves to X=85.664*, Z=-135.948*, Y=-6.000*
  2: 0x014C [0x1F] MOVE_ENTITY: Update entity position (mode=1)
  3: 0x014E [0x00] END_REQSTACK()
```

### Event 65535.23

#### Metadata

| Field        | Value    |
|--------------|----------|
| Entrypoint   | 0x014F   |
| Data Size    | 14 bytes |
| Instructions | 4        |

```
      00 01 02 03 04 05 06 07  08 09 0A 0B 0C 0D 0E 0F
      -- -- -- -- -- -- -- --  -- -- -- -- -- -- -- --
0140:                                               32                 2
0150: 3A 80 1F 00 3D 80 3E 80  0D 80 1F 01 00           :...=.>......   
```

#### Opcodes

```
  0: 0x014F [0x32] ExtData[1]->MainSpeed = 40* * 0.1
  1: 0x0152 [0x1F] MOVE_ENTITY: EventEntity moves to X=85.221*, Z=-132.675*, Y=-6.000*
  2: 0x015A [0x1F] MOVE_ENTITY: Update entity position (mode=1)
  3: 0x015C [0x00] END_REQSTACK()
```

### Event 65535.24

#### Metadata

| Field        | Value    |
|--------------|----------|
| Entrypoint   | 0x015D   |
| Data Size    | 21 bytes |
| Instructions | 2        |

```
      00 01 02 03 04 05 06 07  08 09 0A 0B 0C 0D 0E 0F
      -- -- -- -- -- -- -- --  -- -- -- -- -- -- -- --
0150:                                         B6 0B 2B               ..+
0160: 80 1E 80 3F 80 2C 80 1E  80 2D 80 2D 80 1E 80 1E  ...?.,...-.-....
0170: 80 00                                             ..              
```

#### Opcodes

```
  0: 0x015D [0xB6] ENTITY_APPEARANCE_HANDLER(case=Full entity look, race=8*, hair=0*, head=50*, body=37*, hands=0*, legs=3*, feet=3*, main=0*, sub=0*)
  1: 0x0171 [0x00] END_REQSTACK()
```

### Event 864

#### Metadata

| Field        | Value   |
|--------------|---------|
| Entrypoint   | 0x0172  |
| Data Size    | 7 bytes |
| Instructions | 2       |

```
      00 01 02 03 04 05 06 07  08 09 0A 0B 0C 0D 0E 0F
      -- -- -- -- -- -- -- --  -- -- -- -- -- -- -- --
0170:       92 01 F8 FF FF 7F  00                         .......       
```

#### Opcodes

```
  0: 0x0172 [0x92] EventEntity->Render.Flags3 ^= 0x01
  1: 0x0178 [0x00] END_REQSTACK()
```

### Event 65535.25

#### Metadata

| Field        | Value     |
|--------------|-----------|
| Entrypoint   | 0x0179    |
| Data Size    | 472 bytes |
| Instructions | 95        |

```
      00 01 02 03 04 05 06 07  08 09 0A 0B 0C 0D 0E 0F
      -- -- -- -- -- -- -- --  -- -- -- -- -- -- -- --
0170:                             1C 40 80 03 25 10 41           .@..%.A
0180: 80 1C 42 80 32 04 80 1F  00 43 80 44 80 0D 80 1F  ..B.2....C.D....
0190: 01 1E 54 20 03 01 27 05  5C 21 03 01 0D 1C 42 80  ..T ..'.\!....B.
01A0: 27 05 82 20 03 01 0C 1C  42 80 27 05 7E 20 03 01  '.. ....B.'.~ ..
01B0: 0C 1C 42 80 32 04 80 1F  00 45 80 46 80 0D 80 1F  ..B.2....E.F....
01C0: 01 1E 54 20 03 01 29 05  31 21 03 01 3A 27 05 82  ..T ..).1!..:'..
01D0: 20 03 01 0D 1C 42 80 27  05 7E 20 03 01 0D 1C 42   ....B.'.~ ....B
01E0: 80 32 04 80 1F 00 47 80  48 80 0D 80 1F 01 1E 54  .2....G.H......T
01F0: 20 03 01 29 05 31 21 03  01 3B 29 05 32 21 03 01   ..).1!..;).2!..
0200: 39 27 05 7E 20 03 01 0E  1C 42 80 32 04 80 1F 00  9'.~ ....B.2....
0210: 49 80 4A 80 0D 80 1F 01  1E 54 20 03 01 29 05 31  I.J......T ..).1
0220: 21 03 01 3C 29 05 32 21  03 01 3A 27 05 30 21 03  !..<).2!..:'.0!.
0230: 01 3C 03 25 10 31 80 2A  05 30 21 03 01 27 05 31  .<.%.1.*.0!..'.1
0240: 21 03 01 3D 32 04 80 1F  00 4B 80 4C 80 0D 80 1F  !..=2....K.L....
0250: 01 03 25 10 2D 80 32 3A  80 1F 00 4D 80 4E 80 0D  ..%.-.2:...M.N..
0260: 80 1F 01 1C 4F 80 32 04  80 1F 00 43 80 44 80 0D  ....O.2....C.D..
0270: 80 1F 01 1E 54 20 03 01  27 05 31 21 03 01 3E 1C  ....T ..'.1!..>.
0280: 42 80 27 05 32 21 03 01  3C 1C 42 80 27 05 30 21  B.'.2!..<.B.'.0!
0290: 03 01 3E 1C 42 80 32 04  80 1F 00 45 80 46 80 0D  ..>.B.2....E.F..
02A0: 80 1F 01 1E 54 20 03 01  29 05 84 20 03 01 03 27  ....T ..).. ...'
02B0: 05 32 21 03 01 3D 1C 42  80 27 05 30 21 03 01 3F  .2!..=.B.'.0!..?
02C0: 1C 42 80 32 04 80 1F 00  47 80 48 80 0D 80 1F 01  .B.2....G.H.....
02D0: 1E 54 20 03 01 29 05 84  20 03 01 04 29 05 85 20  .T ..).. ...).. 
02E0: 03 01 03 27 05 30 21 03  01 40 1C 42 80 32 04 80  ...'.0!..@.B.2..
02F0: 1F 00 49 80 4A 80 0D 80  1F 01 1E 54 20 03 01 29  ..I.J......T ..)
0300: 05 84 20 03 01 05 29 05  85 20 03 01 04 27 05 84  .. ...).. ...'..
0310: 20 03 01 07 27 05 85 20  03 01 06 32 04 80 1F 00   ...'.. ...2....
0320: 50 80 51 80 0D 80 1F 01  03 25 10 4F 80 27 05 84  P.Q......%.O.'..
0330: 20 03 01 08 1C 42 80 29  05 85 20 03 01 07 1C 42   ....B.).. ....B
0340: 80 27 05 85 20 03 01 08  03 26 10 31 80 B4 06 00  .'.. ....&.1....
0350: 00                                                .               
```

#### Opcodes

```
  0: 0x0179 [0x1C] WAIT(500* ticks)
  1: 0x017C [0x03] Work_Zone[37] = 2*
  2: 0x0181 [0x1C] WAIT(60* ticks)
  3: 0x0184 [0x32] ExtData[1]->MainSpeed = 13* * 0.1
  4: 0x0187 [0x1F] MOVE_ENTITY: EventEntity moves to X=78.677*, Z=-134.011*, Y=-6.000*
  5: 0x018F [0x1F] MOVE_ENTITY: Update entity position (mode=1)
  6: 0x0191 [0x1E] EventEntity looks at Yafaaf (ID: 16982100/0x01032054) and starts talking
  7: 0x0196 [0x27] REQ_SET(priority=0x05, entity_id=Fari-Wari (ID: 16982364/0x0103215C), tag_num=0x0D)
  8: 0x019D [0x1C] WAIT(60* ticks)
  9: 0x01A0 [0x27] REQ_SET(priority=0x05, entity_id=Zubyahn (ID: 16982146/0x01032082), tag_num=0x0C)
 10: 0x01A7 [0x1C] WAIT(60* ticks)
 11: 0x01AA [0x27] REQ_SET(priority=0x05, entity_id=Halbeeya (ID: 16982142/0x0103207E), tag_num=0x0C)
 12: 0x01B1 [0x1C] WAIT(60* ticks)
 13: 0x01B4 [0x32] ExtData[1]->MainSpeed = 13* * 0.1
 14: 0x01B7 [0x1F] MOVE_ENTITY: EventEntity moves to X=78.268*, Z=-135.273*, Y=-6.000*
 15: 0x01BF [0x1F] MOVE_ENTITY: Update entity position (mode=1)
 16: 0x01C1 [0x1E] EventEntity looks at Yafaaf (ID: 16982100/0x01032054) and starts talking
 17: 0x01C6 [0x29] REQ_SET_WAIT(priority=0x05, entity_id=Foudeel (ID: 16982321/0x01032131), tag_num=0x3A)
 18: 0x01CD [0x27] REQ_SET(priority=0x05, entity_id=Zubyahn (ID: 16982146/0x01032082), tag_num=0x0D)
 19: 0x01D4 [0x1C] WAIT(60* ticks)
 20: 0x01D7 [0x27] REQ_SET(priority=0x05, entity_id=Halbeeya (ID: 16982142/0x0103207E), tag_num=0x0D)
 21: 0x01DE [0x1C] WAIT(60* ticks)
 22: 0x01E1 [0x32] ExtData[1]->MainSpeed = 13* * 0.1
 23: 0x01E4 [0x1F] MOVE_ENTITY: EventEntity moves to X=78.167*, Z=-136.256*, Y=-6.000*
 24: 0x01EC [0x1F] MOVE_ENTITY: Update entity position (mode=1)
 25: 0x01EE [0x1E] EventEntity looks at Yafaaf (ID: 16982100/0x01032054) and starts talking
 26: 0x01F3 [0x29] REQ_SET_WAIT(priority=0x05, entity_id=Foudeel (ID: 16982321/0x01032131), tag_num=0x3B)
 27: 0x01FA [0x29] REQ_SET_WAIT(priority=0x05, entity_id=Wahboud (ID: 16982322/0x01032132), tag_num=0x39)
 28: 0x0201 [0x27] REQ_SET(priority=0x05, entity_id=Halbeeya (ID: 16982142/0x0103207E), tag_num=0x0E)
 29: 0x0208 [0x1C] WAIT(60* ticks)
 30: 0x020B [0x32] ExtData[1]->MainSpeed = 13* * 0.1
 31: 0x020E [0x1F] MOVE_ENTITY: EventEntity moves to X=77.377*, Z=-137.981*, Y=-6.000*
 32: 0x0216 [0x1F] MOVE_ENTITY: Update entity position (mode=1)
 33: 0x0218 [0x1E] EventEntity looks at Yafaaf (ID: 16982100/0x01032054) and starts talking
 34: 0x021D [0x29] REQ_SET_WAIT(priority=0x05, entity_id=Foudeel (ID: 16982321/0x01032131), tag_num=0x3C)
 35: 0x0224 [0x29] REQ_SET_WAIT(priority=0x05, entity_id=Wahboud (ID: 16982322/0x01032132), tag_num=0x3A)
 36: 0x022B [0x27] REQ_SET(priority=0x05, entity_id=Bashraf (ID: 16982320/0x01032130), tag_num=0x3C)
 37: 0x0232 [0x03] Work_Zone[37] = 1*
 38: 0x0237 [0x2A] GET_REQ_LEVEL(level=5, entity_id=Bashraf (ID: 16982320/0x01032130))
 39: 0x023D [0x27] REQ_SET(priority=0x05, entity_id=Foudeel (ID: 16982321/0x01032131), tag_num=0x3D)
 40: 0x0244 [0x32] ExtData[1]->MainSpeed = 13* * 0.1
 41: 0x0247 [0x1F] MOVE_ENTITY: EventEntity moves to X=79.028*, Z=-137.555*, Y=-6.000*
 42: 0x024F [0x1F] MOVE_ENTITY: Update entity position (mode=1)
 43: 0x0251 [0x03] Work_Zone[37] = 3*
 44: 0x0256 [0x32] ExtData[1]->MainSpeed = 40* * 0.1
 45: 0x0259 [0x1F] MOVE_ENTITY: EventEntity moves to X=80.231*, Z=-134.233*, Y=-6.000*
 46: 0x0261 [0x1F] MOVE_ENTITY: Update entity position (mode=1)
 47: 0x0263 [0x1C] WAIT(5* ticks)
 48: 0x0266 [0x32] ExtData[1]->MainSpeed = 13* * 0.1
 49: 0x0269 [0x1F] MOVE_ENTITY: EventEntity moves to X=78.677*, Z=-134.011*, Y=-6.000*
 50: 0x0271 [0x1F] MOVE_ENTITY: Update entity position (mode=1)
 51: 0x0273 [0x1E] EventEntity looks at Yafaaf (ID: 16982100/0x01032054) and starts talking
 52: 0x0278 [0x27] REQ_SET(priority=0x05, entity_id=Foudeel (ID: 16982321/0x01032131), tag_num=0x3E)
 53: 0x027F [0x1C] WAIT(60* ticks)
 54: 0x0282 [0x27] REQ_SET(priority=0x05, entity_id=Wahboud (ID: 16982322/0x01032132), tag_num=0x3C)
 55: 0x0289 [0x1C] WAIT(60* ticks)
 56: 0x028C [0x27] REQ_SET(priority=0x05, entity_id=Bashraf (ID: 16982320/0x01032130), tag_num=0x3E)
 57: 0x0293 [0x1C] WAIT(60* ticks)
 58: 0x0296 [0x32] ExtData[1]->MainSpeed = 13* * 0.1
 59: 0x0299 [0x1F] MOVE_ENTITY: EventEntity moves to X=78.268*, Z=-135.273*, Y=-6.000*
 60: 0x02A1 [0x1F] MOVE_ENTITY: Update entity position (mode=1)
 61: 0x02A3 [0x1E] EventEntity looks at Yafaaf (ID: 16982100/0x01032054) and starts talking
 62: 0x02A8 [0x29] REQ_SET_WAIT(priority=0x05, entity_id=Hashayra (ID: 16982148/0x01032084), tag_num=0x03)
 63: 0x02AF [0x27] REQ_SET(priority=0x05, entity_id=Wahboud (ID: 16982322/0x01032132), tag_num=0x3D)
 64: 0x02B6 [0x1C] WAIT(60* ticks)
 65: 0x02B9 [0x27] REQ_SET(priority=0x05, entity_id=Bashraf (ID: 16982320/0x01032130), tag_num=0x3F)
 66: 0x02C0 [0x1C] WAIT(60* ticks)
 67: 0x02C3 [0x32] ExtData[1]->MainSpeed = 13* * 0.1
 68: 0x02C6 [0x1F] MOVE_ENTITY: EventEntity moves to X=78.167*, Z=-136.256*, Y=-6.000*
 69: 0x02CE [0x1F] MOVE_ENTITY: Update entity position (mode=1)
 70: 0x02D0 [0x1E] EventEntity looks at Yafaaf (ID: 16982100/0x01032054) and starts talking
 71: 0x02D5 [0x29] REQ_SET_WAIT(priority=0x05, entity_id=Hashayra (ID: 16982148/0x01032084), tag_num=0x04)
 72: 0x02DC [0x29] REQ_SET_WAIT(priority=0x05, entity_id=Kamnahb (ID: 16982149/0x01032085), tag_num=0x03)
 73: 0x02E3 [0x27] REQ_SET(priority=0x05, entity_id=Bashraf (ID: 16982320/0x01032130), tag_num=0x40)
 74: 0x02EA [0x1C] WAIT(60* ticks)
 75: 0x02ED [0x32] ExtData[1]->MainSpeed = 13* * 0.1
 76: 0x02F0 [0x1F] MOVE_ENTITY: EventEntity moves to X=77.377*, Z=-137.981*, Y=-6.000*
 77: 0x02F8 [0x1F] MOVE_ENTITY: Update entity position (mode=1)
 78: 0x02FA [0x1E] EventEntity looks at Yafaaf (ID: 16982100/0x01032054) and starts talking
 79: 0x02FF [0x29] REQ_SET_WAIT(priority=0x05, entity_id=Hashayra (ID: 16982148/0x01032084), tag_num=0x05)
 80: 0x0306 [0x29] REQ_SET_WAIT(priority=0x05, entity_id=Kamnahb (ID: 16982149/0x01032085), tag_num=0x04)
 81: 0x030D [0x27] REQ_SET(priority=0x05, entity_id=Hashayra (ID: 16982148/0x01032084), tag_num=0x07)
 82: 0x0314 [0x27] REQ_SET(priority=0x05, entity_id=Kamnahb (ID: 16982149/0x01032085), tag_num=0x06)
 83: 0x031B [0x32] ExtData[1]->MainSpeed = 13* * 0.1
 84: 0x031E [0x1F] MOVE_ENTITY: EventEntity moves to X=82.702*, Z=-135.689*, Y=-6.000*
 85: 0x0326 [0x1F] MOVE_ENTITY: Update entity position (mode=1)
 86: 0x0328 [0x03] Work_Zone[37] = 5*
 87: 0x032D [0x27] REQ_SET(priority=0x05, entity_id=Hashayra (ID: 16982148/0x01032084), tag_num=0x08)
 88: 0x0334 [0x1C] WAIT(60* ticks)
 89: 0x0337 [0x29] REQ_SET_WAIT(priority=0x05, entity_id=Kamnahb (ID: 16982149/0x01032085), tag_num=0x07)
 90: 0x033E [0x1C] WAIT(60* ticks)
 91: 0x0341 [0x27] REQ_SET(priority=0x05, entity_id=Kamnahb (ID: 16982149/0x01032085), tag_num=0x08)
 92: 0x0348 [0x03] Work_Zone[38] = 1*
 93: 0x034D [0xB4] UI_WINDOW_STRING_HANDLER(case=0x06 - Toggle query message flag, flag_value=0x00)
 94: 0x0350 [0x00] END_REQSTACK()
```

### Event 872

#### Metadata

| Field        | Value   |
|--------------|---------|
| Entrypoint   | 0x0351  |
| Data Size    | 7 bytes |
| Instructions | 2       |

```
      00 01 02 03 04 05 06 07  08 09 0A 0B 0C 0D 0E 0F
      -- -- -- -- -- -- -- --  -- -- -- -- -- -- -- --
0350:    92 01 F8 FF FF 7F 00                            .......        
```

#### Opcodes

```
  0: 0x0351 [0x92] EventEntity->Render.Flags3 ^= 0x01
  1: 0x0357 [0x00] END_REQSTACK()
```

### Event 65535.26

#### Metadata

| Field        | Value    |
|--------------|----------|
| Entrypoint   | 0x0358   |
| Data Size    | 55 bytes |
| Instructions | 13       |

```
      00 01 02 03 04 05 06 07  08 09 0A 0B 0C 0D 0E 0F
      -- -- -- -- -- -- -- --  -- -- -- -- -- -- -- --
0350:                          27 05 31 21 03 01 3D 32          '.1!..=2
0360: 04 80 1F 00 4B 80 4C 80  0D 80 1F 01 32 3A 80 1F  ....K.L.....2:..
0370: 00 4D 80 4E 80 0D 80 1F  01 1C 4F 80 32 04 80 1F  .M.N......O.2...
0380: 00 43 80 44 80 0D 80 1F  01 1E 54 20 03 01 00     .C.D......T ... 
```

#### Opcodes

```
  0: 0x0358 [0x27] REQ_SET(priority=0x05, entity_id=Foudeel (ID: 16982321/0x01032131), tag_num=0x3D)
  1: 0x035F [0x32] ExtData[1]->MainSpeed = 13* * 0.1
  2: 0x0362 [0x1F] MOVE_ENTITY: EventEntity moves to X=79.028*, Z=-137.555*, Y=-6.000*
  3: 0x036A [0x1F] MOVE_ENTITY: Update entity position (mode=1)
  4: 0x036C [0x32] ExtData[1]->MainSpeed = 40* * 0.1
  5: 0x036F [0x1F] MOVE_ENTITY: EventEntity moves to X=80.231*, Z=-134.233*, Y=-6.000*
  6: 0x0377 [0x1F] MOVE_ENTITY: Update entity position (mode=1)
  7: 0x0379 [0x1C] WAIT(5* ticks)
  8: 0x037C [0x32] ExtData[1]->MainSpeed = 13* * 0.1
  9: 0x037F [0x1F] MOVE_ENTITY: EventEntity moves to X=78.677*, Z=-134.011*, Y=-6.000*
 10: 0x0387 [0x1F] MOVE_ENTITY: Update entity position (mode=1)
 11: 0x0389 [0x1E] EventEntity looks at Yafaaf (ID: 16982100/0x01032054) and starts talking
 12: 0x038E [0x00] END_REQSTACK()
```
