# 16982133 - Nafiwaa

## Common Data

| Field            | Value                         |
|------------------|-------------------------------|
| Zone             | Aht Urhgan Whitegate (ID: 50) |
| Block Size       | 420 bytes                     |
| Total Events     | 14                            |
| References Count | 24                            |

## List of Events

| Event ID                  | Entrypoint   |   Size |   Instructions |
|---------------------------|--------------|--------|----------------|
| [65535](#event-65535)     | 0x0000       |      1 |              1 |
| [661](#event-661)         | 0x0001       |    126 |             22 |
| [5030](#event-5030)       | 0x007F       |      1 |              1 |
| [65535.1](#event-65535-1) | 0x0080       |     10 |              2 |
| [65535.2](#event-65535-2) | 0x008A       |     14 |              4 |
| [5035](#event-5035)       | 0x0098       |      1 |              1 |
| [5036](#event-5036)       | 0x0099       |     33 |             11 |
| [5037](#event-5037)       | 0x00BA       |     33 |             11 |
| [5038](#event-5038)       | 0x00DB       |      1 |              1 |
| [65535.3](#event-65535-3) | 0x00DC       |     10 |              2 |
| [5039](#event-5039)       | 0x00E6       |     17 |              7 |
| [65535.4](#event-65535-4) | 0x00F7       |      1 |              1 |
| [65535.5](#event-65535-5) | 0x00F8       |      1 |              1 |
| [5078](#event-5078)       | 0x00F9       |      1 |              1 |

## DAT References (imed_data)

|   Index | Hex Value   |   Dec Value |
|---------|-------------|-------------|
|       0 | 0x001E      |          30 |
|       1 | 0x000B      |          11 |
|       2 | 0x18CC      |        6348 |
|       3 | 0x18CD      |        6349 |
|       4 | 0x18CE      |        6350 |
|       5 | 0x18CF      |        6351 |
|       6 | 0x000A      |          10 |
|       7 | 0x18D0      |        6352 |
|       8 | 0x650D      |       25869 |
|       9 | 0xFFFF4DF0  |  4294921712 |
|      10 | 0xFFFFE184  |  4294959492 |
|      11 | 0x0794      |        1940 |
|      12 | 0x000D      |          13 |
|      13 | 0x63BD      |       25533 |
|      14 | 0xFFFF480C  |  4294920204 |
|      15 | 0x199A      |        6554 |
|      16 | 0x199B      |        6555 |
|      17 | 0x199C      |        6556 |
|      18 | 0x199D      |        6557 |
|      19 | 0xFFFEE2EB  |  4294894315 |
|      20 | 0x1F532     |      128306 |
|      21 | 0xFFFFE890  |  4294961296 |
|      22 | 0x03C5      |         965 |
|      23 | 0x19D6      |        6614 |

## Events

### Event 65535

#### Metadata

| Field        | Value   |
|--------------|---------|
| Entrypoint   | 0x0000  |
| Data Size    | 1 bytes |
| Instructions | 1       |

```
      00 01 02 03 04 05 06 07  08 09 0A 0B 0C 0D 0E 0F
      -- -- -- -- -- -- -- --  -- -- -- -- -- -- -- --
0000: 00                                                .               
```

#### Opcodes

```
  0: 0x0000 [0x00] END_REQSTACK()
```

### Event 661

#### Metadata

| Field        | Value     |
|--------------|-----------|
| Entrypoint   | 0x0001    |
| Data Size    | 126 bytes |
| Instructions | 22        |

```
      00 01 02 03 04 05 06 07  08 09 0A 0B 0C 0D 0E 0F
      -- -- -- -- -- -- -- --  -- -- -- -- -- -- -- --
0000:    1E F0 FF FF 7F 1C 00  80 66 01 80 F8 FF FF 7F   ........f......
0010: F8 FF FF 7F 75 74 6C 30  1D 02 80 23 1D 03 80 23  ....utl0...#...#
0020: 1D 04 80 23 66 01 80 F8  FF FF 7F F8 FF FF 7F 75  ...#f..........u
0030: 74 6C 31 1C 00 80 66 01  80 F8 FF FF 7F F8 FF FF  tl1...f.........
0040: 7F 6E 67 74 30 1D 05 80  23 66 01 80 F8 FF FF 7F  .ngt0...#f......
0050: F8 FF FF 7F 6E 67 74 31  66 06 80 F8 FF FF 7F F8  ....ngt1f.......
0060: FF FF 7F 74 6C 6B 30 1D  07 80 23 66 01 80 F8 FF  ...tlk0...#f....
0070: FF 7F F8 FF FF 7F 74 6C  6B 31 1C 00 80 21 00     ......tlk1...!. 
```

#### Opcodes

```
  0: 0x0001 [0x1E] EventEntity looks at LocalPlayer and starts talking
  1: 0x0006 [0x1C] WAIT(30* ticks)
  2: 0x0009 [0x66] LOAD_EXT_SCHEDULER_MAIN: Load scheduler "utl0" with entities [EventEntity, EventEntity], work=11*
  3: 0x0018 [0x1D] PRINT_EVENT_MESSAGE(message_id=6348*)
    → "Quite some time ago, there was an absolutely horrifying epidemic in Bastok, one of the nations of the Middle Lands. It was referred to as the \u00072Bastokan Blight.\u00073\u007F1\u0000\u0007"
  4: 0x001B [0x23] WAIT_FOR_DIALOG_INTERACTION
  5: 0x001C [0x1D] PRINT_EVENT_MESSAGE(message_id=6349*)
    → "The other alchemists say that one of our very own traveled to Bastok and developed a cure for the illness.\u007F1\u0000\u0007"
  6: 0x001F [0x23] WAIT_FOR_DIALOG_INTERACTION
  7: 0x0020 [0x1D] PRINT_EVENT_MESSAGE(message_id=6350*)
    → "Hearing that makes me proud, but in all practicality, the remedy may have been discovered by mere accident. I mean, the cause of the epidemic is still unknown...\u007F1\u0000\u0007"
  8: 0x0023 [0x23] WAIT_FOR_DIALOG_INTERACTION
  9: 0x0024 [0x66] LOAD_EXT_SCHEDULER_MAIN: Load scheduler "utl1" with entities [EventEntity, EventEntity], work=11*
 10: 0x0033 [0x1C] WAIT(30* ticks)
 11: 0x0036 [0x66] LOAD_EXT_SCHEDULER_MAIN: Load scheduler "ngt0" with entities [EventEntity, EventEntity], work=11*
 12: 0x0045 [0x1D] PRINT_EVENT_MESSAGE(message_id=6351*)
    → "Someone really should lead an investigation into the reasons for the Bastokan Blight. I am thinking of taking it up as my life's work.\u007F1\u0000\u0007"
 13: 0x0048 [0x23] WAIT_FOR_DIALOG_INTERACTION
 14: 0x0049 [0x66] LOAD_EXT_SCHEDULER_MAIN: Load scheduler "ngt1" with entities [EventEntity, EventEntity], work=11*
 15: 0x0058 [0x66] LOAD_EXT_SCHEDULER_MAIN: Load scheduler "tlk0" with entities [EventEntity, EventEntity], work=10*
 16: 0x0067 [0x1D] PRINT_EVENT_MESSAGE(message_id=6352*)
    → "You may wonder why I would pour such effort into researching a disease that no longer exists, but all I can tell you in response is that alchemists are highly inquisitive creatures.\u007F1\u0000\u0007"
 17: 0x006A [0x23] WAIT_FOR_DIALOG_INTERACTION
 18: 0x006B [0x66] LOAD_EXT_SCHEDULER_MAIN: Load scheduler "tlk1" with entities [EventEntity, EventEntity], work=11*
 19: 0x007A [0x1C] WAIT(30* ticks)
 20: 0x007D [0x21] END_EVENT
 21: 0x007E [0x00] END_REQSTACK()
```

### Event 5030

#### Metadata

| Field        | Value   |
|--------------|---------|
| Entrypoint   | 0x007F  |
| Data Size    | 1 bytes |
| Instructions | 1       |

```
      00 01 02 03 04 05 06 07  08 09 0A 0B 0C 0D 0E 0F
      -- -- -- -- -- -- -- --  -- -- -- -- -- -- -- --
0070:                                               00                 .
```

#### Opcodes

```
  0: 0x007F [0x00] END_REQSTACK()
```

### Event 65535.1

#### Metadata

| Field        | Value    |
|--------------|----------|
| Entrypoint   | 0x0080   |
| Data Size    | 10 bytes |
| Instructions | 2        |

```
      00 01 02 03 04 05 06 07  08 09 0A 0B 0C 0D 0E 0F
      -- -- -- -- -- -- -- --  -- -- -- -- -- -- -- --
0080: 37 08 80 09 80 0A 80 0B  80 00                    7.........      
```

#### Opcodes

```
  0: 0x0080 [0x37] UPDATE_EVENT_POSITION_AND_DIR: x=25.869*, z=-45.584*, y=-7.804*, direction=170.5°*
  1: 0x0089 [0x00] END_REQSTACK()
```

### Event 65535.2

#### Metadata

| Field        | Value    |
|--------------|----------|
| Entrypoint   | 0x008A   |
| Data Size    | 14 bytes |
| Instructions | 4        |

```
      00 01 02 03 04 05 06 07  08 09 0A 0B 0C 0D 0E 0F
      -- -- -- -- -- -- -- --  -- -- -- -- -- -- -- --
0080:                                32 0C 80 1F 00 0D            2.....
0090: 80 0E 80 0A 80 1F 01 00                           ........        
```

#### Opcodes

```
  0: 0x008A [0x32] ExtData[1]->MainSpeed = 13* * 0.1
  1: 0x008D [0x1F] MOVE_ENTITY: EventEntity moves to X=25.533*, Z=-47.092*, Y=-7.804*
  2: 0x0095 [0x1F] MOVE_ENTITY: Update entity position (mode=1)
  3: 0x0097 [0x00] END_REQSTACK()
```

### Event 5035

#### Metadata

| Field        | Value   |
|--------------|---------|
| Entrypoint   | 0x0098  |
| Data Size    | 1 bytes |
| Instructions | 1       |

```
      00 01 02 03 04 05 06 07  08 09 0A 0B 0C 0D 0E 0F
      -- -- -- -- -- -- -- --  -- -- -- -- -- -- -- --
0090:                          00                               .       
```

#### Opcodes

```
  0: 0x0098 [0x00] END_REQSTACK()
```

### Event 5036

#### Metadata

| Field        | Value    |
|--------------|----------|
| Entrypoint   | 0x0099   |
| Data Size    | 33 bytes |
| Instructions | 11       |

```
      00 01 02 03 04 05 06 07  08 09 0A 0B 0C 0D 0E 0F
      -- -- -- -- -- -- -- --  -- -- -- -- -- -- -- --
0090:                             1E F0 FF FF 7F 6F 70           .....op
00A0: 2B 75 20 03 01 0F 80 23  2B 75 20 03 01 10 80 23  +u ....#+u ....#
00B0: 2B 75 20 03 01 11 80 23  21 00                    +u ....#!.      
```

#### Opcodes

```
  0: 0x0099 [0x1E] EventEntity looks at LocalPlayer and starts talking
  1: 0x009E [0x6F] WAIT_FRAME_DELAY: Yield until WaitTime reaches zero
  2: 0x009F [0x70] WAIT_ENTITY_RENDER_FLAG: Wait while EventEntity->Render.Flags3 bit 2 is set (cancel turn if not)
  3: 0x00A0 [0x2B] Nafiwaa (ID: 16982133/0x01032075) [6554*]:
    → "\u0008.\u0007I would like you to use the test tubes I gave you to collect water from the Mythralline Wellsprings.\u007F1\u0000\u0007"
  4: 0x00A7 [0x23] WAIT_FOR_DIALOG_INTERACTION
  5: 0x00A8 [0x2B] Nafiwaa (ID: 16982133/0x01032075) [6555*]:
    → "There are five locations: four in the Wajaom Woodlands, and one in Bhaflau Thickets.\u007F1\u0000\u0007"
  6: 0x00AF [0x23] WAIT_FOR_DIALOG_INTERACTION
  7: 0x00B0 [0x2B] Nafiwaa (ID: 16982133/0x01032075) [6556*]:
    → "The waters of each spring differ slightly in composition, so please make sure you collect samples from all five locations.\u007F1\u0000\u0007"
  8: 0x00B7 [0x23] WAIT_FOR_DIALOG_INTERACTION
  9: 0x00B8 [0x21] END_EVENT
 10: 0x00B9 [0x00] END_REQSTACK()
```

### Event 5037

#### Metadata

| Field        | Value    |
|--------------|----------|
| Entrypoint   | 0x00BA   |
| Data Size    | 33 bytes |
| Instructions | 11       |

```
      00 01 02 03 04 05 06 07  08 09 0A 0B 0C 0D 0E 0F
      -- -- -- -- -- -- -- --  -- -- -- -- -- -- -- --
00B0:                                1E F0 FF FF 7F 6F            .....o
00C0: 70 2B 75 20 03 01 12 80  23 2B 75 20 03 01 10 80  p+u ....#+u ....
00D0: 23 2B 75 20 03 01 11 80  23 21 00                 #+u ....#!.     
```

#### Opcodes

```
  0: 0x00BA [0x1E] EventEntity looks at LocalPlayer and starts talking
  1: 0x00BF [0x6F] WAIT_FRAME_DELAY: Yield until WaitTime reaches zero
  2: 0x00C0 [0x70] WAIT_ENTITY_RENDER_FLAG: Wait while EventEntity->Render.Flags3 bit 2 is set (cancel turn if not)
  3: 0x00C1 [0x2B] Nafiwaa (ID: 16982133/0x01032075) [6557*]:
    → "I see you have collected 
\u0001 \u007F\u0012\u0001[sample/samples] of water.\u007F1\u0000\u0007"
  4: 0x00C8 [0x23] WAIT_FOR_DIALOG_INTERACTION
  5: 0x00C9 [0x2B] Nafiwaa (ID: 16982133/0x01032075) [6555*]:
    → "There are five locations: four in the Wajaom Woodlands, and one in Bhaflau Thickets.\u007F1\u0000\u0007"
  6: 0x00D0 [0x23] WAIT_FOR_DIALOG_INTERACTION
  7: 0x00D1 [0x2B] Nafiwaa (ID: 16982133/0x01032075) [6556*]:
    → "The waters of each spring differ slightly in composition, so please make sure you collect samples from all five locations.\u007F1\u0000\u0007"
  8: 0x00D8 [0x23] WAIT_FOR_DIALOG_INTERACTION
  9: 0x00D9 [0x21] END_EVENT
 10: 0x00DA [0x00] END_REQSTACK()
```

### Event 5038

#### Metadata

| Field        | Value   |
|--------------|---------|
| Entrypoint   | 0x00DB  |
| Data Size    | 1 bytes |
| Instructions | 1       |

```
      00 01 02 03 04 05 06 07  08 09 0A 0B 0C 0D 0E 0F
      -- -- -- -- -- -- -- --  -- -- -- -- -- -- -- --
00D0:                                   00                         .    
```

#### Opcodes

```
  0: 0x00DB [0x00] END_REQSTACK()
```

### Event 65535.3

#### Metadata

| Field        | Value    |
|--------------|----------|
| Entrypoint   | 0x00DC   |
| Data Size    | 10 bytes |
| Instructions | 2        |

```
      00 01 02 03 04 05 06 07  08 09 0A 0B 0C 0D 0E 0F
      -- -- -- -- -- -- -- --  -- -- -- -- -- -- -- --
00D0:                                      37 13 80 14              7...
00E0: 80 15 80 16 80 00                                 ......          
```

#### Opcodes

```
  0: 0x00DC [0x37] UPDATE_EVENT_POSITION_AND_DIR: x=-72.981*, z=128.306*, y=-6.000*, direction=84.8°*
  1: 0x00E5 [0x00] END_REQSTACK()
```

### Event 5039

#### Metadata

| Field        | Value    |
|--------------|----------|
| Entrypoint   | 0x00E6   |
| Data Size    | 17 bytes |
| Instructions | 7        |

```
      00 01 02 03 04 05 06 07  08 09 0A 0B 0C 0D 0E 0F
      -- -- -- -- -- -- -- --  -- -- -- -- -- -- -- --
00E0:                   1E F0  FF FF 7F 6F 70 2B 75 20        .....op+u 
00F0: 03 01 17 80 23 21 00                              ....#!.         
```

#### Opcodes

```
  0: 0x00E6 [0x1E] EventEntity looks at LocalPlayer and starts talking
  1: 0x00EB [0x6F] WAIT_FRAME_DELAY: Yield until WaitTime reaches zero
  2: 0x00EC [0x70] WAIT_ENTITY_RENDER_FLAG: Wait while EventEntity->Render.Flags3 bit 2 is set (cancel turn if not)
  3: 0x00ED [0x2B] Nafiwaa (ID: 16982133/0x01032075) [6614*]:
    → "I will contact Salaheem's Sentinels with the mythralline liquid results.\u0007I hope we have a high-quality yield...\u007F1\u0000\u0007"
  4: 0x00F4 [0x23] WAIT_FOR_DIALOG_INTERACTION
  5: 0x00F5 [0x21] END_EVENT
  6: 0x00F6 [0x00] END_REQSTACK()
```

### Event 65535.4

#### Metadata

| Field        | Value   |
|--------------|---------|
| Entrypoint   | 0x00F7  |
| Data Size    | 1 bytes |
| Instructions | 1       |

```
      00 01 02 03 04 05 06 07  08 09 0A 0B 0C 0D 0E 0F
      -- -- -- -- -- -- -- --  -- -- -- -- -- -- -- --
00F0:                      00                                  .        
```

#### Opcodes

```
  0: 0x00F7 [0x00] END_REQSTACK()
```

### Event 65535.5

#### Metadata

| Field        | Value   |
|--------------|---------|
| Entrypoint   | 0x00F8  |
| Data Size    | 1 bytes |
| Instructions | 1       |

```
      00 01 02 03 04 05 06 07  08 09 0A 0B 0C 0D 0E 0F
      -- -- -- -- -- -- -- --  -- -- -- -- -- -- -- --
00F0:                          00                               .       
```

#### Opcodes

```
  0: 0x00F8 [0x00] END_REQSTACK()
```

### Event 5078

#### Metadata

| Field        | Value   |
|--------------|---------|
| Entrypoint   | 0x00F9  |
| Data Size    | 1 bytes |
| Instructions | 1       |

```
      00 01 02 03 04 05 06 07  08 09 0A 0B 0C 0D 0E 0F
      -- -- -- -- -- -- -- --  -- -- -- -- -- -- -- --
00F0:                             00                             .      
```

#### Opcodes

```
  0: 0x00F9 [0x00] END_REQSTACK()
```
