# 16982149 - Kamnahb

## Common Data

| Field            | Value                         |
|------------------|-------------------------------|
| Zone             | Aht Urhgan Whitegate (ID: 50) |
| Block Size       | 456 bytes                     |
| Total Events     | 10                            |
| References Count | 22                            |

## List of Events

| Event ID                 | Entrypoint   |   Size |   Instructions |
|--------------------------|--------------|--------|----------------|
| [65535](#event-65535)    | 0x0000       |      1 |              1 |
| [677](#event-677)        | 0x0001       |    183 |             29 |
| [864](#event-864)        | 0x00B8       |      7 |              2 |
| [65535.1](#event-655351) | 0x00BF       |     19 |              5 |
| [65535.2](#event-655352) | 0x00D2       |     19 |              5 |
| [65535.3](#event-655353) | 0x00E5       |     19 |              5 |
| [65535.4](#event-655354) | 0x00F8       |     22 |              6 |
| [65535.5](#event-655355) | 0x010E       |     19 |              5 |
| [65535.6](#event-655356) | 0x0121       |     14 |              4 |
| [872](#event-872)        | 0x012F       |      7 |              2 |

## DAT References (imed_data)

|   Index | Hex Value   |   Dec Value |
|---------|-------------|-------------|
|       0 | 0x001E      |          30 |
|       1 | 0x0000      |           0 |
|       2 | 0x190C      |        6412 |
|       3 | 0x190D      |        6413 |
|       4 | 0x190E      |        6414 |
|       5 | 0x0001      |           1 |
|       6 | 0x190F      |        6415 |
|       7 | 0x1910      |        6416 |
|       8 | 0x1911      |        6417 |
|       9 | 0x000D      |          13 |
|      10 | 0x13355     |       78677 |
|      11 | 0xFFFDF485  |  4294833285 |
|      12 | 0xFFFFE890  |  4294961296 |
|      13 | 0x131BC     |       78268 |
|      14 | 0xFFFDEF97  |  4294832023 |
|      15 | 0x13157     |       78167 |
|      16 | 0xFFFDEBC0  |  4294831040 |
|      17 | 0x0078      |         120 |
|      18 | 0x12E41     |       77377 |
|      19 | 0xFFFDE503  |  4294829315 |
|      20 | 0x1430E     |       82702 |
|      21 | 0xFFFDEDF7  |  4294831607 |

## String References

- **6412**: Hey, you ever been there?
- **6413**: Have you? [A million times!/Been where?]
- **6414**: Heheheh, of course you have! I can tell by the looks of ya!
- **6415**: Where? Where else? Kokba Hostel, of course!
- **6416**: Kokba Hostel is no ordinary hostel! The moment you enter, they provide you with food and items! And just wait until you see the attendants! ...Know what I'm saying?
- **6417**: Don't tell anybody, but sometimes when I come to Al Zahbi...I even go there alone. My mother would die if she knew...

## Events

### Event 65535

#### Metadata

| Field        | Value   |
|--------------|---------|
| Entrypoint   | 0x0000  |
| Data Size    | 1 bytes |
| Instructions | 1       |

```
      00 01 02 03 04 05 06 07  08 09 0A 0B 0C 0D 0E 0F
      -- -- -- -- -- -- -- --  -- -- -- -- -- -- -- --
0000: 00                                                .               
```

#### Opcodes

```
  0: 0x0000 [0x00] END_REQSTACK()
```

### Event 677

#### Metadata

| Field        | Value     |
|--------------|-----------|
| Entrypoint   | 0x0001    |
| Data Size    | 183 bytes |
| Instructions | 29        |

```
      00 01 02 03 04 05 06 07  08 09 0A 0B 0C 0D 0E 0F
      -- -- -- -- -- -- -- --  -- -- -- -- -- -- -- --
0000:    1E F0 FF FF 7F 1C 00  80 66 01 80 F8 FF FF 7F   ........f......
0010: F8 FF FF 7F 74 6C 6B 30  1D 02 80 23 24 03 80 01  ....tlk0...#$...
0020: 80 01 80 25 66 01 80 F8  FF FF 7F F8 FF FF 7F 74  ...%f..........t
0030: 65 6E 30 02 00 10 01 80  00 60 00 66 01 80 F8 FF  en0......`.f....
0040: FF 7F F8 FF FF 7F 74 6C  6B 31 1D 04 80 23 66 01  ......tlk1...#f.
0050: 80 F8 FF FF 7F F8 FF FF  7F 74 65 6E 31 01 8D 00  .........ten1...
0060: 02 00 10 05 80 00 8D 00  66 01 80 F8 FF FF 7F F8  ........f.......
0070: FF FF 7F 74 6C 6B 31 1D  06 80 23 66 01 80 F8 FF  ...tlk1...#f....
0080: FF 7F F8 FF FF 7F 74 65  6E 31 01 8D 00 66 01 80  ......ten1...f..
0090: F8 FF FF 7F F8 FF FF 7F  74 6C 6B 30 1D 07 80 23  ........tlk0...#
00A0: 1D 08 80 23 66 01 80 F8  FF FF 7F F8 FF FF 7F 74  ...#f..........t
00B0: 65 6E 30 1C 00 80 21 00                           en0...!.        
```

#### Opcodes

```
  0: 0x0001 [0x1E] EventEntity looks at LocalPlayer and starts talking
  1: 0x0006 [0x1C] WAIT(30* ticks)
  2: 0x0009 [0x66] LOAD_EXT_SCHEDULER_MAIN: Load scheduler "tlk0" with entities [EventEntity, EventEntity], work=0*
  3: 0x0018 [0x1D] PRINT_EVENT_MESSAGE(message_id=6412*)
    → "Hey, you ever been there?"
  4: 0x001B [0x23] WAIT_FOR_DIALOG_INTERACTION
  5: 0x001C [0x24] CREATE_DIALOG(message_id=6413*, default_option=0*, option_flags=0*)
    → "Have you? [A million times!/Been where?]"
  6: 0x0023 [0x25] WAIT_DIALOG_SELECT()
  7: 0x0024 [0x66] LOAD_EXT_SCHEDULER_MAIN: Load scheduler "ten0" with entities [EventEntity, EventEntity], work=0*
  8: 0x0033 [0x02] IF !(Work_Zone[0] == 0*) GOTO 0x0060
  9: 0x003B [0x66] LOAD_EXT_SCHEDULER_MAIN: Load scheduler "tlk1" with entities [EventEntity, EventEntity], work=0*
 10: 0x004A [0x1D] PRINT_EVENT_MESSAGE(message_id=6414*)
    → "Heheheh, of course you have! I can tell by the looks of ya!"
 11: 0x004D [0x23] WAIT_FOR_DIALOG_INTERACTION
 12: 0x004E [0x66] LOAD_EXT_SCHEDULER_MAIN: Load scheduler "ten1" with entities [EventEntity, EventEntity], work=0*
 13: 0x005D [0x01] GOTO 0x008D
 14: 0x0060 [0x02] IF !(Work_Zone[0] == 1*) GOTO 0x008D
 15: 0x0068 [0x66] LOAD_EXT_SCHEDULER_MAIN: Load scheduler "tlk1" with entities [EventEntity, EventEntity], work=0*
 16: 0x0077 [0x1D] PRINT_EVENT_MESSAGE(message_id=6415*)
    → "Where? Where else? Kokba Hostel, of course!"
 17: 0x007A [0x23] WAIT_FOR_DIALOG_INTERACTION
 18: 0x007B [0x66] LOAD_EXT_SCHEDULER_MAIN: Load scheduler "ten1" with entities [EventEntity, EventEntity], work=0*
 19: 0x008A [0x01] GOTO 0x008D

SUBROUTINE_008D:
 20: 0x008D [0x66] LOAD_EXT_SCHEDULER_MAIN: Load scheduler "tlk0" with entities [EventEntity, EventEntity], work=0*
 21: 0x009C [0x1D] PRINT_EVENT_MESSAGE(message_id=6416*)
    → "Kokba Hostel is no ordinary hostel! The moment you enter, they provide you with food and items! And just wait until you see the attendants! ...Know what I'm saying?"
 22: 0x009F [0x23] WAIT_FOR_DIALOG_INTERACTION
 23: 0x00A0 [0x1D] PRINT_EVENT_MESSAGE(message_id=6417*)
    → "Don't tell anybody, but sometimes when I come to Al Zahbi...I even go there alone. My mother would die if she knew..."
 24: 0x00A3 [0x23] WAIT_FOR_DIALOG_INTERACTION
 25: 0x00A4 [0x66] LOAD_EXT_SCHEDULER_MAIN: Load scheduler "ten0" with entities [EventEntity, EventEntity], work=0*
 26: 0x00B3 [0x1C] WAIT(30* ticks)
 27: 0x00B6 [0x21] END_EVENT
 28: 0x00B7 [0x00] END_REQSTACK()
```

### Event 864

#### Metadata

| Field        | Value   |
|--------------|---------|
| Entrypoint   | 0x00B8  |
| Data Size    | 7 bytes |
| Instructions | 2       |

```
      00 01 02 03 04 05 06 07  08 09 0A 0B 0C 0D 0E 0F
      -- -- -- -- -- -- -- --  -- -- -- -- -- -- -- --
00B0:                          92 01 F8 FF FF 7F 00             ....... 
```

#### Opcodes

```
  0: 0x00B8 [0x92] EventEntity->Render.Flags3 ^= 0x01
  1: 0x00BE [0x00] END_REQSTACK()
```

### Event 65535.1

#### Metadata

| Field        | Value    |
|--------------|----------|
| Entrypoint   | 0x00BF   |
| Data Size    | 19 bytes |
| Instructions | 5        |

```
      00 01 02 03 04 05 06 07  08 09 0A 0B 0C 0D 0E 0F
      -- -- -- -- -- -- -- --  -- -- -- -- -- -- -- --
00B0:                                               32                 2
00C0: 09 80 1F 00 0A 80 0B 80  0C 80 1F 01 1E 54 20 03  .............T .
00D0: 01 00                                             ..              
```

#### Opcodes

```
  0: 0x00BF [0x32] ExtData[1]->MainSpeed = 13* * 0.1
  1: 0x00C2 [0x1F] MOVE_ENTITY: EventEntity moves to X=78.677*, Z=-134.011*, Y=-6.000*
  2: 0x00CA [0x1F] MOVE_ENTITY: Update entity position (mode=1)
  3: 0x00CC [0x1E] EventEntity looks at Yafaaf (ID: 16982100/0x01032054) and starts talking
  4: 0x00D1 [0x00] END_REQSTACK()
```

### Event 65535.2

#### Metadata

| Field        | Value    |
|--------------|----------|
| Entrypoint   | 0x00D2   |
| Data Size    | 19 bytes |
| Instructions | 5        |

```
      00 01 02 03 04 05 06 07  08 09 0A 0B 0C 0D 0E 0F
      -- -- -- -- -- -- -- --  -- -- -- -- -- -- -- --
00D0:       32 09 80 1F 00 0D  80 0E 80 0C 80 1F 01 1E    2.............
00E0: 54 20 03 01 00                                    T ...           
```

#### Opcodes

```
  0: 0x00D2 [0x32] ExtData[1]->MainSpeed = 13* * 0.1
  1: 0x00D5 [0x1F] MOVE_ENTITY: EventEntity moves to X=78.268*, Z=-135.273*, Y=-6.000*
  2: 0x00DD [0x1F] MOVE_ENTITY: Update entity position (mode=1)
  3: 0x00DF [0x1E] EventEntity looks at Yafaaf (ID: 16982100/0x01032054) and starts talking
  4: 0x00E4 [0x00] END_REQSTACK()
```

### Event 65535.3

#### Metadata

| Field        | Value    |
|--------------|----------|
| Entrypoint   | 0x00E5   |
| Data Size    | 19 bytes |
| Instructions | 5        |

```
      00 01 02 03 04 05 06 07  08 09 0A 0B 0C 0D 0E 0F
      -- -- -- -- -- -- -- --  -- -- -- -- -- -- -- --
00E0:                32 09 80  1F 00 0F 80 10 80 0C 80       2..........
00F0: 1F 01 1E 54 20 03 01 00                           ...T ...        
```

#### Opcodes

```
  0: 0x00E5 [0x32] ExtData[1]->MainSpeed = 13* * 0.1
  1: 0x00E8 [0x1F] MOVE_ENTITY: EventEntity moves to X=78.167*, Z=-136.256*, Y=-6.000*
  2: 0x00F0 [0x1F] MOVE_ENTITY: Update entity position (mode=1)
  3: 0x00F2 [0x1E] EventEntity looks at Yafaaf (ID: 16982100/0x01032054) and starts talking
  4: 0x00F7 [0x00] END_REQSTACK()
```

### Event 65535.4

#### Metadata

| Field        | Value    |
|--------------|----------|
| Entrypoint   | 0x00F8   |
| Data Size    | 22 bytes |
| Instructions | 6        |

```
      00 01 02 03 04 05 06 07  08 09 0A 0B 0C 0D 0E 0F
      -- -- -- -- -- -- -- --  -- -- -- -- -- -- -- --
00F0:                          1C 11 80 32 09 80 1F 00          ...2....
0100: 0F 80 10 80 0C 80 1F 01  1E 54 20 03 01 00        .........T ...  
```

#### Opcodes

```
  0: 0x00F8 [0x1C] WAIT(120* ticks)
  1: 0x00FB [0x32] ExtData[1]->MainSpeed = 13* * 0.1
  2: 0x00FE [0x1F] MOVE_ENTITY: EventEntity moves to X=78.167*, Z=-136.256*, Y=-6.000*
  3: 0x0106 [0x1F] MOVE_ENTITY: Update entity position (mode=1)
  4: 0x0108 [0x1E] EventEntity looks at Yafaaf (ID: 16982100/0x01032054) and starts talking
  5: 0x010D [0x00] END_REQSTACK()
```

### Event 65535.5

#### Metadata

| Field        | Value    |
|--------------|----------|
| Entrypoint   | 0x010E   |
| Data Size    | 19 bytes |
| Instructions | 5        |

```
      00 01 02 03 04 05 06 07  08 09 0A 0B 0C 0D 0E 0F
      -- -- -- -- -- -- -- --  -- -- -- -- -- -- -- --
0100:                                            32 09                2.
0110: 80 1F 00 12 80 13 80 0C  80 1F 01 1E 54 20 03 01  ............T ..
0120: 00                                                .               
```

#### Opcodes

```
  0: 0x010E [0x32] ExtData[1]->MainSpeed = 13* * 0.1
  1: 0x0111 [0x1F] MOVE_ENTITY: EventEntity moves to X=77.377*, Z=-137.981*, Y=-6.000*
  2: 0x0119 [0x1F] MOVE_ENTITY: Update entity position (mode=1)
  3: 0x011B [0x1E] EventEntity looks at Yafaaf (ID: 16982100/0x01032054) and starts talking
  4: 0x0120 [0x00] END_REQSTACK()
```

### Event 65535.6

#### Metadata

| Field        | Value    |
|--------------|----------|
| Entrypoint   | 0x0121   |
| Data Size    | 14 bytes |
| Instructions | 4        |

```
      00 01 02 03 04 05 06 07  08 09 0A 0B 0C 0D 0E 0F
      -- -- -- -- -- -- -- --  -- -- -- -- -- -- -- --
0120:    32 09 80 1F 00 14 80  15 80 0C 80 1F 01 00      2............. 
```

#### Opcodes

```
  0: 0x0121 [0x32] ExtData[1]->MainSpeed = 13* * 0.1
  1: 0x0124 [0x1F] MOVE_ENTITY: EventEntity moves to X=82.702*, Z=-135.689*, Y=-6.000*
  2: 0x012C [0x1F] MOVE_ENTITY: Update entity position (mode=1)
  3: 0x012E [0x00] END_REQSTACK()
```

### Event 872

#### Metadata

| Field        | Value   |
|--------------|---------|
| Entrypoint   | 0x012F  |
| Data Size    | 7 bytes |
| Instructions | 2       |

```
      00 01 02 03 04 05 06 07  08 09 0A 0B 0C 0D 0E 0F
      -- -- -- -- -- -- -- --  -- -- -- -- -- -- -- --
0120:                                               92                 .
0130: 01 F8 FF FF 7F 00                                 ......          
```

#### Opcodes

```
  0: 0x012F [0x92] EventEntity->Render.Flags3 ^= 0x01
  1: 0x0135 [0x00] END_REQSTACK()
```
