# 16982263 - Alcander

## Common Data

| Field            | Value                         |
|------------------|-------------------------------|
| Zone             | Aht Urhgan Whitegate (ID: 50) |
| Block Size       | 696 bytes                     |
| Total Events     | 18                            |
| References Count | 41                            |

## List of Events

| Event ID                   | Entrypoint   |   Size |   Instructions |
|----------------------------|--------------|--------|----------------|
| [65535](#event-65535)      | 0x0000       |      1 |              1 |
| [1](#event-1)              | 0x0001       |     13 |              3 |
| [2](#event-2)              | 0x000E       |     13 |              3 |
| [3](#event-3)              | 0x001B       |     13 |              3 |
| [65535.1](#event-655351)   | 0x0028       |     19 |              5 |
| [65535.2](#event-655352)   | 0x003B       |     20 |              6 |
| [65535.3](#event-655353)   | 0x004F       |     19 |              5 |
| [65535.4](#event-655354)   | 0x0062       |     15 |              5 |
| [65535.5](#event-655355)   | 0x0071       |     15 |              3 |
| [65535.6](#event-655356)   | 0x0080       |     16 |              4 |
| [65535.7](#event-655357)   | 0x0090       |     19 |              5 |
| [65535.8](#event-655358)   | 0x00A3       |     19 |              5 |
| [65535.9](#event-655359)   | 0x00B6       |     14 |              4 |
| [65535.10](#event-6553510) | 0x00C4       |     14 |              4 |
| [65535.11](#event-6553511) | 0x00D2       |     13 |              3 |
| [65535.12](#event-6553512) | 0x00DF       |     15 |              5 |
| [65535.13](#event-6553513) | 0x00EE       |     53 |              9 |
| [65535.14](#event-6553514) | 0x0123       |    150 |             34 |

## DAT References (imed_data)

|   Index | Hex Value   |   Dec Value |
|---------|-------------|-------------|
|       0 | 0x000D      |          13 |
|       1 | 0xFFFEF0F1  |  4294897905 |
|       2 | 0x1934F     |      103247 |
|       3 | 0xFFFFE890  |  4294961296 |
|       4 | 0x000A      |          10 |
|       5 | 0xFFFEF652  |  4294899282 |
|       6 | 0x19C5D     |      105565 |
|       7 | 0xFFFFE891  |  4294961297 |
|       8 | 0xFFFEFA3E  |  4294900286 |
|       9 | 0x19D29     |      105769 |
|      10 | 0x70CA      |       28874 |
|      11 | 0xFFFE3ABE  |  4294851262 |
|      12 | 0x0B6A      |        2922 |
|      13 | 0x6F25      |       28453 |
|      14 | 0xFFFE1EC8  |  4294844104 |
|      15 | 0x000E      |          14 |
|      16 | 0x6E46      |       28230 |
|      17 | 0xFFFE1699  |  4294842009 |
|      18 | 0x000C      |          12 |
|      19 | 0x6A0E      |       27150 |
|      20 | 0xFFFE1078  |  4294840440 |
|      21 | 0x000B      |          11 |
|      22 | 0x6873      |       26739 |
|      23 | 0xFFFE1AC3  |  4294843075 |
|      24 | 0x68D5      |       26837 |
|      25 | 0xFFFE2A0D  |  4294846989 |
|      26 | 0xFFFF96C7  |  4294940359 |
|      27 | 0x10970     |       67952 |
|      28 | 0x0000      |           0 |
|      29 | 0x0FF7      |        4087 |
|      30 | 0xFFFFAB2B  |  4294945579 |
|      31 | 0x10B64     |       68452 |
|      32 | 0xFFFFA7F3  |  4294944755 |
|      33 | 0x11512     |       70930 |
|      34 | 0x0005      |           5 |
|      35 | 0x0001      |           1 |
|      36 | 0x0002      |           2 |
|      37 | 0x0009      |           9 |
|      38 | 0x0046      |          70 |
|      39 | 0x008C      |         140 |
|      40 | 0x00D2      |         210 |

## Events

### Event 65535

#### Metadata

| Field        | Value   |
|--------------|---------|
| Entrypoint   | 0x0000  |
| Data Size    | 1 bytes |
| Instructions | 1       |

```
      00 01 02 03 04 05 06 07  08 09 0A 0B 0C 0D 0E 0F
      -- -- -- -- -- -- -- --  -- -- -- -- -- -- -- --
0000: 00                                                .               
```

#### Opcodes

```
  0: 0x0000 [0x00] END_REQSTACK()
```

### Event 1

#### Metadata

| Field        | Value    |
|--------------|----------|
| Entrypoint   | 0x0001   |
| Data Size    | 13 bytes |
| Instructions | 3        |

```
      00 01 02 03 04 05 06 07  08 09 0A 0B 0C 0D 0E 0F
      -- -- -- -- -- -- -- --  -- -- -- -- -- -- -- --
0000:    92 01 F8 FF FF 7F 94  01 F8 FF FF 7F 00         .............  
```

#### Opcodes

```
  0: 0x0001 [0x92] EventEntity->Render.Flags3 ^= 0x01
  1: 0x0007 [0x94] EventEntity->Render.Flags3 ^= 0x01
  2: 0x000D [0x00] END_REQSTACK()
```

### Event 2

#### Metadata

| Field        | Value    |
|--------------|----------|
| Entrypoint   | 0x000E   |
| Data Size    | 13 bytes |
| Instructions | 3        |

```
      00 01 02 03 04 05 06 07  08 09 0A 0B 0C 0D 0E 0F
      -- -- -- -- -- -- -- --  -- -- -- -- -- -- -- --
0000:                                            92 01                ..
0010: F8 FF FF 7F 94 01 F8 FF  FF 7F 00                 ...........     
```

#### Opcodes

```
  0: 0x000E [0x92] EventEntity->Render.Flags3 ^= 0x01
  1: 0x0014 [0x94] EventEntity->Render.Flags3 ^= 0x01
  2: 0x001A [0x00] END_REQSTACK()
```

### Event 3

#### Metadata

| Field        | Value    |
|--------------|----------|
| Entrypoint   | 0x001B   |
| Data Size    | 13 bytes |
| Instructions | 3        |

```
      00 01 02 03 04 05 06 07  08 09 0A 0B 0C 0D 0E 0F
      -- -- -- -- -- -- -- --  -- -- -- -- -- -- -- --
0010:                                   92 01 F8 FF FF             .....
0020: 7F 94 01 F8 FF FF 7F 00                           ........        
```

#### Opcodes

```
  0: 0x001B [0x92] EventEntity->Render.Flags3 ^= 0x01
  1: 0x0021 [0x94] EventEntity->Render.Flags3 ^= 0x01
  2: 0x0027 [0x00] END_REQSTACK()
```

### Event 65535.1

#### Metadata

| Field        | Value    |
|--------------|----------|
| Entrypoint   | 0x0028   |
| Data Size    | 19 bytes |
| Instructions | 5        |

```
      00 01 02 03 04 05 06 07  08 09 0A 0B 0C 0D 0E 0F
      -- -- -- -- -- -- -- --  -- -- -- -- -- -- -- --
0020:                          32 00 80 1F 00 01 80 02          2.......
0030: 80 03 80 1F 01 1E F5 20  03 01 00                 ....... ...     
```

#### Opcodes

```
  0: 0x0028 [0x32] ExtData[1]->MainSpeed = 13* * 0.1
  1: 0x002B [0x1F] MOVE_ENTITY: EventEntity moves to X=-69.391*, Z=103.247*, Y=-6.000*
  2: 0x0033 [0x1F] MOVE_ENTITY: Update entity position (mode=1)
  3: 0x0035 [0x1E] EventEntity looks at Ahaadah (ID: 16982261/0x010320F5) and starts talking
  4: 0x003A [0x00] END_REQSTACK()
```

### Event 65535.2

#### Metadata

| Field        | Value    |
|--------------|----------|
| Entrypoint   | 0x003B   |
| Data Size    | 20 bytes |
| Instructions | 6        |

```
      00 01 02 03 04 05 06 07  08 09 0A 0B 0C 0D 0E 0F
      -- -- -- -- -- -- -- --  -- -- -- -- -- -- -- --
0030:                                   32 04 80 1F 00             2....
0040: 05 80 06 80 07 80 1F 01  6F 1E F0 FF FF 7F 00     ........o...... 
```

#### Opcodes

```
  0: 0x003B [0x32] ExtData[1]->MainSpeed = 10* * 0.1
  1: 0x003E [0x1F] MOVE_ENTITY: EventEntity moves to X=-68.014*, Z=105.565*, Y=-5.999*
  2: 0x0046 [0x1F] MOVE_ENTITY: Update entity position (mode=1)
  3: 0x0048 [0x6F] WAIT_FRAME_DELAY: Yield until WaitTime reaches zero
  4: 0x0049 [0x1E] EventEntity looks at LocalPlayer and starts talking
  5: 0x004E [0x00] END_REQSTACK()
```

### Event 65535.3

#### Metadata

| Field        | Value    |
|--------------|----------|
| Entrypoint   | 0x004F   |
| Data Size    | 19 bytes |
| Instructions | 5        |

```
      00 01 02 03 04 05 06 07  08 09 0A 0B 0C 0D 0E 0F
      -- -- -- -- -- -- -- --  -- -- -- -- -- -- -- --
0040:                                               32                 2
0050: 00 80 1F 00 08 80 09 80  03 80 1F 01 1E F6 20 03  .............. .
0060: 01 00                                             ..              
```

#### Opcodes

```
  0: 0x004F [0x32] ExtData[1]->MainSpeed = 13* * 0.1
  1: 0x0052 [0x1F] MOVE_ENTITY: EventEntity moves to X=-67.010*, Z=105.769*, Y=-6.000*
  2: 0x005A [0x1F] MOVE_ENTITY: Update entity position (mode=1)
  3: 0x005C [0x1E] EventEntity looks at Tinga-Matonga (ID: 16982262/0x010320F6) and starts talking
  4: 0x0061 [0x00] END_REQSTACK()
```

### Event 65535.4

#### Metadata

| Field        | Value    |
|--------------|----------|
| Entrypoint   | 0x0062   |
| Data Size    | 15 bytes |
| Instructions | 5        |

```
      00 01 02 03 04 05 06 07  08 09 0A 0B 0C 0D 0E 0F
      -- -- -- -- -- -- -- --  -- -- -- -- -- -- -- --
0060:       32 00 80 1F 00 05  80 06 80 07 80 1F 01 6F    2............o
0070: 00                                                .               
```

#### Opcodes

```
  0: 0x0062 [0x32] ExtData[1]->MainSpeed = 13* * 0.1
  1: 0x0065 [0x1F] MOVE_ENTITY: EventEntity moves to X=-68.014*, Z=105.565*, Y=-5.999*
  2: 0x006D [0x1F] MOVE_ENTITY: Update entity position (mode=1)
  3: 0x006F [0x6F] WAIT_FRAME_DELAY: Yield until WaitTime reaches zero
  4: 0x0070 [0x00] END_REQSTACK()
```

### Event 65535.5

#### Metadata

| Field        | Value    |
|--------------|----------|
| Entrypoint   | 0x0071   |
| Data Size    | 15 bytes |
| Instructions | 3        |

```
      00 01 02 03 04 05 06 07  08 09 0A 0B 0C 0D 0E 0F
      -- -- -- -- -- -- -- --  -- -- -- -- -- -- -- --
0070:    37 0A 80 0B 80 07 80  0C 80 1E F6 20 03 01 00   7.......... ...
```

#### Opcodes

```
  0: 0x0071 [0x37] UPDATE_EVENT_POSITION_AND_DIR: x=28.874*, z=-116.034*, y=-5.999*, direction=256.8°*
  1: 0x007A [0x1E] EventEntity looks at Tinga-Matonga (ID: 16982262/0x010320F6) and starts talking
  2: 0x007F [0x00] END_REQSTACK()
```

### Event 65535.6

#### Metadata

| Field        | Value    |
|--------------|----------|
| Entrypoint   | 0x0080   |
| Data Size    | 16 bytes |
| Instructions | 4        |

```
      00 01 02 03 04 05 06 07  08 09 0A 0B 0C 0D 0E 0F
      -- -- -- -- -- -- -- --  -- -- -- -- -- -- -- --
0080: 1F 00 0D 80 0E 80 07 80  1F 01 1E F6 20 03 01 00  ............ ...
```

#### Opcodes

```
  0: 0x0080 [0x1F] MOVE_ENTITY: EventEntity moves to X=28.453*, Z=-123.192*, Y=-5.999*
  1: 0x0088 [0x1F] MOVE_ENTITY: Update entity position (mode=1)
  2: 0x008A [0x1E] EventEntity looks at Tinga-Matonga (ID: 16982262/0x010320F6) and starts talking
  3: 0x008F [0x00] END_REQSTACK()
```

### Event 65535.7

#### Metadata

| Field        | Value    |
|--------------|----------|
| Entrypoint   | 0x0090   |
| Data Size    | 19 bytes |
| Instructions | 5        |

```
      00 01 02 03 04 05 06 07  08 09 0A 0B 0C 0D 0E 0F
      -- -- -- -- -- -- -- --  -- -- -- -- -- -- -- --
0090: 32 0F 80 1F 00 10 80 11  80 07 80 1F 01 1E F6 20  2.............. 
00A0: 03 01 00                                          ...             
```

#### Opcodes

```
  0: 0x0090 [0x32] ExtData[1]->MainSpeed = 14* * 0.1
  1: 0x0093 [0x1F] MOVE_ENTITY: EventEntity moves to X=28.230*, Z=-125.287*, Y=-5.999*
  2: 0x009B [0x1F] MOVE_ENTITY: Update entity position (mode=1)
  3: 0x009D [0x1E] EventEntity looks at Tinga-Matonga (ID: 16982262/0x010320F6) and starts talking
  4: 0x00A2 [0x00] END_REQSTACK()
```

### Event 65535.8

#### Metadata

| Field        | Value    |
|--------------|----------|
| Entrypoint   | 0x00A3   |
| Data Size    | 19 bytes |
| Instructions | 5        |

```
      00 01 02 03 04 05 06 07  08 09 0A 0B 0C 0D 0E 0F
      -- -- -- -- -- -- -- --  -- -- -- -- -- -- -- --
00A0:          32 12 80 1F 00  13 80 14 80 07 80 1F 01     2............
00B0: 1E F6 20 03 01 00                                 .. ...          
```

#### Opcodes

```
  0: 0x00A3 [0x32] ExtData[1]->MainSpeed = 12* * 0.1
  1: 0x00A6 [0x1F] MOVE_ENTITY: EventEntity moves to X=27.150*, Z=-126.856*, Y=-5.999*
  2: 0x00AE [0x1F] MOVE_ENTITY: Update entity position (mode=1)
  3: 0x00B0 [0x1E] EventEntity looks at Tinga-Matonga (ID: 16982262/0x010320F6) and starts talking
  4: 0x00B5 [0x00] END_REQSTACK()
```

### Event 65535.9

#### Metadata

| Field        | Value    |
|--------------|----------|
| Entrypoint   | 0x00B6   |
| Data Size    | 14 bytes |
| Instructions | 4        |

```
      00 01 02 03 04 05 06 07  08 09 0A 0B 0C 0D 0E 0F
      -- -- -- -- -- -- -- --  -- -- -- -- -- -- -- --
00B0:                   32 15  80 1F 00 16 80 17 80 07        2.........
00C0: 80 1F 01 00                                       ....            
```

#### Opcodes

```
  0: 0x00B6 [0x32] ExtData[1]->MainSpeed = 11* * 0.1
  1: 0x00B9 [0x1F] MOVE_ENTITY: EventEntity moves to X=26.739*, Z=-124.221*, Y=-5.999*
  2: 0x00C1 [0x1F] MOVE_ENTITY: Update entity position (mode=1)
  3: 0x00C3 [0x00] END_REQSTACK()
```

### Event 65535.10

#### Metadata

| Field        | Value    |
|--------------|----------|
| Entrypoint   | 0x00C4   |
| Data Size    | 14 bytes |
| Instructions | 4        |

```
      00 01 02 03 04 05 06 07  08 09 0A 0B 0C 0D 0E 0F
      -- -- -- -- -- -- -- --  -- -- -- -- -- -- -- --
00C0:             32 15 80 1F  00 18 80 19 80 07 80 1F      2...........
00D0: 01 00                                             ..              
```

#### Opcodes

```
  0: 0x00C4 [0x32] ExtData[1]->MainSpeed = 11* * 0.1
  1: 0x00C7 [0x1F] MOVE_ENTITY: EventEntity moves to X=26.837*, Z=-120.307*, Y=-5.999*
  2: 0x00CF [0x1F] MOVE_ENTITY: Update entity position (mode=1)
  3: 0x00D1 [0x00] END_REQSTACK()
```

### Event 65535.11

#### Metadata

| Field        | Value    |
|--------------|----------|
| Entrypoint   | 0x00D2   |
| Data Size    | 13 bytes |
| Instructions | 3        |

```
      00 01 02 03 04 05 06 07  08 09 0A 0B 0C 0D 0E 0F
      -- -- -- -- -- -- -- --  -- -- -- -- -- -- -- --
00D0:       37 1A 80 1B 80 1C  80 1D 80 95 1C 80 00       7............ 
```

#### Opcodes

```
  0: 0x00D2 [0x37] UPDATE_EVENT_POSITION_AND_DIR: x=-26.937*, z=67.952*, y=0.000*, direction=359.2°*
  1: 0x00DB [0x95] SETUP_EVENT_NPC: Prepare NPC for event (Render.Flags3 = 0*)
  2: 0x00DE [0x00] END_REQSTACK()
```

### Event 65535.12

#### Metadata

| Field        | Value    |
|--------------|----------|
| Entrypoint   | 0x00DF   |
| Data Size    | 15 bytes |
| Instructions | 5        |

```
      00 01 02 03 04 05 06 07  08 09 0A 0B 0C 0D 0E 0F
      -- -- -- -- -- -- -- --  -- -- -- -- -- -- -- --
00D0:                                               32                 2
00E0: 15 80 1F 00 1E 80 1F 80  1C 80 1F 01 6F 00        ............o.  
```

#### Opcodes

```
  0: 0x00DF [0x32] ExtData[1]->MainSpeed = 11* * 0.1
  1: 0x00E2 [0x1F] MOVE_ENTITY: EventEntity moves to X=-21.717*, Z=68.452*, Y=0.000*
  2: 0x00EA [0x1F] MOVE_ENTITY: Update entity position (mode=1)
  3: 0x00EC [0x6F] WAIT_FRAME_DELAY: Yield until WaitTime reaches zero
  4: 0x00ED [0x00] END_REQSTACK()
```

### Event 65535.13

#### Metadata

| Field        | Value    |
|--------------|----------|
| Entrypoint   | 0x00EE   |
| Data Size    | 53 bytes |
| Instructions | 9        |

```
      00 01 02 03 04 05 06 07  08 09 0A 0B 0C 0D 0E 0F
      -- -- -- -- -- -- -- --  -- -- -- -- -- -- -- --
00E0:                                            1F 00                ..
00F0: 20 80 21 80 1C 80 1F 01  6F 03 00 00 07 7F 1A 25   .!.....o......%
0100: 01 7B F8 FF FF 7F 66 01  00 F8 FF FF 7F F8 FF FF  .{....f.........
0110: 7F 73 68 61 30 53 F8 FF  FF 7F F8 FF FF 7F 73 68  .sha0S........sh
0120: 61 30 00                                          a0.             
```

#### Opcodes

```
  0: 0x00EE [0x1F] MOVE_ENTITY: EventEntity moves to X=-22.541*, Z=70.930*, Y=0.000*
  1: 0x00F6 [0x1F] MOVE_ENTITY: Update entity position (mode=1)
  2: 0x00F8 [0x6F] WAIT_FRAME_DELAY: Yield until WaitTime reaches zero
  3: 0x00F9 [0x03] ExtData[1]->WorkLocal[0] = Entity->Race
  4: 0x00FE [0x1A] CALL_SUBROUTINE(address=0x0125)
  5: 0x0101 [0x7B] EventEntity stops talking
  6: 0x0106 [0x66] LOAD_EXT_SCHEDULER_MAIN: Load scheduler "sha0" with entities [EventEntity, EventEntity], work=ExtData[1]->WorkLocal[1]
  7: 0x0115 [0x53] WAIT_SCHEDULER_TASK: Wait for scheduler "sha0" with entities [EventEntity, EventEntity]
  8: 0x0122 [0x00] END_REQSTACK()
```

### Event 65535.14

#### Metadata

| Field        | Value     |
|--------------|-----------|
| Entrypoint   | 0x0123    |
| Data Size    | 150 bytes |
| Instructions | 2         |

```
      00 01 02 03 04 05 06 07  08 09 0A 0B 0C 0D 0E 0F
      -- -- -- -- -- -- -- --  -- -- -- -- -- -- -- --
0120:          96 00 03 01 00  00 00 02 01 00 22 80 05     .........."..
0130: 3A 01 08 01 00 23 80 01  3F 01 08 01 00 24 80 14  :....#..?....$..
0140: 01 00 04 80 07 01 00 25  80 1B 03 01 00 00 00 02  .......%........
0150: 01 00 22 80 05 5F 01 08  01 00 23 80 01 64 01 08  ..".._....#..d..
0160: 01 00 24 80 14 01 00 04  80 07 01 00 26 80 1B 03  ..$.........&...
0170: 01 00 00 00 02 01 00 22  80 05 84 01 08 01 00 23  .......".......#
0180: 80 01 89 01 08 01 00 24  80 14 01 00 04 80 07 01  .......$........
0190: 00 27 80 1B 03 01 00 00  00 02 01 00 22 80 05 A9  .'.........."...
01A0: 01 08 01 00 23 80 01 AE  01 08 01 00 24 80 14 01  ....#.......$...
01B0: 00 04 80 07 01 00 28 80  1B                       ......(..       
```

#### Opcodes

```
  0: 0x0123 [0x96] UNSET_EVENT_NPC: Restore NPC after event (removes event NPC status)
  1: 0x0124 [0x00] END_REQSTACK()
```

#### Data or dead code:

```
# Dead code (unreachable instructions):
     0x0125 [0x03] ExtData[1]->WorkLocal[1] = ExtData[1]->WorkLocal[0]
     0x012A [0x02] IF !(ExtData[1]->WorkLocal[1] > 5*) GOTO 0x013A
     0x0132 [0x08] ExtData[1]->WorkLocal[1] -= 1*
     0x0137 [0x01] GOTO 0x013F
     0x013A [0x08] ExtData[1]->WorkLocal[1] -= 2*
     0x013F [0x14] ExtData[1]->WorkLocal[1] *= 10*
     0x0144 [0x07] ExtData[1]->WorkLocal[1] += 9*
     0x0149 [0x1B] RETURN
     0x014A [0x03] ExtData[1]->WorkLocal[1] = ExtData[1]->WorkLocal[0]
     0x014F [0x02] IF !(ExtData[1]->WorkLocal[1] > 5*) GOTO 0x015F
     0x0157 [0x08] ExtData[1]->WorkLocal[1] -= 1*
     0x015C [0x01] GOTO 0x0164
     0x015F [0x08] ExtData[1]->WorkLocal[1] -= 2*
     0x0164 [0x14] ExtData[1]->WorkLocal[1] *= 10*
     0x0169 [0x07] ExtData[1]->WorkLocal[1] += 70*
     0x016E [0x1B] RETURN
     0x016F [0x03] ExtData[1]->WorkLocal[1] = ExtData[1]->WorkLocal[0]
     0x0174 [0x02] IF !(ExtData[1]->WorkLocal[1] > 5*) GOTO 0x0184
     0x017C [0x08] ExtData[1]->WorkLocal[1] -= 1*
     0x0181 [0x01] GOTO 0x0189
     0x0184 [0x08] ExtData[1]->WorkLocal[1] -= 2*
     0x0189 [0x14] ExtData[1]->WorkLocal[1] *= 10*
     0x018E [0x07] ExtData[1]->WorkLocal[1] += 140*
     0x0193 [0x1B] RETURN
     0x0194 [0x03] ExtData[1]->WorkLocal[1] = ExtData[1]->WorkLocal[0]
     0x0199 [0x02] IF !(ExtData[1]->WorkLocal[1] > 5*) GOTO 0x01A9
     0x01A1 [0x08] ExtData[1]->WorkLocal[1] -= 1*
     0x01A6 [0x01] GOTO 0x01AE
     0x01A9 [0x08] ExtData[1]->WorkLocal[1] -= 2*
     0x01AE [0x14] ExtData[1]->WorkLocal[1] *= 10*
     0x01B3 [0x07] ExtData[1]->WorkLocal[1] += 210*
     0x01B8 [0x1B] RETURN
```
