# 16982338 - Hishahma

## Common Data

| Field            | Value                         |
|------------------|-------------------------------|
| Zone             | Aht Urhgan Whitegate (ID: 50) |
| Block Size       | 884 bytes                     |
| Total Events     | 17                            |
| References Count | 38                            |

## List of Events

| Event ID                  | Entrypoint   |   Size |   Instructions |
|---------------------------|--------------|--------|----------------|
| [65535](#event-65535)     | 0x0000       |      1 |              1 |
| [571](#event-571)         | 0x0001       |      1 |              1 |
| [566](#event-566)         | 0x0002       |      1 |              1 |
| [567](#event-567)         | 0x0003       |    149 |             37 |
| [568](#event-568)         | 0x0098       |      1 |              1 |
| [569](#event-569)         | 0x0099       |     29 |              7 |
| [570](#event-570)         | 0x00B6       |      1 |              1 |
| [65535.1](#event-65535-1) | 0x00B7       |     13 |              3 |
| [572](#event-572)         | 0x00C4       |    306 |             82 |
| [577](#event-577)         | 0x01F6       |      1 |              1 |
| [578](#event-578)         | 0x01F7       |      1 |              1 |
| [65535.2](#event-65535-2) | 0x01F8       |     26 |              6 |
| [65535.3](#event-65535-3) | 0x0212       |     28 |              6 |
| [65535.4](#event-65535-4) | 0x022E       |     26 |              6 |
| [799](#event-799)         | 0x0248       |      1 |              1 |
| [868](#event-868)         | 0x0249       |      7 |              2 |
| [878](#event-878)         | 0x0250       |     53 |             13 |

## DAT References (imed_data)

|   Index | Hex Value   |   Dec Value |
|---------|-------------|-------------|
|       0 | 0x001E      |          30 |
|       1 | 0x001D      |          29 |
|       2 | 0x0001      |           1 |
|       3 | 0x1A8D      |        6797 |
|       4 | 0x0000      |           0 |
|       5 | 0x0002      |           2 |
|       6 | 0x1A8F      |        6799 |
|       7 | 0x0003      |           3 |
|       8 | 0x1A91      |        6801 |
|       9 | 0x0004      |           4 |
|      10 | 0x1AF7      |        6903 |
|      11 | 0x0005      |           5 |
|      12 | 0x1AFE      |        6910 |
|      13 | 0x0006      |           6 |
|      14 | 0x1B04      |        6916 |
|      15 | 0x1A94      |        6804 |
|      16 | 0x1A9F      |        6815 |
|      17 | 0x000A      |          10 |
|      18 | 0x1AA8      |        6824 |
|      19 | 0x1AAC      |        6828 |
|      20 | 0x1AAD      |        6829 |
|      21 | 0x1AAE      |        6830 |
|      22 | 0x1AAF      |        6831 |
|      23 | 0x1AB0      |        6832 |
|      24 | 0x000B      |          11 |
|      25 | 0x1AB2      |        6834 |
|      26 | 0x1AB1      |        6833 |
|      27 | 0x1AB4      |        6836 |
|      28 | 0x000D      |          13 |
|      29 | 0x17D8B     |       97675 |
|      30 | 0x0882      |        2178 |
|      31 | 0x1769A     |       95898 |
|      32 | 0x1850      |        6224 |
|      33 | 0x16D86     |       93574 |
|      34 | 0x1C85      |        7301 |
|      35 | 0x1CBA      |        7354 |
|      36 | 0x1CBB      |        7355 |
|      37 | 0x1CBC      |        7356 |

## Events

### Event 65535

#### Metadata

| Field        | Value   |
|--------------|---------|
| Entrypoint   | 0x0000  |
| Data Size    | 1 bytes |
| Instructions | 1       |

```
      00 01 02 03 04 05 06 07  08 09 0A 0B 0C 0D 0E 0F
      -- -- -- -- -- -- -- --  -- -- -- -- -- -- -- --
0000: 00                                                .               
```

#### Opcodes

```
  0: 0x0000 [0x00] END_REQSTACK()
```

### Event 571

#### Metadata

| Field        | Value   |
|--------------|---------|
| Entrypoint   | 0x0001  |
| Data Size    | 1 bytes |
| Instructions | 1       |

```
      00 01 02 03 04 05 06 07  08 09 0A 0B 0C 0D 0E 0F
      -- -- -- -- -- -- -- --  -- -- -- -- -- -- -- --
0000:    00                                              .              
```

#### Opcodes

```
  0: 0x0001 [0x00] END_REQSTACK()
```

### Event 566

#### Metadata

| Field        | Value   |
|--------------|---------|
| Entrypoint   | 0x0002  |
| Data Size    | 1 bytes |
| Instructions | 1       |

```
      00 01 02 03 04 05 06 07  08 09 0A 0B 0C 0D 0E 0F
      -- -- -- -- -- -- -- --  -- -- -- -- -- -- -- --
0000:       00                                            .             
```

#### Opcodes

```
  0: 0x0002 [0x00] END_REQSTACK()
```

### Event 567

#### Metadata

| Field        | Value     |
|--------------|-----------|
| Entrypoint   | 0x0003    |
| Data Size    | 149 bytes |
| Instructions | 37        |

```
      00 01 02 03 04 05 06 07  08 09 0A 0B 0C 0D 0E 0F
      -- -- -- -- -- -- -- --  -- -- -- -- -- -- -- --
0000:          1E F0 FF FF 7F  1C 00 80 66 01 80 F8 FF     ........f....
0010: FF 7F F8 FF FF 7F 74 77  61 30 02 04 10 02 80 80  ......twa0......
0020: 2E 00 1D 03 80 23 03 02  10 04 80 01 92 00 02 04  .....#..........
0030: 10 05 80 80 42 00 1D 06  80 23 03 02 10 04 80 01  ....B....#......
0040: 92 00 02 04 10 07 80 80  56 00 1D 08 80 23 03 02  ........V....#..
0050: 10 04 80 01 92 00 02 04  10 09 80 80 6A 00 1D 0A  ............j...
0060: 80 23 03 02 10 02 80 01  92 00 02 04 10 0B 80 80  .#..............
0070: 7E 00 1D 0C 80 23 03 02  10 02 80 01 92 00 02 04  ~....#..........
0080: 10 0D 80 80 92 00 1D 0E  80 23 03 02 10 02 80 01  .........#......
0090: 92 00 1D 0F 80 23 21 00                           .....#!.        
```

#### Opcodes

```
  0: 0x0003 [0x1E] EventEntity looks at LocalPlayer and starts talking
  1: 0x0008 [0x1C] WAIT(30* ticks)
  2: 0x000B [0x66] LOAD_EXT_SCHEDULER_MAIN: Load scheduler "twa0" with entities [EventEntity, EventEntity], work=29*
  3: 0x001A [0x02] IF !(Work_Zone[4] == 1*) GOTO 0x002E
  4: 0x0022 [0x1D] PRINT_EVENT_MESSAGE(message_id=6797*)
    → "According to my research, there are a number of Lamiae by the viridescent bogs in the area.\u007F1\u0000\u0007"
  5: 0x0025 [0x23] WAIT_FOR_DIALOG_INTERACTION
  6: 0x0026 [0x03] Work_Zone[2] = 0*
  7: 0x002B [0x01] GOTO 0x0092
  8: 0x002E [0x02] IF !(Work_Zone[4] == 2*) GOTO 0x0042
  9: 0x0036 [0x1D] PRINT_EVENT_MESSAGE(message_id=6799*)
    → "According to my research, there are a number of Trolls along the eastern shores in the area.\u007F1\u0000\u0007"
 10: 0x0039 [0x23] WAIT_FOR_DIALOG_INTERACTION
 11: 0x003A [0x03] Work_Zone[2] = 0*
 12: 0x003F [0x01] GOTO 0x0092
 13: 0x0042 [0x02] IF !(Work_Zone[4] == 3*) GOTO 0x0056
 14: 0x004A [0x1D] PRINT_EVENT_MESSAGE(message_id=6801*)
    → "According to my research, there are a number of Mamool Ja near the arch in the southwest of the area.\u007F1\u0000\u0007"
 15: 0x004D [0x23] WAIT_FOR_DIALOG_INTERACTION
 16: 0x004E [0x03] Work_Zone[2] = 0*
 17: 0x0053 [0x01] GOTO 0x0092
 18: 0x0056 [0x02] IF !(Work_Zone[4] == 4*) GOTO 0x006A
 19: 0x005E [0x1D] PRINT_EVENT_MESSAGE(message_id=6903*)
    → "Orobon can be found on Arrapago Reef near Lovers' Rocks. We are counting on you.\u007F1\u0000\u0007"
 20: 0x0061 [0x23] WAIT_FOR_DIALOG_INTERACTION
 21: 0x0062 [0x03] Work_Zone[2] = 1*
 22: 0x0067 [0x01] GOTO 0x0092
 23: 0x006A [0x02] IF !(Work_Zone[4] == 5*) GOTO 0x007E
 24: 0x0072 [0x1D] PRINT_EVENT_MESSAGE(message_id=6910*)
    → "Wamouracampa can be found in Halvung near a pool of magma, surrounded by two halls on each side. We are counting on you.\u007F1\u0000\u0007"
 25: 0x0075 [0x23] WAIT_FOR_DIALOG_INTERACTION
 26: 0x0076 [0x03] Work_Zone[2] = 1*
 27: 0x007B [0x01] GOTO 0x0092
 28: 0x007E [0x02] IF !(Work_Zone[4] == 6*) GOTO 0x0092
 29: 0x0086 [0x1D] PRINT_EVENT_MESSAGE(message_id=6916*)
    → "Puks can be found in Mamook near the waterfall. We are counting on you.\u007F1\u0000\u0007"
 30: 0x0089 [0x23] WAIT_FOR_DIALOG_INTERACTION
 31: 0x008A [0x03] Work_Zone[2] = 1*
 32: 0x008F [0x01] GOTO 0x0092

SUBROUTINE_0092:
 33: 0x0092 [0x1D] PRINT_EVENT_MESSAGE(message_id=6804*)
    → "Our investigations are not merely scholarly--our true purpose is to subdue the enemy. Remember that, and never give up the fight.\u007F1\u0000\u0007"
 34: 0x0095 [0x23] WAIT_FOR_DIALOG_INTERACTION
 35: 0x0096 [0x21] END_EVENT
 36: 0x0097 [0x00] END_REQSTACK()
```

### Event 568

#### Metadata

| Field        | Value   |
|--------------|---------|
| Entrypoint   | 0x0098  |
| Data Size    | 1 bytes |
| Instructions | 1       |

```
      00 01 02 03 04 05 06 07  08 09 0A 0B 0C 0D 0E 0F
      -- -- -- -- -- -- -- --  -- -- -- -- -- -- -- --
0090:                          00                               .       
```

#### Opcodes

```
  0: 0x0098 [0x00] END_REQSTACK()
```

### Event 569

#### Metadata

| Field        | Value    |
|--------------|----------|
| Entrypoint   | 0x0099   |
| Data Size    | 29 bytes |
| Instructions | 7        |

```
      00 01 02 03 04 05 06 07  08 09 0A 0B 0C 0D 0E 0F
      -- -- -- -- -- -- -- --  -- -- -- -- -- -- -- --
0090:                             1E F0 FF FF 7F 1C 00           .......
00A0: 80 66 01 80 F8 FF FF 7F  F8 FF FF 7F 74 77 61 30  .f..........twa0
00B0: 1D 10 80 23 21 00                                 ...#!.          
```

#### Opcodes

```
  0: 0x0099 [0x1E] EventEntity looks at LocalPlayer and starts talking
  1: 0x009E [0x1C] WAIT(30* ticks)
  2: 0x00A1 [0x66] LOAD_EXT_SCHEDULER_MAIN: Load scheduler "twa0" with entities [EventEntity, EventEntity], work=29*
  3: 0x00B0 [0x1D] PRINT_EVENT_MESSAGE(message_id=6815*)
    → "A special force is now being put together based on the information you have provided us. It is not long before we set out to decimate the enemy.\u007F1\u0000\u0007"
  4: 0x00B3 [0x23] WAIT_FOR_DIALOG_INTERACTION
  5: 0x00B4 [0x21] END_EVENT
  6: 0x00B5 [0x00] END_REQSTACK()
```

### Event 570

#### Metadata

| Field        | Value   |
|--------------|---------|
| Entrypoint   | 0x00B6  |
| Data Size    | 1 bytes |
| Instructions | 1       |

```
      00 01 02 03 04 05 06 07  08 09 0A 0B 0C 0D 0E 0F
      -- -- -- -- -- -- -- --  -- -- -- -- -- -- -- --
00B0:                   00                                    .         
```

#### Opcodes

```
  0: 0x00B6 [0x00] END_REQSTACK()
```

### Event 65535.1

#### Metadata

| Field        | Value    |
|--------------|----------|
| Entrypoint   | 0x00B7   |
| Data Size    | 13 bytes |
| Instructions | 3        |

```
      00 01 02 03 04 05 06 07  08 09 0A 0B 0C 0D 0E 0F
      -- -- -- -- -- -- -- --  -- -- -- -- -- -- -- --
00B0:                      6E  42 21 03 01 11 80 99 42         nB!.....B
00C0: 21 03 01 00                                       !...            
```

#### Opcodes

```
  0: 0x00B7 [0x6E] Hishahma (ID: 16982338/0x01032142) uses emote 10*
  1: 0x00BE [0x99] Wait for Hishahma (ID: 16982338/0x01032142) animation to complete
  2: 0x00C3 [0x00] END_REQSTACK()
```

### Event 572

#### Metadata

| Field        | Value     |
|--------------|-----------|
| Entrypoint   | 0x00C4    |
| Data Size    | 306 bytes |
| Instructions | 82        |

```
      00 01 02 03 04 05 06 07  08 09 0A 0B 0C 0D 0E 0F
      -- -- -- -- -- -- -- --  -- -- -- -- -- -- -- --
00C0:             03 01 10 04  80 1E F0 FF FF 7F 1C 00      ............
00D0: 80 66 01 80 F8 FF FF 7F  F8 FF FF 7F 74 77 62 30  .f..........twb0
00E0: 02 03 10 02 80 80 F8 00  03 01 10 02 80 43 00 43  .............C.C
00F0: 01 1D 12 80 23 01 F4 01  02 03 10 05 80 80 6A 01  ....#.........j.
0100: 03 01 10 02 80 43 00 43  01 02 03 10 02 80 80 18  .....C.C........
0110: 01 1D 13 80 23 01 67 01  02 03 10 05 80 80 27 01  ....#.g.......'.
0120: 1D 14 80 23 01 67 01 02  03 10 07 80 80 36 01 1D  ...#.g.......6..
0130: 15 80 23 01 67 01 02 03  10 09 80 80 45 01 1D 16  ..#.g.......E...
0140: 80 23 01 67 01 02 03 10  0B 80 80 54 01 1D 17 80  .#.g.......T....
0150: 23 01 67 01 02 03 10 18  80 80 63 01 1D 19 80 23  #.g.......c....#
0160: 01 67 01 1D 1A 80 23 01  F4 01 02 03 10 07 80 80  .g....#.........
0170: DC 01 03 01 10 02 80 43  00 43 01 02 03 10 02 80  .......C.C......
0180: 80 8A 01 1D 13 80 23 01  D9 01 02 03 10 05 80 80  ......#.........
0190: 99 01 1D 14 80 23 01 D9  01 02 03 10 07 80 80 A8  .....#..........
01A0: 01 1D 15 80 23 01 D9 01  02 03 10 09 80 80 B7 01  ....#...........
01B0: 1D 16 80 23 01 D9 01 02  03 10 0B 80 80 C6 01 1D  ...#............
01C0: 17 80 23 01 D9 01 02 03  10 18 80 80 D5 01 1D 19  ..#.............
01D0: 80 23 01 D9 01 1D 1A 80  23 01 F4 01 02 03 10 09  .#......#.......
01E0: 80 80 F4 01 03 01 10 02  80 43 00 43 01 1D 1B 80  .........C.C....
01F0: 23 01 F4 01 21 00                                 #...!.          
```

#### Opcodes

```
  0: 0x00C4 [0x03] Work_Zone[1] = 0*
  1: 0x00C9 [0x1E] EventEntity looks at LocalPlayer and starts talking
  2: 0x00CE [0x1C] WAIT(30* ticks)
  3: 0x00D1 [0x66] LOAD_EXT_SCHEDULER_MAIN: Load scheduler "twb0" with entities [EventEntity, EventEntity], work=29*
  4: 0x00E0 [0x02] IF !(Work_Zone[3] == 1*) GOTO 0x00F8
  5: 0x00E8 [0x03] Work_Zone[1] = 1*
  6: 0x00ED [0x43] SEND_EVENT_UPDATE: Send pending tag to server (packet 0x005B)
  7: 0x00EF [0x43] SEND_EVENT_UPDATE: Check pending flag (skip if not pending)
  8: 0x00F1 [0x1D] PRINT_EVENT_MESSAGE(message_id=6824*)
    → "We owe our success on the battlefield to you. Please accept this as a token of our appreciation.\u007F1\u0000\u0007"
  9: 0x00F4 [0x23] WAIT_FOR_DIALOG_INTERACTION
 10: 0x00F5 [0x01] GOTO 0x01F4
 11: 0x00F8 [0x02] IF !(Work_Zone[3] == 2*) GOTO 0x016A
 12: 0x0100 [0x03] Work_Zone[1] = 1*
 13: 0x0105 [0x43] SEND_EVENT_UPDATE: Send pending tag to server (packet 0x005B)
 14: 0x0107 [0x43] SEND_EVENT_UPDATE: Check pending flag (skip if not pending)
 15: 0x0109 [0x02] IF !(Work_Zone[3] == 1*) GOTO 0x0118
 16: 0x0111 [0x1D] PRINT_EVENT_MESSAGE(message_id=6828*)
    → "It is natural to make mistakes when you are new, but you must be responsible for your work.\u007F1\u0000\u0007"
 17: 0x0114 [0x23] WAIT_FOR_DIALOG_INTERACTION
 18: 0x0115 [0x01] GOTO 0x0167
 19: 0x0118 [0x02] IF !(Work_Zone[3] == 2*) GOTO 0x0127
 20: 0x0120 [0x1D] PRINT_EVENT_MESSAGE(message_id=6829*)
    → "A mercenary of your rank should be able to faithfully carry out even the most menial of tasks. You must learn to apply yourself more.\u007F1\u0000\u0007"
 21: 0x0123 [0x23] WAIT_FOR_DIALOG_INTERACTION
 22: 0x0124 [0x01] GOTO 0x0167
 23: 0x0127 [0x02] IF !(Work_Zone[3] == 3*) GOTO 0x0136
 24: 0x012F [0x1D] PRINT_EVENT_MESSAGE(message_id=6830*)
    → "You must handle your duties with more care. Inattentiveness breeds mistakes. Remember to concentrate.\u007F1\u0000\u0007"
 25: 0x0132 [0x23] WAIT_FOR_DIALOG_INTERACTION
 26: 0x0133 [0x01] GOTO 0x0167
 27: 0x0136 [0x02] IF !(Work_Zone[3] == 4*) GOTO 0x0145
 28: 0x013E [0x1D] PRINT_EVENT_MESSAGE(message_id=6831*)
    → "I do not expect you to be perfect, but you must properly fulfill your duties if you expect to become a first-class mercenary. You must work harder.\u007F1\u0000\u0007"
 29: 0x0141 [0x23] WAIT_FOR_DIALOG_INTERACTION
 30: 0x0142 [0x01] GOTO 0x0167
 31: 0x0145 [0x02] IF !(Work_Zone[3] == 5*) GOTO 0x0154
 32: 0x014D [0x1D] PRINT_EVENT_MESSAGE(message_id=6832*)
    → "Do not underestimate your duties because of your rank. Sometimes you can learn from the attitude of new recruits.\u007F1\u0000\u0007"
 33: 0x0150 [0x23] WAIT_FOR_DIALOG_INTERACTION
 34: 0x0151 [0x01] GOTO 0x0167
 35: 0x0154 [0x02] IF !(Work_Zone[3] == 11*) GOTO 0x0163
 36: 0x015C [0x1D] PRINT_EVENT_MESSAGE(message_id=6834*)
    → "A small mistake, but a Captain should be beyond such simple error...\u007F1\u0000\u0007"
 37: 0x015F [0x23] WAIT_FOR_DIALOG_INTERACTION
 38: 0x0160 [0x01] GOTO 0x0167
 39: 0x0163 [0x1D] PRINT_EVENT_MESSAGE(message_id=6833*)
    → "I expect more from a \u007F\u0005[man/woman] of your rank, \u000C\u0001[/Private Second Class/Private First Class/Superior Private/Lance Corporal/Corporal/Sergeant/Sergeant Major/Chief Sergeant/Second Lieutenant/First Lieutenant]. Do not disappoint me again.\u007F1\u0000\u0007"
 40: 0x0166 [0x23] WAIT_FOR_DIALOG_INTERACTION

SUBROUTINE_0167:
 41: 0x0167 [0x01] GOTO 0x01F4
 42: 0x016A [0x02] IF !(Work_Zone[3] == 3*) GOTO 0x01DC
 43: 0x0172 [0x03] Work_Zone[1] = 1*
 44: 0x0177 [0x43] SEND_EVENT_UPDATE: Send pending tag to server (packet 0x005B)
 45: 0x0179 [0x43] SEND_EVENT_UPDATE: Check pending flag (skip if not pending)
 46: 0x017B [0x02] IF !(Work_Zone[3] == 1*) GOTO 0x018A
 47: 0x0183 [0x1D] PRINT_EVENT_MESSAGE(message_id=6828*)
    → "It is natural to make mistakes when you are new, but you must be responsible for your work.\u007F1\u0000\u0007"
 48: 0x0186 [0x23] WAIT_FOR_DIALOG_INTERACTION
 49: 0x0187 [0x01] GOTO 0x01D9
 50: 0x018A [0x02] IF !(Work_Zone[3] == 2*) GOTO 0x0199
 51: 0x0192 [0x1D] PRINT_EVENT_MESSAGE(message_id=6829*)
    → "A mercenary of your rank should be able to faithfully carry out even the most menial of tasks. You must learn to apply yourself more.\u007F1\u0000\u0007"
 52: 0x0195 [0x23] WAIT_FOR_DIALOG_INTERACTION
 53: 0x0196 [0x01] GOTO 0x01D9
 54: 0x0199 [0x02] IF !(Work_Zone[3] == 3*) GOTO 0x01A8
 55: 0x01A1 [0x1D] PRINT_EVENT_MESSAGE(message_id=6830*)
    → "You must handle your duties with more care. Inattentiveness breeds mistakes. Remember to concentrate.\u007F1\u0000\u0007"
 56: 0x01A4 [0x23] WAIT_FOR_DIALOG_INTERACTION
 57: 0x01A5 [0x01] GOTO 0x01D9
 58: 0x01A8 [0x02] IF !(Work_Zone[3] == 4*) GOTO 0x01B7
 59: 0x01B0 [0x1D] PRINT_EVENT_MESSAGE(message_id=6831*)
    → "I do not expect you to be perfect, but you must properly fulfill your duties if you expect to become a first-class mercenary. You must work harder.\u007F1\u0000\u0007"
 60: 0x01B3 [0x23] WAIT_FOR_DIALOG_INTERACTION
 61: 0x01B4 [0x01] GOTO 0x01D9
 62: 0x01B7 [0x02] IF !(Work_Zone[3] == 5*) GOTO 0x01C6
 63: 0x01BF [0x1D] PRINT_EVENT_MESSAGE(message_id=6832*)
    → "Do not underestimate your duties because of your rank. Sometimes you can learn from the attitude of new recruits.\u007F1\u0000\u0007"
 64: 0x01C2 [0x23] WAIT_FOR_DIALOG_INTERACTION
 65: 0x01C3 [0x01] GOTO 0x01D9
 66: 0x01C6 [0x02] IF !(Work_Zone[3] == 11*) GOTO 0x01D5
 67: 0x01CE [0x1D] PRINT_EVENT_MESSAGE(message_id=6834*)
    → "A small mistake, but a Captain should be beyond such simple error...\u007F1\u0000\u0007"
 68: 0x01D1 [0x23] WAIT_FOR_DIALOG_INTERACTION
 69: 0x01D2 [0x01] GOTO 0x01D9
 70: 0x01D5 [0x1D] PRINT_EVENT_MESSAGE(message_id=6833*)
    → "I expect more from a \u007F\u0005[man/woman] of your rank, \u000C\u0001[/Private Second Class/Private First Class/Superior Private/Lance Corporal/Corporal/Sergeant/Sergeant Major/Chief Sergeant/Second Lieutenant/First Lieutenant]. Do not disappoint me again.\u007F1\u0000\u0007"
 71: 0x01D8 [0x23] WAIT_FOR_DIALOG_INTERACTION

SUBROUTINE_01D9:
 72: 0x01D9 [0x01] GOTO 0x01F4
 73: 0x01DC [0x02] IF !(Work_Zone[3] == 4*) GOTO 0x01F4
 74: 0x01E4 [0x03] Work_Zone[1] = 1*
 75: 0x01E9 [0x43] SEND_EVENT_UPDATE: Send pending tag to server (packet 0x005B)
 76: 0x01EB [0x43] SEND_EVENT_UPDATE: Check pending flag (skip if not pending)
 77: 0x01ED [0x1D] PRINT_EVENT_MESSAGE(message_id=6836*)
    → "Our unit was decimated because of the false report you gave us! How do you expect to grow as a mercenary when you cannot even fulfill a simple task?\u007F1\u0000\u0007"
 78: 0x01F0 [0x23] WAIT_FOR_DIALOG_INTERACTION
 79: 0x01F1 [0x01] GOTO 0x01F4

SUBROUTINE_01F4:
 80: 0x01F4 [0x21] END_EVENT
 81: 0x01F5 [0x00] END_REQSTACK()
```

### Event 577

#### Metadata

| Field        | Value   |
|--------------|---------|
| Entrypoint   | 0x01F6  |
| Data Size    | 1 bytes |
| Instructions | 1       |

```
      00 01 02 03 04 05 06 07  08 09 0A 0B 0C 0D 0E 0F
      -- -- -- -- -- -- -- --  -- -- -- -- -- -- -- --
01F0:                   00                                    .         
```

#### Opcodes

```
  0: 0x01F6 [0x00] END_REQSTACK()
```

### Event 578

#### Metadata

| Field        | Value   |
|--------------|---------|
| Entrypoint   | 0x01F7  |
| Data Size    | 1 bytes |
| Instructions | 1       |

```
      00 01 02 03 04 05 06 07  08 09 0A 0B 0C 0D 0E 0F
      -- -- -- -- -- -- -- --  -- -- -- -- -- -- -- --
01F0:                      00                                  .        
```

#### Opcodes

```
  0: 0x01F7 [0x00] END_REQSTACK()
```

### Event 65535.2

#### Metadata

| Field        | Value    |
|--------------|----------|
| Entrypoint   | 0x01F8   |
| Data Size    | 26 bytes |
| Instructions | 6        |

```
      00 01 02 03 04 05 06 07  08 09 0A 0B 0C 0D 0E 0F
      -- -- -- -- -- -- -- --  -- -- -- -- -- -- -- --
01F0:                          32 1C 80 1F 00 1D 80 1E          2.......
0200: 80 04 80 1F 01 1C 00 80  4A F0 FF FF 7F 42 21 03  ........J....B!.
0210: 01 00                                             ..              
```

#### Opcodes

```
  0: 0x01F8 [0x32] ExtData[1]->MainSpeed = 13* * 0.1
  1: 0x01FB [0x1F] MOVE_ENTITY: EventEntity moves to X=97.675*, Z=2.178*, Y=0.000*
  2: 0x0203 [0x1F] MOVE_ENTITY: Update entity position (mode=1)
  3: 0x0205 [0x1C] WAIT(30* ticks)
  4: 0x0208 [0x4A] LocalPlayer looks at Hishahma (ID: 16982338/0x01032142)
  5: 0x0211 [0x00] END_REQSTACK()
```

### Event 65535.3

#### Metadata

| Field        | Value    |
|--------------|----------|
| Entrypoint   | 0x0212   |
| Data Size    | 28 bytes |
| Instructions | 6        |

```
      00 01 02 03 04 05 06 07  08 09 0A 0B 0C 0D 0E 0F
      -- -- -- -- -- -- -- --  -- -- -- -- -- -- -- --
0210:       32 1C 80 1F 00 1F  80 20 80 04 80 1F 01 1E    2...... ......
0220: F0 FF FF 7F 4A F0 FF FF  7F 42 21 03 01 00        ....J....B!...  
```

#### Opcodes

```
  0: 0x0212 [0x32] ExtData[1]->MainSpeed = 13* * 0.1
  1: 0x0215 [0x1F] MOVE_ENTITY: EventEntity moves to X=95.898*, Z=6.224*, Y=0.000*
  2: 0x021D [0x1F] MOVE_ENTITY: Update entity position (mode=1)
  3: 0x021F [0x1E] EventEntity looks at LocalPlayer and starts talking
  4: 0x0224 [0x4A] LocalPlayer looks at Hishahma (ID: 16982338/0x01032142)
  5: 0x022D [0x00] END_REQSTACK()
```

### Event 65535.4

#### Metadata

| Field        | Value    |
|--------------|----------|
| Entrypoint   | 0x022E   |
| Data Size    | 26 bytes |
| Instructions | 6        |

```
      00 01 02 03 04 05 06 07  08 09 0A 0B 0C 0D 0E 0F
      -- -- -- -- -- -- -- --  -- -- -- -- -- -- -- --
0220:                                            32 1C                2.
0230: 80 1F 00 21 80 22 80 04  80 1F 01 1C 00 80 4A F0  ...!."........J.
0240: FF FF 7F 42 21 03 01 00                           ...B!...        
```

#### Opcodes

```
  0: 0x022E [0x32] ExtData[1]->MainSpeed = 13* * 0.1
  1: 0x0231 [0x1F] MOVE_ENTITY: EventEntity moves to X=93.574*, Z=7.301*, Y=0.000*
  2: 0x0239 [0x1F] MOVE_ENTITY: Update entity position (mode=1)
  3: 0x023B [0x1C] WAIT(30* ticks)
  4: 0x023E [0x4A] LocalPlayer looks at Hishahma (ID: 16982338/0x01032142)
  5: 0x0247 [0x00] END_REQSTACK()
```

### Event 799

#### Metadata

| Field        | Value   |
|--------------|---------|
| Entrypoint   | 0x0248  |
| Data Size    | 1 bytes |
| Instructions | 1       |

```
      00 01 02 03 04 05 06 07  08 09 0A 0B 0C 0D 0E 0F
      -- -- -- -- -- -- -- --  -- -- -- -- -- -- -- --
0240:                          00                               .       
```

#### Opcodes

```
  0: 0x0248 [0x00] END_REQSTACK()
```

### Event 868

#### Metadata

| Field        | Value   |
|--------------|---------|
| Entrypoint   | 0x0249  |
| Data Size    | 7 bytes |
| Instructions | 2       |

```
      00 01 02 03 04 05 06 07  08 09 0A 0B 0C 0D 0E 0F
      -- -- -- -- -- -- -- --  -- -- -- -- -- -- -- --
0240:                             92 01 F8 FF FF 7F 00           .......
```

#### Opcodes

```
  0: 0x0249 [0x92] EventEntity->Render.Flags3 ^= 0x01
  1: 0x024F [0x00] END_REQSTACK()
```

### Event 878

#### Metadata

| Field        | Value    |
|--------------|----------|
| Entrypoint   | 0x0250   |
| Data Size    | 53 bytes |
| Instructions | 13       |

```
      00 01 02 03 04 05 06 07  08 09 0A 0B 0C 0D 0E 0F
      -- -- -- -- -- -- -- --  -- -- -- -- -- -- -- --
0250: 42 1E F0 FF FF 7F 1C 00  80 1D 23 80 23 66 01 80  B.........#.#f..
0260: F8 FF FF 7F F8 FF FF 7F  74 77 61 30 1D 24 80 23  ........twa0.$.#
0270: 66 01 80 F8 FF FF 7F F8  FF FF 7F 74 77 61 31 1D  f..........twa1.
0280: 25 80 23 21 00                                    %.#!.           
```

#### Opcodes

```
  0: 0x0250 [0x42] SET_CLI_EVENT_CANCEL_DATA()
  1: 0x0251 [0x1E] EventEntity looks at LocalPlayer and starts talking
  2: 0x0256 [0x1C] WAIT(30* ticks)
  3: 0x0259 [0x1D] PRINT_EVENT_MESSAGE(message_id=7354*)
    → "The other day, I was informed by one of our citizens that a member of my unit was breaking ranks during our daily training exercises.\u007F1\u0000\u0007"
  4: 0x025C [0x23] WAIT_FOR_DIALOG_INTERACTION
  5: 0x025D [0x66] LOAD_EXT_SCHEDULER_MAIN: Load scheduler "twa0" with entities [EventEntity, EventEntity], work=29*
  6: 0x026C [0x1D] PRINT_EVENT_MESSAGE(message_id=7355*)
    → "Until I was shown that strange moving picture, I had believed the private was one of my best cadets...\u007F1\u0000\u0007"
  7: 0x026F [0x23] WAIT_FOR_DIALOG_INTERACTION
  8: 0x0270 [0x66] LOAD_EXT_SCHEDULER_MAIN: Load scheduler "twa1" with entities [EventEntity, EventEntity], work=29*
  9: 0x027F [0x1D] PRINT_EVENT_MESSAGE(message_id=7356*)
    → "Now I know to think twice before letting my unit train alone. If it will help regain the trust of the citizens of Al Zahbi, then I will join my men in their exercises.\u007F1\u0000\u0007"
 10: 0x0282 [0x23] WAIT_FOR_DIALOG_INTERACTION
 11: 0x0283 [0x21] END_EVENT
 12: 0x0284 [0x00] END_REQSTACK()
```
