# 16982301

## Common Data

| Field            | Value                         |
|------------------|-------------------------------|
| Zone             | Aht Urhgan Whitegate (ID: 50) |
| Block Size       | 18252 bytes                   |
| Total Events     | 17                            |
| References Count | 231                           |

## List of Events

| Event ID              | Entrypoint   |   Size |   Instructions |
|-----------------------|--------------|--------|----------------|
| [65535](#event-65535) | 0x0000       |      1 |              1 |
| [705](#event-705)     | 0x0001       |   1131 |            150 |
| [707](#event-707)     | 0x046C       |    780 |            107 |
| [710](#event-710)     | 0x0778       |   1125 |            151 |
| [712](#event-712)     | 0x0BDD       |    867 |            115 |
| [714](#event-714)     | 0x0F40       |    778 |            114 |
| [716](#event-716)     | 0x124A       |    622 |             86 |
| [722](#event-722)     | 0x14B8       |   2551 |            310 |
| [730](#event-730)     | 0x1EAF       |   2478 |            334 |
| [736](#event-736)     | 0x285D       |    941 |            130 |
| [738](#event-738)     | 0x2C0A       |   1716 |            241 |
| [744](#event-744)     | 0x32BE       |    481 |             77 |
| [746](#event-746)     | 0x349F       |   1276 |            183 |
| [752](#event-752)     | 0x399B       |    704 |            106 |
| [760](#event-760)     | 0x3C5B       |    667 |             90 |
| [762](#event-762)     | 0x3EF6       |    445 |             69 |
| [763](#event-763)     | 0x40B3       |    680 |             66 |

## DAT References (imed_data)

|   Index | Hex Value   |   Dec Value |
|---------|-------------|-------------|
|       0 | 0x0013      |          19 |
|       1 | 0x0102      |         258 |
|       2 | 0x0000      |           0 |
|       3 | 0x0005      |           5 |
|       4 | 0x003C      |          60 |
|       5 | 0x2227      |        8743 |
|       6 | 0x2228      |        8744 |
|       7 | 0x0001      |           1 |
|       8 | 0x2229      |        8745 |
|       9 | 0x001E      |          30 |
|      10 | 0x00DC      |         220 |
|      11 | 0x000F      |          15 |
|      12 | 0x00A7      |         167 |
|      13 | 0x0002      |           2 |
|      14 | 0x0345      |         837 |
|      15 | 0x00E8      |         232 |
|      16 | 0x006F      |         111 |
|      17 | 0x0096      |         150 |
|      18 | 0x0112      |         274 |
|      19 | 0x228A      |        8842 |
|      20 | 0x228B      |        8843 |
|      21 | 0x228C      |        8844 |
|      22 | 0x228D      |        8845 |
|      23 | 0x228E      |        8846 |
|      24 | 0x228F      |        8847 |
|      25 | 0x2290      |        8848 |
|      26 | 0x2291      |        8849 |
|      27 | 0x2292      |        8850 |
|      28 | 0x2293      |        8851 |
|      29 | 0x2294      |        8852 |
|      30 | 0x2295      |        8853 |
|      31 | 0x2296      |        8854 |
|      32 | 0x2297      |        8855 |
|      33 | 0x2298      |        8856 |
|      34 | 0x2299      |        8857 |
|      35 | 0x0032      |          50 |
|      36 | 0x0110      |         272 |
|      37 | 0x03E7      |         999 |
|      38 | 0x00B2      |         178 |
|      39 | 0x00C8      |         200 |
|      40 | 0x00DE      |         222 |
|      41 | 0x22A0      |        8864 |
|      42 | 0x22A1      |        8865 |
|      43 | 0x22A2      |        8866 |
|      44 | 0x22A3      |        8867 |
|      45 | 0x22A4      |        8868 |
|      46 | 0x22A5      |        8869 |
|      47 | 0x22A6      |        8870 |
|      48 | 0x4535      |       17717 |
|      49 | 0x22A7      |        8871 |
|      50 | 0x22A8      |        8872 |
|      51 | 0x00C9      |         201 |
|      52 | 0x0078      |         120 |
|      53 | 0x22A9      |        8873 |
|      54 | 0x22AA      |        8874 |
|      55 | 0x014D      |         333 |
|      56 | 0x00B4      |         180 |
|      57 | 0x22AB      |        8875 |
|      58 | 0x22AC      |        8876 |
|      59 | 0x22AD      |        8877 |
|      60 | 0x002D      |          45 |
|      61 | 0x22AE      |        8878 |
|      62 | 0x22AF      |        8879 |
|      63 | 0x22B0      |        8880 |
|      64 | 0x22B1      |        8881 |
|      65 | 0x22B2      |        8882 |
|      66 | 0x22B3      |        8883 |
|      67 | 0x22B4      |        8884 |
|      68 | 0x22B5      |        8885 |
|      69 | 0x22B6      |        8886 |
|      70 | 0x22B7      |        8887 |
|      71 | 0x022B      |         555 |
|      72 | 0x22BA      |        8890 |
|      73 | 0x22BB      |        8891 |
|      74 | 0x22BC      |        8892 |
|      75 | 0x22BD      |        8893 |
|      76 | 0x22BE      |        8894 |
|      77 | 0x22BF      |        8895 |
|      78 | 0x005A      |          90 |
|      79 | 0x00A3      |         163 |
|      80 | 0x22C1      |        8897 |
|      81 | 0x0015      |          21 |
|      82 | 0x22C2      |        8898 |
|      83 | 0x0006      |           6 |
|      84 | 0x22C3      |        8899 |
|      85 | 0x001D      |          29 |
|      86 | 0x22C4      |        8900 |
|      87 | 0x0014      |          20 |
|      88 | 0x22C5      |        8901 |
|      89 | 0x22C6      |        8902 |
|      90 | 0x0016      |          22 |
|      91 | 0x22C7      |        8903 |
|      92 | 0x22C8      |        8904 |
|      93 | 0x0027      |          39 |
|      94 | 0x22C9      |        8905 |
|      95 | 0x22CA      |        8906 |
|      96 | 0x22CB      |        8907 |
|      97 | 0x22CC      |        8908 |
|      98 | 0x22CD      |        8909 |
|      99 | 0x3D44      |       15684 |
|     100 | 0x22CE      |        8910 |
|     101 | 0x22CF      |        8911 |
|     102 | 0x22D0      |        8912 |
|     103 | 0x22D1      |        8913 |
|     104 | 0x0009      |           9 |
|     105 | 0x22D2      |        8914 |
|     106 | 0x0069      |         105 |
|     107 | 0x022F      |         559 |
|     108 | 0x00B9      |         185 |
|     109 | 0x2279      |        8825 |
|     110 | 0x22D8      |        8920 |
|     111 | 0x22D9      |        8921 |
|     112 | 0x22DA      |        8922 |
|     113 | 0x22DB      |        8923 |
|     114 | 0x22DC      |        8924 |
|     115 | 0x22DD      |        8925 |
|     116 | 0x22DE      |        8926 |
|     117 | 0x22DF      |        8927 |
|     118 | 0x22E0      |        8928 |
|     119 | 0x22E1      |        8929 |
|     120 | 0x22E2      |        8930 |
|     121 | 0x22E3      |        8931 |
|     122 | 0x22E4      |        8932 |
|     123 | 0x22E5      |        8933 |
|     124 | 0x22E6      |        8934 |
|     125 | 0x22E7      |        8935 |
|     126 | 0x22E8      |        8936 |
|     127 | 0x22E9      |        8937 |
|     128 | 0x22EA      |        8938 |
|     129 | 0x22EB      |        8939 |
|     130 | 0x22EC      |        8940 |
|     131 | 0x22ED      |        8941 |
|     132 | 0x22EE      |        8942 |
|     133 | 0x22EF      |        8943 |
|     134 | 0x22F0      |        8944 |
|     135 | 0x22F1      |        8945 |
|     136 | 0x034C      |         844 |
|     137 | 0x22F2      |        8946 |
|     138 | 0x22F3      |        8947 |
|     139 | 0x22F4      |        8948 |
|     140 | 0x010D      |         269 |
|     141 | 0x22F7      |        8951 |
|     142 | 0x22F8      |        8952 |
|     143 | 0x22F9      |        8953 |
|     144 | 0x22FA      |        8954 |
|     145 | 0x0020      |          32 |
|     146 | 0x22FB      |        8955 |
|     147 | 0x22FC      |        8956 |
|     148 | 0x0021      |          33 |
|     149 | 0x22FD      |        8957 |
|     150 | 0x0007      |           7 |
|     151 | 0x22FE      |        8958 |
|     152 | 0x22FF      |        8959 |
|     153 | 0x2300      |        8960 |
|     154 | 0x2301      |        8961 |
|     155 | 0x2302      |        8962 |
|     156 | 0x2303      |        8963 |
|     157 | 0x2304      |        8964 |
|     158 | 0x2305      |        8965 |
|     159 | 0x2306      |        8966 |
|     160 | 0x0018      |          24 |
|     161 | 0x2307      |        8967 |
|     162 | 0x2308      |        8968 |
|     163 | 0x000A      |          10 |
|     164 | 0x3A50      |       14928 |
|     165 | 0x3CF0      |       15600 |
|     166 | 0x38B9      |       14521 |
|     167 | 0x2309      |        8969 |
|     168 | 0x230A      |        8970 |
|     169 | 0x230B      |        8971 |
|     170 | 0x230C      |        8972 |
|     171 | 0x0003      |           3 |
|     172 | 0x230D      |        8973 |
|     173 | 0x230E      |        8974 |
|     174 | 0x230F      |        8975 |
|     175 | 0x2310      |        8976 |
|     176 | 0x0024      |          36 |
|     177 | 0x2311      |        8977 |
|     178 | 0x0004      |           4 |
|     179 | 0x0008      |           8 |
|     180 | 0x000C      |          12 |
|     181 | 0x231C      |        8988 |
|     182 | 0x001A      |          26 |
|     183 | 0x231D      |        8989 |
|     184 | 0x231E      |        8990 |
|     185 | 0x231F      |        8991 |
|     186 | 0x2320      |        8992 |
|     187 | 0x2321      |        8993 |
|     188 | 0x2322      |        8994 |
|     189 | 0x2323      |        8995 |
|     190 | 0x2324      |        8996 |
|     191 | 0x2325      |        8997 |
|     192 | 0x2326      |        8998 |
|     193 | 0x0342      |         834 |
|     194 | 0x2327      |        8999 |
|     195 | 0x2328      |        9000 |
|     196 | 0x2329      |        9001 |
|     197 | 0x232A      |        9002 |
|     198 | 0x232B      |        9003 |
|     199 | 0x232C      |        9004 |
|     200 | 0x232D      |        9005 |
|     201 | 0x232E      |        9006 |
|     202 | 0x232F      |        9007 |
|     203 | 0x2330      |        9008 |
|     204 | 0x2331      |        9009 |
|     205 | 0x000B      |          11 |
|     206 | 0x0022      |          34 |
|     207 | 0x2332      |        9010 |
|     208 | 0x2333      |        9011 |
|     209 | 0x2334      |        9012 |
|     210 | 0x2335      |        9013 |
|     211 | 0x000D      |          13 |
|     212 | 0x2336      |        9014 |
|     213 | 0x2337      |        9015 |
|     214 | 0x2338      |        9016 |
|     215 | 0x2339      |        9017 |
|     216 | 0x233A      |        9018 |
|     217 | 0x233B      |        9019 |
|     218 | 0x233C      |        9020 |
|     219 | 0x233D      |        9021 |
|     220 | 0x233E      |        9022 |
|     221 | 0x233F      |        9023 |
|     222 | 0x0103      |         259 |
|     223 | 0x2341      |        9025 |
|     224 | 0x2342      |        9026 |
|     225 | 0x091B      |        2331 |
|     226 | 0x2343      |        9027 |
|     227 | 0x2345      |        9029 |
|     228 | 0x2346      |        9030 |
|     229 | 0x00CA      |         202 |
|     230 | 0x00D7      |         215 |

## Events

### Event 65535

#### Metadata

| Field        | Value   |
|--------------|---------|
| Entrypoint   | 0x0000  |
| Data Size    | 1 bytes |
| Instructions | 1       |

```
      00 01 02 03 04 05 06 07  08 09 0A 0B 0C 0D 0E 0F
      -- -- -- -- -- -- -- --  -- -- -- -- -- -- -- --
0000: 00                                                .               
```

#### Opcodes

```
  0: 0x0000 [0x00] END_REQSTACK()
```

### Event 705

#### Metadata

| Field        | Value      |
|--------------|------------|
| Entrypoint   | 0x0001     |
| Data Size    | 1131 bytes |
| Instructions | 149        |

```
      00 01 02 03 04 05 06 07  08 09 0A 0B 0C 0D 0E 0F
      -- -- -- -- -- -- -- --  -- -- -- -- -- -- -- --
0000:    42 1A 2D 41 46 01 38  00 80 92 01 19 21 03 01   B.-AF.8.....!..
0010: 94 01 F0 FF FF 7F 94 01  19 21 03 01 29 10 F0 FF  .........!..)...
0020: FF 7F 24 80 F0 FF FF 7F  80 19 21 03 01 4A F0 FF  ..$.......!..J..
0030: FF 7F 19 21 03 01 4A 19  21 03 01 F0 FF FF 7F 45  ...!..J.!......E
0040: 01 80 F0 FF FF 7F F0 FF  FF 7F 61 6F 30 30 02 80  ..........ao00..
0050: 1A 0C 41 81 00 19 21 03  01 66 03 80 19 21 03 01  ..A...!..f...!..
0060: 19 21 03 01 61 6B 61 30  1C 04 80 7B 19 21 03 01  .!..aka0...{.!..
0070: 2B 19 21 03 01 05 80 23  24 06 80 02 80 02 80 25  +.!....#$......%
0080: 02 00 10 07 80 00 CD 00  81 01 19 21 03 01 66 03  ...........!..f.
0090: 80 19 21 03 01 19 21 03  01 61 6B 61 31 53 19 21  ..!...!..aka1S.!
00A0: 03 01 19 21 03 01 61 6B  61 31 66 02 80 19 21 03  ...!..aka1f...!.
00B0: 01 19 21 03 01 64 69 73  30 2B 19 21 03 01 08 80  ..!..dis0+.!....
00C0: 23 1A 2D 41 1C 09 80 01  4E 04 01 CD 00 52 01 80  #.-A....N....R..
00D0: F0 FF FF 7F F0 FF FF 7F  61 6F 30 30 45 01 80 F0  ........ao00E...
00E0: FF FF 7F F0 FF FF 7F 61  63 30 30 02 80 1C 09 80  .......ac00.....
00F0: 45 01 80 F0 FF FF 7F F0  FF FF 7F 6B 69 72 61 02  E..........kira.
0100: 80 9F 0A 80 19 21 03 01  19 21 03 01 73 74 72 30  .....!...!..str0
0110: 02 80 1C 09 80 5D 02 80  04 80 6A 02 80 04 80 0B  .....]....j.....
0120: 80 1A 2D 41 1C 09 80 52  01 80 F0 FF FF 7F F0 FF  ..-A...R........
0130: FF 7F 61 63 30 30 45 01  80 F0 FF FF 7F F0 FF FF  ..ac00E.........
0140: 7F 30 62 6C 66 02 80 34  0C 80 77 0D 80 07 80 1C  .0blf..4..w.....
0150: 09 80 4E 01 1E 20 03 01  AB 09 79 00 F0 FF FF 7F  ..N.. ....y.....
0160: F0 FF FF 7F 29 10 1A 21  03 01 04 92 01 1A 21 03  ....)..!......!.
0170: 01 94 01 F0 FF FF 7F 94  01 1A 21 03 01 1C 0B 80  ..........!.....
0180: 29 10 F0 FF FF 7F 25 29  10 1A 21 03 01 09 80 F0  ).....%)..!.....
0190: FF FF 7F 80 1A 21 03 01  1C 0B 80 29 10 F0 FF FF  .....!.....)....
01A0: 7F 18 5B 0E 80 1A 21 03  01 1A 21 03 01 73 74 61  ..[...!...!..sta
01B0: 6C 9F 0F 80 1A 21 03 01  1A 21 03 01 73 74 72 30  l....!...!..str0
01C0: 02 80 6A 10 80 11 80 0B  80 5C 00 11 80 5C 01 11  ..j......\...\..
01D0: 80 9A 1C 09 80 45 01 80  F0 FF FF 7F F0 FF FF 7F  .....E..........
01E0: 72 77 30 30 02 80 55 01  80 F0 FF FF 7F F0 FF FF  rw00..U.........
01F0: 7F 72 77 30 30 45 12 80  F0 FF FF 7F F0 FF FF 7F  .rw00E..........
0200: 62 30 30 30 02 80 2B 1A  21 03 01 13 80 23 2B 1A  b000..+.!....#+.
0210: 21 03 01 14 80 23 52 12  80 F0 FF FF 7F F0 FF FF  !....#R.........
0220: 7F 62 30 30 30 45 12 80  F0 FF FF 7F F0 FF FF 7F  .b000E..........
0230: 62 30 30 31 02 80 24 15  80 02 80 02 80 25 02 00  b001..$......%..
0240: 10 02 80 00 CC 02 52 12  80 F0 FF FF 7F F0 FF FF  ......R.........
0250: 7F 62 30 30 31 45 12 80  F0 FF FF 7F F0 FF FF 7F  .b001E..........
0260: 62 30 30 32 02 80 1C 04  80 2B 1A 21 03 01 16 80  b002.....+.!....
0270: 23 52 12 80 F0 FF FF 7F  F0 FF FF 7F 62 30 30 32  #R..........b002
0280: 45 12 80 F0 FF FF 7F F0  FF FF 7F 62 30 30 33 02  E..........b003.
0290: 80 2B 1A 21 03 01 17 80  23 52 12 80 F0 FF FF 7F  .+.!....#R......
02A0: F0 FF FF 7F 62 30 30 33  45 12 80 F0 FF FF 7F F0  ....b003E.......
02B0: FF FF 7F 62 30 30 34 02  80 2B 1A 21 03 01 18 80  ...b004..+.!....
02C0: 23 2B 1A 21 03 01 19 80  23 01 07 03 02 00 10 07  #+.!....#.......
02D0: 80 00 07 03 52 12 80 F0  FF FF 7F F0 FF FF 7F 62  ....R..........b
02E0: 30 30 31 45 12 80 F0 FF  FF 7F F0 FF FF 7F 62 30  001E..........b0
02F0: 30 32 02 80 2B 1A 21 03  01 1A 80 23 2B 1A 21 03  02..+.!....#+.!.
0300: 01 1B 80 23 01 07 03 52  12 80 F0 FF FF 7F F0 FF  ...#...R........
0310: FF 7F 62 30 30 32 52 12  80 F0 FF FF 7F F0 FF FF  ..b002R.........
0320: 7F 62 30 30 34 45 12 80  F0 FF FF 7F F0 FF FF 7F  .b004E..........
0330: 62 30 30 35 02 80 2B 1A  21 03 01 1C 80 23 2B 1A  b005..+.!....#+.
0340: 21 03 01 1D 80 23 52 12  80 F0 FF FF 7F F0 FF FF  !....#R.........
0350: 7F 62 30 30 35 45 12 80  F0 FF FF 7F F0 FF FF 7F  .b005E..........
0360: 62 30 30 36 02 80 2B 1A  21 03 01 1E 80 23 2B 1A  b006..+.!....#+.
0370: 21 03 01 1F 80 23 52 12  80 F0 FF FF 7F F0 FF FF  !....#R.........
0380: 7F 62 30 30 36 45 12 80  F0 FF FF 7F F0 FF FF 7F  .b006E..........
0390: 62 30 30 37 02 80 2B 1A  21 03 01 20 80 23 2B 1A  b007..+.!.. .#+.
03A0: 21 03 01 21 80 23 52 12  80 F0 FF FF 7F F0 FF FF  !..!.#R.........
03B0: 7F 62 30 30 37 45 12 80  F0 FF FF 7F F0 FF FF 7F  .b007E..........
03C0: 62 30 30 38 02 80 2B 1A  21 03 01 22 80 23 1A 2D  b008..+.!..".#.-
03D0: 41 1C 09 80 52 12 80 F0  FF FF 7F F0 FF FF 7F 62  A...R..........b
03E0: 30 30 38 45 12 80 F0 FF  FF 7F F0 FF FF 7F 30 62  008E..........0b
03F0: 6C 66 02 80 9F 0F 80 1A  21 03 01 1A 21 03 01 6B  lf......!...!..k
0400: 69 6C 6C 02 80 29 10 1A  21 03 01 05 35 23 80 78  ill..)..!...5#.x
0410: 1C 07 80 45 24 80 F0 FF  FF 7F F0 FF FF 7F 6E 6F  ...E$.........no
0420: 73 65 02 80 55 24 80 F0  FF FF 7F F0 FF FF 7F 6E  se..U$.........n
0430: 6F 73 65 6A 25 80 11 80  0B 80 AB 0A 2D F0 FF FF  osej%.......-...
0440: 7F F0 FF FF 7F 31 70 62  31 03 01 10 07 80 5C 00  .....1pb1.....\.
0450: 26 80 5C 01 26 80 9A 46  00 45 27 80 F0 FF FF 7F  &.\.&..F.E'.....
0460: F0 FF FF 7F 66 64 69 32  02 80 21 00              ....fdi2..!.    
```

#### Opcodes

```
  0: 0x0001 [0x42] SET_CLI_EVENT_CANCEL_DATA()
  1: 0x0002 [0x1A] CALL_SUBROUTINE(address=0x412D)
  2: 0x0005 [0x46] CAMERA_CONTROL: Disable user control
  3: 0x0007 [0x38] SET_CLIENT_EVENT_MODE(mode=19*)
  4: 0x000A [0x92] Waoud (ID: 16982297/0x01032119)->Render.Flags3 ^= 0x01
  5: 0x0010 [0x94] LocalPlayer->Render.Flags3 ^= 0x01
  6: 0x0016 [0x94] Waoud (ID: 16982297/0x01032119)->Render.Flags3 ^= 0x01
  7: 0x001C [0x29] REQ_SET_WAIT(priority=0x10, entity_id=LocalPlayer, tag_num=0x24)
  8: 0x0023 [0x80] LOAD_WAIT(entity=LocalPlayer)
  9: 0x0028 [0x80] LOAD_WAIT(entity=Waoud (ID: 16982297/0x01032119))
 10: 0x002D [0x4A] LocalPlayer looks at Waoud (ID: 16982297/0x01032119)
 11: 0x0036 [0x4A] Waoud (ID: 16982297/0x01032119) looks at LocalPlayer
 12: 0x003F [0x45] LOAD_SCHEDULED_TASK: Load scheduler "ao00" with entities [LocalPlayer, LocalPlayer], work=[258*, 0*]
 13: 0x0050 [0x1A] CALL_SUBROUTINE(address=0x410C)
 14: 0x0053 [0x81] SET_ENTITY_BLINKING(blink_flag=0x00, entity=Waoud (ID: 16982297/0x01032119))
 15: 0x0059 [0x66] LOAD_EXT_SCHEDULER_MAIN: Load scheduler "aka0" with entities [Waoud (ID: 16982297/0x01032119), Waoud (ID: 16982297/0x01032119)], work=5*
 16: 0x0068 [0x1C] WAIT(60* ticks)
 17: 0x006B [0x7B] Waoud (ID: 16982297/0x01032119) stops talking
 18: 0x0070 [0x2B] Waoud (ID: 16982297/0x01032119) [8743*]:
    → "Do you wish to gaze on the tapestry that fate has woven for you?\u0007I require less coin from adventurers for my divinations, considering their...uncertain employment.\u007F1\u0000\u0007"
 19: 0x0077 [0x23] WAIT_FOR_DIALOG_INTERACTION
 20: 0x0078 [0x24] CREATE_DIALOG(message_id=8744*, default_option=0*, option_flags=0*)
    → "Gaze on fate's tapestry?\u0007\u000BGaze away.\u0007I weave my own tapestry.\u007F1\u0000\u0007"
 21: 0x007F [0x25] WAIT_DIALOG_SELECT()
 22: 0x0080 [0x02] IF !(Work_Zone[0] == 1*) GOTO 0x00CD
 23: 0x0088 [0x81] SET_ENTITY_BLINKING(blink_flag=0x01, entity=Waoud (ID: 16982297/0x01032119))
 24: 0x008E [0x66] LOAD_EXT_SCHEDULER_MAIN: Load scheduler "aka1" with entities [Waoud (ID: 16982297/0x01032119), Waoud (ID: 16982297/0x01032119)], work=5*
 25: 0x009D [0x53] WAIT_SCHEDULER_TASK: Wait for scheduler "aka1" with entities [Waoud (ID: 16982297/0x01032119), Waoud (ID: 16982297/0x01032119)]
 26: 0x00AA [0x66] LOAD_EXT_SCHEDULER_MAIN: Load scheduler "dis0" with entities [Waoud (ID: 16982297/0x01032119), Waoud (ID: 16982297/0x01032119)], work=0*
 27: 0x00B9 [0x2B] Waoud (ID: 16982297/0x01032119) [8745*]:
    → "A pity. Perhaps another time.\u007F1\u0000\u0007"
 28: 0x00C0 [0x23] WAIT_FOR_DIALOG_INTERACTION
 29: 0x00C1 [0x1A] CALL_SUBROUTINE(address=0x412D)
 30: 0x00C4 [0x1C] WAIT(30* ticks)
 31: 0x00C7 [0x01] GOTO 0x044E

SUBROUTINE_00CD:
 32: 0x00CD [0x52] END_LOAD_SCHEDULER: End scheduler "ao00" with entities [LocalPlayer, LocalPlayer], work=258*
 33: 0x00DC [0x45] LOAD_SCHEDULED_TASK: Load scheduler "ac00" with entities [LocalPlayer, LocalPlayer], work=[258*, 0*]
 34: 0x00ED [0x1C] WAIT(30* ticks)
 35: 0x00F0 [0x45] LOAD_SCHEDULED_TASK: Load scheduler "kira" with entities [LocalPlayer, LocalPlayer], work=[258*, 0*]
 36: 0x0101 [0x9F] LOAD_SCHEDULED_TASK_ALT: Load scheduler "str0" with entities [Waoud (ID: 16982297/0x01032119), Waoud (ID: 16982297/0x01032119)], work=[220*, 0*]
 37: 0x0112 [0x1C] WAIT(30* ticks)
 38: 0x0115 [0x5D] SET_MUSIC_VOLUME(volume=0*, fade_time=60*)
 39: 0x011A [0x6A] CHANGE_SOUND_VOLUME: Set (Effects/System/Zone/Master)* volume to 0*, fade_time=60*
 40: 0x0121 [0x1A] CALL_SUBROUTINE(address=0x412D)
 41: 0x0124 [0x1C] WAIT(30* ticks)
 42: 0x0127 [0x52] END_LOAD_SCHEDULER: End scheduler "ac00" with entities [LocalPlayer, LocalPlayer], work=258*
 43: 0x0136 [0x45] LOAD_SCHEDULED_TASK: Load scheduler "0blf" with entities [LocalPlayer, LocalPlayer], work=[258*, 0*]
 44: 0x0147 [0x34] LOAD_UNLOAD_ZONE(zone_id=167*)
 45: 0x014A [0x77] SET_EVENT_TIME_WEATHER(hour=2*, weather=1*)
 46: 0x014F [0x1C] WAIT(30* ticks)
 47: 0x0152 [0x4E] SET_ENTITY_HIDE_FLAG: Hide Unknown NPC (ID: 16982046/0x0103201E)
 48: 0x0158 [0xAB] EventEntity->UnknownFlag = 1 // Enable unknown flag
 49: 0x015A [0x79] LocalPlayer looks at LocalPlayer (Basic look)
 50: 0x0164 [0x29] REQ_SET_WAIT(priority=0x10, entity_id=Raubahn (ID: 16982298/0x0103211A), tag_num=0x04)
 51: 0x016B [0x92] Raubahn (ID: 16982298/0x0103211A)->Render.Flags3 ^= 0x01
 52: 0x0171 [0x94] LocalPlayer->Render.Flags3 ^= 0x01
 53: 0x0177 [0x94] Raubahn (ID: 16982298/0x0103211A)->Render.Flags3 ^= 0x01
 54: 0x017D [0x1C] WAIT(15* ticks)
 55: 0x0180 [0x29] REQ_SET_WAIT(priority=0x10, entity_id=LocalPlayer, tag_num=0x25)
 56: 0x0187 [0x29] REQ_SET_WAIT(priority=0x10, entity_id=Raubahn (ID: 16982298/0x0103211A), tag_num=0x09)
 57: 0x018E [0x80] LOAD_WAIT(entity=LocalPlayer)
 58: 0x0193 [0x80] LOAD_WAIT(entity=Raubahn (ID: 16982298/0x0103211A))
 59: 0x0198 [0x1C] WAIT(15* ticks)
 60: 0x019B [0x29] REQ_SET_WAIT(priority=0x10, entity_id=LocalPlayer, tag_num=0x18)
 61: 0x01A2 [0x5B] LOAD_EXT_SCHEDULER: Load scheduler "stal" with entities [Raubahn (ID: 16982298/0x0103211A), Raubahn (ID: 16982298/0x0103211A)], work=837*
 62: 0x01B1 [0x9F] LOAD_SCHEDULED_TASK_ALT: Load scheduler "str0" with entities [Raubahn (ID: 16982298/0x0103211A), Raubahn (ID: 16982298/0x0103211A)], work=[232*, 0*]
 63: 0x01C2 [0x6A] CHANGE_SOUND_VOLUME: Set (Effects/System/Zone/Master)* volume to 111*, fade_time=150*
 64: 0x01C9 [0x5C] MUSIC_CONTROL: Set Idle (Day) music to song 150*
 65: 0x01CD [0x5C] MUSIC_CONTROL: Set Idle (Night) music to song 150*
 66: 0x01D1 [0x9A] WAIT_MUSIC_SERVER()
 67: 0x01D2 [0x1C] WAIT(30* ticks)
 68: 0x01D5 [0x45] LOAD_SCHEDULED_TASK: Load scheduler "rw00" with entities [LocalPlayer, LocalPlayer], work=[258*, 0*]
 69: 0x01E6 [0x55] WAIT_LOAD_SCHEDULER: Wait for scheduler "rw00" with entities [LocalPlayer, LocalPlayer], work=258*
 70: 0x01F5 [0x45] LOAD_SCHEDULED_TASK: Load scheduler "b000" with entities [LocalPlayer, LocalPlayer], work=[274*, 0*]
 71: 0x0206 [0x2B] Raubahn (ID: 16982298/0x0103211A) [8842*]:
    → "Well, if it isn't the \u00072potential.\u00073\u0007No longer an empty vessel, I see.\u007F1\u0000\u0007"
 72: 0x020D [0x23] WAIT_FOR_DIALOG_INTERACTION
 73: 0x020E [0x2B] Raubahn (ID: 16982298/0x0103211A) [8843*]:
    → "And yet you maintain your mortal form in spite of the power you wield.\u0007Have you accepted the fact that the path of mortality is forever closed to you now?\u007F1\u0000\u0007"
 74: 0x0215 [0x23] WAIT_FOR_DIALOG_INTERACTION
 75: 0x0216 [0x52] END_LOAD_SCHEDULER: End scheduler "b000" with entities [LocalPlayer, LocalPlayer], work=274*
 76: 0x0225 [0x45] LOAD_SCHEDULED_TASK: Load scheduler "b001" with entities [LocalPlayer, LocalPlayer], work=[274*, 0*]
 77: 0x0236 [0x24] CREATE_DIALOG(message_id=8844*, default_option=0*, option_flags=0*)
    → "Have you accepted the fact?\u0007\u000B...\u0007I have.\u007F1\u0000\u0007"
 78: 0x023D [0x25] WAIT_DIALOG_SELECT()
 79: 0x023E [0x02] IF !(Work_Zone[0] == 0*) GOTO 0x02CC
 80: 0x0246 [0x52] END_LOAD_SCHEDULER: End scheduler "b001" with entities [LocalPlayer, LocalPlayer], work=274*
 81: 0x0255 [0x45] LOAD_SCHEDULED_TASK: Load scheduler "b002" with entities [LocalPlayer, LocalPlayer], work=[274*, 0*]
 82: 0x0266 [0x1C] WAIT(60* ticks)
 83: 0x0269 [0x2B] Raubahn (ID: 16982298/0x0103211A) [8845*]:
    → "What's this?\u0007Has the simple power of speech abandoned you already?\u007F1\u0000\u0007"
 84: 0x0270 [0x23] WAIT_FOR_DIALOG_INTERACTION
 85: 0x0271 [0x52] END_LOAD_SCHEDULER: End scheduler "b002" with entities [LocalPlayer, LocalPlayer], work=274*
 86: 0x0280 [0x45] LOAD_SCHEDULED_TASK: Load scheduler "b003" with entities [LocalPlayer, LocalPlayer], work=[274*, 0*]
 87: 0x0291 [0x2B] Raubahn (ID: 16982298/0x0103211A) [8846*]:
    → "It is not beyond imagining.\u0007You have devoured the essence of many foes--blue magic has unexpected effects on the practitioner.\u007F1\u0000\u0007"
 88: 0x0298 [0x23] WAIT_FOR_DIALOG_INTERACTION
 89: 0x0299 [0x52] END_LOAD_SCHEDULER: End scheduler "b003" with entities [LocalPlayer, LocalPlayer], work=274*
 90: 0x02A8 [0x45] LOAD_SCHEDULED_TASK: Load scheduler "b004" with entities [LocalPlayer, LocalPlayer], work=[274*, 0*]
 91: 0x02B9 [0x2B] Raubahn (ID: 16982298/0x0103211A) [8847*]:
    → "You cannot undo the flow of time.\u0007Be at ease. Let go of your regrets.\u0007I will show you the way.\u007F1\u0000\u0007"
 92: 0x02C0 [0x23] WAIT_FOR_DIALOG_INTERACTION
 93: 0x02C1 [0x2B] Raubahn (ID: 16982298/0x0103211A) [8848*]:
    → "\u0008, there is no turning back.\u0007You must travel to the five staging points in search of even greater power.\u007F1\u0000\u0007"
 94: 0x02C8 [0x23] WAIT_FOR_DIALOG_INTERACTION
 95: 0x02C9 [0x01] GOTO 0x0307
 96: 0x02CC [0x02] IF !(Work_Zone[0] == 1*) GOTO 0x0307
 97: 0x02D4 [0x52] END_LOAD_SCHEDULER: End scheduler "b001" with entities [LocalPlayer, LocalPlayer], work=274*
 98: 0x02E3 [0x45] LOAD_SCHEDULED_TASK: Load scheduler "b002" with entities [LocalPlayer, LocalPlayer], work=[274*, 0*]
 99: 0x02F4 [0x2B] Raubahn (ID: 16982298/0x0103211A) [8849*]:
    → "I am glad that you understand your fate.\u007F1\u0000\u0007"
100: 0x02FB [0x23] WAIT_FOR_DIALOG_INTERACTION
101: 0x02FC [0x2B] Raubahn (ID: 16982298/0x0103211A) [8850*]:
    → "It is time for you to travel to the five staging points in search of even greater power.\u007F1\u0000\u0007"
102: 0x0303 [0x23] WAIT_FOR_DIALOG_INTERACTION
103: 0x0304 [0x01] GOTO 0x0307

SUBROUTINE_0307:
104: 0x0307 [0x52] END_LOAD_SCHEDULER: End scheduler "b002" with entities [LocalPlayer, LocalPlayer], work=274*
105: 0x0316 [0x52] END_LOAD_SCHEDULER: End scheduler "b004" with entities [LocalPlayer, LocalPlayer], work=274*
106: 0x0325 [0x45] LOAD_SCHEDULED_TASK: Load scheduler "b005" with entities [LocalPlayer, LocalPlayer], work=[274*, 0*]
107: 0x0336 [0x2B] Raubahn (ID: 16982298/0x0103211A) [8851*]:
    → "Azouph. Dvucca. Mamool Ja. Halvung. Ilrusi.\u007F1\u0000\u0007"
108: 0x033D [0x23] WAIT_FOR_DIALOG_INTERACTION
109: 0x033E [0x2B] Raubahn (ID: 16982298/0x0103211A) [8852*]:
    → "There you will find your fellows--those who strive to be more than mortal while fending off the madness that erodes their souls.\u007F1\u0000\u0007"
110: 0x0345 [0x23] WAIT_FOR_DIALOG_INTERACTION
111: 0x0346 [0x52] END_LOAD_SCHEDULER: End scheduler "b005" with entities [LocalPlayer, LocalPlayer], work=274*
112: 0x0355 [0x45] LOAD_SCHEDULED_TASK: Load scheduler "b006" with entities [LocalPlayer, LocalPlayer], work=[274*, 0*]
113: 0x0366 [0x2B] Raubahn (ID: 16982298/0x0103211A) [8853*]:
    → "Some are vessels that merely mimic the shape of men and women, overflowing with savage energies...\u007F1\u0000\u0007"
114: 0x036D [0x23] WAIT_FOR_DIALOG_INTERACTION
115: 0x036E [0x2B] Raubahn (ID: 16982298/0x0103211A) [8854*]:
    → "...while others have achieved a balance between the nature of mortal and beast...\u007F1\u0000\u0007"
116: 0x0375 [0x23] WAIT_FOR_DIALOG_INTERACTION
117: 0x0376 [0x52] END_LOAD_SCHEDULER: End scheduler "b006" with entities [LocalPlayer, LocalPlayer], work=274*
118: 0x0385 [0x45] LOAD_SCHEDULED_TASK: Load scheduler "b007" with entities [LocalPlayer, LocalPlayer], work=[274*, 0*]
119: 0x0396 [0x2B] Raubahn (ID: 16982298/0x0103211A) [8855*]:
    → "They have long walked the road you now stand upon.\u007F1\u0000\u0007"
120: 0x039D [0x23] WAIT_FOR_DIALOG_INTERACTION
121: 0x039E [0x2B] Raubahn (ID: 16982298/0x0103211A) [8856*]:
    → "Burn their lessons into your heart, and forge your path with renewed vigor.\u007F1\u0000\u0007"
122: 0x03A5 [0x23] WAIT_FOR_DIALOG_INTERACTION
123: 0x03A6 [0x52] END_LOAD_SCHEDULER: End scheduler "b007" with entities [LocalPlayer, LocalPlayer], work=274*
124: 0x03B5 [0x45] LOAD_SCHEDULED_TASK: Load scheduler "b008" with entities [LocalPlayer, LocalPlayer], work=[274*, 0*]
125: 0x03C6 [0x2B] Raubahn (ID: 16982298/0x0103211A) [8857*]:
    → "For no other paths remain open to you...\u007F1\u0000\u0007"
126: 0x03CD [0x23] WAIT_FOR_DIALOG_INTERACTION
127: 0x03CE [0x1A] CALL_SUBROUTINE(address=0x412D)
128: 0x03D1 [0x1C] WAIT(30* ticks)
129: 0x03D4 [0x52] END_LOAD_SCHEDULER: End scheduler "b008" with entities [LocalPlayer, LocalPlayer], work=274*
130: 0x03E3 [0x45] LOAD_SCHEDULED_TASK: Load scheduler "0blf" with entities [LocalPlayer, LocalPlayer], work=[274*, 0*]
131: 0x03F4 [0x9F] LOAD_SCHEDULED_TASK_ALT: Load scheduler "kill" with entities [Raubahn (ID: 16982298/0x0103211A), Raubahn (ID: 16982298/0x0103211A)], work=[232*, 0*]
132: 0x0405 [0x29] REQ_SET_WAIT(priority=0x10, entity_id=Raubahn (ID: 16982298/0x0103211A), tag_num=0x05)
133: 0x040C [0x35] LOAD_ZONE_NO_CLOSE(zone_id=50*)
134: 0x040F [0x78] ENABLE_GAME_TIMER_RESET_WEATHER()
135: 0x0410 [0x1C] WAIT(1* ticks)
136: 0x0413 [0x45] LOAD_SCHEDULED_TASK: Load scheduler "nose" with entities [LocalPlayer, LocalPlayer], work=[272*, 0*]
137: 0x0424 [0x55] WAIT_LOAD_SCHEDULER: Wait for scheduler "nose" with entities [LocalPlayer, LocalPlayer], work=272*
138: 0x0433 [0x6A] CHANGE_SOUND_VOLUME: Set (Effects/System/Zone/Master)* volume to 999*, fade_time=150*
139: 0x043A [0xAB] EventEntity->UnknownFlag = 0 // Disable unknown flag
140: 0x043C [0x2D] CREATE_ZONE_SCHEDULER_TASK: Create scheduler "1pb1" with entities [LocalPlayer, LocalPlayer]
141: 0x0449 [0x03] Work_Zone[1] = 1*

SUBROUTINE_044E:
142: 0x044E [0x5C] MUSIC_CONTROL: Set Idle (Day) music to song 178*
143: 0x0452 [0x5C] MUSIC_CONTROL: Set Idle (Night) music to song 178*
144: 0x0456 [0x9A] WAIT_MUSIC_SERVER()
145: 0x0457 [0x46] CAMERA_CONTROL: Restore default settings
146: 0x0459 [0x45] LOAD_SCHEDULED_TASK: Load scheduler "fdi2" with entities [LocalPlayer, LocalPlayer], work=[200*, 0*]
147: 0x046A [0x21] END_EVENT
148: 0x046B [0x00] END_REQSTACK()
```

#### Data or dead code:

```
# Dead code (unreachable instructions):
     0x00CA [0x01] GOTO 0x00CD
```

### Event 707

#### Metadata

| Field        | Value     |
|--------------|-----------|
| Entrypoint   | 0x046C    |
| Data Size    | 780 bytes |
| Instructions | 107       |

```
      00 01 02 03 04 05 06 07  08 09 0A 0B 0C 0D 0E 0F
      -- -- -- -- -- -- -- --  -- -- -- -- -- -- -- --
0460:                                      42 1A 2D 41              B.-A
0470: 46 01 38 00 80 92 01 19  21 03 01 94 01 F0 FF FF  F.8.....!.......
0480: 7F 94 01 19 21 03 01 29  10 F0 FF FF 7F 24 80 F0  ....!..).....$..
0490: FF FF 7F 80 19 21 03 01  4A F0 FF FF 7F 19 21 03  .....!..J.....!.
04A0: 01 4A 19 21 03 01 F0 FF  FF 7F 45 01 80 F0 FF FF  .J.!......E.....
04B0: 7F F0 FF FF 7F 61 6F 30  30 02 80 1A 0C 41 81 00  .....ao00....A..
04C0: 19 21 03 01 66 03 80 19  21 03 01 19 21 03 01 61  .!..f...!...!..a
04D0: 6B 61 30 1C 04 80 7B 19  21 03 01 2B 19 21 03 01  ka0...{.!..+.!..
04E0: 05 80 23 52 01 80 F0 FF  FF 7F F0 FF FF 7F 61 6F  ..#R..........ao
04F0: 30 30 45 01 80 F0 FF FF  7F F0 FF FF 7F 61 63 30  00E..........ac0
0500: 30 02 80 1C 09 80 45 01  80 F0 FF FF 7F F0 FF FF  0.....E.........
0510: 7F 6B 69 72 61 02 80 9F  0A 80 19 21 03 01 19 21  .kira......!...!
0520: 03 01 73 74 72 30 02 80  1C 09 80 5D 02 80 04 80  ..str0.....]....
0530: 6A 02 80 04 80 0B 80 1A  2D 41 1C 09 80 52 01 80  j.......-A...R..
0540: F0 FF FF 7F F0 FF FF 7F  61 63 30 30 45 01 80 F0  ........ac00E...
0550: FF FF 7F F0 FF FF 7F 30  62 6C 66 02 80 34 0C 80  .......0blf..4..
0560: 77 0D 80 07 80 1C 09 80  4E 01 1E 20 03 01 AB 09  w.......N.. ....
0570: 79 00 F0 FF FF 7F F0 FF  FF 7F 29 10 1A 21 03 01  y.........)..!..
0580: 04 92 01 1A 21 03 01 94  01 F0 FF FF 7F 94 01 1A  ....!...........
0590: 21 03 01 1C 0B 80 29 10  F0 FF FF 7F 25 29 10 1A  !.....).....%)..
05A0: 21 03 01 09 80 F0 FF FF  7F 80 1A 21 03 01 1C 0B  !..........!....
05B0: 80 29 10 F0 FF FF 7F 18  5B 0E 80 1A 21 03 01 1A  .)......[...!...
05C0: 21 03 01 73 74 61 6C 9F  0F 80 1A 21 03 01 1A 21  !..stal....!...!
05D0: 03 01 73 74 72 30 02 80  6A 28 80 11 80 0B 80 5C  ..str0..j(.....\
05E0: 00 11 80 5C 01 11 80 9A  1C 09 80 45 12 80 F0 FF  ...\.......E....
05F0: FF 7F F0 FF FF 7F 62 30  30 39 02 80 1C 04 80 2B  ......b009.....+
0600: 1A 21 03 01 29 80 23 2B  1A 21 03 01 2A 80 23 52  .!..).#+.!..*.#R
0610: 12 80 F0 FF FF 7F F0 FF  FF 7F 62 30 30 39 45 12  ..........b009E.
0620: 80 F0 FF FF 7F F0 FF FF  7F 62 30 31 30 02 80 2B  .........b010..+
0630: 1A 21 03 01 2B 80 23 2B  1A 21 03 01 2C 80 23 52  .!..+.#+.!..,.#R
0640: 12 80 F0 FF FF 7F F0 FF  FF 7F 62 30 31 30 45 12  ..........b010E.
0650: 80 F0 FF FF 7F F0 FF FF  7F 62 30 31 31 02 80 2B  .........b011..+
0660: 1A 21 03 01 2D 80 23 2B  1A 21 03 01 2E 80 23 52  .!..-.#+.!....#R
0670: 12 80 F0 FF FF 7F F0 FF  FF 7F 62 30 31 31 45 12  ..........b011E.
0680: 80 F0 FF FF 7F F0 FF FF  7F 62 30 31 32 02 80 2B  .........b012..+
0690: 1A 21 03 01 2F 80 23 03  02 10 30 80 2B 1A 21 03  .!../.#...0.+.!.
06A0: 01 31 80 23 52 12 80 F0  FF FF 7F F0 FF FF 7F 62  .1.#R..........b
06B0: 30 31 32 45 12 80 F0 FF  FF 7F F0 FF FF 7F 62 30  012E..........b0
06C0: 31 33 02 80 2B 1A 21 03  01 32 80 1C 09 80 1A 2D  13..+.!..2.....-
06D0: 41 1C 09 80 52 12 80 F0  FF FF 7F F0 FF FF 7F 62  A...R..........b
06E0: 30 31 33 45 12 80 F0 FF  FF 7F F0 FF FF 7F 30 62  013E..........0b
06F0: 6C 66 02 80 9F 0F 80 1A  21 03 01 1A 21 03 01 6B  lf......!...!..k
0700: 69 6C 6C 02 80 29 10 1A  21 03 01 05 35 23 80 78  ill..)..!...5#.x
0710: 1C 07 80 45 24 80 F0 FF  FF 7F F0 FF FF 7F 6E 6F  ...E$.........no
0720: 73 65 02 80 55 24 80 F0  FF FF 7F F0 FF FF 7F 6E  se..U$.........n
0730: 6F 73 65 6A 25 80 11 80  0B 80 AB 0A 2D F0 FF FF  osej%.......-...
0740: 7F F0 FF FF 7F 31 70 62  31 5C 00 26 80 5C 01 26  .....1pb1\.&.\.&
0750: 80 9A 46 00 45 33 80 F8  FF FF 7F F8 FF FF 7F 71  ..F.E3.........q
0760: 73 74 63 02 80 45 27 80  F0 FF FF 7F F0 FF FF 7F  stc..E'.........
0770: 66 64 69 32 02 80 21 00                           fdi2..!.        
```

#### Opcodes

```
  0: 0x046C [0x42] SET_CLI_EVENT_CANCEL_DATA()
  1: 0x046D [0x1A] CALL_SUBROUTINE(address=0x412D)
  2: 0x0470 [0x46] CAMERA_CONTROL: Disable user control
  3: 0x0472 [0x38] SET_CLIENT_EVENT_MODE(mode=19*)
  4: 0x0475 [0x92] Waoud (ID: 16982297/0x01032119)->Render.Flags3 ^= 0x01
  5: 0x047B [0x94] LocalPlayer->Render.Flags3 ^= 0x01
  6: 0x0481 [0x94] Waoud (ID: 16982297/0x01032119)->Render.Flags3 ^= 0x01
  7: 0x0487 [0x29] REQ_SET_WAIT(priority=0x10, entity_id=LocalPlayer, tag_num=0x24)
  8: 0x048E [0x80] LOAD_WAIT(entity=LocalPlayer)
  9: 0x0493 [0x80] LOAD_WAIT(entity=Waoud (ID: 16982297/0x01032119))
 10: 0x0498 [0x4A] LocalPlayer looks at Waoud (ID: 16982297/0x01032119)
 11: 0x04A1 [0x4A] Waoud (ID: 16982297/0x01032119) looks at LocalPlayer
 12: 0x04AA [0x45] LOAD_SCHEDULED_TASK: Load scheduler "ao00" with entities [LocalPlayer, LocalPlayer], work=[258*, 0*]
 13: 0x04BB [0x1A] CALL_SUBROUTINE(address=0x410C)
 14: 0x04BE [0x81] SET_ENTITY_BLINKING(blink_flag=0x00, entity=Waoud (ID: 16982297/0x01032119))
 15: 0x04C4 [0x66] LOAD_EXT_SCHEDULER_MAIN: Load scheduler "aka0" with entities [Waoud (ID: 16982297/0x01032119), Waoud (ID: 16982297/0x01032119)], work=5*
 16: 0x04D3 [0x1C] WAIT(60* ticks)
 17: 0x04D6 [0x7B] Waoud (ID: 16982297/0x01032119) stops talking
 18: 0x04DB [0x2B] Waoud (ID: 16982297/0x01032119) [8743*]:
    → "Do you wish to gaze on the tapestry that fate has woven for you?\u0007I require less coin from adventurers for my divinations, considering their...uncertain employment.\u007F1\u0000\u0007"
 19: 0x04E2 [0x23] WAIT_FOR_DIALOG_INTERACTION
 20: 0x04E3 [0x52] END_LOAD_SCHEDULER: End scheduler "ao00" with entities [LocalPlayer, LocalPlayer], work=258*
 21: 0x04F2 [0x45] LOAD_SCHEDULED_TASK: Load scheduler "ac00" with entities [LocalPlayer, LocalPlayer], work=[258*, 0*]
 22: 0x0503 [0x1C] WAIT(30* ticks)
 23: 0x0506 [0x45] LOAD_SCHEDULED_TASK: Load scheduler "kira" with entities [LocalPlayer, LocalPlayer], work=[258*, 0*]
 24: 0x0517 [0x9F] LOAD_SCHEDULED_TASK_ALT: Load scheduler "str0" with entities [Waoud (ID: 16982297/0x01032119), Waoud (ID: 16982297/0x01032119)], work=[220*, 0*]
 25: 0x0528 [0x1C] WAIT(30* ticks)
 26: 0x052B [0x5D] SET_MUSIC_VOLUME(volume=0*, fade_time=60*)
 27: 0x0530 [0x6A] CHANGE_SOUND_VOLUME: Set (Effects/System/Zone/Master)* volume to 0*, fade_time=60*
 28: 0x0537 [0x1A] CALL_SUBROUTINE(address=0x412D)
 29: 0x053A [0x1C] WAIT(30* ticks)
 30: 0x053D [0x52] END_LOAD_SCHEDULER: End scheduler "ac00" with entities [LocalPlayer, LocalPlayer], work=258*
 31: 0x054C [0x45] LOAD_SCHEDULED_TASK: Load scheduler "0blf" with entities [LocalPlayer, LocalPlayer], work=[258*, 0*]
 32: 0x055D [0x34] LOAD_UNLOAD_ZONE(zone_id=167*)
 33: 0x0560 [0x77] SET_EVENT_TIME_WEATHER(hour=2*, weather=1*)
 34: 0x0565 [0x1C] WAIT(30* ticks)
 35: 0x0568 [0x4E] SET_ENTITY_HIDE_FLAG: Hide Unknown NPC (ID: 16982046/0x0103201E)
 36: 0x056E [0xAB] EventEntity->UnknownFlag = 1 // Enable unknown flag
 37: 0x0570 [0x79] LocalPlayer looks at LocalPlayer (Basic look)
 38: 0x057A [0x29] REQ_SET_WAIT(priority=0x10, entity_id=Raubahn (ID: 16982298/0x0103211A), tag_num=0x04)
 39: 0x0581 [0x92] Raubahn (ID: 16982298/0x0103211A)->Render.Flags3 ^= 0x01
 40: 0x0587 [0x94] LocalPlayer->Render.Flags3 ^= 0x01
 41: 0x058D [0x94] Raubahn (ID: 16982298/0x0103211A)->Render.Flags3 ^= 0x01
 42: 0x0593 [0x1C] WAIT(15* ticks)
 43: 0x0596 [0x29] REQ_SET_WAIT(priority=0x10, entity_id=LocalPlayer, tag_num=0x25)
 44: 0x059D [0x29] REQ_SET_WAIT(priority=0x10, entity_id=Raubahn (ID: 16982298/0x0103211A), tag_num=0x09)
 45: 0x05A4 [0x80] LOAD_WAIT(entity=LocalPlayer)
 46: 0x05A9 [0x80] LOAD_WAIT(entity=Raubahn (ID: 16982298/0x0103211A))
 47: 0x05AE [0x1C] WAIT(15* ticks)
 48: 0x05B1 [0x29] REQ_SET_WAIT(priority=0x10, entity_id=LocalPlayer, tag_num=0x18)
 49: 0x05B8 [0x5B] LOAD_EXT_SCHEDULER: Load scheduler "stal" with entities [Raubahn (ID: 16982298/0x0103211A), Raubahn (ID: 16982298/0x0103211A)], work=837*
 50: 0x05C7 [0x9F] LOAD_SCHEDULED_TASK_ALT: Load scheduler "str0" with entities [Raubahn (ID: 16982298/0x0103211A), Raubahn (ID: 16982298/0x0103211A)], work=[232*, 0*]
 51: 0x05D8 [0x6A] CHANGE_SOUND_VOLUME: Set (Effects/System/Zone/Master)* volume to 222*, fade_time=150*
 52: 0x05DF [0x5C] MUSIC_CONTROL: Set Idle (Day) music to song 150*
 53: 0x05E3 [0x5C] MUSIC_CONTROL: Set Idle (Night) music to song 150*
 54: 0x05E7 [0x9A] WAIT_MUSIC_SERVER()
 55: 0x05E8 [0x1C] WAIT(30* ticks)
 56: 0x05EB [0x45] LOAD_SCHEDULED_TASK: Load scheduler "b009" with entities [LocalPlayer, LocalPlayer], work=[274*, 0*]
 57: 0x05FC [0x1C] WAIT(60* ticks)
 58: 0x05FF [0x2B] Raubahn (ID: 16982298/0x0103211A) [8864*]:
    → "So, you have returned from your journey.\u007F1\u0000\u0007"
 59: 0x0606 [0x23] WAIT_FOR_DIALOG_INTERACTION
 60: 0x0607 [0x2B] Raubahn (ID: 16982298/0x0103211A) [8865*]:
    → "The Immortals have submitted their reports.\u007F1\u0000\u0007"
 61: 0x060E [0x23] WAIT_FOR_DIALOG_INTERACTION
 62: 0x060F [0x52] END_LOAD_SCHEDULER: End scheduler "b009" with entities [LocalPlayer, LocalPlayer], work=274*
 63: 0x061E [0x45] LOAD_SCHEDULED_TASK: Load scheduler "b010" with entities [LocalPlayer, LocalPlayer], work=[274*, 0*]
 64: 0x062F [0x2B] Raubahn (ID: 16982298/0x0103211A) [8866*]:
    → "My evaluation?\u0007You are still not fit to join our ranks.\u007F1\u0000\u0007"
 65: 0x0636 [0x23] WAIT_FOR_DIALOG_INTERACTION
 66: 0x0637 [0x2B] Raubahn (ID: 16982298/0x0103211A) [8867*]:
    → "However, I will recognize your continued growth and dedication.\u007F1\u0000\u0007"
 67: 0x063E [0x23] WAIT_FOR_DIALOG_INTERACTION
 68: 0x063F [0x52] END_LOAD_SCHEDULER: End scheduler "b010" with entities [LocalPlayer, LocalPlayer], work=274*
 69: 0x064E [0x45] LOAD_SCHEDULED_TASK: Load scheduler "b011" with entities [LocalPlayer, LocalPlayer], work=[274*, 0*]
 70: 0x065F [0x2B] Raubahn (ID: 16982298/0x0103211A) [8868*]:
    → "Greater heights of power await you...\u0007Let the desire that burns within you guide your way.\u007F1\u0000\u0007"
 71: 0x0666 [0x23] WAIT_FOR_DIALOG_INTERACTION
 72: 0x0667 [0x2B] Raubahn (ID: 16982298/0x0103211A) [8869*]:
    → "Ambition is the only fuel that a blue mage requires.\u007F1\u0000\u0007"
 73: 0x066E [0x23] WAIT_FOR_DIALOG_INTERACTION
 74: 0x066F [0x52] END_LOAD_SCHEDULER: End scheduler "b011" with entities [LocalPlayer, LocalPlayer], work=274*
 75: 0x067E [0x45] LOAD_SCHEDULED_TASK: Load scheduler "b012" with entities [LocalPlayer, LocalPlayer], work=[274*, 0*]
 76: 0x068F [0x2B] Raubahn (ID: 16982298/0x0103211A) [8870*]:
    → "You have taken the first steps, but this is only the beginning.\u007F1\u0000\u0007"
 77: 0x0696 [0x23] WAIT_FOR_DIALOG_INTERACTION
 78: 0x0697 [0x03] Work_Zone[2] = 17717*
 79: 0x069C [0x2B] Raubahn (ID: 16982298/0x0103211A) [8871*]:
    → "I present you with this \u0001\u0005#\u0002\u0000\u0000\u0000, a fitting blade for the path you must carve.\u007F1\u0000\u0007"
 80: 0x06A3 [0x23] WAIT_FOR_DIALOG_INTERACTION
 81: 0x06A4 [0x52] END_LOAD_SCHEDULER: End scheduler "b012" with entities [LocalPlayer, LocalPlayer], work=274*
 82: 0x06B3 [0x45] LOAD_SCHEDULED_TASK: Load scheduler "b013" with entities [LocalPlayer, LocalPlayer], work=[274*, 0*]
 83: 0x06C4 [0x2B] Raubahn (ID: 16982298/0x0103211A) [8872*]:
    → "Wield it well.\u0000\u0007"
 84: 0x06CB [0x1C] WAIT(30* ticks)
 85: 0x06CE [0x1A] CALL_SUBROUTINE(address=0x412D)
 86: 0x06D1 [0x1C] WAIT(30* ticks)
 87: 0x06D4 [0x52] END_LOAD_SCHEDULER: End scheduler "b013" with entities [LocalPlayer, LocalPlayer], work=274*
 88: 0x06E3 [0x45] LOAD_SCHEDULED_TASK: Load scheduler "0blf" with entities [LocalPlayer, LocalPlayer], work=[274*, 0*]
 89: 0x06F4 [0x9F] LOAD_SCHEDULED_TASK_ALT: Load scheduler "kill" with entities [Raubahn (ID: 16982298/0x0103211A), Raubahn (ID: 16982298/0x0103211A)], work=[232*, 0*]
 90: 0x0705 [0x29] REQ_SET_WAIT(priority=0x10, entity_id=Raubahn (ID: 16982298/0x0103211A), tag_num=0x05)
 91: 0x070C [0x35] LOAD_ZONE_NO_CLOSE(zone_id=50*)
 92: 0x070F [0x78] ENABLE_GAME_TIMER_RESET_WEATHER()
 93: 0x0710 [0x1C] WAIT(1* ticks)
 94: 0x0713 [0x45] LOAD_SCHEDULED_TASK: Load scheduler "nose" with entities [LocalPlayer, LocalPlayer], work=[272*, 0*]
 95: 0x0724 [0x55] WAIT_LOAD_SCHEDULER: Wait for scheduler "nose" with entities [LocalPlayer, LocalPlayer], work=272*
 96: 0x0733 [0x6A] CHANGE_SOUND_VOLUME: Set (Effects/System/Zone/Master)* volume to 999*, fade_time=150*
 97: 0x073A [0xAB] EventEntity->UnknownFlag = 0 // Disable unknown flag
 98: 0x073C [0x2D] CREATE_ZONE_SCHEDULER_TASK: Create scheduler "1pb1" with entities [LocalPlayer, LocalPlayer]
 99: 0x0749 [0x5C] MUSIC_CONTROL: Set Idle (Day) music to song 178*
100: 0x074D [0x5C] MUSIC_CONTROL: Set Idle (Night) music to song 178*
101: 0x0751 [0x9A] WAIT_MUSIC_SERVER()
102: 0x0752 [0x46] CAMERA_CONTROL: Restore default settings
103: 0x0754 [0x45] LOAD_SCHEDULED_TASK: Load scheduler "qstc" with entities [EventEntity, EventEntity], work=[201*, 0*]
104: 0x0765 [0x45] LOAD_SCHEDULED_TASK: Load scheduler "fdi2" with entities [LocalPlayer, LocalPlayer], work=[200*, 0*]
105: 0x0776 [0x21] END_EVENT
106: 0x0777 [0x00] END_REQSTACK()
```

### Event 710

#### Metadata

| Field        | Value      |
|--------------|------------|
| Entrypoint   | 0x0778     |
| Data Size    | 1125 bytes |
| Instructions | 151        |

```
      00 01 02 03 04 05 06 07  08 09 0A 0B 0C 0D 0E 0F
      -- -- -- -- -- -- -- --  -- -- -- -- -- -- -- --
0770:                          42 1A 2D 41 46 01 38 00          B.-AF.8.
0780: 80 92 01 19 21 03 01 94  01 F0 FF FF 7F 94 01 19  ....!...........
0790: 21 03 01 29 10 F0 FF FF  7F 24 80 F0 FF FF 7F 80  !..).....$......
07A0: 19 21 03 01 4A F0 FF FF  7F 19 21 03 01 4A 19 21  .!..J.....!..J.!
07B0: 03 01 F0 FF FF 7F 45 01  80 F0 FF FF 7F F0 FF FF  ......E.........
07C0: 7F 61 6F 30 30 02 80 1A  0C 41 81 00 19 21 03 01  .ao00....A...!..
07D0: 66 03 80 19 21 03 01 19  21 03 01 61 6B 61 30 1C  f...!...!..aka0.
07E0: 04 80 7B 19 21 03 01 2B  19 21 03 01 05 80 23 52  ..{.!..+.!....#R
07F0: 01 80 F0 FF FF 7F F0 FF  FF 7F 61 6F 30 30 45 01  ..........ao00E.
0800: 80 F0 FF FF 7F F0 FF FF  7F 61 63 30 30 02 80 1C  .........ac00...
0810: 09 80 45 01 80 F0 FF FF  7F F0 FF FF 7F 6B 69 72  ..E..........kir
0820: 61 02 80 9F 0A 80 19 21  03 01 19 21 03 01 73 74  a......!...!..st
0830: 72 30 02 80 1C 09 80 5D  02 80 04 80 6A 02 80 04  r0.....]....j...
0840: 80 0B 80 1A 2D 41 1C 09  80 52 01 80 F0 FF FF 7F  ....-A...R......
0850: F0 FF FF 7F 61 63 30 30  45 01 80 F0 FF FF 7F F0  ....ac00E.......
0860: FF FF 7F 30 62 6C 66 02  80 34 0C 80 77 0D 80 07  ...0blf..4..w...
0870: 80 1C 09 80 4E 01 1E 20  03 01 AB 09 79 00 F0 FF  ....N.. ....y...
0880: FF 7F F0 FF FF 7F 29 10  1A 21 03 01 04 92 01 1A  ......)..!......
0890: 21 03 01 94 01 F0 FF FF  7F 94 01 1A 21 03 01 1C  !...........!...
08A0: 0B 80 29 10 F0 FF FF 7F  2E 29 10 1A 21 03 01 18  ..)......)..!...
08B0: 80 F0 FF FF 7F 80 1A 21  03 01 1C 0B 80 9F 0F 80  .......!........
08C0: 1A 21 03 01 1A 21 03 01  73 74 72 30 02 80 6A 10  .!...!..str0..j.
08D0: 80 11 80 0B 80 5C 00 11  80 5C 01 11 80 9A 1C 09  .....\...\......
08E0: 80 45 12 80 F0 FF FF 7F  F0 FF FF 7F 62 31 30 30  .E..........b100
08F0: 02 80 1C 04 80 2C F0 FF  FF 7F F0 FF FF 7F 64 65  .....,........de
0900: 61 64 1C 04 80 52 12 80  F0 FF FF 7F F0 FF FF 7F  ad...R..........
0910: 62 31 30 30 27 10 1A 21  03 01 19 45 12 80 F0 FF  b100'..!...E....
0920: FF 7F F0 FF FF 7F 62 31  30 31 02 80 1C 34 80 2B  ......b101...4.+
0930: 1A 21 03 01 35 80 23 2A  10 1A 21 03 01 1C 09 80  .!..5.#*..!.....
0940: 2B 1A 21 03 01 36 80 23  52 12 80 F0 FF FF 7F F0  +.!..6.#R.......
0950: FF FF 7F 62 31 30 31 45  12 80 F0 FF FF 7F F0 FF  ...b101E........
0960: FF 7F 62 31 30 33 02 80  6A 37 80 38 80 0B 80 2B  ..b103..j7.8...+
0970: 1A 21 03 01 39 80 23 4A  1A 21 03 01 F0 FF FF 7F  .!..9.#J.!......
0980: 52 12 80 F0 FF FF 7F F0  FF FF 7F 62 31 30 33 45  R..........b103E
0990: 12 80 F0 FF FF 7F F0 FF  FF 7F 62 31 30 34 02 80  ..........b104..
09A0: 6F 76 1A 21 03 01 2B 1A  21 03 01 3A 80 23 2B 1A  ov.!..+.!..:.#+.
09B0: 21 03 01 3B 80 23 52 12  80 F0 FF FF 7F F0 FF FF  !..;.#R.........
09C0: 7F 62 31 30 34 45 12 80  F0 FF FF 7F F0 FF FF 7F  .b104E..........
09D0: 62 31 30 35 02 80 29 10  1A 21 03 01 1D 1C 3C 80  b105..)..!....<.
09E0: 2B 1A 21 03 01 3D 80 23  2B 1A 21 03 01 3E 80 23  +.!..=.#+.!..>.#
09F0: 52 12 80 F0 FF FF 7F F0  FF FF 7F 62 31 30 35 45  R..........b105E
0A00: 12 80 F0 FF FF 7F F0 FF  FF 7F 62 31 30 36 02 80  ..........b106..
0A10: 1C 04 80 1A 2D 41 45 12  80 F0 FF FF 7F F0 FF FF  ....-AE.........
0A20: 7F 6F 70 63 6C 02 80 1C  09 80 29 10 F0 FF FF 7F  .opcl.....).....
0A30: 2F 29 10 1A 21 03 01 1A  1C 0B 80 29 10 F0 FF FF  /)..!......)....
0A40: 7F 18 5B 0E 80 1A 21 03  01 1A 21 03 01 73 74 61  ..[...!...!..sta
0A50: 6C 53 1A 21 03 01 1A 21  03 01 73 74 61 6C 1C 0B  lS.!...!..stal..
0A60: 80 52 12 80 F0 FF FF 7F  F0 FF FF 7F 62 31 30 36  .R..........b106
0A70: 45 12 80 F0 FF FF 7F F0  FF FF 7F 62 31 30 37 02  E..........b107.
0A80: 80 1C 04 80 2B 1A 21 03  01 3F 80 23 52 12 80 F0  ....+.!..?.#R...
0A90: FF FF 7F F0 FF FF 7F 62  31 30 37 45 12 80 F0 FF  .......b107E....
0AA0: FF 7F F0 FF FF 7F 62 31  30 38 02 80 2B 1A 21 03  ......b108..+.!.
0AB0: 01 40 80 23 2B 1A 21 03  01 41 80 23 52 12 80 F0  .@.#+.!..A.#R...
0AC0: FF FF 7F F0 FF FF 7F 62  31 30 38 45 12 80 F0 FF  .......b108E....
0AD0: FF 7F F0 FF FF 7F 62 31  30 39 02 80 2B 1A 21 03  ......b109..+.!.
0AE0: 01 42 80 23 2B 1A 21 03  01 43 80 23 52 12 80 F0  .B.#+.!..C.#R...
0AF0: FF FF 7F F0 FF FF 7F 62  31 30 39 45 12 80 F0 FF  .......b109E....
0B00: FF 7F F0 FF FF 7F 62 31  31 30 02 80 2B 1A 21 03  ......b110..+.!.
0B10: 01 44 80 23 2B 1A 21 03  01 45 80 23 52 12 80 F0  .D.#+.!..E.#R...
0B20: FF FF 7F F0 FF FF 7F 62  31 31 30 45 12 80 F0 FF  .......b110E....
0B30: FF 7F F0 FF FF 7F 62 31  31 31 02 80 2B 1A 21 03  ......b111..+.!.
0B40: 01 46 80 23 1A 2D 41 1C  09 80 52 12 80 F0 FF FF  .F.#.-A...R.....
0B50: 7F F0 FF FF 7F 62 31 31  31 45 12 80 F0 FF FF 7F  .....b111E......
0B60: F0 FF FF 7F 30 62 6C 66  02 80 9F 0F 80 1A 21 03  ....0blf......!.
0B70: 01 1A 21 03 01 6B 69 6C  6C 02 80 29 10 1A 21 03  ..!..kill..)..!.
0B80: 01 05 35 23 80 78 1C 07  80 45 24 80 F0 FF FF 7F  ..5#.x...E$.....
0B90: F0 FF FF 7F 6E 6F 73 65  02 80 55 24 80 F0 FF FF  ....nose..U$....
0BA0: 7F F0 FF FF 7F 6E 6F 73  65 6A 25 80 11 80 0B 80  .....nosej%.....
0BB0: AB 0A 2D F0 FF FF 7F F0  FF FF 7F 31 70 62 31 5C  ..-........1pb1\
0BC0: 00 26 80 5C 01 26 80 9A  46 00 45 27 80 F0 FF FF  .&.\.&..F.E'....
0BD0: 7F F0 FF FF 7F 66 64 69  32 02 80 21 00           .....fdi2..!.   
```

#### Opcodes

```
  0: 0x0778 [0x42] SET_CLI_EVENT_CANCEL_DATA()
  1: 0x0779 [0x1A] CALL_SUBROUTINE(address=0x412D)
  2: 0x077C [0x46] CAMERA_CONTROL: Disable user control
  3: 0x077E [0x38] SET_CLIENT_EVENT_MODE(mode=19*)
  4: 0x0781 [0x92] Waoud (ID: 16982297/0x01032119)->Render.Flags3 ^= 0x01
  5: 0x0787 [0x94] LocalPlayer->Render.Flags3 ^= 0x01
  6: 0x078D [0x94] Waoud (ID: 16982297/0x01032119)->Render.Flags3 ^= 0x01
  7: 0x0793 [0x29] REQ_SET_WAIT(priority=0x10, entity_id=LocalPlayer, tag_num=0x24)
  8: 0x079A [0x80] LOAD_WAIT(entity=LocalPlayer)
  9: 0x079F [0x80] LOAD_WAIT(entity=Waoud (ID: 16982297/0x01032119))
 10: 0x07A4 [0x4A] LocalPlayer looks at Waoud (ID: 16982297/0x01032119)
 11: 0x07AD [0x4A] Waoud (ID: 16982297/0x01032119) looks at LocalPlayer
 12: 0x07B6 [0x45] LOAD_SCHEDULED_TASK: Load scheduler "ao00" with entities [LocalPlayer, LocalPlayer], work=[258*, 0*]
 13: 0x07C7 [0x1A] CALL_SUBROUTINE(address=0x410C)
 14: 0x07CA [0x81] SET_ENTITY_BLINKING(blink_flag=0x00, entity=Waoud (ID: 16982297/0x01032119))
 15: 0x07D0 [0x66] LOAD_EXT_SCHEDULER_MAIN: Load scheduler "aka0" with entities [Waoud (ID: 16982297/0x01032119), Waoud (ID: 16982297/0x01032119)], work=5*
 16: 0x07DF [0x1C] WAIT(60* ticks)
 17: 0x07E2 [0x7B] Waoud (ID: 16982297/0x01032119) stops talking
 18: 0x07E7 [0x2B] Waoud (ID: 16982297/0x01032119) [8743*]:
    → "Do you wish to gaze on the tapestry that fate has woven for you?\u0007I require less coin from adventurers for my divinations, considering their...uncertain employment.\u007F1\u0000\u0007"
 19: 0x07EE [0x23] WAIT_FOR_DIALOG_INTERACTION
 20: 0x07EF [0x52] END_LOAD_SCHEDULER: End scheduler "ao00" with entities [LocalPlayer, LocalPlayer], work=258*
 21: 0x07FE [0x45] LOAD_SCHEDULED_TASK: Load scheduler "ac00" with entities [LocalPlayer, LocalPlayer], work=[258*, 0*]
 22: 0x080F [0x1C] WAIT(30* ticks)
 23: 0x0812 [0x45] LOAD_SCHEDULED_TASK: Load scheduler "kira" with entities [LocalPlayer, LocalPlayer], work=[258*, 0*]
 24: 0x0823 [0x9F] LOAD_SCHEDULED_TASK_ALT: Load scheduler "str0" with entities [Waoud (ID: 16982297/0x01032119), Waoud (ID: 16982297/0x01032119)], work=[220*, 0*]
 25: 0x0834 [0x1C] WAIT(30* ticks)
 26: 0x0837 [0x5D] SET_MUSIC_VOLUME(volume=0*, fade_time=60*)
 27: 0x083C [0x6A] CHANGE_SOUND_VOLUME: Set (Effects/System/Zone/Master)* volume to 0*, fade_time=60*
 28: 0x0843 [0x1A] CALL_SUBROUTINE(address=0x412D)
 29: 0x0846 [0x1C] WAIT(30* ticks)
 30: 0x0849 [0x52] END_LOAD_SCHEDULER: End scheduler "ac00" with entities [LocalPlayer, LocalPlayer], work=258*
 31: 0x0858 [0x45] LOAD_SCHEDULED_TASK: Load scheduler "0blf" with entities [LocalPlayer, LocalPlayer], work=[258*, 0*]
 32: 0x0869 [0x34] LOAD_UNLOAD_ZONE(zone_id=167*)
 33: 0x086C [0x77] SET_EVENT_TIME_WEATHER(hour=2*, weather=1*)
 34: 0x0871 [0x1C] WAIT(30* ticks)
 35: 0x0874 [0x4E] SET_ENTITY_HIDE_FLAG: Hide Unknown NPC (ID: 16982046/0x0103201E)
 36: 0x087A [0xAB] EventEntity->UnknownFlag = 1 // Enable unknown flag
 37: 0x087C [0x79] LocalPlayer looks at LocalPlayer (Basic look)
 38: 0x0886 [0x29] REQ_SET_WAIT(priority=0x10, entity_id=Raubahn (ID: 16982298/0x0103211A), tag_num=0x04)
 39: 0x088D [0x92] Raubahn (ID: 16982298/0x0103211A)->Render.Flags3 ^= 0x01
 40: 0x0893 [0x94] LocalPlayer->Render.Flags3 ^= 0x01
 41: 0x0899 [0x94] Raubahn (ID: 16982298/0x0103211A)->Render.Flags3 ^= 0x01
 42: 0x089F [0x1C] WAIT(15* ticks)
 43: 0x08A2 [0x29] REQ_SET_WAIT(priority=0x10, entity_id=LocalPlayer, tag_num=0x2E)
 44: 0x08A9 [0x29] REQ_SET_WAIT(priority=0x10, entity_id=Raubahn (ID: 16982298/0x0103211A), tag_num=0x18)
 45: 0x08B0 [0x80] LOAD_WAIT(entity=LocalPlayer)
 46: 0x08B5 [0x80] LOAD_WAIT(entity=Raubahn (ID: 16982298/0x0103211A))
 47: 0x08BA [0x1C] WAIT(15* ticks)
 48: 0x08BD [0x9F] LOAD_SCHEDULED_TASK_ALT: Load scheduler "str0" with entities [Raubahn (ID: 16982298/0x0103211A), Raubahn (ID: 16982298/0x0103211A)], work=[232*, 0*]
 49: 0x08CE [0x6A] CHANGE_SOUND_VOLUME: Set (Effects/System/Zone/Master)* volume to 111*, fade_time=150*
 50: 0x08D5 [0x5C] MUSIC_CONTROL: Set Idle (Day) music to song 150*
 51: 0x08D9 [0x5C] MUSIC_CONTROL: Set Idle (Night) music to song 150*
 52: 0x08DD [0x9A] WAIT_MUSIC_SERVER()
 53: 0x08DE [0x1C] WAIT(30* ticks)
 54: 0x08E1 [0x45] LOAD_SCHEDULED_TASK: Load scheduler "b100" with entities [LocalPlayer, LocalPlayer], work=[274*, 0*]
 55: 0x08F2 [0x1C] WAIT(60* ticks)
 56: 0x08F5 [0x2C] CREATE_SCHEDULER_TASK: Create scheduler "dead" with entities [LocalPlayer, LocalPlayer]
 57: 0x0902 [0x1C] WAIT(60* ticks)
 58: 0x0905 [0x52] END_LOAD_SCHEDULER: End scheduler "b100" with entities [LocalPlayer, LocalPlayer], work=274*
 59: 0x0914 [0x27] REQ_SET(priority=0x10, entity_id=Raubahn (ID: 16982298/0x0103211A), tag_num=0x19)
 60: 0x091B [0x45] LOAD_SCHEDULED_TASK: Load scheduler "b101" with entities [LocalPlayer, LocalPlayer], work=[274*, 0*]
 61: 0x092C [0x1C] WAIT(120* ticks)
 62: 0x092F [0x2B] Raubahn (ID: 16982298/0x0103211A) [8873*]:
    → "The phenomenon...assaulting you...\u007F1\u0000\u0007"
 63: 0x0936 [0x23] WAIT_FOR_DIALOG_INTERACTION
 64: 0x0937 [0x2A] GET_REQ_LEVEL(level=16, entity_id=Raubahn (ID: 16982298/0x0103211A))
 65: 0x093D [0x1C] WAIT(30* ticks)
 66: 0x0940 [0x2B] Raubahn (ID: 16982298/0x0103211A) [8874*]:
    → "...is the result of...the blue magic...invading every cell...of your body...\u007F1\u0000\u0007"
 67: 0x0947 [0x23] WAIT_FOR_DIALOG_INTERACTION
 68: 0x0948 [0x52] END_LOAD_SCHEDULER: End scheduler "b101" with entities [LocalPlayer, LocalPlayer], work=274*
 69: 0x0957 [0x45] LOAD_SCHEDULED_TASK: Load scheduler "b103" with entities [LocalPlayer, LocalPlayer], work=[274*, 0*]
 70: 0x0968 [0x6A] CHANGE_SOUND_VOLUME: Set (Effects/System/Zone/Master)* volume to 333*, fade_time=180*
 71: 0x096F [0x2B] Raubahn (ID: 16982298/0x0103211A) [8875*]:
    → "While your physical form...struggles to contain this energy, your soul is crying out in agony...\u0007The vessel that you have become has reached its limit.\u007F1\u0000\u0007"
 72: 0x0976 [0x23] WAIT_FOR_DIALOG_INTERACTION
 73: 0x0977 [0x4A] Raubahn (ID: 16982298/0x0103211A) looks at LocalPlayer
 74: 0x0980 [0x52] END_LOAD_SCHEDULER: End scheduler "b103" with entities [LocalPlayer, LocalPlayer], work=274*
 75: 0x098F [0x45] LOAD_SCHEDULED_TASK: Load scheduler "b104" with entities [LocalPlayer, LocalPlayer], work=[274*, 0*]
 76: 0x09A0 [0x6F] WAIT_FRAME_DELAY: Yield until WaitTime reaches zero
 77: 0x09A1 [0x76] CHECK_ENTITY_RENDER_FLAGS: Wait until Raubahn (ID: 16982298/0x0103211A) Render.Flags0 and Render.Flags3 conditions are met
 78: 0x09A6 [0x2B] Raubahn (ID: 16982298/0x0103211A) [8876*]:
    → "This is my private domain--a place separated from the outside world through the power of the magic I have devoured.\u0007Here, isolated from reality, the state of a soul's deterioration is far more obvious.\u007F1\u0000\u0007"
 79: 0x09AD [0x23] WAIT_FOR_DIALOG_INTERACTION
 80: 0x09AE [0x2B] Raubahn (ID: 16982298/0x0103211A) [8877*]:
    → "Do you lack even the strength to stand?\u007F1\u0000\u0007"
 81: 0x09B5 [0x23] WAIT_FOR_DIALOG_INTERACTION
 82: 0x09B6 [0x52] END_LOAD_SCHEDULER: End scheduler "b104" with entities [LocalPlayer, LocalPlayer], work=274*
 83: 0x09C5 [0x45] LOAD_SCHEDULED_TASK: Load scheduler "b105" with entities [LocalPlayer, LocalPlayer], work=[274*, 0*]
 84: 0x09D6 [0x29] REQ_SET_WAIT(priority=0x10, entity_id=Raubahn (ID: 16982298/0x0103211A), tag_num=0x1D)
 85: 0x09DD [0x1C] WAIT(45* ticks)
 86: 0x09E0 [0x2B] Raubahn (ID: 16982298/0x0103211A) [8878*]:
    → "You must have gorged yourself on the essence of your enemies to reach this condition.\u007F1\u0000\u0007"
 87: 0x09E7 [0x23] WAIT_FOR_DIALOG_INTERACTION
 88: 0x09E8 [0x2B] Raubahn (ID: 16982298/0x0103211A) [8879*]:
    → "Very well.\u0007The depths of your ambition have been noted.\u007F1\u0000\u0007"
 89: 0x09EF [0x23] WAIT_FOR_DIALOG_INTERACTION
 90: 0x09F0 [0x52] END_LOAD_SCHEDULER: End scheduler "b105" with entities [LocalPlayer, LocalPlayer], work=274*
 91: 0x09FF [0x45] LOAD_SCHEDULED_TASK: Load scheduler "b106" with entities [LocalPlayer, LocalPlayer], work=[274*, 0*]
 92: 0x0A10 [0x1C] WAIT(60* ticks)
 93: 0x0A13 [0x1A] CALL_SUBROUTINE(address=0x412D)
 94: 0x0A16 [0x45] LOAD_SCHEDULED_TASK: Load scheduler "opcl" with entities [LocalPlayer, LocalPlayer], work=[274*, 0*]
 95: 0x0A27 [0x1C] WAIT(30* ticks)
 96: 0x0A2A [0x29] REQ_SET_WAIT(priority=0x10, entity_id=LocalPlayer, tag_num=0x2F)
 97: 0x0A31 [0x29] REQ_SET_WAIT(priority=0x10, entity_id=Raubahn (ID: 16982298/0x0103211A), tag_num=0x1A)
 98: 0x0A38 [0x1C] WAIT(15* ticks)
 99: 0x0A3B [0x29] REQ_SET_WAIT(priority=0x10, entity_id=LocalPlayer, tag_num=0x18)
100: 0x0A42 [0x5B] LOAD_EXT_SCHEDULER: Load scheduler "stal" with entities [Raubahn (ID: 16982298/0x0103211A), Raubahn (ID: 16982298/0x0103211A)], work=837*
101: 0x0A51 [0x53] WAIT_SCHEDULER_TASK: Wait for scheduler "stal" with entities [Raubahn (ID: 16982298/0x0103211A), Raubahn (ID: 16982298/0x0103211A)]
102: 0x0A5E [0x1C] WAIT(15* ticks)
103: 0x0A61 [0x52] END_LOAD_SCHEDULER: End scheduler "b106" with entities [LocalPlayer, LocalPlayer], work=274*
104: 0x0A70 [0x45] LOAD_SCHEDULED_TASK: Load scheduler "b107" with entities [LocalPlayer, LocalPlayer], work=[274*, 0*]
105: 0x0A81 [0x1C] WAIT(60* ticks)
106: 0x0A84 [0x2B] Raubahn (ID: 16982298/0x0103211A) [8880*]:
    → "It is not for me to prevent your self-destruction.\u0007Your limits are your own to conquer.\u007F1\u0000\u0007"
107: 0x0A8B [0x23] WAIT_FOR_DIALOG_INTERACTION
108: 0x0A8C [0x52] END_LOAD_SCHEDULER: End scheduler "b107" with entities [LocalPlayer, LocalPlayer], work=274*
109: 0x0A9B [0x45] LOAD_SCHEDULED_TASK: Load scheduler "b108" with entities [LocalPlayer, LocalPlayer], work=[274*, 0*]
110: 0x0AAC [0x2B] Raubahn (ID: 16982298/0x0103211A) [8881*]:
    → "A resilient spirit to control the fear and allure aroused by the savage magic you devour...\u0007A willingness to discard your very self, should it lead to the achievement you desire...\u007F1\u0000\u0007"
111: 0x0AB3 [0x23] WAIT_FOR_DIALOG_INTERACTION
112: 0x0AB4 [0x2B] Raubahn (ID: 16982298/0x0103211A) [8882*]:
    → "These are the qualities every blue mage must possess.\u007F1\u0000\u0007"
113: 0x0ABB [0x23] WAIT_FOR_DIALOG_INTERACTION
114: 0x0ABC [0x52] END_LOAD_SCHEDULER: End scheduler "b108" with entities [LocalPlayer, LocalPlayer], work=274*
115: 0x0ACB [0x45] LOAD_SCHEDULED_TASK: Load scheduler "b109" with entities [LocalPlayer, LocalPlayer], work=[274*, 0*]
116: 0x0ADC [0x2B] Raubahn (ID: 16982298/0x0103211A) [8883*]:
    → "There is no salvation for you.\u0007Either you wait for oblivion to claim you, or continue to writhe within the energies of your foes.\u0007You stand at a fork in the road.\u007F1\u0000\u0007"
117: 0x0AE3 [0x23] WAIT_FOR_DIALOG_INTERACTION
118: 0x0AE4 [0x2B] Raubahn (ID: 16982298/0x0103211A) [8884*]:
    → "Listen well, \u0008.\u0007Should you decide on a life consumed with the struggle for power, I can show you the path...\u007F1\u0000\u0007"
119: 0x0AEB [0x23] WAIT_FOR_DIALOG_INTERACTION
120: 0x0AEC [0x52] END_LOAD_SCHEDULER: End scheduler "b109" with entities [LocalPlayer, LocalPlayer], work=274*
121: 0x0AFB [0x45] LOAD_SCHEDULED_TASK: Load scheduler "b110" with entities [LocalPlayer, LocalPlayer], work=[274*, 0*]
122: 0x0B0C [0x2B] Raubahn (ID: 16982298/0x0103211A) [8885*]:
    → "Travel to the Navukgo Execution Chamber, and destroy the flan that are resisting the Imperial Army.\u007F1\u0000\u0007"
123: 0x0B13 [0x23] WAIT_FOR_DIALOG_INTERACTION
124: 0x0B14 [0x2B] Raubahn (ID: 16982298/0x0103211A) [8886*]:
    → "A simple task for a seasoned blue mage--not so simple for you, perhaps...\u007F1\u0000\u0007"
125: 0x0B1B [0x23] WAIT_FOR_DIALOG_INTERACTION
126: 0x0B1C [0x52] END_LOAD_SCHEDULER: End scheduler "b110" with entities [LocalPlayer, LocalPlayer], work=274*
127: 0x0B2B [0x45] LOAD_SCHEDULED_TASK: Load scheduler "b111" with entities [LocalPlayer, LocalPlayer], work=[274*, 0*]
128: 0x0B3C [0x2B] Raubahn (ID: 16982298/0x0103211A) [8887*]:
    → "Be tempered by the obstacles you overcome.\u0007Show me the strength of your will.\u007F1\u0000\u0007"
129: 0x0B43 [0x23] WAIT_FOR_DIALOG_INTERACTION
130: 0x0B44 [0x1A] CALL_SUBROUTINE(address=0x412D)
131: 0x0B47 [0x1C] WAIT(30* ticks)
132: 0x0B4A [0x52] END_LOAD_SCHEDULER: End scheduler "b111" with entities [LocalPlayer, LocalPlayer], work=274*
133: 0x0B59 [0x45] LOAD_SCHEDULED_TASK: Load scheduler "0blf" with entities [LocalPlayer, LocalPlayer], work=[274*, 0*]
134: 0x0B6A [0x9F] LOAD_SCHEDULED_TASK_ALT: Load scheduler "kill" with entities [Raubahn (ID: 16982298/0x0103211A), Raubahn (ID: 16982298/0x0103211A)], work=[232*, 0*]
135: 0x0B7B [0x29] REQ_SET_WAIT(priority=0x10, entity_id=Raubahn (ID: 16982298/0x0103211A), tag_num=0x05)
136: 0x0B82 [0x35] LOAD_ZONE_NO_CLOSE(zone_id=50*)
137: 0x0B85 [0x78] ENABLE_GAME_TIMER_RESET_WEATHER()
138: 0x0B86 [0x1C] WAIT(1* ticks)
139: 0x0B89 [0x45] LOAD_SCHEDULED_TASK: Load scheduler "nose" with entities [LocalPlayer, LocalPlayer], work=[272*, 0*]
140: 0x0B9A [0x55] WAIT_LOAD_SCHEDULER: Wait for scheduler "nose" with entities [LocalPlayer, LocalPlayer], work=272*
141: 0x0BA9 [0x6A] CHANGE_SOUND_VOLUME: Set (Effects/System/Zone/Master)* volume to 999*, fade_time=150*
142: 0x0BB0 [0xAB] EventEntity->UnknownFlag = 0 // Disable unknown flag
143: 0x0BB2 [0x2D] CREATE_ZONE_SCHEDULER_TASK: Create scheduler "1pb1" with entities [LocalPlayer, LocalPlayer]
144: 0x0BBF [0x5C] MUSIC_CONTROL: Set Idle (Day) music to song 178*
145: 0x0BC3 [0x5C] MUSIC_CONTROL: Set Idle (Night) music to song 178*
146: 0x0BC7 [0x9A] WAIT_MUSIC_SERVER()
147: 0x0BC8 [0x46] CAMERA_CONTROL: Restore default settings
148: 0x0BCA [0x45] LOAD_SCHEDULED_TASK: Load scheduler "fdi2" with entities [LocalPlayer, LocalPlayer], work=[200*, 0*]
149: 0x0BDB [0x21] END_EVENT
150: 0x0BDC [0x00] END_REQSTACK()
```

### Event 712

#### Metadata

| Field        | Value     |
|--------------|-----------|
| Entrypoint   | 0x0BDD    |
| Data Size    | 867 bytes |
| Instructions | 115       |

```
      00 01 02 03 04 05 06 07  08 09 0A 0B 0C 0D 0E 0F
      -- -- -- -- -- -- -- --  -- -- -- -- -- -- -- --
0BD0:                                         42 1A 2D               B.-
0BE0: 41 46 01 38 00 80 92 01  19 21 03 01 94 01 F0 FF  AF.8.....!......
0BF0: FF 7F 94 01 19 21 03 01  29 10 F0 FF FF 7F 24 80  .....!..).....$.
0C00: F0 FF FF 7F 80 19 21 03  01 4A F0 FF FF 7F 19 21  ......!..J.....!
0C10: 03 01 4A 19 21 03 01 F0  FF FF 7F 45 01 80 F0 FF  ..J.!......E....
0C20: FF 7F F0 FF FF 7F 61 6F  30 30 02 80 1A 0C 41 81  ......ao00....A.
0C30: 00 19 21 03 01 66 03 80  19 21 03 01 19 21 03 01  ..!..f...!...!..
0C40: 61 6B 61 30 1C 04 80 7B  19 21 03 01 2B 19 21 03  aka0...{.!..+.!.
0C50: 01 05 80 23 52 01 80 F0  FF FF 7F F0 FF FF 7F 61  ...#R..........a
0C60: 6F 30 30 45 01 80 F0 FF  FF 7F F0 FF FF 7F 61 63  o00E..........ac
0C70: 30 30 02 80 1C 09 80 45  01 80 F0 FF FF 7F F0 FF  00.....E........
0C80: FF 7F 6B 69 72 61 02 80  9F 0A 80 19 21 03 01 19  ..kira......!...
0C90: 21 03 01 73 74 72 30 02  80 1C 09 80 5D 02 80 04  !..str0.....]...
0CA0: 80 6A 02 80 04 80 0B 80  1A 2D 41 1C 09 80 52 01  .j.......-A...R.
0CB0: 80 F0 FF FF 7F F0 FF FF  7F 61 63 30 30 45 01 80  .........ac00E..
0CC0: F0 FF FF 7F F0 FF FF 7F  30 62 6C 66 02 80 34 0C  ........0blf..4.
0CD0: 80 77 0D 80 07 80 1C 09  80 4E 01 1E 20 03 01 AB  .w.......N.. ...
0CE0: 09 79 00 F0 FF FF 7F F0  FF FF 7F 29 10 1A 21 03  .y.........)..!.
0CF0: 01 02 92 01 1A 21 03 01  94 01 F0 FF FF 7F 94 01  .....!..........
0D00: 1A 21 03 01 29 10 F0 FF  FF 7F 30 29 10 1A 21 03  .!..).....0)..!.
0D10: 01 1B 80 F0 FF FF 7F 80  1A 21 03 01 1C 0B 80 5B  .........!.....[
0D20: 0E 80 1A 21 03 01 1A 21  03 01 73 74 61 6C 6A 47  ...!...!..staljG
0D30: 80 11 80 0B 80 5C 00 11  80 5C 01 11 80 9A 1C 09  .....\...\......
0D40: 80 45 12 80 F0 FF FF 7F  F0 FF FF 7F 62 31 31 32  .E..........b112
0D50: 02 80 1C 04 80 29 10 F0  FF FF 7F 31 1C 04 80 52  .....).....1...R
0D60: 12 80 F0 FF FF 7F F0 FF  FF 7F 62 31 31 32 45 12  ..........b112E.
0D70: 80 F0 FF FF 7F F0 FF FF  7F 62 31 31 33 02 80 29  .........b113..)
0D80: 10 F0 FF FF 7F 32 1C 04  80 52 12 80 F0 FF FF 7F  .....2...R......
0D90: F0 FF FF 7F 62 31 31 33  45 12 80 F0 FF FF 7F F0  ....b113E.......
0DA0: FF FF 7F 62 31 31 34 02  80 1C 04 80 29 10 F0 FF  ...b114.....)...
0DB0: FF 7F 33 1C 04 80 27 10  12 21 03 01 6B 9F 0F 80  ..3...'..!..k...
0DC0: 1A 21 03 01 1A 21 03 01  73 74 72 30 02 80 27 10  .!...!..str0..'.
0DD0: F0 FF FF 7F 34 52 12 80  F0 FF FF 7F F0 FF FF 7F  ....4R..........
0DE0: 62 31 31 34 45 12 80 F0  FF FF 7F F0 FF FF 7F 62  b114E..........b
0DF0: 31 31 35 02 80 2B 1A 21  03 01 48 80 23 52 12 80  115..+.!..H.#R..
0E00: F0 FF FF 7F F0 FF FF 7F  62 31 31 35 45 12 80 F0  ........b115E...
0E10: FF FF 7F F0 FF FF 7F 62  31 31 36 02 80 2B 1A 21  .......b116..+.!
0E20: 03 01 49 80 23 2B 1A 21  03 01 4A 80 23 4A 1A 21  ..I.#+.!..J.#J.!
0E30: 03 01 F0 FF FF 7F 52 12  80 F0 FF FF 7F F0 FF FF  ......R.........
0E40: 7F 62 31 31 36 45 12 80  F0 FF FF 7F F0 FF FF 7F  .b116E..........
0E50: 62 31 31 37 02 80 2B 1A  21 03 01 4B 80 23 2B 1A  b117..+.!..K.#+.
0E60: 21 03 01 4C 80 23 52 12  80 F0 FF FF 7F F0 FF FF  !..L.#R.........
0E70: 7F 62 31 31 37 45 12 80  F0 FF FF 7F F0 FF FF 7F  .b117E..........
0E80: 62 31 31 38 02 80 27 10  1A 21 03 01 1C 2B 1A 21  b118..'..!...+.!
0E90: 03 01 4D 80 1C 4E 80 27  10 F0 FF FF 7F 34 1C 04  ..M..N.'.....4..
0EA0: 80 1A 2D 41 1C 09 80 52  12 80 F0 FF FF 7F F0 FF  ..-A...R........
0EB0: FF 7F 62 31 31 38 45 12  80 F0 FF FF 7F F0 FF FF  ..b118E.........
0EC0: 7F 30 62 6C 66 02 80 2A  10 1A 21 03 01 9F 0F 80  .0blf..*..!.....
0ED0: 1A 21 03 01 1A 21 03 01  6B 69 6C 6C 02 80 29 10  .!...!..kill..).
0EE0: 1A 21 03 01 05 35 23 80  78 1C 07 80 45 24 80 F0  .!...5#.x...E$..
0EF0: FF FF 7F F0 FF FF 7F 6E  6F 73 65 02 80 55 24 80  .......nose..U$.
0F00: F0 FF FF 7F F0 FF FF 7F  6E 6F 73 65 6A 25 80 11  ........nosej%..
0F10: 80 0B 80 AB 0A 2D F0 FF  FF 7F F0 FF FF 7F 31 70  .....-........1p
0F20: 62 31 5C 00 26 80 5C 01  26 80 9A 46 00 45 27 80  b1\.&.\.&..F.E'.
0F30: F0 FF FF 7F F0 FF FF 7F  66 64 69 32 02 80 21 00  ........fdi2..!.
```

#### Opcodes

```
  0: 0x0BDD [0x42] SET_CLI_EVENT_CANCEL_DATA()
  1: 0x0BDE [0x1A] CALL_SUBROUTINE(address=0x412D)
  2: 0x0BE1 [0x46] CAMERA_CONTROL: Disable user control
  3: 0x0BE3 [0x38] SET_CLIENT_EVENT_MODE(mode=19*)
  4: 0x0BE6 [0x92] Waoud (ID: 16982297/0x01032119)->Render.Flags3 ^= 0x01
  5: 0x0BEC [0x94] LocalPlayer->Render.Flags3 ^= 0x01
  6: 0x0BF2 [0x94] Waoud (ID: 16982297/0x01032119)->Render.Flags3 ^= 0x01
  7: 0x0BF8 [0x29] REQ_SET_WAIT(priority=0x10, entity_id=LocalPlayer, tag_num=0x24)
  8: 0x0BFF [0x80] LOAD_WAIT(entity=LocalPlayer)
  9: 0x0C04 [0x80] LOAD_WAIT(entity=Waoud (ID: 16982297/0x01032119))
 10: 0x0C09 [0x4A] LocalPlayer looks at Waoud (ID: 16982297/0x01032119)
 11: 0x0C12 [0x4A] Waoud (ID: 16982297/0x01032119) looks at LocalPlayer
 12: 0x0C1B [0x45] LOAD_SCHEDULED_TASK: Load scheduler "ao00" with entities [LocalPlayer, LocalPlayer], work=[258*, 0*]
 13: 0x0C2C [0x1A] CALL_SUBROUTINE(address=0x410C)
 14: 0x0C2F [0x81] SET_ENTITY_BLINKING(blink_flag=0x00, entity=Waoud (ID: 16982297/0x01032119))
 15: 0x0C35 [0x66] LOAD_EXT_SCHEDULER_MAIN: Load scheduler "aka0" with entities [Waoud (ID: 16982297/0x01032119), Waoud (ID: 16982297/0x01032119)], work=5*
 16: 0x0C44 [0x1C] WAIT(60* ticks)
 17: 0x0C47 [0x7B] Waoud (ID: 16982297/0x01032119) stops talking
 18: 0x0C4C [0x2B] Waoud (ID: 16982297/0x01032119) [8743*]:
    → "Do you wish to gaze on the tapestry that fate has woven for you?\u0007I require less coin from adventurers for my divinations, considering their...uncertain employment.\u007F1\u0000\u0007"
 19: 0x0C53 [0x23] WAIT_FOR_DIALOG_INTERACTION
 20: 0x0C54 [0x52] END_LOAD_SCHEDULER: End scheduler "ao00" with entities [LocalPlayer, LocalPlayer], work=258*
 21: 0x0C63 [0x45] LOAD_SCHEDULED_TASK: Load scheduler "ac00" with entities [LocalPlayer, LocalPlayer], work=[258*, 0*]
 22: 0x0C74 [0x1C] WAIT(30* ticks)
 23: 0x0C77 [0x45] LOAD_SCHEDULED_TASK: Load scheduler "kira" with entities [LocalPlayer, LocalPlayer], work=[258*, 0*]
 24: 0x0C88 [0x9F] LOAD_SCHEDULED_TASK_ALT: Load scheduler "str0" with entities [Waoud (ID: 16982297/0x01032119), Waoud (ID: 16982297/0x01032119)], work=[220*, 0*]
 25: 0x0C99 [0x1C] WAIT(30* ticks)
 26: 0x0C9C [0x5D] SET_MUSIC_VOLUME(volume=0*, fade_time=60*)
 27: 0x0CA1 [0x6A] CHANGE_SOUND_VOLUME: Set (Effects/System/Zone/Master)* volume to 0*, fade_time=60*
 28: 0x0CA8 [0x1A] CALL_SUBROUTINE(address=0x412D)
 29: 0x0CAB [0x1C] WAIT(30* ticks)
 30: 0x0CAE [0x52] END_LOAD_SCHEDULER: End scheduler "ac00" with entities [LocalPlayer, LocalPlayer], work=258*
 31: 0x0CBD [0x45] LOAD_SCHEDULED_TASK: Load scheduler "0blf" with entities [LocalPlayer, LocalPlayer], work=[258*, 0*]
 32: 0x0CCE [0x34] LOAD_UNLOAD_ZONE(zone_id=167*)
 33: 0x0CD1 [0x77] SET_EVENT_TIME_WEATHER(hour=2*, weather=1*)
 34: 0x0CD6 [0x1C] WAIT(30* ticks)
 35: 0x0CD9 [0x4E] SET_ENTITY_HIDE_FLAG: Hide Unknown NPC (ID: 16982046/0x0103201E)
 36: 0x0CDF [0xAB] EventEntity->UnknownFlag = 1 // Enable unknown flag
 37: 0x0CE1 [0x79] LocalPlayer looks at LocalPlayer (Basic look)
 38: 0x0CEB [0x29] REQ_SET_WAIT(priority=0x10, entity_id=Raubahn (ID: 16982298/0x0103211A), tag_num=0x02)
 39: 0x0CF2 [0x92] Raubahn (ID: 16982298/0x0103211A)->Render.Flags3 ^= 0x01
 40: 0x0CF8 [0x94] LocalPlayer->Render.Flags3 ^= 0x01
 41: 0x0CFE [0x94] Raubahn (ID: 16982298/0x0103211A)->Render.Flags3 ^= 0x01
 42: 0x0D04 [0x29] REQ_SET_WAIT(priority=0x10, entity_id=LocalPlayer, tag_num=0x30)
 43: 0x0D0B [0x29] REQ_SET_WAIT(priority=0x10, entity_id=Raubahn (ID: 16982298/0x0103211A), tag_num=0x1B)
 44: 0x0D12 [0x80] LOAD_WAIT(entity=LocalPlayer)
 45: 0x0D17 [0x80] LOAD_WAIT(entity=Raubahn (ID: 16982298/0x0103211A))
 46: 0x0D1C [0x1C] WAIT(15* ticks)
 47: 0x0D1F [0x5B] LOAD_EXT_SCHEDULER: Load scheduler "stal" with entities [Raubahn (ID: 16982298/0x0103211A), Raubahn (ID: 16982298/0x0103211A)], work=837*
 48: 0x0D2E [0x6A] CHANGE_SOUND_VOLUME: Set (Effects/System/Zone/Master)* volume to 555*, fade_time=150*
 49: 0x0D35 [0x5C] MUSIC_CONTROL: Set Idle (Day) music to song 150*
 50: 0x0D39 [0x5C] MUSIC_CONTROL: Set Idle (Night) music to song 150*
 51: 0x0D3D [0x9A] WAIT_MUSIC_SERVER()
 52: 0x0D3E [0x1C] WAIT(30* ticks)
 53: 0x0D41 [0x45] LOAD_SCHEDULED_TASK: Load scheduler "b112" with entities [LocalPlayer, LocalPlayer], work=[274*, 0*]
 54: 0x0D52 [0x1C] WAIT(60* ticks)
 55: 0x0D55 [0x29] REQ_SET_WAIT(priority=0x10, entity_id=LocalPlayer, tag_num=0x31)
 56: 0x0D5C [0x1C] WAIT(60* ticks)
 57: 0x0D5F [0x52] END_LOAD_SCHEDULER: End scheduler "b112" with entities [LocalPlayer, LocalPlayer], work=274*
 58: 0x0D6E [0x45] LOAD_SCHEDULED_TASK: Load scheduler "b113" with entities [LocalPlayer, LocalPlayer], work=[274*, 0*]
 59: 0x0D7F [0x29] REQ_SET_WAIT(priority=0x10, entity_id=LocalPlayer, tag_num=0x32)
 60: 0x0D86 [0x1C] WAIT(60* ticks)
 61: 0x0D89 [0x52] END_LOAD_SCHEDULER: End scheduler "b113" with entities [LocalPlayer, LocalPlayer], work=274*
 62: 0x0D98 [0x45] LOAD_SCHEDULED_TASK: Load scheduler "b114" with entities [LocalPlayer, LocalPlayer], work=[274*, 0*]
 63: 0x0DA9 [0x1C] WAIT(60* ticks)
 64: 0x0DAC [0x29] REQ_SET_WAIT(priority=0x10, entity_id=LocalPlayer, tag_num=0x33)
 65: 0x0DB3 [0x1C] WAIT(60* ticks)
 66: 0x0DB6 [0x27] REQ_SET(priority=0x10, entity_id=Unnamed NPC (ID: 16982290/0x01032112), tag_num=0x6B)
 67: 0x0DBD [0x9F] LOAD_SCHEDULED_TASK_ALT: Load scheduler "str0" with entities [Raubahn (ID: 16982298/0x0103211A), Raubahn (ID: 16982298/0x0103211A)], work=[232*, 0*]
 68: 0x0DCE [0x27] REQ_SET(priority=0x10, entity_id=LocalPlayer, tag_num=0x34)
 69: 0x0DD5 [0x52] END_LOAD_SCHEDULER: End scheduler "b114" with entities [LocalPlayer, LocalPlayer], work=274*
 70: 0x0DE4 [0x45] LOAD_SCHEDULED_TASK: Load scheduler "b115" with entities [LocalPlayer, LocalPlayer], work=[274*, 0*]
 71: 0x0DF5 [0x2B] Raubahn (ID: 16982298/0x0103211A) [8890*]:
    → "I have just received a report from the Imperial Army on the success of your task.\u0007Your skills as a blue mage are to be commended.\u007F1\u0000\u0007"
 72: 0x0DFC [0x23] WAIT_FOR_DIALOG_INTERACTION
 73: 0x0DFD [0x52] END_LOAD_SCHEDULER: End scheduler "b115" with entities [LocalPlayer, LocalPlayer], work=274*
 74: 0x0E0C [0x45] LOAD_SCHEDULED_TASK: Load scheduler "b116" with entities [LocalPlayer, LocalPlayer], work=[274*, 0*]
 75: 0x0E1D [0x2B] Raubahn (ID: 16982298/0x0103211A) [8891*]:
    → "In recognition of this achievement, I give you leave to don the magus armor representative of our order.\u007F1\u0000\u0007"
 76: 0x0E24 [0x23] WAIT_FOR_DIALOG_INTERACTION
 77: 0x0E25 [0x2B] Raubahn (ID: 16982298/0x0103211A) [8892*]:
    → "This marks your entrance into the ranks of the Immortals.\u0007Congratulations, \u0008.\u007F1\u0000\u0007"
 78: 0x0E2C [0x23] WAIT_FOR_DIALOG_INTERACTION
 79: 0x0E2D [0x4A] Raubahn (ID: 16982298/0x0103211A) looks at LocalPlayer
 80: 0x0E36 [0x52] END_LOAD_SCHEDULER: End scheduler "b116" with entities [LocalPlayer, LocalPlayer], work=274*
 81: 0x0E45 [0x45] LOAD_SCHEDULED_TASK: Load scheduler "b117" with entities [LocalPlayer, LocalPlayer], work=[274*, 0*]
 82: 0x0E56 [0x2B] Raubahn (ID: 16982298/0x0103211A) [8893*]:
    → "Visit the store named on this envelope and receive the armor you have earned.\u007F1\u0000\u0007"
 83: 0x0E5D [0x23] WAIT_FOR_DIALOG_INTERACTION
 84: 0x0E5E [0x2B] Raubahn (ID: 16982298/0x0103211A) [8894*]:
    → "Do not forget: our lives are devoted to the protection of the Empress.\u0007Nothing more, nothing less.\u007F1\u0000\u0007"
 85: 0x0E65 [0x23] WAIT_FOR_DIALOG_INTERACTION
 86: 0x0E66 [0x52] END_LOAD_SCHEDULER: End scheduler "b117" with entities [LocalPlayer, LocalPlayer], work=274*
 87: 0x0E75 [0x45] LOAD_SCHEDULED_TASK: Load scheduler "b118" with entities [LocalPlayer, LocalPlayer], work=[274*, 0*]
 88: 0x0E86 [0x27] REQ_SET(priority=0x10, entity_id=Raubahn (ID: 16982298/0x0103211A), tag_num=0x1C)
 89: 0x0E8D [0x2B] Raubahn (ID: 16982298/0x0103211A) [8895*]:
    → "We are beasts that owe our existence to the forbearance of Her Magnificence...\u0000\u0007"
 90: 0x0E94 [0x1C] WAIT(90* ticks)
 91: 0x0E97 [0x27] REQ_SET(priority=0x10, entity_id=LocalPlayer, tag_num=0x34)
 92: 0x0E9E [0x1C] WAIT(60* ticks)
 93: 0x0EA1 [0x1A] CALL_SUBROUTINE(address=0x412D)
 94: 0x0EA4 [0x1C] WAIT(30* ticks)
 95: 0x0EA7 [0x52] END_LOAD_SCHEDULER: End scheduler "b118" with entities [LocalPlayer, LocalPlayer], work=274*
 96: 0x0EB6 [0x45] LOAD_SCHEDULED_TASK: Load scheduler "0blf" with entities [LocalPlayer, LocalPlayer], work=[274*, 0*]
 97: 0x0EC7 [0x2A] GET_REQ_LEVEL(level=16, entity_id=Raubahn (ID: 16982298/0x0103211A))
 98: 0x0ECD [0x9F] LOAD_SCHEDULED_TASK_ALT: Load scheduler "kill" with entities [Raubahn (ID: 16982298/0x0103211A), Raubahn (ID: 16982298/0x0103211A)], work=[232*, 0*]
 99: 0x0EDE [0x29] REQ_SET_WAIT(priority=0x10, entity_id=Raubahn (ID: 16982298/0x0103211A), tag_num=0x05)
100: 0x0EE5 [0x35] LOAD_ZONE_NO_CLOSE(zone_id=50*)
101: 0x0EE8 [0x78] ENABLE_GAME_TIMER_RESET_WEATHER()
102: 0x0EE9 [0x1C] WAIT(1* ticks)
103: 0x0EEC [0x45] LOAD_SCHEDULED_TASK: Load scheduler "nose" with entities [LocalPlayer, LocalPlayer], work=[272*, 0*]
104: 0x0EFD [0x55] WAIT_LOAD_SCHEDULER: Wait for scheduler "nose" with entities [LocalPlayer, LocalPlayer], work=272*
105: 0x0F0C [0x6A] CHANGE_SOUND_VOLUME: Set (Effects/System/Zone/Master)* volume to 999*, fade_time=150*
106: 0x0F13 [0xAB] EventEntity->UnknownFlag = 0 // Disable unknown flag
107: 0x0F15 [0x2D] CREATE_ZONE_SCHEDULER_TASK: Create scheduler "1pb1" with entities [LocalPlayer, LocalPlayer]
108: 0x0F22 [0x5C] MUSIC_CONTROL: Set Idle (Day) music to song 178*
109: 0x0F26 [0x5C] MUSIC_CONTROL: Set Idle (Night) music to song 178*
110: 0x0F2A [0x9A] WAIT_MUSIC_SERVER()
111: 0x0F2B [0x46] CAMERA_CONTROL: Restore default settings
112: 0x0F2D [0x45] LOAD_SCHEDULED_TASK: Load scheduler "fdi2" with entities [LocalPlayer, LocalPlayer], work=[200*, 0*]
113: 0x0F3E [0x21] END_EVENT
114: 0x0F3F [0x00] END_REQSTACK()
```

### Event 714

#### Metadata

| Field        | Value     |
|--------------|-----------|
| Entrypoint   | 0x0F40    |
| Data Size    | 778 bytes |
| Instructions | 114       |

```
      00 01 02 03 04 05 06 07  08 09 0A 0B 0C 0D 0E 0F
      -- -- -- -- -- -- -- --  -- -- -- -- -- -- -- --
0F40: 42 1A 2D 41 46 01 38 00  80 92 01 1E 21 03 01 94  B.-AF.8.....!...
0F50: 01 F0 FF FF 7F 94 01 1E  21 03 01 29 10 F0 FF FF  ........!..)....
0F60: 7F 27 29 10 1E 21 03 01  1F 80 F0 FF FF 7F 80 1E  .')..!..........
0F70: 21 03 01 4A F0 FF FF 7F  1E 21 03 01 4A 1E 21 03  !..J.....!..J.!.
0F80: 01 F0 FF FF 7F 5C 00 4F  80 5C 01 4F 80 9A 1C 09  .....\.O.\.O....
0F90: 80 45 12 80 F0 FF FF 7F  F0 FF FF 7F 30 73 30 30  .E..........0s00
0FA0: 02 80 1A 0C 41 2B 1E 21  03 01 50 80 23 6E F0 FF  ....A+.!..P.#n..
0FB0: FF 7F 02 80 99 F0 FF FF  7F 99 F0 FF FF 7F 1C 09  ................
0FC0: 80 52 12 80 F0 FF FF 7F  F0 FF FF 7F 30 73 30 30  .R..........0s00
0FD0: 45 12 80 F0 FF FF 7F F0  FF FF 7F 30 73 30 31 02  E..........0s01.
0FE0: 80 6E 1E 21 03 01 51 80  99 1E 21 03 01 99 1E 21  .n.!..Q...!....!
0FF0: 03 01 2B 1E 21 03 01 52  80 23 52 12 80 F0 FF FF  ..+.!..R.#R.....
1000: 7F F0 FF FF 7F 30 73 30  31 45 12 80 F0 FF FF 7F  .....0s01E......
1010: F0 FF FF 7F 30 73 30 32  02 80 6E 1E 21 03 01 53  ....0s02..n.!..S
1020: 80 99 1E 21 03 01 99 1E  21 03 01 27 10 F0 FF FF  ...!....!..'....
1030: 7F 5B 2B 1E 21 03 01 54  80 23 2A 10 F0 FF FF 7F  .[+.!..T.#*.....
1040: 52 12 80 F0 FF FF 7F F0  FF FF 7F 30 73 30 32 45  R..........0s02E
1050: 12 80 F0 FF FF 7F F0 FF  FF 7F 30 73 30 33 02 80  ..........0s03..
1060: 6E 1E 21 03 01 55 80 99  1E 21 03 01 99 1E 21 03  n.!..U...!....!.
1070: 01 2B 1E 21 03 01 56 80  23 1C 57 80 5D 02 80 04  .+.!..V.#.W.]...
1080: 80 2C 1E 21 03 01 1E 21  03 01 64 65 61 64 6E F0  .,.!...!..deadn.
1090: FF FF 7F 51 80 99 F0 FF  FF 7F 1C 04 80 1A 2D 41  ...Q..........-A
10A0: 1C 04 80 29 10 F0 FF FF  7F 36 1C 0B 80 4A 1E 21  ...).....6...J.!
10B0: 03 01 F0 FF FF 7F 6B 69  64 6C 30 1E 21 03 01 5C  ......kidl0.!..\
10C0: 00 26 80 5C 01 26 80 9A  1C 04 80 52 12 80 F0 FF  .&.\.&.....R....
10D0: FF 7F F0 FF FF 7F 30 73  30 33 45 12 80 F0 FF FF  ......0s03E.....
10E0: 7F F0 FF FF 7F 30 73 30  34 02 80 1C 0B 80 1A 0C  .....0s04.......
10F0: 41 2B 1E 21 03 01 58 80  23 52 12 80 F0 FF FF 7F  A+.!..X.#R......
1100: F0 FF FF 7F 30 73 30 34  45 12 80 F0 FF FF 7F F0  ....0s04E.......
1110: FF FF 7F 30 73 30 35 02  80 6E 1E 21 03 01 03 80  ...0s05..n.!....
1120: 99 1E 21 03 01 99 1E 21  03 01 2B 1E 21 03 01 59  ..!....!..+.!..Y
1130: 80 23 52 12 80 F0 FF FF  7F F0 FF FF 7F 30 73 30  .#R..........0s0
1140: 35 45 12 80 F0 FF FF 7F  F0 FF FF 7F 30 73 30 36  5E..........0s06
1150: 02 80 6E F0 FF FF 7F 5A  80 99 F0 FF FF 7F 99 F0  ..n....Z........
1160: FF FF 7F 1C 09 80 2B 1E  21 03 01 5B 80 23 6E 1E  ......+.!..[.#n.
1170: 21 03 01 07 80 99 1E 21  03 01 99 1E 21 03 01 2B  !......!....!..+
1180: 1E 21 03 01 5C 80 23 66  5D 80 1E 21 03 01 1E 21  .!..\.#f]..!...!
1190: 03 01 74 68 6B 31 1C 0B  80 52 12 80 F0 FF FF 7F  ..thk1...R......
11A0: F0 FF FF 7F 30 73 30 36  45 12 80 F0 FF FF 7F F0  ....0s06E.......
11B0: FF FF 7F 30 73 30 37 02  80 2B 1E 21 03 01 5E 80  ...0s07..+.!..^.
11C0: 23 7C 00 1E 21 03 01 2B  1E 21 03 01 5F 80 23 7C  #|..!..+.!.._.#|
11D0: 01 1E 21 03 01 52 12 80  F0 FF FF 7F F0 FF FF 7F  ..!..R..........
11E0: 30 73 30 37 45 12 80 F0  FF FF 7F F0 FF FF 7F 30  0s07E..........0
11F0: 73 30 38 02 80 66 5D 80  1E 21 03 01 1E 21 03 01  s08..f]..!...!..
1200: 74 68 6B 32 53 1E 21 03  01 1E 21 03 01 74 68 6B  thk2S.!...!..thk
1210: 32 2B 1E 21 03 01 60 80  23 1A 2D 41 1C 09 80 29  2+.!..`.#.-A...)
1220: 10 1E 21 03 01 20 52 12  80 F0 FF FF 7F F0 FF FF  ..!.. R.........
1230: 7F 30 73 30 38 46 00 45  27 80 F0 FF FF 7F F0 FF  .0s08F.E'.......
1240: FF 7F 66 64 69 32 02 80  21 00                    ..fdi2..!.      
```

#### Opcodes

```
  0: 0x0F40 [0x42] SET_CLI_EVENT_CANCEL_DATA()
  1: 0x0F41 [0x1A] CALL_SUBROUTINE(address=0x412D)
  2: 0x0F44 [0x46] CAMERA_CONTROL: Disable user control
  3: 0x0F46 [0x38] SET_CLIENT_EVENT_MODE(mode=19*)
  4: 0x0F49 [0x92] Lathuya (ID: 16982302/0x0103211E)->Render.Flags3 ^= 0x01
  5: 0x0F4F [0x94] LocalPlayer->Render.Flags3 ^= 0x01
  6: 0x0F55 [0x94] Lathuya (ID: 16982302/0x0103211E)->Render.Flags3 ^= 0x01
  7: 0x0F5B [0x29] REQ_SET_WAIT(priority=0x10, entity_id=LocalPlayer, tag_num=0x27)
  8: 0x0F62 [0x29] REQ_SET_WAIT(priority=0x10, entity_id=Lathuya (ID: 16982302/0x0103211E), tag_num=0x1F)
  9: 0x0F69 [0x80] LOAD_WAIT(entity=LocalPlayer)
 10: 0x0F6E [0x80] LOAD_WAIT(entity=Lathuya (ID: 16982302/0x0103211E))
 11: 0x0F73 [0x4A] LocalPlayer looks at Lathuya (ID: 16982302/0x0103211E)
 12: 0x0F7C [0x4A] Lathuya (ID: 16982302/0x0103211E) looks at LocalPlayer
 13: 0x0F85 [0x5C] MUSIC_CONTROL: Set Idle (Day) music to song 163*
 14: 0x0F89 [0x5C] MUSIC_CONTROL: Set Idle (Night) music to song 163*
 15: 0x0F8D [0x9A] WAIT_MUSIC_SERVER()
 16: 0x0F8E [0x1C] WAIT(30* ticks)
 17: 0x0F91 [0x45] LOAD_SCHEDULED_TASK: Load scheduler "0s00" with entities [LocalPlayer, LocalPlayer], work=[274*, 0*]
 18: 0x0FA2 [0x1A] CALL_SUBROUTINE(address=0x410C)
 19: 0x0FA5 [0x2B] Lathuya (ID: 16982302/0x0103211E) [8897*]:
    → "What can I do for you?\u007F1\u0000\u0007"
 20: 0x0FAC [0x23] WAIT_FOR_DIALOG_INTERACTION
 21: 0x0FAD [0x6E] LocalPlayer uses emote 0*
 22: 0x0FB4 [0x99] Wait for LocalPlayer animation to complete
 23: 0x0FB9 [0x99] Wait for LocalPlayer animation to complete
 24: 0x0FBE [0x1C] WAIT(30* ticks)
 25: 0x0FC1 [0x52] END_LOAD_SCHEDULER: End scheduler "0s00" with entities [LocalPlayer, LocalPlayer], work=274*
 26: 0x0FD0 [0x45] LOAD_SCHEDULED_TASK: Load scheduler "0s01" with entities [LocalPlayer, LocalPlayer], work=[274*, 0*]
 27: 0x0FE1 [0x6E] Lathuya (ID: 16982302/0x0103211E) uses emote 21*
 28: 0x0FE8 [0x99] Wait for Lathuya (ID: 16982302/0x0103211E) animation to complete
 29: 0x0FED [0x99] Wait for Lathuya (ID: 16982302/0x0103211E) animation to complete
 30: 0x0FF2 [0x2B] Lathuya (ID: 16982302/0x0103211E) [8898*]:
    → "Wha-!?\u0007The M-Mark of Zahak!\u007F1\u0000\u0007"
 31: 0x0FF9 [0x23] WAIT_FOR_DIALOG_INTERACTION
 32: 0x0FFA [0x52] END_LOAD_SCHEDULER: End scheduler "0s01" with entities [LocalPlayer, LocalPlayer], work=274*
 33: 0x1009 [0x45] LOAD_SCHEDULED_TASK: Load scheduler "0s02" with entities [LocalPlayer, LocalPlayer], work=[274*, 0*]
 34: 0x101A [0x6E] Lathuya (ID: 16982302/0x0103211E) uses emote 6*
 35: 0x1021 [0x99] Wait for Lathuya (ID: 16982302/0x0103211E) animation to complete
 36: 0x1026 [0x99] Wait for Lathuya (ID: 16982302/0x0103211E) animation to complete
 37: 0x102B [0x27] REQ_SET(priority=0x10, entity_id=LocalPlayer, tag_num=0x5B)
 38: 0x1032 [0x2B] Lathuya (ID: 16982302/0x0103211E) [8899*]:
    → "Y-you...you're an Immortal?\u007F1\u0000\u0007"
 39: 0x1039 [0x23] WAIT_FOR_DIALOG_INTERACTION
 40: 0x103A [0x2A] GET_REQ_LEVEL(level=16, entity_id=LocalPlayer)
 41: 0x1040 [0x52] END_LOAD_SCHEDULER: End scheduler "0s02" with entities [LocalPlayer, LocalPlayer], work=274*
 42: 0x104F [0x45] LOAD_SCHEDULED_TASK: Load scheduler "0s03" with entities [LocalPlayer, LocalPlayer], work=[274*, 0*]
 43: 0x1060 [0x6E] Lathuya (ID: 16982302/0x0103211E) uses emote 29*
 44: 0x1067 [0x99] Wait for Lathuya (ID: 16982302/0x0103211E) animation to complete
 45: 0x106C [0x99] Wait for Lathuya (ID: 16982302/0x0103211E) animation to complete
 46: 0x1071 [0x2B] Lathuya (ID: 16982302/0x0103211E) [8900*]:
    → "Oh my!\u0007A thousand pardons! A thousand thousand pardons!\u0007You see, the master craftsman...he's...he's not here...\u0007Your armor is not...it's not ready...\u007F1\u0000\u0007"
 47: 0x1078 [0x23] WAIT_FOR_DIALOG_INTERACTION
 48: 0x1079 [0x1C] WAIT(20* ticks)
 49: 0x107C [0x5D] SET_MUSIC_VOLUME(volume=0*, fade_time=60*)
 50: 0x1081 [0x2C] CREATE_SCHEDULER_TASK: Create scheduler "dead" with entities [Lathuya (ID: 16982302/0x0103211E), Lathuya (ID: 16982302/0x0103211E)]
 51: 0x108E [0x6E] LocalPlayer uses emote 21*
 52: 0x1095 [0x99] Wait for LocalPlayer animation to complete
 53: 0x109A [0x1C] WAIT(60* ticks)
 54: 0x109D [0x1A] CALL_SUBROUTINE(address=0x412D)
 55: 0x10A0 [0x1C] WAIT(60* ticks)
 56: 0x10A3 [0x29] REQ_SET_WAIT(priority=0x10, entity_id=LocalPlayer, tag_num=0x36)
 57: 0x10AA [0x1C] WAIT(15* ticks)
 58: 0x10AD [0x4A] Lathuya (ID: 16982302/0x0103211E) looks at LocalPlayer
 59: 0x10B6 [0x6B] STOP_AND_IDLE: Lathuya (ID: 16982302/0x0103211E) stops current action and resets to idle (animation="idl0")
 60: 0x10BF [0x5C] MUSIC_CONTROL: Set Idle (Day) music to song 178*
 61: 0x10C3 [0x5C] MUSIC_CONTROL: Set Idle (Night) music to song 178*
 62: 0x10C7 [0x9A] WAIT_MUSIC_SERVER()
 63: 0x10C8 [0x1C] WAIT(60* ticks)
 64: 0x10CB [0x52] END_LOAD_SCHEDULER: End scheduler "0s03" with entities [LocalPlayer, LocalPlayer], work=274*
 65: 0x10DA [0x45] LOAD_SCHEDULED_TASK: Load scheduler "0s04" with entities [LocalPlayer, LocalPlayer], work=[274*, 0*]
 66: 0x10EB [0x1C] WAIT(15* ticks)
 67: 0x10EE [0x1A] CALL_SUBROUTINE(address=0x410C)
 68: 0x10F1 [0x2B] Lathuya (ID: 16982302/0x0103211E) [8901*]:
    → "I'm, well...you can see how it is.\u0007Even if I knew where he had gone, I couldn't follow...\u0007My boss knew this was coming--he has a cruel streak, I fear.\u007F1\u0000\u0007"
 69: 0x10F8 [0x23] WAIT_FOR_DIALOG_INTERACTION
 70: 0x10F9 [0x52] END_LOAD_SCHEDULER: End scheduler "0s04" with entities [LocalPlayer, LocalPlayer], work=274*
 71: 0x1108 [0x45] LOAD_SCHEDULED_TASK: Load scheduler "0s05" with entities [LocalPlayer, LocalPlayer], work=[274*, 0*]
 72: 0x1119 [0x6E] Lathuya (ID: 16982302/0x0103211E) uses emote 5*
 73: 0x1120 [0x99] Wait for Lathuya (ID: 16982302/0x0103211E) animation to complete
 74: 0x1125 [0x99] Wait for Lathuya (ID: 16982302/0x0103211E) animation to complete
 75: 0x112A [0x2B] Lathuya (ID: 16982302/0x0103211E) [8902*]:
    → "It always falls to me to apologize to the customers...\u007F1\u0000\u0007"
 76: 0x1131 [0x23] WAIT_FOR_DIALOG_INTERACTION
 77: 0x1132 [0x52] END_LOAD_SCHEDULER: End scheduler "0s05" with entities [LocalPlayer, LocalPlayer], work=274*
 78: 0x1141 [0x45] LOAD_SCHEDULED_TASK: Load scheduler "0s06" with entities [LocalPlayer, LocalPlayer], work=[274*, 0*]
 79: 0x1152 [0x6E] LocalPlayer uses emote 22*
 80: 0x1159 [0x99] Wait for LocalPlayer animation to complete
 81: 0x115E [0x99] Wait for LocalPlayer animation to complete
 82: 0x1163 [0x1C] WAIT(30* ticks)
 83: 0x1166 [0x2B] Lathuya (ID: 16982302/0x0103211E) [8903*]:
    → "What's that?\u0007You want to know where he's gone?\u007F1\u0000\u0007"
 84: 0x116D [0x23] WAIT_FOR_DIALOG_INTERACTION
 85: 0x116E [0x6E] Lathuya (ID: 16982302/0x0103211E) uses emote 1*
 86: 0x1175 [0x99] Wait for Lathuya (ID: 16982302/0x0103211E) animation to complete
 87: 0x117A [0x99] Wait for Lathuya (ID: 16982302/0x0103211E) animation to complete
 88: 0x117F [0x2B] Lathuya (ID: 16982302/0x0103211E) [8904*]:
    → "My m-most humble apologies.\u0007When the orders start piling up, my boss goes fishing.\u0007\u00072Runs away\u00073 is perhaps a more fitting term.\u0007The problem is, he doesn't go to the sea, or to a river...\u007F1\u0000\u0007"
 89: 0x1186 [0x23] WAIT_FOR_DIALOG_INTERACTION
 90: 0x1187 [0x66] LOAD_EXT_SCHEDULER_MAIN: Load scheduler "thk1" with entities [Lathuya (ID: 16982302/0x0103211E), Lathuya (ID: 16982302/0x0103211E)], work=39*
 91: 0x1196 [0x1C] WAIT(15* ticks)
 92: 0x1199 [0x52] END_LOAD_SCHEDULER: End scheduler "0s06" with entities [LocalPlayer, LocalPlayer], work=274*
 93: 0x11A8 [0x45] LOAD_SCHEDULED_TASK: Load scheduler "0s07" with entities [LocalPlayer, LocalPlayer], work=[274*, 0*]
 94: 0x11B9 [0x2B] Lathuya (ID: 16982302/0x0103211E) [8905*]:
    → "There's a place beneath the Wajaom Woodlands--an expansive network of caves known as the Aydeewa Subterrane.\u0007If you went in there without a map, you'd never come out...\u007F1\u0000\u0007"
 95: 0x11C0 [0x23] WAIT_FOR_DIALOG_INTERACTION
 96: 0x11C1 [0x7C] Lathuya (ID: 16982302/0x0103211E)->Render.Flags2 |= 0x00
 97: 0x11C7 [0x2B] Lathuya (ID: 16982302/0x0103211E) [8906*]:
    → "...\u007F1\u0000\u0007"
 98: 0x11CE [0x23] WAIT_FOR_DIALOG_INTERACTION
 99: 0x11CF [0x7C] Lathuya (ID: 16982302/0x0103211E)->Render.Flags2 |= 0x01
100: 0x11D5 [0x52] END_LOAD_SCHEDULER: End scheduler "0s07" with entities [LocalPlayer, LocalPlayer], work=274*
101: 0x11E4 [0x45] LOAD_SCHEDULED_TASK: Load scheduler "0s08" with entities [LocalPlayer, LocalPlayer], work=[274*, 0*]
102: 0x11F5 [0x66] LOAD_EXT_SCHEDULER_MAIN: Load scheduler "thk2" with entities [Lathuya (ID: 16982302/0x0103211E), Lathuya (ID: 16982302/0x0103211E)], work=39*
103: 0x1204 [0x53] WAIT_SCHEDULER_TASK: Wait for scheduler "thk2" with entities [Lathuya (ID: 16982302/0x0103211E), Lathuya (ID: 16982302/0x0103211E)]
104: 0x1211 [0x2B] Lathuya (ID: 16982302/0x0103211E) [8907*]:
    → "I'm sure once my boss comes back, he'll get right to work on your armor...\u0007That is, if you wouldn't mind waiting.\u0007A thousand thousand thousand pardons...\u007F1\u0000\u0007"
105: 0x1218 [0x23] WAIT_FOR_DIALOG_INTERACTION
106: 0x1219 [0x1A] CALL_SUBROUTINE(address=0x412D)
107: 0x121C [0x1C] WAIT(30* ticks)
108: 0x121F [0x29] REQ_SET_WAIT(priority=0x10, entity_id=Lathuya (ID: 16982302/0x0103211E), tag_num=0x20)
109: 0x1226 [0x52] END_LOAD_SCHEDULER: End scheduler "0s08" with entities [LocalPlayer, LocalPlayer], work=274*
110: 0x1235 [0x46] CAMERA_CONTROL: Restore default settings
111: 0x1237 [0x45] LOAD_SCHEDULED_TASK: Load scheduler "fdi2" with entities [LocalPlayer, LocalPlayer], work=[200*, 0*]
112: 0x1248 [0x21] END_EVENT
113: 0x1249 [0x00] END_REQSTACK()
```

### Event 716

#### Metadata

| Field        | Value     |
|--------------|-----------|
| Entrypoint   | 0x124A    |
| Data Size    | 622 bytes |
| Instructions | 86        |

```
      00 01 02 03 04 05 06 07  08 09 0A 0B 0C 0D 0E 0F
      -- -- -- -- -- -- -- --  -- -- -- -- -- -- -- --
1240:                                42 1A 2D 41 46 01            B.-AF.
1250: 38 00 80 27 10 1F 21 03  01 02 92 01 1E 21 03 01  8..'..!......!..
1260: 92 01 1F 21 03 01 94 01  F0 FF FF 7F 94 01 1E 21  ...!...........!
1270: 03 01 94 01 1F 21 03 01  29 10 F0 FF FF 7F 27 29  .....!..).....')
1280: 10 1F 21 03 01 0F 29 10  1E 21 03 01 1F 80 F0 FF  ..!...)..!......
1290: FF 7F 80 1E 21 03 01 80  1F 21 03 01 4A F0 FF FF  ....!....!..J...
12A0: 7F 1E 21 03 01 4A 1E 21  03 01 F0 FF FF 7F 45 12  ..!..J.!......E.
12B0: 80 F0 FF FF 7F F0 FF FF  7F 30 73 30 39 02 80 1C  .........0s09...
12C0: 0B 80 1A 0C 41 6E 1E 21  03 01 51 80 99 1E 21 03  ....An.!..Q...!.
12D0: 01 99 1E 21 03 01 1C 0B  80 2B 1E 21 03 01 61 80  ...!.....+.!..a.
12E0: 23 4A 1E 21 03 01 1F 21  03 01 79 00 F0 FF FF 7F  #J.!...!..y.....
12F0: 1F 21 03 01 27 10 12 21  03 01 6E 1C 0B 80 52 12  .!..'..!..n...R.
1300: 80 F0 FF FF 7F F0 FF FF  7F 30 73 30 39 45 12 80  .........0s09E..
1310: F0 FF FF 7F F0 FF FF 7F  30 73 31 30 02 80 79 00  ........0s10..y.
1320: 1F 21 03 01 F0 FF FF 7F  2B 1F 21 03 01 62 80 23  .!......+.!..b.#
1330: 27 10 1F 21 03 01 10 1C  3C 80 27 10 1E 21 03 01  '..!....<.'..!..
1340: 21 52 12 80 F0 FF FF 7F  F0 FF FF 7F 30 73 31 30  !R..........0s10
1350: 45 12 80 F0 FF FF 7F F0  FF FF 7F 30 73 31 31 02  E..........0s11.
1360: 80 2A 10 1F 21 03 01 4A  F0 FF FF 7F 1F 21 03 01  .*..!..J.....!..
1370: 66 55 80 1F 21 03 01 1F  21 03 01 74 77 62 30 93  fU..!...!..twb0.
1380: 63 80 03 02 10 63 80 2B  1F 21 03 01 64 80 23 93  c....c.+.!..d.#.
1390: 02 80 52 12 80 F0 FF FF  7F F0 FF FF 7F 30 73 31  ..R..........0s1
13A0: 31 45 12 80 F0 FF FF 7F  F0 FF FF 7F 30 73 31 32  1E..........0s12
13B0: 02 80 66 55 80 1F 21 03  01 1F 21 03 01 74 77 62  ..fU..!...!..twb
13C0: 31 2B 1F 21 03 01 65 80  23 53 1F 21 03 01 1F 21  1+.!..e.#S.!...!
13D0: 03 01 74 77 62 31 6E 1F  21 03 01 00 80 99 1F 21  ..twb1n.!......!
13E0: 03 01 99 1F 21 03 01 2B  1F 21 03 01 66 80 23 1C  ....!..+.!..f.#.
13F0: 09 80 4A 1F 21 03 01 F0  FF FF 7F 52 12 80 F0 FF  ..J.!......R....
1400: FF 7F F0 FF FF 7F 30 73  31 32 45 12 80 F0 FF FF  ......0s12E.....
1410: 7F F0 FF FF 7F 30 73 31  33 02 80 6F 76 1F 21 03  .....0s13..ov.!.
1420: 01 2B 1F 21 03 01 67 80  23 6E 1F 21 03 01 68 80  .+.!..g.#n.!..h.
1430: 99 1F 21 03 01 99 1F 21  03 01 2B 1F 21 03 01 69  ..!....!..+.!..i
1440: 80 23 52 12 80 F0 FF FF  7F F0 FF FF 7F 30 73 31  .#R..........0s1
1450: 33 45 12 80 F0 FF FF 7F  F0 FF FF 7F 30 73 31 34  3E..........0s14
1460: 02 80 27 10 1F 21 03 01  11 1C 6A 80 45 12 80 F0  ..'..!....j.E...
1470: FF FF 7F F0 FF FF 7F 30  6F 70 63 02 80 1A 2D 41  .......0opc...-A
1480: 1C 04 80 52 12 80 F0 FF  FF 7F F0 FF FF 7F 30 73  ...R..........0s
1490: 31 34 46 00 45 33 80 F8  FF FF 7F F8 FF FF 7F 71  14F.E3.........q
14A0: 73 74 63 02 80 45 27 80  F0 FF FF 7F F0 FF FF 7F  stc..E'.........
14B0: 66 64 69 32 02 80 21 00                           fdi2..!.        
```

#### Opcodes

```
  0: 0x124A [0x42] SET_CLI_EVENT_CANCEL_DATA()
  1: 0x124B [0x1A] CALL_SUBROUTINE(address=0x412D)
  2: 0x124E [0x46] CAMERA_CONTROL: Disable user control
  3: 0x1250 [0x38] SET_CLIENT_EVENT_MODE(mode=19*)
  4: 0x1253 [0x27] REQ_SET(priority=0x10, entity_id=Kushdeel (ID: 16982303/0x0103211F), tag_num=0x02)
  5: 0x125A [0x92] Lathuya (ID: 16982302/0x0103211E)->Render.Flags3 ^= 0x01
  6: 0x1260 [0x92] Kushdeel (ID: 16982303/0x0103211F)->Render.Flags3 ^= 0x01
  7: 0x1266 [0x94] LocalPlayer->Render.Flags3 ^= 0x01
  8: 0x126C [0x94] Lathuya (ID: 16982302/0x0103211E)->Render.Flags3 ^= 0x01
  9: 0x1272 [0x94] Kushdeel (ID: 16982303/0x0103211F)->Render.Flags3 ^= 0x01
 10: 0x1278 [0x29] REQ_SET_WAIT(priority=0x10, entity_id=LocalPlayer, tag_num=0x27)
 11: 0x127F [0x29] REQ_SET_WAIT(priority=0x10, entity_id=Kushdeel (ID: 16982303/0x0103211F), tag_num=0x0F)
 12: 0x1286 [0x29] REQ_SET_WAIT(priority=0x10, entity_id=Lathuya (ID: 16982302/0x0103211E), tag_num=0x1F)
 13: 0x128D [0x80] LOAD_WAIT(entity=LocalPlayer)
 14: 0x1292 [0x80] LOAD_WAIT(entity=Lathuya (ID: 16982302/0x0103211E))
 15: 0x1297 [0x80] LOAD_WAIT(entity=Kushdeel (ID: 16982303/0x0103211F))
 16: 0x129C [0x4A] LocalPlayer looks at Lathuya (ID: 16982302/0x0103211E)
 17: 0x12A5 [0x4A] Lathuya (ID: 16982302/0x0103211E) looks at LocalPlayer
 18: 0x12AE [0x45] LOAD_SCHEDULED_TASK: Load scheduler "0s09" with entities [LocalPlayer, LocalPlayer], work=[274*, 0*]
 19: 0x12BF [0x1C] WAIT(15* ticks)
 20: 0x12C2 [0x1A] CALL_SUBROUTINE(address=0x410C)
 21: 0x12C5 [0x6E] Lathuya (ID: 16982302/0x0103211E) uses emote 21*
 22: 0x12CC [0x99] Wait for Lathuya (ID: 16982302/0x0103211E) animation to complete
 23: 0x12D1 [0x99] Wait for Lathuya (ID: 16982302/0x0103211E) animation to complete
 24: 0x12D6 [0x1C] WAIT(15* ticks)
 25: 0x12D9 [0x2B] Lathuya (ID: 16982302/0x0103211E) [8908*]:
    → "Oh! It's you.\u0007The master craftsman has just ret--\u007F1\u0000\u0007"
 26: 0x12E0 [0x23] WAIT_FOR_DIALOG_INTERACTION
 27: 0x12E1 [0x4A] Lathuya (ID: 16982302/0x0103211E) looks at Kushdeel (ID: 16982303/0x0103211F)
 28: 0x12EA [0x79] LocalPlayer looks at Kushdeel (ID: 16982303/0x0103211F) (Basic look)
 29: 0x12F4 [0x27] REQ_SET(priority=0x10, entity_id=Unnamed NPC (ID: 16982290/0x01032112), tag_num=0x6E)
 30: 0x12FB [0x1C] WAIT(15* ticks)
 31: 0x12FE [0x52] END_LOAD_SCHEDULER: End scheduler "0s09" with entities [LocalPlayer, LocalPlayer], work=274*
 32: 0x130D [0x45] LOAD_SCHEDULED_TASK: Load scheduler "0s10" with entities [LocalPlayer, LocalPlayer], work=[274*, 0*]
 33: 0x131E [0x79] Kushdeel (ID: 16982303/0x0103211F) looks at LocalPlayer (Basic look)
 34: 0x1328 [0x2B] Kushdeel (ID: 16982303/0x0103211F) [8909*]:
    → "Ah, you finally made it.\u0007I have your order all ready and waiting.\u007F1\u0000\u0007"
 35: 0x132F [0x23] WAIT_FOR_DIALOG_INTERACTION
 36: 0x1330 [0x27] REQ_SET(priority=0x10, entity_id=Kushdeel (ID: 16982303/0x0103211F), tag_num=0x10)
 37: 0x1337 [0x1C] WAIT(45* ticks)
 38: 0x133A [0x27] REQ_SET(priority=0x10, entity_id=Lathuya (ID: 16982302/0x0103211E), tag_num=0x21)
 39: 0x1341 [0x52] END_LOAD_SCHEDULER: End scheduler "0s10" with entities [LocalPlayer, LocalPlayer], work=274*
 40: 0x1350 [0x45] LOAD_SCHEDULED_TASK: Load scheduler "0s11" with entities [LocalPlayer, LocalPlayer], work=[274*, 0*]
 41: 0x1361 [0x2A] GET_REQ_LEVEL(level=16, entity_id=Kushdeel (ID: 16982303/0x0103211F))
 42: 0x1367 [0x4A] LocalPlayer looks at Kushdeel (ID: 16982303/0x0103211F)
 43: 0x1370 [0x66] LOAD_EXT_SCHEDULER_MAIN: Load scheduler "twb0" with entities [Kushdeel (ID: 16982303/0x0103211F), Kushdeel (ID: 16982303/0x0103211F)], work=29*
 44: 0x137F [0x93] DISPLAY_ITEM_INFO(item_id=15684*)
 45: 0x1382 [0x03] Work_Zone[2] = 15684*
 46: 0x1387 [0x2B] Kushdeel (ID: 16982303/0x0103211F) [8910*]:
    → "Standard-quality \u0001\u0005#\u0002\u0000\u0000\u0000.\u007F1\u0000\u0007"
 47: 0x138E [0x23] WAIT_FOR_DIALOG_INTERACTION
 48: 0x138F [0x93] DISPLAY_ITEM_INFO(item_id=0*)
 49: 0x1392 [0x52] END_LOAD_SCHEDULER: End scheduler "0s11" with entities [LocalPlayer, LocalPlayer], work=274*
 50: 0x13A1 [0x45] LOAD_SCHEDULED_TASK: Load scheduler "0s12" with entities [LocalPlayer, LocalPlayer], work=[274*, 0*]
 51: 0x13B2 [0x66] LOAD_EXT_SCHEDULER_MAIN: Load scheduler "twb1" with entities [Kushdeel (ID: 16982303/0x0103211F), Kushdeel (ID: 16982303/0x0103211F)], work=29*
 52: 0x13C1 [0x2B] Kushdeel (ID: 16982303/0x0103211F) [8911*]:
    → "Hmph. Which would make you a newly recruited Immortal.\u007F1\u0000\u0007"
 53: 0x13C8 [0x23] WAIT_FOR_DIALOG_INTERACTION
 54: 0x13C9 [0x53] WAIT_SCHEDULER_TASK: Wait for scheduler "twb1" with entities [Kushdeel (ID: 16982303/0x0103211F), Kushdeel (ID: 16982303/0x0103211F)]
 55: 0x13D6 [0x6E] Kushdeel (ID: 16982303/0x0103211F) uses emote 19*
 56: 0x13DD [0x99] Wait for Kushdeel (ID: 16982303/0x0103211F) animation to complete
 57: 0x13E2 [0x99] Wait for Kushdeel (ID: 16982303/0x0103211F) animation to complete
 58: 0x13E7 [0x2B] Kushdeel (ID: 16982303/0x0103211F) [8912*]:
    → "It's been a while since the sight of the Mark of Zahak has thrown my thoughts into such disarray.\u0007Though it did help to clear my head, strangely enough.\u007F1\u0000\u0007"
 59: 0x13EE [0x23] WAIT_FOR_DIALOG_INTERACTION
 60: 0x13EF [0x1C] WAIT(30* ticks)
 61: 0x13F2 [0x4A] Kushdeel (ID: 16982303/0x0103211F) looks at LocalPlayer
 62: 0x13FB [0x52] END_LOAD_SCHEDULER: End scheduler "0s12" with entities [LocalPlayer, LocalPlayer], work=274*
 63: 0x140A [0x45] LOAD_SCHEDULED_TASK: Load scheduler "0s13" with entities [LocalPlayer, LocalPlayer], work=[274*, 0*]
 64: 0x141B [0x6F] WAIT_FRAME_DELAY: Yield until WaitTime reaches zero
 65: 0x141C [0x76] CHECK_ENTITY_RENDER_FLAGS: Wait until Kushdeel (ID: 16982303/0x0103211F) Render.Flags0 and Render.Flags3 conditions are met
 66: 0x1421 [0x2B] Kushdeel (ID: 16982303/0x0103211F) [8913*]:
