# 16982548

## Common Data

| Field            | Value                         |
|------------------|-------------------------------|
| Zone             | Aht Urhgan Whitegate (ID: 50) |
| Block Size       | 1024 bytes                    |
| Total Events     | 29                            |
| References Count | 72                            |

## List of Events

| Event ID                   | Entrypoint   |   Size |   Instructions |
|----------------------------|--------------|--------|----------------|
| [65535](#event-65535)      | 0x0000       |      1 |              1 |
| [889](#event-889)          | 0x0001       |      1 |              1 |
| [65535.1](#event-655351)   | 0x0002       |      9 |              3 |
| [65535.2](#event-655352)   | 0x000B       |     40 |              4 |
| [65535.3](#event-655353)   | 0x0033       |     19 |              3 |
| [65535.4](#event-655354)   | 0x0046       |     10 |              2 |
| [65535.5](#event-655355)   | 0x0050       |     27 |              3 |
| [65535.6](#event-655356)   | 0x006B       |     16 |              4 |
| [65535.7](#event-655357)   | 0x007B       |     10 |              2 |
| [65535.8](#event-655358)   | 0x0085       |     14 |              2 |
| [65535.9](#event-655359)   | 0x0093       |     14 |              2 |
| [65535.10](#event-6553510) | 0x00A1       |     14 |              2 |
| [65535.11](#event-6553511) | 0x00AF       |     20 |              4 |
| [65535.12](#event-6553512) | 0x00C3       |     10 |              2 |
| [65535.13](#event-6553513) | 0x00CD       |     14 |              4 |
| [65535.14](#event-6553514) | 0x00DB       |      9 |              3 |
| [65535.15](#event-6553515) | 0x00E4       |     10 |              2 |
| [65535.16](#event-6553516) | 0x00EE       |     10 |              2 |
| [65535.17](#event-6553517) | 0x00F8       |     10 |              2 |
| [65535.18](#event-6553518) | 0x0102       |     28 |              8 |
| [890](#event-890)          | 0x011E       |      1 |              1 |
| [65535.19](#event-6553519) | 0x011F       |     10 |              2 |
| [65535.20](#event-6553520) | 0x0129       |     58 |             10 |
| [65535.21](#event-6553521) | 0x0163       |     27 |              5 |
| [65535.22](#event-6553522) | 0x017E       |     67 |             13 |
| [65535.23](#event-6553523) | 0x01C1       |     10 |              2 |
| [65535.24](#event-6553524) | 0x01CB       |     36 |             10 |
| [65535.25](#event-6553525) | 0x01EF       |     52 |              8 |
| [65535.26](#event-6553526) | 0x0223       |     56 |             10 |

## DAT References (imed_data)

|   Index | Hex Value   |   Dec Value |
|---------|-------------|-------------|
|       0 | 0xFFFF9A96  |  4294941334 |
|       1 | 0xFFFC55A4  |  4294727076 |
|       2 | 0xFFFFF310  |  4294963984 |
|       3 | 0x0B01      |        2817 |
|       4 | 0xFFFE7D54  |  4294868308 |
|       5 | 0xFFFEF3E6  |  4294898662 |
|       6 | 0x2D85      |       11653 |
|       7 | 0x02D3      |         723 |
|       8 | 0xFFFEF334  |  4294898484 |
|       9 | 0xFFFF308B  |  4294914187 |
|      10 | 0x273D      |       10045 |
|      11 | 0x072E      |        1838 |
|      12 | 0x0008      |           8 |
|      13 | 0xFFFF939E  |  4294939550 |
|      14 | 0xFFFC5EDD  |  4294729437 |
|      15 | 0xFFFFF3C4  |  4294964164 |
|      16 | 0x0078      |         120 |
|      17 | 0xFFFFA0C9  |  4294942921 |
|      18 | 0xFFFC495F  |  4294723935 |
|      19 | 0xFFFFF4D3  |  4294964435 |
|      20 | 0x001E      |          30 |
|      21 | 0x003C      |          60 |
|      22 | 0xFFFE2652  |  4294846034 |
|      23 | 0xFFFFC3B9  |  4294951865 |
|      24 | 0x1C1F      |        7199 |
|      25 | 0x0821      |        2081 |
|      26 | 0x000D      |          13 |
|      27 | 0xFFFDBE0A  |  4294819338 |
|      28 | 0xFFFFBDF8  |  4294950392 |
|      29 | 0x16E9      |        5865 |
|      30 | 0xA3EBF     |      671423 |
|      31 | 0x316BE     |      202430 |
|      32 | 0xFFFFBE79  |  4294950521 |
|      33 | 0x097E      |        2430 |
|      34 | 0x0064      |         100 |
|      35 | 0x0001      |           1 |
|      36 | 0x90227     |      590375 |
|      37 | 0x2BC32     |      179250 |
|      38 | 0xFFFFB91A  |  4294949146 |
|      39 | 0x08D3      |        2259 |
|      40 | 0x0032      |          50 |
|      41 | 0x8E397     |      582551 |
|      42 | 0x2CC19     |      183321 |
|      43 | 0xFFFFBAEF  |  4294949615 |
|      44 | 0x8DA51     |      580177 |
|      45 | 0x334EE     |      210158 |
|      46 | 0xFFFFBA71  |  4294949489 |
|      47 | 0xFFFE4ED4  |  4294856404 |
|      48 | 0xFFFF18A8  |  4294908072 |
|      49 | 0x195A      |        6490 |
|      50 | 0x0000      |           0 |
|      51 | 0x1388      |        5000 |
|      52 | 0x00B4      |         180 |
|      53 | 0x0009      |           9 |
|      54 | 0x0028      |          40 |
|      55 | 0x3A98      |       15000 |
|      56 | 0xFFFEA975  |  4294879605 |
|      57 | 0xFFFF237B  |  4294910843 |
|      58 | 0x1A5A      |        6746 |
|      59 | 0xFFFF216F  |  4294910319 |
|      60 | 0xFFFEC27B  |  4294886011 |
|      61 | 0x03ED      |        1005 |
|      62 | 0xFFFF21A4  |  4294910372 |
|      63 | 0xFFFE8AFF  |  4294871807 |
|      64 | 0x1880      |        6272 |
|      65 | 0xFFFF4FDD  |  4294922205 |
|      66 | 0xFFFE77F2  |  4294866930 |
|      67 | 0x172A      |        5930 |
|      68 | 0xFFFF76A9  |  4294932137 |
|      69 | 0xFFFE7A53  |  4294867539 |
|      70 | 0x1B4B      |        6987 |
|      71 | 0x7530      |       30000 |

## Events

### Event 65535

#### Metadata

| Field        | Value   |
|--------------|---------|
| Entrypoint   | 0x0000  |
| Data Size    | 1 bytes |
| Instructions | 1       |

```
      00 01 02 03 04 05 06 07  08 09 0A 0B 0C 0D 0E 0F
      -- -- -- -- -- -- -- --  -- -- -- -- -- -- -- --
0000: 00                                                .               
```

#### Opcodes

```
  0: 0x0000 [0x00] END_REQSTACK()
```

### Event 889

#### Metadata

| Field        | Value   |
|--------------|---------|
| Entrypoint   | 0x0001  |
| Data Size    | 1 bytes |
| Instructions | 1       |

```
      00 01 02 03 04 05 06 07  08 09 0A 0B 0C 0D 0E 0F
      -- -- -- -- -- -- -- --  -- -- -- -- -- -- -- --
0000:    00                                              .              
```

#### Opcodes

```
  0: 0x0001 [0x00] END_REQSTACK()
```

### Event 65535.1

#### Metadata

| Field        | Value   |
|--------------|---------|
| Entrypoint   | 0x0002  |
| Data Size    | 9 bytes |
| Instructions | 3       |

```
      00 01 02 03 04 05 06 07  08 09 0A 0B 0C 0D 0E 0F
      -- -- -- -- -- -- -- --  -- -- -- -- -- -- -- --
0000:       22 00 2F 00 F8 FF  FF 7F 00                   "./......     
```

#### Opcodes

```
  0: 0x0002 [0x22] ENTITY_HIDE_FLAG(enabled=0x00)
  1: 0x0004 [0x2F] EventEntity->Render.Flags0 &= ~0x80000 // Bit 19
  2: 0x000A [0x00] END_REQSTACK()
```

### Event 65535.2

#### Metadata

| Field        | Value    |
|--------------|----------|
| Entrypoint   | 0x000B   |
| Data Size    | 40 bytes |
| Instructions | 4        |

```
      00 01 02 03 04 05 06 07  08 09 0A 0B 0C 0D 0E 0F
      -- -- -- -- -- -- -- --  -- -- -- -- -- -- -- --
0000:                                   BA F8 FF FF 7F             .....
0010: 00 80 01 80 02 80 03 80  2C F8 FF FF 7F F8 FF FF  ........,.......
0020: 7F 69 6E 69 74 53 F8 FF  FF 7F F8 FF FF 7F 69 6E  .initS........in
0030: 69 74 00                                          it.             
```

#### Opcodes

```
  0: 0x000B [0xBA] SET_ENTITY_POSITION(entity_id=EventEntity, pos_x=-25.962*, pos_z=-240.220*, pos_y=-3.312*, direction=247.6°*)
  1: 0x0018 [0x2C] CREATE_SCHEDULER_TASK: Create scheduler "init" with entities [EventEntity, EventEntity]
  2: 0x0025 [0x53] WAIT_SCHEDULER_TASK: Wait for scheduler "init" with entities [EventEntity, EventEntity]
  3: 0x0032 [0x00] END_REQSTACK()
```

### Event 65535.3

#### Metadata

| Field        | Value    |
|--------------|----------|
| Entrypoint   | 0x0033   |
| Data Size    | 19 bytes |
| Instructions | 3        |

```
      00 01 02 03 04 05 06 07  08 09 0A 0B 0C 0D 0E 0F
      -- -- -- -- -- -- -- --  -- -- -- -- -- -- -- --
0030:          BA F8 FF FF 7F  04 80 05 80 06 80 07 80     .............
0040: 1E 17 22 03 01 00                                 .."...          
```

#### Opcodes

```
  0: 0x0033 [0xBA] SET_ENTITY_POSITION(entity_id=EventEntity, pos_x=-98.988*, pos_z=-68.634*, pos_y=11.653*, direction=63.5°*)
  1: 0x0040 [0x1E] EventEntity looks at Unnamed NPC (ID: 16982551/0x01032217) and starts talking
  2: 0x0045 [0x00] END_REQSTACK()
```

### Event 65535.4

#### Metadata

| Field        | Value    |
|--------------|----------|
| Entrypoint   | 0x0046   |
| Data Size    | 10 bytes |
| Instructions | 2        |

```
      00 01 02 03 04 05 06 07  08 09 0A 0B 0C 0D 0E 0F
      -- -- -- -- -- -- -- --  -- -- -- -- -- -- -- --
0040:                   37 08  80 09 80 0A 80 0B 80 00        7.........
```

#### Opcodes

```
  0: 0x0046 [0x37] UPDATE_EVENT_POSITION_AND_DIR: x=-68.812*, z=-53.109*, y=10.045*, direction=161.5°*
  1: 0x004F [0x00] END_REQSTACK()
```

### Event 65535.5

#### Metadata

| Field        | Value    |
|--------------|----------|
| Entrypoint   | 0x0050   |
| Data Size    | 27 bytes |
| Instructions | 3        |

```
      00 01 02 03 04 05 06 07  08 09 0A 0B 0C 0D 0E 0F
      -- -- -- -- -- -- -- --  -- -- -- -- -- -- -- --
0050: 2C F8 FF FF 7F F8 FF FF  7F 64 65 61 64 53 F8 FF  ,........deadS..
0060: FF 7F F8 FF FF 7F 64 65  61 64 00                 ......dead.     
```

#### Opcodes

```
  0: 0x0050 [0x2C] CREATE_SCHEDULER_TASK: Create scheduler "dead" with entities [EventEntity, EventEntity]
  1: 0x005D [0x53] WAIT_SCHEDULER_TASK: Wait for scheduler "dead" with entities [EventEntity, EventEntity]
  2: 0x006A [0x00] END_REQSTACK()
```

### Event 65535.6

#### Metadata

| Field        | Value    |
|--------------|----------|
| Entrypoint   | 0x006B   |
| Data Size    | 16 bytes |
| Instructions | 4        |

```
      00 01 02 03 04 05 06 07  08 09 0A 0B 0C 0D 0E 0F
      -- -- -- -- -- -- -- --  -- -- -- -- -- -- -- --
0060:                                   32 0C 80 31 00             2..1.
0070: 0D 80 0E 80 0F 80 10 80  31 01 00                 ........1..     
```

#### Opcodes

```
  0: 0x006B [0x32] ExtData[1]->MainSpeed = 8* * 0.1
  1: 0x006E [0x31] UPDATE_ENTITY_POSITION: Set EventEntity goal position to X=-27.746*, Z=-237.859*, Y=-3.132*, Time=120*
  2: 0x0078 [0x31] UPDATE_ENTITY_POSITION: Move EventEntity towards goal position
  3: 0x007A [0x00] END_REQSTACK()
```

### Event 65535.7

#### Metadata

| Field        | Value    |
|--------------|----------|
| Entrypoint   | 0x007B   |
| Data Size    | 10 bytes |
| Instructions | 2        |

```
      00 01 02 03 04 05 06 07  08 09 0A 0B 0C 0D 0E 0F
      -- -- -- -- -- -- -- --  -- -- -- -- -- -- -- --
0070:                                   37 11 80 12 80             7....
0080: 13 80 03 80 00                                    .....           
```

#### Opcodes

```
  0: 0x007B [0x37] UPDATE_EVENT_POSITION_AND_DIR: x=-24.375*, z=-243.361*, y=-2.861*, direction=247.6°*
  1: 0x0084 [0x00] END_REQSTACK()
```

### Event 65535.8

#### Metadata

| Field        | Value    |
|--------------|----------|
| Entrypoint   | 0x0085   |
| Data Size    | 14 bytes |
| Instructions | 2        |

```
      00 01 02 03 04 05 06 07  08 09 0A 0B 0C 0D 0E 0F
      -- -- -- -- -- -- -- --  -- -- -- -- -- -- -- --
0080:                2C F8 FF  FF 7F F8 FF FF 7F 73 68       ,........sh
0090: 62 6B 00                                          bk.             
```

#### Opcodes

```
  0: 0x0085 [0x2C] CREATE_SCHEDULER_TASK: Create scheduler "shbk" with entities [EventEntity, EventEntity]
  1: 0x0092 [0x00] END_REQSTACK()
```

### Event 65535.9

#### Metadata

| Field        | Value    |
|--------------|----------|
| Entrypoint   | 0x0093   |
| Data Size    | 14 bytes |
| Instructions | 2        |

```
      00 01 02 03 04 05 06 07  08 09 0A 0B 0C 0D 0E 0F
      -- -- -- -- -- -- -- --  -- -- -- -- -- -- -- --
0090:          2C F8 FF FF 7F  F8 FF FF 7F 70 6F 70 30     ,........pop0
00A0: 00                                                .               
```

#### Opcodes

```
  0: 0x0093 [0x2C] CREATE_SCHEDULER_TASK: Create scheduler "pop0" with entities [EventEntity, EventEntity]
  1: 0x00A0 [0x00] END_REQSTACK()
```

### Event 65535.10

#### Metadata

| Field        | Value    |
|--------------|----------|
| Entrypoint   | 0x00A1   |
| Data Size    | 14 bytes |
| Instructions | 2        |

```
      00 01 02 03 04 05 06 07  08 09 0A 0B 0C 0D 0E 0F
      -- -- -- -- -- -- -- --  -- -- -- -- -- -- -- --
00A0:    2C F8 FF FF 7F F8 FF  FF 7F 63 61 73 6F 00      ,........caso. 
```

#### Opcodes

```
  0: 0x00A1 [0x2C] CREATE_SCHEDULER_TASK: Create scheduler "caso" with entities [EventEntity, EventEntity]
  1: 0x00AE [0x00] END_REQSTACK()
```

### Event 65535.11

#### Metadata

| Field        | Value    |
|--------------|----------|
| Entrypoint   | 0x00AF   |
| Data Size    | 20 bytes |
| Instructions | 4        |

```
      00 01 02 03 04 05 06 07  08 09 0A 0B 0C 0D 0E 0F
      -- -- -- -- -- -- -- --  -- -- -- -- -- -- -- --
00A0:                                               1C                 .
00B0: 14 80 2C F8 FF FF 7F F8  FF FF 7F 73 68 73 6F 1C  ..,........shso.
00C0: 15 80 00                                          ...             
```

#### Opcodes

```
  0: 0x00AF [0x1C] WAIT(30* ticks)
  1: 0x00B2 [0x2C] CREATE_SCHEDULER_TASK: Create scheduler "shso" with entities [EventEntity, EventEntity]
  2: 0x00BF [0x1C] WAIT(60* ticks)
  3: 0x00C2 [0x00] END_REQSTACK()
```

### Event 65535.12

#### Metadata

| Field        | Value    |
|--------------|----------|
| Entrypoint   | 0x00C3   |
| Data Size    | 10 bytes |
| Instructions | 2        |

```
      00 01 02 03 04 05 06 07  08 09 0A 0B 0C 0D 0E 0F
      -- -- -- -- -- -- -- --  -- -- -- -- -- -- -- --
00C0:          37 16 80 17 80  18 80 19 80 00              7.........   
```

#### Opcodes

```
  0: 0x00C3 [0x37] UPDATE_EVENT_POSITION_AND_DIR: x=-121.262*, z=-15.431*, y=7.199*, direction=182.9°*
  1: 0x00CC [0x00] END_REQSTACK()
```

### Event 65535.13

#### Metadata

| Field        | Value    |
|--------------|----------|
| Entrypoint   | 0x00CD   |
| Data Size    | 14 bytes |
| Instructions | 4        |

```
      00 01 02 03 04 05 06 07  08 09 0A 0B 0C 0D 0E 0F
      -- -- -- -- -- -- -- --  -- -- -- -- -- -- -- --
00C0:                                         32 1A 80               2..
00D0: 1F 00 1B 80 1C 80 1D 80  1F 01 00                 ...........     
```

#### Opcodes

```
  0: 0x00CD [0x32] ExtData[1]->MainSpeed = 13* * 0.1
  1: 0x00D0 [0x1F] MOVE_ENTITY: EventEntity moves to X=-147.958*, Z=-16.904*, Y=5.865*
  2: 0x00D8 [0x1F] MOVE_ENTITY: Update entity position (mode=1)
  3: 0x00DA [0x00] END_REQSTACK()
```

### Event 65535.14

#### Metadata

| Field        | Value   |
|--------------|---------|
| Entrypoint   | 0x00DB  |
| Data Size    | 9 bytes |
| Instructions | 3       |

```
      00 01 02 03 04 05 06 07  08 09 0A 0B 0C 0D 0E 0F
      -- -- -- -- -- -- -- --  -- -- -- -- -- -- -- --
00D0:                                   22 01 2F 01 F8             "./..
00E0: FF FF 7F 00                                       ....            
```

#### Opcodes

```
  0: 0x00DB [0x22] ENTITY_HIDE_FLAG(enabled=0x01)
  1: 0x00DD [0x2F] EventEntity->Render.Flags0 |= 0x80000 // Bit 19
  2: 0x00E3 [0x00] END_REQSTACK()
```

### Event 65535.15

#### Metadata

| Field        | Value    |
|--------------|----------|
| Entrypoint   | 0x00E4   |
| Data Size    | 10 bytes |
| Instructions | 2        |

```
      00 01 02 03 04 05 06 07  08 09 0A 0B 0C 0D 0E 0F
      -- -- -- -- -- -- -- --  -- -- -- -- -- -- -- --
00E0:             37 1E 80 1F  80 20 80 21 80 00            7.... .!..  
```

#### Opcodes

```
  0: 0x00E4 [0x37] UPDATE_EVENT_POSITION_AND_DIR: x=671.423*, z=202.430*, y=-16.775*, direction=213.6°*
  1: 0x00ED [0x00] END_REQSTACK()
```

### Event 65535.16

#### Metadata

| Field        | Value    |
|--------------|----------|
| Entrypoint   | 0x00EE   |
| Data Size    | 10 bytes |
| Instructions | 2        |

```
      00 01 02 03 04 05 06 07  08 09 0A 0B 0C 0D 0E 0F
      -- -- -- -- -- -- -- --  -- -- -- -- -- -- -- --
00E0:                                            6C F8                l.
00F0: FF FF 7F 22 80 23 80 00                           ...".#..        
```

#### Opcodes

```
  0: 0x00EE [0x6C] FADE_ENTITY_COLOR(entity_id=EventEntity, end_alpha=100*, fade_time=1*)
  1: 0x00F7 [0x00] END_REQSTACK()
```

### Event 65535.17

#### Metadata

| Field        | Value    |
|--------------|----------|
| Entrypoint   | 0x00F8   |
| Data Size    | 10 bytes |
| Instructions | 2        |

```
      00 01 02 03 04 05 06 07  08 09 0A 0B 0C 0D 0E 0F
      -- -- -- -- -- -- -- --  -- -- -- -- -- -- -- --
00F0:                          37 24 80 25 80 26 80 27          7$.%.&.'
0100: 80 00                                             ..              
```

#### Opcodes

```
  0: 0x00F8 [0x37] UPDATE_EVENT_POSITION_AND_DIR: x=590.375*, z=179.250*, y=-18.150*, direction=198.5°*
  1: 0x0101 [0x00] END_REQSTACK()
```

### Event 65535.18

#### Metadata

| Field        | Value    |
|--------------|----------|
| Entrypoint   | 0x0102   |
| Data Size    | 28 bytes |
| Instructions | 8        |

```
      00 01 02 03 04 05 06 07  08 09 0A 0B 0C 0D 0E 0F
      -- -- -- -- -- -- -- --  -- -- -- -- -- -- -- --
0100:       32 28 80 1F 00 29  80 2A 80 2B 80 1F 01 6F    2(...).*.+...o
0110: 32 28 80 1F 00 2C 80 2D  80 2E 80 1F 01 00        2(...,.-......  
```

#### Opcodes

```
  0: 0x0102 [0x32] ExtData[1]->MainSpeed = 50* * 0.1
  1: 0x0105 [0x1F] MOVE_ENTITY: EventEntity moves to X=582.551*, Z=183.321*, Y=-17.681*
  2: 0x010D [0x1F] MOVE_ENTITY: Update entity position (mode=1)
  3: 0x010F [0x6F] WAIT_FRAME_DELAY: Yield until WaitTime reaches zero
  4: 0x0110 [0x32] ExtData[1]->MainSpeed = 50* * 0.1
  5: 0x0113 [0x1F] MOVE_ENTITY: EventEntity moves to X=580.177*, Z=210.158*, Y=-17.807*
  6: 0x011B [0x1F] MOVE_ENTITY: Update entity position (mode=1)
  7: 0x011D [0x00] END_REQSTACK()
```

### Event 890

#### Metadata

| Field        | Value   |
|--------------|---------|
| Entrypoint   | 0x011E  |
| Data Size    | 1 bytes |
| Instructions | 1       |

```
      00 01 02 03 04 05 06 07  08 09 0A 0B 0C 0D 0E 0F
      -- -- -- -- -- -- -- --  -- -- -- -- -- -- -- --
0110:                                            00                   . 
```

#### Opcodes

```
  0: 0x011E [0x00] END_REQSTACK()
```

### Event 65535.19

#### Metadata

| Field        | Value    |
|--------------|----------|
| Entrypoint   | 0x011F   |
| Data Size    | 10 bytes |
| Instructions | 2        |

```
      00 01 02 03 04 05 06 07  08 09 0A 0B 0C 0D 0E 0F
      -- -- -- -- -- -- -- --  -- -- -- -- -- -- -- --
0110:                                               37                 7
0120: 2F 80 30 80 31 80 32 80  00                       /.0.1.2..       
```

#### Opcodes

```
  0: 0x011F [0x37] UPDATE_EVENT_POSITION_AND_DIR: x=-110.892*, z=-59.224*, y=6.490*, direction=0.0°*
  1: 0x0128 [0x00] END_REQSTACK()
```

### Event 65535.20

#### Metadata

| Field        | Value    |
|--------------|----------|
| Entrypoint   | 0x0129   |
| Data Size    | 58 bytes |
| Instructions | 10       |

```
      00 01 02 03 04 05 06 07  08 09 0A 0B 0C 0D 0E 0F
      -- -- -- -- -- -- -- --  -- -- -- -- -- -- -- --
0120:                             3B F8 FF FF 7F 00 00           ;......
0130: 01 00 02 00 3A F8 FF FF  7F 03 00 17 04 00 03 00  ....:...........
0140: 33 80 16 05 00 03 00 33  80 07 00 00 04 00 07 01  3......3........
0150: 00 05 00 32 1A 80 31 00  00 00 01 00 02 00 34 80  ...2..1.......4.
0160: 31 01 00                                          1..             
```

#### Opcodes

```
  0: 0x0129 [0x3B] GET_ENTITY_POSITION(entity=EventEntity, x_destination=ExtData[1]->WorkLocal[0], y_destination=ExtData[1]->WorkLocal[1], z_destination=ExtData[1]->WorkLocal[2])
  1: 0x0134 [0x3A] CONVERT_YAW_TO_BYTE(entity=EventEntity, result_destination=ExtData[1]->WorkLocal[3])
  2: 0x013B [0x17] ExtData[1]->WorkLocal[4] = cos(ExtData[1]->WorkLocal[3]) * 5000*
  3: 0x0142 [0x16] ExtData[1]->WorkLocal[5] = sin(ExtData[1]->WorkLocal[3]) * 5000*
  4: 0x0149 [0x07] ExtData[1]->WorkLocal[0] += ExtData[1]->WorkLocal[4]
  5: 0x014E [0x07] ExtData[1]->WorkLocal[1] += ExtData[1]->WorkLocal[5]
  6: 0x0153 [0x32] ExtData[1]->MainSpeed = 13* * 0.1
  7: 0x0156 [0x31] UPDATE_ENTITY_POSITION: Set EventEntity goal position to X=ExtData[1]->WorkLocal[0], Z=ExtData[1]->WorkLocal[1], Y=ExtData[1]->WorkLocal[2], Time=180*
  8: 0x0160 [0x31] UPDATE_ENTITY_POSITION: Move EventEntity towards goal position
  9: 0x0162 [0x00] END_REQSTACK()
```

### Event 65535.21

#### Metadata

| Field        | Value    |
|--------------|----------|
| Entrypoint   | 0x0163   |
| Data Size    | 27 bytes |
| Instructions | 5        |

```
      00 01 02 03 04 05 06 07  08 09 0A 0B 0C 0D 0E 0F
      -- -- -- -- -- -- -- --  -- -- -- -- -- -- -- --
0160:          3B 1D 22 03 01  00 00 01 00 02 00 32 35     ;."........25
0170: 80 31 00 00 00 01 00 02  00 36 80 31 01 00        .1.......6.1..  
```

#### Opcodes

```
  0: 0x0163 [0x3B] GET_ENTITY_POSITION(entity=Unnamed NPC (ID: 16982557/0x0103221D), x_destination=ExtData[1]->WorkLocal[0], y_destination=ExtData[1]->WorkLocal[1], z_destination=ExtData[1]->WorkLocal[2])
  1: 0x016E [0x32] ExtData[1]->MainSpeed = 9* * 0.1
  2: 0x0171 [0x31] UPDATE_ENTITY_POSITION: Set EventEntity goal position to X=ExtData[1]->WorkLocal[0], Z=ExtData[1]->WorkLocal[1], Y=ExtData[1]->WorkLocal[2], Time=40*
  3: 0x017B [0x31] UPDATE_ENTITY_POSITION: Move EventEntity towards goal position
  4: 0x017D [0x00] END_REQSTACK()
```

### Event 65535.22

#### Metadata

| Field        | Value    |
|--------------|----------|
| Entrypoint   | 0x017E   |
| Data Size    | 67 bytes |
| Instructions | 13       |

```
      00 01 02 03 04 05 06 07  08 09 0A 0B 0C 0D 0E 0F
      -- -- -- -- -- -- -- --  -- -- -- -- -- -- -- --
0170:                                            3B F8                ;.
0180: FF FF 7F 00 00 01 00 02  00 3A F8 FF FF 7F 03 00  .........:......
0190: 17 04 00 03 00 37 80 16  05 00 03 00 37 80 07 00  .....7......7...
01A0: 00 04 00 07 01 00 05 00  32 36 80 1F 00 00 00 01  ........26......
01B0: 00 02 00 1F 01 6F 1F 00  38 80 39 80 3A 80 1F 01  .....o..8.9.:...
01C0: 00                                                .               
```

#### Opcodes

```
  0: 0x017E [0x3B] GET_ENTITY_POSITION(entity=EventEntity, x_destination=ExtData[1]->WorkLocal[0], y_destination=ExtData[1]->WorkLocal[1], z_destination=ExtData[1]->WorkLocal[2])
  1: 0x0189 [0x3A] CONVERT_YAW_TO_BYTE(entity=EventEntity, result_destination=ExtData[1]->WorkLocal[3])
  2: 0x0190 [0x17] ExtData[1]->WorkLocal[4] = cos(ExtData[1]->WorkLocal[3]) * 15000*
  3: 0x0197 [0x16] ExtData[1]->WorkLocal[5] = sin(ExtData[1]->WorkLocal[3]) * 15000*
  4: 0x019E [0x07] ExtData[1]->WorkLocal[0] += ExtData[1]->WorkLocal[4]
  5: 0x01A3 [0x07] ExtData[1]->WorkLocal[1] += ExtData[1]->WorkLocal[5]
  6: 0x01A8 [0x32] ExtData[1]->MainSpeed = 40* * 0.1
  7: 0x01AB [0x1F] MOVE_ENTITY: EventEntity moves to X=ExtData[1]->WorkLocal[0], Z=ExtData[1]->WorkLocal[1], Y=ExtData[1]->WorkLocal[2]
  8: 0x01B3 [0x1F] MOVE_ENTITY: Update entity position (mode=1)
  9: 0x01B5 [0x6F] WAIT_FRAME_DELAY: Yield until WaitTime reaches zero
 10: 0x01B6 [0x1F] MOVE_ENTITY: EventEntity moves to X=-87.691*, Z=-56.453*, Y=6.746*
 11: 0x01BE [0x1F] MOVE_ENTITY: Update entity position (mode=1)
 12: 0x01C0 [0x00] END_REQSTACK()
```

### Event 65535.23

#### Metadata

| Field        | Value    |
|--------------|----------|
| Entrypoint   | 0x01C1   |
| Data Size    | 10 bytes |
| Instructions | 2        |

```
      00 01 02 03 04 05 06 07  08 09 0A 0B 0C 0D 0E 0F
      -- -- -- -- -- -- -- --  -- -- -- -- -- -- -- --
01C0:    37 3B 80 3C 80 18 80  3D 80 00                  7;.<...=..     
```

#### Opcodes

```
  0: 0x01C1 [0x37] UPDATE_EVENT_POSITION_AND_DIR: x=-56.977*, z=-81.285*, y=7.199*, direction=88.3°*
  1: 0x01CA [0x00] END_REQSTACK()
```

### Event 65535.24

#### Metadata

| Field        | Value    |
|--------------|----------|
| Entrypoint   | 0x01CB   |
| Data Size    | 36 bytes |
| Instructions | 10       |

```
      00 01 02 03 04 05 06 07  08 09 0A 0B 0C 0D 0E 0F
      -- -- -- -- -- -- -- --  -- -- -- -- -- -- -- --
01C0:                                   32 36 80 1F 00             26...
01D0: 3E 80 3F 80 40 80 1F 01  6F 1F 00 41 80 42 80 43  >.?.@...o..A.B.C
01E0: 80 1F 01 6F 1F 00 44 80  45 80 46 80 1F 01 00     ...o..D.E.F.... 
```

#### Opcodes

```
  0: 0x01CB [0x32] ExtData[1]->MainSpeed = 40* * 0.1
  1: 0x01CE [0x1F] MOVE_ENTITY: EventEntity moves to X=-56.924*, Z=-95.489*, Y=6.272*
  2: 0x01D6 [0x1F] MOVE_ENTITY: Update entity position (mode=1)
  3: 0x01D8 [0x6F] WAIT_FRAME_DELAY: Yield until WaitTime reaches zero
  4: 0x01D9 [0x1F] MOVE_ENTITY: EventEntity moves to X=-45.091*, Z=-100.366*, Y=5.930*
  5: 0x01E1 [0x1F] MOVE_ENTITY: Update entity position (mode=1)
  6: 0x01E3 [0x6F] WAIT_FRAME_DELAY: Yield until WaitTime reaches zero
  7: 0x01E4 [0x1F] MOVE_ENTITY: EventEntity moves to X=-35.159*, Z=-99.757*, Y=6.987*
  8: 0x01EC [0x1F] MOVE_ENTITY: Update entity position (mode=1)
  9: 0x01EE [0x00] END_REQSTACK()
```

### Event 65535.25

#### Metadata

| Field        | Value    |
|--------------|----------|
| Entrypoint   | 0x01EF   |
| Data Size    | 52 bytes |
| Instructions | 8        |

```
      00 01 02 03 04 05 06 07  08 09 0A 0B 0C 0D 0E 0F
      -- -- -- -- -- -- -- --  -- -- -- -- -- -- -- --
01E0:                                               3B                 ;
01F0: 1D 22 03 01 00 00 01 00  02 00 3A 1D 22 03 01 03  ."........:."...
0200: 00 17 04 00 03 00 33 80  16 05 00 03 00 33 80 07  ......3......3..
0210: 00 00 04 00 07 01 00 05  00 37 00 00 01 00 02 00  .........7......
0220: 03 00 00                                          ...             
```

#### Opcodes

```
  0: 0x01EF [0x3B] GET_ENTITY_POSITION(entity=Unnamed NPC (ID: 16982557/0x0103221D), x_destination=ExtData[1]->WorkLocal[0], y_destination=ExtData[1]->WorkLocal[1], z_destination=ExtData[1]->WorkLocal[2])
  1: 0x01FA [0x3A] CONVERT_YAW_TO_BYTE(entity=Unnamed NPC (ID: 16982557/0x0103221D), result_destination=ExtData[1]->WorkLocal[3])
  2: 0x0201 [0x17] ExtData[1]->WorkLocal[4] = cos(ExtData[1]->WorkLocal[3]) * 5000*
  3: 0x0208 [0x16] ExtData[1]->WorkLocal[5] = sin(ExtData[1]->WorkLocal[3]) * 5000*
  4: 0x020F [0x07] ExtData[1]->WorkLocal[0] += ExtData[1]->WorkLocal[4]
  5: 0x0214 [0x07] ExtData[1]->WorkLocal[1] += ExtData[1]->WorkLocal[5]
  6: 0x0219 [0x37] UPDATE_EVENT_POSITION_AND_DIR: x=ExtData[1]->WorkLocal[0], z=ExtData[1]->WorkLocal[1], y=ExtData[1]->WorkLocal[2], direction=ExtData[1]->WorkLocal[3]
  7: 0x0222 [0x00] END_REQSTACK()
```

### Event 65535.26

#### Metadata

| Field        | Value    |
|--------------|----------|
| Entrypoint   | 0x0223   |
| Data Size    | 56 bytes |
| Instructions | 10       |

```
      00 01 02 03 04 05 06 07  08 09 0A 0B 0C 0D 0E 0F
      -- -- -- -- -- -- -- --  -- -- -- -- -- -- -- --
0220:          3B F8 FF FF 7F  00 00 01 00 02 00 3A F8     ;..........:.
0230: FF FF 7F 03 00 17 04 00  03 00 47 80 16 05 00 03  ..........G.....
0240: 00 47 80 07 00 00 04 00  07 01 00 05 00 32 36 80  .G...........26.
0250: 1F 00 00 00 01 00 02 00  1F 01 00                 ...........     
```

#### Opcodes

```
  0: 0x0223 [0x3B] GET_ENTITY_POSITION(entity=EventEntity, x_destination=ExtData[1]->WorkLocal[0], y_destination=ExtData[1]->WorkLocal[1], z_destination=ExtData[1]->WorkLocal[2])
  1: 0x022E [0x3A] CONVERT_YAW_TO_BYTE(entity=EventEntity, result_destination=ExtData[1]->WorkLocal[3])
  2: 0x0235 [0x17] ExtData[1]->WorkLocal[4] = cos(ExtData[1]->WorkLocal[3]) * 30000*
  3: 0x023C [0x16] ExtData[1]->WorkLocal[5] = sin(ExtData[1]->WorkLocal[3]) * 30000*
  4: 0x0243 [0x07] ExtData[1]->WorkLocal[0] += ExtData[1]->WorkLocal[4]
  5: 0x0248 [0x07] ExtData[1]->WorkLocal[1] += ExtData[1]->WorkLocal[5]
  6: 0x024D [0x32] ExtData[1]->MainSpeed = 40* * 0.1
  7: 0x0250 [0x1F] MOVE_ENTITY: EventEntity moves to X=ExtData[1]->WorkLocal[0], Z=ExtData[1]->WorkLocal[1], Y=ExtData[1]->WorkLocal[2]
  8: 0x0258 [0x1F] MOVE_ENTITY: Update entity position (mode=1)
  9: 0x025A [0x00] END_REQSTACK()
```
