# 16982142 - Halbeeya

## Common Data

| Field            | Value                         |
|------------------|-------------------------------|
| Zone             | Aht Urhgan Whitegate (ID: 50) |
| Block Size       | 824 bytes                     |
| Total Events     | 17                            |
| References Count | 21                            |

## List of Events

| Event ID                  | Entrypoint   |   Size |   Instructions |
|---------------------------|--------------|--------|----------------|
| [65535](#event-65535)     | 0x0000       |      1 |              1 |
| [882](#event-882)         | 0x0001       |      7 |              2 |
| [883](#event-883)         | 0x0008       |      7 |              2 |
| [884](#event-884)         | 0x000F       |      7 |              2 |
| [670](#event-670)         | 0x0016       |    118 |             18 |
| [797](#event-797)         | 0x008C       |      1 |              1 |
| [3092](#event-3092)       | 0x008D       |      1 |              1 |
| [823](#event-823)         | 0x008E       |      1 |              1 |
| [824](#event-824)         | 0x008F       |      1 |              1 |
| [825](#event-825)         | 0x0090       |      1 |              1 |
| [864](#event-864)         | 0x0091       |      7 |              2 |
| [65535.1](#event-65535-1) | 0x0098       |     19 |              5 |
| [65535.2](#event-65535-2) | 0x00AB       |     19 |              5 |
| [65535.3](#event-65535-3) | 0x00BE       |     19 |              5 |
| [65535.4](#event-65535-4) | 0x00D1       |     14 |              4 |
| [65535.5](#event-65535-5) | 0x00DF       |    424 |             83 |
| [872](#event-872)         | 0x0287       |      7 |              2 |

## DAT References (imed_data)

|   Index | Hex Value   |   Dec Value |
|---------|-------------|-------------|
|       0 | 0x000B      |          11 |
|       1 | 0x18F8      |        6392 |
|       2 | 0x001E      |          30 |
|       3 | 0x000C      |          12 |
|       4 | 0x18F9      |        6393 |
|       5 | 0x18FA      |        6394 |
|       6 | 0x000D      |          13 |
|       7 | 0x131BC     |       78268 |
|       8 | 0xFFFDEF97  |  4294832023 |
|       9 | 0xFFFFE890  |  4294961296 |
|      10 | 0x13157     |       78167 |
|      11 | 0xFFFDEBC0  |  4294831040 |
|      12 | 0x12E41     |       77377 |
|      13 | 0xFFFDE503  |  4294829315 |
|      14 | 0x1430E     |       82702 |
|      15 | 0xFFFDEDF7  |  4294831607 |
|      16 | 0x003C      |          60 |
|      17 | 0x0001      |           1 |
|      18 | 0x0002      |           2 |
|      19 | 0x0003      |           3 |
|      20 | 0x0078      |         120 |

## Events

### Event 65535

#### Metadata

| Field        | Value   |
|--------------|---------|
| Entrypoint   | 0x0000  |
| Data Size    | 1 bytes |
| Instructions | 1       |

```
      00 01 02 03 04 05 06 07  08 09 0A 0B 0C 0D 0E 0F
      -- -- -- -- -- -- -- --  -- -- -- -- -- -- -- --
0000: 00                                                .               
```

#### Opcodes

```
  0: 0x0000 [0x00] END_REQSTACK()
```

### Event 882

#### Metadata

| Field        | Value   |
|--------------|---------|
| Entrypoint   | 0x0001  |
| Data Size    | 7 bytes |
| Instructions | 2       |

```
      00 01 02 03 04 05 06 07  08 09 0A 0B 0C 0D 0E 0F
      -- -- -- -- -- -- -- --  -- -- -- -- -- -- -- --
0000:    92 01 F8 FF FF 7F 00                            .......        
```

#### Opcodes

```
  0: 0x0001 [0x92] EventEntity->Render.Flags3 ^= 0x01
  1: 0x0007 [0x00] END_REQSTACK()
```

### Event 883

#### Metadata

| Field        | Value   |
|--------------|---------|
| Entrypoint   | 0x0008  |
| Data Size    | 7 bytes |
| Instructions | 2       |

```
      00 01 02 03 04 05 06 07  08 09 0A 0B 0C 0D 0E 0F
      -- -- -- -- -- -- -- --  -- -- -- -- -- -- -- --
0000:                          92 01 F8 FF FF 7F 00             ....... 
```

#### Opcodes

```
  0: 0x0008 [0x92] EventEntity->Render.Flags3 ^= 0x01
  1: 0x000E [0x00] END_REQSTACK()
```

### Event 884

#### Metadata

| Field        | Value   |
|--------------|---------|
| Entrypoint   | 0x000F  |
| Data Size    | 7 bytes |
| Instructions | 2       |

```
      00 01 02 03 04 05 06 07  08 09 0A 0B 0C 0D 0E 0F
      -- -- -- -- -- -- -- --  -- -- -- -- -- -- -- --
0000:                                               92                 .
0010: 01 F8 FF FF 7F 00                                 ......          
```

#### Opcodes

```
  0: 0x000F [0x92] EventEntity->Render.Flags3 ^= 0x01
  1: 0x0015 [0x00] END_REQSTACK()
```

### Event 670

#### Metadata

| Field        | Value     |
|--------------|-----------|
| Entrypoint   | 0x0016    |
| Data Size    | 118 bytes |
| Instructions | 18        |

```
      00 01 02 03 04 05 06 07  08 09 0A 0B 0C 0D 0E 0F
      -- -- -- -- -- -- -- --  -- -- -- -- -- -- -- --
0010:                   1E F0  FF FF 7F 66 00 80 F8 FF        .....f....
0020: FF 7F F8 FF FF 7F 6E 74  6C 30 1D 01 80 23 66 00  ......ntl0...#f.
0030: 80 F8 FF FF 7F F8 FF FF  7F 6E 74 6C 31 1C 02 80  .........ntl1...
0040: 66 03 80 F8 FF FF 7F F8  FF FF 7F 64 6B 30 30 1D  f..........dk00.
0050: 04 80 23 66 03 80 F8 FF  FF 7F F8 FF FF 7F 64 6B  ..#f..........dk
0060: 30 31 1C 02 80 66 00 80  F8 FF FF 7F F8 FF FF 7F  01...f..........
0070: 6E 74 6C 30 1D 05 80 23  66 00 80 F8 FF FF 7F F8  ntl0...#f.......
0080: FF FF 7F 6E 74 6C 31 1C  02 80 21 00              ...ntl1...!.    
```

#### Opcodes

```
  0: 0x0016 [0x1E] EventEntity looks at LocalPlayer and starts talking
  1: 0x001B [0x66] LOAD_EXT_SCHEDULER_MAIN: Load scheduler "ntl0" with entities [EventEntity, EventEntity], work=11*
  2: 0x002A [0x1D] PRINT_EVENT_MESSAGE(message_id=6392*)
    → "You will never guess what I saw! He was right in front of me...the dreamiest man I had ever laid eyes on!\u007F1\u0000\u0007"
  3: 0x002D [0x23] WAIT_FOR_DIALOG_INTERACTION
  4: 0x002E [0x66] LOAD_EXT_SCHEDULER_MAIN: Load scheduler "ntl1" with entities [EventEntity, EventEntity], work=11*
  5: 0x003D [0x1C] WAIT(30* ticks)
  6: 0x0040 [0x66] LOAD_EXT_SCHEDULER_MAIN: Load scheduler "dk00" with entities [EventEntity, EventEntity], work=12*
  7: 0x004F [0x1D] PRINT_EVENT_MESSAGE(message_id=6393*)
    → "Can you imagine my surprise? He was covered from head to toe in golden armor. He was so stunning I was forced to shade my eyes!\u007F1\u0000\u0007"
  8: 0x0052 [0x23] WAIT_FOR_DIALOG_INTERACTION
  9: 0x0053 [0x66] LOAD_EXT_SCHEDULER_MAIN: Load scheduler "dk01" with entities [EventEntity, EventEntity], work=12*
 10: 0x0062 [0x1C] WAIT(30* ticks)
 11: 0x0065 [0x66] LOAD_EXT_SCHEDULER_MAIN: Load scheduler "ntl0" with entities [EventEntity, EventEntity], work=11*
 12: 0x0074 [0x1D] PRINT_EVENT_MESSAGE(message_id=6394*)
    → "Not only that, but he was so generous! He treated everyone in the teahouse to all the chai and coffee we could drink! Have you ever heard anything like it? <Sigh>...\u007F1\u0000\u0007"
 13: 0x0077 [0x23] WAIT_FOR_DIALOG_INTERACTION
 14: 0x0078 [0x66] LOAD_EXT_SCHEDULER_MAIN: Load scheduler "ntl1" with entities [EventEntity, EventEntity], work=11*
 15: 0x0087 [0x1C] WAIT(30* ticks)
 16: 0x008A [0x21] END_EVENT
 17: 0x008B [0x00] END_REQSTACK()
```

### Event 797

#### Metadata

| Field        | Value   |
|--------------|---------|
| Entrypoint   | 0x008C  |
| Data Size    | 1 bytes |
| Instructions | 1       |

```
      00 01 02 03 04 05 06 07  08 09 0A 0B 0C 0D 0E 0F
      -- -- -- -- -- -- -- --  -- -- -- -- -- -- -- --
0080:                                      00                       .   
```

#### Opcodes

```
  0: 0x008C [0x00] END_REQSTACK()
```

### Event 3092

#### Metadata

| Field        | Value   |
|--------------|---------|
| Entrypoint   | 0x008D  |
| Data Size    | 1 bytes |
| Instructions | 1       |

```
      00 01 02 03 04 05 06 07  08 09 0A 0B 0C 0D 0E 0F
      -- -- -- -- -- -- -- --  -- -- -- -- -- -- -- --
0080:                                         00                     .  
```

#### Opcodes

```
  0: 0x008D [0x00] END_REQSTACK()
```

### Event 823

#### Metadata

| Field        | Value   |
|--------------|---------|
| Entrypoint   | 0x008E  |
| Data Size    | 1 bytes |
| Instructions | 1       |

```
      00 01 02 03 04 05 06 07  08 09 0A 0B 0C 0D 0E 0F
      -- -- -- -- -- -- -- --  -- -- -- -- -- -- -- --
0080:                                            00                   . 
```

#### Opcodes

```
  0: 0x008E [0x00] END_REQSTACK()
```

### Event 824

#### Metadata

| Field        | Value   |
|--------------|---------|
| Entrypoint   | 0x008F  |
| Data Size    | 1 bytes |
| Instructions | 1       |

```
      00 01 02 03 04 05 06 07  08 09 0A 0B 0C 0D 0E 0F
      -- -- -- -- -- -- -- --  -- -- -- -- -- -- -- --
0080:                                               00                 .
```

#### Opcodes

```
  0: 0x008F [0x00] END_REQSTACK()
```

### Event 825

#### Metadata

| Field        | Value   |
|--------------|---------|
| Entrypoint   | 0x0090  |
| Data Size    | 1 bytes |
| Instructions | 1       |

```
      00 01 02 03 04 05 06 07  08 09 0A 0B 0C 0D 0E 0F
      -- -- -- -- -- -- -- --  -- -- -- -- -- -- -- --
0090: 00                                                .               
```

#### Opcodes

```
  0: 0x0090 [0x00] END_REQSTACK()
```

### Event 864

#### Metadata

| Field        | Value   |
|--------------|---------|
| Entrypoint   | 0x0091  |
| Data Size    | 7 bytes |
| Instructions | 2       |

```
      00 01 02 03 04 05 06 07  08 09 0A 0B 0C 0D 0E 0F
      -- -- -- -- -- -- -- --  -- -- -- -- -- -- -- --
0090:    92 01 F8 FF FF 7F 00                            .......        
```

#### Opcodes

```
  0: 0x0091 [0x92] EventEntity->Render.Flags3 ^= 0x01
  1: 0x0097 [0x00] END_REQSTACK()
```

### Event 65535.1

#### Metadata

| Field        | Value    |
|--------------|----------|
| Entrypoint   | 0x0098   |
| Data Size    | 19 bytes |
| Instructions | 5        |

```
      00 01 02 03 04 05 06 07  08 09 0A 0B 0C 0D 0E 0F
      -- -- -- -- -- -- -- --  -- -- -- -- -- -- -- --
0090:                          32 06 80 1F 00 07 80 08          2.......
00A0: 80 09 80 1F 01 1E 54 20  03 01 00                 ......T ...     
```

#### Opcodes

```
  0: 0x0098 [0x32] ExtData[1]->MainSpeed = 13* * 0.1
  1: 0x009B [0x1F] MOVE_ENTITY: EventEntity moves to X=78.268*, Z=-135.273*, Y=-6.000*
  2: 0x00A3 [0x1F] MOVE_ENTITY: Update entity position (mode=1)
  3: 0x00A5 [0x1E] EventEntity looks at Yafaaf (ID: 16982100/0x01032054) and starts talking
  4: 0x00AA [0x00] END_REQSTACK()
```

### Event 65535.2

#### Metadata

| Field        | Value    |
|--------------|----------|
| Entrypoint   | 0x00AB   |
| Data Size    | 19 bytes |
| Instructions | 5        |

```
      00 01 02 03 04 05 06 07  08 09 0A 0B 0C 0D 0E 0F
      -- -- -- -- -- -- -- --  -- -- -- -- -- -- -- --
00A0:                                   32 06 80 1F 00             2....
00B0: 0A 80 0B 80 09 80 1F 01  1E 54 20 03 01 00        .........T ...  
```

#### Opcodes

```
  0: 0x00AB [0x32] ExtData[1]->MainSpeed = 13* * 0.1
  1: 0x00AE [0x1F] MOVE_ENTITY: EventEntity moves to X=78.167*, Z=-136.256*, Y=-6.000*
  2: 0x00B6 [0x1F] MOVE_ENTITY: Update entity position (mode=1)
  3: 0x00B8 [0x1E] EventEntity looks at Yafaaf (ID: 16982100/0x01032054) and starts talking
  4: 0x00BD [0x00] END_REQSTACK()
```

### Event 65535.3

#### Metadata

| Field        | Value    |
|--------------|----------|
| Entrypoint   | 0x00BE   |
| Data Size    | 19 bytes |
| Instructions | 5        |

```
      00 01 02 03 04 05 06 07  08 09 0A 0B 0C 0D 0E 0F
      -- -- -- -- -- -- -- --  -- -- -- -- -- -- -- --
00B0:                                            32 06                2.
00C0: 80 1F 00 0C 80 0D 80 09  80 1F 01 1E 54 20 03 01  ............T ..
00D0: 00                                                .               
```

#### Opcodes

```
  0: 0x00BE [0x32] ExtData[1]->MainSpeed = 13* * 0.1
  1: 0x00C1 [0x1F] MOVE_ENTITY: EventEntity moves to X=77.377*, Z=-137.981*, Y=-6.000*
  2: 0x00C9 [0x1F] MOVE_ENTITY: Update entity position (mode=1)
  3: 0x00CB [0x1E] EventEntity looks at Yafaaf (ID: 16982100/0x01032054) and starts talking
  4: 0x00D0 [0x00] END_REQSTACK()
```

### Event 65535.4

#### Metadata

| Field        | Value    |
|--------------|----------|
| Entrypoint   | 0x00D1   |
| Data Size    | 14 bytes |
| Instructions | 4        |

```
      00 01 02 03 04 05 06 07  08 09 0A 0B 0C 0D 0E 0F
      -- -- -- -- -- -- -- --  -- -- -- -- -- -- -- --
00D0:    32 06 80 1F 00 0E 80  0F 80 09 80 1F 01 00      2............. 
```

#### Opcodes

```
  0: 0x00D1 [0x32] ExtData[1]->MainSpeed = 13* * 0.1
  1: 0x00D4 [0x1F] MOVE_ENTITY: EventEntity moves to X=82.702*, Z=-135.689*, Y=-6.000*
  2: 0x00DC [0x1F] MOVE_ENTITY: Update entity position (mode=1)
  3: 0x00DE [0x00] END_REQSTACK()
```

### Event 65535.5

#### Metadata

| Field        | Value     |
|--------------|-----------|
| Entrypoint   | 0x00DF    |
| Data Size    | 424 bytes |
| Instructions | 83        |

```
      00 01 02 03 04 05 06 07  08 09 0A 0B 0C 0D 0E 0F
      -- -- -- -- -- -- -- --  -- -- -- -- -- -- -- --
00D0:                                               32                 2
00E0: 06 80 1F 00 07 80 08 80  09 80 1F 01 1E 54 20 03  .............T .
00F0: 01 29 05 31 21 03 01 3A  27 05 5C 21 03 01 0D 1C  .).1!..:'.\!....
0100: 10 80 27 05 82 20 03 01  0C 1C 10 80 32 06 80 1F  ..'.. ......2...
0110: 00 0A 80 0B 80 09 80 1F  01 1E 54 20 03 01 27 05  ..........T ..'.
0120: 31 21 03 01 3B 1C 10 80  29 05 32 21 03 01 39 27  1!..;...).2!..9'
0130: 05 82 20 03 01 0D 1C 10  80 32 06 80 1F 00 0C 80  .. ......2......
0140: 0D 80 09 80 1F 01 03 25  10 11 80 1E 54 20 03 01  .......%....T ..
0150: 27 05 31 21 03 01 3C 1C  10 80 27 05 32 21 03 01  '.1!..<...'.2!..
0160: 3A 1C 10 80 29 05 30 21  03 01 3C 27 05 31 21 03  :...).0!..<'.1!.
0170: 01 3D 32 06 80 1F 00 0E  80 0F 80 09 80 1F 01 2A  .=2............*
0180: 05 30 21 03 01 29 05 84  20 03 01 03 27 05 31 21  .0!..).. ...'.1!
0190: 03 01 3E 1C 10 80 27 05  32 21 03 01 3C 1C 10 80  ..>...'.2!..<...
01A0: 27 05 30 21 03 01 3E 1C  10 80 27 05 84 20 03 01  '.0!..>...'.. ..
01B0: 04 1C 10 80 29 05 85 20  03 01 03 27 05 32 21 03  ....).. ...'.2!.
01C0: 01 3D 1C 10 80 27 05 30  21 03 01 3F 1C 10 80 03  .=...'.0!..?....
01D0: 25 10 12 80 27 05 84 20  03 01 05 1C 10 80 27 05  %...'.. ......'.
01E0: 85 20 03 01 04 1C 10 80  29 05 01 21 03 01 19 27  . ......)..!...'
01F0: 05 30 21 03 01 40 1C 10  80 27 05 84 20 03 01 06  .0!..@...'.. ...
0200: 1C 10 80 27 05 85 20 03  01 05 03 25 10 13 80 1C  ...'.. ....%....
0210: 10 80 27 05 01 21 03 01  1A 1C 10 80 29 05 02 21  ..'..!......)..!
0220: 03 01 16 27 05 84 20 03  01 08 1C 10 80 27 05 85  ...'.. ......'..
0230: 20 03 01 07 1C 10 80 27  05 01 21 03 01 1B 1C 10   ......'..!.....
0240: 80 29 05 02 21 03 01 17  27 05 85 20 03 01 08 1C  .)..!...'.. ....
0250: 10 80 27 05 01 21 03 01  1C 1C 10 80 29 05 02 21  ..'..!......)..!
0260: 03 01 18 27 05 01 21 03  01 1D 1C 10 80 27 05 02  ...'..!......'..
0270: 21 03 01 19 1C 14 80 27  05 02 21 03 01 1A 03 26  !......'..!....&
0280: 10 11 80 B4 06 00 00                              .......         
```

#### Opcodes

```
  0: 0x00DF [0x32] ExtData[1]->MainSpeed = 13* * 0.1
  1: 0x00E2 [0x1F] MOVE_ENTITY: EventEntity moves to X=78.268*, Z=-135.273*, Y=-6.000*
  2: 0x00EA [0x1F] MOVE_ENTITY: Update entity position (mode=1)
  3: 0x00EC [0x1E] EventEntity looks at Yafaaf (ID: 16982100/0x01032054) and starts talking
  4: 0x00F1 [0x29] REQ_SET_WAIT(priority=0x05, entity_id=Foudeel (ID: 16982321/0x01032131), tag_num=0x3A)
  5: 0x00F8 [0x27] REQ_SET(priority=0x05, entity_id=Fari-Wari (ID: 16982364/0x0103215C), tag_num=0x0D)
  6: 0x00FF [0x1C] WAIT(60* ticks)
  7: 0x0102 [0x27] REQ_SET(priority=0x05, entity_id=Zubyahn (ID: 16982146/0x01032082), tag_num=0x0C)
  8: 0x0109 [0x1C] WAIT(60* ticks)
  9: 0x010C [0x32] ExtData[1]->MainSpeed = 13* * 0.1
 10: 0x010F [0x1F] MOVE_ENTITY: EventEntity moves to X=78.167*, Z=-136.256*, Y=-6.000*
 11: 0x0117 [0x1F] MOVE_ENTITY: Update entity position (mode=1)
 12: 0x0119 [0x1E] EventEntity looks at Yafaaf (ID: 16982100/0x01032054) and starts talking
 13: 0x011E [0x27] REQ_SET(priority=0x05, entity_id=Foudeel (ID: 16982321/0x01032131), tag_num=0x3B)
 14: 0x0125 [0x1C] WAIT(60* ticks)
 15: 0x0128 [0x29] REQ_SET_WAIT(priority=0x05, entity_id=Wahboud (ID: 16982322/0x01032132), tag_num=0x39)
 16: 0x012F [0x27] REQ_SET(priority=0x05, entity_id=Zubyahn (ID: 16982146/0x01032082), tag_num=0x0D)
 17: 0x0136 [0x1C] WAIT(60* ticks)
 18: 0x0139 [0x32] ExtData[1]->MainSpeed = 13* * 0.1
 19: 0x013C [0x1F] MOVE_ENTITY: EventEntity moves to X=77.377*, Z=-137.981*, Y=-6.000*
 20: 0x0144 [0x1F] MOVE_ENTITY: Update entity position (mode=1)
 21: 0x0146 [0x03] Work_Zone[37] = 1*
 22: 0x014B [0x1E] EventEntity looks at Yafaaf (ID: 16982100/0x01032054) and starts talking
 23: 0x0150 [0x27] REQ_SET(priority=0x05, entity_id=Foudeel (ID: 16982321/0x01032131), tag_num=0x3C)
 24: 0x0157 [0x1C] WAIT(60* ticks)
 25: 0x015A [0x27] REQ_SET(priority=0x05, entity_id=Wahboud (ID: 16982322/0x01032132), tag_num=0x3A)
 26: 0x0161 [0x1C] WAIT(60* ticks)
 27: 0x0164 [0x29] REQ_SET_WAIT(priority=0x05, entity_id=Bashraf (ID: 16982320/0x01032130), tag_num=0x3C)
 28: 0x016B [0x27] REQ_SET(priority=0x05, entity_id=Foudeel (ID: 16982321/0x01032131), tag_num=0x3D)
 29: 0x0172 [0x32] ExtData[1]->MainSpeed = 13* * 0.1
 30: 0x0175 [0x1F] MOVE_ENTITY: EventEntity moves to X=82.702*, Z=-135.689*, Y=-6.000*
 31: 0x017D [0x1F] MOVE_ENTITY: Update entity position (mode=1)
 32: 0x017F [0x2A] GET_REQ_LEVEL(level=5, entity_id=Bashraf (ID: 16982320/0x01032130))
 33: 0x0185 [0x29] REQ_SET_WAIT(priority=0x05, entity_id=Hashayra (ID: 16982148/0x01032084), tag_num=0x03)
 34: 0x018C [0x27] REQ_SET(priority=0x05, entity_id=Foudeel (ID: 16982321/0x01032131), tag_num=0x3E)
 35: 0x0193 [0x1C] WAIT(60* ticks)
 36: 0x0196 [0x27] REQ_SET(priority=0x05, entity_id=Wahboud (ID: 16982322/0x01032132), tag_num=0x3C)
 37: 0x019D [0x1C] WAIT(60* ticks)
 38: 0x01A0 [0x27] REQ_SET(priority=0x05, entity_id=Bashraf (ID: 16982320/0x01032130), tag_num=0x3E)
 39: 0x01A7 [0x1C] WAIT(60* ticks)
 40: 0x01AA [0x27] REQ_SET(priority=0x05, entity_id=Hashayra (ID: 16982148/0x01032084), tag_num=0x04)
 41: 0x01B1 [0x1C] WAIT(60* ticks)
 42: 0x01B4 [0x29] REQ_SET_WAIT(priority=0x05, entity_id=Kamnahb (ID: 16982149/0x01032085), tag_num=0x03)
 43: 0x01BB [0x27] REQ_SET(priority=0x05, entity_id=Wahboud (ID: 16982322/0x01032132), tag_num=0x3D)
 44: 0x01C2 [0x1C] WAIT(60* ticks)
 45: 0x01C5 [0x27] REQ_SET(priority=0x05, entity_id=Bashraf (ID: 16982320/0x01032130), tag_num=0x3F)
 46: 0x01CC [0x1C] WAIT(60* ticks)
 47: 0x01CF [0x03] Work_Zone[37] = 2*
 48: 0x01D4 [0x27] REQ_SET(priority=0x05, entity_id=Hashayra (ID: 16982148/0x01032084), tag_num=0x05)
 49: 0x01DB [0x1C] WAIT(60* ticks)
 50: 0x01DE [0x27] REQ_SET(priority=0x05, entity_id=Kamnahb (ID: 16982149/0x01032085), tag_num=0x04)
 51: 0x01E5 [0x1C] WAIT(60* ticks)
 52: 0x01E8 [0x29] REQ_SET_WAIT(priority=0x05, entity_id=Qutiba (ID: 16982273/0x01032101), tag_num=0x19)
 53: 0x01EF [0x27] REQ_SET(priority=0x05, entity_id=Bashraf (ID: 16982320/0x01032130), tag_num=0x40)
 54: 0x01F6 [0x1C] WAIT(60* ticks)
 55: 0x01F9 [0x27] REQ_SET(priority=0x05, entity_id=Hashayra (ID: 16982148/0x01032084), tag_num=0x06)
 56: 0x0200 [0x1C] WAIT(60* ticks)
 57: 0x0203 [0x27] REQ_SET(priority=0x05, entity_id=Kamnahb (ID: 16982149/0x01032085), tag_num=0x05)
 58: 0x020A [0x03] Work_Zone[37] = 3*
 59: 0x020F [0x1C] WAIT(60* ticks)
 60: 0x0212 [0x27] REQ_SET(priority=0x05, entity_id=Qutiba (ID: 16982273/0x01032101), tag_num=0x1A)
 61: 0x0219 [0x1C] WAIT(60* ticks)
 62: 0x021C [0x29] REQ_SET_WAIT(priority=0x05, entity_id=Ulamaal (ID: 16982274/0x01032102), tag_num=0x16)
 63: 0x0223 [0x27] REQ_SET(priority=0x05, entity_id=Hashayra (ID: 16982148/0x01032084), tag_num=0x08)
 64: 0x022A [0x1C] WAIT(60* ticks)
 65: 0x022D [0x27] REQ_SET(priority=0x05, entity_id=Kamnahb (ID: 16982149/0x01032085), tag_num=0x07)
 66: 0x0234 [0x1C] WAIT(60* ticks)
 67: 0x0237 [0x27] REQ_SET(priority=0x05, entity_id=Qutiba (ID: 16982273/0x01032101), tag_num=0x1B)
 68: 0x023E [0x1C] WAIT(60* ticks)
 69: 0x0241 [0x29] REQ_SET_WAIT(priority=0x05, entity_id=Ulamaal (ID: 16982274/0x01032102), tag_num=0x17)
 70: 0x0248 [0x27] REQ_SET(priority=0x05, entity_id=Kamnahb (ID: 16982149/0x01032085), tag_num=0x08)
 71: 0x024F [0x1C] WAIT(60* ticks)
 72: 0x0252 [0x27] REQ_SET(priority=0x05, entity_id=Qutiba (ID: 16982273/0x01032101), tag_num=0x1C)
 73: 0x0259 [0x1C] WAIT(60* ticks)
 74: 0x025C [0x29] REQ_SET_WAIT(priority=0x05, entity_id=Ulamaal (ID: 16982274/0x01032102), tag_num=0x18)
 75: 0x0263 [0x27] REQ_SET(priority=0x05, entity_id=Qutiba (ID: 16982273/0x01032101), tag_num=0x1D)
 76: 0x026A [0x1C] WAIT(60* ticks)
 77: 0x026D [0x27] REQ_SET(priority=0x05, entity_id=Ulamaal (ID: 16982274/0x01032102), tag_num=0x19)
 78: 0x0274 [0x1C] WAIT(120* ticks)
 79: 0x0277 [0x27] REQ_SET(priority=0x05, entity_id=Ulamaal (ID: 16982274/0x01032102), tag_num=0x1A)
 80: 0x027E [0x03] Work_Zone[38] = 1*
 81: 0x0283 [0xB4] UI_WINDOW_STRING_HANDLER(case=0x06 - Toggle query message flag, flag_value=0x00)
 82: 0x0286 [0x00] END_REQSTACK()
```

### Event 872

#### Metadata

| Field        | Value   |
|--------------|---------|
| Entrypoint   | 0x0287  |
| Data Size    | 7 bytes |
| Instructions | 2       |

```
      00 01 02 03 04 05 06 07  08 09 0A 0B 0C 0D 0E 0F
      -- -- -- -- -- -- -- --  -- -- -- -- -- -- -- --
0280:                      92  01 F8 FF FF 7F 00               .......  
```

#### Opcodes

```
  0: 0x0287 [0x92] EventEntity->Render.Flags3 ^= 0x01
  1: 0x028D [0x00] END_REQSTACK()
```
