# 16982275 - Saliyahf

## Common Data

| Field            | Value                         |
|------------------|-------------------------------|
| Zone             | Aht Urhgan Whitegate (ID: 50) |
| Block Size       | 540 bytes                     |
| Total Events     | 24                            |
| References Count | 41                            |

## List of Events

| Event ID                   | Entrypoint   |   Size |   Instructions |
|----------------------------|--------------|--------|----------------|
| [65535](#event-65535)      | 0x0000       |      1 |              1 |
| [686](#event-686)          | 0x0001       |      1 |              1 |
| [690](#event-690)          | 0x0002       |      1 |              1 |
| [691](#event-691)          | 0x0003       |      1 |              1 |
| [695](#event-695)          | 0x0004       |      1 |              1 |
| [692](#event-692)          | 0x0005       |      1 |              1 |
| [696](#event-696)          | 0x0006       |      1 |              1 |
| [65535.1](#event-655351)   | 0x0007       |     26 |              6 |
| [65535.2](#event-655352)   | 0x0021       |     10 |              2 |
| [65535.3](#event-655353)   | 0x002B       |     14 |              4 |
| [65535.4](#event-655354)   | 0x0039       |     10 |              2 |
| [65535.5](#event-655355)   | 0x0043       |     10 |              2 |
| [65535.6](#event-655356)   | 0x004D       |     14 |              4 |
| [65535.7](#event-655357)   | 0x005B       |      3 |              2 |
| [65535.8](#event-655358)   | 0x005E       |     21 |              5 |
| [65535.9](#event-655359)   | 0x0073       |     18 |              4 |
| [65535.10](#event-6553510) | 0x0085       |     10 |              2 |
| [65535.11](#event-6553511) | 0x008F       |     14 |              4 |
| [65535.12](#event-6553512) | 0x009D       |     25 |              7 |
| [65535.13](#event-6553513) | 0x00B6       |     24 |              6 |
| [687](#event-687)          | 0x00CE       |     17 |              9 |
| [693](#event-693)          | 0x00DF       |     21 |             11 |
| [698](#event-698)          | 0x00F4       |     13 |              7 |
| [700](#event-700)          | 0x0101       |      6 |              4 |

## DAT References (imed_data)

|   Index | Hex Value   |   Dec Value |
|---------|-------------|-------------|
|       0 | 0x0022      |          34 |
|       1 | 0x26DE      |        9950 |
|       2 | 0xFFFE4055  |  4294852693 |
|       3 | 0xFFFFD04E  |  4294955086 |
|       4 | 0x0000      |           0 |
|       5 | 0x0287      |         647 |
|       6 | 0x0028      |          40 |
|       7 | 0xFFFE47AC  |  4294854572 |
|       8 | 0xFFFFE15D  |  4294959453 |
|       9 | 0x558D      |       21901 |
|      10 | 0xFFFE2F9E  |  4294848414 |
|      11 | 0x07D0      |        2000 |
|      12 | 0x0521      |        1313 |
|      13 | 0xFFFF15ED  |  4294907373 |
|      14 | 0xFD57      |       64855 |
|      15 | 0x091D      |        2333 |
|      16 | 0x000D      |          13 |
|      17 | 0xFFFF14F2  |  4294907122 |
|      18 | 0x11655     |       71253 |
|      19 | 0x0014      |          20 |
|      20 | 0x0015      |          21 |
|      21 | 0xFFFE65CD  |  4294862285 |
|      22 | 0x3D7A      |       15738 |
|      23 | 0x0C21      |        3105 |
|      24 | 0xFFFE667F  |  4294862463 |
|      25 | 0x4A13      |       18963 |
|      26 | 0xFFFE5E5F  |  4294860383 |
|      27 | 0x3D27      |       15655 |
|      28 | 0xFFFE57AC  |  4294858668 |
|      29 | 0x3867      |       14439 |
|      30 | 0xFFFE54F4  |  4294857972 |
|      31 | 0x2D03      |       11523 |
|      32 | 0xFFFDFB26  |  4294834982 |
|      33 | 0x175A      |        5978 |
|      34 | 0x07CF      |        1999 |
|      35 | 0x270A      |        9994 |
|      36 | 0x270B      |        9995 |
|      37 | 0x2755      |       10069 |
|      38 | 0x2759      |       10073 |
|      39 | 0x275A      |       10074 |
|      40 | 0x278C      |       10124 |

## String References

- **9994**: Tiyaash mentioned a girl being harassed on Balrahn Way.
- **9995**: You should go check it out. Don't worry... I'm right behind you.
- **10069**: Wazyih? No, I don't know where he is. We're not working together anymore, remember?
- **10073**: Not that it matters now.
- **10074**: Well, back to my rounds.
- **10124**: Hey, how's it going? Like it here in Aht Urhgan? Not like you could admit it if you don't... You know I'd feed ya to the fishes if you said anything bad about this town, right?

## Events

### Event 65535

#### Metadata

| Field        | Value   |
|--------------|---------|
| Entrypoint   | 0x0000  |
| Data Size    | 1 bytes |
| Instructions | 1       |

```
      00 01 02 03 04 05 06 07  08 09 0A 0B 0C 0D 0E 0F
      -- -- -- -- -- -- -- --  -- -- -- -- -- -- -- --
0000: 00                                                .               
```

#### Opcodes

```
  0: 0x0000 [0x00] END_REQSTACK()
```

### Event 686

#### Metadata

| Field        | Value   |
|--------------|---------|
| Entrypoint   | 0x0001  |
| Data Size    | 1 bytes |
| Instructions | 1       |

```
      00 01 02 03 04 05 06 07  08 09 0A 0B 0C 0D 0E 0F
      -- -- -- -- -- -- -- --  -- -- -- -- -- -- -- --
0000:    00                                              .              
```

#### Opcodes

```
  0: 0x0001 [0x00] END_REQSTACK()
```

### Event 690

#### Metadata

| Field        | Value   |
|--------------|---------|
| Entrypoint   | 0x0002  |
| Data Size    | 1 bytes |
| Instructions | 1       |

```
      00 01 02 03 04 05 06 07  08 09 0A 0B 0C 0D 0E 0F
      -- -- -- -- -- -- -- --  -- -- -- -- -- -- -- --
0000:       00                                            .             
```

#### Opcodes

```
  0: 0x0002 [0x00] END_REQSTACK()
```

### Event 691

#### Metadata

| Field        | Value   |
|--------------|---------|
| Entrypoint   | 0x0003  |
| Data Size    | 1 bytes |
| Instructions | 1       |

```
      00 01 02 03 04 05 06 07  08 09 0A 0B 0C 0D 0E 0F
      -- -- -- -- -- -- -- --  -- -- -- -- -- -- -- --
0000:          00                                          .            
```

#### Opcodes

```
  0: 0x0003 [0x00] END_REQSTACK()
```

### Event 695

#### Metadata

| Field        | Value   |
|--------------|---------|
| Entrypoint   | 0x0004  |
| Data Size    | 1 bytes |
| Instructions | 1       |

```
      00 01 02 03 04 05 06 07  08 09 0A 0B 0C 0D 0E 0F
      -- -- -- -- -- -- -- --  -- -- -- -- -- -- -- --
0000:             00                                        .           
```

#### Opcodes

```
  0: 0x0004 [0x00] END_REQSTACK()
```

### Event 692

#### Metadata

| Field        | Value   |
|--------------|---------|
| Entrypoint   | 0x0005  |
| Data Size    | 1 bytes |
| Instructions | 1       |

```
      00 01 02 03 04 05 06 07  08 09 0A 0B 0C 0D 0E 0F
      -- -- -- -- -- -- -- --  -- -- -- -- -- -- -- --
0000:                00                                      .          
```

#### Opcodes

```
  0: 0x0005 [0x00] END_REQSTACK()
```

### Event 696

#### Metadata

| Field        | Value   |
|--------------|---------|
| Entrypoint   | 0x0006  |
| Data Size    | 1 bytes |
| Instructions | 1       |

```
      00 01 02 03 04 05 06 07  08 09 0A 0B 0C 0D 0E 0F
      -- -- -- -- -- -- -- --  -- -- -- -- -- -- -- --
0000:                   00                                    .         
```

#### Opcodes

```
  0: 0x0006 [0x00] END_REQSTACK()
```

### Event 65535.1

#### Metadata

| Field        | Value    |
|--------------|----------|
| Entrypoint   | 0x0007   |
| Data Size    | 26 bytes |
| Instructions | 6        |

```
      00 01 02 03 04 05 06 07  08 09 0A 0B 0C 0D 0E 0F
      -- -- -- -- -- -- -- --  -- -- -- -- -- -- -- --
0000:                      6E  03 21 03 01 00 80 99 03         n.!......
0010: 21 03 01 2B 03 21 03 01  01 80 23 99 03 21 03 01  !..+.!....#..!..
0020: 00                                                .               
```

#### Opcodes

```
  0: 0x0007 [0x6E] Saliyahf (ID: 16982275/0x01032103) uses emote 34*
  1: 0x000E [0x99] Wait for Saliyahf (ID: 16982275/0x01032103) animation to complete
  2: 0x0013 [0x2B] Saliyahf (ID: 16982275/0x01032103) [9950*]:
    → "...You idiot!"
  3: 0x001A [0x23] WAIT_FOR_DIALOG_INTERACTION
  4: 0x001B [0x99] Wait for Saliyahf (ID: 16982275/0x01032103) animation to complete
  5: 0x0020 [0x00] END_REQSTACK()
```

### Event 65535.2

#### Metadata

| Field        | Value    |
|--------------|----------|
| Entrypoint   | 0x0021   |
| Data Size    | 10 bytes |
| Instructions | 2        |

```
      00 01 02 03 04 05 06 07  08 09 0A 0B 0C 0D 0E 0F
      -- -- -- -- -- -- -- --  -- -- -- -- -- -- -- --
0020:    37 02 80 03 80 04 80  05 80 00                  7.........     
```

#### Opcodes

```
  0: 0x0021 [0x37] UPDATE_EVENT_POSITION_AND_DIR: x=-114.603*, z=-12.210*, y=0.000*, direction=56.9°*
  1: 0x002A [0x00] END_REQSTACK()
```

### Event 65535.3

#### Metadata

| Field        | Value    |
|--------------|----------|
| Entrypoint   | 0x002B   |
| Data Size    | 14 bytes |
| Instructions | 4        |

```
      00 01 02 03 04 05 06 07  08 09 0A 0B 0C 0D 0E 0F
      -- -- -- -- -- -- -- --  -- -- -- -- -- -- -- --
0020:                                   32 06 80 1F 00             2....
0030: 07 80 08 80 04 80 1F 01  00                       .........       
```

#### Opcodes

```
  0: 0x002B [0x32] ExtData[1]->MainSpeed = 40* * 0.1
  1: 0x002E [0x1F] MOVE_ENTITY: EventEntity moves to X=-112.724*, Z=-7.843*, Y=0.000*
  2: 0x0036 [0x1F] MOVE_ENTITY: Update entity position (mode=1)
  3: 0x0038 [0x00] END_REQSTACK()
```

### Event 65535.4

#### Metadata

| Field        | Value    |
|--------------|----------|
| Entrypoint   | 0x0039   |
| Data Size    | 10 bytes |
| Instructions | 2        |

```
      00 01 02 03 04 05 06 07  08 09 0A 0B 0C 0D 0E 0F
      -- -- -- -- -- -- -- --  -- -- -- -- -- -- -- --
0030:                             37 09 80 0A 80 0B 80           7......
0040: 0C 80 00                                          ...             
```

#### Opcodes

```
  0: 0x0039 [0x37] UPDATE_EVENT_POSITION_AND_DIR: x=21.901*, z=-118.882*, y=2.000*, direction=115.4°*
  1: 0x0042 [0x00] END_REQSTACK()
```

### Event 65535.5

#### Metadata

| Field        | Value    |
|--------------|----------|
| Entrypoint   | 0x0043   |
| Data Size    | 10 bytes |
| Instructions | 2        |

```
      00 01 02 03 04 05 06 07  08 09 0A 0B 0C 0D 0E 0F
      -- -- -- -- -- -- -- --  -- -- -- -- -- -- -- --
0040:          37 0D 80 0E 80  04 80 0F 80 00              7.........   
```

#### Opcodes

```
  0: 0x0043 [0x37] UPDATE_EVENT_POSITION_AND_DIR: x=-59.923*, z=64.855*, y=0.000*, direction=205.0°*
  1: 0x004C [0x00] END_REQSTACK()
```

### Event 65535.6

#### Metadata

| Field        | Value    |
|--------------|----------|
| Entrypoint   | 0x004D   |
| Data Size    | 14 bytes |
| Instructions | 4        |

```
      00 01 02 03 04 05 06 07  08 09 0A 0B 0C 0D 0E 0F
      -- -- -- -- -- -- -- --  -- -- -- -- -- -- -- --
0040:                                         32 10 80               2..
0050: 1F 00 11 80 12 80 04 80  1F 01 00                 ...........     
```

#### Opcodes

```
  0: 0x004D [0x32] ExtData[1]->MainSpeed = 13* * 0.1
  1: 0x0050 [0x1F] MOVE_ENTITY: EventEntity moves to X=-60.174*, Z=71.253*, Y=0.000*
  2: 0x0058 [0x1F] MOVE_ENTITY: Update entity position (mode=1)
  3: 0x005A [0x00] END_REQSTACK()
```

### Event 65535.7

#### Metadata

| Field        | Value   |
|--------------|---------|
| Entrypoint   | 0x005B  |
| Data Size    | 3 bytes |
| Instructions | 2       |

```
      00 01 02 03 04 05 06 07  08 09 0A 0B 0C 0D 0E 0F
      -- -- -- -- -- -- -- --  -- -- -- -- -- -- -- --
0050:                                   22 01 00                   "..  
```

#### Opcodes

```
  0: 0x005B [0x22] ENTITY_HIDE_FLAG(enabled=0x01)
  1: 0x005D [0x00] END_REQSTACK()
```

### Event 65535.8

#### Metadata

| Field        | Value    |
|--------------|----------|
| Entrypoint   | 0x005E   |
| Data Size    | 21 bytes |
| Instructions | 5        |

```
      00 01 02 03 04 05 06 07  08 09 0A 0B 0C 0D 0E 0F
      -- -- -- -- -- -- -- --  -- -- -- -- -- -- -- --
0050:                                            1C 13                ..
0060: 80 6E 03 21 03 01 14 80  99 03 21 03 01 99 03 21  .n.!......!....!
0070: 03 01 00                                          ...             
```

#### Opcodes

```
  0: 0x005E [0x1C] WAIT(20* ticks)
  1: 0x0061 [0x6E] Saliyahf (ID: 16982275/0x01032103) uses emote 21*
  2: 0x0068 [0x99] Wait for Saliyahf (ID: 16982275/0x01032103) animation to complete
  3: 0x006D [0x99] Wait for Saliyahf (ID: 16982275/0x01032103) animation to complete
  4: 0x0072 [0x00] END_REQSTACK()
```

### Event 65535.9

#### Metadata

| Field        | Value    |
|--------------|----------|
| Entrypoint   | 0x0073   |
| Data Size    | 18 bytes |
| Instructions | 4        |

```
      00 01 02 03 04 05 06 07  08 09 0A 0B 0C 0D 0E 0F
      -- -- -- -- -- -- -- --  -- -- -- -- -- -- -- --
0070:          6E 03 21 03 01  14 80 99 03 21 03 01 99     n.!......!...
0080: 03 21 03 01 00                                    .!...           
```

#### Opcodes

```
  0: 0x0073 [0x6E] Saliyahf (ID: 16982275/0x01032103) uses emote 21*
  1: 0x007A [0x99] Wait for Saliyahf (ID: 16982275/0x01032103) animation to complete
  2: 0x007F [0x99] Wait for Saliyahf (ID: 16982275/0x01032103) animation to complete
  3: 0x0084 [0x00] END_REQSTACK()
```

### Event 65535.10

#### Metadata

| Field        | Value    |
|--------------|----------|
| Entrypoint   | 0x0085   |
| Data Size    | 10 bytes |
| Instructions | 2        |

```
      00 01 02 03 04 05 06 07  08 09 0A 0B 0C 0D 0E 0F
      -- -- -- -- -- -- -- --  -- -- -- -- -- -- -- --
0080:                37 15 80  16 80 04 80 17 80 00          7......... 
```

#### Opcodes

```
  0: 0x0085 [0x37] UPDATE_EVENT_POSITION_AND_DIR: x=-105.011*, z=15.738*, y=0.000*, direction=272.9°*
  1: 0x008E [0x00] END_REQSTACK()
```

### Event 65535.11

#### Metadata

| Field        | Value    |
|--------------|----------|
| Entrypoint   | 0x008F   |
| Data Size    | 14 bytes |
| Instructions | 4        |

```
      00 01 02 03 04 05 06 07  08 09 0A 0B 0C 0D 0E 0F
      -- -- -- -- -- -- -- --  -- -- -- -- -- -- -- --
0080:                                               32                 2
0090: 10 80 1F 00 18 80 19 80  04 80 1F 01 00           .............   
```

#### Opcodes

```
  0: 0x008F [0x32] ExtData[1]->MainSpeed = 13* * 0.1
  1: 0x0092 [0x1F] MOVE_ENTITY: EventEntity moves to X=-104.833*, Z=18.963*, Y=0.000*
  2: 0x009A [0x1F] MOVE_ENTITY: Update entity position (mode=1)
  3: 0x009C [0x00] END_REQSTACK()
```

### Event 65535.12

#### Metadata

| Field        | Value    |
|--------------|----------|
| Entrypoint   | 0x009D   |
| Data Size    | 25 bytes |
| Instructions | 7        |

```
      00 01 02 03 04 05 06 07  08 09 0A 0B 0C 0D 0E 0F
      -- -- -- -- -- -- -- --  -- -- -- -- -- -- -- --
0090:                                         32 10 80               2..
00A0: 1F 00 1A 80 1B 80 04 80  1F 01 1F 00 1C 80 1D 80  ................
00B0: 04 80 1F 01 6F 00                                 ....o.          
```

#### Opcodes

```
  0: 0x009D [0x32] ExtData[1]->MainSpeed = 13* * 0.1
  1: 0x00A0 [0x1F] MOVE_ENTITY: EventEntity moves to X=-106.913*, Z=15.655*, Y=0.000*
  2: 0x00A8 [0x1F] MOVE_ENTITY: Update entity position (mode=1)
  3: 0x00AA [0x1F] MOVE_ENTITY: EventEntity moves to X=-108.628*, Z=14.439*, Y=0.000*
  4: 0x00B2 [0x1F] MOVE_ENTITY: Update entity position (mode=1)
  5: 0x00B4 [0x6F] WAIT_FRAME_DELAY: Yield until WaitTime reaches zero
  6: 0x00B5 [0x00] END_REQSTACK()
```

### Event 65535.13

#### Metadata

| Field        | Value    |
|--------------|----------|
| Entrypoint   | 0x00B6   |
| Data Size    | 24 bytes |
| Instructions | 6        |

```
      00 01 02 03 04 05 06 07  08 09 0A 0B 0C 0D 0E 0F
      -- -- -- -- -- -- -- --  -- -- -- -- -- -- -- --
00B0:                   32 10  80 1F 00 1E 80 1F 80 04        2.........
00C0: 80 1F 01 1F 00 20 80 21  80 22 80 1F 01 00        ..... .!."....  
```

#### Opcodes

```
  0: 0x00B6 [0x32] ExtData[1]->MainSpeed = 13* * 0.1
  1: 0x00B9 [0x1F] MOVE_ENTITY: EventEntity moves to X=-109.324*, Z=11.523*, Y=0.000*
  2: 0x00C1 [0x1F] MOVE_ENTITY: Update entity position (mode=1)
  3: 0x00C3 [0x1F] MOVE_ENTITY: EventEntity moves to X=-132.314*, Z=5.978*, Y=1.999*
  4: 0x00CB [0x1F] MOVE_ENTITY: Update entity position (mode=1)
  5: 0x00CD [0x00] END_REQSTACK()
```

### Event 687

#### Metadata

| Field        | Value    |
|--------------|----------|
| Entrypoint   | 0x00CE   |
| Data Size    | 17 bytes |
| Instructions | 9        |

```
      00 01 02 03 04 05 06 07  08 09 0A 0B 0C 0D 0E 0F
      -- -- -- -- -- -- -- --  -- -- -- -- -- -- -- --
00C0:                                            1E F0                ..
00D0: FF FF 7F 6F 70 1D 23 80  23 1D 24 80 23 21 00     ...op.#.#.$.#!. 
```

#### Opcodes

```
  0: 0x00CE [0x1E] EventEntity looks at LocalPlayer and starts talking
  1: 0x00D3 [0x6F] WAIT_FRAME_DELAY: Yield until WaitTime reaches zero
  2: 0x00D4 [0x70] WAIT_ENTITY_RENDER_FLAG: Wait while EventEntity->Render.Flags3 bit 2 is set (cancel turn if not)
  3: 0x00D5 [0x1D] PRINT_EVENT_MESSAGE(message_id=9994*)
    → "Tiyaash mentioned a girl being harassed on Balrahn Way."
  4: 0x00D8 [0x23] WAIT_FOR_DIALOG_INTERACTION
  5: 0x00D9 [0x1D] PRINT_EVENT_MESSAGE(message_id=9995*)
    → "You should go check it out. Don't worry... I'm right behind you."
  6: 0x00DC [0x23] WAIT_FOR_DIALOG_INTERACTION
  7: 0x00DD [0x21] END_EVENT
  8: 0x00DE [0x00] END_REQSTACK()
```

### Event 693

#### Metadata

| Field        | Value    |
|--------------|----------|
| Entrypoint   | 0x00DF   |
| Data Size    | 21 bytes |
| Instructions | 11       |

```
      00 01 02 03 04 05 06 07  08 09 0A 0B 0C 0D 0E 0F
      -- -- -- -- -- -- -- --  -- -- -- -- -- -- -- --
00D0:                                               1E                 .
00E0: F0 FF FF 7F 6F 70 1D 25  80 23 1D 26 80 23 1D 27  ....op.%.#.&.#.'
00F0: 80 23 21 00                                       .#!.            
```

#### Opcodes

```
  0: 0x00DF [0x1E] EventEntity looks at LocalPlayer and starts talking
  1: 0x00E4 [0x6F] WAIT_FRAME_DELAY: Yield until WaitTime reaches zero
  2: 0x00E5 [0x70] WAIT_ENTITY_RENDER_FLAG: Wait while EventEntity->Render.Flags3 bit 2 is set (cancel turn if not)
  3: 0x00E6 [0x1D] PRINT_EVENT_MESSAGE(message_id=10069*)
    → "Wazyih? No, I don't know where he is. We're not working together anymore, remember?"
  4: 0x00E9 [0x23] WAIT_FOR_DIALOG_INTERACTION
  5: 0x00EA [0x1D] PRINT_EVENT_MESSAGE(message_id=10073*)
    → "Not that it matters now."
  6: 0x00ED [0x23] WAIT_FOR_DIALOG_INTERACTION
  7: 0x00EE [0x1D] PRINT_EVENT_MESSAGE(message_id=10074*)
    → "Well, back to my rounds."
  8: 0x00F1 [0x23] WAIT_FOR_DIALOG_INTERACTION
  9: 0x00F2 [0x21] END_EVENT
 10: 0x00F3 [0x00] END_REQSTACK()
```

### Event 698

#### Metadata

| Field        | Value    |
|--------------|----------|
| Entrypoint   | 0x00F4   |
| Data Size    | 13 bytes |
| Instructions | 7        |

```
      00 01 02 03 04 05 06 07  08 09 0A 0B 0C 0D 0E 0F
      -- -- -- -- -- -- -- --  -- -- -- -- -- -- -- --
00F0:             1E F0 FF FF  7F 6F 70 1D 28 80 23 21      .....op.(.#!
0100: 00                                                .               
```

#### Opcodes

```
  0: 0x00F4 [0x1E] EventEntity looks at LocalPlayer and starts talking
  1: 0x00F9 [0x6F] WAIT_FRAME_DELAY: Yield until WaitTime reaches zero
  2: 0x00FA [0x70] WAIT_ENTITY_RENDER_FLAG: Wait while EventEntity->Render.Flags3 bit 2 is set (cancel turn if not)
  3: 0x00FB [0x1D] PRINT_EVENT_MESSAGE(message_id=10124*)
    → "Hey, how's it going? Like it here in Aht Urhgan? Not like you could admit it if you don't... You know I'd feed ya to the fishes if you said anything bad about this town, right?"
  4: 0x00FE [0x23] WAIT_FOR_DIALOG_INTERACTION
  5: 0x00FF [0x21] END_EVENT
  6: 0x0100 [0x00] END_REQSTACK()
```

### Event 700

#### Metadata

| Field        | Value   |
|--------------|---------|
| Entrypoint   | 0x0101  |
| Data Size    | 6 bytes |
| Instructions | 4       |

```
      00 01 02 03 04 05 06 07  08 09 0A 0B 0C 0D 0E 0F
      -- -- -- -- -- -- -- --  -- -- -- -- -- -- -- --
0100:    1D 27 80 23 21 00                               .'.#!.         
```

#### Opcodes

```
  0: 0x0101 [0x1D] PRINT_EVENT_MESSAGE(message_id=10074*)
    → "Well, back to my rounds."
  1: 0x0104 [0x23] WAIT_FOR_DIALOG_INTERACTION
  2: 0x0105 [0x21] END_EVENT
  3: 0x0106 [0x00] END_REQSTACK()
```
