# 16982285 - Deminza

## Common Data

| Field            | Value                         |
|------------------|-------------------------------|
| Zone             | Aht Urhgan Whitegate (ID: 50) |
| Block Size       | 508 bytes                     |
| Total Events     | 20                            |
| References Count | 40                            |

## List of Events

| Event ID                    | Entrypoint   |   Size |   Instructions |
|-----------------------------|--------------|--------|----------------|
| [65535](#event-65535)       | 0x0000       |      1 |              1 |
| [808](#event-808)           | 0x0001       |      1 |              1 |
| [65535.1](#event-65535-1)   | 0x0002       |     10 |              2 |
| [65535.2](#event-65535-2)   | 0x000C       |     14 |              4 |
| [65535.3](#event-65535-3)   | 0x001A       |     14 |              4 |
| [65535.4](#event-65535-4)   | 0x0028       |     14 |              4 |
| [65535.5](#event-65535-5)   | 0x0036       |     23 |              5 |
| [65535.6](#event-65535-6)   | 0x004D       |     14 |              4 |
| [65535.7](#event-65535-7)   | 0x005B       |     14 |              4 |
| [65535.8](#event-65535-8)   | 0x0069       |     14 |              4 |
| [65535.9](#event-65535-9)   | 0x0077       |     14 |              4 |
| [65535.10](#event-65535-10) | 0x0085       |     14 |              4 |
| [812](#event-812)           | 0x0093       |      1 |              1 |
| [65535.11](#event-65535-11) | 0x0094       |     19 |              3 |
| [65535.12](#event-65535-12) | 0x00A7       |     14 |              4 |
| [65535.13](#event-65535-13) | 0x00B5       |     24 |              6 |
| [813](#event-813)           | 0x00CD       |      1 |              1 |
| [65535.14](#event-65535-14) | 0x00CE       |     10 |              2 |
| [65535.15](#event-65535-15) | 0x00D8       |     14 |              4 |
| [65535.16](#event-65535-16) | 0x00E6       |     19 |              3 |

## DAT References (imed_data)

|   Index | Hex Value   |   Dec Value |
|---------|-------------|-------------|
|       0 | 0x1168E     |       71310 |
|       1 | 0xFFFFB1E3  |  4294947299 |
|       2 | 0x0000      |           0 |
|       3 | 0x0822      |        2082 |
|       4 | 0x0028      |          40 |
|       5 | 0xCA0B      |       51723 |
|       6 | 0xFFFFB264  |  4294947428 |
|       7 | 0xFFFFE891  |  4294961297 |
|       8 | 0xC9EE      |       51694 |
|       9 | 0xFFFFF902  |  4294965506 |
|      10 | 0xFFFFE5F5  |  4294960629 |
|      11 | 0xCE9E      |       52894 |
|      12 | 0x1D9E      |        7582 |
|      13 | 0xFFFFE890  |  4294961296 |
|      14 | 0x000D      |          13 |
|      15 | 0xC828      |       51240 |
|      16 | 0x215E      |        8542 |
|      17 | 0xC979      |       51577 |
|      18 | 0x2307      |        8967 |
|      19 | 0x15A6      |        5542 |
|      20 | 0x198E      |        6542 |
|      21 | 0xC920      |       51488 |
|      22 | 0x23B4      |        9140 |
|      23 | 0xFFFEE62A  |  4294895146 |
|      24 | 0xFFFEAFD7  |  4294881239 |
|      25 | 0x0C5F      |        3167 |
|      26 | 0xFFFEE267  |  4294894183 |
|      27 | 0xFFFEAF5E  |  4294881118 |
|      28 | 0xFFFEC058  |  4294885464 |
|      29 | 0xFFFEB229  |  4294881833 |
|      30 | 0xFFFE9941  |  4294875457 |
|      31 | 0xFFFEAF4C  |  4294881100 |
|      32 | 0x18C11     |      101393 |
|      33 | 0xFFFEA8C8  |  4294879432 |
|      34 | 0x03E4      |         996 |
|      35 | 0x18AC5     |      101061 |
|      36 | 0xFFFE8BC5  |  4294872005 |
|      37 | 0x18242     |       98882 |
|      38 | 0xFFFE831F  |  4294869791 |
|      39 | 0x0071      |         113 |

## Events

### Event 65535

#### Metadata

| Field        | Value   |
|--------------|---------|
| Entrypoint   | 0x0000  |
| Data Size    | 1 bytes |
| Instructions | 1       |

```
      00 01 02 03 04 05 06 07  08 09 0A 0B 0C 0D 0E 0F
      -- -- -- -- -- -- -- --  -- -- -- -- -- -- -- --
0000: 00                                                .               
```

#### Opcodes

```
  0: 0x0000 [0x00] END_REQSTACK()
```

### Event 808

#### Metadata

| Field        | Value   |
|--------------|---------|
| Entrypoint   | 0x0001  |
| Data Size    | 1 bytes |
| Instructions | 1       |

```
      00 01 02 03 04 05 06 07  08 09 0A 0B 0C 0D 0E 0F
      -- -- -- -- -- -- -- --  -- -- -- -- -- -- -- --
0000:    00                                              .              
```

#### Opcodes

```
  0: 0x0001 [0x00] END_REQSTACK()
```

### Event 65535.1

#### Metadata

| Field        | Value    |
|--------------|----------|
| Entrypoint   | 0x0002   |
| Data Size    | 10 bytes |
| Instructions | 2        |

```
      00 01 02 03 04 05 06 07  08 09 0A 0B 0C 0D 0E 0F
      -- -- -- -- -- -- -- --  -- -- -- -- -- -- -- --
0000:       37 00 80 01 80 02  80 03 80 00                7.........    
```

#### Opcodes

```
  0: 0x0002 [0x37] UPDATE_EVENT_POSITION_AND_DIR: x=71.310*, z=-19.997*, y=0.000*, direction=183.0째*
  1: 0x000B [0x00] END_REQSTACK()
```

### Event 65535.2

#### Metadata

| Field        | Value    |
|--------------|----------|
| Entrypoint   | 0x000C   |
| Data Size    | 14 bytes |
| Instructions | 4        |

```
      00 01 02 03 04 05 06 07  08 09 0A 0B 0C 0D 0E 0F
      -- -- -- -- -- -- -- --  -- -- -- -- -- -- -- --
0000:                                      32 04 80 1F              2...
0010: 00 05 80 06 80 07 80 1F  01 00                    ..........      
```

#### Opcodes

```
  0: 0x000C [0x32] ExtData[1]->MainSpeed = 40* * 0.1
  1: 0x000F [0x1F] MOVE_ENTITY: EventEntity moves to X=51.723*, Z=-19.868*, Y=-5.999*
  2: 0x0017 [0x1F] MOVE_ENTITY: Update entity position (mode=1)
  3: 0x0019 [0x00] END_REQSTACK()
```

### Event 65535.3

#### Metadata

| Field        | Value    |
|--------------|----------|
| Entrypoint   | 0x001A   |
| Data Size    | 14 bytes |
| Instructions | 4        |

```
      00 01 02 03 04 05 06 07  08 09 0A 0B 0C 0D 0E 0F
      -- -- -- -- -- -- -- --  -- -- -- -- -- -- -- --
0010:                                32 04 80 1F 00 08            2.....
0020: 80 09 80 0A 80 1F 01 00                           ........        
```

#### Opcodes

```
  0: 0x001A [0x32] ExtData[1]->MainSpeed = 40* * 0.1
  1: 0x001D [0x1F] MOVE_ENTITY: EventEntity moves to X=51.694*, Z=-1.790*, Y=-6.667*
  2: 0x0025 [0x1F] MOVE_ENTITY: Update entity position (mode=1)
  3: 0x0027 [0x00] END_REQSTACK()
```

### Event 65535.4

#### Metadata

| Field        | Value    |
|--------------|----------|
| Entrypoint   | 0x0028   |
| Data Size    | 14 bytes |
| Instructions | 4        |

```
      00 01 02 03 04 05 06 07  08 09 0A 0B 0C 0D 0E 0F
      -- -- -- -- -- -- -- --  -- -- -- -- -- -- -- --
0020:                          32 04 80 1F 00 0B 80 0C          2.......
0030: 80 0D 80 1F 01 00                                 ......          
```

#### Opcodes

```
  0: 0x0028 [0x32] ExtData[1]->MainSpeed = 40* * 0.1
  1: 0x002B [0x1F] MOVE_ENTITY: EventEntity moves to X=52.894*, Z=7.582*, Y=-6.000*
  2: 0x0033 [0x1F] MOVE_ENTITY: Update entity position (mode=1)
  3: 0x0035 [0x00] END_REQSTACK()
```

### Event 65535.5

#### Metadata

| Field        | Value    |
|--------------|----------|
| Entrypoint   | 0x0036   |
| Data Size    | 23 bytes |
| Instructions | 5        |

```
      00 01 02 03 04 05 06 07  08 09 0A 0B 0C 0D 0E 0F
      -- -- -- -- -- -- -- --  -- -- -- -- -- -- -- --
0030:                   32 0E  80 1F 00 0F 80 10 80 07        2.........
0040: 80 1F 01 4A 0D 21 03 01  0B 21 03 01 00           ...J.!...!...   
```

#### Opcodes

```
  0: 0x0036 [0x32] ExtData[1]->MainSpeed = 13* * 0.1
  1: 0x0039 [0x1F] MOVE_ENTITY: EventEntity moves to X=51.240*, Z=8.542*, Y=-5.999*
  2: 0x0041 [0x1F] MOVE_ENTITY: Update entity position (mode=1)
  3: 0x0043 [0x4A] Deminza (ID: 16982285/0x0103210D) looks at Galiwao (ID: 16982283/0x0103210B)
  4: 0x004C [0x00] END_REQSTACK()
```

### Event 65535.6

#### Metadata

| Field        | Value    |
|--------------|----------|
| Entrypoint   | 0x004D   |
| Data Size    | 14 bytes |
| Instructions | 4        |

```
      00 01 02 03 04 05 06 07  08 09 0A 0B 0C 0D 0E 0F
      -- -- -- -- -- -- -- --  -- -- -- -- -- -- -- --
0040:                                         32 0E 80               2..
0050: 1F 00 11 80 12 80 07 80  1F 01 00                 ...........     
```

#### Opcodes

```
  0: 0x004D [0x32] ExtData[1]->MainSpeed = 13* * 0.1
  1: 0x0050 [0x1F] MOVE_ENTITY: EventEntity moves to X=51.577*, Z=8.967*, Y=-5.999*
  2: 0x0058 [0x1F] MOVE_ENTITY: Update entity position (mode=1)
  3: 0x005A [0x00] END_REQSTACK()
```

### Event 65535.7

#### Metadata

| Field        | Value    |
|--------------|----------|
| Entrypoint   | 0x005B   |
| Data Size    | 14 bytes |
| Instructions | 4        |

```
      00 01 02 03 04 05 06 07  08 09 0A 0B 0C 0D 0E 0F
      -- -- -- -- -- -- -- --  -- -- -- -- -- -- -- --
0050:                                   32 0E 80 1F 00             2....
0060: 0F 80 10 80 07 80 1F 01  00                       .........       
```

#### Opcodes

```
  0: 0x005B [0x32] ExtData[1]->MainSpeed = 13* * 0.1
  1: 0x005E [0x1F] MOVE_ENTITY: EventEntity moves to X=51.240*, Z=8.542*, Y=-5.999*
  2: 0x0066 [0x1F] MOVE_ENTITY: Update entity position (mode=1)
  3: 0x0068 [0x00] END_REQSTACK()
```

### Event 65535.8

#### Metadata

| Field        | Value    |
|--------------|----------|
| Entrypoint   | 0x0069   |
| Data Size    | 14 bytes |
| Instructions | 4        |

```
      00 01 02 03 04 05 06 07  08 09 0A 0B 0C 0D 0E 0F
      -- -- -- -- -- -- -- --  -- -- -- -- -- -- -- --
0060:                             32 04 80 1F 00 0F 80           2......
0070: 13 80 07 80 1F 01 00                              .......         
```

#### Opcodes

```
  0: 0x0069 [0x32] ExtData[1]->MainSpeed = 40* * 0.1
  1: 0x006C [0x1F] MOVE_ENTITY: EventEntity moves to X=51.240*, Z=5.542*, Y=-5.999*
  2: 0x0074 [0x1F] MOVE_ENTITY: Update entity position (mode=1)
  3: 0x0076 [0x00] END_REQSTACK()
```

### Event 65535.9

#### Metadata

| Field        | Value    |
|--------------|----------|
| Entrypoint   | 0x0077   |
| Data Size    | 14 bytes |
| Instructions | 4        |

```
      00 01 02 03 04 05 06 07  08 09 0A 0B 0C 0D 0E 0F
      -- -- -- -- -- -- -- --  -- -- -- -- -- -- -- --
0070:                      32  0E 80 1F 00 0F 80 14 80         2........
0080: 07 80 1F 01 00                                    .....           
```

#### Opcodes

```
  0: 0x0077 [0x32] ExtData[1]->MainSpeed = 13* * 0.1
  1: 0x007A [0x1F] MOVE_ENTITY: EventEntity moves to X=51.240*, Z=6.542*, Y=-5.999*
  2: 0x0082 [0x1F] MOVE_ENTITY: Update entity position (mode=1)
  3: 0x0084 [0x00] END_REQSTACK()
```

### Event 65535.10

#### Metadata

| Field        | Value    |
|--------------|----------|
| Entrypoint   | 0x0085   |
| Data Size    | 14 bytes |
| Instructions | 4        |

```
      00 01 02 03 04 05 06 07  08 09 0A 0B 0C 0D 0E 0F
      -- -- -- -- -- -- -- --  -- -- -- -- -- -- -- --
0080:                32 04 80  1F 00 15 80 16 80 0D 80       2..........
0090: 1F 01 00                                          ...             
```

#### Opcodes

```
  0: 0x0085 [0x32] ExtData[1]->MainSpeed = 40* * 0.1
  1: 0x0088 [0x1F] MOVE_ENTITY: EventEntity moves to X=51.488*, Z=9.140*, Y=-6.000*
  2: 0x0090 [0x1F] MOVE_ENTITY: Update entity position (mode=1)
  3: 0x0092 [0x00] END_REQSTACK()
```

### Event 812

#### Metadata

| Field        | Value   |
|--------------|---------|
| Entrypoint   | 0x0093  |
| Data Size    | 1 bytes |
| Instructions | 1       |

```
      00 01 02 03 04 05 06 07  08 09 0A 0B 0C 0D 0E 0F
      -- -- -- -- -- -- -- --  -- -- -- -- -- -- -- --
0090:          00                                          .            
```

#### Opcodes

```
  0: 0x0093 [0x00] END_REQSTACK()
```

### Event 65535.11

#### Metadata

| Field        | Value    |
|--------------|----------|
| Entrypoint   | 0x0094   |
| Data Size    | 19 bytes |
| Instructions | 3        |

```
      00 01 02 03 04 05 06 07  08 09 0A 0B 0C 0D 0E 0F
      -- -- -- -- -- -- -- --  -- -- -- -- -- -- -- --
0090:             37 17 80 18  80 02 80 19 80 4A 0D 21      7........J.!
00A0: 03 01 EC 20 03 01 00                              ... ...         
```

#### Opcodes

```
  0: 0x0094 [0x37] UPDATE_EVENT_POSITION_AND_DIR: x=-72.150*, z=-86.057*, y=0.000*, direction=278.3째*
  1: 0x009D [0x4A] Deminza (ID: 16982285/0x0103210D) looks at Cacaroon (ID: 16982252/0x010320EC)
  2: 0x00A6 [0x00] END_REQSTACK()
```

### Event 65535.12

#### Metadata

| Field        | Value    |
|--------------|----------|
| Entrypoint   | 0x00A7   |
| Data Size    | 14 bytes |
| Instructions | 4        |

```
      00 01 02 03 04 05 06 07  08 09 0A 0B 0C 0D 0E 0F
      -- -- -- -- -- -- -- --  -- -- -- -- -- -- -- --
00A0:                      32  0E 80 1F 00 1A 80 1B 80         2........
00B0: 02 80 1F 01 00                                    .....           
```

#### Opcodes

```
  0: 0x00A7 [0x32] ExtData[1]->MainSpeed = 13* * 0.1
  1: 0x00AA [0x1F] MOVE_ENTITY: EventEntity moves to X=-73.113*, Z=-86.178*, Y=0.000*
  2: 0x00B2 [0x1F] MOVE_ENTITY: Update entity position (mode=1)
  3: 0x00B4 [0x00] END_REQSTACK()
```

### Event 65535.13

#### Metadata

| Field        | Value    |
|--------------|----------|
| Entrypoint   | 0x00B5   |
| Data Size    | 24 bytes |
| Instructions | 6        |

```
      00 01 02 03 04 05 06 07  08 09 0A 0B 0C 0D 0E 0F
      -- -- -- -- -- -- -- --  -- -- -- -- -- -- -- --
00B0:                32 04 80  1F 00 1C 80 1D 80 02 80       2..........
00C0: 1F 01 1F 00 1E 80 1F 80  02 80 1F 01 00           .............   
```

#### Opcodes

```
  0: 0x00B5 [0x32] ExtData[1]->MainSpeed = 40* * 0.1
  1: 0x00B8 [0x1F] MOVE_ENTITY: EventEntity moves to X=-81.832*, Z=-85.463*, Y=0.000*
  2: 0x00C0 [0x1F] MOVE_ENTITY: Update entity position (mode=1)
  3: 0x00C2 [0x1F] MOVE_ENTITY: EventEntity moves to X=-91.839*, Z=-86.196*, Y=0.000*
  4: 0x00CA [0x1F] MOVE_ENTITY: Update entity position (mode=1)
  5: 0x00CC [0x00] END_REQSTACK()
```

### Event 813

#### Metadata

| Field        | Value   |
|--------------|---------|
| Entrypoint   | 0x00CD  |
| Data Size    | 1 bytes |
| Instructions | 1       |

```
      00 01 02 03 04 05 06 07  08 09 0A 0B 0C 0D 0E 0F
      -- -- -- -- -- -- -- --  -- -- -- -- -- -- -- --
00C0:                                         00                     .  
```

#### Opcodes

```
  0: 0x00CD [0x00] END_REQSTACK()
```

### Event 65535.14

#### Metadata

| Field        | Value    |
|--------------|----------|
| Entrypoint   | 0x00CE   |
| Data Size    | 10 bytes |
| Instructions | 2        |

```
      00 01 02 03 04 05 06 07  08 09 0A 0B 0C 0D 0E 0F
      -- -- -- -- -- -- -- --  -- -- -- -- -- -- -- --
00C0:                                            37 20                7 
00D0: 80 21 80 02 80 22 80 00                           .!..."..        
```

#### Opcodes

```
  0: 0x00CE [0x37] UPDATE_EVENT_POSITION_AND_DIR: x=101.393*, z=-87.864*, y=0.000*, direction=87.5째*
  1: 0x00D7 [0x00] END_REQSTACK()
```

### Event 65535.15

#### Metadata

| Field        | Value    |
|--------------|----------|
| Entrypoint   | 0x00D8   |
| Data Size    | 14 bytes |
| Instructions | 4        |

```
      00 01 02 03 04 05 06 07  08 09 0A 0B 0C 0D 0E 0F
      -- -- -- -- -- -- -- --  -- -- -- -- -- -- -- --
00D0:                          32 0E 80 1F 00 23 80 24          2....#.$
00E0: 80 02 80 1F 01 00                                 ......          
```

#### Opcodes

```
  0: 0x00D8 [0x32] ExtData[1]->MainSpeed = 13* * 0.1
  1: 0x00DB [0x1F] MOVE_ENTITY: EventEntity moves to X=101.061*, Z=-95.291*, Y=0.000*
  2: 0x00E3 [0x1F] MOVE_ENTITY: Update entity position (mode=1)
  3: 0x00E5 [0x00] END_REQSTACK()
```

### Event 65535.16

#### Metadata

| Field        | Value    |
|--------------|----------|
| Entrypoint   | 0x00E6   |
| Data Size    | 19 bytes |
| Instructions | 3        |

```
      00 01 02 03 04 05 06 07  08 09 0A 0B 0C 0D 0E 0F
      -- -- -- -- -- -- -- --  -- -- -- -- -- -- -- --
00E0:                   37 25  80 26 80 02 80 27 80 4A        7%.&...'.J
00F0: 0D 21 03 01 10 21 03 01  00                       .!...!...       
```

#### Opcodes

```
  0: 0x00E6 [0x37] UPDATE_EVENT_POSITION_AND_DIR: x=98.882*, z=-97.505*, y=0.000*, direction=9.9째*
  1: 0x00EF [0x4A] Deminza (ID: 16982285/0x0103210D) looks at Unnamed NPC (ID: 16982288/0x01032110)
  2: 0x00F8 [0x00] END_REQSTACK()
```
