# 16982286 - Bernahn

## Common Data

| Field            | Value                         |
|------------------|-------------------------------|
| Zone             | Aht Urhgan Whitegate (ID: 50) |
| Block Size       | 152 bytes                     |
| Total Events     | 6                             |
| References Count | 11                            |

## List of Events

| Event ID                  | Entrypoint   |   Size |   Instructions |
|---------------------------|--------------|--------|----------------|
| [65535](#event-65535)     | 0x0000       |      1 |              1 |
| [813](#event-813)         | 0x0001       |     10 |              2 |
| [65535.1](#event-65535-1) | 0x000B       |      1 |              1 |
| [65535.2](#event-65535-2) | 0x000C       |     23 |              5 |
| [65535.3](#event-65535-3) | 0x0023       |     19 |              3 |
| [65535.4](#event-65535-4) | 0x0036       |     13 |              3 |

## DAT References (imed_data)

|   Index | Hex Value   |   Dec Value |
|---------|-------------|-------------|
|       0 | 0x18637     |       99895 |
|       1 | 0xFFFE9ED3  |  4294876883 |
|       2 | 0x0000      |           0 |
|       3 | 0x03E4      |         996 |
|       4 | 0x000D      |          13 |
|       5 | 0x181A6     |       98726 |
|       6 | 0xFFFE8522  |  4294870306 |
|       7 | 0x17B85     |       97157 |
|       8 | 0xFFFE7892  |  4294867090 |
|       9 | 0x0071      |         113 |
|      10 | 0x0015      |          21 |

## Events

### Event 65535

#### Metadata

| Field        | Value   |
|--------------|---------|
| Entrypoint   | 0x0000  |
| Data Size    | 1 bytes |
| Instructions | 1       |

```
      00 01 02 03 04 05 06 07  08 09 0A 0B 0C 0D 0E 0F
      -- -- -- -- -- -- -- --  -- -- -- -- -- -- -- --
0000: 00                                                .               
```

#### Opcodes

```
  0: 0x0000 [0x00] END_REQSTACK()
```

### Event 813

#### Metadata

| Field        | Value    |
|--------------|----------|
| Entrypoint   | 0x0001   |
| Data Size    | 10 bytes |
| Instructions | 2        |

```
      00 01 02 03 04 05 06 07  08 09 0A 0B 0C 0D 0E 0F
      -- -- -- -- -- -- -- --  -- -- -- -- -- -- -- --
0000:    37 00 80 01 80 02 80  03 80 00                  7.........     
```

#### Opcodes

```
  0: 0x0001 [0x37] UPDATE_EVENT_POSITION_AND_DIR: x=99.895*, z=-90.413*, y=0.000*, direction=87.5°*
  1: 0x000A [0x00] END_REQSTACK()
```

### Event 65535.1

#### Metadata

| Field        | Value   |
|--------------|---------|
| Entrypoint   | 0x000B  |
| Data Size    | 1 bytes |
| Instructions | 1       |

```
      00 01 02 03 04 05 06 07  08 09 0A 0B 0C 0D 0E 0F
      -- -- -- -- -- -- -- --  -- -- -- -- -- -- -- --
0000:                                   00                         .    
```

#### Opcodes

```
  0: 0x000B [0x00] END_REQSTACK()
```

### Event 65535.2

#### Metadata

| Field        | Value    |
|--------------|----------|
| Entrypoint   | 0x000C   |
| Data Size    | 23 bytes |
| Instructions | 5        |

```
      00 01 02 03 04 05 06 07  08 09 0A 0B 0C 0D 0E 0F
      -- -- -- -- -- -- -- --  -- -- -- -- -- -- -- --
0000:                                      32 04 80 1F              2...
0010: 00 05 80 06 80 02 80 1F  01 4A 0E 21 03 01 0F 21  .........J.!...!
0020: 03 01 00                                          ...             
```

#### Opcodes

```
  0: 0x000C [0x32] ExtData[1]->MainSpeed = 13* * 0.1
  1: 0x000F [0x1F] MOVE_ENTITY: EventEntity moves to X=98.726*, Z=-96.990*, Y=0.000*
  2: 0x0017 [0x1F] MOVE_ENTITY: Update entity position (mode=1)
  3: 0x0019 [0x4A] Bernahn (ID: 16982286/0x0103210E) looks at Faihal (ID: 16982287/0x0103210F)
  4: 0x0022 [0x00] END_REQSTACK()
```

### Event 65535.3

#### Metadata

| Field        | Value    |
|--------------|----------|
| Entrypoint   | 0x0023   |
| Data Size    | 19 bytes |
| Instructions | 3        |

```
      00 01 02 03 04 05 06 07  08 09 0A 0B 0C 0D 0E 0F
      -- -- -- -- -- -- -- --  -- -- -- -- -- -- -- --
0020:          37 07 80 08 80  02 80 09 80 4A 0E 21 03     7........J.!.
0030: 01 10 21 03 01 00                                 ..!...          
```

#### Opcodes

```
  0: 0x0023 [0x37] UPDATE_EVENT_POSITION_AND_DIR: x=97.157*, z=-100.206*, y=0.000*, direction=9.9°*
  1: 0x002C [0x4A] Bernahn (ID: 16982286/0x0103210E) looks at Unnamed NPC (ID: 16982288/0x01032110)
  2: 0x0035 [0x00] END_REQSTACK()
```

### Event 65535.4

#### Metadata

| Field        | Value    |
|--------------|----------|
| Entrypoint   | 0x0036   |
| Data Size    | 13 bytes |
| Instructions | 3        |

```
      00 01 02 03 04 05 06 07  08 09 0A 0B 0C 0D 0E 0F
      -- -- -- -- -- -- -- --  -- -- -- -- -- -- -- --
0030:                   6E 0E  21 03 01 0A 80 99 0E 21        n.!......!
0040: 03 01 00                                          ...             
```

#### Opcodes

```
  0: 0x0036 [0x6E] Bernahn (ID: 16982286/0x0103210E) uses emote 21*
  1: 0x003D [0x99] Wait for Bernahn (ID: 16982286/0x0103210E) animation to complete
  2: 0x0042 [0x00] END_REQSTACK()
```
