# 0x7FFFFFF0 - Zone Events

## Common Data

| Field            | Value                         |
|------------------|-------------------------------|
| Zone             | Aht Urhgan Whitegate (ID: 50) |
| Block Size       | 21248 bytes                   |
| Total Events     | 255                           |
| References Count | 807                           |

## List of Events

| Event ID                      | Entrypoint   |   Size |   Instructions |
|-------------------------------|--------------|--------|----------------|
| [65535](#event-65535)         | 0x0000       |      1 |              1 |
| [65534](#event-65534)         | 0x0001       |      1 |              1 |
| [65535.1](#event-65535-1)     | 0x0002       |     10 |              2 |
| [65535.2](#event-65535-2)     | 0x000C       |     10 |              2 |
| [100](#event-100)             | 0x0016       |     21 |              3 |
| [102](#event-102)             | 0x002B       |     10 |              2 |
| [103](#event-103)             | 0x0035       |     15 |              5 |
| [200](#event-200)             | 0x0044       |    222 |             23 |
| [203](#event-203)             | 0x0122       |    222 |             23 |
| [201](#event-201)             | 0x0200       |     58 |              9 |
| [204](#event-204)             | 0x023A       |     58 |              9 |
| [202](#event-202)             | 0x0274       |     90 |             14 |
| [205](#event-205)             | 0x02CE       |     90 |             14 |
| [65535.3](#event-65535-3)     | 0x0328       |     20 |              3 |
| [65535.4](#event-65535-4)     | 0x033C       |     10 |              2 |
| [65535.5](#event-65535-5)     | 0x0346       |     10 |              2 |
| [65535.6](#event-65535-6)     | 0x0350       |     23 |              5 |
| [65535.7](#event-65535-7)     | 0x0367       |     23 |              5 |
| [65535.8](#event-65535-8)     | 0x037E       |    183 |             31 |
| [0](#event-0)                 | 0x0435       |    116 |             31 |
| [65535.9](#event-65535-9)     | 0x04A9       |     87 |             18 |
| [65535.10](#event-65535-10)   | 0x0500       |     87 |             18 |
| [65535.11](#event-65535-11)   | 0x0557       |     87 |             18 |
| [65535.12](#event-65535-12)   | 0x05AE       |     87 |             18 |
| [65535.13](#event-65535-13)   | 0x0605       |     37 |              5 |
| [65535.14](#event-65535-14)   | 0x062A       |     37 |              5 |
| [65535.15](#event-65535-15)   | 0x064F       |     37 |              5 |
| [65535.16](#event-65535-16)   | 0x0674       |    185 |             37 |
| [65535.17](#event-65535-17)   | 0x072D       |      6 |              2 |
| [65535.18](#event-65535-18)   | 0x0733       |      6 |              2 |
| [65535.19](#event-65535-19)   | 0x0739       |     10 |              2 |
| [65535.20](#event-65535-20)   | 0x0743       |     10 |              2 |
| [65535.21](#event-65535-21)   | 0x074D       |     10 |              2 |
| [65535.22](#event-65535-22)   | 0x0757       |     10 |              2 |
| [65535.23](#event-65535-23)   | 0x0761       |     10 |              2 |
| [65535.24](#event-65535-24)   | 0x076B       |     16 |              4 |
| [65535.25](#event-65535-25)   | 0x077B       |     10 |              2 |
| [65535.26](#event-65535-26)   | 0x0785       |     10 |              2 |
| [65535.27](#event-65535-27)   | 0x078F       |     10 |              2 |
| [65535.28](#event-65535-28)   | 0x0799       |     10 |              2 |
| [65535.29](#event-65535-29)   | 0x07A3       |     10 |              2 |
| [65535.30](#event-65535-30)   | 0x07AD       |     16 |              4 |
| [65535.31](#event-65535-31)   | 0x07BD       |     10 |              2 |
| [65535.32](#event-65535-32)   | 0x07C7       |     16 |              4 |
| [65535.33](#event-65535-33)   | 0x07D7       |     10 |              2 |
| [65535.34](#event-65535-34)   | 0x07E1       |     10 |              2 |
| [65535.35](#event-65535-35)   | 0x07EB       |     10 |              2 |
| [65535.36](#event-65535-36)   | 0x07F5       |     10 |              2 |
| [65535.37](#event-65535-37)   | 0x07FF       |     10 |              2 |
| [65535.38](#event-65535-38)   | 0x0809       |     14 |              4 |
| [65535.39](#event-65535-39)   | 0x0817       |     14 |              4 |
| [65535.40](#event-65535-40)   | 0x0825       |     14 |              4 |
| [65535.41](#event-65535-41)   | 0x0833       |      9 |              3 |
| [65535.42](#event-65535-42)   | 0x083C       |     10 |              2 |
| [65535.43](#event-65535-43)   | 0x0846       |     10 |              2 |
| [65535.44](#event-65535-44)   | 0x0850       |     15 |              5 |
| [65535.45](#event-65535-45)   | 0x085F       |     10 |              2 |
| [65535.46](#event-65535-46)   | 0x0869       |     10 |              2 |
| [65535.47](#event-65535-47)   | 0x0873       |     10 |              2 |
| [65535.48](#event-65535-48)   | 0x087D       |     14 |              4 |
| [65535.49](#event-65535-49)   | 0x088B       |     15 |              3 |
| [65535.50](#event-65535-50)   | 0x089A       |     19 |              5 |
| [65535.51](#event-65535-51)   | 0x08AD       |     15 |              3 |
| [65535.52](#event-65535-52)   | 0x08BC       |     19 |              5 |
| [65535.53](#event-65535-53)   | 0x08CF       |     15 |              3 |
| [65535.54](#event-65535-54)   | 0x08DE       |     15 |              3 |
| [65535.55](#event-65535-55)   | 0x08ED       |     10 |              2 |
| [65535.56](#event-65535-56)   | 0x08F7       |     10 |              2 |
| [65535.57](#event-65535-57)   | 0x0901       |     10 |              2 |
| [65535.58](#event-65535-58)   | 0x090B       |     10 |              2 |
| [65535.59](#event-65535-59)   | 0x0915       |     10 |              2 |
| [65535.60](#event-65535-60)   | 0x091F       |     10 |              2 |
| [65535.61](#event-65535-61)   | 0x0929       |     10 |              2 |
| [65535.62](#event-65535-62)   | 0x0933       |     10 |              2 |
| [65535.63](#event-65535-63)   | 0x093D       |     10 |              2 |
| [65535.64](#event-65535-64)   | 0x0947       |     10 |              2 |
| [65535.65](#event-65535-65)   | 0x0951       |     25 |              6 |
| [65535.66](#event-65535-66)   | 0x096A       |     15 |              3 |
| [65535.67](#event-65535-67)   | 0x0979       |      1 |              1 |
| [65535.68](#event-65535-68)   | 0x097A       |     15 |              5 |
| [65535.69](#event-65535-69)   | 0x0989       |     12 |              3 |
| [65535.70](#event-65535-70)   | 0x0995       |      1 |              1 |
| [65535.71](#event-65535-71)   | 0x0996       |     20 |              3 |
| [65535.72](#event-65535-72)   | 0x09AA       |     20 |              3 |
| [65535.73](#event-65535-73)   | 0x09BE       |     20 |              3 |
| [65535.74](#event-65535-74)   | 0x09D2       |     10 |              2 |
| [65535.75](#event-65535-75)   | 0x09DC       |     15 |              5 |
| [65535.76](#event-65535-76)   | 0x09EB       |     10 |              2 |
| [65535.77](#event-65535-77)   | 0x09F5       |     10 |              2 |
| [65535.78](#event-65535-78)   | 0x09FF       |     10 |              2 |
| [65535.79](#event-65535-79)   | 0x0A09       |     15 |              5 |
| [65535.80](#event-65535-80)   | 0x0A18       |     13 |              3 |
| [65535.81](#event-65535-81)   | 0x0A25       |     22 |              8 |
| [65535.82](#event-65535-82)   | 0x0A3B       |     10 |              2 |
| [65535.83](#event-65535-83)   | 0x0A45       |     26 |             10 |
| [65535.84](#event-65535-84)   | 0x0A5F       |     10 |              2 |
| [65535.85](#event-65535-85)   | 0x0A69       |     10 |              2 |
| [65535.86](#event-65535-86)   | 0x0A73       |     15 |              5 |
| [65535.87](#event-65535-87)   | 0x0A82       |     11 |              5 |
| [65535.88](#event-65535-88)   | 0x0A8D       |     15 |              3 |
| [65535.89](#event-65535-89)   | 0x0A9C       |     30 |              4 |
| [65535.90](#event-65535-90)   | 0x0ABA       |     10 |              2 |
| [65535.91](#event-65535-91)   | 0x0AC4       |     10 |              2 |
| [65535.92](#event-65535-92)   | 0x0ACE       |     15 |              5 |
| [65535.93](#event-65535-93)   | 0x0ADD       |     22 |              8 |
| [65535.94](#event-65535-94)   | 0x0AF3       |     15 |              5 |
| [65535.95](#event-65535-95)   | 0x0B02       |     10 |              2 |
| [65535.96](#event-65535-96)   | 0x0B0C       |     10 |              2 |
| [65535.97](#event-65535-97)   | 0x0B16       |     15 |              5 |
| [65535.98](#event-65535-98)   | 0x0B25       |     21 |              5 |
| [65535.99](#event-65535-99)   | 0x0B3A       |     13 |              3 |
| [65535.100](#event-65535-100) | 0x0B47       |     15 |              4 |
| [65535.101](#event-65535-101) | 0x0B56       |     15 |              5 |
| [65535.102](#event-65535-102) | 0x0B65       |     10 |              2 |
| [65535.103](#event-65535-103) | 0x0B6F       |     18 |              6 |
| [65535.104](#event-65535-104) | 0x0B81       |     10 |              2 |
| [65535.105](#event-65535-105) | 0x0B8B       |     34 |             10 |
| [65535.106](#event-65535-106) | 0x0BAD       |     10 |              2 |
| [65535.107](#event-65535-107) | 0x0BB7       |     14 |              4 |
| [65535.108](#event-65535-108) | 0x0BC5       |     19 |              5 |
| [65535.109](#event-65535-109) | 0x0BD8       |     19 |              3 |
| [65535.110](#event-65535-110) | 0x0BEB       |     19 |              3 |
| [65535.111](#event-65535-111) | 0x0BFE       |     23 |              5 |
| [65535.112](#event-65535-112) | 0x0C15       |     10 |              2 |
| [65535.113](#event-65535-113) | 0x0C1F       |     23 |              5 |
| [65535.114](#event-65535-114) | 0x0C36       |     19 |              3 |
| [65535.115](#event-65535-115) | 0x0C49       |     23 |              5 |
| [65535.116](#event-65535-116) | 0x0C60       |     10 |              2 |
| [65535.117](#event-65535-117) | 0x0C6A       |     42 |              7 |
| [65535.118](#event-65535-118) | 0x0C94       |     19 |              3 |
| [65535.119](#event-65535-119) | 0x0CA7       |     19 |              3 |
| [65535.120](#event-65535-120) | 0x0CBA       |     33 |              6 |
| [65535.121](#event-65535-121) | 0x0CDB       |     10 |              2 |
| [65535.122](#event-65535-122) | 0x0CE5       |     23 |              5 |
| [65535.123](#event-65535-123) | 0x0CFC       |     23 |              5 |
| [65535.124](#event-65535-124) | 0x0D13       |     19 |              3 |
| [65535.125](#event-65535-125) | 0x0D26       |     16 |              3 |
| [508](#event-508)             | 0x0D36       |    651 |             81 |
| [517](#event-517)             | 0x0FC1       |   1447 |            170 |
| [520](#event-520)             | 0x1568       |   1252 |            153 |
| [522](#event-522)             | 0x1A4C       |    429 |             52 |
| [524](#event-524)             | 0x1BF9       |    342 |             44 |
| [525](#event-525)             | 0x1D4F       |   2288 |            271 |
| [526](#event-526)             | 0x263F       |   1319 |            158 |
| [527](#event-527)             | 0x2B66       |   1468 |            190 |
| [528](#event-528)             | 0x3122       |    683 |             77 |
| [592](#event-592)             | 0x33CD       |   1450 |            180 |
| [65535.126](#event-65535-126) | 0x3977       |     15 |              3 |
| [65535.127](#event-65535-127) | 0x3986       |     15 |              3 |
| [65535.128](#event-65535-128) | 0x3995       |     10 |              2 |
| [65535.129](#event-65535-129) | 0x399F       |     10 |              2 |
| [65535.130](#event-65535-130) | 0x39A9       |      1 |              1 |
| [65535.131](#event-65535-131) | 0x39AA       |      1 |              1 |
| [65535.132](#event-65535-132) | 0x39AB       |     15 |              3 |
| [65535.133](#event-65535-133) | 0x39BA       |     22 |              6 |
| [65535.134](#event-65535-134) | 0x39D0       |     15 |              3 |
| [65535.135](#event-65535-135) | 0x39DF       |     15 |              3 |
| [65535.136](#event-65535-136) | 0x39EE       |     24 |              6 |
| [65535.137](#event-65535-137) | 0x3A06       |     20 |              4 |
| [65535.138](#event-65535-138) | 0x3A1A       |     15 |              3 |
| [65535.139](#event-65535-139) | 0x3A29       |     15 |              3 |
| [65535.140](#event-65535-140) | 0x3A38       |     15 |              3 |
| [65535.141](#event-65535-141) | 0x3A47       |     15 |              3 |
| [65535.142](#event-65535-142) | 0x3A56       |     15 |              3 |
| [65535.143](#event-65535-143) | 0x3A65       |     10 |              2 |
| [65535.144](#event-65535-144) | 0x3A6F       |     19 |              5 |
| [65535.145](#event-65535-145) | 0x3A82       |     10 |              2 |
| [65535.146](#event-65535-146) | 0x3A8C       |     10 |              2 |
| [65535.147](#event-65535-147) | 0x3A96       |     24 |              6 |
| [65535.148](#event-65535-148) | 0x3AAE       |     14 |              4 |
| [65535.149](#event-65535-149) | 0x3ABC       |     10 |              2 |
| [65535.150](#event-65535-150) | 0x3AC6       |     14 |              4 |
| [65535.151](#event-65535-151) | 0x3AD4       |     15 |              3 |
| [65535.152](#event-65535-152) | 0x3AE3       |     19 |              5 |
| [65535.153](#event-65535-153) | 0x3AF6       |     15 |              3 |
| [65535.154](#event-65535-154) | 0x3B05       |     19 |              5 |
| [65535.155](#event-65535-155) | 0x3B18       |     15 |              3 |
| [65535.156](#event-65535-156) | 0x3B27       |     15 |              3 |
| [65535.157](#event-65535-157) | 0x3B36       |     10 |              2 |
| [65535.158](#event-65535-158) | 0x3B40       |     22 |              6 |
| [65535.159](#event-65535-159) | 0x3B56       |     22 |              6 |
| [65535.160](#event-65535-160) | 0x3B6C       |     22 |              6 |
| [3112](#event-3112)           | 0x3B82       |      1 |              1 |
| [65535.161](#event-65535-161) | 0x3B83       |     24 |              6 |
| [65535.162](#event-65535-162) | 0x3B9B       |     14 |              4 |
| [65535.163](#event-65535-163) | 0x3BA9       |     14 |              4 |
| [65535.164](#event-65535-164) | 0x3BB7       |     19 |              5 |
| [547](#event-547)             | 0x3BCA       |      1 |              1 |
| [65535.165](#event-65535-165) | 0x3BCB       |     10 |              2 |
| [65535.166](#event-65535-166) | 0x3BD5       |     19 |              5 |
| [65535.167](#event-65535-167) | 0x3BE8       |     19 |              3 |
| [548](#event-548)             | 0x3BFB       |      1 |              1 |
| [65535.168](#event-65535-168) | 0x3BFC       |     10 |              2 |
| [65535.169](#event-65535-169) | 0x3C06       |     19 |              5 |
| [65535.170](#event-65535-170) | 0x3C19       |     28 |              6 |
| [65535.171](#event-65535-171) | 0x3C35       |     10 |              2 |
| [65535.172](#event-65535-172) | 0x3C3F       |     10 |              2 |
| [65535.173](#event-65535-173) | 0x3C49       |     15 |              3 |
| [591](#event-591)             | 0x3C58       |      1 |              1 |
| [65535.174](#event-65535-174) | 0x3C59       |     14 |              4 |
| [593](#event-593)             | 0x3C67       |      1 |              1 |
| [65535.175](#event-65535-175) | 0x3C68       |     10 |              2 |
| [594](#event-594)             | 0x3C72       |      1 |              1 |
| [65535.176](#event-65535-176) | 0x3C73       |     10 |              2 |
| [65535.177](#event-65535-177) | 0x3C7D       |     10 |              2 |
| [65535.178](#event-65535-178) | 0x3C87       |     41 |              5 |
| [772](#event-772)             | 0x3CB0       |      1 |              1 |
| [65535.179](#event-65535-179) | 0x3CB1       |     10 |              2 |
| [65535.180](#event-65535-180) | 0x3CBB       |     19 |              5 |
| [65535.181](#event-65535-181) | 0x3CCE       |     37 |              5 |
| [65535.182](#event-65535-182) | 0x3CF3       |     37 |              5 |
| [65535.183](#event-65535-183) | 0x3D18       |     23 |              5 |
| [65535.184](#event-65535-184) | 0x3D2F       |     19 |              5 |
| [65535.185](#event-65535-185) | 0x3D42       |     28 |              6 |
| [65535.186](#event-65535-186) | 0x3D5E       |     14 |              4 |
| [65535.187](#event-65535-187) | 0x3D6C       |     19 |              5 |
| [65535.188](#event-65535-188) | 0x3D7F       |     23 |              5 |
| [65535.189](#event-65535-189) | 0x3D96       |     12 |              3 |
| [65535.190](#event-65535-190) | 0x3DA2       |     12 |              3 |
| [65535.191](#event-65535-191) | 0x3DAE       |     19 |              5 |
| [65535.192](#event-65535-192) | 0x3DC1       |     19 |              5 |
| [65535.193](#event-65535-193) | 0x3DD4       |     41 |              5 |
| [65535.194](#event-65535-194) | 0x3DFD       |     19 |              5 |
| [65535.195](#event-65535-195) | 0x3E10       |     19 |              5 |
| [65535.196](#event-65535-196) | 0x3E23       |     31 |              7 |
| [65535.197](#event-65535-197) | 0x3E42       |     41 |              5 |
| [65535.198](#event-65535-198) | 0x3E6B       |     19 |              5 |
| [65535.199](#event-65535-199) | 0x3E7E       |     21 |              3 |
| [65535.200](#event-65535-200) | 0x3E93       |     18 |              2 |
| [65535.201](#event-65535-201) | 0x3EA5       |     41 |              5 |
| [65535.202](#event-65535-202) | 0x3ECE       |     41 |              5 |
| [65535.203](#event-65535-203) | 0x3EF7       |     36 |              4 |
| [65535.204](#event-65535-204) | 0x3F1B       |     41 |              5 |
| [65535.205](#event-65535-205) | 0x3F44       |     15 |              3 |
| [65535.206](#event-65535-206) | 0x3F53       |     15 |              3 |
| [65535.207](#event-65535-207) | 0x3F62       |     15 |              3 |
| [65535.208](#event-65535-208) | 0x3F71       |     14 |              4 |
| [65535.209](#event-65535-209) | 0x3F7F       |     15 |              3 |
| [65535.210](#event-65535-210) | 0x3F8E       |    269 |             29 |
| [72](#event-72)               | 0x409B       |      6 |              4 |
| [79](#event-79)               | 0x40A1       |     38 |             11 |
| [65535.211](#event-65535-211) | 0x40C7       |     10 |              2 |
| [65535.212](#event-65535-212) | 0x40D1       |     16 |              4 |
| [65535.213](#event-65535-213) | 0x40E1       |    250 |             32 |
| [65535.214](#event-65535-214) | 0x41DB       |     10 |              2 |
| [65535.215](#event-65535-215) | 0x41E5       |     10 |              2 |
| [65535.216](#event-65535-216) | 0x41EF       |     10 |              2 |
| [65535.217](#event-65535-217) | 0x41F9       |     14 |              4 |
| [65535.218](#event-65535-218) | 0x4207       |     10 |              2 |
| [65535.219](#event-65535-219) | 0x4211       |     10 |              2 |
| [65535.220](#event-65535-220) | 0x421B       |     10 |              2 |
| [65535.221](#event-65535-221) | 0x4225       |     10 |              2 |
| [65535.222](#event-65535-222) | 0x422F       |     14 |              4 |
| [65535.223](#event-65535-223) | 0x423D       |     14 |              4 |
| [65535.224](#event-65535-224) | 0x424B       |     10 |              2 |

## DAT References (imed_data)

|   Index | Hex Value   |   Dec Value |
|---------|-------------|-------------|
|       0 | 0x1384D     |       79949 |
|       1 | 0xCD10      |       52496 |
|       2 | 0xFFFFFFC4  |  4294967236 |
|       3 | 0x0C00      |        3072 |
|       4 | 0x009A      |         154 |
|       5 | 0xFFFFF98B  |  4294965643 |
|       6 | 0x0000      |           0 |
|       7 | 0x0B83      |        2947 |
|       8 | 0x00C9      |         201 |
|       9 | 0x008C      |         140 |
|      10 | 0x1E848     |      125000 |
|      11 | 0xEEE2      |       61154 |
|      12 | 0xFFFFEF8B  |  4294963083 |
|      13 | 0x000D      |          13 |
|      14 | 0xFB90      |       64400 |
|      15 | 0x00C8      |         200 |
|      16 | 0xFFFFD254  |  4294955604 |
|      17 | 0xFFFDD4B9  |  4294825145 |
|      18 | 0x07CF      |        1999 |
|      19 | 0x0500      |        1280 |
|      20 | 0x0103      |         259 |
|      21 | 0x00C7      |         199 |
|      22 | 0x028A      |         650 |
|      23 | 0x2EA8      |       11944 |
|      24 | 0x229C9     |      141769 |
|      25 | 0x03E9      |        1001 |
|      26 | 0x02BC      |         700 |
|      27 | 0x18005     |       98309 |
|      28 | 0xFFFF95A2  |  4294940066 |
|      29 | 0xFFFFE891  |  4294961297 |
|      30 | 0x017D      |         381 |
|      31 | 0x10344     |       66372 |
|      32 | 0x6A57      |       27223 |
|      33 | 0xFFFFE890  |  4294961296 |
|      34 | 0x018A      |         394 |
|      35 | 0x182B4     |       98996 |
|      36 | 0xFFFF91F1  |  4294939121 |
|      37 | 0x0135      |         309 |
|      38 | 0x0001      |           1 |
|      39 | 0x001E      |          30 |
|      40 | 0x0003      |           3 |
|      41 | 0x001C      |          28 |
|      42 | 0xE678      |       59000 |
|      43 | 0x2AF8      |       11000 |
|      44 | 0x0007      |           7 |
|      45 | 0x0002      |           2 |
|      46 | 0x1D4C0     |      120000 |
|      47 | 0x0013      |          19 |
|      48 | 0x022F      |         559 |
|      49 | 0x0078      |         120 |
|      50 | 0x00B7      |         183 |
|      51 | 0x003C      |          60 |
|      52 | 0x012C      |         300 |
|      53 | 0x11F4      |        4596 |
|      54 | 0x11F5      |        4597 |
|      55 | 0x0064      |         100 |
|      56 | 0x11F6      |        4598 |
|      57 | 0x0032      |          50 |
|      58 | 0xFFFFF5D8  |  4294964696 |
|      59 | 0xFFFFFEF3  |  4294967027 |
|      60 | 0xFFFE6C33  |  4294863923 |
|      61 | 0xFFFE5924  |  4294859044 |
|      62 | 0xFFFFBC6C  |  4294949996 |
|      63 | 0xFFFFB27C  |  4294947452 |
|      64 | 0xFFFE86F5  |  4294870773 |
|      65 | 0xFFFE95BA  |  4294874554 |
|      66 | 0x0A8C      |        2700 |
|      67 | 0x0109      |         265 |
|      68 | 0x1945A     |      103514 |
|      69 | 0x1A5DB     |      107995 |
|      70 | 0x43F8      |       17400 |
|      71 | 0x4DAA      |       19882 |
|      72 | 0x17925     |       96549 |
|      73 | 0x16A98     |       92824 |
|      74 | 0x0005      |           5 |
|      75 | 0x000A      |          10 |
|      76 | 0x0009      |           9 |
|      77 | 0x0046      |          70 |
|      78 | 0x00D2      |         210 |
|      79 | 0xFFFFFFBD  |  4294967229 |
|      80 | 0xB91B      |       47387 |
|      81 | 0x0C06      |        3078 |
|      82 | 0x0024      |          36 |
|      83 | 0xFFFFA611  |  4294944273 |
|      84 | 0x0C54      |        3156 |
|      85 | 0xFFFEDC09  |  4294892553 |
|      86 | 0xFFFFEC27  |  4294962215 |
|      87 | 0x013C      |         316 |
|      88 | 0xFFFFFA86  |  4294965894 |
|      89 | 0xFFFED794  |  4294891412 |
|      90 | 0x00E2      |         226 |
|      91 | 0xFFFFFFA1  |  4294967201 |
|      92 | 0xFFFF8BF8  |  4294937592 |
|      93 | 0x0D0D      |        3341 |
|      94 | 0x0015      |          21 |
|      95 | 0x1064B     |       67147 |
|      96 | 0xFFFED49D  |  4294890653 |
|      97 | 0x05CE      |        1486 |
|      98 | 0x4DDF      |       19935 |
|      99 | 0x07C8      |        1992 |
|     100 | 0xFFFFA240  |  4294943296 |
|     101 | 0x693D      |       26941 |
|     102 | 0xFFFF4D67  |  4294921575 |
|     103 | 0xFFFFE184  |  4294959492 |
|     104 | 0x07FF      |        2047 |
|     105 | 0xFFFE8CDA  |  4294872282 |
|     106 | 0x70FB      |       28923 |
|     107 | 0x0C0F      |        3087 |
|     108 | 0x63F7      |       25591 |
|     109 | 0xFFFF4DA6  |  4294921638 |
|     110 | 0x0800      |        2048 |
|     111 | 0x002D      |          45 |
|     112 | 0x6540      |       25920 |
|     113 | 0xFFFF5530  |  4294923568 |
|     114 | 0x0A2D      |        2605 |
|     115 | 0xFFFFF5A2  |  4294964642 |
|     116 | 0xA54B      |       42315 |
|     117 | 0xFFFF3FFE  |  4294918142 |
|     118 | 0xE8F2      |       59634 |
|     119 | 0x671E      |       26398 |
|     120 | 0x0523      |        1315 |
|     121 | 0xEF89      |       61321 |
|     122 | 0x5550      |       21840 |
|     123 | 0xFFFFA247  |  4294943303 |
|     124 | 0x183F0     |       99312 |
|     125 | 0x4F3D      |       20285 |
|     126 | 0x0E15      |        3605 |
|     127 | 0x0269      |         617 |
|     128 | 0x0DB4      |        3508 |
|     129 | 0x081F      |        2079 |
|     130 | 0xFFFF8ADC  |  4294937308 |
|     131 | 0xFFFE83D7  |  4294869975 |
|     132 | 0x7C19      |       31769 |
|     133 | 0x0084      |         132 |
|     134 | 0x000B      |          11 |
|     135 | 0x6C47      |       27719 |
|     136 | 0xFFFF4D9E  |  4294921630 |
|     137 | 0x18678     |       99960 |
|     138 | 0xFFFFB34C  |  4294947660 |
|     139 | 0x00F2      |         242 |
|     140 | 0xFFFEEE27  |  4294897191 |
|     141 | 0x1A192     |      106898 |
|     142 | 0x03D7      |         983 |
|     143 | 0x5937      |       22839 |
|     144 | 0xFFFE7C53  |  4294868051 |
|     145 | 0x08BE      |        2238 |
|     146 | 0x2C9A      |       11418 |
|     147 | 0xFFFE7C20  |  4294868000 |
|     148 | 0x47DB      |       18395 |
|     149 | 0xFFFE7DFD  |  4294868477 |
|     150 | 0x0F9F      |        3999 |
|     151 | 0x0028      |          40 |
|     152 | 0x3282      |       12930 |
|     153 | 0xFFFE86E6  |  4294870758 |
|     154 | 0x6C66      |       27750 |
|     155 | 0xFFFE275B  |  4294846299 |
|     156 | 0x05DD      |        1501 |
|     157 | 0x6C2D      |       27693 |
|     158 | 0xFFFE144A  |  4294841418 |
|     159 | 0x71D6      |       29142 |
|     160 | 0xFFFE1216  |  4294840854 |
|     161 | 0x0A68      |        2664 |
|     162 | 0x72F5      |       29429 |
|     163 | 0xFFFE294F  |  4294846799 |
|     164 | 0x05B9      |        1465 |
|     165 | 0x0B51      |        2897 |
|     166 | 0xFFFFCEFF  |  4294954751 |
|     167 | 0x0B0E      |        2830 |
|     168 | 0x1678B     |       92043 |
|     169 | 0xFFFE0DBA  |  4294839738 |
|     170 | 0xFFFFE69D  |  4294960797 |
|     171 | 0x0316      |         790 |
|     172 | 0x0B86      |        2950 |
|     173 | 0xFFFFCC68  |  4294954088 |
|     174 | 0x0C29      |        3113 |
|     175 | 0x1666D     |       91757 |
|     176 | 0xFFFE0C13  |  4294839315 |
|     177 | 0xFFFFE69C  |  4294960796 |
|     178 | 0x01A5      |         421 |
|     179 | 0xFFFEAE3E  |  4294880830 |
|     180 | 0x1E7C7     |      124871 |
|     181 | 0x08F1      |        2289 |
|     182 | 0x16A67     |       92775 |
|     183 | 0xFFFE0EEF  |  4294840047 |
|     184 | 0x046F      |        1135 |
|     185 | 0xFFFEE699  |  4294895257 |
|     186 | 0xFFFEACB5  |  4294880437 |
|     187 | 0x0C55      |        3157 |
|     188 | 0x13854     |       79956 |
|     189 | 0x65FD      |       26109 |
|     190 | 0xFFFFFEBC  |  4294966972 |
|     191 | 0x0BDA      |        3034 |
|     192 | 0x13A89     |       80521 |
|     193 | 0xFFFE1BBE  |  4294843326 |
|     194 | 0x054C      |        1356 |
|     195 | 0x12E93     |       77459 |
|     196 | 0xFFFE177A  |  4294842234 |
|     197 | 0x09AC      |        2476 |
|     198 | 0x640A      |       25610 |
|     199 | 0xFFFF50B2  |  4294922418 |
|     200 | 0x1B4FB     |      111867 |
|     201 | 0xFFFF8F6B  |  4294938475 |
|     202 | 0xFFFFFEAE  |  4294966958 |
|     203 | 0x0415      |        1045 |
|     204 | 0x641C      |       25628 |
|     205 | 0xFFFF5222  |  4294922786 |
|     206 | 0x0386      |         902 |
|     207 | 0x6D58      |       27992 |
|     208 | 0xFFFF4F23  |  4294922019 |
|     209 | 0x0283      |         643 |
|     210 | 0x13845     |       79941 |
|     211 | 0xFFFE2B40  |  4294847296 |
|     212 | 0x03F7      |        1015 |
|     213 | 0x13880     |       80000 |
|     214 | 0xFFFE14F4  |  4294841588 |
|     215 | 0x03F9      |        1017 |
|     216 | 0xFFFFE837  |  4294961207 |
|     217 | 0xFFFECA9C  |  4294888092 |
|     218 | 0x0CB1      |        3249 |
|     219 | 0x13901     |       80129 |
|     220 | 0xFFFE1ADF  |  4294843103 |
|     221 | 0x03F8      |        1016 |
|     222 | 0x0026      |          38 |
|     223 | 0x138ED     |       80109 |
|     224 | 0xFFFE0C77  |  4294839415 |
|     225 | 0x0018      |          24 |
|     226 | 0x6F4F      |       28495 |
|     227 | 0xFFFF4DAF  |  4294921647 |
|     228 | 0x07FE      |        2046 |
|     229 | 0x70FA      |       28922 |
|     230 | 0xFFFF2502  |  4294911234 |
|     231 | 0x0FD7      |        4055 |
|     232 | 0x81D1      |       33233 |
|     233 | 0xFFFF2A7F  |  4294912639 |
|     234 | 0xFFFFE633  |  4294960691 |
|     235 | 0x7CB7      |       31927 |
|     236 | 0xFFFF46ED  |  4294919917 |
|     237 | 0xFFFFE3DD  |  4294960093 |
|     238 | 0x0AA5      |        2725 |
|     239 | 0x8F8F      |       36751 |
|     240 | 0xFFFF5B71  |  4294925169 |
|     241 | 0xFFFFE3E1  |  4294960097 |
|     242 | 0x2403D     |      147517 |
|     243 | 0xFFFFF830  |  4294965296 |
|     244 | 0x0FFF      |        4095 |
|     245 | 0x24838     |      149560 |
|     246 | 0x0006      |           6 |
|     247 | 0x24349     |      148297 |
|     248 | 0xFFFFF997  |  4294965655 |
|     249 | 0x2476F     |      149359 |
|     250 | 0xFFFFFC99  |  4294966425 |
|     251 | 0xFFFFFFFB  |  4294967291 |
|     252 | 0xB911      |       47377 |
|     253 | 0x24732     |      149298 |
|     254 | 0xFFFFFEA2  |  4294966946 |
|     255 | 0x23CC6     |      146630 |
|     256 | 0xFFFFFED8  |  4294967000 |
|     257 | 0x001D      |          29 |
|     258 | 0x3384      |       13188 |
|     259 | 0xFFFF08A4  |  4294903972 |
|     260 | 0x0722      |        1826 |
|     261 | 0x308B      |       12427 |
|     262 | 0xFFFF07BD  |  4294903741 |
|     263 | 0xFFFFE4A9  |  4294960297 |
|     264 | 0x0713      |        1811 |
|     265 | 0x7A4D      |       31309 |
|     266 | 0xFFFF2A55  |  4294912597 |
|     267 | 0xFFFFE7DE  |  4294961118 |
|     268 | 0x762D      |       30253 |
|     269 | 0xFFFF47DC  |  4294920156 |
|     270 | 0xFFFFE275  |  4294959733 |
|     271 | 0x093D      |        2365 |
|     272 | 0x0014      |          20 |
|     273 | 0x002A      |          42 |
|     274 | 0x680A      |       26634 |
|     275 | 0xFFFF4A89  |  4294920841 |
|     276 | 0xFFFFC6F2  |  4294952690 |
|     277 | 0xFFFF1ABA  |  4294908602 |
|     278 | 0xFFFFF6E6  |  4294964966 |
|     279 | 0x0721      |        1825 |
|     280 | 0xFFFFE114  |  4294959380 |
|     281 | 0xFFFF18FB  |  4294908155 |
|     282 | 0xFFFFEF9A  |  4294963098 |
|     283 | 0xFFFEEAD7  |  4294896343 |
|     284 | 0xFFFFF7E2  |  4294965218 |
|     285 | 0xFFFECD90  |  4294888848 |
|     286 | 0x03BB      |         955 |
|     287 | 0x137C8     |       79816 |
|     288 | 0xFFFE1850  |  4294842448 |
|     289 | 0x11B17     |       72471 |
|     290 | 0xFFFE14D0  |  4294841552 |
|     291 | 0xCD14      |       52500 |
|     292 | 0x2794      |       10132 |
|     293 | 0x0D0A      |        3338 |
|     294 | 0x13417     |       78871 |
|     295 | 0x1E32      |        7730 |
|     296 | 0x076D      |        1901 |
|     297 | 0x11CD3     |       72915 |
|     298 | 0x1E59      |        7769 |
|     299 | 0x4701      |       18177 |
|     300 | 0x2ABD      |       10941 |
|     301 | 0x0E99      |        3737 |
|     302 | 0x44D1      |       17617 |
|     303 | 0x408E      |       16526 |
|     304 | 0x4341      |       17217 |
|     305 | 0xFFFE85F8  |  4294870520 |
|     306 | 0xFFFFD306  |  4294955782 |
|     307 | 0x0383      |         899 |
|     308 | 0xFFFE8B99  |  4294871961 |
|     309 | 0xFFFFE13A  |  4294959418 |
|     310 | 0x0FB0      |        4016 |
|     311 | 0xFFFE8C85  |  4294872197 |
|     312 | 0xFFFFF695  |  4294964885 |
|     313 | 0xFFFEFDE5  |  4294901221 |
|     314 | 0xFFFEAF67  |  4294881127 |
|     315 | 0x0FF5      |        4085 |
|     316 | 0xFFFEEB11  |  4294896401 |
|     317 | 0xFFFEAF98  |  4294881176 |
|     318 | 0x2AEF      |       10991 |
|     319 | 0xFFFE83F9  |  4294870009 |
|     320 | 0x01F1      |         497 |
|     321 | 0x3310      |       13072 |
|     322 | 0xFFFE787C  |  4294867068 |
|     323 | 0x3999      |       14745 |
|     324 | 0xFFFE79DB  |  4294867419 |
|     325 | 0x33CD      |       13261 |
|     326 | 0xFFFE7B64  |  4294867812 |
|     327 | 0x04FD      |        1277 |
|     328 | 0x14F68     |       85864 |
|     329 | 0xFFFE744C  |  4294865996 |
|     330 | 0x0071      |         113 |
|     331 | 0x001B      |          27 |
|     332 | 0xFFFE5288  |  4294857352 |
|     333 | 0xFFFEFFA5  |  4294901669 |
|     334 | 0x092B      |        2347 |
|     335 | 0x1347      |        4935 |
|     336 | 0x004B      |          75 |
|     337 | 0x1348      |        4936 |
|     338 | 0x1349      |        4937 |
|     339 | 0x134B      |        4939 |
|     340 | 0x134C      |        4940 |
|     341 | 0x0426      |        1062 |
|     342 | 0x0025      |          37 |
|     343 | 0x134D      |        4941 |
|     344 | 0x134E      |        4942 |
|     345 | 0x134F      |        4943 |
|     346 | 0x1350      |        4944 |
|     347 | 0x1351      |        4945 |
|     348 | 0x134A      |        4938 |
|     349 | 0xFFFE5B5A  |  4294859610 |
|     350 | 0xFFFF05EE  |  4294903278 |
|     351 | 0x06F7      |        1783 |
|     352 | 0x1368      |        4968 |
|     353 | 0x00FD      |         253 |
|     354 | 0x02A2      |         674 |
|     355 | 0x00B4      |         180 |
|     356 | 0x005A      |          90 |
|     357 | 0x1369      |        4969 |
|     358 | 0x00A3      |         163 |
|     359 | 0x136A      |        4970 |
|     360 | 0x136B      |        4971 |
|     361 | 0x136C      |        4972 |
|     362 | 0x04CB      |        1227 |
|     363 | 0x136D      |        4973 |
|     364 | 0x136E      |        4974 |
|     365 | 0x136F      |        4975 |
|     366 | 0x1370      |        4976 |
|     367 | 0x00AA      |         170 |
|     368 | 0x00FF      |         255 |
|     369 | 0x1371      |        4977 |
|     370 | 0x1372      |        4978 |
|     371 | 0x1373      |        4979 |
|     372 | 0x1374      |        4980 |
|     373 | 0x1375      |        4981 |
|     374 | 0x1376      |        4982 |
|     375 | 0x1377      |        4983 |
|     376 | 0x1378      |        4984 |
|     377 | 0x00FE      |         254 |
|     378 | 0x1379      |        4985 |
|     379 | 0x00B2      |         178 |
|     380 | 0xFFFE923B  |  4294873659 |
|     381 | 0x11EB      |        4587 |
|     382 | 0x0EDB      |        3803 |
|     383 | 0x0008      |           8 |
|     384 | 0x137D      |        4989 |
|     385 | 0x137E      |        4990 |
|     386 | 0x137F      |        4991 |
|     387 | 0x1380      |        4992 |
|     388 | 0x1381      |        4993 |
|     389 | 0x1382      |        4994 |
|     390 | 0x1383      |        4995 |
|     391 | 0x0304      |         772 |
|     392 | 0x1384      |        4996 |
|     393 | 0x1385      |        4997 |
|     394 | 0x1386      |        4998 |
|     395 | 0x1387      |        4999 |
|     396 | 0x1388      |        5000 |
|     397 | 0x1389      |        5001 |
|     398 | 0x138A      |        5002 |
|     399 | 0x040B      |        1035 |
|     400 | 0x138B      |        5003 |
|     401 | 0x138C      |        5004 |
|     402 | 0x138D      |        5005 |
|     403 | 0x138E      |        5006 |
|     404 | 0x138F      |        5007 |
|     405 | 0x1390      |        5008 |
|     406 | 0xFFFFC696  |  4294952598 |
|     407 | 0x18E76     |      102006 |
|     408 | 0x0ECA      |        3786 |
|     409 | 0x1392      |        5010 |
|     410 | 0x0BDF      |        3039 |
|     411 | 0x1393      |        5011 |
|     412 | 0x0034      |          52 |
|     413 | 0x1394      |        5012 |
|     414 | 0x1395      |        5013 |
|     415 | 0x1396      |        5014 |
|     416 | 0x1397      |        5015 |
|     417 | 0x139B      |        5019 |
|     418 | 0x139C      |        5020 |
|     419 | 0x139D      |        5021 |
|     420 | 0xFFFE9A55  |  4294875733 |
|     421 | 0x0E35      |        3637 |
|     422 | 0x139F      |        5023 |
|     423 | 0x13A0      |        5024 |
|     424 | 0x13A1      |        5025 |
|     425 | 0x13A2      |        5026 |
|     426 | 0x13A3      |        5027 |
|     427 | 0x0037      |          55 |
|     428 | 0x13A4      |        5028 |
|     429 | 0x13A5      |        5029 |
|     430 | 0x13A6      |        5030 |
|     431 | 0x0030      |          48 |
|     432 | 0x13A7      |        5031 |
|     433 | 0x13A8      |        5032 |
|     434 | 0x13A9      |        5033 |
|     435 | 0x13AA      |        5034 |
|     436 | 0x13AB      |        5035 |
|     437 | 0x13AC      |        5036 |
|     438 | 0x13AD      |        5037 |
|     439 | 0x13AE      |        5038 |
|     440 | 0x13AF      |        5039 |
|     441 | 0x13B0      |        5040 |
|     442 | 0x13B1      |        5041 |
|     443 | 0x0044      |          68 |
|     444 | 0x13B2      |        5042 |
|     445 | 0x13B3      |        5043 |
|     446 | 0x13B4      |        5044 |
|     447 | 0x13B5      |        5045 |
|     448 | 0x040D      |        1037 |
|     449 | 0x13B6      |        5046 |
|     450 | 0x13B7      |        5047 |
|     451 | 0x0039      |          57 |
|     452 | 0x13B8      |        5048 |
|     453 | 0x13B9      |        5049 |
|     454 | 0x13BA      |        5050 |
|     455 | 0x13BB      |        5051 |
|     456 | 0x13BC      |        5052 |
|     457 | 0x0096      |         150 |
|     458 | 0x13BD      |        5053 |
|     459 | 0x03A1      |         929 |
|     460 | 0x13BE      |        5054 |
|     461 | 0xEB85      |       60293 |
|     462 | 0xFFFEFCA1  |  4294900897 |
|     463 | 0x0167      |         359 |
|     464 | 0x007F      |         127 |
|     465 | 0x13C1      |        5057 |
|     466 | 0x13C2      |        5058 |
|     467 | 0x13C3      |        5059 |
|     468 | 0x03B0      |         944 |
|     469 | 0x05EF      |        1519 |
|     470 | 0x13C4      |        5060 |
|     471 | 0x13C5      |        5061 |
|     472 | 0x13C6      |        5062 |
|     473 | 0x13C7      |        5063 |
|     474 | 0x13C8      |        5064 |
|     475 | 0x13C9      |        5065 |
|     476 | 0x13CA      |        5066 |
|     477 | 0x13CB      |        5067 |
|     478 | 0x13CC      |        5068 |
|     479 | 0x13CD      |        5069 |
|     480 | 0x13CE      |        5070 |
|     481 | 0x000F      |          15 |
|     482 | 0x13CF      |        5071 |
|     483 | 0x13D0      |        5072 |
|     484 | 0x13D1      |        5073 |
|     485 | 0x13D2      |        5074 |
|     486 | 0x13D3      |        5075 |
|     487 | 0x007C      |         124 |
|     488 | 0x13D5      |        5077 |
|     489 | 0x13D6      |        5078 |
|     490 | 0x13D7      |        5079 |
|     491 | 0x13D8      |        5080 |
|     492 | 0x13D9      |        5081 |
|     493 | 0x13DA      |        5082 |
|     494 | 0x13DB      |        5083 |
|     495 | 0x13DC      |        5084 |
|     496 | 0x13DD      |        5085 |
|     497 | 0x13DE      |        5086 |
|     498 | 0x13DF      |        5087 |
|     499 | 0x13E0      |        5088 |
|     500 | 0x13E1      |        5089 |
|     501 | 0x13E2      |        5090 |
|     502 | 0x13E3      |        5091 |
|     503 | 0x13E4      |        5092 |
|     504 | 0x13E5      |        5093 |
|     505 | 0x13E6      |        5094 |
|     506 | 0x13E7      |        5095 |
|     507 | 0x13E8      |        5096 |
|     508 | 0x13E9      |        5097 |
|     509 | 0x001A      |          26 |
|     510 | 0x13EA      |        5098 |
|     511 | 0x13EB      |        5099 |
|     512 | 0xFFFE9CE4  |  4294876388 |
|     513 | 0x1195      |        4501 |
|     514 | 0x0ECD      |        3789 |
|     515 | 0x13ED      |        5101 |
|     516 | 0x13EE      |        5102 |
|     517 | 0x13EF      |        5103 |
|     518 | 0x13F0      |        5104 |
|     519 | 0xFFFFC5B6  |  4294952374 |
|     520 | 0x18D9C     |      101788 |
|     521 | 0x0E26      |        3622 |
|     522 | 0x010B      |         267 |
|     523 | 0x144B      |        5195 |
|     524 | 0x144C      |        5196 |
|     525 | 0x144D      |        5197 |
|     526 | 0x0027      |          39 |
|     527 | 0x144E      |        5198 |
|     528 | 0x144F      |        5199 |
|     529 | 0x1450      |        5200 |
|     530 | 0x1451      |        5201 |
|     531 | 0x1452      |        5202 |
|     532 | 0x1453      |        5203 |
|     533 | 0x1454      |        5204 |
|     534 | 0x1455      |        5205 |
|     535 | 0x1456      |        5206 |
|     536 | 0x1457      |        5207 |
|     537 | 0x1458      |        5208 |
|     538 | 0x1459      |        5209 |
|     539 | 0x145A      |        5210 |
|     540 | 0x145B      |        5211 |
|     541 | 0x145C      |        5212 |
|     542 | 0x145D      |        5213 |
|     543 | 0x145E      |        5214 |
|     544 | 0x145F      |        5215 |
|     545 | 0x1461      |        5217 |
|     546 | 0x001F      |          31 |
|     547 | 0x00E4      |         228 |
|     548 | 0x1462      |        5218 |
|     549 | 0x1463      |        5219 |
|     550 | 0x1464      |        5220 |
|     551 | 0x0033      |          51 |
|     552 | 0x1465      |        5221 |
|     553 | 0x1466      |        5222 |
|     554 | 0x1467      |        5223 |
|     555 | 0x0035      |          53 |
|     556 | 0x1468      |        5224 |
|     557 | 0x1469      |        5225 |
|     558 | 0x17236     |       94774 |
|     559 | 0xFFFF99C2  |  4294941122 |
|     560 | 0x014C      |         332 |
|     561 | 0x16B44     |       92996 |
|     562 | 0xFFFF97DB  |  4294940635 |
|     563 | 0x010C      |         268 |
|     564 | 0x172F1     |       94961 |
|     565 | 0xFFFF985F  |  4294940767 |
|     566 | 0x18167     |       98663 |
|     567 | 0xFFFF97A3  |  4294940579 |
|     568 | 0x68A3      |       26787 |
|     569 | 0x1E6A4     |      124580 |
|     570 | 0x0B3F      |        2879 |
|     571 | 0x67C5      |       26565 |
|     572 | 0x1EE44     |      126532 |
|     573 | 0x17260     |       94816 |
|     574 | 0x108C      |        4236 |
|     575 | 0x0EF0      |        3824 |
|     576 | 0x1629A     |       90778 |
|     577 | 0xFFFE07C2  |  4294838210 |
|     578 | 0x021B      |         539 |
|     579 | 0x1672C     |       91948 |
|     580 | 0xFFFE0A24  |  4294838820 |
|     581 | 0x01B6      |         438 |
|     582 | 0x148A0     |       84128 |
|     583 | 0xFFFDF01E  |  4294832158 |
|     584 | 0x0837      |        2103 |
|     585 | 0xFFFFC8E3  |  4294953187 |
|     586 | 0x6C76      |       27766 |
|     587 | 0x0E20      |        3616 |
|     588 | 0x85BB      |       34235 |
|     589 | 0xD4FA      |       54522 |
|     590 | 0x0C01      |        3073 |
|     591 | 0x82AE      |       33454 |
|     592 | 0xD02C      |       53292 |
|     593 | 0x0EDD      |        3805 |
|     594 | 0x185F0     |       99824 |
|     595 | 0xFFFE9587  |  4294874503 |
|     596 | 0x08C2      |        2242 |
|     597 | 0x1B5EE     |      112110 |
|     598 | 0xFFFF5DC0  |  4294925760 |
|     599 | 0x03E8      |        1000 |
|     600 | 0x75BB      |       30139 |
|     601 | 0xFFFF239A  |  4294910874 |
|     602 | 0x008B      |         139 |
|     603 | 0x8478      |       33912 |
|     604 | 0xFFFF238F  |  4294910863 |
|     605 | 0xFFFED78D  |  4294891405 |
|     606 | 0x1F3A8     |      127912 |
|     607 | 0x00BE      |         190 |
|     608 | 0xFFFED99E  |  4294891934 |
|     609 | 0x1F943     |      129347 |
|     610 | 0x0059      |          89 |
|     611 | 0xFFFEDCA1  |  4294892705 |
|     612 | 0x1EFF6     |      126966 |
|     613 | 0x021D      |         541 |
|     614 | 0x84DE      |       34014 |
|     615 | 0xFFFF4318  |  4294918936 |
|     616 | 0x735D      |       29533 |
|     617 | 0xFFFF45F1  |  4294919665 |
|     618 | 0xFFFFE155  |  4294959445 |
|     619 | 0x0834      |        2100 |
|     620 | 0x68A4      |       26788 |
|     621 | 0xFFFF48D7  |  4294920407 |
|     622 | 0xFFFFC285  |  4294951557 |
|     623 | 0x76C9      |       30409 |
|     624 | 0x092D      |        2349 |
|     625 | 0xFFFFC717  |  4294952727 |
|     626 | 0x6E36      |       28214 |
|     627 | 0x11C87     |       72839 |
|     628 | 0xFFFE0C83  |  4294839427 |
|     629 | 0x04CC      |        1228 |
|     630 | 0x10F0B     |       69387 |
|     631 | 0xFFFE0CC7  |  4294839495 |
|     632 | 0xFFFFD701  |  4294956801 |
|     633 | 0x6C1A      |       27674 |
|     634 | 0x097F      |        2431 |
|     635 | 0x897D      |       35197 |
|     636 | 0xFFFF4A27  |  4294920743 |
|     637 | 0x096D      |        2413 |
|     638 | 0x6488      |       25736 |
|     639 | 0xFFFF4DC3  |  4294921667 |
|     640 | 0x53C8      |       21448 |
|     641 | 0x4CB2      |       19634 |
|     642 | 0x10705     |       67333 |
|     643 | 0xFFFE0A93  |  4294838931 |
|     644 | 0x13091     |       77969 |
|     645 | 0xD898      |       55448 |
|     646 | 0xFFFFFEC5  |  4294966981 |
|     647 | 0x1277E     |       75646 |
|     648 | 0xD8F8      |       55544 |
|     649 | 0xFFFFFE63  |  4294966883 |
|     650 | 0x196AB     |      104107 |
|     651 | 0x1D53C     |      120124 |
|     652 | 0x07D0      |        2000 |
|     653 | 0x18DCB     |      101835 |
|     654 | 0x1D606     |      120326 |
|     655 | 0x13A93     |       80531 |
|     656 | 0xC7FD      |       51197 |
|     657 | 0x01DB      |         475 |
|     658 | 0x12C26     |       76838 |
|     659 | 0xFFFE10CC  |  4294840524 |
|     660 | 0x04F7      |        1271 |
|     661 | 0x12D4D     |       77133 |
|     662 | 0xFFFE0927  |  4294838567 |
|     663 | 0x127AF     |       75695 |
|     664 | 0xFFFDFE20  |  4294835744 |
|     665 | 0x05D8      |        1496 |
|     666 | 0x1F74D     |      128845 |
|     667 | 0xFFFFF000  |  4294963200 |
|     668 | 0xFFFFFF15  |  4294967061 |
|     669 | 0x0FCC      |        4044 |
|     670 | 0x20CCF     |      134351 |
|     671 | 0xFFFFEE2E  |  4294962734 |
|     672 | 0xFFFFF9B5  |  4294965685 |
|     673 | 0x22F9C     |      143260 |
|     674 | 0xFFFFF2F2  |  4294963954 |
|     675 | 0x0F9A      |        3994 |
|     676 | 0x24216     |      147990 |
|     677 | 0xFFFFF2AA  |  4294963882 |
|     678 | 0x2445E     |      148574 |
|     679 | 0xFFFFE6BE  |  4294960830 |
|     680 | 0xFFFFF831  |  4294965297 |
|     681 | 0x0AC6      |        2758 |
|     682 | 0x245FE     |      148990 |
|     683 | 0xFFFFE76D  |  4294961005 |
|     684 | 0x0A54      |        2644 |
|     685 | 0x12289     |       74377 |
|     686 | 0xFFFDF559  |  4294833497 |
|     687 | 0x03A9      |         937 |
|     688 | 0x11C18     |       72728 |
|     689 | 0xFFFE0318  |  4294837016 |
|     690 | 0x12A92     |       76434 |
|     691 | 0xFFFDF804  |  4294834180 |
|     692 | 0x0465      |        1125 |
|     693 | 0xFFFF124E  |  4294906446 |
|     694 | 0x01AB      |         427 |
|     695 | 0x0F79      |        3961 |
|     696 | 0xFFFEE8B5  |  4294895797 |
|     697 | 0xFFFEB2F8  |  4294882040 |
|     698 | 0x0D83      |        3459 |
|     699 | 0x0017      |          23 |
|     700 | 0x0011      |          17 |
|     701 | 0x127DA     |       75738 |
|     702 | 0xFFFDF8A4  |  4294834340 |
|     703 | 0x04D4      |        1236 |
|     704 | 0x11AEC     |       72428 |
|     705 | 0xFFFDF7D7  |  4294834135 |
|     706 | 0x138D1     |       80081 |
|     707 | 0xFFFE30F1  |  4294848753 |
|     708 | 0x04D3      |        1235 |
|     709 | 0x1388F     |       80015 |
|     710 | 0xFFFE19EC  |  4294842860 |
|     711 | 0x12CD9     |       77017 |
|     712 | 0xFFFE15F0  |  4294841840 |
|     713 | 0x10CC8     |       68808 |
|     714 | 0xFFFDFAAB  |  4294834859 |
|     715 | 0x0507      |        1287 |
|     716 | 0x1065E     |       67166 |
|     717 | 0xFFFDF4DB  |  4294833371 |
|     718 | 0xFD07      |       64775 |
|     719 | 0xFFFE0748  |  4294838088 |
|     720 | 0x11371     |       70513 |
|     721 | 0xFFFE0740  |  4294838080 |
|     722 | 0xFFFFE822  |  4294961186 |
|     723 | 0x10D17     |       68887 |
|     724 | 0xFFFE0A57  |  4294838871 |
|     725 | 0x09B1      |        2481 |
|     726 | 0x106D5     |       67285 |
|     727 | 0xFFFE1121  |  4294840609 |
|     728 | 0x105B8     |       67000 |
|     729 | 0xFFFE14CB  |  4294841547 |
|     730 | 0xFFFFE5D4  |  4294960596 |
|     731 | 0x10735     |       67381 |
|     732 | 0xFFFE1540  |  4294841664 |
|     733 | 0x0FE8      |        4072 |
|     734 | 0x8467      |       33895 |
|     735 | 0xFFFF2C1F  |  4294913055 |
|     736 | 0x83D4      |       33748 |
|     737 | 0xFFFF4D07  |  4294921479 |
|     738 | 0x00FA      |         250 |
|     739 | 0xFFFEA943  |  4294879555 |
|     740 | 0xFFFFEE87  |  4294962823 |
|     741 | 0x8197      |       33175 |
|     742 | 0xFFFF4F94  |  4294922132 |
|     743 | 0x10ED4     |       69332 |
|     744 | 0xFFFE0B1F  |  4294839071 |
|     745 | 0x0D40      |        3392 |
|     746 | 0x108A3     |       67747 |
|     747 | 0xFFFE0D6B  |  4294839659 |
|     748 | 0x840F      |       33807 |
|     749 | 0xFFFF26DE  |  4294911710 |
|     750 | 0x00F0      |         240 |
|     751 | 0x0055      |          85 |
|     752 | 0x01C2      |         450 |
|     753 | 0x0124      |         292 |
|     754 | 0xFFFFDBA0  |  4294957984 |
|     755 | 0x69EF      |       27119 |
|     756 | 0x0846      |        2118 |
|     757 | 0xFFFFEA8F  |  4294961807 |
|     758 | 0x7306      |       29446 |
|     759 | 0x0F37      |        3895 |
|     760 | 0xFFFFB056  |  4294946902 |
|     761 | 0x6397      |       25495 |
|     762 | 0x0EB5      |        3765 |
|     763 | 0xFFFFB8DF  |  4294949087 |
|     764 | 0x6657      |       26199 |
|     765 | 0x13364     |       78692 |
|     766 | 0x0A6B      |        2667 |
|     767 | 0x14663     |       83555 |
|     768 | 0x09DE      |        2526 |
|     769 | 0x2609      |        9737 |
|     770 | 0x1AFF5     |      110581 |
|     771 | 0xFFFF05B1  |  4294903217 |
|     772 | 0x1C71C     |      116508 |
|     773 | 0x2977D     |      169853 |
|     774 | 0xFFFF064A  |  4294903370 |
|     775 | 0x1C490     |      115856 |
|     776 | 0xFFFE88FF  |  4294871295 |
|     777 | 0x07FD      |        2045 |
|     778 | 0x006C      |         108 |
|     779 | 0x1A264     |      107108 |
|     780 | 0xFFFE889C  |  4294871196 |
|     781 | 0xFFFF0FAB  |  4294905771 |
|     782 | 0xFF8C      |       65420 |
|     783 | 0xFFFE891F  |  4294871327 |
|     784 | 0xFFFE8B61  |  4294871905 |
|     785 | 0xFFFE5AC7  |  4294859463 |
|     786 | 0xFFFFBBF2  |  4294949874 |
|     787 | 0x02F6      |         758 |
|     788 | 0xFFFE618C  |  4294861196 |
|     789 | 0xFFFFAF92  |  4294946706 |
|     790 | 0xFFFE6117  |  4294861079 |
|     791 | 0xFFFFA966  |  4294945126 |
|     792 | 0x02B8      |         696 |
|     793 | 0xFFFE8A41  |  4294871617 |
|     794 | 0xFFFE9118  |  4294873368 |
|     795 | 0x0EB9      |        3769 |
|     796 | 0xFFFF0FDF  |  4294905823 |
|     797 | 0x103AD     |       66477 |
|     798 | 0x0350      |         848 |
|     799 | 0xFFFE4E32  |  4294856242 |
|     800 | 0x07AF      |        1967 |
|     801 | 0xFFFE5DE4  |  4294860260 |
|     802 | 0x0789      |        1929 |
|     803 | 0xFFFE61F9  |  4294861305 |
|     804 | 0x4F75      |       20341 |
|     805 | 0xFFFF116E  |  4294906222 |
|     806 | 0x10066     |       65638 |

## Events

### Event 65535

#### Metadata

| Field        | Value   |
|--------------|---------|
| Entrypoint   | 0x0000  |
| Data Size    | 1 bytes |
| Instructions | 1       |

```
      00 01 02 03 04 05 06 07  08 09 0A 0B 0C 0D 0E 0F
      -- -- -- -- -- -- -- --  -- -- -- -- -- -- -- --
0000: 00                                                .               
```

#### Opcodes

```
  0: 0x0000 [0x00] END_REQSTACK()
```

### Event 65534

#### Metadata

| Field        | Value   |
|--------------|---------|
| Entrypoint   | 0x0001  |
| Data Size    | 1 bytes |
| Instructions | 1       |

```
      00 01 02 03 04 05 06 07  08 09 0A 0B 0C 0D 0E 0F
      -- -- -- -- -- -- -- --  -- -- -- -- -- -- -- --
0000:    00                                              .              
```

#### Opcodes

```
  0: 0x0001 [0x00] END_REQSTACK()
```

### Event 65535.1

#### Metadata

| Field        | Value    |
|--------------|----------|
| Entrypoint   | 0x0002   |
| Data Size    | 10 bytes |
| Instructions | 2        |

```
      00 01 02 03 04 05 06 07  08 09 0A 0B 0C 0D 0E 0F
      -- -- -- -- -- -- -- --  -- -- -- -- -- -- -- --
0000:       37 00 80 01 80 02  80 03 80 00                7.........    
```

#### Opcodes

```
  0: 0x0002 [0x37] UPDATE_EVENT_POSITION_AND_DIR: x=79.949*, z=52.496*, y=-0.060*, direction=270.0*
  1: 0x000B [0x00] END_REQSTACK()
```

### Event 65535.2

#### Metadata

| Field        | Value    |
|--------------|----------|
| Entrypoint   | 0x000C   |
| Data Size    | 10 bytes |
| Instructions | 2        |

```
      00 01 02 03 04 05 06 07  08 09 0A 0B 0C 0D 0E 0F
      -- -- -- -- -- -- -- --  -- -- -- -- -- -- -- --
0000:                                      37 04 80 05              7...
0010: 80 06 80 07 80 00                                 ......          
```

#### Opcodes

```
  0: 0x000C [0x37] UPDATE_EVENT_POSITION_AND_DIR: x=0.154*, z=-1.653*, y=0.000*, direction=259.0*
  1: 0x0015 [0x00] END_REQSTACK()
```

### Event 100

#### Metadata

| Field        | Value    |
|--------------|----------|
| Entrypoint   | 0x0016   |
| Data Size    | 21 bytes |
| Instructions | 3        |

```
      00 01 02 03 04 05 06 07  08 09 0A 0B 0C 0D 0E 0F
      -- -- -- -- -- -- -- --  -- -- -- -- -- -- -- --
0010:                   9F 08  80 F8 FF FF 7F F8 FF FF        ..........
0020: 7F 6D 61 69 6E 06 80 1C  09 80 00                 .main......     
```

#### Opcodes

```
  0: 0x0016 [0x9F] LOAD_SCHEDULED_TASK_ALT: Load scheduler "main" with entities [EventEntity, EventEntity], work=[201*, 0*]
  1: 0x0027 [0x1C] WAIT(140* ticks)
  2: 0x002A [0x00] END_REQSTACK()
```

### Event 102

#### Metadata

| Field        | Value    |
|--------------|----------|
| Entrypoint   | 0x002B   |
| Data Size    | 10 bytes |
| Instructions | 2        |

```
      00 01 02 03 04 05 06 07  08 09 0A 0B 0C 0D 0E 0F
      -- -- -- -- -- -- -- --  -- -- -- -- -- -- -- --
0020:                                   37 0A 80 0B 80             7....
0030: 0C 80 03 80 00                                    .....           
```

#### Opcodes

```
  0: 0x002B [0x37] UPDATE_EVENT_POSITION_AND_DIR: x=125.000*, z=61.154*, y=-4.213*, direction=270.0*
  1: 0x0034 [0x00] END_REQSTACK()
```

### Event 103

#### Metadata

| Field        | Value    |
|--------------|----------|
| Entrypoint   | 0x0035   |
| Data Size    | 15 bytes |
| Instructions | 5        |

```
      00 01 02 03 04 05 06 07  08 09 0A 0B 0C 0D 0E 0F
      -- -- -- -- -- -- -- --  -- -- -- -- -- -- -- --
0030:                32 0D 80  1F 00 0A 80 0E 80 0C 80       2..........
0040: 1F 01 6F 00                                       ..o.            
```

#### Opcodes

```
  0: 0x0035 [0x32] ExtData[1]->MainSpeed = 13* * 0.1
  1: 0x0038 [0x1F] MOVE_ENTITY: EventEntity moves to X=125.000*, Z=64.400*, Y=-4.213*
  2: 0x0040 [0x1F] MOVE_ENTITY: Update entity position (mode=1)
  3: 0x0042 [0x6F] WAIT_FRAME_DELAY: Yield until WaitTime reaches zero
  4: 0x0043 [0x00] END_REQSTACK()
```

### Event 200

#### Metadata

| Field        | Value     |
|--------------|-----------|
| Entrypoint   | 0x0044    |
| Data Size    | 222 bytes |
| Instructions | 23        |

```
      00 01 02 03 04 05 06 07  08 09 0A 0B 0C 0D 0E 0F
      -- -- -- -- -- -- -- --  -- -- -- -- -- -- -- --
0040:             20 01 42 45  0F 80 F0 FF FF 7F F0 FF       .BE........
0050: FF 7F 66 64 6F 30 06 80  46 01 55 0F 80 F0 FF FF  ..fdo0..F.U.....
0060: 7F F0 FF FF 7F 66 64 6F  30 22 01 47 00 10 80 11  .....fdo0".G....
0070: 80 12 80 13 80 47 01 38  14 80 45 15 80 F0 FF FF  .....G.8..E.....
0080: 7F F0 FF FF 7F 73 30 35  38 06 80 45 0F 80 F0 FF  .....s058..E....
0090: FF 7F F0 FF FF 7F 66 64  69 30 06 80 55 15 80 F0  ......fdi0..U...
00A0: FF FF 7F F0 FF FF 7F 73  30 35 38 45 15 80 F0 FF  .......s058E....
00B0: FF 7F F0 FF FF 7F 73 30  36 37 06 80 1C 16 80 45  ......s067.....E
00C0: 0F 80 F0 FF FF 7F F0 FF  FF 7F 6F 76 6C 31 06 80  ..........ovl1..
00D0: 52 15 80 F0 FF FF 7F F0  FF FF 7F 73 30 36 37 45  R..........s067E
00E0: 15 80 F0 FF FF 7F F0 FF  FF 7F 73 30 35 39 06 80  ..........s059..
00F0: 55 15 80 F0 FF FF 7F F0  FF FF 7F 73 30 35 39 45  U..........s059E
0100: 0F 80 F0 FF FF 7F F0 FF  FF 7F 66 64 6F 32 06 80  ..........fdo2..
0110: 55 0F 80 F0 FF FF 7F F0  FF FF 7F 66 64 6F 32 30  U..........fdo20
0120: 21 00                                             !.              
```

#### Opcodes

```
  0: 0x0044 [0x20] SET_CLI_EVENT_UC_FLAG: Lock player control
  1: 0x0046 [0x42] SET_CLI_EVENT_CANCEL_DATA()
  2: 0x0047 [0x45] LOAD_SCHEDULED_TASK: Load scheduler "fdo0" with entities [LocalPlayer, LocalPlayer], work=[200*, 0*]
  3: 0x0058 [0x46] CAMERA_CONTROL: Disable user control
  4: 0x005A [0x55] WAIT_LOAD_SCHEDULER: Wait for scheduler "fdo0" with entities [LocalPlayer, LocalPlayer], work=200*
  5: 0x0069 [0x22] ENTITY_HIDE_FLAG(enabled=0x01)
  6: 0x006B [0x47] UPDATE_PLAYER_POS(-11.692*, -142.151*, 1.999*, yaw=112.5*)
  7: 0x0075 [0x47] WAIT_PLAYER_POS_UPDATE
  8: 0x0077 [0x38] SET_CLIENT_EVENT_MODE(mode=259*)
  9: 0x007A [0x45] LOAD_SCHEDULED_TASK: Load scheduler "s058" with entities [LocalPlayer, LocalPlayer], work=[199*, 0*]
 10: 0x008B [0x45] LOAD_SCHEDULED_TASK: Load scheduler "fdi0" with entities [LocalPlayer, LocalPlayer], work=[200*, 0*]
 11: 0x009C [0x55] WAIT_LOAD_SCHEDULER: Wait for scheduler "s058" with entities [LocalPlayer, LocalPlayer], work=199*
 12: 0x00AB [0x45] LOAD_SCHEDULED_TASK: Load scheduler "s067" with entities [LocalPlayer, LocalPlayer], work=[199*, 0*]
 13: 0x00BC [0x1C] WAIT(650* ticks)
 14: 0x00BF [0x45] LOAD_SCHEDULED_TASK: Load scheduler "ovl1" with entities [LocalPlayer, LocalPlayer], work=[200*, 0*]
 15: 0x00D0 [0x52] END_LOAD_SCHEDULER: End scheduler "s067" with entities [LocalPlayer, LocalPlayer], work=199*
 16: 0x00DF [0x45] LOAD_SCHEDULED_TASK: Load scheduler "s059" with entities [LocalPlayer, LocalPlayer], work=[199*, 0*]
 17: 0x00F0 [0x55] WAIT_LOAD_SCHEDULER: Wait for scheduler "s059" with entities [LocalPlayer, LocalPlayer], work=199*
 18: 0x00FF [0x45] LOAD_SCHEDULED_TASK: Load scheduler "fdo2" with entities [LocalPlayer, LocalPlayer], work=[200*, 0*]
 19: 0x0110 [0x55] WAIT_LOAD_SCHEDULER: Wait for scheduler "fdo2" with entities [LocalPlayer, LocalPlayer], work=200*
 20: 0x011F [0x30] SET_UCOFF_CONTINUE_ZERO()
 21: 0x0120 [0x21] END_EVENT
 22: 0x0121 [0x00] END_REQSTACK()
```

### Event 203

#### Metadata

| Field        | Value     |
|--------------|-----------|
| Entrypoint   | 0x0122    |
| Data Size    | 222 bytes |
| Instructions | 23        |

```
      00 01 02 03 04 05 06 07  08 09 0A 0B 0C 0D 0E 0F
      -- -- -- -- -- -- -- --  -- -- -- -- -- -- -- --
0120:       20 01 42 45 0F 80  F0 FF FF 7F F0 FF FF 7F     .BE..........
0130: 66 64 6F 30 06 80 46 01  55 0F 80 F0 FF FF 7F F0  fdo0..F.U.......
0140: FF FF 7F 66 64 6F 30 22  01 47 00 17 80 18 80 12  ...fdo0".G......
0150: 80 19 80 47 01 38 14 80  45 15 80 F0 FF FF 7F F0  ...G.8..E.......
0160: FF FF 7F 73 30 36 30 06  80 45 0F 80 F0 FF FF 7F  ...s060..E......
0170: F0 FF FF 7F 66 64 69 30  06 80 55 15 80 F0 FF FF  ....fdi0..U.....
0180: 7F F0 FF FF 7F 73 30 36  30 45 15 80 F0 FF FF 7F  .....s060E......
0190: F0 FF FF 7F 73 30 36 38  06 80 1C 1A 80 45 0F 80  ....s068.....E..
01A0: F0 FF FF 7F F0 FF FF 7F  6F 76 6C 31 06 80 52 15  ........ovl1..R.
01B0: 80 F0 FF FF 7F F0 FF FF  7F 73 30 36 38 45 15 80  .........s068E..
01C0: F0 FF FF 7F F0 FF FF 7F  73 30 36 31 06 80 55 15  ........s061..U.
01D0: 80 F0 FF FF 7F F0 FF FF  7F 73 30 36 31 45 0F 80  .........s061E..
01E0: F0 FF FF 7F F0 FF FF 7F  66 64 6F 32 06 80 55 0F  ........fdo2..U.
01F0: 80 F0 FF FF 7F F0 FF FF  7F 66 64 6F 32 30 21 00  .........fdo20!.
```

#### Opcodes

```
  0: 0x0122 [0x20] SET_CLI_EVENT_UC_FLAG: Lock player control
  1: 0x0124 [0x42] SET_CLI_EVENT_CANCEL_DATA()
  2: 0x0125 [0x45] LOAD_SCHEDULED_TASK: Load scheduler "fdo0" with entities [LocalPlayer, LocalPlayer], work=[200*, 0*]
  3: 0x0136 [0x46] CAMERA_CONTROL: Disable user control
  4: 0x0138 [0x55] WAIT_LOAD_SCHEDULER: Wait for scheduler "fdo0" with entities [LocalPlayer, LocalPlayer], work=200*
  5: 0x0147 [0x22] ENTITY_HIDE_FLAG(enabled=0x01)
  6: 0x0149 [0x47] UPDATE_PLAYER_POS(11.944*, 141.769*, 1.999*, yaw=88.0*)
  7: 0x0153 [0x47] WAIT_PLAYER_POS_UPDATE
  8: 0x0155 [0x38] SET_CLIENT_EVENT_MODE(mode=259*)
  9: 0x0158 [0x45] LOAD_SCHEDULED_TASK: Load scheduler "s060" with entities [LocalPlayer, LocalPlayer], work=[199*, 0*]
 10: 0x0169 [0x45] LOAD_SCHEDULED_TASK: Load scheduler "fdi0" with entities [LocalPlayer, LocalPlayer], work=[200*, 0*]
 11: 0x017A [0x55] WAIT_LOAD_SCHEDULER: Wait for scheduler "s060" with entities [LocalPlayer, LocalPlayer], work=199*
 12: 0x0189 [0x45] LOAD_SCHEDULED_TASK: Load scheduler "s068" with entities [LocalPlayer, LocalPlayer], work=[199*, 0*]
 13: 0x019A [0x1C] WAIT(700* ticks)
 14: 0x019D [0x45] LOAD_SCHEDULED_TASK: Load scheduler "ovl1" with entities [LocalPlayer, LocalPlayer], work=[200*, 0*]
 15: 0x01AE [0x52] END_LOAD_SCHEDULER: End scheduler "s068" with entities [LocalPlayer, LocalPlayer], work=199*
 16: 0x01BD [0x45] LOAD_SCHEDULED_TASK: Load scheduler "s061" with entities [LocalPlayer, LocalPlayer], work=[199*, 0*]
 17: 0x01CE [0x55] WAIT_LOAD_SCHEDULER: Wait for scheduler "s061" with entities [LocalPlayer, LocalPlayer], work=199*
 18: 0x01DD [0x45] LOAD_SCHEDULED_TASK: Load scheduler "fdo2" with entities [LocalPlayer, LocalPlayer], work=[200*, 0*]
 19: 0x01EE [0x55] WAIT_LOAD_SCHEDULER: Wait for scheduler "fdo2" with entities [LocalPlayer, LocalPlayer], work=200*
 20: 0x01FD [0x30] SET_UCOFF_CONTINUE_ZERO()
 21: 0x01FE [0x21] END_EVENT
 22: 0x01FF [0x00] END_REQSTACK()
```

### Event 201

#### Metadata

| Field        | Value    |
|--------------|----------|
| Entrypoint   | 0x0200   |
| Data Size    | 58 bytes |
| Instructions | 9        |

```
      00 01 02 03 04 05 06 07  08 09 0A 0B 0C 0D 0E 0F
      -- -- -- -- -- -- -- --  -- -- -- -- -- -- -- --
0200: 20 01 42 45 0F 80 F0 FF  FF 7F F0 FF FF 7F 66 64   .BE..........fd
0210: 69 32 06 80 46 01 45 15  80 F0 FF FF 7F F0 FF FF  i2..F.E.........
0220: 7F 73 30 36 35 06 80 55  15 80 F0 FF FF 7F F0 FF  .s065..U........
0230: FF 7F 73 30 36 35 46 00  21 00                    ..s065F.!.      
```

#### Opcodes

```
  0: 0x0200 [0x20] SET_CLI_EVENT_UC_FLAG: Lock player control
  1: 0x0202 [0x42] SET_CLI_EVENT_CANCEL_DATA()
  2: 0x0203 [0x45] LOAD_SCHEDULED_TASK: Load scheduler "fdi2" with entities [LocalPlayer, LocalPlayer], work=[200*, 0*]
  3: 0x0214 [0x46] CAMERA_CONTROL: Disable user control
  4: 0x0216 [0x45] LOAD_SCHEDULED_TASK: Load scheduler "s065" with entities [LocalPlayer, LocalPlayer], work=[199*, 0*]
  5: 0x0227 [0x55] WAIT_LOAD_SCHEDULER: Wait for scheduler "s065" with entities [LocalPlayer, LocalPlayer], work=199*
  6: 0x0236 [0x46] CAMERA_CONTROL: Restore default settings
  7: 0x0238 [0x21] END_EVENT
  8: 0x0239 [0x00] END_REQSTACK()
```

### Event 204

#### Metadata

| Field        | Value    |
|--------------|----------|
| Entrypoint   | 0x023A   |
| Data Size    | 58 bytes |
| Instructions | 9        |

```
      00 01 02 03 04 05 06 07  08 09 0A 0B 0C 0D 0E 0F
      -- -- -- -- -- -- -- --  -- -- -- -- -- -- -- --
0230:                                20 01 42 45 0F 80             .BE..
0240: F0 FF FF 7F F0 FF FF 7F  66 64 69 32 06 80 46 01  ........fdi2..F.
0250: 45 15 80 F0 FF FF 7F F0  FF FF 7F 73 30 36 36 06  E..........s066.
0260: 80 55 15 80 F0 FF FF 7F  F0 FF FF 7F 73 30 36 36  .U..........s066
0270: 46 00 21 00                                       F.!.            
```

#### Opcodes

```
  0: 0x023A [0x20] SET_CLI_EVENT_UC_FLAG: Lock player control
  1: 0x023C [0x42] SET_CLI_EVENT_CANCEL_DATA()
  2: 0x023D [0x45] LOAD_SCHEDULED_TASK: Load scheduler "fdi2" with entities [LocalPlayer, LocalPlayer], work=[200*, 0*]
  3: 0x024E [0x46] CAMERA_CONTROL: Disable user control
  4: 0x0250 [0x45] LOAD_SCHEDULED_TASK: Load scheduler "s066" with entities [LocalPlayer, LocalPlayer], work=[199*, 0*]
  5: 0x0261 [0x55] WAIT_LOAD_SCHEDULER: Wait for scheduler "s066" with entities [LocalPlayer, LocalPlayer], work=199*
  6: 0x0270 [0x46] CAMERA_CONTROL: Restore default settings
  7: 0x0272 [0x21] END_EVENT
  8: 0x0273 [0x00] END_REQSTACK()
```

### Event 202

#### Metadata

| Field        | Value    |
|--------------|----------|
| Entrypoint   | 0x0274   |
| Data Size    | 90 bytes |
| Instructions | 14       |

```
      00 01 02 03 04 05 06 07  08 09 0A 0B 0C 0D 0E 0F
      -- -- -- -- -- -- -- --  -- -- -- -- -- -- -- --
0270:             20 01 42 45  0F 80 F0 FF FF 7F F0 FF       .BE........
0280: FF 7F 66 64 6F 30 06 80  46 01 55 0F 80 F0 FF FF  ..fdo0..F.U.....
0290: 7F F0 FF FF 7F 66 64 6F  30 22 01 47 00 10 80 11  .....fdo0".G....
02A0: 80 12 80 13 80 47 01 38  14 80 46 00 45 0F 80 F0  .....G.8..F.E...
02B0: FF FF 7F F0 FF FF 7F 66  64 69 30 06 80 55 0F 80  .......fdi0..U..
02C0: F0 FF FF 7F F0 FF FF 7F  66 64 69 30 21 00        ........fdi0!.  
```

#### Opcodes

```
  0: 0x0274 [0x20] SET_CLI_EVENT_UC_FLAG: Lock player control
  1: 0x0276 [0x42] SET_CLI_EVENT_CANCEL_DATA()
  2: 0x0277 [0x45] LOAD_SCHEDULED_TASK: Load scheduler "fdo0" with entities [LocalPlayer, LocalPlayer], work=[200*, 0*]
  3: 0x0288 [0x46] CAMERA_CONTROL: Disable user control
  4: 0x028A [0x55] WAIT_LOAD_SCHEDULER: Wait for scheduler "fdo0" with entities [LocalPlayer, LocalPlayer], work=200*
  5: 0x0299 [0x22] ENTITY_HIDE_FLAG(enabled=0x01)
  6: 0x029B [0x47] UPDATE_PLAYER_POS(-11.692*, -142.151*, 1.999*, yaw=112.5*)
  7: 0x02A5 [0x47] WAIT_PLAYER_POS_UPDATE
  8: 0x02A7 [0x38] SET_CLIENT_EVENT_MODE(mode=259*)
  9: 0x02AA [0x46] CAMERA_CONTROL: Restore default settings
 10: 0x02AC [0x45] LOAD_SCHEDULED_TASK: Load scheduler "fdi0" with entities [LocalPlayer, LocalPlayer], work=[200*, 0*]
 11: 0x02BD [0x55] WAIT_LOAD_SCHEDULER: Wait for scheduler "fdi0" with entities [LocalPlayer, LocalPlayer], work=200*
 12: 0x02CC [0x21] END_EVENT
 13: 0x02CD [0x00] END_REQSTACK()
```

### Event 205

#### Metadata

| Field        | Value    |
|--------------|----------|
| Entrypoint   | 0x02CE   |
| Data Size    | 90 bytes |
| Instructions | 14       |

```
      00 01 02 03 04 05 06 07  08 09 0A 0B 0C 0D 0E 0F
      -- -- -- -- -- -- -- --  -- -- -- -- -- -- -- --
02C0:                                            20 01                 .
02D0: 42 45 0F 80 F0 FF FF 7F  F0 FF FF 7F 66 64 6F 30  BE..........fdo0
02E0: 06 80 46 01 55 0F 80 F0  FF FF 7F F0 FF FF 7F 66  ..F.U..........f
02F0: 64 6F 30 22 01 47 00 17  80 18 80 12 80 19 80 47  do0".G.........G
0300: 01 38 14 80 46 00 45 0F  80 F0 FF FF 7F F0 FF FF  .8..F.E.........
0310: 7F 66 64 69 30 06 80 55  0F 80 F0 FF FF 7F F0 FF  .fdi0..U........
0320: FF 7F 66 64 69 30 21 00                           ..fdi0!.        
```

#### Opcodes

```
  0: 0x02CE [0x20] SET_CLI_EVENT_UC_FLAG: Lock player control
  1: 0x02D0 [0x42] SET_CLI_EVENT_CANCEL_DATA()
  2: 0x02D1 [0x45] LOAD_SCHEDULED_TASK: Load scheduler "fdo0" with entities [LocalPlayer, LocalPlayer], work=[200*, 0*]
  3: 0x02E2 [0x46] CAMERA_CONTROL: Disable user control
  4: 0x02E4 [0x55] WAIT_LOAD_SCHEDULER: Wait for scheduler "fdo0" with entities [LocalPlayer, LocalPlayer], work=200*
  5: 0x02F3 [0x22] ENTITY_HIDE_FLAG(enabled=0x01)
  6: 0x02F5 [0x47] UPDATE_PLAYER_POS(11.944*, 141.769*, 1.999*, yaw=88.0*)
  7: 0x02FF [0x47] WAIT_PLAYER_POS_UPDATE
  8: 0x0301 [0x38] SET_CLIENT_EVENT_MODE(mode=259*)
  9: 0x0304 [0x46] CAMERA_CONTROL: Restore default settings
 10: 0x0306 [0x45] LOAD_SCHEDULED_TASK: Load scheduler "fdi0" with entities [LocalPlayer, LocalPlayer], work=[200*, 0*]
 11: 0x0317 [0x55] WAIT_LOAD_SCHEDULER: Wait for scheduler "fdi0" with entities [LocalPlayer, LocalPlayer], work=200*
 12: 0x0326 [0x21] END_EVENT
 13: 0x0327 [0x00] END_REQSTACK()
```

### Event 65535.3

#### Metadata

| Field        | Value    |
|--------------|----------|
| Entrypoint   | 0x0328   |
| Data Size    | 20 bytes |
| Instructions | 3        |

```
      00 01 02 03 04 05 06 07  08 09 0A 0B 0C 0D 0E 0F
      -- -- -- -- -- -- -- --  -- -- -- -- -- -- -- --
0320:                          37 1B 80 1C 80 1D 80 1E          7.......
0330: 80 79 00 F8 FF FF 7F 35  21 03 01 00              .y.....5!...    
```

#### Opcodes

```
  0: 0x0328 [0x37] UPDATE_EVENT_POSITION_AND_DIR: x=98.309*, z=-27.230*, y=-5.999*, direction=33.5*
  1: 0x0331 [0x79] EventEntity looks at Iruki-Waraki (ID: 16982325/0x01032135) (Basic look)
  2: 0x033B [0x00] END_REQSTACK()
```

### Event 65535.4

#### Metadata

| Field        | Value    |
|--------------|----------|
| Entrypoint   | 0x033C   |
| Data Size    | 10 bytes |
| Instructions | 2        |

```
      00 01 02 03 04 05 06 07  08 09 0A 0B 0C 0D 0E 0F
      -- -- -- -- -- -- -- --  -- -- -- -- -- -- -- --
0330:                                      37 1F 80 20              7.. 
0340: 80 21 80 22 80 00                                 .!."..          
```

#### Opcodes

```
  0: 0x033C [0x37] UPDATE_EVENT_POSITION_AND_DIR: x=66.372*, z=27.223*, y=-6.000*, direction=34.6*
  1: 0x0345 [0x00] END_REQSTACK()
```

### Event 65535.5

#### Metadata

| Field        | Value    |
|--------------|----------|
| Entrypoint   | 0x0346   |
| Data Size    | 10 bytes |
| Instructions | 2        |

```
      00 01 02 03 04 05 06 07  08 09 0A 0B 0C 0D 0E 0F
      -- -- -- -- -- -- -- --  -- -- -- -- -- -- -- --
0340:                   37 23  80 24 80 1D 80 25 80 00        7#.$...%..
```

#### Opcodes

```
  0: 0x0346 [0x37] UPDATE_EVENT_POSITION_AND_DIR: x=98.996*, z=-28.175*, y=-5.999*, direction=27.2*
  1: 0x034F [0x00] END_REQSTACK()
```

### Event 65535.6

#### Metadata

| Field        | Value    |
|--------------|----------|
| Entrypoint   | 0x0350   |
| Data Size    | 23 bytes |
| Instructions | 5        |

```
      00 01 02 03 04 05 06 07  08 09 0A 0B 0C 0D 0E 0F
      -- -- -- -- -- -- -- --  -- -- -- -- -- -- -- --
0350: 02 22 10 26 80 04 66 03  1C 27 80 02 22 10 26 80  .".&..f..'..".&.
0360: 04 66 03 0B 22 10 00                              .f.."..         
```

#### Opcodes

```
  0: 0x0350 [0x02] IF !(Work_Zone[34] < 1*) GOTO 0x0366
  1: 0x0358 [0x1C] WAIT(30* ticks)
  2: 0x035B [0x02] IF !(Work_Zone[34] < 1*) GOTO 0x0366
  3: 0x0363 [0x0B] Work_Zone[34]++
  4: 0x0366 [0x00] END_REQSTACK()
```

### Event 65535.7

#### Metadata

| Field        | Value    |
|--------------|----------|
| Entrypoint   | 0x0367   |
| Data Size    | 23 bytes |
| Instructions | 5        |

```
      00 01 02 03 04 05 06 07  08 09 0A 0B 0C 0D 0E 0F
      -- -- -- -- -- -- -- --  -- -- -- -- -- -- -- --
0360:                      02  22 10 28 80 04 7D 03 1C         .".(..}..
0370: 27 80 02 22 10 28 80 04  7D 03 0B 22 10 00        '..".(..}.."..  
```

#### Opcodes

```
  0: 0x0367 [0x02] IF !(Work_Zone[34] < 3*) GOTO 0x037D
  1: 0x036F [0x1C] WAIT(30* ticks)
  2: 0x0372 [0x02] IF !(Work_Zone[34] < 3*) GOTO 0x037D
  3: 0x037A [0x0B] Work_Zone[34]++
  4: 0x037D [0x00] END_REQSTACK()
```

### Event 65535.8

#### Metadata

| Field        | Value     |
|--------------|-----------|
| Entrypoint   | 0x037E    |
| Data Size    | 183 bytes |
| Instructions | 31        |

```
      00 01 02 03 04 05 06 07  08 09 0A 0B 0C 0D 0E 0F
      -- -- -- -- -- -- -- --  -- -- -- -- -- -- -- --
0370:                                            32 29                2)
0380: 80 03 00 00 2A 80 02 00  00 0A 80 03 D8 03 07 00  ....*...........
0390: 00 2B 80 1F 00 00 00 06  80 06 80 1F 01 02 23 10  .+............#.
03A0: 2C 80 01 D5 03 03 01 00  06 80 02 01 00 06 80 00  ,...............
03B0: D5 03 13 01 00 2D 80 3E  23 10 01 00 C6 03 03 01  .....-.>#.......
03C0: 00 06 80 01 D2 03 3C 23  10 01 00 26 80 03 01 00  ......<#...&....
03D0: 26 80 01 AA 03 01 86 03  03 24 10 26 80 3B 3C 21  &........$.&.;<!
03E0: 03 01 02 00 01 00 01 00  02 02 00 2E 80 03 FA 03  ................
03F0: 03 24 10 2D 80 03 02 10  02 00 3B 3D 21 03 01 02  .$.-......;=!...
0400: 00 01 00 01 00 02 02 00  2E 80 03 17 04 03 24 10  ..............$.
0410: 2D 80 03 02 10 02 00 3B  3E 21 03 01 02 00 01 00  -......;>!......
0420: 01 00 02 02 00 2E 80 03  34 04 03 24 10 2D 80 03  ........4..$.-..
0430: 02 10 02 00 00                                    .....           
```

#### Opcodes

```
  0: 0x037E [0x32] ExtData[1]->MainSpeed = 28* * 0.1
  1: 0x0381 [0x03] ExtData[1]->WorkLocal[0] = 59000*
  2: 0x0386 [0x02] IF !(ExtData[1]->WorkLocal[0] >= 125000*) GOTO 0x03D8
  3: 0x038E [0x07] ExtData[1]->WorkLocal[0] += 11000*
  4: 0x0393 [0x1F] MOVE_ENTITY: EventEntity moves to X=ExtData[1]->WorkLocal[0], Z=0.000*, Y=0.000*
  5: 0x039B [0x1F] MOVE_ENTITY: Update entity position (mode=1)
  6: 0x039D [0x02] IF !(Work_Zone[35] == 7*) GOTO 0x03D5
  7: 0x03A5 [0x03] ExtData[1]->WorkLocal[1] = 0*
  8: 0x03AA [0x02] IF !(ExtData[1]->WorkLocal[1] == 0*) GOTO 0x03D5
  9: 0x03B2 [0x13] ExtData[1]->WorkLocal[1] = rand() % 2*
 10: 0x03B7 [0x3E] IF !(Work_Zone[35] bit ExtData[1]->WorkLocal[1]) GOTO 0x03C6
 11: 0x03BE [0x03] ExtData[1]->WorkLocal[1] = 0*
 12: 0x03C3 [0x01] GOTO 0x03D2
 13: 0x03C6 [0x3C] SET_BIT_FLAG_CONDITIONAL(target_work_offset=Work_Zone[35], bit_index_work_offset=ExtData[1]->WorkLocal[1], condition_work_offset=1*)
 14: 0x03CD [0x03] ExtData[1]->WorkLocal[1] = 1*

SUBROUTINE_03D2:
 15: 0x03D2 [0x01] GOTO 0x03AA
 16: 0x03D5 [0x01] GOTO 0x0386
 17: 0x03D8 [0x03] Work_Zone[36] = 1*
 18: 0x03DD [0x3B] GET_ENTITY_POSITION(entity=Qarimul (ID: 16982332/0x0103213C), x_destination=ExtData[1]->WorkLocal[2], y_destination=ExtData[1]->WorkLocal[1], z_destination=ExtData[1]->WorkLocal[1])
 19: 0x03E8 [0x02] IF !(ExtData[1]->WorkLocal[2] >= 120000*) GOTO 0x03FA
 20: 0x03F0 [0x03] Work_Zone[36] = 2*
 21: 0x03F5 [0x03] Work_Zone[2] = ExtData[1]->WorkLocal[2]
 22: 0x03FA [0x3B] GET_ENTITY_POSITION(entity=Warjal (ID: 16982333/0x0103213D), x_destination=ExtData[1]->WorkLocal[2], y_destination=ExtData[1]->WorkLocal[1], z_destination=ExtData[1]->WorkLocal[1])
 23: 0x0405 [0x02] IF !(ExtData[1]->WorkLocal[2] >= 120000*) GOTO 0x0417
 24: 0x040D [0x03] Work_Zone[36] = 2*
 25: 0x0412 [0x03] Work_Zone[2] = ExtData[1]->WorkLocal[2]
 26: 0x0417 [0x3B] GET_ENTITY_POSITION(entity=Zaldur (ID: 16982334/0x0103213E), x_destination=ExtData[1]->WorkLocal[2], y_destination=ExtData[1]->WorkLocal[1], z_destination=ExtData[1]->WorkLocal[1])
 27: 0x0422 [0x02] IF !(ExtData[1]->WorkLocal[2] >= 120000*) GOTO 0x0434
 28: 0x042A [0x03] Work_Zone[36] = 2*
 29: 0x042F [0x03] Work_Zone[2] = ExtData[1]->WorkLocal[2]
 30: 0x0434 [0x00] END_REQSTACK()
```

### Event 0

#### Metadata

| Field        | Value     |
|--------------|-----------|
| Entrypoint   | 0x0435    |
| Data Size    | 116 bytes |
| Instructions | 31        |

```
      00 01 02 03 04 05 06 07  08 09 0A 0B 0C 0D 0E 0F
      -- -- -- -- -- -- -- --  -- -- -- -- -- -- -- --
0430:                42 1A 23  40 46 01 38 2F 80 22 01       B.#@F.8/.".
0440: 34 30 80 77 06 80 06 80  1C 31 80 45 32 80 F8 FF  40.w.....1.E2...
0450: FF 7F F8 FF FF 7F 73 30  35 39 06 80 1C 33 80 1A  ......s059...3..
0460: 77 40 1C 34 80 2B 41 20  03 01 35 80 23 48 36 80  w@.4.+A ..5.#H6.
0470: 23 29 01 42 20 03 01 02  1C 37 80 48 38 80 23 29  #).B ....7.H8.#)
0480: 01 42 20 03 01 03 1C 34  80 1A 44 40 35 39 80 78  .B ....4..D@59.x
0490: 1C 26 80 52 32 80 F8 FF  FF 7F F8 FF FF 7F 73 30  .&.R2.........s0
04A0: 35 39 1A 77 40 46 00 21  00                       59.w@F.!.       
```

#### Opcodes

```
  0: 0x0435 [0x42] SET_CLI_EVENT_CANCEL_DATA()
  1: 0x0436 [0x1A] CALL_SUBROUTINE(address=0x4023)
  2: 0x0439 [0x46] CAMERA_CONTROL: Disable user control
  3: 0x043B [0x38] SET_CLIENT_EVENT_MODE(mode=19*)
  4: 0x043E [0x22] ENTITY_HIDE_FLAG(enabled=0x01)
  5: 0x0440 [0x34] LOAD_UNLOAD_ZONE(zone_id=559*)
  6: 0x0443 [0x77] SET_EVENT_TIME_WEATHER(hour=0*, weather=0*)
  7: 0x0448 [0x1C] WAIT(120* ticks)
  8: 0x044B [0x45] LOAD_SCHEDULED_TASK: Load scheduler "s059" with entities [EventEntity, EventEntity], work=[183*, 0*]
  9: 0x045C [0x1C] WAIT(60* ticks)
 10: 0x045F [0x1A] CALL_SUBROUTINE(address=0x4077)
 11: 0x0462 [0x1C] WAIT(300* ticks)
 12: 0x0465 [0x2B] Imperial Whitegate (ID: 16982081/0x01032041) [4596*]:
     "Welcome to the audience chamber.\u007F1\u0000\u0007"
 13: 0x046C [0x23] WAIT_FOR_DIALOG_INTERACTION
 14: 0x046D [0x48] [System] [4597*]:
     "DEBUG: Press a button to open the door.\u007F1\u0000\u0007"
 15: 0x0470 [0x23] WAIT_FOR_DIALOG_INTERACTION
 16: 0x0471 [0x29] REQ_SET_WAIT(priority=0x01, entity_id=Door (ID: 16982082/0x01032042), tag_num=0x02)
 17: 0x0478 [0x1C] WAIT(100* ticks)
 18: 0x047B [0x48] [System] [4598*]:
     "DEBUG: Press a button to close the door.\u007F1\u0000\u0007"
 19: 0x047E [0x23] WAIT_FOR_DIALOG_INTERACTION
 20: 0x047F [0x29] REQ_SET_WAIT(priority=0x01, entity_id=Door (ID: 16982082/0x01032042), tag_num=0x03)
 21: 0x0486 [0x1C] WAIT(300* ticks)
 22: 0x0489 [0x1A] CALL_SUBROUTINE(address=0x4044)
 23: 0x048C [0x35] LOAD_ZONE_NO_CLOSE(zone_id=50*)
 24: 0x048F [0x78] ENABLE_GAME_TIMER_RESET_WEATHER()
 25: 0x0490 [0x1C] WAIT(1* ticks)
 26: 0x0493 [0x52] END_LOAD_SCHEDULER: End scheduler "s059" with entities [EventEntity, EventEntity], work=183*
 27: 0x04A2 [0x1A] CALL_SUBROUTINE(address=0x4077)
 28: 0x04A5 [0x46] CAMERA_CONTROL: Restore default settings
 29: 0x04A7 [0x21] END_EVENT
 30: 0x04A8 [0x00] END_REQSTACK()
```

### Event 65535.9

#### Metadata

| Field        | Value    |
|--------------|----------|
| Entrypoint   | 0x04A9   |
| Data Size    | 87 bytes |
| Instructions | 18       |

```
      00 01 02 03 04 05 06 07  08 09 0A 0B 0C 0D 0E 0F
      -- -- -- -- -- -- -- --  -- -- -- -- -- -- -- --
04A0:                             33 01 32 0D 80 29 80           3.2..).
04B0: 2D 20 03 01 02 29 80 15  20 03 01 04 02 80 7F 3A  - ...).. ......:
04C0: 80 03 CE 04 1F 00 3B 80  82 7F 81 7F 1F 01 1F 00  ......;.........
04D0: 3B 80 3C 80 06 80 1F 01  1F 00 3B 80 3D 80 06 80  ;.<.......;.=...
04E0: 1F 01 6F 33 00 47 00 3B  80 3D 80 06 80 03 7F 47  ..o3.G.;.=.....G
04F0: 01 29 80 15 20 03 01 05  29 80 2D 20 03 01 03 00  .).. ...).- ....
```

#### Opcodes

```
  0: 0x04A9 [0x33] EventEntity->Render.Flags0 |= 0x200000 // Bit 21 (flag=0x01)
  1: 0x04AB [0x32] ExtData[1]->MainSpeed = 13* * 0.1
  2: 0x04AE [0x29] REQ_SET_WAIT(priority=0x80, entity_id=Door_1eb (ID: 16982061/0x0103202D), tag_num=0x02)
  3: 0x04B5 [0x29] REQ_SET_WAIT(priority=0x80, entity_id=Esoteric Hound (ID: 16982037/0x01032015), tag_num=0x04)
  4: 0x04BC [0x02] IF !(LocalPlayer->LocalPosition.LocalX * 1000.0 >= 4294964696*) GOTO 0x04CE
  5: 0x04C4 [0x1F] MOVE_ENTITY: EventEntity moves to X=-0.269*, Z=LocalPlayer->LocalPosition.LocalY * 1000.0, Y=LocalPlayer->LocalPosition.LocalZ * 1000.0
  6: 0x04CC [0x1F] MOVE_ENTITY: Update entity position (mode=1)
  7: 0x04CE [0x1F] MOVE_ENTITY: EventEntity moves to X=-0.269*, Z=-103.373*, Y=0.000*
  8: 0x04D6 [0x1F] MOVE_ENTITY: Update entity position (mode=1)
  9: 0x04D8 [0x1F] MOVE_ENTITY: EventEntity moves to X=-0.269*, Z=-108.252*, Y=0.000*
 10: 0x04E0 [0x1F] MOVE_ENTITY: Update entity position (mode=1)
 11: 0x04E2 [0x6F] WAIT_FRAME_DELAY: Yield until WaitTime reaches zero
 12: 0x04E3 [0x33] EventEntity->Render.Flags0 &= ~ 0x200000 // Bit 21 (flag=0x00)
 13: 0x04E5 [0x47] UPDATE_PLAYER_POS(-0.269*, -108.252*, 0.000*, yaw=enDirCli(ExtData[1]->EventDir[1]) * 4096.0 * 0.15915963)
 14: 0x04EF [0x47] WAIT_PLAYER_POS_UPDATE
 15: 0x04F1 [0x29] REQ_SET_WAIT(priority=0x80, entity_id=Esoteric Hound (ID: 16982037/0x01032015), tag_num=0x05)
 16: 0x04F8 [0x29] REQ_SET_WAIT(priority=0x80, entity_id=Door_1eb (ID: 16982061/0x0103202D), tag_num=0x03)
 17: 0x04FF [0x00] END_REQSTACK()
```

### Event 65535.10

#### Metadata

| Field        | Value    |
|--------------|----------|
| Entrypoint   | 0x0500   |
| Data Size    | 87 bytes |
| Instructions | 18       |

```
      00 01 02 03 04 05 06 07  08 09 0A 0B 0C 0D 0E 0F
      -- -- -- -- -- -- -- --  -- -- -- -- -- -- -- --
0500: 33 01 32 0D 80 29 80 2E  20 03 01 02 29 80 14 20  3.2..).. ...).. 
0510: 03 01 04 02 80 7F 3E 80  02 25 05 1F 00 3F 80 82  ......>..%...?..
0520: 7F 81 7F 1F 01 1F 00 3F  80 40 80 06 80 1F 01 1F  .......?.@......
0530: 00 3F 80 41 80 06 80 1F  01 6F 33 00 47 00 3F 80  .?.A.....o3.G.?.
0540: 41 80 06 80 03 7F 47 01  29 80 14 20 03 01 05 29  A.....G.).. ...)
0550: 80 2E 20 03 01 03 00                              .. ....         
```

#### Opcodes

```
  0: 0x0500 [0x33] EventEntity->Render.Flags0 |= 0x200000 // Bit 21 (flag=0x01)
  1: 0x0502 [0x32] ExtData[1]->MainSpeed = 13* * 0.1
  2: 0x0505 [0x29] REQ_SET_WAIT(priority=0x80, entity_id=Door_1ea (ID: 16982062/0x0103202E), tag_num=0x02)
  3: 0x050C [0x29] REQ_SET_WAIT(priority=0x80, entity_id=Burnished Bones (ID: 16982036/0x01032014), tag_num=0x04)
  4: 0x0513 [0x02] IF !(LocalPlayer->LocalPosition.LocalX * 1000.0 <= 4294949996*) GOTO 0x0525
  5: 0x051B [0x1F] MOVE_ENTITY: EventEntity moves to X=-19.844*, Z=LocalPlayer->LocalPosition.LocalY * 1000.0, Y=LocalPlayer->LocalPosition.LocalZ * 1000.0
  6: 0x0523 [0x1F] MOVE_ENTITY: Update entity position (mode=1)
  7: 0x0525 [0x1F] MOVE_ENTITY: EventEntity moves to X=-19.844*, Z=-96.523*, Y=0.000*
  8: 0x052D [0x1F] MOVE_ENTITY: Update entity position (mode=1)
  9: 0x052F [0x1F] MOVE_ENTITY: EventEntity moves to X=-19.844*, Z=-92.742*, Y=0.000*
 10: 0x0537 [0x1F] MOVE_ENTITY: Update entity position (mode=1)
 11: 0x0539 [0x6F] WAIT_FRAME_DELAY: Yield until WaitTime reaches zero
 12: 0x053A [0x33] EventEntity->Render.Flags0 &= ~ 0x200000 // Bit 21 (flag=0x00)
 13: 0x053C [0x47] UPDATE_PLAYER_POS(-19.844*, -92.742*, 0.000*, yaw=enDirCli(ExtData[1]->EventDir[1]) * 4096.0 * 0.15915963)
 14: 0x0546 [0x47] WAIT_PLAYER_POS_UPDATE
 15: 0x0548 [0x29] REQ_SET_WAIT(priority=0x80, entity_id=Burnished Bones (ID: 16982036/0x01032014), tag_num=0x05)
 16: 0x054F [0x29] REQ_SET_WAIT(priority=0x80, entity_id=Door_1ea (ID: 16982062/0x0103202E), tag_num=0x03)
 17: 0x0556 [0x00] END_REQSTACK()
```

### Event 65535.11

#### Metadata

| Field        | Value    |
|--------------|----------|
| Entrypoint   | 0x0557   |
| Data Size    | 87 bytes |
| Instructions | 18       |

```
      00 01 02 03 04 05 06 07  08 09 0A 0B 0C 0D 0E 0F
      -- -- -- -- -- -- -- --  -- -- -- -- -- -- -- --
0550:                      33  01 32 0D 80 29 80 2F 20         3.2..)./ 
0560: 03 01 02 29 80 17 20 03  01 04 02 80 7F 42 80 02  ...).. ......B..
0570: 7C 05 1F 00 43 80 82 7F  81 7F 1F 01 1F 00 43 80  |...C.........C.
0580: 44 80 06 80 1F 01 1F 00  43 80 45 80 06 80 1F 01  D.......C.E.....
0590: 6F 33 00 47 00 43 80 45  80 06 80 03 7F 47 01 29  o3.G.C.E.....G.)
05A0: 80 17 20 03 01 05 29 80  2F 20 03 01 03 00        .. ...)./ ....  
```

#### Opcodes

```
  0: 0x0557 [0x33] EventEntity->Render.Flags0 |= 0x200000 // Bit 21 (flag=0x01)
  1: 0x0559 [0x32] ExtData[1]->MainSpeed = 13* * 0.1
  2: 0x055C [0x29] REQ_SET_WAIT(priority=0x80, entity_id=Door_1ec (ID: 16982063/0x0103202F), tag_num=0x02)
  3: 0x0563 [0x29] REQ_SET_WAIT(priority=0x80, entity_id=Somnolent Rooster (ID: 16982039/0x01032017), tag_num=0x04)
  4: 0x056A [0x02] IF !(LocalPlayer->LocalPosition.LocalX * 1000.0 <= 2700*) GOTO 0x057C
  5: 0x0572 [0x1F] MOVE_ENTITY: EventEntity moves to X=0.265*, Z=LocalPlayer->LocalPosition.LocalY * 1000.0, Y=LocalPlayer->LocalPosition.LocalZ * 1000.0
  6: 0x057A [0x1F] MOVE_ENTITY: Update entity position (mode=1)
  7: 0x057C [0x1F] MOVE_ENTITY: EventEntity moves to X=0.265*, Z=103.514*, Y=0.000*
  8: 0x0584 [0x1F] MOVE_ENTITY: Update entity position (mode=1)
  9: 0x0586 [0x1F] MOVE_ENTITY: EventEntity moves to X=0.265*, Z=107.995*, Y=0.000*
 10: 0x058E [0x1F] MOVE_ENTITY: Update entity position (mode=1)
 11: 0x0590 [0x6F] WAIT_FRAME_DELAY: Yield until WaitTime reaches zero
 12: 0x0591 [0x33] EventEntity->Render.Flags0 &= ~ 0x200000 // Bit 21 (flag=0x00)
 13: 0x0593 [0x47] UPDATE_PLAYER_POS(0.265*, 107.995*, 0.000*, yaw=enDirCli(ExtData[1]->EventDir[1]) * 4096.0 * 0.15915963)
 14: 0x059D [0x47] WAIT_PLAYER_POS_UPDATE
 15: 0x059F [0x29] REQ_SET_WAIT(priority=0x80, entity_id=Somnolent Rooster (ID: 16982039/0x01032017), tag_num=0x05)
 16: 0x05A6 [0x29] REQ_SET_WAIT(priority=0x80, entity_id=Door_1ec (ID: 16982063/0x0103202F), tag_num=0x03)
 17: 0x05AD [0x00] END_REQSTACK()
```

### Event 65535.12

#### Metadata

| Field        | Value    |
|--------------|----------|
| Entrypoint   | 0x05AE   |
| Data Size    | 87 bytes |
| Instructions | 18       |

```
      00 01 02 03 04 05 06 07  08 09 0A 0B 0C 0D 0E 0F
      -- -- -- -- -- -- -- --  -- -- -- -- -- -- -- --
05A0:                                            33 01                3.
05B0: 32 0D 80 29 80 30 20 03  01 02 29 80 16 20 03 01  2..).0 ...).. ..
05C0: 04 02 80 7F 46 80 03 D3  05 1F 00 47 80 82 7F 81  ....F......G....
05D0: 7F 1F 01 1F 00 47 80 48  80 06 80 1F 01 1F 00 47  .....G.H.......G
05E0: 80 49 80 06 80 1F 01 6F  33 00 47 00 47 80 49 80  .I.....o3.G.G.I.
05F0: 06 80 03 7F 47 01 29 80  16 20 03 01 05 29 80 30  ....G.).. ...).0
0600: 20 03 01 03 00                                     ....           
```

#### Opcodes

```
  0: 0x05AE [0x33] EventEntity->Render.Flags0 |= 0x200000 // Bit 21 (flag=0x01)
  1: 0x05B0 [0x32] ExtData[1]->MainSpeed = 13* * 0.1
  2: 0x05B3 [0x29] REQ_SET_WAIT(priority=0x80, entity_id=Door_1ed (ID: 16982064/0x01032030), tag_num=0x02)
  3: 0x05BA [0x29] REQ_SET_WAIT(priority=0x80, entity_id=Furious Boulder (ID: 16982038/0x01032016), tag_num=0x04)
  4: 0x05C1 [0x02] IF !(LocalPlayer->LocalPosition.LocalX * 1000.0 >= 17400*) GOTO 0x05D3
  5: 0x05C9 [0x1F] MOVE_ENTITY: EventEntity moves to X=19.882*, Z=LocalPlayer->LocalPosition.LocalY * 1000.0, Y=LocalPlayer->LocalPosition.LocalZ * 1000.0
  6: 0x05D1 [0x1F] MOVE_ENTITY: Update entity position (mode=1)
  7: 0x05D3 [0x1F] MOVE_ENTITY: EventEntity moves to X=19.882*, Z=96.549*, Y=0.000*
  8: 0x05DB [0x1F] MOVE_ENTITY: Update entity position (mode=1)
  9: 0x05DD [0x1F] MOVE_ENTITY: EventEntity moves to X=19.882*, Z=92.824*, Y=0.000*
 10: 0x05E5 [0x1F] MOVE_ENTITY: Update entity position (mode=1)
 11: 0x05E7 [0x6F] WAIT_FRAME_DELAY: Yield until WaitTime reaches zero
 12: 0x05E8 [0x33] EventEntity->Render.Flags0 &= ~ 0x200000 // Bit 21 (flag=0x00)
 13: 0x05EA [0x47] UPDATE_PLAYER_POS(19.882*, 92.824*, 0.000*, yaw=enDirCli(ExtData[1]->EventDir[1]) * 4096.0 * 0.15915963)
 14: 0x05F4 [0x47] WAIT_PLAYER_POS_UPDATE
 15: 0x05F6 [0x29] REQ_SET_WAIT(priority=0x80, entity_id=Furious Boulder (ID: 16982038/0x01032016), tag_num=0x05)
 16: 0x05FD [0x29] REQ_SET_WAIT(priority=0x80, entity_id=Door_1ed (ID: 16982064/0x01032030), tag_num=0x03)
 17: 0x0604 [0x00] END_REQSTACK()
```

### Event 65535.13

#### Metadata

| Field        | Value    |
|--------------|----------|
| Entrypoint   | 0x0605   |
| Data Size    | 37 bytes |
| Instructions | 5        |

```
      00 01 02 03 04 05 06 07  08 09 0A 0B 0C 0D 0E 0F
      -- -- -- -- -- -- -- --  -- -- -- -- -- -- -- --
0600:                03 03 00  07 7F 1A 99 06 66 04 00       ........f..
0610: F8 FF FF 7F F8 FF FF 7F  73 68 61 30 53 F8 FF FF  ........sha0S...
0620: 7F F8 FF FF 7F 73 68 61  30 00                    .....sha0.      
```

#### Opcodes

```
  0: 0x0605 [0x03] ExtData[1]->WorkLocal[3] = Entity->Race
  1: 0x060A [0x1A] CALL_SUBROUTINE(address=0x0699)
  2: 0x060D [0x66] LOAD_EXT_SCHEDULER_MAIN: Load scheduler "sha0" with entities [EventEntity, EventEntity], work=ExtData[1]->WorkLocal[4]
  3: 0x061C [0x53] WAIT_SCHEDULER_TASK: Wait for scheduler "sha0" with entities [EventEntity, EventEntity]
  4: 0x0629 [0x00] END_REQSTACK()
```

### Event 65535.14

#### Metadata

| Field        | Value    |
|--------------|----------|
| Entrypoint   | 0x062A   |
| Data Size    | 37 bytes |
| Instructions | 5        |

```
      00 01 02 03 04 05 06 07  08 09 0A 0B 0C 0D 0E 0F
      -- -- -- -- -- -- -- --  -- -- -- -- -- -- -- --
0620:                                03 03 00 07 7F 1A            ......
0630: 99 06 66 04 00 F8 FF FF  7F F8 FF FF 7F 73 68 61  ..f..........sha
0640: 31 53 F8 FF FF 7F F8 FF  FF 7F 73 68 61 31 00     1S........sha1. 
```

#### Opcodes

```
  0: 0x062A [0x03] ExtData[1]->WorkLocal[3] = Entity->Race
  1: 0x062F [0x1A] CALL_SUBROUTINE(address=0x0699)
  2: 0x0632 [0x66] LOAD_EXT_SCHEDULER_MAIN: Load scheduler "sha1" with entities [EventEntity, EventEntity], work=ExtData[1]->WorkLocal[4]
  3: 0x0641 [0x53] WAIT_SCHEDULER_TASK: Wait for scheduler "sha1" with entities [EventEntity, EventEntity]
  4: 0x064E [0x00] END_REQSTACK()
```

### Event 65535.15

#### Metadata

| Field        | Value    |
|--------------|----------|
| Entrypoint   | 0x064F   |
| Data Size    | 37 bytes |
| Instructions | 5        |

```
      00 01 02 03 04 05 06 07  08 09 0A 0B 0C 0D 0E 0F
      -- -- -- -- -- -- -- --  -- -- -- -- -- -- -- --
0640:                                               03                 .
0650: 03 00 07 7F 1A 99 06 66  04 00 F8 FF FF 7F F8 FF  .......f........
0660: FF 7F 73 69 74 30 53 F8  FF FF 7F F8 FF FF 7F 73  ..sit0S........s
0670: 68 61 30 00                                       ha0.            
```

#### Opcodes

```
  0: 0x064F [0x03] ExtData[1]->WorkLocal[3] = Entity->Race
  1: 0x0654 [0x1A] CALL_SUBROUTINE(address=0x0699)
  2: 0x0657 [0x66] LOAD_EXT_SCHEDULER_MAIN: Load scheduler "sit0" with entities [EventEntity, EventEntity], work=ExtData[1]->WorkLocal[4]
  3: 0x0666 [0x53] WAIT_SCHEDULER_TASK: Wait for scheduler "sha0" with entities [EventEntity, EventEntity]
  4: 0x0673 [0x00] END_REQSTACK()
```

### Event 65535.16

#### Metadata

| Field        | Value     |
|--------------|-----------|
| Entrypoint   | 0x0674    |
| Data Size    | 185 bytes |
| Instructions | 13        |

```
      00 01 02 03 04 05 06 07  08 09 0A 0B 0C 0D 0E 0F
      -- -- -- -- -- -- -- --  -- -- -- -- -- -- -- --
0670:             03 03 00 07  7F 1A 99 06 66 04 00 F8      ........f...
0680: FF FF 7F F8 FF FF 7F 73  69 74 31 53 F8 FF FF 7F  .......sit1S....
0690: F8 FF FF 7F 73 68 61 30  00 03 04 00 03 00 02 04  ....sha0........
06A0: 00 4A 80 05 AE 06 08 04  00 26 80 01 B3 06 08 04  .J.......&......
06B0: 00 2D 80 14 04 00 4B 80  07 04 00 4C 80 1B 03 04  .-....K....L....
06C0: 00 03 00 02 04 00 4A 80  05 D3 06 08 04 00 26 80  ......J.......&.
06D0: 01 D8 06 08 04 00 2D 80  14 04 00 4B 80 07 04 00  ......-....K....
06E0: 4D 80 1B 03 04 00 03 00  02 04 00 4A 80 05 F8 06  M..........J....
06F0: 08 04 00 26 80 01 FD 06  08 04 00 2D 80 14 04 00  ...&.......-....
0700: 4B 80 07 04 00 09 80 1B  03 04 00 03 00 02 04 00  K...............
0710: 4A 80 05 1D 07 08 04 00  26 80 01 22 07 08 04 00  J.......&.."....
0720: 2D 80 14 04 00 4B 80 07  04 00 4E 80 1B           -....K....N..   
```

#### Opcodes

```
  0: 0x0674 [0x03] ExtData[1]->WorkLocal[3] = Entity->Race
  1: 0x0679 [0x1A] CALL_SUBROUTINE(address=0x0699)
  2: 0x067C [0x66] LOAD_EXT_SCHEDULER_MAIN: Load scheduler "sit1" with entities [EventEntity, EventEntity], work=ExtData[1]->WorkLocal[4]
  3: 0x068B [0x53] WAIT_SCHEDULER_TASK: Wait for scheduler "sha0" with entities [EventEntity, EventEntity]
  4: 0x0698 [0x00] END_REQSTACK()

SUBROUTINE_0699:
  5: 0x0699 [0x03] ExtData[1]->WorkLocal[4] = ExtData[1]->WorkLocal[3]
  6: 0x069E [0x02] IF !(ExtData[1]->WorkLocal[4] > 5*) GOTO 0x06AE
  7: 0x06A6 [0x08] ExtData[1]->WorkLocal[4] -= 1*
  8: 0x06AB [0x01] GOTO 0x06B3
  9: 0x06AE [0x08] ExtData[1]->WorkLocal[4] -= 2*

SUBROUTINE_06B3:
 10: 0x06B3 [0x14] ExtData[1]->WorkLocal[4] *= 10*
 11: 0x06B8 [0x07] ExtData[1]->WorkLocal[4] += 9*
 12: 0x06BD [0x1B] RETURN
```

#### Data or dead code:

```
# Dead code (unreachable instructions):
     0x06BE [0x03] ExtData[1]->WorkLocal[4] = ExtData[1]->WorkLocal[3]
     0x06C3 [0x02] IF !(ExtData[1]->WorkLocal[4] > 5*) GOTO 0x06D3
     0x06CB [0x08] ExtData[1]->WorkLocal[4] -= 1*
     0x06D0 [0x01] GOTO 0x06D8
     0x06D3 [0x08] ExtData[1]->WorkLocal[4] -= 2*
     0x06D8 [0x14] ExtData[1]->WorkLocal[4] *= 10*
     0x06DD [0x07] ExtData[1]->WorkLocal[4] += 70*
     0x06E2 [0x1B] RETURN
     0x06E3 [0x03] ExtData[1]->WorkLocal[4] = ExtData[1]->WorkLocal[3]
     0x06E8 [0x02] IF !(ExtData[1]->WorkLocal[4] > 5*) GOTO 0x06F8
     0x06F0 [0x08] ExtData[1]->WorkLocal[4] -= 1*
     0x06F5 [0x01] GOTO 0x06FD
     0x06F8 [0x08] ExtData[1]->WorkLocal[4] -= 2*
     0x06FD [0x14] ExtData[1]->WorkLocal[4] *= 10*
     0x0702 [0x07] ExtData[1]->WorkLocal[4] += 140*
     0x0707 [0x1B] RETURN
     0x0708 [0x03] ExtData[1]->WorkLocal[4] = ExtData[1]->WorkLocal[3]
     0x070D [0x02] IF !(ExtData[1]->WorkLocal[4] > 5*) GOTO 0x071D
     0x0715 [0x08] ExtData[1]->WorkLocal[4] -= 1*
     0x071A [0x01] GOTO 0x0722
     0x071D [0x08] ExtData[1]->WorkLocal[4] -= 2*
     0x0722 [0x14] ExtData[1]->WorkLocal[4] *= 10*
     0x0727 [0x07] ExtData[1]->WorkLocal[4] += 210*
     0x072C [0x1B] RETURN
```

### Event 65535.17

#### Metadata

| Field        | Value   |
|--------------|---------|
| Entrypoint   | 0x072D  |
| Data Size    | 6 bytes |
| Instructions | 2       |

```
      00 01 02 03 04 05 06 07  08 09 0A 0B 0C 0D 0E 0F
      -- -- -- -- -- -- -- --  -- -- -- -- -- -- -- --
0720:                                         03 02 10               ...
0730: 07 7F 00                                          ...             
```

#### Opcodes

```
  0: 0x072D [0x03] Work_Zone[2] = Entity->Race
  1: 0x0732 [0x00] END_REQSTACK()
```

### Event 65535.18

#### Metadata

| Field        | Value   |
|--------------|---------|
| Entrypoint   | 0x0733  |
| Data Size    | 6 bytes |
| Instructions | 2       |

```
      00 01 02 03 04 05 06 07  08 09 0A 0B 0C 0D 0E 0F
      -- -- -- -- -- -- -- --  -- -- -- -- -- -- -- --
0730:          03 02 10 0B 7F  00                          ......       
```

#### Opcodes

```
  0: 0x0733 [0x03] Work_Zone[2] = (Entity->Render.Flags01 >> 25) & 1
  1: 0x0738 [0x00] END_REQSTACK()
```

### Event 65535.19

#### Metadata

| Field        | Value    |
|--------------|----------|
| Entrypoint   | 0x0739   |
| Data Size    | 10 bytes |
| Instructions | 2        |

```
      00 01 02 03 04 05 06 07  08 09 0A 0B 0C 0D 0E 0F
      -- -- -- -- -- -- -- --  -- -- -- -- -- -- -- --
0730:                             37 4F 80 50 80 06 80           7O.P...
0740: 51 80 00                                          Q..             
```

#### Opcodes

```
  0: 0x0739 [0x37] UPDATE_EVENT_POSITION_AND_DIR: x=-0.067*, z=47.387*, y=0.000*, direction=270.5*
  1: 0x0742 [0x00] END_REQSTACK()
```

### Event 65535.20

#### Metadata

| Field        | Value    |
|--------------|----------|
| Entrypoint   | 0x0743   |
| Data Size    | 10 bytes |
| Instructions | 2        |

```
      00 01 02 03 04 05 06 07  08 09 0A 0B 0C 0D 0E 0F
      -- -- -- -- -- -- -- --  -- -- -- -- -- -- -- --
0740:          37 52 80 53 80  06 80 54 80 00              7R.S...T..   
```

#### Opcodes

```
  0: 0x0743 [0x37] UPDATE_EVENT_POSITION_AND_DIR: x=0.036*, z=-23.023*, y=0.000*, direction=277.4*
  1: 0x074C [0x00] END_REQSTACK()
```

### Event 65535.21

#### Metadata

| Field        | Value    |
|--------------|----------|
| Entrypoint   | 0x074D   |
| Data Size    | 10 bytes |
| Instructions | 2        |

```
      00 01 02 03 04 05 06 07  08 09 0A 0B 0C 0D 0E 0F
      -- -- -- -- -- -- -- --  -- -- -- -- -- -- -- --
0740:                                         37 55 80               7U.
0750: 56 80 06 80 57 80 00                              V...W..         
```

#### Opcodes

```
  0: 0x074D [0x37] UPDATE_EVENT_POSITION_AND_DIR: x=-74.743*, z=-5.081*, y=0.000*, direction=27.8*
  1: 0x0756 [0x00] END_REQSTACK()
```

### Event 65535.22

#### Metadata

| Field        | Value    |
|--------------|----------|
| Entrypoint   | 0x0757   |
| Data Size    | 10 bytes |
| Instructions | 2        |

```
      00 01 02 03 04 05 06 07  08 09 0A 0B 0C 0D 0E 0F
      -- -- -- -- -- -- -- --  -- -- -- -- -- -- -- --
0750:                      37  58 80 59 80 06 80 5A 80         7X.Y...Z.
0760: 00                                                .               
```

#### Opcodes

```
  0: 0x0757 [0x37] UPDATE_EVENT_POSITION_AND_DIR: x=-1.402*, z=-75.884*, y=0.000*, direction=19.9*
  1: 0x0760 [0x00] END_REQSTACK()
```

### Event 65535.23

#### Metadata

| Field        | Value    |
|--------------|----------|
| Entrypoint   | 0x0761   |
| Data Size    | 10 bytes |
| Instructions | 2        |

```
      00 01 02 03 04 05 06 07  08 09 0A 0B 0C 0D 0E 0F
      -- -- -- -- -- -- -- --  -- -- -- -- -- -- -- --
0760:    37 5B 80 5C 80 06 80  5D 80 00                  7[.\...]..     
```

#### Opcodes

```
  0: 0x0761 [0x37] UPDATE_EVENT_POSITION_AND_DIR: x=-0.095*, z=-29.704*, y=0.000*, direction=293.6*
  1: 0x076A [0x00] END_REQSTACK()
```

### Event 65535.24

#### Metadata

| Field        | Value    |
|--------------|----------|
| Entrypoint   | 0x076B   |
| Data Size    | 16 bytes |
| Instructions | 4        |

```
      00 01 02 03 04 05 06 07  08 09 0A 0B 0C 0D 0E 0F
      -- -- -- -- -- -- -- --  -- -- -- -- -- -- -- --
0760:                                   1C 27 80 6E F8             .'.n.
0770: FF FF 7F 5E 80 99 F8 FF  FF 7F 00                 ...^.......     
```

#### Opcodes

```
  0: 0x076B [0x1C] WAIT(30* ticks)
  1: 0x076E [0x6E] EventEntity uses emote 21*
  2: 0x0775 [0x99] Wait for EventEntity animation to complete
  3: 0x077A [0x00] END_REQSTACK()
```

### Event 65535.25

#### Metadata

| Field        | Value    |
|--------------|----------|
| Entrypoint   | 0x077B   |
| Data Size    | 10 bytes |
| Instructions | 2        |

```
      00 01 02 03 04 05 06 07  08 09 0A 0B 0C 0D 0E 0F
      -- -- -- -- -- -- -- --  -- -- -- -- -- -- -- --
0770:                                   37 5F 80 60 80             7_.`.
0780: 1D 80 61 80 00                                    ..a..           
```

#### Opcodes

```
  0: 0x077B [0x37] UPDATE_EVENT_POSITION_AND_DIR: x=67.147*, z=-76.643*, y=-5.999*, direction=130.6*
  1: 0x0784 [0x00] END_REQSTACK()
```

### Event 65535.26

#### Metadata

| Field        | Value    |
|--------------|----------|
| Entrypoint   | 0x0785   |
| Data Size    | 10 bytes |
| Instructions | 2        |

```
      00 01 02 03 04 05 06 07  08 09 0A 0B 0C 0D 0E 0F
      -- -- -- -- -- -- -- --  -- -- -- -- -- -- -- --
0780:                37 62 80  63 80 64 80 03 80 00          7b.c.d.... 
```

#### Opcodes

```
  0: 0x0785 [0x37] UPDATE_EVENT_POSITION_AND_DIR: x=19.935*, z=1.992*, y=-24.000*, direction=270.0*
  1: 0x078E [0x00] END_REQSTACK()
```

### Event 65535.27

#### Metadata

| Field        | Value    |
|--------------|----------|
| Entrypoint   | 0x078F   |
| Data Size    | 10 bytes |
| Instructions | 2        |

```
      00 01 02 03 04 05 06 07  08 09 0A 0B 0C 0D 0E 0F
      -- -- -- -- -- -- -- --  -- -- -- -- -- -- -- --
0780:                                               37                 7
0790: 65 80 66 80 67 80 68 80  00                       e.f.g.h..       
```

#### Opcodes

```
  0: 0x078F [0x37] UPDATE_EVENT_POSITION_AND_DIR: x=26.941*, z=-45.721*, y=-7.804*, direction=179.9*
  1: 0x0798 [0x00] END_REQSTACK()
```

### Event 65535.28

#### Metadata

| Field        | Value    |
|--------------|----------|
