# Event 211

## Metadata

| Field           | Value    |
|-----------------|----------|
| Event Index     | 50/144   |
| Offset          | 0x0424   |
| Data Size       | 46 bytes |
| Calculated Size | 46 bytes |
| Instructions    | 12       |

```
      00 01 02 03 04 05 06 07  08 09 0A 0B 0C 0D 0E 0F
      -- -- -- -- -- -- -- --  -- -- -- -- -- -- -- --
0420:             42 20 01 1E  F0 FF FF 7F 6F 70 29 0B      B ......op).
0430: 21 F0 0E 01 32 29 0B 21  F0 0E 01 33 45 1B 80 F0  !...2).!...3E...
0440: FF FF 7F F0 FF FF 7F 71  73 74 63 0F 80 2E 20 00  .......qstc... .
0450: 21 00                                             !.              
```

## Opcodes

```
  0: 0x0424 [0x42] SET_CLI_EVENT_CANCEL_DATA()
  1: 0x0425 [0x20] SET_CLI_EVENT_UC_FLAG: Lock player control
  2: 0x0427 [0x1E] EventEntity looks at LocalPlayer and starts talking
  3: 0x042C [0x6F] WAIT_FRAME_DELAY: Yield until WaitTime reaches zero
  4: 0x042D [0x70] WAIT_ENTITY_RENDER_FLAG: Wait while EventEntity->Render.Flags3 bit 2 is set (cancel turn if not)
  5: 0x042E [0x29] REQ_SET_WAIT(priority=0x0B, entity_id=Koru-Moru (ID: 17756193/0x010EF021), tag_num=0x32)
  6: 0x0435 [0x29] REQ_SET_WAIT(priority=0x0B, entity_id=Koru-Moru (ID: 17756193/0x010EF021), tag_num=0x33)
  7: 0x043C [0x45] LOAD_SCHEDULED_TASK(work_offset1=201*, entity1=LocalPlayer, entity2=LocalPlayer, scheduler_id="qstc", work_offset2=0*)
  8: 0x044D [0x2E] SET_CLI_EVENT_CANCEL_FLAGS()
  9: 0x044E [0x20] SET_CLI_EVENT_UC_FLAG: Unlock player control
 10: 0x0450 [0x21] END_EVENT
 11: 0x0451 [0x00] END_REQSTACK()
```
