# Event 224

## Metadata

| Field           | Value    |
|-----------------|----------|
| Event Index     | 62/144   |
| Offset          | 0x05C2   |
| Data Size       | 62 bytes |
| Calculated Size | 62 bytes |
| Instructions    | 14       |

```
      00 01 02 03 04 05 06 07  08 09 0A 0B 0C 0D 0E 0F
      -- -- -- -- -- -- -- --  -- -- -- -- -- -- -- --
05C0:       20 01 42 1E F0 FF  FF 7F 6F 70 29 0B 21 F0     .B.....op).!.
05D0: 0E 01 3E 29 0B 21 F0 0E  01 3F 4B 21 F0 0E 01 2E  ..>).!...?K!....
05E0: 80 1C 01 80 29 0B 21 F0  0E 01 40 45 1B 80 F0 FF  ....).!...@E....
05F0: FF 7F F0 FF FF 7F 71 73  74 63 0F 80 20 00 21 00  ......qstc.. .!.
```

## Opcodes

```
  0: 0x05C2 [0x20] SET_CLI_EVENT_UC_FLAG: Lock player control
  1: 0x05C4 [0x42] SET_CLI_EVENT_CANCEL_DATA()
  2: 0x05C5 [0x1E] EventEntity looks at LocalPlayer and starts talking
  3: 0x05CA [0x6F] WAIT_FRAME_DELAY: Yield until WaitTime reaches zero
  4: 0x05CB [0x70] WAIT_ENTITY_RENDER_FLAG: Wait while EventEntity->Render.Flags3 bit 2 is set (cancel turn if not)
  5: 0x05CC [0x29] REQ_SET_WAIT(priority=0x0B, entity_id=Koru-Moru (ID: 17756193/0x010EF021), tag_num=0x3E)
  6: 0x05D3 [0x29] REQ_SET_WAIT(priority=0x0B, entity_id=Koru-Moru (ID: 17756193/0x010EF021), tag_num=0x3F)
  7: 0x05DA [0x4B] UPDATE_ENTITY_YAW(entity=Koru-Moru (ID: 17756193/0x010EF021), yaw=0.7°*)
  8: 0x05E1 [0x1C] WAIT(30* ticks)
  9: 0x05E4 [0x29] REQ_SET_WAIT(priority=0x0B, entity_id=Koru-Moru (ID: 17756193/0x010EF021), tag_num=0x40)
 10: 0x05EB [0x45] LOAD_SCHEDULED_TASK: Load scheduler "qstc" with entities [LocalPlayer, LocalPlayer], work=[201*, 0*]
 11: 0x05FC [0x20] SET_CLI_EVENT_UC_FLAG: Unlock player control
 12: 0x05FE [0x21] END_EVENT
 13: 0x05FF [0x00] END_REQSTACK()
```
