# Event 285

## Metadata

| Field           | Value    |
|-----------------|----------|
| Event Index     | 69/144   |
| Offset          | 0x06A6   |
| Data Size       | 50 bytes |
| Calculated Size | 50 bytes |
| Instructions    | 13       |

```
      00 01 02 03 04 05 06 07  08 09 0A 0B 0C 0D 0E 0F
      -- -- -- -- -- -- -- --  -- -- -- -- -- -- -- --
06A0:                   42 1E  F0 FF FF 7F 6F 70 29 0B        B.....op).
06B0: 21 F0 0E 01 45 29 0B 21  F0 0E 01 46 29 0B 21 F0  !...E).!...F).!.
06C0: 0E 01 47 1C 36 80 29 0B  21 F0 0E 01 48 29 0B 21  ..G.6.).!...H).!
06D0: F0 0E 01 49 20 00 21 00                           ...I .!.        
```

## Opcodes

```
  0: 0x06A6 [0x42] SET_CLI_EVENT_CANCEL_DATA()
  1: 0x06A7 [0x1E] EventEntity looks at LocalPlayer and starts talking
  2: 0x06AC [0x6F] WAIT_FRAME_DELAY: Yield until WaitTime reaches zero
  3: 0x06AD [0x70] WAIT_ENTITY_RENDER_FLAG: Wait while EventEntity->Render.Flags3 bit 2 is set (cancel turn if not)
  4: 0x06AE [0x29] REQ_SET_WAIT(priority=0x0B, entity_id=Koru-Moru (ID: 17756193/0x010EF021), tag_num=0x45)
  5: 0x06B5 [0x29] REQ_SET_WAIT(priority=0x0B, entity_id=Koru-Moru (ID: 17756193/0x010EF021), tag_num=0x46)
  6: 0x06BC [0x29] REQ_SET_WAIT(priority=0x0B, entity_id=Koru-Moru (ID: 17756193/0x010EF021), tag_num=0x47)
  7: 0x06C3 [0x1C] WAIT(100* ticks)
  8: 0x06C6 [0x29] REQ_SET_WAIT(priority=0x0B, entity_id=Koru-Moru (ID: 17756193/0x010EF021), tag_num=0x48)
  9: 0x06CD [0x29] REQ_SET_WAIT(priority=0x0B, entity_id=Koru-Moru (ID: 17756193/0x010EF021), tag_num=0x49)
 10: 0x06D4 [0x20] SET_CLI_EVENT_UC_FLAG: Unlock player control
 11: 0x06D6 [0x21] END_EVENT
 12: 0x06D7 [0x00] END_REQSTACK()
```
