# Event 416

## Metadata

| Field           | Value    |
|-----------------|----------|
| Event Index     | 104/144  |
| Offset          | 0x243A   |
| Data Size       | 34 bytes |
| Calculated Size | 34 bytes |
| Instructions    | 13       |

```
      00 01 02 03 04 05 06 07  08 09 0A 0B 0C 0D 0E 0F
      -- -- -- -- -- -- -- --  -- -- -- -- -- -- -- --
2430:                                42 1E F0 FF FF 7F            B.....
2440: 6F 70 29 08 89 F0 0E 01  01 1D E2 80 23 1D E3 80  op).........#...
2450: 23 29 08 89 F0 0E 01 02  20 00 21 00              #)...... .!.    
```

## Opcodes

```
  0: 0x243A [0x42] SET_CLI_EVENT_CANCEL_DATA()
  1: 0x243B [0x1E] EventEntity looks at LocalPlayer and starts talking
  2: 0x2440 [0x6F] WAIT_FRAME_DELAY: Yield until WaitTime reaches zero
  3: 0x2441 [0x70] WAIT_ENTITY_RENDER_FLAG: Wait while EventEntity->Render.Flags3 bit 2 is set (cancel turn if not)
  4: 0x2442 [0x29] REQ_SET_WAIT(priority=0x08, entity_id=Koru-Moru (ID: 17756297/0x010EF089), tag_num=0x01)
  5: 0x2449 [0x1D] PRINT_EVENT_MESSAGE(message_id=8954*)
    → "Oh, it's you.\u0007Accordily-cording to the staff at the Rhinostery, there's been an incident with one of their researcher-areenos.\u007F1\u0000\u0007"
  6: 0x244C [0x23] WAIT_FOR_DIALOG_INTERACTION
  7: 0x244D [0x1D] PRINT_EVENT_MESSAGE(message_id=8955*)
    → "It might be Uran-Mafran's diddily-doing.\u0007Hurry on over and see what's hap-happily-happened. \u007F1\u0000\u0007"
  8: 0x2450 [0x23] WAIT_FOR_DIALOG_INTERACTION
  9: 0x2451 [0x29] REQ_SET_WAIT(priority=0x08, entity_id=Koru-Moru (ID: 17756297/0x010EF089), tag_num=0x02)
 10: 0x2458 [0x20] SET_CLI_EVENT_UC_FLAG: Unlock player control
 11: 0x245A [0x21] END_EVENT
 12: 0x245B [0x00] END_REQSTACK()
```
