# Event 65535

## Metadata

| Field           | Value    |
|-----------------|----------|
| Event Index     | 71/144   |
| Offset          | 0x06EB   |
| Data Size       | 37 bytes |
| Calculated Size | 37 bytes |
| Instructions    | 9        |

```
      00 01 02 03 04 05 06 07  08 09 0A 0B 0C 0D 0E 0F
      -- -- -- -- -- -- -- --  -- -- -- -- -- -- -- --
06E0:                                   29 08 21 F0 0E             ).!..
06F0: 01 03 1D 38 80 23 29 08  21 F0 0E 01 04 29 08 21  ...8.#).!....).!
0700: F0 0E 01 05 1D 39 80 23  29 08 21 F0 0E 01 04 00  .....9.#).!.....
```

## Opcodes

```
  0: 0x06EB [0x29] REQ_SET_WAIT(priority=0x08, entity_id=Koru-Moru (ID: 17756193/0x010EF021), tag_num=0x03)
  1: 0x06F2 [0x1D] PRINT_EVENT_MESSAGE(message_id=7754*)
    → "Ho-hoo! Are these the School of Magic's exam paper-reenos you have there-diddly-ere? Let me looky-loo... Ah, a black-whack-dackidly-dack magic test, eh?\u0007What's that-aroo? A monster-ino had them after they were stolen from the staff room-a-boom-boom?\u007F1\u0000\u0007"
  2: 0x06F5 [0x23] WAIT_FOR_DIALOG_INTERACTION
  3: 0x06F6 [0x29] REQ_SET_WAIT(priority=0x08, entity_id=Koru-Moru (ID: 17756193/0x010EF021), tag_num=0x04)
  4: 0x06FD [0x29] REQ_SET_WAIT(priority=0x08, entity_id=Koru-Moru (ID: 17756193/0x010EF021), tag_num=0x05)
  5: 0x0704 [0x1D] PRINT_EVENT_MESSAGE(message_id=7755*)
    → "So that's why they are so tattery-splat-dattery! Well, you've brought them to the right person-eroony. I can grade these and fill-a-in the teacher's results table in an instant-aroo!\u007F1\u0000\u0007"
  6: 0x0707 [0x23] WAIT_FOR_DIALOG_INTERACTION
  7: 0x0708 [0x29] REQ_SET_WAIT(priority=0x08, entity_id=Koru-Moru (ID: 17756193/0x010EF021), tag_num=0x04)
  8: 0x070F [0x00] END_REQSTACK()
```
