# 16839222 - Julio

## Common Data

| Field            | Value                        |
|------------------|------------------------------|
| Zone             | Abyssea - Konschtat (ID: 15) |
| Block Size       | 456 bytes                    |
| Total Events     | 8                            |
| References Count | 19                           |

## List of Events

| Event ID              | Entrypoint   |   Size |   Instructions |
|-----------------------|--------------|--------|----------------|
| [65535](#event-65535) | 0x0000       |      1 |              1 |
| [244](#event-244)     | 0x0001       |     75 |             24 |
| [245](#event-245)     | 0x004C       |     21 |              7 |
| [246](#event-246)     | 0x0061       |     67 |             17 |
| [247](#event-247)     | 0x00A4       |     30 |             10 |
| [248](#event-248)     | 0x00C2       |     62 |             16 |
| [249](#event-249)     | 0x0100       |     11 |              5 |
| [207](#event-207)     | 0x010B       |     65 |             28 |

## DAT References (imed_data)

|   Index | Hex Value   |   Dec Value |
|---------|-------------|-------------|
|       0 | 0x1654      |        5716 |
|       1 | 0x1EF6      |        7926 |
|       2 | 0x1EF7      |        7927 |
|       3 | 0x1EF8      |        7928 |
|       4 | 0x1EF9      |        7929 |
|       5 | 0x1EFA      |        7930 |
|       6 | 0x0000      |           0 |
|       7 | 0x1632      |        5682 |
|       8 | 0x0003      |           3 |
|       9 | 0x1EFB      |        7931 |
|      10 | 0x0001      |           1 |
|      11 | 0x1EFC      |        7932 |
|      12 | 0x1EFD      |        7933 |
|      13 | 0x1EFE      |        7934 |
|      14 | 0x1EFF      |        7935 |
|      15 | 0x1F00      |        7936 |
|      16 | 0x00C9      |         201 |
|      17 | 0x1F01      |        7937 |
|      18 | 0x0004      |           4 |

## String References

- **7926**: Heh heh...piece o' cake! I could whip up these $0 in my sleep.
- **7927**: Yeah? Whadda you want? This $0's not for you, if that's what you're thinkin'.
- **7928**: You heard me; this is private property. I don't care how tough times are. If you resistance types think ya can walk around "borrowin'" everything ya damn well please, you've got another think comin'!
- **7929**: 'Course, I can't talk too big. You guys do keep this martello over my head, after all. I'm feelin' generous, so I'll cut you a deal. You fetch me my materials, and I'll let you have one of the spares.
- **7930**: Bring Julio his materials? [Why not?/Maybe another time.]
- **7931**: How about that? A resistance [fella/lady] who ain't so busy fightin' to remember the folk [he/she]'s fighting for. $1 $0 , I'll be needin'. And try not to take all day, will ya?
- **7932**: Just came for a chat, eh? Well, if ya didn't notice, some of us actually have work to do. So scram!
- **7933**: What's that? Ya don't have my $1 $0 ? Then why are ya wastin' my time!? With winners like you in the resistance, it's no wonder this world is shot to hell... Sheesh!
- **7934**: What have we here? Some $0, and mighty fine specimens at that. Maybe you're more useful than I pegged ya for.
- **7935**: Well, a deal's a deal. Here's your $0. Knock yourself out.
- **7936**: Seems like we just might have a mutually beneficial relationship here, if ya catch my drift. If you come across any $0 in your travels, bring them to ol' Julio here. I just might have another $1 lying around for you.
- **7937**: Back for another $0? You resistance types never know when to quit, do ya?

## Events

### Event 65535

#### Metadata

| Field        | Value   |
|--------------|---------|
| Entrypoint   | 0x0000  |
| Data Size    | 1 bytes |
| Instructions | 1       |

```
      00 01 02 03 04 05 06 07  08 09 0A 0B 0C 0D 0E 0F
      -- -- -- -- -- -- -- --  -- -- -- -- -- -- -- --
0000: 00                                                .               
```

#### Opcodes

```
  0: 0x0000 [0x00] END_REQSTACK()
```

### Event 244

#### Metadata

| Field        | Value    |
|--------------|----------|
| Entrypoint   | 0x0001   |
| Data Size    | 75 bytes |
| Instructions | 24       |

```
      00 01 02 03 04 05 06 07  08 09 0A 0B 0C 0D 0E 0F
      -- -- -- -- -- -- -- --  -- -- -- -- -- -- -- --
0000:    1E F0 FF FF 7F 03 02  10 00 80 1D 01 80 23 1D   .............#.
0010: 02 80 23 1D 03 80 23 1D  04 80 23 24 05 80 06 80  ..#...#...#$....
0020: 06 80 25 02 00 10 06 80  00 41 00 03 02 10 07 80  ..%......A......
0030: 03 03 10 08 80 1D 09 80  23 03 01 10 0A 80 01 4A  ........#......J
0040: 00 1D 0B 80 23 03 01 10  06 80 21 00              ....#.....!.    
```

#### Opcodes

```
  0: 0x0001 [0x1E] EventEntity looks at LocalPlayer and starts talking
  1: 0x0006 [0x03] Work_Zone[2] = 5716*
  2: 0x000B [0x1D] PRINT_EVENT_MESSAGE(message_id=7926*)
    → "Heh heh...piece o' cake! I could whip up these $0 in my sleep."
  3: 0x000E [0x23] WAIT_FOR_DIALOG_INTERACTION
  4: 0x000F [0x1D] PRINT_EVENT_MESSAGE(message_id=7927*)
    → "Yeah? Whadda you want? This $0's not for you, if that's what you're thinkin'."
  5: 0x0012 [0x23] WAIT_FOR_DIALOG_INTERACTION
  6: 0x0013 [0x1D] PRINT_EVENT_MESSAGE(message_id=7928*)
    → "You heard me; this is private property. I don't care how tough times are. If you resistance types think ya can walk around "borrowin'" everything ya damn well please, you've got another think comin'!"
  7: 0x0016 [0x23] WAIT_FOR_DIALOG_INTERACTION
  8: 0x0017 [0x1D] PRINT_EVENT_MESSAGE(message_id=7929*)
    → "'Course, I can't talk too big. You guys do keep this martello over my head, after all. I'm feelin' generous, so I'll cut you a deal. You fetch me my materials, and I'll let you have one of the spares."
  9: 0x001A [0x23] WAIT_FOR_DIALOG_INTERACTION
 10: 0x001B [0x24] CREATE_DIALOG(message_id=7930*, default_option=0*, option_flags=0*)
    → "Bring Julio his materials? [Why not?/Maybe another time.]"
 11: 0x0022 [0x25] WAIT_DIALOG_SELECT()
 12: 0x0023 [0x02] IF !(Work_Zone[0] == 0*) GOTO 0x0041
 13: 0x002B [0x03] Work_Zone[2] = 5682*
 14: 0x0030 [0x03] Work_Zone[3] = 3*
 15: 0x0035 [0x1D] PRINT_EVENT_MESSAGE(message_id=7931*)
    → "How about that? A resistance [fella/lady] who ain't so busy fightin' to remember the folk [he/she]'s fighting for. $1 $0 , I'll be needin'. And try not to take all day, will ya?"
 16: 0x0038 [0x23] WAIT_FOR_DIALOG_INTERACTION
 17: 0x0039 [0x03] Work_Zone[1] = 1*
 18: 0x003E [0x01] GOTO 0x004A
 19: 0x0041 [0x1D] PRINT_EVENT_MESSAGE(message_id=7932*)
    → "Just came for a chat, eh? Well, if ya didn't notice, some of us actually have work to do. So scram!"
 20: 0x0044 [0x23] WAIT_FOR_DIALOG_INTERACTION
 21: 0x0045 [0x03] Work_Zone[1] = 0*

SUBROUTINE_004A:
 22: 0x004A [0x21] END_EVENT
 23: 0x004B [0x00] END_REQSTACK()
```

### Event 245

#### Metadata

| Field        | Value    |
|--------------|----------|
| Entrypoint   | 0x004C   |
| Data Size    | 21 bytes |
| Instructions | 7        |

```
      00 01 02 03 04 05 06 07  08 09 0A 0B 0C 0D 0E 0F
      -- -- -- -- -- -- -- --  -- -- -- -- -- -- -- --
0040:                                      1E F0 FF FF              ....
0050: 7F 03 02 10 07 80 03 03  10 08 80 1D 0C 80 23 21  ..............#!
0060: 00                                                .               
```

#### Opcodes

```
  0: 0x004C [0x1E] EventEntity looks at LocalPlayer and starts talking
  1: 0x0051 [0x03] Work_Zone[2] = 5682*
  2: 0x0056 [0x03] Work_Zone[3] = 3*
  3: 0x005B [0x1D] PRINT_EVENT_MESSAGE(message_id=7933*)
    → "What's that? Ya don't have my $1 $0 ? Then why are ya wastin' my time!? With winners like you in the resistance, it's no wonder this world is shot to hell... Sheesh!"
  4: 0x005E [0x23] WAIT_FOR_DIALOG_INTERACTION
  5: 0x005F [0x21] END_EVENT
  6: 0x0060 [0x00] END_REQSTACK()
```

### Event 246

#### Metadata

| Field        | Value    |
|--------------|----------|
| Entrypoint   | 0x0061   |
| Data Size    | 67 bytes |
| Instructions | 17       |

```
      00 01 02 03 04 05 06 07  08 09 0A 0B 0C 0D 0E 0F
      -- -- -- -- -- -- -- --  -- -- -- -- -- -- -- --
0060:    42 1E F0 FF FF 7F 03  02 10 07 80 03 03 10 08   B..............
0070: 80 1D 0D 80 23 1E F0 FF  FF 7F 03 02 10 00 80 1D  ....#...........
0080: 0E 80 23 03 02 10 07 80  03 03 10 00 80 1D 0F 80  ..#.............
0090: 23 45 10 80 F0 FF FF 7F  F0 FF FF 7F 71 73 74 63  #E..........qstc
00A0: 06 80 21 00                                       ..!.            
```

#### Opcodes

```
  0: 0x0061 [0x42] SET_CLI_EVENT_CANCEL_DATA()
  1: 0x0062 [0x1E] EventEntity looks at LocalPlayer and starts talking
  2: 0x0067 [0x03] Work_Zone[2] = 5682*
  3: 0x006C [0x03] Work_Zone[3] = 3*
  4: 0x0071 [0x1D] PRINT_EVENT_MESSAGE(message_id=7934*)
    → "What have we here? Some $0, and mighty fine specimens at that. Maybe you're more useful than I pegged ya for."
  5: 0x0074 [0x23] WAIT_FOR_DIALOG_INTERACTION
  6: 0x0075 [0x1E] EventEntity looks at LocalPlayer and starts talking
  7: 0x007A [0x03] Work_Zone[2] = 5716*
  8: 0x007F [0x1D] PRINT_EVENT_MESSAGE(message_id=7935*)
    → "Well, a deal's a deal. Here's your $0. Knock yourself out."
  9: 0x0082 [0x23] WAIT_FOR_DIALOG_INTERACTION
 10: 0x0083 [0x03] Work_Zone[2] = 5682*
 11: 0x0088 [0x03] Work_Zone[3] = 5716*
 12: 0x008D [0x1D] PRINT_EVENT_MESSAGE(message_id=7936*)
    → "Seems like we just might have a mutually beneficial relationship here, if ya catch my drift. If you come across any $0 in your travels, bring them to ol' Julio here. I just might have another $1 lying around for you."
 13: 0x0090 [0x23] WAIT_FOR_DIALOG_INTERACTION
 14: 0x0091 [0x45] LOAD_SCHEDULED_TASK: Load scheduler "qstc" with entities [LocalPlayer, LocalPlayer], work=[201*, 0*]
 15: 0x00A2 [0x21] END_EVENT
 16: 0x00A3 [0x00] END_REQSTACK()
```

### Event 247

#### Metadata

| Field        | Value    |
|--------------|----------|
| Entrypoint   | 0x00A4   |
| Data Size    | 30 bytes |
| Instructions | 10       |

```
      00 01 02 03 04 05 06 07  08 09 0A 0B 0C 0D 0E 0F
      -- -- -- -- -- -- -- --  -- -- -- -- -- -- -- --
00A0:             1E F0 FF FF  7F 03 02 10 00 80 1D 11      ............
00B0: 80 23 03 02 10 07 80 03  03 10 08 80 1D 09 80 23  .#.............#
00C0: 21 00                                             !.              
```

#### Opcodes

```
  0: 0x00A4 [0x1E] EventEntity looks at LocalPlayer and starts talking
  1: 0x00A9 [0x03] Work_Zone[2] = 5716*
  2: 0x00AE [0x1D] PRINT_EVENT_MESSAGE(message_id=7937*)
    → "Back for another $0? You resistance types never know when to quit, do ya?"
  3: 0x00B1 [0x23] WAIT_FOR_DIALOG_INTERACTION
  4: 0x00B2 [0x03] Work_Zone[2] = 5682*
  5: 0x00B7 [0x03] Work_Zone[3] = 3*
  6: 0x00BC [0x1D] PRINT_EVENT_MESSAGE(message_id=7931*)
    → "How about that? A resistance [fella/lady] who ain't so busy fightin' to remember the folk [he/she]'s fighting for. $1 $0 , I'll be needin'. And try not to take all day, will ya?"
  7: 0x00BF [0x23] WAIT_FOR_DIALOG_INTERACTION
  8: 0x00C0 [0x21] END_EVENT
  9: 0x00C1 [0x00] END_REQSTACK()
```

### Event 248

#### Metadata

| Field        | Value    |
|--------------|----------|
| Entrypoint   | 0x00C2   |
| Data Size    | 62 bytes |
| Instructions | 16       |

```
      00 01 02 03 04 05 06 07  08 09 0A 0B 0C 0D 0E 0F
      -- -- -- -- -- -- -- --  -- -- -- -- -- -- -- --
00C0:       42 1E F0 FF FF 7F  03 02 10 07 80 03 03 10    B.............
00D0: 08 80 1D 0D 80 23 03 02  10 00 80 1D 0E 80 23 03  .....#........#.
00E0: 02 10 07 80 03 03 10 00  80 1D 0F 80 23 45 10 80  ............#E..
00F0: F0 FF FF 7F F0 FF FF 7F  71 73 74 63 06 80 21 00  ........qstc..!.
```

#### Opcodes

```
  0: 0x00C2 [0x42] SET_CLI_EVENT_CANCEL_DATA()
  1: 0x00C3 [0x1E] EventEntity looks at LocalPlayer and starts talking
  2: 0x00C8 [0x03] Work_Zone[2] = 5682*
  3: 0x00CD [0x03] Work_Zone[3] = 3*
  4: 0x00D2 [0x1D] PRINT_EVENT_MESSAGE(message_id=7934*)
    → "What have we here? Some $0, and mighty fine specimens at that. Maybe you're more useful than I pegged ya for."
  5: 0x00D5 [0x23] WAIT_FOR_DIALOG_INTERACTION
  6: 0x00D6 [0x03] Work_Zone[2] = 5716*
  7: 0x00DB [0x1D] PRINT_EVENT_MESSAGE(message_id=7935*)
    → "Well, a deal's a deal. Here's your $0. Knock yourself out."
  8: 0x00DE [0x23] WAIT_FOR_DIALOG_INTERACTION
  9: 0x00DF [0x03] Work_Zone[2] = 5682*
 10: 0x00E4 [0x03] Work_Zone[3] = 5716*
 11: 0x00E9 [0x1D] PRINT_EVENT_MESSAGE(message_id=7936*)
    → "Seems like we just might have a mutually beneficial relationship here, if ya catch my drift. If you come across any $0 in your travels, bring them to ol' Julio here. I just might have another $1 lying around for you."
 12: 0x00EC [0x23] WAIT_FOR_DIALOG_INTERACTION
 13: 0x00ED [0x45] LOAD_SCHEDULED_TASK: Load scheduler "qstc" with entities [LocalPlayer, LocalPlayer], work=[201*, 0*]
 14: 0x00FE [0x21] END_EVENT
 15: 0x00FF [0x00] END_REQSTACK()
```

### Event 249

#### Metadata

| Field        | Value    |
|--------------|----------|
| Entrypoint   | 0x0100   |
| Data Size    | 11 bytes |
| Instructions | 5        |

```
      00 01 02 03 04 05 06 07  08 09 0A 0B 0C 0D 0E 0F
      -- -- -- -- -- -- -- --  -- -- -- -- -- -- -- --
0100: 03 02 10 00 80 1D 01 80  23 21 00                 ........#!.     
```

#### Opcodes

```
  0: 0x0100 [0x03] Work_Zone[2] = 5716*
  1: 0x0105 [0x1D] PRINT_EVENT_MESSAGE(message_id=7926*)
    → "Heh heh...piece o' cake! I could whip up these $0 in my sleep."
  2: 0x0108 [0x23] WAIT_FOR_DIALOG_INTERACTION
  3: 0x0109 [0x21] END_EVENT
  4: 0x010A [0x00] END_REQSTACK()
```

### Event 207

#### Metadata

| Field        | Value    |
|--------------|----------|
| Entrypoint   | 0x010B   |
| Data Size    | 65 bytes |
| Instructions | 28       |

```
      00 01 02 03 04 05 06 07  08 09 0A 0B 0C 0D 0E 0F
      -- -- -- -- -- -- -- --  -- -- -- -- -- -- -- --
0100:                                   71 10 0A 80 71             q...q
0110: 11 00 00 02 00 00 12 80  80 4A 01 1D 01 80 23 1D  .........J....#.
0120: 02 80 23 1D 03 80 23 1D  04 80 23 1D 09 80 23 1D  ..#...#...#...#.
0130: 0B 80 23 1D 0C 80 23 1D  0D 80 23 1D 0E 80 23 1D  ..#...#...#...#.
0140: 0F 80 23 1D 11 80 23 01  4A 01 21 00              ..#...#.J.!.    
```

#### Opcodes

```
  0: 0x010B [0x71] USER_INPUT_HANDLER: Open numerical input dialog (work=1*)
  1: 0x010F [0x71] USER_INPUT_HANDLER: Process numerical input A (work=ExtData[1]->WorkLocal[0])
  2: 0x0113 [0x02] IF !(ExtData[1]->WorkLocal[0] == 4*) GOTO 0x014A
  3: 0x011B [0x1D] PRINT_EVENT_MESSAGE(message_id=7926*)
    → "Heh heh...piece o' cake! I could whip up these $0 in my sleep."
  4: 0x011E [0x23] WAIT_FOR_DIALOG_INTERACTION
  5: 0x011F [0x1D] PRINT_EVENT_MESSAGE(message_id=7927*)
    → "Yeah? Whadda you want? This $0's not for you, if that's what you're thinkin'."
  6: 0x0122 [0x23] WAIT_FOR_DIALOG_INTERACTION
  7: 0x0123 [0x1D] PRINT_EVENT_MESSAGE(message_id=7928*)
    → "You heard me; this is private property. I don't care how tough times are. If you resistance types think ya can walk around "borrowin'" everything ya damn well please, you've got another think comin'!"
  8: 0x0126 [0x23] WAIT_FOR_DIALOG_INTERACTION
  9: 0x0127 [0x1D] PRINT_EVENT_MESSAGE(message_id=7929*)
    → "'Course, I can't talk too big. You guys do keep this martello over my head, after all. I'm feelin' generous, so I'll cut you a deal. You fetch me my materials, and I'll let you have one of the spares."
 10: 0x012A [0x23] WAIT_FOR_DIALOG_INTERACTION
 11: 0x012B [0x1D] PRINT_EVENT_MESSAGE(message_id=7931*)
    → "How about that? A resistance [fella/lady] who ain't so busy fightin' to remember the folk [he/she]'s fighting for. $1 $0 , I'll be needin'. And try not to take all day, will ya?"
 12: 0x012E [0x23] WAIT_FOR_DIALOG_INTERACTION
 13: 0x012F [0x1D] PRINT_EVENT_MESSAGE(message_id=7932*)
    → "Just came for a chat, eh? Well, if ya didn't notice, some of us actually have work to do. So scram!"
 14: 0x0132 [0x23] WAIT_FOR_DIALOG_INTERACTION
 15: 0x0133 [0x1D] PRINT_EVENT_MESSAGE(message_id=7933*)
    → "What's that? Ya don't have my $1 $0 ? Then why are ya wastin' my time!? With winners like you in the resistance, it's no wonder this world is shot to hell... Sheesh!"
 16: 0x0136 [0x23] WAIT_FOR_DIALOG_INTERACTION
 17: 0x0137 [0x1D] PRINT_EVENT_MESSAGE(message_id=7934*)
    → "What have we here? Some $0, and mighty fine specimens at that. Maybe you're more useful than I pegged ya for."
 18: 0x013A [0x23] WAIT_FOR_DIALOG_INTERACTION
 19: 0x013B [0x1D] PRINT_EVENT_MESSAGE(message_id=7935*)
    → "Well, a deal's a deal. Here's your $0. Knock yourself out."
 20: 0x013E [0x23] WAIT_FOR_DIALOG_INTERACTION
 21: 0x013F [0x1D] PRINT_EVENT_MESSAGE(message_id=7936*)
    → "Seems like we just might have a mutually beneficial relationship here, if ya catch my drift. If you come across any $0 in your travels, bring them to ol' Julio here. I just might have another $1 lying around for you."
 22: 0x0142 [0x23] WAIT_FOR_DIALOG_INTERACTION
 23: 0x0143 [0x1D] PRINT_EVENT_MESSAGE(message_id=7937*)
    → "Back for another $0? You resistance types never know when to quit, do ya?"
 24: 0x0146 [0x23] WAIT_FOR_DIALOG_INTERACTION
 25: 0x0147 [0x01] GOTO 0x014A

SUBROUTINE_014A:
 26: 0x014A [0x21] END_EVENT
 27: 0x014B [0x00] END_REQSTACK()
```
