# 16839274 - Event Master

## Common Data

| Field            | Value                        |
|------------------|------------------------------|
| Zone             | Abyssea - Konschtat (ID: 15) |
| Block Size       | 924 bytes                    |
| Total Events     | 2                            |
| References Count | 29                           |

## List of Events

| Event ID              | Entrypoint   |   Size |   Instructions |
|-----------------------|--------------|--------|----------------|
| [65535](#event-65535) | 0x0000       |      1 |              1 |
| [499](#event-499)     | 0x0001       |    781 |            138 |

## DAT References (imed_data)

|   Index | Hex Value   |   Dec Value |
|---------|-------------|-------------|
|       0 | 0x1FA9      |        8105 |
|       1 | 0x0000      |           0 |
|       2 | 0x0001      |           1 |
|       3 | 0x0018      |          24 |
|       4 | 0x001F      |          31 |
|       5 | 0x1FAA      |        8106 |
|       6 | 0x0002      |           2 |
|       7 | 0x1FAB      |        8107 |
|       8 | 0x0003      |           3 |
|       9 | 0x1FAC      |        8108 |
|      10 | 0x0004      |           4 |
|      11 | 0x1FAD      |        8109 |
|      12 | 0x0005      |           5 |
|      13 | 0x1FAE      |        8110 |
|      14 | 0x0006      |           6 |
|      15 | 0x1FAF      |        8111 |
|      16 | 0x0007      |           7 |
|      17 | 0x1FB0      |        8112 |
|      18 | 0x0008      |           8 |
|      19 | 0x1FB1      |        8113 |
|      20 | 0x56C18     |      355352 |
|      21 | 0xFFF9ECD1  |  4294569169 |
|      22 | 0xFFFFBB84  |  4294949764 |
|      23 | 0x7FF23     |      524067 |
|      24 | 0xAFB80     |      719744 |
|      25 | 0x5D5E      |       23902 |
|      26 | 0x0009      |           9 |
|      27 | 0x1FB2      |        8114 |
|      28 | 0x000A      |          10 |

## String References

- **8105**: $P11I$P11p5D->3"B [$P16<$P10:$3Z$3b$3g()/$3N$3G$3X$3gP($17$^$W_)/$3N$3G$3X$3gQ($P15b [ [)/$3N$3G$3X$3gR(LS$P15*$P14z)/$3N$3G$3X$3gS($P11f$^P)/$3N$3G$3X$3gT($P16r$P15*$P14z)/$3N$3G$3X$3gU($P11f$^Q)/$3N$3G$3X$3gV($P15s)/$3N$3G$3X$3gW($J$P10^P)/$3N$3G$3X$3gX($P10l$P12T5)/$3N$3G$3X$3g10($J$P10^Q)/b_i]
- **8106**: $P11I$P11p5D->3"B [$P16"$3N$3$3A$s$P11TI$3$3Z$3b$3g/>"6H\`L7WD$P13|$h/$3N$3$3A$s$P11TI$3Z$3b$3g/b_i]
- **8107**: $P11I$P11p5D->3" [$P16"$3N$3$3A$s$P11Ti$3N$3G$3X$3gP$3N$3$3A$s$P11T$22287986H\`Lp$7/$3N$3$3A$s$P11TI$3Z$3b$3g/b_i]
- **8108**: $P11I$P11p5D->3" [$P16"$3N$3$3A$s$P11Ti$3N$3G$3X$3gQ$3N$3$3A$s$P11T$22287986H\`L7WD$P13n5=1FI7i/$3N$3$3A$s$P11TI$3Z$3b$3g/b_i]
- **8109**: $P11I$P11p5D->3" [$P16"$3N$3$3A$s$P11Ti$9$s%L%B$P14\\$s$P11Tj/$3A$3C$3e$3 L$P13|$h/$3N$3$3A$s$P11TI$3Z$3b$3g/b_i]
- **8110**: $P11I$P11p5D->3" [$P16"$3N$3$3A$s$P11Ti$9$s%L%B$P14\\$s$P11Tj/$3A$3C$3e$3 $P13|$h/T<Player>H$O$3g$3[$3h5=1FI7i/$P11S<Player>u$3g$3[$3h5=1FI7i/$3N$3$3A$s$P11TI$3Z$3b$3g/b_i]
- **8111**: $P11I$P11p5D->3" [$P16"$3N$3$3A$s$P11Ti$9$s%L%B$P14\\$s$P11Tj/$3A$3C$3e$3 L$P13|$h/$3N$3$3A$s$P11TI$3Z$3b$3g/b_i]
- **8112**: $P11I$P11p5D->3" [$P16"$3N$3$3A$s$P11Ti$9$s%L%B$P14\\$s$P11Tj/$3A$3C$3e$3 L$P13|$h/$3N$3$3A$s$P11TI$3Z$3b$3g/b_i]
- **8113**: $P11I$P11p5D->3" [$P16"$3N$3$3A$s$P11Ti$9$s%L%B$P14\\$s$P11Tj/$3A$3C$3e$3 L$P13|$h/$3N$3$3A$s$P11TI$3Z$3b$3g/NM$3|$3C$3$3gI$P13]$23/HNM$3|$3C$3$3gI$P13]$23/b_i]
- **8114**: $P11I$P11p5D->3" [$P16"$3N$3$3A$s$P11Ti$9$s%L%B$P14\\$s$P11T$22287986H\`LL$P13|$h/$3N$3$3A$s$P11TI$3Z$3b$3g/b_i]

## Events

### Event 65535

#### Metadata

| Field        | Value   |
|--------------|---------|
| Entrypoint   | 0x0000  |
| Data Size    | 1 bytes |
| Instructions | 1       |

```
      00 01 02 03 04 05 06 07  08 09 0A 0B 0C 0D 0E 0F
      -- -- -- -- -- -- -- --  -- -- -- -- -- -- -- --
0000: 00                                                .               
```

#### Opcodes

```
  0: 0x0000 [0x00] END_REQSTACK()
```

### Event 499

#### Metadata

| Field        | Value     |
|--------------|-----------|
| Entrypoint   | 0x0001    |
| Data Size    | 781 bytes |
| Instructions | 138       |

```
      00 01 02 03 04 05 06 07  08 09 0A 0B 0C 0D 0E 0F
      -- -- -- -- -- -- -- --  -- -- -- -- -- -- -- --
0000:    24 00 80 01 80 01 80  25 02 00 10 01 80 00 2A   $......%......*
0010: 00 71 10 02 80 71 11 00  00 03 01 10 00 00 40 03  .q...q........@.
0020: 80 04 80 01 10 01 80 01  0C 03 02 00 10 02 80 00  ................
0030: 56 00 24 05 80 01 80 01  80 25 02 00 10 01 80 00  V.$......%......
0040: 45 00 01 45 00 03 01 10  00 10 40 03 80 04 80 01  E..E......@.....
0050: 10 02 80 01 0C 03 02 00  10 06 80 00 82 00 24 07  ..............$.
0060: 80 01 80 01 80 25 02 00  10 01 80 00 71 00 01 71  .....%......q..q
0070: 00 03 01 10 00 10 40 03  80 04 80 01 10 06 80 01  ......@.........
0080: 0C 03 02 00 10 08 80 00  AE 00 24 09 80 01 80 01  ..........$.....
0090: 80 25 02 00 10 01 80 00  9D 00 01 9D 00 03 01 10  .%..............
00A0: 00 10 40 03 80 04 80 01  10 08 80 01 0C 03 02 00  ..@.............
00B0: 10 0A 80 00 DA 00 24 0B  80 01 80 01 80 25 02 00  ......$......%..
00C0: 10 01 80 00 C9 00 01 C9  00 03 01 10 00 10 40 03  ..............@.
00D0: 80 04 80 01 10 0A 80 01  0C 03 02 00 10 0C 80 00  ................
00E0: 06 01 24 0D 80 01 80 01  80 25 02 00 10 01 80 00  ..$......%......
00F0: F5 00 01 F5 00 03 01 10  00 10 40 03 80 04 80 01  ..........@.....
0100: 10 0C 80 01 0C 03 02 00  10 0E 80 00 32 01 24 0F  ............2.$.
0110: 80 01 80 01 80 25 02 00  10 01 80 00 21 01 01 21  .....%......!..!
0120: 01 03 01 10 00 10 40 03  80 04 80 01 10 0E 80 01  ......@.........
0130: 0C 03 02 00 10 10 80 00  5E 01 24 11 80 01 80 01  ........^.$.....
0140: 80 25 02 00 10 01 80 00  4D 01 01 4D 01 03 01 10  .%......M..M....
0150: 00 10 40 03 80 04 80 01  10 10 80 01 0C 03 02 00  ..@.............
0160: 10 12 80 00 1F 02 24 13  80 01 80 01 80 25 02 00  ......$......%..
0170: 10 01 80 00 87 01 03 01  10 00 10 40 03 80 04 80  ...........@....
0180: 01 10 12 80 01 1C 02 02  00 10 02 80 00 A0 01 03  ................
0190: 01 10 00 10 40 03 80 04  80 01 10 12 80 01 1C 02  ....@...........
01A0: 02 00 10 06 80 00 B9 01  03 01 10 00 10 40 03 80  .............@..
01B0: 04 80 01 10 12 80 01 1C  02 02 00 10 08 80 00 DE  ................
01C0: 01 47 00 14 80 15 80 16  80 01 80 47 01 03 01 10  .G.........G....
01D0: 08 80 40 03 80 04 80 01  10 12 80 01 1C 02 02 00  ..@.............
01E0: 10 0A 80 00 03 02 47 00  17 80 18 80 19 80 01 80  ......G.........
01F0: 47 01 03 01 10 0A 80 40  03 80 04 80 01 10 12 80  G......@........
0200: 01 1C 02 02 00 10 0C 80  00 1C 02 03 01 10 00 10  ................
0210: 40 03 80 04 80 01 10 12  80 01 1C 02 01 0C 03 02  @...............
0220: 00 10 1A 80 00 4B 02 24  1B 80 01 80 01 80 25 02  .....K.$......%.
0230: 00 10 01 80 00 3A 02 01  3A 02 03 01 10 00 10 40  .....:..:......@
0240: 03 80 04 80 01 10 1A 80  01 0C 03 02 00 10 1C 80  ................
0250: 00 0C 03 24 13 80 01 80  01 80 25 02 00 10 01 80  ...$......%.....
0260: 00 74 02 03 01 10 00 10  40 03 80 04 80 01 10 1C  .t......@.......
0270: 80 01 09 03 02 00 10 02  80 00 8D 02 03 01 10 00  ................
0280: 10 40 03 80 04 80 01 10  1C 80 01 09 03 02 00 10  .@..............
0290: 06 80 00 A6 02 03 01 10  00 10 40 03 80 04 80 01  ..........@.....
02A0: 10 1C 80 01 09 03 02 00  10 08 80 00 CB 02 47 00  ..............G.
02B0: 14 80 15 80 16 80 01 80  47 01 03 01 10 08 80 40  ........G......@
02C0: 03 80 04 80 01 10 1C 80  01 09 03 02 00 10 0A 80  ................
02D0: 00 F0 02 47 00 17 80 18  80 19 80 01 80 47 01 03  ...G.........G..
02E0: 01 10 0A 80 40 03 80 04  80 01 10 1C 80 01 09 03  ....@...........
02F0: 02 00 10 0C 80 00 09 03  03 01 10 00 10 40 03 80  .............@..
0300: 04 80 01 10 1C 80 01 09  03 01 0C 03 21 00        ............!.  
```

#### Opcodes

```
  0: 0x0001 [0x24] CREATE_DIALOG(message_id=8105*, default_option=0*, option_flags=0*)
    → "$P11I$P11p5D->3"B [$P16<$P10:$3Z$3b$3g()/$3N$3G$3X$3gP($17$^$W_)/$3N$3G$3X$3gQ($P15b [ [)/$3N$3G$3X$3gR(LS$P15*$P14z)/$3N$3G$3X$3gS($P11f$^P)/$3N$3G$3X$3gT($P16r$P15*$P14z)/$3N$3G$3X$3gU($P11f$^Q)/$3N$3G$3X$3gV($P15s)/$3N$3G$3X$3gW($J$P10^P)/$3N$3G$3X$3gX($P10l$P12T5)/$3N$3G$3X$3g10($J$P10^Q)/b_i]"
  1: 0x0008 [0x25] WAIT_DIALOG_SELECT()
  2: 0x0009 [0x02] IF !(Work_Zone[0] == 0*) GOTO 0x002A
  3: 0x0011 [0x71] USER_INPUT_HANDLER: Open numerical input dialog (work=1*)
  4: 0x0015 [0x71] USER_INPUT_HANDLER: Process numerical input A (work=ExtData[1]->WorkLocal[0])
  5: 0x0019 [0x03] Work_Zone[1] = ExtData[1]->WorkLocal[0]
  6: 0x001E [0x40] SET_BIT_WORK_RANGE(start_bit=24*, end_bit=31*, target=Work_Zone[1], source=0*)
  7: 0x0027 [0x01] GOTO 0x030C
  8: 0x002A [0x02] IF !(Work_Zone[0] == 1*) GOTO 0x0056
  9: 0x0032 [0x24] CREATE_DIALOG(message_id=8106*, default_option=0*, option_flags=0*)
    → "$P11I$P11p5D->3"B [$P16"$3N$3$3A$s$P11TI$3$3Z$3b$3g/>"6H`L7WD$P13|$h/$3N$3$3A$s$P11TI$3Z$3b$3g/b_i]"
 10: 0x0039 [0x25] WAIT_DIALOG_SELECT()
 11: 0x003A [0x02] IF !(Work_Zone[0] == 0*) GOTO 0x0045
 12: 0x0042 [0x01] GOTO 0x0045

SUBROUTINE_0045:
 13: 0x0045 [0x03] Work_Zone[1] = Work_Zone[0]
 14: 0x004A [0x40] SET_BIT_WORK_RANGE(start_bit=24*, end_bit=31*, target=Work_Zone[1], source=1*)
 15: 0x0053 [0x01] GOTO 0x030C
 16: 0x0056 [0x02] IF !(Work_Zone[0] == 2*) GOTO 0x0082
 17: 0x005E [0x24] CREATE_DIALOG(message_id=8107*, default_option=0*, option_flags=0*)
    → "$P11I$P11p5D->3" [$P16"$3N$3$3A$s$P11Ti$3N$3G$3X$3gP$3N$3$3A$s$P11T$22287986H`Lp$7/$3N$3$3A$s$P11TI$3Z$3b$3g/b_i]"
 18: 0x0065 [0x25] WAIT_DIALOG_SELECT()
 19: 0x0066 [0x02] IF !(Work_Zone[0] == 0*) GOTO 0x0071
 20: 0x006E [0x01] GOTO 0x0071

SUBROUTINE_0071:
 21: 0x0071 [0x03] Work_Zone[1] = Work_Zone[0]
 22: 0x0076 [0x40] SET_BIT_WORK_RANGE(start_bit=24*, end_bit=31*, target=Work_Zone[1], source=2*)
 23: 0x007F [0x01] GOTO 0x030C
 24: 0x0082 [0x02] IF !(Work_Zone[0] == 3*) GOTO 0x00AE
 25: 0x008A [0x24] CREATE_DIALOG(message_id=8108*, default_option=0*, option_flags=0*)
    → "$P11I$P11p5D->3" [$P16"$3N$3$3A$s$P11Ti$3N$3G$3X$3gQ$3N$3$3A$s$P11T$22287986H`L7WD$P13n5=1FI7i/$3N$3$3A$s$P11TI$3Z$3b$3g/b_i]"
 26: 0x0091 [0x25] WAIT_DIALOG_SELECT()
 27: 0x0092 [0x02] IF !(Work_Zone[0] == 0*) GOTO 0x009D
 28: 0x009A [0x01] GOTO 0x009D

SUBROUTINE_009D:
 29: 0x009D [0x03] Work_Zone[1] = Work_Zone[0]
 30: 0x00A2 [0x40] SET_BIT_WORK_RANGE(start_bit=24*, end_bit=31*, target=Work_Zone[1], source=3*)
 31: 0x00AB [0x01] GOTO 0x030C
 32: 0x00AE [0x02] IF !(Work_Zone[0] == 4*) GOTO 0x00DA
 33: 0x00B6 [0x24] CREATE_DIALOG(message_id=8109*, default_option=0*, option_flags=0*)
    → "$P11I$P11p5D->3" [$P16"$3N$3$3A$s$P11Ti$9$s%L%B$P14\$s$P11Tj/$3A$3C$3e$3 L$P13|$h/$3N$3$3A$s$P11TI$3Z$3b$3g/b_i]"
 34: 0x00BD [0x25] WAIT_DIALOG_SELECT()
 35: 0x00BE [0x02] IF !(Work_Zone[0] == 0*) GOTO 0x00C9
 36: 0x00C6 [0x01] GOTO 0x00C9

SUBROUTINE_00C9:
 37: 0x00C9 [0x03] Work_Zone[1] = Work_Zone[0]
 38: 0x00CE [0x40] SET_BIT_WORK_RANGE(start_bit=24*, end_bit=31*, target=Work_Zone[1], source=4*)
 39: 0x00D7 [0x01] GOTO 0x030C
 40: 0x00DA [0x02] IF !(Work_Zone[0] == 5*) GOTO 0x0106
 41: 0x00E2 [0x24] CREATE_DIALOG(message_id=8110*, default_option=0*, option_flags=0*)
    → "$P11I$P11p5D->3" [$P16"$3N$3$3A$s$P11Ti$9$s%L%B$P14\$s$P11Tj/$3A$3C$3e$3 $P13|$h/T<Player>H$O$3g$3[$3h5=1FI7i/$P11S<Player>u$3g$3[$3h5=1FI7i/$3N$3$3A$s$P11TI$3Z$3b$3g/b_i]"
 42: 0x00E9 [0x25] WAIT_DIALOG_SELECT()
 43: 0x00EA [0x02] IF !(Work_Zone[0] == 0*) GOTO 0x00F5
 44: 0x00F2 [0x01] GOTO 0x00F5

SUBROUTINE_00F5:
 45: 0x00F5 [0x03] Work_Zone[1] = Work_Zone[0]
 46: 0x00FA [0x40] SET_BIT_WORK_RANGE(start_bit=24*, end_bit=31*, target=Work_Zone[1], source=5*)
 47: 0x0103 [0x01] GOTO 0x030C
 48: 0x0106 [0x02] IF !(Work_Zone[0] == 6*) GOTO 0x0132
 49: 0x010E [0x24] CREATE_DIALOG(message_id=8111*, default_option=0*, option_flags=0*)
    → "$P11I$P11p5D->3" [$P16"$3N$3$3A$s$P11Ti$9$s%L%B$P14\$s$P11Tj/$3A$3C$3e$3 L$P13|$h/$3N$3$3A$s$P11TI$3Z$3b$3g/b_i]"
 50: 0x0115 [0x25] WAIT_DIALOG_SELECT()
 51: 0x0116 [0x02] IF !(Work_Zone[0] == 0*) GOTO 0x0121
 52: 0x011E [0x01] GOTO 0x0121

SUBROUTINE_0121:
 53: 0x0121 [0x03] Work_Zone[1] = Work_Zone[0]
 54: 0x0126 [0x40] SET_BIT_WORK_RANGE(start_bit=24*, end_bit=31*, target=Work_Zone[1], source=6*)
 55: 0x012F [0x01] GOTO 0x030C
 56: 0x0132 [0x02] IF !(Work_Zone[0] == 7*) GOTO 0x015E
 57: 0x013A [0x24] CREATE_DIALOG(message_id=8112*, default_option=0*, option_flags=0*)
    → "$P11I$P11p5D->3" [$P16"$3N$3$3A$s$P11Ti$9$s%L%B$P14\$s$P11Tj/$3A$3C$3e$3 L$P13|$h/$3N$3$3A$s$P11TI$3Z$3b$3g/b_i]"
 58: 0x0141 [0x25] WAIT_DIALOG_SELECT()
 59: 0x0142 [0x02] IF !(Work_Zone[0] == 0*) GOTO 0x014D
 60: 0x014A [0x01] GOTO 0x014D

SUBROUTINE_014D:
 61: 0x014D [0x03] Work_Zone[1] = Work_Zone[0]
 62: 0x0152 [0x40] SET_BIT_WORK_RANGE(start_bit=24*, end_bit=31*, target=Work_Zone[1], source=7*)
 63: 0x015B [0x01] GOTO 0x030C
 64: 0x015E [0x02] IF !(Work_Zone[0] == 8*) GOTO 0x021F
 65: 0x0166 [0x24] CREATE_DIALOG(message_id=8113*, default_option=0*, option_flags=0*)
    → "$P11I$P11p5D->3" [$P16"$3N$3$3A$s$P11Ti$9$s%L%B$P14\$s$P11Tj/$3A$3C$3e$3 L$P13|$h/$3N$3$3A$s$P11TI$3Z$3b$3g/NM$3|$3C$3$3gI$P13]$23/HNM$3|$3C$3$3gI$P13]$23/b_i]"
 66: 0x016D [0x25] WAIT_DIALOG_SELECT()
 67: 0x016E [0x02] IF !(Work_Zone[0] == 0*) GOTO 0x0187
 68: 0x0176 [0x03] Work_Zone[1] = Work_Zone[0]
 69: 0x017B [0x40] SET_BIT_WORK_RANGE(start_bit=24*, end_bit=31*, target=Work_Zone[1], source=8*)
 70: 0x0184 [0x01] GOTO 0x021C
 71: 0x0187 [0x02] IF !(Work_Zone[0] == 1*) GOTO 0x01A0
 72: 0x018F [0x03] Work_Zone[1] = Work_Zone[0]
 73: 0x0194 [0x40] SET_BIT_WORK_RANGE(start_bit=24*, end_bit=31*, target=Work_Zone[1], source=8*)
 74: 0x019D [0x01] GOTO 0x021C
 75: 0x01A0 [0x02] IF !(Work_Zone[0] == 2*) GOTO 0x01B9
 76: 0x01A8 [0x03] Work_Zone[1] = Work_Zone[0]
 77: 0x01AD [0x40] SET_BIT_WORK_RANGE(start_bit=24*, end_bit=31*, target=Work_Zone[1], source=8*)
 78: 0x01B6 [0x01] GOTO 0x021C
 79: 0x01B9 [0x02] IF !(Work_Zone[0] == 3*) GOTO 0x01DE
 80: 0x01C1 [0x47] UPDATE_PLAYER_POS(355.352*, -398.127*, -17.532*, yaw=0.0°*)
 81: 0x01CB [0x47] WAIT_PLAYER_POS_UPDATE
 82: 0x01CD [0x03] Work_Zone[1] = 3*
 83: 0x01D2 [0x40] SET_BIT_WORK_RANGE(start_bit=24*, end_bit=31*, target=Work_Zone[1], source=8*)
 84: 0x01DB [0x01] GOTO 0x021C
 85: 0x01DE [0x02] IF !(Work_Zone[0] == 4*) GOTO 0x0203
 86: 0x01E6 [0x47] UPDATE_PLAYER_POS(524.067*, 719.744*, 23.902*, yaw=0.0°*)
 87: 0x01F0 [0x47] WAIT_PLAYER_POS_UPDATE
 88: 0x01F2 [0x03] Work_Zone[1] = 4*
 89: 0x01F7 [0x40] SET_BIT_WORK_RANGE(start_bit=24*, end_bit=31*, target=Work_Zone[1], source=8*)
 90: 0x0200 [0x01] GOTO 0x021C
 91: 0x0203 [0x02] IF !(Work_Zone[0] == 5*) GOTO 0x021C
 92: 0x020B [0x03] Work_Zone[1] = Work_Zone[0]
 93: 0x0210 [0x40] SET_BIT_WORK_RANGE(start_bit=24*, end_bit=31*, target=Work_Zone[1], source=8*)
 94: 0x0219 [0x01] GOTO 0x021C

SUBROUTINE_021C:
 95: 0x021C [0x01] GOTO 0x030C
 96: 0x021F [0x02] IF !(Work_Zone[0] == 9*) GOTO 0x024B
 97: 0x0227 [0x24] CREATE_DIALOG(message_id=8114*, default_option=0*, option_flags=0*)
    → "$P11I$P11p5D->3" [$P16"$3N$3$3A$s$P11Ti$9$s%L%B$P14\$s$P11T$22287986H`LL$P13|$h/$3N$3$3A$s$P11TI$3Z$3b$3g/b_i]"
 98: 0x022E [0x25] WAIT_DIALOG_SELECT()
 99: 0x022F [0x02] IF !(Work_Zone[0] == 0*) GOTO 0x023A
100: 0x0237 [0x01] GOTO 0x023A

SUBROUTINE_023A:
101: 0x023A [0x03] Work_Zone[1] = Work_Zone[0]
102: 0x023F [0x40] SET_BIT_WORK_RANGE(start_bit=24*, end_bit=31*, target=Work_Zone[1], source=9*)
103: 0x0248 [0x01] GOTO 0x030C
104: 0x024B [0x02] IF !(Work_Zone[0] == 10*) GOTO 0x030C
105: 0x0253 [0x24] CREATE_DIALOG(message_id=8113*, default_option=0*, option_flags=0*)
    → "$P11I$P11p5D->3" [$P16"$3N$3$3A$s$P11Ti$9$s%L%B$P14\$s$P11Tj/$3A$3C$3e$3 L$P13|$h/$3N$3$3A$s$P11TI$3Z$3b$3g/NM$3|$3C$3$3gI$P13]$23/HNM$3|$3C$3$3gI$P13]$23/b_i]"
106: 0x025A [0x25] WAIT_DIALOG_SELECT()
107: 0x025B [0x02] IF !(Work_Zone[0] == 0*) GOTO 0x0274
108: 0x0263 [0x03] Work_Zone[1] = Work_Zone[0]
109: 0x0268 [0x40] SET_BIT_WORK_RANGE(start_bit=24*, end_bit=31*, target=Work_Zone[1], source=10*)
110: 0x0271 [0x01] GOTO 0x0309
111: 0x0274 [0x02] IF !(Work_Zone[0] == 1*) GOTO 0x028D
112: 0x027C [0x03] Work_Zone[1] = Work_Zone[0]
113: 0x0281 [0x40] SET_BIT_WORK_RANGE(start_bit=24*, end_bit=31*, target=Work_Zone[1], source=10*)
114: 0x028A [0x01] GOTO 0x0309
115: 0x028D [0x02] IF !(Work_Zone[0] == 2*) GOTO 0x02A6
116: 0x0295 [0x03] Work_Zone[1] = Work_Zone[0]
117: 0x029A [0x40] SET_BIT_WORK_RANGE(start_bit=24*, end_bit=31*, target=Work_Zone[1], source=10*)
118: 0x02A3 [0x01] GOTO 0x0309
119: 0x02A6 [0x02] IF !(Work_Zone[0] == 3*) GOTO 0x02CB
120: 0x02AE [0x47] UPDATE_PLAYER_POS(355.352*, -398.127*, -17.532*, yaw=0.0°*)
121: 0x02B8 [0x47] WAIT_PLAYER_POS_UPDATE
122: 0x02BA [0x03] Work_Zone[1] = 3*
123: 0x02BF [0x40] SET_BIT_WORK_RANGE(start_bit=24*, end_bit=31*, target=Work_Zone[1], source=10*)
124: 0x02C8 [0x01] GOTO 0x0309
125: 0x02CB [0x02] IF !(Work_Zone[0] == 4*) GOTO 0x02F0
126: 0x02D3 [0x47] UPDATE_PLAYER_POS(524.067*, 719.744*, 23.902*, yaw=0.0°*)
127: 0x02DD [0x47] WAIT_PLAYER_POS_UPDATE
128: 0x02DF [0x03] Work_Zone[1] = 4*
129: 0x02E4 [0x40] SET_BIT_WORK_RANGE(start_bit=24*, end_bit=31*, target=Work_Zone[1], source=10*)
130: 0x02ED [0x01] GOTO 0x0309
131: 0x02F0 [0x02] IF !(Work_Zone[0] == 5*) GOTO 0x0309
132: 0x02F8 [0x03] Work_Zone[1] = Work_Zone[0]
133: 0x02FD [0x40] SET_BIT_WORK_RANGE(start_bit=24*, end_bit=31*, target=Work_Zone[1], source=10*)
134: 0x0306 [0x01] GOTO 0x0309

SUBROUTINE_0309:
135: 0x0309 [0x01] GOTO 0x030C

SUBROUTINE_030C:
136: 0x030C [0x21] END_EVENT
137: 0x030D [0x00] END_REQSTACK()
```
