# Event 65535

## Metadata

| Field           | Value    |
|-----------------|----------|
| Event Index     | 18/19    |
| Offset          | 0x0CFC   |
| Data Size       | 43 bytes |
| Calculated Size | 43 bytes |
| Instructions    | 11       |

```
      00 01 02 03 04 05 06 07  08 09 0A 0B 0C 0D 0E 0F
      -- -- -- -- -- -- -- --  -- -- -- -- -- -- -- --
0CF0:                                      1E 88 A0 0E              ....
0D00: 01 6F 70 1C 3D 80 32 91  80 1F 00 92 80 93 80 07  .op.=.2.........
0D10: 80 1F 01 6F 1C 90 80 66  24 80 06 A0 0E 01 06 A0  ...o...f$.......
0D20: 0E 01 6E 64 65 30 00                              ..nde0.         
```

## Opcodes

```
  0: 0x0CFC [0x1E] EventEntity looks at Unnamed NPC (ID: 17735816/0x010EA088) and starts talking
  1: 0x0D01 [0x6F] WAIT_FRAME_DELAY: Yield until WaitTime reaches zero
  2: 0x0D02 [0x70] WAIT_ENTITY_RENDER_FLAG: Wait while EventEntity->Render.Flags3 bit 2 is set (cancel turn if not)
  3: 0x0D03 [0x1C] WAIT(15* ticks)
  4: 0x0D06 [0x32] ExtData[1]->MainSpeed = 40* * 0.1
  5: 0x0D09 [0x1F] MOVE_ENTITY: EventEntity moves to X=-13.544*, Z=-122.904*, Y=-0.999*
  6: 0x0D11 [0x1F] MOVE_ENTITY: Update entity position (mode=1)
  7: 0x0D13 [0x6F] WAIT_FRAME_DELAY: Yield until WaitTime reaches zero
  8: 0x0D14 [0x1C] WAIT(6* ticks)
  9: 0x0D17 [0x66] LOAD_EXT_SCHEDULER_MAIN(work_offset=4*, entity1=Rashid (ID: 17735686/0x010EA006), entity2=Rashid (ID: 17735686/0x010EA006), action="nde0")
 10: 0x0D26 [0x00] END_REQSTACK()
```
