# Event 2521

## Metadata

| Field           | Value    |
|-----------------|----------|
| Event Index     | 3/5      |
| Offset          | 0x003E   |
| Data Size       | 49 bytes |
| Calculated Size | 49 bytes |
| Instructions    | 11       |

```
      00 01 02 03 04 05 06 07  08 09 0A 0B 0C 0D 0E 0F
      -- -- -- -- -- -- -- --  -- -- -- -- -- -- -- --
0030:                                            42 1E                B.
0040: F0 FF FF 7F 6F 70 66 00  80 F8 FF FF 7F F8 FF FF  ....opf.........
0050: 7F 74 6C 62 30 03 03 10  04 80 1D 05 80 23 66 00  .tlb0........#f.
0060: 80 F8 FF FF 7F F8 FF FF  7F 74 6C 62 31 21 00     .........tlb1!. 
```

## Opcodes

```
  0: 0x003E [0x42] SET_CLI_EVENT_CANCEL_DATA()
  1: 0x003F [0x1E] EventEntity looks at LocalPlayer and starts talking
  2: 0x0044 [0x6F] WAIT_FRAME_DELAY: Yield until WaitTime reaches zero
  3: 0x0045 [0x70] WAIT_ENTITY_RENDER_FLAG: Wait while EventEntity->Render.Flags3 bit 2 is set (cancel turn if not)
  4: 0x0046 [0x66] LOAD_EXT_SCHEDULER_MAIN: Load scheduler "tlb0" with entities [EventEntity, EventEntity], work=5*
  5: 0x0055 [0x03] Work_Zone[3] = 8*
  6: 0x005A [0x1D] PRINT_EVENT_MESSAGE(message_id=7526*)
    → "A number? You really want a number to kill? <Sigh> I want to say \u00072as many as you can,\u00073 but you've probably got better things to do...so let's say 
\u0001. Does that sound doable?\u007F1\u0000\u0007"
  7: 0x005D [0x23] WAIT_FOR_DIALOG_INTERACTION
  8: 0x005E [0x66] LOAD_EXT_SCHEDULER_MAIN: Load scheduler "tlb1" with entities [EventEntity, EventEntity], work=5*
  9: 0x006D [0x21] END_EVENT
 10: 0x006E [0x00] END_REQSTACK()
```
