# Event 41

## Metadata

| Field           | Value    |
|-----------------|----------|
| Event Index     | 23/26    |
| Offset          | 0x017A   |
| Data Size       | 29 bytes |
| Calculated Size | 29 bytes |
| Instructions    | 10       |

```
      00 01 02 03 04 05 06 07  08 09 0A 0B 0C 0D 0E 0F
      -- -- -- -- -- -- -- --  -- -- -- -- -- -- -- --
0170:                                1E F0 FF FF 7F 6F            .....o
0180: 70 29 08 5D 10 0F 01 0B  1D 04 80 23 29 08 5D 10  p).].......#).].
0190: 0F 01 0C 20 00 21 00                              ... .!.         
```

## Opcodes

```
  0: 0x017A [0x1E] EventEntity looks at LocalPlayer and starts talking
  1: 0x017F [0x6F] WAIT_FRAME_DELAY: Yield until WaitTime reaches zero
  2: 0x0180 [0x70] WAIT_ENTITY_RENDER_FLAG: Wait while EventEntity->Render.Flags3 bit 2 is set (cancel turn if not)
  3: 0x0181 [0x29] REQ_SET_WAIT(priority=0x08, entity_id=Hae Jakkya (ID: 17764445/0x010F105D), tag_num=0x0B)
  4: 0x0188 [0x1D] PRINT_EVENT_MESSAGE(message_id=7556*)
    → "Yowl!\u0007You've got guts to come to me auction house! I'm the one who's in charrrge 'ere! If you 'ave any trouble 'ere, come see me!\u007F1\u0000\u0007"
  5: 0x018B [0x23] WAIT_FOR_DIALOG_INTERACTION
  6: 0x018C [0x29] REQ_SET_WAIT(priority=0x08, entity_id=Hae Jakkya (ID: 17764445/0x010F105D), tag_num=0x0C)
  7: 0x0193 [0x20] SET_CLI_EVENT_UC_FLAG: Unlock player control
  8: 0x0195 [0x21] END_EVENT
  9: 0x0196 [0x00] END_REQSTACK()
```
