# Event 65535

## Metadata

| Field           | Value    |
|-----------------|----------|
| Event Index     | 13/17    |
| Offset          | 0x00EA   |
| Data Size       | 62 bytes |
| Calculated Size | 62 bytes |
| Instructions    | 12       |

```
      00 01 02 03 04 05 06 07  08 09 0A 0B 0C 0D 0E 0F
      -- -- -- -- -- -- -- --  -- -- -- -- -- -- -- --
00E0:                                1C 09 80 6E C7 00            ...n..
00F0: 10 01 0D 80 99 C7 00 10  01 1C 0E 80 2C CE 00 10  ............,...
0100: 01 CE 00 10 01 6F 70 65  6E 1C 00 80 6E C7 00 10  .....open...n...
0110: 01 0B 80 99 C7 00 10 01  1C 0F 80 6E C7 00 10 01  ...........n....
0120: 0D 80 99 C7 00 10 01 00                           ........        
```

## Opcodes

```
  0: 0x00EA [0x1C] WAIT(60* ticks)
  1: 0x00ED [0x6E] Bilp (ID: 17825991/0x011000C7) uses emote 16*
  2: 0x00F4 [0x99] Wait for Bilp (ID: 17825991/0x011000C7) animation to complete
  3: 0x00F9 [0x1C] WAIT(330* ticks)
  4: 0x00FC [0x2C] CREATE_SCHEDULER_TASK: Create scheduler "open" for entities [Distrova (ID: 17825998/0x011000CE), Distrova (ID: 17825998/0x011000CE)]
  5: 0x0109 [0x1C] WAIT(30* ticks)
  6: 0x010C [0x6E] Bilp (ID: 17825991/0x011000C7) uses emote 11*
  7: 0x0113 [0x99] Wait for Bilp (ID: 17825991/0x011000C7) animation to complete
  8: 0x0118 [0x1C] WAIT(750* ticks)
  9: 0x011B [0x6E] Bilp (ID: 17825991/0x011000C7) uses emote 16*
 10: 0x0122 [0x99] Wait for Bilp (ID: 17825991/0x011000C7) animation to complete
 11: 0x0127 [0x00] END_REQSTACK()
```
