# Event 65535

## Metadata

| Field           | Value    |
|-----------------|----------|
| Event Index     | 16/17    |
| Offset          | 0x0136   |
| Data Size       | 47 bytes |
| Calculated Size | 47 bytes |
| Instructions    | 9        |

```
      00 01 02 03 04 05 06 07  08 09 0A 0B 0C 0D 0E 0F
      -- -- -- -- -- -- -- --  -- -- -- -- -- -- -- --
0130:                   1C 09  80 6E C7 00 10 01 0D 80        ...n......
0140: 99 C7 00 10 01 1C 10 80  2C CE 00 10 01 CE 00 10  ........,.......
0150: 01 6F 70 65 6E 1C 00 80  6E C7 00 10 01 0B 80 99  .open...n.......
0160: C7 00 10 01 00                                    .....           
```

## Opcodes

```
  0: 0x0136 [0x1C] WAIT(60* ticks)
  1: 0x0139 [0x6E] Bilp (ID: 17825991/0x011000C7) uses emote 16*
  2: 0x0140 [0x99] Wait for Bilp (ID: 17825991/0x011000C7) animation to complete
  3: 0x0145 [0x1C] WAIT(120* ticks)
  4: 0x0148 [0x2C] CREATE_SCHEDULER_TASK: Create scheduler "open" for entities [Distrova (ID: 17825998/0x011000CE), Distrova (ID: 17825998/0x011000CE)]
  5: 0x0155 [0x1C] WAIT(30* ticks)
  6: 0x0158 [0x6E] Bilp (ID: 17825991/0x011000C7) uses emote 11*
  7: 0x015F [0x99] Wait for Bilp (ID: 17825991/0x011000C7) animation to complete
  8: 0x0164 [0x00] END_REQSTACK()
```
