# Event 373

## Metadata

| Field           | Value    |
|-----------------|----------|
| Event Index     | 33/105   |
| Offset          | 0x0259   |
| Data Size       | 33 bytes |
| Calculated Size | 33 bytes |
| Instructions    | 12       |

```
      00 01 02 03 04 05 06 07  08 09 0A 0B 0C 0D 0E 0F
      -- -- -- -- -- -- -- --  -- -- -- -- -- -- -- --
0250:                             1E F0 FF FF 7F 6F 70           .....op
0260: 29 08 54 00 0F 01 0B 1D  0B 80 23 1D 0C 80 23 29  ).T.......#...#)
0270: 08 54 00 0F 01 0C 20 00  21 00                    .T.... .!.      
```

## Opcodes

```
  0: 0x0259 [0x1E] EventEntity looks at LocalPlayer and starts talking
  1: 0x025E [0x6F] WAIT_FRAME_DELAY: Yield until WaitTime reaches zero
  2: 0x025F [0x70] WAIT_ENTITY_RENDER_FLAG: Wait while EventEntity->Render.Flags3 bit 2 is set (cancel turn if not)
  3: 0x0260 [0x29] REQ_SET_WAIT(priority=0x08, entity_id=Gomada-Vulmada (ID: 17760340/0x010F0054), tag_num=0x0B)
  4: 0x0267 [0x1D] PRINT_EVENT_MESSAGE(message_id=4203*)
    → "You, you, you keep away from me, you hear! Tarutaru don't have no taily-wailys!\u007F1\u0000\u0007"
  5: 0x026A [0x23] WAIT_FOR_DIALOG_INTERACTION
  6: 0x026B [0x1D] PRINT_EVENT_MESSAGE(message_id=4204*)
    → "I know what you're thinking-winking! You're out to stealy-wealy someone's tail!\u007F1\u0000\u0007"
  7: 0x026E [0x23] WAIT_FOR_DIALOG_INTERACTION
  8: 0x026F [0x29] REQ_SET_WAIT(priority=0x08, entity_id=Gomada-Vulmada (ID: 17760340/0x010F0054), tag_num=0x0C)
  9: 0x0276 [0x20] SET_CLI_EVENT_UC_FLAG: Unlock player control
 10: 0x0278 [0x21] END_EVENT
 11: 0x0279 [0x00] END_REQSTACK()
```
