# Event 65535

## Metadata

| Field           | Value    |
|-----------------|----------|
| Event Index     | 68/105   |
| Offset          | 0x0473   |
| Data Size       | 49 bytes |
| Calculated Size | 49 bytes |
| Instructions    | 9        |

```
      00 01 02 03 04 05 06 07  08 09 0A 0B 0C 0D 0E 0F
      -- -- -- -- -- -- -- --  -- -- -- -- -- -- -- --
0470:          1C 4A 80 4A 54  00 0F 01 5A 00 0F 01 1C     .J.JT...Z....
0480: 4B 80 4A 54 00 0F 01 5A  00 0F 01 1C 4B 80 4A 54  K.JT...Z....K.JT
0490: 00 0F 01 5A 00 0F 01 1C  4B 80 4A 54 00 0F 01 5A  ...Z....K.JT...Z
04A0: 00 0F 01 00                                       ....            
```

## Opcodes

```
  0: 0x0473 [0x1C] WAIT(10* ticks)
  1: 0x0476 [0x4A] Gomada-Vulmada (ID: 17760340/0x010F0054) looks at Nanaa Mihgo (ID: 17760346/0x010F005A)
  2: 0x047F [0x1C] WAIT(100* ticks)
  3: 0x0482 [0x4A] Gomada-Vulmada (ID: 17760340/0x010F0054) looks at Nanaa Mihgo (ID: 17760346/0x010F005A)
  4: 0x048B [0x1C] WAIT(100* ticks)
  5: 0x048E [0x4A] Gomada-Vulmada (ID: 17760340/0x010F0054) looks at Nanaa Mihgo (ID: 17760346/0x010F005A)
  6: 0x0497 [0x1C] WAIT(100* ticks)
  7: 0x049A [0x4A] Gomada-Vulmada (ID: 17760340/0x010F0054) looks at Nanaa Mihgo (ID: 17760346/0x010F005A)
  8: 0x04A3 [0x00] END_REQSTACK()
```
