# Event 295

## Metadata

| Field           | Value    |
|-----------------|----------|
| Event Index     | 9/10     |
| Offset          | 0x02DA   |
| Data Size       | 28 bytes |
| Calculated Size | 28 bytes |
| Instructions    | 9        |

```
      00 01 02 03 04 05 06 07  08 09 0A 0B 0C 0D 0E 0F
      -- -- -- -- -- -- -- --  -- -- -- -- -- -- -- --
02D0:                                42 1A 9A 03 1E F0            B.....
02E0: FF FF 7F 79 00 F8 FF FF  7F F0 FF FF 7F 1D 35 80  ...y..........5.
02F0: 23 1A AA 03 21 00                                 #...!.          
```

## Opcodes

```
  0: 0x02DA [0x42] SET_CLI_EVENT_CANCEL_DATA()
  1: 0x02DB [0x1A] CALL_SUBROUTINE(address=0x039A)
  2: 0x02DE [0x1E] EventEntity looks at LocalPlayer and starts talking
  3: 0x02E3 [0x79] EventEntity looks at LocalPlayer (Basic look)
  4: 0x02ED [0x1D] PRINT_EVENT_MESSAGE(message_id=8053*)
    → "Back for more?\u0007I can't fault your eagerness, rookie, but I'm still trying to make something out of the last print you brought for me.\u0007Come back in a bit, will ya?\u007F1\u0000\u0007"
  5: 0x02F0 [0x23] WAIT_FOR_DIALOG_INTERACTION
  6: 0x02F1 [0x1A] CALL_SUBROUTINE(address=0x03AA)
  7: 0x02F4 [0x21] END_EVENT
  8: 0x02F5 [0x00] END_REQSTACK()
```
