# 17637406 - Localize

## Common Data

| Field            | Value             |
|------------------|-------------------|
| Zone             | GM_Home (ID: 210) |
| Block Size       | 432 bytes         |
| Total Events     | 5                 |
| References Count | 20                |

## List of Events

| Event ID              | Entrypoint   |   Size |   Instructions |
|-----------------------|--------------|--------|----------------|
| [65535](#event-65535) | 0x0000       |      1 |              1 |
| [72](#event-72)       | 0x0001       |     19 |              9 |
| [76](#event-76)       | 0x0014       |     22 |              7 |
| [77](#event-77)       | 0x002A       |    258 |             46 |
| [79](#event-79)       | 0x012C       |     14 |              6 |

## DAT References (imed_data)

|   Index | Hex Value   |   Dec Value |
|---------|-------------|-------------|
|       0 | 0x1D37      |        7479 |
|       1 | 0x1D38      |        7480 |
|       2 | 0x1D39      |        7481 |
|       3 | 0x0000      |           0 |
|       4 | 0x1D3A      |        7482 |
|       5 | 0x0001      |           1 |
|       6 | 0x0002      |           2 |
|       7 | 0x0003      |           3 |
|       8 | 0x0004      |           4 |
|       9 | 0x0005      |           5 |
|      10 | 0x0006      |           6 |
|      11 | 0x0007      |           7 |
|      12 | 0x1D3B      |        7483 |
|      13 | 0x1D3C      |        7484 |
|      14 | 0x1D3D      |        7485 |
|      15 | 0x000D      |          13 |
|      16 | 0x000E      |          14 |
|      17 | 0x000F      |          15 |
|      18 | 0x0010      |          16 |
|      19 | 0x1D3E      |        7486 |

## String References

- **7479**: Waiting for button press message 1: $3(up to num7)
- **7480**: Waiting for button press message 3: $3(up to num7)
- **7481**: Waiting for button press message 3: $3(up to num7)
- **7482**: Chocobo gender check: NAME:$0 $0[$P12j/$23]
- **7483**: Chocobo name slot test: NAME0: $0 NAME1: $1 NAME2: $2 NAME3: $3
- **7484**: Chocobo name slot test: NAME4: $4 NAME5: $5 NAME6: $6 NAME7: $7
- **7485**: Chocobo race name check. $0
- **7486**: New macro check. Base-16 (hexadecimal): Base-2 (binary):

## Events

### Event 65535

#### Metadata

| Field        | Value   |
|--------------|---------|
| Entrypoint   | 0x0000  |
| Data Size    | 1 bytes |
| Instructions | 1       |

```
      00 01 02 03 04 05 06 07  08 09 0A 0B 0C 0D 0E 0F
      -- -- -- -- -- -- -- --  -- -- -- -- -- -- -- --
0000: 00                                                .               
```

#### Opcodes

```
  0: 0x0000 [0x00] END_REQSTACK()
```

### Event 72

#### Metadata

| Field        | Value    |
|--------------|----------|
| Entrypoint   | 0x0001   |
| Data Size    | 19 bytes |
| Instructions | 9        |

```
      00 01 02 03 04 05 06 07  08 09 0A 0B 0C 0D 0E 0F
      -- -- -- -- -- -- -- --  -- -- -- -- -- -- -- --
0000:    1E F0 FF FF 7F 1D 00  80 23 1D 01 80 23 1D 02   ........#...#..
0010: 80 23 21 00                                       .#!.            
```

#### Opcodes

```
  0: 0x0001 [0x1E] EventEntity looks at LocalPlayer and starts talking
  1: 0x0006 [0x1D] PRINT_EVENT_MESSAGE(message_id=7479*)
    → "Waiting for button press message 1: $3(up to num7)"
  2: 0x0009 [0x23] WAIT_FOR_DIALOG_INTERACTION
  3: 0x000A [0x1D] PRINT_EVENT_MESSAGE(message_id=7480*)
    → "Waiting for button press message 3: $3(up to num7)"
  4: 0x000D [0x23] WAIT_FOR_DIALOG_INTERACTION
  5: 0x000E [0x1D] PRINT_EVENT_MESSAGE(message_id=7481*)
    → "Waiting for button press message 3: $3(up to num7)"
  6: 0x0011 [0x23] WAIT_FOR_DIALOG_INTERACTION
  7: 0x0012 [0x21] END_EVENT
  8: 0x0013 [0x00] END_REQSTACK()
```

### Event 76

#### Metadata

| Field        | Value    |
|--------------|----------|
| Entrypoint   | 0x0014   |
| Data Size    | 22 bytes |
| Instructions | 7        |

```
      00 01 02 03 04 05 06 07  08 09 0A 0B 0C 0D 0E 0F
      -- -- -- -- -- -- -- --  -- -- -- -- -- -- -- --
0010:             B4 01 00 00  03 80 C3 03 80 00 00 02      ............
0020: 10 06 02 10 1D 04 80 23  21 00                    .......#!.      
```

#### Opcodes

```
  0: 0x0014 [0xB4] UI_WINDOW_STRING_HANDLER(case=0x01 - Copy string from event strings table, work_offset=ExtData[1]->WorkLocal[0], string_index=0*)
  1: 0x001A [0xC3] COPY_STRING_TO_ARRAY(array_index=0x8003, string_value=0x00, additional_value=0x1002)
  2: 0x0021 [0x06] Work_Zone[2] = 0
  3: 0x0024 [0x1D] PRINT_EVENT_MESSAGE(message_id=7482*)
    → "Chocobo gender check: NAME:$0 $0[$P12j/$23]"
  4: 0x0027 [0x23] WAIT_FOR_DIALOG_INTERACTION
  5: 0x0028 [0x21] END_EVENT
  6: 0x0029 [0x00] END_REQSTACK()
```

### Event 77

#### Metadata

| Field        | Value     |
|--------------|-----------|
| Entrypoint   | 0x002A    |
| Data Size    | 258 bytes |
| Instructions | 46        |

```
      00 01 02 03 04 05 06 07  08 09 0A 0B 0C 0D 0E 0F
      -- -- -- -- -- -- -- --  -- -- -- -- -- -- -- --
0020:                                06 02 10 B4 01 00            ......
0030: 00 03 80 C3 03 80 00 00  02 10 B4 01 00 00 05 80  ................
0040: C3 05 80 00 00 02 10 B4  01 00 00 06 80 C3 06 80  ................
0050: 00 00 02 10 B4 01 00 00  07 80 C3 07 80 00 00 02  ................
0060: 10 B4 00 00 00 63 68 6F  63 6F 6E 61 6D 65 34 00  .....choconame4.
0070: 00 00 00 00 00 C3 08 80  00 00 02 10 B4 00 00 00  ................
0080: 63 68 6F 63 6F 6E 61 6D  65 35 00 00 00 00 00 00  choconame5......
0090: C3 09 80 00 00 02 10 B4  00 00 00 63 68 6F 63 6F  ...........choco
00A0: 6E 61 6D 65 36 00 00 00  00 00 00 C3 0A 80 00 00  name6...........
00B0: 02 10 B4 00 00 00 63 68  6F 63 6F 6E 61 6D 65 37  ......choconame7
00C0: 00 00 00 00 00 00 C3 0B  80 00 00 02 10 03 02 10  ................
00D0: 03 80 03 03 10 05 80 03  04 10 06 80 03 05 10 07  ................
00E0: 80 03 06 10 08 80 03 07  10 09 80 03 08 10 0A 80  ................
00F0: 03 09 10 0B 80 1D 0C 80  23 1D 0D 80 23 03 02 10  ........#...#...
0100: 03 80 1D 0E 80 23 03 02  10 0F 80 1D 0E 80 23 03  .....#........#.
0110: 02 10 10 80 1D 0E 80 23  03 02 10 11 80 1D 0E 80  .......#........
0120: 23 03 02 10 12 80 1D 0E  80 23 21 00              #........#!.    
```

#### Opcodes

```
  0: 0x002A [0x06] Work_Zone[2] = 0
  1: 0x002D [0xB4] UI_WINDOW_STRING_HANDLER(case=0x01 - Copy string from event strings table, work_offset=ExtData[1]->WorkLocal[0], string_index=0*)
  2: 0x0033 [0xC3] COPY_STRING_TO_ARRAY(array_index=0x8003, string_value=0x00, additional_value=0x1002)
  3: 0x003A [0xB4] UI_WINDOW_STRING_HANDLER(case=0x01 - Copy string from event strings table, work_offset=ExtData[1]->WorkLocal[0], string_index=1*)
  4: 0x0040 [0xC3] COPY_STRING_TO_ARRAY(array_index=0x8005, string_value=0x00, additional_value=0x1002)
  5: 0x0047 [0xB4] UI_WINDOW_STRING_HANDLER(case=0x01 - Copy string from event strings table, work_offset=ExtData[1]->WorkLocal[0], string_index=2*)
  6: 0x004D [0xC3] COPY_STRING_TO_ARRAY(array_index=0x8006, string_value=0x00, additional_value=0x1002)
  7: 0x0054 [0xB4] UI_WINDOW_STRING_HANDLER(case=0x01 - Copy string from event strings table, work_offset=ExtData[1]->WorkLocal[0], string_index=3*)
  8: 0x005A [0xC3] COPY_STRING_TO_ARRAY(array_index=0x8007, string_value=0x00, additional_value=0x1002)
  9: 0x0061 [0xB4] UI_WINDOW_STRING_HANDLER(case=0x00 - Copy string from opcode, work_offset=ExtData[1]->WorkLocal[0], string="choconame4")
 10: 0x0075 [0xC3] COPY_STRING_TO_ARRAY(array_index=0x8008, string_value=0x00, additional_value=0x1002)
 11: 0x007C [0xB4] UI_WINDOW_STRING_HANDLER(case=0x00 - Copy string from opcode, work_offset=ExtData[1]->WorkLocal[0], string="choconame5")
 12: 0x0090 [0xC3] COPY_STRING_TO_ARRAY(array_index=0x8009, string_value=0x00, additional_value=0x1002)
 13: 0x0097 [0xB4] UI_WINDOW_STRING_HANDLER(case=0x00 - Copy string from opcode, work_offset=ExtData[1]->WorkLocal[0], string="choconame6")
 14: 0x00AB [0xC3] COPY_STRING_TO_ARRAY(array_index=0x800A, string_value=0x00, additional_value=0x1002)
 15: 0x00B2 [0xB4] UI_WINDOW_STRING_HANDLER(case=0x00 - Copy string from opcode, work_offset=ExtData[1]->WorkLocal[0], string="choconame7")
 16: 0x00C6 [0xC3] COPY_STRING_TO_ARRAY(array_index=0x800B, string_value=0x00, additional_value=0x1002)
 17: 0x00CD [0x03] Work_Zone[2] = 0*
 18: 0x00D2 [0x03] Work_Zone[3] = 1*
 19: 0x00D7 [0x03] Work_Zone[4] = 2*
 20: 0x00DC [0x03] Work_Zone[5] = 3*
 21: 0x00E1 [0x03] Work_Zone[6] = 4*
 22: 0x00E6 [0x03] Work_Zone[7] = 5*
 23: 0x00EB [0x03] Work_Zone[8] = 6*
 24: 0x00F0 [0x03] Work_Zone[9] = 7*
 25: 0x00F5 [0x1D] PRINT_EVENT_MESSAGE(message_id=7483*)
    → "Chocobo name slot test: NAME0: $0 NAME1: $1 NAME2: $2 NAME3: $3"
 26: 0x00F8 [0x23] WAIT_FOR_DIALOG_INTERACTION
 27: 0x00F9 [0x1D] PRINT_EVENT_MESSAGE(message_id=7484*)
    → "Chocobo name slot test: NAME4: $4 NAME5: $5 NAME6: $6 NAME7: $7"
 28: 0x00FC [0x23] WAIT_FOR_DIALOG_INTERACTION
 29: 0x00FD [0x03] Work_Zone[2] = 0*
 30: 0x0102 [0x1D] PRINT_EVENT_MESSAGE(message_id=7485*)
    → "Chocobo race name check. $0"
 31: 0x0105 [0x23] WAIT_FOR_DIALOG_INTERACTION
 32: 0x0106 [0x03] Work_Zone[2] = 13*
 33: 0x010B [0x1D] PRINT_EVENT_MESSAGE(message_id=7485*)
    → "Chocobo race name check. $0"
 34: 0x010E [0x23] WAIT_FOR_DIALOG_INTERACTION
 35: 0x010F [0x03] Work_Zone[2] = 14*
 36: 0x0114 [0x1D] PRINT_EVENT_MESSAGE(message_id=7485*)
    → "Chocobo race name check. $0"
 37: 0x0117 [0x23] WAIT_FOR_DIALOG_INTERACTION
 38: 0x0118 [0x03] Work_Zone[2] = 15*
 39: 0x011D [0x1D] PRINT_EVENT_MESSAGE(message_id=7485*)
    → "Chocobo race name check. $0"
 40: 0x0120 [0x23] WAIT_FOR_DIALOG_INTERACTION
 41: 0x0121 [0x03] Work_Zone[2] = 16*
 42: 0x0126 [0x1D] PRINT_EVENT_MESSAGE(message_id=7485*)
    → "Chocobo race name check. $0"
 43: 0x0129 [0x23] WAIT_FOR_DIALOG_INTERACTION
 44: 0x012A [0x21] END_EVENT
 45: 0x012B [0x00] END_REQSTACK()
```

### Event 79

#### Metadata

| Field        | Value    |
|--------------|----------|
| Entrypoint   | 0x012C   |
| Data Size    | 14 bytes |
| Instructions | 6        |

```
      00 01 02 03 04 05 06 07  08 09 0A 0B 0C 0D 0E 0F
      -- -- -- -- -- -- -- --  -- -- -- -- -- -- -- --
0120:                                      71 10 05 80              q...
0130: 71 11 02 10 1D 13 80 23  21 00                    q......#!.      
```

#### Opcodes

```
  0: 0x012C [0x71] USER_INPUT_HANDLER: Open numerical input dialog (work=1*)
  1: 0x0130 [0x71] USER_INPUT_HANDLER: Process numerical input A (work=Work_Zone[2])
  2: 0x0134 [0x1D] PRINT_EVENT_MESSAGE(message_id=7486*)
    → "New macro check. Base-16 (hexadecimal): Base-2 (binary):"
  3: 0x0137 [0x23] WAIT_FOR_DIALOG_INTERACTION
  4: 0x0138 [0x21] END_EVENT
  5: 0x0139 [0x00] END_REQSTACK()
```
