# 17637612 - 1

## Common Data

| Field            | Value             |
|------------------|-------------------|
| Zone             | GM_Home (ID: 210) |
| Block Size       | 72 bytes          |
| Total Events     | 2                 |
| References Count | 3                 |

## List of Events

| Event ID              | Entrypoint   |   Size |   Instructions |
|-----------------------|--------------|--------|----------------|
| [65535](#event-65535) | 0x0000       |      1 |              1 |
| [209](#event-209)     | 0x0001       |     33 |             12 |

## DAT References (imed_data)

|   Index | Hex Value   |   Dec Value |
|---------|-------------|-------------|
|       0 | 0x1DF0      |        7664 |
|       1 | 0x00D2      |         210 |
|       2 | 0x003C      |          60 |

## String References

- **7664**: Press confirm button to proceed.

## Events

### Event 65535

#### Metadata

| Field        | Value   |
|--------------|---------|
| Entrypoint   | 0x0000  |
| Data Size    | 1 bytes |
| Instructions | 1       |

```
      00 01 02 03 04 05 06 07  08 09 0A 0B 0C 0D 0E 0F
      -- -- -- -- -- -- -- --  -- -- -- -- -- -- -- --
0000: 00                                                .               
```

#### Opcodes

```
  0: 0x0000 [0x00] END_REQSTACK()
```

### Event 209

#### Metadata

| Field        | Value    |
|--------------|----------|
| Entrypoint   | 0x0001   |
| Data Size    | 33 bytes |
| Instructions | 12       |

```
      00 01 02 03 04 05 06 07  08 09 0A 0B 0C 0D 0E 0F
      -- -- -- -- -- -- -- --  -- -- -- -- -- -- -- --
0000:    27 05 EB 20 0D 01 02  48 00 80 23 06 27 10 7A   '.. ...H..#.'.z
0010: 00 EB 20 0D 01 35 01 80  B6 10 AB 0A 78 1C 02 80  .. ..5......x...
0020: 21 00                                             !.              
```

#### Opcodes

```
  0: 0x0001 [0x27] REQ_SET(priority=0x05, entity_id=EFFLoadMagic (ID: 17637611/0x010D20EB), tag_num=0x02)
  1: 0x0008 [0x48] [System] [7664*]:
    → "Press confirm button to proceed."
  2: 0x000B [0x23] WAIT_FOR_DIALOG_INTERACTION
  3: 0x000C [0x06] Work_Zone[39] = 0
  4: 0x000F [0x7A] VM_CONTROL: Reset VM for EFFLoadMagic (ID: 17637611/0x010D20EB)
  5: 0x0015 [0x35] LOAD_ZONE_NO_CLOSE(zone_id=210*)
  6: 0x0018 [0xB6] ENTITY_APPEARANCE_HANDLER(case=Test validity)
  7: 0x001A [0xAB] EventEntity->UnknownFlag = 0 // Disable unknown flag
  8: 0x001C [0x78] ENABLE_GAME_TIMER_RESET_WEATHER()
  9: 0x001D [0x1C] WAIT(60* ticks)
 10: 0x0020 [0x21] END_EVENT
 11: 0x0021 [0x00] END_REQSTACK()
```
