# 17637463 - Emio

## Common Data

| Field            | Value             |
|------------------|-------------------|
| Zone             | GM_Home (ID: 210) |
| Block Size       | 216 bytes         |
| Total Events     | 2                 |
| References Count | 14                |

## List of Events

| Event ID              | Entrypoint   |   Size |   Instructions |
|-----------------------|--------------|--------|----------------|
| [65535](#event-65535) | 0x0000       |      1 |              1 |
| [143](#event-143)     | 0x0001       |    134 |             27 |

## DAT References (imed_data)

|   Index | Hex Value   |   Dec Value |
|---------|-------------|-------------|
|       0 | 0x2364      |        9060 |
|       1 | 0x0000      |           0 |
|       2 | 0x0001      |           1 |
|       3 | 0x000D      |          13 |
|       4 | 0x0002      |           2 |
|       5 | 0x000E      |          14 |
|       6 | 0x0003      |           3 |
|       7 | 0x000F      |          15 |
|       8 | 0x0004      |           4 |
|       9 | 0x0010      |          16 |
|      10 | 0x0005      |           5 |
|      11 | 0x0011      |          17 |
|      12 | 0x0006      |           6 |
|      13 | 0x0012      |          18 |

## String References

- **9060**: Select number of objectives completed. [End,/600./700./800./900./999./999. (No. 388 not completed)]

## Events

### Event 65535

#### Metadata

| Field        | Value   |
|--------------|---------|
| Entrypoint   | 0x0000  |
| Data Size    | 1 bytes |
| Instructions | 1       |

```
      00 01 02 03 04 05 06 07  08 09 0A 0B 0C 0D 0E 0F
      -- -- -- -- -- -- -- --  -- -- -- -- -- -- -- --
0000: 00                                                .               
```

#### Opcodes

```
  0: 0x0000 [0x00] END_REQSTACK()
```

### Event 143

#### Metadata

| Field        | Value     |
|--------------|-----------|
| Entrypoint   | 0x0001    |
| Data Size    | 134 bytes |
| Instructions | 27        |

```
      00 01 02 03 04 05 06 07  08 09 0A 0B 0C 0D 0E 0F
      -- -- -- -- -- -- -- --  -- -- -- -- -- -- -- --
0000:    1E F0 FF FF 7F 4A F0  FF FF 7F F8 FF FF 7F 06   .....J.........
0010: 01 10 24 00 80 00 10 01  80 25 02 00 10 01 80 00  ..$......%......
0020: 25 00 01 85 00 02 00 10  02 80 00 35 00 03 01 10  %..........5....
0030: 03 80 01 85 00 02 00 10  04 80 00 45 00 03 01 10  ...........E....
0040: 05 80 01 85 00 02 00 10  06 80 00 55 00 03 01 10  ...........U....
0050: 07 80 01 85 00 02 00 10  08 80 00 65 00 03 01 10  ...........e....
0060: 09 80 01 85 00 02 00 10  0A 80 00 75 00 03 01 10  ...........u....
0070: 0B 80 01 85 00 02 00 10  0C 80 00 85 00 03 01 10  ................
0080: 0D 80 01 85 00 21 00                              .....!.         
```

#### Opcodes

```
  0: 0x0001 [0x1E] EventEntity looks at LocalPlayer and starts talking
  1: 0x0006 [0x4A] LocalPlayer looks at EventEntity
  2: 0x000F [0x06] Work_Zone[1] = 0
  3: 0x0012 [0x24] CREATE_DIALOG(message_id=9060*, default_option=Work_Zone[0], option_flags=0*)
    → "Select number of objectives completed. [End,/600./700./800./900./999./999. (No. 388 not completed)]"
  4: 0x0019 [0x25] WAIT_DIALOG_SELECT()
  5: 0x001A [0x02] IF !(Work_Zone[0] == 0*) GOTO 0x0025
  6: 0x0022 [0x01] GOTO 0x0085
  7: 0x0025 [0x02] IF !(Work_Zone[0] == 1*) GOTO 0x0035
  8: 0x002D [0x03] Work_Zone[1] = 13*
  9: 0x0032 [0x01] GOTO 0x0085
 10: 0x0035 [0x02] IF !(Work_Zone[0] == 2*) GOTO 0x0045
 11: 0x003D [0x03] Work_Zone[1] = 14*
 12: 0x0042 [0x01] GOTO 0x0085
 13: 0x0045 [0x02] IF !(Work_Zone[0] == 3*) GOTO 0x0055
 14: 0x004D [0x03] Work_Zone[1] = 15*
 15: 0x0052 [0x01] GOTO 0x0085
 16: 0x0055 [0x02] IF !(Work_Zone[0] == 4*) GOTO 0x0065
 17: 0x005D [0x03] Work_Zone[1] = 16*
 18: 0x0062 [0x01] GOTO 0x0085
 19: 0x0065 [0x02] IF !(Work_Zone[0] == 5*) GOTO 0x0075
 20: 0x006D [0x03] Work_Zone[1] = 17*
 21: 0x0072 [0x01] GOTO 0x0085
 22: 0x0075 [0x02] IF !(Work_Zone[0] == 6*) GOTO 0x0085
 23: 0x007D [0x03] Work_Zone[1] = 18*
 24: 0x0082 [0x01] GOTO 0x0085

SUBROUTINE_0085:
 25: 0x0085 [0x21] END_EVENT
 26: 0x0086 [0x00] END_REQSTACK()
```
