# 17637402 - Ahturhgan

## Common Data

| Field            | Value             |
|------------------|-------------------|
| Zone             | GM_Home (ID: 210) |
| Block Size       | 2104 bytes        |
| Total Events     | 2                 |
| References Count | 94                |

## List of Events

| Event ID              | Entrypoint   |   Size |   Instructions |
|-----------------------|--------------|--------|----------------|
| [65535](#event-65535) | 0x0000       |      1 |              1 |
| [65](#event-65)       | 0x0001       |   1703 |            337 |

## DAT References (imed_data)

|   Index | Hex Value   |   Dec Value |
|---------|-------------|-------------|
|       0 | 0x1D26      |        7462 |
|       1 | 0x0000      |           0 |
|       2 | 0x40000000  |  1073741824 |
|       3 | 0x0001      |           1 |
|       4 | 0x0002      |           2 |
|       5 | 0x0003      |           3 |
|       6 | 0x0004      |           4 |
|       7 | 0x0005      |           5 |
|       8 | 0x0006      |           6 |
|       9 | 0x0007      |           7 |
|      10 | 0x0008      |           8 |
|      11 | 0x0132      |         306 |
|      12 | 0x1D27      |        7463 |
|      13 | 0x0009      |           9 |
|      14 | 0x000A      |          10 |
|      15 | 0x000B      |          11 |
|      16 | 0x000C      |          12 |
|      17 | 0x000D      |          13 |
|      18 | 0x000E      |          14 |
|      19 | 0x1D30      |        7472 |
|      20 | 0x000F      |          15 |
|      21 | 0x0010      |          16 |
|      22 | 0x0011      |          17 |
|      23 | 0x0012      |          18 |
|      24 | 0x0013      |          19 |
|      25 | 0x0014      |          20 |
|      26 | 0x0015      |          21 |
|      27 | 0x0016      |          22 |
|      28 | 0x0017      |          23 |
|      29 | 0x0018      |          24 |
|      30 | 0x0019      |          25 |
|      31 | 0x001A      |          26 |
|      32 | 0x001B      |          27 |
|      33 | 0x001C      |          28 |
|      34 | 0x1D3F      |        7487 |
|      35 | 0x001D      |          29 |
|      36 | 0x001E      |          30 |
|      37 | 0x001F      |          31 |
|      38 | 0x0020      |          32 |
|      39 | 0x0021      |          33 |
|      40 | 0x0022      |          34 |
|      41 | 0x0023      |          35 |
|      42 | 0x0024      |          36 |
|      43 | 0x0025      |          37 |
|      44 | 0x0026      |          38 |
|      45 | 0x1D40      |        7488 |
|      46 | 0x0027      |          39 |
|      47 | 0x0028      |          40 |
|      48 | 0x0029      |          41 |
|      49 | 0x002A      |          42 |
|      50 | 0x002B      |          43 |
|      51 | 0x002C      |          44 |
|      52 | 0x002D      |          45 |
|      53 | 0x002E      |          46 |
|      54 | 0x002F      |          47 |
|      55 | 0x0030      |          48 |
|      56 | 0x1D41      |        7489 |
|      57 | 0x0031      |          49 |
|      58 | 0x0032      |          50 |
|      59 | 0x0033      |          51 |
|      60 | 0x0034      |          52 |
|      61 | 0x0035      |          53 |
|      62 | 0x0036      |          54 |
|      63 | 0x0037      |          55 |
|      64 | 0x1D43      |        7491 |
|      65 | 0x0038      |          56 |
|      66 | 0x0039      |          57 |
|      67 | 0x003A      |          58 |
|      68 | 0x003B      |          59 |
|      69 | 0x003C      |          60 |
|      70 | 0x003D      |          61 |
|      71 | 0x003E      |          62 |
|      72 | 0x003F      |          63 |
|      73 | 0x0040      |          64 |
|      74 | 0x0041      |          65 |
|      75 | 0x0042      |          66 |
|      76 | 0x0043      |          67 |
|      77 | 0x0044      |          68 |
|      78 | 0x1D28      |        7464 |
|      79 | 0x01F4      |         500 |
|      80 | 0x01F5      |         501 |
|      81 | 0x01F6      |         502 |
|      82 | 0x01F7      |         503 |
|      83 | 0x01F8      |         504 |
|      84 | 0x1D31      |        7473 |
|      85 | 0x01FE      |         510 |
|      86 | 0x01FF      |         511 |
|      87 | 0x0200      |         512 |
|      88 | 0x0201      |         513 |
|      89 | 0x0202      |         514 |
|      90 | 0x0203      |         515 |
|      91 | 0x0204      |         516 |
|      92 | 0x0205      |         517 |
|      93 | 0x0206      |         518 |

## String References

- **7462**: What will you set? [Nothing, nothing at all./Treasures of Aht Urhgan!/Aht Urhgan, July, 2006!/Aht Urhgan, Oct, 2006!/Aht Urhgan, Mar, 2007!/Aht Urhgan, May, 2007!/Aht Urhgan, Aug, 2007!/Mercenary Assessment./Mercenary Rank.]
- **7463**: Set what now? [Nevermind./MS00_Beginning/MS01_Naja's first errand/MS01_Delivered to the Immortals/MS01_Joined the Sentinels/MS02_Raillefal enters/MS02_Met Cacaroon/MS02_Heard the Shiny shiny spiel/MS02_Seen Walahra and Raillefal/MS02_Got Raillefal's letter/MS02_Showed it to the guards/MS02_Delivered the letter/MS02_The summit in Jeuno/MS02_Talked to Gessho in the teahouse/MS02_Raillefal gets fired]
- **7464**: Set to what level? [Nevermind./Level 1./Level 2./Level 3./Level 4./Level 5.]
- **7472**: Back for more? [Nope./MS03_Asked to check the ruins/MS03_Met Ghatsad in the ruins/MS03_Got fined by Naja, no reward/MS04_Asked to check out ghost ship/MS04_Met ghost hunter Qiqirn/MS04_Got smell to lure ghost/MS04_Popped the formor in Caedarva/MS04_Beat the formor in Caedarva/MS04_Told Naja about the ship/MS04_Escaped from the Ashu Talif/MS04_Blown away by Luzaf/MS04_Heard Gessho talk in Nashmau/MS04_Told Naja about the ship. Again/MS04_Cleared the fashion check/MS04_My employees belong to me!]
- **7473**: What rank do ya want? [Never mind./Private First Class./Superior Private./Lance Corporal./Corporal./Sergeant./Sergeant Major./Chief Sergeant./Second Lieutenant./First Lieutenant.]
- **7487**: Back for more? [Nope./MS05_Ambassador Karababa has arrived/MS05_Asked to guide Karababa in Aydeewa/MS05_Saw Ovjang digging in Aydeewa/MS05_Met Razfahd in Aydeewa/MS05_Asked to protect Karababa in Navukgo/MS05_Luzaf and the Trolls/MS05_Karababa and the Trolls/MS05_Beat the Khimaira/MS05_Told Naja about Navukgo/MS05_Got reward from Karababa]
- **7488**: Back for more? [Nope./MS06_Got invite from palace/MS06_Took job to find Aphmau/MS06_Found Rishfee in Adyeewa/MS06_Heard Ovjang sighting/MS06_Saw Jade Sepulcher lead-in/MS06_Beat Jade Sepulcher boss/MS06_Saw ghost ship events/MS06_Met Amnaf on wharf/MS06_Aphmau goes off with Luzaf/MS06_Various speculation.]
- **7489**: Back for more? [Nope./MS07_Hunt down Duzaf!/MS07_Ashu Talif reunion with Aphmau/MS07_Washed up in Talacca/MS07_Took out Gessho in Talacca/MS07_The Dark God and Hazhalm/MS07_The Dark God and Hazhalm 2/MS07_The Empire puts plans into motion]
- **7491**: Back for more? [Nope./MS08_Heard the Teahouse talk/MS08_Went to military council/MS08_Stealth airship has left/MS08_Airship shot down/MS08_Heard info from Romidin/MS08_Saw Nyzul event/MS08_Took out Amnaf/MS08_Naja and Nashmeira/MS08_Saw pre-Alex battle event/MS08_Shut down Alex/MS08_Wrap-up at palace/MS08_Denouement/MS08_And after that...]

## Events

### Event 65535

#### Metadata

| Field        | Value   |
|--------------|---------|
| Entrypoint   | 0x0000  |
| Data Size    | 1 bytes |
| Instructions | 1       |

```
      00 01 02 03 04 05 06 07  08 09 0A 0B 0C 0D 0E 0F
      -- -- -- -- -- -- -- --  -- -- -- -- -- -- -- --
0000: 00                                                .               
```

#### Opcodes

```
  0: 0x0000 [0x00] END_REQSTACK()
```

### Event 65

#### Metadata

| Field        | Value      |
|--------------|------------|
| Entrypoint   | 0x0001     |
| Data Size    | 1703 bytes |
| Instructions | 263        |

```
      00 01 02 03 04 05 06 07  08 09 0A 0B 0C 0D 0E 0F
      -- -- -- -- -- -- -- --  -- -- -- -- -- -- -- --
0000:    24 00 80 01 80 01 80  25 02 00 10 01 80 00 19   $......%.......
0010: 00 03 01 10 02 80 01 89  00 02 00 10 03 80 00 27  ...............'
0020: 00 01 8B 00 01 89 00 02  00 10 04 80 00 35 00 01  .............5..
0030: 98 01 01 89 00 02 00 10  05 80 00 43 00 01 A4 02  ...........C....
0040: 01 89 00 02 00 10 06 80  00 51 00 01 60 03 01 89  .........Q..`...
0050: 00 02 00 10 07 80 00 5F  00 01 1C 04 01 89 00 02  ......._........
0060: 00 10 08 80 00 6D 00 01  A8 04 01 89 00 02 00 10  .....m..........
0070: 09 80 00 7B 00 01 94 05  01 89 00 02 00 10 0A 80  ...{............
0080: 00 89 00 01 FE 05 01 89  00 21 00 45 0B 80 F0 FF  .........!.E....
0090: FF 7F F0 FF FF 7F 00 FE  FE FE 01 80 24 0C 80 01  ............$...
00A0: 80 01 80 25 02 00 10 01  80 00 B4 00 03 01 10 02  ...%............
00B0: 80 01 94 01 02 00 10 03  80 00 C4 00 03 01 10 01  ................
00C0: 80 01 94 01 02 00 10 04  80 00 D4 00 03 01 10 03  ................
00D0: 80 01 94 01 02 00 10 05  80 00 E4 00 03 01 10 04  ................
00E0: 80 01 94 01 02 00 10 06  80 00 F4 00 03 01 10 05  ................
00F0: 80 01 94 01 02 00 10 07  80 00 04 01 03 01 10 06  ................
0100: 80 01 94 01 02 00 10 08  80 00 14 01 03 01 10 07  ................
0110: 80 01 94 01 02 00 10 09  80 00 24 01 03 01 10 08  ..........$.....
0120: 80 01 94 01 02 00 10 0A  80 00 34 01 03 01 10 09  ..........4.....
0130: 80 01 94 01 02 00 10 0D  80 00 44 01 03 01 10 0A  ..........D.....
0140: 80 01 94 01 02 00 10 0E  80 00 54 01 03 01 10 0D  ..........T.....
0150: 80 01 94 01 02 00 10 0F  80 00 64 01 03 01 10 0E  ..........d.....
0160: 80 01 94 01 02 00 10 10  80 00 74 01 03 01 10 0F  ..........t.....
0170: 80 01 94 01 02 00 10 11  80 00 84 01 03 01 10 10  ................
0180: 80 01 94 01 02 00 10 12  80 00 94 01 03 01 10 11  ................
0190: 80 01 94 01 01 89 00 00  24 13 80 01 80 01 80 25  ........$......%
01A0: 02 00 10 01 80 00 B0 01  03 01 10 02 80 01 A0 02  ................
01B0: 02 00 10 03 80 00 C0 01  03 01 10 12 80 01 A0 02  ................
01C0: 02 00 10 04 80 00 D0 01  03 01 10 14 80 01 A0 02  ................
01D0: 02 00 10 05 80 00 E0 01  03 01 10 15 80 01 A0 02  ................
01E0: 02 00 10 06 80 00 F0 01  03 01 10 16 80 01 A0 02  ................
01F0: 02 00 10 07 80 00 00 02  03 01 10 17 80 01 A0 02  ................
0200: 02 00 10 08 80 00 10 02  03 01 10 18 80 01 A0 02  ................
0210: 02 00 10 09 80 00 20 02  03 01 10 19 80 01 A0 02  ...... .........
0220: 02 00 10 0A 80 00 30 02  03 01 10 1A 80 01 A0 02  ......0.........
0230: 02 00 10 0D 80 00 40 02  03 01 10 1B 80 01 A0 02  ......@.........
0240: 02 00 10 0E 80 00 50 02  03 01 10 1C 80 01 A0 02  ......P.........
0250: 02 00 10 0F 80 00 60 02  03 01 10 1D 80 01 A0 02  ......`.........
0260: 02 00 10 10 80 00 70 02  03 01 10 1E 80 01 A0 02  ......p.........
0270: 02 00 10 11 80 00 80 02  03 01 10 1F 80 01 A0 02  ................
0280: 02 00 10 12 80 00 90 02  03 01 10 20 80 01 A0 02  ........... ....
0290: 02 00 10 14 80 00 A0 02  03 01 10 21 80 01 A0 02  ...........!....
02A0: 01 89 00 00 24 22 80 01  80 01 80 25 02 00 10 01  ....$".....%....
02B0: 80 00 BC 02 03 01 10 02  80 01 5C 03 02 00 10 03  ..........\.....
02C0: 80 00 CC 02 03 01 10 23  80 01 5C 03 02 00 10 04  .......#..\.....
02D0: 80 00 DC 02 03 01 10 24  80 01 5C 03 02 00 10 05  .......$..\.....
02E0: 80 00 EC 02 03 01 10 25  80 01 5C 03 02 00 10 06  .......%..\.....
02F0: 80 00 FC 02 03 01 10 26  80 01 5C 03 02 00 10 07  .......&..\.....
0300: 80 00 0C 03 03 01 10 27  80 01 5C 03 02 00 10 08  .......'..\.....
0310: 80 00 1C 03 03 01 10 28  80 01 5C 03 02 00 10 09  .......(..\.....
0320: 80 00 2C 03 03 01 10 29  80 01 5C 03 02 00 10 0A  ..,....)..\.....
0330: 80 00 3C 03 03 01 10 2A  80 01 5C 03 02 00 10 0D  ..<....*..\.....
0340: 80 00 4C 03 03 01 10 2B  80 01 5C 03 02 00 10 0E  ..L....+..\.....
0350: 80 00 5C 03 03 01 10 2C  80 01 5C 03 01 89 00 00  ..\....,..\.....
0360: 24 2D 80 01 80 01 80 25  02 00 10 01 80 00 78 03  $-.....%......x.
0370: 03 01 10 02 80 01 18 04  02 00 10 03 80 00 88 03  ................
0380: 03 01 10 2E 80 01 18 04  02 00 10 04 80 00 98 03  ................
0390: 03 01 10 2F 80 01 18 04  02 00 10 05 80 00 A8 03  .../............
03A0: 03 01 10 30 80 01 18 04  02 00 10 06 80 00 B8 03  ...0............
03B0: 03 01 10 31 80 01 18 04  02 00 10 07 80 00 C8 03  ...1............
03C0: 03 01 10 32 80 01 18 04  02 00 10 08 80 00 D8 03  ...2............
03D0: 03 01 10 33 80 01 18 04  02 00 10 09 80 00 E8 03  ...3............
03E0: 03 01 10 34 80 01 18 04  02 00 10 0A 80 00 F8 03  ...4............
03F0: 03 01 10 35 80 01 18 04  02 00 10 0D 80 00 08 04  ...5............
0400: 03 01 10 36 80 01 18 04  02 00 10 0E 80 00 18 04  ...6............
0410: 03 01 10 37 80 01 18 04  01 89 00 00 24 38 80 01  ...7........$8..
0420: 80 01 80 25 02 00 10 01  80 00 34 04 03 01 10 02  ...%......4.....
0430: 80 01 A4 04 02 00 10 03  80 00 44 04 03 01 10 39  ..........D....9
0440: 80 01 A4 04 02 00 10 04  80 00 54 04 03 01 10 3A  ..........T....:
0450: 80 01 A4 04 02 00 10 05  80 00 64 04 03 01 10 3B  ..........d....;
0460: 80 01 A4 04 02 00 10 06  80 00 74 04 03 01 10 3C  ..........t....<
0470: 80 01 A4 04 02 00 10 07  80 00 84 04 03 01 10 3D  ...............=
0480: 80 01 A4 04 02 00 10 08  80 00 94 04 03 01 10 3E  ...............>
0490: 80 01 A4 04 02 00 10 09  80 00 A4 04 03 01 10 3F  ...............?
04A0: 80 01 A4 04 01 89 00 00  24 40 80 01 80 01 80 25  ........$@.....%
04B0: 02 00 10 01 80 00 C0 04  03 01 10 02 80 01 90 05  ................
04C0: 02 00 10 03 80 00 D0 04  03 01 10 41 80 01 90 05  ...........A....
04D0: 02 00 10 04 80 00 E0 04  03 01 10 42 80 01 90 05  ...........B....
04E0: 02 00 10 05 80 00 F0 04  03 01 10 43 80 01 90 05  ...........C....
04F0: 02 00 10 06 80 00 00 05  03 01 10 44 80 01 90 05  ...........D....
0500: 02 00 10 07 80 00 10 05  03 01 10 45 80 01 90 05  ...........E....
0510: 02 00 10 08 80 00 20 05  03 01 10 46 80 01 90 05  ...... ....F....
0520: 02 00 10 09 80 00 30 05  03 01 10 47 80 01 90 05  ......0....G....
0530: 02 00 10 0A 80 00 40 05  03 01 10 48 80 01 90 05  ......@....H....
0540: 02 00 10 0D 80 00 50 05  03 01 10 49 80 01 90 05  ......P....I....
0550: 02 00 10 0E 80 00 60 05  03 01 10 4A 80 01 90 05  ......`....J....
0560: 02 00 10 0F 80 00 70 05  03 01 10 4B 80 01 90 05  ......p....K....
0570: 02 00 10 10 80 00 80 05  03 01 10 4C 80 01 90 05  ...........L....
0580: 02 00 10 11 80 00 90 05  03 01 10 4D 80 01 90 05  ...........M....
0590: 01 89 00 00 24 4E 80 01  80 01 80 25 02 00 10 01  ....$N.....%....
05A0: 80 00 AA 05 01 01 00 01  FA 05 02 00 10 03 80 00  ................
05B0: BA 05 03 01 10 4F 80 01  FA 05 02 00 10 04 80 00  .....O..........
05C0: CA 05 03 01 10 50 80 01  FA 05 02 00 10 05 80 00  .....P..........
05D0: DA 05 03 01 10 51 80 01  FA 05 02 00 10 06 80 00  .....Q..........
05E0: EA 05 03 01 10 52 80 01  FA 05 02 00 10 07 80 00  .....R..........
05F0: FA 05 03 01 10 53 80 01  FA 05 01 89 00 00 24 54  .....S........$T
0600: 80 01 80 01 80 25 02 00  10 01 80 00 14 06 01 01  .....%..........
0610: 00 01 A4 06 02 00 10 03  80 00 24 06 03 01 10 55  ..........$....U
0620: 80 01 A4 06 02 00 10 04  80 00 34 06 03 01 10 56  ..........4....V
0630: 80 01 A4 06 02 00 10 05  80 00 44 06 03 01 10 57  ..........D....W
0640: 80 01 A4 06 02 00 10 06  80 00 54 06 03 01 10 58  ..........T....X
0650: 80 01 A4 06 02 00 10 07  80 00 64 06 03 01 10 59  ..........d....Y
0660: 80 01 A4 06 02 00 10 08  80 00 74 06 03 01 10 5A  ..........t....Z
0670: 80 01 A4 06 02 00 10 09  80 00 84 06 03 01 10 5B  ...............[
0680: 80 01 A4 06 02 00 10 0A  80 00 94 06 03 01 10 5C  ...............\
0690: 80 01 A4 06 02 00 10 0D  80 00 A4 06 03 01 10 5D  ...............]
06A0: 80 01 A4 06 01 89 00 00                           ........        
```

#### Opcodes

```
  0: 0x0001 [0x24] CREATE_DIALOG(message_id=7462*, default_option=0*, option_flags=0*)
    → "What will you set? [Nothing, nothing at all./Treasures of Aht Urhgan!/Aht Urhgan, July, 2006!/Aht Urhgan, Oct, 2006!/Aht Urhgan, Mar, 2007!/Aht Urhgan, May, 2007!/Aht Urhgan, Aug, 2007!/Mercenary Assessment./Mercenary Rank.]"
  1: 0x0008 [0x25] WAIT_DIALOG_SELECT()
  2: 0x0009 [0x02] IF !(Work_Zone[0] == 0*) GOTO 0x0019
  3: 0x0011 [0x03] Work_Zone[1] = 1073741824*
  4: 0x0016 [0x01] GOTO 0x0089
  5: 0x0019 [0x02] IF !(Work_Zone[0] == 1*) GOTO 0x0027
  6: 0x0021 [0x01] GOTO 0x008B

SUBROUTINE_0089:
  7: 0x0089 [0x21] END_EVENT
  8: 0x008A [0x00] END_REQSTACK()

SUBROUTINE_008B:
  9: 0x008B [0x45] LOAD_SCHEDULED_TASK: Load scheduler 0xFEFEFE00 with entities [LocalPlayer, LocalPlayer], work=[306*, 0*]
 10: 0x009C [0x24] CREATE_DIALOG(message_id=7463*, default_option=0*, option_flags=0*)
    → "Set what now? [Nevermind./MS00_Beginning/MS01_Naja's first errand/MS01_Delivered to the Immortals/MS01_Joined the Sentinels/MS02_Raillefal enters/MS02_Met Cacaroon/MS02_Heard the Shiny shiny spiel/MS02_Seen Walahra and Raillefal/MS02_Got Raillefal's letter/MS02_Showed it to the guards/MS02_Delivered the letter/MS02_The summit in Jeuno/MS02_Talked to Gessho in the teahouse/MS02_Raillefal gets fired]"
 11: 0x00A3 [0x25] WAIT_DIALOG_SELECT()
 12: 0x00A4 [0x02] IF !(Work_Zone[0] == 0*) GOTO 0x00B4
 13: 0x00AC [0x03] Work_Zone[1] = 1073741824*
 14: 0x00B1 [0x01] GOTO 0x0194
 15: 0x00B4 [0x02] IF !(Work_Zone[0] == 1*) GOTO 0x00C4
 16: 0x00BC [0x03] Work_Zone[1] = 0*
 17: 0x00C1 [0x01] GOTO 0x0194
 18: 0x00C4 [0x02] IF !(Work_Zone[0] == 2*) GOTO 0x00D4
 19: 0x00CC [0x03] Work_Zone[1] = 1*
 20: 0x00D1 [0x01] GOTO 0x0194
 21: 0x00D4 [0x02] IF !(Work_Zone[0] == 3*) GOTO 0x00E4
 22: 0x00DC [0x03] Work_Zone[1] = 2*
 23: 0x00E1 [0x01] GOTO 0x0194
 24: 0x00E4 [0x02] IF !(Work_Zone[0] == 4*) GOTO 0x00F4
 25: 0x00EC [0x03] Work_Zone[1] = 3*
 26: 0x00F1 [0x01] GOTO 0x0194
 27: 0x00F4 [0x02] IF !(Work_Zone[0] == 5*) GOTO 0x0104
 28: 0x00FC [0x03] Work_Zone[1] = 4*
 29: 0x0101 [0x01] GOTO 0x0194
 30: 0x0104 [0x02] IF !(Work_Zone[0] == 6*) GOTO 0x0114
 31: 0x010C [0x03] Work_Zone[1] = 5*
 32: 0x0111 [0x01] GOTO 0x0194
 33: 0x0114 [0x02] IF !(Work_Zone[0] == 7*) GOTO 0x0124
 34: 0x011C [0x03] Work_Zone[1] = 6*
 35: 0x0121 [0x01] GOTO 0x0194
 36: 0x0124 [0x02] IF !(Work_Zone[0] == 8*) GOTO 0x0134
 37: 0x012C [0x03] Work_Zone[1] = 7*
 38: 0x0131 [0x01] GOTO 0x0194
 39: 0x0134 [0x02] IF !(Work_Zone[0] == 9*) GOTO 0x0144
 40: 0x013C [0x03] Work_Zone[1] = 8*
 41: 0x0141 [0x01] GOTO 0x0194
 42: 0x0144 [0x02] IF !(Work_Zone[0] == 10*) GOTO 0x0154
 43: 0x014C [0x03] Work_Zone[1] = 9*
 44: 0x0151 [0x01] GOTO 0x0194
 45: 0x0154 [0x02] IF !(Work_Zone[0] == 11*) GOTO 0x0164
 46: 0x015C [0x03] Work_Zone[1] = 10*
 47: 0x0161 [0x01] GOTO 0x0194
 48: 0x0164 [0x02] IF !(Work_Zone[0] == 12*) GOTO 0x0174
 49: 0x016C [0x03] Work_Zone[1] = 11*
 50: 0x0171 [0x01] GOTO 0x0194
 51: 0x0174 [0x02] IF !(Work_Zone[0] == 13*) GOTO 0x0184
 52: 0x017C [0x03] Work_Zone[1] = 12*
 53: 0x0181 [0x01] GOTO 0x0194
 54: 0x0184 [0x02] IF !(Work_Zone[0] == 14*) GOTO 0x0194
 55: 0x018C [0x03] Work_Zone[1] = 13*
 56: 0x0191 [0x01] GOTO 0x0194

SUBROUTINE_0194:
 57: 0x0194 [0x01] GOTO 0x0089

SUBROUTINE_0198:
 58: 0x0198 [0x24] CREATE_DIALOG(message_id=7472*, default_option=0*, option_flags=0*)
    → "Back for more? [Nope./MS03_Asked to check the ruins/MS03_Met Ghatsad in the ruins/MS03_Got fined by Naja, no reward/MS04_Asked to check out ghost ship/MS04_Met ghost hunter Qiqirn/MS04_Got smell to lure ghost/MS04_Popped the formor in Caedarva/MS04_Beat the formor in Caedarva/MS04_Told Naja about the ship/MS04_Escaped from the Ashu Talif/MS04_Blown away by Luzaf/MS04_Heard Gessho talk in Nashmau/MS04_Told Naja about the ship. Again/MS04_Cleared the fashion check/MS04_My employees belong to me!]"
 59: 0x019F [0x25] WAIT_DIALOG_SELECT()
 60: 0x01A0 [0x02] IF !(Work_Zone[0] == 0*) GOTO 0x01B0
 61: 0x01A8 [0x03] Work_Zone[1] = 1073741824*
 62: 0x01AD [0x01] GOTO 0x02A0
 63: 0x01B0 [0x02] IF !(Work_Zone[0] == 1*) GOTO 0x01C0
 64: 0x01B8 [0x03] Work_Zone[1] = 14*
 65: 0x01BD [0x01] GOTO 0x02A0
 66: 0x01C0 [0x02] IF !(Work_Zone[0] == 2*) GOTO 0x01D0
 67: 0x01C8 [0x03] Work_Zone[1] = 15*
 68: 0x01CD [0x01] GOTO 0x02A0
 69: 0x01D0 [0x02] IF !(Work_Zone[0] == 3*) GOTO 0x01E0
 70: 0x01D8 [0x03] Work_Zone[1] = 16*
 71: 0x01DD [0x01] GOTO 0x02A0
 72: 0x01E0 [0x02] IF !(Work_Zone[0] == 4*) GOTO 0x01F0
 73: 0x01E8 [0x03] Work_Zone[1] = 17*
 74: 0x01ED [0x01] GOTO 0x02A0
 75: 0x01F0 [0x02] IF !(Work_Zone[0] == 5*) GOTO 0x0200
 76: 0x01F8 [0x03] Work_Zone[1] = 18*
 77: 0x01FD [0x01] GOTO 0x02A0
 78: 0x0200 [0x02] IF !(Work_Zone[0] == 6*) GOTO 0x0210
 79: 0x0208 [0x03] Work_Zone[1] = 19*
 80: 0x020D [0x01] GOTO 0x02A0
 81: 0x0210 [0x02] IF !(Work_Zone[0] == 7*) GOTO 0x0220
 82: 0x0218 [0x03] Work_Zone[1] = 20*
 83: 0x021D [0x01] GOTO 0x02A0
 84: 0x0220 [0x02] IF !(Work_Zone[0] == 8*) GOTO 0x0230
 85: 0x0228 [0x03] Work_Zone[1] = 21*
 86: 0x022D [0x01] GOTO 0x02A0
 87: 0x0230 [0x02] IF !(Work_Zone[0] == 9*) GOTO 0x0240
 88: 0x0238 [0x03] Work_Zone[1] = 22*
 89: 0x023D [0x01] GOTO 0x02A0
 90: 0x0240 [0x02] IF !(Work_Zone[0] == 10*) GOTO 0x0250
 91: 0x0248 [0x03] Work_Zone[1] = 23*
 92: 0x024D [0x01] GOTO 0x02A0
 93: 0x0250 [0x02] IF !(Work_Zone[0] == 11*) GOTO 0x0260
 94: 0x0258 [0x03] Work_Zone[1] = 24*
 95: 0x025D [0x01] GOTO 0x02A0
 96: 0x0260 [0x02] IF !(Work_Zone[0] == 12*) GOTO 0x0270
 97: 0x0268 [0x03] Work_Zone[1] = 25*
 98: 0x026D [0x01] GOTO 0x02A0
 99: 0x0270 [0x02] IF !(Work_Zone[0] == 13*) GOTO 0x0280
100: 0x0278 [0x03] Work_Zone[1] = 26*
101: 0x027D [0x01] GOTO 0x02A0
102: 0x0280 [0x02] IF !(Work_Zone[0] == 14*) GOTO 0x0290
103: 0x0288 [0x03] Work_Zone[1] = 27*
104: 0x028D [0x01] GOTO 0x02A0
105: 0x0290 [0x02] IF !(Work_Zone[0] == 15*) GOTO 0x02A0
106: 0x0298 [0x03] Work_Zone[1] = 28*
107: 0x029D [0x01] GOTO 0x02A0

SUBROUTINE_02A0:
108: 0x02A0 [0x01] GOTO 0x0089

SUBROUTINE_02A4:
109: 0x02A4 [0x24] CREATE_DIALOG(message_id=7487*, default_option=0*, option_flags=0*)
    → "Back for more? [Nope./MS05_Ambassador Karababa has arrived/MS05_Asked to guide Karababa in Aydeewa/MS05_Saw Ovjang digging in Aydeewa/MS05_Met Razfahd in Aydeewa/MS05_Asked to protect Karababa in Navukgo/MS05_Luzaf and the Trolls/MS05_Karababa and the Trolls/MS05_Beat the Khimaira/MS05_Told Naja about Navukgo/MS05_Got reward from Karababa]"
110: 0x02AB [0x25] WAIT_DIALOG_SELECT()
111: 0x02AC [0x02] IF !(Work_Zone[0] == 0*) GOTO 0x02BC
112: 0x02B4 [0x03] Work_Zone[1] = 1073741824*
113: 0x02B9 [0x01] GOTO 0x035C
114: 0x02BC [0x02] IF !(Work_Zone[0] == 1*) GOTO 0x02CC
115: 0x02C4 [0x03] Work_Zone[1] = 29*
116: 0x02C9 [0x01] GOTO 0x035C
117: 0x02CC [0x02] IF !(Work_Zone[0] == 2*) GOTO 0x02DC
118: 0x02D4 [0x03] Work_Zone[1] = 30*
119: 0x02D9 [0x01] GOTO 0x035C
120: 0x02DC [0x02] IF !(Work_Zone[0] == 3*) GOTO 0x02EC
121: 0x02E4 [0x03] Work_Zone[1] = 31*
122: 0x02E9 [0x01] GOTO 0x035C
123: 0x02EC [0x02] IF !(Work_Zone[0] == 4*) GOTO 0x02FC
124: 0x02F4 [0x03] Work_Zone[1] = 32*
125: 0x02F9 [0x01] GOTO 0x035C
126: 0x02FC [0x02] IF !(Work_Zone[0] == 5*) GOTO 0x030C
127: 0x0304 [0x03] Work_Zone[1] = 33*
128: 0x0309 [0x01] GOTO 0x035C
129: 0x030C [0x02] IF !(Work_Zone[0] == 6*) GOTO 0x031C
130: 0x0314 [0x03] Work_Zone[1] = 34*
131: 0x0319 [0x01] GOTO 0x035C
132: 0x031C [0x02] IF !(Work_Zone[0] == 7*) GOTO 0x032C
133: 0x0324 [0x03] Work_Zone[1] = 35*
134: 0x0329 [0x01] GOTO 0x035C
135: 0x032C [0x02] IF !(Work_Zone[0] == 8*) GOTO 0x033C
136: 0x0334 [0x03] Work_Zone[1] = 36*
137: 0x0339 [0x01] GOTO 0x035C
138: 0x033C [0x02] IF !(Work_Zone[0] == 9*) GOTO 0x034C
139: 0x0344 [0x03] Work_Zone[1] = 37*
140: 0x0349 [0x01] GOTO 0x035C
141: 0x034C [0x02] IF !(Work_Zone[0] == 10*) GOTO 0x035C
142: 0x0354 [0x03] Work_Zone[1] = 38*
143: 0x0359 [0x01] GOTO 0x035C

SUBROUTINE_035C:
144: 0x035C [0x01] GOTO 0x0089

SUBROUTINE_0360:
145: 0x0360 [0x24] CREATE_DIALOG(message_id=7488*, default_option=0*, option_flags=0*)
    → "Back for more? [Nope./MS06_Got invite from palace/MS06_Took job to find Aphmau/MS06_Found Rishfee in Adyeewa/MS06_Heard Ovjang sighting/MS06_Saw Jade Sepulcher lead-in/MS06_Beat Jade Sepulcher boss/MS06_Saw ghost ship events/MS06_Met Amnaf on wharf/MS06_Aphmau goes off with Luzaf/MS06_Various speculation.]"
146: 0x0367 [0x25] WAIT_DIALOG_SELECT()
147: 0x0368 [0x02] IF !(Work_Zone[0] == 0*) GOTO 0x0378
148: 0x0370 [0x03] Work_Zone[1] = 1073741824*
149: 0x0375 [0x01] GOTO 0x0418
150: 0x0378 [0x02] IF !(Work_Zone[0] == 1*) GOTO 0x0388
151: 0x0380 [0x03] Work_Zone[1] = 39*
152: 0x0385 [0x01] GOTO 0x0418
153: 0x0388 [0x02] IF !(Work_Zone[0] == 2*) GOTO 0x0398
154: 0x0390 [0x03] Work_Zone[1] = 40*
155: 0x0395 [0x01] GOTO 0x0418
156: 0x0398 [0x02] IF !(Work_Zone[0] == 3*) GOTO 0x03A8
157: 0x03A0 [0x03] Work_Zone[1] = 41*
158: 0x03A5 [0x01] GOTO 0x0418
159: 0x03A8 [0x02] IF !(Work_Zone[0] == 4*) GOTO 0x03B8
160: 0x03B0 [0x03] Work_Zone[1] = 42*
161: 0x03B5 [0x01] GOTO 0x0418
162: 0x03B8 [0x02] IF !(Work_Zone[0] == 5*) GOTO 0x03C8
163: 0x03C0 [0x03] Work_Zone[1] = 43*
164: 0x03C5 [0x01] GOTO 0x0418
165: 0x03C8 [0x02] IF !(Work_Zone[0] == 6*) GOTO 0x03D8
166: 0x03D0 [0x03] Work_Zone[1] = 44*
167: 0x03D5 [0x01] GOTO 0x0418
168: 0x03D8 [0x02] IF !(Work_Zone[0] == 7*) GOTO 0x03E8
169: 0x03E0 [0x03] Work_Zone[1] = 45*
170: 0x03E5 [0x01] GOTO 0x0418
171: 0x03E8 [0x02] IF !(Work_Zone[0] == 8*) GOTO 0x03F8
172: 0x03F0 [0x03] Work_Zone[1] = 46*
173: 0x03F5 [0x01] GOTO 0x0418
174: 0x03F8 [0x02] IF !(Work_Zone[0] == 9*) GOTO 0x0408
175: 0x0400 [0x03] Work_Zone[1] = 47*
176: 0x0405 [0x01] GOTO 0x0418
177: 0x0408 [0x02] IF !(Work_Zone[0] == 10*) GOTO 0x0418
178: 0x0410 [0x03] Work_Zone[1] = 48*
179: 0x0415 [0x01] GOTO 0x0418

SUBROUTINE_0418:
180: 0x0418 [0x01] GOTO 0x0089

SUBROUTINE_041C:
181: 0x041C [0x24] CREATE_DIALOG(message_id=7489*, default_option=0*, option_flags=0*)
    → "Back for more? [Nope./MS07_Hunt down Duzaf!/MS07_Ashu Talif reunion with Aphmau/MS07_Washed up in Talacca/MS07_Took out Gessho in Talacca/MS07_The Dark God and Hazhalm/MS07_The Dark God and Hazhalm 2/MS07_The Empire puts plans into motion]"
182: 0x0423 [0x25] WAIT_DIALOG_SELECT()
183: 0x0424 [0x02] IF !(Work_Zone[0] == 0*) GOTO 0x0434
184: 0x042C [0x03] Work_Zone[1] = 1073741824*
185: 0x0431 [0x01] GOTO 0x04A4
186: 0x0434 [0x02] IF !(Work_Zone[0] == 1*) GOTO 0x0444
187: 0x043C [0x03] Work_Zone[1] = 49*
188: 0x0441 [0x01] GOTO 0x04A4
189: 0x0444 [0x02] IF !(Work_Zone[0] == 2*) GOTO 0x0454
190: 0x044C [0x03] Work_Zone[1] = 50*
191: 0x0451 [0x01] GOTO 0x04A4
192: 0x0454 [0x02] IF !(Work_Zone[0] == 3*) GOTO 0x0464
193: 0x045C [0x03] Work_Zone[1] = 51*
194: 0x0461 [0x01] GOTO 0x04A4
195: 0x0464 [0x02] IF !(Work_Zone[0] == 4*) GOTO 0x0474
196: 0x046C [0x03] Work_Zone[1] = 52*
197: 0x0471 [0x01] GOTO 0x04A4
198: 0x0474 [0x02] IF !(Work_Zone[0] == 5*) GOTO 0x0484
199: 0x047C [0x03] Work_Zone[1] = 53*
200: 0x0481 [0x01] GOTO 0x04A4
201: 0x0484 [0x02] IF !(Work_Zone[0] == 6*) GOTO 0x0494
202: 0x048C [0x03] Work_Zone[1] = 54*
203: 0x0491 [0x01] GOTO 0x04A4
204: 0x0494 [0x02] IF !(Work_Zone[0] == 7*) GOTO 0x04A4
205: 0x049C [0x03] Work_Zone[1] = 55*
206: 0x04A1 [0x01] GOTO 0x04A4

SUBROUTINE_04A4:
207: 0x04A4 [0x01] GOTO 0x0089

SUBROUTINE_04A8:
208: 0x04A8 [0x24] CREATE_DIALOG(message_id=7491*, default_option=0*, option_flags=0*)
    → "Back for more? [Nope./MS08_Heard the Teahouse talk/MS08_Went to military council/MS08_Stealth airship has left/MS08_Airship shot down/MS08_Heard info from Romidin/MS08_Saw Nyzul event/MS08_Took out Amnaf/MS08_Naja and Nashmeira/MS08_Saw pre-Alex battle event/MS08_Shut down Alex/MS08_Wrap-up at palace/MS08_Denouement/MS08_And after that...]"
209: 0x04AF [0x25] WAIT_DIALOG_SELECT()
210: 0x04B0 [0x02] IF !(Work_Zone[0] == 0*) GOTO 0x04C0
211: 0x04B8 [0x03] Work_Zone[1] = 1073741824*
212: 0x04BD [0x01] GOTO 0x0590
213: 0x04C0 [0x02] IF !(Work_Zone[0] == 1*) GOTO 0x04D0
214: 0x04C8 [0x03] Work_Zone[1] = 56*
215: 0x04CD [0x01] GOTO 0x0590
216: 0x04D0 [0x02] IF !(Work_Zone[0] == 2*) GOTO 0x04E0
217: 0x04D8 [0x03] Work_Zone[1] = 57*
218: 0x04DD [0x01] GOTO 0x0590
219: 0x04E0 [0x02] IF !(Work_Zone[0] == 3*) GOTO 0x04F0
220: 0x04E8 [0x03] Work_Zone[1] = 58*
221: 0x04ED [0x01] GOTO 0x0590
222: 0x04F0 [0x02] IF !(Work_Zone[0] == 4*) GOTO 0x0500
223: 0x04F8 [0x03] Work_Zone[1] = 59*
224: 0x04FD [0x01] GOTO 0x0590
225: 0x0500 [0x02] IF !(Work_Zone[0] == 5*) GOTO 0x0510
226: 0x0508 [0x03] Work_Zone[1] = 60*
227: 0x050D [0x01] GOTO 0x0590
228: 0x0510 [0x02] IF !(Work_Zone[0] == 6*) GOTO 0x0520
229: 0x0518 [0x03] Work_Zone[1] = 61*
230: 0x051D [0x01] GOTO 0x0590
231: 0x0520 [0x02] IF !(Work_Zone[0] == 7*) GOTO 0x0530
232: 0x0528 [0x03] Work_Zone[1] = 62*
233: 0x052D [0x01] GOTO 0x0590
234: 0x0530 [0x02] IF !(Work_Zone[0] == 8*) GOTO 0x0540
235: 0x0538 [0x03] Work_Zone[1] = 63*
236: 0x053D [0x01] GOTO 0x0590
237: 0x0540 [0x02] IF !(Work_Zone[0] == 9*) GOTO 0x0550
238: 0x0548 [0x03] Work_Zone[1] = 64*
239: 0x054D [0x01] GOTO 0x0590
240: 0x0550 [0x02] IF !(Work_Zone[0] == 10*) GOTO 0x0560
241: 0x0558 [0x03] Work_Zone[1] = 65*
242: 0x055D [0x01] GOTO 0x0590
243: 0x0560 [0x02] IF !(Work_Zone[0] == 11*) GOTO 0x0570
244: 0x0568 [0x03] Work_Zone[1] = 66*
245: 0x056D [0x01] GOTO 0x0590
246: 0x0570 [0x02] IF !(Work_Zone[0] == 12*) GOTO 0x0580
247: 0x0578 [0x03] Work_Zone[1] = 67*
248: 0x057D [0x01] GOTO 0x0590
249: 0x0580 [0x02] IF !(Work_Zone[0] == 13*) GOTO 0x0590
250: 0x0588 [0x03] Work_Zone[1] = 68*
251: 0x058D [0x01] GOTO 0x0590

SUBROUTINE_0590:
252: 0x0590 [0x01] GOTO 0x0089

SUBROUTINE_0594:
253: 0x0594 [0x24] CREATE_DIALOG(message_id=7464*, default_option=0*, option_flags=0*)
    → "Set to what level? [Nevermind./Level 1./Level 2./Level 3./Level 4./Level 5.]"
254: 0x059B [0x25] WAIT_DIALOG_SELECT()
255: 0x059C [0x02] IF !(Work_Zone[0] == 0*) GOTO 0x05AA
256: 0x05A4 [0x01] GOTO 0x0001

SUBROUTINE_05FA:
257: 0x05FA [0x01] GOTO 0x0089

SUBROUTINE_05FE:
258: 0x05FE [0x24] CREATE_DIALOG(message_id=7473*, default_option=0*, option_flags=0*)
    → "What rank do ya want? [Never mind./Private First Class./Superior Private./Lance Corporal./Corporal./Sergeant./Sergeant Major./Chief Sergeant./Second Lieutenant./First Lieutenant.]"
259: 0x0605 [0x25] WAIT_DIALOG_SELECT()
260: 0x0606 [0x02] IF !(Work_Zone[0] == 0*) GOTO 0x0614
261: 0x060E [0x01] GOTO 0x0001

SUBROUTINE_06A4:
262: 0x06A4 [0x01] GOTO 0x0089
```

#### Data or dead code:

```
# Dead code (unreachable instructions):
     0x0024 [0x01] GOTO 0x0089
     0x0032 [0x01] GOTO 0x0089
     0x0040 [0x01] GOTO 0x0089
     0x004E [0x01] GOTO 0x0089
     0x005C [0x01] GOTO 0x0089
     0x006A [0x01] GOTO 0x0089
     0x0078 [0x01] GOTO 0x0089
     0x0086 [0x01] GOTO 0x0089
# Dead code (unreachable instructions):
     0x0197 [0x00] END_REQSTACK()
# Dead code (unreachable instructions):
     0x02A3 [0x00] END_REQSTACK()
# Dead code (unreachable instructions):
     0x035F [0x00] END_REQSTACK()
# Dead code (unreachable instructions):
     0x041B [0x00] END_REQSTACK()
# Dead code (unreachable instructions):
     0x04A7 [0x00] END_REQSTACK()
# Dead code (unreachable instructions):
     0x0593 [0x00] END_REQSTACK()
# Dead code (unreachable instructions):
     0x05A7 [0x01] GOTO 0x05FA
# Dead code (unreachable instructions):
     0x05FD [0x00] END_REQSTACK()
# Dead code (unreachable instructions):
     0x0611 [0x01] GOTO 0x06A4
# Dead code (unreachable instructions):
     0x06A7 [0x00] END_REQSTACK()
```
