# 17637404 - Assault

## Common Data

| Field            | Value             |
|------------------|-------------------|
| Zone             | GM_Home (ID: 210) |
| Block Size       | 256 bytes         |
| Total Events     | 2                 |
| References Count | 14                |

## List of Events

| Event ID              | Entrypoint   |   Size |   Instructions |
|-----------------------|--------------|--------|----------------|
| [65535](#event-65535) | 0x0000       |      1 |              1 |
| [66](#event-66)       | 0x0001       |    173 |             37 |

## DAT References (imed_data)

|   Index | Hex Value   |   Dec Value |
|---------|-------------|-------------|
|       0 | 0x1D2C      |        7468 |
|       1 | 0x0000      |           0 |
|       2 | 0x1D2D      |        7469 |
|       3 | 0x0005      |           5 |
|       4 | 0x000A      |          10 |
|       5 | 0x1D2E      |        7470 |
|       6 | 0x40000000  |  1073741824 |
|       7 | 0x0001      |           1 |
|       8 | 0x03E8      |        1000 |
|       9 | 0x0002      |           2 |
|      10 | 0x07D0      |        2000 |
|      11 | 0x1D2F      |        7471 |
|      12 | 0x0003      |           3 |
|      13 | 0x0BB8      |        3000 |

## String References

- **7468**: Set Assault flags. [Sign up (success/failure flag OFF)./Receive command verification./Change Assault rank./Become a merc.(Affects mision progress!)]
- **7469**: Which Assault area? [Leujaoam Sanctum./Mamool Ja Training Grounds./Lebros Cavern./Periqia./Ilrusi Atoll./None.]
- **7470**: Which mission? [1."."./4./5./6./7./8./9./10.]
- **7471**: What rank? [1."."./4./5./6./7./8./9./10.]

## Events

### Event 65535

#### Metadata

| Field        | Value   |
|--------------|---------|
| Entrypoint   | 0x0000  |
| Data Size    | 1 bytes |
| Instructions | 1       |

```
      00 01 02 03 04 05 06 07  08 09 0A 0B 0C 0D 0E 0F
      -- -- -- -- -- -- -- --  -- -- -- -- -- -- -- --
0000: 00                                                .               
```

#### Opcodes

```
  0: 0x0000 [0x00] END_REQSTACK()
```

### Event 66

#### Metadata

| Field        | Value     |
|--------------|-----------|
| Entrypoint   | 0x0001    |
| Data Size    | 173 bytes |
| Instructions | 37        |

```
      00 01 02 03 04 05 06 07  08 09 0A 0B 0C 0D 0E 0F
      -- -- -- -- -- -- -- --  -- -- -- -- -- -- -- --
0000:    24 00 80 01 80 01 80  25 02 00 10 01 80 00 61   $......%......a
0010: 00 24 02 80 01 80 01 80  25 02 00 10 01 80 00 24  .$......%......$
0020: 00 01 24 00 02 00 10 03  80 03 59 00 03 00 00 00  ..$.......Y.....
0030: 10 14 00 00 04 80 24 05  80 01 80 01 80 25 02 00  ......$......%..
0040: 10 01 80 00 49 00 01 49  00 07 00 00 00 10 0B 00  ....I..I........
0050: 00 03 01 10 00 00 01 5E  00 03 01 10 06 80 01 AC  .......^........
0060: 00 02 00 10 07 80 00 71  00 03 01 10 08 80 01 AC  .......q........
0070: 00 02 00 10 09 80 00 9C  00 03 01 10 0A 80 24 0B  ..............$.
0080: 80 01 80 01 80 25 02 00  10 01 80 00 91 00 01 91  .....%..........
0090: 00 07 01 10 00 10 0B 01  10 01 AC 00 02 00 10 0C  ................
00A0: 80 00 AC 00 03 01 10 0D  80 01 AC 00 21 00        ............!.  
```

#### Opcodes

```
  0: 0x0001 [0x24] CREATE_DIALOG(message_id=7468*, default_option=0*, option_flags=0*)
    → "Set Assault flags. [Sign up (success/failure flag OFF)./Receive command verification./Change Assault rank./Become a merc.(Affects mision progress!)]"
  1: 0x0008 [0x25] WAIT_DIALOG_SELECT()
  2: 0x0009 [0x02] IF !(Work_Zone[0] == 0*) GOTO 0x0061
  3: 0x0011 [0x24] CREATE_DIALOG(message_id=7469*, default_option=0*, option_flags=0*)
    → "Which Assault area? [Leujaoam Sanctum./Mamool Ja Training Grounds./Lebros Cavern./Periqia./Ilrusi Atoll./None.]"
  4: 0x0018 [0x25] WAIT_DIALOG_SELECT()
  5: 0x0019 [0x02] IF !(Work_Zone[0] == 0*) GOTO 0x0024
  6: 0x0021 [0x01] GOTO 0x0024

SUBROUTINE_0024:
  7: 0x0024 [0x02] IF !(Work_Zone[0] >= 5*) GOTO 0x0059
  8: 0x002C [0x03] ExtData[1]->WorkLocal[0] = Work_Zone[0]
  9: 0x0031 [0x14] ExtData[1]->WorkLocal[0] *= 10*
 10: 0x0036 [0x24] CREATE_DIALOG(message_id=7470*, default_option=0*, option_flags=0*)
    → "Which mission? [1."."./4./5./6./7./8./9./10.]"
 11: 0x003D [0x25] WAIT_DIALOG_SELECT()
 12: 0x003E [0x02] IF !(Work_Zone[0] == 0*) GOTO 0x0049
 13: 0x0046 [0x01] GOTO 0x0049

SUBROUTINE_0049:
 14: 0x0049 [0x07] ExtData[1]->WorkLocal[0] += Work_Zone[0]
 15: 0x004E [0x0B] ExtData[1]->WorkLocal[0]++
 16: 0x0051 [0x03] Work_Zone[1] = ExtData[1]->WorkLocal[0]
 17: 0x0056 [0x01] GOTO 0x005E
 18: 0x0059 [0x03] Work_Zone[1] = 1073741824*

SUBROUTINE_005E:
 19: 0x005E [0x01] GOTO 0x00AC
 20: 0x0061 [0x02] IF !(Work_Zone[0] == 1*) GOTO 0x0071
 21: 0x0069 [0x03] Work_Zone[1] = 1000*
 22: 0x006E [0x01] GOTO 0x00AC
 23: 0x0071 [0x02] IF !(Work_Zone[0] == 2*) GOTO 0x009C
 24: 0x0079 [0x03] Work_Zone[1] = 2000*
 25: 0x007E [0x24] CREATE_DIALOG(message_id=7471*, default_option=0*, option_flags=0*)
    → "What rank? [1."."./4./5./6./7./8./9./10.]"
 26: 0x0085 [0x25] WAIT_DIALOG_SELECT()
 27: 0x0086 [0x02] IF !(Work_Zone[0] == 0*) GOTO 0x0091
 28: 0x008E [0x01] GOTO 0x0091

SUBROUTINE_0091:
 29: 0x0091 [0x07] Work_Zone[1] += Work_Zone[0]
 30: 0x0096 [0x0B] Work_Zone[1]++
 31: 0x0099 [0x01] GOTO 0x00AC
 32: 0x009C [0x02] IF !(Work_Zone[0] == 3*) GOTO 0x00AC
 33: 0x00A4 [0x03] Work_Zone[1] = 3000*
 34: 0x00A9 [0x01] GOTO 0x00AC

SUBROUTINE_00AC:
 35: 0x00AC [0x21] END_EVENT
 36: 0x00AD [0x00] END_REQSTACK()
```
