# 17637643 - Ancestry Moogle

## Common Data

| Field            | Value             |
|------------------|-------------------|
| Zone             | GM_Home (ID: 210) |
| Block Size       | 5508 bytes        |
| Total Events     | 3                 |
| References Count | 92                |

## List of Events

| Event ID              | Entrypoint   |   Size |   Instructions |
|-----------------------|--------------|--------|----------------|
| [65535](#event-65535) | 0x0000       |      1 |              1 |
| [211](#event-211)     | 0x0001       |     75 |             24 |
| [210](#event-210)     | 0x004C       |   5034 |            940 |

## DAT References (imed_data)

|   Index | Hex Value   |   Dec Value |
|---------|-------------|-------------|
|       0 | 0x248B      |        9355 |
|       1 | 0x0000      |           0 |
|       2 | 0x248C      |        9356 |
|       3 | 0x0003      |           3 |
|       4 | 0x262C      |        9772 |
|       5 | 0x2493      |        9363 |
|       6 | 0x0002      |           2 |
|       7 | 0x248D      |        9357 |
|       8 | 0x24AA      |        9386 |
|       9 | 0x2494      |        9364 |
|      10 | 0x2495      |        9365 |
|      11 | 0xFFFFFFFF  |  4294967295 |
|      12 | 0x0007      |           7 |
|      13 | 0x0078      |         120 |
|      14 | 0x0013      |          19 |
|      15 | 0x00A9      |         169 |
|      16 | 0x02E8      |         744 |
|      17 | 0x001E      |          30 |
|      18 | 0x000B      |          11 |
|      19 | 0x0001      |           1 |
|      20 | 0x05DC      |        1500 |
|      21 | 0x00C0      |         192 |
|      22 | 0x003C      |          60 |
|      23 | 0x00D2      |         210 |
|      24 | 0x40000000  |  1073741824 |
|      25 | 0x00C8      |         200 |
|      26 | 0x00C9      |         201 |
|      27 | 0x2496      |        9366 |
|      28 | 0x0004      |           4 |
|      29 | 0x2497      |        9367 |
|      30 | 0x0FA0      |        4000 |
|      31 | 0xFFFFFB50  |  4294966096 |
|      32 | 0x0005      |           5 |
|      33 | 0x0006      |           6 |
|      34 | 0x24A0      |        9376 |
|      35 | 0x24A2      |        9378 |
|      36 | 0x24A3      |        9379 |
|      37 | 0x24A4      |        9380 |
|      38 | 0x24A5      |        9381 |
|      39 | 0x24A7      |        9383 |
|      40 | 0x24A8      |        9384 |
|      41 | 0x24A9      |        9385 |
|      42 | 0x001A      |          26 |
|      43 | 0x0008      |           8 |
|      44 | 0x000D      |          13 |
|      45 | 0x000F      |          15 |
|      46 | 0x000C      |          12 |
|      47 | 0x0010      |          16 |
|      48 | 0x0011      |          17 |
|      49 | 0x249F      |        9375 |
|      50 | 0x03E7      |         999 |
|      51 | 0x249A      |        9370 |
|      52 | 0x249B      |        9371 |
|      53 | 0x249C      |        9372 |
|      54 | 0x249D      |        9373 |
|      55 | 0x249E      |        9374 |
|      56 | 0x0080      |         128 |
|      57 | 0x0030      |          48 |
|      58 | 0x15180     |       86400 |
|      59 | 0x248F      |        9359 |
|      60 | 0x0E10      |        3600 |
|      61 | 0x2490      |        9360 |
|      62 | 0x2491      |        9361 |
|      63 | 0x2492      |        9362 |
|      64 | 0x2498      |        9368 |
|      65 | 0x2499      |        9369 |
|      66 | 0x0085      |         133 |
|      67 | 0x00A8      |         168 |
|      68 | 0x0084      |         132 |
|      69 | 0x0083      |         131 |
|      70 | 0x00A7      |         167 |
|      71 | 0x0082      |         130 |
|      72 | 0x00A6      |         166 |
|      73 | 0x00A5      |         165 |
|      74 | 0x1000      |        4096 |
|      75 | 0x005F      |          95 |
|      76 | 0x0064      |         100 |
|      77 | 0x0069      |         105 |
|      78 | 0x0052      |          82 |
|      79 | 0x0057      |          87 |
|      80 | 0x005C      |          92 |
|      81 | 0x0059      |          89 |
|      82 | 0x005D      |          93 |
|      83 | 0x0061      |          97 |
|      84 | 0x0060      |          96 |
|      85 | 0x0335      |         821 |
|      86 | 0x24AB      |        9387 |
|      87 | 0x24AC      |        9388 |
|      88 | 0x24AD      |        9389 |
|      89 | 0x24AE      |        9390 |
|      90 | 0x24B1      |        9393 |
|      91 | 0x24B2      |        9394 |

## String References

- **9355**: Welcome to the Race Change service, kupo!
- **9356**: Please check the official website for more details regarding our service.
- **9357**: Thank you for using the Race Change service, adventurer!
- **9359**: You have $0 more day[/s] to use this service, kupo.
- **9360**: You have $0 hour[/s] $1 minute[/s] $2 second[/s] remaining to use this service, kupo.
- **9361**: You have $1 minute[/s] $2 second[/s] remaining to use this service, kupo.
- **9362**: You have $2 second[/s] remaining to use this service, kupo.
- **9363**: Please make sure to exchange your $3 while it is still valid, kupo.
- **9364**: Careful though! If your service period expires while you're still making changes, you'll lose any changes you've made!
- **9365**: Also, as a general rule, we are unable to guarantee service in the event of any unexpected issues such as network problems. Therefore, it's wise to make your changes with plenty of time to spare, kupo!
- **9366**: Character Race Change Service Menu [Select race. [/$26Changing]/Select face type. [/$26Changing]/Select hair color. [/$26Changing]/Select size. [/$26Changing]/Enable camera movement./View current appearance./Change to specified appearance./Exit.]
- **9367**: You can move the camera to check your character's appearance. If using a keyboard, hold down the shift key and press the camera key in order to move the camera.
- **9368**: You will lose your character's current appearance. Are you sure you want to exit the process?
- **9369**: Are you finished making changes? [Yes./No.]
- **9370**: Choose your character's race and gender. [Hume (male). [/$26Selected/(race before change)]/Hume (female). [/$26Selected/(race before change)]/Elvaan (male).@@ [/$26Selected/(race before change)]/Elvaan (female). @[/$26Selected/(race before change)]/Tarutaru (male).@ [/$26Selected/(race before change)]/Tarutaru (female). [/$26Selected/(race before change)]/Mithra. [/$26Selected/(race before change)]/Galka. [/$26Selected/(race before change)]/Back.]
- **9371**: Choose your character's face type. [Face type 1.@[/$26Selected/(face before change)]/Face type 2.@[/$26Selected/(face before change)]/Face type 3.@[/$26Selected/(face before change)]/Face type 4.@[/$26Selected/(face before change)]/Face type 5.@[/$26Selected/(face before change)]/Face type 6.@[/$26Selected/(face before change)]/Face type 7.@[/$26Selected/(face before change)]/Face type 8.@[/$26Selected/(face before change)]/Back.]
- **9372**: Choose your character's hair color. [Hair A. [/$26Selected/(hair before change)]/Hair B. [/$26Selected/(hair before change)]/Back.]
- **9373**: Choose your character's size. [Small. [/$26Selected/(size before change)]/Medium. [/$26Selected/(size before change)]/Large. [/$26Selected/(size before change)]/Back.]
- **9374**: Character display settings. [([$26/@])Display edits./([@/$26])Display translucently./([@/@/$26])Don't display old./([$26/@/@])Display old./([@/$26/@])Display old translucently./([@/$26])Display overlap./([$26/@])Display old to the side./Back.]
- **9375**: You have not edited any character attributes. Select Exit from the menu if you wish to exit this mode without making any changes.
- **9376**: If you change your character to the specified race, it will lose its previous race as well as any gender-specific equipment.
- **9378**: Certain items can be exchanged for equippable ones by speaking with %.
- **9379**: Applicable items can be checked with % after changing races.
- **9380**: In addition, the following stats may be adjusted depending on your character's new race: HP, MP, STR, DEX, VIT, AGI, INT, MND, CHR
- **9381**: ---------------------------------------------- Race (after change): [None/Hume (male)/Hume (female)/Elvaan (male)/Elvaan (female)/Tarutaru (male)/Tarutaru (female)/Mithra/Galka] Face type: $11@Hair color: [A/B]@Size: [S/M/L] ----------------------------------------------
- **9383**: Change your character to this appearance? [Yes./No.]
- **9384**: Are you absolutely sure? [Yes./No.]
- **9385**: May Altana bless you as you begin your new life, kupo!
- **9386**: You can trade me certain items that you can no longer use because of your race or gender change, kupo!
- **9387**: Let me see if you have any.
- **9388**: Items held by NPCs or stored with storage slips are ineligible.
- **9389**: Have the moogle check? [Yes, please./No, thank you.]
- **9390**: Let's get down to business, kupo.
- **9393**: That should cover it!
- **9394**: Wait...I can't take anything you have.

## Events

### Event 65535

#### Metadata

| Field        | Value   |
|--------------|---------|
| Entrypoint   | 0x0000  |
| Data Size    | 1 bytes |
| Instructions | 1       |

```
      00 01 02 03 04 05 06 07  08 09 0A 0B 0C 0D 0E 0F
      -- -- -- -- -- -- -- --  -- -- -- -- -- -- -- --
0000: 00                                                .               
```

#### Opcodes

```
  0: 0x0000 [0x00] END_REQSTACK()
```

### Event 211

#### Metadata

| Field        | Value    |
|--------------|----------|
| Entrypoint   | 0x0001   |
| Data Size    | 75 bytes |
| Instructions | 24       |

```
      00 01 02 03 04 05 06 07  08 09 0A 0B 0C 0D 0E 0F
      -- -- -- -- -- -- -- --  -- -- -- -- -- -- -- --
0000:    1E F0 FF FF 7F 6F 70  1D 00 80 23 02 07 10 01   .....op...#....
0010: 80 00 1B 00 1D 02 80 23  01 4A 00 3E 07 10 03 80  .......#.J.>....
0020: 31 00 1A F9 0A 03 05 10  04 80 1D 05 80 23 01 4A  1............#.J
0030: 00 3E 07 10 06 80 3C 00  1D 07 80 23 1D 08 80 23  .>....<....#...#
0040: 3E 07 10 01 80 4A 00 1A  D3 0F 21 00              >....J....!.    
```

#### Opcodes

```
  0: 0x0001 [0x1E] EventEntity looks at LocalPlayer and starts talking
  1: 0x0006 [0x6F] WAIT_FRAME_DELAY: Yield until WaitTime reaches zero
  2: 0x0007 [0x70] WAIT_ENTITY_RENDER_FLAG: Wait while EventEntity->Render.Flags3 bit 2 is set (cancel turn if not)
  3: 0x0008 [0x1D] PRINT_EVENT_MESSAGE(message_id=9355*)
    → "Welcome to the Race Change service, kupo!"
  4: 0x000B [0x23] WAIT_FOR_DIALOG_INTERACTION
  5: 0x000C [0x02] IF !(Work_Zone[7] == 0*) GOTO 0x001B
  6: 0x0014 [0x1D] PRINT_EVENT_MESSAGE(message_id=9356*)
    → "Please check the official website for more details regarding our service."
  7: 0x0017 [0x23] WAIT_FOR_DIALOG_INTERACTION
  8: 0x0018 [0x01] GOTO 0x004A
  9: 0x001B [0x3E] IF !(Work_Zone[7] bit 3*) GOTO 0x0031
 10: 0x0022 [0x1A] CALL_SUBROUTINE(address=0x0AF9)
 11: 0x0025 [0x03] Work_Zone[5] = 9772*
 12: 0x002A [0x1D] PRINT_EVENT_MESSAGE(message_id=9363*)
    → "Please make sure to exchange your $3 while it is still valid, kupo."
 13: 0x002D [0x23] WAIT_FOR_DIALOG_INTERACTION
 14: 0x002E [0x01] GOTO 0x004A
 15: 0x0031 [0x3E] IF !(Work_Zone[7] bit 2*) GOTO 0x003C
 16: 0x0038 [0x1D] PRINT_EVENT_MESSAGE(message_id=9357*)
    → "Thank you for using the Race Change service, adventurer!"
 17: 0x003B [0x23] WAIT_FOR_DIALOG_INTERACTION
 18: 0x003C [0x1D] PRINT_EVENT_MESSAGE(message_id=9386*)
    → "You can trade me certain items that you can no longer use because of your race or gender change, kupo!"
 19: 0x003F [0x23] WAIT_FOR_DIALOG_INTERACTION
 20: 0x0040 [0x3E] IF !(Work_Zone[7] bit 0*) GOTO 0x004A
 21: 0x0047 [0x1A] CALL_SUBROUTINE(address=0x0FD3)

SUBROUTINE_004A:
 22: 0x004A [0x21] END_EVENT
 23: 0x004B [0x00] END_REQSTACK()
```

### Event 210

#### Metadata

| Field        | Value      |
|--------------|------------|
| Entrypoint   | 0x004C     |
| Data Size    | 5034 bytes |
| Instructions | 662        |

```
      00 01 02 03 04 05 06 07  08 09 0A 0B 0C 0D 0E 0F
      -- -- -- -- -- -- -- --  -- -- -- -- -- -- -- --
0040:                                      42 03 00 00              B...
0050: 02 10 03 01 00 03 10 03  03 00 04 10 03 02 00 05  ................
0060: 10 03 04 00 00 00 03 05  00 01 00 03 06 00 02 00  ................
0070: 03 07 00 03 00 03 29 10  00 00 03 2A 10 01 00 03  ......)....*....
0080: 2C 10 03 00 03 2B 10 02  00 03 0B 00 07 10 1E F0  ,....+..........
0090: FF FF 7F 6F 70 1D 00 80  23 02 06 10 01 80 02 AF  ...op...#.......
00A0: 00 1A F9 0A 1D 09 80 23  1D 0A 80 23 01 D0 00 02  .......#...#....
00B0: 06 10 0B 80 00 BA 00 01  D0 00 3E 0B 00 01 80 CB  ..........>.....
00C0: 00 1D 08 80 23 1A D3 0F  01 CF 00 1D 02 80 23 21  ....#.........#!
00D0: 1A B2 0F 03 01 10 01 80  40 01 80 0C 80 01 10 06  ........@.......
00E0: 80 43 00 43 01 03 0C 00  02 10 03 0D 00 03 10 03  .C.C............
00F0: 0E 00 04 10 03 0F 00 05  10 03 10 00 06 10 03 11  ................
0100: 00 07 10 03 12 00 08 10  03 13 00 09 10 46 01 1C  .............F..
0110: 0D 80 38 0E 80 03 28 10  0F 80 34 10 80 1C 11 80  ..8...(...4.....
0120: 77 12 80 13 80 4E 01 F8  FF FF 7F BA F0 FF FF 7F  w....N..........
0130: 01 80 01 80 01 80 01 80  4E 00 F0 FF FF 7F 03 15  ........N.......
0140: 00 14 80 03 14 00 15 80  2F 00 0D 21 0D 01 29 10  ......../..!..).
0150: 0D 21 0D 01 02 BA 0D 21  0D 01 01 80 15 00 01 80  .!.....!........
0160: 14 00 80 0D 21 0D 01 03  17 00 06 80 4E 01 0D 21  ....!.......N..!
0170: 0D 01 1C 16 80 2F 00 0C  21 0D 01 1C 16 80 03 18  ...../..!.......
0180: 00 01 80 1A 4B 0C 1A 07  0D 03 19 00 01 80 03 1A  ....K...........
0190: 00 01 80 1A 66 0D 1A 86  0E 1A 91 0F 1A F5 01 1A  ....f...........
01A0: B2 0F 1C 0D 80 1A 9E 0C  46 00 5C 00 01 80 5C 01  ........F.\...\.
01B0: 01 80 35 17 80 B6 10 AB  11 01 80 AB 0A 78 1C 16  ..5..........x..
01C0: 80 02 01 10 18 80 00 E0  01 1C 16 80 45 19 80 F0  ............E...
01D0: FF FF 7F F0 FF FF 7F 66  64 69 32 01 80 01 F1 01  .......fdi2.....
01E0: 45 1A 80 F0 FF FF 7F F0  FF FF 7F 77 68 69 31 01  E..........whi1.
01F0: 80 46 00 21 00 05 1E 00  02 1E 00 01 80 01 D4 04  .F.!............
0200: 03 20 00 01 80 02 04 00  00 00 00 15 02 03 02 17  . ..............
0210: 01 80 01 21 02 03 02 17  13 80 3C 20 00 01 80 13  ...!......< ....
0220: 80 02 05 00 01 00 00 31  02 03 03 17 01 80 01 3D  .......1.......=
0230: 02 03 03 17 13 80 3C 20  00 13 80 13 80 02 06 00  ......< ........
0240: 02 00 00 4D 02 03 04 17  01 80 01 59 02 03 04 17  ...M.......Y....
0250: 13 80 3C 20 00 06 80 13  80 02 07 00 03 00 00 69  ..< ...........i
0260: 02 03 05 17 01 80 01 75  02 03 05 17 13 80 3C 20  .......u......< 
0270: 00 03 80 13 80 02 19 00  0B 80 00 85 02 03 06 17  ................
0280: 13 80 01 8A 02 03 06 17  01 80 24 1B 80 1F 00 01  ..........$.....
0290: 80 25 02 00 10 01 80 00  B8 02 03 1F 00 01 80 02  .%..............
02A0: 19 00 0B 80 01 AF 02 03  19 00 01 80 1A 66 0D 1A  .............f..
02B0: 66 0D 1A D5 04 01 D1 04  02 00 10 13 80 00 DB 02  f...............
02C0: 03 1F 00 13 80 02 19 00  0B 80 01 D5 02 03 19 00  ................
02D0: 13 80 1A 66 0D 1A BD 06  01 D1 04 02 00 10 06 80  ...f............
02E0: 00 01 03 03 1F 00 06 80  02 19 00 0B 80 01 F8 02  ................
02F0: 03 19 00 13 80 1A 66 0D  1A 66 0D 1A A5 08 01 D1  ......f..f......
0300: 04 02 00 10 03 80 00 24  03 03 1F 00 03 80 02 19  .......$........
0310: 00 0B 80 01 1E 03 03 19  00 01 80 1A 66 0D 1A 3D  ............f..=
0320: 09 01 D1 04 02 00 10 1C  80 00 6B 03 03 1F 00 1C  ..........k.....
0330: 80 1A B2 0F 02 19 00 0B  80 01 55 03 48 1D 80 23  ..........U.H..#
0340: 1C 16 80 46 00 46 03 1E  80 1F 80 01 80 03 19 00  ...F.F..........
0350: 0B 80 01 65 03 1C 16 80  46 01 03 19 00 01 80 1A  ...e....F.......
0360: 66 0D 1A 86 0E 1A 91 0F  01 D1 04 02 00 10 20 80  f............. .
0370: 00 7E 03 03 1F 00 20 80  1A 0D 0A 01 D1 04 02 00  .~.... .........
0380: 10 21 80 00 9F 04 03 1F  00 21 80 02 20 00 01 80  .!.......!.. ...
0390: 01 98 04 02 19 00 0B 80  01 A6 03 03 19 00 01 80  ................
03A0: 1A 66 0D 1A 86 0E 03 28  10 0F 80 02 04 00 00 00  .f.....(........
03B0: 01 C3 03 48 22 80 23 48  23 80 23 48 24 80 23 48  ...H".#H#.#H$.#H
03C0: 25 80 23 03 02 17 04 00  03 03 17 05 00 0B 03 17  %.#.............
03D0: 03 04 17 06 00 03 05 17  07 00 48 26 80 23 24 27  ..........H&.#$'
03E0: 80 13 80 01 80 25 02 00  10 01 80 00 95 04 1C 16  .....%..........
03F0: 80 24 28 80 13 80 01 80  25 02 00 10 01 80 00 92  .$(.....%.......
0400: 04 1D 29 80 23 6E F0 FF  FF 7F 12 80 99 F0 FF FF  ..).#n..........
0410: 7F 99 F0 FF FF 7F 45 1A  80 F0 FF FF 7F F0 FF FF  ......E.........
0420: 7F 77 68 6F 31 01 80 55  1A 80 F0 FF FF 7F F0 FF  .who1..U........
0430: FF 7F 77 68 6F 31 1C 16  80 62 2A 80 F0 FF FF 7F  ..who1...b*.....
0440: F0 FF FF 7F 6D 61 69 6E  01 80 A0 2A 80 F0 FF FF  ....main...*....
0450: 7F F0 FF FF 7F 6D 61 69  6E 06 1E 00 03 01 10 01  .....main.......
0460: 80 40 01 80 0C 80 01 10  13 80 40 2B 80 12 80 01  .@........@+....
0470: 10 04 00 40 2C 80 2D 80  01 10 05 00 40 2E 80 2E  ...@,.-.....@...
0480: 80 01 10 06 00 40 2F 80  30 80 01 10 07 00 1B 01  .....@/.0.......
0490: 92 04 01 95 04 01 9C 04  48 31 80 23 01 D1 04 02  ........H1.#....
04A0: 00 10 32 80 00 AA 04 01  D1 04 03 1F 00 00 10 1A  ..2.............
04B0: 57 0B 02 1C 00 01 80 01  D1 04 1A B2 0F 1C 0D 80  W...............
04C0: 03 28 10 01 80 1C 16 80  06 1E 00 03 01 10 18 80  .(..............
04D0: 1B 01 F8 01 1B 05 21 00  02 21 00 01 80 01 BC 06  ......!..!......
04E0: 1A B2 0B 03 03 17 01 80  03 04 17 01 80 03 05 17  ................
04F0: 01 80 03 06 17 01 80 03  07 17 01 80 03 08 17 01  ................
0500: 80 03 09 17 01 80 03 0A  17 01 80 02 00 00 13 80  ................
0510: 80 1B 05 03 03 17 06 80  01 8B 05 02 00 00 06 80  ................
0520: 80 2B 05 03 04 17 06 80  01 8B 05 02 00 00 03 80  .+..............
0530: 80 3B 05 03 05 17 06 80  01 8B 05 02 00 00 1C 80  .;..............
0540: 80 4B 05 03 06 17 06 80  01 8B 05 02 00 00 20 80  .K............ .
0550: 80 5B 05 03 07 17 06 80  01 8B 05 02 00 00 21 80  .[............!.
0560: 80 6B 05 03 08 17 06 80  01 8B 05 02 00 00 0C 80  .k..............
0570: 80 7B 05 03 09 17 06 80  01 8B 05 02 00 00 2B 80  .{............+.
0580: 80 8B 05 03 0A 17 06 80  01 8B 05 02 04 00 00 00  ................
0590: 01 13 06 02 04 00 13 80  80 A3 05 03 03 17 13 80  ................
05A0: 01 13 06 02 04 00 06 80  80 B3 05 03 04 17 13 80  ................
05B0: 01 13 06 02 04 00 03 80  80 C3 05 03 05 17 13 80  ................
05C0: 01 13 06 02 04 00 1C 80  80 D3 05 03 06 17 13 80  ................
05D0: 01 13 06 02 04 00 20 80  80 E3 05 03 07 17 13 80  ...... .........
05E0: 01 13 06 02 04 00 21 80  80 F3 05 03 08 17 13 80  ......!.........
05F0: 01 13 06 02 04 00 0C 80  80 03 06 03 09 17 13 80  ................
0600: 01 13 06 02 04 00 2B 80  80 13 06 03 0A 17 13 80  ......+.........
0610: 01 13 06 24 33 80 22 00  01 80 25 02 00 10 01 80  ...$3."...%.....
0620: 00 2E 06 03 04 00 13 80  1A 38 0C 01 B4 06 02 00  .........8......
0630: 10 13 80 00 41 06 03 04  00 06 80 1A 38 0C 01 B4  ....A.......8...
0640: 06 02 00 10 06 80 00 54  06 03 04 00 03 80 1A 38  .......T.......8
0650: 0C 01 B4 06 02 00 10 03  80 00 67 06 03 04 00 1C  ..........g.....
0660: 80 1A 38 0C 01 B4 06 02  00 10 1C 80 00 7A 06 03  ..8..........z..
0670: 04 00 20 80 1A 38 0C 01  B4 06 02 00 10 20 80 00  .. ..8....... ..
0680: 8D 06 03 04 00 21 80 1A  38 0C 01 B4 06 02 00 10  .....!..8.......
0690: 21 80 00 A0 06 03 04 00  0C 80 1A 38 0C 01 B4 06  !..........8....
06A0: 02 00 10 0C 80 00 B3 06  03 04 00 2B 80 1A 38 0C  ...........+..8.
06B0: 01 B4 06 1B 03 22 00 00  10 01 D8 04 1B 05 23 00  ....."........#.
06C0: 02 23 00 01 80 01 A4 08  1A B2 0B 03 03 17 01 80  .#..............
06D0: 03 04 17 01 80 03 05 17  01 80 03 06 17 01 80 03  ................
06E0: 07 17 01 80 03 08 17 01  80 03 09 17 01 80 03 0A  ................
06F0: 17 01 80 02 01 00 01 80  80 03 07 03 03 17 06 80  ................
0700: 01 73 07 02 01 00 13 80  80 13 07 03 04 17 06 80  .s..............
0710: 01 73 07 02 01 00 06 80  80 23 07 03 05 17 06 80  .s.......#......
0720: 01 73 07 02 01 00 03 80  80 33 07 03 06 17 06 80  .s.......3......
0730: 01 73 07 02 01 00 1C 80  80 43 07 03 07 17 06 80  .s.......C......
0740: 01 73 07 02 01 00 20 80  80 53 07 03 08 17 06 80  .s.... ..S......
0750: 01 73 07 02 01 00 21 80  80 63 07 03 09 17 06 80  .s....!..c......
0760: 01 73 07 02 01 00 0C 80  80 73 07 03 0A 17 06 80  .s.......s......
0770: 01 73 07 02 05 00 01 00  01 FB 07 02 05 00 01 80  .s..............
0780: 80 8B 07 03 03 17 13 80  01 FB 07 02 05 00 13 80  ................
0790: 80 9B 07 03 04 17 13 80  01 FB 07 02 05 00 06 80  ................
07A0: 80 AB 07 03 05 17 13 80  01 FB 07 02 05 00 03 80  ................
07B0: 80 BB 07 03 06 17 13 80  01 FB 07 02 05 00 1C 80  ................
07C0: 80 CB 07 03 07 17 13 80  01 FB 07 02 05 00 20 80  .............. .
07D0: 80 DB 07 03 08 17 13 80  01 FB 07 02 05 00 21 80  ..............!.
07E0: 80 EB 07 03 09 17 13 80  01 FB 07 02 05 00 0C 80  ................
07F0: 80 FB 07 03 0A 17 13 80  01 FB 07 24 34 80 24 00  ...........$4.$.
0800: 01 80 25 02 00 10 01 80  00 16 08 03 05 00 01 80  ..%.............
0810: 1A 4B 0C 01 9C 08 02 00  10 13 80 00 29 08 03 05  .K..........)...
0820: 00 13 80 1A 4B 0C 01 9C  08 02 00 10 06 80 00 3C  ....K..........<
0830: 08 03 05 00 06 80 1A 4B  0C 01 9C 08 02 00 10 03  .......K........
0840: 80 00 4F 08 03 05 00 03  80 1A 4B 0C 01 9C 08 02  ..O.......K.....
0850: 00 10 1C 80 00 62 08 03  05 00 1C 80 1A 4B 0C 01  .....b.......K..
0860: 9C 08 02 00 10 20 80 00  75 08 03 05 00 20 80 1A  ..... ..u.... ..
0870: 4B 0C 01 9C 08 02 00 10  21 80 00 88 08 03 05 00  K.......!.......
0880: 21 80 1A 4B 0C 01 9C 08  02 00 10 0C 80 00 9B 08  !..K............
0890: 03 05 00 0C 80 1A 4B 0C  01 9C 08 1B 03 24 00 00  ......K......$..
08A0: 10 01 C0 06 1B 05 25 00  02 25 00 01 80 01 3C 09  ......%..%....<.
08B0: 1A B2 0B 03 03 17 01 80  03 04 17 01 80 02 02 00  ................
08C0: 01 80 80 CD 08 03 03 17  06 80 01 DD 08 02 02 00  ................
08D0: 13 80 80 DD 08 03 04 17  06 80 01 DD 08 02 06 00  ................
08E0: 02 00 01 05 09 02 06 00  01 80 80 F5 08 03 03 17  ................
08F0: 13 80 01 05 09 02 06 00  13 80 80 05 09 03 04 17  ................
0900: 13 80 01 05 09 24 35 80  26 00 01 80 25 02 00 10  .....$5.&...%...
0910: 01 80 00 20 09 03 06 00  01 80 1A 4B 0C 01 34 09  ... .......K..4.
0920: 02 00 10 13 80 00 33 09  03 06 00 13 80 1A 4B 0C  ......3.......K.
0930: 01 34 09 1B 03 26 00 00  10 01 A8 08 1B 05 27 00  .4...&........'.
0940: 02 27 00 01 80 01 0C 0A  1A B2 0B 03 03 17 01 80  .'..............
0950: 03 04 17 01 80 03 05 17  01 80 02 03 00 01 80 80  ................
0960: 6A 09 03 03 17 06 80 01  8A 09 02 03 00 13 80 80  j...............
0970: 7A 09 03 04 17 06 80 01  8A 09 02 03 00 06 80 80  z...............
0980: 8A 09 03 05 17 06 80 01  8A 09 02 07 00 03 00 01  ................
0990: C2 09 02 07 00 01 80 80  A2 09 03 03 17 13 80 01  ................
09A0: C2 09 02 07 00 13 80 80  B2 09 03 04 17 13 80 01  ................
09B0: C2 09 02 07 00 06 80 80  C2 09 03 05 17 13 80 01  ................
09C0: C2 09 24 36 80 28 00 01  80 25 02 00 10 01 80 00  ..$6.(...%......
09D0: DD 09 03 07 00 01 80 1A  07 0D 01 04 0A 02 00 10  ................
09E0: 13 80 00 F0 09 03 07 00  13 80 1A 07 0D 01 04 0A  ................
09F0: 02 00 10 06 80 00 03 0A  03 07 00 06 80 1A 07 0D  ................
0A00: 01 04 0A 1B 03 28 00 00  10 01 40 09 1B 05 29 00  .....(....@...).
0A10: 02 29 00 01 80 01 F8 0A  03 03 17 16 00 03 04 17  .)..............
0A20: 17 00 03 05 17 18 00 24  37 80 2A 00 01 80 25 02  .......$7.*...%.
0A30: 00 10 01 80 00 48 0A 03  18 00 01 80 6C F0 FF FF  .....H......l...
0A40: 7F 38 80 11 80 01 F0 0A  02 00 10 13 80 00 61 0A  .8............a.
0A50: 03 18 00 13 80 6C F0 FF  FF 7F 39 80 11 80 01 F0  .....l....9.....
0A60: 0A 02 00 10 06 80 00 77  0A 03 17 00 06 80 4E 01  .......w......N.
0A70: 0D 21 0D 01 01 F0 0A 02  00 10 03 80 00 96 0A 03  .!..............
0A80: 17 00 01 80 4E 00 0D 21  0D 01 6C 0D 21 0D 01 38  ....N..!..l.!..8
0A90: 80 11 80 01 F0 0A 02 00  10 1C 80 00 B5 0A 03 17  ................
0AA0: 00 13 80 4E 00 0D 21 0D  01 6C 0D 21 0D 01 39 80  ...N..!..l.!..9.
0AB0: 11 80 01 F0 0A 02 00 10  20 80 00 D2 0A 03 16 00  ........ .......
0AC0: 13 80 BA 0D 21 0D 01 01  80 01 80 01 80 01 80 01  ....!...........
0AD0: F0 0A 02 00 10 21 80 00  EF 0A 03 16 00 01 80 BA  .....!..........
0AE0: 0D 21 0D 01 01 80 15 00  01 80 14 00 01 F0 0A 1B  .!..............
0AF0: 03 2A 00 00 10 01 10 0A  1B 03 1D 00 06 10 15 1D  .*..............
0B00: 00 3A 80 02 1D 00 13 80  04 17 0B 03 02 10 1D 00  .:..............
0B10: 1D 3B 80 23 01 56 0B 03  02 10 06 10 15 02 10 3C  .;.#.V.........<
0B20: 80 3F 03 10 06 10 3C 80  15 03 10 16 80 3F 04 10  .?....<......?..
0B30: 06 10 16 80 02 02 10 13  80 04 43 0B 1D 3D 80 23  ..........C..=.#
0B40: 01 56 0B 02 03 10 13 80  04 52 0B 1D 3E 80 23 01  .V.......R..>.#.
0B50: 56 0B 1D 3F 80 23 1B 06  2B 00 02 04 00 00 00 01  V..?.#..+.......
0B60: 65 0B 05 2B 00 02 05 00  01 00 01 70 0B 05 2B 00  e..+.......p..+.
0B70: 02 06 00 02 00 01 7B 0B  05 2B 00 02 07 00 03 00  ......{..+......
0B80: 01 86 0B 05 2B 00 02 2B  00 01 80 01 AE 0B 48 40  ....+..+......H@
0B90: 80 23 24 41 80 13 80 01  80 25 02 00 10 01 80 00  .#$A.....%......
0BA0: A8 0B 05 1C 00 01 AB 0B  06 1C 00 01 B1 0B 05 1C  ................
0BB0: 00 1B 02 04 00 13 80 80  C2 0B 03 28 10 42 80 01  ...........(.B..
0BC0: 37 0C 02 04 00 06 80 80  D2 0B 03 28 10 43 80 01  7..........(.C..
0BD0: 37 0C 02 04 00 03 80 80  E2 0B 03 28 10 44 80 01  7..........(.D..
0BE0: 37 0C 02 04 00 1C 80 80  F2 0B 03 28 10 45 80 01  7..........(.E..
0BF0: 37 0C 02 04 00 20 80 80  02 0C 03 28 10 46 80 01  7.... .....(.F..
0C00: 37 0C 02 04 00 21 80 80  12 0C 03 28 10 47 80 01  7....!.....(.G..
0C10: 37 0C 02 04 00 0C 80 80  22 0C 03 28 10 48 80 01  7......."..(.H..
0C20: 37 0C 02 04 00 2B 80 80  32 0C 03 28 10 49 80 01  7....+..2..(.I..
0C30: 37 0C 03 28 10 01 80 1B  1A 4B 0C 1A 07 0D 1A 66  7..(.....K.....f
0C40: 0D 1A B2 0B 1C 11 80 1A  86 0E 1B 03 08 00 05 00  ................
0C50: 14 08 00 06 80 07 08 00  06 00 B6 16 04 00 08 00  ................
0C60: 2B 80 2B 80 2B 80 2B 80  2B 80 01 80 01 80 01 80  +.+.+.+.+.......
0C70: 80 F0 FF FF 7F 03 02 17  04 00 03 03 17 05 00 0B  ................
0C80: 03 17 03 04 17 06 00 03  05 17 07 00 02 18 00 13  ................
0C90: 80 00 9D 0C 6C F0 FF FF  7F 39 80 11 80 1B 03 08  ....l....9......
0CA0: 00 01 00 14 08 00 06 80  07 08 00 02 00 3E 0B 00  .............>..
0CB0: 13 80 CD 0C B6 16 00 00  08 00 4A 80 0D 00 0E 00  ..........J.....
0CC0: 0F 00 10 00 11 00 12 00  13 00 01 E3 0C B6 16 00  ................
0CD0: 00 08 00 0C 00 0D 00 0E  00 0F 00 10 00 11 00 12  ................
0CE0: 00 13 00 80 F0 FF FF 7F  03 09 00 00 00 0C 09 00  ................
0CF0: 14 09 00 1C 80 07 09 00  03 00 9D 00 26 0D 0A 00  ............&...
0D00: 09 00 B6 17 0A 00 1B 03  09 00 04 00 0C 09 00 14  ................
0D10: 09 00 1C 80 07 09 00 07  00 9D 00 26 0D 0A 00 09  ...........&....
0D20: 00 B6 17 0A 00 1B 4B 80  4C 80 4D 80 01 80 4B 80  ......K.L.M...K.
0D30: 4C 80 4D 80 01 80 4B 80  4C 80 4D 80 01 80 4B 80  L.M...K.L.M...K.
0D40: 4C 80 4D 80 01 80 4E 80  4F 80 50 80 01 80 4E 80  L.M...N.O.P...N.
0D50: 4F 80 50 80 01 80 51 80  52 80 53 80 01 80 50 80  O.P...Q.R.S...P.
0D60: 54 80 4C 80 01 80 03 02  10 19 00 03 03 10 1A 00  T.L.............
0D70: 03 04 10 04 00 03 05 10  01 80 02 19 00 01 80 80  ................
0D80: 65 0E 02 04 00 13 80 80  9E 0D 45 55 80 F0 FF FF  e.........EU....
0D90: 7F F0 FF FF 7F 73 68 6D  30 1A 00 01 62 0E 02 04  .....shm0...b...
0DA0: 00 06 80 80 BA 0D 45 55  80 F0 FF FF 7F F0 FF FF  ......EU........
0DB0: 7F 73 68 66 30 1A 00 01  62 0E 02 04 00 03 80 80  .shf0...b.......
0DC0: D6 0D 45 55 80 F0 FF FF  7F F0 FF FF 7F 73 65 6D  ..EU.........sem
0DD0: 30 1A 00 01 62 0E 02 04  00 1C 80 80 F2 0D 45 55  0...b.........EU
0DE0: 80 F0 FF FF 7F F0 FF FF  7F 73 65 66 30 1A 00 01  .........sef0...
0DF0: 62 0E 02 04 00 20 80 80  0E 0E 45 55 80 F0 FF FF  b.... ....EU....
0E00: 7F F0 FF FF 7F 73 74 6D  30 1A 00 01 62 0E 02 04  .....stm0...b...
0E10: 00 21 80 80 2A 0E 45 55  80 F0 FF FF 7F F0 FF FF  .!..*.EU........
0E20: 7F 73 74 6D 30 1A 00 01  62 0E 02 04 00 0C 80 80  .stm0...b.......
0E30: 46 0E 45 55 80 F0 FF FF  7F F0 FF FF 7F 73 6D 66  F.EU.........smf
0E40: 30 1A 00 01 62 0E 02 04  00 2B 80 80 62 0E 45 55  0...b....+..b.EU
0E50: 80 F0 FF FF 7F F0 FF FF  7F 73 67 6D 30 1A 00 01  .........sgm0...
0E60: 62 0E 01 85 0E 02 19 00  13 80 80 85 0E 03 1B 00  b...............
0E70: 04 00 14 1B 00 1C 80 07  1B 00 07 00 9D 07 14 10  ................
0E80: 1B 00 01 85 0E 1B 02 19  00 01 80 80 61 0F 02 04  ............a...
0E90: 00 13 80 80 A8 0E 55 55  80 F0 FF FF 7F F0 FF FF  ......UU........
0EA0: 7F 73 68 6D 30 01 5E 0F  02 04 00 06 80 80 C2 0E  .shm0.^.........
0EB0: 55 55 80 F0 FF FF 7F F0  FF FF 7F 73 68 66 30 01  UU.........shf0.
0EC0: 5E 0F 02 04 00 03 80 80  DC 0E 55 55 80 F0 FF FF  ^.........UU....
0ED0: 7F F0 FF FF 7F 73 65 6D  30 01 5E 0F 02 04 00 1C  .....sem0.^.....
0EE0: 80 80 F6 0E 55 55 80 F0  FF FF 7F F0 FF FF 7F 73  ....UU.........s
0EF0: 65 66 30 01 5E 0F 02 04  00 20 80 80 10 0F 55 55  ef0.^.... ....UU
0F00: 80 F0 FF FF 7F F0 FF FF  7F 73 74 6D 30 01 5E 0F  .........stm0.^.
0F10: 02 04 00 21 80 80 2A 0F  55 55 80 F0 FF FF 7F F0  ...!..*.UU......
0F20: FF FF 7F 73 74 6D 30 01  5E 0F 02 04 00 0C 80 80  ...stm0.^.......
0F30: 44 0F 55 55 80 F0 FF FF  7F F0 FF FF 7F 73 6D 66  D.UU.........smf
0F40: 30 01 5E 0F 02 04 00 2B  80 80 5E 0F 55 55 80 F0  0.^....+..^.UU..
0F50: FF FF 7F F0 FF FF 7F 73  67 6D 30 01 5E 0F 01 81  .......sgm0.^...
0F60: 0F 02 19 00 13 80 80 81  0F 03 1B 00 04 00 14 1B  ................
0F70: 00 1C 80 07 1B 00 07 00  9D 07 64 10 1B 00 01 81  ..........d.....
0F80: 0F 1B 02 2D 10 01 80 00  90 0F 1C 13 80 01 82 0F  ...-............
0F90: 1B 45 19 80 F8 FF FF 7F  F8 FF FF 7F 66 64 69 31  .E..........fdi1
0FA0: 01 80 55 19 80 F8 FF FF  7F F8 FF FF 7F 66 64 69  ..U..........fdi
0FB0: 31 1B 45 19 80 F8 FF FF  7F F8 FF FF 7F 66 64 6F  1.E..........fdo
0FC0: 31 01 80 55 19 80 F8 FF  FF 7F F8 FF FF 7F 66 64  1..U..........fd
0FD0: 6F 31 1B 1D 56 80 23 48  57 80 24 58 80 01 80 01  o1..V.#HW.$X....
0FE0: 80 25 02 00 10 01 80 00  13 10 42 1D 59 80 23 40  .%........B.Y.#@
0FF0: 01 80 0C 80 01 10 03 80  43 00 43 01 02 02 10 01  ........C.C.....
1000: 80 02 0B 10 1D 5A 80 23  01 0F 10 1D 5B 80 23 2E  .....Z.#....[.#.
1010: 01 13 10 1B B4 10 B4 10  B4 10 B4 10 C6 10 D8 10  ................
1020: EA 10 B4 10 FC 10 0E 11  20 11 B4 10 32 11 44 11  ........ ...2.D.
1030: 56 11 B4 10 68 11 7A 11  8C 11 B4 10 9E 11 B0 11  V...h.z.........
1040: C2 11 B4 10 D4 11 E6 11  F8 11 B4 10 0A 12 1C 12  ................
1050: 2E 12 B4 10 40 12 52 12  64 12 B4 10 B4 10 B4 10  ....@.R.d.......
1060: B4 10 B4 10 B4 10 B4 10  B4 10 B4 10 76 12 86 12  ............v...
1070: 96 12 B4 10 A6 12 B6 12  C6 12 B4 10 D6 12 E6 12  ................
1080: F6 12 B4 10 06 13 16 13  26 13 B4 10 36 13 46 13  ........&...6.F.
1090: 56 13 B4 10 66 13 76 13  86 13 B4 10 96 13 A6 13  V...f.v.........
10A0: B6 13 B4 10 C6 13 D6 13  E6 13 B4 10 B4 10 B4 10  ................
10B0: B4 10 B4 10 45 19 80 F0  FF FF 7F F0 FF FF 7F 63  ....E..........c
10C0: 30 36 69 1A 00 1B 45 55  80 F0 FF FF 7F F0 FF FF  06i...EU........
10D0: 7F 73 68 6D 31 1A 00 1B  45 55 80 F0 FF FF 7F F0  .shm1...EU......
10E0: FF FF 7F 73 68 6D 32 1A  00 1B 45 55 80 F0 FF FF  ...shm2...EU....
10F0: 7F F0 FF FF 7F 73 68 6D  33 1A 00 1B 45 55 80 F0  .....shm3...EU..
1100: FF FF 7F F0 FF FF 7F 73  68 66 31 1A 00 1B 45 55  .......shf1...EU
1110: 80 F0 FF FF 7F F0 FF FF  7F 73 68 66 32 1A 00 1B  .........shf2...
1120: 45 55 80 F0 FF FF 7F F0  FF FF 7F 73 68 66 33 1A  EU.........shf3.
1130: 00 1B 45 55 80 F0 FF FF  7F F0 FF FF 7F 73 65 6D  ..EU.........sem
1140: 31 1A 00 1B 45 55 80 F0  FF FF 7F F0 FF FF 7F 73  1...EU.........s
1150: 65 6D 32 1A 00 1B 45 55  80 F0 FF FF 7F F0 FF FF  em2...EU........
1160: 7F 73 65 6D 33 1A 00 1B  45 55 80 F0 FF FF 7F F0  .sem3...EU......
1170: FF FF 7F 73 65 66 31 1A  00 1B 45 55 80 F0 FF FF  ...sef1...EU....
1180: 7F F0 FF FF 7F 73 65 66  32 1A 00 1B 45 55 80 F0  .....sef2...EU..
1190: FF FF 7F F0 FF FF 7F 73  65 66 33 1A 00 1B 45 55  .......sef3...EU
11A0: 80 F0 FF FF 7F F0 FF FF  7F 73 74 6D 31 1A 00 1B  .........stm1...
11B0: 45 55 80 F0 FF FF 7F F0  FF FF 7F 73 74 6D 32 1A  EU.........stm2.
11C0: 00 1B 45 55 80 F0 FF FF  7F F0 FF FF 7F 73 74 6D  ..EU.........stm
11D0: 33 1A 00 1B 45 55 80 F0  FF FF 7F F0 FF FF 7F 73  3...EU.........s
11E0: 74 6D 31 1A 00 1B 45 55  80 F0 FF FF 7F F0 FF FF  tm1...EU........
11F0: 7F 73 74 6D 32 1A 00 1B  45 55 80 F0 FF FF 7F F0  .stm2...EU......
1200: FF FF 7F 73 74 6D 33 1A  00 1B 45 55 80 F0 FF FF  ...stm3...EU....
1210: 7F F0 FF FF 7F 73 6D 66  31 1A 00 1B 45 55 80 F0  .....smf1...EU..
1220: FF FF 7F F0 FF FF 7F 73  6D 66 32 1A 00 1B 45 55  .......smf2...EU
1230: 80 F0 FF FF 7F F0 FF FF  7F 73 6D 66 33 1A 00 1B  .........smf3...
1240: 45 55 80 F0 FF FF 7F F0  FF FF 7F 73 67 6D 31 1A  EU.........sgm1.
1250: 00 1B 45 55 80 F0 FF FF  7F F0 FF FF 7F 73 67 6D  ..EU.........sgm
1260: 32 1A 00 1B 45 55 80 F0  FF FF 7F F0 FF FF 7F 73  2...EU.........s
1270: 67 6D 33 1A 00 1B 55 55  80 F0 FF FF 7F F0 FF FF  gm3...UU........
1280: 7F 73 68 6D 31 1B 55 55  80 F0 FF FF 7F F0 FF FF  .shm1.UU........
1290: 7F 73 68 6D 32 1B 55 55  80 F0 FF FF 7F F0 FF FF  .shm2.UU........
12A0: 7F 73 68 6D 33 1B 55 55  80 F0 FF FF 7F F0 FF FF  .shm3.UU........
12B0: 7F 73 68 66 31 1B 55 55  80 F0 FF FF 7F F0 FF FF  .shf1.UU........
12C0: 7F 73 68 66 32 1B 55 55  80 F0 FF FF 7F F0 FF FF  .shf2.UU........
12D0: 7F 73 68 66 33 1B 55 55  80 F0 FF FF 7F F0 FF FF  .shf3.UU........
12E0: 7F 73 65 6D 31 1B 55 55  80 F0 FF FF 7F F0 FF FF  .sem1.UU........
12F0: 7F 73 65 6D 32 1B 55 55  80 F0 FF FF 7F F0 FF FF  .sem2.UU........
1300: 7F 73 65 6D 33 1B 55 55  80 F0 FF FF 7F F0 FF FF  .sem3.UU........
1310: 7F 73 65 66 31 1B 55 55  80 F0 FF FF 7F F0 FF FF  .sef1.UU........
1320: 7F 73 65 66 32 1B 55 55  80 F0 FF FF 7F F0 FF FF  .sef2.UU........
1330: 7F 73 65 66 33 1B 55 55  80 F0 FF FF 7F F0 FF FF  .sef3.UU........
1340: 7F 73 74 6D 31 1B 55 55  80 F0 FF FF 7F F0 FF FF  .stm1.UU........
1350: 7F 73 74 6D 32 1B 55 55  80 F0 FF FF 7F F0 FF FF  .stm2.UU........
1360: 7F 73 74 6D 33 1B 55 55  80 F0 FF FF 7F F0 FF FF  .stm3.UU........
1370: 7F 73 74 6D 31 1B 55 55  80 F0 FF FF 7F F0 FF FF  .stm1.UU........
1380: 7F 73 74 6D 32 1B 55 55  80 F0 FF FF 7F F0 FF FF  .stm2.UU........
1390: 7F 73 74 6D 33 1B 55 55  80 F0 FF FF 7F F0 FF FF  .stm3.UU........
13A0: 7F 73 6D 66 31 1B 55 55  80 F0 FF FF 7F F0 FF FF  .smf1.UU........
13B0: 7F 73 6D 66 32 1B 55 55  80 F0 FF FF 7F F0 FF FF  .smf2.UU........
13C0: 7F 73 6D 66 33 1B 55 55  80 F0 FF FF 7F F0 FF FF  .smf3.UU........
13D0: 7F 73 67 6D 31 1B 55 55  80 F0 FF FF 7F F0 FF FF  .sgm1.UU........
13E0: 7F 73 67 6D 32 1B 55 55  80 F0 FF FF 7F F0 FF FF  .sgm2.UU........
13F0: 7F 73 67 6D 33 1B                                 .sgm3.          
```

#### Opcodes

```
  0: 0x004C [0x42] SET_CLI_EVENT_CANCEL_DATA()
  1: 0x004D [0x03] ExtData[1]->WorkLocal[0] = Work_Zone[2]
  2: 0x0052 [0x03] ExtData[1]->WorkLocal[1] = Work_Zone[3]
  3: 0x0057 [0x03] ExtData[1]->WorkLocal[3] = Work_Zone[4]
  4: 0x005C [0x03] ExtData[1]->WorkLocal[2] = Work_Zone[5]
  5: 0x0061 [0x03] ExtData[1]->WorkLocal[4] = ExtData[1]->WorkLocal[0]
  6: 0x0066 [0x03] ExtData[1]->WorkLocal[5] = ExtData[1]->WorkLocal[1]
  7: 0x006B [0x03] ExtData[1]->WorkLocal[6] = ExtData[1]->WorkLocal[2]
  8: 0x0070 [0x03] ExtData[1]->WorkLocal[7] = ExtData[1]->WorkLocal[3]
  9: 0x0075 [0x03] Work_Zone[41] = ExtData[1]->WorkLocal[0]
 10: 0x007A [0x03] Work_Zone[42] = ExtData[1]->WorkLocal[1]
 11: 0x007F [0x03] Work_Zone[44] = ExtData[1]->WorkLocal[3]
 12: 0x0084 [0x03] Work_Zone[43] = ExtData[1]->WorkLocal[2]
 13: 0x0089 [0x03] ExtData[1]->WorkLocal[11] = Work_Zone[7]
 14: 0x008E [0x1E] EventEntity looks at LocalPlayer and starts talking
 15: 0x0093 [0x6F] WAIT_FRAME_DELAY: Yield until WaitTime reaches zero
 16: 0x0094 [0x70] WAIT_ENTITY_RENDER_FLAG: Wait while EventEntity->Render.Flags3 bit 2 is set (cancel turn if not)
 17: 0x0095 [0x1D] PRINT_EVENT_MESSAGE(message_id=9355*)
    → "Welcome to the Race Change service, kupo!"
 18: 0x0098 [0x23] WAIT_FOR_DIALOG_INTERACTION
 19: 0x0099 [0x02] IF !(Work_Zone[6] <= 0*) GOTO 0x00AF
 20: 0x00A1 [0x1A] CALL_SUBROUTINE(address=0x0AF9)
 21: 0x00A4 [0x1D] PRINT_EVENT_MESSAGE(message_id=9364*)
    → "Careful though! If your service period expires while you're still making changes, you'll lose any changes you've made!"
 22: 0x00A7 [0x23] WAIT_FOR_DIALOG_INTERACTION
 23: 0x00A8 [0x1D] PRINT_EVENT_MESSAGE(message_id=9365*)
    → "Also, as a general rule, we are unable to guarantee service in the event of any unexpected issues such as network problems. Therefore, it's wise to make your changes with plenty of time to spare, kupo!"
 24: 0x00AB [0x23] WAIT_FOR_DIALOG_INTERACTION
 25: 0x00AC [0x01] GOTO 0x00D0
 26: 0x00AF [0x02] IF !(Work_Zone[6] == 4294967295*) GOTO 0x00BA
 27: 0x00B7 [0x01] GOTO 0x00D0
 28: 0x00BA [0x3E] IF !(ExtData[1]->WorkLocal[11] bit 0*) GOTO 0x00CB
 29: 0x00C1 [0x1D] PRINT_EVENT_MESSAGE(message_id=9386*)
    → "You can trade me certain items that you can no longer use because of your race or gender change, kupo!"
 30: 0x00C4 [0x23] WAIT_FOR_DIALOG_INTERACTION
 31: 0x00C5 [0x1A] CALL_SUBROUTINE(address=0x0FD3)
 32: 0x00C8 [0x01] GOTO 0x00CF
 33: 0x00CB [0x1D] PRINT_EVENT_MESSAGE(message_id=9356*)
    → "Please check the official website for more details regarding our service."
 34: 0x00CE [0x23] WAIT_FOR_DIALOG_INTERACTION

SUBROUTINE_00CF:
 35: 0x00CF [0x21] END_EVENT

SUBROUTINE_00D0:
 36: 0x00D0 [0x1A] CALL_SUBROUTINE(address=0x0FB2)
 37: 0x00D3 [0x03] Work_Zone[1] = 0*
 38: 0x00D8 [0x40] SET_BIT_WORK_RANGE(start_bit=0*, end_bit=7*, target=Work_Zone[1], source=2*)
 39: 0x00E1 [0x43] SEND_EVENT_UPDATE: Send pending tag to server (packet 0x005B)
 40: 0x00E3 [0x43] SEND_EVENT_UPDATE: Check pending flag (skip if not pending)
 41: 0x00E5 [0x03] ExtData[1]->WorkLocal[12] = Work_Zone[2]
 42: 0x00EA [0x03] ExtData[1]->WorkLocal[13] = Work_Zone[3]
 43: 0x00EF [0x03] ExtData[1]->WorkLocal[14] = Work_Zone[4]
 44: 0x00F4 [0x03] ExtData[1]->WorkLocal[15] = Work_Zone[5]
 45: 0x00F9 [0x03] ExtData[1]->WorkLocal[16] = Work_Zone[6]
 46: 0x00FE [0x03] ExtData[1]->WorkLocal[17] = Work_Zone[7]
 47: 0x0103 [0x03] ExtData[1]->WorkLocal[18] = Work_Zone[8]
 48: 0x0108 [0x03] ExtData[1]->WorkLocal[19] = Work_Zone[9]
 49: 0x010D [0x46] CAMERA_CONTROL: Disable user control
 50: 0x010F [0x1C] WAIT(120* ticks)
 51: 0x0112 [0x38] SET_CLIENT_EVENT_MODE(mode=19*)
 52: 0x0115 [0x03] Work_Zone[40] = 169*
 53: 0x011A [0x34] LOAD_UNLOAD_ZONE(zone_id=744*)
 54: 0x011D [0x1C] WAIT(30* ticks)
 55: 0x0120 [0x77] SET_EVENT_TIME_WEATHER(hour=11*, weather=1*)
 56: 0x0125 [0x4E] SET_ENTITY_HIDE_FLAG: Hide EventEntity
 57: 0x012B [0xBA] SET_ENTITY_POSITION(entity_id=LocalPlayer, pos_x=0.000*, pos_z=0.000*, pos_y=0.000*, direction=0.0°*)
 58: 0x0138 [0x4E] SET_ENTITY_HIDE_FLAG: Show LocalPlayer
 59: 0x013E [0x03] ExtData[1]->WorkLocal[21] = 1500*
 60: 0x0143 [0x03] ExtData[1]->WorkLocal[20] = 192*
 61: 0x0148 [0x2F] Previous Race (ID: 17637645/0x010D210D)->Render.Flags0 &= ~0x80000 // Bit 19
 62: 0x014E [0x29] REQ_SET_WAIT(priority=0x10, entity_id=Previous Race (ID: 17637645/0x010D210D), tag_num=0x02)
 63: 0x0155 [0xBA] SET_ENTITY_POSITION(entity_id=Previous Race (ID: 17637645/0x010D210D), pos_x=0.000*, pos_z=ExtData[1]->WorkLocal[21], pos_y=0.000*, direction=ExtData[1]->WorkLocal[20])
 64: 0x0162 [0x80] LOAD_WAIT(entity=Previous Race (ID: 17637645/0x010D210D))
 65: 0x0167 [0x03] ExtData[1]->WorkLocal[23] = 2*
 66: 0x016C [0x4E] SET_ENTITY_HIDE_FLAG: Hide Previous Race (ID: 17637645/0x010D210D)
 67: 0x0172 [0x1C] WAIT(60* ticks)
 68: 0x0175 [0x2F] Unknown NPC (ID: 17637644/0x010D210C)->Render.Flags0 &= ~0x80000 // Bit 19
 69: 0x017B [0x1C] WAIT(60* ticks)
 70: 0x017E [0x03] ExtData[1]->WorkLocal[24] = 0*
 71: 0x0183 [0x1A] CALL_SUBROUTINE(address=0x0C4B)
 72: 0x0186 [0x1A] CALL_SUBROUTINE(address=0x0D07)
 73: 0x0189 [0x03] ExtData[1]->WorkLocal[25] = 0*
 74: 0x018E [0x03] ExtData[1]->WorkLocal[26] = 0*
 75: 0x0193 [0x1A] CALL_SUBROUTINE(address=0x0D66)
 76: 0x0196 [0x1A] CALL_SUBROUTINE(address=0x0E86)
 77: 0x0199 [0x1A] CALL_SUBROUTINE(address=0x0F91)
 78: 0x019C [0x1A] CALL_SUBROUTINE(address=0x01F5)
 79: 0x019F [0x1A] CALL_SUBROUTINE(address=0x0FB2)
 80: 0x01A2 [0x1C] WAIT(120* ticks)
 81: 0x01A5 [0x1A] CALL_SUBROUTINE(address=0x0C9E)
 82: 0x01A8 [0x46] CAMERA_CONTROL: Restore default settings
 83: 0x01AA [0x5C] MUSIC_CONTROL: Set Idle (Day) music to song 0*
 84: 0x01AE [0x5C] MUSIC_CONTROL: Set Idle (Night) music to song 0*
 85: 0x01B2 [0x35] LOAD_ZONE_NO_CLOSE(zone_id=210*)
 86: 0x01B5 [0xB6] ENTITY_APPEARANCE_HANDLER(case=Test validity)
 87: 0x01B7 [0xAB] EventEntity->DespawnValue = 0* // Set despawn value
 88: 0x01BB [0xAB] EventEntity->UnknownFlag = 0 // Disable unknown flag
 89: 0x01BD [0x78] ENABLE_GAME_TIMER_RESET_WEATHER()
 90: 0x01BE [0x1C] WAIT(60* ticks)
 91: 0x01C1 [0x02] IF !(Work_Zone[1] == 1073741824*) GOTO 0x01E0
 92: 0x01C9 [0x1C] WAIT(60* ticks)
 93: 0x01CC [0x45] LOAD_SCHEDULED_TASK: Load scheduler "fdi2" with entities [LocalPlayer, LocalPlayer], work=[200*, 0*]
 94: 0x01DD [0x01] GOTO 0x01F1
 95: 0x01E0 [0x45] LOAD_SCHEDULED_TASK: Load scheduler "whi1" with entities [LocalPlayer, LocalPlayer], work=[201*, 0*]

SUBROUTINE_01F1:
 96: 0x01F1 [0x46] CAMERA_CONTROL: Restore default settings
 97: 0x01F3 [0x21] END_EVENT
 98: 0x01F4 [0x00] END_REQSTACK()

SUBROUTINE_01F5:
 99: 0x01F5 [0x05] ExtData[1]->WorkLocal[30] = 1

SUBROUTINE_01F8:
100: 0x01F8 [0x02] IF !(ExtData[1]->WorkLocal[30] == 0*) GOTO 0x04D4
101: 0x0200 [0x03] ExtData[1]->WorkLocal[32] = 0*
102: 0x0205 [0x02] IF !(ExtData[1]->WorkLocal[4] == ExtData[1]->WorkLocal[0]) GOTO 0x0215
103: 0x020D [0x03] Work_Zone_1700[2] = 0*
104: 0x0212 [0x01] GOTO 0x0221
105: 0x0215 [0x03] Work_Zone_1700[2] = 1*
106: 0x021A [0x3C] SET_BIT_FLAG_CONDITIONAL(target_work_offset=ExtData[1]->WorkLocal[32], bit_index_work_offset=0*, condition_work_offset=1*)

SUBROUTINE_0221:
107: 0x0221 [0x02] IF !(ExtData[1]->WorkLocal[5] == ExtData[1]->WorkLocal[1]) GOTO 0x0231
108: 0x0229 [0x03] Work_Zone_1700[3] = 0*
109: 0x022E [0x01] GOTO 0x023D
110: 0x0231 [0x03] Work_Zone_1700[3] = 1*
111: 0x0236 [0x3C] SET_BIT_FLAG_CONDITIONAL(target_work_offset=ExtData[1]->WorkLocal[32], bit_index_work_offset=1*, condition_work_offset=1*)

SUBROUTINE_023D:
112: 0x023D [0x02] IF !(ExtData[1]->WorkLocal[6] == ExtData[1]->WorkLocal[2]) GOTO 0x024D
113: 0x0245 [0x03] Work_Zone_1700[4] = 0*
114: 0x024A [0x01] GOTO 0x0259
115: 0x024D [0x03] Work_Zone_1700[4] = 1*
116: 0x0252 [0x3C] SET_BIT_FLAG_CONDITIONAL(target_work_offset=ExtData[1]->WorkLocal[32], bit_index_work_offset=2*, condition_work_offset=1*)

SUBROUTINE_0259:
117: 0x0259 [0x02] IF !(ExtData[1]->WorkLocal[7] == ExtData[1]->WorkLocal[3]) GOTO 0x0269
118: 0x0261 [0x03] Work_Zone_1700[5] = 0*
119: 0x0266 [0x01] GOTO 0x0275
120: 0x0269 [0x03] Work_Zone_1700[5] = 1*
121: 0x026E [0x3C] SET_BIT_FLAG_CONDITIONAL(target_work_offset=ExtData[1]->WorkLocal[32], bit_index_work_offset=3*, condition_work_offset=1*)

SUBROUTINE_0275:
122: 0x0275 [0x02] IF !(ExtData[1]->WorkLocal[25] == 4294967295*) GOTO 0x0285
123: 0x027D [0x03] Work_Zone_1700[6] = 1*
124: 0x0282 [0x01] GOTO 0x028A
125: 0x0285 [0x03] Work_Zone_1700[6] = 0*

SUBROUTINE_028A:
126: 0x028A [0x24] CREATE_DIALOG(message_id=9366*, default_option=ExtData[1]->WorkLocal[31], option_flags=0*)
    → "Character Race Change Service Menu [Select race. [/$26Changing]/Select face type. [/$26Changing]/Select hair color. [/$26Changing]/Select size. [/$26Changing]/Enable camera movement./View current appearance./Change to specified appearance./Exit.]"
127: 0x0291 [0x25] WAIT_DIALOG_SELECT()
128: 0x0292 [0x02] IF !(Work_Zone[0] == 0*) GOTO 0x02B8
129: 0x029A [0x03] ExtData[1]->WorkLocal[31] = 0*
130: 0x029F [0x02] IF !(ExtData[1]->WorkLocal[25] == 4294967295*) GOTO 0x02AF
131: 0x02A7 [0x03] ExtData[1]->WorkLocal[25] = 0*
132: 0x02AC [0x1A] CALL_SUBROUTINE(address=0x0D66)
133: 0x02AF [0x1A] CALL_SUBROUTINE(address=0x0D66)
134: 0x02B2 [0x1A] CALL_SUBROUTINE(address=0x04D5)
135: 0x02B5 [0x01] GOTO 0x04D1
136: 0x02B8 [0x02] IF !(Work_Zone[0] == 1*) GOTO 0x02DB
137: 0x02C0 [0x03] ExtData[1]->WorkLocal[31] = 1*
138: 0x02C5 [0x02] IF !(ExtData[1]->WorkLocal[25] == 4294967295*) GOTO 0x02D5
139: 0x02CD [0x03] ExtData[1]->WorkLocal[25] = 1*
140: 0x02D2 [0x1A] CALL_SUBROUTINE(address=0x0D66)
141: 0x02D5 [0x1A] CALL_SUBROUTINE(address=0x06BD)
142: 0x02D8 [0x01] GOTO 0x04D1
143: 0x02DB [0x02] IF !(Work_Zone[0] == 2*) GOTO 0x0301
144: 0x02E3 [0x03] ExtData[1]->WorkLocal[31] = 2*
145: 0x02E8 [0x02] IF !(ExtData[1]->WorkLocal[25] == 4294967295*) GOTO 0x02F8
146: 0x02F0 [0x03] ExtData[1]->WorkLocal[25] = 1*
147: 0x02F5 [0x1A] CALL_SUBROUTINE(address=0x0D66)
148: 0x02F8 [0x1A] CALL_SUBROUTINE(address=0x0D66)
149: 0x02FB [0x1A] CALL_SUBROUTINE(address=0x08A5)
150: 0x02FE [0x01] GOTO 0x04D1
151: 0x0301 [0x02] IF !(Work_Zone[0] == 3*) GOTO 0x0324
152: 0x0309 [0x03] ExtData[1]->WorkLocal[31] = 3*
153: 0x030E [0x02] IF !(ExtData[1]->WorkLocal[25] == 4294967295*) GOTO 0x031E
154: 0x0316 [0x03] ExtData[1]->WorkLocal[25] = 0*
155: 0x031B [0x1A] CALL_SUBROUTINE(address=0x0D66)
156: 0x031E [0x1A] CALL_SUBROUTINE(address=0x093D)
157: 0x0321 [0x01] GOTO 0x04D1
158: 0x0324 [0x02] IF !(Work_Zone[0] == 4*) GOTO 0x036B
159: 0x032C [0x03] ExtData[1]->WorkLocal[31] = 4*
160: 0x0331 [0x1A] CALL_SUBROUTINE(address=0x0FB2)
161: 0x0334 [0x02] IF !(ExtData[1]->WorkLocal[25] == 4294967295*) GOTO 0x0355
162: 0x033C [0x48] [System] [9367*]:
    → "You can move the camera to check your character's appearance. If using a keyboard, hold down the shift key and press the camera key in order to move the camera."
163: 0x033F [0x23] WAIT_FOR_DIALOG_INTERACTION
164: 0x0340 [0x1C] WAIT(60* ticks)
165: 0x0343 [0x46] CAMERA_CONTROL: Restore default settings
166: 0x0345 [0x46] CAMERA_CONTROL: Unknown mode 0x3
167: 0x0347 [0x1E] EventEntity looks at Unknown NPC (ID: 25173888/0x01801F80) and starts talking
168: 0x034C [0x80] LOAD_WAIT(entity=Unknown NPC (ID: 184555779/0x0B001903))
169: 0x0351 [0x80] LOAD_WAIT(entity=Unknown NPC (ID: 469984513/0x1C036501))
170: 0x0356 [0x16] 0x4680 = sin(0x0301) * ExtData[1]->WorkLocal[25]
171: 0x035D [0x01] GOTO 0x1A80
172: 0x0360 [0x66] LOAD_EXT_SCHEDULER_MAIN: Load scheduler 0x20100002 with entities [Unknown NPC (ID: 2434403974/0x911A0E86), Unknown NPC (ID: 80806159/0x04D1010F)], work=0x1A0D
173: 0x036F [0x80] LOAD_WAIT(entity=Unknown NPC (ID: 50560512/0x03037E00))
174: 0x0374 [0x1F] MOVE_ENTITY: EventEntity moves to X=0.005*, Z=0x0D1A, Y=0x010A
175: 0x037C [0xD1] WAIT_LOAD_SCHEDULER_ALT5: Wait for scheduler 0x8021001F with entities [Unknown NPC (ID: 2149650432/0x80211000), Unknown NPC (ID: 50634496/0x03049F00)], work=0x0204
176: 0x038B [0x02] IF !(ExtData[1]->WorkLocal[32] == 0*) GOTO 0x0498
177: 0x0393 [0x02] IF !(ExtData[1]->WorkLocal[25] == 4294967295*) GOTO 0x03A6
178: 0x039B [0x03] ExtData[1]->WorkLocal[25] = 0*
179: 0x03A0 [0x1A] CALL_SUBROUTINE(address=0x0D66)
180: 0x03A3 [0x1A] CALL_SUBROUTINE(address=0x0E86)
181: 0x03A6 [0x03] Work_Zone[40] = 169*
182: 0x03AB [0x02] IF !(ExtData[1]->WorkLocal[4] == ExtData[1]->WorkLocal[0]) GOTO 0x03C3
183: 0x03B3 [0x48] [System] [9376*]:
    → "If you change your character to the specified race, it will lose its previous race as well as any gender-specific equipment."
184: 0x03B6 [0x23] WAIT_FOR_DIALOG_INTERACTION
185: 0x03B7 [0x48] [System] [9378*]:
    → "Certain items can be exchanged for equippable ones by speaking with %."
186: 0x03BA [0x23] WAIT_FOR_DIALOG_INTERACTION
187: 0x03BB [0x48] [System] [9379*]:
    → "Applicable items can be checked with % after changing races."
188: 0x03BE [0x23] WAIT_FOR_DIALOG_INTERACTION
189: 0x03BF [0x48] [System] [9380*]:
    → "In addition, the following stats may be adjusted depending on your character's new race: HP, MP, STR, DEX, VIT, AGI, INT, MND, CHR"
190: 0x03C2 [0x23] WAIT_FOR_DIALOG_INTERACTION
191: 0x03C3 [0x03] Work_Zone_1700[2] = ExtData[1]->WorkLocal[4]
192: 0x03C8 [0x03] Work_Zone_1700[3] = ExtData[1]->WorkLocal[5]
193: 0x03CD [0x0B] Work_Zone_1700[3]++
194: 0x03D0 [0x03] Work_Zone_1700[4] = ExtData[1]->WorkLocal[6]
195: 0x03D5 [0x03] Work_Zone_1700[5] = ExtData[1]->WorkLocal[7]
196: 0x03DA [0x48] [System] [9381*]:
    → "---------------------------------------------- Race (after change): [None/Hume (male)/Hume (female)/Elvaan (male)/Elvaan (female)/Tarutaru (male)/Tarutaru (female)/Mithra/Galka] Face type: $11@Hair color: [A/B]@Size: [S/M/L] ----------------------------------------------"
197: 0x03DD [0x23] WAIT_FOR_DIALOG_INTERACTION
198: 0x03DE [0x24] CREATE_DIALOG(message_id=9383*, default_option=1*, option_flags=0*)
    → "Change your character to this appearance? [Yes./No.]"
199: 0x03E5 [0x25] WAIT_DIALOG_SELECT()
200: 0x03E6 [0x02] IF !(Work_Zone[0] == 0*) GOTO 0x0495
201: 0x03EE [0x1C] WAIT(60* ticks)
202: 0x03F1 [0x24] CREATE_DIALOG(message_id=9384*, default_option=1*, option_flags=0*)
    → "Are you absolutely sure? [Yes./No.]"
203: 0x03F8 [0x25] WAIT_DIALOG_SELECT()
204: 0x03F9 [0x02] IF !(Work_Zone[0] == 0*) GOTO 0x0492
205: 0x0401 [0x1D] PRINT_EVENT_MESSAGE(message_id=9385*)
    → "May Altana bless you as you begin your new life, kupo!"
206: 0x0404 [0x23] WAIT_FOR_DIALOG_INTERACTION
207: 0x0405 [0x6E] LocalPlayer uses emote 11*
208: 0x040C [0x99] Wait for LocalPlayer animation to complete
209: 0x0411 [0x99] Wait for LocalPlayer animation to complete
210: 0x0416 [0x45] LOAD_SCHEDULED_TASK: Load scheduler "who1" with entities [LocalPlayer, LocalPlayer], work=[201*, 0*]
211: 0x0427 [0x55] WAIT_LOAD_SCHEDULER: Wait for scheduler "who1" with entities [LocalPlayer, LocalPlayer], work=201*
212: 0x0436 [0x1C] WAIT(60* ticks)
213: 0x0439 [0x62] LOAD_EVENT_SCHEDULER: Load scheduler "main" with entities [LocalPlayer, LocalPlayer], work=[26*, 0*]
214: 0x044A [0xA0] WAIT_LOAD_SCHEDULER_MAIN_ALT2: Wait for scheduler "main" with entities [LocalPlayer, LocalPlayer], work=26*
215: 0x0459 [0x06] ExtData[1]->WorkLocal[30] = 0
216: 0x045C [0x03] Work_Zone[1] = 0*
217: 0x0461 [0x40] SET_BIT_WORK_RANGE(start_bit=0*, end_bit=7*, target=Work_Zone[1], source=1*)
218: 0x046A [0x40] SET_BIT_WORK_RANGE(start_bit=8*, end_bit=11*, target=Work_Zone[1], source=ExtData[1]->WorkLocal[4])
219: 0x0473 [0x40] SET_BIT_WORK_RANGE(start_bit=13*, end_bit=15*, target=Work_Zone[1], source=ExtData[1]->WorkLocal[5])
220: 0x047C [0x40] SET_BIT_WORK_RANGE(start_bit=12*, end_bit=12*, target=Work_Zone[1], source=ExtData[1]->WorkLocal[6])
221: 0x0485 [0x40] SET_BIT_WORK_RANGE(start_bit=16*, end_bit=17*, target=Work_Zone[1], source=ExtData[1]->WorkLocal[7])
222: 0x048E [0x1B] RETURN

SUBROUTINE_0492:
223: 0x0492 [0x01] GOTO 0x0495

SUBROUTINE_0495:
224: 0x0495 [0x01] GOTO 0x049C
225: 0x0498 [0x48] [System] [9375*]:
    → "You have not edited any character attributes. Select Exit from the menu if you wish to exit this mode without making any changes."
226: 0x049B [0x23] WAIT_FOR_DIALOG_INTERACTION

SUBROUTINE_049C:
227: 0x049C [0x01] GOTO 0x04D1
228: 0x049F [0x02] IF !(Work_Zone[0] == 999*) GOTO 0x04AA
229: 0x04A7 [0x01] GOTO 0x04D1
230: 0x04AA [0x03] ExtData[1]->WorkLocal[31] = Work_Zone[0]
231: 0x04AF [0x1A] CALL_SUBROUTINE(address=0x0B57)
232: 0x04B2 [0x02] IF !(ExtData[1]->WorkLocal[28] == 0*) GOTO 0x04D1
233: 0x04BA [0x1A] CALL_SUBROUTINE(address=0x0FB2)
234: 0x04BD [0x1C] WAIT(120* ticks)
235: 0x04C0 [0x03] Work_Zone[40] = 0*
236: 0x04C5 [0x1C] WAIT(60* ticks)
237: 0x04C8 [0x06] ExtData[1]->WorkLocal[30] = 0
238: 0x04CB [0x03] Work_Zone[1] = 1073741824*
239: 0x04D0 [0x1B] RETURN

SUBROUTINE_04D1:
240: 0x04D1 [0x01] GOTO 0x01F8
241: 0x04D4 [0x1B] RETURN

SUBROUTINE_04D5:
242: 0x04D5 [0x05] ExtData[1]->WorkLocal[33] = 1

SUBROUTINE_04D8:
243: 0x04D8 [0x02] IF !(ExtData[1]->WorkLocal[33] == 0*) GOTO 0x06BC
244: 0x04E0 [0x1A] CALL_SUBROUTINE(address=0x0BB2)
245: 0x04E3 [0x03] Work_Zone_1700[3] = 0*
246: 0x04E8 [0x03] Work_Zone_1700[4] = 0*
247: 0x04ED [0x03] Work_Zone_1700[5] = 0*
248: 0x04F2 [0x03] Work_Zone_1700[6] = 0*
249: 0x04F7 [0x03] Work_Zone_1700[7] = 0*
250: 0x04FC [0x03] Work_Zone_1700[8] = 0*
251: 0x0501 [0x03] Work_Zone_1700[9] = 0*
252: 0x0506 [0x03] Work_Zone_1700[10] = 0*
253: 0x050B [0x02] IF !(ExtData[1]->WorkLocal[0] == 1*) GOTO 0x051B
254: 0x0513 [0x03] Work_Zone_1700[3] = 2*
255: 0x0518 [0x01] GOTO 0x058B
256: 0x051B [0x02] IF !(ExtData[1]->WorkLocal[0] == 2*) GOTO 0x052B
257: 0x0523 [0x03] Work_Zone_1700[4] = 2*
258: 0x0528 [0x01] GOTO 0x058B
259: 0x052B [0x02] IF !(ExtData[1]->WorkLocal[0] == 3*) GOTO 0x053B
260: 0x0533 [0x03] Work_Zone_1700[5] = 2*
261: 0x0538 [0x01] GOTO 0x058B
262: 0x053B [0x02] IF !(ExtData[1]->WorkLocal[0] == 4*) GOTO 0x054B
263: 0x0543 [0x03] Work_Zone_1700[6] = 2*
264: 0x0548 [0x01] GOTO 0x058B
265: 0x054B [0x02] IF !(ExtData[1]->WorkLocal[0] == 5*) GOTO 0x055B
266: 0x0553 [0x03] Work_Zone_1700[7] = 2*
267: 0x0558 [0x01] GOTO 0x058B
268: 0x055B [0x02] IF !(ExtData[1]->WorkLocal[0] == 6*) GOTO 0x056B
269: 0x0563 [0x03] Work_Zone_1700[8] = 2*
270: 0x0568 [0x01] GOTO 0x058B
271: 0x056B [0x02] IF !(ExtData[1]->WorkLocal[0] == 7*) GOTO 0x057B
272: 0x0573 [0x03] Work_Zone_1700[9] = 2*
273: 0x0578 [0x01] GOTO 0x058B
274: 0x057B [0x02] IF !(ExtData[1]->WorkLocal[0] == 8*) GOTO 0x058B
275: 0x0583 [0x03] Work_Zone_1700[10] = 2*
276: 0x0588 [0x01] GOTO 0x058B

SUBROUTINE_058B:
277: 0x058B [0x02] IF !(ExtData[1]->WorkLocal[4] == ExtData[1]->WorkLocal[0]) GOTO 0x0613
278: 0x0593 [0x02] IF !(ExtData[1]->WorkLocal[4] == 1*) GOTO 0x05A3
279: 0x059B [0x03] Work_Zone_1700[3] = 1*
280: 0x05A0 [0x01] GOTO 0x0613
281: 0x05A3 [0x02] IF !(ExtData[1]->WorkLocal[4] == 2*) GOTO 0x05B3
282: 0x05AB [0x03] Work_Zone_1700[4] = 1*
283: 0x05B0 [0x01] GOTO 0x0613
284: 0x05B3 [0x02] IF !(ExtData[1]->WorkLocal[4] == 3*) GOTO 0x05C3
285: 0x05BB [0x03] Work_Zone_1700[5] = 1*
286: 0x05C0 [0x01] GOTO 0x0613
287: 0x05C3 [0x02] IF !(ExtData[1]->WorkLocal[4] == 4*) GOTO 0x05D3
288: 0x05CB [0x03] Work_Zone_1700[6] = 1*
289: 0x05D0 [0x01] GOTO 0x0613
290: 0x05D3 [0x02] IF !(ExtData[1]->WorkLocal[4] == 5*) GOTO 0x05E3
291: 0x05DB [0x03] Work_Zone_1700[7] = 1*
292: 0x05E0 [0x01] GOTO 0x0613
293: 0x05E3 [0x02] IF !(ExtData[1]->WorkLocal[4] == 6*) GOTO 0x05F3
294: 0x05EB [0x03] Work_Zone_1700[8] = 1*
295: 0x05F0 [0x01] GOTO 0x0613
296: 0x05F3 [0x02] IF !(ExtData[1]->WorkLocal[4] == 7*) GOTO 0x0603
297: 0x05FB [0x03] Work_Zone_1700[9] = 1*
298: 0x0600 [0x01] GOTO 0x0613
299: 0x0603 [0x02] IF !(ExtData[1]->WorkLocal[4] == 8*) GOTO 0x0613
300: 0x060B [0x03] Work_Zone_1700[10] = 1*
301: 0x0610 [0x01] GOTO 0x0613

SUBROUTINE_0613:
302: 0x0613 [0x24] CREATE_DIALOG(message_id=9370*, default_option=ExtData[1]->WorkLocal[34], option_flags=0*)
    → "Choose your character's race and gender. [Hume (male). [/$26Selected/(race before change)]/Hume (female). [/$26Selected/(race before change)]/Elvaan (male).@@ [/$26Selected/(race before change)]/Elvaan (female). @[/$26Selected/(race before change)]/Tarutaru (male).@ [/$26Selected/(race before change)]/Tarutaru (female). [/$26Selected/(race before change)]/Mithra. [/$26Selected/(race before change)]/Galka. [/$26Selected/(race before change)]/Back.]"
303: 0x061A [0x25] WAIT_DIALOG_SELECT()
304: 0x061B [0x02] IF !(Work_Zone[0] == 0*) GOTO 0x062E
305: 0x0623 [0x03] ExtData[1]->WorkLocal[4] = 1*
306: 0x0628 [0x1A] CALL_SUBROUTINE(address=0x0C38)
307: 0x062B [0x01] GOTO 0x06B4
308: 0x062E [0x02] IF !(Work_Zone[0] == 1*) GOTO 0x0641
309: 0x0636 [0x03] ExtData[1]->WorkLocal[4] = 2*
310: 0x063B [0x1A] CALL_SUBROUTINE(address=0x0C38)
311: 0x063E [0x01] GOTO 0x06B4
312: 0x0641 [0x02] IF !(Work_Zone[0] == 2*) GOTO 0x0654
313: 0x0649 [0x03] ExtData[1]->WorkLocal[4] = 3*
314: 0x064E [0x1A] CALL_SUBROUTINE(address=0x0C38)
315: 0x0651 [0x01] GOTO 0x06B4
316: 0x0654 [0x02] IF !(Work_Zone[0] == 3*) GOTO 0x0667
317: 0x065C [0x03] ExtData[1]->WorkLocal[4] = 4*
318: 0x0661 [0x1A] CALL_SUBROUTINE(address=0x0C38)
319: 0x0664 [0x01] GOTO 0x06B4
320: 0x0667 [0x02] IF !(Work_Zone[0] == 4*) GOTO 0x067A
321: 0x066F [0x03] ExtData[1]->WorkLocal[4] = 5*
322: 0x0674 [0x1A] CALL_SUBROUTINE(address=0x0C38)
323: 0x0677 [0x01] GOTO 0x06B4
324: 0x067A [0x02] IF !(Work_Zone[0] == 5*) GOTO 0x068D
325: 0x0682 [0x03] ExtData[1]->WorkLocal[4] = 6*
326: 0x0687 [0x1A] CALL_SUBROUTINE(address=0x0C38)
327: 0x068A [0x01] GOTO 0x06B4
328: 0x068D [0x02] IF !(Work_Zone[0] == 6*) GOTO 0x06A0
329: 0x0695 [0x03] ExtData[1]->WorkLocal[4] = 7*
330: 0x069A [0x1A] CALL_SUBROUTINE(address=0x0C38)
331: 0x069D [0x01] GOTO 0x06B4
332: 0x06A0 [0x02] IF !(Work_Zone[0] == 7*) GOTO 0x06B3
333: 0x06A8 [0x03] ExtData[1]->WorkLocal[4] = 8*
334: 0x06AD [0x1A] CALL_SUBROUTINE(address=0x0C38)
335: 0x06B0 [0x01] GOTO 0x06B4
336: 0x06B3 [0x1B] RETURN

SUBROUTINE_06B4:
337: 0x06B4 [0x03] ExtData[1]->WorkLocal[34] = Work_Zone[0]
338: 0x06B9 [0x01] GOTO 0x04D8
339: 0x06BC [0x1B] RETURN

SUBROUTINE_06BD:
340: 0x06BD [0x05] ExtData[1]->WorkLocal[35] = 1

SUBROUTINE_06C0:
341: 0x06C0 [0x02] IF !(ExtData[1]->WorkLocal[35] == 0*) GOTO 0x08A4
342: 0x06C8 [0x1A] CALL_SUBROUTINE(address=0x0BB2)
343: 0x06CB [0x03] Work_Zone_1700[3] = 0*
344: 0x06D0 [0x03] Work_Zone_1700[4] = 0*
345: 0x06D5 [0x03] Work_Zone_1700[5] = 0*
346: 0x06DA [0x03] Work_Zone_1700[6] = 0*
347: 0x06DF [0x03] Work_Zone_1700[7] = 0*
348: 0x06E4 [0x03] Work_Zone_1700[8] = 0*
349: 0x06E9 [0x03] Work_Zone_1700[9] = 0*
350: 0x06EE [0x03] Work_Zone_1700[10] = 0*
351: 0x06F3 [0x02] IF !(ExtData[1]->WorkLocal[1] == 0*) GOTO 0x0703
352: 0x06FB [0x03] Work_Zone_1700[3] = 2*
353: 0x0700 [0x01] GOTO 0x0773
354: 0x0703 [0x02] IF !(ExtData[1]->WorkLocal[1] == 1*) GOTO 0x0713
355: 0x070B [0x03] Work_Zone_1700[4] = 2*
356: 0x0710 [0x01] GOTO 0x0773
357: 0x0713 [0x02] IF !(ExtData[1]->WorkLocal[1] == 2*) GOTO 0x0723
358: 0x071B [0x03] Work_Zone_1700[5] = 2*
359: 0x0720 [0x01] GOTO 0x0773
360: 0x0723 [0x02] IF !(ExtData[1]->WorkLocal[1] == 3*) GOTO 0x0733
361: 0x072B [0x03] Work_Zone_1700[6] = 2*
362: 0x0730 [0x01] GOTO 0x0773
363: 0x0733 [0x02] IF !(ExtData[1]->WorkLocal[1] == 4*) GOTO 0x0743
364: 0x073B [0x03] Work_Zone_1700[7] = 2*
365: 0x0740 [0x01] GOTO 0x0773
366: 0x0743 [0x02] IF !(ExtData[1]->WorkLocal[1] == 5*) GOTO 0x0753
367: 0x074B [0x03] Work_Zone_1700[8] = 2*
368: 0x0750 [0x01] GOTO 0x0773
369: 0x0753 [0x02] IF !(ExtData[1]->WorkLocal[1] == 6*) GOTO 0x0763
370: 0x075B [0x03] Work_Zone_1700[9] = 2*
371: 0x0760 [0x01] GOTO 0x0773
372: 0x0763 [0x02] IF !(ExtData[1]->WorkLocal[1] == 7*) GOTO 0x0773
373: 0x076B [0x03] Work_Zone_1700[10] = 2*
374: 0x0770 [0x01] GOTO 0x0773

SUBROUTINE_0773:
375: 0x0773 [0x02] IF !(ExtData[1]->WorkLocal[5] == ExtData[1]->WorkLocal[1]) GOTO 0x07FB
376: 0x077B [0x02] IF !(ExtData[1]->WorkLocal[5] == 0*) GOTO 0x078B
377: 0x0783 [0x03] Work_Zone_1700[3] = 1*
378: 0x0788 [0x01] GOTO 0x07FB
379: 0x078B [0x02] IF !(ExtData[1]->WorkLocal[5] == 1*) GOTO 0x079B
380: 0x0793 [0x03] Work_Zone_1700[4] = 1*
381: 0x0798 [0x01] GOTO 0x07FB
382: 0x079B [0x02] IF !(ExtData[1]->WorkLocal[5] == 2*) GOTO 0x07AB
383: 0x07A3 [0x03] Work_Zone_1700[5] = 1*
384: 0x07A8 [0x01] GOTO 0x07FB
385: 0x07AB [0x02] IF !(ExtData[1]->WorkLocal[5] == 3*) GOTO 0x07BB
386: 0x07B3 [0x03] Work_Zone_1700[6] = 1*
387: 0x07B8 [0x01] GOTO 0x07FB
388: 0x07BB [0x02] IF !(ExtData[1]->WorkLocal[5] == 4*) GOTO 0x07CB
389: 0x07C3 [0x03] Work_Zone_1700[7] = 1*
390: 0x07C8 [0x01] GOTO 0x07FB
391: 0x07CB [0x02] IF !(ExtData[1]->WorkLocal[5] == 5*) GOTO 0x07DB
392: 0x07D3 [0x03] Work_Zone_1700[8] = 1*
393: 0x07D8 [0x01] GOTO 0x07FB
394: 0x07DB [0x02] IF !(ExtData[1]->WorkLocal[5] == 6*) GOTO 0x07EB
395: 0x07E3 [0x03] Work_Zone_1700[9] = 1*
396: 0x07E8 [0x01] GOTO 0x07FB
397: 0x07EB [0x02] IF !(ExtData[1]->WorkLocal[5] == 7*) GOTO 0x07FB
398: 0x07F3 [0x03] Work_Zone_1700[10] = 1*
399: 0x07F8 [0x01] GOTO 0x07FB

SUBROUTINE_07FB:
400: 0x07FB [0x24] CREATE_DIALOG(message_id=9371*, default_option=ExtData[1]->WorkLocal[36], option_flags=0*)
    → "Choose your character's face type. [Face type 1.@[/$26Selected/(face before change)]/Face type 2.@[/$26Selected/(face before change)]/Face type 3.@[/$26Selected/(face before change)]/Face type 4.@[/$26Selected/(face before change)]/Face type 5.@[/$26Selected/(face before change)]/Face type 6.@[/$26Selected/(face before change)]/Face type 7.@[/$26Selected/(face before change)]/Face type 8.@[/$26Selected/(face before change)]/Back.]"
401: 0x0802 [0x25] WAIT_DIALOG_SELECT()
402: 0x0803 [0x02] IF !(Work_Zone[0] == 0*) GOTO 0x0816
403: 0x080B [0x03] ExtData[1]->WorkLocal[5] = 0*
404: 0x0810 [0x1A] CALL_SUBROUTINE(address=0x0C4B)
405: 0x0813 [0x01] GOTO 0x089C
406: 0x0816 [0x02] IF !(Work_Zone[0] == 1*) GOTO 0x0829
407: 0x081E [0x03] ExtData[1]->WorkLocal[5] = 1*
408: 0x0823 [0x1A] CALL_SUBROUTINE(address=0x0C4B)
409: 0x0826 [0x01] GOTO 0x089C
410: 0x0829 [0x02] IF !(Work_Zone[0] == 2*) GOTO 0x083C
411: 0x0831 [0x03] ExtData[1]->WorkLocal[5] = 2*
412: 0x0836 [0x1A] CALL_SUBROUTINE(address=0x0C4B)
413: 0x0839 [0x01] GOTO 0x089C
414: 0x083C [0x02] IF !(Work_Zone[0] == 3*) GOTO 0x084F
415: 0x0844 [0x03] ExtData[1]->WorkLocal[5] = 3*
416: 0x0849 [0x1A] CALL_SUBROUTINE(address=0x0C4B)
417: 0x084C [0x01] GOTO 0x089C
418: 0x084F [0x02] IF !(Work_Zone[0] == 4*) GOTO 0x0862
419: 0x0857 [0x03] ExtData[1]->WorkLocal[5] = 4*
420: 0x085C [0x1A] CALL_SUBROUTINE(address=0x0C4B)
421: 0x085F [0x01] GOTO 0x089C
422: 0x0862 [0x02] IF !(Work_Zone[0] == 5*) GOTO 0x0875
423: 0x086A [0x03] ExtData[1]->WorkLocal[5] = 5*
424: 0x086F [0x1A] CALL_SUBROUTINE(address=0x0C4B)
425: 0x0872 [0x01] GOTO 0x089C
426: 0x0875 [0x02] IF !(Work_Zone[0] == 6*) GOTO 0x0888
427: 0x087D [0x03] ExtData[1]->WorkLocal[5] = 6*
428: 0x0882 [0x1A] CALL_SUBROUTINE(address=0x0C4B)
429: 0x0885 [0x01] GOTO 0x089C
430: 0x0888 [0x02] IF !(Work_Zone[0] == 7*) GOTO 0x089B
431: 0x0890 [0x03] ExtData[1]->WorkLocal[5] = 7*
432: 0x0895 [0x1A] CALL_SUBROUTINE(address=0x0C4B)
433: 0x0898 [0x01] GOTO 0x089C
434: 0x089B [0x1B] RETURN

SUBROUTINE_089C:
435: 0x089C [0x03] ExtData[1]->WorkLocal[36] = Work_Zone[0]
436: 0x08A1 [0x01] GOTO 0x06C0
437: 0x08A4 [0x1B] RETURN

SUBROUTINE_08A5:
438: 0x08A5 [0x05] ExtData[1]->WorkLocal[37] = 1

SUBROUTINE_08A8:
439: 0x08A8 [0x02] IF !(ExtData[1]->WorkLocal[37] == 0*) GOTO 0x093C
440: 0x08B0 [0x1A] CALL_SUBROUTINE(address=0x0BB2)
441: 0x08B3 [0x03] Work_Zone_1700[3] = 0*
442: 0x08B8 [0x03] Work_Zone_1700[4] = 0*
443: 0x08BD [0x02] IF !(ExtData[1]->WorkLocal[2] == 0*) GOTO 0x08CD
444: 0x08C5 [0x03] Work_Zone_1700[3] = 2*
445: 0x08CA [0x01] GOTO 0x08DD
446: 0x08CD [0x02] IF !(ExtData[1]->WorkLocal[2] == 1*) GOTO 0x08DD
447: 0x08D5 [0x03] Work_Zone_1700[4] = 2*
448: 0x08DA [0x01] GOTO 0x08DD

SUBROUTINE_08DD:
449: 0x08DD [0x02] IF !(ExtData[1]->WorkLocal[6] == ExtData[1]->WorkLocal[2]) GOTO 0x0905
450: 0x08E5 [0x02] IF !(ExtData[1]->WorkLocal[6] == 0*) GOTO 0x08F5
451: 0x08ED [0x03] Work_Zone_1700[3] = 1*
452: 0x08F2 [0x01] GOTO 0x0905
453: 0x08F5 [0x02] IF !(ExtData[1]->WorkLocal[6] == 1*) GOTO 0x0905
454: 0x08FD [0x03] Work_Zone_1700[4] = 1*
455: 0x0902 [0x01] GOTO 0x0905

SUBROUTINE_0905:
456: 0x0905 [0x24] CREATE_DIALOG(message_id=9372*, default_option=ExtData[1]->WorkLocal[38], option_flags=0*)
    → "Choose your character's hair color. [Hair A. [/$26Selected/(hair before change)]/Hair B. [/$26Selected/(hair before change)]/Back.]"
457: 0x090C [0x25] WAIT_DIALOG_SELECT()
458: 0x090D [0x02] IF !(Work_Zone[0] == 0*) GOTO 0x0920
459: 0x0915 [0x03] ExtData[1]->WorkLocal[6] = 0*
460: 0x091A [0x1A] CALL_SUBROUTINE(address=0x0C4B)
461: 0x091D [0x01] GOTO 0x0934
462: 0x0920 [0x02] IF !(Work_Zone[0] == 1*) GOTO 0x0933
463: 0x0928 [0x03] ExtData[1]->WorkLocal[6] = 1*
464: 0x092D [0x1A] CALL_SUBROUTINE(address=0x0C4B)
465: 0x0930 [0x01] GOTO 0x0934
466: 0x0933 [0x1B] RETURN

SUBROUTINE_0934:
467: 0x0934 [0x03] ExtData[1]->WorkLocal[38] = Work_Zone[0]
468: 0x0939 [0x01] GOTO 0x08A8
469: 0x093C [0x1B] RETURN

SUBROUTINE_093D:
470: 0x093D [0x05] ExtData[1]->WorkLocal[39] = 1

SUBROUTINE_0940:
471: 0x0940 [0x02] IF !(ExtData[1]->WorkLocal[39] == 0*) GOTO 0x0A0C
472: 0x0948 [0x1A] CALL_SUBROUTINE(address=0x0BB2)
473: 0x094B [0x03] Work_Zone_1700[3] = 0*
474: 0x0950 [0x03] Work_Zone_1700[4] = 0*
475: 0x0955 [0x03] Work_Zone_1700[5] = 0*
476: 0x095A [0x02] IF !(ExtData[1]->WorkLocal[3] == 0*) GOTO 0x096A
477: 0x0962 [0x03] Work_Zone_1700[3] = 2*
478: 0x0967 [0x01] GOTO 0x098A
479: 0x096A [0x02] IF !(ExtData[1]->WorkLocal[3] == 1*) GOTO 0x097A
480: 0x0972 [0x03] Work_Zone_1700[4] = 2*
481: 0x0977 [0x01] GOTO 0x098A
482: 0x097A [0x02] IF !(ExtData[1]->WorkLocal[3] == 2*) GOTO 0x098A
483: 0x0982 [0x03] Work_Zone_1700[5] = 2*
484: 0x0987 [0x01] GOTO 0x098A

SUBROUTINE_098A:
485: 0x098A [0x02] IF !(ExtData[1]->WorkLocal[7] == ExtData[1]->WorkLocal[3]) GOTO 0x09C2
486: 0x0992 [0x02] IF !(ExtData[1]->WorkLocal[7] == 0*) GOTO 0x09A2
487: 0x099A [0x03] Work_Zone_1700[3] = 1*
488: 0x099F [0x01] GOTO 0x09C2
489: 0x09A2 [0x02] IF !(ExtData[1]->WorkLocal[7] == 1*) GOTO 0x09B2
490: 0x09AA [0x03] Work_Zone_1700[4] = 1*
491: 0x09AF [0x01] GOTO 0x09C2
492: 0x09B2 [0x02] IF !(ExtData[1]->WorkLocal[7] == 2*) GOTO 0x09C2
493: 0x09BA [0x03] Work_Zone_1700[5] = 1*
494: 0x09BF [0x01] GOTO 0x09C2

SUBROUTINE_09C2:
495: 0x09C2 [0x24] CREATE_DIALOG(message_id=9373*, default_option=ExtData[1]->WorkLocal[40], option_flags=0*)
    → "Choose your character's size. [Small. [/$26Selected/(size before change)]/Medium. [/$26Selected/(size before change)]/Large. [/$26Selected/(size before change)]/Back.]"
496: 0x09C9 [0x25] WAIT_DIALOG_SELECT()
497: 0x09CA [0x02] IF !(Work_Zone[0] == 0*) GOTO 0x09DD
498: 0x09D2 [0x03] ExtData[1]->WorkLocal[7] = 0*
499: 0x09D7 [0x1A] CALL_SUBROUTINE(address=0x0D07)
500: 0x09DA [0x01] GOTO 0x0A04
501: 0x09DD [0x02] IF !(Work_Zone[0] == 1*) GOTO 0x09F0
502: 0x09E5 [0x03] ExtData[1]->WorkLocal[7] = 1*
503: 0x09EA [0x1A] CALL_SUBROUTINE(address=0x0D07)
504: 0x09ED [0x01] GOTO 0x0A04
505: 0x09F0 [0x02] IF !(Work_Zone[0] == 2*) GOTO 0x0A03
506: 0x09F8 [0x03] ExtData[1]->WorkLocal[7] = 2*
507: 0x09FD [0x1A] CALL_SUBROUTINE(address=0x0D07)
508: 0x0A00 [0x01] GOTO 0x0A04
509: 0x0A03 [0x1B] RETURN

SUBROUTINE_0A04:
510: 0x0A04 [0x03] ExtData[1]->WorkLocal[40] = Work_Zone[0]
511: 0x0A09 [0x01] GOTO 0x0940
512: 0x0A0C [0x1B] RETURN

SUBROUTINE_0AF9:
513: 0x0AF9 [0x03] ExtData[1]->WorkLocal[29] = Work_Zone[6]
514: 0x0AFE [0x15] ExtData[1]->WorkLocal[29] /= 86400*
515: 0x0B03 [0x02] IF !(ExtData[1]->WorkLocal[29] < 1*) GOTO 0x0B17
516: 0x0B0B [0x03] Work_Zone[2] = ExtData[1]->WorkLocal[29]
517: 0x0B10 [0x1D] PRINT_EVENT_MESSAGE(message_id=9359*)
    → "You have $0 more day[/s] to use this service, kupo."
518: 0x0B13 [0x23] WAIT_FOR_DIALOG_INTERACTION
519: 0x0B14 [0x01] GOTO 0x0B56
520: 0x0B17 [0x03] Work_Zone[2] = Work_Zone[6]
521: 0x0B1C [0x15] Work_Zone[2] /= 3600*
522: 0x0B21 [0x3F] Work_Zone[3] = Work_Zone[6] % 3600*
523: 0x0B28 [0x15] Work_Zone[3] /= 60*
524: 0x0B2D [0x3F] Work_Zone[4] = Work_Zone[6] % 60*
525: 0x0B34 [0x02] IF !(Work_Zone[2] < 1*) GOTO 0x0B43
526: 0x0B3C [0x1D] PRINT_EVENT_MESSAGE(message_id=9360*)
    → "You have $0 hour[/s] $1 minute[/s] $2 second[/s] remaining to use this service, kupo."
527: 0x0B3F [0x23] WAIT_FOR_DIALOG_INTERACTION
528: 0x0B40 [0x01] GOTO 0x0B56
529: 0x0B43 [0x02] IF !(Work_Zone[3] < 1*) GOTO 0x0B52
530: 0x0B4B [0x1D] PRINT_EVENT_MESSAGE(message_id=9361*)
    → "You have $1 minute[/s] $2 second[/s] remaining to use this service, kupo."
531: 0x0B4E [0x23] WAIT_FOR_DIALOG_INTERACTION
532: 0x0B4F [0x01] GOTO 0x0B56
533: 0x0B52 [0x1D] PRINT_EVENT_MESSAGE(message_id=9362*)
    → "You have $2 second[/s] remaining to use this service, kupo."
534: 0x0B55 [0x23] WAIT_FOR_DIALOG_INTERACTION

SUBROUTINE_0B56:
535: 0x0B56 [0x1B] RETURN

SUBROUTINE_0B57:
536: 0x0B57 [0x06] ExtData[1]->WorkLocal[43] = 0
537: 0x0B5A [0x02] IF !(ExtData[1]->WorkLocal[4] == ExtData[1]->WorkLocal[0]) GOTO 0x0B65
538: 0x0B62 [0x05] ExtData[1]->WorkLocal[43] = 1
539: 0x0B65 [0x02] IF !(ExtData[1]->WorkLocal[5] == ExtData[1]->WorkLocal[1]) GOTO 0x0B70
540: 0x0B6D [0x05] ExtData[1]->WorkLocal[43] = 1
541: 0x0B70 [0x02] IF !(ExtData[1]->WorkLocal[6] == ExtData[1]->WorkLocal[2]) GOTO 0x0B7B
542: 0x0B78 [0x05] ExtData[1]->WorkLocal[43] = 1
543: 0x0B7B [0x02] IF !(ExtData[1]->WorkLocal[7] == ExtData[1]->WorkLocal[3]) GOTO 0x0B86
544: 0x0B83 [0x05] ExtData[1]->WorkLocal[43] = 1
545: 0x0B86 [0x02] IF !(ExtData[1]->WorkLocal[43] == 0*) GOTO 0x0BAE
546: 0x0B8E [0x48] [System] [9368*]:
    → "You will lose your character's current appearance. Are you sure you want to exit the process?"
547: 0x0B91 [0x23] WAIT_FOR_DIALOG_INTERACTION
548: 0x0B92 [0x24] CREATE_DIALOG(message_id=9369*, default_option=1*, option_flags=0*)
    → "Are you finished making changes? [Yes./No.]"
549: 0x0B99 [0x25] WAIT_DIALOG_SELECT()
550: 0x0B9A [0x02] IF !(Work_Zone[0] == 0*) GOTO 0x0BA8
551: 0x0BA2 [0x05] ExtData[1]->WorkLocal[28] = 1
552: 0x0BA5 [0x01] GOTO 0x0BAB
553: 0x0BA8 [0x06] ExtData[1]->WorkLocal[28] = 0

SUBROUTINE_0BAB:
554: 0x0BAB [0x01] GOTO 0x0BB1
555: 0x0BAE [0x05] ExtData[1]->WorkLocal[28] = 1

SUBROUTINE_0BB1:
556: 0x0BB1 [0x1B] RETURN

SUBROUTINE_0BB2:
557: 0x0BB2 [0x02] IF !(ExtData[1]->WorkLocal[4] == 1*) GOTO 0x0BC2
558: 0x0BBA [0x03] Work_Zone[40] = 133*
559: 0x0BBF [0x01] GOTO 0x0C37
560: 0x0BC2 [0x02] IF !(ExtData[1]->WorkLocal[4] == 2*) GOTO 0x0BD2
561: 0x0BCA [0x03] Work_Zone[40] = 168*
562: 0x0BCF [0x01] GOTO 0x0C37
563: 0x0BD2 [0x02] IF !(ExtData[1]->WorkLocal[4] == 3*) GOTO 0x0BE2
564: 0x0BDA [0x03] Work_Zone[40] = 132*
565: 0x0BDF [0x01] GOTO 0x0C37
566: 0x0BE2 [0x02] IF !(ExtData[1]->WorkLocal[4] == 4*) GOTO 0x0BF2
567: 0x0BEA [0x03] Work_Zone[40] = 131*
568: 0x0BEF [0x01] GOTO 0x0C37
569: 0x0BF2 [0x02] IF !(ExtData[1]->WorkLocal[4] == 5*) GOTO 0x0C02
570: 0x0BFA [0x03] Work_Zone[40] = 167*
571: 0x0BFF [0x01] GOTO 0x0C37
572: 0x0C02 [0x02] IF !(ExtData[1]->WorkLocal[4] == 6*) GOTO 0x0C12
573: 0x0C0A [0x03] Work_Zone[40] = 130*
574: 0x0C0F [0x01] GOTO 0x0C37
575: 0x0C12 [0x02] IF !(ExtData[1]->WorkLocal[4] == 7*) GOTO 0x0C22
576: 0x0C1A [0x03] Work_Zone[40] = 166*
577: 0x0C1F [0x01] GOTO 0x0C37
578: 0x0C22 [0x02] IF !(ExtData[1]->WorkLocal[4] == 8*) GOTO 0x0C32
579: 0x0C2A [0x03] Work_Zone[40] = 165*
580: 0x0C2F [0x01] GOTO 0x0C37
581: 0x0C32 [0x03] Work_Zone[40] = 0*

SUBROUTINE_0C37:
582: 0x0C37 [0x1B] RETURN

SUBROUTINE_0C38:
583: 0x0C38 [0x1A] CALL_SUBROUTINE(address=0x0C4B)
584: 0x0C3B [0x1A] CALL_SUBROUTINE(address=0x0D07)
585: 0x0C3E [0x1A] CALL_SUBROUTINE(address=0x0D66)
586: 0x0C41 [0x1A] CALL_SUBROUTINE(address=0x0BB2)
587: 0x0C44 [0x1C] WAIT(30* ticks)
588: 0x0C47 [0x1A] CALL_SUBROUTINE(address=0x0E86)
589: 0x0C4A [0x1B] RETURN

SUBROUTINE_0C4B:
590: 0x0C4B [0x03] ExtData[1]->WorkLocal[8] = ExtData[1]->WorkLocal[5]
591: 0x0C50 [0x14] ExtData[1]->WorkLocal[8] *= 2*
592: 0x0C55 [0x07] ExtData[1]->WorkLocal[8] += ExtData[1]->WorkLocal[6]
593: 0x0C5A [0xB6] ENTITY_APPEARANCE_HANDLER(case=Unknown 0x16)
594: 0x0C5C [0x04] DEPRECATED_NOP(unused=0x0800)
595: 0x0C5F [0x00] END_REQSTACK()

SUBROUTINE_0C9E:
596: 0x0C9E [0x03] ExtData[1]->WorkLocal[8] = ExtData[1]->WorkLocal[1]
597: 0x0CA3 [0x14] ExtData[1]->WorkLocal[8] *= 2*
598: 0x0CA8 [0x07] ExtData[1]->WorkLocal[8] += ExtData[1]->WorkLocal[2]
599: 0x0CAD [0x3E] IF !(ExtData[1]->WorkLocal[11] bit 1*) GOTO 0x0CCD
600: 0x0CB4 [0xB6] ENTITY_APPEARANCE_HANDLER(case=Unknown 0x16)
601: 0x0CB6 [0x00] END_REQSTACK()

SUBROUTINE_0E86:
602: 0x0E86 [0x02] IF !(ExtData[1]->WorkLocal[25] == 0*) GOTO 0x0F61
603: 0x0E8E [0x02] IF !(ExtData[1]->WorkLocal[4] == 1*) GOTO 0x0EA8
604: 0x0E96 [0x55] WAIT_LOAD_SCHEDULER: Wait for scheduler "shm0" with entities [LocalPlayer, LocalPlayer], work=821*
605: 0x0EA5 [0x01] GOTO 0x0F5E
606: 0x0EA8 [0x02] IF !(ExtData[1]->WorkLocal[4] == 2*) GOTO 0x0EC2
607: 0x0EB0 [0x55] WAIT_LOAD_SCHEDULER: Wait for scheduler "shf0" with entities [LocalPlayer, LocalPlayer], work=821*
608: 0x0EBF [0x01] GOTO 0x0F5E
609: 0x0EC2 [0x02] IF !(ExtData[1]->WorkLocal[4] == 3*) GOTO 0x0EDC
610: 0x0ECA [0x55] WAIT_LOAD_SCHEDULER: Wait for scheduler "sem0" with entities [LocalPlayer, LocalPlayer], work=821*
611: 0x0ED9 [0x01] GOTO 0x0F5E
612: 0x0EDC [0x02] IF !(ExtData[1]->WorkLocal[4] == 4*) GOTO 0x0EF6
613: 0x0EE4 [0x55] WAIT_LOAD_SCHEDULER: Wait for scheduler "sef0" with entities [LocalPlayer, LocalPlayer], work=821*
614: 0x0EF3 [0x01] GOTO 0x0F5E
615: 0x0EF6 [0x02] IF !(ExtData[1]->WorkLocal[4] == 5*) GOTO 0x0F10
616: 0x0EFE [0x55] WAIT_LOAD_SCHEDULER: Wait for scheduler "stm0" with entities [LocalPlayer, LocalPlayer], work=821*
617: 0x0F0D [0x01] GOTO 0x0F5E
618: 0x0F10 [0x02] IF !(ExtData[1]->WorkLocal[4] == 6*) GOTO 0x0F2A
619: 0x0F18 [0x55] WAIT_LOAD_SCHEDULER: Wait for scheduler "stm0" with entities [LocalPlayer, LocalPlayer], work=821*
620: 0x0F27 [0x01] GOTO 0x0F5E
621: 0x0F2A [0x02] IF !(ExtData[1]->WorkLocal[4] == 7*) GOTO 0x0F44
622: 0x0F32 [0x55] WAIT_LOAD_SCHEDULER: Wait for scheduler "smf0" with entities [LocalPlayer, LocalPlayer], work=821*
623: 0x0F41 [0x01] GOTO 0x0F5E
624: 0x0F44 [0x02] IF !(ExtData[1]->WorkLocal[4] == 8*) GOTO 0x0F5E
625: 0x0F4C [0x55] WAIT_LOAD_SCHEDULER: Wait for scheduler "sgm0" with entities [LocalPlayer, LocalPlayer], work=821*
626: 0x0F5B [0x01] GOTO 0x0F5E

SUBROUTINE_0F5E:
627: 0x0F5E [0x01] GOTO 0x0F81
628: 0x0F61 [0x02] IF !(ExtData[1]->WorkLocal[25] == 1*) GOTO 0x0F81
629: 0x0F69 [0x03] ExtData[1]->WorkLocal[27] = ExtData[1]->WorkLocal[4]
630: 0x0F6E [0x14] ExtData[1]->WorkLocal[27] *= 4*
631: 0x0F73 [0x07] ExtData[1]->WorkLocal[27] += ExtData[1]->WorkLocal[7]
632: 0x0F78 [0x9D] CALL 0x1064[ExtData[1]->WorkLocal[27]] // Jump table
633: 0x0F7E [0x01] GOTO 0x0F81

SUBROUTINE_0F81:
634: 0x0F81 [0x1B] RETURN

SUBROUTINE_0F91:
635: 0x0F91 [0x45] LOAD_SCHEDULED_TASK: Load scheduler "fdi1" with entities [EventEntity, EventEntity], work=[200*, 0*]
636: 0x0FA2 [0x55] WAIT_LOAD_SCHEDULER: Wait for scheduler "fdi1" with entities [EventEntity, EventEntity], work=200*
637: 0x0FB1 [0x1B] RETURN

SUBROUTINE_0FB2:
638: 0x0FB2 [0x45] LOAD_SCHEDULED_TASK: Load scheduler "fdo1" with entities [EventEntity, EventEntity], work=[200*, 0*]
639: 0x0FC3 [0x55] WAIT_LOAD_SCHEDULER: Wait for scheduler "fdo1" with entities [EventEntity, EventEntity], work=200*
640: 0x0FD2 [0x1B] RETURN

SUBROUTINE_0FD3:
641: 0x0FD3 [0x1D] PRINT_EVENT_MESSAGE(message_id=9387*)
    → "Let me see if you have any."
642: 0x0FD6 [0x23] WAIT_FOR_DIALOG_INTERACTION
643: 0x0FD7 [0x48] [System] [9388*]:
    → "Items held by NPCs or stored with storage slips are ineligible."
644: 0x0FDA [0x24] CREATE_DIALOG(message_id=9389*, default_option=0*, option_flags=0*)
    → "Have the moogle check? [Yes, please./No, thank you.]"
645: 0x0FE1 [0x25] WAIT_DIALOG_SELECT()
646: 0x0FE2 [0x02] IF !(Work_Zone[0] == 0*) GOTO 0x1013
647: 0x0FEA [0x42] SET_CLI_EVENT_CANCEL_DATA()
648: 0x0FEB [0x1D] PRINT_EVENT_MESSAGE(message_id=9390*)
    → "Let's get down to business, kupo."
649: 0x0FEE [0x23] WAIT_FOR_DIALOG_INTERACTION
650: 0x0FEF [0x40] SET_BIT_WORK_RANGE(start_bit=0*, end_bit=7*, target=Work_Zone[1], source=3*)
651: 0x0FF8 [0x43] SEND_EVENT_UPDATE: Send pending tag to server (packet 0x005B)
652: 0x0FFA [0x43] SEND_EVENT_UPDATE: Check pending flag (skip if not pending)
653: 0x0FFC [0x02] IF !(Work_Zone[2] <= 0*) GOTO 0x100B
654: 0x1004 [0x1D] PRINT_EVENT_MESSAGE(message_id=9393*)
    → "That should cover it!"
655: 0x1007 [0x23] WAIT_FOR_DIALOG_INTERACTION
656: 0x1008 [0x01] GOTO 0x100F
657: 0x100B [0x1D] PRINT_EVENT_MESSAGE(message_id=9394*)
    → "Wait...I can't take anything you have."
658: 0x100E [0x23] WAIT_FOR_DIALOG_INTERACTION

SUBROUTINE_100F:
659: 0x100F [0x2E] SET_CLI_EVENT_CANCEL_FLAGS()
660: 0x1010 [0x01] GOTO 0x1013

SUBROUTINE_1013:
661: 0x1013 [0x1B] RETURN
```

#### Data or dead code:

```
# Dead code (unreachable instructions):
     0x048F [0x01] GOTO 0x0492
# Dead code (unreachable instructions):
     0x0A0D [0x05] ExtData[1]->WorkLocal[41] = 1
     0x0A10 [0x02] IF !(ExtData[1]->WorkLocal[41] == 0*) GOTO 0x0AF8
     0x0A18 [0x03] Work_Zone_1700[3] = ExtData[1]->WorkLocal[22]
     0x0A1D [0x03] Work_Zone_1700[4] = ExtData[1]->WorkLocal[23]
     0x0A22 [0x03] Work_Zone_1700[5] = ExtData[1]->WorkLocal[24]
     0x0A27 [0x24] CREATE_DIALOG(message_id=9374*, default_option=ExtData[1]->WorkLocal[42], option_flags=0*)
    → "Character display settings. [([$26/@])Display edits./([@/$26])Display translucently./([@/@/$26])Don't display old./([$26/@/@])Display old./([@/$26/@])Display old translucently./([@/$26])Display overlap./([$26/@])Display old to the side./Back.]"
     0x0A2E [0x25] WAIT_DIALOG_SELECT()
     0x0A2F [0x02] IF !(Work_Zone[0] == 0*) GOTO 0x0A48
     0x0A37 [0x03] ExtData[1]->WorkLocal[24] = 0*
     0x0A3C [0x6C] FADE_ENTITY_COLOR(entity_id=LocalPlayer, end_alpha=128*, fade_time=30*)
     0x0A45 [0x01] GOTO 0x0AF0
     0x0A48 [0x02] IF !(Work_Zone[0] == 1*) GOTO 0x0A61
     0x0A50 [0x03] ExtData[1]->WorkLocal[24] = 1*
     0x0A55 [0x6C] FADE_ENTITY_COLOR(entity_id=LocalPlayer, end_alpha=48*, fade_time=30*)
     0x0A5E [0x01] GOTO 0x0AF0
     0x0A61 [0x02] IF !(Work_Zone[0] == 2*) GOTO 0x0A77
     0x0A69 [0x03] ExtData[1]->WorkLocal[23] = 2*
     0x0A6E [0x4E] SET_ENTITY_HIDE_FLAG: Hide Previous Race (ID: 17637645/0x010D210D)
     0x0A74 [0x01] GOTO 0x0AF0
     0x0A77 [0x02] IF !(Work_Zone[0] == 3*) GOTO 0x0A96
     0x0A7F [0x03] ExtData[1]->WorkLocal[23] = 0*
     0x0A84 [0x4E] SET_ENTITY_HIDE_FLAG: Show Previous Race (ID: 17637645/0x010D210D)
     0x0A8A [0x6C] FADE_ENTITY_COLOR(entity_id=Previous Race (ID: 17637645/0x010D210D), end_alpha=128*, fade_time=30*)
     0x0A93 [0x01] GOTO 0x0AF0
     0x0A96 [0x02] IF !(Work_Zone[0] == 4*) GOTO 0x0AB5
     0x0A9E [0x03] ExtData[1]->WorkLocal[23] = 1*
     0x0AA3 [0x4E] SET_ENTITY_HIDE_FLAG: Show Previous Race (ID: 17637645/0x010D210D)
     0x0AA9 [0x6C] FADE_ENTITY_COLOR(entity_id=Previous Race (ID: 17637645/0x010D210D), end_alpha=48*, fade_time=30*)
     0x0AB2 [0x01] GOTO 0x0AF0
     0x0AB5 [0x02] IF !(Work_Zone[0] == 5*) GOTO 0x0AD2
     0x0ABD [0x03] ExtData[1]->WorkLocal[22] = 1*
     0x0AC2 [0xBA] SET_ENTITY_POSITION(entity_id=Previous Race (ID: 17637645/0x010D210D), pos_x=0.000*, pos_z=0.000*, pos_y=0.000*, direction=0.0°*)
     0x0ACF [0x01] GOTO 0x0AF0
     0x0AD2 [0x02] IF !(Work_Zone[0] == 6*) GOTO 0x0AEF
     0x0ADA [0x03] ExtData[1]->WorkLocal[22] = 0*
     0x0ADF [0xBA] SET_ENTITY_POSITION(entity_id=Previous Race (ID: 17637645/0x010D210D), pos_x=0.000*, pos_z=ExtData[1]->WorkLocal[21], pos_y=0.000*, direction=ExtData[1]->WorkLocal[20])
     0x0AEC [0x01] GOTO 0x0AF0
     0x0AEF [0x1B] RETURN
     0x0AF0 [0x03] ExtData[1]->WorkLocal[42] = Work_Zone[0]
     0x0AF5 [0x01] GOTO 0x0A10
     0x0AF8 [0x1B] RETURN
# Dead code (unreachable instructions):
     0x0C60 [0x2B] Unknown NPC (ID: 729820032/0x2B802B80) [0x2B80]:
     0x0C67 [0x80] LOAD_WAIT(entity=Unknown NPC (ID: 2147581995/0x8001802B))
     0x0C6C [0x01] GOTO 0x0180
     0x0C6F [0x80] LOAD_WAIT(entity=Unknown NPC (ID: 4294963328/0xFFFFF080))
     0x0C74 [0x7F] WAIT_DIALOG_SELECT_ALT()
     0x0C75 [0x03] Work_Zone_1700[2] = ExtData[1]->WorkLocal[4]
     0x0C7A [0x03] Work_Zone_1700[3] = ExtData[1]->WorkLocal[5]
     0x0C7F [0x0B] Work_Zone_1700[3]++
     0x0C82 [0x03] Work_Zone_1700[4] = ExtData[1]->WorkLocal[6]
     0x0C87 [0x03] Work_Zone_1700[5] = ExtData[1]->WorkLocal[7]
     0x0C8C [0x02] IF !(ExtData[1]->WorkLocal[24] == 1*) GOTO 0x0C9D
     0x0C94 [0x6C] FADE_ENTITY_COLOR(entity_id=LocalPlayer, end_alpha=48*, fade_time=30*)
     0x0C9D [0x1B] RETURN
# Dead code (unreachable instructions):
     0x0CB7 [0x00] END_REQSTACK()
     0x0CB8 [0x08] 0x4A00 -= 0x0D80
     0x0CBD [0x00] END_REQSTACK()
     0x0CBE [0x0E] 0x0F00 |= Work_Zone[0]
     0x0CC3 [0x00] END_REQSTACK()
     0x0CC4 [0x11] 0x1200 >>= 0x1300
     0x0CC9 [0x00] END_REQSTACK()
     0x0CCA [0x01] GOTO 0x0CE3
     0x0CD0 [0x00] END_REQSTACK()
     0x0CD1 [0x08] 0x0C00 -= 0x0D00
     0x0CD6 [0x00] END_REQSTACK()
     0x0CD7 [0x0E] 0x0F00 |= Work_Zone[0]
     0x0CDC [0x00] END_REQSTACK()
     0x0CDD [0x11] 0x1200 >>= 0x1300
     0x0CE2 [0x00] END_REQSTACK()
     0x0CE3 [0x80] LOAD_WAIT(entity=LocalPlayer)
     0x0CE8 [0x03] ExtData[1]->WorkLocal[9] = ExtData[1]->WorkLocal[0]
     0x0CED [0x0C] ExtData[1]->WorkLocal[9]--
     0x0CF0 [0x14] ExtData[1]->WorkLocal[9] *= 4*
     0x0CF5 [0x07] ExtData[1]->WorkLocal[9] += ExtData[1]->WorkLocal[3]
     0x0CFA [0x9D] ExtData[1]->WorkLocal[10] = 0x0D26[ExtData[1]->WorkLocal[9]] // Read WORD
     0x0D02 [0xB6] ENTITY_APPEARANCE_HANDLER(case=Unknown 0x17)
     0x0D04 [0x0A] 0x1B00 &= ~(1 << 0x0903)
     0x0D1B [0x26] DEPRECATED_YIELD
     0x0D1C [0x0D] ExtData[1]->WorkLocal[10] &= ExtData[1]->WorkLocal[9]
     0x0D21 [0xB6] ENTITY_APPEARANCE_HANDLER(case=Unknown 0x17)
     0x0D23 [0x0A] 0x1B00 &= ~(1 << 95*)
     0x0D28 [0x4C] EventEntity->StatusEvent = 8 // Open door
     0x0D29 [0x80] LOAD_WAIT(entity=Unknown NPC (ID: 2147582029/0x8001804D))
     0x0D2E [0x4B] UPDATE_ENTITY_YAW(entity=Unknown NPC (ID: 1300253824/0x4D804C80), yaw=0x0180)
     0x0D35 [0x80] LOAD_WAIT(entity=Unknown NPC (ID: 2152497227/0x804C804B))
     0x0D3A [0x4D] EventEntity->StatusEvent = 9 // Close door
     0x0D3B [0x80] LOAD_WAIT(entity=Unknown NPC (ID: 2152431617/0x804B8001))
     0x0D40 [0x4C] EventEntity->StatusEvent = 8 // Open door
     0x0D41 [0x80] LOAD_WAIT(entity=Unknown NPC (ID: 2147582029/0x8001804D))
     0x0D46 [0x4E] SET_ENTITY_HIDE_FLAG: Hide Unknown NPC (ID: 2152759375/0x8050804F)
     0x0D4C [0x01] GOTO 0x4E80
     0x0D4F [0x80] LOAD_WAIT(entity=Unknown NPC (ID: 2152759375/0x8050804F))
     0x0D54 [0x01] GOTO 0x5180
     0x0D57 [0x80] LOAD_WAIT(entity=Unknown NPC (ID: 2152955986/0x80538052))
     0x0D5C [0x01] GOTO 0x5080
     0x0D5F [0x80] LOAD_WAIT(entity=Unknown NPC (ID: 2152497236/0x804C8054))
     0x0D64 [0x01] GOTO 0x0380
     0x0D70 [0x03] Work_Zone[4] = ExtData[1]->WorkLocal[4]
     0x0D75 [0x03] Work_Zone[5] = 0*
     0x0D7A [0x02] IF !(ExtData[1]->WorkLocal[25] == 0*) GOTO 0x0E65
     0x0D82 [0x02] IF !(ExtData[1]->WorkLocal[4] == 1*) GOTO 0x0D9E
     0x0D8A [0x45] LOAD_SCHEDULED_TASK: Load scheduler "shm0" with entities [LocalPlayer, LocalPlayer], work=[821*, ExtData[1]->WorkLocal[26]]
     0x0D9B [0x01] GOTO 0x0E62
     0x0D9E [0x02] IF !(ExtData[1]->WorkLocal[4] == 2*) GOTO 0x0DBA
     0x0DA6 [0x45] LOAD_SCHEDULED_TASK: Load scheduler "shf0" with entities [LocalPlayer, LocalPlayer], work=[821*, ExtData[1]->WorkLocal[26]]
     0x0DB7 [0x01] GOTO 0x0E62
     0x0DBA [0x02] IF !(ExtData[1]->WorkLocal[4] == 3*) GOTO 0x0DD6
     0x0DC2 [0x45] LOAD_SCHEDULED_TASK: Load scheduler "sem0" with entities [LocalPlayer, LocalPlayer], work=[821*, ExtData[1]->WorkLocal[26]]
     0x0DD3 [0x01] GOTO 0x0E62
     0x0DD6 [0x02] IF !(ExtData[1]->WorkLocal[4] == 4*) GOTO 0x0DF2
     0x0DDE [0x45] LOAD_SCHEDULED_TASK: Load scheduler "sef0" with entities [LocalPlayer, LocalPlayer], work=[821*, ExtData[1]->WorkLocal[26]]
     0x0DEF [0x01] GOTO 0x0E62
     0x0DF2 [0x02] IF !(ExtData[1]->WorkLocal[4] == 5*) GOTO 0x0E0E
     0x0DFA [0x45] LOAD_SCHEDULED_TASK: Load scheduler "stm0" with entities [LocalPlayer, LocalPlayer], work=[821*, ExtData[1]->WorkLocal[26]]
     0x0E0B [0x01] GOTO 0x0E62
     0x0E0E [0x02] IF !(ExtData[1]->WorkLocal[4] == 6*) GOTO 0x0E2A
     0x0E16 [0x45] LOAD_SCHEDULED_TASK: Load scheduler "stm0" with entities [LocalPlayer, LocalPlayer], work=[821*, ExtData[1]->WorkLocal[26]]
     0x0E27 [0x01] GOTO 0x0E62
     0x0E2A [0x02] IF !(ExtData[1]->WorkLocal[4] == 7*) GOTO 0x0E46
     0x0E32 [0x45] LOAD_SCHEDULED_TASK: Load scheduler "smf0" with entities [LocalPlayer, LocalPlayer], work=[821*, ExtData[1]->WorkLocal[26]]
     0x0E43 [0x01] GOTO 0x0E62
     0x0E46 [0x02] IF !(ExtData[1]->WorkLocal[4] == 8*) GOTO 0x0E62
     0x0E4E [0x45] LOAD_SCHEDULED_TASK: Load scheduler "sgm0" with entities [LocalPlayer, LocalPlayer], work=[821*, ExtData[1]->WorkLocal[26]]
     0x0E5F [0x01] GOTO 0x0E62
     0x0E62 [0x01] GOTO 0x0E85
     0x0E65 [0x02] IF !(ExtData[1]->WorkLocal[25] == 1*) GOTO 0x0E85
     0x0E6D [0x03] ExtData[1]->WorkLocal[27] = ExtData[1]->WorkLocal[4]
     0x0E72 [0x14] ExtData[1]->WorkLocal[27] *= 4*
     0x0E77 [0x07] ExtData[1]->WorkLocal[27] += ExtData[1]->WorkLocal[7]
     0x0E7C [0x9D] CALL 0x1014[ExtData[1]->WorkLocal[27]] // Jump table
     0x0E82 [0x01] GOTO 0x0E85
     0x0E85 [0x1B] RETURN
# Dead code (unreachable instructions):
     0x0F82 [0x02] IF !(Work_Zone[45] == 0*) GOTO 0x0F90
     0x0F8A [0x1C] WAIT(1* ticks)
     0x0F8D [0x01] GOTO 0x0F82
     0x0F90 [0x1B] RETURN
# Dead code (unreachable instructions):
     0x1014 [0xB4] UI_WINDOW_STRING_HANDLER(case=0x10 - Close chocobo racing window, work_offset1=0x10B4, work_offset2=0x10B4)
     0x101A [0xB4] UI_WINDOW_STRING_HANDLER(case=0x10 - Close chocobo racing window, work_offset1=0x10C6, work_offset2=0x10D8)
     0x1020 [0xEA] UNKNOWN_0xEA
     0x1021 [0x10] 0x10B4 <<= 0x10FC
     0x1026 [0x0E] 0x2011 |= 0xB411
     0x102B [0x10] Work_Zone_Memorize[50] <<= Work_Zone_Memorize[68]
     0x1030 [0x56] GET_ACTOR_INDEX_DEPRECATED(entity=0x0000B411, unused_data=0x6810)
     0x1035 [0x11] 0x117A >>= 0x118C
     0x103A [0xB4] UI_WINDOW_STRING_HANDLER(case=0x10 - Close chocobo racing window, work_offset1=0x119E, work_offset2=0x11B0)
     0x1040 [0xC2] PARTY_STATE_CHECK: Unknown mode 0x11
     0x1042 [0xB4] UI_WINDOW_STRING_HANDLER(case=0x10 - Close chocobo racing window, work_offset1=0x11D4, work_offset2=0x11E6)
     0x1048 [0xF8] UNKNOWN_0xF8
     0x1049 [0x11] 0x10B4 >>= 0x120A
     0x104E [0x1C] WAIT(0x2E12 ticks)
     0x1051 [0x12] 0x10B4 = rand()
     0x1054 [0x40] SET_BIT_WORK_RANGE(start_bit=0x5212, end_bit=0x6412, target=0xB412, source=0xB410)
     0x105D [0x10] 0x10B4 <<= 0x10B4
     0x1062 [0xB4] UI_WINDOW_STRING_HANDLER(case=0x10 - Close chocobo racing window, work_offset1=0x10B4, work_offset2=0x10B4)
     0x1068 [0xB4] UI_WINDOW_STRING_HANDLER(case=0x10 - Close chocobo racing window, work_offset1=0x10B4, work_offset2=0x1276)
     0x106E [0x86] Unknown NPC (ID: 280236694/0x10B41296)->Render.Flags3 = Flags3  // No change (flag=0)
     0x1074 [0xA6] REQUEST_EVENT_MAP_NUMBER: Request map info from server (mode 18) (0x00EB packet)
     0x1076 [0xB6] ENTITY_APPEARANCE_HANDLER(case=Render.Flags2)
     0x1078 [0xC6] WAIT_LOAD_SCHEDULER_ALT3: Wait for scheduler 0x16130610 with entities [Unknown NPC (ID: 3859994128/0xE612D610), Unknown NPC (ID: 3021141522/0xB412F612)], work=0xB412
     0x1087 [0x13] 0x1326 = rand() % 0x10B4
     0x108C [0x36] SET_ENTITY_EVENT_POSITION(pos_x=0x4613, pos_z=0x5613, pos_y=0xB413)
     0x1093 [0x10] 0x1366 <<= 0x1376
     0x1098 [0x86] Unknown NPC (ID: 328601780/0x139610B4)->Render.Flags3 ^= 0x13
     0x109E [0xA6] REQUEST_EVENT_MAP_NUMBER: Request map info from server (mode 19) (0x00EB packet)
     0x10A0 [0xB6] ENTITY_APPEARANCE_HANDLER(case=Render.Flags2)
     0x10A2 [0xB4] UI_WINDOW_STRING_HANDLER(case=0x10 - Close chocobo racing window, work_offset1=0x13C6, work_offset2=0x13D6)
     0x10A8 [0xE6] UNKNOWN_0xE6
     0x10A9 [0x13] 0x10B4 = rand() % 0x10B4
     0x10AE [0xB4] UI_WINDOW_STRING_HANDLER(case=0x10 - Close chocobo racing window, work_offset1=0x10B4, work_offset2=0x10B4)
     0x10B4 [0x45] LOAD_SCHEDULED_TASK: Load scheduler "c06i" with entities [LocalPlayer, LocalPlayer], work=[200*, ExtData[1]->WorkLocal[26]]
     0x10C5 [0x1B] RETURN
     0x10C6 [0x45] LOAD_SCHEDULED_TASK: Load scheduler "shm1" with entities [LocalPlayer, LocalPlayer], work=[821*, ExtData[1]->WorkLocal[26]]
     0x10D7 [0x1B] RETURN
     0x10D8 [0x45] LOAD_SCHEDULED_TASK: Load scheduler "shm2" with entities [LocalPlayer, LocalPlayer], work=[821*, ExtData[1]->WorkLocal[26]]
     0x10E9 [0x1B] RETURN
     0x10EA [0x45] LOAD_SCHEDULED_TASK: Load scheduler "shm3" with entities [LocalPlayer, LocalPlayer], work=[821*, ExtData[1]->WorkLocal[26]]
     0x10FB [0x1B] RETURN
     0x10FC [0x45] LOAD_SCHEDULED_TASK: Load scheduler "shf1" with entities [LocalPlayer, LocalPlayer], work=[821*, ExtData[1]->WorkLocal[26]]
     0x110D [0x1B] RETURN
     0x110E [0x45] LOAD_SCHEDULED_TASK: Load scheduler "shf2" with entities [LocalPlayer, LocalPlayer], work=[821*, ExtData[1]->WorkLocal[26]]
     0x111F [0x1B] RETURN
     0x1120 [0x45] LOAD_SCHEDULED_TASK: Load scheduler "shf3" with entities [LocalPlayer, LocalPlayer], work=[821*, ExtData[1]->WorkLocal[26]]
     0x1131 [0x1B] RETURN
     0x1132 [0x45] LOAD_SCHEDULED_TASK: Load scheduler "sem1" with entities [LocalPlayer, LocalPlayer], work=[821*, ExtData[1]->WorkLocal[26]]
     0x1143 [0x1B] RETURN
     0x1144 [0x45] LOAD_SCHEDULED_TASK: Load scheduler "sem2" with entities [LocalPlayer, LocalPlayer], work=[821*, ExtData[1]->WorkLocal[26]]
     0x1155 [0x1B] RETURN
     0x1156 [0x45] LOAD_SCHEDULED_TASK: Load scheduler "sem3" with entities [LocalPlayer, LocalPlayer], work=[821*, ExtData[1]->WorkLocal[26]]
     0x1167 [0x1B] RETURN
     0x1168 [0x45] LOAD_SCHEDULED_TASK: Load scheduler "sef1" with entities [LocalPlayer, LocalPlayer], work=[821*, ExtData[1]->WorkLocal[26]]
     0x1179 [0x1B] RETURN
     0x117A [0x45] LOAD_SCHEDULED_TASK: Load scheduler "sef2" with entities [LocalPlayer, LocalPlayer], work=[821*, ExtData[1]->WorkLocal[26]]
     0x118B [0x1B] RETURN
     0x118C [0x45] LOAD_SCHEDULED_TASK: Load scheduler "sef3" with entities [LocalPlayer, LocalPlayer], work=[821*, ExtData[1]->WorkLocal[26]]
     0x119D [0x1B] RETURN
     0x119E [0x45] LOAD_SCHEDULED_TASK: Load scheduler "stm1" with entities [LocalPlayer, LocalPlayer], work=[821*, ExtData[1]->WorkLocal[26]]
     0x11AF [0x1B] RETURN
     0x11B0 [0x45] LOAD_SCHEDULED_TASK: Load scheduler "stm2" with entities [LocalPlayer, LocalPlayer], work=[821*, ExtData[1]->WorkLocal[26]]
     0x11C1 [0x1B] RETURN
     0x11C2 [0x45] LOAD_SCHEDULED_TASK: Load scheduler "stm3" with entities [LocalPlayer, LocalPlayer], work=[821*, ExtData[1]->WorkLocal[26]]
     0x11D3 [0x1B] RETURN
     0x11D4 [0x45] LOAD_SCHEDULED_TASK: Load scheduler "stm1" with entities [LocalPlayer, LocalPlayer], work=[821*, ExtData[1]->WorkLocal[26]]
     0x11E5 [0x1B] RETURN
     0x11E6 [0x45] LOAD_SCHEDULED_TASK: Load scheduler "stm2" with entities [LocalPlayer, LocalPlayer], work=[821*, ExtData[1]->WorkLocal[26]]
     0x11F7 [0x1B] RETURN
     0x11F8 [0x45] LOAD_SCHEDULED_TASK: Load scheduler "stm3" with entities [LocalPlayer, LocalPlayer], work=[821*, ExtData[1]->WorkLocal[26]]
     0x1209 [0x1B] RETURN
     0x120A [0x45] LOAD_SCHEDULED_TASK: Load scheduler "smf1" with entities [LocalPlayer, LocalPlayer], work=[821*, ExtData[1]->WorkLocal[26]]
     0x121B [0x1B] RETURN
     0x121C [0x45] LOAD_SCHEDULED_TASK: Load scheduler "smf2" with entities [LocalPlayer, LocalPlayer], work=[821*, ExtData[1]->WorkLocal[26]]
     0x122D [0x1B] RETURN
     0x122E [0x45] LOAD_SCHEDULED_TASK: Load scheduler "smf3" with entities [LocalPlayer, LocalPlayer], work=[821*, ExtData[1]->WorkLocal[26]]
     0x123F [0x1B] RETURN
     0x1240 [0x45] LOAD_SCHEDULED_TASK: Load scheduler "sgm1" with entities [LocalPlayer, LocalPlayer], work=[821*, ExtData[1]->WorkLocal[26]]
     0x1251 [0x1B] RETURN
     0x1252 [0x45] LOAD_SCHEDULED_TASK: Load scheduler "sgm2" with entities [LocalPlayer, LocalPlayer], work=[821*, ExtData[1]->WorkLocal[26]]
     0x1263 [0x1B] RETURN
     0x1264 [0x45] LOAD_SCHEDULED_TASK: Load scheduler "sgm3" with entities [LocalPlayer, LocalPlayer], work=[821*, ExtData[1]->WorkLocal[26]]
     0x1275 [0x1B] RETURN
     0x1276 [0x55] WAIT_LOAD_SCHEDULER: Wait for scheduler "shm1" with entities [LocalPlayer, LocalPlayer], work=821*
     0x1285 [0x1B] RETURN
     0x1286 [0x55] WAIT_LOAD_SCHEDULER: Wait for scheduler "shm2" with entities [LocalPlayer, LocalPlayer], work=821*
     0x1295 [0x1B] RETURN
     0x1296 [0x55] WAIT_LOAD_SCHEDULER: Wait for scheduler "shm3" with entities [LocalPlayer, LocalPlayer], work=821*
     0x12A5 [0x1B] RETURN
     0x12A6 [0x55] WAIT_LOAD_SCHEDULER: Wait for scheduler "shf1" with entities [LocalPlayer, LocalPlayer], work=821*
     0x12B5 [0x1B] RETURN
     0x12B6 [0x55] WAIT_LOAD_SCHEDULER: Wait for scheduler "shf2" with entities [LocalPlayer, LocalPlayer], work=821*
     0x12C5 [0x1B] RETURN
     0x12C6 [0x55] WAIT_LOAD_SCHEDULER: Wait for scheduler "shf3" with entities [LocalPlayer, LocalPlayer], work=821*
     0x12D5 [0x1B] RETURN
     0x12D6 [0x55] WAIT_LOAD_SCHEDULER: Wait for scheduler "sem1" with entities [LocalPlayer, LocalPlayer], work=821*
     0x12E5 [0x1B] RETURN
     0x12E6 [0x55] WAIT_LOAD_SCHEDULER: Wait for scheduler "sem2" with entities [LocalPlayer, LocalPlayer], work=821*
     0x12F5 [0x1B] RETURN
     0x12F6 [0x55] WAIT_LOAD_SCHEDULER: Wait for scheduler "sem3" with entities [LocalPlayer, LocalPlayer], work=821*
     0x1305 [0x1B] RETURN
     0x1306 [0x55] WAIT_LOAD_SCHEDULER: Wait for scheduler "sef1" with entities [LocalPlayer, LocalPlayer], work=821*
     0x1315 [0x1B] RETURN
     0x1316 [0x55] WAIT_LOAD_SCHEDULER: Wait for scheduler "sef2" with entities [LocalPlayer, LocalPlayer], work=821*
     0x1325 [0x1B] RETURN
     0x1326 [0x55] WAIT_LOAD_SCHEDULER: Wait for scheduler "sef3" with entities [LocalPlayer, LocalPlayer], work=821*
     0x1335 [0x1B] RETURN
     0x1336 [0x55] WAIT_LOAD_SCHEDULER: Wait for scheduler "stm1" with entities [LocalPlayer, LocalPlayer], work=821*
     0x1345 [0x1B] RETURN
     0x1346 [0x55] WAIT_LOAD_SCHEDULER: Wait for scheduler "stm2" with entities [LocalPlayer, LocalPlayer], work=821*
     0x1355 [0x1B] RETURN
     0x1356 [0x55] WAIT_LOAD_SCHEDULER: Wait for scheduler "stm3" with entities [LocalPlayer, LocalPlayer], work=821*
     0x1365 [0x1B] RETURN
     0x1366 [0x55] WAIT_LOAD_SCHEDULER: Wait for scheduler "stm1" with entities [LocalPlayer, LocalPlayer], work=821*
     0x1375 [0x1B] RETURN
     0x1376 [0x55] WAIT_LOAD_SCHEDULER: Wait for scheduler "stm2" with entities [LocalPlayer, LocalPlayer], work=821*
     0x1385 [0x1B] RETURN
     0x1386 [0x55] WAIT_LOAD_SCHEDULER: Wait for scheduler "stm3" with entities [LocalPlayer, LocalPlayer], work=821*
     0x1395 [0x1B] RETURN
     0x1396 [0x55] WAIT_LOAD_SCHEDULER: Wait for scheduler "smf1" with entities [LocalPlayer, LocalPlayer], work=821*
     0x13A5 [0x1B] RETURN
     0x13A6 [0x55] WAIT_LOAD_SCHEDULER: Wait for scheduler "smf2" with entities [LocalPlayer, LocalPlayer], work=821*
     0x13B5 [0x1B] RETURN
     0x13B6 [0x55] WAIT_LOAD_SCHEDULER: Wait for scheduler "smf3" with entities [LocalPlayer, LocalPlayer], work=821*
     0x13C5 [0x1B] RETURN
     0x13C6 [0x55] WAIT_LOAD_SCHEDULER: Wait for scheduler "sgm1" with entities [LocalPlayer, LocalPlayer], work=821*
     0x13D5 [0x1B] RETURN
     0x13D6 [0x55] WAIT_LOAD_SCHEDULER: Wait for scheduler "sgm2" with entities [LocalPlayer, LocalPlayer], work=821*
     0x13E5 [0x1B] RETURN
     0x13E6 [0x55] WAIT_LOAD_SCHEDULER: Wait for scheduler "sgm3" with entities [LocalPlayer, LocalPlayer], work=821*
     0x13F5 [0x1B] RETURN
```
