# 17637449 - Judge

## Common Data

| Field            | Value             |
|------------------|-------------------|
| Zone             | GM_Home (ID: 210) |
| Block Size       | 196 bytes         |
| Total Events     | 2                 |
| References Count | 14                |

## List of Events

| Event ID              | Entrypoint   |   Size |   Instructions |
|-----------------------|--------------|--------|----------------|
| [65535](#event-65535) | 0x0000       |      1 |              1 |
| [125](#event-125)     | 0x0001       |    112 |             30 |

## DAT References (imed_data)

|   Index | Hex Value   |   Dec Value |
|---------|-------------|-------------|
|       0 | 0x000F      |          15 |
|       1 | 0x001E      |          30 |
|       2 | 0x0305      |         773 |
|       3 | 0x031E      |         798 |
|       4 | 0x0326      |         806 |
|       5 | 0x233A      |        9018 |
|       6 | 0x0000      |           0 |
|       7 | 0x233B      |        9019 |
|       8 | 0x0001      |           1 |
|       9 | 0x233C      |        9020 |
|      10 | 0x0002      |           2 |
|      11 | 0x233D      |        9021 |
|      12 | 0x0003      |           3 |
|      13 | 0x233E      |        9022 |

## String References

- **9018**: Identify which item? [6./$6./$6./None of the above.]
- **9019**: This is just some piece of junk thrown together by an old man.
- **9020**: This is the work of a master artisan.
- **9021**: This is a fine specimen of wool, indeed.
- **9022**: Do come again.

## Events

### Event 65535

#### Metadata

| Field        | Value   |
|--------------|---------|
| Entrypoint   | 0x0000  |
| Data Size    | 1 bytes |
| Instructions | 1       |

```
      00 01 02 03 04 05 06 07  08 09 0A 0B 0C 0D 0E 0F
      -- -- -- -- -- -- -- --  -- -- -- -- -- -- -- --
0000: 00                                                .               
```

#### Opcodes

```
  0: 0x0000 [0x00] END_REQSTACK()
```

### Event 125

#### Metadata

| Field        | Value     |
|--------------|-----------|
| Entrypoint   | 0x0001    |
| Data Size    | 112 bytes |
| Instructions | 15        |

```
      00 01 02 03 04 05 06 07  08 09 0A 0B 0C 0D 0E 0F
      -- -- -- -- -- -- -- --  -- -- -- -- -- -- -- --
0000:    03 00 00 02 10 0F 00  00 00 80 1E F0 FF FF 7F   ...............
0010: 1C 01 80 03 02 10 02 80  03 03 10 03 80 03 04 10  ................
0020: 04 80 24 05 80 06 80 00  00 25 02 00 10 06 80 00  ..$......%......
0030: 3C 00 1D 07 80 23 01 22  00 01 6F 00 02 00 10 08  <....#."..o.....
0040: 80 00 4E 00 1D 09 80 23  01 22 00 01 6F 00 02 00  ..N....#."..o...
0050: 10 0A 80 00 60 00 1D 0B  80 23 01 22 00 01 6F 00  ....`....#."..o.
0060: 02 00 10 0C 80 00 6F 00  1D 0D 80 23 01 6F 00 21  ......o....#.o.!
0070: 00                                                .               
```

#### Opcodes

```
  0: 0x0001 [0x03] ExtData[1]->WorkLocal[0] = Work_Zone[2]
  1: 0x0006 [0x0F] ExtData[1]->WorkLocal[0] ^= 15*
  2: 0x000B [0x1E] EventEntity looks at LocalPlayer and starts talking
  3: 0x0010 [0x1C] WAIT(30* ticks)
  4: 0x0013 [0x03] Work_Zone[2] = 773*
  5: 0x0018 [0x03] Work_Zone[3] = 798*
  6: 0x001D [0x03] Work_Zone[4] = 806*
  7: 0x0022 [0x24] CREATE_DIALOG(message_id=9018*, default_option=0*, option_flags=ExtData[1]->WorkLocal[0])
    → "Identify which item? [6./$6./$6./None of the above.]"
  8: 0x0029 [0x25] WAIT_DIALOG_SELECT()
  9: 0x002A [0x02] IF !(Work_Zone[0] == 0*) GOTO 0x003C
 10: 0x0032 [0x1D] PRINT_EVENT_MESSAGE(message_id=9019*)
    → "This is just some piece of junk thrown together by an old man."
 11: 0x0035 [0x23] WAIT_FOR_DIALOG_INTERACTION
 12: 0x0036 [0x01] GOTO 0x0022

SUBROUTINE_006F:
 13: 0x006F [0x21] END_EVENT
 14: 0x0070 [0x00] END_REQSTACK()
```

#### Data or dead code:

```
# Dead code (unreachable instructions):
     0x0039 [0x01] GOTO 0x006F
     0x004B [0x01] GOTO 0x006F
     0x005D [0x01] GOTO 0x006F
```
