# 17637411 - Abyssea

## Common Data

| Field            | Value             |
|------------------|-------------------|
| Zone             | GM_Home (ID: 210) |
| Block Size       | 1236 bytes        |
| Total Events     | 2                 |
| References Count | 56                |

## List of Events

| Event ID              | Entrypoint   |   Size |   Instructions |
|-----------------------|--------------|--------|----------------|
| [65535](#event-65535) | 0x0000       |      1 |              1 |
| [0](#event-0)         | 0x0001       |    985 |            197 |

## DAT References (imed_data)

|   Index | Hex Value   |   Dec Value |
|---------|-------------|-------------|
|       0 | 0x1E8A      |        7818 |
|       1 | 0x0000      |           0 |
|       2 | 0x40000000  |  1073741824 |
|       3 | 0x0001      |           1 |
|       4 | 0x0002      |           2 |
|       5 | 0x0003      |           3 |
|       6 | 0x0004      |           4 |
|       7 | 0x0005      |           5 |
|       8 | 0x029A      |         666 |
|       9 | 0x0006      |           6 |
|      10 | 0x1E94      |        7828 |
|      11 | 0x003C      |          60 |
|      12 | 0x1E95      |        7829 |
|      13 | 0x03E7      |         999 |
|      14 | 0x1E8B      |        7819 |
|      15 | 0x0007      |           7 |
|      16 | 0x0008      |           8 |
|      17 | 0x1E8C      |        7820 |
|      18 | 0x0009      |           9 |
|      19 | 0x000A      |          10 |
|      20 | 0x000B      |          11 |
|      21 | 0x000C      |          12 |
|      22 | 0x000D      |          13 |
|      23 | 0x000E      |          14 |
|      24 | 0x000F      |          15 |
|      25 | 0x0010      |          16 |
|      26 | 0x1E8D      |        7821 |
|      27 | 0x0011      |          17 |
|      28 | 0x0012      |          18 |
|      29 | 0x0013      |          19 |
|      30 | 0x0014      |          20 |
|      31 | 0x0015      |          21 |
|      32 | 0x0016      |          22 |
|      33 | 0x0017      |          23 |
|      34 | 0x0018      |          24 |
|      35 | 0x1E8F      |        7823 |
|      36 | 0x0033      |          51 |
|      37 | 0x0034      |          52 |
|      38 | 0x0035      |          53 |
|      39 | 0x0036      |          54 |
|      40 | 0x0037      |          55 |
|      41 | 0x0038      |          56 |
|      42 | 0x0039      |          57 |
|      43 | 0x003A      |          58 |
|      44 | 0x003B      |          59 |
|      45 | 0x003D      |          61 |
|      46 | 0x003E      |          62 |
|      47 | 0x003F      |          63 |
|      48 | 0x0040      |          64 |
|      49 | 0x0041      |          65 |
|      50 | 0x0042      |          66 |
|      51 | 0x0043      |          67 |
|      52 | 0x0044      |          68 |
|      53 | 0x0045      |          69 |
|      54 | 0x0046      |          70 |
|      55 | 0x0047      |          71 |

## String References

- **7818**: Delve into the depths of Abyssea? [I'd rather not./Main Scenario./Vision of Abyssea./Scars of Abyssea./Heroes of Abyssea./All NM slaying quests./Reset all Abyssea quests.]
- **7819**: Set your mission progress. [Cancel./La Theine offered./Konschtat offered./Tahrongi offered./Vision of Abyssea./La Theine completed./Konschtat completed./Tahrongi completed./Vision of Abyssea clear!]
- **7820**: Set your mission progress. [Cancel./Vunkerl offered./Misareaux offered./Attohwa Offered./Scars of Abyssea./Vunkerl completed./Misareaux completed./Attohwa completed./Scars of Abyssea clear!]
- **7821**: Set your mission progress. [Cancel./Altepa offered./Uleguerand offered./Grauberg Offered./Heroes of Abyssea./Altepa completed./Uleguerand completed./Grauberg completed./Heroes of Abyssea clear!]
- **7823**: Set your mission progress. [Couldn't be bothered./Saw opening./Invited to cavernous maw./Saw Abyssea./Talked with Joachim./Called out I./Met up in La Theine./Reported to Joachim./Called out II./Met up in La Theine II./Reported to Joachim II./Called out III./Met up in the Hall o' Gods./Called out IV./Met up in the Hall o' Gods II./Called out V (seeing a pattern?)/Met up in the Hall o' Gods III./Met some chick./Killed the boss./Bragged to Joachim./Bragged at the Hall o' Gods./Made a promise with that chick.]
- **7828**: This will reset all scenario flags, including designations. You cool with this?
- **7829**: Reset all flags? [Let's do this./On second thought, no.]

## Events

### Event 65535

#### Metadata

| Field        | Value   |
|--------------|---------|
| Entrypoint   | 0x0000  |
| Data Size    | 1 bytes |
| Instructions | 1       |

```
      00 01 02 03 04 05 06 07  08 09 0A 0B 0C 0D 0E 0F
      -- -- -- -- -- -- -- --  -- -- -- -- -- -- -- --
0000: 00                                                .               
```

#### Opcodes

```
  0: 0x0000 [0x00] END_REQSTACK()
```

### Event 0

#### Metadata

| Field        | Value     |
|--------------|-----------|
| Entrypoint   | 0x0001    |
| Data Size    | 985 bytes |
| Instructions | 169       |

```
      00 01 02 03 04 05 06 07  08 09 0A 0B 0C 0D 0E 0F
      -- -- -- -- -- -- -- --  -- -- -- -- -- -- -- --
0000:    24 00 80 01 80 01 80  25 02 00 10 01 80 00 19   $......%.......
0010: 00 03 01 10 02 80 01 98  00 02 00 10 03 80 00 27  ...............'
0020: 00 01 6E 02 01 98 00 02  00 10 04 80 00 35 00 01  ..n..........5..
0030: 9A 00 01 98 00 02 00 10  05 80 00 43 00 01 36 01  ...........C..6.
0040: 01 98 00 02 00 10 06 80  00 51 00 01 D2 01 01 98  .........Q......
0050: 00 02 00 10 07 80 00 61  00 03 01 10 08 80 01 98  .......a........
0060: 00 02 00 10 09 80 00 98  00 48 0A 80 1C 0B 80 24  .........H.....$
0070: 0C 80 03 80 01 80 25 02  00 10 01 80 00 87 00 03  ......%.........
0080: 01 10 0D 80 01 95 00 02  00 10 03 80 00 95 00 01  ................
0090: 01 00 01 95 00 01 98 00  21 00 24 0E 80 01 80 01  ........!.$.....
00A0: 80 25 02 00 10 01 80 00  B2 00 03 01 10 02 80 01  .%..............
00B0: 32 01 02 00 10 03 80 00  C2 00 03 01 10 03 80 01  2...............
00C0: 32 01 02 00 10 04 80 00  D2 00 03 01 10 04 80 01  2...............
00D0: 32 01 02 00 10 05 80 00  E2 00 03 01 10 05 80 01  2...............
00E0: 32 01 02 00 10 06 80 00  F2 00 03 01 10 06 80 01  2...............
00F0: 32 01 02 00 10 07 80 00  02 01 03 01 10 07 80 01  2...............
0100: 32 01 02 00 10 09 80 00  12 01 03 01 10 09 80 01  2...............
0110: 32 01 02 00 10 0F 80 00  22 01 03 01 10 0F 80 01  2.......".......
0120: 32 01 02 00 10 10 80 00  32 01 03 01 10 10 80 01  2.......2.......
0130: 32 01 01 98 00 00 24 11  80 01 80 01 80 25 02 00  2.....$......%..
0140: 10 01 80 00 4E 01 03 01  10 02 80 01 CE 01 02 00  ....N...........
0150: 10 03 80 00 5E 01 03 01  10 12 80 01 CE 01 02 00  ....^...........
0160: 10 04 80 00 6E 01 03 01  10 13 80 01 CE 01 02 00  ....n...........
0170: 10 05 80 00 7E 01 03 01  10 14 80 01 CE 01 02 00  ....~...........
0180: 10 06 80 00 8E 01 03 01  10 15 80 01 CE 01 02 00  ................
0190: 10 07 80 00 9E 01 03 01  10 16 80 01 CE 01 02 00  ................
01A0: 10 09 80 00 AE 01 03 01  10 17 80 01 CE 01 02 00  ................
01B0: 10 0F 80 00 BE 01 03 01  10 18 80 01 CE 01 02 00  ................
01C0: 10 10 80 00 CE 01 03 01  10 19 80 01 CE 01 01 98  ................
01D0: 00 00 24 1A 80 01 80 01  80 25 02 00 10 01 80 00  ..$......%......
01E0: EA 01 03 01 10 02 80 01  6A 02 02 00 10 03 80 00  ........j.......
01F0: FA 01 03 01 10 1B 80 01  6A 02 02 00 10 04 80 00  ........j.......
0200: 0A 02 03 01 10 1C 80 01  6A 02 02 00 10 05 80 00  ........j.......
0210: 1A 02 03 01 10 1D 80 01  6A 02 02 00 10 06 80 00  ........j.......
0220: 2A 02 03 01 10 1E 80 01  6A 02 02 00 10 07 80 00  *.......j.......
0230: 3A 02 03 01 10 1F 80 01  6A 02 02 00 10 09 80 00  :.......j.......
0240: 4A 02 03 01 10 20 80 01  6A 02 02 00 10 0F 80 00  J.... ..j.......
0250: 5A 02 03 01 10 21 80 01  6A 02 02 00 10 10 80 00  Z....!..j.......
0260: 6A 02 03 01 10 22 80 01  6A 02 01 98 00 00 24 23  j...."..j.....$#
0270: 80 01 80 01 80 25 02 00  10 01 80 00 86 02 03 01  .....%..........
0280: 10 02 80 01 D6 03 02 00  10 03 80 00 96 02 03 01  ................
0290: 10 24 80 01 D6 03 02 00  10 04 80 00 A6 02 03 01  .$..............
02A0: 10 25 80 01 D6 03 02 00  10 05 80 00 B6 02 03 01  .%..............
02B0: 10 26 80 01 D6 03 02 00  10 06 80 00 C6 02 03 01  .&..............
02C0: 10 27 80 01 D6 03 02 00  10 07 80 00 D6 02 03 01  .'..............
02D0: 10 28 80 01 D6 03 02 00  10 09 80 00 E6 02 03 01  .(..............
02E0: 10 29 80 01 D6 03 02 00  10 0F 80 00 F6 02 03 01  .)..............
02F0: 10 2A 80 01 D6 03 02 00  10 10 80 00 06 03 03 01  .*..............
0300: 10 2B 80 01 D6 03 02 00  10 12 80 00 16 03 03 01  .+..............
0310: 10 2C 80 01 D6 03 02 00  10 13 80 00 26 03 03 01  .,..........&...
0320: 10 0B 80 01 D6 03 02 00  10 14 80 00 36 03 03 01  ............6...
0330: 10 2D 80 01 D6 03 02 00  10 15 80 00 46 03 03 01  .-..........F...
0340: 10 2E 80 01 D6 03 02 00  10 16 80 00 56 03 03 01  ............V...
0350: 10 2F 80 01 D6 03 02 00  10 17 80 00 66 03 03 01  ./..........f...
0360: 10 30 80 01 D6 03 02 00  10 18 80 00 76 03 03 01  .0..........v...
0370: 10 31 80 01 D6 03 02 00  10 19 80 00 86 03 03 01  .1..............
0380: 10 32 80 01 D6 03 02 00  10 1B 80 00 96 03 03 01  .2..............
0390: 10 33 80 01 D6 03 02 00  10 1C 80 00 A6 03 03 01  .3..............
03A0: 10 34 80 01 D6 03 02 00  10 1D 80 00 B6 03 03 01  .4..............
03B0: 10 35 80 01 D6 03 02 00  10 1E 80 00 C6 03 03 01  .5..............
03C0: 10 36 80 01 D6 03 02 00  10 1F 80 00 D6 03 03 01  .6..............
03D0: 10 37 80 01 D6 03 01 98  00 00                    .7........      
```

#### Opcodes

```
  0: 0x0001 [0x24] CREATE_DIALOG(message_id=7818*, default_option=0*, option_flags=0*)
    → "Delve into the depths of Abyssea? [I'd rather not./Main Scenario./Vision of Abyssea./Scars of Abyssea./Heroes of Abyssea./All NM slaying quests./Reset all Abyssea quests.]"
  1: 0x0008 [0x25] WAIT_DIALOG_SELECT()
  2: 0x0009 [0x02] IF !(Work_Zone[0] == 0*) GOTO 0x0019
  3: 0x0011 [0x03] Work_Zone[1] = 1073741824*
  4: 0x0016 [0x01] GOTO 0x0098
  5: 0x0019 [0x02] IF !(Work_Zone[0] == 1*) GOTO 0x0027
  6: 0x0021 [0x01] GOTO 0x026E

SUBROUTINE_0095:
  7: 0x0095 [0x01] GOTO 0x0098

SUBROUTINE_0098:
  8: 0x0098 [0x21] END_EVENT
  9: 0x0099 [0x00] END_REQSTACK()

SUBROUTINE_009A:
 10: 0x009A [0x24] CREATE_DIALOG(message_id=7819*, default_option=0*, option_flags=0*)
    → "Set your mission progress. [Cancel./La Theine offered./Konschtat offered./Tahrongi offered./Vision of Abyssea./La Theine completed./Konschtat completed./Tahrongi completed./Vision of Abyssea clear!]"
 11: 0x00A1 [0x25] WAIT_DIALOG_SELECT()
 12: 0x00A2 [0x02] IF !(Work_Zone[0] == 0*) GOTO 0x00B2
 13: 0x00AA [0x03] Work_Zone[1] = 1073741824*
 14: 0x00AF [0x01] GOTO 0x0132
 15: 0x00B2 [0x02] IF !(Work_Zone[0] == 1*) GOTO 0x00C2
 16: 0x00BA [0x03] Work_Zone[1] = 1*
 17: 0x00BF [0x01] GOTO 0x0132
 18: 0x00C2 [0x02] IF !(Work_Zone[0] == 2*) GOTO 0x00D2
 19: 0x00CA [0x03] Work_Zone[1] = 2*
 20: 0x00CF [0x01] GOTO 0x0132
 21: 0x00D2 [0x02] IF !(Work_Zone[0] == 3*) GOTO 0x00E2
 22: 0x00DA [0x03] Work_Zone[1] = 3*
 23: 0x00DF [0x01] GOTO 0x0132
 24: 0x00E2 [0x02] IF !(Work_Zone[0] == 4*) GOTO 0x00F2
 25: 0x00EA [0x03] Work_Zone[1] = 4*
 26: 0x00EF [0x01] GOTO 0x0132
 27: 0x00F2 [0x02] IF !(Work_Zone[0] == 5*) GOTO 0x0102
 28: 0x00FA [0x03] Work_Zone[1] = 5*
 29: 0x00FF [0x01] GOTO 0x0132
 30: 0x0102 [0x02] IF !(Work_Zone[0] == 6*) GOTO 0x0112
 31: 0x010A [0x03] Work_Zone[1] = 6*
 32: 0x010F [0x01] GOTO 0x0132
 33: 0x0112 [0x02] IF !(Work_Zone[0] == 7*) GOTO 0x0122
 34: 0x011A [0x03] Work_Zone[1] = 7*
 35: 0x011F [0x01] GOTO 0x0132
 36: 0x0122 [0x02] IF !(Work_Zone[0] == 8*) GOTO 0x0132
 37: 0x012A [0x03] Work_Zone[1] = 8*
 38: 0x012F [0x01] GOTO 0x0132

SUBROUTINE_0132:
 39: 0x0132 [0x01] GOTO 0x0098

SUBROUTINE_0136:
 40: 0x0136 [0x24] CREATE_DIALOG(message_id=7820*, default_option=0*, option_flags=0*)
    → "Set your mission progress. [Cancel./Vunkerl offered./Misareaux offered./Attohwa Offered./Scars of Abyssea./Vunkerl completed./Misareaux completed./Attohwa completed./Scars of Abyssea clear!]"
 41: 0x013D [0x25] WAIT_DIALOG_SELECT()
 42: 0x013E [0x02] IF !(Work_Zone[0] == 0*) GOTO 0x014E
 43: 0x0146 [0x03] Work_Zone[1] = 1073741824*
 44: 0x014B [0x01] GOTO 0x01CE
 45: 0x014E [0x02] IF !(Work_Zone[0] == 1*) GOTO 0x015E
 46: 0x0156 [0x03] Work_Zone[1] = 9*
 47: 0x015B [0x01] GOTO 0x01CE
 48: 0x015E [0x02] IF !(Work_Zone[0] == 2*) GOTO 0x016E
 49: 0x0166 [0x03] Work_Zone[1] = 10*
 50: 0x016B [0x01] GOTO 0x01CE
 51: 0x016E [0x02] IF !(Work_Zone[0] == 3*) GOTO 0x017E
 52: 0x0176 [0x03] Work_Zone[1] = 11*
 53: 0x017B [0x01] GOTO 0x01CE
 54: 0x017E [0x02] IF !(Work_Zone[0] == 4*) GOTO 0x018E
 55: 0x0186 [0x03] Work_Zone[1] = 12*
 56: 0x018B [0x01] GOTO 0x01CE
 57: 0x018E [0x02] IF !(Work_Zone[0] == 5*) GOTO 0x019E
 58: 0x0196 [0x03] Work_Zone[1] = 13*
 59: 0x019B [0x01] GOTO 0x01CE
 60: 0x019E [0x02] IF !(Work_Zone[0] == 6*) GOTO 0x01AE
 61: 0x01A6 [0x03] Work_Zone[1] = 14*
 62: 0x01AB [0x01] GOTO 0x01CE
 63: 0x01AE [0x02] IF !(Work_Zone[0] == 7*) GOTO 0x01BE
 64: 0x01B6 [0x03] Work_Zone[1] = 15*
 65: 0x01BB [0x01] GOTO 0x01CE
 66: 0x01BE [0x02] IF !(Work_Zone[0] == 8*) GOTO 0x01CE
 67: 0x01C6 [0x03] Work_Zone[1] = 16*
 68: 0x01CB [0x01] GOTO 0x01CE

SUBROUTINE_01CE:
 69: 0x01CE [0x01] GOTO 0x0098

SUBROUTINE_01D2:
 70: 0x01D2 [0x24] CREATE_DIALOG(message_id=7821*, default_option=0*, option_flags=0*)
    → "Set your mission progress. [Cancel./Altepa offered./Uleguerand offered./Grauberg Offered./Heroes of Abyssea./Altepa completed./Uleguerand completed./Grauberg completed./Heroes of Abyssea clear!]"
 71: 0x01D9 [0x25] WAIT_DIALOG_SELECT()
 72: 0x01DA [0x02] IF !(Work_Zone[0] == 0*) GOTO 0x01EA
 73: 0x01E2 [0x03] Work_Zone[1] = 1073741824*
 74: 0x01E7 [0x01] GOTO 0x026A
 75: 0x01EA [0x02] IF !(Work_Zone[0] == 1*) GOTO 0x01FA
 76: 0x01F2 [0x03] Work_Zone[1] = 17*
 77: 0x01F7 [0x01] GOTO 0x026A
 78: 0x01FA [0x02] IF !(Work_Zone[0] == 2*) GOTO 0x020A
 79: 0x0202 [0x03] Work_Zone[1] = 18*
 80: 0x0207 [0x01] GOTO 0x026A
 81: 0x020A [0x02] IF !(Work_Zone[0] == 3*) GOTO 0x021A
 82: 0x0212 [0x03] Work_Zone[1] = 19*
 83: 0x0217 [0x01] GOTO 0x026A
 84: 0x021A [0x02] IF !(Work_Zone[0] == 4*) GOTO 0x022A
 85: 0x0222 [0x03] Work_Zone[1] = 20*
 86: 0x0227 [0x01] GOTO 0x026A
 87: 0x022A [0x02] IF !(Work_Zone[0] == 5*) GOTO 0x023A
 88: 0x0232 [0x03] Work_Zone[1] = 21*
 89: 0x0237 [0x01] GOTO 0x026A
 90: 0x023A [0x02] IF !(Work_Zone[0] == 6*) GOTO 0x024A
 91: 0x0242 [0x03] Work_Zone[1] = 22*
 92: 0x0247 [0x01] GOTO 0x026A
 93: 0x024A [0x02] IF !(Work_Zone[0] == 7*) GOTO 0x025A
 94: 0x0252 [0x03] Work_Zone[1] = 23*
 95: 0x0257 [0x01] GOTO 0x026A
 96: 0x025A [0x02] IF !(Work_Zone[0] == 8*) GOTO 0x026A
 97: 0x0262 [0x03] Work_Zone[1] = 24*
 98: 0x0267 [0x01] GOTO 0x026A

SUBROUTINE_026A:
 99: 0x026A [0x01] GOTO 0x0098

SUBROUTINE_026E:
100: 0x026E [0x24] CREATE_DIALOG(message_id=7823*, default_option=0*, option_flags=0*)
    → "Set your mission progress. [Couldn't be bothered./Saw opening./Invited to cavernous maw./Saw Abyssea./Talked with Joachim./Called out I./Met up in La Theine./Reported to Joachim./Called out II./Met up in La Theine II./Reported to Joachim II./Called out III./Met up in the Hall o' Gods./Called out IV./Met up in the Hall o' Gods II./Called out V (seeing a pattern?)/Met up in the Hall o' Gods III./Met some chick./Killed the boss./Bragged to Joachim./Bragged at the Hall o' Gods./Made a promise with that chick.]"
101: 0x0275 [0x25] WAIT_DIALOG_SELECT()
102: 0x0276 [0x02] IF !(Work_Zone[0] == 0*) GOTO 0x0286
103: 0x027E [0x03] Work_Zone[1] = 1073741824*
104: 0x0283 [0x01] GOTO 0x03D6
105: 0x0286 [0x02] IF !(Work_Zone[0] == 1*) GOTO 0x0296
106: 0x028E [0x03] Work_Zone[1] = 51*
107: 0x0293 [0x01] GOTO 0x03D6
108: 0x0296 [0x02] IF !(Work_Zone[0] == 2*) GOTO 0x02A6
109: 0x029E [0x03] Work_Zone[1] = 52*
110: 0x02A3 [0x01] GOTO 0x03D6
111: 0x02A6 [0x02] IF !(Work_Zone[0] == 3*) GOTO 0x02B6
112: 0x02AE [0x03] Work_Zone[1] = 53*
113: 0x02B3 [0x01] GOTO 0x03D6
114: 0x02B6 [0x02] IF !(Work_Zone[0] == 4*) GOTO 0x02C6
115: 0x02BE [0x03] Work_Zone[1] = 54*
116: 0x02C3 [0x01] GOTO 0x03D6
117: 0x02C6 [0x02] IF !(Work_Zone[0] == 5*) GOTO 0x02D6
118: 0x02CE [0x03] Work_Zone[1] = 55*
119: 0x02D3 [0x01] GOTO 0x03D6
120: 0x02D6 [0x02] IF !(Work_Zone[0] == 6*) GOTO 0x02E6
121: 0x02DE [0x03] Work_Zone[1] = 56*
122: 0x02E3 [0x01] GOTO 0x03D6
123: 0x02E6 [0x02] IF !(Work_Zone[0] == 7*) GOTO 0x02F6
124: 0x02EE [0x03] Work_Zone[1] = 57*
125: 0x02F3 [0x01] GOTO 0x03D6
126: 0x02F6 [0x02] IF !(Work_Zone[0] == 8*) GOTO 0x0306
127: 0x02FE [0x03] Work_Zone[1] = 58*
128: 0x0303 [0x01] GOTO 0x03D6
129: 0x0306 [0x02] IF !(Work_Zone[0] == 9*) GOTO 0x0316
130: 0x030E [0x03] Work_Zone[1] = 59*
131: 0x0313 [0x01] GOTO 0x03D6
132: 0x0316 [0x02] IF !(Work_Zone[0] == 10*) GOTO 0x0326
133: 0x031E [0x03] Work_Zone[1] = 60*
134: 0x0323 [0x01] GOTO 0x03D6
135: 0x0326 [0x02] IF !(Work_Zone[0] == 11*) GOTO 0x0336
136: 0x032E [0x03] Work_Zone[1] = 61*
137: 0x0333 [0x01] GOTO 0x03D6
138: 0x0336 [0x02] IF !(Work_Zone[0] == 12*) GOTO 0x0346
139: 0x033E [0x03] Work_Zone[1] = 62*
140: 0x0343 [0x01] GOTO 0x03D6
141: 0x0346 [0x02] IF !(Work_Zone[0] == 13*) GOTO 0x0356
142: 0x034E [0x03] Work_Zone[1] = 63*
143: 0x0353 [0x01] GOTO 0x03D6
144: 0x0356 [0x02] IF !(Work_Zone[0] == 14*) GOTO 0x0366
145: 0x035E [0x03] Work_Zone[1] = 64*
146: 0x0363 [0x01] GOTO 0x03D6
147: 0x0366 [0x02] IF !(Work_Zone[0] == 15*) GOTO 0x0376
148: 0x036E [0x03] Work_Zone[1] = 65*
149: 0x0373 [0x01] GOTO 0x03D6
150: 0x0376 [0x02] IF !(Work_Zone[0] == 16*) GOTO 0x0386
151: 0x037E [0x03] Work_Zone[1] = 66*
152: 0x0383 [0x01] GOTO 0x03D6
153: 0x0386 [0x02] IF !(Work_Zone[0] == 17*) GOTO 0x0396
154: 0x038E [0x03] Work_Zone[1] = 67*
155: 0x0393 [0x01] GOTO 0x03D6
156: 0x0396 [0x02] IF !(Work_Zone[0] == 18*) GOTO 0x03A6
157: 0x039E [0x03] Work_Zone[1] = 68*
158: 0x03A3 [0x01] GOTO 0x03D6
159: 0x03A6 [0x02] IF !(Work_Zone[0] == 19*) GOTO 0x03B6
160: 0x03AE [0x03] Work_Zone[1] = 69*
161: 0x03B3 [0x01] GOTO 0x03D6
162: 0x03B6 [0x02] IF !(Work_Zone[0] == 20*) GOTO 0x03C6
163: 0x03BE [0x03] Work_Zone[1] = 70*
164: 0x03C3 [0x01] GOTO 0x03D6
165: 0x03C6 [0x02] IF !(Work_Zone[0] == 21*) GOTO 0x03D6
166: 0x03CE [0x03] Work_Zone[1] = 71*
167: 0x03D3 [0x01] GOTO 0x03D6

SUBROUTINE_03D6:
168: 0x03D6 [0x01] GOTO 0x0098
```

#### Data or dead code:

```
# Dead code (unreachable instructions):
     0x0024 [0x01] GOTO 0x0098
     0x0032 [0x01] GOTO 0x0098
     0x0040 [0x01] GOTO 0x0098
     0x004E [0x01] GOTO 0x0098
     0x0092 [0x01] GOTO 0x0095
# Dead code (unreachable instructions):
     0x0135 [0x00] END_REQSTACK()
# Dead code (unreachable instructions):
     0x01D1 [0x00] END_REQSTACK()
# Dead code (unreachable instructions):
     0x026D [0x00] END_REQSTACK()
# Dead code (unreachable instructions):
     0x03D9 [0x00] END_REQSTACK()
```
