# 17637457 - Janken

## Common Data

| Field            | Value             |
|------------------|-------------------|
| Zone             | GM_Home (ID: 210) |
| Block Size       | 544 bytes         |
| Total Events     | 3                 |
| References Count | 22                |

## List of Events

| Event ID              | Entrypoint   |   Size |   Instructions |
|-----------------------|--------------|--------|----------------|
| [65535](#event-65535) | 0x0000       |      1 |              1 |
| [138](#event-138)     | 0x0001       |     14 |              6 |
| [139](#event-139)     | 0x000F       |    411 |            112 |

## DAT References (imed_data)

|   Index | Hex Value   |   Dec Value |
|---------|-------------|-------------|
|       0 | 0x001E      |          30 |
|       1 | 0x234E      |        9038 |
|       2 | 0x0000      |           0 |
|       3 | 0x0064      |         100 |
|       4 | 0x234F      |        9039 |
|       5 | 0x2350      |        9040 |
|       6 | 0x0001      |           1 |
|       7 | 0x2351      |        9041 |
|       8 | 0x2352      |        9042 |
|       9 | 0x2353      |        9043 |
|      10 | 0x2354      |        9044 |
|      11 | 0x2355      |        9045 |
|      12 | 0x2356      |        9046 |
|      13 | 0x2357      |        9047 |
|      14 | 0x0002      |           2 |
|      15 | 0x2358      |        9048 |
|      16 | 0x2359      |        9049 |
|      17 | 0x235C      |        9052 |
|      18 | 0x235D      |        9053 |
|      19 | 0x235E      |        9054 |
|      20 | 0x235A      |        9050 |
|      21 | 0x235B      |        9051 |

## String References

- **9038**: I'm too tired to play games now.
- **9039**: For $0 gil, you can challenge me to a thrilling game of rock, paper, scissors. What do you say?
- **9040**: Take the challenge? [Of course!/Not today.]
- **9041**: You're short on cash, [buddy/lady].
- **9042**: Hah! You're just afraid to lose, I bet.
- **9043**: $0 gil. Here we go!
- **9044**: Rock...paper...
- **9045**: What's your move? [Rock./Scissors./Paper.]
- **9046**: <Player> shows rock!
- **9047**: <Player> shows scissors!
- **9048**: <Player> shows paper!
- **9049**: The gamesmaster shows rock!
- **9050**: The gamesmaster shows scissors!
- **9051**: The gamesmaster shows paper!
- **9052**: We're even.
- **9053**: I win, as expected!
- **9054**: You win...for today. Here's your prize.

## Events

### Event 65535

#### Metadata

| Field        | Value   |
|--------------|---------|
| Entrypoint   | 0x0000  |
| Data Size    | 1 bytes |
| Instructions | 1       |

```
      00 01 02 03 04 05 06 07  08 09 0A 0B 0C 0D 0E 0F
      -- -- -- -- -- -- -- --  -- -- -- -- -- -- -- --
0000: 00                                                .               
```

#### Opcodes

```
  0: 0x0000 [0x00] END_REQSTACK()
```

### Event 138

#### Metadata

| Field        | Value    |
|--------------|----------|
| Entrypoint   | 0x0001   |
| Data Size    | 14 bytes |
| Instructions | 6        |

```
      00 01 02 03 04 05 06 07  08 09 0A 0B 0C 0D 0E 0F
      -- -- -- -- -- -- -- --  -- -- -- -- -- -- -- --
0000:    1E F0 FF FF 7F 1C 00  80 1D 01 80 23 21 00      ...........#!. 
```

#### Opcodes

```
  0: 0x0001 [0x1E] EventEntity looks at LocalPlayer and starts talking
  1: 0x0006 [0x1C] WAIT(30* ticks)
  2: 0x0009 [0x1D] PRINT_EVENT_MESSAGE(message_id=9038*)
    → "I'm too tired to play games now."
  3: 0x000C [0x23] WAIT_FOR_DIALOG_INTERACTION
  4: 0x000D [0x21] END_EVENT
  5: 0x000E [0x00] END_REQSTACK()
```

### Event 139

#### Metadata

| Field        | Value     |
|--------------|-----------|
| Entrypoint   | 0x000F    |
| Data Size    | 411 bytes |
| Instructions | 111       |

```
      00 01 02 03 04 05 06 07  08 09 0A 0B 0C 0D 0E 0F
      -- -- -- -- -- -- -- --  -- -- -- -- -- -- -- --
0000:                                               42                 B
0010: 03 01 10 02 80 1E F0 FF  FF 7F 1C 00 80 02 02 10  ................
0020: 02 80 00 77 00 03 02 10  03 80 1D 04 80 23 24 05  ...w.........#$.
0030: 80 06 80 02 80 25 02 00  10 02 80 00 58 00 03 01  .....%......X...
0040: 10 06 80 43 00 43 01 02  02 10 02 80 00 55 00 1D  ...C.C.......U..
0050: 07 80 23 21 00 01 69 00  02 00 10 06 80 00 69 00  ..#!..i.......i.
0060: 1D 08 80 23 21 00 01 69  00 03 01 10 02 80 03 02  ...#!..i........
0070: 10 03 80 1D 09 80 23 1D  0A 80 23 24 0B 80 02 80  ......#...#$....
0080: 02 80 25 02 00 10 02 80  00 97 00 03 00 00 02 80  ..%.............
0090: 48 0C 80 23 01 BF 00 02  00 10 06 80 00 AB 00 03  H..#............
00A0: 00 00 06 80 48 0D 80 23  01 BF 00 02 00 10 0E 80  ....H..#........
00B0: 00 BF 00 03 00 00 0E 80  48 0F 80 23 01 BF 00 13  ........H..#....
00C0: 01 00 0E 80 02 01 00 02  80 80 10 01 48 10 80 23  ............H..#
00D0: 02 00 00 02 80 80 DF 00  1D 11 80 23 01 0D 01 02  ...........#....
00E0: 00 00 06 80 80 EE 00 1D  12 80 23 01 0D 01 02 00  ..........#.....
00F0: 00 0E 80 80 0D 01 03 01  10 0E 80 43 00 43 01 27  ...........C.C.'
0100: 05 52 20 0D 01 02 1D 13  80 23 01 0D 01 01 A8 01  .R ......#......
0110: 02 01 00 06 80 80 5C 01  48 14 80 23 02 00 00 02  ......\.H..#....
0120: 80 80 3B 01 03 01 10 0E  80 43 00 43 01 27 05 52  ..;......C.C.'.R
0130: 20 0D 01 02 1D 13 80 23  01 59 01 02 00 00 06 80   ......#.Y......
0140: 80 4A 01 1D 11 80 23 01  59 01 02 00 00 0E 80 80  .J....#.Y.......
0150: 59 01 1D 12 80 23 01 59  01 01 A8 01 02 01 00 0E  Y....#.Y........
0160: 80 80 A8 01 48 15 80 23  02 00 00 02 80 80 77 01  ....H..#......w.
0170: 1D 12 80 23 01 A5 01 02  00 00 06 80 80 96 01 03  ...#............
0180: 01 10 0E 80 43 00 43 01  27 05 52 20 0D 01 02 1D  ....C.C.'.R ....
0190: 13 80 23 01 A5 01 02 00  00 0E 80 80 A5 01 1D 11  ..#.............
01A0: 80 23 01 A5 01 01 A8 01  21 00                    .#......!.      
```

#### Opcodes

```
  0: 0x000F [0x42] SET_CLI_EVENT_CANCEL_DATA()
  1: 0x0010 [0x03] Work_Zone[1] = 0*
  2: 0x0015 [0x1E] EventEntity looks at LocalPlayer and starts talking
  3: 0x001A [0x1C] WAIT(30* ticks)
  4: 0x001D [0x02] IF !(Work_Zone[2] == 0*) GOTO 0x0077
  5: 0x0025 [0x03] Work_Zone[2] = 100*
  6: 0x002A [0x1D] PRINT_EVENT_MESSAGE(message_id=9039*)
    → "For $0 gil, you can challenge me to a thrilling game of rock, paper, scissors. What do you say?"
  7: 0x002D [0x23] WAIT_FOR_DIALOG_INTERACTION
  8: 0x002E [0x24] CREATE_DIALOG(message_id=9040*, default_option=1*, option_flags=0*)
    → "Take the challenge? [Of course!/Not today.]"
  9: 0x0035 [0x25] WAIT_DIALOG_SELECT()
 10: 0x0036 [0x02] IF !(Work_Zone[0] == 0*) GOTO 0x0058
 11: 0x003E [0x03] Work_Zone[1] = 1*
 12: 0x0043 [0x43] SEND_EVENT_UPDATE: Send pending tag to server (packet 0x005B)
 13: 0x0045 [0x43] SEND_EVENT_UPDATE: Check pending flag (skip if not pending)
 14: 0x0047 [0x02] IF !(Work_Zone[2] == 0*) GOTO 0x0055
 15: 0x004F [0x1D] PRINT_EVENT_MESSAGE(message_id=9041*)
    → "You're short on cash, [buddy/lady]."
 16: 0x0052 [0x23] WAIT_FOR_DIALOG_INTERACTION
 17: 0x0053 [0x21] END_EVENT
 18: 0x0054 [0x00] END_REQSTACK()
 19: 0x0055 [0x01] GOTO 0x0069
 20: 0x0058 [0x02] IF !(Work_Zone[0] == 1*) GOTO 0x0069
 21: 0x0060 [0x1D] PRINT_EVENT_MESSAGE(message_id=9042*)
    → "Hah! You're just afraid to lose, I bet."
 22: 0x0063 [0x23] WAIT_FOR_DIALOG_INTERACTION
 23: 0x0064 [0x21] END_EVENT
 24: 0x0065 [0x00] END_REQSTACK()

SUBROUTINE_0069:
 25: 0x0069 [0x03] Work_Zone[1] = 0*
 26: 0x006E [0x03] Work_Zone[2] = 100*
 27: 0x0073 [0x1D] PRINT_EVENT_MESSAGE(message_id=9043*)
    → "$0 gil. Here we go!"
 28: 0x0076 [0x23] WAIT_FOR_DIALOG_INTERACTION
 29: 0x0077 [0x1D] PRINT_EVENT_MESSAGE(message_id=9044*)
    → "Rock...paper..."
 30: 0x007A [0x23] WAIT_FOR_DIALOG_INTERACTION
 31: 0x007B [0x24] CREATE_DIALOG(message_id=9045*, default_option=0*, option_flags=0*)
    → "What's your move? [Rock./Scissors./Paper.]"
 32: 0x0082 [0x25] WAIT_DIALOG_SELECT()
 33: 0x0083 [0x02] IF !(Work_Zone[0] == 0*) GOTO 0x0097
 34: 0x008B [0x03] ExtData[1]->WorkLocal[0] = 0*
 35: 0x0090 [0x48] [System] [9046*]:
    → "<Player> shows rock!"
 36: 0x0093 [0x23] WAIT_FOR_DIALOG_INTERACTION
 37: 0x0094 [0x01] GOTO 0x00BF
 38: 0x0097 [0x02] IF !(Work_Zone[0] == 1*) GOTO 0x00AB
 39: 0x009F [0x03] ExtData[1]->WorkLocal[0] = 1*
 40: 0x00A4 [0x48] [System] [9047*]:
    → "<Player> shows scissors!"
 41: 0x00A7 [0x23] WAIT_FOR_DIALOG_INTERACTION
 42: 0x00A8 [0x01] GOTO 0x00BF
 43: 0x00AB [0x02] IF !(Work_Zone[0] == 2*) GOTO 0x00BF
 44: 0x00B3 [0x03] ExtData[1]->WorkLocal[0] = 2*
 45: 0x00B8 [0x48] [System] [9048*]:
    → "<Player> shows paper!"
 46: 0x00BB [0x23] WAIT_FOR_DIALOG_INTERACTION
 47: 0x00BC [0x01] GOTO 0x00BF

SUBROUTINE_00BF:
 48: 0x00BF [0x13] ExtData[1]->WorkLocal[1] = rand() % 2*
 49: 0x00C4 [0x02] IF !(ExtData[1]->WorkLocal[1] == 0*) GOTO 0x0110
 50: 0x00CC [0x48] [System] [9049*]:
    → "The gamesmaster shows rock!"
 51: 0x00CF [0x23] WAIT_FOR_DIALOG_INTERACTION
 52: 0x00D0 [0x02] IF !(ExtData[1]->WorkLocal[0] == 0*) GOTO 0x00DF
 53: 0x00D8 [0x1D] PRINT_EVENT_MESSAGE(message_id=9052*)
    → "We're even."
 54: 0x00DB [0x23] WAIT_FOR_DIALOG_INTERACTION
 55: 0x00DC [0x01] GOTO 0x010D
 56: 0x00DF [0x02] IF !(ExtData[1]->WorkLocal[0] == 1*) GOTO 0x00EE
 57: 0x00E7 [0x1D] PRINT_EVENT_MESSAGE(message_id=9053*)
    → "I win, as expected!"
 58: 0x00EA [0x23] WAIT_FOR_DIALOG_INTERACTION
 59: 0x00EB [0x01] GOTO 0x010D
 60: 0x00EE [0x02] IF !(ExtData[1]->WorkLocal[0] == 2*) GOTO 0x010D
 61: 0x00F6 [0x03] Work_Zone[1] = 2*
 62: 0x00FB [0x43] SEND_EVENT_UPDATE: Send pending tag to server (packet 0x005B)
 63: 0x00FD [0x43] SEND_EVENT_UPDATE: Check pending flag (skip if not pending)
 64: 0x00FF [0x27] REQ_SET(priority=0x05, entity_id=Yajiuma (ID: 17637458/0x010D2052), tag_num=0x02)
 65: 0x0106 [0x1D] PRINT_EVENT_MESSAGE(message_id=9054*)
    → "You win...for today. Here's your prize."
 66: 0x0109 [0x23] WAIT_FOR_DIALOG_INTERACTION
 67: 0x010A [0x01] GOTO 0x010D

SUBROUTINE_010D:
 68: 0x010D [0x01] GOTO 0x01A8
 69: 0x0110 [0x02] IF !(ExtData[1]->WorkLocal[1] == 1*) GOTO 0x015C
 70: 0x0118 [0x48] [System] [9050*]:
    → "The gamesmaster shows scissors!"
 71: 0x011B [0x23] WAIT_FOR_DIALOG_INTERACTION
 72: 0x011C [0x02] IF !(ExtData[1]->WorkLocal[0] == 0*) GOTO 0x013B
 73: 0x0124 [0x03] Work_Zone[1] = 2*
 74: 0x0129 [0x43] SEND_EVENT_UPDATE: Send pending tag to server (packet 0x005B)
 75: 0x012B [0x43] SEND_EVENT_UPDATE: Check pending flag (skip if not pending)
 76: 0x012D [0x27] REQ_SET(priority=0x05, entity_id=Yajiuma (ID: 17637458/0x010D2052), tag_num=0x02)
 77: 0x0134 [0x1D] PRINT_EVENT_MESSAGE(message_id=9054*)
    → "You win...for today. Here's your prize."
 78: 0x0137 [0x23] WAIT_FOR_DIALOG_INTERACTION
 79: 0x0138 [0x01] GOTO 0x0159
 80: 0x013B [0x02] IF !(ExtData[1]->WorkLocal[0] == 1*) GOTO 0x014A
 81: 0x0143 [0x1D] PRINT_EVENT_MESSAGE(message_id=9052*)
    → "We're even."
 82: 0x0146 [0x23] WAIT_FOR_DIALOG_INTERACTION
 83: 0x0147 [0x01] GOTO 0x0159
 84: 0x014A [0x02] IF !(ExtData[1]->WorkLocal[0] == 2*) GOTO 0x0159
 85: 0x0152 [0x1D] PRINT_EVENT_MESSAGE(message_id=9053*)
    → "I win, as expected!"
 86: 0x0155 [0x23] WAIT_FOR_DIALOG_INTERACTION
 87: 0x0156 [0x01] GOTO 0x0159

SUBROUTINE_0159:
 88: 0x0159 [0x01] GOTO 0x01A8
 89: 0x015C [0x02] IF !(ExtData[1]->WorkLocal[1] == 2*) GOTO 0x01A8
 90: 0x0164 [0x48] [System] [9051*]:
    → "The gamesmaster shows paper!"
 91: 0x0167 [0x23] WAIT_FOR_DIALOG_INTERACTION
 92: 0x0168 [0x02] IF !(ExtData[1]->WorkLocal[0] == 0*) GOTO 0x0177
 93: 0x0170 [0x1D] PRINT_EVENT_MESSAGE(message_id=9053*)
    → "I win, as expected!"
 94: 0x0173 [0x23] WAIT_FOR_DIALOG_INTERACTION
 95: 0x0174 [0x01] GOTO 0x01A5
 96: 0x0177 [0x02] IF !(ExtData[1]->WorkLocal[0] == 1*) GOTO 0x0196
 97: 0x017F [0x03] Work_Zone[1] = 2*
 98: 0x0184 [0x43] SEND_EVENT_UPDATE: Send pending tag to server (packet 0x005B)
 99: 0x0186 [0x43] SEND_EVENT_UPDATE: Check pending flag (skip if not pending)
100: 0x0188 [0x27] REQ_SET(priority=0x05, entity_id=Yajiuma (ID: 17637458/0x010D2052), tag_num=0x02)
101: 0x018F [0x1D] PRINT_EVENT_MESSAGE(message_id=9054*)
    → "You win...for today. Here's your prize."
102: 0x0192 [0x23] WAIT_FOR_DIALOG_INTERACTION
103: 0x0193 [0x01] GOTO 0x01A5
104: 0x0196 [0x02] IF !(ExtData[1]->WorkLocal[0] == 2*) GOTO 0x01A5
105: 0x019E [0x1D] PRINT_EVENT_MESSAGE(message_id=9052*)
    → "We're even."
106: 0x01A1 [0x23] WAIT_FOR_DIALOG_INTERACTION
107: 0x01A2 [0x01] GOTO 0x01A5

SUBROUTINE_01A5:
108: 0x01A5 [0x01] GOTO 0x01A8

SUBROUTINE_01A8:
109: 0x01A8 [0x21] END_EVENT
110: 0x01A9 [0x00] END_REQSTACK()
```

#### Data or dead code:

```
# Dead code (unreachable instructions):
     0x0066 [0x01] GOTO 0x0069
```
