# 17637379 - Bastok

## Common Data

| Field            | Value             |
|------------------|-------------------|
| Zone             | GM_Home (ID: 210) |
| Block Size       | 276 bytes         |
| Total Events     | 2                 |
| References Count | 13                |

## List of Events

| Event ID              | Entrypoint   |   Size |   Instructions |
|-----------------------|--------------|--------|----------------|
| [65535](#event-65535) | 0x0000       |      1 |              1 |
| [13](#event-13)       | 0x0001       |    198 |             46 |

## DAT References (imed_data)

|   Index | Hex Value   |   Dec Value |
|---------|-------------|-------------|
|       0 | 0x1B98      |        7064 |
|       1 | 0x0000      |           0 |
|       2 | 0x0001      |           1 |
|       3 | 0x1B99      |        7065 |
|       4 | 0x40000000  |  1073741824 |
|       5 | 0x1B9A      |        7066 |
|       6 | 0x000B      |          11 |
|       7 | 0x0002      |           2 |
|       8 | 0x1B9B      |        7067 |
|       9 | 0x0017      |          23 |
|      10 | 0x0003      |           3 |
|      11 | 0x0004      |           4 |
|      12 | 0x1B9C      |        7068 |

## String References

- **7064**: Whaddya want, fool! [Mission Rank \`2 (with nationality)/Mission Rank 3\`5 (with nationality)/Mission Rank 6\` (with nationality)/Raise a special flag!/Not much.]
- **7065**: What rank do you want!? [Forget it!/1-1 offer OK/1-2 offer OK/1-3 offer OK"-1 offer OK"-2 offer OK"-3 offer OK"-3A#1 country offer OK"-3A#2 [Bas/San/San] offer OK"-3A#2 [Win/Win/Bas] offer OK"-3A#2 [Palb./Ghelsba/Ghelsba] boss battle ok!"-3A#2 [Giddeus/Giddeus/Palb.] boss battle ok!]
- **7066**: What rank do you want?? [Forget it!"-1 offer OK"-2 offer OK"-3 offer OK"-3 to the consulate!/4-1 offer OK/4-1 [Davoi/Bed./Oztroja] : Final Magicite/After Jeuno...before hometown event./5-1 offer OK/5-1 Fei'Yin boss ready!/5-2 offer OK/5-2 Zvahl Boss ready!/Rank 6]
- **7067**: What rank do you want? [Forget it./6-1 offer OK./6-2 offer OK./7-1 offer OK./7-2 offer OK./8-1 offer OK./8-2 offer OK./9-1 offer OK./9-2 offer OK./Rank 10...]
- **7068**: There are no special flags available at this moment, fool.

## Events

### Event 65535

#### Metadata

| Field        | Value   |
|--------------|---------|
| Entrypoint   | 0x0000  |
| Data Size    | 1 bytes |
| Instructions | 1       |

```
      00 01 02 03 04 05 06 07  08 09 0A 0B 0C 0D 0E 0F
      -- -- -- -- -- -- -- --  -- -- -- -- -- -- -- --
0000: 00                                                .               
```

#### Opcodes

```
  0: 0x0000 [0x00] END_REQSTACK()
```

### Event 13

#### Metadata

| Field        | Value     |
|--------------|-----------|
| Entrypoint   | 0x0001    |
| Data Size    | 198 bytes |
| Instructions | 40        |

```
      00 01 02 03 04 05 06 07  08 09 0A 0B 0C 0D 0E 0F
      -- -- -- -- -- -- -- --  -- -- -- -- -- -- -- --
0000:    24 00 80 01 80 01 80  25 02 00 10 01 80 00 36   $......%......6
0010: 00 03 02 10 02 80 24 03  80 01 80 01 80 25 02 00  ......$......%..
0020: 10 01 80 00 2E 00 03 01  10 04 80 01 2E 00 03 01  ................
0030: 10 00 10 01 BA 00 02 00  10 02 80 00 68 00 03 02  ............h...
0040: 10 02 80 24 05 80 01 80  01 80 25 02 00 10 01 80  ...$......%.....
0050: 00 5B 00 03 01 10 04 80  01 65 00 03 01 10 00 10  .[.......e......
0060: 07 01 10 06 80 01 BA 00  02 00 10 07 80 00 9A 00  ................
0070: 03 02 10 02 80 24 08 80  01 80 01 80 25 02 00 10  .....$......%...
0080: 01 80 00 8D 00 03 01 10  04 80 01 97 00 03 01 10  ................
0090: 00 10 07 01 10 09 80 01  BA 00 02 00 10 0A 80 00  ................
00A0: A8 00 01 BC 00 01 BA 00  02 00 10 0B 80 00 BA 00  ................
00B0: 03 01 10 04 80 21 00 01  BA 00 21 00 48 0C 80 23  .....!....!.H..#
00C0: 03 01 10 04 80 21 00                              .....!.         
```

#### Opcodes

```
  0: 0x0001 [0x24] CREATE_DIALOG(message_id=7064*, default_option=0*, option_flags=0*)
    → "Whaddya want, fool! [Mission Rank `2 (with nationality)/Mission Rank 3`5 (with nationality)/Mission Rank 6` (with nationality)/Raise a special flag!/Not much.]"
  1: 0x0008 [0x25] WAIT_DIALOG_SELECT()
  2: 0x0009 [0x02] IF !(Work_Zone[0] == 0*) GOTO 0x0036
  3: 0x0011 [0x03] Work_Zone[2] = 1*
  4: 0x0016 [0x24] CREATE_DIALOG(message_id=7065*, default_option=0*, option_flags=0*)
    → "What rank do you want!? [Forget it!/1-1 offer OK/1-2 offer OK/1-3 offer OK"-1 offer OK"-2 offer OK"-3 offer OK"-3A#1 country offer OK"-3A#2 [Bas/San/San] offer OK"-3A#2 [Win/Win/Bas] offer OK"-3A#2 [Palb./Ghelsba/Ghelsba] boss battle ok!"-3A#2 [Giddeus/Giddeus/Palb.] boss battle ok!]"
  5: 0x001D [0x25] WAIT_DIALOG_SELECT()
  6: 0x001E [0x02] IF !(Work_Zone[0] == 0*) GOTO 0x002E
  7: 0x0026 [0x03] Work_Zone[1] = 1073741824*
  8: 0x002B [0x01] GOTO 0x002E

SUBROUTINE_002E:
  9: 0x002E [0x03] Work_Zone[1] = Work_Zone[0]
 10: 0x0033 [0x01] GOTO 0x00BA
 11: 0x0036 [0x02] IF !(Work_Zone[0] == 1*) GOTO 0x0068
 12: 0x003E [0x03] Work_Zone[2] = 1*
 13: 0x0043 [0x24] CREATE_DIALOG(message_id=7066*, default_option=0*, option_flags=0*)
    → "What rank do you want?? [Forget it!"-1 offer OK"-2 offer OK"-3 offer OK"-3 to the consulate!/4-1 offer OK/4-1 [Davoi/Bed./Oztroja] : Final Magicite/After Jeuno...before hometown event./5-1 offer OK/5-1 Fei'Yin boss ready!/5-2 offer OK/5-2 Zvahl Boss ready!/Rank 6]"
 14: 0x004A [0x25] WAIT_DIALOG_SELECT()
 15: 0x004B [0x02] IF !(Work_Zone[0] == 0*) GOTO 0x005B
 16: 0x0053 [0x03] Work_Zone[1] = 1073741824*
 17: 0x0058 [0x01] GOTO 0x0065
 18: 0x005B [0x03] Work_Zone[1] = Work_Zone[0]
 19: 0x0060 [0x07] Work_Zone[1] += 11*

SUBROUTINE_0065:
 20: 0x0065 [0x01] GOTO 0x00BA
 21: 0x0068 [0x02] IF !(Work_Zone[0] == 2*) GOTO 0x009A
 22: 0x0070 [0x03] Work_Zone[2] = 1*
 23: 0x0075 [0x24] CREATE_DIALOG(message_id=7067*, default_option=0*, option_flags=0*)
    → "What rank do you want? [Forget it./6-1 offer OK./6-2 offer OK./7-1 offer OK./7-2 offer OK./8-1 offer OK./8-2 offer OK./9-1 offer OK./9-2 offer OK./Rank 10...]"
 24: 0x007C [0x25] WAIT_DIALOG_SELECT()
 25: 0x007D [0x02] IF !(Work_Zone[0] == 0*) GOTO 0x008D
 26: 0x0085 [0x03] Work_Zone[1] = 1073741824*
 27: 0x008A [0x01] GOTO 0x0097
 28: 0x008D [0x03] Work_Zone[1] = Work_Zone[0]
 29: 0x0092 [0x07] Work_Zone[1] += 23*

SUBROUTINE_0097:
 30: 0x0097 [0x01] GOTO 0x00BA
 31: 0x009A [0x02] IF !(Work_Zone[0] == 3*) GOTO 0x00A8
 32: 0x00A2 [0x01] GOTO 0x00BC

SUBROUTINE_00BA:
 33: 0x00BA [0x21] END_EVENT
 34: 0x00BB [0x00] END_REQSTACK()

SUBROUTINE_00BC:
 35: 0x00BC [0x48] [System] [7068*]:
    → "There are no special flags available at this moment, fool."
 36: 0x00BF [0x23] WAIT_FOR_DIALOG_INTERACTION
 37: 0x00C0 [0x03] Work_Zone[1] = 1073741824*
 38: 0x00C5 [0x21] END_EVENT
 39: 0x00C6 [0x00] END_REQSTACK()
```

#### Data or dead code:

```
# Dead code (unreachable instructions):
     0x00A5 [0x01] GOTO 0x00BA
     0x00B7 [0x01] GOTO 0x00BA
```
