# 17637400 - Fish selecter

## Common Data

| Field            | Value             |
|------------------|-------------------|
| Zone             | GM_Home (ID: 210) |
| Block Size       | 3732 bytes        |
| Total Events     | 2                 |
| References Count | 434               |

## List of Events

| Event ID              | Entrypoint   |   Size |   Instructions |
|-----------------------|--------------|--------|----------------|
| [65535](#event-65535) | 0x0000       |      1 |              1 |
| [47](#event-47)       | 0x0001       |   1971 |            202 |

## DAT References (imed_data)

|   Index | Hex Value   |   Dec Value |
|---------|-------------|-------------|
|       0 | 0x1C70      |        7280 |
|       1 | 0x0000      |           0 |
|       2 | 0x0001      |           1 |
|       3 | 0x0002      |           2 |
|       4 | 0x0003      |           3 |
|       5 | 0x0004      |           4 |
|       6 | 0x40000000  |  1073741824 |
|       7 | 0xFFFFFFFF  |  4294967295 |
|       8 | 0x0008      |           8 |
|       9 | 0x0009      |           9 |
|      10 | 0x000B      |          11 |
|      11 | 0x1C71      |        7281 |
|      12 | 0x0005      |           5 |
|      13 | 0x0006      |           6 |
|      14 | 0x0007      |           7 |
|      15 | 0x07B8      |        1976 |
|      16 | 0x07B9      |        1977 |
|      17 | 0x07BA      |        1978 |
|      18 | 0x07BB      |        1979 |
|      19 | 0x1C7C      |        7292 |
|      20 | 0x000D      |          13 |
|      21 | 0x0011      |          17 |
|      22 | 0x001A      |          26 |
|      23 | 0x0021      |          33 |
|      24 | 0x0025      |          37 |
|      25 | 0x0028      |          40 |
|      26 | 0x0032      |          50 |
|      27 | 0x0037      |          55 |
|      28 | 0x003A      |          58 |
|      29 | 0x0048      |          72 |
|      30 | 0x004E      |          78 |
|      31 | 0x004F      |          79 |
|      32 | 0x0052      |          82 |
|      33 | 0x0055      |          85 |
|      34 | 0x0057      |          87 |
|      35 | 0x0065      |         101 |
|      36 | 0x0069      |         105 |
|      37 | 0x0074      |         116 |
|      38 | 0x0077      |         119 |
|      39 | 0x007A      |         122 |
|      40 | 0x007B      |         123 |
|      41 | 0x0080      |         128 |
|      42 | 0x0084      |         132 |
|      43 | 0x0088      |         136 |
|      44 | 0x008C      |         140 |
|      45 | 0x0090      |         144 |
|      46 | 0x0093      |         147 |
|      47 | 0x0097      |         151 |
|      48 | 0x0098      |         152 |
|      49 | 0x00A5      |         165 |
|      50 | 0x000E      |          14 |
|      51 | 0x0018      |          24 |
|      52 | 0x0034      |          52 |
|      53 | 0x0070      |         112 |
|      54 | 0x00A1      |         161 |
|      55 | 0x005B      |          91 |
|      56 | 0x0066      |         102 |
|      57 | 0x00A7      |         167 |
|      58 | 0x0012      |          18 |
|      59 | 0x001B      |          27 |
|      60 | 0x0027      |          39 |
|      61 | 0x0035      |          53 |
|      62 | 0x004C      |          76 |
|      63 | 0x0053      |          83 |
|      64 | 0x005C      |          92 |
|      65 | 0x0067      |         103 |
|      66 | 0x006A      |         106 |
|      67 | 0x0075      |         117 |
|      68 | 0x007C      |         124 |
|      69 | 0x0089      |         137 |
|      70 | 0x008D      |         141 |
|      71 | 0x0094      |         148 |
|      72 | 0x0095      |         149 |
|      73 | 0x009B      |         155 |
|      74 | 0x00A3      |         163 |
|      75 | 0x0058      |          88 |
|      76 | 0x001F      |          31 |
|      77 | 0x0076      |         118 |
|      78 | 0x0045      |          69 |
|      79 | 0x0092      |         146 |
|      80 | 0x00AA      |         170 |
|      81 | 0x0043      |          67 |
|      82 | 0x00B1      |         177 |
|      83 | 0x00BF      |         191 |
|      84 | 0x00C5      |         197 |
|      85 | 0x00C7      |         199 |
|      86 | 0x00C9      |         201 |
|      87 | 0x00CC      |         204 |
|      88 | 0x00CD      |         205 |
|      89 | 0x00D0      |         208 |
|      90 | 0x00D5      |         213 |
|      91 | 0x00D7      |         215 |
|      92 | 0x00E8      |         232 |
|      93 | 0x00D9      |         217 |
|      94 | 0x00E9      |         233 |
|      95 | 0x00EC      |         236 |
|      96 | 0x00EF      |         239 |
|      97 | 0x00F0      |         240 |
|      98 | 0x00F1      |         241 |
|      99 | 0x0270      |         624 |
|     100 | 0x115B      |        4443 |
|     101 | 0x1108      |        4360 |
|     102 | 0x1194      |        4500 |
|     103 | 0x1133      |        4403 |
|     104 | 0x11A2      |        4514 |
|     105 | 0x1195      |        4501 |
|     106 | 0x1109      |        4361 |
|     107 | 0x1183      |        4483 |
|     108 | 0x1181      |        4481 |
|     109 | 0x1182      |        4482 |
|     110 | 0x11E4      |        4580 |
|     111 | 0x1180      |        4480 |
|     112 | 0x1121      |        4385 |
|     113 | 0x111F      |        4383 |
|     114 | 0x1184      |        4484 |
|     115 | 0x112F      |        4399 |
|     116 | 0x117F      |        4479 |
|     117 | 0x1185      |        4485 |
|     118 | 0x10C0      |        4288 |
|     119 | 0x1177      |        4471 |
|     120 | 0x1163      |        4451 |
|     121 | 0x117E      |        4478 |
|     122 | 0x116D      |        4461 |
|     123 | 0x10D0      |        4304 |
|     124 | 0x117A      |        4474 |
|     125 | 0x1120      |        4384 |
|     126 | 0x117B      |        4475 |
|     127 | 0x117C      |        4476 |
|     128 | 0x10D1      |        4305 |
|     129 | 0x10DE      |        4318 |
|     130 | 0x10DA      |        4314 |
|     131 | 0x1401      |        5121 |
|     132 | 0x10DD      |        4317 |
|     133 | 0x1400      |        5120 |
|     134 | 0x1408      |        5128 |
|     135 | 0x140B      |        5131 |
|     136 | 0x1407      |        5127 |
|     137 | 0x1547      |        5447 |
|     138 | 0x1549      |        5449 |
|     139 | 0x1410      |        5136 |
|     140 | 0x140C      |        5132 |
|     141 | 0x1415      |        5141 |
|     142 | 0x154A      |        5450 |
|     143 | 0x1548      |        5448 |
|     144 | 0x1550      |        5456 |
|     145 | 0x154C      |        5452 |
|     146 | 0x154B      |        5451 |
|     147 | 0x140F      |        5135 |
|     148 | 0x154E      |        5454 |
|     149 | 0x154F      |        5455 |
|     150 | 0x1551      |        5457 |
|     151 | 0x140D      |        5133 |
|     152 | 0x1414      |        5140 |
|     153 | 0x140E      |        5134 |
|     154 | 0x154D      |        5453 |
|     155 | 0x1561      |        5473 |
|     156 | 0x155A      |        5466 |
|     157 | 0x1563      |        5475 |
|     158 | 0x155B      |        5467 |
|     159 | 0x155C      |        5468 |
|     160 | 0x15A1      |        5537 |
|     161 | 0x15A3      |        5539 |
|     162 | 0x16B9      |        5817 |
|     163 | 0x174B      |        5963 |
|     164 | 0x173E      |        5950 |
|     165 | 0x1749      |        5961 |
|     166 | 0x176A      |        5994 |
|     167 | 0x173D      |        5949 |
|     168 | 0x173C      |        5948 |
|     169 | 0x176C      |        5996 |
|     170 | 0x173F      |        5951 |
|     171 | 0x18C1      |        6337 |
|     172 | 0x176D      |        5997 |
|     173 | 0x18C2      |        6338 |
|     174 | 0x18E8      |        6376 |
|     175 | 0x18E6      |        6374 |
|     176 | 0x18E3      |        6371 |
|     177 | 0x18E7      |        6375 |
|     178 | 0x0016      |          22 |
|     179 | 0x001E      |          30 |
|     180 | 0x0023      |          35 |
|     181 | 0x002A      |          42 |
|     182 | 0x0031      |          49 |
|     183 | 0x0036      |          54 |
|     184 | 0x0039      |          57 |
|     185 | 0x003B      |          59 |
|     186 | 0x0040      |          64 |
|     187 | 0x0046      |          70 |
|     188 | 0x0047      |          71 |
|     189 | 0x004A      |          74 |
|     190 | 0x0059      |          89 |
|     191 | 0x005D      |          93 |
|     192 | 0x005F      |          95 |
|     193 | 0x0060      |          96 |
|     194 | 0x0063      |          99 |
|     195 | 0x0064      |         100 |
|     196 | 0x006D      |         109 |
|     197 | 0x0071      |         113 |
|     198 | 0x0079      |         121 |
|     199 | 0x0082      |         130 |
|     200 | 0x0083      |         131 |
|     201 | 0x008F      |         143 |
|     202 | 0x0096      |         150 |
|     203 | 0x009E      |         158 |
|     204 | 0x0029      |          41 |
|     205 | 0x0010      |          16 |
|     206 | 0x0026      |          38 |
|     207 | 0x0038      |          56 |
|     208 | 0x0044      |          68 |
|     209 | 0x009D      |         157 |
|     210 | 0x00A2      |         162 |
|     211 | 0x007D      |         125 |
|     212 | 0x00A8      |         168 |
|     213 | 0x000F      |          15 |
|     214 | 0x003C      |          60 |
|     215 | 0x0042      |          66 |
|     216 | 0x004B      |          75 |
|     217 | 0x005A      |          90 |
|     218 | 0x0068      |         104 |
|     219 | 0x006E      |         110 |
|     220 | 0x0078      |         120 |
|     221 | 0x007E      |         126 |
|     222 | 0x008A      |         138 |
|     223 | 0x0091      |         145 |
|     224 | 0x009C      |         156 |
|     225 | 0x0054      |          84 |
|     226 | 0x0081      |         129 |
|     227 | 0x00A0      |         160 |
|     228 | 0x0086      |         134 |
|     229 | 0x00A9      |         169 |
|     230 | 0x0085      |         133 |
|     231 | 0x00A4      |         164 |
|     232 | 0x006F      |         111 |
|     233 | 0x008B      |         139 |
|     234 | 0x009F      |         159 |
|     235 | 0x004D      |          77 |
|     236 | 0x00A6      |         166 |
|     237 | 0x0041      |          65 |
|     238 | 0x00B0      |         176 |
|     239 | 0x00C4      |         196 |
|     240 | 0x00C8      |         200 |
|     241 | 0x00CB      |         203 |
|     242 | 0x00CE      |         206 |
|     243 | 0x00D2      |         210 |
|     244 | 0x00D3      |         211 |
|     245 | 0x00D6      |         214 |
|     246 | 0x00D8      |         216 |
|     247 | 0x00DB      |         219 |
|     248 | 0x00DC      |         220 |
|     249 | 0x00DD      |         221 |
|     250 | 0x00DF      |         223 |
|     251 | 0x00E2      |         226 |
|     252 | 0x00E3      |         227 |
|     253 | 0x00E4      |         228 |
|     254 | 0x00E5      |         229 |
|     255 | 0x00E6      |         230 |
|     256 | 0x00E7      |         231 |
|     257 | 0x00EA      |         234 |
|     258 | 0x00ED      |         237 |
|     259 | 0x00EE      |         238 |
|     260 | 0x00F2      |         242 |
|     261 | 0x00F3      |         243 |
|     262 | 0x00F4      |         244 |
|     263 | 0x00F6      |         246 |
|     264 | 0x00F7      |         247 |
|     265 | 0x00FA      |         250 |
|     266 | 0x1178      |        4472 |
|     267 | 0x1131      |        4401 |
|     268 | 0x11A3      |        4515 |
|     269 | 0x10C1      |        4289 |
|     270 | 0x111B      |        4379 |
|     271 | 0x114A      |        4426 |
|     272 | 0x1170      |        4464 |
|     273 | 0x10C2      |        4290 |
|     274 | 0x1175      |        4469 |
|     275 | 0x114C      |        4428 |
|     276 | 0x11B0      |        4528 |
|     277 | 0x1102      |        4354 |
|     278 | 0x114D      |        4429 |
|     279 | 0x1176      |        4470 |
|     280 | 0x10C3      |        4291 |
|     281 | 0x10D2      |        4306 |
|     282 | 0x116E      |        4462 |
|     283 | 0x1132      |        4402 |
|     284 | 0x114B      |        4427 |
|     285 | 0x11E3      |        4579 |
|     286 | 0x1179      |        4473 |
|     287 | 0x10D3      |        4307 |
|     288 | 0x117D      |        4477 |
|     289 | 0x1166      |        4454 |
|     290 | 0x116F      |        4463 |
|     291 | 0x10D4      |        4308 |
|     292 | 0x10D6      |        4310 |
|     293 | 0x1405      |        5125 |
|     294 | 0x1406      |        5126 |
|     295 | 0x10D9      |        4313 |
|     296 | 0x10DB      |        4315 |
|     297 | 0x10DC      |        4316 |
|     298 | 0x10DF      |        4319 |
|     299 | 0x140A      |        5130 |
|     300 | 0x1409      |        5129 |
|     301 | 0x08A8      |        2216 |
|     302 | 0x1557      |        5463 |
|     303 | 0x1555      |        5461 |
|     304 | 0x1552      |        5458 |
|     305 | 0x1558      |        5464 |
|     306 | 0x1553      |        5459 |
|     307 | 0x1413      |        5139 |
|     308 | 0x1554      |        5460 |
|     309 | 0x1412      |        5138 |
|     310 | 0x1556      |        5462 |
|     311 | 0x1411      |        5137 |
|     312 | 0x155D      |        5469 |
|     313 | 0x1562      |        5474 |
|     314 | 0x1546      |        5446 |
|     315 | 0x1560      |        5472 |
|     316 | 0x1564      |        5476 |
|     317 | 0x155E      |        5470 |
|     318 | 0x155F      |        5471 |
|     319 | 0x16B7      |        5815 |
|     320 | 0x16B5      |        5813 |
|     321 | 0x16B6      |        5814 |
|     322 | 0x16B4      |        5812 |
|     323 | 0x10D5      |        4309 |
|     324 | 0x16B8      |        5816 |
|     325 | 0x15A4      |        5540 |
|     326 | 0x15A2      |        5538 |
|     327 | 0x1559      |        5465 |
|     328 | 0x1748      |        5960 |
|     329 | 0x1769      |        5993 |
|     330 | 0x1770      |        6000 |
|     331 | 0x1740      |        5952 |
|     332 | 0x1743      |        5955 |
|     333 | 0x176B      |        5995 |
|     334 | 0x1771      |        6001 |
|     335 | 0x1747      |        5959 |
|     336 | 0x159E      |        5534 |
|     337 | 0x159F      |        5535 |
|     338 | 0x15A0      |        5536 |
|     339 | 0x1800      |        6144 |
|     340 | 0x1801      |        6145 |
|     341 | 0x1802      |        6146 |
|     342 | 0x18BD      |        6333 |
|     343 | 0x18BE      |        6334 |
|     344 | 0x18BF      |        6335 |
|     345 | 0x18C0      |        6336 |
|     346 | 0x2375      |        9077 |
|     347 | 0x18E5      |        6373 |
|     348 | 0x18E4      |        6372 |
|     349 | 0x23BA      |        9146 |
|     350 | 0x1741      |        5953 |
|     351 | 0x1745      |        5957 |
|     352 | 0x1959      |        6489 |
|     353 | 0x2400      |        9216 |
|     354 | 0x19D5      |        6613 |
|     355 | 0x000C      |          12 |
|     356 | 0x0014      |          20 |
|     357 | 0x0015      |          21 |
|     358 | 0x0017      |          23 |
|     359 | 0x001C      |          28 |
|     360 | 0x0022      |          34 |
|     361 | 0x002B      |          43 |
|     362 | 0x002C      |          44 |
|     363 | 0x002D      |          45 |
|     364 | 0x0033      |          51 |
|     365 | 0x003D      |          61 |
|     366 | 0x003E      |          62 |
|     367 | 0x0049      |          73 |
|     368 | 0x0050      |          80 |
|     369 | 0x0056      |          86 |
|     370 | 0x0061      |          97 |
|     371 | 0x006B      |         107 |
|     372 | 0x006C      |         108 |
|     373 | 0x0072      |         114 |
|     374 | 0x0073      |         115 |
|     375 | 0x007F      |         127 |
|     376 | 0x008E      |         142 |
|     377 | 0x0099      |         153 |
|     378 | 0x009A      |         154 |
|     379 | 0x00BE      |         190 |
|     380 | 0x00C1      |         193 |
|     381 | 0x00C2      |         194 |
|     382 | 0x00C3      |         195 |
|     383 | 0x00C6      |         198 |
|     384 | 0x00CA      |         202 |
|     385 | 0x00CF      |         207 |
|     386 | 0x00D1      |         209 |
|     387 | 0x00D4      |         212 |
|     388 | 0x00DE      |         222 |
|     389 | 0x00E0      |         224 |
|     390 | 0x00E1      |         225 |
|     391 | 0x00F5      |         245 |
|     392 | 0x00F9      |         249 |
|     393 | 0x14D1      |        5329 |
|     394 | 0x14D2      |        5330 |
|     395 | 0x0925      |        2341 |
|     396 | 0x0658      |        1624 |
|     397 | 0x02B0      |         688 |
|     398 | 0x37A2      |       14242 |
|     399 | 0x3725      |       14117 |
|     400 | 0x4B53      |       19283 |
|     401 | 0x046F      |        1135 |
|     402 | 0x4B6C      |       19308 |
|     403 | 0x024F      |         591 |
|     404 | 0x04BA      |        1210 |
|     405 | 0x348E      |       13454 |
|     406 | 0x4A12      |       18962 |
|     407 | 0x30EA      |       12522 |
|     408 | 0x3490      |       13456 |
|     409 | 0x410F      |       16655 |
|     410 | 0x301C      |       12316 |
|     411 | 0x4099      |       16537 |
|     412 | 0x0666      |        1638 |
|     413 | 0x40DE      |       16606 |
|     414 | 0x40AE      |       16558 |
|     415 | 0x0377      |         887 |
|     416 | 0x4043      |       16451 |
|     417 | 0x3485      |       13445 |
|     418 | 0x40B6      |       16566 |
|     419 | 0xFFFF      |       65535 |
|     420 | 0x02DB      |         731 |
|     421 | 0x174A      |        5962 |
|     422 | 0x1139      |        4409 |
|     423 | 0x0F7D      |        3965 |
|     424 | 0x0370      |         880 |
|     425 | 0x1742      |        5954 |
|     426 | 0x0F5E      |        3934 |
|     427 | 0x0AC9      |        2761 |
|     428 | 0x0676      |        1654 |
|     429 | 0x174E      |        5966 |
|     430 | 0x4263      |       16995 |
|     431 | 0x167B      |        5755 |
|     432 | 0x23F0      |        9200 |
|     433 | 0x10B2      |        4274 |

## String References

- **7280**: Select Fish Type: [Saltwater./Freshwater./Item./Flag./Treasure Chest./Monster.]
- **7281**: Select one [$0i$0j./$1i$1j./$2$3041793/$3i$3j./$4i$4j./$5i$5j./$6i$6j./$7i$7j./Next.]
- **7292**: Select. [Set./$3: [ON/OFF]./$3: [ON/OFF]./$3: [ON/OFF]./$3: [ON/OFF].]

## Events

### Event 65535

#### Metadata

| Field        | Value   |
|--------------|---------|
| Entrypoint   | 0x0000  |
| Data Size    | 1 bytes |
| Instructions | 1       |

```
      00 01 02 03 04 05 06 07  08 09 0A 0B 0C 0D 0E 0F
      -- -- -- -- -- -- -- --  -- -- -- -- -- -- -- --
0000: 00                                                .               
```

#### Opcodes

```
  0: 0x0000 [0x00] END_REQSTACK()
```

### Event 47

#### Metadata

| Field        | Value      |
|--------------|------------|
| Entrypoint   | 0x0001     |
| Data Size    | 1971 bytes |
| Instructions | 188        |

```
      00 01 02 03 04 05 06 07  08 09 0A 0B 0C 0D 0E 0F
      -- -- -- -- -- -- -- --  -- -- -- -- -- -- -- --
0000:    03 02 00 02 10 24 00  80 01 80 01 80 25 02 00   .....$......%..
0010: 10 01 80 00 1C 00 1A 5B  00 01 59 00 02 00 10 02  .......[..Y.....
0020: 80 00 2A 00 1A 27 01 01  59 00 02 00 10 03 80 00  ..*..'..Y.......
0030: 38 00 1A F3 01 01 59 00  02 00 10 04 80 00 46 00  8.....Y.......F.
0040: 1A 4B 03 01 59 00 02 00  10 05 80 00 54 00 1A 0E  .K..Y.......T...
0050: 04 01 59 00 03 01 10 06  80 21 00 03 00 00 01 80  ..Y......!......
0060: 02 00 00 07 80 01 26 01  03 01 00 00 00 14 01 00  ......&.........
0070: 08 80 9D 00 B4 04 02 10  01 00 9D 00 14 04 00 17  ................
0080: 01 00 0B 01 00 9D 00 B4  04 03 10 01 00 9D 00 14  ................
0090: 04 01 17 01 00 0B 01 00  9D 00 B4 04 04 10 01 00  ................
00A0: 9D 00 14 04 02 17 01 00  0B 01 00 9D 00 B4 04 05  ................
00B0: 10 01 00 9D 00 14 04 03  17 01 00 0B 01 00 9D 00  ................
00C0: B4 04 06 10 01 00 9D 00  14 04 04 17 01 00 0B 01  ................
00D0: 00 9D 00 B4 04 07 10 01  00 9D 00 14 04 05 17 01  ................
00E0: 00 0B 01 00 9D 00 B4 04  08 10 01 00 9D 00 14 04  ................
00F0: 06 17 01 00 0B 01 00 9D  00 B4 04 09 10 01 00 9D  ................
0100: 00 14 04 07 17 01 00 1A  BF 02 02 01 10 01 80 01  ................
0110: 13 01 1B 0B 00 00 02 00  00 09 80 02 23 01 03 00  ............#...
0120: 00 01 80 01 60 00 1B 03  00 00 01 80 02 00 00 07  ....`...........
0130: 80 01 F2 01 03 01 00 00  00 14 01 00 08 80 9D 00  ................
0140: 14 06 02 10 01 00 9D 00  54 05 00 17 01 00 0B 01  ........T.......
0150: 00 9D 00 14 06 03 10 01  00 9D 00 54 05 01 17 01  ...........T....
0160: 00 0B 01 00 9D 00 14 06  04 10 01 00 9D 00 54 05  ..............T.
0170: 02 17 01 00 0B 01 00 9D  00 14 06 05 10 01 00 9D  ................
0180: 00 54 05 03 17 01 00 0B  01 00 9D 00 14 06 06 10  .T..............
0190: 01 00 9D 00 54 05 04 17  01 00 0B 01 00 9D 00 14  ....T...........
01A0: 06 07 10 01 00 9D 00 54  05 05 17 01 00 0B 01 00  .......T........
01B0: 9D 00 14 06 08 10 01 00  9D 00 54 05 06 17 01 00  ..........T.....
01C0: 0B 01 00 9D 00 14 06 09  10 01 00 9D 00 54 05 07  .............T..
01D0: 17 01 00 1A BF 02 02 01  10 01 80 01 DF 01 1B 0B  ................
01E0: 00 00 02 00 00 0A 80 02  EF 01 03 00 00 01 80 01  ................
01F0: 2C 01 1B 03 00 00 01 80  02 00 00 07 80 01 BE 02  ,...............
0200: 03 01 00 00 00 14 01 00  08 80 9D 00 34 07 02 10  ............4...
0210: 01 00 9D 00 D4 06 00 17  01 00 0B 01 00 9D 00 34  ...............4
0220: 07 03 10 01 00 9D 00 D4  06 01 17 01 00 0B 01 00  ................
0230: 9D 00 34 07 04 10 01 00  9D 00 D4 06 02 17 01 00  ..4.............
0240: 0B 01 00 9D 00 34 07 05  10 01 00 9D 00 D4 06 03  .....4..........
0250: 17 01 00 0B 01 00 9D 00  34 07 06 10 01 00 9D 00  ........4.......
0260: D4 06 04 17 01 00 0B 01  00 9D 00 34 07 07 10 01  ...........4....
0270: 00 9D 00 D4 06 05 17 01  00 0B 01 00 9D 00 34 07  ..............4.
0280: 08 10 01 00 9D 00 D4 06  06 17 01 00 0B 01 00 9D  ................
0290: 00 34 07 09 10 01 00 9D  00 D4 06 07 17 01 00 1A  .4..............
02A0: BF 02 02 01 10 01 80 01  AB 02 1B 0B 00 00 02 00  ................
02B0: 00 08 80 02 BB 02 03 00  00 01 80 01 F8 01 1B 06  ................
02C0: 01 10 24 0B 80 01 80 01  80 25 02 00 10 01 80 00  ..$......%......
02D0: DA 02 03 01 10 00 17 01  4A 03 02 00 10 02 80 00  ........J.......
02E0: EA 02 03 01 10 01 17 01  4A 03 02 00 10 03 80 00  ........J.......
02F0: FA 02 03 01 10 02 17 01  4A 03 02 00 10 04 80 00  ........J.......
0300: 0A 03 03 01 10 03 17 01  4A 03 02 00 10 05 80 00  ........J.......
0310: 1A 03 03 01 10 04 17 01  4A 03 02 00 10 0C 80 00  ........J.......
0320: 2A 03 03 01 10 05 17 01  4A 03 02 00 10 0D 80 00  *.......J.......
0330: 3A 03 03 01 10 06 17 01  4A 03 02 00 10 0E 80 00  :.......J.......
0340: 4A 03 03 01 10 07 17 01  4A 03 1B 06 01 10 03 00  J.......J.......
0350: 17 0F 80 03 01 17 10 80  03 02 17 11 80 03 03 17  ................
0360: 12 80 02 02 80 02 80 00  0D 04 3E 02 00 01 80 77  ..........>....w
0370: 03 05 02 10 01 7A 03 06  02 10 3E 02 00 02 80 87  .....z....>.....
0380: 03 05 03 10 01 8A 03 06  03 10 3E 02 00 03 80 97  ..........>.....
0390: 03 05 04 10 01 9A 03 06  04 10 3E 02 00 04 80 A7  ..........>.....
03A0: 03 05 05 10 01 AA 03 06  05 10 24 13 80 01 80 01  ..........$.....
03B0: 80 25 02 00 10 01 80 00  CA 03 03 01 10 02 00 43  .%.............C
03C0: 00 43 01 06 01 10 1B 01  0A 04 02 00 10 02 80 00  .C..............
03D0: DA 03 0F 02 00 02 80 01  0A 04 02 00 10 03 80 00  ................
03E0: EA 03 0F 02 00 03 80 01  0A 04 02 00 10 04 80 00  ................
03F0: FA 03 0F 02 00 05 80 01  0A 04 02 00 10 05 80 00  ................
0400: 0A 04 0F 02 00 08 80 01  0A 04 01 62 03 1B 03 01  ...........b....
0410: 10 05 80 1B 14 80 15 80  16 80 17 80 18 80 19 80  ................
0420: 1A 80 1B 80 1C 80 1D 80  1E 80 1F 80 20 80 21 80  ............ .!.
0430: 22 80 23 80 24 80 25 80  26 80 27 80 28 80 29 80  ".#.$.%.&.'.(.).
0440: 2A 80 2B 80 2C 80 2D 80  2E 80 2F 80 30 80 31 80  *.+.,.-.../.0.1.
0450: 32 80 33 80 34 80 35 80  36 80 37 80 38 80 39 80  2.3.4.5.6.7.8.9.
0460: 3A 80 3B 80 3C 80 3D 80  3E 80 3F 80 40 80 41 80  :.;.<.=.>.?.@.A.
0470: 42 80 43 80 44 80 45 80  46 80 47 80 48 80 49 80  B.C.D.E.F.G.H.I.
0480: 4A 80 4B 80 4C 80 4D 80  4E 80 4F 80 50 80 51 80  J.K.L.M.N.O.P.Q.
0490: 52 80 53 80 54 80 55 80  56 80 57 80 58 80 59 80  R.S.T.U.V.W.X.Y.
04A0: 5A 80 5B 80 5C 80 5D 80  5E 80 5F 80 60 80 61 80  Z.[.\.].^._.`.a.
04B0: 62 80 01 80 63 80 64 80  65 80 66 80 67 80 68 80  b...c.d.e.f.g.h.
04C0: 69 80 6A 80 6B 80 6C 80  6D 80 6E 80 6F 80 70 80  i.j.k.l.m.n.o.p.
04D0: 71 80 72 80 73 80 74 80  75 80 76 80 77 80 78 80  q.r.s.t.u.v.w.x.
04E0: 79 80 7A 80 7B 80 7C 80  7D 80 7E 80 7F 80 80 80  y.z.{.|.}.~.....
04F0: 81 80 82 80 83 80 84 80  85 80 86 80 87 80 88 80  ................
0500: 89 80 8A 80 8B 80 8C 80  8D 80 8E 80 8F 80 90 80  ................
0510: 91 80 92 80 93 80 94 80  95 80 96 80 97 80 98 80  ................
0520: 99 80 9A 80 9B 80 9C 80  9D 80 9E 80 9F 80 A0 80  ................
0530: A1 80 A2 80 A3 80 A4 80  A5 80 A6 80 A7 80 A8 80  ................
0540: A9 80 AA 80 AB 80 AC 80  AD 80 AE 80 AF 80 B0 80  ................
0550: B1 80 01 80 B2 80 B3 80  B4 80 B5 80 B6 80 B7 80  ................
0560: B8 80 B9 80 BA 80 BB 80  BC 80 BD 80 BE 80 BF 80  ................
0570: C0 80 C1 80 C2 80 C3 80  C4 80 C5 80 C6 80 C7 80  ................
0580: C8 80 C9 80 CA 80 CB 80  CC 80 CD 80 CE 80 CF 80  ................
0590: D0 80 D1 80 D2 80 D3 80  D4 80 D5 80 D6 80 D7 80  ................
05A0: D8 80 D9 80 DA 80 DB 80  DC 80 DD 80 DE 80 DF 80  ................
05B0: E0 80 E1 80 E2 80 E3 80  E4 80 E5 80 E6 80 E7 80  ................
05C0: E8 80 E9 80 EA 80 EB 80  EC 80 04 80 ED 80 EE 80  ................
05D0: D6 80 EF 80 F0 80 F1 80  F2 80 F3 80 F4 80 F5 80  ................
05E0: F6 80 F7 80 F8 80 F9 80  FA 80 FB 80 FC 80 FD 80  ................
05F0: FE 80 FF 80 00 81 01 81  02 81 03 81 04 81 05 81  ................
0600: 06 81 07 81 08 81 09 81  01 80 01 80 01 80 01 80  ................
0610: 01 80 01 80 0A 81 0B 81  0C 81 0D 81 0E 81 0F 81  ................
0620: 10 81 11 81 12 81 13 81  14 81 15 81 16 81 17 81  ................
0630: 18 81 19 81 1A 81 1B 81  1C 81 1D 81 1E 81 1F 81  ................
0640: 20 81 21 81 22 81 23 81  24 81 25 81 26 81 27 81   .!.".#.$.%.&.'.
0650: 28 81 29 81 2A 81 2B 81  2C 81 2D 81 90 80 2E 81  (.).*.+.,.-.....
0660: 2F 81 30 81 31 81 32 81  33 81 34 81 35 81 36 81  /.0.1.2.3.4.5.6.
0670: 37 81 38 81 39 81 3A 81  3B 81 3C 81 3D 81 3E 81  7.8.9.:.;.<.=.>.
0680: 3F 81 40 81 41 81 42 81  43 81 44 81 45 81 46 81  ?.@.A.B.C.D.E.F.
0690: 47 81 48 81 49 81 4A 81  4B 81 4C 81 4D 81 4E 81  G.H.I.J.K.L.M.N.
06A0: 4F 81 50 81 51 81 52 81  53 81 54 81 55 81 56 81  O.P.Q.R.S.T.U.V.
06B0: 57 81 58 81 59 81 5A 81  5B 81 5C 81 5D 81 5E 81  W.X.Y.Z.[.\.].^.
06C0: 5F 81 60 81 61 81 62 81  01 80 01 80 01 80 01 80  _.`.a.b.........
06D0: 01 80 01 80 02 80 03 80  05 80 0D 80 63 81 14 80  ............c...
06E0: 64 81 65 81 66 81 67 81  68 81 69 81 6A 81 6B 81  d.e.f.g.h.i.j.k.
06F0: 6C 81 6D 81 6E 81 6F 81  70 81 71 81 72 81 73 81  l.m.n.o.p.q.r.s.
0700: 74 81 75 81 76 81 77 81  78 81 79 81 7A 81 0C 80  t.u.v.w.x.y.z...
0710: 7B 81 7C 81 7D 81 7E 81  7F 81 80 81 81 81 82 81  {.|.}.~.........
0720: 83 81 84 81 85 81 86 81  87 81 88 81 01 80 01 80  ................
0730: 01 80 01 80 89 81 8A 81  D9 80 8B 81 8C 81 63 80  ..............c.
0740: 8D 81 8E 81 8F 81 90 81  91 81 92 81 93 81 94 81  ................
0750: 95 81 96 81 97 81 98 81  99 81 9A 81 9B 81 9C 81  ................
0760: 8C 81 9D 81 9E 81 9F 81  A0 81 A1 81 A2 81 A3 81  ................
0770: A4 81 A5 81 A6 81 A7 81  A8 81 A9 81 AA 81 AB 81  ................
0780: AC 81 AD 81 AE 81 AF 81  B0 81 B1 81 01 80 01 80  ................
0790: 01 80 01 80 01 80 01 80  01 80 01 80 01 80 01 80  ................
07A0: 01 80 01 80 01 80 01 80  01 80 01 80 01 80 01 80  ................
07B0: 01 80 01 80                                       ....            
```

#### Opcodes

```
  0: 0x0001 [0x03] ExtData[1]->WorkLocal[2] = Work_Zone[2]
  1: 0x0006 [0x24] CREATE_DIALOG(message_id=7280*, default_option=0*, option_flags=0*)
    → "Select Fish Type: [Saltwater./Freshwater./Item./Flag./Treasure Chest./Monster.]"
  2: 0x000D [0x25] WAIT_DIALOG_SELECT()
  3: 0x000E [0x02] IF !(Work_Zone[0] == 0*) GOTO 0x001C
  4: 0x0016 [0x1A] CALL_SUBROUTINE(address=0x005B)
  5: 0x0019 [0x01] GOTO 0x0059
  6: 0x001C [0x02] IF !(Work_Zone[0] == 1*) GOTO 0x002A
  7: 0x0024 [0x1A] CALL_SUBROUTINE(address=0x0127)
  8: 0x0027 [0x01] GOTO 0x0059
  9: 0x002A [0x02] IF !(Work_Zone[0] == 2*) GOTO 0x0038
 10: 0x0032 [0x1A] CALL_SUBROUTINE(address=0x01F3)
 11: 0x0035 [0x01] GOTO 0x0059
 12: 0x0038 [0x02] IF !(Work_Zone[0] == 3*) GOTO 0x0046
 13: 0x0040 [0x1A] CALL_SUBROUTINE(address=0x034B)
 14: 0x0043 [0x01] GOTO 0x0059
 15: 0x0046 [0x02] IF !(Work_Zone[0] == 4*) GOTO 0x0054
 16: 0x004E [0x1A] CALL_SUBROUTINE(address=0x040E)
 17: 0x0051 [0x01] GOTO 0x0059
 18: 0x0054 [0x03] Work_Zone[1] = 1073741824*

SUBROUTINE_0059:
 19: 0x0059 [0x21] END_EVENT
 20: 0x005A [0x00] END_REQSTACK()

SUBROUTINE_005B:
 21: 0x005B [0x03] ExtData[1]->WorkLocal[0] = 0*

SUBROUTINE_0060:
 22: 0x0060 [0x02] IF !(ExtData[1]->WorkLocal[0] == 4294967295*) GOTO 0x0126
 23: 0x0068 [0x03] ExtData[1]->WorkLocal[1] = ExtData[1]->WorkLocal[0]
 24: 0x006D [0x14] ExtData[1]->WorkLocal[1] *= 8*
 25: 0x0072 [0x9D] Work_Zone[2] = 0x04B4[ExtData[1]->WorkLocal[1]] // Read WORD
 26: 0x007A [0x9D] Work_Zone_1700[0] = 0x0414[ExtData[1]->WorkLocal[1]] // Read WORD
 27: 0x0082 [0x0B] ExtData[1]->WorkLocal[1]++
 28: 0x0085 [0x9D] Work_Zone[3] = 0x04B4[ExtData[1]->WorkLocal[1]] // Read WORD
 29: 0x008D [0x9D] Work_Zone_1700[1] = 0x0414[ExtData[1]->WorkLocal[1]] // Read WORD
 30: 0x0095 [0x0B] ExtData[1]->WorkLocal[1]++
 31: 0x0098 [0x9D] Work_Zone[4] = 0x04B4[ExtData[1]->WorkLocal[1]] // Read WORD
 32: 0x00A0 [0x9D] Work_Zone_1700[2] = 0x0414[ExtData[1]->WorkLocal[1]] // Read WORD
 33: 0x00A8 [0x0B] ExtData[1]->WorkLocal[1]++
 34: 0x00AB [0x9D] Work_Zone[5] = 0x04B4[ExtData[1]->WorkLocal[1]] // Read WORD
 35: 0x00B3 [0x9D] Work_Zone_1700[3] = 0x0414[ExtData[1]->WorkLocal[1]] // Read WORD
 36: 0x00BB [0x0B] ExtData[1]->WorkLocal[1]++
 37: 0x00BE [0x9D] Work_Zone[6] = 0x04B4[ExtData[1]->WorkLocal[1]] // Read WORD
 38: 0x00C6 [0x9D] Work_Zone_1700[4] = 0x0414[ExtData[1]->WorkLocal[1]] // Read WORD
 39: 0x00CE [0x0B] ExtData[1]->WorkLocal[1]++
 40: 0x00D1 [0x9D] Work_Zone[7] = 0x04B4[ExtData[1]->WorkLocal[1]] // Read WORD
 41: 0x00D9 [0x9D] Work_Zone_1700[5] = 0x0414[ExtData[1]->WorkLocal[1]] // Read WORD
 42: 0x00E1 [0x0B] ExtData[1]->WorkLocal[1]++
 43: 0x00E4 [0x9D] Work_Zone[8] = 0x04B4[ExtData[1]->WorkLocal[1]] // Read WORD
 44: 0x00EC [0x9D] Work_Zone_1700[6] = 0x0414[ExtData[1]->WorkLocal[1]] // Read WORD
 45: 0x00F4 [0x0B] ExtData[1]->WorkLocal[1]++
 46: 0x00F7 [0x9D] Work_Zone[9] = 0x04B4[ExtData[1]->WorkLocal[1]] // Read WORD
 47: 0x00FF [0x9D] Work_Zone_1700[7] = 0x0414[ExtData[1]->WorkLocal[1]] // Read WORD
 48: 0x0107 [0x1A] CALL_SUBROUTINE(address=0x02BF)
 49: 0x010A [0x02] IF !(Work_Zone[1] == 0*) GOTO 0x0113
 50: 0x0112 [0x1B] RETURN
 51: 0x0113 [0x0B] ExtData[1]->WorkLocal[0]++
 52: 0x0116 [0x02] IF !(ExtData[1]->WorkLocal[0] <= 9*) GOTO 0x0123
 53: 0x011E [0x03] ExtData[1]->WorkLocal[0] = 0*
 54: 0x0123 [0x01] GOTO 0x0060
 55: 0x0126 [0x1B] RETURN

SUBROUTINE_0127:
 56: 0x0127 [0x03] ExtData[1]->WorkLocal[0] = 0*

SUBROUTINE_012C:
 57: 0x012C [0x02] IF !(ExtData[1]->WorkLocal[0] == 4294967295*) GOTO 0x01F2
 58: 0x0134 [0x03] ExtData[1]->WorkLocal[1] = ExtData[1]->WorkLocal[0]
 59: 0x0139 [0x14] ExtData[1]->WorkLocal[1] *= 8*
 60: 0x013E [0x9D] Work_Zone[2] = 0x0614[ExtData[1]->WorkLocal[1]] // Read WORD
 61: 0x0146 [0x9D] Work_Zone_1700[0] = 0x0554[ExtData[1]->WorkLocal[1]] // Read WORD
 62: 0x014E [0x0B] ExtData[1]->WorkLocal[1]++
 63: 0x0151 [0x9D] Work_Zone[3] = 0x0614[ExtData[1]->WorkLocal[1]] // Read WORD
 64: 0x0159 [0x9D] Work_Zone_1700[1] = 0x0554[ExtData[1]->WorkLocal[1]] // Read WORD
 65: 0x0161 [0x0B] ExtData[1]->WorkLocal[1]++
 66: 0x0164 [0x9D] Work_Zone[4] = 0x0614[ExtData[1]->WorkLocal[1]] // Read WORD
 67: 0x016C [0x9D] Work_Zone_1700[2] = 0x0554[ExtData[1]->WorkLocal[1]] // Read WORD
 68: 0x0174 [0x0B] ExtData[1]->WorkLocal[1]++
 69: 0x0177 [0x9D] Work_Zone[5] = 0x0614[ExtData[1]->WorkLocal[1]] // Read WORD
 70: 0x017F [0x9D] Work_Zone_1700[3] = 0x0554[ExtData[1]->WorkLocal[1]] // Read WORD
 71: 0x0187 [0x0B] ExtData[1]->WorkLocal[1]++
 72: 0x018A [0x9D] Work_Zone[6] = 0x0614[ExtData[1]->WorkLocal[1]] // Read WORD
 73: 0x0192 [0x9D] Work_Zone_1700[4] = 0x0554[ExtData[1]->WorkLocal[1]] // Read WORD
 74: 0x019A [0x0B] ExtData[1]->WorkLocal[1]++
 75: 0x019D [0x9D] Work_Zone[7] = 0x0614[ExtData[1]->WorkLocal[1]] // Read WORD
 76: 0x01A5 [0x9D] Work_Zone_1700[5] = 0x0554[ExtData[1]->WorkLocal[1]] // Read WORD
 77: 0x01AD [0x0B] ExtData[1]->WorkLocal[1]++
 78: 0x01B0 [0x9D] Work_Zone[8] = 0x0614[ExtData[1]->WorkLocal[1]] // Read WORD
 79: 0x01B8 [0x9D] Work_Zone_1700[6] = 0x0554[ExtData[1]->WorkLocal[1]] // Read WORD
 80: 0x01C0 [0x0B] ExtData[1]->WorkLocal[1]++
 81: 0x01C3 [0x9D] Work_Zone[9] = 0x0614[ExtData[1]->WorkLocal[1]] // Read WORD
 82: 0x01CB [0x9D] Work_Zone_1700[7] = 0x0554[ExtData[1]->WorkLocal[1]] // Read WORD
 83: 0x01D3 [0x1A] CALL_SUBROUTINE(address=0x02BF)
 84: 0x01D6 [0x02] IF !(Work_Zone[1] == 0*) GOTO 0x01DF
 85: 0x01DE [0x1B] RETURN
 86: 0x01DF [0x0B] ExtData[1]->WorkLocal[0]++
 87: 0x01E2 [0x02] IF !(ExtData[1]->WorkLocal[0] <= 11*) GOTO 0x01EF
 88: 0x01EA [0x03] ExtData[1]->WorkLocal[0] = 0*
 89: 0x01EF [0x01] GOTO 0x012C
 90: 0x01F2 [0x1B] RETURN

SUBROUTINE_01F3:
 91: 0x01F3 [0x03] ExtData[1]->WorkLocal[0] = 0*

SUBROUTINE_01F8:
 92: 0x01F8 [0x02] IF !(ExtData[1]->WorkLocal[0] == 4294967295*) GOTO 0x02BE
 93: 0x0200 [0x03] ExtData[1]->WorkLocal[1] = ExtData[1]->WorkLocal[0]
 94: 0x0205 [0x14] ExtData[1]->WorkLocal[1] *= 8*
 95: 0x020A [0x9D] Work_Zone[2] = 0x0734[ExtData[1]->WorkLocal[1]] // Read WORD
 96: 0x0212 [0x9D] Work_Zone_1700[0] = 0x06D4[ExtData[1]->WorkLocal[1]] // Read WORD
 97: 0x021A [0x0B] ExtData[1]->WorkLocal[1]++
 98: 0x021D [0x9D] Work_Zone[3] = 0x0734[ExtData[1]->WorkLocal[1]] // Read WORD
 99: 0x0225 [0x9D] Work_Zone_1700[1] = 0x06D4[ExtData[1]->WorkLocal[1]] // Read WORD
100: 0x022D [0x0B] ExtData[1]->WorkLocal[1]++
101: 0x0230 [0x9D] Work_Zone[4] = 0x0734[ExtData[1]->WorkLocal[1]] // Read WORD
102: 0x0238 [0x9D] Work_Zone_1700[2] = 0x06D4[ExtData[1]->WorkLocal[1]] // Read WORD
103: 0x0240 [0x0B] ExtData[1]->WorkLocal[1]++
104: 0x0243 [0x9D] Work_Zone[5] = 0x0734[ExtData[1]->WorkLocal[1]] // Read WORD
105: 0x024B [0x9D] Work_Zone_1700[3] = 0x06D4[ExtData[1]->WorkLocal[1]] // Read WORD
106: 0x0253 [0x0B] ExtData[1]->WorkLocal[1]++
107: 0x0256 [0x9D] Work_Zone[6] = 0x0734[ExtData[1]->WorkLocal[1]] // Read WORD
108: 0x025E [0x9D] Work_Zone_1700[4] = 0x06D4[ExtData[1]->WorkLocal[1]] // Read WORD
109: 0x0266 [0x0B] ExtData[1]->WorkLocal[1]++
110: 0x0269 [0x9D] Work_Zone[7] = 0x0734[ExtData[1]->WorkLocal[1]] // Read WORD
111: 0x0271 [0x9D] Work_Zone_1700[5] = 0x06D4[ExtData[1]->WorkLocal[1]] // Read WORD
112: 0x0279 [0x0B] ExtData[1]->WorkLocal[1]++
113: 0x027C [0x9D] Work_Zone[8] = 0x0734[ExtData[1]->WorkLocal[1]] // Read WORD
114: 0x0284 [0x9D] Work_Zone_1700[6] = 0x06D4[ExtData[1]->WorkLocal[1]] // Read WORD
115: 0x028C [0x0B] ExtData[1]->WorkLocal[1]++
116: 0x028F [0x9D] Work_Zone[9] = 0x0734[ExtData[1]->WorkLocal[1]] // Read WORD
117: 0x0297 [0x9D] Work_Zone_1700[7] = 0x06D4[ExtData[1]->WorkLocal[1]] // Read WORD
118: 0x029F [0x1A] CALL_SUBROUTINE(address=0x02BF)
119: 0x02A2 [0x02] IF !(Work_Zone[1] == 0*) GOTO 0x02AB
120: 0x02AA [0x1B] RETURN
121: 0x02AB [0x0B] ExtData[1]->WorkLocal[0]++
122: 0x02AE [0x02] IF !(ExtData[1]->WorkLocal[0] <= 8*) GOTO 0x02BB
123: 0x02B6 [0x03] ExtData[1]->WorkLocal[0] = 0*
124: 0x02BB [0x01] GOTO 0x01F8
125: 0x02BE [0x1B] RETURN

SUBROUTINE_02BF:
126: 0x02BF [0x06] Work_Zone[1] = 0
127: 0x02C2 [0x24] CREATE_DIALOG(message_id=7281*, default_option=0*, option_flags=0*)
    → "Select one [$0i$0j./$1i$1j./$2$3041793/$3i$3j./$4i$4j./$5i$5j./$6i$6j./$7i$7j./Next.]"
128: 0x02C9 [0x25] WAIT_DIALOG_SELECT()
129: 0x02CA [0x02] IF !(Work_Zone[0] == 0*) GOTO 0x02DA
130: 0x02D2 [0x03] Work_Zone[1] = Work_Zone_1700[0]
131: 0x02D7 [0x01] GOTO 0x034A
132: 0x02DA [0x02] IF !(Work_Zone[0] == 1*) GOTO 0x02EA
133: 0x02E2 [0x03] Work_Zone[1] = Work_Zone_1700[1]
134: 0x02E7 [0x01] GOTO 0x034A
135: 0x02EA [0x02] IF !(Work_Zone[0] == 2*) GOTO 0x02FA
136: 0x02F2 [0x03] Work_Zone[1] = Work_Zone_1700[2]
137: 0x02F7 [0x01] GOTO 0x034A
138: 0x02FA [0x02] IF !(Work_Zone[0] == 3*) GOTO 0x030A
139: 0x0302 [0x03] Work_Zone[1] = Work_Zone_1700[3]
140: 0x0307 [0x01] GOTO 0x034A
141: 0x030A [0x02] IF !(Work_Zone[0] == 4*) GOTO 0x031A
142: 0x0312 [0x03] Work_Zone[1] = Work_Zone_1700[4]
143: 0x0317 [0x01] GOTO 0x034A
144: 0x031A [0x02] IF !(Work_Zone[0] == 5*) GOTO 0x032A
145: 0x0322 [0x03] Work_Zone[1] = Work_Zone_1700[5]
146: 0x0327 [0x01] GOTO 0x034A
147: 0x032A [0x02] IF !(Work_Zone[0] == 6*) GOTO 0x033A
148: 0x0332 [0x03] Work_Zone[1] = Work_Zone_1700[6]
149: 0x0337 [0x01] GOTO 0x034A
150: 0x033A [0x02] IF !(Work_Zone[0] == 7*) GOTO 0x034A
151: 0x0342 [0x03] Work_Zone[1] = Work_Zone_1700[7]
152: 0x0347 [0x01] GOTO 0x034A

SUBROUTINE_034A:
153: 0x034A [0x1B] RETURN

SUBROUTINE_034B:
154: 0x034B [0x06] Work_Zone[1] = 0
155: 0x034E [0x03] Work_Zone_1700[0] = 1976*
156: 0x0353 [0x03] Work_Zone_1700[1] = 1977*
157: 0x0358 [0x03] Work_Zone_1700[2] = 1978*
158: 0x035D [0x03] Work_Zone_1700[3] = 1979*

SUBROUTINE_0362:
159: 0x0362 [0x02] IF !(1* == 1*) GOTO 0x040D
160: 0x036A [0x3E] IF !(ExtData[1]->WorkLocal[2] bit 0*) GOTO 0x0377
161: 0x0371 [0x05] Work_Zone[2] = 1
162: 0x0374 [0x01] GOTO 0x037A
163: 0x0377 [0x06] Work_Zone[2] = 0

SUBROUTINE_037A:
164: 0x037A [0x3E] IF !(ExtData[1]->WorkLocal[2] bit 1*) GOTO 0x0387
165: 0x0381 [0x05] Work_Zone[3] = 1
166: 0x0384 [0x01] GOTO 0x038A
167: 0x0387 [0x06] Work_Zone[3] = 0

SUBROUTINE_038A:
168: 0x038A [0x3E] IF !(ExtData[1]->WorkLocal[2] bit 2*) GOTO 0x0397
169: 0x0391 [0x05] Work_Zone[4] = 1
170: 0x0394 [0x01] GOTO 0x039A
171: 0x0397 [0x06] Work_Zone[4] = 0

SUBROUTINE_039A:
172: 0x039A [0x3E] IF !(ExtData[1]->WorkLocal[2] bit 3*) GOTO 0x03A7
173: 0x03A1 [0x05] Work_Zone[5] = 1
174: 0x03A4 [0x01] GOTO 0x03AA
175: 0x03A7 [0x06] Work_Zone[5] = 0

SUBROUTINE_03AA:
176: 0x03AA [0x24] CREATE_DIALOG(message_id=7292*, default_option=0*, option_flags=0*)
    → "Select. [Set./$3: [ON/OFF]./$3: [ON/OFF]./$3: [ON/OFF]./$3: [ON/OFF].]"
177: 0x03B1 [0x25] WAIT_DIALOG_SELECT()
178: 0x03B2 [0x02] IF !(Work_Zone[0] == 0*) GOTO 0x03CA
179: 0x03BA [0x03] Work_Zone[1] = ExtData[1]->WorkLocal[2]
180: 0x03BF [0x43] SEND_EVENT_UPDATE: Send pending tag to server (packet 0x005B)
181: 0x03C1 [0x43] SEND_EVENT_UPDATE: Check pending flag (skip if not pending)
182: 0x03C3 [0x06] Work_Zone[1] = 0
183: 0x03C6 [0x1B] RETURN

SUBROUTINE_040A:
184: 0x040A [0x01] GOTO 0x0362
185: 0x040D [0x1B] RETURN

SUBROUTINE_040E:
186: 0x040E [0x03] Work_Zone[1] = 4*
187: 0x0413 [0x1B] RETURN
```

#### Data or dead code:

```
# Data Section: 0x0414 (928 bytes)
     0x0414: 14 80 15 80 16 80 17 80 18 80 19 80 1A 80 1B 80
     0x0424: 1C 80 1D 80 1E 80 1F 80 20 80 21 80 22 80 23 80
     0x0434: 24 80 25 80 26 80 27 80 28 80 29 80 2A 80 2B 80
     0x0444: 2C 80 2D 80 2E 80 2F 80 30 80 31 80 32 80 33 80
     0x0454: 34 80 35 80 36 80 37 80 38 80 39 80 3A 80 3B 80
     0x0464: 3C 80 3D 80 3E 80 3F 80 40 80 41 80 42 80 43 80
     0x0474: 44 80 45 80 46 80 47 80 48 80 49 80 4A 80 4B 80
     0x0484: 4C 80 4D 80 4E 80 4F 80 50 80 51 80 52 80 53 80
     0x0494: 54 80 55 80 56 80 57 80 58 80 59 80 5A 80 5B 80
     0x04A4: 5C 80 5D 80 5E 80 5F 80 60 80 61 80 62 80 01 80
     0x04B4: 63 80 64 80 65 80 66 80 67 80 68 80 69 80 6A 80
     0x04C4: 6B 80 6C 80 6D 80 6E 80 6F 80 70 80 71 80 72 80
     0x04D4: 73 80 74 80 75 80 76 80 77 80 78 80 79 80 7A 80
     0x04E4: 7B 80 7C 80 7D 80 7E 80 7F 80 80 80 81 80 82 80
     0x04F4: 83 80 84 80 85 80 86 80 87 80 88 80 89 80 8A 80
     0x0504: 8B 80 8C 80 8D 80 8E 80 8F 80 90 80 91 80 92 80
     0x0514: 93 80 94 80 95 80 96 80 97 80 98 80 99 80 9A 80
     0x0524: 9B 80 9C 80 9D 80 9E 80 9F 80 A0 80 A1 80 A2 80
     0x0534: A3 80 A4 80 A5 80 A6 80 A7 80 A8 80 A9 80 AA 80
     0x0544: AB 80 AC 80 AD 80 AE 80 AF 80 B0 80 B1 80 01 80
     0x0554: B2 80 B3 80 B4 80 B5 80 B6 80 B7 80 B8 80 B9 80
     0x0564: BA 80 BB 80 BC 80 BD 80 BE 80 BF 80 C0 80 C1 80
     0x0574: C2 80 C3 80 C4 80 C5 80 C6 80 C7 80 C8 80 C9 80
     0x0584: CA 80 CB 80 CC 80 CD 80 CE 80 CF 80 D0 80 D1 80
     0x0594: D2 80 D3 80 D4 80 D5 80 D6 80 D7 80 D8 80 D9 80
     0x05A4: DA 80 DB 80 DC 80 DD 80 DE 80 DF 80 E0 80 E1 80
     0x05B4: E2 80 E3 80 E4 80 E5 80 E6 80 E7 80 E8 80 E9 80
     0x05C4: EA 80 EB 80 EC 80 04 80 ED 80 EE 80 D6 80 EF 80
     0x05D4: F0 80 F1 80 F2 80 F3 80 F4 80 F5 80 F6 80 F7 80
     0x05E4: F8 80 F9 80 FA 80 FB 80 FC 80 FD 80 FE 80 FF 80
     0x05F4: 00 81 01 81 02 81 03 81 04 81 05 81 06 81 07 81
     0x0604: 08 81 09 81 01 80 01 80 01 80 01 80 01 80 01 80
     0x0614: 0A 81 0B 81 0C 81 0D 81 0E 81 0F 81 10 81 11 81
     0x0624: 12 81 13 81 14 81 15 81 16 81 17 81 18 81 19 81
     0x0634: 1A 81 1B 81 1C 81 1D 81 1E 81 1F 81 20 81 21 81
     0x0644: 22 81 23 81 24 81 25 81 26 81 27 81 28 81 29 81
     0x0654: 2A 81 2B 81 2C 81 2D 81 90 80 2E 81 2F 81 30 81
     0x0664: 31 81 32 81 33 81 34 81 35 81 36 81 37 81 38 81
     0x0674: 39 81 3A 81 3B 81 3C 81 3D 81 3E 81 3F 81 40 81
     0x0684: 41 81 42 81 43 81 44 81 45 81 46 81 47 81 48 81
     0x0694: 49 81 4A 81 4B 81 4C 81 4D 81 4E 81 4F 81 50 81
     0x06A4: 51 81 52 81 53 81 54 81 55 81 56 81 57 81 58 81
     0x06B4: 59 81 5A 81 5B 81 5C 81 5D 81 5E 81 5F 81 60 81
     0x06C4: 61 81 62 81 01 80 01 80 01 80 01 80 01 80 01 80
     0x06D4: 02 80 03 80 05 80 0D 80 63 81 14 80 64 81 65 81
     0x06E4: 66 81 67 81 68 81 69 81 6A 81 6B 81 6C 81 6D 81
     0x06F4: 6E 81 6F 81 70 81 71 81 72 81 73 81 74 81 75 81
     0x0704: 76 81 77 81 78 81 79 81 7A 81 0C 80 7B 81 7C 81
     0x0714: 7D 81 7E 81 7F 81 80 81 81 81 82 81 83 81 84 81
     0x0724: 85 81 86 81 87 81 88 81 01 80 01 80 01 80 01 80
     0x0734: 89 81 8A 81 D9 80 8B 81 8C 81 63 80 8D 81 8E 81
     0x0744: 8F 81 90 81 91 81 92 81 93 81 94 81 95 81 96 81
     0x0754: 97 81 98 81 99 81 9A 81 9B 81 9C 81 8C 81 9D 81
     0x0764: 9E 81 9F 81 A0 81 A1 81 A2 81 A3 81 A4 81 A5 81
     0x0774: A6 81 A7 81 A8 81 A9 81 AA 81 AB 81 AC 81 AD 81
     0x0784: AE 81 AF 81 B0 81 B1 81 01 80 01 80 01 80 01 80
     0x0794: 01 80 01 80 01 80 01 80 01 80 01 80 01 80 01 80
     0x07A4: 01 80 01 80 01 80 01 80 01 80 01 80 01 80 01 80
# Dead code (unreachable instructions):
     0x03C7 [0x01] GOTO 0x040A
```
