# 17637601 - skirm_aug

## Common Data

| Field            | Value             |
|------------------|-------------------|
| Zone             | GM_Home (ID: 210) |
| Block Size       | 164 bytes         |
| Total Events     | 3                 |
| References Count | 11                |

## List of Events

| Event ID              | Entrypoint   |   Size |   Instructions |
|-----------------------|--------------|--------|----------------|
| [65535](#event-65535) | 0x0000       |      1 |              1 |
| [178](#event-178)     | 0x0001       |     45 |              9 |
| [179](#event-179)     | 0x002E       |     45 |              9 |

## DAT References (imed_data)

|   Index | Hex Value   |   Dec Value |
|---------|-------------|-------------|
|       0 | 0x0001      |           1 |
|       1 | 0x0004      |           4 |
|       2 | 0x0000      |           0 |
|       3 | 0x000F      |          15 |
|       4 | 0x0010      |          16 |
|       5 | 0x0012      |          18 |
|       6 | 0x0002      |           2 |
|       7 | 0x0006      |           6 |
|       8 | 0x0007      |           7 |
|       9 | 0x0008      |           8 |
|      10 | 0x001F      |          31 |

## Events

### Event 65535

#### Metadata

| Field        | Value   |
|--------------|---------|
| Entrypoint   | 0x0000  |
| Data Size    | 1 bytes |
| Instructions | 1       |

```
      00 01 02 03 04 05 06 07  08 09 0A 0B 0C 0D 0E 0F
      -- -- -- -- -- -- -- --  -- -- -- -- -- -- -- --
0000: 00                                                .               
```

#### Opcodes

```
  0: 0x0000 [0x00] END_REQSTACK()
```

### Event 178

#### Metadata

| Field        | Value    |
|--------------|----------|
| Entrypoint   | 0x0001   |
| Data Size    | 45 bytes |
| Instructions | 9        |

```
      00 01 02 03 04 05 06 07  08 09 0A 0B 0C 0D 0E 0F
      -- -- -- -- -- -- -- --  -- -- -- -- -- -- -- --
0000:    71 12 00 80 01 80 71  13 00 00 71 12 00 80 00   q.....q...q....
0010: 80 71 13 01 00 03 01 10  02 80 40 02 80 03 80 01  .q........@.....
0020: 10 00 00 40 04 80 05 80  01 10 01 00 21 00        ...@........!.  
```

#### Opcodes

```
  0: 0x0001 [0x71] USER_INPUT_HANDLER: Open numerical input with params (work=[1*, 4*])
  1: 0x0007 [0x71] USER_INPUT_HANDLER: Process numerical input B (work=ExtData[1]->WorkLocal[0])
  2: 0x000B [0x71] USER_INPUT_HANDLER: Open numerical input with params (work=[1*, 1*])
  3: 0x0011 [0x71] USER_INPUT_HANDLER: Process numerical input B (work=ExtData[1]->WorkLocal[1])
  4: 0x0015 [0x03] Work_Zone[1] = 0*
  5: 0x001A [0x40] SET_BIT_WORK_RANGE(start_bit=0*, end_bit=15*, target=Work_Zone[1], source=ExtData[1]->WorkLocal[0])
  6: 0x0023 [0x40] SET_BIT_WORK_RANGE(start_bit=16*, end_bit=18*, target=Work_Zone[1], source=ExtData[1]->WorkLocal[1])
  7: 0x002C [0x21] END_EVENT
  8: 0x002D [0x00] END_REQSTACK()
```

### Event 179

#### Metadata

| Field        | Value    |
|--------------|----------|
| Entrypoint   | 0x002E   |
| Data Size    | 45 bytes |
| Instructions | 9        |

```
      00 01 02 03 04 05 06 07  08 09 0A 0B 0C 0D 0E 0F
      -- -- -- -- -- -- -- --  -- -- -- -- -- -- -- --
0020:                                            71 12                q.
0030: 00 80 06 80 71 13 00 00  71 12 00 80 07 80 71 13  ....q...q.....q.
0040: 01 00 03 01 10 02 80 40  02 80 08 80 01 10 00 00  .......@........
0050: 40 09 80 0A 80 01 10 01  00 21 00                 @........!.     
```

#### Opcodes

```
  0: 0x002E [0x71] USER_INPUT_HANDLER: Open numerical input with params (work=[1*, 2*])
  1: 0x0034 [0x71] USER_INPUT_HANDLER: Process numerical input B (work=ExtData[1]->WorkLocal[0])
  2: 0x0038 [0x71] USER_INPUT_HANDLER: Open numerical input with params (work=[1*, 6*])
  3: 0x003E [0x71] USER_INPUT_HANDLER: Process numerical input B (work=ExtData[1]->WorkLocal[1])
  4: 0x0042 [0x03] Work_Zone[1] = 0*
  5: 0x0047 [0x40] SET_BIT_WORK_RANGE(start_bit=0*, end_bit=7*, target=Work_Zone[1], source=ExtData[1]->WorkLocal[0])
  6: 0x0050 [0x40] SET_BIT_WORK_RANGE(start_bit=8*, end_bit=31*, target=Work_Zone[1], source=ExtData[1]->WorkLocal[1])
  7: 0x0059 [0x21] END_EVENT
  8: 0x005A [0x00] END_REQSTACK()
```
