# 17637607 - ticket

## Common Data

| Field            | Value             |
|------------------|-------------------|
| Zone             | GM_Home (ID: 210) |
| Block Size       | 376 bytes         |
| Total Events     | 2                 |
| References Count | 15                |

## List of Events

| Event ID              | Entrypoint   |   Size |   Instructions |
|-----------------------|--------------|--------|----------------|
| [65535](#event-65535) | 0x0000       |      1 |              1 |
| [200](#event-200)     | 0x0001       |    289 |             58 |

## DAT References (imed_data)

|   Index | Hex Value   |   Dec Value |
|---------|-------------|-------------|
|       0 | 0x14B4      |        5300 |
|       1 | 0x14B6      |        5302 |
|       2 | 0x0000      |           0 |
|       3 | 0x2420      |        9248 |
|       4 | 0x0001      |           1 |
|       5 | 0x0002      |           2 |
|       6 | 0x0003      |           3 |
|       7 | 0x2421      |        9249 |
|       8 | 0x0004      |           4 |
|       9 | 0x0005      |           5 |
|      10 | 0x0006      |           6 |
|      11 | 0x3FFF      |       16383 |
|      12 | 0x2422      |        9250 |
|      13 | 0x0007      |           7 |
|      14 | 0x0013      |          19 |

## String References

- **9248**: Ticket Type? [New $28./Old $28./New $29./Old $29.]
- **9249**: Level Restriction? [None./60./50./40."0."0./10.]
- **9250**: No. of days: ($30-$31)

## Events

### Event 65535

#### Metadata

| Field        | Value   |
|--------------|---------|
| Entrypoint   | 0x0000  |
| Data Size    | 1 bytes |
| Instructions | 1       |

```
      00 01 02 03 04 05 06 07  08 09 0A 0B 0C 0D 0E 0F
      -- -- -- -- -- -- -- --  -- -- -- -- -- -- -- --
0000: 00                                                .               
```

#### Opcodes

```
  0: 0x0000 [0x00] END_REQSTACK()
```

### Event 200

#### Metadata

| Field        | Value     |
|--------------|-----------|
| Entrypoint   | 0x0001    |
| Data Size    | 289 bytes |
| Instructions | 58        |

```
      00 01 02 03 04 05 06 07  08 09 0A 0B 0C 0D 0E 0F
      -- -- -- -- -- -- -- --  -- -- -- -- -- -- -- --
0000:    03 14 17 00 80 03 15  17 01 80 03 01 10 02 80   ...............
0010: 24 03 80 02 80 02 80 25  02 00 10 02 80 00 2B 00  $......%......+.
0020: 03 05 00 02 80 05 06 00  01 64 00 02 00 10 04 80  .........d......
0030: 00 3E 00 03 05 00 04 80  06 06 00 01 64 00 02 00  .>..........d...
0040: 10 05 80 00 51 00 03 05  00 05 80 05 06 00 01 64  ....Q..........d
0050: 00 02 00 10 06 80 00 64  00 03 05 00 06 80 06 06  .......d........
0060: 00 01 64 00 24 07 80 02  80 02 80 25 02 00 10 02  ..d.$......%....
0070: 80 00 7C 00 03 04 00 02  80 01 DC 00 02 00 10 04  ..|.............
0080: 80 00 8C 00 03 04 00 04  80 01 DC 00 02 00 10 05  ................
0090: 80 00 9C 00 03 04 00 05  80 01 DC 00 02 00 10 06  ................
00A0: 80 00 AC 00 03 04 00 06  80 01 DC 00 02 00 10 08  ................
00B0: 80 00 BC 00 03 04 00 08  80 01 DC 00 02 00 10 09  ................
00C0: 80 00 CC 00 03 04 00 09  80 01 DC 00 02 00 10 0A  ................
00D0: 80 00 DC 00 03 04 00 0A  80 01 DC 00 03 16 17 02  ................
00E0: 80 03 17 17 0B 80 48 0C  80 71 12 04 80 09 80 71  ......H..q.....q
00F0: 13 03 00 02 03 00 16 17  03 FE 00 01 DC 00 02 03  ................
0100: 00 17 17 02 09 01 01 DC  00 03 01 10 05 00 40 08  ..............@.
0110: 80 0A 80 01 10 04 00 40  0D 80 0E 80 01 10 03 00  .......@........
0120: 21 00                                             !.              
```

#### Opcodes

```
  0: 0x0001 [0x03] Work_Zone_1700[20] = 5300*
  1: 0x0006 [0x03] Work_Zone_1700[21] = 5302*
  2: 0x000B [0x03] Work_Zone[1] = 0*
  3: 0x0010 [0x24] CREATE_DIALOG(message_id=9248*, default_option=0*, option_flags=0*)
    → "Ticket Type? [New $28./Old $28./New $29./Old $29.]"
  4: 0x0017 [0x25] WAIT_DIALOG_SELECT()
  5: 0x0018 [0x02] IF !(Work_Zone[0] == 0*) GOTO 0x002B
  6: 0x0020 [0x03] ExtData[1]->WorkLocal[5] = 0*
  7: 0x0025 [0x05] ExtData[1]->WorkLocal[6] = 1
  8: 0x0028 [0x01] GOTO 0x0064
  9: 0x002B [0x02] IF !(Work_Zone[0] == 1*) GOTO 0x003E
 10: 0x0033 [0x03] ExtData[1]->WorkLocal[5] = 1*
 11: 0x0038 [0x06] ExtData[1]->WorkLocal[6] = 0
 12: 0x003B [0x01] GOTO 0x0064
 13: 0x003E [0x02] IF !(Work_Zone[0] == 2*) GOTO 0x0051
 14: 0x0046 [0x03] ExtData[1]->WorkLocal[5] = 2*
 15: 0x004B [0x05] ExtData[1]->WorkLocal[6] = 1
 16: 0x004E [0x01] GOTO 0x0064
 17: 0x0051 [0x02] IF !(Work_Zone[0] == 3*) GOTO 0x0064
 18: 0x0059 [0x03] ExtData[1]->WorkLocal[5] = 3*
 19: 0x005E [0x06] ExtData[1]->WorkLocal[6] = 0
 20: 0x0061 [0x01] GOTO 0x0064

SUBROUTINE_0064:
 21: 0x0064 [0x24] CREATE_DIALOG(message_id=9249*, default_option=0*, option_flags=0*)
    → "Level Restriction? [None./60./50./40."0."0./10.]"
 22: 0x006B [0x25] WAIT_DIALOG_SELECT()
 23: 0x006C [0x02] IF !(Work_Zone[0] == 0*) GOTO 0x007C
 24: 0x0074 [0x03] ExtData[1]->WorkLocal[4] = 0*
 25: 0x0079 [0x01] GOTO 0x00DC
 26: 0x007C [0x02] IF !(Work_Zone[0] == 1*) GOTO 0x008C
 27: 0x0084 [0x03] ExtData[1]->WorkLocal[4] = 1*
 28: 0x0089 [0x01] GOTO 0x00DC
 29: 0x008C [0x02] IF !(Work_Zone[0] == 2*) GOTO 0x009C
 30: 0x0094 [0x03] ExtData[1]->WorkLocal[4] = 2*
 31: 0x0099 [0x01] GOTO 0x00DC
 32: 0x009C [0x02] IF !(Work_Zone[0] == 3*) GOTO 0x00AC
 33: 0x00A4 [0x03] ExtData[1]->WorkLocal[4] = 3*
 34: 0x00A9 [0x01] GOTO 0x00DC
 35: 0x00AC [0x02] IF !(Work_Zone[0] == 4*) GOTO 0x00BC
 36: 0x00B4 [0x03] ExtData[1]->WorkLocal[4] = 4*
 37: 0x00B9 [0x01] GOTO 0x00DC
 38: 0x00BC [0x02] IF !(Work_Zone[0] == 5*) GOTO 0x00CC
 39: 0x00C4 [0x03] ExtData[1]->WorkLocal[4] = 5*
 40: 0x00C9 [0x01] GOTO 0x00DC
 41: 0x00CC [0x02] IF !(Work_Zone[0] == 6*) GOTO 0x00DC
 42: 0x00D4 [0x03] ExtData[1]->WorkLocal[4] = 6*
 43: 0x00D9 [0x01] GOTO 0x00DC

SUBROUTINE_00DC:
 44: 0x00DC [0x03] Work_Zone_1700[22] = 0*
 45: 0x00E1 [0x03] Work_Zone_1700[23] = 16383*
 46: 0x00E6 [0x48] [System] [9250*]:
    → "No. of days: ($30-$31)"
 47: 0x00E9 [0x71] USER_INPUT_HANDLER: Open numerical input with params (work=[1*, 5*])
 48: 0x00EF [0x71] USER_INPUT_HANDLER: Process numerical input B (work=ExtData[1]->WorkLocal[3])
 49: 0x00F3 [0x02] IF !(ExtData[1]->WorkLocal[3] >= Work_Zone_1700[22]) GOTO 0x00FE
 50: 0x00FB [0x01] GOTO 0x00DC
 51: 0x00FE [0x02] IF !(ExtData[1]->WorkLocal[3] <= Work_Zone_1700[23]) GOTO 0x0109
 52: 0x0106 [0x01] GOTO 0x00DC
 53: 0x0109 [0x03] Work_Zone[1] = ExtData[1]->WorkLocal[5]
 54: 0x010E [0x40] SET_BIT_WORK_RANGE(start_bit=4*, end_bit=6*, target=Work_Zone[1], source=ExtData[1]->WorkLocal[4])
 55: 0x0117 [0x40] SET_BIT_WORK_RANGE(start_bit=7*, end_bit=19*, target=Work_Zone[1], source=ExtData[1]->WorkLocal[3])
 56: 0x0120 [0x21] END_EVENT
 57: 0x0121 [0x00] END_REQSTACK()
```
