# 17637596 - Embryo

## Common Data

| Field            | Value             |
|------------------|-------------------|
| Zone             | GM_Home (ID: 210) |
| Block Size       | 9408 bytes        |
| Total Events     | 2                 |
| References Count | 368               |

## List of Events

| Event ID              | Entrypoint   |   Size |   Instructions |
|-----------------------|--------------|--------|----------------|
| [65535](#event-65535) | 0x0000       |      1 |              1 |
| [205](#event-205)     | 0x0001       |   7909 |           1532 |

## DAT References (imed_data)

|   Index | Hex Value   |   Dec Value |
|---------|-------------|-------------|
|       0 | 0xFFFFFFFF  |  4294967295 |
|       1 | 0x0000      |           0 |
|       2 | 0x242D      |        9261 |
|       3 | 0x0001      |           1 |
|       4 | 0x0002      |           2 |
|       5 | 0x242E      |        9262 |
|       6 | 0x006E      |         110 |
|       7 | 0x0003      |           3 |
|       8 | 0x0070      |         112 |
|       9 | 0x0004      |           4 |
|      10 | 0x0072      |         114 |
|      11 | 0x0005      |           5 |
|      12 | 0x0074      |         116 |
|      13 | 0x0006      |           6 |
|      14 | 0x0076      |         118 |
|      15 | 0x0007      |           7 |
|      16 | 0x40000000  |  1073741824 |
|      17 | 0x242F      |        9263 |
|      18 | 0x0078      |         120 |
|      19 | 0x007A      |         122 |
|      20 | 0x007C      |         124 |
|      21 | 0x007D      |         125 |
|      22 | 0x007E      |         126 |
|      23 | 0x0080      |         128 |
|      24 | 0x0008      |           8 |
|      25 | 0x2430      |        9264 |
|      26 | 0x0082      |         130 |
|      27 | 0x0084      |         132 |
|      28 | 0x0086      |         134 |
|      29 | 0x0088      |         136 |
|      30 | 0x0089      |         137 |
|      31 | 0x008A      |         138 |
|      32 | 0x2431      |        9265 |
|      33 | 0x008C      |         140 |
|      34 | 0x008E      |         142 |
|      35 | 0x0090      |         144 |
|      36 | 0x0092      |         146 |
|      37 | 0x2432      |        9266 |
|      38 | 0x0094      |         148 |
|      39 | 0x0096      |         150 |
|      40 | 0x0098      |         152 |
|      41 | 0x009A      |         154 |
|      42 | 0x009C      |         156 |
|      43 | 0x009E      |         158 |
|      44 | 0x2433      |        9267 |
|      45 | 0x00A0      |         160 |
|      46 | 0x00A2      |         162 |
|      47 | 0x00A4      |         164 |
|      48 | 0x00A6      |         166 |
|      49 | 0x00A8      |         168 |
|      50 | 0x2434      |        9268 |
|      51 | 0x00AA      |         170 |
|      52 | 0x00AC      |         172 |
|      53 | 0x00AE      |         174 |
|      54 | 0x00B0      |         176 |
|      55 | 0x00B2      |         178 |
|      56 | 0x0009      |           9 |
|      57 | 0x2435      |        9269 |
|      58 | 0x00B4      |         180 |
|      59 | 0x00B6      |         182 |
|      60 | 0x00B8      |         184 |
|      61 | 0x00BA      |         186 |
|      62 | 0x00BC      |         188 |
|      63 | 0x00BE      |         190 |
|      64 | 0x00C0      |         192 |
|      65 | 0x000A      |          10 |
|      66 | 0x2436      |        9270 |
|      67 | 0x00C2      |         194 |
|      68 | 0x00C4      |         196 |
|      69 | 0x00C6      |         198 |
|      70 | 0x00C8      |         200 |
|      71 | 0x00CA      |         202 |
|      72 | 0x000B      |          11 |
|      73 | 0x2437      |        9271 |
|      74 | 0x00CC      |         204 |
|      75 | 0x00CE      |         206 |
|      76 | 0x00D0      |         208 |
|      77 | 0x00D2      |         210 |
|      78 | 0x000C      |          12 |
|      79 | 0x2438      |        9272 |
|      80 | 0x00D4      |         212 |
|      81 | 0x00D6      |         214 |
|      82 | 0x00D8      |         216 |
|      83 | 0x00DA      |         218 |
|      84 | 0x00DC      |         220 |
|      85 | 0x00DE      |         222 |
|      86 | 0x00E0      |         224 |
|      87 | 0x00E2      |         226 |
|      88 | 0x00E4      |         228 |
|      89 | 0x000D      |          13 |
|      90 | 0x2439      |        9273 |
|      91 | 0x00E6      |         230 |
|      92 | 0x00E8      |         232 |
|      93 | 0x00EA      |         234 |
|      94 | 0x00EC      |         236 |
|      95 | 0x00EE      |         238 |
|      96 | 0x00F0      |         240 |
|      97 | 0x000E      |          14 |
|      98 | 0x243A      |        9274 |
|      99 | 0x00F2      |         242 |
|     100 | 0x00F4      |         244 |
|     101 | 0x00F6      |         246 |
|     102 | 0x00F8      |         248 |
|     103 | 0x00FA      |         250 |
|     104 | 0x00FC      |         252 |
|     105 | 0x00FE      |         254 |
|     106 | 0x0100      |         256 |
|     107 | 0x000F      |          15 |
|     108 | 0x243B      |        9275 |
|     109 | 0x0102      |         258 |
|     110 | 0x0104      |         260 |
|     111 | 0x0106      |         262 |
|     112 | 0x0108      |         264 |
|     113 | 0x010A      |         266 |
|     114 | 0x010C      |         268 |
|     115 | 0x010E      |         270 |
|     116 | 0x0010      |          16 |
|     117 | 0x243C      |        9276 |
|     118 | 0x0110      |         272 |
|     119 | 0x0112      |         274 |
|     120 | 0x0114      |         276 |
|     121 | 0x0116      |         278 |
|     122 | 0x0118      |         280 |
|     123 | 0x011A      |         282 |
|     124 | 0x011C      |         284 |
|     125 | 0x011E      |         286 |
|     126 | 0x0011      |          17 |
|     127 | 0x243D      |        9277 |
|     128 | 0x0120      |         288 |
|     129 | 0x0122      |         290 |
|     130 | 0x0124      |         292 |
|     131 | 0x0126      |         294 |
|     132 | 0x0128      |         296 |
|     133 | 0x012A      |         298 |
|     134 | 0x0012      |          18 |
|     135 | 0x243E      |        9278 |
|     136 | 0x012C      |         300 |
|     137 | 0x012E      |         302 |
|     138 | 0x0130      |         304 |
|     139 | 0x0132      |         306 |
|     140 | 0x0134      |         308 |
|     141 | 0x0136      |         310 |
|     142 | 0x0013      |          19 |
|     143 | 0x243F      |        9279 |
|     144 | 0x0138      |         312 |
|     145 | 0x013A      |         314 |
|     146 | 0x013C      |         316 |
|     147 | 0x013E      |         318 |
|     148 | 0x0140      |         320 |
|     149 | 0x0142      |         322 |
|     150 | 0x0144      |         324 |
|     151 | 0x0146      |         326 |
|     152 | 0x0014      |          20 |
|     153 | 0x2440      |        9280 |
|     154 | 0x0148      |         328 |
|     155 | 0x014A      |         330 |
|     156 | 0x014C      |         332 |
|     157 | 0x014E      |         334 |
|     158 | 0x0150      |         336 |
|     159 | 0x0152      |         338 |
|     160 | 0x0015      |          21 |
|     161 | 0x2441      |        9281 |
|     162 | 0x0154      |         340 |
|     163 | 0x0156      |         342 |
|     164 | 0x0158      |         344 |
|     165 | 0x015A      |         346 |
|     166 | 0x015C      |         348 |
|     167 | 0x015E      |         350 |
|     168 | 0x0160      |         352 |
|     169 | 0x0016      |          22 |
|     170 | 0x2442      |        9282 |
|     171 | 0x0162      |         354 |
|     172 | 0x0164      |         356 |
|     173 | 0x0166      |         358 |
|     174 | 0x0168      |         360 |
|     175 | 0x016A      |         362 |
|     176 | 0x0017      |          23 |
|     177 | 0x2443      |        9283 |
|     178 | 0x016C      |         364 |
|     179 | 0x016E      |         366 |
|     180 | 0x0170      |         368 |
|     181 | 0x0172      |         370 |
|     182 | 0x0174      |         372 |
|     183 | 0x0176      |         374 |
|     184 | 0x0178      |         376 |
|     185 | 0x017A      |         378 |
|     186 | 0x017C      |         380 |
|     187 | 0x0018      |          24 |
|     188 | 0x2444      |        9284 |
|     189 | 0x017E      |         382 |
|     190 | 0x0180      |         384 |
|     191 | 0x0182      |         386 |
|     192 | 0x0184      |         388 |
|     193 | 0x0186      |         390 |
|     194 | 0x0188      |         392 |
|     195 | 0x0019      |          25 |
|     196 | 0x2445      |        9285 |
|     197 | 0x018A      |         394 |
|     198 | 0x018C      |         396 |
|     199 | 0x018E      |         398 |
|     200 | 0x0190      |         400 |
|     201 | 0x0192      |         402 |
|     202 | 0x0194      |         404 |
|     203 | 0x0196      |         406 |
|     204 | 0x0198      |         408 |
|     205 | 0x019A      |         410 |
|     206 | 0x019C      |         412 |
|     207 | 0x019E      |         414 |
|     208 | 0x001A      |          26 |
|     209 | 0x2446      |        9286 |
|     210 | 0x01A0      |         416 |
|     211 | 0x01A2      |         418 |
|     212 | 0x01A4      |         420 |
|     213 | 0x01A6      |         422 |
|     214 | 0x01A8      |         424 |
|     215 | 0x01AA      |         426 |
|     216 | 0x01AC      |         428 |
|     217 | 0x01AE      |         430 |
|     218 | 0x001B      |          27 |
|     219 | 0x2447      |        9287 |
|     220 | 0x01B0      |         432 |
|     221 | 0x01B2      |         434 |
|     222 | 0x01B4      |         436 |
|     223 | 0x01B6      |         438 |
|     224 | 0x01B8      |         440 |
|     225 | 0x001C      |          28 |
|     226 | 0x2448      |        9288 |
|     227 | 0x01BA      |         442 |
|     228 | 0x01BC      |         444 |
|     229 | 0x01BE      |         446 |
|     230 | 0x01C0      |         448 |
|     231 | 0x01C2      |         450 |
|     232 | 0x01C4      |         452 |
|     233 | 0x001D      |          29 |
|     234 | 0x2449      |        9289 |
|     235 | 0x01C6      |         454 |
|     236 | 0x01C8      |         456 |
|     237 | 0x01CA      |         458 |
|     238 | 0x01CC      |         460 |
|     239 | 0x001E      |          30 |
|     240 | 0x244A      |        9290 |
|     241 | 0x247D      |        9341 |
|     242 | 0x001F      |          31 |
|     243 | 0x244B      |        9291 |
|     244 | 0x01CE      |         462 |
|     245 | 0x01D0      |         464 |
|     246 | 0x01D2      |         466 |
|     247 | 0x01D4      |         468 |
|     248 | 0x0020      |          32 |
|     249 | 0x244C      |        9292 |
|     250 | 0x01D6      |         470 |
|     251 | 0x01D8      |         472 |
|     252 | 0x01DA      |         474 |
|     253 | 0x01DC      |         476 |
|     254 | 0x01DE      |         478 |
|     255 | 0x01E0      |         480 |
|     256 | 0x01E2      |         482 |
|     257 | 0x01E4      |         484 |
|     258 | 0x0021      |          33 |
|     259 | 0x244D      |        9293 |
|     260 | 0x01E6      |         486 |
|     261 | 0x01E8      |         488 |
|     262 | 0x01EA      |         490 |
|     263 | 0x01EC      |         492 |
|     264 | 0x01EE      |         494 |
|     265 | 0x0022      |          34 |
|     266 | 0x244E      |        9294 |
|     267 | 0x01F0      |         496 |
|     268 | 0x01F2      |         498 |
|     269 | 0x01F4      |         500 |
|     270 | 0x01F6      |         502 |
|     271 | 0x01F8      |         504 |
|     272 | 0x01FA      |         506 |
|     273 | 0x01FC      |         508 |
|     274 | 0x0023      |          35 |
|     275 | 0x244F      |        9295 |
|     276 | 0x01FE      |         510 |
|     277 | 0x0200      |         512 |
|     278 | 0x0202      |         514 |
|     279 | 0x0204      |         516 |
|     280 | 0x0024      |          36 |
|     281 | 0x2450      |        9296 |
|     282 | 0x0206      |         518 |
|     283 | 0x0208      |         520 |
|     284 | 0x020A      |         522 |
|     285 | 0x020C      |         524 |
|     286 | 0x020E      |         526 |
|     287 | 0x0210      |         528 |
|     288 | 0x0212      |         530 |
|     289 | 0x0025      |          37 |
|     290 | 0x2451      |        9297 |
|     291 | 0x0214      |         532 |
|     292 | 0x0216      |         534 |
|     293 | 0x0218      |         536 |
|     294 | 0x021A      |         538 |
|     295 | 0x021C      |         540 |
|     296 | 0x021E      |         542 |
|     297 | 0x0026      |          38 |
|     298 | 0x2452      |        9298 |
|     299 | 0x0220      |         544 |
|     300 | 0x0222      |         546 |
|     301 | 0x0224      |         548 |
|     302 | 0x0226      |         550 |
|     303 | 0x0228      |         552 |
|     304 | 0x0027      |          39 |
|     305 | 0x2453      |        9299 |
|     306 | 0x022A      |         554 |
|     307 | 0x022C      |         556 |
|     308 | 0x022E      |         558 |
|     309 | 0x0230      |         560 |
|     310 | 0x0232      |         562 |
|     311 | 0x0028      |          40 |
|     312 | 0x2454      |        9300 |
|     313 | 0x0234      |         564 |
|     314 | 0x0236      |         566 |
|     315 | 0x0238      |         568 |
|     316 | 0x023A      |         570 |
|     317 | 0x023C      |         572 |
|     318 | 0x023E      |         574 |
|     319 | 0x0029      |          41 |
|     320 | 0x2455      |        9301 |
|     321 | 0x0240      |         576 |
|     322 | 0x0242      |         578 |
|     323 | 0x0244      |         580 |
|     324 | 0x002A      |          42 |
|     325 | 0x2456      |        9302 |
|     326 | 0x0246      |         582 |
|     327 | 0x0248      |         584 |
|     328 | 0x024A      |         586 |
|     329 | 0x024C      |         588 |
|     330 | 0x024E      |         590 |
|     331 | 0x0250      |         592 |
|     332 | 0x002B      |          43 |
|     333 | 0x2457      |        9303 |
|     334 | 0x0252      |         594 |
|     335 | 0x0254      |         596 |
|     336 | 0x0256      |         598 |
|     337 | 0x0258      |         600 |
|     338 | 0x025A      |         602 |
|     339 | 0x002C      |          44 |
|     340 | 0x2458      |        9304 |
|     341 | 0x025C      |         604 |
|     342 | 0x025E      |         606 |
|     343 | 0x0260      |         608 |
|     344 | 0x0262      |         610 |
|     345 | 0x0264      |         612 |
|     346 | 0x002D      |          45 |
|     347 | 0x2459      |        9305 |
|     348 | 0x0266      |         614 |
|     349 | 0x0268      |         616 |
|     350 | 0x026A      |         618 |
|     351 | 0x026C      |         620 |
|     352 | 0x026E      |         622 |
|     353 | 0x0270      |         624 |
|     354 | 0x002E      |          46 |
|     355 | 0x245A      |        9306 |
|     356 | 0x0272      |         626 |
|     357 | 0x0274      |         628 |
|     358 | 0x0276      |         630 |
|     359 | 0x0278      |         632 |
|     360 | 0x027A      |         634 |
|     361 | 0x027C      |         636 |
|     362 | 0x027E      |         638 |
|     363 | 0x0280      |         640 |
|     364 | 0x0282      |         642 |
|     365 | 0x002F      |          47 |
|     366 | 0x245B      |        9307 |
|     367 | 0x2488      |        9352 |

## String References

- **9261**: Select a quest for changing flags. [Nothing./Reset all falgs./1-1-1: The Gloom Phantom's Approach./1-1-2: The Brygid Cup./1-2-3: The Destiny Destroyers."-1-1: Kupipi's Dilemma."-1-2: The Cardian's Duty."-2-3: Zhuu Buxu's Gambit."-2-4: Star Onion Fortune."-2-5: The Doll Whisperer."-1-1: Dancing Prince."-1-2: Claidie's Concern."-2-3: Curilla Unleashed."-3-4: Run, Excenmille, Run!."-3-5: Of Knights and Orcs./4-1-1: Best Served Cold./4-1-2: Cornelia's Call to Action./4-2-3: Naja the Abitious./4-2-4: Raubahn the Blue./5-1-1: Ghatsad's Quandary./5-1-2: The Revelation./5-1-3: Tateeya's Worries./5-2-4: The Seagull Phratrie./5-2-5: The Sea Sage./6-1-1: Sky, Moon, Incantrix./6-1-2: Nii's Last Stand./6-2-3: Dance of the Tengu./7-1-1: Raebrimm's Rebirth./7-1-2: Uran-Mafran of the Maelstrom./7-2-3: Koru-Moru's Hypothesis./Flashback Event (Optional)./7-2-4: Altenia Burns Brights./8-1-1: Maat on the Rampage./8-2-2: Not Just a Pretty Face./8-2-3: Delkfutt the Great./9-1-1: Oshasha Violation./9-1-2: Phantasmic Heroes./9-2-3: Skokkr Undrborn's Temptation./9-3-4: The Prime Weapons./10-1-1: To Movalpolos!/10-1-2: Magh Bihu on the Prowl./10-1-3: 101 Dazbogs./10-2-4: Kipdrix the Faithful./10-2-5: Duke Alloces's Decision./10-3-6: Odin's Eye./11-1-1: Moglesse Oblige./11-2-2:@The Voracious Beast./Epilogue (voluntary).]
- **9262**: Set The Gloom Phantom flags. [Make no changes./0: Opening Ready (pre-accepting)./110: Galkan child asked for aid (accepted)./112: Met Cornelia in the mines./114: Found child in the mines./116: Defeated black goblin./118: Filled Gumbah's request (completed)./Back.]
- **9263**: Set The Brygid Cup flags. [Make no changes./118: Filled Gumbah's request (pre-accepting)./120: Brygid asked for help (accepted)./122: Head about the cosplay event./124: Decided NPC to cosplay as./125: Cosplay assessment complete./126: Participated in the cosplay event./128: Filled Brrgid's request (completed)./Back.]
- **9264**: Set The Destiny Destroyers flags. [Make no changes./128:Filled Brygid's request (pre-accepting)./130: Asked to help Naji (accepted)./132: Found three beastmen in the caves./134: Defeated three beastmen./136: Three beastmen fled./137: Inventory full./138: Filled Gumbah's request (completed)./Back.]
- **9265**: Set Kupipi's Dilemma flags. [Make no changes./138: Filled Gumbah's request (pre-accepting)./140: Asked to find the truth (accepted)./142: Asked for last meal./144: Asked to report to Shantotto./146: Filled Kupipi's request (completed)./Back.]
- **9266**: Set The Cardians' Duty flags. [Make no changes./146: Filled Kupipi's request (pre-accepting)./148: Asked to invetigate the evil (accepted)./150: Asked to search for the cardian./152: Found the cardian./154: Defeated the Yagudo./156: Talked with the cardian./158: Filled Shantotto's request (completed)./Back.]
- **9267**: Set Zhuu Buxu's Gambit flags. [Make no changes./158: Filled Shantotto's request (pre-accepting)./160: Asked to deliver summons (accepted)./162: Asked to find doll./164: Defeated the Yagudo./166: Talked with Zhuu Buxu./168: Reported to Tosuka-Porika (completed)./Back.]
- **9268**: Set Star Onion Fortune flags. [Make no changes./168: Reported to Tosuka-Porika (pre-accepting)./170: Asked to deliver strange doll (accepted)./172: Asked to decode letter (un-decoded)./172: Asked to decode letter (decoded)./174: Asked to find perfect egg (no egg)./174: Asked to find perfect egg (have egg)./176: Inventory full./178: Filled Star Onion Brigade's request (completed)./Back.]
- **9269**: Set The Doll Whisperer flags. [Make no changes./178: Filled Star Onion Brigade's request (pre-accepting)./180: Told to head to exchange location (accepted)./182: Found Honoi-Gomoi./184: Defeated the guards./186: Took back the doll./188: Asked to return doll./190: Inventory full./192: Returned doll (complete)./Back.]
- **9270**: Set Dancing Prince flags. [Make no changes./192: Returned doll (pre-accepting)./194: Asked to help Rahal (accepted)./196: Asked to receive report./198: Asked to search for the map./198: Asked to search for the map + victorious in battle."00: Asked to report to Rahal."02: Reported to Rahal (complete)./Back.]
- **9271**: Set Claidie's Concern flags. [Make no changes."02: Reported to Rahal (pre-accepting)."04: Asked to check the medicine (accepted)."06: Asked to find the flower (not yet found)."06: Asked to find the flower (have the flower)."08: Delivered the flower."10: Reported to Halver (complete)./Back.]
- **9272**: Set Curilla Unleashed flags. [Make no changes."10: Reported to Halver (pre-accepting)."12: Asked to deliver letter (accepted)."14: Defeated the smilodon."16: Handed over the letter."18: Asked to pursuade Trion."20: Told to go to the prison."22: Defeated Trion."24: Trion made his decision."26: Inventory full."28: Heard Curilla's story (complete)./Back.]
- **9273**: Set Run, Excenmille, Run flags. [Make no changes."28: Heard Curilla's story (pre-accepting)."30: Talked to Trion (accepted)."32: Asked to investigate."34: Defeated Orc minions."36: Talked with Excenmille."38: Inventory full."40: Met Orc boss (complete)./Back.]
- **9274**: Set Of Knight and Orcs flags. [Make no changes."40: Met Orc boss (pre-accepting)."42: Asked to search for knights (accepted)."44: Traded item (LD rescued)."46: Rescued Altennia."48: World Eater Egg broken."50: Defeated Orc boss."52: Asked to report to Trion."54: Inventory full."56: Reported to Trion (complete)./Back.]
- **9275**: Set Best Served Cold flags. [Make no changes."56: Reported to Trion (pre-accepting)."58: Heard Gumbah's story (accepted)."60: Met with Raebrimm."62: Saw the Quadav."64: Quadav attacked."66: Defeated Quadav."68: Inventory full."70: Ayame arrived (complete)./Back.]
- **9276**: Set Cornelia's Call to Action flags. [Make no changes."70: Ayame arrived (pre-accepting)."72: Asked to investigate the Quadav (accepted)."74: Met with Uran-Mafran."76: Met with the Destiry Destroyers."78: Defeated the scorpion."80: Inventory full 1."82: Talked with Uran-Mafran."84: Inventory full 2."86: Reported to Cornelia (complete)./Back.]
- **9277**: Set Naja the Amibitious flags. [Make no changes."86: Reported to Cornelia (pre-accepting)."88: Asked to invetigate monsters (accepted)."90: Found black soulflayer."92: Defeated black soulflayer."94: Talked with Raubahn."96: Inventory full."98: Reported to Naja (complete)./Back.]
- **9278**: Set Raubahn the Blue flags. [Make no changes."98: Reported to Naja (pre-accepting)."00: Asked to capture monsters (accepted)."02: Found soulflayer."04: Defeated soulflayer."06: Talked with Amnaf."08: Inventory full (removed due to rewards changing)."10: Reported to Nashmeira (complete)./Back.]
- **9279**: Set Ghatsad's Quandary flags. [Make no changes."10: Reported to Nashmeia (pre-accepting)."12: Asked to investigate Farak (accepted)."14: Asked to check Hazhalm."16: Talked to Uran-Mafran."18: Found the Destiny Destroyers in Caedarva."20: Defeated the Destiny Destroyers."22: Asked to hand over the embyro."24: Learned about Farak."26: Reported to Ghatsad (complete)./Back.]
- **9280**: Set The Revelation flags. [Make no changes."26: Reported to Ghatsad (pre-accepting)."28: Asked to investigate Aydeewa. (accepted)."30: Met up in Aydeewa."32: Found the marolith."34: Defeated the marolith."36: Talked with the qiqirn."38: Completed survey of Aydeewa (complete)./Back.]
- **9281**: Set Tateeya's Worries flags. [Make no changes."38: Completed survey of Aydeewa (pre-accepting)."40: Asked to talked to Ghatsad (accepted)."42: Asked to accompany."44: Encountered Mamool Ja."46: Defeated Mamool Ja (unused)."48: Talked to Raubahn."50: Inventory full."52: Reported to Nashmeira (complete)./Back.]
- **9282**: Set The Seagull Phratrie flags. [Make no changes."52: Reported to Nashmeita (pre-accepting)."54: Asked to investigate (accepted)."54: Asked to investigate (traded fish)."56: Met the Lamiae."58: Defeated the Lamiae."60: Received message from the elder."62: Reported to Qultada (complete)./Back.]
- **9283**: Set The Sea Sage flags. [Make no changes."62: Reported to Qultada (pre-accepting)."64: Asked to investigate the forest (accepted)."66: Heard the Qiqirn's hint."68: Received the bead."70: Asked to repair the bead."72: Heard about the undersea ruins (not in possession of breathing device)."72: Heard about the undersea ruins (in possession of breathing device)."74: Repaired the bead."76: Reported to Aznahf."78: Inventory full."80: Delivered item to elder (complete)./Back.]
- **9284**: Set Sky, Moon, Incantrix flags. [Make no changes."80: Delivered item to elder (pre-accepting)."82: Asked to visit the goblin (accepted)."84: Heard about the dying person."86: Asked to find medicine ingredients."88: Traded ingredients."90: The young Yagudo has been revived."92: Reported to Reikuu (complete)./Back.]
- **9285**: Set Nii's Last Stand flags. [Make no changes."92: Reported to Reikuu (pre-accepting)."94: Asked to visit goblin again (accepted)."96: Asked to deliver message to Gessho."98: Asked to deliver mesage to goblin./400: Asked to engage in training./402: Prepared for training./404: Training failed: PC too strong./406: Training failed: PC too weak./408: Training failed: Other./410: Training successful./412: Inventory full./414: Young Yagudo's training complete (complete)./Back.]
- **9286**: Set Dance of the Tengu flags. [Make no changes./414: Young Yagudo's training complete (pre-accepting)./416: Reikuu is disappointed (accepted)./418: Preparing to fight Zhuu Buxu./420: Defeated Zhuu Buxu./422: Preparing to fight Reikuu./424: Defeated Reikuu./426: Peace between Yagudo brokered./428: Inventory full./430: Thanked by Reikuu (complete)./Back.]
- **9287**: Set Raebrimm's Rebirth flags. [Make no changes./430: Thanked by Reikuu (pre-accepting)./432: Asked to investigate by Raebrimm (accepted)./434: Asked to search for Galka statue./436: Asked to rescue the Destiny Destroyers./438: Vanquished the monster in quicksand cave./440: Spoke with the Destiny Destroyers (complete)./Back.]
- **9288**: Set Uran-Mafran of the Maelstrom flags. [Make no changes./440: Spoke with the Destiny Destroyers (pre-accepting)./442: Asked to investigate gate to the abyss (accepted)./444: Encountered the Tarutaru./446: Defeated the Tarutaru./448: Gate to the Abyss was sealed./450: Inventory full./452: Reported to Gumbah (complete)./Back.]
- **9289**: Set Koru-Moru's Hypothesis flags. [Make no changes./452: Reported to Gumbah (pre-accepting)./454: Asked to procure materials for magicked doll (accepted)./456: Traded materials./458: Inventory full./460: Talked with the three leaders (complete)./Back.]
- **9290**: Set flashback event flags. [None./Honoi-Gomoi./Adventurer (Palborough Mines entrance)./Ghatsad./Dancing Wolf./Rahi Fohlatti) (Rabao Mithra)./Set all flags./Back.]
- **9291**: Set Altennia Burns Bright flags. [Make no changes./460: Spoke with the three leaders (pre-accepting)./462: Asked to deliver missive (accepted)./464: Asked to find legendazry ore (don't have)./464: Asked to find legendary ore (have)./466: Inventory full./468: Spoke with Rahal (complete)./Back.]
- **9292**: Set Maat on the Rampage flags. [Make no changes./468: Spoke with Rahal (pre-accepting)./470: Asked to deliver belongings (accepted)./472: Received the map./474: Formed a duo with Mumor./476: Encountered Maat./478: Defeated Maat./480: Chasing after Maat./482: Inventory full./484: Heard about the brothers (complete)./Back.]
- **9293**: Set Not Just a Pretty Face flags. [Make no changes./484: Heard about the brothers (pre-accepting)./486: Asked to accompany to Qufim (accepted)./488: Met the giants./490: Defeated the giants./492: Listened to the giants./494: Reported to Mac (complete)./Back.]
- **9294**: Set Delkfutt the Geat flags. [Make no changes./494: Reported to Mac (pre-accepting)./496: Talked to the brothers (pre-accepting)./498: Asked to monitor the egg./500: Met the beastmen forces./502: Defeated the beastmen forces./504: Heard about Delkfutt./506: Inventory full./508: Reported to Valaineral (complete)./Back.]
- **9295**: Set Oshasha Violation flags. [Make no changes./508: Reported to Valaineral (pre-accepting)./510: Asked to find the book (accepted)./512: Defeated the Velkk./514: Spoke to Schultz./516: Reported to Oshasha (complete)./Back.]
- **9296**: Set Phantasmic Heroes flags. [Make no changes./516: Reported to Oshasha (pre-accepting)./518: Asked to aid Oshasha (accepted)./520: Helped with the trial./522: Saw Oshasha's memories./524: Defeated the Shadow Lord./526: Spoke to Oshasha./528: Inventory full./530: Heard about the maelstrom mage (complete)./Back.]
- **9297**: Set Skokkr Undrborn's Temptation flags. [Make no changes./530: Heard about the maelstrom mage (pre-accepting)./532: Asked to find the demon (accepted)./534: Asked to find the world eater egg./536: Spoke to Zemeleen./538: Spoke to Skokkr./540: Asked to deal with the Destiny Destroyers./542: Spoke to the Destiny Destroyers (complete)./Back.]
- **9298**: Set The Prime Weapons flags. [Make no changes./542: Spoke to the Destiny Destroyers (pre-accepting)./544: Asked to collect ash (accepted)./546: Traded the ash./548: Asked to heard to the experiment site./550: An explosion happened./552: Asked to find the spirit (complete/no orb)./552: Asked to find the spirit (complete/have orb)./Back.]
- **9299**: Set To Movalpolos! flags. [Make no changes./552: Asked to find the spirit (pre-accepting/have orb)./554: Asked to make contact (accepted)./556: Spoke with the contact./558: The fake Gloom Phantom arrived./560: Defeated the fake Glood Phantom. (unused due to BF)/562: Spoke with Jabbos (complete)./Back.]
- **9300**: Set Magh Bihu on the Prowl flags. [Make no changes./562: Spoke with Jabbos (pre-accepting)./564: Asked to find the acidic mulch (accepted)./566: Traded the acidic mulch (intended for those who d/c'd)./568: Met Magh Bihu./570: Found the hint./572: Traded the watermelon (intended for those who d/c'd)./574: Spoke with Magh Bihu (complete)./Back.]
- **9301**: Set 101 Dazbogs flags. [Make no changes./574: Spoke with Magh Bihu (pre-accepting)./576: Asked to find the worm (accepted)./578: Traded the worm (intended for those who d/c'd)./580: Spoke with Dazbog (complete)./Back.]
- **9302**: Set Kipdrix the Faithful flags. [Make no changes./580: Spoke with Dazbog (pre-accepting)./582: Asked to head to the quarry (accepted)./584: Spoke with fake Gloom Phantom./586: Told to rendexvous at Zvahl./588: Met the betrayer./590: Defeated the Betrayer (unused)./592: Chaos and Uran-Mafran appeared (complete)./Back.]
- **9303**: Set Duke Alloces's Decision flags. [Make no changes./592: Chaos and Uran-Mafran appeared (pre-accepting)./594: Rendevouzed with Gloom Phantom (accepted)./596: Spoke with Uran-Mafran./598: Defeated fake Chaos./600: Fled Castle Zvahl./602: Spoke with Duke Alloces (complete)./Back.]
- **9304**: Set Odin's Eye flags. [Make no changes./602: Spoke with Duke Alloces (pre-accepting)./604: Asked to collect the things./606: Collected the things./608: Asked for a favor./610: Inventory full./612: Spoke with Gumbah (complete)./Back.]
- **9305**: Set Moglesse Oblige flags. [Make no changes./612: Spoke with Gumbah (pre-accepting)./614: Spoke with the moogle (accepted)./616: Spoke with Kupofried./618: Heard about the crazed beastman./620: Defeated the crazed beastman./622: Inventory full//624: Spoke with Duke Alloces (complete)./Back.]
- **9306**: Set The Voracious Beast flags. [Make no changes./624: Spoke with Duke Alloces (pre-accepting)./626: Meeting concluded (accepted)./628: Spoke with Garazu-Horeizu./630: Defeated Garazu-Horeizu./632: Spoke with Chaos./634: Defeated Chaos./636: Destroyed Chaos's egg./638: Celebrated everyone's survival (reward pending)./638: Celebrated everyone's survival (reward received)./640: Inventory full./642: The Voracious Resurgence complete (reward pending)./642: The Voracious Resurgence complete (reward received)./Back.]
- **9307**: Set Epilogue flags. [Make no changes./Gloom Phantom (inventory full)./Gloom Phantom (reward received)./Magh Bihu (inventory full)./Magh bihu (reward received)./Dazbog (inventory full)./Dazbog (reward received)./Gumbah (inventory full)./Gumbah (reward received)./Trion (inventory full)./Trion (reward received)./Shantotto (inventory full)./Shantotto (reward received)./Dancing Wolf./Uran-Mafran./Set all epilogue flags./Back.]
- **9341**: If you wish to set this flag, please set your progress to Koru-Moru's Hypothesis complete (460) or later.
- **9352**: * To set flags, make sure to set the progression flag for TVR to 642.

## Events

### Event 65535

#### Metadata

| Field        | Value   |
|--------------|---------|
| Entrypoint   | 0x0000  |
| Data Size    | 1 bytes |
| Instructions | 1       |

```
      00 01 02 03 04 05 06 07  08 09 0A 0B 0C 0D 0E 0F
      -- -- -- -- -- -- -- --  -- -- -- -- -- -- -- --
0000: 00                                                .               
```

#### Opcodes

```
  0: 0x0000 [0x00] END_REQSTACK()
```

### Event 205

#### Metadata

| Field        | Value      |
|--------------|------------|
| Entrypoint   | 0x0001     |
| Data Size    | 7909 bytes |
| Instructions | 1532       |

```
      00 01 02 03 04 05 06 07  08 09 0A 0B 0C 0D 0E 0F
      -- -- -- -- -- -- -- --  -- -- -- -- -- -- -- --
0000:    03 00 00 02 10 03 01  10 00 80 03 01 00 01 80   ...............
0010: 02 01 10 01 80 03 E4 1E  24 02 80 01 00 01 80 25  ........$......%
0020: 02 00 10 03 80 00 30 00  03 01 10 01 80 01 E1 1E  ......0.........
0030: 02 00 10 04 80 00 B8 00  03 01 00 00 10 24 05 80  .............$..
0040: 01 80 01 80 25 02 00 10  03 80 00 55 00 03 01 10  ....%......U....
0050: 01 80 01 B5 00 02 00 10  04 80 00 65 00 03 01 10  ...........e....
0060: 06 80 01 B5 00 02 00 10  07 80 00 75 00 03 01 10  ...........u....
0070: 08 80 01 B5 00 02 00 10  09 80 00 85 00 03 01 10  ................
0080: 0A 80 01 B5 00 02 00 10  0B 80 00 95 00 03 01 10  ................
0090: 0C 80 01 B5 00 02 00 10  0D 80 00 A5 00 03 01 10  ................
00A0: 0E 80 01 B5 00 02 00 10  0F 80 00 B0 00 01 B5 00  ................
00B0: 03 01 10 10 80 01 E1 1E  02 00 10 07 80 00 50 01  ..............P.
00C0: 03 01 00 00 10 24 11 80  01 80 01 80 25 02 00 10  .....$......%...
00D0: 03 80 00 DD 00 03 01 10  0E 80 01 4D 01 02 00 10  ...........M....
00E0: 04 80 00 ED 00 03 01 10  12 80 01 4D 01 02 00 10  ...........M....
00F0: 07 80 00 FD 00 03 01 10  13 80 01 4D 01 02 00 10  ...........M....
0100: 09 80 00 0D 01 03 01 10  14 80 01 4D 01 02 00 10  ...........M....
0110: 0B 80 00 1D 01 03 01 10  15 80 01 4D 01 02 00 10  ...........M....
0120: 0D 80 00 2D 01 03 01 10  16 80 01 4D 01 02 00 10  ...-.......M....
0130: 0F 80 00 3D 01 03 01 10  17 80 01 4D 01 02 00 10  ...=.......M....
0140: 18 80 00 48 01 01 4D 01  03 01 10 10 80 01 E1 1E  ...H..M.........
0150: 02 00 10 09 80 00 E8 01  03 01 00 00 10 24 19 80  .............$..
0160: 01 80 01 80 25 02 00 10  03 80 00 75 01 03 01 10  ....%......u....
0170: 17 80 01 E5 01 02 00 10  04 80 00 85 01 03 01 10  ................
0180: 1A 80 01 E5 01 02 00 10  07 80 00 95 01 03 01 10  ................
0190: 1B 80 01 E5 01 02 00 10  09 80 00 A5 01 03 01 10  ................
01A0: 1C 80 01 E5 01 02 00 10  0B 80 00 B5 01 03 01 10  ................
01B0: 1D 80 01 E5 01 02 00 10  0D 80 00 C5 01 03 01 10  ................
01C0: 1E 80 01 E5 01 02 00 10  0F 80 00 D5 01 03 01 10  ................
01D0: 1F 80 01 E5 01 02 00 10  18 80 00 E0 01 01 E5 01  ................
01E0: 03 01 10 10 80 01 E1 1E  02 00 10 0B 80 00 60 02  ..............`.
01F0: 03 01 00 00 10 24 20 80  01 80 01 80 25 02 00 10  .....$ .....%...
0200: 03 80 00 0D 02 03 01 10  1F 80 01 5D 02 02 00 10  ...........]....
0210: 04 80 00 1D 02 03 01 10  21 80 01 5D 02 02 00 10  ........!..]....
0220: 07 80 00 2D 02 03 01 10  22 80 01 5D 02 02 00 10  ...-...."..]....
0230: 09 80 00 3D 02 03 01 10  23 80 01 5D 02 02 00 10  ...=....#..]....
0240: 0B 80 00 4D 02 03 01 10  24 80 01 5D 02 02 00 10  ...M....$..]....
0250: 0D 80 00 58 02 01 5D 02  03 01 10 10 80 01 E1 1E  ...X..].........
0260: 02 00 10 0D 80 00 F8 02  03 01 00 00 10 24 25 80  .............$%.
0270: 01 80 01 80 25 02 00 10  03 80 00 85 02 03 01 10  ....%...........
0280: 24 80 01 F5 02 02 00 10  04 80 00 95 02 03 01 10  $...............
0290: 26 80 01 F5 02 02 00 10  07 80 00 A5 02 03 01 10  &...............
02A0: 27 80 01 F5 02 02 00 10  09 80 00 B5 02 03 01 10  '...............
02B0: 28 80 01 F5 02 02 00 10  0B 80 00 C5 02 03 01 10  (...............
02C0: 29 80 01 F5 02 02 00 10  0D 80 00 D5 02 03 01 10  )...............
02D0: 2A 80 01 F5 02 02 00 10  0F 80 00 E5 02 03 01 10  *...............
02E0: 2B 80 01 F5 02 02 00 10  18 80 00 F0 02 01 F5 02  +...............
02F0: 03 01 10 10 80 01 E1 1E  02 00 10 0F 80 00 80 03  ................
0300: 03 01 00 00 10 24 2C 80  01 80 01 80 25 02 00 10  .....$,.....%...
0310: 03 80 00 1D 03 03 01 10  2B 80 01 7D 03 02 00 10  ........+..}....
0320: 04 80 00 2D 03 03 01 10  2D 80 01 7D 03 02 00 10  ...-....-..}....
0330: 07 80 00 3D 03 03 01 10  2E 80 01 7D 03 02 00 10  ...=.......}....
0340: 09 80 00 4D 03 03 01 10  2F 80 01 7D 03 02 00 10  ...M..../..}....
0350: 0B 80 00 5D 03 03 01 10  30 80 01 7D 03 02 00 10  ...]....0..}....
0360: 0D 80 00 6D 03 03 01 10  31 80 01 7D 03 02 00 10  ...m....1..}....
0370: 0F 80 00 78 03 01 7D 03  03 01 10 10 80 01 E1 1E  ...x..}.........
0380: 02 00 10 18 80 00 2E 04  03 01 00 00 10 24 32 80  .............$2.
0390: 01 80 01 80 25 02 00 10  03 80 00 A5 03 03 01 10  ....%...........
03A0: 31 80 01 2B 04 02 00 10  04 80 00 B5 03 03 01 10  1..+............
03B0: 33 80 01 2B 04 02 00 10  07 80 00 C5 03 03 01 10  3..+............
03C0: 34 80 01 2B 04 02 00 10  09 80 00 D8 03 03 01 10  4..+............
03D0: 34 80 0B 01 10 01 2B 04  02 00 10 0B 80 00 E8 03  4.....+.........
03E0: 03 01 10 35 80 01 2B 04  02 00 10 0D 80 00 FB 03  ...5..+.........
03F0: 03 01 10 35 80 0B 01 10  01 2B 04 02 00 10 0F 80  ...5.....+......
0400: 00 0B 04 03 01 10 36 80  01 2B 04 02 00 10 18 80  ......6..+......
0410: 00 1B 04 03 01 10 37 80  01 2B 04 02 00 10 38 80  ......7..+....8.
0420: 00 26 04 01 2B 04 03 01  10 10 80 01 E1 1E 02 00  .&..+...........
0430: 10 38 80 00 D6 04 03 01  00 00 10 24 39 80 01 80  .8.........$9...
0440: 01 80 25 02 00 10 03 80  00 53 04 03 01 10 37 80  ..%......S....7.
0450: 01 D3 04 02 00 10 04 80  00 63 04 03 01 10 3A 80  .........c....:.
0460: 01 D3 04 02 00 10 07 80  00 73 04 03 01 10 3B 80  .........s....;.
0470: 01 D3 04 02 00 10 09 80  00 83 04 03 01 10 3C 80  ..............<.
0480: 01 D3 04 02 00 10 0B 80  00 93 04 03 01 10 3D 80  ..............=.
0490: 01 D3 04 02 00 10 0D 80  00 A3 04 03 01 10 3E 80  ..............>.
04A0: 01 D3 04 02 00 10 0F 80  00 B3 04 03 01 10 3F 80  ..............?.
04B0: 01 D3 04 02 00 10 18 80  00 C3 04 03 01 10 40 80  ..............@.
04C0: 01 D3 04 02 00 10 38 80  00 CE 04 01 D3 04 03 01  ......8.........
04D0: 10 10 80 01 E1 1E 02 00  10 41 80 00 71 05 03 01  .........A..q...
04E0: 00 00 10 24 42 80 01 80  01 80 25 02 00 10 03 80  ...$B.....%.....
04F0: 00 FB 04 03 01 10 40 80  01 6E 05 02 00 10 04 80  ......@..n......
0500: 00 0B 05 03 01 10 43 80  01 6E 05 02 00 10 07 80  ......C..n......
0510: 00 1B 05 03 01 10 44 80  01 6E 05 02 00 10 09 80  ......D..n......
0520: 00 2B 05 03 01 10 45 80  01 6E 05 02 00 10 0B 80  .+....E..n......
0530: 00 3E 05 03 01 10 45 80  0B 01 10 01 6E 05 02 00  .>....E.....n...
0540: 10 0D 80 00 4E 05 03 01  10 46 80 01 6E 05 02 00  ....N....F..n...
0550: 10 0F 80 00 5E 05 03 01  10 47 80 01 6E 05 02 00  ....^....G..n...
0560: 10 18 80 00 69 05 01 6E  05 03 01 10 10 80 01 E1  ....i..n........
0570: 1E 02 00 10 48 80 00 FC  05 03 01 00 00 10 24 49  ....H.........$I
0580: 80 01 80 01 80 25 02 00  10 03 80 00 96 05 03 01  .....%..........
0590: 10 47 80 01 F9 05 02 00  10 04 80 00 A6 05 03 01  .G..............
05A0: 10 4A 80 01 F9 05 02 00  10 07 80 00 B6 05 03 01  .J..............
05B0: 10 4B 80 01 F9 05 02 00  10 09 80 00 C9 05 03 01  .K..............
05C0: 10 4B 80 0B 01 10 01 F9  05 02 00 10 0B 80 00 D9  .K..............
05D0: 05 03 01 10 4C 80 01 F9  05 02 00 10 0D 80 00 E9  ....L...........
05E0: 05 03 01 10 4D 80 01 F9  05 02 00 10 0F 80 00 F4  ....M...........
05F0: 05 01 F9 05 03 01 10 10  80 01 E1 1E 02 00 10 4E  ...............N
0600: 80 00 C4 06 03 01 00 00  10 24 4F 80 01 80 01 80  .........$O.....
0610: 25 02 00 10 03 80 00 21  06 03 01 10 4D 80 01 C1  %......!....M...
0620: 06 02 00 10 04 80 00 31  06 03 01 10 50 80 01 C1  .......1....P...
0630: 06 02 00 10 07 80 00 41  06 03 01 10 51 80 01 C1  .......A....Q...
0640: 06 02 00 10 09 80 00 51  06 03 01 10 52 80 01 C1  .......Q....R...
0650: 06 02 00 10 0B 80 00 61  06 03 01 10 53 80 01 C1  .......a....S...
0660: 06 02 00 10 0D 80 00 71  06 03 01 10 54 80 01 C1  .......q....T...
0670: 06 02 00 10 0F 80 00 81  06 03 01 10 55 80 01 C1  ............U...
0680: 06 02 00 10 18 80 00 91  06 03 01 10 56 80 01 C1  ............V...
0690: 06 02 00 10 38 80 00 A1  06 03 01 10 57 80 01 C1  ....8.......W...
06A0: 06 02 00 10 41 80 00 B1  06 03 01 10 58 80 01 C1  ....A.......X...
06B0: 06 02 00 10 48 80 00 BC  06 01 C1 06 03 01 10 10  ....H...........
06C0: 80 01 E1 1E 02 00 10 59  80 00 5F 07 03 01 00 00  .......Y.._.....
06D0: 10 24 5A 80 01 80 01 80  25 02 00 10 03 80 00 EC  .$Z.....%.......
06E0: 06 03 01 10 58 80 0B 01  10 01 5C 07 02 00 10 04  ....X.....\.....
06F0: 80 00 FC 06 03 01 10 5B  80 01 5C 07 02 00 10 07  .......[..\.....
0700: 80 00 0C 07 03 01 10 5C  80 01 5C 07 02 00 10 09  .......\..\.....
0710: 80 00 1C 07 03 01 10 5D  80 01 5C 07 02 00 10 0B  .......]..\.....
0720: 80 00 2C 07 03 01 10 5E  80 01 5C 07 02 00 10 0D  ..,....^..\.....
0730: 80 00 3C 07 03 01 10 5F  80 01 5C 07 02 00 10 0F  ..<...._..\.....
0740: 80 00 4C 07 03 01 10 60  80 01 5C 07 02 00 10 18  ..L....`..\.....
0750: 80 00 57 07 01 5C 07 03  01 10 10 80 01 E1 1E 02  ..W..\..........
0760: 00 10 61 80 00 17 08 03  01 00 00 10 24 62 80 01  ..a.........$b..
0770: 80 01 80 25 02 00 10 03  80 00 84 07 03 01 10 60  ...%...........`
0780: 80 01 14 08 02 00 10 04  80 00 94 07 03 01 10 63  ...............c
0790: 80 01 14 08 02 00 10 07  80 00 A4 07 03 01 10 64  ...............d
07A0: 80 01 14 08 02 00 10 09  80 00 B4 07 03 01 10 65  ...............e
07B0: 80 01 14 08 02 00 10 0B  80 00 C4 07 03 01 10 66  ...............f
07C0: 80 01 14 08 02 00 10 0D  80 00 D4 07 03 01 10 67  ...............g
07D0: 80 01 14 08 02 00 10 0F  80 00 E4 07 03 01 10 68  ...............h
07E0: 80 01 14 08 02 00 10 18  80 00 F4 07 03 01 10 69  ...............i
07F0: 80 01 14 08 02 00 10 38  80 00 04 08 03 01 10 6A  .......8.......j
0800: 80 01 14 08 02 00 10 41  80 00 0F 08 01 14 08 03  .......A........
0810: 01 10 10 80 01 E1 1E 02  00 10 6B 80 00 BF 08 03  ..........k.....
0820: 01 00 00 10 24 6C 80 01  80 01 80 25 02 00 10 03  ....$l.....%....
0830: 80 00 3C 08 03 01 10 6A  80 01 BC 08 02 00 10 04  ..<....j........
0840: 80 00 4C 08 03 01 10 6D  80 01 BC 08 02 00 10 07  ..L....m........
0850: 80 00 5C 08 03 01 10 6E  80 01 BC 08 02 00 10 09  ..\....n........
0860: 80 00 6C 08 03 01 10 6F  80 01 BC 08 02 00 10 0B  ..l....o........
0870: 80 00 7C 08 03 01 10 70  80 01 BC 08 02 00 10 0D  ..|....p........
0880: 80 00 8C 08 03 01 10 71  80 01 BC 08 02 00 10 0F  .......q........
0890: 80 00 9C 08 03 01 10 72  80 01 BC 08 02 00 10 18  .......r........
08A0: 80 00 AC 08 03 01 10 73  80 01 BC 08 02 00 10 38  .......s.......8
08B0: 80 00 B7 08 01 BC 08 03  01 10 10 80 01 E1 1E 02  ................
08C0: 00 10 74 80 00 77 09 03  01 00 00 10 24 75 80 01  ..t..w......$u..
08D0: 80 01 80 25 02 00 10 03  80 00 E4 08 03 01 10 73  ...%...........s
08E0: 80 01 74 09 02 00 10 04  80 00 F4 08 03 01 10 76  ..t............v
08F0: 80 01 74 09 02 00 10 07  80 00 04 09 03 01 10 77  ..t............w
0900: 80 01 74 09 02 00 10 09  80 00 14 09 03 01 10 78  ..t............x
0910: 80 01 74 09 02 00 10 0B  80 00 24 09 03 01 10 79  ..t.......$....y
0920: 80 01 74 09 02 00 10 0D  80 00 34 09 03 01 10 7A  ..t.......4....z
0930: 80 01 74 09 02 00 10 0F  80 00 44 09 03 01 10 7B  ..t.......D....{
0940: 80 01 74 09 02 00 10 18  80 00 54 09 03 01 10 7C  ..t.......T....|
0950: 80 01 74 09 02 00 10 38  80 00 64 09 03 01 10 7D  ..t....8..d....}
0960: 80 01 74 09 02 00 10 41  80 00 6F 09 01 74 09 03  ..t....A..o..t..
0970: 01 10 10 80 01 E1 1E 02  00 10 7E 80 00 0F 0A 03  ..........~.....
0980: 01 00 00 10 24 7F 80 01  80 01 80 25 02 00 10 03  ....$......%....
0990: 80 00 9C 09 03 01 10 7D  80 01 0C 0A 02 00 10 04  .......}........
09A0: 80 00 AC 09 03 01 10 80  80 01 0C 0A 02 00 10 07  ................
09B0: 80 00 BC 09 03 01 10 81  80 01 0C 0A 02 00 10 09  ................
09C0: 80 00 CC 09 03 01 10 82  80 01 0C 0A 02 00 10 0B  ................
09D0: 80 00 DC 09 03 01 10 83  80 01 0C 0A 02 00 10 0D  ................
09E0: 80 00 EC 09 03 01 10 84  80 01 0C 0A 02 00 10 0F  ................
09F0: 80 00 FC 09 03 01 10 85  80 01 0C 0A 02 00 10 18  ................
0A00: 80 00 07 0A 01 0C 0A 03  01 10 10 80 01 E1 1E 02  ................
0A10: 00 10 86 80 00 A7 0A 03  01 00 00 10 24 87 80 01  ............$...
0A20: 80 01 80 25 02 00 10 03  80 00 34 0A 03 01 10 85  ...%......4.....
0A30: 80 01 A4 0A 02 00 10 04  80 00 44 0A 03 01 10 88  ..........D.....
0A40: 80 01 A4 0A 02 00 10 07  80 00 54 0A 03 01 10 89  ..........T.....
0A50: 80 01 A4 0A 02 00 10 09  80 00 64 0A 03 01 10 8A  ..........d.....
0A60: 80 01 A4 0A 02 00 10 0B  80 00 74 0A 03 01 10 8B  ..........t.....
0A70: 80 01 A4 0A 02 00 10 0D  80 00 84 0A 03 01 10 8C  ................
0A80: 80 01 A4 0A 02 00 10 0F  80 00 94 0A 03 01 10 8D  ................
0A90: 80 01 A4 0A 02 00 10 18  80 00 9F 0A 01 A4 0A 03  ................
0AA0: 01 10 10 80 01 E1 1E 02  00 10 8E 80 00 5F 0B 03  ............._..
0AB0: 01 00 00 10 24 8F 80 01  80 01 80 25 02 00 10 03  ....$......%....
0AC0: 80 00 CC 0A 03 01 10 8D  80 01 5C 0B 02 00 10 04  ..........\.....
0AD0: 80 00 DC 0A 03 01 10 90  80 01 5C 0B 02 00 10 07  ..........\.....
0AE0: 80 00 EC 0A 03 01 10 91  80 01 5C 0B 02 00 10 09  ..........\.....
0AF0: 80 00 FC 0A 03 01 10 92  80 01 5C 0B 02 00 10 0B  ..........\.....
0B00: 80 00 0C 0B 03 01 10 93  80 01 5C 0B 02 00 10 0D  ..........\.....
0B10: 80 00 1C 0B 03 01 10 94  80 01 5C 0B 02 00 10 0F  ..........\.....
0B20: 80 00 2C 0B 03 01 10 95  80 01 5C 0B 02 00 10 18  ..,.......\.....
0B30: 80 00 3C 0B 03 01 10 96  80 01 5C 0B 02 00 10 38  ..<.......\....8
0B40: 80 00 4C 0B 03 01 10 97  80 01 5C 0B 02 00 10 41  ..L.......\....A
0B50: 80 00 57 0B 01 5C 0B 03  01 10 10 80 01 E1 1E 02  ..W..\..........
0B60: 00 10 98 80 00 F7 0B 03  01 00 00 10 24 99 80 01  ............$...
0B70: 80 01 80 25 02 00 10 03  80 00 84 0B 03 01 10 97  ...%............
0B80: 80 01 F4 0B 02 00 10 04  80 00 94 0B 03 01 10 9A  ................
0B90: 80 01 F4 0B 02 00 10 07  80 00 A4 0B 03 01 10 9B  ................
0BA0: 80 01 F4 0B 02 00 10 09  80 00 B4 0B 03 01 10 9C  ................
0BB0: 80 01 F4 0B 02 00 10 0B  80 00 C4 0B 03 01 10 9D  ................
0BC0: 80 01 F4 0B 02 00 10 0D  80 00 D4 0B 03 01 10 9E  ................
0BD0: 80 01 F4 0B 02 00 10 0F  80 00 E4 0B 03 01 10 9F  ................
0BE0: 80 01 F4 0B 02 00 10 18  80 00 EF 0B 01 F4 0B 03  ................
0BF0: 01 10 10 80 01 E1 1E 02  00 10 A0 80 00 9F 0C 03  ................
0C00: 01 00 00 10 24 A1 80 01  80 01 80 25 02 00 10 03  ....$......%....
0C10: 80 00 1C 0C 03 01 10 9F  80 01 9C 0C 02 00 10 04  ................
0C20: 80 00 2C 0C 03 01 10 A2  80 01 9C 0C 02 00 10 07  ..,.............
0C30: 80 00 3C 0C 03 01 10 A3  80 01 9C 0C 02 00 10 09  ..<.............
0C40: 80 00 4C 0C 03 01 10 A4  80 01 9C 0C 02 00 10 0B  ..L.............
0C50: 80 00 5C 0C 03 01 10 A5  80 01 9C 0C 02 00 10 0D  ..\.............
0C60: 80 00 6C 0C 03 01 10 A6  80 01 9C 0C 02 00 10 0F  ..l.............
0C70: 80 00 7C 0C 03 01 10 A7  80 01 9C 0C 02 00 10 18  ..|.............
0C80: 80 00 8C 0C 03 01 10 A8  80 01 9C 0C 02 00 10 38  ...............8
0C90: 80 00 97 0C 01 9C 0C 03  01 10 10 80 01 E1 1E 02  ................
0CA0: 00 10 A9 80 00 3A 0D 03  01 00 00 10 24 AA 80 01  .....:......$...
0CB0: 80 01 80 25 02 00 10 03  80 00 C4 0C 03 01 10 A8  ...%............
0CC0: 80 01 37 0D 02 00 10 04  80 00 D4 0C 03 01 10 AB  ..7.............
0CD0: 80 01 37 0D 02 00 10 07  80 00 E7 0C 03 01 10 AB  ..7.............
0CE0: 80 0B 01 10 01 37 0D 02  00 10 09 80 00 F7 0C 03  .....7..........
0CF0: 01 10 AC 80 01 37 0D 02  00 10 0B 80 00 07 0D 03  .....7..........
0D00: 01 10 AD 80 01 37 0D 02  00 10 0D 80 00 17 0D 03  .....7..........
0D10: 01 10 AE 80 01 37 0D 02  00 10 0F 80 00 27 0D 03  .....7.......'..
0D20: 01 10 AF 80 01 37 0D 02  00 10 18 80 00 32 0D 01  .....7.......2..
0D30: 37 0D 03 01 10 10 80 01  E1 1E 02 00 10 B0 80 00  7...............
0D40: 15 0E 03 01 00 00 10 24  B1 80 01 80 01 80 25 02  .......$......%.
0D50: 00 10 03 80 00 5F 0D 03  01 10 AF 80 01 12 0E 02  ....._..........
0D60: 00 10 04 80 00 6F 0D 03  01 10 B2 80 01 12 0E 02  .....o..........
0D70: 00 10 07 80 00 7F 0D 03  01 10 B3 80 01 12 0E 02  ................
0D80: 00 10 09 80 00 8F 0D 03  01 10 B4 80 01 12 0E 02  ................
0D90: 00 10 0B 80 00 9F 0D 03  01 10 B5 80 01 12 0E 02  ................
0DA0: 00 10 0D 80 00 AF 0D 03  01 10 B6 80 01 12 0E 02  ................
0DB0: 00 10 0F 80 00 C2 0D 03  01 10 B6 80 0B 01 10 01  ................
0DC0: 12 0E 02 00 10 18 80 00  D2 0D 03 01 10 B7 80 01  ................
0DD0: 12 0E 02 00 10 38 80 00  E2 0D 03 01 10 B8 80 01  .....8..........
0DE0: 12 0E 02 00 10 41 80 00  F2 0D 03 01 10 B9 80 01  .....A..........
0DF0: 12 0E 02 00 10 48 80 00  02 0E 03 01 10 BA 80 01  .....H..........
0E00: 12 0E 02 00 10 4E 80 00  0D 0E 01 12 0E 03 01 10  .....N..........
0E10: 10 80 01 E1 1E 02 00 10  BB 80 00 AD 0E 03 01 00  ................
0E20: 00 10 24 BC 80 01 80 01  80 25 02 00 10 03 80 00  ..$......%......
0E30: 3A 0E 03 01 10 BA 80 01  AA 0E 02 00 10 04 80 00  :...............
0E40: 4A 0E 03 01 10 BD 80 01  AA 0E 02 00 10 07 80 00  J...............
0E50: 5A 0E 03 01 10 BE 80 01  AA 0E 02 00 10 09 80 00  Z...............
0E60: 6A 0E 03 01 10 BF 80 01  AA 0E 02 00 10 0B 80 00  j...............
0E70: 7A 0E 03 01 10 C0 80 01  AA 0E 02 00 10 0D 80 00  z...............
0E80: 8A 0E 03 01 10 C1 80 01  AA 0E 02 00 10 0F 80 00  ................
0E90: 9A 0E 03 01 10 C2 80 01  AA 0E 02 00 10 18 80 00  ................
0EA0: A5 0E 01 AA 0E 03 01 10  10 80 01 E1 1E 02 00 10  ................
0EB0: C3 80 00 95 0F 03 01 00  00 10 24 C4 80 01 80 01  ..........$.....
0EC0: 80 25 02 00 10 03 80 00  D2 0E 03 01 10 C2 80 01  .%..............
0ED0: 92 0F 02 00 10 04 80 00  E2 0E 03 01 10 C5 80 01  ................
0EE0: 92 0F 02 00 10 07 80 00  F2 0E 03 01 10 C6 80 01  ................
0EF0: 92 0F 02 00 10 09 80 00  02 0F 03 01 10 C7 80 01  ................
0F00: 92 0F 02 00 10 0B 80 00  12 0F 03 01 10 C8 80 01  ................
0F10: 92 0F 02 00 10 0D 80 00  22 0F 03 01 10 C9 80 01  ........".......
0F20: 92 0F 02 00 10 0F 80 00  32 0F 03 01 10 CA 80 01  ........2.......
0F30: 92 0F 02 00 10 18 80 00  42 0F 03 01 10 CB 80 01  ........B.......
0F40: 92 0F 02 00 10 38 80 00  52 0F 03 01 10 CC 80 01  .....8..R.......
0F50: 92 0F 02 00 10 41 80 00  62 0F 03 01 10 CD 80 01  .....A..b.......
0F60: 92 0F 02 00 10 48 80 00  72 0F 03 01 10 CE 80 01  .....H..r.......
0F70: 92 0F 02 00 10 4E 80 00  82 0F 03 01 10 CF 80 01  .....N..........
0F80: 92 0F 02 00 10 59 80 00  8D 0F 01 92 0F 03 01 10  .....Y..........
0F90: 10 80 01 E1 1E 02 00 10  D0 80 00 4D 10 03 01 00  ...........M....
0FA0: 00 10 24 D1 80 01 80 01  80 25 02 00 10 03 80 00  ..$......%......
0FB0: BA 0F 03 01 10 CF 80 01  4A 10 02 00 10 04 80 00  ........J.......
0FC0: CA 0F 03 01 10 D2 80 01  4A 10 02 00 10 07 80 00  ........J.......
0FD0: DA 0F 03 01 10 D3 80 01  4A 10 02 00 10 09 80 00  ........J.......
0FE0: EA 0F 03 01 10 D4 80 01  4A 10 02 00 10 0B 80 00  ........J.......
0FF0: FA 0F 03 01 10 D5 80 01  4A 10 02 00 10 0D 80 00  ........J.......
1000: 0A 10 03 01 10 D6 80 01  4A 10 02 00 10 0F 80 00  ........J.......
1010: 1A 10 03 01 10 D7 80 01  4A 10 02 00 10 18 80 00  ........J.......
1020: 2A 10 03 01 10 D8 80 01  4A 10 02 00 10 38 80 00  *.......J....8..
1030: 3A 10 03 01 10 D9 80 01  4A 10 02 00 10 41 80 00  :.......J....A..
1040: 45 10 01 4A 10 03 01 10  10 80 01 E1 1E 02 00 10  E..J............
1050: DA 80 00 D5 10 03 01 00  00 10 24 DB 80 01 80 01  ..........$.....
1060: 80 25 02 00 10 03 80 00  72 10 03 01 10 D9 80 01  .%......r.......
1070: D2 10 02 00 10 04 80 00  82 10 03 01 10 DC 80 01  ................
1080: D2 10 02 00 10 07 80 00  92 10 03 01 10 DD 80 01  ................
1090: D2 10 02 00 10 09 80 00  A2 10 03 01 10 DE 80 01  ................
10A0: D2 10 02 00 10 0B 80 00  B2 10 03 01 10 DF 80 01  ................
10B0: D2 10 02 00 10 0D 80 00  C2 10 03 01 10 E0 80 01  ................
10C0: D2 10 02 00 10 0F 80 00  CD 10 01 D2 10 03 01 10  ................
10D0: 10 80 01 E1 1E 02 00 10  E1 80 00 6D 11 03 01 00  ...........m....
10E0: 00 10 24 E2 80 01 80 01  80 25 02 00 10 03 80 00  ..$......%......
10F0: FA 10 03 01 10 E0 80 01  6A 11 02 00 10 04 80 00  ........j.......
1100: 0A 11 03 01 10 E3 80 01  6A 11 02 00 10 07 80 00  ........j.......
1110: 1A 11 03 01 10 E4 80 01  6A 11 02 00 10 09 80 00  ........j.......
1120: 2A 11 03 01 10 E5 80 01  6A 11 02 00 10 0B 80 00  *.......j.......
1130: 3A 11 03 01 10 E6 80 01  6A 11 02 00 10 0D 80 00  :.......j.......
1140: 4A 11 03 01 10 E7 80 01  6A 11 02 00 10 0F 80 00  J.......j.......
1150: 5A 11 03 01 10 E8 80 01  6A 11 02 00 10 18 80 00  Z.......j.......
1160: 65 11 01 6A 11 03 01 10  10 80 01 E1 1E 02 00 10  e..j............
1170: E9 80 00 E5 11 03 01 00  00 10 24 EA 80 01 80 01  ..........$.....
1180: 80 25 02 00 10 03 80 00  92 11 03 01 10 E8 80 01  .%..............
1190: E2 11 02 00 10 04 80 00  A2 11 03 01 10 EB 80 01  ................
11A0: E2 11 02 00 10 07 80 00  B2 11 03 01 10 EC 80 01  ................
11B0: E2 11 02 00 10 09 80 00  C2 11 03 01 10 ED 80 01  ................
11C0: E2 11 02 00 10 0B 80 00  D2 11 03 01 10 EE 80 01  ................
11D0: E2 11 02 00 10 0D 80 00  DD 11 01 E2 11 03 01 10  ................
11E0: 10 80 01 E1 1E 02 00 10  EF 80 00 F6 12 03 01 00  ................
11F0: 00 10 03 02 00 01 80 24  F0 80 02 00 01 80 25 02  .......$......%.
1200: 00 10 03 80 00 25 12 02  00 00 EE 80 04 17 12 03  .....%..........
1210: 01 10 03 80 01 22 12 48  F1 80 03 02 00 00 10 01  .....".H........
1220: F7 11 01 F3 12 02 00 10  04 80 00 4B 12 02 00 00  ...........K....
1230: EE 80 04 3D 12 03 01 10  04 80 01 48 12 48 F1 80  ...=.......H.H..
1240: 03 02 00 00 10 01 F7 11  01 F3 12 02 00 10 07 80  ................
1250: 00 71 12 02 00 00 EE 80  04 63 12 03 01 10 07 80  .q.......c......
1260: 01 6E 12 48 F1 80 03 02  00 00 10 01 F7 11 01 F3  .n.H............
1270: 12 02 00 10 09 80 00 97  12 02 00 00 EE 80 04 89  ................
1280: 12 03 01 10 09 80 01 94  12 48 F1 80 03 02 00 00  .........H......
1290: 10 01 F7 11 01 F3 12 02  00 10 0B 80 00 BD 12 02  ................
12A0: 00 00 EE 80 04 AF 12 03  01 10 0B 80 01 BA 12 48  ...............H
12B0: F1 80 03 02 00 00 10 01  F7 11 01 F3 12 02 00 10  ................
12C0: 0D 80 00 E3 12 02 00 00  EE 80 04 D5 12 03 01 10  ................
12D0: 0D 80 01 E0 12 48 F1 80  03 02 00 00 10 01 F7 11  .....H..........
12E0: 01 F3 12 02 00 10 0F 80  00 EE 12 01 F3 12 03 01  ................
12F0: 10 10 80 01 E1 1E 02 00  10 F2 80 00 81 13 03 01  ................
1300: 00 00 10 24 F3 80 01 80  01 80 25 02 00 10 03 80  ...$......%.....
1310: 00 1B 13 03 01 10 EE 80  01 7E 13 02 00 10 04 80  .........~......
1320: 00 2B 13 03 01 10 F4 80  01 7E 13 02 00 10 07 80  .+.......~......
1330: 00 3B 13 03 01 10 F5 80  01 7E 13 02 00 10 09 80  .;.......~......
1340: 00 4E 13 03 01 10 F5 80  0B 01 10 01 7E 13 02 00  .N..........~...
1350: 10 0B 80 00 5E 13 03 01  10 F6 80 01 7E 13 02 00  ....^.......~...
1360: 10 0D 80 00 6E 13 03 01  10 F7 80 01 7E 13 02 00  ....n.......~...
1370: 10 0F 80 00 79 13 01 7E  13 03 01 10 10 80 01 E1  ....y..~........
1380: 1E 02 00 10 F8 80 00 39  14 03 01 00 00 10 24 F9  .......9......$.
1390: 80 01 80 01 80 25 02 00  10 03 80 00 A6 13 03 01  .....%..........
13A0: 10 F7 80 01 36 14 02 00  10 04 80 00 B6 13 03 01  ....6...........
13B0: 10 FA 80 01 36 14 02 00  10 07 80 00 C6 13 03 01  ....6...........
13C0: 10 FB 80 01 36 14 02 00  10 09 80 00 D6 13 03 01  ....6...........
13D0: 10 FC 80 01 36 14 02 00  10 0B 80 00 E6 13 03 01  ....6...........
13E0: 10 FD 80 01 36 14 02 00  10 0D 80 00 F6 13 03 01  ....6...........
13F0: 10 FE 80 01 36 14 02 00  10 0F 80 00 06 14 03 01  ....6...........
1400: 10 FF 80 01 36 14 02 00  10 18 80 00 16 14 03 01  ....6...........
1410: 10 00 81 01 36 14 02 00  10 38 80 00 26 14 03 01  ....6....8..&...
1420: 10 01 81 01 36 14 02 00  10 41 80 00 31 14 01 36  ....6....A..1..6
1430: 14 03 01 10 10 80 01 E1  1E 02 00 10 02 81 00 C1  ................
1440: 14 03 01 00 00 10 24 03  81 01 80 01 80 25 02 00  ......$......%..
1450: 10 03 80 00 5E 14 03 01  10 01 81 01 BE 14 02 00  ....^...........
1460: 10 04 80 00 6E 14 03 01  10 04 81 01 BE 14 02 00  ....n...........
1470: 10 07 80 00 7E 14 03 01  10 05 81 01 BE 14 02 00  ....~...........
1480: 10 09 80 00 8E 14 03 01  10 06 81 01 BE 14 02 00  ................
1490: 10 0B 80 00 9E 14 03 01  10 07 81 01 BE 14 02 00  ................
14A0: 10 0D 80 00 AE 14 03 01  10 08 81 01 BE 14 02 00  ................
14B0: 10 0F 80 00 B9 14 01 BE  14 03 01 10 10 80 01 E1  ................
14C0: 1E 02 00 10 09 81 00 69  15 03 01 00 00 10 24 0A  .......i......$.
14D0: 81 01 80 01 80 25 02 00  10 03 80 00 E6 14 03 01  .....%..........
14E0: 10 08 81 01 66 15 02 00  10 04 80 00 F6 14 03 01  ....f...........
14F0: 10 0B 81 01 66 15 02 00  10 07 80 00 06 15 03 01  ....f...........
1500: 10 0C 81 01 66 15 02 00  10 09 80 00 16 15 03 01  ....f...........
1510: 10 0D 81 01 66 15 02 00  10 0B 80 00 26 15 03 01  ....f.......&...
1520: 10 0E 81 01 66 15 02 00  10 0D 80 00 36 15 03 01  ....f.......6...
1530: 10 0F 81 01 66 15 02 00  10 0F 80 00 46 15 03 01  ....f.......F...
1540: 10 10 81 01 66 15 02 00  10 18 80 00 56 15 03 01  ....f.......V...
1550: 10 11 81 01 66 15 02 00  10 38 80 00 61 15 01 66  ....f....8..a..f
1560: 15 03 01 10 10 80 01 E1  1E 02 00 10 12 81 00 E1  ................
1570: 15 03 01 00 00 10 24 13  81 01 80 01 80 25 02 00  ......$......%..
1580: 10 03 80 00 8E 15 03 01  10 11 81 01 DE 15 02 00  ................
1590: 10 04 80 00 9E 15 03 01  10 14 81 01 DE 15 02 00  ................
15A0: 10 07 80 00 AE 15 03 01  10 15 81 01 DE 15 02 00  ................
15B0: 10 09 80 00 BE 15 03 01  10 16 81 01 DE 15 02 00  ................
15C0: 10 0B 80 00 CE 15 03 01  10 17 81 01 DE 15 02 00  ................
15D0: 10 0D 80 00 D9 15 01 DE  15 03 01 10 10 80 01 E1  ................
15E0: 1E 02 00 10 18 81 00 89  16 03 01 00 00 10 24 19  ..............$.
15F0: 81 01 80 01 80 25 02 00  10 03 80 00 06 16 03 01  .....%..........
1600: 10 17 81 01 86 16 02 00  10 04 80 00 16 16 03 01  ................
1610: 10 1A 81 01 86 16 02 00  10 07 80 00 26 16 03 01  ............&...
1620: 10 1B 81 01 86 16 02 00  10 09 80 00 36 16 03 01  ............6...
1630: 10 1C 81 01 86 16 02 00  10 0B 80 00 46 16 03 01  ............F...
1640: 10 1D 81 01 86 16 02 00  10 0D 80 00 56 16 03 01  ............V...
1650: 10 1E 81 01 86 16 02 00  10 0F 80 00 66 16 03 01  ............f...
1660: 10 1F 81 01 86 16 02 00  10 18 80 00 76 16 03 01  ............v...
1670: 10 20 81 01 86 16 02 00  10 38 80 00 81 16 01 86  . .......8......
1680: 16 03 01 10 10 80 01 E1  1E 02 00 10 21 81 00 21  ............!..!
1690: 17 03 01 00 00 10 24 22  81 01 80 01 80 25 02 00  ......$".....%..
16A0: 10 03 80 00 AE 16 03 01  10 20 81 01 1E 17 02 00  ......... ......
16B0: 10 04 80 00 BE 16 03 01  10 23 81 01 1E 17 02 00  .........#......
16C0: 10 07 80 00 CE 16 03 01  10 24 81 01 1E 17 02 00  .........$......
16D0: 10 09 80 00 DE 16 03 01  10 25 81 01 1E 17 02 00  .........%......
16E0: 10 0B 80 00 EE 16 03 01  10 26 81 01 1E 17 02 00  .........&......
16F0: 10 0D 80 00 FE 16 03 01  10 27 81 01 1E 17 02 00  .........'......
1700: 10 0F 80 00 0E 17 03 01  10 28 81 01 1E 17 02 00  .........(......
1710: 10 18 80 00 19 17 01 1E  17 03 01 10 10 80 01 E1  ................
1720: 1E 02 00 10 29 81 00 BC  17 03 01 00 00 10 24 2A  ....).........$*
1730: 81 01 80 01 80 25 02 00  10 03 80 00 46 17 03 01  .....%......F...
1740: 10 28 81 01 B9 17 02 00  10 04 80 00 56 17 03 01  .(..........V...
1750: 10 2B 81 01 B9 17 02 00  10 07 80 00 66 17 03 01  .+..........f...
1760: 10 2C 81 01 B9 17 02 00  10 09 80 00 76 17 03 01  .,..........v...
1770: 10 2D 81 01 B9 17 02 00  10 0B 80 00 86 17 03 01  .-..............
1780: 10 2E 81 01 B9 17 02 00  10 0D 80 00 96 17 03 01  ................
1790: 10 2F 81 01 B9 17 02 00  10 0F 80 00 A9 17 03 01  ./..............
17A0: 10 2F 81 0B 01 10 01 B9  17 02 00 10 18 80 00 B4  ./..............
17B0: 17 01 B9 17 03 01 10 10  80 01 E1 1E 02 00 10 30  ...............0
17C0: 81 00 47 18 03 01 00 00  10 24 31 81 01 80 01 80  ..G......$1.....
17D0: 25 02 00 10 03 80 00 E4  17 03 01 10 2F 81 0B 01  %.........../...
17E0: 10 01 44 18 02 00 10 04  80 00 F4 17 03 01 10 32  ..D............2
17F0: 81 01 44 18 02 00 10 07  80 00 04 18 03 01 10 33  ..D............3
1800: 81 01 44 18 02 00 10 09  80 00 14 18 03 01 10 34  ..D............4
1810: 81 01 44 18 02 00 10 0B  80 00 24 18 03 01 10 35  ..D.......$....5
1820: 81 01 44 18 02 00 10 0D  80 00 34 18 03 01 10 36  ..D.......4....6
1830: 81 01 44 18 02 00 10 0F  80 00 3F 18 01 44 18 03  ..D.......?..D..
1840: 01 10 10 80 01 E1 1E 02  00 10 37 81 00 DF 18 03  ..........7.....
1850: 01 00 00 10 24 38 81 01  80 01 80 25 02 00 10 03  ....$8.....%....
1860: 80 00 6C 18 03 01 10 36  81 01 DC 18 02 00 10 04  ..l....6........
1870: 80 00 7C 18 03 01 10 39  81 01 DC 18 02 00 10 07  ..|....9........
1880: 80 00 8C 18 03 01 10 3A  81 01 DC 18 02 00 10 09  .......:........
1890: 80 00 9C 18 03 01 10 3B  81 01 DC 18 02 00 10 0B  .......;........
18A0: 80 00 AC 18 03 01 10 3C  81 01 DC 18 02 00 10 0D  .......<........
18B0: 80 00 BC 18 03 01 10 3D  81 01 DC 18 02 00 10 0F  .......=........
18C0: 80 00 CC 18 03 01 10 3E  81 01 DC 18 02 00 10 18  .......>........
18D0: 80 00 D7 18 01 DC 18 03  01 10 10 80 01 E1 1E 02  ................
18E0: 00 10 3F 81 00 47 19 03  01 00 00 10 24 40 81 01  ..?..G......$@..
18F0: 80 01 80 25 02 00 10 03  80 00 04 19 03 01 10 3E  ...%...........>
1900: 81 01 44 19 02 00 10 04  80 00 14 19 03 01 10 41  ..D............A
1910: 81 01 44 19 02 00 10 07  80 00 24 19 03 01 10 42  ..D.......$....B
1920: 81 01 44 19 02 00 10 09  80 00 34 19 03 01 10 43  ..D.......4....C
1930: 81 01 44 19 02 00 10 0B  80 00 3F 19 01 44 19 03  ..D.......?..D..
1940: 01 10 10 80 01 E1 1E 02  00 10 44 81 00 DF 19 03  ..........D.....
1950: 01 00 00 10 24 45 81 01  80 01 80 25 02 00 10 03  ....$E.....%....
1960: 80 00 6C 19 03 01 10 43  81 01 DC 19 02 00 10 04  ..l....C........
1970: 80 00 7C 19 03 01 10 46  81 01 DC 19 02 00 10 07  ..|....F........
1980: 80 00 8C 19 03 01 10 47  81 01 DC 19 02 00 10 09  .......G........
1990: 80 00 9C 19 03 01 10 48  81 01 DC 19 02 00 10 0B  .......H........
19A0: 80 00 AC 19 03 01 10 49  81 01 DC 19 02 00 10 0D  .......I........
19B0: 80 00 BC 19 03 01 10 4A  81 01 DC 19 02 00 10 0F  .......J........
19C0: 80 00 CC 19 03 01 10 4B  81 01 DC 19 02 00 10 18  .......K........
19D0: 80 00 D7 19 01 DC 19 03  01 10 10 80 01 E1 1E 02  ................
19E0: 00 10 4C 81 00 67 1A 03  01 00 00 10 24 4D 81 01  ..L..g......$M..
19F0: 80 01 80 25 02 00 10 03  80 00 04 1A 03 01 10 4B  ...%...........K
1A00: 81 01 64 1A 02 00 10 04  80 00 14 1A 03 01 10 4E  ..d............N
1A10: 81 01 64 1A 02 00 10 07  80 00 24 1A 03 01 10 4F  ..d.......$....O
1A20: 81 01 64 1A 02 00 10 09  80 00 34 1A 03 01 10 50  ..d.......4....P
1A30: 81 01 64 1A 02 00 10 0B  80 00 44 1A 03 01 10 51  ..d.......D....Q
1A40: 81 01 64 1A 02 00 10 0D  80 00 54 1A 03 01 10 52  ..d.......T....R
1A50: 81 01 64 1A 02 00 10 0F  80 00 5F 1A 01 64 1A 03  ..d......._..d..
1A60: 01 10 10 80 01 E1 1E 02  00 10 53 81 00 EF 1A 03  ..........S.....
1A70: 01 00 00 10 24 54 81 01  80 01 80 25 02 00 10 03  ....$T.....%....
1A80: 80 00 8C 1A 03 01 10 52  81 01 EC 1A 02 00 10 04  .......R........
1A90: 80 00 9C 1A 03 01 10 55  81 01 EC 1A 02 00 10 07  .......U........
1AA0: 80 00 AC 1A 03 01 10 56  81 01 EC 1A 02 00 10 09  .......V........
1AB0: 80 00 BC 1A 03 01 10 57  81 01 EC 1A 02 00 10 0B  .......W........
1AC0: 80 00 CC 1A 03 01 10 58  81 01 EC 1A 02 00 10 0D  .......X........
1AD0: 80 00 DC 1A 03 01 10 59  81 01 EC 1A 02 00 10 0F  .......Y........
1AE0: 80 00 E7 1A 01 EC 1A 03  01 10 10 80 01 E1 1E 02  ................
1AF0: 00 10 5A 81 00 87 1B 03  01 00 00 10 24 5B 81 01  ..Z.........$[..
1B00: 80 01 80 25 02 00 10 03  80 00 14 1B 03 01 10 59  ...%...........Y
1B10: 81 01 84 1B 02 00 10 04  80 00 24 1B 03 01 10 5C  ..........$....\
1B20: 81 01 84 1B 02 00 10 07  80 00 34 1B 03 01 10 5D  ..........4....]
1B30: 81 01 84 1B 02 00 10 09  80 00 44 1B 03 01 10 5E  ..........D....^
1B40: 81 01 84 1B 02 00 10 0B  80 00 54 1B 03 01 10 5F  ..........T...._
1B50: 81 01 84 1B 02 00 10 0D  80 00 64 1B 03 01 10 60  ..........d....`
1B60: 81 01 84 1B 02 00 10 0F  80 00 74 1B 03 01 10 61  ..........t....a
1B70: 81 01 84 1B 02 00 10 18  80 00 7F 1B 01 84 1B 03  ................
1B80: 01 10 10 80 01 E1 1E 02  00 10 62 81 00 75 1C 03  ..........b..u..
1B90: 01 00 00 10 24 63 81 01  80 01 80 25 02 00 10 03  ....$c.....%....
1BA0: 80 00 AC 1B 03 01 10 61  81 01 72 1C 02 00 10 04  .......a..r.....
1BB0: 80 00 BC 1B 03 01 10 64  81 01 72 1C 02 00 10 07  .......d..r.....
1BC0: 80 00 CC 1B 03 01 10 65  81 01 72 1C 02 00 10 09  .......e..r.....
1BD0: 80 00 DC 1B 03 01 10 66  81 01 72 1C 02 00 10 0B  .......f..r.....
1BE0: 80 00 EC 1B 03 01 10 67  81 01 72 1C 02 00 10 0D  .......g..r.....
1BF0: 80 00 FC 1B 03 01 10 68  81 01 72 1C 02 00 10 0F  .......h..r.....
1C00: 80 00 0C 1C 03 01 10 69  81 01 72 1C 02 00 10 18  .......i..r.....
1C10: 80 00 1C 1C 03 01 10 6A  81 01 72 1C 02 00 10 38  .......j..r....8
1C20: 80 00 2F 1C 03 01 10 6A  81 0B 01 10 01 72 1C 02  ../....j.....r..
1C30: 00 10 41 80 00 3F 1C 03  01 10 6B 81 01 72 1C 02  ..A..?....k..r..
1C40: 00 10 48 80 00 52 1C 03  01 10 6C 81 0C 01 10 01  ..H..R....l.....
1C50: 72 1C 02 00 10 4E 80 00  62 1C 03 01 10 6C 81 01  r....N..b....l..
1C60: 72 1C 02 00 10 59 80 00  6D 1C 01 72 1C 03 01 10  r....Y..m..r....
1C70: 10 80 01 E1 1E 02 00 10  6D 81 00 DC 1E 03 01 00  ........m.......
1C80: 00 10 03 02 00 01 80 24  6E 81 02 00 01 80 25 02  .......$n.....%.
1C90: 00 10 03 80 00 B5 1C 02  00 00 6C 81 00 A7 1C 03  ..........l.....
1CA0: 01 10 48 80 01 B2 1C 48  6F 81 03 02 00 00 10 01  ..H....Ho.......
1CB0: 87 1C 01 D9 1E 02 00 10  04 80 00 DB 1C 02 00 00  ................
1CC0: 6C 81 00 CD 1C 03 01 10  4E 80 01 D8 1C 48 6F 81  l.......N....Ho.
1CD0: 03 02 00 00 10 01 87 1C  01 D9 1E 02 00 10 07 80  ................
1CE0: 00 01 1D 02 00 00 6C 81  00 F3 1C 03 01 10 59 80  ......l.......Y.
1CF0: 01 FE 1C 48 6F 81 03 02  00 00 10 01 87 1C 01 D9  ...Ho...........
1D00: 1E 02 00 10 09 80 00 27  1D 02 00 00 6C 81 00 19  .......'....l...
1D10: 1D 03 01 10 61 80 01 24  1D 48 6F 81 03 02 00 00  ....a..$.Ho.....
1D20: 10 01 87 1C 01 D9 1E 02  00 10 0B 80 00 4D 1D 02  .............M..
1D30: 00 00 6C 81 00 3F 1D 03  01 10 6B 80 01 4A 1D 48  ..l..?....k..J.H
1D40: 6F 81 03 02 00 00 10 01  87 1C 01 D9 1E 02 00 10  o...............
1D50: 0D 80 00 73 1D 02 00 00  6C 81 00 65 1D 03 01 10  ...s....l..e....
1D60: 74 80 01 70 1D 48 6F 81  03 02 00 00 10 01 87 1C  t..p.Ho.........
1D70: 01 D9 1E 02 00 10 0F 80  00 99 1D 02 00 00 6C 81  ..............l.
1D80: 00 8B 1D 03 01 10 7E 80  01 96 1D 48 6F 81 03 02  ......~....Ho...
1D90: 00 00 10 01 87 1C 01 D9  1E 02 00 10 18 80 00 BF  ................
1DA0: 1D 02 00 00 6C 81 00 B1  1D 03 01 10 86 80 01 BC  ....l...........
1DB0: 1D 48 6F 81 03 02 00 00  10 01 87 1C 01 D9 1E 02  .Ho.............
1DC0: 00 10 38 80 00 E5 1D 02  00 00 6C 81 00 D7 1D 03  ..8.......l.....
1DD0: 01 10 8E 80 01 E2 1D 48  6F 81 03 02 00 00 10 01  .......Ho.......
1DE0: 87 1C 01 D9 1E 02 00 10  41 80 00 0B 1E 02 00 00  ........A.......
1DF0: 6C 81 00 FD 1D 03 01 10  98 80 01 08 1E 48 6F 81  l............Ho.
1E00: 03 02 00 00 10 01 87 1C  01 D9 1E 02 00 10 48 80  ..............H.
1E10: 00 31 1E 02 00 00 6C 81  00 23 1E 03 01 10 A0 80  .1....l..#......
1E20: 01 2E 1E 48 6F 81 03 02  00 00 10 01 87 1C 01 D9  ...Ho...........
1E30: 1E 02 00 10 4E 80 00 57  1E 02 00 00 6C 81 00 49  ....N..W....l..I
1E40: 1E 03 01 10 A9 80 01 54  1E 48 6F 81 03 02 00 00  .......T.Ho.....
1E50: 10 01 87 1C 01 D9 1E 02  00 10 59 80 00 7D 1E 02  ..........Y..}..
1E60: 00 00 6C 81 00 6F 1E 03  01 10 B0 80 01 7A 1E 48  ..l..o.......z.H
1E70: 6F 81 03 02 00 00 10 01  87 1C 01 D9 1E 02 00 10  o...............
1E80: 61 80 00 A3 1E 02 00 00  6C 81 00 95 1E 03 01 10  a.......l.......
1E90: BB 80 01 A0 1E 48 6F 81  03 02 00 00 10 01 87 1C  .....Ho.........
1EA0: 01 D9 1E 02 00 10 6B 80  00 C9 1E 02 00 00 6C 81  ......k.......l.
1EB0: 00 BB 1E 03 01 10 C3 80  01 C6 1E 48 6F 81 03 02  ...........Ho...
1EC0: 00 00 10 01 87 1C 01 D9  1E 02 00 10 74 80 00 D4  ............t...
1ED0: 1E 01 D9 1E 03 01 10 10  80 01 E1 1E 03 01 10 10  ................
1EE0: 80 01 10 00 21 00                                 ....!.          
```

#### Opcodes

```
  0: 0x0001 [0x03] ExtData[1]->WorkLocal[0] = Work_Zone[2]
  1: 0x0006 [0x03] Work_Zone[1] = 4294967295*
  2: 0x000B [0x03] ExtData[1]->WorkLocal[1] = 0*
  3: 0x0010 [0x02] IF !(Work_Zone[1] >= 0*) GOTO 0x1EE4
  4: 0x0018 [0x24] CREATE_DIALOG(message_id=9261*, default_option=ExtData[1]->WorkLocal[1], option_flags=0*)
     "Select a quest for changing flags. [Nothing./Reset all falgs./1-1-1: The Gloom Phantom's Approach./1-1-2: The Brygid Cup./1-2-3: The Destiny Destroyers."-1-1: Kupipi's Dilemma."-1-2: The Cardian's Duty."-2-3: Zhuu Buxu's Gambit."-2-4: Star Onion Fortune."-2-5: The Doll Whisperer."-1-1: Dancing Prince."-1-2: Claidie's Concern."-2-3: Curilla Unleashed."-3-4: Run, Excenmille, Run!."-3-5: Of Knights and Orcs./4-1-1: Best Served Cold./4-1-2: Cornelia's Call to Action./4-2-3: Naja the Abitious./4-2-4: Raubahn the Blue./5-1-1: Ghatsad's Quandary./5-1-2: The Revelation./5-1-3: Tateeya's Worries./5-2-4: The Seagull Phratrie./5-2-5: The Sea Sage./6-1-1: Sky, Moon, Incantrix./6-1-2: Nii's Last Stand./6-2-3: Dance of the Tengu./7-1-1: Raebrimm's Rebirth./7-1-2: Uran-Mafran of the Maelstrom./7-2-3: Koru-Moru's Hypothesis./Flashback Event (Optional)./7-2-4: Altenia Burns Brights./8-1-1: Maat on the Rampage./8-2-2: Not Just a Pretty Face./8-2-3: Delkfutt the Great./9-1-1: Oshasha Violation./9-1-2: Phantasmic Heroes./9-2-3: Skokkr Undrborn's Temptation./9-3-4: The Prime Weapons./10-1-1: To Movalpolos!/10-1-2: Magh Bihu on the Prowl./10-1-3: 101 Dazbogs./10-2-4: Kipdrix the Faithful./10-2-5: Duke Alloces's Decision./10-3-6: Odin's Eye./11-1-1: Moglesse Oblige./11-2-2:@The Voracious Beast./Epilogue (voluntary).]"
  5: 0x001F [0x25] WAIT_DIALOG_SELECT()
  6: 0x0020 [0x02] IF !(Work_Zone[0] == 1*) GOTO 0x0030
  7: 0x0028 [0x03] Work_Zone[1] = 0*
  8: 0x002D [0x01] GOTO 0x1EE1
  9: 0x0030 [0x02] IF !(Work_Zone[0] == 2*) GOTO 0x00B8
 10: 0x0038 [0x03] ExtData[1]->WorkLocal[1] = Work_Zone[0]
 11: 0x003D [0x24] CREATE_DIALOG(message_id=9262*, default_option=0*, option_flags=0*)
     "Set The Gloom Phantom flags. [Make no changes./0: Opening Ready (pre-accepting)./110: Galkan child asked for aid (accepted)./112: Met Cornelia in the mines./114: Found child in the mines./116: Defeated black goblin./118: Filled Gumbah's request (completed)./Back.]"
 12: 0x0044 [0x25] WAIT_DIALOG_SELECT()
 13: 0x0045 [0x02] IF !(Work_Zone[0] == 1*) GOTO 0x0055
 14: 0x004D [0x03] Work_Zone[1] = 0*
 15: 0x0052 [0x01] GOTO 0x00B5
 16: 0x0055 [0x02] IF !(Work_Zone[0] == 2*) GOTO 0x0065
 17: 0x005D [0x03] Work_Zone[1] = 110*
 18: 0x0062 [0x01] GOTO 0x00B5
 19: 0x0065 [0x02] IF !(Work_Zone[0] == 3*) GOTO 0x0075
 20: 0x006D [0x03] Work_Zone[1] = 112*
 21: 0x0072 [0x01] GOTO 0x00B5
 22: 0x0075 [0x02] IF !(Work_Zone[0] == 4*) GOTO 0x0085
 23: 0x007D [0x03] Work_Zone[1] = 114*
 24: 0x0082 [0x01] GOTO 0x00B5
 25: 0x0085 [0x02] IF !(Work_Zone[0] == 5*) GOTO 0x0095
 26: 0x008D [0x03] Work_Zone[1] = 116*
 27: 0x0092 [0x01] GOTO 0x00B5
 28: 0x0095 [0x02] IF !(Work_Zone[0] == 6*) GOTO 0x00A5
 29: 0x009D [0x03] Work_Zone[1] = 118*
 30: 0x00A2 [0x01] GOTO 0x00B5
 31: 0x00A5 [0x02] IF !(Work_Zone[0] == 7*) GOTO 0x00B0
 32: 0x00AD [0x01] GOTO 0x00B5
 33: 0x00B0 [0x03] Work_Zone[1] = 1073741824*

SUBROUTINE_00B5:
 34: 0x00B5 [0x01] GOTO 0x1EE1
 35: 0x00B8 [0x02] IF !(Work_Zone[0] == 3*) GOTO 0x0150
 36: 0x00C0 [0x03] ExtData[1]->WorkLocal[1] = Work_Zone[0]
 37: 0x00C5 [0x24] CREATE_DIALOG(message_id=9263*, default_option=0*, option_flags=0*)
     "Set The Brygid Cup flags. [Make no changes./118: Filled Gumbah's request (pre-accepting)./120: Brygid asked for help (accepted)./122: Head about the cosplay event./124: Decided NPC to cosplay as./125: Cosplay assessment complete./126: Participated in the cosplay event./128: Filled Brrgid's request (completed)./Back.]"
 38: 0x00CC [0x25] WAIT_DIALOG_SELECT()
 39: 0x00CD [0x02] IF !(Work_Zone[0] == 1*) GOTO 0x00DD
 40: 0x00D5 [0x03] Work_Zone[1] = 118*
 41: 0x00DA [0x01] GOTO 0x014D
 42: 0x00DD [0x02] IF !(Work_Zone[0] == 2*) GOTO 0x00ED
 43: 0x00E5 [0x03] Work_Zone[1] = 120*
 44: 0x00EA [0x01] GOTO 0x014D
 45: 0x00ED [0x02] IF !(Work_Zone[0] == 3*) GOTO 0x00FD
 46: 0x00F5 [0x03] Work_Zone[1] = 122*
 47: 0x00FA [0x01] GOTO 0x014D
 48: 0x00FD [0x02] IF !(Work_Zone[0] == 4*) GOTO 0x010D
 49: 0x0105 [0x03] Work_Zone[1] = 124*
 50: 0x010A [0x01] GOTO 0x014D
 51: 0x010D [0x02] IF !(Work_Zone[0] == 5*) GOTO 0x011D
 52: 0x0115 [0x03] Work_Zone[1] = 125*
 53: 0x011A [0x01] GOTO 0x014D
 54: 0x011D [0x02] IF !(Work_Zone[0] == 6*) GOTO 0x012D
 55: 0x0125 [0x03] Work_Zone[1] = 126*
 56: 0x012A [0x01] GOTO 0x014D
 57: 0x012D [0x02] IF !(Work_Zone[0] == 7*) GOTO 0x013D
 58: 0x0135 [0x03] Work_Zone[1] = 128*
 59: 0x013A [0x01] GOTO 0x014D
 60: 0x013D [0x02] IF !(Work_Zone[0] == 8*) GOTO 0x0148
 61: 0x0145 [0x01] GOTO 0x014D
 62: 0x0148 [0x03] Work_Zone[1] = 1073741824*

SUBROUTINE_014D:
 63: 0x014D [0x01] GOTO 0x1EE1
 64: 0x0150 [0x02] IF !(Work_Zone[0] == 4*) GOTO 0x01E8
 65: 0x0158 [0x03] ExtData[1]->WorkLocal[1] = Work_Zone[0]
 66: 0x015D [0x24] CREATE_DIALOG(message_id=9264*, default_option=0*, option_flags=0*)
     "Set The Destiny Destroyers flags. [Make no changes./128:Filled Brygid's request (pre-accepting)./130: Asked to help Naji (accepted)./132: Found three beastmen in the caves./134: Defeated three beastmen./136: Three beastmen fled./137: Inventory full./138: Filled Gumbah's request (completed)./Back.]"
 67: 0x0164 [0x25] WAIT_DIALOG_SELECT()
 68: 0x0165 [0x02] IF !(Work_Zone[0] == 1*) GOTO 0x0175
 69: 0x016D [0x03] Work_Zone[1] = 128*
 70: 0x0172 [0x01] GOTO 0x01E5
 71: 0x0175 [0x02] IF !(Work_Zone[0] == 2*) GOTO 0x0185
 72: 0x017D [0x03] Work_Zone[1] = 130*
 73: 0x0182 [0x01] GOTO 0x01E5
 74: 0x0185 [0x02] IF !(Work_Zone[0] == 3*) GOTO 0x0195
 75: 0x018D [0x03] Work_Zone[1] = 132*
 76: 0x0192 [0x01] GOTO 0x01E5
 77: 0x0195 [0x02] IF !(Work_Zone[0] == 4*) GOTO 0x01A5
 78: 0x019D [0x03] Work_Zone[1] = 134*
 79: 0x01A2 [0x01] GOTO 0x01E5
 80: 0x01A5 [0x02] IF !(Work_Zone[0] == 5*) GOTO 0x01B5
 81: 0x01AD [0x03] Work_Zone[1] = 136*
 82: 0x01B2 [0x01] GOTO 0x01E5
 83: 0x01B5 [0x02] IF !(Work_Zone[0] == 6*) GOTO 0x01C5
 84: 0x01BD [0x03] Work_Zone[1] = 137*
 85: 0x01C2 [0x01] GOTO 0x01E5
 86: 0x01C5 [0x02] IF !(Work_Zone[0] == 7*) GOTO 0x01D5
 87: 0x01CD [0x03] Work_Zone[1] = 138*
 88: 0x01D2 [0x01] GOTO 0x01E5
 89: 0x01D5 [0x02] IF !(Work_Zone[0] == 8*) GOTO 0x01E0
 90: 0x01DD [0x01] GOTO 0x01E5
 91: 0x01E0 [0x03] Work_Zone[1] = 1073741824*

SUBROUTINE_01E5:
 92: 0x01E5 [0x01] GOTO 0x1EE1
 93: 0x01E8 [0x02] IF !(Work_Zone[0] == 5*) GOTO 0x0260
 94: 0x01F0 [0x03] ExtData[1]->WorkLocal[1] = Work_Zone[0]
 95: 0x01F5 [0x24] CREATE_DIALOG(message_id=9265*, default_option=0*, option_flags=0*)
     "Set Kupipi's Dilemma flags. [Make no changes./138: Filled Gumbah's request (pre-accepting)./140: Asked to find the truth (accepted)./142: Asked for last meal./144: Asked to report to Shantotto./146: Filled Kupipi's request (completed)./Back.]"
 96: 0x01FC [0x25] WAIT_DIALOG_SELECT()
 97: 0x01FD [0x02] IF !(Work_Zone[0] == 1*) GOTO 0x020D
 98: 0x0205 [0x03] Work_Zone[1] = 138*
 99: 0x020A [0x01] GOTO 0x025D
100: 0x020D [0x02] IF !(Work_Zone[0] == 2*) GOTO 0x021D
101: 0x0215 [0x03] Work_Zone[1] = 140*
102: 0x021A [0x01] GOTO 0x025D
103: 0x021D [0x02] IF !(Work_Zone[0] == 3*) GOTO 0x022D
104: 0x0225 [0x03] Work_Zone[1] = 142*
105: 0x022A [0x01] GOTO 0x025D
106: 0x022D [0x02] IF !(Work_Zone[0] == 4*) GOTO 0x023D
107: 0x0235 [0x03] Work_Zone[1] = 144*
108: 0x023A [0x01] GOTO 0x025D
109: 0x023D [0x02] IF !(Work_Zone[0] == 5*) GOTO 0x024D
110: 0x0245 [0x03] Work_Zone[1] = 146*
111: 0x024A [0x01] GOTO 0x025D
112: 0x024D [0x02] IF !(Work_Zone[0] == 6*) GOTO 0x0258
113: 0x0255 [0x01] GOTO 0x025D
114: 0x0258 [0x03] Work_Zone[1] = 1073741824*

SUBROUTINE_025D:
115: 0x025D [0x01] GOTO 0x1EE1
116: 0x0260 [0x02] IF !(Work_Zone[0] == 6*) GOTO 0x02F8
117: 0x0268 [0x03] ExtData[1]->WorkLocal[1] = Work_Zone[0]
118: 0x026D [0x24] CREATE_DIALOG(message_id=9266*, default_option=0*, option_flags=0*)
     "Set The Cardians' Duty flags. [Make no changes./146: Filled Kupipi's request (pre-accepting)./148: Asked to invetigate the evil (accepted)./150: Asked to search for the cardian./152: Found the cardian./154: Defeated the Yagudo./156: Talked with the cardian./158: Filled Shantotto's request (completed)./Back.]"
119: 0x0274 [0x25] WAIT_DIALOG_SELECT()
120: 0x0275 [0x02] IF !(Work_Zone[0] == 1*) GOTO 0x0285
121: 0x027D [0x03] Work_Zone[1] = 146*
122: 0x0282 [0x01] GOTO 0x02F5
123: 0x0285 [0x02] IF !(Work_Zone[0] == 2*) GOTO 0x0295
124: 0x028D [0x03] Work_Zone[1] = 148*
125: 0x0292 [0x01] GOTO 0x02F5
126: 0x0295 [0x02] IF !(Work_Zone[0] == 3*) GOTO 0x02A5
127: 0x029D [0x03] Work_Zone[1] = 150*
128: 0x02A2 [0x01] GOTO 0x02F5
129: 0x02A5 [0x02] IF !(Work_Zone[0] == 4*) GOTO 0x02B5
130: 0x02AD [0x03] Work_Zone[1] = 152*
131: 0x02B2 [0x01] GOTO 0x02F5
132: 0x02B5 [0x02] IF !(Work_Zone[0] == 5*) GOTO 0x02C5
133: 0x02BD [0x03] Work_Zone[1] = 154*
134: 0x02C2 [0x01] GOTO 0x02F5
135: 0x02C5 [0x02] IF !(Work_Zone[0] == 6*) GOTO 0x02D5
136: 0x02CD [0x03] Work_Zone[1] = 156*
137: 0x02D2 [0x01] GOTO 0x02F5
138: 0x02D5 [0x02] IF !(Work_Zone[0] == 7*) GOTO 0x02E5
139: 0x02DD [0x03] Work_Zone[1] = 158*
140: 0x02E2 [0x01] GOTO 0x02F5
141: 0x02E5 [0x02] IF !(Work_Zone[0] == 8*) GOTO 0x02F0
142: 0x02ED [0x01] GOTO 0x02F5
143: 0x02F0 [0x03] Work_Zone[1] = 1073741824*

SUBROUTINE_02F5:
144: 0x02F5 [0x01] GOTO 0x1EE1
145: 0x02F8 [0x02] IF !(Work_Zone[0] == 7*) GOTO 0x0380
146: 0x0300 [0x03] ExtData[1]->WorkLocal[1] = Work_Zone[0]
147: 0x0305 [0x24] CREATE_DIALOG(message_id=9267*, default_option=0*, option_flags=0*)
     "Set Zhuu Buxu's Gambit flags. [Make no changes./158: Filled Shantotto's request (pre-accepting)./160: Asked to deliver summons (accepted)./162: Asked to find doll./164: Defeated the Yagudo./166: Talked with Zhuu Buxu./168: Reported to Tosuka-Porika (completed)./Back.]"
148: 0x030C [0x25] WAIT_DIALOG_SELECT()
149: 0x030D [0x02] IF !(Work_Zone[0] == 1*) GOTO 0x031D
150: 0x0315 [0x03] Work_Zone[1] = 158*
151: 0x031A [0x01] GOTO 0x037D
152: 0x031D [0x02] IF !(Work_Zone[0] == 2*) GOTO 0x032D
153: 0x0325 [0x03] Work_Zone[1] = 160*
154: 0x032A [0x01] GOTO 0x037D
155: 0x032D [0x02] IF !(Work_Zone[0] == 3*) GOTO 0x033D
156: 0x0335 [0x03] Work_Zone[1] = 162*
157: 0x033A [0x01] GOTO 0x037D
158: 0x033D [0x02] IF !(Work_Zone[0] == 4*) GOTO 0x034D
159: 0x0345 [0x03] Work_Zone[1] = 164*
160: 0x034A [0x01] GOTO 0x037D
161: 0x034D [0x02] IF !(Work_Zone[0] == 5*) GOTO 0x035D
162: 0x0355 [0x03] Work_Zone[1] = 166*
163: 0x035A [0x01] GOTO 0x037D
164: 0x035D [0x02] IF !(Work_Zone[0] == 6*) GOTO 0x036D
165: 0x0365 [0x03] Work_Zone[1] = 168*
166: 0x036A [0x01] GOTO 0x037D
167: 0x036D [0x02] IF !(Work_Zone[0] == 7*) GOTO 0x0378
168: 0x0375 [0x01] GOTO 0x037D
169: 0x0378 [0x03] Work_Zone[1] = 1073741824*

SUBROUTINE_037D:
170: 0x037D [0x01] GOTO 0x1EE1
171: 0x0380 [0x02] IF !(Work_Zone[0] == 8*) GOTO 0x042E
172: 0x0388 [0x03] ExtData[1]->WorkLocal[1] = Work_Zone[0]
173: 0x038D [0x24] CREATE_DIALOG(message_id=9268*, default_option=0*, option_flags=0*)
     "Set Star Onion Fortune flags. [Make no changes./168: Reported to Tosuka-Porika (pre-accepting)./170: Asked to deliver strange doll (accepted)./172: Asked to decode letter (un-decoded)./172: Asked to decode letter (decoded)./174: Asked to find perfect egg (no egg)./174: Asked to find perfect egg (have egg)./176: Inventory full./178: Filled Star Onion Brigade's request (completed)./Back.]"
174: 0x0394 [0x25] WAIT_DIALOG_SELECT()
175: 0x0395 [0x02] IF !(Work_Zone[0] == 1*) GOTO 0x03A5
176: 0x039D [0x03] Work_Zone[1] = 168*
177: 0x03A2 [0x01] GOTO 0x042B
178: 0x03A5 [0x02] IF !(Work_Zone[0] == 2*) GOTO 0x03B5
179: 0x03AD [0x03] Work_Zone[1] = 170*
180: 0x03B2 [0x01] GOTO 0x042B
181: 0x03B5 [0x02] IF !(Work_Zone[0] == 3*) GOTO 0x03C5
182: 0x03BD [0x03] Work_Zone[1] = 172*
183: 0x03C2 [0x01] GOTO 0x042B
184: 0x03C5 [0x02] IF !(Work_Zone[0] == 4*) GOTO 0x03D8
185: 0x03CD [0x03] Work_Zone[1] = 172*
186: 0x03D2 [0x0B] Work_Zone[1]++
187: 0x03D5 [0x01] GOTO 0x042B
188: 0x03D8 [0x02] IF !(Work_Zone[0] == 5*) GOTO 0x03E8
189: 0x03E0 [0x03] Work_Zone[1] = 174*
190: 0x03E5 [0x01] GOTO 0x042B
191: 0x03E8 [0x02] IF !(Work_Zone[0] == 6*) GOTO 0x03FB
192: 0x03F0 [0x03] Work_Zone[1] = 174*
193: 0x03F5 [0x0B] Work_Zone[1]++
194: 0x03F8 [0x01] GOTO 0x042B
195: 0x03FB [0x02] IF !(Work_Zone[0] == 7*) GOTO 0x040B
196: 0x0403 [0x03] Work_Zone[1] = 176*
197: 0x0408 [0x01] GOTO 0x042B
198: 0x040B [0x02] IF !(Work_Zone[0] == 8*) GOTO 0x041B
199: 0x0413 [0x03] Work_Zone[1] = 178*
200: 0x0418 [0x01] GOTO 0x042B
201: 0x041B [0x02] IF !(Work_Zone[0] == 9*) GOTO 0x0426
202: 0x0423 [0x01] GOTO 0x042B
203: 0x0426 [0x03] Work_Zone[1] = 1073741824*

SUBROUTINE_042B:
204: 0x042B [0x01] GOTO 0x1EE1
205: 0x042E [0x02] IF !(Work_Zone[0] == 9*) GOTO 0x04D6
206: 0x0436 [0x03] ExtData[1]->WorkLocal[1] = Work_Zone[0]
207: 0x043B [0x24] CREATE_DIALOG(message_id=9269*, default_option=0*, option_flags=0*)
     "Set The Doll Whisperer flags. [Make no changes./178: Filled Star Onion Brigade's request (pre-accepting)./180: Told to head to exchange location (accepted)./182: Found Honoi-Gomoi./184: Defeated the guards./186: Took back the doll./188: Asked to return doll./190: Inventory full./192: Returned doll (complete)./Back.]"
208: 0x0442 [0x25] WAIT_DIALOG_SELECT()
209: 0x0443 [0x02] IF !(Work_Zone[0] == 1*) GOTO 0x0453
210: 0x044B [0x03] Work_Zone[1] = 178*
211: 0x0450 [0x01] GOTO 0x04D3
212: 0x0453 [0x02] IF !(Work_Zone[0] == 2*) GOTO 0x0463
213: 0x045B [0x03] Work_Zone[1] = 180*
214: 0x0460 [0x01] GOTO 0x04D3
215: 0x0463 [0x02] IF !(Work_Zone[0] == 3*) GOTO 0x0473
216: 0x046B [0x03] Work_Zone[1] = 182*
217: 0x0470 [0x01] GOTO 0x04D3
218: 0x0473 [0x02] IF !(Work_Zone[0] == 4*) GOTO 0x0483
219: 0x047B [0x03] Work_Zone[1] = 184*
220: 0x0480 [0x01] GOTO 0x04D3
221: 0x0483 [0x02] IF !(Work_Zone[0] == 5*) GOTO 0x0493
222: 0x048B [0x03] Work_Zone[1] = 186*
223: 0x0490 [0x01] GOTO 0x04D3
224: 0x0493 [0x02] IF !(Work_Zone[0] == 6*) GOTO 0x04A3
225: 0x049B [0x03] Work_Zone[1] = 188*
226: 0x04A0 [0x01] GOTO 0x04D3
227: 0x04A3 [0x02] IF !(Work_Zone[0] == 7*) GOTO 0x04B3
228: 0x04AB [0x03] Work_Zone[1] = 190*
229: 0x04B0 [0x01] GOTO 0x04D3
230: 0x04B3 [0x02] IF !(Work_Zone[0] == 8*) GOTO 0x04C3
231: 0x04BB [0x03] Work_Zone[1] = 192*
232: 0x04C0 [0x01] GOTO 0x04D3
233: 0x04C3 [0x02] IF !(Work_Zone[0] == 9*) GOTO 0x04CE
234: 0x04CB [0x01] GOTO 0x04D3
235: 0x04CE [0x03] Work_Zone[1] = 1073741824*

SUBROUTINE_04D3:
236: 0x04D3 [0x01] GOTO 0x1EE1
237: 0x04D6 [0x02] IF !(Work_Zone[0] == 10*) GOTO 0x0571
238: 0x04DE [0x03] ExtData[1]->WorkLocal[1] = Work_Zone[0]
239: 0x04E3 [0x24] CREATE_DIALOG(message_id=9270*, default_option=0*, option_flags=0*)
     "Set Dancing Prince flags. [Make no changes./192: Returned doll (pre-accepting)./194: Asked to help Rahal (accepted)./196: Asked to receive report./198: Asked to search for the map./198: Asked to search for the map + victorious in battle."00: Asked to report to Rahal."02: Reported to Rahal (complete)./Back.]"
240: 0x04EA [0x25] WAIT_DIALOG_SELECT()
241: 0x04EB [0x02] IF !(Work_Zone[0] == 1*) GOTO 0x04FB
242: 0x04F3 [0x03] Work_Zone[1] = 192*
243: 0x04F8 [0x01] GOTO 0x056E
244: 0x04FB [0x02] IF !(Work_Zone[0] == 2*) GOTO 0x050B
245: 0x0503 [0x03] Work_Zone[1] = 194*
246: 0x0508 [0x01] GOTO 0x056E
247: 0x050B [0x02] IF !(Work_Zone[0] == 3*) GOTO 0x051B
248: 0x0513 [0x03] Work_Zone[1] = 196*
249: 0x0518 [0x01] GOTO 0x056E
250: 0x051B [0x02] IF !(Work_Zone[0] == 4*) GOTO 0x052B
251: 0x0523 [0x03] Work_Zone[1] = 198*
252: 0x0528 [0x01] GOTO 0x056E
253: 0x052B [0x02] IF !(Work_Zone[0] == 5*) GOTO 0x053E
254: 0x0533 [0x03] Work_Zone[1] = 198*
255: 0x0538 [0x0B] Work_Zone[1]++
256: 0x053B [0x01] GOTO 0x056E
257: 0x053E [0x02] IF !(Work_Zone[0] == 6*) GOTO 0x054E
258: 0x0546 [0x03] Work_Zone[1] = 200*
259: 0x054B [0x01] GOTO 0x056E
260: 0x054E [0x02] IF !(Work_Zone[0] == 7*) GOTO 0x055E
261: 0x0556 [0x03] Work_Zone[1] = 202*
262: 0x055B [0x01] GOTO 0x056E
263: 0x055E [0x02] IF !(Work_Zone[0] == 8*) GOTO 0x0569
264: 0x0566 [0x01] GOTO 0x056E
265: 0x0569 [0x03] Work_Zone[1] = 1073741824*

SUBROUTINE_056E:
266: 0x056E [0x01] GOTO 0x1EE1
267: 0x0571 [0x02] IF !(Work_Zone[0] == 11*) GOTO 0x05FC
268: 0x0579 [0x03] ExtData[1]->WorkLocal[1] = Work_Zone[0]
269: 0x057E [0x24] CREATE_DIALOG(message_id=9271*, default_option=0*, option_flags=0*)
     "Set Claidie's Concern flags. [Make no changes."02: Reported to Rahal (pre-accepting)."04: Asked to check the medicine (accepted)."06: Asked to find the flower (not yet found)."06: Asked to find the flower (have the flower)."08: Delivered the flower."10: Reported to Halver (complete)./Back.]"
270: 0x0585 [0x25] WAIT_DIALOG_SELECT()
271: 0x0586 [0x02] IF !(Work_Zone[0] == 1*) GOTO 0x0596
272: 0x058E [0x03] Work_Zone[1] = 202*
273: 0x0593 [0x01] GOTO 0x05F9
274: 0x0596 [0x02] IF !(Work_Zone[0] == 2*) GOTO 0x05A6
275: 0x059E [0x03] Work_Zone[1] = 204*
276: 0x05A3 [0x01] GOTO 0x05F9
277: 0x05A6 [0x02] IF !(Work_Zone[0] == 3*) GOTO 0x05B6
278: 0x05AE [0x03] Work_Zone[1] = 206*
279: 0x05B3 [0x01] GOTO 0x05F9
280: 0x05B6 [0x02] IF !(Work_Zone[0] == 4*) GOTO 0x05C9
281: 0x05BE [0x03] Work_Zone[1] = 206*
282: 0x05C3 [0x0B] Work_Zone[1]++
283: 0x05C6 [0x01] GOTO 0x05F9
284: 0x05C9 [0x02] IF !(Work_Zone[0] == 5*) GOTO 0x05D9
285: 0x05D1 [0x03] Work_Zone[1] = 208*
286: 0x05D6 [0x01] GOTO 0x05F9
287: 0x05D9 [0x02] IF !(Work_Zone[0] == 6*) GOTO 0x05E9
288: 0x05E1 [0x03] Work_Zone[1] = 210*
289: 0x05E6 [0x01] GOTO 0x05F9
290: 0x05E9 [0x02] IF !(Work_Zone[0] == 7*) GOTO 0x05F4
291: 0x05F1 [0x01] GOTO 0x05F9
292: 0x05F4 [0x03] Work_Zone[1] = 1073741824*

SUBROUTINE_05F9:
293: 0x05F9 [0x01] GOTO 0x1EE1
294: 0x05FC [0x02] IF !(Work_Zone[0] == 12*) GOTO 0x06C4
295: 0x0604 [0x03] ExtData[1]->WorkLocal[1] = Work_Zone[0]
296: 0x0609 [0x24] CREATE_DIALOG(message_id=9272*, default_option=0*, option_flags=0*)
     "Set Curilla Unleashed flags. [Make no changes."10: Reported to Halver (pre-accepting)."12: Asked to deliver letter (accepted)."14: Defeated the smilodon."16: Handed over the letter."18: Asked to pursuade Trion."20: Told to go to the prison."22: Defeated Trion."24: Trion made his decision."26: Inventory full."28: Heard Curilla's story (complete)./Back.]"
297: 0x0610 [0x25] WAIT_DIALOG_SELECT()
298: 0x0611 [0x02] IF !(Work_Zone[0] == 1*) GOTO 0x0621
299: 0x0619 [0x03] Work_Zone[1] = 210*
300: 0x061E [0x01] GOTO 0x06C1
301: 0x0621 [0x02] IF !(Work_Zone[0] == 2*) GOTO 0x0631
302: 0x0629 [0x03] Work_Zone[1] = 212*
303: 0x062E [0x01] GOTO 0x06C1
304: 0x0631 [0x02] IF !(Work_Zone[0] == 3*) GOTO 0x0641
305: 0x0639 [0x03] Work_Zone[1] = 214*
306: 0x063E [0x01] GOTO 0x06C1
307: 0x0641 [0x02] IF !(Work_Zone[0] == 4*) GOTO 0x0651
308: 0x0649 [0x03] Work_Zone[1] = 216*
309: 0x064E [0x01] GOTO 0x06C1
310: 0x0651 [0x02] IF !(Work_Zone[0] == 5*) GOTO 0x0661
311: 0x0659 [0x03] Work_Zone[1] = 218*
312: 0x065E [0x01] GOTO 0x06C1
313: 0x0661 [0x02] IF !(Work_Zone[0] == 6*) GOTO 0x0671
314: 0x0669 [0x03] Work_Zone[1] = 220*
315: 0x066E [0x01] GOTO 0x06C1
316: 0x0671 [0x02] IF !(Work_Zone[0] == 7*) GOTO 0x0681
317: 0x0679 [0x03] Work_Zone[1] = 222*
318: 0x067E [0x01] GOTO 0x06C1
319: 0x0681 [0x02] IF !(Work_Zone[0] == 8*) GOTO 0x0691
320: 0x0689 [0x03] Work_Zone[1] = 224*
321: 0x068E [0x01] GOTO 0x06C1
322: 0x0691 [0x02] IF !(Work_Zone[0] == 9*) GOTO 0x06A1
323: 0x0699 [0x03] Work_Zone[1] = 226*
324: 0x069E [0x01] GOTO 0x06C1
325: 0x06A1 [0x02] IF !(Work_Zone[0] == 10*) GOTO 0x06B1
326: 0x06A9 [0x03] Work_Zone[1] = 228*
327: 0x06AE [0x01] GOTO 0x06C1
328: 0x06B1 [0x02] IF !(Work_Zone[0] == 11*) GOTO 0x06BC
329: 0x06B9 [0x01] GOTO 0x06C1
330: 0x06BC [0x03] Work_Zone[1] = 1073741824*

SUBROUTINE_06C1:
331: 0x06C1 [0x01] GOTO 0x1EE1
332: 0x06C4 [0x02] IF !(Work_Zone[0] == 13*) GOTO 0x075F
333: 0x06CC [0x03] ExtData[1]->WorkLocal[1] = Work_Zone[0]
334: 0x06D1 [0x24] CREATE_DIALOG(message_id=9273*, default_option=0*, option_flags=0*)
     "Set Run, Excenmille, Run flags. [Make no changes."28: Heard Curilla's story (pre-accepting)."30: Talked to Trion (accepted)."32: Asked to investigate."34: Defeated Orc minions."36: Talked with Excenmille."38: Inventory full."40: Met Orc boss (complete)./Back.]"
335: 0x06D8 [0x25] WAIT_DIALOG_SELECT()
336: 0x06D9 [0x02] IF !(Work_Zone[0] == 1*) GOTO 0x06EC
337: 0x06E1 [0x03] Work_Zone[1] = 228*
338: 0x06E6 [0x0B] Work_Zone[1]++
339: 0x06E9 [0x01] GOTO 0x075C
340: 0x06EC [0x02] IF !(Work_Zone[0] == 2*) GOTO 0x06FC
341: 0x06F4 [0x03] Work_Zone[1] = 230*
342: 0x06F9 [0x01] GOTO 0x075C
343: 0x06FC [0x02] IF !(Work_Zone[0] == 3*) GOTO 0x070C
344: 0x0704 [0x03] Work_Zone[1] = 232*
345: 0x0709 [0x01] GOTO 0x075C
346: 0x070C [0x02] IF !(Work_Zone[0] == 4*) GOTO 0x071C
347: 0x0714 [0x03] Work_Zone[1] = 234*
348: 0x0719 [0x01] GOTO 0x075C
349: 0x071C [0x02] IF !(Work_Zone[0] == 5*) GOTO 0x072C
350: 0x0724 [0x03] Work_Zone[1] = 236*
351: 0x0729 [0x01] GOTO 0x075C
352: 0x072C [0x02] IF !(Work_Zone[0] == 6*) GOTO 0x073C
353: 0x0734 [0x03] Work_Zone[1] = 238*
354: 0x0739 [0x01] GOTO 0x075C
355: 0x073C [0x02] IF !(Work_Zone[0] == 7*) GOTO 0x074C
356: 0x0744 [0x03] Work_Zone[1] = 240*
357: 0x0749 [0x01] GOTO 0x075C
358: 0x074C [0x02] IF !(Work_Zone[0] == 8*) GOTO 0x0757
359: 0x0754 [0x01] GOTO 0x075C
360: 0x0757 [0x03] Work_Zone[1] = 1073741824*

SUBROUTINE_075C:
361: 0x075C [0x01] GOTO 0x1EE1
362: 0x075F [0x02] IF !(Work_Zone[0] == 14*) GOTO 0x0817
363: 0x0767 [0x03] ExtData[1]->WorkLocal[1] = Work_Zone[0]
364: 0x076C [0x24] CREATE_DIALOG(message_id=9274*, default_option=0*, option_flags=0*)
     "Set Of Knight and Orcs flags. [Make no changes."40: Met Orc boss (pre-accepting)."42: Asked to search for knights (accepted)."44: Traded item (LD rescued)."46: Rescued Altennia."48: World Eater Egg broken."50: Defeated Orc boss."52: Asked to report to Trion."54: Inventory full."56: Reported to Trion (complete)./Back.]"
365: 0x0773 [0x25] WAIT_DIALOG_SELECT()
366: 0x0774 [0x02] IF !(Work_Zone[0] == 1*) GOTO 0x0784
367: 0x077C [0x03] Work_Zone[1] = 240*
368: 0x0781 [0x01] GOTO 0x0814
369: 0x0784 [0x02] IF !(Work_Zone[0] == 2*) GOTO 0x0794
370: 0x078C [0x03] Work_Zone[1] = 242*
371: 0x0791 [0x01] GOTO 0x0814
372: 0x0794 [0x02] IF !(Work_Zone[0] == 3*) GOTO 0x07A4
373: 0x079C [0x03] Work_Zone[1] = 244*
374: 0x07A1 [0x01] GOTO 0x0814
375: 0x07A4 [0x02] IF !(Work_Zone[0] == 4*) GOTO 0x07B4
376: 0x07AC [0x03] Work_Zone[1] = 246*
377: 0x07B1 [0x01] GOTO 0x0814
378: 0x07B4 [0x02] IF !(Work_Zone[0] == 5*) GOTO 0x07C4
379: 0x07BC [0x03] Work_Zone[1] = 248*
380: 0x07C1 [0x01] GOTO 0x0814
381: 0x07C4 [0x02] IF !(Work_Zone[0] == 6*) GOTO 0x07D4
382: 0x07CC [0x03] Work_Zone[1] = 250*
383: 0x07D1 [0x01] GOTO 0x0814
384: 0x07D4 [0x02] IF !(Work_Zone[0] == 7*) GOTO 0x07E4
385: 0x07DC [0x03] Work_Zone[1] = 252*
386: 0x07E1 [0x01] GOTO 0x0814
387: 0x07E4 [0x02] IF !(Work_Zone[0] == 8*) GOTO 0x07F4
388: 0x07EC [0x03] Work_Zone[1] = 254*
389: 0x07F1 [0x01] GOTO 0x0814
390: 0x07F4 [0x02] IF !(Work_Zone[0] == 9*) GOTO 0x0804
391: 0x07FC [0x03] Work_Zone[1] = 256*
392: 0x0801 [0x01] GOTO 0x0814
393: 0x0804 [0x02] IF !(Work_Zone[0] == 10*) GOTO 0x080F
394: 0x080C [0x01] GOTO 0x0814
395: 0x080F [0x03] Work_Zone[1] = 1073741824*

SUBROUTINE_0814:
396: 0x0814 [0x01] GOTO 0x1EE1
397: 0x0817 [0x02] IF !(Work_Zone[0] == 15*) GOTO 0x08BF
398: 0x081F [0x03] ExtData[1]->WorkLocal[1] = Work_Zone[0]
399: 0x0824 [0x24] CREATE_DIALOG(message_id=9275*, default_option=0*, option_flags=0*)
     "Set Best Served Cold flags. [Make no changes."56: Reported to Trion (pre-accepting)."58: Heard Gumbah's story (accepted)."60: Met with Raebrimm."62: Saw the Quadav."64: Quadav attacked."66: Defeated Quadav."68: Inventory full."70: Ayame arrived (complete)./Back.]"
400: 0x082B [0x25] WAIT_DIALOG_SELECT()
401: 0x082C [0x02] IF !(Work_Zone[0] == 1*) GOTO 0x083C
402: 0x0834 [0x03] Work_Zone[1] = 256*
403: 0x0839 [0x01] GOTO 0x08BC
404: 0x083C [0x02] IF !(Work_Zone[0] == 2*) GOTO 0x084C
405: 0x0844 [0x03] Work_Zone[1] = 258*
406: 0x0849 [0x01] GOTO 0x08BC
407: 0x084C [0x02] IF !(Work_Zone[0] == 3*) GOTO 0x085C
408: 0x0854 [0x03] Work_Zone[1] = 260*
409: 0x0859 [0x01] GOTO 0x08BC
410: 0x085C [0x02] IF !(Work_Zone[0] == 4*) GOTO 0x086C
411: 0x0864 [0x03] Work_Zone[1] = 262*
412: 0x0869 [0x01] GOTO 0x08BC
413: 0x086C [0x02] IF !(Work_Zone[0] == 5*) GOTO 0x087C
414: 0x0874 [0x03] Work_Zone[1] = 264*
415: 0x0879 [0x01] GOTO 0x08BC
416: 0x087C [0x02] IF !(Work_Zone[0] == 6*) GOTO 0x088C
417: 0x0884 [0x03] Work_Zone[1] = 266*
418: 0x0889 [0x01] GOTO 0x08BC
419: 0x088C [0x02] IF !(Work_Zone[0] == 7*) GOTO 0x089C
420: 0x0894 [0x03] Work_Zone[1] = 268*
421: 0x0899 [0x01] GOTO 0x08BC
422: 0x089C [0x02] IF !(Work_Zone[0] == 8*) GOTO 0x08AC
423: 0x08A4 [0x03] Work_Zone[1] = 270*
424: 0x08A9 [0x01] GOTO 0x08BC
425: 0x08AC [0x02] IF !(Work_Zone[0] == 9*) GOTO 0x08B7
426: 0x08B4 [0x01] GOTO 0x08BC
427: 0x08B7 [0x03] Work_Zone[1] = 1073741824*

SUBROUTINE_08BC:
428: 0x08BC [0x01] GOTO 0x1EE1
429: 0x08BF [0x02] IF !(Work_Zone[0] == 16*) GOTO 0x0977
430: 0x08C7 [0x03] ExtData[1]->WorkLocal[1] = Work_Zone[0]
431: 0x08CC [0x24] CREATE_DIALOG(message_id=9276*, default_option=0*, option_flags=0*)
     "Set Cornelia's Call to Action flags. [Make no changes."70: Ayame arrived (pre-accepting)."72: Asked to investigate the Quadav (accepted)."74: Met with Uran-Mafran."76: Met with the Destiry Destroyers."78: Defeated the scorpion."80: Inventory full 1."82: Talked with Uran-Mafran."84: Inventory full 2."86: Reported to Cornelia (complete)./Back.]"
432: 0x08D3 [0x25] WAIT_DIALOG_SELECT()
433: 0x08D4 [0x02] IF !(Work_Zone[0] == 1*) GOTO 0x08E4
434: 0x08DC [0x03] Work_Zone[1] = 270*
435: 0x08E1 [0x01] GOTO 0x0974
436: 0x08E4 [0x02] IF !(Work_Zone[0] == 2*) GOTO 0x08F4
437: 0x08EC [0x03] Work_Zone[1] = 272*
438: 0x08F1 [0x01] GOTO 0x0974
439: 0x08F4 [0x02] IF !(Work_Zone[0] == 3*) GOTO 0x0904
440: 0x08FC [0x03] Work_Zone[1] = 274*
441: 0x0901 [0x01] GOTO 0x0974
442: 0x0904 [0x02] IF !(Work_Zone[0] == 4*) GOTO 0x0914
443: 0x090C [0x03] Work_Zone[1] = 276*
444: 0x0911 [0x01] GOTO 0x0974
445: 0x0914 [0x02] IF !(Work_Zone[0] == 5*) GOTO 0x0924
446: 0x091C [0x03] Work_Zone[1] = 278*
447: 0x0921 [0x01] GOTO 0x0974
448: 0x0924 [0x02] IF !(Work_Zone[0] == 6*) GOTO 0x0934
449: 0x092C [0x03] Work_Zone[1] = 280*
450: 0x0931 [0x01] GOTO 0x0974
451: 0x0934 [0x02] IF !(Work_Zone[0] == 7*) GOTO 0x0944
452: 0x093C [0x03] Work_Zone[1] = 282*
453: 0x0941 [0x01] GOTO 0x0974
454: 0x0944 [0x02] IF !(Work_Zone[0] == 8*) GOTO 0x0954
455: 0x094C [0x03] Work_Zone[1] = 284*
456: 0x0951 [0x01] GOTO 0x0974
457: 0x0954 [0x02] IF !(Work_Zone[0] == 9*) GOTO 0x0964
458: 0x095C [0x03] Work_Zone[1] = 286*
459: 0x0961 [0x01] GOTO 0x0974
460: 0x0964 [0x02] IF !(Work_Zone[0] == 10*) GOTO 0x096F
461: 0x096C [0x01] GOTO 0x0974
462: 0x096F [0x03] Work_Zone[1] = 1073741824*

SUBROUTINE_0974:
463: 0x0974 [0x01] GOTO 0x1EE1
464: 0x0977 [0x02] IF !(Work_Zone[0] == 17*) GOTO 0x0A0F
465: 0x097F [0x03] ExtData[1]->WorkLocal[1] = Work_Zone[0]
466: 0x0984 [0x24] CREATE_DIALOG(message_id=9277*, default_option=0*, option_flags=0*)
     "Set Naja the Amibitious flags. [Make no changes."86: Reported to Cornelia (pre-accepting)."88: Asked to invetigate monsters (accepted)."90: Found black soulflayer."92: Defeated black soulflayer."94: Talked with Raubahn."96: Inventory full."98: Reported to Naja (complete)./Back.]"
467: 0x098B [0x25] WAIT_DIALOG_SELECT()
468: 0x098C [0x02] IF !(Work_Zone[0] == 1*) GOTO 0x099C
469: 0x0994 [0x03] Work_Zone[1] = 286*
470: 0x0999 [0x01] GOTO 0x0A0C
471: 0x099C [0x02] IF !(Work_Zone[0] == 2*) GOTO 0x09AC
472: 0x09A4 [0x03] Work_Zone[1] = 288*
473: 0x09A9 [0x01] GOTO 0x0A0C
474: 0x09AC [0x02] IF !(Work_Zone[0] == 3*) GOTO 0x09BC
475: 0x09B4 [0x03] Work_Zone[1] = 290*
476: 0x09B9 [0x01] GOTO 0x0A0C
477: 0x09BC [0x02] IF !(Work_Zone[0] == 4*) GOTO 0x09CC
478: 0x09C4 [0x03] Work_Zone[1] = 292*
479: 0x09C9 [0x01] GOTO 0x0A0C
480: 0x09CC [0x02] IF !(Work_Zone[0] == 5*) GOTO 0x09DC
481: 0x09D4 [0x03] Work_Zone[1] = 294*
482: 0x09D9 [0x01] GOTO 0x0A0C
483: 0x09DC [0x02] IF !(Work_Zone[0] == 6*) GOTO 0x09EC
484: 0x09E4 [0x03] Work_Zone[1] = 296*
485: 0x09E9 [0x01] GOTO 0x0A0C
486: 0x09EC [0x02] IF !(Work_Zone[0] == 7*) GOTO 0x09FC
487: 0x09F4 [0x03] Work_Zone[1] = 298*
488: 0x09F9 [0x01] GOTO 0x0A0C
489: 0x09FC [0x02] IF !(Work_Zone[0] == 8*) GOTO 0x0A07
490: 0x0A04 [0x01] GOTO 0x0A0C
491: 0x0A07 [0x03] Work_Zone[1] = 1073741824*

SUBROUTINE_0A0C:
492: 0x0A0C [0x01] GOTO 0x1EE1
493: 0x0A0F [0x02] IF !(Work_Zone[0] == 18*) GOTO 0x0AA7
494: 0x0A17 [0x03] ExtData[1]->WorkLocal[1] = Work_Zone[0]
495: 0x0A1C [0x24] CREATE_DIALOG(message_id=9278*, default_option=0*, option_flags=0*)
     "Set Raubahn the Blue flags. [Make no changes."98: Reported to Naja (pre-accepting)."00: Asked to capture monsters (accepted)."02: Found soulflayer."04: Defeated soulflayer."06: Talked with Amnaf."08: Inventory full (removed due to rewards changing)."10: Reported to Nashmeira (complete)./Back.]"
496: 0x0A23 [0x25] WAIT_DIALOG_SELECT()
497: 0x0A24 [0x02] IF !(Work_Zone[0] == 1*) GOTO 0x0A34
498: 0x0A2C [0x03] Work_Zone[1] = 298*
499: 0x0A31 [0x01] GOTO 0x0AA4
500: 0x0A34 [0x02] IF !(Work_Zone[0] == 2*) GOTO 0x0A44
501: 0x0A3C [0x03] Work_Zone[1] = 300*
502: 0x0A41 [0x01] GOTO 0x0AA4
503: 0x0A44 [0x02] IF !(Work_Zone[0] == 3*) GOTO 0x0A54
504: 0x0A4C [0x03] Work_Zone[1] = 302*
505: 0x0A51 [0x01] GOTO 0x0AA4
506: 0x0A54 [0x02] IF !(Work_Zone[0] == 4*) GOTO 0x0A64
507: 0x0A5C [0x03] Work_Zone[1] = 304*
508: 0x0A61 [0x01] GOTO 0x0AA4
509: 0x0A64 [0x02] IF !(Work_Zone[0] == 5*) GOTO 0x0A74
510: 0x0A6C [0x03] Work_Zone[1] = 306*
511: 0x0A71 [0x01] GOTO 0x0AA4
512: 0x0A74 [0x02] IF !(Work_Zone[0] == 6*) GOTO 0x0A84
513: 0x0A7C [0x03] Work_Zone[1] = 308*
514: 0x0A81 [0x01] GOTO 0x0AA4
515: 0x0A84 [0x02] IF !(Work_Zone[0] == 7*) GOTO 0x0A94
516: 0x0A8C [0x03] Work_Zone[1] = 310*
517: 0x0A91 [0x01] GOTO 0x0AA4
518: 0x0A94 [0x02] IF !(Work_Zone[0] == 8*) GOTO 0x0A9F
519: 0x0A9C [0x01] GOTO 0x0AA4
520: 0x0A9F [0x03] Work_Zone[1] = 1073741824*

SUBROUTINE_0AA4:
521: 0x0AA4 [0x01] GOTO 0x1EE1
522: 0x0AA7 [0x02] IF !(Work_Zone[0] == 19*) GOTO 0x0B5F
523: 0x0AAF [0x03] ExtData[1]->WorkLocal[1] = Work_Zone[0]
524: 0x0AB4 [0x24] CREATE_DIALOG(message_id=9279*, default_option=0*, option_flags=0*)
     "Set Ghatsad's Quandary flags. [Make no changes."10: Reported to Nashmeia (pre-accepting)."12: Asked to investigate Farak (accepted)."14: Asked to check Hazhalm."16: Talked to Uran-Mafran."18: Found the Destiny Destroyers in Caedarva."20: Defeated the Destiny Destroyers."22: Asked to hand over the embyro."24: Learned about Farak."26: Reported to Ghatsad (complete)./Back.]"
525: 0x0ABB [0x25] WAIT_DIALOG_SELECT()
526: 0x0ABC [0x02] IF !(Work_Zone[0] == 1*) GOTO 0x0ACC
527: 0x0AC4 [0x03] Work_Zone[1] = 310*
528: 0x0AC9 [0x01] GOTO 0x0B5C
529: 0x0ACC [0x02] IF !(Work_Zone[0] == 2*) GOTO 0x0ADC
530: 0x0AD4 [0x03] Work_Zone[1] = 312*
531: 0x0AD9 [0x01] GOTO 0x0B5C
532: 0x0ADC [0x02] IF !(Work_Zone[0] == 3*) GOTO 0x0AEC
533: 0x0AE4 [0x03] Work_Zone[1] = 314*
534: 0x0AE9 [0x01] GOTO 0x0B5C
535: 0x0AEC [0x02] IF !(Work_Zone[0] == 4*) GOTO 0x0AFC
