# 17637408

## Common Data

| Field            | Value             |
|------------------|-------------------|
| Zone             | GM_Home (ID: 210) |
| Block Size       | 376 bytes         |
| Total Events     | 7                 |
| References Count | 15                |

## List of Events

| Event ID                 | Entrypoint   |   Size |   Instructions |
|--------------------------|--------------|--------|----------------|
| [65535](#event-65535)    | 0x0000       |      1 |              1 |
| [71](#event-71)          | 0x0001       |      7 |              2 |
| [65535.1](#event-655351) | 0x0008       |     10 |              2 |
| [65535.2](#event-655352) | 0x0012       |     15 |              5 |
| [65535.3](#event-655353) | 0x0021       |     15 |              5 |
| [65535.4](#event-655354) | 0x0030       |     37 |              5 |
| [65535.5](#event-655355) | 0x0055       |    185 |             37 |

## DAT References (imed_data)

|   Index | Hex Value   |   Dec Value |
|---------|-------------|-------------|
|       0 | 0xFFFF9E1D  |  4294942237 |
|       1 | 0x4415      |       17429 |
|       2 | 0x0000      |           0 |
|       3 | 0x000D      |          13 |
|       4 | 0xFFFFB176  |  4294947190 |
|       5 | 0x0028      |          40 |
|       6 | 0xFFFFC582  |  4294952322 |
|       7 | 0x0005      |           5 |
|       8 | 0x0001      |           1 |
|       9 | 0x0002      |           2 |
|      10 | 0x000A      |          10 |
|      11 | 0x0009      |           9 |
|      12 | 0x0046      |          70 |
|      13 | 0x008C      |         140 |
|      14 | 0x00D2      |         210 |

## Events

### Event 65535

#### Metadata

| Field        | Value   |
|--------------|---------|
| Entrypoint   | 0x0000  |
| Data Size    | 1 bytes |
| Instructions | 1       |

```
      00 01 02 03 04 05 06 07  08 09 0A 0B 0C 0D 0E 0F
      -- -- -- -- -- -- -- --  -- -- -- -- -- -- -- --
0000: 00                                                .               
```

#### Opcodes

```
  0: 0x0000 [0x00] END_REQSTACK()
```

### Event 71

#### Metadata

| Field        | Value   |
|--------------|---------|
| Entrypoint   | 0x0001  |
| Data Size    | 7 bytes |
| Instructions | 2       |

```
      00 01 02 03 04 05 06 07  08 09 0A 0B 0C 0D 0E 0F
      -- -- -- -- -- -- -- --  -- -- -- -- -- -- -- --
0000:    7A 02 F0 FF FF 7F 00                            z......        
```

#### Opcodes

```
  0: 0x0001 [0x7A] VM_CONTROL: Share ExtData with LocalPlayer
  1: 0x0007 [0x00] END_REQSTACK()
```

### Event 65535.1

#### Metadata

| Field        | Value    |
|--------------|----------|
| Entrypoint   | 0x0008   |
| Data Size    | 10 bytes |
| Instructions | 2        |

```
      00 01 02 03 04 05 06 07  08 09 0A 0B 0C 0D 0E 0F
      -- -- -- -- -- -- -- --  -- -- -- -- -- -- -- --
0000:                          37 00 80 01 80 02 80 02          7.......
0010: 80 00                                             ..              
```

#### Opcodes

```
  0: 0x0008 [0x37] UPDATE_EVENT_POSITION_AND_DIR: x=-25.059*, z=17.429*, y=0.000*, direction=0.0°*
  1: 0x0011 [0x00] END_REQSTACK()
```

### Event 65535.2

#### Metadata

| Field        | Value    |
|--------------|----------|
| Entrypoint   | 0x0012   |
| Data Size    | 15 bytes |
| Instructions | 5        |

```
      00 01 02 03 04 05 06 07  08 09 0A 0B 0C 0D 0E 0F
      -- -- -- -- -- -- -- --  -- -- -- -- -- -- -- --
0010:       32 03 80 1F 00 04  80 01 80 02 80 1F 01 6F    2............o
0020: 00                                                .               
```

#### Opcodes

```
  0: 0x0012 [0x32] ExtData[1]->MainSpeed = 13* * 0.1
  1: 0x0015 [0x1F] MOVE_ENTITY: EventEntity moves to X=-20.106*, Z=17.429*, Y=0.000*
  2: 0x001D [0x1F] MOVE_ENTITY: Update entity position (mode=1)
  3: 0x001F [0x6F] WAIT_FRAME_DELAY: Yield until WaitTime reaches zero
  4: 0x0020 [0x00] END_REQSTACK()
```

### Event 65535.3

#### Metadata

| Field        | Value    |
|--------------|----------|
| Entrypoint   | 0x0021   |
| Data Size    | 15 bytes |
| Instructions | 5        |

```
      00 01 02 03 04 05 06 07  08 09 0A 0B 0C 0D 0E 0F
      -- -- -- -- -- -- -- --  -- -- -- -- -- -- -- --
0020:    32 05 80 1F 00 06 80  01 80 02 80 1F 01 6F 00   2............o.
```

#### Opcodes

```
  0: 0x0021 [0x32] ExtData[1]->MainSpeed = 40* * 0.1
  1: 0x0024 [0x1F] MOVE_ENTITY: EventEntity moves to X=-14.974*, Z=17.429*, Y=0.000*
  2: 0x002C [0x1F] MOVE_ENTITY: Update entity position (mode=1)
  3: 0x002E [0x6F] WAIT_FRAME_DELAY: Yield until WaitTime reaches zero
  4: 0x002F [0x00] END_REQSTACK()
```

### Event 65535.4

#### Metadata

| Field        | Value    |
|--------------|----------|
| Entrypoint   | 0x0030   |
| Data Size    | 37 bytes |
| Instructions | 5        |

```
      00 01 02 03 04 05 06 07  08 09 0A 0B 0C 0D 0E 0F
      -- -- -- -- -- -- -- --  -- -- -- -- -- -- -- --
0030: 03 00 00 07 7F 1A 7A 00  66 01 00 F8 FF FF 7F F8  ......z.f.......
0040: FF FF 7F 73 68 61 30 53  F8 FF FF 7F F8 FF FF 7F  ...sha0S........
0050: 73 68 61 30 00                                    sha0.           
```

#### Opcodes

```
  0: 0x0030 [0x03] ExtData[1]->WorkLocal[0] = Entity->Race
  1: 0x0035 [0x1A] CALL_SUBROUTINE(address=0x007A)
  2: 0x0038 [0x66] LOAD_EXT_SCHEDULER_MAIN: Load scheduler "sha0" with entities [EventEntity, EventEntity], work=ExtData[1]->WorkLocal[1]
  3: 0x0047 [0x53] WAIT_SCHEDULER_TASK: Wait for scheduler "sha0" with entities [EventEntity, EventEntity]
  4: 0x0054 [0x00] END_REQSTACK()
```

### Event 65535.5

#### Metadata

| Field        | Value     |
|--------------|-----------|
| Entrypoint   | 0x0055    |
| Data Size    | 185 bytes |
| Instructions | 13        |

```
      00 01 02 03 04 05 06 07  08 09 0A 0B 0C 0D 0E 0F
      -- -- -- -- -- -- -- --  -- -- -- -- -- -- -- --
0050:                03 00 00  07 7F 1A 7A 00 66 01 00       ......z.f..
0060: F8 FF FF 7F F8 FF FF 7F  73 68 61 31 53 F8 FF FF  ........sha1S...
0070: 7F F8 FF FF 7F 73 68 61  31 00 03 01 00 00 00 02  .....sha1.......
0080: 01 00 07 80 05 8F 00 08  01 00 08 80 01 94 00 08  ................
0090: 01 00 09 80 14 01 00 0A  80 07 01 00 0B 80 1B 03  ................
00A0: 01 00 00 00 02 01 00 07  80 05 B4 00 08 01 00 08  ................
00B0: 80 01 B9 00 08 01 00 09  80 14 01 00 0A 80 07 01  ................
00C0: 00 0C 80 1B 03 01 00 00  00 02 01 00 07 80 05 D9  ................
00D0: 00 08 01 00 08 80 01 DE  00 08 01 00 09 80 14 01  ................
00E0: 00 0A 80 07 01 00 0D 80  1B 03 01 00 00 00 02 01  ................
00F0: 00 07 80 05 FE 00 08 01  00 08 80 01 03 01 08 01  ................
0100: 00 09 80 14 01 00 0A 80  07 01 00 0E 80 1B        ..............  
```

#### Opcodes

```
  0: 0x0055 [0x03] ExtData[1]->WorkLocal[0] = Entity->Race
  1: 0x005A [0x1A] CALL_SUBROUTINE(address=0x007A)
  2: 0x005D [0x66] LOAD_EXT_SCHEDULER_MAIN: Load scheduler "sha1" with entities [EventEntity, EventEntity], work=ExtData[1]->WorkLocal[1]
  3: 0x006C [0x53] WAIT_SCHEDULER_TASK: Wait for scheduler "sha1" with entities [EventEntity, EventEntity]
  4: 0x0079 [0x00] END_REQSTACK()

SUBROUTINE_007A:
  5: 0x007A [0x03] ExtData[1]->WorkLocal[1] = ExtData[1]->WorkLocal[0]
  6: 0x007F [0x02] IF !(ExtData[1]->WorkLocal[1] > 5*) GOTO 0x008F
  7: 0x0087 [0x08] ExtData[1]->WorkLocal[1] -= 1*
  8: 0x008C [0x01] GOTO 0x0094
  9: 0x008F [0x08] ExtData[1]->WorkLocal[1] -= 2*

SUBROUTINE_0094:
 10: 0x0094 [0x14] ExtData[1]->WorkLocal[1] *= 10*
 11: 0x0099 [0x07] ExtData[1]->WorkLocal[1] += 9*
 12: 0x009E [0x1B] RETURN
```

#### Data or dead code:

```
# Dead code (unreachable instructions):
     0x009F [0x03] ExtData[1]->WorkLocal[1] = ExtData[1]->WorkLocal[0]
     0x00A4 [0x02] IF !(ExtData[1]->WorkLocal[1] > 5*) GOTO 0x00B4
     0x00AC [0x08] ExtData[1]->WorkLocal[1] -= 1*
     0x00B1 [0x01] GOTO 0x00B9
     0x00B4 [0x08] ExtData[1]->WorkLocal[1] -= 2*
     0x00B9 [0x14] ExtData[1]->WorkLocal[1] *= 10*
     0x00BE [0x07] ExtData[1]->WorkLocal[1] += 70*
     0x00C3 [0x1B] RETURN
     0x00C4 [0x03] ExtData[1]->WorkLocal[1] = ExtData[1]->WorkLocal[0]
     0x00C9 [0x02] IF !(ExtData[1]->WorkLocal[1] > 5*) GOTO 0x00D9
     0x00D1 [0x08] ExtData[1]->WorkLocal[1] -= 1*
     0x00D6 [0x01] GOTO 0x00DE
     0x00D9 [0x08] ExtData[1]->WorkLocal[1] -= 2*
     0x00DE [0x14] ExtData[1]->WorkLocal[1] *= 10*
     0x00E3 [0x07] ExtData[1]->WorkLocal[1] += 140*
     0x00E8 [0x1B] RETURN
     0x00E9 [0x03] ExtData[1]->WorkLocal[1] = ExtData[1]->WorkLocal[0]
     0x00EE [0x02] IF !(ExtData[1]->WorkLocal[1] > 5*) GOTO 0x00FE
     0x00F6 [0x08] ExtData[1]->WorkLocal[1] -= 1*
     0x00FB [0x01] GOTO 0x0103
     0x00FE [0x08] ExtData[1]->WorkLocal[1] -= 2*
     0x0103 [0x14] ExtData[1]->WorkLocal[1] *= 10*
     0x0108 [0x07] ExtData[1]->WorkLocal[1] += 210*
     0x010D [0x1B] RETURN
```
