# 17637395 - Promathia

## Common Data

| Field            | Value             |
|------------------|-------------------|
| Zone             | GM_Home (ID: 210) |
| Block Size       | 3464 bytes        |
| Total Events     | 2                 |
| References Count | 182               |

## List of Events

| Event ID              | Entrypoint   |   Size |   Instructions |
|-----------------------|--------------|--------|----------------|
| [65535](#event-65535) | 0x0000       |      1 |              1 |
| [44](#event-44)       | 0x0001       |   2708 |            516 |

## DAT References (imed_data)

|   Index | Hex Value   |   Dec Value |
|---------|-------------|-------------|
|       0 | 0x1C07      |        7175 |
|       1 | 0x0000      |           0 |
|       2 | 0x0001      |           1 |
|       3 | 0x1C08      |        7176 |
|       4 | 0x0002      |           2 |
|       5 | 0x006E      |         110 |
|       6 | 0x0003      |           3 |
|       7 | 0x0073      |         115 |
|       8 | 0x0004      |           4 |
|       9 | 0x0076      |         118 |
|      10 | 0x0005      |           5 |
|      11 | 0x0078      |         120 |
|      12 | 0x0006      |           6 |
|      13 | 0x0080      |         128 |
|      14 | 0x0007      |           7 |
|      15 | 0x0082      |         130 |
|      16 | 0x0008      |           8 |
|      17 | 0x0086      |         134 |
|      18 | 0x0009      |           9 |
|      19 | 0x0087      |         135 |
|      20 | 0x000A      |          10 |
|      21 | 0x008A      |         138 |
|      22 | 0x1C09      |        7177 |
|      23 | 0x00D2      |         210 |
|      24 | 0x00DA      |         218 |
|      25 | 0x00DC      |         220 |
|      26 | 0x00E4      |         228 |
|      27 | 0x00E6      |         230 |
|      28 | 0x00EB      |         235 |
|      29 | 0x00EE      |         238 |
|      30 | 0x00F0      |         240 |
|      31 | 0x00F5      |         245 |
|      32 | 0x00F8      |         248 |
|      33 | 0x000B      |          11 |
|      34 | 0x00FA      |         250 |
|      35 | 0x000C      |          12 |
|      36 | 0x00FC      |         252 |
|      37 | 0x000D      |          13 |
|      38 | 0x0102      |         258 |
|      39 | 0x1C0A      |        7178 |
|      40 | 0x0136      |         310 |
|      41 | 0x0138      |         312 |
|      42 | 0x013E      |         318 |
|      43 | 0x0140      |         320 |
|      44 | 0x0145      |         325 |
|      45 | 0x015E      |         350 |
|      46 | 0x0163      |         355 |
|      47 | 0x0166      |         358 |
|      48 | 0x0168      |         360 |
|      49 | 0x016B      |         363 |
|      50 | 0x016D      |         365 |
|      51 | 0x0170      |         368 |
|      52 | 0x1C0B      |        7179 |
|      53 | 0x019A      |         410 |
|      54 | 0x019F      |         415 |
|      55 | 0x01A0      |         416 |
|      56 | 0x01A2      |         418 |
|      57 | 0x01A4      |         420 |
|      58 | 0x01A9      |         425 |
|      59 | 0x01AC      |         428 |
|      60 | 0x01AE      |         430 |
|      61 | 0x01B0      |         432 |
|      62 | 0x01B3      |         435 |
|      63 | 0x01B6      |         438 |
|      64 | 0x01B8      |         440 |
|      65 | 0x01C0      |         448 |
|      66 | 0x000E      |          14 |
|      67 | 0x01C3      |         451 |
|      68 | 0x000F      |          15 |
|      69 | 0x01C4      |         452 |
|      70 | 0x1C0C      |        7180 |
|      71 | 0x01FE      |         510 |
|      72 | 0x0200      |         512 |
|      73 | 0x0203      |         515 |
|      74 | 0x0206      |         518 |
|      75 | 0x0208      |         520 |
|      76 | 0x0209      |         521 |
|      77 | 0x020A      |         522 |
|      78 | 0x020B      |         523 |
|      79 | 0x020D      |         525 |
|      80 | 0x020F      |         527 |
|      81 | 0x0210      |         528 |
|      82 | 0x0212      |         530 |
|      83 | 0x0242      |         578 |
|      84 | 0x1C0D      |        7181 |
|      85 | 0x0262      |         610 |
|      86 | 0x0264      |         612 |
|      87 | 0x026A      |         618 |
|      88 | 0x026C      |         620 |
|      89 | 0x0274      |         628 |
|      90 | 0x0276      |         630 |
|      91 | 0x027B      |         635 |
|      92 | 0x027E      |         638 |
|      93 | 0x0280      |         640 |
|      94 | 0x0282      |         642 |
|      95 | 0x0288      |         648 |
|      96 | 0x1C0E      |        7182 |
|      97 | 0x02C6      |         710 |
|      98 | 0x02CA      |         714 |
|      99 | 0x02CE      |         718 |
|     100 | 0x02D0      |         720 |
|     101 | 0x02D2      |         722 |
|     102 | 0x02D4      |         724 |
|     103 | 0x02D8      |         728 |
|     104 | 0x02DA      |         730 |
|     105 | 0x02DC      |         732 |
|     106 | 0x02E2      |         738 |
|     107 | 0x02E4      |         740 |
|     108 | 0x02EC      |         748 |
|     109 | 0x02EE      |         750 |
|     110 | 0x02F3      |         755 |
|     111 | 0x02F6      |         758 |
|     112 | 0x1C0F      |        7183 |
|     113 | 0x0320      |         800 |
|     114 | 0x0322      |         802 |
|     115 | 0x0323      |         803 |
|     116 | 0x0324      |         804 |
|     117 | 0x0325      |         805 |
|     118 | 0x0327      |         807 |
|     119 | 0x0332      |         818 |
|     120 | 0x033C      |         828 |
|     121 | 0x0340      |         832 |
|     122 | 0x0342      |         834 |
|     123 | 0x0344      |         836 |
|     124 | 0x0346      |         838 |
|     125 | 0x0348      |         840 |
|     126 | 0x034C      |         844 |
|     127 | 0x034D      |         845 |
|     128 | 0x1C10      |        7184 |
|     129 | 0x03E8      |        1000 |
|     130 | 0x03E9      |        1001 |
|     131 | 0x03EA      |        1002 |
|     132 | 0x03EB      |        1003 |
|     133 | 0x03EC      |        1004 |
|     134 | 0x03ED      |        1005 |
|     135 | 0x03EE      |        1006 |
|     136 | 0x03EF      |        1007 |
|     137 | 0x1C11      |        7185 |
|     138 | 0x07D1      |        2001 |
|     139 | 0x07D2      |        2002 |
|     140 | 0x07D5      |        2005 |
|     141 | 0x07D9      |        2009 |
|     142 | 0x07DE      |        2014 |
|     143 | 0x1C12      |        7186 |
|     144 | 0x0BB9      |        3001 |
|     145 | 0x0BBA      |        3002 |
|     146 | 0x0BBB      |        3003 |
|     147 | 0x0BBD      |        3005 |
|     148 | 0x0BBE      |        3006 |
|     149 | 0x0BC0      |        3008 |
|     150 | 0x0BC1      |        3009 |
|     151 | 0x0BC3      |        3011 |
|     152 | 0x0BC4      |        3012 |
|     153 | 0x0BC6      |        3014 |
|     154 | 0x1C13      |        7187 |
|     155 | 0x0FA2      |        4002 |
|     156 | 0x0FA3      |        4003 |
|     157 | 0x0FA6      |        4006 |
|     158 | 0x0FA8      |        4008 |
|     159 | 0x0FA9      |        4009 |
|     160 | 0x0FAB      |        4011 |
|     161 | 0x0FAC      |        4012 |
|     162 | 0x0FAE      |        4014 |
|     163 | 0x1C14      |        7188 |
|     164 | 0x138A      |        5002 |
|     165 | 0x138B      |        5003 |
|     166 | 0x138D      |        5005 |
|     167 | 0x138E      |        5006 |
|     168 | 0x1390      |        5008 |
|     169 | 0x1391      |        5009 |
|     170 | 0x1393      |        5011 |
|     171 | 0x1394      |        5012 |
|     172 | 0x1396      |        5014 |
|     173 | 0x1C15      |        7189 |
|     174 | 0x1772      |        6002 |
|     175 | 0x1773      |        6003 |
|     176 | 0x1774      |        6004 |
|     177 | 0x1776      |        6006 |
|     178 | 0x1777      |        6007 |
|     179 | 0x1778      |        6008 |
|     180 | 0x1779      |        6009 |
|     181 | 0x177E      |        6014 |

## String References

- **7175**: Set to... [Nothing./Chapter 1./Chapter 2./Chapter 3./Chapter 4./Chapter 5./Chapter 6./Chapter 7./Chapter 8./Crag Order./Chapter 3 -> Ulmia./Chapter 3 -> Taru./Chapter 5 -> Louver./Chapter 5 -> Tenzen./Chapter 5 -> Ulmia.]
- **7176**: What stage of CH1? [Nothing./Opening Ready./Saw Jeuno Opening./Saw Up-Jeuno Zone In./Talked to Monb./Emptiness 1 Start!/Emptiness Boss 1 Dead!/Emptiness 2 Start!/Emptiness Boss 2 Dead!/Emptiness 3 Start!/Emptiness Boss 3 Dead!]
- **7177**: What stage of CH2? [Nothing./Entered Tav./Evtered Stronghold./Talked to elder./Opened Sacrarium door. (228)/Met Nag at the ladder./Met Nag in the $P109<Player>b$P15($:./Met Prishe./Got back your amulet./Heard Ulmia's song./Headed to Bahamut's island./Found the island./Chewed out Tarus./Smacked up the Zilart.]
- **7178**: What stage of CH3? [Nothing./Arrived in Gustaberg!/Heard about airships./Talked to Cid./Met Aldo." choices.../Ends of 2 choices.../Nag leaves on airship./Met Ulmia at Tenshodo./Saw sick Prishe./Went to Pso'Xja./Whipped Diabolos./Prishe heads back to Tav.]
- **7179**: What stage of CH4? [Nothing./Prishe is back in Tav./Talked to Disp./Heard where Ulmia went./Heard about Blueblade Fell./Bugged by the Tarus./Win on Bahamut's island./Heard about Promathia./Heard about Promathia & Sac./Open Sac. door with key./Open Reliq. door with key./Saw Reliq. event./Phishe gets chewed out./Louverance leaves by boat./Talked with Chas./Talked with Anoki in Port San.]
- **7180**: What stage of CH5? [Nothing./Prishe arrives in Bas./You hear that vessel is stolen./Arrive in Pso'Xja./Saw event deep in ruins./Enter fourth Promyvion./Find first person./Find second person./Find third Person./Make way with vessel./Beat 4th Prom. boss./Saw Beau. event./Three choice start.../Three choice end...]
- **7181**: What stage of CH6? [Nothing./Talked to Ducal Guards./Met at pub./Saw Ulmia cry./Talked with Wolfie./Talked with Eshan./Met with Prishe./Heard all of Eshan's talk./Met Matilde./Heard Cid's rambling./Dock in Tavnazia./Beat armada boss.]
- **7182**: What stage of CH7? [Nothing./Warp to Tav./Arrive in safehold./Talked to 3rd person in Tav./Talked to Tenzen./Went to Jeuno./Met Wolfie./Went to pub./Went to Moval./Heard Cid prep. talk./Cid told you to look for guys./Final meeting over./Gave Suleen letter./Beat Tenzen./Saw 5th Mothercry event./Saw the 3 flashbacks!]
- **7183**: What stage of CH8? [Nothing./Entered Al'Taieu./Checked the Palace Gate./Met Makki./Met Kukki./Met Cherukiki./Damn Palace door won't open./Damn Palace door opened./Smacked up Eventide door boss./Got your amulet back./Saw the 5 tower event./Beat Audience Chamber door boss./Promathia has left the building./Promathia left for the battlefield./Wiped the floor with Promathia./Saw epilogue, heard the song.]
- **7184**: What crag order? [Nothing./1 clear (haven't gone yet)./1 = Holla./1 = Dem./1 = Mea." clear (haven't gone yet)." = Holla." = Dem." = Mea.]
- **7185**: CH3 Ulmia stage... [Nothing./Went to N. San./Met Arneau./Met Chas./Led to Hinaree./Met Hinaree.]
- **7186**: CH3 Tarutaru stage... [Nothing./Went to waters./Met $3I[$3h$3 [$3r[$3h$3 [./Met Yoran./Heard talk in restaraunt./Met Honoi./Accepted Yoran's offer./Gave item to Yoran./Heard from the three Taru./Met tosuka./Heard Yoran for last time.]
- **7187**: CH5 Louverance stage... [Nothing./Saw picture./Heard chieftainess./Talked to Tarupapa./Went to Mov./Caught by Mobs./Brought back by Jabbos./Hears Jabbos confession./Talked with Cid.]
- **7188**: CH5 Louverance stage... [Nothing./Met Carbuncle./Release power from Kuluu ruins./Head for Qufim./Heard from Ducal Guard./Heard Wolfie's true feelings./Saw event in Delk./Heard Tenzen's rambling about E./Fenril's power released./Heard Cid's speech.]
- **7189**: CH5 Louverance stage... [Nothing./Met Hinaree./Heard Ulmia's song./Heard from Chas./Heard from Kerutoto./Mithra's converge./Whipped boss in Chasm./Whipped boss in mountains./Heard Cid's speech.]

## Events

### Event 65535

#### Metadata

| Field        | Value   |
|--------------|---------|
| Entrypoint   | 0x0000  |
| Data Size    | 1 bytes |
| Instructions | 1       |

```
      00 01 02 03 04 05 06 07  08 09 0A 0B 0C 0D 0E 0F
      -- -- -- -- -- -- -- --  -- -- -- -- -- -- -- --
0000: 00                                                .               
```

#### Opcodes

```
  0: 0x0000 [0x00] END_REQSTACK()
```

### Event 44

#### Metadata

| Field        | Value      |
|--------------|------------|
| Entrypoint   | 0x0001     |
| Data Size    | 2708 bytes |
| Instructions | 516        |

```
      00 01 02 03 04 05 06 07  08 09 0A 0B 0C 0D 0E 0F
      -- -- -- -- -- -- -- --  -- -- -- -- -- -- -- --
0000:    24 00 80 01 80 01 80  25 02 00 10 02 80 00 BC   $......%.......
0010: 00 24 03 80 01 80 01 80  25 02 00 10 02 80 00 29  .$......%......)
0020: 00 03 01 10 01 80 01 B9  00 02 00 10 04 80 00 39  ...............9
0030: 00 03 01 10 05 80 01 B9  00 02 00 10 06 80 00 49  ...............I
0040: 00 03 01 10 07 80 01 B9  00 02 00 10 08 80 00 59  ...............Y
0050: 00 03 01 10 09 80 01 B9  00 02 00 10 0A 80 00 69  ...............i
0060: 00 03 01 10 0B 80 01 B9  00 02 00 10 0C 80 00 79  ...............y
0070: 00 03 01 10 0D 80 01 B9  00 02 00 10 0E 80 00 89  ................
0080: 00 03 01 10 0F 80 01 B9  00 02 00 10 10 80 00 99  ................
0090: 00 03 01 10 11 80 01 B9  00 02 00 10 12 80 00 A9  ................
00A0: 00 03 01 10 13 80 01 B9  00 02 00 10 14 80 00 B9  ................
00B0: 00 03 01 10 15 80 01 B9  00 01 93 0A 02 00 10 04  ................
00C0: 80 00 9F 01 24 16 80 01  80 01 80 25 02 00 10 02  ....$......%....
00D0: 80 00 DC 00 03 01 10 17  80 01 9C 01 02 00 10 04  ................
00E0: 80 00 EC 00 03 01 10 18  80 01 9C 01 02 00 10 06  ................
00F0: 80 00 FC 00 03 01 10 19  80 01 9C 01 02 00 10 08  ................
0100: 80 00 0C 01 03 01 10 1A  80 01 9C 01 02 00 10 0A  ................
0110: 80 00 1C 01 03 01 10 1B  80 01 9C 01 02 00 10 0C  ................
0120: 80 00 2C 01 03 01 10 1C  80 01 9C 01 02 00 10 0E  ..,.............
0130: 80 00 3C 01 03 01 10 1D  80 01 9C 01 02 00 10 10  ..<.............
0140: 80 00 4C 01 03 01 10 1E  80 01 9C 01 02 00 10 12  ..L.............
0150: 80 00 5C 01 03 01 10 1F  80 01 9C 01 02 00 10 14  ..\.............
0160: 80 00 6C 01 03 01 10 20  80 01 9C 01 02 00 10 21  ..l.... .......!
0170: 80 00 7C 01 03 01 10 22  80 01 9C 01 02 00 10 23  ..|....".......#
0180: 80 00 8C 01 03 01 10 24  80 01 9C 01 02 00 10 25  .......$.......%
0190: 80 00 9C 01 03 01 10 26  80 01 9C 01 01 93 0A 02  .......&........
01A0: 00 10 06 80 00 72 02 24  27 80 01 80 01 80 25 02  .....r.$'.....%.
01B0: 00 10 02 80 00 BF 01 03  01 10 28 80 01 6F 02 02  ..........(..o..
01C0: 00 10 04 80 00 CF 01 03  01 10 29 80 01 6F 02 02  ..........)..o..
01D0: 00 10 06 80 00 DF 01 03  01 10 2A 80 01 6F 02 02  ..........*..o..
01E0: 00 10 08 80 00 EF 01 03  01 10 2B 80 01 6F 02 02  ..........+..o..
01F0: 00 10 0A 80 00 FF 01 03  01 10 2C 80 01 6F 02 02  ..........,..o..
0200: 00 10 0C 80 00 0F 02 03  01 10 2D 80 01 6F 02 02  ..........-..o..
0210: 00 10 0E 80 00 1F 02 03  01 10 2E 80 01 6F 02 02  .............o..
0220: 00 10 10 80 00 2F 02 03  01 10 2F 80 01 6F 02 02  ...../..../..o..
0230: 00 10 12 80 00 3F 02 03  01 10 30 80 01 6F 02 02  .....?....0..o..
0240: 00 10 14 80 00 4F 02 03  01 10 31 80 01 6F 02 02  .....O....1..o..
0250: 00 10 21 80 00 5F 02 03  01 10 32 80 01 6F 02 02  ..!.._....2..o..
0260: 00 10 23 80 00 6F 02 03  01 10 33 80 01 6F 02 01  ..#..o....3..o..
0270: 93 0A 02 00 10 08 80 00  75 03 24 34 80 01 80 01  ........u.$4....
0280: 80 25 02 00 10 02 80 00  92 02 03 01 10 35 80 01  .%...........5..
0290: 72 03 02 00 10 04 80 00  A2 02 03 01 10 36 80 01  r............6..
02A0: 72 03 02 00 10 06 80 00  B2 02 03 01 10 37 80 01  r............7..
02B0: 72 03 02 00 10 08 80 00  C2 02 03 01 10 38 80 01  r............8..
02C0: 72 03 02 00 10 0A 80 00  D2 02 03 01 10 39 80 01  r............9..
02D0: 72 03 02 00 10 0C 80 00  E2 02 03 01 10 3A 80 01  r............:..
02E0: 72 03 02 00 10 0E 80 00  F2 02 03 01 10 3B 80 01  r............;..
02F0: 72 03 02 00 10 10 80 00  02 03 03 01 10 3C 80 01  r............<..
0300: 72 03 02 00 10 12 80 00  12 03 03 01 10 3D 80 01  r............=..
0310: 72 03 02 00 10 14 80 00  22 03 03 01 10 3E 80 01  r......."....>..
0320: 72 03 02 00 10 21 80 00  32 03 03 01 10 3F 80 01  r....!..2....?..
0330: 72 03 02 00 10 23 80 00  42 03 03 01 10 40 80 01  r....#..B....@..
0340: 72 03 02 00 10 25 80 00  52 03 03 01 10 41 80 01  r....%..R....A..
0350: 72 03 02 00 10 42 80 00  62 03 03 01 10 43 80 01  r....B..b....C..
0360: 72 03 02 00 10 44 80 00  72 03 03 01 10 45 80 01  r....D..r....E..
0370: 72 03 01 93 0A 02 00 10  0A 80 00 58 04 24 46 80  r..........X.$F.
0380: 01 80 01 80 25 02 00 10  02 80 00 95 03 03 01 10  ....%...........
0390: 47 80 01 55 04 02 00 10  04 80 00 A5 03 03 01 10  G..U............
03A0: 48 80 01 55 04 02 00 10  06 80 00 B5 03 03 01 10  H..U............
03B0: 49 80 01 55 04 02 00 10  08 80 00 C5 03 03 01 10  I..U............
03C0: 4A 80 01 55 04 02 00 10  0A 80 00 D5 03 03 01 10  J..U............
03D0: 4B 80 01 55 04 02 00 10  0C 80 00 E5 03 03 01 10  K..U............
03E0: 4C 80 01 55 04 02 00 10  0E 80 00 F5 03 03 01 10  L..U............
03F0: 4D 80 01 55 04 02 00 10  10 80 00 05 04 03 01 10  M..U............
0400: 4E 80 01 55 04 02 00 10  12 80 00 15 04 03 01 10  N..U............
0410: 4F 80 01 55 04 02 00 10  14 80 00 25 04 03 01 10  O..U.......%....
0420: 50 80 01 55 04 02 00 10  21 80 00 35 04 03 01 10  P..U....!..5....
0430: 51 80 01 55 04 02 00 10  23 80 00 45 04 03 01 10  Q..U....#..E....
0440: 52 80 01 55 04 02 00 10  25 80 00 55 04 03 01 10  R..U....%..U....
0450: 53 80 01 55 04 01 93 0A  02 00 10 0C 80 00 1B 05  S..U............
0460: 24 54 80 01 80 01 80 25  02 00 10 02 80 00 78 04  $T.....%......x.
0470: 03 01 10 55 80 01 18 05  02 00 10 04 80 00 88 04  ...U............
0480: 03 01 10 56 80 01 18 05  02 00 10 06 80 00 98 04  ...V............
0490: 03 01 10 57 80 01 18 05  02 00 10 08 80 00 A8 04  ...W............
04A0: 03 01 10 58 80 01 18 05  02 00 10 0A 80 00 B8 04  ...X............
04B0: 03 01 10 59 80 01 18 05  02 00 10 0C 80 00 C8 04  ...Y............
04C0: 03 01 10 5A 80 01 18 05  02 00 10 0E 80 00 D8 04  ...Z............
04D0: 03 01 10 5B 80 01 18 05  02 00 10 10 80 00 E8 04  ...[............
04E0: 03 01 10 5C 80 01 18 05  02 00 10 12 80 00 F8 04  ...\............
04F0: 03 01 10 5D 80 01 18 05  02 00 10 14 80 00 08 05  ...]............
0500: 03 01 10 5E 80 01 18 05  02 00 10 21 80 00 18 05  ...^.......!....
0510: 03 01 10 5F 80 01 18 05  01 93 0A 02 00 10 0E 80  ..._............
0520: 00 1E 06 24 60 80 01 80  01 80 25 02 00 10 02 80  ...$`.....%.....
0530: 00 3B 05 03 01 10 61 80  01 1B 06 02 00 10 04 80  .;....a.........
0540: 00 4B 05 03 01 10 62 80  01 1B 06 02 00 10 06 80  .K....b.........
0550: 00 5B 05 03 01 10 63 80  01 1B 06 02 00 10 08 80  .[....c.........
0560: 00 6B 05 03 01 10 64 80  01 1B 06 02 00 10 0A 80  .k....d.........
0570: 00 7B 05 03 01 10 65 80  01 1B 06 02 00 10 0C 80  .{....e.........
0580: 00 8B 05 03 01 10 66 80  01 1B 06 02 00 10 0E 80  ......f.........
0590: 00 9B 05 03 01 10 67 80  01 1B 06 02 00 10 10 80  ......g.........
05A0: 00 AB 05 03 01 10 68 80  01 1B 06 02 00 10 12 80  ......h.........
05B0: 00 BB 05 03 01 10 69 80  01 1B 06 02 00 10 14 80  ......i.........
05C0: 00 CB 05 03 01 10 6A 80  01 1B 06 02 00 10 21 80  ......j.......!.
05D0: 00 DB 05 03 01 10 6B 80  01 1B 06 02 00 10 23 80  ......k.......#.
05E0: 00 EB 05 03 01 10 6C 80  01 1B 06 02 00 10 25 80  ......l.......%.
05F0: 00 FB 05 03 01 10 6D 80  01 1B 06 02 00 10 42 80  ......m.......B.
0600: 00 0B 06 03 01 10 6E 80  01 1B 06 02 00 10 44 80  ......n.......D.
0610: 00 1B 06 03 01 10 6F 80  01 1B 06 01 93 0A 02 00  ......o.........
0620: 10 10 80 00 21 07 24 70  80 01 80 01 80 25 02 00  ....!.$p.....%..
0630: 10 02 80 00 3E 06 03 01  10 71 80 01 1E 07 02 00  ....>....q......
0640: 10 04 80 00 4E 06 03 01  10 72 80 01 1E 07 02 00  ....N....r......
0650: 10 06 80 00 5E 06 03 01  10 73 80 01 1E 07 02 00  ....^....s......
0660: 10 08 80 00 6E 06 03 01  10 74 80 01 1E 07 02 00  ....n....t......
0670: 10 0A 80 00 7E 06 03 01  10 75 80 01 1E 07 02 00  ....~....u......
0680: 10 0C 80 00 8E 06 03 01  10 76 80 01 1E 07 02 00  .........v......
0690: 10 0E 80 00 9E 06 03 01  10 77 80 01 1E 07 02 00  .........w......
06A0: 10 10 80 00 AE 06 03 01  10 78 80 01 1E 07 02 00  .........x......
06B0: 10 12 80 00 BE 06 03 01  10 79 80 01 1E 07 02 00  .........y......
06C0: 10 14 80 00 CE 06 03 01  10 7A 80 01 1E 07 02 00  .........z......
06D0: 10 21 80 00 DE 06 03 01  10 7B 80 01 1E 07 02 00  .!.......{......
06E0: 10 23 80 00 EE 06 03 01  10 7C 80 01 1E 07 02 00  .#.......|......
06F0: 10 25 80 00 FE 06 03 01  10 7D 80 01 1E 07 02 00  .%.......}......
0700: 10 42 80 00 0E 07 03 01  10 7E 80 01 1E 07 02 00  .B.......~......
0710: 10 44 80 00 1E 07 03 01  10 7F 80 01 1E 07 01 93  .D..............
0720: 0A 02 00 10 12 80 00 B4  07 24 80 80 01 80 01 80  .........$......
0730: 25 02 00 10 02 80 00 41  07 03 01 10 81 80 01 B1  %......A........
0740: 07 02 00 10 04 80 00 51  07 03 01 10 82 80 01 B1  .......Q........
0750: 07 02 00 10 06 80 00 61  07 03 01 10 83 80 01 B1  .......a........
0760: 07 02 00 10 08 80 00 71  07 03 01 10 84 80 01 B1  .......q........
0770: 07 02 00 10 0A 80 00 81  07 03 01 10 85 80 01 B1  ................
0780: 07 02 00 10 0C 80 00 91  07 03 01 10 86 80 01 B1  ................
0790: 07 02 00 10 0E 80 00 A1  07 03 01 10 87 80 01 B1  ................
07A0: 07 02 00 10 10 80 00 B1  07 03 01 10 88 80 01 B1  ................
07B0: 07 01 93 0A 02 00 10 14  80 00 17 08 24 89 80 01  ............$...
07C0: 80 01 80 25 02 00 10 02  80 00 D4 07 03 01 10 8A  ...%............
07D0: 80 01 14 08 02 00 10 04  80 00 E4 07 03 01 10 8B  ................
07E0: 80 01 14 08 02 00 10 06  80 00 F4 07 03 01 10 8C  ................
07F0: 80 01 14 08 02 00 10 08  80 00 04 08 03 01 10 8D  ................
0800: 80 01 14 08 02 00 10 0A  80 00 14 08 03 01 10 8E  ................
0810: 80 01 14 08 01 93 0A 02  00 10 21 80 00 CA 08 24  ..........!....$
0820: 8F 80 01 80 01 80 25 02  00 10 02 80 00 37 08 03  ......%......7..
0830: 01 10 90 80 01 C7 08 02  00 10 04 80 00 47 08 03  .............G..
0840: 01 10 91 80 01 C7 08 02  00 10 06 80 00 57 08 03  .............W..
0850: 01 10 92 80 01 C7 08 02  00 10 08 80 00 67 08 03  .............g..
0860: 01 10 93 80 01 C7 08 02  00 10 0A 80 00 77 08 03  .............w..
0870: 01 10 94 80 01 C7 08 02  00 10 0C 80 00 87 08 03  ................
0880: 01 10 95 80 01 C7 08 02  00 10 0E 80 00 97 08 03  ................
0890: 01 10 96 80 01 C7 08 02  00 10 10 80 00 A7 08 03  ................
08A0: 01 10 97 80 01 C7 08 02  00 10 12 80 00 B7 08 03  ................
08B0: 01 10 98 80 01 C7 08 02  00 10 14 80 00 C7 08 03  ................
08C0: 01 10 99 80 01 C7 08 01  93 0A 02 00 10 23 80 00  .............#..
08D0: 5D 09 24 9A 80 01 80 01  80 25 02 00 10 02 80 00  ].$......%......
08E0: EA 08 03 01 10 9B 80 01  5A 09 02 00 10 04 80 00  ........Z.......
08F0: FA 08 03 01 10 9C 80 01  5A 09 02 00 10 06 80 00  ........Z.......
0900: 0A 09 03 01 10 9D 80 01  5A 09 02 00 10 08 80 00  ........Z.......
0910: 1A 09 03 01 10 9E 80 01  5A 09 02 00 10 0A 80 00  ........Z.......
0920: 2A 09 03 01 10 9F 80 01  5A 09 02 00 10 0C 80 00  *.......Z.......
0930: 3A 09 03 01 10 A0 80 01  5A 09 02 00 10 0E 80 00  :.......Z.......
0940: 4A 09 03 01 10 A1 80 01  5A 09 02 00 10 10 80 00  J.......Z.......
0950: 5A 09 03 01 10 A2 80 01  5A 09 01 93 0A 02 00 10  Z.......Z.......
0960: 25 80 00 00 0A 24 A3 80  01 80 01 80 25 02 00 10  %....$......%...
0970: 02 80 00 7D 09 03 01 10  A4 80 01 FD 09 02 00 10  ...}............
0980: 04 80 00 8D 09 03 01 10  A5 80 01 FD 09 02 00 10  ................
0990: 06 80 00 9D 09 03 01 10  A6 80 01 FD 09 02 00 10  ................
09A0: 08 80 00 AD 09 03 01 10  A7 80 01 FD 09 02 00 10  ................
09B0: 0A 80 00 BD 09 03 01 10  A8 80 01 FD 09 02 00 10  ................
09C0: 0C 80 00 CD 09 03 01 10  A9 80 01 FD 09 02 00 10  ................
09D0: 0E 80 00 DD 09 03 01 10  AA 80 01 FD 09 02 00 10  ................
09E0: 10 80 00 ED 09 03 01 10  AB 80 01 FD 09 02 00 10  ................
09F0: 12 80 00 FD 09 03 01 10  AC 80 01 FD 09 01 93 0A  ................
0A00: 02 00 10 42 80 00 93 0A  24 AD 80 01 80 01 80 25  ...B....$......%
0A10: 02 00 10 02 80 00 20 0A  03 01 10 AE 80 01 90 0A  ...... .........
0A20: 02 00 10 04 80 00 30 0A  03 01 10 AF 80 01 90 0A  ......0.........
0A30: 02 00 10 06 80 00 40 0A  03 01 10 B0 80 01 90 0A  ......@.........
0A40: 02 00 10 08 80 00 50 0A  03 01 10 B1 80 01 90 0A  ......P.........
0A50: 02 00 10 0A 80 00 60 0A  03 01 10 B2 80 01 90 0A  ......`.........
0A60: 02 00 10 0C 80 00 70 0A  03 01 10 B3 80 01 90 0A  ......p.........
0A70: 02 00 10 0E 80 00 80 0A  03 01 10 B4 80 01 90 0A  ................
0A80: 02 00 10 10 80 00 90 0A  03 01 10 B5 80 01 90 0A  ................
0A90: 01 93 0A 21 00                                    ...!.           
```

#### Opcodes

```
  0: 0x0001 [0x24] CREATE_DIALOG(message_id=7175*, default_option=0*, option_flags=0*)
    → "Set to... [Nothing./Chapter 1./Chapter 2./Chapter 3./Chapter 4./Chapter 5./Chapter 6./Chapter 7./Chapter 8./Crag Order./Chapter 3 -> Ulmia./Chapter 3 -> Taru./Chapter 5 -> Louver./Chapter 5 -> Tenzen./Chapter 5 -> Ulmia.]"
  1: 0x0008 [0x25] WAIT_DIALOG_SELECT()
  2: 0x0009 [0x02] IF !(Work_Zone[0] == 1*) GOTO 0x00BC
  3: 0x0011 [0x24] CREATE_DIALOG(message_id=7176*, default_option=0*, option_flags=0*)
    → "What stage of CH1? [Nothing./Opening Ready./Saw Jeuno Opening./Saw Up-Jeuno Zone In./Talked to Monb./Emptiness 1 Start!/Emptiness Boss 1 Dead!/Emptiness 2 Start!/Emptiness Boss 2 Dead!/Emptiness 3 Start!/Emptiness Boss 3 Dead!]"
  4: 0x0018 [0x25] WAIT_DIALOG_SELECT()
  5: 0x0019 [0x02] IF !(Work_Zone[0] == 1*) GOTO 0x0029
  6: 0x0021 [0x03] Work_Zone[1] = 0*
  7: 0x0026 [0x01] GOTO 0x00B9
  8: 0x0029 [0x02] IF !(Work_Zone[0] == 2*) GOTO 0x0039
  9: 0x0031 [0x03] Work_Zone[1] = 110*
 10: 0x0036 [0x01] GOTO 0x00B9
 11: 0x0039 [0x02] IF !(Work_Zone[0] == 3*) GOTO 0x0049
 12: 0x0041 [0x03] Work_Zone[1] = 115*
 13: 0x0046 [0x01] GOTO 0x00B9
 14: 0x0049 [0x02] IF !(Work_Zone[0] == 4*) GOTO 0x0059
 15: 0x0051 [0x03] Work_Zone[1] = 118*
 16: 0x0056 [0x01] GOTO 0x00B9
 17: 0x0059 [0x02] IF !(Work_Zone[0] == 5*) GOTO 0x0069
 18: 0x0061 [0x03] Work_Zone[1] = 120*
 19: 0x0066 [0x01] GOTO 0x00B9
 20: 0x0069 [0x02] IF !(Work_Zone[0] == 6*) GOTO 0x0079
 21: 0x0071 [0x03] Work_Zone[1] = 128*
 22: 0x0076 [0x01] GOTO 0x00B9
 23: 0x0079 [0x02] IF !(Work_Zone[0] == 7*) GOTO 0x0089
 24: 0x0081 [0x03] Work_Zone[1] = 130*
 25: 0x0086 [0x01] GOTO 0x00B9
 26: 0x0089 [0x02] IF !(Work_Zone[0] == 8*) GOTO 0x0099
 27: 0x0091 [0x03] Work_Zone[1] = 134*
 28: 0x0096 [0x01] GOTO 0x00B9
 29: 0x0099 [0x02] IF !(Work_Zone[0] == 9*) GOTO 0x00A9
 30: 0x00A1 [0x03] Work_Zone[1] = 135*
 31: 0x00A6 [0x01] GOTO 0x00B9
 32: 0x00A9 [0x02] IF !(Work_Zone[0] == 10*) GOTO 0x00B9
 33: 0x00B1 [0x03] Work_Zone[1] = 138*
 34: 0x00B6 [0x01] GOTO 0x00B9

SUBROUTINE_00B9:
 35: 0x00B9 [0x01] GOTO 0x0A93
 36: 0x00BC [0x02] IF !(Work_Zone[0] == 2*) GOTO 0x019F
 37: 0x00C4 [0x24] CREATE_DIALOG(message_id=7177*, default_option=0*, option_flags=0*)
    → "What stage of CH2? [Nothing./Entered Tav./Evtered Stronghold./Talked to elder./Opened Sacrarium door. (228)/Met Nag at the ladder./Met Nag in the $P109<Player>b$P15($:./Met Prishe./Got back your amulet./Heard Ulmia's song./Headed to Bahamut's island./Found the island./Chewed out Tarus./Smacked up the Zilart.]"
 38: 0x00CB [0x25] WAIT_DIALOG_SELECT()
 39: 0x00CC [0x02] IF !(Work_Zone[0] == 1*) GOTO 0x00DC
 40: 0x00D4 [0x03] Work_Zone[1] = 210*
 41: 0x00D9 [0x01] GOTO 0x019C
 42: 0x00DC [0x02] IF !(Work_Zone[0] == 2*) GOTO 0x00EC
 43: 0x00E4 [0x03] Work_Zone[1] = 218*
 44: 0x00E9 [0x01] GOTO 0x019C
 45: 0x00EC [0x02] IF !(Work_Zone[0] == 3*) GOTO 0x00FC
 46: 0x00F4 [0x03] Work_Zone[1] = 220*
 47: 0x00F9 [0x01] GOTO 0x019C
 48: 0x00FC [0x02] IF !(Work_Zone[0] == 4*) GOTO 0x010C
 49: 0x0104 [0x03] Work_Zone[1] = 228*
 50: 0x0109 [0x01] GOTO 0x019C
 51: 0x010C [0x02] IF !(Work_Zone[0] == 5*) GOTO 0x011C
 52: 0x0114 [0x03] Work_Zone[1] = 230*
 53: 0x0119 [0x01] GOTO 0x019C
 54: 0x011C [0x02] IF !(Work_Zone[0] == 6*) GOTO 0x012C
 55: 0x0124 [0x03] Work_Zone[1] = 235*
 56: 0x0129 [0x01] GOTO 0x019C
 57: 0x012C [0x02] IF !(Work_Zone[0] == 7*) GOTO 0x013C
 58: 0x0134 [0x03] Work_Zone[1] = 238*
 59: 0x0139 [0x01] GOTO 0x019C
 60: 0x013C [0x02] IF !(Work_Zone[0] == 8*) GOTO 0x014C
 61: 0x0144 [0x03] Work_Zone[1] = 240*
 62: 0x0149 [0x01] GOTO 0x019C
 63: 0x014C [0x02] IF !(Work_Zone[0] == 9*) GOTO 0x015C
 64: 0x0154 [0x03] Work_Zone[1] = 245*
 65: 0x0159 [0x01] GOTO 0x019C
 66: 0x015C [0x02] IF !(Work_Zone[0] == 10*) GOTO 0x016C
 67: 0x0164 [0x03] Work_Zone[1] = 248*
 68: 0x0169 [0x01] GOTO 0x019C
 69: 0x016C [0x02] IF !(Work_Zone[0] == 11*) GOTO 0x017C
 70: 0x0174 [0x03] Work_Zone[1] = 250*
 71: 0x0179 [0x01] GOTO 0x019C
 72: 0x017C [0x02] IF !(Work_Zone[0] == 12*) GOTO 0x018C
 73: 0x0184 [0x03] Work_Zone[1] = 252*
 74: 0x0189 [0x01] GOTO 0x019C
 75: 0x018C [0x02] IF !(Work_Zone[0] == 13*) GOTO 0x019C
 76: 0x0194 [0x03] Work_Zone[1] = 258*
 77: 0x0199 [0x01] GOTO 0x019C

SUBROUTINE_019C:
 78: 0x019C [0x01] GOTO 0x0A93
 79: 0x019F [0x02] IF !(Work_Zone[0] == 3*) GOTO 0x0272
 80: 0x01A7 [0x24] CREATE_DIALOG(message_id=7178*, default_option=0*, option_flags=0*)
    → "What stage of CH3? [Nothing./Arrived in Gustaberg!/Heard about airships./Talked to Cid./Met Aldo." choices.../Ends of 2 choices.../Nag leaves on airship./Met Ulmia at Tenshodo./Saw sick Prishe./Went to Pso'Xja./Whipped Diabolos./Prishe heads back to Tav.]"
 81: 0x01AE [0x25] WAIT_DIALOG_SELECT()
 82: 0x01AF [0x02] IF !(Work_Zone[0] == 1*) GOTO 0x01BF
 83: 0x01B7 [0x03] Work_Zone[1] = 310*
 84: 0x01BC [0x01] GOTO 0x026F
 85: 0x01BF [0x02] IF !(Work_Zone[0] == 2*) GOTO 0x01CF
 86: 0x01C7 [0x03] Work_Zone[1] = 312*
 87: 0x01CC [0x01] GOTO 0x026F
 88: 0x01CF [0x02] IF !(Work_Zone[0] == 3*) GOTO 0x01DF
 89: 0x01D7 [0x03] Work_Zone[1] = 318*
 90: 0x01DC [0x01] GOTO 0x026F
 91: 0x01DF [0x02] IF !(Work_Zone[0] == 4*) GOTO 0x01EF
 92: 0x01E7 [0x03] Work_Zone[1] = 320*
 93: 0x01EC [0x01] GOTO 0x026F
 94: 0x01EF [0x02] IF !(Work_Zone[0] == 5*) GOTO 0x01FF
 95: 0x01F7 [0x03] Work_Zone[1] = 325*
 96: 0x01FC [0x01] GOTO 0x026F
 97: 0x01FF [0x02] IF !(Work_Zone[0] == 6*) GOTO 0x020F
 98: 0x0207 [0x03] Work_Zone[1] = 350*
 99: 0x020C [0x01] GOTO 0x026F
100: 0x020F [0x02] IF !(Work_Zone[0] == 7*) GOTO 0x021F
101: 0x0217 [0x03] Work_Zone[1] = 355*
102: 0x021C [0x01] GOTO 0x026F
103: 0x021F [0x02] IF !(Work_Zone[0] == 8*) GOTO 0x022F
104: 0x0227 [0x03] Work_Zone[1] = 358*
105: 0x022C [0x01] GOTO 0x026F
106: 0x022F [0x02] IF !(Work_Zone[0] == 9*) GOTO 0x023F
107: 0x0237 [0x03] Work_Zone[1] = 360*
108: 0x023C [0x01] GOTO 0x026F
109: 0x023F [0x02] IF !(Work_Zone[0] == 10*) GOTO 0x024F
110: 0x0247 [0x03] Work_Zone[1] = 363*
111: 0x024C [0x01] GOTO 0x026F
112: 0x024F [0x02] IF !(Work_Zone[0] == 11*) GOTO 0x025F
113: 0x0257 [0x03] Work_Zone[1] = 365*
114: 0x025C [0x01] GOTO 0x026F
115: 0x025F [0x02] IF !(Work_Zone[0] == 12*) GOTO 0x026F
116: 0x0267 [0x03] Work_Zone[1] = 368*
117: 0x026C [0x01] GOTO 0x026F

SUBROUTINE_026F:
118: 0x026F [0x01] GOTO 0x0A93
119: 0x0272 [0x02] IF !(Work_Zone[0] == 4*) GOTO 0x0375
120: 0x027A [0x24] CREATE_DIALOG(message_id=7179*, default_option=0*, option_flags=0*)
    → "What stage of CH4? [Nothing./Prishe is back in Tav./Talked to Disp./Heard where Ulmia went./Heard about Blueblade Fell./Bugged by the Tarus./Win on Bahamut's island./Heard about Promathia./Heard about Promathia & Sac./Open Sac. door with key./Open Reliq. door with key./Saw Reliq. event./Phishe gets chewed out./Louverance leaves by boat./Talked with Chas./Talked with Anoki in Port San.]"
121: 0x0281 [0x25] WAIT_DIALOG_SELECT()
122: 0x0282 [0x02] IF !(Work_Zone[0] == 1*) GOTO 0x0292
123: 0x028A [0x03] Work_Zone[1] = 410*
124: 0x028F [0x01] GOTO 0x0372
125: 0x0292 [0x02] IF !(Work_Zone[0] == 2*) GOTO 0x02A2
126: 0x029A [0x03] Work_Zone[1] = 415*
127: 0x029F [0x01] GOTO 0x0372
128: 0x02A2 [0x02] IF !(Work_Zone[0] == 3*) GOTO 0x02B2
129: 0x02AA [0x03] Work_Zone[1] = 416*
130: 0x02AF [0x01] GOTO 0x0372
131: 0x02B2 [0x02] IF !(Work_Zone[0] == 4*) GOTO 0x02C2
132: 0x02BA [0x03] Work_Zone[1] = 418*
133: 0x02BF [0x01] GOTO 0x0372
134: 0x02C2 [0x02] IF !(Work_Zone[0] == 5*) GOTO 0x02D2
135: 0x02CA [0x03] Work_Zone[1] = 420*
136: 0x02CF [0x01] GOTO 0x0372
137: 0x02D2 [0x02] IF !(Work_Zone[0] == 6*) GOTO 0x02E2
138: 0x02DA [0x03] Work_Zone[1] = 425*
139: 0x02DF [0x01] GOTO 0x0372
140: 0x02E2 [0x02] IF !(Work_Zone[0] == 7*) GOTO 0x02F2
141: 0x02EA [0x03] Work_Zone[1] = 428*
142: 0x02EF [0x01] GOTO 0x0372
143: 0x02F2 [0x02] IF !(Work_Zone[0] == 8*) GOTO 0x0302
144: 0x02FA [0x03] Work_Zone[1] = 430*
145: 0x02FF [0x01] GOTO 0x0372
146: 0x0302 [0x02] IF !(Work_Zone[0] == 9*) GOTO 0x0312
147: 0x030A [0x03] Work_Zone[1] = 432*
148: 0x030F [0x01] GOTO 0x0372
149: 0x0312 [0x02] IF !(Work_Zone[0] == 10*) GOTO 0x0322
150: 0x031A [0x03] Work_Zone[1] = 435*
151: 0x031F [0x01] GOTO 0x0372
152: 0x0322 [0x02] IF !(Work_Zone[0] == 11*) GOTO 0x0332
153: 0x032A [0x03] Work_Zone[1] = 438*
154: 0x032F [0x01] GOTO 0x0372
155: 0x0332 [0x02] IF !(Work_Zone[0] == 12*) GOTO 0x0342
156: 0x033A [0x03] Work_Zone[1] = 440*
157: 0x033F [0x01] GOTO 0x0372
158: 0x0342 [0x02] IF !(Work_Zone[0] == 13*) GOTO 0x0352
159: 0x034A [0x03] Work_Zone[1] = 448*
160: 0x034F [0x01] GOTO 0x0372
161: 0x0352 [0x02] IF !(Work_Zone[0] == 14*) GOTO 0x0362
162: 0x035A [0x03] Work_Zone[1] = 451*
163: 0x035F [0x01] GOTO 0x0372
164: 0x0362 [0x02] IF !(Work_Zone[0] == 15*) GOTO 0x0372
165: 0x036A [0x03] Work_Zone[1] = 452*
166: 0x036F [0x01] GOTO 0x0372

SUBROUTINE_0372:
167: 0x0372 [0x01] GOTO 0x0A93
168: 0x0375 [0x02] IF !(Work_Zone[0] == 5*) GOTO 0x0458
169: 0x037D [0x24] CREATE_DIALOG(message_id=7180*, default_option=0*, option_flags=0*)
    → "What stage of CH5? [Nothing./Prishe arrives in Bas./You hear that vessel is stolen./Arrive in Pso'Xja./Saw event deep in ruins./Enter fourth Promyvion./Find first person./Find second person./Find third Person./Make way with vessel./Beat 4th Prom. boss./Saw Beau. event./Three choice start.../Three choice end...]"
170: 0x0384 [0x25] WAIT_DIALOG_SELECT()
171: 0x0385 [0x02] IF !(Work_Zone[0] == 1*) GOTO 0x0395
172: 0x038D [0x03] Work_Zone[1] = 510*
173: 0x0392 [0x01] GOTO 0x0455
174: 0x0395 [0x02] IF !(Work_Zone[0] == 2*) GOTO 0x03A5
175: 0x039D [0x03] Work_Zone[1] = 512*
176: 0x03A2 [0x01] GOTO 0x0455
177: 0x03A5 [0x02] IF !(Work_Zone[0] == 3*) GOTO 0x03B5
178: 0x03AD [0x03] Work_Zone[1] = 515*
179: 0x03B2 [0x01] GOTO 0x0455
180: 0x03B5 [0x02] IF !(Work_Zone[0] == 4*) GOTO 0x03C5
181: 0x03BD [0x03] Work_Zone[1] = 518*
182: 0x03C2 [0x01] GOTO 0x0455
183: 0x03C5 [0x02] IF !(Work_Zone[0] == 5*) GOTO 0x03D5
184: 0x03CD [0x03] Work_Zone[1] = 520*
185: 0x03D2 [0x01] GOTO 0x0455
186: 0x03D5 [0x02] IF !(Work_Zone[0] == 6*) GOTO 0x03E5
187: 0x03DD [0x03] Work_Zone[1] = 521*
188: 0x03E2 [0x01] GOTO 0x0455
189: 0x03E5 [0x02] IF !(Work_Zone[0] == 7*) GOTO 0x03F5
190: 0x03ED [0x03] Work_Zone[1] = 522*
191: 0x03F2 [0x01] GOTO 0x0455
192: 0x03F5 [0x02] IF !(Work_Zone[0] == 8*) GOTO 0x0405
193: 0x03FD [0x03] Work_Zone[1] = 523*
194: 0x0402 [0x01] GOTO 0x0455
195: 0x0405 [0x02] IF !(Work_Zone[0] == 9*) GOTO 0x0415
196: 0x040D [0x03] Work_Zone[1] = 525*
197: 0x0412 [0x01] GOTO 0x0455
198: 0x0415 [0x02] IF !(Work_Zone[0] == 10*) GOTO 0x0425
199: 0x041D [0x03] Work_Zone[1] = 527*
200: 0x0422 [0x01] GOTO 0x0455
201: 0x0425 [0x02] IF !(Work_Zone[0] == 11*) GOTO 0x0435
202: 0x042D [0x03] Work_Zone[1] = 528*
203: 0x0432 [0x01] GOTO 0x0455
204: 0x0435 [0x02] IF !(Work_Zone[0] == 12*) GOTO 0x0445
205: 0x043D [0x03] Work_Zone[1] = 530*
206: 0x0442 [0x01] GOTO 0x0455
207: 0x0445 [0x02] IF !(Work_Zone[0] == 13*) GOTO 0x0455
208: 0x044D [0x03] Work_Zone[1] = 578*
209: 0x0452 [0x01] GOTO 0x0455

SUBROUTINE_0455:
210: 0x0455 [0x01] GOTO 0x0A93
211: 0x0458 [0x02] IF !(Work_Zone[0] == 6*) GOTO 0x051B
212: 0x0460 [0x24] CREATE_DIALOG(message_id=7181*, default_option=0*, option_flags=0*)
    → "What stage of CH6? [Nothing./Talked to Ducal Guards./Met at pub./Saw Ulmia cry./Talked with Wolfie./Talked with Eshan./Met with Prishe./Heard all of Eshan's talk./Met Matilde./Heard Cid's rambling./Dock in Tavnazia./Beat armada boss.]"
213: 0x0467 [0x25] WAIT_DIALOG_SELECT()
214: 0x0468 [0x02] IF !(Work_Zone[0] == 1*) GOTO 0x0478
215: 0x0470 [0x03] Work_Zone[1] = 610*
216: 0x0475 [0x01] GOTO 0x0518
217: 0x0478 [0x02] IF !(Work_Zone[0] == 2*) GOTO 0x0488
218: 0x0480 [0x03] Work_Zone[1] = 612*
219: 0x0485 [0x01] GOTO 0x0518
220: 0x0488 [0x02] IF !(Work_Zone[0] == 3*) GOTO 0x0498
221: 0x0490 [0x03] Work_Zone[1] = 618*
222: 0x0495 [0x01] GOTO 0x0518
223: 0x0498 [0x02] IF !(Work_Zone[0] == 4*) GOTO 0x04A8
224: 0x04A0 [0x03] Work_Zone[1] = 620*
225: 0x04A5 [0x01] GOTO 0x0518
226: 0x04A8 [0x02] IF !(Work_Zone[0] == 5*) GOTO 0x04B8
227: 0x04B0 [0x03] Work_Zone[1] = 628*
228: 0x04B5 [0x01] GOTO 0x0518
229: 0x04B8 [0x02] IF !(Work_Zone[0] == 6*) GOTO 0x04C8
230: 0x04C0 [0x03] Work_Zone[1] = 630*
231: 0x04C5 [0x01] GOTO 0x0518
232: 0x04C8 [0x02] IF !(Work_Zone[0] == 7*) GOTO 0x04D8
233: 0x04D0 [0x03] Work_Zone[1] = 635*
234: 0x04D5 [0x01] GOTO 0x0518
235: 0x04D8 [0x02] IF !(Work_Zone[0] == 8*) GOTO 0x04E8
236: 0x04E0 [0x03] Work_Zone[1] = 638*
237: 0x04E5 [0x01] GOTO 0x0518
238: 0x04E8 [0x02] IF !(Work_Zone[0] == 9*) GOTO 0x04F8
239: 0x04F0 [0x03] Work_Zone[1] = 640*
240: 0x04F5 [0x01] GOTO 0x0518
241: 0x04F8 [0x02] IF !(Work_Zone[0] == 10*) GOTO 0x0508
242: 0x0500 [0x03] Work_Zone[1] = 642*
243: 0x0505 [0x01] GOTO 0x0518
244: 0x0508 [0x02] IF !(Work_Zone[0] == 11*) GOTO 0x0518
245: 0x0510 [0x03] Work_Zone[1] = 648*
246: 0x0515 [0x01] GOTO 0x0518

SUBROUTINE_0518:
247: 0x0518 [0x01] GOTO 0x0A93
248: 0x051B [0x02] IF !(Work_Zone[0] == 7*) GOTO 0x061E
249: 0x0523 [0x24] CREATE_DIALOG(message_id=7182*, default_option=0*, option_flags=0*)
    → "What stage of CH7? [Nothing./Warp to Tav./Arrive in safehold./Talked to 3rd person in Tav./Talked to Tenzen./Went to Jeuno./Met Wolfie./Went to pub./Went to Moval./Heard Cid prep. talk./Cid told you to look for guys./Final meeting over./Gave Suleen letter./Beat Tenzen./Saw 5th Mothercry event./Saw the 3 flashbacks!]"
250: 0x052A [0x25] WAIT_DIALOG_SELECT()
251: 0x052B [0x02] IF !(Work_Zone[0] == 1*) GOTO 0x053B
252: 0x0533 [0x03] Work_Zone[1] = 710*
253: 0x0538 [0x01] GOTO 0x061B
254: 0x053B [0x02] IF !(Work_Zone[0] == 2*) GOTO 0x054B
255: 0x0543 [0x03] Work_Zone[1] = 714*
256: 0x0548 [0x01] GOTO 0x061B
257: 0x054B [0x02] IF !(Work_Zone[0] == 3*) GOTO 0x055B
258: 0x0553 [0x03] Work_Zone[1] = 718*
259: 0x0558 [0x01] GOTO 0x061B
260: 0x055B [0x02] IF !(Work_Zone[0] == 4*) GOTO 0x056B
261: 0x0563 [0x03] Work_Zone[1] = 720*
262: 0x0568 [0x01] GOTO 0x061B
263: 0x056B [0x02] IF !(Work_Zone[0] == 5*) GOTO 0x057B
264: 0x0573 [0x03] Work_Zone[1] = 722*
265: 0x0578 [0x01] GOTO 0x061B
266: 0x057B [0x02] IF !(Work_Zone[0] == 6*) GOTO 0x058B
267: 0x0583 [0x03] Work_Zone[1] = 724*
268: 0x0588 [0x01] GOTO 0x061B
269: 0x058B [0x02] IF !(Work_Zone[0] == 7*) GOTO 0x059B
270: 0x0593 [0x03] Work_Zone[1] = 728*
271: 0x0598 [0x01] GOTO 0x061B
272: 0x059B [0x02] IF !(Work_Zone[0] == 8*) GOTO 0x05AB
273: 0x05A3 [0x03] Work_Zone[1] = 730*
274: 0x05A8 [0x01] GOTO 0x061B
275: 0x05AB [0x02] IF !(Work_Zone[0] == 9*) GOTO 0x05BB
276: 0x05B3 [0x03] Work_Zone[1] = 732*
277: 0x05B8 [0x01] GOTO 0x061B
278: 0x05BB [0x02] IF !(Work_Zone[0] == 10*) GOTO 0x05CB
279: 0x05C3 [0x03] Work_Zone[1] = 738*
280: 0x05C8 [0x01] GOTO 0x061B
281: 0x05CB [0x02] IF !(Work_Zone[0] == 11*) GOTO 0x05DB
282: 0x05D3 [0x03] Work_Zone[1] = 740*
283: 0x05D8 [0x01] GOTO 0x061B
284: 0x05DB [0x02] IF !(Work_Zone[0] == 12*) GOTO 0x05EB
285: 0x05E3 [0x03] Work_Zone[1] = 748*
286: 0x05E8 [0x01] GOTO 0x061B
287: 0x05EB [0x02] IF !(Work_Zone[0] == 13*) GOTO 0x05FB
288: 0x05F3 [0x03] Work_Zone[1] = 750*
289: 0x05F8 [0x01] GOTO 0x061B
290: 0x05FB [0x02] IF !(Work_Zone[0] == 14*) GOTO 0x060B
291: 0x0603 [0x03] Work_Zone[1] = 755*
292: 0x0608 [0x01] GOTO 0x061B
293: 0x060B [0x02] IF !(Work_Zone[0] == 15*) GOTO 0x061B
294: 0x0613 [0x03] Work_Zone[1] = 758*
295: 0x0618 [0x01] GOTO 0x061B

SUBROUTINE_061B:
296: 0x061B [0x01] GOTO 0x0A93
297: 0x061E [0x02] IF !(Work_Zone[0] == 8*) GOTO 0x0721
298: 0x0626 [0x24] CREATE_DIALOG(message_id=7183*, default_option=0*, option_flags=0*)
    → "What stage of CH8? [Nothing./Entered Al'Taieu./Checked the Palace Gate./Met Makki./Met Kukki./Met Cherukiki./Damn Palace door won't open./Damn Palace door opened./Smacked up Eventide door boss./Got your amulet back./Saw the 5 tower event./Beat Audience Chamber door boss./Promathia has left the building./Promathia left for the battlefield./Wiped the floor with Promathia./Saw epilogue, heard the song.]"
299: 0x062D [0x25] WAIT_DIALOG_SELECT()
300: 0x062E [0x02] IF !(Work_Zone[0] == 1*) GOTO 0x063E
301: 0x0636 [0x03] Work_Zone[1] = 800*
302: 0x063B [0x01] GOTO 0x071E
303: 0x063E [0x02] IF !(Work_Zone[0] == 2*) GOTO 0x064E
304: 0x0646 [0x03] Work_Zone[1] = 802*
305: 0x064B [0x01] GOTO 0x071E
306: 0x064E [0x02] IF !(Work_Zone[0] == 3*) GOTO 0x065E
307: 0x0656 [0x03] Work_Zone[1] = 803*
308: 0x065B [0x01] GOTO 0x071E
309: 0x065E [0x02] IF !(Work_Zone[0] == 4*) GOTO 0x066E
310: 0x0666 [0x03] Work_Zone[1] = 804*
311: 0x066B [0x01] GOTO 0x071E
312: 0x066E [0x02] IF !(Work_Zone[0] == 5*) GOTO 0x067E
313: 0x0676 [0x03] Work_Zone[1] = 805*
314: 0x067B [0x01] GOTO 0x071E
315: 0x067E [0x02] IF !(Work_Zone[0] == 6*) GOTO 0x068E
316: 0x0686 [0x03] Work_Zone[1] = 807*
317: 0x068B [0x01] GOTO 0x071E
318: 0x068E [0x02] IF !(Work_Zone[0] == 7*) GOTO 0x069E
319: 0x0696 [0x03] Work_Zone[1] = 818*
320: 0x069B [0x01] GOTO 0x071E
321: 0x069E [0x02] IF !(Work_Zone[0] == 8*) GOTO 0x06AE
322: 0x06A6 [0x03] Work_Zone[1] = 828*
323: 0x06AB [0x01] GOTO 0x071E
324: 0x06AE [0x02] IF !(Work_Zone[0] == 9*) GOTO 0x06BE
325: 0x06B6 [0x03] Work_Zone[1] = 832*
326: 0x06BB [0x01] GOTO 0x071E
327: 0x06BE [0x02] IF !(Work_Zone[0] == 10*) GOTO 0x06CE
328: 0x06C6 [0x03] Work_Zone[1] = 834*
329: 0x06CB [0x01] GOTO 0x071E
330: 0x06CE [0x02] IF !(Work_Zone[0] == 11*) GOTO 0x06DE
331: 0x06D6 [0x03] Work_Zone[1] = 836*
332: 0x06DB [0x01] GOTO 0x071E
333: 0x06DE [0x02] IF !(Work_Zone[0] == 12*) GOTO 0x06EE
334: 0x06E6 [0x03] Work_Zone[1] = 838*
335: 0x06EB [0x01] GOTO 0x071E
336: 0x06EE [0x02] IF !(Work_Zone[0] == 13*) GOTO 0x06FE
337: 0x06F6 [0x03] Work_Zone[1] = 840*
338: 0x06FB [0x01] GOTO 0x071E
339: 0x06FE [0x02] IF !(Work_Zone[0] == 14*) GOTO 0x070E
340: 0x0706 [0x03] Work_Zone[1] = 844*
341: 0x070B [0x01] GOTO 0x071E
342: 0x070E [0x02] IF !(Work_Zone[0] == 15*) GOTO 0x071E
343: 0x0716 [0x03] Work_Zone[1] = 845*
344: 0x071B [0x01] GOTO 0x071E

SUBROUTINE_071E:
345: 0x071E [0x01] GOTO 0x0A93
346: 0x0721 [0x02] IF !(Work_Zone[0] == 9*) GOTO 0x07B4
347: 0x0729 [0x24] CREATE_DIALOG(message_id=7184*, default_option=0*, option_flags=0*)
    → "What crag order? [Nothing./1 clear (haven't gone yet)./1 = Holla./1 = Dem./1 = Mea." clear (haven't gone yet)." = Holla." = Dem." = Mea.]"
348: 0x0730 [0x25] WAIT_DIALOG_SELECT()
349: 0x0731 [0x02] IF !(Work_Zone[0] == 1*) GOTO 0x0741
350: 0x0739 [0x03] Work_Zone[1] = 1000*
351: 0x073E [0x01] GOTO 0x07B1
352: 0x0741 [0x02] IF !(Work_Zone[0] == 2*) GOTO 0x0751
353: 0x0749 [0x03] Work_Zone[1] = 1001*
354: 0x074E [0x01] GOTO 0x07B1
355: 0x0751 [0x02] IF !(Work_Zone[0] == 3*) GOTO 0x0761
356: 0x0759 [0x03] Work_Zone[1] = 1002*
357: 0x075E [0x01] GOTO 0x07B1
358: 0x0761 [0x02] IF !(Work_Zone[0] == 4*) GOTO 0x0771
359: 0x0769 [0x03] Work_Zone[1] = 1003*
360: 0x076E [0x01] GOTO 0x07B1
361: 0x0771 [0x02] IF !(Work_Zone[0] == 5*) GOTO 0x0781
362: 0x0779 [0x03] Work_Zone[1] = 1004*
363: 0x077E [0x01] GOTO 0x07B1
364: 0x0781 [0x02] IF !(Work_Zone[0] == 6*) GOTO 0x0791
365: 0x0789 [0x03] Work_Zone[1] = 1005*
366: 0x078E [0x01] GOTO 0x07B1
367: 0x0791 [0x02] IF !(Work_Zone[0] == 7*) GOTO 0x07A1
368: 0x0799 [0x03] Work_Zone[1] = 1006*
369: 0x079E [0x01] GOTO 0x07B1
370: 0x07A1 [0x02] IF !(Work_Zone[0] == 8*) GOTO 0x07B1
371: 0x07A9 [0x03] Work_Zone[1] = 1007*
372: 0x07AE [0x01] GOTO 0x07B1

SUBROUTINE_07B1:
373: 0x07B1 [0x01] GOTO 0x0A93
374: 0x07B4 [0x02] IF !(Work_Zone[0] == 10*) GOTO 0x0817
375: 0x07BC [0x24] CREATE_DIALOG(message_id=7185*, default_option=0*, option_flags=0*)
    → "CH3 Ulmia stage... [Nothing./Went to N. San./Met Arneau./Met Chas./Led to Hinaree./Met Hinaree.]"
376: 0x07C3 [0x25] WAIT_DIALOG_SELECT()
377: 0x07C4 [0x02] IF !(Work_Zone[0] == 1*) GOTO 0x07D4
378: 0x07CC [0x03] Work_Zone[1] = 2001*
379: 0x07D1 [0x01] GOTO 0x0814
380: 0x07D4 [0x02] IF !(Work_Zone[0] == 2*) GOTO 0x07E4
381: 0x07DC [0x03] Work_Zone[1] = 2002*
382: 0x07E1 [0x01] GOTO 0x0814
383: 0x07E4 [0x02] IF !(Work_Zone[0] == 3*) GOTO 0x07F4
384: 0x07EC [0x03] Work_Zone[1] = 2005*
385: 0x07F1 [0x01] GOTO 0x0814
386: 0x07F4 [0x02] IF !(Work_Zone[0] == 4*) GOTO 0x0804
387: 0x07FC [0x03] Work_Zone[1] = 2009*
388: 0x0801 [0x01] GOTO 0x0814
389: 0x0804 [0x02] IF !(Work_Zone[0] == 5*) GOTO 0x0814
390: 0x080C [0x03] Work_Zone[1] = 2014*
391: 0x0811 [0x01] GOTO 0x0814

SUBROUTINE_0814:
392: 0x0814 [0x01] GOTO 0x0A93
393: 0x0817 [0x02] IF !(Work_Zone[0] == 11*) GOTO 0x08CA
394: 0x081F [0x24] CREATE_DIALOG(message_id=7186*, default_option=0*, option_flags=0*)
    → "CH3 Tarutaru stage... [Nothing./Went to waters./Met $3I[$3h$3 [$3r[$3h$3 [./Met Yoran./Heard talk in restaraunt./Met Honoi./Accepted Yoran's offer./Gave item to Yoran./Heard from the three Taru./Met tosuka./Heard Yoran for last time.]"
395: 0x0826 [0x25] WAIT_DIALOG_SELECT()
396: 0x0827 [0x02] IF !(Work_Zone[0] == 1*) GOTO 0x0837
397: 0x082F [0x03] Work_Zone[1] = 3001*
398: 0x0834 [0x01] GOTO 0x08C7
399: 0x0837 [0x02] IF !(Work_Zone[0] == 2*) GOTO 0x0847
400: 0x083F [0x03] Work_Zone[1] = 3002*
401: 0x0844 [0x01] GOTO 0x08C7
402: 0x0847 [0x02] IF !(Work_Zone[0] == 3*) GOTO 0x0857
403: 0x084F [0x03] Work_Zone[1] = 3003*
404: 0x0854 [0x01] GOTO 0x08C7
405: 0x0857 [0x02] IF !(Work_Zone[0] == 4*) GOTO 0x0867
406: 0x085F [0x03] Work_Zone[1] = 3005*
407: 0x0864 [0x01] GOTO 0x08C7
408: 0x0867 [0x02] IF !(Work_Zone[0] == 5*) GOTO 0x0877
409: 0x086F [0x03] Work_Zone[1] = 3006*
410: 0x0874 [0x01] GOTO 0x08C7
411: 0x0877 [0x02] IF !(Work_Zone[0] == 6*) GOTO 0x0887
412: 0x087F [0x03] Work_Zone[1] = 3008*
413: 0x0884 [0x01] GOTO 0x08C7
414: 0x0887 [0x02] IF !(Work_Zone[0] == 7*) GOTO 0x0897
415: 0x088F [0x03] Work_Zone[1] = 3009*
416: 0x0894 [0x01] GOTO 0x08C7
417: 0x0897 [0x02] IF !(Work_Zone[0] == 8*) GOTO 0x08A7
418: 0x089F [0x03] Work_Zone[1] = 3011*
419: 0x08A4 [0x01] GOTO 0x08C7
420: 0x08A7 [0x02] IF !(Work_Zone[0] == 9*) GOTO 0x08B7
421: 0x08AF [0x03] Work_Zone[1] = 3012*
422: 0x08B4 [0x01] GOTO 0x08C7
423: 0x08B7 [0x02] IF !(Work_Zone[0] == 10*) GOTO 0x08C7
424: 0x08BF [0x03] Work_Zone[1] = 3014*
425: 0x08C4 [0x01] GOTO 0x08C7

SUBROUTINE_08C7:
426: 0x08C7 [0x01] GOTO 0x0A93
427: 0x08CA [0x02] IF !(Work_Zone[0] == 12*) GOTO 0x095D
428: 0x08D2 [0x24] CREATE_DIALOG(message_id=7187*, default_option=0*, option_flags=0*)
    → "CH5 Louverance stage... [Nothing./Saw picture./Heard chieftainess./Talked to Tarupapa./Went to Mov./Caught by Mobs./Brought back by Jabbos./Hears Jabbos confession./Talked with Cid.]"
429: 0x08D9 [0x25] WAIT_DIALOG_SELECT()
430: 0x08DA [0x02] IF !(Work_Zone[0] == 1*) GOTO 0x08EA
431: 0x08E2 [0x03] Work_Zone[1] = 4002*
432: 0x08E7 [0x01] GOTO 0x095A
433: 0x08EA [0x02] IF !(Work_Zone[0] == 2*) GOTO 0x08FA
434: 0x08F2 [0x03] Work_Zone[1] = 4003*
435: 0x08F7 [0x01] GOTO 0x095A
436: 0x08FA [0x02] IF !(Work_Zone[0] == 3*) GOTO 0x090A
437: 0x0902 [0x03] Work_Zone[1] = 4006*
438: 0x0907 [0x01] GOTO 0x095A
439: 0x090A [0x02] IF !(Work_Zone[0] == 4*) GOTO 0x091A
440: 0x0912 [0x03] Work_Zone[1] = 4008*
441: 0x0917 [0x01] GOTO 0x095A
442: 0x091A [0x02] IF !(Work_Zone[0] == 5*) GOTO 0x092A
443: 0x0922 [0x03] Work_Zone[1] = 4009*
444: 0x0927 [0x01] GOTO 0x095A
445: 0x092A [0x02] IF !(Work_Zone[0] == 6*) GOTO 0x093A
446: 0x0932 [0x03] Work_Zone[1] = 4011*
447: 0x0937 [0x01] GOTO 0x095A
448: 0x093A [0x02] IF !(Work_Zone[0] == 7*) GOTO 0x094A
449: 0x0942 [0x03] Work_Zone[1] = 4012*
450: 0x0947 [0x01] GOTO 0x095A
451: 0x094A [0x02] IF !(Work_Zone[0] == 8*) GOTO 0x095A
452: 0x0952 [0x03] Work_Zone[1] = 4014*
453: 0x0957 [0x01] GOTO 0x095A

SUBROUTINE_095A:
454: 0x095A [0x01] GOTO 0x0A93
455: 0x095D [0x02] IF !(Work_Zone[0] == 13*) GOTO 0x0A00
456: 0x0965 [0x24] CREATE_DIALOG(message_id=7188*, default_option=0*, option_flags=0*)
    → "CH5 Louverance stage... [Nothing./Met Carbuncle./Release power from Kuluu ruins./Head for Qufim./Heard from Ducal Guard./Heard Wolfie's true feelings./Saw event in Delk./Heard Tenzen's rambling about E./Fenril's power released./Heard Cid's speech.]"
457: 0x096C [0x25] WAIT_DIALOG_SELECT()
458: 0x096D [0x02] IF !(Work_Zone[0] == 1*) GOTO 0x097D
459: 0x0975 [0x03] Work_Zone[1] = 5002*
460: 0x097A [0x01] GOTO 0x09FD
461: 0x097D [0x02] IF !(Work_Zone[0] == 2*) GOTO 0x098D
462: 0x0985 [0x03] Work_Zone[1] = 5003*
463: 0x098A [0x01] GOTO 0x09FD
464: 0x098D [0x02] IF !(Work_Zone[0] == 3*) GOTO 0x099D
465: 0x0995 [0x03] Work_Zone[1] = 5005*
466: 0x099A [0x01] GOTO 0x09FD
467: 0x099D [0x02] IF !(Work_Zone[0] == 4*) GOTO 0x09AD
468: 0x09A5 [0x03] Work_Zone[1] = 5006*
469: 0x09AA [0x01] GOTO 0x09FD
470: 0x09AD [0x02] IF !(Work_Zone[0] == 5*) GOTO 0x09BD
471: 0x09B5 [0x03] Work_Zone[1] = 5008*
472: 0x09BA [0x01] GOTO 0x09FD
473: 0x09BD [0x02] IF !(Work_Zone[0] == 6*) GOTO 0x09CD
474: 0x09C5 [0x03] Work_Zone[1] = 5009*
475: 0x09CA [0x01] GOTO 0x09FD
476: 0x09CD [0x02] IF !(Work_Zone[0] == 7*) GOTO 0x09DD
477: 0x09D5 [0x03] Work_Zone[1] = 5011*
478: 0x09DA [0x01] GOTO 0x09FD
479: 0x09DD [0x02] IF !(Work_Zone[0] == 8*) GOTO 0x09ED
480: 0x09E5 [0x03] Work_Zone[1] = 5012*
481: 0x09EA [0x01] GOTO 0x09FD
482: 0x09ED [0x02] IF !(Work_Zone[0] == 9*) GOTO 0x09FD
483: 0x09F5 [0x03] Work_Zone[1] = 5014*
484: 0x09FA [0x01] GOTO 0x09FD

SUBROUTINE_09FD:
485: 0x09FD [0x01] GOTO 0x0A93
486: 0x0A00 [0x02] IF !(Work_Zone[0] == 14*) GOTO 0x0A93
487: 0x0A08 [0x24] CREATE_DIALOG(message_id=7189*, default_option=0*, option_flags=0*)
    → "CH5 Louverance stage... [Nothing./Met Hinaree./Heard Ulmia's song./Heard from Chas./Heard from Kerutoto./Mithra's converge./Whipped boss in Chasm./Whipped boss in mountains./Heard Cid's speech.]"
488: 0x0A0F [0x25] WAIT_DIALOG_SELECT()
489: 0x0A10 [0x02] IF !(Work_Zone[0] == 1*) GOTO 0x0A20
490: 0x0A18 [0x03] Work_Zone[1] = 6002*
491: 0x0A1D [0x01] GOTO 0x0A90
492: 0x0A20 [0x02] IF !(Work_Zone[0] == 2*) GOTO 0x0A30
493: 0x0A28 [0x03] Work_Zone[1] = 6003*
494: 0x0A2D [0x01] GOTO 0x0A90
495: 0x0A30 [0x02] IF !(Work_Zone[0] == 3*) GOTO 0x0A40
496: 0x0A38 [0x03] Work_Zone[1] = 6004*
497: 0x0A3D [0x01] GOTO 0x0A90
498: 0x0A40 [0x02] IF !(Work_Zone[0] == 4*) GOTO 0x0A50
499: 0x0A48 [0x03] Work_Zone[1] = 6006*
500: 0x0A4D [0x01] GOTO 0x0A90
501: 0x0A50 [0x02] IF !(Work_Zone[0] == 5*) GOTO 0x0A60
502: 0x0A58 [0x03] Work_Zone[1] = 6007*
503: 0x0A5D [0x01] GOTO 0x0A90
504: 0x0A60 [0x02] IF !(Work_Zone[0] == 6*) GOTO 0x0A70
505: 0x0A68 [0x03] Work_Zone[1] = 6008*
506: 0x0A6D [0x01] GOTO 0x0A90
507: 0x0A70 [0x02] IF !(Work_Zone[0] == 7*) GOTO 0x0A80
508: 0x0A78 [0x03] Work_Zone[1] = 6009*
509: 0x0A7D [0x01] GOTO 0x0A90
510: 0x0A80 [0x02] IF !(Work_Zone[0] == 8*) GOTO 0x0A90
511: 0x0A88 [0x03] Work_Zone[1] = 6014*
512: 0x0A8D [0x01] GOTO 0x0A90

SUBROUTINE_0A90:
513: 0x0A90 [0x01] GOTO 0x0A93

SUBROUTINE_0A93:
514: 0x0A93 [0x21] END_EVENT
515: 0x0A94 [0x00] END_REQSTACK()
```
