# 17637462 - Emiko

## Common Data

| Field            | Value             |
|------------------|-------------------|
| Zone             | GM_Home (ID: 210) |
| Block Size       | 364 bytes         |
| Total Events     | 2                 |
| References Count | 18                |

## List of Events

| Event ID              | Entrypoint   |   Size |   Instructions |
|-----------------------|--------------|--------|----------------|
| [65535](#event-65535) | 0x0000       |      1 |              1 |
| [142](#event-142)     | 0x0001       |    266 |             55 |

## DAT References (imed_data)

|   Index | Hex Value   |   Dec Value |
|---------|-------------|-------------|
|       0 | 0x2362      |        9058 |
|       1 | 0x0000      |           0 |
|       2 | 0x0001      |           1 |
|       3 | 0x0002      |           2 |
|       4 | 0x2366      |        9062 |
|       5 | 0x0003      |           3 |
|       6 | 0x2367      |        9063 |
|       7 | 0x0004      |           4 |
|       8 | 0x0005      |           5 |
|       9 | 0x0006      |           6 |
|      10 | 0x0007      |           7 |
|      11 | 0x0008      |           8 |
|      12 | 0x0009      |           9 |
|      13 | 0x000A      |          10 |
|      14 | 0x000B      |          11 |
|      15 | 0x000C      |          12 |
|      16 | 0x000D      |          13 |
|      17 | 0x000E      |          14 |

## String References

- **9058**: Select number of objectives completed. [End./Reset flags./When objective flags are default./When achieving certain flags./50 (teleport)./100 (remorial)./150 (eminent one)./151 (post-eminent one)./152 (after the fireworks)."00."50."00."49."93./473.]
- **9062**: Use debug command bd 555.
- **9063**: Use bd 556 immediately after bd 10xxxx (objective number).

## Events

### Event 65535

#### Metadata

| Field        | Value   |
|--------------|---------|
| Entrypoint   | 0x0000  |
| Data Size    | 1 bytes |
| Instructions | 1       |

```
      00 01 02 03 04 05 06 07  08 09 0A 0B 0C 0D 0E 0F
      -- -- -- -- -- -- -- --  -- -- -- -- -- -- -- --
0000: 00                                                .               
```

#### Opcodes

```
  0: 0x0000 [0x00] END_REQSTACK()
```

### Event 142

#### Metadata

| Field        | Value     |
|--------------|-----------|
| Entrypoint   | 0x0001    |
| Data Size    | 266 bytes |
| Instructions | 16        |

```
      00 01 02 03 04 05 06 07  08 09 0A 0B 0C 0D 0E 0F
      -- -- -- -- -- -- -- --  -- -- -- -- -- -- -- --
0000:    1E F0 FF FF 7F 4A F0  FF FF 7F F8 FF FF 7F 06   .....J.........
0010: 01 10 24 00 80 00 10 01  80 25 02 00 10 01 80 00  ..$......%......
0020: 25 00 01 09 01 02 00 10  02 80 00 35 00 03 01 10  %..........5....
0030: 02 80 01 09 01 02 00 10  03 80 00 47 00 1D 04 80  ...........G....
0040: 23 01 12 00 01 09 01 02  00 10 05 80 00 59 00 1D  #............Y..
0050: 06 80 23 01 12 00 01 09  01 02 00 10 07 80 00 69  ..#............i
0060: 00 03 01 10 03 80 01 09  01 02 00 10 08 80 00 79  ...............y
0070: 00 03 01 10 05 80 01 09  01 02 00 10 09 80 00 89  ................
0080: 00 03 01 10 07 80 01 09  01 02 00 10 0A 80 00 99  ................
0090: 00 03 01 10 08 80 01 09  01 02 00 10 0B 80 00 A9  ................
00A0: 00 03 01 10 09 80 01 09  01 02 00 10 0C 80 00 B9  ................
00B0: 00 03 01 10 0A 80 01 09  01 02 00 10 0D 80 00 C9  ................
00C0: 00 03 01 10 0B 80 01 09  01 02 00 10 0E 80 00 D9  ................
00D0: 00 03 01 10 0C 80 01 09  01 02 00 10 0F 80 00 E9  ................
00E0: 00 03 01 10 0D 80 01 09  01 02 00 10 10 80 00 F9  ................
00F0: 00 03 01 10 0E 80 01 09  01 02 00 10 11 80 00 09  ................
0100: 01 03 01 10 0F 80 01 09  01 21 00                 .........!.     
```

#### Opcodes

```
  0: 0x0001 [0x1E] EventEntity looks at LocalPlayer and starts talking
  1: 0x0006 [0x4A] LocalPlayer looks at EventEntity
  2: 0x000F [0x06] Work_Zone[1] = 0
  3: 0x0012 [0x24] CREATE_DIALOG(message_id=9058*, default_option=Work_Zone[0], option_flags=0*)
    → "Select number of objectives completed. [End./Reset flags./When objective flags are default./When achieving certain flags./50 (teleport)./100 (remorial)./150 (eminent one)./151 (post-eminent one)./152 (after the fireworks)."00."50."00."49."93./473.]"
  4: 0x0019 [0x25] WAIT_DIALOG_SELECT()
  5: 0x001A [0x02] IF !(Work_Zone[0] == 0*) GOTO 0x0025
  6: 0x0022 [0x01] GOTO 0x0109
  7: 0x0025 [0x02] IF !(Work_Zone[0] == 1*) GOTO 0x0035
  8: 0x002D [0x03] Work_Zone[1] = 1*
  9: 0x0032 [0x01] GOTO 0x0109
 10: 0x0035 [0x02] IF !(Work_Zone[0] == 2*) GOTO 0x0047
 11: 0x003D [0x1D] PRINT_EVENT_MESSAGE(message_id=9062*)
    → "Use debug command bd 555."
 12: 0x0040 [0x23] WAIT_FOR_DIALOG_INTERACTION
 13: 0x0041 [0x01] GOTO 0x0012

SUBROUTINE_0109:
 14: 0x0109 [0x21] END_EVENT
 15: 0x010A [0x00] END_REQSTACK()
```

#### Data or dead code:

```
# Dead code (unreachable instructions):
     0x0044 [0x01] GOTO 0x0109
     0x0056 [0x01] GOTO 0x0109
```
