# 17637430 - 7thTrumpet

## Common Data

| Field            | Value             |
|------------------|-------------------|
| Zone             | GM_Home (ID: 210) |
| Block Size       | 564 bytes         |
| Total Events     | 2                 |
| References Count | 28                |

## List of Events

| Event ID              | Entrypoint   |   Size |   Instructions |
|-----------------------|--------------|--------|----------------|
| [65535](#event-65535) | 0x0000       |      1 |              1 |
| [88](#event-88)       | 0x0001       |    426 |             82 |

## DAT References (imed_data)

|   Index | Hex Value   |   Dec Value |
|---------|-------------|-------------|
|       0 | 0x1DB9      |        7609 |
|       1 | 0x0000      |           0 |
|       2 | 0x40000000  |  1073741824 |
|       3 | 0x0001      |           1 |
|       4 | 0x0002      |           2 |
|       5 | 0x0003      |           3 |
|       6 | 0x0004      |           4 |
|       7 | 0x0005      |           5 |
|       8 | 0x0006      |           6 |
|       9 | 0x0007      |           7 |
|      10 | 0x0008      |           8 |
|      11 | 0x0009      |           9 |
|      12 | 0x000A      |          10 |
|      13 | 0x000B      |          11 |
|      14 | 0x000C      |          12 |
|      15 | 0x000D      |          13 |
|      16 | 0x000E      |          14 |
|      17 | 0x000F      |          15 |
|      18 | 0x0010      |          16 |
|      19 | 0x0011      |          17 |
|      20 | 0x0012      |          18 |
|      21 | 0x0013      |          19 |
|      22 | 0x0014      |          20 |
|      23 | 0x0015      |          21 |
|      24 | 0x0016      |          22 |
|      25 | 0x0017      |          23 |
|      26 | 0x0018      |          24 |
|      27 | 0x0019      |          25 |

## String References

- **7609**: Hey ho Trumpeteers, what can I do ya for? [Nothing, thanks./7TH_Reset all flags./7TH_SC01_Seen opening./7TH_SC02_Gather souvenir ingredients./7TH_SC03_Asked to attach seals./7TH_SC04_Assigned Aldo assassination./7TH_SC05_Run in with Tenshodo lackeys./7TH_SC06_Off to the Tenshodo!/7TH_SC07_Save good Shantotto./7TH_SC08_On the trail of triggers in canal./7TH_SC09_Let's fighting love: Full Moon Fountain./7TH_SC10_What!? But I've just been to the Tenshodo!/7TH_SC11_Let's gathering love: triggers for final fight./7TH_SC12_Let's final fighting love: Sacrificial Chambers./7TH_SC13_Victoly! How do you feel?/7TH_SC14_Mission Accomplished./Lv30_Acquire all 4 souvenirs./Lv40_Acquire all 6 avatar battle triggers./Lv40_Attach all 6 counterseals./Lv50_Acquire Tenshodo battle trigger (black book)./Lv50_Use Tenshodo battle trigger (battle won)./Lv60_Acquire all 6 fragments./Lv70_Acquire all 8 sap crystals (Full Moon Fountain)./Lv75_Acquire all 6 Uggalepih tablets./Lv75_Acquire all 10 Sacrificial Chamber tablets./Acquire all seven 7th Trumpet reward item keys.]

## Events

### Event 65535

#### Metadata

| Field        | Value   |
|--------------|---------|
| Entrypoint   | 0x0000  |
| Data Size    | 1 bytes |
| Instructions | 1       |

```
      00 01 02 03 04 05 06 07  08 09 0A 0B 0C 0D 0E 0F
      -- -- -- -- -- -- -- --  -- -- -- -- -- -- -- --
0000: 00                                                .               
```

#### Opcodes

```
  0: 0x0000 [0x00] END_REQSTACK()
```

### Event 88

#### Metadata

| Field        | Value     |
|--------------|-----------|
| Entrypoint   | 0x0001    |
| Data Size    | 426 bytes |
| Instructions | 82        |

```
      00 01 02 03 04 05 06 07  08 09 0A 0B 0C 0D 0E 0F
      -- -- -- -- -- -- -- --  -- -- -- -- -- -- -- --
0000:    24 00 80 01 80 01 80  25 02 00 10 01 80 00 19   $......%.......
0010: 00 03 01 10 02 80 01 A9  01 02 00 10 03 80 00 29  ...............)
0020: 00 03 01 10 01 80 01 A9  01 02 00 10 04 80 00 39  ...............9
0030: 00 03 01 10 03 80 01 A9  01 02 00 10 05 80 00 49  ...............I
0040: 00 03 01 10 04 80 01 A9  01 02 00 10 06 80 00 59  ...............Y
0050: 00 03 01 10 05 80 01 A9  01 02 00 10 07 80 00 69  ...............i
0060: 00 03 01 10 06 80 01 A9  01 02 00 10 08 80 00 79  ...............y
0070: 00 03 01 10 07 80 01 A9  01 02 00 10 09 80 00 89  ................
0080: 00 03 01 10 08 80 01 A9  01 02 00 10 0A 80 00 99  ................
0090: 00 03 01 10 09 80 01 A9  01 02 00 10 0B 80 00 A9  ................
00A0: 00 03 01 10 0A 80 01 A9  01 02 00 10 0C 80 00 B9  ................
00B0: 00 03 01 10 0B 80 01 A9  01 02 00 10 0D 80 00 C9  ................
00C0: 00 03 01 10 0C 80 01 A9  01 02 00 10 0E 80 00 D9  ................
00D0: 00 03 01 10 0D 80 01 A9  01 02 00 10 0F 80 00 E9  ................
00E0: 00 03 01 10 0E 80 01 A9  01 02 00 10 10 80 00 F9  ................
00F0: 00 03 01 10 0F 80 01 A9  01 02 00 10 11 80 00 09  ................
0100: 01 03 01 10 10 80 01 A9  01 02 00 10 12 80 00 19  ................
0110: 01 03 01 10 11 80 01 A9  01 02 00 10 13 80 00 29  ...............)
0120: 01 03 01 10 12 80 01 A9  01 02 00 10 14 80 00 39  ...............9
0130: 01 03 01 10 13 80 01 A9  01 02 00 10 15 80 00 49  ...............I
0140: 01 03 01 10 14 80 01 A9  01 02 00 10 16 80 00 59  ...............Y
0150: 01 03 01 10 15 80 01 A9  01 02 00 10 17 80 00 69  ...............i
0160: 01 03 01 10 16 80 01 A9  01 02 00 10 18 80 00 79  ...............y
0170: 01 03 01 10 17 80 01 A9  01 02 00 10 19 80 00 89  ................
0180: 01 03 01 10 18 80 01 A9  01 02 00 10 1A 80 00 99  ................
0190: 01 03 01 10 19 80 01 A9  01 02 00 10 1B 80 00 A9  ................
01A0: 01 03 01 10 1A 80 01 A9  01 21 00                 .........!.     
```

#### Opcodes

```
  0: 0x0001 [0x24] CREATE_DIALOG(message_id=7609*, default_option=0*, option_flags=0*)
    → "Hey ho Trumpeteers, what can I do ya for? [Nothing, thanks./7TH_Reset all flags./7TH_SC01_Seen opening./7TH_SC02_Gather souvenir ingredients./7TH_SC03_Asked to attach seals./7TH_SC04_Assigned Aldo assassination./7TH_SC05_Run in with Tenshodo lackeys./7TH_SC06_Off to the Tenshodo!/7TH_SC07_Save good Shantotto./7TH_SC08_On the trail of triggers in canal./7TH_SC09_Let's fighting love: Full Moon Fountain./7TH_SC10_What!? But I've just been to the Tenshodo!/7TH_SC11_Let's gathering love: triggers for final fight./7TH_SC12_Let's final fighting love: Sacrificial Chambers./7TH_SC13_Victoly! How do you feel?/7TH_SC14_Mission Accomplished./Lv30_Acquire all 4 souvenirs./Lv40_Acquire all 6 avatar battle triggers./Lv40_Attach all 6 counterseals./Lv50_Acquire Tenshodo battle trigger (black book)./Lv50_Use Tenshodo battle trigger (battle won)./Lv60_Acquire all 6 fragments./Lv70_Acquire all 8 sap crystals (Full Moon Fountain)./Lv75_Acquire all 6 Uggalepih tablets./Lv75_Acquire all 10 Sacrificial Chamber tablets./Acquire all seven 7th Trumpet reward item keys.]"
  1: 0x0008 [0x25] WAIT_DIALOG_SELECT()
  2: 0x0009 [0x02] IF !(Work_Zone[0] == 0*) GOTO 0x0019
  3: 0x0011 [0x03] Work_Zone[1] = 1073741824*
  4: 0x0016 [0x01] GOTO 0x01A9
  5: 0x0019 [0x02] IF !(Work_Zone[0] == 1*) GOTO 0x0029
  6: 0x0021 [0x03] Work_Zone[1] = 0*
  7: 0x0026 [0x01] GOTO 0x01A9
  8: 0x0029 [0x02] IF !(Work_Zone[0] == 2*) GOTO 0x0039
  9: 0x0031 [0x03] Work_Zone[1] = 1*
 10: 0x0036 [0x01] GOTO 0x01A9
 11: 0x0039 [0x02] IF !(Work_Zone[0] == 3*) GOTO 0x0049
 12: 0x0041 [0x03] Work_Zone[1] = 2*
 13: 0x0046 [0x01] GOTO 0x01A9
 14: 0x0049 [0x02] IF !(Work_Zone[0] == 4*) GOTO 0x0059
 15: 0x0051 [0x03] Work_Zone[1] = 3*
 16: 0x0056 [0x01] GOTO 0x01A9
 17: 0x0059 [0x02] IF !(Work_Zone[0] == 5*) GOTO 0x0069
 18: 0x0061 [0x03] Work_Zone[1] = 4*
 19: 0x0066 [0x01] GOTO 0x01A9
 20: 0x0069 [0x02] IF !(Work_Zone[0] == 6*) GOTO 0x0079
 21: 0x0071 [0x03] Work_Zone[1] = 5*
 22: 0x0076 [0x01] GOTO 0x01A9
 23: 0x0079 [0x02] IF !(Work_Zone[0] == 7*) GOTO 0x0089
 24: 0x0081 [0x03] Work_Zone[1] = 6*
 25: 0x0086 [0x01] GOTO 0x01A9
 26: 0x0089 [0x02] IF !(Work_Zone[0] == 8*) GOTO 0x0099
 27: 0x0091 [0x03] Work_Zone[1] = 7*
 28: 0x0096 [0x01] GOTO 0x01A9
 29: 0x0099 [0x02] IF !(Work_Zone[0] == 9*) GOTO 0x00A9
 30: 0x00A1 [0x03] Work_Zone[1] = 8*
 31: 0x00A6 [0x01] GOTO 0x01A9
 32: 0x00A9 [0x02] IF !(Work_Zone[0] == 10*) GOTO 0x00B9
 33: 0x00B1 [0x03] Work_Zone[1] = 9*
 34: 0x00B6 [0x01] GOTO 0x01A9
 35: 0x00B9 [0x02] IF !(Work_Zone[0] == 11*) GOTO 0x00C9
 36: 0x00C1 [0x03] Work_Zone[1] = 10*
 37: 0x00C6 [0x01] GOTO 0x01A9
 38: 0x00C9 [0x02] IF !(Work_Zone[0] == 12*) GOTO 0x00D9
 39: 0x00D1 [0x03] Work_Zone[1] = 11*
 40: 0x00D6 [0x01] GOTO 0x01A9
 41: 0x00D9 [0x02] IF !(Work_Zone[0] == 13*) GOTO 0x00E9
 42: 0x00E1 [0x03] Work_Zone[1] = 12*
 43: 0x00E6 [0x01] GOTO 0x01A9
 44: 0x00E9 [0x02] IF !(Work_Zone[0] == 14*) GOTO 0x00F9
 45: 0x00F1 [0x03] Work_Zone[1] = 13*
 46: 0x00F6 [0x01] GOTO 0x01A9
 47: 0x00F9 [0x02] IF !(Work_Zone[0] == 15*) GOTO 0x0109
 48: 0x0101 [0x03] Work_Zone[1] = 14*
 49: 0x0106 [0x01] GOTO 0x01A9
 50: 0x0109 [0x02] IF !(Work_Zone[0] == 16*) GOTO 0x0119
 51: 0x0111 [0x03] Work_Zone[1] = 15*
 52: 0x0116 [0x01] GOTO 0x01A9
 53: 0x0119 [0x02] IF !(Work_Zone[0] == 17*) GOTO 0x0129
 54: 0x0121 [0x03] Work_Zone[1] = 16*
 55: 0x0126 [0x01] GOTO 0x01A9
 56: 0x0129 [0x02] IF !(Work_Zone[0] == 18*) GOTO 0x0139
 57: 0x0131 [0x03] Work_Zone[1] = 17*
 58: 0x0136 [0x01] GOTO 0x01A9
 59: 0x0139 [0x02] IF !(Work_Zone[0] == 19*) GOTO 0x0149
 60: 0x0141 [0x03] Work_Zone[1] = 18*
 61: 0x0146 [0x01] GOTO 0x01A9
 62: 0x0149 [0x02] IF !(Work_Zone[0] == 20*) GOTO 0x0159
 63: 0x0151 [0x03] Work_Zone[1] = 19*
 64: 0x0156 [0x01] GOTO 0x01A9
 65: 0x0159 [0x02] IF !(Work_Zone[0] == 21*) GOTO 0x0169
 66: 0x0161 [0x03] Work_Zone[1] = 20*
 67: 0x0166 [0x01] GOTO 0x01A9
 68: 0x0169 [0x02] IF !(Work_Zone[0] == 22*) GOTO 0x0179
 69: 0x0171 [0x03] Work_Zone[1] = 21*
 70: 0x0176 [0x01] GOTO 0x01A9
 71: 0x0179 [0x02] IF !(Work_Zone[0] == 23*) GOTO 0x0189
 72: 0x0181 [0x03] Work_Zone[1] = 22*
 73: 0x0186 [0x01] GOTO 0x01A9
 74: 0x0189 [0x02] IF !(Work_Zone[0] == 24*) GOTO 0x0199
 75: 0x0191 [0x03] Work_Zone[1] = 23*
 76: 0x0196 [0x01] GOTO 0x01A9
 77: 0x0199 [0x02] IF !(Work_Zone[0] == 25*) GOTO 0x01A9
 78: 0x01A1 [0x03] Work_Zone[1] = 24*
 79: 0x01A6 [0x01] GOTO 0x01A9

SUBROUTINE_01A9:
 80: 0x01A9 [0x21] END_EVENT
 81: 0x01AA [0x00] END_REQSTACK()
```
