# 17637597 - item_work

## Common Data

| Field            | Value             |
|------------------|-------------------|
| Zone             | GM_Home (ID: 210) |
| Block Size       | 80 bytes          |
| Total Events     | 2                 |
| References Count | 6                 |

## List of Events

| Event ID              | Entrypoint   |   Size |   Instructions |
|-----------------------|--------------|--------|----------------|
| [65535](#event-65535) | 0x0000       |      1 |              1 |
| [176](#event-176)     | 0x0001       |     30 |              6 |

## DAT References (imed_data)

|   Index | Hex Value   |   Dec Value |
|---------|-------------|-------------|
|       0 | 0x0001      |           1 |
|       1 | 0x0005      |           5 |
|       2 | 0x0000      |           0 |
|       3 | 0x0007      |           7 |
|       4 | 0x0010      |          16 |
|       5 | 0x001F      |          31 |

## Events

### Event 65535

#### Metadata

| Field        | Value   |
|--------------|---------|
| Entrypoint   | 0x0000  |
| Data Size    | 1 bytes |
| Instructions | 1       |

```
      00 01 02 03 04 05 06 07  08 09 0A 0B 0C 0D 0E 0F
      -- -- -- -- -- -- -- --  -- -- -- -- -- -- -- --
0000: 00                                                .               
```

#### Opcodes

```
  0: 0x0000 [0x00] END_REQSTACK()
```

### Event 176

#### Metadata

| Field        | Value    |
|--------------|----------|
| Entrypoint   | 0x0001   |
| Data Size    | 30 bytes |
| Instructions | 6        |

```
      00 01 02 03 04 05 06 07  08 09 0A 0B 0C 0D 0E 0F
      -- -- -- -- -- -- -- --  -- -- -- -- -- -- -- --
0000:    71 12 00 80 01 80 71  13 00 00 40 02 80 03 80   q.....q...@....
0010: 01 10 00 80 40 04 80 05  80 01 10 00 00 21 00     ....@........!. 
```

#### Opcodes

```
  0: 0x0001 [0x71] USER_INPUT_HANDLER: Open numerical input with params (work=[1*, 5*])
  1: 0x0007 [0x71] USER_INPUT_HANDLER: Process numerical input B (work=ExtData[1]->WorkLocal[0])
  2: 0x000B [0x40] SET_BIT_WORK_RANGE(start_bit=0*, end_bit=7*, target=Work_Zone[1], source=1*)
  3: 0x0014 [0x40] SET_BIT_WORK_RANGE(start_bit=16*, end_bit=31*, target=Work_Zone[1], source=ExtData[1]->WorkLocal[0])
  4: 0x001D [0x21] END_EVENT
  5: 0x001E [0x00] END_REQSTACK()
```
