# 17637392 - ship

## Common Data

| Field            | Value             |
|------------------|-------------------|
| Zone             | GM_Home (ID: 210) |
| Block Size       | 100 bytes         |
| Total Events     | 2                 |
| References Count | 5                 |

## List of Events

| Event ID              | Entrypoint   |   Size |   Instructions |
|-----------------------|--------------|--------|----------------|
| [65535](#event-65535) | 0x0000       |      1 |              1 |
| [41](#event-41)       | 0x0001       |     54 |             11 |

## DAT References (imed_data)

|   Index | Hex Value   |   Dec Value |
|---------|-------------|-------------|
|       0 | 0x0001      |           1 |
|       1 | 0x0019      |          25 |
|       2 | 0x89E0      |       35296 |
|       3 | 0xFFFF2900  |  4294912256 |
|       4 | 0xFFFFD8F0  |  4294957296 |

## Events

### Event 65535

#### Metadata

| Field        | Value   |
|--------------|---------|
| Entrypoint   | 0x0000  |
| Data Size    | 1 bytes |
| Instructions | 1       |

```
      00 01 02 03 04 05 06 07  08 09 0A 0B 0C 0D 0E 0F
      -- -- -- -- -- -- -- --  -- -- -- -- -- -- -- --
0000: 00                                                .               
```

#### Opcodes

```
  0: 0x0000 [0x00] END_REQSTACK()
```

### Event 41

#### Metadata

| Field        | Value    |
|--------------|----------|
| Entrypoint   | 0x0001   |
| Data Size    | 54 bytes |
| Instructions | 11       |

```
      00 01 02 03 04 05 06 07  08 09 0A 0B 0C 0D 0E 0F
      -- -- -- -- -- -- -- --  -- -- -- -- -- -- -- --
0000:    2C F8 FF FF 7F F8 FF  FF 7F 6D 61 69 6E 06 01   ,........main..
0010: 00 06 00 00 07 00 00 00  80 08 01 00 01 80 37 02  ..............7.
0020: 80 03 80 01 00 00 00 1C  00 80 02 01 00 04 80 02  ................
0030: 35 00 01 14 00 21 00                              5....!.         
```

#### Opcodes

```
  0: 0x0001 [0x2C] CREATE_SCHEDULER_TASK: Create scheduler "main" with entities [EventEntity, EventEntity]
  1: 0x000E [0x06] ExtData[1]->WorkLocal[1] = 0
  2: 0x0011 [0x06] ExtData[1]->WorkLocal[0] = 0
  3: 0x0014 [0x07] ExtData[1]->WorkLocal[0] += 1*
  4: 0x0019 [0x08] ExtData[1]->WorkLocal[1] -= 25*
  5: 0x001E [0x37] UPDATE_EVENT_POSITION_AND_DIR: x=35.296*, z=-55.040*, y=ExtData[1]->WorkLocal[1], direction=ExtData[1]->WorkLocal[0]
  6: 0x0027 [0x1C] WAIT(1* ticks)
  7: 0x002A [0x02] IF !(ExtData[1]->WorkLocal[1] <= 4294957296*) GOTO 0x0035
  8: 0x0032 [0x01] GOTO 0x0014
  9: 0x0035 [0x21] END_EVENT
 10: 0x0036 [0x00] END_REQSTACK()
```
