# 17637451 - Item_give

## Common Data

| Field            | Value             |
|------------------|-------------------|
| Zone             | GM_Home (ID: 210) |
| Block Size       | 72 bytes          |
| Total Events     | 2                 |
| References Count | 4                 |

## List of Events

| Event ID              | Entrypoint   |   Size |   Instructions |
|-----------------------|--------------|--------|----------------|
| [65535](#event-65535) | 0x0000       |      1 |              1 |
| [128](#event-128)     | 0x0001       |     30 |             11 |

## DAT References (imed_data)

|   Index | Hex Value   |   Dec Value |
|---------|-------------|-------------|
|       0 | 0x001E      |          30 |
|       1 | 0x0000      |           0 |
|       2 | 0x2342      |        9026 |
|       3 | 0x2343      |        9027 |

## String References

- **9026**: I've got just the thing for you.
- **9027**: Oh, hi there.

## Events

### Event 65535

#### Metadata

| Field        | Value   |
|--------------|---------|
| Entrypoint   | 0x0000  |
| Data Size    | 1 bytes |
| Instructions | 1       |

```
      00 01 02 03 04 05 06 07  08 09 0A 0B 0C 0D 0E 0F
      -- -- -- -- -- -- -- --  -- -- -- -- -- -- -- --
0000: 00                                                .               
```

#### Opcodes

```
  0: 0x0000 [0x00] END_REQSTACK()
```

### Event 128

#### Metadata

| Field        | Value    |
|--------------|----------|
| Entrypoint   | 0x0001   |
| Data Size    | 30 bytes |
| Instructions | 11       |

```
      00 01 02 03 04 05 06 07  08 09 0A 0B 0C 0D 0E 0F
      -- -- -- -- -- -- -- --  -- -- -- -- -- -- -- --
0000:    42 1E F0 FF FF 7F 1C  00 80 02 02 10 01 80 00   B..............
0010: 19 00 1D 02 80 23 01 1D  00 1D 03 80 23 21 00     .....#......#!. 
```

#### Opcodes

```
  0: 0x0001 [0x42] SET_CLI_EVENT_CANCEL_DATA()
  1: 0x0002 [0x1E] EventEntity looks at LocalPlayer and starts talking
  2: 0x0007 [0x1C] WAIT(30* ticks)
  3: 0x000A [0x02] IF !(Work_Zone[2] == 0*) GOTO 0x0019
  4: 0x0012 [0x1D] PRINT_EVENT_MESSAGE(message_id=9026*)
    → "I've got just the thing for you."
  5: 0x0015 [0x23] WAIT_FOR_DIALOG_INTERACTION
  6: 0x0016 [0x01] GOTO 0x001D
  7: 0x0019 [0x1D] PRINT_EVENT_MESSAGE(message_id=9027*)
    → "Oh, hi there."
  8: 0x001C [0x23] WAIT_FOR_DIALOG_INTERACTION

SUBROUTINE_001D:
  9: 0x001D [0x21] END_EVENT
 10: 0x001E [0x00] END_REQSTACK()
```
