# 17637446 - Poet

## Common Data

| Field            | Value             |
|------------------|-------------------|
| Zone             | GM_Home (ID: 210) |
| Block Size       | 128 bytes         |
| Total Events     | 2                 |
| References Count | 8                 |

## List of Events

| Event ID              | Entrypoint   |   Size |   Instructions |
|-----------------------|--------------|--------|----------------|
| [65535](#event-65535) | 0x0000       |      1 |              1 |
| [121](#event-121)     | 0x0001       |     69 |             20 |

## DAT References (imed_data)

|   Index | Hex Value   |   Dec Value |
|---------|-------------|-------------|
|       0 | 0x001E      |          30 |
|       1 | 0x232F      |        9007 |
|       2 | 0x0000      |           0 |
|       3 | 0x2330      |        9008 |
|       4 | 0x0001      |           1 |
|       5 | 0x2331      |        9009 |
|       6 | 0x0002      |           2 |
|       7 | 0x2332      |        9010 |

## String References

- **9007**: Ask something? [Where am I?/Who are you?/Not today.]
- **9008**: Welcome to Jeuno.
- **9009**: Me? I am but a humble bard.
- **9010**: Good day to you.

## Events

### Event 65535

#### Metadata

| Field        | Value   |
|--------------|---------|
| Entrypoint   | 0x0000  |
| Data Size    | 1 bytes |
| Instructions | 1       |

```
      00 01 02 03 04 05 06 07  08 09 0A 0B 0C 0D 0E 0F
      -- -- -- -- -- -- -- --  -- -- -- -- -- -- -- --
0000: 00                                                .               
```

#### Opcodes

```
  0: 0x0000 [0x00] END_REQSTACK()
```

### Event 121

#### Metadata

| Field        | Value    |
|--------------|----------|
| Entrypoint   | 0x0001   |
| Data Size    | 69 bytes |
| Instructions | 10       |

```
      00 01 02 03 04 05 06 07  08 09 0A 0B 0C 0D 0E 0F
      -- -- -- -- -- -- -- --  -- -- -- -- -- -- -- --
0000:    1E F0 FF FF 7F 1C 00  80 24 01 80 02 80 02 80   ........$......
0010: 25 02 00 10 02 80 00 23  00 1D 03 80 23 01 09 00  %......#....#...
0020: 01 44 00 02 00 10 04 80  00 35 00 1D 05 80 23 01  .D.......5....#.
0030: 09 00 01 44 00 02 00 10  06 80 00 44 00 1D 07 80  ...D.......D....
0040: 23 01 44 00 21 00                                 #.D.!.          
```

#### Opcodes

```
  0: 0x0001 [0x1E] EventEntity looks at LocalPlayer and starts talking
  1: 0x0006 [0x1C] WAIT(30* ticks)
  2: 0x0009 [0x24] CREATE_DIALOG(message_id=9007*, default_option=0*, option_flags=0*)
    → "Ask something? [Where am I?/Who are you?/Not today.]"
  3: 0x0010 [0x25] WAIT_DIALOG_SELECT()
  4: 0x0011 [0x02] IF !(Work_Zone[0] == 0*) GOTO 0x0023
  5: 0x0019 [0x1D] PRINT_EVENT_MESSAGE(message_id=9008*)
    → "Welcome to Jeuno."
  6: 0x001C [0x23] WAIT_FOR_DIALOG_INTERACTION
  7: 0x001D [0x01] GOTO 0x0009

SUBROUTINE_0044:
  8: 0x0044 [0x21] END_EVENT
  9: 0x0045 [0x00] END_REQSTACK()
```

#### Data or dead code:

```
# Dead code (unreachable instructions):
     0x0020 [0x01] GOTO 0x0044
     0x0032 [0x01] GOTO 0x0044
```
