# 17637410 - Altana

## Common Data

| Field            | Value             |
|------------------|-------------------|
| Zone             | GM_Home (ID: 210) |
| Block Size       | 3464 bytes        |
| Total Events     | 2                 |
| References Count | 159               |

## List of Events

| Event ID              | Entrypoint   |   Size |   Instructions |
|-----------------------|--------------|--------|----------------|
| [65535](#event-65535) | 0x0000       |      1 |              1 |
| [73](#event-73)       | 0x0001       |   2802 |            552 |

## DAT References (imed_data)

|   Index | Hex Value   |   Dec Value |
|---------|-------------|-------------|
|       0 | 0x1D47      |        7495 |
|       1 | 0x0000      |           0 |
|       2 | 0x40000000  |  1073741824 |
|       3 | 0x0001      |           1 |
|       4 | 0x0002      |           2 |
|       5 | 0x0003      |           3 |
|       6 | 0x0004      |           4 |
|       7 | 0x0005      |           5 |
|       8 | 0x0006      |           6 |
|       9 | 0x0007      |           7 |
|      10 | 0x0008      |           8 |
|      11 | 0x0009      |           9 |
|      12 | 0x000A      |          10 |
|      13 | 0x1D48      |        7496 |
|      14 | 0x1DA1      |        7585 |
|      15 | 0x000B      |          11 |
|      16 | 0x000C      |          12 |
|      17 | 0x000D      |          13 |
|      18 | 0x1DA7      |        7591 |
|      19 | 0x000E      |          14 |
|      20 | 0x000F      |          15 |
|      21 | 0x0010      |          16 |
|      22 | 0x0011      |          17 |
|      23 | 0x0012      |          18 |
|      24 | 0x0013      |          19 |
|      25 | 0x0014      |          20 |
|      26 | 0x0015      |          21 |
|      27 | 0x0016      |          22 |
|      28 | 0x0017      |          23 |
|      29 | 0x0018      |          24 |
|      30 | 0x0019      |          25 |
|      31 | 0x001A      |          26 |
|      32 | 0x001B      |          27 |
|      33 | 0x001C      |          28 |
|      34 | 0x001D      |          29 |
|      35 | 0x001E      |          30 |
|      36 | 0x001F      |          31 |
|      37 | 0x1DF1      |        7665 |
|      38 | 0x0020      |          32 |
|      39 | 0x0021      |          33 |
|      40 | 0x0022      |          34 |
|      41 | 0x0023      |          35 |
|      42 | 0x0024      |          36 |
|      43 | 0x0025      |          37 |
|      44 | 0x0026      |          38 |
|      45 | 0x0027      |          39 |
|      46 | 0x0028      |          40 |
|      47 | 0x0029      |          41 |
|      48 | 0x002A      |          42 |
|      49 | 0x002B      |          43 |
|      50 | 0x002C      |          44 |
|      51 | 0x002D      |          45 |
|      52 | 0x002E      |          46 |
|      53 | 0x002F      |          47 |
|      54 | 0x0030      |          48 |
|      55 | 0x0031      |          49 |
|      56 | 0x1E25      |        7717 |
|      57 | 0x0032      |          50 |
|      58 | 0x0033      |          51 |
|      59 | 0x0034      |          52 |
|      60 | 0x0035      |          53 |
|      61 | 0x0036      |          54 |
|      62 | 0x0037      |          55 |
|      63 | 0x0038      |          56 |
|      64 | 0x0039      |          57 |
|      65 | 0x003A      |          58 |
|      66 | 0x003B      |          59 |
|      67 | 0x003C      |          60 |
|      68 | 0x003D      |          61 |
|      69 | 0x003E      |          62 |
|      70 | 0x003F      |          63 |
|      71 | 0x0040      |          64 |
|      72 | 0x0041      |          65 |
|      73 | 0x0042      |          66 |
|      74 | 0x0043      |          67 |
|      75 | 0x0044      |          68 |
|      76 | 0x0045      |          69 |
|      77 | 0x0046      |          70 |
|      78 | 0x0047      |          71 |
|      79 | 0x0048      |          72 |
|      80 | 0x0049      |          73 |
|      81 | 0x1E8E      |        7822 |
|      82 | 0x004A      |          74 |
|      83 | 0x004B      |          75 |
|      84 | 0x004C      |          76 |
|      85 | 0x004D      |          77 |
|      86 | 0x004E      |          78 |
|      87 | 0x004F      |          79 |
|      88 | 0x0050      |          80 |
|      89 | 0x0051      |          81 |
|      90 | 0x0052      |          82 |
|      91 | 0x0053      |          83 |
|      92 | 0x0054      |          84 |
|      93 | 0x0055      |          85 |
|      94 | 0x0056      |          86 |
|      95 | 0x1E93      |        7827 |
|      96 | 0x00A0      |         160 |
|      97 | 0x00A1      |         161 |
|      98 | 0x00A2      |         162 |
|      99 | 0x00A3      |         163 |
|     100 | 0x00A4      |         164 |
|     101 | 0x00A5      |         165 |
|     102 | 0x00A6      |         166 |
|     103 | 0x00A7      |         167 |
|     104 | 0x00A8      |         168 |
|     105 | 0x00A9      |         169 |
|     106 | 0x00AA      |         170 |
|     107 | 0x00AB      |         171 |
|     108 | 0x00AC      |         172 |
|     109 | 0x00AD      |         173 |
|     110 | 0x00AE      |         174 |
|     111 | 0x00AF      |         175 |
|     112 | 0x00B0      |         176 |
|     113 | 0x00B1      |         177 |
|     114 | 0x00B2      |         178 |
|     115 | 0x00B3      |         179 |
|     116 | 0x00B4      |         180 |
|     117 | 0x00B5      |         181 |
|     118 | 0x00B6      |         182 |
|     119 | 0x1DA2      |        7586 |
|     120 | 0x1DA3      |        7587 |
|     121 | 0x0065      |         101 |
|     122 | 0x0066      |         102 |
|     123 | 0x0067      |         103 |
|     124 | 0x0068      |         104 |
|     125 | 0x0069      |         105 |
|     126 | 0x006A      |         106 |
|     127 | 0x006B      |         107 |
|     128 | 0x006C      |         108 |
|     129 | 0x006D      |         109 |
|     130 | 0x006E      |         110 |
|     131 | 0x006F      |         111 |
|     132 | 0x0070      |         112 |
|     133 | 0x1DA4      |        7588 |
|     134 | 0x0079      |         121 |
|     135 | 0x007A      |         122 |
|     136 | 0x007B      |         123 |
|     137 | 0x007C      |         124 |
|     138 | 0x007D      |         125 |
|     139 | 0x007E      |         126 |
|     140 | 0x007F      |         127 |
|     141 | 0x0080      |         128 |
|     142 | 0x0081      |         129 |
|     143 | 0x0082      |         130 |
|     144 | 0x0083      |         131 |
|     145 | 0x0084      |         132 |
|     146 | 0x1DA5      |        7589 |
|     147 | 0x008D      |         141 |
|     148 | 0x008E      |         142 |
|     149 | 0x008F      |         143 |
|     150 | 0x0090      |         144 |
|     151 | 0x0091      |         145 |
|     152 | 0x0092      |         146 |
|     153 | 0x0093      |         147 |
|     154 | 0x0094      |         148 |
|     155 | 0x0095      |         149 |
|     156 | 0x0096      |         150 |
|     157 | 0x0097      |         151 |
|     158 | 0x0098      |         152 |

## String References

- **7495**: How do you like your Wings? [Plucked./Campaign Battle ON./Campaign Battle OFF./Chain Quests in Past Three Nations/WotG, November 2007./WotG, June 2008./WotG, December 2008./WotG, July 2009./WotG, March 2010./WotG, September 2010./WotG, December 2010.]
- **7496**: How do you like your Wings? [Plucked./MS00_WotG./MS01_Present day, sucked into the maw./MS01_Dropped into Crystal War days./MS01_Walk of Echoes and the cat.]
- **7585**: Which setting would you like? [None./MS02_Troupe Mayakov arrives!/MS02_Chased off by ol' Alexei./MS02_20-year old ticket is so mine!/MS02_I survived the Troupe Mayakov experience./MS02_Future tags with Lilisette./MS02_Zomg! La Vaule smells like burning!/MS02_Beatdown at the old La Vaule battlefield!/MS02_Follow that cat!]
- **7586**: Which nation? [None of 'em./San d'Oria (S)/Bastok (S)/Windurst (S)]
- **7587**: Cleared up to which quest? [None of 'em./Gifts of the Griffon./Claws of the Griffon./Boy and the Beast./Wrath of the Griffon./Perils of the Griffon./In a Haze of Glory./The Price of Valor./Bonds That Never Die./Songbirds in a Snowstorm./Blood of Heroes./Chasing at Shadows./Face of the Future.]
- **7588**: Cleared up to which quest? [None of 'em./Better Part of Valor./Fires of Discontent./Light in the Darkness./Burden of Suspicion./Storm on the Horizon./Fire in the Hole./Quelling the Storm./Honor Under Fire./Beneath the Mask./What Price Loyalty./The Truth Lies Hid./Bonds of Mythril.]
- **7589**: Cleared up to which quest? [None of 'em./The Tigress Stirs./The Tigress Strikes./Knot Quite There./A Manifest Problem./When One Man Is Not Enough./A Feast for Gnats./The Long March North./The Forbidden Path./Sins of the Mothers./Howl from the Heavens./Manifest Destiny./At Journey's End.]
- **7591**: Which setting would you like? [None./MS03_Got hit on by Mayakov./MS03_Met up with Ragelise in the Chateau./MS03_Met up with Lilisette in Jugner./MS03_Learned about medicine from the cat./MS03_Learned about medicine ingredients from Amaura./MS03_Learned how to prepare said ingredients./MS03_Planted seed in Jugner (S)./MS03_Lilisette gets KO'ed./@MS03_Defeated treant NM./MS03_Gave medicine ingredients to Amaura./MS03_Finally got the medicine./MS03_Visit other 2 nations in Ragie's stead./@MS03_First stop, Bastok./@MS03_First stop, Windurst./MS03_2 nations utterly visited./MS03_Delivered reinforcement news to Jeuno./MS03_Before layer battle: prevented surrender./MS03_Beastmen decide Tavnazia would be more fun.]
- **7665**: Set your mission progress! [Nah./MS04_Ran into Lilisette./MS04_Had heart-to-heart with Mayakov./MS04_Met Naoi at Glacier./@MS04_5 Mini-game: 1 done./@MS04_5 Mini-game: 2 done./@MS04_5 Mini-game: 3 done./@MS04_5 Mini-game: shooting done./@MS04_5 Mini-game: luring done./MS04_Aced all five mini-games./MS04_Follow the traitor!/MS04_Caught Ceithir with Galka./MS04_Lilisette and her ma get shanghaied./MS04_Broke news to Ragelise./MS04_Battle at glacier approved!/MS04_Return to glacier. Things get CrAzY./MS04_Cait Siths merged!/MS04_Portia makes her choice./MS04_Lilisette crumbleth.]
- **7717**: Set your mission progress! [Nah./MS05_Saw send-off at Lion Springs./MS05_Stood at Allied strategy meeting./MS05_Present day. Saw comet over San d'Oria./MS05_Present day. Met with Halver./MS05_Present day. Paid respects at gravestone./MS05_Present day. Met with white Larzos./MS05_Saw army amassing on Xarcabard./MS05_Got assigned messenger duty./MS05_Delivered message to Windurstian army./MS05_Windurst: preparations complete./MS05_Delivered message to Bastokan army./MS05_Bastok: preparations complete./MS05_Strike force makes for Castle Zvahl./MS05_Operation Snowstorm is GO!/MS05_Bifrons joins in the fun./MS05_Shadow Lord pwns Allies./MS05_Operation foiled. Sigh./MS05_Escaped from Castle Zvahl./MS05_Operation Snowstorm are FAIL!/MS05_Ragelise dishonorably discharged./MS05_Follow that couple to the Throne Room!/MS05_You, Lilisette separated from Cait./MS05_Pwned Haudrale and Aquila./MS05_Defeat. Lilisette vanishes.]
- **7822**: Set your mission progress! [Nah./MS06_Catht out of Lion Thpringth./MS06_Saw Lilisette and Cousseraux converse./MS06_Lilisette's memories (start)./ MS06_Homecoming./ MS06_Bean Cuisine./ MS06_His and Her Circumstance./ MS06_Tombstone Resolution./ MS06_Operation: Cupid./ MS06_Footprints of [Red/Blue/Green]./ MS06_Incurable Affliction./MS06_Lilisette's memories (finished)./MS06_Column of light strikes Grauberg/MS06_Lilisette's egg, the battle for Shiro'diel]
- **7827**: Set your mission progress. [Another time./MS07_Heard Cait Sith's grand scheme./MS07_Off to the Walk of Echoes./MS07_Previewed battle with Neo Spitewardens./MS07_Wiped the Walk with Neo Spitewardens./MS07_Victoly! How goes Lilisette?/MS07_Lilisette is reborn!/MS07_Find Cait Sith in Ronfaure./MS07_Find junctions of eventualities!/@MS07_La Vaule./@MS07_Jugner./@MS07_Beaucedine./@MS07_Xarcabard./@MS07_Throne Room./@MS07_Walk of Echoes./@MS07_San d'Oria./MS07_Found all junctions!/MS07_Off to face Lady Lilith./MS07_Lilisette's mid-journey ramble./MS07_Previewed battle with Lilith./MS07_Pwned Lilith./MS07_Parted with Lilisette./MS07_Received wedding invitation. /MS07_Witness joining of Ragie and Portia./MS07_Partook in reception.]

## Events

### Event 65535

#### Metadata

| Field        | Value   |
|--------------|---------|
| Entrypoint   | 0x0000  |
| Data Size    | 1 bytes |
| Instructions | 1       |

```
      00 01 02 03 04 05 06 07  08 09 0A 0B 0C 0D 0E 0F
      -- -- -- -- -- -- -- --  -- -- -- -- -- -- -- --
0000: 00                                                .               
```

#### Opcodes

```
  0: 0x0000 [0x00] END_REQSTACK()
```

### Event 73

#### Metadata

| Field        | Value      |
|--------------|------------|
| Entrypoint   | 0x0001     |
| Data Size    | 2802 bytes |
| Instructions | 401        |

```
      00 01 02 03 04 05 06 07  08 09 0A 0B 0C 0D 0E 0F
      -- -- -- -- -- -- -- --  -- -- -- -- -- -- -- --
0000:    24 00 80 01 80 01 80  25 02 00 10 01 80 00 19   $......%.......
0010: 00 03 01 10 02 80 01 A9  00 02 00 10 03 80 00 29  ...............)
0020: 00 03 01 10 01 80 01 A9  00 02 00 10 04 80 00 39  ...............9
0030: 00 03 01 10 03 80 01 A9  00 02 00 10 05 80 00 47  ...............G
0040: 00 01 2F 08 01 A9 00 02  00 10 06 80 00 55 00 01  ../..........U..
0050: AB 00 01 A9 00 02 00 10  07 80 00 63 00 01 07 01  ...........c....
0060: 01 A9 00 02 00 10 08 80  00 71 00 01 A3 01 01 A9  .........q......
0070: 00 02 00 10 09 80 00 7F  00 01 DF 02 01 A9 00 02  ................
0080: 00 10 0A 80 00 8D 00 01  1B 04 01 A9 00 02 00 10  ................
0090: 0B 80 00 9B 00 01 B7 05  01 A9 00 02 00 10 0C 80  ................
00A0: 00 A9 00 01 A3 06 01 A9  00 21 00 24 0D 80 01 80  .........!.$....
00B0: 01 80 25 02 00 10 01 80  00 C3 00 03 01 10 02 80  ..%.............
00C0: 01 03 01 02 00 10 03 80  00 D3 00 03 01 10 04 80  ................
00D0: 01 03 01 02 00 10 04 80  00 E3 00 03 01 10 05 80  ................
00E0: 01 03 01 02 00 10 05 80  00 F3 00 03 01 10 06 80  ................
00F0: 01 03 01 02 00 10 06 80  00 03 01 03 01 10 07 80  ................
0100: 01 03 01 01 A9 00 00 24  0E 80 01 80 01 80 25 02  .......$......%.
0110: 00 10 01 80 00 1F 01 03  01 10 02 80 01 9F 01 02  ................
0120: 00 10 03 80 00 2F 01 03  01 10 08 80 01 9F 01 02  ...../..........
0130: 00 10 04 80 00 3F 01 03  01 10 09 80 01 9F 01 02  .....?..........
0140: 00 10 05 80 00 4F 01 03  01 10 0A 80 01 9F 01 02  .....O..........
0150: 00 10 06 80 00 5F 01 03  01 10 0B 80 01 9F 01 02  ....._..........
0160: 00 10 07 80 00 6F 01 03  01 10 0C 80 01 9F 01 02  .....o..........
0170: 00 10 08 80 00 7F 01 03  01 10 0F 80 01 9F 01 02  ................
0180: 00 10 09 80 00 8F 01 03  01 10 10 80 01 9F 01 02  ................
0190: 00 10 0A 80 00 9F 01 03  01 10 11 80 01 9F 01 01  ................
01A0: A9 00 00 24 12 80 01 80  01 80 25 02 00 10 01 80  ...$......%.....
01B0: 00 BB 01 03 01 10 02 80  01 DB 02 02 00 10 03 80  ................
01C0: 00 CB 01 03 01 10 13 80  01 DB 02 02 00 10 04 80  ................
01D0: 00 DB 01 03 01 10 14 80  01 DB 02 02 00 10 05 80  ................
01E0: 00 EB 01 03 01 10 15 80  01 DB 02 02 00 10 06 80  ................
01F0: 00 FB 01 03 01 10 16 80  01 DB 02 02 00 10 07 80  ................
0200: 00 0B 02 03 01 10 17 80  01 DB 02 02 00 10 08 80  ................
0210: 00 1B 02 03 01 10 18 80  01 DB 02 02 00 10 09 80  ................
0220: 00 2B 02 03 01 10 19 80  01 DB 02 02 00 10 0A 80  .+..............
0230: 00 3B 02 03 01 10 1A 80  01 DB 02 02 00 10 0B 80  .;..............
0240: 00 4B 02 03 01 10 1B 80  01 DB 02 02 00 10 0C 80  .K..............
0250: 00 5B 02 03 01 10 1C 80  01 DB 02 02 00 10 0F 80  .[..............
0260: 00 6B 02 03 01 10 1D 80  01 DB 02 02 00 10 10 80  .k..............
0270: 00 7B 02 03 01 10 1E 80  01 DB 02 02 00 10 11 80  .{..............
0280: 00 8B 02 03 01 10 1F 80  01 DB 02 02 00 10 13 80  ................
0290: 00 9B 02 03 01 10 20 80  01 DB 02 02 00 10 14 80  ...... .........
02A0: 00 AB 02 03 01 10 21 80  01 DB 02 02 00 10 15 80  ......!.........
02B0: 00 BB 02 03 01 10 22 80  01 DB 02 02 00 10 16 80  ......".........
02C0: 00 CB 02 03 01 10 23 80  01 DB 02 02 00 10 17 80  ......#.........
02D0: 00 DB 02 03 01 10 24 80  01 DB 02 01 A9 00 00 24  ......$........$
02E0: 25 80 01 80 01 80 25 02  00 10 01 80 00 F7 02 03  %.....%.........
02F0: 01 10 02 80 01 17 04 02  00 10 03 80 00 07 03 03  ................
0300: 01 10 26 80 01 17 04 02  00 10 04 80 00 17 03 03  ..&.............
0310: 01 10 27 80 01 17 04 02  00 10 05 80 00 27 03 03  ..'..........'..
0320: 01 10 28 80 01 17 04 02  00 10 06 80 00 37 03 03  ..(..........7..
0330: 01 10 29 80 01 17 04 02  00 10 07 80 00 47 03 03  ..)..........G..
0340: 01 10 2A 80 01 17 04 02  00 10 08 80 00 57 03 03  ..*..........W..
0350: 01 10 2B 80 01 17 04 02  00 10 09 80 00 67 03 03  ..+..........g..
0360: 01 10 2C 80 01 17 04 02  00 10 0A 80 00 77 03 03  ..,..........w..
0370: 01 10 2D 80 01 17 04 02  00 10 0B 80 00 87 03 03  ..-.............
0380: 01 10 2E 80 01 17 04 02  00 10 0C 80 00 97 03 03  ................
0390: 01 10 2F 80 01 17 04 02  00 10 0F 80 00 A7 03 03  ../.............
03A0: 01 10 30 80 01 17 04 02  00 10 10 80 00 B7 03 03  ..0.............
03B0: 01 10 31 80 01 17 04 02  00 10 11 80 00 C7 03 03  ..1.............
03C0: 01 10 32 80 01 17 04 02  00 10 13 80 00 D7 03 03  ..2.............
03D0: 01 10 33 80 01 17 04 02  00 10 14 80 00 E7 03 03  ..3.............
03E0: 01 10 34 80 01 17 04 02  00 10 15 80 00 F7 03 03  ..4.............
03F0: 01 10 35 80 01 17 04 02  00 10 16 80 00 07 04 03  ..5.............
0400: 01 10 36 80 01 17 04 02  00 10 17 80 00 17 04 03  ..6.............
0410: 01 10 37 80 01 17 04 01  A9 00 00 24 38 80 01 80  ..7........$8...
0420: 01 80 25 02 00 10 01 80  00 33 04 03 01 10 02 80  ..%......3......
0430: 01 B3 05 02 00 10 03 80  00 43 04 03 01 10 39 80  .........C....9.
0440: 01 B3 05 02 00 10 04 80  00 53 04 03 01 10 3A 80  .........S....:.
0450: 01 B3 05 02 00 10 05 80  00 63 04 03 01 10 3B 80  .........c....;.
0460: 01 B3 05 02 00 10 06 80  00 73 04 03 01 10 3C 80  .........s....<.
0470: 01 B3 05 02 00 10 07 80  00 83 04 03 01 10 3D 80  ..............=.
0480: 01 B3 05 02 00 10 08 80  00 93 04 03 01 10 3E 80  ..............>.
0490: 01 B3 05 02 00 10 09 80  00 A3 04 03 01 10 3F 80  ..............?.
04A0: 01 B3 05 02 00 10 0A 80  00 B3 04 03 01 10 40 80  ..............@.
04B0: 01 B3 05 02 00 10 0B 80  00 C3 04 03 01 10 41 80  ..............A.
04C0: 01 B3 05 02 00 10 0C 80  00 D3 04 03 01 10 42 80  ..............B.
04D0: 01 B3 05 02 00 10 0F 80  00 E3 04 03 01 10 43 80  ..............C.
04E0: 01 B3 05 02 00 10 10 80  00 F3 04 03 01 10 44 80  ..............D.
04F0: 01 B3 05 02 00 10 11 80  00 03 05 03 01 10 45 80  ..............E.
0500: 01 B3 05 02 00 10 13 80  00 13 05 03 01 10 46 80  ..............F.
0510: 01 B3 05 02 00 10 14 80  00 23 05 03 01 10 47 80  .........#....G.
0520: 01 B3 05 02 00 10 15 80  00 33 05 03 01 10 48 80  .........3....H.
0530: 01 B3 05 02 00 10 16 80  00 43 05 03 01 10 49 80  .........C....I.
0540: 01 B3 05 02 00 10 17 80  00 53 05 03 01 10 4A 80  .........S....J.
0550: 01 B3 05 02 00 10 18 80  00 63 05 03 01 10 4B 80  .........c....K.
0560: 01 B3 05 02 00 10 19 80  00 73 05 03 01 10 4C 80  .........s....L.
0570: 01 B3 05 02 00 10 1A 80  00 83 05 03 01 10 4D 80  ..............M.
0580: 01 B3 05 02 00 10 1B 80  00 93 05 03 01 10 4E 80  ..............N.
0590: 01 B3 05 02 00 10 1C 80  00 A3 05 03 01 10 4F 80  ..............O.
05A0: 01 B3 05 02 00 10 1D 80  00 B3 05 03 01 10 50 80  ..............P.
05B0: 01 B3 05 01 A9 00 00 24  51 80 01 80 01 80 25 02  .......$Q.....%.
05C0: 00 10 01 80 00 CF 05 03  01 10 02 80 01 9F 06 02  ................
05D0: 00 10 03 80 00 DF 05 03  01 10 52 80 01 9F 06 02  ..........R.....
05E0: 00 10 04 80 00 EF 05 03  01 10 53 80 01 9F 06 02  ..........S.....
05F0: 00 10 05 80 00 FF 05 03  01 10 54 80 01 9F 06 02  ..........T.....
0600: 00 10 06 80 00 0F 06 03  01 10 55 80 01 9F 06 02  ..........U.....
0610: 00 10 07 80 00 1F 06 03  01 10 56 80 01 9F 06 02  ..........V.....
0620: 00 10 08 80 00 2F 06 03  01 10 57 80 01 9F 06 02  ...../....W.....
0630: 00 10 09 80 00 3F 06 03  01 10 58 80 01 9F 06 02  .....?....X.....
0640: 00 10 0A 80 00 4F 06 03  01 10 59 80 01 9F 06 02  .....O....Y.....
0650: 00 10 0B 80 00 5F 06 03  01 10 5A 80 01 9F 06 02  ....._....Z.....
0660: 00 10 0C 80 00 6F 06 03  01 10 5B 80 01 9F 06 02  .....o....[.....
0670: 00 10 0F 80 00 7F 06 03  01 10 5C 80 01 9F 06 02  ..........\.....
0680: 00 10 10 80 00 8F 06 03  01 10 5D 80 01 9F 06 02  ..........].....
0690: 00 10 11 80 00 9F 06 03  01 10 5E 80 01 9F 06 01  ..........^.....
06A0: A9 00 00 24 5F 80 01 80  01 80 25 02 00 10 01 80  ...$_.....%.....
06B0: 00 BB 06 03 01 10 02 80  01 2B 08 02 00 10 03 80  .........+......
06C0: 00 CB 06 03 01 10 60 80  01 2B 08 02 00 10 04 80  ......`..+......
06D0: 00 DB 06 03 01 10 61 80  01 2B 08 02 00 10 05 80  ......a..+......
06E0: 00 EB 06 03 01 10 62 80  01 2B 08 02 00 10 06 80  ......b..+......
06F0: 00 FB 06 03 01 10 63 80  01 2B 08 02 00 10 07 80  ......c..+......
0700: 00 0B 07 03 01 10 64 80  01 2B 08 02 00 10 08 80  ......d..+......
0710: 00 1B 07 03 01 10 65 80  01 2B 08 02 00 10 09 80  ......e..+......
0720: 00 2B 07 03 01 10 66 80  01 2B 08 02 00 10 0A 80  .+....f..+......
0730: 00 3B 07 03 01 10 67 80  01 2B 08 02 00 10 0B 80  .;....g..+......
0740: 00 4B 07 03 01 10 68 80  01 2B 08 02 00 10 0C 80  .K....h..+......
0750: 00 5B 07 03 01 10 69 80  01 2B 08 02 00 10 0F 80  .[....i..+......
0760: 00 6B 07 03 01 10 6A 80  01 2B 08 02 00 10 10 80  .k....j..+......
0770: 00 7B 07 03 01 10 6B 80  01 2B 08 02 00 10 11 80  .{....k..+......
0780: 00 8B 07 03 01 10 6C 80  01 2B 08 02 00 10 13 80  ......l..+......
0790: 00 9B 07 03 01 10 6D 80  01 2B 08 02 00 10 14 80  ......m..+......
07A0: 00 AB 07 03 01 10 6E 80  01 2B 08 02 00 10 15 80  ......n..+......
07B0: 00 BB 07 03 01 10 6F 80  01 2B 08 02 00 10 16 80  ......o..+......
07C0: 00 CB 07 03 01 10 70 80  01 2B 08 02 00 10 17 80  ......p..+......
07D0: 00 DB 07 03 01 10 71 80  01 2B 08 02 00 10 18 80  ......q..+......
07E0: 00 EB 07 03 01 10 72 80  01 2B 08 02 00 10 19 80  ......r..+......
07F0: 00 FB 07 03 01 10 73 80  01 2B 08 02 00 10 1A 80  ......s..+......
0800: 00 0B 08 03 01 10 74 80  01 2B 08 02 00 10 1B 80  ......t..+......
0810: 00 1B 08 03 01 10 75 80  01 2B 08 02 00 10 1C 80  ......u..+......
0820: 00 2B 08 03 01 10 76 80  01 2B 08 01 A9 00 00 24  .+....v..+.....$
0830: 77 80 01 80 01 80 25 02  00 10 03 80 00 45 08 01  w.....%......E..
0840: 65 08 01 61 08 02 00 10  04 80 00 53 08 01 3F 09  e..a.......S..?.
0850: 01 61 08 02 00 10 05 80  00 61 08 01 19 0A 01 61  .a.......a.....a
0860: 08 01 01 00 00 24 78 80  01 80 01 80 25 02 00 10  .....$x.....%...
0870: 01 80 00 7B 08 01 2F 08  01 3B 09 02 00 10 03 80  ...{../..;......
0880: 00 8B 08 03 01 10 79 80  01 3B 09 02 00 10 04 80  ......y..;......
0890: 00 9B 08 03 01 10 7A 80  01 3B 09 02 00 10 05 80  ......z..;......
08A0: 00 AB 08 03 01 10 7B 80  01 3B 09 02 00 10 06 80  ......{..;......
08B0: 00 BB 08 03 01 10 7C 80  01 3B 09 02 00 10 07 80  ......|..;......
08C0: 00 CB 08 03 01 10 7D 80  01 3B 09 02 00 10 08 80  ......}..;......
08D0: 00 DB 08 03 01 10 7E 80  01 3B 09 02 00 10 09 80  ......~..;......
08E0: 00 EB 08 03 01 10 7F 80  01 3B 09 02 00 10 0A 80  .........;......
08F0: 00 FB 08 03 01 10 80 80  01 3B 09 02 00 10 0B 80  .........;......
0900: 00 0B 09 03 01 10 81 80  01 3B 09 02 00 10 0C 80  .........;......
0910: 00 1B 09 03 01 10 82 80  01 3B 09 02 00 10 0F 80  .........;......
0920: 00 2B 09 03 01 10 83 80  01 3B 09 02 00 10 10 80  .+.......;......
0930: 00 3B 09 03 01 10 84 80  01 3B 09 01 A9 00 00 24  .;.......;.....$
0940: 85 80 01 80 01 80 25 02  00 10 01 80 00 55 09 01  ......%......U..
0950: 2F 08 01 15 0A 02 00 10  03 80 00 65 09 03 01 10  /..........e....
0960: 86 80 01 15 0A 02 00 10  04 80 00 75 09 03 01 10  ...........u....
0970: 87 80 01 15 0A 02 00 10  05 80 00 85 09 03 01 10  ................
0980: 88 80 01 15 0A 02 00 10  06 80 00 95 09 03 01 10  ................
0990: 89 80 01 15 0A 02 00 10  07 80 00 A5 09 03 01 10  ................
09A0: 8A 80 01 15 0A 02 00 10  08 80 00 B5 09 03 01 10  ................
09B0: 8B 80 01 15 0A 02 00 10  09 80 00 C5 09 03 01 10  ................
09C0: 8C 80 01 15 0A 02 00 10  0A 80 00 D5 09 03 01 10  ................
09D0: 8D 80 01 15 0A 02 00 10  0B 80 00 E5 09 03 01 10  ................
09E0: 8E 80 01 15 0A 02 00 10  0C 80 00 F5 09 03 01 10  ................
09F0: 8F 80 01 15 0A 02 00 10  0F 80 00 05 0A 03 01 10  ................
0A00: 90 80 01 15 0A 02 00 10  10 80 00 15 0A 03 01 10  ................
0A10: 91 80 01 15 0A 01 A9 00  00 24 92 80 01 80 01 80  .........$......
0A20: 25 02 00 10 01 80 00 2F  0A 01 2F 08 01 EF 0A 02  %....../../.....
0A30: 00 10 03 80 00 3F 0A 03  01 10 93 80 01 EF 0A 02  .....?..........
0A40: 00 10 04 80 00 4F 0A 03  01 10 94 80 01 EF 0A 02  .....O..........
0A50: 00 10 05 80 00 5F 0A 03  01 10 95 80 01 EF 0A 02  ....._..........
0A60: 00 10 06 80 00 6F 0A 03  01 10 96 80 01 EF 0A 02  .....o..........
0A70: 00 10 07 80 00 7F 0A 03  01 10 97 80 01 EF 0A 02  ................
0A80: 00 10 08 80 00 8F 0A 03  01 10 98 80 01 EF 0A 02  ................
0A90: 00 10 09 80 00 9F 0A 03  01 10 99 80 01 EF 0A 02  ................
0AA0: 00 10 0A 80 00 AF 0A 03  01 10 9A 80 01 EF 0A 02  ................
0AB0: 00 10 0B 80 00 BF 0A 03  01 10 9B 80 01 EF 0A 02  ................
0AC0: 00 10 0C 80 00 CF 0A 03  01 10 9C 80 01 EF 0A 02  ................
0AD0: 00 10 0F 80 00 DF 0A 03  01 10 9D 80 01 EF 0A 02  ................
0AE0: 00 10 10 80 00 EF 0A 03  01 10 9E 80 01 EF 0A 01  ................
0AF0: A9 00 00                                          ...             
```

#### Opcodes

```
  0: 0x0001 [0x24] CREATE_DIALOG(message_id=7495*, default_option=0*, option_flags=0*)
    → "How do you like your Wings? [Plucked./Campaign Battle ON./Campaign Battle OFF./Chain Quests in Past Three Nations/WotG, November 2007./WotG, June 2008./WotG, December 2008./WotG, July 2009./WotG, March 2010./WotG, September 2010./WotG, December 2010.]"
  1: 0x0008 [0x25] WAIT_DIALOG_SELECT()
  2: 0x0009 [0x02] IF !(Work_Zone[0] == 0*) GOTO 0x0019
  3: 0x0011 [0x03] Work_Zone[1] = 1073741824*
  4: 0x0016 [0x01] GOTO 0x00A9
  5: 0x0019 [0x02] IF !(Work_Zone[0] == 1*) GOTO 0x0029
  6: 0x0021 [0x03] Work_Zone[1] = 0*
  7: 0x0026 [0x01] GOTO 0x00A9
  8: 0x0029 [0x02] IF !(Work_Zone[0] == 2*) GOTO 0x0039
  9: 0x0031 [0x03] Work_Zone[1] = 1*
 10: 0x0036 [0x01] GOTO 0x00A9
 11: 0x0039 [0x02] IF !(Work_Zone[0] == 3*) GOTO 0x0047
 12: 0x0041 [0x01] GOTO 0x082F

SUBROUTINE_00A9:
 13: 0x00A9 [0x21] END_EVENT
 14: 0x00AA [0x00] END_REQSTACK()

SUBROUTINE_00AB:
 15: 0x00AB [0x24] CREATE_DIALOG(message_id=7496*, default_option=0*, option_flags=0*)
    → "How do you like your Wings? [Plucked./MS00_WotG./MS01_Present day, sucked into the maw./MS01_Dropped into Crystal War days./MS01_Walk of Echoes and the cat.]"
 16: 0x00B2 [0x25] WAIT_DIALOG_SELECT()
 17: 0x00B3 [0x02] IF !(Work_Zone[0] == 0*) GOTO 0x00C3
 18: 0x00BB [0x03] Work_Zone[1] = 1073741824*
 19: 0x00C0 [0x01] GOTO 0x0103
 20: 0x00C3 [0x02] IF !(Work_Zone[0] == 1*) GOTO 0x00D3
 21: 0x00CB [0x03] Work_Zone[1] = 2*
 22: 0x00D0 [0x01] GOTO 0x0103
 23: 0x00D3 [0x02] IF !(Work_Zone[0] == 2*) GOTO 0x00E3
 24: 0x00DB [0x03] Work_Zone[1] = 3*
 25: 0x00E0 [0x01] GOTO 0x0103
 26: 0x00E3 [0x02] IF !(Work_Zone[0] == 3*) GOTO 0x00F3
 27: 0x00EB [0x03] Work_Zone[1] = 4*
 28: 0x00F0 [0x01] GOTO 0x0103
 29: 0x00F3 [0x02] IF !(Work_Zone[0] == 4*) GOTO 0x0103
 30: 0x00FB [0x03] Work_Zone[1] = 5*
 31: 0x0100 [0x01] GOTO 0x0103

SUBROUTINE_0103:
 32: 0x0103 [0x01] GOTO 0x00A9

SUBROUTINE_0107:
 33: 0x0107 [0x24] CREATE_DIALOG(message_id=7585*, default_option=0*, option_flags=0*)
    → "Which setting would you like? [None./MS02_Troupe Mayakov arrives!/MS02_Chased off by ol' Alexei./MS02_20-year old ticket is so mine!/MS02_I survived the Troupe Mayakov experience./MS02_Future tags with Lilisette./MS02_Zomg! La Vaule smells like burning!/MS02_Beatdown at the old La Vaule battlefield!/MS02_Follow that cat!]"
 34: 0x010E [0x25] WAIT_DIALOG_SELECT()
 35: 0x010F [0x02] IF !(Work_Zone[0] == 0*) GOTO 0x011F
 36: 0x0117 [0x03] Work_Zone[1] = 1073741824*
 37: 0x011C [0x01] GOTO 0x019F
 38: 0x011F [0x02] IF !(Work_Zone[0] == 1*) GOTO 0x012F
 39: 0x0127 [0x03] Work_Zone[1] = 6*
 40: 0x012C [0x01] GOTO 0x019F
 41: 0x012F [0x02] IF !(Work_Zone[0] == 2*) GOTO 0x013F
 42: 0x0137 [0x03] Work_Zone[1] = 7*
 43: 0x013C [0x01] GOTO 0x019F
 44: 0x013F [0x02] IF !(Work_Zone[0] == 3*) GOTO 0x014F
 45: 0x0147 [0x03] Work_Zone[1] = 8*
 46: 0x014C [0x01] GOTO 0x019F
 47: 0x014F [0x02] IF !(Work_Zone[0] == 4*) GOTO 0x015F
 48: 0x0157 [0x03] Work_Zone[1] = 9*
 49: 0x015C [0x01] GOTO 0x019F
 50: 0x015F [0x02] IF !(Work_Zone[0] == 5*) GOTO 0x016F
 51: 0x0167 [0x03] Work_Zone[1] = 10*
 52: 0x016C [0x01] GOTO 0x019F
 53: 0x016F [0x02] IF !(Work_Zone[0] == 6*) GOTO 0x017F
 54: 0x0177 [0x03] Work_Zone[1] = 11*
 55: 0x017C [0x01] GOTO 0x019F
 56: 0x017F [0x02] IF !(Work_Zone[0] == 7*) GOTO 0x018F
 57: 0x0187 [0x03] Work_Zone[1] = 12*
 58: 0x018C [0x01] GOTO 0x019F
 59: 0x018F [0x02] IF !(Work_Zone[0] == 8*) GOTO 0x019F
 60: 0x0197 [0x03] Work_Zone[1] = 13*
 61: 0x019C [0x01] GOTO 0x019F

SUBROUTINE_019F:
 62: 0x019F [0x01] GOTO 0x00A9

SUBROUTINE_01A3:
 63: 0x01A3 [0x24] CREATE_DIALOG(message_id=7591*, default_option=0*, option_flags=0*)
    → "Which setting would you like? [None./MS03_Got hit on by Mayakov./MS03_Met up with Ragelise in the Chateau./MS03_Met up with Lilisette in Jugner./MS03_Learned about medicine from the cat./MS03_Learned about medicine ingredients from Amaura./MS03_Learned how to prepare said ingredients./MS03_Planted seed in Jugner (S)./MS03_Lilisette gets KO'ed./@MS03_Defeated treant NM./MS03_Gave medicine ingredients to Amaura./MS03_Finally got the medicine./MS03_Visit other 2 nations in Ragie's stead./@MS03_First stop, Bastok./@MS03_First stop, Windurst./MS03_2 nations utterly visited./MS03_Delivered reinforcement news to Jeuno./MS03_Before layer battle: prevented surrender./MS03_Beastmen decide Tavnazia would be more fun.]"
 64: 0x01AA [0x25] WAIT_DIALOG_SELECT()
 65: 0x01AB [0x02] IF !(Work_Zone[0] == 0*) GOTO 0x01BB
 66: 0x01B3 [0x03] Work_Zone[1] = 1073741824*
 67: 0x01B8 [0x01] GOTO 0x02DB
 68: 0x01BB [0x02] IF !(Work_Zone[0] == 1*) GOTO 0x01CB
 69: 0x01C3 [0x03] Work_Zone[1] = 14*
 70: 0x01C8 [0x01] GOTO 0x02DB
 71: 0x01CB [0x02] IF !(Work_Zone[0] == 2*) GOTO 0x01DB
 72: 0x01D3 [0x03] Work_Zone[1] = 15*
 73: 0x01D8 [0x01] GOTO 0x02DB
 74: 0x01DB [0x02] IF !(Work_Zone[0] == 3*) GOTO 0x01EB
 75: 0x01E3 [0x03] Work_Zone[1] = 16*
 76: 0x01E8 [0x01] GOTO 0x02DB
 77: 0x01EB [0x02] IF !(Work_Zone[0] == 4*) GOTO 0x01FB
 78: 0x01F3 [0x03] Work_Zone[1] = 17*
 79: 0x01F8 [0x01] GOTO 0x02DB
 80: 0x01FB [0x02] IF !(Work_Zone[0] == 5*) GOTO 0x020B
 81: 0x0203 [0x03] Work_Zone[1] = 18*
 82: 0x0208 [0x01] GOTO 0x02DB
 83: 0x020B [0x02] IF !(Work_Zone[0] == 6*) GOTO 0x021B
 84: 0x0213 [0x03] Work_Zone[1] = 19*
 85: 0x0218 [0x01] GOTO 0x02DB
 86: 0x021B [0x02] IF !(Work_Zone[0] == 7*) GOTO 0x022B
 87: 0x0223 [0x03] Work_Zone[1] = 20*
 88: 0x0228 [0x01] GOTO 0x02DB
 89: 0x022B [0x02] IF !(Work_Zone[0] == 8*) GOTO 0x023B
 90: 0x0233 [0x03] Work_Zone[1] = 21*
 91: 0x0238 [0x01] GOTO 0x02DB
 92: 0x023B [0x02] IF !(Work_Zone[0] == 9*) GOTO 0x024B
 93: 0x0243 [0x03] Work_Zone[1] = 22*
 94: 0x0248 [0x01] GOTO 0x02DB
 95: 0x024B [0x02] IF !(Work_Zone[0] == 10*) GOTO 0x025B
 96: 0x0253 [0x03] Work_Zone[1] = 23*
 97: 0x0258 [0x01] GOTO 0x02DB
 98: 0x025B [0x02] IF !(Work_Zone[0] == 11*) GOTO 0x026B
 99: 0x0263 [0x03] Work_Zone[1] = 24*
100: 0x0268 [0x01] GOTO 0x02DB
101: 0x026B [0x02] IF !(Work_Zone[0] == 12*) GOTO 0x027B
102: 0x0273 [0x03] Work_Zone[1] = 25*
103: 0x0278 [0x01] GOTO 0x02DB
104: 0x027B [0x02] IF !(Work_Zone[0] == 13*) GOTO 0x028B
105: 0x0283 [0x03] Work_Zone[1] = 26*
106: 0x0288 [0x01] GOTO 0x02DB
107: 0x028B [0x02] IF !(Work_Zone[0] == 14*) GOTO 0x029B
108: 0x0293 [0x03] Work_Zone[1] = 27*
109: 0x0298 [0x01] GOTO 0x02DB
110: 0x029B [0x02] IF !(Work_Zone[0] == 15*) GOTO 0x02AB
111: 0x02A3 [0x03] Work_Zone[1] = 28*
112: 0x02A8 [0x01] GOTO 0x02DB
113: 0x02AB [0x02] IF !(Work_Zone[0] == 16*) GOTO 0x02BB
114: 0x02B3 [0x03] Work_Zone[1] = 29*
115: 0x02B8 [0x01] GOTO 0x02DB
116: 0x02BB [0x02] IF !(Work_Zone[0] == 17*) GOTO 0x02CB
117: 0x02C3 [0x03] Work_Zone[1] = 30*
118: 0x02C8 [0x01] GOTO 0x02DB
119: 0x02CB [0x02] IF !(Work_Zone[0] == 18*) GOTO 0x02DB
120: 0x02D3 [0x03] Work_Zone[1] = 31*
121: 0x02D8 [0x01] GOTO 0x02DB

SUBROUTINE_02DB:
122: 0x02DB [0x01] GOTO 0x00A9

SUBROUTINE_02DF:
123: 0x02DF [0x24] CREATE_DIALOG(message_id=7665*, default_option=0*, option_flags=0*)
    → "Set your mission progress! [Nah./MS04_Ran into Lilisette./MS04_Had heart-to-heart with Mayakov./MS04_Met Naoi at Glacier./@MS04_5 Mini-game: 1 done./@MS04_5 Mini-game: 2 done./@MS04_5 Mini-game: 3 done./@MS04_5 Mini-game: shooting done./@MS04_5 Mini-game: luring done./MS04_Aced all five mini-games./MS04_Follow the traitor!/MS04_Caught Ceithir with Galka./MS04_Lilisette and her ma get shanghaied./MS04_Broke news to Ragelise./MS04_Battle at glacier approved!/MS04_Return to glacier. Things get CrAzY./MS04_Cait Siths merged!/MS04_Portia makes her choice./MS04_Lilisette crumbleth.]"
124: 0x02E6 [0x25] WAIT_DIALOG_SELECT()
125: 0x02E7 [0x02] IF !(Work_Zone[0] == 0*) GOTO 0x02F7
126: 0x02EF [0x03] Work_Zone[1] = 1073741824*
127: 0x02F4 [0x01] GOTO 0x0417
128: 0x02F7 [0x02] IF !(Work_Zone[0] == 1*) GOTO 0x0307
129: 0x02FF [0x03] Work_Zone[1] = 32*
130: 0x0304 [0x01] GOTO 0x0417
131: 0x0307 [0x02] IF !(Work_Zone[0] == 2*) GOTO 0x0317
132: 0x030F [0x03] Work_Zone[1] = 33*
133: 0x0314 [0x01] GOTO 0x0417
134: 0x0317 [0x02] IF !(Work_Zone[0] == 3*) GOTO 0x0327
135: 0x031F [0x03] Work_Zone[1] = 34*
136: 0x0324 [0x01] GOTO 0x0417
137: 0x0327 [0x02] IF !(Work_Zone[0] == 4*) GOTO 0x0337
138: 0x032F [0x03] Work_Zone[1] = 35*
139: 0x0334 [0x01] GOTO 0x0417
140: 0x0337 [0x02] IF !(Work_Zone[0] == 5*) GOTO 0x0347
141: 0x033F [0x03] Work_Zone[1] = 36*
142: 0x0344 [0x01] GOTO 0x0417
143: 0x0347 [0x02] IF !(Work_Zone[0] == 6*) GOTO 0x0357
144: 0x034F [0x03] Work_Zone[1] = 37*
145: 0x0354 [0x01] GOTO 0x0417
146: 0x0357 [0x02] IF !(Work_Zone[0] == 7*) GOTO 0x0367
147: 0x035F [0x03] Work_Zone[1] = 38*
148: 0x0364 [0x01] GOTO 0x0417
149: 0x0367 [0x02] IF !(Work_Zone[0] == 8*) GOTO 0x0377
150: 0x036F [0x03] Work_Zone[1] = 39*
151: 0x0374 [0x01] GOTO 0x0417
152: 0x0377 [0x02] IF !(Work_Zone[0] == 9*) GOTO 0x0387
153: 0x037F [0x03] Work_Zone[1] = 40*
154: 0x0384 [0x01] GOTO 0x0417
155: 0x0387 [0x02] IF !(Work_Zone[0] == 10*) GOTO 0x0397
156: 0x038F [0x03] Work_Zone[1] = 41*
157: 0x0394 [0x01] GOTO 0x0417
158: 0x0397 [0x02] IF !(Work_Zone[0] == 11*) GOTO 0x03A7
159: 0x039F [0x03] Work_Zone[1] = 42*
160: 0x03A4 [0x01] GOTO 0x0417
161: 0x03A7 [0x02] IF !(Work_Zone[0] == 12*) GOTO 0x03B7
162: 0x03AF [0x03] Work_Zone[1] = 43*
163: 0x03B4 [0x01] GOTO 0x0417
164: 0x03B7 [0x02] IF !(Work_Zone[0] == 13*) GOTO 0x03C7
165: 0x03BF [0x03] Work_Zone[1] = 44*
166: 0x03C4 [0x01] GOTO 0x0417
167: 0x03C7 [0x02] IF !(Work_Zone[0] == 14*) GOTO 0x03D7
168: 0x03CF [0x03] Work_Zone[1] = 45*
169: 0x03D4 [0x01] GOTO 0x0417
170: 0x03D7 [0x02] IF !(Work_Zone[0] == 15*) GOTO 0x03E7
171: 0x03DF [0x03] Work_Zone[1] = 46*
172: 0x03E4 [0x01] GOTO 0x0417
173: 0x03E7 [0x02] IF !(Work_Zone[0] == 16*) GOTO 0x03F7
174: 0x03EF [0x03] Work_Zone[1] = 47*
175: 0x03F4 [0x01] GOTO 0x0417
176: 0x03F7 [0x02] IF !(Work_Zone[0] == 17*) GOTO 0x0407
177: 0x03FF [0x03] Work_Zone[1] = 48*
178: 0x0404 [0x01] GOTO 0x0417
179: 0x0407 [0x02] IF !(Work_Zone[0] == 18*) GOTO 0x0417
180: 0x040F [0x03] Work_Zone[1] = 49*
181: 0x0414 [0x01] GOTO 0x0417

SUBROUTINE_0417:
182: 0x0417 [0x01] GOTO 0x00A9

SUBROUTINE_041B:
183: 0x041B [0x24] CREATE_DIALOG(message_id=7717*, default_option=0*, option_flags=0*)
    → "Set your mission progress! [Nah./MS05_Saw send-off at Lion Springs./MS05_Stood at Allied strategy meeting./MS05_Present day. Saw comet over San d'Oria./MS05_Present day. Met with Halver./MS05_Present day. Paid respects at gravestone./MS05_Present day. Met with white Larzos./MS05_Saw army amassing on Xarcabard./MS05_Got assigned messenger duty./MS05_Delivered message to Windurstian army./MS05_Windurst: preparations complete./MS05_Delivered message to Bastokan army./MS05_Bastok: preparations complete./MS05_Strike force makes for Castle Zvahl./MS05_Operation Snowstorm is GO!/MS05_Bifrons joins in the fun./MS05_Shadow Lord pwns Allies./MS05_Operation foiled. Sigh./MS05_Escaped from Castle Zvahl./MS05_Operation Snowstorm are FAIL!/MS05_Ragelise dishonorably discharged./MS05_Follow that couple to the Throne Room!/MS05_You, Lilisette separated from Cait./MS05_Pwned Haudrale and Aquila./MS05_Defeat. Lilisette vanishes.]"
184: 0x0422 [0x25] WAIT_DIALOG_SELECT()
185: 0x0423 [0x02] IF !(Work_Zone[0] == 0*) GOTO 0x0433
186: 0x042B [0x03] Work_Zone[1] = 1073741824*
187: 0x0430 [0x01] GOTO 0x05B3
188: 0x0433 [0x02] IF !(Work_Zone[0] == 1*) GOTO 0x0443
189: 0x043B [0x03] Work_Zone[1] = 50*
190: 0x0440 [0x01] GOTO 0x05B3
191: 0x0443 [0x02] IF !(Work_Zone[0] == 2*) GOTO 0x0453
192: 0x044B [0x03] Work_Zone[1] = 51*
193: 0x0450 [0x01] GOTO 0x05B3
194: 0x0453 [0x02] IF !(Work_Zone[0] == 3*) GOTO 0x0463
195: 0x045B [0x03] Work_Zone[1] = 52*
196: 0x0460 [0x01] GOTO 0x05B3
197: 0x0463 [0x02] IF !(Work_Zone[0] == 4*) GOTO 0x0473
198: 0x046B [0x03] Work_Zone[1] = 53*
199: 0x0470 [0x01] GOTO 0x05B3
200: 0x0473 [0x02] IF !(Work_Zone[0] == 5*) GOTO 0x0483
201: 0x047B [0x03] Work_Zone[1] = 54*
202: 0x0480 [0x01] GOTO 0x05B3
203: 0x0483 [0x02] IF !(Work_Zone[0] == 6*) GOTO 0x0493
204: 0x048B [0x03] Work_Zone[1] = 55*
205: 0x0490 [0x01] GOTO 0x05B3
206: 0x0493 [0x02] IF !(Work_Zone[0] == 7*) GOTO 0x04A3
207: 0x049B [0x03] Work_Zone[1] = 56*
208: 0x04A0 [0x01] GOTO 0x05B3
209: 0x04A3 [0x02] IF !(Work_Zone[0] == 8*) GOTO 0x04B3
210: 0x04AB [0x03] Work_Zone[1] = 57*
211: 0x04B0 [0x01] GOTO 0x05B3
212: 0x04B3 [0x02] IF !(Work_Zone[0] == 9*) GOTO 0x04C3
213: 0x04BB [0x03] Work_Zone[1] = 58*
214: 0x04C0 [0x01] GOTO 0x05B3
215: 0x04C3 [0x02] IF !(Work_Zone[0] == 10*) GOTO 0x04D3
216: 0x04CB [0x03] Work_Zone[1] = 59*
217: 0x04D0 [0x01] GOTO 0x05B3
218: 0x04D3 [0x02] IF !(Work_Zone[0] == 11*) GOTO 0x04E3
219: 0x04DB [0x03] Work_Zone[1] = 60*
220: 0x04E0 [0x01] GOTO 0x05B3
221: 0x04E3 [0x02] IF !(Work_Zone[0] == 12*) GOTO 0x04F3
222: 0x04EB [0x03] Work_Zone[1] = 61*
223: 0x04F0 [0x01] GOTO 0x05B3
224: 0x04F3 [0x02] IF !(Work_Zone[0] == 13*) GOTO 0x0503
225: 0x04FB [0x03] Work_Zone[1] = 62*
226: 0x0500 [0x01] GOTO 0x05B3
227: 0x0503 [0x02] IF !(Work_Zone[0] == 14*) GOTO 0x0513
228: 0x050B [0x03] Work_Zone[1] = 63*
229: 0x0510 [0x01] GOTO 0x05B3
230: 0x0513 [0x02] IF !(Work_Zone[0] == 15*) GOTO 0x0523
231: 0x051B [0x03] Work_Zone[1] = 64*
232: 0x0520 [0x01] GOTO 0x05B3
233: 0x0523 [0x02] IF !(Work_Zone[0] == 16*) GOTO 0x0533
234: 0x052B [0x03] Work_Zone[1] = 65*
235: 0x0530 [0x01] GOTO 0x05B3
236: 0x0533 [0x02] IF !(Work_Zone[0] == 17*) GOTO 0x0543
237: 0x053B [0x03] Work_Zone[1] = 66*
238: 0x0540 [0x01] GOTO 0x05B3
239: 0x0543 [0x02] IF !(Work_Zone[0] == 18*) GOTO 0x0553
240: 0x054B [0x03] Work_Zone[1] = 67*
241: 0x0550 [0x01] GOTO 0x05B3
242: 0x0553 [0x02] IF !(Work_Zone[0] == 19*) GOTO 0x0563
243: 0x055B [0x03] Work_Zone[1] = 68*
244: 0x0560 [0x01] GOTO 0x05B3
245: 0x0563 [0x02] IF !(Work_Zone[0] == 20*) GOTO 0x0573
246: 0x056B [0x03] Work_Zone[1] = 69*
247: 0x0570 [0x01] GOTO 0x05B3
248: 0x0573 [0x02] IF !(Work_Zone[0] == 21*) GOTO 0x0583
249: 0x057B [0x03] Work_Zone[1] = 70*
250: 0x0580 [0x01] GOTO 0x05B3
251: 0x0583 [0x02] IF !(Work_Zone[0] == 22*) GOTO 0x0593
252: 0x058B [0x03] Work_Zone[1] = 71*
253: 0x0590 [0x01] GOTO 0x05B3
254: 0x0593 [0x02] IF !(Work_Zone[0] == 23*) GOTO 0x05A3
255: 0x059B [0x03] Work_Zone[1] = 72*
256: 0x05A0 [0x01] GOTO 0x05B3
257: 0x05A3 [0x02] IF !(Work_Zone[0] == 24*) GOTO 0x05B3
258: 0x05AB [0x03] Work_Zone[1] = 73*
259: 0x05B0 [0x01] GOTO 0x05B3

SUBROUTINE_05B3:
260: 0x05B3 [0x01] GOTO 0x00A9

SUBROUTINE_05B7:
261: 0x05B7 [0x24] CREATE_DIALOG(message_id=7822*, default_option=0*, option_flags=0*)
    → "Set your mission progress! [Nah./MS06_Catht out of Lion Thpringth./MS06_Saw Lilisette and Cousseraux converse./MS06_Lilisette's memories (start)./ MS06_Homecoming./ MS06_Bean Cuisine./ MS06_His and Her Circumstance./ MS06_Tombstone Resolution./ MS06_Operation: Cupid./ MS06_Footprints of [Red/Blue/Green]./ MS06_Incurable Affliction./MS06_Lilisette's memories (finished)./MS06_Column of light strikes Grauberg/MS06_Lilisette's egg, the battle for Shiro'diel]"
262: 0x05BE [0x25] WAIT_DIALOG_SELECT()
263: 0x05BF [0x02] IF !(Work_Zone[0] == 0*) GOTO 0x05CF
264: 0x05C7 [0x03] Work_Zone[1] = 1073741824*
265: 0x05CC [0x01] GOTO 0x069F
266: 0x05CF [0x02] IF !(Work_Zone[0] == 1*) GOTO 0x05DF
267: 0x05D7 [0x03] Work_Zone[1] = 74*
268: 0x05DC [0x01] GOTO 0x069F
269: 0x05DF [0x02] IF !(Work_Zone[0] == 2*) GOTO 0x05EF
270: 0x05E7 [0x03] Work_Zone[1] = 75*
271: 0x05EC [0x01] GOTO 0x069F
272: 0x05EF [0x02] IF !(Work_Zone[0] == 3*) GOTO 0x05FF
273: 0x05F7 [0x03] Work_Zone[1] = 76*
274: 0x05FC [0x01] GOTO 0x069F
275: 0x05FF [0x02] IF !(Work_Zone[0] == 4*) GOTO 0x060F
276: 0x0607 [0x03] Work_Zone[1] = 77*
277: 0x060C [0x01] GOTO 0x069F
278: 0x060F [0x02] IF !(Work_Zone[0] == 5*) GOTO 0x061F
279: 0x0617 [0x03] Work_Zone[1] = 78*
280: 0x061C [0x01] GOTO 0x069F
281: 0x061F [0x02] IF !(Work_Zone[0] == 6*) GOTO 0x062F
282: 0x0627 [0x03] Work_Zone[1] = 79*
283: 0x062C [0x01] GOTO 0x069F
284: 0x062F [0x02] IF !(Work_Zone[0] == 7*) GOTO 0x063F
285: 0x0637 [0x03] Work_Zone[1] = 80*
286: 0x063C [0x01] GOTO 0x069F
287: 0x063F [0x02] IF !(Work_Zone[0] == 8*) GOTO 0x064F
288: 0x0647 [0x03] Work_Zone[1] = 81*
289: 0x064C [0x01] GOTO 0x069F
290: 0x064F [0x02] IF !(Work_Zone[0] == 9*) GOTO 0x065F
291: 0x0657 [0x03] Work_Zone[1] = 82*
292: 0x065C [0x01] GOTO 0x069F
293: 0x065F [0x02] IF !(Work_Zone[0] == 10*) GOTO 0x066F
294: 0x0667 [0x03] Work_Zone[1] = 83*
295: 0x066C [0x01] GOTO 0x069F
296: 0x066F [0x02] IF !(Work_Zone[0] == 11*) GOTO 0x067F
297: 0x0677 [0x03] Work_Zone[1] = 84*
298: 0x067C [0x01] GOTO 0x069F
299: 0x067F [0x02] IF !(Work_Zone[0] == 12*) GOTO 0x068F
300: 0x0687 [0x03] Work_Zone[1] = 85*
301: 0x068C [0x01] GOTO 0x069F
302: 0x068F [0x02] IF !(Work_Zone[0] == 13*) GOTO 0x069F
303: 0x0697 [0x03] Work_Zone[1] = 86*
304: 0x069C [0x01] GOTO 0x069F

SUBROUTINE_069F:
305: 0x069F [0x01] GOTO 0x00A9

SUBROUTINE_06A3:
306: 0x06A3 [0x24] CREATE_DIALOG(message_id=7827*, default_option=0*, option_flags=0*)
    → "Set your mission progress. [Another time./MS07_Heard Cait Sith's grand scheme./MS07_Off to the Walk of Echoes./MS07_Previewed battle with Neo Spitewardens./MS07_Wiped the Walk with Neo Spitewardens./MS07_Victoly! How goes Lilisette?/MS07_Lilisette is reborn!/MS07_Find Cait Sith in Ronfaure./MS07_Find junctions of eventualities!/@MS07_La Vaule./@MS07_Jugner./@MS07_Beaucedine./@MS07_Xarcabard./@MS07_Throne Room./@MS07_Walk of Echoes./@MS07_San d'Oria./MS07_Found all junctions!/MS07_Off to face Lady Lilith./MS07_Lilisette's mid-journey ramble./MS07_Previewed battle with Lilith./MS07_Pwned Lilith./MS07_Parted with Lilisette./MS07_Received wedding invitation. /MS07_Witness joining of Ragie and Portia./MS07_Partook in reception.]"
307: 0x06AA [0x25] WAIT_DIALOG_SELECT()
308: 0x06AB [0x02] IF !(Work_Zone[0] == 0*) GOTO 0x06BB
309: 0x06B3 [0x03] Work_Zone[1] = 1073741824*
310: 0x06B8 [0x01] GOTO 0x082B
311: 0x06BB [0x02] IF !(Work_Zone[0] == 1*) GOTO 0x06CB
312: 0x06C3 [0x03] Work_Zone[1] = 160*
313: 0x06C8 [0x01] GOTO 0x082B
314: 0x06CB [0x02] IF !(Work_Zone[0] == 2*) GOTO 0x06DB
315: 0x06D3 [0x03] Work_Zone[1] = 161*
316: 0x06D8 [0x01] GOTO 0x082B
317: 0x06DB [0x02] IF !(Work_Zone[0] == 3*) GOTO 0x06EB
318: 0x06E3 [0x03] Work_Zone[1] = 162*
319: 0x06E8 [0x01] GOTO 0x082B
320: 0x06EB [0x02] IF !(Work_Zone[0] == 4*) GOTO 0x06FB
321: 0x06F3 [0x03] Work_Zone[1] = 163*
322: 0x06F8 [0x01] GOTO 0x082B
323: 0x06FB [0x02] IF !(Work_Zone[0] == 5*) GOTO 0x070B
324: 0x0703 [0x03] Work_Zone[1] = 164*
325: 0x0708 [0x01] GOTO 0x082B
326: 0x070B [0x02] IF !(Work_Zone[0] == 6*) GOTO 0x071B
327: 0x0713 [0x03] Work_Zone[1] = 165*
328: 0x0718 [0x01] GOTO 0x082B
329: 0x071B [0x02] IF !(Work_Zone[0] == 7*) GOTO 0x072B
330: 0x0723 [0x03] Work_Zone[1] = 166*
331: 0x0728 [0x01] GOTO 0x082B
332: 0x072B [0x02] IF !(Work_Zone[0] == 8*) GOTO 0x073B
333: 0x0733 [0x03] Work_Zone[1] = 167*
334: 0x0738 [0x01] GOTO 0x082B
335: 0x073B [0x02] IF !(Work_Zone[0] == 9*) GOTO 0x074B
336: 0x0743 [0x03] Work_Zone[1] = 168*
337: 0x0748 [0x01] GOTO 0x082B
338: 0x074B [0x02] IF !(Work_Zone[0] == 10*) GOTO 0x075B
339: 0x0753 [0x03] Work_Zone[1] = 169*
340: 0x0758 [0x01] GOTO 0x082B
341: 0x075B [0x02] IF !(Work_Zone[0] == 11*) GOTO 0x076B
342: 0x0763 [0x03] Work_Zone[1] = 170*
343: 0x0768 [0x01] GOTO 0x082B
344: 0x076B [0x02] IF !(Work_Zone[0] == 12*) GOTO 0x077B
345: 0x0773 [0x03] Work_Zone[1] = 171*
346: 0x0778 [0x01] GOTO 0x082B
347: 0x077B [0x02] IF !(Work_Zone[0] == 13*) GOTO 0x078B
348: 0x0783 [0x03] Work_Zone[1] = 172*
349: 0x0788 [0x01] GOTO 0x082B
350: 0x078B [0x02] IF !(Work_Zone[0] == 14*) GOTO 0x079B
351: 0x0793 [0x03] Work_Zone[1] = 173*
352: 0x0798 [0x01] GOTO 0x082B
353: 0x079B [0x02] IF !(Work_Zone[0] == 15*) GOTO 0x07AB
354: 0x07A3 [0x03] Work_Zone[1] = 174*
355: 0x07A8 [0x01] GOTO 0x082B
356: 0x07AB [0x02] IF !(Work_Zone[0] == 16*) GOTO 0x07BB
357: 0x07B3 [0x03] Work_Zone[1] = 175*
358: 0x07B8 [0x01] GOTO 0x082B
359: 0x07BB [0x02] IF !(Work_Zone[0] == 17*) GOTO 0x07CB
360: 0x07C3 [0x03] Work_Zone[1] = 176*
361: 0x07C8 [0x01] GOTO 0x082B
362: 0x07CB [0x02] IF !(Work_Zone[0] == 18*) GOTO 0x07DB
363: 0x07D3 [0x03] Work_Zone[1] = 177*
364: 0x07D8 [0x01] GOTO 0x082B
365: 0x07DB [0x02] IF !(Work_Zone[0] == 19*) GOTO 0x07EB
366: 0x07E3 [0x03] Work_Zone[1] = 178*
367: 0x07E8 [0x01] GOTO 0x082B
368: 0x07EB [0x02] IF !(Work_Zone[0] == 20*) GOTO 0x07FB
369: 0x07F3 [0x03] Work_Zone[1] = 179*
370: 0x07F8 [0x01] GOTO 0x082B
371: 0x07FB [0x02] IF !(Work_Zone[0] == 21*) GOTO 0x080B
372: 0x0803 [0x03] Work_Zone[1] = 180*
373: 0x0808 [0x01] GOTO 0x082B
374: 0x080B [0x02] IF !(Work_Zone[0] == 22*) GOTO 0x081B
375: 0x0813 [0x03] Work_Zone[1] = 181*
376: 0x0818 [0x01] GOTO 0x082B
377: 0x081B [0x02] IF !(Work_Zone[0] == 23*) GOTO 0x082B
378: 0x0823 [0x03] Work_Zone[1] = 182*
379: 0x0828 [0x01] GOTO 0x082B

SUBROUTINE_082B:
380: 0x082B [0x01] GOTO 0x00A9

SUBROUTINE_082F:
381: 0x082F [0x24] CREATE_DIALOG(message_id=7586*, default_option=0*, option_flags=0*)
    → "Which nation? [None of 'em./San d'Oria (S)/Bastok (S)/Windurst (S)]"
382: 0x0836 [0x25] WAIT_DIALOG_SELECT()
383: 0x0837 [0x02] IF !(Work_Zone[0] == 1*) GOTO 0x0845
384: 0x083F [0x01] GOTO 0x0865

SUBROUTINE_0861:
385: 0x0861 [0x01] GOTO 0x0001

SUBROUTINE_0865:
386: 0x0865 [0x24] CREATE_DIALOG(message_id=7587*, default_option=0*, option_flags=0*)
    → "Cleared up to which quest? [None of 'em./Gifts of the Griffon./Claws of the Griffon./Boy and the Beast./Wrath of the Griffon./Perils of the Griffon./In a Haze of Glory./The Price of Valor./Bonds That Never Die./Songbirds in a Snowstorm./Blood of Heroes./Chasing at Shadows./Face of the Future.]"
387: 0x086C [0x25] WAIT_DIALOG_SELECT()
388: 0x086D [0x02] IF !(Work_Zone[0] == 0*) GOTO 0x087B
389: 0x0875 [0x01] GOTO 0x082F

SUBROUTINE_093B:
390: 0x093B [0x01] GOTO 0x00A9

SUBROUTINE_093F:
391: 0x093F [0x24] CREATE_DIALOG(message_id=7588*, default_option=0*, option_flags=0*)
    → "Cleared up to which quest? [None of 'em./Better Part of Valor./Fires of Discontent./Light in the Darkness./Burden of Suspicion./Storm on the Horizon./Fire in the Hole./Quelling the Storm./Honor Under Fire./Beneath the Mask./What Price Loyalty./The Truth Lies Hid./Bonds of Mythril.]"
392: 0x0946 [0x25] WAIT_DIALOG_SELECT()
393: 0x0947 [0x02] IF !(Work_Zone[0] == 0*) GOTO 0x0955
394: 0x094F [0x01] GOTO 0x082F

SUBROUTINE_0A15:
395: 0x0A15 [0x01] GOTO 0x00A9

SUBROUTINE_0A19:
396: 0x0A19 [0x24] CREATE_DIALOG(message_id=7589*, default_option=0*, option_flags=0*)
    → "Cleared up to which quest? [None of 'em./The Tigress Stirs./The Tigress Strikes./Knot Quite There./A Manifest Problem./When One Man Is Not Enough./A Feast for Gnats./The Long March North./The Forbidden Path./Sins of the Mothers./Howl from the Heavens./Manifest Destiny./At Journey's End.]"
397: 0x0A20 [0x25] WAIT_DIALOG_SELECT()
398: 0x0A21 [0x02] IF !(Work_Zone[0] == 0*) GOTO 0x0A2F
399: 0x0A29 [0x01] GOTO 0x082F

SUBROUTINE_0AEF:
400: 0x0AEF [0x01] GOTO 0x00A9
```

#### Data or dead code:

```
# Dead code (unreachable instructions):
     0x0044 [0x01] GOTO 0x00A9
     0x0052 [0x01] GOTO 0x00A9
     0x0060 [0x01] GOTO 0x00A9
     0x006E [0x01] GOTO 0x00A9
     0x007C [0x01] GOTO 0x00A9
     0x008A [0x01] GOTO 0x00A9
     0x0098 [0x01] GOTO 0x00A9
     0x00A6 [0x01] GOTO 0x00A9
# Dead code (unreachable instructions):
     0x0106 [0x00] END_REQSTACK()
# Dead code (unreachable instructions):
     0x01A2 [0x00] END_REQSTACK()
# Dead code (unreachable instructions):
     0x02DE [0x00] END_REQSTACK()
# Dead code (unreachable instructions):
     0x041A [0x00] END_REQSTACK()
# Dead code (unreachable instructions):
     0x05B6 [0x00] END_REQSTACK()
# Dead code (unreachable instructions):
     0x06A2 [0x00] END_REQSTACK()
# Dead code (unreachable instructions):
     0x082E [0x00] END_REQSTACK()
# Dead code (unreachable instructions):
     0x0842 [0x01] GOTO 0x0861
     0x0850 [0x01] GOTO 0x0861
     0x085E [0x01] GOTO 0x0861
# Dead code (unreachable instructions):
     0x0864 [0x00] END_REQSTACK()
# Dead code (unreachable instructions):
     0x0878 [0x01] GOTO 0x093B
# Dead code (unreachable instructions):
     0x093E [0x00] END_REQSTACK()
# Dead code (unreachable instructions):
     0x0952 [0x01] GOTO 0x0A15
# Dead code (unreachable instructions):
     0x0A18 [0x00] END_REQSTACK()
# Dead code (unreachable instructions):
     0x0A2C [0x01] GOTO 0x0AEF
# Dead code (unreachable instructions):
     0x0AF2 [0x00] END_REQSTACK()
```
