# 17637444 - Speaker

## Common Data

| Field            | Value             |
|------------------|-------------------|
| Zone             | GM_Home (ID: 210) |
| Block Size       | 84 bytes          |
| Total Events     | 2                 |
| References Count | 3                 |

## List of Events

| Event ID              | Entrypoint   |   Size |   Instructions |
|-----------------------|--------------|--------|----------------|
| [65535](#event-65535) | 0x0000       |      1 |              1 |
| [120](#event-120)     | 0x0001       |     47 |             12 |

## DAT References (imed_data)

|   Index | Hex Value   |   Dec Value |
|---------|-------------|-------------|
|       0 | 0x001E      |          30 |
|       1 | 0x232C      |        9004 |
|       2 | 0x232D      |        9005 |

## String References

- **9004**: Nice weather we've having today.

## Events

### Event 65535

#### Metadata

| Field        | Value   |
|--------------|---------|
| Entrypoint   | 0x0000  |
| Data Size    | 1 bytes |
| Instructions | 1       |

```
      00 01 02 03 04 05 06 07  08 09 0A 0B 0C 0D 0E 0F
      -- -- -- -- -- -- -- --  -- -- -- -- -- -- -- --
0000: 00                                                .               
```

#### Opcodes

```
  0: 0x0000 [0x00] END_REQSTACK()
```

### Event 120

#### Metadata

| Field        | Value    |
|--------------|----------|
| Entrypoint   | 0x0001   |
| Data Size    | 47 bytes |
| Instructions | 12       |

```
      00 01 02 03 04 05 06 07  08 09 0A 0B 0C 0D 0E 0F
      -- -- -- -- -- -- -- --  -- -- -- -- -- -- -- --
0000:    1E 45 20 0D 01 1C 00  80 1D 01 80 23 4A 45 20   .E ........#JE 
0010: 0D 01 F8 FF FF 7F 1C 00  80 27 05 45 20 0D 01 02  .........'.E ...
0020: 2B 45 20 0D 01 02 80 23  2A 05 45 20 0D 01 21 00  +E ....#*.E ..!.
```

#### Opcodes

```
  0: 0x0001 [0x1E] EventEntity looks at Listener (ID: 17637445/0x010D2045) and starts talking
  1: 0x0006 [0x1C] WAIT(30* ticks)
  2: 0x0009 [0x1D] PRINT_EVENT_MESSAGE(message_id=9004*)
    → "Nice weather we've having today."
  3: 0x000C [0x23] WAIT_FOR_DIALOG_INTERACTION
  4: 0x000D [0x4A] Listener (ID: 17637445/0x010D2045) looks at EventEntity
  5: 0x0016 [0x1C] WAIT(30* ticks)
  6: 0x0019 [0x27] REQ_SET(priority=0x05, entity_id=Listener (ID: 17637445/0x010D2045), tag_num=0x02)
  7: 0x0020 [0x2B] Listener (ID: 17637445/0x010D2045) [9005*]:
    → "Indeed!"
  8: 0x0027 [0x23] WAIT_FOR_DIALOG_INTERACTION
  9: 0x0028 [0x2A] GET_REQ_LEVEL(level=5, entity_id=Listener (ID: 17637445/0x010D2045))
 10: 0x002E [0x21] END_EVENT
 11: 0x002F [0x00] END_REQSTACK()
```
