# 17637611 - EFFLoadMagic

## Common Data

| Field            | Value             |
|------------------|-------------------|
| Zone             | GM_Home (ID: 210) |
| Block Size       | 1668 bytes        |
| Total Events     | 3                 |
| References Count | 131               |

## List of Events

| Event ID                 | Entrypoint   |   Size |   Instructions |
|--------------------------|--------------|--------|----------------|
| [65535](#event-65535)    | 0x0000       |      1 |              1 |
| [209](#event-209)        | 0x0001       |      1 |              1 |
| [65535.1](#event-655351) | 0x0002       |   1112 |            145 |

## DAT References (imed_data)

|   Index | Hex Value   |   Dec Value |
|---------|-------------|-------------|
|       0 | 0x0000      |           0 |
|       1 | 0x001D      |          29 |
|       2 | 0x02BC      |         700 |
|       3 | 0x0001      |           1 |
|       4 | 0x2CEC      |       11500 |
|       5 | 0xFFFFB1E0  |  4294947296 |
|       6 | 0x03E8      |        1000 |
|       7 | 0x02BD      |         701 |
|       8 | 0xFFFEC780  |  4294887296 |
|       9 | 0x02BE      |         702 |
|      10 | 0xFFF70338  |  4294378296 |
|      11 | 0x186A0     |      100000 |
|      12 | 0xFFFFE890  |  4294961296 |
|      13 | 0x02BF      |         703 |
|      14 | 0x02C0      |         704 |
|      15 | 0x4F970     |      326000 |
|      16 | 0xFFFCF2C0  |  4294767296 |
|      17 | 0x02C1      |         705 |
|      18 | 0x683F8     |      427000 |
|      19 | 0x2B750     |      178000 |
|      20 | 0x02C2      |         706 |
|      21 | 0x54894     |      346260 |
|      22 | 0x668A0     |      420000 |
|      23 | 0xFFFFFC18  |  4294966296 |
|      24 | 0x02C3      |         707 |
|      25 | 0x3A980     |      240000 |
|      26 | 0xEA60      |       60000 |
|      27 | 0x206C      |        8300 |
|      28 | 0x02C4      |         708 |
|      29 | 0x02C5      |         709 |
|      30 | 0x7EF40     |      520000 |
|      31 | 0xFFF94940  |  4294527296 |
|      32 | 0xFFFFC180  |  4294951296 |
|      33 | 0x02C6      |         710 |
|      34 | 0x6B6C0     |      440000 |
|      35 | 0x493E0     |      300000 |
|      36 | 0x02C7      |         711 |
|      37 | 0x7A120     |      500000 |
|      38 | 0xFFF8AD00  |  4294487296 |
|      39 | 0x11D28     |       73000 |
|      40 | 0x02C8      |         712 |
|      41 | 0xFFFF5FD8  |  4294926296 |
|      42 | 0xFFFFAFEC  |  4294946796 |
|      43 | 0xFFFF8AD0  |  4294937296 |
|      44 | 0x02C9      |         713 |
|      45 | 0xFFFA81C0  |  4294607296 |
|      46 | 0xC350      |       50000 |
|      47 | 0x02CA      |         714 |
|      48 | 0xFFFBC724  |  4294690596 |
|      49 | 0x9C40      |       40000 |
|      50 | 0x02CB      |         715 |
|      51 | 0x02CC      |         716 |
|      52 | 0x13880     |       80000 |
|      53 | 0xFFFFD8F0  |  4294957296 |
|      54 | 0x02CD      |         717 |
|      55 | 0x75300     |      480000 |
|      56 | 0x222E0     |      140000 |
|      57 | 0x02CE      |         718 |
|      58 | 0xFFFF63C0  |  4294927296 |
|      59 | 0xFFFD40E0  |  4294787296 |
|      60 | 0x02CF      |         719 |
|      61 | 0x02D0      |         720 |
|      62 | 0xFFF935B8  |  4294522296 |
|      63 | 0x4E20      |       20000 |
|      64 | 0xFFF810C0  |  4294447296 |
|      65 | 0x02D1      |         721 |
|      66 | 0x130B0     |       78000 |
|      67 | 0x02D2      |         722 |
|      68 | 0x4650      |       18000 |
|      69 | 0x02D3      |         723 |
|      70 | 0xFFF99760  |  4294547296 |
|      71 | 0xFFFF8300  |  4294935296 |
|      72 | 0x36B0      |       14000 |
|      73 | 0x02D4      |         724 |
|      74 | 0x02D5      |         725 |
|      75 | 0x02D6      |         726 |
|      76 | 0x4AB50     |      306000 |
|      77 | 0xFFFFAA10  |  4294945296 |
|      78 | 0xFFFFFB50  |  4294966096 |
|      79 | 0x02D7      |         727 |
|      80 | 0x9470      |       38000 |
|      81 | 0x0546      |        1350 |
|      82 | 0x02D8      |         728 |
|      83 | 0xFFFE90D0  |  4294873296 |
|      84 | 0xFFFEB7E0  |  4294883296 |
|      85 | 0xFFFFF5A6  |  4294964646 |
|      86 | 0x02D9      |         729 |
|      87 | 0x449A8     |      281000 |
|      88 | 0xFFFFF830  |  4294965296 |
|      89 | 0x02DA      |         730 |
|      90 | 0xFFFFDCD8  |  4294958296 |
|      91 | 0x30D40     |      200000 |
|      92 | 0xFFFF4480  |  4294919296 |
|      93 | 0x02DB      |         731 |
|      94 | 0x2BF20     |      180000 |
|      95 | 0xFFFBE150  |  4294697296 |
|      96 | 0x2EE0      |       12000 |
|      97 | 0x02DC      |         732 |
|      98 | 0xFFFACFE0  |  4294627296 |
|      99 | 0x0BB8      |        3000 |
|     100 | 0x02DD      |         733 |
|     101 | 0xFFF8CC40  |  4294495296 |
|     102 | 0xFFFF7B30  |  4294933296 |
|     103 | 0x02DE      |         734 |
|     104 | 0x83D60     |      540000 |
|     105 | 0xFFF760F8  |  4294402296 |
|     106 | 0xFFF85EE0  |  4294467296 |
|     107 | 0x02DF      |         735 |
|     108 | 0xFFF89978  |  4294482296 |
|     109 | 0x02E0      |         736 |
|     110 | 0xD6D8      |       55000 |
|     111 | 0x02E1      |         737 |
|     112 | 0x0FA0      |        4000 |
|     113 | 0x02E2      |         738 |
|     114 | 0x278D0     |      162000 |
|     115 | 0x274E8     |      161000 |
|     116 | 0x02E3      |         739 |
|     117 | 0x1C520     |      116000 |
|     118 | 0xFFFEEAA8  |  4294896296 |
|     119 | 0x02E4      |         740 |
|     120 | 0xFFFC8948  |  4294740296 |
|     121 | 0xFFFE2B40  |  4294847296 |
|     122 | 0xFFFFFF06  |  4294967046 |
|     123 | 0x02E5      |         741 |
|     124 | 0xBF68      |       49000 |
|     125 | 0xFFFEE6C0  |  4294895296 |
|     126 | 0x2710      |       10000 |
|     127 | 0x02E6      |         742 |
|     128 | 0x02E7      |         743 |
|     129 | 0xFFFFE4A8  |  4294960296 |
|     130 | 0x0258      |         600 |

## Events

### Event 65535

#### Metadata

| Field        | Value   |
|--------------|---------|
| Entrypoint   | 0x0000  |
| Data Size    | 1 bytes |
| Instructions | 1       |

```
      00 01 02 03 04 05 06 07  08 09 0A 0B 0C 0D 0E 0F
      -- -- -- -- -- -- -- --  -- -- -- -- -- -- -- --
0000: 00                                                .               
```

#### Opcodes

```
  0: 0x0000 [0x00] END_REQSTACK()
```

### Event 209

#### Metadata

| Field        | Value   |
|--------------|---------|
| Entrypoint   | 0x0001  |
| Data Size    | 1 bytes |
| Instructions | 1       |

```
      00 01 02 03 04 05 06 07  08 09 0A 0B 0C 0D 0E 0F
      -- -- -- -- -- -- -- --  -- -- -- -- -- -- -- --
0000:    00                                              .              
```

#### Opcodes

```
  0: 0x0001 [0x00] END_REQSTACK()
```

### Event 65535.1

#### Metadata

| Field        | Value      |
|--------------|------------|
| Entrypoint   | 0x0002     |
| Data Size    | 1112 bytes |
| Instructions | 145        |

```
      00 01 02 03 04 05 06 07  08 09 0A 0B 0C 0D 0E 0F
      -- -- -- -- -- -- -- --  -- -- -- -- -- -- -- --
0000:       05 27 10 02 27 10  00 80 01 59 04 13 01 00    .'..'....Y....
0010: 01 80 07 01 00 02 80 02  01 00 00 00 01 27 00 03  .............'..
0020: 00 00 01 00 01 2A 00 01  0D 00 34 00 00 AE 00 03  .....*....4.....
0030: 80 00 80 02 00 00 02 80  80 4B 00 BA F0 FF FF 7F  .........K......
0040: 04 80 05 80 06 80 00 80  01 53 04 02 00 00 07 80  .........S......
0050: 80 63 00 BA F0 FF FF 7F  08 80 05 80 00 80 00 80  .c..............
0060: 01 53 04 02 00 00 09 80  80 7B 00 BA F0 FF FF 7F  .S.......{......
0070: 0A 80 0B 80 0C 80 00 80  01 53 04 02 00 00 0D 80  .........S......
0080: 80 93 00 BA F0 FF FF 7F  0A 80 0B 80 0C 80 00 80  ................
0090: 01 53 04 02 00 00 0E 80  80 AB 00 BA F0 FF FF 7F  .S..............
00A0: 0F 80 10 80 00 80 00 80  01 53 04 02 00 00 11 80  .........S......
00B0: 80 C3 00 BA F0 FF FF 7F  12 80 13 80 00 80 00 80  ................
00C0: 01 53 04 02 00 00 14 80  80 DB 00 BA F0 FF FF 7F  .S..............
00D0: 15 80 16 80 17 80 00 80  01 53 04 02 00 00 18 80  .........S......
00E0: 80 F3 00 BA F0 FF FF 7F  19 80 1A 80 1B 80 00 80  ................
00F0: 01 53 04 02 00 00 1C 80  80 0B 01 BA F0 FF FF 7F  .S..............
0100: 19 80 1A 80 1B 80 00 80  01 53 04 02 00 00 1D 80  .........S......
0110: 80 23 01 BA F0 FF FF 7F  1E 80 1F 80 20 80 00 80  .#.......... ...
0120: 01 53 04 02 00 00 21 80  80 3B 01 BA F0 FF FF 7F  .S....!..;......
0130: 22 80 23 80 1A 80 00 80  01 53 04 02 00 00 24 80  ".#......S....$.
0140: 80 53 01 BA F0 FF FF 7F  25 80 26 80 27 80 00 80  .S......%.&.'...
0150: 01 53 04 02 00 00 28 80  80 6B 01 BA F0 FF FF 7F  .S....(..k......
0160: 29 80 2A 80 2B 80 00 80  01 53 04 02 00 00 2C 80  ).*.+....S....,.
0170: 80 83 01 BA F0 FF FF 7F  23 80 2D 80 2E 80 00 80  ........#.-.....
0180: 01 53 04 02 00 00 2F 80  80 9B 01 BA F0 FF FF 7F  .S..../.........
0190: 16 80 30 80 31 80 00 80  01 53 04 02 00 00 32 80  ..0.1....S....2.
01A0: 80 B3 01 BA F0 FF FF 7F  16 80 30 80 31 80 00 80  ..........0.1...
01B0: 01 53 04 02 00 00 33 80  80 CB 01 BA F0 FF FF 7F  .S....3.........
01C0: 1A 80 34 80 35 80 00 80  01 53 04 02 00 00 36 80  ..4.5....S....6.
01D0: 80 E3 01 BA F0 FF FF 7F  37 80 38 80 00 80 00 80  ........7.8.....
01E0: 01 53 04 02 00 00 39 80  80 FB 01 BA F0 FF FF 7F  .S....9.........
01F0: 3A 80 05 80 3B 80 00 80  01 53 04 02 00 00 3C 80  :...;....S....<.
0200: 80 13 02 BA F0 FF FF 7F  3A 80 05 80 3B 80 00 80  ........:...;...
0210: 01 53 04 02 00 00 3D 80  80 2B 02 BA F0 FF FF 7F  .S....=..+......
0220: 3E 80 3F 80 40 80 00 80  01 53 04 02 00 00 41 80  >.?.@....S....A.
0230: 80 43 02 BA F0 FF FF 7F  42 80 3F 80 2B 80 00 80  .C......B.?.+...
0240: 01 53 04 02 00 00 43 80  80 5B 02 BA F0 FF FF 7F  .S....C..[......
0250: 44 80 00 80 00 80 00 80  01 53 04 02 00 00 45 80  D........S....E.
0260: 80 73 02 BA F0 FF FF 7F  46 80 47 80 48 80 00 80  .s......F.G.H...
0270: 01 53 04 02 00 00 49 80  80 8B 02 BA F0 FF FF 7F  .S....I.........
0280: 00 80 00 80 00 80 00 80  01 53 04 02 00 00 4A 80  .........S....J.
0290: 80 A3 02 BA F0 FF FF 7F  00 80 00 80 00 80 00 80  ................
02A0: 01 53 04 02 00 00 4B 80  80 BB 02 BA F0 FF FF 7F  .S....K.........
02B0: 4C 80 4D 80 4E 80 00 80  01 53 04 02 00 00 4F 80  L.M.N....S....O.
02C0: 80 D3 02 BA F0 FF FF 7F  3A 80 50 80 51 80 00 80  ........:.P.Q...
02D0: 01 53 04 02 00 00 52 80  80 EB 02 BA F0 FF FF 7F  .S....R.........
02E0: 53 80 54 80 55 80 00 80  01 53 04 02 00 00 56 80  S.T.U....S....V.
02F0: 80 03 03 BA F0 FF FF 7F  23 80 57 80 58 80 00 80  ........#.W.X...
0300: 01 53 04 02 00 00 59 80  80 1B 03 BA F0 FF FF 7F  .S....Y.........
0310: 5A 80 5B 80 5C 80 00 80  01 53 04 02 00 00 5D 80  Z.[.\....S....].
0320: 80 33 03 BA F0 FF FF 7F  5E 80 5F 80 60 80 00 80  .3......^._.`...
0330: 01 53 04 02 00 00 61 80  80 4B 03 BA F0 FF FF 7F  .S....a..K......
0340: 62 80 10 80 63 80 00 80  01 53 04 02 00 00 64 80  b...c....S....d.
0350: 80 63 03 BA F0 FF FF 7F  00 80 65 80 66 80 00 80  .c........e.f...
0360: 01 53 04 02 00 00 67 80  80 7B 03 BA F0 FF FF 7F  .S....g..{......
0370: 68 80 69 80 6A 80 00 80  01 53 04 02 00 00 6B 80  h.i.j....S....k.
0380: 80 93 03 BA F0 FF FF 7F  6A 80 6C 80 05 80 00 80  ........j.l.....
0390: 01 53 04 02 00 00 6D 80  80 AB 03 BA F0 FF FF 7F  .S....m.........
03A0: 00 80 00 80 6E 80 00 80  01 53 04 02 00 00 6F 80  ....n....S....o.
03B0: 80 C3 03 BA F0 FF FF 7F  00 80 00 80 70 80 00 80  ............p...
03C0: 01 53 04 02 00 00 71 80  80 DB 03 BA F0 FF FF 7F  .S....q.........
03D0: 72 80 58 80 73 80 00 80  01 53 04 02 00 00 74 80  r.X.s....S....t.
03E0: 80 F3 03 BA F0 FF FF 7F  75 80 76 80 06 80 00 80  ........u.v.....
03F0: 01 53 04 02 00 00 77 80  80 0B 04 BA F0 FF FF 7F  .S....w.........
0400: 78 80 79 80 7A 80 00 80  01 53 04 02 00 00 7B 80  x.y.z....S....{.
0410: 80 23 04 BA F0 FF FF 7F  7C 80 7D 80 7E 80 00 80  .#......|.}.~...
0420: 01 53 04 02 00 00 7F 80  80 3B 04 BA F0 FF FF 7F  .S.......;......
0430: 46 80 47 80 48 80 00 80  01 53 04 02 00 00 80 80  F.G.H....S......
0440: 80 53 04 BA F0 FF FF 7F  7E 80 00 80 81 80 00 80  .S......~.......
0450: 01 53 04 1C 82 80 01 05  00 00                    .S........      
```

#### Opcodes

```
  0: 0x0002 [0x05] Work_Zone[39] = 1
  1: 0x0005 [0x02] IF !(Work_Zone[39] == 0*) GOTO 0x0459
  2: 0x000D [0x13] ExtData[1]->WorkLocal[1] = rand() % 29*
  3: 0x0012 [0x07] ExtData[1]->WorkLocal[1] += 700*
  4: 0x0017 [0x02] IF !(ExtData[1]->WorkLocal[1] == ExtData[1]->WorkLocal[0]) GOTO 0x0027
  5: 0x001F [0x03] ExtData[1]->WorkLocal[0] = ExtData[1]->WorkLocal[1]
  6: 0x0024 [0x01] GOTO 0x002A
  7: 0x0027 [0x01] GOTO 0x000D

SUBROUTINE_002A:
  8: 0x002A [0x34] LOAD_UNLOAD_ZONE(zone_id=ExtData[1]->WorkLocal[0])
  9: 0x002D [0xAE] MULTI_PURPOSE_ENTITY_HANDLER(case_type=0x00 - Weather, param1=1*, param2=0*)
 10: 0x0033 [0x02] IF !(ExtData[1]->WorkLocal[0] == 700*) GOTO 0x004B
 11: 0x003B [0xBA] SET_ENTITY_POSITION(entity_id=LocalPlayer, pos_x=11.500*, pos_z=-20.000*, pos_y=1.000*, direction=0.0°*)
 12: 0x0048 [0x01] GOTO 0x0453
 13: 0x004B [0x02] IF !(ExtData[1]->WorkLocal[0] == 701*) GOTO 0x0063
 14: 0x0053 [0xBA] SET_ENTITY_POSITION(entity_id=LocalPlayer, pos_x=-80.000*, pos_z=-20.000*, pos_y=0.000*, direction=0.0°*)
 15: 0x0060 [0x01] GOTO 0x0453
 16: 0x0063 [0x02] IF !(ExtData[1]->WorkLocal[0] == 702*) GOTO 0x007B
 17: 0x006B [0xBA] SET_ENTITY_POSITION(entity_id=LocalPlayer, pos_x=-589.000*, pos_z=100.000*, pos_y=-6.000*, direction=0.0°*)
 18: 0x0078 [0x01] GOTO 0x0453
 19: 0x007B [0x02] IF !(ExtData[1]->WorkLocal[0] == 703*) GOTO 0x0093
 20: 0x0083 [0xBA] SET_ENTITY_POSITION(entity_id=LocalPlayer, pos_x=-589.000*, pos_z=100.000*, pos_y=-6.000*, direction=0.0°*)
 21: 0x0090 [0x01] GOTO 0x0453
 22: 0x0093 [0x02] IF !(ExtData[1]->WorkLocal[0] == 704*) GOTO 0x00AB
 23: 0x009B [0xBA] SET_ENTITY_POSITION(entity_id=LocalPlayer, pos_x=326.000*, pos_z=-200.000*, pos_y=0.000*, direction=0.0°*)
 24: 0x00A8 [0x01] GOTO 0x0453
 25: 0x00AB [0x02] IF !(ExtData[1]->WorkLocal[0] == 705*) GOTO 0x00C3
 26: 0x00B3 [0xBA] SET_ENTITY_POSITION(entity_id=LocalPlayer, pos_x=427.000*, pos_z=178.000*, pos_y=0.000*, direction=0.0°*)
 27: 0x00C0 [0x01] GOTO 0x0453
 28: 0x00C3 [0x02] IF !(ExtData[1]->WorkLocal[0] == 706*) GOTO 0x00DB
 29: 0x00CB [0xBA] SET_ENTITY_POSITION(entity_id=LocalPlayer, pos_x=346.260*, pos_z=420.000*, pos_y=-1.000*, direction=0.0°*)
 30: 0x00D8 [0x01] GOTO 0x0453
 31: 0x00DB [0x02] IF !(ExtData[1]->WorkLocal[0] == 707*) GOTO 0x00F3
 32: 0x00E3 [0xBA] SET_ENTITY_POSITION(entity_id=LocalPlayer, pos_x=240.000*, pos_z=60.000*, pos_y=8.300*, direction=0.0°*)
 33: 0x00F0 [0x01] GOTO 0x0453
 34: 0x00F3 [0x02] IF !(ExtData[1]->WorkLocal[0] == 708*) GOTO 0x010B
 35: 0x00FB [0xBA] SET_ENTITY_POSITION(entity_id=LocalPlayer, pos_x=240.000*, pos_z=60.000*, pos_y=8.300*, direction=0.0°*)
 36: 0x0108 [0x01] GOTO 0x0453
 37: 0x010B [0x02] IF !(ExtData[1]->WorkLocal[0] == 709*) GOTO 0x0123
 38: 0x0113 [0xBA] SET_ENTITY_POSITION(entity_id=LocalPlayer, pos_x=520.000*, pos_z=-440.000*, pos_y=-16.000*, direction=0.0°*)
 39: 0x0120 [0x01] GOTO 0x0453
 40: 0x0123 [0x02] IF !(ExtData[1]->WorkLocal[0] == 710*) GOTO 0x013B
 41: 0x012B [0xBA] SET_ENTITY_POSITION(entity_id=LocalPlayer, pos_x=440.000*, pos_z=300.000*, pos_y=60.000*, direction=0.0°*)
 42: 0x0138 [0x01] GOTO 0x0453
 43: 0x013B [0x02] IF !(ExtData[1]->WorkLocal[0] == 711*) GOTO 0x0153
 44: 0x0143 [0xBA] SET_ENTITY_POSITION(entity_id=LocalPlayer, pos_x=500.000*, pos_z=-480.000*, pos_y=73.000*, direction=0.0°*)
 45: 0x0150 [0x01] GOTO 0x0453
 46: 0x0153 [0x02] IF !(ExtData[1]->WorkLocal[0] == 712*) GOTO 0x016B
 47: 0x015B [0xBA] SET_ENTITY_POSITION(entity_id=LocalPlayer, pos_x=-41.000*, pos_z=-20.500*, pos_y=-30.000*, direction=0.0°*)
 48: 0x0168 [0x01] GOTO 0x0453
 49: 0x016B [0x02] IF !(ExtData[1]->WorkLocal[0] == 713*) GOTO 0x0183
 50: 0x0173 [0xBA] SET_ENTITY_POSITION(entity_id=LocalPlayer, pos_x=300.000*, pos_z=-360.000*, pos_y=50.000*, direction=0.0°*)
 51: 0x0180 [0x01] GOTO 0x0453
 52: 0x0183 [0x02] IF !(ExtData[1]->WorkLocal[0] == 714*) GOTO 0x019B
 53: 0x018B [0xBA] SET_ENTITY_POSITION(entity_id=LocalPlayer, pos_x=420.000*, pos_z=-276.700*, pos_y=40.000*, direction=0.0°*)
 54: 0x0198 [0x01] GOTO 0x0453
 55: 0x019B [0x02] IF !(ExtData[1]->WorkLocal[0] == 715*) GOTO 0x01B3
 56: 0x01A3 [0xBA] SET_ENTITY_POSITION(entity_id=LocalPlayer, pos_x=420.000*, pos_z=-276.700*, pos_y=40.000*, direction=0.0°*)
 57: 0x01B0 [0x01] GOTO 0x0453
 58: 0x01B3 [0x02] IF !(ExtData[1]->WorkLocal[0] == 716*) GOTO 0x01CB
 59: 0x01BB [0xBA] SET_ENTITY_POSITION(entity_id=LocalPlayer, pos_x=60.000*, pos_z=80.000*, pos_y=-10.000*, direction=0.0°*)
 60: 0x01C8 [0x01] GOTO 0x0453
 61: 0x01CB [0x02] IF !(ExtData[1]->WorkLocal[0] == 717*) GOTO 0x01E3
 62: 0x01D3 [0xBA] SET_ENTITY_POSITION(entity_id=LocalPlayer, pos_x=480.000*, pos_z=140.000*, pos_y=0.000*, direction=0.0°*)
 63: 0x01E0 [0x01] GOTO 0x0453
 64: 0x01E3 [0x02] IF !(ExtData[1]->WorkLocal[0] == 718*) GOTO 0x01FB
 65: 0x01EB [0xBA] SET_ENTITY_POSITION(entity_id=LocalPlayer, pos_x=-40.000*, pos_z=-20.000*, pos_y=-180.000*, direction=0.0°*)
 66: 0x01F8 [0x01] GOTO 0x0453
 67: 0x01FB [0x02] IF !(ExtData[1]->WorkLocal[0] == 719*) GOTO 0x0213
 68: 0x0203 [0xBA] SET_ENTITY_POSITION(entity_id=LocalPlayer, pos_x=-40.000*, pos_z=-20.000*, pos_y=-180.000*, direction=0.0°*)
 69: 0x0210 [0x01] GOTO 0x0453
 70: 0x0213 [0x02] IF !(ExtData[1]->WorkLocal[0] == 720*) GOTO 0x022B
 71: 0x021B [0xBA] SET_ENTITY_POSITION(entity_id=LocalPlayer, pos_x=-445.000*, pos_z=20.000*, pos_y=-520.000*, direction=0.0°*)
 72: 0x0228 [0x01] GOTO 0x0453
 73: 0x022B [0x02] IF !(ExtData[1]->WorkLocal[0] == 721*) GOTO 0x0243
 74: 0x0233 [0xBA] SET_ENTITY_POSITION(entity_id=LocalPlayer, pos_x=78.000*, pos_z=20.000*, pos_y=-30.000*, direction=0.0°*)
 75: 0x0240 [0x01] GOTO 0x0453
 76: 0x0243 [0x02] IF !(ExtData[1]->WorkLocal[0] == 722*) GOTO 0x025B
 77: 0x024B [0xBA] SET_ENTITY_POSITION(entity_id=LocalPlayer, pos_x=18.000*, pos_z=0.000*, pos_y=0.000*, direction=0.0°*)
 78: 0x0258 [0x01] GOTO 0x0453
 79: 0x025B [0x02] IF !(ExtData[1]->WorkLocal[0] == 723*) GOTO 0x0273
 80: 0x0263 [0xBA] SET_ENTITY_POSITION(entity_id=LocalPlayer, pos_x=-420.000*, pos_z=-32.000*, pos_y=14.000*, direction=0.0°*)
 81: 0x0270 [0x01] GOTO 0x0453
 82: 0x0273 [0x02] IF !(ExtData[1]->WorkLocal[0] == 724*) GOTO 0x028B
 83: 0x027B [0xBA] SET_ENTITY_POSITION(entity_id=LocalPlayer, pos_x=0.000*, pos_z=0.000*, pos_y=0.000*, direction=0.0°*)
 84: 0x0288 [0x01] GOTO 0x0453
 85: 0x028B [0x02] IF !(ExtData[1]->WorkLocal[0] == 725*) GOTO 0x02A3
 86: 0x0293 [0xBA] SET_ENTITY_POSITION(entity_id=LocalPlayer, pos_x=0.000*, pos_z=0.000*, pos_y=0.000*, direction=0.0°*)
 87: 0x02A0 [0x01] GOTO 0x0453
 88: 0x02A3 [0x02] IF !(ExtData[1]->WorkLocal[0] == 726*) GOTO 0x02BB
 89: 0x02AB [0xBA] SET_ENTITY_POSITION(entity_id=LocalPlayer, pos_x=306.000*, pos_z=-22.000*, pos_y=-1.200*, direction=0.0°*)
 90: 0x02B8 [0x01] GOTO 0x0453
 91: 0x02BB [0x02] IF !(ExtData[1]->WorkLocal[0] == 727*) GOTO 0x02D3
 92: 0x02C3 [0xBA] SET_ENTITY_POSITION(entity_id=LocalPlayer, pos_x=-40.000*, pos_z=38.000*, pos_y=1.350*, direction=0.0°*)
 93: 0x02D0 [0x01] GOTO 0x0453
 94: 0x02D3 [0x02] IF !(ExtData[1]->WorkLocal[0] == 728*) GOTO 0x02EB
 95: 0x02DB [0xBA] SET_ENTITY_POSITION(entity_id=LocalPlayer, pos_x=-94.000*, pos_z=-84.000*, pos_y=-2.650*, direction=0.0°*)
 96: 0x02E8 [0x01] GOTO 0x0453
 97: 0x02EB [0x02] IF !(ExtData[1]->WorkLocal[0] == 729*) GOTO 0x0303
 98: 0x02F3 [0xBA] SET_ENTITY_POSITION(entity_id=LocalPlayer, pos_x=300.000*, pos_z=281.000*, pos_y=-2.000*, direction=0.0°*)
 99: 0x0300 [0x01] GOTO 0x0453
100: 0x0303 [0x02] IF !(ExtData[1]->WorkLocal[0] == 730*) GOTO 0x031B
101: 0x030B [0xBA] SET_ENTITY_POSITION(entity_id=LocalPlayer, pos_x=-9.000*, pos_z=200.000*, pos_y=-48.000*, direction=0.0°*)
102: 0x0318 [0x01] GOTO 0x0453
103: 0x031B [0x02] IF !(ExtData[1]->WorkLocal[0] == 731*) GOTO 0x0333
104: 0x0323 [0xBA] SET_ENTITY_POSITION(entity_id=LocalPlayer, pos_x=180.000*, pos_z=-270.000*, pos_y=12.000*, direction=0.0°*)
105: 0x0330 [0x01] GOTO 0x0453
106: 0x0333 [0x02] IF !(ExtData[1]->WorkLocal[0] == 732*) GOTO 0x034B
107: 0x033B [0xBA] SET_ENTITY_POSITION(entity_id=LocalPlayer, pos_x=-340.000*, pos_z=-200.000*, pos_y=3.000*, direction=0.0°*)
108: 0x0348 [0x01] GOTO 0x0453
109: 0x034B [0x02] IF !(ExtData[1]->WorkLocal[0] == 733*) GOTO 0x0363
110: 0x0353 [0xBA] SET_ENTITY_POSITION(entity_id=LocalPlayer, pos_x=0.000*, pos_z=-472.000*, pos_y=-34.000*, direction=0.0°*)
111: 0x0360 [0x01] GOTO 0x0453
112: 0x0363 [0x02] IF !(ExtData[1]->WorkLocal[0] == 734*) GOTO 0x037B
113: 0x036B [0xBA] SET_ENTITY_POSITION(entity_id=LocalPlayer, pos_x=540.000*, pos_z=-565.000*, pos_y=-500.000*, direction=0.0°*)
114: 0x0378 [0x01] GOTO 0x0453
115: 0x037B [0x02] IF !(ExtData[1]->WorkLocal[0] == 735*) GOTO 0x0393
116: 0x0383 [0xBA] SET_ENTITY_POSITION(entity_id=LocalPlayer, pos_x=-500.000*, pos_z=-485.000*, pos_y=-20.000*, direction=0.0°*)
117: 0x0390 [0x01] GOTO 0x0453
118: 0x0393 [0x02] IF !(ExtData[1]->WorkLocal[0] == 736*) GOTO 0x03AB
119: 0x039B [0xBA] SET_ENTITY_POSITION(entity_id=LocalPlayer, pos_x=0.000*, pos_z=0.000*, pos_y=55.000*, direction=0.0°*)
120: 0x03A8 [0x01] GOTO 0x0453
121: 0x03AB [0x02] IF !(ExtData[1]->WorkLocal[0] == 737*) GOTO 0x03C3
122: 0x03B3 [0xBA] SET_ENTITY_POSITION(entity_id=LocalPlayer, pos_x=0.000*, pos_z=0.000*, pos_y=4.000*, direction=0.0°*)
123: 0x03C0 [0x01] GOTO 0x0453
124: 0x03C3 [0x02] IF !(ExtData[1]->WorkLocal[0] == 738*) GOTO 0x03DB
125: 0x03CB [0xBA] SET_ENTITY_POSITION(entity_id=LocalPlayer, pos_x=162.000*, pos_z=-2.000*, pos_y=161.000*, direction=0.0°*)
126: 0x03D8 [0x01] GOTO 0x0453
127: 0x03DB [0x02] IF !(ExtData[1]->WorkLocal[0] == 739*) GOTO 0x03F3
128: 0x03E3 [0xBA] SET_ENTITY_POSITION(entity_id=LocalPlayer, pos_x=116.000*, pos_z=-71.000*, pos_y=1.000*, direction=0.0°*)
129: 0x03F0 [0x01] GOTO 0x0453
130: 0x03F3 [0x02] IF !(ExtData[1]->WorkLocal[0] == 740*) GOTO 0x040B
131: 0x03FB [0xBA] SET_ENTITY_POSITION(entity_id=LocalPlayer, pos_x=-227.000*, pos_z=-120.000*, pos_y=-0.250*, direction=0.0°*)
132: 0x0408 [0x01] GOTO 0x0453
133: 0x040B [0x02] IF !(ExtData[1]->WorkLocal[0] == 741*) GOTO 0x0423
134: 0x0413 [0xBA] SET_ENTITY_POSITION(entity_id=LocalPlayer, pos_x=49.000*, pos_z=-72.000*, pos_y=10.000*, direction=0.0°*)
135: 0x0420 [0x01] GOTO 0x0453
136: 0x0423 [0x02] IF !(ExtData[1]->WorkLocal[0] == 742*) GOTO 0x043B
137: 0x042B [0xBA] SET_ENTITY_POSITION(entity_id=LocalPlayer, pos_x=-420.000*, pos_z=-32.000*, pos_y=14.000*, direction=0.0°*)
138: 0x0438 [0x01] GOTO 0x0453
139: 0x043B [0x02] IF !(ExtData[1]->WorkLocal[0] == 743*) GOTO 0x0453
140: 0x0443 [0xBA] SET_ENTITY_POSITION(entity_id=LocalPlayer, pos_x=10.000*, pos_z=0.000*, pos_y=-7.000*, direction=0.0°*)
141: 0x0450 [0x01] GOTO 0x0453

SUBROUTINE_0453:
142: 0x0453 [0x1C] WAIT(600* ticks)
143: 0x0456 [0x01] GOTO 0x0005
144: 0x0459 [0x00] END_REQSTACK()
```
