# 17637450 - Trader

## Common Data

| Field            | Value             |
|------------------|-------------------|
| Zone             | GM_Home (ID: 210) |
| Block Size       | 244 bytes         |
| Total Events     | 3                 |
| References Count | 13                |

## List of Events

| Event ID              | Entrypoint   |   Size |   Instructions |
|-----------------------|--------------|--------|----------------|
| [65535](#event-65535) | 0x0000       |      1 |              1 |
| [127](#event-127)     | 0x0001       |     19 |              7 |
| [126](#event-126)     | 0x0014       |    142 |             34 |

## DAT References (imed_data)

|   Index | Hex Value   |   Dec Value |
|---------|-------------|-------------|
|       0 | 0x001E      |          30 |
|       1 | 0x1000      |        4096 |
|       2 | 0x233E      |        9022 |
|       3 | 0x0000      |           0 |
|       4 | 0x1001      |        4097 |
|       5 | 0x1002      |        4098 |
|       6 | 0x1003      |        4099 |
|       7 | 0x233F      |        9023 |
|       8 | 0x0001      |           1 |
|       9 | 0x0002      |           2 |
|      10 | 0x0003      |           3 |
|      11 | 0x2340      |        9024 |
|      12 | 0x2341      |        9025 |

## String References

- **9022**: Bring me $0 and I can exchange it for the crystal of your choice.
- **9023**: Trade for which item? [$0./$1./$2./Not interested.]
- **9024**: Oh yeah? Well, I'm not interested in you, either!
- **9025**: Is this what you want? [Yeppers./Nopers.]

## Events

### Event 65535

#### Metadata

| Field        | Value   |
|--------------|---------|
| Entrypoint   | 0x0000  |
| Data Size    | 1 bytes |
| Instructions | 1       |

```
      00 01 02 03 04 05 06 07  08 09 0A 0B 0C 0D 0E 0F
      -- -- -- -- -- -- -- --  -- -- -- -- -- -- -- --
0000: 00                                                .               
```

#### Opcodes

```
  0: 0x0000 [0x00] END_REQSTACK()
```

### Event 127

#### Metadata

| Field        | Value    |
|--------------|----------|
| Entrypoint   | 0x0001   |
| Data Size    | 19 bytes |
| Instructions | 7        |

```
      00 01 02 03 04 05 06 07  08 09 0A 0B 0C 0D 0E 0F
      -- -- -- -- -- -- -- --  -- -- -- -- -- -- -- --
0000:    1E F0 FF FF 7F 1C 00  80 03 02 10 01 80 1D 02   ...............
0010: 80 23 21 00                                       .#!.            
```

#### Opcodes

```
  0: 0x0001 [0x1E] EventEntity looks at LocalPlayer and starts talking
  1: 0x0006 [0x1C] WAIT(30* ticks)
  2: 0x0009 [0x03] Work_Zone[2] = 4096*
  3: 0x000E [0x1D] PRINT_EVENT_MESSAGE(message_id=9022*)
    → "Bring me $0 and I can exchange it for the crystal of your choice."
  4: 0x0011 [0x23] WAIT_FOR_DIALOG_INTERACTION
  5: 0x0012 [0x21] END_EVENT
  6: 0x0013 [0x00] END_REQSTACK()
```

### Event 126

#### Metadata

| Field        | Value     |
|--------------|-----------|
| Entrypoint   | 0x0014    |
| Data Size    | 142 bytes |
| Instructions | 32        |

```
      00 01 02 03 04 05 06 07  08 09 0A 0B 0C 0D 0E 0F
      -- -- -- -- -- -- -- --  -- -- -- -- -- -- -- --
0010:             42 03 01 10  03 80 1E F0 FF FF 7F 1C      B...........
0020: 00 80 03 02 10 04 80 03  03 10 05 80 03 04 10 06  ................
0030: 80 24 07 80 03 80 03 80  25 02 00 10 03 80 00 49  .$......%......I
0040: 00 03 01 10 08 80 01 7A  00 02 00 10 08 80 00 59  .......z.......Y
0050: 00 03 01 10 09 80 01 7A  00 02 00 10 09 80 00 69  .......z.......i
0060: 00 03 01 10 0A 80 01 7A  00 02 00 10 0A 80 00 7A  .......z.......z
0070: 00 1D 0B 80 23 21 00 01  7A 00 24 0C 80 08 80 03  ....#!..z.$.....
0080: 80 25 02 00 10 03 80 00  8D 00 01 A0 00 02 00 10  .%..............
0090: 08 80 00 A0 00 03 01 10  03 80 01 31 00 01 A0 00  ...........1....
00A0: 21 00                                             !.              
```

#### Opcodes

```
  0: 0x0014 [0x42] SET_CLI_EVENT_CANCEL_DATA()
  1: 0x0015 [0x03] Work_Zone[1] = 0*
  2: 0x001A [0x1E] EventEntity looks at LocalPlayer and starts talking
  3: 0x001F [0x1C] WAIT(30* ticks)
  4: 0x0022 [0x03] Work_Zone[2] = 4097*
  5: 0x0027 [0x03] Work_Zone[3] = 4098*
  6: 0x002C [0x03] Work_Zone[4] = 4099*
  7: 0x0031 [0x24] CREATE_DIALOG(message_id=9023*, default_option=0*, option_flags=0*)
    → "Trade for which item? [$0./$1./$2./Not interested.]"
  8: 0x0038 [0x25] WAIT_DIALOG_SELECT()
  9: 0x0039 [0x02] IF !(Work_Zone[0] == 0*) GOTO 0x0049
 10: 0x0041 [0x03] Work_Zone[1] = 1*
 11: 0x0046 [0x01] GOTO 0x007A
 12: 0x0049 [0x02] IF !(Work_Zone[0] == 1*) GOTO 0x0059
 13: 0x0051 [0x03] Work_Zone[1] = 2*
 14: 0x0056 [0x01] GOTO 0x007A
 15: 0x0059 [0x02] IF !(Work_Zone[0] == 2*) GOTO 0x0069
 16: 0x0061 [0x03] Work_Zone[1] = 3*
 17: 0x0066 [0x01] GOTO 0x007A
 18: 0x0069 [0x02] IF !(Work_Zone[0] == 3*) GOTO 0x007A
 19: 0x0071 [0x1D] PRINT_EVENT_MESSAGE(message_id=9024*)
    → "Oh yeah? Well, I'm not interested in you, either!"
 20: 0x0074 [0x23] WAIT_FOR_DIALOG_INTERACTION
 21: 0x0075 [0x21] END_EVENT
 22: 0x0076 [0x00] END_REQSTACK()

SUBROUTINE_007A:
 23: 0x007A [0x24] CREATE_DIALOG(message_id=9025*, default_option=1*, option_flags=0*)
    → "Is this what you want? [Yeppers./Nopers.]"
 24: 0x0081 [0x25] WAIT_DIALOG_SELECT()
 25: 0x0082 [0x02] IF !(Work_Zone[0] == 0*) GOTO 0x008D
 26: 0x008A [0x01] GOTO 0x00A0
 27: 0x008D [0x02] IF !(Work_Zone[0] == 1*) GOTO 0x00A0
 28: 0x0095 [0x03] Work_Zone[1] = 0*
 29: 0x009A [0x01] GOTO 0x0031

SUBROUTINE_00A0:
 30: 0x00A0 [0x21] END_EVENT
 31: 0x00A1 [0x00] END_REQSTACK()
```

#### Data or dead code:

```
# Dead code (unreachable instructions):
     0x0077 [0x01] GOTO 0x007A
# Dead code (unreachable instructions):
     0x009D [0x01] GOTO 0x00A0
```
