# 17637625 - Item-Test

## Common Data

| Field            | Value             |
|------------------|-------------------|
| Zone             | GM_Home (ID: 210) |
| Block Size       | 100 bytes         |
| Total Events     | 2                 |
| References Count | 6                 |

## List of Events

| Event ID              | Entrypoint   |   Size |   Instructions |
|-----------------------|--------------|--------|----------------|
| [65535](#event-65535) | 0x0000       |      1 |              1 |
| [180](#event-180)     | 0x0001       |     50 |             13 |

## DAT References (imed_data)

|   Index | Hex Value   |   Dec Value |
|---------|-------------|-------------|
|       0 | 0x23BF      |        9151 |
|       1 | 0x0000      |           0 |
|       2 | 0x40000000  |  1073741824 |
|       3 | 0x0001      |           1 |
|       4 | 0x0010      |          16 |
|       5 | 0x001F      |          31 |

## String References

- **9151**: $3p$3^[$3$17I$P11p [b_i/normal/4/8"4/one/_enc/_sig/_sig2/max/trophy/itemwork/fishitemwork/chocoitemwork/chocoitemwork2/bettingticketitemwork/lotteryitemwork/itemwork_6/itemwork_phial/equipitemwork/_legion_itemwork/mditemwork/_mannequin/trade$3[$3h$P15O$X/trade$3^$3C$3v$P15O$X]

## Events

### Event 65535

#### Metadata

| Field        | Value   |
|--------------|---------|
| Entrypoint   | 0x0000  |
| Data Size    | 1 bytes |
| Instructions | 1       |

```
      00 01 02 03 04 05 06 07  08 09 0A 0B 0C 0D 0E 0F
      -- -- -- -- -- -- -- --  -- -- -- -- -- -- -- --
0000: 00                                                .               
```

#### Opcodes

```
  0: 0x0000 [0x00] END_REQSTACK()
```

### Event 180

#### Metadata

| Field        | Value    |
|--------------|----------|
| Entrypoint   | 0x0001   |
| Data Size    | 50 bytes |
| Instructions | 12       |

```
      00 01 02 03 04 05 06 07  08 09 0A 0B 0C 0D 0E 0F
      -- -- -- -- -- -- -- --  -- -- -- -- -- -- -- --
0000:    24 00 80 01 80 01 80  25 02 00 10 01 80 00 1B   $......%.......
0010: 00 03 01 10 02 80 21 00  01 1B 00 03 01 10 00 10  ......!.........
0020: 71 10 03 80 71 11 02 10  40 04 80 05 80 01 10 02  q...q...@.......
0030: 10 21 00                                          .!.             
```

#### Opcodes

```
  0: 0x0001 [0x24] CREATE_DIALOG(message_id=9151*, default_option=0*, option_flags=0*)
    → "$3p$3^[$3$17I$P11p [b_i/normal/4/8"4/one/_enc/_sig/_sig2/max/trophy/itemwork/fishitemwork/chocoitemwork/chocoitemwork2/bettingticketitemwork/lotteryitemwork/itemwork_6/itemwork_phial/equipitemwork/_legion_itemwork/mditemwork/_mannequin/trade$3[$3h$P15O$X/trade$3^$3C$3v$P15O$X]"
  1: 0x0008 [0x25] WAIT_DIALOG_SELECT()
  2: 0x0009 [0x02] IF !(Work_Zone[0] == 0*) GOTO 0x001B
  3: 0x0011 [0x03] Work_Zone[1] = 1073741824*
  4: 0x0016 [0x21] END_EVENT
  5: 0x0017 [0x00] END_REQSTACK()

SUBROUTINE_001B:
  6: 0x001B [0x03] Work_Zone[1] = Work_Zone[0]
  7: 0x0020 [0x71] USER_INPUT_HANDLER: Open numerical input dialog (work=1*)
  8: 0x0024 [0x71] USER_INPUT_HANDLER: Process numerical input A (work=Work_Zone[2])
  9: 0x0028 [0x40] SET_BIT_WORK_RANGE(start_bit=16*, end_bit=31*, target=Work_Zone[1], source=Work_Zone[2])
 10: 0x0031 [0x21] END_EVENT
 11: 0x0032 [0x00] END_REQSTACK()
```

#### Data or dead code:

```
# Dead code (unreachable instructions):
     0x0018 [0x01] GOTO 0x001B
```
