# 17637602 - rod_test

## Common Data

| Field            | Value             |
|------------------|-------------------|
| Zone             | GM_Home (ID: 210) |
| Block Size       | 360 bytes         |
| Total Events     | 2                 |
| References Count | 16                |

## List of Events

| Event ID              | Entrypoint   |   Size |   Instructions |
|-----------------------|--------------|--------|----------------|
| [65535](#event-65535) | 0x0000       |      1 |              1 |
| [182](#event-182)     | 0x0001       |    268 |             51 |

## DAT References (imed_data)

|   Index | Hex Value   |   Dec Value |
|---------|-------------|-------------|
|       0 | 0x23CC      |        9164 |
|       1 | 0x0000      |           0 |
|       2 | 0x0018      |          24 |
|       3 | 0x001F      |          31 |
|       4 | 0x0001      |           1 |
|       5 | 0x23CD      |        9165 |
|       6 | 0x0003      |           3 |
|       7 | 0x0010      |          16 |
|       8 | 0x0017      |          23 |
|       9 | 0x000F      |          15 |
|      10 | 0x23CE      |        9166 |
|      11 | 0x0005      |           5 |
|      12 | 0x0002      |           2 |
|      13 | 0x0004      |           4 |
|      14 | 0x000B      |          11 |
|      15 | 0x18F8      |        6392 |

## String References

- **6392**: Obtained $0 gil.
- **9164**: Rod test. [Get $0./Get $1./Set $0 serial./Set $1 serial./Patch creation test.]
- **9165**: $15^$3$1[$3 [$3h$P14T$6(0E;$]L$3$1[$3 [$3h)/;$]L$3$1[$3 [$3hF$2 /
- **9166**: $15^$3V$3$3A$3 [$P14T$6(0E$3V$3X$3e$3 $P14-$s)/$P14-$s3ji%\\$P12hL$3V$3$3A$3 [F$3 /

## Events

### Event 65535

#### Metadata

| Field        | Value   |
|--------------|---------|
| Entrypoint   | 0x0000  |
| Data Size    | 1 bytes |
| Instructions | 1       |

```
      00 01 02 03 04 05 06 07  08 09 0A 0B 0C 0D 0E 0F
      -- -- -- -- -- -- -- --  -- -- -- -- -- -- -- --
0000: 00                                                .               
```

#### Opcodes

```
  0: 0x0000 [0x00] END_REQSTACK()
```

### Event 182

#### Metadata

| Field        | Value     |
|--------------|-----------|
| Entrypoint   | 0x0001    |
| Data Size    | 268 bytes |
| Instructions | 51        |

```
      00 01 02 03 04 05 06 07  08 09 0A 0B 0C 0D 0E 0F
      -- -- -- -- -- -- -- --  -- -- -- -- -- -- -- --
0000:    03 01 00 05 10 1E F0  FF FF 7F 24 00 80 01 80   ..........$....
0010: 01 80 25 02 00 10 01 80  00 5E 00 40 02 80 03 80  ..%......^.@....
0020: 01 10 04 80 48 05 80 23  71 12 04 80 06 80 71 13  ....H..#q.....q.
0030: 00 00 40 07 80 08 80 01  10 00 00 41 01 80 09 80  ..@........A....
0040: 01 00 05 10 48 0A 80 23  71 12 04 80 0B 80 71 13  ....H..#q.....q.
0050: 01 00 40 01 80 09 80 01  10 01 00 01 0B 01 02 00  ..@.............
0060: 10 04 80 00 A9 00 40 02  80 03 80 01 10 0C 80 48  ......@........H
0070: 05 80 23 71 12 04 80 06  80 71 13 00 00 40 07 80  ..#q.....q...@..
0080: 08 80 01 10 00 00 41 07  80 03 80 01 00 05 10 48  ......A........H
0090: 0A 80 23 71 12 04 80 0B  80 71 13 01 00 40 01 80  ..#q.....q...@..
00A0: 09 80 01 10 01 00 01 0B  01 02 00 10 0C 80 00 D0  ................
00B0: 00 71 12 04 80 0B 80 71  13 01 00 40 02 80 03 80  .q.....q...@....
00C0: 01 10 06 80 40 01 80 09  80 01 10 01 00 01 0B 01  ....@...........
00D0: 02 00 10 06 80 00 F7 00  71 12 04 80 0B 80 71 13  ........q.....q.
00E0: 01 00 40 02 80 03 80 01  10 0D 80 40 01 80 09 80  ..@........@....
00F0: 01 10 01 00 01 0B 01 02  00 10 0D 80 00 0B 01 03  ................
0100: 02 10 0E 80 48 0F 80 23  01 0B 01 21 00           ....H..#...!.   
```

#### Opcodes

```
  0: 0x0001 [0x03] ExtData[1]->WorkLocal[1] = Work_Zone[5]
  1: 0x0006 [0x1E] EventEntity looks at LocalPlayer and starts talking
  2: 0x000B [0x24] CREATE_DIALOG(message_id=9164*, default_option=0*, option_flags=0*)
    → "Rod test. [Get $0./Get $1./Set $0 serial./Set $1 serial./Patch creation test.]"
  3: 0x0012 [0x25] WAIT_DIALOG_SELECT()
  4: 0x0013 [0x02] IF !(Work_Zone[0] == 0*) GOTO 0x005E
  5: 0x001B [0x40] SET_BIT_WORK_RANGE(start_bit=24*, end_bit=31*, target=Work_Zone[1], source=1*)
  6: 0x0024 [0x48] [System] [9165*]:
    → "$15^$3$1[$3 [$3h$P14T$6(0E;$]L$3$1[$3 [$3h)/;$]L$3$1[$3 [$3hF$2 /"
  7: 0x0027 [0x23] WAIT_FOR_DIALOG_INTERACTION
  8: 0x0028 [0x71] USER_INPUT_HANDLER: Open numerical input with params (work=[1*, 3*])
  9: 0x002E [0x71] USER_INPUT_HANDLER: Process numerical input B (work=ExtData[1]->WorkLocal[0])
 10: 0x0032 [0x40] SET_BIT_WORK_RANGE(start_bit=16*, end_bit=23*, target=Work_Zone[1], source=ExtData[1]->WorkLocal[0])
 11: 0x003B [0x41] Work_Zone[5] = ExtData[1]->WorkLocal[1] (bits 0*-15*)
 12: 0x0044 [0x48] [System] [9166*]:
    → "$15^$3V$3$3A$3 [$P14T$6(0E$3V$3X$3e$3 $P14-$s)/$P14-$s3ji%\$P12hL$3V$3$3A$3 [F$3 /"
 13: 0x0047 [0x23] WAIT_FOR_DIALOG_INTERACTION
 14: 0x0048 [0x71] USER_INPUT_HANDLER: Open numerical input with params (work=[1*, 5*])
 15: 0x004E [0x71] USER_INPUT_HANDLER: Process numerical input B (work=ExtData[1]->WorkLocal[1])
 16: 0x0052 [0x40] SET_BIT_WORK_RANGE(start_bit=0*, end_bit=15*, target=Work_Zone[1], source=ExtData[1]->WorkLocal[1])
 17: 0x005B [0x01] GOTO 0x010B
 18: 0x005E [0x02] IF !(Work_Zone[0] == 1*) GOTO 0x00A9
 19: 0x0066 [0x40] SET_BIT_WORK_RANGE(start_bit=24*, end_bit=31*, target=Work_Zone[1], source=2*)
 20: 0x006F [0x48] [System] [9165*]:
    → "$15^$3$1[$3 [$3h$P14T$6(0E;$]L$3$1[$3 [$3h)/;$]L$3$1[$3 [$3hF$2 /"
 21: 0x0072 [0x23] WAIT_FOR_DIALOG_INTERACTION
 22: 0x0073 [0x71] USER_INPUT_HANDLER: Open numerical input with params (work=[1*, 3*])
 23: 0x0079 [0x71] USER_INPUT_HANDLER: Process numerical input B (work=ExtData[1]->WorkLocal[0])
 24: 0x007D [0x40] SET_BIT_WORK_RANGE(start_bit=16*, end_bit=23*, target=Work_Zone[1], source=ExtData[1]->WorkLocal[0])
 25: 0x0086 [0x41] Work_Zone[5] = ExtData[1]->WorkLocal[1] (bits 16*-31*)
 26: 0x008F [0x48] [System] [9166*]:
    → "$15^$3V$3$3A$3 [$P14T$6(0E$3V$3X$3e$3 $P14-$s)/$P14-$s3ji%\$P12hL$3V$3$3A$3 [F$3 /"
 27: 0x0092 [0x23] WAIT_FOR_DIALOG_INTERACTION
 28: 0x0093 [0x71] USER_INPUT_HANDLER: Open numerical input with params (work=[1*, 5*])
 29: 0x0099 [0x71] USER_INPUT_HANDLER: Process numerical input B (work=ExtData[1]->WorkLocal[1])
 30: 0x009D [0x40] SET_BIT_WORK_RANGE(start_bit=0*, end_bit=15*, target=Work_Zone[1], source=ExtData[1]->WorkLocal[1])
 31: 0x00A6 [0x01] GOTO 0x010B
 32: 0x00A9 [0x02] IF !(Work_Zone[0] == 2*) GOTO 0x00D0
 33: 0x00B1 [0x71] USER_INPUT_HANDLER: Open numerical input with params (work=[1*, 5*])
 34: 0x00B7 [0x71] USER_INPUT_HANDLER: Process numerical input B (work=ExtData[1]->WorkLocal[1])
 35: 0x00BB [0x40] SET_BIT_WORK_RANGE(start_bit=24*, end_bit=31*, target=Work_Zone[1], source=3*)
 36: 0x00C4 [0x40] SET_BIT_WORK_RANGE(start_bit=0*, end_bit=15*, target=Work_Zone[1], source=ExtData[1]->WorkLocal[1])
 37: 0x00CD [0x01] GOTO 0x010B
 38: 0x00D0 [0x02] IF !(Work_Zone[0] == 3*) GOTO 0x00F7
 39: 0x00D8 [0x71] USER_INPUT_HANDLER: Open numerical input with params (work=[1*, 5*])
 40: 0x00DE [0x71] USER_INPUT_HANDLER: Process numerical input B (work=ExtData[1]->WorkLocal[1])
 41: 0x00E2 [0x40] SET_BIT_WORK_RANGE(start_bit=24*, end_bit=31*, target=Work_Zone[1], source=4*)
 42: 0x00EB [0x40] SET_BIT_WORK_RANGE(start_bit=0*, end_bit=15*, target=Work_Zone[1], source=ExtData[1]->WorkLocal[1])
 43: 0x00F4 [0x01] GOTO 0x010B
 44: 0x00F7 [0x02] IF !(Work_Zone[0] == 4*) GOTO 0x010B
 45: 0x00FF [0x03] Work_Zone[2] = 11*
 46: 0x0104 [0x48] [System] [6392*]:
    → "Obtained $0 gil."
 47: 0x0107 [0x23] WAIT_FOR_DIALOG_INTERACTION
 48: 0x0108 [0x01] GOTO 0x010B

SUBROUTINE_010B:
 49: 0x010B [0x21] END_EVENT
 50: 0x010C [0x00] END_REQSTACK()
```
