# 17637454 - Boy

## Common Data

| Field            | Value             |
|------------------|-------------------|
| Zone             | GM_Home (ID: 210) |
| Block Size       | 84 bytes          |
| Total Events     | 3                 |
| References Count | 4                 |

## List of Events

| Event ID              | Entrypoint   |   Size |   Instructions |
|-----------------------|--------------|--------|----------------|
| [65535](#event-65535) | 0x0000       |      1 |              1 |
| [133](#event-133)     | 0x0001       |     20 |              8 |
| [134](#event-134)     | 0x0015       |     19 |              7 |

## DAT References (imed_data)

|   Index | Hex Value   |   Dec Value |
|---------|-------------|-------------|
|       0 | 0x001E      |          30 |
|       1 | 0x031E      |         798 |
|       2 | 0x2348      |        9032 |
|       3 | 0x2349      |        9033 |

## String References

- **9032**: You want this $3? Here ya go!
- **9033**: I just gave my last $3 away.

## Events

### Event 65535

#### Metadata

| Field        | Value   |
|--------------|---------|
| Entrypoint   | 0x0000  |
| Data Size    | 1 bytes |
| Instructions | 1       |

```
      00 01 02 03 04 05 06 07  08 09 0A 0B 0C 0D 0E 0F
      -- -- -- -- -- -- -- --  -- -- -- -- -- -- -- --
0000: 00                                                .               
```

#### Opcodes

```
  0: 0x0000 [0x00] END_REQSTACK()
```

### Event 133

#### Metadata

| Field        | Value    |
|--------------|----------|
| Entrypoint   | 0x0001   |
| Data Size    | 20 bytes |
| Instructions | 8        |

```
      00 01 02 03 04 05 06 07  08 09 0A 0B 0C 0D 0E 0F
      -- -- -- -- -- -- -- --  -- -- -- -- -- -- -- --
0000:    42 1E F0 FF FF 7F 1C  00 80 03 02 10 01 80 1D   B..............
0010: 02 80 23 21 00                                    ..#!.           
```

#### Opcodes

```
  0: 0x0001 [0x42] SET_CLI_EVENT_CANCEL_DATA()
  1: 0x0002 [0x1E] EventEntity looks at LocalPlayer and starts talking
  2: 0x0007 [0x1C] WAIT(30* ticks)
  3: 0x000A [0x03] Work_Zone[2] = 798*
  4: 0x000F [0x1D] PRINT_EVENT_MESSAGE(message_id=9032*)
    → "You want this $3? Here ya go!"
  5: 0x0012 [0x23] WAIT_FOR_DIALOG_INTERACTION
  6: 0x0013 [0x21] END_EVENT
  7: 0x0014 [0x00] END_REQSTACK()
```

### Event 134

#### Metadata

| Field        | Value    |
|--------------|----------|
| Entrypoint   | 0x0015   |
| Data Size    | 19 bytes |
| Instructions | 7        |

```
      00 01 02 03 04 05 06 07  08 09 0A 0B 0C 0D 0E 0F
      -- -- -- -- -- -- -- --  -- -- -- -- -- -- -- --
0010:                1E F0 FF  FF 7F 1C 00 80 03 02 10       ...........
0020: 01 80 1D 03 80 23 21 00                           .....#!.        
```

#### Opcodes

```
  0: 0x0015 [0x1E] EventEntity looks at LocalPlayer and starts talking
  1: 0x001A [0x1C] WAIT(30* ticks)
  2: 0x001D [0x03] Work_Zone[2] = 798*
  3: 0x0022 [0x1D] PRINT_EVENT_MESSAGE(message_id=9033*)
    → "I just gave my last $3 away."
  4: 0x0025 [0x23] WAIT_FOR_DIALOG_INTERACTION
  5: 0x0026 [0x21] END_EVENT
  6: 0x0027 [0x00] END_REQSTACK()
```
