# 17637456 - Unstable

## Common Data

| Field            | Value             |
|------------------|-------------------|
| Zone             | GM_Home (ID: 210) |
| Block Size       | 120 bytes         |
| Total Events     | 2                 |
| References Count | 6                 |

## List of Events

| Event ID              | Entrypoint   |   Size |   Instructions |
|-----------------------|--------------|--------|----------------|
| [65535](#event-65535) | 0x0000       |      1 |              1 |
| [137](#event-137)     | 0x0001       |     70 |             20 |

## DAT References (imed_data)

|   Index | Hex Value   |   Dec Value |
|---------|-------------|-------------|
|       0 | 0x0000      |           0 |
|       1 | 0x001E      |          30 |
|       2 | 0x0001      |           1 |
|       3 | 0x1000      |        4096 |
|       4 | 0x234D      |        9037 |
|       5 | 0x234E      |        9038 |

## String References

- **9037**: I shall never part with this $0!
- **9038**: I never wanted this $0 anyway. Remove it from my sight!

## Events

### Event 65535

#### Metadata

| Field        | Value   |
|--------------|---------|
| Entrypoint   | 0x0000  |
| Data Size    | 1 bytes |
| Instructions | 1       |

```
      00 01 02 03 04 05 06 07  08 09 0A 0B 0C 0D 0E 0F
      -- -- -- -- -- -- -- --  -- -- -- -- -- -- -- --
0000: 00                                                .               
```

#### Opcodes

```
  0: 0x0000 [0x00] END_REQSTACK()
```

### Event 137

#### Metadata

| Field        | Value    |
|--------------|----------|
| Entrypoint   | 0x0001   |
| Data Size    | 70 bytes |
| Instructions | 20       |

```
      00 01 02 03 04 05 06 07  08 09 0A 0B 0C 0D 0E 0F
      -- -- -- -- -- -- -- --  -- -- -- -- -- -- -- --
0000:    42 03 01 10 00 80 1E  F0 FF FF 7F 1C 01 80 13   B..............
0010: 00 00 02 80 02 00 00 00  80 80 28 00 03 02 10 03  ..........(.....
0020: 80 1D 04 80 23 01 45 00  02 00 00 02 80 80 45 00  ....#.E.......E.
0030: 03 01 10 02 80 43 00 43  01 03 02 10 03 80 1D 05  .....C.C........
0040: 80 23 01 45 00 21 00                              .#.E.!.         
```

#### Opcodes

```
  0: 0x0001 [0x42] SET_CLI_EVENT_CANCEL_DATA()
  1: 0x0002 [0x03] Work_Zone[1] = 0*
  2: 0x0007 [0x1E] EventEntity looks at LocalPlayer and starts talking
  3: 0x000C [0x1C] WAIT(30* ticks)
  4: 0x000F [0x13] ExtData[1]->WorkLocal[0] = rand() % 1*
  5: 0x0014 [0x02] IF !(ExtData[1]->WorkLocal[0] == 0*) GOTO 0x0028
  6: 0x001C [0x03] Work_Zone[2] = 4096*
  7: 0x0021 [0x1D] PRINT_EVENT_MESSAGE(message_id=9037*)
    → "I shall never part with this $0!"
  8: 0x0024 [0x23] WAIT_FOR_DIALOG_INTERACTION
  9: 0x0025 [0x01] GOTO 0x0045
 10: 0x0028 [0x02] IF !(ExtData[1]->WorkLocal[0] == 1*) GOTO 0x0045
 11: 0x0030 [0x03] Work_Zone[1] = 1*
 12: 0x0035 [0x43] SEND_EVENT_UPDATE: Send pending tag to server (packet 0x005B)
 13: 0x0037 [0x43] SEND_EVENT_UPDATE: Check pending flag (skip if not pending)
 14: 0x0039 [0x03] Work_Zone[2] = 4096*
 15: 0x003E [0x1D] PRINT_EVENT_MESSAGE(message_id=9038*)
    → "I never wanted this $0 anyway. Remove it from my sight!"
 16: 0x0041 [0x23] WAIT_FOR_DIALOG_INTERACTION
 17: 0x0042 [0x01] GOTO 0x0045

SUBROUTINE_0045:
 18: 0x0045 [0x21] END_EVENT
 19: 0x0046 [0x00] END_REQSTACK()
```
