# 17637415 - Adoulin

## Common Data

| Field            | Value             |
|------------------|-------------------|
| Zone             | GM_Home (ID: 210) |
| Block Size       | 3512 bytes        |
| Total Events     | 2                 |
| References Count | 125               |

## List of Events

| Event ID              | Entrypoint   |   Size |   Instructions |
|-----------------------|--------------|--------|----------------|
| [65535](#event-65535) | 0x0000       |      1 |              1 |
| [17](#event-17)       | 0x0001       |   2985 |            498 |

## DAT References (imed_data)

|   Index | Hex Value   |   Dec Value |
|---------|-------------|-------------|
|       0 | 0x2376      |        9078 |
|       1 | 0x0000      |           0 |
|       2 | 0x0001      |           1 |
|       3 | 0x239C      |        9116 |
|       4 | 0x0002      |           2 |
|       5 | 0x0003      |           3 |
|       6 | 0x0004      |           4 |
|       7 | 0x0005      |           5 |
|       8 | 0x0006      |           6 |
|       9 | 0x0007      |           7 |
|      10 | 0x0019      |          25 |
|      11 | 0x001B      |          27 |
|      12 | 0x2377      |        9079 |
|      13 | 0x000D      |          13 |
|      14 | 0x2378      |        9080 |
|      15 | 0x000E      |          14 |
|      16 | 0x0018      |          24 |
|      17 | 0x0008      |           8 |
|      18 | 0x0009      |           9 |
|      19 | 0x000A      |          10 |
|      20 | 0x000B      |          11 |
|      21 | 0x2379      |        9081 |
|      22 | 0x239D      |        9117 |
|      23 | 0x000C      |          12 |
|      24 | 0x000F      |          15 |
|      25 | 0x0010      |          16 |
|      26 | 0x0011      |          17 |
|      27 | 0x0012      |          18 |
|      28 | 0x0013      |          19 |
|      29 | 0x23B0      |        9136 |
|      30 | 0x0014      |          20 |
|      31 | 0x0015      |          21 |
|      32 | 0x0016      |          22 |
|      33 | 0x0017      |          23 |
|      34 | 0x001A      |          26 |
|      35 | 0x001C      |          28 |
|      36 | 0x001D      |          29 |
|      37 | 0x001E      |          30 |
|      38 | 0x001F      |          31 |
|      39 | 0x0020      |          32 |
|      40 | 0x0021      |          33 |
|      41 | 0x0022      |          34 |
|      42 | 0x0023      |          35 |
|      43 | 0x0024      |          36 |
|      44 | 0x0025      |          37 |
|      45 | 0x0026      |          38 |
|      46 | 0x23B7      |        9143 |
|      47 | 0x0027      |          39 |
|      48 | 0x0028      |          40 |
|      49 | 0x0029      |          41 |
|      50 | 0x002A      |          42 |
|      51 | 0x002B      |          43 |
|      52 | 0x002C      |          44 |
|      53 | 0x002D      |          45 |
|      54 | 0x002E      |          46 |
|      55 | 0x002F      |          47 |
|      56 | 0x0030      |          48 |
|      57 | 0x0031      |          49 |
|      58 | 0x0032      |          50 |
|      59 | 0x0033      |          51 |
|      60 | 0x0034      |          52 |
|      61 | 0x0035      |          53 |
|      62 | 0x0036      |          54 |
|      63 | 0x23B8      |        9144 |
|      64 | 0x0037      |          55 |
|      65 | 0x0038      |          56 |
|      66 | 0x0039      |          57 |
|      67 | 0x003A      |          58 |
|      68 | 0x003B      |          59 |
|      69 | 0x003C      |          60 |
|      70 | 0x003D      |          61 |
|      71 | 0x003E      |          62 |
|      72 | 0x003F      |          63 |
|      73 | 0x0040      |          64 |
|      74 | 0x0041      |          65 |
|      75 | 0x0042      |          66 |
|      76 | 0x0043      |          67 |
|      77 | 0x0044      |          68 |
|      78 | 0x0045      |          69 |
|      79 | 0x0046      |          70 |
|      80 | 0x0047      |          71 |
|      81 | 0x0048      |          72 |
|      82 | 0x0049      |          73 |
|      83 | 0x004A      |          74 |
|      84 | 0x004B      |          75 |
|      85 | 0x23B9      |        9145 |
|      86 | 0x004C      |          76 |
|      87 | 0x004D      |          77 |
|      88 | 0x004E      |          78 |
|      89 | 0x004F      |          79 |
|      90 | 0x0050      |          80 |
|      91 | 0x0051      |          81 |
|      92 | 0x0052      |          82 |
|      93 | 0x0053      |          83 |
|      94 | 0x0054      |          84 |
|      95 | 0x0055      |          85 |
|      96 | 0x0056      |          86 |
|      97 | 0x0057      |          87 |
|      98 | 0x0058      |          88 |
|      99 | 0x0059      |          89 |
|     100 | 0x005A      |          90 |
|     101 | 0x005B      |          91 |
|     102 | 0x005C      |          92 |
|     103 | 0x005D      |          93 |
|     104 | 0x005E      |          94 |
|     105 | 0x005F      |          95 |
|     106 | 0x0060      |          96 |
|     107 | 0x0061      |          97 |
|     108 | 0x23BA      |        9146 |
|     109 | 0x0062      |          98 |
|     110 | 0x0063      |          99 |
|     111 | 0x0064      |         100 |
|     112 | 0x0065      |         101 |
|     113 | 0x0066      |         102 |
|     114 | 0x0067      |         103 |
|     115 | 0x0068      |         104 |
|     116 | 0x0069      |         105 |
|     117 | 0x006A      |         106 |
|     118 | 0x006B      |         107 |
|     119 | 0x006C      |         108 |
|     120 | 0x006D      |         109 |
|     121 | 0x006E      |         110 |
|     122 | 0x006F      |         111 |
|     123 | 0x0070      |         112 |
|     124 | 0x0071      |         113 |

## String References

- **9078**: What setting do you wish to...set? [None, you buffoon./Seekers of Adoulin./Naakual slaying./Friendship level: $0/Rune number: $1]
- **9079**: Da Naaaaaaaakuals! [Ack, too scary!/Matriarch.[/ (slain)]/Riptide.[/ (slain)]/Firebrand.[/ (slain)]/Ligneous.[/ (slain)]/Booming.[/ (slain)]/Flashfrost.[/ (slain)]/Necrotic.[/ (slain)]]
- **9080**: Set to what part? [None./ADSC00_Prepped and ready for the OP./ADSC11_Seen one of the three nations prologues./ADSC12_Chamber of Com.+Ind.: Accepted!/ADSC12_Recorded G.F. in dungeon./ADSC12_Quest done, prototype attuner gotten./ADSC12_Seen Waypoint Warp Animation./ADSC13_Left Arciela in Ceizak./ADSC14_The Sacred City of Adoulin./ADSC15_Registered as a Pioneer./ADSC17_Invited to dinner./ADSC18_Arciela reunion, End of Ch. #1.]
- **9081**: Value check! $0
- **9116**: Seekers of Adoulin ($2) [Quit."/2013 Release./7/2013 Release./8/2013 Release./11/2013 Release."/2014 Release./5/2014 Release./8/2014 Release.]
- **9117**: Set which flag? [None./ADSC211_Leafkin survey heard./ADSC211_Undertaken leafkin survey./ADSC212_Got hint from Teodor./ADSC213_Go to castle to meet Arciela./ADSC221_Hear hint about Arciela's whereabouts./ADSC222_Meet Arciela in cave./ADSC222_Meet leafkin./ADSC231_Learned about world tree.]
- **9136**: Gjp$3Z$3b$3g5\\7)$6226530D(- ADSC241_$4$P10i$P14hF$P14=$P11N$P14hL$U$P13K$P14-$P106 ADSC242_$5$P139E$3A$3V$3F$3$2F$D%o5= ADSC242_$P13,$jE$3I$3k$3}$3$12 $j)= ADSC242_%_ [$2L$27$P13.L%b$P157"=/ADSC242_$3Z$3j$3AE$17%?$P13Gq>/ADSC242_$3$3$16$5$P139Lf-H"%\\$P157"=/ADSC243_%v5"bh$fhp$P157"=/ADSC243_$X$6E<Player>C$6L$26&$P157"=/ADSC243_$3$1[$3f$3$3YL$3A$3W$3gE$P103$P11LNj=/ADSC243_$3$1[$3f$3$3YL$3A$3W$3gI$P10v$P13|5=/ADSC244_$i$P16e$P14T)g$3A$3{$3^$3 %U$P131$P157"=/ADSC244_$3A$3{$3^$3 E$3g$3}$3g$P14z$P12B$P12fA=/ADSC244_$3A$3{$3^$3 E$3g$3}$3g$P14z$P12B$s/=/ADSC251_$3$6$3O$3i$3X<Player>C$E$R$6750761$P13&$P16S5=/ADSC251_$3A$3W$3g$P11{$u$331810$P16ep$J/k/ADSC251_$3$3$16$5$P139E<Player>C$E$q$P16d$RgF$P11N35=/ADSC252_$3$3$16$5$P139E<Player>C$E$q$P16d$Rg$P13|5=/ADSC252_$3A$3V$3F$3$1A$P10fI$iV$P16_A=/ADSC253_$3$6$3O$3i$3XF%oA=A2$M$I$11]
- **9143**: Gjp$3Z$3b$3g5\\7)$6226530D(- ADSC311_($o}&L<Player>K%$217"= ADSC311_($o}&L<Player>K%$14s/= ADSC312_$3C$3$3O$3$3b$3h$o}&= ADSC313_bqj$P15%"L<Player>K%$14s/= ADSC314_bqj$P15%"L$P10G$P14}$P115A= ADSC315_bqj$P15%"$8$P14s5= ADSC321_$3A$3V$3F$3$2L($P14Y]%p5$P11\` ADSC322_$3A$3V$3F$3$2L%bp$P157"= ADSC323_$3e$3B$3A$3i$DQ ADSC331_$P108%l$22$23$3e$3I$3h[$3 [/ADSC332_$P108%l$22$23$3A$3V$3F$3$7ADSC332_$P108%l$22$23$3r$3o$3b$3O/ADSC333_$P108%l$22$23$22$22$R$P11n/ADSC334_$P108%l$22$23$P16:$P14-)/ADSC334_$P108%l$22$23%p]
- **9144**: Gjp$3Z$3b$3g5\\7)$6226530D(- ADSC341_=\\IM$P11'$P142+p ADSC342_$P11'$P142+$23$3Q[$3 p$P111$6 ADSC342_$P11'$P142+$7541833$P16k ADSC342_$P11'$P142+$2035529%%7ADSC342_$P11'$P142+$23$3q$3$3g$P157"= ADSC342_$P11'$P142+$23$3p$3C$3I$3j$3A$3R$3$3g ADSC343_$P10}$17$Y$23$3I[$3_[$3T$3C$3$7ADSC351_$3$3C$3h$23$3A$3V$3F$3$2L%_ [$7ADSC352_$9$295=$3C$3$3O$3$3b$3h/ADSC353_$3A$3V$3F$3$17{$u$P11\`$P11g\\ji/ADSC361_$n$P15q${$W$23$3p$3C$3I$3j$3A/ADSC361_$n$P15q${$W$23$3X$3J$3E$3g/ADSC362_$3J$3~[$3 [$R%[$724556$P10|/ADSC362_$3J$3~[$3 [$R%[$23 [\`U$n$P15q$P13>=/ADSC363_$3C$3$3O$3$3b$3h=?p$P12G&I/ADSC364_ [V$P12fL%L<Player>f$23$3o$3g$3 [$P11O/ADSC364_ [V$P12fL%L<Player>f$23$3o$3g$3 [$31%%25=/ADSC364_ [V$P12fL%L<Player>f$23$3C$3$3O$3$3b$3h$.$P14s/ADSC365_$P"pDT%4]=A3$M$I$11]
- **9145**: Gjp$3Z$3b$3g5\\7)$6226530D(- ADSC411_%^$P14@$3M$3 [$3hE$P16b$P11h$P14-$P106/ADSC412_$,%$27i%^$P14@$3M$3 [$3h/ADSC413_$\`ID$4719208"$P15i/ADSC413_$\`ID$23$P16b$P11h%p/ADSC414_$3$3 [$3$3B$3A$3$2*$P15s$]/ADSC416_$J$P11q$3M$3 [$3hE$P15q$V/ADSC421_$3A$3V$3F$3$2L$R$P13ohL(%U"/ADSC422_uL%4I%oA=/ADSC423_$P10}$17$YE$P122W$P15(5=/ADSC424_uL%4)g$DQ%bp$P157"=/ADSC431_ [\`UI$P131)jD/ADSC432_$P12n%:L$2$P15($23$3o$3g$3 [$P11O/ADSC432_$P12n%:L$2$P15($23$3o$3g$3 [$31%%25=/ADSC432_$P12n%:L$2$P15($23$3o$3g$3 [c/ADSC433_$3n$6750761%X$n$P15q/ADSC434_%Xp$P13n5D$28$8/ADSC435_$3$6$3O$3i$3X)g$P10Z,$P16X$n$P15q/ADSC436_$J$P11q$3M$3 [$3hE$3q$3$3g/ADSC436_$3$3t$3@[$3$3A$P14-)5=/ADSC436_$3$3t$3@[$3$3A<Player>j$P12Jh$P15\`"=/ADSC436_$P10"$E$wE$3$3 [$3$3B$3A$3$22%$16S/ADSC437_$3A$3h$3D$3$3$15iE$P15q$16]
- **9146**: Gjp$3Z$3b$3g5\\7)$6226530D(- ADSC441_$3$3 [$3$3B$3A$3$14 $P11L$P14-)/ADSC442_$i$P16eE$3t$3~$3$2I%oA=/ADSC443_$3t$3~$3$2)g>$P13\`$P157"=/ADSC444_$5%H$P122$8p$P10?/$9A=/ADSC445_$5%H3$3J$10$P122$85=/ADSC446_%U$30%o [cp$J-1FIHA=/ADSC451_$3o$3$3$3A$P13o$j/ADSC452_$i$P16e$P11OE$3C$3$3O$3$3b$3hI%oA=/ADSC453_$P11O%qL$P15q$Vp$P15T5=/ADSC453_$P10}$17$YE%bp$P157"=/ADSC453b_$3A$3V$3F$3$123 [CC/=/ADSC461_$3o$3$3$3A$P10l\`%B5=/ADSC462_$3o$3$3$3A$3o$3g$3 [$31%%25=/ADSC463_$3o$3$3$3A$P13&0=/ADSC463_$P15q$V$P15[%/5=/ADSC463_$iE$P15q$Vp\`gA=]

## Events

### Event 65535

#### Metadata

| Field        | Value   |
|--------------|---------|
| Entrypoint   | 0x0000  |
| Data Size    | 1 bytes |
| Instructions | 1       |

```
      00 01 02 03 04 05 06 07  08 09 0A 0B 0C 0D 0E 0F
      -- -- -- -- -- -- -- --  -- -- -- -- -- -- -- --
0000: 00                                                .               
```

#### Opcodes

```
  0: 0x0000 [0x00] END_REQSTACK()
```

### Event 17

#### Metadata

| Field        | Value      |
|--------------|------------|
| Entrypoint   | 0x0001     |
| Data Size    | 2985 bytes |
| Instructions | 81         |

```
      00 01 02 03 04 05 06 07  08 09 0A 0B 0C 0D 0E 0F
      -- -- -- -- -- -- -- --  -- -- -- -- -- -- -- --
0000:    06 01 10 03 00 00 02  10 03 01 00 03 10 03 02   ...............
0010: 00 04 10 03 02 10 00 00  03 03 10 01 00 03 04 10  ................
0020: 02 00 24 00 80 01 80 01  80 25 02 00 10 01 80 00  ..$......%......
0030: 38 00 01 C3 01 01 C3 01  02 00 10 02 80 00 C0 00  8...............
0040: 03 04 10 02 00 24 03 80  01 80 01 80 25 02 00 10  .....$......%...
0050: 01 80 00 5B 00 01 13 00  01 BD 00 02 00 10 02 80  ...[............
0060: 00 69 00 01 C5 01 01 BD  00 02 00 10 04 80 00 77  .i.............w
0070: 00 01 C8 02 01 BD 00 02  00 10 05 80 00 85 00 01  ................
0080: 8F 03 01 BD 00 02 00 10  06 80 00 93 00 01 32 05  ..............2.
0090: 01 BD 00 02 00 10 07 80  00 A1 00 01 99 06 01 BD  ................
00A0: 00 02 00 10 08 80 00 AF  00 01 64 08 01 BD 00 02  ..........d.....
00B0: 00 10 09 80 00 BD 00 01  43 0A 01 BD 00 01 C3 01  ........C.......
00C0: 02 00 10 04 80 00 81 01  40 0A 80 0B 80 01 10 01  ........@.......
00D0: 80 43 00 43 01 24 0C 80  01 80 01 80 25 02 00 10  .C.C.$......%...
00E0: 01 80 00 EB 00 01 13 00  01 77 01 02 00 10 02 80  .........w......
00F0: 00 FF 00 40 0A 80 0B 80  01 10 02 80 01 77 01 02  ...@.........w..
0100: 00 10 04 80 00 13 01 40  0A 80 0B 80 01 10 04 80  .......@........
0110: 01 77 01 02 00 10 05 80  00 27 01 40 0A 80 0B 80  .w.......'.@....
0120: 01 10 05 80 01 77 01 02  00 10 06 80 00 3B 01 40  .....w.......;.@
0130: 0A 80 0B 80 01 10 06 80  01 77 01 02 00 10 07 80  .........w......
0140: 00 4F 01 40 0A 80 0B 80  01 10 07 80 01 77 01 02  .O.@.........w..
0150: 00 10 08 80 00 63 01 40  0A 80 0B 80 01 10 08 80  .....c.@........
0160: 01 77 01 02 00 10 09 80  00 77 01 40 0A 80 0B 80  .w.......w.@....
0170: 01 10 09 80 01 77 01 43  00 43 01 01 C8 00 01 C3  .....w.C.C......
0180: 01 02 00 10 05 80 00 A2  01 71 12 02 80 05 80 71  .........q.....q
0190: 13 00 00 40 01 80 08 80  01 10 00 00 01 13 00 01  ...@............
01A0: C3 01 02 00 10 06 80 00  C3 01 71 12 02 80 05 80  ..........q.....
01B0: 71 13 01 00 40 09 80 0D  80 01 10 01 00 01 13 00  q...@...........
01C0: 01 C3 01 21 00 24 0E 80  01 80 01 80 25 02 00 10  ...!.$......%...
01D0: 01 80 00 DB 01 01 13 00  01 B7 02 02 00 10 02 80  ................
01E0: 00 EF 01 40 0F 80 10 80  01 10 02 80 01 B7 02 02  ...@............
01F0: 00 10 04 80 00 03 02 40  0F 80 10 80 01 10 04 80  .......@........
0200: 01 B7 02 02 00 10 05 80  00 17 02 40 0F 80 10 80  ...........@....
0210: 01 10 05 80 01 B7 02 02  00 10 06 80 00 2B 02 40  .............+.@
0220: 0F 80 10 80 01 10 06 80  01 B7 02 02 00 10 07 80  ................
0230: 00 3F 02 40 0F 80 10 80  01 10 07 80 01 B7 02 02  .?.@............
0240: 00 10 08 80 00 53 02 40  0F 80 10 80 01 10 08 80  .....S.@........
0250: 01 B7 02 02 00 10 09 80  00 67 02 40 0F 80 10 80  .........g.@....
0260: 01 10 09 80 01 B7 02 02  00 10 11 80 00 7B 02 40  .............{.@
0270: 0F 80 10 80 01 10 11 80  01 B7 02 02 00 10 12 80  ................
0280: 00 8F 02 40 0F 80 10 80  01 10 12 80 01 B7 02 02  ...@............
0290: 00 10 13 80 00 A3 02 40  0F 80 10 80 01 10 13 80  .......@........
02A0: 01 B7 02 02 00 10 14 80  00 B7 02 40 0F 80 10 80  ...........@....
02B0: 01 10 14 80 01 B7 02 41  0F 80 10 80 01 10 02 10  .......A........
02C0: 48 15 80 23 01 C3 01 00  24 16 80 01 80 01 80 25  H..#....$......%
02D0: 02 00 10 01 80 00 DE 02  01 13 00 01 7E 03 02 00  ............~...
02E0: 10 02 80 00 F2 02 40 0F  80 10 80 01 10 17 80 01  ......@.........
02F0: 7E 03 02 00 10 04 80 00  06 03 40 0F 80 10 80 01  ~.........@.....
0300: 10 0D 80 01 7E 03 02 00  10 05 80 00 1A 03 40 0F  ....~.........@.
0310: 80 10 80 01 10 0F 80 01  7E 03 02 00 10 06 80 00  ........~.......
0320: 2E 03 40 0F 80 10 80 01  10 18 80 01 7E 03 02 00  ..@.........~...
0330: 10 07 80 00 42 03 40 0F  80 10 80 01 10 19 80 01  ....B.@.........
0340: 7E 03 02 00 10 08 80 00  56 03 40 0F 80 10 80 01  ~.......V.@.....
0350: 10 1A 80 01 7E 03 02 00  10 09 80 00 6A 03 40 0F  ....~.......j.@.
0360: 80 10 80 01 10 1B 80 01  7E 03 02 00 10 11 80 00  ........~.......
0370: 7E 03 40 0F 80 10 80 01  10 1C 80 01 7E 03 41 0F  ~.@.........~.A.
0380: 80 10 80 01 10 02 10 48  15 80 23 01 C3 01 00 24  .......H..#....$
0390: 1D 80 01 80 01 80 25 02  00 10 01 80 00 A5 03 01  ......%.........
03A0: 13 00 01 21 05 02 00 10  02 80 00 B9 03 40 0F 80  ...!.........@..
03B0: 10 80 01 10 1E 80 01 21  05 02 00 10 04 80 00 CD  .......!........
03C0: 03 40 0F 80 10 80 01 10  1F 80 01 21 05 02 00 10  .@.........!....
03D0: 05 80 00 E1 03 40 0F 80  10 80 01 10 20 80 01 21  .....@...... ..!
03E0: 05 02 00 10 06 80 00 F5  03 40 0F 80 10 80 01 10  .........@......
03F0: 21 80 01 21 05 02 00 10  07 80 00 09 04 40 0F 80  !..!.........@..
0400: 10 80 01 10 10 80 01 21  05 02 00 10 08 80 00 1D  .......!........
0410: 04 40 0F 80 10 80 01 10  0A 80 01 21 05 02 00 10  .@.........!....
0420: 09 80 00 31 04 40 0F 80  10 80 01 10 22 80 01 21  ...1.@......"..!
0430: 05 02 00 10 11 80 00 45  04 40 0F 80 10 80 01 10  .......E.@......
0440: 0B 80 01 21 05 02 00 10  12 80 00 59 04 40 0F 80  ...!.......Y.@..
0450: 10 80 01 10 23 80 01 21  05 02 00 10 13 80 00 6D  ....#..!.......m
0460: 04 40 0F 80 10 80 01 10  24 80 01 21 05 02 00 10  .@......$..!....
0470: 14 80 00 81 04 40 0F 80  10 80 01 10 25 80 01 21  .....@......%..!
0480: 05 02 00 10 17 80 00 95  04 40 0F 80 10 80 01 10  .........@......
0490: 26 80 01 21 05 02 00 10  0D 80 00 A9 04 40 0F 80  &..!.........@..
04A0: 10 80 01 10 27 80 01 21  05 02 00 10 0F 80 00 BD  ....'..!........
04B0: 04 40 0F 80 10 80 01 10  28 80 01 21 05 02 00 10  .@......(..!....
04C0: 18 80 00 D1 04 40 0F 80  10 80 01 10 29 80 01 21  .....@......)..!
04D0: 05 02 00 10 19 80 00 E5  04 40 0F 80 10 80 01 10  .........@......
04E0: 2A 80 01 21 05 02 00 10  1A 80 00 F9 04 40 0F 80  *..!.........@..
04F0: 10 80 01 10 2B 80 01 21  05 02 00 10 1B 80 00 0D  ....+..!........
0500: 05 40 0F 80 10 80 01 10  2C 80 01 21 05 02 00 10  .@......,..!....
0510: 1C 80 00 21 05 40 0F 80  10 80 01 10 2D 80 01 21  ...!.@......-..!
0520: 05 41 0F 80 10 80 01 10  02 10 48 15 80 23 01 C3  .A........H..#..
0530: 01 00 24 2E 80 01 80 01  80 25 02 00 10 01 80 00  ..$......%......
0540: 48 05 01 13 00 01 88 06  02 00 10 02 80 00 5C 05  H.............\.
0550: 40 0F 80 10 80 01 10 2F  80 01 88 06 02 00 10 04  @....../........
0560: 80 00 70 05 40 0F 80 10  80 01 10 30 80 01 88 06  ..p.@......0....
0570: 02 00 10 05 80 00 84 05  40 0F 80 10 80 01 10 31  ........@......1
0580: 80 01 88 06 02 00 10 06  80 00 98 05 40 0F 80 10  ............@...
0590: 80 01 10 32 80 01 88 06  02 00 10 07 80 00 AC 05  ...2............
05A0: 40 0F 80 10 80 01 10 33  80 01 88 06 02 00 10 08  @......3........
05B0: 80 00 C0 05 40 0F 80 10  80 01 10 34 80 01 88 06  ....@......4....
05C0: 02 00 10 09 80 00 D4 05  40 0F 80 10 80 01 10 35  ........@......5
05D0: 80 01 88 06 02 00 10 11  80 00 E8 05 40 0F 80 10  ............@...
05E0: 80 01 10 36 80 01 88 06  02 00 10 12 80 00 FC 05  ...6............
05F0: 40 0F 80 10 80 01 10 37  80 01 88 06 02 00 10 13  @......7........
0600: 80 00 10 06 40 0F 80 10  80 01 10 38 80 01 88 06  ....@......8....
0610: 02 00 10 14 80 00 24 06  40 0F 80 10 80 01 10 39  ......$.@......9
0620: 80 01 88 06 02 00 10 17  80 00 38 06 40 0F 80 10  ..........8.@...
0630: 80 01 10 3A 80 01 88 06  02 00 10 0D 80 00 4C 06  ...:..........L.
0640: 40 0F 80 10 80 01 10 3B  80 01 88 06 02 00 10 0F  @......;........
0650: 80 00 60 06 40 0F 80 10  80 01 10 3C 80 01 88 06  ..`.@......<....
0660: 02 00 10 18 80 00 74 06  40 0F 80 10 80 01 10 3D  ......t.@......=
0670: 80 01 88 06 02 00 10 19  80 00 88 06 40 0F 80 10  ............@...
0680: 80 01 10 3E 80 01 88 06  41 0F 80 10 80 01 10 02  ...>....A.......
0690: 10 48 15 80 23 01 C3 01  00 24 3F 80 01 80 01 80  .H..#....$?.....
06A0: 25 02 00 10 01 80 00 AF  06 01 13 00 01 53 08 02  %............S..
06B0: 00 10 02 80 00 C3 06 40  0F 80 10 80 01 10 40 80  .......@......@.
06C0: 01 53 08 02 00 10 04 80  00 D7 06 40 0F 80 10 80  .S.........@....
06D0: 01 10 41 80 01 53 08 02  00 10 05 80 00 EB 06 40  ..A..S.........@
06E0: 0F 80 10 80 01 10 42 80  01 53 08 02 00 10 06 80  ......B..S......
06F0: 00 FF 06 40 0F 80 10 80  01 10 43 80 01 53 08 02  ...@......C..S..
0700: 00 10 07 80 00 13 07 40  0F 80 10 80 01 10 44 80  .......@......D.
0710: 01 53 08 02 00 10 08 80  00 27 07 40 0F 80 10 80  .S.......'.@....
0720: 01 10 45 80 01 53 08 02  00 10 09 80 00 3B 07 40  ..E..S.......;.@
0730: 0F 80 10 80 01 10 46 80  01 53 08 02 00 10 11 80  ......F..S......
0740: 00 4F 07 40 0F 80 10 80  01 10 47 80 01 53 08 02  .O.@......G..S..
0750: 00 10 12 80 00 63 07 40  0F 80 10 80 01 10 48 80  .....c.@......H.
0760: 01 53 08 02 00 10 13 80  00 77 07 40 0F 80 10 80  .S.......w.@....
0770: 01 10 49 80 01 53 08 02  00 10 14 80 00 8B 07 40  ..I..S.........@
0780: 0F 80 10 80 01 10 4A 80  01 53 08 02 00 10 17 80  ......J..S......
0790: 00 9F 07 40 0F 80 10 80  01 10 4B 80 01 53 08 02  ...@......K..S..
07A0: 00 10 0D 80 00 B3 07 40  0F 80 10 80 01 10 4C 80  .......@......L.
07B0: 01 53 08 02 00 10 0F 80  00 C7 07 40 0F 80 10 80  .S.........@....
07C0: 01 10 4D 80 01 53 08 02  00 10 18 80 00 DB 07 40  ..M..S.........@
07D0: 0F 80 10 80 01 10 4E 80  01 53 08 02 00 10 19 80  ......N..S......
07E0: 00 EF 07 40 0F 80 10 80  01 10 4F 80 01 53 08 02  ...@......O..S..
07F0: 00 10 1A 80 00 03 08 40  0F 80 10 80 01 10 50 80  .......@......P.
0800: 01 53 08 02 00 10 1B 80  00 17 08 40 0F 80 10 80  .S.........@....
0810: 01 10 51 80 01 53 08 02  00 10 1C 80 00 2B 08 40  ..Q..S.......+.@
0820: 0F 80 10 80 01 10 52 80  01 53 08 02 00 10 1E 80  ......R..S......
0830: 00 3F 08 40 0F 80 10 80  01 10 53 80 01 53 08 02  .?.@......S..S..
0840: 00 10 1F 80 00 53 08 40  0F 80 10 80 01 10 54 80  .....S.@......T.
0850: 01 53 08 41 0F 80 10 80  01 10 02 10 48 15 80 23  .S.A........H..#
0860: 01 C3 01 00 24 55 80 01  80 01 80 25 02 00 10 01  ....$U.....%....
0870: 80 00 7A 08 01 13 00 01  32 0A 02 00 10 02 80 00  ..z.....2.......
0880: 8E 08 40 0F 80 10 80 01  10 56 80 01 32 0A 02 00  ..@......V..2...
0890: 10 04 80 00 A2 08 40 0F  80 10 80 01 10 57 80 01  ......@......W..
08A0: 32 0A 02 00 10 05 80 00  B6 08 40 0F 80 10 80 01  2.........@.....
08B0: 10 58 80 01 32 0A 02 00  10 06 80 00 CA 08 40 0F  .X..2.........@.
08C0: 80 10 80 01 10 59 80 01  32 0A 02 00 10 07 80 00  .....Y..2.......
08D0: DE 08 40 0F 80 10 80 01  10 5A 80 01 32 0A 02 00  ..@......Z..2...
08E0: 10 08 80 00 F2 08 40 0F  80 10 80 01 10 5B 80 01  ......@......[..
08F0: 32 0A 02 00 10 09 80 00  06 09 40 0F 80 10 80 01  2.........@.....
0900: 10 5C 80 01 32 0A 02 00  10 11 80 00 1A 09 40 0F  .\..2.........@.
0910: 80 10 80 01 10 5D 80 01  32 0A 02 00 10 12 80 00  .....]..2.......
0920: 2E 09 40 0F 80 10 80 01  10 5E 80 01 32 0A 02 00  ..@......^..2...
0930: 10 13 80 00 42 09 40 0F  80 10 80 01 10 5F 80 01  ....B.@......_..
0940: 32 0A 02 00 10 14 80 00  56 09 40 0F 80 10 80 01  2.......V.@.....
0950: 10 60 80 01 32 0A 02 00  10 17 80 00 6A 09 40 0F  .`..2.......j.@.
0960: 80 10 80 01 10 61 80 01  32 0A 02 00 10 0D 80 00  .....a..2.......
0970: 7E 09 40 0F 80 10 80 01  10 62 80 01 32 0A 02 00  ~.@......b..2...
0980: 10 0F 80 00 92 09 40 0F  80 10 80 01 10 63 80 01  ......@......c..
0990: 32 0A 02 00 10 18 80 00  A6 09 40 0F 80 10 80 01  2.........@.....
09A0: 10 64 80 01 32 0A 02 00  10 19 80 00 BA 09 40 0F  .d..2.........@.
09B0: 80 10 80 01 10 65 80 01  32 0A 02 00 10 1A 80 00  .....e..2.......
09C0: CE 09 40 0F 80 10 80 01  10 66 80 01 32 0A 02 00  ..@......f..2...
09D0: 10 1B 80 00 E2 09 40 0F  80 10 80 01 10 67 80 01  ......@......g..
09E0: 32 0A 02 00 10 1C 80 00  F6 09 40 0F 80 10 80 01  2.........@.....
09F0: 10 68 80 01 32 0A 02 00  10 1E 80 00 0A 0A 40 0F  .h..2.........@.
0A00: 80 10 80 01 10 69 80 01  32 0A 02 00 10 1F 80 00  .....i..2.......
0A10: 1E 0A 40 0F 80 10 80 01  10 6A 80 01 32 0A 02 00  ..@......j..2...
0A20: 10 20 80 00 32 0A 40 0F  80 10 80 01 10 6B 80 01  . ..2.@......k..
0A30: 32 0A 41 0F 80 10 80 01  10 02 10 48 15 80 23 01  2.A........H..#.
0A40: C3 01 00 24 6C 80 01 80  01 80 25 02 00 10 01 80  ...$l.....%.....
0A50: 00 59 0A 01 13 00 01 99  0B 02 00 10 02 80 00 6D  .Y.............m
0A60: 0A 40 0F 80 10 80 01 10  6D 80 01 99 0B 02 00 10  .@......m.......
0A70: 04 80 00 81 0A 40 0F 80  10 80 01 10 6E 80 01 99  .....@......n...
0A80: 0B 02 00 10 05 80 00 95  0A 40 0F 80 10 80 01 10  .........@......
0A90: 6F 80 01 99 0B 02 00 10  06 80 00 A9 0A 40 0F 80  o............@..
0AA0: 10 80 01 10 70 80 01 99  0B 02 00 10 07 80 00 BD  ....p...........
0AB0: 0A 40 0F 80 10 80 01 10  71 80 01 99 0B 02 00 10  .@......q.......
0AC0: 08 80 00 D1 0A 40 0F 80  10 80 01 10 72 80 01 99  .....@......r...
0AD0: 0B 02 00 10 09 80 00 E5  0A 40 0F 80 10 80 01 10  .........@......
0AE0: 73 80 01 99 0B 02 00 10  11 80 00 F9 0A 40 0F 80  s............@..
0AF0: 10 80 01 10 74 80 01 99  0B 02 00 10 12 80 00 0D  ....t...........
0B00: 0B 40 0F 80 10 80 01 10  75 80 01 99 0B 02 00 10  .@......u.......
0B10: 13 80 00 21 0B 40 0F 80  10 80 01 10 76 80 01 99  ...!.@......v...
0B20: 0B 02 00 10 14 80 00 35  0B 40 0F 80 10 80 01 10  .......5.@......
0B30: 77 80 01 99 0B 02 00 10  17 80 00 49 0B 40 0F 80  w..........I.@..
0B40: 10 80 01 10 78 80 01 99  0B 02 00 10 0D 80 00 5D  ....x..........]
0B50: 0B 40 0F 80 10 80 01 10  79 80 01 99 0B 02 00 10  .@......y.......
0B60: 0F 80 00 71 0B 40 0F 80  10 80 01 10 7A 80 01 99  ...q.@......z...
0B70: 0B 02 00 10 18 80 00 85  0B 40 0F 80 10 80 01 10  .........@......
0B80: 7B 80 01 99 0B 02 00 10  19 80 00 99 0B 40 0F 80  {............@..
0B90: 10 80 01 10 7C 80 01 99  0B 41 0F 80 10 80 01 10  ....|....A......
0BA0: 02 10 48 15 80 23 01 C3  01 00                    ..H..#....      
```

#### Opcodes

```
  0: 0x0001 [0x06] Work_Zone[1] = 0
  1: 0x0004 [0x03] ExtData[1]->WorkLocal[0] = Work_Zone[2]
  2: 0x0009 [0x03] ExtData[1]->WorkLocal[1] = Work_Zone[3]
  3: 0x000E [0x03] ExtData[1]->WorkLocal[2] = Work_Zone[4]
  4: 0x0013 [0x03] Work_Zone[2] = ExtData[1]->WorkLocal[0]
  5: 0x0018 [0x03] Work_Zone[3] = ExtData[1]->WorkLocal[1]
  6: 0x001D [0x03] Work_Zone[4] = ExtData[1]->WorkLocal[2]
  7: 0x0022 [0x24] CREATE_DIALOG(message_id=9078*, default_option=0*, option_flags=0*)
    → "What setting do you wish to...set? [None, you buffoon./Seekers of Adoulin./Naakual slaying./Friendship level: $0/Rune number: $1]"
  8: 0x0029 [0x25] WAIT_DIALOG_SELECT()
  9: 0x002A [0x02] IF !(Work_Zone[0] == 0*) GOTO 0x0038
 10: 0x0032 [0x01] GOTO 0x01C3

SUBROUTINE_00BD:
 11: 0x00BD [0x01] GOTO 0x01C3
 12: 0x00C0 [0x02] IF !(Work_Zone[0] == 2*) GOTO 0x0181

SUBROUTINE_00C8:
 13: 0x00C8 [0x40] SET_BIT_WORK_RANGE(start_bit=25*, end_bit=27*, target=Work_Zone[1], source=0*)
 14: 0x00D1 [0x43] SEND_EVENT_UPDATE: Send pending tag to server (packet 0x005B)
 15: 0x00D3 [0x43] SEND_EVENT_UPDATE: Check pending flag (skip if not pending)
 16: 0x00D5 [0x24] CREATE_DIALOG(message_id=9079*, default_option=0*, option_flags=0*)
    → "Da Naaaaaaaakuals! [Ack, too scary!/Matriarch.[/ (slain)]/Riptide.[/ (slain)]/Firebrand.[/ (slain)]/Ligneous.[/ (slain)]/Booming.[/ (slain)]/Flashfrost.[/ (slain)]/Necrotic.[/ (slain)]]"
 17: 0x00DC [0x25] WAIT_DIALOG_SELECT()
 18: 0x00DD [0x02] IF !(Work_Zone[0] == 0*) GOTO 0x00EB
 19: 0x00E5 [0x01] GOTO 0x0013

SUBROUTINE_0177:
 20: 0x0177 [0x43] SEND_EVENT_UPDATE: Send pending tag to server (packet 0x005B)
 21: 0x0179 [0x43] SEND_EVENT_UPDATE: Check pending flag (skip if not pending)
 22: 0x017B [0x01] GOTO 0x00C8

SUBROUTINE_01C3:
 23: 0x01C3 [0x21] END_EVENT
 24: 0x01C4 [0x00] END_REQSTACK()

SUBROUTINE_01C5:
 25: 0x01C5 [0x24] CREATE_DIALOG(message_id=9080*, default_option=0*, option_flags=0*)
    → "Set to what part? [None./ADSC00_Prepped and ready for the OP./ADSC11_Seen one of the three nations prologues./ADSC12_Chamber of Com.+Ind.: Accepted!/ADSC12_Recorded G.F. in dungeon./ADSC12_Quest done, prototype attuner gotten./ADSC12_Seen Waypoint Warp Animation./ADSC13_Left Arciela in Ceizak./ADSC14_The Sacred City of Adoulin./ADSC15_Registered as a Pioneer./ADSC17_Invited to dinner./ADSC18_Arciela reunion, End of Ch. #1.]"
 26: 0x01CC [0x25] WAIT_DIALOG_SELECT()
 27: 0x01CD [0x02] IF !(Work_Zone[0] == 0*) GOTO 0x01DB
 28: 0x01D5 [0x01] GOTO 0x0013

SUBROUTINE_02B7:
 29: 0x02B7 [0x41] Work_Zone[2] = Work_Zone[1] (bits 14*-24*)
 30: 0x02C0 [0x48] [System] [9081*]:
    → "Value check! $0"
 31: 0x02C3 [0x23] WAIT_FOR_DIALOG_INTERACTION
 32: 0x02C4 [0x01] GOTO 0x01C3

SUBROUTINE_02C8:
 33: 0x02C8 [0x24] CREATE_DIALOG(message_id=9117*, default_option=0*, option_flags=0*)
    → "Set which flag? [None./ADSC211_Leafkin survey heard./ADSC211_Undertaken leafkin survey./ADSC212_Got hint from Teodor./ADSC213_Go to castle to meet Arciela./ADSC221_Hear hint about Arciela's whereabouts./ADSC222_Meet Arciela in cave./ADSC222_Meet leafkin./ADSC231_Learned about world tree.]"
 34: 0x02CF [0x25] WAIT_DIALOG_SELECT()
 35: 0x02D0 [0x02] IF !(Work_Zone[0] == 0*) GOTO 0x02DE
 36: 0x02D8 [0x01] GOTO 0x0013

SUBROUTINE_037E:
 37: 0x037E [0x41] Work_Zone[2] = Work_Zone[1] (bits 14*-24*)
 38: 0x0387 [0x48] [System] [9081*]:
    → "Value check! $0"
 39: 0x038A [0x23] WAIT_FOR_DIALOG_INTERACTION
 40: 0x038B [0x01] GOTO 0x01C3

SUBROUTINE_038F:
 41: 0x038F [0x24] CREATE_DIALOG(message_id=9136*, default_option=0*, option_flags=0*)
    → "Gjp$3Z$3b$3g5\7)$6226530D(- ADSC241_$4$P10i$P14hF$P14=$P11N$P14hL$U$P13K$P14-$P106 ADSC242_$5$P139E$3A$3V$3F$3$2F$D%o5= ADSC242_$P13,$jE$3I$3k$3}$3$12 $j)= ADSC242_%_ [$2L$27$P13.L%b$P157"=/ADSC242_$3Z$3j$3AE$17%?$P13Gq>/ADSC242_$3$3$16$5$P139Lf-H"%\$P157"=/ADSC243_%v5"bh$fhp$P157"=/ADSC243_$X$6E<Player>C$6L$26&$P157"=/ADSC243_$3$1[$3f$3$3YL$3A$3W$3gE$P103$P11LNj=/ADSC243_$3$1[$3f$3$3YL$3A$3W$3gI$P10v$P13|5=/ADSC244_$i$P16e$P14T)g$3A$3{$3^$3 %U$P131$P157"=/ADSC244_$3A$3{$3^$3 E$3g$3}$3g$P14z$P12B$P12fA=/ADSC244_$3A$3{$3^$3 E$3g$3}$3g$P14z$P12B$s/=/ADSC251_$3$6$3O$3i$3X<Player>C$E$R$6750761$P13&$P16S5=/ADSC251_$3A$3W$3g$P11{$u$331810$P16ep$J/k/ADSC251_$3$3$16$5$P139E<Player>C$E$q$P16d$RgF$P11N35=/ADSC252_$3$3$16$5$P139E<Player>C$E$q$P16d$Rg$P13|5=/ADSC252_$3A$3V$3F$3$1A$P10fI$iV$P16_A=/ADSC253_$3$6$3O$3i$3XF%oA=A2$M$I$11]"
 42: 0x0396 [0x25] WAIT_DIALOG_SELECT()
 43: 0x0397 [0x02] IF !(Work_Zone[0] == 0*) GOTO 0x03A5
 44: 0x039F [0x01] GOTO 0x0013

SUBROUTINE_0521:
 45: 0x0521 [0x41] Work_Zone[2] = Work_Zone[1] (bits 14*-24*)
 46: 0x052A [0x48] [System] [9081*]:
    → "Value check! $0"
 47: 0x052D [0x23] WAIT_FOR_DIALOG_INTERACTION
 48: 0x052E [0x01] GOTO 0x01C3

SUBROUTINE_0532:
 49: 0x0532 [0x24] CREATE_DIALOG(message_id=9143*, default_option=0*, option_flags=0*)
    → "Gjp$3Z$3b$3g5\7)$6226530D(- ADSC311_($o}&L<Player>K%$217"= ADSC311_($o}&L<Player>K%$14s/= ADSC312_$3C$3$3O$3$3b$3h$o}&= ADSC313_bqj$P15%"L<Player>K%$14s/= ADSC314_bqj$P15%"L$P10G$P14}$P115A= ADSC315_bqj$P15%"$8$P14s5= ADSC321_$3A$3V$3F$3$2L($P14Y]%p5$P11` ADSC322_$3A$3V$3F$3$2L%bp$P157"= ADSC323_$3e$3B$3A$3i$DQ ADSC331_$P108%l$22$23$3e$3I$3h[$3 [/ADSC332_$P108%l$22$23$3A$3V$3F$3$7ADSC332_$P108%l$22$23$3r$3o$3b$3O/ADSC333_$P108%l$22$23$22$22$R$P11n/ADSC334_$P108%l$22$23$P16:$P14-)/ADSC334_$P108%l$22$23%p]"
 50: 0x0539 [0x25] WAIT_DIALOG_SELECT()
 51: 0x053A [0x02] IF !(Work_Zone[0] == 0*) GOTO 0x0548
 52: 0x0542 [0x01] GOTO 0x0013

SUBROUTINE_0688:
 53: 0x0688 [0x41] Work_Zone[2] = Work_Zone[1] (bits 14*-24*)
 54: 0x0691 [0x48] [System] [9081*]:
    → "Value check! $0"
 55: 0x0694 [0x23] WAIT_FOR_DIALOG_INTERACTION
 56: 0x0695 [0x01] GOTO 0x01C3

SUBROUTINE_0699:
 57: 0x0699 [0x24] CREATE_DIALOG(message_id=9144*, default_option=0*, option_flags=0*)
    → "Gjp$3Z$3b$3g5\7)$6226530D(- ADSC341_=\IM$P11'$P142+p ADSC342_$P11'$P142+$23$3Q[$3 p$P111$6 ADSC342_$P11'$P142+$7541833$P16k ADSC342_$P11'$P142+$2035529%%7ADSC342_$P11'$P142+$23$3q$3$3g$P157"= ADSC342_$P11'$P142+$23$3p$3C$3I$3j$3A$3R$3$3g ADSC343_$P10}$17$Y$23$3I[$3_[$3T$3C$3$7ADSC351_$3$3C$3h$23$3A$3V$3F$3$2L%_ [$7ADSC352_$9$295=$3C$3$3O$3$3b$3h/ADSC353_$3A$3V$3F$3$17{$u$P11`$P11g\ji/ADSC361_$n$P15q${$W$23$3p$3C$3I$3j$3A/ADSC361_$n$P15q${$W$23$3X$3J$3E$3g/ADSC362_$3J$3~[$3 [$R%[$724556$P10|/ADSC362_$3J$3~[$3 [$R%[$23 [`U$n$P15q$P13>=/ADSC363_$3C$3$3O$3$3b$3h=?p$P12G&I/ADSC364_ [V$P12fL%L<Player>f$23$3o$3g$3 [$P11O/ADSC364_ [V$P12fL%L<Player>f$23$3o$3g$3 [$31%%25=/ADSC364_ [V$P12fL%L<Player>f$23$3C$3$3O$3$3b$3h$.$P14s/ADSC365_$P"pDT%4]=A3$M$I$11]"
 58: 0x06A0 [0x25] WAIT_DIALOG_SELECT()
 59: 0x06A1 [0x02] IF !(Work_Zone[0] == 0*) GOTO 0x06AF
 60: 0x06A9 [0x01] GOTO 0x0013

SUBROUTINE_0853:
 61: 0x0853 [0x41] Work_Zone[2] = Work_Zone[1] (bits 14*-24*)
 62: 0x085C [0x48] [System] [9081*]:
    → "Value check! $0"
 63: 0x085F [0x23] WAIT_FOR_DIALOG_INTERACTION
 64: 0x0860 [0x01] GOTO 0x01C3

SUBROUTINE_0864:
 65: 0x0864 [0x24] CREATE_DIALOG(message_id=9145*, default_option=0*, option_flags=0*)
    → "Gjp$3Z$3b$3g5\7)$6226530D(- ADSC411_%^$P14@$3M$3 [$3hE$P16b$P11h$P14-$P106/ADSC412_$,%$27i%^$P14@$3M$3 [$3h/ADSC413_$`ID$4719208"$P15i/ADSC413_$`ID$23$P16b$P11h%p/ADSC414_$3$3 [$3$3B$3A$3$2*$P15s$]/ADSC416_$J$P11q$3M$3 [$3hE$P15q$V/ADSC421_$3A$3V$3F$3$2L$R$P13ohL(%U"/ADSC422_uL%4I%oA=/ADSC423_$P10}$17$YE$P122W$P15(5=/ADSC424_uL%4)g$DQ%bp$P157"=/ADSC431_ [`UI$P131)jD/ADSC432_$P12n%:L$2$P15($23$3o$3g$3 [$P11O/ADSC432_$P12n%:L$2$P15($23$3o$3g$3 [$31%%25=/ADSC432_$P12n%:L$2$P15($23$3o$3g$3 [c/ADSC433_$3n$6750761%X$n$P15q/ADSC434_%Xp$P13n5D$28$8/ADSC435_$3$6$3O$3i$3X)g$P10Z,$P16X$n$P15q/ADSC436_$J$P11q$3M$3 [$3hE$3q$3$3g/ADSC436_$3$3t$3@[$3$3A$P14-)5=/ADSC436_$3$3t$3@[$3$3A<Player>j$P12Jh$P15`"=/ADSC436_$P10"$E$wE$3$3 [$3$3B$3A$3$22%$16S/ADSC437_$3A$3h$3D$3$3$15iE$P15q$16]"
 66: 0x086B [0x25] WAIT_DIALOG_SELECT()
 67: 0x086C [0x02] IF !(Work_Zone[0] == 0*) GOTO 0x087A
 68: 0x0874 [0x01] GOTO 0x0013

SUBROUTINE_0A32:
 69: 0x0A32 [0x41] Work_Zone[2] = Work_Zone[1] (bits 14*-24*)
 70: 0x0A3B [0x48] [System] [9081*]:
    → "Value check! $0"
 71: 0x0A3E [0x23] WAIT_FOR_DIALOG_INTERACTION
 72: 0x0A3F [0x01] GOTO 0x01C3

SUBROUTINE_0A43:
 73: 0x0A43 [0x24] CREATE_DIALOG(message_id=9146*, default_option=0*, option_flags=0*)
    → "Gjp$3Z$3b$3g5\7)$6226530D(- ADSC441_$3$3 [$3$3B$3A$3$14 $P11L$P14-)/ADSC442_$i$P16eE$3t$3~$3$2I%oA=/ADSC443_$3t$3~$3$2)g>$P13`$P157"=/ADSC444_$5%H$P122$8p$P10?/$9A=/ADSC445_$5%H3$3J$10$P122$85=/ADSC446_%U$30%o [cp$J-1FIHA=/ADSC451_$3o$3$3$3A$P13o$j/ADSC452_$i$P16e$P11OE$3C$3$3O$3$3b$3hI%oA=/ADSC453_$P11O%qL$P15q$Vp$P15T5=/ADSC453_$P10}$17$YE%bp$P157"=/ADSC453b_$3A$3V$3F$3$123 [CC/=/ADSC461_$3o$3$3$3A$P10l`%B5=/ADSC462_$3o$3$3$3A$3o$3g$3 [$31%%25=/ADSC463_$3o$3$3$3A$P13&0=/ADSC463_$P15q$V$P15[%/5=/ADSC463_$iE$P15q$Vp`gA=]"
 74: 0x0A4A [0x25] WAIT_DIALOG_SELECT()
 75: 0x0A4B [0x02] IF !(Work_Zone[0] == 0*) GOTO 0x0A59
 76: 0x0A53 [0x01] GOTO 0x0013

SUBROUTINE_0B99:
 77: 0x0B99 [0x41] Work_Zone[2] = Work_Zone[1] (bits 14*-24*)
 78: 0x0BA2 [0x48] [System] [9081*]:
    → "Value check! $0"
 79: 0x0BA5 [0x23] WAIT_FOR_DIALOG_INTERACTION
 80: 0x0BA6 [0x01] GOTO 0x01C3
```

#### Data or dead code:

```
# Dead code (unreachable instructions):
     0x0035 [0x01] GOTO 0x01C3
     0x0058 [0x01] GOTO 0x00BD
     0x0066 [0x01] GOTO 0x00BD
     0x0074 [0x01] GOTO 0x00BD
     0x0082 [0x01] GOTO 0x00BD
     0x0090 [0x01] GOTO 0x00BD
     0x009E [0x01] GOTO 0x00BD
     0x00AC [0x01] GOTO 0x00BD
     0x00BA [0x01] GOTO 0x00BD
# Dead code (unreachable instructions):
     0x00E8 [0x01] GOTO 0x0177
# Dead code (unreachable instructions):
     0x017E [0x01] GOTO 0x01C3
     0x019F [0x01] GOTO 0x01C3
     0x01C0 [0x01] GOTO 0x01C3
# Dead code (unreachable instructions):
     0x01D8 [0x01] GOTO 0x02B7
# Dead code (unreachable instructions):
     0x02C7 [0x00] END_REQSTACK()
# Dead code (unreachable instructions):
     0x02DB [0x01] GOTO 0x037E
# Dead code (unreachable instructions):
     0x038E [0x00] END_REQSTACK()
# Dead code (unreachable instructions):
     0x03A2 [0x01] GOTO 0x0521
# Dead code (unreachable instructions):
     0x0531 [0x00] END_REQSTACK()
# Dead code (unreachable instructions):
     0x0545 [0x01] GOTO 0x0688
# Dead code (unreachable instructions):
     0x0698 [0x00] END_REQSTACK()
# Dead code (unreachable instructions):
     0x06AC [0x01] GOTO 0x0853
# Dead code (unreachable instructions):
     0x0863 [0x00] END_REQSTACK()
# Dead code (unreachable instructions):
     0x0877 [0x01] GOTO 0x0A32
# Dead code (unreachable instructions):
     0x0A42 [0x00] END_REQSTACK()
# Dead code (unreachable instructions):
     0x0A56 [0x01] GOTO 0x0B99
# Dead code (unreachable instructions):
     0x0BA9 [0x00] END_REQSTACK()
```
