# 17637381 - Key Item

## Common Data

| Field            | Value             |
|------------------|-------------------|
| Zone             | GM_Home (ID: 210) |
| Block Size       | 68 bytes          |
| Total Events     | 2                 |
| References Count | 3                 |

## List of Events

| Event ID              | Entrypoint   |   Size |   Instructions |
|-----------------------|--------------|--------|----------------|
| [65535](#event-65535) | 0x0000       |      1 |              1 |
| [20](#event-20)       | 0x0001       |     31 |              8 |

## DAT References (imed_data)

|   Index | Hex Value   |   Dec Value |
|---------|-------------|-------------|
|       0 | 0x1BA0      |        7072 |
|       1 | 0x0000      |           0 |
|       2 | 0x40000000  |  1073741824 |

## String References

- **7072**: What key item do you need, kupo? [Screw it./Airship pass!/Chocobo License!/All maps (now with EX5)!/All-You-Can-Ride Pass ON!/All-You-Can-Ride Pass OFF!/Runic Key (Nyzul 100th floor clear)]

## Events

### Event 65535

#### Metadata

| Field        | Value   |
|--------------|---------|
| Entrypoint   | 0x0000  |
| Data Size    | 1 bytes |
| Instructions | 1       |

```
      00 01 02 03 04 05 06 07  08 09 0A 0B 0C 0D 0E 0F
      -- -- -- -- -- -- -- --  -- -- -- -- -- -- -- --
0000: 00                                                .               
```

#### Opcodes

```
  0: 0x0000 [0x00] END_REQSTACK()
```

### Event 20

#### Metadata

| Field        | Value    |
|--------------|----------|
| Entrypoint   | 0x0001   |
| Data Size    | 31 bytes |
| Instructions | 8        |

```
      00 01 02 03 04 05 06 07  08 09 0A 0B 0C 0D 0E 0F
      -- -- -- -- -- -- -- --  -- -- -- -- -- -- -- --
0000:    24 00 80 01 80 01 80  25 02 00 10 01 80 00 19   $......%.......
0010: 00 03 01 10 02 80 01 1E  00 03 01 10 00 10 21 00  ..............!.
```

#### Opcodes

```
  0: 0x0001 [0x24] CREATE_DIALOG(message_id=7072*, default_option=0*, option_flags=0*)
    → "What key item do you need, kupo? [Screw it./Airship pass!/Chocobo License!/All maps (now with EX5)!/All-You-Can-Ride Pass ON!/All-You-Can-Ride Pass OFF!/Runic Key (Nyzul 100th floor clear)]"
  1: 0x0008 [0x25] WAIT_DIALOG_SELECT()
  2: 0x0009 [0x02] IF !(Work_Zone[0] == 0*) GOTO 0x0019
  3: 0x0011 [0x03] Work_Zone[1] = 1073741824*
  4: 0x0016 [0x01] GOTO 0x001E
  5: 0x0019 [0x03] Work_Zone[1] = Work_Zone[0]

SUBROUTINE_001E:
  6: 0x001E [0x21] END_EVENT
  7: 0x001F [0x00] END_REQSTACK()
```
