# 17637599 - menace2_aug

## Common Data

| Field            | Value             |
|------------------|-------------------|
| Zone             | GM_Home (ID: 210) |
| Block Size       | 372 bytes         |
| Total Events     | 4                 |
| References Count | 20                |

## List of Events

| Event ID              | Entrypoint   |   Size |   Instructions |
|-----------------------|--------------|--------|----------------|
| [65535](#event-65535) | 0x0000       |      1 |              1 |
| [197](#event-197)     | 0x0001       |    143 |             31 |
| [198](#event-198)     | 0x0090       |    100 |             22 |
| [199](#event-199)     | 0x00F4       |     16 |              6 |

## DAT References (imed_data)

|   Index | Hex Value   |   Dec Value |
|---------|-------------|-------------|
|       0 | 0x241D      |        9245 |
|       1 | 0x0000      |           0 |
|       2 | 0x241A      |        9242 |
|       3 | 0x0001      |           1 |
|       4 | 0x0005      |           5 |
|       5 | 0x001E      |          30 |
|       6 | 0x001F      |          31 |
|       7 | 0x2416      |        9238 |
|       8 | 0x0003      |           3 |
|       9 | 0x2417      |        9239 |
|      10 | 0x2418      |        9240 |
|      11 | 0x0002      |           2 |
|      12 | 0x000F      |          15 |
|      13 | 0x0010      |          16 |
|      14 | 0x0011      |          17 |
|      15 | 0x0012      |          18 |
|      16 | 0x0016      |          22 |
|      17 | 0x2419      |        9241 |
|      18 | 0x241B      |        9243 |
|      19 | 0x0017      |          23 |

## String References

- **9238**: No
- **9239**: Type($0-$1)
- **9240**: Lv
- **9241**: LvCap($0-$1)
- **9242**: Exp
- **9243**: Optn
- **9245**: What do you want [Add EXP to the equipment./Receive equipment]

## Events

### Event 65535

#### Metadata

| Field        | Value   |
|--------------|---------|
| Entrypoint   | 0x0000  |
| Data Size    | 1 bytes |
| Instructions | 1       |

```
      00 01 02 03 04 05 06 07  08 09 0A 0B 0C 0D 0E 0F
      -- -- -- -- -- -- -- --  -- -- -- -- -- -- -- --
0000: 00                                                .               
```

#### Opcodes

```
  0: 0x0000 [0x00] END_REQSTACK()
```

### Event 197

#### Metadata

| Field        | Value     |
|--------------|-----------|
| Entrypoint   | 0x0001    |
| Data Size    | 143 bytes |
| Instructions | 31        |

```
      00 01 02 03 04 05 06 07  08 09 0A 0B 0C 0D 0E 0F
      -- -- -- -- -- -- -- --  -- -- -- -- -- -- -- --
0000:    24 00 80 01 80 01 80  25 02 00 10 01 80 00 2B   $......%......+
0010: 00 1D 02 80 23 71 12 03  80 04 80 71 13 01 10 40  ....#q.....q...@
0020: 05 80 06 80 01 10 03 80  01 8E 00 02 00 10 03 80  ................
0030: 00 8E 00 1D 07 80 23 71  12 03 80 04 80 71 13 00  ......#q.....q..
0040: 00 03 02 10 01 80 03 03  10 08 80 1D 09 80 23 71  ..............#q
0050: 12 03 80 03 80 71 13 01  00 1D 0A 80 23 71 12 03  .....q......#q..
0060: 80 0B 80 71 13 02 00 40  01 80 0C 80 01 10 00 00  ...q...@........
0070: 40 0D 80 0E 80 01 10 01  00 40 0F 80 10 80 01 10  @........@......
0080: 02 00 40 05 80 06 80 01  10 01 80 01 8E 00 21 00  ..@...........!.
```

#### Opcodes

```
  0: 0x0001 [0x24] CREATE_DIALOG(message_id=9245*, default_option=0*, option_flags=0*)
    → "What do you want [Add EXP to the equipment./Receive equipment]"
  1: 0x0008 [0x25] WAIT_DIALOG_SELECT()
  2: 0x0009 [0x02] IF !(Work_Zone[0] == 0*) GOTO 0x002B
  3: 0x0011 [0x1D] PRINT_EVENT_MESSAGE(message_id=9242*)
    → "Exp"
  4: 0x0014 [0x23] WAIT_FOR_DIALOG_INTERACTION
  5: 0x0015 [0x71] USER_INPUT_HANDLER: Open numerical input with params (work=[1*, 5*])
  6: 0x001B [0x71] USER_INPUT_HANDLER: Process numerical input B (work=Work_Zone[1])
  7: 0x001F [0x40] SET_BIT_WORK_RANGE(start_bit=30*, end_bit=31*, target=Work_Zone[1], source=1*)
  8: 0x0028 [0x01] GOTO 0x008E
  9: 0x002B [0x02] IF !(Work_Zone[0] == 1*) GOTO 0x008E
 10: 0x0033 [0x1D] PRINT_EVENT_MESSAGE(message_id=9238*)
    → "No"
 11: 0x0036 [0x23] WAIT_FOR_DIALOG_INTERACTION
 12: 0x0037 [0x71] USER_INPUT_HANDLER: Open numerical input with params (work=[1*, 5*])
 13: 0x003D [0x71] USER_INPUT_HANDLER: Process numerical input B (work=ExtData[1]->WorkLocal[0])
 14: 0x0041 [0x03] Work_Zone[2] = 0*
 15: 0x0046 [0x03] Work_Zone[3] = 3*
 16: 0x004B [0x1D] PRINT_EVENT_MESSAGE(message_id=9239*)
    → "Type($0-$1)"
 17: 0x004E [0x23] WAIT_FOR_DIALOG_INTERACTION
 18: 0x004F [0x71] USER_INPUT_HANDLER: Open numerical input with params (work=[1*, 1*])
 19: 0x0055 [0x71] USER_INPUT_HANDLER: Process numerical input B (work=ExtData[1]->WorkLocal[1])
 20: 0x0059 [0x1D] PRINT_EVENT_MESSAGE(message_id=9240*)
    → "Lv"
 21: 0x005C [0x23] WAIT_FOR_DIALOG_INTERACTION
 22: 0x005D [0x71] USER_INPUT_HANDLER: Open numerical input with params (work=[1*, 2*])
 23: 0x0063 [0x71] USER_INPUT_HANDLER: Process numerical input B (work=ExtData[1]->WorkLocal[2])
 24: 0x0067 [0x40] SET_BIT_WORK_RANGE(start_bit=0*, end_bit=15*, target=Work_Zone[1], source=ExtData[1]->WorkLocal[0])
 25: 0x0070 [0x40] SET_BIT_WORK_RANGE(start_bit=16*, end_bit=17*, target=Work_Zone[1], source=ExtData[1]->WorkLocal[1])
 26: 0x0079 [0x40] SET_BIT_WORK_RANGE(start_bit=18*, end_bit=22*, target=Work_Zone[1], source=ExtData[1]->WorkLocal[2])
 27: 0x0082 [0x40] SET_BIT_WORK_RANGE(start_bit=30*, end_bit=31*, target=Work_Zone[1], source=0*)
 28: 0x008B [0x01] GOTO 0x008E

SUBROUTINE_008E:
 29: 0x008E [0x21] END_EVENT
 30: 0x008F [0x00] END_REQSTACK()
```

### Event 198

#### Metadata

| Field        | Value     |
|--------------|-----------|
| Entrypoint   | 0x0090    |
| Data Size    | 100 bytes |
| Instructions | 22        |

```
      00 01 02 03 04 05 06 07  08 09 0A 0B 0C 0D 0E 0F
      -- -- -- -- -- -- -- --  -- -- -- -- -- -- -- --
0090: 03 02 10 01 80 03 03 10  08 80 1D 09 80 23 71 12  .............#q.
00A0: 03 80 03 80 71 13 01 00  03 02 10 01 80 03 03 10  ....q...........
00B0: 08 80 1D 11 80 23 71 12  03 80 03 80 71 13 02 00  .....#q.....q...
00C0: 1D 12 80 23 71 12 03 80  03 80 71 13 04 00 40 01  ...#q.....q...@.
00D0: 80 0C 80 01 10 01 80 40  0D 80 0E 80 01 10 01 00  .......@........
00E0: 40 0F 80 10 80 01 10 02  00 40 13 80 13 80 01 10  @........@......
00F0: 04 00 21 00                                       ..!.            
```

#### Opcodes

```
  0: 0x0090 [0x03] Work_Zone[2] = 0*
  1: 0x0095 [0x03] Work_Zone[3] = 3*
  2: 0x009A [0x1D] PRINT_EVENT_MESSAGE(message_id=9239*)
    → "Type($0-$1)"
  3: 0x009D [0x23] WAIT_FOR_DIALOG_INTERACTION
  4: 0x009E [0x71] USER_INPUT_HANDLER: Open numerical input with params (work=[1*, 1*])
  5: 0x00A4 [0x71] USER_INPUT_HANDLER: Process numerical input B (work=ExtData[1]->WorkLocal[1])
  6: 0x00A8 [0x03] Work_Zone[2] = 0*
  7: 0x00AD [0x03] Work_Zone[3] = 3*
  8: 0x00B2 [0x1D] PRINT_EVENT_MESSAGE(message_id=9241*)
    → "LvCap($0-$1)"
  9: 0x00B5 [0x23] WAIT_FOR_DIALOG_INTERACTION
 10: 0x00B6 [0x71] USER_INPUT_HANDLER: Open numerical input with params (work=[1*, 1*])
 11: 0x00BC [0x71] USER_INPUT_HANDLER: Process numerical input B (work=ExtData[1]->WorkLocal[2])
 12: 0x00C0 [0x1D] PRINT_EVENT_MESSAGE(message_id=9243*)
    → "Optn"
 13: 0x00C3 [0x23] WAIT_FOR_DIALOG_INTERACTION
 14: 0x00C4 [0x71] USER_INPUT_HANDLER: Open numerical input with params (work=[1*, 1*])
 15: 0x00CA [0x71] USER_INPUT_HANDLER: Process numerical input B (work=ExtData[1]->WorkLocal[4])
 16: 0x00CE [0x40] SET_BIT_WORK_RANGE(start_bit=0*, end_bit=15*, target=Work_Zone[1], source=0*)
 17: 0x00D7 [0x40] SET_BIT_WORK_RANGE(start_bit=16*, end_bit=17*, target=Work_Zone[1], source=ExtData[1]->WorkLocal[1])
 18: 0x00E0 [0x40] SET_BIT_WORK_RANGE(start_bit=18*, end_bit=22*, target=Work_Zone[1], source=ExtData[1]->WorkLocal[2])
 19: 0x00E9 [0x40] SET_BIT_WORK_RANGE(start_bit=23*, end_bit=23*, target=Work_Zone[1], source=ExtData[1]->WorkLocal[4])
 20: 0x00F2 [0x21] END_EVENT
 21: 0x00F3 [0x00] END_REQSTACK()
```

### Event 199

#### Metadata

| Field        | Value    |
|--------------|----------|
| Entrypoint   | 0x00F4   |
| Data Size    | 16 bytes |
| Instructions | 6        |

```
      00 01 02 03 04 05 06 07  08 09 0A 0B 0C 0D 0E 0F
      -- -- -- -- -- -- -- --  -- -- -- -- -- -- -- --
00F0:             1D 02 80 23  71 12 03 80 04 80 71 13      ...#q.....q.
0100: 01 10 21 00                                       ..!.            
```

#### Opcodes

```
  0: 0x00F4 [0x1D] PRINT_EVENT_MESSAGE(message_id=9242*)
    → "Exp"
  1: 0x00F7 [0x23] WAIT_FOR_DIALOG_INTERACTION
  2: 0x00F8 [0x71] USER_INPUT_HANDLER: Open numerical input with params (work=[1*, 5*])
  3: 0x00FE [0x71] USER_INPUT_HANDLER: Process numerical input B (work=Work_Zone[1])
  4: 0x0102 [0x21] END_EVENT
  5: 0x0103 [0x00] END_REQSTACK()
```
