# 17801298 - Vuih Stecoppah

## Common Data

| Field            | Value            |
|------------------|------------------|
| Zone             | Kazham (ID: 250) |
| Block Size       | 948 bytes        |
| Total Events     | 56               |
| References Count | 49               |

## List of Events

| Event ID                   | Entrypoint   |   Size |   Instructions |
|----------------------------|--------------|--------|----------------|
| [65535](#event-65535)      | 0x0000       |      1 |              1 |
| [65535.1](#event-655351)   | 0x0001       |     16 |              2 |
| [65535.2](#event-655352)   | 0x0011       |      9 |              3 |
| [65535.3](#event-655353)   | 0x001A       |     22 |              3 |
| [65535.4](#event-655354)   | 0x0030       |     14 |              2 |
| [65535.5](#event-655355)   | 0x003E       |     16 |              2 |
| [65535.6](#event-655356)   | 0x004E       |     20 |              3 |
| [65535.7](#event-655357)   | 0x0062       |     16 |              2 |
| [65535.8](#event-655358)   | 0x0072       |     14 |              2 |
| [65535.9](#event-655359)   | 0x0080       |     16 |              2 |
| [65535.10](#event-6553510) | 0x0090       |     14 |              2 |
| [65535.11](#event-6553511) | 0x009E       |     16 |              2 |
| [65535.12](#event-6553512) | 0x00AE       |     14 |              2 |
| [65535.13](#event-6553513) | 0x00BC       |     16 |              2 |
| [65535.14](#event-6553514) | 0x00CC       |     14 |              2 |
| [65535.15](#event-6553515) | 0x00DA       |     16 |              2 |
| [65535.16](#event-6553516) | 0x00EA       |     14 |              2 |
| [65535.17](#event-6553517) | 0x00F8       |      9 |              3 |
| [217](#event-217)          | 0x0101       |      1 |              1 |
| [65535.18](#event-6553518) | 0x0102       |     10 |              2 |
| [65535.19](#event-6553519) | 0x010C       |     14 |              4 |
| [65535.20](#event-6553520) | 0x011A       |     14 |              4 |
| [65535.21](#event-6553521) | 0x0128       |     14 |              4 |
| [65535.22](#event-6553522) | 0x0136       |      5 |              3 |
| [65535.23](#event-6553523) | 0x013B       |      5 |              3 |
| [65535.24](#event-6553524) | 0x0140       |      5 |              3 |
| [65535.25](#event-6553525) | 0x0145       |      5 |              3 |
| [65535.26](#event-6553526) | 0x014A       |      5 |              3 |
| [65535.27](#event-6553527) | 0x014F       |      5 |              3 |
| [65535.28](#event-6553528) | 0x0154       |     17 |              5 |
| [65535.29](#event-6553529) | 0x0165       |      5 |              3 |
| [65535.30](#event-6553530) | 0x016A       |      5 |              3 |
| [239](#event-239)          | 0x016F       |      1 |              1 |
| [65535.31](#event-6553531) | 0x0170       |      1 |              1 |
| [65535.32](#event-6553532) | 0x0171       |      5 |              3 |
| [65535.33](#event-6553533) | 0x0176       |      5 |              3 |
| [65535.34](#event-6553534) | 0x017B       |      5 |              3 |
| [65535.35](#event-6553535) | 0x0180       |      5 |              3 |
| [65535.36](#event-6553536) | 0x0185       |      5 |              3 |
| [65535.37](#event-6553537) | 0x018A       |      5 |              3 |
| [65535.38](#event-6553538) | 0x018F       |      5 |              3 |
| [65535.39](#event-6553539) | 0x0194       |      5 |              3 |
| [65535.40](#event-6553540) | 0x0199       |      5 |              3 |
| [65535.41](#event-6553541) | 0x019E       |      5 |              3 |
| [241](#event-241)          | 0x01A3       |      1 |              1 |
| [65535.42](#event-6553542) | 0x01A4       |     10 |              2 |
| [65535.43](#event-6553543) | 0x01AE       |     14 |              4 |
| [65535.44](#event-6553544) | 0x01BC       |     17 |              5 |
| [65535.45](#event-6553545) | 0x01CD       |     13 |              3 |
| [65535.46](#event-6553546) | 0x01DA       |      5 |              3 |
| [65535.47](#event-6553547) | 0x01DF       |      5 |              3 |
| [65535.48](#event-6553548) | 0x01E4       |      5 |              3 |
| [65535.49](#event-6553549) | 0x01E9       |      5 |              3 |
| [65535.50](#event-6553550) | 0x01EE       |      5 |              3 |
| [65535.51](#event-6553551) | 0x01F3       |      5 |              3 |
| [65535.52](#event-6553552) | 0x01F8       |      5 |              3 |

## DAT References (imed_data)

|   Index | Hex Value   |   Dec Value |
|---------|-------------|-------------|
|       0 | 0x0032      |          50 |
|       1 | 0x001E      |          30 |
|       2 | 0x0034      |          52 |
|       3 | 0xFFFF9049  |  4294938697 |
|       4 | 0x047C      |        1148 |
|       5 | 0xFFFFF63D  |  4294964797 |
|       6 | 0x0A3F      |        2623 |
|       7 | 0x000D      |          13 |
|       8 | 0xFFFF91F0  |  4294939120 |
|       9 | 0xFFFFCD33  |  4294954291 |
|      10 | 0xFFFF902C  |  4294938668 |
|      11 | 0xFFFFDE76  |  4294958710 |
|      12 | 0xFFFF9050  |  4294938704 |
|      13 | 0xFFFFEFCC  |  4294963148 |
|      14 | 0x28AC      |       10412 |
|      15 | 0x28AD      |       10413 |
|      16 | 0x28AE      |       10414 |
|      17 | 0x28AF      |       10415 |
|      18 | 0x28B0      |       10416 |
|      19 | 0x28B1      |       10417 |
|      20 | 0x0009      |           9 |
|      21 | 0x28B3      |       10419 |
|      22 | 0x28B5      |       10421 |
|      23 | 0x28B6      |       10422 |
|      24 | 0x28BC      |       10428 |
|      25 | 0x28BF      |       10431 |
|      26 | 0x28C0      |       10432 |
|      27 | 0x28C1      |       10433 |
|      28 | 0x28C2      |       10434 |
|      29 | 0x28C3      |       10435 |
|      30 | 0x28C4      |       10436 |
|      31 | 0x28C5      |       10437 |
|      32 | 0x28C6      |       10438 |
|      33 | 0x28C7      |       10439 |
|      34 | 0xAC46      |       44102 |
|      35 | 0xFFFD5405  |  4294792197 |
|      36 | 0xFFFFD509  |  4294956297 |
|      37 | 0x064C      |        1612 |
|      38 | 0x9E27      |       40487 |
|      39 | 0xFFFD4260  |  4294787680 |
|      40 | 0x0104      |         260 |
|      41 | 0x0008      |           8 |
|      42 | 0x28CB      |       10443 |
|      43 | 0x28CD      |       10445 |
|      44 | 0x28CF      |       10447 |
|      45 | 0x28D1      |       10449 |
|      46 | 0x28D3      |       10451 |
|      47 | 0x28D4      |       10452 |
|      48 | 0x28D5      |       10453 |

## String References

- **10412**: You don't have to be afrrraid! That Opo-opo likes you!
- **10413**: He's saying that he likes your smell. He says you smell like the jungle!
- **10414**: He's also saying that if you give all the Opo-opos in the village a present, they will make you their king!
- **10415**: He's saying that he wants an "Opoppo." That means he wants $1!
- **10416**: But you have to be carrreful. The Opo-opos have a very strrrict system of hierarchy. If an Opo-opo lower than themselves gets a present beforrre they do, they'll go all "Opi-opi!"
- **10417**: So, if you don't give them their presents in the rrright order, you'll have to start all overrr again.
- **10419**: Sorry! I'll be rrright there!
- **10421**: Ha-ha! Sorry you don't like it! Bye-bye!
- **10422**: Oh, I didn't tell you my name, did I?
- **10428**: But even if you did know the rrright order, you've got to know what the Opo-opos are saying if you want to know what they want.
- **10431**: Listen carrrefully! "Opoh opo!" means $3.
- **10432**: Now listen! "Opopoppo!" means $3.
- **10433**: Listen up! "Oh! Ohpo!" means $3.
- **10434**: Listen closely! "Opopoh-o" means $3.
- **10435**: Listen! "Popo-o Popo-o" means $3.
- **10436**: Listen carrrefully! "Poppo-opo!" means $3.
- **10437**: Now listen! "Po-oppo Opo-opo!" means $3.
- **10438**: Listen up! "Opo-opo-opo-opo-o popopo-opopo!" means $3.
- **10439**: Listen closely! "Ohpo-opo Poh-opo-o!" means $3.
- **10443**: Wow! The Opo-opos are saying that they've made you their king!
- **10445**: They're saying they are going to give their king their most prrrized possession.
- **10447**: Opoh!? Opo-opoh poppopopopo! Opoppo-opo!
- **10449**: Opi-opi! Opo-opo opi-opi!
- **10451**: Oh, I'm sorry! The Opo-opos just asked you to do something that would have been impossible.
- **10452**: Here, I'll give you these instead.
- **10453**: Long live the king! Opo-opo!

## Events

### Event 65535

#### Metadata

| Field        | Value   |
|--------------|---------|
| Entrypoint   | 0x0000  |
| Data Size    | 1 bytes |
| Instructions | 1       |

```
      00 01 02 03 04 05 06 07  08 09 0A 0B 0C 0D 0E 0F
      -- -- -- -- -- -- -- --  -- -- -- -- -- -- -- --
0000: 00                                                .               
```

#### Opcodes

```
  0: 0x0000 [0x00] END_REQSTACK()
```

### Event 65535.1

#### Metadata

| Field        | Value    |
|--------------|----------|
| Entrypoint   | 0x0001   |
| Data Size    | 16 bytes |
| Instructions | 2        |

```
      00 01 02 03 04 05 06 07  08 09 0A 0B 0C 0D 0E 0F
      -- -- -- -- -- -- -- --  -- -- -- -- -- -- -- --
0000:    66 00 80 F8 FF FF 7F  F8 FF FF 7F 74 6C 6B 30   f..........tlk0
0010: 00                                                .               
```

#### Opcodes

```
  0: 0x0001 [0x66] LOAD_EXT_SCHEDULER_MAIN: Load scheduler "tlk0" with entities [EventEntity, EventEntity], work=50*
  1: 0x0010 [0x00] END_REQSTACK()
```

### Event 65535.2

#### Metadata

| Field        | Value   |
|--------------|---------|
| Entrypoint   | 0x0011  |
| Data Size    | 9 bytes |
| Instructions | 3       |

```
      00 01 02 03 04 05 06 07  08 09 0A 0B 0C 0D 0E 0F
      -- -- -- -- -- -- -- --  -- -- -- -- -- -- -- --
0010:    5E 69 64 6C 30 1C 01  80 00                     ^idl0....      
```

#### Opcodes

```
  0: 0x0011 [0x5E] EventEntity goes idle (kills current action) (animation: "idl0")
  1: 0x0016 [0x1C] WAIT(30* ticks)
  2: 0x0019 [0x00] END_REQSTACK()
```

### Event 65535.3

#### Metadata

| Field        | Value    |
|--------------|----------|
| Entrypoint   | 0x001A   |
| Data Size    | 22 bytes |
| Instructions | 3        |

```
      00 01 02 03 04 05 06 07  08 09 0A 0B 0C 0D 0E 0F
      -- -- -- -- -- -- -- --  -- -- -- -- -- -- -- --
0010:                                81 00 F8 FF FF 7F            ......
0020: 66 00 80 F8 FF FF 7F F8  FF FF 7F 74 68 6B 31 00  f..........thk1.
```

#### Opcodes

```
  0: 0x001A [0x81] SET_ENTITY_BLINKING(blink_flag=0x00, entity=EventEntity)
  1: 0x0020 [0x66] LOAD_EXT_SCHEDULER_MAIN: Load scheduler "thk1" with entities [EventEntity, EventEntity], work=50*
  2: 0x002F [0x00] END_REQSTACK()
```

### Event 65535.4

#### Metadata

| Field        | Value    |
|--------------|----------|
| Entrypoint   | 0x0030   |
| Data Size    | 14 bytes |
| Instructions | 2        |

```
      00 01 02 03 04 05 06 07  08 09 0A 0B 0C 0D 0E 0F
      -- -- -- -- -- -- -- --  -- -- -- -- -- -- -- --
0030: 53 F8 FF FF 7F F8 FF FF  7F 74 68 6B 31 00        S........thk1.  
```

#### Opcodes

```
  0: 0x0030 [0x53] WAIT_SCHEDULER_TASK: Wait for scheduler "thk1" with entities [EventEntity, EventEntity]
  1: 0x003D [0x00] END_REQSTACK()
```

### Event 65535.5

#### Metadata

| Field        | Value    |
|--------------|----------|
| Entrypoint   | 0x003E   |
| Data Size    | 16 bytes |
| Instructions | 2        |

```
      00 01 02 03 04 05 06 07  08 09 0A 0B 0C 0D 0E 0F
      -- -- -- -- -- -- -- --  -- -- -- -- -- -- -- --
0030:                                            66 00                f.
0040: 80 F8 FF FF 7F F8 FF FF  7F 74 68 6B 32 00        .........thk2.  
```

#### Opcodes

```
  0: 0x003E [0x66] LOAD_EXT_SCHEDULER_MAIN: Load scheduler "thk2" with entities [EventEntity, EventEntity], work=50*
  1: 0x004D [0x00] END_REQSTACK()
```

### Event 65535.6

#### Metadata

| Field        | Value    |
|--------------|----------|
| Entrypoint   | 0x004E   |
| Data Size    | 20 bytes |
| Instructions | 3        |

```
      00 01 02 03 04 05 06 07  08 09 0A 0B 0C 0D 0E 0F
      -- -- -- -- -- -- -- --  -- -- -- -- -- -- -- --
0040:                                            53 F8                S.
0050: FF FF 7F F8 FF FF 7F 74  68 6B 32 81 01 F8 FF FF  .......thk2.....
0060: 7F 00                                             ..              
```

#### Opcodes

```
  0: 0x004E [0x53] WAIT_SCHEDULER_TASK: Wait for scheduler "thk2" with entities [EventEntity, EventEntity]
  1: 0x005B [0x81] SET_ENTITY_BLINKING(blink_flag=0x01, entity=EventEntity)
  2: 0x0061 [0x00] END_REQSTACK()
```

### Event 65535.7

#### Metadata

| Field        | Value    |
|--------------|----------|
| Entrypoint   | 0x0062   |
| Data Size    | 16 bytes |
| Instructions | 2        |

```
      00 01 02 03 04 05 06 07  08 09 0A 0B 0C 0D 0E 0F
      -- -- -- -- -- -- -- --  -- -- -- -- -- -- -- --
0060:       66 02 80 F8 FF FF  7F F8 FF FF 7F 64 69 73    f..........dis
0070: 30 00                                             0.              
```

#### Opcodes

```
  0: 0x0062 [0x66] LOAD_EXT_SCHEDULER_MAIN: Load scheduler "dis0" with entities [EventEntity, EventEntity], work=52*
  1: 0x0071 [0x00] END_REQSTACK()
```

### Event 65535.8

#### Metadata

| Field        | Value    |
|--------------|----------|
| Entrypoint   | 0x0072   |
| Data Size    | 14 bytes |
| Instructions | 2        |

```
      00 01 02 03 04 05 06 07  08 09 0A 0B 0C 0D 0E 0F
      -- -- -- -- -- -- -- --  -- -- -- -- -- -- -- --
0070:       53 F8 FF FF 7F F8  FF FF 7F 64 69 73 30 00    S........dis0.
```

#### Opcodes

```
  0: 0x0072 [0x53] WAIT_SCHEDULER_TASK: Wait for scheduler "dis0" with entities [EventEntity, EventEntity]
  1: 0x007F [0x00] END_REQSTACK()
```

### Event 65535.9

#### Metadata

| Field        | Value    |
|--------------|----------|
| Entrypoint   | 0x0080   |
| Data Size    | 16 bytes |
| Instructions | 2        |

```
      00 01 02 03 04 05 06 07  08 09 0A 0B 0C 0D 0E 0F
      -- -- -- -- -- -- -- --  -- -- -- -- -- -- -- --
0080: 66 02 80 F8 FF FF 7F F8  FF FF 7F 74 6C 63 30 00  f..........tlc0.
```

#### Opcodes

```
  0: 0x0080 [0x66] LOAD_EXT_SCHEDULER_MAIN: Load scheduler "tlc0" with entities [EventEntity, EventEntity], work=52*
  1: 0x008F [0x00] END_REQSTACK()
```

### Event 65535.10

#### Metadata

| Field        | Value    |
|--------------|----------|
| Entrypoint   | 0x0090   |
| Data Size    | 14 bytes |
| Instructions | 2        |

```
      00 01 02 03 04 05 06 07  08 09 0A 0B 0C 0D 0E 0F
      -- -- -- -- -- -- -- --  -- -- -- -- -- -- -- --
0090: 53 F8 FF FF 7F F8 FF FF  7F 74 6C 63 30 00        S........tlc0.  
```

#### Opcodes

```
  0: 0x0090 [0x53] WAIT_SCHEDULER_TASK: Wait for scheduler "tlc0" with entities [EventEntity, EventEntity]
  1: 0x009D [0x00] END_REQSTACK()
```

### Event 65535.11

#### Metadata

| Field        | Value    |
|--------------|----------|
| Entrypoint   | 0x009E   |
| Data Size    | 16 bytes |
| Instructions | 2        |

```
      00 01 02 03 04 05 06 07  08 09 0A 0B 0C 0D 0E 0F
      -- -- -- -- -- -- -- --  -- -- -- -- -- -- -- --
0090:                                            66 02                f.
00A0: 80 F8 FF FF 7F F8 FF FF  7F 74 6C 63 31 00        .........tlc1.  
```

#### Opcodes

```
  0: 0x009E [0x66] LOAD_EXT_SCHEDULER_MAIN: Load scheduler "tlc1" with entities [EventEntity, EventEntity], work=52*
  1: 0x00AD [0x00] END_REQSTACK()
```

### Event 65535.12

#### Metadata

| Field        | Value    |
|--------------|----------|
| Entrypoint   | 0x00AE   |
| Data Size    | 14 bytes |
| Instructions | 2        |

```
      00 01 02 03 04 05 06 07  08 09 0A 0B 0C 0D 0E 0F
      -- -- -- -- -- -- -- --  -- -- -- -- -- -- -- --
00A0:                                            53 F8                S.
00B0: FF FF 7F F8 FF FF 7F 74  6C 63 31 00              .......tlc1.    
```

#### Opcodes

```
  0: 0x00AE [0x53] WAIT_SCHEDULER_TASK: Wait for scheduler "tlc1" with entities [EventEntity, EventEntity]
  1: 0x00BB [0x00] END_REQSTACK()
```

### Event 65535.13

#### Metadata

| Field        | Value    |
|--------------|----------|
| Entrypoint   | 0x00BC   |
| Data Size    | 16 bytes |
| Instructions | 2        |

```
      00 01 02 03 04 05 06 07  08 09 0A 0B 0C 0D 0E 0F
      -- -- -- -- -- -- -- --  -- -- -- -- -- -- -- --
00B0:                                      66 02 80 F8              f...
00C0: FF FF 7F F8 FF FF 7F 70  6F 69 30 00              .......poi0.    
```

#### Opcodes

```
  0: 0x00BC [0x66] LOAD_EXT_SCHEDULER_MAIN: Load scheduler "poi0" with entities [EventEntity, EventEntity], work=52*
  1: 0x00CB [0x00] END_REQSTACK()
```

### Event 65535.14

#### Metadata

| Field        | Value    |
|--------------|----------|
| Entrypoint   | 0x00CC   |
| Data Size    | 14 bytes |
| Instructions | 2        |

```
      00 01 02 03 04 05 06 07  08 09 0A 0B 0C 0D 0E 0F
      -- -- -- -- -- -- -- --  -- -- -- -- -- -- -- --
00C0:                                      53 F8 FF FF              S...
00D0: 7F F8 FF FF 7F 70 6F 69  30 00                    .....poi0.      
```

#### Opcodes

```
  0: 0x00CC [0x53] WAIT_SCHEDULER_TASK: Wait for scheduler "poi0" with entities [EventEntity, EventEntity]
  1: 0x00D9 [0x00] END_REQSTACK()
```

### Event 65535.15

#### Metadata

| Field        | Value    |
|--------------|----------|
| Entrypoint   | 0x00DA   |
| Data Size    | 16 bytes |
| Instructions | 2        |

```
      00 01 02 03 04 05 06 07  08 09 0A 0B 0C 0D 0E 0F
      -- -- -- -- -- -- -- --  -- -- -- -- -- -- -- --
00D0:                                66 00 80 F8 FF FF            f.....
00E0: 7F F8 FF FF 7F 70 61 73  30 00                    .....pas0.      
```

#### Opcodes

```
  0: 0x00DA [0x66] LOAD_EXT_SCHEDULER_MAIN: Load scheduler "pas0" with entities [EventEntity, EventEntity], work=50*
  1: 0x00E9 [0x00] END_REQSTACK()
```

### Event 65535.16

#### Metadata

| Field        | Value    |
|--------------|----------|
| Entrypoint   | 0x00EA   |
| Data Size    | 14 bytes |
| Instructions | 2        |

```
      00 01 02 03 04 05 06 07  08 09 0A 0B 0C 0D 0E 0F
      -- -- -- -- -- -- -- --  -- -- -- -- -- -- -- --
00E0:                                53 F8 FF FF 7F F8            S.....
00F0: FF FF 7F 70 61 73 30 00                           ...pas0.        
```

#### Opcodes

```
  0: 0x00EA [0x53] WAIT_SCHEDULER_TASK: Wait for scheduler "pas0" with entities [EventEntity, EventEntity]
  1: 0x00F7 [0x00] END_REQSTACK()
```

### Event 65535.17

#### Metadata

| Field        | Value   |
|--------------|---------|
| Entrypoint   | 0x00F8  |
| Data Size    | 9 bytes |
| Instructions | 3       |

```
      00 01 02 03 04 05 06 07  08 09 0A 0B 0C 0D 0E 0F
      -- -- -- -- -- -- -- --  -- -- -- -- -- -- -- --
00F0:                          5E 69 64 6C 30 1C 01 80          ^idl0...
0100: 00                                                .               
```

#### Opcodes

```
  0: 0x00F8 [0x5E] EventEntity goes idle (kills current action) (animation: "idl0")
  1: 0x00FD [0x1C] WAIT(30* ticks)
  2: 0x0100 [0x00] END_REQSTACK()
```

### Event 217

#### Metadata

| Field        | Value   |
|--------------|---------|
| Entrypoint   | 0x0101  |
| Data Size    | 1 bytes |
| Instructions | 1       |

```
      00 01 02 03 04 05 06 07  08 09 0A 0B 0C 0D 0E 0F
      -- -- -- -- -- -- -- --  -- -- -- -- -- -- -- --
0100:    00                                              .              
```

#### Opcodes

```
  0: 0x0101 [0x00] END_REQSTACK()
```

### Event 65535.18

#### Metadata

| Field        | Value    |
|--------------|----------|
| Entrypoint   | 0x0102   |
| Data Size    | 10 bytes |
| Instructions | 2        |

```
      00 01 02 03 04 05 06 07  08 09 0A 0B 0C 0D 0E 0F
      -- -- -- -- -- -- -- --  -- -- -- -- -- -- -- --
0100:       37 03 80 04 80 05  80 06 80 00                7.........    
```

#### Opcodes

```
  0: 0x0102 [0x37] UPDATE_EVENT_POSITION_AND_DIR: x=-28.599*, z=1.148*, y=-2.499*, direction=230.5°*
  1: 0x010B [0x00] END_REQSTACK()
```

### Event 65535.19

#### Metadata

| Field        | Value    |
|--------------|----------|
| Entrypoint   | 0x010C   |
| Data Size    | 14 bytes |
| Instructions | 4        |

```
      00 01 02 03 04 05 06 07  08 09 0A 0B 0C 0D 0E 0F
      -- -- -- -- -- -- -- --  -- -- -- -- -- -- -- --
0100:                                      32 07 80 1F              2...
0110: 00 08 80 09 80 05 80 1F  01 00                    ..........      
```

#### Opcodes

```
  0: 0x010C [0x32] ExtData[1]->MainSpeed = 13* * 0.1
  1: 0x010F [0x1F] MOVE_ENTITY: EventEntity moves to X=-28.176*, Z=-13.005*, Y=-2.499*
  2: 0x0117 [0x1F] MOVE_ENTITY: Update entity position (mode=1)
  3: 0x0119 [0x00] END_REQSTACK()
```

### Event 65535.20

#### Metadata

| Field        | Value    |
|--------------|----------|
| Entrypoint   | 0x011A   |
| Data Size    | 14 bytes |
| Instructions | 4        |

```
      00 01 02 03 04 05 06 07  08 09 0A 0B 0C 0D 0E 0F
      -- -- -- -- -- -- -- --  -- -- -- -- -- -- -- --
0110:                                32 07 80 1F 00 0A            2.....
0120: 80 0B 80 05 80 1F 01 00                           ........        
```

#### Opcodes

```
  0: 0x011A [0x32] ExtData[1]->MainSpeed = 13* * 0.1
  1: 0x011D [0x1F] MOVE_ENTITY: EventEntity moves to X=-28.628*, Z=-8.586*, Y=-2.499*
  2: 0x0125 [0x1F] MOVE_ENTITY: Update entity position (mode=1)
  3: 0x0127 [0x00] END_REQSTACK()
```

### Event 65535.21

#### Metadata

| Field        | Value    |
|--------------|----------|
| Entrypoint   | 0x0128   |
| Data Size    | 14 bytes |
| Instructions | 4        |

```
      00 01 02 03 04 05 06 07  08 09 0A 0B 0C 0D 0E 0F
      -- -- -- -- -- -- -- --  -- -- -- -- -- -- -- --
0120:                          32 07 80 1F 00 0C 80 0D          2.......
0130: 80 05 80 1F 01 00                                 ......          
```

#### Opcodes

```
  0: 0x0128 [0x32] ExtData[1]->MainSpeed = 13* * 0.1
  1: 0x012B [0x1F] MOVE_ENTITY: EventEntity moves to X=-28.592*, Z=-4.148*, Y=-2.499*
  2: 0x0133 [0x1F] MOVE_ENTITY: Update entity position (mode=1)
  3: 0x0135 [0x00] END_REQSTACK()
```

### Event 65535.22

#### Metadata

| Field        | Value   |
|--------------|---------|
| Entrypoint   | 0x0136  |
| Data Size    | 5 bytes |
| Instructions | 3       |

```
      00 01 02 03 04 05 06 07  08 09 0A 0B 0C 0D 0E 0F
      -- -- -- -- -- -- -- --  -- -- -- -- -- -- -- --
0130:                   1D 0E  80 23 00                       ...#.     
```

#### Opcodes

```
  0: 0x0136 [0x1D] PRINT_EVENT_MESSAGE(message_id=10412*)
    → "You don't have to be afrrraid! That Opo-opo likes you!"
  1: 0x0139 [0x23] WAIT_FOR_DIALOG_INTERACTION
  2: 0x013A [0x00] END_REQSTACK()
```

### Event 65535.23

#### Metadata

| Field        | Value   |
|--------------|---------|
| Entrypoint   | 0x013B  |
| Data Size    | 5 bytes |
| Instructions | 3       |

```
      00 01 02 03 04 05 06 07  08 09 0A 0B 0C 0D 0E 0F
      -- -- -- -- -- -- -- --  -- -- -- -- -- -- -- --
0130:                                   1D 0F 80 23 00             ...#.
```

#### Opcodes

```
  0: 0x013B [0x1D] PRINT_EVENT_MESSAGE(message_id=10413*)
    → "He's saying that he likes your smell. He says you smell like the jungle!"
  1: 0x013E [0x23] WAIT_FOR_DIALOG_INTERACTION
  2: 0x013F [0x00] END_REQSTACK()
```

### Event 65535.24

#### Metadata

| Field        | Value   |
|--------------|---------|
| Entrypoint   | 0x0140  |
| Data Size    | 5 bytes |
| Instructions | 3       |

```
      00 01 02 03 04 05 06 07  08 09 0A 0B 0C 0D 0E 0F
      -- -- -- -- -- -- -- --  -- -- -- -- -- -- -- --
0140: 1D 10 80 23 00                                    ...#.           
```

#### Opcodes

```
  0: 0x0140 [0x1D] PRINT_EVENT_MESSAGE(message_id=10414*)
    → "He's also saying that if you give all the Opo-opos in the village a present, they will make you their king!"
  1: 0x0143 [0x23] WAIT_FOR_DIALOG_INTERACTION
  2: 0x0144 [0x00] END_REQSTACK()
```

### Event 65535.25

#### Metadata

| Field        | Value   |
|--------------|---------|
| Entrypoint   | 0x0145  |
| Data Size    | 5 bytes |
| Instructions | 3       |

```
      00 01 02 03 04 05 06 07  08 09 0A 0B 0C 0D 0E 0F
      -- -- -- -- -- -- -- --  -- -- -- -- -- -- -- --
0140:                1D 11 80  23 00                         ...#.      
```

#### Opcodes

```
  0: 0x0145 [0x1D] PRINT_EVENT_MESSAGE(message_id=10415*)
    → "He's saying that he wants an "Opoppo." That means he wants $1!"
  1: 0x0148 [0x23] WAIT_FOR_DIALOG_INTERACTION
  2: 0x0149 [0x00] END_REQSTACK()
```

### Event 65535.26

#### Metadata

| Field        | Value   |
|--------------|---------|
| Entrypoint   | 0x014A  |
| Data Size    | 5 bytes |
| Instructions | 3       |

```
      00 01 02 03 04 05 06 07  08 09 0A 0B 0C 0D 0E 0F
      -- -- -- -- -- -- -- --  -- -- -- -- -- -- -- --
0140:                                1D 12 80 23 00               ...#. 
```

#### Opcodes

```
  0: 0x014A [0x1D] PRINT_EVENT_MESSAGE(message_id=10416*)
    → "But you have to be carrreful. The Opo-opos have a very strrrict system of hierarchy. If an Opo-opo lower than themselves gets a present beforrre they do, they'll go all "Opi-opi!""
  1: 0x014D [0x23] WAIT_FOR_DIALOG_INTERACTION
  2: 0x014E [0x00] END_REQSTACK()
```

### Event 65535.27

#### Metadata

| Field        | Value   |
|--------------|---------|
| Entrypoint   | 0x014F  |
| Data Size    | 5 bytes |
| Instructions | 3       |

```
      00 01 02 03 04 05 06 07  08 09 0A 0B 0C 0D 0E 0F
      -- -- -- -- -- -- -- --  -- -- -- -- -- -- -- --
0140:                                               1D                 .
0150: 13 80 23 00                                       ..#.            
```

#### Opcodes

```
  0: 0x014F [0x1D] PRINT_EVENT_MESSAGE(message_id=10417*)
    → "So, if you don't give them their presents in the rrright order, you'll have to start all overrr again."
  1: 0x0152 [0x23] WAIT_FOR_DIALOG_INTERACTION
  2: 0x0153 [0x00] END_REQSTACK()
```

### Event 65535.28

#### Metadata

| Field        | Value    |
|--------------|----------|
| Entrypoint   | 0x0154   |
| Data Size    | 17 bytes |
| Instructions | 5        |

```
      00 01 02 03 04 05 06 07  08 09 0A 0B 0C 0D 0E 0F
      -- -- -- -- -- -- -- --  -- -- -- -- -- -- -- --
0150:             6E F8 FF FF  7F 14 80 99 F8 FF FF 7F      n...........
0160: 1D 15 80 23 00                                    ...#.           
```

#### Opcodes

```
  0: 0x0154 [0x6E] EventEntity uses emote 9*
  1: 0x015B [0x99] Wait for EventEntity animation to complete
  2: 0x0160 [0x1D] PRINT_EVENT_MESSAGE(message_id=10419*)
    → "Sorry! I'll be rrright there!"
  3: 0x0163 [0x23] WAIT_FOR_DIALOG_INTERACTION
  4: 0x0164 [0x00] END_REQSTACK()
```

### Event 65535.29

#### Metadata

| Field        | Value   |
|--------------|---------|
| Entrypoint   | 0x0165  |
| Data Size    | 5 bytes |
| Instructions | 3       |

```
      00 01 02 03 04 05 06 07  08 09 0A 0B 0C 0D 0E 0F
      -- -- -- -- -- -- -- --  -- -- -- -- -- -- -- --
0160:                1D 16 80  23 00                         ...#.      
```

#### Opcodes

```
  0: 0x0165 [0x1D] PRINT_EVENT_MESSAGE(message_id=10421*)
    → "Ha-ha! Sorry you don't like it! Bye-bye!"
  1: 0x0168 [0x23] WAIT_FOR_DIALOG_INTERACTION
  2: 0x0169 [0x00] END_REQSTACK()
```

### Event 65535.30

#### Metadata

| Field        | Value   |
|--------------|---------|
| Entrypoint   | 0x016A  |
| Data Size    | 5 bytes |
| Instructions | 3       |

```
      00 01 02 03 04 05 06 07  08 09 0A 0B 0C 0D 0E 0F
      -- -- -- -- -- -- -- --  -- -- -- -- -- -- -- --
0160:                                1D 17 80 23 00               ...#. 
```

#### Opcodes

```
  0: 0x016A [0x1D] PRINT_EVENT_MESSAGE(message_id=10422*)
    → "Oh, I didn't tell you my name, did I?"
  1: 0x016D [0x23] WAIT_FOR_DIALOG_INTERACTION
  2: 0x016E [0x00] END_REQSTACK()
```

### Event 239

#### Metadata

| Field        | Value   |
|--------------|---------|
| Entrypoint   | 0x016F  |
| Data Size    | 1 bytes |
| Instructions | 1       |

```
      00 01 02 03 04 05 06 07  08 09 0A 0B 0C 0D 0E 0F
      -- -- -- -- -- -- -- --  -- -- -- -- -- -- -- --
0160:                                               00                 .
```

#### Opcodes

```
  0: 0x016F [0x00] END_REQSTACK()
```

### Event 65535.31

#### Metadata

| Field        | Value   |
|--------------|---------|
| Entrypoint   | 0x0170  |
| Data Size    | 1 bytes |
| Instructions | 1       |

```
      00 01 02 03 04 05 06 07  08 09 0A 0B 0C 0D 0E 0F
      -- -- -- -- -- -- -- --  -- -- -- -- -- -- -- --
0170: 00                                                .               
```

#### Opcodes

```
  0: 0x0170 [0x00] END_REQSTACK()
```

### Event 65535.32

#### Metadata

| Field        | Value   |
|--------------|---------|
| Entrypoint   | 0x0171  |
| Data Size    | 5 bytes |
| Instructions | 3       |

```
      00 01 02 03 04 05 06 07  08 09 0A 0B 0C 0D 0E 0F
      -- -- -- -- -- -- -- --  -- -- -- -- -- -- -- --
0170:    1D 18 80 23 00                                  ...#.          
```

#### Opcodes

```
  0: 0x0171 [0x1D] PRINT_EVENT_MESSAGE(message_id=10428*)
    → "But even if you did know the rrright order, you've got to know what the Opo-opos are saying if you want to know what they want."
  1: 0x0174 [0x23] WAIT_FOR_DIALOG_INTERACTION
  2: 0x0175 [0x00] END_REQSTACK()
```

### Event 65535.33

#### Metadata

| Field        | Value   |
|--------------|---------|
| Entrypoint   | 0x0176  |
| Data Size    | 5 bytes |
| Instructions | 3       |

```
      00 01 02 03 04 05 06 07  08 09 0A 0B 0C 0D 0E 0F
      -- -- -- -- -- -- -- --  -- -- -- -- -- -- -- --
0170:                   1D 19  80 23 00                       ...#.     
```

#### Opcodes

```
  0: 0x0176 [0x1D] PRINT_EVENT_MESSAGE(message_id=10431*)
    → "Listen carrrefully! "Opoh opo!" means $3."
  1: 0x0179 [0x23] WAIT_FOR_DIALOG_INTERACTION
  2: 0x017A [0x00] END_REQSTACK()
```

### Event 65535.34

#### Metadata

| Field        | Value   |
|--------------|---------|
| Entrypoint   | 0x017B  |
| Data Size    | 5 bytes |
| Instructions | 3       |

```
      00 01 02 03 04 05 06 07  08 09 0A 0B 0C 0D 0E 0F
      -- -- -- -- -- -- -- --  -- -- -- -- -- -- -- --
0170:                                   1D 1A 80 23 00             ...#.
```

#### Opcodes

```
  0: 0x017B [0x1D] PRINT_EVENT_MESSAGE(message_id=10432*)
    → "Now listen! "Opopoppo!" means $3."
  1: 0x017E [0x23] WAIT_FOR_DIALOG_INTERACTION
  2: 0x017F [0x00] END_REQSTACK()
```

### Event 65535.35

#### Metadata

| Field        | Value   |
|--------------|---------|
| Entrypoint   | 0x0180  |
| Data Size    | 5 bytes |
| Instructions | 3       |

```
      00 01 02 03 04 05 06 07  08 09 0A 0B 0C 0D 0E 0F
      -- -- -- -- -- -- -- --  -- -- -- -- -- -- -- --
0180: 1D 1B 80 23 00                                    ...#.           
```

#### Opcodes

```
  0: 0x0180 [0x1D] PRINT_EVENT_MESSAGE(message_id=10433*)
    → "Listen up! "Oh! Ohpo!" means $3."
  1: 0x0183 [0x23] WAIT_FOR_DIALOG_INTERACTION
  2: 0x0184 [0x00] END_REQSTACK()
```

### Event 65535.36

#### Metadata

| Field        | Value   |
|--------------|---------|
| Entrypoint   | 0x0185  |
| Data Size    | 5 bytes |
| Instructions | 3       |

```
      00 01 02 03 04 05 06 07  08 09 0A 0B 0C 0D 0E 0F
      -- -- -- -- -- -- -- --  -- -- -- -- -- -- -- --
0180:                1D 1C 80  23 00                         ...#.      
```

#### Opcodes

```
  0: 0x0185 [0x1D] PRINT_EVENT_MESSAGE(message_id=10434*)
    → "Listen closely! "Opopoh-o" means $3."
  1: 0x0188 [0x23] WAIT_FOR_DIALOG_INTERACTION
  2: 0x0189 [0x00] END_REQSTACK()
```

### Event 65535.37

#### Metadata

| Field        | Value   |
|--------------|---------|
| Entrypoint   | 0x018A  |
| Data Size    | 5 bytes |
| Instructions | 3       |

```
      00 01 02 03 04 05 06 07  08 09 0A 0B 0C 0D 0E 0F
      -- -- -- -- -- -- -- --  -- -- -- -- -- -- -- --
0180:                                1D 1D 80 23 00               ...#. 
```

#### Opcodes

```
  0: 0x018A [0x1D] PRINT_EVENT_MESSAGE(message_id=10435*)
    → "Listen! "Popo-o Popo-o" means $3."
  1: 0x018D [0x23] WAIT_FOR_DIALOG_INTERACTION
  2: 0x018E [0x00] END_REQSTACK()
```

### Event 65535.38

#### Metadata

| Field        | Value   |
|--------------|---------|
| Entrypoint   | 0x018F  |
| Data Size    | 5 bytes |
| Instructions | 3       |

```
      00 01 02 03 04 05 06 07  08 09 0A 0B 0C 0D 0E 0F
      -- -- -- -- -- -- -- --  -- -- -- -- -- -- -- --
0180:                                               1D                 .
0190: 1E 80 23 00                                       ..#.            
```

#### Opcodes

```
  0: 0x018F [0x1D] PRINT_EVENT_MESSAGE(message_id=10436*)
    → "Listen carrrefully! "Poppo-opo!" means $3."
  1: 0x0192 [0x23] WAIT_FOR_DIALOG_INTERACTION
  2: 0x0193 [0x00] END_REQSTACK()
```

### Event 65535.39

#### Metadata

| Field        | Value   |
|--------------|---------|
| Entrypoint   | 0x0194  |
| Data Size    | 5 bytes |
| Instructions | 3       |

```
      00 01 02 03 04 05 06 07  08 09 0A 0B 0C 0D 0E 0F
      -- -- -- -- -- -- -- --  -- -- -- -- -- -- -- --
0190:             1D 1F 80 23  00                           ...#.       
```

#### Opcodes

```
  0: 0x0194 [0x1D] PRINT_EVENT_MESSAGE(message_id=10437*)
    → "Now listen! "Po-oppo Opo-opo!" means $3."
  1: 0x0197 [0x23] WAIT_FOR_DIALOG_INTERACTION
  2: 0x0198 [0x00] END_REQSTACK()
```

### Event 65535.40

#### Metadata

| Field        | Value   |
|--------------|---------|
| Entrypoint   | 0x0199  |
| Data Size    | 5 bytes |
| Instructions | 3       |

```
      00 01 02 03 04 05 06 07  08 09 0A 0B 0C 0D 0E 0F
      -- -- -- -- -- -- -- --  -- -- -- -- -- -- -- --
0190:                             1D 20 80 23 00                 . .#.  
```

#### Opcodes

```
  0: 0x0199 [0x1D] PRINT_EVENT_MESSAGE(message_id=10438*)
    → "Listen up! "Opo-opo-opo-opo-o popopo-opopo!" means $3."
  1: 0x019C [0x23] WAIT_FOR_DIALOG_INTERACTION
  2: 0x019D [0x00] END_REQSTACK()
```

### Event 65535.41

#### Metadata

| Field        | Value   |
|--------------|---------|
| Entrypoint   | 0x019E  |
| Data Size    | 5 bytes |
| Instructions | 3       |

```
      00 01 02 03 04 05 06 07  08 09 0A 0B 0C 0D 0E 0F
      -- -- -- -- -- -- -- --  -- -- -- -- -- -- -- --
0190:                                            1D 21                .!
01A0: 80 23 00                                          .#.             
```

#### Opcodes

```
  0: 0x019E [0x1D] PRINT_EVENT_MESSAGE(message_id=10439*)
    → "Listen closely! "Ohpo-opo Poh-opo-o!" means $3."
  1: 0x01A1 [0x23] WAIT_FOR_DIALOG_INTERACTION
  2: 0x01A2 [0x00] END_REQSTACK()
```

### Event 241

#### Metadata

| Field        | Value   |
|--------------|---------|
| Entrypoint   | 0x01A3  |
| Data Size    | 1 bytes |
| Instructions | 1       |

```
      00 01 02 03 04 05 06 07  08 09 0A 0B 0C 0D 0E 0F
      -- -- -- -- -- -- -- --  -- -- -- -- -- -- -- --
01A0:          00                                          .            
```

#### Opcodes

```
  0: 0x01A3 [0x00] END_REQSTACK()
```

### Event 65535.42

#### Metadata

| Field        | Value    |
|--------------|----------|
| Entrypoint   | 0x01A4   |
| Data Size    | 10 bytes |
| Instructions | 2        |

```
      00 01 02 03 04 05 06 07  08 09 0A 0B 0C 0D 0E 0F
      -- -- -- -- -- -- -- --  -- -- -- -- -- -- -- --
01A0:             37 22 80 23  80 24 80 25 80 00            7".#.$.%..  
```

#### Opcodes

```
  0: 0x01A4 [0x37] UPDATE_EVENT_POSITION_AND_DIR: x=44.102*, z=-175.099*, y=-10.999*, direction=141.7°*
  1: 0x01AD [0x00] END_REQSTACK()
```

### Event 65535.43

#### Metadata

| Field        | Value    |
|--------------|----------|
| Entrypoint   | 0x01AE   |
| Data Size    | 14 bytes |
| Instructions | 4        |

```
      00 01 02 03 04 05 06 07  08 09 0A 0B 0C 0D 0E 0F
      -- -- -- -- -- -- -- --  -- -- -- -- -- -- -- --
01A0:                                            32 07                2.
01B0: 80 1F 00 26 80 27 80 24  80 1F 01 00              ...&.'.$....    
```

#### Opcodes

```
  0: 0x01AE [0x32] ExtData[1]->MainSpeed = 13* * 0.1
  1: 0x01B1 [0x1F] MOVE_ENTITY: EventEntity moves to X=40.487*, Z=-179.616*, Y=-10.999*
  2: 0x01B9 [0x1F] MOVE_ENTITY: Update entity position (mode=1)
  3: 0x01BB [0x00] END_REQSTACK()
```

### Event 65535.44

#### Metadata

| Field        | Value    |
|--------------|----------|
| Entrypoint   | 0x01BC   |
| Data Size    | 17 bytes |
| Instructions | 5        |

```
      00 01 02 03 04 05 06 07  08 09 0A 0B 0C 0D 0E 0F
      -- -- -- -- -- -- -- --  -- -- -- -- -- -- -- --
01B0:                                      1C 28 80 32              .(.2
01C0: 07 80 1F 00 22 80 23 80  24 80 1F 01 00           ....".#.$....   
```

#### Opcodes

```
  0: 0x01BC [0x1C] WAIT(260* ticks)
  1: 0x01BF [0x32] ExtData[1]->MainSpeed = 13* * 0.1
  2: 0x01C2 [0x1F] MOVE_ENTITY: EventEntity moves to X=44.102*, Z=-175.099*, Y=-10.999*
  3: 0x01CA [0x1F] MOVE_ENTITY: Update entity position (mode=1)
  4: 0x01CC [0x00] END_REQSTACK()
```

### Event 65535.45

#### Metadata

| Field        | Value    |
|--------------|----------|
| Entrypoint   | 0x01CD   |
| Data Size    | 13 bytes |
| Instructions | 3        |

```
      00 01 02 03 04 05 06 07  08 09 0A 0B 0C 0D 0E 0F
      -- -- -- -- -- -- -- --  -- -- -- -- -- -- -- --
01C0:                                         6E F8 FF               n..
01D0: FF 7F 29 80 99 F8 FF FF  7F 00                    ..).......      
```

#### Opcodes

```
  0: 0x01CD [0x6E] EventEntity uses emote 8*
  1: 0x01D4 [0x99] Wait for EventEntity animation to complete
  2: 0x01D9 [0x00] END_REQSTACK()
```

### Event 65535.46

#### Metadata

| Field        | Value   |
|--------------|---------|
| Entrypoint   | 0x01DA  |
| Data Size    | 5 bytes |
| Instructions | 3       |

```
      00 01 02 03 04 05 06 07  08 09 0A 0B 0C 0D 0E 0F
      -- -- -- -- -- -- -- --  -- -- -- -- -- -- -- --
01D0:                                1D 2A 80 23 00               .*.#. 
```

#### Opcodes

```
  0: 0x01DA [0x1D] PRINT_EVENT_MESSAGE(message_id=10443*)
    → "Wow! The Opo-opos are saying that they've made you their king!"
  1: 0x01DD [0x23] WAIT_FOR_DIALOG_INTERACTION
  2: 0x01DE [0x00] END_REQSTACK()
```

### Event 65535.47

#### Metadata

| Field        | Value   |
|--------------|---------|
| Entrypoint   | 0x01DF  |
| Data Size    | 5 bytes |
| Instructions | 3       |

```
      00 01 02 03 04 05 06 07  08 09 0A 0B 0C 0D 0E 0F
      -- -- -- -- -- -- -- --  -- -- -- -- -- -- -- --
01D0:                                               1D                 .
01E0: 2B 80 23 00                                       +.#.            
```

#### Opcodes

```
  0: 0x01DF [0x1D] PRINT_EVENT_MESSAGE(message_id=10445*)
    → "They're saying they are going to give their king their most prrrized possession."
  1: 0x01E2 [0x23] WAIT_FOR_DIALOG_INTERACTION
  2: 0x01E3 [0x00] END_REQSTACK()
```

### Event 65535.48

#### Metadata

| Field        | Value   |
|--------------|---------|
| Entrypoint   | 0x01E4  |
| Data Size    | 5 bytes |
| Instructions | 3       |

```
      00 01 02 03 04 05 06 07  08 09 0A 0B 0C 0D 0E 0F
      -- -- -- -- -- -- -- --  -- -- -- -- -- -- -- --
01E0:             1D 2C 80 23  00                           .,.#.       
```

#### Opcodes

```
  0: 0x01E4 [0x1D] PRINT_EVENT_MESSAGE(message_id=10447*)
    → "Opoh!? Opo-opoh poppopopopo! Opoppo-opo!"
  1: 0x01E7 [0x23] WAIT_FOR_DIALOG_INTERACTION
  2: 0x01E8 [0x00] END_REQSTACK()
```

### Event 65535.49

#### Metadata

| Field        | Value   |
|--------------|---------|
| Entrypoint   | 0x01E9  |
| Data Size    | 5 bytes |
| Instructions | 3       |

```
      00 01 02 03 04 05 06 07  08 09 0A 0B 0C 0D 0E 0F
      -- -- -- -- -- -- -- --  -- -- -- -- -- -- -- --
01E0:                             1D 2D 80 23 00                 .-.#.  
```

#### Opcodes

```
  0: 0x01E9 [0x1D] PRINT_EVENT_MESSAGE(message_id=10449*)
    → "Opi-opi! Opo-opo opi-opi!"
  1: 0x01EC [0x23] WAIT_FOR_DIALOG_INTERACTION
  2: 0x01ED [0x00] END_REQSTACK()
```

### Event 65535.50

#### Metadata

| Field        | Value   |
|--------------|---------|
| Entrypoint   | 0x01EE  |
| Data Size    | 5 bytes |
| Instructions | 3       |

```
      00 01 02 03 04 05 06 07  08 09 0A 0B 0C 0D 0E 0F
      -- -- -- -- -- -- -- --  -- -- -- -- -- -- -- --
01E0:                                            1D 2E                ..
01F0: 80 23 00                                          .#.             
```

#### Opcodes

```
  0: 0x01EE [0x1D] PRINT_EVENT_MESSAGE(message_id=10451*)
    → "Oh, I'm sorry! The Opo-opos just asked you to do something that would have been impossible."
  1: 0x01F1 [0x23] WAIT_FOR_DIALOG_INTERACTION
  2: 0x01F2 [0x00] END_REQSTACK()
```

### Event 65535.51

#### Metadata

| Field        | Value   |
|--------------|---------|
| Entrypoint   | 0x01F3  |
| Data Size    | 5 bytes |
| Instructions | 3       |

```
      00 01 02 03 04 05 06 07  08 09 0A 0B 0C 0D 0E 0F
      -- -- -- -- -- -- -- --  -- -- -- -- -- -- -- --
01F0:          1D 2F 80 23 00                              ./.#.        
```

#### Opcodes

```
  0: 0x01F3 [0x1D] PRINT_EVENT_MESSAGE(message_id=10452*)
    → "Here, I'll give you these instead."
  1: 0x01F6 [0x23] WAIT_FOR_DIALOG_INTERACTION
  2: 0x01F7 [0x00] END_REQSTACK()
```

### Event 65535.52

#### Metadata

| Field        | Value   |
|--------------|---------|
| Entrypoint   | 0x01F8  |
| Data Size    | 5 bytes |
| Instructions | 3       |

```
      00 01 02 03 04 05 06 07  08 09 0A 0B 0C 0D 0E 0F
      -- -- -- -- -- -- -- --  -- -- -- -- -- -- -- --
01F0:                          1D 30 80 23 00                   .0.#.   
```

#### Opcodes

```
  0: 0x01F8 [0x1D] PRINT_EVENT_MESSAGE(message_id=10453*)
    → "Long live the king! Opo-opo!"
  1: 0x01FB [0x23] WAIT_FOR_DIALOG_INTERACTION
  2: 0x01FC [0x00] END_REQSTACK()
```
