# 17801225 - Etteh Sulaej

## Common Data

| Field            | Value            |
|------------------|------------------|
| Zone             | Kazham (ID: 250) |
| Block Size       | 7004 bytes       |
| Total Events     | 58               |
| References Count | 82               |

## List of Events

| Event ID                   | Entrypoint   |   Size |   Instructions |
|----------------------------|--------------|--------|----------------|
| [65535](#event-65535)      | 0x0000       |      1 |              1 |
| [65535.1](#event-655351)   | 0x0001       |     16 |              2 |
| [65535.2](#event-655352)   | 0x0011       |     22 |              4 |
| [65535.3](#event-655353)   | 0x0027       |     16 |              2 |
| [65535.4](#event-655354)   | 0x0037       |     14 |              2 |
| [65535.5](#event-655355)   | 0x0045       |     22 |              3 |
| [65535.6](#event-655356)   | 0x005B       |     14 |              2 |
| [65535.7](#event-655357)   | 0x0069       |     16 |              2 |
| [65535.8](#event-655358)   | 0x0079       |     20 |              3 |
| [65535.9](#event-655359)   | 0x008D       |     22 |              3 |
| [65535.10](#event-6553510) | 0x00A3       |     20 |              3 |
| [65535.11](#event-6553511) | 0x00B7       |     22 |              3 |
| [65535.12](#event-6553512) | 0x00CD       |     20 |              3 |
| [65535.13](#event-6553513) | 0x00E1       |     16 |              2 |
| [65535.14](#event-6553514) | 0x00F1       |     14 |              2 |
| [65535.15](#event-6553515) | 0x00FF       |     16 |              2 |
| [65535.16](#event-6553516) | 0x010F       |     14 |              2 |
| [65535.17](#event-6553517) | 0x011D       |     16 |              2 |
| [65535.18](#event-6553518) | 0x012D       |     14 |              2 |
| [65535.19](#event-6553519) | 0x013B       |     28 |              4 |
| [65535.20](#event-6553520) | 0x0157       |     26 |              4 |
| [65535.21](#event-6553521) | 0x0171       |      9 |              3 |
| [65535.22](#event-6553522) | 0x017A       |     16 |              2 |
| [65535.23](#event-6553523) | 0x018A       |     14 |              2 |
| [42](#event-42)            | 0x0198       |     19 |             10 |
| [162](#event-162)          | 0x01AB       |     19 |             10 |
| [65535.24](#event-6553524) | 0x01BE       |     27 |              7 |
| [44](#event-44)            | 0x01D9       |   1288 |            160 |
| [65535.25](#event-6553525) | 0x06E1       |      5 |              3 |
| [65535.26](#event-6553526) | 0x06E6       |      5 |              3 |
| [65535.27](#event-6553527) | 0x06EB       |      5 |              3 |
| [65535.28](#event-6553528) | 0x06F0       |      5 |              3 |
| [65535.29](#event-6553529) | 0x06F5       |      5 |              3 |
| [65535.30](#event-6553530) | 0x06FA       |      5 |              3 |
| [65535.31](#event-6553531) | 0x06FF       |      9 |              5 |
| [65535.32](#event-6553532) | 0x0708       |      5 |              3 |
| [45](#event-45)            | 0x070D       |     33 |             12 |
| [47](#event-47)            | 0x072E       |    891 |            116 |
| [65535.33](#event-6553533) | 0x0AA9       |      5 |              3 |
| [65535.34](#event-6553534) | 0x0AAE       |      5 |              3 |
| [65535.35](#event-6553535) | 0x0AB3       |      5 |              3 |
| [65535.36](#event-6553536) | 0x0AB8       |      5 |              3 |
| [49](#event-49)            | 0x0ABD       |     47 |             14 |
| [50](#event-50)            | 0x0AEC       |    911 |            113 |
| [65535.37](#event-6553537) | 0x0E7B       |      5 |              3 |
| [51](#event-51)            | 0x0E80       |     33 |             12 |
| [53](#event-53)            | 0x0EA1       |   1175 |            147 |
| [65535.38](#event-6553538) | 0x1338       |      5 |              3 |
| [65535.39](#event-6553539) | 0x133D       |      9 |              5 |
| [65535.40](#event-6553540) | 0x1346       |      5 |              3 |
| [54](#event-54)            | 0x134B       |    734 |             97 |
| [55](#event-55)            | 0x1629       |     47 |             14 |
| [57](#event-57)            | 0x1658       |    651 |             83 |
| [65535.41](#event-6553541) | 0x18E3       |      5 |              3 |
| [109](#event-109)          | 0x18E8       |     19 |             10 |
| [112](#event-112)          | 0x18FB       |     19 |             10 |
| [293](#event-293)          | 0x190E       |      1 |              1 |
| [65535.42](#event-6553542) | 0x190F       |     10 |              2 |

## DAT References (imed_data)

|   Index | Hex Value   |   Dec Value |
|---------|-------------|-------------|
|       0 | 0x0166      |         358 |
|       1 | 0x001E      |          30 |
|       2 | 0x016C      |         364 |
|       3 | 0x0168      |         360 |
|       4 | 0x0245      |         581 |
|       5 | 0x26F0      |        9968 |
|       6 | 0x26F1      |        9969 |
|       7 | 0x285D      |       10333 |
|       8 | 0x285E      |       10334 |
|       9 | 0x000D      |          13 |
|      10 | 0x16F89     |       94089 |
|      11 | 0xFFFE496D  |  4294855021 |
|      12 | 0xFFFFC75D  |  4294952797 |
|      13 | 0x1002      |        4098 |
|      14 | 0x0000      |           0 |
|      15 | 0x00C8      |         200 |
|      16 | 0x003C      |          60 |
|      17 | 0x01FB      |         507 |
|      18 | 0x0003      |           3 |
|      19 | 0x00A3      |         163 |
|      20 | 0x0005      |           5 |
|      21 | 0x0096      |         150 |
|      22 | 0x0006      |           6 |
|      23 | 0x0008      |           8 |
|      24 | 0x2770      |       10096 |
|      25 | 0x0001      |           1 |
|      26 | 0x0002      |           2 |
|      27 | 0x2776      |       10102 |
|      28 | 0x2777      |       10103 |
|      29 | 0x2779      |       10105 |
|      30 | 0x277A      |       10106 |
|      31 | 0x0064      |         100 |
|      32 | 0x0087      |         135 |
|      33 | 0x276D      |       10093 |
|      34 | 0x276E      |       10094 |
|      35 | 0x276F      |       10095 |
|      36 | 0x2771      |       10097 |
|      37 | 0x2772      |       10098 |
|      38 | 0x2773      |       10099 |
|      39 | 0x2774      |       10100 |
|      40 | 0x2775      |       10101 |
|      41 | 0x2778      |       10104 |
|      42 | 0x277B      |       10107 |
|      43 | 0x277C      |       10108 |
|      44 | 0x007F      |         127 |
|      45 | 0x2781      |       10113 |
|      46 | 0x2782      |       10114 |
|      47 | 0x2789      |       10121 |
|      48 | 0x277F      |       10111 |
|      49 | 0x2780      |       10112 |
|      50 | 0x2785      |       10117 |
|      51 | 0x278D      |       10125 |
|      52 | 0x278E      |       10126 |
|      53 | 0x2790      |       10128 |
|      54 | 0x0800      |        2048 |
|      55 | 0x2792      |       10130 |
|      56 | 0x00C9      |         201 |
|      57 | 0x278F      |       10127 |
|      58 | 0x2795      |       10133 |
|      59 | 0x2796      |       10134 |
|      60 | 0x279C      |       10140 |
|      61 | 0x279D      |       10141 |
|      62 | 0x279E      |       10142 |
|      63 | 0x279F      |       10143 |
|      64 | 0x2799      |       10137 |
|      65 | 0x279A      |       10138 |
|      66 | 0x279B      |       10139 |
|      67 | 0x27A1      |       10145 |
|      68 | 0x27A3      |       10147 |
|      69 | 0x27A2      |       10146 |
|      70 | 0x27A4      |       10148 |
|      71 | 0x27A5      |       10149 |
|      72 | 0x27A9      |       10153 |
|      73 | 0x27A8      |       10152 |
|      74 | 0x27B2      |       10162 |
|      75 | 0x27B3      |       10163 |
|      76 | 0x27BD      |       10173 |
|      77 | 0x27BE      |       10174 |
|      78 | 0x16F69     |       94057 |
|      79 | 0xFFFE49DE  |  4294855134 |
|      80 | 0xFFFFC75C  |  4294952796 |
|      81 | 0x0080      |         128 |

## String References

- **9968**: Stop right there! What business do you have with the chieftainness?
- **9969**: It had better be good, or you won't be seeing the light of tomorrow.
- **10093**: What the...
- **10094**: Unbelievable! What the hell are those mainlanders thinking?
- **10095**: Hold on there. You're from the mainlands. You wouldn't happen to know a Hume named Angelica, would you?
- **10096**: Do you know an Angelica? [Of course./Never heard of her.]
- **10097**: Well, who the hell does she think she is? The other day, she sent this letter to the chieftainness.
- **10098**: Well, aren't you lucky. The other day, this Angelica sent a letter to the chieftainness.
- **10099**: You won't believe what it was about. Listen. I'll rrread it for you.
- **10100**: "Dear Chieftainness, My name is Angelica, and I'm the best artist here in Windurst. This may seem sudden, but I have a favor to ask. The other day, I heard an adventurer talking about her journey to the Temple of Uggalepih.
- **10101**: "She said she came across a rrroom that resembled an art gallery. The walls were covered with numerous frames, but in these frames there were no paintings.
- **10104**: This girl has got to be either crazy or stupid. I wonder if that adventurer actually told her what kind of place the temple rrreally is?
- **10107**: Those Humes... I haven't been this surprised since the former chieftainness...
- **10108**: But that's nothing for you to worry about! Now hurry off and deliver that letter to Windurst.
- **10111**: What the...
- **10112**: Unbelievable! What the hell are those mainlanders thinking?
- **10113**: Chieftainness! That Angelica looks like she's serious about her crazy plan.
- **10117**: I-I apologize! Ch-Chieftainness! Have mercy! Chieftainness!
- **10125**: I get dizzy every time I look at that girl's paintings.
- **10126**: It's kind of like dreaming while I'm still awake...
- **10127**: So, did you put the painting in the frame? What? You heard a strange voice and were attacked by a monster!?
- **10133**: A lot of people say that they hear voices when they travel around the Uggalepih Temple.
- **10134**: I never heard any, though. I guess I just don't have that "sixth sense."
- **10137**: Hey, listen to this! That Angelica has sent another letter!
- **10138**: "Dear Chieftainness, I thank you for all of your assistance with my private exhibition.
- **10139**: "It looks like some evil spirit is still living in the gallery of the temple. From what I can see, that spirit must have found some flaw in my painting and then rrripped it up.
- **10143**: Do you accept the offer? [If not me.../I've had enough!]
- **10145**: Understood!
- **10147**: What? You're going back? And all this for a crazy mainlander... What is going on in you people's heads!?
- **10148**: Those Humes... I haven't been this surprised since the former chieftainness...
- **10149**: But that's nothing for you to worry about! Now hurry off to the Temple of Uggalepih!
- **10152**: You're back, so... What!? You were attacked again!?
- **10162**: Everyone knows to keep their hands off the Tonberries' $1!
- **10163**: What did you mainlanders eat to grow up so stupid!?
- **10173**: Wait up there. Tell me. How did you cure yourself of that curse?
- **10174**: Not going to tell me? Come o\`n. You can tell me. What did I ever do to you mainlanders to deserve this?
- **10333**: Stop rrright there! What business does someone with such a foul stench have with the chieftainness?
- **10334**: It had better be good, because with that body odor, I wouldn't expect you to be seeing the light of tomorrow.

## Events

### Event 65535

#### Metadata

| Field        | Value   |
|--------------|---------|
| Entrypoint   | 0x0000  |
| Data Size    | 1 bytes |
| Instructions | 1       |

```
      00 01 02 03 04 05 06 07  08 09 0A 0B 0C 0D 0E 0F
      -- -- -- -- -- -- -- --  -- -- -- -- -- -- -- --
0000: 00                                                .               
```

#### Opcodes

```
  0: 0x0000 [0x00] END_REQSTACK()
```

### Event 65535.1

#### Metadata

| Field        | Value    |
|--------------|----------|
| Entrypoint   | 0x0001   |
| Data Size    | 16 bytes |
| Instructions | 2        |

```
      00 01 02 03 04 05 06 07  08 09 0A 0B 0C 0D 0E 0F
      -- -- -- -- -- -- -- --  -- -- -- -- -- -- -- --
0000:    5B 00 80 F8 FF FF 7F  F8 FF FF 7F 74 6C 6B 30   [..........tlk0
0010: 00                                                .               
```

#### Opcodes

```
  0: 0x0001 [0x5B] LOAD_EXT_SCHEDULER: Load scheduler "tlk0" with entities [EventEntity, EventEntity], work=358*
  1: 0x0010 [0x00] END_REQSTACK()
```

### Event 65535.2

#### Metadata

| Field        | Value    |
|--------------|----------|
| Entrypoint   | 0x0011   |
| Data Size    | 22 bytes |
| Instructions | 4        |

```
      00 01 02 03 04 05 06 07  08 09 0A 0B 0C 0D 0E 0F
      -- -- -- -- -- -- -- --  -- -- -- -- -- -- -- --
0010:    53 F8 FF FF 7F F8 FF  FF 7F 74 6C 6B 30 5E 69   S........tlk0^i
0020: 64 6C 30 1C 01 80 00                              dl0....         
```

#### Opcodes

```
  0: 0x0011 [0x53] WAIT_SCHEDULER_TASK: Wait for scheduler "tlk0" with entities [EventEntity, EventEntity]
  1: 0x001E [0x5E] EventEntity goes idle (kills current action) (animation: "idl0")
  2: 0x0023 [0x1C] WAIT(30* ticks)
  3: 0x0026 [0x00] END_REQSTACK()
```

### Event 65535.3

#### Metadata

| Field        | Value    |
|--------------|----------|
| Entrypoint   | 0x0027   |
| Data Size    | 16 bytes |
| Instructions | 2        |

```
      00 01 02 03 04 05 06 07  08 09 0A 0B 0C 0D 0E 0F
      -- -- -- -- -- -- -- --  -- -- -- -- -- -- -- --
0020:                      5B  00 80 F8 FF FF 7F F8 FF         [........
0030: FF 7F 74 6C 6B 32 00                              ..tlk2.         
```

#### Opcodes

```
  0: 0x0027 [0x5B] LOAD_EXT_SCHEDULER: Load scheduler "tlk2" with entities [EventEntity, EventEntity], work=358*
  1: 0x0036 [0x00] END_REQSTACK()
```

### Event 65535.4

#### Metadata

| Field        | Value    |
|--------------|----------|
| Entrypoint   | 0x0037   |
| Data Size    | 14 bytes |
| Instructions | 2        |

```
      00 01 02 03 04 05 06 07  08 09 0A 0B 0C 0D 0E 0F
      -- -- -- -- -- -- -- --  -- -- -- -- -- -- -- --
0030:                      53  F8 FF FF 7F F8 FF FF 7F         S........
0040: 74 6C 6B 32 00                                    tlk2.           
```

#### Opcodes

```
  0: 0x0037 [0x53] WAIT_SCHEDULER_TASK: Wait for scheduler "tlk2" with entities [EventEntity, EventEntity]
  1: 0x0044 [0x00] END_REQSTACK()
```

### Event 65535.5

#### Metadata

| Field        | Value    |
|--------------|----------|
| Entrypoint   | 0x0045   |
| Data Size    | 22 bytes |
| Instructions | 3        |

```
      00 01 02 03 04 05 06 07  08 09 0A 0B 0C 0D 0E 0F
      -- -- -- -- -- -- -- --  -- -- -- -- -- -- -- --
0040:                81 00 F8  FF FF 7F 5B 00 80 F8 FF       ......[....
0050: FF 7F F8 FF FF 7F 74 68  6B 31 00                 ......thk1.     
```

#### Opcodes

```
  0: 0x0045 [0x81] SET_ENTITY_BLINKING(blink_flag=0x00, entity=EventEntity)
  1: 0x004B [0x5B] LOAD_EXT_SCHEDULER: Load scheduler "thk1" with entities [EventEntity, EventEntity], work=358*
  2: 0x005A [0x00] END_REQSTACK()
```

### Event 65535.6

#### Metadata

| Field        | Value    |
|--------------|----------|
| Entrypoint   | 0x005B   |
| Data Size    | 14 bytes |
| Instructions | 2        |

```
      00 01 02 03 04 05 06 07  08 09 0A 0B 0C 0D 0E 0F
      -- -- -- -- -- -- -- --  -- -- -- -- -- -- -- --
0050:                                   53 F8 FF FF 7F             S....
0060: F8 FF FF 7F 74 68 6B 31  00                       ....thk1.       
```

#### Opcodes

```
  0: 0x005B [0x53] WAIT_SCHEDULER_TASK: Wait for scheduler "thk1" with entities [EventEntity, EventEntity]
  1: 0x0068 [0x00] END_REQSTACK()
```

### Event 65535.7

#### Metadata

| Field        | Value    |
|--------------|----------|
| Entrypoint   | 0x0069   |
| Data Size    | 16 bytes |
| Instructions | 2        |

```
      00 01 02 03 04 05 06 07  08 09 0A 0B 0C 0D 0E 0F
      -- -- -- -- -- -- -- --  -- -- -- -- -- -- -- --
0060:                             5B 00 80 F8 FF FF 7F           [......
0070: F8 FF FF 7F 74 68 6B 32  00                       ....thk2.       
```

#### Opcodes

```
  0: 0x0069 [0x5B] LOAD_EXT_SCHEDULER: Load scheduler "thk2" with entities [EventEntity, EventEntity], work=358*
  1: 0x0078 [0x00] END_REQSTACK()
```

### Event 65535.8

#### Metadata

| Field        | Value    |
|--------------|----------|
| Entrypoint   | 0x0079   |
| Data Size    | 20 bytes |
| Instructions | 3        |

```
      00 01 02 03 04 05 06 07  08 09 0A 0B 0C 0D 0E 0F
      -- -- -- -- -- -- -- --  -- -- -- -- -- -- -- --
0070:                             53 F8 FF FF 7F F8 FF           S......
0080: FF 7F 74 68 6B 32 81 01  F8 FF FF 7F 00           ..thk2.......   
```

#### Opcodes

```
  0: 0x0079 [0x53] WAIT_SCHEDULER_TASK: Wait for scheduler "thk2" with entities [EventEntity, EventEntity]
  1: 0x0086 [0x81] SET_ENTITY_BLINKING(blink_flag=0x01, entity=EventEntity)
  2: 0x008C [0x00] END_REQSTACK()
```

### Event 65535.9

#### Metadata

| Field        | Value    |
|--------------|----------|
| Entrypoint   | 0x008D   |
| Data Size    | 22 bytes |
| Instructions | 3        |

```
      00 01 02 03 04 05 06 07  08 09 0A 0B 0C 0D 0E 0F
      -- -- -- -- -- -- -- --  -- -- -- -- -- -- -- --
0080:                                         81 00 F8               ...
0090: FF FF 7F 5B 00 80 F8 FF  FF 7F F8 FF FF 7F 73 69  ...[..........si
00A0: 73 30 00                                          s0.             
```

#### Opcodes

```
  0: 0x008D [0x81] SET_ENTITY_BLINKING(blink_flag=0x00, entity=EventEntity)
  1: 0x0093 [0x5B] LOAD_EXT_SCHEDULER: Load scheduler "sis0" with entities [EventEntity, EventEntity], work=358*
  2: 0x00A2 [0x00] END_REQSTACK()
```

### Event 65535.10

#### Metadata

| Field        | Value    |
|--------------|----------|
| Entrypoint   | 0x00A3   |
| Data Size    | 20 bytes |
| Instructions | 3        |

```
      00 01 02 03 04 05 06 07  08 09 0A 0B 0C 0D 0E 0F
      -- -- -- -- -- -- -- --  -- -- -- -- -- -- -- --
00A0:          53 F8 FF FF 7F  F8 FF FF 7F 73 69 73 30     S........sis0
00B0: 81 01 F8 FF FF 7F 00                              .......         
```

#### Opcodes

```
  0: 0x00A3 [0x53] WAIT_SCHEDULER_TASK: Wait for scheduler "sis0" with entities [EventEntity, EventEntity]
  1: 0x00B0 [0x81] SET_ENTITY_BLINKING(blink_flag=0x01, entity=EventEntity)
  2: 0x00B6 [0x00] END_REQSTACK()
```

### Event 65535.11

#### Metadata

| Field        | Value    |
|--------------|----------|
| Entrypoint   | 0x00B7   |
| Data Size    | 22 bytes |
| Instructions | 3        |

```
      00 01 02 03 04 05 06 07  08 09 0A 0B 0C 0D 0E 0F
      -- -- -- -- -- -- -- --  -- -- -- -- -- -- -- --
00B0:                      7C  00 F8 FF FF 7F 5B 00 80         |.....[..
00C0: F8 FF FF 7F F8 FF FF 7F  67 75 74 30 00           ........gut0.   
```

#### Opcodes

```
  0: 0x00B7 [0x7C] EventEntity->Render.Flags2 |= 0x00
  1: 0x00BD [0x5B] LOAD_EXT_SCHEDULER: Load scheduler "gut0" with entities [EventEntity, EventEntity], work=358*
  2: 0x00CC [0x00] END_REQSTACK()
```

### Event 65535.12

#### Metadata

| Field        | Value    |
|--------------|----------|
| Entrypoint   | 0x00CD   |
| Data Size    | 20 bytes |
| Instructions | 3        |

```
      00 01 02 03 04 05 06 07  08 09 0A 0B 0C 0D 0E 0F
      -- -- -- -- -- -- -- --  -- -- -- -- -- -- -- --
00C0:                                         53 F8 FF               S..
00D0: FF 7F F8 FF FF 7F 67 75  74 30 7C 01 F8 FF FF 7F  ......gut0|.....
00E0: 00                                                .               
```

#### Opcodes

```
  0: 0x00CD [0x53] WAIT_SCHEDULER_TASK: Wait for scheduler "gut0" with entities [EventEntity, EventEntity]
  1: 0x00DA [0x7C] EventEntity->Render.Flags2 |= 0x01
  2: 0x00E0 [0x00] END_REQSTACK()
```

### Event 65535.13

#### Metadata

| Field        | Value    |
|--------------|----------|
| Entrypoint   | 0x00E1   |
| Data Size    | 16 bytes |
| Instructions | 2        |

```
      00 01 02 03 04 05 06 07  08 09 0A 0B 0C 0D 0E 0F
      -- -- -- -- -- -- -- --  -- -- -- -- -- -- -- --
00E0:    5B 02 80 F8 FF FF 7F  F8 FF FF 7F 70 6F 69 30   [..........poi0
00F0: 00                                                .               
```

#### Opcodes

```
  0: 0x00E1 [0x5B] LOAD_EXT_SCHEDULER: Load scheduler "poi0" with entities [EventEntity, EventEntity], work=364*
  1: 0x00F0 [0x00] END_REQSTACK()
```

### Event 65535.14

#### Metadata

| Field        | Value    |
|--------------|----------|
| Entrypoint   | 0x00F1   |
| Data Size    | 14 bytes |
| Instructions | 2        |

```
      00 01 02 03 04 05 06 07  08 09 0A 0B 0C 0D 0E 0F
      -- -- -- -- -- -- -- --  -- -- -- -- -- -- -- --
00F0:    53 F8 FF FF 7F F8 FF  FF 7F 70 6F 69 30 00      S........poi0. 
```

#### Opcodes

```
  0: 0x00F1 [0x53] WAIT_SCHEDULER_TASK: Wait for scheduler "poi0" with entities [EventEntity, EventEntity]
  1: 0x00FE [0x00] END_REQSTACK()
```

### Event 65535.15

#### Metadata

| Field        | Value    |
|--------------|----------|
| Entrypoint   | 0x00FF   |
| Data Size    | 16 bytes |
| Instructions | 2        |

```
      00 01 02 03 04 05 06 07  08 09 0A 0B 0C 0D 0E 0F
      -- -- -- -- -- -- -- --  -- -- -- -- -- -- -- --
00F0:                                               5B                 [
0100: 03 80 F8 FF FF 7F F8 FF  FF 7F 70 6F 69 31 00     ..........poi1. 
```

#### Opcodes

```
  0: 0x00FF [0x5B] LOAD_EXT_SCHEDULER: Load scheduler "poi1" with entities [EventEntity, EventEntity], work=360*
  1: 0x010E [0x00] END_REQSTACK()
```

### Event 65535.16

#### Metadata

| Field        | Value    |
|--------------|----------|
| Entrypoint   | 0x010F   |
| Data Size    | 14 bytes |
| Instructions | 2        |

```
      00 01 02 03 04 05 06 07  08 09 0A 0B 0C 0D 0E 0F
      -- -- -- -- -- -- -- --  -- -- -- -- -- -- -- --
0100:                                               53                 S
0110: F8 FF FF 7F F8 FF FF 7F  70 6F 69 31 00           ........poi1.   
```

#### Opcodes

```
  0: 0x010F [0x53] WAIT_SCHEDULER_TASK: Wait for scheduler "poi1" with entities [EventEntity, EventEntity]
  1: 0x011C [0x00] END_REQSTACK()
```

### Event 65535.17

#### Metadata

| Field        | Value    |
|--------------|----------|
| Entrypoint   | 0x011D   |
| Data Size    | 16 bytes |
| Instructions | 2        |

```
      00 01 02 03 04 05 06 07  08 09 0A 0B 0C 0D 0E 0F
      -- -- -- -- -- -- -- --  -- -- -- -- -- -- -- --
0110:                                         5B 03 80               [..
0120: F8 FF FF 7F F8 FF FF 7F  70 6F 69 33 00           ........poi3.   
```

#### Opcodes

```
  0: 0x011D [0x5B] LOAD_EXT_SCHEDULER: Load scheduler "poi3" with entities [EventEntity, EventEntity], work=360*
  1: 0x012C [0x00] END_REQSTACK()
```

### Event 65535.18

#### Metadata

| Field        | Value    |
|--------------|----------|
| Entrypoint   | 0x012D   |
| Data Size    | 14 bytes |
| Instructions | 2        |

```
      00 01 02 03 04 05 06 07  08 09 0A 0B 0C 0D 0E 0F
      -- -- -- -- -- -- -- --  -- -- -- -- -- -- -- --
0120:                                         53 F8 FF               S..
0130: FF 7F F8 FF FF 7F 70 6F  69 33 00                 ......poi3.     
```

#### Opcodes

```
  0: 0x012D [0x53] WAIT_SCHEDULER_TASK: Wait for scheduler "poi3" with entities [EventEntity, EventEntity]
  1: 0x013A [0x00] END_REQSTACK()
```

### Event 65535.19

#### Metadata

| Field        | Value    |
|--------------|----------|
| Entrypoint   | 0x013B   |
| Data Size    | 28 bytes |
| Instructions | 4        |

```
      00 01 02 03 04 05 06 07  08 09 0A 0B 0C 0D 0E 0F
      -- -- -- -- -- -- -- --  -- -- -- -- -- -- -- --
0130:                                   7C 00 F8 FF FF             |....
0140: 7F 81 00 F8 FF FF 7F 5B  02 80 F8 FF FF 7F F8 FF  .......[........
0150: FF 7F 61 6E 67 30 00                              ..ang0.         
```

#### Opcodes

```
  0: 0x013B [0x7C] EventEntity->Render.Flags2 |= 0x00
  1: 0x0141 [0x81] SET_ENTITY_BLINKING(blink_flag=0x00, entity=EventEntity)
  2: 0x0147 [0x5B] LOAD_EXT_SCHEDULER: Load scheduler "ang0" with entities [EventEntity, EventEntity], work=364*
  3: 0x0156 [0x00] END_REQSTACK()
```

### Event 65535.20

#### Metadata

| Field        | Value    |
|--------------|----------|
| Entrypoint   | 0x0157   |
| Data Size    | 26 bytes |
| Instructions | 4        |

```
      00 01 02 03 04 05 06 07  08 09 0A 0B 0C 0D 0E 0F
      -- -- -- -- -- -- -- --  -- -- -- -- -- -- -- --
0150:                      53  F8 FF FF 7F F8 FF FF 7F         S........
0160: 61 6E 67 30 7C 01 F8 FF  FF 7F 81 01 F8 FF FF 7F  ang0|...........
0170: 00                                                .               
```

#### Opcodes

```
  0: 0x0157 [0x53] WAIT_SCHEDULER_TASK: Wait for scheduler "ang0" with entities [EventEntity, EventEntity]
  1: 0x0164 [0x7C] EventEntity->Render.Flags2 |= 0x01
  2: 0x016A [0x81] SET_ENTITY_BLINKING(blink_flag=0x01, entity=EventEntity)
  3: 0x0170 [0x00] END_REQSTACK()
```

### Event 65535.21

#### Metadata

| Field        | Value   |
|--------------|---------|
| Entrypoint   | 0x0171  |
| Data Size    | 9 bytes |
| Instructions | 3       |

```
      00 01 02 03 04 05 06 07  08 09 0A 0B 0C 0D 0E 0F
      -- -- -- -- -- -- -- --  -- -- -- -- -- -- -- --
0170:    5E 69 64 6C 30 1C 01  80 00                     ^idl0....      
```

#### Opcodes

```
  0: 0x0171 [0x5E] EventEntity goes idle (kills current action) (animation: "idl0")
  1: 0x0176 [0x1C] WAIT(30* ticks)
  2: 0x0179 [0x00] END_REQSTACK()
```

### Event 65535.22

#### Metadata

| Field        | Value    |
|--------------|----------|
| Entrypoint   | 0x017A   |
| Data Size    | 16 bytes |
| Instructions | 2        |

```
      00 01 02 03 04 05 06 07  08 09 0A 0B 0C 0D 0E 0F
      -- -- -- -- -- -- -- --  -- -- -- -- -- -- -- --
0170:                                5B 04 80 F8 FF FF            [.....
0180: 7F F8 FF FF 7F 74 67 6D  30 00                    .....tgm0.      
```

#### Opcodes

```
  0: 0x017A [0x5B] LOAD_EXT_SCHEDULER: Load scheduler "tgm0" with entities [EventEntity, EventEntity], work=581*
  1: 0x0189 [0x00] END_REQSTACK()
```

### Event 65535.23

#### Metadata

| Field        | Value    |
|--------------|----------|
| Entrypoint   | 0x018A   |
| Data Size    | 14 bytes |
| Instructions | 2        |

```
      00 01 02 03 04 05 06 07  08 09 0A 0B 0C 0D 0E 0F
      -- -- -- -- -- -- -- --  -- -- -- -- -- -- -- --
0180:                                53 F8 FF FF 7F F8            S.....
0190: FF FF 7F 74 67 6D 30 00                           ...tgm0.        
```

#### Opcodes

```
  0: 0x018A [0x53] WAIT_SCHEDULER_TASK: Wait for scheduler "tgm0" with entities [EventEntity, EventEntity]
  1: 0x0197 [0x00] END_REQSTACK()
```

### Event 42

#### Metadata

| Field        | Value    |
|--------------|----------|
| Entrypoint   | 0x0198   |
| Data Size    | 19 bytes |
| Instructions | 10       |

```
      00 01 02 03 04 05 06 07  08 09 0A 0B 0C 0D 0E 0F
      -- -- -- -- -- -- -- --  -- -- -- -- -- -- -- --
0190:                          1E F0 FF FF 7F 6F 70 1D          .....op.
01A0: 05 80 23 1D 06 80 23 20  00 21 00                 ..#...# .!.     
```

#### Opcodes

```
  0: 0x0198 [0x1E] EventEntity looks at LocalPlayer and starts talking
  1: 0x019D [0x6F] WAIT_FRAME_DELAY: Yield until WaitTime reaches zero
  2: 0x019E [0x70] WAIT_ENTITY_RENDER_FLAG: Wait while EventEntity->Render.Flags3 bit 2 is set (cancel turn if not)
  3: 0x019F [0x1D] PRINT_EVENT_MESSAGE(message_id=9968*)
    → "Stop right there! What business do you have with the chieftainness?"
  4: 0x01A2 [0x23] WAIT_FOR_DIALOG_INTERACTION
  5: 0x01A3 [0x1D] PRINT_EVENT_MESSAGE(message_id=9969*)
    → "It had better be good, or you won't be seeing the light of tomorrow."
  6: 0x01A6 [0x23] WAIT_FOR_DIALOG_INTERACTION
  7: 0x01A7 [0x20] SET_CLI_EVENT_UC_FLAG: Unlock player control
  8: 0x01A9 [0x21] END_EVENT
  9: 0x01AA [0x00] END_REQSTACK()
```

### Event 162

#### Metadata

| Field        | Value    |
|--------------|----------|
| Entrypoint   | 0x01AB   |
| Data Size    | 19 bytes |
| Instructions | 10       |

```
      00 01 02 03 04 05 06 07  08 09 0A 0B 0C 0D 0E 0F
      -- -- -- -- -- -- -- --  -- -- -- -- -- -- -- --
01A0:                                   1E F0 FF FF 7F             .....
01B0: 6F 70 1D 07 80 23 1D 08  80 23 20 00 21 00        op...#...# .!.  
```

#### Opcodes

```
  0: 0x01AB [0x1E] EventEntity looks at LocalPlayer and starts talking
  1: 0x01B0 [0x6F] WAIT_FRAME_DELAY: Yield until WaitTime reaches zero
  2: 0x01B1 [0x70] WAIT_ENTITY_RENDER_FLAG: Wait while EventEntity->Render.Flags3 bit 2 is set (cancel turn if not)
  3: 0x01B2 [0x1D] PRINT_EVENT_MESSAGE(message_id=10333*)
    → "Stop rrright there! What business does someone with such a foul stench have with the chieftainness?"
  4: 0x01B5 [0x23] WAIT_FOR_DIALOG_INTERACTION
  5: 0x01B6 [0x1D] PRINT_EVENT_MESSAGE(message_id=10334*)
    → "It had better be good, because with that body odor, I wouldn't expect you to be seeing the light of tomorrow."
  6: 0x01B9 [0x23] WAIT_FOR_DIALOG_INTERACTION
  7: 0x01BA [0x20] SET_CLI_EVENT_UC_FLAG: Unlock player control
  8: 0x01BC [0x21] END_EVENT
  9: 0x01BD [0x00] END_REQSTACK()
```

### Event 65535.24

#### Metadata

| Field        | Value    |
|--------------|----------|
| Entrypoint   | 0x01BE   |
| Data Size    | 27 bytes |
| Instructions | 7        |

```
      00 01 02 03 04 05 06 07  08 09 0A 0B 0C 0D 0E 0F
      -- -- -- -- -- -- -- --  -- -- -- -- -- -- -- --
01B0:                                            32 09                2.
01C0: 80 1F 00 0A 80 0B 80 0C  80 1F 01 4B F8 FF FF 7F  ...........K....
01D0: 0D 80 6F 76 F8 FF FF 7F  00                       ..ov.....       
```

#### Opcodes

```
  0: 0x01BE [0x32] ExtData[1]->MainSpeed = 13* * 0.1
  1: 0x01C1 [0x1F] MOVE_ENTITY: EventEntity moves to X=94.089*, Z=-112.275*, Y=-14.499*
  2: 0x01C9 [0x1F] MOVE_ENTITY: Update entity position (mode=1)
  3: 0x01CB [0x4B] UPDATE_ENTITY_YAW(entity=EventEntity, yaw=22.5°*)
  4: 0x01D2 [0x6F] WAIT_FRAME_DELAY: Yield until WaitTime reaches zero
  5: 0x01D3 [0x76] CHECK_ENTITY_RENDER_FLAGS: Wait until EventEntity Render.Flags0 and Render.Flags3 conditions are met
  6: 0x01D8 [0x00] END_REQSTACK()
```

### Event 44

#### Metadata

| Field        | Value      |
|--------------|------------|
| Entrypoint   | 0x01D9     |
| Data Size    | 1288 bytes |
| Instructions | 160        |

```
      00 01 02 03 04 05 06 07  08 09 0A 0B 0C 0D 0E 0F
      -- -- -- -- -- -- -- --  -- -- -- -- -- -- -- --
01D0:                             20 01 42 46 01 1E F0            .BF...
01E0: FF FF 7F 5D 0E 80 0F 80  45 0F 80 F0 FF FF 7F F0  ...]....E.......
01F0: FF FF 7F 66 64 6F 31 0E  80 1C 10 80 75 00 11 80  ...fdo1.....u...
0200: 75 01 6F 70 38 12 80 29  0B F0 FF FF 7F 08 29 08  u.op8..)......).
0210: F0 FF FF 7F 05 4A 09 A0  0F 01 F0 FF FF 7F 4A F0  .....J........J.
0220: FF FF 7F 09 A0 0F 01 6F  76 09 A0 0F 01 6F 76 F0  .......ov....ov.
0230: FF FF 7F 4E 01 4A A0 0F  01 4E 01 4F A0 0F 01 5C  ...N.J...N.O...\
0240: 00 13 80 5C 01 13 80 1C  0F 80 02 09 10 14 80 00  ...\............
0250: 66 02 45 15 80 F0 FF FF  7F F0 FF FF 7F 73 31 30  f.E..........s10
0260: 36 0E 80 01 93 02 02 09  10 16 80 00 82 02 45 15  6.............E.
0270: 80 F0 FF FF 7F F0 FF FF  7F 73 31 30 36 0E 80 01  .........s106...
0280: 93 02 45 15 80 F0 FF FF  7F F0 FF FF 7F 73 30 30  ..E..........s00
0290: 30 0E 80 45 0F 80 F0 FF  FF 7F F0 FF FF 7F 66 64  0..E..........fd
02A0: 69 31 0E 80 29 08 09 A0  0F 01 03 29 0B 09 A0 0F  i1..)......)....
02B0: 01 1C 29 08 09 A0 0F 01  04 29 08 09 A0 0F 01 05  ..)......)......
02C0: 29 0B 09 A0 0F 01 1D 29  08 09 A0 0F 01 06 02 09  )......)........
02D0: 10 14 80 00 E8 02 52 15  80 F0 FF FF 7F F0 FF FF  ......R.........
02E0: 7F 73 31 30 36 01 11 03  02 09 10 16 80 00 02 03  .s106...........
02F0: 52 15 80 F0 FF FF 7F F0  FF FF 7F 73 31 30 36 01  R..........s106.
0300: 11 03 52 15 80 F0 FF FF  7F F0 FF FF 7F 73 30 30  ..R..........s00
0310: 30 02 09 10 12 80 00 2D  03 45 15 80 F0 FF FF 7F  0......-.E......
0320: F0 FF FF 7F 73 31 31 30  0E 80 01 92 03 02 09 10  ....s110........
0330: 14 80 00 49 03 45 15 80  F0 FF FF 7F F0 FF FF 7F  ...I.E..........
0340: 73 31 30 39 0E 80 01 92  03 02 09 10 16 80 00 65  s109...........e
0350: 03 45 15 80 F0 FF FF 7F  F0 FF FF 7F 73 31 30 39  .E..........s109
0360: 0E 80 01 92 03 02 09 10  17 80 00 81 03 45 15 80  .............E..
0370: F0 FF FF 7F F0 FF FF 7F  73 31 31 30 0E 80 01 92  ........s110....
0380: 03 45 15 80 F0 FF FF 7F  F0 FF FF 7F 73 30 38 38  .E..........s088
0390: 0E 80 29 08 09 A0 0F 01  07 29 0B 09 A0 0F 01 1E  ..)......)......
03A0: 29 08 09 A0 0F 01 08 24  18 80 0E 80 0E 80 25 02  )......$......%.
03B0: 00 10 0E 80 00 5C 04 02  09 10 12 80 00 D1 03 52  .....\.........R
03C0: 15 80 F0 FF FF 7F F0 FF  FF 7F 73 31 31 30 01 2E  ..........s110..
03D0: 04 02 09 10 14 80 00 EB  03 52 15 80 F0 FF FF 7F  .........R......
03E0: F0 FF FF 7F 73 31 30 39  01 2E 04 02 09 10 16 80  ....s109........
03F0: 00 05 04 52 15 80 F0 FF  FF 7F F0 FF FF 7F 73 31  ...R..........s1
0400: 30 39 01 2E 04 02 09 10  17 80 00 1F 04 52 15 80  09...........R..
0410: F0 FF FF 7F F0 FF FF 7F  73 31 31 30 01 2E 04 52  ........s110...R
0420: 15 80 F0 FF FF 7F F0 FF  FF 7F 73 30 38 38 45 15  ..........s088E.
0430: 80 F0 FF FF 7F F0 FF FF  7F 73 30 38 39 0E 80 03  .........s089...
0440: 01 10 19 80 29 08 09 A0  0F 01 03 29 0B 09 A0 0F  ....)......)....
0450: 01 1F 29 08 09 A0 0F 01  04 01 09 05 02 00 10 19  ..).............
0460: 80 00 09 05 02 09 10 12  80 00 7E 04 52 15 80 F0  ..........~.R...
0470: FF FF 7F F0 FF FF 7F 73  31 31 30 01 DB 04 02 09  .......s110.....
0480: 10 14 80 00 98 04 52 15  80 F0 FF FF 7F F0 FF FF  ......R.........
0490: 7F 73 31 30 39 01 DB 04  02 09 10 16 80 00 B2 04  .s109...........
04A0: 52 15 80 F0 FF FF 7F F0  FF FF 7F 73 31 30 39 01  R..........s109.
04B0: DB 04 02 09 10 17 80 00  CC 04 52 15 80 F0 FF FF  ..........R.....
04C0: 7F F0 FF FF 7F 73 31 31  30 01 DB 04 52 15 80 F0  .....s110...R...
04D0: FF FF 7F F0 FF FF 7F 73  30 38 38 45 15 80 F0 FF  .......s088E....
04E0: FF 7F F0 FF FF 7F 73 30  38 39 0E 80 03 01 10 1A  ......s089......
04F0: 80 29 08 09 A0 0F 01 03  29 0B 09 A0 0F 01 20 29  .)......)..... )
0500: 08 09 A0 0F 01 04 01 09  05 29 0B 09 A0 0F 01 21  .........).....!
0510: 45 0F 80 F0 FF FF 7F F0  FF FF 7F 66 64 6F 31 0E  E..........fdo1.
0520: 80 1C 10 80 4A 08 A0 0F  01 09 A0 0F 01 6F 76 08  ....J........ov.
0530: A0 0F 01 2C 09 A0 0F 01  09 A0 0F 01 77 6F 6E 34  ...,........won4
0540: 52 15 80 F0 FF FF 7F F0  FF FF 7F 73 30 38 39 29  R..........s089)
0550: 08 09 A0 0F 01 16 45 15  80 F0 FF FF 7F F0 FF FF  ......E.........
0560: 7F 73 30 39 30 0E 80 45  0F 80 F0 FF FF 7F F0 FF  .s090..E........
0570: FF 7F 66 64 69 31 0E 80  29 0B 09 A0 0F 01 22 52  ..fdi1..)....."R
0580: 15 80 F0 FF FF 7F F0 FF  FF 7F 73 30 39 30 45 0F  ..........s090E.
0590: 80 F0 FF FF 7F F0 FF FF  7F 6F 76 6C 31 0E 80 45  .........ovl1..E
05A0: 15 80 F0 FF FF 7F F0 FF  FF 7F 73 30 39 32 0E 80  ..........s092..
05B0: 2B 09 A0 0F 01 1B 80 23  2B 09 A0 0F 01 1C 80 23  +......#+......#
05C0: 45 0F 80 F0 FF FF 7F F0  FF FF 7F 66 64 6F 31 0E  E..........fdo1.
05D0: 80 1C 10 80 2C 09 A0 0F  01 09 A0 0F 01 77 6F 66  ....,........wof
05E0: 34 27 08 08 A0 0F 01 20  29 08 09 A0 0F 01 15 52  4'..... )......R
05F0: 15 80 F0 FF FF 7F F0 FF  FF 7F 73 30 39 32 45 15  ..........s092E.
0600: 80 F0 FF FF 7F F0 FF FF  7F 73 30 39 31 0E 80 45  .........s091..E
0610: 0F 80 F0 FF FF 7F F0 FF  FF 7F 66 64 69 31 0E 80  ..........fdi1..
0620: 29 08 09 A0 0F 01 09 29  0B 09 A0 0F 01 23 29 08  )......).....#).
0630: 09 A0 0F 01 0A 2A 08 08  A0 0F 01 52 15 80 F0 FF  .....*.....R....
0640: FF 7F F0 FF FF 7F 73 30  39 31 45 15 80 F0 FF FF  ......s091E.....
0650: 7F F0 FF FF 7F 73 30 39  33 0E 80 4A F0 FF FF 7F  .....s093..J....
0660: 08 A0 0F 01 4A 09 A0 0F  01 08 A0 0F 01 27 0B 08  ....J........'..
0670: A0 0F 01 1F 2B 08 A0 0F  01 1D 80 23 2A 0B 08 A0  ....+......#*...
0680: 0F 01 29 08 08 A0 0F 01  01 2B 08 A0 0F 01 1E 80  ..)......+......
0690: 23 29 08 08 A0 0F 01 02  29 08 08 A0 0F 01 03 5D  #)......)......]
06A0: 0E 80 0F 80 45 0F 80 F0  FF FF 7F F0 FF FF 7F 66  ....E..........f
06B0: 64 6F 31 0E 80 1C 1F 80  29 08 08 A0 0F 01 04 46  do1.....)......F
06C0: 00 5C 00 20 80 5C 01 20  80 1C 0F 80 45 0F 80 F0  .\. .\. ....E...
06D0: FF FF 7F F0 FF FF 7F 66  64 69 31 0E 80 20 00 21  .......fdi1.. .!
06E0: 00                                                .               
```

#### Opcodes

```
  0: 0x01D9 [0x20] SET_CLI_EVENT_UC_FLAG: Lock player control
  1: 0x01DB [0x42] SET_CLI_EVENT_CANCEL_DATA()
  2: 0x01DC [0x46] CAMERA_CONTROL: Disable user control
  3: 0x01DE [0x1E] EventEntity looks at LocalPlayer and starts talking
  4: 0x01E3 [0x5D] SET_MUSIC_VOLUME(volume=0*, fade_time=200*)
  5: 0x01E8 [0x45] LOAD_SCHEDULED_TASK: Load scheduler "fdo1" with entities [LocalPlayer, LocalPlayer], work=[200*, 0*]
  6: 0x01F9 [0x1C] WAIT(60* ticks)
  7: 0x01FC [0x75] LOAD_ROOM(Load indoor room, room=507*)
  8: 0x0200 [0x75] LOAD_ROOM(No action)
  9: 0x0202 [0x6F] WAIT_FRAME_DELAY: Yield until WaitTime reaches zero
 10: 0x0203 [0x70] WAIT_ENTITY_RENDER_FLAG: Wait while EventEntity->Render.Flags3 bit 2 is set (cancel turn if not)
 11: 0x0204 [0x38] SET_CLIENT_EVENT_MODE(mode=3*)
 12: 0x0207 [0x29] REQ_SET_WAIT(priority=0x0B, entity_id=LocalPlayer, tag_num=0x08)
 13: 0x020E [0x29] REQ_SET_WAIT(priority=0x08, entity_id=LocalPlayer, tag_num=0x05)
 14: 0x0215 [0x4A] Etteh Sulaej (ID: 17801225/0x010FA009) looks at LocalPlayer
 15: 0x021E [0x4A] LocalPlayer looks at Etteh Sulaej (ID: 17801225/0x010FA009)
 16: 0x0227 [0x6F] WAIT_FRAME_DELAY: Yield until WaitTime reaches zero
 17: 0x0228 [0x76] CHECK_ENTITY_RENDER_FLAGS: Wait until Etteh Sulaej (ID: 17801225/0x010FA009) Render.Flags0 and Render.Flags3 conditions are met
 18: 0x022D [0x6F] WAIT_FRAME_DELAY: Yield until WaitTime reaches zero
 19: 0x022E [0x76] CHECK_ENTITY_RENDER_FLAGS: Wait until LocalPlayer Render.Flags0 and Render.Flags3 conditions are met
 20: 0x0233 [0x4E] SET_ENTITY_HIDE_FLAG: Hide Mumupp (ID: 17801290/0x010FA04A)
 21: 0x0239 [0x4E] SET_ENTITY_HIDE_FLAG: Hide Kakapp (ID: 17801295/0x010FA04F)
 22: 0x023F [0x5C] MUSIC_CONTROL: Set Idle (Day) music to song 163*
 23: 0x0243 [0x5C] MUSIC_CONTROL: Set Idle (Night) music to song 163*
 24: 0x0247 [0x1C] WAIT(200* ticks)
 25: 0x024A [0x02] IF !(Work_Zone[9] == 5*) GOTO 0x0266
 26: 0x0252 [0x45] LOAD_SCHEDULED_TASK: Load scheduler "s106" with entities [LocalPlayer, LocalPlayer], work=[150*, 0*]
 27: 0x0263 [0x01] GOTO 0x0293
 28: 0x0266 [0x02] IF !(Work_Zone[9] == 6*) GOTO 0x0282
 29: 0x026E [0x45] LOAD_SCHEDULED_TASK: Load scheduler "s106" with entities [LocalPlayer, LocalPlayer], work=[150*, 0*]
 30: 0x027F [0x01] GOTO 0x0293
 31: 0x0282 [0x45] LOAD_SCHEDULED_TASK: Load scheduler "s000" with entities [LocalPlayer, LocalPlayer], work=[150*, 0*]

SUBROUTINE_0293:
 32: 0x0293 [0x45] LOAD_SCHEDULED_TASK: Load scheduler "fdi1" with entities [LocalPlayer, LocalPlayer], work=[200*, 0*]
 33: 0x02A4 [0x29] REQ_SET_WAIT(priority=0x08, entity_id=Etteh Sulaej (ID: 17801225/0x010FA009), tag_num=0x03)
 34: 0x02AB [0x29] REQ_SET_WAIT(priority=0x0B, entity_id=Etteh Sulaej (ID: 17801225/0x010FA009), tag_num=0x1C)
 35: 0x02B2 [0x29] REQ_SET_WAIT(priority=0x08, entity_id=Etteh Sulaej (ID: 17801225/0x010FA009), tag_num=0x04)
 36: 0x02B9 [0x29] REQ_SET_WAIT(priority=0x08, entity_id=Etteh Sulaej (ID: 17801225/0x010FA009), tag_num=0x05)
 37: 0x02C0 [0x29] REQ_SET_WAIT(priority=0x0B, entity_id=Etteh Sulaej (ID: 17801225/0x010FA009), tag_num=0x1D)
 38: 0x02C7 [0x29] REQ_SET_WAIT(priority=0x08, entity_id=Etteh Sulaej (ID: 17801225/0x010FA009), tag_num=0x06)
 39: 0x02CE [0x02] IF !(Work_Zone[9] == 5*) GOTO 0x02E8
 40: 0x02D6 [0x52] END_LOAD_SCHEDULER: End scheduler "s106" with entities [LocalPlayer, LocalPlayer], work=150*
 41: 0x02E5 [0x01] GOTO 0x0311
 42: 0x02E8 [0x02] IF !(Work_Zone[9] == 6*) GOTO 0x0302
 43: 0x02F0 [0x52] END_LOAD_SCHEDULER: End scheduler "s106" with entities [LocalPlayer, LocalPlayer], work=150*
 44: 0x02FF [0x01] GOTO 0x0311
 45: 0x0302 [0x52] END_LOAD_SCHEDULER: End scheduler "s000" with entities [LocalPlayer, LocalPlayer], work=150*

SUBROUTINE_0311:
 46: 0x0311 [0x02] IF !(Work_Zone[9] == 3*) GOTO 0x032D
 47: 0x0319 [0x45] LOAD_SCHEDULED_TASK: Load scheduler "s110" with entities [LocalPlayer, LocalPlayer], work=[150*, 0*]
 48: 0x032A [0x01] GOTO 0x0392
 49: 0x032D [0x02] IF !(Work_Zone[9] == 5*) GOTO 0x0349
 50: 0x0335 [0x45] LOAD_SCHEDULED_TASK: Load scheduler "s109" with entities [LocalPlayer, LocalPlayer], work=[150*, 0*]
 51: 0x0346 [0x01] GOTO 0x0392
 52: 0x0349 [0x02] IF !(Work_Zone[9] == 6*) GOTO 0x0365
 53: 0x0351 [0x45] LOAD_SCHEDULED_TASK: Load scheduler "s109" with entities [LocalPlayer, LocalPlayer], work=[150*, 0*]
 54: 0x0362 [0x01] GOTO 0x0392
 55: 0x0365 [0x02] IF !(Work_Zone[9] == 8*) GOTO 0x0381
 56: 0x036D [0x45] LOAD_SCHEDULED_TASK: Load scheduler "s110" with entities [LocalPlayer, LocalPlayer], work=[150*, 0*]
 57: 0x037E [0x01] GOTO 0x0392
 58: 0x0381 [0x45] LOAD_SCHEDULED_TASK: Load scheduler "s088" with entities [LocalPlayer, LocalPlayer], work=[150*, 0*]

SUBROUTINE_0392:
 59: 0x0392 [0x29] REQ_SET_WAIT(priority=0x08, entity_id=Etteh Sulaej (ID: 17801225/0x010FA009), tag_num=0x07)
 60: 0x0399 [0x29] REQ_SET_WAIT(priority=0x0B, entity_id=Etteh Sulaej (ID: 17801225/0x010FA009), tag_num=0x1E)
 61: 0x03A0 [0x29] REQ_SET_WAIT(priority=0x08, entity_id=Etteh Sulaej (ID: 17801225/0x010FA009), tag_num=0x08)
 62: 0x03A7 [0x24] CREATE_DIALOG(message_id=10096*, default_option=0*, option_flags=0*)
    → "Do you know an Angelica? [Of course./Never heard of her.]"
 63: 0x03AE [0x25] WAIT_DIALOG_SELECT()
 64: 0x03AF [0x02] IF !(Work_Zone[0] == 0*) GOTO 0x045C
 65: 0x03B7 [0x02] IF !(Work_Zone[9] == 3*) GOTO 0x03D1
 66: 0x03BF [0x52] END_LOAD_SCHEDULER: End scheduler "s110" with entities [LocalPlayer, LocalPlayer], work=150*
 67: 0x03CE [0x01] GOTO 0x042E
 68: 0x03D1 [0x02] IF !(Work_Zone[9] == 5*) GOTO 0x03EB
 69: 0x03D9 [0x52] END_LOAD_SCHEDULER: End scheduler "s109" with entities [LocalPlayer, LocalPlayer], work=150*
 70: 0x03E8 [0x01] GOTO 0x042E
 71: 0x03EB [0x02] IF !(Work_Zone[9] == 6*) GOTO 0x0405
 72: 0x03F3 [0x52] END_LOAD_SCHEDULER: End scheduler "s109" with entities [LocalPlayer, LocalPlayer], work=150*
 73: 0x0402 [0x01] GOTO 0x042E
 74: 0x0405 [0x02] IF !(Work_Zone[9] == 8*) GOTO 0x041F
 75: 0x040D [0x52] END_LOAD_SCHEDULER: End scheduler "s110" with entities [LocalPlayer, LocalPlayer], work=150*
 76: 0x041C [0x01] GOTO 0x042E
 77: 0x041F [0x52] END_LOAD_SCHEDULER: End scheduler "s088" with entities [LocalPlayer, LocalPlayer], work=150*

SUBROUTINE_042E:
 78: 0x042E [0x45] LOAD_SCHEDULED_TASK: Load scheduler "s089" with entities [LocalPlayer, LocalPlayer], work=[150*, 0*]
 79: 0x043F [0x03] Work_Zone[1] = 1*
 80: 0x0444 [0x29] REQ_SET_WAIT(priority=0x08, entity_id=Etteh Sulaej (ID: 17801225/0x010FA009), tag_num=0x03)
 81: 0x044B [0x29] REQ_SET_WAIT(priority=0x0B, entity_id=Etteh Sulaej (ID: 17801225/0x010FA009), tag_num=0x1F)
 82: 0x0452 [0x29] REQ_SET_WAIT(priority=0x08, entity_id=Etteh Sulaej (ID: 17801225/0x010FA009), tag_num=0x04)
 83: 0x0459 [0x01] GOTO 0x0509
 84: 0x045C [0x02] IF !(Work_Zone[0] == 1*) GOTO 0x0509
 85: 0x0464 [0x02] IF !(Work_Zone[9] == 3*) GOTO 0x047E
 86: 0x046C [0x52] END_LOAD_SCHEDULER: End scheduler "s110" with entities [LocalPlayer, LocalPlayer], work=150*
 87: 0x047B [0x01] GOTO 0x04DB
 88: 0x047E [0x02] IF !(Work_Zone[9] == 5*) GOTO 0x0498
 89: 0x0486 [0x52] END_LOAD_SCHEDULER: End scheduler "s109" with entities [LocalPlayer, LocalPlayer], work=150*
 90: 0x0495 [0x01] GOTO 0x04DB
 91: 0x0498 [0x02] IF !(Work_Zone[9] == 6*) GOTO 0x04B2
 92: 0x04A0 [0x52] END_LOAD_SCHEDULER: End scheduler "s109" with entities [LocalPlayer, LocalPlayer], work=150*
 93: 0x04AF [0x01] GOTO 0x04DB
 94: 0x04B2 [0x02] IF !(Work_Zone[9] == 8*) GOTO 0x04CC
 95: 0x04BA [0x52] END_LOAD_SCHEDULER: End scheduler "s110" with entities [LocalPlayer, LocalPlayer], work=150*
 96: 0x04C9 [0x01] GOTO 0x04DB
 97: 0x04CC [0x52] END_LOAD_SCHEDULER: End scheduler "s088" with entities [LocalPlayer, LocalPlayer], work=150*

SUBROUTINE_04DB:
 98: 0x04DB [0x45] LOAD_SCHEDULED_TASK: Load scheduler "s089" with entities [LocalPlayer, LocalPlayer], work=[150*, 0*]
 99: 0x04EC [0x03] Work_Zone[1] = 2*
100: 0x04F1 [0x29] REQ_SET_WAIT(priority=0x08, entity_id=Etteh Sulaej (ID: 17801225/0x010FA009), tag_num=0x03)
101: 0x04F8 [0x29] REQ_SET_WAIT(priority=0x0B, entity_id=Etteh Sulaej (ID: 17801225/0x010FA009), tag_num=0x20)
102: 0x04FF [0x29] REQ_SET_WAIT(priority=0x08, entity_id=Etteh Sulaej (ID: 17801225/0x010FA009), tag_num=0x04)
103: 0x0506 [0x01] GOTO 0x0509

SUBROUTINE_0509:
104: 0x0509 [0x29] REQ_SET_WAIT(priority=0x0B, entity_id=Etteh Sulaej (ID: 17801225/0x010FA009), tag_num=0x21)
105: 0x0510 [0x45] LOAD_SCHEDULED_TASK: Load scheduler "fdo1" with entities [LocalPlayer, LocalPlayer], work=[200*, 0*]
106: 0x0521 [0x1C] WAIT(60* ticks)
107: 0x0524 [0x4A] Jakoh Wahcondalo (ID: 17801224/0x010FA008) looks at Etteh Sulaej (ID: 17801225/0x010FA009)
108: 0x052D [0x6F] WAIT_FRAME_DELAY: Yield until WaitTime reaches zero
109: 0x052E [0x76] CHECK_ENTITY_RENDER_FLAGS: Wait until Jakoh Wahcondalo (ID: 17801224/0x010FA008) Render.Flags0 and Render.Flags3 conditions are met
110: 0x0533 [0x2C] CREATE_SCHEDULER_TASK: Create scheduler "won4" with entities [Etteh Sulaej (ID: 17801225/0x010FA009), Etteh Sulaej (ID: 17801225/0x010FA009)]
111: 0x0540 [0x52] END_LOAD_SCHEDULER: End scheduler "s089" with entities [LocalPlayer, LocalPlayer], work=150*
112: 0x054F [0x29] REQ_SET_WAIT(priority=0x08, entity_id=Etteh Sulaej (ID: 17801225/0x010FA009), tag_num=0x16)
113: 0x0556 [0x45] LOAD_SCHEDULED_TASK: Load scheduler "s090" with entities [LocalPlayer, LocalPlayer], work=[150*, 0*]
114: 0x0567 [0x45] LOAD_SCHEDULED_TASK: Load scheduler "fdi1" with entities [LocalPlayer, LocalPlayer], work=[200*, 0*]
115: 0x0578 [0x29] REQ_SET_WAIT(priority=0x0B, entity_id=Etteh Sulaej (ID: 17801225/0x010FA009), tag_num=0x22)
116: 0x057F [0x52] END_LOAD_SCHEDULER: End scheduler "s090" with entities [LocalPlayer, LocalPlayer], work=150*
117: 0x058E [0x45] LOAD_SCHEDULED_TASK: Load scheduler "ovl1" with entities [LocalPlayer, LocalPlayer], work=[200*, 0*]
118: 0x059F [0x45] LOAD_SCHEDULED_TASK: Load scheduler "s092" with entities [LocalPlayer, LocalPlayer], work=[150*, 0*]
119: 0x05B0 [0x2B] Etteh Sulaej (ID: 17801225/0x010FA009) [10102*]:
    → ""Ever since I picked up my first brush, I have dreamed of having my works put on display at a private exhibition. After hearing this adventurer's words, I feel that this may be my chance."
120: 0x05B7 [0x23] WAIT_FOR_DIALOG_INTERACTION
121: 0x05B8 [0x2B] Etteh Sulaej (ID: 17801225/0x010FA009) [10103*]:
    → ""Chieftainness, you've got to let me display my works in the Temple of Uggalepih's gallery. I'll even pay you, if that's what you want.""
122: 0x05BF [0x23] WAIT_FOR_DIALOG_INTERACTION
123: 0x05C0 [0x45] LOAD_SCHEDULED_TASK: Load scheduler "fdo1" with entities [LocalPlayer, LocalPlayer], work=[200*, 0*]
124: 0x05D1 [0x1C] WAIT(60* ticks)
125: 0x05D4 [0x2C] CREATE_SCHEDULER_TASK: Create scheduler "wof4" with entities [Etteh Sulaej (ID: 17801225/0x010FA009), Etteh Sulaej (ID: 17801225/0x010FA009)]
126: 0x05E1 [0x27] REQ_SET(priority=0x08, entity_id=Jakoh Wahcondalo (ID: 17801224/0x010FA008), tag_num=0x20)
127: 0x05E8 [0x29] REQ_SET_WAIT(priority=0x08, entity_id=Etteh Sulaej (ID: 17801225/0x010FA009), tag_num=0x15)
128: 0x05EF [0x52] END_LOAD_SCHEDULER: End scheduler "s092" with entities [LocalPlayer, LocalPlayer], work=150*
129: 0x05FE [0x45] LOAD_SCHEDULED_TASK: Load scheduler "s091" with entities [LocalPlayer, LocalPlayer], work=[150*, 0*]
130: 0x060F [0x45] LOAD_SCHEDULED_TASK: Load scheduler "fdi1" with entities [LocalPlayer, LocalPlayer], work=[200*, 0*]
131: 0x0620 [0x29] REQ_SET_WAIT(priority=0x08, entity_id=Etteh Sulaej (ID: 17801225/0x010FA009), tag_num=0x09)
132: 0x0627 [0x29] REQ_SET_WAIT(priority=0x0B, entity_id=Etteh Sulaej (ID: 17801225/0x010FA009), tag_num=0x23)
133: 0x062E [0x29] REQ_SET_WAIT(priority=0x08, entity_id=Etteh Sulaej (ID: 17801225/0x010FA009), tag_num=0x0A)
134: 0x0635 [0x2A] GET_REQ_LEVEL(level=8, entity_id=Jakoh Wahcondalo (ID: 17801224/0x010FA008))
135: 0x063B [0x52] END_LOAD_SCHEDULER: End scheduler "s091" with entities [LocalPlayer, LocalPlayer], work=150*
136: 0x064A [0x45] LOAD_SCHEDULED_TASK: Load scheduler "s093" with entities [LocalPlayer, LocalPlayer], work=[150*, 0*]
137: 0x065B [0x4A] LocalPlayer looks at Jakoh Wahcondalo (ID: 17801224/0x010FA008)
138: 0x0664 [0x4A] Etteh Sulaej (ID: 17801225/0x010FA009) looks at Jakoh Wahcondalo (ID: 17801224/0x010FA008)
139: 0x066D [0x27] REQ_SET(priority=0x0B, entity_id=Jakoh Wahcondalo (ID: 17801224/0x010FA008), tag_num=0x1F)
140: 0x0674 [0x2B] Jakoh Wahcondalo (ID: 17801224/0x010FA008) [10105*]:
    → "You. Come over here. If you are traveling in Windurst, I'd like you to deliver this letter to a Hume by the name of Angelica."
141: 0x067B [0x23] WAIT_FOR_DIALOG_INTERACTION
142: 0x067C [0x2A] GET_REQ_LEVEL(level=11, entity_id=Jakoh Wahcondalo (ID: 17801224/0x010FA008))
143: 0x0682 [0x29] REQ_SET_WAIT(priority=0x08, entity_id=Jakoh Wahcondalo (ID: 17801224/0x010FA008), tag_num=0x01)
144: 0x0689 [0x2B] Jakoh Wahcondalo (ID: 17801224/0x010FA008) [10106*]:
    → "I explained to her in detail about the dangerrrs of Uggalepih. Not that I expect her to listen..."
145: 0x0690 [0x23] WAIT_FOR_DIALOG_INTERACTION
146: 0x0691 [0x29] REQ_SET_WAIT(priority=0x08, entity_id=Jakoh Wahcondalo (ID: 17801224/0x010FA008), tag_num=0x02)
147: 0x0698 [0x29] REQ_SET_WAIT(priority=0x08, entity_id=Jakoh Wahcondalo (ID: 17801224/0x010FA008), tag_num=0x03)
148: 0x069F [0x5D] SET_MUSIC_VOLUME(volume=0*, fade_time=200*)
149: 0x06A4 [0x45] LOAD_SCHEDULED_TASK: Load scheduler "fdo1" with entities [LocalPlayer, LocalPlayer], work=[200*, 0*]
150: 0x06B5 [0x1C] WAIT(100* ticks)
151: 0x06B8 [0x29] REQ_SET_WAIT(priority=0x08, entity_id=Jakoh Wahcondalo (ID: 17801224/0x010FA008), tag_num=0x04)
152: 0x06BF [0x46] CAMERA_CONTROL: Restore default settings
153: 0x06C1 [0x5C] MUSIC_CONTROL: Set Idle (Day) music to song 135*
154: 0x06C5 [0x5C] MUSIC_CONTROL: Set Idle (Night) music to song 135*
155: 0x06C9 [0x1C] WAIT(200* ticks)
156: 0x06CC [0x45] LOAD_SCHEDULED_TASK: Load scheduler "fdi1" with entities [LocalPlayer, LocalPlayer], work=[200*, 0*]
157: 0x06DD [0x20] SET_CLI_EVENT_UC_FLAG: Unlock player control
158: 0x06DF [0x21] END_EVENT
159: 0x06E0 [0x00] END_REQSTACK()
```

### Event 65535.25

#### Metadata

| Field        | Value   |
|--------------|---------|
| Entrypoint   | 0x06E1  |
| Data Size    | 5 bytes |
| Instructions | 3       |

```
      00 01 02 03 04 05 06 07  08 09 0A 0B 0C 0D 0E 0F
      -- -- -- -- -- -- -- --  -- -- -- -- -- -- -- --
06E0:    1D 21 80 23 00                                  .!.#.          
```

#### Opcodes

```
  0: 0x06E1 [0x1D] PRINT_EVENT_MESSAGE(message_id=10093*)
    → "What the..."
  1: 0x06E4 [0x23] WAIT_FOR_DIALOG_INTERACTION
  2: 0x06E5 [0x00] END_REQSTACK()
```

### Event 65535.26

#### Metadata

| Field        | Value   |
|--------------|---------|
| Entrypoint   | 0x06E6  |
| Data Size    | 5 bytes |
| Instructions | 3       |

```
      00 01 02 03 04 05 06 07  08 09 0A 0B 0C 0D 0E 0F
      -- -- -- -- -- -- -- --  -- -- -- -- -- -- -- --
06E0:                   1D 22  80 23 00                       .".#.     
```

#### Opcodes

```
  0: 0x06E6 [0x1D] PRINT_EVENT_MESSAGE(message_id=10094*)
    → "Unbelievable! What the hell are those mainlanders thinking?"
  1: 0x06E9 [0x23] WAIT_FOR_DIALOG_INTERACTION
  2: 0x06EA [0x00] END_REQSTACK()
```

### Event 65535.27

#### Metadata

| Field        | Value   |
|--------------|---------|
| Entrypoint   | 0x06EB  |
| Data Size    | 5 bytes |
| Instructions | 3       |

```
      00 01 02 03 04 05 06 07  08 09 0A 0B 0C 0D 0E 0F
      -- -- -- -- -- -- -- --  -- -- -- -- -- -- -- --
06E0:                                   1D 23 80 23 00             .#.#.
```

#### Opcodes

```
  0: 0x06EB [0x1D] PRINT_EVENT_MESSAGE(message_id=10095*)
    → "Hold on there. You're from the mainlands. You wouldn't happen to know a Hume named Angelica, would you?"
  1: 0x06EE [0x23] WAIT_FOR_DIALOG_INTERACTION
  2: 0x06EF [0x00] END_REQSTACK()
```

### Event 65535.28

#### Metadata

| Field        | Value   |
|--------------|---------|
| Entrypoint   | 0x06F0  |
| Data Size    | 5 bytes |
| Instructions | 3       |

```
      00 01 02 03 04 05 06 07  08 09 0A 0B 0C 0D 0E 0F
      -- -- -- -- -- -- -- --  -- -- -- -- -- -- -- --
06F0: 1D 24 80 23 00                                    .$.#.           
```

#### Opcodes

```
  0: 0x06F0 [0x1D] PRINT_EVENT_MESSAGE(message_id=10097*)
    → "Well, who the hell does she think she is? The other day, she sent this letter to the chieftainness."
  1: 0x06F3 [0x23] WAIT_FOR_DIALOG_INTERACTION
  2: 0x06F4 [0x00] END_REQSTACK()
```

### Event 65535.29

#### Metadata

| Field        | Value   |
|--------------|---------|
| Entrypoint   | 0x06F5  |
| Data Size    | 5 bytes |
| Instructions | 3       |

```
      00 01 02 03 04 05 06 07  08 09 0A 0B 0C 0D 0E 0F
      -- -- -- -- -- -- -- --  -- -- -- -- -- -- -- --
06F0:                1D 25 80  23 00                         .%.#.      
```

#### Opcodes

```
  0: 0x06F5 [0x1D] PRINT_EVENT_MESSAGE(message_id=10098*)
    → "Well, aren't you lucky. The other day, this Angelica sent a letter to the chieftainness."
  1: 0x06F8 [0x23] WAIT_FOR_DIALOG_INTERACTION
  2: 0x06F9 [0x00] END_REQSTACK()
```

### Event 65535.30

#### Metadata

| Field        | Value   |
|--------------|---------|
| Entrypoint   | 0x06FA  |
| Data Size    | 5 bytes |
| Instructions | 3       |

```
      00 01 02 03 04 05 06 07  08 09 0A 0B 0C 0D 0E 0F
      -- -- -- -- -- -- -- --  -- -- -- -- -- -- -- --
06F0:                                1D 26 80 23 00               .&.#. 
```

#### Opcodes

```
  0: 0x06FA [0x1D] PRINT_EVENT_MESSAGE(message_id=10099*)
    → "You won't believe what it was about. Listen. I'll rrread it for you."
  1: 0x06FD [0x23] WAIT_FOR_DIALOG_INTERACTION
  2: 0x06FE [0x00] END_REQSTACK()
```

### Event 65535.31

#### Metadata

| Field        | Value   |
|--------------|---------|
| Entrypoint   | 0x06FF  |
| Data Size    | 9 bytes |
| Instructions | 5       |

```
      00 01 02 03 04 05 06 07  08 09 0A 0B 0C 0D 0E 0F
      -- -- -- -- -- -- -- --  -- -- -- -- -- -- -- --
06F0:                                               1D                 .
0700: 27 80 23 1D 28 80 23 00                           '.#.(.#.        
```

#### Opcodes

```
  0: 0x06FF [0x1D] PRINT_EVENT_MESSAGE(message_id=10100*)
    → ""Dear Chieftainness, My name is Angelica, and I'm the best artist here in Windurst. This may seem sudden, but I have a favor to ask. The other day, I heard an adventurer talking about her journey to the Temple of Uggalepih."
  1: 0x0702 [0x23] WAIT_FOR_DIALOG_INTERACTION
  2: 0x0703 [0x1D] PRINT_EVENT_MESSAGE(message_id=10101*)
    → ""She said she came across a rrroom that resembled an art gallery. The walls were covered with numerous frames, but in these frames there were no paintings."
  3: 0x0706 [0x23] WAIT_FOR_DIALOG_INTERACTION
  4: 0x0707 [0x00] END_REQSTACK()
```

### Event 65535.32

#### Metadata

| Field        | Value   |
|--------------|---------|
| Entrypoint   | 0x0708  |
| Data Size    | 5 bytes |
| Instructions | 3       |

```
      00 01 02 03 04 05 06 07  08 09 0A 0B 0C 0D 0E 0F
      -- -- -- -- -- -- -- --  -- -- -- -- -- -- -- --
0700:                          1D 29 80 23 00                   .).#.   
```

#### Opcodes

```
  0: 0x0708 [0x1D] PRINT_EVENT_MESSAGE(message_id=10104*)
    → "This girl has got to be either crazy or stupid. I wonder if that adventurer actually told her what kind of place the temple rrreally is?"
  1: 0x070B [0x23] WAIT_FOR_DIALOG_INTERACTION
  2: 0x070C [0x00] END_REQSTACK()
```

### Event 45

#### Metadata

| Field        | Value    |
|--------------|----------|
| Entrypoint   | 0x070D   |
| Data Size    | 33 bytes |
| Instructions | 12       |

```
      00 01 02 03 04 05 06 07  08 09 0A 0B 0C 0D 0E 0F
      -- -- -- -- -- -- -- --  -- -- -- -- -- -- -- --
0700:                                         1E F0 FF               ...
0710: FF 7F 6F 70 1D 2A 80 23  29 08 09 A0 0F 01 09 1D  ..op.*.#).......
0720: 2B 80 23 29 08 09 A0 0F  01 0A 20 00 21 00        +.#)...... .!.  
```

#### Opcodes

```
  0: 0x070D [0x1E] EventEntity looks at LocalPlayer and starts talking
  1: 0x0712 [0x6F] WAIT_FRAME_DELAY: Yield until WaitTime reaches zero
  2: 0x0713 [0x70] WAIT_ENTITY_RENDER_FLAG: Wait while EventEntity->Render.Flags3 bit 2 is set (cancel turn if not)
  3: 0x0714 [0x1D] PRINT_EVENT_MESSAGE(message_id=10107*)
    → "Those Humes... I haven't been this surprised since the former chieftainness..."
  4: 0x0717 [0x23] WAIT_FOR_DIALOG_INTERACTION
  5: 0x0718 [0x29] REQ_SET_WAIT(priority=0x08, entity_id=Etteh Sulaej (ID: 17801225/0x010FA009), tag_num=0x09)
  6: 0x071F [0x1D] PRINT_EVENT_MESSAGE(message_id=10108*)
    → "But that's nothing for you to worry about! Now hurry off and deliver that letter to Windurst."
  7: 0x0722 [0x23] WAIT_FOR_DIALOG_INTERACTION
  8: 0x0723 [0x29] REQ_SET_WAIT(priority=0x08, entity_id=Etteh Sulaej (ID: 17801225/0x010FA009), tag_num=0x0A)
  9: 0x072A [0x20] SET_CLI_EVENT_UC_FLAG: Unlock player control
 10: 0x072C [0x21] END_EVENT
 11: 0x072D [0x00] END_REQSTACK()
```

### Event 47

#### Metadata

| Field        | Value     |
|--------------|-----------|
| Entrypoint   | 0x072E    |
| Data Size    | 891 bytes |
| Instructions | 116       |

```
      00 01 02 03 04 05 06 07  08 09 0A 0B 0C 0D 0E 0F
      -- -- -- -- -- -- -- --  -- -- -- -- -- -- -- --
0720:                                            20 01                 .
0730: 42 46 01 1E F0 FF FF 7F  5D 0E 80 0F 80 45 0F 80  BF......]....E..
0740: F0 FF FF 7F F0 FF FF 7F  66 64 6F 31 0E 80 1C 0F  ........fdo1....
0750: 80 75 00 11 80 75 01 4E  01 4A A0 0F 01 4E 01 4F  .u...u.N.J...N.O
0760: A0 0F 01 6F 70 38 12 80  29 08 F0 FF FF 7F 05 29  ...op8..)......)
0770: 0B F0 FF FF 7F 08 5C 00  13 80 5C 01 13 80 5D 2C  ......\...\...],
0780: 80 19 80 1C 0F 80 45 15  80 F0 FF FF 7F F0 FF FF  ......E.........
0790: 7F 73 30 39 34 0E 80 45  0F 80 F0 FF FF 7F F0 FF  .s094..E........
07A0: FF 7F 66 64 69 31 0E 80  29 0B 09 A0 0F 01 26 29  ..fdi1..).....&)
07B0: 0B 09 A0 0F 01 27 52 15  80 F0 FF FF 7F F0 FF FF  .....'R.........
07C0: 7F 73 30 39 34 45 0F 80  F0 FF FF 7F F0 FF FF 7F  .s094E..........
07D0: 6F 76 6C 31 0E 80 45 15  80 F0 FF FF 7F F0 FF FF  ovl1..E.........
07E0: 7F 73 30 39 35 0E 80 27  0B 09 A0 0F 01 1A 27 0B  .s095..'......'.
07F0: 08 A0 0F 01 20 4A F0 FF  FF 7F 08 A0 0F 01 1E 08  .... J..........
0800: A0 0F 01 6F 70 2B 09 A0  0F 01 2D 80 23 2A 0B 08  ...op+....-.#*..
0810: A0 0F 01 2A 0B 09 A0 0F  01 52 15 80 F0 FF FF 7F  ...*.....R......
0820: F0 FF FF 7F 73 30 39 35  45 15 80 F0 FF FF 7F F0  ....s095E.......
0830: FF FF 7F 73 30 39 37 0E  80 27 0B 08 A0 0F 01 1F  ...s097..'......
0840: 2B 09 A0 0F 01 2E 80 23  2A 0B 08 A0 0F 01 4A 08  +......#*.....J.
0850: A0 0F 01 09 A0 0F 01 6F  76 08 A0 0F 01 52 15 80  .......ov....R..
0860: F0 FF FF 7F F0 FF FF 7F  73 30 39 37 45 15 80 F0  ........s097E...
0870: FF FF 7F F0 FF FF 7F 73  30 39 36 0E 80 29 0B 08  .......s096..)..
0880: A0 0F 01 24 29 08 08 A0  0F 01 0D 29 0B 08 A0 0F  ...$)......)....
0890: 01 25 29 08 08 A0 0F 01  0E 29 0B 09 A0 0F 01 29  .%)......).....)
08A0: 52 15 80 F0 FF FF 7F F0  FF FF 7F 73 30 39 36 45  R..........s096E
08B0: 15 80 F0 FF FF 7F F0 FF  FF 7F 73 30 39 38 0E 80  ..........s098..
08C0: 29 08 08 A0 0F 01 07 29  0B 08 A0 0F 01 26 29 08  )......).....&).
08D0: 08 A0 0F 01 08 29 08 08  A0 0F 01 09 29 0B 08 A0  .....)......)...
08E0: 0F 01 27 29 08 08 A0 0F  01 0A 52 15 80 F0 FF FF  ..')......R.....
08F0: 7F F0 FF FF 7F 73 30 39  38 02 09 10 12 80 00 15  .....s098.......
0900: 09 45 15 80 F0 FF FF 7F  F0 FF FF 7F 73 31 31 31  .E..........s111
0910: 0E 80 01 7A 09 02 09 10  14 80 00 31 09 45 15 80  ...z.......1.E..
0920: F0 FF FF 7F F0 FF FF 7F  73 31 31 32 0E 80 01 7A  ........s112...z
0930: 09 02 09 10 16 80 00 4D  09 45 15 80 F0 FF FF 7F  .......M.E......
0940: F0 FF FF 7F 73 31 31 32  0E 80 01 7A 09 02 09 10  ....s112...z....
0950: 17 80 00 69 09 45 15 80  F0 FF FF 7F F0 FF FF 7F  ...i.E..........
0960: 73 31 31 31 0E 80 01 7A  09 45 15 80 F0 FF FF 7F  s111...z.E......
0970: F0 FF FF 7F 73 30 39 39  0E 80 4A 08 A0 0F 01 F0  ....s099..J.....
0980: FF FF 7F 4A 09 A0 0F 01  F0 FF FF 7F 6F 76 08 A0  ...J........ov..
0990: 0F 01 29 08 08 A0 0F 01  01 29 0B 08 A0 0F 01 28  ..)......).....(
09A0: 29 08 08 A0 0F 01 02 02  09 10 12 80 00 C1 09 52  )..............R
09B0: 15 80 F0 FF FF 7F F0 FF  FF 7F 73 31 31 31 01 1E  ..........s111..
09C0: 0A 02 09 10 14 80 00 DB  09 52 15 80 F0 FF FF 7F  .........R......
09D0: F0 FF FF 7F 73 31 31 32  01 1E 0A 02 09 10 16 80  ....s112........
09E0: 00 F5 09 52 15 80 F0 FF  FF 7F F0 FF FF 7F 73 31  ...R..........s1
09F0: 31 32 01 1E 0A 02 09 10  17 80 00 0F 0A 52 15 80  12...........R..
0A00: F0 FF FF 7F F0 FF FF 7F  73 31 31 31 01 1E 0A 52  ........s111...R
0A10: 15 80 F0 FF FF 7F F0 FF  FF 7F 73 30 39 39 45 15  ..........s099E.
0A20: 80 F0 FF FF 7F F0 FF FF  7F 73 31 30 30 0E 80 29  .........s100..)
0A30: 08 08 A0 0F 01 03 2B 08  A0 0F 01 2F 80 23 29 08  ......+..../.#).
0A40: 08 A0 0F 01 04 29 08 08  A0 0F 01 0D 29 0B 08 A0  .....)......)...
0A50: 0F 01 29 29 08 08 A0 0F  01 0E 5D 0E 80 0F 80 45  ..))......]....E
0A60: 0F 80 F0 FF FF 7F F0 FF  FF 7F 66 64 6F 31 0E 80  ..........fdo1..
0A70: 1C 1F 80 5C 00 20 80 5C  01 20 80 5D 2C 80 19 80  ...\. .\. .],...
0A80: 52 15 80 F0 FF FF 7F F0  FF FF 7F 73 31 30 30 46  R..........s100F
0A90: 00 1C 0F 80 45 0F 80 F0  FF FF 7F F0 FF FF 7F 66  ....E..........f
0AA0: 64 69 31 0E 80 20 00 21  00                       di1.. .!.       
```

#### Opcodes

```
  0: 0x072E [0x20] SET_CLI_EVENT_UC_FLAG: Lock player control
  1: 0x0730 [0x42] SET_CLI_EVENT_CANCEL_DATA()
  2: 0x0731 [0x46] CAMERA_CONTROL: Disable user control
  3: 0x0733 [0x1E] EventEntity looks at LocalPlayer and starts talking
  4: 0x0738 [0x5D] SET_MUSIC_VOLUME(volume=0*, fade_time=200*)
  5: 0x073D [0x45] LOAD_SCHEDULED_TASK: Load scheduler "fdo1" with entities [LocalPlayer, LocalPlayer], work=[200*, 0*]
  6: 0x074E [0x1C] WAIT(200* ticks)
  7: 0x0751 [0x75] LOAD_ROOM(Load indoor room, room=507*)
  8: 0x0755 [0x75] LOAD_ROOM(No action)
  9: 0x0757 [0x4E] SET_ENTITY_HIDE_FLAG: Hide Mumupp (ID: 17801290/0x010FA04A)
 10: 0x075D [0x4E] SET_ENTITY_HIDE_FLAG: Hide Kakapp (ID: 17801295/0x010FA04F)
 11: 0x0763 [0x6F] WAIT_FRAME_DELAY: Yield until WaitTime reaches zero
 12: 0x0764 [0x70] WAIT_ENTITY_RENDER_FLAG: Wait while EventEntity->Render.Flags3 bit 2 is set (cancel turn if not)
 13: 0x0765 [0x38] SET_CLIENT_EVENT_MODE(mode=3*)
 14: 0x0768 [0x29] REQ_SET_WAIT(priority=0x08, entity_id=LocalPlayer, tag_num=0x05)
 15: 0x076F [0x29] REQ_SET_WAIT(priority=0x0B, entity_id=LocalPlayer, tag_num=0x08)
 16: 0x0776 [0x5C] MUSIC_CONTROL: Set Idle (Day) music to song 163*
 17: 0x077A [0x5C] MUSIC_CONTROL: Set Idle (Night) music to song 163*
 18: 0x077E [0x5D] SET_MUSIC_VOLUME(volume=127*, fade_time=1*)
 19: 0x0783 [0x1C] WAIT(200* ticks)
 20: 0x0786 [0x45] LOAD_SCHEDULED_TASK: Load scheduler "s094" with entities [LocalPlayer, LocalPlayer], work=[150*, 0*]
 21: 0x0797 [0x45] LOAD_SCHEDULED_TASK: Load scheduler "fdi1" with entities [LocalPlayer, LocalPlayer], work=[200*, 0*]
 22: 0x07A8 [0x29] REQ_SET_WAIT(priority=0x0B, entity_id=Etteh Sulaej (ID: 17801225/0x010FA009), tag_num=0x26)
 23: 0x07AF [0x29] REQ_SET_WAIT(priority=0x0B, entity_id=Etteh Sulaej (ID: 17801225/0x010FA009), tag_num=0x27)
 24: 0x07B6 [0x52] END_LOAD_SCHEDULER: End scheduler "s094" with entities [LocalPlayer, LocalPlayer], work=150*
 25: 0x07C5 [0x45] LOAD_SCHEDULED_TASK: Load scheduler "ovl1" with entities [LocalPlayer, LocalPlayer], work=[200*, 0*]
 26: 0x07D6 [0x45] LOAD_SCHEDULED_TASK: Load scheduler "s095" with entities [LocalPlayer, LocalPlayer], work=[150*, 0*]
 27: 0x07E7 [0x27] REQ_SET(priority=0x0B, entity_id=Etteh Sulaej (ID: 17801225/0x010FA009), tag_num=0x1A)
 28: 0x07EE [0x27] REQ_SET(priority=0x0B, entity_id=Jakoh Wahcondalo (ID: 17801224/0x010FA008), tag_num=0x20)
 29: 0x07F5 [0x4A] LocalPlayer looks at Jakoh Wahcondalo (ID: 17801224/0x010FA008)
 30: 0x07FE [0x1E] EventEntity looks at Jakoh Wahcondalo (ID: 17801224/0x010FA008) and starts talking
 31: 0x0803 [0x6F] WAIT_FRAME_DELAY: Yield until WaitTime reaches zero
 32: 0x0804 [0x70] WAIT_ENTITY_RENDER_FLAG: Wait while EventEntity->Render.Flags3 bit 2 is set (cancel turn if not)
 33: 0x0805 [0x2B] Etteh Sulaej (ID: 17801225/0x010FA009) [10113*]:
    → "Chieftainness! That Angelica looks like she's serious about her crazy plan."
 34: 0x080C [0x23] WAIT_FOR_DIALOG_INTERACTION
 35: 0x080D [0x2A] GET_REQ_LEVEL(level=11, entity_id=Jakoh Wahcondalo (ID: 17801224/0x010FA008))
 36: 0x0813 [0x2A] GET_REQ_LEVEL(level=11, entity_id=Etteh Sulaej (ID: 17801225/0x010FA009))
 37: 0x0819 [0x52] END_LOAD_SCHEDULER: End scheduler "s095" with entities [LocalPlayer, LocalPlayer], work=150*
 38: 0x0828 [0x45] LOAD_SCHEDULED_TASK: Load scheduler "s097" with entities [LocalPlayer, LocalPlayer], work=[150*, 0*]
 39: 0x0839 [0x27] REQ_SET(priority=0x0B, entity_id=Jakoh Wahcondalo (ID: 17801224/0x010FA008), tag_num=0x1F)
 40: 0x0840 [0x2B] Etteh Sulaej (ID: 17801225/0x010FA009) [10114*]:
    → "She wrrrote back saying that she still wants to display her paintings in the temple!"
 41: 0x0847 [0x23] WAIT_FOR_DIALOG_INTERACTION
 42: 0x0848 [0x2A] GET_REQ_LEVEL(level=11, entity_id=Jakoh Wahcondalo (ID: 17801224/0x010FA008))
 43: 0x084E [0x4A] Jakoh Wahcondalo (ID: 17801224/0x010FA008) looks at Etteh Sulaej (ID: 17801225/0x010FA009)
 44: 0x0857 [0x6F] WAIT_FRAME_DELAY: Yield until WaitTime reaches zero
 45: 0x0858 [0x76] CHECK_ENTITY_RENDER_FLAGS: Wait until Jakoh Wahcondalo (ID: 17801224/0x010FA008) Render.Flags0 and Render.Flags3 conditions are met
 46: 0x085D [0x52] END_LOAD_SCHEDULER: End scheduler "s097" with entities [LocalPlayer, LocalPlayer], work=150*
 47: 0x086C [0x45] LOAD_SCHEDULED_TASK: Load scheduler "s096" with entities [LocalPlayer, LocalPlayer], work=[150*, 0*]
 48: 0x087D [0x29] REQ_SET_WAIT(priority=0x0B, entity_id=Jakoh Wahcondalo (ID: 17801224/0x010FA008), tag_num=0x24)
 49: 0x0884 [0x29] REQ_SET_WAIT(priority=0x08, entity_id=Jakoh Wahcondalo (ID: 17801224/0x010FA008), tag_num=0x0D)
 50: 0x088B [0x29] REQ_SET_WAIT(priority=0x0B, entity_id=Jakoh Wahcondalo (ID: 17801224/0x010FA008), tag_num=0x25)
 51: 0x0892 [0x29] REQ_SET_WAIT(priority=0x08, entity_id=Jakoh Wahcondalo (ID: 17801224/0x010FA008), tag_num=0x0E)
 52: 0x0899 [0x29] REQ_SET_WAIT(priority=0x0B, entity_id=Etteh Sulaej (ID: 17801225/0x010FA009), tag_num=0x29)
 53: 0x08A0 [0x52] END_LOAD_SCHEDULER: End scheduler "s096" with entities [LocalPlayer, LocalPlayer], work=150*
 54: 0x08AF [0x45] LOAD_SCHEDULED_TASK: Load scheduler "s098" with entities [LocalPlayer, LocalPlayer], work=[150*, 0*]
 55: 0x08C0 [0x29] REQ_SET_WAIT(priority=0x08, entity_id=Jakoh Wahcondalo (ID: 17801224/0x010FA008), tag_num=0x07)
 56: 0x08C7 [0x29] REQ_SET_WAIT(priority=0x0B, entity_id=Jakoh Wahcondalo (ID: 17801224/0x010FA008), tag_num=0x26)
 57: 0x08CE [0x29] REQ_SET_WAIT(priority=0x08, entity_id=Jakoh Wahcondalo (ID: 17801224/0x010FA008), tag_num=0x08)
 58: 0x08D5 [0x29] REQ_SET_WAIT(priority=0x08, entity_id=Jakoh Wahcondalo (ID: 17801224/0x010FA008), tag_num=0x09)
 59: 0x08DC [0x29] REQ_SET_WAIT(priority=0x0B, entity_id=Jakoh Wahcondalo (ID: 17801224/0x010FA008), tag_num=0x27)
 60: 0x08E3 [0x29] REQ_SET_WAIT(priority=0x08, entity_id=Jakoh Wahcondalo (ID: 17801224/0x010FA008), tag_num=0x0A)
 61: 0x08EA [0x52] END_LOAD_SCHEDULER: End scheduler "s098" with entities [LocalPlayer, LocalPlayer], work=150*
 62: 0x08F9 [0x02] IF !(Work_Zone[9] == 3*) GOTO 0x0915
 63: 0x0901 [0x45] LOAD_SCHEDULED_TASK: Load scheduler "s111" with entities [LocalPlayer, LocalPlayer], work=[150*, 0*]
 64: 0x0912 [0x01] GOTO 0x097A
 65: 0x0915 [0x02] IF !(Work_Zone[9] == 5*) GOTO 0x0931
 66: 0x091D [0x45] LOAD_SCHEDULED_TASK: Load scheduler "s112" with entities [LocalPlayer, LocalPlayer], work=[150*, 0*]
 67: 0x092E [0x01] GOTO 0x097A
 68: 0x0931 [0x02] IF !(Work_Zone[9] == 6*) GOTO 0x094D
 69: 0x0939 [0x45] LOAD_SCHEDULED_TASK: Load scheduler "s112" with entities [LocalPlayer, LocalPlayer], work=[150*, 0*]
 70: 0x094A [0x01] GOTO 0x097A
 71: 0x094D [0x02] IF !(Work_Zone[9] == 8*) GOTO 0x0969
 72: 0x0955 [0x45] LOAD_SCHEDULED_TASK: Load scheduler "s111" with entities [LocalPlayer, LocalPlayer], work=[150*, 0*]
 73: 0x0966 [0x01] GOTO 0x097A
 74: 0x0969 [0x45] LOAD_SCHEDULED_TASK: Load scheduler "s099" with entities [LocalPlayer, LocalPlayer], work=[150*, 0*]

SUBROUTINE_097A:
 75: 0x097A [0x4A] Jakoh Wahcondalo (ID: 17801224/0x010FA008) looks at LocalPlayer
 76: 0x0983 [0x4A] Etteh Sulaej (ID: 17801225/0x010FA009) looks at LocalPlayer
 77: 0x098C [0x6F] WAIT_FRAME_DELAY: Yield until WaitTime reaches zero
 78: 0x098D [0x76] CHECK_ENTITY_RENDER_FLAGS: Wait until Jakoh Wahcondalo (ID: 17801224/0x010FA008) Render.Flags0 and Render.Flags3 conditions are met
 79: 0x0992 [0x29] REQ_SET_WAIT(priority=0x08, entity_id=Jakoh Wahcondalo (ID: 17801224/0x010FA008), tag_num=0x01)
 80: 0x0999 [0x29] REQ_SET_WAIT(priority=0x0B, entity_id=Jakoh Wahcondalo (ID: 17801224/0x010FA008), tag_num=0x28)
 81: 0x09A0 [0x29] REQ_SET_WAIT(priority=0x08, entity_id=Jakoh Wahcondalo (ID: 17801224/0x010FA008), tag_num=0x02)
 82: 0x09A7 [0x02] IF !(Work_Zone[9] == 3*) GOTO 0x09C1
 83: 0x09AF [0x52] END_LOAD_SCHEDULER: End scheduler "s111" with entities [LocalPlayer, LocalPlayer], work=150*
 84: 0x09BE [0x01] GOTO 0x0A1E
 85: 0x09C1 [0x02] IF !(Work_Zone[9] == 5*) GOTO 0x09DB
 86: 0x09C9 [0x52] END_LOAD_SCHEDULER: End scheduler "s112" with entities [LocalPlayer, LocalPlayer], work=150*
 87: 0x09D8 [0x01] GOTO 0x0A1E
 88: 0x09DB [0x02] IF !(Work_Zone[9] == 6*) GOTO 0x09F5
 89: 0x09E3 [0x52] END_LOAD_SCHEDULER: End scheduler "s112" with entities [LocalPlayer, LocalPlayer], work=150*
 90: 0x09F2 [0x01] GOTO 0x0A1E
 91: 0x09F5 [0x02] IF !(Work_Zone[9] == 8*) GOTO 0x0A0F
 92: 0x09FD [0x52] END_LOAD_SCHEDULER: End scheduler "s111" with entities [LocalPlayer, LocalPlayer], work=150*
 93: 0x0A0C [0x01] GOTO 0x0A1E
 94: 0x0A0F [0x52] END_LOAD_SCHEDULER: End scheduler "s099" with entities [LocalPlayer, LocalPlayer], work=150*

SUBROUTINE_0A1E:
 95: 0x0A1E [0x45] LOAD_SCHEDULED_TASK: Load scheduler "s100" with entities [LocalPlayer, LocalPlayer], work=[150*, 0*]
 96: 0x0A2F [0x29] REQ_SET_WAIT(priority=0x08, entity_id=Jakoh Wahcondalo (ID: 17801224/0x010FA008), tag_num=0x03)
 97: 0x0A36 [0x2B] Jakoh Wahcondalo (ID: 17801224/0x010FA008) [10121*]:
    → "That's right. You're going to put that painting up. If you don't want to do it, you go back and tell her yourself."
 98: 0x0A3D [0x23] WAIT_FOR_DIALOG_INTERACTION
 99: 0x0A3E [0x29] REQ_SET_WAIT(priority=0x08, entity_id=Jakoh Wahcondalo (ID: 17801224/0x010FA008), tag_num=0x04)
100: 0x0A45 [0x29] REQ_SET_WAIT(priority=0x08, entity_id=Jakoh Wahcondalo (ID: 17801224/0x010FA008), tag_num=0x0D)
101: 0x0A4C [0x29] REQ_SET_WAIT(priority=0x0B, entity_id=Jakoh Wahcondalo (ID: 17801224/0x010FA008), tag_num=0x29)
102: 0x0A53 [0x29] REQ_SET_WAIT(priority=0x08, entity_id=Jakoh Wahcondalo (ID: 17801224/0x010FA008), tag_num=0x0E)
103: 0x0A5A [0x5D] SET_MUSIC_VOLUME(volume=0*, fade_time=200*)
104: 0x0A5F [0x45] LOAD_SCHEDULED_TASK: Load scheduler "fdo1" with entities [LocalPlayer, LocalPlayer], work=[200*, 0*]
105: 0x0A70 [0x1C] WAIT(100* ticks)
106: 0x0A73 [0x5C] MUSIC_CONTROL: Set Idle (Day) music to song 135*
107: 0x0A77 [0x5C] MUSIC_CONTROL: Set Idle (Night) music to song 135*
108: 0x0A7B [0x5D] SET_MUSIC_VOLUME(volume=127*, fade_time=1*)
109: 0x0A80 [0x52] END_LOAD_SCHEDULER: End scheduler "s100" with entities [LocalPlayer, LocalPlayer], work=150*
110: 0x0A8F [0x46] CAMERA_CONTROL: Restore default settings
111: 0x0A91 [0x1C] WAIT(200* ticks)
112: 0x0A94 [0x45] LOAD_SCHEDULED_TASK: Load scheduler "fdi1" with entities [LocalPlayer, LocalPlayer], work=[200*, 0*]
113: 0x0AA5 [0x20] SET_CLI_EVENT_UC_FLAG: Unlock player control
114: 0x0AA7 [0x21] END_EVENT
115: 0x0AA8 [0x00] END_REQSTACK()
```

### Event 65535.33

#### Metadata

| Field        | Value   |
|--------------|---------|
| Entrypoint   | 0x0AA9  |
| Data Size    | 5 bytes |
| Instructions | 3       |

```
      00 01 02 03 04 05 06 07  08 09 0A 0B 0C 0D 0E 0F
      -- -- -- -- -- -- -- --  -- -- -- -- -- -- -- --
0AA0:                             1D 30 80 23 00                 .0.#.  
```

#### Opcodes

```
  0: 0x0AA9 [0x1D] PRINT_EVENT_MESSAGE(message_id=10111*)
    → "What the..."
  1: 0x0AAC [0x23] WAIT_FOR_DIALOG_INTERACTION
  2: 0x0AAD [0x00] END_REQSTACK()
```

### Event 65535.34

#### Metadata

| Field        | Value   |
|--------------|---------|
| Entrypoint   | 0x0AAE  |
| Data Size    | 5 bytes |
| Instructions | 3       |

```
      00 01 02 03 04 05 06 07  08 09 0A 0B 0C 0D 0E 0F
      -- -- -- -- -- -- -- --  -- -- -- -- -- -- -- --
0AA0:                                            1D 31                .1
0AB0: 80 23 00                                          .#.             
```

#### Opcodes

```
  0: 0x0AAE [0x1D] PRINT_EVENT_MESSAGE(message_id=10112*)
    → "Unbelievable! What the hell are those mainlanders thinking?"
  1: 0x0AB1 [0x23] WAIT_FOR_DIALOG_INTERACTION
  2: 0x0AB2 [0x00] END_REQSTACK()
```

### Event 65535.35

#### Metadata

| Field        | Value   |
|--------------|---------|
| Entrypoint   | 0x0AB3  |
| Data Size    | 5 bytes |
| Instructions | 3       |

```
      00 01 02 03 04 05 06 07  08 09 0A 0B 0C 0D 0E 0F
      -- -- -- -- -- -- -- --  -- -- -- -- -- -- -- --
0AB0:          1D 2D 80 23 00                              .-.#.        
```

#### Opcodes

```
  0: 0x0AB3 [0x1D] PRINT_EVENT_MESSAGE(message_id=10113*)
    → "Chieftainness! That Angelica looks like she's serious about her crazy plan."
  1: 0x0AB6 [0x23] WAIT_FOR_DIALOG_INTERACTION
  2: 0x0AB7 [0x00] END_REQSTACK()
```

### Event 65535.36

#### Metadata

| Field        | Value   |
|--------------|---------|
| Entrypoint   | 0x0AB8  |
| Data Size    | 5 bytes |
| Instructions | 3       |

```
      00 01 02 03 04 05 06 07  08 09 0A 0B 0C 0D 0E 0F
      -- -- -- -- -- -- -- --  -- -- -- -- -- -- -- --
0AB0:                          1D 32 80 23 00                   .2.#.   
```

#### Opcodes

```
  0: 0x0AB8 [0x1D] PRINT_EVENT_MESSAGE(message_id=10117*)
    → "I-I apologize! Ch-Chieftainness! Have mercy! Chieftainness!"
  1: 0x0ABB [0x23] WAIT_FOR_DIALOG_INTERACTION
  2: 0x0ABC [0x00] END_REQSTACK()
```

### Event 49

#### Metadata

| Field        | Value    |
|--------------|----------|
| Entrypoint   | 0x0ABD   |
| Data Size    | 47 bytes |
| Instructions | 14       |

```
      00 01 02 03 04 05 06 07  08 09 0A 0B 0C 0D 0E 0F
      -- -- -- -- -- -- -- --  -- -- -- -- -- -- -- --
0AB0:                                         1E F0 FF               ...
0AC0: FF 7F 6F 70 29 08 09 A0  0F 01 05 1D 33 80 23 29  ..op).......3.#)
0AD0: 08 09 A0 0F 01 06 29 08  09 A0 0F 01 07 1D 34 80  ......).......4.
0AE0: 23 29 08 09 A0 0F 01 08  20 00 21 00              #)...... .!.    
```

#### Opcodes

```
  0: 0x0ABD [0x1E] EventEntity looks at LocalPlayer and starts talking
  1: 0x0AC2 [0x6F] WAIT_FRAME_DELAY: Yield until WaitTime reaches zero
  2: 0x0AC3 [0x70] WAIT_ENTITY_RENDER_FLAG: Wait while EventEntity->Render.Flags3 bit 2 is set (cancel turn if not)
  3: 0x0AC4 [0x29] REQ_SET_WAIT(priority=0x08, entity_id=Etteh Sulaej (ID: 17801225/0x010FA009), tag_num=0x05)
  4: 0x0ACB [0x1D] PRINT_EVENT_MESSAGE(message_id=10125*)
    → "I get dizzy every time I look at that girl's paintings."
  5: 0x0ACE [0x23] WAIT_FOR_DIALOG_INTERACTION
  6: 0x0ACF [0x29] REQ_SET_WAIT(priority=0x08, entity_id=Etteh Sulaej (ID: 17801225/0x010FA009), tag_num=0x06)
  7: 0x0AD6 [0x29] REQ_SET_WAIT(priority=0x08, entity_id=Etteh Sulaej (ID: 17801225/0x010FA009), tag_num=0x07)
  8: 0x0ADD [0x1D] PRINT_EVENT_MESSAGE(message_id=10126*)
    → "It's kind of like dreaming while I'm still awake..."
  9: 0x0AE0 [0x23] WAIT_FOR_DIALOG_INTERACTION
 10: 0x0AE1 [0x29] REQ_SET_WAIT(priority=0x08, entity_id=Etteh Sulaej (ID: 17801225/0x010FA009), tag_num=0x08)
 11: 0x0AE8 [0x20] SET_CLI_EVENT_UC_FLAG: Unlock player control
 12: 0x0AEA [0x21] END_EVENT
 13: 0x0AEB [0x00] END_REQSTACK()
```

### Event 50

#### Metadata

| Field        | Value     |
|--------------|-----------|
| Entrypoint   | 0x0AEC    |
| Data Size    | 911 bytes |
| Instructions | 113       |

```
      00 01 02 03 04 05 06 07  08 09 0A 0B 0C 0D 0E 0F
      -- -- -- -- -- -- -- --  -- -- -- -- -- -- -- --
0AE0:                                      20 01 42 46               .BF
0AF0: 01 1E F0 FF FF 7F 5D 0E  80 0F 80 45 0F 80 F0 FF  ......]....E....
0B00: FF 7F F0 FF FF 7F 66 64  6F 31 0E 80 1C 0F 80 75  ......fdo1.....u
0B10: 00 11 80 75 01 4E 01 4A  A0 0F 01 4E 01 4F A0 0F  ...u.N.J...N.O..
0B20: 01 6F 70 38 12 80 29 0B  F0 FF FF 7F 08 29 08 F0  .op8..)......)..
0B30: FF FF 7F 05 1E F0 FF FF  7F 4A F0 FF FF 7F 09 A0  .........J......
0B40: 0F 01 6F 76 F0 FF FF 7F  6F 70 5C 00 13 80 5C 01  ..ov....op\...\.
0B50: 13 80 5D 2C 80 19 80 1C  0F 80 02 09 10 14 80 00  ..],............
0B60: 76 0B 45 15 80 F0 FF FF  7F F0 FF FF 7F 73 31 30  v.E..........s10
0B70: 36 0E 80 01 A3 0B 02 09  10 16 80 00 92 0B 45 15  6.............E.
0B80: 80 F0 FF FF 7F F0 FF FF  7F 73 31 30 36 0E 80 01  .........s106...
0B90: A3 0B 45 15 80 F0 FF FF  7F F0 FF FF 7F 73 30 30  ..E..........s00
0BA0: 30 0E 80 45 0F 80 F0 FF  FF 7F F0 FF FF 7F 66 64  0..E..........fd
0BB0: 69 31 0E 80 29 0B 08 A0  0F 01 1E 29 0B 09 A0 0F  i1..)......)....
0BC0: 01 2C 02 09 10 14 80 00  DC 0B 52 15 80 F0 FF FF  .,........R.....
0BD0: 7F F0 FF FF 7F 73 31 30  36 01 05 0C 02 09 10 16  .....s106.......
0BE0: 80 00 F6 0B 52 15 80 F0  FF FF 7F F0 FF FF 7F 73  ....R..........s
0BF0: 31 30 36 01 05 0C 52 15  80 F0 FF FF 7F F0 FF FF  106...R.........
0C00: 7F 73 30 30 30 02 09 10  12 80 00 21 0C 45 15 80  .s000......!.E..
0C10: F0 FF FF 7F F0 FF FF 7F  73 31 30 37 0E 80 01 86  ........s107....
0C20: 0C 02 09 10 14 80 00 3D  0C 45 15 80 F0 FF FF 7F  .......=.E......
0C30: F0 FF FF 7F 73 31 30 38  0E 80 01 86 0C 02 09 10  ....s108........
0C40: 16 80 00 59 0C 45 15 80  F0 FF FF 7F F0 FF FF 7F  ...Y.E..........
0C50: 73 31 30 38 0E 80 01 86  0C 02 09 10 17 80 00 75  s108...........u
0C60: 0C 45 15 80 F0 FF FF 7F  F0 FF FF 7F 73 31 30 37  .E..........s107
0C70: 0E 80 01 86 0C 45 15 80  F0 FF FF 7F F0 FF FF 7F  .....E..........
0C80: 73 31 30 31 0E 80 4A F0  FF FF 7F 08 A0 0F 01 4A  s101..J........J
0C90: 09 A0 0F 01 08 A0 0F 01  27 0B 08 A0 0F 01 1F 2B  ........'......+
0CA0: 08 A0 0F 01 35 80 23 2A  0B 08 A0 0F 01 45 0F 80  ....5.#*.....E..
0CB0: F0 FF FF 7F F0 FF FF 7F  66 64 6F 31 0E 80 1C 10  ........fdo1....
0CC0: 80 4B 08 A0 0F 01 36 80  6F 76 08 A0 0F 01 02 09  .K....6.ov......
0CD0: 10 12 80 00 E8 0C 52 15  80 F0 FF FF 7F F0 FF FF  ......R.........
0CE0: 7F 73 31 30 37 01 45 0D  02 09 10 14 80 00 02 0D  .s107.E.........
0CF0: 52 15 80 F0 FF FF 7F F0  FF FF 7F 73 31 30 38 01  R..........s108.
0D00: 45 0D 02 09 10 16 80 00  1C 0D 52 15 80 F0 FF FF  E.........R.....
0D10: 7F F0 FF FF 7F 73 31 30  38 01 45 0D 02 09 10 17  .....s108.E.....
0D20: 80 00 36 0D 52 15 80 F0  FF FF 7F F0 FF FF 7F 73  ..6.R..........s
0D30: 31 30 37 01 45 0D 52 15  80 F0 FF FF 7F F0 FF FF  107.E.R.........
0D40: 7F 73 31 30 31 29 08 08  A0 0F 01 07 29 08 08 A0  .s101)......)...
0D50: 0F 01 08 45 15 80 F0 FF  FF 7F F0 FF FF 7F 73 31  ...E..........s1
0D60: 30 32 0E 80 45 0F 80 F0  FF FF 7F F0 FF FF 7F 66  02..E..........f
0D70: 64 69 31 0E 80 29 0B 08  A0 0F 01 2D 52 15 80 F0  di1..).....-R...
0D80: FF FF 7F F0 FF FF 7F 73  31 30 32 45 0F 80 F0 FF  .......s102E....
0D90: FF 7F F0 FF FF 7F 6F 76  6C 31 0E 80 45 15 80 F0  ......ovl1..E...
0DA0: FF FF 7F F0 FF FF 7F 73  31 30 33 0E 80 29 08 08  .......s103..)..
0DB0: A0 0F 01 09 2B 08 A0 0F  01 37 80 23 29 08 08 A0  ....+....7.#)...
0DC0: 0F 01 0A 52 15 80 F0 FF  FF 7F F0 FF FF 7F 73 31  ...R..........s1
0DD0: 30 33 45 15 80 F0 FF FF  7F F0 FF FF 7F 73 31 30  03E..........s10
0DE0: 34 0E 80 79 00 08 A0 0F  01 F0 FF FF 7F 29 0B 08  4..y.........)..
0DF0: A0 0F 01 2E 52 15 80 F0  FF FF 7F F0 FF FF 7F 73  ....R..........s
0E00: 31 30 34 45 15 80 F0 FF  FF 7F F0 FF FF 7F 73 31  104E..........s1
0E10: 30 35 0E 80 29 0B 08 A0  0F 01 2F 5D 0E 80 0F 80  05..)...../]....
0E20: 45 0F 80 F0 FF FF 7F F0  FF FF 7F 66 64 6F 31 0E  E..........fdo1.
0E30: 80 1C 1F 80 52 15 80 F0  FF FF 7F F0 FF FF 7F 73  ....R..........s
0E40: 31 30 35 46 00 5C 00 20  80 5C 01 20 80 5D 2C 80  105F.\. .\. .],.
0E50: 19 80 1C 0F 80 45 0F 80  F0 FF FF 7F F0 FF FF 7F  .....E..........
0E60: 66 64 69 31 0E 80 45 38  80 F0 FF FF 7F F0 FF FF  fdi1..E8........
0E70: 7F 71 73 74 63 0E 80 20  00 21 00                 .qstc.. .!.     
```

#### Opcodes

```
  0: 0x0AEC [0x20] SET_CLI_EVENT_UC_FLAG: Lock player control
  1: 0x0AEE [0x42] SET_CLI_EVENT_CANCEL_DATA()
  2: 0x0AEF [0x46] CAMERA_CONTROL: Disable user control
  3: 0x0AF1 [0x1E] EventEntity looks at LocalPlayer and starts talking
  4: 0x0AF6 [0x5D] SET_MUSIC_VOLUME(volume=0*, fade_time=200*)
  5: 0x0AFB [0x45] LOAD_SCHEDULED_TASK: Load scheduler "fdo1" with entities [LocalPlayer, LocalPlayer], work=[200*, 0*]
  6: 0x0B0C [0x1C] WAIT(200* ticks)
  7: 0x0B0F [0x75] LOAD_ROOM(Load indoor room, room=507*)
  8: 0x0B13 [0x75] LOAD_ROOM(No action)
  9: 0x0B15 [0x4E] SET_ENTITY_HIDE_FLAG: Hide Mumupp (ID: 17801290/0x010FA04A)
 10: 0x0B1B [0x4E] SET_ENTITY_HIDE_FLAG: Hide Kakapp (ID: 17801295/0x010FA04F)
 11: 0x0B21 [0x6F] WAIT_FRAME_DELAY: Yield until WaitTime reaches zero
 12: 0x0B22 [0x70] WAIT_ENTITY_RENDER_FLAG: Wait while EventEntity->Render.Flags3 bit 2 is set (cancel turn if not)
 13: 0x0B23 [0x38] SET_CLIENT_EVENT_MODE(mode=3*)
 14: 0x0B26 [0x29] REQ_SET_WAIT(priority=0x0B, entity_id=LocalPlayer, tag_num=0x08)
 15: 0x0B2D [0x29] REQ_SET_WAIT(priority=0x08, entity_id=LocalPlayer, tag_num=0x05)
 16: 0x0B34 [0x1E] EventEntity looks at LocalPlayer and starts talking
 17: 0x0B39 [0x4A] LocalPlayer looks at Etteh Sulaej (ID: 17801225/0x010FA009)
 18: 0x0B42 [0x6F] WAIT_FRAME_DELAY: Yield until WaitTime reaches zero
 19: 0x0B43 [0x76] CHECK_ENTITY_RENDER_FLAGS: Wait until LocalPlayer Render.Flags0 and Render.Flags3 conditions are met
 20: 0x0B48 [0x6F] WAIT_FRAME_DELAY: Yield until WaitTime reaches zero
 21: 0x0B49 [0x70] WAIT_ENTITY_RENDER_FLAG: Wait while EventEntity->Render.Flags3 bit 2 is set (cancel turn if not)
 22: 0x0B4A [0x5C] MUSIC_CONTROL: Set Idle (Day) music to song 163*
 23: 0x0B4E [0x5C] MUSIC_CONTROL: Set Idle (Night) music to song 163*
 24: 0x0B52 [0x5D] SET_MUSIC_VOLUME(volume=127*, fade_time=1*)
 25: 0x0B57 [0x1C] WAIT(200* ticks)
 26: 0x0B5A [0x02] IF !(Work_Zone[9] == 5*) GOTO 0x0B76
 27: 0x0B62 [0x45] LOAD_SCHEDULED_TASK: Load scheduler "s106" with entities [LocalPlayer, LocalPlayer], work=[150*, 0*]
 28: 0x0B73 [0x01] GOTO 0x0BA3
 29: 0x0B76 [0x02] IF !(Work_Zone[9] == 6*) GOTO 0x0B92
 30: 0x0B7E [0x45] LOAD_SCHEDULED_TASK: Load scheduler "s106" with entities [LocalPlayer, LocalPlayer], work=[150*, 0*]
 31: 0x0B8F [0x01] GOTO 0x0BA3
 32: 0x0B92 [0x45] LOAD_SCHEDULED_TASK: Load scheduler "s000" with entities [LocalPlayer, LocalPlayer], work=[150*, 0*]

SUBROUTINE_0BA3:
 33: 0x0BA3 [0x45] LOAD_SCHEDULED_TASK: Load scheduler "fdi1" with entities [LocalPlayer, LocalPlayer], work=[200*, 0*]
 34: 0x0BB4 [0x29] REQ_SET_WAIT(priority=0x0B, entity_id=Jakoh Wahcondalo (ID: 17801224/0x010FA008), tag_num=0x1E)
 35: 0x0BBB [0x29] REQ_SET_WAIT(priority=0x0B, entity_id=Etteh Sulaej (ID: 17801225/0x010FA009), tag_num=0x2C)
 36: 0x0BC2 [0x02] IF !(Work_Zone[9] == 5*) GOTO 0x0BDC
 37: 0x0BCA [0x52] END_LOAD_SCHEDULER: End scheduler "s106" with entities [LocalPlayer, LocalPlayer], work=150*
 38: 0x0BD9 [0x01] GOTO 0x0C05
 39: 0x0BDC [0x02] IF !(Work_Zone[9] == 6*) GOTO 0x0BF6
 40: 0x0BE4 [0x52] END_LOAD_SCHEDULER: End scheduler "s106" with entities [LocalPlayer, LocalPlayer], work=150*
 41: 0x0BF3 [0x01] GOTO 0x0C05
 42: 0x0BF6 [0x52] END_LOAD_SCHEDULER: End scheduler "s000" with entities [LocalPlayer, LocalPlayer], work=150*

SUBROUTINE_0C05:
 43: 0x0C05 [0x02] IF !(Work_Zone[9] == 3*) GOTO 0x0C21
 44: 0x0C0D [0x45] LOAD_SCHEDULED_TASK: Load scheduler "s107" with entities [LocalPlayer, LocalPlayer], work=[150*, 0*]
 45: 0x0C1E [0x01] GOTO 0x0C86
 46: 0x0C21 [0x02] IF !(Work_Zone[9] == 5*) GOTO 0x0C3D
 47: 0x0C29 [0x45] LOAD_SCHEDULED_TASK: Load scheduler "s108" with entities [LocalPlayer, LocalPlayer], work=[150*, 0*]
 48: 0x0C3A [0x01] GOTO 0x0C86
 49: 0x0C3D [0x02] IF !(Work_Zone[9] == 6*) GOTO 0x0C59
 50: 0x0C45 [0x45] LOAD_SCHEDULED_TASK: Load scheduler "s108" with entities [LocalPlayer, LocalPlayer], work=[150*, 0*]
 51: 0x0C56 [0x01] GOTO 0x0C86
 52: 0x0C59 [0x02] IF !(Work_Zone[9] == 8*) GOTO 0x0C75
 53: 0x0C61 [0x45] LOAD_SCHEDULED_TASK: Load scheduler "s107" with entities [LocalPlayer, LocalPlayer], work=[150*, 0*]
 54: 0x0C72 [0x01] GOTO 0x0C86
 55: 0x0C75 [0x45] LOAD_SCHEDULED_TASK: Load scheduler "s101" with entities [LocalPlayer, LocalPlayer], work=[150*, 0*]

SUBROUTINE_0C86:
 56: 0x0C86 [0x4A] LocalPlayer looks at Jakoh Wahcondalo (ID: 17801224/0x010FA008)
 57: 0x0C8F [0x4A] Etteh Sulaej (ID: 17801225/0x010FA009) looks at Jakoh Wahcondalo (ID: 17801224/0x010FA008)
 58: 0x0C98 [0x27] REQ_SET(priority=0x0B, entity_id=Jakoh Wahcondalo (ID: 17801224/0x010FA008), tag_num=0x1F)
 59: 0x0C9F [0x2B] Jakoh Wahcondalo (ID: 17801224/0x010FA008) [10128*]:
    → "Interrresting... Tell me more."
 60: 0x0CA6 [0x23] WAIT_FOR_DIALOG_INTERACTION
 61: 0x0CA7 [0x2A] GET_REQ_LEVEL(level=11, entity_id=Jakoh Wahcondalo (ID: 17801224/0x010FA008))
 62: 0x0CAD [0x45] LOAD_SCHEDULED_TASK: Load scheduler "fdo1" with entities [LocalPlayer, LocalPlayer], work=[200*, 0*]
 63: 0x0CBE [0x1C] WAIT(60* ticks)
 64: 0x0CC1 [0x4B] UPDATE_ENTITY_YAW(entity=Jakoh Wahcondalo (ID: 17801224/0x010FA008), yaw=11.2°*)
 65: 0x0CC8 [0x6F] WAIT_FRAME_DELAY: Yield until WaitTime reaches zero
 66: 0x0CC9 [0x76] CHECK_ENTITY_RENDER_FLAGS: Wait until Jakoh Wahcondalo (ID: 17801224/0x010FA008) Render.Flags0 and Render.Flags3 conditions are met
 67: 0x0CCE [0x02] IF !(Work_Zone[9] == 3*) GOTO 0x0CE8
 68: 0x0CD6 [0x52] END_LOAD_SCHEDULER: End scheduler "s107" with entities [LocalPlayer, LocalPlayer], work=150*
 69: 0x0CE5 [0x01] GOTO 0x0D45
 70: 0x0CE8 [0x02] IF !(Work_Zone[9] == 5*) GOTO 0x0D02
 71: 0x0CF0 [0x52] END_LOAD_SCHEDULER: End scheduler "s108" with entities [LocalPlayer, LocalPlayer], work=150*
 72: 0x0CFF [0x01] GOTO 0x0D45
 73: 0x0D02 [0x02] IF !(Work_Zone[9] == 6*) GOTO 0x0D1C
 74: 0x0D0A [0x52] END_LOAD_SCHEDULER: End scheduler "s108" with entities [LocalPlayer, LocalPlayer], work=150*
 75: 0x0D19 [0x01] GOTO 0x0D45
 76: 0x0D1C [0x02] IF !(Work_Zone[9] == 8*) GOTO 0x0D36
 77: 0x0D24 [0x52] END_LOAD_SCHEDULER: End scheduler "s107" with entities [LocalPlayer, LocalPlayer], work=150*
 78: 0x0D33 [0x01] GOTO 0x0D45
 79: 0x0D36 [0x52] END_LOAD_SCHEDULER: End scheduler "s101" with entities [LocalPlayer, LocalPlayer], work=150*

SUBROUTINE_0D45:
 80: 0x0D45 [0x29] REQ_SET_WAIT(priority=0x08, entity_id=Jakoh Wahcondalo (ID: 17801224/0x010FA008), tag_num=0x07)
 81: 0x0D4C [0x29] REQ_SET_WAIT(priority=0x08, entity_id=Jakoh Wahcondalo (ID: 17801224/0x010FA008), tag_num=0x08)
 82: 0x0D53 [0x45] LOAD_SCHEDULED_TASK: Load scheduler "s102" with entities [LocalPlayer, LocalPlayer], work=[150*, 0*]
 83: 0x0D64 [0x45] LOAD_SCHEDULED_TASK: Load scheduler "fdi1" with entities [LocalPlayer, LocalPlayer], work=[200*, 0*]
 84: 0x0D75 [0x29] REQ_SET_WAIT(priority=0x0B, entity_id=Jakoh Wahcondalo (ID: 17801224/0x010FA008), tag_num=0x2D)
 85: 0x0D7C [0x52] END_LOAD_SCHEDULER: End scheduler "s102" with entities [LocalPlayer, LocalPlayer], work=150*
 86: 0x0D8B [0x45] LOAD_SCHEDULED_TASK: Load scheduler "ovl1" with entities [LocalPlayer, LocalPlayer], work=[200*, 0*]
 87: 0x0D9C [0x45] LOAD_SCHEDULED_TASK: Load scheduler "s103" with entities [LocalPlayer, LocalPlayer], work=[150*, 0*]
 88: 0x0DAD [0x29] REQ_SET_WAIT(priority=0x08, entity_id=Jakoh Wahcondalo (ID: 17801224/0x010FA008), tag_num=0x09)
 89: 0x0DB4 [0x2B] Jakoh Wahcondalo (ID: 17801224/0x010FA008) [10130*]:
    → "The voice you heard was probably one of the angrrry spirits of those people."
 90: 0x0DBB [0x23] WAIT_FOR_DIALOG_INTERACTION
 91: 0x0DBC [0x29] REQ_SET_WAIT(priority=0x08, entity_id=Jakoh Wahcondalo (ID: 17801224/0x010FA008), tag_num=0x0A)
 92: 0x0DC3 [0x52] END_LOAD_SCHEDULER: End scheduler "s103" with entities [LocalPlayer, LocalPlayer], work=150*
 93: 0x0DD2 [0x45] LOAD_SCHEDULED_TASK: Load scheduler "s104" with entities [LocalPlayer, LocalPlayer], work=[150*, 0*]
 94: 0x0DE3 [0x79] Jakoh Wahcondalo (ID: 17801224/0x010FA008) looks at LocalPlayer (Basic look)
 95: 0x0DED [0x29] REQ_SET_WAIT(priority=0x0B, entity_id=Jakoh Wahcondalo (ID: 17801224/0x010FA008), tag_num=0x2E)
 96: 0x0DF4 [0x52] END_LOAD_SCHEDULER: End scheduler "s104" with entities [LocalPlayer, LocalPlayer], work=150*
 97: 0x0E03 [0x45] LOAD_SCHEDULED_TASK: Load scheduler "s105" with entities [LocalPlayer, LocalPlayer], work=[150*, 0*]
 98: 0x0E14 [0x29] REQ_SET_WAIT(priority=0x0B, entity_id=Jakoh Wahcondalo (ID: 17801224/0x010FA008), tag_num=0x2F)
 99: 0x0E1B [0x5D] SET_MUSIC_VOLUME(volume=0*, fade_time=200*)
100: 0x0E20 [0x45] LOAD_SCHEDULED_TASK: Load scheduler "fdo1" with entities [LocalPlayer, LocalPlayer], work=[200*, 0*]
101: 0x0E31 [0x1C] WAIT(100* ticks)
102: 0x0E34 [0x52] END_LOAD_SCHEDULER: End scheduler "s105" with entities [LocalPlayer, LocalPlayer], work=150*
103: 0x0E43 [0x46] CAMERA_CONTROL: Restore default settings
104: 0x0E45 [0x5C] MUSIC_CONTROL: Set Idle (Day) music to song 135*
105: 0x0E49 [0x5C] MUSIC_CONTROL: Set Idle (Night) music to song 135*
106: 0x0E4D [0x5D] SET_MUSIC_VOLUME(volume=127*, fade_time=1*)
107: 0x0E52 [0x1C] WAIT(200* ticks)
108: 0x0E55 [0x45] LOAD_SCHEDULED_TASK: Load scheduler "fdi1" with entities [LocalPlayer, LocalPlayer], work=[200*, 0*]
109: 0x0E66 [0x45] LOAD_SCHEDULED_TASK: Load scheduler "qstc" with entities [LocalPlayer, LocalPlayer], work=[201*, 0*]
110: 0x0E77 [0x20] SET_CLI_EVENT_UC_FLAG: Unlock player control
111: 0x0E79 [0x21] END_EVENT
112: 0x0E7A [0x00] END_REQSTACK()
```

### Event 65535.37

#### Metadata

| Field        | Value   |
|--------------|---------|
| Entrypoint   | 0x0E7B  |
| Data Size    | 5 bytes |
| Instructions | 3       |

```
      00 01 02 03 04 05 06 07  08 09 0A 0B 0C 0D 0E 0F
      -- -- -- -- -- -- -- --  -- -- -- -- -- -- -- --
0E70:                                   1D 39 80 23 00             .9.#.
```

#### Opcodes

```
  0: 0x0E7B [0x1D] PRINT_EVENT_MESSAGE(message_id=10127*)
    → "So, did you put the painting in the frame? What? You heard a strange voice and were attacked by a monster!?"
  1: 0x0E7E [0x23] WAIT_FOR_DIALOG_INTERACTION
  2: 0x0E7F [0x00] END_REQSTACK()
```

### Event 51

#### Metadata

| Field        | Value    |
|--------------|----------|
| Entrypoint   | 0x0E80   |
| Data Size    | 33 bytes |
| Instructions | 12       |

```
      00 01 02 03 04 05 06 07  08 09 0A 0B 0C 0D 0E 0F
      -- -- -- -- -- -- -- --  -- -- -- -- -- -- -- --
0E80: 1E F0 FF FF 7F 6F 70 29  08 09 A0 0F 01 03 1D 3A  .....op).......:
0E90: 80 23 1D 3B 80 23 29 08  09 A0 0F 01 04 20 00 21  .#.;.#)...... .!
0EA0: 00                                                .               
```

#### Opcodes

```
  0: 0x0E80 [0x1E] EventEntity looks at LocalPlayer and starts talking
  1: 0x0E85 [0x6F] WAIT_FRAME_DELAY: Yield until WaitTime reaches zero
  2: 0x0E86 [0x70] WAIT_ENTITY_RENDER_FLAG: Wait while EventEntity->Render.Flags3 bit 2 is set (cancel turn if not)
  3: 0x0E87 [0x29] REQ_SET_WAIT(priority=0x08, entity_id=Etteh Sulaej (ID: 17801225/0x010FA009), tag_num=0x03)
  4: 0x0E8E [0x1D] PRINT_EVENT_MESSAGE(message_id=10133*)
    → "A lot of people say that they hear voices when they travel around the Uggalepih Temple."
  5: 0x0E91 [0x23] WAIT_FOR_DIALOG_INTERACTION
  6: 0x0E92 [0x1D] PRINT_EVENT_MESSAGE(message_id=10134*)
    → "I never heard any, though. I guess I just don't have that "sixth sense.""
  7: 0x0E95 [0x23] WAIT_FOR_DIALOG_INTERACTION
  8: 0x0E96 [0x29] REQ_SET_WAIT(priority=0x08, entity_id=Etteh Sulaej (ID: 17801225/0x010FA009), tag_num=0x04)
  9: 0x0E9D [0x20] SET_CLI_EVENT_UC_FLAG: Unlock player control
 10: 0x0E9F [0x21] END_EVENT
 11: 0x0EA0 [0x00] END_REQSTACK()
```

### Event 53

#### Metadata

| Field        | Value      |
|--------------|------------|
| Entrypoint   | 0x0EA1     |
| Data Size    | 1175 bytes |
| Instructions | 147        |

```
      00 01 02 03 04 05 06 07  08 09 0A 0B 0C 0D 0E 0F
      -- -- -- -- -- -- -- --  -- -- -- -- -- -- -- --
0EA0:    20 01 42 46 01 1E F0  FF FF 7F 5D 0E 80 0F 80    .BF......]....
0EB0: 45 0F 80 F0 FF FF 7F F0  FF FF 7F 66 64 6F 31 0E  E..........fdo1.
0EC0: 80 1C 10 80 75 00 11 80  75 01 6F 70 38 12 80 29  ....u...u.op8..)
0ED0: 0B F0 FF FF 7F 08 29 08  F0 FF FF 7F 05 4A 09 A0  ......)......J..
0EE0: 0F 01 F0 FF FF 7F 4A F0  FF FF 7F 09 A0 0F 01 6F  ......J........o
0EF0: 76 09 A0 0F 01 6F 76 F0  FF FF 7F 4E 01 4A A0 0F  v....ov....N.J..
0F00: 01 4E 01 4F A0 0F 01 5C  00 13 80 5C 01 13 80 5D  .N.O...\...\...]
0F10: 2C 80 19 80 1C 0F 80 02  09 10 14 80 00 33 0F 45  ,............3.E
0F20: 15 80 F0 FF FF 7F F0 FF  FF 7F 73 31 30 36 0E 80  ..........s106..
0F30: 01 60 0F 02 09 10 16 80  00 4F 0F 45 15 80 F0 FF  .`.......O.E....
0F40: FF 7F F0 FF FF 7F 73 31  30 36 0E 80 01 60 0F 45  ......s106...`.E
0F50: 15 80 F0 FF FF 7F F0 FF  FF 7F 73 30 30 30 0E 80  ..........s000..
0F60: 45 0F 80 F0 FF FF 7F F0  FF FF 7F 66 64 69 31 0E  E..........fdi1.
0F70: 80 29 08 09 A0 0F 01 03  29 0B 09 A0 0F 01 2F 29  .)......)...../)
0F80: 08 09 A0 0F 01 04 45 0F  80 F0 FF FF 7F F0 FF FF  ......E.........
0F90: 7F 66 64 6F 31 0E 80 1C  10 80 02 09 10 14 80 00  .fdo1...........
0FA0: B4 0F 52 15 80 F0 FF FF  7F F0 FF FF 7F 73 31 30  ..R..........s10
0FB0: 36 01 DD 0F 02 09 10 16  80 00 CE 0F 52 15 80 F0  6...........R...
0FC0: FF FF 7F F0 FF FF 7F 73  31 30 36 01 DD 0F 52 15  .......s106...R.
0FD0: 80 F0 FF FF 7F F0 FF FF  7F 73 30 30 30 2C 09 A0  .........s000,..
0FE0: 0F 01 09 A0 0F 01 77 6F  6E 34 29 08 09 A0 0F 01  ......won4).....
0FF0: 16 45 15 80 F0 FF FF 7F  F0 FF FF 7F 73 30 39 30  .E..........s090
1000: 0E 80 45 0F 80 F0 FF FF  7F F0 FF FF 7F 66 64 69  ..E..........fdi
1010: 31 0E 80 29 0B 09 A0 0F  01 30 52 15 80 F0 FF FF  1..).....0R.....
1020: 7F F0 FF FF 7F 73 30 39  30 45 0F 80 F0 FF FF 7F  .....s090E......
1030: F0 FF FF 7F 6F 76 6C 31  0E 80 45 15 80 F0 FF FF  ....ovl1..E.....
1040: 7F F0 FF FF 7F 73 30 39  32 0E 80 2B 09 A0 0F 01  .....s092..+....
1050: 3C 80 23 2B 09 A0 0F 01  3D 80 23 45 0F 80 F0 FF  <.#+....=.#E....
1060: FF 7F F0 FF FF 7F 66 64  6F 31 0E 80 1C 10 80 2C  ......fdo1.....,
1070: 09 A0 0F 01 09 A0 0F 01  77 6F 66 34 29 08 09 A0  ........wof4)...
1080: 0F 01 15 52 15 80 F0 FF  FF 7F F0 FF FF 7F 73 30  ...R..........s0
1090: 39 32 29 0B 08 A0 0F 01  1E 45 15 80 F0 FF FF 7F  92)......E......
10A0: F0 FF FF 7F 73 31 30 33  0E 80 45 0F 80 F0 FF FF  ....s103..E.....
10B0: 7F F0 FF FF 7F 66 64 69  31 0E 80 27 0B 08 A0 0F  .....fdi1..'....
10C0: 01 1F 4A 09 A0 0F 01 08  A0 0F 01 4A F0 FF FF 7F  ..J........J....
10D0: 08 A0 0F 01 2B 08 A0 0F  01 3E 80 23 2A 0B 08 A0  ....+....>.#*...
10E0: 0F 01 52 15 80 F0 FF FF  7F F0 FF FF 7F 73 31 30  ..R..........s10
10F0: 33 24 3F 80 0E 80 0E 80  25 02 00 10 0E 80 00 AE  3$?.....%.......
1100: 11 42 03 01 10 19 80 02  09 10 12 80 00 23 11 45  .B...........#.E
1110: 15 80 F0 FF FF 7F F0 FF  FF 7F 73 31 30 37 0E 80  ..........s107..
1120: 01 88 11 02 09 10 14 80  00 3F 11 45 15 80 F0 FF  .........?.E....
1130: FF 7F F0 FF FF 7F 73 31  30 38 0E 80 01 88 11 02  ......s108......
1140: 09 10 16 80 00 5B 11 45  15 80 F0 FF FF 7F F0 FF  .....[.E........
1150: FF 7F 73 31 30 38 0E 80  01 88 11 02 09 10 17 80  ..s108..........
1160: 00 77 11 45 15 80 F0 FF  FF 7F F0 FF FF 7F 73 31  .w.E..........s1
1170: 30 37 0E 80 01 88 11 45  15 80 F0 FF FF 7F F0 FF  07.....E........
1180: FF 7F 73 31 30 31 0E 80  29 08 08 A0 0F 01 01 29  ..s101..)......)
1190: 0B 08 A0 0F 01 34 29 08  08 A0 0F 01 01 29 08 08  .....4)......)..
11A0: A0 0F 01 03 29 08 08 A0  0F 01 04 01 81 12 02 00  ....)...........
11B0: 10 19 80 00 81 12 03 01  10 1A 80 02 09 10 12 80  ................
11C0: 00 D7 11 45 15 80 F0 FF  FF 7F F0 FF FF 7F 73 31  ...E..........s1
11D0: 30 37 0E 80 01 3C 12 02  09 10 14 80 00 F3 11 45  07...<.........E
11E0: 15 80 F0 FF FF 7F F0 FF  FF 7F 73 31 30 38 0E 80  ..........s108..
11F0: 01 3C 12 02 09 10 16 80  00 0F 12 45 15 80 F0 FF  .<.........E....
1200: FF 7F F0 FF FF 7F 73 31  30 38 0E 80 01 3C 12 02  ......s108...<..
1210: 09 10 17 80 00 2B 12 45  15 80 F0 FF FF 7F F0 FF  .....+.E........
1220: FF 7F 73 31 30 37 0E 80  01 3C 12 45 15 80 F0 FF  ..s107...<.E....
1230: FF 7F F0 FF FF 7F 73 31  30 31 0E 80 79 00 08 A0  ......s101..y...
1240: 0F 01 09 A0 0F 01 29 08  08 A0 0F 01 01 29 0B 08  ......)......)..
1250: A0 0F 01 33 29 08 08 A0  0F 01 01 29 08 08 A0 0F  ...3)......)....
1260: 01 03 29 08 09 A0 0F 01  03 29 0B 09 A0 0F 01 31  ..)......).....1
1270: 29 08 09 A0 0F 01 04 29  08 08 A0 0F 01 04 01 81  )......)........
1280: 12 5D 0E 80 0F 80 45 0F  80 F0 FF FF 7F F0 FF FF  .]....E.........
1290: 7F 66 64 6F 31 0E 80 1C  1F 80 02 09 10 12 80 00  .fdo1...........
12A0: B4 12 52 15 80 F0 FF FF  7F F0 FF FF 7F 73 31 30  ..R..........s10
12B0: 37 01 11 13 02 09 10 14  80 00 CE 12 52 15 80 F0  7...........R...
12C0: FF FF 7F F0 FF FF 7F 73  31 30 38 01 11 13 02 09  .......s108.....
12D0: 10 16 80 00 E8 12 52 15  80 F0 FF FF 7F F0 FF FF  ......R.........
12E0: 7F 73 31 30 38 01 11 13  02 09 10 17 80 00 02 13  .s108...........
12F0: 52 15 80 F0 FF FF 7F F0  FF FF 7F 73 31 30 37 01  R..........s107.
1300: 11 13 52 15 80 F0 FF FF  7F F0 FF FF 7F 73 31 30  ..R..........s10
1310: 31 46 00 5C 00 20 80 5C  01 20 80 5D 2C 80 19 80  1F.\. .\. .],...
1320: 1C 0F 80 45 0F 80 F0 FF  FF 7F F0 FF FF 7F 66 64  ...E..........fd
1330: 69 31 0E 80 20 00 21 00                           i1.. .!.        
```

#### Opcodes

```
  0: 0x0EA1 [0x20] SET_CLI_EVENT_UC_FLAG: Lock player control
  1: 0x0EA3 [0x42] SET_CLI_EVENT_CANCEL_DATA()
  2: 0x0EA4 [0x46] CAMERA_CONTROL: Disable user control
  3: 0x0EA6 [0x1E] EventEntity looks at LocalPlayer and starts talking
  4: 0x0EAB [0x5D] SET_MUSIC_VOLUME(volume=0*, fade_time=200*)
  5: 0x0EB0 [0x45] LOAD_SCHEDULED_TASK: Load scheduler "fdo1" with entities [LocalPlayer, LocalPlayer], work=[200*, 0*]
  6: 0x0EC1 [0x1C] WAIT(60* ticks)
  7: 0x0EC4 [0x75] LOAD_ROOM(Load indoor room, room=507*)
  8: 0x0EC8 [0x75] LOAD_ROOM(No action)
  9: 0x0ECA [0x6F] WAIT_FRAME_DELAY: Yield until WaitTime reaches zero
 10: 0x0ECB [0x70] WAIT_ENTITY_RENDER_FLAG: Wait while EventEntity->Render.Flags3 bit 2 is set (cancel turn if not)
 11: 0x0ECC [0x38] SET_CLIENT_EVENT_MODE(mode=3*)
 12: 0x0ECF [0x29] REQ_SET_WAIT(priority=0x0B, entity_id=LocalPlayer, tag_num=0x08)
 13: 0x0ED6 [0x29] REQ_SET_WAIT(priority=0x08, entity_id=LocalPlayer, tag_num=0x05)
 14: 0x0EDD [0x4A] Etteh Sulaej (ID: 17801225/0x010FA009) looks at LocalPlayer
 15: 0x0EE6 [0x4A] LocalPlayer looks at Etteh Sulaej (ID: 17801225/0x010FA009)
 16: 0x0EEF [0x6F] WAIT_FRAME_DELAY: Yield until WaitTime reaches zero
