# 17801241 - Rauteinot

## Common Data

| Field            | Value            |
|------------------|------------------|
| Zone             | Kazham (ID: 250) |
| Block Size       | 2084 bytes       |
| Total Events     | 34               |
| References Count | 37               |

## List of Events

| Event ID                   | Entrypoint   |   Size |   Instructions |
|----------------------------|--------------|--------|----------------|
| [65535](#event-65535)      | 0x0000       |      1 |              1 |
| [65535.1](#event-655351)   | 0x0001       |     16 |              2 |
| [65535.2](#event-655352)   | 0x0011       |     14 |              2 |
| [65535.3](#event-655353)   | 0x001F       |     16 |              2 |
| [65535.4](#event-655354)   | 0x002F       |     14 |              2 |
| [65535.5](#event-655355)   | 0x003D       |     16 |              2 |
| [65535.6](#event-655356)   | 0x004D       |     14 |              2 |
| [65535.7](#event-655357)   | 0x005B       |     16 |              2 |
| [65535.8](#event-655358)   | 0x006B       |     14 |              2 |
| [65535.9](#event-655359)   | 0x0079       |     16 |              2 |
| [65535.10](#event-6553510) | 0x0089       |     14 |              2 |
| [65535.11](#event-6553511) | 0x0097       |     16 |              2 |
| [65535.12](#event-6553512) | 0x00A7       |     14 |              2 |
| [65535.13](#event-6553513) | 0x00B5       |      9 |              3 |
| [136](#event-136)          | 0x00BE       |     47 |             14 |
| [137](#event-137)          | 0x00ED       |    747 |             95 |
| [65535.14](#event-6553514) | 0x03D8       |      5 |              3 |
| [65535.15](#event-6553515) | 0x03DD       |      5 |              3 |
| [65535.16](#event-6553516) | 0x03E2       |      5 |              3 |
| [65535.17](#event-6553517) | 0x03E7       |      5 |              3 |
| [65535.18](#event-6553518) | 0x03EC       |      5 |              3 |
| [65535.19](#event-6553519) | 0x03F1       |      5 |              3 |
| [65535.20](#event-6553520) | 0x03F6       |      5 |              3 |
| [138](#event-138)          | 0x03FB       |     33 |             12 |
| [139](#event-139)          | 0x041C       |    184 |             32 |
| [140](#event-140)          | 0x04D4       |     61 |             16 |
| [141](#event-141)          | 0x0511       |    407 |             57 |
| [65535.21](#event-6553521) | 0x06A8       |      5 |              3 |
| [65535.22](#event-6553522) | 0x06AD       |      5 |              3 |
| [65535.23](#event-6553523) | 0x06B2       |      5 |              3 |
| [65535.24](#event-6553524) | 0x06B7       |      5 |              3 |
| [142](#event-142)          | 0x06BC       |     33 |             12 |
| [313](#event-313)          | 0x06DD       |     12 |              3 |
| [315](#event-315)          | 0x06E9       |     12 |              3 |

## DAT References (imed_data)

|   Index | Hex Value   |   Dec Value |
|---------|-------------|-------------|
|       0 | 0x0014      |          20 |
|       1 | 0x001E      |          30 |
|       2 | 0x27EE      |       10222 |
|       3 | 0x27EF      |       10223 |
|       4 | 0x0000      |           0 |
|       5 | 0x00C8      |         200 |
|       6 | 0x0003      |           3 |
|       7 | 0x00C7      |         199 |
|       8 | 0x007F      |         127 |
|       9 | 0x0001      |           1 |
|      10 | 0x0096      |         150 |
|      11 | 0x27F4      |       10228 |
|      12 | 0x27F6      |       10230 |
|      13 | 0x0002      |           2 |
|      14 | 0x0087      |         135 |
|      15 | 0x27F0      |       10224 |
|      16 | 0x27F1      |       10225 |
|      17 | 0x27F2      |       10226 |
|      18 | 0x27F3      |       10227 |
|      19 | 0x27F5      |       10229 |
|      20 | 0x27F7      |       10231 |
|      21 | 0x27F8      |       10232 |
|      22 | 0x27F9      |       10233 |
|      23 | 0x27FA      |       10234 |
|      24 | 0x003C      |          60 |
|      25 | 0x27FB      |       10235 |
|      26 | 0x27FC      |       10236 |
|      27 | 0x27FD      |       10237 |
|      28 | 0x27FE      |       10238 |
|      29 | 0x2800      |       10240 |
|      30 | 0x00C9      |         201 |
|      31 | 0x27FF      |       10239 |
|      32 | 0x2801      |       10241 |
|      33 | 0x2802      |       10242 |
|      34 | 0x2803      |       10243 |
|      35 | 0x2804      |       10244 |
|      36 | 0x2805      |       10245 |

## String References

- **10222**: I am a missionary from the San d'Oria Cathedral.
- **10223**: I am here to teach the savages of this untamed land the true value of life and salvation in the light of the Goddess Altana.
- **10224**: However, these uncivilized brutes will not listen to a word I say. Oh, how they mock me and my teachings.
- **10225**: From what I have been able to gather, these primitive women believe that Vana'diel itself is their goddess.
- **10226**: In all my travels, I have never come across a race so stubborn as these Mithra. They will not try listening to my sermon.
- **10227**: However, after sleepless nights of prayer, Altana finally granted me with a vision--a method on how to trick these savages into listening.
- **10228**: But to fulfill the Goddess's wishes, I require an extremely rare ore, obtained only by defeating a terrible monster living in that hellish jungle out there.
- **10229**: For the sake of these ignorant Mithra, would you be so kind as to retrieve $1 from the Yuhtunga Jungle for me?
- **10230**: Help Rauteinot? [Yes./No.]
- **10231**: I am disappointed in your reply. However, that will not stop me from continuing my mission. I will pray for you tonight, my child.
- **10232**: I thank you for your time. Your kindness will not go unrewarded. Let the Goddess be your light of hope on this perilous journey!
- **10233**: I require $1 to spread the word of the Goddess Altana. I heard that in rare cases, the monsters in the Yuhtunga Jungle carry them.
- **10234**: Do not worry. Your kindness will not go unrewarded. Let the Goddess be your light of hope on this perilous journey!
- **10235**: You have arrived back safely! The Goddess has answered my prayers! Now, take that stone back to San d'Oria and give it to Master Mulaujeant, along with this letter.
- **10236**: An artisan with his skill should have no problem carving a statue that will move the hearts of the masses.
- **10237**: Please deliver my letter and the ore you retrieved to Mulaujeant the sculptor in San d'Oria.
- **10238**: An artisan with his skill should have no problem carving a statue that will move the hearts of the masses.
- **10239**: Have you brought it? Ah, yes. This is the exact same image I saw in my vision from the Goddess Altana!
- **10240**: When the heathens of this backwards village lay their eyes upon this immaculate sculpture, they will surely come to their senses!
- **10241**: A statue of the Goddess Altana, sculpted from a stone that can only be found in Kazham...
- **10242**: Now I can prove to them that the Dawn Goddess exists even in the earth they tread upon each day.
- **10243**: Ah, yes. Please accept this as a token of my gratitude. May the light of Altana shine down upon you, always.
- **10244**: A statue of the Goddess Altana, sculpted from a stone that can only be found in Kazham...
- **10245**: Now I can prove to them that the Dawn Goddess exists even in the earth they tread upon each day. Now they will listen to me. Now I can cleanse their minds of the filth that befouls them.

## Events

### Event 65535

#### Metadata

| Field        | Value   |
|--------------|---------|
| Entrypoint   | 0x0000  |
| Data Size    | 1 bytes |
| Instructions | 1       |

```
      00 01 02 03 04 05 06 07  08 09 0A 0B 0C 0D 0E 0F
      -- -- -- -- -- -- -- --  -- -- -- -- -- -- -- --
0000: 00                                                .               
```

#### Opcodes

```
  0: 0x0000 [0x00] END_REQSTACK()
```

### Event 65535.1

#### Metadata

| Field        | Value    |
|--------------|----------|
| Entrypoint   | 0x0001   |
| Data Size    | 16 bytes |
| Instructions | 2        |

```
      00 01 02 03 04 05 06 07  08 09 0A 0B 0C 0D 0E 0F
      -- -- -- -- -- -- -- --  -- -- -- -- -- -- -- --
0000:    5B 00 80 F8 FF FF 7F  F8 FF FF 7F 74 6C 6B 30   [..........tlk0
0010: 00                                                .               
```

#### Opcodes

```
  0: 0x0001 [0x5B] LOAD_EXT_SCHEDULER: Load scheduler "tlk0" with entities [EventEntity, EventEntity], work=20*
  1: 0x0010 [0x00] END_REQSTACK()
```

### Event 65535.2

#### Metadata

| Field        | Value    |
|--------------|----------|
| Entrypoint   | 0x0011   |
| Data Size    | 14 bytes |
| Instructions | 2        |

```
      00 01 02 03 04 05 06 07  08 09 0A 0B 0C 0D 0E 0F
      -- -- -- -- -- -- -- --  -- -- -- -- -- -- -- --
0010:    53 F8 FF FF 7F F8 FF  FF 7F 74 6C 6B 30 00      S........tlk0. 
```

#### Opcodes

```
  0: 0x0011 [0x53] WAIT_SCHEDULER_TASK: Wait for scheduler "tlk0" with entities [EventEntity, EventEntity]
  1: 0x001E [0x00] END_REQSTACK()
```

### Event 65535.3

#### Metadata

| Field        | Value    |
|--------------|----------|
| Entrypoint   | 0x001F   |
| Data Size    | 16 bytes |
| Instructions | 2        |

```
      00 01 02 03 04 05 06 07  08 09 0A 0B 0C 0D 0E 0F
      -- -- -- -- -- -- -- --  -- -- -- -- -- -- -- --
0010:                                               5B                 [
0020: 00 80 F8 FF FF 7F F8 FF  FF 7F 74 6C 6B 31 00     ..........tlk1. 
```

#### Opcodes

```
  0: 0x001F [0x5B] LOAD_EXT_SCHEDULER: Load scheduler "tlk1" with entities [EventEntity, EventEntity], work=20*
  1: 0x002E [0x00] END_REQSTACK()
```

### Event 65535.4

#### Metadata

| Field        | Value    |
|--------------|----------|
| Entrypoint   | 0x002F   |
| Data Size    | 14 bytes |
| Instructions | 2        |

```
      00 01 02 03 04 05 06 07  08 09 0A 0B 0C 0D 0E 0F
      -- -- -- -- -- -- -- --  -- -- -- -- -- -- -- --
0020:                                               53                 S
0030: F8 FF FF 7F F8 FF FF 7F  74 6C 6B 31 00           ........tlk1.   
```

#### Opcodes

```
  0: 0x002F [0x53] WAIT_SCHEDULER_TASK: Wait for scheduler "tlk1" with entities [EventEntity, EventEntity]
  1: 0x003C [0x00] END_REQSTACK()
```

### Event 65535.5

#### Metadata

| Field        | Value    |
|--------------|----------|
| Entrypoint   | 0x003D   |
| Data Size    | 16 bytes |
| Instructions | 2        |

```
      00 01 02 03 04 05 06 07  08 09 0A 0B 0C 0D 0E 0F
      -- -- -- -- -- -- -- --  -- -- -- -- -- -- -- --
0030:                                         5B 00 80               [..
0040: F8 FF FF 7F F8 FF FF 7F  74 68 6B 31 00           ........thk1.   
```

#### Opcodes

```
  0: 0x003D [0x5B] LOAD_EXT_SCHEDULER: Load scheduler "thk1" with entities [EventEntity, EventEntity], work=20*
  1: 0x004C [0x00] END_REQSTACK()
```

### Event 65535.6

#### Metadata

| Field        | Value    |
|--------------|----------|
| Entrypoint   | 0x004D   |
| Data Size    | 14 bytes |
| Instructions | 2        |

```
      00 01 02 03 04 05 06 07  08 09 0A 0B 0C 0D 0E 0F
      -- -- -- -- -- -- -- --  -- -- -- -- -- -- -- --
0040:                                         53 F8 FF               S..
0050: FF 7F F8 FF FF 7F 74 68  6B 31 00                 ......thk1.     
```

#### Opcodes

```
  0: 0x004D [0x53] WAIT_SCHEDULER_TASK: Wait for scheduler "thk1" with entities [EventEntity, EventEntity]
  1: 0x005A [0x00] END_REQSTACK()
```

### Event 65535.7

#### Metadata

| Field        | Value    |
|--------------|----------|
| Entrypoint   | 0x005B   |
| Data Size    | 16 bytes |
| Instructions | 2        |

```
      00 01 02 03 04 05 06 07  08 09 0A 0B 0C 0D 0E 0F
      -- -- -- -- -- -- -- --  -- -- -- -- -- -- -- --
0050:                                   5B 00 80 F8 FF             [....
0060: FF 7F F8 FF FF 7F 74 68  6B 32 00                 ......thk2.     
```

#### Opcodes

```
  0: 0x005B [0x5B] LOAD_EXT_SCHEDULER: Load scheduler "thk2" with entities [EventEntity, EventEntity], work=20*
  1: 0x006A [0x00] END_REQSTACK()
```

### Event 65535.8

#### Metadata

| Field        | Value    |
|--------------|----------|
| Entrypoint   | 0x006B   |
| Data Size    | 14 bytes |
| Instructions | 2        |

```
      00 01 02 03 04 05 06 07  08 09 0A 0B 0C 0D 0E 0F
      -- -- -- -- -- -- -- --  -- -- -- -- -- -- -- --
0060:                                   53 F8 FF FF 7F             S....
0070: F8 FF FF 7F 74 68 6B 32  00                       ....thk2.       
```

#### Opcodes

```
  0: 0x006B [0x53] WAIT_SCHEDULER_TASK: Wait for scheduler "thk2" with entities [EventEntity, EventEntity]
  1: 0x0078 [0x00] END_REQSTACK()
```

### Event 65535.9

#### Metadata

| Field        | Value    |
|--------------|----------|
| Entrypoint   | 0x0079   |
| Data Size    | 16 bytes |
| Instructions | 2        |

```
      00 01 02 03 04 05 06 07  08 09 0A 0B 0C 0D 0E 0F
      -- -- -- -- -- -- -- --  -- -- -- -- -- -- -- --
0070:                             5B 00 80 F8 FF FF 7F           [......
0080: F8 FF FF 7F 70 61 73 30  00                       ....pas0.       
```

#### Opcodes

```
  0: 0x0079 [0x5B] LOAD_EXT_SCHEDULER: Load scheduler "pas0" with entities [EventEntity, EventEntity], work=20*
  1: 0x0088 [0x00] END_REQSTACK()
```

### Event 65535.10

#### Metadata

| Field        | Value    |
|--------------|----------|
| Entrypoint   | 0x0089   |
| Data Size    | 14 bytes |
| Instructions | 2        |

```
      00 01 02 03 04 05 06 07  08 09 0A 0B 0C 0D 0E 0F
      -- -- -- -- -- -- -- --  -- -- -- -- -- -- -- --
0080:                             53 F8 FF FF 7F F8 FF           S......
0090: FF 7F 70 61 73 30 00                              ..pas0.         
```

#### Opcodes

```
  0: 0x0089 [0x53] WAIT_SCHEDULER_TASK: Wait for scheduler "pas0" with entities [EventEntity, EventEntity]
  1: 0x0096 [0x00] END_REQSTACK()
```

### Event 65535.11

#### Metadata

| Field        | Value    |
|--------------|----------|
| Entrypoint   | 0x0097   |
| Data Size    | 16 bytes |
| Instructions | 2        |

```
      00 01 02 03 04 05 06 07  08 09 0A 0B 0C 0D 0E 0F
      -- -- -- -- -- -- -- --  -- -- -- -- -- -- -- --
0090:                      5B  00 80 F8 FF FF 7F F8 FF         [........
00A0: FF 7F 69 6E 6F 30 00                              ..ino0.         
```

#### Opcodes

```
  0: 0x0097 [0x5B] LOAD_EXT_SCHEDULER: Load scheduler "ino0" with entities [EventEntity, EventEntity], work=20*
  1: 0x00A6 [0x00] END_REQSTACK()
```

### Event 65535.12

#### Metadata

| Field        | Value    |
|--------------|----------|
| Entrypoint   | 0x00A7   |
| Data Size    | 14 bytes |
| Instructions | 2        |

```
      00 01 02 03 04 05 06 07  08 09 0A 0B 0C 0D 0E 0F
      -- -- -- -- -- -- -- --  -- -- -- -- -- -- -- --
00A0:                      53  F8 FF FF 7F F8 FF FF 7F         S........
00B0: 69 6E 6F 30 00                                    ino0.           
```

#### Opcodes

```
  0: 0x00A7 [0x53] WAIT_SCHEDULER_TASK: Wait for scheduler "ino0" with entities [EventEntity, EventEntity]
  1: 0x00B4 [0x00] END_REQSTACK()
```

### Event 65535.13

#### Metadata

| Field        | Value   |
|--------------|---------|
| Entrypoint   | 0x00B5  |
| Data Size    | 9 bytes |
| Instructions | 3       |

```
      00 01 02 03 04 05 06 07  08 09 0A 0B 0C 0D 0E 0F
      -- -- -- -- -- -- -- --  -- -- -- -- -- -- -- --
00B0:                5E 69 64  6C 30 1C 01 80 00             ^idl0....  
```

#### Opcodes

```
  0: 0x00B5 [0x5E] EventEntity goes idle (kills current action) (animation: "idl0")
  1: 0x00BA [0x1C] WAIT(30* ticks)
  2: 0x00BD [0x00] END_REQSTACK()
```

### Event 136

#### Metadata

| Field        | Value    |
|--------------|----------|
| Entrypoint   | 0x00BE   |
| Data Size    | 47 bytes |
| Instructions | 14       |

```
      00 01 02 03 04 05 06 07  08 09 0A 0B 0C 0D 0E 0F
      -- -- -- -- -- -- -- --  -- -- -- -- -- -- -- --
00B0:                                            1E F0                ..
00C0: FF FF 7F 6F 70 29 08 19  A0 0F 01 01 1D 02 80 23  ...op).........#
00D0: 29 08 19 A0 0F 01 02 29  08 19 A0 0F 01 03 1D 03  )......)........
00E0: 80 23 29 08 19 A0 0F 01  04 20 00 21 00           .#)...... .!.   
```

#### Opcodes

```
  0: 0x00BE [0x1E] EventEntity looks at LocalPlayer and starts talking
  1: 0x00C3 [0x6F] WAIT_FRAME_DELAY: Yield until WaitTime reaches zero
  2: 0x00C4 [0x70] WAIT_ENTITY_RENDER_FLAG: Wait while EventEntity->Render.Flags3 bit 2 is set (cancel turn if not)
  3: 0x00C5 [0x29] REQ_SET_WAIT(priority=0x08, entity_id=Rauteinot (ID: 17801241/0x010FA019), tag_num=0x01)
  4: 0x00CC [0x1D] PRINT_EVENT_MESSAGE(message_id=10222*)
    → "I am a missionary from the San d'Oria Cathedral."
  5: 0x00CF [0x23] WAIT_FOR_DIALOG_INTERACTION
  6: 0x00D0 [0x29] REQ_SET_WAIT(priority=0x08, entity_id=Rauteinot (ID: 17801241/0x010FA019), tag_num=0x02)
  7: 0x00D7 [0x29] REQ_SET_WAIT(priority=0x08, entity_id=Rauteinot (ID: 17801241/0x010FA019), tag_num=0x03)
  8: 0x00DE [0x1D] PRINT_EVENT_MESSAGE(message_id=10223*)
    → "I am here to teach the savages of this untamed land the true value of life and salvation in the light of the Goddess Altana."
  9: 0x00E1 [0x23] WAIT_FOR_DIALOG_INTERACTION
 10: 0x00E2 [0x29] REQ_SET_WAIT(priority=0x08, entity_id=Rauteinot (ID: 17801241/0x010FA019), tag_num=0x04)
 11: 0x00E9 [0x20] SET_CLI_EVENT_UC_FLAG: Unlock player control
 12: 0x00EB [0x21] END_EVENT
 13: 0x00EC [0x00] END_REQSTACK()
```

### Event 137

#### Metadata

| Field        | Value     |
|--------------|-----------|
| Entrypoint   | 0x00ED    |
| Data Size    | 747 bytes |
| Instructions | 95        |

```
      00 01 02 03 04 05 06 07  08 09 0A 0B 0C 0D 0E 0F
      -- -- -- -- -- -- -- --  -- -- -- -- -- -- -- --
00E0:                                         20 01 42                .B
00F0: 46 01 1E F0 FF FF 7F 5D  04 80 05 80 45 05 80 F0  F......]....E...
0100: FF FF 7F F0 FF FF 7F 66  64 6F 31 04 80 1C 05 80  .......fdo1.....
0110: 6F 70 38 06 80 29 0B F0  FF FF 7F 0B 29 08 F0 FF  op8..)......)...
0120: FF 7F 05 1E F0 FF FF 7F  6F 70 5C 00 07 80 5C 01  ........op\...\.
0130: 07 80 5D 08 80 09 80 1C  05 80 45 0A 80 F0 FF FF  ..].......E.....
0140: 7F F0 FF FF 7F 73 30 32  34 04 80 45 05 80 F0 FF  .....s024..E....
0150: FF 7F F0 FF FF 7F 66 64  69 31 04 80 29 08 19 A0  ......fdi1..)...
0160: 0F 01 01 1D 02 80 23 1D  03 80 23 29 08 19 A0 0F  ......#...#)....
0170: 01 02 29 08 19 A0 0F 01  03 29 08 19 A0 0F 01 04  ..)......)......
0180: 52 0A 80 F0 FF FF 7F F0  FF FF 7F 73 30 32 34 45  R..........s024E
0190: 0A 80 F0 FF FF 7F F0 FF  FF 7F 73 30 32 35 04 80  ..........s025..
01A0: 29 08 19 A0 0F 01 05 29  0B 19 A0 0F 01 10 29 08  )......)......).
01B0: 19 A0 0F 01 06 52 0A 80  F0 FF FF 7F F0 FF FF 7F  .....R..........
01C0: 73 30 32 35 45 05 80 F0  FF FF 7F F0 FF FF 7F 6F  s025E..........o
01D0: 76 6C 31 04 80 45 0A 80  F0 FF FF 7F F0 FF FF 7F  vl1..E..........
01E0: 73 30 32 36 04 80 29 08  19 A0 0F 01 07 29 0B 19  s026..)......)..
01F0: A0 0F 01 11 29 08 19 A0  0F 01 08 52 0A 80 F0 FF  ....)......R....
0200: FF 7F F0 FF FF 7F 73 30  32 36 45 05 80 F0 FF FF  ......s026E.....
0210: 7F F0 FF FF 7F 6F 76 6C  31 04 80 45 0A 80 F0 FF  .....ovl1..E....
0220: FF 7F F0 FF FF 7F 73 30  32 37 04 80 29 08 19 A0  ......s027..)...
0230: 0F 01 0B 29 0B 19 A0 0F  01 12 29 08 19 A0 0F 01  ...)......).....
0240: 0C 52 0A 80 F0 FF FF 7F  F0 FF FF 7F 73 30 32 37  .R..........s027
0250: 45 0A 80 F0 FF FF 7F F0  FF FF 7F 73 30 32 38 04  E..........s028.
0260: 80 29 08 19 A0 0F 01 01  29 0B 19 A0 0F 01 13 29  .)......)......)
0270: 08 19 A0 0F 01 02 29 08  19 A0 0F 01 03 29 08 19  ......)......)..
0280: A0 0F 01 04 29 08 19 A0  0F 01 05 1D 0B 80 23 29  ....).........#)
0290: 08 19 A0 0F 01 06 52 0A  80 F0 FF FF 7F F0 FF FF  ......R.........
02A0: 7F 73 30 32 38 45 05 80  F0 FF FF 7F F0 FF FF 7F  .s028E..........
02B0: 6F 76 6C 31 04 80 45 0A  80 F0 FF FF 7F F0 FF FF  ovl1..E.........
02C0: 7F 73 30 32 39 04 80 29  08 19 A0 0F 01 07 29 0B  .s029..)......).
02D0: 19 A0 0F 01 14 29 08 19  A0 0F 01 08 24 0C 80 04  .....)......$...
02E0: 80 04 80 25 02 00 10 04  80 00 33 03 52 0A 80 F0  ...%......3.R...
02F0: FF FF 7F F0 FF FF 7F 73  30 32 39 45 05 80 F0 FF  .......s029E....
0300: FF 7F F0 FF FF 7F 6F 76  6C 31 04 80 45 0A 80 F0  ......ovl1..E...
0310: FF FF 7F F0 FF FF 7F 73  30 32 38 04 80 29 08 19  .......s028..)..
0320: A0 0F 01 0B 29 0B 19 A0  0F 01 16 03 01 10 09 80  ....)...........
0330: 01 82 03 02 00 10 09 80  00 82 03 52 0A 80 F0 FF  ...........R....
0340: FF 7F F0 FF FF 7F 73 30  32 39 45 05 80 F0 FF FF  ......s029E.....
0350: 7F F0 FF FF 7F 6F 76 6C  31 04 80 45 0A 80 F0 FF  .....ovl1..E....
0360: FF 7F F0 FF FF 7F 73 30  32 38 04 80 29 08 19 A0  ......s028..)...
0370: 0F 01 0B 29 0B 19 A0 0F  01 15 03 01 10 0D 80 01  ...)............
0380: 82 03 5D 04 80 05 80 45  05 80 F0 FF FF 7F F0 FF  ..]....E........
0390: FF 7F 66 64 6F 31 04 80  1C 05 80 29 08 19 A0 0F  ..fdo1.....)....
03A0: 01 0C 52 0A 80 F0 FF FF  7F F0 FF FF 7F 73 30 32  ..R..........s02
03B0: 38 5C 00 0E 80 5C 01 0E  80 5D 08 80 09 80 46 00  8\...\...]....F.
03C0: 1C 05 80 45 05 80 F0 FF  FF 7F F0 FF FF 7F 66 64  ...E..........fd
03D0: 69 31 04 80 20 00 21 00                           i1.. .!.        
```

#### Opcodes

```
  0: 0x00ED [0x20] SET_CLI_EVENT_UC_FLAG: Lock player control
  1: 0x00EF [0x42] SET_CLI_EVENT_CANCEL_DATA()
  2: 0x00F0 [0x46] CAMERA_CONTROL: Disable user control
  3: 0x00F2 [0x1E] EventEntity looks at LocalPlayer and starts talking
  4: 0x00F7 [0x5D] SET_MUSIC_VOLUME(volume=0*, fade_time=200*)
  5: 0x00FC [0x45] LOAD_SCHEDULED_TASK: Load scheduler "fdo1" with entities [LocalPlayer, LocalPlayer], work=[200*, 0*]
  6: 0x010D [0x1C] WAIT(200* ticks)
  7: 0x0110 [0x6F] WAIT_FRAME_DELAY: Yield until WaitTime reaches zero
  8: 0x0111 [0x70] WAIT_ENTITY_RENDER_FLAG: Wait while EventEntity->Render.Flags3 bit 2 is set (cancel turn if not)
  9: 0x0112 [0x38] SET_CLIENT_EVENT_MODE(mode=3*)
 10: 0x0115 [0x29] REQ_SET_WAIT(priority=0x0B, entity_id=LocalPlayer, tag_num=0x0B)
 11: 0x011C [0x29] REQ_SET_WAIT(priority=0x08, entity_id=LocalPlayer, tag_num=0x05)
 12: 0x0123 [0x1E] EventEntity looks at LocalPlayer and starts talking
 13: 0x0128 [0x6F] WAIT_FRAME_DELAY: Yield until WaitTime reaches zero
 14: 0x0129 [0x70] WAIT_ENTITY_RENDER_FLAG: Wait while EventEntity->Render.Flags3 bit 2 is set (cancel turn if not)
 15: 0x012A [0x5C] MUSIC_CONTROL: Set Idle (Day) music to song 199*
 16: 0x012E [0x5C] MUSIC_CONTROL: Set Idle (Night) music to song 199*
 17: 0x0132 [0x5D] SET_MUSIC_VOLUME(volume=127*, fade_time=1*)
 18: 0x0137 [0x1C] WAIT(200* ticks)
 19: 0x013A [0x45] LOAD_SCHEDULED_TASK: Load scheduler "s024" with entities [LocalPlayer, LocalPlayer], work=[150*, 0*]
 20: 0x014B [0x45] LOAD_SCHEDULED_TASK: Load scheduler "fdi1" with entities [LocalPlayer, LocalPlayer], work=[200*, 0*]
 21: 0x015C [0x29] REQ_SET_WAIT(priority=0x08, entity_id=Rauteinot (ID: 17801241/0x010FA019), tag_num=0x01)
 22: 0x0163 [0x1D] PRINT_EVENT_MESSAGE(message_id=10222*)
    → "I am a missionary from the San d'Oria Cathedral."
 23: 0x0166 [0x23] WAIT_FOR_DIALOG_INTERACTION
 24: 0x0167 [0x1D] PRINT_EVENT_MESSAGE(message_id=10223*)
    → "I am here to teach the savages of this untamed land the true value of life and salvation in the light of the Goddess Altana."
 25: 0x016A [0x23] WAIT_FOR_DIALOG_INTERACTION
 26: 0x016B [0x29] REQ_SET_WAIT(priority=0x08, entity_id=Rauteinot (ID: 17801241/0x010FA019), tag_num=0x02)
 27: 0x0172 [0x29] REQ_SET_WAIT(priority=0x08, entity_id=Rauteinot (ID: 17801241/0x010FA019), tag_num=0x03)
 28: 0x0179 [0x29] REQ_SET_WAIT(priority=0x08, entity_id=Rauteinot (ID: 17801241/0x010FA019), tag_num=0x04)
 29: 0x0180 [0x52] END_LOAD_SCHEDULER: End scheduler "s024" with entities [LocalPlayer, LocalPlayer], work=150*
 30: 0x018F [0x45] LOAD_SCHEDULED_TASK: Load scheduler "s025" with entities [LocalPlayer, LocalPlayer], work=[150*, 0*]
 31: 0x01A0 [0x29] REQ_SET_WAIT(priority=0x08, entity_id=Rauteinot (ID: 17801241/0x010FA019), tag_num=0x05)
 32: 0x01A7 [0x29] REQ_SET_WAIT(priority=0x0B, entity_id=Rauteinot (ID: 17801241/0x010FA019), tag_num=0x10)
 33: 0x01AE [0x29] REQ_SET_WAIT(priority=0x08, entity_id=Rauteinot (ID: 17801241/0x010FA019), tag_num=0x06)
 34: 0x01B5 [0x52] END_LOAD_SCHEDULER: End scheduler "s025" with entities [LocalPlayer, LocalPlayer], work=150*
 35: 0x01C4 [0x45] LOAD_SCHEDULED_TASK: Load scheduler "ovl1" with entities [LocalPlayer, LocalPlayer], work=[200*, 0*]
 36: 0x01D5 [0x45] LOAD_SCHEDULED_TASK: Load scheduler "s026" with entities [LocalPlayer, LocalPlayer], work=[150*, 0*]
 37: 0x01E6 [0x29] REQ_SET_WAIT(priority=0x08, entity_id=Rauteinot (ID: 17801241/0x010FA019), tag_num=0x07)
 38: 0x01ED [0x29] REQ_SET_WAIT(priority=0x0B, entity_id=Rauteinot (ID: 17801241/0x010FA019), tag_num=0x11)
 39: 0x01F4 [0x29] REQ_SET_WAIT(priority=0x08, entity_id=Rauteinot (ID: 17801241/0x010FA019), tag_num=0x08)
 40: 0x01FB [0x52] END_LOAD_SCHEDULER: End scheduler "s026" with entities [LocalPlayer, LocalPlayer], work=150*
 41: 0x020A [0x45] LOAD_SCHEDULED_TASK: Load scheduler "ovl1" with entities [LocalPlayer, LocalPlayer], work=[200*, 0*]
 42: 0x021B [0x45] LOAD_SCHEDULED_TASK: Load scheduler "s027" with entities [LocalPlayer, LocalPlayer], work=[150*, 0*]
 43: 0x022C [0x29] REQ_SET_WAIT(priority=0x08, entity_id=Rauteinot (ID: 17801241/0x010FA019), tag_num=0x0B)
 44: 0x0233 [0x29] REQ_SET_WAIT(priority=0x0B, entity_id=Rauteinot (ID: 17801241/0x010FA019), tag_num=0x12)
 45: 0x023A [0x29] REQ_SET_WAIT(priority=0x08, entity_id=Rauteinot (ID: 17801241/0x010FA019), tag_num=0x0C)
 46: 0x0241 [0x52] END_LOAD_SCHEDULER: End scheduler "s027" with entities [LocalPlayer, LocalPlayer], work=150*
 47: 0x0250 [0x45] LOAD_SCHEDULED_TASK: Load scheduler "s028" with entities [LocalPlayer, LocalPlayer], work=[150*, 0*]
 48: 0x0261 [0x29] REQ_SET_WAIT(priority=0x08, entity_id=Rauteinot (ID: 17801241/0x010FA019), tag_num=0x01)
 49: 0x0268 [0x29] REQ_SET_WAIT(priority=0x0B, entity_id=Rauteinot (ID: 17801241/0x010FA019), tag_num=0x13)
 50: 0x026F [0x29] REQ_SET_WAIT(priority=0x08, entity_id=Rauteinot (ID: 17801241/0x010FA019), tag_num=0x02)
 51: 0x0276 [0x29] REQ_SET_WAIT(priority=0x08, entity_id=Rauteinot (ID: 17801241/0x010FA019), tag_num=0x03)
 52: 0x027D [0x29] REQ_SET_WAIT(priority=0x08, entity_id=Rauteinot (ID: 17801241/0x010FA019), tag_num=0x04)
 53: 0x0284 [0x29] REQ_SET_WAIT(priority=0x08, entity_id=Rauteinot (ID: 17801241/0x010FA019), tag_num=0x05)
 54: 0x028B [0x1D] PRINT_EVENT_MESSAGE(message_id=10228*)
    → "But to fulfill the Goddess's wishes, I require an extremely rare ore, obtained only by defeating a terrible monster living in that hellish jungle out there."
 55: 0x028E [0x23] WAIT_FOR_DIALOG_INTERACTION
 56: 0x028F [0x29] REQ_SET_WAIT(priority=0x08, entity_id=Rauteinot (ID: 17801241/0x010FA019), tag_num=0x06)
 57: 0x0296 [0x52] END_LOAD_SCHEDULER: End scheduler "s028" with entities [LocalPlayer, LocalPlayer], work=150*
 58: 0x02A5 [0x45] LOAD_SCHEDULED_TASK: Load scheduler "ovl1" with entities [LocalPlayer, LocalPlayer], work=[200*, 0*]
 59: 0x02B6 [0x45] LOAD_SCHEDULED_TASK: Load scheduler "s029" with entities [LocalPlayer, LocalPlayer], work=[150*, 0*]
 60: 0x02C7 [0x29] REQ_SET_WAIT(priority=0x08, entity_id=Rauteinot (ID: 17801241/0x010FA019), tag_num=0x07)
 61: 0x02CE [0x29] REQ_SET_WAIT(priority=0x0B, entity_id=Rauteinot (ID: 17801241/0x010FA019), tag_num=0x14)
 62: 0x02D5 [0x29] REQ_SET_WAIT(priority=0x08, entity_id=Rauteinot (ID: 17801241/0x010FA019), tag_num=0x08)
 63: 0x02DC [0x24] CREATE_DIALOG(message_id=10230*, default_option=0*, option_flags=0*)
    → "Help Rauteinot? [Yes./No.]"
 64: 0x02E3 [0x25] WAIT_DIALOG_SELECT()
 65: 0x02E4 [0x02] IF !(Work_Zone[0] == 0*) GOTO 0x0333
 66: 0x02EC [0x52] END_LOAD_SCHEDULER: End scheduler "s029" with entities [LocalPlayer, LocalPlayer], work=150*
 67: 0x02FB [0x45] LOAD_SCHEDULED_TASK: Load scheduler "ovl1" with entities [LocalPlayer, LocalPlayer], work=[200*, 0*]
 68: 0x030C [0x45] LOAD_SCHEDULED_TASK: Load scheduler "s028" with entities [LocalPlayer, LocalPlayer], work=[150*, 0*]
 69: 0x031D [0x29] REQ_SET_WAIT(priority=0x08, entity_id=Rauteinot (ID: 17801241/0x010FA019), tag_num=0x0B)
 70: 0x0324 [0x29] REQ_SET_WAIT(priority=0x0B, entity_id=Rauteinot (ID: 17801241/0x010FA019), tag_num=0x16)
 71: 0x032B [0x03] Work_Zone[1] = 1*
 72: 0x0330 [0x01] GOTO 0x0382
 73: 0x0333 [0x02] IF !(Work_Zone[0] == 1*) GOTO 0x0382
 74: 0x033B [0x52] END_LOAD_SCHEDULER: End scheduler "s029" with entities [LocalPlayer, LocalPlayer], work=150*
 75: 0x034A [0x45] LOAD_SCHEDULED_TASK: Load scheduler "ovl1" with entities [LocalPlayer, LocalPlayer], work=[200*, 0*]
 76: 0x035B [0x45] LOAD_SCHEDULED_TASK: Load scheduler "s028" with entities [LocalPlayer, LocalPlayer], work=[150*, 0*]
 77: 0x036C [0x29] REQ_SET_WAIT(priority=0x08, entity_id=Rauteinot (ID: 17801241/0x010FA019), tag_num=0x0B)
 78: 0x0373 [0x29] REQ_SET_WAIT(priority=0x0B, entity_id=Rauteinot (ID: 17801241/0x010FA019), tag_num=0x15)
 79: 0x037A [0x03] Work_Zone[1] = 2*
 80: 0x037F [0x01] GOTO 0x0382

SUBROUTINE_0382:
 81: 0x0382 [0x5D] SET_MUSIC_VOLUME(volume=0*, fade_time=200*)
 82: 0x0387 [0x45] LOAD_SCHEDULED_TASK: Load scheduler "fdo1" with entities [LocalPlayer, LocalPlayer], work=[200*, 0*]
 83: 0x0398 [0x1C] WAIT(200* ticks)
 84: 0x039B [0x29] REQ_SET_WAIT(priority=0x08, entity_id=Rauteinot (ID: 17801241/0x010FA019), tag_num=0x0C)
 85: 0x03A2 [0x52] END_LOAD_SCHEDULER: End scheduler "s028" with entities [LocalPlayer, LocalPlayer], work=150*
 86: 0x03B1 [0x5C] MUSIC_CONTROL: Set Idle (Day) music to song 135*
 87: 0x03B5 [0x5C] MUSIC_CONTROL: Set Idle (Night) music to song 135*
 88: 0x03B9 [0x5D] SET_MUSIC_VOLUME(volume=127*, fade_time=1*)
 89: 0x03BE [0x46] CAMERA_CONTROL: Restore default settings
 90: 0x03C0 [0x1C] WAIT(200* ticks)
 91: 0x03C3 [0x45] LOAD_SCHEDULED_TASK: Load scheduler "fdi1" with entities [LocalPlayer, LocalPlayer], work=[200*, 0*]
 92: 0x03D4 [0x20] SET_CLI_EVENT_UC_FLAG: Unlock player control
 93: 0x03D6 [0x21] END_EVENT
 94: 0x03D7 [0x00] END_REQSTACK()
```

### Event 65535.14

#### Metadata

| Field        | Value   |
|--------------|---------|
| Entrypoint   | 0x03D8  |
| Data Size    | 5 bytes |
| Instructions | 3       |

```
      00 01 02 03 04 05 06 07  08 09 0A 0B 0C 0D 0E 0F
      -- -- -- -- -- -- -- --  -- -- -- -- -- -- -- --
03D0:                          1D 0F 80 23 00                   ...#.   
```

#### Opcodes

```
  0: 0x03D8 [0x1D] PRINT_EVENT_MESSAGE(message_id=10224*)
    → "However, these uncivilized brutes will not listen to a word I say. Oh, how they mock me and my teachings."
  1: 0x03DB [0x23] WAIT_FOR_DIALOG_INTERACTION
  2: 0x03DC [0x00] END_REQSTACK()
```

### Event 65535.15

#### Metadata

| Field        | Value   |
|--------------|---------|
| Entrypoint   | 0x03DD  |
| Data Size    | 5 bytes |
| Instructions | 3       |

```
      00 01 02 03 04 05 06 07  08 09 0A 0B 0C 0D 0E 0F
      -- -- -- -- -- -- -- --  -- -- -- -- -- -- -- --
03D0:                                         1D 10 80               ...
03E0: 23 00                                             #.              
```

#### Opcodes

```
  0: 0x03DD [0x1D] PRINT_EVENT_MESSAGE(message_id=10225*)
    → "From what I have been able to gather, these primitive women believe that Vana'diel itself is their goddess."
  1: 0x03E0 [0x23] WAIT_FOR_DIALOG_INTERACTION
  2: 0x03E1 [0x00] END_REQSTACK()
```

### Event 65535.16

#### Metadata

| Field        | Value   |
|--------------|---------|
| Entrypoint   | 0x03E2  |
| Data Size    | 5 bytes |
| Instructions | 3       |

```
      00 01 02 03 04 05 06 07  08 09 0A 0B 0C 0D 0E 0F
      -- -- -- -- -- -- -- --  -- -- -- -- -- -- -- --
03E0:       1D 11 80 23 00                                ...#.         
```

#### Opcodes

```
  0: 0x03E2 [0x1D] PRINT_EVENT_MESSAGE(message_id=10226*)
    → "In all my travels, I have never come across a race so stubborn as these Mithra. They will not try listening to my sermon."
  1: 0x03E5 [0x23] WAIT_FOR_DIALOG_INTERACTION
  2: 0x03E6 [0x00] END_REQSTACK()
```

### Event 65535.17

#### Metadata

| Field        | Value   |
|--------------|---------|
| Entrypoint   | 0x03E7  |
| Data Size    | 5 bytes |
| Instructions | 3       |

```
      00 01 02 03 04 05 06 07  08 09 0A 0B 0C 0D 0E 0F
      -- -- -- -- -- -- -- --  -- -- -- -- -- -- -- --
03E0:                      1D  12 80 23 00                     ...#.    
```

#### Opcodes

```
  0: 0x03E7 [0x1D] PRINT_EVENT_MESSAGE(message_id=10227*)
    → "However, after sleepless nights of prayer, Altana finally granted me with a vision--a method on how to trick these savages into listening."
  1: 0x03EA [0x23] WAIT_FOR_DIALOG_INTERACTION
  2: 0x03EB [0x00] END_REQSTACK()
```

### Event 65535.18

#### Metadata

| Field        | Value   |
|--------------|---------|
| Entrypoint   | 0x03EC  |
| Data Size    | 5 bytes |
| Instructions | 3       |

```
      00 01 02 03 04 05 06 07  08 09 0A 0B 0C 0D 0E 0F
      -- -- -- -- -- -- -- --  -- -- -- -- -- -- -- --
03E0:                                      1D 13 80 23              ...#
03F0: 00                                                .               
```

#### Opcodes

```
  0: 0x03EC [0x1D] PRINT_EVENT_MESSAGE(message_id=10229*)
    → "For the sake of these ignorant Mithra, would you be so kind as to retrieve $1 from the Yuhtunga Jungle for me?"
  1: 0x03EF [0x23] WAIT_FOR_DIALOG_INTERACTION
  2: 0x03F0 [0x00] END_REQSTACK()
```

### Event 65535.19

#### Metadata

| Field        | Value   |
|--------------|---------|
| Entrypoint   | 0x03F1  |
| Data Size    | 5 bytes |
| Instructions | 3       |

```
      00 01 02 03 04 05 06 07  08 09 0A 0B 0C 0D 0E 0F
      -- -- -- -- -- -- -- --  -- -- -- -- -- -- -- --
03F0:    1D 14 80 23 00                                  ...#.          
```

#### Opcodes

```
  0: 0x03F1 [0x1D] PRINT_EVENT_MESSAGE(message_id=10231*)
    → "I am disappointed in your reply. However, that will not stop me from continuing my mission. I will pray for you tonight, my child."
  1: 0x03F4 [0x23] WAIT_FOR_DIALOG_INTERACTION
  2: 0x03F5 [0x00] END_REQSTACK()
```

### Event 65535.20

#### Metadata

| Field        | Value   |
|--------------|---------|
| Entrypoint   | 0x03F6  |
| Data Size    | 5 bytes |
| Instructions | 3       |

```
      00 01 02 03 04 05 06 07  08 09 0A 0B 0C 0D 0E 0F
      -- -- -- -- -- -- -- --  -- -- -- -- -- -- -- --
03F0:                   1D 15  80 23 00                       ...#.     
```

#### Opcodes

```
  0: 0x03F6 [0x1D] PRINT_EVENT_MESSAGE(message_id=10232*)
    → "I thank you for your time. Your kindness will not go unrewarded. Let the Goddess be your light of hope on this perilous journey!"
  1: 0x03F9 [0x23] WAIT_FOR_DIALOG_INTERACTION
  2: 0x03FA [0x00] END_REQSTACK()
```

### Event 138

#### Metadata

| Field        | Value    |
|--------------|----------|
| Entrypoint   | 0x03FB   |
| Data Size    | 33 bytes |
| Instructions | 12       |

```
      00 01 02 03 04 05 06 07  08 09 0A 0B 0C 0D 0E 0F
      -- -- -- -- -- -- -- --  -- -- -- -- -- -- -- --
03F0:                                   1E F0 FF FF 7F             .....
0400: 6F 70 29 08 19 A0 0F 01  0B 1D 16 80 23 1D 17 80  op).........#...
0410: 23 29 08 19 A0 0F 01 0C  20 00 21 00              #)...... .!.    
```

#### Opcodes

```
  0: 0x03FB [0x1E] EventEntity looks at LocalPlayer and starts talking
  1: 0x0400 [0x6F] WAIT_FRAME_DELAY: Yield until WaitTime reaches zero
  2: 0x0401 [0x70] WAIT_ENTITY_RENDER_FLAG: Wait while EventEntity->Render.Flags3 bit 2 is set (cancel turn if not)
  3: 0x0402 [0x29] REQ_SET_WAIT(priority=0x08, entity_id=Rauteinot (ID: 17801241/0x010FA019), tag_num=0x0B)
  4: 0x0409 [0x1D] PRINT_EVENT_MESSAGE(message_id=10233*)
    → "I require $1 to spread the word of the Goddess Altana. I heard that in rare cases, the monsters in the Yuhtunga Jungle carry them."
  5: 0x040C [0x23] WAIT_FOR_DIALOG_INTERACTION
  6: 0x040D [0x1D] PRINT_EVENT_MESSAGE(message_id=10234*)
    → "Do not worry. Your kindness will not go unrewarded. Let the Goddess be your light of hope on this perilous journey!"
  7: 0x0410 [0x23] WAIT_FOR_DIALOG_INTERACTION
  8: 0x0411 [0x29] REQ_SET_WAIT(priority=0x08, entity_id=Rauteinot (ID: 17801241/0x010FA019), tag_num=0x0C)
  9: 0x0418 [0x20] SET_CLI_EVENT_UC_FLAG: Unlock player control
 10: 0x041A [0x21] END_EVENT
 11: 0x041B [0x00] END_REQSTACK()
```

### Event 139

#### Metadata

| Field        | Value     |
|--------------|-----------|
| Entrypoint   | 0x041C    |
| Data Size    | 184 bytes |
| Instructions | 32        |

```
      00 01 02 03 04 05 06 07  08 09 0A 0B 0C 0D 0E 0F
      -- -- -- -- -- -- -- --  -- -- -- -- -- -- -- --
0410:                                      20 01 42 46               .BF
0420: 01 1E F0 FF FF 7F 45 05  80 F0 FF FF 7F F0 FF FF  ......E.........
0430: 7F 66 64 6F 31 04 80 1C  18 80 6F 70 38 06 80 29  .fdo1.....op8..)
0440: 0B F0 FF FF 7F 0B 29 08  F0 FF FF 7F 05 1E F0 FF  ......).........
0450: FF 7F 6F 70 45 0A 80 F0  FF FF 7F F0 FF FF 7F 73  ..opE..........s
0460: 30 32 39 04 80 45 05 80  F0 FF FF 7F F0 FF FF 7F  029..E..........
0470: 66 64 69 31 04 80 29 08  19 A0 0F 01 09 1D 19 80  fdi1..).........
0480: 23 29 08 19 A0 0F 01 0A  29 08 19 A0 0F 01 0B 1D  #)......).......
0490: 1A 80 23 29 08 19 A0 0F  01 0C 45 05 80 F0 FF FF  ..#)......E.....
04A0: 7F F0 FF FF 7F 66 64 6F  31 04 80 1C 18 80 52 0A  .....fdo1.....R.
04B0: 80 F0 FF FF 7F F0 FF FF  7F 73 30 32 39 45 05 80  .........s029E..
04C0: F0 FF FF 7F F0 FF FF 7F  66 64 69 31 04 80 46 00  ........fdi1..F.
04D0: 20 00 21 00                                        .!.            
```

#### Opcodes

```
  0: 0x041C [0x20] SET_CLI_EVENT_UC_FLAG: Lock player control
  1: 0x041E [0x42] SET_CLI_EVENT_CANCEL_DATA()
  2: 0x041F [0x46] CAMERA_CONTROL: Disable user control
  3: 0x0421 [0x1E] EventEntity looks at LocalPlayer and starts talking
  4: 0x0426 [0x45] LOAD_SCHEDULED_TASK: Load scheduler "fdo1" with entities [LocalPlayer, LocalPlayer], work=[200*, 0*]
  5: 0x0437 [0x1C] WAIT(60* ticks)
  6: 0x043A [0x6F] WAIT_FRAME_DELAY: Yield until WaitTime reaches zero
  7: 0x043B [0x70] WAIT_ENTITY_RENDER_FLAG: Wait while EventEntity->Render.Flags3 bit 2 is set (cancel turn if not)
  8: 0x043C [0x38] SET_CLIENT_EVENT_MODE(mode=3*)
  9: 0x043F [0x29] REQ_SET_WAIT(priority=0x0B, entity_id=LocalPlayer, tag_num=0x0B)
 10: 0x0446 [0x29] REQ_SET_WAIT(priority=0x08, entity_id=LocalPlayer, tag_num=0x05)
 11: 0x044D [0x1E] EventEntity looks at LocalPlayer and starts talking
 12: 0x0452 [0x6F] WAIT_FRAME_DELAY: Yield until WaitTime reaches zero
 13: 0x0453 [0x70] WAIT_ENTITY_RENDER_FLAG: Wait while EventEntity->Render.Flags3 bit 2 is set (cancel turn if not)
 14: 0x0454 [0x45] LOAD_SCHEDULED_TASK: Load scheduler "s029" with entities [LocalPlayer, LocalPlayer], work=[150*, 0*]
 15: 0x0465 [0x45] LOAD_SCHEDULED_TASK: Load scheduler "fdi1" with entities [LocalPlayer, LocalPlayer], work=[200*, 0*]
 16: 0x0476 [0x29] REQ_SET_WAIT(priority=0x08, entity_id=Rauteinot (ID: 17801241/0x010FA019), tag_num=0x09)
 17: 0x047D [0x1D] PRINT_EVENT_MESSAGE(message_id=10235*)
    → "You have arrived back safely! The Goddess has answered my prayers! Now, take that stone back to San d'Oria and give it to Master Mulaujeant, along with this letter."
 18: 0x0480 [0x23] WAIT_FOR_DIALOG_INTERACTION
 19: 0x0481 [0x29] REQ_SET_WAIT(priority=0x08, entity_id=Rauteinot (ID: 17801241/0x010FA019), tag_num=0x0A)
 20: 0x0488 [0x29] REQ_SET_WAIT(priority=0x08, entity_id=Rauteinot (ID: 17801241/0x010FA019), tag_num=0x0B)
 21: 0x048F [0x1D] PRINT_EVENT_MESSAGE(message_id=10236*)
    → "An artisan with his skill should have no problem carving a statue that will move the hearts of the masses."
 22: 0x0492 [0x23] WAIT_FOR_DIALOG_INTERACTION
 23: 0x0493 [0x29] REQ_SET_WAIT(priority=0x08, entity_id=Rauteinot (ID: 17801241/0x010FA019), tag_num=0x0C)
 24: 0x049A [0x45] LOAD_SCHEDULED_TASK: Load scheduler "fdo1" with entities [LocalPlayer, LocalPlayer], work=[200*, 0*]
 25: 0x04AB [0x1C] WAIT(60* ticks)
 26: 0x04AE [0x52] END_LOAD_SCHEDULER: End scheduler "s029" with entities [LocalPlayer, LocalPlayer], work=150*
 27: 0x04BD [0x45] LOAD_SCHEDULED_TASK: Load scheduler "fdi1" with entities [LocalPlayer, LocalPlayer], work=[200*, 0*]
 28: 0x04CE [0x46] CAMERA_CONTROL: Restore default settings
 29: 0x04D0 [0x20] SET_CLI_EVENT_UC_FLAG: Unlock player control
 30: 0x04D2 [0x21] END_EVENT
 31: 0x04D3 [0x00] END_REQSTACK()
```

### Event 140

#### Metadata

| Field        | Value    |
|--------------|----------|
| Entrypoint   | 0x04D4   |
| Data Size    | 61 bytes |
| Instructions | 16       |

```
      00 01 02 03 04 05 06 07  08 09 0A 0B 0C 0D 0E 0F
      -- -- -- -- -- -- -- --  -- -- -- -- -- -- -- --
04D0:             1E F0 FF FF  7F 6F 70 29 08 19 A0 0F      .....op)....
04E0: 01 01 1D 1B 80 23 29 08  19 A0 0F 01 02 29 08 19  .....#)......)..
04F0: A0 0F 01 03 29 08 19 A0  0F 01 04 29 08 19 A0 0F  ....)......)....
0500: 01 0B 1D 1C 80 23 29 08  19 A0 0F 01 0C 20 00 21  .....#)...... .!
0510: 00                                                .               
```

#### Opcodes

```
  0: 0x04D4 [0x1E] EventEntity looks at LocalPlayer and starts talking
  1: 0x04D9 [0x6F] WAIT_FRAME_DELAY: Yield until WaitTime reaches zero
  2: 0x04DA [0x70] WAIT_ENTITY_RENDER_FLAG: Wait while EventEntity->Render.Flags3 bit 2 is set (cancel turn if not)
  3: 0x04DB [0x29] REQ_SET_WAIT(priority=0x08, entity_id=Rauteinot (ID: 17801241/0x010FA019), tag_num=0x01)
  4: 0x04E2 [0x1D] PRINT_EVENT_MESSAGE(message_id=10237*)
    → "Please deliver my letter and the ore you retrieved to Mulaujeant the sculptor in San d'Oria."
  5: 0x04E5 [0x23] WAIT_FOR_DIALOG_INTERACTION
  6: 0x04E6 [0x29] REQ_SET_WAIT(priority=0x08, entity_id=Rauteinot (ID: 17801241/0x010FA019), tag_num=0x02)
  7: 0x04ED [0x29] REQ_SET_WAIT(priority=0x08, entity_id=Rauteinot (ID: 17801241/0x010FA019), tag_num=0x03)
  8: 0x04F4 [0x29] REQ_SET_WAIT(priority=0x08, entity_id=Rauteinot (ID: 17801241/0x010FA019), tag_num=0x04)
  9: 0x04FB [0x29] REQ_SET_WAIT(priority=0x08, entity_id=Rauteinot (ID: 17801241/0x010FA019), tag_num=0x0B)
 10: 0x0502 [0x1D] PRINT_EVENT_MESSAGE(message_id=10238*)
    → "An artisan with his skill should have no problem carving a statue that will move the hearts of the masses."
 11: 0x0505 [0x23] WAIT_FOR_DIALOG_INTERACTION
 12: 0x0506 [0x29] REQ_SET_WAIT(priority=0x08, entity_id=Rauteinot (ID: 17801241/0x010FA019), tag_num=0x0C)
 13: 0x050D [0x20] SET_CLI_EVENT_UC_FLAG: Unlock player control
 14: 0x050F [0x21] END_EVENT
 15: 0x0510 [0x00] END_REQSTACK()
```

### Event 141

#### Metadata

| Field        | Value     |
|--------------|-----------|
| Entrypoint   | 0x0511    |
| Data Size    | 407 bytes |
| Instructions | 57        |

```
      00 01 02 03 04 05 06 07  08 09 0A 0B 0C 0D 0E 0F
      -- -- -- -- -- -- -- --  -- -- -- -- -- -- -- --
0510:    20 01 42 46 01 1E F0  FF FF 7F 5D 04 80 05 80    .BF......]....
0520: 45 05 80 F0 FF FF 7F F0  FF FF 7F 66 64 6F 31 04  E..........fdo1.
0530: 80 1C 05 80 6F 70 38 06  80 29 0B F0 FF FF 7F 0B  ....op8..)......
0540: 29 08 F0 FF FF 7F 05 1E  F0 FF FF 7F 6F 70 5C 00  )...........op\.
0550: 07 80 5C 01 07 80 5D 08  80 09 80 1C 05 80 45 0A  ..\...].......E.
0560: 80 F0 FF FF 7F F0 FF FF  7F 73 30 32 34 04 80 45  .........s024..E
0570: 05 80 F0 FF FF 7F F0 FF  FF 7F 66 64 69 31 04 80  ..........fdi1..
0580: 29 08 19 A0 0F 01 01 29  0B 19 A0 0F 01 1B 29 08  )......)......).
0590: 19 A0 0F 01 02 45 0A 80  F0 FF FF 7F F0 FF FF 7F  .....E..........
05A0: 73 30 32 39 04 80 29 08  19 A0 0F 01 03 1D 1D 80  s029..).........
05B0: 23 29 08 19 A0 0F 01 04  52 0A 80 F0 FF FF 7F F0  #)......R.......
05C0: FF FF 7F 73 30 32 39 45  0A 80 F0 FF FF 7F F0 FF  ...s029E........
05D0: FF 7F 73 30 32 37 04 80  29 08 19 A0 0F 01 05 29  ..s027..)......)
05E0: 0B 19 A0 0F 01 1C 29 08  19 A0 0F 01 06 29 08 19  ......)......)..
05F0: A0 0F 01 07 29 0B 19 A0  0F 01 1D 29 08 19 A0 0F  ....)......)....
0600: 01 08 52 0A 80 F0 FF FF  7F F0 FF FF 7F 73 30 32  ..R..........s02
0610: 37 45 05 80 F0 FF FF 7F  F0 FF FF 7F 6F 76 6C 31  7E..........ovl1
0620: 04 80 45 0A 80 F0 FF FF  7F F0 FF FF 7F 73 30 32  ..E..........s02
0630: 38 04 80 29 08 19 A0 0F  01 09 29 0B 19 A0 0F 01  8..)......).....
0640: 1E 29 08 19 A0 0F 01 0A  5D 04 80 05 80 45 05 80  .)......]....E..
0650: F0 FF FF 7F F0 FF FF 7F  66 64 6F 31 04 80 1C 05  ........fdo1....
0660: 80 52 0A 80 F0 FF FF 7F  F0 FF FF 7F 73 30 32 38  .R..........s028
0670: 5C 00 0E 80 5C 01 0E 80  5D 08 80 09 80 46 00 1C  \...\...]....F..
0680: 05 80 45 05 80 F0 FF FF  7F F0 FF FF 7F 66 64 69  ..E..........fdi
0690: 31 04 80 45 1E 80 F0 FF  FF 7F F0 FF FF 7F 71 73  1..E..........qs
06A0: 74 63 04 80 20 00 21 00                           tc.. .!.        
```

#### Opcodes

```
  0: 0x0511 [0x20] SET_CLI_EVENT_UC_FLAG: Lock player control
  1: 0x0513 [0x42] SET_CLI_EVENT_CANCEL_DATA()
  2: 0x0514 [0x46] CAMERA_CONTROL: Disable user control
  3: 0x0516 [0x1E] EventEntity looks at LocalPlayer and starts talking
  4: 0x051B [0x5D] SET_MUSIC_VOLUME(volume=0*, fade_time=200*)
  5: 0x0520 [0x45] LOAD_SCHEDULED_TASK: Load scheduler "fdo1" with entities [LocalPlayer, LocalPlayer], work=[200*, 0*]
  6: 0x0531 [0x1C] WAIT(200* ticks)
  7: 0x0534 [0x6F] WAIT_FRAME_DELAY: Yield until WaitTime reaches zero
  8: 0x0535 [0x70] WAIT_ENTITY_RENDER_FLAG: Wait while EventEntity->Render.Flags3 bit 2 is set (cancel turn if not)
  9: 0x0536 [0x38] SET_CLIENT_EVENT_MODE(mode=3*)
 10: 0x0539 [0x29] REQ_SET_WAIT(priority=0x0B, entity_id=LocalPlayer, tag_num=0x0B)
 11: 0x0540 [0x29] REQ_SET_WAIT(priority=0x08, entity_id=LocalPlayer, tag_num=0x05)
 12: 0x0547 [0x1E] EventEntity looks at LocalPlayer and starts talking
 13: 0x054C [0x6F] WAIT_FRAME_DELAY: Yield until WaitTime reaches zero
 14: 0x054D [0x70] WAIT_ENTITY_RENDER_FLAG: Wait while EventEntity->Render.Flags3 bit 2 is set (cancel turn if not)
 15: 0x054E [0x5C] MUSIC_CONTROL: Set Idle (Day) music to song 199*
 16: 0x0552 [0x5C] MUSIC_CONTROL: Set Idle (Night) music to song 199*
 17: 0x0556 [0x5D] SET_MUSIC_VOLUME(volume=127*, fade_time=1*)
 18: 0x055B [0x1C] WAIT(200* ticks)
 19: 0x055E [0x45] LOAD_SCHEDULED_TASK: Load scheduler "s024" with entities [LocalPlayer, LocalPlayer], work=[150*, 0*]
 20: 0x056F [0x45] LOAD_SCHEDULED_TASK: Load scheduler "fdi1" with entities [LocalPlayer, LocalPlayer], work=[200*, 0*]
 21: 0x0580 [0x29] REQ_SET_WAIT(priority=0x08, entity_id=Rauteinot (ID: 17801241/0x010FA019), tag_num=0x01)
 22: 0x0587 [0x29] REQ_SET_WAIT(priority=0x0B, entity_id=Rauteinot (ID: 17801241/0x010FA019), tag_num=0x1B)
 23: 0x058E [0x29] REQ_SET_WAIT(priority=0x08, entity_id=Rauteinot (ID: 17801241/0x010FA019), tag_num=0x02)
 24: 0x0595 [0x45] LOAD_SCHEDULED_TASK: Load scheduler "s029" with entities [LocalPlayer, LocalPlayer], work=[150*, 0*]
 25: 0x05A6 [0x29] REQ_SET_WAIT(priority=0x08, entity_id=Rauteinot (ID: 17801241/0x010FA019), tag_num=0x03)
 26: 0x05AD [0x1D] PRINT_EVENT_MESSAGE(message_id=10240*)
    → "When the heathens of this backwards village lay their eyes upon this immaculate sculpture, they will surely come to their senses!"
 27: 0x05B0 [0x23] WAIT_FOR_DIALOG_INTERACTION
 28: 0x05B1 [0x29] REQ_SET_WAIT(priority=0x08, entity_id=Rauteinot (ID: 17801241/0x010FA019), tag_num=0x04)
 29: 0x05B8 [0x52] END_LOAD_SCHEDULER: End scheduler "s029" with entities [LocalPlayer, LocalPlayer], work=150*
 30: 0x05C7 [0x45] LOAD_SCHEDULED_TASK: Load scheduler "s027" with entities [LocalPlayer, LocalPlayer], work=[150*, 0*]
 31: 0x05D8 [0x29] REQ_SET_WAIT(priority=0x08, entity_id=Rauteinot (ID: 17801241/0x010FA019), tag_num=0x05)
 32: 0x05DF [0x29] REQ_SET_WAIT(priority=0x0B, entity_id=Rauteinot (ID: 17801241/0x010FA019), tag_num=0x1C)
 33: 0x05E6 [0x29] REQ_SET_WAIT(priority=0x08, entity_id=Rauteinot (ID: 17801241/0x010FA019), tag_num=0x06)
 34: 0x05ED [0x29] REQ_SET_WAIT(priority=0x08, entity_id=Rauteinot (ID: 17801241/0x010FA019), tag_num=0x07)
 35: 0x05F4 [0x29] REQ_SET_WAIT(priority=0x0B, entity_id=Rauteinot (ID: 17801241/0x010FA019), tag_num=0x1D)
 36: 0x05FB [0x29] REQ_SET_WAIT(priority=0x08, entity_id=Rauteinot (ID: 17801241/0x010FA019), tag_num=0x08)
 37: 0x0602 [0x52] END_LOAD_SCHEDULER: End scheduler "s027" with entities [LocalPlayer, LocalPlayer], work=150*
 38: 0x0611 [0x45] LOAD_SCHEDULED_TASK: Load scheduler "ovl1" with entities [LocalPlayer, LocalPlayer], work=[200*, 0*]
 39: 0x0622 [0x45] LOAD_SCHEDULED_TASK: Load scheduler "s028" with entities [LocalPlayer, LocalPlayer], work=[150*, 0*]
 40: 0x0633 [0x29] REQ_SET_WAIT(priority=0x08, entity_id=Rauteinot (ID: 17801241/0x010FA019), tag_num=0x09)
 41: 0x063A [0x29] REQ_SET_WAIT(priority=0x0B, entity_id=Rauteinot (ID: 17801241/0x010FA019), tag_num=0x1E)
 42: 0x0641 [0x29] REQ_SET_WAIT(priority=0x08, entity_id=Rauteinot (ID: 17801241/0x010FA019), tag_num=0x0A)
 43: 0x0648 [0x5D] SET_MUSIC_VOLUME(volume=0*, fade_time=200*)
 44: 0x064D [0x45] LOAD_SCHEDULED_TASK: Load scheduler "fdo1" with entities [LocalPlayer, LocalPlayer], work=[200*, 0*]
 45: 0x065E [0x1C] WAIT(200* ticks)
 46: 0x0661 [0x52] END_LOAD_SCHEDULER: End scheduler "s028" with entities [LocalPlayer, LocalPlayer], work=150*
 47: 0x0670 [0x5C] MUSIC_CONTROL: Set Idle (Day) music to song 135*
 48: 0x0674 [0x5C] MUSIC_CONTROL: Set Idle (Night) music to song 135*
 49: 0x0678 [0x5D] SET_MUSIC_VOLUME(volume=127*, fade_time=1*)
 50: 0x067D [0x46] CAMERA_CONTROL: Restore default settings
 51: 0x067F [0x1C] WAIT(200* ticks)
 52: 0x0682 [0x45] LOAD_SCHEDULED_TASK: Load scheduler "fdi1" with entities [LocalPlayer, LocalPlayer], work=[200*, 0*]
 53: 0x0693 [0x45] LOAD_SCHEDULED_TASK: Load scheduler "qstc" with entities [LocalPlayer, LocalPlayer], work=[201*, 0*]
 54: 0x06A4 [0x20] SET_CLI_EVENT_UC_FLAG: Unlock player control
 55: 0x06A6 [0x21] END_EVENT
 56: 0x06A7 [0x00] END_REQSTACK()
```

### Event 65535.21

#### Metadata

| Field        | Value   |
|--------------|---------|
| Entrypoint   | 0x06A8  |
| Data Size    | 5 bytes |
| Instructions | 3       |

```
      00 01 02 03 04 05 06 07  08 09 0A 0B 0C 0D 0E 0F
      -- -- -- -- -- -- -- --  -- -- -- -- -- -- -- --
06A0:                          1D 1F 80 23 00                   ...#.   
```

#### Opcodes

```
  0: 0x06A8 [0x1D] PRINT_EVENT_MESSAGE(message_id=10239*)
    → "Have you brought it? Ah, yes. This is the exact same image I saw in my vision from the Goddess Altana!"
  1: 0x06AB [0x23] WAIT_FOR_DIALOG_INTERACTION
  2: 0x06AC [0x00] END_REQSTACK()
```

### Event 65535.22

#### Metadata

| Field        | Value   |
|--------------|---------|
| Entrypoint   | 0x06AD  |
| Data Size    | 5 bytes |
| Instructions | 3       |

```
      00 01 02 03 04 05 06 07  08 09 0A 0B 0C 0D 0E 0F
      -- -- -- -- -- -- -- --  -- -- -- -- -- -- -- --
06A0:                                         1D 20 80               . .
06B0: 23 00                                             #.              
```

#### Opcodes

```
  0: 0x06AD [0x1D] PRINT_EVENT_MESSAGE(message_id=10241*)
    → "A statue of the Goddess Altana, sculpted from a stone that can only be found in Kazham..."
  1: 0x06B0 [0x23] WAIT_FOR_DIALOG_INTERACTION
  2: 0x06B1 [0x00] END_REQSTACK()
```

### Event 65535.23

#### Metadata

| Field        | Value   |
|--------------|---------|
| Entrypoint   | 0x06B2  |
| Data Size    | 5 bytes |
| Instructions | 3       |

```
      00 01 02 03 04 05 06 07  08 09 0A 0B 0C 0D 0E 0F
      -- -- -- -- -- -- -- --  -- -- -- -- -- -- -- --
06B0:       1D 21 80 23 00                                .!.#.         
```

#### Opcodes

```
  0: 0x06B2 [0x1D] PRINT_EVENT_MESSAGE(message_id=10242*)
    → "Now I can prove to them that the Dawn Goddess exists even in the earth they tread upon each day."
  1: 0x06B5 [0x23] WAIT_FOR_DIALOG_INTERACTION
  2: 0x06B6 [0x00] END_REQSTACK()
```

### Event 65535.24

#### Metadata

| Field        | Value   |
|--------------|---------|
| Entrypoint   | 0x06B7  |
| Data Size    | 5 bytes |
| Instructions | 3       |

```
      00 01 02 03 04 05 06 07  08 09 0A 0B 0C 0D 0E 0F
      -- -- -- -- -- -- -- --  -- -- -- -- -- -- -- --
06B0:                      1D  22 80 23 00                     .".#.    
```

#### Opcodes

```
  0: 0x06B7 [0x1D] PRINT_EVENT_MESSAGE(message_id=10243*)
    → "Ah, yes. Please accept this as a token of my gratitude. May the light of Altana shine down upon you, always."
  1: 0x06BA [0x23] WAIT_FOR_DIALOG_INTERACTION
  2: 0x06BB [0x00] END_REQSTACK()
```

### Event 142

#### Metadata

| Field        | Value    |
|--------------|----------|
| Entrypoint   | 0x06BC   |
| Data Size    | 33 bytes |
| Instructions | 12       |

```
      00 01 02 03 04 05 06 07  08 09 0A 0B 0C 0D 0E 0F
      -- -- -- -- -- -- -- --  -- -- -- -- -- -- -- --
06B0:                                      1E F0 FF FF              ....
06C0: 7F 6F 70 1D 23 80 23 29  08 19 A0 0F 01 0B 1D 24  .op.#.#).......$
06D0: 80 23 29 08 19 A0 0F 01  0C 20 00 21 00           .#)...... .!.   
```

#### Opcodes

```
  0: 0x06BC [0x1E] EventEntity looks at LocalPlayer and starts talking
  1: 0x06C1 [0x6F] WAIT_FRAME_DELAY: Yield until WaitTime reaches zero
  2: 0x06C2 [0x70] WAIT_ENTITY_RENDER_FLAG: Wait while EventEntity->Render.Flags3 bit 2 is set (cancel turn if not)
  3: 0x06C3 [0x1D] PRINT_EVENT_MESSAGE(message_id=10244*)
    → "A statue of the Goddess Altana, sculpted from a stone that can only be found in Kazham..."
  4: 0x06C6 [0x23] WAIT_FOR_DIALOG_INTERACTION
  5: 0x06C7 [0x29] REQ_SET_WAIT(priority=0x08, entity_id=Rauteinot (ID: 17801241/0x010FA019), tag_num=0x0B)
  6: 0x06CE [0x1D] PRINT_EVENT_MESSAGE(message_id=10245*)
    → "Now I can prove to them that the Dawn Goddess exists even in the earth they tread upon each day. Now they will listen to me. Now I can cleanse their minds of the filth that befouls them."
  7: 0x06D1 [0x23] WAIT_FOR_DIALOG_INTERACTION
  8: 0x06D2 [0x29] REQ_SET_WAIT(priority=0x08, entity_id=Rauteinot (ID: 17801241/0x010FA019), tag_num=0x0C)
  9: 0x06D9 [0x20] SET_CLI_EVENT_UC_FLAG: Unlock player control
 10: 0x06DB [0x21] END_EVENT
 11: 0x06DC [0x00] END_REQSTACK()
```

### Event 313

#### Metadata

| Field        | Value    |
|--------------|----------|
| Entrypoint   | 0x06DD   |
| Data Size    | 12 bytes |
| Instructions | 3        |

```
      00 01 02 03 04 05 06 07  08 09 0A 0B 0C 0D 0E 0F
      -- -- -- -- -- -- -- --  -- -- -- -- -- -- -- --
06D0:                                         92 01 F8               ...
06E0: FF FF 7F 80 F8 FF FF 7F  00                       .........       
```

#### Opcodes

```
  0: 0x06DD [0x92] EventEntity->Render.Flags3 ^= 0x01
  1: 0x06E3 [0x80] LOAD_WAIT(entity=EventEntity)
  2: 0x06E8 [0x00] END_REQSTACK()
```

### Event 315

#### Metadata

| Field        | Value    |
|--------------|----------|
| Entrypoint   | 0x06E9   |
| Data Size    | 12 bytes |
| Instructions | 3        |

```
      00 01 02 03 04 05 06 07  08 09 0A 0B 0C 0D 0E 0F
      -- -- -- -- -- -- -- --  -- -- -- -- -- -- -- --
06E0:                             92 01 F8 FF FF 7F 80           .......
06F0: F8 FF FF 7F 00                                    .....           
```

#### Opcodes

```
  0: 0x06E9 [0x92] EventEntity->Render.Flags3 ^= 0x01
  1: 0x06EF [0x80] LOAD_WAIT(entity=EventEntity)
  2: 0x06F4 [0x00] END_REQSTACK()
```
