# 17801280 - Gatih Mijurabi

## Common Data

| Field            | Value            |
|------------------|------------------|
| Zone             | Kazham (ID: 250) |
| Block Size       | 1480 bytes       |
| Total Events     | 26               |
| References Count | 33               |

## List of Events

| Event ID                   | Entrypoint   |   Size |   Instructions |
|----------------------------|--------------|--------|----------------|
| [65535](#event-65535)      | 0x0000       |      1 |              1 |
| [65535.1](#event-655351)   | 0x0001       |     16 |              2 |
| [65535.2](#event-655352)   | 0x0011       |      9 |              3 |
| [65535.3](#event-655353)   | 0x001A       |     22 |              3 |
| [65535.4](#event-655354)   | 0x0030       |     14 |              2 |
| [65535.5](#event-655355)   | 0x003E       |     16 |              2 |
| [65535.6](#event-655356)   | 0x004E       |     20 |              3 |
| [65535.7](#event-655357)   | 0x0062       |     16 |              2 |
| [65535.8](#event-655358)   | 0x0072       |     14 |              2 |
| [65535.9](#event-655359)   | 0x0080       |     16 |              2 |
| [65535.10](#event-6553510) | 0x0090       |     14 |              2 |
| [196](#event-196)          | 0x009E       |     33 |             12 |
| [195](#event-195)          | 0x00BF       |     47 |             14 |
| [191](#event-191)          | 0x00EE       |    553 |             73 |
| [65535.11](#event-6553511) | 0x0317       |      5 |              3 |
| [65535.12](#event-6553512) | 0x031C       |      5 |              3 |
| [65535.13](#event-6553513) | 0x0321       |      5 |              3 |
| [65535.14](#event-6553514) | 0x0326       |      5 |              3 |
| [65535.15](#event-6553515) | 0x032B       |      5 |              3 |
| [65535.16](#event-6553516) | 0x0330       |      5 |              3 |
| [192](#event-192)          | 0x0335       |     33 |             12 |
| [193](#event-193)          | 0x0356       |    325 |             42 |
| [65535.17](#event-6553517) | 0x049B       |      5 |              3 |
| [65535.18](#event-6553518) | 0x04A0       |      5 |              3 |
| [65535.19](#event-6553519) | 0x04A5       |      5 |              3 |
| [194](#event-194)          | 0x04AA       |     33 |             12 |

## DAT References (imed_data)

|   Index | Hex Value   |   Dec Value |
|---------|-------------|-------------|
|       0 | 0x0032      |          50 |
|       1 | 0x001E      |          30 |
|       2 | 0x0034      |          52 |
|       3 | 0x288A      |       10378 |
|       4 | 0x288B      |       10379 |
|       5 | 0x2899      |       10393 |
|       6 | 0x289A      |       10394 |
|       7 | 0x0000      |           0 |
|       8 | 0x00C8      |         200 |
|       9 | 0x01FA      |         506 |
|      10 | 0x0003      |           3 |
|      11 | 0x00C7      |         199 |
|      12 | 0x007F      |         127 |
|      13 | 0x0001      |           1 |
|      14 | 0x0005      |           5 |
|      15 | 0x0096      |         150 |
|      16 | 0x0006      |           6 |
|      17 | 0x0087      |         135 |
|      18 | 0x288C      |       10380 |
|      19 | 0x288D      |       10381 |
|      20 | 0x288E      |       10382 |
|      21 | 0x288F      |       10383 |
|      22 | 0x2890      |       10384 |
|      23 | 0x2891      |       10385 |
|      24 | 0x2892      |       10386 |
|      25 | 0x2893      |       10387 |
|      26 | 0x003C      |          60 |
|      27 | 0x00C9      |         201 |
|      28 | 0x2894      |       10388 |
|      29 | 0x2895      |       10389 |
|      30 | 0x2896      |       10390 |
|      31 | 0x2897      |       10391 |
|      32 | 0x2898      |       10392 |

## String References

- **10378**: Many people from the mainlands fear our traditional medicine.
- **10379**: I can understand people being afraid of things they know little about, but it is unforrrtunate that many dismiss methods before they even try them out.
- **10380**: <Cough> It seems as if you have spent too much time around one of our jungle's most notorrrious residents...the Rafflesia.
- **10381**: Hmmm... Much time has passed since you came in contact with the flower, but I still think there is hope for removing that odor.
- **10382**: Ah, but wait... The Serpent Springs in the Sea Serpent Grotto dried up three years ago.
- **10383**: This is not good. There is only one way to get that odor out of your system, and that is by bathing in a hot spring. However, it cannot be just any hot spring. It must be one located deep beneath the sea.
- **10384**: I wonder if there are any otherrr hot springs such as this located in the different regions of Vana'diel...
- **10385**: Bathing in one of these should remove the odor...unless we are alrrready too late.
- **10386**: You must find a hot spring, but only one located somewhere deep beneath the sea.
- **10387**: Bathe in one of these, and it should remove the odor...unless we are alrrready too late.
- **10388**: Congratulations. I see you were successful in locating another hot spring. You smell a little sweaty, but that is nothing a good shower won't cure.
- **10389**: This means you can safely stay in Kazham now. Take this. You have worked harrrd for it.
- **10390**: However, do not assume that I will help you again, should you find yourself in the same predicament.
- **10391**: Congratulations! Now you can stay in Kazham without drawing everyone's attention.
- **10392**: Just do not assume that I will help you again, should you find yourself in the same predicament.
- **10393**: Don't you mainlanders ever learn?
- **10394**: I told you the last time, I'm not helping you again. You will just have to try remembering what I taught you beforrre.

## Events

### Event 65535

#### Metadata

| Field        | Value   |
|--------------|---------|
| Entrypoint   | 0x0000  |
| Data Size    | 1 bytes |
| Instructions | 1       |

```
      00 01 02 03 04 05 06 07  08 09 0A 0B 0C 0D 0E 0F
      -- -- -- -- -- -- -- --  -- -- -- -- -- -- -- --
0000: 00                                                .               
```

#### Opcodes

```
  0: 0x0000 [0x00] END_REQSTACK()
```

### Event 65535.1

#### Metadata

| Field        | Value    |
|--------------|----------|
| Entrypoint   | 0x0001   |
| Data Size    | 16 bytes |
| Instructions | 2        |

```
      00 01 02 03 04 05 06 07  08 09 0A 0B 0C 0D 0E 0F
      -- -- -- -- -- -- -- --  -- -- -- -- -- -- -- --
0000:    66 00 80 F8 FF FF 7F  F8 FF FF 7F 74 6C 6B 30   f..........tlk0
0010: 00                                                .               
```

#### Opcodes

```
  0: 0x0001 [0x66] LOAD_EXT_SCHEDULER_MAIN: Load scheduler "tlk0" with entities [EventEntity, EventEntity], work=50*
  1: 0x0010 [0x00] END_REQSTACK()
```

### Event 65535.2

#### Metadata

| Field        | Value   |
|--------------|---------|
| Entrypoint   | 0x0011  |
| Data Size    | 9 bytes |
| Instructions | 3       |

```
      00 01 02 03 04 05 06 07  08 09 0A 0B 0C 0D 0E 0F
      -- -- -- -- -- -- -- --  -- -- -- -- -- -- -- --
0010:    5E 69 64 6C 30 1C 01  80 00                     ^idl0....      
```

#### Opcodes

```
  0: 0x0011 [0x5E] EventEntity goes idle (kills current action) (animation: "idl0")
  1: 0x0016 [0x1C] WAIT(30* ticks)
  2: 0x0019 [0x00] END_REQSTACK()
```

### Event 65535.3

#### Metadata

| Field        | Value    |
|--------------|----------|
| Entrypoint   | 0x001A   |
| Data Size    | 22 bytes |
| Instructions | 3        |

```
      00 01 02 03 04 05 06 07  08 09 0A 0B 0C 0D 0E 0F
      -- -- -- -- -- -- -- --  -- -- -- -- -- -- -- --
0010:                                81 00 F8 FF FF 7F            ......
0020: 66 00 80 F8 FF FF 7F F8  FF FF 7F 74 68 6B 31 00  f..........thk1.
```

#### Opcodes

```
  0: 0x001A [0x81] SET_ENTITY_BLINKING(blink_flag=0x00, entity=EventEntity)
  1: 0x0020 [0x66] LOAD_EXT_SCHEDULER_MAIN: Load scheduler "thk1" with entities [EventEntity, EventEntity], work=50*
  2: 0x002F [0x00] END_REQSTACK()
```

### Event 65535.4

#### Metadata

| Field        | Value    |
|--------------|----------|
| Entrypoint   | 0x0030   |
| Data Size    | 14 bytes |
| Instructions | 2        |

```
      00 01 02 03 04 05 06 07  08 09 0A 0B 0C 0D 0E 0F
      -- -- -- -- -- -- -- --  -- -- -- -- -- -- -- --
0030: 53 F8 FF FF 7F F8 FF FF  7F 74 68 6B 31 00        S........thk1.  
```

#### Opcodes

```
  0: 0x0030 [0x53] WAIT_SCHEDULER_TASK: Wait for scheduler "thk1" with entities [EventEntity, EventEntity]
  1: 0x003D [0x00] END_REQSTACK()
```

### Event 65535.5

#### Metadata

| Field        | Value    |
|--------------|----------|
| Entrypoint   | 0x003E   |
| Data Size    | 16 bytes |
| Instructions | 2        |

```
      00 01 02 03 04 05 06 07  08 09 0A 0B 0C 0D 0E 0F
      -- -- -- -- -- -- -- --  -- -- -- -- -- -- -- --
0030:                                            66 00                f.
0040: 80 F8 FF FF 7F F8 FF FF  7F 74 68 6B 32 00        .........thk2.  
```

#### Opcodes

```
  0: 0x003E [0x66] LOAD_EXT_SCHEDULER_MAIN: Load scheduler "thk2" with entities [EventEntity, EventEntity], work=50*
  1: 0x004D [0x00] END_REQSTACK()
```

### Event 65535.6

#### Metadata

| Field        | Value    |
|--------------|----------|
| Entrypoint   | 0x004E   |
| Data Size    | 20 bytes |
| Instructions | 3        |

```
      00 01 02 03 04 05 06 07  08 09 0A 0B 0C 0D 0E 0F
      -- -- -- -- -- -- -- --  -- -- -- -- -- -- -- --
0040:                                            53 F8                S.
0050: FF FF 7F F8 FF FF 7F 74  68 6B 32 81 01 F8 FF FF  .......thk2.....
0060: 7F 00                                             ..              
```

#### Opcodes

```
  0: 0x004E [0x53] WAIT_SCHEDULER_TASK: Wait for scheduler "thk2" with entities [EventEntity, EventEntity]
  1: 0x005B [0x81] SET_ENTITY_BLINKING(blink_flag=0x01, entity=EventEntity)
  2: 0x0061 [0x00] END_REQSTACK()
```

### Event 65535.7

#### Metadata

| Field        | Value    |
|--------------|----------|
| Entrypoint   | 0x0062   |
| Data Size    | 16 bytes |
| Instructions | 2        |

```
      00 01 02 03 04 05 06 07  08 09 0A 0B 0C 0D 0E 0F
      -- -- -- -- -- -- -- --  -- -- -- -- -- -- -- --
0060:       66 02 80 F8 FF FF  7F F8 FF FF 7F 64 69 73    f..........dis
0070: 30 00                                             0.              
```

#### Opcodes

```
  0: 0x0062 [0x66] LOAD_EXT_SCHEDULER_MAIN: Load scheduler "dis0" with entities [EventEntity, EventEntity], work=52*
  1: 0x0071 [0x00] END_REQSTACK()
```

### Event 65535.8

#### Metadata

| Field        | Value    |
|--------------|----------|
| Entrypoint   | 0x0072   |
| Data Size    | 14 bytes |
| Instructions | 2        |

```
      00 01 02 03 04 05 06 07  08 09 0A 0B 0C 0D 0E 0F
      -- -- -- -- -- -- -- --  -- -- -- -- -- -- -- --
0070:       53 F8 FF FF 7F F8  FF FF 7F 64 69 73 30 00    S........dis0.
```

#### Opcodes

```
  0: 0x0072 [0x53] WAIT_SCHEDULER_TASK: Wait for scheduler "dis0" with entities [EventEntity, EventEntity]
  1: 0x007F [0x00] END_REQSTACK()
```

### Event 65535.9

#### Metadata

| Field        | Value    |
|--------------|----------|
| Entrypoint   | 0x0080   |
| Data Size    | 16 bytes |
| Instructions | 2        |

```
      00 01 02 03 04 05 06 07  08 09 0A 0B 0C 0D 0E 0F
      -- -- -- -- -- -- -- --  -- -- -- -- -- -- -- --
0080: 66 00 80 F8 FF FF 7F F8  FF FF 7F 70 61 73 30 00  f..........pas0.
```

#### Opcodes

```
  0: 0x0080 [0x66] LOAD_EXT_SCHEDULER_MAIN: Load scheduler "pas0" with entities [EventEntity, EventEntity], work=50*
  1: 0x008F [0x00] END_REQSTACK()
```

### Event 65535.10

#### Metadata

| Field        | Value    |
|--------------|----------|
| Entrypoint   | 0x0090   |
| Data Size    | 14 bytes |
| Instructions | 2        |

```
      00 01 02 03 04 05 06 07  08 09 0A 0B 0C 0D 0E 0F
      -- -- -- -- -- -- -- --  -- -- -- -- -- -- -- --
0090: 53 F8 FF FF 7F F8 FF FF  7F 70 61 73 30 00        S........pas0.  
```

#### Opcodes

```
  0: 0x0090 [0x53] WAIT_SCHEDULER_TASK: Wait for scheduler "pas0" with entities [EventEntity, EventEntity]
  1: 0x009D [0x00] END_REQSTACK()
```

### Event 196

#### Metadata

| Field        | Value    |
|--------------|----------|
| Entrypoint   | 0x009E   |
| Data Size    | 33 bytes |
| Instructions | 12       |

```
      00 01 02 03 04 05 06 07  08 09 0A 0B 0C 0D 0E 0F
      -- -- -- -- -- -- -- --  -- -- -- -- -- -- -- --
0090:                                            1E F0                ..
00A0: FF FF 7F 6F 70 29 08 40  A0 0F 01 01 1D 03 80 23  ...op).@.......#
00B0: 1D 04 80 23 29 08 40 A0  0F 01 02 20 00 21 00     ...#).@.... .!. 
```

#### Opcodes

```
  0: 0x009E [0x1E] EventEntity looks at LocalPlayer and starts talking
  1: 0x00A3 [0x6F] WAIT_FRAME_DELAY: Yield until WaitTime reaches zero
  2: 0x00A4 [0x70] WAIT_ENTITY_RENDER_FLAG: Wait while EventEntity->Render.Flags3 bit 2 is set (cancel turn if not)
  3: 0x00A5 [0x29] REQ_SET_WAIT(priority=0x08, entity_id=Gatih Mijurabi (ID: 17801280/0x010FA040), tag_num=0x01)
  4: 0x00AC [0x1D] PRINT_EVENT_MESSAGE(message_id=10378*)
    → "Many people from the mainlands fear our traditional medicine."
  5: 0x00AF [0x23] WAIT_FOR_DIALOG_INTERACTION
  6: 0x00B0 [0x1D] PRINT_EVENT_MESSAGE(message_id=10379*)
    → "I can understand people being afraid of things they know little about, but it is unforrrtunate that many dismiss methods before they even try them out."
  7: 0x00B3 [0x23] WAIT_FOR_DIALOG_INTERACTION
  8: 0x00B4 [0x29] REQ_SET_WAIT(priority=0x08, entity_id=Gatih Mijurabi (ID: 17801280/0x010FA040), tag_num=0x02)
  9: 0x00BB [0x20] SET_CLI_EVENT_UC_FLAG: Unlock player control
 10: 0x00BD [0x21] END_EVENT
 11: 0x00BE [0x00] END_REQSTACK()
```

### Event 195

#### Metadata

| Field        | Value    |
|--------------|----------|
| Entrypoint   | 0x00BF   |
| Data Size    | 47 bytes |
| Instructions | 14       |

```
      00 01 02 03 04 05 06 07  08 09 0A 0B 0C 0D 0E 0F
      -- -- -- -- -- -- -- --  -- -- -- -- -- -- -- --
00B0:                                               1E                 .
00C0: F0 FF FF 7F 6F 70 29 08  40 A0 0F 01 07 1D 05 80  ....op).@.......
00D0: 23 29 08 40 A0 0F 01 08  29 08 40 A0 0F 01 01 1D  #).@....).@.....
00E0: 06 80 23 29 08 40 A0 0F  01 02 20 00 21 00        ..#).@.... .!.  
```

#### Opcodes

```
  0: 0x00BF [0x1E] EventEntity looks at LocalPlayer and starts talking
  1: 0x00C4 [0x6F] WAIT_FRAME_DELAY: Yield until WaitTime reaches zero
  2: 0x00C5 [0x70] WAIT_ENTITY_RENDER_FLAG: Wait while EventEntity->Render.Flags3 bit 2 is set (cancel turn if not)
  3: 0x00C6 [0x29] REQ_SET_WAIT(priority=0x08, entity_id=Gatih Mijurabi (ID: 17801280/0x010FA040), tag_num=0x07)
  4: 0x00CD [0x1D] PRINT_EVENT_MESSAGE(message_id=10393*)
    → "Don't you mainlanders ever learn?"
  5: 0x00D0 [0x23] WAIT_FOR_DIALOG_INTERACTION
  6: 0x00D1 [0x29] REQ_SET_WAIT(priority=0x08, entity_id=Gatih Mijurabi (ID: 17801280/0x010FA040), tag_num=0x08)
  7: 0x00D8 [0x29] REQ_SET_WAIT(priority=0x08, entity_id=Gatih Mijurabi (ID: 17801280/0x010FA040), tag_num=0x01)
  8: 0x00DF [0x1D] PRINT_EVENT_MESSAGE(message_id=10394*)
    → "I told you the last time, I'm not helping you again. You will just have to try remembering what I taught you beforrre."
  9: 0x00E2 [0x23] WAIT_FOR_DIALOG_INTERACTION
 10: 0x00E3 [0x29] REQ_SET_WAIT(priority=0x08, entity_id=Gatih Mijurabi (ID: 17801280/0x010FA040), tag_num=0x02)
 11: 0x00EA [0x20] SET_CLI_EVENT_UC_FLAG: Unlock player control
 12: 0x00EC [0x21] END_EVENT
 13: 0x00ED [0x00] END_REQSTACK()
```

### Event 191

#### Metadata

| Field        | Value     |
|--------------|-----------|
| Entrypoint   | 0x00EE    |
| Data Size    | 553 bytes |
| Instructions | 73        |

```
      00 01 02 03 04 05 06 07  08 09 0A 0B 0C 0D 0E 0F
      -- -- -- -- -- -- -- --  -- -- -- -- -- -- -- --
00E0:                                            20 01                 .
00F0: 42 46 01 1E F0 FF FF 7F  5D 07 80 08 80 45 08 80  BF......]....E..
0100: F0 FF FF 7F F0 FF FF 7F  66 64 6F 31 07 80 1C 08  ........fdo1....
0110: 80 75 00 09 80 75 01 6F  70 38 0A 80 29 0B F0 FF  .u...u.op8..)...
0120: FF 7F 0D 29 08 F0 FF FF  7F 05 4A F0 FF FF 7F 40  ...)......J....@
0130: A0 0F 01 1E F0 FF FF 7F  6F 70 5C 00 0B 80 5C 01  ........op\...\.
0140: 0B 80 5D 0C 80 0D 80 1C  08 80 02 09 10 0E 80 00  ..].............
0150: 66 01 45 0F 80 F0 FF FF  7F F0 FF FF 7F 73 30 35  f.E..........s05
0160: 38 07 80 01 93 01 02 09  10 10 80 00 82 01 45 0F  8.............E.
0170: 80 F0 FF FF 7F F0 FF FF  7F 73 30 35 38 07 80 01  .........s058...
0180: 93 01 45 0F 80 F0 FF FF  7F F0 FF FF 7F 73 30 35  ..E..........s05
0190: 34 07 80 45 08 80 F0 FF  FF 7F F0 FF FF 7F 66 64  4..E..........fd
01A0: 69 31 07 80 29 08 40 A0  0F 01 07 29 0B 40 A0 0F  i1..).@....).@..
01B0: 01 0E 29 08 40 A0 0F 01  08 02 09 10 0E 80 00 D3  ..).@...........
01C0: 01 52 0F 80 F0 FF FF 7F  F0 FF FF 7F 73 30 35 38  .R..........s058
01D0: 01 FC 01 02 09 10 10 80  00 ED 01 52 0F 80 F0 FF  ...........R....
01E0: FF 7F F0 FF FF 7F 73 30  35 38 01 FC 01 52 0F 80  ......s058...R..
01F0: F0 FF FF 7F F0 FF FF 7F  73 30 35 34 45 08 80 F0  ........s054E...
0200: FF FF 7F F0 FF FF 7F 6F  76 6C 31 07 80 45 0F 80  .......ovl1..E..
0210: F0 FF FF 7F F0 FF FF 7F  73 30 35 35 07 80 29 08  ........s055..).
0220: 40 A0 0F 01 03 29 0B 40  A0 0F 01 0F 29 08 40 A0  @....).@....).@.
0230: 0F 01 04 29 08 40 A0 0F  01 05 29 0B 40 A0 0F 01  ...).@....).@...
0240: 10 29 08 40 A0 0F 01 06  52 0F 80 F0 FF FF 7F F0  .).@....R.......
0250: FF FF 7F 73 30 35 35 45  0F 80 F0 FF FF 7F F0 FF  ...s055E........
0260: FF 7F 73 30 35 36 07 80  29 08 40 A0 0F 01 01 29  ..s056..).@....)
0270: 0B 40 A0 0F 01 11 29 0B  40 A0 0F 01 12 52 0F 80  .@....).@....R..
0280: F0 FF FF 7F F0 FF FF 7F  73 30 35 36 45 08 80 F0  ........s056E...
0290: FF FF 7F F0 FF FF 7F 6F  76 6C 31 07 80 45 0F 80  .......ovl1..E..
02A0: F0 FF FF 7F F0 FF FF 7F  73 30 35 37 07 80 29 08  ........s057..).
02B0: 40 A0 0F 01 02 6E F8 FF  FF 7F 10 80 99 F8 FF FF  @....n..........
02C0: 7F 29 0B 40 A0 0F 01 13  5D 07 80 08 80 45 08 80  .).@....]....E..
02D0: F0 FF FF 7F F0 FF FF 7F  66 64 6F 31 07 80 1C 08  ........fdo1....
02E0: 80 5C 00 11 80 5C 01 11  80 5D 0C 80 0D 80 52 0F  .\...\...]....R.
02F0: 80 F0 FF FF 7F F0 FF FF  7F 73 30 35 37 46 00 1C  .........s057F..
0300: 08 80 45 08 80 F0 FF FF  7F F0 FF FF 7F 66 64 69  ..E..........fdi
0310: 31 07 80 20 00 21 00                              1.. .!.         
```

#### Opcodes

```
  0: 0x00EE [0x20] SET_CLI_EVENT_UC_FLAG: Lock player control
  1: 0x00F0 [0x42] SET_CLI_EVENT_CANCEL_DATA()
  2: 0x00F1 [0x46] CAMERA_CONTROL: Disable user control
  3: 0x00F3 [0x1E] EventEntity looks at LocalPlayer and starts talking
  4: 0x00F8 [0x5D] SET_MUSIC_VOLUME(volume=0*, fade_time=200*)
  5: 0x00FD [0x45] LOAD_SCHEDULED_TASK: Load scheduler "fdo1" with entities [LocalPlayer, LocalPlayer], work=[200*, 0*]
  6: 0x010E [0x1C] WAIT(200* ticks)
  7: 0x0111 [0x75] LOAD_ROOM(Load indoor room, room=506*)
  8: 0x0115 [0x75] LOAD_ROOM(No action)
  9: 0x0117 [0x6F] WAIT_FRAME_DELAY: Yield until WaitTime reaches zero
 10: 0x0118 [0x70] WAIT_ENTITY_RENDER_FLAG: Wait while EventEntity->Render.Flags3 bit 2 is set (cancel turn if not)
 11: 0x0119 [0x38] SET_CLIENT_EVENT_MODE(mode=3*)
 12: 0x011C [0x29] REQ_SET_WAIT(priority=0x0B, entity_id=LocalPlayer, tag_num=0x0D)
 13: 0x0123 [0x29] REQ_SET_WAIT(priority=0x08, entity_id=LocalPlayer, tag_num=0x05)
 14: 0x012A [0x4A] LocalPlayer looks at Gatih Mijurabi (ID: 17801280/0x010FA040)
 15: 0x0133 [0x1E] EventEntity looks at LocalPlayer and starts talking
 16: 0x0138 [0x6F] WAIT_FRAME_DELAY: Yield until WaitTime reaches zero
 17: 0x0139 [0x70] WAIT_ENTITY_RENDER_FLAG: Wait while EventEntity->Render.Flags3 bit 2 is set (cancel turn if not)
 18: 0x013A [0x5C] MUSIC_CONTROL: Set Idle (Day) music to song 199*
 19: 0x013E [0x5C] MUSIC_CONTROL: Set Idle (Night) music to song 199*
 20: 0x0142 [0x5D] SET_MUSIC_VOLUME(volume=127*, fade_time=1*)
 21: 0x0147 [0x1C] WAIT(200* ticks)
 22: 0x014A [0x02] IF !(Work_Zone[9] == 5*) GOTO 0x0166
 23: 0x0152 [0x45] LOAD_SCHEDULED_TASK: Load scheduler "s058" with entities [LocalPlayer, LocalPlayer], work=[150*, 0*]
 24: 0x0163 [0x01] GOTO 0x0193
 25: 0x0166 [0x02] IF !(Work_Zone[9] == 6*) GOTO 0x0182
 26: 0x016E [0x45] LOAD_SCHEDULED_TASK: Load scheduler "s058" with entities [LocalPlayer, LocalPlayer], work=[150*, 0*]
 27: 0x017F [0x01] GOTO 0x0193
 28: 0x0182 [0x45] LOAD_SCHEDULED_TASK: Load scheduler "s054" with entities [LocalPlayer, LocalPlayer], work=[150*, 0*]

SUBROUTINE_0193:
 29: 0x0193 [0x45] LOAD_SCHEDULED_TASK: Load scheduler "fdi1" with entities [LocalPlayer, LocalPlayer], work=[200*, 0*]
 30: 0x01A4 [0x29] REQ_SET_WAIT(priority=0x08, entity_id=Gatih Mijurabi (ID: 17801280/0x010FA040), tag_num=0x07)
 31: 0x01AB [0x29] REQ_SET_WAIT(priority=0x0B, entity_id=Gatih Mijurabi (ID: 17801280/0x010FA040), tag_num=0x0E)
 32: 0x01B2 [0x29] REQ_SET_WAIT(priority=0x08, entity_id=Gatih Mijurabi (ID: 17801280/0x010FA040), tag_num=0x08)
 33: 0x01B9 [0x02] IF !(Work_Zone[9] == 5*) GOTO 0x01D3
 34: 0x01C1 [0x52] END_LOAD_SCHEDULER: End scheduler "s058" with entities [LocalPlayer, LocalPlayer], work=150*
 35: 0x01D0 [0x01] GOTO 0x01FC
 36: 0x01D3 [0x02] IF !(Work_Zone[9] == 6*) GOTO 0x01ED
 37: 0x01DB [0x52] END_LOAD_SCHEDULER: End scheduler "s058" with entities [LocalPlayer, LocalPlayer], work=150*
 38: 0x01EA [0x01] GOTO 0x01FC
 39: 0x01ED [0x52] END_LOAD_SCHEDULER: End scheduler "s054" with entities [LocalPlayer, LocalPlayer], work=150*

SUBROUTINE_01FC:
 40: 0x01FC [0x45] LOAD_SCHEDULED_TASK: Load scheduler "ovl1" with entities [LocalPlayer, LocalPlayer], work=[200*, 0*]
 41: 0x020D [0x45] LOAD_SCHEDULED_TASK: Load scheduler "s055" with entities [LocalPlayer, LocalPlayer], work=[150*, 0*]
 42: 0x021E [0x29] REQ_SET_WAIT(priority=0x08, entity_id=Gatih Mijurabi (ID: 17801280/0x010FA040), tag_num=0x03)
 43: 0x0225 [0x29] REQ_SET_WAIT(priority=0x0B, entity_id=Gatih Mijurabi (ID: 17801280/0x010FA040), tag_num=0x0F)
 44: 0x022C [0x29] REQ_SET_WAIT(priority=0x08, entity_id=Gatih Mijurabi (ID: 17801280/0x010FA040), tag_num=0x04)
 45: 0x0233 [0x29] REQ_SET_WAIT(priority=0x08, entity_id=Gatih Mijurabi (ID: 17801280/0x010FA040), tag_num=0x05)
 46: 0x023A [0x29] REQ_SET_WAIT(priority=0x0B, entity_id=Gatih Mijurabi (ID: 17801280/0x010FA040), tag_num=0x10)
 47: 0x0241 [0x29] REQ_SET_WAIT(priority=0x08, entity_id=Gatih Mijurabi (ID: 17801280/0x010FA040), tag_num=0x06)
 48: 0x0248 [0x52] END_LOAD_SCHEDULER: End scheduler "s055" with entities [LocalPlayer, LocalPlayer], work=150*
 49: 0x0257 [0x45] LOAD_SCHEDULED_TASK: Load scheduler "s056" with entities [LocalPlayer, LocalPlayer], work=[150*, 0*]
 50: 0x0268 [0x29] REQ_SET_WAIT(priority=0x08, entity_id=Gatih Mijurabi (ID: 17801280/0x010FA040), tag_num=0x01)
 51: 0x026F [0x29] REQ_SET_WAIT(priority=0x0B, entity_id=Gatih Mijurabi (ID: 17801280/0x010FA040), tag_num=0x11)
 52: 0x0276 [0x29] REQ_SET_WAIT(priority=0x0B, entity_id=Gatih Mijurabi (ID: 17801280/0x010FA040), tag_num=0x12)
 53: 0x027D [0x52] END_LOAD_SCHEDULER: End scheduler "s056" with entities [LocalPlayer, LocalPlayer], work=150*
 54: 0x028C [0x45] LOAD_SCHEDULED_TASK: Load scheduler "ovl1" with entities [LocalPlayer, LocalPlayer], work=[200*, 0*]
 55: 0x029D [0x45] LOAD_SCHEDULED_TASK: Load scheduler "s057" with entities [LocalPlayer, LocalPlayer], work=[150*, 0*]
 56: 0x02AE [0x29] REQ_SET_WAIT(priority=0x08, entity_id=Gatih Mijurabi (ID: 17801280/0x010FA040), tag_num=0x02)
 57: 0x02B5 [0x6E] EventEntity uses emote 6*
 58: 0x02BC [0x99] Wait for EventEntity animation to complete
 59: 0x02C1 [0x29] REQ_SET_WAIT(priority=0x0B, entity_id=Gatih Mijurabi (ID: 17801280/0x010FA040), tag_num=0x13)
 60: 0x02C8 [0x5D] SET_MUSIC_VOLUME(volume=0*, fade_time=200*)
 61: 0x02CD [0x45] LOAD_SCHEDULED_TASK: Load scheduler "fdo1" with entities [LocalPlayer, LocalPlayer], work=[200*, 0*]
 62: 0x02DE [0x1C] WAIT(200* ticks)
 63: 0x02E1 [0x5C] MUSIC_CONTROL: Set Idle (Day) music to song 135*
 64: 0x02E5 [0x5C] MUSIC_CONTROL: Set Idle (Night) music to song 135*
 65: 0x02E9 [0x5D] SET_MUSIC_VOLUME(volume=127*, fade_time=1*)
 66: 0x02EE [0x52] END_LOAD_SCHEDULER: End scheduler "s057" with entities [LocalPlayer, LocalPlayer], work=150*
 67: 0x02FD [0x46] CAMERA_CONTROL: Restore default settings
 68: 0x02FF [0x1C] WAIT(200* ticks)
 69: 0x0302 [0x45] LOAD_SCHEDULED_TASK: Load scheduler "fdi1" with entities [LocalPlayer, LocalPlayer], work=[200*, 0*]
 70: 0x0313 [0x20] SET_CLI_EVENT_UC_FLAG: Unlock player control
 71: 0x0315 [0x21] END_EVENT
 72: 0x0316 [0x00] END_REQSTACK()
```

### Event 65535.11

#### Metadata

| Field        | Value   |
|--------------|---------|
| Entrypoint   | 0x0317  |
| Data Size    | 5 bytes |
| Instructions | 3       |

```
      00 01 02 03 04 05 06 07  08 09 0A 0B 0C 0D 0E 0F
      -- -- -- -- -- -- -- --  -- -- -- -- -- -- -- --
0310:                      1D  12 80 23 00                     ...#.    
```

#### Opcodes

```
  0: 0x0317 [0x1D] PRINT_EVENT_MESSAGE(message_id=10380*)
    → "<Cough> It seems as if you have spent too much time around one of our jungle's most notorrrious residents...the Rafflesia."
  1: 0x031A [0x23] WAIT_FOR_DIALOG_INTERACTION
  2: 0x031B [0x00] END_REQSTACK()
```

### Event 65535.12

#### Metadata

| Field        | Value   |
|--------------|---------|
| Entrypoint   | 0x031C  |
| Data Size    | 5 bytes |
| Instructions | 3       |

```
      00 01 02 03 04 05 06 07  08 09 0A 0B 0C 0D 0E 0F
      -- -- -- -- -- -- -- --  -- -- -- -- -- -- -- --
0310:                                      1D 13 80 23              ...#
0320: 00                                                .               
```

#### Opcodes

```
  0: 0x031C [0x1D] PRINT_EVENT_MESSAGE(message_id=10381*)
    → "Hmmm... Much time has passed since you came in contact with the flower, but I still think there is hope for removing that odor."
  1: 0x031F [0x23] WAIT_FOR_DIALOG_INTERACTION
  2: 0x0320 [0x00] END_REQSTACK()
```

### Event 65535.13

#### Metadata

| Field        | Value   |
|--------------|---------|
| Entrypoint   | 0x0321  |
| Data Size    | 5 bytes |
| Instructions | 3       |

```
      00 01 02 03 04 05 06 07  08 09 0A 0B 0C 0D 0E 0F
      -- -- -- -- -- -- -- --  -- -- -- -- -- -- -- --
0320:    1D 14 80 23 00                                  ...#.          
```

#### Opcodes

```
  0: 0x0321 [0x1D] PRINT_EVENT_MESSAGE(message_id=10382*)
    → "Ah, but wait... The Serpent Springs in the Sea Serpent Grotto dried up three years ago."
  1: 0x0324 [0x23] WAIT_FOR_DIALOG_INTERACTION
  2: 0x0325 [0x00] END_REQSTACK()
```

### Event 65535.14

#### Metadata

| Field        | Value   |
|--------------|---------|
| Entrypoint   | 0x0326  |
| Data Size    | 5 bytes |
| Instructions | 3       |

```
      00 01 02 03 04 05 06 07  08 09 0A 0B 0C 0D 0E 0F
      -- -- -- -- -- -- -- --  -- -- -- -- -- -- -- --
0320:                   1D 15  80 23 00                       ...#.     
```

#### Opcodes

```
  0: 0x0326 [0x1D] PRINT_EVENT_MESSAGE(message_id=10383*)
    → "This is not good. There is only one way to get that odor out of your system, and that is by bathing in a hot spring. However, it cannot be just any hot spring. It must be one located deep beneath the sea."
  1: 0x0329 [0x23] WAIT_FOR_DIALOG_INTERACTION
  2: 0x032A [0x00] END_REQSTACK()
```

### Event 65535.15

#### Metadata

| Field        | Value   |
|--------------|---------|
| Entrypoint   | 0x032B  |
| Data Size    | 5 bytes |
| Instructions | 3       |

```
      00 01 02 03 04 05 06 07  08 09 0A 0B 0C 0D 0E 0F
      -- -- -- -- -- -- -- --  -- -- -- -- -- -- -- --
0320:                                   1D 16 80 23 00             ...#.
```

#### Opcodes

```
  0: 0x032B [0x1D] PRINT_EVENT_MESSAGE(message_id=10384*)
    → "I wonder if there are any otherrr hot springs such as this located in the different regions of Vana'diel..."
  1: 0x032E [0x23] WAIT_FOR_DIALOG_INTERACTION
  2: 0x032F [0x00] END_REQSTACK()
```

### Event 65535.16

#### Metadata

| Field        | Value   |
|--------------|---------|
| Entrypoint   | 0x0330  |
| Data Size    | 5 bytes |
| Instructions | 3       |

```
      00 01 02 03 04 05 06 07  08 09 0A 0B 0C 0D 0E 0F
      -- -- -- -- -- -- -- --  -- -- -- -- -- -- -- --
0330: 1D 17 80 23 00                                    ...#.           
```

#### Opcodes

```
  0: 0x0330 [0x1D] PRINT_EVENT_MESSAGE(message_id=10385*)
    → "Bathing in one of these should remove the odor...unless we are alrrready too late."
  1: 0x0333 [0x23] WAIT_FOR_DIALOG_INTERACTION
  2: 0x0334 [0x00] END_REQSTACK()
```

### Event 192

#### Metadata

| Field        | Value    |
|--------------|----------|
| Entrypoint   | 0x0335   |
| Data Size    | 33 bytes |
| Instructions | 12       |

```
      00 01 02 03 04 05 06 07  08 09 0A 0B 0C 0D 0E 0F
      -- -- -- -- -- -- -- --  -- -- -- -- -- -- -- --
0330:                1E F0 FF  FF 7F 6F 70 29 08 40 A0       .....op).@.
0340: 0F 01 01 1D 18 80 23 1D  19 80 23 29 08 40 A0 0F  ......#...#).@..
0350: 01 02 20 00 21 00                                 .. .!.          
```

#### Opcodes

```
  0: 0x0335 [0x1E] EventEntity looks at LocalPlayer and starts talking
  1: 0x033A [0x6F] WAIT_FRAME_DELAY: Yield until WaitTime reaches zero
  2: 0x033B [0x70] WAIT_ENTITY_RENDER_FLAG: Wait while EventEntity->Render.Flags3 bit 2 is set (cancel turn if not)
  3: 0x033C [0x29] REQ_SET_WAIT(priority=0x08, entity_id=Gatih Mijurabi (ID: 17801280/0x010FA040), tag_num=0x01)
  4: 0x0343 [0x1D] PRINT_EVENT_MESSAGE(message_id=10386*)
    → "You must find a hot spring, but only one located somewhere deep beneath the sea."
  5: 0x0346 [0x23] WAIT_FOR_DIALOG_INTERACTION
  6: 0x0347 [0x1D] PRINT_EVENT_MESSAGE(message_id=10387*)
    → "Bathe in one of these, and it should remove the odor...unless we are alrrready too late."
  7: 0x034A [0x23] WAIT_FOR_DIALOG_INTERACTION
  8: 0x034B [0x29] REQ_SET_WAIT(priority=0x08, entity_id=Gatih Mijurabi (ID: 17801280/0x010FA040), tag_num=0x02)
  9: 0x0352 [0x20] SET_CLI_EVENT_UC_FLAG: Unlock player control
 10: 0x0354 [0x21] END_EVENT
 11: 0x0355 [0x00] END_REQSTACK()
```

### Event 193

#### Metadata

| Field        | Value     |
|--------------|-----------|
| Entrypoint   | 0x0356    |
| Data Size    | 325 bytes |
| Instructions | 42        |

```
      00 01 02 03 04 05 06 07  08 09 0A 0B 0C 0D 0E 0F
      -- -- -- -- -- -- -- --  -- -- -- -- -- -- -- --
0350:                   42 46  01 1E F0 FF FF 7F 45 08        BF......E.
0360: 80 F0 FF FF 7F F0 FF FF  7F 66 64 6F 31 07 80 1C  .........fdo1...
0370: 1A 80 75 00 09 80 75 01  6F 70 38 0A 80 29 0B F0  ..u...u.op8..)..
0380: FF FF 7F 0D 29 08 F0 FF  FF 7F 05 4A F0 FF FF 7F  ....)......J....
0390: 40 A0 0F 01 1E F0 FF FF  7F 6F 70 45 0F 80 F0 FF  @........opE....
03A0: FF 7F F0 FF FF 7F 73 30  35 36 07 80 45 08 80 F0  ......s056..E...
03B0: FF FF 7F F0 FF FF 7F 66  64 69 31 07 80 29 08 40  .......fdi1..).@
03C0: A0 0F 01 01 29 0B 40 A0  0F 01 16 29 08 40 A0 0F  ....).@....).@..
03D0: 01 02 52 0F 80 F0 FF FF  7F F0 FF FF 7F 73 30 35  ..R..........s05
03E0: 36 45 08 80 F0 FF FF 7F  F0 FF FF 7F 6F 76 6C 31  6E..........ovl1
03F0: 07 80 45 0F 80 F0 FF FF  7F F0 FF FF 7F 73 30 35  ..E..........s05
0400: 37 07 80 29 08 40 A0 0F  01 09 29 0B 40 A0 0F 01  7..).@....).@...
0410: 17 29 08 40 A0 0F 01 0A  52 0F 80 F0 FF FF 7F F0  .).@....R.......
0420: FF FF 7F 73 30 35 37 45  0F 80 F0 FF FF 7F F0 FF  ...s057E........
0430: FF 7F 73 30 35 35 07 80  29 08 40 A0 0F 01 01 29  ..s055..).@....)
0440: 0B 40 A0 0F 01 18 29 08  40 A0 0F 01 02 45 08 80  .@....).@....E..
0450: F0 FF FF 7F F0 FF FF 7F  66 64 6F 31 07 80 1C 1A  ........fdo1....
0460: 80 52 0F 80 F0 FF FF 7F  F0 FF FF 7F 73 30 35 35  .R..........s055
0470: 46 00 1C 08 80 45 08 80  F0 FF FF 7F F0 FF FF 7F  F....E..........
0480: 66 64 69 31 07 80 45 1B  80 F0 FF FF 7F F0 FF FF  fdi1..E.........
0490: 7F 71 73 74 63 07 80 20  00 21 00                 .qstc.. .!.     
```

#### Opcodes

```
  0: 0x0356 [0x42] SET_CLI_EVENT_CANCEL_DATA()
  1: 0x0357 [0x46] CAMERA_CONTROL: Disable user control
  2: 0x0359 [0x1E] EventEntity looks at LocalPlayer and starts talking
  3: 0x035E [0x45] LOAD_SCHEDULED_TASK: Load scheduler "fdo1" with entities [LocalPlayer, LocalPlayer], work=[200*, 0*]
  4: 0x036F [0x1C] WAIT(60* ticks)
  5: 0x0372 [0x75] LOAD_ROOM(Load indoor room, room=506*)
  6: 0x0376 [0x75] LOAD_ROOM(No action)
  7: 0x0378 [0x6F] WAIT_FRAME_DELAY: Yield until WaitTime reaches zero
  8: 0x0379 [0x70] WAIT_ENTITY_RENDER_FLAG: Wait while EventEntity->Render.Flags3 bit 2 is set (cancel turn if not)
  9: 0x037A [0x38] SET_CLIENT_EVENT_MODE(mode=3*)
 10: 0x037D [0x29] REQ_SET_WAIT(priority=0x0B, entity_id=LocalPlayer, tag_num=0x0D)
 11: 0x0384 [0x29] REQ_SET_WAIT(priority=0x08, entity_id=LocalPlayer, tag_num=0x05)
 12: 0x038B [0x4A] LocalPlayer looks at Gatih Mijurabi (ID: 17801280/0x010FA040)
 13: 0x0394 [0x1E] EventEntity looks at LocalPlayer and starts talking
 14: 0x0399 [0x6F] WAIT_FRAME_DELAY: Yield until WaitTime reaches zero
 15: 0x039A [0x70] WAIT_ENTITY_RENDER_FLAG: Wait while EventEntity->Render.Flags3 bit 2 is set (cancel turn if not)
 16: 0x039B [0x45] LOAD_SCHEDULED_TASK: Load scheduler "s056" with entities [LocalPlayer, LocalPlayer], work=[150*, 0*]
 17: 0x03AC [0x45] LOAD_SCHEDULED_TASK: Load scheduler "fdi1" with entities [LocalPlayer, LocalPlayer], work=[200*, 0*]
 18: 0x03BD [0x29] REQ_SET_WAIT(priority=0x08, entity_id=Gatih Mijurabi (ID: 17801280/0x010FA040), tag_num=0x01)
 19: 0x03C4 [0x29] REQ_SET_WAIT(priority=0x0B, entity_id=Gatih Mijurabi (ID: 17801280/0x010FA040), tag_num=0x16)
 20: 0x03CB [0x29] REQ_SET_WAIT(priority=0x08, entity_id=Gatih Mijurabi (ID: 17801280/0x010FA040), tag_num=0x02)
 21: 0x03D2 [0x52] END_LOAD_SCHEDULER: End scheduler "s056" with entities [LocalPlayer, LocalPlayer], work=150*
 22: 0x03E1 [0x45] LOAD_SCHEDULED_TASK: Load scheduler "ovl1" with entities [LocalPlayer, LocalPlayer], work=[200*, 0*]
 23: 0x03F2 [0x45] LOAD_SCHEDULED_TASK: Load scheduler "s057" with entities [LocalPlayer, LocalPlayer], work=[150*, 0*]
 24: 0x0403 [0x29] REQ_SET_WAIT(priority=0x08, entity_id=Gatih Mijurabi (ID: 17801280/0x010FA040), tag_num=0x09)
 25: 0x040A [0x29] REQ_SET_WAIT(priority=0x0B, entity_id=Gatih Mijurabi (ID: 17801280/0x010FA040), tag_num=0x17)
 26: 0x0411 [0x29] REQ_SET_WAIT(priority=0x08, entity_id=Gatih Mijurabi (ID: 17801280/0x010FA040), tag_num=0x0A)
 27: 0x0418 [0x52] END_LOAD_SCHEDULER: End scheduler "s057" with entities [LocalPlayer, LocalPlayer], work=150*
 28: 0x0427 [0x45] LOAD_SCHEDULED_TASK: Load scheduler "s055" with entities [LocalPlayer, LocalPlayer], work=[150*, 0*]
 29: 0x0438 [0x29] REQ_SET_WAIT(priority=0x08, entity_id=Gatih Mijurabi (ID: 17801280/0x010FA040), tag_num=0x01)
 30: 0x043F [0x29] REQ_SET_WAIT(priority=0x0B, entity_id=Gatih Mijurabi (ID: 17801280/0x010FA040), tag_num=0x18)
 31: 0x0446 [0x29] REQ_SET_WAIT(priority=0x08, entity_id=Gatih Mijurabi (ID: 17801280/0x010FA040), tag_num=0x02)
 32: 0x044D [0x45] LOAD_SCHEDULED_TASK: Load scheduler "fdo1" with entities [LocalPlayer, LocalPlayer], work=[200*, 0*]
 33: 0x045E [0x1C] WAIT(60* ticks)
 34: 0x0461 [0x52] END_LOAD_SCHEDULER: End scheduler "s055" with entities [LocalPlayer, LocalPlayer], work=150*
 35: 0x0470 [0x46] CAMERA_CONTROL: Restore default settings
 36: 0x0472 [0x1C] WAIT(200* ticks)
 37: 0x0475 [0x45] LOAD_SCHEDULED_TASK: Load scheduler "fdi1" with entities [LocalPlayer, LocalPlayer], work=[200*, 0*]
 38: 0x0486 [0x45] LOAD_SCHEDULED_TASK: Load scheduler "qstc" with entities [LocalPlayer, LocalPlayer], work=[201*, 0*]
 39: 0x0497 [0x20] SET_CLI_EVENT_UC_FLAG: Unlock player control
 40: 0x0499 [0x21] END_EVENT
 41: 0x049A [0x00] END_REQSTACK()
```

### Event 65535.17

#### Metadata

| Field        | Value   |
|--------------|---------|
| Entrypoint   | 0x049B  |
| Data Size    | 5 bytes |
| Instructions | 3       |

```
      00 01 02 03 04 05 06 07  08 09 0A 0B 0C 0D 0E 0F
      -- -- -- -- -- -- -- --  -- -- -- -- -- -- -- --
0490:                                   1D 1C 80 23 00             ...#.
```

#### Opcodes

```
  0: 0x049B [0x1D] PRINT_EVENT_MESSAGE(message_id=10388*)
    → "Congratulations. I see you were successful in locating another hot spring. You smell a little sweaty, but that is nothing a good shower won't cure."
  1: 0x049E [0x23] WAIT_FOR_DIALOG_INTERACTION
  2: 0x049F [0x00] END_REQSTACK()
```

### Event 65535.18

#### Metadata

| Field        | Value   |
|--------------|---------|
| Entrypoint   | 0x04A0  |
| Data Size    | 5 bytes |
| Instructions | 3       |

```
      00 01 02 03 04 05 06 07  08 09 0A 0B 0C 0D 0E 0F
      -- -- -- -- -- -- -- --  -- -- -- -- -- -- -- --
04A0: 1D 1D 80 23 00                                    ...#.           
```

#### Opcodes

```
  0: 0x04A0 [0x1D] PRINT_EVENT_MESSAGE(message_id=10389*)
    → "This means you can safely stay in Kazham now. Take this. You have worked harrrd for it."
  1: 0x04A3 [0x23] WAIT_FOR_DIALOG_INTERACTION
  2: 0x04A4 [0x00] END_REQSTACK()
```

### Event 65535.19

#### Metadata

| Field        | Value   |
|--------------|---------|
| Entrypoint   | 0x04A5  |
| Data Size    | 5 bytes |
| Instructions | 3       |

```
      00 01 02 03 04 05 06 07  08 09 0A 0B 0C 0D 0E 0F
      -- -- -- -- -- -- -- --  -- -- -- -- -- -- -- --
04A0:                1D 1E 80  23 00                         ...#.      
```

#### Opcodes

```
  0: 0x04A5 [0x1D] PRINT_EVENT_MESSAGE(message_id=10390*)
    → "However, do not assume that I will help you again, should you find yourself in the same predicament."
  1: 0x04A8 [0x23] WAIT_FOR_DIALOG_INTERACTION
  2: 0x04A9 [0x00] END_REQSTACK()
```

### Event 194

#### Metadata

| Field        | Value    |
|--------------|----------|
| Entrypoint   | 0x04AA   |
| Data Size    | 33 bytes |
| Instructions | 12       |

```
      00 01 02 03 04 05 06 07  08 09 0A 0B 0C 0D 0E 0F
      -- -- -- -- -- -- -- --  -- -- -- -- -- -- -- --
04A0:                                1E F0 FF FF 7F 6F            .....o
04B0: 70 29 08 40 A0 0F 01 01  1D 1F 80 23 1D 20 80 23  p).@.......#. .#
04C0: 29 08 40 A0 0F 01 02 20  00 21 00                 ).@.... .!.     
```

#### Opcodes

```
  0: 0x04AA [0x1E] EventEntity looks at LocalPlayer and starts talking
  1: 0x04AF [0x6F] WAIT_FRAME_DELAY: Yield until WaitTime reaches zero
  2: 0x04B0 [0x70] WAIT_ENTITY_RENDER_FLAG: Wait while EventEntity->Render.Flags3 bit 2 is set (cancel turn if not)
  3: 0x04B1 [0x29] REQ_SET_WAIT(priority=0x08, entity_id=Gatih Mijurabi (ID: 17801280/0x010FA040), tag_num=0x01)
  4: 0x04B8 [0x1D] PRINT_EVENT_MESSAGE(message_id=10391*)
    → "Congratulations! Now you can stay in Kazham without drawing everyone's attention."
  5: 0x04BB [0x23] WAIT_FOR_DIALOG_INTERACTION
  6: 0x04BC [0x1D] PRINT_EVENT_MESSAGE(message_id=10392*)
    → "Just do not assume that I will help you again, should you find yourself in the same predicament."
  7: 0x04BF [0x23] WAIT_FOR_DIALOG_INTERACTION
  8: 0x04C0 [0x29] REQ_SET_WAIT(priority=0x08, entity_id=Gatih Mijurabi (ID: 17801280/0x010FA040), tag_num=0x02)
  9: 0x04C7 [0x20] SET_CLI_EVENT_UC_FLAG: Unlock player control
 10: 0x04C9 [0x21] END_EVENT
 11: 0x04CA [0x00] END_REQSTACK()
```
