# 17801239 - Vanono

## Common Data

| Field            | Value            |
|------------------|------------------|
| Zone             | Kazham (ID: 250) |
| Block Size       | 272 bytes        |
| Total Events     | 7                |
| References Count | 12               |

## List of Events

| Event ID                 | Entrypoint   |   Size |   Instructions |
|--------------------------|--------------|--------|----------------|
| [65535](#event-65535)    | 0x0000       |      1 |              1 |
| [65535.1](#event-655351) | 0x0001       |     16 |              2 |
| [65535.2](#event-655352) | 0x0011       |     22 |              4 |
| [65535.3](#event-655353) | 0x0027       |      9 |              3 |
| [262](#event-262)        | 0x0030       |     33 |             12 |
| [264](#event-264)        | 0x0051       |     49 |             16 |
| [268](#event-268)        | 0x0082       |     49 |             16 |

## DAT References (imed_data)

|   Index | Hex Value   |   Dec Value |
|---------|-------------|-------------|
|       0 | 0x0028      |          40 |
|       1 | 0x001E      |          30 |
|       2 | 0x2722      |       10018 |
|       3 | 0x2723      |       10019 |
|       4 | 0x28EB      |       10475 |
|       5 | 0x28EC      |       10476 |
|       6 | 0x0006      |           6 |
|       7 | 0x28ED      |       10477 |
|       8 | 0x28F4      |       10484 |
|       9 | 0x28F5      |       10485 |
|      10 | 0x000A      |          10 |
|      11 | 0x28F6      |       10486 |

## String References

- **10018**: Now that routes to the Outlands have been opened, gobs and gobs of adventurers have been running in and out of Kazham.
- **10019**: We thought that we researchers from the Rhinostery could help-ity out those new to Elshimo.
- **10475**: I wasn't expecting minister Rukususu to come-ity here and begin her research on Elshimo so soon.
- **10476**: However, when I offered to show-ity her the Yhoator Jungle and the Sea Serpent Grotto, she turned me down and setaru off on her own!
- **10477**: All alone in the jungle with those Tonberries...I hope she's all rightaru!
- **10484**: Before minister Rukususu returned to the mainly-mainlands, I was able to give her my report on my findings here in Elshimo.
- **10485**: She was very pleased with all the lovely-wuvly discoveries that we had made.
- **10486**: But we couldn't have done it without the help of adventurers like you!

## Events

### Event 65535

#### Metadata

| Field        | Value   |
|--------------|---------|
| Entrypoint   | 0x0000  |
| Data Size    | 1 bytes |
| Instructions | 1       |

```
      00 01 02 03 04 05 06 07  08 09 0A 0B 0C 0D 0E 0F
      -- -- -- -- -- -- -- --  -- -- -- -- -- -- -- --
0000: 00                                                .               
```

#### Opcodes

```
  0: 0x0000 [0x00] END_REQSTACK()
```

### Event 65535.1

#### Metadata

| Field        | Value    |
|--------------|----------|
| Entrypoint   | 0x0001   |
| Data Size    | 16 bytes |
| Instructions | 2        |

```
      00 01 02 03 04 05 06 07  08 09 0A 0B 0C 0D 0E 0F
      -- -- -- -- -- -- -- --  -- -- -- -- -- -- -- --
0000:    66 00 80 F8 FF FF 7F  F8 FF FF 7F 74 6C 6B 30   f..........tlk0
0010: 00                                                .               
```

#### Opcodes

```
  0: 0x0001 [0x66] LOAD_EXT_SCHEDULER_MAIN: Load scheduler "tlk0" with entities [EventEntity, EventEntity], work=40*
  1: 0x0010 [0x00] END_REQSTACK()
```

### Event 65535.2

#### Metadata

| Field        | Value    |
|--------------|----------|
| Entrypoint   | 0x0011   |
| Data Size    | 22 bytes |
| Instructions | 4        |

```
      00 01 02 03 04 05 06 07  08 09 0A 0B 0C 0D 0E 0F
      -- -- -- -- -- -- -- --  -- -- -- -- -- -- -- --
0010:    53 F8 FF FF 7F F8 FF  FF 7F 74 6C 6B 30 5E 69   S........tlk0^i
0020: 64 6C 30 1C 01 80 00                              dl0....         
```

#### Opcodes

```
  0: 0x0011 [0x53] WAIT_SCHEDULER_TASK: Wait for scheduler "tlk0" with entities [EventEntity, EventEntity]
  1: 0x001E [0x5E] EventEntity goes idle (kills current action) (animation: "idl0")
  2: 0x0023 [0x1C] WAIT(30* ticks)
  3: 0x0026 [0x00] END_REQSTACK()
```

### Event 65535.3

#### Metadata

| Field        | Value   |
|--------------|---------|
| Entrypoint   | 0x0027  |
| Data Size    | 9 bytes |
| Instructions | 3       |

```
      00 01 02 03 04 05 06 07  08 09 0A 0B 0C 0D 0E 0F
      -- -- -- -- -- -- -- --  -- -- -- -- -- -- -- --
0020:                      5E  69 64 6C 30 1C 01 80 00         ^idl0....
```

#### Opcodes

```
  0: 0x0027 [0x5E] EventEntity goes idle (kills current action) (animation: "idl0")
  1: 0x002C [0x1C] WAIT(30* ticks)
  2: 0x002F [0x00] END_REQSTACK()
```

### Event 262

#### Metadata

| Field        | Value    |
|--------------|----------|
| Entrypoint   | 0x0030   |
| Data Size    | 33 bytes |
| Instructions | 12       |

```
      00 01 02 03 04 05 06 07  08 09 0A 0B 0C 0D 0E 0F
      -- -- -- -- -- -- -- --  -- -- -- -- -- -- -- --
0030: 1E F0 FF FF 7F 6F 70 29  08 17 A0 0F 01 01 1D 02  .....op)........
0040: 80 23 1D 03 80 23 29 08  17 A0 0F 01 02 20 00 21  .#...#)...... .!
0050: 00                                                .               
```

#### Opcodes

```
  0: 0x0030 [0x1E] EventEntity looks at LocalPlayer and starts talking
  1: 0x0035 [0x6F] WAIT_FRAME_DELAY: Yield until WaitTime reaches zero
  2: 0x0036 [0x70] WAIT_ENTITY_RENDER_FLAG: Wait while EventEntity->Render.Flags3 bit 2 is set (cancel turn if not)
  3: 0x0037 [0x29] REQ_SET_WAIT(priority=0x08, entity_id=Vanono (ID: 17801239/0x010FA017), tag_num=0x01)
  4: 0x003E [0x1D] PRINT_EVENT_MESSAGE(message_id=10018*)
    → "Now that routes to the Outlands have been opened, gobs and gobs of adventurers have been running in and out of Kazham."
  5: 0x0041 [0x23] WAIT_FOR_DIALOG_INTERACTION
  6: 0x0042 [0x1D] PRINT_EVENT_MESSAGE(message_id=10019*)
    → "We thought that we researchers from the Rhinostery could help-ity out those new to Elshimo."
  7: 0x0045 [0x23] WAIT_FOR_DIALOG_INTERACTION
  8: 0x0046 [0x29] REQ_SET_WAIT(priority=0x08, entity_id=Vanono (ID: 17801239/0x010FA017), tag_num=0x02)
  9: 0x004D [0x20] SET_CLI_EVENT_UC_FLAG: Unlock player control
 10: 0x004F [0x21] END_EVENT
 11: 0x0050 [0x00] END_REQSTACK()
```

### Event 264

#### Metadata

| Field        | Value    |
|--------------|----------|
| Entrypoint   | 0x0051   |
| Data Size    | 49 bytes |
| Instructions | 16       |

```
      00 01 02 03 04 05 06 07  08 09 0A 0B 0C 0D 0E 0F
      -- -- -- -- -- -- -- --  -- -- -- -- -- -- -- --
0050:    1E F0 FF FF 7F 6F 70  29 08 17 A0 0F 01 01 1D   .....op).......
0060: 04 80 23 1D 05 80 23 29  08 17 A0 0F 01 02 6E F8  ..#...#)......n.
0070: FF FF 7F 06 80 99 F8 FF  FF 7F 1D 07 80 23 20 00  .............# .
0080: 21 00                                             !.              
```

#### Opcodes

```
  0: 0x0051 [0x1E] EventEntity looks at LocalPlayer and starts talking
  1: 0x0056 [0x6F] WAIT_FRAME_DELAY: Yield until WaitTime reaches zero
  2: 0x0057 [0x70] WAIT_ENTITY_RENDER_FLAG: Wait while EventEntity->Render.Flags3 bit 2 is set (cancel turn if not)
  3: 0x0058 [0x29] REQ_SET_WAIT(priority=0x08, entity_id=Vanono (ID: 17801239/0x010FA017), tag_num=0x01)
  4: 0x005F [0x1D] PRINT_EVENT_MESSAGE(message_id=10475*)
    → "I wasn't expecting minister Rukususu to come-ity here and begin her research on Elshimo so soon."
  5: 0x0062 [0x23] WAIT_FOR_DIALOG_INTERACTION
  6: 0x0063 [0x1D] PRINT_EVENT_MESSAGE(message_id=10476*)
    → "However, when I offered to show-ity her the Yhoator Jungle and the Sea Serpent Grotto, she turned me down and setaru off on her own!"
  7: 0x0066 [0x23] WAIT_FOR_DIALOG_INTERACTION
  8: 0x0067 [0x29] REQ_SET_WAIT(priority=0x08, entity_id=Vanono (ID: 17801239/0x010FA017), tag_num=0x02)
  9: 0x006E [0x6E] EventEntity uses emote 6*
 10: 0x0075 [0x99] Wait for EventEntity animation to complete
 11: 0x007A [0x1D] PRINT_EVENT_MESSAGE(message_id=10477*)
    → "All alone in the jungle with those Tonberries...I hope she's all rightaru!"
 12: 0x007D [0x23] WAIT_FOR_DIALOG_INTERACTION
 13: 0x007E [0x20] SET_CLI_EVENT_UC_FLAG: Unlock player control
 14: 0x0080 [0x21] END_EVENT
 15: 0x0081 [0x00] END_REQSTACK()
```

### Event 268

#### Metadata

| Field        | Value    |
|--------------|----------|
| Entrypoint   | 0x0082   |
| Data Size    | 49 bytes |
| Instructions | 16       |

```
      00 01 02 03 04 05 06 07  08 09 0A 0B 0C 0D 0E 0F
      -- -- -- -- -- -- -- --  -- -- -- -- -- -- -- --
0080:       1E F0 FF FF 7F 6F  70 29 08 17 A0 0F 01 01    .....op)......
0090: 1D 08 80 23 1D 09 80 23  29 08 17 A0 0F 01 02 6E  ...#...#)......n
00A0: F8 FF FF 7F 0A 80 99 F8  FF FF 7F 1D 0B 80 23 20  ..............# 
00B0: 00 21 00                                          .!.             
```

#### Opcodes

```
  0: 0x0082 [0x1E] EventEntity looks at LocalPlayer and starts talking
  1: 0x0087 [0x6F] WAIT_FRAME_DELAY: Yield until WaitTime reaches zero
  2: 0x0088 [0x70] WAIT_ENTITY_RENDER_FLAG: Wait while EventEntity->Render.Flags3 bit 2 is set (cancel turn if not)
  3: 0x0089 [0x29] REQ_SET_WAIT(priority=0x08, entity_id=Vanono (ID: 17801239/0x010FA017), tag_num=0x01)
  4: 0x0090 [0x1D] PRINT_EVENT_MESSAGE(message_id=10484*)
    → "Before minister Rukususu returned to the mainly-mainlands, I was able to give her my report on my findings here in Elshimo."
  5: 0x0093 [0x23] WAIT_FOR_DIALOG_INTERACTION
  6: 0x0094 [0x1D] PRINT_EVENT_MESSAGE(message_id=10485*)
    → "She was very pleased with all the lovely-wuvly discoveries that we had made."
  7: 0x0097 [0x23] WAIT_FOR_DIALOG_INTERACTION
  8: 0x0098 [0x29] REQ_SET_WAIT(priority=0x08, entity_id=Vanono (ID: 17801239/0x010FA017), tag_num=0x02)
  9: 0x009F [0x6E] EventEntity uses emote 10*
 10: 0x00A6 [0x99] Wait for EventEntity animation to complete
 11: 0x00AB [0x1D] PRINT_EVENT_MESSAGE(message_id=10486*)
    → "But we couldn't have done it without the help of adventurers like you!"
 12: 0x00AE [0x23] WAIT_FOR_DIALOG_INTERACTION
 13: 0x00AF [0x20] SET_CLI_EVENT_UC_FLAG: Unlock player control
 14: 0x00B1 [0x21] END_EVENT
 15: 0x00B2 [0x00] END_REQSTACK()
```
