# 17801262 - Magriffon

## Common Data

| Field            | Value            |
|------------------|------------------|
| Zone             | Kazham (ID: 250) |
| Block Size       | 6580 bytes       |
| Total Events     | 79               |
| References Count | 123              |

## List of Events

| Event ID                   | Entrypoint   |   Size |   Instructions |
|----------------------------|--------------|--------|----------------|
| [65535](#event-65535)      | 0x0000       |      1 |              1 |
| [65535.1](#event-655351)   | 0x0001       |     16 |              2 |
| [65535.2](#event-655352)   | 0x0011       |     22 |              4 |
| [65535.3](#event-655353)   | 0x0027       |     16 |              2 |
| [65535.4](#event-655354)   | 0x0037       |     14 |              2 |
| [65535.5](#event-655355)   | 0x0045       |     16 |              2 |
| [65535.6](#event-655356)   | 0x0055       |     14 |              2 |
| [65535.7](#event-655357)   | 0x0063       |     16 |              2 |
| [65535.8](#event-655358)   | 0x0073       |     14 |              2 |
| [65535.9](#event-655359)   | 0x0081       |     16 |              2 |
| [65535.10](#event-6553510) | 0x0091       |     14 |              2 |
| [65535.11](#event-6553511) | 0x009F       |     16 |              2 |
| [65535.12](#event-6553512) | 0x00AF       |     14 |              2 |
| [65535.13](#event-6553513) | 0x00BD       |     16 |              2 |
| [65535.14](#event-6553514) | 0x00CD       |     14 |              2 |
| [65535.15](#event-6553515) | 0x00DB       |     16 |              2 |
| [65535.16](#event-6553516) | 0x00EB       |     14 |              2 |
| [65535.17](#event-6553517) | 0x00F9       |     16 |              2 |
| [65535.18](#event-6553518) | 0x0109       |     14 |              2 |
| [65535.19](#event-6553519) | 0x0117       |      9 |              3 |
| [65535.20](#event-6553520) | 0x0120       |     16 |              2 |
| [65535.21](#event-6553521) | 0x0130       |     14 |              2 |
| [143](#event-143)          | 0x013E       |    131 |             35 |
| [65535.22](#event-6553522) | 0x01C1       |     10 |              2 |
| [65535.23](#event-6553523) | 0x01CB       |     24 |              6 |
| [144](#event-144)          | 0x01E3       |   1862 |            238 |
| [65535.24](#event-6553524) | 0x0929       |      5 |              3 |
| [65535.25](#event-6553525) | 0x092E       |      5 |              3 |
| [65535.26](#event-6553526) | 0x0933       |      5 |              3 |
| [65535.27](#event-6553527) | 0x0938       |      5 |              3 |
| [65535.28](#event-6553528) | 0x093D       |      5 |              3 |
| [65535.29](#event-6553529) | 0x0942       |      5 |              3 |
| [65535.30](#event-6553530) | 0x0947       |      5 |              3 |
| [65535.31](#event-6553531) | 0x094C       |      5 |              3 |
| [65535.32](#event-6553532) | 0x0951       |      5 |              3 |
| [65535.33](#event-6553533) | 0x0956       |      5 |              3 |
| [65535.34](#event-6553534) | 0x095B       |      5 |              3 |
| [65535.35](#event-6553535) | 0x0960       |      9 |              5 |
| [65535.36](#event-6553536) | 0x0969       |      9 |              5 |
| [65535.37](#event-6553537) | 0x0972       |      5 |              3 |
| [65535.38](#event-6553538) | 0x0977       |      5 |              3 |
| [145](#event-145)          | 0x097C       |     43 |             12 |
| [146](#event-146)          | 0x09A7       |    483 |             68 |
| [65535.39](#event-6553539) | 0x0B8A       |      5 |              3 |
| [65535.40](#event-6553540) | 0x0B8F       |      5 |              3 |
| [65535.41](#event-6553541) | 0x0B94       |      5 |              3 |
| [65535.42](#event-6553542) | 0x0B99       |      5 |              3 |
| [147](#event-147)          | 0x0B9E       |     40 |             13 |
| [277](#event-277)          | 0x0BC6       |     76 |             21 |
| [148](#event-148)          | 0x0C12       |   1657 |            226 |
| [65535.43](#event-6553543) | 0x128B       |      5 |              3 |
| [65535.44](#event-6553544) | 0x1290       |      5 |              3 |
| [65535.45](#event-6553545) | 0x1295       |      5 |              3 |
| [65535.46](#event-6553546) | 0x129A       |      5 |              3 |
| [65535.47](#event-6553547) | 0x129F       |      5 |              3 |
| [65535.48](#event-6553548) | 0x12A4       |      5 |              3 |
| [65535.49](#event-6553549) | 0x12A9       |      5 |              3 |
| [65535.50](#event-6553550) | 0x12AE       |      5 |              3 |
| [65535.51](#event-6553551) | 0x12B3       |      5 |              3 |
| [65535.52](#event-6553552) | 0x12B8       |      5 |              3 |
| [65535.53](#event-6553553) | 0x12BD       |      5 |              3 |
| [65535.54](#event-6553554) | 0x12C2       |      5 |              3 |
| [65535.55](#event-6553555) | 0x12C7       |      5 |              3 |
| [65535.56](#event-6553556) | 0x12CC       |      5 |              3 |
| [65535.57](#event-6553557) | 0x12D1       |      5 |              3 |
| [65535.58](#event-6553558) | 0x12D6       |      5 |              3 |
| [149](#event-149)          | 0x12DB       |     54 |             15 |
| [150](#event-150)          | 0x1311       |    106 |             28 |
| [151](#event-151)          | 0x137B       |     40 |             13 |
| [152](#event-152)          | 0x13A3       |    573 |             74 |
| [65535.59](#event-6553559) | 0x15E0       |      5 |              3 |
| [65535.60](#event-6553560) | 0x15E5       |      5 |              3 |
| [65535.61](#event-6553561) | 0x15EA       |      9 |              5 |
| [153](#event-153)          | 0x15F3       |     26 |             11 |
| [299](#event-299)          | 0x160D       |      1 |              1 |
| [65535.62](#event-6553562) | 0x160E       |     10 |              2 |
| [301](#event-301)          | 0x1618       |      1 |              1 |
| [300](#event-300)          | 0x1619       |     58 |             17 |
| [302](#event-302)          | 0x1653       |     40 |             13 |

## DAT References (imed_data)

|   Index | Hex Value   |   Dec Value |
|---------|-------------|-------------|
|       0 | 0x0014      |          20 |
|       1 | 0x001E      |          30 |
|       2 | 0x0015      |          21 |
|       3 | 0x001B      |          27 |
|       4 | 0x0000      |           0 |
|       5 | 0x2808      |       10248 |
|       6 | 0x2809      |       10249 |
|       7 | 0x280A      |       10250 |
|       8 | 0x280B      |       10251 |
|       9 | 0x280C      |       10252 |
|      10 | 0x280D      |       10253 |
|      11 | 0x280E      |       10254 |
|      12 | 0x280F      |       10255 |
|      13 | 0xFFFFB525  |  4294948133 |
|      14 | 0x15824     |       88100 |
|      15 | 0x067E      |        1662 |
|      16 | 0x0C65      |        3173 |
|      17 | 0x000D      |          13 |
|      18 | 0xFFFFB20B  |  4294947339 |
|      19 | 0x1608E     |       90254 |
|      20 | 0x09B7      |        2487 |
|      21 | 0xFFFFA538  |  4294944056 |
|      22 | 0x177ED     |       96237 |
|      23 | 0x118E      |        4494 |
|      24 | 0x00C8      |         200 |
|      25 | 0x01F9      |         505 |
|      26 | 0x0803      |        2051 |
|      27 | 0xEE48      |       61000 |
|      28 | 0xFFFF79A3  |  4294932899 |
|      29 | 0xFFFFD120  |  4294955296 |
|      30 | 0x05D3      |        1491 |
|      31 | 0x0BDC      |        3036 |
|      32 | 0x0068      |         104 |
|      33 | 0x007F      |         127 |
|      34 | 0x0001      |           1 |
|      35 | 0x0096      |         150 |
|      36 | 0x2810      |       10256 |
|      37 | 0x0078      |         120 |
|      38 | 0x2811      |       10257 |
|      39 | 0x0005      |           5 |
|      40 | 0x0006      |           6 |
|      41 | 0x2812      |       10258 |
|      42 | 0x2819      |       10265 |
|      43 | 0x0002      |           2 |
|      44 | 0x0087      |         135 |
|      45 | 0x003C      |          60 |
|      46 | 0x007B      |         123 |
|      47 | 0x000C      |          12 |
|      48 | 0x0064      |         100 |
|      49 | 0x0154      |         340 |
|      50 | 0x00FA      |         250 |
|      51 | 0x2813      |       10259 |
|      52 | 0x2814      |       10260 |
|      53 | 0x2815      |       10261 |
|      54 | 0x2816      |       10262 |
|      55 | 0x2817      |       10263 |
|      56 | 0x2818      |       10264 |
|      57 | 0x281A      |       10266 |
|      58 | 0x281C      |       10268 |
|      59 | 0x281D      |       10269 |
|      60 | 0x281E      |       10270 |
|      61 | 0x281F      |       10271 |
|      62 | 0x2820      |       10272 |
|      63 | 0x2821      |       10273 |
|      64 | 0x2822      |       10274 |
|      65 | 0x2823      |       10275 |
|      66 | 0x2824      |       10276 |
|      67 | 0x2825      |       10277 |
|      68 | 0x2826      |       10278 |
|      69 | 0x282B      |       10283 |
|      70 | 0x00C9      |         201 |
|      71 | 0x2827      |       10279 |
|      72 | 0x2828      |       10280 |
|      73 | 0x2829      |       10281 |
|      74 | 0x282A      |       10282 |
|      75 | 0x282C      |       10284 |
|      76 | 0x282D      |       10285 |
|      77 | 0x282E      |       10286 |
|      78 | 0x282F      |       10287 |
|      79 | 0x2830      |       10288 |
|      80 | 0x2831      |       10289 |
|      81 | 0x2834      |       10292 |
|      82 | 0x2837      |       10295 |
|      83 | 0x00B0      |         176 |
|      84 | 0x0028      |          40 |
|      85 | 0x000A      |          10 |
|      86 | 0x283E      |       10302 |
|      87 | 0x2843      |       10307 |
|      88 | 0x2832      |       10290 |
|      89 | 0x2833      |       10291 |
|      90 | 0x2835      |       10293 |
|      91 | 0x2836      |       10294 |
|      92 | 0x2838      |       10296 |
|      93 | 0x2839      |       10297 |
|      94 | 0x283A      |       10298 |
|      95 | 0x283B      |       10299 |
|      96 | 0x283C      |       10300 |
|      97 | 0x283D      |       10301 |
|      98 | 0x283F      |       10303 |
|      99 | 0x2840      |       10304 |
|     100 | 0x2841      |       10305 |
|     101 | 0x2842      |       10306 |
|     102 | 0x2844      |       10308 |
|     103 | 0x2845      |       10309 |
|     104 | 0x2846      |       10310 |
|     105 | 0x2847      |       10311 |
|     106 | 0x2848      |       10312 |
|     107 | 0x2849      |       10313 |
|     108 | 0x284A      |       10314 |
|     109 | 0x284B      |       10315 |
|     110 | 0x284C      |       10316 |
|     111 | 0x284D      |       10317 |
|     112 | 0x2850      |       10320 |
|     113 | 0x2851      |       10321 |
|     114 | 0x2852      |       10322 |
|     115 | 0x2853      |       10323 |
|     116 | 0x2854      |       10324 |
|     117 | 0x2855      |       10325 |
|     118 | 0x2A1F      |       10783 |
|     119 | 0x2A20      |       10784 |
|     120 | 0x2A25      |       10789 |
|     121 | 0x2A2A      |       10794 |
|     122 | 0x2A29      |       10793 |

## String References

- **10248**: Beautiful maiden! Never did I dream that such a vision of loveliness would bedazzle mine eye in this Goddess-forsaken land!
- **10249**: Let me introduce myself. My name is Magriffon. I wish I could tell you more, but I'm here on a top-secret mission of national importance.
- **10250**: However, I cannot ignore a lady in need of assistance. If you ever need anything in this uncivilized wilderness, I would be honored to lend you my hand.
- **10251**: I would show no mercy to the beast that even pondered laying a finger on your beautiful skin.
- **10252**: Oh, why if it isn't a robust looking adventurer. I applaud you on what must have been a long journey to this uncivilized wilderness.
- **10253**: Let me introduce myself. My name is Magriffon. I have been stationed in Kazham for several years on a top-secret mission of national importance.
- **10254**: During that time, I have come to know the island fairly well. If there is anything I can assist you with, do not hesitate to ask.
- **10255**: Many dangers lurk behind the beauty of the jungle. Take care when traveling alone.
- **10256**: <Sigh>
- **10257**: <Si\`gh>
- **10258**: ...
- **10259**: Like a beam of sunlight through the parting clouds, your smile warms my heart in my time of anguish.
- **10260**: No, no. There is no need to worry about me. I will be fine...
- **10261**: Oh, my beautiful <Player>! I knew from the moment I saw you that we were connected. I feel that only one such as you could understand what is troubling me.
- **10262**: Why, if it is not the robust adventurer who stopped by the other day. You adventurers and your carefree spirits... Warms my heart in my time of anguish.
- **10263**: No, no. There is no need to worry about me. I will be fine...
- **10264**: I knew from the moment we first met that you were different from the others. I feel that only an honest, strong, and brave adventurer like yourself could understand what is troubling me.
- **10265**: Lend Magriffon your ear? [Of course! What a gentleman!/Something's fishy...]
- **10266**: Yes... A few days ago I was walking through the Yuhtunga Jungle.
- **10268**: And then, out of thin air, appeared a group of these furry little beasts. I think the natives refer to them as Opo-opos.
- **10269**: They told me that due to the recent influx of adventurers, the jungle was ravaged and their food supply was dwindling.
- **10270**: I shed tears of pity at their sad, sad story. I felt as if I was obligated to pay for the atrocities that my fellow adventurers had committed. So, I proceeded in giving them all my belongings as a sign of peace.
- **10271**: However, after I had returned from my journey, I realized that I had made an error in judgment. Within the bag that I had given the Opo-opos was my purse, containing all my gil...
- **10272**: My fair <Player>. I haven't eaten a decent meal in three days, and the proprietor of this inn is threatening to throw me out if I do not pay her fee...
- **10273**: However, deep down in my heart I do not regret what I have done for those poor beasts, and I would do the same again in a heartbeat.
- **10274**: <Player>, my friend. I haven't eaten a decent meal in three days, and the proprietor of this inn is threatening to throw me out if I do not pay her fee...
- **10275**: However, deep down in my heart I do not regret what I have done for those poor beasts, and I would do the same again in a heartbeat.
- **10276**: I only regret that I was unable to fulfill my duty to my country!
- **10277**: If I only had $1 gil... Yes, $1 gil. Then I could complete my mission, and I could save all those children...
- **10278**: If I only had $1 gil, then I could complete my mission.
- **10279**: It's a miracle! The Dawn Goddess has shone her light down upon me!
- **10280**: <Player>! Your beauty comes second only to your generosity. I thank Altana for allowing our paths to cross.
- **10281**: Your strength and bravery are matched only by your generosity and nobleness. I am proud to call <Player> a friend and an acquaintance.
- **10282**: And now I can complete my mission.
- **10283**: I promise you, [my friend/my sweet], that I will never forget your kindness, and I swear I will someday repay you for what you have done for me.
- **10284**: Now I can complete my top-secret mission.
- **10285**: I promise you, [my friend/my sweet], that I will never forget your kindness, and I swear I will someday repay you for what you have done for me.
- **10286**: Ah, if it isn't [my dear friend/my darling,] <Player>. Are you off on another adventure for some poor soul? Remember that the more you give, the more you will get in return. This is the way the world works.
- **10287**: This can be said of my encounter with those poor Opo-opos.
- **10288**: Yes, they did walk off with [my beloved furnishing/one of my cards/the strange sand I found on one of my journeys/my pet frog/my belongings], but if it was not for that fateful day, I would have never met you and been graced by your [courage/beauty].
- **10289**: A miracle it is! A miracle!
- **10290**: If it isn't my [friend,/darling] <Player>! How fare your perilous adventures?
- **10291**: Ah, yes. I have a piece of information that you might be interested in. Have you ever been to a place called Norg?
- **10292**: Have you been there? [Yes./No.]
- **10293**: You have? Then you must already know...
- **10294**: You have not? Well, it is good that you came to me before you wandered in there unknowing. That place will make the hair on the back of your neck stand on end.
- **10295**: Norg is a haven for the pirates that bring terror to all who travel the Bastore Sea.
- **10296**: The other day, I was exploring the cave that is said to lead to their hideout...
- **10297**: ...when I thought I heard a faint scream. I could not ignore this cry for help, and continued in the direction of the voice.
- **10298**: That is when I saw her running towards me--a noble-looking woman in a bright green dress.
- **10299**: She appeared to have been running for quite a distance. When she caught her breath she told me the following:
- **10300**: "I am trying to escape from those evil men in Norg, but I think they are right behind me. Run, before they catch you talking with me."
- **10301**: However, as you know, my conscience would not allow me to do such a selfish act.
- **10302**: I moved in front of the mysterious woman and struck down her pursuers. Once I had handled every last one of them, I escorted the lady back to Kazham.
- **10303**: I nursed her until she regained enough of her strength to return to her homeland of Jeuno.
- **10304**: But before she parted, she presented me with this $3...
- **10305**: However, I am on a top-secret mission for my country. I have no need of pirate treasure. As long as I have enough gil to pay for my room here at this fine establishment...
- **10306**: An adventurer, such as yourself, could make better use of this map than I. What do you say? Would you be willing to exchange this map for a small amount of gil?
- **10307**: "Exchange" gil for the map? [Yes./Not today.]
- **10308**: Blessed again I am by the kindness of my [dear friend,/sweet] <Player>! A mere $4 gil should be sufficient for me to continue my crucial mission...
- **10309**: I will exchange with you the $3 that I received in Norg for a mere $5 gil.
- **10310**: What? You say that I must be crazy to give up a chance at a fortune for a small handful of gil? [My dear friend/My sweet], I am on a top-secret mission for my country. I have no need of pirate's treasure. As long as I have enough gil to pay for my room here at this fine establishment...
- **10311**: Oh! You have made a noble decision. I am, once again, in your debt.
- **10312**: The woman I saved... She risked her life to escape from Norg with this important $3.
- **10313**: But there is only one way for you to truly realize the danger she faced. And that is finding out what is hidden at the end of this map.
- **10314**: I hope whatever you find helps you fulfill your dreams. I wish only the best for my dear <Player>.
- **10315**: Helping others when they face peril. Just as I helped that woman, you have helped me. Your actions reflect the true definition of chivalry!
- **10316**: You have made a noble decision. I am, once again, in your debt. I hope whatever you find at the end of that map helps you fulfill your dreams.
- **10317**: From what I can tell, the treasure is more than likely the long-lost... No, it could not be...
- **10320**: You've found $1? Now whatever could you be speaking of?
- **10321**: A-ah, yes! The $3! I see, I see. So the treasure was the rare $1. You are very lucky.
- **10322**: That particular item can be sold for quite a nice profit at most shops.
- **10323**: No, no. I need no thanks. May fortune shine upon all your journeys, [my friend/my sweet]!
- **10324**: $1 can be sold for quite a nice profit at most shops.
- **10325**: No, no. I need no thanks. May fortune shine upon all your journeys, [my friend/my sweet]!
- **10783**: I shall take up their cause! I, Magriffon, shall build a bridge between the Moblins and the world of people.
- **10784**: However... The plan I am about to tell you is of a delicate and daring nature, and will require a dose of phenomenal luck.
- **10789**: With this $3 by your side, [my intoxicating flower/my resourceful hero], astounding fortune will be yours! I will let you purchase this wondrous treasure for a mere $2 gil!
- **10793**: Hahaha! May dazzling fortune smile upon thee, my [reason for breathing/daring adventurer]!
- **10794**: Let us overcome all obstacles that stand between us and the completion of our duty!

## Events

### Event 65535

#### Metadata

| Field        | Value   |
|--------------|---------|
| Entrypoint   | 0x0000  |
| Data Size    | 1 bytes |
| Instructions | 1       |

```
      00 01 02 03 04 05 06 07  08 09 0A 0B 0C 0D 0E 0F
      -- -- -- -- -- -- -- --  -- -- -- -- -- -- -- --
0000: 00                                                .               
```

#### Opcodes

```
  0: 0x0000 [0x00] END_REQSTACK()
```

### Event 65535.1

#### Metadata

| Field        | Value    |
|--------------|----------|
| Entrypoint   | 0x0001   |
| Data Size    | 16 bytes |
| Instructions | 2        |

```
      00 01 02 03 04 05 06 07  08 09 0A 0B 0C 0D 0E 0F
      -- -- -- -- -- -- -- --  -- -- -- -- -- -- -- --
0000:    66 00 80 F8 FF FF 7F  F8 FF FF 7F 74 6C 6B 30   f..........tlk0
0010: 00                                                .               
```

#### Opcodes

```
  0: 0x0001 [0x66] LOAD_EXT_SCHEDULER_MAIN: Load scheduler "tlk0" with entities [EventEntity, EventEntity], work=20*
  1: 0x0010 [0x00] END_REQSTACK()
```

### Event 65535.2

#### Metadata

| Field        | Value    |
|--------------|----------|
| Entrypoint   | 0x0011   |
| Data Size    | 22 bytes |
| Instructions | 4        |

```
      00 01 02 03 04 05 06 07  08 09 0A 0B 0C 0D 0E 0F
      -- -- -- -- -- -- -- --  -- -- -- -- -- -- -- --
0010:    53 F8 FF FF 7F F8 FF  FF 7F 74 6C 6B 30 5E 69   S........tlk0^i
0020: 64 6C 30 1C 01 80 00                              dl0....         
```

#### Opcodes

```
  0: 0x0011 [0x53] WAIT_SCHEDULER_TASK: Wait for scheduler "tlk0" with entities [EventEntity, EventEntity]
  1: 0x001E [0x5E] EventEntity goes idle (kills current action) (animation: "idl0")
  2: 0x0023 [0x1C] WAIT(30* ticks)
  3: 0x0026 [0x00] END_REQSTACK()
```

### Event 65535.3

#### Metadata

| Field        | Value    |
|--------------|----------|
| Entrypoint   | 0x0027   |
| Data Size    | 16 bytes |
| Instructions | 2        |

```
      00 01 02 03 04 05 06 07  08 09 0A 0B 0C 0D 0E 0F
      -- -- -- -- -- -- -- --  -- -- -- -- -- -- -- --
0020:                      66  00 80 F8 FF FF 7F F8 FF         f........
0030: FF 7F 74 68 6B 31 00                              ..thk1.         
```

#### Opcodes

```
  0: 0x0027 [0x66] LOAD_EXT_SCHEDULER_MAIN: Load scheduler "thk1" with entities [EventEntity, EventEntity], work=20*
  1: 0x0036 [0x00] END_REQSTACK()
```

### Event 65535.4

#### Metadata

| Field        | Value    |
|--------------|----------|
| Entrypoint   | 0x0037   |
| Data Size    | 14 bytes |
| Instructions | 2        |

```
      00 01 02 03 04 05 06 07  08 09 0A 0B 0C 0D 0E 0F
      -- -- -- -- -- -- -- --  -- -- -- -- -- -- -- --
0030:                      53  F8 FF FF 7F F8 FF FF 7F         S........
0040: 74 68 6B 31 00                                    thk1.           
```

#### Opcodes

```
  0: 0x0037 [0x53] WAIT_SCHEDULER_TASK: Wait for scheduler "thk1" with entities [EventEntity, EventEntity]
  1: 0x0044 [0x00] END_REQSTACK()
```

### Event 65535.5

#### Metadata

| Field        | Value    |
|--------------|----------|
| Entrypoint   | 0x0045   |
| Data Size    | 16 bytes |
| Instructions | 2        |

```
      00 01 02 03 04 05 06 07  08 09 0A 0B 0C 0D 0E 0F
      -- -- -- -- -- -- -- --  -- -- -- -- -- -- -- --
0040:                66 00 80  F8 FF FF 7F F8 FF FF 7F       f..........
0050: 74 68 6B 32 00                                    thk2.           
```

#### Opcodes

```
  0: 0x0045 [0x66] LOAD_EXT_SCHEDULER_MAIN: Load scheduler "thk2" with entities [EventEntity, EventEntity], work=20*
  1: 0x0054 [0x00] END_REQSTACK()
```

### Event 65535.6

#### Metadata

| Field        | Value    |
|--------------|----------|
| Entrypoint   | 0x0055   |
| Data Size    | 14 bytes |
| Instructions | 2        |

```
      00 01 02 03 04 05 06 07  08 09 0A 0B 0C 0D 0E 0F
      -- -- -- -- -- -- -- --  -- -- -- -- -- -- -- --
0050:                53 F8 FF  FF 7F F8 FF FF 7F 74 68       S........th
0060: 6B 32 00                                          k2.             
```

#### Opcodes

```
  0: 0x0055 [0x53] WAIT_SCHEDULER_TASK: Wait for scheduler "thk2" with entities [EventEntity, EventEntity]
  1: 0x0062 [0x00] END_REQSTACK()
```

### Event 65535.7

#### Metadata

| Field        | Value    |
|--------------|----------|
| Entrypoint   | 0x0063   |
| Data Size    | 16 bytes |
| Instructions | 2        |

```
      00 01 02 03 04 05 06 07  08 09 0A 0B 0C 0D 0E 0F
      -- -- -- -- -- -- -- --  -- -- -- -- -- -- -- --
0060:          66 00 80 F8 FF  FF 7F F8 FF FF 7F 70 61     f..........pa
0070: 73 30 00                                          s0.             
```

#### Opcodes

```
  0: 0x0063 [0x66] LOAD_EXT_SCHEDULER_MAIN: Load scheduler "pas0" with entities [EventEntity, EventEntity], work=20*
  1: 0x0072 [0x00] END_REQSTACK()
```

### Event 65535.8

#### Metadata

| Field        | Value    |
|--------------|----------|
| Entrypoint   | 0x0073   |
| Data Size    | 14 bytes |
| Instructions | 2        |

```
      00 01 02 03 04 05 06 07  08 09 0A 0B 0C 0D 0E 0F
      -- -- -- -- -- -- -- --  -- -- -- -- -- -- -- --
0070:          53 F8 FF FF 7F  F8 FF FF 7F 70 61 73 30     S........pas0
0080: 00                                                .               
```

#### Opcodes

```
  0: 0x0073 [0x53] WAIT_SCHEDULER_TASK: Wait for scheduler "pas0" with entities [EventEntity, EventEntity]
  1: 0x0080 [0x00] END_REQSTACK()
```

### Event 65535.9

#### Metadata

| Field        | Value    |
|--------------|----------|
| Entrypoint   | 0x0081   |
| Data Size    | 16 bytes |
| Instructions | 2        |

```
      00 01 02 03 04 05 06 07  08 09 0A 0B 0C 0D 0E 0F
      -- -- -- -- -- -- -- --  -- -- -- -- -- -- -- --
0080:    66 00 80 F8 FF FF 7F  F8 FF FF 7F 70 6F 69 31   f..........poi1
0090: 00                                                .               
```

#### Opcodes

```
  0: 0x0081 [0x66] LOAD_EXT_SCHEDULER_MAIN: Load scheduler "poi1" with entities [EventEntity, EventEntity], work=20*
  1: 0x0090 [0x00] END_REQSTACK()
```

### Event 65535.10

#### Metadata

| Field        | Value    |
|--------------|----------|
| Entrypoint   | 0x0091   |
| Data Size    | 14 bytes |
| Instructions | 2        |

```
      00 01 02 03 04 05 06 07  08 09 0A 0B 0C 0D 0E 0F
      -- -- -- -- -- -- -- --  -- -- -- -- -- -- -- --
0090:    53 F8 FF FF 7F F8 FF  FF 7F 70 6F 69 31 00      S........poi1. 
```

#### Opcodes

```
  0: 0x0091 [0x53] WAIT_SCHEDULER_TASK: Wait for scheduler "poi1" with entities [EventEntity, EventEntity]
  1: 0x009E [0x00] END_REQSTACK()
```

### Event 65535.11

#### Metadata

| Field        | Value    |
|--------------|----------|
| Entrypoint   | 0x009F   |
| Data Size    | 16 bytes |
| Instructions | 2        |

```
      00 01 02 03 04 05 06 07  08 09 0A 0B 0C 0D 0E 0F
      -- -- -- -- -- -- -- --  -- -- -- -- -- -- -- --
0090:                                               66                 f
00A0: 00 80 F8 FF FF 7F F8 FF  FF 7F 70 6F 69 32 00     ..........poi2. 
```

#### Opcodes

```
  0: 0x009F [0x66] LOAD_EXT_SCHEDULER_MAIN: Load scheduler "poi2" with entities [EventEntity, EventEntity], work=20*
  1: 0x00AE [0x00] END_REQSTACK()
```

### Event 65535.12

#### Metadata

| Field        | Value    |
|--------------|----------|
| Entrypoint   | 0x00AF   |
| Data Size    | 14 bytes |
| Instructions | 2        |

```
      00 01 02 03 04 05 06 07  08 09 0A 0B 0C 0D 0E 0F
      -- -- -- -- -- -- -- --  -- -- -- -- -- -- -- --
00A0:                                               53                 S
00B0: F8 FF FF 7F F8 FF FF 7F  70 6F 69 32 00           ........poi2.   
```

#### Opcodes

```
  0: 0x00AF [0x53] WAIT_SCHEDULER_TASK: Wait for scheduler "poi2" with entities [EventEntity, EventEntity]
  1: 0x00BC [0x00] END_REQSTACK()
```

### Event 65535.13

#### Metadata

| Field        | Value    |
|--------------|----------|
| Entrypoint   | 0x00BD   |
| Data Size    | 16 bytes |
| Instructions | 2        |

```
      00 01 02 03 04 05 06 07  08 09 0A 0B 0C 0D 0E 0F
      -- -- -- -- -- -- -- --  -- -- -- -- -- -- -- --
00B0:                                         66 02 80               f..
00C0: F8 FF FF 7F F8 FF FF 7F  70 6F 69 30 00           ........poi0.   
```

#### Opcodes

```
  0: 0x00BD [0x66] LOAD_EXT_SCHEDULER_MAIN: Load scheduler "poi0" with entities [EventEntity, EventEntity], work=21*
  1: 0x00CC [0x00] END_REQSTACK()
```

### Event 65535.14

#### Metadata

| Field        | Value    |
|--------------|----------|
| Entrypoint   | 0x00CD   |
| Data Size    | 14 bytes |
| Instructions | 2        |

```
      00 01 02 03 04 05 06 07  08 09 0A 0B 0C 0D 0E 0F
      -- -- -- -- -- -- -- --  -- -- -- -- -- -- -- --
00C0:                                         53 F8 FF               S..
00D0: FF 7F F8 FF FF 7F 70 6F  69 30 00                 ......poi0.     
```

#### Opcodes

```
  0: 0x00CD [0x53] WAIT_SCHEDULER_TASK: Wait for scheduler "poi0" with entities [EventEntity, EventEntity]
  1: 0x00DA [0x00] END_REQSTACK()
```

### Event 65535.15

#### Metadata

| Field        | Value    |
|--------------|----------|
| Entrypoint   | 0x00DB   |
| Data Size    | 16 bytes |
| Instructions | 2        |

```
      00 01 02 03 04 05 06 07  08 09 0A 0B 0C 0D 0E 0F
      -- -- -- -- -- -- -- --  -- -- -- -- -- -- -- --
00D0:                                   66 02 80 F8 FF             f....
00E0: FF 7F F8 FF FF 7F 70 6F  69 31 00                 ......poi1.     
```

#### Opcodes

```
  0: 0x00DB [0x66] LOAD_EXT_SCHEDULER_MAIN: Load scheduler "poi1" with entities [EventEntity, EventEntity], work=21*
  1: 0x00EA [0x00] END_REQSTACK()
```

### Event 65535.16

#### Metadata

| Field        | Value    |
|--------------|----------|
| Entrypoint   | 0x00EB   |
| Data Size    | 14 bytes |
| Instructions | 2        |

```
      00 01 02 03 04 05 06 07  08 09 0A 0B 0C 0D 0E 0F
      -- -- -- -- -- -- -- --  -- -- -- -- -- -- -- --
00E0:                                   53 F8 FF FF 7F             S....
00F0: F8 FF FF 7F 70 6F 69 31  00                       ....poi1.       
```

#### Opcodes

```
  0: 0x00EB [0x53] WAIT_SCHEDULER_TASK: Wait for scheduler "poi1" with entities [EventEntity, EventEntity]
  1: 0x00F8 [0x00] END_REQSTACK()
```

### Event 65535.17

#### Metadata

| Field        | Value    |
|--------------|----------|
| Entrypoint   | 0x00F9   |
| Data Size    | 16 bytes |
| Instructions | 2        |

```
      00 01 02 03 04 05 06 07  08 09 0A 0B 0C 0D 0E 0F
      -- -- -- -- -- -- -- --  -- -- -- -- -- -- -- --
00F0:                             66 02 80 F8 FF FF 7F           f......
0100: F8 FF FF 7F 64 69 73 30  00                       ....dis0.       
```

#### Opcodes

```
  0: 0x00F9 [0x66] LOAD_EXT_SCHEDULER_MAIN: Load scheduler "dis0" with entities [EventEntity, EventEntity], work=21*
  1: 0x0108 [0x00] END_REQSTACK()
```

### Event 65535.18

#### Metadata

| Field        | Value    |
|--------------|----------|
| Entrypoint   | 0x0109   |
| Data Size    | 14 bytes |
| Instructions | 2        |

```
      00 01 02 03 04 05 06 07  08 09 0A 0B 0C 0D 0E 0F
      -- -- -- -- -- -- -- --  -- -- -- -- -- -- -- --
0100:                             53 F8 FF FF 7F F8 FF           S......
0110: FF 7F 64 69 73 30 00                              ..dis0.         
```

#### Opcodes

```
  0: 0x0109 [0x53] WAIT_SCHEDULER_TASK: Wait for scheduler "dis0" with entities [EventEntity, EventEntity]
  1: 0x0116 [0x00] END_REQSTACK()
```

### Event 65535.19

#### Metadata

| Field        | Value   |
|--------------|---------|
| Entrypoint   | 0x0117  |
| Data Size    | 9 bytes |
| Instructions | 3       |

```
      00 01 02 03 04 05 06 07  08 09 0A 0B 0C 0D 0E 0F
      -- -- -- -- -- -- -- --  -- -- -- -- -- -- -- --
0110:                      5E  69 64 6C 30 1C 01 80 00         ^idl0....
```

#### Opcodes

```
  0: 0x0117 [0x5E] EventEntity goes idle (kills current action) (animation: "idl0")
  1: 0x011C [0x1C] WAIT(30* ticks)
  2: 0x011F [0x00] END_REQSTACK()
```

### Event 65535.20

#### Metadata

| Field        | Value    |
|--------------|----------|
| Entrypoint   | 0x0120   |
| Data Size    | 16 bytes |
| Instructions | 2        |

```
      00 01 02 03 04 05 06 07  08 09 0A 0B 0C 0D 0E 0F
      -- -- -- -- -- -- -- --  -- -- -- -- -- -- -- --
0120: 66 03 80 F8 FF FF 7F F8  FF FF 7F 73 6C 74 30 00  f..........slt0.
```

#### Opcodes

```
  0: 0x0120 [0x66] LOAD_EXT_SCHEDULER_MAIN: Load scheduler "slt0" with entities [EventEntity, EventEntity], work=27*
  1: 0x012F [0x00] END_REQSTACK()
```

### Event 65535.21

#### Metadata

| Field        | Value    |
|--------------|----------|
| Entrypoint   | 0x0130   |
| Data Size    | 14 bytes |
| Instructions | 2        |

```
      00 01 02 03 04 05 06 07  08 09 0A 0B 0C 0D 0E 0F
      -- -- -- -- -- -- -- --  -- -- -- -- -- -- -- --
0130: 53 F8 FF FF 7F F8 FF FF  7F 73 6C 74 30 00        S........slt0.  
```

#### Opcodes

```
  0: 0x0130 [0x53] WAIT_SCHEDULER_TASK: Wait for scheduler "slt0" with entities [EventEntity, EventEntity]
  1: 0x013D [0x00] END_REQSTACK()
```

### Event 143

#### Metadata

| Field        | Value     |
|--------------|-----------|
| Entrypoint   | 0x013E    |
| Data Size    | 131 bytes |
| Instructions | 35        |

```
      00 01 02 03 04 05 06 07  08 09 0A 0B 0C 0D 0E 0F
      -- -- -- -- -- -- -- --  -- -- -- -- -- -- -- --
0130:                                            1E F0                ..
0140: FF FF 7F 6F 70 29 08 F0  FF FF 7F 03 02 02 10 04  ...op)..........
0150: 80 00 91 01 29 08 2E A0  0F 01 14 1D 05 80 23 29  ....).........#)
0160: 08 2E A0 0F 01 15 1D 06  80 23 29 08 2E A0 0F 01  .........#).....
0170: 01 1D 07 80 23 29 08 2E  A0 0F 01 02 29 08 2E A0  ....#)......)...
0180: 0F 01 14 1D 08 80 23 29  08 2E A0 0F 01 15 01 BD  ......#)........
0190: 01 29 08 2E A0 0F 01 14  1D 09 80 23 1D 0A 80 23  .).........#...#
01A0: 29 08 2E A0 0F 01 15 1D  0B 80 23 29 08 2E A0 0F  ).........#)....
01B0: 01 01 1D 0C 80 23 29 08  2E A0 0F 01 02 20 00 21  .....#)...... .!
01C0: 00                                                .               
```

#### Opcodes

```
  0: 0x013E [0x1E] EventEntity looks at LocalPlayer and starts talking
  1: 0x0143 [0x6F] WAIT_FRAME_DELAY: Yield until WaitTime reaches zero
  2: 0x0144 [0x70] WAIT_ENTITY_RENDER_FLAG: Wait while EventEntity->Render.Flags3 bit 2 is set (cancel turn if not)
  3: 0x0145 [0x29] REQ_SET_WAIT(priority=0x08, entity_id=LocalPlayer, tag_num=0x03)
  4: 0x014C [0x02] IF !(Work_Zone[2] == 0*) GOTO 0x0191
  5: 0x0154 [0x29] REQ_SET_WAIT(priority=0x08, entity_id=Magriffon (ID: 17801262/0x010FA02E), tag_num=0x14)
  6: 0x015B [0x1D] PRINT_EVENT_MESSAGE(message_id=10248*)
    → "Beautiful maiden! Never did I dream that such a vision of loveliness would bedazzle mine eye in this Goddess-forsaken land!"
  7: 0x015E [0x23] WAIT_FOR_DIALOG_INTERACTION
  8: 0x015F [0x29] REQ_SET_WAIT(priority=0x08, entity_id=Magriffon (ID: 17801262/0x010FA02E), tag_num=0x15)
  9: 0x0166 [0x1D] PRINT_EVENT_MESSAGE(message_id=10249*)
    → "Let me introduce myself. My name is Magriffon. I wish I could tell you more, but I'm here on a top-secret mission of national importance."
 10: 0x0169 [0x23] WAIT_FOR_DIALOG_INTERACTION
 11: 0x016A [0x29] REQ_SET_WAIT(priority=0x08, entity_id=Magriffon (ID: 17801262/0x010FA02E), tag_num=0x01)
 12: 0x0171 [0x1D] PRINT_EVENT_MESSAGE(message_id=10250*)
    → "However, I cannot ignore a lady in need of assistance. If you ever need anything in this uncivilized wilderness, I would be honored to lend you my hand."
 13: 0x0174 [0x23] WAIT_FOR_DIALOG_INTERACTION
 14: 0x0175 [0x29] REQ_SET_WAIT(priority=0x08, entity_id=Magriffon (ID: 17801262/0x010FA02E), tag_num=0x02)
 15: 0x017C [0x29] REQ_SET_WAIT(priority=0x08, entity_id=Magriffon (ID: 17801262/0x010FA02E), tag_num=0x14)
 16: 0x0183 [0x1D] PRINT_EVENT_MESSAGE(message_id=10251*)
    → "I would show no mercy to the beast that even pondered laying a finger on your beautiful skin."
 17: 0x0186 [0x23] WAIT_FOR_DIALOG_INTERACTION
 18: 0x0187 [0x29] REQ_SET_WAIT(priority=0x08, entity_id=Magriffon (ID: 17801262/0x010FA02E), tag_num=0x15)
 19: 0x018E [0x01] GOTO 0x01BD
 20: 0x0191 [0x29] REQ_SET_WAIT(priority=0x08, entity_id=Magriffon (ID: 17801262/0x010FA02E), tag_num=0x14)
 21: 0x0198 [0x1D] PRINT_EVENT_MESSAGE(message_id=10252*)
    → "Oh, why if it isn't a robust looking adventurer. I applaud you on what must have been a long journey to this uncivilized wilderness."
 22: 0x019B [0x23] WAIT_FOR_DIALOG_INTERACTION
 23: 0x019C [0x1D] PRINT_EVENT_MESSAGE(message_id=10253*)
    → "Let me introduce myself. My name is Magriffon. I have been stationed in Kazham for several years on a top-secret mission of national importance."
 24: 0x019F [0x23] WAIT_FOR_DIALOG_INTERACTION
 25: 0x01A0 [0x29] REQ_SET_WAIT(priority=0x08, entity_id=Magriffon (ID: 17801262/0x010FA02E), tag_num=0x15)
 26: 0x01A7 [0x1D] PRINT_EVENT_MESSAGE(message_id=10254*)
    → "During that time, I have come to know the island fairly well. If there is anything I can assist you with, do not hesitate to ask."
 27: 0x01AA [0x23] WAIT_FOR_DIALOG_INTERACTION
 28: 0x01AB [0x29] REQ_SET_WAIT(priority=0x08, entity_id=Magriffon (ID: 17801262/0x010FA02E), tag_num=0x01)
 29: 0x01B2 [0x1D] PRINT_EVENT_MESSAGE(message_id=10255*)
    → "Many dangers lurk behind the beauty of the jungle. Take care when traveling alone."
 30: 0x01B5 [0x23] WAIT_FOR_DIALOG_INTERACTION
 31: 0x01B6 [0x29] REQ_SET_WAIT(priority=0x08, entity_id=Magriffon (ID: 17801262/0x010FA02E), tag_num=0x02)

SUBROUTINE_01BD:
 32: 0x01BD [0x20] SET_CLI_EVENT_UC_FLAG: Unlock player control
 33: 0x01BF [0x21] END_EVENT
 34: 0x01C0 [0x00] END_REQSTACK()
```

### Event 65535.22

#### Metadata

| Field        | Value    |
|--------------|----------|
| Entrypoint   | 0x01C1   |
| Data Size    | 10 bytes |
| Instructions | 2        |

```
      00 01 02 03 04 05 06 07  08 09 0A 0B 0C 0D 0E 0F
      -- -- -- -- -- -- -- --  -- -- -- -- -- -- -- --
01C0:    37 0D 80 0E 80 0F 80  10 80 00                  7.........     
```

#### Opcodes

```
  0: 0x01C1 [0x37] UPDATE_EVENT_POSITION_AND_DIR: x=-19.163*, z=88.100*, y=1.662*, direction=278.9°*
  1: 0x01CA [0x00] END_REQSTACK()
```

### Event 65535.23

#### Metadata

| Field        | Value    |
|--------------|----------|
| Entrypoint   | 0x01CB   |
| Data Size    | 24 bytes |
| Instructions | 6        |

```
      00 01 02 03 04 05 06 07  08 09 0A 0B 0C 0D 0E 0F
      -- -- -- -- -- -- -- --  -- -- -- -- -- -- -- --
01C0:                                   32 11 80 1F 00             2....
01D0: 12 80 13 80 14 80 1F 01  1F 00 15 80 16 80 17 80  ................
01E0: 1F 01 00                                          ...             
```

#### Opcodes

```
  0: 0x01CB [0x32] ExtData[1]->MainSpeed = 13* * 0.1
  1: 0x01CE [0x1F] MOVE_ENTITY: EventEntity moves to X=-19.957*, Z=90.254*, Y=2.487*
  2: 0x01D6 [0x1F] MOVE_ENTITY: Update entity position (mode=1)
  3: 0x01D8 [0x1F] MOVE_ENTITY: EventEntity moves to X=-23.240*, Z=96.237*, Y=4.494*
  4: 0x01E0 [0x1F] MOVE_ENTITY: Update entity position (mode=1)
  5: 0x01E2 [0x00] END_REQSTACK()
```

### Event 144

#### Metadata

| Field        | Value      |
|--------------|------------|
| Entrypoint   | 0x01E3     |
| Data Size    | 1862 bytes |
| Instructions | 237        |

```
      00 01 02 03 04 05 06 07  08 09 0A 0B 0C 0D 0E 0F
      -- -- -- -- -- -- -- --  -- -- -- -- -- -- -- --
01E0:          20 01 42 46 01  1E F0 FF FF 7F 5D 04 80      .BF......]..
01F0: 18 80 45 18 80 F0 FF FF  7F F0 FF FF 7F 66 64 6F  ..E..........fdo
0200: 31 04 80 1C 18 80 75 00  19 80 75 01 4E 01 68 A0  1.....u...u.N.h.
0210: 0F 01 6F 70 38 1A 80 37  1B 80 1C 80 1D 80 1E 80  ..op8..7........
0220: 29 0B F0 FF FF 7F 0C 29  08 F0 FF FF 7F 03 29 08  )......)......).
0230: F0 FF FF 7F 05 4B 2E A0  0F 01 1F 80 6F 76 2E A0  .....K......ov..
0240: 0F 01 29 08 2E A0 0F 01  03 29 08 2E A0 0F 01 04  ..)......)......
0250: 79 00 F0 FF FF 7F 2E A0  0F 01 5C 00 20 80 5C 01  y.........\. .\.
0260: 20 80 5D 21 80 22 80 45  23 80 F0 FF FF 7F F0 FF   .]!.".E#.......
0270: FF 7F 73 30 33 30 04 80  45 18 80 F0 FF FF 7F F0  ..s030..E.......
0280: FF FF 7F 66 64 69 31 04  80 1C 18 80 1D 24 80 23  ...fdi1......$.#
0290: 52 23 80 F0 FF FF 7F F0  FF FF 7F 73 30 33 30 45  R#.........s030E
02A0: 18 80 F0 FF FF 7F F0 FF  FF 7F 6F 76 6C 31 04 80  ..........ovl1..
02B0: 45 23 80 F0 FF FF 7F F0  FF FF 7F 73 30 33 31 04  E#.........s031.
02C0: 80 1C 25 80 1D 26 80 23  52 23 80 F0 FF FF 7F F0  ..%..&.#R#......
02D0: FF FF 7F 73 30 33 31 45  18 80 F0 FF FF 7F F0 FF  ...s031E........
02E0: FF 7F 6F 76 6C 31 04 80  02 09 10 27 80 00 04 03  ..ovl1.....'....
02F0: 45 23 80 F0 FF FF 7F F0  FF FF 7F 73 30 34 32 04  E#.........s042.
0300: 80 01 31 03 02 09 10 28  80 00 20 03 45 23 80 F0  ..1....(.. .E#..
0310: FF FF 7F F0 FF FF 7F 73  30 34 32 04 80 01 31 03  .......s042...1.
0320: 45 23 80 F0 FF FF 7F F0  FF FF 7F 73 30 33 32 04  E#.........s032.
0330: 80 29 08 2E A0 0F 01 05  7C 00 F8 FF FF 7F 1D 29  .)......|......)
0340: 80 23 7C 01 F8 FF FF 7F  29 08 2E A0 0F 01 06 4A  .#|.....)......J
0350: 2E A0 0F 01 F0 FF FF 7F  6F 76 2E A0 0F 01 02 09  ........ov......
0360: 10 27 80 00 78 03 52 23  80 F0 FF FF 7F F0 FF FF  .'..x.R#........
0370: 7F 73 30 34 32 01 A1 03  02 09 10 28 80 00 92 03  .s042......(....
0380: 52 23 80 F0 FF FF 7F F0  FF FF 7F 73 30 34 32 01  R#.........s042.
0390: A1 03 52 23 80 F0 FF FF  7F F0 FF FF 7F 73 30 33  ..R#.........s03
03A0: 32 45 23 80 F0 FF FF 7F  F0 FF FF 7F 73 30 33 33  2E#.........s033
03B0: 04 80 02 02 10 04 80 00  31 04 29 08 2E A0 0F 01  ........1.).....
03C0: 14 29 0B 2E A0 0F 01 1A  29 08 2E A0 0F 01 15 52  .)......)......R
03D0: 23 80 F0 FF FF 7F F0 FF  FF 7F 73 30 33 33 02 09  #.........s033..
03E0: 10 27 80 00 FA 03 45 23  80 F0 FF FF 7F F0 FF FF  .'....E#........
03F0: 7F 73 30 34 33 04 80 01  27 04 02 09 10 28 80 00  .s043...'....(..
0400: 16 04 45 23 80 F0 FF FF  7F F0 FF FF 7F 73 30 34  ..E#.........s04
0410: 33 04 80 01 27 04 45 23  80 F0 FF FF 7F F0 FF FF  3...'.E#........
0420: 7F 73 30 33 34 04 80 29  0B 2E A0 0F 01 1B 01 A5  .s034..)........
0430: 04 29 08 2E A0 0F 01 14  29 0B 2E A0 0F 01 1D 29  .)......)......)
0440: 08 2E A0 0F 01 15 52 23  80 F0 FF FF 7F F0 FF FF  ......R#........
0450: 7F 73 30 33 33 02 09 10  27 80 00 71 04 45 23 80  .s033...'..q.E#.
0460: F0 FF FF 7F F0 FF FF 7F  73 30 34 33 04 80 01 9E  ........s043....
0470: 04 02 09 10 28 80 00 8D  04 45 23 80 F0 FF FF 7F  ....(....E#.....
0480: F0 FF FF 7F 73 30 34 33  04 80 01 9E 04 45 23 80  ....s043.....E#.
0490: F0 FF FF 7F F0 FF FF 7F  73 30 33 34 04 80 29 0B  ........s034..).
04A0: 2E A0 0F 01 1E 02 09 10  27 80 00 BF 04 52 23 80  ........'....R#.
04B0: F0 FF FF 7F F0 FF FF 7F  73 30 34 33 01 E8 04 02  ........s043....
04C0: 09 10 28 80 00 D9 04 52  23 80 F0 FF FF 7F F0 FF  ..(....R#.......
04D0: FF 7F 73 30 34 33 01 E8  04 52 23 80 F0 FF FF 7F  ..s043...R#.....
04E0: F0 FF FF 7F 73 30 33 34  24 2A 80 04 80 04 80 25  ....s034$*.....%
04F0: 02 00 10 04 80 00 00 05  03 01 10 22 80 01 50 05  ..........."..P.
0500: 02 00 10 22 80 00 50 05  03 01 10 2B 80 5D 04 80  ..."..P....+.]..
0510: 18 80 45 18 80 F0 FF FF  7F F0 FF FF 7F 66 64 6F  ..E..........fdo
0520: 31 04 80 1C 18 80 5C 00  2C 80 5C 01 2C 80 5D 21  1.....\.,.\.,.]!
0530: 80 22 80 46 00 1C 2D 80  45 18 80 F0 FF FF 7F F0  .".F..-.E.......
0540: FF FF 7F 66 64 69 31 04  80 20 00 21 00 01 50 05  ...fdi1.. .!..P.
0550: 45 23 80 F0 FF FF 7F F0  FF FF 7F 73 30 33 35 04  E#.........s035.
0560: 80 02 02 10 04 80 00 81  05 29 08 2E A0 0F 01 03  .........)......
0570: 29 0B 2E A0 0F 01 1C 29  08 2E A0 0F 01 04 01 96  )......)........
0580: 05 29 08 2E A0 0F 01 03  29 0B 2E A0 0F 01 1F 29  .)......)......)
0590: 08 2E A0 0F 01 04 52 23  80 F0 FF FF 7F F0 FF FF  ......R#........
05A0: 7F 73 30 33 35 45 18 80  F0 FF FF 7F F0 FF FF 7F  .s035E..........
05B0: 66 64 6F 31 04 80 1C 2D  80 4E 01 F0 FF FF 7F 34  fdo1...-.N.....4
05C0: 2E 80 77 2F 80 04 80 1C  30 80 4E 01 68 A0 0F 01  ..w/....0.N.h...
05D0: 29 0B 2E A0 0F 01 17 29  08 2E A0 0F 01 05 29 08  )......)......).
05E0: 2E A0 0F 01 06 27 0B 2E  A0 0F 01 18 27 08 32 A0  .....'......'.2.
05F0: 0F 01 03 27 0B 31 A0 0F  01 03 1C 30 80 2A 08 32  ...'.1.....0.*.2
0600: A0 0F 01 2A 0B 31 A0 0F  01 2A 0B 2E A0 0F 01 4B  ...*.1...*.....K
0610: 2E A0 0F 01 31 80 6F 76  2E A0 0F 01 55 23 80 F0  ....1.ov....U#..
0620: FF FF 7F F0 FF FF 7F 73  30 33 37 45 23 80 F0 FF  .......s037E#...
0630: FF 7F F0 FF FF 7F 73 30  33 38 04 80 29 0B 31 A0  ......s038..).1.
0640: 0F 01 04 52 23 80 F0 FF  FF 7F F0 FF FF 7F 73 30  ...R#.........s0
0650: 33 38 45 23 80 F0 FF FF  7F F0 FF FF 7F 73 30 33  38E#.........s03
0660: 39 04 80 79 00 2E A0 0F  01 2F A0 0F 01 27 0B 2F  9..y...../...'./
0670: A0 0F 01 04 27 0B 30 A0  0F 01 05 27 0B 31 A0 0F  ....'.0....'.1..
0680: 01 02 27 0B 32 A0 0F 01  02 27 0B 33 A0 0F 01 04  ..'.2....'.3....
0690: 29 0B 2E A0 0F 01 21 4A  2E A0 0F 01 33 A0 0F 01  ).....!J....3...
06A0: 52 23 80 F0 FF FF 7F F0  FF FF 7F 73 30 33 39 45  R#.........s039E
06B0: 18 80 F0 FF FF 7F F0 FF  FF 7F 6F 76 6C 31 04 80  ..........ovl1..
06C0: 45 23 80 F0 FF FF 7F F0  FF FF 7F 73 30 34 30 04  E#.........s040.
06D0: 80 29 08 2E A0 0F 01 14  29 08 2E A0 0F 01 15 2A  .)......)......*
06E0: 0B 30 A0 0F 01 27 08 30  A0 0F 01 03 29 0B 2E A0  .0...'.0....)...
06F0: 0F 01 22 2A 08 30 A0 0F  01 45 18 80 F0 FF FF 7F  .."*.0...E......
0700: F0 FF FF 7F 66 64 6F 31  04 80 1C 2D 80 52 23 80  ....fdo1...-.R#.
0710: F0 FF FF 7F F0 FF FF 7F  73 30 34 30 45 23 80 F0  ........s040E#..
0720: FF FF 7F F0 FF FF 7F 73  30 34 31 04 80 45 18 80  .......s041..E..
0730: F0 FF FF 7F F0 FF FF 7F  66 64 69 31 04 80 27 08  ........fdi1..'.
0740: 31 A0 0F 01 05 1C 32 80  45 18 80 F0 FF FF 7F F0  1.....2.E.......
0750: FF FF 7F 66 64 6F 31 04  80 1C 2D 80 2A 08 31 A0  ...fdo1...-.*.1.
0760: 0F 01 29 0B 2E A0 0F 01  24 35 32 80 78 1C 30 80  ..).....$52.x.0.
0770: 75 00 19 80 75 01 37 1B  80 1C 80 1D 80 1E 80 29  u...u.7........)
0780: 0B F0 FF FF 7F 0C 4A 2E  A0 0F 01 F0 FF FF 7F 6F  ......J........o
0790: 76 2E A0 0F 01 4E 00 F0  FF FF 7F 80 F0 FF FF 7F  v....N..........
07A0: 4E 00 2E A0 0F 01 80 2E  A0 0F 01 02 09 10 27 80  N.............'.
07B0: 00 C7 07 45 23 80 F0 FF  FF 7F F0 FF FF 7F 73 30  ...E#.........s0
07C0: 34 33 04 80 01 F4 07 02  09 10 28 80 00 E3 07 45  43........(....E
07D0: 23 80 F0 FF FF 7F F0 FF  FF 7F 73 30 34 33 04 80  #.........s043..
07E0: 01 F4 07 45 23 80 F0 FF  FF 7F F0 FF FF 7F 73 30  ...E#.........s0
07F0: 33 34 04 80 79 00 F0 FF  FF 7F 2E A0 0F 01 45 18  34..y.........E.
0800: 80 F0 FF FF 7F F0 FF FF  7F 66 64 69 31 04 80 02  .........fdi1...
0810: 02 10 04 80 00 21 08 29  0B 2E A0 0F 01 25 01 28  .....!.).....%.(
0820: 08 29 0B 2E A0 0F 01 26  02 09 10 27 80 00 42 08  .).....&...'..B.
0830: 52 23 80 F0 FF FF 7F F0  FF FF 7F 73 30 34 33 01  R#.........s043.
0840: 6B 08 02 09 10 28 80 00  5C 08 52 23 80 F0 FF FF  k....(..\.R#....
0850: 7F F0 FF FF 7F 73 30 34  33 01 6B 08 52 23 80 F0  .....s043.k.R#..
0860: FF FF 7F F0 FF FF 7F 73  30 33 34 45 23 80 F0 FF  .......s034E#...
0870: FF 7F F0 FF FF 7F 73 30  33 33 04 80 29 08 2E A0  ......s033..)...
0880: 0F 01 11 29 0B 2E A0 0F  01 27 29 08 2E A0 0F 01  ...).....').....
0890: 12 52 23 80 F0 FF FF 7F  F0 FF FF 7F 73 30 33 33  .R#.........s033
08A0: 45 23 80 F0 FF FF 7F F0  FF FF 7F 73 30 33 35 04  E#.........s035.
08B0: 80 29 08 2E A0 0F 01 03  29 0B 2E A0 0F 01 28 29  .)......).....()
08C0: 08 2E A0 0F 01 04 5D 04  80 18 80 45 18 80 F0 FF  ......]....E....
08D0: FF 7F F0 FF FF 7F 66 64  6F 31 04 80 1C 18 80 4E  ......fdo1.....N
08E0: 00 68 A0 0F 01 29 08 2E  A0 0F 01 05 29 08 2E A0  .h...)......)...
08F0: 0F 01 06 52 23 80 F0 FF  FF 7F F0 FF FF 7F 73 30  ...R#.........s0
0900: 33 35 46 00 5C 00 2C 80  5C 01 2C 80 5D 21 80 22  35F.\.,.\.,.]!."
0910: 80 1C 18 80 45 18 80 F0  FF FF 7F F0 FF FF 7F 66  ....E..........f
0920: 64 69 31 04 80 20 00 21  00                       di1.. .!.       
```

#### Opcodes

```
  0: 0x01E3 [0x20] SET_CLI_EVENT_UC_FLAG: Lock player control
  1: 0x01E5 [0x42] SET_CLI_EVENT_CANCEL_DATA()
  2: 0x01E6 [0x46] CAMERA_CONTROL: Disable user control
  3: 0x01E8 [0x1E] EventEntity looks at LocalPlayer and starts talking
  4: 0x01ED [0x5D] SET_MUSIC_VOLUME(volume=0*, fade_time=200*)
  5: 0x01F2 [0x45] LOAD_SCHEDULED_TASK: Load scheduler "fdo1" with entities [LocalPlayer, LocalPlayer], work=[200*, 0*]
  6: 0x0203 [0x1C] WAIT(200* ticks)
  7: 0x0206 [0x75] LOAD_ROOM(Load indoor room, room=505*)
  8: 0x020A [0x75] LOAD_ROOM(No action)
  9: 0x020C [0x4E] SET_ENTITY_HIDE_FLAG: Hide Unnamed NPC (ID: 17801320/0x010FA068)
 10: 0x0212 [0x6F] WAIT_FRAME_DELAY: Yield until WaitTime reaches zero
 11: 0x0213 [0x70] WAIT_ENTITY_RENDER_FLAG: Wait while EventEntity->Render.Flags3 bit 2 is set (cancel turn if not)
 12: 0x0214 [0x38] SET_CLIENT_EVENT_MODE(mode=2051*)
 13: 0x0217 [0x37] UPDATE_EVENT_POSITION_AND_DIR: x=61.000*, z=-34.397*, y=-12.000*, direction=131.0°*
 14: 0x0220 [0x29] REQ_SET_WAIT(priority=0x0B, entity_id=LocalPlayer, tag_num=0x0C)
 15: 0x0227 [0x29] REQ_SET_WAIT(priority=0x08, entity_id=LocalPlayer, tag_num=0x03)
 16: 0x022E [0x29] REQ_SET_WAIT(priority=0x08, entity_id=LocalPlayer, tag_num=0x05)
 17: 0x0235 [0x4B] UPDATE_ENTITY_YAW(entity=Magriffon (ID: 17801262/0x010FA02E), yaw=16.7°*)
 18: 0x023C [0x6F] WAIT_FRAME_DELAY: Yield until WaitTime reaches zero
 19: 0x023D [0x76] CHECK_ENTITY_RENDER_FLAGS: Wait until Magriffon (ID: 17801262/0x010FA02E) Render.Flags0 and Render.Flags3 conditions are met
 20: 0x0242 [0x29] REQ_SET_WAIT(priority=0x08, entity_id=Magriffon (ID: 17801262/0x010FA02E), tag_num=0x03)
 21: 0x0249 [0x29] REQ_SET_WAIT(priority=0x08, entity_id=Magriffon (ID: 17801262/0x010FA02E), tag_num=0x04)
 22: 0x0250 [0x79] LocalPlayer looks at Magriffon (ID: 17801262/0x010FA02E) (Basic look)
 23: 0x025A [0x5C] MUSIC_CONTROL: Set Idle (Day) music to song 104*
 24: 0x025E [0x5C] MUSIC_CONTROL: Set Idle (Night) music to song 104*
 25: 0x0262 [0x5D] SET_MUSIC_VOLUME(volume=127*, fade_time=1*)
 26: 0x0267 [0x45] LOAD_SCHEDULED_TASK: Load scheduler "s030" with entities [LocalPlayer, LocalPlayer], work=[150*, 0*]
 27: 0x0278 [0x45] LOAD_SCHEDULED_TASK: Load scheduler "fdi1" with entities [LocalPlayer, LocalPlayer], work=[200*, 0*]
 28: 0x0289 [0x1C] WAIT(200* ticks)
 29: 0x028C [0x1D] PRINT_EVENT_MESSAGE(message_id=10256*)
    → "<Sigh>"
 30: 0x028F [0x23] WAIT_FOR_DIALOG_INTERACTION
 31: 0x0290 [0x52] END_LOAD_SCHEDULER: End scheduler "s030" with entities [LocalPlayer, LocalPlayer], work=150*
 32: 0x029F [0x45] LOAD_SCHEDULED_TASK: Load scheduler "ovl1" with entities [LocalPlayer, LocalPlayer], work=[200*, 0*]
 33: 0x02B0 [0x45] LOAD_SCHEDULED_TASK: Load scheduler "s031" with entities [LocalPlayer, LocalPlayer], work=[150*, 0*]
 34: 0x02C1 [0x1C] WAIT(120* ticks)
 35: 0x02C4 [0x1D] PRINT_EVENT_MESSAGE(message_id=10257*)
    → "<Si`gh>"
 36: 0x02C7 [0x23] WAIT_FOR_DIALOG_INTERACTION
 37: 0x02C8 [0x52] END_LOAD_SCHEDULER: End scheduler "s031" with entities [LocalPlayer, LocalPlayer], work=150*
 38: 0x02D7 [0x45] LOAD_SCHEDULED_TASK: Load scheduler "ovl1" with entities [LocalPlayer, LocalPlayer], work=[200*, 0*]
 39: 0x02E8 [0x02] IF !(Work_Zone[9] == 5*) GOTO 0x0304
 40: 0x02F0 [0x45] LOAD_SCHEDULED_TASK: Load scheduler "s042" with entities [LocalPlayer, LocalPlayer], work=[150*, 0*]
 41: 0x0301 [0x01] GOTO 0x0331
 42: 0x0304 [0x02] IF !(Work_Zone[9] == 6*) GOTO 0x0320
 43: 0x030C [0x45] LOAD_SCHEDULED_TASK: Load scheduler "s042" with entities [LocalPlayer, LocalPlayer], work=[150*, 0*]
 44: 0x031D [0x01] GOTO 0x0331
 45: 0x0320 [0x45] LOAD_SCHEDULED_TASK: Load scheduler "s032" with entities [LocalPlayer, LocalPlayer], work=[150*, 0*]

SUBROUTINE_0331:
 46: 0x0331 [0x29] REQ_SET_WAIT(priority=0x08, entity_id=Magriffon (ID: 17801262/0x010FA02E), tag_num=0x05)
 47: 0x0338 [0x7C] EventEntity->Render.Flags2 |= 0x00
 48: 0x033E [0x1D] PRINT_EVENT_MESSAGE(message_id=10258*)
    → "..."
 49: 0x0341 [0x23] WAIT_FOR_DIALOG_INTERACTION
 50: 0x0342 [0x7C] EventEntity->Render.Flags2 |= 0x01
 51: 0x0348 [0x29] REQ_SET_WAIT(priority=0x08, entity_id=Magriffon (ID: 17801262/0x010FA02E), tag_num=0x06)
 52: 0x034F [0x4A] Magriffon (ID: 17801262/0x010FA02E) looks at LocalPlayer
 53: 0x0358 [0x6F] WAIT_FRAME_DELAY: Yield until WaitTime reaches zero
 54: 0x0359 [0x76] CHECK_ENTITY_RENDER_FLAGS: Wait until Magriffon (ID: 17801262/0x010FA02E) Render.Flags0 and Render.Flags3 conditions are met
 55: 0x035E [0x02] IF !(Work_Zone[9] == 5*) GOTO 0x0378
 56: 0x0366 [0x52] END_LOAD_SCHEDULER: End scheduler "s042" with entities [LocalPlayer, LocalPlayer], work=150*
 57: 0x0375 [0x01] GOTO 0x03A1
 58: 0x0378 [0x02] IF !(Work_Zone[9] == 6*) GOTO 0x0392
 59: 0x0380 [0x52] END_LOAD_SCHEDULER: End scheduler "s042" with entities [LocalPlayer, LocalPlayer], work=150*
 60: 0x038F [0x01] GOTO 0x03A1
 61: 0x0392 [0x52] END_LOAD_SCHEDULER: End scheduler "s032" with entities [LocalPlayer, LocalPlayer], work=150*

SUBROUTINE_03A1:
 62: 0x03A1 [0x45] LOAD_SCHEDULED_TASK: Load scheduler "s033" with entities [LocalPlayer, LocalPlayer], work=[150*, 0*]
 63: 0x03B2 [0x02] IF !(Work_Zone[2] == 0*) GOTO 0x0431
 64: 0x03BA [0x29] REQ_SET_WAIT(priority=0x08, entity_id=Magriffon (ID: 17801262/0x010FA02E), tag_num=0x14)
 65: 0x03C1 [0x29] REQ_SET_WAIT(priority=0x0B, entity_id=Magriffon (ID: 17801262/0x010FA02E), tag_num=0x1A)
 66: 0x03C8 [0x29] REQ_SET_WAIT(priority=0x08, entity_id=Magriffon (ID: 17801262/0x010FA02E), tag_num=0x15)
 67: 0x03CF [0x52] END_LOAD_SCHEDULER: End scheduler "s033" with entities [LocalPlayer, LocalPlayer], work=150*
 68: 0x03DE [0x02] IF !(Work_Zone[9] == 5*) GOTO 0x03FA
 69: 0x03E6 [0x45] LOAD_SCHEDULED_TASK: Load scheduler "s043" with entities [LocalPlayer, LocalPlayer], work=[150*, 0*]
 70: 0x03F7 [0x01] GOTO 0x0427
 71: 0x03FA [0x02] IF !(Work_Zone[9] == 6*) GOTO 0x0416
 72: 0x0402 [0x45] LOAD_SCHEDULED_TASK: Load scheduler "s043" with entities [LocalPlayer, LocalPlayer], work=[150*, 0*]
 73: 0x0413 [0x01] GOTO 0x0427
 74: 0x0416 [0x45] LOAD_SCHEDULED_TASK: Load scheduler "s034" with entities [LocalPlayer, LocalPlayer], work=[150*, 0*]

SUBROUTINE_0427:
 75: 0x0427 [0x29] REQ_SET_WAIT(priority=0x0B, entity_id=Magriffon (ID: 17801262/0x010FA02E), tag_num=0x1B)
 76: 0x042E [0x01] GOTO 0x04A5
 77: 0x0431 [0x29] REQ_SET_WAIT(priority=0x08, entity_id=Magriffon (ID: 17801262/0x010FA02E), tag_num=0x14)
 78: 0x0438 [0x29] REQ_SET_WAIT(priority=0x0B, entity_id=Magriffon (ID: 17801262/0x010FA02E), tag_num=0x1D)
 79: 0x043F [0x29] REQ_SET_WAIT(priority=0x08, entity_id=Magriffon (ID: 17801262/0x010FA02E), tag_num=0x15)
 80: 0x0446 [0x52] END_LOAD_SCHEDULER: End scheduler "s033" with entities [LocalPlayer, LocalPlayer], work=150*
 81: 0x0455 [0x02] IF !(Work_Zone[9] == 5*) GOTO 0x0471
 82: 0x045D [0x45] LOAD_SCHEDULED_TASK: Load scheduler "s043" with entities [LocalPlayer, LocalPlayer], work=[150*, 0*]
 83: 0x046E [0x01] GOTO 0x049E
 84: 0x0471 [0x02] IF !(Work_Zone[9] == 6*) GOTO 0x048D
 85: 0x0479 [0x45] LOAD_SCHEDULED_TASK: Load scheduler "s043" with entities [LocalPlayer, LocalPlayer], work=[150*, 0*]
 86: 0x048A [0x01] GOTO 0x049E
 87: 0x048D [0x45] LOAD_SCHEDULED_TASK: Load scheduler "s034" with entities [LocalPlayer, LocalPlayer], work=[150*, 0*]

SUBROUTINE_049E:
 88: 0x049E [0x29] REQ_SET_WAIT(priority=0x0B, entity_id=Magriffon (ID: 17801262/0x010FA02E), tag_num=0x1E)

SUBROUTINE_04A5:
 89: 0x04A5 [0x02] IF !(Work_Zone[9] == 5*) GOTO 0x04BF
 90: 0x04AD [0x52] END_LOAD_SCHEDULER: End scheduler "s043" with entities [LocalPlayer, LocalPlayer], work=150*
 91: 0x04BC [0x01] GOTO 0x04E8
 92: 0x04BF [0x02] IF !(Work_Zone[9] == 6*) GOTO 0x04D9
 93: 0x04C7 [0x52] END_LOAD_SCHEDULER: End scheduler "s043" with entities [LocalPlayer, LocalPlayer], work=150*
 94: 0x04D6 [0x01] GOTO 0x04E8
 95: 0x04D9 [0x52] END_LOAD_SCHEDULER: End scheduler "s034" with entities [LocalPlayer, LocalPlayer], work=150*

SUBROUTINE_04E8:
 96: 0x04E8 [0x24] CREATE_DIALOG(message_id=10265*, default_option=0*, option_flags=0*)
    → "Lend Magriffon your ear? [Of course! What a gentleman!/Something's fishy...]"
 97: 0x04EF [0x25] WAIT_DIALOG_SELECT()
 98: 0x04F0 [0x02] IF !(Work_Zone[0] == 0*) GOTO 0x0500
 99: 0x04F8 [0x03] Work_Zone[1] = 1*
100: 0x04FD [0x01] GOTO 0x0550
101: 0x0500 [0x02] IF !(Work_Zone[0] == 1*) GOTO 0x0550
102: 0x0508 [0x03] Work_Zone[1] = 2*
103: 0x050D [0x5D] SET_MUSIC_VOLUME(volume=0*, fade_time=200*)
104: 0x0512 [0x45] LOAD_SCHEDULED_TASK: Load scheduler "fdo1" with entities [LocalPlayer, LocalPlayer], work=[200*, 0*]
105: 0x0523 [0x1C] WAIT(200* ticks)
106: 0x0526 [0x5C] MUSIC_CONTROL: Set Idle (Day) music to song 135*
107: 0x052A [0x5C] MUSIC_CONTROL: Set Idle (Night) music to song 135*
108: 0x052E [0x5D] SET_MUSIC_VOLUME(volume=127*, fade_time=1*)
109: 0x0533 [0x46] CAMERA_CONTROL: Restore default settings
110: 0x0535 [0x1C] WAIT(60* ticks)
111: 0x0538 [0x45] LOAD_SCHEDULED_TASK: Load scheduler "fdi1" with entities [LocalPlayer, LocalPlayer], work=[200*, 0*]
112: 0x0549 [0x20] SET_CLI_EVENT_UC_FLAG: Unlock player control
113: 0x054B [0x21] END_EVENT
114: 0x054C [0x00] END_REQSTACK()

SUBROUTINE_0550:
115: 0x0550 [0x45] LOAD_SCHEDULED_TASK: Load scheduler "s035" with entities [LocalPlayer, LocalPlayer], work=[150*, 0*]
116: 0x0561 [0x02] IF !(Work_Zone[2] == 0*) GOTO 0x0581
117: 0x0569 [0x29] REQ_SET_WAIT(priority=0x08, entity_id=Magriffon (ID: 17801262/0x010FA02E), tag_num=0x03)
118: 0x0570 [0x29] REQ_SET_WAIT(priority=0x0B, entity_id=Magriffon (ID: 17801262/0x010FA02E), tag_num=0x1C)
119: 0x0577 [0x29] REQ_SET_WAIT(priority=0x08, entity_id=Magriffon (ID: 17801262/0x010FA02E), tag_num=0x04)
120: 0x057E [0x01] GOTO 0x0596
121: 0x0581 [0x29] REQ_SET_WAIT(priority=0x08, entity_id=Magriffon (ID: 17801262/0x010FA02E), tag_num=0x03)
122: 0x0588 [0x29] REQ_SET_WAIT(priority=0x0B, entity_id=Magriffon (ID: 17801262/0x010FA02E), tag_num=0x1F)
123: 0x058F [0x29] REQ_SET_WAIT(priority=0x08, entity_id=Magriffon (ID: 17801262/0x010FA02E), tag_num=0x04)

SUBROUTINE_0596:
124: 0x0596 [0x52] END_LOAD_SCHEDULER: End scheduler "s035" with entities [LocalPlayer, LocalPlayer], work=150*
125: 0x05A5 [0x45] LOAD_SCHEDULED_TASK: Load scheduler "fdo1" with entities [LocalPlayer, LocalPlayer], work=[200*, 0*]
126: 0x05B6 [0x1C] WAIT(60* ticks)
127: 0x05B9 [0x4E] SET_ENTITY_HIDE_FLAG: Hide LocalPlayer
128: 0x05BF [0x34] LOAD_UNLOAD_ZONE(zone_id=123*)
129: 0x05C2 [0x77] SET_EVENT_TIME_WEATHER(hour=12*, weather=0*)
130: 0x05C7 [0x1C] WAIT(100* ticks)
131: 0x05CA [0x4E] SET_ENTITY_HIDE_FLAG: Hide Unnamed NPC (ID: 17801320/0x010FA068)
132: 0x05D0 [0x29] REQ_SET_WAIT(priority=0x0B, entity_id=Magriffon (ID: 17801262/0x010FA02E), tag_num=0x17)
133: 0x05D7 [0x29] REQ_SET_WAIT(priority=0x08, entity_id=Magriffon (ID: 17801262/0x010FA02E), tag_num=0x05)
134: 0x05DE [0x29] REQ_SET_WAIT(priority=0x08, entity_id=Magriffon (ID: 17801262/0x010FA02E), tag_num=0x06)
135: 0x05E5 [0x27] REQ_SET(priority=0x0B, entity_id=Magriffon (ID: 17801262/0x010FA02E), tag_num=0x18)
136: 0x05EC [0x27] REQ_SET(priority=0x08, entity_id=4 (ID: 17801266/0x010FA032), tag_num=0x03)
137: 0x05F3 [0x27] REQ_SET(priority=0x0B, entity_id=3 (ID: 17801265/0x010FA031), tag_num=0x03)
138: 0x05FA [0x1C] WAIT(100* ticks)
139: 0x05FD [0x2A] GET_REQ_LEVEL(level=8, entity_id=4 (ID: 17801266/0x010FA032))
140: 0x0603 [0x2A] GET_REQ_LEVEL(level=11, entity_id=3 (ID: 17801265/0x010FA031))
141: 0x0609 [0x2A] GET_REQ_LEVEL(level=11, entity_id=Magriffon (ID: 17801262/0x010FA02E))
142: 0x060F [0x4B] UPDATE_ENTITY_YAW(entity=Magriffon (ID: 17801262/0x010FA02E), yaw=1.9°*)
143: 0x0616 [0x6F] WAIT_FRAME_DELAY: Yield until WaitTime reaches zero
144: 0x0617 [0x76] CHECK_ENTITY_RENDER_FLAGS: Wait until Magriffon (ID: 17801262/0x010FA02E) Render.Flags0 and Render.Flags3 conditions are met
145: 0x061C [0x55] WAIT_LOAD_SCHEDULER: Wait for scheduler "s037" with entities [LocalPlayer, LocalPlayer], work=150*
146: 0x062B [0x45] LOAD_SCHEDULED_TASK: Load scheduler "s038" with entities [LocalPlayer, LocalPlayer], work=[150*, 0*]
147: 0x063C [0x29] REQ_SET_WAIT(priority=0x0B, entity_id=3 (ID: 17801265/0x010FA031), tag_num=0x04)
148: 0x0643 [0x52] END_LOAD_SCHEDULER: End scheduler "s038" with entities [LocalPlayer, LocalPlayer], work=150*
149: 0x0652 [0x45] LOAD_SCHEDULED_TASK: Load scheduler "s039" with entities [LocalPlayer, LocalPlayer], work=[150*, 0*]
150: 0x0663 [0x79] Magriffon (ID: 17801262/0x010FA02E) looks at 1 (ID: 17801263/0x010FA02F) (Basic look)
151: 0x066D [0x27] REQ_SET(priority=0x0B, entity_id=1 (ID: 17801263/0x010FA02F), tag_num=0x04)
152: 0x0674 [0x27] REQ_SET(priority=0x0B, entity_id=2 (ID: 17801264/0x010FA030), tag_num=0x05)
153: 0x067B [0x27] REQ_SET(priority=0x0B, entity_id=3 (ID: 17801265/0x010FA031), tag_num=0x02)
154: 0x0682 [0x27] REQ_SET(priority=0x0B, entity_id=4 (ID: 17801266/0x010FA032), tag_num=0x02)
155: 0x0689 [0x27] REQ_SET(priority=0x0B, entity_id=5 (ID: 17801267/0x010FA033), tag_num=0x04)
156: 0x0690 [0x29] REQ_SET_WAIT(priority=0x0B, entity_id=Magriffon (ID: 17801262/0x010FA02E), tag_num=0x21)
157: 0x0697 [0x4A] Magriffon (ID: 17801262/0x010FA02E) looks at 5 (ID: 17801267/0x010FA033)
158: 0x06A0 [0x52] END_LOAD_SCHEDULER: End scheduler "s039" with entities [LocalPlayer, LocalPlayer], work=150*
159: 0x06AF [0x45] LOAD_SCHEDULED_TASK: Load scheduler "ovl1" with entities [LocalPlayer, LocalPlayer], work=[200*, 0*]
160: 0x06C0 [0x45] LOAD_SCHEDULED_TASK: Load scheduler "s040" with entities [LocalPlayer, LocalPlayer], work=[150*, 0*]
161: 0x06D1 [0x29] REQ_SET_WAIT(priority=0x08, entity_id=Magriffon (ID: 17801262/0x010FA02E), tag_num=0x14)
162: 0x06D8 [0x29] REQ_SET_WAIT(priority=0x08, entity_id=Magriffon (ID: 17801262/0x010FA02E), tag_num=0x15)
163: 0x06DF [0x2A] GET_REQ_LEVEL(level=11, entity_id=2 (ID: 17801264/0x010FA030))
164: 0x06E5 [0x27] REQ_SET(priority=0x08, entity_id=2 (ID: 17801264/0x010FA030), tag_num=0x03)
165: 0x06EC [0x29] REQ_SET_WAIT(priority=0x0B, entity_id=Magriffon (ID: 17801262/0x010FA02E), tag_num=0x22)
166: 0x06F3 [0x2A] GET_REQ_LEVEL(level=8, entity_id=2 (ID: 17801264/0x010FA030))
167: 0x06F9 [0x45] LOAD_SCHEDULED_TASK: Load scheduler "fdo1" with entities [LocalPlayer, LocalPlayer], work=[200*, 0*]
168: 0x070A [0x1C] WAIT(60* ticks)
169: 0x070D [0x52] END_LOAD_SCHEDULER: End scheduler "s040" with entities [LocalPlayer, LocalPlayer], work=150*
170: 0x071C [0x45] LOAD_SCHEDULED_TASK: Load scheduler "s041" with entities [LocalPlayer, LocalPlayer], work=[150*, 0*]
171: 0x072D [0x45] LOAD_SCHEDULED_TASK: Load scheduler "fdi1" with entities [LocalPlayer, LocalPlayer], work=[200*, 0*]
172: 0x073E [0x27] REQ_SET(priority=0x08, entity_id=3 (ID: 17801265/0x010FA031), tag_num=0x05)
173: 0x0745 [0x1C] WAIT(250* ticks)
174: 0x0748 [0x45] LOAD_SCHEDULED_TASK: Load scheduler "fdo1" with entities [LocalPlayer, LocalPlayer], work=[200*, 0*]
175: 0x0759 [0x1C] WAIT(60* ticks)
176: 0x075C [0x2A] GET_REQ_LEVEL(level=8, entity_id=3 (ID: 17801265/0x010FA031))
177: 0x0762 [0x29] REQ_SET_WAIT(priority=0x0B, entity_id=Magriffon (ID: 17801262/0x010FA02E), tag_num=0x24)
178: 0x0769 [0x35] LOAD_ZONE_NO_CLOSE(zone_id=250*)
179: 0x076C [0x78] ENABLE_GAME_TIMER_RESET_WEATHER()
180: 0x076D [0x1C] WAIT(100* ticks)
181: 0x0770 [0x75] LOAD_ROOM(Load indoor room, room=505*)
182: 0x0774 [0x75] LOAD_ROOM(No action)
183: 0x0776 [0x37] UPDATE_EVENT_POSITION_AND_DIR: x=61.000*, z=-34.397*, y=-12.000*, direction=131.0°*
184: 0x077F [0x29] REQ_SET_WAIT(priority=0x0B, entity_id=LocalPlayer, tag_num=0x0C)
185: 0x0786 [0x4A] Magriffon (ID: 17801262/0x010FA02E) looks at LocalPlayer
186: 0x078F [0x6F] WAIT_FRAME_DELAY: Yield until WaitTime reaches zero
187: 0x0790 [0x76] CHECK_ENTITY_RENDER_FLAGS: Wait until Magriffon (ID: 17801262/0x010FA02E) Render.Flags0 and Render.Flags3 conditions are met
188: 0x0795 [0x4E] SET_ENTITY_HIDE_FLAG: Show LocalPlayer
189: 0x079B [0x80] LOAD_WAIT(entity=LocalPlayer)
190: 0x07A0 [0x4E] SET_ENTITY_HIDE_FLAG: Show Magriffon (ID: 17801262/0x010FA02E)
191: 0x07A6 [0x80] LOAD_WAIT(entity=Magriffon (ID: 17801262/0x010FA02E))
192: 0x07AB [0x02] IF !(Work_Zone[9] == 5*) GOTO 0x07C7
193: 0x07B3 [0x45] LOAD_SCHEDULED_TASK: Load scheduler "s043" with entities [LocalPlayer, LocalPlayer], work=[150*, 0*]
194: 0x07C4 [0x01] GOTO 0x07F4
195: 0x07C7 [0x02] IF !(Work_Zone[9] == 6*) GOTO 0x07E3
196: 0x07CF [0x45] LOAD_SCHEDULED_TASK: Load scheduler "s043" with entities [LocalPlayer, LocalPlayer], work=[150*, 0*]
197: 0x07E0 [0x01] GOTO 0x07F4
198: 0x07E3 [0x45] LOAD_SCHEDULED_TASK: Load scheduler "s034" with entities [LocalPlayer, LocalPlayer], work=[150*, 0*]

SUBROUTINE_07F4:
199: 0x07F4 [0x79] LocalPlayer looks at Magriffon (ID: 17801262/0x010FA02E) (Basic look)
200: 0x07FE [0x45] LOAD_SCHEDULED_TASK: Load scheduler "fdi1" with entities [LocalPlayer, LocalPlayer], work=[200*, 0*]
201: 0x080F [0x02] IF !(Work_Zone[2] == 0*) GOTO 0x0821
202: 0x0817 [0x29] REQ_SET_WAIT(priority=0x0B, entity_id=Magriffon (ID: 17801262/0x010FA02E), tag_num=0x25)
203: 0x081E [0x01] GOTO 0x0828
204: 0x0821 [0x29] REQ_SET_WAIT(priority=0x0B, entity_id=Magriffon (ID: 17801262/0x010FA02E), tag_num=0x26)

SUBROUTINE_0828:
205: 0x0828 [0x02] IF !(Work_Zone[9] == 5*) GOTO 0x0842
206: 0x0830 [0x52] END_LOAD_SCHEDULER: End scheduler "s043" with entities [LocalPlayer, LocalPlayer], work=150*
207: 0x083F [0x01] GOTO 0x086B
208: 0x0842 [0x02] IF !(Work_Zone[9] == 6*) GOTO 0x085C
209: 0x084A [0x52] END_LOAD_SCHEDULER: End scheduler "s043" with entities [LocalPlayer, LocalPlayer], work=150*
210: 0x0859 [0x01] GOTO 0x086B
211: 0x085C [0x52] END_LOAD_SCHEDULER: End scheduler "s034" with entities [LocalPlayer, LocalPlayer], work=150*

SUBROUTINE_086B:
212: 0x086B [0x45] LOAD_SCHEDULED_TASK: Load scheduler "s033" with entities [LocalPlayer, LocalPlayer], work=[150*, 0*]
213: 0x087C [0x29] REQ_SET_WAIT(priority=0x08, entity_id=Magriffon (ID: 17801262/0x010FA02E), tag_num=0x11)
214: 0x0883 [0x29] REQ_SET_WAIT(priority=0x0B, entity_id=Magriffon (ID: 17801262/0x010FA02E), tag_num=0x27)
215: 0x088A [0x29] REQ_SET_WAIT(priority=0x08, entity_id=Magriffon (ID: 17801262/0x010FA02E), tag_num=0x12)
216: 0x0891 [0x52] END_LOAD_SCHEDULER: End scheduler "s033" with entities [LocalPlayer, LocalPlayer], work=150*
217: 0x08A0 [0x45] LOAD_SCHEDULED_TASK: Load scheduler "s035" with entities [LocalPlayer, LocalPlayer], work=[150*, 0*]
218: 0x08B1 [0x29] REQ_SET_WAIT(priority=0x08, entity_id=Magriffon (ID: 17801262/0x010FA02E), tag_num=0x03)
219: 0x08B8 [0x29] REQ_SET_WAIT(priority=0x0B, entity_id=Magriffon (ID: 17801262/0x010FA02E), tag_num=0x28)
220: 0x08BF [0x29] REQ_SET_WAIT(priority=0x08, entity_id=Magriffon (ID: 17801262/0x010FA02E), tag_num=0x04)
221: 0x08C6 [0x5D] SET_MUSIC_VOLUME(volume=0*, fade_time=200*)
222: 0x08CB [0x45] LOAD_SCHEDULED_TASK: Load scheduler "fdo1" with entities [LocalPlayer, LocalPlayer], work=[200*, 0*]
223: 0x08DC [0x1C] WAIT(200* ticks)
224: 0x08DF [0x4E] SET_ENTITY_HIDE_FLAG: Show Unnamed NPC (ID: 17801320/0x010FA068)
225: 0x08E5 [0x29] REQ_SET_WAIT(priority=0x08, entity_id=Magriffon (ID: 17801262/0x010FA02E), tag_num=0x05)
226: 0x08EC [0x29] REQ_SET_WAIT(priority=0x08, entity_id=Magriffon (ID: 17801262/0x010FA02E), tag_num=0x06)
227: 0x08F3 [0x52] END_LOAD_SCHEDULER: End scheduler "s035" with entities [LocalPlayer, LocalPlayer], work=150*
228: 0x0902 [0x46] CAMERA_CONTROL: Restore default settings
229: 0x0904 [0x5C] MUSIC_CONTROL: Set Idle (Day) music to song 135*
230: 0x0908 [0x5C] MUSIC_CONTROL: Set Idle (Night) music to song 135*
231: 0x090C [0x5D] SET_MUSIC_VOLUME(volume=127*, fade_time=1*)
232: 0x0911 [0x1C] WAIT(200* ticks)
233: 0x0914 [0x45] LOAD_SCHEDULED_TASK: Load scheduler "fdi1" with entities [LocalPlayer, LocalPlayer], work=[200*, 0*]
234: 0x0925 [0x20] SET_CLI_EVENT_UC_FLAG: Unlock player control
235: 0x0927 [0x21] END_EVENT
236: 0x0928 [0x00] END_REQSTACK()
```

#### Data or dead code:

```
# Dead code (unreachable instructions):
     0x054D [0x01] GOTO 0x0550
```

### Event 65535.24

#### Metadata

| Field        | Value   |
|--------------|---------|
| Entrypoint   | 0x0929  |
| Data Size    | 5 bytes |
| Instructions | 3       |

```
      00 01 02 03 04 05 06 07  08 09 0A 0B 0C 0D 0E 0F
      -- -- -- -- -- -- -- --  -- -- -- -- -- -- -- --
0920:                             1D 33 80 23 00                 .3.#.  
```

#### Opcodes

```
  0: 0x0929 [0x1D] PRINT_EVENT_MESSAGE(message_id=10259*)
    → "Like a beam of sunlight through the parting clouds, your smile warms my heart in my time of anguish."
  1: 0x092C [0x23] WAIT_FOR_DIALOG_INTERACTION
  2: 0x092D [0x00] END_REQSTACK()
```

### Event 65535.25

#### Metadata

| Field        | Value   |
|--------------|---------|
| Entrypoint   | 0x092E  |
| Data Size    | 5 bytes |
| Instructions | 3       |

```
      00 01 02 03 04 05 06 07  08 09 0A 0B 0C 0D 0E 0F
      -- -- -- -- -- -- -- --  -- -- -- -- -- -- -- --
0920:                                            1D 34                .4
0930: 80 23 00                                          .#.             
```

#### Opcodes

```
  0: 0x092E [0x1D] PRINT_EVENT_MESSAGE(message_id=10260*)
    → "No, no. There is no need to worry about me. I will be fine..."
  1: 0x0931 [0x23] WAIT_FOR_DIALOG_INTERACTION
  2: 0x0932 [0x00] END_REQSTACK()
```

### Event 65535.26

#### Metadata

| Field        | Value   |
|--------------|---------|
| Entrypoint   | 0x0933  |
| Data Size    | 5 bytes |
| Instructions | 3       |

```
      00 01 02 03 04 05 06 07  08 09 0A 0B 0C 0D 0E 0F
      -- -- -- -- -- -- -- --  -- -- -- -- -- -- -- --
0930:          1D 35 80 23 00                              .5.#.        
```

#### Opcodes

```
  0: 0x0933 [0x1D] PRINT_EVENT_MESSAGE(message_id=10261*)
    → "Oh, my beautiful <Player>! I knew from the moment I saw you that we were connected. I feel that only one such as you could understand what is troubling me."
  1: 0x0936 [0x23] WAIT_FOR_DIALOG_INTERACTION
  2: 0x0937 [0x00] END_REQSTACK()
```

### Event 65535.27

#### Metadata

| Field        | Value   |
|--------------|---------|
| Entrypoint   | 0x0938  |
| Data Size    | 5 bytes |
| Instructions | 3       |

```
      00 01 02 03 04 05 06 07  08 09 0A 0B 0C 0D 0E 0F
      -- -- -- -- -- -- -- --  -- -- -- -- -- -- -- --
0930:                          1D 36 80 23 00                   .6.#.   
```

#### Opcodes

```
  0: 0x0938 [0x1D] PRINT_EVENT_MESSAGE(message_id=10262*)
    → "Why, if it is not the robust adventurer who stopped by the other day. You adventurers and your carefree spirits... Warms my heart in my time of anguish."
  1: 0x093B [0x23] WAIT_FOR_DIALOG_INTERACTION
  2: 0x093C [0x00] END_REQSTACK()
```

### Event 65535.28

#### Metadata

| Field        | Value   |
|--------------|---------|
| Entrypoint   | 0x093D  |
| Data Size    | 5 bytes |
| Instructions | 3       |

```
      00 01 02 03 04 05 06 07  08 09 0A 0B 0C 0D 0E 0F
      -- -- -- -- -- -- -- --  -- -- -- -- -- -- -- --
0930:                                         1D 37 80               .7.
0940: 23 00                                             #.              
```

#### Opcodes

```
  0: 0x093D [0x1D] PRINT_EVENT_MESSAGE(message_id=10263*)
    → "No, no. There is no need to worry about me. I will be fine..."
  1: 0x0940 [0x23] WAIT_FOR_DIALOG_INTERACTION
  2: 0x0941 [0x00] END_REQSTACK()
```

### Event 65535.29

#### Metadata

| Field        | Value   |
|--------------|---------|
| Entrypoint   | 0x0942  |
| Data Size    | 5 bytes |
| Instructions | 3       |

```
      00 01 02 03 04 05 06 07  08 09 0A 0B 0C 0D 0E 0F
      -- -- -- -- -- -- -- --  -- -- -- -- -- -- -- --
0940:       1D 38 80 23 00                                .8.#.         
```

#### Opcodes

```
  0: 0x0942 [0x1D] PRINT_EVENT_MESSAGE(message_id=10264*)
    → "I knew from the moment we first met that you were different from the others. I feel that only an honest, strong, and brave adventurer like yourself could understand what is troubling me."
  1: 0x0945 [0x23] WAIT_FOR_DIALOG_INTERACTION
  2: 0x0946 [0x00] END_REQSTACK()
```

### Event 65535.30

#### Metadata

| Field        | Value   |
|--------------|---------|
| Entrypoint   | 0x0947  |
| Data Size    | 5 bytes |
| Instructions | 3       |

```
      00 01 02 03 04 05 06 07  08 09 0A 0B 0C 0D 0E 0F
      -- -- -- -- -- -- -- --  -- -- -- -- -- -- -- --
0940:                      1D  39 80 23 00                     .9.#.    
```

#### Opcodes

```
  0: 0x0947 [0x1D] PRINT_EVENT_MESSAGE(message_id=10266*)
    → "Yes... A few days ago I was walking through the Yuhtunga Jungle."
  1: 0x094A [0x23] WAIT_FOR_DIALOG_INTERACTION
  2: 0x094B [0x00] END_REQSTACK()
```

### Event 65535.31

#### Metadata

| Field        | Value   |
|--------------|---------|
| Entrypoint   | 0x094C  |
| Data Size    | 5 bytes |
| Instructions | 3       |

```
      00 01 02 03 04 05 06 07  08 09 0A 0B 0C 0D 0E 0F
      -- -- -- -- -- -- -- --  -- -- -- -- -- -- -- --
0940:                                      1D 3A 80 23              .:.#
0950: 00                                                .               
```

#### Opcodes

```
  0: 0x094C [0x1D] PRINT_EVENT_MESSAGE(message_id=10268*)
    → "And then, out of thin air, appeared a group of these furry little beasts. I think the natives refer to them as Opo-opos."
  1: 0x094F [0x23] WAIT_FOR_DIALOG_INTERACTION
  2: 0x0950 [0x00] END_REQSTACK()
```

### Event 65535.32

#### Metadata

| Field        | Value   |
|--------------|---------|
| Entrypoint   | 0x0951  |
| Data Size    | 5 bytes |
| Instructions | 3       |

```
      00 01 02 03 04 05 06 07  08 09 0A 0B 0C 0D 0E 0F
      -- -- -- -- -- -- -- --  -- -- -- -- -- -- -- --
0950:    1D 3B 80 23 00                                  .;.#.          
```

#### Opcodes

```
  0: 0x0951 [0x1D] PRINT_EVENT_MESSAGE(message_id=10269*)
    → "They told me that due to the recent influx of adventurers, the jungle was ravaged and their food supply was dwindling."
  1: 0x0954 [0x23] WAIT_FOR_DIALOG_INTERACTION
  2: 0x0955 [0x00] END_REQSTACK()
```

### Event 65535.33

#### Metadata

| Field        | Value   |
|--------------|---------|
| Entrypoint   | 0x0956  |
| Data Size    | 5 bytes |
| Instructions | 3       |

```
      00 01 02 03 04 05 06 07  08 09 0A 0B 0C 0D 0E 0F
      -- -- -- -- -- -- -- --  -- -- -- -- -- -- -- --
0950:                   1D 3C  80 23 00                       .<.#.     
```

#### Opcodes

```
  0: 0x0956 [0x1D] PRINT_EVENT_MESSAGE(message_id=10270*)
    → "I shed tears of pity at their sad, sad story. I felt as if I was obligated to pay for the atrocities that my fellow adventurers had committed. So, I proceeded in giving them all my belongings as a sign of peace."
  1: 0x0959 [0x23] WAIT_FOR_DIALOG_INTERACTION
  2: 0x095A [0x00] END_REQSTACK()
```

### Event 65535.34

#### Metadata

| Field        | Value   |
|--------------|---------|
| Entrypoint   | 0x095B  |
| Data Size    | 5 bytes |
| Instructions | 3       |

```
      00 01 02 03 04 05 06 07  08 09 0A 0B 0C 0D 0E 0F
      -- -- -- -- -- -- -- --  -- -- -- -- -- -- -- --
0950:                                   1D 3D 80 23 00             .=.#.
```

#### Opcodes

```
  0: 0x095B [0x1D] PRINT_EVENT_MESSAGE(message_id=10271*)
    → "However, after I had returned from my journey, I realized that I had made an error in judgment. Within the bag that I had given the Opo-opos was my purse, containing all my gil..."
  1: 0x095E [0x23] WAIT_FOR_DIALOG_INTERACTION
  2: 0x095F [0x00] END_REQSTACK()
```

### Event 65535.35

#### Metadata

| Field        | Value   |
|--------------|---------|
| Entrypoint   | 0x0960  |
| Data Size    | 9 bytes |
| Instructions | 5       |

```
      00 01 02 03 04 05 06 07  08 09 0A 0B 0C 0D 0E 0F
      -- -- -- -- -- -- -- --  -- -- -- -- -- -- -- --
0960: 1D 3E 80 23 1D 3F 80 23  00                       .>.#.?.#.       
```

#### Opcodes

```
  0: 0x0960 [0x1D] PRINT_EVENT_MESSAGE(message_id=10272*)
    → "My fair <Player>. I haven't eaten a decent meal in three days, and the proprietor of this inn is threatening to throw me out if I do not pay her fee..."
  1: 0x0963 [0x23] WAIT_FOR_DIALOG_INTERACTION
  2: 0x0964 [0x1D] PRINT_EVENT_MESSAGE(message_id=10273*)
    → "However, deep down in my heart I do not regret what I have done for those poor beasts, and I would do the same again in a heartbeat."
  3: 0x0967 [0x23] WAIT_FOR_DIALOG_INTERACTION
  4: 0x0968 [0x00] END_REQSTACK()
```

### Event 65535.36

#### Metadata

| Field        | Value   |
|--------------|---------|
| Entrypoint   | 0x0969  |
| Data Size    | 9 bytes |
| Instructions | 5       |

```
      00 01 02 03 04 05 06 07  08 09 0A 0B 0C 0D 0E 0F
      -- -- -- -- -- -- -- --  -- -- -- -- -- -- -- --
0960:                             1D 40 80 23 1D 41 80           .@.#.A.
0970: 23 00                                             #.              
```

#### Opcodes

```
  0: 0x0969 [0x1D] PRINT_EVENT_MESSAGE(message_id=10274*)
    → "<Player>, my friend. I haven't eaten a decent meal in three days, and the proprietor of this inn is threatening to throw me out if I do not pay her fee..."
  1: 0x096C [0x23] WAIT_FOR_DIALOG_INTERACTION
  2: 0x096D [0x1D] PRINT_EVENT_MESSAGE(message_id=10275*)
    → "However, deep down in my heart I do not regret what I have done for those poor beasts, and I would do the same again in a heartbeat."
  3: 0x0970 [0x23] WAIT_FOR_DIALOG_INTERACTION
  4: 0x0971 [0x00] END_REQSTACK()
```

### Event 65535.37

#### Metadata

| Field        | Value   |
|--------------|---------|
| Entrypoint   | 0x0972  |
| Data Size    | 5 bytes |
| Instructions | 3       |

```
      00 01 02 03 04 05 06 07  08 09 0A 0B 0C 0D 0E 0F
      -- -- -- -- -- -- -- --  -- -- -- -- -- -- -- --
0970:       1D 42 80 23 00                                .B.#.         
```

#### Opcodes

```
  0: 0x0972 [0x1D] PRINT_EVENT_MESSAGE(message_id=10276*)
    → "I only regret that I was unable to fulfill my duty to my country!"
  1: 0x0975 [0x23] WAIT_FOR_DIALOG_INTERACTION
  2: 0x0976 [0x00] END_REQSTACK()
```

### Event 65535.38

#### Metadata

| Field        | Value   |
|--------------|---------|
| Entrypoint   | 0x0977  |
| Data Size    | 5 bytes |
| Instructions | 3       |

```
      00 01 02 03 04 05 06 07  08 09 0A 0B 0C 0D 0E 0F
      -- -- -- -- -- -- -- --  -- -- -- -- -- -- -- --
0970:                      1D  43 80 23 00                     .C.#.    
```

#### Opcodes

```
  0: 0x0977 [0x1D] PRINT_EVENT_MESSAGE(message_id=10277*)
    → "If I only had $1 gil... Yes, $1 gil. Then I could complete my mission, and I could save all those children..."
  1: 0x097A [0x23] WAIT_FOR_DIALOG_INTERACTION
  2: 0x097B [0x00] END_REQSTACK()
```

### Event 145

#### Metadata

| Field        | Value    |
|--------------|----------|
| Entrypoint   | 0x097C   |
| Data Size    | 43 bytes |
| Instructions | 12       |

```
      00 01 02 03 04 05 06 07  08 09 0A 0B 0C 0D 0E 0F
      -- -- -- -- -- -- -- --  -- -- -- -- -- -- -- --
0970:                                      1E F0 FF FF              ....
0980: 7F 6F 70 29 08 2E A0 0F  01 03 1D 44 80 23 29 08  .op).......D.#).
0990: 2E A0 0F 01 04 29 08 2E  A0 0F 01 05 29 08 2E A0  .....)......)...
09A0: 0F 01 06 20 00 21 00                              ... .!.         
```

#### Opcodes

```
  0: 0x097C [0x1E] EventEntity looks at LocalPlayer and starts talking
  1: 0x0981 [0x6F] WAIT_FRAME_DELAY: Yield until WaitTime reaches zero
  2: 0x0982 [0x70] WAIT_ENTITY_RENDER_FLAG: Wait while EventEntity->Render.Flags3 bit 2 is set (cancel turn if not)
  3: 0x0983 [0x29] REQ_SET_WAIT(priority=0x08, entity_id=Magriffon (ID: 17801262/0x010FA02E), tag_num=0x03)
  4: 0x098A [0x1D] PRINT_EVENT_MESSAGE(message_id=10278*)
    → "If I only had $1 gil, then I could complete my mission."
  5: 0x098D [0x23] WAIT_FOR_DIALOG_INTERACTION
  6: 0x098E [0x29] REQ_SET_WAIT(priority=0x08, entity_id=Magriffon (ID: 17801262/0x010FA02E), tag_num=0x04)
  7: 0x0995 [0x29] REQ_SET_WAIT(priority=0x08, entity_id=Magriffon (ID: 17801262/0x010FA02E), tag_num=0x05)
  8: 0x099C [0x29] REQ_SET_WAIT(priority=0x08, entity_id=Magriffon (ID: 17801262/0x010FA02E), tag_num=0x06)
  9: 0x09A3 [0x20] SET_CLI_EVENT_UC_FLAG: Unlock player control
 10: 0x09A5 [0x21] END_EVENT
 11: 0x09A6 [0x00] END_REQSTACK()
```

### Event 146

#### Metadata

| Field        | Value     |
|--------------|-----------|
| Entrypoint   | 0x09A7    |
| Data Size    | 483 bytes |
| Instructions | 68        |

```
      00 01 02 03 04 05 06 07  08 09 0A 0B 0C 0D 0E 0F
      -- -- -- -- -- -- -- --  -- -- -- -- -- -- -- --
09A0:                      20  01 42 46 01 1E F0 FF FF          .BF.....
09B0: 7F 5D 04 80 18 80 45 18  80 F0 FF FF 7F F0 FF FF  .]....E.........
09C0: 7F 66 64 6F 31 04 80 1C  18 80 75 00 19 80 75 01  .fdo1.....u...u.
09D0: 6F 70 38 1A 80 37 1B 80  1C 80 1D 80 1E 80 29 0B  op8..7........).
09E0: F0 FF FF 7F 0C 29 08 F0  FF FF 7F 03 29 08 F0 FF  .....)......)...
09F0: FF 7F 05 1E F0 FF FF 7F  6F 70 5C 00 20 80 5C 01  ........op\. .\.
0A00: 20 80 5D 21 80 22 80 45  23 80 F0 FF FF 7F F0 FF   .]!.".E#.......
0A10: FF 7F 73 30 33 33 04 80  45 18 80 F0 FF FF 7F F0  ..s033..E.......
0A20: FF FF 7F 66 64 69 31 04  80 29 08 2E A0 0F 01 01  ...fdi1..)......
0A30: 29 0B 2E A0 0F 01 2B 29  08 2E A0 0F 01 02 52 23  ).....+)......R#
0A40: 80 F0 FF FF 7F F0 FF FF  7F 73 30 33 33 02 09 10  .........s033...
0A50: 27 80 00 69 0A 45 23 80  F0 FF FF 7F F0 FF FF 7F  '..i.E#.........
0A60: 73 30 34 33 04 80 01 96  0A 02 09 10 28 80 00 85  s043........(...
0A70: 0A 45 23 80 F0 FF FF 7F  F0 FF FF 7F 73 30 34 33  .E#.........s043
0A80: 04 80 01 96 0A 45 23 80  F0 FF FF 7F F0 FF FF 7F  .....E#.........
0A90: 73 30 33 34 04 80 29 08  2E A0 0F 01 14 02 02 10  s034..).........
0AA0: 04 80 00 AF 0A 29 0B 2E  A0 0F 01 2C 01 B6 0A 29  .....).....,...)
0AB0: 0B 2E A0 0F 01 2D 29 08  2E A0 0F 01 15 02 09 10  .....-).........
0AC0: 27 80 00 D7 0A 52 23 80  F0 FF FF 7F F0 FF FF 7F  '....R#.........
0AD0: 73 30 34 33 01 00 0B 02  09 10 28 80 00 F1 0A 52  s043......(....R
0AE0: 23 80 F0 FF FF 7F F0 FF  FF 7F 73 30 34 33 01 00  #.........s043..
0AF0: 0B 52 23 80 F0 FF FF 7F  F0 FF FF 7F 73 30 33 34  .R#.........s034
0B00: 45 23 80 F0 FF FF 7F F0  FF FF 7F 73 30 33 33 04  E#.........s033.
0B10: 80 29 08 2E A0 0F 01 01  29 0B 2E A0 0F 01 2E 29  .)......)......)
0B20: 08 2E A0 0F 01 02 1D 45  80 23 5D 04 80 18 80 45  .......E.#]....E
0B30: 18 80 F0 FF FF 7F F0 FF  FF 7F 66 64 6F 31 04 80  ..........fdo1..
0B40: 1C 18 80 52 23 80 F0 FF  FF 7F F0 FF FF 7F 73 30  ...R#.........s0
0B50: 33 33 46 00 5C 00 2C 80  5C 01 2C 80 5D 21 80 22  33F.\.,.\.,.]!."
0B60: 80 1C 18 80 45 18 80 F0  FF FF 7F F0 FF FF 7F 66  ....E..........f
0B70: 64 69 31 04 80 45 46 80  F0 FF FF 7F F0 FF FF 7F  di1..EF.........
0B80: 71 73 74 63 04 80 20 00  21 00                    qstc.. .!.      
```

#### Opcodes

```
  0: 0x09A7 [0x20] SET_CLI_EVENT_UC_FLAG: Lock player control
  1: 0x09A9 [0x42] SET_CLI_EVENT_CANCEL_DATA()
  2: 0x09AA [0x46] CAMERA_CONTROL: Disable user control
  3: 0x09AC [0x1E] EventEntity looks at LocalPlayer and starts talking
  4: 0x09B1 [0x5D] SET_MUSIC_VOLUME(volume=0*, fade_time=200*)
  5: 0x09B6 [0x45] LOAD_SCHEDULED_TASK: Load scheduler "fdo1" with entities [LocalPlayer, LocalPlayer], work=[200*, 0*]
  6: 0x09C7 [0x1C] WAIT(200* ticks)
  7: 0x09CA [0x75] LOAD_ROOM(Load indoor room, room=505*)
  8: 0x09CE [0x75] LOAD_ROOM(No action)
  9: 0x09D0 [0x6F] WAIT_FRAME_DELAY: Yield until WaitTime reaches zero
 10: 0x09D1 [0x70] WAIT_ENTITY_RENDER_FLAG: Wait while EventEntity->Render.Flags3 bit 2 is set (cancel turn if not)
 11: 0x09D2 [0x38] SET_CLIENT_EVENT_MODE(mode=2051*)
 12: 0x09D5 [0x37] UPDATE_EVENT_POSITION_AND_DIR: x=61.000*, z=-34.397*, y=-12.000*, direction=131.0°*
 13: 0x09DE [0x29] REQ_SET_WAIT(priority=0x0B, entity_id=LocalPlayer, tag_num=0x0C)
 14: 0x09E5 [0x29] REQ_SET_WAIT(priority=0x08, entity_id=LocalPlayer, tag_num=0x03)
 15: 0x09EC [0x29] REQ_SET_WAIT(priority=0x08, entity_id=LocalPlayer, tag_num=0x05)
 16: 0x09F3 [0x1E] EventEntity looks at LocalPlayer and starts talking
 17: 0x09F8 [0x6F] WAIT_FRAME_DELAY: Yield until WaitTime reaches zero
 18: 0x09F9 [0x70] WAIT_ENTITY_RENDER_FLAG: Wait while EventEntity->Render.Flags3 bit 2 is set (cancel turn if not)
 19: 0x09FA [0x5C] MUSIC_CONTROL: Set Idle (Day) music to song 104*
 20: 0x09FE [0x5C] MUSIC_CONTROL: Set Idle (Night) music to song 104*
 21: 0x0A02 [0x5D] SET_MUSIC_VOLUME(volume=127*, fade_time=1*)
 22: 0x0A07 [0x45] LOAD_SCHEDULED_TASK: Load scheduler "s033" with entities [LocalPlayer, LocalPlayer], work=[150*, 0*]
 23: 0x0A18 [0x45] LOAD_SCHEDULED_TASK: Load scheduler "fdi1" with entities [LocalPlayer, LocalPlayer], work=[200*, 0*]
 24: 0x0A29 [0x29] REQ_SET_WAIT(priority=0x08, entity_id=Magriffon (ID: 17801262/0x010FA02E), tag_num=0x01)
 25: 0x0A30 [0x29] REQ_SET_WAIT(priority=0x0B, entity_id=Magriffon (ID: 17801262/0x010FA02E), tag_num=0x2B)
 26: 0x0A37 [0x29] REQ_SET_WAIT(priority=0x08, entity_id=Magriffon (ID: 17801262/0x010FA02E), tag_num=0x02)
 27: 0x0A3E [0x52] END_LOAD_SCHEDULER: End scheduler "s033" with entities [LocalPlayer, LocalPlayer], work=150*
 28: 0x0A4D [0x02] IF !(Work_Zone[9] == 5*) GOTO 0x0A69
 29: 0x0A55 [0x45] LOAD_SCHEDULED_TASK: Load scheduler "s043" with entities [LocalPlayer, LocalPlayer], work=[150*, 0*]
 30: 0x0A66 [0x01] GOTO 0x0A96
 31: 0x0A69 [0x02] IF !(Work_Zone[9] == 6*) GOTO 0x0A85
 32: 0x0A71 [0x45] LOAD_SCHEDULED_TASK: Load scheduler "s043" with entities [LocalPlayer, LocalPlayer], work=[150*, 0*]
 33: 0x0A82 [0x01] GOTO 0x0A96
 34: 0x0A85 [0x45] LOAD_SCHEDULED_TASK: Load scheduler "s034" with entities [LocalPlayer, LocalPlayer], work=[150*, 0*]

SUBROUTINE_0A96:
 35: 0x0A96 [0x29] REQ_SET_WAIT(priority=0x08, entity_id=Magriffon (ID: 17801262/0x010FA02E), tag_num=0x14)
 36: 0x0A9D [0x02] IF !(Work_Zone[2] == 0*) GOTO 0x0AAF
 37: 0x0AA5 [0x29] REQ_SET_WAIT(priority=0x0B, entity_id=Magriffon (ID: 17801262/0x010FA02E), tag_num=0x2C)
 38: 0x0AAC [0x01] GOTO 0x0AB6
 39: 0x0AAF [0x29] REQ_SET_WAIT(priority=0x0B, entity_id=Magriffon (ID: 17801262/0x010FA02E), tag_num=0x2D)

SUBROUTINE_0AB6:
 40: 0x0AB6 [0x29] REQ_SET_WAIT(priority=0x08, entity_id=Magriffon (ID: 17801262/0x010FA02E), tag_num=0x15)
 41: 0x0ABD [0x02] IF !(Work_Zone[9] == 5*) GOTO 0x0AD7
 42: 0x0AC5 [0x52] END_LOAD_SCHEDULER: End scheduler "s043" with entities [LocalPlayer, LocalPlayer], work=150*
 43: 0x0AD4 [0x01] GOTO 0x0B00
 44: 0x0AD7 [0x02] IF !(Work_Zone[9] == 6*) GOTO 0x0AF1
 45: 0x0ADF [0x52] END_LOAD_SCHEDULER: End scheduler "s043" with entities [LocalPlayer, LocalPlayer], work=150*
 46: 0x0AEE [0x01] GOTO 0x0B00
 47: 0x0AF1 [0x52] END_LOAD_SCHEDULER: End scheduler "s034" with entities [LocalPlayer, LocalPlayer], work=150*

SUBROUTINE_0B00:
 48: 0x0B00 [0x45] LOAD_SCHEDULED_TASK: Load scheduler "s033" with entities [LocalPlayer, LocalPlayer], work=[150*, 0*]
 49: 0x0B11 [0x29] REQ_SET_WAIT(priority=0x08, entity_id=Magriffon (ID: 17801262/0x010FA02E), tag_num=0x01)
 50: 0x0B18 [0x29] REQ_SET_WAIT(priority=0x0B, entity_id=Magriffon (ID: 17801262/0x010FA02E), tag_num=0x2E)
 51: 0x0B1F [0x29] REQ_SET_WAIT(priority=0x08, entity_id=Magriffon (ID: 17801262/0x010FA02E), tag_num=0x02)
 52: 0x0B26 [0x1D] PRINT_EVENT_MESSAGE(message_id=10283*)
    → "I promise you, [my friend/my sweet], that I will never forget your kindness, and I swear I will someday repay you for what you have done for me."
 53: 0x0B29 [0x23] WAIT_FOR_DIALOG_INTERACTION
 54: 0x0B2A [0x5D] SET_MUSIC_VOLUME(volume=0*, fade_time=200*)
 55: 0x0B2F [0x45] LOAD_SCHEDULED_TASK: Load scheduler "fdo1" with entities [LocalPlayer, LocalPlayer], work=[200*, 0*]
 56: 0x0B40 [0x1C] WAIT(200* ticks)
 57: 0x0B43 [0x52] END_LOAD_SCHEDULER: End scheduler "s033" with entities [LocalPlayer, LocalPlayer], work=150*
 58: 0x0B52 [0x46] CAMERA_CONTROL: Restore default settings
 59: 0x0B54 [0x5C] MUSIC_CONTROL: Set Idle (Day) music to song 135*
 60: 0x0B58 [0x5C] MUSIC_CONTROL: Set Idle (Night) music to song 135*
 61: 0x0B5C [0x5D] SET_MUSIC_VOLUME(volume=127*, fade_time=1*)
 62: 0x0B61 [0x1C] WAIT(200* ticks)
 63: 0x0B64 [0x45] LOAD_SCHEDULED_TASK: Load scheduler "fdi1" with entities [LocalPlayer, LocalPlayer], work=[200*, 0*]
 64: 0x0B75 [0x45] LOAD_SCHEDULED_TASK: Load scheduler "qstc" with entities [LocalPlayer, LocalPlayer], work=[201*, 0*]
 65: 0x0B86 [0x20] SET_CLI_EVENT_UC_FLAG: Unlock player control
 66: 0x0B88 [0x21] END_EVENT
 67: 0x0B89 [0x00] END_REQSTACK()
```

### Event 65535.39

#### Metadata

| Field        | Value   |
|--------------|---------|
| Entrypoint   | 0x0B8A  |
| Data Size    | 5 bytes |
| Instructions | 3       |

```
      00 01 02 03 04 05 06 07  08 09 0A 0B 0C 0D 0E 0F
      -- -- -- -- -- -- -- --  -- -- -- -- -- -- -- --
0B80:                                1D 47 80 23 00               .G.#. 
```

#### Opcodes

```
  0: 0x0B8A [0x1D] PRINT_EVENT_MESSAGE(message_id=10279*)
    → "It's a miracle! The Dawn Goddess has shone her light down upon me!"
  1: 0x0B8D [0x23] WAIT_FOR_DIALOG_INTERACTION
  2: 0x0B8E [0x00] END_REQSTACK()
```

### Event 65535.40

#### Metadata

| Field        | Value   |
|--------------|---------|
| Entrypoint   | 0x0B8F  |
| Data Size    | 5 bytes |
| Instructions | 3       |

```
      00 01 02 03 04 05 06 07  08 09 0A 0B 0C 0D 0E 0F
      -- -- -- -- -- -- -- --  -- -- -- -- -- -- -- --
0B80:                                               1D                 .
0B90: 48 80 23 00                                       H.#.            
```

#### Opcodes

```
  0: 0x0B8F [0x1D] PRINT_EVENT_MESSAGE(message_id=10280*)
    → "<Player>! Your beauty comes second only to your generosity. I thank Altana for allowing our paths to cross."
  1: 0x0B92 [0x23] WAIT_FOR_DIALOG_INTERACTION
  2: 0x0B93 [0x00] END_REQSTACK()
```

### Event 65535.41

#### Metadata

| Field        | Value   |
|--------------|---------|
| Entrypoint   | 0x0B94  |
| Data Size    | 5 bytes |
| Instructions | 3       |

```
      00 01 02 03 04 05 06 07  08 09 0A 0B 0C 0D 0E 0F
      -- -- -- -- -- -- -- --  -- -- -- -- -- -- -- --
0B90:             1D 49 80 23  00                           .I.#.       
```

#### Opcodes

```
  0: 0x0B94 [0x1D] PRINT_EVENT_MESSAGE(message_id=10281*)
    → "Your strength and bravery are matched only by your generosity and nobleness. I am proud to call <Player> a friend and an acquaintance."
  1: 0x0B97 [0x23] WAIT_FOR_DIALOG_INTERACTION
  2: 0x0B98 [0x00] END_REQSTACK()
```

### Event 65535.42

#### Metadata

| Field        | Value   |
|--------------|---------|
| Entrypoint   | 0x0B99  |
| Data Size    | 5 bytes |
| Instructions | 3       |

```
      00 01 02 03 04 05 06 07  08 09 0A 0B 0C 0D 0E 0F
      -- -- -- -- -- -- -- --  -- -- -- -- -- -- -- --
0B90:                             1D 4A 80 23 00                 .J.#.  
```

#### Opcodes

```
  0: 0x0B99 [0x1D] PRINT_EVENT_MESSAGE(message_id=10282*)
    → "And now I can complete my mission."
  1: 0x0B9C [0x23] WAIT_FOR_DIALOG_INTERACTION
  2: 0x0B9D [0x00] END_REQSTACK()
```

### Event 147

#### Metadata

| Field        | Value    |
|--------------|----------|
| Entrypoint   | 0x0B9E   |
| Data Size    | 40 bytes |
| Instructions | 13       |

```
      00 01 02 03 04 05 06 07  08 09 0A 0B 0C 0D 0E 0F
      -- -- -- -- -- -- -- --  -- -- -- -- -- -- -- --
0B90:                                            1E F0                ..
0BA0: FF FF 7F 6F 70 29 08 F0  FF FF 7F 03 29 08 2E A0  ...op)......)...
0BB0: 0F 01 14 1D 4B 80 23 1D  4C 80 23 29 08 2E A0 0F  ....K.#.L.#)....
0BC0: 01 15 20 00 21 00                                 .. .!.          
```

#### Opcodes

```
  0: 0x0B9E [0x1E] EventEntity looks at LocalPlayer and starts talking
  1: 0x0BA3 [0x6F] WAIT_FRAME_DELAY: Yield until WaitTime reaches zero
  2: 0x0BA4 [0x70] WAIT_ENTITY_RENDER_FLAG: Wait while EventEntity->Render.Flags3 bit 2 is set (cancel turn if not)
  3: 0x0BA5 [0x29] REQ_SET_WAIT(priority=0x08, entity_id=LocalPlayer, tag_num=0x03)
  4: 0x0BAC [0x29] REQ_SET_WAIT(priority=0x08, entity_id=Magriffon (ID: 17801262/0x010FA02E), tag_num=0x14)
  5: 0x0BB3 [0x1D] PRINT_EVENT_MESSAGE(message_id=10284*)
    → "Now I can complete my top-secret mission."
  6: 0x0BB6 [0x23] WAIT_FOR_DIALOG_INTERACTION
  7: 0x0BB7 [0x1D] PRINT_EVENT_MESSAGE(message_id=10285*)
    → "I promise you, [my friend/my sweet], that I will never forget your kindness, and I swear I will someday repay you for what you have done for me."
  8: 0x0BBA [0x23] WAIT_FOR_DIALOG_INTERACTION
  9: 0x0BBB [0x29] REQ_SET_WAIT(priority=0x08, entity_id=Magriffon (ID: 17801262/0x010FA02E), tag_num=0x15)
 10: 0x0BC2 [0x20] SET_CLI_EVENT_UC_FLAG: Unlock player control
 11: 0x0BC4 [0x21] END_EVENT
 12: 0x0BC5 [0x00] END_REQSTACK()
```

### Event 277

#### Metadata

| Field        | Value    |
|--------------|----------|
| Entrypoint   | 0x0BC6   |
| Data Size    | 76 bytes |
| Instructions | 21       |

```
      00 01 02 03 04 05 06 07  08 09 0A 0B 0C 0D 0E 0F
      -- -- -- -- -- -- -- --  -- -- -- -- -- -- -- --
0BC0:                   1E F0  FF FF 7F 6F 70 29 08 F0        .....op)..
0BD0: FF FF 7F 03 29 08 2E A0  0F 01 14 1D 4D 80 23 29  ....).......M.#)
0BE0: 08 2E A0 0F 01 15 29 08  2E A0 0F 01 01 1D 4E 80  ......).......N.
0BF0: 23 29 08 2E A0 0F 01 02  29 08 2E A0 0F 01 11 1D  #)......).......
0C00: 4F 80 23 29 08 2E A0 0F  01 12 1D 50 80 23 20 00  O.#).......P.# .
0C10: 21 00                                             !.              
```

#### Opcodes

```
  0: 0x0BC6 [0x1E] EventEntity looks at LocalPlayer and starts talking
  1: 0x0BCB [0x6F] WAIT_FRAME_DELAY: Yield until WaitTime reaches zero
  2: 0x0BCC [0x70] WAIT_ENTITY_RENDER_FLAG: Wait while EventEntity->Render.Flags3 bit 2 is set (cancel turn if not)
  3: 0x0BCD [0x29] REQ_SET_WAIT(priority=0x08, entity_id=LocalPlayer, tag_num=0x03)
  4: 0x0BD4 [0x29] REQ_SET_WAIT(priority=0x08, entity_id=Magriffon (ID: 17801262/0x010FA02E), tag_num=0x14)
  5: 0x0BDB [0x1D] PRINT_EVENT_MESSAGE(message_id=10286*)
    → "Ah, if it isn't [my dear friend/my darling,] <Player>. Are you off on another adventure for some poor soul? Remember that the more you give, the more you will get in return. This is the way the world works."
  6: 0x0BDE [0x23] WAIT_FOR_DIALOG_INTERACTION
  7: 0x0BDF [0x29] REQ_SET_WAIT(priority=0x08, entity_id=Magriffon (ID: 17801262/0x010FA02E), tag_num=0x15)
  8: 0x0BE6 [0x29] REQ_SET_WAIT(priority=0x08, entity_id=Magriffon (ID: 17801262/0x010FA02E), tag_num=0x01)
  9: 0x0BED [0x1D] PRINT_EVENT_MESSAGE(message_id=10287*)
    → "This can be said of my encounter with those poor Opo-opos."
 10: 0x0BF0 [0x23] WAIT_FOR_DIALOG_INTERACTION
 11: 0x0BF1 [0x29] REQ_SET_WAIT(priority=0x08, entity_id=Magriffon (ID: 17801262/0x010FA02E), tag_num=0x02)
 12: 0x0BF8 [0x29] REQ_SET_WAIT(priority=0x08, entity_id=Magriffon (ID: 17801262/0x010FA02E), tag_num=0x11)
 13: 0x0BFF [0x1D] PRINT_EVENT_MESSAGE(message_id=10288*)
    → "Yes, they did walk off with [my beloved furnishing/one of my cards/the strange sand I found on one of my journeys/my pet frog/my belongings], but if it was not for that fateful day, I would have never met you and been graced by your [courage/beauty]."
 14: 0x0C02 [0x23] WAIT_FOR_DIALOG_INTERACTION
 15: 0x0C03 [0x29] REQ_SET_WAIT(priority=0x08, entity_id=Magriffon (ID: 17801262/0x010FA02E), tag_num=0x12)
 16: 0x0C0A [0x1D] PRINT_EVENT_MESSAGE(message_id=10289*)
    → "A miracle it is! A miracle!"
 17: 0x0C0D [0x23] WAIT_FOR_DIALOG_INTERACTION
 18: 0x0C0E [0x20] SET_CLI_EVENT_UC_FLAG: Unlock player control
 19: 0x0C10 [0x21] END_EVENT
 20: 0x0C11 [0x00] END_REQSTACK()
```

### Event 148

#### Metadata

| Field        | Value      |
|--------------|------------|
| Entrypoint   | 0x0C12     |
| Data Size    | 1657 bytes |
| Instructions | 225        |

```
      00 01 02 03 04 05 06 07  08 09 0A 0B 0C 0D 0E 0F
      -- -- -- -- -- -- -- --  -- -- -- -- -- -- -- --
0C10:       20 01 42 46 01 1E  F0 FF FF 7F 5D 04 80 18     .BF......]...
0C20: 80 45 18 80 F0 FF FF 7F  F0 FF FF 7F 66 64 6F 31  .E..........fdo1
0C30: 04 80 1C 18 80 75 00 19  80 75 01 4E 01 35 A0 0F  .....u...u.N.5..
0C40: 01 6F 70 38 1A 80 37 1B  80 1C 80 1D 80 1E 80 29  .op8..7........)
0C50: 0B F0 FF FF 7F 0C 29 08  F0 FF FF 7F 03 29 08 F0  ......)......)..
0C60: FF FF 7F 05 4B 2E A0 0F  01 1F 80 6F 76 2E A0 0F  ....K......ov...
0C70: 01 29 08 2E A0 0F 01 03  29 08 2E A0 0F 01 04 79  .)......)......y
0C80: 00 F0 FF FF 7F 2E A0 0F  01 5C 00 20 80 5C 01 20  .........\. .\. 
0C90: 80 5D 21 80 22 80 45 23  80 F0 FF FF 7F F0 FF FF  .]!.".E#........
0CA0: 7F 73 30 33 30 04 80 45  18 80 F0 FF FF 7F F0 FF  .s030..E........
0CB0: FF 7F 66 64 69 31 04 80  1C 18 80 1D 24 80 23 52  ..fdi1......$.#R
0CC0: 23 80 F0 FF FF 7F F0 FF  FF 7F 73 30 33 30 45 18  #.........s030E.
0CD0: 80 F0 FF FF 7F F0 FF FF  7F 6F 76 6C 31 04 80 45  .........ovl1..E
0CE0: 23 80 F0 FF FF 7F F0 FF  FF 7F 73 30 33 31 04 80  #.........s031..
0CF0: 1C 25 80 1D 26 80 23 52  23 80 F0 FF FF 7F F0 FF  .%..&.#R#.......
0D00: FF 7F 73 30 33 31 45 18  80 F0 FF FF 7F F0 FF FF  ..s031E.........
0D10: 7F 6F 76 6C 31 04 80 02  09 10 27 80 00 33 0D 45  .ovl1.....'..3.E
0D20: 23 80 F0 FF FF 7F F0 FF  FF 7F 73 30 34 32 04 80  #.........s042..
0D30: 01 60 0D 02 09 10 28 80  00 4F 0D 45 23 80 F0 FF  .`....(..O.E#...
0D40: FF 7F F0 FF FF 7F 73 30  34 32 04 80 01 60 0D 45  ......s042...`.E
0D50: 23 80 F0 FF FF 7F F0 FF  FF 7F 73 30 33 32 04 80  #.........s032..
0D60: 29 08 2E A0 0F 01 05 7C  00 F8 FF FF 7F 1D 29 80  )......|......).
0D70: 23 7C 01 F8 FF FF 7F 29  08 2E A0 0F 01 06 4A 2E  #|.....)......J.
0D80: A0 0F 01 F0 FF FF 7F 6F  76 2E A0 0F 01 02 09 10  .......ov.......
0D90: 27 80 00 A7 0D 52 23 80  F0 FF FF 7F F0 FF FF 7F  '....R#.........
0DA0: 73 30 34 32 01 D0 0D 02  09 10 28 80 00 C1 0D 52  s042......(....R
0DB0: 23 80 F0 FF FF 7F F0 FF  FF 7F 73 30 34 32 01 D0  #.........s042..
0DC0: 0D 52 23 80 F0 FF FF 7F  F0 FF FF 7F 73 30 33 32  .R#.........s032
0DD0: 45 23 80 F0 FF FF 7F F0  FF FF 7F 73 30 33 33 04  E#.........s033.
0DE0: 80 29 08 2E A0 0F 01 14  29 0B 2E A0 0F 01 32 29  .)......).....2)
0DF0: 08 2E A0 0F 01 15 52 23  80 F0 FF FF 7F F0 FF FF  ......R#........
0E00: 7F 73 30 33 33 02 09 10  27 80 00 21 0E 45 23 80  .s033...'..!.E#.
0E10: F0 FF FF 7F F0 FF FF 7F  73 30 34 33 04 80 01 4E  ........s043...N
0E20: 0E 02 09 10 28 80 00 3D  0E 45 23 80 F0 FF FF 7F  ....(..=.E#.....
0E30: F0 FF FF 7F 73 30 34 33  04 80 01 4E 0E 45 23 80  ....s043...N.E#.
0E40: F0 FF FF 7F F0 FF FF 7F  73 30 33 34 04 80 29 08  ........s034..).
0E50: 2E A0 0F 01 01 29 0B 2E  A0 0F 01 33 29 08 2E A0  .....).....3)...
0E60: 0F 01 02 02 09 10 27 80  00 7D 0E 52 23 80 F0 FF  ......'..}.R#...
0E70: FF 7F F0 FF FF 7F 73 30  34 33 01 A6 0E 02 09 10  ......s043......
0E80: 28 80 00 97 0E 52 23 80  F0 FF FF 7F F0 FF FF 7F  (....R#.........
0E90: 73 30 34 33 01 A6 0E 52  23 80 F0 FF FF 7F F0 FF  s043...R#.......
0EA0: FF 7F 73 30 33 34 24 51  80 22 80 04 80 25 02 00  ..s034$Q."...%..
0EB0: 10 04 80 00 D8 0E 45 23  80 F0 FF FF 7F F0 FF FF  ......E#........
0EC0: 7F 73 30 33 33 04 80 29  08 2E A0 0F 01 01 29 0B  .s033..)......).
0ED0: 2E A0 0F 01 34 01 02 0F  02 00 10 22 80 00 02 0F  ....4......"....
