# 17801292 - Popopp

## Common Data

| Field            | Value            |
|------------------|------------------|
| Zone             | Kazham (ID: 250) |
| Block Size       | 360 bytes        |
| Total Events     | 11               |
| References Count | 19               |

## List of Events

| Event ID                 | Entrypoint   |   Size |   Instructions |
|--------------------------|--------------|--------|----------------|
| [65535](#event-65535)    | 0x0000       |      1 |              1 |
| [65535.1](#event-655351) | 0x0001       |     16 |              2 |
| [65535.2](#event-655352) | 0x0011       |     14 |              2 |
| [201](#event-201)        | 0x001F       |     15 |              8 |
| [211](#event-211)        | 0x002E       |     49 |             16 |
| [223](#event-223)        | 0x005F       |     30 |             11 |
| [233](#event-233)        | 0x007D       |     24 |             13 |
| [246](#event-246)        | 0x0095       |     29 |             10 |
| [241](#event-241)        | 0x00B2       |     12 |              3 |
| [65535.3](#event-655353) | 0x00BE       |     19 |              5 |
| [65535.4](#event-655354) | 0x00D1       |     14 |              4 |

## DAT References (imed_data)

|   Index | Hex Value   |   Dec Value |
|---------|-------------|-------------|
|       0 | 0x00FD      |         253 |
|       1 | 0x289C      |       10396 |
|       2 | 0x289D      |       10397 |
|       3 | 0x0000      |           0 |
|       4 | 0x28A2      |       10402 |
|       5 | 0x0001      |           1 |
|       6 | 0x28A8      |       10408 |
|       7 | 0x28A9      |       10409 |
|       8 | 0x28AA      |       10410 |
|       9 | 0x28AB      |       10411 |
|      10 | 0x28D6      |       10454 |
|      11 | 0xA6B1      |       42673 |
|      12 | 0xFFFD53EF  |  4294792175 |
|      13 | 0xFFFFD508  |  4294956296 |
|      14 | 0x05E8      |        1512 |
|      15 | 0x28CE      |       10446 |
|      16 | 0x000D      |          13 |
|      17 | 0xB423      |       46115 |
|      18 | 0xFFFD6302  |  4294796034 |

## String References

- **10396**: Opo opo-opo! Opo-opoh! Opopo! Pohppo-opo!
- **10397**: Pohppo-opo! [Opo?/...]
- **10402**: Opopoh-o...
- **10408**: Opopopopo! Opo-opo! Oppo! Oppo-opo!
- **10409**: Opi!? Opi-opi!?
- **10410**: It seems as if you handed the Opo-opos the items in the wrong order.
- **10411**: Now you have to start again from the beginning...
- **10446**: Oppo-oppo! Opoh-popopoh-opoh! Opoh-popoh!
- **10454**: Opo-opo! Ohppo-opo!

## Events

### Event 65535

#### Metadata

| Field        | Value   |
|--------------|---------|
| Entrypoint   | 0x0000  |
| Data Size    | 1 bytes |
| Instructions | 1       |

```
      00 01 02 03 04 05 06 07  08 09 0A 0B 0C 0D 0E 0F
      -- -- -- -- -- -- -- --  -- -- -- -- -- -- -- --
0000: 00                                                .               
```

#### Opcodes

```
  0: 0x0000 [0x00] END_REQSTACK()
```

### Event 65535.1

#### Metadata

| Field        | Value    |
|--------------|----------|
| Entrypoint   | 0x0001   |
| Data Size    | 16 bytes |
| Instructions | 2        |

```
      00 01 02 03 04 05 06 07  08 09 0A 0B 0C 0D 0E 0F
      -- -- -- -- -- -- -- --  -- -- -- -- -- -- -- --
0000:    5B 00 80 F8 FF FF 7F  F8 FF FF 7F 62 6F 77 30   [..........bow0
0010: 00                                                .               
```

#### Opcodes

```
  0: 0x0001 [0x5B] LOAD_EXT_SCHEDULER: Load scheduler "bow0" with entities [EventEntity, EventEntity], work=253*
  1: 0x0010 [0x00] END_REQSTACK()
```

### Event 65535.2

#### Metadata

| Field        | Value    |
|--------------|----------|
| Entrypoint   | 0x0011   |
| Data Size    | 14 bytes |
| Instructions | 2        |

```
      00 01 02 03 04 05 06 07  08 09 0A 0B 0C 0D 0E 0F
      -- -- -- -- -- -- -- --  -- -- -- -- -- -- -- --
0010:    53 F8 FF FF 7F F8 FF  FF 7F 62 6F 77 30 00      S........bow0. 
```

#### Opcodes

```
  0: 0x0011 [0x53] WAIT_SCHEDULER_TASK: Wait for scheduler "bow0" with entities [EventEntity, EventEntity]
  1: 0x001E [0x00] END_REQSTACK()
```

### Event 201

#### Metadata

| Field        | Value    |
|--------------|----------|
| Entrypoint   | 0x001F   |
| Data Size    | 15 bytes |
| Instructions | 8        |

```
      00 01 02 03 04 05 06 07  08 09 0A 0B 0C 0D 0E 0F
      -- -- -- -- -- -- -- --  -- -- -- -- -- -- -- --
0010:                                               1E                 .
0020: F0 FF FF 7F 6F 70 1D 01  80 23 20 00 21 00        ....op...# .!.  
```

#### Opcodes

```
  0: 0x001F [0x1E] EventEntity looks at LocalPlayer and starts talking
  1: 0x0024 [0x6F] WAIT_FRAME_DELAY: Yield until WaitTime reaches zero
  2: 0x0025 [0x70] WAIT_ENTITY_RENDER_FLAG: Wait while EventEntity->Render.Flags3 bit 2 is set (cancel turn if not)
  3: 0x0026 [0x1D] PRINT_EVENT_MESSAGE(message_id=10396*)
    → "Opo opo-opo! Opo-opoh! Opopo! Pohppo-opo!"
  4: 0x0029 [0x23] WAIT_FOR_DIALOG_INTERACTION
  5: 0x002A [0x20] SET_CLI_EVENT_UC_FLAG: Unlock player control
  6: 0x002C [0x21] END_EVENT
  7: 0x002D [0x00] END_REQSTACK()
```

### Event 211

#### Metadata

| Field        | Value    |
|--------------|----------|
| Entrypoint   | 0x002E   |
| Data Size    | 49 bytes |
| Instructions | 16       |

```
      00 01 02 03 04 05 06 07  08 09 0A 0B 0C 0D 0E 0F
      -- -- -- -- -- -- -- --  -- -- -- -- -- -- -- --
0020:                                            1E F0                ..
0030: FF FF 7F 6F 70 1D 01 80  23 24 02 80 03 80 03 80  ...op...#$......
0040: 25 02 00 10 03 80 00 50  00 1D 04 80 23 01 5B 00  %......P....#.[.
0050: 02 00 10 05 80 00 5B 00  01 5B 00 20 00 21 00     ......[..[. .!. 
```

#### Opcodes

```
  0: 0x002E [0x1E] EventEntity looks at LocalPlayer and starts talking
  1: 0x0033 [0x6F] WAIT_FRAME_DELAY: Yield until WaitTime reaches zero
  2: 0x0034 [0x70] WAIT_ENTITY_RENDER_FLAG: Wait while EventEntity->Render.Flags3 bit 2 is set (cancel turn if not)
  3: 0x0035 [0x1D] PRINT_EVENT_MESSAGE(message_id=10396*)
    → "Opo opo-opo! Opo-opoh! Opopo! Pohppo-opo!"
  4: 0x0038 [0x23] WAIT_FOR_DIALOG_INTERACTION
  5: 0x0039 [0x24] CREATE_DIALOG(message_id=10397*, default_option=0*, option_flags=0*)
    → "Pohppo-opo! [Opo?/...]"
  6: 0x0040 [0x25] WAIT_DIALOG_SELECT()
  7: 0x0041 [0x02] IF !(Work_Zone[0] == 0*) GOTO 0x0050
  8: 0x0049 [0x1D] PRINT_EVENT_MESSAGE(message_id=10402*)
    → "Opopoh-o..."
  9: 0x004C [0x23] WAIT_FOR_DIALOG_INTERACTION
 10: 0x004D [0x01] GOTO 0x005B
 11: 0x0050 [0x02] IF !(Work_Zone[0] == 1*) GOTO 0x005B
 12: 0x0058 [0x01] GOTO 0x005B

SUBROUTINE_005B:
 13: 0x005B [0x20] SET_CLI_EVENT_UC_FLAG: Unlock player control
 14: 0x005D [0x21] END_EVENT
 15: 0x005E [0x00] END_REQSTACK()
```

### Event 223

#### Metadata

| Field        | Value    |
|--------------|----------|
| Entrypoint   | 0x005F   |
| Data Size    | 30 bytes |
| Instructions | 11       |

```
      00 01 02 03 04 05 06 07  08 09 0A 0B 0C 0D 0E 0F
      -- -- -- -- -- -- -- --  -- -- -- -- -- -- -- --
0050:                                               42                 B
0060: 1E F0 FF FF 7F 6F 70 29  08 4C A0 0F 01 01 1D 06  .....op).L......
0070: 80 23 29 08 4C A0 0F 01  02 20 00 21 00           .#).L.... .!.   
```

#### Opcodes

```
  0: 0x005F [0x42] SET_CLI_EVENT_CANCEL_DATA()
  1: 0x0060 [0x1E] EventEntity looks at LocalPlayer and starts talking
  2: 0x0065 [0x6F] WAIT_FRAME_DELAY: Yield until WaitTime reaches zero
  3: 0x0066 [0x70] WAIT_ENTITY_RENDER_FLAG: Wait while EventEntity->Render.Flags3 bit 2 is set (cancel turn if not)
  4: 0x0067 [0x29] REQ_SET_WAIT(priority=0x08, entity_id=Popopp (ID: 17801292/0x010FA04C), tag_num=0x01)
  5: 0x006E [0x1D] PRINT_EVENT_MESSAGE(message_id=10408*)
    → "Opopopopo! Opo-opo! Oppo! Oppo-opo!"
  6: 0x0071 [0x23] WAIT_FOR_DIALOG_INTERACTION
  7: 0x0072 [0x29] REQ_SET_WAIT(priority=0x08, entity_id=Popopp (ID: 17801292/0x010FA04C), tag_num=0x02)
  8: 0x0079 [0x20] SET_CLI_EVENT_UC_FLAG: Unlock player control
  9: 0x007B [0x21] END_EVENT
 10: 0x007C [0x00] END_REQSTACK()
```

### Event 233

#### Metadata

| Field        | Value    |
|--------------|----------|
| Entrypoint   | 0x007D   |
| Data Size    | 24 bytes |
| Instructions | 13       |

```
      00 01 02 03 04 05 06 07  08 09 0A 0B 0C 0D 0E 0F
      -- -- -- -- -- -- -- --  -- -- -- -- -- -- -- --
0070:                                         42 1E F0               B..
0080: FF FF 7F 6F 70 1D 07 80  23 48 08 80 23 48 09 80  ...op...#H..#H..
0090: 23 20 00 21 00                                    # .!.           
```

#### Opcodes

```
  0: 0x007D [0x42] SET_CLI_EVENT_CANCEL_DATA()
  1: 0x007E [0x1E] EventEntity looks at LocalPlayer and starts talking
  2: 0x0083 [0x6F] WAIT_FRAME_DELAY: Yield until WaitTime reaches zero
  3: 0x0084 [0x70] WAIT_ENTITY_RENDER_FLAG: Wait while EventEntity->Render.Flags3 bit 2 is set (cancel turn if not)
  4: 0x0085 [0x1D] PRINT_EVENT_MESSAGE(message_id=10409*)
    → "Opi!? Opi-opi!?"
  5: 0x0088 [0x23] WAIT_FOR_DIALOG_INTERACTION
  6: 0x0089 [0x48] [System] [10410*]:
    → "It seems as if you handed the Opo-opos the items in the wrong order."
  7: 0x008C [0x23] WAIT_FOR_DIALOG_INTERACTION
  8: 0x008D [0x48] [System] [10411*]:
    → "Now you have to start again from the beginning..."
  9: 0x0090 [0x23] WAIT_FOR_DIALOG_INTERACTION
 10: 0x0091 [0x20] SET_CLI_EVENT_UC_FLAG: Unlock player control
 11: 0x0093 [0x21] END_EVENT
 12: 0x0094 [0x00] END_REQSTACK()
```

### Event 246

#### Metadata

| Field        | Value    |
|--------------|----------|
| Entrypoint   | 0x0095   |
| Data Size    | 29 bytes |
| Instructions | 10       |

```
      00 01 02 03 04 05 06 07  08 09 0A 0B 0C 0D 0E 0F
      -- -- -- -- -- -- -- --  -- -- -- -- -- -- -- --
0090:                1E F0 FF  FF 7F 6F 70 29 08 4C A0       .....op).L.
00A0: 0F 01 01 1D 0A 80 23 29  08 4C A0 0F 01 02 20 00  ......#).L.... .
00B0: 21 00                                             !.              
```

#### Opcodes

```
  0: 0x0095 [0x1E] EventEntity looks at LocalPlayer and starts talking
  1: 0x009A [0x6F] WAIT_FRAME_DELAY: Yield until WaitTime reaches zero
  2: 0x009B [0x70] WAIT_ENTITY_RENDER_FLAG: Wait while EventEntity->Render.Flags3 bit 2 is set (cancel turn if not)
  3: 0x009C [0x29] REQ_SET_WAIT(priority=0x08, entity_id=Popopp (ID: 17801292/0x010FA04C), tag_num=0x01)
  4: 0x00A3 [0x1D] PRINT_EVENT_MESSAGE(message_id=10454*)
    → "Opo-opo! Ohppo-opo!"
  5: 0x00A6 [0x23] WAIT_FOR_DIALOG_INTERACTION
  6: 0x00A7 [0x29] REQ_SET_WAIT(priority=0x08, entity_id=Popopp (ID: 17801292/0x010FA04C), tag_num=0x02)
  7: 0x00AE [0x20] SET_CLI_EVENT_UC_FLAG: Unlock player control
  8: 0x00B0 [0x21] END_EVENT
  9: 0x00B1 [0x00] END_REQSTACK()
```

### Event 241

#### Metadata

| Field        | Value    |
|--------------|----------|
| Entrypoint   | 0x00B2   |
| Data Size    | 12 bytes |
| Instructions | 3        |

```
      00 01 02 03 04 05 06 07  08 09 0A 0B 0C 0D 0E 0F
      -- -- -- -- -- -- -- --  -- -- -- -- -- -- -- --
00B0:       22 01 37 0B 80 0C  80 0D 80 0E 80 00          ".7.........  
```

#### Opcodes

```
  0: 0x00B2 [0x22] ENTITY_HIDE_FLAG(enabled=0x01)
  1: 0x00B4 [0x37] UPDATE_EVENT_POSITION_AND_DIR: x=42.673*, z=-175.121*, y=-11.000*, direction=132.9°*
  2: 0x00BD [0x00] END_REQSTACK()
```

### Event 65535.3

#### Metadata

| Field        | Value    |
|--------------|----------|
| Entrypoint   | 0x00BE   |
| Data Size    | 19 bytes |
| Instructions | 5        |

```
      00 01 02 03 04 05 06 07  08 09 0A 0B 0C 0D 0E 0F
      -- -- -- -- -- -- -- --  -- -- -- -- -- -- -- --
00B0:                                            29 08                ).
00C0: 4C A0 0F 01 01 1D 0F 80  23 29 08 4C A0 0F 01 02  L.......#).L....
00D0: 00                                                .               
```

#### Opcodes

```
  0: 0x00BE [0x29] REQ_SET_WAIT(priority=0x08, entity_id=Popopp (ID: 17801292/0x010FA04C), tag_num=0x01)
  1: 0x00C5 [0x1D] PRINT_EVENT_MESSAGE(message_id=10446*)
    → "Oppo-oppo! Opoh-popopoh-opoh! Opoh-popoh!"
  2: 0x00C8 [0x23] WAIT_FOR_DIALOG_INTERACTION
  3: 0x00C9 [0x29] REQ_SET_WAIT(priority=0x08, entity_id=Popopp (ID: 17801292/0x010FA04C), tag_num=0x02)
  4: 0x00D0 [0x00] END_REQSTACK()
```

### Event 65535.4

#### Metadata

| Field        | Value    |
|--------------|----------|
| Entrypoint   | 0x00D1   |
| Data Size    | 14 bytes |
| Instructions | 4        |

```
      00 01 02 03 04 05 06 07  08 09 0A 0B 0C 0D 0E 0F
      -- -- -- -- -- -- -- --  -- -- -- -- -- -- -- --
00D0:    32 10 80 1F 00 11 80  12 80 0D 80 1F 01 00      2............. 
```

#### Opcodes

```
  0: 0x00D1 [0x32] ExtData[1]->MainSpeed = 13* * 0.1
  1: 0x00D4 [0x1F] MOVE_ENTITY: EventEntity moves to X=46.115*, Z=-171.262*, Y=-11.000*
  2: 0x00DC [0x1F] MOVE_ENTITY: Update entity position (mode=1)
  3: 0x00DE [0x00] END_REQSTACK()
```
