# 17801324

## Common Data

| Field            | Value            |
|------------------|------------------|
| Zone             | Kazham (ID: 250) |
| Block Size       | 296 bytes        |
| Total Events     | 6                |
| References Count | 27               |

## List of Events

| Event ID                 | Entrypoint   |   Size |   Instructions |
|--------------------------|--------------|--------|----------------|
| [65535](#event-65535)    | 0x0000       |      1 |              1 |
| [273](#event-273)        | 0x0001       |      7 |              2 |
| [65535.1](#event-655351) | 0x0008       |     61 |             10 |
| [65535.2](#event-655352) | 0x0045       |     10 |              2 |
| [65535.3](#event-655353) | 0x004F       |     67 |             14 |
| [65535.4](#event-655354) | 0x0092       |      1 |              1 |

## DAT References (imed_data)

|   Index | Hex Value   |   Dec Value |
|---------|-------------|-------------|
|       0 | 0x0000      |           0 |
|       1 | 0x140E2     |       82146 |
|       2 | 0xFFFE81CE  |  4294869454 |
|       3 | 0xFFFFC951  |  4294953297 |
|       4 | 0x0013      |          19 |
|       5 | 0x0002      |           2 |
|       6 | 0xFFFFB529  |  4294948137 |
|       7 | 0xFFFF737F  |  4294931327 |
|       8 | 0x0449      |        1097 |
|       9 | 0x0D2B      |        3371 |
|      10 | 0x0003      |           3 |
|      11 | 0xFFFF7F3C  |  4294934332 |
|      12 | 0xFFFF9817  |  4294940695 |
|      13 | 0x0A96      |        2710 |
|      14 | 0x0DC3      |        3523 |
|      15 | 0x3160      |       12640 |
|      16 | 0x4AB1      |       19121 |
|      17 | 0xFFFFA876  |  4294944886 |
|      18 | 0x0DFA      |        3578 |
|      19 | 0x000D      |          13 |
|      20 | 0x17578     |       95608 |
|      21 | 0xFFFE82C1  |  4294869697 |
|      22 | 0xFFFFCAA7  |  4294953639 |
|      23 | 0xFFFF9C96  |  4294941846 |
|      24 | 0xFFFFAF02  |  4294946562 |
|      25 | 0xFFFFAA65  |  4294945381 |
|      26 | 0x1514      |        5396 |

## Events

### Event 65535

#### Metadata

| Field        | Value   |
|--------------|---------|
| Entrypoint   | 0x0000  |
| Data Size    | 1 bytes |
| Instructions | 1       |

```
      00 01 02 03 04 05 06 07  08 09 0A 0B 0C 0D 0E 0F
      -- -- -- -- -- -- -- --  -- -- -- -- -- -- -- --
0000: 00                                                .               
```

#### Opcodes

```
  0: 0x0000 [0x00] END_REQSTACK()
```

### Event 273

#### Metadata

| Field        | Value   |
|--------------|---------|
| Entrypoint   | 0x0001  |
| Data Size    | 7 bytes |
| Instructions | 2       |

```
      00 01 02 03 04 05 06 07  08 09 0A 0B 0C 0D 0E 0F
      -- -- -- -- -- -- -- --  -- -- -- -- -- -- -- --
0000:    92 01 F8 FF FF 7F 00                            .......        
```

#### Opcodes

```
  0: 0x0001 [0x92] EventEntity->Render.Flags3 ^= 0x01
  1: 0x0007 [0x00] END_REQSTACK()
```

### Event 65535.1

#### Metadata

| Field        | Value    |
|--------------|----------|
| Entrypoint   | 0x0008   |
| Data Size    | 61 bytes |
| Instructions | 10       |

```
      00 01 02 03 04 05 06 07  08 09 0A 0B 0C 0D 0E 0F
      -- -- -- -- -- -- -- --  -- -- -- -- -- -- -- --
0000:                          02 04 10 00 80 80 1C 00          ........
0010: 37 01 80 02 80 03 80 04  80 01 44 00 02 04 10 05  7.........D.....
0020: 80 80 30 00 37 06 80 07  80 08 80 09 80 01 44 00  ..0.7.........D.
0030: 02 04 10 0A 80 80 44 00  37 0B 80 0C 80 0D 80 0E  ......D.7.......
0040: 80 01 44 00 00                                    ..D..           
```

#### Opcodes

```
  0: 0x0008 [0x02] IF !(Work_Zone[4] == 0*) GOTO 0x001C
  1: 0x0010 [0x37] UPDATE_EVENT_POSITION_AND_DIR: x=82.146*, z=-97.842*, y=-13.999*, direction=1.7째*
  2: 0x0019 [0x01] GOTO 0x0044
  3: 0x001C [0x02] IF !(Work_Zone[4] == 2*) GOTO 0x0030
  4: 0x0024 [0x37] UPDATE_EVENT_POSITION_AND_DIR: x=-19.159*, z=-35.969*, y=1.097*, direction=296.3째*
  5: 0x002D [0x01] GOTO 0x0044
  6: 0x0030 [0x02] IF !(Work_Zone[4] == 3*) GOTO 0x0044
  7: 0x0038 [0x37] UPDATE_EVENT_POSITION_AND_DIR: x=-32.964*, z=-26.601*, y=2.710*, direction=309.6째*
  8: 0x0041 [0x01] GOTO 0x0044

SUBROUTINE_0044:
  9: 0x0044 [0x00] END_REQSTACK()
```

### Event 65535.2

#### Metadata

| Field        | Value    |
|--------------|----------|
| Entrypoint   | 0x0045   |
| Data Size    | 10 bytes |
| Instructions | 2        |

```
      00 01 02 03 04 05 06 07  08 09 0A 0B 0C 0D 0E 0F
      -- -- -- -- -- -- -- --  -- -- -- -- -- -- -- --
0040:                37 0F 80  10 80 11 80 12 80 00          7......... 
```

#### Opcodes

```
  0: 0x0045 [0x37] UPDATE_EVENT_POSITION_AND_DIR: x=12.640*, z=19.121*, y=-22.410*, direction=314.5째*
  1: 0x004E [0x00] END_REQSTACK()
```

### Event 65535.3

#### Metadata

| Field        | Value    |
|--------------|----------|
| Entrypoint   | 0x004F   |
| Data Size    | 67 bytes |
| Instructions | 14       |

```
      00 01 02 03 04 05 06 07  08 09 0A 0B 0C 0D 0E 0F
      -- -- -- -- -- -- -- --  -- -- -- -- -- -- -- --
0040:                                               32                 2
0050: 13 80 02 04 10 00 80 80  67 00 1F 00 14 80 15 80  ........g.......
0060: 03 80 1F 01 01 91 00 02  04 10 05 80 80 7C 00 1F  .............|..
0070: 00 16 80 17 80 08 80 1F  01 01 91 00 02 04 10 0A  ................
0080: 80 80 91 00 1F 00 18 80  19 80 1A 80 1F 01 01 91  ................
0090: 00 00                                             ..              
```

#### Opcodes

```
  0: 0x004F [0x32] ExtData[1]->MainSpeed = 13* * 0.1
  1: 0x0052 [0x02] IF !(Work_Zone[4] == 0*) GOTO 0x0067
  2: 0x005A [0x1F] MOVE_ENTITY: EventEntity moves to X=95.608*, Z=-97.599*, Y=-13.999*
  3: 0x0062 [0x1F] MOVE_ENTITY: Update entity position (mode=1)
  4: 0x0064 [0x01] GOTO 0x0091
  5: 0x0067 [0x02] IF !(Work_Zone[4] == 2*) GOTO 0x007C
  6: 0x006F [0x1F] MOVE_ENTITY: EventEntity moves to X=-13.657*, Z=-25.450*, Y=1.097*
  7: 0x0077 [0x1F] MOVE_ENTITY: Update entity position (mode=1)
  8: 0x0079 [0x01] GOTO 0x0091
  9: 0x007C [0x02] IF !(Work_Zone[4] == 3*) GOTO 0x0091
 10: 0x0084 [0x1F] MOVE_ENTITY: EventEntity moves to X=-20.734*, Z=-21.915*, Y=5.396*
 11: 0x008C [0x1F] MOVE_ENTITY: Update entity position (mode=1)
 12: 0x008E [0x01] GOTO 0x0091

SUBROUTINE_0091:
 13: 0x0091 [0x00] END_REQSTACK()
```

### Event 65535.4

#### Metadata

| Field        | Value   |
|--------------|---------|
| Entrypoint   | 0x0092  |
| Data Size    | 1 bytes |
| Instructions | 1       |

```
      00 01 02 03 04 05 06 07  08 09 0A 0B 0C 0D 0E 0F
      -- -- -- -- -- -- -- --  -- -- -- -- -- -- -- --
0090:       00                                            .             
```

#### Opcodes

```
  0: 0x0092 [0x00] END_REQSTACK()
```
