# 17801272 - Kaizoku03

## Common Data

| Field            | Value            |
|------------------|------------------|
| Zone             | Kazham (ID: 250) |
| Block Size       | 216 bytes        |
| Total Events     | 9                |
| References Count | 15               |

## List of Events

| Event ID                 | Entrypoint   |   Size |   Instructions |
|--------------------------|--------------|--------|----------------|
| [65535](#event-65535)    | 0x0000       |      1 |              1 |
| [148](#event-148)        | 0x0001       |      7 |              2 |
| [65535.1](#event-655351) | 0x0008       |     17 |              5 |
| [65535.2](#event-655352) | 0x0019       |     17 |              5 |
| [65535.3](#event-655353) | 0x002A       |      9 |              3 |
| [65535.4](#event-655354) | 0x0033       |      9 |              3 |
| [65535.5](#event-655355) | 0x003C       |      9 |              3 |
| [65535.6](#event-655356) | 0x0045       |      9 |              3 |
| [65535.7](#event-655357) | 0x004E       |     24 |              6 |

## DAT References (imed_data)

|   Index | Hex Value   |   Dec Value |
|---------|-------------|-------------|
|       0 | 0x2838      |       10296 |
|       1 | 0x2839      |       10297 |
|       2 | 0x283A      |       10298 |
|       3 | 0x283B      |       10299 |
|       4 | 0x283C      |       10300 |
|       5 | 0x283D      |       10301 |
|       6 | 0x283E      |       10302 |
|       7 | 0x283F      |       10303 |
|       8 | 0x0028      |          40 |
|       9 | 0x24B6      |        9398 |
|      10 | 0x1737B     |       95099 |
|      11 | 0x01B6      |         438 |
|      12 | 0x3125      |       12581 |
|      13 | 0x19E8C     |      106124 |
|      14 | 0x0057      |          87 |

## Events

### Event 65535

#### Metadata

| Field        | Value   |
|--------------|---------|
| Entrypoint   | 0x0000  |
| Data Size    | 1 bytes |
| Instructions | 1       |

```
      00 01 02 03 04 05 06 07  08 09 0A 0B 0C 0D 0E 0F
      -- -- -- -- -- -- -- --  -- -- -- -- -- -- -- --
0000: 00                                                .               
```

#### Opcodes

```
  0: 0x0000 [0x00] END_REQSTACK()
```

### Event 148

#### Metadata

| Field        | Value   |
|--------------|---------|
| Entrypoint   | 0x0001  |
| Data Size    | 7 bytes |
| Instructions | 2       |

```
      00 01 02 03 04 05 06 07  08 09 0A 0B 0C 0D 0E 0F
      -- -- -- -- -- -- -- --  -- -- -- -- -- -- -- --
0000:    92 01 F8 FF FF 7F 00                            .......        
```

#### Opcodes

```
  0: 0x0001 [0x92] EventEntity->Render.Flags3 ^= 0x01
  1: 0x0007 [0x00] END_REQSTACK()
```

### Event 65535.1

#### Metadata

| Field        | Value    |
|--------------|----------|
| Entrypoint   | 0x0008   |
| Data Size    | 17 bytes |
| Instructions | 5        |

```
      00 01 02 03 04 05 06 07  08 09 0A 0B 0C 0D 0E 0F
      -- -- -- -- -- -- -- --  -- -- -- -- -- -- -- --
0000:                          2B 2E A0 0F 01 00 80 23          +......#
0010: 2B 2E A0 0F 01 01 80 23  00                       +......#.       
```

#### Opcodes

```
  0: 0x0008 [0x2B] Magriffon (ID: 17801262/0x010FA02E) [10296*]:
    → "The other day, I was exploring the cave that is said to lead to their hideout..."
  1: 0x000F [0x23] WAIT_FOR_DIALOG_INTERACTION
  2: 0x0010 [0x2B] Magriffon (ID: 17801262/0x010FA02E) [10297*]:
    → "...when I thought I heard a faint scream. I could not ignore this cry for help, and continued in the direction of the voice."
  3: 0x0017 [0x23] WAIT_FOR_DIALOG_INTERACTION
  4: 0x0018 [0x00] END_REQSTACK()
```

### Event 65535.2

#### Metadata

| Field        | Value    |
|--------------|----------|
| Entrypoint   | 0x0019   |
| Data Size    | 17 bytes |
| Instructions | 5        |

```
      00 01 02 03 04 05 06 07  08 09 0A 0B 0C 0D 0E 0F
      -- -- -- -- -- -- -- --  -- -- -- -- -- -- -- --
0010:                             2B 2E A0 0F 01 02 80           +......
0020: 23 2B 2E A0 0F 01 03 80  23 00                    #+......#.      
```

#### Opcodes

```
  0: 0x0019 [0x2B] Magriffon (ID: 17801262/0x010FA02E) [10298*]:
    → "That is when I saw her running towards me--a noble-looking woman in a bright green dress."
  1: 0x0020 [0x23] WAIT_FOR_DIALOG_INTERACTION
  2: 0x0021 [0x2B] Magriffon (ID: 17801262/0x010FA02E) [10299*]:
    → "She appeared to have been running for quite a distance. When she caught her breath she told me the following:"
  3: 0x0028 [0x23] WAIT_FOR_DIALOG_INTERACTION
  4: 0x0029 [0x00] END_REQSTACK()
```

### Event 65535.3

#### Metadata

| Field        | Value   |
|--------------|---------|
| Entrypoint   | 0x002A  |
| Data Size    | 9 bytes |
| Instructions | 3       |

```
      00 01 02 03 04 05 06 07  08 09 0A 0B 0C 0D 0E 0F
      -- -- -- -- -- -- -- --  -- -- -- -- -- -- -- --
0020:                                2B 2E A0 0F 01 04            +.....
0030: 80 23 00                                          .#.             
```

#### Opcodes

```
  0: 0x002A [0x2B] Magriffon (ID: 17801262/0x010FA02E) [10300*]:
    → ""I am trying to escape from those evil men in Norg, but I think they are right behind me. Run, before they catch you talking with me.""
  1: 0x0031 [0x23] WAIT_FOR_DIALOG_INTERACTION
  2: 0x0032 [0x00] END_REQSTACK()
```

### Event 65535.4

#### Metadata

| Field        | Value   |
|--------------|---------|
| Entrypoint   | 0x0033  |
| Data Size    | 9 bytes |
| Instructions | 3       |

```
      00 01 02 03 04 05 06 07  08 09 0A 0B 0C 0D 0E 0F
      -- -- -- -- -- -- -- --  -- -- -- -- -- -- -- --
0030:          2B 2E A0 0F 01  05 80 23 00                 +......#.    
```

#### Opcodes

```
  0: 0x0033 [0x2B] Magriffon (ID: 17801262/0x010FA02E) [10301*]:
    → "However, as you know, my conscience would not allow me to do such a selfish act."
  1: 0x003A [0x23] WAIT_FOR_DIALOG_INTERACTION
  2: 0x003B [0x00] END_REQSTACK()
```

### Event 65535.5

#### Metadata

| Field        | Value   |
|--------------|---------|
| Entrypoint   | 0x003C  |
| Data Size    | 9 bytes |
| Instructions | 3       |

```
      00 01 02 03 04 05 06 07  08 09 0A 0B 0C 0D 0E 0F
      -- -- -- -- -- -- -- --  -- -- -- -- -- -- -- --
0030:                                      2B 2E A0 0F              +...
0040: 01 06 80 23 00                                    ...#.           
```

#### Opcodes

```
  0: 0x003C [0x2B] Magriffon (ID: 17801262/0x010FA02E) [10302*]:
    → "I moved in front of the mysterious woman and struck down her pursuers. Once I had handled every last one of them, I escorted the lady back to Kazham."
  1: 0x0043 [0x23] WAIT_FOR_DIALOG_INTERACTION
  2: 0x0044 [0x00] END_REQSTACK()
```

### Event 65535.6

#### Metadata

| Field        | Value   |
|--------------|---------|
| Entrypoint   | 0x0045  |
| Data Size    | 9 bytes |
| Instructions | 3       |

```
      00 01 02 03 04 05 06 07  08 09 0A 0B 0C 0D 0E 0F
      -- -- -- -- -- -- -- --  -- -- -- -- -- -- -- --
0040:                2B 2E A0  0F 01 07 80 23 00             +......#.  
```

#### Opcodes

```
  0: 0x0045 [0x2B] Magriffon (ID: 17801262/0x010FA02E) [10303*]:
    → "I nursed her until she regained enough of her strength to return to her homeland of Jeuno."
  1: 0x004C [0x23] WAIT_FOR_DIALOG_INTERACTION
  2: 0x004D [0x00] END_REQSTACK()
```

### Event 65535.7

#### Metadata

| Field        | Value    |
|--------------|----------|
| Entrypoint   | 0x004E   |
| Data Size    | 24 bytes |
| Instructions | 6        |

```
      00 01 02 03 04 05 06 07  08 09 0A 0B 0C 0D 0E 0F
      -- -- -- -- -- -- -- --  -- -- -- -- -- -- -- --
0040:                                            32 08                2.
0050: 80 1F 00 09 80 0A 80 0B  80 1F 01 1F 00 0C 80 0D  ................
0060: 80 0E 80 1F 01 00                                 ......          
```

#### Opcodes

```
  0: 0x004E [0x32] ExtData[1]->MainSpeed = 40* * 0.1
  1: 0x0051 [0x1F] MOVE_ENTITY: EventEntity moves to X=9.398*, Z=95.099*, Y=0.438*
  2: 0x0059 [0x1F] MOVE_ENTITY: Update entity position (mode=1)
  3: 0x005B [0x1F] MOVE_ENTITY: EventEntity moves to X=12.581*, Z=106.124*, Y=0.087*
  4: 0x0063 [0x1F] MOVE_ENTITY: Update entity position (mode=1)
  5: 0x0065 [0x00] END_REQSTACK()
```
