# 17801353

## Common Data

| Field            | Value            |
|------------------|------------------|
| Zone             | Kazham (ID: 250) |
| Block Size       | 1592 bytes       |
| Total Events     | 3                |
| References Count | 34               |

## List of Events

| Event ID              | Entrypoint   |   Size |   Instructions |
|-----------------------|--------------|--------|----------------|
| [65535](#event-65535) | 0x0000       |      1 |              1 |
| [313](#event-313)     | 0x0001       |    549 |             79 |
| [315](#event-315)     | 0x0226       |    877 |             96 |

## DAT References (imed_data)

|   Index | Hex Value   |   Dec Value |
|---------|-------------|-------------|
|       0 | 0x0013      |          19 |
|       1 | 0xFFFF0AD7  |  4294904535 |
|       2 | 0xFFFEBFE9  |  4294885353 |
|       3 | 0xFFFFD8F1  |  4294957297 |
|       4 | 0x073F      |        1855 |
|       5 | 0x001E      |          30 |
|       6 | 0x0158      |         344 |
|       7 | 0x0000      |           0 |
|       8 | 0x2B20      |       11040 |
|       9 | 0x2B21      |       11041 |
|      10 | 0x005A      |          90 |
|      11 | 0x2B22      |       11042 |
|      12 | 0x0079      |         121 |
|      13 | 0x0001      |           1 |
|      14 | 0x0016      |          22 |
|      15 | 0x2B23      |       11043 |
|      16 | 0x2B24      |       11044 |
|      17 | 0x0002      |           2 |
|      18 | 0x001A      |          26 |
|      19 | 0x2B27      |       11047 |
|      20 | 0x0078      |         120 |
|      21 | 0x002D      |          45 |
|      22 | 0x2B28      |       11048 |
|      23 | 0x2B29      |       11049 |
|      24 | 0x2B2A      |       11050 |
|      25 | 0x000D      |          13 |
|      26 | 0x2B2B      |       11051 |
|      27 | 0x000F      |          15 |
|      28 | 0x00C8      |         200 |
|      29 | 0x2B25      |       11045 |
|      30 | 0x0014      |          20 |
|      31 | 0x2B26      |       11046 |
|      32 | 0x00C9      |         201 |
|      33 | 0x00D7      |         215 |

## String References

- **11042**: What will you do? [Nothing for now./Ask a bunch of questions./Participate in Voidwatch Ops./Request debriefing./Request $3./Check voidstone stock./Request reward issuance.]

## Events

### Event 65535

#### Metadata

| Field        | Value   |
|--------------|---------|
| Entrypoint   | 0x0000  |
| Data Size    | 1 bytes |
| Instructions | 1       |

```
      00 01 02 03 04 05 06 07  08 09 0A 0B 0C 0D 0E 0F
      -- -- -- -- -- -- -- --  -- -- -- -- -- -- -- --
0000: 00                                                .               
```

#### Opcodes

```
  0: 0x0000 [0x00] END_REQSTACK()
```

### Event 313

#### Metadata

| Field        | Value     |
|--------------|-----------|
| Entrypoint   | 0x0001    |
| Data Size    | 549 bytes |
| Instructions | 69        |

```
      00 01 02 03 04 05 06 07  08 09 0A 0B 0C 0D 0E 0F
      -- -- -- -- -- -- -- --  -- -- -- -- -- -- -- --
0000:    42 1A 65 03 46 01 38  00 80 94 01 F0 FF FF 7F   B.e.F.8........
0010: 94 01 88 A0 0F 01 BA F0  FF FF 7F 01 80 02 80 03  ................
0020: 80 04 80 80 F0 FF FF 7F  80 88 A0 0F 01 4A F0 FF  .............J..
0030: FF 7F 88 A0 0F 01 4A 88  A0 0F 01 F0 FF FF 7F 6F  ......J........o
0040: 76 88 A0 0F 01 1C 05 80  45 06 80 F0 FF FF 7F F0  v.......E.......
0050: FF FF 7F 7A 6B 30 31 07  80 1A 44 03 29 10 F0 FF  ...zk01...D.)...
0060: FF 7F 2C 2B 88 A0 0F 01  08 80 23 66 00 80 88 A0  ..,+......#f....
0070: 0F 01 88 A0 0F 01 74 6C  6B 30 2B 88 A0 0F 01 09  ......tlk0+.....
0080: 80 1C 0A 80 23 66 00 80  88 A0 0F 01 88 A0 0F 01  ....#f..........
0090: 74 6C 6B 31 53 88 A0 0F  01 88 A0 0F 01 74 6C 6B  tlk1S........tlk
00A0: 31 24 0B 80 07 80 0C 80  25 02 00 10 0D 80 00 13  1$......%.......
00B0: 01 52 06 80 F0 FF FF 7F  F0 FF FF 7F 7A 6B 30 31  .R..........zk01
00C0: 45 06 80 F0 FF FF 7F F0  FF FF 7F 7A 6B 30 32 07  E..........zk02.
00D0: 80 6E 88 A0 0F 01 0E 80  99 88 A0 0F 01 2B 88 A0  .n...........+..
00E0: 0F 01 0F 80 23 2B 88 A0  0F 01 10 80 23 52 06 80  ....#+......#R..
00F0: F0 FF FF 7F F0 FF FF 7F  7A 6B 30 32 45 06 80 F0  ........zk02E...
0100: FF FF 7F F0 FF FF 7F 7A  6B 30 31 07 80 01 A1 00  .......zk01.....
0110: 01 55 01 02 00 10 11 80  00 55 01 52 06 80 F0 FF  .U.......U.R....
0120: FF 7F F0 FF FF 7F 7A 6B  30 31 45 06 80 F0 FF FF  ......zk01E.....
0130: 7F F0 FF FF 7F 7A 6B 30  33 07 80 6E 88 A0 0F 01  .....zk03..n....
0140: 12 80 99 88 A0 0F 01 2B  88 A0 0F 01 13 80 1C 14  .......+........
0150: 80 23 01 55 01 7B 88 A0  0F 01 66 00 80 88 A0 0F  .#.U.{....f.....
0160: 01 88 A0 0F 01 74 68 6B  31 1C 15 80 2B 88 A0 0F  .....thk1...+...
0170: 01 16 80 1C 14 80 23 79  00 88 A0 0F 01 F0 FF FF  ......#y........
0180: 7F 66 00 80 88 A0 0F 01  88 A0 0F 01 74 68 6B 32  .f..........thk2
0190: 2B 88 A0 0F 01 17 80 23  53 88 A0 0F 01 88 A0 0F  +......#S.......
01A0: 01 74 68 6B 32 52 06 80  F0 FF FF 7F F0 FF FF 7F  .thk2R..........
01B0: 7A 6B 30 33 45 06 80 F0  FF FF 7F F0 FF FF 7F 7A  zk03E..........z
01C0: 6B 30 34 07 80 2B 88 A0  0F 01 18 80 23 6E 88 A0  k04..+......#n..
01D0: 0F 01 19 80 99 88 A0 0F  01 2B 88 A0 0F 01 1A 80  .........+......
01E0: 23 1A 65 03 1C 05 80 52  06 80 F0 FF FF 7F F0 FF  #.e....R........
01F0: FF 7F 7A 6B 30 34 45 06  80 F0 FF FF 7F F0 FF FF  ..zk04E.........
0200: 7F 30 62 6C 66 07 80 1C  1B 80 AB 11 07 80 1C 0D  .0blf...........
0210: 80 46 00 45 1C 80 F0 FF  FF 7F F0 FF FF 7F 66 64  .F.E..........fd
0220: 69 32 07 80 21 00                                 i2..!.          
```

#### Opcodes

```
  0: 0x0001 [0x42] SET_CLI_EVENT_CANCEL_DATA()
  1: 0x0002 [0x1A] CALL_SUBROUTINE(address=0x0365)
  2: 0x0005 [0x46] CAMERA_CONTROL: Disable user control
  3: 0x0007 [0x38] SET_CLIENT_EVENT_MODE(mode=19*)
  4: 0x000A [0x94] LocalPlayer->Render.Flags3 ^= 0x01
  5: 0x0010 [0x94] Hildegard (ID: 17801352/0x010FA088)->Render.Flags3 ^= 0x01
  6: 0x0016 [0xBA] SET_ENTITY_POSITION(entity_id=LocalPlayer, pos_x=-62.761*, pos_z=-81.943*, pos_y=-9.999*, direction=163.0°*)
  7: 0x0023 [0x80] LOAD_WAIT(entity=LocalPlayer)
  8: 0x0028 [0x80] LOAD_WAIT(entity=Hildegard (ID: 17801352/0x010FA088))
  9: 0x002D [0x4A] LocalPlayer looks at Hildegard (ID: 17801352/0x010FA088)
 10: 0x0036 [0x4A] Hildegard (ID: 17801352/0x010FA088) looks at LocalPlayer
 11: 0x003F [0x6F] WAIT_FRAME_DELAY: Yield until WaitTime reaches zero
 12: 0x0040 [0x76] CHECK_ENTITY_RENDER_FLAGS: Wait until Hildegard (ID: 17801352/0x010FA088) Render.Flags0 and Render.Flags3 conditions are met
 13: 0x0045 [0x1C] WAIT(30* ticks)
 14: 0x0048 [0x45] LOAD_SCHEDULED_TASK: Load scheduler "zk01" with entities [LocalPlayer, LocalPlayer], work=[344*, 0*]
 15: 0x0059 [0x1A] CALL_SUBROUTINE(address=0x0344)
 16: 0x005C [0x29] REQ_SET_WAIT(priority=0x10, entity_id=LocalPlayer, tag_num=0x2C)
 17: 0x0063 [0x2B] Hildegard (ID: 17801352/0x010FA088) [11040*]:
    → "Hm? Oh, so you're that <Player> I've heard so much about. It certainly took you long enough. Did you fall faint from a head wound along the way?"
 18: 0x006A [0x23] WAIT_FOR_DIALOG_INTERACTION
 19: 0x006B [0x66] LOAD_EXT_SCHEDULER_MAIN: Load scheduler "tlk0" with entities [Hildegard (ID: 17801352/0x010FA088), Hildegard (ID: 17801352/0x010FA088)], work=19*
 20: 0x007A [0x2B] Hildegard (ID: 17801352/0x010FA088) [11041*]:
    → "But enough chin-wagging. Let us slice open the matter at hand to reveal its pulsating innards."
 21: 0x0081 [0x1C] WAIT(90* ticks)
 22: 0x0084 [0x23] WAIT_FOR_DIALOG_INTERACTION
 23: 0x0085 [0x66] LOAD_EXT_SCHEDULER_MAIN: Load scheduler "tlk1" with entities [Hildegard (ID: 17801352/0x010FA088), Hildegard (ID: 17801352/0x010FA088)], work=19*
 24: 0x0094 [0x53] WAIT_SCHEDULER_TASK: Wait for scheduler "tlk1" with entities [Hildegard (ID: 17801352/0x010FA088), Hildegard (ID: 17801352/0x010FA088)]
 25: 0x00A1 [0x24] CREATE_DIALOG(message_id=11042*, default_option=0*, option_flags=121*)
    → "What will you do? [Nothing for now./Ask a bunch of questions./Participate in Voidwatch Ops./Request debriefing./Request $3./Check voidstone stock./Request reward issuance.]"
 26: 0x00A8 [0x25] WAIT_DIALOG_SELECT()
 27: 0x00A9 [0x02] IF !(Work_Zone[0] == 1*) GOTO 0x0113
 28: 0x00B1 [0x52] END_LOAD_SCHEDULER: End scheduler "zk01" with entities [LocalPlayer, LocalPlayer], work=344*
 29: 0x00C0 [0x45] LOAD_SCHEDULED_TASK: Load scheduler "zk02" with entities [LocalPlayer, LocalPlayer], work=[344*, 0*]
 30: 0x00D1 [0x6E] Hildegard (ID: 17801352/0x010FA088) uses emote 22*
 31: 0x00D8 [0x99] Wait for Hildegard (ID: 17801352/0x010FA088) animation to complete
 32: 0x00DD [0x2B] Hildegard (ID: 17801352/0x010FA088) [11043*]:
    → "Your sundry questions force my thoughts to wander... Back to the metallic flavor of that crimson, esprit-effusing ambrosia as it assaults my tongue drop by drop..."
 33: 0x00E4 [0x23] WAIT_FOR_DIALOG_INTERACTION
 34: 0x00E5 [0x2B] Hildegard (ID: 17801352/0x010FA088) [11044*]:
    → "Anyhow, no one explains much to me. They never seem to stick around long enough. Please discuss such matters with a Voidwatch Officer. They'd know more than I, and many of them have voluminous, visible veins that throb with each heartbeat, the blood inside rapping against the walls of its prison..."
 35: 0x00EC [0x23] WAIT_FOR_DIALOG_INTERACTION
 36: 0x00ED [0x52] END_LOAD_SCHEDULER: End scheduler "zk02" with entities [LocalPlayer, LocalPlayer], work=344*
 37: 0x00FC [0x45] LOAD_SCHEDULED_TASK: Load scheduler "zk01" with entities [LocalPlayer, LocalPlayer], work=[344*, 0*]
 38: 0x010D [0x01] GOTO 0x00A1

SUBROUTINE_0155:
 39: 0x0155 [0x7B] Hildegard (ID: 17801352/0x010FA088) stops talking
 40: 0x015A [0x66] LOAD_EXT_SCHEDULER_MAIN: Load scheduler "thk1" with entities [Hildegard (ID: 17801352/0x010FA088), Hildegard (ID: 17801352/0x010FA088)], work=19*
 41: 0x0169 [0x1C] WAIT(45* ticks)
 42: 0x016C [0x2B] Hildegard (ID: 17801352/0x010FA088) [11048*]:
    → "Please carry out your mission at the following locales: Yuhtunga Jungle, Ifrit's Cauldron, and the Temple of Uggalepih."
 43: 0x0173 [0x1C] WAIT(120* ticks)
 44: 0x0176 [0x23] WAIT_FOR_DIALOG_INTERACTION
 45: 0x0177 [0x79] Hildegard (ID: 17801352/0x010FA088) looks at LocalPlayer (Basic look)
 46: 0x0181 [0x66] LOAD_EXT_SCHEDULER_MAIN: Load scheduler "thk2" with entities [Hildegard (ID: 17801352/0x010FA088), Hildegard (ID: 17801352/0x010FA088)], work=19*
 47: 0x0190 [0x2B] Hildegard (ID: 17801352/0x010FA088) [11049*]:
    → "Worry not about the order of your objectives, so long as you complete them by bashing in your targets' brains, exposing the smooth slime inside that leaves a thick film upon my tongue as I slurp it... Many pardons."
 48: 0x0197 [0x23] WAIT_FOR_DIALOG_INTERACTION
 49: 0x0198 [0x53] WAIT_SCHEDULER_TASK: Wait for scheduler "thk2" with entities [Hildegard (ID: 17801352/0x010FA088), Hildegard (ID: 17801352/0x010FA088)]
 50: 0x01A5 [0x52] END_LOAD_SCHEDULER: End scheduler "zk03" with entities [LocalPlayer, LocalPlayer], work=344*
 51: 0x01B4 [0x45] LOAD_SCHEDULED_TASK: Load scheduler "zk04" with entities [LocalPlayer, LocalPlayer], work=[344*, 0*]
 52: 0x01C5 [0x2B] Hildegard (ID: 17801352/0x010FA088) [11050*]:
    → "Now deploy to those areas I mentioned and make our magnificent Voidwatch proud!"
 53: 0x01CC [0x23] WAIT_FOR_DIALOG_INTERACTION
 54: 0x01CD [0x6E] Hildegard (ID: 17801352/0x010FA088) uses emote 13*
 55: 0x01D4 [0x99] Wait for Hildegard (ID: 17801352/0x010FA088) animation to complete
 56: 0x01D9 [0x2B] Hildegard (ID: 17801352/0x010FA088) [11051*]:
    → "May you slay numerous enemies and scatter their remains across the four directions!"
 57: 0x01E0 [0x23] WAIT_FOR_DIALOG_INTERACTION
 58: 0x01E1 [0x1A] CALL_SUBROUTINE(address=0x0365)
 59: 0x01E4 [0x1C] WAIT(30* ticks)
 60: 0x01E7 [0x52] END_LOAD_SCHEDULER: End scheduler "zk04" with entities [LocalPlayer, LocalPlayer], work=344*
 61: 0x01F6 [0x45] LOAD_SCHEDULED_TASK: Load scheduler "0blf" with entities [LocalPlayer, LocalPlayer], work=[344*, 0*]
 62: 0x0207 [0x1C] WAIT(15* ticks)
 63: 0x020A [0xAB] EventEntity->DespawnValue = 0* // Set despawn value
 64: 0x020E [0x1C] WAIT(1* ticks)
 65: 0x0211 [0x46] CAMERA_CONTROL: Restore default settings
 66: 0x0213 [0x45] LOAD_SCHEDULED_TASK: Load scheduler "fdi2" with entities [LocalPlayer, LocalPlayer], work=[200*, 0*]
 67: 0x0224 [0x21] END_EVENT
 68: 0x0225 [0x00] END_REQSTACK()
```

#### Data or dead code:

```
# Dead code (unreachable instructions):
     0x0110 [0x01] GOTO 0x0155
```

### Event 315

#### Metadata

| Field        | Value     |
|--------------|-----------|
| Entrypoint   | 0x0226    |
| Data Size    | 877 bytes |
| Instructions | 41        |

```
      00 01 02 03 04 05 06 07  08 09 0A 0B 0C 0D 0E 0F
      -- -- -- -- -- -- -- --  -- -- -- -- -- -- -- --
0220:                   42 1A  65 03 46 01 38 00 80 94        B.e.F.8...
0230: 01 F0 FF FF 7F 94 01 88  A0 0F 01 BA F0 FF FF 7F  ................
0240: 01 80 02 80 03 80 04 80  80 F0 FF FF 7F 80 88 A0  ................
0250: 0F 01 4A F0 FF FF 7F 88  A0 0F 01 4A 88 A0 0F 01  ..J........J....
0260: F0 FF FF 7F 6F 76 88 A0  0F 01 1C 05 80 45 06 80  ....ov.......E..
0270: F0 FF FF 7F F0 FF FF 7F  7A 6B 31 30 07 80 1A 44  ........zk10...D
0280: 03 2B 88 A0 0F 01 1D 80  23 52 06 80 F0 FF FF 7F  .+......#R......
0290: F0 FF FF 7F 7A 6B 31 30  45 06 80 F0 FF FF 7F F0  ....zk10E.......
02A0: FF FF 7F 7A 6B 31 31 07  80 6E 88 A0 0F 01 1E 80  ...zk11..n......
02B0: 99 88 A0 0F 01 2B 88 A0  0F 01 1F 80 23 1A 65 03  .....+......#.e.
02C0: 1C 05 80 52 06 80 F0 FF  FF 7F F0 FF FF 7F 7A 6B  ...R..........zk
02D0: 31 31 45 06 80 F0 FF FF  7F F0 FF FF 7F 30 62 6C  11E..........0bl
02E0: 66 07 80 1C 1B 80 AB 11  07 80 1C 0D 80 46 00 45  f............F.E
02F0: 1C 80 F0 FF FF 7F F0 FF  FF 7F 66 64 69 32 07 80  ..........fdi2..
0300: 21 00 45 1C 80 F0 FF FF  7F F0 FF FF 7F 66 64 69  !.E..........fdi
0310: 30 07 80 55 1C 80 F0 FF  FF 7F F0 FF FF 7F 66 64  0..U..........fd
0320: 69 30 1B 45 1C 80 F0 FF  FF 7F F0 FF FF 7F 66 64  i0.E..........fd
0330: 6F 30 07 80 55 1C 80 F0  FF FF 7F F0 FF FF 7F 66  o0..U..........f
0340: 64 6F 30 1B 45 1C 80 F0  FF FF 7F F0 FF FF 7F 66  do0.E..........f
0350: 64 69 31 07 80 55 1C 80  F0 FF FF 7F F0 FF FF 7F  di1..U..........
0360: 66 64 69 31 1B 45 1C 80  F0 FF FF 7F F0 FF FF 7F  fdi1.E..........
0370: 66 64 6F 31 07 80 55 1C  80 F0 FF FF 7F F0 FF FF  fdo1..U.........
0380: 7F 66 64 6F 31 1B 45 20  80 F0 FF FF 7F F0 FF FF  .fdo1.E ........
0390: 7F 77 68 69 31 07 80 55  20 80 F0 FF FF 7F F0 FF  .whi1..U .......
03A0: FF 7F 77 68 69 31 1B 45  20 80 F0 FF FF 7F F0 FF  ..whi1.E .......
03B0: FF 7F 77 68 6F 31 07 80  55 20 80 F0 FF FF 7F F0  ..who1..U ......
03C0: FF FF 7F 77 68 6F 31 1B  45 20 80 F0 FF FF 7F F0  ...who1.E ......
03D0: FF FF 7F 77 68 6F 32 07  80 55 20 80 F0 FF FF 7F  ...who2..U .....
03E0: F0 FF FF 7F 77 68 6F 32  1B 45 20 80 F0 FF FF 7F  ....who2.E .....
03F0: F0 FF FF 7F 77 68 6F 33  07 80 55 20 80 F0 FF FF  ....who3..U ....
0400: 7F F0 FF FF 7F 77 68 6F  33 1B 62 0D 80 F0 FF FF  .....who3.b.....
0410: 7F F0 FF FF 7F 6D 61 69  6E 07 80 1C 15 80 45 1C  .....main.....E.
0420: 80 F0 FF FF 7F F0 FF FF  7F 66 64 6F 31 07 80 55  .........fdo1..U
0430: 1C 80 F0 FF FF 7F F0 FF  FF 7F 66 64 6F 31 1B 45  ..........fdo1.E
0440: 1C 80 F0 FF FF 7F F0 FF  FF 7F 66 64 69 31 07 80  ..........fdi1..
0450: 62 11 80 F0 FF FF 7F F0  FF FF 7F 6D 61 69 6E 07  b..........main.
0460: 80 1C 05 80 55 1C 80 F0  FF FF 7F F0 FF FF 7F 66  ....U..........f
0470: 64 69 31 1B 45 1C 80 F0  FF FF 7F F0 FF FF 7F 62  di1.E..........b
0480: 6C 6F 6E 07 80 45 20 80  F0 FF FF 7F F0 FF FF 7F  lon..E .........
0490: 62 6C 6F 6E 07 80 1B 45  20 80 F0 FF FF 7F F0 FF  blon...E .......
04A0: FF 7F 77 68 69 30 07 80  55 20 80 F0 FF FF 7F F0  ..whi0..U ......
04B0: FF FF 7F 77 68 69 30 1B  45 20 80 F0 FF FF 7F F0  ...whi0.E ......
04C0: FF FF 7F 77 68 6F 30 07  80 55 20 80 F0 FF FF 7F  ...who0..U .....
04D0: F0 FF FF 7F 77 68 6F 30  1B 45 21 80 F0 FF FF 7F  ....who0.E!.....
04E0: F0 FF FF 7F 65 66 6F 6E  07 80 55 21 80 F0 FF FF  ....efon..U!....
04F0: 7F F0 FF FF 7F 65 66 6F  6E 1B 45 1C 80 F0 FF FF  .....efon.E.....
0500: 7F F0 FF FF 7F 66 64 69  73 07 80 1B 45 1C 80 F0  .....fdis...E...
0510: FF FF 7F F0 FF FF 7F 66  64 6F 73 07 80 55 1C 80  .......fdos..U..
0520: F0 FF FF 7F F0 FF FF 7F  66 64 6F 73 1B 45 1C 80  ........fdos.E..
0530: F0 FF FF 7F F0 FF FF 7F  66 64 69 66 07 80 1B 45  ........fdif...E
0540: 1C 80 F0 FF FF 7F F0 FF  FF 7F 66 64 6F 66 07 80  ..........fdof..
0550: 55 1C 80 F0 FF FF 7F F0  FF FF 7F 66 64 6F 66 1B  U..........fdof.
0560: 45 1C 80 F0 FF FF 7F F0  FF FF 7F 66 64 69 70 07  E..........fdip.
0570: 80 1B 45 1C 80 F0 FF FF  7F F0 FF FF 7F 66 64 6F  ..E..........fdo
0580: 70 07 80 55 1C 80 F0 FF  FF 7F F0 FF FF 7F 66 64  p..U..........fd
0590: 6F 70 1B                                          op.             
```

#### Opcodes

```
  0: 0x0226 [0x42] SET_CLI_EVENT_CANCEL_DATA()
  1: 0x0227 [0x1A] CALL_SUBROUTINE(address=0x0365)
  2: 0x022A [0x46] CAMERA_CONTROL: Disable user control
  3: 0x022C [0x38] SET_CLIENT_EVENT_MODE(mode=19*)
  4: 0x022F [0x94] LocalPlayer->Render.Flags3 ^= 0x01
  5: 0x0235 [0x94] Hildegard (ID: 17801352/0x010FA088)->Render.Flags3 ^= 0x01
  6: 0x023B [0xBA] SET_ENTITY_POSITION(entity_id=LocalPlayer, pos_x=-62.761*, pos_z=-81.943*, pos_y=-9.999*, direction=163.0°*)
  7: 0x0248 [0x80] LOAD_WAIT(entity=LocalPlayer)
  8: 0x024D [0x80] LOAD_WAIT(entity=Hildegard (ID: 17801352/0x010FA088))
  9: 0x0252 [0x4A] LocalPlayer looks at Hildegard (ID: 17801352/0x010FA088)
 10: 0x025B [0x4A] Hildegard (ID: 17801352/0x010FA088) looks at LocalPlayer
 11: 0x0264 [0x6F] WAIT_FRAME_DELAY: Yield until WaitTime reaches zero
 12: 0x0265 [0x76] CHECK_ENTITY_RENDER_FLAGS: Wait until Hildegard (ID: 17801352/0x010FA088) Render.Flags0 and Render.Flags3 conditions are met
 13: 0x026A [0x1C] WAIT(30* ticks)
 14: 0x026D [0x45] LOAD_SCHEDULED_TASK: Load scheduler "zk10" with entities [LocalPlayer, LocalPlayer], work=[344*, 0*]
 15: 0x027E [0x1A] CALL_SUBROUTINE(address=0x0344)
 16: 0x0281 [0x2B] Hildegard (ID: 17801352/0x010FA088) [11045*]:
    → "That flushed face of yours speaks volumes. You've done fine work, indeed. Beware not to clot your adventures by lingering on Elshimo. Follow the current to Zepwell Island, then circulate back to Norg upon completing your tasks there."
 17: 0x0288 [0x23] WAIT_FOR_DIALOG_INTERACTION
 18: 0x0289 [0x52] END_LOAD_SCHEDULER: End scheduler "zk10" with entities [LocalPlayer, LocalPlayer], work=344*
 19: 0x0298 [0x45] LOAD_SCHEDULED_TASK: Load scheduler "zk11" with entities [LocalPlayer, LocalPlayer], work=[344*, 0*]
 20: 0x02A9 [0x6E] Hildegard (ID: 17801352/0x010FA088) uses emote 20*
 21: 0x02B0 [0x99] Wait for Hildegard (ID: 17801352/0x010FA088) animation to complete
 22: 0x02B5 [0x2B] Hildegard (ID: 17801352/0x010FA088) [11046*]:
    → "Beyond that, I offer naught but visceral conjecture. However, proving you possess a bloodstained battle record and grisly determination may gain you entry to the bowels of truth."
 23: 0x02BC [0x23] WAIT_FOR_DIALOG_INTERACTION
 24: 0x02BD [0x1A] CALL_SUBROUTINE(address=0x0365)
 25: 0x02C0 [0x1C] WAIT(30* ticks)
 26: 0x02C3 [0x52] END_LOAD_SCHEDULER: End scheduler "zk11" with entities [LocalPlayer, LocalPlayer], work=344*
 27: 0x02D2 [0x45] LOAD_SCHEDULED_TASK: Load scheduler "0blf" with entities [LocalPlayer, LocalPlayer], work=[344*, 0*]
 28: 0x02E3 [0x1C] WAIT(15* ticks)
 29: 0x02E6 [0xAB] EventEntity->DespawnValue = 0* // Set despawn value
 30: 0x02EA [0x1C] WAIT(1* ticks)
 31: 0x02ED [0x46] CAMERA_CONTROL: Restore default settings
 32: 0x02EF [0x45] LOAD_SCHEDULED_TASK: Load scheduler "fdi2" with entities [LocalPlayer, LocalPlayer], work=[200*, 0*]
 33: 0x0300 [0x21] END_EVENT
 34: 0x0301 [0x00] END_REQSTACK()

SUBROUTINE_0344:
 35: 0x0344 [0x45] LOAD_SCHEDULED_TASK: Load scheduler "fdi1" with entities [LocalPlayer, LocalPlayer], work=[200*, 0*]
 36: 0x0355 [0x55] WAIT_LOAD_SCHEDULER: Wait for scheduler "fdi1" with entities [LocalPlayer, LocalPlayer], work=200*
 37: 0x0364 [0x1B] RETURN

SUBROUTINE_0365:
 38: 0x0365 [0x45] LOAD_SCHEDULED_TASK: Load scheduler "fdo1" with entities [LocalPlayer, LocalPlayer], work=[200*, 0*]
 39: 0x0376 [0x55] WAIT_LOAD_SCHEDULER: Wait for scheduler "fdo1" with entities [LocalPlayer, LocalPlayer], work=200*
 40: 0x0385 [0x1B] RETURN
```

#### Data or dead code:

```
# Dead code (unreachable instructions):
     0x0302 [0x45] LOAD_SCHEDULED_TASK: Load scheduler "fdi0" with entities [LocalPlayer, LocalPlayer], work=[200*, 0*]
     0x0313 [0x55] WAIT_LOAD_SCHEDULER: Wait for scheduler "fdi0" with entities [LocalPlayer, LocalPlayer], work=200*
     0x0322 [0x1B] RETURN
     0x0323 [0x45] LOAD_SCHEDULED_TASK: Load scheduler "fdo0" with entities [LocalPlayer, LocalPlayer], work=[200*, 0*]
     0x0334 [0x55] WAIT_LOAD_SCHEDULER: Wait for scheduler "fdo0" with entities [LocalPlayer, LocalPlayer], work=200*
     0x0343 [0x1B] RETURN
# Dead code (unreachable instructions):
     0x0386 [0x45] LOAD_SCHEDULED_TASK: Load scheduler "whi1" with entities [LocalPlayer, LocalPlayer], work=[201*, 0*]
     0x0397 [0x55] WAIT_LOAD_SCHEDULER: Wait for scheduler "whi1" with entities [LocalPlayer, LocalPlayer], work=201*
     0x03A6 [0x1B] RETURN
     0x03A7 [0x45] LOAD_SCHEDULED_TASK: Load scheduler "who1" with entities [LocalPlayer, LocalPlayer], work=[201*, 0*]
     0x03B8 [0x55] WAIT_LOAD_SCHEDULER: Wait for scheduler "who1" with entities [LocalPlayer, LocalPlayer], work=201*
     0x03C7 [0x1B] RETURN
     0x03C8 [0x45] LOAD_SCHEDULED_TASK: Load scheduler "who2" with entities [LocalPlayer, LocalPlayer], work=[201*, 0*]
     0x03D9 [0x55] WAIT_LOAD_SCHEDULER: Wait for scheduler "who2" with entities [LocalPlayer, LocalPlayer], work=201*
     0x03E8 [0x1B] RETURN
     0x03E9 [0x45] LOAD_SCHEDULED_TASK: Load scheduler "who3" with entities [LocalPlayer, LocalPlayer], work=[201*, 0*]
     0x03FA [0x55] WAIT_LOAD_SCHEDULER: Wait for scheduler "who3" with entities [LocalPlayer, LocalPlayer], work=201*
     0x0409 [0x1B] RETURN
     0x040A [0x62] LOAD_EVENT_SCHEDULER: Load scheduler "main" with entities [LocalPlayer, LocalPlayer], work=[1*, 0*]
     0x041B [0x1C] WAIT(45* ticks)
     0x041E [0x45] LOAD_SCHEDULED_TASK: Load scheduler "fdo1" with entities [LocalPlayer, LocalPlayer], work=[200*, 0*]
     0x042F [0x55] WAIT_LOAD_SCHEDULER: Wait for scheduler "fdo1" with entities [LocalPlayer, LocalPlayer], work=200*
     0x043E [0x1B] RETURN
     0x043F [0x45] LOAD_SCHEDULED_TASK: Load scheduler "fdi1" with entities [LocalPlayer, LocalPlayer], work=[200*, 0*]
     0x0450 [0x62] LOAD_EVENT_SCHEDULER: Load scheduler "main" with entities [LocalPlayer, LocalPlayer], work=[2*, 0*]
     0x0461 [0x1C] WAIT(30* ticks)
     0x0464 [0x55] WAIT_LOAD_SCHEDULER: Wait for scheduler "fdi1" with entities [LocalPlayer, LocalPlayer], work=200*
     0x0473 [0x1B] RETURN
     0x0474 [0x45] LOAD_SCHEDULED_TASK: Load scheduler "blon" with entities [LocalPlayer, LocalPlayer], work=[200*, 0*]
     0x0485 [0x45] LOAD_SCHEDULED_TASK: Load scheduler "blon" with entities [LocalPlayer, LocalPlayer], work=[201*, 0*]
     0x0496 [0x1B] RETURN
     0x0497 [0x45] LOAD_SCHEDULED_TASK: Load scheduler "whi0" with entities [LocalPlayer, LocalPlayer], work=[201*, 0*]
     0x04A8 [0x55] WAIT_LOAD_SCHEDULER: Wait for scheduler "whi0" with entities [LocalPlayer, LocalPlayer], work=201*
     0x04B7 [0x1B] RETURN
     0x04B8 [0x45] LOAD_SCHEDULED_TASK: Load scheduler "who0" with entities [LocalPlayer, LocalPlayer], work=[201*, 0*]
     0x04C9 [0x55] WAIT_LOAD_SCHEDULER: Wait for scheduler "who0" with entities [LocalPlayer, LocalPlayer], work=201*
     0x04D8 [0x1B] RETURN
     0x04D9 [0x45] LOAD_SCHEDULED_TASK: Load scheduler "efon" with entities [LocalPlayer, LocalPlayer], work=[215*, 0*]
     0x04EA [0x55] WAIT_LOAD_SCHEDULER: Wait for scheduler "efon" with entities [LocalPlayer, LocalPlayer], work=215*
     0x04F9 [0x1B] RETURN
     0x04FA [0x45] LOAD_SCHEDULED_TASK: Load scheduler "fdis" with entities [LocalPlayer, LocalPlayer], work=[200*, 0*]
     0x050B [0x1B] RETURN
     0x050C [0x45] LOAD_SCHEDULED_TASK: Load scheduler "fdos" with entities [LocalPlayer, LocalPlayer], work=[200*, 0*]
     0x051D [0x55] WAIT_LOAD_SCHEDULER: Wait for scheduler "fdos" with entities [LocalPlayer, LocalPlayer], work=200*
     0x052C [0x1B] RETURN
     0x052D [0x45] LOAD_SCHEDULED_TASK: Load scheduler "fdif" with entities [LocalPlayer, LocalPlayer], work=[200*, 0*]
     0x053E [0x1B] RETURN
     0x053F [0x45] LOAD_SCHEDULED_TASK: Load scheduler "fdof" with entities [LocalPlayer, LocalPlayer], work=[200*, 0*]
     0x0550 [0x55] WAIT_LOAD_SCHEDULER: Wait for scheduler "fdof" with entities [LocalPlayer, LocalPlayer], work=200*
     0x055F [0x1B] RETURN
     0x0560 [0x45] LOAD_SCHEDULED_TASK: Load scheduler "fdip" with entities [LocalPlayer, LocalPlayer], work=[200*, 0*]
     0x0571 [0x1B] RETURN
     0x0572 [0x45] LOAD_SCHEDULED_TASK: Load scheduler "fdop" with entities [LocalPlayer, LocalPlayer], work=[200*, 0*]
     0x0583 [0x55] WAIT_LOAD_SCHEDULER: Wait for scheduler "fdop" with entities [LocalPlayer, LocalPlayer], work=200*
     0x0592 [0x1B] RETURN
```
