# 17801322 - Ronta-Onta

## Common Data

| Field            | Value            |
|------------------|------------------|
| Zone             | Kazham (ID: 250) |
| Block Size       | 7356 bytes       |
| Total Events     | 54               |
| References Count | 139              |

## List of Events

| Event ID                   | Entrypoint   |   Size |   Instructions |
|----------------------------|--------------|--------|----------------|
| [65535](#event-65535)      | 0x0000       |      1 |              1 |
| [65535.1](#event-655351)   | 0x0001       |     16 |              2 |
| [65535.2](#event-655352)   | 0x0011       |     22 |              4 |
| [65535.3](#event-655353)   | 0x0027       |     16 |              2 |
| [65535.4](#event-655354)   | 0x0037       |     14 |              2 |
| [65535.5](#event-655355)   | 0x0045       |     16 |              2 |
| [65535.6](#event-655356)   | 0x0055       |     14 |              2 |
| [65535.7](#event-655357)   | 0x0063       |     16 |              2 |
| [65535.8](#event-655358)   | 0x0073       |     14 |              2 |
| [65535.9](#event-655359)   | 0x0081       |     16 |              2 |
| [65535.10](#event-6553510) | 0x0091       |     14 |              2 |
| [65535.11](#event-6553511) | 0x009F       |     16 |              2 |
| [65535.12](#event-6553512) | 0x00AF       |     14 |              2 |
| [65535.13](#event-6553513) | 0x00BD       |     16 |              2 |
| [65535.14](#event-6553514) | 0x00CD       |     14 |              2 |
| [65535.15](#event-6553515) | 0x00DB       |     16 |              2 |
| [65535.16](#event-6553516) | 0x00EB       |     14 |              2 |
| [65535.17](#event-6553517) | 0x00F9       |     16 |              2 |
| [65535.18](#event-6553518) | 0x0109       |     14 |              2 |
| [65535.19](#event-6553519) | 0x0117       |     16 |              2 |
| [65535.20](#event-6553520) | 0x0127       |     22 |              4 |
| [65535.21](#event-6553521) | 0x013D       |     16 |              2 |
| [65535.22](#event-6553522) | 0x014D       |     22 |              4 |
| [65535.23](#event-6553523) | 0x0163       |     16 |              2 |
| [65535.24](#event-6553524) | 0x0173       |     14 |              2 |
| [65535.25](#event-6553525) | 0x0181       |     16 |              2 |
| [65535.26](#event-6553526) | 0x0191       |     14 |              2 |
| [65535.27](#event-6553527) | 0x019F       |     16 |              2 |
| [65535.28](#event-6553528) | 0x01AF       |     14 |              2 |
| [65535.29](#event-6553529) | 0x01BD       |     16 |              2 |
| [65535.30](#event-6553530) | 0x01CD       |     14 |              2 |
| [65535.31](#event-6553531) | 0x01DB       |     16 |              2 |
| [65535.32](#event-6553532) | 0x01EB       |     22 |              4 |
| [65535.33](#event-6553533) | 0x0201       |      9 |              3 |
| [274](#event-274)          | 0x020A       |     72 |             18 |
| [270](#event-270)          | 0x0252       |    549 |            128 |
| [271](#event-271)          | 0x0477       |     33 |             12 |
| [285](#event-285)          | 0x0498       |     33 |             12 |
| [272](#event-272)          | 0x04B9       |      1 |              1 |
| [273](#event-273)          | 0x04BA       |   4676 |            653 |
| [65535.34](#event-6553534) | 0x16FE       |    427 |             68 |
| [65535.35](#event-6553535) | 0x18A9       |     29 |             10 |
| [65535.36](#event-6553536) | 0x18C6       |     48 |             15 |
| [286](#event-286)          | 0x18F6       |      1 |              1 |
| [65535.37](#event-6553537) | 0x18F7       |     23 |              7 |
| [65535.38](#event-6553538) | 0x190E       |     55 |             13 |
| [65535.39](#event-6553539) | 0x1945       |     19 |              5 |
| [65535.40](#event-6553540) | 0x1958       |     37 |              9 |
| [287](#event-287)          | 0x197D       |      1 |              1 |
| [291](#event-291)          | 0x197E       |      1 |              1 |
| [289](#event-289)          | 0x197F       |      1 |              1 |
| [65535.41](#event-6553541) | 0x1980       |     19 |              5 |
| [290](#event-290)          | 0x1993       |      1 |              1 |
| [65535.42](#event-6553542) | 0x1994       |     19 |              5 |

## DAT References (imed_data)

|   Index | Hex Value   |   Dec Value |
|---------|-------------|-------------|
|       0 | 0x0028      |          40 |
|       1 | 0x003C      |          60 |
|       2 | 0x002A      |          42 |
|       3 | 0x0029      |          41 |
|       4 | 0x0151      |         337 |
|       5 | 0x0155      |         341 |
|       6 | 0x0003      |           3 |
|       7 | 0x2932      |       10546 |
|       8 | 0x28F9      |       10489 |
|       9 | 0x2933      |       10547 |
|      10 | 0x2935      |       10549 |
|      11 | 0x2934      |       10548 |
|      12 | 0x0001      |           1 |
|      13 | 0x0000      |           0 |
|      14 | 0x0002      |           2 |
|      15 | 0x28FC      |       10492 |
|      16 | 0x2968      |       10600 |
|      17 | 0x28FD      |       10493 |
|      18 | 0x28FE      |       10494 |
|      19 | 0x2969      |       10601 |
|      20 | 0x28FF      |       10495 |
|      21 | 0x296A      |       10602 |
|      22 | 0x2900      |       10496 |
|      23 | 0x2901      |       10497 |
|      24 | 0x2902      |       10498 |
|      25 | 0x296B      |       10603 |
|      26 | 0x296C      |       10604 |
|      27 | 0x2903      |       10499 |
|      28 | 0x2904      |       10500 |
|      29 | 0x2905      |       10501 |
|      30 | 0x2906      |       10502 |
|      31 | 0x2907      |       10503 |
|      32 | 0x296D      |       10605 |
|      33 | 0x296E      |       10606 |
|      34 | 0x2908      |       10504 |
|      35 | 0x2909      |       10505 |
|      36 | 0x290A      |       10506 |
|      37 | 0x290B      |       10507 |
|      38 | 0x293F      |       10559 |
|      39 | 0x2940      |       10560 |
|      40 | 0x00C8      |         200 |
|      41 | 0x441F      |       17439 |
|      42 | 0x33BE      |       13246 |
|      43 | 0x34FD      |       13565 |
|      44 | 0x0013      |          19 |
|      45 | 0x290F      |       10511 |
|      46 | 0x00F9      |         249 |
|      47 | 0x2910      |       10512 |
|      48 | 0x0004      |           4 |
|      49 | 0x0005      |           5 |
|      50 | 0x0006      |           6 |
|      51 | 0x0008      |           8 |
|      52 | 0x2911      |       10513 |
|      53 | 0x0080      |         128 |
|      54 | 0x0064      |         100 |
|      55 | 0x00D4      |         212 |
|      56 | 0x00C9      |         201 |
|      57 | 0x0032      |          50 |
|      58 | 0x2912      |       10514 |
|      59 | 0x001E      |          30 |
|      60 | 0x00D3      |         211 |
|      61 | 0x000C      |          12 |
|      62 | 0x0007      |           7 |
|      63 | 0x04B4      |        1204 |
|      64 | 0x00FC      |         252 |
|      65 | 0x00D1      |         209 |
|      66 | 0x007F      |         127 |
|      67 | 0x2928      |       10536 |
|      68 | 0x2929      |       10537 |
|      69 | 0x292A      |       10538 |
|      70 | 0x44DB      |       17627 |
|      71 | 0x33BB      |       13243 |
|      72 | 0x34FA      |       13562 |
|      73 | 0x000B      |          11 |
|      74 | 0x04B2      |        1202 |
|      75 | 0x00F7      |         247 |
|      76 | 0x00D0      |         208 |
|      77 | 0x4501      |       17665 |
|      78 | 0x33B9      |       13241 |
|      79 | 0x34F8      |       13560 |
|      80 | 0x0813      |        2067 |
|      81 | 0x00CF      |         207 |
|      82 | 0x04B3      |        1203 |
|      83 | 0x00FA      |         250 |
|      84 | 0x0087      |         135 |
|      85 | 0x0050      |          80 |
|      86 | 0x0104      |         260 |
|      87 | 0x293C      |       10556 |
|      88 | 0x293D      |       10557 |
|      89 | 0x293E      |       10558 |
|      90 | 0x2938      |       10552 |
|      91 | 0x2939      |       10553 |
|      92 | 0x293A      |       10554 |
|      93 | 0x2916      |       10518 |
|      94 | 0x2917      |       10519 |
|      95 | 0x2918      |       10520 |
|      96 | 0x2913      |       10515 |
|      97 | 0x2914      |       10516 |
|      98 | 0x2915      |       10517 |
|      99 | 0x293B      |       10555 |
|     100 | 0x2919      |       10521 |
|     101 | 0x00B4      |         180 |
|     102 | 0x291A      |       10522 |
|     103 | 0x291B      |       10523 |
|     104 | 0x291C      |       10524 |
|     105 | 0x291D      |       10525 |
|     106 | 0x291F      |       10527 |
|     107 | 0x291E      |       10526 |
|     108 | 0x2920      |       10528 |
|     109 | 0x2921      |       10529 |
|     110 | 0x00A0      |         160 |
|     111 | 0x2922      |       10530 |
|     112 | 0x2923      |       10531 |
|     113 | 0x2924      |       10532 |
|     114 | 0x0099      |         153 |
|     115 | 0x2925      |       10533 |
|     116 | 0x2926      |       10534 |
|     117 | 0x2927      |       10535 |
|     118 | 0x0014      |          20 |
|     119 | 0x007B      |         123 |
|     120 | 0x292C      |       10540 |
|     121 | 0x292D      |       10541 |
|     122 | 0x292E      |       10542 |
|     123 | 0x292F      |       10543 |
|     124 | 0x2930      |       10544 |
|     125 | 0x2931      |       10545 |
|     126 | 0x0078      |         120 |
|     127 | 0x2936      |       10550 |
|     128 | 0x2937      |       10551 |
|     129 | 0x2947      |       10567 |
|     130 | 0x2948      |       10568 |
|     131 | 0x294B      |       10571 |
|     132 | 0x294C      |       10572 |
|     133 | 0x294D      |       10573 |
|     134 | 0x294F      |       10575 |
|     135 | 0x2953      |       10579 |
|     136 | 0x2954      |       10580 |
|     137 | 0x2962      |       10594 |
|     138 | 0x2965      |       10597 |

## String References

- **10489**: Owzie-wowzie! Don't make me talk. I hurt all over!
- **10492**: Owzie-wowzie! Don't make me talk. I hurt all over!
- **10493**: Hey! You're that famous adventurer, <Player>!
- **10494**: Yippee! This is my lucky day!
- **10495**: Let me introduce myself. I am from the Rhinostery in Windurst. I do research on various living things.
- **10496**: And I'm the besty-westy they've got! I've been looking into phenomena at a certain place.
- **10497**: What phenomena, you ask? Well, there are these giant crystals, you see! And from those crystals, a strangey-wangey power is constantly pouring forth...
- **10498**: These crystals are found all over Vana'diel, and their energies affect the surrounding ecosystems. Our research team had been investigating the unusual emanations when...
- **10499**: Guess what!
- **10500**: We finally succeeded in awakening the crystals!
- **10501**: Our theory on what lay dormant inside the crystals was proven to be rightaru on the money! Except they didn't appreciate being woken up... We were attacked... We were bested-wested...
- **10502**: Why do they so despise talking with us that they would rather fight? And what on Vana'diel would happen if someone were to defeat them?
- **10503**: I bet you could do it! You call yourself an adventurer, right? Give it a shot!
- **10504**: Take up the challenge? [Bring it on!/Ah, no, thanks...]
- **10505**: Great! Here, take this $3. But be warned--only a person who carries one can enter the crystal.
- **10506**: This $3 will awaken the giant crystal that is found [in Ifrit's Cauldron/in the Quicksand Caves/in the Den of Rancor/in Cape Teriggan/in Fei'Yin/in The Boyahda Tree].
- **10507**: Without it, you won't be getting inside no matter how sneaky-weaky you are! Oh, and if you want to take some friends with you, they also have to get $6 from me. Okey-dokey?
- **10511**: How'd it go!? Wowy-wow-wow! You defeated a prime avatar!
- **10512**: ...I see. The prime avatar said that to you? I wonder what it could mean.
- **10514**: Y-you, you're...!
- **10522**: What do you desire? [$5./$6./$1./$2./Gil./Nothing (a pact with the avatar).]
- **10524**: You want $5? [Yes./Wait!]
- **10525**: You want $6? [Yes./Wait!]
- **10526**: You want $2? [Yes./Wait!]
- **10527**: You want $1? [Yes./Wait!]
- **10528**: Gil is what you truly want? [Yes./Wait!]
- **10529**: Are you sure? [Yes./Wait!]
- **10531**: Bring me... Power... Higher... Deeper... ...... Stronger...
- **10536**: Uh? Huh? I went all spacey-wacey for a moment there...
- **10537**: Um, who were you again? Was I speaking with you? What were we talking about?
- **10538**: Did I tell you I'm a researcher from the Rhinostery in Windurst already?
- **10540**: Huh? What? Do I know where Ildy-Goldy is?
- **10541**: Yeah, you justaru missed him. He went off towards Cape Terrrigan with the improved tuning fork of air.
- **10542**: Ildy-Goldy will wipe the floor with that avatar. I wonder what kind of research data he'll bring back for us?
- **10543**: Hm? Did he seem a little different from usual?
- **10544**: Well, now that you mention it, he did ask me to give this to any adventurers that came looking for him...
- **10545**: I guess that must mean you. Here you go. Seems like a clear invitation to go take on the avatar in Cape Teriggan yourself.
- **10546**: I've given you what Ildy-Goldy had me hold on to. You should be on your way to Cape Teriggan.
- **10547**: ...Hm? You're going to help out Ildy-Goldy, but first you want to take on the avatar in Cape Teriggan under your own steam?
- **10548**: Check it out yourself? [I like to do things my way.../All on my lonesome...?]
- **10549**: ...You got guts, kid. Well, either way is fine with me.
- **10550**: What!? You lost the $1!?
- **10551**: What kind of an adventurer are you...? Well, don't go losing this one, okay?
- **10559**: What? You want another $3?
- **10560**: Oh, all right... But be careful-wareful with this one! These things don't grow on star trees, you know.
- **10567**: No no no no no! That crazy-wazy contraption won't provide us with any useful data!
- **10568**: Listen, muscle-hussle brain. Science is not about winning or spinning, life or strife, even or Steven! It's a more delicate subjectaru!
- **10571**: No no no no no! Even if they use that half-rate spork, it'll take a tip-top summoner to defeat the prime avatar!
- **10572**: Listen up. The fandangled $1 won't make it any easier for you to downright defeat the monster inside the crystal. Sure, it'll lower the power of the prime avatar to around $3, but it will do the same to you! And on top of that, you'll only be able to summon that itty-bitty blue bugger, Carbuncle!
- **10573**: And to make things worse, nobody-buddy else can enter the crystal with you! You'll be battling one-on-one, man-to-man, Taru-et-Taru!
- **10575**: Hmmm... You do have a point there... I guess one round with a prime avatar wouldn't hurtaru.
- **10579**: Well, you asked for it! Take this $1 and ring it near one of those giant crystals. The prime avatar won't be slap-happy to be woken up, and you'll have to deal with its wrath.
- **10580**: I guess because you are helping us check out this new tuning fork, I can use my mighty-minty magic to warp you near the giant crystal in [Ifrit's Cauldron/the Quicksand Caves/the Den of Rancor/Cape Teriggan/Fei'Yin/the Boyahda Tree]. When you're ready, just show my companion the $1.
- **10594**: Hmmm... Just as I thoughtaru. The prime avatar that you fought with this spunky-junky tuning fork was nothing but a fake. Researching real avatars with real tuning forks is how real researchers do real research in the real world!
- **10597**: I don't think you'll get much out of it, but if you want to go get your buttaru kicked by the prime avatar again, all you have to do is ring another $1 near a giant crystal.
- **10600**: Hey! You're that famous adventurer, <Player>!
- **10601**: Maybe you can help us outaru!
- **10602**: Let me introduce myself. I am from the Rhinostery in Windurst. I do research on various living things.
- **10603**: You already-weddy know about the super-giant crystals, rightaru?
- **10604**: These crystals are found all over Vana'diel, and their energies affect the surrounding ecosystems. Our research team had been investigating the unusual emanations when POOF, out of nowhere, a prime avatar appeared and sliced 'n diced us down to size.
- **10605**: Why do these avatars so despise talking with us that they would rather fight? And what on Vana'diel would happen if someone were to defeat them?
- **10606**: You were able to handle one all by yourself. You should have no problem defeating one with your buddy-wuddies. You'll help us out, right?

## Events

### Event 65535

#### Metadata

| Field        | Value   |
|--------------|---------|
| Entrypoint   | 0x0000  |
| Data Size    | 1 bytes |
| Instructions | 1       |

```
      00 01 02 03 04 05 06 07  08 09 0A 0B 0C 0D 0E 0F
      -- -- -- -- -- -- -- --  -- -- -- -- -- -- -- --
0000: 00                                                .               
```

#### Opcodes

```
  0: 0x0000 [0x00] END_REQSTACK()
```

### Event 65535.1

#### Metadata

| Field        | Value    |
|--------------|----------|
| Entrypoint   | 0x0001   |
| Data Size    | 16 bytes |
| Instructions | 2        |

```
      00 01 02 03 04 05 06 07  08 09 0A 0B 0C 0D 0E 0F
      -- -- -- -- -- -- -- --  -- -- -- -- -- -- -- --
0000:    66 00 80 F8 FF FF 7F  F8 FF FF 7F 74 6C 6B 30   f..........tlk0
0010: 00                                                .               
```

#### Opcodes

```
  0: 0x0001 [0x66] LOAD_EXT_SCHEDULER_MAIN: Load scheduler "tlk0" with entities [EventEntity, EventEntity], work=40*
  1: 0x0010 [0x00] END_REQSTACK()
```

### Event 65535.2

#### Metadata

| Field        | Value    |
|--------------|----------|
| Entrypoint   | 0x0011   |
| Data Size    | 22 bytes |
| Instructions | 4        |

```
      00 01 02 03 04 05 06 07  08 09 0A 0B 0C 0D 0E 0F
      -- -- -- -- -- -- -- --  -- -- -- -- -- -- -- --
0010:    53 F8 FF FF 7F F8 FF  FF 7F 74 6C 6B 30 5E 69   S........tlk0^i
0020: 64 6C 30 1C 01 80 00                              dl0....         
```

#### Opcodes

```
  0: 0x0011 [0x53] WAIT_SCHEDULER_TASK: Wait for scheduler "tlk0" with entities [EventEntity, EventEntity]
  1: 0x001E [0x5E] EventEntity goes idle (kills current action) (animation: "idl0")
  2: 0x0023 [0x1C] WAIT(60* ticks)
  3: 0x0026 [0x00] END_REQSTACK()
```

### Event 65535.3

#### Metadata

| Field        | Value    |
|--------------|----------|
| Entrypoint   | 0x0027   |
| Data Size    | 16 bytes |
| Instructions | 2        |

```
      00 01 02 03 04 05 06 07  08 09 0A 0B 0C 0D 0E 0F
      -- -- -- -- -- -- -- --  -- -- -- -- -- -- -- --
0020:                      66  00 80 F8 FF FF 7F F8 FF         f........
0030: FF 7F 74 68 6B 31 00                              ..thk1.         
```

#### Opcodes

```
  0: 0x0027 [0x66] LOAD_EXT_SCHEDULER_MAIN: Load scheduler "thk1" with entities [EventEntity, EventEntity], work=40*
  1: 0x0036 [0x00] END_REQSTACK()
```

### Event 65535.4

#### Metadata

| Field        | Value    |
|--------------|----------|
| Entrypoint   | 0x0037   |
| Data Size    | 14 bytes |
| Instructions | 2        |

```
      00 01 02 03 04 05 06 07  08 09 0A 0B 0C 0D 0E 0F
      -- -- -- -- -- -- -- --  -- -- -- -- -- -- -- --
0030:                      53  F8 FF FF 7F F8 FF FF 7F         S........
0040: 74 68 6B 31 00                                    thk1.           
```

#### Opcodes

```
  0: 0x0037 [0x53] WAIT_SCHEDULER_TASK: Wait for scheduler "thk1" with entities [EventEntity, EventEntity]
  1: 0x0044 [0x00] END_REQSTACK()
```

### Event 65535.5

#### Metadata

| Field        | Value    |
|--------------|----------|
| Entrypoint   | 0x0045   |
| Data Size    | 16 bytes |
| Instructions | 2        |

```
      00 01 02 03 04 05 06 07  08 09 0A 0B 0C 0D 0E 0F
      -- -- -- -- -- -- -- --  -- -- -- -- -- -- -- --
0040:                66 00 80  F8 FF FF 7F F8 FF FF 7F       f..........
0050: 74 68 6B 32 00                                    thk2.           
```

#### Opcodes

```
  0: 0x0045 [0x66] LOAD_EXT_SCHEDULER_MAIN: Load scheduler "thk2" with entities [EventEntity, EventEntity], work=40*
  1: 0x0054 [0x00] END_REQSTACK()
```

### Event 65535.6

#### Metadata

| Field        | Value    |
|--------------|----------|
| Entrypoint   | 0x0055   |
| Data Size    | 14 bytes |
| Instructions | 2        |

```
      00 01 02 03 04 05 06 07  08 09 0A 0B 0C 0D 0E 0F
      -- -- -- -- -- -- -- --  -- -- -- -- -- -- -- --
0050:                53 F8 FF  FF 7F F8 FF FF 7F 74 68       S........th
0060: 6B 32 00                                          k2.             
```

#### Opcodes

```
  0: 0x0055 [0x53] WAIT_SCHEDULER_TASK: Wait for scheduler "thk2" with entities [EventEntity, EventEntity]
  1: 0x0062 [0x00] END_REQSTACK()
```

### Event 65535.7

#### Metadata

| Field        | Value    |
|--------------|----------|
| Entrypoint   | 0x0063   |
| Data Size    | 16 bytes |
| Instructions | 2        |

```
      00 01 02 03 04 05 06 07  08 09 0A 0B 0C 0D 0E 0F
      -- -- -- -- -- -- -- --  -- -- -- -- -- -- -- --
0060:          66 00 80 F8 FF  FF 7F F8 FF FF 7F 70 6F     f..........po
0070: 69 30 00                                          i0.             
```

#### Opcodes

```
  0: 0x0063 [0x66] LOAD_EXT_SCHEDULER_MAIN: Load scheduler "poi0" with entities [EventEntity, EventEntity], work=40*
  1: 0x0072 [0x00] END_REQSTACK()
```

### Event 65535.8

#### Metadata

| Field        | Value    |
|--------------|----------|
| Entrypoint   | 0x0073   |
| Data Size    | 14 bytes |
| Instructions | 2        |

```
      00 01 02 03 04 05 06 07  08 09 0A 0B 0C 0D 0E 0F
      -- -- -- -- -- -- -- --  -- -- -- -- -- -- -- --
0070:          53 F8 FF FF 7F  F8 FF FF 7F 70 6F 69 30     S........poi0
0080: 00                                                .               
```

#### Opcodes

```
  0: 0x0073 [0x53] WAIT_SCHEDULER_TASK: Wait for scheduler "poi0" with entities [EventEntity, EventEntity]
  1: 0x0080 [0x00] END_REQSTACK()
```

### Event 65535.9

#### Metadata

| Field        | Value    |
|--------------|----------|
| Entrypoint   | 0x0081   |
| Data Size    | 16 bytes |
| Instructions | 2        |

```
      00 01 02 03 04 05 06 07  08 09 0A 0B 0C 0D 0E 0F
      -- -- -- -- -- -- -- --  -- -- -- -- -- -- -- --
0080:    66 00 80 F8 FF FF 7F  F8 FF FF 7F 69 72 6F 30   f..........iro0
0090: 00                                                .               
```

#### Opcodes

```
  0: 0x0081 [0x66] LOAD_EXT_SCHEDULER_MAIN: Load scheduler "iro0" with entities [EventEntity, EventEntity], work=40*
  1: 0x0090 [0x00] END_REQSTACK()
```

### Event 65535.10

#### Metadata

| Field        | Value    |
|--------------|----------|
| Entrypoint   | 0x0091   |
| Data Size    | 14 bytes |
| Instructions | 2        |

```
      00 01 02 03 04 05 06 07  08 09 0A 0B 0C 0D 0E 0F
      -- -- -- -- -- -- -- --  -- -- -- -- -- -- -- --
0090:    53 F8 FF FF 7F F8 FF  FF 7F 69 72 6F 30 00      S........iro0. 
```

#### Opcodes

```
  0: 0x0091 [0x53] WAIT_SCHEDULER_TASK: Wait for scheduler "iro0" with entities [EventEntity, EventEntity]
  1: 0x009E [0x00] END_REQSTACK()
```

### Event 65535.11

#### Metadata

| Field        | Value    |
|--------------|----------|
| Entrypoint   | 0x009F   |
| Data Size    | 16 bytes |
| Instructions | 2        |

```
      00 01 02 03 04 05 06 07  08 09 0A 0B 0C 0D 0E 0F
      -- -- -- -- -- -- -- --  -- -- -- -- -- -- -- --
0090:                                               66                 f
00A0: 00 80 F8 FF FF 7F F8 FF  FF 7F 64 69 73 30 00     ..........dis0. 
```

#### Opcodes

```
  0: 0x009F [0x66] LOAD_EXT_SCHEDULER_MAIN: Load scheduler "dis0" with entities [EventEntity, EventEntity], work=40*
  1: 0x00AE [0x00] END_REQSTACK()
```

### Event 65535.12

#### Metadata

| Field        | Value    |
|--------------|----------|
| Entrypoint   | 0x00AF   |
| Data Size    | 14 bytes |
| Instructions | 2        |

```
      00 01 02 03 04 05 06 07  08 09 0A 0B 0C 0D 0E 0F
      -- -- -- -- -- -- -- --  -- -- -- -- -- -- -- --
00A0:                                               53                 S
00B0: F8 FF FF 7F F8 FF FF 7F  64 69 73 30 00           ........dis0.   
```

#### Opcodes

```
  0: 0x00AF [0x53] WAIT_SCHEDULER_TASK: Wait for scheduler "dis0" with entities [EventEntity, EventEntity]
  1: 0x00BC [0x00] END_REQSTACK()
```

### Event 65535.13

#### Metadata

| Field        | Value    |
|--------------|----------|
| Entrypoint   | 0x00BD   |
| Data Size    | 16 bytes |
| Instructions | 2        |

```
      00 01 02 03 04 05 06 07  08 09 0A 0B 0C 0D 0E 0F
      -- -- -- -- -- -- -- --  -- -- -- -- -- -- -- --
00B0:                                         66 02 80               f..
00C0: F8 FF FF 7F F8 FF FF 7F  74 65 68 30 00           ........teh0.   
```

#### Opcodes

```
  0: 0x00BD [0x66] LOAD_EXT_SCHEDULER_MAIN: Load scheduler "teh0" with entities [EventEntity, EventEntity], work=42*
  1: 0x00CC [0x00] END_REQSTACK()
```

### Event 65535.14

#### Metadata

| Field        | Value    |
|--------------|----------|
| Entrypoint   | 0x00CD   |
| Data Size    | 14 bytes |
| Instructions | 2        |

```
      00 01 02 03 04 05 06 07  08 09 0A 0B 0C 0D 0E 0F
      -- -- -- -- -- -- -- --  -- -- -- -- -- -- -- --
00C0:                                         53 F8 FF               S..
00D0: FF 7F F8 FF FF 7F 74 65  68 30 00                 ......teh0.     
```

#### Opcodes

```
  0: 0x00CD [0x53] WAIT_SCHEDULER_TASK: Wait for scheduler "teh0" with entities [EventEntity, EventEntity]
  1: 0x00DA [0x00] END_REQSTACK()
```

### Event 65535.15

#### Metadata

| Field        | Value    |
|--------------|----------|
| Entrypoint   | 0x00DB   |
| Data Size    | 16 bytes |
| Instructions | 2        |

```
      00 01 02 03 04 05 06 07  08 09 0A 0B 0C 0D 0E 0F
      -- -- -- -- -- -- -- --  -- -- -- -- -- -- -- --
00D0:                                   66 02 80 F8 FF             f....
00E0: FF 7F F8 FF FF 7F 74 65  68 31 00                 ......teh1.     
```

#### Opcodes

```
  0: 0x00DB [0x66] LOAD_EXT_SCHEDULER_MAIN: Load scheduler "teh1" with entities [EventEntity, EventEntity], work=42*
  1: 0x00EA [0x00] END_REQSTACK()
```

### Event 65535.16

#### Metadata

| Field        | Value    |
|--------------|----------|
| Entrypoint   | 0x00EB   |
| Data Size    | 14 bytes |
| Instructions | 2        |

```
      00 01 02 03 04 05 06 07  08 09 0A 0B 0C 0D 0E 0F
      -- -- -- -- -- -- -- --  -- -- -- -- -- -- -- --
00E0:                                   53 F8 FF FF 7F             S....
00F0: F8 FF FF 7F 74 65 68 31  00                       ....teh1.       
```

#### Opcodes

```
  0: 0x00EB [0x53] WAIT_SCHEDULER_TASK: Wait for scheduler "teh1" with entities [EventEntity, EventEntity]
  1: 0x00F8 [0x00] END_REQSTACK()
```

### Event 65535.17

#### Metadata

| Field        | Value    |
|--------------|----------|
| Entrypoint   | 0x00F9   |
| Data Size    | 16 bytes |
| Instructions | 2        |

```
      00 01 02 03 04 05 06 07  08 09 0A 0B 0C 0D 0E 0F
      -- -- -- -- -- -- -- --  -- -- -- -- -- -- -- --
00F0:                             66 03 80 F8 FF FF 7F           f......
0100: F8 FF FF 7F 73 68 6B 30  00                       ....shk0.       
```

#### Opcodes

```
  0: 0x00F9 [0x66] LOAD_EXT_SCHEDULER_MAIN: Load scheduler "shk0" with entities [EventEntity, EventEntity], work=41*
  1: 0x0108 [0x00] END_REQSTACK()
```

### Event 65535.18

#### Metadata

| Field        | Value    |
|--------------|----------|
| Entrypoint   | 0x0109   |
| Data Size    | 14 bytes |
| Instructions | 2        |

```
      00 01 02 03 04 05 06 07  08 09 0A 0B 0C 0D 0E 0F
      -- -- -- -- -- -- -- --  -- -- -- -- -- -- -- --
0100:                             53 F8 FF FF 7F F8 FF           S......
0110: FF 7F 73 68 6B 30 00                              ..shk0.         
```

#### Opcodes

```
  0: 0x0109 [0x53] WAIT_SCHEDULER_TASK: Wait for scheduler "shk0" with entities [EventEntity, EventEntity]
  1: 0x0116 [0x00] END_REQSTACK()
```

### Event 65535.19

#### Metadata

| Field        | Value    |
|--------------|----------|
| Entrypoint   | 0x0117   |
| Data Size    | 16 bytes |
| Instructions | 2        |

```
      00 01 02 03 04 05 06 07  08 09 0A 0B 0C 0D 0E 0F
      -- -- -- -- -- -- -- --  -- -- -- -- -- -- -- --
0110:                      66  00 80 F8 FF FF 7F F8 FF         f........
0120: FF 7F 7A 69 74 30 00                              ..zit0.         
```

#### Opcodes

```
  0: 0x0117 [0x66] LOAD_EXT_SCHEDULER_MAIN: Load scheduler "zit0" with entities [EventEntity, EventEntity], work=40*
  1: 0x0126 [0x00] END_REQSTACK()
```

### Event 65535.20

#### Metadata

| Field        | Value    |
|--------------|----------|
| Entrypoint   | 0x0127   |
| Data Size    | 22 bytes |
| Instructions | 4        |

```
      00 01 02 03 04 05 06 07  08 09 0A 0B 0C 0D 0E 0F
      -- -- -- -- -- -- -- --  -- -- -- -- -- -- -- --
0120:                      53  F8 FF FF 7F F8 FF FF 7F         S........
0130: 7A 69 74 30 5E 69 64 6C  30 1C 01 80 00           zit0^idl0....   
```

#### Opcodes

```
  0: 0x0127 [0x53] WAIT_SCHEDULER_TASK: Wait for scheduler "zit0" with entities [EventEntity, EventEntity]
  1: 0x0134 [0x5E] EventEntity goes idle (kills current action) (animation: "idl0")
  2: 0x0139 [0x1C] WAIT(60* ticks)
  3: 0x013C [0x00] END_REQSTACK()
```

### Event 65535.21

#### Metadata

| Field        | Value    |
|--------------|----------|
| Entrypoint   | 0x013D   |
| Data Size    | 16 bytes |
| Instructions | 2        |

```
      00 01 02 03 04 05 06 07  08 09 0A 0B 0C 0D 0E 0F
      -- -- -- -- -- -- -- --  -- -- -- -- -- -- -- --
0130:                                         5B 04 80               [..
0140: F8 FF FF 7F F8 FF FF 7F  67 6B 72 30 00           ........gkr0.   
```

#### Opcodes

```
  0: 0x013D [0x5B] LOAD_EXT_SCHEDULER: Load scheduler "gkr0" with entities [EventEntity, EventEntity], work=337*
  1: 0x014C [0x00] END_REQSTACK()
```

### Event 65535.22

#### Metadata

| Field        | Value    |
|--------------|----------|
| Entrypoint   | 0x014D   |
| Data Size    | 22 bytes |
| Instructions | 4        |

```
      00 01 02 03 04 05 06 07  08 09 0A 0B 0C 0D 0E 0F
      -- -- -- -- -- -- -- --  -- -- -- -- -- -- -- --
0140:                                         53 F8 FF               S..
0150: FF 7F F8 FF FF 7F 67 6B  72 30 5E 69 64 6C 30 1C  ......gkr0^idl0.
0160: 01 80 00                                          ...             
```

#### Opcodes

```
  0: 0x014D [0x53] WAIT_SCHEDULER_TASK: Wait for scheduler "gkr0" with entities [EventEntity, EventEntity]
  1: 0x015A [0x5E] EventEntity goes idle (kills current action) (animation: "idl0")
  2: 0x015F [0x1C] WAIT(60* ticks)
  3: 0x0162 [0x00] END_REQSTACK()
```

### Event 65535.23

#### Metadata

| Field        | Value    |
|--------------|----------|
| Entrypoint   | 0x0163   |
| Data Size    | 16 bytes |
| Instructions | 2        |

```
      00 01 02 03 04 05 06 07  08 09 0A 0B 0C 0D 0E 0F
      -- -- -- -- -- -- -- --  -- -- -- -- -- -- -- --
0160:          5B 05 80 F8 FF  FF 7F F8 FF FF 7F 6D 73     [..........ms
0170: 75 30 00                                          u0.             
```

#### Opcodes

```
  0: 0x0163 [0x5B] LOAD_EXT_SCHEDULER: Load scheduler "msu0" with entities [EventEntity, EventEntity], work=341*
  1: 0x0172 [0x00] END_REQSTACK()
```

### Event 65535.24

#### Metadata

| Field        | Value    |
|--------------|----------|
| Entrypoint   | 0x0173   |
| Data Size    | 14 bytes |
| Instructions | 2        |

```
      00 01 02 03 04 05 06 07  08 09 0A 0B 0C 0D 0E 0F
      -- -- -- -- -- -- -- --  -- -- -- -- -- -- -- --
0170:          53 F8 FF FF 7F  F8 FF FF 7F 6D 73 75 30     S........msu0
0180: 00                                                .               
```

#### Opcodes

```
  0: 0x0173 [0x53] WAIT_SCHEDULER_TASK: Wait for scheduler "msu0" with entities [EventEntity, EventEntity]
  1: 0x0180 [0x00] END_REQSTACK()
```

### Event 65535.25

#### Metadata

| Field        | Value    |
|--------------|----------|
| Entrypoint   | 0x0181   |
| Data Size    | 16 bytes |
| Instructions | 2        |

```
      00 01 02 03 04 05 06 07  08 09 0A 0B 0C 0D 0E 0F
      -- -- -- -- -- -- -- --  -- -- -- -- -- -- -- --
0180:    5B 05 80 F8 FF FF 7F  F8 FF FF 7F 6D 73 75 31   [..........msu1
0190: 00                                                .               
```

#### Opcodes

```
  0: 0x0181 [0x5B] LOAD_EXT_SCHEDULER: Load scheduler "msu1" with entities [EventEntity, EventEntity], work=341*
  1: 0x0190 [0x00] END_REQSTACK()
```

### Event 65535.26

#### Metadata

| Field        | Value    |
|--------------|----------|
| Entrypoint   | 0x0191   |
| Data Size    | 14 bytes |
| Instructions | 2        |

```
      00 01 02 03 04 05 06 07  08 09 0A 0B 0C 0D 0E 0F
      -- -- -- -- -- -- -- --  -- -- -- -- -- -- -- --
0190:    53 F8 FF FF 7F F8 FF  FF 7F 6D 73 75 31 00      S........msu1. 
```

#### Opcodes

```
  0: 0x0191 [0x53] WAIT_SCHEDULER_TASK: Wait for scheduler "msu1" with entities [EventEntity, EventEntity]
  1: 0x019E [0x00] END_REQSTACK()
```

### Event 65535.27

#### Metadata

| Field        | Value    |
|--------------|----------|
| Entrypoint   | 0x019F   |
| Data Size    | 16 bytes |
| Instructions | 2        |

```
      00 01 02 03 04 05 06 07  08 09 0A 0B 0C 0D 0E 0F
      -- -- -- -- -- -- -- --  -- -- -- -- -- -- -- --
0190:                                               5B                 [
01A0: 04 80 F8 FF FF 7F F8 FF  FF 7F 73 79 75 30 00     ..........syu0. 
```

#### Opcodes

```
  0: 0x019F [0x5B] LOAD_EXT_SCHEDULER: Load scheduler "syu0" with entities [EventEntity, EventEntity], work=337*
  1: 0x01AE [0x00] END_REQSTACK()
```

### Event 65535.28

#### Metadata

| Field        | Value    |
|--------------|----------|
| Entrypoint   | 0x01AF   |
| Data Size    | 14 bytes |
| Instructions | 2        |

```
      00 01 02 03 04 05 06 07  08 09 0A 0B 0C 0D 0E 0F
      -- -- -- -- -- -- -- --  -- -- -- -- -- -- -- --
01A0:                                               53                 S
01B0: F8 FF FF 7F F8 FF FF 7F  73 79 75 30 00           ........syu0.   
```

#### Opcodes

```
  0: 0x01AF [0x53] WAIT_SCHEDULER_TASK: Wait for scheduler "syu0" with entities [EventEntity, EventEntity]
  1: 0x01BC [0x00] END_REQSTACK()
```

### Event 65535.29

#### Metadata

| Field        | Value    |
|--------------|----------|
| Entrypoint   | 0x01BD   |
| Data Size    | 16 bytes |
| Instructions | 2        |

```
      00 01 02 03 04 05 06 07  08 09 0A 0B 0C 0D 0E 0F
      -- -- -- -- -- -- -- --  -- -- -- -- -- -- -- --
01B0:                                         5B 04 80               [..
01C0: F8 FF FF 7F F8 FF FF 7F  70 61 73 30 00           ........pas0.   
```

#### Opcodes

```
  0: 0x01BD [0x5B] LOAD_EXT_SCHEDULER: Load scheduler "pas0" with entities [EventEntity, EventEntity], work=337*
  1: 0x01CC [0x00] END_REQSTACK()
```

### Event 65535.30

#### Metadata

| Field        | Value    |
|--------------|----------|
| Entrypoint   | 0x01CD   |
| Data Size    | 14 bytes |
| Instructions | 2        |

```
      00 01 02 03 04 05 06 07  08 09 0A 0B 0C 0D 0E 0F
      -- -- -- -- -- -- -- --  -- -- -- -- -- -- -- --
01C0:                                         53 F8 FF               S..
01D0: FF 7F F8 FF FF 7F 70 61  73 30 00                 ......pas0.     
```

#### Opcodes

```
  0: 0x01CD [0x53] WAIT_SCHEDULER_TASK: Wait for scheduler "pas0" with entities [EventEntity, EventEntity]
  1: 0x01DA [0x00] END_REQSTACK()
```

### Event 65535.31

#### Metadata

| Field        | Value    |
|--------------|----------|
| Entrypoint   | 0x01DB   |
| Data Size    | 16 bytes |
| Instructions | 2        |

```
      00 01 02 03 04 05 06 07  08 09 0A 0B 0C 0D 0E 0F
      -- -- -- -- -- -- -- --  -- -- -- -- -- -- -- --
01D0:                                   66 02 80 F8 FF             f....
01E0: FF 7F F8 FF FF 7F 62 69  6B 30 00                 ......bik0.     
```

#### Opcodes

```
  0: 0x01DB [0x66] LOAD_EXT_SCHEDULER_MAIN: Load scheduler "bik0" with entities [EventEntity, EventEntity], work=42*
  1: 0x01EA [0x00] END_REQSTACK()
```

### Event 65535.32

#### Metadata

| Field        | Value    |
|--------------|----------|
| Entrypoint   | 0x01EB   |
| Data Size    | 22 bytes |
| Instructions | 4        |

```
      00 01 02 03 04 05 06 07  08 09 0A 0B 0C 0D 0E 0F
      -- -- -- -- -- -- -- --  -- -- -- -- -- -- -- --
01E0:                                   53 F8 FF FF 7F             S....
01F0: F8 FF FF 7F 62 69 6B 30  5E 69 64 6C 30 1C 01 80  ....bik0^idl0...
0200: 00                                                .               
```

#### Opcodes

```
  0: 0x01EB [0x53] WAIT_SCHEDULER_TASK: Wait for scheduler "bik0" with entities [EventEntity, EventEntity]
  1: 0x01F8 [0x5E] EventEntity goes idle (kills current action) (animation: "idl0")
  2: 0x01FD [0x1C] WAIT(60* ticks)
  3: 0x0200 [0x00] END_REQSTACK()
```

### Event 65535.33

#### Metadata

| Field        | Value   |
|--------------|---------|
| Entrypoint   | 0x0201  |
| Data Size    | 9 bytes |
| Instructions | 3       |

```
      00 01 02 03 04 05 06 07  08 09 0A 0B 0C 0D 0E 0F
      -- -- -- -- -- -- -- --  -- -- -- -- -- -- -- --
0200:    5E 69 64 6C 30 1C 01  80 00                     ^idl0....      
```

#### Opcodes

```
  0: 0x0201 [0x5E] EventEntity goes idle (kills current action) (animation: "idl0")
  1: 0x0206 [0x1C] WAIT(60* ticks)
  2: 0x0209 [0x00] END_REQSTACK()
```

### Event 274

#### Metadata

| Field        | Value    |
|--------------|----------|
| Entrypoint   | 0x020A   |
| Data Size    | 72 bytes |
| Instructions | 18       |

```
      00 01 02 03 04 05 06 07  08 09 0A 0B 0C 0D 0E 0F
      -- -- -- -- -- -- -- --  -- -- -- -- -- -- -- --
0200:                                02 08 10 06 80 00            ......
0210: 2E 02 1E F0 FF FF 7F 6F  70 29 0B 6A A0 0F 01 01  .......op).j....
0220: 1D 07 80 23 29 0B 6A A0  0F 01 02 01 4E 02 29 0B  ...#).j.....N.).
0230: 6A A0 0F 01 17 1D 08 80  23 29 0B 6A A0 0F 01 18  j.......#).j....
0240: 29 0B 6A A0 0F 01 19 29  0B 6A A0 0F 01 1A 20 00  ).j....).j.... .
0250: 21 00                                             !.              
```

#### Opcodes

```
  0: 0x020A [0x02] IF !(Work_Zone[8] == 3*) GOTO 0x022E
  1: 0x0212 [0x1E] EventEntity looks at LocalPlayer and starts talking
  2: 0x0217 [0x6F] WAIT_FRAME_DELAY: Yield until WaitTime reaches zero
  3: 0x0218 [0x70] WAIT_ENTITY_RENDER_FLAG: Wait while EventEntity->Render.Flags3 bit 2 is set (cancel turn if not)
  4: 0x0219 [0x29] REQ_SET_WAIT(priority=0x0B, entity_id=Ronta-Onta (ID: 17801322/0x010FA06A), tag_num=0x01)
  5: 0x0220 [0x1D] PRINT_EVENT_MESSAGE(message_id=10546*)
    → "I've given you what Ildy-Goldy had me hold on to. You should be on your way to Cape Teriggan."
  6: 0x0223 [0x23] WAIT_FOR_DIALOG_INTERACTION
  7: 0x0224 [0x29] REQ_SET_WAIT(priority=0x0B, entity_id=Ronta-Onta (ID: 17801322/0x010FA06A), tag_num=0x02)
  8: 0x022B [0x01] GOTO 0x024E
  9: 0x022E [0x29] REQ_SET_WAIT(priority=0x0B, entity_id=Ronta-Onta (ID: 17801322/0x010FA06A), tag_num=0x17)
 10: 0x0235 [0x1D] PRINT_EVENT_MESSAGE(message_id=10489*)
    → "Owzie-wowzie! Don't make me talk. I hurt all over!"
 11: 0x0238 [0x23] WAIT_FOR_DIALOG_INTERACTION
 12: 0x0239 [0x29] REQ_SET_WAIT(priority=0x0B, entity_id=Ronta-Onta (ID: 17801322/0x010FA06A), tag_num=0x18)
 13: 0x0240 [0x29] REQ_SET_WAIT(priority=0x0B, entity_id=Ronta-Onta (ID: 17801322/0x010FA06A), tag_num=0x19)
 14: 0x0247 [0x29] REQ_SET_WAIT(priority=0x0B, entity_id=Ronta-Onta (ID: 17801322/0x010FA06A), tag_num=0x1A)

SUBROUTINE_024E:
 15: 0x024E [0x20] SET_CLI_EVENT_UC_FLAG: Unlock player control
 16: 0x0250 [0x21] END_EVENT
 17: 0x0251 [0x00] END_REQSTACK()
```

### Event 270

#### Metadata

| Field        | Value     |
|--------------|-----------|
| Entrypoint   | 0x0252    |
| Data Size    | 549 bytes |
| Instructions | 127       |

```
      00 01 02 03 04 05 06 07  08 09 0A 0B 0C 0D 0E 0F
      -- -- -- -- -- -- -- --  -- -- -- -- -- -- -- --
0250:       02 08 10 06 80 00  C1 02 1E F0 FF FF 7F 6F    .............o
0260: 70 29 0B 6A A0 0F 01 01  1D 07 80 23 29 0B 6A A0  p).j.......#).j.
0270: 0F 01 02 29 0B 6A A0 0F  01 03 1D 09 80 23 29 0B  ...).j.......#).
0280: 6A A0 0F 01 04 29 0B 6A  A0 0F 01 05 1D 0A 80 23  j....).j.......#
0290: 29 0B 6A A0 0F 01 06 24  0B 80 0C 80 0D 80 25 02  ).j....$......%.
02A0: 00 10 0D 80 00 AA 02 01  BE 02 02 00 10 0C 80 00  ................
02B0: BE 02 03 01 10 0E 80 20  00 21 00 01 BE 02 01 40  ....... .!.....@
02C0: 03 02 05 10 0C 80 00 E9  02 29 0B 6A A0 0F 01 17  .........).j....
02D0: 1D 0F 80 23 29 0B 6A A0  0F 01 18 29 0B 6A A0 0F  ...#).j....).j..
02E0: 01 19 29 0B 6A A0 0F 01  1A 1E F0 FF FF 7F 6F 70  ..).j.........op
02F0: 02 09 10 0E 80 03 2E 03  29 0B 6A A0 0F 01 11 02  ........).j.....
0300: 09 10 0C 80 00 0E 03 1D  10 80 23 01 12 03 1D 11  ..........#.....
0310: 80 23 29 0B 6A A0 0F 01  12 29 0B 6A A0 0F 01 09  .#).j....).j....
0320: 1D 12 80 23 29 0B 6A A0  0F 01 0A 01 40 03 29 0B  ...#).j.....@.).
0330: 6A A0 0F 01 11 1D 13 80  23 29 0B 6A A0 0F 01 12  j.......#).j....
0340: 02 09 10 0E 80 03 56 03  29 0B 6A A0 0F 01 01 1D  ......V.).j.....
0350: 14 80 23 01 61 03 29 0B  6A A0 0F 01 01 1D 15 80  ..#.a.).j.......
0360: 23 1D 16 80 23 29 0B 6A  A0 0F 01 02 02 09 10 0E  #...#).j........
0370: 80 03 9B 03 29 0B 6A A0  0F 01 11 1D 17 80 23 29  ....).j.......#)
0380: 0B 6A A0 0F 01 12 29 0B  6A A0 0F 01 01 1D 18 80  .j....).j.......
0390: 23 29 0B 6A A0 0F 01 02  01 B1 03 29 0B 6A A0 0F  #).j.......).j..
03A0: 01 01 1D 19 80 23 1D 1A  80 23 29 0B 6A A0 0F 01  .....#...#).j...
03B0: 02 29 0B 6A A0 0F 01 1D  1D 1B 80 23 29 0B 6A A0  .).j.......#).j.
03C0: 0F 01 1E 29 0B 6A A0 0F  01 1B 1D 1C 80 23 29 0B  ...).j.......#).
03D0: 6A A0 0F 01 1C 29 0B 6A  A0 0F 01 01 1D 1D 80 23  j....).j.......#
03E0: 29 0B 6A A0 0F 01 02 02  09 10 0E 80 03 16 04 29  ).j............)
03F0: 0B 6A A0 0F 01 03 1D 1E  80 23 29 0B 6A A0 0F 01  .j.......#).j...
0400: 04 29 0B 6A A0 0F 01 05  1D 1F 80 23 29 0B 6A A0  .).j.......#).j.
0410: 0F 01 06 01 3A 04 29 0B  6A A0 0F 01 03 1D 20 80  ....:.).j..... .
0420: 23 29 0B 6A A0 0F 01 04  29 0B 6A A0 0F 01 05 1D  #).j....).j.....
0430: 21 80 23 29 0B 6A A0 0F  01 06 24 22 80 0D 80 0D  !.#).j....$"....
0440: 80 25 02 00 10 0D 80 00  63 04 42 03 01 10 0C 80  .%......c.B.....
0450: 6E F8 FF FF 7F 0C 80 99  F8 FF FF 7F 1D 23 80 23  n............#.#
0460: 01 73 04 02 00 10 0C 80  00 73 04 03 01 10 0E 80  .s.......s......
0470: 01 73 04 20 00 21 00                              .s. .!.         
```

#### Opcodes

```
  0: 0x0252 [0x02] IF !(Work_Zone[8] == 3*) GOTO 0x02C1
  1: 0x025A [0x1E] EventEntity looks at LocalPlayer and starts talking
  2: 0x025F [0x6F] WAIT_FRAME_DELAY: Yield until WaitTime reaches zero
  3: 0x0260 [0x70] WAIT_ENTITY_RENDER_FLAG: Wait while EventEntity->Render.Flags3 bit 2 is set (cancel turn if not)
  4: 0x0261 [0x29] REQ_SET_WAIT(priority=0x0B, entity_id=Ronta-Onta (ID: 17801322/0x010FA06A), tag_num=0x01)
  5: 0x0268 [0x1D] PRINT_EVENT_MESSAGE(message_id=10546*)
    → "I've given you what Ildy-Goldy had me hold on to. You should be on your way to Cape Teriggan."
  6: 0x026B [0x23] WAIT_FOR_DIALOG_INTERACTION
  7: 0x026C [0x29] REQ_SET_WAIT(priority=0x0B, entity_id=Ronta-Onta (ID: 17801322/0x010FA06A), tag_num=0x02)
  8: 0x0273 [0x29] REQ_SET_WAIT(priority=0x0B, entity_id=Ronta-Onta (ID: 17801322/0x010FA06A), tag_num=0x03)
  9: 0x027A [0x1D] PRINT_EVENT_MESSAGE(message_id=10547*)
    → "...Hm? You're going to help out Ildy-Goldy, but first you want to take on the avatar in Cape Teriggan under your own steam?"
 10: 0x027D [0x23] WAIT_FOR_DIALOG_INTERACTION
 11: 0x027E [0x29] REQ_SET_WAIT(priority=0x0B, entity_id=Ronta-Onta (ID: 17801322/0x010FA06A), tag_num=0x04)
 12: 0x0285 [0x29] REQ_SET_WAIT(priority=0x0B, entity_id=Ronta-Onta (ID: 17801322/0x010FA06A), tag_num=0x05)
 13: 0x028C [0x1D] PRINT_EVENT_MESSAGE(message_id=10549*)
    → "...You got guts, kid. Well, either way is fine with me."
 14: 0x028F [0x23] WAIT_FOR_DIALOG_INTERACTION
 15: 0x0290 [0x29] REQ_SET_WAIT(priority=0x0B, entity_id=Ronta-Onta (ID: 17801322/0x010FA06A), tag_num=0x06)
 16: 0x0297 [0x24] CREATE_DIALOG(message_id=10548*, default_option=1*, option_flags=0*)
    → "Check it out yourself? [I like to do things my way.../All on my lonesome...?]"
 17: 0x029E [0x25] WAIT_DIALOG_SELECT()
 18: 0x029F [0x02] IF !(Work_Zone[0] == 0*) GOTO 0x02AA
 19: 0x02A7 [0x01] GOTO 0x02BE
 20: 0x02AA [0x02] IF !(Work_Zone[0] == 1*) GOTO 0x02BE
 21: 0x02B2 [0x03] Work_Zone[1] = 2*
 22: 0x02B7 [0x20] SET_CLI_EVENT_UC_FLAG: Unlock player control
 23: 0x02B9 [0x21] END_EVENT
 24: 0x02BA [0x00] END_REQSTACK()

SUBROUTINE_02BE:
 25: 0x02BE [0x01] GOTO 0x0340
 26: 0x02C1 [0x02] IF !(Work_Zone[5] == 1*) GOTO 0x02E9
 27: 0x02C9 [0x29] REQ_SET_WAIT(priority=0x0B, entity_id=Ronta-Onta (ID: 17801322/0x010FA06A), tag_num=0x17)
 28: 0x02D0 [0x1D] PRINT_EVENT_MESSAGE(message_id=10492*)
    → "Owzie-wowzie! Don't make me talk. I hurt all over!"
 29: 0x02D3 [0x23] WAIT_FOR_DIALOG_INTERACTION
 30: 0x02D4 [0x29] REQ_SET_WAIT(priority=0x0B, entity_id=Ronta-Onta (ID: 17801322/0x010FA06A), tag_num=0x18)
 31: 0x02DB [0x29] REQ_SET_WAIT(priority=0x0B, entity_id=Ronta-Onta (ID: 17801322/0x010FA06A), tag_num=0x19)
 32: 0x02E2 [0x29] REQ_SET_WAIT(priority=0x0B, entity_id=Ronta-Onta (ID: 17801322/0x010FA06A), tag_num=0x1A)
 33: 0x02E9 [0x1E] EventEntity looks at LocalPlayer and starts talking
 34: 0x02EE [0x6F] WAIT_FRAME_DELAY: Yield until WaitTime reaches zero
 35: 0x02EF [0x70] WAIT_ENTITY_RENDER_FLAG: Wait while EventEntity->Render.Flags3 bit 2 is set (cancel turn if not)
 36: 0x02F0 [0x02] IF !(Work_Zone[9] >= 2*) GOTO 0x032E
 37: 0x02F8 [0x29] REQ_SET_WAIT(priority=0x0B, entity_id=Ronta-Onta (ID: 17801322/0x010FA06A), tag_num=0x11)
 38: 0x02FF [0x02] IF !(Work_Zone[9] == 1*) GOTO 0x030E
 39: 0x0307 [0x1D] PRINT_EVENT_MESSAGE(message_id=10600*)
    → "Hey! You're that famous adventurer, <Player>!"
 40: 0x030A [0x23] WAIT_FOR_DIALOG_INTERACTION
 41: 0x030B [0x01] GOTO 0x0312
 42: 0x030E [0x1D] PRINT_EVENT_MESSAGE(message_id=10493*)
    → "Hey! You're that famous adventurer, <Player>!"
 43: 0x0311 [0x23] WAIT_FOR_DIALOG_INTERACTION

SUBROUTINE_0312:
 44: 0x0312 [0x29] REQ_SET_WAIT(priority=0x0B, entity_id=Ronta-Onta (ID: 17801322/0x010FA06A), tag_num=0x12)
 45: 0x0319 [0x29] REQ_SET_WAIT(priority=0x0B, entity_id=Ronta-Onta (ID: 17801322/0x010FA06A), tag_num=0x09)
 46: 0x0320 [0x1D] PRINT_EVENT_MESSAGE(message_id=10494*)
    → "Yippee! This is my lucky day!"
 47: 0x0323 [0x23] WAIT_FOR_DIALOG_INTERACTION
 48: 0x0324 [0x29] REQ_SET_WAIT(priority=0x0B, entity_id=Ronta-Onta (ID: 17801322/0x010FA06A), tag_num=0x0A)
 49: 0x032B [0x01] GOTO 0x0340
 50: 0x032E [0x29] REQ_SET_WAIT(priority=0x0B, entity_id=Ronta-Onta (ID: 17801322/0x010FA06A), tag_num=0x11)
 51: 0x0335 [0x1D] PRINT_EVENT_MESSAGE(message_id=10601*)
    → "Maybe you can help us outaru!"
 52: 0x0338 [0x23] WAIT_FOR_DIALOG_INTERACTION
 53: 0x0339 [0x29] REQ_SET_WAIT(priority=0x0B, entity_id=Ronta-Onta (ID: 17801322/0x010FA06A), tag_num=0x12)

SUBROUTINE_0340:
 54: 0x0340 [0x02] IF !(Work_Zone[9] >= 2*) GOTO 0x0356
 55: 0x0348 [0x29] REQ_SET_WAIT(priority=0x0B, entity_id=Ronta-Onta (ID: 17801322/0x010FA06A), tag_num=0x01)
 56: 0x034F [0x1D] PRINT_EVENT_MESSAGE(message_id=10495*)
    → "Let me introduce myself. I am from the Rhinostery in Windurst. I do research on various living things."
 57: 0x0352 [0x23] WAIT_FOR_DIALOG_INTERACTION
 58: 0x0353 [0x01] GOTO 0x0361
 59: 0x0356 [0x29] REQ_SET_WAIT(priority=0x0B, entity_id=Ronta-Onta (ID: 17801322/0x010FA06A), tag_num=0x01)
 60: 0x035D [0x1D] PRINT_EVENT_MESSAGE(message_id=10602*)
    → "Let me introduce myself. I am from the Rhinostery in Windurst. I do research on various living things."
 61: 0x0360 [0x23] WAIT_FOR_DIALOG_INTERACTION

SUBROUTINE_0361:
 62: 0x0361 [0x1D] PRINT_EVENT_MESSAGE(message_id=10496*)
    → "And I'm the besty-westy they've got! I've been looking into phenomena at a certain place."
 63: 0x0364 [0x23] WAIT_FOR_DIALOG_INTERACTION
 64: 0x0365 [0x29] REQ_SET_WAIT(priority=0x0B, entity_id=Ronta-Onta (ID: 17801322/0x010FA06A), tag_num=0x02)
 65: 0x036C [0x02] IF !(Work_Zone[9] >= 2*) GOTO 0x039B
 66: 0x0374 [0x29] REQ_SET_WAIT(priority=0x0B, entity_id=Ronta-Onta (ID: 17801322/0x010FA06A), tag_num=0x11)
 67: 0x037B [0x1D] PRINT_EVENT_MESSAGE(message_id=10497*)
    → "What phenomena, you ask? Well, there are these giant crystals, you see! And from those crystals, a strangey-wangey power is constantly pouring forth..."
 68: 0x037E [0x23] WAIT_FOR_DIALOG_INTERACTION
 69: 0x037F [0x29] REQ_SET_WAIT(priority=0x0B, entity_id=Ronta-Onta (ID: 17801322/0x010FA06A), tag_num=0x12)
 70: 0x0386 [0x29] REQ_SET_WAIT(priority=0x0B, entity_id=Ronta-Onta (ID: 17801322/0x010FA06A), tag_num=0x01)
 71: 0x038D [0x1D] PRINT_EVENT_MESSAGE(message_id=10498*)
    → "These crystals are found all over Vana'diel, and their energies affect the surrounding ecosystems. Our research team had been investigating the unusual emanations when..."
 72: 0x0390 [0x23] WAIT_FOR_DIALOG_INTERACTION
 73: 0x0391 [0x29] REQ_SET_WAIT(priority=0x0B, entity_id=Ronta-Onta (ID: 17801322/0x010FA06A), tag_num=0x02)
 74: 0x0398 [0x01] GOTO 0x03B1
 75: 0x039B [0x29] REQ_SET_WAIT(priority=0x0B, entity_id=Ronta-Onta (ID: 17801322/0x010FA06A), tag_num=0x01)
 76: 0x03A2 [0x1D] PRINT_EVENT_MESSAGE(message_id=10603*)
    → "You already-weddy know about the super-giant crystals, rightaru?"
 77: 0x03A5 [0x23] WAIT_FOR_DIALOG_INTERACTION
 78: 0x03A6 [0x1D] PRINT_EVENT_MESSAGE(message_id=10604*)
    → "These crystals are found all over Vana'diel, and their energies affect the surrounding ecosystems. Our research team had been investigating the unusual emanations when POOF, out of nowhere, a prime avatar appeared and sliced 'n diced us down to size."
 79: 0x03A9 [0x23] WAIT_FOR_DIALOG_INTERACTION
 80: 0x03AA [0x29] REQ_SET_WAIT(priority=0x0B, entity_id=Ronta-Onta (ID: 17801322/0x010FA06A), tag_num=0x02)

SUBROUTINE_03B1:
 81: 0x03B1 [0x29] REQ_SET_WAIT(priority=0x0B, entity_id=Ronta-Onta (ID: 17801322/0x010FA06A), tag_num=0x1D)
 82: 0x03B8 [0x1D] PRINT_EVENT_MESSAGE(message_id=10499*)
    → "Guess what!"
 83: 0x03BB [0x23] WAIT_FOR_DIALOG_INTERACTION
 84: 0x03BC [0x29] REQ_SET_WAIT(priority=0x0B, entity_id=Ronta-Onta (ID: 17801322/0x010FA06A), tag_num=0x1E)
 85: 0x03C3 [0x29] REQ_SET_WAIT(priority=0x0B, entity_id=Ronta-Onta (ID: 17801322/0x010FA06A), tag_num=0x1B)
 86: 0x03CA [0x1D] PRINT_EVENT_MESSAGE(message_id=10500*)
    → "We finally succeeded in awakening the crystals!"
 87: 0x03CD [0x23] WAIT_FOR_DIALOG_INTERACTION
 88: 0x03CE [0x29] REQ_SET_WAIT(priority=0x0B, entity_id=Ronta-Onta (ID: 17801322/0x010FA06A), tag_num=0x1C)
 89: 0x03D5 [0x29] REQ_SET_WAIT(priority=0x0B, entity_id=Ronta-Onta (ID: 17801322/0x010FA06A), tag_num=0x01)
 90: 0x03DC [0x1D] PRINT_EVENT_MESSAGE(message_id=10501*)
    → "Our theory on what lay dormant inside the crystals was proven to be rightaru on the money! Except they didn't appreciate being woken up... We were attacked... We were bested-wested..."
 91: 0x03DF [0x23] WAIT_FOR_DIALOG_INTERACTION
 92: 0x03E0 [0x29] REQ_SET_WAIT(priority=0x0B, entity_id=Ronta-Onta (ID: 17801322/0x010FA06A), tag_num=0x02)
 93: 0x03E7 [0x02] IF !(Work_Zone[9] >= 2*) GOTO 0x0416
 94: 0x03EF [0x29] REQ_SET_WAIT(priority=0x0B, entity_id=Ronta-Onta (ID: 17801322/0x010FA06A), tag_num=0x03)
 95: 0x03F6 [0x1D] PRINT_EVENT_MESSAGE(message_id=10502*)
    → "Why do they so despise talking with us that they would rather fight? And what on Vana'diel would happen if someone were to defeat them?"
 96: 0x03F9 [0x23] WAIT_FOR_DIALOG_INTERACTION
 97: 0x03FA [0x29] REQ_SET_WAIT(priority=0x0B, entity_id=Ronta-Onta (ID: 17801322/0x010FA06A), tag_num=0x04)
 98: 0x0401 [0x29] REQ_SET_WAIT(priority=0x0B, entity_id=Ronta-Onta (ID: 17801322/0x010FA06A), tag_num=0x05)
 99: 0x0408 [0x1D] PRINT_EVENT_MESSAGE(message_id=10503*)
    → "I bet you could do it! You call yourself an adventurer, right? Give it a shot!"
100: 0x040B [0x23] WAIT_FOR_DIALOG_INTERACTION
101: 0x040C [0x29] REQ_SET_WAIT(priority=0x0B, entity_id=Ronta-Onta (ID: 17801322/0x010FA06A), tag_num=0x06)
102: 0x0413 [0x01] GOTO 0x043A
103: 0x0416 [0x29] REQ_SET_WAIT(priority=0x0B, entity_id=Ronta-Onta (ID: 17801322/0x010FA06A), tag_num=0x03)
104: 0x041D [0x1D] PRINT_EVENT_MESSAGE(message_id=10605*)
    → "Why do these avatars so despise talking with us that they would rather fight? And what on Vana'diel would happen if someone were to defeat them?"
105: 0x0420 [0x23] WAIT_FOR_DIALOG_INTERACTION
106: 0x0421 [0x29] REQ_SET_WAIT(priority=0x0B, entity_id=Ronta-Onta (ID: 17801322/0x010FA06A), tag_num=0x04)
107: 0x0428 [0x29] REQ_SET_WAIT(priority=0x0B, entity_id=Ronta-Onta (ID: 17801322/0x010FA06A), tag_num=0x05)
108: 0x042F [0x1D] PRINT_EVENT_MESSAGE(message_id=10606*)
    → "You were able to handle one all by yourself. You should have no problem defeating one with your buddy-wuddies. You'll help us out, right?"
109: 0x0432 [0x23] WAIT_FOR_DIALOG_INTERACTION
110: 0x0433 [0x29] REQ_SET_WAIT(priority=0x0B, entity_id=Ronta-Onta (ID: 17801322/0x010FA06A), tag_num=0x06)

SUBROUTINE_043A:
111: 0x043A [0x24] CREATE_DIALOG(message_id=10504*, default_option=0*, option_flags=0*)
    → "Take up the challenge? [Bring it on!/Ah, no, thanks...]"
112: 0x0441 [0x25] WAIT_DIALOG_SELECT()
113: 0x0442 [0x02] IF !(Work_Zone[0] == 0*) GOTO 0x0463
114: 0x044A [0x42] SET_CLI_EVENT_CANCEL_DATA()
115: 0x044B [0x03] Work_Zone[1] = 1*
116: 0x0450 [0x6E] EventEntity uses emote 1*
117: 0x0457 [0x99] Wait for EventEntity animation to complete
118: 0x045C [0x1D] PRINT_EVENT_MESSAGE(message_id=10505*)
    → "Great! Here, take this $3. But be warned--only a person who carries one can enter the crystal."
119: 0x045F [0x23] WAIT_FOR_DIALOG_INTERACTION
120: 0x0460 [0x01] GOTO 0x0473
121: 0x0463 [0x02] IF !(Work_Zone[0] == 1*) GOTO 0x0473
122: 0x046B [0x03] Work_Zone[1] = 2*
123: 0x0470 [0x01] GOTO 0x0473

SUBROUTINE_0473:
124: 0x0473 [0x20] SET_CLI_EVENT_UC_FLAG: Unlock player control
125: 0x0475 [0x21] END_EVENT
126: 0x0476 [0x00] END_REQSTACK()
```

#### Data or dead code:

```
# Dead code (unreachable instructions):
     0x02BB [0x01] GOTO 0x02BE
```

### Event 271

#### Metadata

| Field        | Value    |
|--------------|----------|
| Entrypoint   | 0x0477   |
| Data Size    | 33 bytes |
| Instructions | 12       |

```
      00 01 02 03 04 05 06 07  08 09 0A 0B 0C 0D 0E 0F
      -- -- -- -- -- -- -- --  -- -- -- -- -- -- -- --
0470:                      1E  F0 FF FF 7F 6F 70 29 0B         .....op).
0480: 6A A0 0F 01 01 1D 24 80  23 1D 25 80 23 29 0B 6A  j.....$.#.%.#).j
0490: A0 0F 01 02 20 00 21 00                           .... .!.        
```

#### Opcodes

```
  0: 0x0477 [0x1E] EventEntity looks at LocalPlayer and starts talking
  1: 0x047C [0x6F] WAIT_FRAME_DELAY: Yield until WaitTime reaches zero
  2: 0x047D [0x70] WAIT_ENTITY_RENDER_FLAG: Wait while EventEntity->Render.Flags3 bit 2 is set (cancel turn if not)
  3: 0x047E [0x29] REQ_SET_WAIT(priority=0x0B, entity_id=Ronta-Onta (ID: 17801322/0x010FA06A), tag_num=0x01)
  4: 0x0485 [0x1D] PRINT_EVENT_MESSAGE(message_id=10506*)
    → "This $3 will awaken the giant crystal that is found [in Ifrit's Cauldron/in the Quicksand Caves/in the Den of Rancor/in Cape Teriggan/in Fei'Yin/in The Boyahda Tree]."
  5: 0x0488 [0x23] WAIT_FOR_DIALOG_INTERACTION
  6: 0x0489 [0x1D] PRINT_EVENT_MESSAGE(message_id=10507*)
    → "Without it, you won't be getting inside no matter how sneaky-weaky you are! Oh, and if you want to take some friends with you, they also have to get $6 from me. Okey-dokey?"
  7: 0x048C [0x23] WAIT_FOR_DIALOG_INTERACTION
  8: 0x048D [0x29] REQ_SET_WAIT(priority=0x0B, entity_id=Ronta-Onta (ID: 17801322/0x010FA06A), tag_num=0x02)
  9: 0x0494 [0x20] SET_CLI_EVENT_UC_FLAG: Unlock player control
 10: 0x0496 [0x21] END_EVENT
 11: 0x0497 [0x00] END_REQSTACK()
```

### Event 285

#### Metadata

| Field        | Value    |
|--------------|----------|
| Entrypoint   | 0x0498   |
| Data Size    | 33 bytes |
| Instructions | 12       |

```
      00 01 02 03 04 05 06 07  08 09 0A 0B 0C 0D 0E 0F
      -- -- -- -- -- -- -- --  -- -- -- -- -- -- -- --
0490:                          1E F0 FF FF 7F 6F 70 29          .....op)
04A0: 0B 6A A0 0F 01 01 1D 26  80 23 1D 27 80 23 29 0B  .j.....&.#.'.#).
04B0: 6A A0 0F 01 02 20 00 21  00                       j.... .!.       
```

#### Opcodes

```
  0: 0x0498 [0x1E] EventEntity looks at LocalPlayer and starts talking
  1: 0x049D [0x6F] WAIT_FRAME_DELAY: Yield until WaitTime reaches zero
  2: 0x049E [0x70] WAIT_ENTITY_RENDER_FLAG: Wait while EventEntity->Render.Flags3 bit 2 is set (cancel turn if not)
  3: 0x049F [0x29] REQ_SET_WAIT(priority=0x0B, entity_id=Ronta-Onta (ID: 17801322/0x010FA06A), tag_num=0x01)
  4: 0x04A6 [0x1D] PRINT_EVENT_MESSAGE(message_id=10559*)
    → "What? You want another $3?"
  5: 0x04A9 [0x23] WAIT_FOR_DIALOG_INTERACTION
  6: 0x04AA [0x1D] PRINT_EVENT_MESSAGE(message_id=10560*)
    → "Oh, all right... But be careful-wareful with this one! These things don't grow on star trees, you know."
  7: 0x04AD [0x23] WAIT_FOR_DIALOG_INTERACTION
  8: 0x04AE [0x29] REQ_SET_WAIT(priority=0x0B, entity_id=Ronta-Onta (ID: 17801322/0x010FA06A), tag_num=0x02)
  9: 0x04B5 [0x20] SET_CLI_EVENT_UC_FLAG: Unlock player control
 10: 0x04B7 [0x21] END_EVENT
 11: 0x04B8 [0x00] END_REQSTACK()
```

### Event 272

#### Metadata

| Field        | Value   |
|--------------|---------|
| Entrypoint   | 0x04B9  |
| Data Size    | 1 bytes |
| Instructions | 1       |

```
      00 01 02 03 04 05 06 07  08 09 0A 0B 0C 0D 0E 0F
      -- -- -- -- -- -- -- --  -- -- -- -- -- -- -- --
04B0:                             00                             .      
```

#### Opcodes

```
  0: 0x04B9 [0x00] END_REQSTACK()
```

### Event 273

#### Metadata

| Field        | Value      |
|--------------|------------|
| Entrypoint   | 0x04BA     |
| Data Size    | 4676 bytes |
| Instructions | 653        |

```
      00 01 02 03 04 05 06 07  08 09 0A 0B 0C 0D 0E 0F
      -- -- -- -- -- -- -- --  -- -- -- -- -- -- -- --
04B0:                                46 01 42 1E F0 FF            F.B...
04C0: FF 7F 6F 70 5D 0D 80 28  80 02 04 10 0E 80 00 D2  ..op]..(........
04D0: 08 03 07 10 29 80 03 08  10 2A 80 03 03 10 2B 80  ....)....*....+.
04E0: 45 28 80 F8 FF FF 7F F8  FF FF 7F 66 64 6F 31 0D  E(.........fdo1.
04F0: 80 1C 01 80 38 2C 80 29  0B F0 FF FF 7F 20 29 0B  ....8,.)..... ).
0500: F0 FF FF 7F 1D 29 0B 6D  A0 0F 01 02 29 0B 6C A0  .....).m....).l.
0510: 0F 01 02 4A 6B A0 0F 01  6A A0 0F 01 4A F0 FF FF  ...Jk...j...J...
0520: 7F 6A A0 0F 01 1E F0 FF  FF 7F 6F 70 27 0A 6B A0  .j........op'.k.
0530: 0F 01 07 45 28 80 F8 FF  FF 7F F8 FF FF 7F 66 64  ...E(.........fd
0540: 69 31 0D 80 29 0B 6A A0  0F 01 01 1D 2D 80 23 45  i1..).j.....-.#E
0550: 28 80 F8 FF FF 7F F8 FF  FF 7F 66 64 6F 31 0D 80  (.........fdo1..
0560: 1C 01 80 29 0B 6A A0 0F  01 02 2A 0A 6B A0 0F 01  ...).j....*.k...
0570: 29 0B 6A A0 0F 01 03 29  0B 6A A0 0F 01 04 45 2E  ).j....).j....E.
0580: 80 F8 FF FF 7F F8 FF FF  7F 73 30 34 31 0D 80 45  .........s041..E
0590: 28 80 F8 FF FF 7F F8 FF  FF 7F 66 64 69 31 0D 80  (.........fdi1..
05A0: 4E 00 6D A0 0F 01 4E 00  6C A0 0F 01 6C 6C A0 0F  N.m...N.l...ll..
05B0: 01 0D 80 0C 80 1D 2F 80  23 80 6D A0 0F 01 52 2E  ....../.#.m...R.
05C0: 80 F8 FF FF 7F F8 FF FF  7F 73 30 34 31 02 09 10  .........s041...
05D0: 06 80 00 E9 05 45 2E 80  F8 FF FF 7F F8 FF FF 7F  .....E..........
05E0: 73 30 34 33 0D 80 01 6A  06 02 09 10 30 80 00 05  s043...j....0...
05F0: 06 45 2E 80 F8 FF FF 7F  F8 FF FF 7F 73 30 34 33  .E..........s043
0600: 0D 80 01 6A 06 02 09 10  31 80 00 21 06 45 2E 80  ...j....1..!.E..
0610: F8 FF FF 7F F8 FF FF 7F  73 30 34 34 0D 80 01 6A  ........s044...j
0620: 06 02 09 10 32 80 00 3D  06 45 2E 80 F8 FF FF 7F  ....2..=.E......
0630: F8 FF FF 7F 73 30 34 34  0D 80 01 6A 06 02 09 10  ....s044...j....
0640: 33 80 00 59 06 45 2E 80  F8 FF FF 7F F8 FF FF 7F  3..Y.E..........
0650: 73 30 34 33 0D 80 01 6A  06 45 2E 80 F8 FF FF 7F  s043...j.E......
0660: F8 FF FF 7F 73 30 34 32  0D 80 27 0A F0 FF FF 7F  ....s042..'.....
0670: 1F 29 0B 6A A0 0F 01 05  2B 6C A0 0F 01 34 80 23  .).j....+l...4.#
0680: 2A 0A F0 FF FF 7F 6C 6C  A0 0F 01 35 80 36 80 27  *.....ll...5.6.'
0690: 0A 6C A0 0F 01 04 29 0B  6A A0 0F 01 06 02 09 10  .l....).j.......
06A0: 06 80 00 B7 06 52 2E 80  F8 FF FF 7F F8 FF FF 7F  .....R..........
06B0: 73 30 34 33 01 2E 07 02  09 10 30 80 00 D1 06 52  s043......0....R
06C0: 2E 80 F8 FF FF 7F F8 FF  FF 7F 73 30 34 33 01 2E  ..........s043..
06D0: 07 02 09 10 31 80 00 EB  06 52 2E 80 F8 FF FF 7F  ....1....R......
06E0: F8 FF FF 7F 73 30 34 34  01 2E 07 02 09 10 32 80  ....s044......2.
06F0: 00 05 07 52 2E 80 F8 FF  FF 7F F8 FF FF 7F 73 30  ...R..........s0
0700: 34 34 01 2E 07 02 09 10  33 80 00 1F 07 52 2E 80  44......3....R..
0710: F8 FF FF 7F F8 FF FF 7F  73 30 34 33 01 2E 07 52  ........s043...R
0720: 2E 80 F8 FF FF 7F F8 FF  FF 7F 73 30 34 32 45 37  ..........s042E7
0730: 80 F0 FF FF 7F F0 FF FF  7F 62 6C 72 6F 0D 80 45  .........blro..E
0740: 38 80 F0 FF FF 7F F0 FF  FF 7F 62 6C 6F 6E 0D 80  8.........blon..
0750: 45 28 80 F0 FF FF 7F F0  FF FF 7F 6F 76 6C 31 0D  E(.........ovl1.
0760: 80 45 2E 80 F8 FF FF 7F  F8 FF FF 7F 73 30 34 35  .E..........s045
0770: 0D 80 1C 39 80 4A F0 FF  FF 7F 6C A0 0F 01 1D 3A  ...9.J....l....:
0780: 80 23 6F 76 F0 FF FF 7F  1C 3B 80 45 38 80 F0 FF  .#ov.....;.E8...
0790: FF 7F F0 FF FF 7F 77 68  6F 31 0D 80 1C 01 80 52  ......who1.....R
07A0: 2E 80 F8 FF FF 7F F8 FF  FF 7F 73 30 33 38 2A 0A  ..........s038*.
07B0: 6C A0 0F 01 34 3C 80 77  3D 80 3E 80 03 01 00 04  l...4<.w=.>.....
07C0: 10 03 04 10 3F 80 1A FA  10 03 04 10 01 00 78 34  ....?.........x4
07D0: 40 80 78 6C F0 FF FF 7F  35 80 0C 80 1C 28 80 4E  @.xl....5....(.N
07E0: 00 6A A0 0F 01 4E 00 6B  A0 0F 01 80 6A A0 0F 01  .j...N.k....j...
07F0: 80 6B A0 0F 01 5C 00 41  80 5C 01 41 80 5D 42 80  .k...\.A.\.A.]B.
0800: 0C 80 45 2E 80 F8 FF FF  7F F8 FF FF 7F 73 30 34  ..E..........s04
0810: 30 0D 80 45 28 80 F8 FF  FF 7F F8 FF FF 7F 66 64  0..E(.........fd
0820: 69 32 0D 80 45 38 80 F0  FF FF 7F F0 FF FF 7F 77  i2..E8.........w
0830: 68 69 31 0D 80 7B 6A A0  0F 01 1C 36 80 1D 43 80  hi1..{j....6..C.
0840: 23 52 2E 80 F8 FF FF 7F  F8 FF FF 7F 73 30 34 30  #R..........s040
0850: 45 2E 80 F8 FF FF 7F F8  FF FF 7F 73 30 34 31 0D  E..........s041.
0860: 80 29 0B 6A A0 0F 01 03  1D 44 80 23 29 0B 6A A0  .).j.....D.#).j.
0870: 0F 01 04 29 0B 6A A0 0F  01 05 1D 45 80 23 29 0B  ...).j.....E.#).
0880: 6A A0 0F 01 06 45 28 80  F8 FF FF 7F F8 FF FF 7F  j....E(.........
0890: 66 64 6F 31 0D 80 1C 01  80 52 2E 80 F8 FF FF 7F  fdo1.....R......
08A0: F8 FF FF 7F 73 30 34 31  46 00 1C 28 80 45 28 80  ....s041F..(.E(.
08B0: F8 FF FF 7F F8 FF FF 7F  66 64 69 31 0D 80 45 38  ........fdi1..E8
08C0: 80 F0 FF FF 7F F0 FF FF  7F 71 73 74 63 0D 80 01  .........qstc...
08D0: F6 10 02 04 10 06 80 00  DB 0C 03 07 10 46 80 03  .............F..
08E0: 08 10 47 80 03 03 10 48  80 45 28 80 F8 FF FF 7F  ..G....H.E(.....
08F0: F8 FF FF 7F 66 64 6F 31  0D 80 1C 01 80 38 2C 80  ....fdo1.....8,.
0900: 29 0B F0 FF FF 7F 20 29  0B F0 FF FF 7F 1D 29 0B  )..... )......).
0910: 6D A0 0F 01 02 29 0B 6C  A0 0F 01 02 4A 6B A0 0F  m....).l....Jk..
0920: 01 6A A0 0F 01 4A F0 FF  FF 7F 6A A0 0F 01 1E F0  .j...J....j.....
0930: FF FF 7F 6F 70 27 0A 6B  A0 0F 01 06 45 28 80 F8  ...op'.k....E(..
0940: FF FF 7F F8 FF FF 7F 66  64 69 31 0D 80 29 0B 6A  .......fdi1..).j
0950: A0 0F 01 01 1D 2D 80 23  45 28 80 F8 FF FF 7F F8  .....-.#E(......
0960: FF FF 7F 66 64 6F 31 0D  80 1C 01 80 29 0B 6A A0  ...fdo1.....).j.
0970: 0F 01 02 2A 0A 6B A0 0F  01 29 0B 6A A0 0F 01 03  ...*.k...).j....
0980: 29 0B 6A A0 0F 01 04 45  2E 80 F8 FF FF 7F F8 FF  ).j....E........
0990: FF 7F 73 30 33 34 0D 80  45 28 80 F8 FF FF 7F F8  ..s034..E(......
09A0: FF FF 7F 66 64 69 31 0D  80 4E 00 6D A0 0F 01 4E  ...fdi1..N.m...N
09B0: 00 6C A0 0F 01 6C 6C A0  0F 01 0D 80 0C 80 1D 2F  .l...ll......../
09C0: 80 23 80 6D A0 0F 01 52  2E 80 F8 FF FF 7F F8 FF  .#.m...R........
09D0: FF 7F 73 30 33 34 02 09  10 06 80 00 F2 09 45 2E  ..s034........E.
09E0: 80 F8 FF FF 7F F8 FF FF  7F 73 30 33 36 0D 80 01  .........s036...
09F0: 73 0A 02 09 10 30 80 00  0E 0A 45 2E 80 F8 FF FF  s....0....E.....
0A00: 7F F8 FF FF 7F 73 30 33  36 0D 80 01 73 0A 02 09  .....s036...s...
0A10: 10 31 80 00 2A 0A 45 2E  80 F8 FF FF 7F F8 FF FF  .1..*.E.........
0A20: 7F 73 30 33 37 0D 80 01  73 0A 02 09 10 32 80 00  .s037...s....2..
0A30: 46 0A 45 2E 80 F8 FF FF  7F F8 FF FF 7F 73 30 33  F.E..........s03
0A40: 37 0D 80 01 73 0A 02 09  10 33 80 00 62 0A 45 2E  7...s....3..b.E.
0A50: 80 F8 FF FF 7F F8 FF FF  7F 73 30 33 36 0D 80 01  .........s036...
0A60: 73 0A 45 2E 80 F8 FF FF  7F F8 FF FF 7F 73 30 33  s.E..........s03
0A70: 35 0D 80 27 0A F0 FF FF  7F 1F 29 0B 6A A0 0F 01  5..'......).j...
0A80: 05 2B 6C A0 0F 01 34 80  23 2A 0A F0 FF FF 7F 6C  .+l...4.#*.....l
0A90: 6C A0 0F 01 35 80 36 80  27 0A 6C A0 0F 01 04 29  l...5.6.'.l....)
0AA0: 0B 6A A0 0F 01 06 02 09  10 06 80 00 C0 0A 52 2E  .j............R.
0AB0: 80 F8 FF FF 7F F8 FF FF  7F 73 30 33 36 01 37 0B  .........s036.7.
0AC0: 02 09 10 30 80 00 DA 0A  52 2E 80 F8 FF FF 7F F8  ...0....R.......
0AD0: FF FF 7F 73 30 33 36 01  37 0B 02 09 10 31 80 00  ...s036.7....1..
0AE0: F4 0A 52 2E 80 F8 FF FF  7F F8 FF FF 7F 73 30 33  ..R..........s03
0AF0: 37 01 37 0B 02 09 10 32  80 00 0E 0B 52 2E 80 F8  7.7....2....R...
0B00: FF FF 7F F8 FF FF 7F 73  30 33 37 01 37 0B 02 09  .......s037.7...
0B10: 10 33 80 00 28 0B 52 2E  80 F8 FF FF 7F F8 FF FF  .3..(.R.........
0B20: 7F 73 30 33 36 01 37 0B  52 2E 80 F8 FF FF 7F F8  .s036.7.R.......
0B30: FF FF 7F 73 30 33 35 45  37 80 F0 FF FF 7F F0 FF  ...s035E7.......
0B40: FF 7F 62 6C 72 6F 0D 80  45 38 80 F0 FF FF 7F F0  ..blro..E8......
0B50: FF FF 7F 62 6C 6F 6E 0D  80 45 28 80 F0 FF FF 7F  ...blon..E(.....
0B60: F0 FF FF 7F 6F 76 6C 31  0D 80 45 2E 80 F8 FF FF  ....ovl1..E.....
0B70: 7F F8 FF FF 7F 73 30 33  38 0D 80 1C 39 80 4A F0  .....s038...9.J.
0B80: FF FF 7F 6C A0 0F 01 1D  3A 80 23 6F 76 F0 FF FF  ...l....:.#ov...
0B90: 7F 1C 3B 80 45 38 80 F0  FF FF 7F F0 FF FF 7F 77  ..;.E8.........w
0BA0: 68 6F 31 0D 80 1C 01 80  52 2E 80 F8 FF FF 7F F8  ho1.....R.......
0BB0: FF FF 7F 73 30 33 38 2A  0A 6C A0 0F 01 34 38 80  ...s038*.l...48.
0BC0: 77 3D 80 49 80 03 02 00  04 10 03 04 10 4A 80 1A  w=.I.........J..
0BD0: FA 10 03 04 10 02 00 78  34 4B 80 78 6C F0 FF FF  .......x4K.xl...
0BE0: 7F 35 80 0C 80 1C 28 80  4E 00 6A A0 0F 01 4E 00  .5....(.N.j...N.
0BF0: 6B A0 0F 01 80 6A A0 0F  01 80 6B A0 0F 01 5C 00  k....j....k...\.
0C00: 4C 80 5C 01 4C 80 5D 42  80 0C 80 45 2E 80 F8 FF  L.\.L.]B...E....
0C10: FF 7F F8 FF FF 7F 73 30  33 34 0D 80 45 28 80 F8  ......s034..E(..
0C20: FF FF 7F F8 FF FF 7F 66  64 69 32 0D 80 45 38 80  .......fdi2..E8.
0C30: F0 FF FF 7F F0 FF FF 7F  77 68 69 31 0D 80 7B 6A  ........whi1..{j
0C40: A0 0F 01 1C 36 80 1D 43  80 23 52 2E 80 F8 FF FF  ....6..C.#R.....
0C50: 7F F8 FF FF 7F 73 30 33  34 45 2E 80 F8 FF FF 7F  .....s034E......
0C60: F8 FF FF 7F 73 30 33 33  0D 80 29 0B 6A A0 0F 01  ....s033..).j...
0C70: 03 1D 44 80 23 29 0B 6A  A0 0F 01 04 29 0B 6A A0  ..D.#).j....).j.
0C80: 0F 01 05 1D 45 80 23 29  0B 6A A0 0F 01 06 45 28  ....E.#).j....E(
0C90: 80 F8 FF FF 7F F8 FF FF  7F 66 64 6F 31 0D 80 1C  .........fdo1...
0CA0: 01 80 52 2E 80 F8 FF FF  7F F8 FF FF 7F 73 30 33  ..R..........s03
0CB0: 33 46 00 1C 28 80 45 28  80 F8 FF FF 7F F8 FF FF  3F..(.E(........
0CC0: 7F 66 64 69 31 0D 80 45  38 80 F0 FF FF 7F F0 FF  .fdi1..E8.......
0CD0: FF 7F 71 73 74 63 0D 80  01 F6 10 02 04 10 0D 80  ..qstc..........
0CE0: 00 F6 10 03 07 10 4D 80  03 08 10 4E 80 03 03 10  ......M....N....
0CF0: 4F 80 45 28 80 F8 FF FF  7F F8 FF FF 7F 66 64 6F  O.E(.........fdo
0D00: 31 0D 80 1C 01 80 38 2C  80 29 0B F0 FF FF 7F 20  1.....8,.)..... 
0D10: 29 0B F0 FF FF 7F 1D 29  0B 6D A0 0F 01 02 29 0B  )......).m....).
0D20: 6C A0 0F 01 02 4A 6B A0  0F 01 6A A0 0F 01 4A F0  l....Jk...j...J.
0D30: FF FF 7F 6A A0 0F 01 1E  F0 FF FF 7F 6F 70 27 0A  ...j........op'.
0D40: 6B A0 0F 01 05 45 28 80  F8 FF FF 7F F8 FF FF 7F  k....E(.........
0D50: 66 64 69 31 0D 80 29 0B  6A A0 0F 01 01 1D 2D 80  fdi1..).j.....-.
0D60: 23 45 28 80 F8 FF FF 7F  F8 FF FF 7F 66 64 6F 31  #E(.........fdo1
0D70: 0D 80 1C 01 80 29 0B 6A  A0 0F 01 02 2A 0A 6B A0  .....).j....*.k.
0D80: 0F 01 29 0B 6A A0 0F 01  03 29 0B 6A A0 0F 01 04  ..).j....).j....
0D90: 45 2E 80 F8 FF FF 7F F8  FF FF 7F 73 30 30 34 0D  E..........s004.
0DA0: 80 45 28 80 F8 FF FF 7F  F8 FF FF 7F 66 64 69 31  .E(.........fdi1
0DB0: 0D 80 4E 00 6D A0 0F 01  4E 00 6C A0 0F 01 6C 6C  ..N.m...N.l...ll
0DC0: A0 0F 01 0D 80 0C 80 1D  2F 80 23 80 6D A0 0F 01  ......../.#.m...
0DD0: 52 2E 80 F8 FF FF 7F F8  FF FF 7F 73 30 30 34 02  R..........s004.
0DE0: 09 10 06 80 00 FB 0D 45  2E 80 F8 FF FF 7F F8 FF  .......E........
0DF0: FF 7F 73 30 31 32 0D 80  01 7C 0E 02 09 10 30 80  ..s012...|....0.
0E00: 00 17 0E 45 2E 80 F8 FF  FF 7F F8 FF FF 7F 73 30  ...E..........s0
0E10: 31 32 0D 80 01 7C 0E 02  09 10 31 80 00 33 0E 45  12...|....1..3.E
0E20: 2E 80 F8 FF FF 7F F8 FF  FF 7F 73 30 31 34 0D 80  ..........s014..
0E30: 01 7C 0E 02 09 10 32 80  00 4F 0E 45 2E 80 F8 FF  .|....2..O.E....
0E40: FF 7F F8 FF FF 7F 73 30  31 34 0D 80 01 7C 0E 02  ......s014...|..
0E50: 09 10 33 80 00 6B 0E 45  2E 80 F8 FF FF 7F F8 FF  ..3..k.E........
0E60: FF 7F 73 30 31 32 0D 80  01 7C 0E 45 2E 80 F8 FF  ..s012...|.E....
0E70: FF 7F F8 FF FF 7F 73 30  30 32 0D 80 27 0A F0 FF  ......s002..'...
0E80: FF 7F 1F 29 0B 6A A0 0F  01 05 2B 6C A0 0F 01 34  ...).j....+l...4
0E90: 80 23 2A 0A F0 FF FF 7F  6C 6C A0 0F 01 35 80 36  .#*.....ll...5.6
0EA0: 80 27 0A 6C A0 0F 01 04  29 0B 6A A0 0F 01 06 02  .'.l....).j.....
0EB0: 09 10 06 80 00 C9 0E 52  2E 80 F8 FF FF 7F F8 FF  .......R........
0EC0: FF 7F 73 30 31 32 01 40  0F 02 09 10 30 80 00 E3  ..s012.@....0...
0ED0: 0E 52 2E 80 F8 FF FF 7F  F8 FF FF 7F 73 30 31 32  .R..........s012
0EE0: 01 40 0F 02 09 10 31 80  00 FD 0E 52 2E 80 F8 FF  .@....1....R....
0EF0: FF 7F F8 FF FF 7F 73 30  31 34 01 40 0F 02 09 10  ......s014.@....
0F00: 32 80 00 17 0F 52 2E 80  F8 FF FF 7F F8 FF FF 7F  2....R..........
0F10: 73 30 31 34 01 40 0F 02  09 10 33 80 00 31 0F 52  s014.@....3..1.R
0F20: 2E 80 F8 FF FF 7F F8 FF  FF 7F 73 30 31 32 01 40  ..........s012.@
0F30: 0F 52 2E 80 F8 FF FF 7F  F8 FF FF 7F 73 30 30 32  .R..........s002
0F40: 45 37 80 F0 FF FF 7F F0  FF FF 7F 62 6C 72 6F 0D  E7.........blro.
0F50: 80 45 38 80 F0 FF FF 7F  F0 FF FF 7F 62 6C 6F 6E  .E8.........blon
0F60: 0D 80 45 28 80 F0 FF FF  7F F0 FF FF 7F 6F 76 6C  ..E(.........ovl
0F70: 31 0D 80 45 2E 80 F8 FF  FF 7F F8 FF FF 7F 73 30  1..E..........s0
0F80: 30 33 0D 80 1C 39 80 4A  F0 FF FF 7F 6C A0 0F 01  03...9.J....l...
0F90: 1D 3A 80 23 6F 76 F0 FF  FF 7F 1C 3B 80 45 38 80  .:.#ov.....;.E8.
0FA0: F0 FF FF 7F F0 FF FF 7F  77 68 6F 31 0D 80 1C 01  ........who1....
0FB0: 80 52 2E 80 F8 FF FF 7F  F8 FF FF 7F 73 30 30 33  .R..........s003
0FC0: 2A 0A 6C A0 0F 01 38 50  80 34 51 80 77 3D 80 31  *.l...8P.4Q.w=.1
0FD0: 80 03 00 00 04 10 03 04  10 52 80 4E 00 68 A0 0F  .........R.N.h..
0FE0: 01 4E 01 68 A0 0F 01 1A  FA 10 03 04 10 00 00 78  .N.h...........x
0FF0: 34 53 80 78 6C F0 FF FF  7F 35 80 0C 80 1C 28 80  4S.xl....5....(.
1000: 4E 00 6A A0 0F 01 4E 00  6B A0 0F 01 80 6A A0 0F  N.j...N.k....j..
1010: 01 80 6B A0 0F 01 5C 00  54 80 5C 01 54 80 5D 42  ..k...\.T.\.T.]B
1020: 80 0C 80 45 2E 80 F8 FF  FF 7F F8 FF FF 7F 73 30  ...E..........s0
1030: 30 34 0D 80 45 28 80 F8  FF FF 7F F8 FF FF 7F 66  04..E(.........f
1040: 64 69 32 0D 80 45 38 80  F0 FF FF 7F F0 FF FF 7F  di2..E8.........
1050: 77 68 69 31 0D 80 7B 6A  A0 0F 01 1C 36 80 1D 43  whi1..{j....6..C
1060: 80 23 52 2E 80 F8 FF FF  7F F8 FF FF 7F 73 30 30  .#R..........s00
1070: 34 45 2E 80 F8 FF FF 7F  F8 FF FF 7F 73 30 30 31  4E..........s001
1080: 0D 80 29 0B 6A A0 0F 01  03 1D 44 80 23 29 0B 6A  ..).j.....D.#).j
1090: A0 0F 01 04 29 0B 6A A0  0F 01 05 1D 45 80 23 29  ....).j.....E.#)
10A0: 0B 6A A0 0F 01 06 45 28  80 F8 FF FF 7F F8 FF FF  .j....E(........
10B0: 7F 66 64 6F 31 0D 80 1C  01 80 52 2E 80 F8 FF FF  .fdo1.....R.....
10C0: 7F F8 FF FF 7F 73 30 30  31 46 00 4E 00 68 A0 0F  .....s001F.N.h..
10D0: 01 1C 28 80 45 28 80 F8  FF FF 7F F8 FF FF 7F 66  ..(.E(.........f
10E0: 64 69 31 0D 80 45 38 80  F0 FF FF 7F F0 FF FF 7F  di1..E8.........
10F0: 71 73 74 63 0D 80 20 00  21 00 1C 01 80 29 0B 6C  qstc.. .!....).l
1100: A0 0F 01 03 27 0D 6D A0  0F 01 04 29 0B F0 FF FF  ....'.m....)....
1110: 7F 1E 6C 6C A0 0F 01 55  80 0C 80 6C F0 FF FF 7F  ..ll...U...l....
1120: 36 80 0C 80 79 00 F0 FF  FF 7F 6D A0 0F 01 45 38  6...y.....m...E8
1130: 80 F0 FF FF 7F F0 FF FF  7F 77 68 69 31 0D 80 45  .........whi1..E
1140: 2E 80 F8 FF FF 7F F8 FF  FF 7F 73 30 30 35 0D 80  ..........s005..
1150: 1C 56 80 52 2E 80 F8 FF  FF 7F F8 FF FF 7F 73 30  .V.R..........s0
1160: 30 35 45 28 80 F0 FF FF  7F F0 FF FF 7F 6F 76 6C  05E(.........ovl
1170: 31 0D 80 02 09 10 31 80  00 8F 11 45 2E 80 F8 FF  1.....1....E....
1180: FF 7F F8 FF FF 7F 73 30  31 35 0D 80 01 BC 11 02  ......s015......
1190: 09 10 32 80 00 AB 11 45  2E 80 F8 FF FF 7F F8 FF  ..2....E........
11A0: FF 7F 73 30 31 35 0D 80  01 BC 11 45 2E 80 F8 FF  ..s015.....E....
11B0: FF 7F F8 FF FF 7F 73 30  30 37 0D 80 02 05 10 0C  ......s007......
11C0: 80 00 14 12 02 02 10 0C  80 00 F0 11 1C 36 80 2B  .............6.+
11D0: 6C A0 0F 01 57 80 23 1C  36 80 2B 6C A0 0F 01 58  l...W.#.6.+l...X
11E0: 80 23 1C 36 80 2B 6C A0  0F 01 59 80 23 01 11 12  .#.6.+l...Y.#...
11F0: 1C 36 80 2B 6C A0 0F 01  5A 80 23 1C 36 80 2B 6C  .6.+l...Z.#.6.+l
1200: A0 0F 01 5B 80 23 1C 36  80 2B 6C A0 0F 01 5C 80  ...[.#.6.+l...\.
1210: 23 01 61 12 02 02 10 0C  80 00 40 12 1C 36 80 2B  #.a.......@..6.+
1220: 6C A0 0F 01 5D 80 23 1C  36 80 2B 6C A0 0F 01 5E  l...].#.6.+l...^
1230: 80 23 1C 36 80 2B 6C A0  0F 01 5F 80 23 01 61 12  .#.6.+l..._.#.a.
1240: 1C 36 80 2B 6C A0 0F 01  60 80 23 1C 36 80 2B 6C  .6.+l...`.#.6.+l
1250: A0 0F 01 61 80 23 1C 36  80 2B 6C A0 0F 01 62 80  ...a.#.6.+l...b.
1260: 23 45 28 80 F8 FF FF 7F  F8 FF FF 7F 66 64 6F 31  #E(.........fdo1
1270: 0D 80 1C 01 80 02 05 10  0C 80 00 88 12 1C 36 80  ..............6.
1280: 2B 6C A0 0F 01 63 80 23  02 09 10 31 80 00 A2 12  +l...c.#...1....
1290: 52 2E 80 F8 FF FF 7F F8  FF FF 7F 73 30 31 35 01  R..........s015.
12A0: CB 12 02 09 10 32 80 00  BC 12 52 2E 80 F8 FF FF  .....2....R.....
12B0: 7F F8 FF FF 7F 73 30 31  35 01 CB 12 52 2E 80 F8  .....s015...R...
12C0: FF FF 7F F8 FF FF 7F 73  30 30 37 02 09 10 06 80  .......s007.....
12D0: 00 E7 12 45 2E 80 F8 FF  FF 7F F8 FF FF 7F 73 30  ...E..........s0
12E0: 31 33 0D 80 01 68 13 02  09 10 30 80 00 03 13 45  13...h....0....E
12F0: 2E 80 F8 FF FF 7F F8 FF  FF 7F 73 30 31 33 0D 80  ..........s013..
1300: 01 68 13 02 09 10 31 80  00 1F 13 45 2E 80 F8 FF  .h....1....E....
1310: FF 7F F8 FF FF 7F 73 30  31 36 0D 80 01 68 13 02  ......s016...h..
1320: 09 10 32 80 00 3B 13 45  2E 80 F8 FF FF 7F F8 FF  ..2..;.E........
1330: FF 7F 73 30 31 36 0D 80  01 68 13 02 09 10 33 80  ..s016...h....3.
1340: 00 57 13 45 2E 80 F8 FF  FF 7F F8 FF FF 7F 73 30  .W.E..........s0
1350: 31 33 0D 80 01 68 13 45  2E 80 F8 FF FF 7F F8 FF  13...h.E........
1360: FF 7F 73 30 30 38 0D 80  45 28 80 F8 FF FF 7F F8  ..s008..E(......
1370: FF FF 7F 66 64 69 31 0D  80 79 00 F0 FF FF 7F 6C  ...fdi1..y.....l
1380: A0 0F 01 2B 6C A0 0F 01  64 80 23 7B F0 FF FF 7F  ...+l...d.#{....
1390: 5D 0D 80 28 80 45 28 80  F8 FF FF 7F F8 FF FF 7F  ]..(.E(.........
13A0: 66 64 6F 32 0D 80 1C 65  80 4E 01 6D A0 0F 01 4E  fdo2...e.N.m...N
13B0: 01 6C A0 0F 01 02 09 10  06 80 00 CF 13 52 2E 80  .l...........R..
13C0: F8 FF FF 7F F8 FF FF 7F  73 30 31 33 01 46 14 02  ........s013.F..
13D0: 09 10 30 80 00 E9 13 52  2E 80 F8 FF FF 7F F8 FF  ..0....R........
13E0: FF 7F 73 30 31 33 01 46  14 02 09 10 31 80 00 03  ..s013.F....1...
13F0: 14 52 2E 80 F8 FF FF 7F  F8 FF FF 7F 73 30 31 36  .R..........s016
1400: 01 46 14 02 09 10 32 80  00 1D 14 52 2E 80 F8 FF  .F....2....R....
1410: FF 7F F8 FF FF 7F 73 30  31 36 01 46 14 02 09 10  ......s016.F....
1420: 33 80 00 37 14 52 2E 80  F8 FF FF 7F F8 FF FF 7F  3..7.R..........
1430: 73 30 31 33 01 46 14 52  2E 80 F8 FF FF 7F F8 FF  s013.F.R........
1440: FF 7F 73 30 30 38 24 66  80 0D 80 06 10 25 02 00  ..s008$f.....%..
1450: 10 0D 80 00 8F 14 93 07  10 2B 6C A0 0F 01 67 80  .........+l...g.
1460: 23 93 0D 80 24 68 80 0C  80 0D 80 25 02 00 10 0D  #...$h.....%....
1470: 80 00 7C 14 03 01 10 0C  80 01 8C 14 02 00 10 0C  ..|.............
1480: 80 00 8C 14 03 01 10 0D  80 01 8C 14 01 B8 15 02  ................
1490: 00 10 0C 80 00 D0 14 93  08 10 2B 6C A0 0F 01 67  ..........+l...g
14A0: 80 23 93 0D 80 24 69 80  0C 80 0D 80 25 02 00 10  .#...$i.....%...
14B0: 0D 80 00 BD 14 03 01 10  0E 80 01 CD 14 02 00 10  ................
14C0: 0C 80 00 CD 14 03 01 10  0D 80 01 CD 14 01 B8 15  ................
14D0: 02 00 10 0E 80 00 11 15  93 03 10 2B 6C A0 0F 01  ...........+l...
14E0: 67 80 23 93 0D 80 24 6A  80 0C 80 0D 80 25 02 00  g.#...$j.....%..
14F0: 10 0D 80 00 FE 14 03 01  10 06 80 01 0E 15 02 00  ................
1500: 10 0C 80 00 0E 15 03 01  10 0D 80 01 0E 15 01 B8  ................
1510: 15 02 00 10 06 80 00 52  15 93 04 10 2B 6C A0 0F  .......R....+l..
1520: 01 67 80 23 93 0D 80 24  6B 80 0C 80 0D 80 25 02  .g.#...$k.....%.
1530: 00 10 0D 80 00 3F 15 03  01 10 30 80 01 4F 15 02  .....?....0..O..
1540: 00 10 0C 80 00 4F 15 03  01 10 0D 80 01 4F 15 01  .....O.......O..
1550: B8 15 02 00 10 30 80 00  85 15 24 6C 80 0C 80 0D  .....0....$l....
1560: 80 25 02 00 10 0D 80 00  72 15 03 01 10 31 80 01  .%......r....1..
1570: 82 15 02 00 10 0C 80 00  82 15 03 01 10 0D 80 01  ................
1580: 82 15 01 B8 15 02 00 10  31 80 00 B8 15 24 6D 80  ........1....$m.
1590: 0C 80 0D 80 25 02 00 10  0D 80 00 A5 15 03 01 10  ....%...........
15A0: 32 80 01 B5 15 02 00 10  0C 80 00 B5 15 03 01 10  2...............
15B0: 0D 80 01 B5 15 01 B8 15  02 01 10 0D 80 00 C3 15  ................
15C0: 01 46 14 02 01 10 32 80  03 53 16 45 2E 80 F8 FF  .F....2..S.E....
15D0: FF 7F F8 FF FF 7F 73 30  30 36 0D 80 45 28 80 F8  ......s006..E(..
15E0: FF FF 7F F8 FF FF 7F 66  64 69 32 0D 80 1C 6E 80  .......fdi2...n.
15F0: 2B 6C A0 0F 01 6F 80 23  2A 0D 6D A0 0F 01 45 28  +l...o.#*.m...E(
1600: 80 F8 FF FF 7F F8 FF FF  7F 66 64 6F 32 0D 80 1C  .........fdo2...
1610: 36 80 52 2E 80 F8 FF FF  7F F8 FF FF 7F 73 30 30  6.R..........s00
1620: 36 1C 36 80 48 70 80 23  1C 55 80 45 38 80 F0 FF  6.6.Hp.#.U.E8...
1630: FF 7F F0 FF FF 7F 77 68  6F 32 0D 80 1C 6E 80 45  ......who2...n.E
1640: 38 80 F0 FF FF 7F F0 FF  FF 7F 77 68 69 32 0D 80  8.........whi2..
1650: 01 FD 16 45 38 80 F0 FF  FF 7F F0 FF FF 7F 77 68  ...E8.........wh
1660: 6F 31 0D 80 1C 01 80 45  28 80 F8 FF FF 7F F8 FF  o1.....E(.......
1670: FF 7F 66 64 69 32 0D 80  29 0B 6E A0 0F 01 02 2B  ..fdi2..).n....+
1680: 6C A0 0F 01 71 80 23 4E  00 6E A0 0F 01 5C 00 72  l...q.#N.n...\.r
1690: 80 5C 01 72 80 5D 42 80  0C 80 1C 36 80 80 6E A0  .\.r.]B....6..n.
16A0: 0F 01 45 2E 80 F8 FF FF  7F F8 FF FF 7F 73 30 30  ..E..........s00
16B0: 39 0D 80 45 38 80 F0 FF  FF 7F F0 FF FF 7F 77 68  9..E8.........wh
16C0: 69 31 0D 80 2B 6E A0 0F  01 73 80 23 52 2E 80 F8  i1..+n...s.#R...
16D0: FF FF 7F F8 FF FF 7F 73  30 30 39 27 0B 6E A0 0F  .......s009'.n..
16E0: 01 03 2B 6E A0 0F 01 74  80 23 2B 6E A0 0F 01 75  ..+n...t.#+n...u
16F0: 80 23 2A 0B 6E A0 0F 01  5D 0D 80 28 80 1B        .#*.n...]..(..  
```

#### Opcodes

```
  0: 0x04BA [0x46] CAMERA_CONTROL: Disable user control
  1: 0x04BC [0x42] SET_CLI_EVENT_CANCEL_DATA()
  2: 0x04BD [0x1E] EventEntity looks at LocalPlayer and starts talking
  3: 0x04C2 [0x6F] WAIT_FRAME_DELAY: Yield until WaitTime reaches zero
  4: 0x04C3 [0x70] WAIT_ENTITY_RENDER_FLAG: Wait while EventEntity->Render.Flags3 bit 2 is set (cancel turn if not)
  5: 0x04C4 [0x5D] SET_MUSIC_VOLUME(volume=0*, fade_time=200*)
  6: 0x04C9 [0x02] IF !(Work_Zone[4] == 2*) GOTO 0x08D2
  7: 0x04D1 [0x03] Work_Zone[7] = 17439*
  8: 0x04D6 [0x03] Work_Zone[8] = 13246*
  9: 0x04DB [0x03] Work_Zone[3] = 13565*
 10: 0x04E0 [0x45] LOAD_SCHEDULED_TASK: Load scheduler "fdo1" with entities [EventEntity, EventEntity], work=[200*, 0*]
 11: 0x04F1 [0x1C] WAIT(60* ticks)
 12: 0x04F4 [0x38] SET_CLIENT_EVENT_MODE(mode=19*)
 13: 0x04F7 [0x29] REQ_SET_WAIT(priority=0x0B, entity_id=LocalPlayer, tag_num=0x20)
 14: 0x04FE [0x29] REQ_SET_WAIT(priority=0x0B, entity_id=LocalPlayer, tag_num=0x1D)
 15: 0x0505 [0x29] REQ_SET_WAIT(priority=0x0B, entity_id=Talking Doll (ID: 17801325/0x010FA06D), tag_num=0x02)
 16: 0x050C [0x29] REQ_SET_WAIT(priority=0x0B, entity_id=??? (ID: 17801324/0x010FA06C), tag_num=0x02)
 17: 0x0513 [0x4A] Dodmos (ID: 17801323/0x010FA06B) looks at Ronta-Onta (ID: 17801322/0x010FA06A)
 18: 0x051C [0x4A] LocalPlayer looks at Ronta-Onta (ID: 17801322/0x010FA06A)
 19: 0x0525 [0x1E] EventEntity looks at LocalPlayer and starts talking
 20: 0x052A [0x6F] WAIT_FRAME_DELAY: Yield until WaitTime reaches zero
 21: 0x052B [0x70] WAIT_ENTITY_RENDER_FLAG: Wait while EventEntity->Render.Flags3 bit 2 is set (cancel turn if not)
 22: 0x052C [0x27] REQ_SET(priority=0x0A, entity_id=Dodmos (ID: 17801323/0x010FA06B), tag_num=0x07)
 23: 0x0533 [0x45] LOAD_SCHEDULED_TASK: Load scheduler "fdi1" with entities [EventEntity, EventEntity], work=[200*, 0*]
 24: 0x0544 [0x29] REQ_SET_WAIT(priority=0x0B, entity_id=Ronta-Onta (ID: 17801322/0x010FA06A), tag_num=0x01)
 25: 0x054B [0x1D] PRINT_EVENT_MESSAGE(message_id=10511*)
    → "How'd it go!? Wowy-wow-wow! You defeated a prime avatar!"
 26: 0x054E [0x23] WAIT_FOR_DIALOG_INTERACTION
 27: 0x054F [0x45] LOAD_SCHEDULED_TASK: Load scheduler "fdo1" with entities [EventEntity, EventEntity], work=[200*, 0*]
 28: 0x0560 [0x1C] WAIT(60* ticks)
 29: 0x0563 [0x29] REQ_SET_WAIT(priority=0x0B, entity_id=Ronta-Onta (ID: 17801322/0x010FA06A), tag_num=0x02)
 30: 0x056A [0x2A] GET_REQ_LEVEL(level=10, entity_id=Dodmos (ID: 17801323/0x010FA06B))
 31: 0x0570 [0x29] REQ_SET_WAIT(priority=0x0B, entity_id=Ronta-Onta (ID: 17801322/0x010FA06A), tag_num=0x03)
 32: 0x0577 [0x29] REQ_SET_WAIT(priority=0x0B, entity_id=Ronta-Onta (ID: 17801322/0x010FA06A), tag_num=0x04)
 33: 0x057E [0x45] LOAD_SCHEDULED_TASK: Load scheduler "s041" with entities [EventEntity, EventEntity], work=[249*, 0*]
 34: 0x058F [0x45] LOAD_SCHEDULED_TASK: Load scheduler "fdi1" with entities [EventEntity, EventEntity], work=[200*, 0*]
 35: 0x05A0 [0x4E] SET_ENTITY_HIDE_FLAG: Show Talking Doll (ID: 17801325/0x010FA06D)
 36: 0x05A6 [0x4E] SET_ENTITY_HIDE_FLAG: Show ??? (ID: 17801324/0x010FA06C)
 37: 0x05AC [0x6C] FADE_ENTITY_COLOR(entity_id=??? (ID: 17801324/0x010FA06C), end_alpha=0*, fade_time=1*)
 38: 0x05B5 [0x1D] PRINT_EVENT_MESSAGE(message_id=10512*)
    → "...I see. The prime avatar said that to you? I wonder what it could mean."
 39: 0x05B8 [0x23] WAIT_FOR_DIALOG_INTERACTION
 40: 0x05B9 [0x80] LOAD_WAIT(entity=Talking Doll (ID: 17801325/0x010FA06D))
 41: 0x05BE [0x52] END_LOAD_SCHEDULER: End scheduler "s041" with entities [EventEntity, EventEntity], work=249*
 42: 0x05CD [0x02] IF !(Work_Zone[9] == 3*) GOTO 0x05E9
 43: 0x05D5 [0x45] LOAD_SCHEDULED_TASK: Load scheduler "s043" with entities [EventEntity, EventEntity], work=[249*, 0*]
 44: 0x05E6 [0x01] GOTO 0x066A
 45: 0x05E9 [0x02] IF !(Work_Zone[9] == 4*) GOTO 0x0605
 46: 0x05F1 [0x45] LOAD_SCHEDULED_TASK: Load scheduler "s043" with entities [EventEntity, EventEntity], work=[249*, 0*]
 47: 0x0602 [0x01] GOTO 0x066A
 48: 0x0605 [0x02] IF !(Work_Zone[9] == 5*) GOTO 0x0621
 49: 0x060D [0x45] LOAD_SCHEDULED_TASK: Load scheduler "s044" with entities [EventEntity, EventEntity], work=[249*, 0*]
 50: 0x061E [0x01] GOTO 0x066A
 51: 0x0621 [0x02] IF !(Work_Zone[9] == 6*) GOTO 0x063D
 52: 0x0629 [0x45] LOAD_SCHEDULED_TASK: Load scheduler "s044" with entities [EventEntity, EventEntity], work=[249*, 0*]
 53: 0x063A [0x01] GOTO 0x066A
 54: 0x063D [0x02] IF !(Work_Zone[9] == 8*) GOTO 0x0659
 55: 0x0645 [0x45] LOAD_SCHEDULED_TASK: Load scheduler "s043" with entities [EventEntity, EventEntity], work=[249*, 0*]
 56: 0x0656 [0x01] GOTO 0x066A
 57: 0x0659 [0x45] LOAD_SCHEDULED_TASK: Load scheduler "s042" with entities [EventEntity, EventEntity], work=[249*, 0*]

SUBROUTINE_066A:
 58: 0x066A [0x27] REQ_SET(priority=0x0A, entity_id=LocalPlayer, tag_num=0x1F)
 59: 0x0671 [0x29] REQ_SET_WAIT(priority=0x0B, entity_id=Ronta-Onta (ID: 17801322/0x010FA06A), tag_num=0x05)
 60: 0x0678 [0x2B] ??? (ID: 17801324/0x010FA06C) [10513*]:
    → "...There is no need to understand... ...You will forget what I have said..."
 61: 0x067F [0x23] WAIT_FOR_DIALOG_INTERACTION
 62: 0x0680 [0x2A] GET_REQ_LEVEL(level=10, entity_id=LocalPlayer)
 63: 0x0686 [0x6C] FADE_ENTITY_COLOR(entity_id=??? (ID: 17801324/0x010FA06C), end_alpha=128*, fade_time=100*)
 64: 0x068F [0x27] REQ_SET(priority=0x0A, entity_id=??? (ID: 17801324/0x010FA06C), tag_num=0x04)
 65: 0x0696 [0x29] REQ_SET_WAIT(priority=0x0B, entity_id=Ronta-Onta (ID: 17801322/0x010FA06A), tag_num=0x06)
 66: 0x069D [0x02] IF !(Work_Zone[9] == 3*) GOTO 0x06B7
 67: 0x06A5 [0x52] END_LOAD_SCHEDULER: End scheduler "s043" with entities [EventEntity, EventEntity], work=249*
 68: 0x06B4 [0x01] GOTO 0x072E
 69: 0x06B7 [0x02] IF !(Work_Zone[9] == 4*) GOTO 0x06D1
 70: 0x06BF [0x52] END_LOAD_SCHEDULER: End scheduler "s043" with entities [EventEntity, EventEntity], work=249*
 71: 0x06CE [0x01] GOTO 0x072E
 72: 0x06D1 [0x02] IF !(Work_Zone[9] == 5*) GOTO 0x06EB
 73: 0x06D9 [0x52] END_LOAD_SCHEDULER: End scheduler "s044" with entities [EventEntity, EventEntity], work=249*
 74: 0x06E8 [0x01] GOTO 0x072E
 75: 0x06EB [0x02] IF !(Work_Zone[9] == 6*) GOTO 0x0705
 76: 0x06F3 [0x52] END_LOAD_SCHEDULER: End scheduler "s044" with entities [EventEntity, EventEntity], work=249*
 77: 0x0702 [0x01] GOTO 0x072E
 78: 0x0705 [0x02] IF !(Work_Zone[9] == 8*) GOTO 0x071F
 79: 0x070D [0x52] END_LOAD_SCHEDULER: End scheduler "s043" with entities [EventEntity, EventEntity], work=249*
 80: 0x071C [0x01] GOTO 0x072E
 81: 0x071F [0x52] END_LOAD_SCHEDULER: End scheduler "s042" with entities [EventEntity, EventEntity], work=249*

SUBROUTINE_072E:
 82: 0x072E [0x45] LOAD_SCHEDULED_TASK: Load scheduler "blro" with entities [LocalPlayer, LocalPlayer], work=[212*, 0*]
 83: 0x073F [0x45] LOAD_SCHEDULED_TASK: Load scheduler "blon" with entities [LocalPlayer, LocalPlayer], work=[201*, 0*]
 84: 0x0750 [0x45] LOAD_SCHEDULED_TASK: Load scheduler "ovl1" with entities [LocalPlayer, LocalPlayer], work=[200*, 0*]
 85: 0x0761 [0x45] LOAD_SCHEDULED_TASK: Load scheduler "s045" with entities [EventEntity, EventEntity], work=[249*, 0*]
 86: 0x0772 [0x1C] WAIT(50* ticks)
 87: 0x0775 [0x4A] LocalPlayer looks at ??? (ID: 17801324/0x010FA06C)
 88: 0x077E [0x1D] PRINT_EVENT_MESSAGE(message_id=10514*)
    → "Y-you, you're...!"
 89: 0x0781 [0x23] WAIT_FOR_DIALOG_INTERACTION
 90: 0x0782 [0x6F] WAIT_FRAME_DELAY: Yield until WaitTime reaches zero
 91: 0x0783 [0x76] CHECK_ENTITY_RENDER_FLAGS: Wait until LocalPlayer Render.Flags0 and Render.Flags3 conditions are met
 92: 0x0788 [0x1C] WAIT(30* ticks)
 93: 0x078B [0x45] LOAD_SCHEDULED_TASK: Load scheduler "who1" with entities [LocalPlayer, LocalPlayer], work=[201*, 0*]
 94: 0x079C [0x1C] WAIT(60* ticks)
 95: 0x079F [0x52] END_LOAD_SCHEDULER: End scheduler "s038" with entities [EventEntity, EventEntity], work=249*
 96: 0x07AE [0x2A] GET_REQ_LEVEL(level=10, entity_id=??? (ID: 17801324/0x010FA06C))
 97: 0x07B4 [0x34] LOAD_UNLOAD_ZONE(zone_id=211*)
 98: 0x07B7 [0x77] SET_EVENT_TIME_WEATHER(hour=12*, weather=7*)
 99: 0x07BC [0x03] ExtData[1]->WorkLocal[1] = Work_Zone[4]
100: 0x07C1 [0x03] Work_Zone[4] = 1204*
101: 0x07C6 [0x1A] CALL_SUBROUTINE(address=0x10FA)
102: 0x07C9 [0x03] Work_Zone[4] = ExtData[1]->WorkLocal[1]
103: 0x07CE [0x78] ENABLE_GAME_TIMER_RESET_WEATHER()
104: 0x07CF [0x34] LOAD_UNLOAD_ZONE(zone_id=252*)
105: 0x07D2 [0x78] ENABLE_GAME_TIMER_RESET_WEATHER()
106: 0x07D3 [0x6C] FADE_ENTITY_COLOR(entity_id=LocalPlayer, end_alpha=128*, fade_time=1*)
107: 0x07DC [0x1C] WAIT(200* ticks)
108: 0x07DF [0x4E] SET_ENTITY_HIDE_FLAG: Show Ronta-Onta (ID: 17801322/0x010FA06A)
109: 0x07E5 [0x4E] SET_ENTITY_HIDE_FLAG: Show Dodmos (ID: 17801323/0x010FA06B)
110: 0x07EB [0x80] LOAD_WAIT(entity=Ronta-Onta (ID: 17801322/0x010FA06A))
111: 0x07F0 [0x80] LOAD_WAIT(entity=Dodmos (ID: 17801323/0x010FA06B))
112: 0x07F5 [0x5C] MUSIC_CONTROL: Set Idle (Day) music to song 209*
113: 0x07F9 [0x5C] MUSIC_CONTROL: Set Idle (Night) music to song 209*
114: 0x07FD [0x5D] SET_MUSIC_VOLUME(volume=127*, fade_time=1*)
115: 0x0802 [0x45] LOAD_SCHEDULED_TASK: Load scheduler "s040" with entities [EventEntity, EventEntity], work=[249*, 0*]
116: 0x0813 [0x45] LOAD_SCHEDULED_TASK: Load scheduler "fdi2" with entities [EventEntity, EventEntity], work=[200*, 0*]
117: 0x0824 [0x45] LOAD_SCHEDULED_TASK: Load scheduler "whi1" with entities [LocalPlayer, LocalPlayer], work=[201*, 0*]
118: 0x0835 [0x7B] Ronta-Onta (ID: 17801322/0x010FA06A) stops talking
119: 0x083A [0x1C] WAIT(100* ticks)
120: 0x083D [0x1D] PRINT_EVENT_MESSAGE(message_id=10536*)
    → "Uh? Huh? I went all spacey-wacey for a moment there..."
121: 0x0840 [0x23] WAIT_FOR_DIALOG_INTERACTION
122: 0x0841 [0x52] END_LOAD_SCHEDULER: End scheduler "s040" with entities [EventEntity, EventEntity], work=249*
123: 0x0850 [0x45] LOAD_SCHEDULED_TASK: Load scheduler "s041" with entities [EventEntity, EventEntity], work=[249*, 0*]
124: 0x0861 [0x29] REQ_SET_WAIT(priority=0x0B, entity_id=Ronta-Onta (ID: 17801322/0x010FA06A), tag_num=0x03)
125: 0x0868 [0x1D] PRINT_EVENT_MESSAGE(message_id=10537*)
    → "Um, who were you again? Was I speaking with you? What were we talking about?"
126: 0x086B [0x23] WAIT_FOR_DIALOG_INTERACTION
127: 0x086C [0x29] REQ_SET_WAIT(priority=0x0B, entity_id=Ronta-Onta (ID: 17801322/0x010FA06A), tag_num=0x04)
128: 0x0873 [0x29] REQ_SET_WAIT(priority=0x0B, entity_id=Ronta-Onta (ID: 17801322/0x010FA06A), tag_num=0x05)
129: 0x087A [0x1D] PRINT_EVENT_MESSAGE(message_id=10538*)
    → "Did I tell you I'm a researcher from the Rhinostery in Windurst already?"
130: 0x087D [0x23] WAIT_FOR_DIALOG_INTERACTION
131: 0x087E [0x29] REQ_SET_WAIT(priority=0x0B, entity_id=Ronta-Onta (ID: 17801322/0x010FA06A), tag_num=0x06)
132: 0x0885 [0x45] LOAD_SCHEDULED_TASK: Load scheduler "fdo1" with entities [EventEntity, EventEntity], work=[200*, 0*]
133: 0x0896 [0x1C] WAIT(60* ticks)
134: 0x0899 [0x52] END_LOAD_SCHEDULER: End scheduler "s041" with entities [EventEntity, EventEntity], work=249*
135: 0x08A8 [0x46] CAMERA_CONTROL: Restore default settings
136: 0x08AA [0x1C] WAIT(200* ticks)
137: 0x08AD [0x45] LOAD_SCHEDULED_TASK: Load scheduler "fdi1" with entities [EventEntity, EventEntity], work=[200*, 0*]
138: 0x08BE [0x45] LOAD_SCHEDULED_TASK: Load scheduler "qstc" with entities [LocalPlayer, LocalPlayer], work=[201*, 0*]
139: 0x08CF [0x01] GOTO 0x10F6
140: 0x08D2 [0x02] IF !(Work_Zone[4] == 3*) GOTO 0x0CDB
141: 0x08DA [0x03] Work_Zone[7] = 17627*
142: 0x08DF [0x03] Work_Zone[8] = 13243*
143: 0x08E4 [0x03] Work_Zone[3] = 13562*
144: 0x08E9 [0x45] LOAD_SCHEDULED_TASK: Load scheduler "fdo1" with entities [EventEntity, EventEntity], work=[200*, 0*]
145: 0x08FA [0x1C] WAIT(60* ticks)
146: 0x08FD [0x38] SET_CLIENT_EVENT_MODE(mode=19*)
147: 0x0900 [0x29] REQ_SET_WAIT(priority=0x0B, entity_id=LocalPlayer, tag_num=0x20)
148: 0x0907 [0x29] REQ_SET_WAIT(priority=0x0B, entity_id=LocalPlayer, tag_num=0x1D)
149: 0x090E [0x29] REQ_SET_WAIT(priority=0x0B, entity_id=Talking Doll (ID: 17801325/0x010FA06D), tag_num=0x02)
150: 0x0915 [0x29] REQ_SET_WAIT(priority=0x0B, entity_id=??? (ID: 17801324/0x010FA06C), tag_num=0x02)
151: 0x091C [0x4A] Dodmos (ID: 17801323/0x010FA06B) looks at Ronta-Onta (ID: 17801322/0x010FA06A)
152: 0x0925 [0x4A] LocalPlayer looks at Ronta-Onta (ID: 17801322/0x010FA06A)
153: 0x092E [0x1E] EventEntity looks at LocalPlayer and starts talking
154: 0x0933 [0x6F] WAIT_FRAME_DELAY: Yield until WaitTime reaches zero
155: 0x0934 [0x70] WAIT_ENTITY_RENDER_FLAG: Wait while EventEntity->Render.Flags3 bit 2 is set (cancel turn if not)
156: 0x0935 [0x27] REQ_SET(priority=0x0A, entity_id=Dodmos (ID: 17801323/0x010FA06B), tag_num=0x06)
157: 0x093C [0x45] LOAD_SCHEDULED_TASK: Load scheduler "fdi1" with entities [EventEntity, EventEntity], work=[200*, 0*]
158: 0x094D [0x29] REQ_SET_WAIT(priority=0x0B, entity_id=Ronta-Onta (ID: 17801322/0x010FA06A), tag_num=0x01)
159: 0x0954 [0x1D] PRINT_EVENT_MESSAGE(message_id=10511*)
    → "How'd it go!? Wowy-wow-wow! You defeated a prime avatar!"
160: 0x0957 [0x23] WAIT_FOR_DIALOG_INTERACTION
161: 0x0958 [0x45] LOAD_SCHEDULED_TASK: Load scheduler "fdo1" with entities [EventEntity, EventEntity], work=[200*, 0*]
162: 0x0969 [0x1C] WAIT(60* ticks)
163: 0x096C [0x29] REQ_SET_WAIT(priority=0x0B, entity_id=Ronta-Onta (ID: 17801322/0x010FA06A), tag_num=0x02)
164: 0x0973 [0x2A] GET_REQ_LEVEL(level=10, entity_id=Dodmos (ID: 17801323/0x010FA06B))
165: 0x0979 [0x29] REQ_SET_WAIT(priority=0x0B, entity_id=Ronta-Onta (ID: 17801322/0x010FA06A), tag_num=0x03)
166: 0x0980 [0x29] REQ_SET_WAIT(priority=0x0B, entity_id=Ronta-Onta (ID: 17801322/0x010FA06A), tag_num=0x04)
167: 0x0987 [0x45] LOAD_SCHEDULED_TASK: Load scheduler "s034" with entities [EventEntity, EventEntity], work=[249*, 0*]
168: 0x0998 [0x45] LOAD_SCHEDULED_TASK: Load scheduler "fdi1" with entities [EventEntity, EventEntity], work=[200*, 0*]
169: 0x09A9 [0x4E] SET_ENTITY_HIDE_FLAG: Show Talking Doll (ID: 17801325/0x010FA06D)
170: 0x09AF [0x4E] SET_ENTITY_HIDE_FLAG: Show ??? (ID: 17801324/0x010FA06C)
171: 0x09B5 [0x6C] FADE_ENTITY_COLOR(entity_id=??? (ID: 17801324/0x010FA06C), end_alpha=0*, fade_time=1*)
172: 0x09BE [0x1D] PRINT_EVENT_MESSAGE(message_id=10512*)
    → "...I see. The prime avatar said that to you? I wonder what it could mean."
173: 0x09C1 [0x23] WAIT_FOR_DIALOG_INTERACTION
174: 0x09C2 [0x80] LOAD_WAIT(entity=Talking Doll (ID: 17801325/0x010FA06D))
175: 0x09C7 [0x52] END_LOAD_SCHEDULER: End scheduler "s034" with entities [EventEntity, EventEntity], work=249*
176: 0x09D6 [0x02] IF !(Work_Zone[9] == 3*) GOTO 0x09F2
177: 0x09DE [0x45] LOAD_SCHEDULED_TASK: Load scheduler "s036" with entities [EventEntity, EventEntity], work=[249*, 0*]
178: 0x09EF [0x01] GOTO 0x0A73
179: 0x09F2 [0x02] IF !(Work_Zone[9] == 4*) GOTO 0x0A0E
180: 0x09FA [0x45] LOAD_SCHEDULED_TASK: Load scheduler "s036" with entities [EventEntity, EventEntity], work=[249*, 0*]
181: 0x0A0B [0x01] GOTO 0x0A73
182: 0x0A0E [0x02] IF !(Work_Zone[9] == 5*) GOTO 0x0A2A
183: 0x0A16 [0x45] LOAD_SCHEDULED_TASK: Load scheduler "s037" with entities [EventEntity, EventEntity], work=[249*, 0*]
184: 0x0A27 [0x01] GOTO 0x0A73
185: 0x0A2A [0x02] IF !(Work_Zone[9] == 6*) GOTO 0x0A46
186: 0x0A32 [0x45] LOAD_SCHEDULED_TASK: Load scheduler "s037" with entities [EventEntity, EventEntity], work=[249*, 0*]
187: 0x0A43 [0x01] GOTO 0x0A73
188: 0x0A46 [0x02] IF !(Work_Zone[9] == 8*) GOTO 0x0A62
189: 0x0A4E [0x45] LOAD_SCHEDULED_TASK: Load scheduler "s036" with entities [EventEntity, EventEntity], work=[249*, 0*]
190: 0x0A5F [0x01] GOTO 0x0A73
191: 0x0A62 [0x45] LOAD_SCHEDULED_TASK: Load scheduler "s035" with entities [EventEntity, EventEntity], work=[249*, 0*]

SUBROUTINE_0A73:
192: 0x0A73 [0x27] REQ_SET(priority=0x0A, entity_id=LocalPlayer, tag_num=0x1F)
193: 0x0A7A [0x29] REQ_SET_WAIT(priority=0x0B, entity_id=Ronta-Onta (ID: 17801322/0x010FA06A), tag_num=0x05)
194: 0x0A81 [0x2B] ??? (ID: 17801324/0x010FA06C) [10513*]:
    → "...There is no need to understand... ...You will forget what I have said..."
195: 0x0A88 [0x23] WAIT_FOR_DIALOG_INTERACTION
196: 0x0A89 [0x2A] GET_REQ_LEVEL(level=10, entity_id=LocalPlayer)
197: 0x0A8F [0x6C] FADE_ENTITY_COLOR(entity_id=??? (ID: 17801324/0x010FA06C), end_alpha=128*, fade_time=100*)
198: 0x0A98 [0x27] REQ_SET(priority=0x0A, entity_id=??? (ID: 17801324/0x010FA06C), tag_num=0x04)
199: 0x0A9F [0x29] REQ_SET_WAIT(priority=0x0B, entity_id=Ronta-Onta (ID: 17801322/0x010FA06A), tag_num=0x06)
200: 0x0AA6 [0x02] IF !(Work_Zone[9] == 3*) GOTO 0x0AC0
201: 0x0AAE [0x52] END_LOAD_SCHEDULER: End scheduler "s036" with entities [EventEntity, EventEntity], work=249*
202: 0x0ABD [0x01] GOTO 0x0B37
203: 0x0AC0 [0x02] IF !(Work_Zone[9] == 4*) GOTO 0x0ADA
204: 0x0AC8 [0x52] END_LOAD_SCHEDULER: End scheduler "s036" with entities [EventEntity, EventEntity], work=249*
205: 0x0AD7 [0x01] GOTO 0x0B37
206: 0x0ADA [0x02] IF !(Work_Zone[9] == 5*) GOTO 0x0AF4
207: 0x0AE2 [0x52] END_LOAD_SCHEDULER: End scheduler "s037" with entities [EventEntity, EventEntity], work=249*
208: 0x0AF1 [0x01] GOTO 0x0B37
209: 0x0AF4 [0x02] IF !(Work_Zone[9] == 6*) GOTO 0x0B0E
210: 0x0AFC [0x52] END_LOAD_SCHEDULER: End scheduler "s037" with entities [EventEntity, EventEntity], work=249*
211: 0x0B0B [0x01] GOTO 0x0B37
212: 0x0B0E [0x02] IF !(Work_Zone[9] == 8*) GOTO 0x0B28
213: 0x0B16 [0x52] END_LOAD_SCHEDULER: End scheduler "s036" with entities [EventEntity, EventEntity], work=249*
214: 0x0B25 [0x01] GOTO 0x0B37
215: 0x0B28 [0x52] END_LOAD_SCHEDULER: End scheduler "s035" with entities [EventEntity, EventEntity], work=249*

SUBROUTINE_0B37:
216: 0x0B37 [0x45] LOAD_SCHEDULED_TASK: Load scheduler "blro" with entities [LocalPlayer, LocalPlayer], work=[212*, 0*]
217: 0x0B48 [0x45] LOAD_SCHEDULED_TASK: Load scheduler "blon" with entities [LocalPlayer, LocalPlayer], work=[201*, 0*]
218: 0x0B59 [0x45] LOAD_SCHEDULED_TASK: Load scheduler "ovl1" with entities [LocalPlayer, LocalPlayer], work=[200*, 0*]
219: 0x0B6A [0x45] LOAD_SCHEDULED_TASK: Load scheduler "s038" with entities [EventEntity, EventEntity], work=[249*, 0*]
220: 0x0B7B [0x1C] WAIT(50* ticks)
221: 0x0B7E [0x4A] LocalPlayer looks at ??? (ID: 17801324/0x010FA06C)
222: 0x0B87 [0x1D] PRINT_EVENT_MESSAGE(message_id=10514*)
    → "Y-you, you're...!"
223: 0x0B8A [0x23] WAIT_FOR_DIALOG_INTERACTION
224: 0x0B8B [0x6F] WAIT_FRAME_DELAY: Yield until WaitTime reaches zero
225: 0x0B8C [0x76] CHECK_ENTITY_RENDER_FLAGS: Wait until LocalPlayer Render.Flags0 and Render.Flags3 conditions are met
226: 0x0B91 [0x1C] WAIT(30* ticks)
227: 0x0B94 [0x45] LOAD_SCHEDULED_TASK: Load scheduler "who1" with entities [LocalPlayer, LocalPlayer], work=[201*, 0*]
228: 0x0BA5 [0x1C] WAIT(60* ticks)
229: 0x0BA8 [0x52] END_LOAD_SCHEDULER: End scheduler "s038" with entities [EventEntity, EventEntity], work=249*
230: 0x0BB7 [0x2A] GET_REQ_LEVEL(level=10, entity_id=??? (ID: 17801324/0x010FA06C))
231: 0x0BBD [0x34] LOAD_UNLOAD_ZONE(zone_id=201*)
232: 0x0BC0 [0x77] SET_EVENT_TIME_WEATHER(hour=12*, weather=11*)
233: 0x0BC5 [0x03] ExtData[1]->WorkLocal[2] = Work_Zone[4]
234: 0x0BCA [0x03] Work_Zone[4] = 1202*
235: 0x0BCF [0x1A] CALL_SUBROUTINE(address=0x10FA)
236: 0x0BD2 [0x03] Work_Zone[4] = ExtData[1]->WorkLocal[2]
237: 0x0BD7 [0x78] ENABLE_GAME_TIMER_RESET_WEATHER()
238: 0x0BD8 [0x34] LOAD_UNLOAD_ZONE(zone_id=247*)
239: 0x0BDB [0x78] ENABLE_GAME_TIMER_RESET_WEATHER()
240: 0x0BDC [0x6C] FADE_ENTITY_COLOR(entity_id=LocalPlayer, end_alpha=128*, fade_time=1*)
241: 0x0BE5 [0x1C] WAIT(200* ticks)
242: 0x0BE8 [0x4E] SET_ENTITY_HIDE_FLAG: Show Ronta-Onta (ID: 17801322/0x010FA06A)
243: 0x0BEE [0x4E] SET_ENTITY_HIDE_FLAG: Show Dodmos (ID: 17801323/0x010FA06B)
244: 0x0BF4 [0x80] LOAD_WAIT(entity=Ronta-Onta (ID: 17801322/0x010FA06A))
245: 0x0BF9 [0x80] LOAD_WAIT(entity=Dodmos (ID: 17801323/0x010FA06B))
246: 0x0BFE [0x5C] MUSIC_CONTROL: Set Idle (Day) music to song 208*
247: 0x0C02 [0x5C] MUSIC_CONTROL: Set Idle (Night) music to song 208*
248: 0x0C06 [0x5D] SET_MUSIC_VOLUME(volume=127*, fade_time=1*)
249: 0x0C0B [0x45] LOAD_SCHEDULED_TASK: Load scheduler "s034" with entities [EventEntity, EventEntity], work=[249*, 0*]
