# 17801265 - 3

## Common Data

| Field            | Value            |
|------------------|------------------|
| Zone             | Kazham (ID: 250) |
| Block Size       | 128 bytes        |
| Total Events     | 6                |
| References Count | 8                |

## List of Events

| Event ID                 | Entrypoint   |   Size |   Instructions |
|--------------------------|--------------|--------|----------------|
| [65535](#event-65535)    | 0x0000       |      1 |              1 |
| [144](#event-144)        | 0x0001       |      7 |              2 |
| [65535.1](#event-655351) | 0x0008       |     17 |              4 |
| [65535.2](#event-655352) | 0x0019       |     12 |              4 |
| [65535.3](#event-655353) | 0x0025       |      9 |              3 |
| [65535.4](#event-655354) | 0x002E       |      9 |              3 |

## DAT References (imed_data)

|   Index | Hex Value   |   Dec Value |
|---------|-------------|-------------|
|       0 | 0xFFFFAEC9  |  4294946505 |
|       1 | 0x14AA1     |       84641 |
|       2 | 0x0222      |         546 |
|       3 | 0x0C64      |        3172 |
|       4 | 0x003C      |          60 |
|       5 | 0x281A      |       10266 |
|       6 | 0x281B      |       10267 |
|       7 | 0x281E      |       10270 |

## Events

### Event 65535

#### Metadata

| Field        | Value   |
|--------------|---------|
| Entrypoint   | 0x0000  |
| Data Size    | 1 bytes |
| Instructions | 1       |

```
      00 01 02 03 04 05 06 07  08 09 0A 0B 0C 0D 0E 0F
      -- -- -- -- -- -- -- --  -- -- -- -- -- -- -- --
0000: 00                                                .               
```

#### Opcodes

```
  0: 0x0000 [0x00] END_REQSTACK()
```

### Event 144

#### Metadata

| Field        | Value   |
|--------------|---------|
| Entrypoint   | 0x0001  |
| Data Size    | 7 bytes |
| Instructions | 2       |

```
      00 01 02 03 04 05 06 07  08 09 0A 0B 0C 0D 0E 0F
      -- -- -- -- -- -- -- --  -- -- -- -- -- -- -- --
0000:    92 01 F8 FF FF 7F 00                            .......        
```

#### Opcodes

```
  0: 0x0001 [0x92] EventEntity->Render.Flags3 ^= 0x01
  1: 0x0007 [0x00] END_REQSTACK()
```

### Event 65535.1

#### Metadata

| Field        | Value    |
|--------------|----------|
| Entrypoint   | 0x0008   |
| Data Size    | 17 bytes |
| Instructions | 4        |

```
      00 01 02 03 04 05 06 07  08 09 0A 0B 0C 0D 0E 0F
      -- -- -- -- -- -- -- --  -- -- -- -- -- -- -- --
0000:                          22 00 37 00 80 01 80 02          ".7.....
0010: 80 03 80 1E 2E A0 0F 01  00                       .........       
```

#### Opcodes

```
  0: 0x0008 [0x22] ENTITY_HIDE_FLAG(enabled=0x00)
  1: 0x000A [0x37] UPDATE_EVENT_POSITION_AND_DIR: x=-20.791*, z=84.641*, y=0.546*, direction=278.8°*
  2: 0x0013 [0x1E] EventEntity looks at Magriffon (ID: 17801262/0x010FA02E) and starts talking
  3: 0x0018 [0x00] END_REQSTACK()
```

### Event 65535.2

#### Metadata

| Field        | Value    |
|--------------|----------|
| Entrypoint   | 0x0019   |
| Data Size    | 12 bytes |
| Instructions | 4        |

```
      00 01 02 03 04 05 06 07  08 09 0A 0B 0C 0D 0E 0F
      -- -- -- -- -- -- -- --  -- -- -- -- -- -- -- --
0010:                             1C 04 80 2B 2E A0 0F           ...+...
0020: 01 05 80 23 00                                    ...#.           
```

#### Opcodes

```
  0: 0x0019 [0x1C] WAIT(60* ticks)
  1: 0x001C [0x2B] Magriffon (ID: 17801262/0x010FA02E) [10266*]:
    → "Yes... A few days ago I was walking through the Yuhtunga Jungle."
  2: 0x0023 [0x23] WAIT_FOR_DIALOG_INTERACTION
  3: 0x0024 [0x00] END_REQSTACK()
```

### Event 65535.3

#### Metadata

| Field        | Value   |
|--------------|---------|
| Entrypoint   | 0x0025  |
| Data Size    | 9 bytes |
| Instructions | 3       |

```
      00 01 02 03 04 05 06 07  08 09 0A 0B 0C 0D 0E 0F
      -- -- -- -- -- -- -- --  -- -- -- -- -- -- -- --
0020:                2B 2E A0  0F 01 06 80 23 00             +......#.  
```

#### Opcodes

```
  0: 0x0025 [0x2B] Magriffon (ID: 17801262/0x010FA02E) [10267*]:
    → "Out of nowhere, I heard a voice. It sounded as if it was beckoning me to stay away. I looked around, but I saw no one."
  1: 0x002C [0x23] WAIT_FOR_DIALOG_INTERACTION
  2: 0x002D [0x00] END_REQSTACK()
```

### Event 65535.4

#### Metadata

| Field        | Value   |
|--------------|---------|
| Entrypoint   | 0x002E  |
| Data Size    | 9 bytes |
| Instructions | 3       |

```
      00 01 02 03 04 05 06 07  08 09 0A 0B 0C 0D 0E 0F
      -- -- -- -- -- -- -- --  -- -- -- -- -- -- -- --
0020:                                            2B 2E                +.
0030: A0 0F 01 07 80 23 00                              .....#.         
```

#### Opcodes

```
  0: 0x002E [0x2B] Magriffon (ID: 17801262/0x010FA02E) [10270*]:
    → "I shed tears of pity at their sad, sad story. I felt as if I was obligated to pay for the atrocities that my fellow adventurers had committed. So, I proceeded in giving them all my belongings as a sign of peace."
  1: 0x0035 [0x23] WAIT_FOR_DIALOG_INTERACTION
  2: 0x0036 [0x00] END_REQSTACK()
```
