# 17801264 - 2

## Common Data

| Field            | Value            |
|------------------|------------------|
| Zone             | Kazham (ID: 250) |
| Block Size       | 208 bytes        |
| Total Events     | 6                |
| References Count | 10               |

## List of Events

| Event ID                 | Entrypoint   |   Size |   Instructions |
|--------------------------|--------------|--------|----------------|
| [65535](#event-65535)    | 0x0000       |      1 |              1 |
| [65535.1](#event-655351) | 0x0001       |     16 |              2 |
| [65535.2](#event-655352) | 0x0011       |     14 |              2 |
| [65535.3](#event-655353) | 0x001F       |     63 |              9 |
| [144](#event-144)        | 0x005E       |      9 |              3 |
| [65535.4](#event-655354) | 0x0067       |     25 |              5 |

## DAT References (imed_data)

|   Index | Hex Value   |   Dec Value |
|---------|-------------|-------------|
|       0 | 0x00FD      |         253 |
|       1 | 0x0032      |          50 |
|       2 | 0x0019      |          25 |
|       3 | 0xFFFFA867  |  4294944871 |
|       4 | 0x15789     |       87945 |
|       5 | 0x04D3      |        1235 |
|       6 | 0x0DE3      |        3555 |
|       7 | 0xFFFFA8FA  |  4294945018 |
|       8 | 0x1708F     |       94351 |
|       9 | 0x0FC6      |        4038 |

## Events

### Event 65535

#### Metadata

| Field        | Value   |
|--------------|---------|
| Entrypoint   | 0x0000  |
| Data Size    | 1 bytes |
| Instructions | 1       |

```
      00 01 02 03 04 05 06 07  08 09 0A 0B 0C 0D 0E 0F
      -- -- -- -- -- -- -- --  -- -- -- -- -- -- -- --
0000: 00                                                .               
```

#### Opcodes

```
  0: 0x0000 [0x00] END_REQSTACK()
```

### Event 65535.1

#### Metadata

| Field        | Value    |
|--------------|----------|
| Entrypoint   | 0x0001   |
| Data Size    | 16 bytes |
| Instructions | 2        |

```
      00 01 02 03 04 05 06 07  08 09 0A 0B 0C 0D 0E 0F
      -- -- -- -- -- -- -- --  -- -- -- -- -- -- -- --
0000:    5B 00 80 F8 FF FF 7F  F8 FF FF 7F 62 6F 77 30   [..........bow0
0010: 00                                                .               
```

#### Opcodes

```
  0: 0x0001 [0x5B] LOAD_EXT_SCHEDULER: Load scheduler "bow0" with entities [EventEntity, EventEntity], work=253*
  1: 0x0010 [0x00] END_REQSTACK()
```

### Event 65535.2

#### Metadata

| Field        | Value    |
|--------------|----------|
| Entrypoint   | 0x0011   |
| Data Size    | 14 bytes |
| Instructions | 2        |

```
      00 01 02 03 04 05 06 07  08 09 0A 0B 0C 0D 0E 0F
      -- -- -- -- -- -- -- --  -- -- -- -- -- -- -- --
0010:    53 F8 FF FF 7F F8 FF  FF 7F 62 6F 77 30 00      S........bow0. 
```

#### Opcodes

```
  0: 0x0011 [0x53] WAIT_SCHEDULER_TASK: Wait for scheduler "bow0" with entities [EventEntity, EventEntity]
  1: 0x001E [0x00] END_REQSTACK()
```

### Event 65535.3

#### Metadata

| Field        | Value    |
|--------------|----------|
| Entrypoint   | 0x001F   |
| Data Size    | 63 bytes |
| Instructions | 9        |

```
      00 01 02 03 04 05 06 07  08 09 0A 0B 0C 0D 0E 0F
      -- -- -- -- -- -- -- --  -- -- -- -- -- -- -- --
0010:                                               5B                 [
0020: 00 80 F8 FF FF 7F F8 FF  FF 7F 62 6F 77 30 1C 01  ..........bow0..
0030: 80 29 08 2F A0 0F 01 01  1C 02 80 29 08 33 A0 0F  .)./.......).3..
0040: 01 01 53 F8 FF FF 7F F8  FF FF 7F 62 6F 77 30 29  ..S........bow0)
0050: 08 2F A0 0F 01 02 29 08  33 A0 0F 01 02 00        ./....).3.....  
```

#### Opcodes

```
  0: 0x001F [0x5B] LOAD_EXT_SCHEDULER: Load scheduler "bow0" with entities [EventEntity, EventEntity], work=253*
  1: 0x002E [0x1C] WAIT(50* ticks)
  2: 0x0031 [0x29] REQ_SET_WAIT(priority=0x08, entity_id=1 (ID: 17801263/0x010FA02F), tag_num=0x01)
  3: 0x0038 [0x1C] WAIT(25* ticks)
  4: 0x003B [0x29] REQ_SET_WAIT(priority=0x08, entity_id=5 (ID: 17801267/0x010FA033), tag_num=0x01)
  5: 0x0042 [0x53] WAIT_SCHEDULER_TASK: Wait for scheduler "bow0" with entities [EventEntity, EventEntity]
  6: 0x004F [0x29] REQ_SET_WAIT(priority=0x08, entity_id=1 (ID: 17801263/0x010FA02F), tag_num=0x02)
  7: 0x0056 [0x29] REQ_SET_WAIT(priority=0x08, entity_id=5 (ID: 17801267/0x010FA033), tag_num=0x02)
  8: 0x005D [0x00] END_REQSTACK()
```

### Event 144

#### Metadata

| Field        | Value   |
|--------------|---------|
| Entrypoint   | 0x005E  |
| Data Size    | 9 bytes |
| Instructions | 3       |

```
      00 01 02 03 04 05 06 07  08 09 0A 0B 0C 0D 0E 0F
      -- -- -- -- -- -- -- --  -- -- -- -- -- -- -- --
0050:                                            92 01                ..
0060: F8 FF FF 7F 22 00 00                              ...."..         
```

#### Opcodes

```
  0: 0x005E [0x92] EventEntity->Render.Flags3 ^= 0x01
  1: 0x0064 [0x22] ENTITY_HIDE_FLAG(enabled=0x00)
  2: 0x0066 [0x00] END_REQSTACK()
```

### Event 65535.4

#### Metadata

| Field        | Value    |
|--------------|----------|
| Entrypoint   | 0x0067   |
| Data Size    | 25 bytes |
| Instructions | 5        |

```
      00 01 02 03 04 05 06 07  08 09 0A 0B 0C 0D 0E 0F
      -- -- -- -- -- -- -- --  -- -- -- -- -- -- -- --
0060:                      37  03 80 04 80 05 80 06 80         7........
0070: 1F 00 07 80 08 80 09 80  1F 01 1E 2E A0 0F 01 00  ................
```

#### Opcodes

```
  0: 0x0067 [0x37] UPDATE_EVENT_POSITION_AND_DIR: x=-22.425*, z=87.945*, y=1.235*, direction=312.4°*
  1: 0x0070 [0x1F] MOVE_ENTITY: EventEntity moves to X=-22.278*, Z=94.351*, Y=4.038*
  2: 0x0078 [0x1F] MOVE_ENTITY: Update entity position (mode=1)
  3: 0x007A [0x1E] EventEntity looks at Magriffon (ID: 17801262/0x010FA02E) and starts talking
  4: 0x007F [0x00] END_REQSTACK()
```
