# 17801224 - Jakoh Wahcondalo

## Common Data

| Field            | Value            |
|------------------|------------------|
| Zone             | Kazham (ID: 250) |
| Block Size       | 4892 bytes       |
| Total Events     | 79               |
| References Count | 110              |

## List of Events

| Event ID                   | Entrypoint   |   Size |   Instructions |
|----------------------------|--------------|--------|----------------|
| [65535](#event-65535)      | 0x0000       |      1 |              1 |
| [65535.1](#event-655351)   | 0x0001       |     16 |              2 |
| [65535.2](#event-655352)   | 0x0011       |     14 |              2 |
| [65535.3](#event-655353)   | 0x001F       |     16 |              2 |
| [65535.4](#event-655354)   | 0x002F       |     14 |              2 |
| [65535.5](#event-655355)   | 0x003D       |     16 |              2 |
| [65535.6](#event-655356)   | 0x004D       |     14 |              2 |
| [65535.7](#event-655357)   | 0x005B       |     16 |              2 |
| [65535.8](#event-655358)   | 0x006B       |     14 |              2 |
| [65535.9](#event-655359)   | 0x0079       |     16 |              2 |
| [65535.10](#event-6553510) | 0x0089       |     14 |              2 |
| [65535.11](#event-6553511) | 0x0097       |     16 |              2 |
| [65535.12](#event-6553512) | 0x00A7       |     14 |              2 |
| [65535.13](#event-6553513) | 0x00B5       |     16 |              2 |
| [65535.14](#event-6553514) | 0x00C5       |     14 |              2 |
| [65535.15](#event-6553515) | 0x00D3       |     16 |              2 |
| [65535.16](#event-6553516) | 0x00E3       |     19 |              3 |
| [65535.17](#event-6553517) | 0x00F6       |     16 |              2 |
| [65535.18](#event-6553518) | 0x0106       |     19 |              3 |
| [65535.19](#event-6553519) | 0x0119       |     16 |              2 |
| [65535.20](#event-6553520) | 0x0129       |     14 |              2 |
| [65535.21](#event-6553521) | 0x0137       |     49 |              5 |
| [65535.22](#event-6553522) | 0x0168       |     19 |              3 |
| [65535.23](#event-6553523) | 0x017B       |      9 |              3 |
| [113](#event-113)          | 0x0184       |     43 |             12 |
| [164](#event-164)          | 0x01AF       |     33 |             12 |
| [114](#event-114)          | 0x01D0       |    616 |             80 |
| [65535.24](#event-6553524) | 0x0438       |     23 |              7 |
| [115](#event-115)          | 0x044F       |     43 |             12 |
| [44](#event-44)            | 0x047A       |      1 |              1 |
| [65535.25](#event-6553525) | 0x047B       |     10 |              2 |
| [65535.26](#event-6553526) | 0x0485       |     14 |              4 |
| [65535.27](#event-6553527) | 0x0493       |     24 |              6 |
| [65535.28](#event-6553528) | 0x04AB       |     34 |              8 |
| [46](#event-46)            | 0x04CD       |     47 |             14 |
| [47](#event-47)            | 0x04FC       |      1 |              1 |
| [65535.29](#event-6553529) | 0x04FD       |      5 |              3 |
| [65535.30](#event-6553530) | 0x0502       |      5 |              3 |
| [65535.31](#event-6553531) | 0x0507       |      5 |              3 |
| [65535.32](#event-6553532) | 0x050C       |      5 |              3 |
| [65535.33](#event-6553533) | 0x0511       |      5 |              3 |
| [65535.34](#event-6553534) | 0x0516       |      5 |              3 |
| [48](#event-48)            | 0x051B       |     47 |             14 |
| [50](#event-50)            | 0x054A       |      1 |              1 |
| [65535.35](#event-6553535) | 0x054B       |      5 |              3 |
| [65535.36](#event-6553536) | 0x0550       |      5 |              3 |
| [65535.37](#event-6553537) | 0x0555       |      5 |              3 |
| [65535.38](#event-6553538) | 0x055A       |      5 |              3 |
| [52](#event-52)            | 0x055F       |     47 |             14 |
| [53](#event-53)            | 0x058E       |      1 |              1 |
| [65535.39](#event-6553539) | 0x058F       |      5 |              3 |
| [65535.40](#event-6553540) | 0x0594       |      5 |              3 |
| [65535.41](#event-6553541) | 0x0599       |      5 |              3 |
| [54](#event-54)            | 0x059E       |      1 |              1 |
| [56](#event-56)            | 0x059F       |     47 |             14 |
| [57](#event-57)            | 0x05CE       |      1 |              1 |
| [65535.42](#event-6553542) | 0x05CF       |      5 |              3 |
| [107](#event-107)          | 0x05D4       |    125 |             26 |
| [65535.43](#event-6553543) | 0x0651       |      5 |              3 |
| [65535.44](#event-6553544) | 0x0656       |      5 |              3 |
| [65535.45](#event-6553545) | 0x065B       |      5 |              3 |
| [65535.46](#event-6553546) | 0x0660       |      5 |              3 |
| [108](#event-108)          | 0x0665       |     33 |             12 |
| [110](#event-110)          | 0x0686       |     99 |             18 |
| [65535.47](#event-6553547) | 0x06E9       |      5 |              3 |
| [65535.48](#event-6553548) | 0x06EE       |      5 |              3 |
| [65535.49](#event-6553549) | 0x06F3       |      5 |              3 |
| [65535.50](#event-6553550) | 0x06F8       |      5 |              3 |
| [111](#event-111)          | 0x06FD       |     47 |             14 |
| [265](#event-265)          | 0x072C       |     47 |             14 |
| [279](#event-279)          | 0x075B       |    750 |            110 |
| [280](#event-280)          | 0x0A49       |    142 |             42 |
| [281](#event-281)          | 0x0AD7       |     15 |              8 |
| [282](#event-282)          | 0x0AE6       |    510 |             74 |
| [283](#event-283)          | 0x0CE4       |     15 |              8 |
| [284](#event-284)          | 0x0CF3       |    741 |            103 |
| [293](#event-293)          | 0x0FD8       |      1 |              1 |
| [65535.51](#event-6553551) | 0x0FD9       |     15 |              5 |
| [294](#event-294)          | 0x0FE8       |     47 |             14 |

## DAT References (imed_data)

|   Index | Hex Value   |   Dec Value |
|---------|-------------|-------------|
|       0 | 0x0213      |         531 |
|       1 | 0x016C      |         364 |
|       2 | 0x001E      |          30 |
|       3 | 0x26F2      |        9970 |
|       4 | 0x285F      |       10335 |
|       5 | 0x2860      |       10336 |
|       6 | 0x00C8      |         200 |
|       7 | 0x0000      |           0 |
|       8 | 0x003C      |          60 |
|       9 | 0x01FB      |         507 |
|      10 | 0x0003      |           3 |
|      11 | 0x0096      |         150 |
|      12 | 0x0005      |           5 |
|      13 | 0x0006      |           6 |
|      14 | 0x0008      |           8 |
|      15 | 0x26F5      |        9973 |
|      16 | 0x26F6      |        9974 |
|      17 | 0x0064      |         100 |
|      18 | 0x26F3      |        9971 |
|      19 | 0x26F4      |        9972 |
|      20 | 0x26F7      |        9975 |
|      21 | 0x1815A     |       98650 |
|      22 | 0xFFFE4600  |  4294854144 |
|      23 | 0xFFFFC568  |  4294952296 |
|      24 | 0x08EA      |        2282 |
|      25 | 0x000D      |          13 |
|      26 | 0x17996     |       96662 |
|      27 | 0xFFFE46E2  |  4294854370 |
|      28 | 0xFFFFC551  |  4294952273 |
|      29 | 0x18A08     |      100872 |
|      30 | 0xFFFE454B  |  4294853963 |
|      31 | 0x277D      |       10109 |
|      32 | 0x277E      |       10110 |
|      33 | 0x2783      |       10115 |
|      34 | 0x2784      |       10116 |
|      35 | 0x2786      |       10118 |
|      36 | 0x2787      |       10119 |
|      37 | 0x2788      |       10120 |
|      38 | 0x278A      |       10122 |
|      39 | 0x278B      |       10123 |
|      40 | 0x278C      |       10124 |
|      41 | 0x2790      |       10128 |
|      42 | 0x2791      |       10129 |
|      43 | 0x2793      |       10131 |
|      44 | 0x2794      |       10132 |
|      45 | 0x2797      |       10135 |
|      46 | 0x2798      |       10136 |
|      47 | 0x279E      |       10142 |
|      48 | 0x27A0      |       10144 |
|      49 | 0x27A2      |       10146 |
|      50 | 0x27A6      |       10150 |
|      51 | 0x27A7      |       10151 |
|      52 | 0x27A9      |       10153 |
|      53 | 0x27AC      |       10156 |
|      54 | 0x0001      |           1 |
|      55 | 0x0002      |           2 |
|      56 | 0x27AD      |       10157 |
|      57 | 0x27AA      |       10154 |
|      58 | 0x27AB      |       10155 |
|      59 | 0x27AE      |       10158 |
|      60 | 0x27AF      |       10159 |
|      61 | 0x27B0      |       10160 |
|      62 | 0x27B1      |       10161 |
|      63 | 0x00C9      |         201 |
|      64 | 0x27B7      |       10167 |
|      65 | 0x27B8      |       10168 |
|      66 | 0x27B9      |       10169 |
|      67 | 0x27BA      |       10170 |
|      68 | 0x27BB      |       10171 |
|      69 | 0x27BC      |       10172 |
|      70 | 0x28EE      |       10478 |
|      71 | 0x28EF      |       10479 |
|      72 | 0x00A3      |         163 |
|      73 | 0x007F      |         127 |
|      74 | 0x00E4      |         228 |
|      75 | 0x2993      |       10643 |
|      76 | 0x2994      |       10644 |
|      77 | 0x2995      |       10645 |
|      78 | 0x2996      |       10646 |
|      79 | 0x2997      |       10647 |
|      80 | 0x2998      |       10648 |
|      81 | 0x2999      |       10649 |
|      82 | 0x299A      |       10650 |
|      83 | 0x0087      |         135 |
|      84 | 0x299B      |       10651 |
|      85 | 0x299C      |       10652 |
|      86 | 0x29A2      |       10658 |
|      87 | 0x29A3      |       10659 |
|      88 | 0x299D      |       10653 |
|      89 | 0x299E      |       10654 |
|      90 | 0x299F      |       10655 |
|      91 | 0x29A0      |       10656 |
|      92 | 0x29A1      |       10657 |
|      93 | 0x0004      |           4 |
|      94 | 0x29A4      |       10660 |
|      95 | 0x29A5      |       10661 |
|      96 | 0x29A6      |       10662 |
|      97 | 0x29A7      |       10663 |
|      98 | 0x29A8      |       10664 |
|      99 | 0x0078      |         120 |
|     100 | 0x29A9      |       10665 |
|     101 | 0x29AA      |       10666 |
|     102 | 0x29AB      |       10667 |
|     103 | 0x29AC      |       10668 |
|     104 | 0x29AD      |       10669 |
|     105 | 0x29AE      |       10670 |
|     106 | 0x18744     |      100164 |
|     107 | 0xFFFE3B15  |  4294851349 |
|     108 | 0x29D5      |       10709 |
|     109 | 0x29D6      |       10710 |

## String References

- **9970**: I am Jakoh Wahcondalo, the Chieftainness of Kazham. This is my village. We have only one rrrule here--I make the rrrules.
- **9971**: Hah-hah-hah! So Gilgamesh is asking me to let you pass through to the Temple of Uggalepih, is he? That old dog hasn't changed a bit.
- **9972**: Have you never hearrrd the tales of Uggalepih? Do you even know what you'll be getting yourself into?
- **9973**: Well, don't say I didn't warn you.
- **9974**: Here, take this key. It opens the door that leads to the deeper parrrts of the temple. Have fun! Hah-hah-hah!
- **9975**: You don't know the way to the temple? It's just to the southeast of here. But that's all the help I can give you. I'm not rrrisking my, or any of my guards', tails.
- **10109**: And tell this Angelica that the Temple of Uggalepih is no place for her fancy mainland modern art.
- **10110**: Not that I expect her to listen...
- **10115**: That letter doesn't look like it was addressed to you... Unless you've changed yourrr name to Jakoh.
- **10116**: <Hiss> I neverrr gave you perrrmission to rrread my letterrrs! Get over herrre!
- **10118**: So, even after all we have told her of the dangerrrs of Uggalepih, she still wants to go through with her plan...
- **10119**: Well, I am not going to spend my time worrying over crazy mainlanders' outrageous schemes.
- **10120**: You've brought her painting from the mainlands, haven't you? Well, you're free to hang it in the temple, but don't expect any of my women to run in there and save you when you get into trrrouble.
- **10122**: Now off with you!
- **10123**: You're on this boat for the long haul, [mister/missy]. You jump off now, you'll be taking down someone's dreams with you.
- **10124**: But, you stay on too long, and you might sink anyway...
- **10128**: Interrresting... Tell me more.
- **10129**: ... Long, long ago, an ancient race, now extinct, lived in that temple.
- **10131**: I will try explaining this to her in another letter, but I doubt she will listen...
- **10132**: Oh, and take this. It might have been useless work, but work is work.
- **10135**: I will try explaining to Angelica what happened this time in a letter, but I doubt she will listen...
- **10136**: I would ask you to do it, but after what happened to her painting, I don't think it would be a very good idea if you showed up at her door.
- **10142**: As I expected... Mainlanders neverrr listen to reason. So, can I count on you to take this painting to the gallery?
- **10144**: I see... I guess I'll have to find someone a little less busy. Etteh Sulaej! Send a messengerrr to the adventurerrr's inn!
- **10146**: A glutton for punishment, I see. Take this painting to the gallery. I hope Angelica's painting is better received this time around.
- **10150**: Strange voices...evil spirits... Many mysteries still lurk behind the walls of that ancient temple.
- **10151**: What arrre you mainlanders thinking?
- **10153**: Hah-hah! It looks like the spirit wasn't moved by Angelica's latest work, eitherrr.
- **10154**: You have the nerrrve to show your face in herrre afterrr what you did?
- **10155**: How could you even think of touching the $1?
- **10156**: How could you!? [I'm sorry.../I didn't do anything...]
- **10157**: Liar!
- **10158**: You may not be able to see it, but the Tonberries' $1 is therrre in your hands.
- **10159**: Anyone who has been currrsed by that flame is forrrbidden to enterrr Kazham. I'll give you a day. Get yourrr things togetherrr and get out of my village!
- **10160**: The $1 in your body has the power to call forrrth the Tonberries. That is why anyone currrsed with that flame is forrrbidden frrrom enterrring Kazham!
- **10161**: You have a day. Get yourrr things togetherrr and get out of my village!
- **10167**: Are you still herrre? I thought I told you to get out of my village! If you don't leave rrright now, I'll have to dispose of you myself...
- **10168**: What is this you say? You've removed the curse?
- **10169**: Well, well, well... I guess there is no longer any reason to banish you from Kazham.
- **10170**: I can assume that you won't be touching any morrre $1 from now on, will you?
- **10171**: Don't get me wrong. I've spent my time in the mainlands. I don't hate all of you.
- **10172**: But you mainlanders cause too many problems. You should think a little more beforrre you act. Understood?
- **10335**: You touched a Rafflesia flowerrr, didn't you? You idiot! You mean to tell me you mainlanderrrs' noses are so primitive that you cannot even sense this rrrotten smell?
- **10336**: If you don't want me to slice you up and serrrve you to the Opo-opos, I would suggest a quick exit. NOW!
- **10478**: Rhinostery minister? Here in Kazham?
- **10479**: Oh, yes. Now I remember. That strrrange little lady with the funny accent. Yes, she kept asking me about the ancient times, so I sent her to someone ancient--our former chieftainness.
- **10643**: Ah, if it isn't <Player>. Lately, I've been hearrring rumors about you. They say that for a mainlander, you are quite talented when it comes to wielding a daggerrr.
- **10644**: I'm not one to brrrag, but I, too, am quite skilled with knives. Why, just the other day I came up with a new technique that can slice and dice even the toughest Tonberrry.
- **10645**: But there's a problem...
- **10646**: If anybody gets their grrrimy hands on it, I'll be in trrrouble. That's why I have to start practicing dodging the technique as well as using it.
- **10647**: And that's the prrroblem. None of the pussycats around here have the skill required to perrrform it!
- **10648**: If I could only find someone that could match me in battle...
- **10649**: How about you? Do you want to take a stab at learrrning my new technique?
- **10650**: Here, take one of my daggerrrs and practice until the blade's been completely drrrained of its power. Come back here when you're done, and I'll show you my secrrrets.
- **10651**: If you want to learn my new technique, you're going to have to train with that daggerrr. Do you have a prrroblem with that!?
- **10652**: Any complaints? [No, ma'am!/I seem to have misplaced the dagger./I've had enough of this training.]
- **10653**: You lose any more of my belongings, and I will scrrratch your eyes out and eat them for dinner!
- **10654**: So, you mean to say this task was too difficult for you?
- **10655**: Really quit your training? [Yes./Not just yet.]
- **10656**: Hmph. Well, I guess it's betterrr this way. I prrrobably would have killed a weakling like you just showing you the technique.
- **10657**: Oh, and you can get rid of that daggerrr yourself. I wouldn't think of using another [man's/woman's] weapon.
- **10658**: That daggerrr I gave you, I made it myself--rrright down to its hidden abilities. But the more you use it, the less powerful it becomes.
- **10659**: When all its powerrr is gone, bring it back here and we'll test how good you rrreally have become.
- **10660**: You're far from being done, [tigerrr/kitty]. When all the dagger's power is gone, bring it back here. Then we'll test how good you rrreally have become.
- **10661**: Ah, so you're finally done. I was beginning to worry that you'd neverrr come back.
- **10662**: Now it's time to see if you rrreally have what it takes to be my parrrtner in prrractice. Take this map to the Gustav Tunnel and dice up the monster waiting for you there.
- **10663**: And don't forget to brrring back $6. Otherwise, how am I supposed to know that you just didn't have some of your cat pack defeat the monsterrr for you?
- **10664**: Now get out of here! The quicker you get back from the Gustav Tunnel, the quicker I can start prrracticing!
- **10665**: You're finally back! Congrrratulations on taking out the monster in the tunnel.
- **10666**: If you could handle that beast, then you are more than worrrthy to learn my new technique. Now let's begin...
- **10667**: So what do you think? Never seen anything like it before, have you? I must say, I am one smarrrt cat.
- **10668**: Thanks to you, I also was able to come up with a way to dodge it. What? You want me to teach you that, too?
- **10669**: I'm sorry, but that won't be possible. To tell you the trrruth, the only real way to dodge that technique would involve killing your opponent.
- **10670**: You wouldn't want to be killed by me now, would you?
- **10709**: From the time of that expedition thirty years ago until my inauguration as chieftainness...
- **10710**: Kazham has not been gentle with outsiders. That's just the kind of people we Mithra are.

## Events

### Event 65535

#### Metadata

| Field        | Value   |
|--------------|---------|
| Entrypoint   | 0x0000  |
| Data Size    | 1 bytes |
| Instructions | 1       |

```
      00 01 02 03 04 05 06 07  08 09 0A 0B 0C 0D 0E 0F
      -- -- -- -- -- -- -- --  -- -- -- -- -- -- -- --
0000: 00                                                .               
```

#### Opcodes

```
  0: 0x0000 [0x00] END_REQSTACK()
```

### Event 65535.1

#### Metadata

| Field        | Value    |
|--------------|----------|
| Entrypoint   | 0x0001   |
| Data Size    | 16 bytes |
| Instructions | 2        |

```
      00 01 02 03 04 05 06 07  08 09 0A 0B 0C 0D 0E 0F
      -- -- -- -- -- -- -- --  -- -- -- -- -- -- -- --
0000:    5B 00 80 F8 FF FF 7F  F8 FF FF 7F 74 6C 6B 30   [..........tlk0
0010: 00                                                .               
```

#### Opcodes

```
  0: 0x0001 [0x5B] LOAD_EXT_SCHEDULER: Load scheduler "tlk0" with entities [EventEntity, EventEntity], work=531*
  1: 0x0010 [0x00] END_REQSTACK()
```

### Event 65535.2

#### Metadata

| Field        | Value    |
|--------------|----------|
| Entrypoint   | 0x0011   |
| Data Size    | 14 bytes |
| Instructions | 2        |

```
      00 01 02 03 04 05 06 07  08 09 0A 0B 0C 0D 0E 0F
      -- -- -- -- -- -- -- --  -- -- -- -- -- -- -- --
0010:    53 F8 FF FF 7F F8 FF  FF 7F 74 6C 6B 30 00      S........tlk0. 
```

#### Opcodes

```
  0: 0x0011 [0x53] WAIT_SCHEDULER_TASK: Wait for scheduler "tlk0" with entities [EventEntity, EventEntity]
  1: 0x001E [0x00] END_REQSTACK()
```

### Event 65535.3

#### Metadata

| Field        | Value    |
|--------------|----------|
| Entrypoint   | 0x001F   |
| Data Size    | 16 bytes |
| Instructions | 2        |

```
      00 01 02 03 04 05 06 07  08 09 0A 0B 0C 0D 0E 0F
      -- -- -- -- -- -- -- --  -- -- -- -- -- -- -- --
0010:                                               5B                 [
0020: 00 80 F8 FF FF 7F F8 FF  FF 7F 74 6C 6B 31 00     ..........tlk1. 
```

#### Opcodes

```
  0: 0x001F [0x5B] LOAD_EXT_SCHEDULER: Load scheduler "tlk1" with entities [EventEntity, EventEntity], work=531*
  1: 0x002E [0x00] END_REQSTACK()
```

### Event 65535.4

#### Metadata

| Field        | Value    |
|--------------|----------|
| Entrypoint   | 0x002F   |
| Data Size    | 14 bytes |
| Instructions | 2        |

```
      00 01 02 03 04 05 06 07  08 09 0A 0B 0C 0D 0E 0F
      -- -- -- -- -- -- -- --  -- -- -- -- -- -- -- --
0020:                                               53                 S
0030: F8 FF FF 7F F8 FF FF 7F  74 6C 6B 31 00           ........tlk1.   
```

#### Opcodes

```
  0: 0x002F [0x53] WAIT_SCHEDULER_TASK: Wait for scheduler "tlk1" with entities [EventEntity, EventEntity]
  1: 0x003C [0x00] END_REQSTACK()
```

### Event 65535.5

#### Metadata

| Field        | Value    |
|--------------|----------|
| Entrypoint   | 0x003D   |
| Data Size    | 16 bytes |
| Instructions | 2        |

```
      00 01 02 03 04 05 06 07  08 09 0A 0B 0C 0D 0E 0F
      -- -- -- -- -- -- -- --  -- -- -- -- -- -- -- --
0030:                                         5B 00 80               [..
0040: F8 FF FF 7F F8 FF FF 7F  74 6C 6B 32 00           ........tlk2.   
```

#### Opcodes

```
  0: 0x003D [0x5B] LOAD_EXT_SCHEDULER: Load scheduler "tlk2" with entities [EventEntity, EventEntity], work=531*
  1: 0x004C [0x00] END_REQSTACK()
```

### Event 65535.6

#### Metadata

| Field        | Value    |
|--------------|----------|
| Entrypoint   | 0x004D   |
| Data Size    | 14 bytes |
| Instructions | 2        |

```
      00 01 02 03 04 05 06 07  08 09 0A 0B 0C 0D 0E 0F
      -- -- -- -- -- -- -- --  -- -- -- -- -- -- -- --
0040:                                         53 F8 FF               S..
0050: FF 7F F8 FF FF 7F 74 6C  6B 32 00                 ......tlk2.     
```

#### Opcodes

```
  0: 0x004D [0x53] WAIT_SCHEDULER_TASK: Wait for scheduler "tlk2" with entities [EventEntity, EventEntity]
  1: 0x005A [0x00] END_REQSTACK()
```

### Event 65535.7

#### Metadata

| Field        | Value    |
|--------------|----------|
| Entrypoint   | 0x005B   |
| Data Size    | 16 bytes |
| Instructions | 2        |

```
      00 01 02 03 04 05 06 07  08 09 0A 0B 0C 0D 0E 0F
      -- -- -- -- -- -- -- --  -- -- -- -- -- -- -- --
0050:                                   5B 00 80 F8 FF             [....
0060: FF 7F F8 FF FF 7F 74 68  6B 30 00                 ......thk0.     
```

#### Opcodes

```
  0: 0x005B [0x5B] LOAD_EXT_SCHEDULER: Load scheduler "thk0" with entities [EventEntity, EventEntity], work=531*
  1: 0x006A [0x00] END_REQSTACK()
```

### Event 65535.8

#### Metadata

| Field        | Value    |
|--------------|----------|
| Entrypoint   | 0x006B   |
| Data Size    | 14 bytes |
| Instructions | 2        |

```
      00 01 02 03 04 05 06 07  08 09 0A 0B 0C 0D 0E 0F
      -- -- -- -- -- -- -- --  -- -- -- -- -- -- -- --
0060:                                   53 F8 FF FF 7F             S....
0070: F8 FF FF 7F 74 68 6B 30  00                       ....thk0.       
```

#### Opcodes

```
  0: 0x006B [0x53] WAIT_SCHEDULER_TASK: Wait for scheduler "thk0" with entities [EventEntity, EventEntity]
  1: 0x0078 [0x00] END_REQSTACK()
```

### Event 65535.9

#### Metadata

| Field        | Value    |
|--------------|----------|
| Entrypoint   | 0x0079   |
| Data Size    | 16 bytes |
| Instructions | 2        |

```
      00 01 02 03 04 05 06 07  08 09 0A 0B 0C 0D 0E 0F
      -- -- -- -- -- -- -- --  -- -- -- -- -- -- -- --
0070:                             5B 00 80 F8 FF FF 7F           [......
0080: F8 FF FF 7F 74 68 6B 31  00                       ....thk1.       
```

#### Opcodes

```
  0: 0x0079 [0x5B] LOAD_EXT_SCHEDULER: Load scheduler "thk1" with entities [EventEntity, EventEntity], work=531*
  1: 0x0088 [0x00] END_REQSTACK()
```

### Event 65535.10

#### Metadata

| Field        | Value    |
|--------------|----------|
| Entrypoint   | 0x0089   |
| Data Size    | 14 bytes |
| Instructions | 2        |

```
      00 01 02 03 04 05 06 07  08 09 0A 0B 0C 0D 0E 0F
      -- -- -- -- -- -- -- --  -- -- -- -- -- -- -- --
0080:                             53 F8 FF FF 7F F8 FF           S......
0090: FF 7F 74 68 6B 31 00                              ..thk1.         
```

#### Opcodes

```
  0: 0x0089 [0x53] WAIT_SCHEDULER_TASK: Wait for scheduler "thk1" with entities [EventEntity, EventEntity]
  1: 0x0096 [0x00] END_REQSTACK()
```

### Event 65535.11

#### Metadata

| Field        | Value    |
|--------------|----------|
| Entrypoint   | 0x0097   |
| Data Size    | 16 bytes |
| Instructions | 2        |

```
      00 01 02 03 04 05 06 07  08 09 0A 0B 0C 0D 0E 0F
      -- -- -- -- -- -- -- --  -- -- -- -- -- -- -- --
0090:                      5B  00 80 F8 FF FF 7F F8 FF         [........
00A0: FF 7F 72 61 66 30 00                              ..raf0.         
```

#### Opcodes

```
  0: 0x0097 [0x5B] LOAD_EXT_SCHEDULER: Load scheduler "raf0" with entities [EventEntity, EventEntity], work=531*
  1: 0x00A6 [0x00] END_REQSTACK()
```

### Event 65535.12

#### Metadata

| Field        | Value    |
|--------------|----------|
| Entrypoint   | 0x00A7   |
| Data Size    | 14 bytes |
| Instructions | 2        |

```
      00 01 02 03 04 05 06 07  08 09 0A 0B 0C 0D 0E 0F
      -- -- -- -- -- -- -- --  -- -- -- -- -- -- -- --
00A0:                      53  F8 FF FF 7F F8 FF FF 7F         S........
00B0: 72 61 66 30 00                                    raf0.           
```

#### Opcodes

```
  0: 0x00A7 [0x53] WAIT_SCHEDULER_TASK: Wait for scheduler "raf0" with entities [EventEntity, EventEntity]
  1: 0x00B4 [0x00] END_REQSTACK()
```

### Event 65535.13

#### Metadata

| Field        | Value    |
|--------------|----------|
| Entrypoint   | 0x00B5   |
| Data Size    | 16 bytes |
| Instructions | 2        |

```
      00 01 02 03 04 05 06 07  08 09 0A 0B 0C 0D 0E 0F
      -- -- -- -- -- -- -- --  -- -- -- -- -- -- -- --
00B0:                5B 00 80  F8 FF FF 7F F8 FF FF 7F       [..........
00C0: 61 6E 67 30 00                                    ang0.           
```

#### Opcodes

```
  0: 0x00B5 [0x5B] LOAD_EXT_SCHEDULER: Load scheduler "ang0" with entities [EventEntity, EventEntity], work=531*
  1: 0x00C4 [0x00] END_REQSTACK()
```

### Event 65535.14

#### Metadata

| Field        | Value    |
|--------------|----------|
| Entrypoint   | 0x00C5   |
| Data Size    | 14 bytes |
| Instructions | 2        |

```
      00 01 02 03 04 05 06 07  08 09 0A 0B 0C 0D 0E 0F
      -- -- -- -- -- -- -- --  -- -- -- -- -- -- -- --
00C0:                53 F8 FF  FF 7F F8 FF FF 7F 61 6E       S........an
00D0: 67 30 00                                          g0.             
```

#### Opcodes

```
  0: 0x00C5 [0x53] WAIT_SCHEDULER_TASK: Wait for scheduler "ang0" with entities [EventEntity, EventEntity]
  1: 0x00D2 [0x00] END_REQSTACK()
```

### Event 65535.15

#### Metadata

| Field        | Value    |
|--------------|----------|
| Entrypoint   | 0x00D3   |
| Data Size    | 16 bytes |
| Instructions | 2        |

```
      00 01 02 03 04 05 06 07  08 09 0A 0B 0C 0D 0E 0F
      -- -- -- -- -- -- -- --  -- -- -- -- -- -- -- --
00D0:          5B 00 80 F8 FF  FF 7F F8 FF FF 7F 74 6E     [..........tn
00E0: 67 30 00                                          g0.             
```

#### Opcodes

```
  0: 0x00D3 [0x5B] LOAD_EXT_SCHEDULER: Load scheduler "tng0" with entities [EventEntity, EventEntity], work=531*
  1: 0x00E2 [0x00] END_REQSTACK()
```

### Event 65535.16

#### Metadata

| Field        | Value    |
|--------------|----------|
| Entrypoint   | 0x00E3   |
| Data Size    | 19 bytes |
| Instructions | 3        |

```
      00 01 02 03 04 05 06 07  08 09 0A 0B 0C 0D 0E 0F
      -- -- -- -- -- -- -- --  -- -- -- -- -- -- -- --
00E0:          53 F8 FF FF 7F  F8 FF FF 7F 74 6E 67 30     S........tng0
00F0: 5E 64 66 74 30 00                                 ^dft0.          
```

#### Opcodes

```
  0: 0x00E3 [0x53] WAIT_SCHEDULER_TASK: Wait for scheduler "tng0" with entities [EventEntity, EventEntity]
  1: 0x00F0 [0x5E] EventEntity goes idle (kills current action) (animation: "dft0")
  2: 0x00F5 [0x00] END_REQSTACK()
```

### Event 65535.17

#### Metadata

| Field        | Value    |
|--------------|----------|
| Entrypoint   | 0x00F6   |
| Data Size    | 16 bytes |
| Instructions | 2        |

```
      00 01 02 03 04 05 06 07  08 09 0A 0B 0C 0D 0E 0F
      -- -- -- -- -- -- -- --  -- -- -- -- -- -- -- --
00F0:                   5B 00  80 F8 FF FF 7F F8 FF FF        [.........
0100: 7F 74 6E 67 31 00                                 .tng1.          
```

#### Opcodes

```
  0: 0x00F6 [0x5B] LOAD_EXT_SCHEDULER: Load scheduler "tng1" with entities [EventEntity, EventEntity], work=531*
  1: 0x0105 [0x00] END_REQSTACK()
```

### Event 65535.18

#### Metadata

| Field        | Value    |
|--------------|----------|
| Entrypoint   | 0x0106   |
| Data Size    | 19 bytes |
| Instructions | 3        |

```
      00 01 02 03 04 05 06 07  08 09 0A 0B 0C 0D 0E 0F
      -- -- -- -- -- -- -- --  -- -- -- -- -- -- -- --
0100:                   53 F8  FF FF 7F F8 FF FF 7F 74        S........t
0110: 6E 67 31 5E 69 64 6C 30  00                       ng1^idl0.       
```

#### Opcodes

```
  0: 0x0106 [0x53] WAIT_SCHEDULER_TASK: Wait for scheduler "tng1" with entities [EventEntity, EventEntity]
  1: 0x0113 [0x5E] EventEntity goes idle (kills current action) (animation: "idl0")
  2: 0x0118 [0x00] END_REQSTACK()
```

### Event 65535.19

#### Metadata

| Field        | Value    |
|--------------|----------|
| Entrypoint   | 0x0119   |
| Data Size    | 16 bytes |
| Instructions | 2        |

```
      00 01 02 03 04 05 06 07  08 09 0A 0B 0C 0D 0E 0F
      -- -- -- -- -- -- -- --  -- -- -- -- -- -- -- --
0110:                             5B 01 80 F8 FF FF 7F           [......
0120: F8 FF FF 7F 70 61 73 30  00                       ....pas0.       
```

#### Opcodes

```
  0: 0x0119 [0x5B] LOAD_EXT_SCHEDULER: Load scheduler "pas0" with entities [EventEntity, EventEntity], work=364*
  1: 0x0128 [0x00] END_REQSTACK()
```

### Event 65535.20

#### Metadata

| Field        | Value    |
|--------------|----------|
| Entrypoint   | 0x0129   |
| Data Size    | 14 bytes |
| Instructions | 2        |

```
      00 01 02 03 04 05 06 07  08 09 0A 0B 0C 0D 0E 0F
      -- -- -- -- -- -- -- --  -- -- -- -- -- -- -- --
0120:                             53 F8 FF FF 7F F8 FF           S......
0130: FF 7F 70 61 73 30 00                              ..pas0.         
```

#### Opcodes

```
  0: 0x0129 [0x53] WAIT_SCHEDULER_TASK: Wait for scheduler "pas0" with entities [EventEntity, EventEntity]
  1: 0x0136 [0x00] END_REQSTACK()
```

### Event 65535.21

#### Metadata

| Field        | Value    |
|--------------|----------|
| Entrypoint   | 0x0137   |
| Data Size    | 49 bytes |
| Instructions | 5        |

```
      00 01 02 03 04 05 06 07  08 09 0A 0B 0C 0D 0E 0F
      -- -- -- -- -- -- -- --  -- -- -- -- -- -- -- --
0130:                      5B  00 80 F8 FF FF 7F F8 FF         [........
0140: FF 7F 74 6E 67 30 53 F8  FF FF 7F F8 FF FF 7F 74  ..tng0S........t
0150: 6E 67 30 5E 64 66 74 30  5B 01 80 F8 FF FF 7F F8  ng0^dft0[.......
0160: FF FF 7F 70 61 73 30 00                           ...pas0.        
```

#### Opcodes

```
  0: 0x0137 [0x5B] LOAD_EXT_SCHEDULER: Load scheduler "tng0" with entities [EventEntity, EventEntity], work=531*
  1: 0x0146 [0x53] WAIT_SCHEDULER_TASK: Wait for scheduler "tng0" with entities [EventEntity, EventEntity]
  2: 0x0153 [0x5E] EventEntity goes idle (kills current action) (animation: "dft0")
  3: 0x0158 [0x5B] LOAD_EXT_SCHEDULER: Load scheduler "pas0" with entities [EventEntity, EventEntity], work=364*
  4: 0x0167 [0x00] END_REQSTACK()
```

### Event 65535.22

#### Metadata

| Field        | Value    |
|--------------|----------|
| Entrypoint   | 0x0168   |
| Data Size    | 19 bytes |
| Instructions | 3        |

```
      00 01 02 03 04 05 06 07  08 09 0A 0B 0C 0D 0E 0F
      -- -- -- -- -- -- -- --  -- -- -- -- -- -- -- --
0160:                          53 F8 FF FF 7F F8 FF FF          S.......
0170: 7F 70 61 73 30 5E 69 64  6C 30 00                 .pas0^idl0.     
```

#### Opcodes

```
  0: 0x0168 [0x53] WAIT_SCHEDULER_TASK: Wait for scheduler "pas0" with entities [EventEntity, EventEntity]
  1: 0x0175 [0x5E] EventEntity goes idle (kills current action) (animation: "idl0")
  2: 0x017A [0x00] END_REQSTACK()
```

### Event 65535.23

#### Metadata

| Field        | Value   |
|--------------|---------|
| Entrypoint   | 0x017B  |
| Data Size    | 9 bytes |
| Instructions | 3       |

```
      00 01 02 03 04 05 06 07  08 09 0A 0B 0C 0D 0E 0F
      -- -- -- -- -- -- -- --  -- -- -- -- -- -- -- --
0170:                                   5E 69 64 6C 30             ^idl0
0180: 1C 02 80 00                                       ....            
```

#### Opcodes

```
  0: 0x017B [0x5E] EventEntity goes idle (kills current action) (animation: "idl0")
  1: 0x0180 [0x1C] WAIT(30* ticks)
  2: 0x0183 [0x00] END_REQSTACK()
```

### Event 113

#### Metadata

| Field        | Value    |
|--------------|----------|
| Entrypoint   | 0x0184   |
| Data Size    | 43 bytes |
| Instructions | 12       |

```
      00 01 02 03 04 05 06 07  08 09 0A 0B 0C 0D 0E 0F
      -- -- -- -- -- -- -- --  -- -- -- -- -- -- -- --
0180:             1E F0 FF FF  7F 6F 70 29 08 08 A0 0F      .....op)....
0190: 01 01 1D 03 80 23 29 08  08 A0 0F 01 02 29 08 08  .....#)......)..
01A0: A0 0F 01 03 29 08 08 A0  0F 01 04 20 00 21 00     ....)...... .!. 
```

#### Opcodes

```
  0: 0x0184 [0x1E] EventEntity looks at LocalPlayer and starts talking
  1: 0x0189 [0x6F] WAIT_FRAME_DELAY: Yield until WaitTime reaches zero
  2: 0x018A [0x70] WAIT_ENTITY_RENDER_FLAG: Wait while EventEntity->Render.Flags3 bit 2 is set (cancel turn if not)
  3: 0x018B [0x29] REQ_SET_WAIT(priority=0x08, entity_id=Jakoh Wahcondalo (ID: 17801224/0x010FA008), tag_num=0x01)
  4: 0x0192 [0x1D] PRINT_EVENT_MESSAGE(message_id=9970*)
    → "I am Jakoh Wahcondalo, the Chieftainness of Kazham. This is my village. We have only one rrrule here--I make the rrrules."
  5: 0x0195 [0x23] WAIT_FOR_DIALOG_INTERACTION
  6: 0x0196 [0x29] REQ_SET_WAIT(priority=0x08, entity_id=Jakoh Wahcondalo (ID: 17801224/0x010FA008), tag_num=0x02)
  7: 0x019D [0x29] REQ_SET_WAIT(priority=0x08, entity_id=Jakoh Wahcondalo (ID: 17801224/0x010FA008), tag_num=0x03)
  8: 0x01A4 [0x29] REQ_SET_WAIT(priority=0x08, entity_id=Jakoh Wahcondalo (ID: 17801224/0x010FA008), tag_num=0x04)
  9: 0x01AB [0x20] SET_CLI_EVENT_UC_FLAG: Unlock player control
 10: 0x01AD [0x21] END_EVENT
 11: 0x01AE [0x00] END_REQSTACK()
```

### Event 164

#### Metadata

| Field        | Value    |
|--------------|----------|
| Entrypoint   | 0x01AF   |
| Data Size    | 33 bytes |
| Instructions | 12       |

```
      00 01 02 03 04 05 06 07  08 09 0A 0B 0C 0D 0E 0F
      -- -- -- -- -- -- -- --  -- -- -- -- -- -- -- --
01A0:                                               1E                 .
01B0: F0 FF FF 7F 6F 70 1D 04  80 23 29 08 08 A0 0F 01  ....op...#).....
01C0: 0D 1D 05 80 23 29 08 08  A0 0F 01 0E 20 00 21 00  ....#)...... .!.
```

#### Opcodes

```
  0: 0x01AF [0x1E] EventEntity looks at LocalPlayer and starts talking
  1: 0x01B4 [0x6F] WAIT_FRAME_DELAY: Yield until WaitTime reaches zero
  2: 0x01B5 [0x70] WAIT_ENTITY_RENDER_FLAG: Wait while EventEntity->Render.Flags3 bit 2 is set (cancel turn if not)
  3: 0x01B6 [0x1D] PRINT_EVENT_MESSAGE(message_id=10335*)
    → "You touched a Rafflesia flowerrr, didn't you? You idiot! You mean to tell me you mainlanderrrs' noses are so primitive that you cannot even sense this rrrotten smell?"
  4: 0x01B9 [0x23] WAIT_FOR_DIALOG_INTERACTION
  5: 0x01BA [0x29] REQ_SET_WAIT(priority=0x08, entity_id=Jakoh Wahcondalo (ID: 17801224/0x010FA008), tag_num=0x0D)
  6: 0x01C1 [0x1D] PRINT_EVENT_MESSAGE(message_id=10336*)
    → "If you don't want me to slice you up and serrrve you to the Opo-opos, I would suggest a quick exit. NOW!"
  7: 0x01C4 [0x23] WAIT_FOR_DIALOG_INTERACTION
  8: 0x01C5 [0x29] REQ_SET_WAIT(priority=0x08, entity_id=Jakoh Wahcondalo (ID: 17801224/0x010FA008), tag_num=0x0E)
  9: 0x01CC [0x20] SET_CLI_EVENT_UC_FLAG: Unlock player control
 10: 0x01CE [0x21] END_EVENT
 11: 0x01CF [0x00] END_REQSTACK()
```

### Event 114

#### Metadata

| Field        | Value     |
|--------------|-----------|
| Entrypoint   | 0x01D0    |
| Data Size    | 616 bytes |
| Instructions | 80        |

```
      00 01 02 03 04 05 06 07  08 09 0A 0B 0C 0D 0E 0F
      -- -- -- -- -- -- -- --  -- -- -- -- -- -- -- --
01D0: 20 01 42 46 01 1E F0 FF  FF 7F 45 06 80 F0 FF FF   .BF......E.....
01E0: 7F F0 FF FF 7F 66 64 6F  31 07 80 1C 08 80 75 00  .....fdo1.....u.
01F0: 09 80 75 01 1E F0 FF FF  7F 6F 70 4E 01 4A A0 0F  ..u......opN.J..
0200: 01 4E 01 4F A0 0F 01 38  0A 80 29 0B F0 FF FF 7F  .N.O...8..).....
0210: 09 29 08 F0 FF FF 7F 05  1E F0 FF FF 7F 6F 70 45  .)...........opE
0220: 0B 80 F0 FF FF 7F F0 FF  FF 7F 73 30 30 32 07 80  ..........s002..
0230: 45 06 80 F0 FF FF 7F F0  FF FF 7F 66 64 69 31 07  E..........fdi1.
0240: 80 29 0B 08 A0 0F 01 1B  52 0B 80 F0 FF FF 7F F0  .)......R.......
0250: FF FF 7F 73 30 30 32 02  09 10 0A 80 00 73 02 45  ...s002......s.E
0260: 0B 80 F0 FF FF 7F F0 FF  FF 7F 73 30 30 37 07 80  ..........s007..
0270: 01 D8 02 02 09 10 0C 80  00 8F 02 45 0B 80 F0 FF  ...........E....
0280: FF 7F F0 FF FF 7F 73 30  30 35 07 80 01 D8 02 02  ......s005......
0290: 09 10 0D 80 00 AB 02 45  0B 80 F0 FF FF 7F F0 FF  .......E........
02A0: FF 7F 73 30 30 35 07 80  01 D8 02 02 09 10 0E 80  ..s005..........
02B0: 00 C7 02 45 0B 80 F0 FF  FF 7F F0 FF FF 7F 73 30  ...E..........s0
02C0: 30 37 07 80 01 D8 02 45  0B 80 F0 FF FF 7F F0 FF  07.....E........
02D0: FF 7F 73 30 30 33 07 80  29 08 08 A0 0F 01 0F 1D  ..s003..).......
02E0: 0F 80 23 29 08 08 A0 0F  01 10 02 09 10 0A 80 00  ..#)............
02F0: 04 03 52 0B 80 F0 FF FF  7F F0 FF FF 7F 73 30 30  ..R..........s00
0300: 37 01 61 03 02 09 10 0C  80 00 1E 03 52 0B 80 F0  7.a.........R...
0310: FF FF 7F F0 FF FF 7F 73  30 30 35 01 61 03 02 09  .......s005.a...
0320: 10 0D 80 00 38 03 52 0B  80 F0 FF FF 7F F0 FF FF  ....8.R.........
0330: 7F 73 30 30 35 01 61 03  02 09 10 0E 80 00 52 03  .s005.a.......R.
0340: 52 0B 80 F0 FF FF 7F F0  FF FF 7F 73 30 30 37 01  R..........s007.
0350: 61 03 52 0B 80 F0 FF FF  7F F0 FF FF 7F 73 30 30  a.R..........s00
0360: 33 02 09 10 0C 80 00 7D  03 45 0B 80 F0 FF FF 7F  3......}.E......
0370: F0 FF FF 7F 73 30 30 36  07 80 01 AA 03 02 09 10  ....s006........
0380: 0D 80 00 99 03 45 0B 80  F0 FF FF 7F F0 FF FF 7F  .....E..........
0390: 73 30 30 36 07 80 01 AA  03 45 0B 80 F0 FF FF 7F  s006.....E......
03A0: F0 FF FF 7F 73 30 30 34  07 80 29 08 08 A0 0F 01  ....s004..).....
03B0: 13 1D 10 80 23 29 08 08  A0 0F 01 14 29 08 08 A0  ....#)......)...
03C0: 0F 01 11 45 06 80 F0 FF  FF 7F F0 FF FF 7F 66 64  ...E..........fd
03D0: 6F 31 07 80 1C 11 80 02  09 10 0C 80 00 F1 03 52  o1.............R
03E0: 0B 80 F0 FF FF 7F F0 FF  FF 7F 73 30 30 36 01 1A  ..........s006..
03F0: 04 02 09 10 0D 80 00 0B  04 52 0B 80 F0 FF FF 7F  .........R......
0400: F0 FF FF 7F 73 30 30 36  01 1A 04 52 0B 80 F0 FF  ....s006...R....
0410: FF 7F F0 FF FF 7F 73 30  30 34 29 08 08 A0 0F 01  ......s004).....
0420: 12 46 00 45 06 80 F0 FF  FF 7F F0 FF FF 7F 66 64  .F.E..........fd
0430: 69 31 07 80 20 00 21 00                           i1.. .!.        
```

#### Opcodes

```
  0: 0x01D0 [0x20] SET_CLI_EVENT_UC_FLAG: Lock player control
  1: 0x01D2 [0x42] SET_CLI_EVENT_CANCEL_DATA()
  2: 0x01D3 [0x46] CAMERA_CONTROL: Disable user control
  3: 0x01D5 [0x1E] EventEntity looks at LocalPlayer and starts talking
  4: 0x01DA [0x45] LOAD_SCHEDULED_TASK: Load scheduler "fdo1" with entities [LocalPlayer, LocalPlayer], work=[200*, 0*]
  5: 0x01EB [0x1C] WAIT(60* ticks)
  6: 0x01EE [0x75] LOAD_ROOM(Load indoor room, room=507*)
  7: 0x01F2 [0x75] LOAD_ROOM(No action)
  8: 0x01F4 [0x1E] EventEntity looks at LocalPlayer and starts talking
  9: 0x01F9 [0x6F] WAIT_FRAME_DELAY: Yield until WaitTime reaches zero
 10: 0x01FA [0x70] WAIT_ENTITY_RENDER_FLAG: Wait while EventEntity->Render.Flags3 bit 2 is set (cancel turn if not)
 11: 0x01FB [0x4E] SET_ENTITY_HIDE_FLAG: Hide Mumupp (ID: 17801290/0x010FA04A)
 12: 0x0201 [0x4E] SET_ENTITY_HIDE_FLAG: Hide Kakapp (ID: 17801295/0x010FA04F)
 13: 0x0207 [0x38] SET_CLIENT_EVENT_MODE(mode=3*)
 14: 0x020A [0x29] REQ_SET_WAIT(priority=0x0B, entity_id=LocalPlayer, tag_num=0x09)
 15: 0x0211 [0x29] REQ_SET_WAIT(priority=0x08, entity_id=LocalPlayer, tag_num=0x05)
 16: 0x0218 [0x1E] EventEntity looks at LocalPlayer and starts talking
 17: 0x021D [0x6F] WAIT_FRAME_DELAY: Yield until WaitTime reaches zero
 18: 0x021E [0x70] WAIT_ENTITY_RENDER_FLAG: Wait while EventEntity->Render.Flags3 bit 2 is set (cancel turn if not)
 19: 0x021F [0x45] LOAD_SCHEDULED_TASK: Load scheduler "s002" with entities [LocalPlayer, LocalPlayer], work=[150*, 0*]
 20: 0x0230 [0x45] LOAD_SCHEDULED_TASK: Load scheduler "fdi1" with entities [LocalPlayer, LocalPlayer], work=[200*, 0*]
 21: 0x0241 [0x29] REQ_SET_WAIT(priority=0x0B, entity_id=Jakoh Wahcondalo (ID: 17801224/0x010FA008), tag_num=0x1B)
 22: 0x0248 [0x52] END_LOAD_SCHEDULER: End scheduler "s002" with entities [LocalPlayer, LocalPlayer], work=150*
 23: 0x0257 [0x02] IF !(Work_Zone[9] == 3*) GOTO 0x0273
 24: 0x025F [0x45] LOAD_SCHEDULED_TASK: Load scheduler "s007" with entities [LocalPlayer, LocalPlayer], work=[150*, 0*]
 25: 0x0270 [0x01] GOTO 0x02D8
 26: 0x0273 [0x02] IF !(Work_Zone[9] == 5*) GOTO 0x028F
 27: 0x027B [0x45] LOAD_SCHEDULED_TASK: Load scheduler "s005" with entities [LocalPlayer, LocalPlayer], work=[150*, 0*]
 28: 0x028C [0x01] GOTO 0x02D8
 29: 0x028F [0x02] IF !(Work_Zone[9] == 6*) GOTO 0x02AB
 30: 0x0297 [0x45] LOAD_SCHEDULED_TASK: Load scheduler "s005" with entities [LocalPlayer, LocalPlayer], work=[150*, 0*]
 31: 0x02A8 [0x01] GOTO 0x02D8
 32: 0x02AB [0x02] IF !(Work_Zone[9] == 8*) GOTO 0x02C7
 33: 0x02B3 [0x45] LOAD_SCHEDULED_TASK: Load scheduler "s007" with entities [LocalPlayer, LocalPlayer], work=[150*, 0*]
 34: 0x02C4 [0x01] GOTO 0x02D8
 35: 0x02C7 [0x45] LOAD_SCHEDULED_TASK: Load scheduler "s003" with entities [LocalPlayer, LocalPlayer], work=[150*, 0*]

SUBROUTINE_02D8:
 36: 0x02D8 [0x29] REQ_SET_WAIT(priority=0x08, entity_id=Jakoh Wahcondalo (ID: 17801224/0x010FA008), tag_num=0x0F)
 37: 0x02DF [0x1D] PRINT_EVENT_MESSAGE(message_id=9973*)
    → "Well, don't say I didn't warn you."
 38: 0x02E2 [0x23] WAIT_FOR_DIALOG_INTERACTION
 39: 0x02E3 [0x29] REQ_SET_WAIT(priority=0x08, entity_id=Jakoh Wahcondalo (ID: 17801224/0x010FA008), tag_num=0x10)
 40: 0x02EA [0x02] IF !(Work_Zone[9] == 3*) GOTO 0x0304
 41: 0x02F2 [0x52] END_LOAD_SCHEDULER: End scheduler "s007" with entities [LocalPlayer, LocalPlayer], work=150*
 42: 0x0301 [0x01] GOTO 0x0361
 43: 0x0304 [0x02] IF !(Work_Zone[9] == 5*) GOTO 0x031E
 44: 0x030C [0x52] END_LOAD_SCHEDULER: End scheduler "s005" with entities [LocalPlayer, LocalPlayer], work=150*
 45: 0x031B [0x01] GOTO 0x0361
 46: 0x031E [0x02] IF !(Work_Zone[9] == 6*) GOTO 0x0338
 47: 0x0326 [0x52] END_LOAD_SCHEDULER: End scheduler "s005" with entities [LocalPlayer, LocalPlayer], work=150*
 48: 0x0335 [0x01] GOTO 0x0361
 49: 0x0338 [0x02] IF !(Work_Zone[9] == 8*) GOTO 0x0352
 50: 0x0340 [0x52] END_LOAD_SCHEDULER: End scheduler "s007" with entities [LocalPlayer, LocalPlayer], work=150*
 51: 0x034F [0x01] GOTO 0x0361
 52: 0x0352 [0x52] END_LOAD_SCHEDULER: End scheduler "s003" with entities [LocalPlayer, LocalPlayer], work=150*

SUBROUTINE_0361:
 53: 0x0361 [0x02] IF !(Work_Zone[9] == 5*) GOTO 0x037D
 54: 0x0369 [0x45] LOAD_SCHEDULED_TASK: Load scheduler "s006" with entities [LocalPlayer, LocalPlayer], work=[150*, 0*]
 55: 0x037A [0x01] GOTO 0x03AA
 56: 0x037D [0x02] IF !(Work_Zone[9] == 6*) GOTO 0x0399
 57: 0x0385 [0x45] LOAD_SCHEDULED_TASK: Load scheduler "s006" with entities [LocalPlayer, LocalPlayer], work=[150*, 0*]
 58: 0x0396 [0x01] GOTO 0x03AA
 59: 0x0399 [0x45] LOAD_SCHEDULED_TASK: Load scheduler "s004" with entities [LocalPlayer, LocalPlayer], work=[150*, 0*]

SUBROUTINE_03AA:
 60: 0x03AA [0x29] REQ_SET_WAIT(priority=0x08, entity_id=Jakoh Wahcondalo (ID: 17801224/0x010FA008), tag_num=0x13)
 61: 0x03B1 [0x1D] PRINT_EVENT_MESSAGE(message_id=9974*)
    → "Here, take this key. It opens the door that leads to the deeper parrrts of the temple. Have fun! Hah-hah-hah!"
 62: 0x03B4 [0x23] WAIT_FOR_DIALOG_INTERACTION
 63: 0x03B5 [0x29] REQ_SET_WAIT(priority=0x08, entity_id=Jakoh Wahcondalo (ID: 17801224/0x010FA008), tag_num=0x14)
 64: 0x03BC [0x29] REQ_SET_WAIT(priority=0x08, entity_id=Jakoh Wahcondalo (ID: 17801224/0x010FA008), tag_num=0x11)
 65: 0x03C3 [0x45] LOAD_SCHEDULED_TASK: Load scheduler "fdo1" with entities [LocalPlayer, LocalPlayer], work=[200*, 0*]
 66: 0x03D4 [0x1C] WAIT(100* ticks)
 67: 0x03D7 [0x02] IF !(Work_Zone[9] == 5*) GOTO 0x03F1
 68: 0x03DF [0x52] END_LOAD_SCHEDULER: End scheduler "s006" with entities [LocalPlayer, LocalPlayer], work=150*
 69: 0x03EE [0x01] GOTO 0x041A
 70: 0x03F1 [0x02] IF !(Work_Zone[9] == 6*) GOTO 0x040B
 71: 0x03F9 [0x52] END_LOAD_SCHEDULER: End scheduler "s006" with entities [LocalPlayer, LocalPlayer], work=150*
 72: 0x0408 [0x01] GOTO 0x041A
 73: 0x040B [0x52] END_LOAD_SCHEDULER: End scheduler "s004" with entities [LocalPlayer, LocalPlayer], work=150*

SUBROUTINE_041A:
 74: 0x041A [0x29] REQ_SET_WAIT(priority=0x08, entity_id=Jakoh Wahcondalo (ID: 17801224/0x010FA008), tag_num=0x12)
 75: 0x0421 [0x46] CAMERA_CONTROL: Restore default settings
 76: 0x0423 [0x45] LOAD_SCHEDULED_TASK: Load scheduler "fdi1" with entities [LocalPlayer, LocalPlayer], work=[200*, 0*]
 77: 0x0434 [0x20] SET_CLI_EVENT_UC_FLAG: Unlock player control
 78: 0x0436 [0x21] END_EVENT
 79: 0x0437 [0x00] END_REQSTACK()
```

### Event 65535.24

#### Metadata

| Field        | Value    |
|--------------|----------|
| Entrypoint   | 0x0438   |
| Data Size    | 23 bytes |
| Instructions | 7        |

```
      00 01 02 03 04 05 06 07  08 09 0A 0B 0C 0D 0E 0F
      -- -- -- -- -- -- -- --  -- -- -- -- -- -- -- --
0430:                          29 08 08 A0 0F 01 0B 1D          ).......
0440: 12 80 23 29 08 08 A0 0F  01 0C 1D 13 80 23 00     ..#).........#. 
```

#### Opcodes

```
  0: 0x0438 [0x29] REQ_SET_WAIT(priority=0x08, entity_id=Jakoh Wahcondalo (ID: 17801224/0x010FA008), tag_num=0x0B)
  1: 0x043F [0x1D] PRINT_EVENT_MESSAGE(message_id=9971*)
    → "Hah-hah-hah! So Gilgamesh is asking me to let you pass through to the Temple of Uggalepih, is he? That old dog hasn't changed a bit."
  2: 0x0442 [0x23] WAIT_FOR_DIALOG_INTERACTION
  3: 0x0443 [0x29] REQ_SET_WAIT(priority=0x08, entity_id=Jakoh Wahcondalo (ID: 17801224/0x010FA008), tag_num=0x0C)
  4: 0x044A [0x1D] PRINT_EVENT_MESSAGE(message_id=9972*)
    → "Have you never hearrrd the tales of Uggalepih? Do you even know what you'll be getting yourself into?"
  5: 0x044D [0x23] WAIT_FOR_DIALOG_INTERACTION
  6: 0x044E [0x00] END_REQSTACK()
```

### Event 115

#### Metadata

| Field        | Value    |
|--------------|----------|
| Entrypoint   | 0x044F   |
| Data Size    | 43 bytes |
| Instructions | 12       |

```
      00 01 02 03 04 05 06 07  08 09 0A 0B 0C 0D 0E 0F
      -- -- -- -- -- -- -- --  -- -- -- -- -- -- -- --
0440:                                               1E                 .
0450: F0 FF FF 7F 6F 70 29 08  08 A0 0F 01 01 1D 14 80  ....op).........
0460: 23 29 08 08 A0 0F 01 01  29 08 08 A0 0F 01 03 29  #)......)......)
0470: 08 08 A0 0F 01 04 20 00  21 00                    ...... .!.      
```

#### Opcodes

```
  0: 0x044F [0x1E] EventEntity looks at LocalPlayer and starts talking
  1: 0x0454 [0x6F] WAIT_FRAME_DELAY: Yield until WaitTime reaches zero
  2: 0x0455 [0x70] WAIT_ENTITY_RENDER_FLAG: Wait while EventEntity->Render.Flags3 bit 2 is set (cancel turn if not)
  3: 0x0456 [0x29] REQ_SET_WAIT(priority=0x08, entity_id=Jakoh Wahcondalo (ID: 17801224/0x010FA008), tag_num=0x01)
  4: 0x045D [0x1D] PRINT_EVENT_MESSAGE(message_id=9975*)
    → "You don't know the way to the temple? It's just to the southeast of here. But that's all the help I can give you. I'm not rrrisking my, or any of my guards', tails."
  5: 0x0460 [0x23] WAIT_FOR_DIALOG_INTERACTION
  6: 0x0461 [0x29] REQ_SET_WAIT(priority=0x08, entity_id=Jakoh Wahcondalo (ID: 17801224/0x010FA008), tag_num=0x01)
  7: 0x0468 [0x29] REQ_SET_WAIT(priority=0x08, entity_id=Jakoh Wahcondalo (ID: 17801224/0x010FA008), tag_num=0x03)
  8: 0x046F [0x29] REQ_SET_WAIT(priority=0x08, entity_id=Jakoh Wahcondalo (ID: 17801224/0x010FA008), tag_num=0x04)
  9: 0x0476 [0x20] SET_CLI_EVENT_UC_FLAG: Unlock player control
 10: 0x0478 [0x21] END_EVENT
 11: 0x0479 [0x00] END_REQSTACK()
```

### Event 44

#### Metadata

| Field        | Value   |
|--------------|---------|
| Entrypoint   | 0x047A  |
| Data Size    | 1 bytes |
| Instructions | 1       |

```
      00 01 02 03 04 05 06 07  08 09 0A 0B 0C 0D 0E 0F
      -- -- -- -- -- -- -- --  -- -- -- -- -- -- -- --
0470:                                00                           .     
```

#### Opcodes

```
  0: 0x047A [0x00] END_REQSTACK()
```

### Event 65535.25

#### Metadata

| Field        | Value    |
|--------------|----------|
| Entrypoint   | 0x047B   |
| Data Size    | 10 bytes |
| Instructions | 2        |

```
      00 01 02 03 04 05 06 07  08 09 0A 0B 0C 0D 0E 0F
      -- -- -- -- -- -- -- --  -- -- -- -- -- -- -- --
0470:                                   37 15 80 16 80             7....
0480: 17 80 18 80 00                                    .....           
```

#### Opcodes

```
  0: 0x047B [0x37] UPDATE_EVENT_POSITION_AND_DIR: x=98.650*, z=-113.152*, y=-15.000*, direction=200.6°*
  1: 0x0484 [0x00] END_REQSTACK()
```

### Event 65535.26

#### Metadata

| Field        | Value    |
|--------------|----------|
| Entrypoint   | 0x0485   |
| Data Size    | 14 bytes |
| Instructions | 4        |

```
      00 01 02 03 04 05 06 07  08 09 0A 0B 0C 0D 0E 0F
      -- -- -- -- -- -- -- --  -- -- -- -- -- -- -- --
0480:                32 19 80  1F 00 1A 80 1B 80 1C 80       2..........
0490: 1F 01 00                                          ...             
```

#### Opcodes

```
  0: 0x0485 [0x32] ExtData[1]->MainSpeed = 13* * 0.1
  1: 0x0488 [0x1F] MOVE_ENTITY: EventEntity moves to X=96.662*, Z=-112.926*, Y=-15.023*
  2: 0x0490 [0x1F] MOVE_ENTITY: Update entity position (mode=1)
  3: 0x0492 [0x00] END_REQSTACK()
```

### Event 65535.27

#### Metadata

| Field        | Value    |
|--------------|----------|
| Entrypoint   | 0x0493   |
| Data Size    | 24 bytes |
| Instructions | 6        |

```
      00 01 02 03 04 05 06 07  08 09 0A 0B 0C 0D 0E 0F
      -- -- -- -- -- -- -- --  -- -- -- -- -- -- -- --
0490:          32 19 80 1F 00  1D 80 1E 80 17 80 1F 01     2............
04A0: 1F 00 15 80 16 80 17 80  1F 01 00                 ...........     
```

#### Opcodes

```
  0: 0x0493 [0x32] ExtData[1]->MainSpeed = 13* * 0.1
  1: 0x0496 [0x1F] MOVE_ENTITY: EventEntity moves to X=100.872*, Z=-113.333*, Y=-15.000*
  2: 0x049E [0x1F] MOVE_ENTITY: Update entity position (mode=1)
  3: 0x04A0 [0x1F] MOVE_ENTITY: EventEntity moves to X=98.650*, Z=-113.152*, Y=-15.000*
  4: 0x04A8 [0x1F] MOVE_ENTITY: Update entity position (mode=1)
  5: 0x04AA [0x00] END_REQSTACK()
```

### Event 65535.28

#### Metadata

| Field        | Value    |
|--------------|----------|
| Entrypoint   | 0x04AB   |
| Data Size    | 34 bytes |
| Instructions | 8        |

```
      00 01 02 03 04 05 06 07  08 09 0A 0B 0C 0D 0E 0F
      -- -- -- -- -- -- -- --  -- -- -- -- -- -- -- --
04A0:                                   32 19 80 1F 00             2....
04B0: 1D 80 1E 80 17 80 1F 01  1F 00 15 80 16 80 17 80  ................
04C0: 1F 01 1F 00 1A 80 1B 80  1C 80 1F 01 00           .............   
```

#### Opcodes

```
  0: 0x04AB [0x32] ExtData[1]->MainSpeed = 13* * 0.1
  1: 0x04AE [0x1F] MOVE_ENTITY: EventEntity moves to X=100.872*, Z=-113.333*, Y=-15.000*
  2: 0x04B6 [0x1F] MOVE_ENTITY: Update entity position (mode=1)
  3: 0x04B8 [0x1F] MOVE_ENTITY: EventEntity moves to X=98.650*, Z=-113.152*, Y=-15.000*
  4: 0x04C0 [0x1F] MOVE_ENTITY: Update entity position (mode=1)
  5: 0x04C2 [0x1F] MOVE_ENTITY: EventEntity moves to X=96.662*, Z=-112.926*, Y=-15.023*
  6: 0x04CA [0x1F] MOVE_ENTITY: Update entity position (mode=1)
  7: 0x04CC [0x00] END_REQSTACK()
```

### Event 46

#### Metadata

| Field        | Value    |
|--------------|----------|
| Entrypoint   | 0x04CD   |
| Data Size    | 47 bytes |
| Instructions | 14       |

```
      00 01 02 03 04 05 06 07  08 09 0A 0B 0C 0D 0E 0F
      -- -- -- -- -- -- -- --  -- -- -- -- -- -- -- --
04C0:                                         1E F0 FF               ...
04D0: FF 7F 6F 70 29 08 08 A0  0F 01 01 1D 1F 80 23 29  ..op).........#)
04E0: 08 08 A0 0F 01 02 29 08  08 A0 0F 01 03 1D 20 80  ......)....... .
04F0: 23 29 08 08 A0 0F 01 04  20 00 21 00              #)...... .!.    
```

#### Opcodes

```
  0: 0x04CD [0x1E] EventEntity looks at LocalPlayer and starts talking
  1: 0x04D2 [0x6F] WAIT_FRAME_DELAY: Yield until WaitTime reaches zero
  2: 0x04D3 [0x70] WAIT_ENTITY_RENDER_FLAG: Wait while EventEntity->Render.Flags3 bit 2 is set (cancel turn if not)
  3: 0x04D4 [0x29] REQ_SET_WAIT(priority=0x08, entity_id=Jakoh Wahcondalo (ID: 17801224/0x010FA008), tag_num=0x01)
  4: 0x04DB [0x1D] PRINT_EVENT_MESSAGE(message_id=10109*)
    → "And tell this Angelica that the Temple of Uggalepih is no place for her fancy mainland modern art."
  5: 0x04DE [0x23] WAIT_FOR_DIALOG_INTERACTION
  6: 0x04DF [0x29] REQ_SET_WAIT(priority=0x08, entity_id=Jakoh Wahcondalo (ID: 17801224/0x010FA008), tag_num=0x02)
  7: 0x04E6 [0x29] REQ_SET_WAIT(priority=0x08, entity_id=Jakoh Wahcondalo (ID: 17801224/0x010FA008), tag_num=0x03)
  8: 0x04ED [0x1D] PRINT_EVENT_MESSAGE(message_id=10110*)
    → "Not that I expect her to listen..."
  9: 0x04F0 [0x23] WAIT_FOR_DIALOG_INTERACTION
 10: 0x04F1 [0x29] REQ_SET_WAIT(priority=0x08, entity_id=Jakoh Wahcondalo (ID: 17801224/0x010FA008), tag_num=0x04)
 11: 0x04F8 [0x20] SET_CLI_EVENT_UC_FLAG: Unlock player control
 12: 0x04FA [0x21] END_EVENT
 13: 0x04FB [0x00] END_REQSTACK()
```

### Event 47

#### Metadata

| Field        | Value   |
|--------------|---------|
| Entrypoint   | 0x04FC  |
| Data Size    | 1 bytes |
| Instructions | 1       |

```
      00 01 02 03 04 05 06 07  08 09 0A 0B 0C 0D 0E 0F
      -- -- -- -- -- -- -- --  -- -- -- -- -- -- -- --
04F0:                                      00                       .   
```

#### Opcodes

```
  0: 0x04FC [0x00] END_REQSTACK()
```

### Event 65535.29

#### Metadata

| Field        | Value   |
|--------------|---------|
| Entrypoint   | 0x04FD  |
| Data Size    | 5 bytes |
| Instructions | 3       |

```
      00 01 02 03 04 05 06 07  08 09 0A 0B 0C 0D 0E 0F
      -- -- -- -- -- -- -- --  -- -- -- -- -- -- -- --
04F0:                                         1D 21 80               .!.
0500: 23 00                                             #.              
```

#### Opcodes

```
  0: 0x04FD [0x1D] PRINT_EVENT_MESSAGE(message_id=10115*)
    → "That letter doesn't look like it was addressed to you... Unless you've changed yourrr name to Jakoh."
  1: 0x0500 [0x23] WAIT_FOR_DIALOG_INTERACTION
  2: 0x0501 [0x00] END_REQSTACK()
```

### Event 65535.30

#### Metadata

| Field        | Value   |
|--------------|---------|
| Entrypoint   | 0x0502  |
| Data Size    | 5 bytes |
| Instructions | 3       |

```
      00 01 02 03 04 05 06 07  08 09 0A 0B 0C 0D 0E 0F
      -- -- -- -- -- -- -- --  -- -- -- -- -- -- -- --
0500:       1D 22 80 23 00                                .".#.         
```

#### Opcodes

```
  0: 0x0502 [0x1D] PRINT_EVENT_MESSAGE(message_id=10116*)
    → "<Hiss> I neverrr gave you perrrmission to rrread my letterrrs! Get over herrre!"
  1: 0x0505 [0x23] WAIT_FOR_DIALOG_INTERACTION
  2: 0x0506 [0x00] END_REQSTACK()
```

### Event 65535.31

#### Metadata

| Field        | Value   |
|--------------|---------|
| Entrypoint   | 0x0507  |
| Data Size    | 5 bytes |
| Instructions | 3       |

```
      00 01 02 03 04 05 06 07  08 09 0A 0B 0C 0D 0E 0F
      -- -- -- -- -- -- -- --  -- -- -- -- -- -- -- --
0500:                      1D  23 80 23 00                     .#.#.    
```

#### Opcodes

```
  0: 0x0507 [0x1D] PRINT_EVENT_MESSAGE(message_id=10118*)
    → "So, even after all we have told her of the dangerrrs of Uggalepih, she still wants to go through with her plan..."
  1: 0x050A [0x23] WAIT_FOR_DIALOG_INTERACTION
  2: 0x050B [0x00] END_REQSTACK()
```

### Event 65535.32

#### Metadata

| Field        | Value   |
|--------------|---------|
| Entrypoint   | 0x050C  |
| Data Size    | 5 bytes |
| Instructions | 3       |

```
      00 01 02 03 04 05 06 07  08 09 0A 0B 0C 0D 0E 0F
      -- -- -- -- -- -- -- --  -- -- -- -- -- -- -- --
0500:                                      1D 24 80 23              .$.#
0510: 00                                                .               
```

#### Opcodes

```
  0: 0x050C [0x1D] PRINT_EVENT_MESSAGE(message_id=10119*)
    → "Well, I am not going to spend my time worrying over crazy mainlanders' outrageous schemes."
  1: 0x050F [0x23] WAIT_FOR_DIALOG_INTERACTION
  2: 0x0510 [0x00] END_REQSTACK()
```

### Event 65535.33

#### Metadata

| Field        | Value   |
|--------------|---------|
| Entrypoint   | 0x0511  |
| Data Size    | 5 bytes |
| Instructions | 3       |

```
      00 01 02 03 04 05 06 07  08 09 0A 0B 0C 0D 0E 0F
      -- -- -- -- -- -- -- --  -- -- -- -- -- -- -- --
0510:    1D 25 80 23 00                                  .%.#.          
```

#### Opcodes

```
  0: 0x0511 [0x1D] PRINT_EVENT_MESSAGE(message_id=10120*)
    → "You've brought her painting from the mainlands, haven't you? Well, you're free to hang it in the temple, but don't expect any of my women to run in there and save you when you get into trrrouble."
  1: 0x0514 [0x23] WAIT_FOR_DIALOG_INTERACTION
  2: 0x0515 [0x00] END_REQSTACK()
```

### Event 65535.34

#### Metadata

| Field        | Value   |
|--------------|---------|
| Entrypoint   | 0x0516  |
| Data Size    | 5 bytes |
| Instructions | 3       |

```
      00 01 02 03 04 05 06 07  08 09 0A 0B 0C 0D 0E 0F
      -- -- -- -- -- -- -- --  -- -- -- -- -- -- -- --
0510:                   1D 26  80 23 00                       .&.#.     
```

#### Opcodes

```
  0: 0x0516 [0x1D] PRINT_EVENT_MESSAGE(message_id=10122*)
    → "Now off with you!"
  1: 0x0519 [0x23] WAIT_FOR_DIALOG_INTERACTION
  2: 0x051A [0x00] END_REQSTACK()
```

### Event 48

#### Metadata

| Field        | Value    |
|--------------|----------|
| Entrypoint   | 0x051B   |
| Data Size    | 47 bytes |
| Instructions | 14       |

```
      00 01 02 03 04 05 06 07  08 09 0A 0B 0C 0D 0E 0F
      -- -- -- -- -- -- -- --  -- -- -- -- -- -- -- --
0510:                                   1E F0 FF FF 7F             .....
0520: 6F 70 29 08 08 A0 0F 01  01 1D 27 80 23 29 08 08  op).......'.#)..
0530: A0 0F 01 02 29 08 08 A0  0F 01 03 1D 28 80 23 29  ....).......(.#)
0540: 08 08 A0 0F 01 04 20 00  21 00                    ...... .!.      
```

#### Opcodes

```
  0: 0x051B [0x1E] EventEntity looks at LocalPlayer and starts talking
  1: 0x0520 [0x6F] WAIT_FRAME_DELAY: Yield until WaitTime reaches zero
  2: 0x0521 [0x70] WAIT_ENTITY_RENDER_FLAG: Wait while EventEntity->Render.Flags3 bit 2 is set (cancel turn if not)
  3: 0x0522 [0x29] REQ_SET_WAIT(priority=0x08, entity_id=Jakoh Wahcondalo (ID: 17801224/0x010FA008), tag_num=0x01)
  4: 0x0529 [0x1D] PRINT_EVENT_MESSAGE(message_id=10123*)
    → "You're on this boat for the long haul, [mister/missy]. You jump off now, you'll be taking down someone's dreams with you."
  5: 0x052C [0x23] WAIT_FOR_DIALOG_INTERACTION
  6: 0x052D [0x29] REQ_SET_WAIT(priority=0x08, entity_id=Jakoh Wahcondalo (ID: 17801224/0x010FA008), tag_num=0x02)
  7: 0x0534 [0x29] REQ_SET_WAIT(priority=0x08, entity_id=Jakoh Wahcondalo (ID: 17801224/0x010FA008), tag_num=0x03)
  8: 0x053B [0x1D] PRINT_EVENT_MESSAGE(message_id=10124*)
    → "But, you stay on too long, and you might sink anyway..."
  9: 0x053E [0x23] WAIT_FOR_DIALOG_INTERACTION
 10: 0x053F [0x29] REQ_SET_WAIT(priority=0x08, entity_id=Jakoh Wahcondalo (ID: 17801224/0x010FA008), tag_num=0x04)
 11: 0x0546 [0x20] SET_CLI_EVENT_UC_FLAG: Unlock player control
 12: 0x0548 [0x21] END_EVENT
 13: 0x0549 [0x00] END_REQSTACK()
```

### Event 50

#### Metadata

| Field        | Value   |
|--------------|---------|
| Entrypoint   | 0x054A  |
| Data Size    | 1 bytes |
| Instructions | 1       |

```
      00 01 02 03 04 05 06 07  08 09 0A 0B 0C 0D 0E 0F
      -- -- -- -- -- -- -- --  -- -- -- -- -- -- -- --
0540:                                00                           .     
```

#### Opcodes

```
  0: 0x054A [0x00] END_REQSTACK()
```

### Event 65535.35

#### Metadata

| Field        | Value   |
|--------------|---------|
| Entrypoint   | 0x054B  |
| Data Size    | 5 bytes |
| Instructions | 3       |

```
      00 01 02 03 04 05 06 07  08 09 0A 0B 0C 0D 0E 0F
      -- -- -- -- -- -- -- --  -- -- -- -- -- -- -- --
0540:                                   1D 29 80 23 00             .).#.
```

#### Opcodes

```
  0: 0x054B [0x1D] PRINT_EVENT_MESSAGE(message_id=10128*)
    → "Interrresting... Tell me more."
  1: 0x054E [0x23] WAIT_FOR_DIALOG_INTERACTION
  2: 0x054F [0x00] END_REQSTACK()
```

### Event 65535.36

#### Metadata

| Field        | Value   |
|--------------|---------|
| Entrypoint   | 0x0550  |
| Data Size    | 5 bytes |
| Instructions | 3       |

```
      00 01 02 03 04 05 06 07  08 09 0A 0B 0C 0D 0E 0F
      -- -- -- -- -- -- -- --  -- -- -- -- -- -- -- --
0550: 1D 2A 80 23 00                                    .*.#.           
```

#### Opcodes

```
  0: 0x0550 [0x1D] PRINT_EVENT_MESSAGE(message_id=10129*)
    → "... Long, long ago, an ancient race, now extinct, lived in that temple."
  1: 0x0553 [0x23] WAIT_FOR_DIALOG_INTERACTION
  2: 0x0554 [0x00] END_REQSTACK()
```

### Event 65535.37

#### Metadata

| Field        | Value   |
|--------------|---------|
| Entrypoint   | 0x0555  |
| Data Size    | 5 bytes |
| Instructions | 3       |

```
      00 01 02 03 04 05 06 07  08 09 0A 0B 0C 0D 0E 0F
      -- -- -- -- -- -- -- --  -- -- -- -- -- -- -- --
0550:                1D 2B 80  23 00                         .+.#.      
```

#### Opcodes

```
  0: 0x0555 [0x1D] PRINT_EVENT_MESSAGE(message_id=10131*)
    → "I will try explaining this to her in another letter, but I doubt she will listen..."
  1: 0x0558 [0x23] WAIT_FOR_DIALOG_INTERACTION
  2: 0x0559 [0x00] END_REQSTACK()
```

### Event 65535.38

#### Metadata

| Field        | Value   |
|--------------|---------|
| Entrypoint   | 0x055A  |
| Data Size    | 5 bytes |
| Instructions | 3       |

```
      00 01 02 03 04 05 06 07  08 09 0A 0B 0C 0D 0E 0F
      -- -- -- -- -- -- -- --  -- -- -- -- -- -- -- --
0550:                                1D 2C 80 23 00               .,.#. 
```

#### Opcodes

```
  0: 0x055A [0x1D] PRINT_EVENT_MESSAGE(message_id=10132*)
    → "Oh, and take this. It might have been useless work, but work is work."
  1: 0x055D [0x23] WAIT_FOR_DIALOG_INTERACTION
  2: 0x055E [0x00] END_REQSTACK()
```

### Event 52

#### Metadata

| Field        | Value    |
|--------------|----------|
| Entrypoint   | 0x055F   |
| Data Size    | 47 bytes |
| Instructions | 14       |

```
      00 01 02 03 04 05 06 07  08 09 0A 0B 0C 0D 0E 0F
      -- -- -- -- -- -- -- --  -- -- -- -- -- -- -- --
0550:                                               1E                 .
0560: F0 FF FF 7F 6F 70 29 08  08 A0 0F 01 01 1D 2D 80  ....op).......-.
0570: 23 29 08 08 A0 0F 01 02  29 08 08 A0 0F 01 03 1D  #)......).......
0580: 2E 80 23 29 08 08 A0 0F  01 04 20 00 21 00        ..#)...... .!.  
```

#### Opcodes

```
  0: 0x055F [0x1E] EventEntity looks at LocalPlayer and starts talking
  1: 0x0564 [0x6F] WAIT_FRAME_DELAY: Yield until WaitTime reaches zero
  2: 0x0565 [0x70] WAIT_ENTITY_RENDER_FLAG: Wait while EventEntity->Render.Flags3 bit 2 is set (cancel turn if not)
  3: 0x0566 [0x29] REQ_SET_WAIT(priority=0x08, entity_id=Jakoh Wahcondalo (ID: 17801224/0x010FA008), tag_num=0x01)
  4: 0x056D [0x1D] PRINT_EVENT_MESSAGE(message_id=10135*)
    → "I will try explaining to Angelica what happened this time in a letter, but I doubt she will listen..."
  5: 0x0570 [0x23] WAIT_FOR_DIALOG_INTERACTION
  6: 0x0571 [0x29] REQ_SET_WAIT(priority=0x08, entity_id=Jakoh Wahcondalo (ID: 17801224/0x010FA008), tag_num=0x02)
  7: 0x0578 [0x29] REQ_SET_WAIT(priority=0x08, entity_id=Jakoh Wahcondalo (ID: 17801224/0x010FA008), tag_num=0x03)
  8: 0x057F [0x1D] PRINT_EVENT_MESSAGE(message_id=10136*)
    → "I would ask you to do it, but after what happened to her painting, I don't think it would be a very good idea if you showed up at her door."
  9: 0x0582 [0x23] WAIT_FOR_DIALOG_INTERACTION
 10: 0x0583 [0x29] REQ_SET_WAIT(priority=0x08, entity_id=Jakoh Wahcondalo (ID: 17801224/0x010FA008), tag_num=0x04)
 11: 0x058A [0x20] SET_CLI_EVENT_UC_FLAG: Unlock player control
 12: 0x058C [0x21] END_EVENT
 13: 0x058D [0x00] END_REQSTACK()
```

### Event 53

#### Metadata

| Field        | Value   |
|--------------|---------|
| Entrypoint   | 0x058E  |
| Data Size    | 1 bytes |
| Instructions | 1       |

```
      00 01 02 03 04 05 06 07  08 09 0A 0B 0C 0D 0E 0F
      -- -- -- -- -- -- -- --  -- -- -- -- -- -- -- --
0580:                                            00                   . 
```

#### Opcodes

```
  0: 0x058E [0x00] END_REQSTACK()
```

### Event 65535.39

#### Metadata

| Field        | Value   |
|--------------|---------|
| Entrypoint   | 0x058F  |
| Data Size    | 5 bytes |
| Instructions | 3       |

```
      00 01 02 03 04 05 06 07  08 09 0A 0B 0C 0D 0E 0F
      -- -- -- -- -- -- -- --  -- -- -- -- -- -- -- --
0580:                                               1D                 .
0590: 2F 80 23 00                                       /.#.            
```

#### Opcodes

```
  0: 0x058F [0x1D] PRINT_EVENT_MESSAGE(message_id=10142*)
    → "As I expected... Mainlanders neverrr listen to reason. So, can I count on you to take this painting to the gallery?"
  1: 0x0592 [0x23] WAIT_FOR_DIALOG_INTERACTION
  2: 0x0593 [0x00] END_REQSTACK()
```

### Event 65535.40

#### Metadata

| Field        | Value   |
|--------------|---------|
| Entrypoint   | 0x0594  |
| Data Size    | 5 bytes |
| Instructions | 3       |

```
      00 01 02 03 04 05 06 07  08 09 0A 0B 0C 0D 0E 0F
      -- -- -- -- -- -- -- --  -- -- -- -- -- -- -- --
0590:             1D 30 80 23  00                           .0.#.       
```

#### Opcodes

```
  0: 0x0594 [0x1D] PRINT_EVENT_MESSAGE(message_id=10144*)
    → "I see... I guess I'll have to find someone a little less busy. Etteh Sulaej! Send a messengerrr to the adventurerrr's inn!"
  1: 0x0597 [0x23] WAIT_FOR_DIALOG_INTERACTION
  2: 0x0598 [0x00] END_REQSTACK()
```

### Event 65535.41

#### Metadata

| Field        | Value   |
|--------------|---------|
| Entrypoint   | 0x0599  |
| Data Size    | 5 bytes |
| Instructions | 3       |

```
      00 01 02 03 04 05 06 07  08 09 0A 0B 0C 0D 0E 0F
      -- -- -- -- -- -- -- --  -- -- -- -- -- -- -- --
0590:                             1D 31 80 23 00                 .1.#.  
```

#### Opcodes

```
  0: 0x0599 [0x1D] PRINT_EVENT_MESSAGE(message_id=10146*)
    → "A glutton for punishment, I see. Take this painting to the gallery. I hope Angelica's painting is better received this time around."
  1: 0x059C [0x23] WAIT_FOR_DIALOG_INTERACTION
  2: 0x059D [0x00] END_REQSTACK()
```

### Event 54

#### Metadata

| Field        | Value   |
|--------------|---------|
| Entrypoint   | 0x059E  |
| Data Size    | 1 bytes |
| Instructions | 1       |

```
      00 01 02 03 04 05 06 07  08 09 0A 0B 0C 0D 0E 0F
      -- -- -- -- -- -- -- --  -- -- -- -- -- -- -- --
0590:                                            00                   . 
```

#### Opcodes

```
  0: 0x059E [0x00] END_REQSTACK()
```

### Event 56

#### Metadata

| Field        | Value    |
|--------------|----------|
| Entrypoint   | 0x059F   |
| Data Size    | 47 bytes |
| Instructions | 14       |

```
      00 01 02 03 04 05 06 07  08 09 0A 0B 0C 0D 0E 0F
      -- -- -- -- -- -- -- --  -- -- -- -- -- -- -- --
0590:                                               1E                 .
05A0: F0 FF FF 7F 6F 70 29 08  08 A0 0F 01 01 1D 32 80  ....op).......2.
05B0: 23 29 08 08 A0 0F 01 02  29 08 08 A0 0F 01 03 1D  #)......).......
05C0: 33 80 23 29 08 08 A0 0F  01 04 20 00 21 00        3.#)...... .!.  
```

#### Opcodes

```
  0: 0x059F [0x1E] EventEntity looks at LocalPlayer and starts talking
  1: 0x05A4 [0x6F] WAIT_FRAME_DELAY: Yield until WaitTime reaches zero
  2: 0x05A5 [0x70] WAIT_ENTITY_RENDER_FLAG: Wait while EventEntity->Render.Flags3 bit 2 is set (cancel turn if not)
  3: 0x05A6 [0x29] REQ_SET_WAIT(priority=0x08, entity_id=Jakoh Wahcondalo (ID: 17801224/0x010FA008), tag_num=0x01)
  4: 0x05AD [0x1D] PRINT_EVENT_MESSAGE(message_id=10150*)
    → "Strange voices...evil spirits... Many mysteries still lurk behind the walls of that ancient temple."
  5: 0x05B0 [0x23] WAIT_FOR_DIALOG_INTERACTION
  6: 0x05B1 [0x29] REQ_SET_WAIT(priority=0x08, entity_id=Jakoh Wahcondalo (ID: 17801224/0x010FA008), tag_num=0x02)
  7: 0x05B8 [0x29] REQ_SET_WAIT(priority=0x08, entity_id=Jakoh Wahcondalo (ID: 17801224/0x010FA008), tag_num=0x03)
  8: 0x05BF [0x1D] PRINT_EVENT_MESSAGE(message_id=10151*)
    → "What arrre you mainlanders thinking?"
  9: 0x05C2 [0x23] WAIT_FOR_DIALOG_INTERACTION
 10: 0x05C3 [0x29] REQ_SET_WAIT(priority=0x08, entity_id=Jakoh Wahcondalo (ID: 17801224/0x010FA008), tag_num=0x04)
 11: 0x05CA [0x20] SET_CLI_EVENT_UC_FLAG: Unlock player control
 12: 0x05CC [0x21] END_EVENT
 13: 0x05CD [0x00] END_REQSTACK()
```

### Event 57

#### Metadata

| Field        | Value   |
|--------------|---------|
| Entrypoint   | 0x05CE  |
| Data Size    | 1 bytes |
| Instructions | 1       |

```
      00 01 02 03 04 05 06 07  08 09 0A 0B 0C 0D 0E 0F
      -- -- -- -- -- -- -- --  -- -- -- -- -- -- -- --
05C0:                                            00                   . 
```

#### Opcodes

```
  0: 0x05CE [0x00] END_REQSTACK()
```

### Event 65535.42

#### Metadata

| Field        | Value   |
|--------------|---------|
| Entrypoint   | 0x05CF  |
| Data Size    | 5 bytes |
| Instructions | 3       |

```
      00 01 02 03 04 05 06 07  08 09 0A 0B 0C 0D 0E 0F
      -- -- -- -- -- -- -- --  -- -- -- -- -- -- -- --
05C0:                                               1D                 .
05D0: 34 80 23 00                                       4.#.            
```

#### Opcodes

```
  0: 0x05CF [0x1D] PRINT_EVENT_MESSAGE(message_id=10153*)
    → "Hah-hah! It looks like the spirit wasn't moved by Angelica's latest work, eitherrr."
  1: 0x05D2 [0x23] WAIT_FOR_DIALOG_INTERACTION
  2: 0x05D3 [0x00] END_REQSTACK()
```

### Event 107

#### Metadata

| Field        | Value     |
|--------------|-----------|
| Entrypoint   | 0x05D4    |
| Data Size    | 125 bytes |
| Instructions | 26        |

```
      00 01 02 03 04 05 06 07  08 09 0A 0B 0C 0D 0E 0F
      -- -- -- -- -- -- -- --  -- -- -- -- -- -- -- --
05D0:             1E F0 FF FF  7F 6F 70 29 08 08 A0 0F      .....op)....
05E0: 01 0D 29 0B 08 A0 0F 01  3A 29 08 08 A0 0F 01 0E  ..).....:)......
05F0: 29 0B 08 A0 0F 01 3B 24  35 80 07 80 07 80 25 02  ).....;$5.....%.
0600: 00 10 07 80 00 0F 06 03  01 10 36 80 01 23 06 02  ..........6..#..
0610: 00 10 36 80 00 23 06 03  01 10 37 80 1D 38 80 23  ..6..#....7..8.#
0620: 01 23 06 29 08 08 A0 0F  01 01 29 0B 08 A0 0F 01  .#.)......).....
0630: 3C 29 08 08 A0 0F 01 02  29 08 08 A0 0F 01 03 29  <)......)......)
0640: 0B 08 A0 0F 01 3D 29 08  08 A0 0F 01 04 20 00 21  .....=)...... .!
0650: 00                                                .               
```

#### Opcodes

```
  0: 0x05D4 [0x1E] EventEntity looks at LocalPlayer and starts talking
  1: 0x05D9 [0x6F] WAIT_FRAME_DELAY: Yield until WaitTime reaches zero
  2: 0x05DA [0x70] WAIT_ENTITY_RENDER_FLAG: Wait while EventEntity->Render.Flags3 bit 2 is set (cancel turn if not)
  3: 0x05DB [0x29] REQ_SET_WAIT(priority=0x08, entity_id=Jakoh Wahcondalo (ID: 17801224/0x010FA008), tag_num=0x0D)
  4: 0x05E2 [0x29] REQ_SET_WAIT(priority=0x0B, entity_id=Jakoh Wahcondalo (ID: 17801224/0x010FA008), tag_num=0x3A)
  5: 0x05E9 [0x29] REQ_SET_WAIT(priority=0x08, entity_id=Jakoh Wahcondalo (ID: 17801224/0x010FA008), tag_num=0x0E)
  6: 0x05F0 [0x29] REQ_SET_WAIT(priority=0x0B, entity_id=Jakoh Wahcondalo (ID: 17801224/0x010FA008), tag_num=0x3B)
  7: 0x05F7 [0x24] CREATE_DIALOG(message_id=10156*, default_option=0*, option_flags=0*)
    → "How could you!? [I'm sorry.../I didn't do anything...]"
  8: 0x05FE [0x25] WAIT_DIALOG_SELECT()
  9: 0x05FF [0x02] IF !(Work_Zone[0] == 0*) GOTO 0x060F
 10: 0x0607 [0x03] Work_Zone[1] = 1*
 11: 0x060C [0x01] GOTO 0x0623
 12: 0x060F [0x02] IF !(Work_Zone[0] == 1*) GOTO 0x0623
 13: 0x0617 [0x03] Work_Zone[1] = 2*
 14: 0x061C [0x1D] PRINT_EVENT_MESSAGE(message_id=10157*)
    → "Liar!"
 15: 0x061F [0x23] WAIT_FOR_DIALOG_INTERACTION
 16: 0x0620 [0x01] GOTO 0x0623

SUBROUTINE_0623:
 17: 0x0623 [0x29] REQ_SET_WAIT(priority=0x08, entity_id=Jakoh Wahcondalo (ID: 17801224/0x010FA008), tag_num=0x01)
 18: 0x062A [0x29] REQ_SET_WAIT(priority=0x0B, entity_id=Jakoh Wahcondalo (ID: 17801224/0x010FA008), tag_num=0x3C)
 19: 0x0631 [0x29] REQ_SET_WAIT(priority=0x08, entity_id=Jakoh Wahcondalo (ID: 17801224/0x010FA008), tag_num=0x02)
 20: 0x0638 [0x29] REQ_SET_WAIT(priority=0x08, entity_id=Jakoh Wahcondalo (ID: 17801224/0x010FA008), tag_num=0x03)
 21: 0x063F [0x29] REQ_SET_WAIT(priority=0x0B, entity_id=Jakoh Wahcondalo (ID: 17801224/0x010FA008), tag_num=0x3D)
 22: 0x0646 [0x29] REQ_SET_WAIT(priority=0x08, entity_id=Jakoh Wahcondalo (ID: 17801224/0x010FA008), tag_num=0x04)
 23: 0x064D [0x20] SET_CLI_EVENT_UC_FLAG: Unlock player control
 24: 0x064F [0x21] END_EVENT
 25: 0x0650 [0x00] END_REQSTACK()
```

### Event 65535.43

#### Metadata

| Field        | Value   |
|--------------|---------|
| Entrypoint   | 0x0651  |
| Data Size    | 5 bytes |
| Instructions | 3       |

```
      00 01 02 03 04 05 06 07  08 09 0A 0B 0C 0D 0E 0F
      -- -- -- -- -- -- -- --  -- -- -- -- -- -- -- --
0650:    1D 39 80 23 00                                  .9.#.          
```

#### Opcodes

```
  0: 0x0651 [0x1D] PRINT_EVENT_MESSAGE(message_id=10154*)
    → "You have the nerrrve to show your face in herrre afterrr what you did?"
  1: 0x0654 [0x23] WAIT_FOR_DIALOG_INTERACTION
  2: 0x0655 [0x00] END_REQSTACK()
```

### Event 65535.44

#### Metadata

| Field        | Value   |
|--------------|---------|
| Entrypoint   | 0x0656  |
| Data Size    | 5 bytes |
| Instructions | 3       |

```
      00 01 02 03 04 05 06 07  08 09 0A 0B 0C 0D 0E 0F
      -- -- -- -- -- -- -- --  -- -- -- -- -- -- -- --
0650:                   1D 3A  80 23 00                       .:.#.     
```

#### Opcodes

```
  0: 0x0656 [0x1D] PRINT_EVENT_MESSAGE(message_id=10155*)
    → "How could you even think of touching the $1?"
  1: 0x0659 [0x23] WAIT_FOR_DIALOG_INTERACTION
  2: 0x065A [0x00] END_REQSTACK()
```

### Event 65535.45

#### Metadata

| Field        | Value   |
|--------------|---------|
| Entrypoint   | 0x065B  |
| Data Size    | 5 bytes |
| Instructions | 3       |

```
      00 01 02 03 04 05 06 07  08 09 0A 0B 0C 0D 0E 0F
      -- -- -- -- -- -- -- --  -- -- -- -- -- -- -- --
0650:                                   1D 3B 80 23 00             .;.#.
```

#### Opcodes

```
  0: 0x065B [0x1D] PRINT_EVENT_MESSAGE(message_id=10158*)
    → "You may not be able to see it, but the Tonberries' $1 is therrre in your hands."
  1: 0x065E [0x23] WAIT_FOR_DIALOG_INTERACTION
  2: 0x065F [0x00] END_REQSTACK()
```

### Event 65535.46

#### Metadata

| Field        | Value   |
|--------------|---------|
| Entrypoint   | 0x0660  |
| Data Size    | 5 bytes |
| Instructions | 3       |

```
      00 01 02 03 04 05 06 07  08 09 0A 0B 0C 0D 0E 0F
      -- -- -- -- -- -- -- --  -- -- -- -- -- -- -- --
0660: 1D 3C 80 23 00                                    .<.#.           
```

#### Opcodes

```
  0: 0x0660 [0x1D] PRINT_EVENT_MESSAGE(message_id=10159*)
    → "Anyone who has been currrsed by that flame is forrrbidden to enterrr Kazham. I'll give you a day. Get yourrr things togetherrr and get out of my village!"
  1: 0x0663 [0x23] WAIT_FOR_DIALOG_INTERACTION
  2: 0x0664 [0x00] END_REQSTACK()
```

### Event 108

#### Metadata

| Field        | Value    |
|--------------|----------|
| Entrypoint   | 0x0665   |
| Data Size    | 33 bytes |
| Instructions | 12       |

```
      00 01 02 03 04 05 06 07  08 09 0A 0B 0C 0D 0E 0F
      -- -- -- -- -- -- -- --  -- -- -- -- -- -- -- --
0660:                1E F0 FF  FF 7F 6F 70 29 08 08 A0       .....op)...
0670: 0F 01 0D 1D 3D 80 23 29  08 08 A0 0F 01 0E 1D 3E  ....=.#).......>
0680: 80 23 20 00 21 00                                 .# .!.          
```

#### Opcodes

```
  0: 0x0665 [0x1E] EventEntity looks at LocalPlayer and starts talking
  1: 0x066A [0x6F] WAIT_FRAME_DELAY: Yield until WaitTime reaches zero
  2: 0x066B [0x70] WAIT_ENTITY_RENDER_FLAG: Wait while EventEntity->Render.Flags3 bit 2 is set (cancel turn if not)
  3: 0x066C [0x29] REQ_SET_WAIT(priority=0x08, entity_id=Jakoh Wahcondalo (ID: 17801224/0x010FA008), tag_num=0x0D)
  4: 0x0673 [0x1D] PRINT_EVENT_MESSAGE(message_id=10160*)
    → "The $1 in your body has the power to call forrrth the Tonberries. That is why anyone currrsed with that flame is forrrbidden frrrom enterrring Kazham!"
  5: 0x0676 [0x23] WAIT_FOR_DIALOG_INTERACTION
  6: 0x0677 [0x29] REQ_SET_WAIT(priority=0x08, entity_id=Jakoh Wahcondalo (ID: 17801224/0x010FA008), tag_num=0x0E)
  7: 0x067E [0x1D] PRINT_EVENT_MESSAGE(message_id=10161*)
    → "You have a day. Get yourrr things togetherrr and get out of my village!"
  8: 0x0681 [0x23] WAIT_FOR_DIALOG_INTERACTION
  9: 0x0682 [0x20] SET_CLI_EVENT_UC_FLAG: Unlock player control
 10: 0x0684 [0x21] END_EVENT
 11: 0x0685 [0x00] END_REQSTACK()
```

### Event 110

#### Metadata

| Field        | Value    |
|--------------|----------|
| Entrypoint   | 0x0686   |
| Data Size    | 99 bytes |
| Instructions | 18       |

```
      00 01 02 03 04 05 06 07  08 09 0A 0B 0C 0D 0E 0F
      -- -- -- -- -- -- -- --  -- -- -- -- -- -- -- --
0680:                   42 1E  F0 FF FF 7F 6F 70 29 08        B.....op).
0690: 08 A0 0F 01 0D 29 0B 08  A0 0F 01 40 29 08 08 A0  .....).....@)...
06A0: 0F 01 0E 29 08 08 A0 0F  01 07 29 0B 08 A0 0F 01  ...)......).....
06B0: 41 29 08 08 A0 0F 01 08  29 08 08 A0 0F 01 09 29  A)......)......)
06C0: 0B 08 A0 0F 01 42 29 08  08 A0 0F 01 0A 29 0B 08  .....B)......)..
06D0: A0 0F 01 43 45 3F 80 F0  FF FF 7F F0 FF FF 7F 71  ...CE?.........q
06E0: 73 74 63 07 80 20 00 21  00                       stc.. .!.       
```

#### Opcodes

```
  0: 0x0686 [0x42] SET_CLI_EVENT_CANCEL_DATA()
  1: 0x0687 [0x1E] EventEntity looks at LocalPlayer and starts talking
  2: 0x068C [0x6F] WAIT_FRAME_DELAY: Yield until WaitTime reaches zero
  3: 0x068D [0x70] WAIT_ENTITY_RENDER_FLAG: Wait while EventEntity->Render.Flags3 bit 2 is set (cancel turn if not)
  4: 0x068E [0x29] REQ_SET_WAIT(priority=0x08, entity_id=Jakoh Wahcondalo (ID: 17801224/0x010FA008), tag_num=0x0D)
  5: 0x0695 [0x29] REQ_SET_WAIT(priority=0x0B, entity_id=Jakoh Wahcondalo (ID: 17801224/0x010FA008), tag_num=0x40)
  6: 0x069C [0x29] REQ_SET_WAIT(priority=0x08, entity_id=Jakoh Wahcondalo (ID: 17801224/0x010FA008), tag_num=0x0E)
  7: 0x06A3 [0x29] REQ_SET_WAIT(priority=0x08, entity_id=Jakoh Wahcondalo (ID: 17801224/0x010FA008), tag_num=0x07)
  8: 0x06AA [0x29] REQ_SET_WAIT(priority=0x0B, entity_id=Jakoh Wahcondalo (ID: 17801224/0x010FA008), tag_num=0x41)
  9: 0x06B1 [0x29] REQ_SET_WAIT(priority=0x08, entity_id=Jakoh Wahcondalo (ID: 17801224/0x010FA008), tag_num=0x08)
 10: 0x06B8 [0x29] REQ_SET_WAIT(priority=0x08, entity_id=Jakoh Wahcondalo (ID: 17801224/0x010FA008), tag_num=0x09)
 11: 0x06BF [0x29] REQ_SET_WAIT(priority=0x0B, entity_id=Jakoh Wahcondalo (ID: 17801224/0x010FA008), tag_num=0x42)
 12: 0x06C6 [0x29] REQ_SET_WAIT(priority=0x08, entity_id=Jakoh Wahcondalo (ID: 17801224/0x010FA008), tag_num=0x0A)
 13: 0x06CD [0x29] REQ_SET_WAIT(priority=0x0B, entity_id=Jakoh Wahcondalo (ID: 17801224/0x010FA008), tag_num=0x43)
 14: 0x06D4 [0x45] LOAD_SCHEDULED_TASK: Load scheduler "qstc" with entities [LocalPlayer, LocalPlayer], work=[201*, 0*]
 15: 0x06E5 [0x20] SET_CLI_EVENT_UC_FLAG: Unlock player control
 16: 0x06E7 [0x21] END_EVENT
 17: 0x06E8 [0x00] END_REQSTACK()
```

### Event 65535.47

#### Metadata

| Field        | Value   |
|--------------|---------|
| Entrypoint   | 0x06E9  |
| Data Size    | 5 bytes |
| Instructions | 3       |

```
      00 01 02 03 04 05 06 07  08 09 0A 0B 0C 0D 0E 0F
      -- -- -- -- -- -- -- --  -- -- -- -- -- -- -- --
06E0:                             1D 40 80 23 00                 .@.#.  
```

#### Opcodes

```
  0: 0x06E9 [0x1D] PRINT_EVENT_MESSAGE(message_id=10167*)
    → "Are you still herrre? I thought I told you to get out of my village! If you don't leave rrright now, I'll have to dispose of you myself..."
  1: 0x06EC [0x23] WAIT_FOR_DIALOG_INTERACTION
  2: 0x06ED [0x00] END_REQSTACK()
```

### Event 65535.48

#### Metadata

| Field        | Value   |
|--------------|---------|
| Entrypoint   | 0x06EE  |
| Data Size    | 5 bytes |
| Instructions | 3       |

```
      00 01 02 03 04 05 06 07  08 09 0A 0B 0C 0D 0E 0F
      -- -- -- -- -- -- -- --  -- -- -- -- -- -- -- --
06E0:                                            1D 41                .A
06F0: 80 23 00                                          .#.             
```

#### Opcodes

```
  0: 0x06EE [0x1D] PRINT_EVENT_MESSAGE(message_id=10168*)
    → "What is this you say? You've removed the curse?"
  1: 0x06F1 [0x23] WAIT_FOR_DIALOG_INTERACTION
  2: 0x06F2 [0x00] END_REQSTACK()
```

### Event 65535.49

#### Metadata

| Field        | Value   |
|--------------|---------|
| Entrypoint   | 0x06F3  |
| Data Size    | 5 bytes |
| Instructions | 3       |

```
      00 01 02 03 04 05 06 07  08 09 0A 0B 0C 0D 0E 0F
      -- -- -- -- -- -- -- --  -- -- -- -- -- -- -- --
06F0:          1D 42 80 23 00                              .B.#.        
```

#### Opcodes

```
  0: 0x06F3 [0x1D] PRINT_EVENT_MESSAGE(message_id=10169*)
    → "Well, well, well... I guess there is no longer any reason to banish you from Kazham."
  1: 0x06F6 [0x23] WAIT_FOR_DIALOG_INTERACTION
  2: 0x06F7 [0x00] END_REQSTACK()
```

### Event 65535.50

#### Metadata

| Field        | Value   |
|--------------|---------|
| Entrypoint   | 0x06F8  |
| Data Size    | 5 bytes |
| Instructions | 3       |

```
      00 01 02 03 04 05 06 07  08 09 0A 0B 0C 0D 0E 0F
      -- -- -- -- -- -- -- --  -- -- -- -- -- -- -- --
06F0:                          1D 43 80 23 00                   .C.#.   
```

#### Opcodes

```
  0: 0x06F8 [0x1D] PRINT_EVENT_MESSAGE(message_id=10170*)
    → "I can assume that you won't be touching any morrre $1 from now on, will you?"
  1: 0x06FB [0x23] WAIT_FOR_DIALOG_INTERACTION
  2: 0x06FC [0x00] END_REQSTACK()
```

### Event 111

#### Metadata

| Field        | Value    |
|--------------|----------|
| Entrypoint   | 0x06FD   |
| Data Size    | 47 bytes |
| Instructions | 14       |

```
      00 01 02 03 04 05 06 07  08 09 0A 0B 0C 0D 0E 0F
      -- -- -- -- -- -- -- --  -- -- -- -- -- -- -- --
06F0:                                         1E F0 FF               ...
0700: FF 7F 6F 70 29 08 08 A0  0F 01 01 1D 44 80 23 29  ..op).......D.#)
0710: 08 08 A0 0F 01 02 29 08  08 A0 0F 01 03 1D 45 80  ......).......E.
0720: 23 29 08 08 A0 0F 01 04  20 00 21 00              #)...... .!.    
```

#### Opcodes

```
  0: 0x06FD [0x1E] EventEntity looks at LocalPlayer and starts talking
  1: 0x0702 [0x6F] WAIT_FRAME_DELAY: Yield until WaitTime reaches zero
  2: 0x0703 [0x70] WAIT_ENTITY_RENDER_FLAG: Wait while EventEntity->Render.Flags3 bit 2 is set (cancel turn if not)
  3: 0x0704 [0x29] REQ_SET_WAIT(priority=0x08, entity_id=Jakoh Wahcondalo (ID: 17801224/0x010FA008), tag_num=0x01)
  4: 0x070B [0x1D] PRINT_EVENT_MESSAGE(message_id=10171*)
    → "Don't get me wrong. I've spent my time in the mainlands. I don't hate all of you."
  5: 0x070E [0x23] WAIT_FOR_DIALOG_INTERACTION
  6: 0x070F [0x29] REQ_SET_WAIT(priority=0x08, entity_id=Jakoh Wahcondalo (ID: 17801224/0x010FA008), tag_num=0x02)
  7: 0x0716 [0x29] REQ_SET_WAIT(priority=0x08, entity_id=Jakoh Wahcondalo (ID: 17801224/0x010FA008), tag_num=0x03)
  8: 0x071D [0x1D] PRINT_EVENT_MESSAGE(message_id=10172*)
    → "But you mainlanders cause too many problems. You should think a little more beforrre you act. Understood?"
  9: 0x0720 [0x23] WAIT_FOR_DIALOG_INTERACTION
 10: 0x0721 [0x29] REQ_SET_WAIT(priority=0x08, entity_id=Jakoh Wahcondalo (ID: 17801224/0x010FA008), tag_num=0x04)
 11: 0x0728 [0x20] SET_CLI_EVENT_UC_FLAG: Unlock player control
 12: 0x072A [0x21] END_EVENT
 13: 0x072B [0x00] END_REQSTACK()
```

### Event 265

#### Metadata

| Field        | Value    |
|--------------|----------|
| Entrypoint   | 0x072C   |
| Data Size    | 47 bytes |
| Instructions | 14       |

```
      00 01 02 03 04 05 06 07  08 09 0A 0B 0C 0D 0E 0F
      -- -- -- -- -- -- -- --  -- -- -- -- -- -- -- --
0720:                                      1E F0 FF FF              ....
0730: 7F 6F 70 29 08 08 A0 0F  01 07 1D 46 80 23 29 08  .op).......F.#).
0740: 08 A0 0F 01 08 29 08 08  A0 0F 01 09 1D 47 80 23  .....).......G.#
0750: 29 08 08 A0 0F 01 0A 20  00 21 00                 )...... .!.     
```

#### Opcodes

```
  0: 0x072C [0x1E] EventEntity looks at LocalPlayer and starts talking
  1: 0x0731 [0x6F] WAIT_FRAME_DELAY: Yield until WaitTime reaches zero
  2: 0x0732 [0x70] WAIT_ENTITY_RENDER_FLAG: Wait while EventEntity->Render.Flags3 bit 2 is set (cancel turn if not)
  3: 0x0733 [0x29] REQ_SET_WAIT(priority=0x08, entity_id=Jakoh Wahcondalo (ID: 17801224/0x010FA008), tag_num=0x07)
  4: 0x073A [0x1D] PRINT_EVENT_MESSAGE(message_id=10478*)
    → "Rhinostery minister? Here in Kazham?"
  5: 0x073D [0x23] WAIT_FOR_DIALOG_INTERACTION
  6: 0x073E [0x29] REQ_SET_WAIT(priority=0x08, entity_id=Jakoh Wahcondalo (ID: 17801224/0x010FA008), tag_num=0x08)
  7: 0x0745 [0x29] REQ_SET_WAIT(priority=0x08, entity_id=Jakoh Wahcondalo (ID: 17801224/0x010FA008), tag_num=0x09)
  8: 0x074C [0x1D] PRINT_EVENT_MESSAGE(message_id=10479*)
    → "Oh, yes. Now I remember. That strrrange little lady with the funny accent. Yes, she kept asking me about the ancient times, so I sent her to someone ancient--our former chieftainness."
  9: 0x074F [0x23] WAIT_FOR_DIALOG_INTERACTION
 10: 0x0750 [0x29] REQ_SET_WAIT(priority=0x08, entity_id=Jakoh Wahcondalo (ID: 17801224/0x010FA008), tag_num=0x0A)
 11: 0x0757 [0x20] SET_CLI_EVENT_UC_FLAG: Unlock player control
 12: 0x0759 [0x21] END_EVENT
 13: 0x075A [0x00] END_REQSTACK()
```

### Event 279

#### Metadata

| Field        | Value     |
|--------------|-----------|
| Entrypoint   | 0x075B    |
| Data Size    | 750 bytes |
| Instructions | 110       |

```
      00 01 02 03 04 05 06 07  08 09 0A 0B 0C 0D 0E 0F
      -- -- -- -- -- -- -- --  -- -- -- -- -- -- -- --
0750:                                   20 01 42 46 01              .BF.
0760: 1E F0 FF FF 7F 5D 07 80  06 80 45 06 80 F0 FF FF  .....]....E.....
0770: 7F F0 FF FF 7F 66 64 6F  31 07 80 1C 06 80 75 00  .....fdo1.....u.
0780: 09 80 75 01 1E F0 FF FF  7F 6F 70 38 0A 80 29 0B  ..u......op8..).
0790: F0 FF FF 7F 18 29 08 F0  FF FF 7F 05 1E F0 FF FF  .....)..........
07A0: 7F 6F 70 5C 00 48 80 5C  01 48 80 5D 49 80 36 80  .op\.H.\.H.]I.6.
07B0: 1C 06 80 02 09 10 0C 80  00 CF 07 45 4A 80 F0 FF  ...........EJ...
07C0: FF 7F F0 FF FF 7F 73 30  31 33 07 80 01 FC 07 02  ......s013......
07D0: 09 10 0D 80 00 EB 07 45  4A 80 F0 FF FF 7F F0 FF  .......EJ.......
07E0: FF 7F 73 30 31 33 07 80  01 FC 07 45 4A 80 F0 FF  ..s013.....EJ...
07F0: FF 7F F0 FF FF 7F 73 30  30 38 07 80 45 06 80 F0  ......s008..E...
0800: FF FF 7F F0 FF FF 7F 66  64 69 31 07 80 1D 4B 80  .......fdi1...K.
0810: 23 02 09 10 0C 80 00 2B  08 52 4A 80 F0 FF FF 7F  #......+.RJ.....
0820: F0 FF FF 7F 73 30 31 33  01 54 08 02 09 10 0D 80  ....s013.T......
0830: 00 45 08 52 4A 80 F0 FF  FF 7F F0 FF FF 7F 73 30  .E.RJ.........s0
0840: 31 33 01 54 08 52 4A 80  F0 FF FF 7F F0 FF FF 7F  13.T.RJ.........
0850: 73 30 30 38 45 4A 80 F0  FF FF 7F F0 FF FF 7F 73  s008EJ.........s
0860: 30 30 39 07 80 29 08 08  A0 0F 01 01 1D 4C 80 23  009..).......L.#
0870: 29 08 08 A0 0F 01 02 29  08 08 A0 0F 01 03 1D 4D  )......).......M
0880: 80 23 29 08 08 A0 0F 01  04 52 4A 80 F0 FF FF 7F  .#)......RJ.....
0890: F0 FF FF 7F 73 30 30 39  02 09 10 0A 80 00 B4 08  ....s009........
08A0: 45 4A 80 F0 FF FF 7F F0  FF FF 7F 73 30 31 32 07  EJ.........s012.
08B0: 80 01 19 09 02 09 10 0C  80 00 D0 08 45 4A 80 F0  ............EJ..
08C0: FF FF 7F F0 FF FF 7F 73  30 31 31 07 80 01 19 09  .......s011.....
08D0: 02 09 10 0D 80 00 EC 08  45 4A 80 F0 FF FF 7F F0  ........EJ......
08E0: FF FF 7F 73 30 31 31 07  80 01 19 09 02 09 10 0E  ...s011.........
08F0: 80 00 08 09 45 4A 80 F0  FF FF 7F F0 FF FF 7F 73  ....EJ.........s
0900: 30 31 32 07 80 01 19 09  45 4A 80 F0 FF FF 7F F0  012.....EJ......
0910: FF FF 7F 73 30 31 30 07  80 29 08 08 A0 0F 01 07  ...s010..)......
0920: 1D 4E 80 23 29 08 08 A0  0F 01 08 29 08 08 A0 0F  .N.#)......)....
0930: 01 09 1D 4F 80 23 29 08  08 A0 0F 01 0A 29 08 08  ...O.#)......)..
0940: A0 0F 01 01 1D 50 80 23  29 08 08 A0 0F 01 02 29  .....P.#)......)
0950: 08 08 A0 0F 01 03 29 08  08 A0 0F 01 04 02 09 10  ......).........
0960: 0A 80 00 77 09 52 4A 80  F0 FF FF 7F F0 FF FF 7F  ...w.RJ.........
0970: 73 30 31 32 01 D4 09 02  09 10 0C 80 00 91 09 52  s012...........R
0980: 4A 80 F0 FF FF 7F F0 FF  FF 7F 73 30 31 31 01 D4  J.........s011..
0990: 09 02 09 10 0D 80 00 AB  09 52 4A 80 F0 FF FF 7F  .........RJ.....
09A0: F0 FF FF 7F 73 30 31 31  01 D4 09 02 09 10 0E 80  ....s011........
09B0: 00 C5 09 52 4A 80 F0 FF  FF 7F F0 FF FF 7F 73 30  ...RJ.........s0
09C0: 31 32 01 D4 09 52 4A 80  F0 FF FF 7F F0 FF FF 7F  12...RJ.........
09D0: 73 30 31 30 45 4A 80 F0  FF FF 7F F0 FF FF 7F 73  s010EJ.........s
09E0: 30 30 39 07 80 29 08 08  A0 0F 01 0F 1D 51 80 23  009..).......Q.#
09F0: 29 08 08 A0 0F 01 10 29  08 08 A0 0F 01 13 1D 52  )......).......R
0A00: 80 23 5D 07 80 06 80 45  06 80 F0 FF FF 7F F0 FF  .#]....E........
0A10: FF 7F 66 64 6F 31 07 80  1C 11 80 29 08 08 A0 0F  ..fdo1.....)....
0A20: 01 14 46 00 5C 00 53 80  5C 01 53 80 5D 49 80 36  ..F.\.S.\.S.]I.6
0A30: 80 1C 06 80 45 06 80 F0  FF FF 7F F0 FF FF 7F 66  ....E..........f
0A40: 64 69 31 07 80 20 00 21  00                       di1.. .!.       
```

#### Opcodes

```
  0: 0x075B [0x20] SET_CLI_EVENT_UC_FLAG: Lock player control
  1: 0x075D [0x42] SET_CLI_EVENT_CANCEL_DATA()
  2: 0x075E [0x46] CAMERA_CONTROL: Disable user control
  3: 0x0760 [0x1E] EventEntity looks at LocalPlayer and starts talking
  4: 0x0765 [0x5D] SET_MUSIC_VOLUME(volume=0*, fade_time=200*)
  5: 0x076A [0x45] LOAD_SCHEDULED_TASK: Load scheduler "fdo1" with entities [LocalPlayer, LocalPlayer], work=[200*, 0*]
  6: 0x077B [0x1C] WAIT(200* ticks)
  7: 0x077E [0x75] LOAD_ROOM(Load indoor room, room=507*)
  8: 0x0782 [0x75] LOAD_ROOM(No action)
  9: 0x0784 [0x1E] EventEntity looks at LocalPlayer and starts talking
 10: 0x0789 [0x6F] WAIT_FRAME_DELAY: Yield until WaitTime reaches zero
 11: 0x078A [0x70] WAIT_ENTITY_RENDER_FLAG: Wait while EventEntity->Render.Flags3 bit 2 is set (cancel turn if not)
 12: 0x078B [0x38] SET_CLIENT_EVENT_MODE(mode=3*)
 13: 0x078E [0x29] REQ_SET_WAIT(priority=0x0B, entity_id=LocalPlayer, tag_num=0x18)
 14: 0x0795 [0x29] REQ_SET_WAIT(priority=0x08, entity_id=LocalPlayer, tag_num=0x05)
 15: 0x079C [0x1E] EventEntity looks at LocalPlayer and starts talking
 16: 0x07A1 [0x6F] WAIT_FRAME_DELAY: Yield until WaitTime reaches zero
 17: 0x07A2 [0x70] WAIT_ENTITY_RENDER_FLAG: Wait while EventEntity->Render.Flags3 bit 2 is set (cancel turn if not)
 18: 0x07A3 [0x5C] MUSIC_CONTROL: Set Idle (Day) music to song 163*
 19: 0x07A7 [0x5C] MUSIC_CONTROL: Set Idle (Night) music to song 163*
 20: 0x07AB [0x5D] SET_MUSIC_VOLUME(volume=127*, fade_time=1*)
 21: 0x07B0 [0x1C] WAIT(200* ticks)
 22: 0x07B3 [0x02] IF !(Work_Zone[9] == 5*) GOTO 0x07CF
 23: 0x07BB [0x45] LOAD_SCHEDULED_TASK: Load scheduler "s013" with entities [LocalPlayer, LocalPlayer], work=[228*, 0*]
 24: 0x07CC [0x01] GOTO 0x07FC
 25: 0x07CF [0x02] IF !(Work_Zone[9] == 6*) GOTO 0x07EB
 26: 0x07D7 [0x45] LOAD_SCHEDULED_TASK: Load scheduler "s013" with entities [LocalPlayer, LocalPlayer], work=[228*, 0*]
 27: 0x07E8 [0x01] GOTO 0x07FC
 28: 0x07EB [0x45] LOAD_SCHEDULED_TASK: Load scheduler "s008" with entities [LocalPlayer, LocalPlayer], work=[228*, 0*]

SUBROUTINE_07FC:
 29: 0x07FC [0x45] LOAD_SCHEDULED_TASK: Load scheduler "fdi1" with entities [LocalPlayer, LocalPlayer], work=[200*, 0*]
 30: 0x080D [0x1D] PRINT_EVENT_MESSAGE(message_id=10643*)
    → "Ah, if it isn't <Player>. Lately, I've been hearrring rumors about you. They say that for a mainlander, you are quite talented when it comes to wielding a daggerrr."
 31: 0x0810 [0x23] WAIT_FOR_DIALOG_INTERACTION
 32: 0x0811 [0x02] IF !(Work_Zone[9] == 5*) GOTO 0x082B
 33: 0x0819 [0x52] END_LOAD_SCHEDULER: End scheduler "s013" with entities [LocalPlayer, LocalPlayer], work=228*
 34: 0x0828 [0x01] GOTO 0x0854
 35: 0x082B [0x02] IF !(Work_Zone[9] == 6*) GOTO 0x0845
 36: 0x0833 [0x52] END_LOAD_SCHEDULER: End scheduler "s013" with entities [LocalPlayer, LocalPlayer], work=228*
 37: 0x0842 [0x01] GOTO 0x0854
 38: 0x0845 [0x52] END_LOAD_SCHEDULER: End scheduler "s008" with entities [LocalPlayer, LocalPlayer], work=228*

SUBROUTINE_0854:
 39: 0x0854 [0x45] LOAD_SCHEDULED_TASK: Load scheduler "s009" with entities [LocalPlayer, LocalPlayer], work=[228*, 0*]
 40: 0x0865 [0x29] REQ_SET_WAIT(priority=0x08, entity_id=Jakoh Wahcondalo (ID: 17801224/0x010FA008), tag_num=0x01)
 41: 0x086C [0x1D] PRINT_EVENT_MESSAGE(message_id=10644*)
    → "I'm not one to brrrag, but I, too, am quite skilled with knives. Why, just the other day I came up with a new technique that can slice and dice even the toughest Tonberrry."
 42: 0x086F [0x23] WAIT_FOR_DIALOG_INTERACTION
 43: 0x0870 [0x29] REQ_SET_WAIT(priority=0x08, entity_id=Jakoh Wahcondalo (ID: 17801224/0x010FA008), tag_num=0x02)
 44: 0x0877 [0x29] REQ_SET_WAIT(priority=0x08, entity_id=Jakoh Wahcondalo (ID: 17801224/0x010FA008), tag_num=0x03)
 45: 0x087E [0x1D] PRINT_EVENT_MESSAGE(message_id=10645*)
    → "But there's a problem..."
 46: 0x0881 [0x23] WAIT_FOR_DIALOG_INTERACTION
 47: 0x0882 [0x29] REQ_SET_WAIT(priority=0x08, entity_id=Jakoh Wahcondalo (ID: 17801224/0x010FA008), tag_num=0x04)
 48: 0x0889 [0x52] END_LOAD_SCHEDULER: End scheduler "s009" with entities [LocalPlayer, LocalPlayer], work=228*
 49: 0x0898 [0x02] IF !(Work_Zone[9] == 3*) GOTO 0x08B4
 50: 0x08A0 [0x45] LOAD_SCHEDULED_TASK: Load scheduler "s012" with entities [LocalPlayer, LocalPlayer], work=[228*, 0*]
 51: 0x08B1 [0x01] GOTO 0x0919
 52: 0x08B4 [0x02] IF !(Work_Zone[9] == 5*) GOTO 0x08D0
 53: 0x08BC [0x45] LOAD_SCHEDULED_TASK: Load scheduler "s011" with entities [LocalPlayer, LocalPlayer], work=[228*, 0*]
 54: 0x08CD [0x01] GOTO 0x0919
 55: 0x08D0 [0x02] IF !(Work_Zone[9] == 6*) GOTO 0x08EC
 56: 0x08D8 [0x45] LOAD_SCHEDULED_TASK: Load scheduler "s011" with entities [LocalPlayer, LocalPlayer], work=[228*, 0*]
 57: 0x08E9 [0x01] GOTO 0x0919
 58: 0x08EC [0x02] IF !(Work_Zone[9] == 8*) GOTO 0x0908
 59: 0x08F4 [0x45] LOAD_SCHEDULED_TASK: Load scheduler "s012" with entities [LocalPlayer, LocalPlayer], work=[228*, 0*]
 60: 0x0905 [0x01] GOTO 0x0919
 61: 0x0908 [0x45] LOAD_SCHEDULED_TASK: Load scheduler "s010" with entities [LocalPlayer, LocalPlayer], work=[228*, 0*]

SUBROUTINE_0919:
 62: 0x0919 [0x29] REQ_SET_WAIT(priority=0x08, entity_id=Jakoh Wahcondalo (ID: 17801224/0x010FA008), tag_num=0x07)
 63: 0x0920 [0x1D] PRINT_EVENT_MESSAGE(message_id=10646*)
    → "If anybody gets their grrrimy hands on it, I'll be in trrrouble. That's why I have to start practicing dodging the technique as well as using it."
 64: 0x0923 [0x23] WAIT_FOR_DIALOG_INTERACTION
 65: 0x0924 [0x29] REQ_SET_WAIT(priority=0x08, entity_id=Jakoh Wahcondalo (ID: 17801224/0x010FA008), tag_num=0x08)
 66: 0x092B [0x29] REQ_SET_WAIT(priority=0x08, entity_id=Jakoh Wahcondalo (ID: 17801224/0x010FA008), tag_num=0x09)
 67: 0x0932 [0x1D] PRINT_EVENT_MESSAGE(message_id=10647*)
    → "And that's the prrroblem. None of the pussycats around here have the skill required to perrrform it!"
 68: 0x0935 [0x23] WAIT_FOR_DIALOG_INTERACTION
 69: 0x0936 [0x29] REQ_SET_WAIT(priority=0x08, entity_id=Jakoh Wahcondalo (ID: 17801224/0x010FA008), tag_num=0x0A)
 70: 0x093D [0x29] REQ_SET_WAIT(priority=0x08, entity_id=Jakoh Wahcondalo (ID: 17801224/0x010FA008), tag_num=0x01)
 71: 0x0944 [0x1D] PRINT_EVENT_MESSAGE(message_id=10648*)
    → "If I could only find someone that could match me in battle..."
 72: 0x0947 [0x23] WAIT_FOR_DIALOG_INTERACTION
 73: 0x0948 [0x29] REQ_SET_WAIT(priority=0x08, entity_id=Jakoh Wahcondalo (ID: 17801224/0x010FA008), tag_num=0x02)
 74: 0x094F [0x29] REQ_SET_WAIT(priority=0x08, entity_id=Jakoh Wahcondalo (ID: 17801224/0x010FA008), tag_num=0x03)
 75: 0x0956 [0x29] REQ_SET_WAIT(priority=0x08, entity_id=Jakoh Wahcondalo (ID: 17801224/0x010FA008), tag_num=0x04)
 76: 0x095D [0x02] IF !(Work_Zone[9] == 3*) GOTO 0x0977
 77: 0x0965 [0x52] END_LOAD_SCHEDULER: End scheduler "s012" with entities [LocalPlayer, LocalPlayer], work=228*
 78: 0x0974 [0x01] GOTO 0x09D4
 79: 0x0977 [0x02] IF !(Work_Zone[9] == 5*) GOTO 0x0991
 80: 0x097F [0x52] END_LOAD_SCHEDULER: End scheduler "s011" with entities [LocalPlayer, LocalPlayer], work=228*
 81: 0x098E [0x01] GOTO 0x09D4
 82: 0x0991 [0x02] IF !(Work_Zone[9] == 6*) GOTO 0x09AB
 83: 0x0999 [0x52] END_LOAD_SCHEDULER: End scheduler "s011" with entities [LocalPlayer, LocalPlayer], work=228*
 84: 0x09A8 [0x01] GOTO 0x09D4
 85: 0x09AB [0x02] IF !(Work_Zone[9] == 8*) GOTO 0x09C5
 86: 0x09B3 [0x52] END_LOAD_SCHEDULER: End scheduler "s012" with entities [LocalPlayer, LocalPlayer], work=228*
 87: 0x09C2 [0x01] GOTO 0x09D4
 88: 0x09C5 [0x52] END_LOAD_SCHEDULER: End scheduler "s010" with entities [LocalPlayer, LocalPlayer], work=228*

SUBROUTINE_09D4:
 89: 0x09D4 [0x45] LOAD_SCHEDULED_TASK: Load scheduler "s009" with entities [LocalPlayer, LocalPlayer], work=[228*, 0*]
 90: 0x09E5 [0x29] REQ_SET_WAIT(priority=0x08, entity_id=Jakoh Wahcondalo (ID: 17801224/0x010FA008), tag_num=0x0F)
 91: 0x09EC [0x1D] PRINT_EVENT_MESSAGE(message_id=10649*)
    → "How about you? Do you want to take a stab at learrrning my new technique?"
 92: 0x09EF [0x23] WAIT_FOR_DIALOG_INTERACTION
