# 17801258 - Soun Abralah

## Common Data

| Field            | Value            |
|------------------|------------------|
| Zone             | Kazham (ID: 250) |
| Block Size       | 1008 bytes       |
| Total Events     | 32               |
| References Count | 32               |

## List of Events

| Event ID                   | Entrypoint   |   Size |   Instructions |
|----------------------------|--------------|--------|----------------|
| [65535](#event-65535)      | 0x0000       |      1 |              1 |
| [65535.1](#event-655351)   | 0x0001       |     16 |              2 |
| [65535.2](#event-655352)   | 0x0011       |      9 |              3 |
| [65535.3](#event-655353)   | 0x001A       |     22 |              3 |
| [65535.4](#event-655354)   | 0x0030       |     14 |              2 |
| [65535.5](#event-655355)   | 0x003E       |     16 |              2 |
| [65535.6](#event-655356)   | 0x004E       |     20 |              3 |
| [65535.7](#event-655357)   | 0x0062       |     16 |              2 |
| [65535.8](#event-655358)   | 0x0072       |     14 |              2 |
| [65535.9](#event-655359)   | 0x0080       |     16 |              2 |
| [65535.10](#event-6553510) | 0x0090       |     14 |              2 |
| [65535.11](#event-6553511) | 0x009E       |     16 |              2 |
| [65535.12](#event-6553512) | 0x00AE       |     14 |              2 |
| [65535.13](#event-6553513) | 0x00BC       |     16 |              2 |
| [65535.14](#event-6553514) | 0x00CC       |     14 |              2 |
| [65535.15](#event-6553515) | 0x00DA       |     16 |              2 |
| [65535.16](#event-6553516) | 0x00EA       |     14 |              2 |
| [65535.17](#event-6553517) | 0x00F8       |      9 |              3 |
| [101](#event-101)          | 0x0101       |     33 |             12 |
| [186](#event-186)          | 0x0122       |      8 |              5 |
| [102](#event-102)          | 0x012A       |     87 |             20 |
| [65535.18](#event-6553518) | 0x0181       |     37 |              9 |
| [65535.19](#event-6553519) | 0x01A6       |     17 |              5 |
| [65535.20](#event-6553520) | 0x01B7       |     23 |              7 |
| [65535.21](#event-6553521) | 0x01CE       |      5 |              3 |
| [65535.22](#event-6553522) | 0x01D3       |     21 |              7 |
| [103](#event-103)          | 0x01E8       |     37 |             14 |
| [104](#event-104)          | 0x020D       |     36 |              9 |
| [65535.23](#event-6553523) | 0x0231       |     21 |              7 |
| [105](#event-105)          | 0x0246       |     51 |             16 |
| [106](#event-106)          | 0x0279       |     81 |             22 |
| [65535.24](#event-6553524) | 0x02CA       |     19 |              5 |

## DAT References (imed_data)

|   Index | Hex Value   |   Dec Value |
|---------|-------------|-------------|
|       0 | 0x0032      |          50 |
|       1 | 0x001E      |          30 |
|       2 | 0x0034      |          52 |
|       3 | 0x2756      |       10070 |
|       4 | 0x2757      |       10071 |
|       5 | 0x2885      |       10373 |
|       6 | 0x275C      |       10076 |
|       7 | 0x0000      |           0 |
|       8 | 0x0001      |           1 |
|       9 | 0x0002      |           2 |
|      10 | 0x275A      |       10074 |
|      11 | 0x275B      |       10075 |
|      12 | 0x0006      |           6 |
|      13 | 0x275D      |       10077 |
|      14 | 0x275E      |       10078 |
|      15 | 0x275F      |       10079 |
|      16 | 0x2760      |       10080 |
|      17 | 0x2761      |       10081 |
|      18 | 0x0007      |           7 |
|      19 | 0x2762      |       10082 |
|      20 | 0x2763      |       10083 |
|      21 | 0x2764      |       10084 |
|      22 | 0x2765      |       10085 |
|      23 | 0x00C9      |         201 |
|      24 | 0x000E      |          14 |
|      25 | 0x2766      |       10086 |
|      26 | 0x2767      |       10087 |
|      27 | 0x2768      |       10088 |
|      28 | 0x2769      |       10089 |
|      29 | 0x276A      |       10090 |
|      30 | 0x276C      |       10092 |
|      31 | 0x276B      |       10091 |

## String References

- **10070**: When we Mithra establish a new settlement, we call forth the powerrr of the guardian of that land, and craft a special bow.
- **10071**: That bow is kept by the chieftainness as a symbol of the bond between us and the land we have chosen. The Thalassa Bow that Jakoh Wahcondalo carries is Kazham's bond with Elshimo.
- **10074**: Wait a minute. You wouldn't happen to be one of those adventurerrrs from the mainlands, would you?
- **10075**: I heard that if the prrrice was right, your type would go anywhere, do anything. So, [Mister/Miss] Adventurerrr, are your serrrvices for hire?
- **10076**: Listen to her offer? [Yes./No.]
- **10077**: I guess my eyes deceived me. I was sure you were an adventurerrr.
- **10078**: Wonderful. My eyes didn't deceive me. Now, have you ever heard of $3? This rare wood does not even burn when thrown into the inferrrno of Ifrit's Cauldron.
- **10079**: Deep in the hearrrt of the Yuhtunga Jungle, there is a giant tree known by the natives as the Firebloom Tree. It is protected day and night by mighty flames, though it never burns.
- **10080**: The wood taken from the most heavily protected arrrea of the Firebloom Tree is called $3.
- **10081**: To find out which arrrea of the trrree is the most heavily protected, you must first retrieve four vines from its four sides. Then you must take those four vines to a place in Ifrit's Cauldron where firrre spits up from the rrrocks.
- **10082**: Throw the four vines into the flames. The one that remains unburned is from the most heavily protected side of the Firebloom Tree. Finally, return to the jungle, cut off $6, and bring it back here to me.
- **10083**: Travel to the hearrrt of the Yuhtunga Jungle and cut four vines from the Firebloom Tree.
- **10084**: Take those four vines to Ifrit's Cauldron and throw them into the walls of fire that rise from the rocks.
- **10085**: When you have learned the most heavily protected side of the Firebloom Tree, return to it and cut off $6. Bring that wood back here to me.
- **10086**: Look at it! Isn't it beautiful?
- **10087**: Only a bow made from this wood can stand the blazing heat of "Purgatory Arrows."
- **10088**: By the way, have your trrravels ever taken you to Windurst?
- **10089**: The chieftainness of that trrribe, Perih Vashai, carries with her a weapon known as the Azure Bow.
- **10090**: There are many a song that tell of her ability to wield Purgatory Arrows. However, I have heard that her skills have faded since the Great War.
- **10091**: Wait, [sir/ma'am]. Would you have the time to retrieve another piece of $3?
- **10092**: If you're busy...
- **10373**: Leave my worrrkshop. I cannot concentrate with that stench in my house.

## Events

### Event 65535

#### Metadata

| Field        | Value   |
|--------------|---------|
| Entrypoint   | 0x0000  |
| Data Size    | 1 bytes |
| Instructions | 1       |

```
      00 01 02 03 04 05 06 07  08 09 0A 0B 0C 0D 0E 0F
      -- -- -- -- -- -- -- --  -- -- -- -- -- -- -- --
0000: 00                                                .               
```

#### Opcodes

```
  0: 0x0000 [0x00] END_REQSTACK()
```

### Event 65535.1

#### Metadata

| Field        | Value    |
|--------------|----------|
| Entrypoint   | 0x0001   |
| Data Size    | 16 bytes |
| Instructions | 2        |

```
      00 01 02 03 04 05 06 07  08 09 0A 0B 0C 0D 0E 0F
      -- -- -- -- -- -- -- --  -- -- -- -- -- -- -- --
0000:    66 00 80 F8 FF FF 7F  F8 FF FF 7F 74 6C 6B 30   f..........tlk0
0010: 00                                                .               
```

#### Opcodes

```
  0: 0x0001 [0x66] LOAD_EXT_SCHEDULER_MAIN: Load scheduler "tlk0" with entities [EventEntity, EventEntity], work=50*
  1: 0x0010 [0x00] END_REQSTACK()
```

### Event 65535.2

#### Metadata

| Field        | Value   |
|--------------|---------|
| Entrypoint   | 0x0011  |
| Data Size    | 9 bytes |
| Instructions | 3       |

```
      00 01 02 03 04 05 06 07  08 09 0A 0B 0C 0D 0E 0F
      -- -- -- -- -- -- -- --  -- -- -- -- -- -- -- --
0010:    5E 69 64 6C 30 1C 01  80 00                     ^idl0....      
```

#### Opcodes

```
  0: 0x0011 [0x5E] EventEntity goes idle (kills current action) (animation: "idl0")
  1: 0x0016 [0x1C] WAIT(30* ticks)
  2: 0x0019 [0x00] END_REQSTACK()
```

### Event 65535.3

#### Metadata

| Field        | Value    |
|--------------|----------|
| Entrypoint   | 0x001A   |
| Data Size    | 22 bytes |
| Instructions | 3        |

```
      00 01 02 03 04 05 06 07  08 09 0A 0B 0C 0D 0E 0F
      -- -- -- -- -- -- -- --  -- -- -- -- -- -- -- --
0010:                                81 00 F8 FF FF 7F            ......
0020: 66 00 80 F8 FF FF 7F F8  FF FF 7F 74 68 6B 31 00  f..........thk1.
```

#### Opcodes

```
  0: 0x001A [0x81] SET_ENTITY_BLINKING(blink_flag=0x00, entity=EventEntity)
  1: 0x0020 [0x66] LOAD_EXT_SCHEDULER_MAIN: Load scheduler "thk1" with entities [EventEntity, EventEntity], work=50*
  2: 0x002F [0x00] END_REQSTACK()
```

### Event 65535.4

#### Metadata

| Field        | Value    |
|--------------|----------|
| Entrypoint   | 0x0030   |
| Data Size    | 14 bytes |
| Instructions | 2        |

```
      00 01 02 03 04 05 06 07  08 09 0A 0B 0C 0D 0E 0F
      -- -- -- -- -- -- -- --  -- -- -- -- -- -- -- --
0030: 53 F8 FF FF 7F F8 FF FF  7F 74 68 6B 31 00        S........thk1.  
```

#### Opcodes

```
  0: 0x0030 [0x53] WAIT_SCHEDULER_TASK: Wait for scheduler "thk1" with entities [EventEntity, EventEntity]
  1: 0x003D [0x00] END_REQSTACK()
```

### Event 65535.5

#### Metadata

| Field        | Value    |
|--------------|----------|
| Entrypoint   | 0x003E   |
| Data Size    | 16 bytes |
| Instructions | 2        |

```
      00 01 02 03 04 05 06 07  08 09 0A 0B 0C 0D 0E 0F
      -- -- -- -- -- -- -- --  -- -- -- -- -- -- -- --
0030:                                            66 00                f.
0040: 80 F8 FF FF 7F F8 FF FF  7F 74 68 6B 32 00        .........thk2.  
```

#### Opcodes

```
  0: 0x003E [0x66] LOAD_EXT_SCHEDULER_MAIN: Load scheduler "thk2" with entities [EventEntity, EventEntity], work=50*
  1: 0x004D [0x00] END_REQSTACK()
```

### Event 65535.6

#### Metadata

| Field        | Value    |
|--------------|----------|
| Entrypoint   | 0x004E   |
| Data Size    | 20 bytes |
| Instructions | 3        |

```
      00 01 02 03 04 05 06 07  08 09 0A 0B 0C 0D 0E 0F
      -- -- -- -- -- -- -- --  -- -- -- -- -- -- -- --
0040:                                            53 F8                S.
0050: FF FF 7F F8 FF FF 7F 74  68 6B 32 81 01 F8 FF FF  .......thk2.....
0060: 7F 00                                             ..              
```

#### Opcodes

```
  0: 0x004E [0x53] WAIT_SCHEDULER_TASK: Wait for scheduler "thk2" with entities [EventEntity, EventEntity]
  1: 0x005B [0x81] SET_ENTITY_BLINKING(blink_flag=0x01, entity=EventEntity)
  2: 0x0061 [0x00] END_REQSTACK()
```

### Event 65535.7

#### Metadata

| Field        | Value    |
|--------------|----------|
| Entrypoint   | 0x0062   |
| Data Size    | 16 bytes |
| Instructions | 2        |

```
      00 01 02 03 04 05 06 07  08 09 0A 0B 0C 0D 0E 0F
      -- -- -- -- -- -- -- --  -- -- -- -- -- -- -- --
0060:       66 02 80 F8 FF FF  7F F8 FF FF 7F 64 69 73    f..........dis
0070: 30 00                                             0.              
```

#### Opcodes

```
  0: 0x0062 [0x66] LOAD_EXT_SCHEDULER_MAIN: Load scheduler "dis0" with entities [EventEntity, EventEntity], work=52*
  1: 0x0071 [0x00] END_REQSTACK()
```

### Event 65535.8

#### Metadata

| Field        | Value    |
|--------------|----------|
| Entrypoint   | 0x0072   |
| Data Size    | 14 bytes |
| Instructions | 2        |

```
      00 01 02 03 04 05 06 07  08 09 0A 0B 0C 0D 0E 0F
      -- -- -- -- -- -- -- --  -- -- -- -- -- -- -- --
0070:       53 F8 FF FF 7F F8  FF FF 7F 64 69 73 30 00    S........dis0.
```

#### Opcodes

```
  0: 0x0072 [0x53] WAIT_SCHEDULER_TASK: Wait for scheduler "dis0" with entities [EventEntity, EventEntity]
  1: 0x007F [0x00] END_REQSTACK()
```

### Event 65535.9

#### Metadata

| Field        | Value    |
|--------------|----------|
| Entrypoint   | 0x0080   |
| Data Size    | 16 bytes |
| Instructions | 2        |

```
      00 01 02 03 04 05 06 07  08 09 0A 0B 0C 0D 0E 0F
      -- -- -- -- -- -- -- --  -- -- -- -- -- -- -- --
0080: 66 02 80 F8 FF FF 7F F8  FF FF 7F 74 6C 63 30 00  f..........tlc0.
```

#### Opcodes

```
  0: 0x0080 [0x66] LOAD_EXT_SCHEDULER_MAIN: Load scheduler "tlc0" with entities [EventEntity, EventEntity], work=52*
  1: 0x008F [0x00] END_REQSTACK()
```

### Event 65535.10

#### Metadata

| Field        | Value    |
|--------------|----------|
| Entrypoint   | 0x0090   |
| Data Size    | 14 bytes |
| Instructions | 2        |

```
      00 01 02 03 04 05 06 07  08 09 0A 0B 0C 0D 0E 0F
      -- -- -- -- -- -- -- --  -- -- -- -- -- -- -- --
0090: 53 F8 FF FF 7F F8 FF FF  7F 74 6C 63 30 00        S........tlc0.  
```

#### Opcodes

```
  0: 0x0090 [0x53] WAIT_SCHEDULER_TASK: Wait for scheduler "tlc0" with entities [EventEntity, EventEntity]
  1: 0x009D [0x00] END_REQSTACK()
```

### Event 65535.11

#### Metadata

| Field        | Value    |
|--------------|----------|
| Entrypoint   | 0x009E   |
| Data Size    | 16 bytes |
| Instructions | 2        |

```
      00 01 02 03 04 05 06 07  08 09 0A 0B 0C 0D 0E 0F
      -- -- -- -- -- -- -- --  -- -- -- -- -- -- -- --
0090:                                            66 02                f.
00A0: 80 F8 FF FF 7F F8 FF FF  7F 74 6C 63 31 00        .........tlc1.  
```

#### Opcodes

```
  0: 0x009E [0x66] LOAD_EXT_SCHEDULER_MAIN: Load scheduler "tlc1" with entities [EventEntity, EventEntity], work=52*
  1: 0x00AD [0x00] END_REQSTACK()
```

### Event 65535.12

#### Metadata

| Field        | Value    |
|--------------|----------|
| Entrypoint   | 0x00AE   |
| Data Size    | 14 bytes |
| Instructions | 2        |

```
      00 01 02 03 04 05 06 07  08 09 0A 0B 0C 0D 0E 0F
      -- -- -- -- -- -- -- --  -- -- -- -- -- -- -- --
00A0:                                            53 F8                S.
00B0: FF FF 7F F8 FF FF 7F 74  6C 63 31 00              .......tlc1.    
```

#### Opcodes

```
  0: 0x00AE [0x53] WAIT_SCHEDULER_TASK: Wait for scheduler "tlc1" with entities [EventEntity, EventEntity]
  1: 0x00BB [0x00] END_REQSTACK()
```

### Event 65535.13

#### Metadata

| Field        | Value    |
|--------------|----------|
| Entrypoint   | 0x00BC   |
| Data Size    | 16 bytes |
| Instructions | 2        |

```
      00 01 02 03 04 05 06 07  08 09 0A 0B 0C 0D 0E 0F
      -- -- -- -- -- -- -- --  -- -- -- -- -- -- -- --
00B0:                                      66 02 80 F8              f...
00C0: FF FF 7F F8 FF FF 7F 70  6F 69 30 00              .......poi0.    
```

#### Opcodes

```
  0: 0x00BC [0x66] LOAD_EXT_SCHEDULER_MAIN: Load scheduler "poi0" with entities [EventEntity, EventEntity], work=52*
  1: 0x00CB [0x00] END_REQSTACK()
```

### Event 65535.14

#### Metadata

| Field        | Value    |
|--------------|----------|
| Entrypoint   | 0x00CC   |
| Data Size    | 14 bytes |
| Instructions | 2        |

```
      00 01 02 03 04 05 06 07  08 09 0A 0B 0C 0D 0E 0F
      -- -- -- -- -- -- -- --  -- -- -- -- -- -- -- --
00C0:                                      53 F8 FF FF              S...
00D0: 7F F8 FF FF 7F 70 6F 69  30 00                    .....poi0.      
```

#### Opcodes

```
  0: 0x00CC [0x53] WAIT_SCHEDULER_TASK: Wait for scheduler "poi0" with entities [EventEntity, EventEntity]
  1: 0x00D9 [0x00] END_REQSTACK()
```

### Event 65535.15

#### Metadata

| Field        | Value    |
|--------------|----------|
| Entrypoint   | 0x00DA   |
| Data Size    | 16 bytes |
| Instructions | 2        |

```
      00 01 02 03 04 05 06 07  08 09 0A 0B 0C 0D 0E 0F
      -- -- -- -- -- -- -- --  -- -- -- -- -- -- -- --
00D0:                                66 00 80 F8 FF FF            f.....
00E0: 7F F8 FF FF 7F 70 61 73  30 00                    .....pas0.      
```

#### Opcodes

```
  0: 0x00DA [0x66] LOAD_EXT_SCHEDULER_MAIN: Load scheduler "pas0" with entities [EventEntity, EventEntity], work=50*
  1: 0x00E9 [0x00] END_REQSTACK()
```

### Event 65535.16

#### Metadata

| Field        | Value    |
|--------------|----------|
| Entrypoint   | 0x00EA   |
| Data Size    | 14 bytes |
| Instructions | 2        |

```
      00 01 02 03 04 05 06 07  08 09 0A 0B 0C 0D 0E 0F
      -- -- -- -- -- -- -- --  -- -- -- -- -- -- -- --
00E0:                                53 F8 FF FF 7F F8            S.....
00F0: FF FF 7F 70 61 73 30 00                           ...pas0.        
```

#### Opcodes

```
  0: 0x00EA [0x53] WAIT_SCHEDULER_TASK: Wait for scheduler "pas0" with entities [EventEntity, EventEntity]
  1: 0x00F7 [0x00] END_REQSTACK()
```

### Event 65535.17

#### Metadata

| Field        | Value   |
|--------------|---------|
| Entrypoint   | 0x00F8  |
| Data Size    | 9 bytes |
| Instructions | 3       |

```
      00 01 02 03 04 05 06 07  08 09 0A 0B 0C 0D 0E 0F
      -- -- -- -- -- -- -- --  -- -- -- -- -- -- -- --
00F0:                          5E 69 64 6C 30 1C 01 80          ^idl0...
0100: 00                                                .               
```

#### Opcodes

```
  0: 0x00F8 [0x5E] EventEntity goes idle (kills current action) (animation: "idl0")
  1: 0x00FD [0x1C] WAIT(30* ticks)
  2: 0x0100 [0x00] END_REQSTACK()
```

### Event 101

#### Metadata

| Field        | Value    |
|--------------|----------|
| Entrypoint   | 0x0101   |
| Data Size    | 33 bytes |
| Instructions | 12       |

```
      00 01 02 03 04 05 06 07  08 09 0A 0B 0C 0D 0E 0F
      -- -- -- -- -- -- -- --  -- -- -- -- -- -- -- --
0100:    1E F0 FF FF 7F 6F 70  29 08 2A A0 0F 01 01 1D   .....op).*.....
0110: 03 80 23 1D 04 80 23 29  08 2A A0 0F 01 02 20 00  ..#...#).*.... .
0120: 21 00                                             !.              
```

#### Opcodes

```
  0: 0x0101 [0x1E] EventEntity looks at LocalPlayer and starts talking
  1: 0x0106 [0x6F] WAIT_FRAME_DELAY: Yield until WaitTime reaches zero
  2: 0x0107 [0x70] WAIT_ENTITY_RENDER_FLAG: Wait while EventEntity->Render.Flags3 bit 2 is set (cancel turn if not)
  3: 0x0108 [0x29] REQ_SET_WAIT(priority=0x08, entity_id=Soun Abralah (ID: 17801258/0x010FA02A), tag_num=0x01)
  4: 0x010F [0x1D] PRINT_EVENT_MESSAGE(message_id=10070*)
    → "When we Mithra establish a new settlement, we call forth the powerrr of the guardian of that land, and craft a special bow."
  5: 0x0112 [0x23] WAIT_FOR_DIALOG_INTERACTION
  6: 0x0113 [0x1D] PRINT_EVENT_MESSAGE(message_id=10071*)
    → "That bow is kept by the chieftainness as a symbol of the bond between us and the land we have chosen. The Thalassa Bow that Jakoh Wahcondalo carries is Kazham's bond with Elshimo."
  7: 0x0116 [0x23] WAIT_FOR_DIALOG_INTERACTION
  8: 0x0117 [0x29] REQ_SET_WAIT(priority=0x08, entity_id=Soun Abralah (ID: 17801258/0x010FA02A), tag_num=0x02)
  9: 0x011E [0x20] SET_CLI_EVENT_UC_FLAG: Unlock player control
 10: 0x0120 [0x21] END_EVENT
 11: 0x0121 [0x00] END_REQSTACK()
```

### Event 186

#### Metadata

| Field        | Value   |
|--------------|---------|
| Entrypoint   | 0x0122  |
| Data Size    | 8 bytes |
| Instructions | 5       |

```
      00 01 02 03 04 05 06 07  08 09 0A 0B 0C 0D 0E 0F
      -- -- -- -- -- -- -- --  -- -- -- -- -- -- -- --
0120:       1D 05 80 23 20 00  21 00                      ...# .!.      
```

#### Opcodes

```
  0: 0x0122 [0x1D] PRINT_EVENT_MESSAGE(message_id=10373*)
    → "Leave my worrrkshop. I cannot concentrate with that stench in my house."
  1: 0x0125 [0x23] WAIT_FOR_DIALOG_INTERACTION
  2: 0x0126 [0x20] SET_CLI_EVENT_UC_FLAG: Unlock player control
  3: 0x0128 [0x21] END_EVENT
  4: 0x0129 [0x00] END_REQSTACK()
```

### Event 102

#### Metadata

| Field        | Value    |
|--------------|----------|
| Entrypoint   | 0x012A   |
| Data Size    | 87 bytes |
| Instructions | 20       |

```
      00 01 02 03 04 05 06 07  08 09 0A 0B 0C 0D 0E 0F
      -- -- -- -- -- -- -- --  -- -- -- -- -- -- -- --
0120:                                1E F0 FF FF 7F 6F            .....o
0130: 70 29 0B 2A A0 0F 01 15  24 06 80 07 80 07 80 25  p).*....$......%
0140: 02 00 10 07 80 00 66 01  42 03 01 10 08 80 29 0B  ......f.B.....).
0150: 2A A0 0F 01 17 29 0B 2A  A0 0F 01 18 29 0B 2A A0  *....).*....).*.
0160: 0F 01 19 01 7D 01 02 00  10 08 80 00 7D 01 03 01  ....}.......}...
0170: 10 09 80 29 0B 2A A0 0F  01 16 01 7D 01 20 00 21  ...).*.....}. .!
0180: 00                                                .               
```

#### Opcodes

```
  0: 0x012A [0x1E] EventEntity looks at LocalPlayer and starts talking
  1: 0x012F [0x6F] WAIT_FRAME_DELAY: Yield until WaitTime reaches zero
  2: 0x0130 [0x70] WAIT_ENTITY_RENDER_FLAG: Wait while EventEntity->Render.Flags3 bit 2 is set (cancel turn if not)
  3: 0x0131 [0x29] REQ_SET_WAIT(priority=0x0B, entity_id=Soun Abralah (ID: 17801258/0x010FA02A), tag_num=0x15)
  4: 0x0138 [0x24] CREATE_DIALOG(message_id=10076*, default_option=0*, option_flags=0*)
    → "Listen to her offer? [Yes./No.]"
  5: 0x013F [0x25] WAIT_DIALOG_SELECT()
  6: 0x0140 [0x02] IF !(Work_Zone[0] == 0*) GOTO 0x0166
  7: 0x0148 [0x42] SET_CLI_EVENT_CANCEL_DATA()
  8: 0x0149 [0x03] Work_Zone[1] = 1*
  9: 0x014E [0x29] REQ_SET_WAIT(priority=0x0B, entity_id=Soun Abralah (ID: 17801258/0x010FA02A), tag_num=0x17)
 10: 0x0155 [0x29] REQ_SET_WAIT(priority=0x0B, entity_id=Soun Abralah (ID: 17801258/0x010FA02A), tag_num=0x18)
 11: 0x015C [0x29] REQ_SET_WAIT(priority=0x0B, entity_id=Soun Abralah (ID: 17801258/0x010FA02A), tag_num=0x19)
 12: 0x0163 [0x01] GOTO 0x017D
 13: 0x0166 [0x02] IF !(Work_Zone[0] == 1*) GOTO 0x017D
 14: 0x016E [0x03] Work_Zone[1] = 2*
 15: 0x0173 [0x29] REQ_SET_WAIT(priority=0x0B, entity_id=Soun Abralah (ID: 17801258/0x010FA02A), tag_num=0x16)
 16: 0x017A [0x01] GOTO 0x017D

SUBROUTINE_017D:
 17: 0x017D [0x20] SET_CLI_EVENT_UC_FLAG: Unlock player control
 18: 0x017F [0x21] END_EVENT
 19: 0x0180 [0x00] END_REQSTACK()
```

### Event 65535.18

#### Metadata

| Field        | Value    |
|--------------|----------|
| Entrypoint   | 0x0181   |
| Data Size    | 37 bytes |
| Instructions | 9        |

```
      00 01 02 03 04 05 06 07  08 09 0A 0B 0C 0D 0E 0F
      -- -- -- -- -- -- -- --  -- -- -- -- -- -- -- --
0180:    29 08 2A A0 0F 01 03  1D 0A 80 23 29 08 2A A0   ).*.......#).*.
0190: 0F 01 04 29 08 2A A0 0F  01 05 1D 0B 80 23 29 08  ...).*.......#).
01A0: 2A A0 0F 01 06 00                                 *.....          
```

#### Opcodes

```
  0: 0x0181 [0x29] REQ_SET_WAIT(priority=0x08, entity_id=Soun Abralah (ID: 17801258/0x010FA02A), tag_num=0x03)
  1: 0x0188 [0x1D] PRINT_EVENT_MESSAGE(message_id=10074*)
    → "Wait a minute. You wouldn't happen to be one of those adventurerrrs from the mainlands, would you?"
  2: 0x018B [0x23] WAIT_FOR_DIALOG_INTERACTION
  3: 0x018C [0x29] REQ_SET_WAIT(priority=0x08, entity_id=Soun Abralah (ID: 17801258/0x010FA02A), tag_num=0x04)
  4: 0x0193 [0x29] REQ_SET_WAIT(priority=0x08, entity_id=Soun Abralah (ID: 17801258/0x010FA02A), tag_num=0x05)
  5: 0x019A [0x1D] PRINT_EVENT_MESSAGE(message_id=10075*)
    → "I heard that if the prrrice was right, your type would go anywhere, do anything. So, [Mister/Miss] Adventurerrr, are your serrrvices for hire?"
  6: 0x019D [0x23] WAIT_FOR_DIALOG_INTERACTION
  7: 0x019E [0x29] REQ_SET_WAIT(priority=0x08, entity_id=Soun Abralah (ID: 17801258/0x010FA02A), tag_num=0x06)
  8: 0x01A5 [0x00] END_REQSTACK()
```

### Event 65535.19

#### Metadata

| Field        | Value    |
|--------------|----------|
| Entrypoint   | 0x01A6   |
| Data Size    | 17 bytes |
| Instructions | 5        |

```
      00 01 02 03 04 05 06 07  08 09 0A 0B 0C 0D 0E 0F
      -- -- -- -- -- -- -- --  -- -- -- -- -- -- -- --
01A0:                   6E F8  FF FF 7F 0C 80 99 F8 FF        n.........
01B0: FF 7F 1D 0D 80 23 00                              .....#.         
```

#### Opcodes

```
  0: 0x01A6 [0x6E] EventEntity uses emote 6*
  1: 0x01AD [0x99] Wait for EventEntity animation to complete
  2: 0x01B2 [0x1D] PRINT_EVENT_MESSAGE(message_id=10077*)
    → "I guess my eyes deceived me. I was sure you were an adventurerrr."
  3: 0x01B5 [0x23] WAIT_FOR_DIALOG_INTERACTION
  4: 0x01B6 [0x00] END_REQSTACK()
```

### Event 65535.20

#### Metadata

| Field        | Value    |
|--------------|----------|
| Entrypoint   | 0x01B7   |
| Data Size    | 23 bytes |
| Instructions | 7        |

```
      00 01 02 03 04 05 06 07  08 09 0A 0B 0C 0D 0E 0F
      -- -- -- -- -- -- -- --  -- -- -- -- -- -- -- --
01B0:                      29  08 2A A0 0F 01 01 1D 0E         ).*......
01C0: 80 23 1D 0F 80 23 29 08  2A A0 0F 01 02 00        .#...#).*.....  
```

#### Opcodes

```
  0: 0x01B7 [0x29] REQ_SET_WAIT(priority=0x08, entity_id=Soun Abralah (ID: 17801258/0x010FA02A), tag_num=0x01)
  1: 0x01BE [0x1D] PRINT_EVENT_MESSAGE(message_id=10078*)
    → "Wonderful. My eyes didn't deceive me. Now, have you ever heard of $3? This rare wood does not even burn when thrown into the inferrrno of Ifrit's Cauldron."
  2: 0x01C1 [0x23] WAIT_FOR_DIALOG_INTERACTION
  3: 0x01C2 [0x1D] PRINT_EVENT_MESSAGE(message_id=10079*)
    → "Deep in the hearrrt of the Yuhtunga Jungle, there is a giant tree known by the natives as the Firebloom Tree. It is protected day and night by mighty flames, though it never burns."
  4: 0x01C5 [0x23] WAIT_FOR_DIALOG_INTERACTION
  5: 0x01C6 [0x29] REQ_SET_WAIT(priority=0x08, entity_id=Soun Abralah (ID: 17801258/0x010FA02A), tag_num=0x02)
  6: 0x01CD [0x00] END_REQSTACK()
```

### Event 65535.21

#### Metadata

| Field        | Value   |
|--------------|---------|
| Entrypoint   | 0x01CE  |
| Data Size    | 5 bytes |
| Instructions | 3       |

```
      00 01 02 03 04 05 06 07  08 09 0A 0B 0C 0D 0E 0F
      -- -- -- -- -- -- -- --  -- -- -- -- -- -- -- --
01C0:                                            1D 10                ..
01D0: 80 23 00                                          .#.             
```

#### Opcodes

```
  0: 0x01CE [0x1D] PRINT_EVENT_MESSAGE(message_id=10080*)
    → "The wood taken from the most heavily protected arrrea of the Firebloom Tree is called $3."
  1: 0x01D1 [0x23] WAIT_FOR_DIALOG_INTERACTION
  2: 0x01D2 [0x00] END_REQSTACK()
```

### Event 65535.22

#### Metadata

| Field        | Value    |
|--------------|----------|
| Entrypoint   | 0x01D3   |
| Data Size    | 21 bytes |
| Instructions | 7        |

```
      00 01 02 03 04 05 06 07  08 09 0A 0B 0C 0D 0E 0F
      -- -- -- -- -- -- -- --  -- -- -- -- -- -- -- --
01D0:          1D 11 80 23 6E  F8 FF FF 7F 12 80 99 F8     ...#n........
01E0: FF FF 7F 1D 13 80 23 00                           ......#.        
```

#### Opcodes

```
  0: 0x01D3 [0x1D] PRINT_EVENT_MESSAGE(message_id=10081*)
    → "To find out which arrrea of the trrree is the most heavily protected, you must first retrieve four vines from its four sides. Then you must take those four vines to a place in Ifrit's Cauldron where firrre spits up from the rrrocks."
  1: 0x01D6 [0x23] WAIT_FOR_DIALOG_INTERACTION
  2: 0x01D7 [0x6E] EventEntity uses emote 7*
  3: 0x01DE [0x99] Wait for EventEntity animation to complete
  4: 0x01E3 [0x1D] PRINT_EVENT_MESSAGE(message_id=10082*)
    → "Throw the four vines into the flames. The one that remains unburned is from the most heavily protected side of the Firebloom Tree. Finally, return to the jungle, cut off $6, and bring it back here to me."
  5: 0x01E6 [0x23] WAIT_FOR_DIALOG_INTERACTION
  6: 0x01E7 [0x00] END_REQSTACK()
```

### Event 103

#### Metadata

| Field        | Value    |
|--------------|----------|
| Entrypoint   | 0x01E8   |
| Data Size    | 37 bytes |
| Instructions | 14       |

```
      00 01 02 03 04 05 06 07  08 09 0A 0B 0C 0D 0E 0F
      -- -- -- -- -- -- -- --  -- -- -- -- -- -- -- --
01E0:                          1E F0 FF FF 7F 6F 70 29          .....op)
01F0: 08 2A A0 0F 01 01 1D 14  80 23 1D 15 80 23 1D 16  .*.......#...#..
0200: 80 23 29 08 2A A0 0F 01  02 20 00 21 00           .#).*.... .!.   
```

#### Opcodes

```
  0: 0x01E8 [0x1E] EventEntity looks at LocalPlayer and starts talking
  1: 0x01ED [0x6F] WAIT_FRAME_DELAY: Yield until WaitTime reaches zero
  2: 0x01EE [0x70] WAIT_ENTITY_RENDER_FLAG: Wait while EventEntity->Render.Flags3 bit 2 is set (cancel turn if not)
  3: 0x01EF [0x29] REQ_SET_WAIT(priority=0x08, entity_id=Soun Abralah (ID: 17801258/0x010FA02A), tag_num=0x01)
  4: 0x01F6 [0x1D] PRINT_EVENT_MESSAGE(message_id=10083*)
    → "Travel to the hearrrt of the Yuhtunga Jungle and cut four vines from the Firebloom Tree."
  5: 0x01F9 [0x23] WAIT_FOR_DIALOG_INTERACTION
  6: 0x01FA [0x1D] PRINT_EVENT_MESSAGE(message_id=10084*)
    → "Take those four vines to Ifrit's Cauldron and throw them into the walls of fire that rise from the rocks."
  7: 0x01FD [0x23] WAIT_FOR_DIALOG_INTERACTION
  8: 0x01FE [0x1D] PRINT_EVENT_MESSAGE(message_id=10085*)
    → "When you have learned the most heavily protected side of the Firebloom Tree, return to it and cut off $6. Bring that wood back here to me."
  9: 0x0201 [0x23] WAIT_FOR_DIALOG_INTERACTION
 10: 0x0202 [0x29] REQ_SET_WAIT(priority=0x08, entity_id=Soun Abralah (ID: 17801258/0x010FA02A), tag_num=0x02)
 11: 0x0209 [0x20] SET_CLI_EVENT_UC_FLAG: Unlock player control
 12: 0x020B [0x21] END_EVENT
 13: 0x020C [0x00] END_REQSTACK()
```

### Event 104

#### Metadata

| Field        | Value    |
|--------------|----------|
| Entrypoint   | 0x020D   |
| Data Size    | 36 bytes |
| Instructions | 9        |

```
      00 01 02 03 04 05 06 07  08 09 0A 0B 0C 0D 0E 0F
      -- -- -- -- -- -- -- --  -- -- -- -- -- -- -- --
0200:                                         42 1E F0               B..
0210: FF FF 7F 6F 70 29 0B 2A  A0 0F 01 1C 45 17 80 F0  ...op).*....E...
0220: FF FF 7F F0 FF FF 7F 71  73 74 63 07 80 20 00 21  .......qstc.. .!
0230: 00                                                .               
```

#### Opcodes

```
  0: 0x020D [0x42] SET_CLI_EVENT_CANCEL_DATA()
  1: 0x020E [0x1E] EventEntity looks at LocalPlayer and starts talking
  2: 0x0213 [0x6F] WAIT_FRAME_DELAY: Yield until WaitTime reaches zero
  3: 0x0214 [0x70] WAIT_ENTITY_RENDER_FLAG: Wait while EventEntity->Render.Flags3 bit 2 is set (cancel turn if not)
  4: 0x0215 [0x29] REQ_SET_WAIT(priority=0x0B, entity_id=Soun Abralah (ID: 17801258/0x010FA02A), tag_num=0x1C)
  5: 0x021C [0x45] LOAD_SCHEDULED_TASK: Load scheduler "qstc" with entities [LocalPlayer, LocalPlayer], work=[201*, 0*]
  6: 0x022D [0x20] SET_CLI_EVENT_UC_FLAG: Unlock player control
  7: 0x022F [0x21] END_EVENT
  8: 0x0230 [0x00] END_REQSTACK()
```

### Event 65535.23

#### Metadata

| Field        | Value    |
|--------------|----------|
| Entrypoint   | 0x0231   |
| Data Size    | 21 bytes |
| Instructions | 7        |

```
      00 01 02 03 04 05 06 07  08 09 0A 0B 0C 0D 0E 0F
      -- -- -- -- -- -- -- --  -- -- -- -- -- -- -- --
0230:    6E F8 FF FF 7F 18 80  99 F8 FF FF 7F 1D 19 80   n..............
0240: 23 1D 1A 80 23 00                                 #...#.          
```

#### Opcodes

```
  0: 0x0231 [0x6E] EventEntity uses emote 14*
  1: 0x0238 [0x99] Wait for EventEntity animation to complete
  2: 0x023D [0x1D] PRINT_EVENT_MESSAGE(message_id=10086*)
    → "Look at it! Isn't it beautiful?"
  3: 0x0240 [0x23] WAIT_FOR_DIALOG_INTERACTION
  4: 0x0241 [0x1D] PRINT_EVENT_MESSAGE(message_id=10087*)
    → "Only a bow made from this wood can stand the blazing heat of "Purgatory Arrows.""
  5: 0x0244 [0x23] WAIT_FOR_DIALOG_INTERACTION
  6: 0x0245 [0x00] END_REQSTACK()
```

### Event 105

#### Metadata

| Field        | Value    |
|--------------|----------|
| Entrypoint   | 0x0246   |
| Data Size    | 51 bytes |
| Instructions | 16       |

```
      00 01 02 03 04 05 06 07  08 09 0A 0B 0C 0D 0E 0F
      -- -- -- -- -- -- -- --  -- -- -- -- -- -- -- --
0240:                   1E F0  FF FF 7F 6F 70 29 08 2A        .....op).*
0250: A0 0F 01 03 1D 1B 80 23  1D 1C 80 23 29 08 2A A0  .......#...#).*.
0260: 0F 01 04 29 08 2A A0 0F  01 05 1D 1D 80 23 29 08  ...).*.......#).
0270: 2A A0 0F 01 06 20 00 21  00                       *.... .!.       
```

#### Opcodes

```
  0: 0x0246 [0x1E] EventEntity looks at LocalPlayer and starts talking
  1: 0x024B [0x6F] WAIT_FRAME_DELAY: Yield until WaitTime reaches zero
  2: 0x024C [0x70] WAIT_ENTITY_RENDER_FLAG: Wait while EventEntity->Render.Flags3 bit 2 is set (cancel turn if not)
  3: 0x024D [0x29] REQ_SET_WAIT(priority=0x08, entity_id=Soun Abralah (ID: 17801258/0x010FA02A), tag_num=0x03)
  4: 0x0254 [0x1D] PRINT_EVENT_MESSAGE(message_id=10088*)
    → "By the way, have your trrravels ever taken you to Windurst?"
  5: 0x0257 [0x23] WAIT_FOR_DIALOG_INTERACTION
  6: 0x0258 [0x1D] PRINT_EVENT_MESSAGE(message_id=10089*)
    → "The chieftainness of that trrribe, Perih Vashai, carries with her a weapon known as the Azure Bow."
  7: 0x025B [0x23] WAIT_FOR_DIALOG_INTERACTION
  8: 0x025C [0x29] REQ_SET_WAIT(priority=0x08, entity_id=Soun Abralah (ID: 17801258/0x010FA02A), tag_num=0x04)
  9: 0x0263 [0x29] REQ_SET_WAIT(priority=0x08, entity_id=Soun Abralah (ID: 17801258/0x010FA02A), tag_num=0x05)
 10: 0x026A [0x1D] PRINT_EVENT_MESSAGE(message_id=10090*)
    → "There are many a song that tell of her ability to wield Purgatory Arrows. However, I have heard that her skills have faded since the Great War."
 11: 0x026D [0x23] WAIT_FOR_DIALOG_INTERACTION
 12: 0x026E [0x29] REQ_SET_WAIT(priority=0x08, entity_id=Soun Abralah (ID: 17801258/0x010FA02A), tag_num=0x06)
 13: 0x0275 [0x20] SET_CLI_EVENT_UC_FLAG: Unlock player control
 14: 0x0277 [0x21] END_EVENT
 15: 0x0278 [0x00] END_REQSTACK()
```

### Event 106

#### Metadata

| Field        | Value    |
|--------------|----------|
| Entrypoint   | 0x0279   |
| Data Size    | 81 bytes |
| Instructions | 22       |

```
      00 01 02 03 04 05 06 07  08 09 0A 0B 0C 0D 0E 0F
      -- -- -- -- -- -- -- --  -- -- -- -- -- -- -- --
0270:                             1E F0 FF FF 7F 6F 70           .....op
0280: 29 0B 2A A0 0F 01 1F 24  06 80 07 80 07 80 25 02  ).*....$......%.
0290: 00 10 07 80 00 B2 02 42  03 01 10 08 80 1D 0F 80  .......B........
02A0: 23 29 0B 2A A0 0F 01 18  29 0B 2A A0 0F 01 19 01  #).*....).*.....
02B0: C6 02 02 00 10 08 80 00  C6 02 03 01 10 09 80 1D  ................
02C0: 1E 80 23 01 C6 02 20 00  21 00                    ..#... .!.      
```

#### Opcodes

```
  0: 0x0279 [0x1E] EventEntity looks at LocalPlayer and starts talking
  1: 0x027E [0x6F] WAIT_FRAME_DELAY: Yield until WaitTime reaches zero
  2: 0x027F [0x70] WAIT_ENTITY_RENDER_FLAG: Wait while EventEntity->Render.Flags3 bit 2 is set (cancel turn if not)
  3: 0x0280 [0x29] REQ_SET_WAIT(priority=0x0B, entity_id=Soun Abralah (ID: 17801258/0x010FA02A), tag_num=0x1F)
  4: 0x0287 [0x24] CREATE_DIALOG(message_id=10076*, default_option=0*, option_flags=0*)
    → "Listen to her offer? [Yes./No.]"
  5: 0x028E [0x25] WAIT_DIALOG_SELECT()
  6: 0x028F [0x02] IF !(Work_Zone[0] == 0*) GOTO 0x02B2
  7: 0x0297 [0x42] SET_CLI_EVENT_CANCEL_DATA()
  8: 0x0298 [0x03] Work_Zone[1] = 1*
  9: 0x029D [0x1D] PRINT_EVENT_MESSAGE(message_id=10079*)
    → "Deep in the hearrrt of the Yuhtunga Jungle, there is a giant tree known by the natives as the Firebloom Tree. It is protected day and night by mighty flames, though it never burns."
 10: 0x02A0 [0x23] WAIT_FOR_DIALOG_INTERACTION
 11: 0x02A1 [0x29] REQ_SET_WAIT(priority=0x0B, entity_id=Soun Abralah (ID: 17801258/0x010FA02A), tag_num=0x18)
 12: 0x02A8 [0x29] REQ_SET_WAIT(priority=0x0B, entity_id=Soun Abralah (ID: 17801258/0x010FA02A), tag_num=0x19)
 13: 0x02AF [0x01] GOTO 0x02C6
 14: 0x02B2 [0x02] IF !(Work_Zone[0] == 1*) GOTO 0x02C6
 15: 0x02BA [0x03] Work_Zone[1] = 2*
 16: 0x02BF [0x1D] PRINT_EVENT_MESSAGE(message_id=10092*)
    → "If you're busy..."
 17: 0x02C2 [0x23] WAIT_FOR_DIALOG_INTERACTION
 18: 0x02C3 [0x01] GOTO 0x02C6

SUBROUTINE_02C6:
 19: 0x02C6 [0x20] SET_CLI_EVENT_UC_FLAG: Unlock player control
 20: 0x02C8 [0x21] END_EVENT
 21: 0x02C9 [0x00] END_REQSTACK()
```

### Event 65535.24

#### Metadata

| Field        | Value    |
|--------------|----------|
| Entrypoint   | 0x02CA   |
| Data Size    | 19 bytes |
| Instructions | 5        |

```
      00 01 02 03 04 05 06 07  08 09 0A 0B 0C 0D 0E 0F
      -- -- -- -- -- -- -- --  -- -- -- -- -- -- -- --
02C0:                                29 08 2A A0 0F 01            ).*...
02D0: 01 1D 1F 80 23 29 08 2A  A0 0F 01 02 00           ....#).*.....   
```

#### Opcodes

```
  0: 0x02CA [0x29] REQ_SET_WAIT(priority=0x08, entity_id=Soun Abralah (ID: 17801258/0x010FA02A), tag_num=0x01)
  1: 0x02D1 [0x1D] PRINT_EVENT_MESSAGE(message_id=10091*)
    → "Wait, [sir/ma'am]. Would you have the time to retrieve another piece of $3?"
  2: 0x02D4 [0x23] WAIT_FOR_DIALOG_INTERACTION
  3: 0x02D5 [0x29] REQ_SET_WAIT(priority=0x08, entity_id=Soun Abralah (ID: 17801258/0x010FA02A), tag_num=0x02)
  4: 0x02DC [0x00] END_REQSTACK()
```
