# 17801282 - Mhebi Juhbily

## Common Data

| Field            | Value            |
|------------------|------------------|
| Zone             | Kazham (ID: 250) |
| Block Size       | 1760 bytes       |
| Total Events     | 41               |
| References Count | 48               |

## List of Events

| Event ID                   | Entrypoint   |   Size |   Instructions |
|----------------------------|--------------|--------|----------------|
| [65535](#event-65535)      | 0x0000       |      1 |              1 |
| [65535.1](#event-655351)   | 0x0001       |     16 |              2 |
| [65535.2](#event-655352)   | 0x0011       |     22 |              4 |
| [65535.3](#event-655353)   | 0x0027       |     16 |              2 |
| [65535.4](#event-655354)   | 0x0037       |     14 |              2 |
| [65535.5](#event-655355)   | 0x0045       |     22 |              3 |
| [65535.6](#event-655356)   | 0x005B       |     14 |              2 |
| [65535.7](#event-655357)   | 0x0069       |     16 |              2 |
| [65535.8](#event-655358)   | 0x0079       |     20 |              3 |
| [65535.9](#event-655359)   | 0x008D       |     22 |              3 |
| [65535.10](#event-6553510) | 0x00A3       |     20 |              3 |
| [65535.11](#event-6553511) | 0x00B7       |     22 |              3 |
| [65535.12](#event-6553512) | 0x00CD       |     20 |              3 |
| [65535.13](#event-6553513) | 0x00E1       |     16 |              2 |
| [65535.14](#event-6553514) | 0x00F1       |     14 |              2 |
| [65535.15](#event-6553515) | 0x00FF       |     16 |              2 |
| [65535.16](#event-6553516) | 0x010F       |     14 |              2 |
| [65535.17](#event-6553517) | 0x011D       |     16 |              2 |
| [65535.18](#event-6553518) | 0x012D       |     14 |              2 |
| [65535.19](#event-6553519) | 0x013B       |     28 |              4 |
| [65535.20](#event-6553520) | 0x0157       |     26 |              4 |
| [65535.21](#event-6553521) | 0x0171       |      9 |              3 |
| [125](#event-125)          | 0x017A       |     33 |             12 |
| [126](#event-126)          | 0x019B       |     47 |             14 |
| [127](#event-127)          | 0x01CA       |    124 |             31 |
| [318](#event-318)          | 0x0246       |     20 |              6 |
| [65535.22](#event-6553522) | 0x025A       |     10 |              2 |
| [65535.23](#event-6553523) | 0x0264       |     14 |              4 |
| [128](#event-128)          | 0x0272       |      1 |              1 |
| [65535.24](#event-6553524) | 0x0273       |     26 |              8 |
| [65535.25](#event-6553525) | 0x028D       |     19 |              5 |
| [65535.26](#event-6553526) | 0x02A0       |     19 |              5 |
| [65535.27](#event-6553527) | 0x02B3       |     19 |              5 |
| [65535.28](#event-6553528) | 0x02C6       |     19 |              5 |
| [65535.29](#event-6553529) | 0x02D9       |      5 |              3 |
| [129](#event-129)          | 0x02DE       |     54 |             15 |
| [133](#event-133)          | 0x0314       |    511 |             68 |
| [65535.30](#event-6553530) | 0x0513       |      5 |              3 |
| [65535.31](#event-6553531) | 0x0518       |      5 |              3 |
| [134](#event-134)          | 0x051D       |     29 |             10 |
| [135](#event-135)          | 0x053A       |     47 |             14 |

## DAT References (imed_data)

|   Index | Hex Value   |   Dec Value |
|---------|-------------|-------------|
|       0 | 0x0166      |         358 |
|       1 | 0x001E      |          30 |
|       2 | 0x016C      |         364 |
|       3 | 0x0168      |         360 |
|       4 | 0x27C1      |       10177 |
|       5 | 0x27C2      |       10178 |
|       6 | 0x27C3      |       10179 |
|       7 | 0x27C4      |       10180 |
|       8 | 0x27C5      |       10181 |
|       9 | 0x27C6      |       10182 |
|      10 | 0x27C7      |       10183 |
|      11 | 0x0000      |           0 |
|      12 | 0x27C8      |       10184 |
|      13 | 0x27C9      |       10185 |
|      14 | 0x01FF      |         511 |
|      15 | 0x0001      |           1 |
|      16 | 0x01FE      |         510 |
|      17 | 0x9C21      |       39969 |
|      18 | 0xFFFD7097  |  4294799511 |
|      19 | 0xFFFFD509  |  4294956297 |
|      20 | 0x0986      |        2438 |
|      21 | 0x000D      |          13 |
|      22 | 0x9AC1      |       39617 |
|      23 | 0xFFFD71B7  |  4294799799 |
|      24 | 0x27CA      |       10186 |
|      25 | 0x27CC      |       10188 |
|      26 | 0x27CE      |       10190 |
|      27 | 0x27CF      |       10191 |
|      28 | 0x27D0      |       10192 |
|      29 | 0x27D3      |       10195 |
|      30 | 0x27DA      |       10202 |
|      31 | 0x27DB      |       10203 |
|      32 | 0x00C8      |         200 |
|      33 | 0x003C      |          60 |
|      34 | 0x0003      |           3 |
|      35 | 0x0078      |         120 |
|      36 | 0x0096      |         150 |
|      37 | 0x27E5      |       10213 |
|      38 | 0x0005      |           5 |
|      39 | 0x0006      |           6 |
|      40 | 0x27E7      |       10215 |
|      41 | 0x27E8      |       10216 |
|      42 | 0x00C9      |         201 |
|      43 | 0x27E4      |       10212 |
|      44 | 0x27E6      |       10214 |
|      45 | 0x27E9      |       10217 |
|      46 | 0x27EA      |       10218 |
|      47 | 0x27EB      |       10219 |

## String References

- **10177**: ...
- **10178**: You still herrre? Why don't you just get out of my face and let me sulk in peace!?
- **10179**: Quit it!
- **10180**: You shouldn't be snooping around in other people's prrroperty!
- **10181**: No way...
- **10182**: $1! I love these things! Look at how the scales shine!
- **10183**: Give her the $1? [Forthwith./Nope.]
- **10184**: Forrr me? Oh, this is absolutely lovely!
- **10185**: Why, this is purrrfect!
- **10186**: Damn! You've found him!
- **10188**: My buddy's name is Tonberri<Player>qo. Sounds sophisticated, huh? I gave it to him myself.
- **10190**: But because his knife got wet, it rusted, and now he can't use it for hunting his food.
- **10191**: I've been trying to help by bringing him meat and letting him sleep herrre, but...
- **10192**: Well, now that you've seen him, you're in this with me.
- **10195**: Thanks. What I want to do is get this guy's knife back in chip-chop shape so I can take him back to the jungle.
- **10202**: I want to take Tonberri<Player>qo back to the jungle, but we have to do something about his knife.
- **10203**: You don't happen to have any good ideas, do you?
- **10212**: Whoa! Where did you get that knife?
- **10213**: Tonberri<Player>qo begins to steam with happiness...(?)
- **10214**: He likes it! Hey, <Player>! Tonberri<Player>qo likes it!
- **10215**: I had my doubts about you, but you rrreally came through for me and my buddy.
- **10216**: Now it's my turn to take Tonberri<Player>qo back to the jungle where he belongs. I'll miss the little green guy, though.
- **10217**: I had my doubts about you, but you rrreally came through for me and my buddy. Now I just have to take Tonberri<Player>qo back to the jungle where he belongs.
- **10218**: If you want to see Tonberri<Player>qo, he's still living in that shed.
- **10219**: He won't move an inch! Do you think that maybe he likes it better herrre in the village?

## Events

### Event 65535

#### Metadata

| Field        | Value   |
|--------------|---------|
| Entrypoint   | 0x0000  |
| Data Size    | 1 bytes |
| Instructions | 1       |

```
      00 01 02 03 04 05 06 07  08 09 0A 0B 0C 0D 0E 0F
      -- -- -- -- -- -- -- --  -- -- -- -- -- -- -- --
0000: 00                                                .               
```

#### Opcodes

```
  0: 0x0000 [0x00] END_REQSTACK()
```

### Event 65535.1

#### Metadata

| Field        | Value    |
|--------------|----------|
| Entrypoint   | 0x0001   |
| Data Size    | 16 bytes |
| Instructions | 2        |

```
      00 01 02 03 04 05 06 07  08 09 0A 0B 0C 0D 0E 0F
      -- -- -- -- -- -- -- --  -- -- -- -- -- -- -- --
0000:    5B 00 80 F8 FF FF 7F  F8 FF FF 7F 74 6C 6B 30   [..........tlk0
0010: 00                                                .               
```

#### Opcodes

```
  0: 0x0001 [0x5B] LOAD_EXT_SCHEDULER: Load scheduler "tlk0" with entities [EventEntity, EventEntity], work=358*
  1: 0x0010 [0x00] END_REQSTACK()
```

### Event 65535.2

#### Metadata

| Field        | Value    |
|--------------|----------|
| Entrypoint   | 0x0011   |
| Data Size    | 22 bytes |
| Instructions | 4        |

```
      00 01 02 03 04 05 06 07  08 09 0A 0B 0C 0D 0E 0F
      -- -- -- -- -- -- -- --  -- -- -- -- -- -- -- --
0010:    53 F8 FF FF 7F F8 FF  FF 7F 74 6C 6B 30 5E 69   S........tlk0^i
0020: 64 6C 30 1C 01 80 00                              dl0....         
```

#### Opcodes

```
  0: 0x0011 [0x53] WAIT_SCHEDULER_TASK: Wait for scheduler "tlk0" with entities [EventEntity, EventEntity]
  1: 0x001E [0x5E] EventEntity goes idle (kills current action) (animation: "idl0")
  2: 0x0023 [0x1C] WAIT(30* ticks)
  3: 0x0026 [0x00] END_REQSTACK()
```

### Event 65535.3

#### Metadata

| Field        | Value    |
|--------------|----------|
| Entrypoint   | 0x0027   |
| Data Size    | 16 bytes |
| Instructions | 2        |

```
      00 01 02 03 04 05 06 07  08 09 0A 0B 0C 0D 0E 0F
      -- -- -- -- -- -- -- --  -- -- -- -- -- -- -- --
0020:                      5B  00 80 F8 FF FF 7F F8 FF         [........
0030: FF 7F 74 6C 6B 32 00                              ..tlk2.         
```

#### Opcodes

```
  0: 0x0027 [0x5B] LOAD_EXT_SCHEDULER: Load scheduler "tlk2" with entities [EventEntity, EventEntity], work=358*
  1: 0x0036 [0x00] END_REQSTACK()
```

### Event 65535.4

#### Metadata

| Field        | Value    |
|--------------|----------|
| Entrypoint   | 0x0037   |
| Data Size    | 14 bytes |
| Instructions | 2        |

```
      00 01 02 03 04 05 06 07  08 09 0A 0B 0C 0D 0E 0F
      -- -- -- -- -- -- -- --  -- -- -- -- -- -- -- --
0030:                      53  F8 FF FF 7F F8 FF FF 7F         S........
0040: 74 6C 6B 32 00                                    tlk2.           
```

#### Opcodes

```
  0: 0x0037 [0x53] WAIT_SCHEDULER_TASK: Wait for scheduler "tlk2" with entities [EventEntity, EventEntity]
  1: 0x0044 [0x00] END_REQSTACK()
```

### Event 65535.5

#### Metadata

| Field        | Value    |
|--------------|----------|
| Entrypoint   | 0x0045   |
| Data Size    | 22 bytes |
| Instructions | 3        |

```
      00 01 02 03 04 05 06 07  08 09 0A 0B 0C 0D 0E 0F
      -- -- -- -- -- -- -- --  -- -- -- -- -- -- -- --
0040:                81 00 F8  FF FF 7F 5B 00 80 F8 FF       ......[....
0050: FF 7F F8 FF FF 7F 74 68  6B 31 00                 ......thk1.     
```

#### Opcodes

```
  0: 0x0045 [0x81] SET_ENTITY_BLINKING(blink_flag=0x00, entity=EventEntity)
  1: 0x004B [0x5B] LOAD_EXT_SCHEDULER: Load scheduler "thk1" with entities [EventEntity, EventEntity], work=358*
  2: 0x005A [0x00] END_REQSTACK()
```

### Event 65535.6

#### Metadata

| Field        | Value    |
|--------------|----------|
| Entrypoint   | 0x005B   |
| Data Size    | 14 bytes |
| Instructions | 2        |

```
      00 01 02 03 04 05 06 07  08 09 0A 0B 0C 0D 0E 0F
      -- -- -- -- -- -- -- --  -- -- -- -- -- -- -- --
0050:                                   53 F8 FF FF 7F             S....
0060: F8 FF FF 7F 74 68 6B 31  00                       ....thk1.       
```

#### Opcodes

```
  0: 0x005B [0x53] WAIT_SCHEDULER_TASK: Wait for scheduler "thk1" with entities [EventEntity, EventEntity]
  1: 0x0068 [0x00] END_REQSTACK()
```

### Event 65535.7

#### Metadata

| Field        | Value    |
|--------------|----------|
| Entrypoint   | 0x0069   |
| Data Size    | 16 bytes |
| Instructions | 2        |

```
      00 01 02 03 04 05 06 07  08 09 0A 0B 0C 0D 0E 0F
      -- -- -- -- -- -- -- --  -- -- -- -- -- -- -- --
0060:                             5B 00 80 F8 FF FF 7F           [......
0070: F8 FF FF 7F 74 68 6B 32  00                       ....thk2.       
```

#### Opcodes

```
  0: 0x0069 [0x5B] LOAD_EXT_SCHEDULER: Load scheduler "thk2" with entities [EventEntity, EventEntity], work=358*
  1: 0x0078 [0x00] END_REQSTACK()
```

### Event 65535.8

#### Metadata

| Field        | Value    |
|--------------|----------|
| Entrypoint   | 0x0079   |
| Data Size    | 20 bytes |
| Instructions | 3        |

```
      00 01 02 03 04 05 06 07  08 09 0A 0B 0C 0D 0E 0F
      -- -- -- -- -- -- -- --  -- -- -- -- -- -- -- --
0070:                             53 F8 FF FF 7F F8 FF           S......
0080: FF 7F 74 68 6B 32 81 01  F8 FF FF 7F 00           ..thk2.......   
```

#### Opcodes

```
  0: 0x0079 [0x53] WAIT_SCHEDULER_TASK: Wait for scheduler "thk2" with entities [EventEntity, EventEntity]
  1: 0x0086 [0x81] SET_ENTITY_BLINKING(blink_flag=0x01, entity=EventEntity)
  2: 0x008C [0x00] END_REQSTACK()
```

### Event 65535.9

#### Metadata

| Field        | Value    |
|--------------|----------|
| Entrypoint   | 0x008D   |
| Data Size    | 22 bytes |
| Instructions | 3        |

```
      00 01 02 03 04 05 06 07  08 09 0A 0B 0C 0D 0E 0F
      -- -- -- -- -- -- -- --  -- -- -- -- -- -- -- --
0080:                                         81 00 F8               ...
0090: FF FF 7F 5B 00 80 F8 FF  FF 7F F8 FF FF 7F 73 69  ...[..........si
00A0: 73 30 00                                          s0.             
```

#### Opcodes

```
  0: 0x008D [0x81] SET_ENTITY_BLINKING(blink_flag=0x00, entity=EventEntity)
  1: 0x0093 [0x5B] LOAD_EXT_SCHEDULER: Load scheduler "sis0" with entities [EventEntity, EventEntity], work=358*
  2: 0x00A2 [0x00] END_REQSTACK()
```

### Event 65535.10

#### Metadata

| Field        | Value    |
|--------------|----------|
| Entrypoint   | 0x00A3   |
| Data Size    | 20 bytes |
| Instructions | 3        |

```
      00 01 02 03 04 05 06 07  08 09 0A 0B 0C 0D 0E 0F
      -- -- -- -- -- -- -- --  -- -- -- -- -- -- -- --
00A0:          53 F8 FF FF 7F  F8 FF FF 7F 73 69 73 30     S........sis0
00B0: 81 01 F8 FF FF 7F 00                              .......         
```

#### Opcodes

```
  0: 0x00A3 [0x53] WAIT_SCHEDULER_TASK: Wait for scheduler "sis0" with entities [EventEntity, EventEntity]
  1: 0x00B0 [0x81] SET_ENTITY_BLINKING(blink_flag=0x01, entity=EventEntity)
  2: 0x00B6 [0x00] END_REQSTACK()
```

### Event 65535.11

#### Metadata

| Field        | Value    |
|--------------|----------|
| Entrypoint   | 0x00B7   |
| Data Size    | 22 bytes |
| Instructions | 3        |

```
      00 01 02 03 04 05 06 07  08 09 0A 0B 0C 0D 0E 0F
      -- -- -- -- -- -- -- --  -- -- -- -- -- -- -- --
00B0:                      7C  00 F8 FF FF 7F 5B 00 80         |.....[..
00C0: F8 FF FF 7F F8 FF FF 7F  67 75 74 30 00           ........gut0.   
```

#### Opcodes

```
  0: 0x00B7 [0x7C] EventEntity->Render.Flags2 |= 0x00
  1: 0x00BD [0x5B] LOAD_EXT_SCHEDULER: Load scheduler "gut0" with entities [EventEntity, EventEntity], work=358*
  2: 0x00CC [0x00] END_REQSTACK()
```

### Event 65535.12

#### Metadata

| Field        | Value    |
|--------------|----------|
| Entrypoint   | 0x00CD   |
| Data Size    | 20 bytes |
| Instructions | 3        |

```
      00 01 02 03 04 05 06 07  08 09 0A 0B 0C 0D 0E 0F
      -- -- -- -- -- -- -- --  -- -- -- -- -- -- -- --
00C0:                                         53 F8 FF               S..
00D0: FF 7F F8 FF FF 7F 67 75  74 30 7C 01 F8 FF FF 7F  ......gut0|.....
00E0: 00                                                .               
```

#### Opcodes

```
  0: 0x00CD [0x53] WAIT_SCHEDULER_TASK: Wait for scheduler "gut0" with entities [EventEntity, EventEntity]
  1: 0x00DA [0x7C] EventEntity->Render.Flags2 |= 0x01
  2: 0x00E0 [0x00] END_REQSTACK()
```

### Event 65535.13

#### Metadata

| Field        | Value    |
|--------------|----------|
| Entrypoint   | 0x00E1   |
| Data Size    | 16 bytes |
| Instructions | 2        |

```
      00 01 02 03 04 05 06 07  08 09 0A 0B 0C 0D 0E 0F
      -- -- -- -- -- -- -- --  -- -- -- -- -- -- -- --
00E0:    5B 02 80 F8 FF FF 7F  F8 FF FF 7F 70 6F 69 30   [..........poi0
00F0: 00                                                .               
```

#### Opcodes

```
  0: 0x00E1 [0x5B] LOAD_EXT_SCHEDULER: Load scheduler "poi0" with entities [EventEntity, EventEntity], work=364*
  1: 0x00F0 [0x00] END_REQSTACK()
```

### Event 65535.14

#### Metadata

| Field        | Value    |
|--------------|----------|
| Entrypoint   | 0x00F1   |
| Data Size    | 14 bytes |
| Instructions | 2        |

```
      00 01 02 03 04 05 06 07  08 09 0A 0B 0C 0D 0E 0F
      -- -- -- -- -- -- -- --  -- -- -- -- -- -- -- --
00F0:    53 F8 FF FF 7F F8 FF  FF 7F 70 6F 69 30 00      S........poi0. 
```

#### Opcodes

```
  0: 0x00F1 [0x53] WAIT_SCHEDULER_TASK: Wait for scheduler "poi0" with entities [EventEntity, EventEntity]
  1: 0x00FE [0x00] END_REQSTACK()
```

### Event 65535.15

#### Metadata

| Field        | Value    |
|--------------|----------|
| Entrypoint   | 0x00FF   |
| Data Size    | 16 bytes |
| Instructions | 2        |

```
      00 01 02 03 04 05 06 07  08 09 0A 0B 0C 0D 0E 0F
      -- -- -- -- -- -- -- --  -- -- -- -- -- -- -- --
00F0:                                               5B                 [
0100: 03 80 F8 FF FF 7F F8 FF  FF 7F 70 6F 69 31 00     ..........poi1. 
```

#### Opcodes

```
  0: 0x00FF [0x5B] LOAD_EXT_SCHEDULER: Load scheduler "poi1" with entities [EventEntity, EventEntity], work=360*
  1: 0x010E [0x00] END_REQSTACK()
```

### Event 65535.16

#### Metadata

| Field        | Value    |
|--------------|----------|
| Entrypoint   | 0x010F   |
| Data Size    | 14 bytes |
| Instructions | 2        |

```
      00 01 02 03 04 05 06 07  08 09 0A 0B 0C 0D 0E 0F
      -- -- -- -- -- -- -- --  -- -- -- -- -- -- -- --
0100:                                               53                 S
0110: F8 FF FF 7F F8 FF FF 7F  70 6F 69 31 00           ........poi1.   
```

#### Opcodes

```
  0: 0x010F [0x53] WAIT_SCHEDULER_TASK: Wait for scheduler "poi1" with entities [EventEntity, EventEntity]
  1: 0x011C [0x00] END_REQSTACK()
```

### Event 65535.17

#### Metadata

| Field        | Value    |
|--------------|----------|
| Entrypoint   | 0x011D   |
| Data Size    | 16 bytes |
| Instructions | 2        |

```
      00 01 02 03 04 05 06 07  08 09 0A 0B 0C 0D 0E 0F
      -- -- -- -- -- -- -- --  -- -- -- -- -- -- -- --
0110:                                         5B 03 80               [..
0120: F8 FF FF 7F F8 FF FF 7F  70 6F 69 33 00           ........poi3.   
```

#### Opcodes

```
  0: 0x011D [0x5B] LOAD_EXT_SCHEDULER: Load scheduler "poi3" with entities [EventEntity, EventEntity], work=360*
  1: 0x012C [0x00] END_REQSTACK()
```

### Event 65535.18

#### Metadata

| Field        | Value    |
|--------------|----------|
| Entrypoint   | 0x012D   |
| Data Size    | 14 bytes |
| Instructions | 2        |

```
      00 01 02 03 04 05 06 07  08 09 0A 0B 0C 0D 0E 0F
      -- -- -- -- -- -- -- --  -- -- -- -- -- -- -- --
0120:                                         53 F8 FF               S..
0130: FF 7F F8 FF FF 7F 70 6F  69 33 00                 ......poi3.     
```

#### Opcodes

```
  0: 0x012D [0x53] WAIT_SCHEDULER_TASK: Wait for scheduler "poi3" with entities [EventEntity, EventEntity]
  1: 0x013A [0x00] END_REQSTACK()
```

### Event 65535.19

#### Metadata

| Field        | Value    |
|--------------|----------|
| Entrypoint   | 0x013B   |
| Data Size    | 28 bytes |
| Instructions | 4        |

```
      00 01 02 03 04 05 06 07  08 09 0A 0B 0C 0D 0E 0F
      -- -- -- -- -- -- -- --  -- -- -- -- -- -- -- --
0130:                                   7C 00 F8 FF FF             |....
0140: 7F 81 00 F8 FF FF 7F 5B  02 80 F8 FF FF 7F F8 FF  .......[........
0150: FF 7F 61 6E 67 30 00                              ..ang0.         
```

#### Opcodes

```
  0: 0x013B [0x7C] EventEntity->Render.Flags2 |= 0x00
  1: 0x0141 [0x81] SET_ENTITY_BLINKING(blink_flag=0x00, entity=EventEntity)
  2: 0x0147 [0x5B] LOAD_EXT_SCHEDULER: Load scheduler "ang0" with entities [EventEntity, EventEntity], work=364*
  3: 0x0156 [0x00] END_REQSTACK()
```

### Event 65535.20

#### Metadata

| Field        | Value    |
|--------------|----------|
| Entrypoint   | 0x0157   |
| Data Size    | 26 bytes |
| Instructions | 4        |

```
      00 01 02 03 04 05 06 07  08 09 0A 0B 0C 0D 0E 0F
      -- -- -- -- -- -- -- --  -- -- -- -- -- -- -- --
0150:                      53  F8 FF FF 7F F8 FF FF 7F         S........
0160: 61 6E 67 30 7C 01 F8 FF  FF 7F 81 01 F8 FF FF 7F  ang0|...........
0170: 00                                                .               
```

#### Opcodes

```
  0: 0x0157 [0x53] WAIT_SCHEDULER_TASK: Wait for scheduler "ang0" with entities [EventEntity, EventEntity]
  1: 0x0164 [0x7C] EventEntity->Render.Flags2 |= 0x01
  2: 0x016A [0x81] SET_ENTITY_BLINKING(blink_flag=0x01, entity=EventEntity)
  3: 0x0170 [0x00] END_REQSTACK()
```

### Event 65535.21

#### Metadata

| Field        | Value   |
|--------------|---------|
| Entrypoint   | 0x0171  |
| Data Size    | 9 bytes |
| Instructions | 3       |

```
      00 01 02 03 04 05 06 07  08 09 0A 0B 0C 0D 0E 0F
      -- -- -- -- -- -- -- --  -- -- -- -- -- -- -- --
0170:    5E 69 64 6C 30 1C 01  80 00                     ^idl0....      
```

#### Opcodes

```
  0: 0x0171 [0x5E] EventEntity goes idle (kills current action) (animation: "idl0")
  1: 0x0176 [0x1C] WAIT(30* ticks)
  2: 0x0179 [0x00] END_REQSTACK()
```

### Event 125

#### Metadata

| Field        | Value    |
|--------------|----------|
| Entrypoint   | 0x017A   |
| Data Size    | 33 bytes |
| Instructions | 12       |

```
      00 01 02 03 04 05 06 07  08 09 0A 0B 0C 0D 0E 0F
      -- -- -- -- -- -- -- --  -- -- -- -- -- -- -- --
0170:                                1D 04 80 23 1E F0            ...#..
0180: FF FF 7F 6F 70 29 08 42  A0 0F 01 13 1D 05 80 23  ...op).B.......#
0190: 29 08 42 A0 0F 01 14 20  00 21 00                 ).B.... .!.     
```

#### Opcodes

```
  0: 0x017A [0x1D] PRINT_EVENT_MESSAGE(message_id=10177*)
    → "..."
  1: 0x017D [0x23] WAIT_FOR_DIALOG_INTERACTION
  2: 0x017E [0x1E] EventEntity looks at LocalPlayer and starts talking
  3: 0x0183 [0x6F] WAIT_FRAME_DELAY: Yield until WaitTime reaches zero
  4: 0x0184 [0x70] WAIT_ENTITY_RENDER_FLAG: Wait while EventEntity->Render.Flags3 bit 2 is set (cancel turn if not)
  5: 0x0185 [0x29] REQ_SET_WAIT(priority=0x08, entity_id=Mhebi Juhbily (ID: 17801282/0x010FA042), tag_num=0x13)
  6: 0x018C [0x1D] PRINT_EVENT_MESSAGE(message_id=10178*)
    → "You still herrre? Why don't you just get out of my face and let me sulk in peace!?"
  7: 0x018F [0x23] WAIT_FOR_DIALOG_INTERACTION
  8: 0x0190 [0x29] REQ_SET_WAIT(priority=0x08, entity_id=Mhebi Juhbily (ID: 17801282/0x010FA042), tag_num=0x14)
  9: 0x0197 [0x20] SET_CLI_EVENT_UC_FLAG: Unlock player control
 10: 0x0199 [0x21] END_EVENT
 11: 0x019A [0x00] END_REQSTACK()
```

### Event 126

#### Metadata

| Field        | Value    |
|--------------|----------|
| Entrypoint   | 0x019B   |
| Data Size    | 47 bytes |
| Instructions | 14       |

```
      00 01 02 03 04 05 06 07  08 09 0A 0B 0C 0D 0E 0F
      -- -- -- -- -- -- -- --  -- -- -- -- -- -- -- --
0190:                                   1E F0 FF FF 7F             .....
01A0: 6F 70 29 08 42 A0 0F 01  13 1D 06 80 23 29 08 42  op).B.......#).B
01B0: A0 0F 01 14 29 08 42 A0  0F 01 09 1D 07 80 23 29  ....).B.......#)
01C0: 08 42 A0 0F 01 0A 20 00  21 00                    .B.... .!.      
```

#### Opcodes

```
  0: 0x019B [0x1E] EventEntity looks at LocalPlayer and starts talking
  1: 0x01A0 [0x6F] WAIT_FRAME_DELAY: Yield until WaitTime reaches zero
  2: 0x01A1 [0x70] WAIT_ENTITY_RENDER_FLAG: Wait while EventEntity->Render.Flags3 bit 2 is set (cancel turn if not)
  3: 0x01A2 [0x29] REQ_SET_WAIT(priority=0x08, entity_id=Mhebi Juhbily (ID: 17801282/0x010FA042), tag_num=0x13)
  4: 0x01A9 [0x1D] PRINT_EVENT_MESSAGE(message_id=10179*)
    → "Quit it!"
  5: 0x01AC [0x23] WAIT_FOR_DIALOG_INTERACTION
  6: 0x01AD [0x29] REQ_SET_WAIT(priority=0x08, entity_id=Mhebi Juhbily (ID: 17801282/0x010FA042), tag_num=0x14)
  7: 0x01B4 [0x29] REQ_SET_WAIT(priority=0x08, entity_id=Mhebi Juhbily (ID: 17801282/0x010FA042), tag_num=0x09)
  8: 0x01BB [0x1D] PRINT_EVENT_MESSAGE(message_id=10180*)
    → "You shouldn't be snooping around in other people's prrroperty!"
  9: 0x01BE [0x23] WAIT_FOR_DIALOG_INTERACTION
 10: 0x01BF [0x29] REQ_SET_WAIT(priority=0x08, entity_id=Mhebi Juhbily (ID: 17801282/0x010FA042), tag_num=0x0A)
 11: 0x01C6 [0x20] SET_CLI_EVENT_UC_FLAG: Unlock player control
 12: 0x01C8 [0x21] END_EVENT
 13: 0x01C9 [0x00] END_REQSTACK()
```

### Event 127

#### Metadata

| Field        | Value     |
|--------------|-----------|
| Entrypoint   | 0x01CA    |
| Data Size    | 124 bytes |
| Instructions | 31        |

```
      00 01 02 03 04 05 06 07  08 09 0A 0B 0C 0D 0E 0F
      -- -- -- -- -- -- -- --  -- -- -- -- -- -- -- --
01C0:                                42 1E F0 FF FF 7F            B.....
01D0: 6F 70 29 08 42 A0 0F 01  01 1D 08 80 23 29 08 42  op).B.......#).B
01E0: A0 0F 01 02 29 08 42 A0  0F 01 0B 1D 09 80 23 29  ....).B.......#)
01F0: 08 42 A0 0F 01 0C 24 0A  80 0B 80 0B 80 25 02 00  .B....$......%..
0200: 10 0B 80 00 32 02 29 08  42 A0 0F 01 13 1D 0C 80  ....2.).B.......
0210: 23 29 08 42 A0 0F 01 14  29 08 42 A0 0F 01 0B 1D  #).B....).B.....
0220: 0D 80 23 29 08 42 A0 0F  01 0C 03 01 10 0E 80 01  ..#).B..........
0230: 42 02 02 00 10 0F 80 00  42 02 03 01 10 10 80 01  B.......B.......
0240: 42 02 20 00 21 00                                 B. .!.          
```

#### Opcodes

```
  0: 0x01CA [0x42] SET_CLI_EVENT_CANCEL_DATA()
  1: 0x01CB [0x1E] EventEntity looks at LocalPlayer and starts talking
  2: 0x01D0 [0x6F] WAIT_FRAME_DELAY: Yield until WaitTime reaches zero
  3: 0x01D1 [0x70] WAIT_ENTITY_RENDER_FLAG: Wait while EventEntity->Render.Flags3 bit 2 is set (cancel turn if not)
  4: 0x01D2 [0x29] REQ_SET_WAIT(priority=0x08, entity_id=Mhebi Juhbily (ID: 17801282/0x010FA042), tag_num=0x01)
  5: 0x01D9 [0x1D] PRINT_EVENT_MESSAGE(message_id=10181*)
    → "No way..."
  6: 0x01DC [0x23] WAIT_FOR_DIALOG_INTERACTION
  7: 0x01DD [0x29] REQ_SET_WAIT(priority=0x08, entity_id=Mhebi Juhbily (ID: 17801282/0x010FA042), tag_num=0x02)
  8: 0x01E4 [0x29] REQ_SET_WAIT(priority=0x08, entity_id=Mhebi Juhbily (ID: 17801282/0x010FA042), tag_num=0x0B)
  9: 0x01EB [0x1D] PRINT_EVENT_MESSAGE(message_id=10182*)
    → "$1! I love these things! Look at how the scales shine!"
 10: 0x01EE [0x23] WAIT_FOR_DIALOG_INTERACTION
 11: 0x01EF [0x29] REQ_SET_WAIT(priority=0x08, entity_id=Mhebi Juhbily (ID: 17801282/0x010FA042), tag_num=0x0C)
 12: 0x01F6 [0x24] CREATE_DIALOG(message_id=10183*, default_option=0*, option_flags=0*)
    → "Give her the $1? [Forthwith./Nope.]"
 13: 0x01FD [0x25] WAIT_DIALOG_SELECT()
 14: 0x01FE [0x02] IF !(Work_Zone[0] == 0*) GOTO 0x0232
 15: 0x0206 [0x29] REQ_SET_WAIT(priority=0x08, entity_id=Mhebi Juhbily (ID: 17801282/0x010FA042), tag_num=0x13)
 16: 0x020D [0x1D] PRINT_EVENT_MESSAGE(message_id=10184*)
    → "Forrr me? Oh, this is absolutely lovely!"
 17: 0x0210 [0x23] WAIT_FOR_DIALOG_INTERACTION
 18: 0x0211 [0x29] REQ_SET_WAIT(priority=0x08, entity_id=Mhebi Juhbily (ID: 17801282/0x010FA042), tag_num=0x14)
 19: 0x0218 [0x29] REQ_SET_WAIT(priority=0x08, entity_id=Mhebi Juhbily (ID: 17801282/0x010FA042), tag_num=0x0B)
 20: 0x021F [0x1D] PRINT_EVENT_MESSAGE(message_id=10185*)
    → "Why, this is purrrfect!"
 21: 0x0222 [0x23] WAIT_FOR_DIALOG_INTERACTION
 22: 0x0223 [0x29] REQ_SET_WAIT(priority=0x08, entity_id=Mhebi Juhbily (ID: 17801282/0x010FA042), tag_num=0x0C)
 23: 0x022A [0x03] Work_Zone[1] = 511*
 24: 0x022F [0x01] GOTO 0x0242
 25: 0x0232 [0x02] IF !(Work_Zone[0] == 1*) GOTO 0x0242
 26: 0x023A [0x03] Work_Zone[1] = 510*
 27: 0x023F [0x01] GOTO 0x0242

SUBROUTINE_0242:
 28: 0x0242 [0x20] SET_CLI_EVENT_UC_FLAG: Unlock player control
 29: 0x0244 [0x21] END_EVENT
 30: 0x0245 [0x00] END_REQSTACK()
```

### Event 318

#### Metadata

| Field        | Value    |
|--------------|----------|
| Entrypoint   | 0x0246   |
| Data Size    | 20 bytes |
| Instructions | 6        |

```
      00 01 02 03 04 05 06 07  08 09 0A 0B 0C 0D 0E 0F
      -- -- -- -- -- -- -- --  -- -- -- -- -- -- -- --
0240:                   29 08  42 A0 0F 01 0B 1D 0D 80        ).B.......
0250: 23 29 08 42 A0 0F 01 0C  21 00                    #).B....!.      
```

#### Opcodes

```
  0: 0x0246 [0x29] REQ_SET_WAIT(priority=0x08, entity_id=Mhebi Juhbily (ID: 17801282/0x010FA042), tag_num=0x0B)
  1: 0x024D [0x1D] PRINT_EVENT_MESSAGE(message_id=10185*)
    → "Why, this is purrrfect!"
  2: 0x0250 [0x23] WAIT_FOR_DIALOG_INTERACTION
  3: 0x0251 [0x29] REQ_SET_WAIT(priority=0x08, entity_id=Mhebi Juhbily (ID: 17801282/0x010FA042), tag_num=0x0C)
  4: 0x0258 [0x21] END_EVENT
  5: 0x0259 [0x00] END_REQSTACK()
```

### Event 65535.22

#### Metadata

| Field        | Value    |
|--------------|----------|
| Entrypoint   | 0x025A   |
| Data Size    | 10 bytes |
| Instructions | 2        |

```
      00 01 02 03 04 05 06 07  08 09 0A 0B 0C 0D 0E 0F
      -- -- -- -- -- -- -- --  -- -- -- -- -- -- -- --
0250:                                37 11 80 12 80 13            7.....
0260: 80 14 80 00                                       ....            
```

#### Opcodes

```
  0: 0x025A [0x37] UPDATE_EVENT_POSITION_AND_DIR: x=39.969*, z=-167.785*, y=-10.999*, direction=214.3°*
  1: 0x0263 [0x00] END_REQSTACK()
```

### Event 65535.23

#### Metadata

| Field        | Value    |
|--------------|----------|
| Entrypoint   | 0x0264   |
| Data Size    | 14 bytes |
| Instructions | 4        |

```
      00 01 02 03 04 05 06 07  08 09 0A 0B 0C 0D 0E 0F
      -- -- -- -- -- -- -- --  -- -- -- -- -- -- -- --
0260:             32 15 80 1F  00 16 80 17 80 13 80 1F      2...........
0270: 01 00                                             ..              
```

#### Opcodes

```
  0: 0x0264 [0x32] ExtData[1]->MainSpeed = 13* * 0.1
  1: 0x0267 [0x1F] MOVE_ENTITY: EventEntity moves to X=39.617*, Z=-167.497*, Y=-10.999*
  2: 0x026F [0x1F] MOVE_ENTITY: Update entity position (mode=1)
  3: 0x0271 [0x00] END_REQSTACK()
```

### Event 128

#### Metadata

| Field        | Value   |
|--------------|---------|
| Entrypoint   | 0x0272  |
| Data Size    | 1 bytes |
| Instructions | 1       |

```
      00 01 02 03 04 05 06 07  08 09 0A 0B 0C 0D 0E 0F
      -- -- -- -- -- -- -- --  -- -- -- -- -- -- -- --
0270:       00                                            .             
```

#### Opcodes

```
  0: 0x0272 [0x00] END_REQSTACK()
```

### Event 65535.24

#### Metadata

| Field        | Value    |
|--------------|----------|
| Entrypoint   | 0x0273   |
| Data Size    | 26 bytes |
| Instructions | 8        |

```
      00 01 02 03 04 05 06 07  08 09 0A 0B 0C 0D 0E 0F
      -- -- -- -- -- -- -- --  -- -- -- -- -- -- -- --
0270:          1E F0 FF FF 7F  6F 70 29 08 42 A0 0F 01     .....op).B...
0280: 13 1D 18 80 23 29 08 42  A0 0F 01 14 00           ....#).B.....   
```

#### Opcodes

```
  0: 0x0273 [0x1E] EventEntity looks at LocalPlayer and starts talking
  1: 0x0278 [0x6F] WAIT_FRAME_DELAY: Yield until WaitTime reaches zero
  2: 0x0279 [0x70] WAIT_ENTITY_RENDER_FLAG: Wait while EventEntity->Render.Flags3 bit 2 is set (cancel turn if not)
  3: 0x027A [0x29] REQ_SET_WAIT(priority=0x08, entity_id=Mhebi Juhbily (ID: 17801282/0x010FA042), tag_num=0x13)
  4: 0x0281 [0x1D] PRINT_EVENT_MESSAGE(message_id=10186*)
    → "Damn! You've found him!"
  5: 0x0284 [0x23] WAIT_FOR_DIALOG_INTERACTION
  6: 0x0285 [0x29] REQ_SET_WAIT(priority=0x08, entity_id=Mhebi Juhbily (ID: 17801282/0x010FA042), tag_num=0x14)
  7: 0x028C [0x00] END_REQSTACK()
```

### Event 65535.25

#### Metadata

| Field        | Value    |
|--------------|----------|
| Entrypoint   | 0x028D   |
| Data Size    | 19 bytes |
| Instructions | 5        |

```
      00 01 02 03 04 05 06 07  08 09 0A 0B 0C 0D 0E 0F
      -- -- -- -- -- -- -- --  -- -- -- -- -- -- -- --
0280:                                         29 08 42               ).B
0290: A0 0F 01 01 1D 19 80 23  29 08 42 A0 0F 01 02 00  .......#).B.....
```

#### Opcodes

```
  0: 0x028D [0x29] REQ_SET_WAIT(priority=0x08, entity_id=Mhebi Juhbily (ID: 17801282/0x010FA042), tag_num=0x01)
  1: 0x0294 [0x1D] PRINT_EVENT_MESSAGE(message_id=10188*)
    → "My buddy's name is Tonberri<Player>qo. Sounds sophisticated, huh? I gave it to him myself."
  2: 0x0297 [0x23] WAIT_FOR_DIALOG_INTERACTION
  3: 0x0298 [0x29] REQ_SET_WAIT(priority=0x08, entity_id=Mhebi Juhbily (ID: 17801282/0x010FA042), tag_num=0x02)
  4: 0x029F [0x00] END_REQSTACK()
```

### Event 65535.26

#### Metadata

| Field        | Value    |
|--------------|----------|
| Entrypoint   | 0x02A0   |
| Data Size    | 19 bytes |
| Instructions | 5        |

```
      00 01 02 03 04 05 06 07  08 09 0A 0B 0C 0D 0E 0F
      -- -- -- -- -- -- -- --  -- -- -- -- -- -- -- --
02A0: 29 08 42 A0 0F 01 05 1D  1A 80 23 29 08 42 A0 0F  ).B.......#).B..
02B0: 01 06 00                                          ...             
```

#### Opcodes

```
  0: 0x02A0 [0x29] REQ_SET_WAIT(priority=0x08, entity_id=Mhebi Juhbily (ID: 17801282/0x010FA042), tag_num=0x05)
  1: 0x02A7 [0x1D] PRINT_EVENT_MESSAGE(message_id=10190*)
    → "But because his knife got wet, it rusted, and now he can't use it for hunting his food."
  2: 0x02AA [0x23] WAIT_FOR_DIALOG_INTERACTION
  3: 0x02AB [0x29] REQ_SET_WAIT(priority=0x08, entity_id=Mhebi Juhbily (ID: 17801282/0x010FA042), tag_num=0x06)
  4: 0x02B2 [0x00] END_REQSTACK()
```

### Event 65535.27

#### Metadata

| Field        | Value    |
|--------------|----------|
| Entrypoint   | 0x02B3   |
| Data Size    | 19 bytes |
| Instructions | 5        |

```
      00 01 02 03 04 05 06 07  08 09 0A 0B 0C 0D 0E 0F
      -- -- -- -- -- -- -- --  -- -- -- -- -- -- -- --
02B0:          29 08 42 A0 0F  01 07 1D 1B 80 23 29 08     ).B.......#).
02C0: 42 A0 0F 01 08 00                                 B.....          
```

#### Opcodes

```
  0: 0x02B3 [0x29] REQ_SET_WAIT(priority=0x08, entity_id=Mhebi Juhbily (ID: 17801282/0x010FA042), tag_num=0x07)
  1: 0x02BA [0x1D] PRINT_EVENT_MESSAGE(message_id=10191*)
    → "I've been trying to help by bringing him meat and letting him sleep herrre, but..."
  2: 0x02BD [0x23] WAIT_FOR_DIALOG_INTERACTION
  3: 0x02BE [0x29] REQ_SET_WAIT(priority=0x08, entity_id=Mhebi Juhbily (ID: 17801282/0x010FA042), tag_num=0x08)
  4: 0x02C5 [0x00] END_REQSTACK()
```

### Event 65535.28

#### Metadata

| Field        | Value    |
|--------------|----------|
| Entrypoint   | 0x02C6   |
| Data Size    | 19 bytes |
| Instructions | 5        |

```
      00 01 02 03 04 05 06 07  08 09 0A 0B 0C 0D 0E 0F
      -- -- -- -- -- -- -- --  -- -- -- -- -- -- -- --
02C0:                   29 08  42 A0 0F 01 01 1D 1C 80        ).B.......
02D0: 23 29 08 42 A0 0F 01 02  00                       #).B.....       
```

#### Opcodes

```
  0: 0x02C6 [0x29] REQ_SET_WAIT(priority=0x08, entity_id=Mhebi Juhbily (ID: 17801282/0x010FA042), tag_num=0x01)
  1: 0x02CD [0x1D] PRINT_EVENT_MESSAGE(message_id=10192*)
    → "Well, now that you've seen him, you're in this with me."
  2: 0x02D0 [0x23] WAIT_FOR_DIALOG_INTERACTION
  3: 0x02D1 [0x29] REQ_SET_WAIT(priority=0x08, entity_id=Mhebi Juhbily (ID: 17801282/0x010FA042), tag_num=0x02)
  4: 0x02D8 [0x00] END_REQSTACK()
```

### Event 65535.29

#### Metadata

| Field        | Value   |
|--------------|---------|
| Entrypoint   | 0x02D9  |
| Data Size    | 5 bytes |
| Instructions | 3       |

```
      00 01 02 03 04 05 06 07  08 09 0A 0B 0C 0D 0E 0F
      -- -- -- -- -- -- -- --  -- -- -- -- -- -- -- --
02D0:                             1D 1D 80 23 00                 ...#.  
```

#### Opcodes

```
  0: 0x02D9 [0x1D] PRINT_EVENT_MESSAGE(message_id=10195*)
    → "Thanks. What I want to do is get this guy's knife back in chip-chop shape so I can take him back to the jungle."
  1: 0x02DC [0x23] WAIT_FOR_DIALOG_INTERACTION
  2: 0x02DD [0x00] END_REQSTACK()
```

### Event 129

#### Metadata

| Field        | Value    |
|--------------|----------|
| Entrypoint   | 0x02DE   |
| Data Size    | 54 bytes |
| Instructions | 15       |

```
      00 01 02 03 04 05 06 07  08 09 0A 0B 0C 0D 0E 0F
      -- -- -- -- -- -- -- --  -- -- -- -- -- -- -- --
02D0:                                            1E F0                ..
02E0: FF FF 7F 6F 70 29 08 F0  FF FF 7F 03 29 08 42 A0  ...op)......).B.
02F0: 0F 01 05 1D 1E 80 23 29  08 42 A0 0F 01 06 29 08  ......#).B....).
0300: 42 A0 0F 01 07 1D 1F 80  23 29 08 42 A0 0F 01 08  B.......#).B....
0310: 20 00 21 00                                        .!.            
```

#### Opcodes

```
  0: 0x02DE [0x1E] EventEntity looks at LocalPlayer and starts talking
  1: 0x02E3 [0x6F] WAIT_FRAME_DELAY: Yield until WaitTime reaches zero
  2: 0x02E4 [0x70] WAIT_ENTITY_RENDER_FLAG: Wait while EventEntity->Render.Flags3 bit 2 is set (cancel turn if not)
  3: 0x02E5 [0x29] REQ_SET_WAIT(priority=0x08, entity_id=LocalPlayer, tag_num=0x03)
  4: 0x02EC [0x29] REQ_SET_WAIT(priority=0x08, entity_id=Mhebi Juhbily (ID: 17801282/0x010FA042), tag_num=0x05)
  5: 0x02F3 [0x1D] PRINT_EVENT_MESSAGE(message_id=10202*)
    → "I want to take Tonberri<Player>qo back to the jungle, but we have to do something about his knife."
  6: 0x02F6 [0x23] WAIT_FOR_DIALOG_INTERACTION
  7: 0x02F7 [0x29] REQ_SET_WAIT(priority=0x08, entity_id=Mhebi Juhbily (ID: 17801282/0x010FA042), tag_num=0x06)
  8: 0x02FE [0x29] REQ_SET_WAIT(priority=0x08, entity_id=Mhebi Juhbily (ID: 17801282/0x010FA042), tag_num=0x07)
  9: 0x0305 [0x1D] PRINT_EVENT_MESSAGE(message_id=10203*)
    → "You don't happen to have any good ideas, do you?"
 10: 0x0308 [0x23] WAIT_FOR_DIALOG_INTERACTION
 11: 0x0309 [0x29] REQ_SET_WAIT(priority=0x08, entity_id=Mhebi Juhbily (ID: 17801282/0x010FA042), tag_num=0x08)
 12: 0x0310 [0x20] SET_CLI_EVENT_UC_FLAG: Unlock player control
 13: 0x0312 [0x21] END_EVENT
 14: 0x0313 [0x00] END_REQSTACK()
```

### Event 133

#### Metadata

| Field        | Value     |
|--------------|-----------|
| Entrypoint   | 0x0314    |
| Data Size    | 511 bytes |
| Instructions | 68        |

```
      00 01 02 03 04 05 06 07  08 09 0A 0B 0C 0D 0E 0F
      -- -- -- -- -- -- -- --  -- -- -- -- -- -- -- --
0310:             20 01 42 46  01 1E F0 FF FF 7F 6F 70       .BF......op
0320: 29 0B 42 A0 0F 01 25 45  20 80 F0 FF FF 7F F0 FF  ).B...%E .......
0330: FF 7F 66 64 6F 31 0B 80  1C 21 80 1E F0 FF FF 7F  ..fdo1...!......
0340: 6F 70 38 22 80 29 0B 42  A0 0F 01 1A 29 0B F0 FF  op8".).B....)...
0350: FF 7F 0A 29 08 F0 FF FF  7F 03 29 08 F0 FF FF 7F  ...)......).....
0360: 05 4A F0 FF FF 7F 43 A0  0F 01 4A 42 A0 0F 01 43  .J....C...JB...C
0370: A0 0F 01 6F 76 42 A0 0F  01 29 0B 41 A0 0F 01 04  ...ovB...).A....
0380: 1C 23 80 45 24 80 F0 FF  FF 7F F0 FF FF 7F 73 30  .#.E$.........s0
0390: 32 32 0B 80 45 20 80 F0  FF FF 7F F0 FF FF 7F 66  22..E .........f
03A0: 64 69 31 0B 80 48 25 80  1C 20 80 52 24 80 F0 FF  di1..H%.. .R$...
03B0: FF 7F F0 FF FF 7F 73 30  32 32 45 24 80 F0 FF FF  ......s022E$....
03C0: 7F F0 FF FF 7F 73 30 32  33 0B 80 29 0B 42 A0 0F  .....s023..).B..
03D0: 01 26 52 24 80 F0 FF FF  7F F0 FF FF 7F 73 30 32  .&R$.........s02
03E0: 33 02 09 10 26 80 00 FD  03 45 24 80 F0 FF FF 7F  3...&....E$.....
03F0: F0 FF FF 7F 73 30 31 37  0B 80 01 2A 04 02 09 10  ....s017...*....
0400: 27 80 00 19 04 45 24 80  F0 FF FF 7F F0 FF FF 7F  '....E$.........
0410: 73 30 31 37 0B 80 01 2A  04 45 24 80 F0 FF FF 7F  s017...*.E$.....
0420: F0 FF FF 7F 73 30 30 38  0B 80 79 00 F0 FF FF 7F  ....s008..y.....
0430: 42 A0 0F 01 4A 42 A0 0F  01 F0 FF FF 7F 6F 76 42  B...JB.......ovB
0440: A0 0F 01 29 08 42 A0 0F  01 0B 1D 28 80 23 29 08  ...).B.....(.#).
0450: 42 A0 0F 01 0C 02 09 10  26 80 00 6F 04 52 24 80  B.......&..o.R$.
0460: F0 FF FF 7F F0 FF FF 7F  73 30 31 37 01 98 04 02  ........s017....
0470: 09 10 27 80 00 89 04 52  24 80 F0 FF FF 7F F0 FF  ..'....R$.......
0480: FF 7F 73 30 31 37 01 98  04 52 24 80 F0 FF FF 7F  ..s017...R$.....
0490: F0 FF FF 7F 73 30 30 38  45 20 80 F0 FF FF 7F F0  ....s008E ......
04A0: FF FF 7F 6F 76 6C 31 0B  80 45 24 80 F0 FF FF 7F  ...ovl1..E$.....
04B0: F0 FF FF 7F 73 30 31 33  0B 80 1D 29 80 23 45 20  ....s013...).#E 
04C0: 80 F0 FF FF 7F F0 FF FF  7F 66 64 6F 31 0B 80 1C  .........fdo1...
04D0: 21 80 52 24 80 F0 FF FF  7F F0 FF FF 7F 73 30 31  !.R$.........s01
04E0: 33 46 00 29 0B 41 A0 0F  01 05 1C 20 80 45 20 80  3F.).A..... .E .
04F0: F0 FF FF 7F F0 FF FF 7F  66 64 69 31 0B 80 45 2A  ........fdi1..E*
0500: 80 F0 FF FF 7F F0 FF FF  7F 71 73 74 63 0B 80 20  .........qstc.. 
0510: 00 21 00                                          .!.             
```

#### Opcodes

```
  0: 0x0314 [0x20] SET_CLI_EVENT_UC_FLAG: Lock player control
  1: 0x0316 [0x42] SET_CLI_EVENT_CANCEL_DATA()
  2: 0x0317 [0x46] CAMERA_CONTROL: Disable user control
  3: 0x0319 [0x1E] EventEntity looks at LocalPlayer and starts talking
  4: 0x031E [0x6F] WAIT_FRAME_DELAY: Yield until WaitTime reaches zero
  5: 0x031F [0x70] WAIT_ENTITY_RENDER_FLAG: Wait while EventEntity->Render.Flags3 bit 2 is set (cancel turn if not)
  6: 0x0320 [0x29] REQ_SET_WAIT(priority=0x0B, entity_id=Mhebi Juhbily (ID: 17801282/0x010FA042), tag_num=0x25)
  7: 0x0327 [0x45] LOAD_SCHEDULED_TASK: Load scheduler "fdo1" with entities [LocalPlayer, LocalPlayer], work=[200*, 0*]
  8: 0x0338 [0x1C] WAIT(60* ticks)
  9: 0x033B [0x1E] EventEntity looks at LocalPlayer and starts talking
 10: 0x0340 [0x6F] WAIT_FRAME_DELAY: Yield until WaitTime reaches zero
 11: 0x0341 [0x70] WAIT_ENTITY_RENDER_FLAG: Wait while EventEntity->Render.Flags3 bit 2 is set (cancel turn if not)
 12: 0x0342 [0x38] SET_CLIENT_EVENT_MODE(mode=3*)
 13: 0x0345 [0x29] REQ_SET_WAIT(priority=0x0B, entity_id=Mhebi Juhbily (ID: 17801282/0x010FA042), tag_num=0x1A)
 14: 0x034C [0x29] REQ_SET_WAIT(priority=0x0B, entity_id=LocalPlayer, tag_num=0x0A)
 15: 0x0353 [0x29] REQ_SET_WAIT(priority=0x08, entity_id=LocalPlayer, tag_num=0x03)
 16: 0x035A [0x29] REQ_SET_WAIT(priority=0x08, entity_id=LocalPlayer, tag_num=0x05)
 17: 0x0361 [0x4A] LocalPlayer looks at Unnamed NPC (ID: 17801283/0x010FA043)
 18: 0x036A [0x4A] Mhebi Juhbily (ID: 17801282/0x010FA042) looks at Unnamed NPC (ID: 17801283/0x010FA043)
 19: 0x0373 [0x6F] WAIT_FRAME_DELAY: Yield until WaitTime reaches zero
 20: 0x0374 [0x76] CHECK_ENTITY_RENDER_FLAGS: Wait until Mhebi Juhbily (ID: 17801282/0x010FA042) Render.Flags0 and Render.Flags3 conditions are met
 21: 0x0379 [0x29] REQ_SET_WAIT(priority=0x0B, entity_id=Shed (ID: 17801281/0x010FA041), tag_num=0x04)
 22: 0x0380 [0x1C] WAIT(120* ticks)
 23: 0x0383 [0x45] LOAD_SCHEDULED_TASK: Load scheduler "s022" with entities [LocalPlayer, LocalPlayer], work=[150*, 0*]
 24: 0x0394 [0x45] LOAD_SCHEDULED_TASK: Load scheduler "fdi1" with entities [LocalPlayer, LocalPlayer], work=[200*, 0*]
 25: 0x03A5 [0x48] [System] [10213*]:
    → "Tonberri<Player>qo begins to steam with happiness...(?)"
 26: 0x03A8 [0x1C] WAIT(200* ticks)
 27: 0x03AB [0x52] END_LOAD_SCHEDULER: End scheduler "s022" with entities [LocalPlayer, LocalPlayer], work=150*
 28: 0x03BA [0x45] LOAD_SCHEDULED_TASK: Load scheduler "s023" with entities [LocalPlayer, LocalPlayer], work=[150*, 0*]
 29: 0x03CB [0x29] REQ_SET_WAIT(priority=0x0B, entity_id=Mhebi Juhbily (ID: 17801282/0x010FA042), tag_num=0x26)
 30: 0x03D2 [0x52] END_LOAD_SCHEDULER: End scheduler "s023" with entities [LocalPlayer, LocalPlayer], work=150*
 31: 0x03E1 [0x02] IF !(Work_Zone[9] == 5*) GOTO 0x03FD
 32: 0x03E9 [0x45] LOAD_SCHEDULED_TASK: Load scheduler "s017" with entities [LocalPlayer, LocalPlayer], work=[150*, 0*]
 33: 0x03FA [0x01] GOTO 0x042A
 34: 0x03FD [0x02] IF !(Work_Zone[9] == 6*) GOTO 0x0419
 35: 0x0405 [0x45] LOAD_SCHEDULED_TASK: Load scheduler "s017" with entities [LocalPlayer, LocalPlayer], work=[150*, 0*]
 36: 0x0416 [0x01] GOTO 0x042A
 37: 0x0419 [0x45] LOAD_SCHEDULED_TASK: Load scheduler "s008" with entities [LocalPlayer, LocalPlayer], work=[150*, 0*]

SUBROUTINE_042A:
 38: 0x042A [0x79] LocalPlayer looks at Mhebi Juhbily (ID: 17801282/0x010FA042) (Basic look)
 39: 0x0434 [0x4A] Mhebi Juhbily (ID: 17801282/0x010FA042) looks at LocalPlayer
 40: 0x043D [0x6F] WAIT_FRAME_DELAY: Yield until WaitTime reaches zero
 41: 0x043E [0x76] CHECK_ENTITY_RENDER_FLAGS: Wait until Mhebi Juhbily (ID: 17801282/0x010FA042) Render.Flags0 and Render.Flags3 conditions are met
 42: 0x0443 [0x29] REQ_SET_WAIT(priority=0x08, entity_id=Mhebi Juhbily (ID: 17801282/0x010FA042), tag_num=0x0B)
 43: 0x044A [0x1D] PRINT_EVENT_MESSAGE(message_id=10215*)
    → "I had my doubts about you, but you rrreally came through for me and my buddy."
 44: 0x044D [0x23] WAIT_FOR_DIALOG_INTERACTION
 45: 0x044E [0x29] REQ_SET_WAIT(priority=0x08, entity_id=Mhebi Juhbily (ID: 17801282/0x010FA042), tag_num=0x0C)
 46: 0x0455 [0x02] IF !(Work_Zone[9] == 5*) GOTO 0x046F
 47: 0x045D [0x52] END_LOAD_SCHEDULER: End scheduler "s017" with entities [LocalPlayer, LocalPlayer], work=150*
 48: 0x046C [0x01] GOTO 0x0498
 49: 0x046F [0x02] IF !(Work_Zone[9] == 6*) GOTO 0x0489
 50: 0x0477 [0x52] END_LOAD_SCHEDULER: End scheduler "s017" with entities [LocalPlayer, LocalPlayer], work=150*
 51: 0x0486 [0x01] GOTO 0x0498
 52: 0x0489 [0x52] END_LOAD_SCHEDULER: End scheduler "s008" with entities [LocalPlayer, LocalPlayer], work=150*

SUBROUTINE_0498:
 53: 0x0498 [0x45] LOAD_SCHEDULED_TASK: Load scheduler "ovl1" with entities [LocalPlayer, LocalPlayer], work=[200*, 0*]
 54: 0x04A9 [0x45] LOAD_SCHEDULED_TASK: Load scheduler "s013" with entities [LocalPlayer, LocalPlayer], work=[150*, 0*]
 55: 0x04BA [0x1D] PRINT_EVENT_MESSAGE(message_id=10216*)
    → "Now it's my turn to take Tonberri<Player>qo back to the jungle where he belongs. I'll miss the little green guy, though."
 56: 0x04BD [0x23] WAIT_FOR_DIALOG_INTERACTION
 57: 0x04BE [0x45] LOAD_SCHEDULED_TASK: Load scheduler "fdo1" with entities [LocalPlayer, LocalPlayer], work=[200*, 0*]
 58: 0x04CF [0x1C] WAIT(60* ticks)
 59: 0x04D2 [0x52] END_LOAD_SCHEDULER: End scheduler "s013" with entities [LocalPlayer, LocalPlayer], work=150*
 60: 0x04E1 [0x46] CAMERA_CONTROL: Restore default settings
 61: 0x04E3 [0x29] REQ_SET_WAIT(priority=0x0B, entity_id=Shed (ID: 17801281/0x010FA041), tag_num=0x05)
 62: 0x04EA [0x1C] WAIT(200* ticks)
 63: 0x04ED [0x45] LOAD_SCHEDULED_TASK: Load scheduler "fdi1" with entities [LocalPlayer, LocalPlayer], work=[200*, 0*]
 64: 0x04FE [0x45] LOAD_SCHEDULED_TASK: Load scheduler "qstc" with entities [LocalPlayer, LocalPlayer], work=[201*, 0*]
 65: 0x050F [0x20] SET_CLI_EVENT_UC_FLAG: Unlock player control
 66: 0x0511 [0x21] END_EVENT
 67: 0x0512 [0x00] END_REQSTACK()
```

### Event 65535.30

#### Metadata

| Field        | Value   |
|--------------|---------|
| Entrypoint   | 0x0513  |
| Data Size    | 5 bytes |
| Instructions | 3       |

```
      00 01 02 03 04 05 06 07  08 09 0A 0B 0C 0D 0E 0F
      -- -- -- -- -- -- -- --  -- -- -- -- -- -- -- --
0510:          1D 2B 80 23 00                              .+.#.        
```

#### Opcodes

```
  0: 0x0513 [0x1D] PRINT_EVENT_MESSAGE(message_id=10212*)
    → "Whoa! Where did you get that knife?"
  1: 0x0516 [0x23] WAIT_FOR_DIALOG_INTERACTION
  2: 0x0517 [0x00] END_REQSTACK()
```

### Event 65535.31

#### Metadata

| Field        | Value   |
|--------------|---------|
| Entrypoint   | 0x0518  |
| Data Size    | 5 bytes |
| Instructions | 3       |

```
      00 01 02 03 04 05 06 07  08 09 0A 0B 0C 0D 0E 0F
      -- -- -- -- -- -- -- --  -- -- -- -- -- -- -- --
0510:                          1D 2C 80 23 00                   .,.#.   
```

#### Opcodes

```
  0: 0x0518 [0x1D] PRINT_EVENT_MESSAGE(message_id=10214*)
    → "He likes it! Hey, <Player>! Tonberri<Player>qo likes it!"
  1: 0x051B [0x23] WAIT_FOR_DIALOG_INTERACTION
  2: 0x051C [0x00] END_REQSTACK()
```

### Event 134

#### Metadata

| Field        | Value    |
|--------------|----------|
| Entrypoint   | 0x051D   |
| Data Size    | 29 bytes |
| Instructions | 10       |

```
      00 01 02 03 04 05 06 07  08 09 0A 0B 0C 0D 0E 0F
      -- -- -- -- -- -- -- --  -- -- -- -- -- -- -- --
0510:                                         1E F0 FF               ...
0520: FF 7F 6F 70 29 08 42 A0  0F 01 0B 1D 2D 80 23 29  ..op).B.....-.#)
0530: 08 42 A0 0F 01 0C 20 00  21 00                    .B.... .!.      
```

#### Opcodes

```
  0: 0x051D [0x1E] EventEntity looks at LocalPlayer and starts talking
  1: 0x0522 [0x6F] WAIT_FRAME_DELAY: Yield until WaitTime reaches zero
  2: 0x0523 [0x70] WAIT_ENTITY_RENDER_FLAG: Wait while EventEntity->Render.Flags3 bit 2 is set (cancel turn if not)
  3: 0x0524 [0x29] REQ_SET_WAIT(priority=0x08, entity_id=Mhebi Juhbily (ID: 17801282/0x010FA042), tag_num=0x0B)
  4: 0x052B [0x1D] PRINT_EVENT_MESSAGE(message_id=10217*)
    → "I had my doubts about you, but you rrreally came through for me and my buddy. Now I just have to take Tonberri<Player>qo back to the jungle where he belongs."
  5: 0x052E [0x23] WAIT_FOR_DIALOG_INTERACTION
  6: 0x052F [0x29] REQ_SET_WAIT(priority=0x08, entity_id=Mhebi Juhbily (ID: 17801282/0x010FA042), tag_num=0x0C)
  7: 0x0536 [0x20] SET_CLI_EVENT_UC_FLAG: Unlock player control
  8: 0x0538 [0x21] END_EVENT
  9: 0x0539 [0x00] END_REQSTACK()
```

### Event 135

#### Metadata

| Field        | Value    |
|--------------|----------|
| Entrypoint   | 0x053A   |
| Data Size    | 47 bytes |
| Instructions | 14       |

```
      00 01 02 03 04 05 06 07  08 09 0A 0B 0C 0D 0E 0F
      -- -- -- -- -- -- -- --  -- -- -- -- -- -- -- --
0530:                                1E F0 FF FF 7F 6F            .....o
0540: 70 29 08 42 A0 0F 01 05  1D 2E 80 23 29 08 42 A0  p).B.......#).B.
0550: 0F 01 06 29 08 42 A0 0F  01 07 1D 2F 80 23 29 08  ...).B...../.#).
0560: 42 A0 0F 01 08 20 00 21  00                       B.... .!.       
```

#### Opcodes

```
  0: 0x053A [0x1E] EventEntity looks at LocalPlayer and starts talking
  1: 0x053F [0x6F] WAIT_FRAME_DELAY: Yield until WaitTime reaches zero
  2: 0x0540 [0x70] WAIT_ENTITY_RENDER_FLAG: Wait while EventEntity->Render.Flags3 bit 2 is set (cancel turn if not)
  3: 0x0541 [0x29] REQ_SET_WAIT(priority=0x08, entity_id=Mhebi Juhbily (ID: 17801282/0x010FA042), tag_num=0x05)
  4: 0x0548 [0x1D] PRINT_EVENT_MESSAGE(message_id=10218*)
    → "If you want to see Tonberri<Player>qo, he's still living in that shed."
  5: 0x054B [0x23] WAIT_FOR_DIALOG_INTERACTION
  6: 0x054C [0x29] REQ_SET_WAIT(priority=0x08, entity_id=Mhebi Juhbily (ID: 17801282/0x010FA042), tag_num=0x06)
  7: 0x0553 [0x29] REQ_SET_WAIT(priority=0x08, entity_id=Mhebi Juhbily (ID: 17801282/0x010FA042), tag_num=0x07)
  8: 0x055A [0x1D] PRINT_EVENT_MESSAGE(message_id=10219*)
    → "He won't move an inch! Do you think that maybe he likes it better herrre in the village?"
  9: 0x055D [0x23] WAIT_FOR_DIALOG_INTERACTION
 10: 0x055E [0x29] REQ_SET_WAIT(priority=0x08, entity_id=Mhebi Juhbily (ID: 17801282/0x010FA042), tag_num=0x08)
 11: 0x0565 [0x20] SET_CLI_EVENT_UC_FLAG: Unlock player control
 12: 0x0567 [0x21] END_EVENT
 13: 0x0568 [0x00] END_REQSTACK()
```
