# 17801217 - DIRECTOR

## Common Data

| Field            | Value            |
|------------------|------------------|
| Zone             | Kazham (ID: 250) |
| Block Size       | 7136 bytes       |
| Total Events     | 6                |
| References Count | 122              |

## List of Events

| Event ID              | Entrypoint   |   Size |   Instructions |
|-----------------------|--------------|--------|----------------|
| [65535](#event-65535) | 0x0000       |      1 |              1 |
| [293](#event-293)     | 0x0001       |   1550 |            202 |
| [295](#event-295)     | 0x060F       |   2072 |            274 |
| [297](#event-297)     | 0x0E27       |   1898 |            245 |
| [299](#event-299)     | 0x1591       |    737 |            110 |
| [301](#event-301)     | 0x1872       |    348 |             53 |

## DAT References (imed_data)

|   Index | Hex Value   |   Dec Value |
|---------|-------------|-------------|
|       0 | 0x0000      |           0 |
|       1 | 0x0078      |         120 |
|       2 | 0x00C8      |         200 |
|       3 | 0x003C      |          60 |
|       4 | 0x0013      |          19 |
|       5 | 0x01FB      |         507 |
|       6 | 0x005A      |          90 |
|       7 | 0x0005      |           5 |
|       8 | 0x007F      |         127 |
|       9 | 0x0006      |           6 |
|      10 | 0x29C3      |       10691 |
|      11 | 0x29C4      |       10692 |
|      12 | 0x29C5      |       10693 |
|      13 | 0x0003      |           3 |
|      14 | 0x0008      |           8 |
|      15 | 0x29C6      |       10694 |
|      16 | 0x29C7      |       10695 |
|      17 | 0x29C8      |       10696 |
|      18 | 0x29C9      |       10697 |
|      19 | 0x29CA      |       10698 |
|      20 | 0x29CB      |       10699 |
|      21 | 0x29CC      |       10700 |
|      22 | 0x29CD      |       10701 |
|      23 | 0x29CE      |       10702 |
|      24 | 0x29CF      |       10703 |
|      25 | 0x29D0      |       10704 |
|      26 | 0x29D1      |       10705 |
|      27 | 0x29D2      |       10706 |
|      28 | 0x29D3      |       10707 |
|      29 | 0x29D4      |       10708 |
|      30 | 0x0087      |         135 |
|      31 | 0x01FE      |         510 |
|      32 | 0x00E7      |         231 |
|      33 | 0x29D7      |       10711 |
|      34 | 0x29D8      |       10712 |
|      35 | 0x29D9      |       10713 |
|      36 | 0x29DA      |       10714 |
|      37 | 0x29DB      |       10715 |
|      38 | 0x29DC      |       10716 |
|      39 | 0x29DD      |       10717 |
|      40 | 0x29DE      |       10718 |
|      41 | 0x29DF      |       10719 |
|      42 | 0x29E0      |       10720 |
|      43 | 0x29E1      |       10721 |
|      44 | 0x29E2      |       10722 |
|      45 | 0x29E3      |       10723 |
|      46 | 0x29E4      |       10724 |
|      47 | 0x29E5      |       10725 |
|      48 | 0x29E6      |       10726 |
|      49 | 0x29E7      |       10727 |
|      50 | 0x29E8      |       10728 |
|      51 | 0x29EA      |       10730 |
|      52 | 0x29E9      |       10729 |
|      53 | 0x0C62      |        3170 |
|      54 | 0x29EB      |       10731 |
|      55 | 0x29EC      |       10732 |
|      56 | 0x0001      |           1 |
|      57 | 0x29EE      |       10734 |
|      58 | 0x29ED      |       10733 |
|      59 | 0x29EF      |       10735 |
|      60 | 0x29F0      |       10736 |
|      61 | 0x29F1      |       10737 |
|      62 | 0x29F2      |       10738 |
|      63 | 0x29F3      |       10739 |
|      64 | 0x29F4      |       10740 |
|      65 | 0x29F5      |       10741 |
|      66 | 0x29F6      |       10742 |
|      67 | 0x29F7      |       10743 |
|      68 | 0x0064      |         100 |
|      69 | 0x29FA      |       10746 |
|      70 | 0x29FB      |       10747 |
|      71 | 0x29FC      |       10748 |
|      72 | 0x29FD      |       10749 |
|      73 | 0x29FE      |       10750 |
|      74 | 0x29FF      |       10751 |
|      75 | 0x2A00      |       10752 |
|      76 | 0x2A01      |       10753 |
|      77 | 0x2A02      |       10754 |
|      78 | 0x2A03      |       10755 |
|      79 | 0x2A04      |       10756 |
|      80 | 0x2A05      |       10757 |
|      81 | 0x09C4      |        2500 |
|      82 | 0x2A06      |       10758 |
|      83 | 0x2A07      |       10759 |
|      84 | 0x2A08      |       10760 |
|      85 | 0x2A09      |       10761 |
|      86 | 0x2A0A      |       10762 |
|      87 | 0x2A0B      |       10763 |
|      88 | 0x2A0C      |       10764 |
|      89 | 0x2A0D      |       10765 |
|      90 | 0x2A0E      |       10766 |
|      91 | 0x2A0F      |       10767 |
|      92 | 0x2A10      |       10768 |
|      93 | 0x2A11      |       10769 |
|      94 | 0x0803      |        2051 |
|      95 | 0x01F9      |         505 |
|      96 | 0x0096      |         150 |
|      97 | 0x2A15      |       10773 |
|      98 | 0x2A16      |       10774 |
|      99 | 0x2A17      |       10775 |
|     100 | 0x00E6      |         230 |
|     101 | 0x009F      |         159 |
|     102 | 0x2A18      |       10776 |
|     103 | 0x2A19      |       10777 |
|     104 | 0x2A1A      |       10778 |
|     105 | 0x0BDC      |        3036 |
|     106 | 0x2A1B      |       10779 |
|     107 | 0x2A1C      |       10780 |
|     108 | 0x2A1D      |       10781 |
|     109 | 0x2A1E      |       10782 |
|     110 | 0x2A1F      |       10783 |
|     111 | 0x2A20      |       10784 |
|     112 | 0x00A3      |         163 |
|     113 | 0x2A21      |       10785 |
|     114 | 0x2A22      |       10786 |
|     115 | 0x2A23      |       10787 |
|     116 | 0x2A24      |       10788 |
|     117 | 0x00EA      |         234 |
|     118 | 0x2A26      |       10790 |
|     119 | 0x2A27      |       10791 |
|     120 | 0x2A28      |       10792 |
|     121 | 0x2A29      |       10793 |

## Events

### Event 65535

#### Metadata

| Field        | Value   |
|--------------|---------|
| Entrypoint   | 0x0000  |
| Data Size    | 1 bytes |
| Instructions | 1       |

```
      00 01 02 03 04 05 06 07  08 09 0A 0B 0C 0D 0E 0F
      -- -- -- -- -- -- -- --  -- -- -- -- -- -- -- --
0000: 00                                                .               
```

#### Opcodes

```
  0: 0x0000 [0x00] END_REQSTACK()
```

### Event 293

#### Metadata

| Field        | Value      |
|--------------|------------|
| Entrypoint   | 0x0001     |
| Data Size    | 1550 bytes |
| Instructions | 202        |

```
      00 01 02 03 04 05 06 07  08 09 0A 0B 0C 0D 0E 0F
      -- -- -- -- -- -- -- --  -- -- -- -- -- -- -- --
0000:    20 01 42 46 01 79 00  08 A0 0F 01 F0 FF FF 7F    .BF.y.........
0010: 79 00 F0 FF FF 7F 08 A0  0F 01 5D 00 80 01 80 45  y.........]....E
0020: 02 80 F8 FF FF 7F F8 FF  FF 7F 66 64 6F 31 00 80  ..........fdo1..
0030: 1C 03 80 38 04 80 29 08  F0 FF FF 7F 05 75 00 05  ...8..)......u..
0040: 80 75 01 92 01 08 A0 0F  01 29 0B F0 FF FF 7F 24  .u.......).....$
0050: 29 0B 0C A0 0F 01 48 1C  06 80 02 09 10 07 80 00  ).....H.........
0060: 76 00 45 08 80 F8 FF FF  7F F8 FF FF 7F 73 30 35  v.E..........s05
0070: 33 00 80 01 A3 00 02 09  10 09 80 00 92 00 45 08  3.............E.
0080: 80 F8 FF FF 7F F8 FF FF  7F 73 30 35 33 00 80 01  .........s053...
0090: A3 00 45 08 80 F8 FF FF  7F F8 FF FF 7F 73 30 34  ..E..........s04
00A0: 33 00 80 5C 00 08 80 5C  01 08 80 45 02 80 F8 FF  3..\...\...E....
00B0: FF 7F F8 FF FF 7F 66 64  69 31 00 80 2B 08 A0 0F  ......fdi1..+...
00C0: 01 0A 80 23 02 09 10 07  80 00 DE 00 52 08 80 F8  ...#........R...
00D0: FF FF 7F F8 FF FF 7F 73  30 35 33 01 07 01 02 09  .......s053.....
00E0: 10 09 80 00 F8 00 52 08  80 F8 FF FF 7F F8 FF FF  ......R.........
00F0: 7F 73 30 35 33 01 07 01  52 08 80 F8 FF FF 7F F8  .s053...R.......
0100: FF FF 7F 73 30 34 33 45  02 80 F0 FF FF 7F F0 FF  ...s043E........
0110: FF 7F 6F 76 6C 31 00 80  45 08 80 F8 FF FF 7F F8  ..ovl1..E.......
0120: FF FF 7F 73 30 34 34 00  80 29 08 08 A0 0F 01 01  ...s044..)......
0130: 2B 08 A0 0F 01 0B 80 23  29 08 08 A0 0F 01 02 29  +......#)......)
0140: 08 08 A0 0F 01 03 2B 08  A0 0F 01 0C 80 23 29 08  ......+......#).
0150: 08 A0 0F 01 04 52 08 80  F8 FF FF 7F F8 FF FF 7F  .....R..........
0160: 73 30 34 34 02 09 10 0D  80 00 80 01 45 08 80 F8  s044........E...
0170: FF FF 7F F8 FF FF 7F 73  30 35 35 00 80 01 E5 01  .......s055.....
0180: 02 09 10 07 80 00 9C 01  45 08 80 F8 FF FF 7F F8  ........E.......
0190: FF FF 7F 73 30 35 34 00  80 01 E5 01 02 09 10 09  ...s054.........
01A0: 80 00 B8 01 45 08 80 F8  FF FF 7F F8 FF FF 7F 73  ....E..........s
01B0: 30 35 34 00 80 01 E5 01  02 09 10 0E 80 00 D4 01  054.............
01C0: 45 08 80 F8 FF FF 7F F8  FF FF 7F 73 30 35 35 00  E..........s055.
01D0: 80 01 E5 01 45 08 80 F8  FF FF 7F F8 FF FF 7F 73  ....E..........s
01E0: 30 34 35 00 80 7B F0 FF  FF 7F 29 08 08 A0 0F 01  045..{....).....
01F0: 07 2B 08 A0 0F 01 0F 80  23 29 08 08 A0 0F 01 08  .+......#)......
0200: 29 08 08 A0 0F 01 09 2B  08 A0 0F 01 10 80 23 29  )......+......#)
0210: 08 08 A0 0F 01 0A 02 09  10 0D 80 00 30 02 52 08  ............0.R.
0220: 80 F8 FF FF 7F F8 FF FF  7F 73 30 35 35 01 8D 02  .........s055...
0230: 02 09 10 07 80 00 4A 02  52 08 80 F8 FF FF 7F F8  ......J.R.......
0240: FF FF 7F 73 30 35 34 01  8D 02 02 09 10 09 80 00  ...s054.........
0250: 64 02 52 08 80 F8 FF FF  7F F8 FF FF 7F 73 30 35  d.R..........s05
0260: 34 01 8D 02 02 09 10 0E  80 00 7E 02 52 08 80 F8  4.........~.R...
0270: FF FF 7F F8 FF FF 7F 73  30 35 35 01 8D 02 52 08  .......s055...R.
0280: 80 F8 FF FF 7F F8 FF FF  7F 73 30 34 35 4A 08 A0  .........s045J..
0290: 0F 01 F0 FF FF 7F 6F 76  08 A0 0F 01 2B 08 A0 0F  ......ov....+...
02A0: 01 11 80 23 45 02 80 F8  FF FF 7F F8 FF FF 7F 66  ...#E..........f
02B0: 64 6F 31 00 80 1C 03 80  4E 00 0C A0 0F 01 80 0C  do1.....N.......
02C0: A0 0F 01 79 00 0C A0 0F  01 08 A0 0F 01 29 0B 09  ...y.........)..
02D0: A0 0F 01 39 29 0B 0B A0  0F 01 07 29 0B 0A A0 0F  ...9)......)....
02E0: 01 07 92 01 0A A0 0F 01  92 01 0B A0 0F 01 92 01  ................
02F0: 09 A0 0F 01 79 00 0B A0  0F 01 0C A0 0F 01 79 00  ....y.........y.
0300: 0A A0 0F 01 0C A0 0F 01  79 00 09 A0 0F 01 0C A0  ........y.......
0310: 0F 01 45 08 80 F8 FF FF  7F F8 FF FF 7F 73 30 34  ..E..........s04
0320: 36 00 80 45 02 80 F8 FF  FF 7F F8 FF FF 7F 66 64  6..E..........fd
0330: 69 31 00 80 29 08 08 A0  0F 01 0B 2B 08 A0 0F 01  i1..)......+....
0340: 12 80 23 29 08 08 A0 0F  01 0C 27 0B 0C A0 0F 01  ..#)......'.....
0350: 49 1C 09 80 52 08 80 F8  FF FF 7F F8 FF FF 7F 73  I...R..........s
0360: 30 34 36 45 08 80 F8 FF  FF 7F F8 FF FF 7F 73 30  046E..........s0
0370: 34 37 00 80 4A 08 A0 0F  01 0C A0 0F 01 4A F0 FF  47..J........J..
0380: FF 7F 0C A0 0F 01 2B 0C  A0 0F 01 13 80 23 2A 0B  ......+......#*.
0390: 0C A0 0F 01 29 08 0C A0  0F 01 01 2B 0C A0 0F 01  ....)......+....
03A0: 14 80 23 29 08 0C A0 0F  01 02 6F 76 08 A0 0F 01  ..#)......ov....
03B0: 52 08 80 F8 FF FF 7F F8  FF FF 7F 73 30 34 37 45  R..........s047E
03C0: 08 80 F8 FF FF 7F F8 FF  FF 7F 73 30 34 38 00 80  ..........s048..
03D0: 29 08 08 A0 0F 01 01 2B  08 A0 0F 01 15 80 23 2B  )......+......#+
03E0: 08 A0 0F 01 16 80 23 29  08 08 A0 0F 01 02 52 08  ......#)......R.
03F0: 80 F8 FF FF 7F F8 FF FF  7F 73 30 34 38 45 08 80  .........s048E..
0400: F8 FF FF 7F F8 FF FF 7F  73 30 34 39 00 80 29 08  ........s049..).
0410: 0C A0 0F 01 03 29 08 08  A0 0F 01 03 2B 0C A0 0F  .....)......+...
0420: 01 17 80 23 29 08 08 A0  0F 01 04 2B 0C A0 0F 01  ...#)......+....
0430: 18 80 23 29 08 0C A0 0F  01 04 52 08 80 F8 FF FF  ..#)......R.....
0440: 7F F8 FF FF 7F 73 30 34  39 45 02 80 F0 FF FF 7F  .....s049E......
0450: F0 FF FF 7F 6F 76 6C 31  00 80 45 08 80 F8 FF FF  ....ovl1..E.....
0460: 7F F8 FF FF 7F 73 30 35  30 00 80 29 08 0C A0 0F  .....s050..)....
0470: 01 05 27 0B 08 A0 0F 01  4D 2B 08 A0 0F 01 19 80  ..'.....M+......
0480: 23 52 08 80 F8 FF FF 7F  F8 FF FF 7F 73 30 35 30  #R..........s050
0490: 45 08 80 F8 FF FF 7F F8  FF FF 7F 73 30 35 31 00  E..........s051.
04A0: 80 29 0B F0 FF FF 7F 25  4A 0C A0 0F 01 08 A0 0F  .).....%J.......
04B0: 01 4A F0 FF FF 7F 08 A0  0F 01 7B 08 A0 0F 01 2B  .J........{....+
04C0: 08 A0 0F 01 1A 80 23 2A  0B 08 A0 0F 01 29 08 0C  ......#*.....)..
04D0: A0 0F 01 06 6F 76 0C A0  0F 01 6F 76 F0 FF FF 7F  ....ov....ov....
04E0: 52 08 80 F8 FF FF 7F F8  FF FF 7F 73 30 35 31 02  R..........s051.
04F0: 09 10 0D 80 00 0B 05 45  08 80 F8 FF FF 7F F8 FF  .......E........
0500: FF 7F 73 30 35 36 00 80  01 38 05 02 09 10 0E 80  ..s056...8......
0510: 00 27 05 45 08 80 F8 FF  FF 7F F8 FF FF 7F 73 30  .'.E..........s0
0520: 35 36 00 80 01 38 05 45  08 80 F8 FF FF 7F F8 FF  56...8.E........
0530: FF 7F 73 30 35 32 00 80  4A 08 A0 0F 01 0C A0 0F  ..s052..J.......
0540: 01 2B 08 A0 0F 01 1B 80  23 6F 76 08 A0 0F 01 29  .+......#ov....)
0550: 08 08 A0 0F 01 01 2B 08  A0 0F 01 1C 80 23 29 08  ......+......#).
0560: 08 A0 0F 01 02 29 08 08  A0 0F 01 03 29 08 0C A0  .....)......)...
0570: 0F 01 01 2B 0C A0 0F 01  1D 80 23 5D 00 80 01 80  ...+......#]....
0580: 45 02 80 F0 FF FF 7F F0  FF FF 7F 66 64 6F 31 00  E..........fdo1.
0590: 80 1C 03 80 29 08 08 A0  0F 01 04 02 09 10 0D 80  ....)...........
05A0: 00 B5 05 52 08 80 F8 FF  FF 7F F8 FF FF 7F 73 30  ...R..........s0
05B0: 35 36 01 DE 05 02 09 10  0E 80 00 CF 05 52 08 80  56...........R..
05C0: F8 FF FF 7F F8 FF FF 7F  73 30 35 36 01 DE 05 52  ........s056...R
05D0: 08 80 F8 FF FF 7F F8 FF  FF 7F 73 30 35 32 29 08  ..........s052).
05E0: 0C A0 0F 01 02 5C 00 1E  80 5C 01 1E 80 4E 00 F0  .....\...\...N..
05F0: FF FF 7F 80 F0 FF FF 7F  46 00 45 02 80 F0 FF FF  ........F.E.....
0600: 7F F0 FF FF 7F 66 64 69  31 00 80 20 00 21 00     .....fdi1.. .!. 
```

#### Opcodes

```
  0: 0x0001 [0x20] SET_CLI_EVENT_UC_FLAG: Lock player control
  1: 0x0003 [0x42] SET_CLI_EVENT_CANCEL_DATA()
  2: 0x0004 [0x46] CAMERA_CONTROL: Disable user control
  3: 0x0006 [0x79] Jakoh Wahcondalo (ID: 17801224/0x010FA008) looks at LocalPlayer (Basic look)
  4: 0x0010 [0x79] LocalPlayer looks at Jakoh Wahcondalo (ID: 17801224/0x010FA008) (Basic look)
  5: 0x001A [0x5D] SET_MUSIC_VOLUME(volume=0*, fade_time=120*)
  6: 0x001F [0x45] LOAD_SCHEDULED_TASK: Load scheduler "fdo1" with entities [EventEntity, EventEntity], work=[200*, 0*]
  7: 0x0030 [0x1C] WAIT(60* ticks)
  8: 0x0033 [0x38] SET_CLIENT_EVENT_MODE(mode=19*)
  9: 0x0036 [0x29] REQ_SET_WAIT(priority=0x08, entity_id=LocalPlayer, tag_num=0x05)
 10: 0x003D [0x75] LOAD_ROOM(Load indoor room, room=507*)
 11: 0x0041 [0x75] LOAD_ROOM(No action)
 12: 0x0043 [0x92] Jakoh Wahcondalo (ID: 17801224/0x010FA008)->Render.Flags3 ^= 0x01
 13: 0x0049 [0x29] REQ_SET_WAIT(priority=0x0B, entity_id=LocalPlayer, tag_num=0x24)
 14: 0x0050 [0x29] REQ_SET_WAIT(priority=0x0B, entity_id=Ildy-Goldy (ID: 17801228/0x010FA00C), tag_num=0x48)
 15: 0x0057 [0x1C] WAIT(90* ticks)
 16: 0x005A [0x02] IF !(Work_Zone[9] == 5*) GOTO 0x0076
 17: 0x0062 [0x45] LOAD_SCHEDULED_TASK: Load scheduler "s053" with entities [EventEntity, EventEntity], work=[127*, 0*]
 18: 0x0073 [0x01] GOTO 0x00A3
 19: 0x0076 [0x02] IF !(Work_Zone[9] == 6*) GOTO 0x0092
 20: 0x007E [0x45] LOAD_SCHEDULED_TASK: Load scheduler "s053" with entities [EventEntity, EventEntity], work=[127*, 0*]
 21: 0x008F [0x01] GOTO 0x00A3
 22: 0x0092 [0x45] LOAD_SCHEDULED_TASK: Load scheduler "s043" with entities [EventEntity, EventEntity], work=[127*, 0*]

SUBROUTINE_00A3:
 23: 0x00A3 [0x5C] MUSIC_CONTROL: Set Idle (Day) music to song 127*
 24: 0x00A7 [0x5C] MUSIC_CONTROL: Set Idle (Night) music to song 127*
 25: 0x00AB [0x45] LOAD_SCHEDULED_TASK: Load scheduler "fdi1" with entities [EventEntity, EventEntity], work=[200*, 0*]
 26: 0x00BC [0x2B] Jakoh Wahcondalo (ID: 17801224/0x010FA008) [10691*]:
    → "You say you're looking for a Mithran Tracker?"
 27: 0x00C3 [0x23] WAIT_FOR_DIALOG_INTERACTION
 28: 0x00C4 [0x02] IF !(Work_Zone[9] == 5*) GOTO 0x00DE
 29: 0x00CC [0x52] END_LOAD_SCHEDULER: End scheduler "s053" with entities [EventEntity, EventEntity], work=127*
 30: 0x00DB [0x01] GOTO 0x0107
 31: 0x00DE [0x02] IF !(Work_Zone[9] == 6*) GOTO 0x00F8
 32: 0x00E6 [0x52] END_LOAD_SCHEDULER: End scheduler "s053" with entities [EventEntity, EventEntity], work=127*
 33: 0x00F5 [0x01] GOTO 0x0107
 34: 0x00F8 [0x52] END_LOAD_SCHEDULER: End scheduler "s043" with entities [EventEntity, EventEntity], work=127*

SUBROUTINE_0107:
 35: 0x0107 [0x45] LOAD_SCHEDULED_TASK: Load scheduler "ovl1" with entities [LocalPlayer, LocalPlayer], work=[200*, 0*]
 36: 0x0118 [0x45] LOAD_SCHEDULED_TASK: Load scheduler "s044" with entities [EventEntity, EventEntity], work=[127*, 0*]
 37: 0x0129 [0x29] REQ_SET_WAIT(priority=0x08, entity_id=Jakoh Wahcondalo (ID: 17801224/0x010FA008), tag_num=0x01)
 38: 0x0130 [0x2B] Jakoh Wahcondalo (ID: 17801224/0x010FA008) [10692*]:
    → "You're gonna have to be more specific. There're several sin hunters prowling arrround your continent right now."
 39: 0x0137 [0x23] WAIT_FOR_DIALOG_INTERACTION
 40: 0x0138 [0x29] REQ_SET_WAIT(priority=0x08, entity_id=Jakoh Wahcondalo (ID: 17801224/0x010FA008), tag_num=0x02)
 41: 0x013F [0x29] REQ_SET_WAIT(priority=0x08, entity_id=Jakoh Wahcondalo (ID: 17801224/0x010FA008), tag_num=0x03)
 42: 0x0146 [0x2B] Jakoh Wahcondalo (ID: 17801224/0x010FA008) [10693*]:
    → "All hell's brrreaking loose in our homeland."
 43: 0x014D [0x23] WAIT_FOR_DIALOG_INTERACTION
 44: 0x014E [0x29] REQ_SET_WAIT(priority=0x08, entity_id=Jakoh Wahcondalo (ID: 17801224/0x010FA008), tag_num=0x04)
 45: 0x0155 [0x52] END_LOAD_SCHEDULER: End scheduler "s044" with entities [EventEntity, EventEntity], work=127*
 46: 0x0164 [0x02] IF !(Work_Zone[9] == 3*) GOTO 0x0180
 47: 0x016C [0x45] LOAD_SCHEDULED_TASK: Load scheduler "s055" with entities [EventEntity, EventEntity], work=[127*, 0*]
 48: 0x017D [0x01] GOTO 0x01E5
 49: 0x0180 [0x02] IF !(Work_Zone[9] == 5*) GOTO 0x019C
 50: 0x0188 [0x45] LOAD_SCHEDULED_TASK: Load scheduler "s054" with entities [EventEntity, EventEntity], work=[127*, 0*]
 51: 0x0199 [0x01] GOTO 0x01E5
 52: 0x019C [0x02] IF !(Work_Zone[9] == 6*) GOTO 0x01B8
 53: 0x01A4 [0x45] LOAD_SCHEDULED_TASK: Load scheduler "s054" with entities [EventEntity, EventEntity], work=[127*, 0*]
 54: 0x01B5 [0x01] GOTO 0x01E5
 55: 0x01B8 [0x02] IF !(Work_Zone[9] == 8*) GOTO 0x01D4
 56: 0x01C0 [0x45] LOAD_SCHEDULED_TASK: Load scheduler "s055" with entities [EventEntity, EventEntity], work=[127*, 0*]
 57: 0x01D1 [0x01] GOTO 0x01E5
 58: 0x01D4 [0x45] LOAD_SCHEDULED_TASK: Load scheduler "s045" with entities [EventEntity, EventEntity], work=[127*, 0*]

SUBROUTINE_01E5:
 59: 0x01E5 [0x7B] LocalPlayer stops talking
 60: 0x01EA [0x29] REQ_SET_WAIT(priority=0x08, entity_id=Jakoh Wahcondalo (ID: 17801224/0x010FA008), tag_num=0x07)
 61: 0x01F1 [0x2B] Jakoh Wahcondalo (ID: 17801224/0x010FA008) [10694*]:
    → "For some rrreason, the Emptiness of legend has appeared, despite our constant battles with the beastmen..."
 62: 0x01F8 [0x23] WAIT_FOR_DIALOG_INTERACTION
 63: 0x01F9 [0x29] REQ_SET_WAIT(priority=0x08, entity_id=Jakoh Wahcondalo (ID: 17801224/0x010FA008), tag_num=0x08)
 64: 0x0200 [0x29] REQ_SET_WAIT(priority=0x08, entity_id=Jakoh Wahcondalo (ID: 17801224/0x010FA008), tag_num=0x09)
 65: 0x0207 [0x2B] Jakoh Wahcondalo (ID: 17801224/0x010FA008) [10695*]:
    → "But that's neither here nor there."
 66: 0x020E [0x23] WAIT_FOR_DIALOG_INTERACTION
 67: 0x020F [0x29] REQ_SET_WAIT(priority=0x08, entity_id=Jakoh Wahcondalo (ID: 17801224/0x010FA008), tag_num=0x0A)
 68: 0x0216 [0x02] IF !(Work_Zone[9] == 3*) GOTO 0x0230
 69: 0x021E [0x52] END_LOAD_SCHEDULER: End scheduler "s055" with entities [EventEntity, EventEntity], work=127*
 70: 0x022D [0x01] GOTO 0x028D
 71: 0x0230 [0x02] IF !(Work_Zone[9] == 5*) GOTO 0x024A
 72: 0x0238 [0x52] END_LOAD_SCHEDULER: End scheduler "s054" with entities [EventEntity, EventEntity], work=127*
 73: 0x0247 [0x01] GOTO 0x028D
 74: 0x024A [0x02] IF !(Work_Zone[9] == 6*) GOTO 0x0264
 75: 0x0252 [0x52] END_LOAD_SCHEDULER: End scheduler "s054" with entities [EventEntity, EventEntity], work=127*
 76: 0x0261 [0x01] GOTO 0x028D
 77: 0x0264 [0x02] IF !(Work_Zone[9] == 8*) GOTO 0x027E
 78: 0x026C [0x52] END_LOAD_SCHEDULER: End scheduler "s055" with entities [EventEntity, EventEntity], work=127*
 79: 0x027B [0x01] GOTO 0x028D
 80: 0x027E [0x52] END_LOAD_SCHEDULER: End scheduler "s045" with entities [EventEntity, EventEntity], work=127*

SUBROUTINE_028D:
 81: 0x028D [0x4A] Jakoh Wahcondalo (ID: 17801224/0x010FA008) looks at LocalPlayer
 82: 0x0296 [0x6F] WAIT_FRAME_DELAY: Yield until WaitTime reaches zero
 83: 0x0297 [0x76] CHECK_ENTITY_RENDER_FLAGS: Wait until Jakoh Wahcondalo (ID: 17801224/0x010FA008) Render.Flags0 and Render.Flags3 conditions are met
 84: 0x029C [0x2B] Jakoh Wahcondalo (ID: 17801224/0x010FA008) [10696*]:
    → "So which Tracker are you looking for? The one hunting dragons? The one hunting songs? Or the one hunting gods?"
 85: 0x02A3 [0x23] WAIT_FOR_DIALOG_INTERACTION
 86: 0x02A4 [0x45] LOAD_SCHEDULED_TASK: Load scheduler "fdo1" with entities [EventEntity, EventEntity], work=[200*, 0*]
 87: 0x02B5 [0x1C] WAIT(60* ticks)
 88: 0x02B8 [0x4E] SET_ENTITY_HIDE_FLAG: Show Ildy-Goldy (ID: 17801228/0x010FA00C)
 89: 0x02BE [0x80] LOAD_WAIT(entity=Ildy-Goldy (ID: 17801228/0x010FA00C))
 90: 0x02C3 [0x79] Ildy-Goldy (ID: 17801228/0x010FA00C) looks at Jakoh Wahcondalo (ID: 17801224/0x010FA008) (Basic look)
 91: 0x02CD [0x29] REQ_SET_WAIT(priority=0x0B, entity_id=Etteh Sulaej (ID: 17801225/0x010FA009), tag_num=0x39)
 92: 0x02D4 [0x29] REQ_SET_WAIT(priority=0x0B, entity_id=Cobbi Malgharam (ID: 17801227/0x010FA00B), tag_num=0x07)
 93: 0x02DB [0x29] REQ_SET_WAIT(priority=0x0B, entity_id=Balih Chavizaai (ID: 17801226/0x010FA00A), tag_num=0x07)
 94: 0x02E2 [0x92] Balih Chavizaai (ID: 17801226/0x010FA00A)->Render.Flags3 ^= 0x01
 95: 0x02E8 [0x92] Cobbi Malgharam (ID: 17801227/0x010FA00B)->Render.Flags3 ^= 0x01
 96: 0x02EE [0x92] Etteh Sulaej (ID: 17801225/0x010FA009)->Render.Flags3 ^= 0x01
 97: 0x02F4 [0x79] Cobbi Malgharam (ID: 17801227/0x010FA00B) looks at Ildy-Goldy (ID: 17801228/0x010FA00C) (Basic look)
 98: 0x02FE [0x79] Balih Chavizaai (ID: 17801226/0x010FA00A) looks at Ildy-Goldy (ID: 17801228/0x010FA00C) (Basic look)
 99: 0x0308 [0x79] Etteh Sulaej (ID: 17801225/0x010FA009) looks at Ildy-Goldy (ID: 17801228/0x010FA00C) (Basic look)
100: 0x0312 [0x45] LOAD_SCHEDULED_TASK: Load scheduler "s046" with entities [EventEntity, EventEntity], work=[127*, 0*]
101: 0x0323 [0x45] LOAD_SCHEDULED_TASK: Load scheduler "fdi1" with entities [EventEntity, EventEntity], work=[200*, 0*]
102: 0x0334 [0x29] REQ_SET_WAIT(priority=0x08, entity_id=Jakoh Wahcondalo (ID: 17801224/0x010FA008), tag_num=0x0B)
103: 0x033B [0x2B] Jakoh Wahcondalo (ID: 17801224/0x010FA008) [10697*]:
    → "A Mithra wearing a black helm? Ah, you'd be looking for Shikaree Y, then. She's always rrrubbing people's fur the wrong way."
104: 0x0342 [0x23] WAIT_FOR_DIALOG_INTERACTION
105: 0x0343 [0x29] REQ_SET_WAIT(priority=0x08, entity_id=Jakoh Wahcondalo (ID: 17801224/0x010FA008), tag_num=0x0C)
106: 0x034A [0x27] REQ_SET(priority=0x0B, entity_id=Ildy-Goldy (ID: 17801228/0x010FA00C), tag_num=0x49)
107: 0x0351 [0x1C] WAIT(6* ticks)
108: 0x0354 [0x52] END_LOAD_SCHEDULER: End scheduler "s046" with entities [EventEntity, EventEntity], work=127*
109: 0x0363 [0x45] LOAD_SCHEDULED_TASK: Load scheduler "s047" with entities [EventEntity, EventEntity], work=[127*, 0*]
110: 0x0374 [0x4A] Jakoh Wahcondalo (ID: 17801224/0x010FA008) looks at Ildy-Goldy (ID: 17801228/0x010FA00C)
111: 0x037D [0x4A] LocalPlayer looks at Ildy-Goldy (ID: 17801228/0x010FA00C)
112: 0x0386 [0x2B] Ildy-Goldy (ID: 17801228/0x010FA00C) [10698*]:
    → "Chieftainness Jakoh. That sin hunter vas headed for Xarcabard vith an untested Rhinostery tuning fork."
113: 0x038D [0x23] WAIT_FOR_DIALOG_INTERACTION
114: 0x038E [0x2A] GET_REQ_LEVEL(level=11, entity_id=Ildy-Goldy (ID: 17801228/0x010FA00C))
115: 0x0394 [0x29] REQ_SET_WAIT(priority=0x08, entity_id=Ildy-Goldy (ID: 17801228/0x010FA00C), tag_num=0x01)
116: 0x039B [0x2B] Ildy-Goldy (ID: 17801228/0x010FA00C) [10699*]:
    → "Ve vish to track her down. Vhere is the crystal of darkness mentioned in the legends of the Mithra?"
117: 0x03A2 [0x23] WAIT_FOR_DIALOG_INTERACTION
118: 0x03A3 [0x29] REQ_SET_WAIT(priority=0x08, entity_id=Ildy-Goldy (ID: 17801228/0x010FA00C), tag_num=0x02)
119: 0x03AA [0x6F] WAIT_FRAME_DELAY: Yield until WaitTime reaches zero
120: 0x03AB [0x76] CHECK_ENTITY_RENDER_FLAGS: Wait until Jakoh Wahcondalo (ID: 17801224/0x010FA008) Render.Flags0 and Render.Flags3 conditions are met
121: 0x03B0 [0x52] END_LOAD_SCHEDULER: End scheduler "s047" with entities [EventEntity, EventEntity], work=127*
122: 0x03BF [0x45] LOAD_SCHEDULED_TASK: Load scheduler "s048" with entities [EventEntity, EventEntity], work=[127*, 0*]
123: 0x03D0 [0x29] REQ_SET_WAIT(priority=0x08, entity_id=Jakoh Wahcondalo (ID: 17801224/0x010FA008), tag_num=0x01)
124: 0x03D7 [0x2B] Jakoh Wahcondalo (ID: 17801224/0x010FA008) [10700*]:
    → "Why would I know a thing like that, Ildy-Goldy?"
125: 0x03DE [0x23] WAIT_FOR_DIALOG_INTERACTION
126: 0x03DF [0x2B] Jakoh Wahcondalo (ID: 17801224/0x010FA008) [10701*]:
    → "I just took over here as chieftainness. Why don't you dirrrect your questions to our old boss?"
127: 0x03E6 [0x23] WAIT_FOR_DIALOG_INTERACTION
128: 0x03E7 [0x29] REQ_SET_WAIT(priority=0x08, entity_id=Jakoh Wahcondalo (ID: 17801224/0x010FA008), tag_num=0x02)
129: 0x03EE [0x52] END_LOAD_SCHEDULER: End scheduler "s048" with entities [EventEntity, EventEntity], work=127*
130: 0x03FD [0x45] LOAD_SCHEDULED_TASK: Load scheduler "s049" with entities [EventEntity, EventEntity], work=[127*, 0*]
131: 0x040E [0x29] REQ_SET_WAIT(priority=0x08, entity_id=Ildy-Goldy (ID: 17801228/0x010FA00C), tag_num=0x03)
132: 0x0415 [0x29] REQ_SET_WAIT(priority=0x08, entity_id=Jakoh Wahcondalo (ID: 17801224/0x010FA008), tag_num=0x03)
133: 0x041C [0x2B] Ildy-Goldy (ID: 17801228/0x010FA00C) [10702*]:
    → "Romaa Mihgo? Ve Tarutaru--or more specifically the Rhinostery--are not on the bestaru of terms vith your former chieftainness."
134: 0x0423 [0x23] WAIT_FOR_DIALOG_INTERACTION
135: 0x0424 [0x29] REQ_SET_WAIT(priority=0x08, entity_id=Jakoh Wahcondalo (ID: 17801224/0x010FA008), tag_num=0x04)
136: 0x042B [0x2B] Ildy-Goldy (ID: 17801228/0x010FA00C) [10703*]:
    → "It vas connected to the allied expedition. Iru-Kuiru of the Rhinostery hired Yow Rabntah as an adventurer, and the tragedy that followed drove a vedge between us and the Mithra of Kazham..."
137: 0x0432 [0x23] WAIT_FOR_DIALOG_INTERACTION
138: 0x0433 [0x29] REQ_SET_WAIT(priority=0x08, entity_id=Ildy-Goldy (ID: 17801228/0x010FA00C), tag_num=0x04)
139: 0x043A [0x52] END_LOAD_SCHEDULER: End scheduler "s049" with entities [EventEntity, EventEntity], work=127*
140: 0x0449 [0x45] LOAD_SCHEDULED_TASK: Load scheduler "ovl1" with entities [LocalPlayer, LocalPlayer], work=[200*, 0*]
141: 0x045A [0x45] LOAD_SCHEDULED_TASK: Load scheduler "s050" with entities [EventEntity, EventEntity], work=[127*, 0*]
142: 0x046B [0x29] REQ_SET_WAIT(priority=0x08, entity_id=Ildy-Goldy (ID: 17801228/0x010FA00C), tag_num=0x05)
143: 0x0472 [0x27] REQ_SET(priority=0x0B, entity_id=Jakoh Wahcondalo (ID: 17801224/0x010FA008), tag_num=0x4D)
144: 0x0479 [0x2B] Jakoh Wahcondalo (ID: 17801224/0x010FA008) [10704*]:
    → "I have the same kind of prrroblems when it comes to Romaa. I had a run-in with her daughter, Nanaa Mihgo."
145: 0x0480 [0x23] WAIT_FOR_DIALOG_INTERACTION
146: 0x0481 [0x52] END_LOAD_SCHEDULER: End scheduler "s050" with entities [EventEntity, EventEntity], work=127*
147: 0x0490 [0x45] LOAD_SCHEDULED_TASK: Load scheduler "s051" with entities [EventEntity, EventEntity], work=[127*, 0*]
148: 0x04A1 [0x29] REQ_SET_WAIT(priority=0x0B, entity_id=LocalPlayer, tag_num=0x25)
149: 0x04A8 [0x4A] Ildy-Goldy (ID: 17801228/0x010FA00C) looks at Jakoh Wahcondalo (ID: 17801224/0x010FA008)
150: 0x04B1 [0x4A] LocalPlayer looks at Jakoh Wahcondalo (ID: 17801224/0x010FA008)
151: 0x04BA [0x7B] Jakoh Wahcondalo (ID: 17801224/0x010FA008) stops talking
152: 0x04BF [0x2B] Jakoh Wahcondalo (ID: 17801224/0x010FA008) [10705*]:
    → "But Romaa still rrrecognized my strength when it came to choosing a new chieftainness. She doesn't let her emotions interfere with important matters."
153: 0x04C6 [0x23] WAIT_FOR_DIALOG_INTERACTION
154: 0x04C7 [0x2A] GET_REQ_LEVEL(level=11, entity_id=Jakoh Wahcondalo (ID: 17801224/0x010FA008))
155: 0x04CD [0x29] REQ_SET_WAIT(priority=0x08, entity_id=Ildy-Goldy (ID: 17801228/0x010FA00C), tag_num=0x06)
156: 0x04D4 [0x6F] WAIT_FRAME_DELAY: Yield until WaitTime reaches zero
157: 0x04D5 [0x76] CHECK_ENTITY_RENDER_FLAGS: Wait until Ildy-Goldy (ID: 17801228/0x010FA00C) Render.Flags0 and Render.Flags3 conditions are met
158: 0x04DA [0x6F] WAIT_FRAME_DELAY: Yield until WaitTime reaches zero
159: 0x04DB [0x76] CHECK_ENTITY_RENDER_FLAGS: Wait until LocalPlayer Render.Flags0 and Render.Flags3 conditions are met
160: 0x04E0 [0x52] END_LOAD_SCHEDULER: End scheduler "s051" with entities [EventEntity, EventEntity], work=127*
161: 0x04EF [0x02] IF !(Work_Zone[9] == 3*) GOTO 0x050B
162: 0x04F7 [0x45] LOAD_SCHEDULED_TASK: Load scheduler "s056" with entities [EventEntity, EventEntity], work=[127*, 0*]
163: 0x0508 [0x01] GOTO 0x0538
164: 0x050B [0x02] IF !(Work_Zone[9] == 8*) GOTO 0x0527
165: 0x0513 [0x45] LOAD_SCHEDULED_TASK: Load scheduler "s056" with entities [EventEntity, EventEntity], work=[127*, 0*]
166: 0x0524 [0x01] GOTO 0x0538
167: 0x0527 [0x45] LOAD_SCHEDULED_TASK: Load scheduler "s052" with entities [EventEntity, EventEntity], work=[127*, 0*]

SUBROUTINE_0538:
168: 0x0538 [0x4A] Jakoh Wahcondalo (ID: 17801224/0x010FA008) looks at Ildy-Goldy (ID: 17801228/0x010FA00C)
169: 0x0541 [0x2B] Jakoh Wahcondalo (ID: 17801224/0x010FA008) [10706*]:
    → "You two are trying to help Shikaree Y, rrright?"
170: 0x0548 [0x23] WAIT_FOR_DIALOG_INTERACTION
171: 0x0549 [0x6F] WAIT_FRAME_DELAY: Yield until WaitTime reaches zero
172: 0x054A [0x76] CHECK_ENTITY_RENDER_FLAGS: Wait until Jakoh Wahcondalo (ID: 17801224/0x010FA008) Render.Flags0 and Render.Flags3 conditions are met
173: 0x054F [0x29] REQ_SET_WAIT(priority=0x08, entity_id=Jakoh Wahcondalo (ID: 17801224/0x010FA008), tag_num=0x01)
174: 0x0556 [0x2B] Jakoh Wahcondalo (ID: 17801224/0x010FA008) [10707*]:
    → "Be honest in your apprrroach and she'll tell you what you need to know. Romaa's probably mellowed out in her old age."
175: 0x055D [0x23] WAIT_FOR_DIALOG_INTERACTION
176: 0x055E [0x29] REQ_SET_WAIT(priority=0x08, entity_id=Jakoh Wahcondalo (ID: 17801224/0x010FA008), tag_num=0x02)
177: 0x0565 [0x29] REQ_SET_WAIT(priority=0x08, entity_id=Jakoh Wahcondalo (ID: 17801224/0x010FA008), tag_num=0x03)
178: 0x056C [0x29] REQ_SET_WAIT(priority=0x08, entity_id=Ildy-Goldy (ID: 17801228/0x010FA00C), tag_num=0x01)
179: 0x0573 [0x2B] Ildy-Goldy (ID: 17801228/0x010FA00C) [10708*]:
    → "Thank you for your advice. Ve vill see vhat Romaa Mihgo has to say."
180: 0x057A [0x23] WAIT_FOR_DIALOG_INTERACTION
181: 0x057B [0x5D] SET_MUSIC_VOLUME(volume=0*, fade_time=120*)
182: 0x0580 [0x45] LOAD_SCHEDULED_TASK: Load scheduler "fdo1" with entities [LocalPlayer, LocalPlayer], work=[200*, 0*]
183: 0x0591 [0x1C] WAIT(60* ticks)
184: 0x0594 [0x29] REQ_SET_WAIT(priority=0x08, entity_id=Jakoh Wahcondalo (ID: 17801224/0x010FA008), tag_num=0x04)
185: 0x059B [0x02] IF !(Work_Zone[9] == 3*) GOTO 0x05B5
186: 0x05A3 [0x52] END_LOAD_SCHEDULER: End scheduler "s056" with entities [EventEntity, EventEntity], work=127*
187: 0x05B2 [0x01] GOTO 0x05DE
188: 0x05B5 [0x02] IF !(Work_Zone[9] == 8*) GOTO 0x05CF
189: 0x05BD [0x52] END_LOAD_SCHEDULER: End scheduler "s056" with entities [EventEntity, EventEntity], work=127*
190: 0x05CC [0x01] GOTO 0x05DE
191: 0x05CF [0x52] END_LOAD_SCHEDULER: End scheduler "s052" with entities [EventEntity, EventEntity], work=127*

SUBROUTINE_05DE:
192: 0x05DE [0x29] REQ_SET_WAIT(priority=0x08, entity_id=Ildy-Goldy (ID: 17801228/0x010FA00C), tag_num=0x02)
193: 0x05E5 [0x5C] MUSIC_CONTROL: Set Idle (Day) music to song 135*
194: 0x05E9 [0x5C] MUSIC_CONTROL: Set Idle (Night) music to song 135*
195: 0x05ED [0x4E] SET_ENTITY_HIDE_FLAG: Show LocalPlayer
196: 0x05F3 [0x80] LOAD_WAIT(entity=LocalPlayer)
197: 0x05F8 [0x46] CAMERA_CONTROL: Restore default settings
198: 0x05FA [0x45] LOAD_SCHEDULED_TASK: Load scheduler "fdi1" with entities [LocalPlayer, LocalPlayer], work=[200*, 0*]
199: 0x060B [0x20] SET_CLI_EVENT_UC_FLAG: Unlock player control
200: 0x060D [0x21] END_EVENT
201: 0x060E [0x00] END_REQSTACK()
```

### Event 295

#### Metadata

| Field        | Value      |
|--------------|------------|
| Entrypoint   | 0x060F     |
| Data Size    | 2072 bytes |
| Instructions | 274        |

```
      00 01 02 03 04 05 06 07  08 09 0A 0B 0C 0D 0E 0F
      -- -- -- -- -- -- -- --  -- -- -- -- -- -- -- --
0600:                                               20                  
0610: 01 42 46 01 4A 3B A0 0F  01 F0 FF FF 7F 5D 00 80  .BF.J;.......]..
0620: 01 80 45 02 80 F8 FF FF  7F F8 FF FF 7F 66 64 6F  ..E..........fdo
0630: 31 00 80 1C 03 80 38 04  80 29 08 F0 FF FF 7F 05  1.....8..)......
0640: 75 00 1F 80 75 01 29 0B  3B A0 0F 01 07 29 0B F0  u...u.).;....)..
0650: FF FF 7F 26 29 0B 0C A0  0F 01 4B 4E 00 0C A0 0F  ...&).....KN....
0660: 01 80 0C A0 0F 01 92 01  0C A0 0F 01 92 01 3B A0  ..............;.
0670: 0F 01 4A 0C A0 0F 01 3B  A0 0F 01 4A F0 FF FF 7F  ..J....;...J....
0680: 3B A0 0F 01 4A 3B A0 0F  01 0C A0 0F 01 6F 76 0C  ;...J;.......ov.
0690: A0 0F 01 6F 76 F0 FF FF  7F 6F 76 3B A0 0F 01 92  ...ov....ov;....
06A0: 01 3D A0 0F 01 92 01 3C  A0 0F 01 92 01 3B A0 0F  .=.....<.....;..
06B0: 01 5C 00 20 80 5C 01 20  80 45 08 80 F8 FF FF 7F  .\. .\. .E......
06C0: F8 FF FF 7F 73 30 35 37  00 80 45 02 80 F8 FF FF  ....s057..E.....
06D0: 7F F8 FF FF 7F 66 64 69  31 00 80 29 08 0C A0 0F  .....fdi1..)....
06E0: 01 01 2B 0C A0 0F 01 21  80 23 2B 0C A0 0F 01 22  ..+....!.#+...."
06F0: 80 23 52 08 80 F8 FF FF  7F F8 FF FF 7F 73 30 35  .#R..........s05
0700: 37 45 02 80 F0 FF FF 7F  F0 FF FF 7F 6F 76 6C 31  7E..........ovl1
0710: 00 80 45 08 80 F8 FF FF  7F F8 FF FF 7F 73 30 35  ..E..........s05
0720: 38 00 80 4E 01 F0 FF FF  7F 2B 0C A0 0F 01 23 80  8..N.....+....#.
0730: 23 2B 0C A0 0F 01 24 80  23 29 08 0C A0 0F 01 02  #+....$.#)......
0740: 52 08 80 F8 FF FF 7F F8  FF FF 7F 73 30 35 38 45  R..........s058E
0750: 08 80 F8 FF FF 7F F8 FF  FF 7F 73 30 35 39 00 80  ..........s059..
0760: 4E 00 F0 FF FF 7F 29 08  0C A0 0F 01 1D 2B 0C A0  N.....)......+..
0770: 0F 01 25 80 23 29 08 0C  A0 0F 01 1E 27 08 0C A0  ..%.#)......'...
0780: 0F 01 30 2B 0C A0 0F 01  26 80 23 2A 08 0C A0 0F  ..0+....&.#*....
0790: 01 52 08 80 F8 FF FF 7F  F8 FF FF 7F 73 30 35 39  .R..........s059
07A0: 45 08 80 F8 FF FF 7F F8  FF FF 7F 73 30 36 30 00  E..........s060.
07B0: 80 2B 3B A0 0F 01 27 80  23 2B 3B A0 0F 01 28 80  .+;...'.#+;...(.
07C0: 23 2B 3B A0 0F 01 29 80  23 52 08 80 F8 FF FF 7F  #+;...).#R......
07D0: F8 FF FF 7F 73 30 36 30  45 08 80 F8 FF FF 7F F8  ....s060E.......
07E0: FF FF 7F 73 30 36 31 00  80 29 08 0C A0 0F 01 01  ...s061..)......
07F0: 2B 0C A0 0F 01 2A 80 23  29 08 0C A0 0F 01 02 52  +....*.#)......R
0800: 08 80 F8 FF FF 7F F8 FF  FF 7F 73 30 36 31 45 08  ..........s061E.
0810: 80 F8 FF FF 7F F8 FF FF  7F 73 30 36 32 00 80 7B  .........s062..{
0820: 0C A0 0F 01 79 00 F0 FF  FF 7F 0C A0 0F 01 27 0B  ....y.........'.
0830: 0C A0 0F 01 4C 2B 0C A0  0F 01 2B 80 23 2A 0B 0C  ....L+....+.#*..
0840: A0 0F 01 2B 0C A0 0F 01  2C 80 23 52 08 80 F8 FF  ...+....,.#R....
0850: FF 7F F8 FF FF 7F 73 30  36 32 45 08 80 F8 FF FF  ......s062E.....
0860: 7F F8 FF FF 7F 73 30 36  33 00 80 02 09 10 0E 80  .....s063.......
0870: 00 80 08 79 00 F0 FF FF  7F 0C A0 0F 01 01 89 08  ...y............
0880: 4A F0 FF FF 7F 0C A0 0F  01 4A 0C A0 0F 01 3B A0  J........J....;.
0890: 0F 01 6F 76 0C A0 0F 01  29 08 0C A0 0F 01 1D 2B  ..ov....)......+
08A0: 0C A0 0F 01 2D 80 23 29  08 0C A0 0F 01 1E 7C 00  ....-.#)......|.
08B0: 3B A0 0F 01 2B 3B A0 0F  01 2E 80 23 7C 01 3B A0  ;...+;.....#|.;.
08C0: 0F 01 6F 76 F0 FF FF 7F  52 08 80 F8 FF FF 7F F8  ..ov....R.......
08D0: FF FF 7F 73 30 36 33 02  09 10 0D 80 00 F3 08 45  ...s063........E
08E0: 08 80 F8 FF FF 7F F8 FF  FF 7F 73 30 37 35 00 80  ..........s075..
08F0: 01 20 09 02 09 10 0E 80  00 0F 09 45 08 80 F8 FF  . .........E....
0900: FF 7F F8 FF FF 7F 73 30  37 35 00 80 01 20 09 45  ......s075... .E
0910: 08 80 F8 FF FF 7F F8 FF  FF 7F 73 30 36 34 00 80  ..........s064..
0920: 27 08 0C A0 0F 01 30 2B  0C A0 0F 01 2F 80 23 2B  '.....0+..../.#+
0930: 0C A0 0F 01 30 80 23 2A  08 0C A0 0F 01 02 09 10  ....0.#*........
0940: 0D 80 00 57 09 52 08 80  F8 FF FF 7F F8 FF FF 7F  ...W.R..........
0950: 73 30 37 35 01 80 09 02  09 10 0E 80 00 71 09 52  s075.........q.R
0960: 08 80 F8 FF FF 7F F8 FF  FF 7F 73 30 37 35 01 80  ..........s075..
0970: 09 52 08 80 F8 FF FF 7F  F8 FF FF 7F 73 30 36 34  .R..........s064
0980: 45 08 80 F8 FF FF 7F F8  FF FF 7F 73 30 36 35 00  E..........s065.
0990: 80 27 0B 0C A0 0F 01 4D  2B 0C A0 0F 01 31 80 23  .'.....M+....1.#
09A0: 2A 0B 0C A0 0F 01 4A F0  FF FF 7F 3B A0 0F 01 1C  *.....J....;....
09B0: 06 80 2B 3B A0 0F 01 32  80 23 2B 0C A0 0F 01 33  ..+;...2.#+....3
09C0: 80 23 6F 76 F0 FF FF 7F  52 08 80 F8 FF FF 7F F8  .#ov....R.......
09D0: FF FF 7F 73 30 36 35 45  02 80 F0 FF FF 7F F0 FF  ...s065E........
09E0: FF 7F 6F 76 6C 31 00 80  45 08 80 F8 FF FF 7F F8  ..ovl1..E.......
09F0: FF FF 7F 73 30 36 36 00  80 79 00 F0 FF FF 7F 3B  ...s066..y.....;
0A00: A0 0F 01 2B 3B A0 0F 01  34 80 23 52 08 80 F8 FF  ...+;...4.#R....
0A10: FF 7F F8 FF FF 7F 73 30  36 36 02 09 10 0D 80 00  ......s066......
0A20: 36 0A 45 08 80 F8 FF FF  7F F8 FF FF 7F 73 30 37  6.E..........s07
0A30: 36 00 80 01 63 0A 02 09  10 0E 80 00 52 0A 45 08  6...c.......R.E.
0A40: 80 F8 FF FF 7F F8 FF FF  7F 73 30 37 36 00 80 01  .........s076...
0A50: 63 0A 45 08 80 F8 FF FF  7F F8 FF FF 7F 73 30 36  c.E..........s06
0A60: 37 00 80 7B 3B A0 0F 01  4B 3B A0 0F 01 35 80 6F  7..{;...K;...5.o
0A70: 76 3B A0 0F 01 2B 3B A0  0F 01 36 80 23 2B 3B A0  v;...+;...6.#+;.
0A80: 0F 01 37 80 23 02 09 10  0D 80 00 9F 0A 52 08 80  ..7.#........R..
0A90: F8 FF FF 7F F8 FF FF 7F  73 30 37 36 01 C8 0A 02  ........s076....
0AA0: 09 10 0E 80 00 B9 0A 52  08 80 F8 FF FF 7F F8 FF  .......R........
0AB0: FF 7F 73 30 37 36 01 C8  0A 52 08 80 F8 FF FF 7F  ..s076...R......
0AC0: F8 FF FF 7F 73 30 36 37  45 08 80 F8 FF FF 7F F8  ....s067E.......
0AD0: FF FF 7F 73 30 36 38 00  80 79 00 3B A0 0F 01 0C  ...s068..y.;....
0AE0: A0 0F 01 02 06 10 38 80  00 F6 0A 2B 3B A0 0F 01  ......8....+;...
0AF0: 39 80 23 01 FE 0A 2B 3B  A0 0F 01 3A 80 23 52 08  9.#...+;...:.#R.
0B00: 80 F8 FF FF 7F F8 FF FF  7F 73 30 36 38 45 02 80  .........s068E..
0B10: F0 FF FF 7F F0 FF FF 7F  6F 76 6C 31 00 80 45 08  ........ovl1..E.
0B20: 80 F8 FF FF 7F F8 FF FF  7F 73 30 36 39 00 80 2B  .........s069..+
0B30: 3B A0 0F 01 3B 80 23 02  06 10 38 80 00 47 0B 2B  ;...;.#...8..G.+
0B40: 3B A0 0F 01 3C 80 23 27  08 0C A0 0F 01 2F 2B 0C  ;...<.#'...../+.
0B50: A0 0F 01 3D 80 23 2A 08  0C A0 0F 01 52 08 80 F8  ...=.#*.....R...
0B60: FF FF 7F F8 FF FF 7F 73  30 36 39 45 08 80 F8 FF  .......s069E....
0B70: FF 7F F8 FF FF 7F 73 30  37 30 00 80 4A 3B A0 0F  ......s070..J;..
0B80: 01 0C A0 0F 01 6F 76 3B  A0 0F 01 79 00 F0 FF FF  .....ov;...y....
0B90: 7F 0C A0 0F 01 2B 3B A0  0F 01 3E 80 23 2B 3B A0  .....+;...>.#+;.
0BA0: 0F 01 3F 80 23 29 08 0C  A0 0F 01 2F 52 08 80 F8  ..?.#)...../R...
0BB0: FF FF 7F F8 FF FF 7F 73  30 37 30 02 09 10 0D 80  .......s070.....
0BC0: 00 D7 0B 45 08 80 F8 FF  FF 7F F8 FF FF 7F 73 30  ...E..........s0
0BD0: 37 37 00 80 01 3C 0C 02  09 10 07 80 00 F3 0B 45  77...<.........E
0BE0: 08 80 F8 FF FF 7F F8 FF  FF 7F 73 30 37 33 00 80  ..........s073..
0BF0: 01 3C 0C 02 09 10 09 80  00 0F 0C 45 08 80 F8 FF  .<.........E....
0C00: FF 7F F8 FF FF 7F 73 30  37 33 00 80 01 3C 0C 02  ......s073...<..
0C10: 09 10 0E 80 00 2B 0C 45  08 80 F8 FF FF 7F F8 FF  .....+.E........
0C20: FF 7F 73 30 37 37 00 80  01 3C 0C 45 08 80 F8 FF  ..s077...<.E....
0C30: FF 7F F8 FF FF 7F 73 30  37 31 00 80 79 00 F0 FF  ......s071..y...
0C40: FF 7F 3B A0 0F 01 79 00  3B A0 0F 01 F0 FF FF 7F  ..;...y.;.......
0C50: 2B 3B A0 0F 01 40 80 23  79 00 3B A0 0F 01 0C A0  +;...@.#y.;.....
0C60: 0F 01 2B 3B A0 0F 01 41  80 23 02 09 10 0D 80 00  ..+;...A.#......
0C70: 84 0C 52 08 80 F8 FF FF  7F F8 FF FF 7F 73 30 37  ..R..........s07
0C80: 37 01 E1 0C 02 09 10 07  80 00 9E 0C 52 08 80 F8  7...........R...
0C90: FF FF 7F F8 FF FF 7F 73  30 37 33 01 E1 0C 02 09  .......s073.....
0CA0: 10 09 80 00 B8 0C 52 08  80 F8 FF FF 7F F8 FF FF  ......R.........
0CB0: 7F 73 30 37 33 01 E1 0C  02 09 10 0E 80 00 D2 0C  .s073...........
0CC0: 52 08 80 F8 FF FF 7F F8  FF FF 7F 73 30 37 37 01  R..........s077.
0CD0: E1 0C 52 08 80 F8 FF FF  7F F8 FF FF 7F 73 30 37  ..R..........s07
0CE0: 31 02 09 10 0D 80 00 FD  0C 45 08 80 F8 FF FF 7F  1........E......
0CF0: F8 FF FF 7F 73 30 37 38  00 80 01 2A 0D 02 09 10  ....s078...*....
0D00: 0E 80 00 19 0D 45 08 80  F8 FF FF 7F F8 FF FF 7F  .....E..........
0D10: 73 30 37 38 00 80 01 2A  0D 45 08 80 F8 FF FF 7F  s078...*.E......
0D20: F8 FF FF 7F 73 30 37 32  00 80 4A 0C A0 0F 01 3B  ....s072..J....;
0D30: A0 0F 01 7B 0C A0 0F 01  2B 0C A0 0F 01 42 80 23  ...{....+....B.#
0D40: 79 00 F0 FF FF 7F 0C A0  0F 01 4A 0C A0 0F 01 F0  y.........J.....
0D50: FF FF 7F 6F 76 0C A0 0F  01 29 08 0C A0 0F 01 01  ...ov....)......
0D60: 2B 0C A0 0F 01 43 80 23  29 08 0C A0 0F 01 02 02  +....C.#).......
0D70: 09 10 0D 80 00 89 0D 52  08 80 F8 FF FF 7F F8 FF  .......R........
0D80: FF 7F 73 30 37 38 01 B2  0D 02 09 10 0E 80 00 A3  ..s078..........
0D90: 0D 52 08 80 F8 FF FF 7F  F8 FF FF 7F 73 30 37 38  .R..........s078
0DA0: 01 B2 0D 52 08 80 F8 FF  FF 7F F8 FF FF 7F 73 30  ...R..........s0
0DB0: 37 32 5D 00 80 01 80 45  08 80 F8 FF FF 7F F8 FF  72]....E........
0DC0: FF 7F 73 30 37 34 00 80  7B 0C A0 0F 01 27 0B 0C  ..s074..{....'..
0DD0: A0 0F 01 4E 1C 06 80 45  02 80 F0 FF FF 7F F0 FF  ...N...E........
0DE0: FF 7F 66 64 6F 31 00 80  1C 03 80 52 08 80 F8 FF  ..fdo1.....R....
0DF0: FF 7F F8 FF FF 7F 73 30  37 34 5C 00 1E 80 5C 01  ......s074\...\.
0E00: 1E 80 1C 44 80 4E 00 F0  FF FF 7F 80 F0 FF FF 7F  ...D.N..........
0E10: 46 00 45 02 80 F0 FF FF  7F F0 FF FF 7F 66 64 69  F.E..........fdi
0E20: 31 00 80 20 00 21 00                              1.. .!.         
```

#### Opcodes

```
  0: 0x060F [0x20] SET_CLI_EVENT_UC_FLAG: Lock player control
  1: 0x0611 [0x42] SET_CLI_EVENT_CANCEL_DATA()
  2: 0x0612 [0x46] CAMERA_CONTROL: Disable user control
  3: 0x0614 [0x4A] Romaa Mihgo (ID: 17801275/0x010FA03B) looks at LocalPlayer
  4: 0x061D [0x5D] SET_MUSIC_VOLUME(volume=0*, fade_time=120*)
  5: 0x0622 [0x45] LOAD_SCHEDULED_TASK: Load scheduler "fdo1" with entities [EventEntity, EventEntity], work=[200*, 0*]
  6: 0x0633 [0x1C] WAIT(60* ticks)
  7: 0x0636 [0x38] SET_CLIENT_EVENT_MODE(mode=19*)
  8: 0x0639 [0x29] REQ_SET_WAIT(priority=0x08, entity_id=LocalPlayer, tag_num=0x05)
  9: 0x0640 [0x75] LOAD_ROOM(Load indoor room, room=510*)
 10: 0x0644 [0x75] LOAD_ROOM(No action)
 11: 0x0646 [0x29] REQ_SET_WAIT(priority=0x0B, entity_id=Romaa Mihgo (ID: 17801275/0x010FA03B), tag_num=0x07)
 12: 0x064D [0x29] REQ_SET_WAIT(priority=0x0B, entity_id=LocalPlayer, tag_num=0x26)
 13: 0x0654 [0x29] REQ_SET_WAIT(priority=0x0B, entity_id=Ildy-Goldy (ID: 17801228/0x010FA00C), tag_num=0x4B)
 14: 0x065B [0x4E] SET_ENTITY_HIDE_FLAG: Show Ildy-Goldy (ID: 17801228/0x010FA00C)
 15: 0x0661 [0x80] LOAD_WAIT(entity=Ildy-Goldy (ID: 17801228/0x010FA00C))
 16: 0x0666 [0x92] Ildy-Goldy (ID: 17801228/0x010FA00C)->Render.Flags3 ^= 0x01
 17: 0x066C [0x92] Romaa Mihgo (ID: 17801275/0x010FA03B)->Render.Flags3 ^= 0x01
 18: 0x0672 [0x4A] Ildy-Goldy (ID: 17801228/0x010FA00C) looks at Romaa Mihgo (ID: 17801275/0x010FA03B)
 19: 0x067B [0x4A] LocalPlayer looks at Romaa Mihgo (ID: 17801275/0x010FA03B)
 20: 0x0684 [0x4A] Romaa Mihgo (ID: 17801275/0x010FA03B) looks at Ildy-Goldy (ID: 17801228/0x010FA00C)
 21: 0x068D [0x6F] WAIT_FRAME_DELAY: Yield until WaitTime reaches zero
 22: 0x068E [0x76] CHECK_ENTITY_RENDER_FLAGS: Wait until Ildy-Goldy (ID: 17801228/0x010FA00C) Render.Flags0 and Render.Flags3 conditions are met
 23: 0x0693 [0x6F] WAIT_FRAME_DELAY: Yield until WaitTime reaches zero
 24: 0x0694 [0x76] CHECK_ENTITY_RENDER_FLAGS: Wait until LocalPlayer Render.Flags0 and Render.Flags3 conditions are met
 25: 0x0699 [0x6F] WAIT_FRAME_DELAY: Yield until WaitTime reaches zero
 26: 0x069A [0x76] CHECK_ENTITY_RENDER_FLAGS: Wait until Romaa Mihgo (ID: 17801275/0x010FA03B) Render.Flags0 and Render.Flags3 conditions are met
 27: 0x069F [0x92] Kyun Magopiteh (ID: 17801277/0x010FA03D)->Render.Flags3 ^= 0x01
 28: 0x06A5 [0x92] Toeh Leddenbah (ID: 17801276/0x010FA03C)->Render.Flags3 ^= 0x01
 29: 0x06AB [0x92] Romaa Mihgo (ID: 17801275/0x010FA03B)->Render.Flags3 ^= 0x01
 30: 0x06B1 [0x5C] MUSIC_CONTROL: Set Idle (Day) music to song 231*
 31: 0x06B5 [0x5C] MUSIC_CONTROL: Set Idle (Night) music to song 231*
 32: 0x06B9 [0x45] LOAD_SCHEDULED_TASK: Load scheduler "s057" with entities [EventEntity, EventEntity], work=[127*, 0*]
 33: 0x06CA [0x45] LOAD_SCHEDULED_TASK: Load scheduler "fdi1" with entities [EventEntity, EventEntity], work=[200*, 0*]
 34: 0x06DB [0x29] REQ_SET_WAIT(priority=0x08, entity_id=Ildy-Goldy (ID: 17801228/0x010FA00C), tag_num=0x01)
 35: 0x06E2 [0x2B] Ildy-Goldy (ID: 17801228/0x010FA00C) [10711*]:
    → "Former Chieftainness Romaa Mihgo. I am Ildy-Goldy, an adventurer of the Rhinostery. This is <Player>."
 36: 0x06E9 [0x23] WAIT_FOR_DIALOG_INTERACTION
 37: 0x06EA [0x2B] Ildy-Goldy (ID: 17801228/0x010FA00C) [10712*]:
    → "Ve are looking for a Mithran Tracker who visited Vindurst."
 38: 0x06F1 [0x23] WAIT_FOR_DIALOG_INTERACTION
 39: 0x06F2 [0x52] END_LOAD_SCHEDULER: End scheduler "s057" with entities [EventEntity, EventEntity], work=127*
 40: 0x0701 [0x45] LOAD_SCHEDULED_TASK: Load scheduler "ovl1" with entities [LocalPlayer, LocalPlayer], work=[200*, 0*]
 41: 0x0712 [0x45] LOAD_SCHEDULED_TASK: Load scheduler "s058" with entities [EventEntity, EventEntity], work=[127*, 0*]
 42: 0x0723 [0x4E] SET_ENTITY_HIDE_FLAG: Hide LocalPlayer
 43: 0x0729 [0x2B] Ildy-Goldy (ID: 17801228/0x010FA00C) [10713*]:
    → "This Mithran Tracker traveled to the Northlands bearing a tuning fork of the Rhinostery. She has failed to return."
 44: 0x0730 [0x23] WAIT_FOR_DIALOG_INTERACTION
 45: 0x0731 [0x2B] Ildy-Goldy (ID: 17801228/0x010FA00C) [10714*]:
    → "This new model of tuning fork vas designed to resonate vith the protocrystals of the great beings."
 46: 0x0738 [0x23] WAIT_FOR_DIALOG_INTERACTION
 47: 0x0739 [0x29] REQ_SET_WAIT(priority=0x08, entity_id=Ildy-Goldy (ID: 17801228/0x010FA00C), tag_num=0x02)
 48: 0x0740 [0x52] END_LOAD_SCHEDULER: End scheduler "s058" with entities [EventEntity, EventEntity], work=127*
 49: 0x074F [0x45] LOAD_SCHEDULED_TASK: Load scheduler "s059" with entities [EventEntity, EventEntity], work=[127*, 0*]
 50: 0x0760 [0x4E] SET_ENTITY_HIDE_FLAG: Show LocalPlayer
 51: 0x0766 [0x29] REQ_SET_WAIT(priority=0x08, entity_id=Ildy-Goldy (ID: 17801228/0x010FA00C), tag_num=0x1D)
 52: 0x076D [0x2B] Ildy-Goldy (ID: 17801228/0x010FA00C) [10715*]:
    → "However, this fork is vildly more powerful than the previous models. Its reliability has not been tested and, frankly-vankly, ve are rather vorried."
 53: 0x0774 [0x23] WAIT_FOR_DIALOG_INTERACTION
 54: 0x0775 [0x29] REQ_SET_WAIT(priority=0x08, entity_id=Ildy-Goldy (ID: 17801228/0x010FA00C), tag_num=0x1E)
 55: 0x077C [0x27] REQ_SET(priority=0x08, entity_id=Ildy-Goldy (ID: 17801228/0x010FA00C), tag_num=0x30)
 56: 0x0783 [0x2B] Ildy-Goldy (ID: 17801228/0x010FA00C) [10716*]:
    → "Ve suspectaru the sin hunter has been unable to leave the crystal of darkness..."
 57: 0x078A [0x23] WAIT_FOR_DIALOG_INTERACTION
 58: 0x078B [0x2A] GET_REQ_LEVEL(level=8, entity_id=Ildy-Goldy (ID: 17801228/0x010FA00C))
 59: 0x0791 [0x52] END_LOAD_SCHEDULER: End scheduler "s059" with entities [EventEntity, EventEntity], work=127*
 60: 0x07A0 [0x45] LOAD_SCHEDULED_TASK: Load scheduler "s060" with entities [EventEntity, EventEntity], work=[127*, 0*]
 61: 0x07B1 [0x2B] Romaa Mihgo (ID: 17801275/0x010FA03B) [10717*]:
    → "Your worry is misplaced."
 62: 0x07B8 [0x23] WAIT_FOR_DIALOG_INTERACTION
 63: 0x07B9 [0x2B] Romaa Mihgo (ID: 17801275/0x010FA03B) [10718*]:
    → "Having a bunch of Tarutaru concerned for her welfare would be an insult worse than death for a trrracker."
 64: 0x07C0 [0x23] WAIT_FOR_DIALOG_INTERACTION
 65: 0x07C1 [0x2B] Romaa Mihgo (ID: 17801275/0x010FA03B) [10719*]:
    → "While it is trrrue that a tracker's senses are dulled in the Northlands, she's not some kitten to lose her way in the snow."
 66: 0x07C8 [0x23] WAIT_FOR_DIALOG_INTERACTION
 67: 0x07C9 [0x52] END_LOAD_SCHEDULER: End scheduler "s060" with entities [EventEntity, EventEntity], work=127*
 68: 0x07D8 [0x45] LOAD_SCHEDULED_TASK: Load scheduler "s061" with entities [EventEntity, EventEntity], work=[127*, 0*]
 69: 0x07E9 [0x29] REQ_SET_WAIT(priority=0x08, entity_id=Ildy-Goldy (ID: 17801228/0x010FA00C), tag_num=0x01)
 70: 0x07F0 [0x2B] Ildy-Goldy (ID: 17801228/0x010FA00C) [10720*]:
    → "But if she never returns, this situation vill escalate into a crime the Rhinostery mustaru answer to, correct?"
 71: 0x07F7 [0x23] WAIT_FOR_DIALOG_INTERACTION
 72: 0x07F8 [0x29] REQ_SET_WAIT(priority=0x08, entity_id=Ildy-Goldy (ID: 17801228/0x010FA00C), tag_num=0x02)
 73: 0x07FF [0x52] END_LOAD_SCHEDULER: End scheduler "s061" with entities [EventEntity, EventEntity], work=127*
 74: 0x080E [0x45] LOAD_SCHEDULED_TASK: Load scheduler "s062" with entities [EventEntity, EventEntity], work=[127*, 0*]
 75: 0x081F [0x7B] Ildy-Goldy (ID: 17801228/0x010FA00C) stops talking
 76: 0x0824 [0x79] LocalPlayer looks at Ildy-Goldy (ID: 17801228/0x010FA00C) (Basic look)
 77: 0x082E [0x27] REQ_SET(priority=0x0B, entity_id=Ildy-Goldy (ID: 17801228/0x010FA00C), tag_num=0x4C)
 78: 0x0835 [0x2B] Ildy-Goldy (ID: 17801228/0x010FA00C) [10721*]:
    → "The allied expedition is a case-vase in pointaru."
 79: 0x083C [0x23] WAIT_FOR_DIALOG_INTERACTION
 80: 0x083D [0x2A] GET_REQ_LEVEL(level=11, entity_id=Ildy-Goldy (ID: 17801228/0x010FA00C))
 81: 0x0843 [0x2B] Ildy-Goldy (ID: 17801228/0x010FA00C) [10722*]:
    → "The Rhinostery is still haunted by the tragedy that befell Yow Rabntah after she vas employed by Iru-Kuiru."
 82: 0x084A [0x23] WAIT_FOR_DIALOG_INTERACTION
 83: 0x084B [0x52] END_LOAD_SCHEDULER: End scheduler "s062" with entities [EventEntity, EventEntity], work=127*
 84: 0x085A [0x45] LOAD_SCHEDULED_TASK: Load scheduler "s063" with entities [EventEntity, EventEntity], work=[127*, 0*]
 85: 0x086B [0x02] IF !(Work_Zone[9] == 8*) GOTO 0x0880
 86: 0x0873 [0x79] LocalPlayer looks at Ildy-Goldy (ID: 17801228/0x010FA00C) (Basic look)
 87: 0x087D [0x01] GOTO 0x0889
 88: 0x0880 [0x4A] LocalPlayer looks at Ildy-Goldy (ID: 17801228/0x010FA00C)

SUBROUTINE_0889:
 89: 0x0889 [0x4A] Ildy-Goldy (ID: 17801228/0x010FA00C) looks at Romaa Mihgo (ID: 17801275/0x010FA03B)
 90: 0x0892 [0x6F] WAIT_FRAME_DELAY: Yield until WaitTime reaches zero
 91: 0x0893 [0x76] CHECK_ENTITY_RENDER_FLAGS: Wait until Ildy-Goldy (ID: 17801228/0x010FA00C) Render.Flags0 and Render.Flags3 conditions are met
 92: 0x0898 [0x29] REQ_SET_WAIT(priority=0x08, entity_id=Ildy-Goldy (ID: 17801228/0x010FA00C), tag_num=0x1D)
 93: 0x089F [0x2B] Ildy-Goldy (ID: 17801228/0x010FA00C) [10723*]:
    → "You expelled all of our researchers from your town and closed the gates of Kazham."
 94: 0x08A6 [0x23] WAIT_FOR_DIALOG_INTERACTION
 95: 0x08A7 [0x29] REQ_SET_WAIT(priority=0x08, entity_id=Ildy-Goldy (ID: 17801228/0x010FA00C), tag_num=0x1E)
 96: 0x08AE [0x7C] Romaa Mihgo (ID: 17801275/0x010FA03B)->Render.Flags2 |= 0x00
 97: 0x08B4 [0x2B] Romaa Mihgo (ID: 17801275/0x010FA03B) [10724*]:
    → "..."
 98: 0x08BB [0x23] WAIT_FOR_DIALOG_INTERACTION
 99: 0x08BC [0x7C] Romaa Mihgo (ID: 17801275/0x010FA03B)->Render.Flags2 |= 0x01
100: 0x08C2 [0x6F] WAIT_FRAME_DELAY: Yield until WaitTime reaches zero
101: 0x08C3 [0x76] CHECK_ENTITY_RENDER_FLAGS: Wait until LocalPlayer Render.Flags0 and Render.Flags3 conditions are met
102: 0x08C8 [0x52] END_LOAD_SCHEDULER: End scheduler "s063" with entities [EventEntity, EventEntity], work=127*
103: 0x08D7 [0x02] IF !(Work_Zone[9] == 3*) GOTO 0x08F3
104: 0x08DF [0x45] LOAD_SCHEDULED_TASK: Load scheduler "s075" with entities [EventEntity, EventEntity], work=[127*, 0*]
105: 0x08F0 [0x01] GOTO 0x0920
106: 0x08F3 [0x02] IF !(Work_Zone[9] == 8*) GOTO 0x090F
107: 0x08FB [0x45] LOAD_SCHEDULED_TASK: Load scheduler "s075" with entities [EventEntity, EventEntity], work=[127*, 0*]
108: 0x090C [0x01] GOTO 0x0920
109: 0x090F [0x45] LOAD_SCHEDULED_TASK: Load scheduler "s064" with entities [EventEntity, EventEntity], work=[127*, 0*]

SUBROUTINE_0920:
110: 0x0920 [0x27] REQ_SET(priority=0x08, entity_id=Ildy-Goldy (ID: 17801228/0x010FA00C), tag_num=0x30)
111: 0x0927 [0x2B] Ildy-Goldy (ID: 17801228/0x010FA00C) [10725*]:
    → "I am sorry. I did not come here to open old vounds. Ve do not vish for conflictaru."
112: 0x092E [0x23] WAIT_FOR_DIALOG_INTERACTION
113: 0x092F [0x2B] Ildy-Goldy (ID: 17801228/0x010FA00C) [10726*]:
    → "Ve do not vant to jeopardize the ties that have been repaired betveen Kazham and the Rhinostery."
114: 0x0936 [0x23] WAIT_FOR_DIALOG_INTERACTION
115: 0x0937 [0x2A] GET_REQ_LEVEL(level=8, entity_id=Ildy-Goldy (ID: 17801228/0x010FA00C))
116: 0x093D [0x02] IF !(Work_Zone[9] == 3*) GOTO 0x0957
117: 0x0945 [0x52] END_LOAD_SCHEDULER: End scheduler "s075" with entities [EventEntity, EventEntity], work=127*
118: 0x0954 [0x01] GOTO 0x0980
119: 0x0957 [0x02] IF !(Work_Zone[9] == 8*) GOTO 0x0971
120: 0x095F [0x52] END_LOAD_SCHEDULER: End scheduler "s075" with entities [EventEntity, EventEntity], work=127*
121: 0x096E [0x01] GOTO 0x0980
122: 0x0971 [0x52] END_LOAD_SCHEDULER: End scheduler "s064" with entities [EventEntity, EventEntity], work=127*

SUBROUTINE_0980:
123: 0x0980 [0x45] LOAD_SCHEDULED_TASK: Load scheduler "s065" with entities [EventEntity, EventEntity], work=[127*, 0*]
124: 0x0991 [0x27] REQ_SET(priority=0x0B, entity_id=Ildy-Goldy (ID: 17801228/0x010FA00C), tag_num=0x4D)
125: 0x0998 [0x2B] Ildy-Goldy (ID: 17801228/0x010FA00C) [10727*]:
    → "Perhaps our renewed peace is not something you vish for..."
126: 0x099F [0x23] WAIT_FOR_DIALOG_INTERACTION
127: 0x09A0 [0x2A] GET_REQ_LEVEL(level=11, entity_id=Ildy-Goldy (ID: 17801228/0x010FA00C))
128: 0x09A6 [0x4A] LocalPlayer looks at Romaa Mihgo (ID: 17801275/0x010FA03B)
129: 0x09AF [0x1C] WAIT(90* ticks)
130: 0x09B2 [0x2B] Romaa Mihgo (ID: 17801275/0x010FA03B) [10728*]:
    → "There are times when conflict is necessary..."
131: 0x09B9 [0x23] WAIT_FOR_DIALOG_INTERACTION
132: 0x09BA [0x2B] Ildy-Goldy (ID: 17801228/0x010FA00C) [10730*]:
    → "!"
133: 0x09C1 [0x23] WAIT_FOR_DIALOG_INTERACTION
134: 0x09C2 [0x6F] WAIT_FRAME_DELAY: Yield until WaitTime reaches zero
135: 0x09C3 [0x76] CHECK_ENTITY_RENDER_FLAGS: Wait until LocalPlayer Render.Flags0 and Render.Flags3 conditions are met
136: 0x09C8 [0x52] END_LOAD_SCHEDULER: End scheduler "s065" with entities [EventEntity, EventEntity], work=127*
137: 0x09D7 [0x45] LOAD_SCHEDULED_TASK: Load scheduler "ovl1" with entities [LocalPlayer, LocalPlayer], work=[200*, 0*]
138: 0x09E8 [0x45] LOAD_SCHEDULED_TASK: Load scheduler "s066" with entities [EventEntity, EventEntity], work=[127*, 0*]
139: 0x09F9 [0x79] LocalPlayer looks at Romaa Mihgo (ID: 17801275/0x010FA03B) (Basic look)
140: 0x0A03 [0x2B] Romaa Mihgo (ID: 17801275/0x010FA03B) [10729*]:
    → "Rrrather than wandering in circles, endlessly repeating the same tired arguments... There are times when victory or defeat can prrrovide a clear answer."
141: 0x0A0A [0x23] WAIT_FOR_DIALOG_INTERACTION
142: 0x0A0B [0x52] END_LOAD_SCHEDULER: End scheduler "s066" with entities [EventEntity, EventEntity], work=127*
143: 0x0A1A [0x02] IF !(Work_Zone[9] == 3*) GOTO 0x0A36
144: 0x0A22 [0x45] LOAD_SCHEDULED_TASK: Load scheduler "s076" with entities [EventEntity, EventEntity], work=[127*, 0*]
145: 0x0A33 [0x01] GOTO 0x0A63
146: 0x0A36 [0x02] IF !(Work_Zone[9] == 8*) GOTO 0x0A52
147: 0x0A3E [0x45] LOAD_SCHEDULED_TASK: Load scheduler "s076" with entities [EventEntity, EventEntity], work=[127*, 0*]
148: 0x0A4F [0x01] GOTO 0x0A63
149: 0x0A52 [0x45] LOAD_SCHEDULED_TASK: Load scheduler "s067" with entities [EventEntity, EventEntity], work=[127*, 0*]

SUBROUTINE_0A63:
150: 0x0A63 [0x7B] Romaa Mihgo (ID: 17801275/0x010FA03B) stops talking
151: 0x0A68 [0x4B] UPDATE_ENTITY_YAW(entity=Romaa Mihgo (ID: 17801275/0x010FA03B), yaw=17.4°*)
152: 0x0A6F [0x6F] WAIT_FRAME_DELAY: Yield until WaitTime reaches zero
153: 0x0A70 [0x76] CHECK_ENTITY_RENDER_FLAGS: Wait until Romaa Mihgo (ID: 17801275/0x010FA03B) Render.Flags0 and Render.Flags3 conditions are met
154: 0x0A75 [0x2B] Romaa Mihgo (ID: 17801275/0x010FA03B) [10731*]:
    → "My time in the sun has ended..."
155: 0x0A7C [0x23] WAIT_FOR_DIALOG_INTERACTION
156: 0x0A7D [0x2B] Romaa Mihgo (ID: 17801275/0x010FA03B) [10732*]:
    → "The Rhinostery has changed, as well. New members like you will shoulder the rrresponsibilities of this age, and forge new ties..."
157: 0x0A84 [0x23] WAIT_FOR_DIALOG_INTERACTION
158: 0x0A85 [0x02] IF !(Work_Zone[9] == 3*) GOTO 0x0A9F
159: 0x0A8D [0x52] END_LOAD_SCHEDULER: End scheduler "s076" with entities [EventEntity, EventEntity], work=127*
160: 0x0A9C [0x01] GOTO 0x0AC8
161: 0x0A9F [0x02] IF !(Work_Zone[9] == 8*) GOTO 0x0AB9
162: 0x0AA7 [0x52] END_LOAD_SCHEDULER: End scheduler "s076" with entities [EventEntity, EventEntity], work=127*
163: 0x0AB6 [0x01] GOTO 0x0AC8
164: 0x0AB9 [0x52] END_LOAD_SCHEDULER: End scheduler "s067" with entities [EventEntity, EventEntity], work=127*

SUBROUTINE_0AC8:
165: 0x0AC8 [0x45] LOAD_SCHEDULED_TASK: Load scheduler "s068" with entities [EventEntity, EventEntity], work=[127*, 0*]
166: 0x0AD9 [0x79] Romaa Mihgo (ID: 17801275/0x010FA03B) looks at Ildy-Goldy (ID: 17801228/0x010FA00C) (Basic look)
167: 0x0AE3 [0x02] IF !(Work_Zone[6] == 1*) GOTO 0x0AF6
168: 0x0AEB [0x2B] Romaa Mihgo (ID: 17801275/0x010FA03B) [10734*]:
    → "The Minister of the Rhinostery came looking for the place where Iru-Kuiru met his doom. I required a certain challenge to be met..."
169: 0x0AF2 [0x23] WAIT_FOR_DIALOG_INTERACTION
170: 0x0AF3 [0x01] GOTO 0x0AFE
171: 0x0AF6 [0x2B] Romaa Mihgo (ID: 17801275/0x010FA03B) [10733*]:
    → "But me... I'm an old-fashioned kinda girl."
172: 0x0AFD [0x23] WAIT_FOR_DIALOG_INTERACTION

SUBROUTINE_0AFE:
173: 0x0AFE [0x52] END_LOAD_SCHEDULER: End scheduler "s068" with entities [EventEntity, EventEntity], work=127*
174: 0x0B0D [0x45] LOAD_SCHEDULED_TASK: Load scheduler "ovl1" with entities [LocalPlayer, LocalPlayer], work=[200*, 0*]
175: 0x0B1E [0x45] LOAD_SCHEDULED_TASK: Load scheduler "s069" with entities [EventEntity, EventEntity], work=[127*, 0*]
176: 0x0B2F [0x2B] Romaa Mihgo (ID: 17801275/0x010FA03B) [10735*]:
    → "This impasse will be decided by victory or defeat. If your strength prrroves victorious, I will answer your request."
177: 0x0B36 [0x23] WAIT_FOR_DIALOG_INTERACTION
178: 0x0B37 [0x02] IF !(Work_Zone[6] == 1*) GOTO 0x0B47
179: 0x0B3F [0x2B] Romaa Mihgo (ID: 17801275/0x010FA03B) [10736*]:
    → "You will undertake the same challenge. Use your strength to decide the outcome of this impasse..."
180: 0x0B46 [0x23] WAIT_FOR_DIALOG_INTERACTION
181: 0x0B47 [0x27] REQ_SET(priority=0x08, entity_id=Ildy-Goldy (ID: 17801228/0x010FA00C), tag_num=0x2F)
182: 0x0B4E [0x2B] Ildy-Goldy (ID: 17801228/0x010FA00C) [10737*]:
    → "I understand. It is the Mithran vay to bow to strength. I vill bring you the victory you demand."
183: 0x0B55 [0x23] WAIT_FOR_DIALOG_INTERACTION
184: 0x0B56 [0x2A] GET_REQ_LEVEL(level=8, entity_id=Ildy-Goldy (ID: 17801228/0x010FA00C))
185: 0x0B5C [0x52] END_LOAD_SCHEDULER: End scheduler "s069" with entities [EventEntity, EventEntity], work=127*
186: 0x0B6B [0x45] LOAD_SCHEDULED_TASK: Load scheduler "s070" with entities [EventEntity, EventEntity], work=[127*, 0*]
187: 0x0B7C [0x4A] Romaa Mihgo (ID: 17801275/0x010FA03B) looks at Ildy-Goldy (ID: 17801228/0x010FA00C)
188: 0x0B85 [0x6F] WAIT_FRAME_DELAY: Yield until WaitTime reaches zero
189: 0x0B86 [0x76] CHECK_ENTITY_RENDER_FLAGS: Wait until Romaa Mihgo (ID: 17801275/0x010FA03B) Render.Flags0 and Render.Flags3 conditions are met
190: 0x0B8B [0x79] LocalPlayer looks at Ildy-Goldy (ID: 17801228/0x010FA00C) (Basic look)
191: 0x0B95 [0x2B] Romaa Mihgo (ID: 17801275/0x010FA03B) [10738*]:
    → "Good. Go to the waterfall in the east of the Yuhtunga Jungle."
192: 0x0B9C [0x23] WAIT_FOR_DIALOG_INTERACTION
193: 0x0B9D [0x2B] Romaa Mihgo (ID: 17801275/0x010FA03B) [10739*]:
    → "If you throw a pebble into the falls, a monster will appear. Your task is to defeat the crrreature and return here alive."
194: 0x0BA4 [0x23] WAIT_FOR_DIALOG_INTERACTION
195: 0x0BA5 [0x29] REQ_SET_WAIT(priority=0x08, entity_id=Ildy-Goldy (ID: 17801228/0x010FA00C), tag_num=0x2F)
196: 0x0BAC [0x52] END_LOAD_SCHEDULER: End scheduler "s070" with entities [EventEntity, EventEntity], work=127*
197: 0x0BBB [0x02] IF !(Work_Zone[9] == 3*) GOTO 0x0BD7
198: 0x0BC3 [0x45] LOAD_SCHEDULED_TASK: Load scheduler "s077" with entities [EventEntity, EventEntity], work=[127*, 0*]
199: 0x0BD4 [0x01] GOTO 0x0C3C
200: 0x0BD7 [0x02] IF !(Work_Zone[9] == 5*) GOTO 0x0BF3
201: 0x0BDF [0x45] LOAD_SCHEDULED_TASK: Load scheduler "s073" with entities [EventEntity, EventEntity], work=[127*, 0*]
202: 0x0BF0 [0x01] GOTO 0x0C3C
203: 0x0BF3 [0x02] IF !(Work_Zone[9] == 6*) GOTO 0x0C0F
204: 0x0BFB [0x45] LOAD_SCHEDULED_TASK: Load scheduler "s073" with entities [EventEntity, EventEntity], work=[127*, 0*]
205: 0x0C0C [0x01] GOTO 0x0C3C
206: 0x0C0F [0x02] IF !(Work_Zone[9] == 8*) GOTO 0x0C2B
207: 0x0C17 [0x45] LOAD_SCHEDULED_TASK: Load scheduler "s077" with entities [EventEntity, EventEntity], work=[127*, 0*]
208: 0x0C28 [0x01] GOTO 0x0C3C
209: 0x0C2B [0x45] LOAD_SCHEDULED_TASK: Load scheduler "s071" with entities [EventEntity, EventEntity], work=[127*, 0*]

SUBROUTINE_0C3C:
210: 0x0C3C [0x79] LocalPlayer looks at Romaa Mihgo (ID: 17801275/0x010FA03B) (Basic look)
211: 0x0C46 [0x79] Romaa Mihgo (ID: 17801275/0x010FA03B) looks at LocalPlayer (Basic look)
212: 0x0C50 [0x2B] Romaa Mihgo (ID: 17801275/0x010FA03B) [10740*]:
    → "<Player>... You will watch the battle from a hill overlooking the waterfall."
213: 0x0C57 [0x23] WAIT_FOR_DIALOG_INTERACTION
214: 0x0C58 [0x79] Romaa Mihgo (ID: 17801275/0x010FA03B) looks at Ildy-Goldy (ID: 17801228/0x010FA00C) (Basic look)
215: 0x0C62 [0x2B] Romaa Mihgo (ID: 17801275/0x010FA03B) [10741*]:
    → "You will see that he doesn't employ the help of other adventurers, or use any other devious tactics..."
216: 0x0C69 [0x23] WAIT_FOR_DIALOG_INTERACTION
217: 0x0C6A [0x02] IF !(Work_Zone[9] == 3*) GOTO 0x0C84
218: 0x0C72 [0x52] END_LOAD_SCHEDULER: End scheduler "s077" with entities [EventEntity, EventEntity], work=127*
219: 0x0C81 [0x01] GOTO 0x0CE1
220: 0x0C84 [0x02] IF !(Work_Zone[9] == 5*) GOTO 0x0C9E
221: 0x0C8C [0x52] END_LOAD_SCHEDULER: End scheduler "s073" with entities [EventEntity, EventEntity], work=127*
222: 0x0C9B [0x01] GOTO 0x0CE1
223: 0x0C9E [0x02] IF !(Work_Zone[9] == 6*) GOTO 0x0CB8
224: 0x0CA6 [0x52] END_LOAD_SCHEDULER: End scheduler "s073" with entities [EventEntity, EventEntity], work=127*
225: 0x0CB5 [0x01] GOTO 0x0CE1
226: 0x0CB8 [0x02] IF !(Work_Zone[9] == 8*) GOTO 0x0CD2
227: 0x0CC0 [0x52] END_LOAD_SCHEDULER: End scheduler "s077" with entities [EventEntity, EventEntity], work=127*
228: 0x0CCF [0x01] GOTO 0x0CE1
229: 0x0CD2 [0x52] END_LOAD_SCHEDULER: End scheduler "s071" with entities [EventEntity, EventEntity], work=127*

SUBROUTINE_0CE1:
230: 0x0CE1 [0x02] IF !(Work_Zone[9] == 3*) GOTO 0x0CFD
231: 0x0CE9 [0x45] LOAD_SCHEDULED_TASK: Load scheduler "s078" with entities [EventEntity, EventEntity], work=[127*, 0*]
232: 0x0CFA [0x01] GOTO 0x0D2A
233: 0x0CFD [0x02] IF !(Work_Zone[9] == 8*) GOTO 0x0D19
234: 0x0D05 [0x45] LOAD_SCHEDULED_TASK: Load scheduler "s078" with entities [EventEntity, EventEntity], work=[127*, 0*]
235: 0x0D16 [0x01] GOTO 0x0D2A
236: 0x0D19 [0x45] LOAD_SCHEDULED_TASK: Load scheduler "s072" with entities [EventEntity, EventEntity], work=[127*, 0*]

SUBROUTINE_0D2A:
237: 0x0D2A [0x4A] Ildy-Goldy (ID: 17801228/0x010FA00C) looks at Romaa Mihgo (ID: 17801275/0x010FA03B)
238: 0x0D33 [0x7B] Ildy-Goldy (ID: 17801228/0x010FA00C) stops talking
239: 0x0D38 [0x2B] Ildy-Goldy (ID: 17801228/0x010FA00C) [10742*]:
    → "I vill not cheat. I vill single-handedly defeataru any creature you send me against!"
240: 0x0D3F [0x23] WAIT_FOR_DIALOG_INTERACTION
241: 0x0D40 [0x79] LocalPlayer looks at Ildy-Goldy (ID: 17801228/0x010FA00C) (Basic look)
242: 0x0D4A [0x4A] Ildy-Goldy (ID: 17801228/0x010FA00C) looks at LocalPlayer
243: 0x0D53 [0x6F] WAIT_FRAME_DELAY: Yield until WaitTime reaches zero
244: 0x0D54 [0x76] CHECK_ENTITY_RENDER_FLAGS: Wait until Ildy-Goldy (ID: 17801228/0x010FA00C) Render.Flags0 and Render.Flags3 conditions are met
245: 0x0D59 [0x29] REQ_SET_WAIT(priority=0x08, entity_id=Ildy-Goldy (ID: 17801228/0x010FA00C), tag_num=0x01)
246: 0x0D60 [0x2B] Ildy-Goldy (ID: 17801228/0x010FA00C) [10743*]:
    → "Let's go, <Player>. Find a high place in the east of Yuhtunga from vhere you can see the battle at the vaterfall."
247: 0x0D67 [0x23] WAIT_FOR_DIALOG_INTERACTION
248: 0x0D68 [0x29] REQ_SET_WAIT(priority=0x08, entity_id=Ildy-Goldy (ID: 17801228/0x010FA00C), tag_num=0x02)
249: 0x0D6F [0x02] IF !(Work_Zone[9] == 3*) GOTO 0x0D89
250: 0x0D77 [0x52] END_LOAD_SCHEDULER: End scheduler "s078" with entities [EventEntity, EventEntity], work=127*
251: 0x0D86 [0x01] GOTO 0x0DB2
252: 0x0D89 [0x02] IF !(Work_Zone[9] == 8*) GOTO 0x0DA3
253: 0x0D91 [0x52] END_LOAD_SCHEDULER: End scheduler "s078" with entities [EventEntity, EventEntity], work=127*
254: 0x0DA0 [0x01] GOTO 0x0DB2
255: 0x0DA3 [0x52] END_LOAD_SCHEDULER: End scheduler "s072" with entities [EventEntity, EventEntity], work=127*

SUBROUTINE_0DB2:
256: 0x0DB2 [0x5D] SET_MUSIC_VOLUME(volume=0*, fade_time=120*)
257: 0x0DB7 [0x45] LOAD_SCHEDULED_TASK: Load scheduler "s074" with entities [EventEntity, EventEntity], work=[127*, 0*]
258: 0x0DC8 [0x7B] Ildy-Goldy (ID: 17801228/0x010FA00C) stops talking
259: 0x0DCD [0x27] REQ_SET(priority=0x0B, entity_id=Ildy-Goldy (ID: 17801228/0x010FA00C), tag_num=0x4E)
260: 0x0DD4 [0x1C] WAIT(90* ticks)
261: 0x0DD7 [0x45] LOAD_SCHEDULED_TASK: Load scheduler "fdo1" with entities [LocalPlayer, LocalPlayer], work=[200*, 0*]
262: 0x0DE8 [0x1C] WAIT(60* ticks)
263: 0x0DEB [0x52] END_LOAD_SCHEDULER: End scheduler "s074" with entities [EventEntity, EventEntity], work=127*
264: 0x0DFA [0x5C] MUSIC_CONTROL: Set Idle (Day) music to song 135*
265: 0x0DFE [0x5C] MUSIC_CONTROL: Set Idle (Night) music to song 135*
266: 0x0E02 [0x1C] WAIT(100* ticks)
267: 0x0E05 [0x4E] SET_ENTITY_HIDE_FLAG: Show LocalPlayer
268: 0x0E0B [0x80] LOAD_WAIT(entity=LocalPlayer)
269: 0x0E10 [0x46] CAMERA_CONTROL: Restore default settings
270: 0x0E12 [0x45] LOAD_SCHEDULED_TASK: Load scheduler "fdi1" with entities [LocalPlayer, LocalPlayer], work=[200*, 0*]
271: 0x0E23 [0x20] SET_CLI_EVENT_UC_FLAG: Unlock player control
272: 0x0E25 [0x21] END_EVENT
273: 0x0E26 [0x00] END_REQSTACK()
```

### Event 297

#### Metadata

| Field        | Value      |
|--------------|------------|
| Entrypoint   | 0x0E27     |
| Data Size    | 1898 bytes |
| Instructions | 245        |

```
      00 01 02 03 04 05 06 07  08 09 0A 0B 0C 0D 0E 0F
      -- -- -- -- -- -- -- --  -- -- -- -- -- -- -- --
0E20:                      20  01 42 46 01 5D 00 80 01          .BF.]...
0E30: 80 4A 3B A0 0F 01 F0 FF  FF 7F 45 02 80 F8 FF FF  .J;.......E.....
0E40: 7F F8 FF FF 7F 66 64 6F  31 00 80 1C 01 80 38 04  .....fdo1.....8.
0E50: 80 29 08 F0 FF FF 7F 05  75 00 1F 80 75 01 4E 00  .)......u...u.N.
0E60: 0C A0 0F 01 80 0C A0 0F  01 29 0B 0C A0 0F 01 50  .........).....P
0E70: 29 0B F0 FF FF 7F 27 29  0B 3B A0 0F 01 0A 79 00  ).....').;....y.
0E80: F0 FF FF 7F 0C A0 0F 01  4A 3B A0 0F 01 0C A0 0F  ........J;......
0E90: 01 92 01 3D A0 0F 01 92  01 3C A0 0F 01 92 01 3B  ...=.....<.....;
0EA0: A0 0F 01 5C 00 20 80 5C  01 20 80 45 08 80 F8 FF  ...\. .\. .E....
0EB0: FF 7F F8 FF FF 7F 73 30  37 39 00 80 45 02 80 F8  ......s079..E...
0EC0: FF FF 7F F8 FF FF 7F 66  64 69 31 00 80 27 0B 0C  .......fdi1..'..
0ED0: A0 0F 01 51 2B 0C A0 0F  01 45 80 23 2A 0B 0C A0  ...Q+....E.#*...
0EE0: 0F 01 6F 76 3B A0 0F 01  52 08 80 F8 FF FF 7F F8  ..ov;...R.......
0EF0: FF FF 7F 73 30 37 39 02  09 10 0D 80 00 13 0F 45  ...s079........E
0F00: 08 80 F8 FF FF 7F F8 FF  FF 7F 73 30 39 36 00 80  ..........s096..
0F10: 01 78 0F 02 09 10 07 80  00 2F 0F 45 08 80 F8 FF  .x......./.E....
0F20: FF 7F F8 FF FF 7F 73 30  39 33 00 80 01 78 0F 02  ......s093...x..
0F30: 09 10 09 80 00 4B 0F 45  08 80 F8 FF FF 7F F8 FF  .....K.E........
0F40: FF 7F 73 30 39 33 00 80  01 78 0F 02 09 10 0E 80  ..s093...x......
0F50: 00 67 0F 45 08 80 F8 FF  FF 7F F8 FF FF 7F 73 30  .g.E..........s0
0F60: 39 36 00 80 01 78 0F 45  08 80 F8 FF FF 7F F8 FF  96...x.E........
0F70: FF 7F 73 30 38 30 00 80  79 00 F0 FF FF 7F 3B A0  ..s080..y.....;.
0F80: 0F 01 2B 0C A0 0F 01 46  80 23 02 09 10 0D 80 00  ..+....F.#......
0F90: A4 0F 52 08 80 F8 FF FF  7F F8 FF FF 7F 73 30 39  ..R..........s09
0FA0: 36 01 01 10 02 09 10 07  80 00 BE 0F 52 08 80 F8  6...........R...
0FB0: FF FF 7F F8 FF FF 7F 73  30 39 33 01 01 10 02 09  .......s093.....
0FC0: 10 09 80 00 D8 0F 52 08  80 F8 FF FF 7F F8 FF FF  ......R.........
0FD0: 7F 73 30 39 33 01 01 10  02 09 10 0E 80 00 F2 0F  .s093...........
0FE0: 52 08 80 F8 FF FF 7F F8  FF FF 7F 73 30 39 36 01  R..........s096.
0FF0: 01 10 52 08 80 F8 FF FF  7F F8 FF FF 7F 73 30 38  ..R..........s08
1000: 30 45 08 80 F8 FF FF 7F  F8 FF FF 7F 73 30 38 31  0E..........s081
1010: 00 80 79 00 0C A0 0F 01  3B A0 0F 01 27 0B 3B A0  ..y.....;...'.;.
1020: 0F 01 0B 2B 3B A0 0F 01  47 80 23 2A 0B 3B A0 0F  ...+;...G.#*.;..
1030: 01 2B 3B A0 0F 01 48 80  23 52 08 80 F8 FF FF 7F  .+;...H.#R......
1040: F8 FF FF 7F 73 30 38 31  02 09 10 0D 80 00 64 10  ....s081......d.
1050: 45 08 80 F8 FF FF 7F F8  FF FF 7F 73 30 39 37 00  E..........s097.
1060: 80 01 C9 10 02 09 10 07  80 00 80 10 45 08 80 F8  ............E...
1070: FF FF 7F F8 FF FF 7F 73  30 39 34 00 80 01 C9 10  .......s094.....
1080: 02 09 10 09 80 00 9C 10  45 08 80 F8 FF FF 7F F8  ........E.......
1090: FF FF 7F 73 30 39 34 00  80 01 C9 10 02 09 10 0E  ...s094.........
10A0: 80 00 B8 10 45 08 80 F8  FF FF 7F F8 FF FF 7F 73  ....E..........s
10B0: 30 39 37 00 80 01 C9 10  45 08 80 F8 FF FF 7F F8  097.....E.......
10C0: FF FF 7F 73 30 38 32 00  80 79 00 3B A0 0F 01 F0  ...s082..y.;....
10D0: FF FF 7F 2B 3B A0 0F 01  49 80 23 79 00 F0 FF FF  ...+;...I.#y....
10E0: 7F 0C A0 0F 01 4A 0C A0  0F 01 F0 FF FF 7F 2B 0C  .....J........+.
10F0: A0 0F 01 4A 80 23 6F 76  0C A0 0F 01 02 09 10 0D  ...J.#ov........
1100: 80 00 16 11 52 08 80 F8  FF FF 7F F8 FF FF 7F 73  ....R..........s
1110: 30 39 37 01 73 11 02 09  10 07 80 00 30 11 52 08  097.s.......0.R.
1120: 80 F8 FF FF 7F F8 FF FF  7F 73 30 39 34 01 73 11  .........s094.s.
1130: 02 09 10 09 80 00 4A 11  52 08 80 F8 FF FF 7F F8  ......J.R.......
1140: FF FF 7F 73 30 39 34 01  73 11 02 09 10 0E 80 00  ...s094.s.......
1150: 64 11 52 08 80 F8 FF FF  7F F8 FF FF 7F 73 30 39  d.R..........s09
1160: 37 01 73 11 52 08 80 F8  FF FF 7F F8 FF FF 7F 73  7.s.R..........s
1170: 30 38 32 45 08 80 F8 FF  FF 7F F8 FF FF 7F 73 30  082E..........s0
1180: 38 33 00 80 7B 3B A0 0F  01 79 00 F0 FF FF 7F 3B  83..{;...y.....;
1190: A0 0F 01 79 00 0C A0 0F  01 3B A0 0F 01 27 0B 3B  ...y.....;...'.;
11A0: A0 0F 01 0C 2B 3B A0 0F  01 4B 80 23 2A 0B 3B A0  ....+;...K.#*.;.
11B0: 0F 01 02 09 10 07 80 00  C6 11 4A F0 FF FF 7F 3B  ..........J....;
11C0: A0 0F 01 01 D7 11 02 09  10 09 80 00 D7 11 4A F0  ..............J.
11D0: FF FF 7F 3B A0 0F 01 4A  0C A0 0F 01 3B A0 0F 01  ...;...J....;...
11E0: 6F 76 0C A0 0F 01 27 08  0C A0 0F 01 2F 2B 0C A0  ov....'...../+..
11F0: 0F 01 4C 80 23 2A 08 0C  A0 0F 01 02 09 10 07 80  ..L.#*..........
1200: 00 0C 12 6F 76 F0 FF FF  7F 01 1A 12 02 09 10 09  ...ov...........
1210: 80 00 1A 12 6F 76 F0 FF  FF 7F 52 08 80 F8 FF FF  ....ov....R.....
1220: 7F F8 FF FF 7F 73 30 38  33 45 08 80 F8 FF FF 7F  .....s083E......
1230: F8 FF FF 7F 73 30 38 34  00 80 4E 01 F0 FF FF 7F  ....s084..N.....
1240: 29 08 0C A0 0F 01 01 2B  0C A0 0F 01 4D 80 23 2B  )......+....M.#+
1250: 0C A0 0F 01 4E 80 23 29  08 0C A0 0F 01 02 4E 00  ....N.#)......N.
1260: F0 FF FF 7F 52 08 80 F8  FF FF 7F F8 FF FF 7F 73  ....R..........s
1270: 30 38 34 45 08 80 F8 FF  FF 7F F8 FF FF 7F 73 30  084E..........s0
1280: 38 35 00 80 2B 3B A0 0F  01 4F 80 23 2B 3B A0 0F  85..+;...O.#+;..
1290: 01 50 80 23 52 08 80 F8  FF FF 7F F8 FF FF 7F 73  .P.#R..........s
12A0: 30 38 35 02 09 10 0D 80  00 BF 12 45 08 80 F8 FF  085........E....
12B0: FF 7F F8 FF FF 7F 73 30  39 38 00 80 01 24 13 02  ......s098...$..
12C0: 09 10 07 80 00 DB 12 45  08 80 F8 FF FF 7F F8 FF  .......E........
12D0: FF 7F 73 30 39 35 00 80  01 24 13 02 09 10 09 80  ..s095...$......
12E0: 00 F7 12 45 08 80 F8 FF  FF 7F F8 FF FF 7F 73 30  ...E..........s0
12F0: 39 35 00 80 01 24 13 02  09 10 0E 80 00 13 13 45  95...$.........E
1300: 08 80 F8 FF FF 7F F8 FF  FF 7F 73 30 39 38 00 80  ..........s098..
1310: 01 24 13 45 08 80 F8 FF  FF 7F F8 FF FF 7F 73 30  .$.E..........s0
1320: 38 36 00 80 4B 3B A0 0F  01 51 80 2B 0C A0 0F 01  86..K;...Q.+....
1330: 52 80 23 6F 76 3B A0 0F  01 02 09 10 0D 80 00 53  R.#ov;.........S
1340: 13 52 08 80 F8 FF FF 7F  F8 FF FF 7F 73 30 39 38  .R..........s098
1350: 01 B0 13 02 09 10 07 80  00 6D 13 52 08 80 F8 FF  .........m.R....
1360: FF 7F F8 FF FF 7F 73 30  39 35 01 B0 13 02 09 10  ......s095......
1370: 09 80 00 87 13 52 08 80  F8 FF FF 7F F8 FF FF 7F  .....R..........
1380: 73 30 39 35 01 B0 13 02  09 10 0E 80 00 A1 13 52  s095...........R
1390: 08 80 F8 FF FF 7F F8 FF  FF 7F 73 30 39 38 01 B0  ..........s098..
13A0: 13 52 08 80 F8 FF FF 7F  F8 FF FF 7F 73 30 38 36  .R..........s086
13B0: 45 08 80 F8 FF FF 7F F8  FF FF 7F 73 30 38 37 00  E..........s087.
13C0: 80 79 00 3B A0 0F 01 0C  A0 0F 01 2B 3B A0 0F 01  .y.;.......+;...
13D0: 53 80 23 2B 3B A0 0F 01  54 80 23 52 08 80 F8 FF  S.#+;...T.#R....
13E0: FF 7F F8 FF FF 7F 73 30  38 37 45 08 80 F8 FF FF  ......s087E.....
13F0: 7F F8 FF FF 7F 73 30 38  38 00 80 29 08 0C A0 0F  .....s088..)....
1400: 01 03 2B 0C A0 0F 01 55  80 23 29 08 0C A0 0F 01  ..+....U.#).....
1410: 04 7B 3B A0 0F 01 29 08  0C A0 0F 01 05 2B 3B A0  .{;...)......+;.
1420: 0F 01 56 80 23 29 08 0C  A0 0F 01 06 52 08 80 F8  ..V.#)......R...
1430: FF FF 7F F8 FF FF 7F 73  30 38 38 45 08 80 F8 FF  .......s088E....
1440: FF 7F F8 FF FF 7F 73 30  38 39 00 80 27 0B 3B A0  ......s089..'.;.
1450: 0F 01 0D 2B 3B A0 0F 01  57 80 23 2A 0B 3B A0 0F  ...+;...W.#*.;..
1460: 01 2B 3B A0 0F 01 58 80  23 52 08 80 F8 FF FF 7F  .+;...X.#R......
1470: F8 FF FF 7F 73 30 38 39  45 02 80 F0 FF FF 7F F0  ....s089E.......
1480: FF FF 7F 6F 76 6C 31 00  80 45 08 80 F8 FF FF 7F  ...ovl1..E......
1490: F8 FF FF 7F 73 30 39 31  00 80 4A F0 FF FF 7F 3B  ....s091..J....;
14A0: A0 0F 01 2B 3B A0 0F 01  59 80 23 2B 3B A0 0F 01  ...+;...Y.#+;...
14B0: 5A 80 23 6F 76 F0 FF FF  7F 52 08 80 F8 FF FF 7F  Z.#ov....R......
14C0: F8 FF FF 7F 73 30 39 31  45 08 80 F8 FF FF 7F F8  ....s091E.......
14D0: FF FF 7F 73 30 39 30 00  80 02 09 10 0E 80 00 E7  ...s090.........
14E0: 14 4E 01 F0 FF FF 7F 27  08 0C A0 0F 01 2F 2B 0C  .N.....'...../+.
14F0: A0 0F 01 5B 80 23 2A 08  0C A0 0F 01 52 08 80 F8  ...[.#*.....R...
1500: FF FF 7F F8 FF FF 7F 73  30 39 30 45 08 80 F8 FF  .......s090E....
1510: FF 7F F8 FF FF 7F 73 30  39 32 00 80 4E 00 F0 FF  ......s092..N...
1520: FF 7F 2B 3B A0 0F 01 5C  80 23 79 00 3B A0 0F 01  ..+;...\.#y.;...
1530: F0 FF FF 7F 2B 3B A0 0F  01 5D 80 23 5D 00 80 01  ....+;...].#]...
1540: 80 45 02 80 F0 FF FF 7F  F0 FF FF 7F 66 64 6F 31  .E..........fdo1
1550: 00 80 1C 01 80 52 08 80  F8 FF FF 7F F8 FF FF 7F  .....R..........
1560: 73 30 39 32 5C 00 1E 80  5C 01 1E 80 1C 44 80 4E  s092\...\....D.N
1570: 00 F0 FF FF 7F 80 F0 FF  FF 7F 46 00 45 02 80 F0  ..........F.E...
1580: FF FF 7F F0 FF FF 7F 66  64 69 31 00 80 20 00 21  .......fdi1.. .!
1590: 00                                                .               
```

#### Opcodes

```
  0: 0x0E27 [0x20] SET_CLI_EVENT_UC_FLAG: Lock player control
  1: 0x0E29 [0x42] SET_CLI_EVENT_CANCEL_DATA()
  2: 0x0E2A [0x46] CAMERA_CONTROL: Disable user control
  3: 0x0E2C [0x5D] SET_MUSIC_VOLUME(volume=0*, fade_time=120*)
  4: 0x0E31 [0x4A] Romaa Mihgo (ID: 17801275/0x010FA03B) looks at LocalPlayer
  5: 0x0E3A [0x45] LOAD_SCHEDULED_TASK: Load scheduler "fdo1" with entities [EventEntity, EventEntity], work=[200*, 0*]
  6: 0x0E4B [0x1C] WAIT(120* ticks)
  7: 0x0E4E [0x38] SET_CLIENT_EVENT_MODE(mode=19*)
  8: 0x0E51 [0x29] REQ_SET_WAIT(priority=0x08, entity_id=LocalPlayer, tag_num=0x05)
  9: 0x0E58 [0x75] LOAD_ROOM(Load indoor room, room=510*)
 10: 0x0E5C [0x75] LOAD_ROOM(No action)
 11: 0x0E5E [0x4E] SET_ENTITY_HIDE_FLAG: Show Ildy-Goldy (ID: 17801228/0x010FA00C)
 12: 0x0E64 [0x80] LOAD_WAIT(entity=Ildy-Goldy (ID: 17801228/0x010FA00C))
 13: 0x0E69 [0x29] REQ_SET_WAIT(priority=0x0B, entity_id=Ildy-Goldy (ID: 17801228/0x010FA00C), tag_num=0x50)
 14: 0x0E70 [0x29] REQ_SET_WAIT(priority=0x0B, entity_id=LocalPlayer, tag_num=0x27)
 15: 0x0E77 [0x29] REQ_SET_WAIT(priority=0x0B, entity_id=Romaa Mihgo (ID: 17801275/0x010FA03B), tag_num=0x0A)
 16: 0x0E7E [0x79] LocalPlayer looks at Ildy-Goldy (ID: 17801228/0x010FA00C) (Basic look)
 17: 0x0E88 [0x4A] Romaa Mihgo (ID: 17801275/0x010FA03B) looks at Ildy-Goldy (ID: 17801228/0x010FA00C)
 18: 0x0E91 [0x92] Kyun Magopiteh (ID: 17801277/0x010FA03D)->Render.Flags3 ^= 0x01
 19: 0x0E97 [0x92] Toeh Leddenbah (ID: 17801276/0x010FA03C)->Render.Flags3 ^= 0x01
 20: 0x0E9D [0x92] Romaa Mihgo (ID: 17801275/0x010FA03B)->Render.Flags3 ^= 0x01
 21: 0x0EA3 [0x5C] MUSIC_CONTROL: Set Idle (Day) music to song 231*
 22: 0x0EA7 [0x5C] MUSIC_CONTROL: Set Idle (Night) music to song 231*
 23: 0x0EAB [0x45] LOAD_SCHEDULED_TASK: Load scheduler "s079" with entities [EventEntity, EventEntity], work=[127*, 0*]
 24: 0x0EBC [0x45] LOAD_SCHEDULED_TASK: Load scheduler "fdi1" with entities [EventEntity, EventEntity], work=[200*, 0*]
 25: 0x0ECD [0x27] REQ_SET(priority=0x0B, entity_id=Ildy-Goldy (ID: 17801228/0x010FA00C), tag_num=0x51)
 26: 0x0ED4 [0x2B] Ildy-Goldy (ID: 17801228/0x010FA00C) [10746*]:
    → "Romaa Mihgo! Ve have returned victorious!"
 27: 0x0EDB [0x23] WAIT_FOR_DIALOG_INTERACTION
 28: 0x0EDC [0x2A] GET_REQ_LEVEL(level=11, entity_id=Ildy-Goldy (ID: 17801228/0x010FA00C))
 29: 0x0EE2 [0x6F] WAIT_FRAME_DELAY: Yield until WaitTime reaches zero
 30: 0x0EE3 [0x76] CHECK_ENTITY_RENDER_FLAGS: Wait until Romaa Mihgo (ID: 17801275/0x010FA03B) Render.Flags0 and Render.Flags3 conditions are met
 31: 0x0EE8 [0x52] END_LOAD_SCHEDULER: End scheduler "s079" with entities [EventEntity, EventEntity], work=127*
 32: 0x0EF7 [0x02] IF !(Work_Zone[9] == 3*) GOTO 0x0F13
 33: 0x0EFF [0x45] LOAD_SCHEDULED_TASK: Load scheduler "s096" with entities [EventEntity, EventEntity], work=[127*, 0*]
 34: 0x0F10 [0x01] GOTO 0x0F78
 35: 0x0F13 [0x02] IF !(Work_Zone[9] == 5*) GOTO 0x0F2F
 36: 0x0F1B [0x45] LOAD_SCHEDULED_TASK: Load scheduler "s093" with entities [EventEntity, EventEntity], work=[127*, 0*]
 37: 0x0F2C [0x01] GOTO 0x0F78
 38: 0x0F2F [0x02] IF !(Work_Zone[9] == 6*) GOTO 0x0F4B
 39: 0x0F37 [0x45] LOAD_SCHEDULED_TASK: Load scheduler "s093" with entities [EventEntity, EventEntity], work=[127*, 0*]
 40: 0x0F48 [0x01] GOTO 0x0F78
 41: 0x0F4B [0x02] IF !(Work_Zone[9] == 8*) GOTO 0x0F67
 42: 0x0F53 [0x45] LOAD_SCHEDULED_TASK: Load scheduler "s096" with entities [EventEntity, EventEntity], work=[127*, 0*]
 43: 0x0F64 [0x01] GOTO 0x0F78
 44: 0x0F67 [0x45] LOAD_SCHEDULED_TASK: Load scheduler "s080" with entities [EventEntity, EventEntity], work=[127*, 0*]

SUBROUTINE_0F78:
 45: 0x0F78 [0x79] LocalPlayer looks at Romaa Mihgo (ID: 17801275/0x010FA03B) (Basic look)
 46: 0x0F82 [0x2B] Ildy-Goldy (ID: 17801228/0x010FA00C) [10747*]:
    → "You underestimated <Player>'s strength. You have the answer you asked for."
 47: 0x0F89 [0x23] WAIT_FOR_DIALOG_INTERACTION
 48: 0x0F8A [0x02] IF !(Work_Zone[9] == 3*) GOTO 0x0FA4
 49: 0x0F92 [0x52] END_LOAD_SCHEDULER: End scheduler "s096" with entities [EventEntity, EventEntity], work=127*
 50: 0x0FA1 [0x01] GOTO 0x1001
 51: 0x0FA4 [0x02] IF !(Work_Zone[9] == 5*) GOTO 0x0FBE
 52: 0x0FAC [0x52] END_LOAD_SCHEDULER: End scheduler "s093" with entities [EventEntity, EventEntity], work=127*
 53: 0x0FBB [0x01] GOTO 0x1001
 54: 0x0FBE [0x02] IF !(Work_Zone[9] == 6*) GOTO 0x0FD8
 55: 0x0FC6 [0x52] END_LOAD_SCHEDULER: End scheduler "s093" with entities [EventEntity, EventEntity], work=127*
 56: 0x0FD5 [0x01] GOTO 0x1001
 57: 0x0FD8 [0x02] IF !(Work_Zone[9] == 8*) GOTO 0x0FF2
 58: 0x0FE0 [0x52] END_LOAD_SCHEDULER: End scheduler "s096" with entities [EventEntity, EventEntity], work=127*
 59: 0x0FEF [0x01] GOTO 0x1001
 60: 0x0FF2 [0x52] END_LOAD_SCHEDULER: End scheduler "s080" with entities [EventEntity, EventEntity], work=127*

SUBROUTINE_1001:
 61: 0x1001 [0x45] LOAD_SCHEDULED_TASK: Load scheduler "s081" with entities [EventEntity, EventEntity], work=[127*, 0*]
 62: 0x1012 [0x79] Ildy-Goldy (ID: 17801228/0x010FA00C) looks at Romaa Mihgo (ID: 17801275/0x010FA03B) (Basic look)
 63: 0x101C [0x27] REQ_SET(priority=0x0B, entity_id=Romaa Mihgo (ID: 17801275/0x010FA03B), tag_num=0x0B)
 64: 0x1023 [0x2B] Romaa Mihgo (ID: 17801275/0x010FA03B) [10748*]:
    → "Hmm, so you survived my trial."
 65: 0x102A [0x23] WAIT_FOR_DIALOG_INTERACTION
 66: 0x102B [0x2A] GET_REQ_LEVEL(level=11, entity_id=Romaa Mihgo (ID: 17801275/0x010FA03B))
 67: 0x1031 [0x2B] Romaa Mihgo (ID: 17801275/0x010FA03B) [10749*]:
    → "Your failure to rrreach your companion's side in time does not speak highly of your ability, Ildy-Goldy..."
 68: 0x1038 [0x23] WAIT_FOR_DIALOG_INTERACTION
 69: 0x1039 [0x52] END_LOAD_SCHEDULER: End scheduler "s081" with entities [EventEntity, EventEntity], work=127*
 70: 0x1048 [0x02] IF !(Work_Zone[9] == 3*) GOTO 0x1064
 71: 0x1050 [0x45] LOAD_SCHEDULED_TASK: Load scheduler "s097" with entities [EventEntity, EventEntity], work=[127*, 0*]
 72: 0x1061 [0x01] GOTO 0x10C9
 73: 0x1064 [0x02] IF !(Work_Zone[9] == 5*) GOTO 0x1080
 74: 0x106C [0x45] LOAD_SCHEDULED_TASK: Load scheduler "s094" with entities [EventEntity, EventEntity], work=[127*, 0*]
 75: 0x107D [0x01] GOTO 0x10C9
 76: 0x1080 [0x02] IF !(Work_Zone[9] == 6*) GOTO 0x109C
 77: 0x1088 [0x45] LOAD_SCHEDULED_TASK: Load scheduler "s094" with entities [EventEntity, EventEntity], work=[127*, 0*]
 78: 0x1099 [0x01] GOTO 0x10C9
 79: 0x109C [0x02] IF !(Work_Zone[9] == 8*) GOTO 0x10B8
 80: 0x10A4 [0x45] LOAD_SCHEDULED_TASK: Load scheduler "s097" with entities [EventEntity, EventEntity], work=[127*, 0*]
 81: 0x10B5 [0x01] GOTO 0x10C9
 82: 0x10B8 [0x45] LOAD_SCHEDULED_TASK: Load scheduler "s082" with entities [EventEntity, EventEntity], work=[127*, 0*]

SUBROUTINE_10C9:
 83: 0x10C9 [0x79] Romaa Mihgo (ID: 17801275/0x010FA03B) looks at LocalPlayer (Basic look)
 84: 0x10D3 [0x2B] Romaa Mihgo (ID: 17801275/0x010FA03B) [10750*]:
    → "However, I will recognize this adventurer's victory."
 85: 0x10DA [0x23] WAIT_FOR_DIALOG_INTERACTION
 86: 0x10DB [0x79] LocalPlayer looks at Ildy-Goldy (ID: 17801228/0x010FA00C) (Basic look)
 87: 0x10E5 [0x4A] Ildy-Goldy (ID: 17801228/0x010FA00C) looks at LocalPlayer
 88: 0x10EE [0x2B] Ildy-Goldy (ID: 17801228/0x010FA00C) [10751*]:
    → "Hurrah! You did it, <Player>!"
 89: 0x10F5 [0x23] WAIT_FOR_DIALOG_INTERACTION
 90: 0x10F6 [0x6F] WAIT_FRAME_DELAY: Yield until WaitTime reaches zero
 91: 0x10F7 [0x76] CHECK_ENTITY_RENDER_FLAGS: Wait until Ildy-Goldy (ID: 17801228/0x010FA00C) Render.Flags0 and Render.Flags3 conditions are met
 92: 0x10FC [0x02] IF !(Work_Zone[9] == 3*) GOTO 0x1116
 93: 0x1104 [0x52] END_LOAD_SCHEDULER: End scheduler "s097" with entities [EventEntity, EventEntity], work=127*
 94: 0x1113 [0x01] GOTO 0x1173
 95: 0x1116 [0x02] IF !(Work_Zone[9] == 5*) GOTO 0x1130
 96: 0x111E [0x52] END_LOAD_SCHEDULER: End scheduler "s094" with entities [EventEntity, EventEntity], work=127*
 97: 0x112D [0x01] GOTO 0x1173
 98: 0x1130 [0x02] IF !(Work_Zone[9] == 6*) GOTO 0x114A
 99: 0x1138 [0x52] END_LOAD_SCHEDULER: End scheduler "s094" with entities [EventEntity, EventEntity], work=127*
100: 0x1147 [0x01] GOTO 0x1173
101: 0x114A [0x02] IF !(Work_Zone[9] == 8*) GOTO 0x1164
102: 0x1152 [0x52] END_LOAD_SCHEDULER: End scheduler "s097" with entities [EventEntity, EventEntity], work=127*
103: 0x1161 [0x01] GOTO 0x1173
104: 0x1164 [0x52] END_LOAD_SCHEDULER: End scheduler "s082" with entities [EventEntity, EventEntity], work=127*

SUBROUTINE_1173:
105: 0x1173 [0x45] LOAD_SCHEDULED_TASK: Load scheduler "s083" with entities [EventEntity, EventEntity], work=[127*, 0*]
106: 0x1184 [0x7B] Romaa Mihgo (ID: 17801275/0x010FA03B) stops talking
107: 0x1189 [0x79] LocalPlayer looks at Romaa Mihgo (ID: 17801275/0x010FA03B) (Basic look)
108: 0x1193 [0x79] Ildy-Goldy (ID: 17801228/0x010FA00C) looks at Romaa Mihgo (ID: 17801275/0x010FA03B) (Basic look)
109: 0x119D [0x27] REQ_SET(priority=0x0B, entity_id=Romaa Mihgo (ID: 17801275/0x010FA03B), tag_num=0x0C)
110: 0x11A4 [0x2B] Romaa Mihgo (ID: 17801275/0x010FA03B) [10752*]:
    → "To business... You wanted to know where to find Shikaree Y?"
111: 0x11AB [0x23] WAIT_FOR_DIALOG_INTERACTION
112: 0x11AC [0x2A] GET_REQ_LEVEL(level=11, entity_id=Romaa Mihgo (ID: 17801275/0x010FA03B))
113: 0x11B2 [0x02] IF !(Work_Zone[9] == 5*) GOTO 0x11C6
114: 0x11BA [0x4A] LocalPlayer looks at Romaa Mihgo (ID: 17801275/0x010FA03B)
115: 0x11C3 [0x01] GOTO 0x11D7
116: 0x11C6 [0x02] IF !(Work_Zone[9] == 6*) GOTO 0x11D7
117: 0x11CE [0x4A] LocalPlayer looks at Romaa Mihgo (ID: 17801275/0x010FA03B)

SUBROUTINE_11D7:
118: 0x11D7 [0x4A] Ildy-Goldy (ID: 17801228/0x010FA00C) looks at Romaa Mihgo (ID: 17801275/0x010FA03B)
119: 0x11E0 [0x6F] WAIT_FRAME_DELAY: Yield until WaitTime reaches zero
120: 0x11E1 [0x76] CHECK_ENTITY_RENDER_FLAGS: Wait until Ildy-Goldy (ID: 17801228/0x010FA00C) Render.Flags0 and Render.Flags3 conditions are met
121: 0x11E6 [0x27] REQ_SET(priority=0x08, entity_id=Ildy-Goldy (ID: 17801228/0x010FA00C), tag_num=0x2F)
122: 0x11ED [0x2B] Ildy-Goldy (ID: 17801228/0x010FA00C) [10753*]:
    → "Yes."
123: 0x11F4 [0x23] WAIT_FOR_DIALOG_INTERACTION
124: 0x11F5 [0x2A] GET_REQ_LEVEL(level=8, entity_id=Ildy-Goldy (ID: 17801228/0x010FA00C))
125: 0x11FB [0x02] IF !(Work_Zone[9] == 5*) GOTO 0x120C
126: 0x1203 [0x6F] WAIT_FRAME_DELAY: Yield until WaitTime reaches zero
127: 0x1204 [0x76] CHECK_ENTITY_RENDER_FLAGS: Wait until LocalPlayer Render.Flags0 and Render.Flags3 conditions are met
128: 0x1209 [0x01] GOTO 0x121A
129: 0x120C [0x02] IF !(Work_Zone[9] == 6*) GOTO 0x121A
130: 0x1214 [0x6F] WAIT_FRAME_DELAY: Yield until WaitTime reaches zero
131: 0x1215 [0x76] CHECK_ENTITY_RENDER_FLAGS: Wait until LocalPlayer Render.Flags0 and Render.Flags3 conditions are met

SUBROUTINE_121A:
132: 0x121A [0x52] END_LOAD_SCHEDULER: End scheduler "s083" with entities [EventEntity, EventEntity], work=127*
133: 0x1229 [0x45] LOAD_SCHEDULED_TASK: Load scheduler "s084" with entities [EventEntity, EventEntity], work=[127*, 0*]
134: 0x123A [0x4E] SET_ENTITY_HIDE_FLAG: Hide LocalPlayer
135: 0x1240 [0x29] REQ_SET_WAIT(priority=0x08, entity_id=Ildy-Goldy (ID: 17801228/0x010FA00C), tag_num=0x01)
136: 0x1247 [0x2B] Ildy-Goldy (ID: 17801228/0x010FA00C) [10754*]:
    → "Justaru as a great crystal of fire lies hidden in the Yuhtunga Jungle, a crystal of darkness supposedly exists in the Northlands."
137: 0x124E [0x23] WAIT_FOR_DIALOG_INTERACTION
138: 0x124F [0x2B] Ildy-Goldy (ID: 17801228/0x010FA00C) [10755*]:
    → "Ve are certain this dark protocrystal vas the sin hunter's destination."
139: 0x1256 [0x23] WAIT_FOR_DIALOG_INTERACTION
140: 0x1257 [0x29] REQ_SET_WAIT(priority=0x08, entity_id=Ildy-Goldy (ID: 17801228/0x010FA00C), tag_num=0x02)
141: 0x125E [0x4E] SET_ENTITY_HIDE_FLAG: Show LocalPlayer
142: 0x1264 [0x52] END_LOAD_SCHEDULER: End scheduler "s084" with entities [EventEntity, EventEntity], work=127*
143: 0x1273 [0x45] LOAD_SCHEDULED_TASK: Load scheduler "s085" with entities [EventEntity, EventEntity], work=[127*, 0*]
144: 0x1284 [0x2B] Romaa Mihgo (ID: 17801275/0x010FA03B) [10756*]:
    → "Your instincts were correct. According to the legends, the god that slumbers within that crystal is the closest to waking..."
145: 0x128B [0x23] WAIT_FOR_DIALOG_INTERACTION
146: 0x128C [0x2B] Romaa Mihgo (ID: 17801275/0x010FA03B) [10757*]:
    → "Our legends say that in the ancient past, the deity within the crystal of darkness awoke..."
147: 0x1293 [0x23] WAIT_FOR_DIALOG_INTERACTION
148: 0x1294 [0x52] END_LOAD_SCHEDULER: End scheduler "s085" with entities [EventEntity, EventEntity], work=127*
149: 0x12A3 [0x02] IF !(Work_Zone[9] == 3*) GOTO 0x12BF
150: 0x12AB [0x45] LOAD_SCHEDULED_TASK: Load scheduler "s098" with entities [EventEntity, EventEntity], work=[127*, 0*]
151: 0x12BC [0x01] GOTO 0x1324
152: 0x12BF [0x02] IF !(Work_Zone[9] == 5*) GOTO 0x12DB
153: 0x12C7 [0x45] LOAD_SCHEDULED_TASK: Load scheduler "s095" with entities [EventEntity, EventEntity], work=[127*, 0*]
154: 0x12D8 [0x01] GOTO 0x1324
155: 0x12DB [0x02] IF !(Work_Zone[9] == 6*) GOTO 0x12F7
156: 0x12E3 [0x45] LOAD_SCHEDULED_TASK: Load scheduler "s095" with entities [EventEntity, EventEntity], work=[127*, 0*]
157: 0x12F4 [0x01] GOTO 0x1324
158: 0x12F7 [0x02] IF !(Work_Zone[9] == 8*) GOTO 0x1313
159: 0x12FF [0x45] LOAD_SCHEDULED_TASK: Load scheduler "s098" with entities [EventEntity, EventEntity], work=[127*, 0*]
160: 0x1310 [0x01] GOTO 0x1324
161: 0x1313 [0x45] LOAD_SCHEDULED_TASK: Load scheduler "s086" with entities [EventEntity, EventEntity], work=[127*, 0*]

SUBROUTINE_1324:
162: 0x1324 [0x4B] UPDATE_ENTITY_YAW(entity=Romaa Mihgo (ID: 17801275/0x010FA03B), yaw=13.7°*)
163: 0x132B [0x2B] Ildy-Goldy (ID: 17801228/0x010FA00C) [10758*]:
    → "Vone of the sleeping gods--vone of the great beings--vas avake!?"
164: 0x1332 [0x23] WAIT_FOR_DIALOG_INTERACTION
165: 0x1333 [0x6F] WAIT_FRAME_DELAY: Yield until WaitTime reaches zero
166: 0x1334 [0x76] CHECK_ENTITY_RENDER_FLAGS: Wait until Romaa Mihgo (ID: 17801275/0x010FA03B) Render.Flags0 and Render.Flags3 conditions are met
167: 0x1339 [0x02] IF !(Work_Zone[9] == 3*) GOTO 0x1353
168: 0x1341 [0x52] END_LOAD_SCHEDULER: End scheduler "s098" with entities [EventEntity, EventEntity], work=127*
169: 0x1350 [0x01] GOTO 0x13B0
170: 0x1353 [0x02] IF !(Work_Zone[9] == 5*) GOTO 0x136D
171: 0x135B [0x52] END_LOAD_SCHEDULER: End scheduler "s095" with entities [EventEntity, EventEntity], work=127*
172: 0x136A [0x01] GOTO 0x13B0
173: 0x136D [0x02] IF !(Work_Zone[9] == 6*) GOTO 0x1387
174: 0x1375 [0x52] END_LOAD_SCHEDULER: End scheduler "s095" with entities [EventEntity, EventEntity], work=127*
175: 0x1384 [0x01] GOTO 0x13B0
176: 0x1387 [0x02] IF !(Work_Zone[9] == 8*) GOTO 0x13A1
177: 0x138F [0x52] END_LOAD_SCHEDULER: End scheduler "s098" with entities [EventEntity, EventEntity], work=127*
178: 0x139E [0x01] GOTO 0x13B0
179: 0x13A1 [0x52] END_LOAD_SCHEDULER: End scheduler "s086" with entities [EventEntity, EventEntity], work=127*

SUBROUTINE_13B0:
180: 0x13B0 [0x45] LOAD_SCHEDULED_TASK: Load scheduler "s087" with entities [EventEntity, EventEntity], work=[127*, 0*]
181: 0x13C1 [0x79] Romaa Mihgo (ID: 17801275/0x010FA03B) looks at Ildy-Goldy (ID: 17801228/0x010FA00C) (Basic look)
182: 0x13CB [0x2B] Romaa Mihgo (ID: 17801275/0x010FA03B) [10759*]:
    → "It is said that the deity was led again into slumber by the light of a certain box."
183: 0x13D2 [0x23] WAIT_FOR_DIALOG_INTERACTION
184: 0x13D3 [0x2B] Romaa Mihgo (ID: 17801275/0x010FA03B) [10760*]:
    → "However, the sleep of this divinity is shallow, and he will answer the questions of those who appear before him..."
185: 0x13DA [0x23] WAIT_FOR_DIALOG_INTERACTION
186: 0x13DB [0x52] END_LOAD_SCHEDULER: End scheduler "s087" with entities [EventEntity, EventEntity], work=127*
187: 0x13EA [0x45] LOAD_SCHEDULED_TASK: Load scheduler "s088" with entities [EventEntity, EventEntity], work=[127*, 0*]
188: 0x13FB [0x29] REQ_SET_WAIT(priority=0x08, entity_id=Ildy-Goldy (ID: 17801228/0x010FA00C), tag_num=0x03)
189: 0x1402 [0x2B] Ildy-Goldy (ID: 17801228/0x010FA00C) [10761*]:
    → "I see. And the tracker vent to speak vith this god?"
190: 0x1409 [0x23] WAIT_FOR_DIALOG_INTERACTION
191: 0x140A [0x29] REQ_SET_WAIT(priority=0x08, entity_id=Ildy-Goldy (ID: 17801228/0x010FA00C), tag_num=0x04)
192: 0x1411 [0x7B] Romaa Mihgo (ID: 17801275/0x010FA03B) stops talking
193: 0x1416 [0x29] REQ_SET_WAIT(priority=0x08, entity_id=Ildy-Goldy (ID: 17801228/0x010FA00C), tag_num=0x05)
194: 0x141D [0x2B] Romaa Mihgo (ID: 17801275/0x010FA03B) [10762*]:
    → "That is likely the case..."
195: 0x1424 [0x23] WAIT_FOR_DIALOG_INTERACTION
196: 0x1425 [0x29] REQ_SET_WAIT(priority=0x08, entity_id=Ildy-Goldy (ID: 17801228/0x010FA00C), tag_num=0x06)
197: 0x142C [0x52] END_LOAD_SCHEDULER: End scheduler "s088" with entities [EventEntity, EventEntity], work=127*
198: 0x143B [0x45] LOAD_SCHEDULED_TASK: Load scheduler "s089" with entities [EventEntity, EventEntity], work=[127*, 0*]
199: 0x144C [0x27] REQ_SET(priority=0x0B, entity_id=Romaa Mihgo (ID: 17801275/0x010FA03B), tag_num=0x0D)
200: 0x1453 [0x2B] Romaa Mihgo (ID: 17801275/0x010FA03B) [10763*]:
    → "But the rrresting place of this god is unknown to me."
201: 0x145A [0x23] WAIT_FOR_DIALOG_INTERACTION
202: 0x145B [0x2A] GET_REQ_LEVEL(level=11, entity_id=Romaa Mihgo (ID: 17801275/0x010FA03B))
203: 0x1461 [0x2B] Romaa Mihgo (ID: 17801275/0x010FA03B) [10764*]:
    → "In Norg, there are old tales among the pirrrates that tell of an unusual box..."
204: 0x1468 [0x23] WAIT_FOR_DIALOG_INTERACTION
205: 0x1469 [0x52] END_LOAD_SCHEDULER: End scheduler "s089" with entities [EventEntity, EventEntity], work=127*
206: 0x1478 [0x45] LOAD_SCHEDULED_TASK: Load scheduler "ovl1" with entities [LocalPlayer, LocalPlayer], work=[200*, 0*]
207: 0x1489 [0x45] LOAD_SCHEDULED_TASK: Load scheduler "s091" with entities [EventEntity, EventEntity], work=[127*, 0*]
208: 0x149A [0x4A] LocalPlayer looks at Romaa Mihgo (ID: 17801275/0x010FA03B)
209: 0x14A3 [0x2B] Romaa Mihgo (ID: 17801275/0x010FA03B) [10765*]:
    → "These tales are surely known to Kamui, the aged officer that attends Gilgamesh."
210: 0x14AA [0x23] WAIT_FOR_DIALOG_INTERACTION
211: 0x14AB [0x2B] Romaa Mihgo (ID: 17801275/0x010FA03B) [10766*]:
    → "If you give the guard at the door $1, $2, and $3, you should be allowed to ask a few questions."
212: 0x14B2 [0x23] WAIT_FOR_DIALOG_INTERACTION
213: 0x14B3 [0x6F] WAIT_FRAME_DELAY: Yield until WaitTime reaches zero
214: 0x14B4 [0x76] CHECK_ENTITY_RENDER_FLAGS: Wait until LocalPlayer Render.Flags0 and Render.Flags3 conditions are met
215: 0x14B9 [0x52] END_LOAD_SCHEDULER: End scheduler "s091" with entities [EventEntity, EventEntity], work=127*
216: 0x14C8 [0x45] LOAD_SCHEDULED_TASK: Load scheduler "s090" with entities [EventEntity, EventEntity], work=[127*, 0*]
217: 0x14D9 [0x02] IF !(Work_Zone[9] == 8*) GOTO 0x14E7
218: 0x14E1 [0x4E] SET_ENTITY_HIDE_FLAG: Hide LocalPlayer
219: 0x14E7 [0x27] REQ_SET(priority=0x08, entity_id=Ildy-Goldy (ID: 17801228/0x010FA00C), tag_num=0x2F)
220: 0x14EE [0x2B] Ildy-Goldy (ID: 17801228/0x010FA00C) [10767*]:
    → "Thank you. Ve vill talk to this "Kamui.""
221: 0x14F5 [0x23] WAIT_FOR_DIALOG_INTERACTION
222: 0x14F6 [0x2A] GET_REQ_LEVEL(level=8, entity_id=Ildy-Goldy (ID: 17801228/0x010FA00C))
223: 0x14FC [0x52] END_LOAD_SCHEDULER: End scheduler "s090" with entities [EventEntity, EventEntity], work=127*
224: 0x150B [0x45] LOAD_SCHEDULED_TASK: Load scheduler "s092" with entities [EventEntity, EventEntity], work=[127*, 0*]
225: 0x151C [0x4E] SET_ENTITY_HIDE_FLAG: Show LocalPlayer
226: 0x1522 [0x2B] Romaa Mihgo (ID: 17801275/0x010FA03B) [10768*]:
    → "One last thing. I wouldn't pursue the sin hunter too far..."
227: 0x1529 [0x23] WAIT_FOR_DIALOG_INTERACTION
228: 0x152A [0x79] Romaa Mihgo (ID: 17801275/0x010FA03B) looks at LocalPlayer (Basic look)
229: 0x1534 [0x2B] Romaa Mihgo (ID: 17801275/0x010FA03B) [10769*]:
    → "Mithran Trackers live for the hunt, but they do not apprrreciate being hunted. If you find she is safe and well, you would be wise to leave her be..."
230: 0x153B [0x23] WAIT_FOR_DIALOG_INTERACTION
231: 0x153C [0x5D] SET_MUSIC_VOLUME(volume=0*, fade_time=120*)
232: 0x1541 [0x45] LOAD_SCHEDULED_TASK: Load scheduler "fdo1" with entities [LocalPlayer, LocalPlayer], work=[200*, 0*]
233: 0x1552 [0x1C] WAIT(120* ticks)
234: 0x1555 [0x52] END_LOAD_SCHEDULER: End scheduler "s092" with entities [EventEntity, EventEntity], work=127*
235: 0x1564 [0x5C] MUSIC_CONTROL: Set Idle (Day) music to song 135*
236: 0x1568 [0x5C] MUSIC_CONTROL: Set Idle (Night) music to song 135*
237: 0x156C [0x1C] WAIT(100* ticks)
238: 0x156F [0x4E] SET_ENTITY_HIDE_FLAG: Show LocalPlayer
239: 0x1575 [0x80] LOAD_WAIT(entity=LocalPlayer)
240: 0x157A [0x46] CAMERA_CONTROL: Restore default settings
241: 0x157C [0x45] LOAD_SCHEDULED_TASK: Load scheduler "fdi1" with entities [LocalPlayer, LocalPlayer], work=[200*, 0*]
242: 0x158D [0x20] SET_CLI_EVENT_UC_FLAG: Unlock player control
243: 0x158F [0x21] END_EVENT
244: 0x1590 [0x00] END_REQSTACK()
```

### Event 299

#### Metadata

| Field        | Value     |
|--------------|-----------|
| Entrypoint   | 0x1591    |
| Data Size    | 737 bytes |
| Instructions | 110       |

```
      00 01 02 03 04 05 06 07  08 09 0A 0B 0C 0D 0E 0F
      -- -- -- -- -- -- -- --  -- -- -- -- -- -- -- --
1590:    20 01 42 46 01 5D 00  80 01 80 45 02 80 F8 FF    .BF.]....E....
15A0: FF 7F F8 FF FF 7F 66 64  6F 31 00 80 1C 01 80 38  ......fdo1.....8
15B0: 5E 80 29 08 F0 FF FF 7F  05 29 08 F0 FF FF 7F 03  ^.)......)......
15C0: 75 00 5F 80 75 01 1C 03  80 29 0B 2E A0 0F 01 4B  u._.u....).....K
15D0: 29 0B F0 FF FF 7F 0C 4A  2E A0 0F 01 F0 FF FF 7F  )......J........
15E0: 6F 76 2E A0 0F 01 79 00  F0 FF FF 7F 2E A0 0F 01  ov....y.........
15F0: 92 01 2E A0 0F 01 45 60  80 F0 FF FF 7F F0 FF FF  ......E`........
1600: 7F 73 30 33 30 00 80 45  02 80 F8 FF FF 7F F8 FF  .s030..E........
1610: FF 7F 66 64 69 31 00 80  29 08 2E A0 0F 01 01 02  ..fdi1..).......
1620: 05 10 38 80 00 3A 16 2B  2E A0 0F 01 61 80 23 2B  ..8..:.+....a.#+
1630: 2E A0 0F 01 62 80 23 01  42 16 2B 2E A0 0F 01 63  ....b.#.B.+....c
1640: 80 23 45 02 80 F8 FF FF  7F F8 FF FF 7F 66 64 6F  .#E..........fdo
1650: 31 00 80 1C 64 80 5C 00  65 80 5C 01 65 80 52 60  1...d.\.e.\.e.R`
1660: 80 F0 FF FF 7F F0 FF FF  7F 73 30 33 30 29 08 2E  .........s030)..
1670: A0 0F 01 02 45 60 80 F0  FF FF 7F F0 FF FF 7F 73  ....E`.........s
1680: 31 31 34 00 80 45 02 80  F8 FF FF 7F F8 FF FF 7F  114..E..........
1690: 66 64 69 31 00 80 2B 2E  A0 0F 01 66 80 23 29 08  fdi1..+....f.#).
16A0: 2E A0 0F 01 03 2B 2E A0  0F 01 67 80 23 2B 2E A0  .....+....g.#+..
16B0: 0F 01 68 80 23 29 08 2E  A0 0F 01 04 29 08 2E A0  ..h.#)......)...
16C0: 0F 01 05 29 08 2E A0 0F  01 06 52 60 80 F0 FF FF  ...)......R`....
16D0: 7F F0 FF FF 7F 73 31 31  34 45 60 80 F0 FF FF 7F  .....s114E`.....
16E0: F0 FF FF 7F 73 31 31 35  00 80 4B 2E A0 0F 01 69  ....s115..K....i
16F0: 80 6F 76 2E A0 0F 01 2B  2E A0 0F 01 6A 80 23 2B  .ov....+....j.#+
1700: 2E A0 0F 01 6B 80 23 29  08 2E A0 0F 01 11 2B 2E  ....k.#)......+.
1710: A0 0F 01 6C 80 23 29 08  2E A0 0F 01 12 52 60 80  ...l.#)......R`.
1720: F0 FF FF 7F F0 FF FF 7F  73 31 31 35 45 60 80 F0  ........s115E`..
1730: FF FF 7F F0 FF FF 7F 73  31 31 38 00 80 4A 2E A0  .......s118..J..
1740: 0F 01 F0 FF FF 7F 6F 76  2E A0 0F 01 2B 2E A0 0F  ......ov....+...
1750: 01 6D 80 23 29 08 2E A0  0F 01 14 2B 2E A0 0F 01  .m.#)......+....
1760: 6E 80 23 29 08 2E A0 0F  01 15 52 60 80 F0 FF FF  n.#)......R`....
1770: 7F F0 FF FF 7F 73 31 31  38 5D 00 80 03 80 45 02  .....s118]....E.
1780: 80 F0 FF FF 7F F0 FF FF  7F 6F 76 6C 31 00 80 45  .........ovl1..E
1790: 60 80 F0 FF FF 7F F0 FF  FF 7F 73 31 31 36 00 80  `.........s116..
17A0: 2B 2E A0 0F 01 6F 80 23  5C 00 70 80 5C 01 70 80  +....o.#\.p.\.p.
