# 17801271 - Kaizoku02

## Common Data

| Field            | Value            |
|------------------|------------------|
| Zone             | Kazham (ID: 250) |
| Block Size       | 272 bytes        |
| Total Events     | 5                |
| References Count | 11               |

## List of Events

| Event ID                 | Entrypoint   |   Size |   Instructions |
|--------------------------|--------------|--------|----------------|
| [65535](#event-65535)    | 0x0000       |      1 |              1 |
| [148](#event-148)        | 0x0001       |      7 |              2 |
| [65535.1](#event-655351) | 0x0008       |     87 |              7 |
| [65535.2](#event-655352) | 0x005F       |     70 |              6 |
| [65535.3](#event-655353) | 0x00A5       |     24 |              6 |

## DAT References (imed_data)

|   Index | Hex Value   |   Dec Value |
|---------|-------------|-------------|
|       0 | 0x0096      |         150 |
|       1 | 0x0000      |           0 |
|       2 | 0x00C8      |         200 |
|       3 | 0x012C      |         300 |
|       4 | 0x0028      |          40 |
|       5 | 0x2690      |        9872 |
|       6 | 0x1707B     |       94331 |
|       7 | 0x01AD      |         429 |
|       8 | 0x2D2F      |       11567 |
|       9 | 0x19FAC     |      106412 |
|      10 | 0xFFFFFFB1  |  4294967217 |

## Events

### Event 65535

#### Metadata

| Field        | Value   |
|--------------|---------|
| Entrypoint   | 0x0000  |
| Data Size    | 1 bytes |
| Instructions | 1       |

```
      00 01 02 03 04 05 06 07  08 09 0A 0B 0C 0D 0E 0F
      -- -- -- -- -- -- -- --  -- -- -- -- -- -- -- --
0000: 00                                                .               
```

#### Opcodes

```
  0: 0x0000 [0x00] END_REQSTACK()
```

### Event 148

#### Metadata

| Field        | Value   |
|--------------|---------|
| Entrypoint   | 0x0001  |
| Data Size    | 7 bytes |
| Instructions | 2       |

```
      00 01 02 03 04 05 06 07  08 09 0A 0B 0C 0D 0E 0F
      -- -- -- -- -- -- -- --  -- -- -- -- -- -- -- --
0000:    92 01 F8 FF FF 7F 00                            .......        
```

#### Opcodes

```
  0: 0x0001 [0x92] EventEntity->Render.Flags3 ^= 0x01
  1: 0x0007 [0x00] END_REQSTACK()
```

### Event 65535.1

#### Metadata

| Field        | Value    |
|--------------|----------|
| Entrypoint   | 0x0008   |
| Data Size    | 87 bytes |
| Instructions | 7        |

```
      00 01 02 03 04 05 06 07  08 09 0A 0B 0C 0D 0E 0F
      -- -- -- -- -- -- -- --  -- -- -- -- -- -- -- --
0000:                          45 00 80 F0 FF FF 7F F0          E.......
0010: FF FF 7F 73 30 34 34 01  80 45 02 80 F0 FF FF 7F  ...s044..E......
0020: F0 FF FF 7F 66 64 69 31  01 80 1C 03 80 52 00 80  ....fdi1.....R..
0030: F0 FF FF 7F F0 FF FF 7F  73 30 34 34 45 02 80 F0  ........s044E...
0040: FF FF 7F F0 FF FF 7F 6F  76 6C 31 01 80 45 00 80  .......ovl1..E..
0050: F0 FF FF 7F F0 FF FF 7F  73 30 34 35 01 80 00     ........s045... 
```

#### Opcodes

```
  0: 0x0008 [0x45] LOAD_SCHEDULED_TASK: Load scheduler "s044" with entities [LocalPlayer, LocalPlayer], work=[150*, 0*]
  1: 0x0019 [0x45] LOAD_SCHEDULED_TASK: Load scheduler "fdi1" with entities [LocalPlayer, LocalPlayer], work=[200*, 0*]
  2: 0x002A [0x1C] WAIT(300* ticks)
  3: 0x002D [0x52] END_LOAD_SCHEDULER: End scheduler "s044" with entities [LocalPlayer, LocalPlayer], work=150*
  4: 0x003C [0x45] LOAD_SCHEDULED_TASK: Load scheduler "ovl1" with entities [LocalPlayer, LocalPlayer], work=[200*, 0*]
  5: 0x004D [0x45] LOAD_SCHEDULED_TASK: Load scheduler "s045" with entities [LocalPlayer, LocalPlayer], work=[150*, 0*]
  6: 0x005E [0x00] END_REQSTACK()
```

### Event 65535.2

#### Metadata

| Field        | Value    |
|--------------|----------|
| Entrypoint   | 0x005F   |
| Data Size    | 70 bytes |
| Instructions | 6        |

```
      00 01 02 03 04 05 06 07  08 09 0A 0B 0C 0D 0E 0F
      -- -- -- -- -- -- -- --  -- -- -- -- -- -- -- --
0050:                                               45                 E
0060: 00 80 F0 FF FF 7F F0 FF  FF 7F 73 30 34 36 01 80  ..........s046..
0070: 1C 02 80 52 00 80 F0 FF  FF 7F F0 FF FF 7F 73 30  ...R..........s0
0080: 34 36 45 02 80 F0 FF FF  7F F0 FF FF 7F 6F 76 6C  46E..........ovl
0090: 31 01 80 45 00 80 F0 FF  FF 7F F0 FF FF 7F 73 30  1..E..........s0
00A0: 34 37 01 80 00                                    47...           
```

#### Opcodes

```
  0: 0x005F [0x45] LOAD_SCHEDULED_TASK: Load scheduler "s046" with entities [LocalPlayer, LocalPlayer], work=[150*, 0*]
  1: 0x0070 [0x1C] WAIT(200* ticks)
  2: 0x0073 [0x52] END_LOAD_SCHEDULER: End scheduler "s046" with entities [LocalPlayer, LocalPlayer], work=150*
  3: 0x0082 [0x45] LOAD_SCHEDULED_TASK: Load scheduler "ovl1" with entities [LocalPlayer, LocalPlayer], work=[200*, 0*]
  4: 0x0093 [0x45] LOAD_SCHEDULED_TASK: Load scheduler "s047" with entities [LocalPlayer, LocalPlayer], work=[150*, 0*]
  5: 0x00A4 [0x00] END_REQSTACK()
```

### Event 65535.3

#### Metadata

| Field        | Value    |
|--------------|----------|
| Entrypoint   | 0x00A5   |
| Data Size    | 24 bytes |
| Instructions | 6        |

```
      00 01 02 03 04 05 06 07  08 09 0A 0B 0C 0D 0E 0F
      -- -- -- -- -- -- -- --  -- -- -- -- -- -- -- --
00A0:                32 04 80  1F 00 05 80 06 80 07 80       2..........
00B0: 1F 01 1F 00 08 80 09 80  0A 80 1F 01 00           .............   
```

#### Opcodes

```
  0: 0x00A5 [0x32] ExtData[1]->MainSpeed = 40* * 0.1
  1: 0x00A8 [0x1F] MOVE_ENTITY: EventEntity moves to X=9.872*, Z=94.331*, Y=0.429*
  2: 0x00B0 [0x1F] MOVE_ENTITY: Update entity position (mode=1)
  3: 0x00B2 [0x1F] MOVE_ENTITY: EventEntity moves to X=11.567*, Z=106.412*, Y=-0.079*
  4: 0x00BA [0x1F] MOVE_ENTITY: Update entity position (mode=1)
  5: 0x00BC [0x00] END_REQSTACK()
```
