# 17801288 - Lulupp

## Common Data

| Field            | Value            |
|------------------|------------------|
| Zone             | Kazham (ID: 250) |
| Block Size       | 3388 bytes       |
| Total Events     | 12               |
| References Count | 58               |

## List of Events

| Event ID                 | Entrypoint   |   Size |   Instructions |
|--------------------------|--------------|--------|----------------|
| [65535](#event-65535)    | 0x0000       |      1 |              1 |
| [65535.1](#event-655351) | 0x0001       |     16 |              2 |
| [65535.2](#event-655352) | 0x0011       |     14 |              2 |
| [197](#event-197)        | 0x001F       |      4 |              3 |
| [207](#event-207)        | 0x0023       |     15 |              8 |
| [219](#event-219)        | 0x0032       |     30 |             11 |
| [229](#event-229)        | 0x0050       |     24 |             13 |
| [242](#event-242)        | 0x0068       |     29 |             10 |
| [217](#event-217)        | 0x0085       |   1447 |            178 |
| [239](#event-239)        | 0x062C       |   1484 |            196 |
| [241](#event-241)        | 0x0BF8       |     12 |              3 |
| [65535.3](#event-655353) | 0x0C04       |     14 |              4 |

## DAT References (imed_data)

|   Index | Hex Value   |   Dec Value |
|---------|-------------|-------------|
|       0 | 0x00FD      |         253 |
|       1 | 0x289E      |       10398 |
|       2 | 0x28A8      |       10408 |
|       3 | 0x28A9      |       10409 |
|       4 | 0x28AA      |       10410 |
|       5 | 0x28AB      |       10411 |
|       6 | 0x28D6      |       10454 |
|       7 | 0x0000      |           0 |
|       8 | 0x00C8      |         200 |
|       9 | 0x0003      |           3 |
|      10 | 0xFFFF9624  |  4294940196 |
|      11 | 0xFFFFD843  |  4294957123 |
|      12 | 0xFFFFF63C  |  4294964796 |
|      13 | 0x05B4      |        1460 |
|      14 | 0x0096      |         150 |
|      15 | 0x289C      |       10396 |
|      16 | 0x289D      |       10397 |
|      17 | 0x0001      |           1 |
|      18 | 0x00A3      |         163 |
|      19 | 0x007F      |         127 |
|      20 | 0x003C      |          60 |
|      21 | 0x28AC      |       10412 |
|      22 | 0x0005      |           5 |
|      23 | 0x0006      |           6 |
|      24 | 0x0008      |           8 |
|      25 | 0x0F97      |        3991 |
|      26 | 0xFFFF9602  |  4294940162 |
|      27 | 0xFFFFE989  |  4294961545 |
|      28 | 0xFFFFF63D  |  4294964797 |
|      29 | 0x0AF0      |        2800 |
|      30 | 0x28B7      |       10423 |
|      31 | 0x0087      |         135 |
|      32 | 0x0002      |           2 |
|      33 | 0x28BA      |       10426 |
|      34 | 0x28BB      |       10427 |
|      35 | 0x28BD      |       10429 |
|      36 | 0x01E3      |         483 |
|      37 | 0x28BE      |       10430 |
|      38 | 0x0016      |          22 |
|      39 | 0x03F0      |        1008 |
|      40 | 0x0485      |        1157 |
|      41 | 0x0004      |           4 |
|      42 | 0x0486      |        1158 |
|      43 | 0x0388      |         904 |
|      44 | 0x11F7      |        4599 |
|      45 | 0x0007      |           7 |
|      46 | 0x0389      |         905 |
|      47 | 0x047B      |        1147 |
|      48 | 0x0009      |           9 |
|      49 | 0x11F8      |        4600 |
|      50 | 0x0014      |          20 |
|      51 | 0xAAD3      |       43731 |
|      52 | 0xFFFD4797  |  4294789015 |
|      53 | 0xFFFFD508  |  4294956296 |
|      54 | 0x0823      |        2083 |
|      55 | 0x000D      |          13 |
|      56 | 0xB423      |       46115 |
|      57 | 0xFFFD6302  |  4294796034 |

## String References

- **10396**: Opo opo-opo! Opo-opoh! Opopo! Pohppo-opo!
- **10397**: Pohppo-opo! [Opo?/...]
- **10398**: Opoppo!
- **10408**: Opopopopo! Opo-opo! Oppo! Oppo-opo!
- **10409**: Opi!? Opi-opi!?
- **10410**: It seems as if you handed the Opo-opos the items in the wrong order.
- **10411**: Now you have to start again from the beginning...
- **10454**: Opo-opo! Ohppo-opo!

## Events

### Event 65535

#### Metadata

| Field        | Value   |
|--------------|---------|
| Entrypoint   | 0x0000  |
| Data Size    | 1 bytes |
| Instructions | 1       |

```
      00 01 02 03 04 05 06 07  08 09 0A 0B 0C 0D 0E 0F
      -- -- -- -- -- -- -- --  -- -- -- -- -- -- -- --
0000: 00                                                .               
```

#### Opcodes

```
  0: 0x0000 [0x00] END_REQSTACK()
```

### Event 65535.1

#### Metadata

| Field        | Value    |
|--------------|----------|
| Entrypoint   | 0x0001   |
| Data Size    | 16 bytes |
| Instructions | 2        |

```
      00 01 02 03 04 05 06 07  08 09 0A 0B 0C 0D 0E 0F
      -- -- -- -- -- -- -- --  -- -- -- -- -- -- -- --
0000:    5B 00 80 F8 FF FF 7F  F8 FF FF 7F 62 6F 77 30   [..........bow0
0010: 00                                                .               
```

#### Opcodes

```
  0: 0x0001 [0x5B] LOAD_EXT_SCHEDULER: Load scheduler "bow0" with entities [EventEntity, EventEntity], work=253*
  1: 0x0010 [0x00] END_REQSTACK()
```

### Event 65535.2

#### Metadata

| Field        | Value    |
|--------------|----------|
| Entrypoint   | 0x0011   |
| Data Size    | 14 bytes |
| Instructions | 2        |

```
      00 01 02 03 04 05 06 07  08 09 0A 0B 0C 0D 0E 0F
      -- -- -- -- -- -- -- --  -- -- -- -- -- -- -- --
0010:    53 F8 FF FF 7F F8 FF  FF 7F 62 6F 77 30 00      S........bow0. 
```

#### Opcodes

```
  0: 0x0011 [0x53] WAIT_SCHEDULER_TASK: Wait for scheduler "bow0" with entities [EventEntity, EventEntity]
  1: 0x001E [0x00] END_REQSTACK()
```

### Event 197

#### Metadata

| Field        | Value   |
|--------------|---------|
| Entrypoint   | 0x001F  |
| Data Size    | 4 bytes |
| Instructions | 3       |

```
      00 01 02 03 04 05 06 07  08 09 0A 0B 0C 0D 0E 0F
      -- -- -- -- -- -- -- --  -- -- -- -- -- -- -- --
0010:                                               20                  
0020: 00 21 00                                          .!.             
```

#### Opcodes

```
  0: 0x001F [0x20] SET_CLI_EVENT_UC_FLAG: Unlock player control
  1: 0x0021 [0x21] END_EVENT
  2: 0x0022 [0x00] END_REQSTACK()
```

### Event 207

#### Metadata

| Field        | Value    |
|--------------|----------|
| Entrypoint   | 0x0023   |
| Data Size    | 15 bytes |
| Instructions | 8        |

```
      00 01 02 03 04 05 06 07  08 09 0A 0B 0C 0D 0E 0F
      -- -- -- -- -- -- -- --  -- -- -- -- -- -- -- --
0020:          1E F0 FF FF 7F  6F 70 1D 01 80 23 20 00     .....op...# .
0030: 21 00                                             !.              
```

#### Opcodes

```
  0: 0x0023 [0x1E] EventEntity looks at LocalPlayer and starts talking
  1: 0x0028 [0x6F] WAIT_FRAME_DELAY: Yield until WaitTime reaches zero
  2: 0x0029 [0x70] WAIT_ENTITY_RENDER_FLAG: Wait while EventEntity->Render.Flags3 bit 2 is set (cancel turn if not)
  3: 0x002A [0x1D] PRINT_EVENT_MESSAGE(message_id=10398*)
    → "Opoppo!"
  4: 0x002D [0x23] WAIT_FOR_DIALOG_INTERACTION
  5: 0x002E [0x20] SET_CLI_EVENT_UC_FLAG: Unlock player control
  6: 0x0030 [0x21] END_EVENT
  7: 0x0031 [0x00] END_REQSTACK()
```

### Event 219

#### Metadata

| Field        | Value    |
|--------------|----------|
| Entrypoint   | 0x0032   |
| Data Size    | 30 bytes |
| Instructions | 11       |

```
      00 01 02 03 04 05 06 07  08 09 0A 0B 0C 0D 0E 0F
      -- -- -- -- -- -- -- --  -- -- -- -- -- -- -- --
0030:       42 1E F0 FF FF 7F  6F 70 29 08 48 A0 0F 01    B.....op).H...
0040: 01 1D 02 80 23 29 08 48  A0 0F 01 02 20 00 21 00  ....#).H.... .!.
```

#### Opcodes

```
  0: 0x0032 [0x42] SET_CLI_EVENT_CANCEL_DATA()
  1: 0x0033 [0x1E] EventEntity looks at LocalPlayer and starts talking
  2: 0x0038 [0x6F] WAIT_FRAME_DELAY: Yield until WaitTime reaches zero
  3: 0x0039 [0x70] WAIT_ENTITY_RENDER_FLAG: Wait while EventEntity->Render.Flags3 bit 2 is set (cancel turn if not)
  4: 0x003A [0x29] REQ_SET_WAIT(priority=0x08, entity_id=Lulupp (ID: 17801288/0x010FA048), tag_num=0x01)
  5: 0x0041 [0x1D] PRINT_EVENT_MESSAGE(message_id=10408*)
    → "Opopopopo! Opo-opo! Oppo! Oppo-opo!"
  6: 0x0044 [0x23] WAIT_FOR_DIALOG_INTERACTION
  7: 0x0045 [0x29] REQ_SET_WAIT(priority=0x08, entity_id=Lulupp (ID: 17801288/0x010FA048), tag_num=0x02)
  8: 0x004C [0x20] SET_CLI_EVENT_UC_FLAG: Unlock player control
  9: 0x004E [0x21] END_EVENT
 10: 0x004F [0x00] END_REQSTACK()
```

### Event 229

#### Metadata

| Field        | Value    |
|--------------|----------|
| Entrypoint   | 0x0050   |
| Data Size    | 24 bytes |
| Instructions | 13       |

```
      00 01 02 03 04 05 06 07  08 09 0A 0B 0C 0D 0E 0F
      -- -- -- -- -- -- -- --  -- -- -- -- -- -- -- --
0050: 42 1E F0 FF FF 7F 6F 70  1D 03 80 23 48 04 80 23  B.....op...#H..#
0060: 48 05 80 23 20 00 21 00                           H..# .!.        
```

#### Opcodes

```
  0: 0x0050 [0x42] SET_CLI_EVENT_CANCEL_DATA()
  1: 0x0051 [0x1E] EventEntity looks at LocalPlayer and starts talking
  2: 0x0056 [0x6F] WAIT_FRAME_DELAY: Yield until WaitTime reaches zero
  3: 0x0057 [0x70] WAIT_ENTITY_RENDER_FLAG: Wait while EventEntity->Render.Flags3 bit 2 is set (cancel turn if not)
  4: 0x0058 [0x1D] PRINT_EVENT_MESSAGE(message_id=10409*)
    → "Opi!? Opi-opi!?"
  5: 0x005B [0x23] WAIT_FOR_DIALOG_INTERACTION
  6: 0x005C [0x48] [System] [10410*]:
    → "It seems as if you handed the Opo-opos the items in the wrong order."
  7: 0x005F [0x23] WAIT_FOR_DIALOG_INTERACTION
  8: 0x0060 [0x48] [System] [10411*]:
    → "Now you have to start again from the beginning..."
  9: 0x0063 [0x23] WAIT_FOR_DIALOG_INTERACTION
 10: 0x0064 [0x20] SET_CLI_EVENT_UC_FLAG: Unlock player control
 11: 0x0066 [0x21] END_EVENT
 12: 0x0067 [0x00] END_REQSTACK()
```

### Event 242

#### Metadata

| Field        | Value    |
|--------------|----------|
| Entrypoint   | 0x0068   |
| Data Size    | 29 bytes |
| Instructions | 10       |

```
      00 01 02 03 04 05 06 07  08 09 0A 0B 0C 0D 0E 0F
      -- -- -- -- -- -- -- --  -- -- -- -- -- -- -- --
0060:                          1E F0 FF FF 7F 6F 70 29          .....op)
0070: 08 48 A0 0F 01 01 1D 06  80 23 29 08 48 A0 0F 01  .H.......#).H...
0080: 02 20 00 21 00                                    . .!.           
```

#### Opcodes

```
  0: 0x0068 [0x1E] EventEntity looks at LocalPlayer and starts talking
  1: 0x006D [0x6F] WAIT_FRAME_DELAY: Yield until WaitTime reaches zero
  2: 0x006E [0x70] WAIT_ENTITY_RENDER_FLAG: Wait while EventEntity->Render.Flags3 bit 2 is set (cancel turn if not)
  3: 0x006F [0x29] REQ_SET_WAIT(priority=0x08, entity_id=Lulupp (ID: 17801288/0x010FA048), tag_num=0x01)
  4: 0x0076 [0x1D] PRINT_EVENT_MESSAGE(message_id=10454*)
    → "Opo-opo! Ohppo-opo!"
  5: 0x0079 [0x23] WAIT_FOR_DIALOG_INTERACTION
  6: 0x007A [0x29] REQ_SET_WAIT(priority=0x08, entity_id=Lulupp (ID: 17801288/0x010FA048), tag_num=0x02)
  7: 0x0081 [0x20] SET_CLI_EVENT_UC_FLAG: Unlock player control
  8: 0x0083 [0x21] END_EVENT
  9: 0x0084 [0x00] END_REQSTACK()
```

### Event 217

#### Metadata

| Field        | Value      |
|--------------|------------|
| Entrypoint   | 0x0085     |
| Data Size    | 1447 bytes |
| Instructions | 178        |

```
      00 01 02 03 04 05 06 07  08 09 0A 0B 0C 0D 0E 0F
      -- -- -- -- -- -- -- --  -- -- -- -- -- -- -- --
0080:                20 01 42  46 01 5D 07 80 08 80 1E        .BF.].....
0090: F0 FF FF 7F 45 08 80 F0  FF FF 7F F0 FF FF 7F 66  ....E..........f
00A0: 64 6F 31 07 80 1C 08 80  38 09 80 29 0B F0 FF FF  do1.....8..)....
00B0: 7F 0E 29 08 F0 FF FF 7F  05 37 0A 80 0B 80 0C 80  ..)......7......
00C0: 0D 80 1E F0 FF FF 7F 4A  F0 FF FF 7F 48 A0 0F 01  .......J....H...
00D0: 6F 76 F0 FF FF 7F 6F 70  4E 00 52 A0 0F 01 80 52  ov....opN.R....R
00E0: A0 0F 01 4A 53 A0 0F 01  52 A0 0F 01 45 0E 80 F0  ...JS...R...E...
00F0: FF FF 7F F0 FF FF 7F 73  30 35 39 07 80 45 08 80  .......s059..E..
0100: F0 FF FF 7F F0 FF FF 7F  66 64 69 31 07 80 1D 0F  ........fdi1....
0110: 80 23 24 10 80 07 80 07  80 25 02 00 10 07 80 00  .#$......%......
0120: DA 05 03 01 10 11 80 52  0E 80 F0 FF FF 7F F0 FF  .......R........
0130: FF 7F 73 30 35 39 5C 00  12 80 5C 01 12 80 5D 13  ..s059\...\...].
0140: 80 11 80 27 0B 52 A0 0F  01 14 1C 14 80 4A 48 A0  ...'.R.......JH.
0150: 0F 01 52 A0 0F 01 27 0B  53 A0 0F 01 06 2B 52 A0  ..R...'.S....+R.
0160: 0F 01 15 80 23 2A 0B 52  A0 0F 01 29 0B 52 A0 0F  ....#*.R...).R..
0170: 01 18 2A 0B 53 A0 0F 01  02 09 10 09 80 00 94 01  ..*.S...........
0180: 45 0E 80 F0 FF FF 7F F0  FF FF 7F 73 30 38 35 07  E..........s085.
0190: 80 01 F9 01 02 09 10 16  80 00 B0 01 45 0E 80 F0  ............E...
01A0: FF FF 7F F0 FF FF 7F 73  30 38 32 07 80 01 F9 01  .......s082.....
01B0: 02 09 10 17 80 00 CC 01  45 0E 80 F0 FF FF 7F F0  ........E.......
01C0: FF FF 7F 73 30 38 32 07  80 01 F9 01 02 09 10 18  ...s082.........
01D0: 80 00 E8 01 45 0E 80 F0  FF FF 7F F0 FF FF 7F 73  ....E..........s
01E0: 30 38 35 07 80 01 F9 01  45 0E 80 F0 FF FF 7F F0  085.....E.......
01F0: FF FF 7F 73 30 36 32 07  80 4A F0 FF FF 7F 52 A0  ...s062..J....R.
0200: 0F 01 29 08 52 A0 0F 01  09 29 0B 52 A0 0F 01 19  ..).R....).R....
0210: 29 08 52 A0 0F 01 0A 29  08 52 A0 0F 01 0B 29 08  ).R....).R....).
0220: 52 A0 0F 01 0C 02 09 10  09 80 00 3F 02 52 0E 80  R..........?.R..
0230: F0 FF FF 7F F0 FF FF 7F  73 30 38 35 01 9C 02 02  ........s085....
0240: 09 10 16 80 00 59 02 52  0E 80 F0 FF FF 7F F0 FF  .....Y.R........
0250: FF 7F 73 30 38 32 01 9C  02 02 09 10 17 80 00 73  ..s082.........s
0260: 02 52 0E 80 F0 FF FF 7F  F0 FF FF 7F 73 30 38 32  .R..........s082
0270: 01 9C 02 02 09 10 18 80  00 8D 02 52 0E 80 F0 FF  ...........R....
0280: FF 7F F0 FF FF 7F 73 30  38 35 01 9C 02 52 0E 80  ......s085...R..
0290: F0 FF FF 7F F0 FF FF 7F  73 30 36 32 02 09 10 16  ........s062....
02A0: 80 00 B8 02 45 0E 80 F0  FF FF 7F F0 FF FF 7F 73  ....E..........s
02B0: 30 38 33 07 80 01 E5 02  02 09 10 17 80 00 D4 02  083.............
02C0: 45 0E 80 F0 FF FF 7F F0  FF FF 7F 73 30 38 33 07  E..........s083.
02D0: 80 01 E5 02 45 0E 80 F0  FF FF 7F F0 FF FF 7F 73  ....E..........s
02E0: 30 36 33 07 80 79 00 52  A0 0F 01 48 A0 0F 01 4A  063..y.R...H...J
02F0: 48 A0 0F 01 52 A0 0F 01  29 0B 52 A0 0F 01 1A 02  H...R...).R.....
0300: 09 10 16 80 00 19 03 52  0E 80 F0 FF FF 7F F0 FF  .......R........
0310: FF 7F 73 30 38 33 01 42  03 02 09 10 17 80 00 33  ..s083.B.......3
0320: 03 52 0E 80 F0 FF FF 7F  F0 FF FF 7F 73 30 38 33  .R..........s083
0330: 01 42 03 52 0E 80 F0 FF  FF 7F F0 FF FF 7F 73 30  .B.R..........s0
0340: 36 33 45 0E 80 F0 FF FF  7F F0 FF FF 7F 73 30 36  63E..........s06
0350: 34 07 80 4A F0 FF FF 7F  48 A0 0F 01 79 00 F0 FF  4..J....H...y...
0360: FF 7F 52 A0 0F 01 79 00  52 A0 0F 01 F0 FF FF 7F  ..R...y.R.......
0370: 29 08 52 A0 0F 01 09 29  0B 52 A0 0F 01 1B 29 08  ).R....).R....).
0380: 52 A0 0F 01 0A 29 08 52  A0 0F 01 0B 29 08 52 A0  R....).R....).R.
0390: 0F 01 0C 52 0E 80 F0 FF  FF 7F F0 FF FF 7F 73 30  ...R..........s0
03A0: 36 34 45 08 80 F0 FF FF  7F F0 FF FF 7F 6F 76 6C  64E..........ovl
03B0: 31 07 80 45 0E 80 F0 FF  FF 7F F0 FF FF 7F 73 30  1..E..........s0
03C0: 36 35 07 80 4E 01 F0 FF  FF 7F 4A 52 A0 0F 01 F0  65..N.....JR....
03D0: FF FF 7F 7B 52 A0 0F 01  29 0B 52 A0 0F 01 1C 52  ...{R...).R....R
03E0: 0E 80 F0 FF FF 7F F0 FF  FF 7F 73 30 36 35 45 0E  ..........s065E.
03F0: 80 F0 FF FF 7F F0 FF FF  7F 73 30 36 36 07 80 4E  .........s066..N
0400: 00 F0 FF FF 7F 4A 52 A0  0F 01 53 A0 0F 01 4A 48  .....JR...S...JH
0410: A0 0F 01 F0 FF FF 7F 4B  F0 FF FF 7F 19 80 79 00  .......K......y.
0420: F0 FF FF 7F 53 A0 0F 01  29 0B 53 A0 0F 01 08 52  ....S...).S....R
0430: 0E 80 F0 FF FF 7F F0 FF  FF 7F 73 30 36 36 45 0E  ..........s066E.
0440: 80 F0 FF FF 7F F0 FF FF  7F 73 30 36 37 07 80 29  .........s067..)
0450: 0B 52 A0 0F 01 1D 79 00  F0 FF FF 7F 52 A0 0F 01  .R....y.....R...
0460: 27 0B 52 A0 0F 01 15 45  08 80 F0 FF FF 7F F0 FF  '.R....E........
0470: FF 7F 66 64 6F 31 07 80  1C 14 80 2A 0B 52 A0 0F  ..fdo1.....*.R..
0480: 01 52 0E 80 F0 FF FF 7F  F0 FF FF 7F 73 30 36 37  .R..........s067
0490: 29 08 52 A0 0F 01 13 4A  52 A0 0F 01 53 A0 0F 01  ).R....JR...S...
04A0: 4A 53 A0 0F 01 52 A0 0F  01 6F 76 53 A0 0F 01 6F  JS...R...ovS...o
04B0: 76 52 A0 0F 01 29 0B F0  FF FF 7F 0F 37 1A 80 1B  vR...)......7...
04C0: 80 1C 80 1D 80 45 0E 80  F0 FF FF 7F F0 FF FF 7F  .....E..........
04D0: 73 30 36 38 07 80 45 08  80 F0 FF FF 7F F0 FF FF  s068..E.........
04E0: 7F 66 64 69 31 07 80 29  0B 53 A0 0F 01 09 52 0E  .fdi1..).S....R.
04F0: 80 F0 FF FF 7F F0 FF FF  7F 73 30 36 38 45 08 80  .........s068E..
0500: F0 FF FF 7F F0 FF FF 7F  6F 76 6C 31 07 80 45 0E  ........ovl1..E.
0510: 80 F0 FF FF 7F F0 FF FF  7F 73 30 37 30 07 80 29  .........s070..)
0520: 0B 52 A0 0F 01 1E 79 00  F0 FF FF 7F 52 A0 0F 01  .R....y.....R...
0530: 27 0B 52 A0 0F 01 16 1C  14 80 52 0E 80 F0 FF FF  '.R.......R.....
0540: 7F F0 FF FF 7F 73 30 37  30 27 0B 53 A0 0F 01 07  .....s070'.S....
0550: 2A 0B 52 A0 0F 01 79 00  F0 FF FF 7F 52 A0 0F 01  *.R...y.....R...
0560: 79 00 52 A0 0F 01 F0 FF  FF 7F 29 0B 52 A0 0F 01  y.R.......).R...
0570: 1F 29 08 52 A0 0F 01 09  2B 52 A0 0F 01 1E 80 23  .).R....+R.....#
0580: 29 08 52 A0 0F 01 0A 29  08 52 A0 0F 01 0B 5D 07  ).R....).R....].
0590: 80 08 80 45 08 80 F0 FF  FF 7F F0 FF FF 7F 66 64  ...E..........fd
05A0: 6F 31 07 80 1C 08 80 29  08 52 A0 0F 01 0C 2A 0B  o1.....).R....*.
05B0: 53 A0 0F 01 46 00 5C 00  1F 80 5C 01 1F 80 5D 13  S...F.\...\...].
05C0: 80 11 80 1C 08 80 45 08  80 F0 FF FF 7F F0 FF FF  ......E.........
05D0: 7F 66 64 69 31 07 80 01  28 06 02 00 10 11 80 00  .fdi1...(.......
05E0: 28 06 03 01 10 20 80 45  08 80 F0 FF FF 7F F0 FF  (.... .E........
05F0: FF 7F 66 64 6F 31 07 80  1C 14 80 5D 13 80 08 80  ..fdo1.....]....
0600: 52 0E 80 F0 FF FF 7F F0  FF FF 7F 73 30 35 39 46  R..........s059F
0610: 00 1C 08 80 45 08 80 F0  FF FF 7F F0 FF FF 7F 66  ....E..........f
0620: 64 69 31 07 80 01 28 06  20 00 21 00              di1...(. .!.    
```

#### Opcodes

```
  0: 0x0085 [0x20] SET_CLI_EVENT_UC_FLAG: Lock player control
  1: 0x0087 [0x42] SET_CLI_EVENT_CANCEL_DATA()
  2: 0x0088 [0x46] CAMERA_CONTROL: Disable user control
  3: 0x008A [0x5D] SET_MUSIC_VOLUME(volume=0*, fade_time=200*)
  4: 0x008F [0x1E] EventEntity looks at LocalPlayer and starts talking
  5: 0x0094 [0x45] LOAD_SCHEDULED_TASK: Load scheduler "fdo1" with entities [LocalPlayer, LocalPlayer], work=[200*, 0*]
  6: 0x00A5 [0x1C] WAIT(200* ticks)
  7: 0x00A8 [0x38] SET_CLIENT_EVENT_MODE(mode=3*)
  8: 0x00AB [0x29] REQ_SET_WAIT(priority=0x0B, entity_id=LocalPlayer, tag_num=0x0E)
  9: 0x00B2 [0x29] REQ_SET_WAIT(priority=0x08, entity_id=LocalPlayer, tag_num=0x05)
 10: 0x00B9 [0x37] UPDATE_EVENT_POSITION_AND_DIR: x=-27.100*, z=-10.173*, y=-2.500*, direction=128.3°*
 11: 0x00C2 [0x1E] EventEntity looks at LocalPlayer and starts talking
 12: 0x00C7 [0x4A] LocalPlayer looks at Lulupp (ID: 17801288/0x010FA048)
 13: 0x00D0 [0x6F] WAIT_FRAME_DELAY: Yield until WaitTime reaches zero
 14: 0x00D1 [0x76] CHECK_ENTITY_RENDER_FLAGS: Wait until LocalPlayer Render.Flags0 and Render.Flags3 conditions are met
 15: 0x00D6 [0x6F] WAIT_FRAME_DELAY: Yield until WaitTime reaches zero
 16: 0x00D7 [0x70] WAIT_ENTITY_RENDER_FLAG: Wait while EventEntity->Render.Flags3 bit 2 is set (cancel turn if not)
 17: 0x00D8 [0x4E] SET_ENTITY_HIDE_FLAG: Show Vuih Stecoppah (ID: 17801298/0x010FA052)
 18: 0x00DE [0x80] LOAD_WAIT(entity=Vuih Stecoppah (ID: 17801298/0x010FA052))
 19: 0x00E3 [0x4A] Dheo Nbolo (ID: 17801299/0x010FA053) looks at Vuih Stecoppah (ID: 17801298/0x010FA052)
 20: 0x00EC [0x45] LOAD_SCHEDULED_TASK: Load scheduler "s059" with entities [LocalPlayer, LocalPlayer], work=[150*, 0*]
 21: 0x00FD [0x45] LOAD_SCHEDULED_TASK: Load scheduler "fdi1" with entities [LocalPlayer, LocalPlayer], work=[200*, 0*]
 22: 0x010E [0x1D] PRINT_EVENT_MESSAGE(message_id=10396*)
    → "Opo opo-opo! Opo-opoh! Opopo! Pohppo-opo!"
 23: 0x0111 [0x23] WAIT_FOR_DIALOG_INTERACTION
 24: 0x0112 [0x24] CREATE_DIALOG(message_id=10397*, default_option=0*, option_flags=0*)
    → "Pohppo-opo! [Opo?/...]"
 25: 0x0119 [0x25] WAIT_DIALOG_SELECT()
 26: 0x011A [0x02] IF !(Work_Zone[0] == 0*) GOTO 0x05DA
 27: 0x0122 [0x03] Work_Zone[1] = 1*
 28: 0x0127 [0x52] END_LOAD_SCHEDULER: End scheduler "s059" with entities [LocalPlayer, LocalPlayer], work=150*
 29: 0x0136 [0x5C] MUSIC_CONTROL: Set Idle (Day) music to song 163*
 30: 0x013A [0x5C] MUSIC_CONTROL: Set Idle (Night) music to song 163*
 31: 0x013E [0x5D] SET_MUSIC_VOLUME(volume=127*, fade_time=1*)
 32: 0x0143 [0x27] REQ_SET(priority=0x0B, entity_id=Vuih Stecoppah (ID: 17801298/0x010FA052), tag_num=0x14)
 33: 0x014A [0x1C] WAIT(60* ticks)
 34: 0x014D [0x4A] Lulupp (ID: 17801288/0x010FA048) looks at Vuih Stecoppah (ID: 17801298/0x010FA052)
 35: 0x0156 [0x27] REQ_SET(priority=0x0B, entity_id=Dheo Nbolo (ID: 17801299/0x010FA053), tag_num=0x06)
 36: 0x015D [0x2B] Vuih Stecoppah (ID: 17801298/0x010FA052) [10412*]:
    → "You don't have to be afrrraid! That Opo-opo likes you!"
 37: 0x0164 [0x23] WAIT_FOR_DIALOG_INTERACTION
 38: 0x0165 [0x2A] GET_REQ_LEVEL(level=11, entity_id=Vuih Stecoppah (ID: 17801298/0x010FA052))
 39: 0x016B [0x29] REQ_SET_WAIT(priority=0x0B, entity_id=Vuih Stecoppah (ID: 17801298/0x010FA052), tag_num=0x18)
 40: 0x0172 [0x2A] GET_REQ_LEVEL(level=11, entity_id=Dheo Nbolo (ID: 17801299/0x010FA053))
 41: 0x0178 [0x02] IF !(Work_Zone[9] == 3*) GOTO 0x0194
 42: 0x0180 [0x45] LOAD_SCHEDULED_TASK: Load scheduler "s085" with entities [LocalPlayer, LocalPlayer], work=[150*, 0*]
 43: 0x0191 [0x01] GOTO 0x01F9
 44: 0x0194 [0x02] IF !(Work_Zone[9] == 5*) GOTO 0x01B0
 45: 0x019C [0x45] LOAD_SCHEDULED_TASK: Load scheduler "s082" with entities [LocalPlayer, LocalPlayer], work=[150*, 0*]
 46: 0x01AD [0x01] GOTO 0x01F9
 47: 0x01B0 [0x02] IF !(Work_Zone[9] == 6*) GOTO 0x01CC
 48: 0x01B8 [0x45] LOAD_SCHEDULED_TASK: Load scheduler "s082" with entities [LocalPlayer, LocalPlayer], work=[150*, 0*]
 49: 0x01C9 [0x01] GOTO 0x01F9
 50: 0x01CC [0x02] IF !(Work_Zone[9] == 8*) GOTO 0x01E8
 51: 0x01D4 [0x45] LOAD_SCHEDULED_TASK: Load scheduler "s085" with entities [LocalPlayer, LocalPlayer], work=[150*, 0*]
 52: 0x01E5 [0x01] GOTO 0x01F9
 53: 0x01E8 [0x45] LOAD_SCHEDULED_TASK: Load scheduler "s062" with entities [LocalPlayer, LocalPlayer], work=[150*, 0*]

SUBROUTINE_01F9:
 54: 0x01F9 [0x4A] LocalPlayer looks at Vuih Stecoppah (ID: 17801298/0x010FA052)
 55: 0x0202 [0x29] REQ_SET_WAIT(priority=0x08, entity_id=Vuih Stecoppah (ID: 17801298/0x010FA052), tag_num=0x09)
 56: 0x0209 [0x29] REQ_SET_WAIT(priority=0x0B, entity_id=Vuih Stecoppah (ID: 17801298/0x010FA052), tag_num=0x19)
 57: 0x0210 [0x29] REQ_SET_WAIT(priority=0x08, entity_id=Vuih Stecoppah (ID: 17801298/0x010FA052), tag_num=0x0A)
 58: 0x0217 [0x29] REQ_SET_WAIT(priority=0x08, entity_id=Vuih Stecoppah (ID: 17801298/0x010FA052), tag_num=0x0B)
 59: 0x021E [0x29] REQ_SET_WAIT(priority=0x08, entity_id=Vuih Stecoppah (ID: 17801298/0x010FA052), tag_num=0x0C)
 60: 0x0225 [0x02] IF !(Work_Zone[9] == 3*) GOTO 0x023F
 61: 0x022D [0x52] END_LOAD_SCHEDULER: End scheduler "s085" with entities [LocalPlayer, LocalPlayer], work=150*
 62: 0x023C [0x01] GOTO 0x029C
 63: 0x023F [0x02] IF !(Work_Zone[9] == 5*) GOTO 0x0259
 64: 0x0247 [0x52] END_LOAD_SCHEDULER: End scheduler "s082" with entities [LocalPlayer, LocalPlayer], work=150*
 65: 0x0256 [0x01] GOTO 0x029C
 66: 0x0259 [0x02] IF !(Work_Zone[9] == 6*) GOTO 0x0273
 67: 0x0261 [0x52] END_LOAD_SCHEDULER: End scheduler "s082" with entities [LocalPlayer, LocalPlayer], work=150*
 68: 0x0270 [0x01] GOTO 0x029C
 69: 0x0273 [0x02] IF !(Work_Zone[9] == 8*) GOTO 0x028D
 70: 0x027B [0x52] END_LOAD_SCHEDULER: End scheduler "s085" with entities [LocalPlayer, LocalPlayer], work=150*
 71: 0x028A [0x01] GOTO 0x029C
 72: 0x028D [0x52] END_LOAD_SCHEDULER: End scheduler "s062" with entities [LocalPlayer, LocalPlayer], work=150*

SUBROUTINE_029C:
 73: 0x029C [0x02] IF !(Work_Zone[9] == 5*) GOTO 0x02B8
 74: 0x02A4 [0x45] LOAD_SCHEDULED_TASK: Load scheduler "s083" with entities [LocalPlayer, LocalPlayer], work=[150*, 0*]
 75: 0x02B5 [0x01] GOTO 0x02E5
 76: 0x02B8 [0x02] IF !(Work_Zone[9] == 6*) GOTO 0x02D4
 77: 0x02C0 [0x45] LOAD_SCHEDULED_TASK: Load scheduler "s083" with entities [LocalPlayer, LocalPlayer], work=[150*, 0*]
 78: 0x02D1 [0x01] GOTO 0x02E5
 79: 0x02D4 [0x45] LOAD_SCHEDULED_TASK: Load scheduler "s063" with entities [LocalPlayer, LocalPlayer], work=[150*, 0*]

SUBROUTINE_02E5:
 80: 0x02E5 [0x79] Vuih Stecoppah (ID: 17801298/0x010FA052) looks at Lulupp (ID: 17801288/0x010FA048) (Basic look)
 81: 0x02EF [0x4A] Lulupp (ID: 17801288/0x010FA048) looks at Vuih Stecoppah (ID: 17801298/0x010FA052)
 82: 0x02F8 [0x29] REQ_SET_WAIT(priority=0x0B, entity_id=Vuih Stecoppah (ID: 17801298/0x010FA052), tag_num=0x1A)
 83: 0x02FF [0x02] IF !(Work_Zone[9] == 5*) GOTO 0x0319
 84: 0x0307 [0x52] END_LOAD_SCHEDULER: End scheduler "s083" with entities [LocalPlayer, LocalPlayer], work=150*
 85: 0x0316 [0x01] GOTO 0x0342
 86: 0x0319 [0x02] IF !(Work_Zone[9] == 6*) GOTO 0x0333
 87: 0x0321 [0x52] END_LOAD_SCHEDULER: End scheduler "s083" with entities [LocalPlayer, LocalPlayer], work=150*
 88: 0x0330 [0x01] GOTO 0x0342
 89: 0x0333 [0x52] END_LOAD_SCHEDULER: End scheduler "s063" with entities [LocalPlayer, LocalPlayer], work=150*

SUBROUTINE_0342:
 90: 0x0342 [0x45] LOAD_SCHEDULED_TASK: Load scheduler "s064" with entities [LocalPlayer, LocalPlayer], work=[150*, 0*]
 91: 0x0353 [0x4A] LocalPlayer looks at Lulupp (ID: 17801288/0x010FA048)
 92: 0x035C [0x79] LocalPlayer looks at Vuih Stecoppah (ID: 17801298/0x010FA052) (Basic look)
 93: 0x0366 [0x79] Vuih Stecoppah (ID: 17801298/0x010FA052) looks at LocalPlayer (Basic look)
 94: 0x0370 [0x29] REQ_SET_WAIT(priority=0x08, entity_id=Vuih Stecoppah (ID: 17801298/0x010FA052), tag_num=0x09)
 95: 0x0377 [0x29] REQ_SET_WAIT(priority=0x0B, entity_id=Vuih Stecoppah (ID: 17801298/0x010FA052), tag_num=0x1B)
 96: 0x037E [0x29] REQ_SET_WAIT(priority=0x08, entity_id=Vuih Stecoppah (ID: 17801298/0x010FA052), tag_num=0x0A)
 97: 0x0385 [0x29] REQ_SET_WAIT(priority=0x08, entity_id=Vuih Stecoppah (ID: 17801298/0x010FA052), tag_num=0x0B)
 98: 0x038C [0x29] REQ_SET_WAIT(priority=0x08, entity_id=Vuih Stecoppah (ID: 17801298/0x010FA052), tag_num=0x0C)
 99: 0x0393 [0x52] END_LOAD_SCHEDULER: End scheduler "s064" with entities [LocalPlayer, LocalPlayer], work=150*
100: 0x03A2 [0x45] LOAD_SCHEDULED_TASK: Load scheduler "ovl1" with entities [LocalPlayer, LocalPlayer], work=[200*, 0*]
101: 0x03B3 [0x45] LOAD_SCHEDULED_TASK: Load scheduler "s065" with entities [LocalPlayer, LocalPlayer], work=[150*, 0*]
102: 0x03C4 [0x4E] SET_ENTITY_HIDE_FLAG: Hide LocalPlayer
103: 0x03CA [0x4A] Vuih Stecoppah (ID: 17801298/0x010FA052) looks at LocalPlayer
104: 0x03D3 [0x7B] Vuih Stecoppah (ID: 17801298/0x010FA052) stops talking
105: 0x03D8 [0x29] REQ_SET_WAIT(priority=0x0B, entity_id=Vuih Stecoppah (ID: 17801298/0x010FA052), tag_num=0x1C)
106: 0x03DF [0x52] END_LOAD_SCHEDULER: End scheduler "s065" with entities [LocalPlayer, LocalPlayer], work=150*
107: 0x03EE [0x45] LOAD_SCHEDULED_TASK: Load scheduler "s066" with entities [LocalPlayer, LocalPlayer], work=[150*, 0*]
108: 0x03FF [0x4E] SET_ENTITY_HIDE_FLAG: Show LocalPlayer
109: 0x0405 [0x4A] Vuih Stecoppah (ID: 17801298/0x010FA052) looks at Dheo Nbolo (ID: 17801299/0x010FA053)
110: 0x040E [0x4A] Lulupp (ID: 17801288/0x010FA048) looks at LocalPlayer
111: 0x0417 [0x4B] UPDATE_ENTITY_YAW(entity=LocalPlayer, yaw=21.9°*)
112: 0x041E [0x79] LocalPlayer looks at Dheo Nbolo (ID: 17801299/0x010FA053) (Basic look)
113: 0x0428 [0x29] REQ_SET_WAIT(priority=0x0B, entity_id=Dheo Nbolo (ID: 17801299/0x010FA053), tag_num=0x08)
114: 0x042F [0x52] END_LOAD_SCHEDULER: End scheduler "s066" with entities [LocalPlayer, LocalPlayer], work=150*
115: 0x043E [0x45] LOAD_SCHEDULED_TASK: Load scheduler "s067" with entities [LocalPlayer, LocalPlayer], work=[150*, 0*]
116: 0x044F [0x29] REQ_SET_WAIT(priority=0x0B, entity_id=Vuih Stecoppah (ID: 17801298/0x010FA052), tag_num=0x1D)
117: 0x0456 [0x79] LocalPlayer looks at Vuih Stecoppah (ID: 17801298/0x010FA052) (Basic look)
118: 0x0460 [0x27] REQ_SET(priority=0x0B, entity_id=Vuih Stecoppah (ID: 17801298/0x010FA052), tag_num=0x15)
119: 0x0467 [0x45] LOAD_SCHEDULED_TASK: Load scheduler "fdo1" with entities [LocalPlayer, LocalPlayer], work=[200*, 0*]
120: 0x0478 [0x1C] WAIT(60* ticks)
121: 0x047B [0x2A] GET_REQ_LEVEL(level=11, entity_id=Vuih Stecoppah (ID: 17801298/0x010FA052))
122: 0x0481 [0x52] END_LOAD_SCHEDULER: End scheduler "s067" with entities [LocalPlayer, LocalPlayer], work=150*
123: 0x0490 [0x29] REQ_SET_WAIT(priority=0x08, entity_id=Vuih Stecoppah (ID: 17801298/0x010FA052), tag_num=0x13)
124: 0x0497 [0x4A] Vuih Stecoppah (ID: 17801298/0x010FA052) looks at Dheo Nbolo (ID: 17801299/0x010FA053)
125: 0x04A0 [0x4A] Dheo Nbolo (ID: 17801299/0x010FA053) looks at Vuih Stecoppah (ID: 17801298/0x010FA052)
126: 0x04A9 [0x6F] WAIT_FRAME_DELAY: Yield until WaitTime reaches zero
127: 0x04AA [0x76] CHECK_ENTITY_RENDER_FLAGS: Wait until Dheo Nbolo (ID: 17801299/0x010FA053) Render.Flags0 and Render.Flags3 conditions are met
128: 0x04AF [0x6F] WAIT_FRAME_DELAY: Yield until WaitTime reaches zero
129: 0x04B0 [0x76] CHECK_ENTITY_RENDER_FLAGS: Wait until Vuih Stecoppah (ID: 17801298/0x010FA052) Render.Flags0 and Render.Flags3 conditions are met
130: 0x04B5 [0x29] REQ_SET_WAIT(priority=0x0B, entity_id=LocalPlayer, tag_num=0x0F)
131: 0x04BC [0x37] UPDATE_EVENT_POSITION_AND_DIR: x=-27.134*, z=-5.751*, y=-2.499*, direction=246.1°*
132: 0x04C5 [0x45] LOAD_SCHEDULED_TASK: Load scheduler "s068" with entities [LocalPlayer, LocalPlayer], work=[150*, 0*]
133: 0x04D6 [0x45] LOAD_SCHEDULED_TASK: Load scheduler "fdi1" with entities [LocalPlayer, LocalPlayer], work=[200*, 0*]
134: 0x04E7 [0x29] REQ_SET_WAIT(priority=0x0B, entity_id=Dheo Nbolo (ID: 17801299/0x010FA053), tag_num=0x09)
135: 0x04EE [0x52] END_LOAD_SCHEDULER: End scheduler "s068" with entities [LocalPlayer, LocalPlayer], work=150*
136: 0x04FD [0x45] LOAD_SCHEDULED_TASK: Load scheduler "ovl1" with entities [LocalPlayer, LocalPlayer], work=[200*, 0*]
137: 0x050E [0x45] LOAD_SCHEDULED_TASK: Load scheduler "s070" with entities [LocalPlayer, LocalPlayer], work=[150*, 0*]
138: 0x051F [0x29] REQ_SET_WAIT(priority=0x0B, entity_id=Vuih Stecoppah (ID: 17801298/0x010FA052), tag_num=0x1E)
139: 0x0526 [0x79] LocalPlayer looks at Vuih Stecoppah (ID: 17801298/0x010FA052) (Basic look)
140: 0x0530 [0x27] REQ_SET(priority=0x0B, entity_id=Vuih Stecoppah (ID: 17801298/0x010FA052), tag_num=0x16)
141: 0x0537 [0x1C] WAIT(60* ticks)
142: 0x053A [0x52] END_LOAD_SCHEDULER: End scheduler "s070" with entities [LocalPlayer, LocalPlayer], work=150*
143: 0x0549 [0x27] REQ_SET(priority=0x0B, entity_id=Dheo Nbolo (ID: 17801299/0x010FA053), tag_num=0x07)
144: 0x0550 [0x2A] GET_REQ_LEVEL(level=11, entity_id=Vuih Stecoppah (ID: 17801298/0x010FA052))
145: 0x0556 [0x79] LocalPlayer looks at Vuih Stecoppah (ID: 17801298/0x010FA052) (Basic look)
146: 0x0560 [0x79] Vuih Stecoppah (ID: 17801298/0x010FA052) looks at LocalPlayer (Basic look)
147: 0x056A [0x29] REQ_SET_WAIT(priority=0x0B, entity_id=Vuih Stecoppah (ID: 17801298/0x010FA052), tag_num=0x1F)
148: 0x0571 [0x29] REQ_SET_WAIT(priority=0x08, entity_id=Vuih Stecoppah (ID: 17801298/0x010FA052), tag_num=0x09)
149: 0x0578 [0x2B] Vuih Stecoppah (ID: 17801298/0x010FA052) [10423*]:
    → "I'm Vuih Stecoppah. If you messed up the order, come back and see me. I'll see what I can do."
150: 0x057F [0x23] WAIT_FOR_DIALOG_INTERACTION
151: 0x0580 [0x29] REQ_SET_WAIT(priority=0x08, entity_id=Vuih Stecoppah (ID: 17801298/0x010FA052), tag_num=0x0A)
152: 0x0587 [0x29] REQ_SET_WAIT(priority=0x08, entity_id=Vuih Stecoppah (ID: 17801298/0x010FA052), tag_num=0x0B)
153: 0x058E [0x5D] SET_MUSIC_VOLUME(volume=0*, fade_time=200*)
154: 0x0593 [0x45] LOAD_SCHEDULED_TASK: Load scheduler "fdo1" with entities [LocalPlayer, LocalPlayer], work=[200*, 0*]
155: 0x05A4 [0x1C] WAIT(200* ticks)
156: 0x05A7 [0x29] REQ_SET_WAIT(priority=0x08, entity_id=Vuih Stecoppah (ID: 17801298/0x010FA052), tag_num=0x0C)
157: 0x05AE [0x2A] GET_REQ_LEVEL(level=11, entity_id=Dheo Nbolo (ID: 17801299/0x010FA053))
158: 0x05B4 [0x46] CAMERA_CONTROL: Restore default settings
159: 0x05B6 [0x5C] MUSIC_CONTROL: Set Idle (Day) music to song 135*
160: 0x05BA [0x5C] MUSIC_CONTROL: Set Idle (Night) music to song 135*
161: 0x05BE [0x5D] SET_MUSIC_VOLUME(volume=127*, fade_time=1*)
162: 0x05C3 [0x1C] WAIT(200* ticks)
163: 0x05C6 [0x45] LOAD_SCHEDULED_TASK: Load scheduler "fdi1" with entities [LocalPlayer, LocalPlayer], work=[200*, 0*]
164: 0x05D7 [0x01] GOTO 0x0628
165: 0x05DA [0x02] IF !(Work_Zone[0] == 1*) GOTO 0x0628
166: 0x05E2 [0x03] Work_Zone[1] = 2*
167: 0x05E7 [0x45] LOAD_SCHEDULED_TASK: Load scheduler "fdo1" with entities [LocalPlayer, LocalPlayer], work=[200*, 0*]
168: 0x05F8 [0x1C] WAIT(60* ticks)
169: 0x05FB [0x5D] SET_MUSIC_VOLUME(volume=127*, fade_time=200*)
170: 0x0600 [0x52] END_LOAD_SCHEDULER: End scheduler "s059" with entities [LocalPlayer, LocalPlayer], work=150*
171: 0x060F [0x46] CAMERA_CONTROL: Restore default settings
172: 0x0611 [0x1C] WAIT(200* ticks)
173: 0x0614 [0x45] LOAD_SCHEDULED_TASK: Load scheduler "fdi1" with entities [LocalPlayer, LocalPlayer], work=[200*, 0*]
174: 0x0625 [0x01] GOTO 0x0628

SUBROUTINE_0628:
175: 0x0628 [0x20] SET_CLI_EVENT_UC_FLAG: Unlock player control
176: 0x062A [0x21] END_EVENT
177: 0x062B [0x00] END_REQSTACK()
```

### Event 239

#### Metadata

| Field        | Value      |
|--------------|------------|
| Entrypoint   | 0x062C     |
| Data Size    | 1484 bytes |
| Instructions | 196        |

```
      00 01 02 03 04 05 06 07  08 09 0A 0B 0C 0D 0E 0F
      -- -- -- -- -- -- -- --  -- -- -- -- -- -- -- --
0620:                                      20 01 42 46               .BF
0630: 01 1E F0 FF FF 7F 5D 07  80 08 80 45 08 80 F0 FF  ......]....E....
0640: FF 7F F0 FF FF 7F 66 64  6F 31 07 80 1C 08 80 38  ......fdo1.....8
0650: 09 80 29 0B F0 FF FF 7F  0E 29 08 F0 FF FF 7F 05  ..)......)......
0660: 37 0A 80 0B 80 0C 80 0D  80 1E F0 FF FF 7F 4A F0  7.............J.
0670: FF FF 7F 48 A0 0F 01 6F  76 F0 FF FF 7F 6F 70 4E  ...H...ov....opN
0680: 00 52 A0 0F 01 80 52 A0  0F 01 4A 53 A0 0F 01 52  .R....R...JS...R
0690: A0 0F 01 45 0E 80 F0 FF  FF 7F F0 FF FF 7F 73 30  ...E..........s0
06A0: 35 39 07 80 45 08 80 F0  FF FF 7F F0 FF FF 7F 66  59..E..........f
06B0: 64 69 31 07 80 1D 0F 80  23 24 10 80 07 80 07 80  di1.....#$......
06C0: 25 02 00 10 07 80 00 A6  0B 5C 00 12 80 5C 01 12  %........\...\..
06D0: 80 5D 13 80 11 80 03 01  10 11 80 52 0E 80 F0 FF  .].........R....
06E0: FF 7F F0 FF FF 7F 73 30  35 39 27 0B 52 A0 0F 01  ......s059'.R...
06F0: 14 1C 14 80 4A 48 A0 0F  01 52 A0 0F 01 27 0B 53  ....JH...R...'.S
0700: A0 0F 01 06 2B 52 A0 0F  01 21 80 23 2A 0B 52 A0  ....+R...!.#*.R.
0710: 0F 01 2B 52 A0 0F 01 22  80 23 2A 0B 53 A0 0F 01  ..+R...".#*.S...
0720: 02 09 10 09 80 00 3C 07  45 0E 80 F0 FF FF 7F F0  ......<.E.......
0730: FF FF 7F 73 30 38 35 07  80 01 A1 07 02 09 10 16  ...s085.........
0740: 80 00 58 07 45 0E 80 F0  FF FF 7F F0 FF FF 7F 73  ..X.E..........s
0750: 30 38 32 07 80 01 A1 07  02 09 10 17 80 00 74 07  082...........t.
0760: 45 0E 80 F0 FF FF 7F F0  FF FF 7F 73 30 38 32 07  E..........s082.
0770: 80 01 A1 07 02 09 10 18  80 00 90 07 45 0E 80 F0  ............E...
0780: FF FF 7F F0 FF FF 7F 73  30 38 35 07 80 01 A1 07  .......s085.....
0790: 45 0E 80 F0 FF FF 7F F0  FF FF 7F 73 30 36 32 07  E..........s062.
07A0: 80 4A F0 FF FF 7F 52 A0  0F 01 79 00 52 A0 0F 01  .J....R...y.R...
07B0: F0 FF FF 7F 29 08 52 A0  0F 01 09 29 0B 52 A0 0F  ....).R....).R..
07C0: 01 22 29 08 52 A0 0F 01  0A 29 08 52 A0 0F 01 0B  .").R....).R....
07D0: 29 08 52 A0 0F 01 0C 02  09 10 09 80 00 F1 07 52  ).R............R
07E0: 0E 80 F0 FF FF 7F F0 FF  FF 7F 73 30 38 35 01 4E  ..........s085.N
07F0: 08 02 09 10 16 80 00 0B  08 52 0E 80 F0 FF FF 7F  .........R......
0800: F0 FF FF 7F 73 30 38 32  01 4E 08 02 09 10 17 80  ....s082.N......
0810: 00 25 08 52 0E 80 F0 FF  FF 7F F0 FF FF 7F 73 30  .%.R..........s0
0820: 38 32 01 4E 08 02 09 10  18 80 00 3F 08 52 0E 80  82.N.......?.R..
0830: F0 FF FF 7F F0 FF FF 7F  73 30 38 35 01 4E 08 52  ........s085.N.R
0840: 0E 80 F0 FF FF 7F F0 FF  FF 7F 73 30 36 32 02 09  ..........s062..
0850: 10 16 80 00 6A 08 45 0E  80 F0 FF FF 7F F0 FF FF  ....j.E.........
0860: 7F 73 30 38 33 07 80 01  97 08 02 09 10 17 80 00  .s083...........
0870: 86 08 45 0E 80 F0 FF FF  7F F0 FF FF 7F 73 30 38  ..E..........s08
0880: 33 07 80 01 97 08 45 0E  80 F0 FF FF 7F F0 FF FF  3.....E.........
0890: 7F 73 30 36 33 07 80 4A  48 A0 0F 01 52 A0 0F 01  .s063..JH...R...
08A0: 2B 52 A0 0F 01 23 80 23  02 09 10 16 80 00 C2 08  +R...#.#........
08B0: 52 0E 80 F0 FF FF 7F F0  FF FF 7F 73 30 38 33 01  R..........s083.
08C0: EB 08 02 09 10 17 80 00  DC 08 52 0E 80 F0 FF FF  ..........R.....
08D0: 7F F0 FF FF 7F 73 30 38  33 01 EB 08 52 0E 80 F0  .....s083...R...
08E0: FF FF 7F F0 FF FF 7F 73  30 36 33 45 0E 80 F0 FF  .......s063E....
08F0: FF 7F F0 FF FF 7F 73 30  36 34 07 80 4A F0 FF FF  ......s064..J...
0900: 7F 48 A0 0F 01 79 00 F0  FF FF 7F 52 A0 0F 01 79  .H...y.....R...y
0910: 00 52 A0 0F 01 F0 FF FF  7F 29 08 52 A0 0F 01 09  .R.......).R....
0920: 02 04 10 07 80 80 38 09  03 05 10 24 80 2B 52 A0  ......8....$.+R.
0930: 0F 01 25 80 23 01 07 0A  02 04 10 11 80 80 4F 09  ..%.#.........O.
0940: 03 05 10 26 80 29 0B 52  A0 0F 01 23 01 07 0A 02  ...&.).R...#....
0950: 04 10 20 80 80 66 09 03  05 10 27 80 29 0B 52 A0  .. ..f....'.).R.
0960: 0F 01 24 01 07 0A 02 04  10 09 80 80 7D 09 03 05  ..$.........}...
0970: 10 28 80 29 0B 52 A0 0F  01 25 01 07 0A 02 04 10  .(.).R...%......
0980: 29 80 80 94 09 03 05 10  2A 80 29 0B 52 A0 0F 01  ).......*.).R...
0990: 26 01 07 0A 02 04 10 16  80 80 AB 09 03 05 10 2B  &..............+
09A0: 80 29 0B 52 A0 0F 01 27  01 07 0A 02 04 10 17 80  .).R...'........
09B0: 80 C2 09 03 05 10 2C 80  29 0B 52 A0 0F 01 28 01  ......,.).R...(.
09C0: 07 0A 02 04 10 2D 80 80  D9 09 03 05 10 2E 80 29  .....-.........)
09D0: 0B 52 A0 0F 01 29 01 07  0A 02 04 10 18 80 80 F0  .R...)..........
09E0: 09 03 05 10 2F 80 29 0B  52 A0 0F 01 2A 01 07 0A  ..../.).R...*...
09F0: 02 04 10 30 80 80 07 0A  03 05 10 31 80 29 0B 52  ...0.......1.).R
0A00: A0 0F 01 2B 01 07 0A 29  08 52 A0 0F 01 0A 29 08  ...+...).R....).
0A10: 52 A0 0F 01 0B 29 08 52  A0 0F 01 0C 52 0E 80 F0  R....).R....R...
0A20: FF FF 7F F0 FF FF 7F 73  30 36 34 45 08 80 F0 FF  .......s064E....
0A30: FF 7F F0 FF FF 7F 6F 76  6C 31 07 80 02 09 10 09  ......ovl1......
0A40: 80 00 58 0A 45 0E 80 F0  FF FF 7F F0 FF FF 7F 73  ..X.E..........s
0A50: 31 31 33 07 80 01 85 0A  02 09 10 18 80 00 74 0A  113...........t.
0A60: 45 0E 80 F0 FF FF 7F F0  FF FF 7F 73 31 31 33 07  E..........s113.
0A70: 80 01 85 0A 45 0E 80 F0  FF FF 7F F0 FF FF 7F 73  ....E..........s
0A80: 30 36 35 07 80 4A 52 A0  0F 01 F0 FF FF 7F 29 0B  065..JR.......).
0A90: 52 A0 0F 01 1B 02 09 10  09 80 00 AF 0A 52 0E 80  R............R..
0AA0: F0 FF FF 7F F0 FF FF 7F  73 31 31 33 01 D8 0A 02  ........s113....
0AB0: 09 10 18 80 00 C9 0A 52  0E 80 F0 FF FF 7F F0 FF  .......R........
0AC0: FF 7F 73 31 31 33 01 D8  0A 52 0E 80 F0 FF FF 7F  ..s113...R......
0AD0: F0 FF FF 7F 73 30 36 35  45 0E 80 F0 FF FF 7F F0  ....s065E.......
0AE0: FF FF 7F 73 30 36 36 07  80 4A 52 A0 0F 01 53 A0  ...s066..JR...S.
0AF0: 0F 01 4A 48 A0 0F 01 F0  FF FF 7F 4B F0 FF FF 7F  ..JH.......K....
0B00: 19 80 79 00 F0 FF FF 7F  53 A0 0F 01 29 0B 53 A0  ..y.....S...).S.
0B10: 0F 01 08 52 0E 80 F0 FF  FF 7F F0 FF FF 7F 73 30  ...R..........s0
0B20: 36 36 45 0E 80 F0 FF FF  7F F0 FF FF 7F 73 30 36  66E..........s06
0B30: 37 07 80 29 0B 52 A0 0F  01 1D 79 00 F0 FF FF 7F  7..).R....y.....
0B40: 52 A0 0F 01 27 0B 52 A0  0F 01 15 5D 07 80 08 80  R...'.R....]....
0B50: 45 08 80 F0 FF FF 7F F0  FF FF 7F 66 64 6F 31 07  E..........fdo1.
0B60: 80 1C 14 80 2A 0B 52 A0  0F 01 52 0E 80 F0 FF FF  ....*.R...R.....
0B70: 7F F0 FF FF 7F 73 30 36  37 29 08 52 A0 0F 01 13  .....s067).R....
0B80: 46 00 5C 00 1F 80 5C 01  1F 80 5D 13 80 11 80 1C  F.\...\...].....
0B90: 08 80 45 08 80 F0 FF FF  7F F0 FF FF 7F 66 64 69  ..E..........fdi
0BA0: 31 07 80 01 F4 0B 02 00  10 11 80 00 F4 0B 03 01  1...............
0BB0: 10 20 80 45 08 80 F0 FF  FF 7F F0 FF FF 7F 66 64  . .E..........fd
0BC0: 6F 31 07 80 1C 14 80 52  0E 80 F0 FF FF 7F F0 FF  o1.....R........
0BD0: FF 7F 73 30 35 39 46 00  5D 13 80 32 80 1C 08 80  ..s059F.]..2....
0BE0: 45 08 80 F0 FF FF 7F F0  FF FF 7F 66 64 69 31 07  E..........fdi1.
0BF0: 80 01 F4 0B 20 00 21 00                           .... .!.        
```

#### Opcodes

```
  0: 0x062C [0x20] SET_CLI_EVENT_UC_FLAG: Lock player control
  1: 0x062E [0x42] SET_CLI_EVENT_CANCEL_DATA()
  2: 0x062F [0x46] CAMERA_CONTROL: Disable user control
  3: 0x0631 [0x1E] EventEntity looks at LocalPlayer and starts talking
  4: 0x0636 [0x5D] SET_MUSIC_VOLUME(volume=0*, fade_time=200*)
  5: 0x063B [0x45] LOAD_SCHEDULED_TASK: Load scheduler "fdo1" with entities [LocalPlayer, LocalPlayer], work=[200*, 0*]
  6: 0x064C [0x1C] WAIT(200* ticks)
  7: 0x064F [0x38] SET_CLIENT_EVENT_MODE(mode=3*)
  8: 0x0652 [0x29] REQ_SET_WAIT(priority=0x0B, entity_id=LocalPlayer, tag_num=0x0E)
  9: 0x0659 [0x29] REQ_SET_WAIT(priority=0x08, entity_id=LocalPlayer, tag_num=0x05)
 10: 0x0660 [0x37] UPDATE_EVENT_POSITION_AND_DIR: x=-27.100*, z=-10.173*, y=-2.500*, direction=128.3°*
 11: 0x0669 [0x1E] EventEntity looks at LocalPlayer and starts talking
 12: 0x066E [0x4A] LocalPlayer looks at Lulupp (ID: 17801288/0x010FA048)
 13: 0x0677 [0x6F] WAIT_FRAME_DELAY: Yield until WaitTime reaches zero
 14: 0x0678 [0x76] CHECK_ENTITY_RENDER_FLAGS: Wait until LocalPlayer Render.Flags0 and Render.Flags3 conditions are met
 15: 0x067D [0x6F] WAIT_FRAME_DELAY: Yield until WaitTime reaches zero
 16: 0x067E [0x70] WAIT_ENTITY_RENDER_FLAG: Wait while EventEntity->Render.Flags3 bit 2 is set (cancel turn if not)
 17: 0x067F [0x4E] SET_ENTITY_HIDE_FLAG: Show Vuih Stecoppah (ID: 17801298/0x010FA052)
 18: 0x0685 [0x80] LOAD_WAIT(entity=Vuih Stecoppah (ID: 17801298/0x010FA052))
 19: 0x068A [0x4A] Dheo Nbolo (ID: 17801299/0x010FA053) looks at Vuih Stecoppah (ID: 17801298/0x010FA052)
 20: 0x0693 [0x45] LOAD_SCHEDULED_TASK: Load scheduler "s059" with entities [LocalPlayer, LocalPlayer], work=[150*, 0*]
 21: 0x06A4 [0x45] LOAD_SCHEDULED_TASK: Load scheduler "fdi1" with entities [LocalPlayer, LocalPlayer], work=[200*, 0*]
 22: 0x06B5 [0x1D] PRINT_EVENT_MESSAGE(message_id=10396*)
    → "Opo opo-opo! Opo-opoh! Opopo! Pohppo-opo!"
 23: 0x06B8 [0x23] WAIT_FOR_DIALOG_INTERACTION
 24: 0x06B9 [0x24] CREATE_DIALOG(message_id=10397*, default_option=0*, option_flags=0*)
    → "Pohppo-opo! [Opo?/...]"
 25: 0x06C0 [0x25] WAIT_DIALOG_SELECT()
 26: 0x06C1 [0x02] IF !(Work_Zone[0] == 0*) GOTO 0x0BA6
 27: 0x06C9 [0x5C] MUSIC_CONTROL: Set Idle (Day) music to song 163*
 28: 0x06CD [0x5C] MUSIC_CONTROL: Set Idle (Night) music to song 163*
 29: 0x06D1 [0x5D] SET_MUSIC_VOLUME(volume=127*, fade_time=1*)
 30: 0x06D6 [0x03] Work_Zone[1] = 1*
 31: 0x06DB [0x52] END_LOAD_SCHEDULER: End scheduler "s059" with entities [LocalPlayer, LocalPlayer], work=150*
 32: 0x06EA [0x27] REQ_SET(priority=0x0B, entity_id=Vuih Stecoppah (ID: 17801298/0x010FA052), tag_num=0x14)
 33: 0x06F1 [0x1C] WAIT(60* ticks)
 34: 0x06F4 [0x4A] Lulupp (ID: 17801288/0x010FA048) looks at Vuih Stecoppah (ID: 17801298/0x010FA052)
 35: 0x06FD [0x27] REQ_SET(priority=0x0B, entity_id=Dheo Nbolo (ID: 17801299/0x010FA053), tag_num=0x06)
 36: 0x0704 [0x2B] Vuih Stecoppah (ID: 17801298/0x010FA052) [10426*]:
    → "How are you doing? Do you remember me?"
 37: 0x070B [0x23] WAIT_FOR_DIALOG_INTERACTION
 38: 0x070C [0x2A] GET_REQ_LEVEL(level=11, entity_id=Vuih Stecoppah (ID: 17801298/0x010FA052))
 39: 0x0712 [0x2B] Vuih Stecoppah (ID: 17801298/0x010FA052) [10427*]:
    → "I heard from the Opo-opos that you got the order wrrrong and that they didn't make you their king."
 40: 0x0719 [0x23] WAIT_FOR_DIALOG_INTERACTION
 41: 0x071A [0x2A] GET_REQ_LEVEL(level=11, entity_id=Dheo Nbolo (ID: 17801299/0x010FA053))
 42: 0x0720 [0x02] IF !(Work_Zone[9] == 3*) GOTO 0x073C
 43: 0x0728 [0x45] LOAD_SCHEDULED_TASK: Load scheduler "s085" with entities [LocalPlayer, LocalPlayer], work=[150*, 0*]
 44: 0x0739 [0x01] GOTO 0x07A1
 45: 0x073C [0x02] IF !(Work_Zone[9] == 5*) GOTO 0x0758
 46: 0x0744 [0x45] LOAD_SCHEDULED_TASK: Load scheduler "s082" with entities [LocalPlayer, LocalPlayer], work=[150*, 0*]
 47: 0x0755 [0x01] GOTO 0x07A1
 48: 0x0758 [0x02] IF !(Work_Zone[9] == 6*) GOTO 0x0774
 49: 0x0760 [0x45] LOAD_SCHEDULED_TASK: Load scheduler "s082" with entities [LocalPlayer, LocalPlayer], work=[150*, 0*]
 50: 0x0771 [0x01] GOTO 0x07A1
 51: 0x0774 [0x02] IF !(Work_Zone[9] == 8*) GOTO 0x0790
 52: 0x077C [0x45] LOAD_SCHEDULED_TASK: Load scheduler "s085" with entities [LocalPlayer, LocalPlayer], work=[150*, 0*]
 53: 0x078D [0x01] GOTO 0x07A1
 54: 0x0790 [0x45] LOAD_SCHEDULED_TASK: Load scheduler "s062" with entities [LocalPlayer, LocalPlayer], work=[150*, 0*]

SUBROUTINE_07A1:
 55: 0x07A1 [0x4A] LocalPlayer looks at Vuih Stecoppah (ID: 17801298/0x010FA052)
 56: 0x07AA [0x79] Vuih Stecoppah (ID: 17801298/0x010FA052) looks at LocalPlayer (Basic look)
 57: 0x07B4 [0x29] REQ_SET_WAIT(priority=0x08, entity_id=Vuih Stecoppah (ID: 17801298/0x010FA052), tag_num=0x09)
 58: 0x07BB [0x29] REQ_SET_WAIT(priority=0x0B, entity_id=Vuih Stecoppah (ID: 17801298/0x010FA052), tag_num=0x22)
 59: 0x07C2 [0x29] REQ_SET_WAIT(priority=0x08, entity_id=Vuih Stecoppah (ID: 17801298/0x010FA052), tag_num=0x0A)
 60: 0x07C9 [0x29] REQ_SET_WAIT(priority=0x08, entity_id=Vuih Stecoppah (ID: 17801298/0x010FA052), tag_num=0x0B)
 61: 0x07D0 [0x29] REQ_SET_WAIT(priority=0x08, entity_id=Vuih Stecoppah (ID: 17801298/0x010FA052), tag_num=0x0C)
 62: 0x07D7 [0x02] IF !(Work_Zone[9] == 3*) GOTO 0x07F1
 63: 0x07DF [0x52] END_LOAD_SCHEDULER: End scheduler "s085" with entities [LocalPlayer, LocalPlayer], work=150*
 64: 0x07EE [0x01] GOTO 0x084E
 65: 0x07F1 [0x02] IF !(Work_Zone[9] == 5*) GOTO 0x080B
 66: 0x07F9 [0x52] END_LOAD_SCHEDULER: End scheduler "s082" with entities [LocalPlayer, LocalPlayer], work=150*
 67: 0x0808 [0x01] GOTO 0x084E
 68: 0x080B [0x02] IF !(Work_Zone[9] == 6*) GOTO 0x0825
 69: 0x0813 [0x52] END_LOAD_SCHEDULER: End scheduler "s082" with entities [LocalPlayer, LocalPlayer], work=150*
 70: 0x0822 [0x01] GOTO 0x084E
 71: 0x0825 [0x02] IF !(Work_Zone[9] == 8*) GOTO 0x083F
 72: 0x082D [0x52] END_LOAD_SCHEDULER: End scheduler "s085" with entities [LocalPlayer, LocalPlayer], work=150*
 73: 0x083C [0x01] GOTO 0x084E
 74: 0x083F [0x52] END_LOAD_SCHEDULER: End scheduler "s062" with entities [LocalPlayer, LocalPlayer], work=150*

SUBROUTINE_084E:
 75: 0x084E [0x02] IF !(Work_Zone[9] == 5*) GOTO 0x086A
 76: 0x0856 [0x45] LOAD_SCHEDULED_TASK: Load scheduler "s083" with entities [LocalPlayer, LocalPlayer], work=[150*, 0*]
 77: 0x0867 [0x01] GOTO 0x0897
 78: 0x086A [0x02] IF !(Work_Zone[9] == 6*) GOTO 0x0886
 79: 0x0872 [0x45] LOAD_SCHEDULED_TASK: Load scheduler "s083" with entities [LocalPlayer, LocalPlayer], work=[150*, 0*]
 80: 0x0883 [0x01] GOTO 0x0897
 81: 0x0886 [0x45] LOAD_SCHEDULED_TASK: Load scheduler "s063" with entities [LocalPlayer, LocalPlayer], work=[150*, 0*]

SUBROUTINE_0897:
 82: 0x0897 [0x4A] Lulupp (ID: 17801288/0x010FA048) looks at Vuih Stecoppah (ID: 17801298/0x010FA052)
 83: 0x08A0 [0x2B] Vuih Stecoppah (ID: 17801298/0x010FA052) [10429*]:
    → "Their language is pretty harrrd, but you look fairrrly smart, so I'll teach you what I know."
 84: 0x08A7 [0x23] WAIT_FOR_DIALOG_INTERACTION
 85: 0x08A8 [0x02] IF !(Work_Zone[9] == 5*) GOTO 0x08C2
 86: 0x08B0 [0x52] END_LOAD_SCHEDULER: End scheduler "s083" with entities [LocalPlayer, LocalPlayer], work=150*
 87: 0x08BF [0x01] GOTO 0x08EB
 88: 0x08C2 [0x02] IF !(Work_Zone[9] == 6*) GOTO 0x08DC
 89: 0x08CA [0x52] END_LOAD_SCHEDULER: End scheduler "s083" with entities [LocalPlayer, LocalPlayer], work=150*
 90: 0x08D9 [0x01] GOTO 0x08EB
 91: 0x08DC [0x52] END_LOAD_SCHEDULER: End scheduler "s063" with entities [LocalPlayer, LocalPlayer], work=150*

SUBROUTINE_08EB:
 92: 0x08EB [0x45] LOAD_SCHEDULED_TASK: Load scheduler "s064" with entities [LocalPlayer, LocalPlayer], work=[150*, 0*]
 93: 0x08FC [0x4A] LocalPlayer looks at Lulupp (ID: 17801288/0x010FA048)
 94: 0x0905 [0x79] LocalPlayer looks at Vuih Stecoppah (ID: 17801298/0x010FA052) (Basic look)
 95: 0x090F [0x79] Vuih Stecoppah (ID: 17801298/0x010FA052) looks at LocalPlayer (Basic look)
 96: 0x0919 [0x29] REQ_SET_WAIT(priority=0x08, entity_id=Vuih Stecoppah (ID: 17801298/0x010FA052), tag_num=0x09)
 97: 0x0920 [0x02] IF !(Work_Zone[4] == 0*) GOTO 0x0938
 98: 0x0928 [0x03] Work_Zone[5] = 483*
 99: 0x092D [0x2B] Vuih Stecoppah (ID: 17801298/0x010FA052) [10430*]:
    → "Listen! "Opoppo!" means $3."
100: 0x0934 [0x23] WAIT_FOR_DIALOG_INTERACTION
101: 0x0935 [0x01] GOTO 0x0A07
102: 0x0938 [0x02] IF !(Work_Zone[4] == 1*) GOTO 0x094F
103: 0x0940 [0x03] Work_Zone[5] = 22*
104: 0x0945 [0x29] REQ_SET_WAIT(priority=0x0B, entity_id=Vuih Stecoppah (ID: 17801298/0x010FA052), tag_num=0x23)
105: 0x094C [0x01] GOTO 0x0A07
106: 0x094F [0x02] IF !(Work_Zone[4] == 2*) GOTO 0x0966
107: 0x0957 [0x03] Work_Zone[5] = 1008*
108: 0x095C [0x29] REQ_SET_WAIT(priority=0x0B, entity_id=Vuih Stecoppah (ID: 17801298/0x010FA052), tag_num=0x24)
109: 0x0963 [0x01] GOTO 0x0A07
110: 0x0966 [0x02] IF !(Work_Zone[4] == 3*) GOTO 0x097D
111: 0x096E [0x03] Work_Zone[5] = 1157*
112: 0x0973 [0x29] REQ_SET_WAIT(priority=0x0B, entity_id=Vuih Stecoppah (ID: 17801298/0x010FA052), tag_num=0x25)
113: 0x097A [0x01] GOTO 0x0A07
114: 0x097D [0x02] IF !(Work_Zone[4] == 4*) GOTO 0x0994
115: 0x0985 [0x03] Work_Zone[5] = 1158*
116: 0x098A [0x29] REQ_SET_WAIT(priority=0x0B, entity_id=Vuih Stecoppah (ID: 17801298/0x010FA052), tag_num=0x26)
117: 0x0991 [0x01] GOTO 0x0A07
118: 0x0994 [0x02] IF !(Work_Zone[4] == 5*) GOTO 0x09AB
119: 0x099C [0x03] Work_Zone[5] = 904*
120: 0x09A1 [0x29] REQ_SET_WAIT(priority=0x0B, entity_id=Vuih Stecoppah (ID: 17801298/0x010FA052), tag_num=0x27)
121: 0x09A8 [0x01] GOTO 0x0A07
122: 0x09AB [0x02] IF !(Work_Zone[4] == 6*) GOTO 0x09C2
123: 0x09B3 [0x03] Work_Zone[5] = 4599*
124: 0x09B8 [0x29] REQ_SET_WAIT(priority=0x0B, entity_id=Vuih Stecoppah (ID: 17801298/0x010FA052), tag_num=0x28)
125: 0x09BF [0x01] GOTO 0x0A07
126: 0x09C2 [0x02] IF !(Work_Zone[4] == 7*) GOTO 0x09D9
127: 0x09CA [0x03] Work_Zone[5] = 905*
128: 0x09CF [0x29] REQ_SET_WAIT(priority=0x0B, entity_id=Vuih Stecoppah (ID: 17801298/0x010FA052), tag_num=0x29)
129: 0x09D6 [0x01] GOTO 0x0A07
130: 0x09D9 [0x02] IF !(Work_Zone[4] == 8*) GOTO 0x09F0
131: 0x09E1 [0x03] Work_Zone[5] = 1147*
132: 0x09E6 [0x29] REQ_SET_WAIT(priority=0x0B, entity_id=Vuih Stecoppah (ID: 17801298/0x010FA052), tag_num=0x2A)
133: 0x09ED [0x01] GOTO 0x0A07
134: 0x09F0 [0x02] IF !(Work_Zone[4] == 9*) GOTO 0x0A07
135: 0x09F8 [0x03] Work_Zone[5] = 4600*
136: 0x09FD [0x29] REQ_SET_WAIT(priority=0x0B, entity_id=Vuih Stecoppah (ID: 17801298/0x010FA052), tag_num=0x2B)
137: 0x0A04 [0x01] GOTO 0x0A07

SUBROUTINE_0A07:
138: 0x0A07 [0x29] REQ_SET_WAIT(priority=0x08, entity_id=Vuih Stecoppah (ID: 17801298/0x010FA052), tag_num=0x0A)
139: 0x0A0E [0x29] REQ_SET_WAIT(priority=0x08, entity_id=Vuih Stecoppah (ID: 17801298/0x010FA052), tag_num=0x0B)
140: 0x0A15 [0x29] REQ_SET_WAIT(priority=0x08, entity_id=Vuih Stecoppah (ID: 17801298/0x010FA052), tag_num=0x0C)
141: 0x0A1C [0x52] END_LOAD_SCHEDULER: End scheduler "s064" with entities [LocalPlayer, LocalPlayer], work=150*
142: 0x0A2B [0x45] LOAD_SCHEDULED_TASK: Load scheduler "ovl1" with entities [LocalPlayer, LocalPlayer], work=[200*, 0*]
143: 0x0A3C [0x02] IF !(Work_Zone[9] == 3*) GOTO 0x0A58
144: 0x0A44 [0x45] LOAD_SCHEDULED_TASK: Load scheduler "s113" with entities [LocalPlayer, LocalPlayer], work=[150*, 0*]
145: 0x0A55 [0x01] GOTO 0x0A85
146: 0x0A58 [0x02] IF !(Work_Zone[9] == 8*) GOTO 0x0A74
147: 0x0A60 [0x45] LOAD_SCHEDULED_TASK: Load scheduler "s113" with entities [LocalPlayer, LocalPlayer], work=[150*, 0*]
148: 0x0A71 [0x01] GOTO 0x0A85
149: 0x0A74 [0x45] LOAD_SCHEDULED_TASK: Load scheduler "s065" with entities [LocalPlayer, LocalPlayer], work=[150*, 0*]

SUBROUTINE_0A85:
150: 0x0A85 [0x4A] Vuih Stecoppah (ID: 17801298/0x010FA052) looks at LocalPlayer
151: 0x0A8E [0x29] REQ_SET_WAIT(priority=0x0B, entity_id=Vuih Stecoppah (ID: 17801298/0x010FA052), tag_num=0x1B)
152: 0x0A95 [0x02] IF !(Work_Zone[9] == 3*) GOTO 0x0AAF
153: 0x0A9D [0x52] END_LOAD_SCHEDULER: End scheduler "s113" with entities [LocalPlayer, LocalPlayer], work=150*
154: 0x0AAC [0x01] GOTO 0x0AD8
155: 0x0AAF [0x02] IF !(Work_Zone[9] == 8*) GOTO 0x0AC9
156: 0x0AB7 [0x52] END_LOAD_SCHEDULER: End scheduler "s113" with entities [LocalPlayer, LocalPlayer], work=150*
157: 0x0AC6 [0x01] GOTO 0x0AD8
158: 0x0AC9 [0x52] END_LOAD_SCHEDULER: End scheduler "s065" with entities [LocalPlayer, LocalPlayer], work=150*

SUBROUTINE_0AD8:
159: 0x0AD8 [0x45] LOAD_SCHEDULED_TASK: Load scheduler "s066" with entities [LocalPlayer, LocalPlayer], work=[150*, 0*]
160: 0x0AE9 [0x4A] Vuih Stecoppah (ID: 17801298/0x010FA052) looks at Dheo Nbolo (ID: 17801299/0x010FA053)
161: 0x0AF2 [0x4A] Lulupp (ID: 17801288/0x010FA048) looks at LocalPlayer
162: 0x0AFB [0x4B] UPDATE_ENTITY_YAW(entity=LocalPlayer, yaw=21.9°*)
163: 0x0B02 [0x79] LocalPlayer looks at Dheo Nbolo (ID: 17801299/0x010FA053) (Basic look)
164: 0x0B0C [0x29] REQ_SET_WAIT(priority=0x0B, entity_id=Dheo Nbolo (ID: 17801299/0x010FA053), tag_num=0x08)
165: 0x0B13 [0x52] END_LOAD_SCHEDULER: End scheduler "s066" with entities [LocalPlayer, LocalPlayer], work=150*
166: 0x0B22 [0x45] LOAD_SCHEDULED_TASK: Load scheduler "s067" with entities [LocalPlayer, LocalPlayer], work=[150*, 0*]
167: 0x0B33 [0x29] REQ_SET_WAIT(priority=0x0B, entity_id=Vuih Stecoppah (ID: 17801298/0x010FA052), tag_num=0x1D)
168: 0x0B3A [0x79] LocalPlayer looks at Vuih Stecoppah (ID: 17801298/0x010FA052) (Basic look)
169: 0x0B44 [0x27] REQ_SET(priority=0x0B, entity_id=Vuih Stecoppah (ID: 17801298/0x010FA052), tag_num=0x15)
170: 0x0B4B [0x5D] SET_MUSIC_VOLUME(volume=0*, fade_time=200*)
171: 0x0B50 [0x45] LOAD_SCHEDULED_TASK: Load scheduler "fdo1" with entities [LocalPlayer, LocalPlayer], work=[200*, 0*]
172: 0x0B61 [0x1C] WAIT(60* ticks)
173: 0x0B64 [0x2A] GET_REQ_LEVEL(level=11, entity_id=Vuih Stecoppah (ID: 17801298/0x010FA052))
174: 0x0B6A [0x52] END_LOAD_SCHEDULER: End scheduler "s067" with entities [LocalPlayer, LocalPlayer], work=150*
175: 0x0B79 [0x29] REQ_SET_WAIT(priority=0x08, entity_id=Vuih Stecoppah (ID: 17801298/0x010FA052), tag_num=0x13)
176: 0x0B80 [0x46] CAMERA_CONTROL: Restore default settings
177: 0x0B82 [0x5C] MUSIC_CONTROL: Set Idle (Day) music to song 135*
178: 0x0B86 [0x5C] MUSIC_CONTROL: Set Idle (Night) music to song 135*
179: 0x0B8A [0x5D] SET_MUSIC_VOLUME(volume=127*, fade_time=1*)
180: 0x0B8F [0x1C] WAIT(200* ticks)
181: 0x0B92 [0x45] LOAD_SCHEDULED_TASK: Load scheduler "fdi1" with entities [LocalPlayer, LocalPlayer], work=[200*, 0*]
182: 0x0BA3 [0x01] GOTO 0x0BF4
183: 0x0BA6 [0x02] IF !(Work_Zone[0] == 1*) GOTO 0x0BF4
184: 0x0BAE [0x03] Work_Zone[1] = 2*
185: 0x0BB3 [0x45] LOAD_SCHEDULED_TASK: Load scheduler "fdo1" with entities [LocalPlayer, LocalPlayer], work=[200*, 0*]
186: 0x0BC4 [0x1C] WAIT(60* ticks)
187: 0x0BC7 [0x52] END_LOAD_SCHEDULER: End scheduler "s059" with entities [LocalPlayer, LocalPlayer], work=150*
188: 0x0BD6 [0x46] CAMERA_CONTROL: Restore default settings
189: 0x0BD8 [0x5D] SET_MUSIC_VOLUME(volume=127*, fade_time=20*)
190: 0x0BDD [0x1C] WAIT(200* ticks)
191: 0x0BE0 [0x45] LOAD_SCHEDULED_TASK: Load scheduler "fdi1" with entities [LocalPlayer, LocalPlayer], work=[200*, 0*]
192: 0x0BF1 [0x01] GOTO 0x0BF4

SUBROUTINE_0BF4:
193: 0x0BF4 [0x20] SET_CLI_EVENT_UC_FLAG: Unlock player control
194: 0x0BF6 [0x21] END_EVENT
195: 0x0BF7 [0x00] END_REQSTACK()
```

### Event 241

#### Metadata

| Field        | Value    |
|--------------|----------|
| Entrypoint   | 0x0BF8   |
| Data Size    | 12 bytes |
| Instructions | 3        |

```
      00 01 02 03 04 05 06 07  08 09 0A 0B 0C 0D 0E 0F
      -- -- -- -- -- -- -- --  -- -- -- -- -- -- -- --
0BF0:                          22 01 37 33 80 34 80 35          ".73.4.5
0C00: 80 36 80 00                                       .6..            
```

#### Opcodes

```
  0: 0x0BF8 [0x22] ENTITY_HIDE_FLAG(enabled=0x01)
  1: 0x0BFA [0x37] UPDATE_EVENT_POSITION_AND_DIR: x=43.731*, z=-178.281*, y=-11.000*, direction=183.1°*
  2: 0x0C03 [0x00] END_REQSTACK()
```

### Event 65535.3

#### Metadata

| Field        | Value    |
|--------------|----------|
| Entrypoint   | 0x0C04   |
| Data Size    | 14 bytes |
| Instructions | 4        |

```
      00 01 02 03 04 05 06 07  08 09 0A 0B 0C 0D 0E 0F
      -- -- -- -- -- -- -- --  -- -- -- -- -- -- -- --
0C00:             32 37 80 1F  00 38 80 39 80 35 80 1F      27...8.9.5..
0C10: 01 00                                             ..              
```

#### Opcodes

```
  0: 0x0C04 [0x32] ExtData[1]->MainSpeed = 13* * 0.1
  1: 0x0C07 [0x1F] MOVE_ENTITY: EventEntity moves to X=46.115*, Z=-171.262*, Y=-11.000*
  2: 0x0C0F [0x1F] MOVE_ENTITY: Update entity position (mode=1)
  3: 0x0C11 [0x00] END_REQSTACK()
```
