# 0x7FFFFFF0 - Zone Events

## Common Data

| Field            | Value            |
|------------------|------------------|
| Zone             | Kazham (ID: 250) |
| Block Size       | 1704 bytes       |
| Total Events     | 45               |
| References Count | 128              |

## List of Events

| Event ID                   | Entrypoint   |   Size |   Instructions |
|----------------------------|--------------|--------|----------------|
| [65535](#event-65535)      | 0x0000       |      1 |              1 |
| [65534](#event-65534)      | 0x0001       |      1 |              1 |
| [65535.1](#event-655351)   | 0x0002       |      1 |              1 |
| [65535.2](#event-655352)   | 0x0003       |      6 |              2 |
| [65535.3](#event-655353)   | 0x0009       |      6 |              2 |
| [65535.4](#event-655354)   | 0x000F       |      6 |              2 |
| [65535.5](#event-655355)   | 0x0015       |      6 |              2 |
| [65535.6](#event-655356)   | 0x001B       |     13 |              3 |
| [65535.7](#event-655357)   | 0x0028       |     10 |              2 |
| [65535.8](#event-655358)   | 0x0032       |     10 |              2 |
| [65535.9](#event-655359)   | 0x003C       |     10 |              2 |
| [65535.10](#event-6553510) | 0x0046       |     10 |              2 |
| [65535.11](#event-6553511) | 0x0050       |     10 |              2 |
| [65535.12](#event-6553512) | 0x005A       |     10 |              2 |
| [65535.13](#event-6553513) | 0x0064       |     10 |              2 |
| [65535.14](#event-6553514) | 0x006E       |     10 |              2 |
| [65535.15](#event-6553515) | 0x0078       |     10 |              2 |
| [65535.16](#event-6553516) | 0x0082       |     10 |              2 |
| [65535.17](#event-6553517) | 0x008C       |     10 |              2 |
| [65535.18](#event-6553518) | 0x0096       |     13 |              3 |
| [65535.19](#event-6553519) | 0x00A3       |     14 |              4 |
| [65535.20](#event-6553520) | 0x00B1       |     10 |              2 |
| [65535.21](#event-6553521) | 0x00BB       |     13 |              3 |
| [65535.22](#event-6553522) | 0x00C8       |     14 |              4 |
| [65535.23](#event-6553523) | 0x00D6       |     10 |              2 |
| [10000](#event-10000)      | 0x00E0       |     13 |              4 |
| [10001](#event-10001)      | 0x00ED       |     17 |              6 |
| [10002](#event-10002)      | 0x00FE       |     81 |             11 |
| [10014](#event-10014)      | 0x014F       |     55 |             13 |
| [65535.24](#event-6553524) | 0x0186       |    121 |             19 |
| [65535.25](#event-6553525) | 0x01FF       |     10 |              2 |
| [65535.26](#event-6553526) | 0x0209       |     27 |              6 |
| [65535.27](#event-6553527) | 0x0224       |      6 |              2 |
| [65535.28](#event-6553528) | 0x022A       |     10 |              2 |
| [65535.29](#event-6553529) | 0x0234       |     10 |              2 |
| [65535.30](#event-6553530) | 0x023E       |     10 |              2 |
| [65535.31](#event-6553531) | 0x0248       |     10 |              2 |
| [65535.32](#event-6553532) | 0x0252       |     10 |              2 |
| [65535.33](#event-6553533) | 0x025C       |     10 |              2 |
| [65535.34](#event-6553534) | 0x0266       |     70 |             11 |
| [65535.35](#event-6553535) | 0x02AC       |     24 |              4 |
| [65535.36](#event-6553536) | 0x02C4       |     24 |              4 |
| [65535.37](#event-6553537) | 0x02DC       |     37 |              5 |
| [65535.38](#event-6553538) | 0x0301       |     37 |              5 |
| [65535.39](#event-6553539) | 0x0326       |    190 |             38 |

## DAT References (imed_data)

|   Index | Hex Value   |   Dec Value |
|---------|-------------|-------------|
|       0 | 0xE327      |       58151 |
|       1 | 0xFFFF33D7  |  4294915031 |
|       2 | 0xFFFFD121  |  4294955297 |
|       3 | 0x0D21      |        3361 |
|       4 | 0x16A5F     |       92767 |
|       5 | 0xFFFE4DDA  |  4294856154 |
|       6 | 0xFFFFC75D  |  4294952797 |
|       7 | 0x0FD2      |        4050 |
|       8 | 0x18C9C     |      101532 |
|       9 | 0xFFFE45A6  |  4294854054 |
|      10 | 0xFFFFC569  |  4294952297 |
|      11 | 0x03B7      |         951 |
|      12 | 0xA028      |       41000 |
|      13 | 0xFFFD74C7  |  4294800583 |
|      14 | 0xFFFFD509  |  4294956297 |
|      15 | 0x0756      |        1878 |
|      16 | 0xFFFF5D01  |  4294925569 |
|      17 | 0xFFFEA481  |  4294878337 |
|      18 | 0xFFFFD8F0  |  4294957296 |
|      19 | 0x011D      |         285 |
|      20 | 0xEC86      |       60550 |
|      21 | 0xFFFF7360  |  4294931296 |
|      22 | 0xFFFFD109  |  4294955273 |
|      23 | 0x0C6A      |        3178 |
|      24 | 0xE723      |       59171 |
|      25 | 0xFFFF3941  |  4294916417 |
|      26 | 0x0BC0      |        3008 |
|      27 | 0xFFFF8E4C  |  4294938188 |
|      28 | 0xFFFFD1E7  |  4294955495 |
|      29 | 0xFFFFF63C  |  4294964796 |
|      30 | 0x0D84      |        3460 |
|      31 | 0xFFFF9210  |  4294939152 |
|      32 | 0xFFFFEB0A  |  4294961930 |
|      33 | 0xFFFFF63D  |  4294964797 |
|      34 | 0x0B87      |        2951 |
|      35 | 0x9AD2      |       39634 |
|      36 | 0xFFFD3EDF  |  4294786783 |
|      37 | 0x055B      |        1371 |
|      38 | 0x9E00      |       40448 |
|      39 | 0xFFFD3BB2  |  4294785970 |
|      40 | 0x092C      |        2348 |
|      41 | 0xFFFFBA32  |  4294949426 |
|      42 | 0xFFFFCF2C  |  4294954796 |
|      43 | 0xFFFFECE4  |  4294962404 |
|      44 | 0x0BDC      |        3036 |
|      45 | 0xFFFFDAE4  |  4294957796 |
|      46 | 0x000D      |          13 |
|      47 | 0xFFFFF765  |  4294965093 |
|      48 | 0xFFFFC75C  |  4294952796 |
|      49 | 0xFFFFECE2  |  4294962402 |
|      50 | 0x0400      |        1024 |
|      51 | 0xFFFFBBA4  |  4294949796 |
|      52 | 0x18D4C     |      101708 |
|      53 | 0xFFFE42EF  |  4294853359 |
|      54 | 0xFFFFC568  |  4294952296 |
|      55 | 0x042A      |        1066 |
|      56 | 0xFFFFF013  |  4294963219 |
|      57 | 0x342E      |       13358 |
|      58 | 0x0358      |         856 |
|      59 | 0x00C8      |         200 |
|      60 | 0x0000      |           0 |
|      61 | 0x00DA      |         218 |
|      62 | 0x0258      |         600 |
|      63 | 0x021C      |         540 |
|      64 | 0x003C      |          60 |
|      65 | 0x28F7      |       10487 |
|      66 | 0x1961      |        6497 |
|      67 | 0x0001      |           1 |
|      68 | 0x17FB2     |       98226 |
|      69 | 0xFFFE8427  |  4294870055 |
|      70 | 0xFFFFC951  |  4294953297 |
|      71 | 0x00D1      |         209 |
|      72 | 0x8A3C      |       35388 |
|      73 | 0xFFFF5FB6  |  4294926262 |
|      74 | 0x1D4B      |        7499 |
|      75 | 0x07D5      |        2005 |
|      76 | 0x0002      |           2 |
|      77 | 0xFFFFC977  |  4294953335 |
|      78 | 0xFFFFAF27  |  4294946599 |
|      79 | 0x0449      |        1097 |
|      80 | 0x0FC1      |        4033 |
|      81 | 0x0003      |           3 |
|      82 | 0xFFFFBA31  |  4294949425 |
|      83 | 0xFFFFD2B5  |  4294955701 |
|      84 | 0x1DE4      |        7652 |
|      85 | 0x0108      |         264 |
|      86 | 0x0004      |           4 |
|      87 | 0xFFFD2886  |  4294781062 |
|      88 | 0x1A773     |      108403 |
|      89 | 0x095F      |        2399 |
|      90 | 0x0005      |           5 |
|      91 | 0x72BA      |       29370 |
|      92 | 0xDF91      |       57233 |
|      93 | 0xFFFFC246  |  4294951494 |
|      94 | 0x0314      |         788 |
|      95 | 0x55DE      |       21982 |
|      96 | 0x7561      |       30049 |
|      97 | 0xFFFFB926  |  4294949158 |
|      98 | 0x0D48      |        3400 |
|      99 | 0x001E      |          30 |
|     100 | 0xFFFFBA9A  |  4294949530 |
|     101 | 0xFFFFD177  |  4294955383 |
|     102 | 0x1DDD      |        7645 |
|     103 | 0x000F      |          15 |
|     104 | 0x18D32     |      101682 |
|     105 | 0xFFFE44E6  |  4294853862 |
|     106 | 0x0470      |        1136 |
|     107 | 0x18AE7     |      101095 |
|     108 | 0xFFFE42C2  |  4294853314 |
|     109 | 0x05EE      |        1518 |
|     110 | 0x7B11      |       31505 |
|     111 | 0xFFFD4A83  |  4294789763 |
|     112 | 0xFFFFD120  |  4294955296 |
|     113 | 0x081C      |        2076 |
|     114 | 0x6DC4      |       28100 |
|     115 | 0xFFFD5940  |  4294793536 |
|     116 | 0xFFFFD314  |  4294955796 |
|     117 | 0x00BF      |         191 |
|     118 | 0x0006      |           6 |
|     119 | 0x0008      |           8 |
|     120 | 0x6C34      |       27700 |
|     121 | 0xFFFD56DA  |  4294792922 |
|     122 | 0x6CF4      |       27892 |
|     123 | 0x000A      |          10 |
|     124 | 0x0009      |           9 |
|     125 | 0x0046      |          70 |
|     126 | 0x008C      |         140 |
|     127 | 0x00D2      |         210 |

## String References

- **6497**: Set this as current home point? [Yes./No.]
- **10487**: For your own safety, it is recommended that you set this location as your home point after changing jobs.

## Events

### Event 65535

#### Metadata

| Field        | Value   |
|--------------|---------|
| Entrypoint   | 0x0000  |
| Data Size    | 1 bytes |
| Instructions | 1       |

```
      00 01 02 03 04 05 06 07  08 09 0A 0B 0C 0D 0E 0F
      -- -- -- -- -- -- -- --  -- -- -- -- -- -- -- --
0000: 00                                                .               
```

#### Opcodes

```
  0: 0x0000 [0x00] END_REQSTACK()
```

### Event 65534

#### Metadata

| Field        | Value   |
|--------------|---------|
| Entrypoint   | 0x0001  |
| Data Size    | 1 bytes |
| Instructions | 1       |

```
      00 01 02 03 04 05 06 07  08 09 0A 0B 0C 0D 0E 0F
      -- -- -- -- -- -- -- --  -- -- -- -- -- -- -- --
0000:    00                                              .              
```

#### Opcodes

```
  0: 0x0001 [0x00] END_REQSTACK()
```

### Event 65535.1

#### Metadata

| Field        | Value   |
|--------------|---------|
| Entrypoint   | 0x0002  |
| Data Size    | 1 bytes |
| Instructions | 1       |

```
      00 01 02 03 04 05 06 07  08 09 0A 0B 0C 0D 0E 0F
      -- -- -- -- -- -- -- --  -- -- -- -- -- -- -- --
0000:       00                                            .             
```

#### Opcodes

```
  0: 0x0002 [0x00] END_REQSTACK()
```

### Event 65535.2

#### Metadata

| Field        | Value   |
|--------------|---------|
| Entrypoint   | 0x0003  |
| Data Size    | 6 bytes |
| Instructions | 2       |

```
      00 01 02 03 04 05 06 07  08 09 0A 0B 0C 0D 0E 0F
      -- -- -- -- -- -- -- --  -- -- -- -- -- -- -- --
0000:          03 02 10 0B 7F  00                          ......       
```

#### Opcodes

```
  0: 0x0003 [0x03] Work_Zone[2] = (Entity->Render.Flags01 >> 25) & 1
  1: 0x0008 [0x00] END_REQSTACK()
```

### Event 65535.3

#### Metadata

| Field        | Value   |
|--------------|---------|
| Entrypoint   | 0x0009  |
| Data Size    | 6 bytes |
| Instructions | 2       |

```
      00 01 02 03 04 05 06 07  08 09 0A 0B 0C 0D 0E 0F
      -- -- -- -- -- -- -- --  -- -- -- -- -- -- -- --
0000:                             03 02 10 07 7F 00              ...... 
```

#### Opcodes

```
  0: 0x0009 [0x03] Work_Zone[2] = Entity->Race
  1: 0x000E [0x00] END_REQSTACK()
```

### Event 65535.4

#### Metadata

| Field        | Value   |
|--------------|---------|
| Entrypoint   | 0x000F  |
| Data Size    | 6 bytes |
| Instructions | 2       |

```
      00 01 02 03 04 05 06 07  08 09 0A 0B 0C 0D 0E 0F
      -- -- -- -- -- -- -- --  -- -- -- -- -- -- -- --
0000:                                               03                 .
0010: 09 10 07 7F 00                                    .....           
```

#### Opcodes

```
  0: 0x000F [0x03] Work_Zone[9] = Entity->Race
  1: 0x0014 [0x00] END_REQSTACK()
```

### Event 65535.5

#### Metadata

| Field        | Value   |
|--------------|---------|
| Entrypoint   | 0x0015  |
| Data Size    | 6 bytes |
| Instructions | 2       |

```
      00 01 02 03 04 05 06 07  08 09 0A 0B 0C 0D 0E 0F
      -- -- -- -- -- -- -- --  -- -- -- -- -- -- -- --
0010:                03 02 10  06 7F 00                      ......     
```

#### Opcodes

```
  0: 0x0015 [0x03] Work_Zone[2] = Entity->JobId (if LocalPlayer)
  1: 0x001A [0x00] END_REQSTACK()
```

### Event 65535.6

#### Metadata

| Field        | Value    |
|--------------|----------|
| Entrypoint   | 0x001B   |
| Data Size    | 13 bytes |
| Instructions | 3        |

```
      00 01 02 03 04 05 06 07  08 09 0A 0B 0C 0D 0E 0F
      -- -- -- -- -- -- -- --  -- -- -- -- -- -- -- --
0010:                                   47 00 00 80 01             G....
0020: 80 02 80 03 80 47 01 00                           .....G..        
```

#### Opcodes

```
  0: 0x001B [0x47] UPDATE_PLAYER_POS(58.151*, -52.265*, -11.999*, yaw=295.4°*)
  1: 0x0025 [0x47] WAIT_PLAYER_POS_UPDATE
  2: 0x0027 [0x00] END_REQSTACK()
```

### Event 65535.7

#### Metadata

| Field        | Value    |
|--------------|----------|
| Entrypoint   | 0x0028   |
| Data Size    | 10 bytes |
| Instructions | 2        |

```
      00 01 02 03 04 05 06 07  08 09 0A 0B 0C 0D 0E 0F
      -- -- -- -- -- -- -- --  -- -- -- -- -- -- -- --
0020:                          37 04 80 05 80 06 80 07          7.......
0030: 80 00                                             ..              
```

#### Opcodes

```
  0: 0x0028 [0x37] UPDATE_EVENT_POSITION_AND_DIR: x=92.767*, z=-111.142*, y=-14.499*, direction=355.9°*
  1: 0x0031 [0x00] END_REQSTACK()
```

### Event 65535.8

#### Metadata

| Field        | Value    |
|--------------|----------|
| Entrypoint   | 0x0032   |
| Data Size    | 10 bytes |
| Instructions | 2        |

```
      00 01 02 03 04 05 06 07  08 09 0A 0B 0C 0D 0E 0F
      -- -- -- -- -- -- -- --  -- -- -- -- -- -- -- --
0030:       37 08 80 09 80 0A  80 0B 80 00                7.........    
```

#### Opcodes

```
  0: 0x0032 [0x37] UPDATE_EVENT_POSITION_AND_DIR: x=101.532*, z=-113.242*, y=-14.999*, direction=83.6°*
  1: 0x003B [0x00] END_REQSTACK()
```

### Event 65535.9

#### Metadata

| Field        | Value    |
|--------------|----------|
| Entrypoint   | 0x003C   |
| Data Size    | 10 bytes |
| Instructions | 2        |

```
      00 01 02 03 04 05 06 07  08 09 0A 0B 0C 0D 0E 0F
      -- -- -- -- -- -- -- --  -- -- -- -- -- -- -- --
0030:                                      37 0C 80 0D              7...
0040: 80 0E 80 0F 80 00                                 ......          
```

#### Opcodes

```
  0: 0x003C [0x37] UPDATE_EVENT_POSITION_AND_DIR: x=41.000*, z=-166.713*, y=-10.999*, direction=165.1°*
  1: 0x0045 [0x00] END_REQSTACK()
```

### Event 65535.10

#### Metadata

| Field        | Value    |
|--------------|----------|
| Entrypoint   | 0x0046   |
| Data Size    | 10 bytes |
| Instructions | 2        |

```
      00 01 02 03 04 05 06 07  08 09 0A 0B 0C 0D 0E 0F
      -- -- -- -- -- -- -- --  -- -- -- -- -- -- -- --
0040:                   37 10  80 11 80 12 80 13 80 00        7.........
```

#### Opcodes

```
  0: 0x0046 [0x37] UPDATE_EVENT_POSITION_AND_DIR: x=-41.727*, z=-88.959*, y=-10.000*, direction=25.0°*
  1: 0x004F [0x00] END_REQSTACK()
```

### Event 65535.11

#### Metadata

| Field        | Value    |
|--------------|----------|
| Entrypoint   | 0x0050   |
| Data Size    | 10 bytes |
| Instructions | 2        |

```
      00 01 02 03 04 05 06 07  08 09 0A 0B 0C 0D 0E 0F
      -- -- -- -- -- -- -- --  -- -- -- -- -- -- -- --
0050: 37 14 80 15 80 16 80 17  80 00                    7.........      
```

#### Opcodes

```
  0: 0x0050 [0x37] UPDATE_EVENT_POSITION_AND_DIR: x=60.550*, z=-36.000*, y=-12.023*, direction=279.3°*
  1: 0x0059 [0x00] END_REQSTACK()
```

### Event 65535.12

#### Metadata

| Field        | Value    |
|--------------|----------|
| Entrypoint   | 0x005A   |
| Data Size    | 10 bytes |
| Instructions | 2        |

```
      00 01 02 03 04 05 06 07  08 09 0A 0B 0C 0D 0E 0F
      -- -- -- -- -- -- -- --  -- -- -- -- -- -- -- --
0050:                                37 18 80 19 80 02            7.....
0060: 80 1A 80 00                                       ....            
```

#### Opcodes

```
  0: 0x005A [0x37] UPDATE_EVENT_POSITION_AND_DIR: x=59.171*, z=-50.879*, y=-11.999*, direction=264.4°*
  1: 0x0063 [0x00] END_REQSTACK()
```

### Event 65535.13

#### Metadata

| Field        | Value    |
|--------------|----------|
| Entrypoint   | 0x0064   |
| Data Size    | 10 bytes |
| Instructions | 2        |

```
      00 01 02 03 04 05 06 07  08 09 0A 0B 0C 0D 0E 0F
      -- -- -- -- -- -- -- --  -- -- -- -- -- -- -- --
0060:             37 1B 80 1C  80 1D 80 1E 80 00            7.........  
```

#### Opcodes

```
  0: 0x0064 [0x37] UPDATE_EVENT_POSITION_AND_DIR: x=-29.108*, z=-11.801*, y=-2.500*, direction=304.1°*
  1: 0x006D [0x00] END_REQSTACK()
```

### Event 65535.14

#### Metadata

| Field        | Value    |
|--------------|----------|
| Entrypoint   | 0x006E   |
| Data Size    | 10 bytes |
| Instructions | 2        |

```
      00 01 02 03 04 05 06 07  08 09 0A 0B 0C 0D 0E 0F
      -- -- -- -- -- -- -- --  -- -- -- -- -- -- -- --
0060:                                            37 1F                7.
0070: 80 20 80 21 80 22 80 00                           . .!."..        
```

#### Opcodes

```
  0: 0x006E [0x37] UPDATE_EVENT_POSITION_AND_DIR: x=-28.144*, z=-5.366*, y=-2.499*, direction=259.4°*
  1: 0x0077 [0x00] END_REQSTACK()
```

### Event 65535.15

#### Metadata

| Field        | Value    |
|--------------|----------|
| Entrypoint   | 0x0078   |
| Data Size    | 10 bytes |
| Instructions | 2        |

```
      00 01 02 03 04 05 06 07  08 09 0A 0B 0C 0D 0E 0F
      -- -- -- -- -- -- -- --  -- -- -- -- -- -- -- --
0070:                          37 23 80 24 80 0E 80 25          7#.$...%
0080: 80 00                                             ..              
```

#### Opcodes

```
  0: 0x0078 [0x37] UPDATE_EVENT_POSITION_AND_DIR: x=39.634*, z=-180.513*, y=-10.999*, direction=120.5°*
  1: 0x0081 [0x00] END_REQSTACK()
```

### Event 65535.16

#### Metadata

| Field        | Value    |
|--------------|----------|
| Entrypoint   | 0x0082   |
| Data Size    | 10 bytes |
| Instructions | 2        |

```
      00 01 02 03 04 05 06 07  08 09 0A 0B 0C 0D 0E 0F
      -- -- -- -- -- -- -- --  -- -- -- -- -- -- -- --
0080:       37 26 80 27 80 0E  80 28 80 00                7&.'...(..    
```

#### Opcodes

```
  0: 0x0082 [0x37] UPDATE_EVENT_POSITION_AND_DIR: x=40.448*, z=-181.326*, y=-10.999*, direction=206.4°*
  1: 0x008B [0x00] END_REQSTACK()
```

### Event 65535.17

#### Metadata

| Field        | Value    |
|--------------|----------|
| Entrypoint   | 0x008C   |
| Data Size    | 10 bytes |
| Instructions | 2        |

```
      00 01 02 03 04 05 06 07  08 09 0A 0B 0C 0D 0E 0F
      -- -- -- -- -- -- -- --  -- -- -- -- -- -- -- --
0080:                                      37 29 80 2A              7).*
0090: 80 2B 80 2C 80 00                                 .+.,..          
```

#### Opcodes

```
  0: 0x008C [0x37] UPDATE_EVENT_POSITION_AND_DIR: x=-17.870*, z=-12.500*, y=-4.892*, direction=266.8°*
  1: 0x0095 [0x00] END_REQSTACK()
```

### Event 65535.18

#### Metadata

| Field        | Value    |
|--------------|----------|
| Entrypoint   | 0x0096   |
| Data Size    | 13 bytes |
| Instructions | 3        |

```
      00 01 02 03 04 05 06 07  08 09 0A 0B 0C 0D 0E 0F
      -- -- -- -- -- -- -- --  -- -- -- -- -- -- -- --
0090:                   47 00  29 80 2D 80 2B 80 2C 80        G.).-.+.,.
00A0: 47 01 00                                          G..             
```

#### Opcodes

```
  0: 0x0096 [0x47] UPDATE_PLAYER_POS(-17.870*, -9.500*, -4.892*, yaw=266.8°*)
  1: 0x00A0 [0x47] WAIT_PLAYER_POS_UPDATE
  2: 0x00A2 [0x00] END_REQSTACK()
```

### Event 65535.19

#### Metadata

| Field        | Value    |
|--------------|----------|
| Entrypoint   | 0x00A3   |
| Data Size    | 14 bytes |
| Instructions | 4        |

```
      00 01 02 03 04 05 06 07  08 09 0A 0B 0C 0D 0E 0F
      -- -- -- -- -- -- -- --  -- -- -- -- -- -- -- --
00A0:          32 2E 80 1F 00  29 80 2D 80 2B 80 1F 01     2....).-.+...
00B0: 00                                                .               
```

#### Opcodes

```
  0: 0x00A3 [0x32] ExtData[1]->MainSpeed = 13* * 0.1
  1: 0x00A6 [0x1F] MOVE_ENTITY: EventEntity moves to X=-17.870*, Z=-9.500*, Y=-4.892*
  2: 0x00AE [0x1F] MOVE_ENTITY: Update entity position (mode=1)
  3: 0x00B0 [0x00] END_REQSTACK()
```

### Event 65535.20

#### Metadata

| Field        | Value    |
|--------------|----------|
| Entrypoint   | 0x00B1   |
| Data Size    | 10 bytes |
| Instructions | 2        |

```
      00 01 02 03 04 05 06 07  08 09 0A 0B 0C 0D 0E 0F
      -- -- -- -- -- -- -- --  -- -- -- -- -- -- -- --
00B0:    37 2F 80 30 80 31 80  32 80 00                  7/.0.1.2..     
```

#### Opcodes

```
  0: 0x00B1 [0x37] UPDATE_EVENT_POSITION_AND_DIR: x=-2.203*, z=-14.500*, y=-4.894*, direction=90.0°*
  1: 0x00BA [0x00] END_REQSTACK()
```

### Event 65535.21

#### Metadata

| Field        | Value    |
|--------------|----------|
| Entrypoint   | 0x00BB   |
| Data Size    | 13 bytes |
| Instructions | 3        |

```
      00 01 02 03 04 05 06 07  08 09 0A 0B 0C 0D 0E 0F
      -- -- -- -- -- -- -- --  -- -- -- -- -- -- -- --
00B0:                                   47 00 2F 80 33             G./.3
00C0: 80 31 80 32 80 47 01 00                           .1.2.G..        
```

#### Opcodes

```
  0: 0x00BB [0x47] UPDATE_PLAYER_POS(-2.203*, -17.500*, -4.894*, yaw=90.0°*)
  1: 0x00C5 [0x47] WAIT_PLAYER_POS_UPDATE
  2: 0x00C7 [0x00] END_REQSTACK()
```

### Event 65535.22

#### Metadata

| Field        | Value    |
|--------------|----------|
| Entrypoint   | 0x00C8   |
| Data Size    | 14 bytes |
| Instructions | 4        |

```
      00 01 02 03 04 05 06 07  08 09 0A 0B 0C 0D 0E 0F
      -- -- -- -- -- -- -- --  -- -- -- -- -- -- -- --
00C0:                          32 2E 80 1F 00 2F 80 33          2..../.3
00D0: 80 31 80 1F 01 00                                 .1....          
```

#### Opcodes

```
  0: 0x00C8 [0x32] ExtData[1]->MainSpeed = 13* * 0.1
  1: 0x00CB [0x1F] MOVE_ENTITY: EventEntity moves to X=-2.203*, Z=-17.500*, Y=-4.894*
  2: 0x00D3 [0x1F] MOVE_ENTITY: Update entity position (mode=1)
  3: 0x00D5 [0x00] END_REQSTACK()
```

### Event 65535.23

#### Metadata

| Field        | Value    |
|--------------|----------|
| Entrypoint   | 0x00D6   |
| Data Size    | 10 bytes |
| Instructions | 2        |

```
      00 01 02 03 04 05 06 07  08 09 0A 0B 0C 0D 0E 0F
      -- -- -- -- -- -- -- --  -- -- -- -- -- -- -- --
00D0:                   37 34  80 35 80 36 80 37 80 00        74.5.6.7..
```

#### Opcodes

```
  0: 0x00D6 [0x37] UPDATE_EVENT_POSITION_AND_DIR: x=101.708*, z=-113.937*, y=-15.000*, direction=93.7°*
  1: 0x00DF [0x00] END_REQSTACK()
```

### Event 10000

#### Metadata

| Field        | Value    |
|--------------|----------|
| Entrypoint   | 0x00E0   |
| Data Size    | 13 bytes |
| Instructions | 4        |

```
      00 01 02 03 04 05 06 07  08 09 0A 0B 0C 0D 0E 0F
      -- -- -- -- -- -- -- --  -- -- -- -- -- -- -- --
00E0: 42 22 01 37 38 80 39 80  1D 80 3A 80 00           B".78.9...:..   
```

#### Opcodes

```
  0: 0x00E0 [0x42] SET_CLI_EVENT_CANCEL_DATA()
  1: 0x00E1 [0x22] ENTITY_HIDE_FLAG(enabled=0x01)
  2: 0x00E3 [0x37] UPDATE_EVENT_POSITION_AND_DIR: x=-4.077*, z=13.358*, y=-2.500*, direction=75.2°*
  3: 0x00EC [0x00] END_REQSTACK()
```

### Event 10001

#### Metadata

| Field        | Value    |
|--------------|----------|
| Entrypoint   | 0x00ED   |
| Data Size    | 17 bytes |
| Instructions | 6        |

```
      00 01 02 03 04 05 06 07  08 09 0A 0B 0C 0D 0E 0F
      -- -- -- -- -- -- -- --  -- -- -- -- -- -- -- --
00E0:                                         42 22 01               B".
00F0: 47 00 38 80 39 80 1D 80  3A 80 47 01 21 00        G.8.9...:.G.!.  
```

#### Opcodes

```
  0: 0x00ED [0x42] SET_CLI_EVENT_CANCEL_DATA()
  1: 0x00EE [0x22] ENTITY_HIDE_FLAG(enabled=0x01)
  2: 0x00F0 [0x47] UPDATE_PLAYER_POS(-4.077*, 13.358*, -2.500*, yaw=75.2°*)
  3: 0x00FA [0x47] WAIT_PLAYER_POS_UPDATE
  4: 0x00FC [0x21] END_EVENT
  5: 0x00FD [0x00] END_REQSTACK()
```

### Event 10002

#### Metadata

| Field        | Value    |
|--------------|----------|
| Entrypoint   | 0x00FE   |
| Data Size    | 81 bytes |
| Instructions | 11       |

```
      00 01 02 03 04 05 06 07  08 09 0A 0B 0C 0D 0E 0F
      -- -- -- -- -- -- -- --  -- -- -- -- -- -- -- --
00F0:                                            42 46                BF
0100: 01 45 3B 80 F0 FF FF 7F  F0 FF FF 7F 66 64 69 32  .E;.........fdi2
0110: 3C 80 45 3D 80 F8 FF FF  7F F8 FF FF 7F 73 30 30  <.E=.........s00
0120: 32 3E 80 1C 3F 80 45 3B  80 F0 FF FF 7F F0 FF FF  2>..?.E;........
0130: 7F 66 64 6F 31 3C 80 1C  40 80 46 00 45 3B 80 F0  .fdo1<..@.F.E;..
0140: FF FF 7F F0 FF FF 7F 66  64 69 31 3C 80 21 00     .......fdi1<.!. 
```

#### Opcodes

```
  0: 0x00FE [0x42] SET_CLI_EVENT_CANCEL_DATA()
  1: 0x00FF [0x46] CAMERA_CONTROL: Disable user control
  2: 0x0101 [0x45] LOAD_SCHEDULED_TASK: Load scheduler "fdi2" with entities [LocalPlayer, LocalPlayer], work=[200*, 0*]
  3: 0x0112 [0x45] LOAD_SCHEDULED_TASK: Load scheduler "s002" with entities [EventEntity, EventEntity], work=[218*, 600*]
  4: 0x0123 [0x1C] WAIT(540* ticks)
  5: 0x0126 [0x45] LOAD_SCHEDULED_TASK: Load scheduler "fdo1" with entities [LocalPlayer, LocalPlayer], work=[200*, 0*]
  6: 0x0137 [0x1C] WAIT(60* ticks)
  7: 0x013A [0x46] CAMERA_CONTROL: Restore default settings
  8: 0x013C [0x45] LOAD_SCHEDULED_TASK: Load scheduler "fdi1" with entities [LocalPlayer, LocalPlayer], work=[200*, 0*]
  9: 0x014D [0x21] END_EVENT
 10: 0x014E [0x00] END_REQSTACK()
```

### Event 10014

#### Metadata

| Field        | Value    |
|--------------|----------|
| Entrypoint   | 0x014F   |
| Data Size    | 55 bytes |
| Instructions | 13       |

```
      00 01 02 03 04 05 06 07  08 09 0A 0B 0C 0D 0E 0F
      -- -- -- -- -- -- -- --  -- -- -- -- -- -- -- --
0140:                                               42                 B
0150: 20 01 48 41 80 23 24 42  80 43 80 3C 80 25 02 00   .HA.#$B.C.<.%..
0160: 10 3C 80 00 6E 01 03 01  10 3C 80 01 73 01 03 01  .<..n....<..s...
0170: 10 43 80 45 3B 80 F0 FF  FF 7F F0 FF FF 7F 66 64  .C.E;.........fd
0180: 69 30 3C 80 21 00                                 i0<.!.          
```

#### Opcodes

```
  0: 0x014F [0x42] SET_CLI_EVENT_CANCEL_DATA()
  1: 0x0150 [0x20] SET_CLI_EVENT_UC_FLAG: Lock player control
  2: 0x0152 [0x48] [System] [10487*]:
    → "For your own safety, it is recommended that you set this location as your home point after changing jobs."
  3: 0x0155 [0x23] WAIT_FOR_DIALOG_INTERACTION
  4: 0x0156 [0x24] CREATE_DIALOG(message_id=6497*, default_option=1*, option_flags=0*)
    → "Set this as current home point? [Yes./No.]"
  5: 0x015D [0x25] WAIT_DIALOG_SELECT()
  6: 0x015E [0x02] IF !(Work_Zone[0] == 0*) GOTO 0x016E
  7: 0x0166 [0x03] Work_Zone[1] = 0*
  8: 0x016B [0x01] GOTO 0x0173
  9: 0x016E [0x03] Work_Zone[1] = 1*

SUBROUTINE_0173:
 10: 0x0173 [0x45] LOAD_SCHEDULED_TASK: Load scheduler "fdi0" with entities [LocalPlayer, LocalPlayer], work=[200*, 0*]
 11: 0x0184 [0x21] END_EVENT
 12: 0x0185 [0x00] END_REQSTACK()
```

### Event 65535.24

#### Metadata

| Field        | Value     |
|--------------|-----------|
| Entrypoint   | 0x0186    |
| Data Size    | 121 bytes |
| Instructions | 19        |

```
      00 01 02 03 04 05 06 07  08 09 0A 0B 0C 0D 0E 0F
      -- -- -- -- -- -- -- --  -- -- -- -- -- -- -- --
0180:                   02 04  10 3C 80 80 9A 01 37 44        ...<....7D
0190: 80 45 80 46 80 47 80 01  FE 01 02 04 10 43 80 80  .E.F.G.......C..
01A0: AE 01 37 48 80 49 80 4A  80 4B 80 01 FE 01 02 04  ..7H.I.J.K......
01B0: 10 4C 80 80 C2 01 37 4D  80 4E 80 4F 80 50 80 01  .L....7M.N.O.P..
01C0: FE 01 02 04 10 51 80 80  D6 01 37 52 80 53 80 54  .....Q....7R.S.T
01D0: 80 55 80 01 FE 01 02 04  10 56 80 80 EA 01 37 57  .U.......V....7W
01E0: 80 58 80 3C 80 59 80 01  FE 01 02 04 10 5A 80 80  .X.<.Y.......Z..
01F0: FE 01 37 5B 80 5C 80 5D  80 5E 80 01 FE 01 00     ..7[.\.].^..... 
```

#### Opcodes

```
  0: 0x0186 [0x02] IF !(Work_Zone[4] == 0*) GOTO 0x019A
  1: 0x018E [0x37] UPDATE_EVENT_POSITION_AND_DIR: x=98.226*, z=-97.241*, y=-13.999*, direction=18.4°*
  2: 0x0197 [0x01] GOTO 0x01FE
  3: 0x019A [0x02] IF !(Work_Zone[4] == 1*) GOTO 0x01AE
  4: 0x01A2 [0x37] UPDATE_EVENT_POSITION_AND_DIR: x=35.388*, z=-41.034*, y=7.499*, direction=176.2°*
  5: 0x01AB [0x01] GOTO 0x01FE
  6: 0x01AE [0x02] IF !(Work_Zone[4] == 2*) GOTO 0x01C2
  7: 0x01B6 [0x37] UPDATE_EVENT_POSITION_AND_DIR: x=-13.961*, z=-20.697*, y=1.097*, direction=354.5°*
  8: 0x01BF [0x01] GOTO 0x01FE
  9: 0x01C2 [0x02] IF !(Work_Zone[4] == 3*) GOTO 0x01D6
 10: 0x01CA [0x37] UPDATE_EVENT_POSITION_AND_DIR: x=-17.871*, z=-11.595*, y=7.652*, direction=23.2°*
 11: 0x01D3 [0x01] GOTO 0x01FE
 12: 0x01D6 [0x02] IF !(Work_Zone[4] == 4*) GOTO 0x01EA
 13: 0x01DE [0x37] UPDATE_EVENT_POSITION_AND_DIR: x=-186.234*, z=108.403*, y=0.000*, direction=210.8°*
 14: 0x01E7 [0x01] GOTO 0x01FE
 15: 0x01EA [0x02] IF !(Work_Zone[4] == 5*) GOTO 0x01FE
 16: 0x01F2 [0x37] UPDATE_EVENT_POSITION_AND_DIR: x=29.370*, z=57.233*, y=-15.802*, direction=69.3°*
 17: 0x01FB [0x01] GOTO 0x01FE

SUBROUTINE_01FE:
 18: 0x01FE [0x00] END_REQSTACK()
```

### Event 65535.25

#### Metadata

| Field        | Value    |
|--------------|----------|
| Entrypoint   | 0x01FF   |
| Data Size    | 10 bytes |
| Instructions | 2        |

```
      00 01 02 03 04 05 06 07  08 09 0A 0B 0C 0D 0E 0F
      -- -- -- -- -- -- -- --  -- -- -- -- -- -- -- --
01F0:                                               37                 7
0200: 5F 80 60 80 61 80 62 80  00                       _.`.a.b..       
```

#### Opcodes

```
  0: 0x01FF [0x37] UPDATE_EVENT_POSITION_AND_DIR: x=21.982*, z=30.049*, y=-18.138*, direction=298.8°*
  1: 0x0208 [0x00] END_REQSTACK()
```

### Event 65535.26

#### Metadata

| Field        | Value    |
|--------------|----------|
| Entrypoint   | 0x0209   |
| Data Size    | 27 bytes |
| Instructions | 6        |

```
      00 01 02 03 04 05 06 07  08 09 0A 0B 0C 0D 0E 0F
      -- -- -- -- -- -- -- --  -- -- -- -- -- -- -- --
0200:                             7B F0 FF FF 7F 1C 63           {.....c
0210: 80 79 00 F0 FF FF 7F 6D  A0 0F 01 1C 63 80 7B F0  .y.....m....c.{.
0220: FF FF 7F 00                                       ....            
```

#### Opcodes

```
  0: 0x0209 [0x7B] LocalPlayer stops talking
  1: 0x020E [0x1C] WAIT(30* ticks)
  2: 0x0211 [0x79] LocalPlayer looks at Talking Doll (ID: 17801325/0x010FA06D) (Basic look)
  3: 0x021B [0x1C] WAIT(30* ticks)
  4: 0x021E [0x7B] LocalPlayer stops talking
  5: 0x0223 [0x00] END_REQSTACK()
```

### Event 65535.27

#### Metadata

| Field        | Value   |
|--------------|---------|
| Entrypoint   | 0x0224  |
| Data Size    | 6 bytes |
| Instructions | 2       |

```
      00 01 02 03 04 05 06 07  08 09 0A 0B 0C 0D 0E 0F
      -- -- -- -- -- -- -- --  -- -- -- -- -- -- -- --
0220:             03 09 10 07  7F 00                        ......      
```

#### Opcodes

```
  0: 0x0224 [0x03] Work_Zone[9] = Entity->Race
  1: 0x0229 [0x00] END_REQSTACK()
```

### Event 65535.28

#### Metadata

| Field        | Value    |
|--------------|----------|
| Entrypoint   | 0x022A   |
| Data Size    | 10 bytes |
| Instructions | 2        |

```
      00 01 02 03 04 05 06 07  08 09 0A 0B 0C 0D 0E 0F
      -- -- -- -- -- -- -- --  -- -- -- -- -- -- -- --
0220:                                37 48 80 49 80 4A            7H.I.J
0230: 80 4B 80 00                                       .K..            
```

#### Opcodes

```
  0: 0x022A [0x37] UPDATE_EVENT_POSITION_AND_DIR: x=35.388*, z=-41.034*, y=7.499*, direction=176.2°*
  1: 0x0233 [0x00] END_REQSTACK()
```

### Event 65535.29

#### Metadata

| Field        | Value    |
|--------------|----------|
| Entrypoint   | 0x0234   |
| Data Size    | 10 bytes |
| Instructions | 2        |

```
      00 01 02 03 04 05 06 07  08 09 0A 0B 0C 0D 0E 0F
      -- -- -- -- -- -- -- --  -- -- -- -- -- -- -- --
0230:             37 57 80 58  80 3C 80 59 80 00            7W.X.<.Y..  
```

#### Opcodes

```
  0: 0x0234 [0x37] UPDATE_EVENT_POSITION_AND_DIR: x=-186.234*, z=108.403*, y=0.000*, direction=210.8°*
  1: 0x023D [0x00] END_REQSTACK()
```

### Event 65535.30

#### Metadata

| Field        | Value    |
|--------------|----------|
| Entrypoint   | 0x023E   |
| Data Size    | 10 bytes |
| Instructions | 2        |

```
      00 01 02 03 04 05 06 07  08 09 0A 0B 0C 0D 0E 0F
      -- -- -- -- -- -- -- --  -- -- -- -- -- -- -- --
0230:                                            37 64                7d
0240: 80 65 80 66 80 67 80 00                           .e.f.g..        
```

#### Opcodes

```
  0: 0x023E [0x37] UPDATE_EVENT_POSITION_AND_DIR: x=-17.766*, z=-11.913*, y=7.645*, direction=1.3°*
  1: 0x0247 [0x00] END_REQSTACK()
```

### Event 65535.31

#### Metadata

| Field        | Value    |
|--------------|----------|
| Entrypoint   | 0x0248   |
| Data Size    | 10 bytes |
| Instructions | 2        |

```
      00 01 02 03 04 05 06 07  08 09 0A 0B 0C 0D 0E 0F
      -- -- -- -- -- -- -- --  -- -- -- -- -- -- -- --
0240:                          37 68 80 69 80 36 80 6A          7h.i.6.j
0250: 80 00                                             ..              
```

#### Opcodes

```
  0: 0x0248 [0x37] UPDATE_EVENT_POSITION_AND_DIR: x=101.682*, z=-113.434*, y=-15.000*, direction=99.8°*
  1: 0x0251 [0x00] END_REQSTACK()
```

### Event 65535.32

#### Metadata

| Field        | Value    |
|--------------|----------|
| Entrypoint   | 0x0252   |
| Data Size    | 10 bytes |
| Instructions | 2        |

```
      00 01 02 03 04 05 06 07  08 09 0A 0B 0C 0D 0E 0F
      -- -- -- -- -- -- -- --  -- -- -- -- -- -- -- --
0250:       37 6B 80 6C 80 36  80 6D 80 00                7k.l.6.m..    
```

#### Opcodes

```
  0: 0x0252 [0x37] UPDATE_EVENT_POSITION_AND_DIR: x=101.095*, z=-113.982*, y=-15.000*, direction=133.4°*
  1: 0x025B [0x00] END_REQSTACK()
```

### Event 65535.33

#### Metadata

| Field        | Value    |
|--------------|----------|
| Entrypoint   | 0x025C   |
| Data Size    | 10 bytes |
| Instructions | 2        |

```
      00 01 02 03 04 05 06 07  08 09 0A 0B 0C 0D 0E 0F
      -- -- -- -- -- -- -- --  -- -- -- -- -- -- -- --
0250:                                      37 6E 80 6F              7n.o
0260: 80 70 80 71 80 00                                 .p.q..          
```

#### Opcodes

```
  0: 0x025C [0x37] UPDATE_EVENT_POSITION_AND_DIR: x=31.505*, z=-177.533*, y=-12.000*, direction=182.5°*
  1: 0x0265 [0x00] END_REQSTACK()
```

### Event 65535.34

#### Metadata

| Field        | Value    |
|--------------|----------|
| Entrypoint   | 0x0266   |
| Data Size    | 70 bytes |
| Instructions | 11       |

```
      00 01 02 03 04 05 06 07  08 09 0A 0B 0C 0D 0E 0F
      -- -- -- -- -- -- -- --  -- -- -- -- -- -- -- --
0260:                   02 09  10 5A 80 00 7A 02 37 72        ...Z..z.7r
0270: 80 73 80 74 80 75 80 01  AB 02 02 09 10 76 80 00  .s.t.u.......v..
0280: 8E 02 37 72 80 73 80 74  80 75 80 01 AB 02 02 09  ..7r.s.t.u......
0290: 10 77 80 00 A2 02 37 78  80 79 80 74 80 75 80 01  .w....7x.y.t.u..
02A0: AB 02 37 7A 80 79 80 74  80 75 80 00              ..7z.y.t.u..    
```

#### Opcodes

```
  0: 0x0266 [0x02] IF !(Work_Zone[9] == 5*) GOTO 0x027A
  1: 0x026E [0x37] UPDATE_EVENT_POSITION_AND_DIR: x=28.100*, z=-173.760*, y=-11.500*, direction=16.8°*
  2: 0x0277 [0x01] GOTO 0x02AB
  3: 0x027A [0x02] IF !(Work_Zone[9] == 6*) GOTO 0x028E
  4: 0x0282 [0x37] UPDATE_EVENT_POSITION_AND_DIR: x=28.100*, z=-173.760*, y=-11.500*, direction=16.8°*
  5: 0x028B [0x01] GOTO 0x02AB
  6: 0x028E [0x02] IF !(Work_Zone[9] == 8*) GOTO 0x02A2
  7: 0x0296 [0x37] UPDATE_EVENT_POSITION_AND_DIR: x=27.700*, z=-174.374*, y=-11.500*, direction=16.8°*
  8: 0x029F [0x01] GOTO 0x02AB
  9: 0x02A2 [0x37] UPDATE_EVENT_POSITION_AND_DIR: x=27.892*, z=-174.374*, y=-11.500*, direction=16.8°*

SUBROUTINE_02AB:
 10: 0x02AB [0x00] END_REQSTACK()
```

### Event 65535.35

#### Metadata

| Field        | Value    |
|--------------|----------|
| Entrypoint   | 0x02AC   |
| Data Size    | 24 bytes |
| Instructions | 4        |

```
      00 01 02 03 04 05 06 07  08 09 0A 0B 0C 0D 0E 0F
      -- -- -- -- -- -- -- --  -- -- -- -- -- -- -- --
02A0:                                      03 00 00 07              ....
02B0: 7F 1A 50 03 66 01 00 F8  FF FF 7F F8 FF FF 7F 74  ..P.f..........t
02C0: 6C 6B 30 00                                       lk0.            
```

#### Opcodes

```
  0: 0x02AC [0x03] ExtData[1]->WorkLocal[0] = Entity->Race
  1: 0x02B1 [0x1A] CALL_SUBROUTINE(address=0x0350)
  2: 0x02B4 [0x66] LOAD_EXT_SCHEDULER_MAIN: Load scheduler "tlk0" with entities [EventEntity, EventEntity], work=ExtData[1]->WorkLocal[1]
  3: 0x02C3 [0x00] END_REQSTACK()
```

### Event 65535.36

#### Metadata

| Field        | Value    |
|--------------|----------|
| Entrypoint   | 0x02C4   |
| Data Size    | 24 bytes |
| Instructions | 4        |

```
      00 01 02 03 04 05 06 07  08 09 0A 0B 0C 0D 0E 0F
      -- -- -- -- -- -- -- --  -- -- -- -- -- -- -- --
02C0:             03 00 00 07  7F 1A 50 03 66 01 00 F8      ......P.f...
02D0: FF FF 7F F8 FF FF 7F 74  6C 6B 31 00              .......tlk1.    
```

#### Opcodes

```
  0: 0x02C4 [0x03] ExtData[1]->WorkLocal[0] = Entity->Race
  1: 0x02C9 [0x1A] CALL_SUBROUTINE(address=0x0350)
  2: 0x02CC [0x66] LOAD_EXT_SCHEDULER_MAIN: Load scheduler "tlk1" with entities [EventEntity, EventEntity], work=ExtData[1]->WorkLocal[1]
  3: 0x02DB [0x00] END_REQSTACK()
```

### Event 65535.37

#### Metadata

| Field        | Value    |
|--------------|----------|
| Entrypoint   | 0x02DC   |
| Data Size    | 37 bytes |
| Instructions | 5        |

```
      00 01 02 03 04 05 06 07  08 09 0A 0B 0C 0D 0E 0F
      -- -- -- -- -- -- -- --  -- -- -- -- -- -- -- --
02D0:                                      03 00 00 07              ....
02E0: 7F 1A 50 03 66 01 00 F8  FF FF 7F F8 FF FF 7F 73  ..P.f..........s
02F0: 69 74 30 53 F8 FF FF 7F  F8 FF FF 7F 73 69 74 30  it0S........sit0
0300: 00                                                .               
```

#### Opcodes

```
  0: 0x02DC [0x03] ExtData[1]->WorkLocal[0] = Entity->Race
  1: 0x02E1 [0x1A] CALL_SUBROUTINE(address=0x0350)
  2: 0x02E4 [0x66] LOAD_EXT_SCHEDULER_MAIN: Load scheduler "sit0" with entities [EventEntity, EventEntity], work=ExtData[1]->WorkLocal[1]
  3: 0x02F3 [0x53] WAIT_SCHEDULER_TASK: Wait for scheduler "sit0" with entities [EventEntity, EventEntity]
  4: 0x0300 [0x00] END_REQSTACK()
```

### Event 65535.38

#### Metadata

| Field        | Value    |
|--------------|----------|
| Entrypoint   | 0x0301   |
| Data Size    | 37 bytes |
| Instructions | 5        |

```
      00 01 02 03 04 05 06 07  08 09 0A 0B 0C 0D 0E 0F
      -- -- -- -- -- -- -- --  -- -- -- -- -- -- -- --
0300:    03 00 00 07 7F 1A 50  03 66 01 00 F8 FF FF 7F   ......P.f......
0310: F8 FF FF 7F 73 69 74 31  53 F8 FF FF 7F F8 FF FF  ....sit1S.......
0320: 7F 73 69 74 31 00                                 .sit1.          
```

#### Opcodes

```
  0: 0x0301 [0x03] ExtData[1]->WorkLocal[0] = Entity->Race
  1: 0x0306 [0x1A] CALL_SUBROUTINE(address=0x0350)
  2: 0x0309 [0x66] LOAD_EXT_SCHEDULER_MAIN: Load scheduler "sit1" with entities [EventEntity, EventEntity], work=ExtData[1]->WorkLocal[1]
  3: 0x0318 [0x53] WAIT_SCHEDULER_TASK: Wait for scheduler "sit1" with entities [EventEntity, EventEntity]
  4: 0x0325 [0x00] END_REQSTACK()
```

### Event 65535.39

#### Metadata

| Field        | Value     |
|--------------|-----------|
| Entrypoint   | 0x0326    |
| Data Size    | 190 bytes |
| Instructions | 14        |

```
      00 01 02 03 04 05 06 07  08 09 0A 0B 0C 0D 0E 0F
      -- -- -- -- -- -- -- --  -- -- -- -- -- -- -- --
0320:                   03 00  00 07 7F 1A 50 03 66 01        ......P.f.
0330: 00 F8 FF FF 7F F8 FF FF  7F 74 6C 6B 30 1C 40 80  .........tlk0.@.
0340: 66 01 00 F8 FF FF 7F F8  FF FF 7F 74 6C 6B 31 00  f..........tlk1.
0350: 03 01 00 00 00 02 01 00  5A 80 05 65 03 08 01 00  ........Z..e....
0360: 43 80 01 6A 03 08 01 00  4C 80 14 01 00 7B 80 07  C..j....L....{..
0370: 01 00 7C 80 1B 03 01 00  00 00 02 01 00 5A 80 05  ..|..........Z..
0380: 8A 03 08 01 00 43 80 01  8F 03 08 01 00 4C 80 14  .....C.......L..
0390: 01 00 7B 80 07 01 00 7D  80 1B 03 01 00 00 00 02  ..{....}........
03A0: 01 00 5A 80 05 AF 03 08  01 00 43 80 01 B4 03 08  ..Z.......C.....
03B0: 01 00 4C 80 14 01 00 7B  80 07 01 00 7E 80 1B 03  ..L....{....~...
03C0: 01 00 00 00 02 01 00 5A  80 05 D4 03 08 01 00 43  .......Z.......C
03D0: 80 01 D9 03 08 01 00 4C  80 14 01 00 7B 80 07 01  .......L....{...
03E0: 00 7F 80 1B                                       ....            
```

#### Opcodes

```
  0: 0x0326 [0x03] ExtData[1]->WorkLocal[0] = Entity->Race
  1: 0x032B [0x1A] CALL_SUBROUTINE(address=0x0350)
  2: 0x032E [0x66] LOAD_EXT_SCHEDULER_MAIN: Load scheduler "tlk0" with entities [EventEntity, EventEntity], work=ExtData[1]->WorkLocal[1]
  3: 0x033D [0x1C] WAIT(60* ticks)
  4: 0x0340 [0x66] LOAD_EXT_SCHEDULER_MAIN: Load scheduler "tlk1" with entities [EventEntity, EventEntity], work=ExtData[1]->WorkLocal[1]
  5: 0x034F [0x00] END_REQSTACK()

SUBROUTINE_0350:
  6: 0x0350 [0x03] ExtData[1]->WorkLocal[1] = ExtData[1]->WorkLocal[0]
  7: 0x0355 [0x02] IF !(ExtData[1]->WorkLocal[1] > 5*) GOTO 0x0365
  8: 0x035D [0x08] ExtData[1]->WorkLocal[1] -= 1*
  9: 0x0362 [0x01] GOTO 0x036A
 10: 0x0365 [0x08] ExtData[1]->WorkLocal[1] -= 2*

SUBROUTINE_036A:
 11: 0x036A [0x14] ExtData[1]->WorkLocal[1] *= 10*
 12: 0x036F [0x07] ExtData[1]->WorkLocal[1] += 9*
 13: 0x0374 [0x1B] RETURN
```

#### Data or dead code:

```
# Dead code (unreachable instructions):
     0x0375 [0x03] ExtData[1]->WorkLocal[1] = ExtData[1]->WorkLocal[0]
     0x037A [0x02] IF !(ExtData[1]->WorkLocal[1] > 5*) GOTO 0x038A
     0x0382 [0x08] ExtData[1]->WorkLocal[1] -= 1*
     0x0387 [0x01] GOTO 0x038F
     0x038A [0x08] ExtData[1]->WorkLocal[1] -= 2*
     0x038F [0x14] ExtData[1]->WorkLocal[1] *= 10*
     0x0394 [0x07] ExtData[1]->WorkLocal[1] += 70*
     0x0399 [0x1B] RETURN
     0x039A [0x03] ExtData[1]->WorkLocal[1] = ExtData[1]->WorkLocal[0]
     0x039F [0x02] IF !(ExtData[1]->WorkLocal[1] > 5*) GOTO 0x03AF
     0x03A7 [0x08] ExtData[1]->WorkLocal[1] -= 1*
     0x03AC [0x01] GOTO 0x03B4
     0x03AF [0x08] ExtData[1]->WorkLocal[1] -= 2*
     0x03B4 [0x14] ExtData[1]->WorkLocal[1] *= 10*
     0x03B9 [0x07] ExtData[1]->WorkLocal[1] += 140*
     0x03BE [0x1B] RETURN
     0x03BF [0x03] ExtData[1]->WorkLocal[1] = ExtData[1]->WorkLocal[0]
     0x03C4 [0x02] IF !(ExtData[1]->WorkLocal[1] > 5*) GOTO 0x03D4
     0x03CC [0x08] ExtData[1]->WorkLocal[1] -= 1*
     0x03D1 [0x01] GOTO 0x03D9
     0x03D4 [0x08] ExtData[1]->WorkLocal[1] -= 2*
     0x03D9 [0x14] ExtData[1]->WorkLocal[1] *= 10*
     0x03DE [0x07] ExtData[1]->WorkLocal[1] += 210*
     0x03E3 [0x1B] RETURN
```
