# Event 65535

## Metadata

| Field           | Value    |
|-----------------|----------|
| Event Index     | 4/20     |
| Offset          | 0x0003   |
| Data Size       | 56 bytes |
| Calculated Size | 56 bytes |
| Instructions    | 12       |

```
      00 01 02 03 04 05 06 07  08 09 0A 0B 0C 0D 0E 0F
      -- -- -- -- -- -- -- --  -- -- -- -- -- -- -- --
0000:          1C 00 80 6B 69  64 6C 30 F8 FF FF 7F 32     ...kidl0....2
0010: 01 80 1F 00 02 80 03 80  04 80 1F 01 1F 00 05 80  ................
0020: 06 80 07 80 1F 01 1F 00  08 80 09 80 0A 80 1F 01  ................
0030: 1F 00 0B 80 0C 80 04 80  1F 01 00                 ...........     
```

## Opcodes

```
  0: 0x0003 [0x1C] WAIT(250* ticks)
  1: 0x0006 [0x6B] STOP_AND_IDLE: EventEntity stops current action and resets to idle (animation="idl0")
  2: 0x000F [0x32] ExtData[1]->MainSpeed = 42* * 0.1
  3: 0x0012 [0x1F] MOVE_ENTITY: EventEntity moves to X=-310.651*, Z=-13.593*, Y=-48.000*
  4: 0x001A [0x1F] MOVE_ENTITY: Update entity position (mode=1)
  5: 0x001C [0x1F] MOVE_ENTITY: EventEntity moves to X=-302.312*, Z=-16.244*, Y=-48.784*
  6: 0x0024 [0x1F] MOVE_ENTITY: Update entity position (mode=1)
  7: 0x0026 [0x1F] MOVE_ENTITY: EventEntity moves to X=-299.446*, Z=-22.418*, Y=-49.113*
  8: 0x002E [0x1F] MOVE_ENTITY: Update entity position (mode=1)
  9: 0x0030 [0x1F] MOVE_ENTITY: EventEntity moves to X=-297.907*, Z=-51.845*, Y=-48.000*
 10: 0x0038 [0x1F] MOVE_ENTITY: Update entity position (mode=1)
 11: 0x003A [0x00] END_REQSTACK()
```
