# Event 65535

## Metadata

| Field           | Value    |
|-----------------|----------|
| Event Index     | 24/26    |
| Offset          | 0x0121   |
| Data Size       | 27 bytes |
| Calculated Size | 27 bytes |
| Instructions    | 5        |

```
      00 01 02 03 04 05 06 07  08 09 0A 0B 0C 0D 0E 0F
      -- -- -- -- -- -- -- --  -- -- -- -- -- -- -- --
0120:    1C 23 80 5B 0F 80 F6  02 06 01 F6 02 06 01 73   .#.[..........s
0130: 74 61 31 1C 28 80 1E CE  02 06 01 00              ta1.(.......    
```

## Opcodes

```
  0: 0x0121 [0x1C] WAIT(30* ticks)
  1: 0x0124 [0x5B] LOAD_EXT_SCHEDULER(work_offset=1327*, entity1=Ghyo Molkot (ID: 17171190/0x010602F6), entity2=Ghyo Molkot (ID: 17171190/0x010602F6), action="sta1")
  2: 0x0133 [0x1C] WAIT(15* ticks)
  3: 0x0136 [0x1E] EventEntity looks at Rotih Moalghett (ID: 17171150/0x010602CE) and starts talking
  4: 0x013B [0x00] END_REQSTACK()
```
