# Event 630

## Metadata

| Field           | Value    |
|-----------------|----------|
| Event Index     | 5/6      |
| Offset          | 0x09BF   |
| Data Size       | 47 bytes |
| Calculated Size | 47 bytes |
| Instructions    | 15       |

```
      00 01 02 03 04 05 06 07  08 09 0A 0B 0C 0D 0E 0F
      -- -- -- -- -- -- -- --  -- -- -- -- -- -- -- --
09B0:                                               42                 B
09C0: 1E F0 FF FF 7F 1C 00 80  6E F8 FF FF 7F 59 80 99  ........n....Y..
09D0: F8 FF FF 7F 1D 5A 80 23  1D 5B 80 23 6E F8 FF FF  .....Z.#.[.#n...
09E0: 7F 5C 80 99 F8 FF FF 7F  1D 5D 80 23 21 00        .\.......].#!.  
```

## Opcodes

```
  0: 0x09BF [0x42] SET_CLI_EVENT_CANCEL_DATA()
  1: 0x09C0 [0x1E] EventEntity looks at LocalPlayer and starts talking
  2: 0x09C5 [0x1C] WAIT(30* ticks)
  3: 0x09C8 [0x6E] EventEntity uses emote 21*
  4: 0x09CF [0x99] Wait for EventEntity animation to complete
  5: 0x09D4 [0x1D] PRINT_EVENT_MESSAGE(message_id=9616*)
    → "So yew stuck it to those Voidwalker vermin an' came out on top? Congratulations, sugar!\u007F1\u0000\u0007"
  6: 0x09D7 [0x23] WAIT_FOR_DIALOG_INTERACTION
  7: 0x09D8 [0x1D] PRINT_EVENT_MESSAGE(message_id=9617*)
    → "Looks like ol' scary-face was tellin' the truth about that there cavern, then.\u007F1\u0000\u0007"
  8: 0x09DB [0x23] WAIT_FOR_DIALOG_INTERACTION
  9: 0x09DC [0x6E] EventEntity uses emote 26*
 10: 0x09E3 [0x99] Wait for EventEntity animation to complete
 11: 0x09E8 [0x1D] PRINT_EVENT_MESSAGE(message_id=9618*)
    → "I'll let yew do the thankin' though, darlin'. I'm afeared he's like t' gimme a new pie hole if'n I ever got near t' him again.\u007F1\u0000\u0007"
 12: 0x09EB [0x23] WAIT_FOR_DIALOG_INTERACTION
 13: 0x09EC [0x21] END_EVENT
 14: 0x09ED [0x00] END_REQSTACK()
```
