# Event 332

## Metadata

| Field           | Value    |
|-----------------|----------|
| Event Index     | 19/44    |
| Offset          | 0x04A0   |
| Data Size       | 87 bytes |
| Calculated Size | 87 bytes |
| Instructions    | 13       |

```
      00 01 02 03 04 05 06 07  08 09 0A 0B 0C 0D 0E 0F
      -- -- -- -- -- -- -- --  -- -- -- -- -- -- -- --
04A0: 20 01 42 45 24 80 F0 FF  FF 7F F0 FF FF 7F 66 64   .BE$.........fd
04B0: 6F 30 25 80 46 01 22 01  47 00 26 80 27 80 28 80  o0%.F.".G.&.'.(.
04C0: 29 80 47 01 55 24 80 F0  FF FF 7F F0 FF FF 7F 66  ).G.U$.........f
04D0: 64 6F 30 46 00 45 24 80  F0 FF FF 7F F0 FF FF 7F  do0F.E$.........
04E0: 66 64 69 30 25 80 55 24  80 F0 FF FF 7F F0 FF FF  fdi0%.U$........
04F0: 7F 66 64 69 30 21 00                              .fdi0!.         
```

## Opcodes

```
  0: 0x04A0 [0x20] SET_CLI_EVENT_UC_FLAG: Lock player control
  1: 0x04A2 [0x42] SET_CLI_EVENT_CANCEL_DATA()
  2: 0x04A3 [0x45] LOAD_SCHEDULED_TASK(work_offset1=200*, entity1=LocalPlayer, entity2=LocalPlayer, scheduler_id="fdo0", work_offset2=0*)
  3: 0x04B4 [0x46] CAMERA_CONTROL: Disable user control
  4: 0x04B6 [0x22] ENTITY_HIDE_FLAG(enabled=0x01)
  5: 0x04B8 [0x47] UPDATE_PLAYER_POS(8.112*, 5.239*, -1.362*, yaw=98.6°*)
  6: 0x04C2 [0x47] WAIT_PLAYER_POS_UPDATE
  7: 0x04C4 [0x55] WAIT_LOAD_SCHEDULER(work_offset=200*, entity1=LocalPlayer, entity2=LocalPlayer, scheduler_id="fdo0")
  8: 0x04D3 [0x46] CAMERA_CONTROL: Restore default settings
  9: 0x04D5 [0x45] LOAD_SCHEDULED_TASK(work_offset1=200*, entity1=LocalPlayer, entity2=LocalPlayer, scheduler_id="fdi0", work_offset2=0*)
 10: 0x04E6 [0x55] WAIT_LOAD_SCHEDULER(work_offset=200*, entity1=LocalPlayer, entity2=LocalPlayer, scheduler_id="fdi0")
 11: 0x04F5 [0x21] END_EVENT
 12: 0x04F6 [0x00] END_REQSTACK()
```
