# Event 375

## Metadata

| Field           | Value    |
|-----------------|----------|
| Event Index     | 44/44    |
| Offset          | 0x08AF   |
| Data Size       | 63 bytes |
| Calculated Size | 63 bytes |
| Instructions    | 9        |

```
      00 01 02 03 04 05 06 07  08 09 0A 0B 0C 0D 0E 0F
      -- -- -- -- -- -- -- --  -- -- -- -- -- -- -- --
08A0:                                               42                 B
08B0: 48 8E 80 45 24 80 F0 FF  FF 7F F0 FF FF 7F 66 64  H..E$.........fd
08C0: 6F 31 25 80 62 0F 80 F0  FF FF 7F F0 FF FF 7F 6D  o1%.b..........m
08D0: 61 69 6E 25 80 1C 7B 80  1C 78 80 45 8F 80 F0 FF  ain%..{..x.E....
08E0: FF 7F F0 FF FF 7F 77 68  69 31 25 80 21 00        ......whi1%.!.  
```

## Opcodes

```
  0: 0x08AF [0x42] SET_CLI_EVENT_CANCEL_DATA()
  1: 0x08B0 [0x48] [System] [8094*]:
    → "Entering the \u000C\u0000[/Very Difficult Intense Ambuscade/Difficult Intense Ambuscade/Normal Intense Ambuscade/Easy Intense Ambuscade/Very Easy Intense Ambuscade/Very Difficult Ambuscade/Difficult Ambuscade/Normal Ambuscade/Easy Ambuscade/Very Easy Ambuscade/Light Ambuscade].\u0000\u0007"
  2: 0x08B3 [0x45] LOAD_SCHEDULED_TASK(work_offset1=200*, entity1=LocalPlayer, entity2=LocalPlayer, scheduler_id="fdo1", work_offset2=0*)
  3: 0x08C4 [0x62] LOAD_EVENT_SCHEDULER (arg=5012): Load scheduler "main" with entities [LocalPlayer, LocalPlayer], work=[1*, 0*]
  4: 0x08D5 [0x1C] WAIT(90* ticks)
  5: 0x08D8 [0x1C] WAIT(60* ticks)
  6: 0x08DB [0x45] LOAD_SCHEDULED_TASK(work_offset1=201*, entity1=LocalPlayer, entity2=LocalPlayer, scheduler_id="whi1", work_offset2=0*)
  7: 0x08EC [0x21] END_EVENT
  8: 0x08ED [0x00] END_REQSTACK()
```
