# Event 65535

## Metadata

| Field           | Value    |
|-----------------|----------|
| Event Index     | 4/6      |
| Offset          | 0x05F0   |
| Data Size       | 85 bytes |
| Calculated Size | 85 bytes |
| Instructions    | 7        |

```
      00 01 02 03 04 05 06 07  08 09 0A 0B 0C 0D 0E 0F
      -- -- -- -- -- -- -- --  -- -- -- -- -- -- -- --
05F0: 45 02 80 F8 FF FF 7F F8  FF FF 7F 73 30 34 38 03  E..........s048.
0600: 80 1C 0D 80 52 02 80 F8  FF FF 7F F8 FF FF 7F 73  ....R..........s
0610: 30 34 38 45 04 80 F0 FF  FF 7F F0 FF FF 7F 6F 76  048E..........ov
0620: 6C 31 03 80 45 02 80 F8  FF FF 7F F8 FF FF 7F 73  l1..E..........s
0630: 30 34 39 03 80 55 02 80  F8 FF FF 7F F8 FF FF 7F  049..U..........
0640: 73 30 34 39 00                                    s049.           
```

## Opcodes

```
  0: 0x05F0 [0x45] LOAD_SCHEDULED_TASK(work_offset1=49*, entity1=EventEntity, entity2=EventEntity, scheduler_id="s048", work_offset2=0*)
  1: 0x0601 [0x1C] WAIT(160* ticks)
  2: 0x0604 [0x52] END_LOAD_SCHEDULER: End scheduler "s048" with entities [EventEntity, EventEntity], work=49*
  3: 0x0613 [0x45] LOAD_SCHEDULED_TASK(work_offset1=200*, entity1=LocalPlayer, entity2=LocalPlayer, scheduler_id="ovl1", work_offset2=0*)
  4: 0x0624 [0x45] LOAD_SCHEDULED_TASK(work_offset1=49*, entity1=EventEntity, entity2=EventEntity, scheduler_id="s049", work_offset2=0*)
  5: 0x0635 [0x55] WAIT_LOAD_SCHEDULER(work_offset=49*, entity1=EventEntity, entity2=EventEntity, scheduler_id="s049")
  6: 0x0644 [0x00] END_REQSTACK()
```
