# Event 65535

## Metadata

| Field           | Value     |
|-----------------|-----------|
| Event Index     | 14/14     |
| Offset          | 0x00C7    |
| Data Size       | 100 bytes |
| Calculated Size | 100 bytes |
| Instructions    | 9         |

```
      00 01 02 03 04 05 06 07  08 09 0A 0B 0C 0D 0E 0F
      -- -- -- -- -- -- -- --  -- -- -- -- -- -- -- --
00C0:                      1A  FB 00 00 03 00 00 17 80         .........
00D0: 07 00 00 02 10 9F 00 00  F8 FF FF 7F F8 FF FF 7F  ................
00E0: 66 72 73 74 00 80 1C 18  80 9F 00 00 F8 FF FF 7F  frst............
00F0: F8 FF FF 7F 6F 6B 30 30  00 80 1B 03 00 00 17 80  ....ok00........
0100: 07 00 00 02 10 9F 00 00  F8 FF FF 7F F8 FF FF 7F  ................
0110: 66 72 73 74 00 80 1C 18  80 9F 00 00 F8 FF FF 7F  frst............
0120: F8 FF FF 7F 6E 67 30 30  00 80 1B                 ....ng00...     
```

## Opcodes

```
  0: 0x00C7 [0x1A] CALL_SUBROUTINE(address=0x00FB)
  1: 0x00CA [0x00] END_REQSTACK()

  2: 0x00FB [0x03] ExtData[1]->WorkLocal[0] = 188*
  3: 0x0100 [0x07] ExtData[1]->WorkLocal[0] += Work_Zone[2]
  4: 0x0105 [0x9F] LOAD_SCHEDULED_TASK_ALT: Load scheduler "frst" with entities [EventEntity, EventEntity], work=[ExtData[1]->WorkLocal[0], 0*]
  5: 0x0116 [0x1C] WAIT(300* ticks)
  6: 0x0119 [0x9F] LOAD_SCHEDULED_TASK_ALT: Load scheduler "ng00" with entities [EventEntity, EventEntity], work=[ExtData[1]->WorkLocal[0], 0*]
  7: 0x012A [0x1B] RETURN
```

## Data or dead code:

```
# Data Section: 0x00CB (48 bytes)
     0x00CB: 03 00 00 17 80 07 00 00 02 10 9F 00 00 F8 FF FF
     0x00DB: 7F F8 FF FF 7F 66 72 73 74 00 80 1C 18 80 9F 00
     0x00EB: 00 F8 FF FF 7F F8 FF FF 7F 6F 6B 30 30 00 80 1B
```