# Event 65535

## Metadata

| Field           | Value    |
|-----------------|----------|
| Event Index     | 15/21    |
| Offset          | 0x01D3   |
| Data Size       | 46 bytes |
| Calculated Size | 46 bytes |
| Instructions    | 9        |

```
      00 01 02 03 04 05 06 07  08 09 0A 0B 0C 0D 0E 0F
      -- -- -- -- -- -- -- --  -- -- -- -- -- -- -- --
01D0:          53 3C 42 0A 01  3C 42 0A 01 79 65 73 30     S<B..<B..yes0
01E0: 1C 19 80 1C 1A 80 59 01  F0 FF FF 7F 1B 80 4B F0  ......Y.......K.
01F0: FF FF 7F 1C 80 7B F0 FF  FF 7F 6F 76 F0 FF FF 7F  .....{....ov....
0200: 00                                                .               
```

## Opcodes

```
  0: 0x01D3 [0x53] WAIT_SCHEDULER_TASK(entity1=Rahal (ID: 17449532/0x010A423C), entity2=Rahal (ID: 17449532/0x010A423C), action_id="yes0")
  1: 0x01E0 [0x1C] WAIT(30* ticks)
  2: 0x01E3 [0x1C] WAIT(15* ticks)
  3: 0x01E6 [0x59] UPDATE_ENTITY_DATA: Set LocalPlayer turn speed = 80*
  4: 0x01EE [0x4B] UPDATE_ENTITY_YAW(entity=LocalPlayer, yaw=5.27°*)
  5: 0x01F5 [0x7B] LocalPlayer stops talking
  6: 0x01FA [0x6F] WAIT_FRAME_DELAY: Yield until WaitTime reaches zero
  7: 0x01FB [0x76] CHECK_ENTITY_RENDER_FLAGS: Wait until LocalPlayer Render.Flags0 and Render.Flags3 conditions are met
  8: 0x0200 [0x00] END_REQSTACK()
```
