# Event 65535

## Metadata

| Field           | Value    |
|-----------------|----------|
| Event Index     | 6/21     |
| Offset          | 0x0012   |
| Data Size       | 79 bytes |
| Calculated Size | 79 bytes |
| Instructions    | 7        |

```
      00 01 02 03 04 05 06 07  08 09 0A 0B 0C 0D 0E 0F
      -- -- -- -- -- -- -- --  -- -- -- -- -- -- -- --
0010:       62 04 80 1E 80 09  01 1E 80 09 01 6D 61 69    b..........mai
0020: 6E 05 80 45 06 80 F0 FF  FF 7F F0 FF FF 7F 62 6C  n..E..........bl
0030: 6F 6E 05 80 73 07 80 14  80 09 01 1C 80 09 01 1C  on..s...........
0040: 08 80 2C 1C 80 09 01 1C  80 09 01 64 61 6D 67 45  ..,........damgE
0050: 06 80 F0 FF FF 7F F0 FF  FF 7F 62 6C 6F 66 05 80  ..........blof..
0060: 00                                                .               
```

## Opcodes

```
  0: 0x0012 [0x62] LOAD_EVENT_SCHEDULER: Load scheduler "main" with entities [Ajido-Marujido (ID: 17399838/0x0109801E), Ajido-Marujido (ID: 17399838/0x0109801E)], work=[7*, 0*]
  1: 0x0023 [0x45] LOAD_SCHEDULED_TASK: Load scheduler "blon" with entities [LocalPlayer, LocalPlayer], work=[200*, 0*]
  2: 0x0034 [0x73] DIRECTOR (ID: 17399828/0x01098014) casts magic 252* on Yagudo High Priest (ID: 17399836/0x0109801C)
  3: 0x003F [0x1C] WAIT(60* ticks)
  4: 0x0042 [0x2C] CREATE_SCHEDULER_TASK: Create scheduler "damg" with entities [Yagudo High Priest (ID: 17399836/0x0109801C), Yagudo High Priest (ID: 17399836/0x0109801C)]
  5: 0x004F [0x45] LOAD_SCHEDULED_TASK: Load scheduler "blof" with entities [LocalPlayer, LocalPlayer], work=[200*, 0*]
  6: 0x0060 [0x00] END_REQSTACK()
```
