# Event 65535

## Metadata

| Field           | Value    |
|-----------------|----------|
| Event Index     | 7/21     |
| Offset          | 0x0061   |
| Data Size       | 79 bytes |
| Calculated Size | 79 bytes |
| Instructions    | 7        |

```
      00 01 02 03 04 05 06 07  08 09 0A 0B 0C 0D 0E 0F
      -- -- -- -- -- -- -- --  -- -- -- -- -- -- -- --
0060:    62 04 80 1E 80 09 01  1E 80 09 01 6D 61 69 6E   b..........main
0070: 05 80 45 06 80 F0 FF FF  7F F0 FF FF 7F 62 6C 6F  ..E..........blo
0080: 6E 05 80 73 07 80 14 80  09 01 1A 80 09 01 1C 08  n..s............
0090: 80 2C 1A 80 09 01 1A 80  09 01 64 61 6D 67 45 06  .,........damgE.
00A0: 80 F0 FF FF 7F F0 FF FF  7F 62 6C 6F 66 05 80 00  .........blof...
```

## Opcodes

```
  0: 0x0061 [0x62] LOAD_EVENT_SCHEDULER: Load scheduler "main" with entities [Ajido-Marujido (ID: 17399838/0x0109801E), Ajido-Marujido (ID: 17399838/0x0109801E)], work=[7*, 0*]
  1: 0x0072 [0x45] LOAD_SCHEDULED_TASK: Load scheduler "blon" with entities [LocalPlayer, LocalPlayer], work=[200*, 0*]
  2: 0x0083 [0x73] DIRECTOR (ID: 17399828/0x01098014) casts magic 252* on Yagudo High Priest (ID: 17399834/0x0109801A)
  3: 0x008E [0x1C] WAIT(60* ticks)
  4: 0x0091 [0x2C] CREATE_SCHEDULER_TASK: Create scheduler "damg" with entities [Yagudo High Priest (ID: 17399834/0x0109801A), Yagudo High Priest (ID: 17399834/0x0109801A)]
  5: 0x009E [0x45] LOAD_SCHEDULED_TASK: Load scheduler "blof" with entities [LocalPlayer, LocalPlayer], work=[200*, 0*]
  6: 0x00AF [0x00] END_REQSTACK()
```
