# Event 65535

## Metadata

| Field           | Value    |
|-----------------|----------|
| Event Index     | 37/58    |
| Offset          | 0x0322   |
| Data Size       | 32 bytes |
| Calculated Size | 32 bytes |
| Instructions    | 7        |

```
      00 01 02 03 04 05 06 07  08 09 0A 0B 0C 0D 0E 0F
      -- -- -- -- -- -- -- --  -- -- -- -- -- -- -- --
0320:       59 04 F9 D1 03 01  21 80 1F 00 4E 80 4F 80    Y.....!...N.O.
0330: 00 80 1F 01 6F 4B F9 D1  03 01 50 80 7B F9 D1 03  ....oK....P.{...
0340: 01 00                                             ..              
```

## Opcodes

```
  0: 0x0322 [0x59] UPDATE_ENTITY_DATA: Set ??? (ID: 17027577/0x0103D1F9) main speed = 14* * 0.1
  1: 0x032A [0x1F] MOVE_ENTITY: EventEntity moves to X=0.154*, Z=-26.494*, Y=0.000*
  2: 0x0332 [0x1F] MOVE_ENTITY: Update entity position (mode=1)
  3: 0x0334 [0x6F] WAIT_FRAME_DELAY: Yield until WaitTime reaches zero
  4: 0x0335 [0x4B] UPDATE_ENTITY_YAW(entity=??? (ID: 17027577/0x0103D1F9), yaw=5.49°*)
  5: 0x033C [0x7B] ??? (ID: 17027577/0x0103D1F9) stops talking
  6: 0x0341 [0x00] END_REQSTACK()
```
