# Event 65535

## Metadata

| Field           | Value    |
|-----------------|----------|
| Event Index     | 50/58    |
| Offset          | 0x04B9   |
| Data Size       | 42 bytes |
| Calculated Size | 42 bytes |
| Instructions    | 8        |

```
      00 01 02 03 04 05 06 07  08 09 0A 0B 0C 0D 0E 0F
      -- -- -- -- -- -- -- --  -- -- -- -- -- -- -- --
04B0:                             1F 00 75 80 76 80 72           ..u.v.r
04C0: 80 1F 01 6F 4A 20 D2 03  01 F8 D1 03 01 6F 76 20  ...oJ .......ov 
04D0: D2 03 01 5B 63 80 20 D2  03 01 20 D2 03 01 6B 74  ...[c. ... ...kt
04E0: 6E 30 00                                          n0.             
```

## Opcodes

```
  0: 0x04B9 [0x1F] MOVE_ENTITY: EventEntity moves to X=-572.352*, Z=-363.753*, Y=-10.000*
  1: 0x04C1 [0x1F] MOVE_ENTITY: Update entity position (mode=1)
  2: 0x04C3 [0x6F] WAIT_FRAME_DELAY: Yield until WaitTime reaches zero
  3: 0x04C4 [0x4A] yagu8 (ID: 17027616/0x0103D220) looks at Shayeeha (ID: 17027576/0x0103D1F8)
  4: 0x04CD [0x6F] WAIT_FRAME_DELAY: Yield until WaitTime reaches zero
  5: 0x04CE [0x76] CHECK_ENTITY_RENDER_FLAGS: Wait until yagu8 (ID: 17027616/0x0103D220) Render.Flags0 and Render.Flags3 conditions are met
  6: 0x04D3 [0x5B] LOAD_EXT_SCHEDULER: Load scheduler "ktn0" with entities [yagu8 (ID: 17027616/0x0103D220), yagu8 (ID: 17027616/0x0103D220)], work=857*
  7: 0x04E2 [0x00] END_REQSTACK()
```
