# Event 65535

## Metadata

| Field           | Value    |
|-----------------|----------|
| Event Index     | 4/78     |
| Offset          | 0x000D   |
| Data Size       | 53 bytes |
| Calculated Size | 53 bytes |
| Instructions    | 12       |

```
      00 01 02 03 04 05 06 07  08 09 0A 0B 0C 0D 0E 0F
      -- -- -- -- -- -- -- --  -- -- -- -- -- -- -- --
0000:                                         22 00 37               ".7
0010: 01 80 02 80 03 80 04 80  32 05 80 1F 00 06 80 07  ........2.......
0020: 80 03 80 1F 01 1F 00 08  80 09 80 0A 80 1F 01 1F  ................
0030: 00 0B 80 0C 80 0A 80 1F  01 1E 1D D0 0E 01 1C 0D  ................
0040: 80 00                                             ..              
```

## Opcodes

```
  0: 0x000D [0x22] ENTITY_HIDE_FLAG(enabled=0x00)
  1: 0x000F [0x37] UPDATE_EVENT_POSITION_AND_DIR: x=88.497*, z=12.295*, y=-20.170*, direction=295.2°*
  2: 0x0018 [0x32] ExtData[1]->MainSpeed = 13* * 0.1
  3: 0x001B [0x1F] MOVE_ENTITY: EventEntity moves to X=89.297*, Z=13.295*, Y=-20.170*
  4: 0x0023 [0x1F] MOVE_ENTITY: Update entity position (mode=1)
  5: 0x0025 [0x1F] MOVE_ENTITY: EventEntity moves to X=91.404*, Z=14.382*, Y=-20.185*
  6: 0x002D [0x1F] MOVE_ENTITY: Update entity position (mode=1)
  7: 0x002F [0x1F] MOVE_ENTITY: EventEntity moves to X=95.833*, Z=14.597*, Y=-20.185*
  8: 0x0037 [0x1F] MOVE_ENTITY: Update entity position (mode=1)
  9: 0x0039 [0x1E] EventEntity looks at Alois (ID: 17747997/0x010ED01D) and starts talking
 10: 0x003E [0x1C] WAIT(30* ticks)
 11: 0x0041 [0x00] END_REQSTACK()
```
