# Event 65535

## Metadata

| Field           | Value    |
|-----------------|----------|
| Event Index     | 16/78    |
| Offset          | 0x00B7   |
| Data Size       | 49 bytes |
| Calculated Size | 49 bytes |
| Instructions    | 11       |

```
      00 01 02 03 04 05 06 07  08 09 0A 0B 0C 0D 0E 0F
      -- -- -- -- -- -- -- --  -- -- -- -- -- -- -- --
00B0:                      22  00 32 05 80 33 01 37 24         ".2..3.7$
00C0: 80 25 80 26 80 27 80 79  00 F8 FF FF 7F 2D D0 0E  .%.&.'.y.....-..
00D0: 01 5A 00 28 80 29 80 2A  80 5A 01 5A 00 2B 80 2C  .Z.(.).*.Z.Z.+.,
00E0: 80 2A 80 5A 01 33 01 00                           .*.Z.3..        
```

## Opcodes

```
  0: 0x00B7 [0x22] ENTITY_HIDE_FLAG(enabled=0x00)
  1: 0x00B9 [0x32] ExtData[1]->MainSpeed = 13* * 0.1
  2: 0x00BC [0x33] EventEntity->Render.Flags0 |= 0x200000 // Bit 21 (flag=0x01)
  3: 0x00BE [0x37] UPDATE_EVENT_POSITION_AND_DIR: x=74.031*, z=-0.034*, y=-18.000*, direction=168.0°*
  4: 0x00C7 [0x79] EventEntity looks at Naji (ID: 17748013/0x010ED02D) (Basic look)
  5: 0x00D1 [0x5A] UPDATE_EVENT_POSITION: Set EventEntity MovePosition to X=67.539*, Z=-1.148*, Y=-14.000*
  6: 0x00D9 [0x5A] UPDATE_EVENT_POSITION: Move EventEntity incrementally towards MovePosition
  7: 0x00DB [0x5A] UPDATE_EVENT_POSITION: Set EventEntity MovePosition to X=66.953*, Z=-2.315*, Y=-14.000*
  8: 0x00E3 [0x5A] UPDATE_EVENT_POSITION: Move EventEntity incrementally towards MovePosition
  9: 0x00E5 [0x33] EventEntity->Render.Flags0 |= 0x200000 // Bit 21 (flag=0x01)
 10: 0x00E7 [0x00] END_REQSTACK()
```
