# Event 65535

## Metadata

| Field           | Value    |
|-----------------|----------|
| Event Index     | 25/78    |
| Offset          | 0x012A   |
| Data Size       | 44 bytes |
| Calculated Size | 44 bytes |
| Instructions    | 9        |

```
      00 01 02 03 04 05 06 07  08 09 0A 0B 0C 0D 0E 0F
      -- -- -- -- -- -- -- --  -- -- -- -- -- -- -- --
0120:                                32 05 80 37 34 80            2..74.
0130: 35 80 03 80 36 80 79 00  30 D0 0E 01 1D D0 0E 01  5...6.y.0.......
0140: 1F 00 37 80 38 80 03 80  1F 01 1F 00 39 80 3A 80  ..7.8.......9.:.
0150: 03 80 1F 01 6F 00                                 ....o.          
```

## Opcodes

```
  0: 0x012A [0x32] ExtData[1]->MainSpeed = 13* * 0.1
  1: 0x012D [0x37] UPDATE_EVENT_POSITION_AND_DIR: x=91.287*, z=15.152*, y=-20.170*, direction=343.4°*
  2: 0x0136 [0x79] Iron Eater (ID: 17748016/0x010ED030) looks at Alois (ID: 17747997/0x010ED01D) (Basic look)
  3: 0x0140 [0x1F] MOVE_ENTITY: EventEntity moves to X=94.289*, Z=16.214*, Y=-20.170*
  4: 0x0148 [0x1F] MOVE_ENTITY: Update entity position (mode=1)
  5: 0x014A [0x1F] MOVE_ENTITY: EventEntity moves to X=96.772*, Z=15.700*, Y=-20.170*
  6: 0x0152 [0x1F] MOVE_ENTITY: Update entity position (mode=1)
  7: 0x0154 [0x6F] WAIT_FRAME_DELAY: Yield until WaitTime reaches zero
  8: 0x0155 [0x00] END_REQSTACK()
```
