# Event 65535

## Metadata

| Field           | Value    |
|-----------------|----------|
| Event Index     | 21/37    |
| Offset          | 0x0169   |
| Data Size       | 48 bytes |
| Calculated Size | 48 bytes |
| Instructions    | 11       |

```
      00 01 02 03 04 05 06 07  08 09 0A 0B 0C 0D 0E 0F
      -- -- -- -- -- -- -- --  -- -- -- -- -- -- -- --
0160:                             02 04 00 29 80 01 98           ...)...
0170: 01 32 34 80 1F 00 2B 80  2C 80 2D 80 1F 01 1F 00  .24...+.,.-.....
0180: 2E 80 2F 80 00 80 1F 01  1F 00 30 80 31 80 32 80  ../.......0.1.2.
0190: 1F 01 1C 33 80 01 69 01  00                       ...3..i..       
```

## Opcodes

```
  0: 0x0169 [0x02] IF !(ExtData[1]->WorkLocal[4] == 2*) GOTO 0x0198
  1: 0x0171 [0x32] ExtData[1]->MainSpeed = 19* * 0.1
  2: 0x0174 [0x1F] MOVE_ENTITY: EventEntity moves to X=-604.741*, Z=603.338*, Y=0.035*
  3: 0x017C [0x1F] MOVE_ENTITY: Update entity position (mode=1)
  4: 0x017E [0x1F] MOVE_ENTITY: EventEntity moves to X=-601.147*, Z=602.770*, Y=0.000*
  5: 0x0186 [0x1F] MOVE_ENTITY: Update entity position (mode=1)
  6: 0x0188 [0x1F] MOVE_ENTITY: EventEntity moves to X=-598.147*, Z=604.645*, Y=0.031*
  7: 0x0190 [0x1F] MOVE_ENTITY: Update entity position (mode=1)
  8: 0x0192 [0x1C] WAIT(60* ticks)
  9: 0x0195 [0x01] GOTO 0x0169

SUBROUTINE_0198:
 10: 0x0198 [0x00] END_REQSTACK()
```
