# Event 65535

## Metadata

| Field           | Value    |
|-----------------|----------|
| Event Index     | 20/37    |
| Offset          | 0x0139   |
| Data Size       | 48 bytes |
| Calculated Size | 48 bytes |
| Instructions    | 11       |

```
      00 01 02 03 04 05 06 07  08 09 0A 0B 0C 0D 0E 0F
      -- -- -- -- -- -- -- --  -- -- -- -- -- -- -- --
0130:                             02 04 00 29 80 01 68           ...)..h
0140: 01 32 2A 80 1F 00 2B 80  2C 80 2D 80 1F 01 1F 00  .2*...+.,.-.....
0150: 2E 80 2F 80 00 80 1F 01  1F 00 30 80 31 80 32 80  ../.......0.1.2.
0160: 1F 01 1C 33 80 01 39 01  00                       ...3..9..       
```

## Opcodes

```
  0: 0x0139 [0x02] IF !(ExtData[1]->WorkLocal[4] == 2*) GOTO 0x0168
  1: 0x0141 [0x32] ExtData[1]->MainSpeed = 10* * 0.1
  2: 0x0144 [0x1F] MOVE_ENTITY: EventEntity moves to X=-604.741*, Z=603.338*, Y=0.035*
  3: 0x014C [0x1F] MOVE_ENTITY: Update entity position (mode=1)
  4: 0x014E [0x1F] MOVE_ENTITY: EventEntity moves to X=-601.147*, Z=602.770*, Y=0.000*
  5: 0x0156 [0x1F] MOVE_ENTITY: Update entity position (mode=1)
  6: 0x0158 [0x1F] MOVE_ENTITY: EventEntity moves to X=-598.147*, Z=604.645*, Y=0.031*
  7: 0x0160 [0x1F] MOVE_ENTITY: Update entity position (mode=1)
  8: 0x0162 [0x1C] WAIT(60* ticks)
  9: 0x0165 [0x01] GOTO 0x0139
 10: 0x0168 [0x00] END_REQSTACK()
```
