# Event 65535

## Metadata

| Field           | Value    |
|-----------------|----------|
| Event Index     | 29/37    |
| Offset          | 0x02B0   |
| Data Size       | 50 bytes |
| Calculated Size | 50 bytes |
| Instructions    | 12       |

```
      00 01 02 03 04 05 06 07  08 09 0A 0B 0C 0D 0E 0F
      -- -- -- -- -- -- -- --  -- -- -- -- -- -- -- --
02B0: 32 34 80 1F 00 55 80 56  80 57 80 1F 01 1C 33 80  24...U.V.W....3.
02C0: 1F 00 51 80 52 80 53 80  1F 01 1C 33 80 1F 00 35  ..Q.R.S....3...5
02D0: 80 36 80 37 80 1F 01 4B  93 A0 0E 01 54 80 1C 33  .6.7...K....T..3
02E0: 80 00                                             ..              
```

## Opcodes

```
  0: 0x02B0 [0x32] ExtData[1]->MainSpeed = 19* * 0.1
  1: 0x02B3 [0x1F] MOVE_ENTITY: EventEntity moves to X=-599.892*, Z=588.477*, Y=0.373*
  2: 0x02BB [0x1F] MOVE_ENTITY: Update entity position (mode=1)
  3: 0x02BD [0x1C] WAIT(60* ticks)
  4: 0x02C0 [0x1F] MOVE_ENTITY: EventEntity moves to X=-602.144*, Z=586.825*, Y=0.376*
  5: 0x02C8 [0x1F] MOVE_ENTITY: Update entity position (mode=1)
  6: 0x02CA [0x1C] WAIT(60* ticks)
  7: 0x02CD [0x1F] MOVE_ENTITY: EventEntity moves to X=-600.128*, Z=585.578*, Y=0.628*
  8: 0x02D5 [0x1F] MOVE_ENTITY: Update entity position (mode=1)
  9: 0x02D7 [0x4B] UPDATE_ENTITY_YAW(entity=Unnamed NPC (ID: 17735827/0x010EA093), yaw=11.8°*)
 10: 0x02DE [0x1C] WAIT(60* ticks)
 11: 0x02E1 [0x00] END_REQSTACK()
```
