# Event 65535

## Metadata

| Field           | Value    |
|-----------------|----------|
| Event Index     | 34/37    |
| Offset          | 0x0374   |
| Data Size       | 51 bytes |
| Calculated Size | 51 bytes |
| Instructions    | 11       |

```
      00 01 02 03 04 05 06 07  08 09 0A 0B 0C 0D 0E 0F
      -- -- -- -- -- -- -- --  -- -- -- -- -- -- -- --
0370:             32 05 80 1F  00 68 80 69 80 05 80 1F      2....h.i....
0380: 01 1F 00 6A 80 6B 80 6C  80 1F 01 1F 00 6D 80 6E  ...j.k.l.....m.n
0390: 80 6F 80 1F 01 1E 91 A0  0E 01 1C 45 80 4A 91 A0  .o.........E.J..
03A0: 0E 01 93 A0 0E 01 00                              .......         
```

## Opcodes

```
  0: 0x0374 [0x32] ExtData[1]->MainSpeed = 57* * 0.1
  1: 0x0377 [0x1F] MOVE_ENTITY: EventEntity moves to X=-604.257*, Z=586.573*, Y=0.057*
  2: 0x037F [0x1F] MOVE_ENTITY: Update entity position (mode=1)
  3: 0x0381 [0x1F] MOVE_ENTITY: EventEntity moves to X=-603.318*, Z=588.527*, Y=0.196*
  4: 0x0389 [0x1F] MOVE_ENTITY: Update entity position (mode=1)
  5: 0x038B [0x1F] MOVE_ENTITY: EventEntity moves to X=-601.495*, Z=586.040*, Y=0.496*
  6: 0x0393 [0x1F] MOVE_ENTITY: Update entity position (mode=1)
  7: 0x0395 [0x1E] EventEntity looks at Unnamed NPC (ID: 17735825/0x010EA091) and starts talking
  8: 0x039A [0x1C] WAIT(30* ticks)
  9: 0x039D [0x4A] Unnamed NPC (ID: 17735825/0x010EA091) looks at Unnamed NPC (ID: 17735827/0x010EA093)
 10: 0x03A6 [0x00] END_REQSTACK()
```
