# Event 65535

## Metadata

| Field           | Value    |
|-----------------|----------|
| Event Index     | 25/37    |
| Offset          | 0x01E4   |
| Data Size       | 66 bytes |
| Calculated Size | 66 bytes |
| Instructions    | 16       |

```
      00 01 02 03 04 05 06 07  08 09 0A 0B 0C 0D 0E 0F
      -- -- -- -- -- -- -- --  -- -- -- -- -- -- -- --
01E0:             32 34 80 1F  00 39 80 3A 80 3B 80 1F      24...9.:.;..
01F0: 01 1C 45 80 1F 00 3C 80  3D 80 3E 80 1F 01 1C 45  ..E...<.=.>....E
0200: 80 1F 00 3F 80 40 80 41  80 1F 01 1C 45 80 1F 00  ...?.@.A....E...
0210: 42 80 43 80 44 80 1F 01  1C 45 80 1F 00 35 80 36  B.C.D....E...5.6
0220: 80 37 80 1F 01 00                                 .7....          
```

## Opcodes

```
  0: 0x01E4 [0x32] ExtData[1]->MainSpeed = 19* * 0.1
  1: 0x01E7 [0x1F] MOVE_ENTITY: EventEntity moves to X=-601.910*, Z=587.743*, Y=0.274*
  2: 0x01EF [0x1F] MOVE_ENTITY: Update entity position (mode=1)
  3: 0x01F1 [0x1C] WAIT(30* ticks)
  4: 0x01F4 [0x1F] MOVE_ENTITY: EventEntity moves to X=-600.199*, Z=588.994*, Y=0.347*
  5: 0x01FC [0x1F] MOVE_ENTITY: Update entity position (mode=1)
  6: 0x01FE [0x1C] WAIT(30* ticks)
  7: 0x0201 [0x1F] MOVE_ENTITY: EventEntity moves to X=-599.211*, Z=586.089*, Y=0.586*
  8: 0x0209 [0x1F] MOVE_ENTITY: Update entity position (mode=1)
  9: 0x020B [0x1C] WAIT(30* ticks)
 10: 0x020E [0x1F] MOVE_ENTITY: EventEntity moves to X=-599.391*, Z=583.375*, Y=0.830*
 11: 0x0216 [0x1F] MOVE_ENTITY: Update entity position (mode=1)
 12: 0x0218 [0x1C] WAIT(30* ticks)
 13: 0x021B [0x1F] MOVE_ENTITY: EventEntity moves to X=-600.128*, Z=585.578*, Y=0.628*
 14: 0x0223 [0x1F] MOVE_ENTITY: Update entity position (mode=1)
 15: 0x0225 [0x00] END_REQSTACK()
```
