# Event 65535

## Metadata

| Field           | Value    |
|-----------------|----------|
| Event Index     | 35/37    |
| Offset          | 0x03A7   |
| Data Size       | 59 bytes |
| Calculated Size | 59 bytes |
| Instructions    | 13       |

```
      00 01 02 03 04 05 06 07  08 09 0A 0B 0C 0D 0E 0F
      -- -- -- -- -- -- -- --  -- -- -- -- -- -- -- --
03A0:                      32  2A 80 1F 00 70 80 71 80         2*...p.q.
03B0: 72 80 1F 01 1F 00 73 80  74 80 75 80 1F 01 1F 00  r.....s.t.u.....
03C0: 76 80 77 80 78 80 1F 01  1F 00 79 80 7A 80 7B 80  v.w.x.....y.z.{.
03D0: 1F 01 1F 00 7C 80 7D 80  7E 80 1F 01 1E 91 A0 0E  ....|.}.~.......
03E0: 01 00                                             ..              
```

## Opcodes

```
  0: 0x03A7 [0x32] ExtData[1]->MainSpeed = 10* * 0.1
  1: 0x03AA [0x1F] MOVE_ENTITY: EventEntity moves to X=-601.361*, Z=584.507*, Y=0.542*
  2: 0x03B2 [0x1F] MOVE_ENTITY: Update entity position (mode=1)
  3: 0x03B4 [0x1F] MOVE_ENTITY: EventEntity moves to X=-600.414*, Z=583.859*, Y=0.704*
  4: 0x03BC [0x1F] MOVE_ENTITY: Update entity position (mode=1)
  5: 0x03BE [0x1F] MOVE_ENTITY: EventEntity moves to X=-599.376*, Z=585.276*, Y=0.668*
  6: 0x03C6 [0x1F] MOVE_ENTITY: Update entity position (mode=1)
  7: 0x03C8 [0x1F] MOVE_ENTITY: EventEntity moves to X=-598.992*, Z=587.260*, Y=0.468*
  8: 0x03D0 [0x1F] MOVE_ENTITY: Update entity position (mode=1)
  9: 0x03D2 [0x1F] MOVE_ENTITY: EventEntity moves to X=-599.942*, Z=587.474*, Y=0.447*
 10: 0x03DA [0x1F] MOVE_ENTITY: Update entity position (mode=1)
 11: 0x03DC [0x1E] EventEntity looks at Unnamed NPC (ID: 17735825/0x010EA091) and starts talking
 12: 0x03E1 [0x00] END_REQSTACK()
```
