# Event 65535

## Metadata

| Field           | Value    |
|-----------------|----------|
| Event Index     | 30/37    |
| Offset          | 0x02E2   |
| Data Size       | 67 bytes |
| Calculated Size | 67 bytes |
| Instructions    | 15       |

```
      00 01 02 03 04 05 06 07  08 09 0A 0B 0C 0D 0E 0F
      -- -- -- -- -- -- -- --  -- -- -- -- -- -- -- --
02E0:       32 05 80 1F 00 58  80 59 80 5A 80 1F 01 4B    2....X.Y.Z...K
02F0: 93 A0 0E 01 5B 80 1C 33  80 1F 00 5C 80 5D 80 5E  ....[..3...\.].^
0300: 80 1F 01 4B 93 A0 0E 01  5F 80 1C 60 80 1F 00 61  ...K...._..`...a
0310: 80 62 80 63 80 1F 01 1C  45 80 4B 93 A0 0E 01 64  .b.c....E.K....d
0320: 80 1C 33 80 00                                    ..3..           
```

## Opcodes

```
  0: 0x02E2 [0x32] ExtData[1]->MainSpeed = 57* * 0.1
  1: 0x02E5 [0x1F] MOVE_ENTITY: EventEntity moves to X=-599.295*, Z=590.678*, Y=0.264*
  2: 0x02ED [0x1F] MOVE_ENTITY: Update entity position (mode=1)
  3: 0x02EF [0x4B] UPDATE_ENTITY_YAW(entity=Unnamed NPC (ID: 17735827/0x010EA093), yaw=5.3°*)
  4: 0x02F6 [0x1C] WAIT(60* ticks)
  5: 0x02F9 [0x1F] MOVE_ENTITY: EventEntity moves to X=-604.353*, Z=586.292*, Y=0.138*
  6: 0x0301 [0x1F] MOVE_ENTITY: Update entity position (mode=1)
  7: 0x0303 [0x4B] UPDATE_ENTITY_YAW(entity=Unnamed NPC (ID: 17735827/0x010EA093), yaw=0.2°*)
  8: 0x030A [0x1C] WAIT(240* ticks)
  9: 0x030D [0x1F] MOVE_ENTITY: EventEntity moves to X=-600.328*, Z=582.410*, Y=0.802*
 10: 0x0315 [0x1F] MOVE_ENTITY: Update entity position (mode=1)
 11: 0x0317 [0x1C] WAIT(30* ticks)
 12: 0x031A [0x4B] UPDATE_ENTITY_YAW(entity=Unnamed NPC (ID: 17735827/0x010EA093), yaw=16.6°*)
 13: 0x0321 [0x1C] WAIT(60* ticks)
 14: 0x0324 [0x00] END_REQSTACK()
```
