# Event 65535

## Metadata

| Field           | Value    |
|-----------------|----------|
| Event Index     | 28/37    |
| Offset          | 0x027E   |
| Data Size       | 50 bytes |
| Calculated Size | 50 bytes |
| Instructions    | 12       |

```
      00 01 02 03 04 05 06 07  08 09 0A 0B 0C 0D 0E 0F
      -- -- -- -- -- -- -- --  -- -- -- -- -- -- -- --
0270:                                            32 2A                2*
0280: 80 1F 00 4E 80 4F 80 50  80 1F 01 1C 33 80 1F 00  ...N.O.P....3...
0290: 51 80 52 80 53 80 1F 01  1C 33 80 1F 00 35 80 36  Q.R.S....3...5.6
02A0: 80 37 80 1F 01 4B 93 A0  0E 01 54 80 1C 33 80 00  .7...K....T..3..
```

## Opcodes

```
  0: 0x027E [0x32] ExtData[1]->MainSpeed = 10* * 0.1
  1: 0x0281 [0x1F] MOVE_ENTITY: EventEntity moves to X=-600.221*, Z=588.558*, Y=0.369*
  2: 0x0289 [0x1F] MOVE_ENTITY: Update entity position (mode=1)
  3: 0x028B [0x1C] WAIT(60* ticks)
  4: 0x028E [0x1F] MOVE_ENTITY: EventEntity moves to X=-602.144*, Z=586.825*, Y=0.376*
  5: 0x0296 [0x1F] MOVE_ENTITY: Update entity position (mode=1)
  6: 0x0298 [0x1C] WAIT(60* ticks)
  7: 0x029B [0x1F] MOVE_ENTITY: EventEntity moves to X=-600.128*, Z=585.578*, Y=0.628*
  8: 0x02A3 [0x1F] MOVE_ENTITY: Update entity position (mode=1)
  9: 0x02A5 [0x4B] UPDATE_ENTITY_YAW(entity=Unnamed NPC (ID: 17735827/0x010EA093), yaw=11.79°*)
 10: 0x02AC [0x1C] WAIT(60* ticks)
 11: 0x02AF [0x00] END_REQSTACK()
```
