# Event 65535

## Metadata

| Field           | Value    |
|-----------------|----------|
| Event Index     | 32/64    |
| Offset          | 0x01C5   |
| Data Size       | 37 bytes |
| Calculated Size | 37 bytes |
| Instructions    | 9        |

```
      00 01 02 03 04 05 06 07  08 09 0A 0B 0C 0D 0E 0F
      -- -- -- -- -- -- -- --  -- -- -- -- -- -- -- --
01C0:                29 08 0C  00 0F 01 01 1D 25 80 23       ).......%.#
01D0: 1D 26 80 23 29 08 0C 00  0F 01 02 29 08 0C 00 0F  .&.#)......)....
01E0: 01 04 29 08 0C 00 0F 01  05 00                    ..).......      
```

## Opcodes

```
  0: 0x01C5 [0x29] REQ_SET_WAIT(priority=0x08, entity_id=Semih Lafihna (ID: 17760268/0x010F000C), tag_num=0x01)
  1: 0x01CC [0x1D] PRINT_EVENT_MESSAGE(message_id=3878*)
    → "I am Semih Lafihna.\u0007I am a perrrsonal guard to the Star Sibyl, who presides over the lands of Windurst.\u007F1\u0000\u0007"
  2: 0x01CF [0x23] WAIT_FOR_DIALOG_INTERACTION
  3: 0x01D0 [0x1D] PRINT_EVENT_MESSAGE(message_id=3879*)
    → "If you intend on settling in Windurst, feel free to ask me forrr advice. Is there anything you want to know?\u007F1\u0000\u0007"
  4: 0x01D3 [0x23] WAIT_FOR_DIALOG_INTERACTION
  5: 0x01D4 [0x29] REQ_SET_WAIT(priority=0x08, entity_id=Semih Lafihna (ID: 17760268/0x010F000C), tag_num=0x02)
  6: 0x01DB [0x29] REQ_SET_WAIT(priority=0x08, entity_id=Semih Lafihna (ID: 17760268/0x010F000C), tag_num=0x04)
  7: 0x01E2 [0x29] REQ_SET_WAIT(priority=0x08, entity_id=Semih Lafihna (ID: 17760268/0x010F000C), tag_num=0x05)
  8: 0x01E9 [0x00] END_REQSTACK()
```
