# Event 65535

## Metadata

| Field           | Value    |
|-----------------|----------|
| Event Index     | 62/64    |
| Offset          | 0x041D   |
| Data Size       | 20 bytes |
| Calculated Size | 20 bytes |
| Instructions    | 8        |

```
      00 01 02 03 04 05 06 07  08 09 0A 0B 0C 0D 0E 0F
      -- -- -- -- -- -- -- --  -- -- -- -- -- -- -- --
0410:                                         1D 5B 80               .[.
0420: 23 1D 5C 80 23 4B 0C 00  0F 01 5D 80 1D 5E 80 23  #.\.#K....]..^.#
0430: 00                                                .               
```

## Opcodes

```
  0: 0x041D [0x1D] PRINT_EVENT_MESSAGE(message_id=3927*)
    → "Then finally, there is the most imporrrtant building in the port area, the Orastery and its Mage Academy, that you can see behind me.\u007F1\u0000\u0007"
  1: 0x0420 [0x23] WAIT_FOR_DIALOG_INTERACTION
  2: 0x0421 [0x1D] PRINT_EVENT_MESSAGE(message_id=3928*)
    → "The Orastery is one of Windurst's five ministries of magic, most famous forrr its War Warlocks, an army composed of talented mages and magic users.\u007F1\u0000\u0007"
  3: 0x0424 [0x23] WAIT_FOR_DIALOG_INTERACTION
  4: 0x0425 [0x4B] UPDATE_ENTITY_YAW(entity=Semih Lafihna (ID: 17760268/0x010F000C), yaw=13.80°*)
  5: 0x042C [0x1D] PRINT_EVENT_MESSAGE(message_id=3929*)
    → "Only the most elite Tarutaru are affiliated with the War Warlocks, so some are a rrreal handful to keep in line at ti...\u007F1\u0000\u0007"
  6: 0x042F [0x23] WAIT_FOR_DIALOG_INTERACTION
  7: 0x0430 [0x00] END_REQSTACK()
```
