# Event 65535

## Metadata

| Field           | Value    |
|-----------------|----------|
| Event Index     | 60/64    |
| Offset          | 0x03F9   |
| Data Size       | 27 bytes |
| Calculated Size | 27 bytes |
| Instructions    | 9        |

```
      00 01 02 03 04 05 06 07  08 09 0A 0B 0C 0D 0E 0F
      -- -- -- -- -- -- -- --  -- -- -- -- -- -- -- --
03F0:                             1D 56 80 23 1D 57 80           .V.#.W.
0400: 23 1D 58 80 23 29 08 0C  00 0F 01 0A 29 08 0C 00  #.X.#)......)...
0410: 0F 01 0B 00                                       ....            
```

## Opcodes

```
  0: 0x03F9 [0x1D] PRINT_EVENT_MESSAGE(message_id=3922*)
    → "Forrr instance, if you cross this open space and follow the path to the east farrr enough, you'll find the air travel agency where the airships operate out of.\u007F1\u0000\u0007"
  1: 0x03FC [0x23] WAIT_FOR_DIALOG_INTERACTION
  2: 0x03FD [0x1D] PRINT_EVENT_MESSAGE(message_id=3923*)
    → "In order to ride an airship though, you'll need to have gained quite an amount of fame or forrrtune. But...\u007F1\u0000\u0007"
  3: 0x0400 [0x23] WAIT_FOR_DIALOG_INTERACTION
  4: 0x0401 [0x1D] PRINT_EVENT_MESSAGE(message_id=3924*)
    → "...I'm sure you'll work hard enough to ride on an airrrship one day. You'll then be able to fly to a country called Jeuno.\u007F1\u0000\u0007"
  5: 0x0404 [0x23] WAIT_FOR_DIALOG_INTERACTION
  6: 0x0405 [0x29] REQ_SET_WAIT(priority=0x08, entity_id=Semih Lafihna (ID: 17760268/0x010F000C), tag_num=0x0A)
  7: 0x040C [0x29] REQ_SET_WAIT(priority=0x08, entity_id=Semih Lafihna (ID: 17760268/0x010F000C), tag_num=0x0B)
  8: 0x0413 [0x00] END_REQSTACK()
```
