# Event 65535

## Metadata

| Field           | Value    |
|-----------------|----------|
| Event Index     | 42/69    |
| Offset          | 0x0204   |
| Data Size       | 40 bytes |
| Calculated Size | 40 bytes |
| Instructions    | 6        |

```
      00 01 02 03 04 05 06 07  08 09 0A 0B 0C 0D 0E 0F
      -- -- -- -- -- -- -- --  -- -- -- -- -- -- -- --
0200:             06 09 10 5B  4A 80 9B F3 05 01 9B F3      ...[J.......
0210: 05 01 74 68 61 30 1C 4B  80 5B 4A 80 9B F3 05 01  ..tha0.K.[J.....
0220: 9B F3 05 01 74 68 61 31  05 09 10 00              ....tha1....    
```

## Opcodes

```
  0: 0x0204 [0x06] Work_Zone[9] = 0
  1: 0x0207 [0x5B] LOAD_EXT_SCHEDULER: Load scheduler "tha0" with entities [Lehko Habhoka (ID: 17167259/0x0105F39B), Lehko Habhoka (ID: 17167259/0x0105F39B)], work=1443*
  2: 0x0216 [0x1C] WAIT(120* ticks)
  3: 0x0219 [0x5B] LOAD_EXT_SCHEDULER: Load scheduler "tha1" with entities [Lehko Habhoka (ID: 17167259/0x0105F39B), Lehko Habhoka (ID: 17167259/0x0105F39B)], work=1443*
  4: 0x0228 [0x05] Work_Zone[9] = 1
  5: 0x022B [0x00] END_REQSTACK()
```
