# Event 165

## Metadata

| Field           | Value    |
|-----------------|----------|
| Event Index     | 13/20    |
| Offset          | 0x006D   |
| Data Size       | 46 bytes |
| Calculated Size | 46 bytes |
| Instructions    | 10       |

```
      00 01 02 03 04 05 06 07  08 09 0A 0B 0C 0D 0E 0F
      -- -- -- -- -- -- -- --  -- -- -- -- -- -- -- --
0060:                                         42 1E F0               B..
0070: FF FF 7F 6F 70 66 0E 80  F8 FF FF 7F F8 FF FF 7F  ...opf..........
0080: 70 61 73 30 1D 0F 80 23  45 10 80 F0 FF FF 7F F0  pas0...#E.......
0090: FF FF 7F 71 73 74 63 08  80 21 00                 ...qstc..!.     
```

## Opcodes

```
  0: 0x006D [0x42] SET_CLI_EVENT_CANCEL_DATA()
  1: 0x006E [0x1E] EventEntity looks at LocalPlayer and starts talking
  2: 0x0073 [0x6F] WAIT_FRAME_DELAY: Yield until WaitTime reaches zero
  3: 0x0074 [0x70] WAIT_ENTITY_RENDER_FLAG: Wait while EventEntity->Render.Flags3 bit 2 is set (cancel turn if not)
  4: 0x0075 [0x66] LOAD_EXT_SCHEDULER_MAIN: Load scheduler "pas0" with entities [EventEntity, EventEntity], work=60*
  5: 0x0084 [0x1D] PRINT_EVENT_MESSAGE(message_id=11089*)
    → "I've finished the greaves.\u0007These hold the soul of Raogrimm. Use them as he would have.\u007F1\u0000\u0007"
  6: 0x0087 [0x23] WAIT_FOR_DIALOG_INTERACTION
  7: 0x0088 [0x45] LOAD_SCHEDULED_TASK: Load scheduler "qstc" with entities [LocalPlayer, LocalPlayer], work=[201*, 0*]
  8: 0x0099 [0x21] END_EVENT
  9: 0x009A [0x00] END_REQSTACK()
```
