# Event 504

## Metadata

| Field           | Value    |
|-----------------|----------|
| Event Index     | 20/20    |
| Offset          | 0x0112   |
| Data Size       | 37 bytes |
| Calculated Size | 37 bytes |
| Instructions    | 11       |

```
      00 01 02 03 04 05 06 07  08 09 0A 0B 0C 0D 0E 0F
      -- -- -- -- -- -- -- --  -- -- -- -- -- -- -- --
0110:       42 48 1D 80 1E F0  FF FF 7F 1C 0B 80 1D 1E    BH............
0120: 80 23 66 0E 80 03 A0 0E  01 03 A0 0E 01 6B 75 64  .#f..........kud
0130: 30 1D 1F 80 23 21 00                              0...#!.         
```

## Opcodes

```
  0: 0x0112 [0x42] SET_CLI_EVENT_CANCEL_DATA()
  1: 0x0113 [0x48] [System] [12548*]:
    → "\u001F\u000F\u0008's badge flashes brightly.\u007F1\u0000\u0007"
  2: 0x0116 [0x1E] EventEntity looks at LocalPlayer and starts talking
  3: 0x011B [0x1C] WAIT(30* ticks)
  4: 0x011E [0x1D] PRINT_EVENT_MESSAGE(message_id=12551*)
    → "This is no place for you to be wandering around. You outsiders never listen.\u007F1\u0000\u0007"
  5: 0x0121 [0x23] WAIT_FOR_DIALOG_INTERACTION
  6: 0x0122 [0x66] LOAD_EXT_SCHEDULER_MAIN(work_offset=60*, entity1=Deidogg (ID: 17735683/0x010EA003), entity2=Deidogg (ID: 17735683/0x010EA003), action="kud0")
  7: 0x0131 [0x1D] PRINT_EVENT_MESSAGE(message_id=12552*)
    → "I don't know about any of this \u00072Aht Urhgan\u00073 business, but don't bring your problems to me.\u007F1\u0000\u0007"
  8: 0x0134 [0x23] WAIT_FOR_DIALOG_INTERACTION
  9: 0x0135 [0x21] END_EVENT
 10: 0x0136 [0x00] END_REQSTACK()
```
