# Event 65535

## Metadata

| Field           | Value    |
|-----------------|----------|
| Event Index     | 47/47    |
| Offset          | 0x02BA   |
| Data Size       | 45 bytes |
| Calculated Size | 45 bytes |
| Instructions    | 11       |

```
      00 01 02 03 04 05 06 07  08 09 0A 0B 0C 0D 0E 0F
      -- -- -- -- -- -- -- --  -- -- -- -- -- -- -- --
02B0:                                32 08 80 1F 00 15            2.....
02C0: 80 16 80 17 80 1F 01 1F  00 18 80 19 80 17 80 1F  ................
02D0: 01 1F 00 1A 80 1B 80 17  80 1F 01 1F 00 1C 80 1D  ................
02E0: 80 1E 80 1F 01 6F 00                              .....o.         
```

## Opcodes

```
  0: 0x02BA [0x32] ExtData[1]->MainSpeed = 40* * 0.1
  1: 0x02BD [0x1F] MOVE_ENTITY: EventEntity moves to X=4.338*, Z=117.307*, Y=3.100*
  2: 0x02C5 [0x1F] MOVE_ENTITY: Update entity position (mode=1)
  3: 0x02C7 [0x1F] MOVE_ENTITY: EventEntity moves to X=3.015*, Z=116.633*, Y=3.100*
  4: 0x02CF [0x1F] MOVE_ENTITY: Update entity position (mode=1)
  5: 0x02D1 [0x1F] MOVE_ENTITY: EventEntity moves to X=1.953*, Z=112.177*, Y=3.100*
  6: 0x02D9 [0x1F] MOVE_ENTITY: Update entity position (mode=1)
  7: 0x02DB [0x1F] MOVE_ENTITY: EventEntity moves to X=0.549*, Z=91.027*, Y=2.000*
  8: 0x02E3 [0x1F] MOVE_ENTITY: Update entity position (mode=1)
  9: 0x02E5 [0x6F] WAIT_FRAME_DELAY: Yield until WaitTime reaches zero
 10: 0x02E6 [0x00] END_REQSTACK()
```
