# Event 321

## Metadata

| Field           | Value    |
|-----------------|----------|
| Event Index     | 4/7      |
| Offset          | 0x008F   |
| Data Size       | 47 bytes |
| Calculated Size | 47 bytes |
| Instructions    | 11       |

```
      00 01 02 03 04 05 06 07  08 09 0A 0B 0C 0D 0E 0F
      -- -- -- -- -- -- -- --  -- -- -- -- -- -- -- --
0080:                                               1E                 .
0090: F0 FF FF 7F 6F 70 66 03  80 62 D2 0F 01 62 D2 0F  ....opf..b...b..
00A0: 01 74 6C 6B 30 1D 0E 80  23 1D 0F 80 23 66 03 80  .tlk0...#...#f..
00B0: 62 D2 0F 01 62 D2 0F 01  74 6C 6B 31 21 00        b...b...tlk1!.  
```

## Opcodes

```
  0: 0x008F [0x1E] EventEntity looks at LocalPlayer and starts talking
  1: 0x0094 [0x6F] WAIT_FRAME_DELAY: Yield until WaitTime reaches zero
  2: 0x0095 [0x70] WAIT_ENTITY_RENDER_FLAG: Wait while EventEntity->Render.Flags3 bit 2 is set (cancel turn if not)
  3: 0x0096 [0x66] LOAD_EXT_SCHEDULER_MAIN: Load scheduler "tlk0" with entities [Rondipur (ID: 17814114/0x010FD262), Rondipur (ID: 17814114/0x010FD262)], work=29*
  4: 0x00A5 [0x1D] PRINT_EVENT_MESSAGE(message_id=8031*)
    → "As I said a moment ago, the scouts are three.\u0007Cannau, dispatched to the northwestern reaches, Olavia in the southeast, and Wanzo-Unzozo, who last reported from north of Bearclaw Pinnacle.\u007F1\u0000\u0007"
  5: 0x00A8 [0x23] WAIT_FOR_DIALOG_INTERACTION
  6: 0x00A9 [0x1D] PRINT_EVENT_MESSAGE(message_id=8032*)
    → "I await word of your success.\u007F1\u0000\u0007"
  7: 0x00AC [0x23] WAIT_FOR_DIALOG_INTERACTION
  8: 0x00AD [0x66] LOAD_EXT_SCHEDULER_MAIN: Load scheduler "tlk1" with entities [Rondipur (ID: 17814114/0x010FD262), Rondipur (ID: 17814114/0x010FD262)], work=29*
  9: 0x00BC [0x21] END_EVENT
 10: 0x00BD [0x00] END_REQSTACK()
```
