# Event 903

## Metadata

| Field           | Value    |
|-----------------|----------|
| Event Index     | 20/30    |
| Offset          | 0x00D0   |
| Data Size       | 50 bytes |
| Calculated Size | 50 bytes |
| Instructions    | 17       |

```
      00 01 02 03 04 05 06 07  08 09 0A 0B 0C 0D 0E 0F
      -- -- -- -- -- -- -- --  -- -- -- -- -- -- -- --
00D0: 02 02 10 01 80 00 E1 00  1D 20 80 23 21 00 01 F4  ......... .#!...
00E0: 00 02 02 10 0D 80 03 F0  00 1D 21 80 23 01 F4 00  ..........!.#...
00F0: 1D 22 80 23 02 03 10 01  80 00 00 01 1D 23 80 23  .".#.........#.#
0100: 21 00                                             !.              
```

## Opcodes

```
  0: 0x00D0 [0x02] IF !(Work_Zone[2] == 0*) GOTO 0x00E1
  1: 0x00D8 [0x1D] PRINT_EVENT_MESSAGE(message_id=9647*)
    → "Ah, good news, \u0008! The craftsman who carves all my automaton heads dropped by yesterday morning with your order. Now I need only insert the control center and make a few minor adjustments. Our journey is almost over.\u007F1\u0000\u0007"
  2: 0x00DB [0x23] WAIT_FOR_DIALOG_INTERACTION
  3: 0x00DC [0x21] END_EVENT
  4: 0x00DD [0x00] END_REQSTACK()

SUBROUTINE_00E1:
  5: 0x00E1 [0x02] IF !(Work_Zone[2] >= 3*) GOTO 0x00F0
  6: 0x00E9 [0x1D] PRINT_EVENT_MESSAGE(message_id=9646*)
    → "I have made much progress in the AI programming, but I still have much spell data to input.\u007F1\u0000\u0007"
  7: 0x00EC [0x23] WAIT_FOR_DIALOG_INTERACTION
  8: 0x00ED [0x01] GOTO 0x00F4

SUBROUTINE_00F0:
  9: 0x00F0 [0x1D] PRINT_EVENT_MESSAGE(message_id=9645*)
    → "I have just begun working on your order's artificial intelligence nodes. The road to completion is still long and winding.\u007F1\u0000\u0007"
 10: 0x00F3 [0x23] WAIT_FOR_DIALOG_INTERACTION
 11: 0x00F4 [0x02] IF !(Work_Zone[3] == 0*) GOTO 0x0100
 12: 0x00FC [0x1D] PRINT_EVENT_MESSAGE(message_id=9648*)
    → "<Yawn......>\u0007I have had so much work these past weeks... I can barely keep my eyes open, let alone my mind focused...\u007F1\u0000\u0007"
 13: 0x00FF [0x23] WAIT_FOR_DIALOG_INTERACTION
 14: 0x0100 [0x21] END_EVENT
 15: 0x0101 [0x00] END_REQSTACK()
```

## Data or dead code:

```
# Dead code (unreachable instructions):
     0x00DE [0x01] GOTO 0x00F4
```