# Event 950

## Metadata

| Field           | Value    |
|-----------------|----------|
| Event Index     | 28/30    |
| Offset          | 0x012E   |
| Data Size       | 24 bytes |
| Calculated Size | 24 bytes |
| Instructions    | 12       |

```
      00 01 02 03 04 05 06 07  08 09 0A 0B 0C 0D 0E 0F
      -- -- -- -- -- -- -- --  -- -- -- -- -- -- -- --
0120:                                            48 2C                H,
0130: 80 1C 2D 80 1D 2E 80 23  1D 2F 80 23 1D 30 80 23  ..-....#./.#.0.#
0140: 1D 31 80 23 21 00                                 .1.#!.          
```

## Opcodes

```
  0: 0x012E [0x48] [System] [9680*]:
    → "\u001F\u000FGhatsad cautiously surveys the room.\u0000\u0007"
  1: 0x0131 [0x1C] WAIT(60* ticks)
  2: 0x0134 [0x1D] PRINT_EVENT_MESSAGE(message_id=9681*)
    → "(I tell you, \u0008, ever since Lord Razfahd returned, her Majesty has been quite literally bounding about the palace in joy.)\u007F1\u0000\u0007"
  3: 0x0137 [0x23] WAIT_FOR_DIALOG_INTERACTION
  4: 0x0138 [0x1D] PRINT_EVENT_MESSAGE(message_id=9682*)
    → "(I must confess, it brought a tear to this old Galka's eye as well.)\u007F1\u0000\u0007"
  5: 0x013B [0x23] WAIT_FOR_DIALOG_INTERACTION
  6: 0x013C [0x1D] PRINT_EVENT_MESSAGE(message_id=9683*)
    → "(I did tutor the boy as a child, you know.\u0007Were it not beyond my station, why, I'd say I think of him almost as a son of my own.)\u007F1\u0000\u0007"
  7: 0x013F [0x23] WAIT_FOR_DIALOG_INTERACTION
  8: 0x0140 [0x1D] PRINT_EVENT_MESSAGE(message_id=9684*)
    → "(In any event, we owe you a true debt of gratitude.\u0007Thank you, \u0008.)\u007F1\u0000\u0007"
  9: 0x0143 [0x23] WAIT_FOR_DIALOG_INTERACTION
 10: 0x0144 [0x21] END_EVENT
 11: 0x0145 [0x00] END_REQSTACK()
```
