# Event 65535

## Metadata

| Field           | Value    |
|-----------------|----------|
| Event Index     | 10/17    |
| Offset          | 0x005C   |
| Data Size       | 47 bytes |
| Calculated Size | 47 bytes |
| Instructions    | 12       |

```
      00 01 02 03 04 05 06 07  08 09 0A 0B 0C 0D 0E 0F
      -- -- -- -- -- -- -- --  -- -- -- -- -- -- -- --
0050:                                      1F 00 0A 80              ....
0060: 0B 80 03 80 1F 01 1F 00  0C 80 0D 80 03 80 1F 01  ................
0070: 33 01 5A 00 0E 80 0F 80  10 80 5A 01 33 00 1F 00  3.Z.......Z.3...
0080: 11 80 12 80 13 80 1F 01  22 01 00                 ........"..     
```

## Opcodes

```
  0: 0x005C [0x1F] MOVE_ENTITY: EventEntity moves to X=107.655*, Z=102.137*, Y=0.000*
  1: 0x0064 [0x1F] MOVE_ENTITY: Update entity position (mode=1)
  2: 0x0066 [0x1F] MOVE_ENTITY: EventEntity moves to X=105.232*, Z=100.475*, Y=0.000*
  3: 0x006E [0x1F] MOVE_ENTITY: Update entity position (mode=1)
  4: 0x0070 [0x33] EventEntity->Render.Flags0 |= 0x200000 // Bit 21 (flag=0x01)
  5: 0x0072 [0x5A] UPDATE_EVENT_POSITION: Set EventEntity MovePosition to X=102.389*, Z=98.536*, Y=1.499*
  6: 0x007A [0x5A] UPDATE_EVENT_POSITION: Move EventEntity incrementally towards MovePosition
  7: 0x007C [0x33] EventEntity->Render.Flags0 &= ~ 0x200000 // Bit 21 (flag=0x00)
  8: 0x007E [0x1F] MOVE_ENTITY: EventEntity moves to X=90.372*, Z=88.359*, Y=1.749*
  9: 0x0086 [0x1F] MOVE_ENTITY: Update entity position (mode=1)
 10: 0x0088 [0x22] ENTITY_HIDE_FLAG(enabled=0x01)
 11: 0x008A [0x00] END_REQSTACK()
```
