# Event 316

## Metadata

| Field           | Value    |
|-----------------|----------|
| Event Index     | 4/4      |
| Offset          | 0x0031   |
| Data Size       | 49 bytes |
| Calculated Size | 49 bytes |
| Instructions    | 11       |

```
      00 01 02 03 04 05 06 07  08 09 0A 0B 0C 0D 0E 0F
      -- -- -- -- -- -- -- --  -- -- -- -- -- -- -- --
0030:    1E F0 FF FF 7F 1D 07  80 23 66 05 80 14 C0 0E   ........#f.....
0040: 01 14 C0 0E 01 74 6C 6B  30 1D 08 80 23 66 05 80  .....tlk0...#f..
0050: 14 C0 0E 01 14 C0 0E 01  74 6C 6B 31 1D 09 80 23  ........tlk1...#
0060: 21 00                                             !.              
```

## Opcodes

```
  0: 0x0031 [0x1E] EventEntity looks at LocalPlayer and starts talking
  1: 0x0036 [0x1D] PRINT_EVENT_MESSAGE(message_id=9122*)
    → "Oh, why does Cid always have to go off and make things hectic for everyone?\u007F1\u0000\u0007"
  2: 0x0039 [0x23] WAIT_FOR_DIALOG_INTERACTION
  3: 0x003A [0x66] LOAD_EXT_SCHEDULER_MAIN: Load scheduler "tlk0" with entities [Carey (ID: 17743892/0x010EC014), Carey (ID: 17743892/0x010EC014)], work=10*
  4: 0x0049 [0x1D] PRINT_EVENT_MESSAGE(message_id=9123*)
    → "I mean, taking that airship to the skies while still in its testing phase...without even a single member of the repair crew...\u007F1\u0000\u0007"
  5: 0x004C [0x23] WAIT_FOR_DIALOG_INTERACTION
  6: 0x004D [0x66] LOAD_EXT_SCHEDULER_MAIN: Load scheduler "tlk1" with entities [Carey (ID: 17743892/0x010EC014), Carey (ID: 17743892/0x010EC014)], work=10*
  7: 0x005C [0x1D] PRINT_EVENT_MESSAGE(message_id=9124*)
    → "Ah!\u0007You didn't happen to hear me just now...did you?\u007F1\u0000\u0007"
  8: 0x005F [0x23] WAIT_FOR_DIALOG_INTERACTION
  9: 0x0060 [0x21] END_EVENT
 10: 0x0061 [0x00] END_REQSTACK()
```
