# Event 41

## Metadata

| Field           | Value    |
|-----------------|----------|
| Event Index     | 45/112   |
| Offset          | 0x01EC   |
| Data Size       | 44 bytes |
| Calculated Size | 44 bytes |
| Instructions    | 8        |

```
      00 01 02 03 04 05 06 07  08 09 0A 0B 0C 0D 0E 0F
      -- -- -- -- -- -- -- --  -- -- -- -- -- -- -- --
01E0:                                      20 01 42 45               .BE
01F0: 68 80 F0 FF FF 7F F0 FF  FF 7F 66 64 6F 31 08 80  h.........fdo1..
0200: 62 67 80 F0 FF FF 7F F0  FF FF 7F 6D 61 69 6E 08  bg.........main.
0210: 80 1C 01 80 20 00 21 00                           .... .!.        
```

## Opcodes

```
  0: 0x01EC [0x20] SET_CLI_EVENT_UC_FLAG: Lock player control
  1: 0x01EE [0x42] SET_CLI_EVENT_CANCEL_DATA()
  2: 0x01EF [0x45] LOAD_SCHEDULED_TASK(work_offset1=200*, entity1=LocalPlayer, entity2=LocalPlayer, scheduler_id="fdo1", work_offset2=0*)
  3: 0x0200 [0x62] LOAD_EVENT_SCHEDULER (arg=5012): Load scheduler "main" with entities [LocalPlayer, LocalPlayer], work=[1*, 0*]
  4: 0x0211 [0x1C] WAIT(100* ticks)
  5: 0x0214 [0x20] SET_CLI_EVENT_UC_FLAG: Unlock player control
  6: 0x0216 [0x21] END_EVENT
  7: 0x0217 [0x00] END_REQSTACK()
```
