# Event 65535

## Metadata

| Field           | Value    |
|-----------------|----------|
| Event Index     | 42/112   |
| Offset          | 0x0180   |
| Data Size       | 47 bytes |
| Calculated Size | 47 bytes |
| Instructions    | 11       |

```
      00 01 02 03 04 05 06 07  08 09 0A 0B 0C 0D 0E 0F
      -- -- -- -- -- -- -- --  -- -- -- -- -- -- -- --
0180: 37 58 80 59 80 5A 80 5B  80 32 2C 80 1F 00 5C 80  7X.Y.Z.[.2,...\.
0190: 5D 80 27 80 1F 01 1F 00  5E 80 5F 80 27 80 1F 01  ].'.....^._.'...
01A0: 1F 00 60 80 61 80 3B 80  1F 01 6F 39 62 80 00     ..`.a.;...o9b.. 
```

## Opcodes

```
  0: 0x0180 [0x37] UPDATE_EVENT_POSITION_AND_DIR: x=-7.409*, z=57.417*, y=-60.500*, direction=69.2°*
  1: 0x0189 [0x32] ExtData[1]->MainSpeed = 13* * 0.1
  2: 0x018C [0x1F] MOVE_ENTITY: EventEntity moves to X=-6.032*, Z=50.832*, Y=-61.000*
  3: 0x0194 [0x1F] MOVE_ENTITY: Update entity position (mode=1)
  4: 0x0196 [0x1F] MOVE_ENTITY: EventEntity moves to X=-2.786*, Z=48.500*, Y=-61.000*
  5: 0x019E [0x1F] MOVE_ENTITY: Update entity position (mode=1)
  6: 0x01A0 [0x1F] MOVE_ENTITY: EventEntity moves to X=-0.059*, Z=48.381*, Y=-61.021*
  7: 0x01A8 [0x1F] MOVE_ENTITY: Update entity position (mode=1)
  8: 0x01AA [0x6F] WAIT_FRAME_DELAY: Yield until WaitTime reaches zero
  9: 0x01AB [0x39] SET_ENTITY_DIRECTION(direction=4.7°*)
 10: 0x01AE [0x00] END_REQSTACK()
```
