# Event 65535

## Metadata

| Field           | Value    |
|-----------------|----------|
| Event Index     | 93/112   |
| Offset          | 0x0684   |
| Data Size       | 49 bytes |
| Calculated Size | 49 bytes |
| Instructions    | 10       |

```
      00 01 02 03 04 05 06 07  08 09 0A 0B 0C 0D 0E 0F
      -- -- -- -- -- -- -- --  -- -- -- -- -- -- -- --
0680:             79 00 F0 FF  FF 7F 1D 20 0F 01 32 2C      y...... ..2,
0690: 80 1F 00 F4 80 F5 80 27  80 1F 01 1F 00 08 80 F6  .......'........
06A0: 80 3B 80 1F 01 4A F0 FF  FF 7F 1D 20 0F 01 6F 76  .;...J..... ..ov
06B0: F0 FF FF 7F 00                                    .....           
```

## Opcodes

```
  0: 0x0684 [0x79] LocalPlayer looks at Star Sibyl (ID: 17768477/0x010F201D) (Basic look)
  1: 0x068E [0x32] ExtData[1]->MainSpeed = 13* * 0.1
  2: 0x0691 [0x1F] MOVE_ENTITY: EventEntity moves to X=-3.425*, Z=49.648*, Y=-61.000*
  3: 0x0699 [0x1F] MOVE_ENTITY: Update entity position (mode=1)
  4: 0x069B [0x1F] MOVE_ENTITY: EventEntity moves to X=0.000*, Z=48.098*, Y=-61.021*
  5: 0x06A3 [0x1F] MOVE_ENTITY: Update entity position (mode=1)
  6: 0x06A5 [0x4A] LocalPlayer looks at Star Sibyl (ID: 17768477/0x010F201D)
  7: 0x06AE [0x6F] WAIT_FRAME_DELAY: Yield until WaitTime reaches zero
  8: 0x06AF [0x76] CHECK_ENTITY_RENDER_FLAGS: Wait until LocalPlayer Render.Flags0 and Render.Flags3 conditions are met
  9: 0x06B4 [0x00] END_REQSTACK()
```
