# Event 65535

## Metadata

| Field           | Value    |
|-----------------|----------|
| Event Index     | 91/112   |
| Offset          | 0x0643   |
| Data Size       | 55 bytes |
| Calculated Size | 55 bytes |
| Instructions    | 13       |

```
      00 01 02 03 04 05 06 07  08 09 0A 0B 0C 0D 0E 0F
      -- -- -- -- -- -- -- --  -- -- -- -- -- -- -- --
0640:          1C 06 80 4A F0  FF FF 7F 13 20 0F 01 6F     ...J..... ..o
0650: 76 F0 FF FF 7F 1C F1 80  4A F0 FF FF 7F 13 20 0F  v.......J..... .
0660: 01 6F 76 F0 FF FF 7F 1C  CE 80 4A F0 FF FF 7F 13  .ov.......J.....
0670: 20 0F 01 6F 76 F0 FF FF  7F 00                     ..ov.....      
```

## Opcodes

```
  0: 0x0643 [0x1C] WAIT(10* ticks)
  1: 0x0646 [0x4A] LocalPlayer looks at Kupipi (ID: 17768467/0x010F2013)
  2: 0x064F [0x6F] WAIT_FRAME_DELAY: Yield until WaitTime reaches zero
  3: 0x0650 [0x76] CHECK_ENTITY_RENDER_FLAGS: Wait until LocalPlayer Render.Flags0 and Render.Flags3 conditions are met
  4: 0x0655 [0x1C] WAIT(50* ticks)
  5: 0x0658 [0x4A] LocalPlayer looks at Kupipi (ID: 17768467/0x010F2013)
  6: 0x0661 [0x6F] WAIT_FRAME_DELAY: Yield until WaitTime reaches zero
  7: 0x0662 [0x76] CHECK_ENTITY_RENDER_FLAGS: Wait until LocalPlayer Render.Flags0 and Render.Flags3 conditions are met
  8: 0x0667 [0x1C] WAIT(60* ticks)
  9: 0x066A [0x4A] LocalPlayer looks at Kupipi (ID: 17768467/0x010F2013)
 10: 0x0673 [0x6F] WAIT_FRAME_DELAY: Yield until WaitTime reaches zero
 11: 0x0674 [0x76] CHECK_ENTITY_RENDER_FLAGS: Wait until LocalPlayer Render.Flags0 and Render.Flags3 conditions are met
 12: 0x0679 [0x00] END_REQSTACK()
```
