# Event 65535

## Metadata

| Field           | Value    |
|-----------------|----------|
| Event Index     | 52/99    |
| Offset          | 0x0330   |
| Data Size       | 54 bytes |
| Calculated Size | 54 bytes |
| Instructions    | 12       |

```
      00 01 02 03 04 05 06 07  08 09 0A 0B 0C 0D 0E 0F
      -- -- -- -- -- -- -- --  -- -- -- -- -- -- -- --
0330: 32 16 80 1F 00 32 80 33  80 1A 80 1F 01 1F 00 34  2....2.3.......4
0340: 80 35 80 1A 80 1F 01 1F  00 36 80 37 80 1A 80 1F  .5.......6.7....
0350: 01 1F 00 38 80 39 80 1A  80 1F 01 1F 00 3A 80 3B  ...8.9.......:.;
0360: 80 1A 80 1F 01 00                                 ......          
```

## Opcodes

```
  0: 0x0330 [0x32] ExtData[1]->MainSpeed = 13* * 0.1
  1: 0x0333 [0x1F] MOVE_ENTITY: EventEntity moves to X=-0.500*, Z=16.600*, Y=30.749*
  2: 0x033B [0x1F] MOVE_ENTITY: Update entity position (mode=1)
  3: 0x033D [0x1F] MOVE_ENTITY: EventEntity moves to X=-0.300*, Z=16.000*, Y=30.749*
  4: 0x0345 [0x1F] MOVE_ENTITY: Update entity position (mode=1)
  5: 0x0347 [0x1F] MOVE_ENTITY: EventEntity moves to X=-0.100*, Z=15.500*, Y=30.749*
  6: 0x034F [0x1F] MOVE_ENTITY: Update entity position (mode=1)
  7: 0x0351 [0x1F] MOVE_ENTITY: EventEntity moves to X=0.100*, Z=15.000*, Y=30.749*
  8: 0x0359 [0x1F] MOVE_ENTITY: Update entity position (mode=1)
  9: 0x035B [0x1F] MOVE_ENTITY: EventEntity moves to X=0.300*, Z=14.800*, Y=30.749*
 10: 0x0363 [0x1F] MOVE_ENTITY: Update entity position (mode=1)
 11: 0x0365 [0x00] END_REQSTACK()
```
