# Event 65535

## Metadata

| Field           | Value    |
|-----------------|----------|
| Event Index     | 35/99    |
| Offset          | 0x0202   |
| Data Size       | 54 bytes |
| Calculated Size | 54 bytes |
| Instructions    | 12       |

```
      00 01 02 03 04 05 06 07  08 09 0A 0B 0C 0D 0E 0F
      -- -- -- -- -- -- -- --  -- -- -- -- -- -- -- --
0200:       32 00 80 1F 00 04  80 05 80 06 80 1F 01 1F    2.............
0210: 00 07 80 08 80 09 80 1F  01 1F 00 0A 80 0B 80 0C  ................
0220: 80 1F 01 1F 00 0D 80 0E  80 0F 80 1F 01 1F 00 10  ................
0230: 80 11 80 12 80 1F 01 00                           ........        
```

## Opcodes

```
  0: 0x0202 [0x32] ExtData[1]->MainSpeed = 40* * 0.1
  1: 0x0205 [0x1F] MOVE_ENTITY: EventEntity moves to X=-23.470*, Z=17.760*, Y=27.999*
  2: 0x020D [0x1F] MOVE_ENTITY: Update entity position (mode=1)
  3: 0x020F [0x1F] MOVE_ENTITY: EventEntity moves to X=-20.564*, Z=20.884*, Y=28.749*
  4: 0x0217 [0x1F] MOVE_ENTITY: Update entity position (mode=1)
  5: 0x0219 [0x1F] MOVE_ENTITY: EventEntity moves to X=-18.680*, Z=22.684*, Y=29.499*
  6: 0x0221 [0x1F] MOVE_ENTITY: Update entity position (mode=1)
  7: 0x0223 [0x1F] MOVE_ENTITY: EventEntity moves to X=-15.869*, Z=25.241*, Y=29.999*
  8: 0x022B [0x1F] MOVE_ENTITY: Update entity position (mode=1)
  9: 0x022D [0x1F] MOVE_ENTITY: EventEntity moves to X=-5.598*, Z=21.912*, Y=30.499*
 10: 0x0235 [0x1F] MOVE_ENTITY: Update entity position (mode=1)
 11: 0x0237 [0x00] END_REQSTACK()
```
