# Event 65535

## Metadata

| Field           | Value    |
|-----------------|----------|
| Event Index     | 42/99    |
| Offset          | 0x02A0   |
| Data Size       | 37 bytes |
| Calculated Size | 37 bytes |
| Instructions    | 9        |

```
      00 01 02 03 04 05 06 07  08 09 0A 0B 0C 0D 0E 0F
      -- -- -- -- -- -- -- --  -- -- -- -- -- -- -- --
02A0: 29 08 54 20 0F 01 0D 1D  1D 80 23 29 08 54 20 0F  ).T ......#).T .
02B0: 01 0E 29 08 54 20 0F 01  0F 1D 1E 80 23 29 08 54  ..).T ......#).T
02C0: 20 0F 01 10 00                                     ....           
```

## Opcodes

```
  0: 0x02A0 [0x29] REQ_SET_WAIT(priority=0x08, entity_id=Koru-Moru (ID: 17768532/0x010F2054), tag_num=0x0D)
  1: 0x02A7 [0x1D] PRINT_EVENT_MESSAGE(message_id=7836*)
    → "Well the answer is right smack-dabbily under our tippity-toes. The soil! The soil has gone all bad-badderino!\u007F1\u0000\u0007"
  2: 0x02AA [0x23] WAIT_FOR_DIALOG_INTERACTION
  3: 0x02AB [0x29] REQ_SET_WAIT(priority=0x08, entity_id=Koru-Moru (ID: 17768532/0x010F2054), tag_num=0x0E)
  4: 0x02B2 [0x29] REQ_SET_WAIT(priority=0x08, entity_id=Koru-Moru (ID: 17768532/0x010F2054), tag_num=0x0F)
  5: 0x02B9 [0x1D] PRINT_EVENT_MESSAGE(message_id=7837*)
    → "There're no more nutrinofied-nutrients in the soil. We've been using the same oldy-moldy soil for hundreds of years, right?\u007F1\u0000\u0007"
  6: 0x02BC [0x23] WAIT_FOR_DIALOG_INTERACTION
  7: 0x02BD [0x29] REQ_SET_WAIT(priority=0x08, entity_id=Koru-Moru (ID: 17768532/0x010F2054), tag_num=0x10)
  8: 0x02C4 [0x00] END_REQSTACK()
```
