# Event 9251

## Metadata

| Field           | Value    |
|-----------------|----------|
| Event Index     | 9/30     |
| Offset          | 0x11A5   |
| Data Size       | 36 bytes |
| Calculated Size | 36 bytes |
| Instructions    | 12       |

```
      00 01 02 03 04 05 06 07  08 09 0A 0B 0C 0D 0E 0F
      -- -- -- -- -- -- -- --  -- -- -- -- -- -- -- --
11A0:                1A 50 13  1A 6A 13 20 01 1C 28 80       .P..j. ..(.
11B0: 06 0F 00 06 0E 00 06 0D  00 02 0F 00 01 80 00 C7  ................
11C0: 11 1A 30 14 01 B9 11 21  00                       ..0....!.       
```

## Opcodes

```
  0: 0x11A5 [0x1A] CALL_SUBROUTINE(address=0x1350)
  1: 0x11A8 [0x1A] CALL_SUBROUTINE(address=0x136A)
  2: 0x11AB [0x20] SET_CLI_EVENT_UC_FLAG: Lock player control
  3: 0x11AD [0x1C] WAIT(60* ticks)
  4: 0x11B0 [0x06] ExtData[1]->WorkLocal[15] = 0
  5: 0x11B3 [0x06] ExtData[1]->WorkLocal[14] = 0
  6: 0x11B6 [0x06] ExtData[1]->WorkLocal[13] = 0
  7: 0x11B9 [0x02] IF !(ExtData[1]->WorkLocal[15] == 0*) GOTO 0x11C7
  8: 0x11C1 [0x1A] CALL_SUBROUTINE(address=0x1430)
  9: 0x11C4 [0x01] GOTO 0x11B9
 10: 0x11C7 [0x21] END_EVENT
 11: 0x11C8 [0x00] END_REQSTACK()
```
