# 17518727

## Common Data

| Field            | Value                         |
|------------------|-------------------------------|
| Zone             | The Celestial Nexus (ID: 181) |
| Block Size       | 312 bytes                     |
| Total Events     | 9                             |
| References Count | 15                            |

## List of Events

| Event ID                 | Entrypoint   |   Size |   Instructions |
|--------------------------|--------------|--------|----------------|
| [65535](#event-65535)    | 0x0000       |      1 |              1 |
| [65534](#event-65534)    | 0x0001       |      1 |              1 |
| [65535.1](#event-655351) | 0x0002       |     20 |              5 |
| [65535.2](#event-655352) | 0x0016       |     75 |              7 |
| [65535.3](#event-655353) | 0x0061       |     21 |              3 |
| [65535.4](#event-655354) | 0x0076       |     21 |              3 |
| [65535.5](#event-655355) | 0x008B       |     21 |              3 |
| [65535.6](#event-655356) | 0x00A0       |     20 |              5 |
| [65535.7](#event-655357) | 0x00B4       |     18 |              6 |

## DAT References (imed_data)

|   Index | Hex Value   |   Dec Value |
|---------|-------------|-------------|
|       0 | 0xFFFF23DE  |  4294910942 |
|       1 | 0xFFFF9E16  |  4294942230 |
|       2 | 0xFFFFB94D  |  4294949197 |
|       3 | 0x0801      |        2049 |
|       4 | 0x0078      |         120 |
|       5 | 0x00D8      |         216 |
|       6 | 0x0000      |           0 |
|       7 | 0x002D      |          45 |
|       8 | 0x00C8      |         200 |
|       9 | 0x00A0      |         160 |
|      10 | 0xFFFFA6AE  |  4294944430 |
|      11 | 0xFFFF9E22  |  4294942242 |
|      12 | 0xFFFFB85B  |  4294948955 |
|      13 | 0x07FF      |        2047 |
|      14 | 0x00C3      |         195 |

## Events

### Event 65535

#### Metadata

| Field        | Value   |
|--------------|---------|
| Entrypoint   | 0x0000  |
| Data Size    | 1 bytes |
| Instructions | 1       |

```
      00 01 02 03 04 05 06 07  08 09 0A 0B 0C 0D 0E 0F
      -- -- -- -- -- -- -- --  -- -- -- -- -- -- -- --
0000: 00                                                .               
```

#### Opcodes

```
  0: 0x0000 [0x00] END_REQSTACK()
```

### Event 65534

#### Metadata

| Field        | Value   |
|--------------|---------|
| Entrypoint   | 0x0001  |
| Data Size    | 1 bytes |
| Instructions | 1       |

```
      00 01 02 03 04 05 06 07  08 09 0A 0B 0C 0D 0E 0F
      -- -- -- -- -- -- -- --  -- -- -- -- -- -- -- --
0000:    00                                              .              
```

#### Opcodes

```
  0: 0x0001 [0x00] END_REQSTACK()
```

### Event 65535.1

#### Metadata

| Field        | Value    |
|--------------|----------|
| Entrypoint   | 0x0002   |
| Data Size    | 20 bytes |
| Instructions | 5        |

```
      00 01 02 03 04 05 06 07  08 09 0A 0B 0C 0D 0E 0F
      -- -- -- -- -- -- -- --  -- -- -- -- -- -- -- --
0000:       22 00 33 01 37 00  80 01 80 02 80 03 80 94    ".3.7.........
0010: 01 87 50 0B 01 00                                 ..P...          
```

#### Opcodes

```
  0: 0x0002 [0x22] ENTITY_HIDE_FLAG(enabled=0x00)
  1: 0x0004 [0x33] EventEntity->Render.Flags0 |= 0x200000 // Bit 21 (flag=0x01)
  2: 0x0006 [0x37] UPDATE_EVENT_POSITION_AND_DIR: x=-56.354*, z=-25.066*, y=-18.099*, direction=180.1°*
  3: 0x000F [0x94] Unnamed NPC (ID: 17518727/0x010B5087)->Render.Flags3 ^= 0x01
  4: 0x0015 [0x00] END_REQSTACK()
```

### Event 65535.2

#### Metadata

| Field        | Value    |
|--------------|----------|
| Entrypoint   | 0x0016   |
| Data Size    | 75 bytes |
| Instructions | 7        |

```
      00 01 02 03 04 05 06 07  08 09 0A 0B 0C 0D 0E 0F
      -- -- -- -- -- -- -- --  -- -- -- -- -- -- -- --
0010:                   1C 04  80 45 05 80 F0 FF FF 7F        ...E......
0020: F0 FF FF 7F 73 65 31 32  06 80 55 05 80 F0 FF FF  ....se12..U.....
0030: 7F F0 FF FF 7F 73 65 31  32 27 10 89 50 0B 01 04  .....se12'..P...
0040: 45 05 80 F0 FF FF 7F F0  FF FF 7F 73 65 31 33 06  E..........se13.
0050: 80 55 05 80 F0 FF FF 7F  F0 FF FF 7F 73 65 31 33  .U..........se13
0060: 00                                                .               
```

#### Opcodes

```
  0: 0x0016 [0x1C] WAIT(120* ticks)
  1: 0x0019 [0x45] LOAD_SCHEDULED_TASK: Load scheduler "se12" with entities [LocalPlayer, LocalPlayer], work=[216*, 0*]
  2: 0x002A [0x55] WAIT_LOAD_SCHEDULER: Wait for scheduler "se12" with entities [LocalPlayer, LocalPlayer], work=216*
  3: 0x0039 [0x27] REQ_SET(priority=0x10, entity_id=Celestial Gate (ID: 17518729/0x010B5089), tag_num=0x04)
  4: 0x0040 [0x45] LOAD_SCHEDULED_TASK: Load scheduler "se13" with entities [LocalPlayer, LocalPlayer], work=[216*, 0*]
  5: 0x0051 [0x55] WAIT_LOAD_SCHEDULER: Wait for scheduler "se13" with entities [LocalPlayer, LocalPlayer], work=216*
  6: 0x0060 [0x00] END_REQSTACK()
```

### Event 65535.3

#### Metadata

| Field        | Value    |
|--------------|----------|
| Entrypoint   | 0x0061   |
| Data Size    | 21 bytes |
| Instructions | 3        |

```
      00 01 02 03 04 05 06 07  08 09 0A 0B 0C 0D 0E 0F
      -- -- -- -- -- -- -- --  -- -- -- -- -- -- -- --
0060:    1C 07 80 45 08 80 F0  FF FF 7F F0 FF FF 7F 62   ...E..........b
0070: 6C 6F 66 06 80 00                                 lof...          
```

#### Opcodes

```
  0: 0x0061 [0x1C] WAIT(45* ticks)
  1: 0x0064 [0x45] LOAD_SCHEDULED_TASK: Load scheduler "blof" with entities [LocalPlayer, LocalPlayer], work=[200*, 0*]
  2: 0x0075 [0x00] END_REQSTACK()
```

### Event 65535.4

#### Metadata

| Field        | Value    |
|--------------|----------|
| Entrypoint   | 0x0076   |
| Data Size    | 21 bytes |
| Instructions | 3        |

```
      00 01 02 03 04 05 06 07  08 09 0A 0B 0C 0D 0E 0F
      -- -- -- -- -- -- -- --  -- -- -- -- -- -- -- --
0070:                   1C 04  80 45 08 80 F0 FF FF 7F        ...E......
0080: F0 FF FF 7F 62 6C 6F 66  06 80 00                 ....blof...     
```

#### Opcodes

```
  0: 0x0076 [0x1C] WAIT(120* ticks)
  1: 0x0079 [0x45] LOAD_SCHEDULED_TASK: Load scheduler "blof" with entities [LocalPlayer, LocalPlayer], work=[200*, 0*]
  2: 0x008A [0x00] END_REQSTACK()
```

### Event 65535.5

#### Metadata

| Field        | Value    |
|--------------|----------|
| Entrypoint   | 0x008B   |
| Data Size    | 21 bytes |
| Instructions | 3        |

```
      00 01 02 03 04 05 06 07  08 09 0A 0B 0C 0D 0E 0F
      -- -- -- -- -- -- -- --  -- -- -- -- -- -- -- --
0080:                                   1C 09 80 45 08             ...E.
0090: 80 F0 FF FF 7F F0 FF FF  7F 62 6C 6F 66 06 80 00  .........blof...
```

#### Opcodes

```
  0: 0x008B [0x1C] WAIT(160* ticks)
  1: 0x008E [0x45] LOAD_SCHEDULED_TASK: Load scheduler "blof" with entities [LocalPlayer, LocalPlayer], work=[200*, 0*]
  2: 0x009F [0x00] END_REQSTACK()
```

### Event 65535.6

#### Metadata

| Field        | Value    |
|--------------|----------|
| Entrypoint   | 0x00A0   |
| Data Size    | 20 bytes |
| Instructions | 5        |

```
      00 01 02 03 04 05 06 07  08 09 0A 0B 0C 0D 0E 0F
      -- -- -- -- -- -- -- --  -- -- -- -- -- -- -- --
00A0: 22 00 33 01 37 0A 80 0B  80 0C 80 0D 80 94 01 87  ".3.7...........
00B0: 50 0B 01 00                                       P...            
```

#### Opcodes

```
  0: 0x00A0 [0x22] ENTITY_HIDE_FLAG(enabled=0x00)
  1: 0x00A2 [0x33] EventEntity->Render.Flags0 |= 0x200000 // Bit 21 (flag=0x01)
  2: 0x00A4 [0x37] UPDATE_EVENT_POSITION_AND_DIR: x=-22.866*, z=-25.054*, y=-18.341*, direction=179.9°*
  3: 0x00AD [0x94] Unnamed NPC (ID: 17518727/0x010B5087)->Render.Flags3 ^= 0x01
  4: 0x00B3 [0x00] END_REQSTACK()
```

### Event 65535.7

#### Metadata

| Field        | Value    |
|--------------|----------|
| Entrypoint   | 0x00B4   |
| Data Size    | 18 bytes |
| Instructions | 6        |

```
      00 01 02 03 04 05 06 07  08 09 0A 0B 0C 0D 0E 0F
      -- -- -- -- -- -- -- --  -- -- -- -- -- -- -- --
00B0:             5C 00 0E 80  5C 01 0E 80 5C 02 0E 80      \...\...\...
00C0: 5C 03 0E 80 9A 00                                 \.....          
```

#### Opcodes

```
  0: 0x00B4 [0x5C] MUSIC_CONTROL: Set Idle (Day) music to song 195*
  1: 0x00B8 [0x5C] MUSIC_CONTROL: Set Idle (Night) music to song 195*
  2: 0x00BC [0x5C] MUSIC_CONTROL: Set Combat (Solo) music to song 195*
  3: 0x00C0 [0x5C] MUSIC_CONTROL: Set Combat (Party) music to song 195*
  4: 0x00C4 [0x9A] WAIT_MUSIC_SERVER()
  5: 0x00C5 [0x00] END_REQSTACK()
```
