# 0x7FFFFFF0 - Zone Events

## Common Data

| Field            | Value                         |
|------------------|-------------------------------|
| Zone             | The Celestial Nexus (ID: 181) |
| Block Size       | 16904 bytes                   |
| Total Events     | 18                            |
| References Count | 353                           |

## List of Events

| Event ID                   | Entrypoint   |   Size |   Instructions |
|----------------------------|--------------|--------|----------------|
| [65535](#event-65535)      | 0x0000       |      1 |              1 |
| [65534](#event-65534)      | 0x0001       |      1 |              1 |
| [32000](#event-32000)      | 0x0002       |   2143 |            418 |
| [32002](#event-32002)      | 0x0861       |    494 |             83 |
| [32001](#event-32001)      | 0x0A4F       |   1128 |            200 |
| [32003](#event-32003)      | 0x0EB7       |    435 |             77 |
| [32004](#event-32004)      | 0x106A       |    150 |             32 |
| [32005](#event-32005)      | 0x1100       |  10178 |           1203 |
| [65535.1](#event-655351)   | 0x38C2       |     10 |              2 |
| [65535.2](#event-655352)   | 0x38CC       |     10 |              2 |
| [65535.3](#event-655353)   | 0x38D6       |     11 |              3 |
| [65535.4](#event-655354)   | 0x38E1       |     10 |              2 |
| [65535.5](#event-655355)   | 0x38EB       |     15 |              5 |
| [65535.6](#event-655356)   | 0x38FA       |     10 |              2 |
| [65535.7](#event-655357)   | 0x3904       |     10 |              2 |
| [65535.8](#event-655358)   | 0x390E       |     15 |              5 |
| [65535.9](#event-655359)   | 0x391D       |     10 |              2 |
| [65535.10](#event-6553510) | 0x3927       |    773 |            104 |

## DAT References (imed_data)

|   Index | Hex Value   |   Dec Value |
|---------|-------------|-------------|
|       0 | 0x0000      |           0 |
|       1 | 0x000F      |          15 |
|       2 | 0x0010      |          16 |
|       3 | 0x001F      |          31 |
|       4 | 0xFFFFFFFF  |  4294967295 |
|       5 | 0x0001      |           1 |
|       6 | 0x1DB6      |        7606 |
|       7 | 0x1DA8      |        7592 |
|       8 | 0x0005      |           5 |
|       9 | 0x0002      |           2 |
|      10 | 0x0003      |           3 |
|      11 | 0x0004      |           4 |
|      12 | 0x1C3B      |        7227 |
|      13 | 0x00FF      |         255 |
|      14 | 0x00C8      |         200 |
|      15 | 0x0013      |          19 |
|      16 | 0x0008      |           8 |
|      17 | 0x0009      |           9 |
|      18 | 0x000B      |          11 |
|      19 | 0x1C46      |        7238 |
|      20 | 0x1C47      |        7239 |
|      21 | 0x1C48      |        7240 |
|      22 | 0x1C49      |        7241 |
|      23 | 0x1C6D      |        7277 |
|      24 | 0x0006      |           6 |
|      25 | 0x0007      |           7 |
|      26 | 0x000A      |          10 |
|      27 | 0x000C      |          12 |
|      28 | 0x000D      |          13 |
|      29 | 0x000E      |          14 |
|      30 | 0x0011      |          17 |
|      31 | 0x0012      |          18 |
|      32 | 0x0014      |          20 |
|      33 | 0x0015      |          21 |
|      34 | 0x0016      |          22 |
|      35 | 0x0017      |          23 |
|      36 | 0x0018      |          24 |
|      37 | 0x0019      |          25 |
|      38 | 0x001A      |          26 |
|      39 | 0x001B      |          27 |
|      40 | 0x001C      |          28 |
|      41 | 0x001D      |          29 |
|      42 | 0x001E      |          30 |
|      43 | 0x1DA2      |        7586 |
|      44 | 0x1DA7      |        7591 |
|      45 | 0x1DA6      |        7590 |
|      46 | 0x003C      |          60 |
|      47 | 0x1DB4      |        7604 |
|      48 | 0x1DB3      |        7603 |
|      49 | 0x0064      |         100 |
|      50 | 0x1D8E      |        7566 |
|      51 | 0x00C6      |         198 |
|      52 | 0x00C4      |         196 |
|      53 | 0x1C3E      |        7230 |
|      54 | 0x00C9      |         201 |
|      55 | 0x00B4      |         180 |
|      56 | 0xFFF6C42B  |  4294362155 |
|      57 | 0x752B9     |      479929 |
|      58 | 0xFFFFA767  |  4294944615 |
|      59 | 0x03E0      |         992 |
|      60 | 0xFFFBFE43  |  4294704707 |
|      61 | 0x5C401     |      377857 |
|      62 | 0xFFFDE79F  |  4294829983 |
|      63 | 0x0D92      |        3474 |
|      64 | 0x47AC      |       18348 |
|      65 | 0x76E1C     |      486940 |
|      66 | 0xFFFC93B2  |  4294742962 |
|      67 | 0x00C2      |         194 |
|      68 | 0x388A9     |      231593 |
|      69 | 0x57E9E     |      360094 |
|      70 | 0xFFFD59FC  |  4294793724 |
|      71 | 0x0726      |        1830 |
|      72 | 0x872C0     |      553664 |
|      73 | 0x7FEA3     |      523939 |
|      74 | 0xFFFF6AC3  |  4294929091 |
|      75 | 0x0A65      |        2661 |
|      76 | 0xFFF5A79B  |  4294289307 |
|      77 | 0xFFFF8192  |  4294934930 |
|      78 | 0xFFFFECA4  |  4294962340 |
|      79 | 0x0800      |        2048 |
|      80 | 0xFFF2A593  |  4294092179 |
|      81 | 0xFFFF548C  |  4294923404 |
|      82 | 0xFFFF442C  |  4294919212 |
|      83 | 0x0201      |         513 |
|      84 | 0xFFF478D5  |  4294211797 |
|      85 | 0x89AEB     |      563947 |
|      86 | 0xFFFE4A5D  |  4294855261 |
|      87 | 0x0DEF      |        3567 |
|      88 | 0x1E173     |      123251 |
|      89 | 0xB8221     |      754209 |
|      90 | 0xFFFD5FA4  |  4294795172 |
|      91 | 0x01B8      |         440 |
|      92 | 0xFFF81ECC  |  4294450892 |
|      93 | 0xFFF3BE05  |  4294163973 |
|      94 | 0x5E8E      |       24206 |
|      95 | 0x01B5      |         437 |
|      96 | 0x4719      |       18201 |
|      97 | 0x012C      |         300 |
|      98 | 0x0080      |         128 |
|      99 | 0xFFF690A7  |  4294348967 |
|     100 | 0xFFF62CE4  |  4294323428 |
|     101 | 0xFFFF9B33  |  4294941491 |
|     102 | 0x0EB1      |        3761 |
|     103 | 0xFFFAEE7D  |  4294635133 |
|     104 | 0xFFF941C6  |  4294525382 |
|     105 | 0xFFFE8CB1  |  4294872241 |
|     106 | 0x0EB0      |        3760 |
|     107 | 0xFFFFCF50  |  4294954832 |
|     108 | 0xFFF61B47  |  4294318919 |
|     109 | 0xFFFD07BB  |  4294772667 |
|     110 | 0x0EBA      |        3770 |
|     111 | 0x4EF35     |      323381 |
|     112 | 0xFFF93A6F  |  4294523503 |
|     113 | 0xFFFE5868  |  4294858856 |
|     114 | 0x0EA0      |        3744 |
|     115 | 0x92763     |      599907 |
|     116 | 0xFFF5AB97  |  4294290327 |
|     117 | 0xFFFFA837  |  4294944823 |
|     118 | 0x0EB3      |        3763 |
|     119 | 0x00A8      |         168 |
|     120 | 0x30D7B     |      200059 |
|     121 | 0xFFFFAA3A  |  4294945338 |
|     122 | 0xFFFFFF06  |  4294967046 |
|     123 | 0x0411      |        1041 |
|     124 | 0x00CA      |         202 |
|     125 | 0x837EC     |      538604 |
|     126 | 0x7A88C     |      501900 |
|     127 | 0xFFFFC98A  |  4294953354 |
|     128 | 0x0CBC      |        3260 |
|     129 | 0x00CB      |         203 |
|     130 | 0x870F5     |      553205 |
|     131 | 0x8FF41     |      589633 |
|     132 | 0xFFFFFFEB  |  4294967275 |
|     133 | 0x0587      |        1415 |
|     134 | 0x00D3      |         211 |
|     135 | 0x8AF88     |      569224 |
|     136 | 0x85E6E     |      548462 |
|     137 | 0x8FE5      |       36837 |
|     138 | 0x02A1      |         673 |
|     139 | 0x00C3      |         195 |
|     140 | 0x0024      |          36 |
|     141 | 0x1D90      |        7568 |
|     142 | 0x1D8F      |        7567 |
|     143 | 0x1DB2      |        7602 |
|     144 | 0x1D92      |        7570 |
|     145 | 0x1D91      |        7569 |
|     146 | 0x0078      |         120 |
|     147 | 0xFFF716FC  |  4294383356 |
|     148 | 0xFFFF8193  |  4294934931 |
|     149 | 0xFFFFE941  |  4294961473 |
|     150 | 0x0FE5      |        4069 |
|     151 | 0x00D8      |         216 |
|     152 | 0xFFF7239D  |  4294386589 |
|     153 | 0xFFFF8181  |  4294934913 |
|     154 | 0xFFF72D45  |  4294389061 |
|     155 | 0xFFFF8186  |  4294934918 |
|     156 | 0xFFFE8C94  |  4294872212 |
|     157 | 0xFFFF9E55  |  4294942293 |
|     158 | 0xFFFFA6B4  |  4294944436 |
|     159 | 0x00C1      |         193 |
|     160 | 0xFFFE322C  |  4294849068 |
|     161 | 0xFFFF9E19  |  4294942233 |
|     162 | 0xFFFF9C4B  |  4294941771 |
|     163 | 0x0FED      |        4077 |
|     164 | 0x0252      |         594 |
|     165 | 0x020A      |         522 |
|     166 | 0x021F      |         543 |
|     167 | 0x021B      |         539 |
|     168 | 0x0255      |         597 |
|     169 | 0x005A      |          90 |
|     170 | 0x1DB7      |        7607 |
|     171 | 0x1DB8      |        7608 |
|     172 | 0x0028      |          40 |
|     173 | 0xFFFE91B9  |  4294873529 |
|     174 | 0xFFFF9E25  |  4294942245 |
|     175 | 0x1DB9      |        7609 |
|     176 | 0x1DBA      |        7610 |
|     177 | 0x1DBB      |        7611 |
|     178 | 0x1DBC      |        7612 |
|     179 | 0x1DBD      |        7613 |
|     180 | 0x1DBE      |        7614 |
|     181 | 0x1DBF      |        7615 |
|     182 | 0x1DC0      |        7616 |
|     183 | 0x0069      |         105 |
|     184 | 0x1DC1      |        7617 |
|     185 | 0x1DC2      |        7618 |
|     186 | 0x1DC3      |        7619 |
|     187 | 0x002D      |          45 |
|     188 | 0x009D      |         157 |
|     189 | 0xFFFF21CB  |  4294910411 |
|     190 | 0xFFFFA1F1  |  4294943217 |
|     191 | 0xFFFFB565  |  4294948197 |
|     192 | 0x0FDA      |        4058 |
|     193 | 0x0253      |         595 |
|     194 | 0x00E7      |         231 |
|     195 | 0xFFFF2F0A  |  4294913802 |
|     196 | 0xFFFF9F43  |  4294942531 |
|     197 | 0x1DC6      |        7622 |
|     198 | 0x1DC7      |        7623 |
|     199 | 0x1DC8      |        7624 |
|     200 | 0x007A      |         122 |
|     201 | 0x0220      |         544 |
|     202 | 0x1DC9      |        7625 |
|     203 | 0x1DCA      |        7626 |
|     204 | 0x1DCB      |        7627 |
|     205 | 0x1DCC      |        7628 |
|     206 | 0x1DCD      |        7629 |
|     207 | 0x020B      |         523 |
|     208 | 0x01E0      |         480 |
|     209 | 0x1DCE      |        7630 |
|     210 | 0x1DCF      |        7631 |
|     211 | 0x007C      |         124 |
|     212 | 0x1DD0      |        7632 |
|     213 | 0x1DD1      |        7633 |
|     214 | 0x1DD3      |        7635 |
|     215 | 0x0054      |          84 |
|     216 | 0x1DD2      |        7634 |
|     217 | 0x002C      |          44 |
|     218 | 0x0043      |          67 |
|     219 | 0x0091      |         145 |
|     220 | 0x0023      |          35 |
|     221 | 0x002A      |          42 |
|     222 | 0x0254      |         596 |
|     223 | 0x1DD4      |        7636 |
|     224 | 0x004B      |          75 |
|     225 | 0x1DD5      |        7637 |
|     226 | 0x010E      |         270 |
|     227 | 0x1DD6      |        7638 |
|     228 | 0x023C      |         572 |
|     229 | 0x1DD7      |        7639 |
|     230 | 0x1DD8      |        7640 |
|     231 | 0x1DD9      |        7641 |
|     232 | 0x023E      |         574 |
|     233 | 0x1DDA      |        7642 |
|     234 | 0x1DDB      |        7643 |
|     235 | 0x1DDC      |        7644 |
|     236 | 0x1DDD      |        7645 |
|     237 | 0x1DDE      |        7646 |
|     238 | 0x1DDF      |        7647 |
|     239 | 0x002F      |          47 |
|     240 | 0x1DE0      |        7648 |
|     241 | 0x0041      |          65 |
|     242 | 0x0082      |         130 |
|     243 | 0x1DF6      |        7670 |
|     244 | 0x005E      |          94 |
|     245 | 0xFFFA8B5A  |  4294609754 |
|     246 | 0xFFFF63C0  |  4294927296 |
|     247 | 0x0400      |        1024 |
|     248 | 0x00C7      |         199 |
|     249 | 0x0149      |         329 |
|     250 | 0xFFFA6E93  |  4294602387 |
|     251 | 0x00B9      |         185 |
|     252 | 0x1DE1      |        7649 |
|     253 | 0x1DE2      |        7650 |
|     254 | 0x1DE3      |        7651 |
|     255 | 0x00F4      |         244 |
|     256 | 0x1DE4      |        7652 |
|     257 | 0x1DE5      |        7653 |
|     258 | 0x1DE6      |        7654 |
|     259 | 0x1DE7      |        7655 |
|     260 | 0x02D0      |         720 |
|     261 | 0x0096      |         150 |
|     262 | 0x1DE8      |        7656 |
|     263 | 0x0099      |         153 |
|     264 | 0x00A5      |         165 |
|     265 | 0x1DE9      |        7657 |
|     266 | 0x1DEA      |        7658 |
|     267 | 0x1DEB      |        7659 |
|     268 | 0x1DEC      |        7660 |
|     269 | 0x1DED      |        7661 |
|     270 | 0x1DEE      |        7662 |
|     271 | 0x0050      |          80 |
|     272 | 0x0240      |         576 |
|     273 | 0x1DEF      |        7663 |
|     274 | 0x1DF0      |        7664 |
|     275 | 0x1DF1      |        7665 |
|     276 | 0x00D2      |         210 |
|     277 | 0x1DF2      |        7666 |
|     278 | 0x1DF3      |        7667 |
|     279 | 0x1DF4      |        7668 |
|     280 | 0x1DF5      |        7669 |
|     281 | 0x00B5      |         181 |
|     282 | 0x0294      |         660 |
|     283 | 0xFFFF2928  |  4294912296 |
|     284 | 0xFFFF9E4E  |  4294942286 |
|     285 | 0xFFFFB564  |  4294948196 |
|     286 | 0xFFFEF78C  |  4294899596 |
|     287 | 0xFFFF9A70  |  4294941296 |
|     288 | 0x0C00      |        3072 |
|     289 | 0x0D50      |        3408 |
|     290 | 0x0320      |         800 |
|     291 | 0x0334      |         820 |
|     292 | 0xFFFF0218  |  4294902296 |
|     293 | 0x1C3C      |        7228 |
|     294 | 0x0071      |         113 |
|     295 | 0x0074      |         116 |
|     296 | 0x0077      |         119 |
|     297 | 0x007B      |         123 |
|     298 | 0x0087      |         135 |
|     299 | 0x00D7      |         215 |
|     300 | 0x5FFF2     |      393202 |
|     301 | 0xA3745     |      669509 |
|     302 | 0xFFFF9A71  |  4294941297 |
|     303 | 0x6C075     |      442485 |
|     304 | 0xFFF577EB  |  4294277099 |
|     305 | 0xFFFFDD07  |  4294958343 |
|     306 | 0xFFFE8761  |  4294870881 |
|     307 | 0xFFFF9E59  |  4294942297 |
|     308 | 0xFFFE89C5  |  4294871493 |
|     309 | 0xFFFFA366  |  4294943590 |
|     310 | 0x0FCE      |        4046 |
|     311 | 0xFFFE8B01  |  4294871809 |
|     312 | 0xFFFF991D  |  4294940957 |
|     313 | 0xFFFE83B0  |  4294869936 |
|     314 | 0xFFFFA172  |  4294943090 |
|     315 | 0x0FF7      |        4087 |
|     316 | 0xFFFE837A  |  4294869882 |
|     317 | 0xFFFF9AC6  |  4294941382 |
|     318 | 0x0035      |          53 |
|     319 | 0x5FB6B     |      392043 |
|     320 | 0xA3742     |      669506 |
|     321 | 0x5FD6F     |      392559 |
|     322 | 0xA3CA6     |      670886 |
|     323 | 0x5FCD1     |      392401 |
|     324 | 0xA327C     |      668284 |
|     325 | 0x5F769     |      391017 |
|     326 | 0xA3A7C     |      670332 |
|     327 | 0x5F7A9     |      391081 |
|     328 | 0xA3378     |      668536 |
|     329 | 0x6BB69     |      441193 |
|     330 | 0xFFF577F6  |  4294277110 |
|     331 | 0x0FE3      |        4067 |
|     332 | 0x6BE50     |      441936 |
|     333 | 0xFFF57C65  |  4294278245 |
|     334 | 0x6BE2F     |      441903 |
|     335 | 0xFFF5724B  |  4294275659 |
|     336 | 0x0FEB      |        4075 |
|     337 | 0x6B959     |      440665 |
|     338 | 0xFFF57B2C  |  4294277932 |
|     339 | 0x0FE9      |        4073 |
|     340 | 0x6B8F0     |      440560 |
|     341 | 0xFFF57407  |  4294276103 |
|     342 | 0x0022      |          34 |
|     343 | 0xFFFF54AF  |  4294923439 |
|     344 | 0xFFFF9E1F  |  4294942239 |
|     345 | 0x0FF3      |        4083 |
|     346 | 0xFFFF2D19  |  4294913305 |
|     347 | 0xFFFF9E2A  |  4294942250 |
|     348 | 0xFFFF0600  |  4294903296 |
|     349 | 0xFFFFB5C8  |  4294948296 |
|     350 | 0x0251      |         593 |
|     351 | 0x1DC4      |        7620 |
|     352 | 0x1DC5      |        7621 |

## String References

- **7227**: Enter the battlefield? [Enter./Decline.]
- **7228**: Leave the battlefield? [Run away./Stay.]
- **7230**: You cannot enter the battlefield at present. Please wait a little longer.
- **7238**: You are cleared to enter the battlefield, but you cannot while party members are engaged in combat.
- **7239**: You are cleared to enter the battlefield, but you cannot while party members are engaged in combat.
- **7240**: You are cleared to enter the battlefield, but you cannot while party members are engaged in combat.
- **7241**: You are cleared to enter the battlefield, but you cannot while party members are engaged in combat.
- **7277**: You do not meet the requirements to enter the battlefield. Access is denied.
- **7566**: Skip the event? [Yes./No.]
- **7567**: Battlefield clear time: $3 second[/s]!
- **7568**: Battlefield clear time: $3 minute[/s], $2 second[/s]!
- **7569**: The current battlefield clear time record is $3 second[/s].
- **7570**: The current battlefield clear time record is $3 minute[/s] $2 second[/s].
- **7586**: Only $3 [member/members] have clearance to enter the battlefield. This room has reached its maximum capacity.
- **7590**: That record is held by $5 adventurers, including %0!
- **7591**: That record is held by %0!
- **7592**: Select difficulty. [Very difficult. (Level: ???)/Difficult. (Level: ???)/Normal. (Level: $18)/Easy. (Level: $17)/Very Easy. (Level: $16)/Leave.]
- **7602**: You have broken the clear time record for "[The Celestial Nexus/$26The Celestial Nexus/Crystal Paradise]"!
- **7603**: The current battlefield clear time record for "[The Celestial Nexus/$26The Celestial Nexus/Crystal Paradise]" is $3 second[/s].
- **7604**: The current battlefield clear time record for "[The Celestial Nexus/$26The Celestial Nexus/Crystal Paradise]" is $3 minute[/s] $2 second[/s].
- **7606**: Which battlefield will you enter? [None./The Celestial Nexus./$26The Celestial Nexus./Crystal Paradise././././././././././././././././././././././././././././]
- **7657**: It all began with a stone, or so the legend says.
- **7658**: In ages past, a sentient jewel, enormous and beautiful, banished the darkness. Its many-colored light filled the world with life and brought forth mighty gods.
- **7659**: Bathed in that light, the world entered an age of bliss until, after a time, the gods fell into slumber. That world was called Vana'diel.
- **7660**: However, this age will not last. The great bane will devour the fair land of Vana'diel.
- **7661**: The ancient seal will be broken, awakening nightmares of ages past.
- **7662**: The blood of innocents will soak the earth, and the world will fall into fear and despair.
- **7663**: But as one bright star shines through the clouds at night...
- **7664**: And as one song rings clear above the roar of beasts...
- **7665**: We hold to one hope in these darkest of times.
- **7666**: That star is you, and the song is yours.
- **7667**: And someday, that hope will become our dreams...our prayers...
- **7668**: Shine forth, star of hope! Let your song ring out across all of Vana'diel!
- **7669**: And what was split asunder will once more become whole. Complete and inseparable for all eternity.
- **7670**: 

## Events

### Event 65535

#### Metadata

| Field        | Value   |
|--------------|---------|
| Entrypoint   | 0x0000  |
| Data Size    | 1 bytes |
| Instructions | 1       |

```
      00 01 02 03 04 05 06 07  08 09 0A 0B 0C 0D 0E 0F
      -- -- -- -- -- -- -- --  -- -- -- -- -- -- -- --
0000: 00                                                .               
```

#### Opcodes

```
  0: 0x0000 [0x00] END_REQSTACK()
```

### Event 65534

#### Metadata

| Field        | Value   |
|--------------|---------|
| Entrypoint   | 0x0001  |
| Data Size    | 1 bytes |
| Instructions | 1       |

```
      00 01 02 03 04 05 06 07  08 09 0A 0B 0C 0D 0E 0F
      -- -- -- -- -- -- -- --  -- -- -- -- -- -- -- --
0000:    00                                              .              
```

#### Opcodes

```
  0: 0x0001 [0x00] END_REQSTACK()
```

### Event 32000

#### Metadata

| Field        | Value      |
|--------------|------------|
| Entrypoint   | 0x0002     |
| Data Size    | 2143 bytes |
| Instructions | 285        |

```
      00 01 02 03 04 05 06 07  08 09 0A 0B 0C 0D 0E 0F
      -- -- -- -- -- -- -- --  -- -- -- -- -- -- -- --
0000:       20 01 79 00 F0 FF  FF 7F F0 FF FF 7F 03 02     .y...........
0010: 00 02 10 03 03 00 03 10  03 05 00 04 10 03 06 00  ................
0020: 05 10 03 0F 00 06 10 03  10 00 07 10 03 11 00 08  ................
0030: 10 41 00 80 01 80 09 10  07 00 41 02 80 03 80 09  .A........A.....
0040: 10 06 10 06 01 00 02 07  00 00 80 00 45 01 03 08  ............E...
0050: 00 04 80 0F 08 00 06 00  10 08 00 05 80 24 06 80  .............$..
0060: 00 80 08 00 25 02 00 10  00 80 00 73 00 01 46 08  ....%......s..F.
0070: 01 45 01 03 03 00 00 10  0C 03 00 06 16 00 06 13  .E..............
0080: 00 3E 0F 00 03 00 21 01  06 0F 00 06 08 00 3E 11  .>....!.......>.
0090: 00 03 00 98 00 01 9F 00  3C 08 00 00 80 05 80 3E  ........<......>
00A0: 10 00 03 00 A9 00 01 B0  00 3C 08 00 05 80 05 80  .........<......
00B0: 1A 2A 32 24 07 80 08 80  08 00 25 02 00 10 00 80  .*2$......%.....
00C0: 00 CB 00 03 0F 00 05 80  01 1E 01 02 00 10 05 80  ................
00D0: 00 DB 00 03 0F 00 09 80  01 1E 01 02 00 10 09 80  ................
00E0: 00 EB 00 03 0F 00 0A 80  01 1E 01 02 00 10 0A 80  ................
00F0: 00 FB 00 03 0F 00 0B 80  01 1E 01 02 00 10 0B 80  ................
0100: 00 0B 01 03 0F 00 08 80  01 1E 01 02 00 10 08 80  ................
0110: 00 19 01 01 46 08 01 1E  01 03 0F 00 0A 80 01 45  ....F..........E
0120: 01 06 0F 00 1A 60 08 02  16 00 05 80 00 45 01 24  .....`.......E.$
0130: 0C 80 05 80 00 80 25 02  00 10 05 80 00 45 01 01  ......%......E..
0140: 46 08 01 45 01 42 03 01  10 0D 80 43 00 43 01 06  F..E.B.....C.C..
0150: 01 10 45 0E 80 F0 FF FF  7F F0 FF FF 7F 66 64 6F  ..E..........fdo
0160: 31 00 80 55 0E 80 F0 FF  FF 7F F0 FF FF 7F 66 64  1..U..........fd
0170: 6F 31 3B F0 FF FF 7F 20  10 21 10 22 10 38 0F 80  o1;.... .!.".8..
0180: 02 07 00 05 80 00 9F 01  03 00 00 05 80 03 04 00  ................
0190: 03 00 03 02 00 00 80 03  1C 00 00 80 01 5F 05 03  ............._..
01A0: 00 00 05 80 02 00 00 0A  80 05 0F 08 02 00 80 05  ................
01B0: 80 00 B9 01 03 00 00 05  00 40 00 80 0A 80 01 10  .........@......
01C0: 00 00 40 0B 80 10 80 01  10 03 00 40 11 80 12 80  ..@........@....
01D0: 01 10 0F 00 06 02 10 06  03 10 06 04 10 1A EB 34  ...............4
01E0: 47 00 09 00 0A 00 0B 00  0C 00 47 01 03 04 00 03  G.........G.....
01F0: 10 03 02 00 04 10 03 1A  00 05 10 03 0D 00 06 10  ................
0200: 03 0E 00 07 10 03 1C 00  09 10 02 02 10 05 80 80  ................
0210: 15 02 01 FC 07 02 02 10  0B 80 80 5F 02 02 00 00  ..........._....
0220: 05 80 80 2C 02 48 13 80  23 01 59 02 02 00 00 09  ...,.H..#.Y.....
0230: 80 80 3B 02 48 14 80 23  01 59 02 02 00 00 0A 80  ..;.H..#.Y......
0240: 80 4A 02 48 15 80 23 01  59 02 02 00 00 0B 80 80  .J.H..#.Y.......
0250: 59 02 48 16 80 23 01 59  02 01 13 08 01 FC 07 02  Y.H..#.Y........
0260: 02 10 08 80 80 71 02 48  17 80 23 01 13 08 01 FC  .....q.H..#.....
0270: 07 02 02 10 18 80 80 73  04 02 04 00 00 80 80 89  .......s........
0280: 02 03 05 10 18 80 01 69  04 02 04 00 05 80 80 99  .......i........
0290: 02 03 05 10 18 80 01 69  04 02 04 00 09 80 80 A9  .......i........
02A0: 02 03 05 10 18 80 01 69  04 02 04 00 0A 80 80 B9  .......i........
02B0: 02 03 05 10 18 80 01 69  04 02 04 00 0B 80 80 C9  .......i........
02C0: 02 03 05 10 18 80 01 69  04 02 04 00 08 80 80 D9  .......i........
02D0: 02 03 05 10 18 80 01 69  04 02 04 00 18 80 80 E9  .......i........
02E0: 02 03 05 10 18 80 01 69  04 02 04 00 19 80 80 F9  .......i........
02F0: 02 03 05 10 18 80 01 69  04 02 04 00 10 80 80 09  .......i........
0300: 03 03 05 10 18 80 01 69  04 02 04 00 11 80 80 19  .......i........
0310: 03 03 05 10 18 80 01 69  04 02 04 00 1A 80 80 29  .......i.......)
0320: 03 03 05 10 18 80 01 69  04 02 04 00 12 80 80 39  .......i.......9
0330: 03 03 05 10 18 80 01 69  04 02 04 00 1B 80 80 49  .......i.......I
0340: 03 03 05 10 18 80 01 69  04 02 04 00 1C 80 80 59  .......i.......Y
0350: 03 03 05 10 18 80 01 69  04 02 04 00 1D 80 80 69  .......i.......i
0360: 03 03 05 10 18 80 01 69  04 02 04 00 01 80 80 79  .......i.......y
0370: 03 03 05 10 18 80 01 69  04 02 04 00 02 80 80 89  .......i........
0380: 03 03 05 10 00 80 01 69  04 02 04 00 1E 80 80 99  .......i........
0390: 03 03 05 10 00 80 01 69  04 02 04 00 1F 80 80 A9  .......i........
03A0: 03 03 05 10 00 80 01 69  04 02 04 00 0F 80 80 B9  .......i........
03B0: 03 03 05 10 00 80 01 69  04 02 04 00 20 80 80 C9  .......i.... ...
03C0: 03 03 05 10 00 80 01 69  04 02 04 00 21 80 80 D9  .......i....!...
03D0: 03 03 05 10 00 80 01 69  04 02 04 00 22 80 80 E9  .......i...."...
03E0: 03 03 05 10 00 80 01 69  04 02 04 00 23 80 80 F9  .......i....#...
03F0: 03 03 05 10 00 80 01 69  04 02 04 00 24 80 80 09  .......i....$...
0400: 04 03 05 10 00 80 01 69  04 02 04 00 25 80 80 19  .......i....%...
0410: 04 03 05 10 00 80 01 69  04 02 04 00 26 80 80 29  .......i....&..)
0420: 04 03 05 10 00 80 01 69  04 02 04 00 27 80 80 39  .......i....'..9
0430: 04 03 05 10 00 80 01 69  04 02 04 00 28 80 80 49  .......i....(..I
0440: 04 03 05 10 00 80 01 69  04 02 04 00 29 80 80 59  .......i....)..Y
0450: 04 03 05 10 00 80 01 69  04 02 04 00 2A 80 80 69  .......i....*..i
0460: 04 03 05 10 00 80 01 69  04 48 2B 80 23 01 13 08  .......i.H+.#...
0470: 01 FC 07 02 02 10 0A 80  80 81 04 01 9F 01 01 FC  ................
0480: 07 02 02 10 09 80 80 FC  07 02 0D 00 00 80 01 15  ................
0490: 05 02 13 00 00 80 01 C9  04 03 05 10 1A 00 02 1A  ................
04A0: 00 00 80 02 A6 04 02 0D  00 05 80 05 B5 04 48 2C  ..............H,
04B0: 80 23 01 C6 04 03 06 10  0D 00 0C 06 10 03 07 10  .#..............
04C0: 0D 00 48 2D 80 23 01 15  05 03 05 10 1A 00 02 1A  ..H-.#..........
04D0: 00 00 80 02 F5 04 02 1A  00 2E 80 04 F1 04 3F 04  ..............?.
04E0: 10 05 10 2E 80 15 05 10  2E 80 48 2F 80 23 01 F5  ..........H/.#..
04F0: 04 48 30 80 23 02 0D 00  05 80 05 04 05 48 2C 80  .H0.#........H,.
0500: 23 01 15 05 03 06 10 0D  00 0C 06 10 03 07 10 0D  #...............
0510: 00 48 2D 80 23 03 03 00  04 00 03 14 00 31 80 07  .H-.#........1..
0520: 14 00 03 00 02 02 00 14  00 00 34 05 03 02 00 05  ..........4.....
0530: 80 01 39 05 03 02 00 00  80 02 02 00 00 80 00 5F  ..9............_
0540: 05 02 0E 00 05 80 00 5F  05 24 32 80 05 80 00 80  ......._.$2.....
0550: 25 02 00 10 00 80 00 5F  05 05 02 00 01 5F 05 06  %......_....._..
0560: 15 00 02 04 00 00 80 80  72 05 03 15 00 05 80 01  ........r.......
0570: 57 07 02 04 00 05 80 80  82 05 03 15 00 05 80 01  W...............
0580: 57 07 02 04 00 09 80 80  92 05 03 15 00 05 80 01  W...............
0590: 57 07 02 04 00 0A 80 80  A2 05 03 15 00 00 80 01  W...............
05A0: 57 07 02 04 00 0B 80 80  B2 05 03 15 00 00 80 01  W...............
05B0: 57 07 02 04 00 08 80 80  C2 05 03 15 00 00 80 01  W...............
05C0: 57 07 02 04 00 18 80 80  D2 05 03 15 00 00 80 01  W...............
05D0: 57 07 02 04 00 19 80 80  E2 05 03 15 00 00 80 01  W...............
05E0: 57 07 02 04 00 10 80 80  F2 05 03 15 00 00 80 01  W...............
05F0: 57 07 02 04 00 11 80 80  02 06 03 15 00 00 80 01  W...............
0600: 57 07 02 04 00 1A 80 80  12 06 03 15 00 00 80 01  W...............
0610: 57 07 02 04 00 12 80 80  22 06 03 15 00 00 80 01  W.......".......
0620: 57 07 02 04 00 1B 80 80  32 06 03 15 00 00 80 01  W.......2.......
0630: 57 07 02 04 00 1C 80 80  42 06 03 15 00 00 80 01  W.......B.......
0640: 57 07 02 04 00 1D 80 80  52 06 03 15 00 00 80 01  W.......R.......
0650: 57 07 02 04 00 01 80 80  62 06 03 15 00 00 80 01  W.......b.......
0660: 57 07 02 04 00 02 80 80  72 06 03 15 00 00 80 01  W.......r.......
0670: 57 07 02 04 00 1E 80 80  82 06 03 15 00 00 80 01  W...............
0680: 57 07 02 04 00 1F 80 80  92 06 03 15 00 00 80 01  W...............
0690: 57 07 02 04 00 0F 80 80  A2 06 03 15 00 00 80 01  W...............
06A0: 57 07 02 04 00 20 80 80  B2 06 03 15 00 00 80 01  W.... ..........
06B0: 57 07 02 04 00 21 80 80  C2 06 03 15 00 00 80 01  W....!..........
06C0: 57 07 02 04 00 22 80 80  D2 06 03 15 00 00 80 01  W...."..........
06D0: 57 07 02 04 00 23 80 80  E2 06 03 15 00 00 80 01  W....#..........
06E0: 57 07 02 04 00 24 80 80  F2 06 03 15 00 00 80 01  W....$..........
06F0: 57 07 02 04 00 25 80 80  02 07 03 15 00 00 80 01  W....%..........
0700: 57 07 02 04 00 26 80 80  12 07 03 15 00 00 80 01  W....&..........
0710: 57 07 02 04 00 27 80 80  22 07 03 15 00 00 80 01  W....'..".......
0720: 57 07 02 04 00 28 80 80  32 07 03 15 00 00 80 01  W....(..2.......
0730: 57 07 02 04 00 29 80 80  42 07 03 15 00 00 80 01  W....)..B.......
0740: 57 07 02 04 00 2A 80 80  52 07 03 15 00 00 80 01  W....*..R.......
0750: 57 07 03 15 00 00 80 02  02 00 05 80 00 8D 07 5C  W..............\
0760: 00 33 80 5C 01 33 80 5C  02 33 80 5C 03 33 80 02  .3.\.3.\.3.\.3..
0770: 04 00 09 80 80 8A 07 5C  00 34 80 5C 01 34 80 5C  .......\.4.\.4.\
0780: 02 34 80 5C 03 34 80 01  8A 07 01 A5 07 02 15 00  .4.\.4..........
0790: 00 80 00 A5 07 5C 00 33  80 5C 01 33 80 5C 02 33  .....\.3.\.3.\.3
07A0: 80 5C 03 33 80 02 02 00  00 80 00 B3 07 1A DC 11  .\.3............
07B0: 01 EC 07 6C F0 FF FF 7F  00 80 05 80 62 09 80 F0  ...l........b...
07C0: FF FF 7F F0 FF FF 7F 6D  61 69 6E 00 80 45 0E 80  .......main..E..
07D0: F0 FF FF 7F F0 FF FF 7F  6F 76 6C 31 00 80 46 02  ........ovl1..F.
07E0: 12 00 02 12 00 00 80 00  EC 07 46 00 03 01 10 31  ..........F....1
07F0: 80 07 01 10 03 00 01 13  08 01 FC 07 0B 00 00 02  ................
0800: 00 80 05 80 00 0C 08 03  00 00 0B 80 01 A4 01 48  ...............H
0810: 35 80 23 45 36 80 F0 FF  FF 7F F0 FF FF 7F 77 68  5.#E6.........wh
0820: 69 31 00 80 45 0E 80 F0  FF FF 7F F0 FF FF 7F 62  i1..E..........b
0830: 6C 6F 66 00 80 45 0E 80  F0 FF FF 7F F0 FF FF 7F  lof..E..........
0840: 66 64 69 30 00 80 02 07  00 05 80 00 5E 08 5C 00  fdi0........^.\.
0850: 00 80 5C 01 00 80 5C 02  33 80 5C 03 33 80 21 00  ..\...\.3.\.3.!.
0860: 1B                                                .               
```

#### Opcodes

```
  0: 0x0002 [0x20] SET_CLI_EVENT_UC_FLAG: Lock player control
  1: 0x0004 [0x79] LocalPlayer looks at LocalPlayer (Basic look)
  2: 0x000E [0x03] ExtData[1]->WorkLocal[2] = Work_Zone[2]
  3: 0x0013 [0x03] ExtData[1]->WorkLocal[3] = Work_Zone[3]
  4: 0x0018 [0x03] ExtData[1]->WorkLocal[5] = Work_Zone[4]
  5: 0x001D [0x03] ExtData[1]->WorkLocal[6] = Work_Zone[5]
  6: 0x0022 [0x03] ExtData[1]->WorkLocal[15] = Work_Zone[6]
  7: 0x0027 [0x03] ExtData[1]->WorkLocal[16] = Work_Zone[7]
  8: 0x002C [0x03] ExtData[1]->WorkLocal[17] = Work_Zone[8]
  9: 0x0031 [0x41] ExtData[1]->WorkLocal[7] = Work_Zone[9] (bits 0*-15*)
 10: 0x003A [0x41] Work_Zone[6] = Work_Zone[9] (bits 16*-31*)
 11: 0x0043 [0x06] ExtData[1]->WorkLocal[1] = 0
 12: 0x0046 [0x02] IF !(ExtData[1]->WorkLocal[7] == 0*) GOTO 0x0145
 13: 0x004E [0x03] ExtData[1]->WorkLocal[8] = 4294967295*
 14: 0x0053 [0x0F] ExtData[1]->WorkLocal[8] ^= ExtData[1]->WorkLocal[6]
 15: 0x0058 [0x10] ExtData[1]->WorkLocal[8] <<= 1*
 16: 0x005D [0x24] CREATE_DIALOG(message_id=7606*, default_option=0*, option_flags=ExtData[1]->WorkLocal[8])
    → "Which battlefield will you enter? [None./The Celestial Nexus./$26The Celestial Nexus./Crystal Paradise././././././././././././././././././././././././././././]"
 17: 0x0064 [0x25] WAIT_DIALOG_SELECT()
 18: 0x0065 [0x02] IF !(Work_Zone[0] == 0*) GOTO 0x0073
 19: 0x006D [0x01] GOTO 0x0846

SUBROUTINE_009F:
 20: 0x009F [0x3E] IF !(ExtData[1]->WorkLocal[16] bit ExtData[1]->WorkLocal[3]) GOTO 0x00A9
 21: 0x00A6 [0x01] GOTO 0x00B0
 22: 0x00A9 [0x3C] SET_BIT_FLAG_CONDITIONAL(target_work_offset=ExtData[1]->WorkLocal[8], bit_index_work_offset=1*, condition_work_offset=1*)

SUBROUTINE_00B0:
 23: 0x00B0 [0x1A] CALL_SUBROUTINE(address=0x322A)
 24: 0x00B3 [0x24] CREATE_DIALOG(message_id=7592*, default_option=5*, option_flags=ExtData[1]->WorkLocal[8])
    → "Select difficulty. [Very difficult. (Level: ???)/Difficult. (Level: ???)/Normal. (Level: $18)/Easy. (Level: $17)/Very Easy. (Level: $16)/Leave.]"
 25: 0x00BA [0x25] WAIT_DIALOG_SELECT()
 26: 0x00BB [0x02] IF !(Work_Zone[0] == 0*) GOTO 0x00CB
 27: 0x00C3 [0x03] ExtData[1]->WorkLocal[15] = 1*
 28: 0x00C8 [0x01] GOTO 0x011E
 29: 0x00CB [0x02] IF !(Work_Zone[0] == 1*) GOTO 0x00DB
 30: 0x00D3 [0x03] ExtData[1]->WorkLocal[15] = 2*
 31: 0x00D8 [0x01] GOTO 0x011E
 32: 0x00DB [0x02] IF !(Work_Zone[0] == 2*) GOTO 0x00EB
 33: 0x00E3 [0x03] ExtData[1]->WorkLocal[15] = 3*
 34: 0x00E8 [0x01] GOTO 0x011E
 35: 0x00EB [0x02] IF !(Work_Zone[0] == 3*) GOTO 0x00FB
 36: 0x00F3 [0x03] ExtData[1]->WorkLocal[15] = 4*
 37: 0x00F8 [0x01] GOTO 0x011E
 38: 0x00FB [0x02] IF !(Work_Zone[0] == 4*) GOTO 0x010B
 39: 0x0103 [0x03] ExtData[1]->WorkLocal[15] = 5*
 40: 0x0108 [0x01] GOTO 0x011E
 41: 0x010B [0x02] IF !(Work_Zone[0] == 5*) GOTO 0x0119
 42: 0x0113 [0x01] GOTO 0x0846

SUBROUTINE_011E:
 43: 0x011E [0x01] GOTO 0x0145
 44: 0x0121 [0x06] ExtData[1]->WorkLocal[15] = 0
 45: 0x0124 [0x1A] CALL_SUBROUTINE(address=0x0860)
 46: 0x0127 [0x02] IF !(ExtData[1]->WorkLocal[22] == 1*) GOTO 0x0145
 47: 0x012F [0x24] CREATE_DIALOG(message_id=7227*, default_option=1*, option_flags=0*)
    → "Enter the battlefield? [Enter./Decline.]"
 48: 0x0136 [0x25] WAIT_DIALOG_SELECT()
 49: 0x0137 [0x02] IF !(Work_Zone[0] == 1*) GOTO 0x0145
 50: 0x013F [0x01] GOTO 0x0846

SUBROUTINE_0145:
 51: 0x0145 [0x42] SET_CLI_EVENT_CANCEL_DATA()
 52: 0x0146 [0x03] Work_Zone[1] = 255*
 53: 0x014B [0x43] SEND_EVENT_UPDATE: Send pending tag to server (packet 0x005B)
 54: 0x014D [0x43] SEND_EVENT_UPDATE: Check pending flag (skip if not pending)
 55: 0x014F [0x06] Work_Zone[1] = 0
 56: 0x0152 [0x45] LOAD_SCHEDULED_TASK: Load scheduler "fdo1" with entities [LocalPlayer, LocalPlayer], work=[200*, 0*]
 57: 0x0163 [0x55] WAIT_LOAD_SCHEDULER: Wait for scheduler "fdo1" with entities [LocalPlayer, LocalPlayer], work=200*
 58: 0x0172 [0x3B] GET_ENTITY_POSITION(entity=LocalPlayer, x_destination=Work_Zone[32], y_destination=Work_Zone[33], z_destination=Work_Zone[34])
 59: 0x017D [0x38] SET_CLIENT_EVENT_MODE(mode=19*)
 60: 0x0180 [0x02] IF !(ExtData[1]->WorkLocal[7] == 1*) GOTO 0x019F
 61: 0x0188 [0x03] ExtData[1]->WorkLocal[0] = 1*
 62: 0x018D [0x03] ExtData[1]->WorkLocal[4] = ExtData[1]->WorkLocal[3]
 63: 0x0192 [0x03] ExtData[1]->WorkLocal[2] = 0*
 64: 0x0197 [0x03] ExtData[1]->WorkLocal[28] = 0*
 65: 0x019C [0x01] GOTO 0x055F

SUBROUTINE_019F:
 66: 0x019F [0x03] ExtData[1]->WorkLocal[0] = 1*

SUBROUTINE_01A4:
 67: 0x01A4 [0x02] IF !(ExtData[1]->WorkLocal[0] > 3*) GOTO 0x080F
 68: 0x01AC [0x02] IF !(0* == 1*) GOTO 0x01B9
 69: 0x01B4 [0x03] ExtData[1]->WorkLocal[0] = ExtData[1]->WorkLocal[5]
 70: 0x01B9 [0x40] SET_BIT_WORK_RANGE(start_bit=0*, end_bit=3*, target=Work_Zone[1], source=ExtData[1]->WorkLocal[0])
 71: 0x01C2 [0x40] SET_BIT_WORK_RANGE(start_bit=4*, end_bit=8*, target=Work_Zone[1], source=ExtData[1]->WorkLocal[3])
 72: 0x01CB [0x40] SET_BIT_WORK_RANGE(start_bit=9*, end_bit=11*, target=Work_Zone[1], source=ExtData[1]->WorkLocal[15])
 73: 0x01D4 [0x06] Work_Zone[2] = 0
 74: 0x01D7 [0x06] Work_Zone[3] = 0
 75: 0x01DA [0x06] Work_Zone[4] = 0
 76: 0x01DD [0x1A] CALL_SUBROUTINE(address=0x34EB)
 77: 0x01E0 [0x47] UPDATE_PLAYER_POS(ExtData[1]->WorkLocal[9], ExtData[1]->WorkLocal[10], ExtData[1]->WorkLocal[11], yaw=ExtData[1]->WorkLocal[12])
 78: 0x01EA [0x47] WAIT_PLAYER_POS_UPDATE
 79: 0x01EC [0x03] ExtData[1]->WorkLocal[4] = Work_Zone[3]
 80: 0x01F1 [0x03] ExtData[1]->WorkLocal[2] = Work_Zone[4]
 81: 0x01F6 [0x03] ExtData[1]->WorkLocal[26] = Work_Zone[5]
 82: 0x01FB [0x03] ExtData[1]->WorkLocal[13] = Work_Zone[6]
 83: 0x0200 [0x03] ExtData[1]->WorkLocal[14] = Work_Zone[7]
 84: 0x0205 [0x03] ExtData[1]->WorkLocal[28] = Work_Zone[9]
 85: 0x020A [0x02] IF !(Work_Zone[2] == 1*) GOTO 0x0215
 86: 0x0212 [0x01] GOTO 0x07FC
 87: 0x0215 [0x02] IF !(Work_Zone[2] == 4*) GOTO 0x025F
 88: 0x021D [0x02] IF !(ExtData[1]->WorkLocal[0] == 1*) GOTO 0x022C
 89: 0x0225 [0x48] [System] [7238*]:
    → "You are cleared to enter the battlefield, but you cannot while party members are engaged in combat."
 90: 0x0228 [0x23] WAIT_FOR_DIALOG_INTERACTION
 91: 0x0229 [0x01] GOTO 0x0259
 92: 0x022C [0x02] IF !(ExtData[1]->WorkLocal[0] == 2*) GOTO 0x023B
 93: 0x0234 [0x48] [System] [7239*]:
    → "You are cleared to enter the battlefield, but you cannot while party members are engaged in combat."
 94: 0x0237 [0x23] WAIT_FOR_DIALOG_INTERACTION
 95: 0x0238 [0x01] GOTO 0x0259
 96: 0x023B [0x02] IF !(ExtData[1]->WorkLocal[0] == 3*) GOTO 0x024A
 97: 0x0243 [0x48] [System] [7240*]:
    → "You are cleared to enter the battlefield, but you cannot while party members are engaged in combat."
 98: 0x0246 [0x23] WAIT_FOR_DIALOG_INTERACTION
 99: 0x0247 [0x01] GOTO 0x0259
100: 0x024A [0x02] IF !(ExtData[1]->WorkLocal[0] == 4*) GOTO 0x0259
101: 0x0252 [0x48] [System] [7241*]:
    → "You are cleared to enter the battlefield, but you cannot while party members are engaged in combat."
102: 0x0255 [0x23] WAIT_FOR_DIALOG_INTERACTION
103: 0x0256 [0x01] GOTO 0x0259

SUBROUTINE_0259:
104: 0x0259 [0x01] GOTO 0x0813

SUBROUTINE_0469:
105: 0x0469 [0x48] [System] [7586*]:
    → "Only $3 [member/members] have clearance to enter the battlefield. This room has reached its maximum capacity."
106: 0x046C [0x23] WAIT_FOR_DIALOG_INTERACTION
107: 0x046D [0x01] GOTO 0x0813

SUBROUTINE_04C6:
108: 0x04C6 [0x01] GOTO 0x0515
109: 0x04C9 [0x03] Work_Zone[5] = ExtData[1]->WorkLocal[26]
110: 0x04CE [0x02] IF !(ExtData[1]->WorkLocal[26] <= 0*) GOTO 0x04F5
111: 0x04D6 [0x02] IF !(ExtData[1]->WorkLocal[26] < 60*) GOTO 0x04F1
112: 0x04DE [0x3F] Work_Zone[4] = Work_Zone[5] % 60*
113: 0x04E5 [0x15] Work_Zone[5] /= 60*
114: 0x04EA [0x48] [System] [7604*]:
    → "The current battlefield clear time record for "[The Celestial Nexus/$26The Celestial Nexus/Crystal Paradise]" is $3 minute[/s] $2 second[/s]."
115: 0x04ED [0x23] WAIT_FOR_DIALOG_INTERACTION
116: 0x04EE [0x01] GOTO 0x04F5
117: 0x04F1 [0x48] [System] [7603*]:
    → "The current battlefield clear time record for "[The Celestial Nexus/$26The Celestial Nexus/Crystal Paradise]" is $3 second[/s]."
118: 0x04F4 [0x23] WAIT_FOR_DIALOG_INTERACTION

SUBROUTINE_04F5:
119: 0x04F5 [0x02] IF !(ExtData[1]->WorkLocal[13] > 1*) GOTO 0x0504
120: 0x04FD [0x48] [System] [7591*]:
    → "That record is held by %0!"
121: 0x0500 [0x23] WAIT_FOR_DIALOG_INTERACTION
122: 0x0501 [0x01] GOTO 0x0515
123: 0x0504 [0x03] Work_Zone[6] = ExtData[1]->WorkLocal[13]
124: 0x0509 [0x0C] Work_Zone[6]--
125: 0x050C [0x03] Work_Zone[7] = ExtData[1]->WorkLocal[13]
126: 0x0511 [0x48] [System] [7590*]:
    → "That record is held by $5 adventurers, including %0!"
127: 0x0514 [0x23] WAIT_FOR_DIALOG_INTERACTION

SUBROUTINE_0515:
128: 0x0515 [0x03] ExtData[1]->WorkLocal[3] = ExtData[1]->WorkLocal[4]
129: 0x051A [0x03] ExtData[1]->WorkLocal[20] = 100*
130: 0x051F [0x07] ExtData[1]->WorkLocal[20] += ExtData[1]->WorkLocal[3]
131: 0x0524 [0x02] IF !(ExtData[1]->WorkLocal[2] == ExtData[1]->WorkLocal[20]) GOTO 0x0534
132: 0x052C [0x03] ExtData[1]->WorkLocal[2] = 1*
133: 0x0531 [0x01] GOTO 0x0539
134: 0x0534 [0x03] ExtData[1]->WorkLocal[2] = 0*

SUBROUTINE_0539:
135: 0x0539 [0x02] IF !(ExtData[1]->WorkLocal[2] == 0*) GOTO 0x055F
136: 0x0541 [0x02] IF !(ExtData[1]->WorkLocal[14] == 1*) GOTO 0x055F
137: 0x0549 [0x24] CREATE_DIALOG(message_id=7566*, default_option=1*, option_flags=0*)
    → "Skip the event? [Yes./No.]"
138: 0x0550 [0x25] WAIT_DIALOG_SELECT()
139: 0x0551 [0x02] IF !(Work_Zone[0] == 0*) GOTO 0x055F
140: 0x0559 [0x05] ExtData[1]->WorkLocal[2] = 1
141: 0x055C [0x01] GOTO 0x055F

SUBROUTINE_055F:
142: 0x055F [0x06] ExtData[1]->WorkLocal[21] = 0
143: 0x0562 [0x02] IF !(ExtData[1]->WorkLocal[4] == 0*) GOTO 0x0572
144: 0x056A [0x03] ExtData[1]->WorkLocal[21] = 1*
145: 0x056F [0x01] GOTO 0x0757
146: 0x0572 [0x02] IF !(ExtData[1]->WorkLocal[4] == 1*) GOTO 0x0582
147: 0x057A [0x03] ExtData[1]->WorkLocal[21] = 1*
148: 0x057F [0x01] GOTO 0x0757
149: 0x0582 [0x02] IF !(ExtData[1]->WorkLocal[4] == 2*) GOTO 0x0592
150: 0x058A [0x03] ExtData[1]->WorkLocal[21] = 1*
151: 0x058F [0x01] GOTO 0x0757
152: 0x0592 [0x02] IF !(ExtData[1]->WorkLocal[4] == 3*) GOTO 0x05A2
153: 0x059A [0x03] ExtData[1]->WorkLocal[21] = 0*
154: 0x059F [0x01] GOTO 0x0757
155: 0x05A2 [0x02] IF !(ExtData[1]->WorkLocal[4] == 4*) GOTO 0x05B2
156: 0x05AA [0x03] ExtData[1]->WorkLocal[21] = 0*
157: 0x05AF [0x01] GOTO 0x0757
158: 0x05B2 [0x02] IF !(ExtData[1]->WorkLocal[4] == 5*) GOTO 0x05C2
159: 0x05BA [0x03] ExtData[1]->WorkLocal[21] = 0*
160: 0x05BF [0x01] GOTO 0x0757
161: 0x05C2 [0x02] IF !(ExtData[1]->WorkLocal[4] == 6*) GOTO 0x05D2
162: 0x05CA [0x03] ExtData[1]->WorkLocal[21] = 0*
163: 0x05CF [0x01] GOTO 0x0757
164: 0x05D2 [0x02] IF !(ExtData[1]->WorkLocal[4] == 7*) GOTO 0x05E2
165: 0x05DA [0x03] ExtData[1]->WorkLocal[21] = 0*
166: 0x05DF [0x01] GOTO 0x0757
167: 0x05E2 [0x02] IF !(ExtData[1]->WorkLocal[4] == 8*) GOTO 0x05F2
168: 0x05EA [0x03] ExtData[1]->WorkLocal[21] = 0*
169: 0x05EF [0x01] GOTO 0x0757
170: 0x05F2 [0x02] IF !(ExtData[1]->WorkLocal[4] == 9*) GOTO 0x0602
171: 0x05FA [0x03] ExtData[1]->WorkLocal[21] = 0*
172: 0x05FF [0x01] GOTO 0x0757
173: 0x0602 [0x02] IF !(ExtData[1]->WorkLocal[4] == 10*) GOTO 0x0612
174: 0x060A [0x03] ExtData[1]->WorkLocal[21] = 0*
175: 0x060F [0x01] GOTO 0x0757
176: 0x0612 [0x02] IF !(ExtData[1]->WorkLocal[4] == 11*) GOTO 0x0622
177: 0x061A [0x03] ExtData[1]->WorkLocal[21] = 0*
178: 0x061F [0x01] GOTO 0x0757
179: 0x0622 [0x02] IF !(ExtData[1]->WorkLocal[4] == 12*) GOTO 0x0632
180: 0x062A [0x03] ExtData[1]->WorkLocal[21] = 0*
181: 0x062F [0x01] GOTO 0x0757
182: 0x0632 [0x02] IF !(ExtData[1]->WorkLocal[4] == 13*) GOTO 0x0642
183: 0x063A [0x03] ExtData[1]->WorkLocal[21] = 0*
184: 0x063F [0x01] GOTO 0x0757
185: 0x0642 [0x02] IF !(ExtData[1]->WorkLocal[4] == 14*) GOTO 0x0652
186: 0x064A [0x03] ExtData[1]->WorkLocal[21] = 0*
187: 0x064F [0x01] GOTO 0x0757
188: 0x0652 [0x02] IF !(ExtData[1]->WorkLocal[4] == 15*) GOTO 0x0662
189: 0x065A [0x03] ExtData[1]->WorkLocal[21] = 0*
190: 0x065F [0x01] GOTO 0x0757
191: 0x0662 [0x02] IF !(ExtData[1]->WorkLocal[4] == 16*) GOTO 0x0672
192: 0x066A [0x03] ExtData[1]->WorkLocal[21] = 0*
193: 0x066F [0x01] GOTO 0x0757
194: 0x0672 [0x02] IF !(ExtData[1]->WorkLocal[4] == 17*) GOTO 0x0682
195: 0x067A [0x03] ExtData[1]->WorkLocal[21] = 0*
196: 0x067F [0x01] GOTO 0x0757
197: 0x0682 [0x02] IF !(ExtData[1]->WorkLocal[4] == 18*) GOTO 0x0692
198: 0x068A [0x03] ExtData[1]->WorkLocal[21] = 0*
199: 0x068F [0x01] GOTO 0x0757
200: 0x0692 [0x02] IF !(ExtData[1]->WorkLocal[4] == 19*) GOTO 0x06A2
201: 0x069A [0x03] ExtData[1]->WorkLocal[21] = 0*
202: 0x069F [0x01] GOTO 0x0757
203: 0x06A2 [0x02] IF !(ExtData[1]->WorkLocal[4] == 20*) GOTO 0x06B2
204: 0x06AA [0x03] ExtData[1]->WorkLocal[21] = 0*
205: 0x06AF [0x01] GOTO 0x0757
206: 0x06B2 [0x02] IF !(ExtData[1]->WorkLocal[4] == 21*) GOTO 0x06C2
207: 0x06BA [0x03] ExtData[1]->WorkLocal[21] = 0*
208: 0x06BF [0x01] GOTO 0x0757
209: 0x06C2 [0x02] IF !(ExtData[1]->WorkLocal[4] == 22*) GOTO 0x06D2
210: 0x06CA [0x03] ExtData[1]->WorkLocal[21] = 0*
211: 0x06CF [0x01] GOTO 0x0757
212: 0x06D2 [0x02] IF !(ExtData[1]->WorkLocal[4] == 23*) GOTO 0x06E2
213: 0x06DA [0x03] ExtData[1]->WorkLocal[21] = 0*
214: 0x06DF [0x01] GOTO 0x0757
215: 0x06E2 [0x02] IF !(ExtData[1]->WorkLocal[4] == 24*) GOTO 0x06F2
216: 0x06EA [0x03] ExtData[1]->WorkLocal[21] = 0*
217: 0x06EF [0x01] GOTO 0x0757
218: 0x06F2 [0x02] IF !(ExtData[1]->WorkLocal[4] == 25*) GOTO 0x0702
219: 0x06FA [0x03] ExtData[1]->WorkLocal[21] = 0*
220: 0x06FF [0x01] GOTO 0x0757
221: 0x0702 [0x02] IF !(ExtData[1]->WorkLocal[4] == 26*) GOTO 0x0712
222: 0x070A [0x03] ExtData[1]->WorkLocal[21] = 0*
223: 0x070F [0x01] GOTO 0x0757
224: 0x0712 [0x02] IF !(ExtData[1]->WorkLocal[4] == 27*) GOTO 0x0722
225: 0x071A [0x03] ExtData[1]->WorkLocal[21] = 0*
226: 0x071F [0x01] GOTO 0x0757
227: 0x0722 [0x02] IF !(ExtData[1]->WorkLocal[4] == 28*) GOTO 0x0732
228: 0x072A [0x03] ExtData[1]->WorkLocal[21] = 0*
229: 0x072F [0x01] GOTO 0x0757
230: 0x0732 [0x02] IF !(ExtData[1]->WorkLocal[4] == 29*) GOTO 0x0742
231: 0x073A [0x03] ExtData[1]->WorkLocal[21] = 0*
232: 0x073F [0x01] GOTO 0x0757
233: 0x0742 [0x02] IF !(ExtData[1]->WorkLocal[4] == 30*) GOTO 0x0752
234: 0x074A [0x03] ExtData[1]->WorkLocal[21] = 0*
235: 0x074F [0x01] GOTO 0x0757
236: 0x0752 [0x03] ExtData[1]->WorkLocal[21] = 0*

SUBROUTINE_0757:
237: 0x0757 [0x02] IF !(ExtData[1]->WorkLocal[2] == 1*) GOTO 0x078D
238: 0x075F [0x5C] MUSIC_CONTROL: Set Idle (Day) music to song 198*
239: 0x0763 [0x5C] MUSIC_CONTROL: Set Idle (Night) music to song 198*
240: 0x0767 [0x5C] MUSIC_CONTROL: Set Combat (Solo) music to song 198*
241: 0x076B [0x5C] MUSIC_CONTROL: Set Combat (Party) music to song 198*
242: 0x076F [0x02] IF !(ExtData[1]->WorkLocal[4] == 2*) GOTO 0x078A
243: 0x0777 [0x5C] MUSIC_CONTROL: Set Idle (Day) music to song 196*
244: 0x077B [0x5C] MUSIC_CONTROL: Set Idle (Night) music to song 196*
245: 0x077F [0x5C] MUSIC_CONTROL: Set Combat (Solo) music to song 196*
246: 0x0783 [0x5C] MUSIC_CONTROL: Set Combat (Party) music to song 196*
247: 0x0787 [0x01] GOTO 0x078A

SUBROUTINE_078A:
248: 0x078A [0x01] GOTO 0x07A5
249: 0x078D [0x02] IF !(ExtData[1]->WorkLocal[21] == 0*) GOTO 0x07A5
250: 0x0795 [0x5C] MUSIC_CONTROL: Set Idle (Day) music to song 198*
251: 0x0799 [0x5C] MUSIC_CONTROL: Set Idle (Night) music to song 198*
252: 0x079D [0x5C] MUSIC_CONTROL: Set Combat (Solo) music to song 198*
253: 0x07A1 [0x5C] MUSIC_CONTROL: Set Combat (Party) music to song 198*

SUBROUTINE_07A5:
254: 0x07A5 [0x02] IF !(ExtData[1]->WorkLocal[2] == 0*) GOTO 0x07B3
255: 0x07AD [0x1A] CALL_SUBROUTINE(address=0x11DC)
256: 0x07B0 [0x01] GOTO 0x07EC
257: 0x07B3 [0x6C] FADE_ENTITY_COLOR(entity_id=LocalPlayer, end_alpha=0*, fade_time=1*)
258: 0x07BC [0x62] LOAD_EVENT_SCHEDULER: Load scheduler "main" with entities [LocalPlayer, LocalPlayer], work=[2*, 0*]
259: 0x07CD [0x45] LOAD_SCHEDULED_TASK: Load scheduler "ovl1" with entities [LocalPlayer, LocalPlayer], work=[200*, 0*]
260: 0x07DE [0x46] CAMERA_CONTROL: Query status
261: 0x07E0 [0x12] 0x0200 = rand()
262: 0x07E3 [0x12] ExtData[1]->WorkLocal[0] = rand()
263: 0x07E6 [0x80] LOAD_WAIT(entity=Unknown NPC (ID: 1174924288/0x4607EC00))
264: 0x07EB [0x00] END_REQSTACK()

SUBROUTINE_07EC:
265: 0x07EC [0x03] Work_Zone[1] = 100*
266: 0x07F1 [0x07] Work_Zone[1] += ExtData[1]->WorkLocal[3]
267: 0x07F6 [0x01] GOTO 0x0813

SUBROUTINE_07FC:
268: 0x07FC [0x0B] ExtData[1]->WorkLocal[0]++
269: 0x07FF [0x02] IF !(0* == 1*) GOTO 0x080C
270: 0x0807 [0x03] ExtData[1]->WorkLocal[0] = 4*
271: 0x080C [0x01] GOTO 0x01A4
272: 0x080F [0x48] [System] [7230*]:
    → "You cannot enter the battlefield at present. Please wait a little longer."
273: 0x0812 [0x23] WAIT_FOR_DIALOG_INTERACTION

SUBROUTINE_0813:
274: 0x0813 [0x45] LOAD_SCHEDULED_TASK: Load scheduler "whi1" with entities [LocalPlayer, LocalPlayer], work=[201*, 0*]
275: 0x0824 [0x45] LOAD_SCHEDULED_TASK: Load scheduler "blof" with entities [LocalPlayer, LocalPlayer], work=[200*, 0*]
276: 0x0835 [0x45] LOAD_SCHEDULED_TASK: Load scheduler "fdi0" with entities [LocalPlayer, LocalPlayer], work=[200*, 0*]

SUBROUTINE_0846:
277: 0x0846 [0x02] IF !(ExtData[1]->WorkLocal[7] == 1*) GOTO 0x085E
278: 0x084E [0x5C] MUSIC_CONTROL: Set Idle (Day) music to song 0*
279: 0x0852 [0x5C] MUSIC_CONTROL: Set Idle (Night) music to song 0*
280: 0x0856 [0x5C] MUSIC_CONTROL: Set Combat (Solo) music to song 198*
281: 0x085A [0x5C] MUSIC_CONTROL: Set Combat (Party) music to song 198*
282: 0x085E [0x21] END_EVENT
283: 0x085F [0x00] END_REQSTACK()

SUBROUTINE_0860:
284: 0x0860 [0x1B] RETURN
```

#### Data or dead code:

```
# Dead code (unreachable instructions):
     0x0070 [0x01] GOTO 0x0145
# Dead code (unreachable instructions):
     0x0116 [0x01] GOTO 0x011E
# Dead code (unreachable instructions):
     0x0142 [0x01] GOTO 0x0145
# Dead code (unreachable instructions):
     0x025C [0x01] GOTO 0x07FC
     0x026E [0x01] GOTO 0x07FC
# Dead code (unreachable instructions):
     0x0470 [0x01] GOTO 0x07FC
     0x047E [0x01] GOTO 0x07FC
# Dead code (unreachable instructions):
     0x07F9 [0x01] GOTO 0x07FC
```

### Event 32002

#### Metadata

| Field        | Value     |
|--------------|-----------|
| Entrypoint   | 0x0861    |
| Data Size    | 494 bytes |
| Instructions | 83        |

```
      00 01 02 03 04 05 06 07  08 09 0A 0B 0C 0D 0E 0F
      -- -- -- -- -- -- -- --  -- -- -- -- -- -- -- --
0860:    03 05 00 06 10 03 21  00 07 10 03 20 00 08 10   ......!.... ...
0870: 20 01 42 3B F0 FF FF 7F  20 10 21 10 22 10 3A F0   .B;.... .!.".:.
0880: FF FF 7F 23 10 45 0E 80  F0 FF FF 7F F0 FF FF 7F  ...#.E..........
0890: 66 64 6F 31 00 80 55 0E  80 F0 FF FF 7F F0 FF FF  fdo1..U.........
08A0: 7F 66 64 6F 31 02 00 80  05 80 00 0C 09 02 05 00  .fdo1...........
08B0: 05 80 80 C4 08 47 00 00  80 00 80 00 80 00 80 47  .....G.........G
08C0: 01 01 09 09 02 05 00 09  80 80 DB 08 47 00 00 80  ............G...
08D0: 00 80 00 80 00 80 47 01  01 09 09 02 05 00 0A 80  ......G.........
08E0: 80 F2 08 47 00 00 80 00  80 00 80 00 80 47 01 01  ...G.........G..
08F0: 09 09 02 05 00 0B 80 80  09 09 47 00 00 80 00 80  ..........G.....
0900: 00 80 00 80 47 01 01 09  09 01 15 0A 02 20 00 37  ....G........ .7
0910: 80 80 96 09 02 21 00 00  80 80 2B 09 47 00 38 80  .....!....+.G.8.
0920: 39 80 3A 80 3B 80 47 01  01 93 09 02 21 00 05 80  9.:.;.G.....!...
0930: 80 42 09 47 00 3C 80 3D  80 3E 80 3F 80 47 01 01  .B.G.<.=.>.?.G..
0940: 93 09 02 21 00 09 80 80  59 09 47 00 40 80 41 80  ...!....Y.G.@.A.
0950: 42 80 43 80 47 01 01 93  09 02 21 00 0A 80 80 70  B.C.G.....!....p
0960: 09 47 00 44 80 45 80 46  80 47 80 47 01 01 93 09  .G.D.E.F.G.G....
0970: 02 21 00 0B 80 80 87 09  47 00 48 80 49 80 4A 80  .!......G.H.I.J.
0980: 4B 80 47 01 01 93 09 47  00 4C 80 4D 80 4E 80 4F  K.G....G.L.M.N.O
0990: 80 47 01 01 15 0A 02 20  00 18 80 80 09 0A 02 21  .G..... .......!
09A0: 00 05 80 80 B5 09 47 00  50 80 51 80 52 80 53 80  ......G.P.Q.R.S.
09B0: 47 01 01 06 0A 02 21 00  09 80 80 CC 09 47 00 54  G.....!......G.T
09C0: 80 55 80 56 80 57 80 47  01 01 06 0A 02 21 00 0A  .U.V.W.G.....!..
09D0: 80 80 E3 09 47 00 58 80  59 80 5A 80 5B 80 47 01  ....G.X.Y.Z.[.G.
09E0: 01 06 0A 02 21 00 0B 80  80 FA 09 47 00 5C 80 5D  ....!......G.\.]
09F0: 80 5E 80 5F 80 47 01 01  06 0A 47 00 4C 80 4D 80  .^._.G....G.L.M.
0A00: 4E 80 4F 80 47 01 01 15  0A 47 00 4C 80 4D 80 4E  N.O.G....G.L.M.N
0A10: 80 4F 80 47 01 38 0F 80  1A F6 31 45 36 80 F0 FF  .O.G.8....1E6...
0A20: FF 7F F0 FF FF 7F 77 68  69 31 00 80 45 0E 80 F0  ......whi1..E...
0A30: FF FF 7F F0 FF FF 7F 62  6C 6F 66 00 80 5C 00 00  .......blof..\..
0A40: 80 5C 01 00 80 5C 02 33  80 5C 03 33 80 21 00     .\...\.3.\.3.!. 
```

#### Opcodes

```
  0: 0x0861 [0x03] ExtData[1]->WorkLocal[5] = Work_Zone[6]
  1: 0x0866 [0x03] ExtData[1]->WorkLocal[33] = Work_Zone[7]
  2: 0x086B [0x03] ExtData[1]->WorkLocal[32] = Work_Zone[8]
  3: 0x0870 [0x20] SET_CLI_EVENT_UC_FLAG: Lock player control
  4: 0x0872 [0x42] SET_CLI_EVENT_CANCEL_DATA()
  5: 0x0873 [0x3B] GET_ENTITY_POSITION(entity=LocalPlayer, x_destination=Work_Zone[32], y_destination=Work_Zone[33], z_destination=Work_Zone[34])
  6: 0x087E [0x3A] CONVERT_YAW_TO_BYTE(entity=LocalPlayer, result_destination=Work_Zone[35])
  7: 0x0885 [0x45] LOAD_SCHEDULED_TASK: Load scheduler "fdo1" with entities [LocalPlayer, LocalPlayer], work=[200*, 0*]
  8: 0x0896 [0x55] WAIT_LOAD_SCHEDULER: Wait for scheduler "fdo1" with entities [LocalPlayer, LocalPlayer], work=200*
  9: 0x08A5 [0x02] IF !(0* == 1*) GOTO 0x090C
 10: 0x08AD [0x02] IF !(ExtData[1]->WorkLocal[5] == 1*) GOTO 0x08C4
 11: 0x08B5 [0x47] UPDATE_PLAYER_POS(0.000*, 0.000*, 0.000*, yaw=0.0°*)
 12: 0x08BF [0x47] WAIT_PLAYER_POS_UPDATE
 13: 0x08C1 [0x01] GOTO 0x0909
 14: 0x08C4 [0x02] IF !(ExtData[1]->WorkLocal[5] == 2*) GOTO 0x08DB
 15: 0x08CC [0x47] UPDATE_PLAYER_POS(0.000*, 0.000*, 0.000*, yaw=0.0°*)
 16: 0x08D6 [0x47] WAIT_PLAYER_POS_UPDATE
 17: 0x08D8 [0x01] GOTO 0x0909
 18: 0x08DB [0x02] IF !(ExtData[1]->WorkLocal[5] == 3*) GOTO 0x08F2
 19: 0x08E3 [0x47] UPDATE_PLAYER_POS(0.000*, 0.000*, 0.000*, yaw=0.0°*)
 20: 0x08ED [0x47] WAIT_PLAYER_POS_UPDATE
 21: 0x08EF [0x01] GOTO 0x0909
 22: 0x08F2 [0x02] IF !(ExtData[1]->WorkLocal[5] == 4*) GOTO 0x0909
 23: 0x08FA [0x47] UPDATE_PLAYER_POS(0.000*, 0.000*, 0.000*, yaw=0.0°*)
 24: 0x0904 [0x47] WAIT_PLAYER_POS_UPDATE
 25: 0x0906 [0x01] GOTO 0x0909

SUBROUTINE_0909:
 26: 0x0909 [0x01] GOTO 0x0A15
 27: 0x090C [0x02] IF !(ExtData[1]->WorkLocal[32] == 180*) GOTO 0x0996
 28: 0x0914 [0x02] IF !(ExtData[1]->WorkLocal[33] == 0*) GOTO 0x092B
 29: 0x091C [0x47] UPDATE_PLAYER_POS(-605.141*, 479.929*, -22.681*, yaw=87.2°*)
 30: 0x0926 [0x47] WAIT_PLAYER_POS_UPDATE
 31: 0x0928 [0x01] GOTO 0x0993
 32: 0x092B [0x02] IF !(ExtData[1]->WorkLocal[33] == 1*) GOTO 0x0942
 33: 0x0933 [0x47] UPDATE_PLAYER_POS(-262.589*, 377.857*, -137.313*, yaw=305.3°*)
 34: 0x093D [0x47] WAIT_PLAYER_POS_UPDATE
 35: 0x093F [0x01] GOTO 0x0993
 36: 0x0942 [0x02] IF !(ExtData[1]->WorkLocal[33] == 2*) GOTO 0x0959
 37: 0x094A [0x47] UPDATE_PLAYER_POS(18.348*, 486.940*, -224.334*, yaw=17.1°*)
 38: 0x0954 [0x47] WAIT_PLAYER_POS_UPDATE
 39: 0x0956 [0x01] GOTO 0x0993
 40: 0x0959 [0x02] IF !(ExtData[1]->WorkLocal[33] == 3*) GOTO 0x0970
 41: 0x0961 [0x47] UPDATE_PLAYER_POS(231.593*, 360.094*, -173.572*, yaw=160.8°*)
 42: 0x096B [0x47] WAIT_PLAYER_POS_UPDATE
 43: 0x096D [0x01] GOTO 0x0993
 44: 0x0970 [0x02] IF !(ExtData[1]->WorkLocal[33] == 4*) GOTO 0x0987
 45: 0x0978 [0x47] UPDATE_PLAYER_POS(553.664*, 523.939*, -38.205*, yaw=233.9°*)
 46: 0x0982 [0x47] WAIT_PLAYER_POS_UPDATE
 47: 0x0984 [0x01] GOTO 0x0993
 48: 0x0987 [0x47] UPDATE_PLAYER_POS(-677.989*, -32.366*, -4.956*, yaw=180.0°*)
 49: 0x0991 [0x47] WAIT_PLAYER_POS_UPDATE

SUBROUTINE_0993:
 50: 0x0993 [0x01] GOTO 0x0A15
 51: 0x0996 [0x02] IF !(ExtData[1]->WorkLocal[32] == 6*) GOTO 0x0A09
 52: 0x099E [0x02] IF !(ExtData[1]->WorkLocal[33] == 1*) GOTO 0x09B5
 53: 0x09A6 [0x47] UPDATE_PLAYER_POS(-875.117*, -43.892*, -48.084*, yaw=45.1°*)
 54: 0x09B0 [0x47] WAIT_PLAYER_POS_UPDATE
 55: 0x09B2 [0x01] GOTO 0x0A06
 56: 0x09B5 [0x02] IF !(ExtData[1]->WorkLocal[33] == 2*) GOTO 0x09CC
 57: 0x09BD [0x47] UPDATE_PLAYER_POS(-755.499*, 563.947*, -112.035*, yaw=313.5°*)
 58: 0x09C7 [0x47] WAIT_PLAYER_POS_UPDATE
 59: 0x09C9 [0x01] GOTO 0x0A06
 60: 0x09CC [0x02] IF !(ExtData[1]->WorkLocal[33] == 3*) GOTO 0x09E3
 61: 0x09D4 [0x47] UPDATE_PLAYER_POS(123.251*, 754.209*, -172.124*, yaw=38.7°*)
 62: 0x09DE [0x47] WAIT_PLAYER_POS_UPDATE
 63: 0x09E0 [0x01] GOTO 0x0A06
 64: 0x09E3 [0x02] IF !(ExtData[1]->WorkLocal[33] == 4*) GOTO 0x09FA
 65: 0x09EB [0x47] UPDATE_PLAYER_POS(-516.404*, -803.323*, 24.206*, yaw=38.4°*)
 66: 0x09F5 [0x47] WAIT_PLAYER_POS_UPDATE
 67: 0x09F7 [0x01] GOTO 0x0A06
 68: 0x09FA [0x47] UPDATE_PLAYER_POS(-677.989*, -32.366*, -4.956*, yaw=180.0°*)
 69: 0x0A04 [0x47] WAIT_PLAYER_POS_UPDATE

SUBROUTINE_0A06:
 70: 0x0A06 [0x01] GOTO 0x0A15
 71: 0x0A09 [0x47] UPDATE_PLAYER_POS(-677.989*, -32.366*, -4.956*, yaw=180.0°*)
 72: 0x0A13 [0x47] WAIT_PLAYER_POS_UPDATE

SUBROUTINE_0A15:
 73: 0x0A15 [0x38] SET_CLIENT_EVENT_MODE(mode=19*)
 74: 0x0A18 [0x1A] CALL_SUBROUTINE(address=0x31F6)
 75: 0x0A1B [0x45] LOAD_SCHEDULED_TASK: Load scheduler "whi1" with entities [LocalPlayer, LocalPlayer], work=[201*, 0*]
 76: 0x0A2C [0x45] LOAD_SCHEDULED_TASK: Load scheduler "blof" with entities [LocalPlayer, LocalPlayer], work=[200*, 0*]
 77: 0x0A3D [0x5C] MUSIC_CONTROL: Set Idle (Day) music to song 0*
 78: 0x0A41 [0x5C] MUSIC_CONTROL: Set Idle (Night) music to song 0*
 79: 0x0A45 [0x5C] MUSIC_CONTROL: Set Combat (Solo) music to song 198*
 80: 0x0A49 [0x5C] MUSIC_CONTROL: Set Combat (Party) music to song 198*
 81: 0x0A4D [0x21] END_EVENT
 82: 0x0A4E [0x00] END_REQSTACK()
```

### Event 32001

#### Metadata

| Field        | Value      |
|--------------|------------|
| Entrypoint   | 0x0A4F     |
| Data Size    | 1128 bytes |
| Instructions | 198        |

```
      00 01 02 03 04 05 06 07  08 09 0A 0B 0C 0D 0E 0F
      -- -- -- -- -- -- -- --  -- -- -- -- -- -- -- --
0A40:                                               79                 y
0A50: 00 F0 FF FF 7F F0 FF FF  7F 03 21 00 02 10 03 1A  ..........!.....
0A60: 00 03 10 03 1B 00 05 10  03 20 00 06 10 03 19 00  ......... ......
0A70: 07 10 03 17 00 08 10 02  17 00 0A 80 04 84 0A 03  ................
0A80: 17 00 00 80 02 19 00 05  80 80 AD 0A 03 01 10 60  ...............`
0A90: 80 43 00 43 01 02 08 10  00 80 00 A5 0A 03 17 00  .C.C............
0AA0: 00 80 01 AA 0A 03 17 00  09 80 01 AD 0A 03 1C 00  ................
0AB0: 09 10 20 01 42 3B F0 FF  FF 7F 20 10 21 10 22 10  .. .B;.... .!.".
0AC0: 3A F0 FF FF 7F 23 10 02  20 00 37 80 01 D2 0A 1C  :....#.. .7.....
0AD0: 61 80 45 36 80 F0 FF FF  7F F0 FF FF 7F 77 68 69  a.E6.........whi
0AE0: 31 00 80 45 0E 80 F0 FF  FF 7F F0 FF FF 7F 62 6C  1..E..........bl
0AF0: 6F 66 00 80 45 0E 80 F0  FF FF 7F F0 FF FF 7F 66  of..E..........f
0B00: 64 6F 31 00 80 55 0E 80  F0 FF FF 7F F0 FF FF 7F  do1..U..........
0B10: 66 64 6F 31 6C F0 FF FF  7F 62 80 05 80 06 01 10  fdo1l....b......
0B20: 02 17 00 00 80 03 2B 0B  01 79 0C 02 20 00 37 80  ......+..y.. .7.
0B30: 80 B5 0B 02 21 00 00 80  80 4A 0B 47 00 63 80 64  ....!....J.G.c.d
0B40: 80 65 80 66 80 47 01 01  B2 0B 02 21 00 05 80 80  .e.f.G.....!....
0B50: 61 0B 47 00 67 80 68 80  69 80 6A 80 47 01 01 B2  a.G.g.h.i.j.G...
0B60: 0B 02 21 00 09 80 80 78  0B 47 00 6B 80 6C 80 6D  ..!....x.G.k.l.m
0B70: 80 6E 80 47 01 01 B2 0B  02 21 00 0A 80 80 8F 0B  .n.G.....!......
0B80: 47 00 6F 80 70 80 71 80  72 80 47 01 01 B2 0B 02  G.o.p.q.r.G.....
0B90: 21 00 0B 80 80 A6 0B 47  00 73 80 74 80 75 80 76  !......G.s.t.u.v
0BA0: 80 47 01 01 B2 0B 47 00  4C 80 4D 80 4E 80 4F 80  .G....G.L.M.N.O.
0BB0: 47 01 01 79 0C 02 20 00  77 80 80 E3 0B 02 19 00  G..y.. .w.......
0BC0: 00 80 80 D4 0B 47 00 4C  80 4D 80 4E 80 4F 80 47  .....G.L.M.N.O.G
0BD0: 01 01 E0 0B 47 00 78 80  79 80 7A 80 7B 80 47 01  ....G.x.y.z.{.G.
0BE0: 01 79 0C 02 20 00 7C 80  80 11 0C 02 19 00 0B 80  .y.. .|.........
0BF0: 80 02 0C 47 00 7D 80 7E  80 7F 80 80 80 47 01 01  ...G.}.~.....G..
0C00: 0E 0C 47 00 4C 80 4D 80  4E 80 4F 80 47 01 01 79  ..G.L.M.N.O.G..y
0C10: 0C 02 20 00 81 80 80 3F  0C 02 19 00 0B 80 80 30  .. ....?.......0
0C20: 0C 47 00 82 80 83 80 84  80 85 80 47 01 01 3C 0C  .G.........G..<.
0C30: 47 00 4C 80 4D 80 4E 80  4F 80 47 01 01 79 0C 02  G.L.M.N.O.G..y..
0C40: 20 00 86 80 80 6D 0C 02  19 00 0A 80 80 5E 0C 47   ....m.......^.G
0C50: 00 87 80 88 80 89 80 8A  80 47 01 01 6A 0C 47 00  .........G..j.G.
0C60: 4C 80 4D 80 4E 80 4F 80  47 01 01 79 0C 47 00 4C  L.M.N.O.G..y.G.L
0C70: 80 4D 80 4E 80 4F 80 47  01 38 0F 80 02 17 00 09  .M.N.O.G.8......
0C80: 80 00 87 0C 01 A2 0C 02  17 00 05 80 00 52 0D 1C  .............R..
0C90: 01 80 24 32 80 05 80 00  80 25 02 00 10 00 80 00  ..$2.....%......
0CA0: 52 0D 02 20 00 37 80 00  0E 0D 02 21 00 00 80 80  R.. .7.....!....
0CB0: BC 0C 36 63 80 64 80 65  80 01 0B 0D 02 21 00 05  ..6c.d.e.....!..
0CC0: 80 80 CE 0C 36 67 80 68  80 69 80 01 0B 0D 02 21  ....6g.h.i.....!
0CD0: 00 09 80 80 E0 0C 36 6B  80 6C 80 6D 80 01 0B 0D  ......6k.l.m....
0CE0: 02 21 00 0A 80 80 F2 0C  36 6F 80 70 80 71 80 01  .!......6o.p.q..
0CF0: 0B 0D 02 21 00 0B 80 80  04 0D 36 73 80 74 80 75  ...!......6s.t.u
0D00: 80 01 0B 0D 36 4C 80 4D  80 4E 80 01 17 0D 37 4C  ....6L.M.N....7L
0D10: 80 4D 80 4E 80 4F 80 80  F0 FF FF 7F 62 09 80 F0  .M.N.O......b...
0D20: FF FF 7F F0 FF FF 7F 6D  61 69 6E 00 80 45 0E 80  .......main..E..
0D30: F0 FF FF 7F F0 FF FF 7F  66 64 69 32 00 80 46 02  ........fdi2..F.
0D40: 12 00 02 12 00 00 80 00  4C 0D 46 00 01 AF 0D 01  ........L.F.....
0D50: 52 0D 02 17 00 04 80 04  A1 0D 5C 00 33 80 5C 01  R.........\.3.\.
0D60: 33 80 5C 02 33 80 5C 03  33 80 02 19 00 00 80 80  3.\.3.\.3.......
0D70: 85 0D 5C 00 8B 80 5C 01  8B 80 5C 02 8B 80 5C 03  ..\...\...\...\.
0D80: 8B 80 01 A0 0D 02 19 00  05 80 80 A0 0D 5C 00 00  .............\..
0D90: 80 5C 01 00 80 5C 02 00  80 5C 03 00 80 01 A0 0D  .\...\...\......
0DA0: 9A 1A A6 1B 02 17 00 00  80 03 AF 0D 01 4F 0E 02  .............O..
0DB0: 20 00 8C 80 80 BA 0D 01  BA 0D 02 20 00 1E 80 80   .......... ....
0DC0: C5 0D 01 4F 0E 02 20 00  0F 80 80 D0 0D 01 4F 0E  ...O.. .......O.
0DD0: 02 20 00 21 80 80 DB 0D  01 4F 0E 02 20 00 23 80  . .!.....O.. .#.
0DE0: 80 E6 0D 01 4F 0E 03 05  10 1B 00 02 05 10 00 80  ....O...........
0DF0: 02 4F 0E 02 05 10 2E 80  04 0E 0E 3F 04 10 05 10  .O.........?....
0E00: 2E 80 15 05 10 2E 80 48  8D 80 23 01 12 0E 48 8E  .......H..#...H.
0E10: 80 23 02 1B 00 1A 00 05  26 0E 03 07 10 19 00 48  .#......&......H
0E20: 8F 80 23 01 4F 0E 02 1A  00 2E 80 04 46 0E 03 05  ..#.O.......F...
0E30: 10 1A 00 3F 04 10 05 10  2E 80 15 05 10 2E 80 48  ...?...........H
0E40: 90 80 23 01 4F 0E 03 05  10 1A 00 48 91 80 23 02  ..#.O......H..#.
0E50: 18 00 00 80 00 67 0E 5C  00 00 80 5C 01 00 80 5C  .....g.\...\...\
0E60: 02 33 80 5C 03 33 80 02  17 00 00 80 03 90 0E 45  .3.\.3.........E
0E70: 0E 80 F0 FF FF 7F F0 FF  FF 7F 66 64 69 32 00 80  ..........fdi2..
0E80: 5C 00 00 80 5C 01 00 80  5C 02 33 80 5C 03 33 80  \...\...\.3.\.3.
0E90: 06 18 00 45 36 80 F0 FF  FF 7F F0 FF FF 7F 77 68  ...E6.........wh
0EA0: 69 31 00 80 45 0E 80 F0  FF FF 7F F0 FF FF 7F 62  i1..E..........b
0EB0: 6C 6F 66 00 80 21 00                              lof..!.         
```

#### Opcodes

```
  0: 0x0A4F [0x79] LocalPlayer looks at LocalPlayer (Basic look)
  1: 0x0A59 [0x03] ExtData[1]->WorkLocal[33] = Work_Zone[2]
  2: 0x0A5E [0x03] ExtData[1]->WorkLocal[26] = Work_Zone[3]
  3: 0x0A63 [0x03] ExtData[1]->WorkLocal[27] = Work_Zone[5]
  4: 0x0A68 [0x03] ExtData[1]->WorkLocal[32] = Work_Zone[6]
  5: 0x0A6D [0x03] ExtData[1]->WorkLocal[25] = Work_Zone[7]
  6: 0x0A72 [0x03] ExtData[1]->WorkLocal[23] = Work_Zone[8]
  7: 0x0A77 [0x02] IF !(ExtData[1]->WorkLocal[23] < 3*) GOTO 0x0A84
  8: 0x0A7F [0x03] ExtData[1]->WorkLocal[23] = 0*
  9: 0x0A84 [0x02] IF !(ExtData[1]->WorkLocal[25] == 1*) GOTO 0x0AAD
 10: 0x0A8C [0x03] Work_Zone[1] = 18201*
 11: 0x0A91 [0x43] SEND_EVENT_UPDATE: Send pending tag to server (packet 0x005B)
 12: 0x0A93 [0x43] SEND_EVENT_UPDATE: Check pending flag (skip if not pending)
 13: 0x0A95 [0x02] IF !(Work_Zone[8] == 0*) GOTO 0x0AA5
 14: 0x0A9D [0x03] ExtData[1]->WorkLocal[23] = 0*
 15: 0x0AA2 [0x01] GOTO 0x0AAA
 16: 0x0AA5 [0x03] ExtData[1]->WorkLocal[23] = 2*

SUBROUTINE_0AAA:
 17: 0x0AAA [0x01] GOTO 0x0AAD

SUBROUTINE_0AAD:
 18: 0x0AAD [0x03] ExtData[1]->WorkLocal[28] = Work_Zone[9]
 19: 0x0AB2 [0x20] SET_CLI_EVENT_UC_FLAG: Lock player control
 20: 0x0AB4 [0x42] SET_CLI_EVENT_CANCEL_DATA()
 21: 0x0AB5 [0x3B] GET_ENTITY_POSITION(entity=LocalPlayer, x_destination=Work_Zone[32], y_destination=Work_Zone[33], z_destination=Work_Zone[34])
 22: 0x0AC0 [0x3A] CONVERT_YAW_TO_BYTE(entity=LocalPlayer, result_destination=Work_Zone[35])
 23: 0x0AC7 [0x02] IF !(ExtData[1]->WorkLocal[32] == 180*) GOTO 0x0AD2
 24: 0x0ACF [0x1C] WAIT(300* ticks)
 25: 0x0AD2 [0x45] LOAD_SCHEDULED_TASK: Load scheduler "whi1" with entities [LocalPlayer, LocalPlayer], work=[201*, 0*]
 26: 0x0AE3 [0x45] LOAD_SCHEDULED_TASK: Load scheduler "blof" with entities [LocalPlayer, LocalPlayer], work=[200*, 0*]
 27: 0x0AF4 [0x45] LOAD_SCHEDULED_TASK: Load scheduler "fdo1" with entities [LocalPlayer, LocalPlayer], work=[200*, 0*]
 28: 0x0B05 [0x55] WAIT_LOAD_SCHEDULER: Wait for scheduler "fdo1" with entities [LocalPlayer, LocalPlayer], work=200*
 29: 0x0B14 [0x6C] FADE_ENTITY_COLOR(entity_id=LocalPlayer, end_alpha=128*, fade_time=1*)
 30: 0x0B1D [0x06] Work_Zone[1] = 0
 31: 0x0B20 [0x02] IF !(ExtData[1]->WorkLocal[23] >= 0*) GOTO 0x0B2B
 32: 0x0B28 [0x01] GOTO 0x0C79
 33: 0x0B2B [0x02] IF !(ExtData[1]->WorkLocal[32] == 180*) GOTO 0x0BB5
 34: 0x0B33 [0x02] IF !(ExtData[1]->WorkLocal[33] == 0*) GOTO 0x0B4A
 35: 0x0B3B [0x47] UPDATE_PLAYER_POS(-618.329*, -643.868*, -25.805*, yaw=330.5°*)
 36: 0x0B45 [0x47] WAIT_PLAYER_POS_UPDATE
 37: 0x0B47 [0x01] GOTO 0x0BB2
 38: 0x0B4A [0x02] IF !(ExtData[1]->WorkLocal[33] == 1*) GOTO 0x0B61
 39: 0x0B52 [0x47] UPDATE_PLAYER_POS(-332.163*, -441.914*, -95.055*, yaw=330.5°*)
 40: 0x0B5C [0x47] WAIT_PLAYER_POS_UPDATE
 41: 0x0B5E [0x01] GOTO 0x0BB2
 42: 0x0B61 [0x02] IF !(ExtData[1]->WorkLocal[33] == 2*) GOTO 0x0B78
 43: 0x0B69 [0x47] UPDATE_PLAYER_POS(-12.464*, -648.377*, -194.629*, yaw=331.3°*)
 44: 0x0B73 [0x47] WAIT_PLAYER_POS_UPDATE
 45: 0x0B75 [0x01] GOTO 0x0BB2
 46: 0x0B78 [0x02] IF !(ExtData[1]->WorkLocal[33] == 3*) GOTO 0x0B8F
 47: 0x0B80 [0x47] UPDATE_PLAYER_POS(323.381*, -443.793*, -108.440*, yaw=329.1°*)
 48: 0x0B8A [0x47] WAIT_PLAYER_POS_UPDATE
 49: 0x0B8C [0x01] GOTO 0x0BB2
 50: 0x0B8F [0x02] IF !(ExtData[1]->WorkLocal[33] == 4*) GOTO 0x0BA6
 51: 0x0B97 [0x47] UPDATE_PLAYER_POS(599.907*, -676.969*, -22.473*, yaw=330.7°*)
 52: 0x0BA1 [0x47] WAIT_PLAYER_POS_UPDATE
 53: 0x0BA3 [0x01] GOTO 0x0BB2
 54: 0x0BA6 [0x47] UPDATE_PLAYER_POS(-677.989*, -32.366*, -4.956*, yaw=180.0°*)
 55: 0x0BB0 [0x47] WAIT_PLAYER_POS_UPDATE

SUBROUTINE_0BB2:
 56: 0x0BB2 [0x01] GOTO 0x0C79
 57: 0x0BB5 [0x02] IF !(ExtData[1]->WorkLocal[32] == 168*) GOTO 0x0BE3
 58: 0x0BBD [0x02] IF !(ExtData[1]->WorkLocal[25] == 0*) GOTO 0x0BD4
 59: 0x0BC5 [0x47] UPDATE_PLAYER_POS(-677.989*, -32.366*, -4.956*, yaw=180.0°*)
 60: 0x0BCF [0x47] WAIT_PLAYER_POS_UPDATE
 61: 0x0BD1 [0x01] GOTO 0x0BE0
 62: 0x0BD4 [0x47] UPDATE_PLAYER_POS(200.059*, -21.958*, -0.250*, yaw=91.5°*)
 63: 0x0BDE [0x47] WAIT_PLAYER_POS_UPDATE

SUBROUTINE_0BE0:
 64: 0x0BE0 [0x01] GOTO 0x0C79
 65: 0x0BE3 [0x02] IF !(ExtData[1]->WorkLocal[32] == 202*) GOTO 0x0C11
 66: 0x0BEB [0x02] IF !(ExtData[1]->WorkLocal[25] == 4*) GOTO 0x0C02
 67: 0x0BF3 [0x47] UPDATE_PLAYER_POS(538.604*, 501.900*, -13.942*, yaw=286.5°*)
 68: 0x0BFD [0x47] WAIT_PLAYER_POS_UPDATE
 69: 0x0BFF [0x01] GOTO 0x0C0E
 70: 0x0C02 [0x47] UPDATE_PLAYER_POS(-677.989*, -32.366*, -4.956*, yaw=180.0°*)
 71: 0x0C0C [0x47] WAIT_PLAYER_POS_UPDATE

SUBROUTINE_0C0E:
 72: 0x0C0E [0x01] GOTO 0x0C79
 73: 0x0C11 [0x02] IF !(ExtData[1]->WorkLocal[32] == 203*) GOTO 0x0C3F
 74: 0x0C19 [0x02] IF !(ExtData[1]->WorkLocal[25] == 4*) GOTO 0x0C30
 75: 0x0C21 [0x47] UPDATE_PLAYER_POS(553.205*, 589.633*, -0.021*, yaw=124.4°*)
 76: 0x0C2B [0x47] WAIT_PLAYER_POS_UPDATE
 77: 0x0C2D [0x01] GOTO 0x0C3C
 78: 0x0C30 [0x47] UPDATE_PLAYER_POS(-677.989*, -32.366*, -4.956*, yaw=180.0°*)
 79: 0x0C3A [0x47] WAIT_PLAYER_POS_UPDATE

SUBROUTINE_0C3C:
 80: 0x0C3C [0x01] GOTO 0x0C79
 81: 0x0C3F [0x02] IF !(ExtData[1]->WorkLocal[32] == 211*) GOTO 0x0C6D
 82: 0x0C47 [0x02] IF !(ExtData[1]->WorkLocal[25] == 3*) GOTO 0x0C5E
 83: 0x0C4F [0x47] UPDATE_PLAYER_POS(569.224*, 548.462*, 36.837*, yaw=59.1°*)
 84: 0x0C59 [0x47] WAIT_PLAYER_POS_UPDATE
 85: 0x0C5B [0x01] GOTO 0x0C6A
 86: 0x0C5E [0x47] UPDATE_PLAYER_POS(-677.989*, -32.366*, -4.956*, yaw=180.0°*)
 87: 0x0C68 [0x47] WAIT_PLAYER_POS_UPDATE

SUBROUTINE_0C6A:
 88: 0x0C6A [0x01] GOTO 0x0C79
 89: 0x0C6D [0x47] UPDATE_PLAYER_POS(-677.989*, -32.366*, -4.956*, yaw=180.0°*)
 90: 0x0C77 [0x47] WAIT_PLAYER_POS_UPDATE

SUBROUTINE_0C79:
 91: 0x0C79 [0x38] SET_CLIENT_EVENT_MODE(mode=19*)
 92: 0x0C7C [0x02] IF !(ExtData[1]->WorkLocal[23] == 2*) GOTO 0x0C87
 93: 0x0C84 [0x01] GOTO 0x0CA2
 94: 0x0C87 [0x02] IF !(ExtData[1]->WorkLocal[23] == 1*) GOTO 0x0D52
 95: 0x0C8F [0x1C] WAIT(15* ticks)
 96: 0x0C92 [0x24] CREATE_DIALOG(message_id=7566*, default_option=1*, option_flags=0*)
    → "Skip the event? [Yes./No.]"
 97: 0x0C99 [0x25] WAIT_DIALOG_SELECT()
 98: 0x0C9A [0x02] IF !(Work_Zone[0] == 0*) GOTO 0x0D52

SUBROUTINE_0CA2:
 99: 0x0CA2 [0x02] IF !(ExtData[1]->WorkLocal[32] == 180*) GOTO 0x0D0E
100: 0x0CAA [0x02] IF !(ExtData[1]->WorkLocal[33] == 0*) GOTO 0x0CBC
101: 0x0CB2 [0x36] SET_ENTITY_EVENT_POSITION(pos_x=-618.329*, pos_z=-643.868*, pos_y=-25.805*)
102: 0x0CB9 [0x01] GOTO 0x0D0B
103: 0x0CBC [0x02] IF !(ExtData[1]->WorkLocal[33] == 1*) GOTO 0x0CCE
104: 0x0CC4 [0x36] SET_ENTITY_EVENT_POSITION(pos_x=-332.163*, pos_z=-441.914*, pos_y=-95.055*)
105: 0x0CCB [0x01] GOTO 0x0D0B
106: 0x0CCE [0x02] IF !(ExtData[1]->WorkLocal[33] == 2*) GOTO 0x0CE0
107: 0x0CD6 [0x36] SET_ENTITY_EVENT_POSITION(pos_x=-12.464*, pos_z=-648.377*, pos_y=-194.629*)
108: 0x0CDD [0x01] GOTO 0x0D0B
109: 0x0CE0 [0x02] IF !(ExtData[1]->WorkLocal[33] == 3*) GOTO 0x0CF2
110: 0x0CE8 [0x36] SET_ENTITY_EVENT_POSITION(pos_x=323.381*, pos_z=-443.793*, pos_y=-108.440*)
111: 0x0CEF [0x01] GOTO 0x0D0B
112: 0x0CF2 [0x02] IF !(ExtData[1]->WorkLocal[33] == 4*) GOTO 0x0D04
113: 0x0CFA [0x36] SET_ENTITY_EVENT_POSITION(pos_x=599.907*, pos_z=-676.969*, pos_y=-22.473*)
114: 0x0D01 [0x01] GOTO 0x0D0B
115: 0x0D04 [0x36] SET_ENTITY_EVENT_POSITION(pos_x=-677.989*, pos_z=-32.366*, pos_y=-4.956*)

SUBROUTINE_0D0B:
116: 0x0D0B [0x01] GOTO 0x0D17
117: 0x0D0E [0x37] UPDATE_EVENT_POSITION_AND_DIR: x=-677.989*, z=-32.366*, y=-4.956*, direction=180.0°*

SUBROUTINE_0D17:
118: 0x0D17 [0x80] LOAD_WAIT(entity=LocalPlayer)
119: 0x0D1C [0x62] LOAD_EVENT_SCHEDULER: Load scheduler "main" with entities [LocalPlayer, LocalPlayer], work=[2*, 0*]
120: 0x0D2D [0x45] LOAD_SCHEDULED_TASK: Load scheduler "fdi2" with entities [LocalPlayer, LocalPlayer], work=[200*, 0*]
121: 0x0D3E [0x46] CAMERA_CONTROL: Query status
122: 0x0D40 [0x12] 0x0200 = rand()
123: 0x0D43 [0x12] ExtData[1]->WorkLocal[0] = rand()
124: 0x0D46 [0x80] LOAD_WAIT(entity=Unknown NPC (ID: 1175276544/0x460D4C00))
125: 0x0D4B [0x00] END_REQSTACK()

SUBROUTINE_0D52:
126: 0x0D52 [0x02] IF !(ExtData[1]->WorkLocal[23] < 4294967295*) GOTO 0x0DA1
127: 0x0D5A [0x5C] MUSIC_CONTROL: Set Idle (Day) music to song 198*
128: 0x0D5E [0x5C] MUSIC_CONTROL: Set Idle (Night) music to song 198*
129: 0x0D62 [0x5C] MUSIC_CONTROL: Set Combat (Solo) music to song 198*
130: 0x0D66 [0x5C] MUSIC_CONTROL: Set Combat (Party) music to song 198*
131: 0x0D6A [0x02] IF !(ExtData[1]->WorkLocal[25] == 0*) GOTO 0x0D85
132: 0x0D72 [0x5C] MUSIC_CONTROL: Set Idle (Day) music to song 195*
133: 0x0D76 [0x5C] MUSIC_CONTROL: Set Idle (Night) music to song 195*
134: 0x0D7A [0x5C] MUSIC_CONTROL: Set Combat (Solo) music to song 195*
135: 0x0D7E [0x5C] MUSIC_CONTROL: Set Combat (Party) music to song 195*
136: 0x0D82 [0x01] GOTO 0x0DA0
137: 0x0D85 [0x02] IF !(ExtData[1]->WorkLocal[25] == 1*) GOTO 0x0DA0
138: 0x0D8D [0x5C] MUSIC_CONTROL: Set Idle (Day) music to song 0*
139: 0x0D91 [0x5C] MUSIC_CONTROL: Set Idle (Night) music to song 0*
140: 0x0D95 [0x5C] MUSIC_CONTROL: Set Combat (Solo) music to song 0*
141: 0x0D99 [0x5C] MUSIC_CONTROL: Set Combat (Party) music to song 0*
142: 0x0D9D [0x01] GOTO 0x0DA0

SUBROUTINE_0DA0:
143: 0x0DA0 [0x9A] WAIT_MUSIC_SERVER()
144: 0x0DA1 [0x1A] CALL_SUBROUTINE(address=0x1BA6)
145: 0x0DA4 [0x02] IF !(ExtData[1]->WorkLocal[23] >= 0*) GOTO 0x0DAF
146: 0x0DAC [0x01] GOTO 0x0E4F

SUBROUTINE_0DAF:
147: 0x0DAF [0x02] IF !(ExtData[1]->WorkLocal[32] == 36*) GOTO 0x0DBA
148: 0x0DB7 [0x01] GOTO 0x0DBA

SUBROUTINE_0DBA:
149: 0x0DBA [0x02] IF !(ExtData[1]->WorkLocal[32] == 17*) GOTO 0x0DC5
150: 0x0DC2 [0x01] GOTO 0x0E4F
151: 0x0DC5 [0x02] IF !(ExtData[1]->WorkLocal[32] == 19*) GOTO 0x0DD0
152: 0x0DCD [0x01] GOTO 0x0E4F
153: 0x0DD0 [0x02] IF !(ExtData[1]->WorkLocal[32] == 21*) GOTO 0x0DDB
154: 0x0DD8 [0x01] GOTO 0x0E4F
155: 0x0DDB [0x02] IF !(ExtData[1]->WorkLocal[32] == 23*) GOTO 0x0DE6
156: 0x0DE3 [0x01] GOTO 0x0E4F
157: 0x0DE6 [0x03] Work_Zone[5] = ExtData[1]->WorkLocal[27]
158: 0x0DEB [0x02] IF !(Work_Zone[5] <= 0*) GOTO 0x0E4F
159: 0x0DF3 [0x02] IF !(Work_Zone[5] < 60*) GOTO 0x0E0E
160: 0x0DFB [0x3F] Work_Zone[4] = Work_Zone[5] % 60*
161: 0x0E02 [0x15] Work_Zone[5] /= 60*
162: 0x0E07 [0x48] [System] [7568*]:
    → "Battlefield clear time: $3 minute[/s], $2 second[/s]!"
163: 0x0E0A [0x23] WAIT_FOR_DIALOG_INTERACTION
164: 0x0E0B [0x01] GOTO 0x0E12
165: 0x0E0E [0x48] [System] [7567*]:
    → "Battlefield clear time: $3 second[/s]!"
166: 0x0E11 [0x23] WAIT_FOR_DIALOG_INTERACTION

SUBROUTINE_0E12:
167: 0x0E12 [0x02] IF !(ExtData[1]->WorkLocal[27] > ExtData[1]->WorkLocal[26]) GOTO 0x0E26
168: 0x0E1A [0x03] Work_Zone[7] = ExtData[1]->WorkLocal[25]
169: 0x0E1F [0x48] [System] [7602*]:
    → "You have broken the clear time record for "[The Celestial Nexus/$26The Celestial Nexus/Crystal Paradise]"!"
170: 0x0E22 [0x23] WAIT_FOR_DIALOG_INTERACTION
171: 0x0E23 [0x01] GOTO 0x0E4F
172: 0x0E26 [0x02] IF !(ExtData[1]->WorkLocal[26] < 60*) GOTO 0x0E46
173: 0x0E2E [0x03] Work_Zone[5] = ExtData[1]->WorkLocal[26]
174: 0x0E33 [0x3F] Work_Zone[4] = Work_Zone[5] % 60*
175: 0x0E3A [0x15] Work_Zone[5] /= 60*
176: 0x0E3F [0x48] [System] [7570*]:
    → "The current battlefield clear time record is $3 minute[/s] $2 second[/s]."
177: 0x0E42 [0x23] WAIT_FOR_DIALOG_INTERACTION
178: 0x0E43 [0x01] GOTO 0x0E4F
179: 0x0E46 [0x03] Work_Zone[5] = ExtData[1]->WorkLocal[26]
180: 0x0E4B [0x48] [System] [7569*]:
    → "The current battlefield clear time record is $3 second[/s]."
181: 0x0E4E [0x23] WAIT_FOR_DIALOG_INTERACTION

SUBROUTINE_0E4F:
182: 0x0E4F [0x02] IF !(ExtData[1]->WorkLocal[24] == 0*) GOTO 0x0E67
183: 0x0E57 [0x5C] MUSIC_CONTROL: Set Idle (Day) music to song 0*
184: 0x0E5B [0x5C] MUSIC_CONTROL: Set Idle (Night) music to song 0*
185: 0x0E5F [0x5C] MUSIC_CONTROL: Set Combat (Solo) music to song 198*
186: 0x0E63 [0x5C] MUSIC_CONTROL: Set Combat (Party) music to song 198*
187: 0x0E67 [0x02] IF !(ExtData[1]->WorkLocal[23] >= 0*) GOTO 0x0E90
188: 0x0E6F [0x45] LOAD_SCHEDULED_TASK: Load scheduler "fdi2" with entities [LocalPlayer, LocalPlayer], work=[200*, 0*]
189: 0x0E80 [0x5C] MUSIC_CONTROL: Set Idle (Day) music to song 0*
190: 0x0E84 [0x5C] MUSIC_CONTROL: Set Idle (Night) music to song 0*
191: 0x0E88 [0x5C] MUSIC_CONTROL: Set Combat (Solo) music to song 198*
192: 0x0E8C [0x5C] MUSIC_CONTROL: Set Combat (Party) music to song 198*
193: 0x0E90 [0x06] ExtData[1]->WorkLocal[24] = 0
194: 0x0E93 [0x45] LOAD_SCHEDULED_TASK: Load scheduler "whi1" with entities [LocalPlayer, LocalPlayer], work=[201*, 0*]
195: 0x0EA4 [0x45] LOAD_SCHEDULED_TASK: Load scheduler "blof" with entities [LocalPlayer, LocalPlayer], work=[200*, 0*]
196: 0x0EB5 [0x21] END_EVENT
197: 0x0EB6 [0x00] END_REQSTACK()
```

#### Data or dead code:

```
# Dead code (unreachable instructions):
     0x0D4C [0x01] GOTO 0x0DAF
     0x0D4F [0x01] GOTO 0x0D52
```

### Event 32003

#### Metadata

| Field        | Value     |
|--------------|-----------|
| Entrypoint   | 0x0EB7    |
| Data Size    | 435 bytes |
| Instructions | 77        |

```
      00 01 02 03 04 05 06 07  08 09 0A 0B 0C 0D 0E 0F
      -- -- -- -- -- -- -- --  -- -- -- -- -- -- -- --
0EB0:                      06  1D 00 06 1E 00 03 21 00         .......!.
0EC0: 06 10 03 20 00 07 10 03  1F 00 08 10 06 01 10 1A  ... ............
0ED0: D7 31 02 1D 00 05 80 00  68 10 42 03 01 10 09 80  .1......h.B.....
0EE0: 43 00 43 01 03 01 10 0A  80 43 00 43 01 1A EE 31  C.C......C.C...1
0EF0: 02 1E 00 05 80 00 68 10  45 0E 80 F0 FF FF 7F F0  ......h.E.......
0F00: FF FF 7F 66 64 6F 31 00  80 55 0E 80 F0 FF FF 7F  ...fdo1..U......
0F10: F0 FF FF 7F 66 64 6F 31  03 01 10 0B 80 02 20 00  ....fdo1...... .
0F20: 37 80 80 A7 0F 02 21 00  00 80 80 3C 0F 47 00 38  7.....!....<.G.8
0F30: 80 39 80 3A 80 3B 80 47  01 01 A4 0F 02 21 00 05  .9.:.;.G.....!..
0F40: 80 80 53 0F 47 00 3C 80  3D 80 3E 80 3F 80 47 01  ..S.G.<.=.>.?.G.
0F50: 01 A4 0F 02 21 00 09 80  80 6A 0F 47 00 40 80 41  ....!....j.G.@.A
0F60: 80 42 80 43 80 47 01 01  A4 0F 02 21 00 0A 80 80  .B.C.G.....!....
0F70: 81 0F 47 00 44 80 45 80  46 80 47 80 47 01 01 A4  ..G.D.E.F.G.G...
0F80: 0F 02 21 00 0B 80 80 98  0F 47 00 48 80 49 80 4A  ..!......G.H.I.J
0F90: 80 4B 80 47 01 01 A4 0F  47 00 4C 80 4D 80 4E 80  .K.G....G.L.M.N.
0FA0: 4F 80 47 01 01 26 10 02  20 00 18 80 80 1A 10 02  O.G..&.. .......
0FB0: 1F 00 05 80 80 C6 0F 47  00 50 80 51 80 52 80 53  .......G.P.Q.R.S
0FC0: 80 47 01 01 17 10 02 1F  00 09 80 80 DD 0F 47 00  .G............G.
0FD0: 54 80 55 80 56 80 57 80  47 01 01 17 10 02 1F 00  T.U.V.W.G.......
0FE0: 0A 80 80 F4 0F 47 00 58  80 59 80 5A 80 5B 80 47  .....G.X.Y.Z.[.G
0FF0: 01 01 17 10 02 1F 00 0B  80 80 0B 10 47 00 5C 80  ............G.\.
1000: 5D 80 5E 80 5F 80 47 01  01 17 10 47 00 4C 80 4D  ].^._.G....G.L.M
1010: 80 4E 80 4F 80 47 01 01  26 10 47 00 4C 80 4D 80  .N.O.G..&.G.L.M.
1020: 4E 80 4F 80 47 01 38 0F  80 79 00 F0 FF FF 7F F0  N.O.G.8..y......
1030: FF FF 7F 1A F2 31 45 36  80 F0 FF FF 7F F0 FF FF  .....1E6........
1040: 7F 77 68 69 31 00 80 45  0E 80 F0 FF FF 7F F0 FF  .whi1..E........
1050: FF 7F 62 6C 6F 66 00 80  5C 00 00 80 5C 01 00 80  ..blof..\...\...
1060: 5C 02 33 80 5C 03 33 80  21 00                    \.3.\.3.!.      
```

#### Opcodes

```
  0: 0x0EB7 [0x06] ExtData[1]->WorkLocal[29] = 0
  1: 0x0EBA [0x06] ExtData[1]->WorkLocal[30] = 0
  2: 0x0EBD [0x03] ExtData[1]->WorkLocal[33] = Work_Zone[6]
  3: 0x0EC2 [0x03] ExtData[1]->WorkLocal[32] = Work_Zone[7]
  4: 0x0EC7 [0x03] ExtData[1]->WorkLocal[31] = Work_Zone[8]
  5: 0x0ECC [0x06] Work_Zone[1] = 0
  6: 0x0ECF [0x1A] CALL_SUBROUTINE(address=0x31D7)
  7: 0x0ED2 [0x02] IF !(ExtData[1]->WorkLocal[29] == 1*) GOTO 0x1068
  8: 0x0EDA [0x42] SET_CLI_EVENT_CANCEL_DATA()
  9: 0x0EDB [0x03] Work_Zone[1] = 2*
 10: 0x0EE0 [0x43] SEND_EVENT_UPDATE: Send pending tag to server (packet 0x005B)
 11: 0x0EE2 [0x43] SEND_EVENT_UPDATE: Check pending flag (skip if not pending)
 12: 0x0EE4 [0x03] Work_Zone[1] = 3*
 13: 0x0EE9 [0x43] SEND_EVENT_UPDATE: Send pending tag to server (packet 0x005B)
 14: 0x0EEB [0x43] SEND_EVENT_UPDATE: Check pending flag (skip if not pending)
 15: 0x0EED [0x1A] CALL_SUBROUTINE(address=0x31EE)
 16: 0x0EF0 [0x02] IF !(ExtData[1]->WorkLocal[30] == 1*) GOTO 0x1068
 17: 0x0EF8 [0x45] LOAD_SCHEDULED_TASK: Load scheduler "fdo1" with entities [LocalPlayer, LocalPlayer], work=[200*, 0*]
 18: 0x0F09 [0x55] WAIT_LOAD_SCHEDULER: Wait for scheduler "fdo1" with entities [LocalPlayer, LocalPlayer], work=200*
 19: 0x0F18 [0x03] Work_Zone[1] = 4*
 20: 0x0F1D [0x02] IF !(ExtData[1]->WorkLocal[32] == 180*) GOTO 0x0FA7
 21: 0x0F25 [0x02] IF !(ExtData[1]->WorkLocal[33] == 0*) GOTO 0x0F3C
 22: 0x0F2D [0x47] UPDATE_PLAYER_POS(-605.141*, 479.929*, -22.681*, yaw=87.2°*)
 23: 0x0F37 [0x47] WAIT_PLAYER_POS_UPDATE
 24: 0x0F39 [0x01] GOTO 0x0FA4
 25: 0x0F3C [0x02] IF !(ExtData[1]->WorkLocal[33] == 1*) GOTO 0x0F53
 26: 0x0F44 [0x47] UPDATE_PLAYER_POS(-262.589*, 377.857*, -137.313*, yaw=305.3°*)
 27: 0x0F4E [0x47] WAIT_PLAYER_POS_UPDATE
 28: 0x0F50 [0x01] GOTO 0x0FA4
 29: 0x0F53 [0x02] IF !(ExtData[1]->WorkLocal[33] == 2*) GOTO 0x0F6A
 30: 0x0F5B [0x47] UPDATE_PLAYER_POS(18.348*, 486.940*, -224.334*, yaw=17.1°*)
 31: 0x0F65 [0x47] WAIT_PLAYER_POS_UPDATE
 32: 0x0F67 [0x01] GOTO 0x0FA4
 33: 0x0F6A [0x02] IF !(ExtData[1]->WorkLocal[33] == 3*) GOTO 0x0F81
 34: 0x0F72 [0x47] UPDATE_PLAYER_POS(231.593*, 360.094*, -173.572*, yaw=160.8°*)
 35: 0x0F7C [0x47] WAIT_PLAYER_POS_UPDATE
 36: 0x0F7E [0x01] GOTO 0x0FA4
 37: 0x0F81 [0x02] IF !(ExtData[1]->WorkLocal[33] == 4*) GOTO 0x0F98
 38: 0x0F89 [0x47] UPDATE_PLAYER_POS(553.664*, 523.939*, -38.205*, yaw=233.9°*)
 39: 0x0F93 [0x47] WAIT_PLAYER_POS_UPDATE
 40: 0x0F95 [0x01] GOTO 0x0FA4
 41: 0x0F98 [0x47] UPDATE_PLAYER_POS(-677.989*, -32.366*, -4.956*, yaw=180.0°*)
 42: 0x0FA2 [0x47] WAIT_PLAYER_POS_UPDATE

SUBROUTINE_0FA4:
 43: 0x0FA4 [0x01] GOTO 0x1026
 44: 0x0FA7 [0x02] IF !(ExtData[1]->WorkLocal[32] == 6*) GOTO 0x101A
 45: 0x0FAF [0x02] IF !(ExtData[1]->WorkLocal[31] == 1*) GOTO 0x0FC6
 46: 0x0FB7 [0x47] UPDATE_PLAYER_POS(-875.117*, -43.892*, -48.084*, yaw=45.1°*)
 47: 0x0FC1 [0x47] WAIT_PLAYER_POS_UPDATE
 48: 0x0FC3 [0x01] GOTO 0x1017
 49: 0x0FC6 [0x02] IF !(ExtData[1]->WorkLocal[31] == 2*) GOTO 0x0FDD
 50: 0x0FCE [0x47] UPDATE_PLAYER_POS(-755.499*, 563.947*, -112.035*, yaw=313.5°*)
 51: 0x0FD8 [0x47] WAIT_PLAYER_POS_UPDATE
 52: 0x0FDA [0x01] GOTO 0x1017
 53: 0x0FDD [0x02] IF !(ExtData[1]->WorkLocal[31] == 3*) GOTO 0x0FF4
 54: 0x0FE5 [0x47] UPDATE_PLAYER_POS(123.251*, 754.209*, -172.124*, yaw=38.7°*)
 55: 0x0FEF [0x47] WAIT_PLAYER_POS_UPDATE
 56: 0x0FF1 [0x01] GOTO 0x1017
 57: 0x0FF4 [0x02] IF !(ExtData[1]->WorkLocal[31] == 4*) GOTO 0x100B
 58: 0x0FFC [0x47] UPDATE_PLAYER_POS(-516.404*, -803.323*, 24.206*, yaw=38.4°*)
 59: 0x1006 [0x47] WAIT_PLAYER_POS_UPDATE
 60: 0x1008 [0x01] GOTO 0x1017
 61: 0x100B [0x47] UPDATE_PLAYER_POS(-677.989*, -32.366*, -4.956*, yaw=180.0°*)
 62: 0x1015 [0x47] WAIT_PLAYER_POS_UPDATE

SUBROUTINE_1017:
 63: 0x1017 [0x01] GOTO 0x1026
 64: 0x101A [0x47] UPDATE_PLAYER_POS(-677.989*, -32.366*, -4.956*, yaw=180.0°*)
 65: 0x1024 [0x47] WAIT_PLAYER_POS_UPDATE

SUBROUTINE_1026:
 66: 0x1026 [0x38] SET_CLIENT_EVENT_MODE(mode=19*)
 67: 0x1029 [0x79] LocalPlayer looks at LocalPlayer (Basic look)
 68: 0x1033 [0x1A] CALL_SUBROUTINE(address=0x31F2)
 69: 0x1036 [0x45] LOAD_SCHEDULED_TASK: Load scheduler "whi1" with entities [LocalPlayer, LocalPlayer], work=[201*, 0*]
 70: 0x1047 [0x45] LOAD_SCHEDULED_TASK: Load scheduler "blof" with entities [LocalPlayer, LocalPlayer], work=[200*, 0*]
 71: 0x1058 [0x5C] MUSIC_CONTROL: Set Idle (Day) music to song 0*
 72: 0x105C [0x5C] MUSIC_CONTROL: Set Idle (Night) music to song 0*
 73: 0x1060 [0x5C] MUSIC_CONTROL: Set Combat (Solo) music to song 198*
 74: 0x1064 [0x5C] MUSIC_CONTROL: Set Combat (Party) music to song 198*
 75: 0x1068 [0x21] END_EVENT
 76: 0x1069 [0x00] END_REQSTACK()
```

### Event 32004

#### Metadata

| Field        | Value     |
|--------------|-----------|
| Entrypoint   | 0x106A    |
| Data Size    | 150 bytes |
| Instructions | 32        |

```
      00 01 02 03 04 05 06 07  08 09 0A 0B 0C 0D 0E 0F
      -- -- -- -- -- -- -- --  -- -- -- -- -- -- -- --
1060:                                03 22 00 02 10 03            ."....
1070: 23 00 03 10 03 1F 00 04  10 03 24 00 05 10 20 01  #.........$... .
1080: 46 01 42 38 0F 80 79 00  F0 FF FF 7F F0 FF FF 7F  F.B8..y.........
1090: 02 24 00 00 80 00 9B 10  1C 92 80 02 1F 00 00 80  .$..............
10A0: 80 B7 10 1A 36 39 02 24  00 00 80 00 B4 10 38 18  ....69.$......8.
10B0: 80 1A 30 37 01 D3 10 02  1F 00 05 80 80 D3 10 1A  ..07............
10C0: F4 3A 02 24 00 00 80 00  D0 10 38 18 80 1A 30 37  .:.$......8...07
10D0: 01 D3 10 46 00 45 0E 80  F0 FF FF 7F F0 FF FF 7F  ...F.E..........
10E0: 66 64 69 32 00 80 02 24  00 05 80 00 FE 10 5C 00  fdi2...$......\.
10F0: 00 80 5C 01 00 80 5C 02  33 80 5C 03 33 80 21 00  ..\...\.3.\.3.!.
```

#### Opcodes

```
  0: 0x106A [0x03] ExtData[1]->WorkLocal[34] = Work_Zone[2]
  1: 0x106F [0x03] ExtData[1]->WorkLocal[35] = Work_Zone[3]
  2: 0x1074 [0x03] ExtData[1]->WorkLocal[31] = Work_Zone[4]
  3: 0x1079 [0x03] ExtData[1]->WorkLocal[36] = Work_Zone[5]
  4: 0x107E [0x20] SET_CLI_EVENT_UC_FLAG: Lock player control
  5: 0x1080 [0x46] CAMERA_CONTROL: Disable user control
  6: 0x1082 [0x42] SET_CLI_EVENT_CANCEL_DATA()
  7: 0x1083 [0x38] SET_CLIENT_EVENT_MODE(mode=19*)
  8: 0x1086 [0x79] LocalPlayer looks at LocalPlayer (Basic look)
  9: 0x1090 [0x02] IF !(ExtData[1]->WorkLocal[36] == 0*) GOTO 0x109B
 10: 0x1098 [0x1C] WAIT(120* ticks)
 11: 0x109B [0x02] IF !(ExtData[1]->WorkLocal[31] == 0*) GOTO 0x10B7
 12: 0x10A3 [0x1A] CALL_SUBROUTINE(address=0x3936)
 13: 0x10A6 [0x02] IF !(ExtData[1]->WorkLocal[36] == 0*) GOTO 0x10B4
 14: 0x10AE [0x38] SET_CLIENT_EVENT_MODE(mode=6*)
 15: 0x10B1 [0x1A] CALL_SUBROUTINE(address=0x3730)
 16: 0x10B4 [0x01] GOTO 0x10D3
 17: 0x10B7 [0x02] IF !(ExtData[1]->WorkLocal[31] == 1*) GOTO 0x10D3
 18: 0x10BF [0x1A] CALL_SUBROUTINE(address=0x3AF4)
 19: 0x10C2 [0x02] IF !(ExtData[1]->WorkLocal[36] == 0*) GOTO 0x10D0
 20: 0x10CA [0x38] SET_CLIENT_EVENT_MODE(mode=6*)
 21: 0x10CD [0x1A] CALL_SUBROUTINE(address=0x3730)
 22: 0x10D0 [0x01] GOTO 0x10D3

SUBROUTINE_10D3:
 23: 0x10D3 [0x46] CAMERA_CONTROL: Restore default settings
 24: 0x10D5 [0x45] LOAD_SCHEDULED_TASK: Load scheduler "fdi2" with entities [LocalPlayer, LocalPlayer], work=[200*, 0*]
 25: 0x10E6 [0x02] IF !(ExtData[1]->WorkLocal[36] == 1*) GOTO 0x10FE
 26: 0x10EE [0x5C] MUSIC_CONTROL: Set Idle (Day) music to song 0*
 27: 0x10F2 [0x5C] MUSIC_CONTROL: Set Idle (Night) music to song 0*
 28: 0x10F6 [0x5C] MUSIC_CONTROL: Set Combat (Solo) music to song 198*
 29: 0x10FA [0x5C] MUSIC_CONTROL: Set Combat (Party) music to song 198*
 30: 0x10FE [0x21] END_EVENT
 31: 0x10FF [0x00] END_REQSTACK()
```

### Event 32005

#### Metadata

| Field        | Value       |
|--------------|-------------|
| Entrypoint   | 0x1100      |
| Data Size    | 10178 bytes |
| Instructions | 123         |

```
      00 01 02 03 04 05 06 07  08 09 0A 0B 0C 0D 0E 0F
      -- -- -- -- -- -- -- --  -- -- -- -- -- -- -- --
1100: 83 25 00 03 26 00 06 10  07 26 00 25 00 42 1A BD  .%..&....&.%.B..
1110: 32 20 01 46 01 06 24 00  03 22 00 02 10 03 23 00  2 .F..$.."....#.
1120: 03 10 03 1F 00 04 10 1A  68 35 24 32 80 05 80 00  ........h5$2....
1130: 80 25 02 00 10 00 80 00  BC 11 02 26 00 25 00 02  .%.........&.%..
1140: 4B 11 1C 2E 80 83 25 00  01 3A 11 02 1F 00 00 80  K.....%..:......
1150: 80 66 11 5C 00 8B 80 5C  01 8B 80 5C 02 8B 80 5C  .f.\...\...\...\
1160: 03 8B 80 01 81 11 02 1F  00 05 80 80 81 11 5C 00  ..............\.
1170: 8B 80 5C 01 8B 80 5C 02  8B 80 5C 03 8B 80 01 81  ..\...\...\.....
1180: 11 03 01 10 00 80 45 36  80 F0 FF FF 7F F0 FF FF  ......E6........
1190: 7F 77 68 69 31 00 80 45  0E 80 F0 FF FF 7F F0 FF  .whi1..E........
11A0: FF 7F 62 6C 6F 66 00 80  45 0E 80 F0 FF FF 7F F0  ..blof..E.......
11B0: FF FF 7F 66 64 69 32 00  80 01 C1 11 03 01 10 05  ...fdi2.........
11C0: 80 46 00 21 00 24 0C 80  05 80 00 80 25 02 00 10  .F.!.$......%...
11D0: 00 80 00 DB 11 05 01 00  01 DB 11 1B 1A 7B 32 46  .............{2F
11E0: 01 79 00 F0 FF FF 7F F0  FF FF 7F 37 93 80 94 80  .y.........7....
11F0: 95 80 96 80 27 10 88 50  0B 01 03 45 97 80 F0 FF  ....'..P...E....
1200: FF 7F F0 FF FF 7F 73 65  67 31 00 80 1A 9C 32 1C  ......seg1....2.
1210: 2A 80 32 1C 80 1F 00 98  80 99 80 95 80 1F 01 52  *.2............R
1220: 97 80 F0 FF FF 7F F0 FF  FF 7F 73 65 67 31 45 97  ..........seg1E.
1230: 80 F0 FF FF 7F F0 FF FF  7F 73 65 67 32 00 80 27  .........seg2..'
1240: 10 88 50 0B 01 04 1F 00  9A 80 9B 80 95 80 1F 01  ..P.............
1250: 6F 1A 7B 32 55 97 80 F0  FF FF 7F F0 FF FF 7F 73  o.{2U..........s
1260: 65 67 32 02 03 00 00 80  80 71 12 1A AE 12 01 7F  eg2......q......
1270: 12 02 03 00 05 80 80 7F  12 1A 5A 1A 01 7F 12 37  ..........Z....7
1280: 9C 80 9D 80 9E 80 00 80  45 97 80 F0 FF FF 7F F0  ........E.......
1290: FF FF 7F 73 65 30 61 00  80 1A 97 33 55 97 80 F0  ...se0a....3U...
12A0: FF FF 7F F0 FF FF 7F 73  65 30 61 46 00 1B 1A 7B  .......se0aF...{
12B0: 32 46 01 27 10 90 50 0B  01 04 27 10 91 50 0B 01  2F.'..P...'..P..
12C0: 04 27 10 92 50 0B 01 04  27 10 93 50 0B 01 04 27  .'..P...'..P...'
12D0: 10 95 50 0B 01 04 27 10  9A 50 0B 01 04 92 01 F0  ..P...'..P......
12E0: FF FF 7F 92 01 90 50 0B  01 92 01 91 50 0B 01 92  ......P.....P...
12F0: 01 92 50 0B 01 92 01 93  50 0B 01 5C 00 9F 80 5C  ..P.....P..\...\
1300: 01 9F 80 5C 02 9F 80 5C  03 9F 80 9A 37 A0 80 A1  ...\...\....7...
1310: 80 A2 80 A3 80 27 10 90  50 0B 01 0A 27 10 91 50  .....'..P...'..P
1320: 0B 01 0B 27 10 92 50 0B  01 0B 27 10 93 50 0B 01  ...'..P...'..P..
1330: 0B 27 10 95 50 0B 01 09  27 10 9A 50 0B 01 09 27  .'..P...'..P...'
1340: 10 87 50 0B 01 02 94 01  90 50 0B 01 94 01 95 50  ..P......P.....P
1350: 0B 01 6C F0 FF FF 7F 00  80 05 80 6C 95 50 0B 01  ..l........l.P..
1360: 00 80 05 80 9F 22 80 86  50 0B 01 86 50 0B 01 00  ....."..P...P...
1370: FE FE FE 00 80 9F 1F 80  86 50 0B 01 86 50 0B 01  .........P...P..
1380: 00 FE FE FE 00 80 9F 20  80 86 50 0B 01 86 50 0B  ....... ..P...P.
1390: 01 6D 61 69 6E 00 80 9F  0F 80 86 50 0B 01 86 50  .main......P...P
13A0: 0B 01 6D 61 69 6E 00 80  5B A4 80 90 50 0B 01 90  ..main..[...P...
13B0: 50 0B 01 6A 69 6B 30 5B  A5 80 91 50 0B 01 91 50  P..jik0[...P...P
13C0: 0B 01 6A 69 6B 30 5B A6  80 92 50 0B 01 92 50 0B  ..jik0[...P...P.
13D0: 01 6A 69 6B 30 5B A7 80  93 50 0B 01 93 50 0B 01  .jik0[...P...P..
13E0: 6A 69 6B 30 45 0E 80 F0  FF FF 7F F0 FF FF 7F 62  jik0E..........b
13F0: 6C 6F 6E 00 80 45 97 80  F0 FF FF 7F F0 FF FF 7F  lon..E..........
1400: 73 65 30 31 00 80 5B A8  80 95 50 0B 01 95 50 0B  se01..[...P...P.
1410: 01 64 61 69 30 1A 9C 32  1C 25 80 9F 22 80 90 50  .dai0..2.%.."..P
1420: 0B 01 90 50 0B 01 6D 61  69 6E 00 80 5B A4 80 90  ...P..main..[...
1430: 50 0B 01 90 50 0B 01 6A  69 6B 31 55 97 80 F0 FF  P...P..jik1U....
1440: FF 7F F0 FF FF 7F 73 65  30 31 1C 01 80 5B A7 80  ......se01...[..
1450: 93 50 0B 01 93 50 0B 01  6A 69 6B 31 45 97 80 F0  .P...P..jik1E...
1460: FF FF 7F F0 FF FF 7F 73  65 30 33 00 80 1C 01 80  .......se03.....
1470: 9F 1F 80 87 50 0B 01 87  50 0B 01 6D 61 69 6E 00  ....P...P..main.
1480: 80 1C 1A 80 5B A5 80 91  50 0B 01 91 50 0B 01 6A  ....[...P...P..j
1490: 69 6B 31 45 97 80 F0 FF  FF 7F F0 FF FF 7F 73 30  ik1E..........s0
14A0: 31 32 00 80 1C 08 80 52  97 80 F0 FF FF 7F F0 FF  12.....R........
14B0: FF 7F 73 65 30 33 45 97  80 F0 FF FF 7F F0 FF FF  ..se03E.........
14C0: 7F 73 65 30 34 00 80 1C  61 80 52 97 80 F0 FF FF  .se04...a.R.....
14D0: 7F F0 FF FF 7F 73 65 30  34 45 97 80 F0 FF FF 7F  .....se04E......
14E0: F0 FF FF 7F 73 65 30 35  00 80 5B A7 80 93 50 0B  ....se05..[...P.
14F0: 01 93 50 0B 01 6A 69 6B  32 1C 2A 80 5B A6 80 92  ..P..jik2.*.[...
1500: 50 0B 01 92 50 0B 01 6A  69 6B 31 1C A9 80 5B A5  P...P..jik1...[.
1510: 80 91 50 0B 01 91 50 0B  01 6A 69 6B 32 55 97 80  ..P...P..jik2U..
1520: F0 FF FF 7F F0 FF FF 7F  73 65 30 35 6C F0 FF FF  ........se05l...
1530: 7F 62 80 05 80 5B A4 80  90 50 0B 01 90 50 0B 01  .b...[...P...P..
1540: 6A 69 6B 62 45 97 80 F0  FF FF 7F F0 FF FF 7F 73  jikbE..........s
1550: 65 30 37 00 80 2B 92 50  0B 01 AA 80 23 45 97 80  e07..+.P....#E..
1560: F0 FF FF 7F F0 FF FF 7F  73 65 30 38 00 80 2B 91  ........se08..+.
1570: 50 0B 01 AB 80 23 45 97  80 F0 FF FF 7F F0 FF FF  P....#E.........
1580: 7F 73 65 30 39 00 80 1C  92 80 5B A4 80 90 50 0B  .se09.....[...P.
1590: 01 90 50 0B 01 6A 69 6B  32 55 97 80 F0 FF FF 7F  ..P..jik2U......
15A0: F0 FF FF 7F 73 65 30 39  1C A9 80 27 10 89 50 0B  ....se09...'..P.
15B0: 01 03 45 97 80 F0 FF FF  7F F0 FF FF 7F 73 65 31  ..E..........se1
15C0: 31 00 80 27 10 87 50 0B  01 03 32 AC 80 5A 00 AD  1..'..P...2..Z..
15D0: 80 AE 80 9E 80 5A 01 2A  10 87 50 0B 01 45 97 80  .....Z.*..P..E..
15E0: F0 FF FF 7F F0 FF FF 7F  73 65 31 34 00 80 2B 90  ........se14..+.
15F0: 50 0B 01 AF 80 23 2B 90  50 0B 01 B0 80 23 52 97  P....#+.P....#R.
1600: 80 F0 FF FF 7F F0 FF FF  7F 73 65 31 34 45 97 80  .........se14E..
1610: F0 FF FF 7F F0 FF FF 7F  73 65 32 36 00 80 2B 90  ........se26..+.
1620: 50 0B 01 B1 80 23 2B 90  50 0B 01 B2 80 23 5D 00  P....#+.P....#].
1630: 80 A9 80 52 97 80 F0 FF  FF 7F F0 FF FF 7F 73 65  ...R..........se
1640: 32 36 45 97 80 F0 FF FF  7F F0 FF FF 7F 73 65 31  26E..........se1
1650: 36 00 80 5B A4 80 90 50  0B 01 90 50 0B 01 6A 69  6..[...P...P..ji
1660: 6B 33 2B 90 50 0B 01 B3  80 23 45 97 80 F0 FF FF  k3+.P....#E.....
1670: 7F F0 FF FF 7F 73 30 31  35 00 80 02 07 7F 0A 80  .....s015.......
1680: 80 A6 16 45 97 80 F0 FF  FF 7F F0 FF FF 7F 65 6C  ...E..........el
1690: 76 30 00 80 55 97 80 F0  FF FF 7F F0 FF FF 7F 65  v0..U..........e
16A0: 6C 76 30 01 9D 17 02 07  7F 0B 80 80 D1 16 45 97  lv0...........E.
16B0: 80 F0 FF FF 7F F0 FF FF  7F 65 6C 76 30 00 80 55  .........elv0..U
16C0: 97 80 F0 FF FF 7F F0 FF  FF 7F 65 6C 76 30 01 9D  ..........elv0..
16D0: 17 02 07 7F 08 80 80 FC  16 45 97 80 F0 FF FF 7F  .........E......
16E0: F0 FF FF 7F 74 61 72 30  00 80 55 97 80 F0 FF FF  ....tar0..U.....
16F0: 7F F0 FF FF 7F 74 61 72  30 01 9D 17 02 07 7F 18  .....tar0.......
1700: 80 80 27 17 45 97 80 F0  FF FF 7F F0 FF FF 7F 74  ..'.E..........t
1710: 61 72 30 00 80 55 97 80  F0 FF FF 7F F0 FF FF 7F  ar0..U..........
1720: 74 61 72 30 01 9D 17 02  07 7F 19 80 80 52 17 45  tar0.........R.E
1730: 97 80 F0 FF FF 7F F0 FF  FF 7F 6D 69 74 30 00 80  ..........mit0..
1740: 55 97 80 F0 FF FF 7F F0  FF FF 7F 6D 69 74 30 01  U..........mit0.
1750: 9D 17 02 07 7F 10 80 80  7D 17 45 97 80 F0 FF FF  ........}.E.....
1760: 7F F0 FF FF 7F 67 61 6C  30 00 80 55 97 80 F0 FF  .....gal0..U....
1770: FF 7F F0 FF FF 7F 67 61  6C 30 01 9D 17 45 97 80  ......gal0...E..
1780: F0 FF FF 7F F0 FF FF 7F  68 75 6D 30 00 80 55 97  ........hum0..U.
1790: 80 F0 FF FF 7F F0 FF FF  7F 68 75 6D 30 45 97 80  .........hum0E..
17A0: F0 FF FF 7F F0 FF FF 7F  73 65 31 35 00 80 55 97  ........se15..U.
17B0: 80 F0 FF FF 7F F0 FF FF  7F 73 65 31 35 45 97 80  .........se15E..
17C0: F0 FF FF 7F F0 FF FF 7F  73 65 32 38 00 80 5C 00  ........se28..\.
17D0: 33 80 5C 01 33 80 5C 02  33 80 5C 03 33 80 9A 5B  3.\.3.\.3.\.3..[
17E0: A4 80 90 50 0B 01 90 50  0B 01 6A 69 6B 34 2B 90  ...P...P..jik4+.
17F0: 50 0B 01 B4 80 23 52 97  80 F0 FF FF 7F F0 FF FF  P....#R.........
1800: 7F 73 65 32 38 45 97 80  F0 FF FF 7F F0 FF FF 7F  .se28E..........
1810: 73 65 31 37 00 80 5B A4  80 90 50 0B 01 90 50 0B  se17..[...P...P.
1820: 01 6A 69 6B 35 2B 90 50  0B 01 B5 80 23 55 97 80  .jik5+.P....#U..
1830: F0 FF FF 7F F0 FF FF 7F  73 65 31 37 45 97 80 F0  ........se17E...
1840: FF FF 7F F0 FF FF 7F 73  65 31 38 00 80 5B A4 80  .......se18..[..
1850: 90 50 0B 01 90 50 0B 01  6A 69 6B 36 2B 90 50 0B  .P...P..jik6+.P.
1860: 01 B6 80 23 9F 20 80 95  50 0B 01 95 50 0B 01 6D  ...#. ..P...P..m
1870: 61 69 6E 00 80 45 97 80  F0 FF FF 7F F0 FF FF 7F  ain..E..........
1880: 73 30 31 37 00 80 1C B7  80 52 97 80 F0 FF FF 7F  s017.....R......
1890: F0 FF FF 7F 73 65 31 38  45 97 80 F0 FF FF 7F F0  ....se18E.......
18A0: FF FF 7F 73 65 32 37 00  80 2B 90 50 0B 01 B8 80  ...se27..+.P....
18B0: 23 2B 90 50 0B 01 B9 80  23 2B 90 50 0B 01 BA 80  #+.P....#+.P....
18C0: 1C 01 80 5B A8 80 95 50  0B 01 95 50 0B 01 64 61  ...[...P...P..da
18D0: 69 31 1C 1F 80 5B A4 80  90 50 0B 01 90 50 0B 01  i1...[...P...P..
18E0: 6A 69 6B 37 52 97 80 F0  FF FF 7F F0 FF FF 7F 73  jik7R..........s
18F0: 65 32 37 45 97 80 F0 FF  FF 7F F0 FF FF 7F 73 65  e27E..........se
1900: 31 39 00 80 55 97 80 F0  FF FF 7F F0 FF FF 7F 73  19..U..........s
1910: 65 31 39 9F 0F 80 90 50  0B 01 90 50 0B 01 6D 61  e19....P...P..ma
1920: 69 6E 00 80 45 97 80 F0  FF FF 7F F0 FF FF 7F 73  in..E..........s
1930: 65 32 30 00 80 55 97 80  F0 FF FF 7F F0 FF FF 7F  e20..U..........
1940: 73 65 32 30 45 97 80 F0  FF FF 7F F0 FF FF 7F 73  se20E..........s
1950: 65 32 31 00 80 55 97 80  F0 FF FF 7F F0 FF FF 7F  e21..U..........
1960: 73 65 32 31 45 97 80 F0  FF FF 7F F0 FF FF 7F 73  se21E..........s
1970: 65 32 32 00 80 55 97 80  F0 FF FF 7F F0 FF FF 7F  e22..U..........
1980: 73 65 32 32 45 97 80 F0  FF FF 7F F0 FF FF 7F 73  se22E..........s
1990: 65 32 33 00 80 55 97 80  F0 FF FF 7F F0 FF FF 7F  e23..U..........
19A0: 73 65 32 33 2C 9A 50 0B  01 95 50 0B 01 65 76 65  se23,.P...P..eve
19B0: 30 45 97 80 F0 FF FF 7F  F0 FF FF 7F 67 73 31 39  0E..........gs19
19C0: 00 80 45 97 80 F0 FF FF  7F F0 FF FF 7F 67 73 32  ..E..........gs2
19D0: 31 00 80 45 97 80 F0 FF  FF 7F F0 FF FF 7F 73 65  1..E..........se
19E0: 32 39 00 80 55 97 80 F0  FF FF 7F F0 FF FF 7F 73  29..U..........s
19F0: 65 32 39 1A 10 34 1C BB  80 1A BD 32 45 97 80 F0  e29..4.....2E...
1A00: FF FF 7F F0 FF FF 7F 67  6B 31 39 00 80 45 97 80  .......gk19..E..
1A10: F0 FF FF 7F F0 FF FF 7F  67 6B 32 31 00 80 45 0E  ........gk21..E.
1A20: 80 F0 FF FF 7F F0 FF FF  7F 62 6C 6F 66 00 80 4E  .........blof..N
1A30: 01 9A 50 0B 01 4E 01 90  50 0B 01 4E 01 91 50 0B  ..P..N..P..N..P.
1A40: 01 4E 01 92 50 0B 01 4E  01 93 50 0B 01 4E 01 95  .N..P..N..P..N..
1A50: 50 0B 01 1C 01 80 1A DE  32 1B 1A 7B 32 46 01 27  P.......2..{2F.'
1A60: 10 90 50 0B 01 04 27 10  95 50 0B 01 04 27 10 9A  ..P...'..P...'..
1A70: 50 0B 01 04 92 01 F0 FF  FF 7F 92 01 90 50 0B 01  P............P..
1A80: 5C 00 33 80 5C 01 33 80  5C 02 33 80 5C 03 33 80  \.3.\.3.\.3.\.3.
1A90: 9A 37 A0 80 A1 80 A2 80  A3 80 27 10 90 50 0B 01  .7........'..P..
1AA0: 0A 27 10 95 50 0B 01 09  27 10 9A 50 0B 01 09 27  .'..P...'..P...'
1AB0: 10 87 50 0B 01 02 94 01  90 50 0B 01 94 01 95 50  ..P......P.....P
1AC0: 0B 01 6C F0 FF FF 7F 00  80 05 80 6C 95 50 0B 01  ..l........l.P..
1AD0: 00 80 05 80 9F 22 80 86  50 0B 01 86 50 0B 01 00  ....."..P...P...
1AE0: FE FE FE 00 80 9F 1F 80  86 50 0B 01 86 50 0B 01  .........P...P..
1AF0: 00 FE FE FE 00 80 9F 20  80 86 50 0B 01 86 50 0B  ....... ..P...P.
1B00: 01 6D 61 69 6E 00 80 9F  0F 80 86 50 0B 01 86 50  .main......P...P
1B10: 0B 01 6D 61 69 6E 00 80  5B A4 80 90 50 0B 01 90  ..main..[...P...
1B20: 50 0B 01 6A 69 6B 30 45  0E 80 F0 FF FF 7F F0 FF  P..jik0E........
1B30: FF 7F 62 6C 6F 6E 00 80  45 97 80 F0 FF FF 7F F0  ..blon..E.......
1B40: FF FF 7F 73 65 30 31 00  80 5B A8 80 95 50 0B 01  ...se01..[...P..
1B50: 95 50 0B 01 64 61 69 30  1A 9C 32 1C 25 80 9F 22  .P..dai0..2.%.."
1B60: 80 90 50 0B 01 90 50 0B  01 6D 61 69 6E 00 80 5B  ..P...P..main..[
1B70: A4 80 90 50 0B 01 90 50  0B 01 6A 69 6B 31 55 97  ...P...P..jik1U.
1B80: 80 F0 FF FF 7F F0 FF FF  7F 73 65 30 31 1C 01 80  .........se01...
1B90: 1C 92 80 4E 01 9A 50 0B  01 4E 01 90 50 0B 01 4E  ...N..P..N..P..N
1BA0: 01 95 50 0B 01 1B 02 19  00 00 80 80 B5 1B 1A 3B  ..P............;
1BB0: 1C 30 01 13 1C 02 19 00  05 80 80 C3 1B 1A E5 30  .0.............0
1BC0: 01 13 1C 02 19 00 09 80  80 13 1C 37 4C 80 4D 80  ...........7L.M.
1BD0: 4E 80 4F 80 45 0E 80 F0  FF FF 7F F0 FF FF 7F 66  N.O.E..........f
1BE0: 64 69 32 00 80 02 17 00  04 80 01 FE 1B 62 09 80  di2..........b..
1BF0: F0 FF FF 7F F0 FF FF 7F  6D 61 69 6E 00 80 1C 2A  ........main...*
1C00: 80 55 0E 80 F0 FF FF 7F  F0 FF FF 7F 66 64 69 32  .U..........fdi2
1C10: 01 13 1C 46 00 02 17 00  00 80 80 20 1C 01 3A 1C  ...F....... ..:.
1C20: 37 4C 80 4D 80 4E 80 4F  80 45 0E 80 F0 FF FF 7F  7L.M.N.O.E......
1C30: F0 FF FF 7F 66 64 69 32  00 80 1B 1A 7B 32 46 01  ....fdi2....{2F.
1C40: 27 10 98 50 0B 01 04 27  10 99 50 0B 01 04 27 10  '..P...'..P...'.
1C50: 91 50 0B 01 04 27 10 92  50 0B 01 04 27 10 93 50  .P...'..P...'..P
1C60: 0B 01 04 27 10 94 50 0B  01 02 92 01 F0 FF FF 7F  ...'..P.........
1C70: 92 01 94 50 0B 01 92 01  98 50 0B 01 92 01 91 50  ...P.....P.....P
1C80: 0B 01 92 01 92 50 0B 01  92 01 93 50 0B 01 5C 00  .....P.....P..\.
1C90: BC 80 5C 01 BC 80 5C 02  BC 80 5C 03 BC 80 9A 37  ..\...\...\....7
1CA0: BD 80 BE 80 BF 80 C0 80  27 10 98 50 0B 01 09 27  ........'..P...'
1CB0: 10 99 50 0B 01 09 27 10  91 50 0B 01 0B 27 10 92  ..P...'..P...'..
1CC0: 50 0B 01 0B 27 10 93 50  0B 01 0B 27 10 87 50 0B  P...'..P...'..P.
1CD0: 01 07 94 01 93 50 0B 01  94 01 98 50 0B 01 94 01  .....P.....P....
1CE0: 99 50 0B 01 6C 99 50 0B  01 00 80 05 80 80 98 50  .P..l.P........P
1CF0: 0B 01 5B C1 80 98 50 0B  01 98 50 0B 01 6A 69 6B  ..[...P...P..jik
1D00: 38 53 98 50 0B 01 98 50  0B 01 6A 69 6B 38 5B A7  8S.P...P..jik8[.
1D10: 80 93 50 0B 01 93 50 0B  01 6A 69 6B 33 5B A6 80  ..P...P..jik3[..
1D20: 92 50 0B 01 92 50 0B 01  6A 69 6B 31 5B A5 80 91  .P...P..jik1[...
1D30: 50 0B 01 91 50 0B 01 6A  69 6B 32 53 91 50 0B 01  P...P..jik2S.P..
1D40: 91 50 0B 01 6A 69 6B 32  45 C2 80 F0 FF FF 7F F0  .P..jik2E.......
1D50: FF FF 7F 73 65 31 38 00  80 1A 9C 32 32 12 80 1F  ...se18....22...
1D60: 00 C3 80 C4 80 BF 80 1F  01 6F 55 C2 80 F0 FF FF  .........oU.....
1D70: 7F F0 FF FF 7F 73 65 31  38 45 C2 80 F0 FF FF 7F  .....se18E......
1D80: F0 FF FF 7F 73 65 31 35  00 80 5B C1 80 98 50 0B  ....se15..[...P.
1D90: 01 98 50 0B 01 6A 69 6B  39 2B 98 50 0B 01 C5 80  ..P..jik9+.P....
1DA0: 23 52 C2 80 F0 FF FF 7F  F0 FF FF 7F 73 65 31 35  #R..........se15
1DB0: 45 C2 80 F0 FF FF 7F F0  FF FF 7F 73 65 31 36 00  E..........se16.
1DC0: 80 5B C1 80 98 50 0B 01  98 50 0B 01 67 69 63 30  .[...P...P..gic0
1DD0: 2B 98 50 0B 01 C6 80 23  52 C2 80 F0 FF FF 7F F0  +.P....#R.......
1DE0: FF FF 7F 73 65 31 36 45  C2 80 F0 FF FF 7F F0 FF  ...se16E........
1DF0: FF 7F 73 65 31 37 00 80  5B C1 80 98 50 0B 01 98  ..se17..[...P...
1E00: 50 0B 01 67 69 63 31 5D  00 80 A9 80 2B 98 50 0B  P..gic1]....+.P.
1E10: 01 C7 80 23 27 10 98 50  0B 01 0B 73 C8 80 99 50  ...#'..P...s...P
1E20: 0B 01 99 50 0B 01 1C 92  80 45 C2 80 F0 FF FF 7F  ...P.....E......
