# Event 65535

## Metadata

| Field           | Value    |
|-----------------|----------|
| Event Index     | 5/6      |
| Offset          | 0x0014   |
| Data Size       | 57 bytes |
| Calculated Size | 57 bytes |
| Instructions    | 10       |

```
      00 01 02 03 04 05 06 07  08 09 0A 0B 0C 0D 0E 0F
      -- -- -- -- -- -- -- --  -- -- -- -- -- -- -- --
0010:             33 01 32 04  80 5A 00 05 80 06 80 07      3.2..Z......
0020: 80 5A 01 1F 00 08 80 09  80 0A 80 1F 01 1C 0B 80  .Z..............
0030: 5B 0C 80 C4 40 0F 01 C4  40 0F 01 65 30 30 31 53  [...@...@..e001S
0040: C4 40 0F 01 C4 40 0F 01  65 30 30 31 00           .@...@..e001.   
```

## Opcodes

```
  0: 0x0014 [0x33] EventEntity->Render.Flags0 |= 0x200000 // Bit 21 (flag=0x01)
  1: 0x0016 [0x32] ExtData[1]->MainSpeed = 40* * 0.1
  2: 0x0019 [0x5A] UPDATE_EVENT_POSITION: Set EventEntity MovePosition to X=103.873*, Z=440.038*, Y=5.466*
  3: 0x0021 [0x5A] UPDATE_EVENT_POSITION: Move EventEntity incrementally towards MovePosition
  4: 0x0023 [0x1F] MOVE_ENTITY: EventEntity moves to X=102.086*, Z=439.999*, Y=5.730*
  5: 0x002B [0x1F] MOVE_ENTITY: Update entity position (mode=1)
  6: 0x002D [0x1C] WAIT(60* ticks)
  7: 0x0030 [0x5B] LOAD_EXT_SCHEDULER(work_offset=80*, entity1=Unnamed NPC (ID: 17776836/0x010F40C4), entity2=Unnamed NPC (ID: 17776836/0x010F40C4), action="e001")
  8: 0x003F [0x53] WAIT_SCHEDULER_TASK(entity1=Unnamed NPC (ID: 17776836/0x010F40C4), entity2=Unnamed NPC (ID: 17776836/0x010F40C4), action_id="e001")
  9: 0x004C [0x00] END_REQSTACK()
```
