# Event 65535

## Metadata

| Field           | Value    |
|-----------------|----------|
| Event Index     | 16/16    |
| Offset          | 0x0151   |
| Data Size       | 70 bytes |
| Calculated Size | 70 bytes |
| Instructions    | 15       |

```
      00 01 02 03 04 05 06 07  08 09 0A 0B 0C 0D 0E 0F
      -- -- -- -- -- -- -- --  -- -- -- -- -- -- -- --
0150:    59 04 F8 FF FF 7F 03  80 1F 00 2E 80 2F 80 06   Y.........../..
0160: 80 1F 01 1F 00 30 80 31  80 06 80 1F 01 1F 00 32  .....0.1.......2
0170: 80 33 80 06 80 1F 01 1F  00 34 80 35 80 06 80 1F  .3.......4.5....
0180: 01 1F 00 36 80 37 80 14  80 1F 01 1F 00 38 80 39  ...6.7.......8.9
0190: 80 14 80 1F 01 6F 00                              .....o.         
```

## Opcodes

```
  0: 0x0151 [0x59] UPDATE_ENTITY_DATA: Set EventEntity main speed = 40* * 0.1
  1: 0x0159 [0x1F] MOVE_ENTITY: EventEntity moves to X=-0.929*, Z=22.609*, Y=-0.999*
  2: 0x0161 [0x1F] MOVE_ENTITY: Update entity position (mode=1)
  3: 0x0163 [0x1F] MOVE_ENTITY: EventEntity moves to X=-6.932*, Z=35.738*, Y=-0.999*
  4: 0x016B [0x1F] MOVE_ENTITY: Update entity position (mode=1)
  5: 0x016D [0x1F] MOVE_ENTITY: EventEntity moves to X=-10.861*, Z=37.979*, Y=-0.999*
  6: 0x0175 [0x1F] MOVE_ENTITY: Update entity position (mode=1)
  7: 0x0177 [0x1F] MOVE_ENTITY: EventEntity moves to X=-13.762*, Z=38.255*, Y=-0.999*
  8: 0x017F [0x1F] MOVE_ENTITY: Update entity position (mode=1)
  9: 0x0181 [0x1F] MOVE_ENTITY: EventEntity moves to X=-25.374*, Z=38.245*, Y=-3.499*
 10: 0x0189 [0x1F] MOVE_ENTITY: Update entity position (mode=1)
 11: 0x018B [0x1F] MOVE_ENTITY: EventEntity moves to X=-41.421*, Z=44.426*, Y=-3.499*
 12: 0x0193 [0x1F] MOVE_ENTITY: Update entity position (mode=1)
 13: 0x0195 [0x6F] WAIT_FRAME_DELAY: Yield until WaitTime reaches zero
 14: 0x0196 [0x00] END_REQSTACK()
```
