# Event 65535

## Metadata

| Field           | Value    |
|-----------------|----------|
| Event Index     | 5/7      |
| Offset          | 0x0022   |
| Data Size       | 63 bytes |
| Calculated Size | 63 bytes |
| Instructions    | 7        |

```
      00 01 02 03 04 05 06 07  08 09 0A 0B 0C 0D 0E 0F
      -- -- -- -- -- -- -- --  -- -- -- -- -- -- -- --
0020:       66 07 80 F8 FF FF  7F F8 FF FF 7F 61 74 6B    f..........atk
0030: 30 1C 08 80 7B F8 FF FF  7F 2C F8 FF FF 7F F8 FF  0...{....,......
0040: FF 7F 63 68 69 74 2C F8  FF FF 7F F8 FF FF 7F 64  ..chit,........d
0050: 65 61 64 53 F8 FF FF 7F  F8 FF FF 7F 64 65 61 64  eadS........dead
0060: 00                                                .               
```

## Opcodes

```
  0: 0x0022 [0x66] LOAD_EXT_SCHEDULER_MAIN(work_offset=25*, entity1=EventEntity, entity2=EventEntity, action="atk0")
  1: 0x0031 [0x1C] WAIT(70* ticks)
  2: 0x0034 [0x7B] EventEntity stops talking
  3: 0x0039 [0x2C] CREATE_SCHEDULER_TASK: Create scheduler "chit" for entities [EventEntity, EventEntity]
  4: 0x0046 [0x2C] CREATE_SCHEDULER_TASK: Create scheduler "dead" for entities [EventEntity, EventEntity]
  5: 0x0053 [0x53] WAIT_SCHEDULER_TASK(entity1=EventEntity, entity2=EventEntity, action_id="dead")
  6: 0x0060 [0x00] END_REQSTACK()
```
