# Event 65535

## Metadata

| Field           | Value    |
|-----------------|----------|
| Event Index     | 33/75    |
| Offset          | 0x04D2   |
| Data Size       | 48 bytes |
| Calculated Size | 48 bytes |
| Instructions    | 11       |

```
      00 01 02 03 04 05 06 07  08 09 0A 0B 0C 0D 0E 0F
      -- -- -- -- -- -- -- --  -- -- -- -- -- -- -- --
04D0:       59 04 F8 FF FF 7F  65 80 1F 00 70 80 71 80    Y.....e...p.q.
04E0: 72 80 1F 01 1F 00 73 80  74 80 5D 80 1F 01 1F 00  r.....s.t.].....
04F0: 75 80 76 80 5D 80 1F 01  6F 22 01 2F 01 F8 FF FF  u.v.]...o"./....
0500: 7F 00                                             ..              
```

## Opcodes

```
  0: 0x04D2 [0x59] UPDATE_ENTITY_DATA: Set EventEntity main speed = 27* * 0.1
  1: 0x04DA [0x1F] MOVE_ENTITY: EventEntity moves to X=-27.766*, Z=73.600*, Y=-3.414*
  2: 0x04E2 [0x1F] MOVE_ENTITY: Update entity position (mode=1)
  3: 0x04E4 [0x1F] MOVE_ENTITY: EventEntity moves to X=-52.430*, Z=73.638*, Y=-3.500*
  4: 0x04EC [0x1F] MOVE_ENTITY: Update entity position (mode=1)
  5: 0x04EE [0x1F] MOVE_ENTITY: EventEntity moves to X=-54.193*, Z=72.044*, Y=-3.500*
  6: 0x04F6 [0x1F] MOVE_ENTITY: Update entity position (mode=1)
  7: 0x04F8 [0x6F] WAIT_FRAME_DELAY: Yield until WaitTime reaches zero
  8: 0x04F9 [0x22] ENTITY_HIDE_FLAG(enabled=0x01)
  9: 0x04FB [0x2F] EventEntity->Render.Flags0 |= 0x80000 // Bit 19
 10: 0x0501 [0x00] END_REQSTACK()
```
