# Event 65535

## Metadata

| Field           | Value    |
|-----------------|----------|
| Event Index     | 60/75    |
| Offset          | 0x08E1   |
| Data Size       | 59 bytes |
| Calculated Size | 59 bytes |
| Instructions    | 12       |

```
      00 01 02 03 04 05 06 07  08 09 0A 0B 0C 0D 0E 0F
      -- -- -- -- -- -- -- --  -- -- -- -- -- -- -- --
08E0:    59 04 F8 FF FF 7F AC  80 1F 00 AD 80 AE 80 5D   Y.............]
08F0: 80 1F 01 1F 00 AF 80 B0  80 5D 80 1F 01 1F 00 B1  .........]......
0900: 80 B2 80 5D 80 1F 01 1F  00 B3 80 B4 80 5D 80 1F  ...].........]..
0910: 01 6F 4A F8 FF FF 7F 00  E3 05 01 00              .oJ.........    
```

## Opcodes

```
  0: 0x08E1 [0x59] UPDATE_ENTITY_DATA: Set EventEntity main speed = 11* * 0.1
  1: 0x08E9 [0x1F] MOVE_ENTITY: EventEntity moves to X=305.946*, Z=39.219*, Y=-3.500*
  2: 0x08F1 [0x1F] MOVE_ENTITY: Update entity position (mode=1)
  3: 0x08F3 [0x1F] MOVE_ENTITY: EventEntity moves to X=305.425*, Z=40.893*, Y=-3.500*
  4: 0x08FB [0x1F] MOVE_ENTITY: Update entity position (mode=1)
  5: 0x08FD [0x1F] MOVE_ENTITY: EventEntity moves to X=306.760*, Z=42.864*, Y=-3.500*
  6: 0x0905 [0x1F] MOVE_ENTITY: Update entity position (mode=1)
  7: 0x0907 [0x1F] MOVE_ENTITY: EventEntity moves to X=306.465*, Z=43.464*, Y=-3.500*
  8: 0x090F [0x1F] MOVE_ENTITY: Update entity position (mode=1)
  9: 0x0911 [0x6F] WAIT_FRAME_DELAY: Yield until WaitTime reaches zero
 10: 0x0912 [0x4A] EventEntity looks at 03 (ID: 17163008/0x0105E300)
 11: 0x091B [0x00] END_REQSTACK()
```
