# Event 65535

## Metadata

| Field           | Value    |
|-----------------|----------|
| Event Index     | 19/75    |
| Offset          | 0x0030   |
| Data Size       | 67 bytes |
| Calculated Size | 67 bytes |
| Instructions    | 11       |

```
      00 01 02 03 04 05 06 07  08 09 0A 0B 0C 0D 0E 0F
      -- -- -- -- -- -- -- --  -- -- -- -- -- -- -- --
0030: 4A 2A E2 05 01 36 E2 05  01 1C 01 80 4A 0F E2 05  J*...6......J...
0040: 01 36 E2 05 01 1C 01 80  4A 10 E2 05 01 36 E2 05  .6......J....6..
0050: 01 1C 01 80 4A 0C E2 05  01 36 E2 05 01 1C 03 80  ....J....6......
0060: 4A 0E E2 05 01 36 E2 05  01 4A F0 FF FF 7F 08 E2  J....6...J......
0070: 05 01 00                                          ...             
```

## Opcodes

```
  0: 0x0030 [0x4A] Tihl Midurhi (ID: 17162794/0x0105E22A) looks at Lehko Habhoka (ID: 17162806/0x0105E236)
  1: 0x0039 [0x1C] WAIT(15* ticks)
  2: 0x003C [0x4A] Vhino Delkahngo (ID: 17162767/0x0105E20F) looks at Lehko Habhoka (ID: 17162806/0x0105E236)
  3: 0x0045 [0x1C] WAIT(15* ticks)
  4: 0x0048 [0x4A] Lhu Mhakaracca (ID: 17162768/0x0105E210) looks at Lehko Habhoka (ID: 17162806/0x0105E236)
  5: 0x0051 [0x1C] WAIT(15* ticks)
  6: 0x0054 [0x4A] Haja Zhwan (ID: 17162764/0x0105E20C) looks at Lehko Habhoka (ID: 17162806/0x0105E236)
  7: 0x005D [0x1C] WAIT(10* ticks)
  8: 0x0060 [0x4A] Mikhe Aryohcha (ID: 17162766/0x0105E20E) looks at Lehko Habhoka (ID: 17162806/0x0105E236)
  9: 0x0069 [0x4A] LocalPlayer looks at Romaa Mihgo (ID: 17162760/0x0105E208)
 10: 0x0072 [0x00] END_REQSTACK()
```
