# Event 65535

## Metadata

| Field           | Value    |
|-----------------|----------|
| Event Index     | 70/75    |
| Offset          | 0x0AA4   |
| Data Size       | 60 bytes |
| Calculated Size | 60 bytes |
| Instructions    | 13       |

```
      00 01 02 03 04 05 06 07  08 09 0A 0B 0C 0D 0E 0F
      -- -- -- -- -- -- -- --  -- -- -- -- -- -- -- --
0AA0:             59 04 F8 FF  FF 7F A8 80 1F 00 DD 80      Y...........
0AB0: DE 80 25 80 1F 01 1F 00  DF 80 E0 80 25 80 1F 01  ..%.........%...
0AC0: 1F 00 E1 80 E2 80 25 80  1F 01 1F 00 E3 80 E4 80  ......%.........
0AD0: 25 80 1F 01 1F 00 2D 80  2E 80 2F 80 1F 01 6F 00  %.....-.../...o.
```

## Opcodes

```
  0: 0x0AA4 [0x59] UPDATE_ENTITY_DATA: Set EventEntity main speed = 13* * 0.1
  1: 0x0AAC [0x1F] MOVE_ENTITY: EventEntity moves to X=-34.913*, Z=97.041*, Y=-5.000*
  2: 0x0AB4 [0x1F] MOVE_ENTITY: Update entity position (mode=1)
  3: 0x0AB6 [0x1F] MOVE_ENTITY: EventEntity moves to X=-36.843*, Z=100.526*, Y=-5.000*
  4: 0x0ABE [0x1F] MOVE_ENTITY: Update entity position (mode=1)
  5: 0x0AC0 [0x1F] MOVE_ENTITY: EventEntity moves to X=-38.413*, Z=104.758*, Y=-5.000*
  6: 0x0AC8 [0x1F] MOVE_ENTITY: Update entity position (mode=1)
  7: 0x0ACA [0x1F] MOVE_ENTITY: EventEntity moves to X=-39.062*, Z=107.483*, Y=-5.000*
  8: 0x0AD2 [0x1F] MOVE_ENTITY: Update entity position (mode=1)
  9: 0x0AD4 [0x1F] MOVE_ENTITY: EventEntity moves to X=-40.133*, Z=167.579*, Y=-5.023*
 10: 0x0ADC [0x1F] MOVE_ENTITY: Update entity position (mode=1)
 11: 0x0ADE [0x6F] WAIT_FRAME_DELAY: Yield until WaitTime reaches zero
 12: 0x0ADF [0x00] END_REQSTACK()
```
