# Event 65535

## Metadata

| Field           | Value    |
|-----------------|----------|
| Event Index     | 23/75    |
| Offset          | 0x0106   |
| Data Size       | 48 bytes |
| Calculated Size | 48 bytes |
| Instructions    | 10       |

```
      00 01 02 03 04 05 06 07  08 09 0A 0B 0C 0D 0E 0F
      -- -- -- -- -- -- -- --  -- -- -- -- -- -- -- --
0100:                   27 10  11 E2 05 01 07 1C 07 80        '.........
0110: 27 10 12 E2 05 01 08 1C  08 80 27 10 93 E2 05 01  '.........'.....
0120: 08 1C 09 80 27 10 94 E2  05 01 08 1C 08 80 27 10  ....'.........'.
0130: 95 E2 05 01 08 00                                 ......          
```

## Opcodes

```
  0: 0x0106 [0x27] REQ_SET(priority=0x10, entity_id=Naho Gwanboh (ID: 17162769/0x0105E211), tag_num=0x07)
  1: 0x010D [0x1C] WAIT(18* ticks)
  2: 0x0110 [0x27] REQ_SET(priority=0x10, entity_id=Nzha Abaleenah (ID: 17162770/0x0105E212), tag_num=0x08)
  3: 0x0117 [0x1C] WAIT(23* ticks)
  4: 0x011A [0x27] REQ_SET(priority=0x10, entity_id=01 (ID: 17162899/0x0105E293), tag_num=0x08)
  5: 0x0121 [0x1C] WAIT(17* ticks)
  6: 0x0124 [0x27] REQ_SET(priority=0x10, entity_id=02 (ID: 17162900/0x0105E294), tag_num=0x08)
  7: 0x012B [0x1C] WAIT(23* ticks)
  8: 0x012E [0x27] REQ_SET(priority=0x10, entity_id=02 (ID: 17162901/0x0105E295), tag_num=0x08)
  9: 0x0135 [0x00] END_REQSTACK()
```
