# Event 65535

## Metadata

| Field           | Value    |
|-----------------|----------|
| Event Index     | 21/75    |
| Offset          | 0x0074   |
| Data Size       | 73 bytes |
| Calculated Size | 73 bytes |
| Instructions    | 11       |

```
      00 01 02 03 04 05 06 07  08 09 0A 0B 0C 0D 0E 0F
      -- -- -- -- -- -- -- --  -- -- -- -- -- -- -- --
0070:             6E 0E E2 05  01 04 80 99 0E E2 05 01      n...........
0080: 5B 05 80 0C E2 05 01 0C  E2 05 01 69 72 6F 30 1C  [..........iro0.
0090: 03 80 6E 0F E2 05 01 04  80 99 0F E2 05 01 5B 05  ..n...........[.
00A0: 80 2A E2 05 01 2A E2 05  01 69 72 6F 30 1C 06 80  .*...*...iro0...
00B0: 6E 10 E2 05 01 04 80 99  10 E2 05 01 00           n............   
```

## Opcodes

```
  0: 0x0074 [0x6E] Mikhe Aryohcha (ID: 17162766/0x0105E20E) uses emote 8*
  1: 0x007B [0x99] Wait for Mikhe Aryohcha (ID: 17162766/0x0105E20E) animation to complete
  2: 0x0080 [0x5B] LOAD_EXT_SCHEDULER(work_offset=1328*, entity1=Haja Zhwan (ID: 17162764/0x0105E20C), entity2=Haja Zhwan (ID: 17162764/0x0105E20C), action="iro0")
  3: 0x008F [0x1C] WAIT(10* ticks)
  4: 0x0092 [0x6E] Vhino Delkahngo (ID: 17162767/0x0105E20F) uses emote 8*
  5: 0x0099 [0x99] Wait for Vhino Delkahngo (ID: 17162767/0x0105E20F) animation to complete
  6: 0x009E [0x5B] LOAD_EXT_SCHEDULER(work_offset=1328*, entity1=Tihl Midurhi (ID: 17162794/0x0105E22A), entity2=Tihl Midurhi (ID: 17162794/0x0105E22A), action="iro0")
  7: 0x00AD [0x1C] WAIT(5* ticks)
  8: 0x00B0 [0x6E] Lhu Mhakaracca (ID: 17162768/0x0105E210) uses emote 8*
  9: 0x00B7 [0x99] Wait for Lhu Mhakaracca (ID: 17162768/0x0105E210) animation to complete
 10: 0x00BC [0x00] END_REQSTACK()
```
