# Event 10

## Metadata

| Field           | Value    |
|-----------------|----------|
| Event Index     | 7/18     |
| Offset          | 0x0268   |
| Data Size       | 53 bytes |
| Calculated Size | 53 bytes |
| Instructions    | 15       |

```
      00 01 02 03 04 05 06 07  08 09 0A 0B 0C 0D 0E 0F
      -- -- -- -- -- -- -- --  -- -- -- -- -- -- -- --
0260:                          20 01 24 05 80 06 80 00           .$.....
0270: 80 25 02 00 10 00 80 00  8E 02 42 43 00 43 01 03  .%........BC.C..
0280: 01 10 06 80 29 01 F0 FF  FF 7F 0E 01 99 02 02 00  ....)...........
0290: 10 06 80 00 99 02 01 99  02 20 00 21 00           ......... .!.   
```

## Opcodes

```
  0: 0x0268 [0x20] SET_CLI_EVENT_UC_FLAG: Lock player control
  1: 0x026A [0x24] CREATE_DIALOG(message_id=3*, default_option=1*, option_flags=0*)
    → "Use the device?\u0007\u000BYes.\u0007No.\u007F1\u0000\u0007"
  2: 0x0271 [0x25] WAIT_DIALOG_SELECT()
  3: 0x0272 [0x02] IF !(Work_Zone[0] == 0*) GOTO 0x028E
  4: 0x027A [0x42] SET_CLI_EVENT_CANCEL_DATA()
  5: 0x027B [0x43] SEND_EVENT_UPDATE: Send pending tag to server (packet 0x005B)
  6: 0x027D [0x43] SEND_EVENT_UPDATE: Check pending flag (skip if not pending)
  7: 0x027F [0x03] Work_Zone[1] = 1*
  8: 0x0284 [0x29] REQ_SET_WAIT(priority=0x01, entity_id=LocalPlayer, tag_num=0x0E)
  9: 0x028B [0x01] GOTO 0x0299

SUBROUTINE_028E:
 10: 0x028E [0x02] IF !(Work_Zone[0] == 1*) GOTO 0x0299
 11: 0x0296 [0x01] GOTO 0x0299

SUBROUTINE_0299:
 12: 0x0299 [0x20] SET_CLI_EVENT_UC_FLAG: Unlock player control
 13: 0x029B [0x21] END_EVENT
 14: 0x029C [0x00] END_REQSTACK()
```
