# Event 2

## Metadata

| Field           | Value    |
|-----------------|----------|
| Event Index     | 6/18     |
| Offset          | 0x0233   |
| Data Size       | 53 bytes |
| Calculated Size | 53 bytes |
| Instructions    | 15       |

```
      00 01 02 03 04 05 06 07  08 09 0A 0B 0C 0D 0E 0F
      -- -- -- -- -- -- -- --  -- -- -- -- -- -- -- --
0230:          20 01 24 05 80  06 80 00 80 25 02 00 10      .$......%...
0240: 00 80 00 59 02 42 43 00  43 01 03 01 10 06 80 29  ...Y.BC.C......)
0250: 01 F0 FF FF 7F 0E 01 64  02 02 00 10 06 80 00 64  .......d.......d
0260: 02 01 64 02 20 00 21 00                           ..d. .!.        
```

## Opcodes

```
  0: 0x0233 [0x20] SET_CLI_EVENT_UC_FLAG: Lock player control
  1: 0x0235 [0x24] CREATE_DIALOG(message_id=3*, default_option=1*, option_flags=0*)
    → "Use the device?\u0007\u000BYes.\u0007No.\u007F1\u0000\u0007"
  2: 0x023C [0x25] WAIT_DIALOG_SELECT()
  3: 0x023D [0x02] IF !(Work_Zone[0] == 0*) GOTO 0x0259
  4: 0x0245 [0x42] SET_CLI_EVENT_CANCEL_DATA()
  5: 0x0246 [0x43] SEND_EVENT_UPDATE: Send pending tag to server (packet 0x005B)
  6: 0x0248 [0x43] SEND_EVENT_UPDATE: Check pending flag (skip if not pending)
  7: 0x024A [0x03] Work_Zone[1] = 1*
  8: 0x024F [0x29] REQ_SET_WAIT(priority=0x01, entity_id=LocalPlayer, tag_num=0x0E)
  9: 0x0256 [0x01] GOTO 0x0264

SUBROUTINE_0259:
 10: 0x0259 [0x02] IF !(Work_Zone[0] == 1*) GOTO 0x0264
 11: 0x0261 [0x01] GOTO 0x0264

SUBROUTINE_0264:
 12: 0x0264 [0x20] SET_CLI_EVENT_UC_FLAG: Unlock player control
 13: 0x0266 [0x21] END_EVENT
 14: 0x0267 [0x00] END_REQSTACK()
```
