# Event 103

## Metadata

| Field           | Value    |
|-----------------|----------|
| Event Index     | 6/7      |
| Offset          | 0x0053   |
| Data Size       | 39 bytes |
| Calculated Size | 39 bytes |
| Instructions    | 14       |

```
      00 01 02 03 04 05 06 07  08 09 0A 0B 0C 0D 0E 0F
      -- -- -- -- -- -- -- --  -- -- -- -- -- -- -- --
0050:          20 01 48 06 80  23 24 07 80 05 80 01 80      .H..#$......
0060: 25 02 00 10 01 80 00 76  00 43 00 43 01 42 03 01  %......v.C.C.B..
0070: 10 05 80 01 76 00 20 00  21 00                    ....v. .!.      
```

## Opcodes

```
  0: 0x0053 [0x20] SET_CLI_EVENT_UC_FLAG: Lock player control
  1: 0x0055 [0x48] [System] [7549*]:
    → "There is a curious liquid here.\u007F1\u0000\u0007"
  2: 0x0058 [0x23] WAIT_FOR_DIALOG_INTERACTION
  3: 0x0059 [0x24] CREATE_DIALOG(message_id=7550*, default_option=1*, option_flags=0*)
    → "Take a sip?\u0007\u000BI'll try anything once!\u0007I have a weak stomach...\u007F1\u0000\u0007"
  4: 0x0060 [0x25] WAIT_DIALOG_SELECT()
  5: 0x0061 [0x02] IF !(Work_Zone[0] == 0*) GOTO 0x0076
  6: 0x0069 [0x43] SEND_EVENT_UPDATE: Send pending tag to server (packet 0x005B)
  7: 0x006B [0x43] SEND_EVENT_UPDATE: Check pending flag (skip if not pending)
  8: 0x006D [0x42] SET_CLI_EVENT_CANCEL_DATA()
  9: 0x006E [0x03] Work_Zone[1] = 1*
 10: 0x0073 [0x01] GOTO 0x0076

SUBROUTINE_0076:
 11: 0x0076 [0x20] SET_CLI_EVENT_UC_FLAG: Unlock player control
 12: 0x0078 [0x21] END_EVENT
 13: 0x0079 [0x00] END_REQSTACK()
```
