# Event 125

## Metadata

| Field           | Value    |
|-----------------|----------|
| Event Index     | 5/5      |
| Offset          | 0x0069   |
| Data Size       | 51 bytes |
| Calculated Size | 51 bytes |
| Instructions    | 11       |

```
      00 01 02 03 04 05 06 07  08 09 0A 0B 0C 0D 0E 0F
      -- -- -- -- -- -- -- --  -- -- -- -- -- -- -- --
0060:                             42 03 09 10 03 80 1E           B......
0070: F0 FF FF 7F 6F 70 66 01  80 F8 FF FF 7F F8 FF FF  ....opf.........
0080: 7F 70 61 73 30 1D 07 80  23 45 08 80 F0 FF FF 7F  .pas0...#E......
0090: F0 FF FF 7F 71 73 74 63  01 80 21 00              ....qstc..!.    
```

## Opcodes

```
  0: 0x0069 [0x42] SET_CLI_EVENT_CANCEL_DATA()
  1: 0x006A [0x03] Work_Zone[9] = 14242*
  2: 0x006F [0x1E] EventEntity looks at LocalPlayer and starts talking
  3: 0x0074 [0x6F] WAIT_FRAME_DELAY: Yield until WaitTime reaches zero
  4: 0x0075 [0x70] WAIT_ENTITY_RENDER_FLAG: Wait while EventEntity->Render.Flags3 bit 2 is set (cancel turn if not)
  5: 0x0076 [0x66] LOAD_EXT_SCHEDULER_MAIN(work_offset=0*, entity1=EventEntity, entity2=EventEntity, action="pas0")
  6: 0x0085 [0x1D] PRINT_EVENT_MESSAGE(message_id=10576*)
    → "Yes, ten \u0001\u0005%\u0002\u0007\u0000\u0000 at last. I may now continue my pupils' training. Here is the reward I promised you.\u007F1\u0000\u0007"
  7: 0x0088 [0x23] WAIT_FOR_DIALOG_INTERACTION
  8: 0x0089 [0x45] LOAD_SCHEDULED_TASK(work_offset1=201*, entity1=LocalPlayer, entity2=LocalPlayer, scheduler_id="qstc", work_offset2=0*)
  9: 0x009A [0x21] END_EVENT
 10: 0x009B [0x00] END_REQSTACK()
```
