# Event 10018

## Metadata

| Field           | Value    |
|-----------------|----------|
| Event Index     | 6/9      |
| Offset          | 0x01B9   |
| Data Size       | 79 bytes |
| Calculated Size | 79 bytes |
| Instructions    | 10       |

```
      00 01 02 03 04 05 06 07  08 09 0A 0B 0C 0D 0E 0F
      -- -- -- -- -- -- -- --  -- -- -- -- -- -- -- --
01B0:                             42 45 0B 80 F0 FF FF           BE.....
01C0: 7F F0 FF FF 7F 66 64 69  32 03 80 45 0C 80 F8 FF  .....fdi2..E....
01D0: FF 7F F8 FF FF 7F 73 6A  63 73 15 80 1C 01 80 45  ......sjcs.....E
01E0: 0B 80 F0 FF FF 7F F0 FF  FF 7F 66 64 6F 31 03 80  ..........fdo1..
01F0: 1C 04 80 46 00 45 0B 80  F0 FF FF 7F F0 FF FF 7F  ...F.E..........
0200: 66 64 69 31 03 80 21 00                           fdi1..!.        
```

## Opcodes

```
  0: 0x01B9 [0x42] SET_CLI_EVENT_CANCEL_DATA()
  1: 0x01BA [0x45] LOAD_SCHEDULED_TASK: Load scheduler "fdi2" with entities [LocalPlayer, LocalPlayer], work=[200*, 0*]
  2: 0x01CB [0x45] LOAD_SCHEDULED_TASK: Load scheduler "sjcs" with entities [EventEntity, EventEntity], work=[190*, 600*]
  3: 0x01DC [0x1C] WAIT(540* ticks)
  4: 0x01DF [0x45] LOAD_SCHEDULED_TASK: Load scheduler "fdo1" with entities [LocalPlayer, LocalPlayer], work=[200*, 0*]
  5: 0x01F0 [0x1C] WAIT(60* ticks)
  6: 0x01F3 [0x46] CAMERA_CONTROL: Restore default settings
  7: 0x01F5 [0x45] LOAD_SCHEDULED_TASK: Load scheduler "fdi1" with entities [LocalPlayer, LocalPlayer], work=[200*, 0*]
  8: 0x0206 [0x21] END_EVENT
  9: 0x0207 [0x00] END_REQSTACK()
```
