# Event 10019

## Metadata

| Field           | Value    |
|-----------------|----------|
| Event Index     | 8/9      |
| Offset          | 0x0257   |
| Data Size       | 79 bytes |
| Calculated Size | 79 bytes |
| Instructions    | 10       |

```
      00 01 02 03 04 05 06 07  08 09 0A 0B 0C 0D 0E 0F
      -- -- -- -- -- -- -- --  -- -- -- -- -- -- -- --
0250:                      42  45 0B 80 F0 FF FF 7F F0         BE.......
0260: FF FF 7F 66 64 69 32 03  80 45 0C 80 F8 FF FF 7F  ...fdi2..E......
0270: F8 FF FF 7F 73 6A 63 77  15 80 1C 01 80 45 0B 80  ....sjcw.....E..
0280: F0 FF FF 7F F0 FF FF 7F  66 64 6F 31 03 80 1C 04  ........fdo1....
0290: 80 46 00 45 0B 80 F0 FF  FF 7F F0 FF FF 7F 66 64  .F.E..........fd
02A0: 69 31 03 80 21 00                                 i1..!.          
```

## Opcodes

```
  0: 0x0257 [0x42] SET_CLI_EVENT_CANCEL_DATA()
  1: 0x0258 [0x45] LOAD_SCHEDULED_TASK: Load scheduler "fdi2" with entities [LocalPlayer, LocalPlayer], work=[200*, 0*]
  2: 0x0269 [0x45] LOAD_SCHEDULED_TASK: Load scheduler "sjcw" with entities [EventEntity, EventEntity], work=[190*, 600*]
  3: 0x027A [0x1C] WAIT(540* ticks)
  4: 0x027D [0x45] LOAD_SCHEDULED_TASK: Load scheduler "fdo1" with entities [LocalPlayer, LocalPlayer], work=[200*, 0*]
  5: 0x028E [0x1C] WAIT(60* ticks)
  6: 0x0291 [0x46] CAMERA_CONTROL: Restore default settings
  7: 0x0293 [0x45] LOAD_SCHEDULED_TASK: Load scheduler "fdi1" with entities [LocalPlayer, LocalPlayer], work=[200*, 0*]
  8: 0x02A4 [0x21] END_EVENT
  9: 0x02A5 [0x00] END_REQSTACK()
```
