# Event 10020

## Metadata

| Field           | Value    |
|-----------------|----------|
| Event Index     | 7/9      |
| Offset          | 0x0208   |
| Data Size       | 79 bytes |
| Calculated Size | 79 bytes |
| Instructions    | 10       |

```
      00 01 02 03 04 05 06 07  08 09 0A 0B 0C 0D 0E 0F
      -- -- -- -- -- -- -- --  -- -- -- -- -- -- -- --
0200:                          42 45 0B 80 F0 FF FF 7F          BE......
0210: F0 FF FF 7F 66 64 69 32  03 80 45 0C 80 F8 FF FF  ....fdi2..E.....
0220: 7F F8 FF FF 7F 73 6A 63  62 15 80 1C 01 80 45 0B  .....sjcb.....E.
0230: 80 F0 FF FF 7F F0 FF FF  7F 66 64 6F 31 03 80 1C  .........fdo1...
0240: 04 80 46 00 45 0B 80 F0  FF FF 7F F0 FF FF 7F 66  ..F.E..........f
0250: 64 69 31 03 80 21 00                              di1..!.         
```

## Opcodes

```
  0: 0x0208 [0x42] SET_CLI_EVENT_CANCEL_DATA()
  1: 0x0209 [0x45] LOAD_SCHEDULED_TASK: Load scheduler "fdi2" with entities [LocalPlayer, LocalPlayer], work=[200*, 0*]
  2: 0x021A [0x45] LOAD_SCHEDULED_TASK: Load scheduler "sjcb" with entities [EventEntity, EventEntity], work=[190*, 600*]
  3: 0x022B [0x1C] WAIT(540* ticks)
  4: 0x022E [0x45] LOAD_SCHEDULED_TASK: Load scheduler "fdo1" with entities [LocalPlayer, LocalPlayer], work=[200*, 0*]
  5: 0x023F [0x1C] WAIT(60* ticks)
  6: 0x0242 [0x46] CAMERA_CONTROL: Restore default settings
  7: 0x0244 [0x45] LOAD_SCHEDULED_TASK: Load scheduler "fdi1" with entities [LocalPlayer, LocalPlayer], work=[200*, 0*]
  8: 0x0255 [0x21] END_EVENT
  9: 0x0256 [0x00] END_REQSTACK()
```
