# Event 10021

## Metadata

| Field           | Value    |
|-----------------|----------|
| Event Index     | 9/9      |
| Offset          | 0x02A6   |
| Data Size       | 79 bytes |
| Calculated Size | 79 bytes |
| Instructions    | 10       |

```
      00 01 02 03 04 05 06 07  08 09 0A 0B 0C 0D 0E 0F
      -- -- -- -- -- -- -- --  -- -- -- -- -- -- -- --
02A0:                   42 45  0B 80 F0 FF FF 7F F0 FF        BE........
02B0: FF 7F 66 64 69 32 03 80  45 0C 80 F8 FF FF 7F F8  ..fdi2..E.......
02C0: FF FF 7F 73 6A 63 6B 15  80 1C 01 80 45 0B 80 F0  ...sjck.....E...
02D0: FF FF 7F F0 FF FF 7F 66  64 6F 31 03 80 1C 04 80  .......fdo1.....
02E0: 46 00 45 0B 80 F0 FF FF  7F F0 FF FF 7F 66 64 69  F.E..........fdi
02F0: 31 03 80 21 00                                    1..!.           
```

## Opcodes

```
  0: 0x02A6 [0x42] SET_CLI_EVENT_CANCEL_DATA()
  1: 0x02A7 [0x45] LOAD_SCHEDULED_TASK(work_offset1=200*, entity1=LocalPlayer, entity2=LocalPlayer, scheduler_id="fdi2", work_offset2=0*)
  2: 0x02B8 [0x45] LOAD_SCHEDULED_TASK(work_offset1=190*, entity1=EventEntity, entity2=EventEntity, scheduler_id="sjck", work_offset2=600*)
  3: 0x02C9 [0x1C] WAIT(540* ticks)
  4: 0x02CC [0x45] LOAD_SCHEDULED_TASK(work_offset1=200*, entity1=LocalPlayer, entity2=LocalPlayer, scheduler_id="fdo1", work_offset2=0*)
  5: 0x02DD [0x1C] WAIT(60* ticks)
  6: 0x02E0 [0x46] CAMERA_CONTROL: Restore default settings
  7: 0x02E2 [0x45] LOAD_SCHEDULED_TASK(work_offset1=200*, entity1=LocalPlayer, entity2=LocalPlayer, scheduler_id="fdi1", work_offset2=0*)
  8: 0x02F3 [0x21] END_EVENT
  9: 0x02F4 [0x00] END_REQSTACK()
```
