# Event 118

## Metadata

| Field           | Value    |
|-----------------|----------|
| Event Index     | 57/60    |
| Offset          | 0x31F3   |
| Data Size       | 33 bytes |
| Calculated Size | 33 bytes |
| Instructions    | 11       |

```
      00 01 02 03 04 05 06 07  08 09 0A 0B 0C 0D 0E 0F
      -- -- -- -- -- -- -- --  -- -- -- -- -- -- -- --
31F0:          1E F0 FF FF 7F  6F 70 03 03 10 85 81 2B     .....op.....+
3200: FF 10 10 01 86 81 23 2B  FF 10 10 01 87 81 23 1C  ......#+......#.
3210: 06 80 21 00                                       ..!.            
```

## Opcodes

```
  0: 0x31F3 [0x1E] EventEntity looks at LocalPlayer and starts talking
  1: 0x31F8 [0x6F] WAIT_FRAME_DELAY: Yield until WaitTime reaches zero
  2: 0x31F9 [0x70] WAIT_ENTITY_RENDER_FLAG: Wait while EventEntity->Render.Flags3 bit 2 is set (cancel turn if not)
  3: 0x31FA [0x03] Work_Zone[3] = 6257*
  4: 0x31FF [0x2B] Runje Desaali (ID: 17830143/0x011010FF) [11859*]:
    → "Okay, it's a deal. Once ya get the \u0001\u0005#\u0002\u0001\u0000\u0000, brrring it to me.\u007F1\u0000\u0007"
  5: 0x3206 [0x23] WAIT_FOR_DIALOG_INTERACTION
  6: 0x3207 [0x2B] Runje Desaali (ID: 17830143/0x011010FF) [11860*]:
    → "There's no need to frrret. Bring the goods, and I won't have to have Geosuke here break yer kneecaps.\u007F1\u0000\u0007"
  7: 0x320E [0x23] WAIT_FOR_DIALOG_INTERACTION
  8: 0x320F [0x1C] WAIT(30* ticks)
  9: 0x3212 [0x21] END_EVENT
 10: 0x3213 [0x00] END_REQSTACK()
```
