# Event 65535

## Metadata

| Field           | Value    |
|-----------------|----------|
| Event Index     | 22/64    |
| Offset          | 0x00DD   |
| Data Size       | 36 bytes |
| Calculated Size | 36 bytes |
| Instructions    | 8        |

```
      00 01 02 03 04 05 06 07  08 09 0A 0B 0C 0D 0E 0F
      -- -- -- -- -- -- -- --  -- -- -- -- -- -- -- --
00D0:                                         32 0E 80               2..
00E0: 1F 00 0F 80 10 80 11 80  1F 01 1E 90 10 10 01 4A  ...............J
00F0: 90 10 10 01 F8 FF FF 7F  7B 90 10 10 01 1C 12 80  ........{.......
0100: 00                                                .               
```

## Opcodes

```
  0: 0x00DD [0x32] ExtData[1]->MainSpeed = 5* * 0.1
  1: 0x00E0 [0x1F] MOVE_ENTITY: EventEntity moves to X=-64.983*, Z=-7.557*, Y=-1.365*
  2: 0x00E8 [0x1F] MOVE_ENTITY: Update entity position (mode=1)
  3: 0x00EA [0x1E] EventEntity looks at Arciela (ID: 17830032/0x01101090) and starts talking
  4: 0x00EF [0x4A] Arciela (ID: 17830032/0x01101090) looks at EventEntity
  5: 0x00F8 [0x7B] Arciela (ID: 17830032/0x01101090) stops talking
  6: 0x00FD [0x1C] WAIT(30* ticks)
  7: 0x0100 [0x00] END_REQSTACK()
```
