# Event 65535

## Metadata

| Field           | Value    |
|-----------------|----------|
| Event Index     | 59/64    |
| Offset          | 0x047A   |
| Data Size       | 39 bytes |
| Calculated Size | 39 bytes |
| Instructions    | 9        |

```
      00 01 02 03 04 05 06 07  08 09 0A 0B 0C 0D 0E 0F
      -- -- -- -- -- -- -- --  -- -- -- -- -- -- -- --
0470:                                32 06 80 1F 00 36            2....6
0480: 80 37 80 1C 80 1F 01 1C  27 80 1E 90 10 10 01 6F  .7......'......o
0490: 70 5B 33 80 F8 FF FF 7F  F8 FF FF 7F 73 74 64 30  p[3.........std0
04A0: 00                                                .               
```

## Opcodes

```
  0: 0x047A [0x32] ExtData[1]->MainSpeed = 13* * 0.1
  1: 0x047D [0x1F] MOVE_ENTITY: EventEntity moves to X=-54.600*, Z=-14.000*, Y=-0.500*
  2: 0x0485 [0x1F] MOVE_ENTITY: Update entity position (mode=1)
  3: 0x0487 [0x1C] WAIT(15* ticks)
  4: 0x048A [0x1E] EventEntity looks at Arciela (ID: 17830032/0x01101090) and starts talking
  5: 0x048F [0x6F] WAIT_FRAME_DELAY: Yield until WaitTime reaches zero
  6: 0x0490 [0x70] WAIT_ENTITY_RENDER_FLAG: Wait while EventEntity->Render.Flags3 bit 2 is set (cancel turn if not)
  7: 0x0491 [0x5B] LOAD_EXT_SCHEDULER: Load scheduler "std0" with entities [EventEntity, EventEntity], work=3281*
  8: 0x04A0 [0x00] END_REQSTACK()
```
