# Event 65535

## Metadata

| Field           | Value    |
|-----------------|----------|
| Event Index     | 100/103  |
| Offset          | 0x01BF   |
| Data Size       | 68 bytes |
| Calculated Size | 68 bytes |
| Instructions    | 6        |

```
      00 01 02 03 04 05 06 07  08 09 0A 0B 0C 0D 0E 0F
      -- -- -- -- -- -- -- --  -- -- -- -- -- -- -- --
01B0:                                               45                 E
01C0: 0E 80 F0 FF FF 7F F0 FF  FF 7F 34 61 32 35 01 80  ..........4a25..
01D0: 1C 0F 80 52 0E 80 F0 FF  FF 7F F0 FF FF 7F 34 61  ...R..........4a
01E0: 32 35 45 0E 80 F0 FF FF  7F F0 FF FF 7F 34 61 32  25E..........4a2
01F0: 36 01 80 55 0E 80 F0 FF  FF 7F F0 FF FF 7F 34 61  6..U..........4a
0200: 32 36 00                                          26.             
```

## Opcodes

```
  0: 0x01BF [0x45] LOAD_SCHEDULED_TASK(work_offset1=275*, entity1=LocalPlayer, entity2=LocalPlayer, scheduler_id="4a25", work_offset2=0*)
  1: 0x01D0 [0x1C] WAIT(210* ticks)
  2: 0x01D3 [0x52] END_LOAD_SCHEDULER: End scheduler "4a25" with entities [LocalPlayer, LocalPlayer], work=275*
  3: 0x01E2 [0x45] LOAD_SCHEDULED_TASK(work_offset1=275*, entity1=LocalPlayer, entity2=LocalPlayer, scheduler_id="4a26", work_offset2=0*)
  4: 0x01F3 [0x55] WAIT_LOAD_SCHEDULER(work_offset=275*, entity1=LocalPlayer, entity2=LocalPlayer, scheduler_id="4a26")
  5: 0x0202 [0x00] END_REQSTACK()
```
