# 17027574 - Fari-Wari

## Common Data

| Field            | Value                  |
|------------------|------------------------|
| Zone             | Mount Zhayolm (ID: 61) |
| Block Size       | 2212 bytes             |
| Total Events     | 58                     |
| References Count | 142                    |

## List of Events

| Event ID                   | Entrypoint   |   Size |   Instructions |
|----------------------------|--------------|--------|----------------|
| [65535](#event-65535)      | 0x0000       |      1 |              1 |
| [65535.1](#event-655351)   | 0x0001       |      1 |              1 |
| [65535.2](#event-655352)   | 0x0002       |     18 |              4 |
| [65535.3](#event-655353)   | 0x0014       |     10 |              2 |
| [65535.4](#event-655354)   | 0x001E       |      9 |              3 |
| [65535.5](#event-655355)   | 0x0027       |      9 |              3 |
| [65535.6](#event-655356)   | 0x0030       |     10 |              2 |
| [65535.7](#event-655357)   | 0x003A       |     10 |              2 |
| [15](#event-15)            | 0x0044       |      1 |              1 |
| [16](#event-16)            | 0x0045       |      1 |              1 |
| [65535.8](#event-655358)   | 0x0046       |     37 |              5 |
| [65535.9](#event-655359)   | 0x006B       |    185 |             37 |
| [65535.10](#event-6553510) | 0x0124       |     20 |              6 |
| [65535.11](#event-6553511) | 0x0138       |     30 |              8 |
| [65535.12](#event-6553512) | 0x0156       |     13 |              3 |
| [65535.13](#event-6553513) | 0x0163       |     29 |              3 |
| [65535.14](#event-6553514) | 0x0180       |      4 |              2 |
| [65535.15](#event-6553515) | 0x0184       |     16 |              4 |
| [65535.16](#event-6553516) | 0x0194       |     19 |              4 |
| [65535.17](#event-6553517) | 0x01A7       |     19 |              4 |
| [65535.18](#event-6553518) | 0x01BA       |     19 |              4 |
| [65535.19](#event-6553519) | 0x01CD       |     19 |              4 |
| [65535.20](#event-6553520) | 0x01E0       |     19 |              4 |
| [65535.21](#event-6553521) | 0x01F3       |     19 |              4 |
| [65535.22](#event-6553522) | 0x0206       |     19 |              4 |
| [65535.23](#event-6553523) | 0x0219       |     34 |              7 |
| [65535.24](#event-6553524) | 0x023B       |     19 |              4 |
| [65535.25](#event-6553525) | 0x024E       |     13 |              3 |
| [65535.26](#event-6553526) | 0x025B       |     29 |              6 |
| [65535.27](#event-6553527) | 0x0278       |     19 |              4 |
| [65535.28](#event-6553528) | 0x028B       |     37 |              7 |
| [65535.29](#event-6553529) | 0x02B0       |     19 |              4 |
| [65535.30](#event-6553530) | 0x02C3       |     21 |              2 |
| [65535.31](#event-6553531) | 0x02D8       |     21 |              2 |
| [65535.32](#event-6553532) | 0x02ED       |     19 |              4 |
| [65535.33](#event-6553533) | 0x0300       |     34 |              7 |
| [65535.34](#event-6553534) | 0x0322       |     32 |              7 |
| [65535.35](#event-6553535) | 0x0342       |     19 |              4 |
| [65535.36](#event-6553536) | 0x0355       |     19 |              4 |
| [65535.37](#event-6553537) | 0x0368       |     19 |              4 |
| [65535.38](#event-6553538) | 0x037B       |     12 |              4 |
| [65535.39](#event-6553539) | 0x0387       |     12 |              4 |
| [65535.40](#event-6553540) | 0x0393       |     42 |              8 |
| [65535.41](#event-6553541) | 0x03BD       |     42 |              8 |
| [65535.42](#event-6553542) | 0x03E7       |     42 |              8 |
| [65535.43](#event-6553543) | 0x0411       |     42 |              8 |
| [65535.44](#event-6553544) | 0x043B       |     42 |              8 |
| [65535.45](#event-6553545) | 0x0465       |     42 |              8 |
| [65535.46](#event-6553546) | 0x048F       |     42 |              8 |
| [65535.47](#event-6553547) | 0x04B9       |     42 |              8 |
| [65535.48](#event-6553548) | 0x04E3       |     12 |              4 |
| [65535.49](#event-6553549) | 0x04EF       |     12 |              4 |
| [65535.50](#event-6553550) | 0x04FB       |     12 |              4 |
| [65535.51](#event-6553551) | 0x0507       |     12 |              4 |
| [65535.52](#event-6553552) | 0x0513       |     30 |              8 |
| [65535.53](#event-6553553) | 0x0531       |     27 |              5 |
| [65535.54](#event-6553554) | 0x054C       |     27 |              7 |
| [65535.55](#event-6553555) | 0x0567       |     12 |              4 |

## DAT References (imed_data)

|   Index | Hex Value   |   Dec Value |
|---------|-------------|-------------|
|       0 | 0x0000      |           0 |
|       1 | 0x0001      |           1 |
|       2 | 0x0080      |         128 |
|       3 | 0x0005      |           5 |
|       4 | 0x0002      |           2 |
|       5 | 0x000A      |          10 |
|       6 | 0x0009      |           9 |
|       7 | 0x0046      |          70 |
|       8 | 0x008C      |         140 |
|       9 | 0x00D2      |         210 |
|      10 | 0x0028      |          40 |
|      11 | 0xD6973     |      878963 |
|      12 | 0x2BB0D     |      178957 |
|      13 | 0xFFFFE0A6  |  4294959270 |
|      14 | 0x0078      |         120 |
|      15 | 0x000D      |          13 |
|      16 | 0xC6F53     |      814931 |
|      17 | 0x39A3A     |      236090 |
|      18 | 0xFFFFCB91  |  4294953873 |
|      19 | 0x001E      |          30 |
|      20 | 0x0031      |          49 |
|      21 | 0x0C1C      |        3100 |
|      22 | 0x000B      |          11 |
|      23 | 0xDBB7E     |      899966 |
|      24 | 0x2C9E1     |      182753 |
|      25 | 0xFFFFE401  |  4294960129 |
|      26 | 0x000C      |          12 |
|      27 | 0xD76E4     |      882404 |
|      28 | 0x2C70C     |      182028 |
|      29 | 0xFFFFE00A  |  4294959114 |
|      30 | 0xD5DE9     |      876009 |
|      31 | 0x2C122     |      180514 |
|      32 | 0xFFFFDF60  |  4294958944 |
|      33 | 0x000E      |          14 |
|      34 | 0xD415C     |      868700 |
|      35 | 0x2C080     |      180352 |
|      36 | 0xFFFFD9C0  |  4294957504 |
|      37 | 0x000F      |          15 |
|      38 | 0xD2490     |      861328 |
|      39 | 0x2AC46     |      175174 |
|      40 | 0xFFFFD18A  |  4294955402 |
|      41 | 0xC5ACD     |      809677 |
|      42 | 0x3802A     |      229418 |
|      43 | 0xFFFFC793  |  4294952851 |
|      44 | 0xD7E3A     |      884282 |
|      45 | 0x2BAD1     |      178897 |
|      46 | 0xFFFFDC59  |  4294958169 |
|      47 | 0xD6922     |      878882 |
|      48 | 0x2C248     |      180808 |
|      49 | 0xFFFFE094  |  4294959252 |
|      50 | 0xC96DA     |      825050 |
|      51 | 0x37C9B     |      228507 |
|      52 | 0xFFFFC8B2  |  4294953138 |
|      53 | 0x0012      |          18 |
|      54 | 0x0026      |          38 |
|      55 | 0xC5D81     |      810369 |
|      56 | 0x39691     |      235153 |
|      57 | 0xFFFFC9B5  |  4294953397 |
|      58 | 0xFFFFFC74  |  4294966388 |
|      59 | 0xFFFF1DA5  |  4294909349 |
|      60 | 0x222E7     |      140007 |
|      61 | 0x0311      |         785 |
|      62 | 0xFFFFF830  |  4294965296 |
|      63 | 0x0378      |         888 |
|      64 | 0x1C9B6     |      117174 |
|      65 | 0x0004      |           4 |
|      66 | 0x00AE      |         174 |
|      67 | 0x00AB      |         171 |
|      68 | 0x015E      |         350 |
|      69 | 0x00B3      |         179 |
|      70 | 0x0060      |          96 |
|      71 | 0x006E      |         110 |
|      72 | 0xC828A     |      819850 |
|      73 | 0x33838     |      211000 |
|      74 | 0xFFFFBA56  |  4294949462 |
|      75 | 0xC6A7F     |      813695 |
|      76 | 0x389CB     |      231883 |
|      77 | 0xFFFFC9B1  |  4294953393 |
|      78 | 0x009A      |         154 |
|      79 | 0xFFFF9882  |  4294940802 |
|      80 | 0x03E8      |        1000 |
|      81 | 0xC39C7     |      801223 |
|      82 | 0x442F9     |      279289 |
|      83 | 0xFFFFAA10  |  4294945296 |
|      84 | 0x0029      |          41 |
|      85 | 0xC26FD     |      796413 |
|      86 | 0x44C5D     |      281693 |
|      87 | 0xC20C6     |      794822 |
|      88 | 0x444E8     |      279784 |
|      89 | 0xFFFFAA09  |  4294945289 |
|      90 | 0xBFC98     |      785560 |
|      91 | 0x48949     |      297289 |
|      92 | 0xFFFFA8D5  |  4294944981 |
|      93 | 0xD07A0     |      853920 |
|      94 | 0x3CDC1     |      249281 |
|      95 | 0xFFFFC758  |  4294952792 |
|      96 | 0xFFF6CBC7  |  4294364103 |
|      97 | 0xFFFA5D9D  |  4294598045 |
|      98 | 0xFFFFBD82  |  4294950274 |
|      99 | 0x0359      |         857 |
|     100 | 0xFFF6D921  |  4294367521 |
|     101 | 0xFFFA6F81  |  4294602625 |
|     102 | 0xFFFFC126  |  4294951206 |
|     103 | 0xFFF6DAC8  |  4294367944 |
|     104 | 0xFFFA64B0  |  4294599856 |
|     105 | 0xFFFFBFCE  |  4294950862 |
|     106 | 0xFFF6E09F  |  4294369439 |
|     107 | 0xFFFA6B89  |  4294601609 |
|     108 | 0xFFFFC0A8  |  4294951080 |
|     109 | 0xFFF72F68  |  4294389608 |
|     110 | 0xFFFA7B66  |  4294605670 |
|     111 | 0xFFFFD63D  |  4294956605 |
|     112 | 0xFFF73A73  |  4294392435 |
|     113 | 0xFFFA77CC  |  4294604748 |
|     114 | 0xFFFFD8F0  |  4294957296 |
|     115 | 0xFFF74072  |  4294393970 |
|     116 | 0xFFFA7FB1  |  4294606769 |
|     117 | 0xFFF74440  |  4294394944 |
|     118 | 0xFFFA7317  |  4294603543 |
|     119 | 0xFFF67B97  |  4294343575 |
|     120 | 0xFFF9BB89  |  4294556553 |
|     121 | 0xFFFFB69F  |  4294948511 |
|     122 | 0xFFF681D5  |  4294345173 |
|     123 | 0xFFF9BA9D  |  4294556317 |
|     124 | 0xFFFFB6D2  |  4294948562 |
|     125 | 0xFFF67489  |  4294341769 |
|     126 | 0xFFF9B168  |  4294553960 |
|     127 | 0xFFFFB85E  |  4294948958 |
|     128 | 0xFFF67ABE  |  4294343358 |
|     129 | 0xFFF9A6D0  |  4294551248 |
|     130 | 0xFFFFB9AF  |  4294949295 |
|     131 | 0xFFF6BCD8  |  4294360280 |
|     132 | 0xFFFA5F7E  |  4294598526 |
|     133 | 0xFFFFBDD8  |  4294950360 |
|     134 | 0x0003      |           3 |
|     135 | 0xFFF6B1C2  |  4294357442 |
|     136 | 0xFFFA3E5A  |  4294590042 |
|     137 | 0xFFFFB9B0  |  4294949296 |
|     138 | 0xFFF6A973  |  4294355315 |
|     139 | 0xFFFA356C  |  4294587756 |
|     140 | 0xFFF6A63C  |  4294354492 |
|     141 | 0xFFFA3D47  |  4294589767 |

## Events

### Event 65535

#### Metadata

| Field        | Value   |
|--------------|---------|
| Entrypoint   | 0x0000  |
| Data Size    | 1 bytes |
| Instructions | 1       |

```
      00 01 02 03 04 05 06 07  08 09 0A 0B 0C 0D 0E 0F
      -- -- -- -- -- -- -- --  -- -- -- -- -- -- -- --
0000: 00                                                .               
```

#### Opcodes

```
  0: 0x0000 [0x00] END_REQSTACK()
```

### Event 65535.1

#### Metadata

| Field        | Value   |
|--------------|---------|
| Entrypoint   | 0x0001  |
| Data Size    | 1 bytes |
| Instructions | 1       |

```
      00 01 02 03 04 05 06 07  08 09 0A 0B 0C 0D 0E 0F
      -- -- -- -- -- -- -- --  -- -- -- -- -- -- -- --
0000:    00                                              .              
```

#### Opcodes

```
  0: 0x0001 [0x00] END_REQSTACK()
```

### Event 65535.2

#### Metadata

| Field        | Value    |
|--------------|----------|
| Entrypoint   | 0x0002   |
| Data Size    | 18 bytes |
| Instructions | 4        |

```
      00 01 02 03 04 05 06 07  08 09 0A 0B 0C 0D 0E 0F
      -- -- -- -- -- -- -- --  -- -- -- -- -- -- -- --
0000:       22 00 2F 00 F8 FF  FF 7F 6C F8 FF FF 7F 00    "./.....l.....
0010: 80 01 80 00                                       ....            
```

#### Opcodes

```
  0: 0x0002 [0x22] ENTITY_HIDE_FLAG(enabled=0x00)
  1: 0x0004 [0x2F] EventEntity->Render.Flags0 &= ~0x80000 // Bit 19
  2: 0x000A [0x6C] FADE_ENTITY_COLOR(entity_id=EventEntity, end_alpha=0*, fade_time=1*)
  3: 0x0013 [0x00] END_REQSTACK()
```

### Event 65535.3

#### Metadata

| Field        | Value    |
|--------------|----------|
| Entrypoint   | 0x0014   |
| Data Size    | 10 bytes |
| Instructions | 2        |

```
      00 01 02 03 04 05 06 07  08 09 0A 0B 0C 0D 0E 0F
      -- -- -- -- -- -- -- --  -- -- -- -- -- -- -- --
0010:             6C F8 FF FF  7F 02 80 01 80 00            l.........  
```

#### Opcodes

```
  0: 0x0014 [0x6C] FADE_ENTITY_COLOR(entity_id=EventEntity, end_alpha=128*, fade_time=1*)
  1: 0x001D [0x00] END_REQSTACK()
```

### Event 65535.4

#### Metadata

| Field        | Value   |
|--------------|---------|
| Entrypoint   | 0x001E  |
| Data Size    | 9 bytes |
| Instructions | 3       |

```
      00 01 02 03 04 05 06 07  08 09 0A 0B 0C 0D 0E 0F
      -- -- -- -- -- -- -- --  -- -- -- -- -- -- -- --
0010:                                            22 00                ".
0020: 2F 00 F8 FF FF 7F 00                              /......         
```

#### Opcodes

```
  0: 0x001E [0x22] ENTITY_HIDE_FLAG(enabled=0x00)
  1: 0x0020 [0x2F] EventEntity->Render.Flags0 &= ~0x80000 // Bit 19
  2: 0x0026 [0x00] END_REQSTACK()
```

### Event 65535.5

#### Metadata

| Field        | Value   |
|--------------|---------|
| Entrypoint   | 0x0027  |
| Data Size    | 9 bytes |
| Instructions | 3       |

```
      00 01 02 03 04 05 06 07  08 09 0A 0B 0C 0D 0E 0F
      -- -- -- -- -- -- -- --  -- -- -- -- -- -- -- --
0020:                      22  01 2F 01 F8 FF FF 7F 00         "./......
```

#### Opcodes

```
  0: 0x0027 [0x22] ENTITY_HIDE_FLAG(enabled=0x01)
  1: 0x0029 [0x2F] EventEntity->Render.Flags0 |= 0x80000 // Bit 19
  2: 0x002F [0x00] END_REQSTACK()
```

### Event 65535.6

#### Metadata

| Field        | Value    |
|--------------|----------|
| Entrypoint   | 0x0030   |
| Data Size    | 10 bytes |
| Instructions | 2        |

```
      00 01 02 03 04 05 06 07  08 09 0A 0B 0C 0D 0E 0F
      -- -- -- -- -- -- -- --  -- -- -- -- -- -- -- --
0030: 6C F8 FF FF 7F 00 80 01  80 00                    l.........      
```

#### Opcodes

```
  0: 0x0030 [0x6C] FADE_ENTITY_COLOR(entity_id=EventEntity, end_alpha=0*, fade_time=1*)
  1: 0x0039 [0x00] END_REQSTACK()
```

### Event 65535.7

#### Metadata

| Field        | Value    |
|--------------|----------|
| Entrypoint   | 0x003A   |
| Data Size    | 10 bytes |
| Instructions | 2        |

```
      00 01 02 03 04 05 06 07  08 09 0A 0B 0C 0D 0E 0F
      -- -- -- -- -- -- -- --  -- -- -- -- -- -- -- --
0030:                                6C F8 FF FF 7F 02            l.....
0040: 80 01 80 00                                       ....            
```

#### Opcodes

```
  0: 0x003A [0x6C] FADE_ENTITY_COLOR(entity_id=EventEntity, end_alpha=128*, fade_time=1*)
  1: 0x0043 [0x00] END_REQSTACK()
```

### Event 15

#### Metadata

| Field        | Value   |
|--------------|---------|
| Entrypoint   | 0x0044  |
| Data Size    | 1 bytes |
| Instructions | 1       |

```
      00 01 02 03 04 05 06 07  08 09 0A 0B 0C 0D 0E 0F
      -- -- -- -- -- -- -- --  -- -- -- -- -- -- -- --
0040:             00                                        .           
```

#### Opcodes

```
  0: 0x0044 [0x00] END_REQSTACK()
```

### Event 16

#### Metadata

| Field        | Value   |
|--------------|---------|
| Entrypoint   | 0x0045  |
| Data Size    | 1 bytes |
| Instructions | 1       |

```
      00 01 02 03 04 05 06 07  08 09 0A 0B 0C 0D 0E 0F
      -- -- -- -- -- -- -- --  -- -- -- -- -- -- -- --
0040:                00                                      .          
```

#### Opcodes

```
  0: 0x0045 [0x00] END_REQSTACK()
```

### Event 65535.8

#### Metadata

| Field        | Value    |
|--------------|----------|
| Entrypoint   | 0x0046   |
| Data Size    | 37 bytes |
| Instructions | 5        |

```
      00 01 02 03 04 05 06 07  08 09 0A 0B 0C 0D 0E 0F
      -- -- -- -- -- -- -- --  -- -- -- -- -- -- -- --
0040:                   03 00  00 07 7F 1A 90 00 66 01        ........f.
0050: 00 F8 FF FF 7F F8 FF FF  7F 73 68 61 30 53 F8 FF  .........sha0S..
0060: FF 7F F8 FF FF 7F 73 68  61 30 00                 ......sha0.     
```

#### Opcodes

```
  0: 0x0046 [0x03] ExtData[1]->WorkLocal[0] = Entity->Race
  1: 0x004B [0x1A] CALL_SUBROUTINE(address=0x0090)
  2: 0x004E [0x66] LOAD_EXT_SCHEDULER_MAIN: Load scheduler "sha0" with entities [EventEntity, EventEntity], work=ExtData[1]->WorkLocal[1]
  3: 0x005D [0x53] WAIT_SCHEDULER_TASK: Wait for scheduler "sha0" with entities [EventEntity, EventEntity]
  4: 0x006A [0x00] END_REQSTACK()
```

### Event 65535.9

#### Metadata

| Field        | Value     |
|--------------|-----------|
| Entrypoint   | 0x006B    |
| Data Size    | 185 bytes |
| Instructions | 13        |

```
      00 01 02 03 04 05 06 07  08 09 0A 0B 0C 0D 0E 0F
      -- -- -- -- -- -- -- --  -- -- -- -- -- -- -- --
0060:                                   03 00 00 07 7F             .....
0070: 1A 90 00 66 01 00 F8 FF  FF 7F F8 FF FF 7F 73 68  ...f..........sh
0080: 61 31 53 F8 FF FF 7F F8  FF FF 7F 73 68 61 31 00  a1S........sha1.
0090: 03 01 00 00 00 02 01 00  03 80 05 A5 00 08 01 00  ................
00A0: 01 80 01 AA 00 08 01 00  04 80 14 01 00 05 80 07  ................
00B0: 01 00 06 80 1B 03 01 00  00 00 02 01 00 03 80 05  ................
00C0: CA 00 08 01 00 01 80 01  CF 00 08 01 00 04 80 14  ................
00D0: 01 00 05 80 07 01 00 07  80 1B 03 01 00 00 00 02  ................
00E0: 01 00 03 80 05 EF 00 08  01 00 01 80 01 F4 00 08  ................
00F0: 01 00 04 80 14 01 00 05  80 07 01 00 08 80 1B 03  ................
0100: 01 00 00 00 02 01 00 03  80 05 14 01 08 01 00 01  ................
0110: 80 01 19 01 08 01 00 04  80 14 01 00 05 80 07 01  ................
0120: 00 09 80 1B                                       ....            
```

#### Opcodes

```
  0: 0x006B [0x03] ExtData[1]->WorkLocal[0] = Entity->Race
  1: 0x0070 [0x1A] CALL_SUBROUTINE(address=0x0090)
  2: 0x0073 [0x66] LOAD_EXT_SCHEDULER_MAIN: Load scheduler "sha1" with entities [EventEntity, EventEntity], work=ExtData[1]->WorkLocal[1]
  3: 0x0082 [0x53] WAIT_SCHEDULER_TASK: Wait for scheduler "sha1" with entities [EventEntity, EventEntity]
  4: 0x008F [0x00] END_REQSTACK()

SUBROUTINE_0090:
  5: 0x0090 [0x03] ExtData[1]->WorkLocal[1] = ExtData[1]->WorkLocal[0]
  6: 0x0095 [0x02] IF !(ExtData[1]->WorkLocal[1] > 5*) GOTO 0x00A5
  7: 0x009D [0x08] ExtData[1]->WorkLocal[1] -= 1*
  8: 0x00A2 [0x01] GOTO 0x00AA
  9: 0x00A5 [0x08] ExtData[1]->WorkLocal[1] -= 2*

SUBROUTINE_00AA:
 10: 0x00AA [0x14] ExtData[1]->WorkLocal[1] *= 10*
 11: 0x00AF [0x07] ExtData[1]->WorkLocal[1] += 9*
 12: 0x00B4 [0x1B] RETURN
```

#### Data or dead code:

```
# Dead code (unreachable instructions):
     0x00B5 [0x03] ExtData[1]->WorkLocal[1] = ExtData[1]->WorkLocal[0]
     0x00BA [0x02] IF !(ExtData[1]->WorkLocal[1] > 5*) GOTO 0x00CA
     0x00C2 [0x08] ExtData[1]->WorkLocal[1] -= 1*
     0x00C7 [0x01] GOTO 0x00CF
     0x00CA [0x08] ExtData[1]->WorkLocal[1] -= 2*
     0x00CF [0x14] ExtData[1]->WorkLocal[1] *= 10*
     0x00D4 [0x07] ExtData[1]->WorkLocal[1] += 70*
     0x00D9 [0x1B] RETURN
     0x00DA [0x03] ExtData[1]->WorkLocal[1] = ExtData[1]->WorkLocal[0]
     0x00DF [0x02] IF !(ExtData[1]->WorkLocal[1] > 5*) GOTO 0x00EF
     0x00E7 [0x08] ExtData[1]->WorkLocal[1] -= 1*
     0x00EC [0x01] GOTO 0x00F4
     0x00EF [0x08] ExtData[1]->WorkLocal[1] -= 2*
     0x00F4 [0x14] ExtData[1]->WorkLocal[1] *= 10*
     0x00F9 [0x07] ExtData[1]->WorkLocal[1] += 140*
     0x00FE [0x1B] RETURN
     0x00FF [0x03] ExtData[1]->WorkLocal[1] = ExtData[1]->WorkLocal[0]
     0x0104 [0x02] IF !(ExtData[1]->WorkLocal[1] > 5*) GOTO 0x0114
     0x010C [0x08] ExtData[1]->WorkLocal[1] -= 1*
     0x0111 [0x01] GOTO 0x0119
     0x0114 [0x08] ExtData[1]->WorkLocal[1] -= 2*
     0x0119 [0x14] ExtData[1]->WorkLocal[1] *= 10*
     0x011E [0x07] ExtData[1]->WorkLocal[1] += 210*
     0x0123 [0x1B] RETURN
```

### Event 65535.10

#### Metadata

| Field        | Value    |
|--------------|----------|
| Entrypoint   | 0x0124   |
| Data Size    | 20 bytes |
| Instructions | 6        |

```
      00 01 02 03 04 05 06 07  08 09 0A 0B 0C 0D 0E 0F
      -- -- -- -- -- -- -- --  -- -- -- -- -- -- -- --
0120:             32 0A 80 1F  00 0B 80 0C 80 0D 80 1F      2...........
0130: 01 6F 1E F7 D1 03 01 00                           .o......        
```

#### Opcodes

```
  0: 0x0124 [0x32] ExtData[1]->MainSpeed = 40* * 0.1
  1: 0x0127 [0x1F] MOVE_ENTITY: EventEntity moves to X=878.963*, Z=178.957*, Y=-8.026*
  2: 0x012F [0x1F] MOVE_ENTITY: Update entity position (mode=1)
  3: 0x0131 [0x6F] WAIT_FRAME_DELAY: Yield until WaitTime reaches zero
  4: 0x0132 [0x1E] EventEntity looks at Gadalar (ID: 17027575/0x0103D1F7) and starts talking
  5: 0x0137 [0x00] END_REQSTACK()
```

### Event 65535.11

#### Metadata

| Field        | Value    |
|--------------|----------|
| Entrypoint   | 0x0138   |
| Data Size    | 30 bytes |
| Instructions | 8        |

```
      00 01 02 03 04 05 06 07  08 09 0A 0B 0C 0D 0E 0F
      -- -- -- -- -- -- -- --  -- -- -- -- -- -- -- --
0130:                          6E F8 FF FF 7F 01 80 99          n.......
0140: F8 FF FF 7F 1C 0E 80 32  0F 80 1F 00 10 80 11 80  .......2........
0150: 12 80 1F 01 6F 00                                 ....o.          
```

#### Opcodes

```
  0: 0x0138 [0x6E] EventEntity uses emote 1*
  1: 0x013F [0x99] Wait for EventEntity animation to complete
  2: 0x0144 [0x1C] WAIT(120* ticks)
  3: 0x0147 [0x32] ExtData[1]->MainSpeed = 13* * 0.1
  4: 0x014A [0x1F] MOVE_ENTITY: EventEntity moves to X=814.931*, Z=236.090*, Y=-13.423*
  5: 0x0152 [0x1F] MOVE_ENTITY: Update entity position (mode=1)
  6: 0x0154 [0x6F] WAIT_FRAME_DELAY: Yield until WaitTime reaches zero
  7: 0x0155 [0x00] END_REQSTACK()
```

### Event 65535.12

#### Metadata

| Field        | Value    |
|--------------|----------|
| Entrypoint   | 0x0156   |
| Data Size    | 13 bytes |
| Instructions | 3        |

```
      00 01 02 03 04 05 06 07  08 09 0A 0B 0C 0D 0E 0F
      -- -- -- -- -- -- -- --  -- -- -- -- -- -- -- --
0150:                   1C 13  80 4A F6 D1 03 01 12 D2        ...J......
0160: 03 01 00                                          ...             
```

#### Opcodes

```
  0: 0x0156 [0x1C] WAIT(30* ticks)
  1: 0x0159 [0x4A] Fari-Wari (ID: 17027574/0x0103D1F6) looks at Nabitham (ID: 17027602/0x0103D212)
  2: 0x0162 [0x00] END_REQSTACK()
```

### Event 65535.13

#### Metadata

| Field        | Value    |
|--------------|----------|
| Entrypoint   | 0x0163   |
| Data Size    | 29 bytes |
| Instructions | 3        |

```
      00 01 02 03 04 05 06 07  08 09 0A 0B 0C 0D 0E 0F
      -- -- -- -- -- -- -- --  -- -- -- -- -- -- -- --
0160:          66 14 80 F6 D1  03 01 F6 D1 03 01 73 69     f..........si
0170: 74 31 53 F6 D1 03 01 F6  D1 03 01 73 69 74 31 00  t1S........sit1.
```

#### Opcodes

```
  0: 0x0163 [0x66] LOAD_EXT_SCHEDULER_MAIN: Load scheduler "sit1" with entities [Fari-Wari (ID: 17027574/0x0103D1F6), Fari-Wari (ID: 17027574/0x0103D1F6)], work=49*
  1: 0x0172 [0x53] WAIT_SCHEDULER_TASK: Wait for scheduler "sit1" with entities [Fari-Wari (ID: 17027574/0x0103D1F6), Fari-Wari (ID: 17027574/0x0103D1F6)]
  2: 0x017F [0x00] END_REQSTACK()
```

### Event 65535.14

#### Metadata

| Field        | Value   |
|--------------|---------|
| Entrypoint   | 0x0180  |
| Data Size    | 4 bytes |
| Instructions | 2       |

```
      00 01 02 03 04 05 06 07  08 09 0A 0B 0C 0D 0E 0F
      -- -- -- -- -- -- -- --  -- -- -- -- -- -- -- --
0180: 39 15 80 00                                       9...            
```

#### Opcodes

```
  0: 0x0180 [0x39] SET_ENTITY_DIRECTION(direction=17.0°*)
  1: 0x0183 [0x00] END_REQSTACK()
```

### Event 65535.15

#### Metadata

| Field        | Value    |
|--------------|----------|
| Entrypoint   | 0x0184   |
| Data Size    | 16 bytes |
| Instructions | 4        |

```
      00 01 02 03 04 05 06 07  08 09 0A 0B 0C 0D 0E 0F
      -- -- -- -- -- -- -- --  -- -- -- -- -- -- -- --
0180:             6E F6 D1 03  01 00 80 99 F6 D1 03 01      n...........
0190: 1C 0E 80 00                                       ....            
```

#### Opcodes

```
  0: 0x0184 [0x6E] Fari-Wari (ID: 17027574/0x0103D1F6) uses emote 0*
  1: 0x018B [0x99] Wait for Fari-Wari (ID: 17027574/0x0103D1F6) animation to complete
  2: 0x0190 [0x1C] WAIT(120* ticks)
  3: 0x0193 [0x00] END_REQSTACK()
```

### Event 65535.16

#### Metadata

| Field        | Value    |
|--------------|----------|
| Entrypoint   | 0x0194   |
| Data Size    | 19 bytes |
| Instructions | 4        |

```
      00 01 02 03 04 05 06 07  08 09 0A 0B 0C 0D 0E 0F
      -- -- -- -- -- -- -- --  -- -- -- -- -- -- -- --
0190:             59 04 F7 D1  03 01 16 80 1F 00 17 80      Y...........
01A0: 18 80 19 80 1F 01 00                              .......         
```

#### Opcodes

```
  0: 0x0194 [0x59] UPDATE_ENTITY_DATA: Set Gadalar (ID: 17027575/0x0103D1F7) main speed = 11* * 0.1
  1: 0x019C [0x1F] MOVE_ENTITY: EventEntity moves to X=899.966*, Z=182.753*, Y=-7.167*
  2: 0x01A4 [0x1F] MOVE_ENTITY: Update entity position (mode=1)
  3: 0x01A6 [0x00] END_REQSTACK()
```

### Event 65535.17

#### Metadata

| Field        | Value    |
|--------------|----------|
| Entrypoint   | 0x01A7   |
| Data Size    | 19 bytes |
| Instructions | 4        |

```
      00 01 02 03 04 05 06 07  08 09 0A 0B 0C 0D 0E 0F
      -- -- -- -- -- -- -- --  -- -- -- -- -- -- -- --
01A0:                      59  04 F7 D1 03 01 1A 80 1F         Y........
01B0: 00 1B 80 1C 80 1D 80 1F  01 00                    ..........      
```

#### Opcodes

```
  0: 0x01A7 [0x59] UPDATE_ENTITY_DATA: Set Gadalar (ID: 17027575/0x0103D1F7) main speed = 12* * 0.1
  1: 0x01AF [0x1F] MOVE_ENTITY: EventEntity moves to X=882.404*, Z=182.028*, Y=-8.182*
  2: 0x01B7 [0x1F] MOVE_ENTITY: Update entity position (mode=1)
  3: 0x01B9 [0x00] END_REQSTACK()
```

### Event 65535.18

#### Metadata

| Field        | Value    |
|--------------|----------|
| Entrypoint   | 0x01BA   |
| Data Size    | 19 bytes |
| Instructions | 4        |

```
      00 01 02 03 04 05 06 07  08 09 0A 0B 0C 0D 0E 0F
      -- -- -- -- -- -- -- --  -- -- -- -- -- -- -- --
01B0:                                59 04 F7 D1 03 01            Y.....
01C0: 0F 80 1F 00 1E 80 1F 80  20 80 1F 01 00           ........ ....   
```

#### Opcodes

```
  0: 0x01BA [0x59] UPDATE_ENTITY_DATA: Set Gadalar (ID: 17027575/0x0103D1F7) main speed = 13* * 0.1
  1: 0x01C2 [0x1F] MOVE_ENTITY: EventEntity moves to X=876.009*, Z=180.514*, Y=-8.352*
  2: 0x01CA [0x1F] MOVE_ENTITY: Update entity position (mode=1)
  3: 0x01CC [0x00] END_REQSTACK()
```

### Event 65535.19

#### Metadata

| Field        | Value    |
|--------------|----------|
| Entrypoint   | 0x01CD   |
| Data Size    | 19 bytes |
| Instructions | 4        |

```
      00 01 02 03 04 05 06 07  08 09 0A 0B 0C 0D 0E 0F
      -- -- -- -- -- -- -- --  -- -- -- -- -- -- -- --
01C0:                                         59 04 F7               Y..
01D0: D1 03 01 21 80 1F 00 22  80 23 80 24 80 1F 01 00  ...!...".#.$....
```

#### Opcodes

```
  0: 0x01CD [0x59] UPDATE_ENTITY_DATA: Set Gadalar (ID: 17027575/0x0103D1F7) main speed = 14* * 0.1
  1: 0x01D5 [0x1F] MOVE_ENTITY: EventEntity moves to X=868.700*, Z=180.352*, Y=-9.792*
  2: 0x01DD [0x1F] MOVE_ENTITY: Update entity position (mode=1)
  3: 0x01DF [0x00] END_REQSTACK()
```

### Event 65535.20

#### Metadata

| Field        | Value    |
|--------------|----------|
| Entrypoint   | 0x01E0   |
| Data Size    | 19 bytes |
| Instructions | 4        |

```
      00 01 02 03 04 05 06 07  08 09 0A 0B 0C 0D 0E 0F
      -- -- -- -- -- -- -- --  -- -- -- -- -- -- -- --
01E0: 59 04 F7 D1 03 01 25 80  1F 00 26 80 27 80 28 80  Y.....%...&.'.(.
01F0: 1F 01 00                                          ...             
```

#### Opcodes

```
  0: 0x01E0 [0x59] UPDATE_ENTITY_DATA: Set Gadalar (ID: 17027575/0x0103D1F7) main speed = 15* * 0.1
  1: 0x01E8 [0x1F] MOVE_ENTITY: EventEntity moves to X=861.328*, Z=175.174*, Y=-11.894*
  2: 0x01F0 [0x1F] MOVE_ENTITY: Update entity position (mode=1)
  3: 0x01F2 [0x00] END_REQSTACK()
```

### Event 65535.21

#### Metadata

| Field        | Value    |
|--------------|----------|
| Entrypoint   | 0x01F3   |
| Data Size    | 19 bytes |
| Instructions | 4        |

```
      00 01 02 03 04 05 06 07  08 09 0A 0B 0C 0D 0E 0F
      -- -- -- -- -- -- -- --  -- -- -- -- -- -- -- --
01F0:          59 04 F7 D1 03  01 1A 80 1F 00 29 80 2A     Y.........).*
0200: 80 2B 80 1F 01 00                                 .+....          
```

#### Opcodes

```
  0: 0x01F3 [0x59] UPDATE_ENTITY_DATA: Set Gadalar (ID: 17027575/0x0103D1F7) main speed = 12* * 0.1
  1: 0x01FB [0x1F] MOVE_ENTITY: EventEntity moves to X=809.677*, Z=229.418*, Y=-14.445*
  2: 0x0203 [0x1F] MOVE_ENTITY: Update entity position (mode=1)
  3: 0x0205 [0x00] END_REQSTACK()
```

### Event 65535.22

#### Metadata

| Field        | Value    |
|--------------|----------|
| Entrypoint   | 0x0206   |
| Data Size    | 19 bytes |
| Instructions | 4        |

```
      00 01 02 03 04 05 06 07  08 09 0A 0B 0C 0D 0E 0F
      -- -- -- -- -- -- -- --  -- -- -- -- -- -- -- --
0200:                   59 04  F6 D1 03 01 21 80 1F 00        Y.....!...
0210: 2C 80 2D 80 2E 80 1F 01  00                       ,.-......       
```

#### Opcodes

```
  0: 0x0206 [0x59] UPDATE_ENTITY_DATA: Set Fari-Wari (ID: 17027574/0x0103D1F6) main speed = 14* * 0.1
  1: 0x020E [0x1F] MOVE_ENTITY: EventEntity moves to X=884.282*, Z=178.897*, Y=-9.127*
  2: 0x0216 [0x1F] MOVE_ENTITY: Update entity position (mode=1)
  3: 0x0218 [0x00] END_REQSTACK()
```

### Event 65535.23

#### Metadata

| Field        | Value    |
|--------------|----------|
| Entrypoint   | 0x0219   |
| Data Size    | 34 bytes |
| Instructions | 7        |

```
      00 01 02 03 04 05 06 07  08 09 0A 0B 0C 0D 0E 0F
      -- -- -- -- -- -- -- --  -- -- -- -- -- -- -- --
0210:                             59 04 F6 D1 03 01 21           Y.....!
0220: 80 1F 00 2F 80 30 80 31  80 1F 01 6F 4A F6 D1 03  .../.0.1...oJ...
0230: 01 07 D2 03 01 7B F6 D1  03 01 00                 .....{.....     
```

#### Opcodes

```
  0: 0x0219 [0x59] UPDATE_ENTITY_DATA: Set Fari-Wari (ID: 17027574/0x0103D1F6) main speed = 14* * 0.1
  1: 0x0221 [0x1F] MOVE_ENTITY: EventEntity moves to X=878.882*, Z=180.808*, Y=-8.044*
  2: 0x0229 [0x1F] MOVE_ENTITY: Update entity position (mode=1)
  3: 0x022B [0x6F] WAIT_FRAME_DELAY: Yield until WaitTime reaches zero
  4: 0x022C [0x4A] Fari-Wari (ID: 17027574/0x0103D1F6) looks at ??? (ID: 17027591/0x0103D207)
  5: 0x0235 [0x7B] Fari-Wari (ID: 17027574/0x0103D1F6) stops talking
  6: 0x023A [0x00] END_REQSTACK()
```

### Event 65535.24

#### Metadata

| Field        | Value    |
|--------------|----------|
| Entrypoint   | 0x023B   |
| Data Size    | 19 bytes |
| Instructions | 4        |

```
      00 01 02 03 04 05 06 07  08 09 0A 0B 0C 0D 0E 0F
      -- -- -- -- -- -- -- --  -- -- -- -- -- -- -- --
0230:                                   59 04 F6 D1 03             Y....
0240: 01 0F 80 1F 00 32 80 33  80 34 80 1F 01 00        .....2.3.4....  
```

#### Opcodes

```
  0: 0x023B [0x59] UPDATE_ENTITY_DATA: Set Fari-Wari (ID: 17027574/0x0103D1F6) main speed = 13* * 0.1
  1: 0x0243 [0x1F] MOVE_ENTITY: EventEntity moves to X=825.050*, Z=228.507*, Y=-14.158*
  2: 0x024B [0x1F] MOVE_ENTITY: Update entity position (mode=1)
  3: 0x024D [0x00] END_REQSTACK()
```

### Event 65535.25

#### Metadata

| Field        | Value    |
|--------------|----------|
| Entrypoint   | 0x024E   |
| Data Size    | 13 bytes |
| Instructions | 3        |

```
      00 01 02 03 04 05 06 07  08 09 0A 0B 0C 0D 0E 0F
      -- -- -- -- -- -- -- --  -- -- -- -- -- -- -- --
0240:                                            6E F6                n.
0250: D1 03 01 35 80 99 F6 D1  03 01 00                 ...5.......     
```

#### Opcodes

```
  0: 0x024E [0x6E] Fari-Wari (ID: 17027574/0x0103D1F6) uses emote 18*
  1: 0x0255 [0x99] Wait for Fari-Wari (ID: 17027574/0x0103D1F6) animation to complete
  2: 0x025A [0x00] END_REQSTACK()
```

### Event 65535.26

#### Metadata

| Field        | Value    |
|--------------|----------|
| Entrypoint   | 0x025B   |
| Data Size    | 29 bytes |
| Instructions | 6        |

```
      00 01 02 03 04 05 06 07  08 09 0A 0B 0C 0D 0E 0F
      -- -- -- -- -- -- -- --  -- -- -- -- -- -- -- --
0250:                                   59 04 F6 D1 03             Y....
0260: 01 36 80 1F 00 37 80 38  80 39 80 1F 01 6F 4A F6  .6...7.8.9...oJ.
0270: D1 03 01 0C D2 03 01 00                           ........        
```

#### Opcodes

```
  0: 0x025B [0x59] UPDATE_ENTITY_DATA: Set Fari-Wari (ID: 17027574/0x0103D1F6) main speed = 38* * 0.1
  1: 0x0263 [0x1F] MOVE_ENTITY: EventEntity moves to X=810.369*, Z=235.153*, Y=-13.899*
  2: 0x026B [0x1F] MOVE_ENTITY: Update entity position (mode=1)
  3: 0x026D [0x6F] WAIT_FRAME_DELAY: Yield until WaitTime reaches zero
  4: 0x026E [0x4A] Fari-Wari (ID: 17027574/0x0103D1F6) looks at hei05 (ID: 17027596/0x0103D20C)
  5: 0x0277 [0x00] END_REQSTACK()
```

### Event 65535.27

#### Metadata

| Field        | Value    |
|--------------|----------|
| Entrypoint   | 0x0278   |
| Data Size    | 19 bytes |
| Instructions | 4        |

```
      00 01 02 03 04 05 06 07  08 09 0A 0B 0C 0D 0E 0F
      -- -- -- -- -- -- -- --  -- -- -- -- -- -- -- --
0270:                          59 04 F6 D1 03 01 1A 80          Y.......
0280: 1F 00 3A 80 3B 80 00 80  1F 01 00                 ..:.;......     
```

#### Opcodes

```
  0: 0x0278 [0x59] UPDATE_ENTITY_DATA: Set Fari-Wari (ID: 17027574/0x0103D1F6) main speed = 12* * 0.1
  1: 0x0280 [0x1F] MOVE_ENTITY: EventEntity moves to X=-0.908*, Z=-57.947*, Y=0.000*
  2: 0x0288 [0x1F] MOVE_ENTITY: Update entity position (mode=1)
  3: 0x028A [0x00] END_REQSTACK()
```

### Event 65535.28

#### Metadata

| Field        | Value    |
|--------------|----------|
| Entrypoint   | 0x028B   |
| Data Size    | 37 bytes |
| Instructions | 7        |

```
      00 01 02 03 04 05 06 07  08 09 0A 0B 0C 0D 0E 0F
      -- -- -- -- -- -- -- --  -- -- -- -- -- -- -- --
0280:                                   59 04 F6 D1 03             Y....
0290: 01 0F 80 1F 00 3C 80 3D  80 3E 80 1F 01 6F 79 00  .....<.=.>...oy.
02A0: F6 D1 03 01 F0 FF FF 7F  4B F6 D1 03 01 3F 80 00  ........K....?..
```

#### Opcodes

```
  0: 0x028B [0x59] UPDATE_ENTITY_DATA: Set Fari-Wari (ID: 17027574/0x0103D1F6) main speed = 13* * 0.1
  1: 0x0293 [0x1F] MOVE_ENTITY: EventEntity moves to X=140.007*, Z=0.785*, Y=-2.000*
  2: 0x029B [0x1F] MOVE_ENTITY: Update entity position (mode=1)
  3: 0x029D [0x6F] WAIT_FRAME_DELAY: Yield until WaitTime reaches zero
  4: 0x029E [0x79] Fari-Wari (ID: 17027574/0x0103D1F6) looks at LocalPlayer (Basic look)
  5: 0x02A8 [0x4B] UPDATE_ENTITY_YAW(entity=Fari-Wari (ID: 17027574/0x0103D1F6), yaw=4.9°*)
  6: 0x02AF [0x00] END_REQSTACK()
```

### Event 65535.29

#### Metadata

| Field        | Value    |
|--------------|----------|
| Entrypoint   | 0x02B0   |
| Data Size    | 19 bytes |
| Instructions | 4        |

```
      00 01 02 03 04 05 06 07  08 09 0A 0B 0C 0D 0E 0F
      -- -- -- -- -- -- -- --  -- -- -- -- -- -- -- --
02B0: 59 04 F6 D1 03 01 0F 80  1F 00 40 80 3D 80 3E 80  Y.........@.=.>.
02C0: 1F 01 00                                          ...             
```

#### Opcodes

```
  0: 0x02B0 [0x59] UPDATE_ENTITY_DATA: Set Fari-Wari (ID: 17027574/0x0103D1F6) main speed = 13* * 0.1
  1: 0x02B8 [0x1F] MOVE_ENTITY: EventEntity moves to X=117.174*, Z=0.785*, Y=-2.000*
  2: 0x02C0 [0x1F] MOVE_ENTITY: Update entity position (mode=1)
  3: 0x02C2 [0x00] END_REQSTACK()
```

### Event 65535.30

#### Metadata

| Field        | Value    |
|--------------|----------|
| Entrypoint   | 0x02C3   |
| Data Size    | 21 bytes |
| Instructions | 2        |

```
      00 01 02 03 04 05 06 07  08 09 0A 0B 0C 0D 0E 0F
      -- -- -- -- -- -- -- --  -- -- -- -- -- -- -- --
02C0:          B6 0B 41 80 21  80 42 80 43 80 43 80 43     ..A.!.B.C.C.C
02D0: 80 43 80 44 80 00 80 00                           .C.D....        
```

#### Opcodes

```
  0: 0x02C3 [0xB6] ENTITY_APPEARANCE_HANDLER(case=Full entity look, race=4*, hair=14*, head=174*, body=171*, hands=171*, legs=171*, feet=171*, main=350*, sub=0*)
  1: 0x02D7 [0x00] END_REQSTACK()
```

### Event 65535.31

#### Metadata

| Field        | Value    |
|--------------|----------|
| Entrypoint   | 0x02D8   |
| Data Size    | 21 bytes |
| Instructions | 2        |

```
      00 01 02 03 04 05 06 07  08 09 0A 0B 0C 0D 0E 0F
      -- -- -- -- -- -- -- --  -- -- -- -- -- -- -- --
02D0:                          B6 0B 41 80 21 80 00 80          ..A.!...
02E0: 45 80 46 80 47 80 46 80  44 80 00 80 00           E.F.G.F.D....   
```

#### Opcodes

```
  0: 0x02D8 [0xB6] ENTITY_APPEARANCE_HANDLER(case=Full entity look, race=4*, hair=14*, head=0*, body=179*, hands=96*, legs=110*, feet=96*, main=350*, sub=0*)
  1: 0x02EC [0x00] END_REQSTACK()
```

### Event 65535.32

#### Metadata

| Field        | Value    |
|--------------|----------|
| Entrypoint   | 0x02ED   |
| Data Size    | 19 bytes |
| Instructions | 4        |

```
      00 01 02 03 04 05 06 07  08 09 0A 0B 0C 0D 0E 0F
      -- -- -- -- -- -- -- --  -- -- -- -- -- -- -- --
02E0:                                         59 04 F9               Y..
02F0: D1 03 01 0F 80 1F 00 48  80 49 80 4A 80 1F 01 00  .......H.I.J....
```

#### Opcodes

```
  0: 0x02ED [0x59] UPDATE_ENTITY_DATA: Set ??? (ID: 17027577/0x0103D1F9) main speed = 13* * 0.1
  1: 0x02F5 [0x1F] MOVE_ENTITY: EventEntity moves to X=819.850*, Z=211.000*, Y=-17.834*
  2: 0x02FD [0x1F] MOVE_ENTITY: Update entity position (mode=1)
  3: 0x02FF [0x00] END_REQSTACK()
```

### Event 65535.33

#### Metadata

| Field        | Value    |
|--------------|----------|
| Entrypoint   | 0x0300   |
| Data Size    | 34 bytes |
| Instructions | 7        |

```
      00 01 02 03 04 05 06 07  08 09 0A 0B 0C 0D 0E 0F
      -- -- -- -- -- -- -- --  -- -- -- -- -- -- -- --
0300: 59 04 F9 D1 03 01 0F 80  1F 00 4B 80 4C 80 4D 80  Y.........K.L.M.
0310: 1F 01 6F 4A F9 D1 03 01  07 D2 03 01 7B F9 D1 03  ..oJ........{...
0320: 01 00                                             ..              
```

#### Opcodes

```
  0: 0x0300 [0x59] UPDATE_ENTITY_DATA: Set ??? (ID: 17027577/0x0103D1F9) main speed = 13* * 0.1
  1: 0x0308 [0x1F] MOVE_ENTITY: EventEntity moves to X=813.695*, Z=231.883*, Y=-13.903*
  2: 0x0310 [0x1F] MOVE_ENTITY: Update entity position (mode=1)
  3: 0x0312 [0x6F] WAIT_FRAME_DELAY: Yield until WaitTime reaches zero
  4: 0x0313 [0x4A] ??? (ID: 17027577/0x0103D1F9) looks at ??? (ID: 17027591/0x0103D207)
  5: 0x031C [0x7B] ??? (ID: 17027577/0x0103D1F9) stops talking
  6: 0x0321 [0x00] END_REQSTACK()
```

### Event 65535.34

#### Metadata

| Field        | Value    |
|--------------|----------|
| Entrypoint   | 0x0322   |
| Data Size    | 32 bytes |
| Instructions | 7        |

```
      00 01 02 03 04 05 06 07  08 09 0A 0B 0C 0D 0E 0F
      -- -- -- -- -- -- -- --  -- -- -- -- -- -- -- --
0320:       59 04 F9 D1 03 01  21 80 1F 00 4E 80 4F 80    Y.....!...N.O.
0330: 00 80 1F 01 6F 4B F9 D1  03 01 50 80 7B F9 D1 03  ....oK....P.{...
0340: 01 00                                             ..              
```

#### Opcodes

```
  0: 0x0322 [0x59] UPDATE_ENTITY_DATA: Set ??? (ID: 17027577/0x0103D1F9) main speed = 14* * 0.1
  1: 0x032A [0x1F] MOVE_ENTITY: EventEntity moves to X=0.154*, Z=-26.494*, Y=0.000*
  2: 0x0332 [0x1F] MOVE_ENTITY: Update entity position (mode=1)
  3: 0x0334 [0x6F] WAIT_FRAME_DELAY: Yield until WaitTime reaches zero
  4: 0x0335 [0x4B] UPDATE_ENTITY_YAW(entity=??? (ID: 17027577/0x0103D1F9), yaw=5.5°*)
  5: 0x033C [0x7B] ??? (ID: 17027577/0x0103D1F9) stops talking
  6: 0x0341 [0x00] END_REQSTACK()
```

### Event 65535.35

#### Metadata

| Field        | Value    |
|--------------|----------|
| Entrypoint   | 0x0342   |
| Data Size    | 19 bytes |
| Instructions | 4        |

```
      00 01 02 03 04 05 06 07  08 09 0A 0B 0C 0D 0E 0F
      -- -- -- -- -- -- -- --  -- -- -- -- -- -- -- --
0340:       59 04 19 D2 03 01  0A 80 1F 00 51 80 52 80    Y.........Q.R.
0350: 53 80 1F 01 00                                    S....           
```

#### Opcodes

```
  0: 0x0342 [0x59] UPDATE_ENTITY_DATA: Set yagu1 (ID: 17027609/0x0103D219) main speed = 40* * 0.1
  1: 0x034A [0x1F] MOVE_ENTITY: EventEntity moves to X=801.223*, Z=279.289*, Y=-22.000*
  2: 0x0352 [0x1F] MOVE_ENTITY: Update entity position (mode=1)
  3: 0x0354 [0x00] END_REQSTACK()
```

### Event 65535.36

#### Metadata

| Field        | Value    |
|--------------|----------|
| Entrypoint   | 0x0355   |
| Data Size    | 19 bytes |
| Instructions | 4        |

```
      00 01 02 03 04 05 06 07  08 09 0A 0B 0C 0D 0E 0F
      -- -- -- -- -- -- -- --  -- -- -- -- -- -- -- --
0350:                59 04 1A  D2 03 01 54 80 1F 00 55       Y.....T...U
0360: 80 56 80 53 80 1F 01 00                           .V.S....        
```

#### Opcodes

```
  0: 0x0355 [0x59] UPDATE_ENTITY_DATA: Set yagu2 (ID: 17027610/0x0103D21A) main speed = 41* * 0.1
  1: 0x035D [0x1F] MOVE_ENTITY: EventEntity moves to X=796.413*, Z=281.693*, Y=-22.000*
  2: 0x0365 [0x1F] MOVE_ENTITY: Update entity position (mode=1)
  3: 0x0367 [0x00] END_REQSTACK()
```

### Event 65535.37

#### Metadata

| Field        | Value    |
|--------------|----------|
| Entrypoint   | 0x0368   |
| Data Size    | 19 bytes |
| Instructions | 4        |

```
      00 01 02 03 04 05 06 07  08 09 0A 0B 0C 0D 0E 0F
      -- -- -- -- -- -- -- --  -- -- -- -- -- -- -- --
0360:                          59 04 1B D2 03 01 54 80          Y.....T.
0370: 1F 00 57 80 58 80 59 80  1F 01 00                 ..W.X.Y....     
```

#### Opcodes

```
  0: 0x0368 [0x59] UPDATE_ENTITY_DATA: Set yagu3 (ID: 17027611/0x0103D21B) main speed = 41* * 0.1
  1: 0x0370 [0x1F] MOVE_ENTITY: EventEntity moves to X=794.822*, Z=279.784*, Y=-22.007*
  2: 0x0378 [0x1F] MOVE_ENTITY: Update entity position (mode=1)
  3: 0x037A [0x00] END_REQSTACK()
```

### Event 65535.38

#### Metadata

| Field        | Value    |
|--------------|----------|
| Entrypoint   | 0x037B   |
| Data Size    | 12 bytes |
| Instructions | 4        |

```
      00 01 02 03 04 05 06 07  08 09 0A 0B 0C 0D 0E 0F
      -- -- -- -- -- -- -- --  -- -- -- -- -- -- -- --
0370:                                   1F 00 5A 80 5B             ..Z.[
0380: 80 5C 80 1F 01 6F 00                              .\...o.         
```

#### Opcodes

```
  0: 0x037B [0x1F] MOVE_ENTITY: EventEntity moves to X=785.560*, Z=297.289*, Y=-22.315*
  1: 0x0383 [0x1F] MOVE_ENTITY: Update entity position (mode=1)
  2: 0x0385 [0x6F] WAIT_FRAME_DELAY: Yield until WaitTime reaches zero
  3: 0x0386 [0x00] END_REQSTACK()
```

### Event 65535.39

#### Metadata

| Field        | Value    |
|--------------|----------|
| Entrypoint   | 0x0387   |
| Data Size    | 12 bytes |
| Instructions | 4        |

```
      00 01 02 03 04 05 06 07  08 09 0A 0B 0C 0D 0E 0F
      -- -- -- -- -- -- -- --  -- -- -- -- -- -- -- --
0380:                      1F  00 5D 80 5E 80 5F 80 1F         ..].^._..
0390: 01 6F 00                                          .o.             
```

#### Opcodes

```
  0: 0x0387 [0x1F] MOVE_ENTITY: EventEntity moves to X=853.920*, Z=249.281*, Y=-14.504*
  1: 0x038F [0x1F] MOVE_ENTITY: Update entity position (mode=1)
  2: 0x0391 [0x6F] WAIT_FRAME_DELAY: Yield until WaitTime reaches zero
  3: 0x0392 [0x00] END_REQSTACK()
```

### Event 65535.40

#### Metadata

| Field        | Value    |
|--------------|----------|
| Entrypoint   | 0x0393   |
| Data Size    | 42 bytes |
| Instructions | 8        |

```
      00 01 02 03 04 05 06 07  08 09 0A 0B 0C 0D 0E 0F
      -- -- -- -- -- -- -- --  -- -- -- -- -- -- -- --
0390:          1F 00 60 80 61  80 62 80 1F 01 6F 4A 19     ..`.a.b...oJ.
03A0: D2 03 01 F8 D1 03 01 6F  76 19 D2 03 01 5B 63 80  .......ov....[c.
03B0: 19 D2 03 01 19 D2 03 01  77 6E 64 31 00           ........wnd1.   
```

#### Opcodes

```
  0: 0x0393 [0x1F] MOVE_ENTITY: EventEntity moves to X=-603.193*, Z=-369.251*, Y=-17.022*
  1: 0x039B [0x1F] MOVE_ENTITY: Update entity position (mode=1)
  2: 0x039D [0x6F] WAIT_FRAME_DELAY: Yield until WaitTime reaches zero
  3: 0x039E [0x4A] yagu1 (ID: 17027609/0x0103D219) looks at Shayeeha (ID: 17027576/0x0103D1F8)
  4: 0x03A7 [0x6F] WAIT_FRAME_DELAY: Yield until WaitTime reaches zero
  5: 0x03A8 [0x76] CHECK_ENTITY_RENDER_FLAGS: Wait until yagu1 (ID: 17027609/0x0103D219) Render.Flags0 and Render.Flags3 conditions are met
  6: 0x03AD [0x5B] LOAD_EXT_SCHEDULER: Load scheduler "wnd1" with entities [yagu1 (ID: 17027609/0x0103D219), yagu1 (ID: 17027609/0x0103D219)], work=857*
  7: 0x03BC [0x00] END_REQSTACK()
```

### Event 65535.41

#### Metadata

| Field        | Value    |
|--------------|----------|
| Entrypoint   | 0x03BD   |
| Data Size    | 42 bytes |
| Instructions | 8        |

```
      00 01 02 03 04 05 06 07  08 09 0A 0B 0C 0D 0E 0F
      -- -- -- -- -- -- -- --  -- -- -- -- -- -- -- --
03B0:                                         1F 00 64               ..d
03C0: 80 65 80 66 80 1F 01 6F  4A 1A D2 03 01 F8 D1 03  .e.f...oJ.......
03D0: 01 6F 76 1A D2 03 01 5B  63 80 1A D2 03 01 1A D2  .ov....[c.......
03E0: 03 01 32 68 73 30 00                              ..2hs0.         
```

#### Opcodes

```
  0: 0x03BD [0x1F] MOVE_ENTITY: EventEntity moves to X=-599.775*, Z=-364.671*, Y=-16.090*
  1: 0x03C5 [0x1F] MOVE_ENTITY: Update entity position (mode=1)
  2: 0x03C7 [0x6F] WAIT_FRAME_DELAY: Yield until WaitTime reaches zero
  3: 0x03C8 [0x4A] yagu2 (ID: 17027610/0x0103D21A) looks at Shayeeha (ID: 17027576/0x0103D1F8)
  4: 0x03D1 [0x6F] WAIT_FRAME_DELAY: Yield until WaitTime reaches zero
  5: 0x03D2 [0x76] CHECK_ENTITY_RENDER_FLAGS: Wait until yagu2 (ID: 17027610/0x0103D21A) Render.Flags0 and Render.Flags3 conditions are met
  6: 0x03D7 [0x5B] LOAD_EXT_SCHEDULER: Load scheduler "2hs0" with entities [yagu2 (ID: 17027610/0x0103D21A), yagu2 (ID: 17027610/0x0103D21A)], work=857*
  7: 0x03E6 [0x00] END_REQSTACK()
```

### Event 65535.42

#### Metadata

| Field        | Value    |
|--------------|----------|
| Entrypoint   | 0x03E7   |
| Data Size    | 42 bytes |
| Instructions | 8        |

```
      00 01 02 03 04 05 06 07  08 09 0A 0B 0C 0D 0E 0F
      -- -- -- -- -- -- -- --  -- -- -- -- -- -- -- --
03E0:                      1F  00 67 80 68 80 69 80 1F         ..g.h.i..
03F0: 01 6F 4A 1B D2 03 01 F8  D1 03 01 6F 76 1B D2 03  .oJ........ov...
0400: 01 5B 63 80 1B D2 03 01  1B D2 03 01 73 74 66 31  .[c.........stf1
0410: 00                                                .               
```

#### Opcodes

```
  0: 0x03E7 [0x1F] MOVE_ENTITY: EventEntity moves to X=-599.352*, Z=-367.440*, Y=-16.434*
  1: 0x03EF [0x1F] MOVE_ENTITY: Update entity position (mode=1)
  2: 0x03F1 [0x6F] WAIT_FRAME_DELAY: Yield until WaitTime reaches zero
  3: 0x03F2 [0x4A] yagu3 (ID: 17027611/0x0103D21B) looks at Shayeeha (ID: 17027576/0x0103D1F8)
  4: 0x03FB [0x6F] WAIT_FRAME_DELAY: Yield until WaitTime reaches zero
  5: 0x03FC [0x76] CHECK_ENTITY_RENDER_FLAGS: Wait until yagu3 (ID: 17027611/0x0103D21B) Render.Flags0 and Render.Flags3 conditions are met
  6: 0x0401 [0x5B] LOAD_EXT_SCHEDULER: Load scheduler "stf1" with entities [yagu3 (ID: 17027611/0x0103D21B), yagu3 (ID: 17027611/0x0103D21B)], work=857*
  7: 0x0410 [0x00] END_REQSTACK()
```

### Event 65535.43

#### Metadata

| Field        | Value    |
|--------------|----------|
| Entrypoint   | 0x0411   |
| Data Size    | 42 bytes |
| Instructions | 8        |

```
      00 01 02 03 04 05 06 07  08 09 0A 0B 0C 0D 0E 0F
      -- -- -- -- -- -- -- --  -- -- -- -- -- -- -- --
0410:    1F 00 6A 80 6B 80 6C  80 1F 01 6F 4A 1C D2 03   ..j.k.l...oJ...
0420: 01 F8 D1 03 01 6F 76 1C  D2 03 01 5B 63 80 1C D2  .....ov....[c...
0430: 03 01 1C D2 03 01 77 6E  64 31 00                 ......wnd1.     
```

#### Opcodes

```
  0: 0x0411 [0x1F] MOVE_ENTITY: EventEntity moves to X=-597.857*, Z=-365.687*, Y=-16.216*
  1: 0x0419 [0x1F] MOVE_ENTITY: Update entity position (mode=1)
  2: 0x041B [0x6F] WAIT_FRAME_DELAY: Yield until WaitTime reaches zero
  3: 0x041C [0x4A] yagu4 (ID: 17027612/0x0103D21C) looks at Shayeeha (ID: 17027576/0x0103D1F8)
  4: 0x0425 [0x6F] WAIT_FRAME_DELAY: Yield until WaitTime reaches zero
  5: 0x0426 [0x76] CHECK_ENTITY_RENDER_FLAGS: Wait until yagu4 (ID: 17027612/0x0103D21C) Render.Flags0 and Render.Flags3 conditions are met
  6: 0x042B [0x5B] LOAD_EXT_SCHEDULER: Load scheduler "wnd1" with entities [yagu4 (ID: 17027612/0x0103D21C), yagu4 (ID: 17027612/0x0103D21C)], work=857*
  7: 0x043A [0x00] END_REQSTACK()
```

### Event 65535.44

#### Metadata

| Field        | Value    |
|--------------|----------|
| Entrypoint   | 0x043B   |
| Data Size    | 42 bytes |
| Instructions | 8        |

```
      00 01 02 03 04 05 06 07  08 09 0A 0B 0C 0D 0E 0F
      -- -- -- -- -- -- -- --  -- -- -- -- -- -- -- --
0430:                                   1F 00 6D 80 6E             ..m.n
0440: 80 6F 80 1F 01 6F 4A 1D  D2 03 01 F8 D1 03 01 6F  .o...oJ........o
0450: 76 1D D2 03 01 5B 63 80  1D D2 03 01 1D D2 03 01  v....[c.........
0460: 32 68 73 30 00                                    2hs0.           
```

#### Opcodes

```
  0: 0x043B [0x1F] MOVE_ENTITY: EventEntity moves to X=-577.688*, Z=-361.626*, Y=-10.691*
  1: 0x0443 [0x1F] MOVE_ENTITY: Update entity position (mode=1)
  2: 0x0445 [0x6F] WAIT_FRAME_DELAY: Yield until WaitTime reaches zero
  3: 0x0446 [0x4A] yagu5 (ID: 17027613/0x0103D21D) looks at Shayeeha (ID: 17027576/0x0103D1F8)
  4: 0x044F [0x6F] WAIT_FRAME_DELAY: Yield until WaitTime reaches zero
  5: 0x0450 [0x76] CHECK_ENTITY_RENDER_FLAGS: Wait until yagu5 (ID: 17027613/0x0103D21D) Render.Flags0 and Render.Flags3 conditions are met
  6: 0x0455 [0x5B] LOAD_EXT_SCHEDULER: Load scheduler "2hs0" with entities [yagu5 (ID: 17027613/0x0103D21D), yagu5 (ID: 17027613/0x0103D21D)], work=857*
  7: 0x0464 [0x00] END_REQSTACK()
```

### Event 65535.45

#### Metadata

| Field        | Value    |
|--------------|----------|
| Entrypoint   | 0x0465   |
| Data Size    | 42 bytes |
| Instructions | 8        |

```
      00 01 02 03 04 05 06 07  08 09 0A 0B 0C 0D 0E 0F
      -- -- -- -- -- -- -- --  -- -- -- -- -- -- -- --
0460:                1F 00 70  80 71 80 72 80 1F 01 6F       ..p.q.r...o
0470: 4A 1E D2 03 01 F8 D1 03  01 6F 76 1E D2 03 01 5B  J........ov....[
0480: 63 80 1E D2 03 01 1E D2  03 01 6B 74 6E 30 00     c.........ktn0. 
```

#### Opcodes

```
  0: 0x0465 [0x1F] MOVE_ENTITY: EventEntity moves to X=-574.861*, Z=-362.548*, Y=-10.000*
  1: 0x046D [0x1F] MOVE_ENTITY: Update entity position (mode=1)
  2: 0x046F [0x6F] WAIT_FRAME_DELAY: Yield until WaitTime reaches zero
  3: 0x0470 [0x4A] yagu6 (ID: 17027614/0x0103D21E) looks at Shayeeha (ID: 17027576/0x0103D1F8)
  4: 0x0479 [0x6F] WAIT_FRAME_DELAY: Yield until WaitTime reaches zero
  5: 0x047A [0x76] CHECK_ENTITY_RENDER_FLAGS: Wait until yagu6 (ID: 17027614/0x0103D21E) Render.Flags0 and Render.Flags3 conditions are met
  6: 0x047F [0x5B] LOAD_EXT_SCHEDULER: Load scheduler "ktn0" with entities [yagu6 (ID: 17027614/0x0103D21E), yagu6 (ID: 17027614/0x0103D21E)], work=857*
  7: 0x048E [0x00] END_REQSTACK()
```

### Event 65535.46

#### Metadata

| Field        | Value    |
|--------------|----------|
| Entrypoint   | 0x048F   |
| Data Size    | 42 bytes |
| Instructions | 8        |

```
      00 01 02 03 04 05 06 07  08 09 0A 0B 0C 0D 0E 0F
      -- -- -- -- -- -- -- --  -- -- -- -- -- -- -- --
0480:                                               1F                 .
0490: 00 73 80 74 80 72 80 1F  01 6F 4A 1F D2 03 01 F8  .s.t.r...oJ.....
04A0: D1 03 01 6F 76 1F D2 03  01 5B 63 80 1F D2 03 01  ...ov....[c.....
04B0: 1F D2 03 01 73 74 66 30  00                       ....stf0.       
```

#### Opcodes

```
  0: 0x048F [0x1F] MOVE_ENTITY: EventEntity moves to X=-573.326*, Z=-360.527*, Y=-10.000*
  1: 0x0497 [0x1F] MOVE_ENTITY: Update entity position (mode=1)
  2: 0x0499 [0x6F] WAIT_FRAME_DELAY: Yield until WaitTime reaches zero
  3: 0x049A [0x4A] yagu7 (ID: 17027615/0x0103D21F) looks at Shayeeha (ID: 17027576/0x0103D1F8)
  4: 0x04A3 [0x6F] WAIT_FRAME_DELAY: Yield until WaitTime reaches zero
  5: 0x04A4 [0x76] CHECK_ENTITY_RENDER_FLAGS: Wait until yagu7 (ID: 17027615/0x0103D21F) Render.Flags0 and Render.Flags3 conditions are met
  6: 0x04A9 [0x5B] LOAD_EXT_SCHEDULER: Load scheduler "stf0" with entities [yagu7 (ID: 17027615/0x0103D21F), yagu7 (ID: 17027615/0x0103D21F)], work=857*
  7: 0x04B8 [0x00] END_REQSTACK()
```

### Event 65535.47

#### Metadata

| Field        | Value    |
|--------------|----------|
| Entrypoint   | 0x04B9   |
| Data Size    | 42 bytes |
| Instructions | 8        |

```
      00 01 02 03 04 05 06 07  08 09 0A 0B 0C 0D 0E 0F
      -- -- -- -- -- -- -- --  -- -- -- -- -- -- -- --
04B0:                             1F 00 75 80 76 80 72           ..u.v.r
04C0: 80 1F 01 6F 4A 20 D2 03  01 F8 D1 03 01 6F 76 20  ...oJ .......ov 
04D0: D2 03 01 5B 63 80 20 D2  03 01 20 D2 03 01 6B 74  ...[c. ... ...kt
04E0: 6E 30 00                                          n0.             
```

#### Opcodes

```
  0: 0x04B9 [0x1F] MOVE_ENTITY: EventEntity moves to X=-572.352*, Z=-363.753*, Y=-10.000*
  1: 0x04C1 [0x1F] MOVE_ENTITY: Update entity position (mode=1)
  2: 0x04C3 [0x6F] WAIT_FRAME_DELAY: Yield until WaitTime reaches zero
  3: 0x04C4 [0x4A] yagu8 (ID: 17027616/0x0103D220) looks at Shayeeha (ID: 17027576/0x0103D1F8)
  4: 0x04CD [0x6F] WAIT_FRAME_DELAY: Yield until WaitTime reaches zero
  5: 0x04CE [0x76] CHECK_ENTITY_RENDER_FLAGS: Wait until yagu8 (ID: 17027616/0x0103D220) Render.Flags0 and Render.Flags3 conditions are met
  6: 0x04D3 [0x5B] LOAD_EXT_SCHEDULER: Load scheduler "ktn0" with entities [yagu8 (ID: 17027616/0x0103D220), yagu8 (ID: 17027616/0x0103D220)], work=857*
  7: 0x04E2 [0x00] END_REQSTACK()
```

### Event 65535.48

#### Metadata

| Field        | Value    |
|--------------|----------|
| Entrypoint   | 0x04E3   |
| Data Size    | 12 bytes |
| Instructions | 4        |

```
      00 01 02 03 04 05 06 07  08 09 0A 0B 0C 0D 0E 0F
      -- -- -- -- -- -- -- --  -- -- -- -- -- -- -- --
04E0:          1F 00 77 80 78  80 79 80 1F 01 6F 00        ..w.x.y...o. 
```

#### Opcodes

```
  0: 0x04E3 [0x1F] MOVE_ENTITY: EventEntity moves to X=-623.721*, Z=-410.743*, Y=-18.785*
  1: 0x04EB [0x1F] MOVE_ENTITY: Update entity position (mode=1)
  2: 0x04ED [0x6F] WAIT_FRAME_DELAY: Yield until WaitTime reaches zero
  3: 0x04EE [0x00] END_REQSTACK()
```

### Event 65535.49

#### Metadata

| Field        | Value    |
|--------------|----------|
| Entrypoint   | 0x04EF   |
| Data Size    | 12 bytes |
| Instructions | 4        |

```
      00 01 02 03 04 05 06 07  08 09 0A 0B 0C 0D 0E 0F
      -- -- -- -- -- -- -- --  -- -- -- -- -- -- -- --
04E0:                                               1F                 .
04F0: 00 7A 80 7B 80 7C 80 1F  01 6F 00                 .z.{.|...o.     
```

#### Opcodes

```
  0: 0x04EF [0x1F] MOVE_ENTITY: EventEntity moves to X=-622.123*, Z=-410.979*, Y=-18.734*
  1: 0x04F7 [0x1F] MOVE_ENTITY: Update entity position (mode=1)
  2: 0x04F9 [0x6F] WAIT_FRAME_DELAY: Yield until WaitTime reaches zero
  3: 0x04FA [0x00] END_REQSTACK()
```

### Event 65535.50

#### Metadata

| Field        | Value    |
|--------------|----------|
| Entrypoint   | 0x04FB   |
| Data Size    | 12 bytes |
| Instructions | 4        |

```
      00 01 02 03 04 05 06 07  08 09 0A 0B 0C 0D 0E 0F
      -- -- -- -- -- -- -- --  -- -- -- -- -- -- -- --
04F0:                                   1F 00 7D 80 7E             ..}.~
0500: 80 7F 80 1F 01 6F 00                              .....o.         
```

#### Opcodes

```
  0: 0x04FB [0x1F] MOVE_ENTITY: EventEntity moves to X=-625.527*, Z=-413.336*, Y=-18.338*
  1: 0x0503 [0x1F] MOVE_ENTITY: Update entity position (mode=1)
  2: 0x0505 [0x6F] WAIT_FRAME_DELAY: Yield until WaitTime reaches zero
  3: 0x0506 [0x00] END_REQSTACK()
```

### Event 65535.51

#### Metadata

| Field        | Value    |
|--------------|----------|
| Entrypoint   | 0x0507   |
| Data Size    | 12 bytes |
| Instructions | 4        |

```
      00 01 02 03 04 05 06 07  08 09 0A 0B 0C 0D 0E 0F
      -- -- -- -- -- -- -- --  -- -- -- -- -- -- -- --
0500:                      1F  00 80 80 81 80 82 80 1F         .........
0510: 01 6F 00                                          .o.             
```

#### Opcodes

```
  0: 0x0507 [0x1F] MOVE_ENTITY: EventEntity moves to X=-623.938*, Z=-416.048*, Y=-18.001*
  1: 0x050F [0x1F] MOVE_ENTITY: Update entity position (mode=1)
  2: 0x0511 [0x6F] WAIT_FRAME_DELAY: Yield until WaitTime reaches zero
  3: 0x0512 [0x00] END_REQSTACK()
```

### Event 65535.52

#### Metadata

| Field        | Value    |
|--------------|----------|
| Entrypoint   | 0x0513   |
| Data Size    | 30 bytes |
| Instructions | 8        |

```
      00 01 02 03 04 05 06 07  08 09 0A 0B 0C 0D 0E 0F
      -- -- -- -- -- -- -- --  -- -- -- -- -- -- -- --
0510:          1F 00 83 80 84  80 85 80 1F 01 6F 4A 1F     ..........oJ.
0520: D2 03 01 F8 D1 03 01 6F  76 1F D2 03 01 1C 86 80  .......ov.......
0530: 00                                                .               
```

#### Opcodes

```
  0: 0x0513 [0x1F] MOVE_ENTITY: EventEntity moves to X=-607.016*, Z=-368.770*, Y=-16.936*
  1: 0x051B [0x1F] MOVE_ENTITY: Update entity position (mode=1)
  2: 0x051D [0x6F] WAIT_FRAME_DELAY: Yield until WaitTime reaches zero
  3: 0x051E [0x4A] yagu7 (ID: 17027615/0x0103D21F) looks at Shayeeha (ID: 17027576/0x0103D1F8)
  4: 0x0527 [0x6F] WAIT_FRAME_DELAY: Yield until WaitTime reaches zero
  5: 0x0528 [0x76] CHECK_ENTITY_RENDER_FLAGS: Wait until yagu7 (ID: 17027615/0x0103D21F) Render.Flags0 and Render.Flags3 conditions are met
  6: 0x052D [0x1C] WAIT(3* ticks)
  7: 0x0530 [0x00] END_REQSTACK()
```

### Event 65535.53

#### Metadata

| Field        | Value    |
|--------------|----------|
| Entrypoint   | 0x0531   |
| Data Size    | 27 bytes |
| Instructions | 5        |

```
      00 01 02 03 04 05 06 07  08 09 0A 0B 0C 0D 0E 0F
      -- -- -- -- -- -- -- --  -- -- -- -- -- -- -- --
0530:    1F 00 87 80 88 80 89  80 1F 01 6F 5B 63 80 1F   ..........o[c..
0540: D2 03 01 1F D2 03 01 73  74 66 31 00              .......stf1.    
```

#### Opcodes

```
  0: 0x0531 [0x1F] MOVE_ENTITY: EventEntity moves to X=-609.854*, Z=-377.254*, Y=-18.000*
  1: 0x0539 [0x1F] MOVE_ENTITY: Update entity position (mode=1)
  2: 0x053B [0x6F] WAIT_FRAME_DELAY: Yield until WaitTime reaches zero
  3: 0x053C [0x5B] LOAD_EXT_SCHEDULER: Load scheduler "stf1" with entities [yagu7 (ID: 17027615/0x0103D21F), yagu7 (ID: 17027615/0x0103D21F)], work=857*
  4: 0x054B [0x00] END_REQSTACK()
```

### Event 65535.54

#### Metadata

| Field        | Value    |
|--------------|----------|
| Entrypoint   | 0x054C   |
| Data Size    | 27 bytes |
| Instructions | 7        |

```
      00 01 02 03 04 05 06 07  08 09 0A 0B 0C 0D 0E 0F
      -- -- -- -- -- -- -- --  -- -- -- -- -- -- -- --
0540:                                      1F 00 8A 80              ....
0550: 8B 80 89 80 1F 01 6F 4A  F7 D1 03 01 F8 D1 03 01  ......oJ........
0560: 6F 76 F7 D1 03 01 00                              ov.....         
```

#### Opcodes

```
  0: 0x054C [0x1F] MOVE_ENTITY: EventEntity moves to X=-611.981*, Z=-379.540*, Y=-18.000*
  1: 0x0554 [0x1F] MOVE_ENTITY: Update entity position (mode=1)
  2: 0x0556 [0x6F] WAIT_FRAME_DELAY: Yield until WaitTime reaches zero
  3: 0x0557 [0x4A] Gadalar (ID: 17027575/0x0103D1F7) looks at Shayeeha (ID: 17027576/0x0103D1F8)
  4: 0x0560 [0x6F] WAIT_FRAME_DELAY: Yield until WaitTime reaches zero
  5: 0x0561 [0x76] CHECK_ENTITY_RENDER_FLAGS: Wait until Gadalar (ID: 17027575/0x0103D1F7) Render.Flags0 and Render.Flags3 conditions are met
  6: 0x0566 [0x00] END_REQSTACK()
```

### Event 65535.55

#### Metadata

| Field        | Value    |
|--------------|----------|
| Entrypoint   | 0x0567   |
| Data Size    | 12 bytes |
| Instructions | 4        |

```
      00 01 02 03 04 05 06 07  08 09 0A 0B 0C 0D 0E 0F
      -- -- -- -- -- -- -- --  -- -- -- -- -- -- -- --
0560:                      1F  00 8C 80 8D 80 89 80 1F         .........
0570: 01 6F 00                                          .o.             
```

#### Opcodes

```
  0: 0x0567 [0x1F] MOVE_ENTITY: EventEntity moves to X=-612.804*, Z=-377.529*, Y=-18.000*
  1: 0x056F [0x1F] MOVE_ENTITY: Update entity position (mode=1)
  2: 0x0571 [0x6F] WAIT_FRAME_DELAY: Yield until WaitTime reaches zero
  3: 0x0572 [0x00] END_REQSTACK()
```
