# 17027600 - hei09

## Common Data

| Field            | Value                  |
|------------------|------------------------|
| Zone             | Mount Zhayolm (ID: 61) |
| Block Size       | 116 bytes              |
| Total Events     | 4                      |
| References Count | 7                      |

## List of Events

| Event ID                 | Entrypoint   |   Size |   Instructions |
|--------------------------|--------------|--------|----------------|
| [65535](#event-65535)    | 0x0000       |      1 |              1 |
| [16](#event-16)          | 0x0001       |      1 |              1 |
| [65535.1](#event-655351) | 0x0002       |     19 |              4 |
| [65535.2](#event-655352) | 0x0015       |     34 |              7 |

## DAT References (imed_data)

|   Index | Hex Value   |   Dec Value |
|---------|-------------|-------------|
|       0 | 0x000C      |          12 |
|       1 | 0xC828A     |      819850 |
|       2 | 0x32C80     |      208000 |
|       3 | 0xFFFFBB07  |  4294949639 |
|       4 | 0xC63A0     |      811936 |
|       5 | 0x38B09     |      232201 |
|       6 | 0xFFFFC923  |  4294953251 |

## Events

### Event 65535

#### Metadata

| Field        | Value   |
|--------------|---------|
| Entrypoint   | 0x0000  |
| Data Size    | 1 bytes |
| Instructions | 1       |

```
      00 01 02 03 04 05 06 07  08 09 0A 0B 0C 0D 0E 0F
      -- -- -- -- -- -- -- --  -- -- -- -- -- -- -- --
0000: 00                                                .               
```

#### Opcodes

```
  0: 0x0000 [0x00] END_REQSTACK()
```

### Event 16

#### Metadata

| Field        | Value   |
|--------------|---------|
| Entrypoint   | 0x0001  |
| Data Size    | 1 bytes |
| Instructions | 1       |

```
      00 01 02 03 04 05 06 07  08 09 0A 0B 0C 0D 0E 0F
      -- -- -- -- -- -- -- --  -- -- -- -- -- -- -- --
0000:    00                                              .              
```

#### Opcodes

```
  0: 0x0001 [0x00] END_REQSTACK()
```

### Event 65535.1

#### Metadata

| Field        | Value    |
|--------------|----------|
| Entrypoint   | 0x0002   |
| Data Size    | 19 bytes |
| Instructions | 4        |

```
      00 01 02 03 04 05 06 07  08 09 0A 0B 0C 0D 0E 0F
      -- -- -- -- -- -- -- --  -- -- -- -- -- -- -- --
0000:       59 04 10 D2 03 01  00 80 1F 00 01 80 02 80    Y.............
0010: 03 80 1F 01 00                                    .....           
```

#### Opcodes

```
  0: 0x0002 [0x59] UPDATE_ENTITY_DATA: Set hei09 (ID: 17027600/0x0103D210) main speed = 12* * 0.1
  1: 0x000A [0x1F] MOVE_ENTITY: EventEntity moves to X=819.850*, Z=208.000*, Y=-17.657*
  2: 0x0012 [0x1F] MOVE_ENTITY: Update entity position (mode=1)
  3: 0x0014 [0x00] END_REQSTACK()
```

### Event 65535.2

#### Metadata

| Field        | Value    |
|--------------|----------|
| Entrypoint   | 0x0015   |
| Data Size    | 34 bytes |
| Instructions | 7        |

```
      00 01 02 03 04 05 06 07  08 09 0A 0B 0C 0D 0E 0F
      -- -- -- -- -- -- -- --  -- -- -- -- -- -- -- --
0010:                59 04 10  D2 03 01 00 80 1F 00 04       Y..........
0020: 80 05 80 06 80 1F 01 6F  4A 10 D2 03 01 07 D2 03  .......oJ.......
0030: 01 7B 10 D2 03 01 00                              .{.....         
```

#### Opcodes

```
  0: 0x0015 [0x59] UPDATE_ENTITY_DATA: Set hei09 (ID: 17027600/0x0103D210) main speed = 12* * 0.1
  1: 0x001D [0x1F] MOVE_ENTITY: EventEntity moves to X=811.936*, Z=232.201*, Y=-14.045*
  2: 0x0025 [0x1F] MOVE_ENTITY: Update entity position (mode=1)
  3: 0x0027 [0x6F] WAIT_FRAME_DELAY: Yield until WaitTime reaches zero
  4: 0x0028 [0x4A] hei09 (ID: 17027600/0x0103D210) looks at ??? (ID: 17027591/0x0103D207)
  5: 0x0031 [0x7B] hei09 (ID: 17027600/0x0103D210) stops talking
  6: 0x0036 [0x00] END_REQSTACK()
```
