# 17027605 - fumetsu04

## Common Data

| Field            | Value                  |
|------------------|------------------------|
| Zone             | Mount Zhayolm (ID: 61) |
| Block Size       | 108 bytes              |
| Total Events     | 4                      |
| References Count | 5                      |

## List of Events

| Event ID                 | Entrypoint   |   Size |   Instructions |
|--------------------------|--------------|--------|----------------|
| [65535](#event-65535)    | 0x0000       |      1 |              1 |
| [16](#event-16)          | 0x0001       |      1 |              1 |
| [65535.1](#event-655351) | 0x0002       |     19 |              4 |
| [65535.2](#event-655352) | 0x0015       |     35 |              6 |

## DAT References (imed_data)

|   Index | Hex Value   |   Dec Value |
|---------|-------------|-------------|
|       0 | 0x000C      |          12 |
|       1 | 0xC792A     |      817450 |
|       2 | 0x33838     |      211000 |
|       3 | 0xFFFFB9E4  |  4294949348 |
|       4 | 0x035F      |         863 |

## Events

### Event 65535

#### Metadata

| Field        | Value   |
|--------------|---------|
| Entrypoint   | 0x0000  |
| Data Size    | 1 bytes |
| Instructions | 1       |

```
      00 01 02 03 04 05 06 07  08 09 0A 0B 0C 0D 0E 0F
      -- -- -- -- -- -- -- --  -- -- -- -- -- -- -- --
0000: 00                                                .               
```

#### Opcodes

```
  0: 0x0000 [0x00] END_REQSTACK()
```

### Event 16

#### Metadata

| Field        | Value   |
|--------------|---------|
| Entrypoint   | 0x0001  |
| Data Size    | 1 bytes |
| Instructions | 1       |

```
      00 01 02 03 04 05 06 07  08 09 0A 0B 0C 0D 0E 0F
      -- -- -- -- -- -- -- --  -- -- -- -- -- -- -- --
0000:    00                                              .              
```

#### Opcodes

```
  0: 0x0001 [0x00] END_REQSTACK()
```

### Event 65535.1

#### Metadata

| Field        | Value    |
|--------------|----------|
| Entrypoint   | 0x0002   |
| Data Size    | 19 bytes |
| Instructions | 4        |

```
      00 01 02 03 04 05 06 07  08 09 0A 0B 0C 0D 0E 0F
      -- -- -- -- -- -- -- --  -- -- -- -- -- -- -- --
0000:       59 04 15 D2 03 01  00 80 1F 00 01 80 02 80    Y.............
0010: 03 80 1F 01 00                                    .....           
```

#### Opcodes

```
  0: 0x0002 [0x59] UPDATE_ENTITY_DATA: Set fumetsu04 (ID: 17027605/0x0103D215) main speed = 12* * 0.1
  1: 0x000A [0x1F] MOVE_ENTITY: EventEntity moves to X=817.450*, Z=211.000*, Y=-17.948*
  2: 0x0012 [0x1F] MOVE_ENTITY: Update entity position (mode=1)
  3: 0x0014 [0x00] END_REQSTACK()
```

### Event 65535.2

#### Metadata

| Field        | Value    |
|--------------|----------|
| Entrypoint   | 0x0015   |
| Data Size    | 35 bytes |
| Instructions | 6        |

```
      00 01 02 03 04 05 06 07  08 09 0A 0B 0C 0D 0E 0F
      -- -- -- -- -- -- -- --  -- -- -- -- -- -- -- --
0010:                59 04 15  D2 03 01 00 80 1F 00 01       Y..........
0020: 80 02 80 03 80 1F 01 6F  5B 04 80 F8 FF FF 7F F8  .......o[.......
0030: FF FF 7F 61 73 74 30 00                           ...ast0.        
```

#### Opcodes

```
  0: 0x0015 [0x59] UPDATE_ENTITY_DATA: Set fumetsu04 (ID: 17027605/0x0103D215) main speed = 12* * 0.1
  1: 0x001D [0x1F] MOVE_ENTITY: EventEntity moves to X=817.450*, Z=211.000*, Y=-17.948*
  2: 0x0025 [0x1F] MOVE_ENTITY: Update entity position (mode=1)
  3: 0x0027 [0x6F] WAIT_FRAME_DELAY: Yield until WaitTime reaches zero
  4: 0x0028 [0x5B] LOAD_EXT_SCHEDULER: Load scheduler "ast0" with entities [EventEntity, EventEntity], work=863*
  5: 0x0037 [0x00] END_REQSTACK()
```
