# 17027590

## Common Data

| Field            | Value                  |
|------------------|------------------------|
| Zone             | Mount Zhayolm (ID: 61) |
| Block Size       | 13344 bytes            |
| Total Events     | 3                      |
| References Count | 295                    |

## List of Events

| Event ID              | Entrypoint   |   Size |   Instructions |
|-----------------------|--------------|--------|----------------|
| [65535](#event-65535) | 0x0000       |      1 |              1 |
| [15](#event-15)       | 0x0001       |   2024 |            243 |
| [16](#event-16)       | 0x07E9       |  10110 |           1243 |

## DAT References (imed_data)

|   Index | Hex Value   |   Dec Value |
|---------|-------------|-------------|
|       0 | 0x00C8      |         200 |
|       1 | 0x0000      |           0 |
|       2 | 0x0013      |          19 |
|       3 | 0xD9683     |      890499 |
|       4 | 0x2C6A4     |      181924 |
|       5 | 0xFFFFDBD4  |  4294958036 |
|       6 | 0x0514      |        1300 |
|       7 | 0xD7BB4     |      883636 |
|       8 | 0x2BBF1     |      179185 |
|       9 | 0xFFFFDD26  |  4294958374 |
|      10 | 0x0C1C      |        3100 |
|      11 | 0x0031      |          49 |
|      12 | 0x003C      |          60 |
|      13 | 0x01B6      |         438 |
|      14 | 0x0078      |         120 |
|      15 | 0x1DAF      |        7599 |
|      16 | 0x002D      |          45 |
|      17 | 0x0014      |          20 |
|      18 | 0xD7662     |      882274 |
|      19 | 0x2CC8B     |      183435 |
|      20 | 0xFFFFDE87  |  4294958727 |
|      21 | 0x0E5B      |        3675 |
|      22 | 0x00A0      |         160 |
|      23 | 0x0032      |          50 |
|      24 | 0x0028      |          40 |
|      25 | 0x1DB0      |        7600 |
|      26 | 0x001E      |          30 |
|      27 | 0x001A      |          26 |
|      28 | 0x0064      |         100 |
|      29 | 0xDD7C9     |      907209 |
|      30 | 0x2C084     |      180356 |
|      31 | 0xFFFFE3B1  |  4294960049 |
|      32 | 0x079A      |        1946 |
|      33 | 0x001B      |          27 |
|      34 | 0xD5DE9     |      876009 |
|      35 | 0x2C122     |      180514 |
|      36 | 0xFFFFDF60  |  4294958944 |
|      37 | 0x0820      |        2080 |
|      38 | 0x0ED8      |        3800 |
|      39 | 0x1DB1      |        7601 |
|      40 | 0x000A      |          10 |
|      41 | 0x0C80      |        3200 |
|      42 | 0x00FA      |         250 |
|      43 | 0x1DB2      |        7602 |
|      44 | 0x0096      |         150 |
|      45 | 0xD7DD8     |      884184 |
|      46 | 0x2C7A0     |      182176 |
|      47 | 0xFFFFDE3B  |  4294958651 |
|      48 | 0x0809      |        2057 |
|      49 | 0x00F0      |         240 |
|      50 | 0xD38C2     |      866498 |
|      51 | 0x2BD0E     |      179470 |
|      52 | 0xFFFFD693  |  4294956691 |
|      53 | 0x1DB3      |        7603 |
|      54 | 0x0005      |           5 |
|      55 | 0x0682      |        1666 |
|      56 | 0x1DB4      |        7604 |
|      57 | 0x002A      |          42 |
|      58 | 0x1DB5      |        7605 |
|      59 | 0x000F      |          15 |
|      60 | 0xD7272     |      881266 |
|      61 | 0x2BAC6     |      178886 |
|      62 | 0xFFFFE068  |  4294959208 |
|      63 | 0x113B      |        4411 |
|      64 | 0x1DB6      |        7606 |
|      65 | 0x1DB7      |        7607 |
|      66 | 0x0AA9      |        2729 |
|      67 | 0x1DB8      |        7608 |
|      68 | 0x1DB9      |        7609 |
|      69 | 0x0007      |           7 |
|      70 | 0xC8970     |      821616 |
|      71 | 0x37352     |      226130 |
|      72 | 0xFFFFC8C6  |  4294953158 |
|      73 | 0x0CE4      |        3300 |
|      74 | 0xC8E6A     |      822890 |
|      75 | 0x3696B     |      223595 |
|      76 | 0xFFFFC710  |  4294952720 |
|      77 | 0x0008      |           8 |
|      78 | 0x0009      |           9 |
|      79 | 0x0003      |           3 |
|      80 | 0x0C54      |        3156 |
|      81 | 0x1DBA      |        7610 |
|      82 | 0x0FE7      |        4071 |
|      83 | 0x1DBB      |        7611 |
|      84 | 0x1DBC      |        7612 |
|      85 | 0xC7CB9     |      818361 |
|      86 | 0x378F7     |      227575 |
|      87 | 0xFFFFC9E6  |  4294953446 |
|      88 | 0x0F2B      |        3883 |
|      89 | 0x0490      |        1168 |
|      90 | 0x008E      |         142 |
|      91 | 0x005A      |          90 |
|      92 | 0x1DBD      |        7613 |
|      93 | 0x0A60      |        2656 |
|      94 | 0x0015      |          21 |
|      95 | 0x044C      |        1100 |
|      96 | 0x0082      |         130 |
|      97 | 0x1DBE      |        7614 |
|      98 | 0x1DBF      |        7615 |
|      99 | 0x1DC0      |        7616 |
|     100 | 0x1DC1      |        7617 |
|     101 | 0x0050      |          80 |
|     102 | 0x1DC2      |        7618 |
|     103 | 0x1DC3      |        7619 |
|     104 | 0x00AF      |         175 |
|     105 | 0x001D      |          29 |
|     106 | 0x0041      |          65 |
|     107 | 0x1DC4      |        7620 |
|     108 | 0x00C9      |         201 |
|     109 | 0x1DC5      |        7621 |
|     110 | 0x0320      |         800 |
|     111 | 0x0B28      |        2856 |
|     112 | 0xC4E62     |      806498 |
|     113 | 0x3CD47     |      249159 |
|     114 | 0xFFFFC411  |  4294951953 |
|     115 | 0xC68C4     |      813252 |
|     116 | 0x3BCC3     |      244931 |
|     117 | 0xFFFFC7AB  |  4294952875 |
|     118 | 0x0640      |        1600 |
|     119 | 0xC384F     |      800847 |
|     120 | 0x3B41C     |      242716 |
|     121 | 0xFFFFC950  |  4294953296 |
|     122 | 0x03E8      |        1000 |
|     123 | 0xC56F1     |      808689 |
|     124 | 0x3ACF6     |      240886 |
|     125 | 0xFFFFC9AD  |  4294953389 |
|     126 | 0x0960      |        2400 |
|     127 | 0xC5A10     |      809488 |
|     128 | 0x39736     |      235318 |
|     129 | 0xFFFFC986  |  4294953350 |
|     130 | 0x02BC      |         700 |
|     131 | 0xC4458     |      803928 |
|     132 | 0x3A6C1     |      239297 |
|     133 | 0xFFFFC944  |  4294953284 |
|     134 | 0xC40F7     |      803063 |
|     135 | 0x3EAF6     |      256758 |
|     136 | 0xFFFFBC4C  |  4294949964 |
|     137 | 0x0BB8      |        3000 |
|     138 | 0xC5BCA     |      809930 |
|     139 | 0x3C457     |      246871 |
|     140 | 0xFFFFC640  |  4294952512 |
|     141 | 0x0A8C      |        2700 |
|     142 | 0xC34A9     |      799913 |
|     143 | 0x3B91B     |      243995 |
|     144 | 0xFFFFC94C  |  4294953292 |
|     145 | 0xC5D81     |      810369 |
|     146 | 0x39691     |      235153 |
|     147 | 0xFFFFC9B5  |  4294953397 |
|     148 | 0x1E99      |        7833 |
|     149 | 0x1DC6      |        7622 |
|     150 | 0x1010      |        4112 |
|     151 | 0x1DC7      |        7623 |
|     152 | 0x1DC8      |        7624 |
|     153 | 0x0021      |          33 |
|     154 | 0x1DC9      |        7625 |
|     155 | 0x015E      |         350 |
|     156 | 0x0026      |          38 |
|     157 | 0x1DCA      |        7626 |
|     158 | 0x007F      |         127 |
|     159 | 0x1DCB      |        7627 |
|     160 | 0x1DCC      |        7628 |
|     161 | 0xC8E96     |      822934 |
|     162 | 0x3652B     |      222507 |
|     163 | 0xFFFFC698  |  4294952600 |
|     164 | 0xC809E     |      819358 |
|     165 | 0x36223     |      221731 |
|     166 | 0xFFFFC693  |  4294952595 |
|     167 | 0xC902D     |      823341 |
|     168 | 0x35FF9     |      221177 |
|     169 | 0xFFFFC602  |  4294952450 |
|     170 | 0xC86EE     |      820974 |
|     171 | 0x3642B     |      222251 |
|     172 | 0xFFFFC71B  |  4294952731 |
|     173 | 0xC8101     |      819457 |
|     174 | 0x369C6     |      223686 |
|     175 | 0xFFFFC769  |  4294952809 |
|     176 | 0xC7B90     |      818064 |
|     177 | 0x364EF     |      222447 |
|     178 | 0xFFFFC5D8  |  4294952408 |
|     179 | 0xC8850     |      821328 |
|     180 | 0x369A6     |      223654 |
|     181 | 0x0002      |           2 |
|     182 | 0x0001      |           1 |
|     183 | 0x1DCD      |        7629 |
|     184 | 0x01FE      |         510 |
|     185 | 0x1DCE      |        7630 |
|     186 | 0xC60B2     |      811186 |
|     187 | 0x39613     |      235027 |
|     188 | 0xFFFFC9E3  |  4294953443 |
|     189 | 0x06CC      |        1740 |
|     190 | 0x1DCF      |        7631 |
|     191 | 0x1DD1      |        7633 |
|     192 | 0x0027      |          39 |
|     193 | 0x1DD2      |        7634 |
|     194 | 0x1DD0      |        7632 |
|     195 | 0x0168      |         360 |
|     196 | 0x022F      |         559 |
|     197 | 0x00FF      |         255 |
|     198 | 0xFFFFF67A  |  4294964858 |
|     199 | 0xFFFF97FE  |  4294940670 |
|     200 | 0xFFFF91BE  |  4294939070 |
|     201 | 0x0723      |        1827 |
|     202 | 0xFFFF956E  |  4294940014 |
|     203 | 0x07D0      |        2000 |
|     204 | 0x0190      |         400 |
|     205 | 0xFFFF8815  |  4294936597 |
|     206 | 0x0C87      |        3207 |
|     207 | 0xFFFFFBB4  |  4294966196 |
|     208 | 0xFFFFF5D8  |  4294964696 |
|     209 | 0xFFFFEFFC  |  4294963196 |
|     210 | 0xFFFFA434  |  4294943796 |
|     211 | 0x02CF      |         719 |
|     212 | 0x035F      |         863 |
|     213 | 0x007B      |         123 |
|     214 | 0x1DD3      |        7635 |
|     215 | 0x1DD4      |        7636 |
|     216 | 0x1DD5      |        7637 |
|     217 | 0x1DD6      |        7638 |
|     218 | 0x1DD7      |        7639 |
|     219 | 0x1DD8      |        7640 |
|     220 | 0x1DD9      |        7641 |
|     221 | 0x0016      |          22 |
|     222 | 0x1DDA      |        7642 |
|     223 | 0x1DDB      |        7643 |
|     224 | 0x1DDC      |        7644 |
|     225 | 0x1DDD      |        7645 |
|     226 | 0x1DDE      |        7646 |
|     227 | 0x0004      |           4 |
|     228 | 0x0006      |           6 |
|     229 | 0x1DDF      |        7647 |
|     230 | 0x1DE0      |        7648 |
|     231 | 0x1DE1      |        7649 |
|     232 | 0x0029      |          41 |
|     233 | 0x1DE2      |        7650 |
|     234 | 0x1DE3      |        7651 |
|     235 | 0x1DE4      |        7652 |
|     236 | 0x1DE5      |        7653 |
|     237 | 0x1DE6      |        7654 |
|     238 | 0x1DE7      |        7655 |
|     239 | 0x1DE8      |        7656 |
|     240 | 0x1DE9      |        7657 |
|     241 | 0x0023      |          35 |
|     242 | 0x1DEA      |        7658 |
|     243 | 0x1DEB      |        7659 |
|     244 | 0x1DEC      |        7660 |
|     245 | 0x1DED      |        7661 |
|     246 | 0x1DEE      |        7662 |
|     247 | 0x1DEF      |        7663 |
|     248 | 0x1DF0      |        7664 |
|     249 | 0x1DF1      |        7665 |
|     250 | 0x038C      |         908 |
|     251 | 0xFFFF8842  |  4294936642 |
|     252 | 0x03F2      |        1010 |
|     253 | 0xFFFFFC74  |  4294966388 |
|     254 | 0x1014      |        4116 |
|     255 | 0xFFFFB73F  |  4294948671 |
|     256 | 0x047E      |        1150 |
|     257 | 0xFFFFF254  |  4294963796 |
|     258 | 0xFFFF777C  |  4294932348 |
|     259 | 0xFFFF5FB7  |  4294926263 |
|     260 | 0xFFFF488C  |  4294920332 |
|     261 | 0xFFFF31CA  |  4294914506 |
|     262 | 0x0DAC      |        3500 |
|     263 | 0x00E6      |         230 |
|     264 | 0x1DF2      |        7666 |
|     265 | 0x01F4      |         500 |
|     266 | 0x1DF3      |        7667 |
|     267 | 0x1DF4      |        7668 |
|     268 | 0x0020      |          32 |
|     269 | 0x1DF5      |        7669 |
|     270 | 0x0110      |         272 |
|     271 | 0x03E7      |         999 |
|     272 | 0x23EB6     |      147126 |
|     273 | 0xFFFFFB49  |  4294966089 |
|     274 | 0xFFFFF830  |  4294965296 |
|     275 | 0x07F2      |        2034 |
|     276 | 0x0311      |         785 |
|     277 | 0x24EF7     |      151287 |
|     278 | 0x0C2F      |        3119 |
|     279 | 0xFFFFF769  |  4294965097 |
|     280 | 0x0802      |        2050 |
|     281 | 0x24EC5     |      151237 |
|     282 | 0xFFFFF3B0  |  4294964144 |
|     283 | 0x07EE      |        2030 |
|     284 | 0x00B2      |         178 |
|     285 | 0x1DF6      |        7670 |
|     286 | 0x1DF7      |        7671 |
|     287 | 0x1DF8      |        7672 |
|     288 | 0x1DF9      |        7673 |
|     289 | 0x1DFA      |        7674 |
|     290 | 0x1DFB      |        7675 |
|     291 | 0x1DFC      |        7676 |
|     292 | 0x1DFD      |        7677 |
|     293 | 0x1DFE      |        7678 |
|     294 | 0x003D      |          61 |

## String References

- **7608**: Fari-Wari picked up $0.
- **7623**: Fari-Wari used $0.
- **7646**: Spill the beans on Gadalar? [Never./We have no choice.]
- **7833**: @@

## Events

### Event 65535

#### Metadata

| Field        | Value   |
|--------------|---------|
| Entrypoint   | 0x0000  |
| Data Size    | 1 bytes |
| Instructions | 1       |

```
      00 01 02 03 04 05 06 07  08 09 0A 0B 0C 0D 0E 0F
      -- -- -- -- -- -- -- --  -- -- -- -- -- -- -- --
0000: 00                                                .               
```

#### Opcodes

```
  0: 0x0000 [0x00] END_REQSTACK()
```

### Event 15

#### Metadata

| Field        | Value      |
|--------------|------------|
| Entrypoint   | 0x0001     |
| Data Size    | 2024 bytes |
| Instructions | 243        |

```
      00 01 02 03 04 05 06 07  08 09 0A 0B 0C 0D 0E 0F
      -- -- -- -- -- -- -- --  -- -- -- -- -- -- -- --
0000:    42 45 00 80 F0 FF FF  7F F0 FF FF 7F 66 64 6F   BE..........fdo
0010: 31 01 80 55 00 80 F0 FF  FF 7F F0 FF FF 7F 66 64  1..U..........fd
0020: 6F 31 46 01 38 02 80 92  01 F6 D1 03 01 92 01 F7  o1F.8...........
0030: D1 03 01 92 01 17 D2 03  01 94 01 F0 FF FF 7F 94  ................
0040: 01 F6 D1 03 01 94 01 F7  D1 03 01 94 01 17 D2 03  ................
0050: 01 4E 00 F6 D1 03 01 4E  00 F7 D1 03 01 4E 00 17  .N.....N.....N..
0060: D2 03 01 BA F0 FF FF 7F  03 80 04 80 05 80 06 80  ................
0070: BA F6 D1 03 01 07 80 08  80 09 80 0A 80 29 10 F6  .............)..
0080: D1 03 01 10 66 0B 80 F6  D1 03 01 F6 D1 03 01 73  ....f..........s
0090: 69 74 30 53 F6 D1 03 01  F6 D1 03 01 73 69 74 30  it0S........sit0
00A0: 80 F0 FF FF 7F 80 F6 D1  03 01 80 F7 D1 03 01 79  ...............y
00B0: 00 F0 FF FF 7F F0 FF FF  7F 7B F6 D1 03 01 7B F7  .........{....{.
00C0: D1 03 01 1C 0C 80 27 10  F0 FF FF 7F 2C 45 0D 80  ......'.....,E..
00D0: F0 FF FF 7F F0 FF FF 7F  73 61 30 30 01 80 45 00  ........sa00..E.
00E0: 80 F0 FF FF 7F F0 FF FF  7F 66 64 69 31 01 80 55  .........fdi1..U
00F0: 00 80 F0 FF FF 7F F0 FF  FF 7F 66 64 69 31 1C 0E  ..........fdi1..
0100: 80 2B F6 D1 03 01 0F 80  23 27 10 F6 D1 03 01 0F  .+......#'......
0110: 1C 10 80 4A F6 D1 03 01  F0 FF FF 7F 6F 76 F6 D1  ...J........ov..
0120: 03 01 2A 10 07 D2 03 01  1C 11 80 52 0D 80 F0 FF  ..*........R....
0130: FF 7F F0 FF FF 7F 73 61  30 30 45 0D 80 F0 FF FF  ......sa00E.....
0140: 7F F0 FF FF 7F 73 61 30  32 01 80 BA F0 FF FF 7F  .....sa02.......
0150: 12 80 13 80 14 80 15 80  27 10 07 D2 03 01 03 1C  ........'.......
0160: 16 80 29 10 F6 D1 03 01  0B 4A F6 D1 03 01 F0 FF  ..)......J......
0170: FF 7F 79 00 F6 D1 03 01  F0 FF FF 7F 6F 76 F6 D1  ..y.........ov..
0180: 03 01 52 0D 80 F0 FF FF  7F F0 FF FF 7F 73 61 30  ..R..........sa0
0190: 32 45 0D 80 F0 FF FF 7F  F0 FF FF 7F 73 61 30 33  2E..........sa03
01A0: 01 80 1C 17 80 66 18 80  F6 D1 03 01 F6 D1 03 01  .....f..........
01B0: 74 6C 6B 30 2B F6 D1 03  01 19 80 23 1C 1A 80 66  tlk0+......#...f
01C0: 18 80 F6 D1 03 01 F6 D1  03 01 74 6C 6B 31 6E F0  ..........tlk1n.
01D0: FF FF 7F 1B 80 99 F0 FF  FF 7F 1C 1C 80 BA F7 D1  ................
01E0: 03 01 1D 80 1E 80 1F 80  20 80 C5 21 80 F7 D1 03  ........ ..!....
01F0: 01 F7 D1 03 01 73 30 30  30 01 80 C5 21 80 F7 D1  .....s000...!...
0200: 03 01 F7 D1 03 01 73 30  30 31 01 80 BA 07 D2 03  ......s001......
0210: 01 22 80 23 80 24 80 25  80 80 F7 D1 03 01 7B F7  .".#.$.%......{.
0220: D1 03 01 7B F6 D1 03 01  52 0D 80 F0 FF FF 7F F0  ...{....R.......
0230: FF FF 7F 73 61 30 33 45  0D 80 F0 FF FF 7F F0 FF  ...sa03E........
0240: FF 7F 74 6B 30 30 01 80  1C 1A 80 4B F6 D1 03 01  ..tk00.....K....
0250: 26 80 2B F6 D1 03 01 27  80 23 27 10 F7 D1 03 01  &.+....'.#'.....
0260: 0C 1C 28 80 52 0D 80 F0  FF FF 7F F0 FF FF 7F 74  ..(.R..........t
0270: 6B 30 30 45 0D 80 F0 FF  FF 7F F0 FF FF 7F 73 61  k00E..........sa
0280: 30 34 01 80 4B F6 D1 03  01 29 80 79 00 F6 D1 03  04..K....).y....
0290: 01 F7 D1 03 01 66 18 80  F6 D1 03 01 F6 D1 03 01  .....f..........
02A0: 74 68 6B 32 1C 2A 80 52  0D 80 F0 FF FF 7F F0 FF  thk2.*.R........
02B0: FF 7F 73 61 30 34 45 0D  80 F0 FF FF 7F F0 FF FF  ..sa04E.........
02C0: 7F 73 61 30 35 01 80 2B  F6 D1 03 01 2B 80 23 1C  .sa05..+....+.#.
02D0: 1A 80 29 10 F0 FF FF 7F  22 52 0D 80 F0 FF FF 7F  ..)....."R......
02E0: F0 FF FF 7F 73 61 30 35  45 0D 80 F0 FF FF 7F F0  ....sa05E.......
02F0: FF FF 7F 73 61 31 36 01  80 27 10 F0 FF FF 7F 2E  ...sa16..'......
0300: 2A 10 F0 FF FF 7F 4A F0  FF FF 7F 07 D2 03 01 6F  *.....J........o
0310: 76 F0 FF FF 7F 27 10 F0  FF FF 7F 1B 7B F0 FF FF  v....'......{...
0320: 7F 4A F6 D1 03 01 07 D2  03 01 79 00 F6 D1 03 01  .J........y.....
0330: F7 D1 03 01 6F 76 F6 D1  03 01 66 0B 80 F6 D1 03  ....ov....f.....
0340: 01 F6 D1 03 01 73 69 74  30 2A 10 F0 FF FF 7F 53  .....sit0*.....S
0350: F6 D1 03 01 F6 D1 03 01  73 69 74 30 5C 00 2C 80  ........sit0\.,.
0360: 5C 01 2C 80 52 0D 80 F0  FF FF 7F F0 FF FF 7F 73  \.,.R..........s
0370: 61 31 36 45 0D 80 F0 FF  FF 7F F0 FF FF 7F 73 61  a16E..........sa
0380: 30 37 01 80 BA F7 D1 03  01 2D 80 2E 80 2F 80 30  07.......-.../.0
0390: 80 27 10 F7 D1 03 01 0D  2A 10 F7 D1 03 01 27 10  .'......*.....'.
03A0: F7 D1 03 01 0E 1C 31 80  52 0D 80 F0 FF FF 7F F0  ......1.R.......
03B0: FF FF 7F 73 61 30 37 45  0D 80 F0 FF FF 7F F0 FF  ...sa07E........
03C0: FF 7F 73 61 30 38 01 80  2A 10 F7 D1 03 01 27 10  ..sa08..*.....'.
03D0: F7 D1 03 01 0F 1C 0E 80  52 0D 80 F0 FF FF 7F F0  ........R.......
03E0: FF FF 7F 73 61 30 38 45  0D 80 F0 FF FF 7F F0 FF  ...sa08E........
03F0: FF 7F 73 61 31 34 01 80  1C 1A 80 66 0B 80 F6 D1  ..sa14.....f....
0400: 03 01 F6 D1 03 01 73 69  74 31 1C 1C 80 4E 01 F0  ......sit1...N..
0410: FF FF 7F 53 F6 D1 03 01  F6 D1 03 01 73 69 74 31  ...S........sit1
0420: 52 0D 80 F0 FF FF 7F F0  FF FF 7F 73 61 31 34 45  R..........sa14E
0430: 0D 80 F0 FF FF 7F F0 FF  FF 7F 73 61 30 39 01 80  ..........sa09..
0440: 1C 28 80 7A 00 F7 D1 03  01 BA F7 D1 03 01 32 80  .(.z..........2.
0450: 33 80 34 80 20 80 80 F7  D1 03 01 27 10 F6 D1 03  3.4. ......'....
0460: 01 11 2B F6 D1 03 01 35  80 23 1C 1A 80 27 10 F7  ..+....5.#...'..
0470: D1 03 01 10 1C 36 80 2A  10 F6 D1 03 01 27 10 F6  .....6.*.....'..
0480: D1 03 01 0C 52 0D 80 F0  FF FF 7F F0 FF FF 7F 73  ....R..........s
0490: 61 30 39 45 0D 80 F0 FF  FF 7F F0 FF FF 7F 73 61  a09E..........sa
04A0: 31 30 01 80 27 10 F7 D1  03 01 10 1C 0E 80 2A 10  10..'.........*.
04B0: F6 D1 03 01 4B F6 D1 03  01 37 80 4E 00 F0 FF FF  ....K....7.N....
04C0: 7F 6B 69 64 6C 30 F0 FF  FF 7F 52 0D 80 F0 FF FF  .kidl0....R.....
04D0: 7F F0 FF FF 7F 73 61 31  30 45 0D 80 F0 FF FF 7F  .....sa10E......
04E0: F0 FF FF 7F 73 61 31 31  01 80 C5 21 80 F7 D1 03  ....sa11...!....
04F0: 01 F7 D1 03 01 6B 69 6C  31 01 80 27 10 07 D2 03  .....kil1..'....
0500: 01 05 2B F6 D1 03 01 38  80 23 1C 1A 80 2A 10 07  ..+....8.#...*..
0510: D2 03 01 27 10 F0 FF FF  7F 27 1C 36 80 5D 01 80  ...'.....'.6.]..
0520: 00 80 52 0D 80 F0 FF FF  7F F0 FF FF 7F 73 61 31  ..R..........sa1
0530: 31 45 0D 80 F0 FF FF 7F  F0 FF FF 7F 73 61 31 32  1E..........sa12
0540: 01 80 66 39 80 F6 D1 03  01 F6 D1 03 01 67 6B 72  ..f9.........gkr
0550: 31 53 F6 D1 03 01 F6 D1  03 01 67 6B 72 31 7B F6  1S........gkr1{.
0560: D1 03 01 1C 1A 80 79 00  F0 FF FF 7F F6 D1 03 01  ......y.........
0570: 66 0B 80 F6 D1 03 01 F6  D1 03 01 74 68 6B 31 2B  f..........thk1+
0580: F6 D1 03 01 3A 80 23 2A  10 07 D2 03 01 2A 10 F0  ....:.#*.....*..
0590: FF FF 7F 29 10 17 D2 03  01 02 C5 21 80 17 D2 03  ...).......!....
05A0: 01 17 D2 03 01 73 30 30  32 01 80 80 17 D2 03 01  .....s002.......
05B0: 52 0D 80 F0 FF FF 7F F0  FF FF 7F 73 61 31 32 45  R..........sa12E
05C0: 0D 80 F0 FF FF 7F F0 FF  FF 7F 73 61 31 39 01 80  ..........sa19..
05D0: 66 0B 80 F6 D1 03 01 F6  D1 03 01 74 68 6B 32 53  f..........thk2S
05E0: F6 D1 03 01 F6 D1 03 01  74 68 6B 32 1C 3B 80 BA  ........thk2.;..
05F0: F0 FF FF 7F 3C 80 3D 80  3E 80 3F 80 4A F0 FF FF  ....<.=.>.?.J...
0600: 7F 17 D2 03 01 7B F0 FF  FF 7F 4A F6 D1 03 01 17  .....{....J.....
0610: D2 03 01 6F 76 F6 D1 03  01 1C 3B 80 2B F6 D1 03  ...ov.....;.+...
0620: 01 40 80 23 1C 1A 80 27  10 F6 D1 03 01 19 1C 3B  .@.#...'.......;
0630: 80 52 0D 80 F0 FF FF 7F  F0 FF FF 7F 73 61 31 39  .R..........sa19
0640: 45 0D 80 F0 FF FF 7F F0  FF FF 7F 73 61 32 30 01  E..........sa20.
0650: 80 7B F6 D1 03 01 1C 17  80 27 10 F0 FF FF 7F 2F  .{.......'...../
0660: 7B F0 FF FF 7F 1C 0E 80  52 0D 80 F0 FF FF 7F F0  {.......R.......
0670: FF FF 7F 73 61 32 30 45  0D 80 F0 FF FF 7F F0 FF  ...sa20E........
0680: FF 7F 73 61 32 31 01 80  2A 10 F6 D1 03 01 1C 36  ..sa21..*......6
0690: 80 66 0B 80 F6 D1 03 01  F6 D1 03 01 73 68 61 30  .f..........sha0
06A0: 2B F6 D1 03 01 41 80 23  1C 1A 80 52 0D 80 F0 FF  +....A.#...R....
06B0: FF 7F F0 FF FF 7F 73 61  32 31 45 0D 80 F0 FF FF  ......sa21E.....
06C0: 7F F0 FF FF 7F 74 6B 30  31 01 80 66 0B 80 F6 D1  .....tk01..f....
06D0: 03 01 F6 D1 03 01 73 68  61 31 C5 21 80 17 D2 03  ......sha1.!....
06E0: 01 17 D2 03 01 6B 69 6C  32 01 80 03 02 10 42 80  .....kil2.....B.
06F0: 48 43 80 1C 0E 80 53 F6  D1 03 01 F6 D1 03 01 73  HC....S........s
0700: 68 61 31 7B F0 FF FF 7F  52 0D 80 F0 FF FF 7F F0  ha1{....R.......
0710: FF FF 7F 74 6B 30 31 45  0D 80 F0 FF FF 7F F0 FF  ...tk01E........
0720: FF 7F 73 61 32 32 01 80  1C 3B 80 4A F6 D1 03 01  ..sa22...;.J....
0730: F0 FF FF 7F 79 00 F6 D1  03 01 F0 FF FF 7F 1C 1A  ....y...........
0740: 80 27 10 07 D2 03 01 06  4A F0 FF FF 7F F6 D1 03  .'......J.......
0750: 01 2B F6 D1 03 01 44 80  23 1C 1A 80 2A 10 07 D2  .+....D.#...*...
0760: 03 01 6E F0 FF FF 7F 45  80 99 F0 FF FF 7F 1C 0E  ..n....E........
0770: 80 45 00 80 F0 FF FF 7F  F0 FF FF 7F 66 64 6F 31  .E..........fdo1
0780: 01 80 55 00 80 F0 FF FF  7F F0 FF FF 7F 66 64 6F  ..U..........fdo
0790: 31 52 0D 80 F0 FF FF 7F  F0 FF FF 7F 73 61 32 32  1R..........sa22
07A0: 5C 00 01 80 5C 01 01 80  9A C5 21 80 F7 D1 03 01  \...\.....!.....
07B0: F7 D1 03 01 6B 69 6C 30  01 80 46 00 45 00 80 F0  ....kil0..F.E...
07C0: FF FF 7F F0 FF FF 7F 66  64 69 32 01 80 2D F0 FF  .......fdi2..-..
07D0: FF 7F F0 FF FF 7F 31 70  62 31 2D F0 FF FF 7F F0  ......1pb1-.....
07E0: FF FF 7F 32 70 62 31 21  00                       ...2pb1!.       
```

#### Opcodes

```
  0: 0x0001 [0x42] SET_CLI_EVENT_CANCEL_DATA()
  1: 0x0002 [0x45] LOAD_SCHEDULED_TASK: Load scheduler "fdo1" with entities [LocalPlayer, LocalPlayer], work=[200*, 0*]
  2: 0x0013 [0x55] WAIT_LOAD_SCHEDULER: Wait for scheduler "fdo1" with entities [LocalPlayer, LocalPlayer], work=200*
  3: 0x0022 [0x46] CAMERA_CONTROL: Disable user control
  4: 0x0024 [0x38] SET_CLIENT_EVENT_MODE(mode=19*)
  5: 0x0027 [0x92] Fari-Wari (ID: 17027574/0x0103D1F6)->Render.Flags3 ^= 0x01
  6: 0x002D [0x92] Gadalar (ID: 17027575/0x0103D1F7)->Render.Flags3 ^= 0x01
  7: 0x0033 [0x92] Unnamed NPC (ID: 17027607/0x0103D217)->Render.Flags3 ^= 0x01
  8: 0x0039 [0x94] LocalPlayer->Render.Flags3 ^= 0x01
  9: 0x003F [0x94] Fari-Wari (ID: 17027574/0x0103D1F6)->Render.Flags3 ^= 0x01
 10: 0x0045 [0x94] Gadalar (ID: 17027575/0x0103D1F7)->Render.Flags3 ^= 0x01
 11: 0x004B [0x94] Unnamed NPC (ID: 17027607/0x0103D217)->Render.Flags3 ^= 0x01
 12: 0x0051 [0x4E] SET_ENTITY_HIDE_FLAG: Show Fari-Wari (ID: 17027574/0x0103D1F6)
 13: 0x0057 [0x4E] SET_ENTITY_HIDE_FLAG: Show Gadalar (ID: 17027575/0x0103D1F7)
 14: 0x005D [0x4E] SET_ENTITY_HIDE_FLAG: Show Unnamed NPC (ID: 17027607/0x0103D217)
 15: 0x0063 [0xBA] SET_ENTITY_POSITION(entity_id=LocalPlayer, pos_x=890.499*, pos_z=181.924*, pos_y=-9.260*, direction=114.3°*)
 16: 0x0070 [0xBA] SET_ENTITY_POSITION(entity_id=Fari-Wari (ID: 17027574/0x0103D1F6), pos_x=883.636*, pos_z=179.185*, pos_y=-8.922*, direction=272.5°*)
 17: 0x007D [0x29] REQ_SET_WAIT(priority=0x10, entity_id=Fari-Wari (ID: 17027574/0x0103D1F6), tag_num=0x10)
 18: 0x0084 [0x66] LOAD_EXT_SCHEDULER_MAIN: Load scheduler "sit0" with entities [Fari-Wari (ID: 17027574/0x0103D1F6), Fari-Wari (ID: 17027574/0x0103D1F6)], work=49*
 19: 0x0093 [0x53] WAIT_SCHEDULER_TASK: Wait for scheduler "sit0" with entities [Fari-Wari (ID: 17027574/0x0103D1F6), Fari-Wari (ID: 17027574/0x0103D1F6)]
 20: 0x00A0 [0x80] LOAD_WAIT(entity=LocalPlayer)
 21: 0x00A5 [0x80] LOAD_WAIT(entity=Fari-Wari (ID: 17027574/0x0103D1F6))
 22: 0x00AA [0x80] LOAD_WAIT(entity=Gadalar (ID: 17027575/0x0103D1F7))
 23: 0x00AF [0x79] LocalPlayer looks at LocalPlayer (Basic look)
 24: 0x00B9 [0x7B] Fari-Wari (ID: 17027574/0x0103D1F6) stops talking
 25: 0x00BE [0x7B] Gadalar (ID: 17027575/0x0103D1F7) stops talking
 26: 0x00C3 [0x1C] WAIT(60* ticks)
 27: 0x00C6 [0x27] REQ_SET(priority=0x10, entity_id=LocalPlayer, tag_num=0x2C)
 28: 0x00CD [0x45] LOAD_SCHEDULED_TASK: Load scheduler "sa00" with entities [LocalPlayer, LocalPlayer], work=[438*, 0*]
 29: 0x00DE [0x45] LOAD_SCHEDULED_TASK: Load scheduler "fdi1" with entities [LocalPlayer, LocalPlayer], work=[200*, 0*]
 30: 0x00EF [0x55] WAIT_LOAD_SCHEDULER: Wait for scheduler "fdi1" with entities [LocalPlayer, LocalPlayer], work=200*
 31: 0x00FE [0x1C] WAIT(120* ticks)
 32: 0x0101 [0x2B] Fari-Wari (ID: 17027574/0x0103D1F6) [7599*]:
    → "Ah, <Player>, it took you long enough. Over here!"
 33: 0x0108 [0x23] WAIT_FOR_DIALOG_INTERACTION
 34: 0x0109 [0x27] REQ_SET(priority=0x10, entity_id=Fari-Wari (ID: 17027574/0x0103D1F6), tag_num=0x0F)
 35: 0x0110 [0x1C] WAIT(45* ticks)
 36: 0x0113 [0x4A] Fari-Wari (ID: 17027574/0x0103D1F6) looks at LocalPlayer
 37: 0x011C [0x6F] WAIT_FRAME_DELAY: Yield until WaitTime reaches zero
 38: 0x011D [0x76] CHECK_ENTITY_RENDER_FLAGS: Wait until Fari-Wari (ID: 17027574/0x0103D1F6) Render.Flags0 and Render.Flags3 conditions are met
 39: 0x0122 [0x2A] GET_REQ_LEVEL(level=16, entity_id=??? (ID: 17027591/0x0103D207))
 40: 0x0128 [0x1C] WAIT(20* ticks)
 41: 0x012B [0x52] END_LOAD_SCHEDULER: End scheduler "sa00" with entities [LocalPlayer, LocalPlayer], work=438*
 42: 0x013A [0x45] LOAD_SCHEDULED_TASK: Load scheduler "sa02" with entities [LocalPlayer, LocalPlayer], work=[438*, 0*]
 43: 0x014B [0xBA] SET_ENTITY_POSITION(entity_id=LocalPlayer, pos_x=882.274*, pos_z=183.435*, pos_y=-8.569*, direction=323.0°*)
 44: 0x0158 [0x27] REQ_SET(priority=0x10, entity_id=??? (ID: 17027591/0x0103D207), tag_num=0x03)
 45: 0x015F [0x1C] WAIT(160* ticks)
 46: 0x0162 [0x29] REQ_SET_WAIT(priority=0x10, entity_id=Fari-Wari (ID: 17027574/0x0103D1F6), tag_num=0x0B)
 47: 0x0169 [0x4A] Fari-Wari (ID: 17027574/0x0103D1F6) looks at LocalPlayer
 48: 0x0172 [0x79] Fari-Wari (ID: 17027574/0x0103D1F6) looks at LocalPlayer (Basic look)
 49: 0x017C [0x6F] WAIT_FRAME_DELAY: Yield until WaitTime reaches zero
 50: 0x017D [0x76] CHECK_ENTITY_RENDER_FLAGS: Wait until Fari-Wari (ID: 17027574/0x0103D1F6) Render.Flags0 and Render.Flags3 conditions are met
 51: 0x0182 [0x52] END_LOAD_SCHEDULER: End scheduler "sa02" with entities [LocalPlayer, LocalPlayer], work=438*
 52: 0x0191 [0x45] LOAD_SCHEDULED_TASK: Load scheduler "sa03" with entities [LocalPlayer, LocalPlayer], work=[438*, 0*]
 53: 0x01A2 [0x1C] WAIT(50* ticks)
 54: 0x01A5 [0x66] LOAD_EXT_SCHEDULER_MAIN: Load scheduler "tlk0" with entities [Fari-Wari (ID: 17027574/0x0103D1F6), Fari-Wari (ID: 17027574/0x0103D1F6)], work=40*
 55: 0x01B4 [0x2B] Fari-Wari (ID: 17027574/0x0103D1F6) [7600*]:
    → "I was beginning to think...<pant, pant>...you'd never show up. I...<wheeze>...taught myself three new songs just in the time I spent waiting for you!"
 56: 0x01BB [0x23] WAIT_FOR_DIALOG_INTERACTION
 57: 0x01BC [0x1C] WAIT(30* ticks)
 58: 0x01BF [0x66] LOAD_EXT_SCHEDULER_MAIN: Load scheduler "tlk1" with entities [Fari-Wari (ID: 17027574/0x0103D1F6), Fari-Wari (ID: 17027574/0x0103D1F6)], work=40*
 59: 0x01CE [0x6E] LocalPlayer uses emote 26*
 60: 0x01D5 [0x99] Wait for LocalPlayer animation to complete
 61: 0x01DA [0x1C] WAIT(100* ticks)
 62: 0x01DD [0xBA] SET_ENTITY_POSITION(entity_id=Gadalar (ID: 17027575/0x0103D1F7), pos_x=907.209*, pos_z=180.356*, pos_y=-7.247*, direction=171.0°*)
 63: 0x01EA [0xC5] LOAD_SCHEDULED_TASK_ALT3: Load scheduler 0x80013030 for entities [Gadalar (ID: 17027575/0x0103D1F7), Gadalar (ID: 17027575/0x0103D1F7)], work=27*, param=12403
 64: 0x01FB [0xC5] LOAD_SCHEDULED_TASK_ALT3: Load scheduler 0x80013130 for entities [Gadalar (ID: 17027575/0x0103D1F7), Gadalar (ID: 17027575/0x0103D1F7)], work=27*, param=12403
 65: 0x020C [0xBA] SET_ENTITY_POSITION(entity_id=??? (ID: 17027591/0x0103D207), pos_x=876.009*, pos_z=180.514*, pos_y=-8.352*, direction=182.8°*)
 66: 0x0219 [0x80] LOAD_WAIT(entity=Gadalar (ID: 17027575/0x0103D1F7))
 67: 0x021E [0x7B] Gadalar (ID: 17027575/0x0103D1F7) stops talking
 68: 0x0223 [0x7B] Fari-Wari (ID: 17027574/0x0103D1F6) stops talking
 69: 0x0228 [0x52] END_LOAD_SCHEDULER: End scheduler "sa03" with entities [LocalPlayer, LocalPlayer], work=438*
 70: 0x0237 [0x45] LOAD_SCHEDULED_TASK: Load scheduler "tk00" with entities [LocalPlayer, LocalPlayer], work=[438*, 0*]
 71: 0x0248 [0x1C] WAIT(30* ticks)
 72: 0x024B [0x4B] UPDATE_ENTITY_YAW(entity=Fari-Wari (ID: 17027574/0x0103D1F6), yaw=20.9°*)
 73: 0x0252 [0x2B] Fari-Wari (ID: 17027574/0x0103D1F6) [7601*]:
    → "Hm? What's this now?"
 74: 0x0259 [0x23] WAIT_FOR_DIALOG_INTERACTION
 75: 0x025A [0x27] REQ_SET(priority=0x10, entity_id=Gadalar (ID: 17027575/0x0103D1F7), tag_num=0x0C)
 76: 0x0261 [0x1C] WAIT(10* ticks)
 77: 0x0264 [0x52] END_LOAD_SCHEDULER: End scheduler "tk00" with entities [LocalPlayer, LocalPlayer], work=438*
 78: 0x0273 [0x45] LOAD_SCHEDULED_TASK: Load scheduler "sa04" with entities [LocalPlayer, LocalPlayer], work=[438*, 0*]
 79: 0x0284 [0x4B] UPDATE_ENTITY_YAW(entity=Fari-Wari (ID: 17027574/0x0103D1F6), yaw=17.6°*)
 80: 0x028B [0x79] Fari-Wari (ID: 17027574/0x0103D1F6) looks at Gadalar (ID: 17027575/0x0103D1F7) (Basic look)
 81: 0x0295 [0x66] LOAD_EXT_SCHEDULER_MAIN: Load scheduler "thk2" with entities [Fari-Wari (ID: 17027574/0x0103D1F6), Fari-Wari (ID: 17027574/0x0103D1F6)], work=40*
 82: 0x02A4 [0x1C] WAIT(250* ticks)
 83: 0x02A7 [0x52] END_LOAD_SCHEDULER: End scheduler "sa04" with entities [LocalPlayer, LocalPlayer], work=438*
 84: 0x02B6 [0x45] LOAD_SCHEDULED_TASK: Load scheduler "sa05" with entities [LocalPlayer, LocalPlayer], work=[438*, 0*]
 85: 0x02C7 [0x2B] Fari-Wari (ID: 17027574/0x0103D1F6) [7602*]:
    → "Shhh! Someone's headed this way! Take cover!"
 86: 0x02CE [0x23] WAIT_FOR_DIALOG_INTERACTION
 87: 0x02CF [0x1C] WAIT(30* ticks)
 88: 0x02D2 [0x29] REQ_SET_WAIT(priority=0x10, entity_id=LocalPlayer, tag_num=0x22)
 89: 0x02D9 [0x52] END_LOAD_SCHEDULER: End scheduler "sa05" with entities [LocalPlayer, LocalPlayer], work=438*
 90: 0x02E8 [0x45] LOAD_SCHEDULED_TASK: Load scheduler "sa16" with entities [LocalPlayer, LocalPlayer], work=[438*, 0*]
 91: 0x02F9 [0x27] REQ_SET(priority=0x10, entity_id=LocalPlayer, tag_num=0x2E)
 92: 0x0300 [0x2A] GET_REQ_LEVEL(level=16, entity_id=LocalPlayer)
 93: 0x0306 [0x4A] LocalPlayer looks at ??? (ID: 17027591/0x0103D207)
 94: 0x030F [0x6F] WAIT_FRAME_DELAY: Yield until WaitTime reaches zero
 95: 0x0310 [0x76] CHECK_ENTITY_RENDER_FLAGS: Wait until LocalPlayer Render.Flags0 and Render.Flags3 conditions are met
 96: 0x0315 [0x27] REQ_SET(priority=0x10, entity_id=LocalPlayer, tag_num=0x1B)
 97: 0x031C [0x7B] LocalPlayer stops talking
 98: 0x0321 [0x4A] Fari-Wari (ID: 17027574/0x0103D1F6) looks at ??? (ID: 17027591/0x0103D207)
 99: 0x032A [0x79] Fari-Wari (ID: 17027574/0x0103D1F6) looks at Gadalar (ID: 17027575/0x0103D1F7) (Basic look)
100: 0x0334 [0x6F] WAIT_FRAME_DELAY: Yield until WaitTime reaches zero
101: 0x0335 [0x76] CHECK_ENTITY_RENDER_FLAGS: Wait until Fari-Wari (ID: 17027574/0x0103D1F6) Render.Flags0 and Render.Flags3 conditions are met
102: 0x033A [0x66] LOAD_EXT_SCHEDULER_MAIN: Load scheduler "sit0" with entities [Fari-Wari (ID: 17027574/0x0103D1F6), Fari-Wari (ID: 17027574/0x0103D1F6)], work=49*
103: 0x0349 [0x2A] GET_REQ_LEVEL(level=16, entity_id=LocalPlayer)
104: 0x034F [0x53] WAIT_SCHEDULER_TASK: Wait for scheduler "sit0" with entities [Fari-Wari (ID: 17027574/0x0103D1F6), Fari-Wari (ID: 17027574/0x0103D1F6)]
105: 0x035C [0x5C] MUSIC_CONTROL: Set Idle (Day) music to song 150*
106: 0x0360 [0x5C] MUSIC_CONTROL: Set Idle (Night) music to song 150*
107: 0x0364 [0x52] END_LOAD_SCHEDULER: End scheduler "sa16" with entities [LocalPlayer, LocalPlayer], work=438*
108: 0x0373 [0x45] LOAD_SCHEDULED_TASK: Load scheduler "sa07" with entities [LocalPlayer, LocalPlayer], work=[438*, 0*]
109: 0x0384 [0xBA] SET_ENTITY_POSITION(entity_id=Gadalar (ID: 17027575/0x0103D1F7), pos_x=884.184*, pos_z=182.176*, pos_y=-8.645*, direction=180.8°*)
110: 0x0391 [0x27] REQ_SET(priority=0x10, entity_id=Gadalar (ID: 17027575/0x0103D1F7), tag_num=0x0D)
111: 0x0398 [0x2A] GET_REQ_LEVEL(level=16, entity_id=Gadalar (ID: 17027575/0x0103D1F7))
112: 0x039E [0x27] REQ_SET(priority=0x10, entity_id=Gadalar (ID: 17027575/0x0103D1F7), tag_num=0x0E)
113: 0x03A5 [0x1C] WAIT(240* ticks)
114: 0x03A8 [0x52] END_LOAD_SCHEDULER: End scheduler "sa07" with entities [LocalPlayer, LocalPlayer], work=438*
115: 0x03B7 [0x45] LOAD_SCHEDULED_TASK: Load scheduler "sa08" with entities [LocalPlayer, LocalPlayer], work=[438*, 0*]
116: 0x03C8 [0x2A] GET_REQ_LEVEL(level=16, entity_id=Gadalar (ID: 17027575/0x0103D1F7))
117: 0x03CE [0x27] REQ_SET(priority=0x10, entity_id=Gadalar (ID: 17027575/0x0103D1F7), tag_num=0x0F)
118: 0x03D5 [0x1C] WAIT(120* ticks)
119: 0x03D8 [0x52] END_LOAD_SCHEDULER: End scheduler "sa08" with entities [LocalPlayer, LocalPlayer], work=438*
120: 0x03E7 [0x45] LOAD_SCHEDULED_TASK: Load scheduler "sa14" with entities [LocalPlayer, LocalPlayer], work=[438*, 0*]
121: 0x03F8 [0x1C] WAIT(30* ticks)
122: 0x03FB [0x66] LOAD_EXT_SCHEDULER_MAIN: Load scheduler "sit1" with entities [Fari-Wari (ID: 17027574/0x0103D1F6), Fari-Wari (ID: 17027574/0x0103D1F6)], work=49*
123: 0x040A [0x1C] WAIT(100* ticks)
124: 0x040D [0x4E] SET_ENTITY_HIDE_FLAG: Hide LocalPlayer
125: 0x0413 [0x53] WAIT_SCHEDULER_TASK: Wait for scheduler "sit1" with entities [Fari-Wari (ID: 17027574/0x0103D1F6), Fari-Wari (ID: 17027574/0x0103D1F6)]
126: 0x0420 [0x52] END_LOAD_SCHEDULER: End scheduler "sa14" with entities [LocalPlayer, LocalPlayer], work=438*
127: 0x042F [0x45] LOAD_SCHEDULED_TASK: Load scheduler "sa09" with entities [LocalPlayer, LocalPlayer], work=[438*, 0*]
128: 0x0440 [0x1C] WAIT(10* ticks)
129: 0x0443 [0x7A] VM_CONTROL: Reset VM for Gadalar (ID: 17027575/0x0103D1F7)
130: 0x0449 [0xBA] SET_ENTITY_POSITION(entity_id=Gadalar (ID: 17027575/0x0103D1F7), pos_x=866.498*, pos_z=179.470*, pos_y=-10.605*, direction=171.0°*)
131: 0x0456 [0x80] LOAD_WAIT(entity=Gadalar (ID: 17027575/0x0103D1F7))
132: 0x045B [0x27] REQ_SET(priority=0x10, entity_id=Fari-Wari (ID: 17027574/0x0103D1F6), tag_num=0x11)
133: 0x0462 [0x2B] Fari-Wari (ID: 17027574/0x0103D1F6) [7603*]:
    → "Halt, I say! Who goes there!?"
134: 0x0469 [0x23] WAIT_FOR_DIALOG_INTERACTION
135: 0x046A [0x1C] WAIT(30* ticks)
136: 0x046D [0x27] REQ_SET(priority=0x10, entity_id=Gadalar (ID: 17027575/0x0103D1F7), tag_num=0x10)
137: 0x0474 [0x1C] WAIT(5* ticks)
138: 0x0477 [0x2A] GET_REQ_LEVEL(level=16, entity_id=Fari-Wari (ID: 17027574/0x0103D1F6))
139: 0x047D [0x27] REQ_SET(priority=0x10, entity_id=Fari-Wari (ID: 17027574/0x0103D1F6), tag_num=0x0C)
140: 0x0484 [0x52] END_LOAD_SCHEDULER: End scheduler "sa09" with entities [LocalPlayer, LocalPlayer], work=438*
141: 0x0493 [0x45] LOAD_SCHEDULED_TASK: Load scheduler "sa10" with entities [LocalPlayer, LocalPlayer], work=[438*, 0*]
142: 0x04A4 [0x27] REQ_SET(priority=0x10, entity_id=Gadalar (ID: 17027575/0x0103D1F7), tag_num=0x10)
143: 0x04AB [0x1C] WAIT(120* ticks)
144: 0x04AE [0x2A] GET_REQ_LEVEL(level=16, entity_id=Fari-Wari (ID: 17027574/0x0103D1F6))
145: 0x04B4 [0x4B] UPDATE_ENTITY_YAW(entity=Fari-Wari (ID: 17027574/0x0103D1F6), yaw=9.2°*)
146: 0x04BB [0x4E] SET_ENTITY_HIDE_FLAG: Show LocalPlayer
147: 0x04C1 [0x6B] STOP_AND_IDLE: LocalPlayer stops current action and resets to idle (animation="idl0")
148: 0x04CA [0x52] END_LOAD_SCHEDULER: End scheduler "sa10" with entities [LocalPlayer, LocalPlayer], work=438*
149: 0x04D9 [0x45] LOAD_SCHEDULED_TASK: Load scheduler "sa11" with entities [LocalPlayer, LocalPlayer], work=[438*, 0*]
150: 0x04EA [0xC5] LOAD_SCHEDULED_TASK_ALT3: Load scheduler 0x8001316C for entities [Gadalar (ID: 17027575/0x0103D1F7), Gadalar (ID: 17027575/0x0103D1F7)], work=27*, param=26987
151: 0x04FB [0x27] REQ_SET(priority=0x10, entity_id=??? (ID: 17027591/0x0103D207), tag_num=0x05)
152: 0x0502 [0x2B] Fari-Wari (ID: 17027574/0x0103D1F6) [7604*]:
    → "Drat! We've lost him..."
153: 0x0509 [0x23] WAIT_FOR_DIALOG_INTERACTION
154: 0x050A [0x1C] WAIT(30* ticks)
155: 0x050D [0x2A] GET_REQ_LEVEL(level=16, entity_id=??? (ID: 17027591/0x0103D207))
156: 0x0513 [0x27] REQ_SET(priority=0x10, entity_id=LocalPlayer, tag_num=0x27)
157: 0x051A [0x1C] WAIT(5* ticks)
158: 0x051D [0x5D] SET_MUSIC_VOLUME(volume=0*, fade_time=200*)
159: 0x0522 [0x52] END_LOAD_SCHEDULER: End scheduler "sa11" with entities [LocalPlayer, LocalPlayer], work=438*
160: 0x0531 [0x45] LOAD_SCHEDULED_TASK: Load scheduler "sa12" with entities [LocalPlayer, LocalPlayer], work=[438*, 0*]
161: 0x0542 [0x66] LOAD_EXT_SCHEDULER_MAIN: Load scheduler "gkr1" with entities [Fari-Wari (ID: 17027574/0x0103D1F6), Fari-Wari (ID: 17027574/0x0103D1F6)], work=42*
162: 0x0551 [0x53] WAIT_SCHEDULER_TASK: Wait for scheduler "gkr1" with entities [Fari-Wari (ID: 17027574/0x0103D1F6), Fari-Wari (ID: 17027574/0x0103D1F6)]
163: 0x055E [0x7B] Fari-Wari (ID: 17027574/0x0103D1F6) stops talking
164: 0x0563 [0x1C] WAIT(30* ticks)
165: 0x0566 [0x79] LocalPlayer looks at Fari-Wari (ID: 17027574/0x0103D1F6) (Basic look)
166: 0x0570 [0x66] LOAD_EXT_SCHEDULER_MAIN: Load scheduler "thk1" with entities [Fari-Wari (ID: 17027574/0x0103D1F6), Fari-Wari (ID: 17027574/0x0103D1F6)], work=49*
167: 0x057F [0x2B] Fari-Wari (ID: 17027574/0x0103D1F6) [7605*]:
    → "Who could that have been? That distinctive crimson garb...could it have been the Flameserpent General?"
168: 0x0586 [0x23] WAIT_FOR_DIALOG_INTERACTION
169: 0x0587 [0x2A] GET_REQ_LEVEL(level=16, entity_id=??? (ID: 17027591/0x0103D207))
170: 0x058D [0x2A] GET_REQ_LEVEL(level=16, entity_id=LocalPlayer)
171: 0x0593 [0x29] REQ_SET_WAIT(priority=0x10, entity_id=Unnamed NPC (ID: 17027607/0x0103D217), tag_num=0x02)
172: 0x059A [0xC5] LOAD_SCHEDULED_TASK_ALT3: Load scheduler 0x80013230 for entities [Unnamed NPC (ID: 17027607/0x0103D217), Unnamed NPC (ID: 17027607/0x0103D217)], work=27*, param=12403
173: 0x05AB [0x80] LOAD_WAIT(entity=Unnamed NPC (ID: 17027607/0x0103D217))
174: 0x05B0 [0x52] END_LOAD_SCHEDULER: End scheduler "sa12" with entities [LocalPlayer, LocalPlayer], work=438*
175: 0x05BF [0x45] LOAD_SCHEDULED_TASK: Load scheduler "sa19" with entities [LocalPlayer, LocalPlayer], work=[438*, 0*]
176: 0x05D0 [0x66] LOAD_EXT_SCHEDULER_MAIN: Load scheduler "thk2" with entities [Fari-Wari (ID: 17027574/0x0103D1F6), Fari-Wari (ID: 17027574/0x0103D1F6)], work=49*
177: 0x05DF [0x53] WAIT_SCHEDULER_TASK: Wait for scheduler "thk2" with entities [Fari-Wari (ID: 17027574/0x0103D1F6), Fari-Wari (ID: 17027574/0x0103D1F6)]
178: 0x05EC [0x1C] WAIT(15* ticks)
179: 0x05EF [0xBA] SET_ENTITY_POSITION(entity_id=LocalPlayer, pos_x=881.266*, pos_z=178.886*, pos_y=-8.088*, direction=387.7°*)
180: 0x05FC [0x4A] LocalPlayer looks at Unnamed NPC (ID: 17027607/0x0103D217)
181: 0x0605 [0x7B] LocalPlayer stops talking
182: 0x060A [0x4A] Fari-Wari (ID: 17027574/0x0103D1F6) looks at Unnamed NPC (ID: 17027607/0x0103D217)
183: 0x0613 [0x6F] WAIT_FRAME_DELAY: Yield until WaitTime reaches zero
184: 0x0614 [0x76] CHECK_ENTITY_RENDER_FLAGS: Wait until Fari-Wari (ID: 17027574/0x0103D1F6) Render.Flags0 and Render.Flags3 conditions are met
185: 0x0619 [0x1C] WAIT(15* ticks)
186: 0x061C [0x2B] Fari-Wari (ID: 17027574/0x0103D1F6) [7606*]:
    → "Hullo, what have we here?"
187: 0x0623 [0x23] WAIT_FOR_DIALOG_INTERACTION
188: 0x0624 [0x1C] WAIT(30* ticks)
189: 0x0627 [0x27] REQ_SET(priority=0x10, entity_id=Fari-Wari (ID: 17027574/0x0103D1F6), tag_num=0x19)
190: 0x062E [0x1C] WAIT(15* ticks)
191: 0x0631 [0x52] END_LOAD_SCHEDULER: End scheduler "sa19" with entities [LocalPlayer, LocalPlayer], work=438*
192: 0x0640 [0x45] LOAD_SCHEDULED_TASK: Load scheduler "sa20" with entities [LocalPlayer, LocalPlayer], work=[438*, 0*]
193: 0x0651 [0x7B] Fari-Wari (ID: 17027574/0x0103D1F6) stops talking
194: 0x0656 [0x1C] WAIT(50* ticks)
195: 0x0659 [0x27] REQ_SET(priority=0x10, entity_id=LocalPlayer, tag_num=0x2F)
196: 0x0660 [0x7B] LocalPlayer stops talking
197: 0x0665 [0x1C] WAIT(120* ticks)
198: 0x0668 [0x52] END_LOAD_SCHEDULER: End scheduler "sa20" with entities [LocalPlayer, LocalPlayer], work=438*
199: 0x0677 [0x45] LOAD_SCHEDULED_TASK: Load scheduler "sa21" with entities [LocalPlayer, LocalPlayer], work=[438*, 0*]
200: 0x0688 [0x2A] GET_REQ_LEVEL(level=16, entity_id=Fari-Wari (ID: 17027574/0x0103D1F6))
201: 0x068E [0x1C] WAIT(5* ticks)
202: 0x0691 [0x66] LOAD_EXT_SCHEDULER_MAIN: Load scheduler "sha0" with entities [Fari-Wari (ID: 17027574/0x0103D1F6), Fari-Wari (ID: 17027574/0x0103D1F6)], work=49*
203: 0x06A0 [0x2B] Fari-Wari (ID: 17027574/0x0103D1F6) [7607*]:
    → "Is this...a flower petal? What a curious present from our mysterious visitor."
204: 0x06A7 [0x23] WAIT_FOR_DIALOG_INTERACTION
205: 0x06A8 [0x1C] WAIT(30* ticks)
206: 0x06AB [0x52] END_LOAD_SCHEDULER: End scheduler "sa21" with entities [LocalPlayer, LocalPlayer], work=438*
207: 0x06BA [0x45] LOAD_SCHEDULED_TASK: Load scheduler "tk01" with entities [LocalPlayer, LocalPlayer], work=[438*, 0*]
208: 0x06CB [0x66] LOAD_EXT_SCHEDULER_MAIN: Load scheduler "sha1" with entities [Fari-Wari (ID: 17027574/0x0103D1F6), Fari-Wari (ID: 17027574/0x0103D1F6)], work=49*
209: 0x06DA [0xC5] LOAD_SCHEDULED_TASK_ALT3: Load scheduler 0x8001326C for entities [Unnamed NPC (ID: 17027607/0x0103D217), Unnamed NPC (ID: 17027607/0x0103D217)], work=27*, param=26987
210: 0x06EB [0x03] Work_Zone[2] = 2729*
211: 0x06F0 [0x48] [System] [7608*]:
    → "Fari-Wari picked up $0."
212: 0x06F3 [0x1C] WAIT(120* ticks)
213: 0x06F6 [0x53] WAIT_SCHEDULER_TASK: Wait for scheduler "sha1" with entities [Fari-Wari (ID: 17027574/0x0103D1F6), Fari-Wari (ID: 17027574/0x0103D1F6)]
214: 0x0703 [0x7B] LocalPlayer stops talking
215: 0x0708 [0x52] END_LOAD_SCHEDULER: End scheduler "tk01" with entities [LocalPlayer, LocalPlayer], work=438*
216: 0x0717 [0x45] LOAD_SCHEDULED_TASK: Load scheduler "sa22" with entities [LocalPlayer, LocalPlayer], work=[438*, 0*]
217: 0x0728 [0x1C] WAIT(15* ticks)
218: 0x072B [0x4A] Fari-Wari (ID: 17027574/0x0103D1F6) looks at LocalPlayer
219: 0x0734 [0x79] Fari-Wari (ID: 17027574/0x0103D1F6) looks at LocalPlayer (Basic look)
220: 0x073E [0x1C] WAIT(30* ticks)
221: 0x0741 [0x27] REQ_SET(priority=0x10, entity_id=??? (ID: 17027591/0x0103D207), tag_num=0x06)
222: 0x0748 [0x4A] LocalPlayer looks at Fari-Wari (ID: 17027574/0x0103D1F6)
223: 0x0751 [0x2B] Fari-Wari (ID: 17027574/0x0103D1F6) [7609*]:
    → "And the plot thickens! No dilly-dallying, my loyal attendant. The chase is on!"
224: 0x0758 [0x23] WAIT_FOR_DIALOG_INTERACTION
225: 0x0759 [0x1C] WAIT(30* ticks)
226: 0x075C [0x2A] GET_REQ_LEVEL(level=16, entity_id=??? (ID: 17027591/0x0103D207))
227: 0x0762 [0x6E] LocalPlayer uses emote 7*
228: 0x0769 [0x99] Wait for LocalPlayer animation to complete
229: 0x076E [0x1C] WAIT(120* ticks)
230: 0x0771 [0x45] LOAD_SCHEDULED_TASK: Load scheduler "fdo1" with entities [LocalPlayer, LocalPlayer], work=[200*, 0*]
231: 0x0782 [0x55] WAIT_LOAD_SCHEDULER: Wait for scheduler "fdo1" with entities [LocalPlayer, LocalPlayer], work=200*
232: 0x0791 [0x52] END_LOAD_SCHEDULER: End scheduler "sa22" with entities [LocalPlayer, LocalPlayer], work=438*
233: 0x07A0 [0x5C] MUSIC_CONTROL: Set Idle (Day) music to song 0*
234: 0x07A4 [0x5C] MUSIC_CONTROL: Set Idle (Night) music to song 0*
235: 0x07A8 [0x9A] WAIT_MUSIC_SERVER()
236: 0x07A9 [0xC5] LOAD_SCHEDULED_TASK_ALT3: Load scheduler 0x8001306C for entities [Gadalar (ID: 17027575/0x0103D1F7), Gadalar (ID: 17027575/0x0103D1F7)], work=27*, param=26987
237: 0x07BA [0x46] CAMERA_CONTROL: Restore default settings
238: 0x07BC [0x45] LOAD_SCHEDULED_TASK: Load scheduler "fdi2" with entities [LocalPlayer, LocalPlayer], work=[200*, 0*]
239: 0x07CD [0x2D] CREATE_ZONE_SCHEDULER_TASK: Create scheduler "1pb1" with entities [LocalPlayer, LocalPlayer]
240: 0x07DA [0x2D] CREATE_ZONE_SCHEDULER_TASK: Create scheduler "2pb1" with entities [LocalPlayer, LocalPlayer]
241: 0x07E7 [0x21] END_EVENT
242: 0x07E8 [0x00] END_REQSTACK()
```

### Event 16

#### Metadata

| Field        | Value       |
|--------------|-------------|
| Entrypoint   | 0x07E9      |
| Data Size    | 10110 bytes |
| Instructions | 1175        |

```
      00 01 02 03 04 05 06 07  08 09 0A 0B 0C 0D 0E 0F
      -- -- -- -- -- -- -- --  -- -- -- -- -- -- -- --
07E0:                             42 45 00 80 F0 FF FF           BE.....
07F0: 7F F0 FF FF 7F 66 64 6F  31 01 80 55 00 80 F0 FF  .....fdo1..U....
0800: FF 7F F0 FF FF 7F 66 64  6F 31 46 01 38 02 80 29  ......fdo1F.8..)
0810: 10 F9 D1 03 01 1A 92 01  F6 D1 03 01 92 01 F7 D1  ................
0820: 03 01 92 01 F9 D1 03 01  92 01 FD D1 03 01 92 01  ................
0830: 08 D2 03 01 92 01 09 D2  03 01 92 01 0A D2 03 01  ................
0840: 92 01 0B D2 03 01 92 01  0C D2 03 01 92 01 0D D2  ................
0850: 03 01 92 01 0E D2 03 01  92 01 0F D2 03 01 92 01  ................
0860: 10 D2 03 01 92 01 11 D2  03 01 92 01 12 D2 03 01  ................
0870: 92 01 13 D2 03 01 92 01  14 D2 03 01 92 01 15 D2  ................
0880: 03 01 92 01 16 D2 03 01  92 01 19 D2 03 01 92 01  ................
0890: 1A D2 03 01 92 01 1B D2  03 01 94 01 F0 FF FF 7F  ................
08A0: 94 01 F6 D1 03 01 94 01  F7 D1 03 01 94 01 F9 D1  ................
08B0: 03 01 94 01 FD D1 03 01  94 01 08 D2 03 01 94 01  ................
08C0: 09 D2 03 01 94 01 0A D2  03 01 94 01 0B D2 03 01  ................
08D0: 94 01 0C D2 03 01 94 01  0D D2 03 01 94 01 0E D2  ................
08E0: 03 01 94 01 0F D2 03 01  94 01 10 D2 03 01 94 01  ................
08F0: 11 D2 03 01 94 01 12 D2  03 01 94 01 13 D2 03 01  ................
0900: 94 01 14 D2 03 01 94 01  15 D2 03 01 94 01 16 D2  ................
0910: 03 01 94 01 19 D2 03 01  94 01 1A D2 03 01 94 01  ................
0920: 1B D2 03 01 4E 00 F6 D1  03 01 4E 00 F7 D1 03 01  ....N.....N.....
0930: 4E 00 F9 D1 03 01 4E 00  FD D1 03 01 2F 00 F6 D1  N.....N...../...
0940: 03 01 2F 00 F0 FF FF 7F  BA F0 FF FF 7F 46 80 47  ../..........F.G
0950: 80 48 80 49 80 BA F6 D1  03 01 4A 80 4B 80 4C 80  .H.I......J.K.L.
0960: 29 80 4E 00 08 D2 03 01  BA 08 D2 03 01 4D 80 4E  ).N..........M.N
0970: 80 4F 80 01 80 2F 00 09  D2 03 01 4E 00 09 D2 03  .O.../.....N....
0980: 01 BA 09 D2 03 01 4D 80  4E 80 4F 80 01 80 80 F0  ......M.N.O.....
0990: FF FF 7F 80 F6 D1 03 01  80 F7 D1 03 01 80 F9 D1  ................
09A0: 03 01 80 FD D1 03 01 80  08 D2 03 01 80 09 D2 03  ................
09B0: 01 80 0A D2 03 01 80 0B  D2 03 01 80 0C D2 03 01  ................
09C0: 80 0D D2 03 01 80 0E D2  03 01 80 0F D2 03 01 80  ................
09D0: 10 D2 03 01 80 11 D2 03  01 80 12 D2 03 01 80 13  ................
09E0: D2 03 01 80 14 D2 03 01  80 15 D2 03 01 80 16 D2  ................
09F0: 03 01 80 19 D2 03 01 80  1A D2 03 01 80 1B D2 03  ................
0A00: 01 79 00 F0 FF FF 7F F0  FF FF 7F 7B F6 D1 03 01  .y.........{....
0A10: 7B F7 D1 03 01 7B F9 D1  03 01 7B FD D1 03 01 7B  {....{....{....{
0A20: 08 D2 03 01 7B 09 D2 03  01 7B 0A D2 03 01 7B 0B  ....{....{....{.
0A30: D2 03 01 7B 0C D2 03 01  7B 0D D2 03 01 7B 0E D2  ...{....{....{..
0A40: 03 01 7B 0F D2 03 01 7B  10 D2 03 01 7B 11 D2 03  ..{....{....{...
0A50: 01 7B 12 D2 03 01 7B 13  D2 03 01 7B 14 D2 03 01  .{....{....{....
0A60: 7B 15 D2 03 01 7B 16 D2  03 01 7B 19 D2 03 01 7B  {....{....{....{
0A70: 1A D2 03 01 7B 1B D2 03  01 27 10 F0 FF FF 7F 30  ....{....'.....0
0A80: 27 10 F6 D1 03 01 1A 1C  3B 80 45 0D 80 F0 FF FF  '.......;.E.....
0A90: 7F F0 FF FF 7F 73 62 30  30 01 80 45 00 80 F0 FF  .....sb00..E....
0AA0: FF 7F F0 FF FF 7F 66 64  69 31 01 80 55 00 80 F0  ......fdi1..U...
0AB0: FF FF 7F F0 FF FF 7F 66  64 69 31 2A 10 F0 FF FF  .......fdi1*....
0AC0: 7F 2A 10 F6 D1 03 01 4B  F6 D1 03 01 50 80 79 00  .*.....K....P.y.
0AD0: F6 D1 03 01 F0 FF FF 7F  6F 76 F6 D1 03 01 66 18  ........ov....f.
0AE0: 80 F6 D1 03 01 F6 D1 03  01 74 68 6B 31 1C 1A 80  .........thk1...
0AF0: 52 0D 80 F0 FF FF 7F F0  FF FF 7F 73 62 30 30 45  R..........sb00E
0B00: 0D 80 F0 FF FF 7F F0 FF  FF 7F 73 62 30 33 01 80  ..........sb03..
0B10: 27 10 07 D2 03 01 08 2B  F6 D1 03 01 51 80 23 4B  '......+....Q.#K
0B20: F0 FF FF 7F 52 80 79 00  F0 FF FF 7F F6 D1 03 01  ....R.y.........
0B30: 1C 1A 80 2A 10 07 D2 03  01 1C 11 80 52 0D 80 F0  ...*........R...
0B40: FF FF 7F F0 FF FF 7F 73  62 30 33 45 0D 80 F0 FF  .......sb03E....
0B50: FF 7F F0 FF FF 7F 73 62  30 31 01 80 27 10 07 D2  ......sb01..'...
0B60: 03 01 0A 1C 1A 80 2B F6  D1 03 01 53 80 23 1C 1A  ......+....S.#..
0B70: 80 2B F6 D1 03 01 54 80  23 1C 0C 80 2A 10 07 D2  .+....T.#...*...
0B80: 03 01 52 0D 80 F0 FF FF  7F F0 FF FF 7F 73 62 30  ..R..........sb0
0B90: 31 45 0D 80 F0 FF FF 7F  F0 FF FF 7F 73 62 30 36  1E..........sb06
0BA0: 01 80 BA F7 D1 03 01 55  80 56 80 57 80 58 80 7B  .......U.V.W.X.{
0BB0: F7 D1 03 01 5B 59 80 F7  D1 03 01 F7 D1 03 01 67  ....[Y.........g
0BC0: 64 61 30 53 F7 D1 03 01  F7 D1 03 01 75 64 65 30  da0S........ude0
0BD0: 4A F7 D1 03 01 F6 D1 03  01 7C 00 F6 D1 03 01 66  J........|.....f
0BE0: 39 80 F6 D1 03 01 F6 D1  03 01 62 69 6B 31 1C 3B  9.........bik1.;
0BF0: 80 5C 00 5A 80 5C 01 5A  80 9A 1C 5B 80 2B F6 D1  .\.Z.\.Z...[.+..
0C00: 03 01 5C 80 23 1C 0C 80  7C 01 F6 D1 03 01 52 0D  ..\.#...|.....R.
0C10: 80 F0 FF FF 7F F0 FF FF  7F 73 62 30 36 45 0D 80  .........sb06E..
0C20: F0 FF FF 7F F0 FF FF 7F  73 62 30 37 01 80 4B F6  ........sb07..K.
0C30: D1 03 01 5D 80 79 00 F6  D1 03 01 F7 D1 03 01 1C  ...].y..........
0C40: 16 80 52 0D 80 F0 FF FF  7F F0 FF FF 7F 73 62 30  ..R..........sb0
0C50: 37 45 0D 80 F0 FF FF 7F  F0 FF FF 7F 73 62 30 38  7E..........sb08
0C60: 01 80 6E F6 D1 03 01 5E  80 99 F6 D1 03 01 4B F0  ..n....^......K.
0C70: FF FF 7F 5F 80 79 00 F0  FF FF 7F F7 D1 03 01 6F  ..._.y.........o
0C80: 76 F0 FF FF 7F 6E F0 FF  FF 7F 5E 80 99 F0 FF FF  v....n....^.....
0C90: 7F 1C 60 80 52 0D 80 F0  FF FF 7F F0 FF FF 7F 73  ..`.R..........s
0CA0: 62 30 38 45 0D 80 F0 FF  FF 7F F0 FF FF 7F 73 62  b08E..........sb
0CB0: 30 39 01 80 1C 1A 80 2B  F7 D1 03 01 61 80 23 1C  09.....+....a.#.
0CC0: 1A 80 1C 11 80 52 0D 80  F0 FF FF 7F F0 FF FF 7F  .....R..........
0CD0: 73 62 30 39 45 0D 80 F0  FF FF 7F F0 FF FF 7F 73  sb09E..........s
0CE0: 62 31 30 01 80 27 10 07  D2 03 01 0C 6B 69 64 6C  b10..'......kidl
0CF0: 30 F7 D1 03 01 1C 28 80  2B F6 D1 03 01 62 80 23  0.....(.+....b.#
0D00: 1C 1A 80 2A 10 07 D2 03  01 52 0D 80 F0 FF FF 7F  ...*.....R......
0D10: F0 FF FF 7F 73 62 31 30  45 0D 80 F0 FF FF 7F F0  ....sb10E.......
0D20: FF FF 7F 73 62 31 32 01  80 6B 69 64 6C 30 F6 D1  ...sb12..kidl0..
0D30: 03 01 2B F7 D1 03 01 63  80 23 52 0D 80 F0 FF FF  ..+....c.#R.....
0D40: 7F F0 FF FF 7F 73 62 31  32 45 0D 80 F0 FF FF 7F  .....sb12E......
0D50: F0 FF FF 7F 74 6B 30 33  01 80 1C 3B 80 2C F7 D1  ....tk03...;.,..
0D60: 03 01 F7 D1 03 01 63 61  62 6B 2B F7 D1 03 01 64  ......cabk+....d
0D70: 80 1C 65 80 4A F0 FF FF  7F F6 D1 03 01 27 10 07  ..e.J........'..
0D80: D2 03 01 0D 52 0D 80 F0  FF FF 7F F0 FF FF 7F 74  ....R..........t
0D90: 6B 30 33 45 0D 80 F0 FF  FF 7F F0 FF FF 7F 73 62  k03E..........sb
0DA0: 31 33 01 80 27 10 F0 FF  FF 7F 28 2B F6 D1 03 01  13..'.....(+....
0DB0: 66 80 23 2A 10 07 D2 03  01 1C 1A 80 2C F7 D1 03  f.#*........,...
0DC0: 01 F7 D1 03 01 63 61 62  6B 52 0D 80 F0 FF FF 7F  .....cabkR......
0DD0: F0 FF FF 7F 73 62 31 33  45 0D 80 F0 FF FF 7F F0  ....sb13E.......
0DE0: FF FF 7F 73 62 31 34 01  80 66 18 80 F6 D1 03 01  ...sb14..f......
0DF0: F6 D1 03 01 6D 6F 6A 31  1C 1C 80 66 18 80 F6 D1  ....moj1...f....
0E00: 03 01 F6 D1 03 01 6F 62  69 30 52 0D 80 F0 FF FF  ......obi0R.....
0E10: 7F F0 FF FF 7F 73 62 31  34 45 0D 80 F0 FF FF 7F  .....sb14E......
0E20: F0 FF FF 7F 73 62 31 36  01 80 2B F6 D1 03 01 67  ....sb16..+....g
0E30: 80 23 1C 1A 80 4A F0 FF  FF 7F F7 D1 03 01 7B F0  .#...J........{.
0E40: FF FF 7F 52 0D 80 F0 FF  FF 7F F0 FF FF 7F 73 62  ...R..........sb
0E50: 31 36 45 0D 80 F0 FF FF  7F F0 FF FF 7F 73 62 31  16E..........sb1
0E60: 35 01 80 2C F7 D1 03 01  F7 D1 03 01 73 68 62 6B  5..,........shbk
0E70: 73 68 80 09 D2 03 01 F6  D1 03 01 73 68 80 08 D2  sh.........sh...
0E80: 03 01 F0 FF FF 7F 6B 69  64 6C 30 F6 D1 03 01 1C  ......kidl0.....
0E90: 65 80 52 0D 80 F0 FF FF  7F F0 FF FF 7F 73 62 31  e.R..........sb1
0EA0: 35 45 0D 80 F0 FF FF 7F  F0 FF FF 7F 73 62 31 37  5E..........sb17
0EB0: 01 80 6E F6 D1 03 01 69  80 99 F6 D1 03 01 1C 3B  ..n....i.......;
0EC0: 80 6E F0 FF FF 7F 69 80  99 F0 FF FF 7F 27 10 07  .n....i......'..
0ED0: D2 03 01 13 1C 6A 80 2B  F6 D1 03 01 6B 80 2C F6  .....j.+....k.,.
0EE0: D1 03 01 F6 D1 03 01 64  65 61 64 1C 28 80 29 10  .......dead.(.).
0EF0: F0 FF FF 7F 29 2C F0 FF  FF 7F F0 FF FF 7F 64 65  ....),........de
0F00: 61 64 53 F6 D1 03 01 F6  D1 03 01 64 65 61 64 53  adS........deadS
0F10: F0 FF FF 7F F0 FF FF 7F  64 65 61 64 5D 01 80 2C  ........dead]..,
0F20: 80 45 6C 80 F0 FF FF 7F  F0 FF FF 7F 77 68 6F 31  .El.........who1
0F30: 01 80 55 6C 80 F0 FF FF  7F F0 FF FF 7F 77 68 6F  ..Ul.........who
0F40: 31 1C 1A 80 2A 10 07 D2  03 01 1C 60 80 52 0D 80  1...*......`.R..
0F50: F0 FF FF 7F F0 FF FF 7F  73 62 31 37 4E 01 08 D2  ........sb17N...
0F60: 03 01 4E 01 09 D2 03 01  45 0D 80 F0 FF FF 7F F0  ..N.....E.......
0F70: FF FF 7F 73 62 31 38 01  80 45 6C 80 F0 FF FF 7F  ...sb18..El.....
0F80: F0 FF FF 7F 77 68 69 31  01 80 55 6C 80 F0 FF FF  ....whi1..Ul....
0F90: 7F F0 FF FF 7F 77 68 69  31 7C 00 F7 D1 03 01 2B  .....whi1|.....+
0FA0: F7 D1 03 01 6D 80 23 1C  1A 80 7C 01 F7 D1 03 01  ....m.#...|.....
0FB0: 52 0D 80 F0 FF FF 7F F0  FF FF 7F 73 62 31 38 45  R..........sb18E
0FC0: 0D 80 F0 FF FF 7F F0 FF  FF 7F 73 62 31 39 01 80  ..........sb19..
0FD0: 27 10 F7 D1 03 01 11 1C  60 80 45 00 80 F0 FF FF  '.......`.E.....
0FE0: 7F F0 FF FF 7F 66 64 6F  31 01 80 55 00 80 F0 FF  .....fdo1..U....
0FF0: FF 7F F0 FF FF 7F 66 64  6F 31 52 0D 80 F0 FF FF  ......fdo1R.....
1000: 7F F0 FF FF 7F 73 62 31  39 7A 00 F7 D1 03 01 4E  .....sb19z.....N
1010: 01 F7 D1 03 01 6B 69 64  6C 30 F0 FF FF 7F 6B 69  .....kidl0....ki
1020: 64 6C 30 F6 D1 03 01 1C  65 80 4B F0 FF FF 7F 6E  dl0.....e.K....n
1030: 80 4B F6 D1 03 01 6F 80  79 00 F0 FF FF 7F F6 D1  .K....o.y.......
1040: 03 01 79 00 F6 D1 03 01  F0 FF FF 7F 4E 00 0B D2  ..y.........N...
1050: 03 01 4E 00 0E D2 03 01  4E 00 0F D2 03 01 4E 00  ..N.....N.....N.
1060: 10 D2 03 01 4E 00 11 D2  03 01 4E 00 12 D2 03 01  ....N.....N.....
1070: 4E 00 13 D2 03 01 4E 00  14 D2 03 01 4E 00 15 D2  N.....N.....N...
1080: 03 01 4E 00 16 D2 03 01  4E 00 19 D2 03 01 4E 00  ..N.....N.....N.
1090: 1A D2 03 01 4E 00 1B D2  03 01 BA 08 D2 03 01 70  ....N..........p
10A0: 80 71 80 72 80 01 80 BA  09 D2 03 01 73 80 74 80  .q.r........s.t.
10B0: 75 80 76 80 BA 0A D2 03  01 77 80 78 80 79 80 7A  u.v......w.x.y.z
10C0: 80 BA 0B D2 03 01 7B 80  7C 80 7D 80 7E 80 BA 0C  ......{.|.}.~...
10D0: D2 03 01 7F 80 80 80 81  80 82 80 BA 0D D2 03 01  ................
10E0: 83 80 84 80 85 80 82 80  BA 19 D2 03 01 86 80 87  ................
10F0: 80 88 80 89 80 BA 1A D2  03 01 8A 80 8B 80 8C 80  ................
1100: 8D 80 BA 1B D2 03 01 8E  80 8F 80 90 80 89 80 BA  ................
1110: 07 D2 03 01 91 80 92 80  93 80 8D 80 80 08 D2 03  ................
1120: 01 80 09 D2 03 01 80 0A  D2 03 01 80 0B D2 03 01  ................
1130: 80 0C D2 03 01 80 0D D2  03 01 80 19 D2 03 01 80  ................
1140: 1A D2 03 01 80 1B D2 03  01 7B 08 D2 03 01 7B 09  .........{....{.
1150: D2 03 01 7B 0A D2 03 01  7B 0B D2 03 01 7B 0C D2  ...{....{....{..
1160: 03 01 7B 0D D2 03 01 7B  19 D2 03 01 7B 1A D2 03  ..{....{....{...
1170: 01 7B 1B D2 03 01 2C 08  D2 03 01 08 D2 03 01 63  .{....,........c
1180: 6F 72 70 2C 09 D2 03 01  09 D2 03 01 63 6F 72 70  orp,........corp
1190: 2C 0A D2 03 01 0A D2 03  01 63 6F 72 70 2C 0B D2  ,........corp,..
11A0: 03 01 0B D2 03 01 63 6F  72 70 2C 0C D2 03 01 0C  ......corp,.....
11B0: D2 03 01 63 6F 72 70 2C  0D D2 03 01 0D D2 03 01  ...corp,........
11C0: 63 6F 72 70 1C 0C 80 1C  2C 80 29 10 F6 D1 03 01  corp....,.).....
11D0: 0A 29 10 F0 FF FF 7F 19  48 94 80 23 45 0D 80 F0  .)......H..#E...
11E0: FF FF 7F F0 FF FF 7F 73  62 32 30 01 80 45 00 80  .......sb20..E..
11F0: F0 FF FF 7F F0 FF FF 7F  66 64 69 31 01 80 55 00  ........fdi1..U.
1200: 80 F0 FF FF 7F F0 FF FF  7F 66 64 69 31 1C 11 80  .........fdi1...
1210: 1C 0C 80 27 10 F6 D1 03  01 0B 1C 10 80 27 10 F0  ...'.........'..
1220: FF FF 7F 1A 2B F6 D1 03  01 95 80 23 2A 10 F0 FF  ....+......#*...
1230: FF 7F 6E F0 FF FF 7F 45  80 99 F0 FF FF 7F 1C 1A  ..n....E........
1240: 80 2A 10 F6 D1 03 01 52  0D 80 F0 FF FF 7F F0 FF  .*.....R........
1250: FF 7F 73 62 32 30 45 0D  80 F0 FF FF 7F F0 FF FF  ..sb20E.........
1260: 7F 74 6B 30 34 01 80 03  02 10 96 80 48 97 80 AD  .tk04.......H...
1270: 00 1A 80 F6 D1 03 01 F6  D1 03 01 1C 0C 80 2B F6  ..............+.
1280: D1 03 01 98 80 23 2A 10  F0 FF FF 7F 1C 65 80 52  .....#*......e.R
1290: 0D 80 F0 FF FF 7F F0 FF  FF 7F 74 6B 30 34 45 0D  ..........tk04E.
12A0: 80 F0 FF FF 7F F0 FF FF  7F 74 6B 30 35 01 80 6E  .........tk05..n
12B0: F6 D1 03 01 99 80 99 F6  D1 03 01 27 10 07 D2 03  ...........'....
12C0: 01 10 2B F6 D1 03 01 9A  80 23 1C 1A 80 2A 10 07  ..+......#...*..
12D0: D2 03 01 27 10 19 D2 03  01 2D 27 10 1A D2 03 01  ...'.....-'.....
12E0: 2E 27 10 1B D2 03 01 2F  52 0D 80 F0 FF FF 7F F0  .'...../R.......
12F0: FF FF 7F 74 6B 30 35 45  0D 80 F0 FF FF 7F F0 FF  ...tk05E........
1300: FF 7F 73 62 32 36 01 80  5C 00 2C 80 5C 01 2C 80  ..sb26..\.,.\.,.
1310: 6B 69 64 6C 30 F6 D1 03  01 4A F0 FF FF 7F 0B D2  kidl0....J......
1320: 03 01 79 00 F0 FF FF 7F  0B D2 03 01 1C 9B 80 1C  ..y.............
1330: 5B 80 9A 52 0D 80 F0 FF  FF 7F F0 FF FF 7F 73 62  [..R..........sb
1340: 32 36 45 0D 80 F0 FF FF  7F F0 FF FF 7F 73 62 32  26E..........sb2
1350: 35 01 80 4E 01 19 D2 03  01 4E 01 1A D2 03 01 4E  5..N.....N.....N
1360: 01 1B D2 03 01 4E 01 0B  D2 03 01 4E 00 0C D2 03  .....N.....N....
1370: 01 6E F6 D1 03 01 9C 80  99 F6 D1 03 01 2B F6 D1  .n...........+..
1380: 03 01 9D 80 23 1C 1A 80  7B F6 D1 03 01 27 10 F6  ....#...{....'..
1390: D1 03 01 1C 1C 11 80 5D  01 80 2C 80 52 0D 80 F0  .......]..,.R...
13A0: FF FF 7F F0 FF FF 7F 73  62 32 35 45 0D 80 F0 FF  .......sb25E....
13B0: FF 7F F0 FF FF 7F 73 62  32 34 01 80 1C 65 80 79  ......sb24...e.y
13C0: 00 F0 FF FF 7F 0C D2 03  01 27 10 F0 FF FF 7F 32  .........'.....2
13D0: 1C 2C 80 52 0D 80 F0 FF  FF 7F F0 FF FF 7F 73 62  .,.R..........sb
13E0: 32 34 45 0D 80 F0 FF FF  7F F0 FF FF 7F 73 62 32  24E..........sb2
13F0: 38 01 80 2A 10 F0 FF FF  7F 5C 00 9E 80 5C 01 9E  8..*.....\...\..
1400: 80 6F 76 F6 D1 03 01 66  0B 80 F6 D1 03 01 F6 D1  .ov....f........
1410: 03 01 73 68 61 30 2B F6  D1 03 01 9F 80 23 1C 0C  ..sha0+......#..
1420: 80 27 10 F0 FF FF 7F 19  9A 1C 1A 80 52 0D 80 F0  .'..........R...
1430: FF FF 7F F0 FF FF 7F 73  62 32 38 45 0D 80 F0 FF  .......sb28E....
1440: FF 7F F0 FF FF 7F 74 6B  30 36 01 80 1C 1A 80 2B  ......tk06.....+
1450: F6 D1 03 01 A0 80 23 66  0B 80 F6 D1 03 01 F6 D1  ......#f........
1460: 03 01 73 68 61 31 1C 1A  80 BA F9 D1 03 01 A1 80  ..sha1..........
1470: A2 80 A3 80 89 80 BA 0E  D2 03 01 A4 80 A5 80 A6  ................
1480: 80 89 80 BA 0F D2 03 01  A7 80 A8 80 A9 80 89 80  ................
1490: BA 10 D2 03 01 AA 80 AB  80 AC 80 89 80 BA 12 D2  ................
14A0: 03 01 AD 80 AE 80 AF 80  89 80 BA 13 D2 03 01 B0  ................
14B0: 80 B1 80 B2 80 89 80 BA  14 D2 03 01 B3 80 B4 80  ................
14C0: 75 80 89 80 80 F9 D1 03  01 80 0E D2 03 01 80 0F  u...............
14D0: D2 03 01 80 10 D2 03 01  80 12 D2 03 01 80 13 D2  ................
14E0: 03 01 80 14 D2 03 01 7B  F9 D1 03 01 7B 0E D2 03  .......{....{...
14F0: 01 7B 0F D2 03 01 7B 10  D2 03 01 7B 12 D2 03 01  .{....{....{....
1500: 7B 13 D2 03 01 7B 14 D2  03 01 1C 28 80 52 0D 80  {....{.....(.R..
1510: F0 FF FF 7F F0 FF FF 7F  74 6B 30 36 45 0D 80 F0  ........tk06E...
1520: FF FF 7F F0 FF FF 7F 73  62 32 39 01 80 27 10 12  .......sb29..'..
1530: D2 03 01 03 1C 4F 80 27  10 13 D2 03 01 03 1C B5  .....O.'........
1540: 80 27 10 14 D2 03 01 03  1C 4F 80 27 10 F9 D1 03  .'.......O.'....
1550: 01 1D 1C B5 80 27 10 0E  D2 03 01 03 1C B5 80 27  .....'.........'
1560: 10 0F D2 03 01 03 1C B6  80 27 10 10 D2 03 01 03  .........'......
1570: 1C 1A 80 2B F3 D1 03 01  B7 80 1C B8 80 4A F0 FF  ...+.........J..
1580: FF 7F 12 D2 03 01 79 00  F0 FF FF 7F 12 D2 03 01  ......y.........
1590: 52 0D 80 F0 FF FF 7F F0  FF FF 7F 73 62 32 39 45  R..........sb29E
15A0: 0D 80 F0 FF FF 7F F0 FF  FF 7F 73 62 33 30 01 80  ..........sb30..
15B0: 53 F6 D1 03 01 F6 D1 03  01 73 68 61 31 4A F6 D1  S........sha1J..
15C0: 03 01 12 D2 03 01 79 00  F6 D1 03 01 12 D2 03 01  ......y.........
15D0: 2A 10 12 D2 03 01 1C 17  80 2B 12 D2 03 01 B9 80  *........+......
15E0: 23 1C 1A 80 52 0D 80 F0  FF FF 7F F0 FF FF 7F 73  #...R..........s
15F0: 62 33 30 45 0D 80 F0 FF  FF 7F F0 FF FF 7F 73 62  b30E..........sb
1600: 33 31 01 80 1C 1A 80 BA  F6 D1 03 01 BA 80 BB 80  31..............
1610: BC 80 BD 80 27 10 F9 D1  03 01 36 2B 12 D2 03 01  ....'.....6+....
1620: BE 80 23 1C 0C 80 52 0D  80 F0 FF FF 7F F0 FF FF  ..#...R.........
1630: 7F 73 62 33 31 45 0D 80  F0 FF FF 7F F0 FF FF 7F  .sb31E..........
1640: 74 6B 30 37 01 80 2A 10  F9 D1 03 01 2B F6 D1 03  tk07..*.....+...
1650: 01 BF 80 66 C0 80 F9 D1  03 01 F9 D1 03 01 73 68  ...f..........sh
1660: 61 30 7C 00 F9 D1 03 01  1C 1A 80 27 10 F6 D1 03  a0|........'....
1670: 01 0D 27 10 F0 FF FF 7F  2A 1C 2A 80 4A 14 D2 03  ..'.....*.*.J...
1680: 01 F6 D1 03 01 1C 1A 80  4A 12 D2 03 01 F6 D1 03  ........J.......
1690: 01 1C 3B 80 52 0D 80 F0  FF FF 7F F0 FF FF 7F 74  ..;.R..........t
16A0: 6B 30 37 45 0D 80 F0 FF  FF 7F F0 FF FF 7F 73 62  k07E..........sb
16B0: 33 34 01 80 1C 1A 80 27  10 F6 D1 03 01 0E 27 10  34.....'......'.
16C0: F0 FF FF 7F 2B 2B 12 D2  03 01 C1 80 23 1C 1A 80  ....++......#...
16D0: 52 0D 80 F0 FF FF 7F F0  FF FF 7F 73 62 33 34 45  R..........sb34E
16E0: 0D 80 F0 FF FF 7F F0 FF  FF 7F 74 6B 30 38 01 80  ..........tk08..
16F0: 7C 00 F9 D1 03 01 2B F9  D1 03 01 C2 80 23 7C 01  |.....+......#|.
1700: F9 D1 03 01 1C 0C 80 5D  01 80 00 80 45 00 80 F0  .......]....E...
1710: FF FF 7F F0 FF FF 7F 66  64 6F 31 01 80 55 00 80  .......fdo1..U..
1720: F0 FF FF 7F F0 FF FF 7F  66 64 6F 31 52 0D 80 F0  ........fdo1R...
1730: FF FF 7F F0 FF FF 7F 73  62 33 34 52 0D 80 F0 FF  .......sb34R....
1740: FF 7F F0 FF FF 7F 74 6B  30 38 4E 01 15 D2 03 01  ......tk08N.....
1750: 4E 01 16 D2 03 01 4E 01  11 D2 03 01 5D 01 80 C3  N.....N.....]...
1760: 80 1C C3 80 34 C4 80 77  C5 80 B6 80 1C 1A 80 AB  ....4..w........
1770: 09 4E 00 08 D2 03 01 4E  00 09 D2 03 01 4E 00 0A  .N.....N.....N..
1780: D2 03 01 4E 00 0B D2 03  01 4E 00 0C D2 03 01 4E  ...N.....N.....N
1790: 00 0D D2 03 01 29 10 08  D2 03 01 02 29 10 09 D2  .....)......)...
17A0: 03 01 02 29 10 0A D2 03  01 02 29 10 0B D2 03 01  ...)......).....
17B0: 02 29 10 0C D2 03 01 02  29 10 0D D2 03 01 02 29  .)......)......)
17C0: 10 0E D2 03 01 04 29 10  0F D2 03 01 04 BA F0 FF  ......).........
17D0: FF 7F C6 80 C7 80 01 80  01 80 BA F6 D1 03 01 C6  ................
17E0: 80 C8 80 01 80 01 80 BA  FD D1 03 01 C9 80 CA 80  ................
17F0: 01 80 CB 80 BA 08 D2 03  01 CC 80 CD 80 01 80 CE  ................
1800: 80 BA 09 D2 03 01 CF 80  CD 80 01 80 CE 80 BA 0A  ................
1810: D2 03 01 D0 80 CD 80 01  80 CE 80 BA 0B D2 03 01  ................
1820: D1 80 CD 80 01 80 CE 80  BA 0C D2 03 01 CC 80 D2  ................
1830: 80 01 80 7A 80 BA 0D D2  03 01 CF 80 D2 80 01 80  ...z............
1840: 7A 80 BA 0E D2 03 01 D0  80 D2 80 01 80 7A 80 BA  z............z..
1850: 0F D2 03 01 D1 80 D2 80  01 80 7A 80 80 F0 FF FF  ..........z.....
1860: 7F 80 F6 D1 03 01 80 F9  D1 03 01 80 FD D1 03 01  ................
1870: 80 08 D2 03 01 80 09 D2  03 01 80 0A D2 03 01 80  ................
1880: 0B D2 03 01 80 0C D2 03  01 80 0D D2 03 01 80 0E  ................
1890: D2 03 01 80 0F D2 03 01  80 10 D2 03 01 80 11 D2  ................
18A0: 03 01 80 12 D2 03 01 80  13 D2 03 01 80 14 D2 03  ................
18B0: 01 80 15 D2 03 01 80 16  D2 03 01 79 00 F0 FF FF  ...........y....
18C0: 7F F0 FF FF 7F 7B F6 D1  03 01 7B F9 D1 03 01 7B  .....{....{....{
18D0: FD D1 03 01 7B 08 D2 03  01 7B 09 D2 03 01 7B 0A  ....{....{....{.
18E0: D2 03 01 7B 0B D2 03 01  7B 0C D2 03 01 7B 0D D2  ...{....{....{..
18F0: 03 01 7B 0E D2 03 01 7B  0F D2 03 01 7B 10 D2 03  ..{....{....{...
1900: 01 7B 11 D2 03 01 7B 12  D2 03 01 7B 13 D2 03 01  .{....{....{....
1910: 7B 14 D2 03 01 7B 15 D2  03 01 7B 16 D2 03 01 5B  {....{....{....[
1920: D3 80 F6 D1 03 01 F6 D1  03 01 64 67 65 30 53 F6  ..........dge0S.
1930: D1 03 01 F6 D1 03 01 64  67 65 30 27 10 F0 FF FF  .......dge0'....
1940: 7F 19 79 00 F6 D1 03 01  FD D1 03 01 79 00 F0 FF  ..y.........y...
1950: FF 7F F0 FF FF 7F 79 00  F0 FF FF 7F FD D1 03 01  ......y.........
1960: 29 10 08 D2 03 01 03 5B  D4 80 08 D2 03 01 08 D2  )......[........
1970: 03 01 61 73 74 30 5B D4  80 09 D2 03 01 09 D2 03  ..ast0[.........
1980: 01 61 73 74 30 5B D4 80  0A D2 03 01 0A D2 03 01  .ast0[..........
1990: 61 73 74 30 5B D4 80 0B  D2 03 01 0B D2 03 01 61  ast0[..........a
19A0: 73 74 30 5B D4 80 0C D2  03 01 0C D2 03 01 61 73  st0[..........as
19B0: 74 30 5B D4 80 0D D2 03  01 0D D2 03 01 61 73 74  t0[..........ast
19C0: 30 5B D4 80 0E D2 03 01  0E D2 03 01 61 73 74 30  0[..........ast0
19D0: 5B D4 80 0F D2 03 01 0F  D2 03 01 61 73 74 30 53  [..........ast0S
19E0: 08 D2 03 01 08 D2 03 01  61 73 74 30 53 09 D2 03  ........ast0S...
19F0: 01 09 D2 03 01 61 73 74  30 53 0A D2 03 01 0A D2  .....ast0S......
1A00: 03 01 61 73 74 30 53 0B  D2 03 01 0B D2 03 01 61  ..ast0S........a
1A10: 73 74 30 53 0C D2 03 01  0C D2 03 01 61 73 74 30  st0S........ast0
1A20: 53 0D D2 03 01 0D D2 03  01 61 73 74 30 53 0E D2  S........ast0S..
1A30: 03 01 0E D2 03 01 61 73  74 30 53 0F D2 03 01 0F  ......ast0S.....
1A40: D2 03 01 61 73 74 30 48  94 80 23 5C 00 D5 80 5C  ...ast0H..#\...\
1A50: 01 D5 80 9A 45 0D 80 F0  FF FF 7F F0 FF FF 7F 73  ....E..........s
1A60: 62 33 35 01 80 45 00 80  F0 FF FF 7F F0 FF FF 7F  b35..E..........
1A70: 66 64 69 31 01 80 55 00  80 F0 FF FF 7F F0 FF FF  fdi1..U.........
1A80: 7F 66 64 69 31 1C 9B 80  2B F6 D1 03 01 D6 80 23  .fdi1...+......#
1A90: 1C 1A 80 52 0D 80 F0 FF  FF 7F F0 FF FF 7F 73 62  ...R..........sb
1AA0: 33 35 45 0D 80 F0 FF FF  7F F0 FF FF 7F 73 62 33  35E..........sb3
1AB0: 36 01 80 2B F6 D1 03 01  D7 80 23 1C 1A 80 52 0D  6..+......#...R.
1AC0: 80 F0 FF FF 7F F0 FF FF  7F 73 62 33 36 45 0D 80  .........sb36E..
1AD0: F0 FF FF 7F F0 FF FF 7F  73 62 33 37 01 80 66 4E  ........sb37..fN
1AE0: 80 FD D1 03 01 FD D1 03  01 74 77 61 30 1C 1A 80  .........twa0...
1AF0: 2B FD D1 03 01 D8 80 23  66 01 80 FD D1 03 01 FD  +......#f.......
1B00: D1 03 01 74 77 61 31 1C  3B 80 52 0D 80 F0 FF FF  ...twa1.;.R.....
1B10: 7F F0 FF FF 7F 73 62 33  37 45 0D 80 F0 FF FF 7F  .....sb37E......
1B20: F0 FF FF 7F 73 62 33 38  01 80 29 10 F6 D1 03 01  ....sb38..).....
1B30: 0A 2B FD D1 03 01 D9 80  23 52 0D 80 F0 FF FF 7F  .+......#R......
1B40: F0 FF FF 7F 73 62 33 38  45 0D 80 F0 FF FF 7F F0  ....sb38E.......
1B50: FF FF 7F 73 62 33 39 01  80 29 10 F6 D1 03 01 0B  ...sb39..)......
1B60: 1C 36 80 27 10 07 D2 03  01 15 2B F6 D1 03 01 DA  .6.'......+.....
1B70: 80 23 1C 1A 80 2A 10 07  D2 03 01 66 0B 80 F6 D1  .#...*.....f....
1B80: 03 01 F6 D1 03 01 74 6C  6B 31 52 0D 80 F0 FF FF  ......tlk1R.....
1B90: 7F F0 FF FF 7F 73 62 33  39 45 0D 80 F0 FF FF 7F  .....sb39E......
1BA0: F0 FF FF 7F 73 62 34 30  01 80 53 FD D1 03 01 FD  ....sb40..S.....
1BB0: D1 03 01 74 77 61 31 27  10 F0 FF FF 7F 1A 2B FD  ...twa1'......+.
1BC0: D1 03 01 DB 80 23 1C 1A  80 52 0D 80 F0 FF FF 7F  .....#...R......
1BD0: F0 FF FF 7F 73 62 34 30  45 0D 80 F0 FF FF 7F F0  ....sb40E.......
1BE0: FF FF 7F 73 62 34 31 01  80 66 4E 80 FD D1 03 01  ...sb41..fN.....
1BF0: FD D1 03 01 74 77 62 30  2B FD D1 03 01 DC 80 23  ....twb0+......#
1C00: 1C 1A 80 66 4E 80 FD D1  03 01 FD D1 03 01 74 77  ...fN.........tw
1C10: 62 31 52 0D 80 F0 FF FF  7F F0 FF FF 7F 73 62 34  b1R..........sb4
1C20: 31 45 0D 80 F0 FF FF 7F  F0 FF FF 7F 73 62 34 32  1E..........sb42
1C30: 01 80 6E F6 D1 03 01 DD  80 99 F6 D1 03 01 2B F6  ..n...........+.
1C40: D1 03 01 DE 80 23 1C 1A  80 52 0D 80 F0 FF FF 7F  .....#...R......
1C50: F0 FF FF 7F 73 62 34 32  45 0D 80 F0 FF FF 7F F0  ....sb42E.......
1C60: FF FF 7F 73 62 34 34 01  80 1C 1A 80 66 4E 80 FD  ...sb44.....fN..
1C70: D1 03 01 FD D1 03 01 74  77 62 30 2B FD D1 03 01  .......twb0+....
1C80: DF 80 23 1C 3B 80 2B FD  D1 03 01 E0 80 23 1C 3B  ..#.;.+......#.;
1C90: 80 66 4E 80 FD D1 03 01  FD D1 03 01 74 77 62 31  .fN.........twb1
1CA0: 1C 3B 80 52 0D 80 F0 FF  FF 7F F0 FF FF 7F 73 62  .;.R..........sb
1CB0: 34 34 45 0D 80 F0 FF FF  7F F0 FF FF 7F 73 62 34  44E..........sb4
1CC0: 35 01 80 79 00 F6 D1 03  01 F0 FF FF 7F 27 10 F0  5..y.........'..
1CD0: FF FF 7F 33 4A F6 D1 03  01 F0 FF FF 7F 2B F6 D1  ...3J........+..
1CE0: 03 01 E1 80 23 1C 1A 80  52 0D 80 F0 FF FF 7F F0  ....#...R.......
1CF0: FF FF 7F 73 62 34 35 29  10 F0 FF FF 7F 22 45 0D  ...sb45)....."E.
1D00: 80 F0 FF FF 7F F0 FF FF  7F 74 6B 30 39 01 80 1C  .........tk09...
1D10: 3B 80 24 E2 80 01 80 01  80 25 02 00 10 B6 80 00  ;.$......%......
1D20: 13 1F 52 0D 80 F0 FF FF  7F F0 FF FF 7F 74 6B 30  ..R..........tk0
1D30: 39 7B F0 FF FF 7F 02 02  10 B6 80 80 52 1D 45 0D  9{..........R.E.
1D40: 80 F0 FF FF 7F F0 FF FF  7F 73 62 37 34 01 80 01  .........sb74...
1D50: 16 1E 02 02 10 B5 80 80  6E 1D 45 0D 80 F0 FF FF  ........n.E.....
1D60: 7F F0 FF FF 7F 73 62 37  35 01 80 01 16 1E 02 02  .....sb75.......
1D70: 10 4F 80 80 8A 1D 45 0D  80 F0 FF FF 7F F0 FF FF  .O....E.........
1D80: 7F 73 62 37 36 01 80 01  16 1E 02 02 10 E3 80 80  .sb76...........
1D90: A6 1D 45 0D 80 F0 FF FF  7F F0 FF FF 7F 73 62 37  ..E..........sb7
1DA0: 37 01 80 01 16 1E 02 02  10 36 80 80 C2 1D 45 0D  7........6....E.
1DB0: 80 F0 FF FF 7F F0 FF FF  7F 73 62 37 38 01 80 01  .........sb78...
1DC0: 16 1E 02 02 10 E4 80 80  DE 1D 45 0D 80 F0 FF FF  ..........E.....
1DD0: 7F F0 FF FF 7F 73 62 37  39 01 80 01 16 1E 02 02  .....sb79.......
1DE0: 10 45 80 80 FA 1D 45 0D  80 F0 FF FF 7F F0 FF FF  .E....E.........
1DF0: 7F 73 62 38 30 01 80 01  16 1E 02 02 10 4D 80 80  .sb80........M..
1E00: 16 1E 45 0D 80 F0 FF FF  7F F0 FF FF 7F 73 62 38  ..E..........sb8
1E10: 31 01 80 01 16 1E 6E F0  FF FF 7F 45 80 99 F0 FF  1.....n....E....
1E20: FF 7F 1C 65 80 52 0D 80  F0 FF FF 7F F0 FF FF 7F  ...e.R..........
1E30: 73 62 34 35 52 0D 80 F0  FF FF 7F F0 FF FF 7F 73  sb45R..........s
1E40: 62 37 35 52 0D 80 F0 FF  FF 7F F0 FF FF 7F 73 62  b75R..........sb
1E50: 37 36 52 0D 80 F0 FF FF  7F F0 FF FF 7F 73 62 37  76R..........sb7
1E60: 37 52 0D 80 F0 FF FF 7F  F0 FF FF 7F 73 62 37 38  7R..........sb78
1E70: 52 0D 80 F0 FF FF 7F F0  FF FF 7F 73 62 37 39 52  R..........sb79R
1E80: 0D 80 F0 FF FF 7F F0 FF  FF 7F 73 62 38 30 52 0D  ..........sb80R.
1E90: 80 F0 FF FF 7F F0 FF FF  7F 73 62 38 31 45 0D 80  .........sb81E..
1EA0: F0 FF FF 7F F0 FF FF 7F  73 62 34 36 01 80 27 10  ........sb46..'.
1EB0: 07 D2 03 01 19 2B F6 D1  03 01 E5 80 23 1C 1A 80  .....+......#...
1EC0: 2A 10 07 D2 03 01 52 0D  80 F0 FF FF 7F F0 FF FF  *.....R.........
1ED0: 7F 73 62 34 36 45 0D 80  F0 FF FF 7F F0 FF FF 7F  .sb46E..........
1EE0: 73 62 34 37 01 80 27 10  07 D2 03 01 1A 2B F6 D1  sb47..'......+..
1EF0: 03 01 E6 80 23 1C 1A 80  2A 10 07 D2 03 01 52 0D  ....#...*.....R.
1F00: 80 F0 FF FF 7F F0 FF FF  7F 73 62 34 37 01 F7 1C  .........sb47...
1F10: 01 DC 21 02 00 10 01 80  00 DC 21 7B F0 FF FF 7F  ..!.......!{....
1F20: 02 02 10 B6 80 80 69 1F  52 0D 80 F0 FF FF 7F F0  ......i.R.......
1F30: FF FF 7F 73 62 34 35 45  0D 80 F0 FF FF 7F F0 FF  ...sb45E........
1F40: FF 7F 73 62 37 34 01 80  6E F0 FF FF 7F E4 80 99  ..sb74..n.......
1F50: F0 FF FF 7F 1C 0E 80 52  0D 80 F0 FF FF 7F F0 FF  .......R........
1F60: FF 7F 73 62 37 34 01 68  21 02 02 10 B5 80 80 B2  ..sb74.h!.......
1F70: 1F 52 0D 80 F0 FF FF 7F  F0 FF FF 7F 73 62 34 35  .R..........sb45
1F80: 45 0D 80 F0 FF FF 7F F0  FF FF 7F 73 62 37 35 01  E..........sb75.
1F90: 80 6E F0 FF FF 7F E4 80  99 F0 FF FF 7F 1C 0E 80  .n..............
1FA0: 52 0D 80 F0 FF FF 7F F0  FF FF 7F 73 62 37 35 01  R..........sb75.
1FB0: 68 21 02 02 10 4F 80 80  FB 1F 52 0D 80 F0 FF FF  h!...O....R.....
1FC0: 7F F0 FF FF 7F 73 62 34  35 45 0D 80 F0 FF FF 7F  .....sb45E......
1FD0: F0 FF FF 7F 73 62 37 36  01 80 6E F0 FF FF 7F E4  ....sb76..n.....
1FE0: 80 99 F0 FF FF 7F 1C 0E  80 52 0D 80 F0 FF FF 7F  .........R......
1FF0: F0 FF FF 7F 73 62 37 36  01 68 21 02 02 10 E3 80  ....sb76.h!.....
2000: 80 44 20 52 0D 80 F0 FF  FF 7F F0 FF FF 7F 73 62  .D R..........sb
2010: 34 35 45 0D 80 F0 FF FF  7F F0 FF FF 7F 73 62 37  45E..........sb7
2020: 37 01 80 6E F0 FF FF 7F  E4 80 99 F0 FF FF 7F 1C  7..n............
2030: 0E 80 52 0D 80 F0 FF FF  7F F0 FF FF 7F 73 62 37  ..R..........sb7
2040: 37 01 68 21 02 02 10 36  80 80 8D 20 52 0D 80 F0  7.h!...6... R...
2050: FF FF 7F F0 FF FF 7F 73  62 34 35 45 0D 80 F0 FF  .......sb45E....
2060: FF 7F F0 FF FF 7F 73 62  37 38 01 80 6E F0 FF FF  ......sb78..n...
2070: 7F E4 80 99 F0 FF FF 7F  1C 0E 80 52 0D 80 F0 FF  ...........R....
2080: FF 7F F0 FF FF 7F 73 62  37 38 01 68 21 02 02 10  ......sb78.h!...
2090: E4 80 80 D6 20 52 0D 80  F0 FF FF 7F F0 FF FF 7F  .... R..........
20A0: 73 62 34 35 45 0D 80 F0  FF FF 7F F0 FF FF 7F 73  sb45E..........s
20B0: 62 37 39 01 80 6E F0 FF  FF 7F E4 80 99 F0 FF FF  b79..n..........
20C0: 7F 1C 0E 80 52 0D 80 F0  FF FF 7F F0 FF FF 7F 73  ....R..........s
20D0: 62 37 39 01 68 21 02 02  10 45 80 80 1F 21 52 0D  b79.h!...E...!R.
20E0: 80 F0 FF FF 7F F0 FF FF  7F 73 62 34 35 45 0D 80  .........sb45E..
20F0: F0 FF FF 7F F0 FF FF 7F  73 62 38 30 01 80 6E F0  ........sb80..n.
2100: FF FF 7F E4 80 99 F0 FF  FF 7F 1C 0E 80 52 0D 80  .............R..
2110: F0 FF FF 7F F0 FF FF 7F  73 62 38 30 01 68 21 02  ........sb80.h!.
2120: 02 10 4D 80 80 68 21 52  0D 80 F0 FF FF 7F F0 FF  ..M..h!R........
2130: FF 7F 73 62 34 35 45 0D  80 F0 FF FF 7F F0 FF FF  ..sb45E.........
2140: 7F 73 62 38 31 01 80 6E  F0 FF FF 7F E4 80 99 F0  .sb81..n........
2150: FF FF 7F 1C 0E 80 52 0D  80 F0 FF FF 7F F0 FF FF  ......R.........
2160: 7F 73 62 38 31 01 68 21  45 0D 80 F0 FF FF 7F F0  .sb81.h!E.......
2170: FF FF 7F 73 62 34 38 01  80 6E F6 D1 03 01 45 80  ...sb48..n....E.
2180: 99 F6 D1 03 01 2B F6 D1  03 01 E7 80 23 1C 0C 80  .....+......#...
2190: 52 0D 80 F0 FF FF 7F F0  FF FF 7F 73 62 34 38 45  R..........sb48E
21A0: 0D 80 F0 FF FF 7F F0 FF  FF 7F 73 62 35 31 01 80  ..........sb51..
21B0: 66 E8 80 F6 D1 03 01 F6  D1 03 01 65 68 6E 30 2B  f..........ehn0+
21C0: F6 D1 03 01 E9 80 23 1C  1A 80 52 0D 80 F0 FF FF  ......#...R.....
21D0: 7F F0 FF FF 7F 73 62 35  31 01 DC 21 45 0D 80 F0  .....sb51..!E...
21E0: FF FF 7F F0 FF FF 7F 73  62 34 39 01 80 79 00 F0  .......sb49..y..
21F0: FF FF 7F FD D1 03 01 66  E8 80 F6 D1 03 01 F6 D1  .......f........
2200: 03 01 65 68 6E 31 4A F6  D1 03 01 FD D1 03 01 7B  ..ehn1J........{
2210: F6 D1 03 01 79 00 FD D1  03 01 F6 D1 03 01 6E FD  ....y.........n.
2220: D1 03 01 01 80 99 FD D1  03 01 2B FD D1 03 01 EA  ..........+.....
2230: 80 23 1C 1A 80 52 0D 80  F0 FF FF 7F F0 FF FF 7F  .#...R..........
2240: 73 62 34 39 45 0D 80 F0  FF FF 7F F0 FF FF 7F 73  sb49E..........s
2250: 62 35 30 01 80 1C 1A 80  27 10 07 D2 03 01 1B 2B  b50.....'......+
2260: F6 D1 03 01 EB 80 23 1C  1A 80 2A 10 07 D2 03 01  ......#...*.....
2270: 52 0D 80 F0 FF FF 7F F0  FF FF 7F 73 62 35 30 45  R..........sb50E
2280: 0D 80 F0 FF FF 7F F0 FF  FF 7F 73 62 35 32 01 80  ..........sb52..
2290: 66 18 80 F6 D1 03 01 F6  D1 03 01 74 6C 6B 30 2B  f..........tlk0+
22A0: F6 D1 03 01 EC 80 23 1C  1A 80 2B F6 D1 03 01 ED  ......#...+.....
22B0: 80 23 66 18 80 F6 D1 03  01 F6 D1 03 01 74 6C 6B  .#f..........tlk
22C0: 31 1C 3B 80 52 0D 80 F0  FF FF 7F F0 FF FF 7F 73  1.;.R..........s
22D0: 62 35 32 45 0D 80 F0 FF  FF 7F F0 FF FF 7F 74 6B  b52E..........tk
22E0: 31 30 01 80 1C 3B 80 2B  FD D1 03 01 EE 80 23 1C  10...;.+......#.
22F0: 1A 80 52 0D 80 F0 FF FF  7F F0 FF FF 7F 74 6B 31  ..R..........tk1
2300: 30 45 0D 80 F0 FF FF 7F  F0 FF FF 7F 73 62 35 34  0E..........sb54
2310: 01 80 6E F6 D1 03 01 1B  80 99 F6 D1 03 01 2B F6  ..n...........+.
2320: D1 03 01 EF 80 23 1C 1A  80 52 0D 80 F0 FF FF 7F  .....#...R......
2330: F0 FF FF 7F 73 62 35 34  45 0D 80 F0 FF FF 7F F0  ....sb54E.......
2340: FF FF 7F 73 62 35 33 01  80 1C 11 80 7B FD D1 03  ...sb53.....{...
2350: 01 66 18 80 F6 D1 03 01  F6 D1 03 01 74 6C 6B 30  .f..........tlk0
2360: 2B F6 D1 03 01 F0 80 23  1C 1A 80 66 18 80 F6 D1  +......#...f....
2370: 03 01 F6 D1 03 01 74 6C  6B 31 52 0D 80 F0 FF FF  ......tlk1R.....
2380: 7F F0 FF FF 7F 73 62 35  33 45 0D 80 F0 FF FF 7F  .....sb53E......
2390: F0 FF FF 7F 73 62 35 35  01 80 1C F1 80 5B D4 80  ....sb55.....[..
23A0: 09 D2 03 01 09 D2 03 01  61 73 74 31 5B D4 80 0D  ........ast1[...
23B0: D2 03 01 0D D2 03 01 61  73 74 31 66 4E 80 FD D1  .......ast1fN...
23C0: 03 01 FD D1 03 01 74 77  61 30 2B FD D1 03 01 F2  ......twa0+.....
23D0: 80 23 1C 1A 80 66 01 80  FD D1 03 01 FD D1 03 01  .#...f..........
23E0: 74 77 61 31 52 0D 80 F0  FF FF 7F F0 FF FF 7F 73  twa1R..........s
23F0: 62 35 35 45 0D 80 F0 FF  FF 7F F0 FF FF 7F 73 62  b55E..........sb
2400: 35 37 01 80 27 10 09 D2  03 01 04 27 10 0D D2 03  57..'......'....
2410: 01 04 2A 10 09 D2 03 01  52 0D 80 F0 FF FF 7F F0  ..*.....R.......
2420: FF FF 7F 73 62 35 37 45  0D 80 F0 FF FF 7F F0 FF  ...sb57E........
2430: FF 7F 74 6B 31 34 01 80  66 18 80 F6 D1 03 01 F6  ..tk14..f.......
2440: D1 03 01 6F 62 69 30 2B  F6 D1 03 01 F3 80 23 52  ...obi0+......#R
2450: 0D 80 F0 FF FF 7F F0 FF  FF 7F 74 6B 31 34 45 0D  ..........tk14E.
2460: 80 F0 FF FF 7F F0 FF FF  7F 73 62 35 39 01 80 6E  .........sb59..n
2470: F0 FF FF 7F 69 80 99 F0  FF FF 7F 2B F6 D1 03 01  ....i......+....
2480: F4 80 23 1C 3B 80 52 0D  80 F0 FF FF 7F F0 FF FF  ..#.;.R.........
2490: 7F 73 62 35 39 45 0D 80  F0 FF FF 7F F0 FF FF 7F  .sb59E..........
24A0: 74 6B 31 31 01 80 24 E2  80 01 80 01 80 25 02 00  tk11..$......%..
24B0: 10 01 80 00 C8 24 52 0D  80 F0 FF FF 7F F0 FF FF  .....$R.........
24C0: 7F 74 6B 31 31 01 10 25  02 00 10 B6 80 00 10 25  .tk11..%.......%
24D0: 52 0D 80 F0 FF FF 7F F0  FF FF 7F 74 6B 31 31 45  R..........tk11E
24E0: 0D 80 F0 FF FF 7F F0 FF  FF 7F 74 6B 31 32 01 80  ..........tk12..
24F0: 1C 28 80 2B F6 D1 03 01  F5 80 23 52 0D 80 F0 FF  .(.+......#R....
2500: FF 7F F0 FF FF 7F 74 6B  31 32 01 95 24 01 10 25  ......tk12..$..%
2510: 45 0D 80 F0 FF FF 7F F0  FF FF 7F 73 62 36 30 01  E..........sb60.
2520: 80 1C 3B 80 66 18 80 F6  D1 03 01 F6 D1 03 01 6F  ..;.f..........o
2530: 62 69 31 2B F6 D1 03 01  F6 80 23 1C 1A 80 52 0D  bi1+......#...R.
2540: 80 F0 FF FF 7F F0 FF FF  7F 73 62 36 30 45 0D 80  .........sb60E..
2550: F0 FF FF 7F F0 FF FF 7F  73 62 36 33 01 80 27 10  ........sb63..'.
2560: 07 D2 03 01 1C 2B FD D1  03 01 F7 80 23 1C 1A 80  .....+......#...
2570: 79 00 08 D2 03 01 FD D1  03 01 4A 08 D2 03 01 FD  y.........J.....
2580: D1 03 01 5B D4 80 0D D2  03 01 0D D2 03 01 61 73  ...[..........as
2590: 74 31 53 0D D2 03 01 0D  D2 03 01 61 73 74 31 2A  t1S........ast1*
25A0: 10 07 D2 03 01 52 0D 80  F0 FF FF 7F F0 FF FF 7F  .....R..........
25B0: 73 62 36 33 45 0D 80 F0  FF FF 7F F0 FF FF 7F 73  sb63E..........s
25C0: 62 36 32 01 80 1C 1A 80  53 FD D1 03 01 FD D1 03  b62.....S.......
25D0: 01 74 68 6B 32 2B FD D1  03 01 F8 80 23 5B D4 80  .thk2+......#[..
25E0: 08 D2 03 01 08 D2 03 01  61 73 74 31 1C 1A 80 66  ........ast1...f
25F0: 36 80 08 D2 03 01 08 D2  03 01 61 6B 61 30 2B 08  6.........aka0+.
2600: D2 03 01 F9 80 23 1C 1A  80 53 08 D2 03 01 08 D2  .....#...S......
2610: 03 01 61 6B 61 30 45 00  80 F0 FF FF 7F F0 FF FF  ..aka0E.........
2620: 7F 66 64 6F 31 01 80 55  00 80 F0 FF FF 7F F0 FF  .fdo1..U........
2630: FF 7F 66 64 6F 31 52 0D  80 F0 FF FF 7F F0 FF FF  ..fdo1R.........
2640: 7F 73 62 36 32 66 36 80  08 D2 03 01 08 D2 03 01  .sb62f6.........
2650: 61 6B 61 31 BA F0 FF FF  7F FA 80 FB 80 01 80 FC  aka1............
2660: 80 BA F6 D1 03 01 FD 80  FB 80 01 80 FC 80 BA F9  ................
2670: D1 03 01 FE 80 FF 80 01  80 7A 80 BA FD D1 03 01  .........z......
2680: C9 80 CA 80 01 80 00 81  BA 08 D2 03 01 01 81 02  ................
2690: 81 01 80 01 80 BA 09 D2  03 01 01 81 03 81 01 80  ................
26A0: 01 80 BA 0A D2 03 01 01  81 04 81 01 80 01 80 BA  ................
26B0: 0B D2 03 01 01 81 05 81  01 80 01 80 BA 0C D2 03  ................
26C0: 01 06 81 02 81 01 80 CB  80 BA 0D D2 03 01 06 81  ................
26D0: 03 81 01 80 CB 80 BA 0E  D2 03 01 06 81 04 81 01  ................
26E0: 80 CB 80 BA 0F D2 03 01  06 81 05 81 01 80 CB 80  ................
26F0: 80 F0 FF FF 7F 80 F6 D1  03 01 80 F9 D1 03 01 80  ................
2700: FD D1 03 01 80 08 D2 03  01 80 09 D2 03 01 80 0A  ................
2710: D2 03 01 80 0B D2 03 01  80 0C D2 03 01 80 0D D2  ................
2720: 03 01 80 0E D2 03 01 80  0F D2 03 01 80 10 D2 03  ................
2730: 01 80 11 D2 03 01 80 12  D2 03 01 80 13 D2 03 01  ................
2740: 80 14 D2 03 01 80 15 D2  03 01 80 16 D2 03 01 79  ...............y
2750: 00 F0 FF FF 7F F0 FF FF  7F 7B F6 D1 03 01 7B F9  .........{....{.
2760: D1 03 01 7B FD D1 03 01  7B 08 D2 03 01 7B 09 D2  ...{....{....{..
2770: 03 01 7B 0A D2 03 01 7B  0B D2 03 01 7B 0C D2 03  ..{....{....{...
2780: 01 7B 0D D2 03 01 7B 0E  D2 03 01 7B 0F D2 03 01  .{....{....{....
2790: 7B 10 D2 03 01 7B 11 D2  03 01 7B 12 D2 03 01 7B  {....{....{....{
27A0: 13 D2 03 01 7B 14 D2 03  01 7B 15 D2 03 01 7B 16  ....{....{....{.
27B0: D2 03 01 5B D4 80 FD D1  03 01 FD D1 03 01 61 73  ...[..........as
27C0: 74 30 5B D4 80 08 D2 03  01 08 D2 03 01 61 73 74  t0[..........ast
27D0: 30 5B D4 80 09 D2 03 01  09 D2 03 01 61 73 74 30  0[..........ast0
27E0: 5B D4 80 0A D2 03 01 0A  D2 03 01 61 73 74 30 5B  [..........ast0[
27F0: D4 80 0B D2 03 01 0B D2  03 01 61 73 74 30 5B D4  ..........ast0[.
2800: 80 0C D2 03 01 0C D2 03  01 61 73 74 30 5B D4 80  .........ast0[..
2810: 0D D2 03 01 0D D2 03 01  61 73 74 30 5B D4 80 0E  ........ast0[...
2820: D2 03 01 0E D2 03 01 61  73 74 30 5B D4 80 0F D2  .......ast0[....
2830: 03 01 0F D2 03 01 61 73  74 30 53 FD D1 03 01 FD  ......ast0S.....
2840: D1 03 01 61 73 74 30 53  08 D2 03 01 08 D2 03 01  ...ast0S........
2850: 61 73 74 30 53 09 D2 03  01 09 D2 03 01 61 73 74  ast0S........ast
2860: 30 53 0A D2 03 01 0A D2  03 01 61 73 74 30 53 0B  0S........ast0S.
2870: D2 03 01 0B D2 03 01 61  73 74 30 53 0C D2 03 01  .......ast0S....
2880: 0C D2 03 01 61 73 74 30  53 0D D2 03 01 0D D2 03  ....ast0S.......
2890: 01 61 73 74 30 53 0E D2  03 01 0E D2 03 01 61 73  .ast0S........as
28A0: 74 30 53 0F D2 03 01 0F  D2 03 01 61 73 74 30 1C  t0S........ast0.
28B0: 65 80 48 94 80 23 27 10  F0 FF FF 7F 35 1C 3B 80  e.H..#'.....5.;.
28C0: 27 10 F6 D1 03 01 1D 1C  28 80 45 0D 80 F0 FF FF  '.......(.E.....
28D0: 7F F0 FF FF 7F 73 62 36  35 01 80 45 00 80 F0 FF  .....sb65..E....
28E0: FF 7F F0 FF FF 7F 66 64  69 31 01 80 55 00 80 F0  ......fdi1..U...
28F0: FF FF 7F F0 FF FF 7F 66  64 69 31 1C 1C 80 27 10  .......fdi1...'.
2900: F9 D1 03 01 1E 1C 1C 80  52 0D 80 F0 FF FF 7F F0  ........R.......
2910: FF FF 7F 73 62 36 35 45  0D 80 F0 FF FF 7F F0 FF  ...sb65E........
2920: FF 7F 73 62 36 37 01 80  1C 07 81 52 0D 80 F0 FF  ..sb67.....R....
2930: FF 7F F0 FF FF 7F 73 62  36 37 45 0D 80 F0 FF FF  ......sb67E.....
2940: 7F F0 FF FF 7F 73 62 37  30 01 80 5B D4 80 FD D1  .....sb70..[....
2950: 03 01 FD D1 03 01 79 72  65 30 2B FD D1 03 01 08  ......yre0+.....
2960: 81 23 1C 1A 80 2A 10 F9  D1 03 01 4B F9 D1 03 01  .#...*.....K....
2970: 09 81 79 00 F9 D1 03 01  FD D1 03 01 52 0D 80 F0  ..y.........R...
2980: FF FF 7F F0 FF FF 7F 73  62 37 30 45 0D 80 F0 FF  .......sb70E....
2990: FF 7F F0 FF FF 7F 73 62  37 31 01 80 6F 76 F9 D1  ......sb71..ov..
29A0: 03 01 2B F9 D1 03 01 0A  81 23 1C 1A 80 52 0D 80  ..+......#...R..
29B0: F0 FF FF 7F F0 FF FF 7F  73 62 37 31 45 0D 80 F0  ........sb71E...
29C0: FF FF 7F F0 FF FF 7F 73  62 37 32 01 80 2B FD D1  .......sb72..+..
29D0: 03 01 0B 81 23 1C 1A 80  52 0D 80 F0 FF FF 7F F0  ....#...R.......
29E0: FF FF 7F 73 62 37 32 45  0D 80 F0 FF FF 7F F0 FF  ...sb72E........
29F0: FF 7F 73 62 37 33 01 80  66 0C 81 F9 D1 03 01 F9  ..sb73..f.......
2A00: D1 03 01 61 6B 61 30 2B  F9 D1 03 01 0D 81 23 1C  ...aka0+......#.
2A10: 0C 80 5D 01 80 00 80 6A  01 80 0C 80 3B 80 45 00  ..]....j....;.E.
2A20: 80 F0 FF FF 7F F0 FF FF  7F 66 64 6F 31 01 80 55  .........fdo1..U
2A30: 00 80 F0 FF FF 7F F0 FF  FF 7F 66 64 6F 31 52 0D  ..........fdo1R.
2A40: 80 F0 FF FF 7F F0 FF FF  7F 73 62 37 33 7A 00 F6  .........sb73z..
2A50: D1 03 01 7A 00 F0 FF FF  7F 7A 00 F3 D1 03 01 66  ...z.....z.....f
2A60: 0C 81 F9 D1 03 01 F9 D1  03 01 61 6B 61 31 5D 01  ..........aka1].
2A70: 80 C3 80 1C C3 80 34 17  80 77 C5 80 B6 80 1C B5  ......4..w......
2A80: 80 45 0E 81 F0 FF FF 7F  F0 FF FF 7F 6E 6F 73 65  .E..........nose
2A90: 01 80 55 0E 81 F0 FF FF  7F F0 FF FF 7F 6E 6F 73  ..U..........nos
2AA0: 65 6A 0F 81 0C 80 3B 80  2D F0 FF FF 7F F0 FF FF  ej....;.-.......
2AB0: 7F 31 70 62 31 1C 1A 80  AB 09 29 10 12 D2 03 01  .1pb1.....).....
2AC0: 04 29 10 13 D2 03 01 04  BA F0 FF FF 7F 10 81 11  .)..............
2AD0: 81 12 81 13 81 BA F6 D1  03 01 10 81 14 81 12 81  ................
2AE0: 13 81 BA 12 D2 03 01 15  81 16 81 17 81 18 81 BA  ................
2AF0: 13 D2 03 01 19 81 1A 81  17 81 1B 81 80 F0 FF FF  ................
2B00: 7F 80 F6 D1 03 01 80 12  D2 03 01 80 13 D2 03 01  ................
2B10: 79 00 F0 FF FF 7F F0 FF  FF 7F 7B F6 D1 03 01 7B  y.........{....{
2B20: 12 D2 03 01 7B 13 D2 03  01 48 94 80 23 5C 00 1C  ....{....H..#\..
2B30: 81 5C 01 1C 81 9A 27 10  F6 D1 03 01 1E 1C 3B 80  .\....'.......;.
2B40: 27 10 F0 FF FF 7F 36 1C  1A 80 45 0D 80 F0 FF FF  '.....6...E.....
2B50: 7F F0 FF FF 7F 73 62 38  32 01 80 45 00 80 F0 FF  .....sb82..E....
2B60: FF 7F F0 FF FF 7F 66 64  69 31 01 80 55 00 80 F0  ......fdi1..U...
2B70: FF FF 7F F0 FF FF 7F 66  64 69 31 1C 07 81 52 0D  .......fdi1...R.
2B80: 80 F0 FF FF 7F F0 FF FF  7F 73 62 38 32 45 0D 80  .........sb82E..
2B90: F0 FF FF 7F F0 FF FF 7F  73 62 38 33 01 80 2A 10  ........sb83..*.
2BA0: F6 D1 03 01 66 0B 80 F6  D1 03 01 F6 D1 03 01 74  ....f..........t
2BB0: 6C 6B 30 2B F6 D1 03 01  1D 81 23 1C 1A 80 66 0B  lk0+......#...f.
2BC0: 80 F6 D1 03 01 F6 D1 03  01 74 6C 6B 31 4A F0 FF  .........tlk1J..
2BD0: FF 7F F6 D1 03 01 52 0D  80 F0 FF FF 7F F0 FF FF  ......R.........
2BE0: 7F 73 62 38 33 45 0D 80  F0 FF FF 7F F0 FF FF 7F  .sb83E..........
2BF0: 73 62 38 34 01 80 53 F6  D1 03 01 F6 D1 03 01 74  sb84..S........t
2C00: 6C 6B 31 6E F6 D1 03 01  1B 80 99 F6 D1 03 01 2B  lk1n...........+
2C10: F6 D1 03 01 1E 81 23 1C  1A 80 1C 3B 80 52 0D 80  ......#....;.R..
2C20: F0 FF FF 7F F0 FF FF 7F  73 62 38 34 45 0D 80 F0  ........sb84E...
2C30: FF FF 7F F0 FF FF 7F 73  62 38 36 01 80 1C 1A 80  .......sb86.....
2C40: 53 F6 D1 03 01 F6 D1 03  01 74 6C 6B 31 66 0B 80  S........tlk1f..
2C50: F6 D1 03 01 F6 D1 03 01  74 6C 6B 30 2B F6 D1 03  ........tlk0+...
2C60: 01 1F 81 23 6E F0 FF FF  7F 45 80 99 F0 FF FF 7F  ...#n....E......
2C70: 66 0B 80 F6 D1 03 01 F6  D1 03 01 74 6C 6B 31 1C  f..........tlk1.
2C80: 5B 80 52 0D 80 F0 FF FF  7F F0 FF FF 7F 73 62 38  [.R..........sb8
2C90: 36 45 0D 80 F0 FF FF 7F  F0 FF FF 7F 73 62 38 39  6E..........sb89
2CA0: 01 80 53 F6 D1 03 01 F6  D1 03 01 67 75 64 31 66  ..S........gud1f
2CB0: 0B 80 F6 D1 03 01 F6 D1  03 01 74 6C 6B 30 03 02  ..........tlk0..
2CC0: 10 42 80 2B F6 D1 03 01  20 81 23 1C 1A 80 66 0B  .B.+.... .#...f.
2CD0: 80 F6 D1 03 01 F6 D1 03  01 74 6C 6B 31 1C 3B 80  .........tlk1.;.
2CE0: 52 0D 80 F0 FF FF 7F F0  FF FF 7F 73 62 38 39 45  R..........sb89E
2CF0: 0D 80 F0 FF FF 7F F0 FF  FF 7F 73 62 39 30 01 80  ..........sb90..
2D00: 1C 0C 80 66 0B 80 F6 D1  03 01 F6 D1 03 01 74 68  ...f..........th
2D10: 6B 31 2B F6 D1 03 01 21  81 23 1C 1A 80 66 0B 80  k1+....!.#...f..
2D20: F6 D1 03 01 F6 D1 03 01  74 68 6B 32 53 F6 D1 03  ........thk2S...
2D30: 01 F6 D1 03 01 74 68 6B  32 52 0D 80 F0 FF FF 7F  .....thk2R......
2D40: F0 FF FF 7F 73 62 39 30  45 0D 80 F0 FF FF 7F F0  ....sb90E.......
2D50: FF FF 7F 73 62 39 31 01  80 6E F6 D1 03 01 69 80  ...sb91..n....i.
2D60: 99 F6 D1 03 01 2B F6 D1  03 01 22 81 23 1C 3B 80  .....+....".#.;.
2D70: 52 0D 80 F0 FF FF 7F F0  FF FF 7F 73 62 39 31 45  R..........sb91E
2D80: 0D 80 F0 FF FF 7F F0 FF  FF 7F 74 6B 31 33 01 80  ..........tk13..
2D90: 1C 3B 80 66 0B 80 F6 D1  03 01 F6 D1 03 01 74 6C  .;.f..........tl
2DA0: 6B 30 2B F6 D1 03 01 23  81 23 1C 3B 80 66 0B 80  k0+....#.#.;.f..
2DB0: F6 D1 03 01 F6 D1 03 01  74 6C 6B 31 1C 3B 80 52  ........tlk1.;.R
2DC0: 0D 80 F0 FF FF 7F F0 FF  FF 7F 74 6B 31 33 45 0D  ..........tk13E.
2DD0: 80 F0 FF FF 7F F0 FF FF  7F 73 62 39 32 01 80 27  .........sb92..'
2DE0: 10 07 D2 03 01 1F 03 02  10 42 80 6E F0 FF FF 7F  .........B.n....
2DF0: 1B 80 99 F0 FF FF 7F 2B  F6 D1 03 01 24 81 23 1C  .......+....$.#.
2E00: 1A 80 2A 10 07 D2 03 01  66 18 80 F6 D1 03 01 F6  ..*.....f.......
2E10: D1 03 01 6D 6F 6A 31 52  0D 80 F0 FF FF 7F F0 FF  ...moj1R........
2E20: FF 7F 73 62 39 32 45 0D  80 F0 FF FF 7F F0 FF FF  ..sb92E.........
2E30: 7F 73 62 38 37 01 80 53  F6 D1 03 01 F6 D1 03 01  .sb87..S........
2E40: 6D 6F 6A 31 27 10 07 D2  03 01 1D 2B F6 D1 03 01  moj1'......+....
2E50: 25 81 23 6E F0 FF FF 7F  02 80 99 F0 FF FF 7F 1C  %.#n............
2E60: 65 80 2A 10 07 D2 03 01  1C 0C 80 5D 01 80 00 80  e.*........]....
2E70: 45 00 80 F0 FF FF 7F F0  FF FF 7F 66 64 6F 31 01  E..........fdo1.
2E80: 80 55 00 80 F0 FF FF 7F  F0 FF FF 7F 66 64 6F 31  .U..........fdo1
2E90: 52 0D 80 F0 FF FF 7F F0  FF FF 7F 73 62 38 37 52  R..........sb87R
2EA0: 0D 80 F0 FF FF 7F F0 FF  FF 7F 73 62 38 38 7A 00  ..........sb88z.
2EB0: F0 FF FF 7F 35 26 81 78  1C B6 80 AB 0A 29 10 F9  ....5&.x.....)..
2EC0: D1 03 01 1B 29 10 08 D2  03 01 03 29 10 09 D2 03  ....)......)....
2ED0: 01 03 29 10 0A D2 03 01  03 29 10 0B D2 03 01 03  ..)......)......
2EE0: 29 10 0C D2 03 01 03 29  10 0D D2 03 01 03 29 10  )......)......).
2EF0: 0E D2 03 01 05 29 10 0F  D2 03 01 05 29 10 12 D2  .....)......)...
2F00: 03 01 05 29 10 13 D2 03  01 05 5C 00 01 80 5C 01  ...)......\...\.
2F10: 01 80 9A 46 00 2D F0 FF  FF 7F F0 FF FF 7F 31 70  ...F.-........1p
2F20: 62 31 2D F0 FF FF 7F F0  FF FF 7F 32 70 62 31 53  b1-........2pb1S
2F30: F0 FF FF 7F F0 FF FF 7F  31 70 62 31 53 F0 FF FF  ........1pb1S...
2F40: 7F F0 FF FF 7F 32 70 62  31 02 09 10 01 80 00 65  .....2pb1......e
2F50: 2F 45 00 80 F0 FF FF 7F  F0 FF FF 7F 66 64 69 32  /E..........fdi2
2F60: 01 80 01 65 2F 21 00                              ...e/!.         
```

#### Opcodes

```
  0: 0x07E9 [0x42] SET_CLI_EVENT_CANCEL_DATA()
  1: 0x07EA [0x45] LOAD_SCHEDULED_TASK: Load scheduler "fdo1" with entities [LocalPlayer, LocalPlayer], work=[200*, 0*]
  2: 0x07FB [0x55] WAIT_LOAD_SCHEDULER: Wait for scheduler "fdo1" with entities [LocalPlayer, LocalPlayer], work=200*
  3: 0x080A [0x46] CAMERA_CONTROL: Disable user control
  4: 0x080C [0x38] SET_CLIENT_EVENT_MODE(mode=19*)
  5: 0x080F [0x29] REQ_SET_WAIT(priority=0x10, entity_id=??? (ID: 17027577/0x0103D1F9), tag_num=0x1A)
  6: 0x0816 [0x92] Fari-Wari (ID: 17027574/0x0103D1F6)->Render.Flags3 ^= 0x01
  7: 0x081C [0x92] Gadalar (ID: 17027575/0x0103D1F7)->Render.Flags3 ^= 0x01
  8: 0x0822 [0x92] ??? (ID: 17027577/0x0103D1F9)->Render.Flags3 ^= 0x01
  9: 0x0828 [0x92] Malzaab (ID: 17027581/0x0103D1FD)->Render.Flags3 ^= 0x01
 10: 0x082E [0x92] Rudhinaaf (ID: 17027592/0x0103D208)->Render.Flags3 ^= 0x01
 11: 0x0834 [0x92] hei02 (ID: 17027593/0x0103D209)->Render.Flags3 ^= 0x01
 12: 0x083A [0x92] hei03 (ID: 17027594/0x0103D20A)->Render.Flags3 ^= 0x01
 13: 0x0840 [0x92] hei04 (ID: 17027595/0x0103D20B)->Render.Flags3 ^= 0x01
 14: 0x0846 [0x92] hei05 (ID: 17027596/0x0103D20C)->Render.Flags3 ^= 0x01
 15: 0x084C [0x92] hei06 (ID: 17027597/0x0103D20D)->Render.Flags3 ^= 0x01
 16: 0x0852 [0x92] hei07 (ID: 17027598/0x0103D20E)->Render.Flags3 ^= 0x01
 17: 0x0858 [0x92] hei08 (ID: 17027599/0x0103D20F)->Render.Flags3 ^= 0x01
 18: 0x085E [0x92] hei09 (ID: 17027600/0x0103D210)->Render.Flags3 ^= 0x01
 19: 0x0864 [0x92] hei10 (ID: 17027601/0x0103D211)->Render.Flags3 ^= 0x01
 20: 0x086A [0x92] Nabitham (ID: 17027602/0x0103D212)->Render.Flags3 ^= 0x01
 21: 0x0870 [0x92] fumetsu02 (ID: 17027603/0x0103D213)->Render.Flags3 ^= 0x01
 22: 0x0876 [0x92] fumetsu03 (ID: 17027604/0x0103D214)->Render.Flags3 ^= 0x01
 23: 0x087C [0x92] fumetsu04 (ID: 17027605/0x0103D215)->Render.Flags3 ^= 0x01
 24: 0x0882 [0x92] fumetsu05 (ID: 17027606/0x0103D216)->Render.Flags3 ^= 0x01
 25: 0x0888 [0x92] yagu1 (ID: 17027609/0x0103D219)->Render.Flags3 ^= 0x01
 26: 0x088E [0x92] yagu2 (ID: 17027610/0x0103D21A)->Render.Flags3 ^= 0x01
 27: 0x0894 [0x92] yagu3 (ID: 17027611/0x0103D21B)->Render.Flags3 ^= 0x01
 28: 0x089A [0x94] LocalPlayer->Render.Flags3 ^= 0x01
 29: 0x08A0 [0x94] Fari-Wari (ID: 17027574/0x0103D1F6)->Render.Flags3 ^= 0x01
 30: 0x08A6 [0x94] Gadalar (ID: 17027575/0x0103D1F7)->Render.Flags3 ^= 0x01
 31: 0x08AC [0x94] ??? (ID: 17027577/0x0103D1F9)->Render.Flags3 ^= 0x01
 32: 0x08B2 [0x94] Malzaab (ID: 17027581/0x0103D1FD)->Render.Flags3 ^= 0x01
 33: 0x08B8 [0x94] Rudhinaaf (ID: 17027592/0x0103D208)->Render.Flags3 ^= 0x01
 34: 0x08BE [0x94] hei02 (ID: 17027593/0x0103D209)->Render.Flags3 ^= 0x01
 35: 0x08C4 [0x94] hei03 (ID: 17027594/0x0103D20A)->Render.Flags3 ^= 0x01
 36: 0x08CA [0x94] hei04 (ID: 17027595/0x0103D20B)->Render.Flags3 ^= 0x01
 37: 0x08D0 [0x94] hei05 (ID: 17027596/0x0103D20C)->Render.Flags3 ^= 0x01
 38: 0x08D6 [0x94] hei06 (ID: 17027597/0x0103D20D)->Render.Flags3 ^= 0x01
 39: 0x08DC [0x94] hei07 (ID: 17027598/0x0103D20E)->Render.Flags3 ^= 0x01
 40: 0x08E2 [0x94] hei08 (ID: 17027599/0x0103D20F)->Render.Flags3 ^= 0x01
 41: 0x08E8 [0x94] hei09 (ID: 17027600/0x0103D210)->Render.Flags3 ^= 0x01
 42: 0x08EE [0x94] hei10 (ID: 17027601/0x0103D211)->Render.Flags3 ^= 0x01
 43: 0x08F4 [0x94] Nabitham (ID: 17027602/0x0103D212)->Render.Flags3 ^= 0x01
 44: 0x08FA [0x94] fumetsu02 (ID: 17027603/0x0103D213)->Render.Flags3 ^= 0x01
 45: 0x0900 [0x94] fumetsu03 (ID: 17027604/0x0103D214)->Render.Flags3 ^= 0x01
 46: 0x0906 [0x94] fumetsu04 (ID: 17027605/0x0103D215)->Render.Flags3 ^= 0x01
 47: 0x090C [0x94] fumetsu05 (ID: 17027606/0x0103D216)->Render.Flags3 ^= 0x01
 48: 0x0912 [0x94] yagu1 (ID: 17027609/0x0103D219)->Render.Flags3 ^= 0x01
 49: 0x0918 [0x94] yagu2 (ID: 17027610/0x0103D21A)->Render.Flags3 ^= 0x01
 50: 0x091E [0x94] yagu3 (ID: 17027611/0x0103D21B)->Render.Flags3 ^= 0x01
 51: 0x0924 [0x4E] SET_ENTITY_HIDE_FLAG: Show Fari-Wari (ID: 17027574/0x0103D1F6)
 52: 0x092A [0x4E] SET_ENTITY_HIDE_FLAG: Show Gadalar (ID: 17027575/0x0103D1F7)
 53: 0x0930 [0x4E] SET_ENTITY_HIDE_FLAG: Show ??? (ID: 17027577/0x0103D1F9)
 54: 0x0936 [0x4E] SET_ENTITY_HIDE_FLAG: Show Malzaab (ID: 17027581/0x0103D1FD)
 55: 0x093C [0x2F] Fari-Wari (ID: 17027574/0x0103D1F6)->Render.Flags0 &= ~0x80000 // Bit 19
 56: 0x0942 [0x2F] LocalPlayer->Render.Flags0 &= ~0x80000 // Bit 19
 57: 0x0948 [0xBA] SET_ENTITY_POSITION(entity_id=LocalPlayer, pos_x=821.616*, pos_z=226.130*, pos_y=-14.138*, direction=290.0°*)
 58: 0x0955 [0xBA] SET_ENTITY_POSITION(entity_id=Fari-Wari (ID: 17027574/0x0103D1F6), pos_x=822.890*, pos_z=223.595*, pos_y=-14.576*, direction=281.2°*)
 59: 0x0962 [0x4E] SET_ENTITY_HIDE_FLAG: Show Rudhinaaf (ID: 17027592/0x0103D208)
 60: 0x0968 [0xBA] SET_ENTITY_POSITION(entity_id=Rudhinaaf (ID: 17027592/0x0103D208), pos_x=0.008*, pos_z=0.009*, pos_y=0.003*, direction=0.0°*)
 61: 0x0975 [0x2F] hei02 (ID: 17027593/0x0103D209)->Render.Flags0 &= ~0x80000 // Bit 19
 62: 0x097B [0x4E] SET_ENTITY_HIDE_FLAG: Show hei02 (ID: 17027593/0x0103D209)
 63: 0x0981 [0xBA] SET_ENTITY_POSITION(entity_id=hei02 (ID: 17027593/0x0103D209), pos_x=0.008*, pos_z=0.009*, pos_y=0.003*, direction=0.0°*)
 64: 0x098E [0x80] LOAD_WAIT(entity=LocalPlayer)
 65: 0x0993 [0x80] LOAD_WAIT(entity=Fari-Wari (ID: 17027574/0x0103D1F6))
 66: 0x0998 [0x80] LOAD_WAIT(entity=Gadalar (ID: 17027575/0x0103D1F7))
 67: 0x099D [0x80] LOAD_WAIT(entity=??? (ID: 17027577/0x0103D1F9))
 68: 0x09A2 [0x80] LOAD_WAIT(entity=Malzaab (ID: 17027581/0x0103D1FD))
 69: 0x09A7 [0x80] LOAD_WAIT(entity=Rudhinaaf (ID: 17027592/0x0103D208))
 70: 0x09AC [0x80] LOAD_WAIT(entity=hei02 (ID: 17027593/0x0103D209))
 71: 0x09B1 [0x80] LOAD_WAIT(entity=hei03 (ID: 17027594/0x0103D20A))
 72: 0x09B6 [0x80] LOAD_WAIT(entity=hei04 (ID: 17027595/0x0103D20B))
 73: 0x09BB [0x80] LOAD_WAIT(entity=hei05 (ID: 17027596/0x0103D20C))
 74: 0x09C0 [0x80] LOAD_WAIT(entity=hei06 (ID: 17027597/0x0103D20D))
 75: 0x09C5 [0x80] LOAD_WAIT(entity=hei07 (ID: 17027598/0x0103D20E))
 76: 0x09CA [0x80] LOAD_WAIT(entity=hei08 (ID: 17027599/0x0103D20F))
 77: 0x09CF [0x80] LOAD_WAIT(entity=hei09 (ID: 17027600/0x0103D210))
 78: 0x09D4 [0x80] LOAD_WAIT(entity=hei10 (ID: 17027601/0x0103D211))
 79: 0x09D9 [0x80] LOAD_WAIT(entity=Nabitham (ID: 17027602/0x0103D212))
 80: 0x09DE [0x80] LOAD_WAIT(entity=fumetsu02 (ID: 17027603/0x0103D213))
 81: 0x09E3 [0x80] LOAD_WAIT(entity=fumetsu03 (ID: 17027604/0x0103D214))
 82: 0x09E8 [0x80] LOAD_WAIT(entity=fumetsu04 (ID: 17027605/0x0103D215))
 83: 0x09ED [0x80] LOAD_WAIT(entity=fumetsu05 (ID: 17027606/0x0103D216))
 84: 0x09F2 [0x80] LOAD_WAIT(entity=yagu1 (ID: 17027609/0x0103D219))
 85: 0x09F7 [0x80] LOAD_WAIT(entity=yagu2 (ID: 17027610/0x0103D21A))
 86: 0x09FC [0x80] LOAD_WAIT(entity=yagu3 (ID: 17027611/0x0103D21B))
 87: 0x0A01 [0x79] LocalPlayer looks at LocalPlayer (Basic look)
 88: 0x0A0B [0x7B] Fari-Wari (ID: 17027574/0x0103D1F6) stops talking
 89: 0x0A10 [0x7B] Gadalar (ID: 17027575/0x0103D1F7) stops talking
 90: 0x0A15 [0x7B] ??? (ID: 17027577/0x0103D1F9) stops talking
 91: 0x0A1A [0x7B] Malzaab (ID: 17027581/0x0103D1FD) stops talking
 92: 0x0A1F [0x7B] Rudhinaaf (ID: 17027592/0x0103D208) stops talking
 93: 0x0A24 [0x7B] hei02 (ID: 17027593/0x0103D209) stops talking
 94: 0x0A29 [0x7B] hei03 (ID: 17027594/0x0103D20A) stops talking
 95: 0x0A2E [0x7B] hei04 (ID: 17027595/0x0103D20B) stops talking
 96: 0x0A33 [0x7B] hei05 (ID: 17027596/0x0103D20C) stops talking
 97: 0x0A38 [0x7B] hei06 (ID: 17027597/0x0103D20D) stops talking
 98: 0x0A3D [0x7B] hei07 (ID: 17027598/0x0103D20E) stops talking
 99: 0x0A42 [0x7B] hei08 (ID: 17027599/0x0103D20F) stops talking
100: 0x0A47 [0x7B] hei09 (ID: 17027600/0x0103D210) stops talking
101: 0x0A4C [0x7B] hei10 (ID: 17027601/0x0103D211) stops talking
102: 0x0A51 [0x7B] Nabitham (ID: 17027602/0x0103D212) stops talking
103: 0x0A56 [0x7B] fumetsu02 (ID: 17027603/0x0103D213) stops talking
104: 0x0A5B [0x7B] fumetsu03 (ID: 17027604/0x0103D214) stops talking
105: 0x0A60 [0x7B] fumetsu04 (ID: 17027605/0x0103D215) stops talking
106: 0x0A65 [0x7B] fumetsu05 (ID: 17027606/0x0103D216) stops talking
107: 0x0A6A [0x7B] yagu1 (ID: 17027609/0x0103D219) stops talking
108: 0x0A6F [0x7B] yagu2 (ID: 17027610/0x0103D21A) stops talking
109: 0x0A74 [0x7B] yagu3 (ID: 17027611/0x0103D21B) stops talking
110: 0x0A79 [0x27] REQ_SET(priority=0x10, entity_id=LocalPlayer, tag_num=0x30)
111: 0x0A80 [0x27] REQ_SET(priority=0x10, entity_id=Fari-Wari (ID: 17027574/0x0103D1F6), tag_num=0x1A)
112: 0x0A87 [0x1C] WAIT(15* ticks)
