# 17027576 - Shayeeha

## Common Data

| Field            | Value                  |
|------------------|------------------------|
| Zone             | Mount Zhayolm (ID: 61) |
| Block Size       | 2364 bytes             |
| Total Events     | 61                     |
| References Count | 156                    |

## List of Events

| Event ID                   | Entrypoint   |   Size |   Instructions |
|----------------------------|--------------|--------|----------------|
| [65535](#event-65535)      | 0x0000       |      1 |              1 |
| [65535.1](#event-655351)   | 0x0001       |      1 |              1 |
| [65535.2](#event-655352)   | 0x0002       |     18 |              4 |
| [65535.3](#event-655353)   | 0x0014       |     10 |              2 |
| [65535.4](#event-655354)   | 0x001E       |      9 |              3 |
| [65535.5](#event-655355)   | 0x0027       |      9 |              3 |
| [65535.6](#event-655356)   | 0x0030       |     10 |              2 |
| [65535.7](#event-655357)   | 0x003A       |     10 |              2 |
| [17](#event-17)            | 0x0044       |      4 |              2 |
| [18](#event-18)            | 0x0048       |      4 |              2 |
| [65535.8](#event-655358)   | 0x004C       |     19 |              4 |
| [65535.9](#event-655359)   | 0x005F       |     19 |              4 |
| [65535.10](#event-6553510) | 0x0072       |     19 |              4 |
| [65535.11](#event-6553511) | 0x0085       |     19 |              4 |
| [65535.12](#event-6553512) | 0x0098       |     19 |              4 |
| [65535.13](#event-6553513) | 0x00AB       |     19 |              4 |
| [65535.14](#event-6553514) | 0x00BE       |     19 |              4 |
| [65535.15](#event-6553515) | 0x00D1       |     34 |              7 |
| [65535.16](#event-6553516) | 0x00F3       |     19 |              4 |
| [65535.17](#event-6553517) | 0x0106       |     13 |              3 |
| [65535.18](#event-6553518) | 0x0113       |     29 |              6 |
| [65535.19](#event-6553519) | 0x0130       |     19 |              4 |
| [65535.20](#event-6553520) | 0x0143       |     37 |              7 |
| [65535.21](#event-6553521) | 0x0168       |     19 |              4 |
| [65535.22](#event-6553522) | 0x017B       |     21 |              2 |
| [65535.23](#event-6553523) | 0x0190       |     21 |              2 |
| [65535.24](#event-6553524) | 0x01A5       |     19 |              4 |
| [65535.25](#event-6553525) | 0x01B8       |     34 |              7 |
| [65535.26](#event-6553526) | 0x01DA       |     32 |              7 |
| [65535.27](#event-6553527) | 0x01FA       |     19 |              4 |
| [65535.28](#event-6553528) | 0x020D       |     19 |              4 |
| [65535.29](#event-6553529) | 0x0220       |     19 |              4 |
| [65535.30](#event-6553530) | 0x0233       |     12 |              4 |
| [65535.31](#event-6553531) | 0x023F       |     12 |              4 |
| [65535.32](#event-6553532) | 0x024B       |     42 |              8 |
| [65535.33](#event-6553533) | 0x0275       |     42 |              8 |
| [65535.34](#event-6553534) | 0x029F       |     42 |              8 |
| [65535.35](#event-6553535) | 0x02C9       |     42 |              8 |
| [65535.36](#event-6553536) | 0x02F3       |     42 |              8 |
| [65535.37](#event-6553537) | 0x031D       |     42 |              8 |
| [65535.38](#event-6553538) | 0x0347       |     42 |              8 |
| [65535.39](#event-6553539) | 0x0371       |     42 |              8 |
| [65535.40](#event-6553540) | 0x039B       |     12 |              4 |
| [65535.41](#event-6553541) | 0x03A7       |     12 |              4 |
| [65535.42](#event-6553542) | 0x03B3       |     12 |              4 |
| [65535.43](#event-6553543) | 0x03BF       |     12 |              4 |
| [65535.44](#event-6553544) | 0x03CB       |     30 |              8 |
| [65535.45](#event-6553545) | 0x03E9       |     27 |              5 |
| [65535.46](#event-6553546) | 0x0404       |     27 |              7 |
| [65535.47](#event-6553547) | 0x041F       |     12 |              4 |
| [65535.48](#event-6553548) | 0x042B       |     37 |              5 |
| [65535.49](#event-6553549) | 0x0450       |    185 |             37 |
| [65535.50](#event-6553550) | 0x0509       |     82 |             14 |
| [65535.51](#event-6553551) | 0x055B       |     12 |              3 |
| [65535.52](#event-6553552) | 0x0567       |     12 |              3 |
| [65535.53](#event-6553553) | 0x0573       |     12 |              3 |
| [65535.54](#event-6553554) | 0x057F       |     12 |              3 |
| [65535.55](#event-6553555) | 0x058B       |     21 |              2 |
| [65535.56](#event-6553556) | 0x05A0       |     21 |              2 |
| [65535.57](#event-6553557) | 0x05B5       |     15 |              5 |
| [65535.58](#event-6553558) | 0x05C4       |      3 |              2 |

## DAT References (imed_data)

|   Index | Hex Value   |   Dec Value |
|---------|-------------|-------------|
|       0 | 0x0000      |           0 |
|       1 | 0x0001      |           1 |
|       2 | 0x0080      |         128 |
|       3 | 0x000B      |          11 |
|       4 | 0xDBB7E     |      899966 |
|       5 | 0x2C9E1     |      182753 |
|       6 | 0xFFFFE401  |  4294960129 |
|       7 | 0x000C      |          12 |
|       8 | 0xD76E4     |      882404 |
|       9 | 0x2C70C     |      182028 |
|      10 | 0xFFFFE00A  |  4294959114 |
|      11 | 0x000D      |          13 |
|      12 | 0xD5DE9     |      876009 |
|      13 | 0x2C122     |      180514 |
|      14 | 0xFFFFDF60  |  4294958944 |
|      15 | 0x000E      |          14 |
|      16 | 0xD415C     |      868700 |
|      17 | 0x2C080     |      180352 |
|      18 | 0xFFFFD9C0  |  4294957504 |
|      19 | 0x000F      |          15 |
|      20 | 0xD2490     |      861328 |
|      21 | 0x2AC46     |      175174 |
|      22 | 0xFFFFD18A  |  4294955402 |
|      23 | 0xC5ACD     |      809677 |
|      24 | 0x3802A     |      229418 |
|      25 | 0xFFFFC793  |  4294952851 |
|      26 | 0xD7E3A     |      884282 |
|      27 | 0x2BAD1     |      178897 |
|      28 | 0xFFFFDC59  |  4294958169 |
|      29 | 0xD6922     |      878882 |
|      30 | 0x2C248     |      180808 |
|      31 | 0xFFFFE094  |  4294959252 |
|      32 | 0xC96DA     |      825050 |
|      33 | 0x37C9B     |      228507 |
|      34 | 0xFFFFC8B2  |  4294953138 |
|      35 | 0x0012      |          18 |
|      36 | 0x0026      |          38 |
|      37 | 0xC5D81     |      810369 |
|      38 | 0x39691     |      235153 |
|      39 | 0xFFFFC9B5  |  4294953397 |
|      40 | 0xFFFFFC74  |  4294966388 |
|      41 | 0xFFFF1DA5  |  4294909349 |
|      42 | 0x222E7     |      140007 |
|      43 | 0x0311      |         785 |
|      44 | 0xFFFFF830  |  4294965296 |
|      45 | 0x0378      |         888 |
|      46 | 0x1C9B6     |      117174 |
|      47 | 0x0004      |           4 |
|      48 | 0x00AE      |         174 |
|      49 | 0x00AB      |         171 |
|      50 | 0x015E      |         350 |
|      51 | 0x00B3      |         179 |
|      52 | 0x0060      |          96 |
|      53 | 0x006E      |         110 |
|      54 | 0xC828A     |      819850 |
|      55 | 0x33838     |      211000 |
|      56 | 0xFFFFBA56  |  4294949462 |
|      57 | 0xC6A7F     |      813695 |
|      58 | 0x389CB     |      231883 |
|      59 | 0xFFFFC9B1  |  4294953393 |
|      60 | 0x009A      |         154 |
|      61 | 0xFFFF9882  |  4294940802 |
|      62 | 0x03E8      |        1000 |
|      63 | 0x0028      |          40 |
|      64 | 0xC39C7     |      801223 |
|      65 | 0x442F9     |      279289 |
|      66 | 0xFFFFAA10  |  4294945296 |
|      67 | 0x0029      |          41 |
|      68 | 0xC26FD     |      796413 |
|      69 | 0x44C5D     |      281693 |
|      70 | 0xC20C6     |      794822 |
|      71 | 0x444E8     |      279784 |
|      72 | 0xFFFFAA09  |  4294945289 |
|      73 | 0xBFC98     |      785560 |
|      74 | 0x48949     |      297289 |
|      75 | 0xFFFFA8D5  |  4294944981 |
|      76 | 0xD07A0     |      853920 |
|      77 | 0x3CDC1     |      249281 |
|      78 | 0xFFFFC758  |  4294952792 |
|      79 | 0xFFF6CBC7  |  4294364103 |
|      80 | 0xFFFA5D9D  |  4294598045 |
|      81 | 0xFFFFBD82  |  4294950274 |
|      82 | 0x0359      |         857 |
|      83 | 0xFFF6D921  |  4294367521 |
|      84 | 0xFFFA6F81  |  4294602625 |
|      85 | 0xFFFFC126  |  4294951206 |
|      86 | 0xFFF6DAC8  |  4294367944 |
|      87 | 0xFFFA64B0  |  4294599856 |
|      88 | 0xFFFFBFCE  |  4294950862 |
|      89 | 0xFFF6E09F  |  4294369439 |
|      90 | 0xFFFA6B89  |  4294601609 |
|      91 | 0xFFFFC0A8  |  4294951080 |
|      92 | 0xFFF72F68  |  4294389608 |
|      93 | 0xFFFA7B66  |  4294605670 |
|      94 | 0xFFFFD63D  |  4294956605 |
|      95 | 0xFFF73A73  |  4294392435 |
|      96 | 0xFFFA77CC  |  4294604748 |
|      97 | 0xFFFFD8F0  |  4294957296 |
|      98 | 0xFFF74072  |  4294393970 |
|      99 | 0xFFFA7FB1  |  4294606769 |
|     100 | 0xFFF74440  |  4294394944 |
|     101 | 0xFFFA7317  |  4294603543 |
|     102 | 0xFFF67B97  |  4294343575 |
|     103 | 0xFFF9BB89  |  4294556553 |
|     104 | 0xFFFFB69F  |  4294948511 |
|     105 | 0xFFF681D5  |  4294345173 |
|     106 | 0xFFF9BA9D  |  4294556317 |
|     107 | 0xFFFFB6D2  |  4294948562 |
|     108 | 0xFFF67489  |  4294341769 |
|     109 | 0xFFF9B168  |  4294553960 |
|     110 | 0xFFFFB85E  |  4294948958 |
|     111 | 0xFFF67ABE  |  4294343358 |
|     112 | 0xFFF9A6D0  |  4294551248 |
|     113 | 0xFFFFB9AF  |  4294949295 |
|     114 | 0xFFF6BCD8  |  4294360280 |
|     115 | 0xFFFA5F7E  |  4294598526 |
|     116 | 0xFFFFBDD8  |  4294950360 |
|     117 | 0x0003      |           3 |
|     118 | 0xFFF6B1C2  |  4294357442 |
|     119 | 0xFFFA3E5A  |  4294590042 |
|     120 | 0xFFFFB9B0  |  4294949296 |
|     121 | 0xFFF6A973  |  4294355315 |
|     122 | 0xFFFA356C  |  4294587756 |
|     123 | 0xFFF6A63C  |  4294354492 |
|     124 | 0xFFFA3D47  |  4294589767 |
|     125 | 0x0005      |           5 |
|     126 | 0x0002      |           2 |
|     127 | 0x000A      |          10 |
|     128 | 0x0009      |           9 |
|     129 | 0x0046      |          70 |
|     130 | 0x008C      |         140 |
|     131 | 0x00D2      |         210 |
|     132 | 0xCF0A3     |      848035 |
|     133 | 0x3D536     |      251190 |
|     134 | 0xFFFFC9B9  |  4294953401 |
|     135 | 0x01A0      |         416 |
|     136 | 0xCE0BE     |      843966 |
|     137 | 0x3D788     |      251784 |
|     138 | 0xFFFFCAC5  |  4294953669 |
|     139 | 0x0C00      |        3072 |
|     140 | 0xD0020     |      852000 |
|     141 | 0x407B7     |      264119 |
|     142 | 0xFFFFCA18  |  4294953496 |
|     143 | 0x0600      |        1536 |
|     144 | 0x0680      |        1664 |
|     145 | 0xD1FC3     |      860099 |
|     146 | 0x40740     |      264000 |
|     147 | 0xFFFFCA7D  |  4294953597 |
|     148 | 0x080F      |        2063 |
|     149 | 0x0082      |         130 |
|     150 | 0x00B0      |         176 |
|     151 | 0x008D      |         141 |
|     152 | 0x016E      |         366 |
|     153 | 0xD1B08     |      858888 |
|     154 | 0x3BE43     |      245315 |
|     155 | 0xFFFFC796  |  4294952854 |

## Events

### Event 65535

#### Metadata

| Field        | Value   |
|--------------|---------|
| Entrypoint   | 0x0000  |
| Data Size    | 1 bytes |
| Instructions | 1       |

```
      00 01 02 03 04 05 06 07  08 09 0A 0B 0C 0D 0E 0F
      -- -- -- -- -- -- -- --  -- -- -- -- -- -- -- --
0000: 00                                                .               
```

#### Opcodes

```
  0: 0x0000 [0x00] END_REQSTACK()
```

### Event 65535.1

#### Metadata

| Field        | Value   |
|--------------|---------|
| Entrypoint   | 0x0001  |
| Data Size    | 1 bytes |
| Instructions | 1       |

```
      00 01 02 03 04 05 06 07  08 09 0A 0B 0C 0D 0E 0F
      -- -- -- -- -- -- -- --  -- -- -- -- -- -- -- --
0000:    00                                              .              
```

#### Opcodes

```
  0: 0x0001 [0x00] END_REQSTACK()
```

### Event 65535.2

#### Metadata

| Field        | Value    |
|--------------|----------|
| Entrypoint   | 0x0002   |
| Data Size    | 18 bytes |
| Instructions | 4        |

```
      00 01 02 03 04 05 06 07  08 09 0A 0B 0C 0D 0E 0F
      -- -- -- -- -- -- -- --  -- -- -- -- -- -- -- --
0000:       22 00 2F 00 F8 FF  FF 7F 6C F8 FF FF 7F 00    "./.....l.....
0010: 80 01 80 00                                       ....            
```

#### Opcodes

```
  0: 0x0002 [0x22] ENTITY_HIDE_FLAG(enabled=0x00)
  1: 0x0004 [0x2F] EventEntity->Render.Flags0 &= ~0x80000 // Bit 19
  2: 0x000A [0x6C] FADE_ENTITY_COLOR(entity_id=EventEntity, end_alpha=0*, fade_time=1*)
  3: 0x0013 [0x00] END_REQSTACK()
```

### Event 65535.3

#### Metadata

| Field        | Value    |
|--------------|----------|
| Entrypoint   | 0x0014   |
| Data Size    | 10 bytes |
| Instructions | 2        |

```
      00 01 02 03 04 05 06 07  08 09 0A 0B 0C 0D 0E 0F
      -- -- -- -- -- -- -- --  -- -- -- -- -- -- -- --
0010:             6C F8 FF FF  7F 02 80 01 80 00            l.........  
```

#### Opcodes

```
  0: 0x0014 [0x6C] FADE_ENTITY_COLOR(entity_id=EventEntity, end_alpha=128*, fade_time=1*)
  1: 0x001D [0x00] END_REQSTACK()
```

### Event 65535.4

#### Metadata

| Field        | Value   |
|--------------|---------|
| Entrypoint   | 0x001E  |
| Data Size    | 9 bytes |
| Instructions | 3       |

```
      00 01 02 03 04 05 06 07  08 09 0A 0B 0C 0D 0E 0F
      -- -- -- -- -- -- -- --  -- -- -- -- -- -- -- --
0010:                                            22 00                ".
0020: 2F 00 F8 FF FF 7F 00                              /......         
```

#### Opcodes

```
  0: 0x001E [0x22] ENTITY_HIDE_FLAG(enabled=0x00)
  1: 0x0020 [0x2F] EventEntity->Render.Flags0 &= ~0x80000 // Bit 19
  2: 0x0026 [0x00] END_REQSTACK()
```

### Event 65535.5

#### Metadata

| Field        | Value   |
|--------------|---------|
| Entrypoint   | 0x0027  |
| Data Size    | 9 bytes |
| Instructions | 3       |

```
      00 01 02 03 04 05 06 07  08 09 0A 0B 0C 0D 0E 0F
      -- -- -- -- -- -- -- --  -- -- -- -- -- -- -- --
0020:                      22  01 2F 01 F8 FF FF 7F 00         "./......
```

#### Opcodes

```
  0: 0x0027 [0x22] ENTITY_HIDE_FLAG(enabled=0x01)
  1: 0x0029 [0x2F] EventEntity->Render.Flags0 |= 0x80000 // Bit 19
  2: 0x002F [0x00] END_REQSTACK()
```

### Event 65535.6

#### Metadata

| Field        | Value    |
|--------------|----------|
| Entrypoint   | 0x0030   |
| Data Size    | 10 bytes |
| Instructions | 2        |

```
      00 01 02 03 04 05 06 07  08 09 0A 0B 0C 0D 0E 0F
      -- -- -- -- -- -- -- --  -- -- -- -- -- -- -- --
0030: 6C F8 FF FF 7F 00 80 01  80 00                    l.........      
```

#### Opcodes

```
  0: 0x0030 [0x6C] FADE_ENTITY_COLOR(entity_id=EventEntity, end_alpha=0*, fade_time=1*)
  1: 0x0039 [0x00] END_REQSTACK()
```

### Event 65535.7

#### Metadata

| Field        | Value    |
|--------------|----------|
| Entrypoint   | 0x003A   |
| Data Size    | 10 bytes |
| Instructions | 2        |

```
      00 01 02 03 04 05 06 07  08 09 0A 0B 0C 0D 0E 0F
      -- -- -- -- -- -- -- --  -- -- -- -- -- -- -- --
0030:                                6C F8 FF FF 7F 02            l.....
0040: 80 01 80 00                                       ....            
```

#### Opcodes

```
  0: 0x003A [0x6C] FADE_ENTITY_COLOR(entity_id=EventEntity, end_alpha=128*, fade_time=1*)
  1: 0x0043 [0x00] END_REQSTACK()
```

### Event 17

#### Metadata

| Field        | Value   |
|--------------|---------|
| Entrypoint   | 0x0044  |
| Data Size    | 4 bytes |
| Instructions | 2       |

```
      00 01 02 03 04 05 06 07  08 09 0A 0B 0C 0D 0E 0F
      -- -- -- -- -- -- -- --  -- -- -- -- -- -- -- --
0040:             C0 01 80 00                               ....        
```

#### Opcodes

```
  0: 0x0044 [0xC0] EventEntity->Render.Flags3 |= 0x1000 // Set bit 12 (from 1*)
  1: 0x0047 [0x00] END_REQSTACK()
```

### Event 18

#### Metadata

| Field        | Value   |
|--------------|---------|
| Entrypoint   | 0x0048  |
| Data Size    | 4 bytes |
| Instructions | 2       |

```
      00 01 02 03 04 05 06 07  08 09 0A 0B 0C 0D 0E 0F
      -- -- -- -- -- -- -- --  -- -- -- -- -- -- -- --
0040:                          C0 01 80 00                      ....    
```

#### Opcodes

```
  0: 0x0048 [0xC0] EventEntity->Render.Flags3 |= 0x1000 // Set bit 12 (from 1*)
  1: 0x004B [0x00] END_REQSTACK()
```

### Event 65535.8

#### Metadata

| Field        | Value    |
|--------------|----------|
| Entrypoint   | 0x004C   |
| Data Size    | 19 bytes |
| Instructions | 4        |

```
      00 01 02 03 04 05 06 07  08 09 0A 0B 0C 0D 0E 0F
      -- -- -- -- -- -- -- --  -- -- -- -- -- -- -- --
0040:                                      59 04 F7 D1              Y...
0050: 03 01 03 80 1F 00 04 80  05 80 06 80 1F 01 00     ............... 
```

#### Opcodes

```
  0: 0x004C [0x59] UPDATE_ENTITY_DATA: Set Gadalar (ID: 17027575/0x0103D1F7) main speed = 11* * 0.1
  1: 0x0054 [0x1F] MOVE_ENTITY: EventEntity moves to X=899.966*, Z=182.753*, Y=-7.167*
  2: 0x005C [0x1F] MOVE_ENTITY: Update entity position (mode=1)
  3: 0x005E [0x00] END_REQSTACK()
```

### Event 65535.9

#### Metadata

| Field        | Value    |
|--------------|----------|
| Entrypoint   | 0x005F   |
| Data Size    | 19 bytes |
| Instructions | 4        |

```
      00 01 02 03 04 05 06 07  08 09 0A 0B 0C 0D 0E 0F
      -- -- -- -- -- -- -- --  -- -- -- -- -- -- -- --
0050:                                               59                 Y
0060: 04 F7 D1 03 01 07 80 1F  00 08 80 09 80 0A 80 1F  ................
0070: 01 00                                             ..              
```

#### Opcodes

```
  0: 0x005F [0x59] UPDATE_ENTITY_DATA: Set Gadalar (ID: 17027575/0x0103D1F7) main speed = 12* * 0.1
  1: 0x0067 [0x1F] MOVE_ENTITY: EventEntity moves to X=882.404*, Z=182.028*, Y=-8.182*
  2: 0x006F [0x1F] MOVE_ENTITY: Update entity position (mode=1)
  3: 0x0071 [0x00] END_REQSTACK()
```

### Event 65535.10

#### Metadata

| Field        | Value    |
|--------------|----------|
| Entrypoint   | 0x0072   |
| Data Size    | 19 bytes |
| Instructions | 4        |

```
      00 01 02 03 04 05 06 07  08 09 0A 0B 0C 0D 0E 0F
      -- -- -- -- -- -- -- --  -- -- -- -- -- -- -- --
0070:       59 04 F7 D1 03 01  0B 80 1F 00 0C 80 0D 80    Y.............
0080: 0E 80 1F 01 00                                    .....           
```

#### Opcodes

```
  0: 0x0072 [0x59] UPDATE_ENTITY_DATA: Set Gadalar (ID: 17027575/0x0103D1F7) main speed = 13* * 0.1
  1: 0x007A [0x1F] MOVE_ENTITY: EventEntity moves to X=876.009*, Z=180.514*, Y=-8.352*
  2: 0x0082 [0x1F] MOVE_ENTITY: Update entity position (mode=1)
  3: 0x0084 [0x00] END_REQSTACK()
```

### Event 65535.11

#### Metadata

| Field        | Value    |
|--------------|----------|
| Entrypoint   | 0x0085   |
| Data Size    | 19 bytes |
| Instructions | 4        |

```
      00 01 02 03 04 05 06 07  08 09 0A 0B 0C 0D 0E 0F
      -- -- -- -- -- -- -- --  -- -- -- -- -- -- -- --
0080:                59 04 F7  D1 03 01 0F 80 1F 00 10       Y..........
0090: 80 11 80 12 80 1F 01 00                           ........        
```

#### Opcodes

```
  0: 0x0085 [0x59] UPDATE_ENTITY_DATA: Set Gadalar (ID: 17027575/0x0103D1F7) main speed = 14* * 0.1
  1: 0x008D [0x1F] MOVE_ENTITY: EventEntity moves to X=868.700*, Z=180.352*, Y=-9.792*
  2: 0x0095 [0x1F] MOVE_ENTITY: Update entity position (mode=1)
  3: 0x0097 [0x00] END_REQSTACK()
```

### Event 65535.12

#### Metadata

| Field        | Value    |
|--------------|----------|
| Entrypoint   | 0x0098   |
| Data Size    | 19 bytes |
| Instructions | 4        |

```
      00 01 02 03 04 05 06 07  08 09 0A 0B 0C 0D 0E 0F
      -- -- -- -- -- -- -- --  -- -- -- -- -- -- -- --
0090:                          59 04 F7 D1 03 01 13 80          Y.......
00A0: 1F 00 14 80 15 80 16 80  1F 01 00                 ...........     
```

#### Opcodes

```
  0: 0x0098 [0x59] UPDATE_ENTITY_DATA: Set Gadalar (ID: 17027575/0x0103D1F7) main speed = 15* * 0.1
  1: 0x00A0 [0x1F] MOVE_ENTITY: EventEntity moves to X=861.328*, Z=175.174*, Y=-11.894*
  2: 0x00A8 [0x1F] MOVE_ENTITY: Update entity position (mode=1)
  3: 0x00AA [0x00] END_REQSTACK()
```

### Event 65535.13

#### Metadata

| Field        | Value    |
|--------------|----------|
| Entrypoint   | 0x00AB   |
| Data Size    | 19 bytes |
| Instructions | 4        |

```
      00 01 02 03 04 05 06 07  08 09 0A 0B 0C 0D 0E 0F
      -- -- -- -- -- -- -- --  -- -- -- -- -- -- -- --
00A0:                                   59 04 F7 D1 03             Y....
00B0: 01 07 80 1F 00 17 80 18  80 19 80 1F 01 00        ..............  
```

#### Opcodes

```
  0: 0x00AB [0x59] UPDATE_ENTITY_DATA: Set Gadalar (ID: 17027575/0x0103D1F7) main speed = 12* * 0.1
  1: 0x00B3 [0x1F] MOVE_ENTITY: EventEntity moves to X=809.677*, Z=229.418*, Y=-14.445*
  2: 0x00BB [0x1F] MOVE_ENTITY: Update entity position (mode=1)
  3: 0x00BD [0x00] END_REQSTACK()
```

### Event 65535.14

#### Metadata

| Field        | Value    |
|--------------|----------|
| Entrypoint   | 0x00BE   |
| Data Size    | 19 bytes |
| Instructions | 4        |

```
      00 01 02 03 04 05 06 07  08 09 0A 0B 0C 0D 0E 0F
      -- -- -- -- -- -- -- --  -- -- -- -- -- -- -- --
00B0:                                            59 04                Y.
00C0: F6 D1 03 01 0F 80 1F 00  1A 80 1B 80 1C 80 1F 01  ................
00D0: 00                                                .               
```

#### Opcodes

```
  0: 0x00BE [0x59] UPDATE_ENTITY_DATA: Set Fari-Wari (ID: 17027574/0x0103D1F6) main speed = 14* * 0.1
  1: 0x00C6 [0x1F] MOVE_ENTITY: EventEntity moves to X=884.282*, Z=178.897*, Y=-9.127*
  2: 0x00CE [0x1F] MOVE_ENTITY: Update entity position (mode=1)
  3: 0x00D0 [0x00] END_REQSTACK()
```

### Event 65535.15

#### Metadata

| Field        | Value    |
|--------------|----------|
| Entrypoint   | 0x00D1   |
| Data Size    | 34 bytes |
| Instructions | 7        |

```
      00 01 02 03 04 05 06 07  08 09 0A 0B 0C 0D 0E 0F
      -- -- -- -- -- -- -- --  -- -- -- -- -- -- -- --
00D0:    59 04 F6 D1 03 01 0F  80 1F 00 1D 80 1E 80 1F   Y..............
00E0: 80 1F 01 6F 4A F6 D1 03  01 07 D2 03 01 7B F6 D1  ...oJ........{..
00F0: 03 01 00                                          ...             
```

#### Opcodes

```
  0: 0x00D1 [0x59] UPDATE_ENTITY_DATA: Set Fari-Wari (ID: 17027574/0x0103D1F6) main speed = 14* * 0.1
  1: 0x00D9 [0x1F] MOVE_ENTITY: EventEntity moves to X=878.882*, Z=180.808*, Y=-8.044*
  2: 0x00E1 [0x1F] MOVE_ENTITY: Update entity position (mode=1)
  3: 0x00E3 [0x6F] WAIT_FRAME_DELAY: Yield until WaitTime reaches zero
  4: 0x00E4 [0x4A] Fari-Wari (ID: 17027574/0x0103D1F6) looks at ??? (ID: 17027591/0x0103D207)
  5: 0x00ED [0x7B] Fari-Wari (ID: 17027574/0x0103D1F6) stops talking
  6: 0x00F2 [0x00] END_REQSTACK()
```

### Event 65535.16

#### Metadata

| Field        | Value    |
|--------------|----------|
| Entrypoint   | 0x00F3   |
| Data Size    | 19 bytes |
| Instructions | 4        |

```
      00 01 02 03 04 05 06 07  08 09 0A 0B 0C 0D 0E 0F
      -- -- -- -- -- -- -- --  -- -- -- -- -- -- -- --
00F0:          59 04 F6 D1 03  01 0B 80 1F 00 20 80 21     Y......... .!
0100: 80 22 80 1F 01 00                                 ."....          
```

#### Opcodes

```
  0: 0x00F3 [0x59] UPDATE_ENTITY_DATA: Set Fari-Wari (ID: 17027574/0x0103D1F6) main speed = 13* * 0.1
  1: 0x00FB [0x1F] MOVE_ENTITY: EventEntity moves to X=825.050*, Z=228.507*, Y=-14.158*
  2: 0x0103 [0x1F] MOVE_ENTITY: Update entity position (mode=1)
  3: 0x0105 [0x00] END_REQSTACK()
```

### Event 65535.17

#### Metadata

| Field        | Value    |
|--------------|----------|
| Entrypoint   | 0x0106   |
| Data Size    | 13 bytes |
| Instructions | 3        |

```
      00 01 02 03 04 05 06 07  08 09 0A 0B 0C 0D 0E 0F
      -- -- -- -- -- -- -- --  -- -- -- -- -- -- -- --
0100:                   6E F6  D1 03 01 23 80 99 F6 D1        n....#....
0110: 03 01 00                                          ...             
```

#### Opcodes

```
  0: 0x0106 [0x6E] Fari-Wari (ID: 17027574/0x0103D1F6) uses emote 18*
  1: 0x010D [0x99] Wait for Fari-Wari (ID: 17027574/0x0103D1F6) animation to complete
  2: 0x0112 [0x00] END_REQSTACK()
```

### Event 65535.18

#### Metadata

| Field        | Value    |
|--------------|----------|
| Entrypoint   | 0x0113   |
| Data Size    | 29 bytes |
| Instructions | 6        |

```
      00 01 02 03 04 05 06 07  08 09 0A 0B 0C 0D 0E 0F
      -- -- -- -- -- -- -- --  -- -- -- -- -- -- -- --
0110:          59 04 F6 D1 03  01 24 80 1F 00 25 80 26     Y.....$...%.&
0120: 80 27 80 1F 01 6F 4A F6  D1 03 01 0C D2 03 01 00  .'...oJ.........
```

#### Opcodes

```
  0: 0x0113 [0x59] UPDATE_ENTITY_DATA: Set Fari-Wari (ID: 17027574/0x0103D1F6) main speed = 38* * 0.1
  1: 0x011B [0x1F] MOVE_ENTITY: EventEntity moves to X=810.369*, Z=235.153*, Y=-13.899*
  2: 0x0123 [0x1F] MOVE_ENTITY: Update entity position (mode=1)
  3: 0x0125 [0x6F] WAIT_FRAME_DELAY: Yield until WaitTime reaches zero
  4: 0x0126 [0x4A] Fari-Wari (ID: 17027574/0x0103D1F6) looks at hei05 (ID: 17027596/0x0103D20C)
  5: 0x012F [0x00] END_REQSTACK()
```

### Event 65535.19

#### Metadata

| Field        | Value    |
|--------------|----------|
| Entrypoint   | 0x0130   |
| Data Size    | 19 bytes |
| Instructions | 4        |

```
      00 01 02 03 04 05 06 07  08 09 0A 0B 0C 0D 0E 0F
      -- -- -- -- -- -- -- --  -- -- -- -- -- -- -- --
0130: 59 04 F6 D1 03 01 07 80  1F 00 28 80 29 80 00 80  Y.........(.)...
0140: 1F 01 00                                          ...             
```

#### Opcodes

```
  0: 0x0130 [0x59] UPDATE_ENTITY_DATA: Set Fari-Wari (ID: 17027574/0x0103D1F6) main speed = 12* * 0.1
  1: 0x0138 [0x1F] MOVE_ENTITY: EventEntity moves to X=-0.908*, Z=-57.947*, Y=0.000*
  2: 0x0140 [0x1F] MOVE_ENTITY: Update entity position (mode=1)
  3: 0x0142 [0x00] END_REQSTACK()
```

### Event 65535.20

#### Metadata

| Field        | Value    |
|--------------|----------|
| Entrypoint   | 0x0143   |
| Data Size    | 37 bytes |
| Instructions | 7        |

```
      00 01 02 03 04 05 06 07  08 09 0A 0B 0C 0D 0E 0F
      -- -- -- -- -- -- -- --  -- -- -- -- -- -- -- --
0140:          59 04 F6 D1 03  01 0B 80 1F 00 2A 80 2B     Y.........*.+
0150: 80 2C 80 1F 01 6F 79 00  F6 D1 03 01 F0 FF FF 7F  .,...oy.........
0160: 4B F6 D1 03 01 2D 80 00                           K....-..        
```

#### Opcodes

```
  0: 0x0143 [0x59] UPDATE_ENTITY_DATA: Set Fari-Wari (ID: 17027574/0x0103D1F6) main speed = 13* * 0.1
  1: 0x014B [0x1F] MOVE_ENTITY: EventEntity moves to X=140.007*, Z=0.785*, Y=-2.000*
  2: 0x0153 [0x1F] MOVE_ENTITY: Update entity position (mode=1)
  3: 0x0155 [0x6F] WAIT_FRAME_DELAY: Yield until WaitTime reaches zero
  4: 0x0156 [0x79] Fari-Wari (ID: 17027574/0x0103D1F6) looks at LocalPlayer (Basic look)
  5: 0x0160 [0x4B] UPDATE_ENTITY_YAW(entity=Fari-Wari (ID: 17027574/0x0103D1F6), yaw=4.9°*)
  6: 0x0167 [0x00] END_REQSTACK()
```

### Event 65535.21

#### Metadata

| Field        | Value    |
|--------------|----------|
| Entrypoint   | 0x0168   |
| Data Size    | 19 bytes |
| Instructions | 4        |

```
      00 01 02 03 04 05 06 07  08 09 0A 0B 0C 0D 0E 0F
      -- -- -- -- -- -- -- --  -- -- -- -- -- -- -- --
0160:                          59 04 F6 D1 03 01 0B 80          Y.......
0170: 1F 00 2E 80 2B 80 2C 80  1F 01 00                 ....+.,....     
```

#### Opcodes

```
  0: 0x0168 [0x59] UPDATE_ENTITY_DATA: Set Fari-Wari (ID: 17027574/0x0103D1F6) main speed = 13* * 0.1
  1: 0x0170 [0x1F] MOVE_ENTITY: EventEntity moves to X=117.174*, Z=0.785*, Y=-2.000*
  2: 0x0178 [0x1F] MOVE_ENTITY: Update entity position (mode=1)
  3: 0x017A [0x00] END_REQSTACK()
```

### Event 65535.22

#### Metadata

| Field        | Value    |
|--------------|----------|
| Entrypoint   | 0x017B   |
| Data Size    | 21 bytes |
| Instructions | 2        |

```
      00 01 02 03 04 05 06 07  08 09 0A 0B 0C 0D 0E 0F
      -- -- -- -- -- -- -- --  -- -- -- -- -- -- -- --
0170:                                   B6 0B 2F 80 0F             ../..
0180: 80 30 80 31 80 31 80 31  80 31 80 32 80 00 80 00  .0.1.1.1.1.2....
```

#### Opcodes

```
  0: 0x017B [0xB6] ENTITY_APPEARANCE_HANDLER(case=Full entity look, race=4*, hair=14*, head=174*, body=171*, hands=171*, legs=171*, feet=171*, main=350*, sub=0*)
  1: 0x018F [0x00] END_REQSTACK()
```

### Event 65535.23

#### Metadata

| Field        | Value    |
|--------------|----------|
| Entrypoint   | 0x0190   |
| Data Size    | 21 bytes |
| Instructions | 2        |

```
      00 01 02 03 04 05 06 07  08 09 0A 0B 0C 0D 0E 0F
      -- -- -- -- -- -- -- --  -- -- -- -- -- -- -- --
0190: B6 0B 2F 80 0F 80 00 80  33 80 34 80 35 80 34 80  ../.....3.4.5.4.
01A0: 32 80 00 80 00                                    2....           
```

#### Opcodes

```
  0: 0x0190 [0xB6] ENTITY_APPEARANCE_HANDLER(case=Full entity look, race=4*, hair=14*, head=0*, body=179*, hands=96*, legs=110*, feet=96*, main=350*, sub=0*)
  1: 0x01A4 [0x00] END_REQSTACK()
```

### Event 65535.24

#### Metadata

| Field        | Value    |
|--------------|----------|
| Entrypoint   | 0x01A5   |
| Data Size    | 19 bytes |
| Instructions | 4        |

```
      00 01 02 03 04 05 06 07  08 09 0A 0B 0C 0D 0E 0F
      -- -- -- -- -- -- -- --  -- -- -- -- -- -- -- --
01A0:                59 04 F9  D1 03 01 0B 80 1F 00 36       Y.........6
01B0: 80 37 80 38 80 1F 01 00                           .7.8....        
```

#### Opcodes

```
  0: 0x01A5 [0x59] UPDATE_ENTITY_DATA: Set ??? (ID: 17027577/0x0103D1F9) main speed = 13* * 0.1
  1: 0x01AD [0x1F] MOVE_ENTITY: EventEntity moves to X=819.850*, Z=211.000*, Y=-17.834*
  2: 0x01B5 [0x1F] MOVE_ENTITY: Update entity position (mode=1)
  3: 0x01B7 [0x00] END_REQSTACK()
```

### Event 65535.25

#### Metadata

| Field        | Value    |
|--------------|----------|
| Entrypoint   | 0x01B8   |
| Data Size    | 34 bytes |
| Instructions | 7        |

```
      00 01 02 03 04 05 06 07  08 09 0A 0B 0C 0D 0E 0F
      -- -- -- -- -- -- -- --  -- -- -- -- -- -- -- --
01B0:                          59 04 F9 D1 03 01 0B 80          Y.......
01C0: 1F 00 39 80 3A 80 3B 80  1F 01 6F 4A F9 D1 03 01  ..9.:.;...oJ....
01D0: 07 D2 03 01 7B F9 D1 03  01 00                    ....{.....      
```

#### Opcodes

```
  0: 0x01B8 [0x59] UPDATE_ENTITY_DATA: Set ??? (ID: 17027577/0x0103D1F9) main speed = 13* * 0.1
  1: 0x01C0 [0x1F] MOVE_ENTITY: EventEntity moves to X=813.695*, Z=231.883*, Y=-13.903*
  2: 0x01C8 [0x1F] MOVE_ENTITY: Update entity position (mode=1)
  3: 0x01CA [0x6F] WAIT_FRAME_DELAY: Yield until WaitTime reaches zero
  4: 0x01CB [0x4A] ??? (ID: 17027577/0x0103D1F9) looks at ??? (ID: 17027591/0x0103D207)
  5: 0x01D4 [0x7B] ??? (ID: 17027577/0x0103D1F9) stops talking
  6: 0x01D9 [0x00] END_REQSTACK()
```

### Event 65535.26

#### Metadata

| Field        | Value    |
|--------------|----------|
| Entrypoint   | 0x01DA   |
| Data Size    | 32 bytes |
| Instructions | 7        |

```
      00 01 02 03 04 05 06 07  08 09 0A 0B 0C 0D 0E 0F
      -- -- -- -- -- -- -- --  -- -- -- -- -- -- -- --
01D0:                                59 04 F9 D1 03 01            Y.....
01E0: 0F 80 1F 00 3C 80 3D 80  00 80 1F 01 6F 4B F9 D1  ....<.=.....oK..
01F0: 03 01 3E 80 7B F9 D1 03  01 00                    ..>.{.....      
```

#### Opcodes

```
  0: 0x01DA [0x59] UPDATE_ENTITY_DATA: Set ??? (ID: 17027577/0x0103D1F9) main speed = 14* * 0.1
  1: 0x01E2 [0x1F] MOVE_ENTITY: EventEntity moves to X=0.154*, Z=-26.494*, Y=0.000*
  2: 0x01EA [0x1F] MOVE_ENTITY: Update entity position (mode=1)
  3: 0x01EC [0x6F] WAIT_FRAME_DELAY: Yield until WaitTime reaches zero
  4: 0x01ED [0x4B] UPDATE_ENTITY_YAW(entity=??? (ID: 17027577/0x0103D1F9), yaw=5.5°*)
  5: 0x01F4 [0x7B] ??? (ID: 17027577/0x0103D1F9) stops talking
  6: 0x01F9 [0x00] END_REQSTACK()
```

### Event 65535.27

#### Metadata

| Field        | Value    |
|--------------|----------|
| Entrypoint   | 0x01FA   |
| Data Size    | 19 bytes |
| Instructions | 4        |

```
      00 01 02 03 04 05 06 07  08 09 0A 0B 0C 0D 0E 0F
      -- -- -- -- -- -- -- --  -- -- -- -- -- -- -- --
01F0:                                59 04 19 D2 03 01            Y.....
0200: 3F 80 1F 00 40 80 41 80  42 80 1F 01 00           ?...@.A.B....   
```

#### Opcodes

```
  0: 0x01FA [0x59] UPDATE_ENTITY_DATA: Set yagu1 (ID: 17027609/0x0103D219) main speed = 40* * 0.1
  1: 0x0202 [0x1F] MOVE_ENTITY: EventEntity moves to X=801.223*, Z=279.289*, Y=-22.000*
  2: 0x020A [0x1F] MOVE_ENTITY: Update entity position (mode=1)
  3: 0x020C [0x00] END_REQSTACK()
```

### Event 65535.28

#### Metadata

| Field        | Value    |
|--------------|----------|
| Entrypoint   | 0x020D   |
| Data Size    | 19 bytes |
| Instructions | 4        |

```
      00 01 02 03 04 05 06 07  08 09 0A 0B 0C 0D 0E 0F
      -- -- -- -- -- -- -- --  -- -- -- -- -- -- -- --
0200:                                         59 04 1A               Y..
0210: D2 03 01 43 80 1F 00 44  80 45 80 42 80 1F 01 00  ...C...D.E.B....
```

#### Opcodes

```
  0: 0x020D [0x59] UPDATE_ENTITY_DATA: Set yagu2 (ID: 17027610/0x0103D21A) main speed = 41* * 0.1
  1: 0x0215 [0x1F] MOVE_ENTITY: EventEntity moves to X=796.413*, Z=281.693*, Y=-22.000*
  2: 0x021D [0x1F] MOVE_ENTITY: Update entity position (mode=1)
  3: 0x021F [0x00] END_REQSTACK()
```

### Event 65535.29

#### Metadata

| Field        | Value    |
|--------------|----------|
| Entrypoint   | 0x0220   |
| Data Size    | 19 bytes |
| Instructions | 4        |

```
      00 01 02 03 04 05 06 07  08 09 0A 0B 0C 0D 0E 0F
      -- -- -- -- -- -- -- --  -- -- -- -- -- -- -- --
0220: 59 04 1B D2 03 01 43 80  1F 00 46 80 47 80 48 80  Y.....C...F.G.H.
0230: 1F 01 00                                          ...             
```

#### Opcodes

```
  0: 0x0220 [0x59] UPDATE_ENTITY_DATA: Set yagu3 (ID: 17027611/0x0103D21B) main speed = 41* * 0.1
  1: 0x0228 [0x1F] MOVE_ENTITY: EventEntity moves to X=794.822*, Z=279.784*, Y=-22.007*
  2: 0x0230 [0x1F] MOVE_ENTITY: Update entity position (mode=1)
  3: 0x0232 [0x00] END_REQSTACK()
```

### Event 65535.30

#### Metadata

| Field        | Value    |
|--------------|----------|
| Entrypoint   | 0x0233   |
| Data Size    | 12 bytes |
| Instructions | 4        |

```
      00 01 02 03 04 05 06 07  08 09 0A 0B 0C 0D 0E 0F
      -- -- -- -- -- -- -- --  -- -- -- -- -- -- -- --
0230:          1F 00 49 80 4A  80 4B 80 1F 01 6F 00        ..I.J.K...o. 
```

#### Opcodes

```
  0: 0x0233 [0x1F] MOVE_ENTITY: EventEntity moves to X=785.560*, Z=297.289*, Y=-22.315*
  1: 0x023B [0x1F] MOVE_ENTITY: Update entity position (mode=1)
  2: 0x023D [0x6F] WAIT_FRAME_DELAY: Yield until WaitTime reaches zero
  3: 0x023E [0x00] END_REQSTACK()
```

### Event 65535.31

#### Metadata

| Field        | Value    |
|--------------|----------|
| Entrypoint   | 0x023F   |
| Data Size    | 12 bytes |
| Instructions | 4        |

```
      00 01 02 03 04 05 06 07  08 09 0A 0B 0C 0D 0E 0F
      -- -- -- -- -- -- -- --  -- -- -- -- -- -- -- --
0230:                                               1F                 .
0240: 00 4C 80 4D 80 4E 80 1F  01 6F 00                 .L.M.N...o.     
```

#### Opcodes

```
  0: 0x023F [0x1F] MOVE_ENTITY: EventEntity moves to X=853.920*, Z=249.281*, Y=-14.504*
  1: 0x0247 [0x1F] MOVE_ENTITY: Update entity position (mode=1)
  2: 0x0249 [0x6F] WAIT_FRAME_DELAY: Yield until WaitTime reaches zero
  3: 0x024A [0x00] END_REQSTACK()
```

### Event 65535.32

#### Metadata

| Field        | Value    |
|--------------|----------|
| Entrypoint   | 0x024B   |
| Data Size    | 42 bytes |
| Instructions | 8        |

```
      00 01 02 03 04 05 06 07  08 09 0A 0B 0C 0D 0E 0F
      -- -- -- -- -- -- -- --  -- -- -- -- -- -- -- --
0240:                                   1F 00 4F 80 50             ..O.P
0250: 80 51 80 1F 01 6F 4A 19  D2 03 01 F8 D1 03 01 6F  .Q...oJ........o
0260: 76 19 D2 03 01 5B 52 80  19 D2 03 01 19 D2 03 01  v....[R.........
0270: 77 6E 64 31 00                                    wnd1.           
```

#### Opcodes

```
  0: 0x024B [0x1F] MOVE_ENTITY: EventEntity moves to X=-603.193*, Z=-369.251*, Y=-17.022*
  1: 0x0253 [0x1F] MOVE_ENTITY: Update entity position (mode=1)
  2: 0x0255 [0x6F] WAIT_FRAME_DELAY: Yield until WaitTime reaches zero
  3: 0x0256 [0x4A] yagu1 (ID: 17027609/0x0103D219) looks at Shayeeha (ID: 17027576/0x0103D1F8)
  4: 0x025F [0x6F] WAIT_FRAME_DELAY: Yield until WaitTime reaches zero
  5: 0x0260 [0x76] CHECK_ENTITY_RENDER_FLAGS: Wait until yagu1 (ID: 17027609/0x0103D219) Render.Flags0 and Render.Flags3 conditions are met
  6: 0x0265 [0x5B] LOAD_EXT_SCHEDULER: Load scheduler "wnd1" with entities [yagu1 (ID: 17027609/0x0103D219), yagu1 (ID: 17027609/0x0103D219)], work=857*
  7: 0x0274 [0x00] END_REQSTACK()
```

### Event 65535.33

#### Metadata

| Field        | Value    |
|--------------|----------|
| Entrypoint   | 0x0275   |
| Data Size    | 42 bytes |
| Instructions | 8        |

```
      00 01 02 03 04 05 06 07  08 09 0A 0B 0C 0D 0E 0F
      -- -- -- -- -- -- -- --  -- -- -- -- -- -- -- --
0270:                1F 00 53  80 54 80 55 80 1F 01 6F       ..S.T.U...o
0280: 4A 1A D2 03 01 F8 D1 03  01 6F 76 1A D2 03 01 5B  J........ov....[
0290: 52 80 1A D2 03 01 1A D2  03 01 32 68 73 30 00     R.........2hs0. 
```

#### Opcodes

```
  0: 0x0275 [0x1F] MOVE_ENTITY: EventEntity moves to X=-599.775*, Z=-364.671*, Y=-16.090*
  1: 0x027D [0x1F] MOVE_ENTITY: Update entity position (mode=1)
  2: 0x027F [0x6F] WAIT_FRAME_DELAY: Yield until WaitTime reaches zero
  3: 0x0280 [0x4A] yagu2 (ID: 17027610/0x0103D21A) looks at Shayeeha (ID: 17027576/0x0103D1F8)
  4: 0x0289 [0x6F] WAIT_FRAME_DELAY: Yield until WaitTime reaches zero
  5: 0x028A [0x76] CHECK_ENTITY_RENDER_FLAGS: Wait until yagu2 (ID: 17027610/0x0103D21A) Render.Flags0 and Render.Flags3 conditions are met
  6: 0x028F [0x5B] LOAD_EXT_SCHEDULER: Load scheduler "2hs0" with entities [yagu2 (ID: 17027610/0x0103D21A), yagu2 (ID: 17027610/0x0103D21A)], work=857*
  7: 0x029E [0x00] END_REQSTACK()
```

### Event 65535.34

#### Metadata

| Field        | Value    |
|--------------|----------|
| Entrypoint   | 0x029F   |
| Data Size    | 42 bytes |
| Instructions | 8        |

```
      00 01 02 03 04 05 06 07  08 09 0A 0B 0C 0D 0E 0F
      -- -- -- -- -- -- -- --  -- -- -- -- -- -- -- --
0290:                                               1F                 .
02A0: 00 56 80 57 80 58 80 1F  01 6F 4A 1B D2 03 01 F8  .V.W.X...oJ.....
02B0: D1 03 01 6F 76 1B D2 03  01 5B 52 80 1B D2 03 01  ...ov....[R.....
02C0: 1B D2 03 01 73 74 66 31  00                       ....stf1.       
```

#### Opcodes

```
  0: 0x029F [0x1F] MOVE_ENTITY: EventEntity moves to X=-599.352*, Z=-367.440*, Y=-16.434*
  1: 0x02A7 [0x1F] MOVE_ENTITY: Update entity position (mode=1)
  2: 0x02A9 [0x6F] WAIT_FRAME_DELAY: Yield until WaitTime reaches zero
  3: 0x02AA [0x4A] yagu3 (ID: 17027611/0x0103D21B) looks at Shayeeha (ID: 17027576/0x0103D1F8)
  4: 0x02B3 [0x6F] WAIT_FRAME_DELAY: Yield until WaitTime reaches zero
  5: 0x02B4 [0x76] CHECK_ENTITY_RENDER_FLAGS: Wait until yagu3 (ID: 17027611/0x0103D21B) Render.Flags0 and Render.Flags3 conditions are met
  6: 0x02B9 [0x5B] LOAD_EXT_SCHEDULER: Load scheduler "stf1" with entities [yagu3 (ID: 17027611/0x0103D21B), yagu3 (ID: 17027611/0x0103D21B)], work=857*
  7: 0x02C8 [0x00] END_REQSTACK()
```

### Event 65535.35

#### Metadata

| Field        | Value    |
|--------------|----------|
| Entrypoint   | 0x02C9   |
| Data Size    | 42 bytes |
| Instructions | 8        |

```
      00 01 02 03 04 05 06 07  08 09 0A 0B 0C 0D 0E 0F
      -- -- -- -- -- -- -- --  -- -- -- -- -- -- -- --
02C0:                             1F 00 59 80 5A 80 5B           ..Y.Z.[
02D0: 80 1F 01 6F 4A 1C D2 03  01 F8 D1 03 01 6F 76 1C  ...oJ........ov.
02E0: D2 03 01 5B 52 80 1C D2  03 01 1C D2 03 01 77 6E  ...[R.........wn
02F0: 64 31 00                                          d1.             
```

#### Opcodes

```
  0: 0x02C9 [0x1F] MOVE_ENTITY: EventEntity moves to X=-597.857*, Z=-365.687*, Y=-16.216*
  1: 0x02D1 [0x1F] MOVE_ENTITY: Update entity position (mode=1)
  2: 0x02D3 [0x6F] WAIT_FRAME_DELAY: Yield until WaitTime reaches zero
  3: 0x02D4 [0x4A] yagu4 (ID: 17027612/0x0103D21C) looks at Shayeeha (ID: 17027576/0x0103D1F8)
  4: 0x02DD [0x6F] WAIT_FRAME_DELAY: Yield until WaitTime reaches zero
  5: 0x02DE [0x76] CHECK_ENTITY_RENDER_FLAGS: Wait until yagu4 (ID: 17027612/0x0103D21C) Render.Flags0 and Render.Flags3 conditions are met
  6: 0x02E3 [0x5B] LOAD_EXT_SCHEDULER: Load scheduler "wnd1" with entities [yagu4 (ID: 17027612/0x0103D21C), yagu4 (ID: 17027612/0x0103D21C)], work=857*
  7: 0x02F2 [0x00] END_REQSTACK()
```

### Event 65535.36

#### Metadata

| Field        | Value    |
|--------------|----------|
| Entrypoint   | 0x02F3   |
| Data Size    | 42 bytes |
| Instructions | 8        |

```
      00 01 02 03 04 05 06 07  08 09 0A 0B 0C 0D 0E 0F
      -- -- -- -- -- -- -- --  -- -- -- -- -- -- -- --
02F0:          1F 00 5C 80 5D  80 5E 80 1F 01 6F 4A 1D     ..\.].^...oJ.
0300: D2 03 01 F8 D1 03 01 6F  76 1D D2 03 01 5B 52 80  .......ov....[R.
0310: 1D D2 03 01 1D D2 03 01  32 68 73 30 00           ........2hs0.   
```

#### Opcodes

```
  0: 0x02F3 [0x1F] MOVE_ENTITY: EventEntity moves to X=-577.688*, Z=-361.626*, Y=-10.691*
  1: 0x02FB [0x1F] MOVE_ENTITY: Update entity position (mode=1)
  2: 0x02FD [0x6F] WAIT_FRAME_DELAY: Yield until WaitTime reaches zero
  3: 0x02FE [0x4A] yagu5 (ID: 17027613/0x0103D21D) looks at Shayeeha (ID: 17027576/0x0103D1F8)
  4: 0x0307 [0x6F] WAIT_FRAME_DELAY: Yield until WaitTime reaches zero
  5: 0x0308 [0x76] CHECK_ENTITY_RENDER_FLAGS: Wait until yagu5 (ID: 17027613/0x0103D21D) Render.Flags0 and Render.Flags3 conditions are met
  6: 0x030D [0x5B] LOAD_EXT_SCHEDULER: Load scheduler "2hs0" with entities [yagu5 (ID: 17027613/0x0103D21D), yagu5 (ID: 17027613/0x0103D21D)], work=857*
  7: 0x031C [0x00] END_REQSTACK()
```

### Event 65535.37

#### Metadata

| Field        | Value    |
|--------------|----------|
| Entrypoint   | 0x031D   |
| Data Size    | 42 bytes |
| Instructions | 8        |

```
      00 01 02 03 04 05 06 07  08 09 0A 0B 0C 0D 0E 0F
      -- -- -- -- -- -- -- --  -- -- -- -- -- -- -- --
0310:                                         1F 00 5F               .._
0320: 80 60 80 61 80 1F 01 6F  4A 1E D2 03 01 F8 D1 03  .`.a...oJ.......
0330: 01 6F 76 1E D2 03 01 5B  52 80 1E D2 03 01 1E D2  .ov....[R.......
0340: 03 01 6B 74 6E 30 00                              ..ktn0.         
```

#### Opcodes

```
  0: 0x031D [0x1F] MOVE_ENTITY: EventEntity moves to X=-574.861*, Z=-362.548*, Y=-10.000*
  1: 0x0325 [0x1F] MOVE_ENTITY: Update entity position (mode=1)
  2: 0x0327 [0x6F] WAIT_FRAME_DELAY: Yield until WaitTime reaches zero
  3: 0x0328 [0x4A] yagu6 (ID: 17027614/0x0103D21E) looks at Shayeeha (ID: 17027576/0x0103D1F8)
  4: 0x0331 [0x6F] WAIT_FRAME_DELAY: Yield until WaitTime reaches zero
  5: 0x0332 [0x76] CHECK_ENTITY_RENDER_FLAGS: Wait until yagu6 (ID: 17027614/0x0103D21E) Render.Flags0 and Render.Flags3 conditions are met
  6: 0x0337 [0x5B] LOAD_EXT_SCHEDULER: Load scheduler "ktn0" with entities [yagu6 (ID: 17027614/0x0103D21E), yagu6 (ID: 17027614/0x0103D21E)], work=857*
  7: 0x0346 [0x00] END_REQSTACK()
```

### Event 65535.38

#### Metadata

| Field        | Value    |
|--------------|----------|
| Entrypoint   | 0x0347   |
| Data Size    | 42 bytes |
| Instructions | 8        |

```
      00 01 02 03 04 05 06 07  08 09 0A 0B 0C 0D 0E 0F
      -- -- -- -- -- -- -- --  -- -- -- -- -- -- -- --
0340:                      1F  00 62 80 63 80 61 80 1F         ..b.c.a..
0350: 01 6F 4A 1F D2 03 01 F8  D1 03 01 6F 76 1F D2 03  .oJ........ov...
0360: 01 5B 52 80 1F D2 03 01  1F D2 03 01 73 74 66 30  .[R.........stf0
0370: 00                                                .               
```

#### Opcodes

```
  0: 0x0347 [0x1F] MOVE_ENTITY: EventEntity moves to X=-573.326*, Z=-360.527*, Y=-10.000*
  1: 0x034F [0x1F] MOVE_ENTITY: Update entity position (mode=1)
  2: 0x0351 [0x6F] WAIT_FRAME_DELAY: Yield until WaitTime reaches zero
  3: 0x0352 [0x4A] yagu7 (ID: 17027615/0x0103D21F) looks at Shayeeha (ID: 17027576/0x0103D1F8)
  4: 0x035B [0x6F] WAIT_FRAME_DELAY: Yield until WaitTime reaches zero
  5: 0x035C [0x76] CHECK_ENTITY_RENDER_FLAGS: Wait until yagu7 (ID: 17027615/0x0103D21F) Render.Flags0 and Render.Flags3 conditions are met
  6: 0x0361 [0x5B] LOAD_EXT_SCHEDULER: Load scheduler "stf0" with entities [yagu7 (ID: 17027615/0x0103D21F), yagu7 (ID: 17027615/0x0103D21F)], work=857*
  7: 0x0370 [0x00] END_REQSTACK()
```

### Event 65535.39

#### Metadata

| Field        | Value    |
|--------------|----------|
| Entrypoint   | 0x0371   |
| Data Size    | 42 bytes |
| Instructions | 8        |

```
      00 01 02 03 04 05 06 07  08 09 0A 0B 0C 0D 0E 0F
      -- -- -- -- -- -- -- --  -- -- -- -- -- -- -- --
0370:    1F 00 64 80 65 80 61  80 1F 01 6F 4A 20 D2 03   ..d.e.a...oJ ..
0380: 01 F8 D1 03 01 6F 76 20  D2 03 01 5B 52 80 20 D2  .....ov ...[R. .
0390: 03 01 20 D2 03 01 6B 74  6E 30 00                 .. ...ktn0.     
```

#### Opcodes

```
  0: 0x0371 [0x1F] MOVE_ENTITY: EventEntity moves to X=-572.352*, Z=-363.753*, Y=-10.000*
  1: 0x0379 [0x1F] MOVE_ENTITY: Update entity position (mode=1)
  2: 0x037B [0x6F] WAIT_FRAME_DELAY: Yield until WaitTime reaches zero
  3: 0x037C [0x4A] yagu8 (ID: 17027616/0x0103D220) looks at Shayeeha (ID: 17027576/0x0103D1F8)
  4: 0x0385 [0x6F] WAIT_FRAME_DELAY: Yield until WaitTime reaches zero
  5: 0x0386 [0x76] CHECK_ENTITY_RENDER_FLAGS: Wait until yagu8 (ID: 17027616/0x0103D220) Render.Flags0 and Render.Flags3 conditions are met
  6: 0x038B [0x5B] LOAD_EXT_SCHEDULER: Load scheduler "ktn0" with entities [yagu8 (ID: 17027616/0x0103D220), yagu8 (ID: 17027616/0x0103D220)], work=857*
  7: 0x039A [0x00] END_REQSTACK()
```

### Event 65535.40

#### Metadata

| Field        | Value    |
|--------------|----------|
| Entrypoint   | 0x039B   |
| Data Size    | 12 bytes |
| Instructions | 4        |

```
      00 01 02 03 04 05 06 07  08 09 0A 0B 0C 0D 0E 0F
      -- -- -- -- -- -- -- --  -- -- -- -- -- -- -- --
0390:                                   1F 00 66 80 67             ..f.g
03A0: 80 68 80 1F 01 6F 00                              .h...o.         
```

#### Opcodes

```
  0: 0x039B [0x1F] MOVE_ENTITY: EventEntity moves to X=-623.721*, Z=-410.743*, Y=-18.785*
  1: 0x03A3 [0x1F] MOVE_ENTITY: Update entity position (mode=1)
  2: 0x03A5 [0x6F] WAIT_FRAME_DELAY: Yield until WaitTime reaches zero
  3: 0x03A6 [0x00] END_REQSTACK()
```

### Event 65535.41

#### Metadata

| Field        | Value    |
|--------------|----------|
| Entrypoint   | 0x03A7   |
| Data Size    | 12 bytes |
| Instructions | 4        |

```
      00 01 02 03 04 05 06 07  08 09 0A 0B 0C 0D 0E 0F
      -- -- -- -- -- -- -- --  -- -- -- -- -- -- -- --
03A0:                      1F  00 69 80 6A 80 6B 80 1F         ..i.j.k..
03B0: 01 6F 00                                          .o.             
```

#### Opcodes

```
  0: 0x03A7 [0x1F] MOVE_ENTITY: EventEntity moves to X=-622.123*, Z=-410.979*, Y=-18.734*
  1: 0x03AF [0x1F] MOVE_ENTITY: Update entity position (mode=1)
  2: 0x03B1 [0x6F] WAIT_FRAME_DELAY: Yield until WaitTime reaches zero
  3: 0x03B2 [0x00] END_REQSTACK()
```

### Event 65535.42

#### Metadata

| Field        | Value    |
|--------------|----------|
| Entrypoint   | 0x03B3   |
| Data Size    | 12 bytes |
| Instructions | 4        |

```
      00 01 02 03 04 05 06 07  08 09 0A 0B 0C 0D 0E 0F
      -- -- -- -- -- -- -- --  -- -- -- -- -- -- -- --
03B0:          1F 00 6C 80 6D  80 6E 80 1F 01 6F 00        ..l.m.n...o. 
```

#### Opcodes

```
  0: 0x03B3 [0x1F] MOVE_ENTITY: EventEntity moves to X=-625.527*, Z=-413.336*, Y=-18.338*
  1: 0x03BB [0x1F] MOVE_ENTITY: Update entity position (mode=1)
  2: 0x03BD [0x6F] WAIT_FRAME_DELAY: Yield until WaitTime reaches zero
  3: 0x03BE [0x00] END_REQSTACK()
```

### Event 65535.43

#### Metadata

| Field        | Value    |
|--------------|----------|
| Entrypoint   | 0x03BF   |
| Data Size    | 12 bytes |
| Instructions | 4        |

```
      00 01 02 03 04 05 06 07  08 09 0A 0B 0C 0D 0E 0F
      -- -- -- -- -- -- -- --  -- -- -- -- -- -- -- --
03B0:                                               1F                 .
03C0: 00 6F 80 70 80 71 80 1F  01 6F 00                 .o.p.q...o.     
```

#### Opcodes

```
  0: 0x03BF [0x1F] MOVE_ENTITY: EventEntity moves to X=-623.938*, Z=-416.048*, Y=-18.001*
  1: 0x03C7 [0x1F] MOVE_ENTITY: Update entity position (mode=1)
  2: 0x03C9 [0x6F] WAIT_FRAME_DELAY: Yield until WaitTime reaches zero
  3: 0x03CA [0x00] END_REQSTACK()
```

### Event 65535.44

#### Metadata

| Field        | Value    |
|--------------|----------|
| Entrypoint   | 0x03CB   |
| Data Size    | 30 bytes |
| Instructions | 8        |

```
      00 01 02 03 04 05 06 07  08 09 0A 0B 0C 0D 0E 0F
      -- -- -- -- -- -- -- --  -- -- -- -- -- -- -- --
03C0:                                   1F 00 72 80 73             ..r.s
03D0: 80 74 80 1F 01 6F 4A 1F  D2 03 01 F8 D1 03 01 6F  .t...oJ........o
03E0: 76 1F D2 03 01 1C 75 80  00                       v.....u..       
```

#### Opcodes

```
  0: 0x03CB [0x1F] MOVE_ENTITY: EventEntity moves to X=-607.016*, Z=-368.770*, Y=-16.936*
  1: 0x03D3 [0x1F] MOVE_ENTITY: Update entity position (mode=1)
  2: 0x03D5 [0x6F] WAIT_FRAME_DELAY: Yield until WaitTime reaches zero
  3: 0x03D6 [0x4A] yagu7 (ID: 17027615/0x0103D21F) looks at Shayeeha (ID: 17027576/0x0103D1F8)
  4: 0x03DF [0x6F] WAIT_FRAME_DELAY: Yield until WaitTime reaches zero
  5: 0x03E0 [0x76] CHECK_ENTITY_RENDER_FLAGS: Wait until yagu7 (ID: 17027615/0x0103D21F) Render.Flags0 and Render.Flags3 conditions are met
  6: 0x03E5 [0x1C] WAIT(3* ticks)
  7: 0x03E8 [0x00] END_REQSTACK()
```

### Event 65535.45

#### Metadata

| Field        | Value    |
|--------------|----------|
| Entrypoint   | 0x03E9   |
| Data Size    | 27 bytes |
| Instructions | 5        |

```
      00 01 02 03 04 05 06 07  08 09 0A 0B 0C 0D 0E 0F
      -- -- -- -- -- -- -- --  -- -- -- -- -- -- -- --
03E0:                             1F 00 76 80 77 80 78           ..v.w.x
03F0: 80 1F 01 6F 5B 52 80 1F  D2 03 01 1F D2 03 01 73  ...o[R.........s
0400: 74 66 31 00                                       tf1.            
```

#### Opcodes

```
  0: 0x03E9 [0x1F] MOVE_ENTITY: EventEntity moves to X=-609.854*, Z=-377.254*, Y=-18.000*
  1: 0x03F1 [0x1F] MOVE_ENTITY: Update entity position (mode=1)
  2: 0x03F3 [0x6F] WAIT_FRAME_DELAY: Yield until WaitTime reaches zero
  3: 0x03F4 [0x5B] LOAD_EXT_SCHEDULER: Load scheduler "stf1" with entities [yagu7 (ID: 17027615/0x0103D21F), yagu7 (ID: 17027615/0x0103D21F)], work=857*
  4: 0x0403 [0x00] END_REQSTACK()
```

### Event 65535.46

#### Metadata

| Field        | Value    |
|--------------|----------|
| Entrypoint   | 0x0404   |
| Data Size    | 27 bytes |
| Instructions | 7        |

```
      00 01 02 03 04 05 06 07  08 09 0A 0B 0C 0D 0E 0F
      -- -- -- -- -- -- -- --  -- -- -- -- -- -- -- --
0400:             1F 00 79 80  7A 80 78 80 1F 01 6F 4A      ..y.z.x...oJ
0410: F7 D1 03 01 F8 D1 03 01  6F 76 F7 D1 03 01 00     ........ov..... 
```

#### Opcodes

```
  0: 0x0404 [0x1F] MOVE_ENTITY: EventEntity moves to X=-611.981*, Z=-379.540*, Y=-18.000*
  1: 0x040C [0x1F] MOVE_ENTITY: Update entity position (mode=1)
  2: 0x040E [0x6F] WAIT_FRAME_DELAY: Yield until WaitTime reaches zero
  3: 0x040F [0x4A] Gadalar (ID: 17027575/0x0103D1F7) looks at Shayeeha (ID: 17027576/0x0103D1F8)
  4: 0x0418 [0x6F] WAIT_FRAME_DELAY: Yield until WaitTime reaches zero
  5: 0x0419 [0x76] CHECK_ENTITY_RENDER_FLAGS: Wait until Gadalar (ID: 17027575/0x0103D1F7) Render.Flags0 and Render.Flags3 conditions are met
  6: 0x041E [0x00] END_REQSTACK()
```

### Event 65535.47

#### Metadata

| Field        | Value    |
|--------------|----------|
| Entrypoint   | 0x041F   |
| Data Size    | 12 bytes |
| Instructions | 4        |

```
      00 01 02 03 04 05 06 07  08 09 0A 0B 0C 0D 0E 0F
      -- -- -- -- -- -- -- --  -- -- -- -- -- -- -- --
0410:                                               1F                 .
0420: 00 7B 80 7C 80 78 80 1F  01 6F 00                 .{.|.x...o.     
```

#### Opcodes

```
  0: 0x041F [0x1F] MOVE_ENTITY: EventEntity moves to X=-612.804*, Z=-377.529*, Y=-18.000*
  1: 0x0427 [0x1F] MOVE_ENTITY: Update entity position (mode=1)
  2: 0x0429 [0x6F] WAIT_FRAME_DELAY: Yield until WaitTime reaches zero
  3: 0x042A [0x00] END_REQSTACK()
```

### Event 65535.48

#### Metadata

| Field        | Value    |
|--------------|----------|
| Entrypoint   | 0x042B   |
| Data Size    | 37 bytes |
| Instructions | 5        |

```
      00 01 02 03 04 05 06 07  08 09 0A 0B 0C 0D 0E 0F
      -- -- -- -- -- -- -- --  -- -- -- -- -- -- -- --
0420:                                   03 00 00 07 7F             .....
0430: 1A 75 04 66 01 00 F8 FF  FF 7F F8 FF FF 7F 73 68  .u.f..........sh
0440: 61 30 53 F8 FF FF 7F F8  FF FF 7F 73 68 61 30 00  a0S........sha0.
```

#### Opcodes

```
  0: 0x042B [0x03] ExtData[1]->WorkLocal[0] = Entity->Race
  1: 0x0430 [0x1A] CALL_SUBROUTINE(address=0x0475)
  2: 0x0433 [0x66] LOAD_EXT_SCHEDULER_MAIN: Load scheduler "sha0" with entities [EventEntity, EventEntity], work=ExtData[1]->WorkLocal[1]
  3: 0x0442 [0x53] WAIT_SCHEDULER_TASK: Wait for scheduler "sha0" with entities [EventEntity, EventEntity]
  4: 0x044F [0x00] END_REQSTACK()
```

### Event 65535.49

#### Metadata

| Field        | Value     |
|--------------|-----------|
| Entrypoint   | 0x0450    |
| Data Size    | 185 bytes |
| Instructions | 13        |

```
      00 01 02 03 04 05 06 07  08 09 0A 0B 0C 0D 0E 0F
      -- -- -- -- -- -- -- --  -- -- -- -- -- -- -- --
0450: 03 00 00 07 7F 1A 75 04  66 01 00 F8 FF FF 7F F8  ......u.f.......
0460: FF FF 7F 73 68 61 31 53  F8 FF FF 7F F8 FF FF 7F  ...sha1S........
0470: 73 68 61 31 00 03 01 00  00 00 02 01 00 7D 80 05  sha1.........}..
0480: 8A 04 08 01 00 01 80 01  8F 04 08 01 00 7E 80 14  .............~..
0490: 01 00 7F 80 07 01 00 80  80 1B 03 01 00 00 00 02  ................
04A0: 01 00 7D 80 05 AF 04 08  01 00 01 80 01 B4 04 08  ..}.............
04B0: 01 00 7E 80 14 01 00 7F  80 07 01 00 81 80 1B 03  ..~.............
04C0: 01 00 00 00 02 01 00 7D  80 05 D4 04 08 01 00 01  .......}........
04D0: 80 01 D9 04 08 01 00 7E  80 14 01 00 7F 80 07 01  .......~........
04E0: 00 82 80 1B 03 01 00 00  00 02 01 00 7D 80 05 F9  ............}...
04F0: 04 08 01 00 01 80 01 FE  04 08 01 00 7E 80 14 01  ............~...
0500: 00 7F 80 07 01 00 83 80  1B                       .........       
```

#### Opcodes

```
  0: 0x0450 [0x03] ExtData[1]->WorkLocal[0] = Entity->Race
  1: 0x0455 [0x1A] CALL_SUBROUTINE(address=0x0475)
  2: 0x0458 [0x66] LOAD_EXT_SCHEDULER_MAIN: Load scheduler "sha1" with entities [EventEntity, EventEntity], work=ExtData[1]->WorkLocal[1]
  3: 0x0467 [0x53] WAIT_SCHEDULER_TASK: Wait for scheduler "sha1" with entities [EventEntity, EventEntity]
  4: 0x0474 [0x00] END_REQSTACK()

SUBROUTINE_0475:
  5: 0x0475 [0x03] ExtData[1]->WorkLocal[1] = ExtData[1]->WorkLocal[0]
  6: 0x047A [0x02] IF !(ExtData[1]->WorkLocal[1] > 5*) GOTO 0x048A
  7: 0x0482 [0x08] ExtData[1]->WorkLocal[1] -= 1*
  8: 0x0487 [0x01] GOTO 0x048F
  9: 0x048A [0x08] ExtData[1]->WorkLocal[1] -= 2*

SUBROUTINE_048F:
 10: 0x048F [0x14] ExtData[1]->WorkLocal[1] *= 10*
 11: 0x0494 [0x07] ExtData[1]->WorkLocal[1] += 9*
 12: 0x0499 [0x1B] RETURN
```

#### Data or dead code:

```
# Dead code (unreachable instructions):
     0x049A [0x03] ExtData[1]->WorkLocal[1] = ExtData[1]->WorkLocal[0]
     0x049F [0x02] IF !(ExtData[1]->WorkLocal[1] > 5*) GOTO 0x04AF
     0x04A7 [0x08] ExtData[1]->WorkLocal[1] -= 1*
     0x04AC [0x01] GOTO 0x04B4
     0x04AF [0x08] ExtData[1]->WorkLocal[1] -= 2*
     0x04B4 [0x14] ExtData[1]->WorkLocal[1] *= 10*
     0x04B9 [0x07] ExtData[1]->WorkLocal[1] += 70*
     0x04BE [0x1B] RETURN
     0x04BF [0x03] ExtData[1]->WorkLocal[1] = ExtData[1]->WorkLocal[0]
     0x04C4 [0x02] IF !(ExtData[1]->WorkLocal[1] > 5*) GOTO 0x04D4
     0x04CC [0x08] ExtData[1]->WorkLocal[1] -= 1*
     0x04D1 [0x01] GOTO 0x04D9
     0x04D4 [0x08] ExtData[1]->WorkLocal[1] -= 2*
     0x04D9 [0x14] ExtData[1]->WorkLocal[1] *= 10*
     0x04DE [0x07] ExtData[1]->WorkLocal[1] += 140*
     0x04E3 [0x1B] RETURN
     0x04E4 [0x03] ExtData[1]->WorkLocal[1] = ExtData[1]->WorkLocal[0]
     0x04E9 [0x02] IF !(ExtData[1]->WorkLocal[1] > 5*) GOTO 0x04F9
     0x04F1 [0x08] ExtData[1]->WorkLocal[1] -= 1*
     0x04F6 [0x01] GOTO 0x04FE
     0x04F9 [0x08] ExtData[1]->WorkLocal[1] -= 2*
     0x04FE [0x14] ExtData[1]->WorkLocal[1] *= 10*
     0x0503 [0x07] ExtData[1]->WorkLocal[1] += 210*
     0x0508 [0x1B] RETURN
```

### Event 65535.50

#### Metadata

| Field        | Value    |
|--------------|----------|
| Entrypoint   | 0x0509   |
| Data Size    | 82 bytes |
| Instructions | 14       |

```
      00 01 02 03 04 05 06 07  08 09 0A 0B 0C 0D 0E 0F
      -- -- -- -- -- -- -- --  -- -- -- -- -- -- -- --
0500:                             32 0B 80 1F 00 84 80           2......
0510: 85 80 86 80 1F 01 6F 1E  FD D1 03 01 6F 76 F8 FF  ......o.....ov..
0520: FF 7F 1C 13 80 03 00 00  07 7F 1A 75 04 45 87 80  ...........u.E..
0530: F8 FF FF 7F F8 FF FF 7F  65 66 73 30 00 80 66 01  ........efs0..f.
0540: 00 F8 FF FF 7F F8 FF FF  7F 73 68 61 30 53 F8 FF  .........sha0S..
0550: FF 7F F8 FF FF 7F 73 68  61 30 00                 ......sha0.     
```

#### Opcodes

```
  0: 0x0509 [0x32] ExtData[1]->MainSpeed = 13* * 0.1
  1: 0x050C [0x1F] MOVE_ENTITY: EventEntity moves to X=848.035*, Z=251.190*, Y=-13.895*
  2: 0x0514 [0x1F] MOVE_ENTITY: Update entity position (mode=1)
  3: 0x0516 [0x6F] WAIT_FRAME_DELAY: Yield until WaitTime reaches zero
  4: 0x0517 [0x1E] EventEntity looks at Malzaab (ID: 17027581/0x0103D1FD) and starts talking
  5: 0x051C [0x6F] WAIT_FRAME_DELAY: Yield until WaitTime reaches zero
  6: 0x051D [0x76] CHECK_ENTITY_RENDER_FLAGS: Wait until EventEntity Render.Flags0 and Render.Flags3 conditions are met
  7: 0x0522 [0x1C] WAIT(15* ticks)
  8: 0x0525 [0x03] ExtData[1]->WorkLocal[0] = Entity->Race
  9: 0x052A [0x1A] CALL_SUBROUTINE(address=0x0475)
 10: 0x052D [0x45] LOAD_SCHEDULED_TASK: Load scheduler "efs0" with entities [EventEntity, EventEntity], work=[416*, 0*]
 11: 0x053E [0x66] LOAD_EXT_SCHEDULER_MAIN: Load scheduler "sha0" with entities [EventEntity, EventEntity], work=ExtData[1]->WorkLocal[1]
 12: 0x054D [0x53] WAIT_SCHEDULER_TASK: Wait for scheduler "sha0" with entities [EventEntity, EventEntity]
 13: 0x055A [0x00] END_REQSTACK()
```

### Event 65535.51

#### Metadata

| Field        | Value    |
|--------------|----------|
| Entrypoint   | 0x055B   |
| Data Size    | 12 bytes |
| Instructions | 3        |

```
      00 01 02 03 04 05 06 07  08 09 0A 0B 0C 0D 0E 0F
      -- -- -- -- -- -- -- --  -- -- -- -- -- -- -- --
0550:                                   33 01 37 88 80             3.7..
0560: 89 80 8A 80 8B 80 00                              .......         
```

#### Opcodes

```
  0: 0x055B [0x33] EventEntity->Render.Flags0 |= 0x200000 // Bit 21 (flag=0x01)
  1: 0x055D [0x37] UPDATE_EVENT_POSITION_AND_DIR: x=843.966*, z=251.784*, y=-13.627*, direction=270.0°*
  2: 0x0566 [0x00] END_REQSTACK()
```

### Event 65535.52

#### Metadata

| Field        | Value    |
|--------------|----------|
| Entrypoint   | 0x0567   |
| Data Size    | 12 bytes |
| Instructions | 3        |

```
      00 01 02 03 04 05 06 07  08 09 0A 0B 0C 0D 0E 0F
      -- -- -- -- -- -- -- --  -- -- -- -- -- -- -- --
0560:                      33  01 37 8C 80 8D 80 8E 80         3.7......
0570: 8F 80 00                                          ...             
```

#### Opcodes

```
  0: 0x0567 [0x33] EventEntity->Render.Flags0 |= 0x200000 // Bit 21 (flag=0x01)
  1: 0x0569 [0x37] UPDATE_EVENT_POSITION_AND_DIR: x=852.000*, z=264.119*, y=-13.800*, direction=135.0°*
  2: 0x0572 [0x00] END_REQSTACK()
```

### Event 65535.53

#### Metadata

| Field        | Value    |
|--------------|----------|
| Entrypoint   | 0x0573   |
| Data Size    | 12 bytes |
| Instructions | 3        |

```
      00 01 02 03 04 05 06 07  08 09 0A 0B 0C 0D 0E 0F
      -- -- -- -- -- -- -- --  -- -- -- -- -- -- -- --
0570:          33 01 37 8C 80  8D 80 8E 80 90 80 00        3.7......... 
```

#### Opcodes

```
  0: 0x0573 [0x33] EventEntity->Render.Flags0 |= 0x200000 // Bit 21 (flag=0x01)
  1: 0x0575 [0x37] UPDATE_EVENT_POSITION_AND_DIR: x=852.000*, z=264.119*, y=-13.800*, direction=146.2°*
  2: 0x057E [0x00] END_REQSTACK()
```

### Event 65535.54

#### Metadata

| Field        | Value    |
|--------------|----------|
| Entrypoint   | 0x057F   |
| Data Size    | 12 bytes |
| Instructions | 3        |

```
      00 01 02 03 04 05 06 07  08 09 0A 0B 0C 0D 0E 0F
      -- -- -- -- -- -- -- --  -- -- -- -- -- -- -- --
0570:                                               33                 3
0580: 01 37 91 80 92 80 93 80  94 80 00                 .7.........     
```

#### Opcodes

```
  0: 0x057F [0x33] EventEntity->Render.Flags0 |= 0x200000 // Bit 21 (flag=0x01)
  1: 0x0581 [0x37] UPDATE_EVENT_POSITION_AND_DIR: x=860.099*, z=264.000*, y=-13.699*, direction=181.3°*
  2: 0x058A [0x00] END_REQSTACK()
```

### Event 65535.55

#### Metadata

| Field        | Value    |
|--------------|----------|
| Entrypoint   | 0x058B   |
| Data Size    | 21 bytes |
| Instructions | 2        |

```
      00 01 02 03 04 05 06 07  08 09 0A 0B 0C 0D 0E 0F
      -- -- -- -- -- -- -- --  -- -- -- -- -- -- -- --
0580:                                   B6 0B 2F 80 0F             ../..
0590: 80 95 80 96 80 97 80 96  80 97 80 98 80 00 80 00  ................
```

#### Opcodes

```
  0: 0x058B [0xB6] ENTITY_APPEARANCE_HANDLER(case=Full entity look, race=4*, hair=14*, head=130*, body=176*, hands=141*, legs=176*, feet=141*, main=366*, sub=0*)
  1: 0x059F [0x00] END_REQSTACK()
```

### Event 65535.56

#### Metadata

| Field        | Value    |
|--------------|----------|
| Entrypoint   | 0x05A0   |
| Data Size    | 21 bytes |
| Instructions | 2        |

```
      00 01 02 03 04 05 06 07  08 09 0A 0B 0C 0D 0E 0F
      -- -- -- -- -- -- -- --  -- -- -- -- -- -- -- --
05A0: B6 0B 2F 80 0F 80 00 80  33 80 34 80 35 80 34 80  ../.....3.4.5.4.
05B0: 32 80 00 80 00                                    2....           
```

#### Opcodes

```
  0: 0x05A0 [0xB6] ENTITY_APPEARANCE_HANDLER(case=Full entity look, race=4*, hair=14*, head=0*, body=179*, hands=96*, legs=110*, feet=96*, main=350*, sub=0*)
  1: 0x05B4 [0x00] END_REQSTACK()
```

### Event 65535.57

#### Metadata

| Field        | Value    |
|--------------|----------|
| Entrypoint   | 0x05B5   |
| Data Size    | 15 bytes |
| Instructions | 5        |

```
      00 01 02 03 04 05 06 07  08 09 0A 0B 0C 0D 0E 0F
      -- -- -- -- -- -- -- --  -- -- -- -- -- -- -- --
05B0:                32 0B 80  1F 00 99 80 9A 80 9B 80       2..........
05C0: 1F 01 6F 00                                       ..o.            
```

#### Opcodes

```
  0: 0x05B5 [0x32] ExtData[1]->MainSpeed = 13* * 0.1
  1: 0x05B8 [0x1F] MOVE_ENTITY: EventEntity moves to X=858.888*, Z=245.315*, Y=-14.442*
  2: 0x05C0 [0x1F] MOVE_ENTITY: Update entity position (mode=1)
  3: 0x05C2 [0x6F] WAIT_FRAME_DELAY: Yield until WaitTime reaches zero
  4: 0x05C3 [0x00] END_REQSTACK()
```

### Event 65535.58

#### Metadata

| Field        | Value   |
|--------------|---------|
| Entrypoint   | 0x05C4  |
| Data Size    | 3 bytes |
| Instructions | 2       |

```
      00 01 02 03 04 05 06 07  08 09 0A 0B 0C 0D 0E 0F
      -- -- -- -- -- -- -- --  -- -- -- -- -- -- -- --
05C0:             A4 01 00                                  ...         
```

#### Opcodes

```
  0: 0x05C4 [0xA4] EventEntity->Flags3.unknown_3_2 = 1
  1: 0x05C6 [0x00] END_REQSTACK()
```
