# 17027602 - Nabitham

## Common Data

| Field            | Value                  |
|------------------|------------------------|
| Zone             | Mount Zhayolm (ID: 61) |
| Block Size       | 208 bytes              |
| Total Events     | 6                      |
| References Count | 14                     |

## List of Events

| Event ID                 | Entrypoint   |   Size |   Instructions |
|--------------------------|--------------|--------|----------------|
| [65535](#event-65535)    | 0x0000       |      1 |              1 |
| [16](#event-16)          | 0x0001       |      1 |              1 |
| [65535.1](#event-655351) | 0x0002       |     19 |              4 |
| [65535.2](#event-655352) | 0x0015       |     49 |              8 |
| [65535.3](#event-655353) | 0x0046       |     21 |              2 |
| [65535.4](#event-655354) | 0x005B       |     21 |              2 |

## DAT References (imed_data)

|   Index | Hex Value   |   Dec Value |
|---------|-------------|-------------|
|       0 | 0x000D      |          13 |
|       1 | 0xC828A     |      819850 |
|       2 | 0x343F0     |      214000 |
|       3 | 0xFFFFB9B0  |  4294949296 |
|       4 | 0xC5DD1     |      810449 |
|       5 | 0x38E66     |      233062 |
|       6 | 0xFFFFC906  |  4294953222 |
|       7 | 0x035F      |         863 |
|       8 | 0x0001      |           1 |
|       9 | 0x00AB      |         171 |
|      10 | 0x0000      |           0 |
|      11 | 0x0007      |           7 |
|      12 | 0x00A5      |         165 |
|      13 | 0x0177      |         375 |

## Events

### Event 65535

#### Metadata

| Field        | Value   |
|--------------|---------|
| Entrypoint   | 0x0000  |
| Data Size    | 1 bytes |
| Instructions | 1       |

```
      00 01 02 03 04 05 06 07  08 09 0A 0B 0C 0D 0E 0F
      -- -- -- -- -- -- -- --  -- -- -- -- -- -- -- --
0000: 00                                                .               
```

#### Opcodes

```
  0: 0x0000 [0x00] END_REQSTACK()
```

### Event 16

#### Metadata

| Field        | Value   |
|--------------|---------|
| Entrypoint   | 0x0001  |
| Data Size    | 1 bytes |
| Instructions | 1       |

```
      00 01 02 03 04 05 06 07  08 09 0A 0B 0C 0D 0E 0F
      -- -- -- -- -- -- -- --  -- -- -- -- -- -- -- --
0000:    00                                              .              
```

#### Opcodes

```
  0: 0x0001 [0x00] END_REQSTACK()
```

### Event 65535.1

#### Metadata

| Field        | Value    |
|--------------|----------|
| Entrypoint   | 0x0002   |
| Data Size    | 19 bytes |
| Instructions | 4        |

```
      00 01 02 03 04 05 06 07  08 09 0A 0B 0C 0D 0E 0F
      -- -- -- -- -- -- -- --  -- -- -- -- -- -- -- --
0000:       59 04 12 D2 03 01  00 80 1F 00 01 80 02 80    Y.............
0010: 03 80 1F 01 00                                    .....           
```

#### Opcodes

```
  0: 0x0002 [0x59] UPDATE_ENTITY_DATA: Set Nabitham (ID: 17027602/0x0103D212) main speed = 13* * 0.1
  1: 0x000A [0x1F] MOVE_ENTITY: EventEntity moves to X=819.850*, Z=214.000*, Y=-18.000*
  2: 0x0012 [0x1F] MOVE_ENTITY: Update entity position (mode=1)
  3: 0x0014 [0x00] END_REQSTACK()
```

### Event 65535.2

#### Metadata

| Field        | Value    |
|--------------|----------|
| Entrypoint   | 0x0015   |
| Data Size    | 49 bytes |
| Instructions | 8        |

```
      00 01 02 03 04 05 06 07  08 09 0A 0B 0C 0D 0E 0F
      -- -- -- -- -- -- -- --  -- -- -- -- -- -- -- --
0010:                59 04 12  D2 03 01 00 80 1F 00 04       Y..........
0020: 80 05 80 06 80 1F 01 6F  4A 12 D2 03 01 07 D2 03  .......oJ.......
0030: 01 7B 12 D2 03 01 5B 07  80 F8 FF FF 7F F8 FF FF  .{....[.........
0040: 7F 61 73 74 30 00                                 .ast0.          
```

#### Opcodes

```
  0: 0x0015 [0x59] UPDATE_ENTITY_DATA: Set Nabitham (ID: 17027602/0x0103D212) main speed = 13* * 0.1
  1: 0x001D [0x1F] MOVE_ENTITY: EventEntity moves to X=810.449*, Z=233.062*, Y=-14.074*
  2: 0x0025 [0x1F] MOVE_ENTITY: Update entity position (mode=1)
  3: 0x0027 [0x6F] WAIT_FRAME_DELAY: Yield until WaitTime reaches zero
  4: 0x0028 [0x4A] Nabitham (ID: 17027602/0x0103D212) looks at ??? (ID: 17027591/0x0103D207)
  5: 0x0031 [0x7B] Nabitham (ID: 17027602/0x0103D212) stops talking
  6: 0x0036 [0x5B] LOAD_EXT_SCHEDULER: Load scheduler "ast0" with entities [EventEntity, EventEntity], work=863*
  7: 0x0045 [0x00] END_REQSTACK()
```

### Event 65535.3

#### Metadata

| Field        | Value    |
|--------------|----------|
| Entrypoint   | 0x0046   |
| Data Size    | 21 bytes |
| Instructions | 2        |

```
      00 01 02 03 04 05 06 07  08 09 0A 0B 0C 0D 0E 0F
      -- -- -- -- -- -- -- --  -- -- -- -- -- -- -- --
0040:                   B6 0B  08 80 08 80 09 80 09 80        ..........
0050: 09 80 09 80 09 80 0A 80  0A 80 00                 ...........     
```

#### Opcodes

```
  0: 0x0046 [0xB6] ENTITY_APPEARANCE_HANDLER(case=Full entity look, race=1*, hair=1*, head=171*, body=171*, hands=171*, legs=171*, feet=171*, main=0*, sub=0*)
  1: 0x005A [0x00] END_REQSTACK()
```

### Event 65535.4

#### Metadata

| Field        | Value    |
|--------------|----------|
| Entrypoint   | 0x005B   |
| Data Size    | 21 bytes |
| Instructions | 2        |

```
      00 01 02 03 04 05 06 07  08 09 0A 0B 0C 0D 0E 0F
      -- -- -- -- -- -- -- --  -- -- -- -- -- -- -- --
0050:                                   B6 0B 08 80 0B             .....
0060: 80 0C 80 0C 80 09 80 0C  80 09 80 0D 80 0A 80 00  ................
```

#### Opcodes

```
  0: 0x005B [0xB6] ENTITY_APPEARANCE_HANDLER(case=Full entity look, race=1*, hair=7*, head=165*, body=165*, hands=171*, legs=165*, feet=171*, main=375*, sub=0*)
  1: 0x006F [0x00] END_REQSTACK()
```
