# 17027604 - fumetsu03

## Common Data

| Field            | Value                  |
|------------------|------------------------|
| Zone             | Mount Zhayolm (ID: 61) |
| Block Size       | 116 bytes              |
| Total Events     | 4                      |
| References Count | 7                      |

## List of Events

| Event ID                 | Entrypoint   |   Size |   Instructions |
|--------------------------|--------------|--------|----------------|
| [65535](#event-65535)    | 0x0000       |      1 |              1 |
| [16](#event-16)          | 0x0001       |      1 |              1 |
| [65535.1](#event-655351) | 0x0002       |     19 |              4 |
| [65535.2](#event-655352) | 0x0015       |     34 |              7 |

## DAT References (imed_data)

|   Index | Hex Value   |   Dec Value |
|---------|-------------|-------------|
|       0 | 0x000E      |          14 |
|       1 | 0xC873A     |      821050 |
|       2 | 0x33E14     |      212500 |
|       3 | 0xFFFFB9B0  |  4294949296 |
|       4 | 0xC6716     |      812822 |
|       5 | 0x3902E     |      233518 |
|       6 | 0xFFFFC9E0  |  4294953440 |

## Events

### Event 65535

#### Metadata

| Field        | Value   |
|--------------|---------|
| Entrypoint   | 0x0000  |
| Data Size    | 1 bytes |
| Instructions | 1       |

```
      00 01 02 03 04 05 06 07  08 09 0A 0B 0C 0D 0E 0F
      -- -- -- -- -- -- -- --  -- -- -- -- -- -- -- --
0000: 00                                                .               
```

#### Opcodes

```
  0: 0x0000 [0x00] END_REQSTACK()
```

### Event 16

#### Metadata

| Field        | Value   |
|--------------|---------|
| Entrypoint   | 0x0001  |
| Data Size    | 1 bytes |
| Instructions | 1       |

```
      00 01 02 03 04 05 06 07  08 09 0A 0B 0C 0D 0E 0F
      -- -- -- -- -- -- -- --  -- -- -- -- -- -- -- --
0000:    00                                              .              
```

#### Opcodes

```
  0: 0x0001 [0x00] END_REQSTACK()
```

### Event 65535.1

#### Metadata

| Field        | Value    |
|--------------|----------|
| Entrypoint   | 0x0002   |
| Data Size    | 19 bytes |
| Instructions | 4        |

```
      00 01 02 03 04 05 06 07  08 09 0A 0B 0C 0D 0E 0F
      -- -- -- -- -- -- -- --  -- -- -- -- -- -- -- --
0000:       59 04 14 D2 03 01  00 80 1F 00 01 80 02 80    Y.............
0010: 03 80 1F 01 00                                    .....           
```

#### Opcodes

```
  0: 0x0002 [0x59] UPDATE_ENTITY_DATA: Set fumetsu03 (ID: 17027604/0x0103D214) main speed = 14* * 0.1
  1: 0x000A [0x1F] MOVE_ENTITY: EventEntity moves to X=821.050*, Z=212.500*, Y=-18.000*
  2: 0x0012 [0x1F] MOVE_ENTITY: Update entity position (mode=1)
  3: 0x0014 [0x00] END_REQSTACK()
```

### Event 65535.2

#### Metadata

| Field        | Value    |
|--------------|----------|
| Entrypoint   | 0x0015   |
| Data Size    | 34 bytes |
| Instructions | 7        |

```
      00 01 02 03 04 05 06 07  08 09 0A 0B 0C 0D 0E 0F
      -- -- -- -- -- -- -- --  -- -- -- -- -- -- -- --
0010:                59 04 14  D2 03 01 00 80 1F 00 04       Y..........
0020: 80 05 80 06 80 1F 01 6F  4A 14 D2 03 01 07 D2 03  .......oJ.......
0030: 01 7B 14 D2 03 01 00                              .{.....         
```

#### Opcodes

```
  0: 0x0015 [0x59] UPDATE_ENTITY_DATA: Set fumetsu03 (ID: 17027604/0x0103D214) main speed = 14* * 0.1
  1: 0x001D [0x1F] MOVE_ENTITY: EventEntity moves to X=812.822*, Z=233.518*, Y=-13.856*
  2: 0x0025 [0x1F] MOVE_ENTITY: Update entity position (mode=1)
  3: 0x0027 [0x6F] WAIT_FRAME_DELAY: Yield until WaitTime reaches zero
  4: 0x0028 [0x4A] fumetsu03 (ID: 17027604/0x0103D214) looks at ??? (ID: 17027591/0x0103D207)
  5: 0x0031 [0x7B] fumetsu03 (ID: 17027604/0x0103D214) stops talking
  6: 0x0036 [0x00] END_REQSTACK()
```
