# 17027539 - Reberosu

## Common Data

| Field            | Value                  |
|------------------|------------------------|
| Zone             | Mount Zhayolm (ID: 61) |
| Block Size       | 136 bytes              |
| Total Events     | 2                      |
| References Count | 9                      |

## List of Events

| Event ID              | Entrypoint   |   Size |   Instructions |
|-----------------------|--------------|--------|----------------|
| [65535](#event-65535) | 0x0000       |      1 |              1 |
| [2](#event-2)         | 0x0001       |     72 |             19 |

## DAT References (imed_data)

|   Index | Hex Value   |   Dec Value |
|---------|-------------|-------------|
|       0 | 0x1CBF      |        7359 |
|       1 | 0x1CC0      |        7360 |
|       2 | 0x0000      |           0 |
|       3 | 0x0015      |          21 |
|       4 | 0x0001      |           1 |
|       5 | 0x0016      |          22 |
|       6 | 0x0002      |           2 |
|       7 | 0x0017      |          23 |
|       8 | 0x1CC1      |        7361 |

## String References

- **7359**: $!7. $3x$3$3X$23p$P10h%L7ifI
- **7360**: $3~$3b$3V$3 $3$20T$6p$P11IqEKI [21"2"3]
- **7361**: $P10h%L$s [5$3\`$3F$3b$3N$6B /

## Events

### Event 65535

#### Metadata

| Field        | Value   |
|--------------|---------|
| Entrypoint   | 0x0000  |
| Data Size    | 1 bytes |
| Instructions | 1       |

```
      00 01 02 03 04 05 06 07  08 09 0A 0B 0C 0D 0E 0F
      -- -- -- -- -- -- -- --  -- -- -- -- -- -- -- --
0000: 00                                                .               
```

#### Opcodes

```
  0: 0x0000 [0x00] END_REQSTACK()
```

### Event 2

#### Metadata

| Field        | Value    |
|--------------|----------|
| Entrypoint   | 0x0001   |
| Data Size    | 72 bytes |
| Instructions | 19       |

```
      00 01 02 03 04 05 06 07  08 09 0A 0B 0C 0D 0E 0F
      -- -- -- -- -- -- -- --  -- -- -- -- -- -- -- --
0000:    1D 00 80 23 24 01 80  02 80 02 80 25 02 00 10   ...#$......%...
0010: 02 80 00 1D 00 03 01 10  03 80 01 3D 00 02 00 10  ...........=....
0020: 04 80 00 2D 00 03 01 10  05 80 01 3D 00 02 00 10  ...-.......=....
0030: 06 80 00 3D 00 03 01 10  07 80 01 3D 00 1D 08 80  ...=.......=....
0040: 23 A7 00 A7 01 01 10 21  00                       #......!.       
```

#### Opcodes

```
  0: 0x0001 [0x1D] PRINT_EVENT_MESSAGE(message_id=7359*)
    → "$!7. $3x$3$3X$23p$P10h%L7ifI"
  1: 0x0004 [0x23] WAIT_FOR_DIALOG_INTERACTION
  2: 0x0005 [0x24] CREATE_DIALOG(message_id=7360*, default_option=0*, option_flags=0*)
    → "$3~$3b$3V$3 $3$20T$6p$P11IqEKI [21"2"3]"
  3: 0x000C [0x25] WAIT_DIALOG_SELECT()
  4: 0x000D [0x02] IF !(Work_Zone[0] == 0*) GOTO 0x001D
  5: 0x0015 [0x03] Work_Zone[1] = 21*
  6: 0x001A [0x01] GOTO 0x003D
  7: 0x001D [0x02] IF !(Work_Zone[0] == 1*) GOTO 0x002D
  8: 0x0025 [0x03] Work_Zone[1] = 22*
  9: 0x002A [0x01] GOTO 0x003D
 10: 0x002D [0x02] IF !(Work_Zone[0] == 2*) GOTO 0x003D
 11: 0x0035 [0x03] Work_Zone[1] = 23*
 12: 0x003A [0x01] GOTO 0x003D

SUBROUTINE_003D:
 13: 0x003D [0x1D] PRINT_EVENT_MESSAGE(message_id=7361*)
    → "$P10h%L$s [5$3`$3F$3b$3N$6B /"
 14: 0x0040 [0x23] WAIT_FOR_DIALOG_INTERACTION
 15: 0x0041 [0xA7] BATTLEFIELD_RESPONSE_WAIT: Wait for server response (Dynamis/MMM/Salvage), mode=0x00
 16: 0x0043 [0xA7] BATTLEFIELD_RESPONSE_WAIT: Wait for server response with parameter (Dynamis/MMM/Salvage), param=Work_Zone[1]
 17: 0x0047 [0x21] END_EVENT
 18: 0x0048 [0x00] END_REQSTACK()
```
