# 17027557

## Common Data

| Field            | Value                  |
|------------------|------------------------|
| Zone             | Mount Zhayolm (ID: 61) |
| Block Size       | 5368 bytes             |
| Total Events     | 6                      |
| References Count | 97                     |

## List of Events

| Event ID              | Entrypoint   |   Size |   Instructions |
|-----------------------|--------------|--------|----------------|
| [65535](#event-65535) | 0x0000       |      1 |              1 |
| [4](#event-4)         | 0x0001       |    720 |             99 |
| [7](#event-7)         | 0x02D1       |    685 |             89 |
| [8](#event-8)         | 0x057E       |    697 |             98 |
| [9](#event-9)         | 0x0837       |   1690 |            219 |
| [10](#event-10)       | 0x0ED1       |   1147 |            130 |

## DAT References (imed_data)

|   Index | Hex Value   |   Dec Value |
|---------|-------------|-------------|
|       0 | 0x0013      |          19 |
|       1 | 0x000F      |          15 |
|       2 | 0x001E      |          30 |
|       3 | 0x00FF      |         255 |
|       4 | 0x0000      |           0 |
|       5 | 0x1CF1      |        7409 |
|       6 | 0x001D      |          29 |
|       7 | 0x1CF2      |        7410 |
|       8 | 0x0307      |         775 |
|       9 | 0x1CF3      |        7411 |
|      10 | 0x0001      |           1 |
|      11 | 0x1D02      |        7426 |
|      12 | 0x1CF4      |        7412 |
|      13 | 0x002D      |          45 |
|      14 | 0x1CF5      |        7413 |
|      15 | 0x0078      |         120 |
|      16 | 0x1CF6      |        7414 |
|      17 | 0x1CF7      |        7415 |
|      18 | 0x1CF8      |        7416 |
|      19 | 0x1CF9      |        7417 |
|      20 | 0x0007      |           7 |
|      21 | 0x1CFA      |        7418 |
|      22 | 0x1CFB      |        7419 |
|      23 | 0x0186      |         390 |
|      24 | 0x1CFC      |        7420 |
|      25 | 0x1CFD      |        7421 |
|      26 | 0x1CFE      |        7422 |
|      27 | 0x1CFF      |        7423 |
|      28 | 0x1D00      |        7424 |
|      29 | 0x1D01      |        7425 |
|      30 | 0x00C8      |         200 |
|      31 | 0x007B      |         123 |
|      32 | 0x0103      |         259 |
|      33 | 0x005A      |          90 |
|      34 | 0x1D10      |        7440 |
|      35 | 0x1D11      |        7441 |
|      36 | 0x00D8      |         216 |
|      37 | 0x1D12      |        7442 |
|      38 | 0x1D13      |        7443 |
|      39 | 0x025D      |         605 |
|      40 | 0x1D14      |        7444 |
|      41 | 0x0336      |         822 |
|      42 | 0x1D15      |        7445 |
|      43 | 0x1D16      |        7446 |
|      44 | 0x1D17      |        7447 |
|      45 | 0x003C      |          60 |
|      46 | 0x1D18      |        7448 |
|      47 | 0x1D19      |        7449 |
|      48 | 0x1D1A      |        7450 |
|      49 | 0x1D1B      |        7451 |
|      50 | 0x1D1C      |        7452 |
|      51 | 0x1D1D      |        7453 |
|      52 | 0x0337      |         823 |
|      53 | 0x1D1E      |        7454 |
|      54 | 0x1D1F      |        7455 |
|      55 | 0x0096      |         150 |
|      56 | 0x1D20      |        7456 |
|      57 | 0x00D7      |         215 |
|      58 | 0x1D21      |        7457 |
|      59 | 0x033F      |         831 |
|      60 | 0x1D22      |        7458 |
|      61 | 0x1D23      |        7459 |
|      62 | 0x1D24      |        7460 |
|      63 | 0x1D25      |        7461 |
|      64 | 0x1D26      |        7462 |
|      65 | 0x0002      |           2 |
|      66 | 0x1D27      |        7463 |
|      67 | 0x0006      |           6 |
|      68 | 0x1D28      |        7464 |
|      69 | 0x1D29      |        7465 |
|      70 | 0x1D2A      |        7466 |
|      71 | 0x1D2B      |        7467 |
|      72 | 0x1D2C      |        7468 |
|      73 | 0x1D2D      |        7469 |
|      74 | 0x0744      |        1860 |
|      75 | 0x1D2E      |        7470 |
|      76 | 0x1D2F      |        7471 |
|      77 | 0x1D30      |        7472 |
|      78 | 0x1D31      |        7473 |
|      79 | 0x1D32      |        7474 |
|      80 | 0x1D33      |        7475 |
|      81 | 0x0319      |         793 |
|      82 | 0x1D34      |        7476 |
|      83 | 0x012C      |         300 |
|      84 | 0x1D35      |        7477 |
|      85 | 0x00C9      |         201 |
|      86 | 0x0111      |         273 |
|      87 | 0x1D7C      |        7548 |
|      88 | 0x1D7D      |        7549 |
|      89 | 0x1D7E      |        7550 |
|      90 | 0x1D7F      |        7551 |
|      91 | 0x1D80      |        7552 |
|      92 | 0x02D9      |         729 |
|      93 | 0x00D2      |         210 |
|      94 | 0x1D81      |        7553 |
|      95 | 0x1D82      |        7554 |
|      96 | 0x1D83      |        7555 |

## String References

- **7411**: Show him your $3? [Yes./I am no one's messenger.]
- **7412**: You show the $3 to the Immortal.
- **7413**: Waudeen's staunch expression begins to soften!
- **7463**: Give Zurtermor the $0? [Anything to cheer him up...sheesh./No! It's mine!]

## Events

### Event 65535

#### Metadata

| Field        | Value   |
|--------------|---------|
| Entrypoint   | 0x0000  |
| Data Size    | 1 bytes |
| Instructions | 1       |

```
      00 01 02 03 04 05 06 07  08 09 0A 0B 0C 0D 0E 0F
      -- -- -- -- -- -- -- --  -- -- -- -- -- -- -- --
0000: 00                                                .               
```

#### Opcodes

```
  0: 0x0000 [0x00] END_REQSTACK()
```

### Event 4

#### Metadata

| Field        | Value     |
|--------------|-----------|
| Entrypoint   | 0x0001    |
| Data Size    | 720 bytes |
| Instructions | 98        |

```
      00 01 02 03 04 05 06 07  08 09 0A 0B 0C 0D 0E 0F
      -- -- -- -- -- -- -- --  -- -- -- -- -- -- -- --
0000:    42 1A 1E 11 46 01 38  00 80 79 00 F0 FF FF 7F   B...F.8..y.....
0010: F0 FF FF 7F 92 01 E9 D1  03 01 94 01 F0 FF FF 7F  ................
0020: 94 01 E9 D1 03 01 29 10  F0 FF FF 7F 15 80 F0 FF  ......).........
0030: FF 7F 80 E9 D1 03 01 1C  01 80 4A E9 D1 03 01 F0  ..........J.....
0040: FF FF 7F 4A F0 FF FF 7F  E9 D1 03 01 1C 02 80 45  ...J...........E
0050: 03 80 F0 FF FF 7F F0 FF  FF 7F 73 31 35 36 04 80  ..........s156..
0060: 1C 01 80 1A FD 10 2B E9  D1 03 01 05 80 23 52 03  ......+......#R.
0070: 80 F0 FF FF 7F F0 FF FF  7F 73 31 35 36 45 03 80  .........s156E..
0080: F0 FF FF 7F F0 FF FF 7F  73 31 35 37 04 80 66 06  ........s157..f.
0090: 80 E9 D1 03 01 E9 D1 03  01 74 68 6B 31 2B E9 D1  .........thk1+..
00A0: 03 01 07 80 23 03 02 10  08 80 24 09 80 04 80 04  ....#.....$.....
00B0: 80 25 02 00 10 0A 80 00  F7 00 52 03 80 F0 FF FF  .%........R.....
00C0: 7F F0 FF FF 7F 73 31 35  37 45 03 80 F0 FF FF 7F  .....s157E......
00D0: F0 FF FF 7F 73 31 36 33  04 80 66 06 80 E9 D1 03  ....s163..f.....
00E0: 01 E9 D1 03 01 74 68 6B  32 2B E9 D1 03 01 0B 80  .....thk2+......
00F0: 23 01 98 02 01 F7 00 52  03 80 F0 FF FF 7F F0 FF  #......R........
0100: FF 7F 73 31 35 37 45 03  80 F0 FF FF 7F F0 FF FF  ..s157E.........
0110: 7F 73 31 35 38 04 80 6E  F0 FF FF 7F 04 80 99 F0  .s158..n........
0120: FF FF 7F 03 02 10 08 80  48 0C 80 23 66 06 80 E9  ........H..#f...
0130: D1 03 01 E9 D1 03 01 74  68 6B 32 1C 0D 80 48 0E  .......thk2...H.
0140: 80 1C 0F 80 52 03 80 F0  FF FF 7F F0 FF FF 7F 73  ....R..........s
0150: 31 35 38 45 03 80 F0 FF  FF 7F F0 FF FF 7F 73 31  158E..........s1
0160: 35 39 04 80 03 02 10 08  80 2B E9 D1 03 01 10 80  59.......+......
0170: 23 66 06 80 E9 D1 03 01  E9 D1 03 01 74 6C 6B 30  #f..........tlk0
0180: 2B E9 D1 03 01 11 80 23  2B E9 D1 03 01 12 80 23  +......#+......#
0190: 52 03 80 F0 FF FF 7F F0  FF FF 7F 73 31 35 39 45  R..........s159E
01A0: 03 80 F0 FF FF 7F F0 FF  FF 7F 73 31 36 30 04 80  ..........s160..
01B0: 66 06 80 E9 D1 03 01 E9  D1 03 01 74 6C 6B 31 2B  f..........tlk1+
01C0: E9 D1 03 01 13 80 23 6E  E9 D1 03 01 14 80 99 E9  ......#n........
01D0: D1 03 01 2B E9 D1 03 01  15 80 23 66 06 80 E9 D1  ...+......#f....
01E0: 03 01 E9 D1 03 01 74 6C  6B 30 2B E9 D1 03 01 16  ......tlk0+.....
01F0: 80 23 52 03 80 F0 FF FF  7F F0 FF FF 7F 73 31 36  .#R..........s16
0200: 30 45 03 80 F0 FF FF 7F  F0 FF FF 7F 73 31 36 31  0E..........s161
0210: 04 80 4B F0 FF FF 7F 17  80 2B E9 D1 03 01 18 80  ..K......+......
0220: 23 66 06 80 E9 D1 03 01  E9 D1 03 01 74 6C 6B 31  #f..........tlk1
0230: 2B E9 D1 03 01 19 80 23  2B E9 D1 03 01 1A 80 23  +......#+......#
0240: 52 03 80 F0 FF FF 7F F0  FF FF 7F 73 31 36 31 45  R..........s161E
0250: 03 80 F0 FF FF 7F F0 FF  FF 7F 73 31 36 32 04 80  ..........s162..
0260: 6E E9 D1 03 01 14 80 99  E9 D1 03 01 2B E9 D1 03  n...........+...
0270: 01 1B 80 23 66 06 80 E9  D1 03 01 E9 D1 03 01 74  ...#f..........t
0280: 6C 6B 30 2B E9 D1 03 01  1C 80 23 2B E9 D1 03 01  lk0+......#+....
0290: 1D 80 23 03 01 10 0A 80  1A 1E 11 1C 02 80 52 03  ..#...........R.
02A0: 80 F0 FF FF 7F F0 FF FF  7F 73 31 36 32 52 03 80  .........s162R..
02B0: F0 FF FF 7F F0 FF FF 7F  73 31 36 33 46 00 45 1E  ........s163F.E.
02C0: 80 F0 FF FF 7F F0 FF FF  7F 66 64 69 32 04 80 21  .........fdi2..!
02D0: 00                                                .               
```

#### Opcodes

```
  0: 0x0001 [0x42] SET_CLI_EVENT_CANCEL_DATA()
  1: 0x0002 [0x1A] CALL_SUBROUTINE(address=0x111E)
  2: 0x0005 [0x46] CAMERA_CONTROL: Disable user control
  3: 0x0007 [0x38] SET_CLIENT_EVENT_MODE(mode=19*)
  4: 0x000A [0x79] LocalPlayer looks at LocalPlayer (Basic look)
  5: 0x0014 [0x92] Waudeen (ID: 17027561/0x0103D1E9)->Render.Flags3 ^= 0x01
  6: 0x001A [0x94] LocalPlayer->Render.Flags3 ^= 0x01
  7: 0x0020 [0x94] Waudeen (ID: 17027561/0x0103D1E9)->Render.Flags3 ^= 0x01
  8: 0x0026 [0x29] REQ_SET_WAIT(priority=0x10, entity_id=LocalPlayer, tag_num=0x15)
  9: 0x002D [0x80] LOAD_WAIT(entity=LocalPlayer)
 10: 0x0032 [0x80] LOAD_WAIT(entity=Waudeen (ID: 17027561/0x0103D1E9))
 11: 0x0037 [0x1C] WAIT(15* ticks)
 12: 0x003A [0x4A] Waudeen (ID: 17027561/0x0103D1E9) looks at LocalPlayer
 13: 0x0043 [0x4A] LocalPlayer looks at Waudeen (ID: 17027561/0x0103D1E9)
 14: 0x004C [0x1C] WAIT(30* ticks)
 15: 0x004F [0x45] LOAD_SCHEDULED_TASK: Load scheduler "s156" with entities [LocalPlayer, LocalPlayer], work=[255*, 0*]
 16: 0x0060 [0x1C] WAIT(15* ticks)
 17: 0x0063 [0x1A] CALL_SUBROUTINE(address=0x10FD)
 18: 0x0066 [0x2B] Waudeen (ID: 17027561/0x0103D1E9) [7409*]:
    → "What brings you here? This is the Halvung staging point. From here we keep close surveillance on lands that are of strategic--"
 19: 0x006D [0x23] WAIT_FOR_DIALOG_INTERACTION
 20: 0x006E [0x52] END_LOAD_SCHEDULER: End scheduler "s156" with entities [LocalPlayer, LocalPlayer], work=255*
 21: 0x007D [0x45] LOAD_SCHEDULED_TASK: Load scheduler "s157" with entities [LocalPlayer, LocalPlayer], work=[255*, 0*]
 22: 0x008E [0x66] LOAD_EXT_SCHEDULER_MAIN: Load scheduler "thk1" with entities [Waudeen (ID: 17027561/0x0103D1E9), Waudeen (ID: 17027561/0x0103D1E9)], work=29*
 23: 0x009D [0x2B] Waudeen (ID: 17027561/0x0103D1E9) [7410*]:
    → "Eh? And whose messenger would you be?"
 24: 0x00A4 [0x23] WAIT_FOR_DIALOG_INTERACTION
 25: 0x00A5 [0x03] Work_Zone[2] = 775*
 26: 0x00AA [0x24] CREATE_DIALOG(message_id=7411*, default_option=0*, option_flags=0*)
    → "Show him your $3? [Yes./I am no one's messenger.]"
 27: 0x00B1 [0x25] WAIT_DIALOG_SELECT()
 28: 0x00B2 [0x02] IF !(Work_Zone[0] == 1*) GOTO 0x00F7
 29: 0x00BA [0x52] END_LOAD_SCHEDULER: End scheduler "s157" with entities [LocalPlayer, LocalPlayer], work=255*
 30: 0x00C9 [0x45] LOAD_SCHEDULED_TASK: Load scheduler "s163" with entities [LocalPlayer, LocalPlayer], work=[255*, 0*]
 31: 0x00DA [0x66] LOAD_EXT_SCHEDULER_MAIN: Load scheduler "thk2" with entities [Waudeen (ID: 17027561/0x0103D1E9), Waudeen (ID: 17027561/0x0103D1E9)], work=29*
 32: 0x00E9 [0x2B] Waudeen (ID: 17027561/0x0103D1E9) [7426*]:
    → "Is that so? My senses must be dulling with age. In any case, you are trespassing on Imperial territory. Leave immediately."
 33: 0x00F0 [0x23] WAIT_FOR_DIALOG_INTERACTION
 34: 0x00F1 [0x01] GOTO 0x0298

SUBROUTINE_00F7:
 35: 0x00F7 [0x52] END_LOAD_SCHEDULER: End scheduler "s157" with entities [LocalPlayer, LocalPlayer], work=255*
 36: 0x0106 [0x45] LOAD_SCHEDULED_TASK: Load scheduler "s158" with entities [LocalPlayer, LocalPlayer], work=[255*, 0*]
 37: 0x0117 [0x6E] LocalPlayer uses emote 0*
 38: 0x011E [0x99] Wait for LocalPlayer animation to complete
 39: 0x0123 [0x03] Work_Zone[2] = 775*
 40: 0x0128 [0x48] [System] [7412*]:
    → "You show the $3 to the Immortal."
 41: 0x012B [0x23] WAIT_FOR_DIALOG_INTERACTION
 42: 0x012C [0x66] LOAD_EXT_SCHEDULER_MAIN: Load scheduler "thk2" with entities [Waudeen (ID: 17027561/0x0103D1E9), Waudeen (ID: 17027561/0x0103D1E9)], work=29*
 43: 0x013B [0x1C] WAIT(45* ticks)
 44: 0x013E [0x48] [System] [7413*]:
    → "Waudeen's staunch expression begins to soften!"
 45: 0x0141 [0x1C] WAIT(120* ticks)
 46: 0x0144 [0x52] END_LOAD_SCHEDULER: End scheduler "s158" with entities [LocalPlayer, LocalPlayer], work=255*
 47: 0x0153 [0x45] LOAD_SCHEDULED_TASK: Load scheduler "s159" with entities [LocalPlayer, LocalPlayer], work=[255*, 0*]
 48: 0x0164 [0x03] Work_Zone[2] = 775*
 49: 0x0169 [0x2B] Waudeen (ID: 17027561/0x0103D1E9) [7414*]:
    → "You brought $6 for me? Well, why didn't you say so sooner?"
 50: 0x0170 [0x23] WAIT_FOR_DIALOG_INTERACTION
 51: 0x0171 [0x66] LOAD_EXT_SCHEDULER_MAIN: Load scheduler "tlk0" with entities [Waudeen (ID: 17027561/0x0103D1E9), Waudeen (ID: 17027561/0x0103D1E9)], work=29*
 52: 0x0180 [0x2B] Waudeen (ID: 17027561/0x0103D1E9) [7415*]:
    → "This $3 was created from the oil of a berry that can only be found in the nation of Zhwa, to the far south. It takes days to extract the oil, and the fragrance it gives off is simply indescribable."
 53: 0x0187 [0x23] WAIT_FOR_DIALOG_INTERACTION
 54: 0x0188 [0x2B] Waudeen (ID: 17027561/0x0103D1E9) [7416*]:
    → "Here, we are so used to the stench of fighting and pain... This oil will be indispensable if I ever should have the fortune to meet with the Empress again."
 55: 0x018F [0x23] WAIT_FOR_DIALOG_INTERACTION
 56: 0x0190 [0x52] END_LOAD_SCHEDULER: End scheduler "s159" with entities [LocalPlayer, LocalPlayer], work=255*
 57: 0x019F [0x45] LOAD_SCHEDULED_TASK: Load scheduler "s160" with entities [LocalPlayer, LocalPlayer], work=[255*, 0*]
 58: 0x01B0 [0x66] LOAD_EXT_SCHEDULER_MAIN: Load scheduler "tlk1" with entities [Waudeen (ID: 17027561/0x0103D1E9), Waudeen (ID: 17027561/0x0103D1E9)], work=29*
 59: 0x01BF [0x2B] Waudeen (ID: 17027561/0x0103D1E9) [7417*]:
    → "Oh, I must thank you for bringing this $3 to me!"
 60: 0x01C6 [0x23] WAIT_FOR_DIALOG_INTERACTION
 61: 0x01C7 [0x6E] Waudeen (ID: 17027561/0x0103D1E9) uses emote 7*
 62: 0x01CE [0x99] Wait for Waudeen (ID: 17027561/0x0103D1E9) animation to complete
 63: 0x01D3 [0x2B] Waudeen (ID: 17027561/0x0103D1E9) [7418*]:
    → "Will a bit of information do?"
 64: 0x01DA [0x23] WAIT_FOR_DIALOG_INTERACTION
 65: 0x01DB [0x66] LOAD_EXT_SCHEDULER_MAIN: Load scheduler "tlk0" with entities [Waudeen (ID: 17027561/0x0103D1E9), Waudeen (ID: 17027561/0x0103D1E9)], work=29*
 66: 0x01EA [0x2B] Waudeen (ID: 17027561/0x0103D1E9) [7419*]:
    → "Allow me to explain about the glowing blue device behind you."
 67: 0x01F1 [0x23] WAIT_FOR_DIALOG_INTERACTION
 68: 0x01F2 [0x52] END_LOAD_SCHEDULER: End scheduler "s160" with entities [LocalPlayer, LocalPlayer], work=255*
 69: 0x0201 [0x45] LOAD_SCHEDULED_TASK: Load scheduler "s161" with entities [LocalPlayer, LocalPlayer], work=[255*, 0*]
 70: 0x0212 [0x4B] UPDATE_ENTITY_YAW(entity=LocalPlayer, yaw=2.1°*)
 71: 0x0219 [0x2B] Waudeen (ID: 17027561/0x0103D1E9) [7420*]:
    → "That is a "runic portal." It has the power to carry you to a distant location."
 72: 0x0220 [0x23] WAIT_FOR_DIALOG_INTERACTION
 73: 0x0221 [0x66] LOAD_EXT_SCHEDULER_MAIN: Load scheduler "tlk1" with entities [Waudeen (ID: 17027561/0x0103D1E9), Waudeen (ID: 17027561/0x0103D1E9)], work=29*
 74: 0x0230 [0x2B] Waudeen (ID: 17027561/0x0103D1E9) [7421*]:
    → "I am not precisely sure how it works, but it is one of the many curious magical creations of the alchemists in the royal court."
 75: 0x0237 [0x23] WAIT_FOR_DIALOG_INTERACTION
 76: 0x0238 [0x2B] Waudeen (ID: 17027561/0x0103D1E9) [7422*]:
    → "All speculation aside, however, the device is quite convenient. You should give it a try."
 77: 0x023F [0x23] WAIT_FOR_DIALOG_INTERACTION
 78: 0x0240 [0x52] END_LOAD_SCHEDULER: End scheduler "s161" with entities [LocalPlayer, LocalPlayer], work=255*
 79: 0x024F [0x45] LOAD_SCHEDULED_TASK: Load scheduler "s162" with entities [LocalPlayer, LocalPlayer], work=[255*, 0*]
 80: 0x0260 [0x6E] Waudeen (ID: 17027561/0x0103D1E9) uses emote 7*
 81: 0x0267 [0x99] Wait for Waudeen (ID: 17027561/0x0103D1E9) animation to complete
 82: 0x026C [0x2B] Waudeen (ID: 17027561/0x0103D1E9) [7423*]:
    → "You are certain to be amazed when you arrive in Al Zahbi in the blink of an eye!"
 83: 0x0273 [0x23] WAIT_FOR_DIALOG_INTERACTION
 84: 0x0274 [0x66] LOAD_EXT_SCHEDULER_MAIN: Load scheduler "tlk0" with entities [Waudeen (ID: 17027561/0x0103D1E9), Waudeen (ID: 17027561/0x0103D1E9)], work=29*
 85: 0x0283 [0x2B] Waudeen (ID: 17027561/0x0103D1E9) [7424*]:
    → "In addition, you will be able to use the device from Al Zahbi after traveling once from here."
 86: 0x028A [0x23] WAIT_FOR_DIALOG_INTERACTION
 87: 0x028B [0x2B] Waudeen (ID: 17027561/0x0103D1E9) [7425*]:
    → "I highly advise making use of it when you have urgent business here at the Halvung staging point."
 88: 0x0292 [0x23] WAIT_FOR_DIALOG_INTERACTION
 89: 0x0293 [0x03] Work_Zone[1] = 1*

SUBROUTINE_0298:
 90: 0x0298 [0x1A] CALL_SUBROUTINE(address=0x111E)
 91: 0x029B [0x1C] WAIT(30* ticks)
 92: 0x029E [0x52] END_LOAD_SCHEDULER: End scheduler "s162" with entities [LocalPlayer, LocalPlayer], work=255*
 93: 0x02AD [0x52] END_LOAD_SCHEDULER: End scheduler "s163" with entities [LocalPlayer, LocalPlayer], work=255*
 94: 0x02BC [0x46] CAMERA_CONTROL: Restore default settings
 95: 0x02BE [0x45] LOAD_SCHEDULED_TASK: Load scheduler "fdi2" with entities [LocalPlayer, LocalPlayer], work=[200*, 0*]
 96: 0x02CF [0x21] END_EVENT
 97: 0x02D0 [0x00] END_REQSTACK()
```

#### Data or dead code:

```
# Dead code (unreachable instructions):
     0x00F4 [0x01] GOTO 0x00F7
```

### Event 7

#### Metadata

| Field        | Value     |
|--------------|-----------|
| Entrypoint   | 0x02D1    |
| Data Size    | 685 bytes |
| Instructions | 89        |

```
      00 01 02 03 04 05 06 07  08 09 0A 0B 0C 0D 0E 0F
      -- -- -- -- -- -- -- --  -- -- -- -- -- -- -- --
02D0:    42 1A 1E 11 46 01 38  00 80 79 00 F0 FF FF 7F   B...F.8..y.....
02E0: F0 FF FF 7F 27 10 E7 D1  03 01 04 27 10 E8 D1 03  ....'......'....
02F0: 01 04 92 01 E7 D1 03 01  92 01 E8 D1 03 01 94 01  ................
0300: F0 FF FF 7F 94 01 E7 D1  03 01 94 01 E8 D1 03 01  ................
0310: 29 10 F0 FF FF 7F 16 29  10 E7 D1 03 01 0B 29 10  )......)......).
0320: E8 D1 03 01 0B 80 F0 FF  FF 7F 80 E7 D1 03 01 80  ................
0330: E8 D1 03 01 1C 01 80 29  10 F0 FF FF 7F 19 7B F0  .......)......{.
0340: FF FF 7F 5C 00 1F 80 5C  01 1F 80 9A 1C 02 80 45  ...\...\.......E
0350: 20 80 F0 FF FF 7F F0 FF  FF 7F 7A 6D 30 30 04 80   .........zm00..
0360: 1C 01 80 1A FD 10 1C 21  80 29 10 F0 FF FF 7F 1A  .......!.)......
0370: 4A F0 FF FF 7F E7 D1 03  01 55 20 80 F0 FF FF 7F  J........U .....
0380: F0 FF FF 7F 7A 6D 30 30  45 20 80 F0 FF FF 7F F0  ....zm00E ......
0390: FF FF 7F 7A 6D 30 31 04  80 2B E7 D1 03 01 22 80  ...zm01..+....".
03A0: 23 52 20 80 F0 FF FF 7F  F0 FF FF 7F 7A 6D 30 31  #R .........zm01
03B0: 45 20 80 F0 FF FF 7F F0  FF FF 7F 7A 6D 30 32 04  E .........zm02.
03C0: 80 2B E7 D1 03 01 23 80  23 5B 24 80 E8 D1 03 01  .+....#.#[$.....
03D0: E8 D1 03 01 66 75 6D 30  1C 02 80 2B E8 D1 03 01  ....fum0...+....
03E0: 25 80 23 5B 24 80 E8 D1  03 01 E8 D1 03 01 66 75  %.#[$.........fu
03F0: 6D 31 52 20 80 F0 FF FF  7F F0 FF FF 7F 7A 6D 30  m1R .........zm0
0400: 32 45 20 80 F0 FF FF 7F  F0 FF FF 7F 7A 6D 30 33  2E .........zm03
0410: 04 80 2B E7 D1 03 01 26  80 23 52 20 80 F0 FF FF  ..+....&.#R ....
0420: 7F F0 FF FF 7F 7A 6D 30  33 45 20 80 F0 FF FF 7F  .....zm03E .....
0430: F0 FF FF 7F 7A 6D 30 34  04 80 5B 24 80 E8 D1 03  ....zm04..[$....
0440: 01 E8 D1 03 01 62 69 6B  30 03 02 10 27 80 2B E8  .....bik0...'.+.
0450: D1 03 01 28 80 23 52 20  80 F0 FF FF 7F F0 FF FF  ...(.#R ........
0460: 7F 7A 6D 30 34 45 20 80  F0 FF FF 7F F0 FF FF 7F  .zm04E .........
0470: 7A 6D 30 35 04 80 5B 24  80 E8 D1 03 01 E8 D1 03  zm05..[$........
0480: 01 62 69 6B 31 81 00 E7  D1 03 01 7C 00 E7 D1 03  .bik1......|....
0490: 01 5B 29 80 E7 D1 03 01  E7 D1 03 01 74 6C 6B 30  .[).........tlk0
04A0: 2B E7 D1 03 01 2A 80 23  5B 29 80 E7 D1 03 01 E7  +....*.#[)......
04B0: D1 03 01 74 6C 6B 31 81  01 E7 D1 03 01 7C 01 E7  ...tlk1......|..
04C0: D1 03 01 52 20 80 F0 FF  FF 7F F0 FF FF 7F 7A 6D  ...R .........zm
04D0: 30 35 45 20 80 F0 FF FF  7F F0 FF FF 7F 7A 6D 30  05E .........zm0
04E0: 36 04 80 5B 24 80 E8 D1  03 01 E8 D1 03 01 6D 6D  6..[$.........mm
04F0: 6D 30 2B E8 D1 03 01 2B  80 23 52 20 80 F0 FF FF  m0+....+.#R ....
0500: 7F F0 FF FF 7F 7A 6D 30  36 45 20 80 F0 FF FF 7F  .....zm06E .....
0510: F0 FF FF 7F 7A 6D 30 37  04 80 5B 29 80 E7 D1 03  ....zm07..[)....
0520: 01 E7 D1 03 01 74 68 6B  30 2B E7 D1 03 01 2C 80  .....thk0+....,.
0530: 23 5B 24 80 E8 D1 03 01  E8 D1 03 01 6D 6D 6D 31  #[$.........mmm1
0540: 1C 2D 80 2B E8 D1 03 01  2E 80 23 1A 1E 11 1C 02  .-.+......#.....
0550: 80 52 20 80 F0 FF FF 7F  F0 FF FF 7F 7A 6D 30 37  .R .........zm07
0560: 5C 00 04 80 5C 01 04 80  9A 46 00 45 1E 80 F0 FF  \...\....F.E....
0570: FF 7F F0 FF FF 7F 66 64  69 32 04 80 21 00        ......fdi2..!.  
```

#### Opcodes

```
  0: 0x02D1 [0x42] SET_CLI_EVENT_CANCEL_DATA()
  1: 0x02D2 [0x1A] CALL_SUBROUTINE(address=0x111E)
  2: 0x02D5 [0x46] CAMERA_CONTROL: Disable user control
  3: 0x02D7 [0x38] SET_CLIENT_EVENT_MODE(mode=19*)
  4: 0x02DA [0x79] LocalPlayer looks at LocalPlayer (Basic look)
  5: 0x02E4 [0x27] REQ_SET(priority=0x10, entity_id=Zurtermor (ID: 17027559/0x0103D1E7), tag_num=0x04)
  6: 0x02EB [0x27] REQ_SET(priority=0x10, entity_id=Warsowok (ID: 17027560/0x0103D1E8), tag_num=0x04)
  7: 0x02F2 [0x92] Zurtermor (ID: 17027559/0x0103D1E7)->Render.Flags3 ^= 0x01
  8: 0x02F8 [0x92] Warsowok (ID: 17027560/0x0103D1E8)->Render.Flags3 ^= 0x01
  9: 0x02FE [0x94] LocalPlayer->Render.Flags3 ^= 0x01
 10: 0x0304 [0x94] Zurtermor (ID: 17027559/0x0103D1E7)->Render.Flags3 ^= 0x01
 11: 0x030A [0x94] Warsowok (ID: 17027560/0x0103D1E8)->Render.Flags3 ^= 0x01
 12: 0x0310 [0x29] REQ_SET_WAIT(priority=0x10, entity_id=LocalPlayer, tag_num=0x16)
 13: 0x0317 [0x29] REQ_SET_WAIT(priority=0x10, entity_id=Zurtermor (ID: 17027559/0x0103D1E7), tag_num=0x0B)
 14: 0x031E [0x29] REQ_SET_WAIT(priority=0x10, entity_id=Warsowok (ID: 17027560/0x0103D1E8), tag_num=0x0B)
 15: 0x0325 [0x80] LOAD_WAIT(entity=LocalPlayer)
 16: 0x032A [0x80] LOAD_WAIT(entity=Zurtermor (ID: 17027559/0x0103D1E7))
 17: 0x032F [0x80] LOAD_WAIT(entity=Warsowok (ID: 17027560/0x0103D1E8))
 18: 0x0334 [0x1C] WAIT(15* ticks)
 19: 0x0337 [0x29] REQ_SET_WAIT(priority=0x10, entity_id=LocalPlayer, tag_num=0x19)
 20: 0x033E [0x7B] LocalPlayer stops talking
 21: 0x0343 [0x5C] MUSIC_CONTROL: Set Idle (Day) music to song 123*
 22: 0x0347 [0x5C] MUSIC_CONTROL: Set Idle (Night) music to song 123*
 23: 0x034B [0x9A] WAIT_MUSIC_SERVER()
 24: 0x034C [0x1C] WAIT(30* ticks)
 25: 0x034F [0x45] LOAD_SCHEDULED_TASK: Load scheduler "zm00" with entities [LocalPlayer, LocalPlayer], work=[259*, 0*]
 26: 0x0360 [0x1C] WAIT(15* ticks)
 27: 0x0363 [0x1A] CALL_SUBROUTINE(address=0x10FD)
 28: 0x0366 [0x1C] WAIT(90* ticks)
 29: 0x0369 [0x29] REQ_SET_WAIT(priority=0x10, entity_id=LocalPlayer, tag_num=0x1A)
 30: 0x0370 [0x4A] LocalPlayer looks at Zurtermor (ID: 17027559/0x0103D1E7)
 31: 0x0379 [0x55] WAIT_LOAD_SCHEDULER: Wait for scheduler "zm00" with entities [LocalPlayer, LocalPlayer], work=259*
 32: 0x0388 [0x45] LOAD_SCHEDULED_TASK: Load scheduler "zm01" with entities [LocalPlayer, LocalPlayer], work=[259*, 0*]
 33: 0x0399 [0x2B] Zurtermor (ID: 17027559/0x0103D1E7) [7440*]:
    → "..."
 34: 0x03A0 [0x23] WAIT_FOR_DIALOG_INTERACTION
 35: 0x03A1 [0x52] END_LOAD_SCHEDULER: End scheduler "zm01" with entities [LocalPlayer, LocalPlayer], work=259*
 36: 0x03B0 [0x45] LOAD_SCHEDULED_TASK: Load scheduler "zm02" with entities [LocalPlayer, LocalPlayer], work=[259*, 0*]
 37: 0x03C1 [0x2B] Zurtermor (ID: 17027559/0x0103D1E7) [7441*]:
    → "(Leave me alone, Warsowok...)"
 38: 0x03C8 [0x23] WAIT_FOR_DIALOG_INTERACTION
 39: 0x03C9 [0x5B] LOAD_EXT_SCHEDULER: Load scheduler "fum0" with entities [Warsowok (ID: 17027560/0x0103D1E8), Warsowok (ID: 17027560/0x0103D1E8)], work=216*
 40: 0x03D8 [0x1C] WAIT(30* ticks)
 41: 0x03DB [0x2B] Warsowok (ID: 17027560/0x0103D1E8) [7442*]:
    → "What's wrong with you? You don't wanna fight, you don't wanna talk... Where's that happy-go-lucky Troll I used to know?"
 42: 0x03E2 [0x23] WAIT_FOR_DIALOG_INTERACTION
 43: 0x03E3 [0x5B] LOAD_EXT_SCHEDULER: Load scheduler "fum1" with entities [Warsowok (ID: 17027560/0x0103D1E8), Warsowok (ID: 17027560/0x0103D1E8)], work=216*
 44: 0x03F2 [0x52] END_LOAD_SCHEDULER: End scheduler "zm02" with entities [LocalPlayer, LocalPlayer], work=259*
 45: 0x0401 [0x45] LOAD_SCHEDULED_TASK: Load scheduler "zm03" with entities [LocalPlayer, LocalPlayer], work=[259*, 0*]
 46: 0x0412 [0x2B] Zurtermor (ID: 17027559/0x0103D1E7) [7443*]:
    → "(It's gone. I lost my pick...)"
 47: 0x0419 [0x23] WAIT_FOR_DIALOG_INTERACTION
 48: 0x041A [0x52] END_LOAD_SCHEDULER: End scheduler "zm03" with entities [LocalPlayer, LocalPlayer], work=259*
 49: 0x0429 [0x45] LOAD_SCHEDULED_TASK: Load scheduler "zm04" with entities [LocalPlayer, LocalPlayer], work=[259*, 0*]
 50: 0x043A [0x5B] LOAD_EXT_SCHEDULER: Load scheduler "bik0" with entities [Warsowok (ID: 17027560/0x0103D1E8), Warsowok (ID: 17027560/0x0103D1E8)], work=216*
 51: 0x0449 [0x03] Work_Zone[2] = 605*
 52: 0x044E [0x2B] Warsowok (ID: 17027560/0x0103D1E8) [7444*]:
    → "What!? You loved that $0! Where did you lose it?"
 53: 0x0455 [0x23] WAIT_FOR_DIALOG_INTERACTION
 54: 0x0456 [0x52] END_LOAD_SCHEDULER: End scheduler "zm04" with entities [LocalPlayer, LocalPlayer], work=259*
 55: 0x0465 [0x45] LOAD_SCHEDULED_TASK: Load scheduler "zm05" with entities [LocalPlayer, LocalPlayer], work=[259*, 0*]
 56: 0x0476 [0x5B] LOAD_EXT_SCHEDULER: Load scheduler "bik1" with entities [Warsowok (ID: 17027560/0x0103D1E8), Warsowok (ID: 17027560/0x0103D1E8)], work=216*
 57: 0x0485 [0x81] SET_ENTITY_BLINKING(blink_flag=0x00, entity=Zurtermor (ID: 17027559/0x0103D1E7))
 58: 0x048B [0x7C] Zurtermor (ID: 17027559/0x0103D1E7)->Render.Flags2 |= 0x00
 59: 0x0491 [0x5B] LOAD_EXT_SCHEDULER: Load scheduler "tlk0" with entities [Zurtermor (ID: 17027559/0x0103D1E7), Zurtermor (ID: 17027559/0x0103D1E7)], work=822*
 60: 0x04A0 [0x2B] Zurtermor (ID: 17027559/0x0103D1E7) [7445*]:
    → "(The crevasse...so deep... I can dig no more...<sob>)"
 61: 0x04A7 [0x23] WAIT_FOR_DIALOG_INTERACTION
 62: 0x04A8 [0x5B] LOAD_EXT_SCHEDULER: Load scheduler "tlk1" with entities [Zurtermor (ID: 17027559/0x0103D1E7), Zurtermor (ID: 17027559/0x0103D1E7)], work=822*
 63: 0x04B7 [0x81] SET_ENTITY_BLINKING(blink_flag=0x01, entity=Zurtermor (ID: 17027559/0x0103D1E7))
 64: 0x04BD [0x7C] Zurtermor (ID: 17027559/0x0103D1E7)->Render.Flags2 |= 0x01
 65: 0x04C3 [0x52] END_LOAD_SCHEDULER: End scheduler "zm05" with entities [LocalPlayer, LocalPlayer], work=259*
 66: 0x04D2 [0x45] LOAD_SCHEDULED_TASK: Load scheduler "zm06" with entities [LocalPlayer, LocalPlayer], work=[259*, 0*]
 67: 0x04E3 [0x5B] LOAD_EXT_SCHEDULER: Load scheduler "mmm0" with entities [Warsowok (ID: 17027560/0x0103D1E8), Warsowok (ID: 17027560/0x0103D1E8)], work=216*
 68: 0x04F2 [0x2B] Warsowok (ID: 17027560/0x0103D1E8) [7446*]:
    → "In the crevasse, huh...? That thing is really deep. I don't think you'll be seeing it again."
 69: 0x04F9 [0x23] WAIT_FOR_DIALOG_INTERACTION
 70: 0x04FA [0x52] END_LOAD_SCHEDULER: End scheduler "zm06" with entities [LocalPlayer, LocalPlayer], work=259*
 71: 0x0509 [0x45] LOAD_SCHEDULED_TASK: Load scheduler "zm07" with entities [LocalPlayer, LocalPlayer], work=[259*, 0*]
 72: 0x051A [0x5B] LOAD_EXT_SCHEDULER: Load scheduler "thk0" with entities [Zurtermor (ID: 17027559/0x0103D1E7), Zurtermor (ID: 17027559/0x0103D1E7)], work=822*
 73: 0x0529 [0x2B] Zurtermor (ID: 17027559/0x0103D1E7) [7447*]:
    → "(My pick is never coming back... I have lost my will...to move...<sigh>)"
 74: 0x0530 [0x23] WAIT_FOR_DIALOG_INTERACTION
 75: 0x0531 [0x5B] LOAD_EXT_SCHEDULER: Load scheduler "mmm1" with entities [Warsowok (ID: 17027560/0x0103D1E8), Warsowok (ID: 17027560/0x0103D1E8)], work=216*
 76: 0x0540 [0x1C] WAIT(60* ticks)
 77: 0x0543 [0x2B] Warsowok (ID: 17027560/0x0103D1E8) [7448*]:
    → "Come on, Zurt, cheer up..."
 78: 0x054A [0x23] WAIT_FOR_DIALOG_INTERACTION
 79: 0x054B [0x1A] CALL_SUBROUTINE(address=0x111E)
 80: 0x054E [0x1C] WAIT(30* ticks)
 81: 0x0551 [0x52] END_LOAD_SCHEDULER: End scheduler "zm07" with entities [LocalPlayer, LocalPlayer], work=259*
 82: 0x0560 [0x5C] MUSIC_CONTROL: Set Idle (Day) music to song 0*
 83: 0x0564 [0x5C] MUSIC_CONTROL: Set Idle (Night) music to song 0*
 84: 0x0568 [0x9A] WAIT_MUSIC_SERVER()
 85: 0x0569 [0x46] CAMERA_CONTROL: Restore default settings
 86: 0x056B [0x45] LOAD_SCHEDULED_TASK: Load scheduler "fdi2" with entities [LocalPlayer, LocalPlayer], work=[200*, 0*]
 87: 0x057C [0x21] END_EVENT
 88: 0x057D [0x00] END_REQSTACK()
```

### Event 8

#### Metadata

| Field        | Value     |
|--------------|-----------|
| Entrypoint   | 0x057E    |
| Data Size    | 697 bytes |
| Instructions | 98        |

```
      00 01 02 03 04 05 06 07  08 09 0A 0B 0C 0D 0E 0F
      -- -- -- -- -- -- -- --  -- -- -- -- -- -- -- --
0570:                                            42 1A                B.
0580: 1E 11 46 01 38 00 80 79  00 F0 FF FF 7F F0 FF FF  ..F.8..y........
0590: 7F 27 10 E7 D1 03 01 04  27 10 E8 D1 03 01 04 92  .'......'.......
05A0: 01 E7 D1 03 01 92 01 E8  D1 03 01 94 01 F0 FF FF  ................
05B0: 7F 94 01 E7 D1 03 01 94  01 E8 D1 03 01 29 10 F0  .............)..
05C0: FF FF 7F 17 29 10 E7 D1  03 01 0B 29 10 E8 D1 03  ....)......)....
05D0: 01 0B 80 F0 FF FF 7F 80  E7 D1 03 01 80 E8 D1 03  ................
05E0: 01 1C 01 80 4A F0 FF FF  7F E8 D1 03 01 5C 00 1F  ....J........\..
05F0: 80 5C 01 1F 80 9A 1C 02  80 45 20 80 F0 FF FF 7F  .\.......E .....
0600: F0 FF FF 7F 7A 6D 31 30  04 80 1C 01 80 1A FD 10  ....zm10........
0610: 4A E8 D1 03 01 F0 FF FF  7F 6F 76 E8 D1 03 01 03  J........ov.....
0620: 02 10 27 80 2B E8 D1 03  01 2F 80 23 52 20 80 F0  ..'.+..../.#R ..
0630: FF FF 7F F0 FF FF 7F 7A  6D 31 30 45 20 80 F0 FF  .......zm10E ...
0640: FF 7F F0 FF FF 7F 7A 6D  31 31 04 80 4A E8 D1 03  ......zm11..J...
0650: 01 E7 D1 03 01 6F 76 E8  D1 03 01 5B 24 80 E8 D1  .....ov....[$...
0660: 03 01 E8 D1 03 01 68 61  70 30 03 02 10 27 80 79  ......hap0...'.y
0670: 00 F0 FF FF 7F E7 D1 03  01 2B E8 D1 03 01 30 80  .........+....0.
0680: 23 52 20 80 F0 FF FF 7F  F0 FF FF 7F 7A 6D 31 31  #R .........zm11
0690: 45 20 80 F0 FF FF 7F F0  FF FF 7F 7A 6D 31 32 04  E .........zm12.
06A0: 80 4A E7 D1 03 01 E8 D1  03 01 6F 76 E7 D1 03 01  .J........ov....
06B0: 1C 02 80 5B 24 80 E8 D1  03 01 E8 D1 03 01 68 61  ...[$.........ha
06C0: 70 31 2B E7 D1 03 01 31  80 23 52 20 80 F0 FF FF  p1+....1.#R ....
06D0: 7F F0 FF FF 7F 7A 6D 31  32 45 20 80 F0 FF FF 7F  .....zm12E .....
06E0: F0 FF FF 7F 7A 6D 31 33  04 80 79 00 E7 D1 03 01  ....zm13..y.....
06F0: F0 FF FF 7F 1C 2D 80 4A  E8 D1 03 01 F0 FF FF 7F  .....-.J........
0700: 2B E7 D1 03 01 32 80 23  52 20 80 F0 FF FF 7F F0  +....2.#R ......
0710: FF FF 7F 7A 6D 31 33 45  20 80 F0 FF FF 7F F0 FF  ...zm13E .......
0720: FF 7F 7A 6D 31 34 04 80  5B 24 80 E8 D1 03 01 E8  ..zm14..[$......
0730: D1 03 01 66 75 6D 30 03  02 10 27 80 2B E8 D1 03  ...fum0...'.+...
0740: 01 33 80 23 79 00 E7 D1  03 01 E8 D1 03 01 81 00  .3.#y...........
0750: E7 D1 03 01 7C 00 E7 D1  03 01 5B 34 80 E7 D1 03  ....|.....[4....
0760: 01 E7 D1 03 01 74 6C 62  30 5B 24 80 E8 D1 03 01  .....tlb0[$.....
0770: E8 D1 03 01 66 75 6D 31  2B E7 D1 03 01 35 80 23  ....fum1+....5.#
0780: 81 01 E7 D1 03 01 7C 01  E7 D1 03 01 53 E8 D1 03  ......|.....S...
0790: 01 E8 D1 03 01 66 75 6D  31 52 20 80 F0 FF FF 7F  .....fum1R .....
07A0: F0 FF FF 7F 7A 6D 31 34  45 20 80 F0 FF FF 7F F0  ....zm14E ......
07B0: FF FF 7F 7A 6D 31 35 04  80 4A E8 D1 03 01 E7 D1  ...zm15..J......
07C0: 03 01 03 02 10 27 80 2B  E8 D1 03 01 36 80 23 52  .....'.+....6.#R
07D0: 20 80 F0 FF FF 7F F0 FF  FF 7F 7A 6D 31 35 45 20   .........zm15E 
07E0: 80 F0 FF FF 7F F0 FF FF  7F 7A 6D 31 36 04 80 5D  .........zm16..]
07F0: 04 80 37 80 7B E7 D1 03  01 1C 0F 80 2B E7 D1 03  ..7.{.......+...
0800: 01 38 80 23 1A 1E 11 1C  02 80 52 20 80 F0 FF FF  .8.#......R ....
0810: 7F F0 FF FF 7F 7A 6D 31  36 5C 00 04 80 5C 01 04  .....zm16\...\..
0820: 80 9A 46 00 45 1E 80 F0  FF FF 7F F0 FF FF 7F 66  ..F.E..........f
0830: 64 69 32 04 80 21 00                              di2..!.         
```

#### Opcodes

```
  0: 0x057E [0x42] SET_CLI_EVENT_CANCEL_DATA()
  1: 0x057F [0x1A] CALL_SUBROUTINE(address=0x111E)
  2: 0x0582 [0x46] CAMERA_CONTROL: Disable user control
  3: 0x0584 [0x38] SET_CLIENT_EVENT_MODE(mode=19*)
  4: 0x0587 [0x79] LocalPlayer looks at LocalPlayer (Basic look)
  5: 0x0591 [0x27] REQ_SET(priority=0x10, entity_id=Zurtermor (ID: 17027559/0x0103D1E7), tag_num=0x04)
  6: 0x0598 [0x27] REQ_SET(priority=0x10, entity_id=Warsowok (ID: 17027560/0x0103D1E8), tag_num=0x04)
  7: 0x059F [0x92] Zurtermor (ID: 17027559/0x0103D1E7)->Render.Flags3 ^= 0x01
  8: 0x05A5 [0x92] Warsowok (ID: 17027560/0x0103D1E8)->Render.Flags3 ^= 0x01
  9: 0x05AB [0x94] LocalPlayer->Render.Flags3 ^= 0x01
 10: 0x05B1 [0x94] Zurtermor (ID: 17027559/0x0103D1E7)->Render.Flags3 ^= 0x01
 11: 0x05B7 [0x94] Warsowok (ID: 17027560/0x0103D1E8)->Render.Flags3 ^= 0x01
 12: 0x05BD [0x29] REQ_SET_WAIT(priority=0x10, entity_id=LocalPlayer, tag_num=0x17)
 13: 0x05C4 [0x29] REQ_SET_WAIT(priority=0x10, entity_id=Zurtermor (ID: 17027559/0x0103D1E7), tag_num=0x0B)
 14: 0x05CB [0x29] REQ_SET_WAIT(priority=0x10, entity_id=Warsowok (ID: 17027560/0x0103D1E8), tag_num=0x0B)
 15: 0x05D2 [0x80] LOAD_WAIT(entity=LocalPlayer)
 16: 0x05D7 [0x80] LOAD_WAIT(entity=Zurtermor (ID: 17027559/0x0103D1E7))
 17: 0x05DC [0x80] LOAD_WAIT(entity=Warsowok (ID: 17027560/0x0103D1E8))
 18: 0x05E1 [0x1C] WAIT(15* ticks)
 19: 0x05E4 [0x4A] LocalPlayer looks at Warsowok (ID: 17027560/0x0103D1E8)
 20: 0x05ED [0x5C] MUSIC_CONTROL: Set Idle (Day) music to song 123*
 21: 0x05F1 [0x5C] MUSIC_CONTROL: Set Idle (Night) music to song 123*
 22: 0x05F5 [0x9A] WAIT_MUSIC_SERVER()
 23: 0x05F6 [0x1C] WAIT(30* ticks)
 24: 0x05F9 [0x45] LOAD_SCHEDULED_TASK: Load scheduler "zm10" with entities [LocalPlayer, LocalPlayer], work=[259*, 0*]
 25: 0x060A [0x1C] WAIT(15* ticks)
 26: 0x060D [0x1A] CALL_SUBROUTINE(address=0x10FD)
 27: 0x0610 [0x4A] Warsowok (ID: 17027560/0x0103D1E8) looks at LocalPlayer
 28: 0x0619 [0x6F] WAIT_FRAME_DELAY: Yield until WaitTime reaches zero
 29: 0x061A [0x76] CHECK_ENTITY_RENDER_FLAGS: Wait until Warsowok (ID: 17027560/0x0103D1E8) Render.Flags0 and Render.Flags3 conditions are met
 30: 0x061F [0x03] Work_Zone[2] = 605*
 31: 0x0624 [0x2B] Warsowok (ID: 17027560/0x0103D1E8) [7449*]:
    → "What do you want? Hm? $0?"
 32: 0x062B [0x23] WAIT_FOR_DIALOG_INTERACTION
 33: 0x062C [0x52] END_LOAD_SCHEDULER: End scheduler "zm10" with entities [LocalPlayer, LocalPlayer], work=259*
 34: 0x063B [0x45] LOAD_SCHEDULED_TASK: Load scheduler "zm11" with entities [LocalPlayer, LocalPlayer], work=[259*, 0*]
 35: 0x064C [0x4A] Warsowok (ID: 17027560/0x0103D1E8) looks at Zurtermor (ID: 17027559/0x0103D1E7)
 36: 0x0655 [0x6F] WAIT_FRAME_DELAY: Yield until WaitTime reaches zero
 37: 0x0656 [0x76] CHECK_ENTITY_RENDER_FLAGS: Wait until Warsowok (ID: 17027560/0x0103D1E8) Render.Flags0 and Render.Flags3 conditions are met
 38: 0x065B [0x5B] LOAD_EXT_SCHEDULER: Load scheduler "hap0" with entities [Warsowok (ID: 17027560/0x0103D1E8), Warsowok (ID: 17027560/0x0103D1E8)], work=216*
 39: 0x066A [0x03] Work_Zone[2] = 605*
 40: 0x066F [0x79] LocalPlayer looks at Zurtermor (ID: 17027559/0x0103D1E7) (Basic look)
 41: 0x0679 [0x2B] Warsowok (ID: 17027560/0x0103D1E8) [7450*]:
    → "Hey, Zurt! Look at this! $0!"
 42: 0x0680 [0x23] WAIT_FOR_DIALOG_INTERACTION
 43: 0x0681 [0x52] END_LOAD_SCHEDULER: End scheduler "zm11" with entities [LocalPlayer, LocalPlayer], work=259*
 44: 0x0690 [0x45] LOAD_SCHEDULED_TASK: Load scheduler "zm12" with entities [LocalPlayer, LocalPlayer], work=[259*, 0*]
 45: 0x06A1 [0x4A] Zurtermor (ID: 17027559/0x0103D1E7) looks at Warsowok (ID: 17027560/0x0103D1E8)
 46: 0x06AA [0x6F] WAIT_FRAME_DELAY: Yield until WaitTime reaches zero
 47: 0x06AB [0x76] CHECK_ENTITY_RENDER_FLAGS: Wait until Zurtermor (ID: 17027559/0x0103D1E7) Render.Flags0 and Render.Flags3 conditions are met
 48: 0x06B0 [0x1C] WAIT(30* ticks)
 49: 0x06B3 [0x5B] LOAD_EXT_SCHEDULER: Load scheduler "hap1" with entities [Warsowok (ID: 17027560/0x0103D1E8), Warsowok (ID: 17027560/0x0103D1E8)], work=216*
 50: 0x06C2 [0x2B] Zurtermor (ID: 17027559/0x0103D1E7) [7451*]:
    → "(A pickaxe...? This is a little-person tool...)"
 51: 0x06C9 [0x23] WAIT_FOR_DIALOG_INTERACTION
 52: 0x06CA [0x52] END_LOAD_SCHEDULER: End scheduler "zm12" with entities [LocalPlayer, LocalPlayer], work=259*
 53: 0x06D9 [0x45] LOAD_SCHEDULED_TASK: Load scheduler "zm13" with entities [LocalPlayer, LocalPlayer], work=[259*, 0*]
 54: 0x06EA [0x79] Zurtermor (ID: 17027559/0x0103D1E7) looks at LocalPlayer (Basic look)
 55: 0x06F4 [0x1C] WAIT(60* ticks)
 56: 0x06F7 [0x4A] Warsowok (ID: 17027560/0x0103D1E8) looks at LocalPlayer
 57: 0x0700 [0x2B] Zurtermor (ID: 17027559/0x0103D1E7) [7452*]:
    → "(<Sigh>... You are very kind. But I am a Troll. I cannot use little-person tools.)"
 58: 0x0707 [0x23] WAIT_FOR_DIALOG_INTERACTION
 59: 0x0708 [0x52] END_LOAD_SCHEDULER: End scheduler "zm13" with entities [LocalPlayer, LocalPlayer], work=259*
 60: 0x0717 [0x45] LOAD_SCHEDULED_TASK: Load scheduler "zm14" with entities [LocalPlayer, LocalPlayer], work=[259*, 0*]
 61: 0x0728 [0x5B] LOAD_EXT_SCHEDULER: Load scheduler "fum0" with entities [Warsowok (ID: 17027560/0x0103D1E8), Warsowok (ID: 17027560/0x0103D1E8)], work=216*
 62: 0x0737 [0x03] Work_Zone[2] = 605*
 63: 0x073C [0x2B] Warsowok (ID: 17027560/0x0103D1E8) [7453*]:
    → "Oh, that's right. This $0 would be way too small for you. That's a real shame."
 64: 0x0743 [0x23] WAIT_FOR_DIALOG_INTERACTION
 65: 0x0744 [0x79] Zurtermor (ID: 17027559/0x0103D1E7) looks at Warsowok (ID: 17027560/0x0103D1E8) (Basic look)
 66: 0x074E [0x81] SET_ENTITY_BLINKING(blink_flag=0x00, entity=Zurtermor (ID: 17027559/0x0103D1E7))
 67: 0x0754 [0x7C] Zurtermor (ID: 17027559/0x0103D1E7)->Render.Flags2 |= 0x00
 68: 0x075A [0x5B] LOAD_EXT_SCHEDULER: Load scheduler "tlb0" with entities [Zurtermor (ID: 17027559/0x0103D1E7), Zurtermor (ID: 17027559/0x0103D1E7)], work=823*
 69: 0x0769 [0x5B] LOAD_EXT_SCHEDULER: Load scheduler "fum1" with entities [Warsowok (ID: 17027560/0x0103D1E8), Warsowok (ID: 17027560/0x0103D1E8)], work=216*
 70: 0x0778 [0x2B] Zurtermor (ID: 17027559/0x0103D1E7) [7454*]:
    → "(I break boulders. This will snap like a twig. Trolls need big-person tools.)"
 71: 0x077F [0x23] WAIT_FOR_DIALOG_INTERACTION
 72: 0x0780 [0x81] SET_ENTITY_BLINKING(blink_flag=0x01, entity=Zurtermor (ID: 17027559/0x0103D1E7))
 73: 0x0786 [0x7C] Zurtermor (ID: 17027559/0x0103D1E7)->Render.Flags2 |= 0x01
 74: 0x078C [0x53] WAIT_SCHEDULER_TASK: Wait for scheduler "fum1" with entities [Warsowok (ID: 17027560/0x0103D1E8), Warsowok (ID: 17027560/0x0103D1E8)]
 75: 0x0799 [0x52] END_LOAD_SCHEDULER: End scheduler "zm14" with entities [LocalPlayer, LocalPlayer], work=259*
 76: 0x07A8 [0x45] LOAD_SCHEDULED_TASK: Load scheduler "zm15" with entities [LocalPlayer, LocalPlayer], work=[259*, 0*]
 77: 0x07B9 [0x4A] Warsowok (ID: 17027560/0x0103D1E8) looks at Zurtermor (ID: 17027559/0x0103D1E7)
 78: 0x07C2 [0x03] Work_Zone[2] = 605*
 79: 0x07C7 [0x2B] Warsowok (ID: 17027560/0x0103D1E8) [7455*]:
    → "So you wanna break boulders, huh? You'll be needing something a little more sturdy than $0, then... Hmmm..."
 80: 0x07CE [0x23] WAIT_FOR_DIALOG_INTERACTION
 81: 0x07CF [0x52] END_LOAD_SCHEDULER: End scheduler "zm15" with entities [LocalPlayer, LocalPlayer], work=259*
 82: 0x07DE [0x45] LOAD_SCHEDULED_TASK: Load scheduler "zm16" with entities [LocalPlayer, LocalPlayer], work=[259*, 0*]
 83: 0x07EF [0x5D] SET_MUSIC_VOLUME(volume=0*, fade_time=150*)
 84: 0x07F4 [0x7B] Zurtermor (ID: 17027559/0x0103D1E7) stops talking
 85: 0x07F9 [0x1C] WAIT(120* ticks)
 86: 0x07FC [0x2B] Zurtermor (ID: 17027559/0x0103D1E7) [7456*]:
    → "(<Sigh>... I'll never see my pick again...)"
 87: 0x0803 [0x23] WAIT_FOR_DIALOG_INTERACTION
 88: 0x0804 [0x1A] CALL_SUBROUTINE(address=0x111E)
 89: 0x0807 [0x1C] WAIT(30* ticks)
 90: 0x080A [0x52] END_LOAD_SCHEDULER: End scheduler "zm16" with entities [LocalPlayer, LocalPlayer], work=259*
 91: 0x0819 [0x5C] MUSIC_CONTROL: Set Idle (Day) music to song 0*
 92: 0x081D [0x5C] MUSIC_CONTROL: Set Idle (Night) music to song 0*
 93: 0x0821 [0x9A] WAIT_MUSIC_SERVER()
 94: 0x0822 [0x46] CAMERA_CONTROL: Restore default settings
 95: 0x0824 [0x45] LOAD_SCHEDULED_TASK: Load scheduler "fdi2" with entities [LocalPlayer, LocalPlayer], work=[200*, 0*]
 96: 0x0835 [0x21] END_EVENT
 97: 0x0836 [0x00] END_REQSTACK()
```

### Event 9

#### Metadata

| Field        | Value      |
|--------------|------------|
| Entrypoint   | 0x0837     |
| Data Size    | 1690 bytes |
| Instructions | 218        |

```
      00 01 02 03 04 05 06 07  08 09 0A 0B 0C 0D 0E 0F
      -- -- -- -- -- -- -- --  -- -- -- -- -- -- -- --
0830:                      03  00 00 03 10 42 1A 1E 11         .....B...
0840: 46 01 38 00 80 79 00 F0  FF FF 7F F0 FF FF 7F 27  F.8..y.........'
0850: 10 E7 D1 03 01 04 27 10  E8 D1 03 01 04 92 01 E7  ......'.........
0860: D1 03 01 92 01 E8 D1 03  01 94 01 F0 FF FF 7F 94  ................
0870: 01 E7 D1 03 01 94 01 E8  D1 03 01 29 10 F0 FF FF  ...........)....
0880: 7F 18 29 10 E7 D1 03 01  0B 29 10 E8 D1 03 01 0C  ..)......)......
0890: 80 F0 FF FF 7F 80 E7 D1  03 01 80 E8 D1 03 01 1C  ................
08A0: 01 80 4A F0 FF FF 7F E8  D1 03 01 5C 00 1F 80 5C  ..J........\...\
08B0: 01 1F 80 9A 1C 02 80 45  20 80 F0 FF FF 7F F0 FF  .......E .......
08C0: FF 7F 7A 6D 32 30 04 80  1C 01 80 1A FD 10 4A E8  ..zm20........J.
08D0: D1 03 01 F0 FF FF 7F 6F  76 E8 D1 03 01 5B 39 80  .......ov....[9.
08E0: E8 D1 03 01 E8 D1 03 01  74 6C 6B 30 2B E8 D1 03  ........tlk0+...
08F0: 01 3A 80 23 6B 69 64 6C  30 E8 D1 03 01 52 20 80  .:.#kidl0....R .
0900: F0 FF FF 7F F0 FF FF 7F  7A 6D 32 30 45 20 80 F0  ........zm20E ..
0910: FF FF 7F F0 FF FF 7F 7A  6D 32 31 04 80 2B E7 D1  .......zm21..+..
0920: 03 01 22 80 23 4A E7 D1  03 01 F0 FF FF 7F 6F 76  ..".#J........ov
0930: E7 D1 03 01 52 20 80 F0  FF FF 7F F0 FF FF 7F 7A  ....R .........z
0940: 6D 32 31 45 20 80 F0 FF  FF 7F F0 FF FF 7F 7A 6D  m21E .........zm
0950: 32 32 04 80 1C 2D 80 79  00 F0 FF FF 7F E7 D1 03  22...-.y........
0960: 01 5B 3B 80 E7 D1 03 01  E7 D1 03 01 70 6E 74 30  .[;.........pnt0
0970: 2B E7 D1 03 01 3C 80 23  4A E8 D1 03 01 E7 D1 03  +....<.#J.......
0980: 01 5B 3B 80 E7 D1 03 01  E7 D1 03 01 70 6E 74 31  .[;.........pnt1
0990: 52 20 80 F0 FF FF 7F F0  FF FF 7F 7A 6D 32 32 45  R .........zm22E
09A0: 20 80 F0 FF FF 7F F0 FF  FF 7F 7A 6D 32 33 04 80   .........zm23..
09B0: 2B E7 D1 03 01 3D 80 23  03 01 10 0A 80 43 00 43  +....=.#.....C.C
09C0: 01 52 20 80 F0 FF FF 7F  F0 FF FF 7F 7A 6D 32 33  .R .........zm23
09D0: 45 20 80 F0 FF FF 7F F0  FF FF 7F 7A 6D 32 34 04  E .........zm24.
09E0: 80 5B 39 80 E8 D1 03 01  E8 D1 03 01 74 6C 6B 31  .[9.........tlk1
09F0: 2B E8 D1 03 01 3E 80 23  79 00 E7 D1 03 01 E8 D1  +....>.#y.......
0A00: 03 01 1C 0D 80 6B 69 64  6C 30 E8 D1 03 01 2B E7  .....kidl0....+.
0A10: D1 03 01 3F 80 23 52 20  80 F0 FF FF 7F F0 FF FF  ...?.#R ........
0A20: 7F 7A 6D 32 34 45 20 80  F0 FF FF 7F F0 FF FF 7F  .zm24E .........
0A30: 7A 6D 32 35 04 80 79 00  F0 FF FF 7F E8 D1 03 01  zm25..y.........
0A40: 4A E8 D1 03 01 F0 FF FF  7F 6F 76 E8 D1 03 01 5B  J........ov....[
0A50: 39 80 E8 D1 03 01 E8 D1  03 01 74 6C 6B 30 2B E8  9.........tlk0+.
0A60: D1 03 01 40 80 23 5D 04  80 1E 80 6B 69 64 6C 30  ...@.#]....kidl0
0A70: E8 D1 03 01 79 00 E7 D1  03 01 F0 FF FF 7F 1C 0D  ....y...........
0A80: 80 03 01 10 41 80 43 00  43 01 24 42 80 04 80 04  ....A.C.C.$B....
0A90: 80 25 02 00 10 0A 80 00  E7 0A 6E F0 FF FF 7F 43  .%........n....C
0AA0: 80 99 F0 FF FF 7F 99 F0  FF FF 7F 1C 02 80 5B 24  ..............[$
0AB0: 80 E8 D1 03 01 E8 D1 03  01 61 6E 67 30 2B E8 D1  .........ang0+..
0AC0: 03 01 44 80 23 5B 24 80  E8 D1 03 01 E8 D1 03 01  ..D.#[$.........
0AD0: 61 6E 67 31 53 E8 D1 03  01 E8 D1 03 01 61 6E 67  ang1S........ang
0AE0: 31 01 81 0A 01 E7 0A 6E  F0 FF FF 7F 14 80 99 F0  1......n........
0AF0: FF FF 7F 99 F0 FF FF 7F  1C 02 80 5C 00 0F 80 5C  ...........\...\
0B00: 01 0F 80 9A 52 20 80 F0  FF FF 7F F0 FF FF 7F 7A  ....R .........z
0B10: 6D 32 35 45 20 80 F0 FF  FF 7F F0 FF FF 7F 7A 6D  m25E .........zm
0B20: 32 36 04 80 79 00 F0 FF  FF 7F E7 D1 03 01 81 00  26..y...........
0B30: E7 D1 03 01 7C 00 E7 D1  03 01 5B 34 80 E7 D1 03  ....|.....[4....
0B40: 01 E7 D1 03 01 74 6C 62  30 2B E7 D1 03 01 45 80  .....tlb0+....E.
0B50: 23 81 01 E7 D1 03 01 7C  01 E7 D1 03 01 5B 39 80  #......|.....[9.
0B60: E8 D1 03 01 E8 D1 03 01  74 6C 6B 30 2B E8 D1 03  ........tlk0+...
0B70: 01 46 80 23 6B 69 64 6C  30 E8 D1 03 01 53 E7 D1  .F.#kidl0....S..
0B80: 03 01 E7 D1 03 01 74 6C  62 30 52 20 80 F0 FF FF  ......tlb0R ....
0B90: 7F F0 FF FF 7F 7A 6D 32  36 45 20 80 F0 FF FF 7F  .....zm26E .....
0BA0: F0 FF FF 7F 7A 6D 32 37  04 80 81 00 E7 D1 03 01  ....zm27........
0BB0: 7C 00 E7 D1 03 01 5B 34  80 E7 D1 03 01 E7 D1 03  |.....[4........
0BC0: 01 74 6C 62 30 2B E7 D1  03 01 47 80 23 81 01 E7  .tlb0+....G.#...
0BD0: D1 03 01 7C 01 E7 D1 03  01 52 20 80 F0 FF FF 7F  ...|.....R .....
0BE0: F0 FF FF 7F 7A 6D 32 37  45 20 80 F0 FF FF 7F F0  ....zm27E ......
0BF0: FF FF 7F 7A 6D 32 38 04  80 5B 39 80 E8 D1 03 01  ...zm28..[9.....
0C00: E8 D1 03 01 74 6C 6B 31  2B E8 D1 03 01 48 80 23  ....tlk1+....H.#
0C10: 52 20 80 F0 FF FF 7F F0  FF FF 7F 7A 6D 32 38 45  R .........zm28E
0C20: 20 80 F0 FF FF 7F F0 FF  FF 7F 7A 6D 32 39 04 80   .........zm29..
0C30: 6B 69 64 6C 30 E8 D1 03  01 53 E7 D1 03 01 E7 D1  kidl0....S......
0C40: 03 01 74 6C 62 30 4A E8  D1 03 01 E7 D1 03 01 5B  ..tlb0J........[
0C50: 34 80 E7 D1 03 01 E7 D1  03 01 70 61 73 30 2B E7  4.........pas0+.
0C60: D1 03 01 49 80 23 6F 76  E8 D1 03 01 52 20 80 F0  ...I.#ov....R ..
0C70: FF FF 7F F0 FF FF 7F 7A  6D 32 39 45 20 80 F0 FF  .......zm29E ...
0C80: FF 7F F0 FF FF 7F 7A 6D  33 30 04 80 5B 24 80 E8  ......zm30..[$..
0C90: D1 03 01 E8 D1 03 01 62  69 6B 30 03 02 10 4A 80  .......bik0...J.
0CA0: 2B E8 D1 03 01 4B 80 23  53 E7 D1 03 01 E7 D1 03  +....K.#S.......
0CB0: 01 70 61 73 30 79 00 E7  D1 03 01 E8 D1 03 01 81  .pas0y..........
0CC0: 00 E7 D1 03 01 7C 00 E7  D1 03 01 5B 29 80 E7 D1  .....|.....[)...
0CD0: 03 01 E7 D1 03 01 74 6C  6B 30 02 00 00 0A 80 00  ......tlk0......
0CE0: EA 0C 2B E7 D1 03 01 4C  80 23 2B E7 D1 03 01 4D  ..+....L.#+....M
0CF0: 80 23 52 20 80 F0 FF FF  7F F0 FF FF 7F 7A 6D 33  .#R .........zm3
0D00: 30 45 20 80 F0 FF FF 7F  F0 FF FF 7F 7A 6D 33 32  0E .........zm32
0D10: 04 80 5B 24 80 E8 D1 03  01 E8 D1 03 01 62 69 6B  ..[$.........bik
0D20: 31 79 00 E7 D1 03 01 F0  FF FF 7F 2B E7 D1 03 01  1y.........+....
0D30: 4E 80 23 5B 29 80 E7 D1  03 01 E7 D1 03 01 74 6C  N.#[).........tl
0D40: 6B 31 81 01 E7 D1 03 01  7C 01 E7 D1 03 01 1C 0D  k1......|.......
0D50: 80 52 20 80 F0 FF FF 7F  F0 FF FF 7F 7A 6D 33 32  .R .........zm32
0D60: 45 20 80 F0 FF FF 7F F0  FF FF 7F 7A 6D 33 31 04  E .........zm31.
0D70: 80 5B 24 80 E8 D1 03 01  E8 D1 03 01 66 75 6D 30  .[$.........fum0
0D80: 2B E8 D1 03 01 4F 80 23  5B 24 80 E8 D1 03 01 E8  +....O.#[$......
0D90: D1 03 01 66 75 6D 31 79  00 F0 FF FF 7F E8 D1 03  ...fum1y........
0DA0: 01 4A E8 D1 03 01 F0 FF  FF 7F 6F 76 E8 D1 03 01  .J........ov....
0DB0: 5B 39 80 E8 D1 03 01 E8  D1 03 01 74 6C 6B 30 2B  [9.........tlk0+
0DC0: E8 D1 03 01 50 80 23 6B  69 64 6C 30 E8 D1 03 01  ....P.#kidl0....
0DD0: 03 01 10 41 80 43 00 43  01 03 03 10 51 80 52 20  ...A.C.C....Q.R 
0DE0: 80 F0 FF FF 7F F0 FF FF  7F 7A 6D 33 31 45 20 80  .........zm31E .
0DF0: F0 FF FF 7F F0 FF FF 7F  7A 6D 33 33 04 80 79 00  ........zm33..y.
0E00: F0 FF FF 7F E7 D1 03 01  4A E8 D1 03 01 E7 D1 03  ........J.......
0E10: 01 5B 34 80 E7 D1 03 01  E7 D1 03 01 65 73 63 30  .[4.........esc0
0E20: 2B E7 D1 03 01 52 80 23  53 E7 D1 03 01 E7 D1 03  +....R.#S.......
0E30: 01 65 73 63 30 52 20 80  F0 FF FF 7F F0 FF FF 7F  .esc0R .........
0E40: 7A 6D 33 33 45 20 80 F0  FF FF 7F F0 FF FF 7F 7A  zm33E .........z
0E50: 6D 33 34 04 80 5D 04 80  53 80 27 10 E7 D1 03 01  m34..]..S.'.....
0E60: 0C 1C 0D 80 2B E8 D1 03  01 54 80 1C 01 80 4A E8  ....+....T....J.
0E70: D1 03 01 E7 D1 03 01 1C  0D 80 27 10 E8 D1 03 01  ..........'.....
0E80: 0D 4A F0 FF FF 7F E7 D1  03 01 1C 0F 80 1A 1E 11  .J..............
0E90: 1C 02 80 52 20 80 F0 FF  FF 7F F0 FF FF 7F 7A 6D  ...R .........zm
0EA0: 33 34 5C 00 04 80 5C 01  04 80 9A 46 00 45 55 80  34\...\....F.EU.
0EB0: F8 FF FF 7F F8 FF FF 7F  71 73 74 63 04 80 45 1E  ........qstc..E.
0EC0: 80 F0 FF FF 7F F0 FF FF  7F 66 64 69 32 04 80 21  .........fdi2..!
0ED0: 00                                                .               
```

#### Opcodes

```
  0: 0x0837 [0x03] ExtData[1]->WorkLocal[0] = Work_Zone[3]
  1: 0x083C [0x42] SET_CLI_EVENT_CANCEL_DATA()
  2: 0x083D [0x1A] CALL_SUBROUTINE(address=0x111E)
  3: 0x0840 [0x46] CAMERA_CONTROL: Disable user control
  4: 0x0842 [0x38] SET_CLIENT_EVENT_MODE(mode=19*)
  5: 0x0845 [0x79] LocalPlayer looks at LocalPlayer (Basic look)
  6: 0x084F [0x27] REQ_SET(priority=0x10, entity_id=Zurtermor (ID: 17027559/0x0103D1E7), tag_num=0x04)
  7: 0x0856 [0x27] REQ_SET(priority=0x10, entity_id=Warsowok (ID: 17027560/0x0103D1E8), tag_num=0x04)
  8: 0x085D [0x92] Zurtermor (ID: 17027559/0x0103D1E7)->Render.Flags3 ^= 0x01
  9: 0x0863 [0x92] Warsowok (ID: 17027560/0x0103D1E8)->Render.Flags3 ^= 0x01
 10: 0x0869 [0x94] LocalPlayer->Render.Flags3 ^= 0x01
 11: 0x086F [0x94] Zurtermor (ID: 17027559/0x0103D1E7)->Render.Flags3 ^= 0x01
 12: 0x0875 [0x94] Warsowok (ID: 17027560/0x0103D1E8)->Render.Flags3 ^= 0x01
 13: 0x087B [0x29] REQ_SET_WAIT(priority=0x10, entity_id=LocalPlayer, tag_num=0x18)
 14: 0x0882 [0x29] REQ_SET_WAIT(priority=0x10, entity_id=Zurtermor (ID: 17027559/0x0103D1E7), tag_num=0x0B)
 15: 0x0889 [0x29] REQ_SET_WAIT(priority=0x10, entity_id=Warsowok (ID: 17027560/0x0103D1E8), tag_num=0x0C)
 16: 0x0890 [0x80] LOAD_WAIT(entity=LocalPlayer)
 17: 0x0895 [0x80] LOAD_WAIT(entity=Zurtermor (ID: 17027559/0x0103D1E7))
 18: 0x089A [0x80] LOAD_WAIT(entity=Warsowok (ID: 17027560/0x0103D1E8))
 19: 0x089F [0x1C] WAIT(15* ticks)
 20: 0x08A2 [0x4A] LocalPlayer looks at Warsowok (ID: 17027560/0x0103D1E8)
 21: 0x08AB [0x5C] MUSIC_CONTROL: Set Idle (Day) music to song 123*
 22: 0x08AF [0x5C] MUSIC_CONTROL: Set Idle (Night) music to song 123*
 23: 0x08B3 [0x9A] WAIT_MUSIC_SERVER()
 24: 0x08B4 [0x1C] WAIT(30* ticks)
 25: 0x08B7 [0x45] LOAD_SCHEDULED_TASK: Load scheduler "zm20" with entities [LocalPlayer, LocalPlayer], work=[259*, 0*]
 26: 0x08C8 [0x1C] WAIT(15* ticks)
 27: 0x08CB [0x1A] CALL_SUBROUTINE(address=0x10FD)
 28: 0x08CE [0x4A] Warsowok (ID: 17027560/0x0103D1E8) looks at LocalPlayer
 29: 0x08D7 [0x6F] WAIT_FRAME_DELAY: Yield until WaitTime reaches zero
 30: 0x08D8 [0x76] CHECK_ENTITY_RENDER_FLAGS: Wait until Warsowok (ID: 17027560/0x0103D1E8) Render.Flags0 and Render.Flags3 conditions are met
 31: 0x08DD [0x5B] LOAD_EXT_SCHEDULER: Load scheduler "tlk0" with entities [Warsowok (ID: 17027560/0x0103D1E8), Warsowok (ID: 17027560/0x0103D1E8)], work=215*
 32: 0x08EC [0x2B] Warsowok (ID: 17027560/0x0103D1E8) [7457*]:
    → "You again? Zurt's not up for company right now. Why don't you just leave the poor Troll alone..."
 33: 0x08F3 [0x23] WAIT_FOR_DIALOG_INTERACTION
 34: 0x08F4 [0x6B] STOP_AND_IDLE: Warsowok (ID: 17027560/0x0103D1E8) stops current action and resets to idle (animation="idl0")
 35: 0x08FD [0x52] END_LOAD_SCHEDULER: End scheduler "zm20" with entities [LocalPlayer, LocalPlayer], work=259*
 36: 0x090C [0x45] LOAD_SCHEDULED_TASK: Load scheduler "zm21" with entities [LocalPlayer, LocalPlayer], work=[259*, 0*]
 37: 0x091D [0x2B] Zurtermor (ID: 17027559/0x0103D1E7) [7440*]:
    → "..."
 38: 0x0924 [0x23] WAIT_FOR_DIALOG_INTERACTION
 39: 0x0925 [0x4A] Zurtermor (ID: 17027559/0x0103D1E7) looks at LocalPlayer
 40: 0x092E [0x6F] WAIT_FRAME_DELAY: Yield until WaitTime reaches zero
 41: 0x092F [0x76] CHECK_ENTITY_RENDER_FLAGS: Wait until Zurtermor (ID: 17027559/0x0103D1E7) Render.Flags0 and Render.Flags3 conditions are met
 42: 0x0934 [0x52] END_LOAD_SCHEDULER: End scheduler "zm21" with entities [LocalPlayer, LocalPlayer], work=259*
 43: 0x0943 [0x45] LOAD_SCHEDULED_TASK: Load scheduler "zm22" with entities [LocalPlayer, LocalPlayer], work=[259*, 0*]
 44: 0x0954 [0x1C] WAIT(60* ticks)
 45: 0x0957 [0x79] LocalPlayer looks at Zurtermor (ID: 17027559/0x0103D1E7) (Basic look)
 46: 0x0961 [0x5B] LOAD_EXT_SCHEDULER: Load scheduler "pnt0" with entities [Zurtermor (ID: 17027559/0x0103D1E7), Zurtermor (ID: 17027559/0x0103D1E7)], work=831*
 47: 0x0970 [0x2B] Zurtermor (ID: 17027559/0x0103D1E7) [7458*]:
    → "(Wait. What is that? Let me see.)"
 48: 0x0977 [0x23] WAIT_FOR_DIALOG_INTERACTION
 49: 0x0978 [0x4A] Warsowok (ID: 17027560/0x0103D1E8) looks at Zurtermor (ID: 17027559/0x0103D1E7)
 50: 0x0981 [0x5B] LOAD_EXT_SCHEDULER: Load scheduler "pnt1" with entities [Zurtermor (ID: 17027559/0x0103D1E7), Zurtermor (ID: 17027559/0x0103D1E7)], work=831*
 51: 0x0990 [0x52] END_LOAD_SCHEDULER: End scheduler "zm22" with entities [LocalPlayer, LocalPlayer], work=259*
 52: 0x099F [0x45] LOAD_SCHEDULED_TASK: Load scheduler "zm23" with entities [LocalPlayer, LocalPlayer], work=[259*, 0*]
 53: 0x09B0 [0x2B] Zurtermor (ID: 17027559/0x0103D1E7) [7459*]:
    → "(Hmmm. Still very little, but... It looks strong. Strong enough for a Troll. Maybe strong enough to break Zhayolm rock...)"
 54: 0x09B7 [0x23] WAIT_FOR_DIALOG_INTERACTION
 55: 0x09B8 [0x03] Work_Zone[1] = 1*
 56: 0x09BD [0x43] SEND_EVENT_UPDATE: Send pending tag to server (packet 0x005B)
 57: 0x09BF [0x43] SEND_EVENT_UPDATE: Check pending flag (skip if not pending)
 58: 0x09C1 [0x52] END_LOAD_SCHEDULER: End scheduler "zm23" with entities [LocalPlayer, LocalPlayer], work=259*
 59: 0x09D0 [0x45] LOAD_SCHEDULED_TASK: Load scheduler "zm24" with entities [LocalPlayer, LocalPlayer], work=[259*, 0*]
 60: 0x09E1 [0x5B] LOAD_EXT_SCHEDULER: Load scheduler "tlk1" with entities [Warsowok (ID: 17027560/0x0103D1E8), Warsowok (ID: 17027560/0x0103D1E8)], work=215*
 61: 0x09F0 [0x2B] Warsowok (ID: 17027560/0x0103D1E8) [7460*]:
    → "Really? You think you can use that $0?"
 62: 0x09F7 [0x23] WAIT_FOR_DIALOG_INTERACTION
 63: 0x09F8 [0x79] Zurtermor (ID: 17027559/0x0103D1E7) looks at Warsowok (ID: 17027560/0x0103D1E8) (Basic look)
 64: 0x0A02 [0x1C] WAIT(45* ticks)
 65: 0x0A05 [0x6B] STOP_AND_IDLE: Warsowok (ID: 17027560/0x0103D1E8) stops current action and resets to idle (animation="idl0")
 66: 0x0A0E [0x2B] Zurtermor (ID: 17027559/0x0103D1E7) [7461*]:
    → "(Maybe...)"
 67: 0x0A15 [0x23] WAIT_FOR_DIALOG_INTERACTION
 68: 0x0A16 [0x52] END_LOAD_SCHEDULER: End scheduler "zm24" with entities [LocalPlayer, LocalPlayer], work=259*
 69: 0x0A25 [0x45] LOAD_SCHEDULED_TASK: Load scheduler "zm25" with entities [LocalPlayer, LocalPlayer], work=[259*, 0*]
 70: 0x0A36 [0x79] LocalPlayer looks at Warsowok (ID: 17027560/0x0103D1E8) (Basic look)
 71: 0x0A40 [0x4A] Warsowok (ID: 17027560/0x0103D1E8) looks at LocalPlayer
 72: 0x0A49 [0x6F] WAIT_FRAME_DELAY: Yield until WaitTime reaches zero
 73: 0x0A4A [0x76] CHECK_ENTITY_RENDER_FLAGS: Wait until Warsowok (ID: 17027560/0x0103D1E8) Render.Flags0 and Render.Flags3 conditions are met
 74: 0x0A4F [0x5B] LOAD_EXT_SCHEDULER: Load scheduler "tlk0" with entities [Warsowok (ID: 17027560/0x0103D1E8), Warsowok (ID: 17027560/0x0103D1E8)], work=215*
 75: 0x0A5E [0x2B] Warsowok (ID: 17027560/0x0103D1E8) [7462*]:
    → "Hey, you. You gonna give that thing to my buddy Zurt here?"
 76: 0x0A65 [0x23] WAIT_FOR_DIALOG_INTERACTION
 77: 0x0A66 [0x5D] SET_MUSIC_VOLUME(volume=0*, fade_time=200*)
 78: 0x0A6B [0x6B] STOP_AND_IDLE: Warsowok (ID: 17027560/0x0103D1E8) stops current action and resets to idle (animation="idl0")
 79: 0x0A74 [0x79] Zurtermor (ID: 17027559/0x0103D1E7) looks at LocalPlayer (Basic look)
 80: 0x0A7E [0x1C] WAIT(45* ticks)
 81: 0x0A81 [0x03] Work_Zone[1] = 2*
 82: 0x0A86 [0x43] SEND_EVENT_UPDATE: Send pending tag to server (packet 0x005B)
 83: 0x0A88 [0x43] SEND_EVENT_UPDATE: Check pending flag (skip if not pending)
 84: 0x0A8A [0x24] CREATE_DIALOG(message_id=7463*, default_option=0*, option_flags=0*)
    → "Give Zurtermor the $0? [Anything to cheer him up...sheesh./No! It's mine!]"
 85: 0x0A91 [0x25] WAIT_DIALOG_SELECT()
 86: 0x0A92 [0x02] IF !(Work_Zone[0] == 1*) GOTO 0x0AE7
 87: 0x0A9A [0x6E] LocalPlayer uses emote 6*
 88: 0x0AA1 [0x99] Wait for LocalPlayer animation to complete
 89: 0x0AA6 [0x99] Wait for LocalPlayer animation to complete
 90: 0x0AAB [0x1C] WAIT(30* ticks)
 91: 0x0AAE [0x5B] LOAD_EXT_SCHEDULER: Load scheduler "ang0" with entities [Warsowok (ID: 17027560/0x0103D1E8), Warsowok (ID: 17027560/0x0103D1E8)], work=216*
 92: 0x0ABD [0x2B] Warsowok (ID: 17027560/0x0103D1E8) [7464*]:
    → "What kinda jerk are you? You get Zurt all excited, then you throw his heart into the crevasse with his pick?"
 93: 0x0AC4 [0x23] WAIT_FOR_DIALOG_INTERACTION
 94: 0x0AC5 [0x5B] LOAD_EXT_SCHEDULER: Load scheduler "ang1" with entities [Warsowok (ID: 17027560/0x0103D1E8), Warsowok (ID: 17027560/0x0103D1E8)], work=216*
 95: 0x0AD4 [0x53] WAIT_SCHEDULER_TASK: Wait for scheduler "ang1" with entities [Warsowok (ID: 17027560/0x0103D1E8), Warsowok (ID: 17027560/0x0103D1E8)]
 96: 0x0AE1 [0x01] GOTO 0x0A81

SUBROUTINE_0AE7:
 97: 0x0AE7 [0x6E] LocalPlayer uses emote 7*
 98: 0x0AEE [0x99] Wait for LocalPlayer animation to complete
 99: 0x0AF3 [0x99] Wait for LocalPlayer animation to complete
100: 0x0AF8 [0x1C] WAIT(30* ticks)
101: 0x0AFB [0x5C] MUSIC_CONTROL: Set Idle (Day) music to song 120*
102: 0x0AFF [0x5C] MUSIC_CONTROL: Set Idle (Night) music to song 120*
103: 0x0B03 [0x9A] WAIT_MUSIC_SERVER()
104: 0x0B04 [0x52] END_LOAD_SCHEDULER: End scheduler "zm25" with entities [LocalPlayer, LocalPlayer], work=259*
105: 0x0B13 [0x45] LOAD_SCHEDULED_TASK: Load scheduler "zm26" with entities [LocalPlayer, LocalPlayer], work=[259*, 0*]
106: 0x0B24 [0x79] LocalPlayer looks at Zurtermor (ID: 17027559/0x0103D1E7) (Basic look)
107: 0x0B2E [0x81] SET_ENTITY_BLINKING(blink_flag=0x00, entity=Zurtermor (ID: 17027559/0x0103D1E7))
108: 0x0B34 [0x7C] Zurtermor (ID: 17027559/0x0103D1E7)->Render.Flags2 |= 0x00
109: 0x0B3A [0x5B] LOAD_EXT_SCHEDULER: Load scheduler "tlb0" with entities [Zurtermor (ID: 17027559/0x0103D1E7), Zurtermor (ID: 17027559/0x0103D1E7)], work=823*
110: 0x0B49 [0x2B] Zurtermor (ID: 17027559/0x0103D1E7) [7465*]:
    → "(You are kind, little-person. I am...moved...)"
111: 0x0B50 [0x23] WAIT_FOR_DIALOG_INTERACTION
112: 0x0B51 [0x81] SET_ENTITY_BLINKING(blink_flag=0x01, entity=Zurtermor (ID: 17027559/0x0103D1E7))
113: 0x0B57 [0x7C] Zurtermor (ID: 17027559/0x0103D1E7)->Render.Flags2 |= 0x01
114: 0x0B5D [0x5B] LOAD_EXT_SCHEDULER: Load scheduler "tlk0" with entities [Warsowok (ID: 17027560/0x0103D1E8), Warsowok (ID: 17027560/0x0103D1E8)], work=215*
115: 0x0B6C [0x2B] Warsowok (ID: 17027560/0x0103D1E8) [7466*]:
    → "Yeah, what a nice [guy/lady]."
116: 0x0B73 [0x23] WAIT_FOR_DIALOG_INTERACTION
117: 0x0B74 [0x6B] STOP_AND_IDLE: Warsowok (ID: 17027560/0x0103D1E8) stops current action and resets to idle (animation="idl0")
118: 0x0B7D [0x53] WAIT_SCHEDULER_TASK: Wait for scheduler "tlb0" with entities [Zurtermor (ID: 17027559/0x0103D1E7), Zurtermor (ID: 17027559/0x0103D1E7)]
119: 0x0B8A [0x52] END_LOAD_SCHEDULER: End scheduler "zm26" with entities [LocalPlayer, LocalPlayer], work=259*
120: 0x0B99 [0x45] LOAD_SCHEDULED_TASK: Load scheduler "zm27" with entities [LocalPlayer, LocalPlayer], work=[259*, 0*]
121: 0x0BAA [0x81] SET_ENTITY_BLINKING(blink_flag=0x00, entity=Zurtermor (ID: 17027559/0x0103D1E7))
122: 0x0BB0 [0x7C] Zurtermor (ID: 17027559/0x0103D1E7)->Render.Flags2 |= 0x00
123: 0x0BB6 [0x5B] LOAD_EXT_SCHEDULER: Load scheduler "tlb0" with entities [Zurtermor (ID: 17027559/0x0103D1E7), Zurtermor (ID: 17027559/0x0103D1E7)], work=823*
124: 0x0BC5 [0x2B] Zurtermor (ID: 17027559/0x0103D1E7) [7467*]:
    → "(My friends...all hate little-persons. Hate the Empire. Fight and war with them. But you. You are different.)"
125: 0x0BCC [0x23] WAIT_FOR_DIALOG_INTERACTION
126: 0x0BCD [0x81] SET_ENTITY_BLINKING(blink_flag=0x01, entity=Zurtermor (ID: 17027559/0x0103D1E7))
127: 0x0BD3 [0x7C] Zurtermor (ID: 17027559/0x0103D1E7)->Render.Flags2 |= 0x01
128: 0x0BD9 [0x52] END_LOAD_SCHEDULER: End scheduler "zm27" with entities [LocalPlayer, LocalPlayer], work=259*
129: 0x0BE8 [0x45] LOAD_SCHEDULED_TASK: Load scheduler "zm28" with entities [LocalPlayer, LocalPlayer], work=[259*, 0*]
130: 0x0BF9 [0x5B] LOAD_EXT_SCHEDULER: Load scheduler "tlk1" with entities [Warsowok (ID: 17027560/0x0103D1E8), Warsowok (ID: 17027560/0x0103D1E8)], work=215*
131: 0x0C08 [0x2B] Warsowok (ID: 17027560/0x0103D1E8) [7468*]:
    → "I don't know too many of your type of people, but you seem to be one of the good ones."
132: 0x0C0F [0x23] WAIT_FOR_DIALOG_INTERACTION
133: 0x0C10 [0x52] END_LOAD_SCHEDULER: End scheduler "zm28" with entities [LocalPlayer, LocalPlayer], work=259*
134: 0x0C1F [0x45] LOAD_SCHEDULED_TASK: Load scheduler "zm29" with entities [LocalPlayer, LocalPlayer], work=[259*, 0*]
135: 0x0C30 [0x6B] STOP_AND_IDLE: Warsowok (ID: 17027560/0x0103D1E8) stops current action and resets to idle (animation="idl0")
136: 0x0C39 [0x53] WAIT_SCHEDULER_TASK: Wait for scheduler "tlb0" with entities [Zurtermor (ID: 17027559/0x0103D1E7), Zurtermor (ID: 17027559/0x0103D1E7)]
137: 0x0C46 [0x4A] Warsowok (ID: 17027560/0x0103D1E8) looks at Zurtermor (ID: 17027559/0x0103D1E7)
138: 0x0C4F [0x5B] LOAD_EXT_SCHEDULER: Load scheduler "pas0" with entities [Zurtermor (ID: 17027559/0x0103D1E7), Zurtermor (ID: 17027559/0x0103D1E7)], work=823*
139: 0x0C5E [0x2B] Zurtermor (ID: 17027559/0x0103D1E7) [7469*]:
    → "(Here. A map for the little-person.)"
140: 0x0C65 [0x23] WAIT_FOR_DIALOG_INTERACTION
141: 0x0C66 [0x6F] WAIT_FRAME_DELAY: Yield until WaitTime reaches zero
142: 0x0C67 [0x76] CHECK_ENTITY_RENDER_FLAGS: Wait until Warsowok (ID: 17027560/0x0103D1E8) Render.Flags0 and Render.Flags3 conditions are met
143: 0x0C6C [0x52] END_LOAD_SCHEDULER: End scheduler "zm29" with entities [LocalPlayer, LocalPlayer], work=259*
144: 0x0C7B [0x45] LOAD_SCHEDULED_TASK: Load scheduler "zm30" with entities [LocalPlayer, LocalPlayer], work=[259*, 0*]
145: 0x0C8C [0x5B] LOAD_EXT_SCHEDULER: Load scheduler "bik0" with entities [Warsowok (ID: 17027560/0x0103D1E8), Warsowok (ID: 17027560/0x0103D1E8)], work=216*
146: 0x0C9B [0x03] Work_Zone[2] = 1860*
147: 0x0CA0 [0x2B] Warsowok (ID: 17027560/0x0103D1E8) [7470*]:
    → "You're gonna give the $3 to this [guy/lady]? Wow, you really made Zurt happy..."
148: 0x0CA7 [0x23] WAIT_FOR_DIALOG_INTERACTION
149: 0x0CA8 [0x53] WAIT_SCHEDULER_TASK: Wait for scheduler "pas0" with entities [Zurtermor (ID: 17027559/0x0103D1E7), Zurtermor (ID: 17027559/0x0103D1E7)]
150: 0x0CB5 [0x79] Zurtermor (ID: 17027559/0x0103D1E7) looks at Warsowok (ID: 17027560/0x0103D1E8) (Basic look)
151: 0x0CBF [0x81] SET_ENTITY_BLINKING(blink_flag=0x00, entity=Zurtermor (ID: 17027559/0x0103D1E7))
152: 0x0CC5 [0x7C] Zurtermor (ID: 17027559/0x0103D1E7)->Render.Flags2 |= 0x00
153: 0x0CCB [0x5B] LOAD_EXT_SCHEDULER: Load scheduler "tlk0" with entities [Zurtermor (ID: 17027559/0x0103D1E7), Zurtermor (ID: 17027559/0x0103D1E7)], work=822*
154: 0x0CDA [0x02] IF !(ExtData[1]->WorkLocal[0] == 1*) GOTO 0x0CEA
155: 0x0CE2 [0x2B] Zurtermor (ID: 17027559/0x0103D1E7) [7471*]:
    → "(You have already. Then you not need it. Very dangerous without map.)"
156: 0x0CE9 [0x23] WAIT_FOR_DIALOG_INTERACTION
157: 0x0CEA [0x2B] Zurtermor (ID: 17027559/0x0103D1E7) [7472*]:
    → "(My friends. Hate little-persons. Hate the Empire. Trolls were driven away. No room for big-persons.)"
158: 0x0CF1 [0x23] WAIT_FOR_DIALOG_INTERACTION
159: 0x0CF2 [0x52] END_LOAD_SCHEDULER: End scheduler "zm30" with entities [LocalPlayer, LocalPlayer], work=259*
160: 0x0D01 [0x45] LOAD_SCHEDULED_TASK: Load scheduler "zm32" with entities [LocalPlayer, LocalPlayer], work=[259*, 0*]
161: 0x0D12 [0x5B] LOAD_EXT_SCHEDULER: Load scheduler "bik1" with entities [Warsowok (ID: 17027560/0x0103D1E8), Warsowok (ID: 17027560/0x0103D1E8)], work=216*
162: 0x0D21 [0x79] Zurtermor (ID: 17027559/0x0103D1E7) looks at LocalPlayer (Basic look)
163: 0x0D2B [0x2B] Zurtermor (ID: 17027559/0x0103D1E7) [7473*]:
    → "(Use the map. You won't be lost in Zhayolm. Watch out for my friends. They don't know you are a kind little-person.)"
164: 0x0D32 [0x23] WAIT_FOR_DIALOG_INTERACTION
165: 0x0D33 [0x5B] LOAD_EXT_SCHEDULER: Load scheduler "tlk1" with entities [Zurtermor (ID: 17027559/0x0103D1E7), Zurtermor (ID: 17027559/0x0103D1E7)], work=822*
166: 0x0D42 [0x81] SET_ENTITY_BLINKING(blink_flag=0x01, entity=Zurtermor (ID: 17027559/0x0103D1E7))
167: 0x0D48 [0x7C] Zurtermor (ID: 17027559/0x0103D1E7)->Render.Flags2 |= 0x01
168: 0x0D4E [0x1C] WAIT(45* ticks)
169: 0x0D51 [0x52] END_LOAD_SCHEDULER: End scheduler "zm32" with entities [LocalPlayer, LocalPlayer], work=259*
170: 0x0D60 [0x45] LOAD_SCHEDULED_TASK: Load scheduler "zm31" with entities [LocalPlayer, LocalPlayer], work=[259*, 0*]
171: 0x0D71 [0x5B] LOAD_EXT_SCHEDULER: Load scheduler "fum0" with entities [Warsowok (ID: 17027560/0x0103D1E8), Warsowok (ID: 17027560/0x0103D1E8)], work=216*
172: 0x0D80 [0x2B] Warsowok (ID: 17027560/0x0103D1E8) [7474*]:
    → "Yeah, that map oughta keep you from getting too lost in Zhayolm."
173: 0x0D87 [0x23] WAIT_FOR_DIALOG_INTERACTION
174: 0x0D88 [0x5B] LOAD_EXT_SCHEDULER: Load scheduler "fum1" with entities [Warsowok (ID: 17027560/0x0103D1E8), Warsowok (ID: 17027560/0x0103D1E8)], work=216*
175: 0x0D97 [0x79] LocalPlayer looks at Warsowok (ID: 17027560/0x0103D1E8) (Basic look)
176: 0x0DA1 [0x4A] Warsowok (ID: 17027560/0x0103D1E8) looks at LocalPlayer
177: 0x0DAA [0x6F] WAIT_FRAME_DELAY: Yield until WaitTime reaches zero
178: 0x0DAB [0x76] CHECK_ENTITY_RENDER_FLAGS: Wait until Warsowok (ID: 17027560/0x0103D1E8) Render.Flags0 and Render.Flags3 conditions are met
179: 0x0DB0 [0x5B] LOAD_EXT_SCHEDULER: Load scheduler "tlk0" with entities [Warsowok (ID: 17027560/0x0103D1E8), Warsowok (ID: 17027560/0x0103D1E8)], work=215*
180: 0x0DBF [0x2B] Warsowok (ID: 17027560/0x0103D1E8) [7475*]:
    → "Just watch out for those friends of Zurt's. They'll smash you just as soon as look at you."
181: 0x0DC6 [0x23] WAIT_FOR_DIALOG_INTERACTION
182: 0x0DC7 [0x6B] STOP_AND_IDLE: Warsowok (ID: 17027560/0x0103D1E8) stops current action and resets to idle (animation="idl0")
183: 0x0DD0 [0x03] Work_Zone[1] = 2*
184: 0x0DD5 [0x43] SEND_EVENT_UPDATE: Send pending tag to server (packet 0x005B)
185: 0x0DD7 [0x43] SEND_EVENT_UPDATE: Check pending flag (skip if not pending)
186: 0x0DD9 [0x03] Work_Zone[3] = 793*
187: 0x0DDE [0x52] END_LOAD_SCHEDULER: End scheduler "zm31" with entities [LocalPlayer, LocalPlayer], work=259*
188: 0x0DED [0x45] LOAD_SCHEDULED_TASK: Load scheduler "zm33" with entities [LocalPlayer, LocalPlayer], work=[259*, 0*]
189: 0x0DFE [0x79] LocalPlayer looks at Zurtermor (ID: 17027559/0x0103D1E7) (Basic look)
190: 0x0E08 [0x4A] Warsowok (ID: 17027560/0x0103D1E8) looks at Zurtermor (ID: 17027559/0x0103D1E7)
191: 0x0E11 [0x5B] LOAD_EXT_SCHEDULER: Load scheduler "esc0" with entities [Zurtermor (ID: 17027559/0x0103D1E7), Zurtermor (ID: 17027559/0x0103D1E7)], work=823*
192: 0x0E20 [0x2B] Zurtermor (ID: 17027559/0x0103D1E7) [7476*]:
    → "(I can dig again. Use this $0. I will find $3...)"
193: 0x0E27 [0x23] WAIT_FOR_DIALOG_INTERACTION
194: 0x0E28 [0x53] WAIT_SCHEDULER_TASK: Wait for scheduler "esc0" with entities [Zurtermor (ID: 17027559/0x0103D1E7), Zurtermor (ID: 17027559/0x0103D1E7)]
195: 0x0E35 [0x52] END_LOAD_SCHEDULER: End scheduler "zm33" with entities [LocalPlayer, LocalPlayer], work=259*
196: 0x0E44 [0x45] LOAD_SCHEDULED_TASK: Load scheduler "zm34" with entities [LocalPlayer, LocalPlayer], work=[259*, 0*]
197: 0x0E55 [0x5D] SET_MUSIC_VOLUME(volume=0*, fade_time=300*)
198: 0x0E5A [0x27] REQ_SET(priority=0x10, entity_id=Zurtermor (ID: 17027559/0x0103D1E7), tag_num=0x0C)
199: 0x0E61 [0x1C] WAIT(45* ticks)
200: 0x0E64 [0x2B] Warsowok (ID: 17027560/0x0103D1E8) [7477*]:
    → "Hey! Take it easy! Don't go dropping stuff down that crevasse again!"
201: 0x0E6B [0x1C] WAIT(15* ticks)
202: 0x0E6E [0x4A] Warsowok (ID: 17027560/0x0103D1E8) looks at Zurtermor (ID: 17027559/0x0103D1E7)
203: 0x0E77 [0x1C] WAIT(45* ticks)
204: 0x0E7A [0x27] REQ_SET(priority=0x10, entity_id=Warsowok (ID: 17027560/0x0103D1E8), tag_num=0x0D)
205: 0x0E81 [0x4A] LocalPlayer looks at Zurtermor (ID: 17027559/0x0103D1E7)
206: 0x0E8A [0x1C] WAIT(120* ticks)
207: 0x0E8D [0x1A] CALL_SUBROUTINE(address=0x111E)
208: 0x0E90 [0x1C] WAIT(30* ticks)
209: 0x0E93 [0x52] END_LOAD_SCHEDULER: End scheduler "zm34" with entities [LocalPlayer, LocalPlayer], work=259*
210: 0x0EA2 [0x5C] MUSIC_CONTROL: Set Idle (Day) music to song 0*
211: 0x0EA6 [0x5C] MUSIC_CONTROL: Set Idle (Night) music to song 0*
212: 0x0EAA [0x9A] WAIT_MUSIC_SERVER()
213: 0x0EAB [0x46] CAMERA_CONTROL: Restore default settings
214: 0x0EAD [0x45] LOAD_SCHEDULED_TASK: Load scheduler "qstc" with entities [EventEntity, EventEntity], work=[201*, 0*]
215: 0x0EBE [0x45] LOAD_SCHEDULED_TASK: Load scheduler "fdi2" with entities [LocalPlayer, LocalPlayer], work=[200*, 0*]
216: 0x0ECF [0x21] END_EVENT
217: 0x0ED0 [0x00] END_REQSTACK()
```

#### Data or dead code:

```
# Dead code (unreachable instructions):
     0x0AE4 [0x01] GOTO 0x0AE7
```

### Event 10

#### Metadata

| Field        | Value      |
|--------------|------------|
| Entrypoint   | 0x0ED1     |
| Data Size    | 1147 bytes |
| Instructions | 75         |

```
      00 01 02 03 04 05 06 07  08 09 0A 0B 0C 0D 0E 0F
      -- -- -- -- -- -- -- --  -- -- -- -- -- -- -- --
0ED0:    42 1A 1E 11 46 01 38  00 80 79 00 F0 FF FF 7F   B...F.8..y.....
0EE0: F0 FF FF 7F 92 01 E9 D1  03 01 94 01 F0 FF FF 7F  ................
0EF0: 94 01 E9 D1 03 01 29 10  F0 FF FF 7F 15 80 F0 FF  ......).........
0F00: FF 7F 80 E9 D1 03 01 1C  01 80 4A E9 D1 03 01 F0  ..........J.....
0F10: FF FF 7F 4A F0 FF FF 7F  E9 D1 03 01 1C 02 80 45  ...J...........E
0F20: 56 80 F0 FF FF 7F F0 FF  FF 7F 61 64 30 30 04 80  V.........ad00..
0F30: 1C 01 80 1A FD 10 6E E9  D1 03 01 43 80 99 E9 D1  ......n....C....
0F40: 03 01 99 E9 D1 03 01 2B  E9 D1 03 01 57 80 23 52  .......+....W.#R
0F50: 56 80 F0 FF FF 7F F0 FF  FF 7F 61 64 30 30 45 56  V.........ad00EV
0F60: 80 F0 FF FF 7F F0 FF FF  7F 61 64 30 31 04 80 66  .........ad01..f
0F70: 06 80 E9 D1 03 01 E9 D1  03 01 74 77 62 30 1C 02  ..........twb0..
0F80: 80 2B E9 D1 03 01 58 80  23 2B E9 D1 03 01 59 80  .+....X.#+....Y.
0F90: 23 66 06 80 E9 D1 03 01  E9 D1 03 01 74 77 62 31  #f..........twb1
0FA0: 2B E9 D1 03 01 5A 80 23  53 E9 D1 03 01 E9 D1 03  +....Z.#S.......
0FB0: 01 74 77 62 31 52 56 80  F0 FF FF 7F F0 FF FF 7F  .twb1RV.........
0FC0: 61 64 30 31 45 56 80 F0  FF FF 7F F0 FF FF 7F 61  ad01EV.........a
0FD0: 64 30 32 04 80 2B E9 D1  03 01 5B 80 23 73 5C 80  d02..+....[.#s\.
0FE0: E9 D1 03 01 F0 FF FF 7F  1C 02 80 52 56 80 F0 FF  ...........RV...
0FF0: FF 7F F0 FF FF 7F 61 64  30 32 45 56 80 F0 FF FF  ......ad02EV....
1000: 7F F0 FF FF 7F 61 64 30  33 04 80 1C 5D 80 29 10  .....ad03...].).
1010: F0 FF FF 7F 19 55 56 80  F0 FF FF 7F F0 FF FF 7F  .....UV.........
1020: 61 64 30 33 45 56 80 F0  FF FF 7F F0 FF FF 7F 61  ad03EV.........a
1030: 64 30 35 04 80 1C 2D 80  6E E9 D1 03 01 14 80 99  d05...-.n.......
1040: E9 D1 03 01 99 E9 D1 03  01 2B E9 D1 03 01 5E 80  .........+....^.
1050: 23 27 10 E9 D1 03 01 08  1C 01 80 52 56 80 F0 FF  #'.........RV...
1060: FF 7F F0 FF FF 7F 61 64  30 35 45 56 80 F0 FF FF  ......ad05EV....
1070: 7F F0 FF FF 7F 61 64 30  36 04 80 2B E9 D1 03 01  .....ad06..+....
1080: 5F 80 23 2A 10 E9 D1 03  01 2B E9 D1 03 01 60 80  _.#*.....+....`.
1090: 23 1A 1E 11 1C 02 80 52  56 80 F0 FF FF 7F F0 FF  #......RV.......
10A0: FF 7F 61 64 30 36 46 00  45 1E 80 F0 FF FF 7F F0  ..ad06F.E.......
10B0: FF FF 7F 66 64 69 32 04  80 21 00 45 1E 80 F0 FF  ...fdi2..!.E....
10C0: FF 7F F0 FF FF 7F 66 64  69 30 04 80 55 1E 80 F0  ......fdi0..U...
10D0: FF FF 7F F0 FF FF 7F 66  64 69 30 1B 45 1E 80 F0  .......fdi0.E...
10E0: FF FF 7F F0 FF FF 7F 66  64 6F 30 04 80 55 1E 80  .......fdo0..U..
10F0: F0 FF FF 7F F0 FF FF 7F  66 64 6F 30 1B 45 1E 80  ........fdo0.E..
1100: F0 FF FF 7F F0 FF FF 7F  66 64 69 31 04 80 55 1E  ........fdi1..U.
1110: 80 F0 FF FF 7F F0 FF FF  7F 66 64 69 31 1B 45 1E  .........fdi1.E.
1120: 80 F0 FF FF 7F F0 FF FF  7F 66 64 6F 31 04 80 55  .........fdo1..U
1130: 1E 80 F0 FF FF 7F F0 FF  FF 7F 66 64 6F 31 1B 45  ..........fdo1.E
1140: 55 80 F0 FF FF 7F F0 FF  FF 7F 77 68 69 31 04 80  U.........whi1..
1150: 55 55 80 F0 FF FF 7F F0  FF FF 7F 77 68 69 31 1B  UU.........whi1.
1160: 45 55 80 F0 FF FF 7F F0  FF FF 7F 77 68 6F 31 04  EU.........who1.
1170: 80 55 55 80 F0 FF FF 7F  F0 FF FF 7F 77 68 6F 31  .UU.........who1
1180: 1B 45 55 80 F0 FF FF 7F  F0 FF FF 7F 77 68 6F 32  .EU.........who2
1190: 04 80 55 55 80 F0 FF FF  7F F0 FF FF 7F 77 68 6F  ..UU.........who
11A0: 32 1B 45 55 80 F0 FF FF  7F F0 FF FF 7F 77 68 6F  2.EU.........who
11B0: 33 04 80 55 55 80 F0 FF  FF 7F F0 FF FF 7F 77 68  3..UU.........wh
11C0: 6F 33 1B 62 0A 80 F0 FF  FF 7F F0 FF FF 7F 6D 61  o3.b..........ma
11D0: 69 6E 04 80 1C 0D 80 45  1E 80 F0 FF FF 7F F0 FF  in.....E........
11E0: FF 7F 66 64 6F 31 04 80  55 1E 80 F0 FF FF 7F F0  ..fdo1..U.......
11F0: FF FF 7F 66 64 6F 31 1B  45 1E 80 F0 FF FF 7F F0  ...fdo1.E.......
1200: FF FF 7F 66 64 69 31 04  80 62 41 80 F0 FF FF 7F  ...fdi1..bA.....
1210: F0 FF FF 7F 6D 61 69 6E  04 80 1C 02 80 55 1E 80  ....main.....U..
1220: F0 FF FF 7F F0 FF FF 7F  66 64 69 31 1B 45 1E 80  ........fdi1.E..
1230: F0 FF FF 7F F0 FF FF 7F  62 6C 6F 6E 04 80 45 55  ........blon..EU
1240: 80 F0 FF FF 7F F0 FF FF  7F 62 6C 6F 6E 04 80 1B  .........blon...
1250: 45 55 80 F0 FF FF 7F F0  FF FF 7F 77 68 69 30 04  EU.........whi0.
1260: 80 55 55 80 F0 FF FF 7F  F0 FF FF 7F 77 68 69 30  .UU.........whi0
1270: 1B 45 55 80 F0 FF FF 7F  F0 FF FF 7F 77 68 6F 30  .EU.........who0
1280: 04 80 55 55 80 F0 FF FF  7F F0 FF FF 7F 77 68 6F  ..UU.........who
1290: 30 1B 45 39 80 F0 FF FF  7F F0 FF FF 7F 65 66 6F  0.E9.........efo
12A0: 6E 04 80 55 39 80 F0 FF  FF 7F F0 FF FF 7F 65 66  n..U9.........ef
12B0: 6F 6E 1B 45 1E 80 F0 FF  FF 7F F0 FF FF 7F 66 64  on.E..........fd
12C0: 69 73 04 80 1B 45 1E 80  F0 FF FF 7F F0 FF FF 7F  is...E..........
12D0: 66 64 6F 73 04 80 55 1E  80 F0 FF FF 7F F0 FF FF  fdos..U.........
12E0: 7F 66 64 6F 73 1B 45 1E  80 F0 FF FF 7F F0 FF FF  .fdos.E.........
12F0: 7F 66 64 69 66 04 80 1B  45 1E 80 F0 FF FF 7F F0  .fdif...E.......
1300: FF FF 7F 66 64 6F 66 04  80 55 1E 80 F0 FF FF 7F  ...fdof..U......
1310: F0 FF FF 7F 66 64 6F 66  1B 45 1E 80 F0 FF FF 7F  ....fdof.E......
1320: F0 FF FF 7F 66 64 69 70  04 80 1B 45 1E 80 F0 FF  ....fdip...E....
1330: FF 7F F0 FF FF 7F 66 64  6F 70 04 80 55 1E 80 F0  ......fdop..U...
1340: FF FF 7F F0 FF FF 7F 66  64 6F 70 1B              .......fdop.    
```

#### Opcodes

```
  0: 0x0ED1 [0x42] SET_CLI_EVENT_CANCEL_DATA()
  1: 0x0ED2 [0x1A] CALL_SUBROUTINE(address=0x111E)
  2: 0x0ED5 [0x46] CAMERA_CONTROL: Disable user control
  3: 0x0ED7 [0x38] SET_CLIENT_EVENT_MODE(mode=19*)
  4: 0x0EDA [0x79] LocalPlayer looks at LocalPlayer (Basic look)
  5: 0x0EE4 [0x92] Waudeen (ID: 17027561/0x0103D1E9)->Render.Flags3 ^= 0x01
  6: 0x0EEA [0x94] LocalPlayer->Render.Flags3 ^= 0x01
  7: 0x0EF0 [0x94] Waudeen (ID: 17027561/0x0103D1E9)->Render.Flags3 ^= 0x01
  8: 0x0EF6 [0x29] REQ_SET_WAIT(priority=0x10, entity_id=LocalPlayer, tag_num=0x15)
  9: 0x0EFD [0x80] LOAD_WAIT(entity=LocalPlayer)
 10: 0x0F02 [0x80] LOAD_WAIT(entity=Waudeen (ID: 17027561/0x0103D1E9))
 11: 0x0F07 [0x1C] WAIT(15* ticks)
 12: 0x0F0A [0x4A] Waudeen (ID: 17027561/0x0103D1E9) looks at LocalPlayer
 13: 0x0F13 [0x4A] LocalPlayer looks at Waudeen (ID: 17027561/0x0103D1E9)
 14: 0x0F1C [0x1C] WAIT(30* ticks)
 15: 0x0F1F [0x45] LOAD_SCHEDULED_TASK: Load scheduler "ad00" with entities [LocalPlayer, LocalPlayer], work=[273*, 0*]
 16: 0x0F30 [0x1C] WAIT(15* ticks)
 17: 0x0F33 [0x1A] CALL_SUBROUTINE(address=0x10FD)
 18: 0x0F36 [0x6E] Waudeen (ID: 17027561/0x0103D1E9) uses emote 6*
 19: 0x0F3D [0x99] Wait for Waudeen (ID: 17027561/0x0103D1E9) animation to complete
 20: 0x0F42 [0x99] Wait for Waudeen (ID: 17027561/0x0103D1E9) animation to complete
 21: 0x0F47 [0x2B] Waudeen (ID: 17027561/0x0103D1E9) [7548*]:
    → "What have we here? You have chosen the life of a blue mage, it would seem."
 22: 0x0F4E [0x23] WAIT_FOR_DIALOG_INTERACTION
 23: 0x0F4F [0x52] END_LOAD_SCHEDULER: End scheduler "ad00" with entities [LocalPlayer, LocalPlayer], work=273*
 24: 0x0F5E [0x45] LOAD_SCHEDULED_TASK: Load scheduler "ad01" with entities [LocalPlayer, LocalPlayer], work=[273*, 0*]
 25: 0x0F6F [0x66] LOAD_EXT_SCHEDULER_MAIN: Load scheduler "twb0" with entities [Waudeen (ID: 17027561/0x0103D1E9), Waudeen (ID: 17027561/0x0103D1E9)], work=29*
 26: 0x0F7E [0x1C] WAIT(30* ticks)
 27: 0x0F81 [0x2B] Waudeen (ID: 17027561/0x0103D1E9) [7549*]:
    → "I seem to recall advising you to not let your life go to waste, but..."
 28: 0x0F88 [0x23] WAIT_FOR_DIALOG_INTERACTION
 29: 0x0F89 [0x2B] Waudeen (ID: 17027561/0x0103D1E9) [7550*]:
    → "Even with my nose for such things, I did not sense such ambition."
 30: 0x0F90 [0x23] WAIT_FOR_DIALOG_INTERACTION
 31: 0x0F91 [0x66] LOAD_EXT_SCHEDULER_MAIN: Load scheduler "twb1" with entities [Waudeen (ID: 17027561/0x0103D1E9), Waudeen (ID: 17027561/0x0103D1E9)], work=29*
 32: 0x0FA0 [0x2B] Waudeen (ID: 17027561/0x0103D1E9) [7551*]:
    → "If you are intent on this path, then there is only one thing left for me to do."
 33: 0x0FA7 [0x23] WAIT_FOR_DIALOG_INTERACTION
 34: 0x0FA8 [0x53] WAIT_SCHEDULER_TASK: Wait for scheduler "twb1" with entities [Waudeen (ID: 17027561/0x0103D1E9), Waudeen (ID: 17027561/0x0103D1E9)]
 35: 0x0FB5 [0x52] END_LOAD_SCHEDULER: End scheduler "ad01" with entities [LocalPlayer, LocalPlayer], work=273*
 36: 0x0FC4 [0x45] LOAD_SCHEDULED_TASK: Load scheduler "ad02" with entities [LocalPlayer, LocalPlayer], work=[273*, 0*]
 37: 0x0FD5 [0x2B] Waudeen (ID: 17027561/0x0103D1E9) [7552*]:
    → "Are you ready to accept your destiny? Brace yourself."
 38: 0x0FDC [0x23] WAIT_FOR_DIALOG_INTERACTION
 39: 0x0FDD [0x73] Waudeen (ID: 17027561/0x0103D1E9) casts magic 729* on LocalPlayer
 40: 0x0FE8 [0x1C] WAIT(30* ticks)
 41: 0x0FEB [0x52] END_LOAD_SCHEDULER: End scheduler "ad02" with entities [LocalPlayer, LocalPlayer], work=273*
 42: 0x0FFA [0x45] LOAD_SCHEDULED_TASK: Load scheduler "ad03" with entities [LocalPlayer, LocalPlayer], work=[273*, 0*]
 43: 0x100B [0x1C] WAIT(210* ticks)
 44: 0x100E [0x29] REQ_SET_WAIT(priority=0x10, entity_id=LocalPlayer, tag_num=0x19)
 45: 0x1015 [0x55] WAIT_LOAD_SCHEDULER: Wait for scheduler "ad03" with entities [LocalPlayer, LocalPlayer], work=273*
 46: 0x1024 [0x45] LOAD_SCHEDULED_TASK: Load scheduler "ad05" with entities [LocalPlayer, LocalPlayer], work=[273*, 0*]
 47: 0x1035 [0x1C] WAIT(60* ticks)
 48: 0x1038 [0x6E] Waudeen (ID: 17027561/0x0103D1E9) uses emote 7*
 49: 0x103F [0x99] Wait for Waudeen (ID: 17027561/0x0103D1E9) animation to complete
 50: 0x1044 [0x99] Wait for Waudeen (ID: 17027561/0x0103D1E9) animation to complete
 51: 0x1049 [0x2B] Waudeen (ID: 17027561/0x0103D1E9) [7553*]:
    → "Well done. This is an occasion for both joy and remorse. It is always accompanied by complicated emotions..."
 52: 0x1050 [0x23] WAIT_FOR_DIALOG_INTERACTION
 53: 0x1051 [0x27] REQ_SET(priority=0x10, entity_id=Waudeen (ID: 17027561/0x0103D1E9), tag_num=0x08)
 54: 0x1058 [0x1C] WAIT(15* ticks)
 55: 0x105B [0x52] END_LOAD_SCHEDULER: End scheduler "ad05" with entities [LocalPlayer, LocalPlayer], work=273*
 56: 0x106A [0x45] LOAD_SCHEDULED_TASK: Load scheduler "ad06" with entities [LocalPlayer, LocalPlayer], work=[273*, 0*]
 57: 0x107B [0x2B] Waudeen (ID: 17027561/0x0103D1E9) [7554*]:
    → "The way is neither smooth nor easy, and you cannot turn from the road you have chosen. Stay vigilant against the beast within."
 58: 0x1082 [0x23] WAIT_FOR_DIALOG_INTERACTION
 59: 0x1083 [0x2A] GET_REQ_LEVEL(level=16, entity_id=Waudeen (ID: 17027561/0x0103D1E9))
 60: 0x1089 [0x2B] Waudeen (ID: 17027561/0x0103D1E9) [7555*]:
    → "That is all the wisdom I can give you. Be well, <Player>."
 61: 0x1090 [0x23] WAIT_FOR_DIALOG_INTERACTION
 62: 0x1091 [0x1A] CALL_SUBROUTINE(address=0x111E)
 63: 0x1094 [0x1C] WAIT(30* ticks)
 64: 0x1097 [0x52] END_LOAD_SCHEDULER: End scheduler "ad06" with entities [LocalPlayer, LocalPlayer], work=273*
 65: 0x10A6 [0x46] CAMERA_CONTROL: Restore default settings
 66: 0x10A8 [0x45] LOAD_SCHEDULED_TASK: Load scheduler "fdi2" with entities [LocalPlayer, LocalPlayer], work=[200*, 0*]
 67: 0x10B9 [0x21] END_EVENT
 68: 0x10BA [0x00] END_REQSTACK()

SUBROUTINE_10FD:
 69: 0x10FD [0x45] LOAD_SCHEDULED_TASK: Load scheduler "fdi1" with entities [LocalPlayer, LocalPlayer], work=[200*, 0*]
 70: 0x110E [0x55] WAIT_LOAD_SCHEDULER: Wait for scheduler "fdi1" with entities [LocalPlayer, LocalPlayer], work=200*
 71: 0x111D [0x1B] RETURN

SUBROUTINE_111E:
 72: 0x111E [0x45] LOAD_SCHEDULED_TASK: Load scheduler "fdo1" with entities [LocalPlayer, LocalPlayer], work=[200*, 0*]
 73: 0x112F [0x55] WAIT_LOAD_SCHEDULER: Wait for scheduler "fdo1" with entities [LocalPlayer, LocalPlayer], work=200*
 74: 0x113E [0x1B] RETURN
```

#### Data or dead code:

```
# Dead code (unreachable instructions):
     0x10BB [0x45] LOAD_SCHEDULED_TASK: Load scheduler "fdi0" with entities [LocalPlayer, LocalPlayer], work=[200*, 0*]
     0x10CC [0x55] WAIT_LOAD_SCHEDULER: Wait for scheduler "fdi0" with entities [LocalPlayer, LocalPlayer], work=200*
     0x10DB [0x1B] RETURN
     0x10DC [0x45] LOAD_SCHEDULED_TASK: Load scheduler "fdo0" with entities [LocalPlayer, LocalPlayer], work=[200*, 0*]
     0x10ED [0x55] WAIT_LOAD_SCHEDULER: Wait for scheduler "fdo0" with entities [LocalPlayer, LocalPlayer], work=200*
     0x10FC [0x1B] RETURN
# Dead code (unreachable instructions):
     0x113F [0x45] LOAD_SCHEDULED_TASK: Load scheduler "whi1" with entities [LocalPlayer, LocalPlayer], work=[201*, 0*]
     0x1150 [0x55] WAIT_LOAD_SCHEDULER: Wait for scheduler "whi1" with entities [LocalPlayer, LocalPlayer], work=201*
     0x115F [0x1B] RETURN
     0x1160 [0x45] LOAD_SCHEDULED_TASK: Load scheduler "who1" with entities [LocalPlayer, LocalPlayer], work=[201*, 0*]
     0x1171 [0x55] WAIT_LOAD_SCHEDULER: Wait for scheduler "who1" with entities [LocalPlayer, LocalPlayer], work=201*
     0x1180 [0x1B] RETURN
     0x1181 [0x45] LOAD_SCHEDULED_TASK: Load scheduler "who2" with entities [LocalPlayer, LocalPlayer], work=[201*, 0*]
     0x1192 [0x55] WAIT_LOAD_SCHEDULER: Wait for scheduler "who2" with entities [LocalPlayer, LocalPlayer], work=201*
     0x11A1 [0x1B] RETURN
     0x11A2 [0x45] LOAD_SCHEDULED_TASK: Load scheduler "who3" with entities [LocalPlayer, LocalPlayer], work=[201*, 0*]
     0x11B3 [0x55] WAIT_LOAD_SCHEDULER: Wait for scheduler "who3" with entities [LocalPlayer, LocalPlayer], work=201*
     0x11C2 [0x1B] RETURN
     0x11C3 [0x62] LOAD_EVENT_SCHEDULER: Load scheduler "main" with entities [LocalPlayer, LocalPlayer], work=[1*, 0*]
     0x11D4 [0x1C] WAIT(45* ticks)
     0x11D7 [0x45] LOAD_SCHEDULED_TASK: Load scheduler "fdo1" with entities [LocalPlayer, LocalPlayer], work=[200*, 0*]
     0x11E8 [0x55] WAIT_LOAD_SCHEDULER: Wait for scheduler "fdo1" with entities [LocalPlayer, LocalPlayer], work=200*
     0x11F7 [0x1B] RETURN
     0x11F8 [0x45] LOAD_SCHEDULED_TASK: Load scheduler "fdi1" with entities [LocalPlayer, LocalPlayer], work=[200*, 0*]
     0x1209 [0x62] LOAD_EVENT_SCHEDULER: Load scheduler "main" with entities [LocalPlayer, LocalPlayer], work=[2*, 0*]
     0x121A [0x1C] WAIT(30* ticks)
     0x121D [0x55] WAIT_LOAD_SCHEDULER: Wait for scheduler "fdi1" with entities [LocalPlayer, LocalPlayer], work=200*
     0x122C [0x1B] RETURN
     0x122D [0x45] LOAD_SCHEDULED_TASK: Load scheduler "blon" with entities [LocalPlayer, LocalPlayer], work=[200*, 0*]
     0x123E [0x45] LOAD_SCHEDULED_TASK: Load scheduler "blon" with entities [LocalPlayer, LocalPlayer], work=[201*, 0*]
     0x124F [0x1B] RETURN
     0x1250 [0x45] LOAD_SCHEDULED_TASK: Load scheduler "whi0" with entities [LocalPlayer, LocalPlayer], work=[201*, 0*]
     0x1261 [0x55] WAIT_LOAD_SCHEDULER: Wait for scheduler "whi0" with entities [LocalPlayer, LocalPlayer], work=201*
     0x1270 [0x1B] RETURN
     0x1271 [0x45] LOAD_SCHEDULED_TASK: Load scheduler "who0" with entities [LocalPlayer, LocalPlayer], work=[201*, 0*]
     0x1282 [0x55] WAIT_LOAD_SCHEDULER: Wait for scheduler "who0" with entities [LocalPlayer, LocalPlayer], work=201*
     0x1291 [0x1B] RETURN
     0x1292 [0x45] LOAD_SCHEDULED_TASK: Load scheduler "efon" with entities [LocalPlayer, LocalPlayer], work=[215*, 0*]
     0x12A3 [0x55] WAIT_LOAD_SCHEDULER: Wait for scheduler "efon" with entities [LocalPlayer, LocalPlayer], work=215*
     0x12B2 [0x1B] RETURN
     0x12B3 [0x45] LOAD_SCHEDULED_TASK: Load scheduler "fdis" with entities [LocalPlayer, LocalPlayer], work=[200*, 0*]
     0x12C4 [0x1B] RETURN
     0x12C5 [0x45] LOAD_SCHEDULED_TASK: Load scheduler "fdos" with entities [LocalPlayer, LocalPlayer], work=[200*, 0*]
     0x12D6 [0x55] WAIT_LOAD_SCHEDULER: Wait for scheduler "fdos" with entities [LocalPlayer, LocalPlayer], work=200*
     0x12E5 [0x1B] RETURN
     0x12E6 [0x45] LOAD_SCHEDULED_TASK: Load scheduler "fdif" with entities [LocalPlayer, LocalPlayer], work=[200*, 0*]
     0x12F7 [0x1B] RETURN
     0x12F8 [0x45] LOAD_SCHEDULED_TASK: Load scheduler "fdof" with entities [LocalPlayer, LocalPlayer], work=[200*, 0*]
     0x1309 [0x55] WAIT_LOAD_SCHEDULER: Wait for scheduler "fdof" with entities [LocalPlayer, LocalPlayer], work=200*
     0x1318 [0x1B] RETURN
     0x1319 [0x45] LOAD_SCHEDULED_TASK: Load scheduler "fdip" with entities [LocalPlayer, LocalPlayer], work=[200*, 0*]
     0x132A [0x1B] RETURN
     0x132B [0x45] LOAD_SCHEDULED_TASK: Load scheduler "fdop" with entities [LocalPlayer, LocalPlayer], work=[200*, 0*]
     0x133C [0x55] WAIT_LOAD_SCHEDULER: Wait for scheduler "fdop" with entities [LocalPlayer, LocalPlayer], work=200*
     0x134B [0x1B] RETURN
```
