# 17027573

## Common Data

| Field            | Value                  |
|------------------|------------------------|
| Zone             | Mount Zhayolm (ID: 61) |
| Block Size       | 320 bytes              |
| Total Events     | 4                      |
| References Count | 23                     |

## List of Events

| Event ID                 | Entrypoint   |   Size |   Instructions |
|--------------------------|--------------|--------|----------------|
| [65535](#event-65535)    | 0x0000       |      1 |              1 |
| [17](#event-17)          | 0x0001       |      1 |              1 |
| [18](#event-18)          | 0x0002       |      1 |              1 |
| [65535.1](#event-655351) | 0x0003       |    190 |             21 |

## DAT References (imed_data)

|   Index | Hex Value   |   Dec Value |
|---------|-------------|-------------|
|       0 | 0xCDEAA     |      843434 |
|       1 | 0x4078B     |      264075 |
|       2 | 0xFFFFCC66  |  4294954086 |
|       3 | 0x08A3      |        2211 |
|       4 | 0xD0485     |      853125 |
|       5 | 0x40BE6     |      265190 |
|       6 | 0xFFFFCA50  |  4294953552 |
|       7 | 0x075C      |        1884 |
|       8 | 0x0492      |        1170 |
|       9 | 0x0934      |        2356 |
|      10 | 0x006C      |         108 |
|      11 | 0x0000      |           0 |
|      12 | 0xC5D00     |      810240 |
|      13 | 0x43929     |      276777 |
|      14 | 0xFFFFAF18  |  4294946584 |
|      15 | 0x0C30      |        3120 |
|      16 | 0xC4DB2     |      806322 |
|      17 | 0x41505     |      267525 |
|      18 | 0xFFFFB2E0  |  4294947552 |
|      19 | 0xD2955     |      862549 |
|      20 | 0x3F36A     |      258922 |
|      21 | 0xFFFFD70F  |  4294956815 |
|      22 | 0x0DCF      |        3535 |

## Events

### Event 65535

#### Metadata

| Field        | Value   |
|--------------|---------|
| Entrypoint   | 0x0000  |
| Data Size    | 1 bytes |
| Instructions | 1       |

```
      00 01 02 03 04 05 06 07  08 09 0A 0B 0C 0D 0E 0F
      -- -- -- -- -- -- -- --  -- -- -- -- -- -- -- --
0000: 00                                                .               
```

#### Opcodes

```
  0: 0x0000 [0x00] END_REQSTACK()
```

### Event 17

#### Metadata

| Field        | Value   |
|--------------|---------|
| Entrypoint   | 0x0001  |
| Data Size    | 1 bytes |
| Instructions | 1       |

```
      00 01 02 03 04 05 06 07  08 09 0A 0B 0C 0D 0E 0F
      -- -- -- -- -- -- -- --  -- -- -- -- -- -- -- --
0000:    00                                              .              
```

#### Opcodes

```
  0: 0x0001 [0x00] END_REQSTACK()
```

### Event 18

#### Metadata

| Field        | Value   |
|--------------|---------|
| Entrypoint   | 0x0002  |
| Data Size    | 1 bytes |
| Instructions | 1       |

```
      00 01 02 03 04 05 06 07  08 09 0A 0B 0C 0D 0E 0F
      -- -- -- -- -- -- -- --  -- -- -- -- -- -- -- --
0000:       00                                            .             
```

#### Opcodes

```
  0: 0x0002 [0x00] END_REQSTACK()
```

### Event 65535.1

#### Metadata

| Field        | Value     |
|--------------|-----------|
| Entrypoint   | 0x0003    |
| Data Size    | 190 bytes |
| Instructions | 21        |

```
      00 01 02 03 04 05 06 07  08 09 0A 0B 0C 0D 0E 0F
      -- -- -- -- -- -- -- --  -- -- -- -- -- -- -- --
0000:          6B 69 64 6C 30  FD D1 03 01 59 05 F7 D1     kidl0....Y...
0010: 03 01 00 59 05 F8 D1 03  01 00 BA F7 D1 03 01 00  ...Y............
0020: 80 01 80 02 80 03 80 BA  F8 D1 03 01 04 80 05 80  ................
0030: 06 80 07 80 5B 08 80 F7  D1 03 01 F7 D1 03 01 67  ....[..........g
0040: 64 30 30 5B 09 80 F8 D1  03 01 F8 D1 03 01 79 77  d00[..........yw
0050: 62 30 BB 0A 80 F7 D1 03  01 F7 D1 03 01 73 30 30  b0...........s00
0060: 31 0B 80 81 01 F8 D1 03  01 7C 01 F8 D1 03 01 BA  1........|......
0070: F4 D1 03 01 0C 80 0D 80  0E 80 0F 80 BA F3 D1 03  ................
0080: 01 10 80 11 80 12 80 0F  80 BA F5 D1 03 01 13 80  ................
0090: 14 80 15 80 16 80 4E 00  F3 D1 03 01 4E 00 F4 D1  ......N.....N...
00A0: 03 01 4E 00 F5 D1 03 01  94 01 F4 D1 03 01 94 01  ..N.............
00B0: F5 D1 03 01 4E 01 03 D2  03 01 4E 01 04 D2 03 01  ....N.....N.....
00C0: 00                                                .               
```

#### Opcodes

```
  0: 0x0003 [0x6B] STOP_AND_IDLE: Malzaab (ID: 17027581/0x0103D1FD) stops current action and resets to idle (animation="idl0")
  1: 0x000C [0x59] UPDATE_ENTITY_DATA: Gadalar (ID: 17027575/0x0103D1F7)->Render.Flags0 &= ~0x200000
  2: 0x0013 [0x59] UPDATE_ENTITY_DATA: Shayeeha (ID: 17027576/0x0103D1F8)->Render.Flags0 &= ~0x200000
  3: 0x001A [0xBA] SET_ENTITY_POSITION(entity_id=Gadalar (ID: 17027575/0x0103D1F7), pos_x=843.434*, pos_z=264.075*, pos_y=-13.210*, direction=194.3°*)
  4: 0x0027 [0xBA] SET_ENTITY_POSITION(entity_id=Shayeeha (ID: 17027576/0x0103D1F8), pos_x=853.125*, pos_z=265.190*, pos_y=-13.744*, direction=165.6°*)
  5: 0x0034 [0x5B] LOAD_EXT_SCHEDULER: Load scheduler "gd00" with entities [Gadalar (ID: 17027575/0x0103D1F7), Gadalar (ID: 17027575/0x0103D1F7)], work=1170*
  6: 0x0043 [0x5B] LOAD_EXT_SCHEDULER: Load scheduler "ywb0" with entities [Shayeeha (ID: 17027576/0x0103D1F8), Shayeeha (ID: 17027576/0x0103D1F8)], work=2356*
  7: 0x0052 [0xBB] LOAD_EVENT_SCHEDULER_ALT: Load scheduler "s001" with entities [Gadalar (ID: 17027575/0x0103D1F7), Gadalar (ID: 17027575/0x0103D1F7)], work=[108*, 0*]
  8: 0x0063 [0x81] SET_ENTITY_BLINKING(blink_flag=0x01, entity=Shayeeha (ID: 17027576/0x0103D1F8))
  9: 0x0069 [0x7C] Shayeeha (ID: 17027576/0x0103D1F8)->Render.Flags2 |= 0x01
 10: 0x006F [0xBA] SET_ENTITY_POSITION(entity_id=Unnamed NPC (ID: 17027572/0x0103D1F4), pos_x=810.240*, pos_z=276.777*, pos_y=-20.712*, direction=274.2°*)
 11: 0x007C [0xBA] SET_ENTITY_POSITION(entity_id=??? (ID: 17027571/0x0103D1F3), pos_x=806.322*, pos_z=267.525*, pos_y=-19.744*, direction=274.2°*)
 12: 0x0089 [0xBA] SET_ENTITY_POSITION(entity_id=Unnamed NPC (ID: 17027573/0x0103D1F5), pos_x=862.549*, pos_z=258.922*, pos_y=-10.481*, direction=310.7°*)
 13: 0x0096 [0x4E] SET_ENTITY_HIDE_FLAG: Show ??? (ID: 17027571/0x0103D1F3)
 14: 0x009C [0x4E] SET_ENTITY_HIDE_FLAG: Show Unnamed NPC (ID: 17027572/0x0103D1F4)
 15: 0x00A2 [0x4E] SET_ENTITY_HIDE_FLAG: Show Unnamed NPC (ID: 17027573/0x0103D1F5)
 16: 0x00A8 [0x94] Unnamed NPC (ID: 17027572/0x0103D1F4)->Render.Flags3 ^= 0x01
 17: 0x00AE [0x94] Unnamed NPC (ID: 17027573/0x0103D1F5)->Render.Flags3 ^= 0x01
 18: 0x00B4 [0x4E] SET_ENTITY_HIDE_FLAG: Hide Unnamed NPC (ID: 17027587/0x0103D203)
 19: 0x00BA [0x4E] SET_ENTITY_HIDE_FLAG: Hide Unnamed NPC (ID: 17027588/0x0103D204)
 20: 0x00C0 [0x00] END_REQSTACK()
```
