# 17027597 - hei06

## Common Data

| Field            | Value                  |
|------------------|------------------------|
| Zone             | Mount Zhayolm (ID: 61) |
| Block Size       | 200 bytes              |
| Total Events     | 5                      |
| References Count | 12                     |

## List of Events

| Event ID                 | Entrypoint   |   Size |   Instructions |
|--------------------------|--------------|--------|----------------|
| [65535](#event-65535)    | 0x0000       |      1 |              1 |
| [16](#event-16)          | 0x0001       |      1 |              1 |
| [65535.1](#event-655351) | 0x0002       |     21 |              2 |
| [65535.2](#event-655352) | 0x0017       |     21 |              2 |
| [65535.3](#event-655353) | 0x002C       |     71 |             12 |

## DAT References (imed_data)

|   Index | Hex Value   |   Dec Value |
|---------|-------------|-------------|
|       0 | 0x0001      |           1 |
|       1 | 0x000A      |          10 |
|       2 | 0x00AE      |         174 |
|       3 | 0x00AB      |         171 |
|       4 | 0x0177      |         375 |
|       5 | 0x0000      |           0 |
|       6 | 0x015D      |         349 |
|       7 | 0x000D      |          13 |
|       8 | 0xFFFFFE34  |  4294966836 |
|       9 | 0xFFFF9F96  |  4294942614 |
|      10 | 0x0002      |           2 |
|      11 | 0x035E      |         862 |

## Events

### Event 65535

#### Metadata

| Field        | Value   |
|--------------|---------|
| Entrypoint   | 0x0000  |
| Data Size    | 1 bytes |
| Instructions | 1       |

```
      00 01 02 03 04 05 06 07  08 09 0A 0B 0C 0D 0E 0F
      -- -- -- -- -- -- -- --  -- -- -- -- -- -- -- --
0000: 00                                                .               
```

#### Opcodes

```
  0: 0x0000 [0x00] END_REQSTACK()
```

### Event 16

#### Metadata

| Field        | Value   |
|--------------|---------|
| Entrypoint   | 0x0001  |
| Data Size    | 1 bytes |
| Instructions | 1       |

```
      00 01 02 03 04 05 06 07  08 09 0A 0B 0C 0D 0E 0F
      -- -- -- -- -- -- -- --  -- -- -- -- -- -- -- --
0000:    00                                              .              
```

#### Opcodes

```
  0: 0x0001 [0x00] END_REQSTACK()
```

### Event 65535.1

#### Metadata

| Field        | Value    |
|--------------|----------|
| Entrypoint   | 0x0002   |
| Data Size    | 21 bytes |
| Instructions | 2        |

```
      00 01 02 03 04 05 06 07  08 09 0A 0B 0C 0D 0E 0F
      -- -- -- -- -- -- -- --  -- -- -- -- -- -- -- --
0000:       B6 0B 00 80 01 80  02 80 03 80 03 80 03 80    ..............
0010: 03 80 04 80 05 80 00                              .......         
```

#### Opcodes

```
  0: 0x0002 [0xB6] ENTITY_APPEARANCE_HANDLER(case=Full entity look, race=1*, hair=10*, head=174*, body=171*, hands=171*, legs=171*, feet=171*, main=375*, sub=0*)
  1: 0x0016 [0x00] END_REQSTACK()
```

### Event 65535.2

#### Metadata

| Field        | Value    |
|--------------|----------|
| Entrypoint   | 0x0017   |
| Data Size    | 21 bytes |
| Instructions | 2        |

```
      00 01 02 03 04 05 06 07  08 09 0A 0B 0C 0D 0E 0F
      -- -- -- -- -- -- -- --  -- -- -- -- -- -- -- --
0010:                      B6  0B 00 80 01 80 02 80 03         .........
0020: 80 03 80 03 80 03 80 06  80 05 80 00              ............    
```

#### Opcodes

```
  0: 0x0017 [0xB6] ENTITY_APPEARANCE_HANDLER(case=Full entity look, race=1*, hair=10*, head=174*, body=171*, hands=171*, legs=171*, feet=171*, main=349*, sub=0*)
  1: 0x002B [0x00] END_REQSTACK()
```

### Event 65535.3

#### Metadata

| Field        | Value    |
|--------------|----------|
| Entrypoint   | 0x002C   |
| Data Size    | 71 bytes |
| Instructions | 12       |

```
      00 01 02 03 04 05 06 07  08 09 0A 0B 0C 0D 0E 0F
      -- -- -- -- -- -- -- --  -- -- -- -- -- -- -- --
0020:                                      59 04 0D D2              Y...
0030: 03 01 07 80 1F 00 08 80  09 80 05 80 1F 01 6F 4A  ..............oJ
0040: 0D D2 03 01 F0 FF FF 7F  6F 76 0D D2 03 01 7B 0D  ........ov....{.
0050: D2 03 01 1C 0A 80 5B 0B  80 0D D2 03 01 0D D2 03  ......[.........
0060: 01 63 72 73 30 53 0D D2  03 01 0D D2 03 01 63 72  .crs0S........cr
0070: 73 30 00                                          s0.             
```

#### Opcodes

```
  0: 0x002C [0x59] UPDATE_ENTITY_DATA: Set hei06 (ID: 17027597/0x0103D20D) main speed = 13* * 0.1
  1: 0x0034 [0x1F] MOVE_ENTITY: EventEntity moves to X=-0.460*, Z=-24.682*, Y=0.000*
  2: 0x003C [0x1F] MOVE_ENTITY: Update entity position (mode=1)
  3: 0x003E [0x6F] WAIT_FRAME_DELAY: Yield until WaitTime reaches zero
  4: 0x003F [0x4A] hei06 (ID: 17027597/0x0103D20D) looks at LocalPlayer
  5: 0x0048 [0x6F] WAIT_FRAME_DELAY: Yield until WaitTime reaches zero
  6: 0x0049 [0x76] CHECK_ENTITY_RENDER_FLAGS: Wait until hei06 (ID: 17027597/0x0103D20D) Render.Flags0 and Render.Flags3 conditions are met
  7: 0x004E [0x7B] hei06 (ID: 17027597/0x0103D20D) stops talking
  8: 0x0053 [0x1C] WAIT(2* ticks)
  9: 0x0056 [0x5B] LOAD_EXT_SCHEDULER: Load scheduler "crs0" with entities [hei06 (ID: 17027597/0x0103D20D), hei06 (ID: 17027597/0x0103D20D)], work=862*
 10: 0x0065 [0x53] WAIT_SCHEDULER_TASK: Wait for scheduler "crs0" with entities [hei06 (ID: 17027597/0x0103D20D), hei06 (ID: 17027597/0x0103D20D)]
 11: 0x0072 [0x00] END_REQSTACK()
```
