# 17027607

## Common Data

| Field            | Value                  |
|------------------|------------------------|
| Zone             | Mount Zhayolm (ID: 61) |
| Block Size       | 204 bytes              |
| Total Events     | 3                      |
| References Count | 7                      |

## List of Events

| Event ID                 | Entrypoint   |   Size |   Instructions |
|--------------------------|--------------|--------|----------------|
| [65535](#event-65535)    | 0x0000       |      1 |              1 |
| [15](#event-15)          | 0x0001       |      1 |              1 |
| [65535.1](#event-655351) | 0x0002       |    144 |             15 |

## DAT References (imed_data)

|   Index | Hex Value   |   Dec Value |
|---------|-------------|-------------|
|       0 | 0xD65BF     |      878015 |
|       1 | 0x2C245     |      180805 |
|       2 | 0xFFFFDF97  |  4294958999 |
|       3 | 0x113B      |        4411 |
|       4 | 0x00C8      |         200 |
|       5 | 0x0000      |           0 |
|       6 | 0x00C9      |         201 |

## Events

### Event 65535

#### Metadata

| Field        | Value   |
|--------------|---------|
| Entrypoint   | 0x0000  |
| Data Size    | 1 bytes |
| Instructions | 1       |

```
      00 01 02 03 04 05 06 07  08 09 0A 0B 0C 0D 0E 0F
      -- -- -- -- -- -- -- --  -- -- -- -- -- -- -- --
0000: 00                                                .               
```

#### Opcodes

```
  0: 0x0000 [0x00] END_REQSTACK()
```

### Event 15

#### Metadata

| Field        | Value   |
|--------------|---------|
| Entrypoint   | 0x0001  |
| Data Size    | 1 bytes |
| Instructions | 1       |

```
      00 01 02 03 04 05 06 07  08 09 0A 0B 0C 0D 0E 0F
      -- -- -- -- -- -- -- --  -- -- -- -- -- -- -- --
0000:    00                                              .              
```

#### Opcodes

```
  0: 0x0001 [0x00] END_REQSTACK()
```

### Event 65535.1

#### Metadata

| Field        | Value     |
|--------------|-----------|
| Entrypoint   | 0x0002    |
| Data Size    | 144 bytes |
| Instructions | 3         |

```
      00 01 02 03 04 05 06 07  08 09 0A 0B 0C 0D 0E 0F
      -- -- -- -- -- -- -- --  -- -- -- -- -- -- -- --
0000:       33 01 37 00 80 01  80 02 80 03 80 00 45 04    3.7.........E.
0010: 80 F0 FF FF 7F F0 FF FF  7F 66 64 69 31 05 80 55  .........fdi1..U
0020: 04 80 F0 FF FF 7F F0 FF  FF 7F 66 64 69 31 1B 45  ..........fdi1.E
0030: 04 80 F0 FF FF 7F F0 FF  FF 7F 66 64 6F 31 05 80  ..........fdo1..
0040: 55 04 80 F0 FF FF 7F F0  FF FF 7F 66 64 6F 31 1B  U..........fdo1.
0050: 45 06 80 F0 FF FF 7F F0  FF FF 7F 77 68 69 31 05  E..........whi1.
0060: 80 55 06 80 F0 FF FF 7F  F0 FF FF 7F 77 68 69 31  .U..........whi1
0070: 1B 45 06 80 F0 FF FF 7F  F0 FF FF 7F 77 68 6F 31  .E..........who1
0080: 05 80 55 06 80 F0 FF FF  7F F0 FF FF 7F 77 68 6F  ..U..........who
0090: 31 1B                                             1.              
```

#### Opcodes

```
  0: 0x0002 [0x33] EventEntity->Render.Flags0 |= 0x200000 // Bit 21 (flag=0x01)
  1: 0x0004 [0x37] UPDATE_EVENT_POSITION_AND_DIR: x=878.015*, z=180.805*, y=-8.297*, direction=387.7°*
  2: 0x000D [0x00] END_REQSTACK()
```

#### Data or dead code:

```
# Dead code (unreachable instructions):
     0x000E [0x45] LOAD_SCHEDULED_TASK: Load scheduler "fdi1" with entities [LocalPlayer, LocalPlayer], work=[200*, 0*]
     0x001F [0x55] WAIT_LOAD_SCHEDULER: Wait for scheduler "fdi1" with entities [LocalPlayer, LocalPlayer], work=200*
     0x002E [0x1B] RETURN
     0x002F [0x45] LOAD_SCHEDULED_TASK: Load scheduler "fdo1" with entities [LocalPlayer, LocalPlayer], work=[200*, 0*]
     0x0040 [0x55] WAIT_LOAD_SCHEDULER: Wait for scheduler "fdo1" with entities [LocalPlayer, LocalPlayer], work=200*
     0x004F [0x1B] RETURN
     0x0050 [0x45] LOAD_SCHEDULED_TASK: Load scheduler "whi1" with entities [LocalPlayer, LocalPlayer], work=[201*, 0*]
     0x0061 [0x55] WAIT_LOAD_SCHEDULER: Wait for scheduler "whi1" with entities [LocalPlayer, LocalPlayer], work=201*
     0x0070 [0x1B] RETURN
     0x0071 [0x45] LOAD_SCHEDULED_TASK: Load scheduler "who1" with entities [LocalPlayer, LocalPlayer], work=[201*, 0*]
     0x0082 [0x55] WAIT_LOAD_SCHEDULER: Wait for scheduler "who1" with entities [LocalPlayer, LocalPlayer], work=201*
     0x0091 [0x1B] RETURN
```
