# 17027617

## Common Data

| Field            | Value                  |
|------------------|------------------------|
| Zone             | Mount Zhayolm (ID: 61) |
| Block Size       | 9616 bytes             |
| Total Events     | 6                      |
| References Count | 93                     |

## List of Events

| Event ID              | Entrypoint   |   Size |   Instructions |
|-----------------------|--------------|--------|----------------|
| [65535](#event-65535) | 0x0000       |    658 |             62 |
| [154](#event-154)     | 0x0292       |   2085 |            235 |
| [155](#event-155)     | 0x0AB7       |   1206 |            139 |
| [156](#event-156)     | 0x0F6D       |   2107 |            230 |
| [157](#event-157)     | 0x17A8       |   1039 |            123 |
| [158](#event-158)     | 0x1BB7       |   2107 |            230 |

## DAT References (imed_data)

|   Index | Hex Value   |   Dec Value |
|---------|-------------|-------------|
|       0 | 0x00C8      |         200 |
|       1 | 0x0000      |           0 |
|       2 | 0x00C9      |         201 |
|       3 | 0x0001      |           1 |
|       4 | 0x002D      |          45 |
|       5 | 0x0002      |           2 |
|       6 | 0x001E      |          30 |
|       7 | 0x00D7      |         215 |
|       8 | 0x0013      |          19 |
|       9 | 0x434E9     |      275689 |
|      10 | 0xFFFEA952  |  4294879570 |
|      11 | 0xFFFF8300  |  4294935296 |
|      12 | 0x07F1      |        2033 |
|      13 | 0x42061     |      270433 |
|      14 | 0xFFFEA7F2  |  4294879218 |
|      15 | 0x0FA0      |        4000 |
|      16 | 0x0FE8      |        4072 |
|      17 | 0x00A3      |         163 |
|      18 | 0x000D      |          13 |
|      19 | 0x000F      |          15 |
|      20 | 0x01C2      |         450 |
|      21 | 0x0078      |         120 |
|      22 | 0x1E9A      |        7834 |
|      23 | 0x0096      |         150 |
|      24 | 0x04DE      |        1246 |
|      25 | 0x1E9B      |        7835 |
|      26 | 0x1E9C      |        7836 |
|      27 | 0x0003      |           3 |
|      28 | 0x0004      |           4 |
|      29 | 0x0005      |           5 |
|      30 | 0x0006      |           6 |
|      31 | 0x0007      |           7 |
|      32 | 0x0008      |           8 |
|      33 | 0x04DD      |        1245 |
|      34 | 0x1E9D      |        7837 |
|      35 | 0x00B4      |         180 |
|      36 | 0x1E9E      |        7838 |
|      37 | 0x07D0      |        2000 |
|      38 | 0x00D8      |         216 |
|      39 | 0x1E9F      |        7839 |
|      40 | 0x1EA0      |        7840 |
|      41 | 0x1EA1      |        7841 |
|      42 | 0x00DA      |         218 |
|      43 | 0x1EA2      |        7842 |
|      44 | 0x0B2C      |        2860 |
|      45 | 0x1EA3      |        7843 |
|      46 | 0x1EA4      |        7844 |
|      47 | 0x0032      |          50 |
|      48 | 0x0050      |          80 |
|      49 | 0x4282B     |      272427 |
|      50 | 0xFFFEA84F  |  4294879311 |
|      51 | 0x000A      |          10 |
|      52 | 0x0A4B      |        2635 |
|      53 | 0x1EA5      |        7845 |
|      54 | 0x0A54      |        2644 |
|      55 | 0x012C      |         300 |
|      56 | 0x1EA6      |        7846 |
|      57 | 0x1EA7      |        7847 |
|      58 | 0x003C      |          60 |
|      59 | 0x01ED      |         493 |
|      60 | 0x43060     |      274528 |
|      61 | 0xFFFEA965  |  4294879589 |
|      62 | 0x1EA9      |        7849 |
|      63 | 0x1EAA      |        7850 |
|      64 | 0x0080      |         128 |
|      65 | 0x1EAB      |        7851 |
|      66 | 0x1EAD      |        7853 |
|      67 | 0x1EAC      |        7852 |
|      68 | 0x1EAE      |        7854 |
|      69 | 0x1EAF      |        7855 |
|      70 | 0x1EB0      |        7856 |
|      71 | 0x01EF      |         495 |
|      72 | 0x1EBA      |        7866 |
|      73 | 0x1EBB      |        7867 |
|      74 | 0x1EBC      |        7868 |
|      75 | 0x1EBD      |        7869 |
|      76 | 0x0082      |         130 |
|      77 | 0x0020      |          32 |
|      78 | 0x1EBE      |        7870 |
|      79 | 0x1EBF      |        7871 |
|      80 | 0x1EC0      |        7872 |
|      81 | 0x1EC1      |        7873 |
|      82 | 0x1EC2      |        7874 |
|      83 | 0x1EB1      |        7857 |
|      84 | 0x008C      |         140 |
|      85 | 0x1EB2      |        7858 |
|      86 | 0x1EB3      |        7859 |
|      87 | 0x1EB4      |        7860 |
|      88 | 0x1EB5      |        7861 |
|      89 | 0x1EB6      |        7862 |
|      90 | 0x1EB7      |        7863 |
|      91 | 0x1EB8      |        7864 |
|      92 | 0x1EB9      |        7865 |

## String References

- **7837**: Show Megomak your $3? [Yes./No.]
- **7869**: Ask for instructions? [None needed./Just in case...]

## Events

### Event 65535

#### Metadata

| Field        | Value     |
|--------------|-----------|
| Entrypoint   | 0x0000    |
| Data Size    | 658 bytes |
| Instructions | 1         |

```
      00 01 02 03 04 05 06 07  08 09 0A 0B 0C 0D 0E 0F
      -- -- -- -- -- -- -- --  -- -- -- -- -- -- -- --
0000: 00 45 00 80 F0 FF FF 7F  F0 FF FF 7F 66 64 69 30  .E..........fdi0
0010: 01 80 55 00 80 F0 FF FF  7F F0 FF FF 7F 66 64 69  ..U..........fdi
0020: 30 1B 45 00 80 F0 FF FF  7F F0 FF FF 7F 66 64 6F  0.E..........fdo
0030: 30 01 80 55 00 80 F0 FF  FF 7F F0 FF FF 7F 66 64  0..U..........fd
0040: 6F 30 1B 45 00 80 F0 FF  FF 7F F0 FF FF 7F 66 64  o0.E..........fd
0050: 69 31 01 80 55 00 80 F0  FF FF 7F F0 FF FF 7F 66  i1..U..........f
0060: 64 69 31 1B 45 00 80 F0  FF FF 7F F0 FF FF 7F 66  di1.E..........f
0070: 64 6F 31 01 80 55 00 80  F0 FF FF 7F F0 FF FF 7F  do1..U..........
0080: 66 64 6F 31 1B 45 02 80  F0 FF FF 7F F0 FF FF 7F  fdo1.E..........
0090: 77 68 69 31 01 80 55 02  80 F0 FF FF 7F F0 FF FF  whi1..U.........
00A0: 7F 77 68 69 31 1B 45 02  80 F0 FF FF 7F F0 FF FF  .whi1.E.........
00B0: 7F 77 68 6F 31 01 80 55  02 80 F0 FF FF 7F F0 FF  .who1..U........
00C0: FF 7F 77 68 6F 31 1B 45  02 80 F0 FF FF 7F F0 FF  ..who1.E........
00D0: FF 7F 77 68 6F 32 01 80  55 02 80 F0 FF FF 7F F0  ..who2..U.......
00E0: FF FF 7F 77 68 6F 32 1B  45 02 80 F0 FF FF 7F F0  ...who2.E.......
00F0: FF FF 7F 77 68 6F 33 01  80 55 02 80 F0 FF FF 7F  ...who3..U......
0100: F0 FF FF 7F 77 68 6F 33  1B 62 03 80 F0 FF FF 7F  ....who3.b......
0110: F0 FF FF 7F 6D 61 69 6E  01 80 1C 04 80 45 00 80  ....main.....E..
0120: F0 FF FF 7F F0 FF FF 7F  66 64 6F 31 01 80 55 00  ........fdo1..U.
0130: 80 F0 FF FF 7F F0 FF FF  7F 66 64 6F 31 1B 45 00  .........fdo1.E.
0140: 80 F0 FF FF 7F F0 FF FF  7F 66 64 69 31 01 80 62  .........fdi1..b
0150: 05 80 F0 FF FF 7F F0 FF  FF 7F 6D 61 69 6E 01 80  ..........main..
0160: 1C 06 80 55 00 80 F0 FF  FF 7F F0 FF FF 7F 66 64  ...U..........fd
0170: 69 31 1B 45 00 80 F0 FF  FF 7F F0 FF FF 7F 62 6C  i1.E..........bl
0180: 6F 6E 01 80 45 02 80 F0  FF FF 7F F0 FF FF 7F 62  on..E..........b
0190: 6C 6F 6E 01 80 1B 45 02  80 F0 FF FF 7F F0 FF FF  lon...E.........
01A0: 7F 77 68 69 30 01 80 55  02 80 F0 FF FF 7F F0 FF  .whi0..U........
01B0: FF 7F 77 68 69 30 1B 45  02 80 F0 FF FF 7F F0 FF  ..whi0.E........
01C0: FF 7F 77 68 6F 30 01 80  55 02 80 F0 FF FF 7F F0  ..who0..U.......
01D0: FF FF 7F 77 68 6F 30 1B  45 07 80 F0 FF FF 7F F0  ...who0.E.......
01E0: FF FF 7F 65 66 6F 6E 01  80 55 07 80 F0 FF FF 7F  ...efon..U......
01F0: F0 FF FF 7F 65 66 6F 6E  1B 45 00 80 F0 FF FF 7F  ....efon.E......
0200: F0 FF FF 7F 66 64 69 73  01 80 1B 45 00 80 F0 FF  ....fdis...E....
0210: FF 7F F0 FF FF 7F 66 64  6F 73 01 80 55 00 80 F0  ......fdos..U...
0220: FF FF 7F F0 FF FF 7F 66  64 6F 73 1B 45 00 80 F0  .......fdos.E...
0230: FF FF 7F F0 FF FF 7F 66  64 69 66 01 80 1B 45 00  .......fdif...E.
0240: 80 F0 FF FF 7F F0 FF FF  7F 66 64 6F 66 01 80 55  .........fdof..U
0250: 00 80 F0 FF FF 7F F0 FF  FF 7F 66 64 6F 66 1B 45  ..........fdof.E
0260: 00 80 F0 FF FF 7F F0 FF  FF 7F 66 64 69 70 01 80  ..........fdip..
0270: 1B 45 00 80 F0 FF FF 7F  F0 FF FF 7F 66 64 6F 70  .E..........fdop
0280: 01 80 55 00 80 F0 FF FF  7F F0 FF FF 7F 66 64 6F  ..U..........fdo
0290: 70 1B                                             p.              
```

#### Opcodes

```
  0: 0x0000 [0x00] END_REQSTACK()
```

#### Data or dead code:

```
# Dead code (unreachable instructions):
     0x0001 [0x45] LOAD_SCHEDULED_TASK: Load scheduler "fdi0" with entities [LocalPlayer, LocalPlayer], work=[200*, 0*]
     0x0012 [0x55] WAIT_LOAD_SCHEDULER: Wait for scheduler "fdi0" with entities [LocalPlayer, LocalPlayer], work=200*
     0x0021 [0x1B] RETURN
     0x0022 [0x45] LOAD_SCHEDULED_TASK: Load scheduler "fdo0" with entities [LocalPlayer, LocalPlayer], work=[200*, 0*]
     0x0033 [0x55] WAIT_LOAD_SCHEDULER: Wait for scheduler "fdo0" with entities [LocalPlayer, LocalPlayer], work=200*
     0x0042 [0x1B] RETURN
     0x0043 [0x45] LOAD_SCHEDULED_TASK: Load scheduler "fdi1" with entities [LocalPlayer, LocalPlayer], work=[200*, 0*]
     0x0054 [0x55] WAIT_LOAD_SCHEDULER: Wait for scheduler "fdi1" with entities [LocalPlayer, LocalPlayer], work=200*
     0x0063 [0x1B] RETURN
     0x0064 [0x45] LOAD_SCHEDULED_TASK: Load scheduler "fdo1" with entities [LocalPlayer, LocalPlayer], work=[200*, 0*]
     0x0075 [0x55] WAIT_LOAD_SCHEDULER: Wait for scheduler "fdo1" with entities [LocalPlayer, LocalPlayer], work=200*
     0x0084 [0x1B] RETURN
     0x0085 [0x45] LOAD_SCHEDULED_TASK: Load scheduler "whi1" with entities [LocalPlayer, LocalPlayer], work=[201*, 0*]
     0x0096 [0x55] WAIT_LOAD_SCHEDULER: Wait for scheduler "whi1" with entities [LocalPlayer, LocalPlayer], work=201*
     0x00A5 [0x1B] RETURN
     0x00A6 [0x45] LOAD_SCHEDULED_TASK: Load scheduler "who1" with entities [LocalPlayer, LocalPlayer], work=[201*, 0*]
     0x00B7 [0x55] WAIT_LOAD_SCHEDULER: Wait for scheduler "who1" with entities [LocalPlayer, LocalPlayer], work=201*
     0x00C6 [0x1B] RETURN
     0x00C7 [0x45] LOAD_SCHEDULED_TASK: Load scheduler "who2" with entities [LocalPlayer, LocalPlayer], work=[201*, 0*]
     0x00D8 [0x55] WAIT_LOAD_SCHEDULER: Wait for scheduler "who2" with entities [LocalPlayer, LocalPlayer], work=201*
     0x00E7 [0x1B] RETURN
     0x00E8 [0x45] LOAD_SCHEDULED_TASK: Load scheduler "who3" with entities [LocalPlayer, LocalPlayer], work=[201*, 0*]
     0x00F9 [0x55] WAIT_LOAD_SCHEDULER: Wait for scheduler "who3" with entities [LocalPlayer, LocalPlayer], work=201*
     0x0108 [0x1B] RETURN
     0x0109 [0x62] LOAD_EVENT_SCHEDULER: Load scheduler "main" with entities [LocalPlayer, LocalPlayer], work=[1*, 0*]
     0x011A [0x1C] WAIT(45* ticks)
     0x011D [0x45] LOAD_SCHEDULED_TASK: Load scheduler "fdo1" with entities [LocalPlayer, LocalPlayer], work=[200*, 0*]
     0x012E [0x55] WAIT_LOAD_SCHEDULER: Wait for scheduler "fdo1" with entities [LocalPlayer, LocalPlayer], work=200*
     0x013D [0x1B] RETURN
     0x013E [0x45] LOAD_SCHEDULED_TASK: Load scheduler "fdi1" with entities [LocalPlayer, LocalPlayer], work=[200*, 0*]
     0x014F [0x62] LOAD_EVENT_SCHEDULER: Load scheduler "main" with entities [LocalPlayer, LocalPlayer], work=[2*, 0*]
     0x0160 [0x1C] WAIT(30* ticks)
     0x0163 [0x55] WAIT_LOAD_SCHEDULER: Wait for scheduler "fdi1" with entities [LocalPlayer, LocalPlayer], work=200*
     0x0172 [0x1B] RETURN
     0x0173 [0x45] LOAD_SCHEDULED_TASK: Load scheduler "blon" with entities [LocalPlayer, LocalPlayer], work=[200*, 0*]
     0x0184 [0x45] LOAD_SCHEDULED_TASK: Load scheduler "blon" with entities [LocalPlayer, LocalPlayer], work=[201*, 0*]
     0x0195 [0x1B] RETURN
     0x0196 [0x45] LOAD_SCHEDULED_TASK: Load scheduler "whi0" with entities [LocalPlayer, LocalPlayer], work=[201*, 0*]
     0x01A7 [0x55] WAIT_LOAD_SCHEDULER: Wait for scheduler "whi0" with entities [LocalPlayer, LocalPlayer], work=201*
     0x01B6 [0x1B] RETURN
     0x01B7 [0x45] LOAD_SCHEDULED_TASK: Load scheduler "who0" with entities [LocalPlayer, LocalPlayer], work=[201*, 0*]
     0x01C8 [0x55] WAIT_LOAD_SCHEDULER: Wait for scheduler "who0" with entities [LocalPlayer, LocalPlayer], work=201*
     0x01D7 [0x1B] RETURN
     0x01D8 [0x45] LOAD_SCHEDULED_TASK: Load scheduler "efon" with entities [LocalPlayer, LocalPlayer], work=[215*, 0*]
     0x01E9 [0x55] WAIT_LOAD_SCHEDULER: Wait for scheduler "efon" with entities [LocalPlayer, LocalPlayer], work=215*
     0x01F8 [0x1B] RETURN
     0x01F9 [0x45] LOAD_SCHEDULED_TASK: Load scheduler "fdis" with entities [LocalPlayer, LocalPlayer], work=[200*, 0*]
     0x020A [0x1B] RETURN
     0x020B [0x45] LOAD_SCHEDULED_TASK: Load scheduler "fdos" with entities [LocalPlayer, LocalPlayer], work=[200*, 0*]
     0x021C [0x55] WAIT_LOAD_SCHEDULER: Wait for scheduler "fdos" with entities [LocalPlayer, LocalPlayer], work=200*
     0x022B [0x1B] RETURN
     0x022C [0x45] LOAD_SCHEDULED_TASK: Load scheduler "fdif" with entities [LocalPlayer, LocalPlayer], work=[200*, 0*]
     0x023D [0x1B] RETURN
     0x023E [0x45] LOAD_SCHEDULED_TASK: Load scheduler "fdof" with entities [LocalPlayer, LocalPlayer], work=[200*, 0*]
     0x024F [0x55] WAIT_LOAD_SCHEDULER: Wait for scheduler "fdof" with entities [LocalPlayer, LocalPlayer], work=200*
     0x025E [0x1B] RETURN
     0x025F [0x45] LOAD_SCHEDULED_TASK: Load scheduler "fdip" with entities [LocalPlayer, LocalPlayer], work=[200*, 0*]
     0x0270 [0x1B] RETURN
     0x0271 [0x45] LOAD_SCHEDULED_TASK: Load scheduler "fdop" with entities [LocalPlayer, LocalPlayer], work=[200*, 0*]
     0x0282 [0x55] WAIT_LOAD_SCHEDULER: Wait for scheduler "fdop" with entities [LocalPlayer, LocalPlayer], work=200*
     0x0291 [0x1B] RETURN
```

### Event 154

#### Metadata

| Field        | Value      |
|--------------|------------|
| Entrypoint   | 0x0292     |
| Data Size    | 2085 bytes |
| Instructions | 234        |

```
      00 01 02 03 04 05 06 07  08 09 0A 0B 0C 0D 0E 0F
      -- -- -- -- -- -- -- --  -- -- -- -- -- -- -- --
0290:       42 45 00 80 F8 FF  FF 7F F8 FF FF 7F 66 64    BE..........fd
02A0: 6F 31 01 80 55 00 80 F8  FF FF 7F F8 FF FF 7F 66  o1..U..........f
02B0: 64 6F 31 46 01 38 08 80  4E 00 24 D2 03 01 27 10  do1F.8..N.$...'.
02C0: 22 D2 03 01 04 92 01 22  D2 03 01 94 01 F0 FF FF  "......"........
02D0: 7F 94 01 22 D2 03 01 94  01 24 D2 03 01 BA F0 FF  ...".....$......
02E0: FF 7F 09 80 0A 80 0B 80  0C 80 BA 22 D2 03 01 0D  ..........."....
02F0: 80 0E 80 0B 80 0F 80 BA  24 D2 03 01 01 80 01 80  ........$.......
0300: 01 80 10 80 7B F0 FF FF  7F 7B 22 D2 03 01 80 F0  ....{....{".....
0310: FF FF 7F 80 22 D2 03 01  5C 00 11 80 5C 01 11 80  ...."...\...\...
0320: 9A 59 04 22 D2 03 01 12  80 1C 13 80 27 10 22 D2  .Y."........'.".
0330: 03 01 0C 27 10 24 D2 03  01 02 1C 13 80 45 14 80  ...'.$.......E..
0340: F0 FF FF 7F F0 FF FF 7F  6E 31 30 31 01 80 1A 43  ........n101...C
0350: 00 1C 15 80 52 14 80 F0  FF FF 7F F0 FF FF 7F 6E  ....R..........n
0360: 31 30 31 45 14 80 F0 FF  FF 7F F0 FF FF 7F 6E 31  101E..........n1
0370: 30 32 01 80 5B 07 80 22  D2 03 01 22 D2 03 01 74  02..[.."..."...t
0380: 6C 6B 30 2B 22 D2 03 01  16 80 23 52 14 80 F0 FF  lk0+".....#R....
0390: FF 7F F0 FF FF 7F 6E 31  30 32 45 14 80 F0 FF FF  ......n102E.....
03A0: 7F F0 FF FF 7F 6E 31 30  33 01 80 4A 22 D2 03 01  .....n103..J"...
03B0: F0 FF FF 7F 4A 24 D2 03  01 F0 FF FF 7F 5B 07 80  ....J$.......[..
03C0: 22 D2 03 01 22 D2 03 01  74 6C 6B 65 27 10 F0 FF  "..."...tlke'...
03D0: FF 7F 1E 1C 17 80 27 10  F0 FF FF 7F 1F 52 14 80  ......'......R..
03E0: F0 FF FF 7F F0 FF FF 7F  6E 31 30 33 45 14 80 F0  ........n103E...
03F0: FF FF 7F F0 FF FF 7F 6E  31 30 34 01 80 03 02 10  .......n104.....
0400: 18 80 2B 22 D2 03 01 19  80 23 2B 22 D2 03 01 1A  ..+".....#+"....
0410: 80 23 52 14 80 F0 FF FF  7F F0 FF FF 7F 6E 31 30  .#R..........n10
0420: 34 29 10 F0 FF FF 7F 22  02 02 10 03 80 80 53 04  4)....."......S.
0430: 52 14 80 F0 FF FF 7F F0  FF FF 7F 6E 31 30 34 45  R..........n104E
0440: 14 80 F0 FF FF 7F F0 FF  FF 7F 6E 68 6D 31 01 80  ..........nhm1..
0450: 01 80 05 02 02 10 05 80  80 7E 04 52 14 80 F0 FF  .........~.R....
0460: FF 7F F0 FF FF 7F 6E 31  30 34 45 14 80 F0 FF FF  ......n104E.....
0470: 7F F0 FF FF 7F 6E 68 6D  31 01 80 01 80 05 02 02  .....nhm1.......
0480: 10 1B 80 80 A9 04 52 14  80 F0 FF FF 7F F0 FF FF  ......R.........
0490: 7F 6E 31 30 34 45 14 80  F0 FF FF 7F F0 FF FF 7F  .n104E..........
04A0: 6E 65 6D 31 01 80 01 80  05 02 02 10 1C 80 80 D4  nem1............
04B0: 04 52 14 80 F0 FF FF 7F  F0 FF FF 7F 6E 31 30 34  .R..........n104
04C0: 45 14 80 F0 FF FF 7F F0  FF FF 7F 6E 65 6D 31 01  E..........nem1.
04D0: 80 01 80 05 02 02 10 1D  80 80 FF 04 52 14 80 F0  ............R...
04E0: FF FF 7F F0 FF FF 7F 6E  31 30 34 45 14 80 F0 FF  .......n104E....
04F0: FF 7F F0 FF FF 7F 6E 74  72 31 01 80 01 80 05 02  ......ntr1......
0500: 02 10 1E 80 80 2A 05 52  14 80 F0 FF FF 7F F0 FF  .....*.R........
0510: FF 7F 6E 31 30 34 45 14  80 F0 FF FF 7F F0 FF FF  ..n104E.........
0520: 7F 6E 74 72 31 01 80 01  80 05 02 02 10 1F 80 80  .ntr1...........
0530: 55 05 52 14 80 F0 FF FF  7F F0 FF FF 7F 6E 31 30  U.R..........n10
0540: 34 45 14 80 F0 FF FF 7F  F0 FF FF 7F 6E 6D 74 31  4E..........nmt1
0550: 01 80 01 80 05 02 02 10  20 80 80 80 05 52 14 80  ........ ....R..
0560: F0 FF FF 7F F0 FF FF 7F  6E 31 30 34 45 14 80 F0  ........n104E...
0570: FF FF 7F F0 FF FF 7F 6E  67 6C 31 01 80 01 80 05  .......ngl1.....
0580: 03 03 10 21 80 24 22 80  01 80 01 80 25 02 00 10  ...!.$".....%...
0590: 01 80 00 A2 05 27 10 F0  FF FF 7F 1D 1C 23 80 01  .....'.......#..
05A0: BA 05 02 00 10 03 80 00  BA 05 27 10 22 D2 03 01  ..........'."...
05B0: 0D 1C 06 80 01 68 0A 01  BA 05 52 14 80 F0 FF FF  .....h....R.....
05C0: 7F F0 FF FF 7F 6E 68 6D  31 52 14 80 F0 FF FF 7F  .....nhm1R......
05D0: F0 FF FF 7F 6E 65 6D 31  52 14 80 F0 FF FF 7F F0  ....nem1R.......
05E0: FF FF 7F 6E 74 72 31 52  14 80 F0 FF FF 7F F0 FF  ...ntr1R........
05F0: FF 7F 6E 6D 74 31 52 14  80 F0 FF FF 7F F0 FF FF  ..nmt1R.........
0600: 7F 6E 67 6C 31 45 14 80  F0 FF FF 7F F0 FF FF 7F  .ngl1E..........
0610: 6E 31 30 36 01 80 2B 22  D2 03 01 24 80 23 4B 22  n106..+"...$.#K"
0620: D2 03 01 25 80 1C 06 80  52 14 80 F0 FF FF 7F F0  ...%....R.......
0630: FF FF 7F 6E 31 30 36 45  14 80 F0 FF FF 7F F0 FF  ...n106E........
0640: FF 7F 6E 31 30 37 01 80  1C 15 80 5B 26 80 22 D2  ..n107.....[&.".
0650: 03 01 22 D2 03 01 62 69  6B 30 52 14 80 F0 FF FF  .."...bik0R.....
0660: 7F F0 FF FF 7F 6E 31 30  37 45 14 80 F0 FF FF 7F  .....n107E......
0670: F0 FF FF 7F 6E 31 31 31  01 80 2B 22 D2 03 01 27  ....n111..+"...'
0680: 80 23 2B 22 D2 03 01 28  80 23 5B 26 80 22 D2 03  .#+"...(.#[&."..
0690: 01 22 D2 03 01 62 69 6B  31 03 02 10 15 80 27 10  ."...bik1.....'.
06A0: 24 D2 03 01 03 52 14 80  F0 FF FF 7F F0 FF FF 7F  $....R..........
06B0: 6E 31 31 31 45 14 80 F0  FF FF 7F F0 FF FF 7F 6E  n111E..........n
06C0: 31 30 35 01 80 2B 22 D2  03 01 29 80 23 2A 10 24  105..+"...).#*.$
06D0: D2 03 01 52 14 80 F0 FF  FF 7F F0 FF FF 7F 6E 31  ...R..........n1
06E0: 30 35 45 14 80 F0 FF FF  7F F0 FF FF 7F 6E 31 30  05E..........n10
06F0: 39 01 80 4A 22 D2 03 01  F0 FF FF 7F 6F 76 F0 FF  9..J".......ov..
0700: FF 7F 5B 2A 80 22 D2 03  01 22 D2 03 01 77 61 72  ..[*."..."...war
0710: 30 03 03 10 18 80 2B 22  D2 03 01 2B 80 23 52 14  0.....+"...+.#R.
0720: 80 F0 FF FF 7F F0 FF FF  7F 6E 31 30 39 45 14 80  .........n109E..
0730: F0 FF FF 7F F0 FF FF 7F  6E 31 31 30 01 80 03 03  ........n110....
0740: 10 2C 80 03 04 10 1B 80  2B 22 D2 03 01 2D 80 23  .,......+"...-.#
0750: 2B 22 D2 03 01 2E 80 23  29 10 F0 FF FF 7F 22 02  +".....#).....".
0760: 02 10 03 80 80 8A 07 52  14 80 F0 FF FF 7F F0 FF  .......R........
0770: FF 7F 6E 31 31 30 45 14  80 F0 FF FF 7F F0 FF FF  ..n110E.........
0780: 7F 6E 68 6D 31 01 80 01  B7 08 02 02 10 05 80 80  .nhm1...........
0790: B5 07 52 14 80 F0 FF FF  7F F0 FF FF 7F 6E 31 31  ..R..........n11
07A0: 30 45 14 80 F0 FF FF 7F  F0 FF FF 7F 6E 68 6D 31  0E..........nhm1
07B0: 01 80 01 B7 08 02 02 10  1B 80 80 E0 07 52 14 80  .............R..
07C0: F0 FF FF 7F F0 FF FF 7F  6E 31 31 30 45 14 80 F0  ........n110E...
07D0: FF FF 7F F0 FF FF 7F 6E  65 6D 31 01 80 01 B7 08  .......nem1.....
07E0: 02 02 10 1C 80 80 0B 08  52 14 80 F0 FF FF 7F F0  ........R.......
07F0: FF FF 7F 6E 31 31 30 45  14 80 F0 FF FF 7F F0 FF  ...n110E........
0800: FF 7F 6E 65 6D 31 01 80  01 B7 08 02 02 10 1D 80  ..nem1..........
0810: 80 36 08 52 14 80 F0 FF  FF 7F F0 FF FF 7F 6E 31  .6.R..........n1
0820: 31 30 45 14 80 F0 FF FF  7F F0 FF FF 7F 6E 74 72  10E..........ntr
0830: 31 01 80 01 B7 08 02 02  10 1E 80 80 61 08 52 14  1...........a.R.
0840: 80 F0 FF FF 7F F0 FF FF  7F 6E 31 31 30 45 14 80  .........n110E..
0850: F0 FF FF 7F F0 FF FF 7F  6E 74 72 31 01 80 01 B7  ........ntr1....
0860: 08 02 02 10 1F 80 80 8C  08 52 14 80 F0 FF FF 7F  .........R......
0870: F0 FF FF 7F 6E 31 31 30  45 14 80 F0 FF FF 7F F0  ....n110E.......
0880: FF FF 7F 6E 6D 74 31 01  80 01 B7 08 02 02 10 20  ...nmt1........ 
0890: 80 80 B7 08 52 14 80 F0  FF FF 7F F0 FF FF 7F 6E  ....R..........n
08A0: 31 31 30 45 14 80 F0 FF  FF 7F F0 FF FF 7F 6E 67  110E..........ng
08B0: 6C 31 01 80 01 B7 08 27  10 F0 FF FF 7F 1E 1C 2F  l1.....'......./
08C0: 80 6B 69 64 6C 30 22 D2  03 01 1C 30 80 BA 24 D2  .kidl0"....0..$.
08D0: 03 01 31 80 32 80 0B 80  10 80 1C 33 80 5B 34 80  ..1.2......3.[4.
08E0: 24 D2 03 01 24 D2 03 01  73 65 69 6C 6B 69 64 6C  $...$...seilkidl
08F0: 30 22 D2 03 01 1C 33 80  27 10 F0 FF FF 7F 1F 52  0"....3.'......R
0900: 14 80 F0 FF FF 7F F0 FF  FF 7F 6E 68 6D 31 52 14  ..........nhm1R.
0910: 80 F0 FF FF 7F F0 FF FF  7F 6E 65 6D 31 52 14 80  .........nem1R..
0920: F0 FF FF 7F F0 FF FF 7F  6E 74 72 31 52 14 80 F0  ........ntr1R...
0930: FF FF 7F F0 FF FF 7F 6E  6D 74 31 52 14 80 F0 FF  .......nmt1R....
0940: FF 7F F0 FF FF 7F 6E 67  6C 31 45 14 80 F0 FF FF  ......ngl1E.....
0950: 7F F0 FF FF 7F 6E 31 31  32 01 80 2B 22 D2 03 01  .....n112..+"...
0960: 35 80 23 52 14 80 F0 FF  FF 7F F0 FF FF 7F 6E 31  5.#R..........n1
0970: 31 32 45 14 80 F0 FF FF  7F F0 FF FF 7F 6E 31 31  12E..........n11
0980: 33 01 80 5B 34 80 24 D2  03 01 24 D2 03 01 73 65  3..[4.$...$...se
0990: 69 30 5B 36 80 22 D2 03  01 22 D2 03 01 73 65 69  i0[6."..."...sei
09A0: 30 1C 17 80 52 14 80 F0  FF FF 7F F0 FF FF 7F 6E  0...R..........n
09B0: 31 31 33 45 14 80 F0 FF  FF 7F F0 FF FF 7F 6E 31  113E..........n1
09C0: 31 34 01 80 5B 34 80 24  D2 03 01 24 D2 03 01 73  14..[4.$...$...s
09D0: 65 69 31 5B 36 80 22 D2  03 01 22 D2 03 01 73 65  ei1[6."..."...se
09E0: 69 31 1C 2F 80 03 02 10  37 80 27 10 24 D2 03 01  i1./....7.'.$...
09F0: 03 2B 22 D2 03 01 38 80  23 2A 10 24 D2 03 01 52  .+"...8.#*.$...R
0A00: 14 80 F0 FF FF 7F F0 FF  FF 7F 6E 31 31 34 45 14  ..........n114E.
0A10: 80 F0 FF FF 7F F0 FF FF  7F 6E 31 31 35 01 80 2B  .........n115..+
0A20: 22 D2 03 01 39 80 23 27  10 22 D2 03 01 0D 1C 33  "...9.#'.".....3
0A30: 80 52 14 80 F0 FF FF 7F  F0 FF FF 7F 6E 31 31 35  .R..........n115
0A40: 45 14 80 F0 FF FF 7F F0  FF FF 7F 6E 31 31 36 01  E..........n116.
0A50: 80 1C 3A 80 52 14 80 F0  FF FF 7F F0 FF FF 7F 6E  ..:.R..........n
0A60: 31 31 36 03 01 10 03 80  5D 01 80 15 80 1A 64 00  116.....].....d.
0A70: 1C 06 80 59 05 F0 FF FF  7F 00 52 3B 80 F0 FF FF  ...Y......R;....
0A80: 7F F0 FF FF 7F 72 31 34  30 78 1C 13 80 AB 09 1C  .....r140x......
0A90: 13 80 AB 11 01 80 1C 03  80 5C 00 01 80 5C 01 01  .........\...\..
0AA0: 80 9A 46 00 45 00 80 F0  FF FF 7F F0 FF FF 7F 66  ..F.E..........f
0AB0: 64 69 32 01 80 21 00                              di2..!.         
```

#### Opcodes

```
  0: 0x0292 [0x42] SET_CLI_EVENT_CANCEL_DATA()
  1: 0x0293 [0x45] LOAD_SCHEDULED_TASK: Load scheduler "fdo1" with entities [EventEntity, EventEntity], work=[200*, 0*]
  2: 0x02A4 [0x55] WAIT_LOAD_SCHEDULER: Wait for scheduler "fdo1" with entities [EventEntity, EventEntity], work=200*
  3: 0x02B3 [0x46] CAMERA_CONTROL: Disable user control
  4: 0x02B5 [0x38] SET_CLIENT_EVENT_MODE(mode=19*)
  5: 0x02B8 [0x4E] SET_ENTITY_HIDE_FLAG: Show Unnamed NPC (ID: 17027620/0x0103D224)
  6: 0x02BE [0x27] REQ_SET(priority=0x10, entity_id=Megomak (ID: 17027618/0x0103D222), tag_num=0x04)
  7: 0x02C5 [0x92] Megomak (ID: 17027618/0x0103D222)->Render.Flags3 ^= 0x01
  8: 0x02CB [0x94] LocalPlayer->Render.Flags3 ^= 0x01
  9: 0x02D1 [0x94] Megomak (ID: 17027618/0x0103D222)->Render.Flags3 ^= 0x01
 10: 0x02D7 [0x94] Unnamed NPC (ID: 17027620/0x0103D224)->Render.Flags3 ^= 0x01
 11: 0x02DD [0xBA] SET_ENTITY_POSITION(entity_id=LocalPlayer, pos_x=275.689*, pos_z=-87.726*, pos_y=-32.000*, direction=178.7°*)
 12: 0x02EA [0xBA] SET_ENTITY_POSITION(entity_id=Megomak (ID: 17027618/0x0103D222), pos_x=270.433*, pos_z=-88.078*, pos_y=-32.000*, direction=351.6°*)
 13: 0x02F7 [0xBA] SET_ENTITY_POSITION(entity_id=Unnamed NPC (ID: 17027620/0x0103D224), pos_x=0.000*, pos_z=0.000*, pos_y=0.000*, direction=357.9°*)
 14: 0x0304 [0x7B] LocalPlayer stops talking
 15: 0x0309 [0x7B] Megomak (ID: 17027618/0x0103D222) stops talking
 16: 0x030E [0x80] LOAD_WAIT(entity=LocalPlayer)
 17: 0x0313 [0x80] LOAD_WAIT(entity=Megomak (ID: 17027618/0x0103D222))
 18: 0x0318 [0x5C] MUSIC_CONTROL: Set Idle (Day) music to song 163*
 19: 0x031C [0x5C] MUSIC_CONTROL: Set Idle (Night) music to song 163*
 20: 0x0320 [0x9A] WAIT_MUSIC_SERVER()
 21: 0x0321 [0x59] UPDATE_ENTITY_DATA: Set Megomak (ID: 17027618/0x0103D222) main speed = 13* * 0.1
 22: 0x0329 [0x1C] WAIT(15* ticks)
 23: 0x032C [0x27] REQ_SET(priority=0x10, entity_id=Megomak (ID: 17027618/0x0103D222), tag_num=0x0C)
 24: 0x0333 [0x27] REQ_SET(priority=0x10, entity_id=Unnamed NPC (ID: 17027620/0x0103D224), tag_num=0x02)
 25: 0x033A [0x1C] WAIT(15* ticks)
 26: 0x033D [0x45] LOAD_SCHEDULED_TASK: Load scheduler "n101" with entities [LocalPlayer, LocalPlayer], work=[450*, 0*]
 27: 0x034E [0x1A] CALL_SUBROUTINE(address=0x0043)
 28: 0x0351 [0x1C] WAIT(120* ticks)
 29: 0x0354 [0x52] END_LOAD_SCHEDULER: End scheduler "n101" with entities [LocalPlayer, LocalPlayer], work=450*
 30: 0x0363 [0x45] LOAD_SCHEDULED_TASK: Load scheduler "n102" with entities [LocalPlayer, LocalPlayer], work=[450*, 0*]
 31: 0x0374 [0x5B] LOAD_EXT_SCHEDULER: Load scheduler "tlk0" with entities [Megomak (ID: 17027618/0x0103D222), Megomak (ID: 17027618/0x0103D222)], work=215*
 32: 0x0383 [0x2B] Megomak (ID: 17027618/0x0103D222) [7834*]:
    → "Yeees? What's a puny little wretch like you doing in a dangerous place like this?"
 33: 0x038A [0x23] WAIT_FOR_DIALOG_INTERACTION
 34: 0x038B [0x52] END_LOAD_SCHEDULER: End scheduler "n102" with entities [LocalPlayer, LocalPlayer], work=450*
 35: 0x039A [0x45] LOAD_SCHEDULED_TASK: Load scheduler "n103" with entities [LocalPlayer, LocalPlayer], work=[450*, 0*]
 36: 0x03AB [0x4A] Megomak (ID: 17027618/0x0103D222) looks at LocalPlayer
 37: 0x03B4 [0x4A] Unnamed NPC (ID: 17027620/0x0103D224) looks at LocalPlayer
 38: 0x03BD [0x5B] LOAD_EXT_SCHEDULER: Load scheduler "tlke" with entities [Megomak (ID: 17027618/0x0103D222), Megomak (ID: 17027618/0x0103D222)], work=215*
 39: 0x03CC [0x27] REQ_SET(priority=0x10, entity_id=LocalPlayer, tag_num=0x1E)
 40: 0x03D3 [0x1C] WAIT(150* ticks)
 41: 0x03D6 [0x27] REQ_SET(priority=0x10, entity_id=LocalPlayer, tag_num=0x1F)
 42: 0x03DD [0x52] END_LOAD_SCHEDULER: End scheduler "n103" with entities [LocalPlayer, LocalPlayer], work=450*
 43: 0x03EC [0x45] LOAD_SCHEDULED_TASK: Load scheduler "n104" with entities [LocalPlayer, LocalPlayer], work=[450*, 0*]
 44: 0x03FD [0x03] Work_Zone[2] = 1246*
 45: 0x0402 [0x2B] Megomak (ID: 17027618/0x0103D222) [7835*]:
    → "6, you say? Bwahahaha! Someone's got a nose for retro junk, I see. Mayhap your uncle was a Moblin, no?"
 46: 0x0409 [0x23] WAIT_FOR_DIALOG_INTERACTION
 47: 0x040A [0x2B] Megomak (ID: 17027618/0x0103D222) [7836*]:
    → "Anyway, you can forget it. Those things aren't easy to make, and even if they were, why should Megomak do any favors for the likes of you? Now get out of here before I use you as troll feed!"
 48: 0x0411 [0x23] WAIT_FOR_DIALOG_INTERACTION
 49: 0x0412 [0x52] END_LOAD_SCHEDULER: End scheduler "n104" with entities [LocalPlayer, LocalPlayer], work=450*
 50: 0x0421 [0x29] REQ_SET_WAIT(priority=0x10, entity_id=LocalPlayer, tag_num=0x22)
 51: 0x0428 [0x02] IF !(Work_Zone[2] == 1*) GOTO 0x0453
 52: 0x0430 [0x52] END_LOAD_SCHEDULER: End scheduler "n104" with entities [LocalPlayer, LocalPlayer], work=450*
 53: 0x043F [0x45] LOAD_SCHEDULED_TASK: Load scheduler "nhm1" with entities [LocalPlayer, LocalPlayer], work=[450*, 0*]
 54: 0x0450 [0x01] GOTO 0x0580
 55: 0x0453 [0x02] IF !(Work_Zone[2] == 2*) GOTO 0x047E
 56: 0x045B [0x52] END_LOAD_SCHEDULER: End scheduler "n104" with entities [LocalPlayer, LocalPlayer], work=450*
 57: 0x046A [0x45] LOAD_SCHEDULED_TASK: Load scheduler "nhm1" with entities [LocalPlayer, LocalPlayer], work=[450*, 0*]
 58: 0x047B [0x01] GOTO 0x0580
 59: 0x047E [0x02] IF !(Work_Zone[2] == 3*) GOTO 0x04A9
 60: 0x0486 [0x52] END_LOAD_SCHEDULER: End scheduler "n104" with entities [LocalPlayer, LocalPlayer], work=450*
 61: 0x0495 [0x45] LOAD_SCHEDULED_TASK: Load scheduler "nem1" with entities [LocalPlayer, LocalPlayer], work=[450*, 0*]
 62: 0x04A6 [0x01] GOTO 0x0580
 63: 0x04A9 [0x02] IF !(Work_Zone[2] == 4*) GOTO 0x04D4
 64: 0x04B1 [0x52] END_LOAD_SCHEDULER: End scheduler "n104" with entities [LocalPlayer, LocalPlayer], work=450*
 65: 0x04C0 [0x45] LOAD_SCHEDULED_TASK: Load scheduler "nem1" with entities [LocalPlayer, LocalPlayer], work=[450*, 0*]
 66: 0x04D1 [0x01] GOTO 0x0580
 67: 0x04D4 [0x02] IF !(Work_Zone[2] == 5*) GOTO 0x04FF
 68: 0x04DC [0x52] END_LOAD_SCHEDULER: End scheduler "n104" with entities [LocalPlayer, LocalPlayer], work=450*
 69: 0x04EB [0x45] LOAD_SCHEDULED_TASK: Load scheduler "ntr1" with entities [LocalPlayer, LocalPlayer], work=[450*, 0*]
 70: 0x04FC [0x01] GOTO 0x0580
 71: 0x04FF [0x02] IF !(Work_Zone[2] == 6*) GOTO 0x052A
 72: 0x0507 [0x52] END_LOAD_SCHEDULER: End scheduler "n104" with entities [LocalPlayer, LocalPlayer], work=450*
 73: 0x0516 [0x45] LOAD_SCHEDULED_TASK: Load scheduler "ntr1" with entities [LocalPlayer, LocalPlayer], work=[450*, 0*]
 74: 0x0527 [0x01] GOTO 0x0580
 75: 0x052A [0x02] IF !(Work_Zone[2] == 7*) GOTO 0x0555
 76: 0x0532 [0x52] END_LOAD_SCHEDULER: End scheduler "n104" with entities [LocalPlayer, LocalPlayer], work=450*
 77: 0x0541 [0x45] LOAD_SCHEDULED_TASK: Load scheduler "nmt1" with entities [LocalPlayer, LocalPlayer], work=[450*, 0*]
 78: 0x0552 [0x01] GOTO 0x0580
 79: 0x0555 [0x02] IF !(Work_Zone[2] == 8*) GOTO 0x0580
 80: 0x055D [0x52] END_LOAD_SCHEDULER: End scheduler "n104" with entities [LocalPlayer, LocalPlayer], work=450*
 81: 0x056C [0x45] LOAD_SCHEDULED_TASK: Load scheduler "ngl1" with entities [LocalPlayer, LocalPlayer], work=[450*, 0*]
 82: 0x057D [0x01] GOTO 0x0580

SUBROUTINE_0580:
 83: 0x0580 [0x03] Work_Zone[3] = 1245*
 84: 0x0585 [0x24] CREATE_DIALOG(message_id=7837*, default_option=0*, option_flags=0*)
    → "Show Megomak your $3? [Yes./No.]"
 85: 0x058C [0x25] WAIT_DIALOG_SELECT()
 86: 0x058D [0x02] IF !(Work_Zone[0] == 0*) GOTO 0x05A2
 87: 0x0595 [0x27] REQ_SET(priority=0x10, entity_id=LocalPlayer, tag_num=0x1D)
 88: 0x059C [0x1C] WAIT(180* ticks)
 89: 0x059F [0x01] GOTO 0x05BA
 90: 0x05A2 [0x02] IF !(Work_Zone[0] == 1*) GOTO 0x05BA
 91: 0x05AA [0x27] REQ_SET(priority=0x10, entity_id=Megomak (ID: 17027618/0x0103D222), tag_num=0x0D)
 92: 0x05B1 [0x1C] WAIT(30* ticks)
 93: 0x05B4 [0x01] GOTO 0x0A68

SUBROUTINE_05BA:
 94: 0x05BA [0x52] END_LOAD_SCHEDULER: End scheduler "nhm1" with entities [LocalPlayer, LocalPlayer], work=450*
 95: 0x05C9 [0x52] END_LOAD_SCHEDULER: End scheduler "nem1" with entities [LocalPlayer, LocalPlayer], work=450*
 96: 0x05D8 [0x52] END_LOAD_SCHEDULER: End scheduler "ntr1" with entities [LocalPlayer, LocalPlayer], work=450*
 97: 0x05E7 [0x52] END_LOAD_SCHEDULER: End scheduler "nmt1" with entities [LocalPlayer, LocalPlayer], work=450*
 98: 0x05F6 [0x52] END_LOAD_SCHEDULER: End scheduler "ngl1" with entities [LocalPlayer, LocalPlayer], work=450*
 99: 0x0605 [0x45] LOAD_SCHEDULED_TASK: Load scheduler "n106" with entities [LocalPlayer, LocalPlayer], work=[450*, 0*]
100: 0x0616 [0x2B] Megomak (ID: 17027618/0x0103D222) [7838*]:
    → "We seem to have a misunderstanding. I said "get lost," not "show me your junk collec--""
101: 0x061D [0x23] WAIT_FOR_DIALOG_INTERACTION
102: 0x061E [0x4B] UPDATE_ENTITY_YAW(entity=Megomak (ID: 17027618/0x0103D222), yaw=11.0°*)
103: 0x0625 [0x1C] WAIT(30* ticks)
104: 0x0628 [0x52] END_LOAD_SCHEDULER: End scheduler "n106" with entities [LocalPlayer, LocalPlayer], work=450*
105: 0x0637 [0x45] LOAD_SCHEDULED_TASK: Load scheduler "n107" with entities [LocalPlayer, LocalPlayer], work=[450*, 0*]
106: 0x0648 [0x1C] WAIT(120* ticks)
107: 0x064B [0x5B] LOAD_EXT_SCHEDULER: Load scheduler "bik0" with entities [Megomak (ID: 17027618/0x0103D222), Megomak (ID: 17027618/0x0103D222)], work=216*
108: 0x065A [0x52] END_LOAD_SCHEDULER: End scheduler "n107" with entities [LocalPlayer, LocalPlayer], work=450*
109: 0x0669 [0x45] LOAD_SCHEDULED_TASK: Load scheduler "n111" with entities [LocalPlayer, LocalPlayer], work=[450*, 0*]
110: 0x067A [0x2B] Megomak (ID: 17027618/0x0103D222) [7839*]:
    → "...Wait just a Mobby minute!"
111: 0x0681 [0x23] WAIT_FOR_DIALOG_INTERACTION
112: 0x0682 [0x2B] Megomak (ID: 17027618/0x0103D222) [7840*]:
    → "Do you have any idea what this is!?"
113: 0x0689 [0x23] WAIT_FOR_DIALOG_INTERACTION
114: 0x068A [0x5B] LOAD_EXT_SCHEDULER: Load scheduler "bik1" with entities [Megomak (ID: 17027618/0x0103D222), Megomak (ID: 17027618/0x0103D222)], work=216*
115: 0x0699 [0x03] Work_Zone[2] = 120*
116: 0x069E [0x27] REQ_SET(priority=0x10, entity_id=Unnamed NPC (ID: 17027620/0x0103D224), tag_num=0x03)
117: 0x06A5 [0x52] END_LOAD_SCHEDULER: End scheduler "n111" with entities [LocalPlayer, LocalPlayer], work=450*
118: 0x06B4 [0x45] LOAD_SCHEDULED_TASK: Load scheduler "n105" with entities [LocalPlayer, LocalPlayer], work=[450*, 0*]
119: 0x06C5 [0x2B] Megomak (ID: 17027618/0x0103D222) [7841*]:
    → "<Ahem>... Consider it your lucky day! Megomak the Magnificent, genius of geniuses, will deign to honor your request."
120: 0x06CC [0x23] WAIT_FOR_DIALOG_INTERACTION
121: 0x06CD [0x2A] GET_REQ_LEVEL(level=16, entity_id=Unnamed NPC (ID: 17027620/0x0103D224))
122: 0x06D3 [0x52] END_LOAD_SCHEDULER: End scheduler "n105" with entities [LocalPlayer, LocalPlayer], work=450*
123: 0x06E2 [0x45] LOAD_SCHEDULED_TASK: Load scheduler "n109" with entities [LocalPlayer, LocalPlayer], work=[450*, 0*]
124: 0x06F3 [0x4A] Megomak (ID: 17027618/0x0103D222) looks at LocalPlayer
125: 0x06FC [0x6F] WAIT_FRAME_DELAY: Yield until WaitTime reaches zero
126: 0x06FD [0x76] CHECK_ENTITY_RENDER_FLAGS: Wait until LocalPlayer Render.Flags0 and Render.Flags3 conditions are met
127: 0x0702 [0x5B] LOAD_EXT_SCHEDULER: Load scheduler "war0" with entities [Megomak (ID: 17027618/0x0103D222), Megomak (ID: 17027618/0x0103D222)], work=218*
128: 0x0711 [0x03] Work_Zone[3] = 1246*
129: 0x0716 [0x2B] Megomak (ID: 17027618/0x0103D222) [7842*]:
    → "...After you show due appreciation for my boundless generosity by employing your meager talents to fetch what I require, that is."
130: 0x071D [0x23] WAIT_FOR_DIALOG_INTERACTION
131: 0x071E [0x52] END_LOAD_SCHEDULER: End scheduler "n109" with entities [LocalPlayer, LocalPlayer], work=450*
132: 0x072D [0x45] LOAD_SCHEDULED_TASK: Load scheduler "n110" with entities [LocalPlayer, LocalPlayer], work=[450*, 0*]
133: 0x073E [0x03] Work_Zone[3] = 2860*
134: 0x0743 [0x03] Work_Zone[4] = 3*
135: 0x0748 [0x2B] Megomak (ID: 17027618/0x0103D222) [7843*]:
    → "$2 $0$0 . That should do the trick."
136: 0x074F [0x23] WAIT_FOR_DIALOG_INTERACTION
137: 0x0750 [0x2B] Megomak (ID: 17027618/0x0103D222) [7844*]:
    → "Hook me up with the goods, and I'll know that you're worthy of my talents. Get killed in the process, and that's one less adventurer distracting me from more...profitable endeavors. Either way, Megomak wins. Bwahahaha!"
138: 0x0757 [0x23] WAIT_FOR_DIALOG_INTERACTION
139: 0x0758 [0x29] REQ_SET_WAIT(priority=0x10, entity_id=LocalPlayer, tag_num=0x22)
140: 0x075F [0x02] IF !(Work_Zone[2] == 1*) GOTO 0x078A
141: 0x0767 [0x52] END_LOAD_SCHEDULER: End scheduler "n110" with entities [LocalPlayer, LocalPlayer], work=450*
142: 0x0776 [0x45] LOAD_SCHEDULED_TASK: Load scheduler "nhm1" with entities [LocalPlayer, LocalPlayer], work=[450*, 0*]
143: 0x0787 [0x01] GOTO 0x08B7
144: 0x078A [0x02] IF !(Work_Zone[2] == 2*) GOTO 0x07B5
145: 0x0792 [0x52] END_LOAD_SCHEDULER: End scheduler "n110" with entities [LocalPlayer, LocalPlayer], work=450*
146: 0x07A1 [0x45] LOAD_SCHEDULED_TASK: Load scheduler "nhm1" with entities [LocalPlayer, LocalPlayer], work=[450*, 0*]
147: 0x07B2 [0x01] GOTO 0x08B7
148: 0x07B5 [0x02] IF !(Work_Zone[2] == 3*) GOTO 0x07E0
149: 0x07BD [0x52] END_LOAD_SCHEDULER: End scheduler "n110" with entities [LocalPlayer, LocalPlayer], work=450*
150: 0x07CC [0x45] LOAD_SCHEDULED_TASK: Load scheduler "nem1" with entities [LocalPlayer, LocalPlayer], work=[450*, 0*]
151: 0x07DD [0x01] GOTO 0x08B7
152: 0x07E0 [0x02] IF !(Work_Zone[2] == 4*) GOTO 0x080B
153: 0x07E8 [0x52] END_LOAD_SCHEDULER: End scheduler "n110" with entities [LocalPlayer, LocalPlayer], work=450*
154: 0x07F7 [0x45] LOAD_SCHEDULED_TASK: Load scheduler "nem1" with entities [LocalPlayer, LocalPlayer], work=[450*, 0*]
155: 0x0808 [0x01] GOTO 0x08B7
156: 0x080B [0x02] IF !(Work_Zone[2] == 5*) GOTO 0x0836
157: 0x0813 [0x52] END_LOAD_SCHEDULER: End scheduler "n110" with entities [LocalPlayer, LocalPlayer], work=450*
158: 0x0822 [0x45] LOAD_SCHEDULED_TASK: Load scheduler "ntr1" with entities [LocalPlayer, LocalPlayer], work=[450*, 0*]
159: 0x0833 [0x01] GOTO 0x08B7
160: 0x0836 [0x02] IF !(Work_Zone[2] == 6*) GOTO 0x0861
161: 0x083E [0x52] END_LOAD_SCHEDULER: End scheduler "n110" with entities [LocalPlayer, LocalPlayer], work=450*
162: 0x084D [0x45] LOAD_SCHEDULED_TASK: Load scheduler "ntr1" with entities [LocalPlayer, LocalPlayer], work=[450*, 0*]
163: 0x085E [0x01] GOTO 0x08B7
164: 0x0861 [0x02] IF !(Work_Zone[2] == 7*) GOTO 0x088C
165: 0x0869 [0x52] END_LOAD_SCHEDULER: End scheduler "n110" with entities [LocalPlayer, LocalPlayer], work=450*
166: 0x0878 [0x45] LOAD_SCHEDULED_TASK: Load scheduler "nmt1" with entities [LocalPlayer, LocalPlayer], work=[450*, 0*]
167: 0x0889 [0x01] GOTO 0x08B7
168: 0x088C [0x02] IF !(Work_Zone[2] == 8*) GOTO 0x08B7
169: 0x0894 [0x52] END_LOAD_SCHEDULER: End scheduler "n110" with entities [LocalPlayer, LocalPlayer], work=450*
170: 0x08A3 [0x45] LOAD_SCHEDULED_TASK: Load scheduler "ngl1" with entities [LocalPlayer, LocalPlayer], work=[450*, 0*]
171: 0x08B4 [0x01] GOTO 0x08B7

SUBROUTINE_08B7:
172: 0x08B7 [0x27] REQ_SET(priority=0x10, entity_id=LocalPlayer, tag_num=0x1E)
173: 0x08BE [0x1C] WAIT(50* ticks)
174: 0x08C1 [0x6B] STOP_AND_IDLE: Megomak (ID: 17027618/0x0103D222) stops current action and resets to idle (animation="idl0")
175: 0x08CA [0x1C] WAIT(80* ticks)
176: 0x08CD [0xBA] SET_ENTITY_POSITION(entity_id=Unnamed NPC (ID: 17027620/0x0103D224), pos_x=272.427*, pos_z=-87.985*, pos_y=-32.000*, direction=357.9°*)
177: 0x08DA [0x1C] WAIT(10* ticks)
178: 0x08DD [0x5B] LOAD_EXT_SCHEDULER: Load scheduler "seil" with entities [Unnamed NPC (ID: 17027620/0x0103D224), Unnamed NPC (ID: 17027620/0x0103D224)], work=2635*
179: 0x08EC [0x6B] STOP_AND_IDLE: Megomak (ID: 17027618/0x0103D222) stops current action and resets to idle (animation="idl0")
180: 0x08F5 [0x1C] WAIT(10* ticks)
181: 0x08F8 [0x27] REQ_SET(priority=0x10, entity_id=LocalPlayer, tag_num=0x1F)
182: 0x08FF [0x52] END_LOAD_SCHEDULER: End scheduler "nhm1" with entities [LocalPlayer, LocalPlayer], work=450*
183: 0x090E [0x52] END_LOAD_SCHEDULER: End scheduler "nem1" with entities [LocalPlayer, LocalPlayer], work=450*
184: 0x091D [0x52] END_LOAD_SCHEDULER: End scheduler "ntr1" with entities [LocalPlayer, LocalPlayer], work=450*
185: 0x092C [0x52] END_LOAD_SCHEDULER: End scheduler "nmt1" with entities [LocalPlayer, LocalPlayer], work=450*
186: 0x093B [0x52] END_LOAD_SCHEDULER: End scheduler "ngl1" with entities [LocalPlayer, LocalPlayer], work=450*
187: 0x094A [0x45] LOAD_SCHEDULED_TASK: Load scheduler "n112" with entities [LocalPlayer, LocalPlayer], work=[450*, 0*]
188: 0x095B [0x2B] Megomak (ID: 17027618/0x0103D222) [7845*]:
    → "You can tell whoever sent you that I'll be keepin' your little gift. Consider it a down payment."
189: 0x0962 [0x23] WAIT_FOR_DIALOG_INTERACTION
190: 0x0963 [0x52] END_LOAD_SCHEDULER: End scheduler "n112" with entities [LocalPlayer, LocalPlayer], work=450*
191: 0x0972 [0x45] LOAD_SCHEDULED_TASK: Load scheduler "n113" with entities [LocalPlayer, LocalPlayer], work=[450*, 0*]
192: 0x0983 [0x5B] LOAD_EXT_SCHEDULER: Load scheduler "sei0" with entities [Unnamed NPC (ID: 17027620/0x0103D224), Unnamed NPC (ID: 17027620/0x0103D224)], work=2635*
193: 0x0992 [0x5B] LOAD_EXT_SCHEDULER: Load scheduler "sei0" with entities [Megomak (ID: 17027618/0x0103D222), Megomak (ID: 17027618/0x0103D222)], work=2644*
194: 0x09A1 [0x1C] WAIT(150* ticks)
195: 0x09A4 [0x52] END_LOAD_SCHEDULER: End scheduler "n113" with entities [LocalPlayer, LocalPlayer], work=450*
196: 0x09B3 [0x45] LOAD_SCHEDULED_TASK: Load scheduler "n114" with entities [LocalPlayer, LocalPlayer], work=[450*, 0*]
197: 0x09C4 [0x5B] LOAD_EXT_SCHEDULER: Load scheduler "sei1" with entities [Unnamed NPC (ID: 17027620/0x0103D224), Unnamed NPC (ID: 17027620/0x0103D224)], work=2635*
198: 0x09D3 [0x5B] LOAD_EXT_SCHEDULER: Load scheduler "sei1" with entities [Megomak (ID: 17027618/0x0103D222), Megomak (ID: 17027618/0x0103D222)], work=2644*
199: 0x09E2 [0x1C] WAIT(50* ticks)
200: 0x09E5 [0x03] Work_Zone[2] = 300*
201: 0x09EA [0x27] REQ_SET(priority=0x10, entity_id=Unnamed NPC (ID: 17027620/0x0103D224), tag_num=0x03)
202: 0x09F1 [0x2B] Megomak (ID: 17027618/0x0103D222) [7846*]:
    → "In return, you can have this shopping list. Here, catch!"
203: 0x09F8 [0x23] WAIT_FOR_DIALOG_INTERACTION
204: 0x09F9 [0x2A] GET_REQ_LEVEL(level=16, entity_id=Unnamed NPC (ID: 17027620/0x0103D224))
205: 0x09FF [0x52] END_LOAD_SCHEDULER: End scheduler "n114" with entities [LocalPlayer, LocalPlayer], work=450*
206: 0x0A0E [0x45] LOAD_SCHEDULED_TASK: Load scheduler "n115" with entities [LocalPlayer, LocalPlayer], work=[450*, 0*]
207: 0x0A1F [0x2B] Megomak (ID: 17027618/0x0103D222) [7847*]:
    → "Now that was a sorry display. Doesn't bode well for your chances, I'd say. So long! I won't be expecting you back."
208: 0x0A26 [0x23] WAIT_FOR_DIALOG_INTERACTION
209: 0x0A27 [0x27] REQ_SET(priority=0x10, entity_id=Megomak (ID: 17027618/0x0103D222), tag_num=0x0D)
210: 0x0A2E [0x1C] WAIT(10* ticks)
211: 0x0A31 [0x52] END_LOAD_SCHEDULER: End scheduler "n115" with entities [LocalPlayer, LocalPlayer], work=450*
212: 0x0A40 [0x45] LOAD_SCHEDULED_TASK: Load scheduler "n116" with entities [LocalPlayer, LocalPlayer], work=[450*, 0*]
213: 0x0A51 [0x1C] WAIT(60* ticks)
214: 0x0A54 [0x52] END_LOAD_SCHEDULER: End scheduler "n116" with entities [LocalPlayer, LocalPlayer], work=450*
215: 0x0A63 [0x03] Work_Zone[1] = 1*

SUBROUTINE_0A68:
216: 0x0A68 [0x5D] SET_MUSIC_VOLUME(volume=0*, fade_time=120*)
217: 0x0A6D [0x1A] CALL_SUBROUTINE(address=0x0064)
218: 0x0A70 [0x1C] WAIT(30* ticks)
219: 0x0A73 [0x59] UPDATE_ENTITY_DATA: LocalPlayer->Render.Flags0 &= ~0x200000
220: 0x0A7A [0x52] END_LOAD_SCHEDULER: End scheduler "r140" with entities [LocalPlayer, LocalPlayer], work=493*
221: 0x0A89 [0x78] ENABLE_GAME_TIMER_RESET_WEATHER()
222: 0x0A8A [0x1C] WAIT(15* ticks)
223: 0x0A8D [0xAB] EventEntity->UnknownFlag = 1 // Enable unknown flag
224: 0x0A8F [0x1C] WAIT(15* ticks)
225: 0x0A92 [0xAB] EventEntity->DespawnValue = 0* // Set despawn value
226: 0x0A96 [0x1C] WAIT(1* ticks)
227: 0x0A99 [0x5C] MUSIC_CONTROL: Set Idle (Day) music to song 0*
228: 0x0A9D [0x5C] MUSIC_CONTROL: Set Idle (Night) music to song 0*
229: 0x0AA1 [0x9A] WAIT_MUSIC_SERVER()
230: 0x0AA2 [0x46] CAMERA_CONTROL: Restore default settings
231: 0x0AA4 [0x45] LOAD_SCHEDULED_TASK: Load scheduler "fdi2" with entities [LocalPlayer, LocalPlayer], work=[200*, 0*]
232: 0x0AB5 [0x21] END_EVENT
233: 0x0AB6 [0x00] END_REQSTACK()
```

#### Data or dead code:

```
# Dead code (unreachable instructions):
     0x05B7 [0x01] GOTO 0x05BA
```

### Event 155

#### Metadata

| Field        | Value      |
|--------------|------------|
| Entrypoint   | 0x0AB7     |
| Data Size    | 1206 bytes |
| Instructions | 139        |

```
      00 01 02 03 04 05 06 07  08 09 0A 0B 0C 0D 0E 0F
      -- -- -- -- -- -- -- --  -- -- -- -- -- -- -- --
0AB0:                      42  45 00 80 F8 FF FF 7F F8         BE.......
0AC0: FF FF 7F 66 64 6F 31 01  80 55 00 80 F8 FF FF 7F  ...fdo1..U......
0AD0: F8 FF FF 7F 66 64 6F 31  46 01 38 08 80 27 10 22  ....fdo1F.8..'."
0AE0: D2 03 01 04 27 10 25 D2  03 01 02 92 01 22 D2 03  ....'.%......"..
0AF0: 01 92 01 25 D2 03 01 94  01 F0 FF FF 7F 94 01 22  ...%..........."
0B00: D2 03 01 94 01 25 D2 03  01 BA F0 FF FF 7F 09 80  .....%..........
0B10: 0A 80 0B 80 0C 80 BA 22  D2 03 01 0D 80 0E 80 0B  ......."........
0B20: 80 0F 80 BA 25 D2 03 01  3C 80 3D 80 0B 80 0F 80  ....%...<.=.....
0B30: 7B F0 FF FF 7F 7B 22 D2  03 01 7B 25 D2 03 01 80  {....{"...{%....
0B40: F0 FF FF 7F 80 22 D2 03  01 80 25 D2 03 01 5C 00  ....."....%...\.
0B50: 11 80 5C 01 11 80 9A 59  04 22 D2 03 01 12 80 1C  ..\....Y."......
0B60: 13 80 27 10 22 D2 03 01  0C 1C 13 80 45 14 80 F0  ..'.".......E...
0B70: FF FF 7F F0 FF FF 7F 6D  31 30 31 01 80 1A 43 00  .......m101...C.
0B80: 1C 30 80 29 10 F0 FF FF  7F 22 02 02 10 03 80 80  .0.)....."......
0B90: B5 0B 52 14 80 F0 FF FF  7F F0 FF FF 7F 6D 31 30  ..R..........m10
0BA0: 31 45 14 80 F0 FF FF 7F  F0 FF FF 7F 6E 68 6D 31  1E..........nhm1
0BB0: 01 80 01 E2 0C 02 02 10  05 80 80 E0 0B 52 14 80  .............R..
0BC0: F0 FF FF 7F F0 FF FF 7F  6D 31 30 31 45 14 80 F0  ........m101E...
0BD0: FF FF 7F F0 FF FF 7F 6E  68 6D 31 01 80 01 E2 0C  .......nhm1.....
0BE0: 02 02 10 1B 80 80 0B 0C  52 14 80 F0 FF FF 7F F0  ........R.......
0BF0: FF FF 7F 6D 31 30 31 45  14 80 F0 FF FF 7F F0 FF  ...m101E........
0C00: FF 7F 6E 65 6D 31 01 80  01 E2 0C 02 02 10 1C 80  ..nem1..........
0C10: 80 36 0C 52 14 80 F0 FF  FF 7F F0 FF FF 7F 6D 31  .6.R..........m1
0C20: 30 31 45 14 80 F0 FF FF  7F F0 FF FF 7F 6E 65 6D  01E..........nem
0C30: 31 01 80 01 E2 0C 02 02  10 1D 80 80 61 0C 52 14  1...........a.R.
0C40: 80 F0 FF FF 7F F0 FF FF  7F 6D 31 30 31 45 14 80  .........m101E..
0C50: F0 FF FF 7F F0 FF FF 7F  6E 74 72 31 01 80 01 E2  ........ntr1....
0C60: 0C 02 02 10 1E 80 80 8C  0C 52 14 80 F0 FF FF 7F  .........R......
0C70: F0 FF FF 7F 6D 31 30 31  45 14 80 F0 FF FF 7F F0  ....m101E.......
0C80: FF FF 7F 6E 74 72 31 01  80 01 E2 0C 02 02 10 1F  ...ntr1.........
0C90: 80 80 B7 0C 52 14 80 F0  FF FF 7F F0 FF FF 7F 6D  ....R..........m
0CA0: 31 30 31 45 14 80 F0 FF  FF 7F F0 FF FF 7F 6E 6D  101E..........nm
0CB0: 74 31 01 80 01 E2 0C 02  02 10 20 80 80 E2 0C 52  t1........ ....R
0CC0: 14 80 F0 FF FF 7F F0 FF  FF 7F 6D 31 30 31 45 14  ..........m101E.
0CD0: 80 F0 FF FF 7F F0 FF FF  7F 6E 67 6C 31 01 80 01  .........ngl1...
0CE0: E2 0C 27 10 F0 FF FF 7F  20 1C 23 80 52 14 80 F0  ..'..... .#.R...
0CF0: FF FF 7F F0 FF FF 7F 6E  68 6D 31 52 14 80 F0 FF  .......nhm1R....
0D00: FF 7F F0 FF FF 7F 6E 65  6D 31 52 14 80 F0 FF FF  ......nem1R.....
0D10: 7F F0 FF FF 7F 6E 74 72  31 52 14 80 F0 FF FF 7F  .....ntr1R......
0D20: F0 FF FF 7F 6E 6D 74 31  52 14 80 F0 FF FF 7F F0  ....nmt1R.......
0D30: FF FF 7F 6E 67 6C 31 45  14 80 F0 FF FF 7F F0 FF  ...ngl1E........
0D40: FF 7F 6D 31 30 32 01 80  5B 07 80 22 D2 03 01 22  ..m102..[.."..."
0D50: D2 03 01 74 6C 6B 30 2B  22 D2 03 01 3E 80 23 2B  ...tlk0+"...>.#+
0D60: 22 D2 03 01 3F 80 23 5B  07 80 22 D2 03 01 22 D2  "...?.#[.."...".
0D70: 03 01 74 6C 6B 65 27 10  22 D2 03 01 0D 45 00 80  ..tlke'."....E..
0D80: F0 FF FF 7F F0 FF FF 7F  66 64 6F 32 01 80 55 00  ........fdo2..U.
0D90: 80 F0 FF FF 7F F0 FF FF  7F 66 64 6F 32 52 14 80  .........fdo2R..
0DA0: F0 FF FF 7F F0 FF FF 7F  6D 31 30 32 BA 22 D2 03  ........m102."..
0DB0: 01 31 80 32 80 0B 80 10  80 4A 22 D2 03 01 F0 FF  .1.2.....J".....
0DC0: FF 7F 6C 25 D2 03 01 40  80 03 80 1C 3A 80 45 14  ..l%...@....:.E.
0DD0: 80 F0 FF FF 7F F0 FF FF  7F 6D 31 30 37 01 80 45  .........m107..E
0DE0: 00 80 F0 FF FF 7F F0 FF  FF 7F 66 64 69 32 01 80  ..........fdi2..
0DF0: 55 00 80 F0 FF FF 7F F0  FF FF 7F 66 64 69 32 2C  U..........fdi2,
0E00: 25 D2 03 01 25 D2 03 01  6F 70 65 32 1C 15 80 52  %...%...ope2...R
0E10: 14 80 F0 FF FF 7F F0 FF  FF 7F 6D 31 30 37 45 14  ..........m107E.
0E20: 80 F0 FF FF 7F F0 FF FF  7F 6D 31 30 34 01 80 03  .........m104...
0E30: 02 10 18 80 5B 07 80 22  D2 03 01 22 D2 03 01 74  ....[.."..."...t
0E40: 6C 6B 30 2B 22 D2 03 01  41 80 23 2B 22 D2 03 01  lk0+"...A.#+"...
0E50: 42 80 23 52 14 80 F0 FF  FF 7F F0 FF FF 7F 6D 31  B.#R..........m1
0E60: 30 34 45 14 80 F0 FF FF  7F F0 FF FF 7F 6D 31 30  04E..........m10
0E70: 36 01 80 2B 22 D2 03 01  43 80 23 5B 07 80 22 D2  6..+"...C.#[..".
0E80: 03 01 22 D2 03 01 74 6C  6B 65 5B 2A 80 22 D2 03  .."...tlke[*."..
0E90: 01 22 D2 03 01 77 61 72  30 1C 06 80 52 14 80 F0  ."...war0...R...
0EA0: FF FF 7F F0 FF FF 7F 6D  31 30 36 45 14 80 F0 FF  .......m106E....
0EB0: FF 7F F0 FF FF 7F 6D 31  30 35 01 80 03 02 10 15  ......m105......
0EC0: 80 27 10 25 D2 03 01 0B  2B 22 D2 03 01 44 80 23  .'.%....+"...D.#
0ED0: 2B 22 D2 03 01 45 80 23  2A 10 25 D2 03 01 52 14  +"...E.#*.%...R.
0EE0: 80 F0 FF FF 7F F0 FF FF  7F 6D 31 30 35 45 14 80  .........m105E..
0EF0: F0 FF FF 7F F0 FF FF 7F  6D 31 30 38 01 80 27 10  ........m108..'.
0F00: 22 D2 03 01 0D 2B 22 D2  03 01 46 80 1C 3A 80 5D  "....+"...F..:.]
0F10: 01 80 15 80 1A 64 00 52  14 80 F0 FF FF 7F F0 FF  .....d.R........
0F20: FF 7F 6D 31 30 38 1C 06  80 59 05 F0 FF FF 7F 00  ..m108...Y......
0F30: 52 3B 80 F0 FF FF 7F F0  FF FF 7F 72 31 34 30 78  R;.........r140x
0F40: 1C 13 80 AB 09 1C 13 80  AB 11 01 80 1C 03 80 5C  ...............\
0F50: 00 01 80 5C 01 01 80 9A  46 00 45 00 80 F0 FF FF  ...\....F.E.....
0F60: 7F F0 FF FF 7F 66 64 69  32 01 80 21 00           .....fdi2..!.   
```

#### Opcodes

```
  0: 0x0AB7 [0x42] SET_CLI_EVENT_CANCEL_DATA()
  1: 0x0AB8 [0x45] LOAD_SCHEDULED_TASK: Load scheduler "fdo1" with entities [EventEntity, EventEntity], work=[200*, 0*]
  2: 0x0AC9 [0x55] WAIT_LOAD_SCHEDULER: Wait for scheduler "fdo1" with entities [EventEntity, EventEntity], work=200*
  3: 0x0AD8 [0x46] CAMERA_CONTROL: Disable user control
  4: 0x0ADA [0x38] SET_CLIENT_EVENT_MODE(mode=19*)
  5: 0x0ADD [0x27] REQ_SET(priority=0x10, entity_id=Megomak (ID: 17027618/0x0103D222), tag_num=0x04)
  6: 0x0AE4 [0x27] REQ_SET(priority=0x10, entity_id=Unnamed NPC (ID: 17027621/0x0103D225), tag_num=0x02)
  7: 0x0AEB [0x92] Megomak (ID: 17027618/0x0103D222)->Render.Flags3 ^= 0x01
  8: 0x0AF1 [0x92] Unnamed NPC (ID: 17027621/0x0103D225)->Render.Flags3 ^= 0x01
  9: 0x0AF7 [0x94] LocalPlayer->Render.Flags3 ^= 0x01
 10: 0x0AFD [0x94] Megomak (ID: 17027618/0x0103D222)->Render.Flags3 ^= 0x01
 11: 0x0B03 [0x94] Unnamed NPC (ID: 17027621/0x0103D225)->Render.Flags3 ^= 0x01
 12: 0x0B09 [0xBA] SET_ENTITY_POSITION(entity_id=LocalPlayer, pos_x=275.689*, pos_z=-87.726*, pos_y=-32.000*, direction=178.7°*)
 13: 0x0B16 [0xBA] SET_ENTITY_POSITION(entity_id=Megomak (ID: 17027618/0x0103D222), pos_x=270.433*, pos_z=-88.078*, pos_y=-32.000*, direction=351.6°*)
 14: 0x0B23 [0xBA] SET_ENTITY_POSITION(entity_id=Unnamed NPC (ID: 17027621/0x0103D225), pos_x=274.528*, pos_z=-87.707*, pos_y=-32.000*, direction=351.6°*)
 15: 0x0B30 [0x7B] LocalPlayer stops talking
 16: 0x0B35 [0x7B] Megomak (ID: 17027618/0x0103D222) stops talking
 17: 0x0B3A [0x7B] Unnamed NPC (ID: 17027621/0x0103D225) stops talking
 18: 0x0B3F [0x80] LOAD_WAIT(entity=LocalPlayer)
 19: 0x0B44 [0x80] LOAD_WAIT(entity=Megomak (ID: 17027618/0x0103D222))
 20: 0x0B49 [0x80] LOAD_WAIT(entity=Unnamed NPC (ID: 17027621/0x0103D225))
 21: 0x0B4E [0x5C] MUSIC_CONTROL: Set Idle (Day) music to song 163*
 22: 0x0B52 [0x5C] MUSIC_CONTROL: Set Idle (Night) music to song 163*
 23: 0x0B56 [0x9A] WAIT_MUSIC_SERVER()
 24: 0x0B57 [0x59] UPDATE_ENTITY_DATA: Set Megomak (ID: 17027618/0x0103D222) main speed = 13* * 0.1
 25: 0x0B5F [0x1C] WAIT(15* ticks)
 26: 0x0B62 [0x27] REQ_SET(priority=0x10, entity_id=Megomak (ID: 17027618/0x0103D222), tag_num=0x0C)
 27: 0x0B69 [0x1C] WAIT(15* ticks)
 28: 0x0B6C [0x45] LOAD_SCHEDULED_TASK: Load scheduler "m101" with entities [LocalPlayer, LocalPlayer], work=[450*, 0*]
 29: 0x0B7D [0x1A] CALL_SUBROUTINE(address=0x0043)
 30: 0x0B80 [0x1C] WAIT(80* ticks)
 31: 0x0B83 [0x29] REQ_SET_WAIT(priority=0x10, entity_id=LocalPlayer, tag_num=0x22)
 32: 0x0B8A [0x02] IF !(Work_Zone[2] == 1*) GOTO 0x0BB5
 33: 0x0B92 [0x52] END_LOAD_SCHEDULER: End scheduler "m101" with entities [LocalPlayer, LocalPlayer], work=450*
 34: 0x0BA1 [0x45] LOAD_SCHEDULED_TASK: Load scheduler "nhm1" with entities [LocalPlayer, LocalPlayer], work=[450*, 0*]
 35: 0x0BB2 [0x01] GOTO 0x0CE2
 36: 0x0BB5 [0x02] IF !(Work_Zone[2] == 2*) GOTO 0x0BE0
 37: 0x0BBD [0x52] END_LOAD_SCHEDULER: End scheduler "m101" with entities [LocalPlayer, LocalPlayer], work=450*
 38: 0x0BCC [0x45] LOAD_SCHEDULED_TASK: Load scheduler "nhm1" with entities [LocalPlayer, LocalPlayer], work=[450*, 0*]
 39: 0x0BDD [0x01] GOTO 0x0CE2
 40: 0x0BE0 [0x02] IF !(Work_Zone[2] == 3*) GOTO 0x0C0B
 41: 0x0BE8 [0x52] END_LOAD_SCHEDULER: End scheduler "m101" with entities [LocalPlayer, LocalPlayer], work=450*
 42: 0x0BF7 [0x45] LOAD_SCHEDULED_TASK: Load scheduler "nem1" with entities [LocalPlayer, LocalPlayer], work=[450*, 0*]
 43: 0x0C08 [0x01] GOTO 0x0CE2
 44: 0x0C0B [0x02] IF !(Work_Zone[2] == 4*) GOTO 0x0C36
 45: 0x0C13 [0x52] END_LOAD_SCHEDULER: End scheduler "m101" with entities [LocalPlayer, LocalPlayer], work=450*
 46: 0x0C22 [0x45] LOAD_SCHEDULED_TASK: Load scheduler "nem1" with entities [LocalPlayer, LocalPlayer], work=[450*, 0*]
 47: 0x0C33 [0x01] GOTO 0x0CE2
 48: 0x0C36 [0x02] IF !(Work_Zone[2] == 5*) GOTO 0x0C61
 49: 0x0C3E [0x52] END_LOAD_SCHEDULER: End scheduler "m101" with entities [LocalPlayer, LocalPlayer], work=450*
 50: 0x0C4D [0x45] LOAD_SCHEDULED_TASK: Load scheduler "ntr1" with entities [LocalPlayer, LocalPlayer], work=[450*, 0*]
 51: 0x0C5E [0x01] GOTO 0x0CE2
 52: 0x0C61 [0x02] IF !(Work_Zone[2] == 6*) GOTO 0x0C8C
 53: 0x0C69 [0x52] END_LOAD_SCHEDULER: End scheduler "m101" with entities [LocalPlayer, LocalPlayer], work=450*
 54: 0x0C78 [0x45] LOAD_SCHEDULED_TASK: Load scheduler "ntr1" with entities [LocalPlayer, LocalPlayer], work=[450*, 0*]
 55: 0x0C89 [0x01] GOTO 0x0CE2
 56: 0x0C8C [0x02] IF !(Work_Zone[2] == 7*) GOTO 0x0CB7
 57: 0x0C94 [0x52] END_LOAD_SCHEDULER: End scheduler "m101" with entities [LocalPlayer, LocalPlayer], work=450*
 58: 0x0CA3 [0x45] LOAD_SCHEDULED_TASK: Load scheduler "nmt1" with entities [LocalPlayer, LocalPlayer], work=[450*, 0*]
 59: 0x0CB4 [0x01] GOTO 0x0CE2
 60: 0x0CB7 [0x02] IF !(Work_Zone[2] == 8*) GOTO 0x0CE2
 61: 0x0CBF [0x52] END_LOAD_SCHEDULER: End scheduler "m101" with entities [LocalPlayer, LocalPlayer], work=450*
 62: 0x0CCE [0x45] LOAD_SCHEDULED_TASK: Load scheduler "ngl1" with entities [LocalPlayer, LocalPlayer], work=[450*, 0*]
 63: 0x0CDF [0x01] GOTO 0x0CE2

SUBROUTINE_0CE2:
 64: 0x0CE2 [0x27] REQ_SET(priority=0x10, entity_id=LocalPlayer, tag_num=0x20)
 65: 0x0CE9 [0x1C] WAIT(180* ticks)
 66: 0x0CEC [0x52] END_LOAD_SCHEDULER: End scheduler "nhm1" with entities [LocalPlayer, LocalPlayer], work=450*
 67: 0x0CFB [0x52] END_LOAD_SCHEDULER: End scheduler "nem1" with entities [LocalPlayer, LocalPlayer], work=450*
 68: 0x0D0A [0x52] END_LOAD_SCHEDULER: End scheduler "ntr1" with entities [LocalPlayer, LocalPlayer], work=450*
 69: 0x0D19 [0x52] END_LOAD_SCHEDULER: End scheduler "nmt1" with entities [LocalPlayer, LocalPlayer], work=450*
 70: 0x0D28 [0x52] END_LOAD_SCHEDULER: End scheduler "ngl1" with entities [LocalPlayer, LocalPlayer], work=450*
 71: 0x0D37 [0x45] LOAD_SCHEDULED_TASK: Load scheduler "m102" with entities [LocalPlayer, LocalPlayer], work=[450*, 0*]
 72: 0x0D48 [0x5B] LOAD_EXT_SCHEDULER: Load scheduler "tlk0" with entities [Megomak (ID: 17027618/0x0103D222), Megomak (ID: 17027618/0x0103D222)], work=215*
 73: 0x0D57 [0x2B] Megomak (ID: 17027618/0x0103D222) [7849*]:
    → "Well, look who's back. And in one piece, too! Color ol' Megomak surprised."
 74: 0x0D5E [0x23] WAIT_FOR_DIALOG_INTERACTION
 75: 0x0D5F [0x2B] Megomak (ID: 17027618/0x0103D222) [7850*]:
    → "Bah. A genius such as I has far more pressing pursuits, but a promise is a promise."
 76: 0x0D66 [0x23] WAIT_FOR_DIALOG_INTERACTION
 77: 0x0D67 [0x5B] LOAD_EXT_SCHEDULER: Load scheduler "tlke" with entities [Megomak (ID: 17027618/0x0103D222), Megomak (ID: 17027618/0x0103D222)], work=215*
 78: 0x0D76 [0x27] REQ_SET(priority=0x10, entity_id=Megomak (ID: 17027618/0x0103D222), tag_num=0x0D)
 79: 0x0D7D [0x45] LOAD_SCHEDULED_TASK: Load scheduler "fdo2" with entities [LocalPlayer, LocalPlayer], work=[200*, 0*]
 80: 0x0D8E [0x55] WAIT_LOAD_SCHEDULER: Wait for scheduler "fdo2" with entities [LocalPlayer, LocalPlayer], work=200*
 81: 0x0D9D [0x52] END_LOAD_SCHEDULER: End scheduler "m102" with entities [LocalPlayer, LocalPlayer], work=450*
 82: 0x0DAC [0xBA] SET_ENTITY_POSITION(entity_id=Megomak (ID: 17027618/0x0103D222), pos_x=272.427*, pos_z=-87.985*, pos_y=-32.000*, direction=357.9°*)
 83: 0x0DB9 [0x4A] Megomak (ID: 17027618/0x0103D222) looks at LocalPlayer
 84: 0x0DC2 [0x6C] FADE_ENTITY_COLOR(entity_id=Unnamed NPC (ID: 17027621/0x0103D225), end_alpha=128*, fade_time=1*)
 85: 0x0DCB [0x1C] WAIT(60* ticks)
 86: 0x0DCE [0x45] LOAD_SCHEDULED_TASK: Load scheduler "m107" with entities [LocalPlayer, LocalPlayer], work=[450*, 0*]
 87: 0x0DDF [0x45] LOAD_SCHEDULED_TASK: Load scheduler "fdi2" with entities [LocalPlayer, LocalPlayer], work=[200*, 0*]
 88: 0x0DF0 [0x55] WAIT_LOAD_SCHEDULER: Wait for scheduler "fdi2" with entities [LocalPlayer, LocalPlayer], work=200*
 89: 0x0DFF [0x2C] CREATE_SCHEDULER_TASK: Create scheduler "ope2" with entities [Unnamed NPC (ID: 17027621/0x0103D225), Unnamed NPC (ID: 17027621/0x0103D225)]
 90: 0x0E0C [0x1C] WAIT(120* ticks)
 91: 0x0E0F [0x52] END_LOAD_SCHEDULER: End scheduler "m107" with entities [LocalPlayer, LocalPlayer], work=450*
 92: 0x0E1E [0x45] LOAD_SCHEDULED_TASK: Load scheduler "m104" with entities [LocalPlayer, LocalPlayer], work=[450*, 0*]
 93: 0x0E2F [0x03] Work_Zone[2] = 1246*
 94: 0x0E34 [0x5B] LOAD_EXT_SCHEDULER: Load scheduler "tlk0" with entities [Megomak (ID: 17027618/0x0103D222), Megomak (ID: 17027618/0x0103D222)], work=215*
 95: 0x0E43 [0x2B] Megomak (ID: 17027618/0x0103D222) [7851*]:
    → "Voila! Go on, admire the craftsmanship! No one makes $5 like Megomak, that's for certain."
 96: 0x0E4A [0x23] WAIT_FOR_DIALOG_INTERACTION
 97: 0x0E4B [0x2B] Megomak (ID: 17027618/0x0103D222) [7853*]:
    → "That means you can only use it once, so you'd better make it count."
 98: 0x0E52 [0x23] WAIT_FOR_DIALOG_INTERACTION
 99: 0x0E53 [0x52] END_LOAD_SCHEDULER: End scheduler "m104" with entities [LocalPlayer, LocalPlayer], work=450*
100: 0x0E62 [0x45] LOAD_SCHEDULED_TASK: Load scheduler "m106" with entities [LocalPlayer, LocalPlayer], work=[450*, 0*]
101: 0x0E73 [0x2B] Megomak (ID: 17027618/0x0103D222) [7852*]:
    → "I don't know what you're going to use it for, and I don't wanna know. But remember this: as potent a charge as this baby can carry, it exhausts its energy just as quick."
102: 0x0E7A [0x23] WAIT_FOR_DIALOG_INTERACTION
103: 0x0E7B [0x5B] LOAD_EXT_SCHEDULER: Load scheduler "tlke" with entities [Megomak (ID: 17027618/0x0103D222), Megomak (ID: 17027618/0x0103D222)], work=215*
104: 0x0E8A [0x5B] LOAD_EXT_SCHEDULER: Load scheduler "war0" with entities [Megomak (ID: 17027618/0x0103D222), Megomak (ID: 17027618/0x0103D222)], work=218*
105: 0x0E99 [0x1C] WAIT(30* ticks)
106: 0x0E9C [0x52] END_LOAD_SCHEDULER: End scheduler "m106" with entities [LocalPlayer, LocalPlayer], work=450*
107: 0x0EAB [0x45] LOAD_SCHEDULED_TASK: Load scheduler "m105" with entities [LocalPlayer, LocalPlayer], work=[450*, 0*]
108: 0x0EBC [0x03] Work_Zone[2] = 120*
109: 0x0EC1 [0x27] REQ_SET(priority=0x10, entity_id=Unnamed NPC (ID: 17027621/0x0103D225), tag_num=0x0B)
110: 0x0EC8 [0x2B] Megomak (ID: 17027618/0x0103D222) [7854*]:
    → "And it's all yours. Transaction complete! No replacements, no refunds."
111: 0x0ECF [0x23] WAIT_FOR_DIALOG_INTERACTION
112: 0x0ED0 [0x2B] Megomak (ID: 17027618/0x0103D222) [7855*]:
    → "In other words, don't even think of running back to me if it blows up in your face. Now, if you'll excuse me, I have some real work to do."
113: 0x0ED7 [0x23] WAIT_FOR_DIALOG_INTERACTION
114: 0x0ED8 [0x2A] GET_REQ_LEVEL(level=16, entity_id=Unnamed NPC (ID: 17027621/0x0103D225))
115: 0x0EDE [0x52] END_LOAD_SCHEDULER: End scheduler "m105" with entities [LocalPlayer, LocalPlayer], work=450*
116: 0x0EED [0x45] LOAD_SCHEDULED_TASK: Load scheduler "m108" with entities [LocalPlayer, LocalPlayer], work=[450*, 0*]
117: 0x0EFE [0x27] REQ_SET(priority=0x10, entity_id=Megomak (ID: 17027618/0x0103D222), tag_num=0x0D)
118: 0x0F05 [0x2B] Megomak (ID: 17027618/0x0103D222) [7856*]:
    → "(Don't fret, my dearest Khimmy... Daddy's on his way!)"
119: 0x0F0C [0x1C] WAIT(60* ticks)
120: 0x0F0F [0x5D] SET_MUSIC_VOLUME(volume=0*, fade_time=120*)
121: 0x0F14 [0x1A] CALL_SUBROUTINE(address=0x0064)
122: 0x0F17 [0x52] END_LOAD_SCHEDULER: End scheduler "m108" with entities [LocalPlayer, LocalPlayer], work=450*
123: 0x0F26 [0x1C] WAIT(30* ticks)
124: 0x0F29 [0x59] UPDATE_ENTITY_DATA: LocalPlayer->Render.Flags0 &= ~0x200000
125: 0x0F30 [0x52] END_LOAD_SCHEDULER: End scheduler "r140" with entities [LocalPlayer, LocalPlayer], work=493*
126: 0x0F3F [0x78] ENABLE_GAME_TIMER_RESET_WEATHER()
127: 0x0F40 [0x1C] WAIT(15* ticks)
128: 0x0F43 [0xAB] EventEntity->UnknownFlag = 1 // Enable unknown flag
129: 0x0F45 [0x1C] WAIT(15* ticks)
130: 0x0F48 [0xAB] EventEntity->DespawnValue = 0* // Set despawn value
131: 0x0F4C [0x1C] WAIT(1* ticks)
132: 0x0F4F [0x5C] MUSIC_CONTROL: Set Idle (Day) music to song 0*
133: 0x0F53 [0x5C] MUSIC_CONTROL: Set Idle (Night) music to song 0*
134: 0x0F57 [0x9A] WAIT_MUSIC_SERVER()
135: 0x0F58 [0x46] CAMERA_CONTROL: Restore default settings
136: 0x0F5A [0x45] LOAD_SCHEDULED_TASK: Load scheduler "fdi2" with entities [LocalPlayer, LocalPlayer], work=[200*, 0*]
137: 0x0F6B [0x21] END_EVENT
138: 0x0F6C [0x00] END_REQSTACK()
```

### Event 156

#### Metadata

| Field        | Value      |
|--------------|------------|
| Entrypoint   | 0x0F6D     |
| Data Size    | 2107 bytes |
| Instructions | 230        |

```
      00 01 02 03 04 05 06 07  08 09 0A 0B 0C 0D 0E 0F
      -- -- -- -- -- -- -- --  -- -- -- -- -- -- -- --
0F60:                                         42 45 00               BE.
0F70: 80 F8 FF FF 7F F8 FF FF  7F 66 64 6F 31 01 80 55  .........fdo1..U
0F80: 00 80 F8 FF FF 7F F8 FF  FF 7F 66 64 6F 31 46 01  ..........fdo1F.
0F90: 38 08 80 27 10 22 D2 03  01 04 27 10 25 D2 03 01  8..'."....'.%...
0FA0: 02 92 01 25 D2 03 01 92  01 22 D2 03 01 94 01 F0  ...%....."......
0FB0: FF FF 7F 94 01 22 D2 03  01 94 01 25 D2 03 01 BA  .....".....%....
0FC0: F0 FF FF 7F 09 80 0A 80  0B 80 0C 80 BA 22 D2 03  ............."..
0FD0: 01 0D 80 0E 80 0B 80 0F  80 BA 25 D2 03 01 3C 80  ..........%...<.
0FE0: 3D 80 0B 80 0F 80 7B F0  FF FF 7F 7B 22 D2 03 01  =.....{....{"...
0FF0: 7B 25 D2 03 01 80 F0 FF  FF 7F 80 22 D2 03 01 80  {%........."....
1000: 25 D2 03 01 59 04 22 D2  03 01 12 80 1C 13 80 5C  %...Y."........\
1010: 00 11 80 5C 01 11 80 9A  27 10 22 D2 03 01 0C 1C  ...\....'.".....
1020: 13 80 9A 45 47 80 F0 FF  FF 7F F0 FF FF 7F 6D 31  ...EG.........m1
1030: 35 31 01 80 1A 43 00 1C  17 80 29 10 F0 FF FF 7F  51...C....).....
1040: 22 02 02 10 03 80 80 6C  10 52 47 80 F0 FF FF 7F  "......l.RG.....
1050: F0 FF FF 7F 6D 31 35 31  45 14 80 F0 FF FF 7F F0  ....m151E.......
1060: FF FF 7F 6E 68 6D 31 01  80 01 99 11 02 02 10 05  ...nhm1.........
1070: 80 80 97 10 52 47 80 F0  FF FF 7F F0 FF FF 7F 6D  ....RG.........m
1080: 31 35 31 45 14 80 F0 FF  FF 7F F0 FF FF 7F 6E 68  151E..........nh
1090: 6D 31 01 80 01 99 11 02  02 10 1B 80 80 C2 10 52  m1.............R
10A0: 47 80 F0 FF FF 7F F0 FF  FF 7F 6D 31 35 31 45 14  G.........m151E.
10B0: 80 F0 FF FF 7F F0 FF FF  7F 6E 65 6D 31 01 80 01  .........nem1...
10C0: 99 11 02 02 10 1C 80 80  ED 10 52 47 80 F0 FF FF  ..........RG....
10D0: 7F F0 FF FF 7F 6D 31 35  31 45 14 80 F0 FF FF 7F  .....m151E......
10E0: F0 FF FF 7F 6E 65 6D 31  01 80 01 99 11 02 02 10  ....nem1........
10F0: 1D 80 80 18 11 52 47 80  F0 FF FF 7F F0 FF FF 7F  .....RG.........
1100: 6D 31 35 31 45 14 80 F0  FF FF 7F F0 FF FF 7F 6E  m151E..........n
1110: 74 72 31 01 80 01 99 11  02 02 10 1E 80 80 43 11  tr1...........C.
1120: 52 47 80 F0 FF FF 7F F0  FF FF 7F 6D 31 35 31 45  RG.........m151E
1130: 14 80 F0 FF FF 7F F0 FF  FF 7F 6E 74 72 31 01 80  ..........ntr1..
1140: 01 99 11 02 02 10 1F 80  80 6E 11 52 47 80 F0 FF  .........n.RG...
1150: FF 7F F0 FF FF 7F 6D 31  35 31 45 14 80 F0 FF FF  ......m151E.....
1160: 7F F0 FF FF 7F 6E 6D 74  31 01 80 01 99 11 02 02  .....nmt1.......
1170: 10 20 80 80 99 11 52 47  80 F0 FF FF 7F F0 FF FF  . ....RG........
1180: 7F 6D 31 35 31 45 14 80  F0 FF FF 7F F0 FF FF 7F  .m151E..........
1190: 6E 67 6C 31 01 80 01 99  11 27 10 F0 FF FF 7F 20  ngl1.....'..... 
11A0: 1C 23 80 52 14 80 F0 FF  FF 7F F0 FF FF 7F 6E 68  .#.R..........nh
11B0: 6D 31 52 14 80 F0 FF FF  7F F0 FF FF 7F 6E 65 6D  m1R..........nem
11C0: 31 52 14 80 F0 FF FF 7F  F0 FF FF 7F 6E 74 72 31  1R..........ntr1
11D0: 52 14 80 F0 FF FF 7F F0  FF FF 7F 6E 6D 74 31 52  R..........nmt1R
11E0: 14 80 F0 FF FF 7F F0 FF  FF 7F 6E 67 6C 31 45 47  ..........ngl1EG
11F0: 80 F0 FF FF 7F F0 FF FF  7F 6D 31 35 32 01 80 5B  .........m152..[
1200: 07 80 22 D2 03 01 22 D2  03 01 74 6C 6B 30 03 02  .."..."...tlk0..
1210: 10 18 80 2B 22 D2 03 01  48 80 23 27 10 22 D2 03  ...+"...H.#'."..
1220: 01 0D 1C 33 80 45 00 80  F0 FF FF 7F F0 FF FF 7F  ...3.E..........
1230: 66 64 6F 32 01 80 55 00  80 F0 FF FF 7F F0 FF FF  fdo2..U.........
1240: 7F 66 64 6F 32 52 47 80  F0 FF FF 7F F0 FF FF 7F  .fdo2RG.........
1250: 6D 31 35 32 7A 00 22 D2  03 01 27 10 22 D2 03 01  m152z."...'."...
1260: 0C 6C 25 D2 03 01 40 80  03 80 1C 15 80 45 47 80  .l%...@......EG.
1270: F0 FF FF 7F F0 FF FF 7F  6D 31 35 38 01 80 45 00  ........m158..E.
1280: 80 F0 FF FF 7F F0 FF FF  7F 66 64 69 32 01 80 55  .........fdi2..U
1290: 00 80 F0 FF FF 7F F0 FF  FF 7F 66 64 69 32 2C 25  ..........fdi2,%
12A0: D2 03 01 25 D2 03 01 6F  70 65 32 1C 30 80 5B 2A  ...%...ope2.0.[*
12B0: 80 22 D2 03 01 22 D2 03  01 77 61 72 30 52 47 80  ."..."...war0RG.
12C0: F0 FF FF 7F F0 FF FF 7F  6D 31 35 38 45 14 80 F0  ........m158E...
12D0: FF FF 7F F0 FF FF 7F 6D  31 30 35 01 80 2B 22 D2  .......m105..+".
12E0: 03 01 49 80 23 2B 22 D2  03 01 4A 80 23 24 4B 80  ..I.#+"...J.#$K.
12F0: 01 80 01 80 25 02 00 10  01 80 00 C5 14 29 10 F0  ....%........)..
1300: FF FF 7F 22 02 02 10 03  80 80 2F 13 52 47 80 F0  ..."....../.RG..
1310: FF FF 7F F0 FF FF 7F 6D  31 30 35 45 14 80 F0 FF  .......m105E....
1320: FF 7F F0 FF FF 7F 6E 68  6D 31 01 80 01 5C 14 02  ......nhm1...\..
1330: 02 10 05 80 80 5A 13 52  47 80 F0 FF FF 7F F0 FF  .....Z.RG.......
1340: FF 7F 6D 31 30 35 45 14  80 F0 FF FF 7F F0 FF FF  ..m105E.........
1350: 7F 6E 68 6D 31 01 80 01  5C 14 02 02 10 1B 80 80  .nhm1...\.......
1360: 85 13 52 47 80 F0 FF FF  7F F0 FF FF 7F 6D 31 30  ..RG.........m10
1370: 35 45 14 80 F0 FF FF 7F  F0 FF FF 7F 6E 65 6D 31  5E..........nem1
1380: 01 80 01 5C 14 02 02 10  1C 80 80 B0 13 52 47 80  ...\.........RG.
1390: F0 FF FF 7F F0 FF FF 7F  6D 31 30 35 45 14 80 F0  ........m105E...
13A0: FF FF 7F F0 FF FF 7F 6E  65 6D 31 01 80 01 5C 14  .......nem1...\.
13B0: 02 02 10 1D 80 80 DB 13  52 47 80 F0 FF FF 7F F0  ........RG......
13C0: FF FF 7F 6D 31 30 35 45  14 80 F0 FF FF 7F F0 FF  ...m105E........
13D0: FF 7F 6E 74 72 31 01 80  01 5C 14 02 02 10 1E 80  ..ntr1...\......
13E0: 80 06 14 52 47 80 F0 FF  FF 7F F0 FF FF 7F 6D 31  ...RG.........m1
13F0: 30 35 45 14 80 F0 FF FF  7F F0 FF FF 7F 6E 74 72  05E..........ntr
1400: 31 01 80 01 5C 14 02 02  10 1F 80 80 31 14 52 47  1...\.......1.RG
1410: 80 F0 FF FF 7F F0 FF FF  7F 6D 31 30 35 45 14 80  .........m105E..
1420: F0 FF FF 7F F0 FF FF 7F  6E 6D 74 31 01 80 01 5C  ........nmt1...\
1430: 14 02 02 10 20 80 80 5C  14 52 47 80 F0 FF FF 7F  .... ..\.RG.....
1440: F0 FF FF 7F 6D 31 30 35  45 14 80 F0 FF FF 7F F0  ....m105E.......
1450: FF FF 7F 6E 67 6C 31 01  80 01 5C 14 6E F0 FF FF  ...ngl1...\.n...
1460: 7F 1F 80 99 F0 FF FF 7F  1C 33 80 6B 69 64 6C 30  .........3.kidl0
1470: 22 D2 03 01 1C 4C 80 52  14 80 F0 FF FF 7F F0 FF  "....L.R........
1480: FF 7F 6E 68 6D 31 52 14  80 F0 FF FF 7F F0 FF FF  ..nhm1R.........
1490: 7F 6E 65 6D 31 52 14 80  F0 FF FF 7F F0 FF FF 7F  .nem1R..........
14A0: 6E 74 72 31 52 14 80 F0  FF FF 7F F0 FF FF 7F 6E  ntr1R..........n
14B0: 6D 74 31 52 14 80 F0 FF  FF 7F F0 FF FF 7F 6E 67  mt1R..........ng
14C0: 6C 31 01 C5 16 02 00 10  03 80 00 C5 16 29 10 F0  l1...........)..
14D0: FF FF 7F 22 02 02 10 03  80 80 FF 14 52 47 80 F0  ..."........RG..
14E0: FF FF 7F F0 FF FF 7F 6D  31 35 33 45 14 80 F0 FF  .......m153E....
14F0: FF 7F F0 FF FF 7F 6E 68  6D 31 01 80 01 2C 16 02  ......nhm1...,..
1500: 02 10 05 80 80 2A 15 52  47 80 F0 FF FF 7F F0 FF  .....*.RG.......
1510: FF 7F 6D 31 35 33 45 14  80 F0 FF FF 7F F0 FF FF  ..m153E.........
1520: 7F 6E 68 6D 31 01 80 01  2C 16 02 02 10 1B 80 80  .nhm1...,.......
1530: 55 15 52 47 80 F0 FF FF  7F F0 FF FF 7F 6D 31 35  U.RG.........m15
1540: 33 45 14 80 F0 FF FF 7F  F0 FF FF 7F 6E 65 6D 31  3E..........nem1
1550: 01 80 01 2C 16 02 02 10  1C 80 80 80 15 52 47 80  ...,.........RG.
1560: F0 FF FF 7F F0 FF FF 7F  6D 31 35 33 45 14 80 F0  ........m153E...
1570: FF FF 7F F0 FF FF 7F 6E  65 6D 31 01 80 01 2C 16  .......nem1...,.
1580: 02 02 10 1D 80 80 AB 15  52 47 80 F0 FF FF 7F F0  ........RG......
1590: FF FF 7F 6D 31 35 33 45  14 80 F0 FF FF 7F F0 FF  ...m153E........
15A0: FF 7F 6E 74 72 31 01 80  01 2C 16 02 02 10 1E 80  ..ntr1...,......
15B0: 80 D6 15 52 47 80 F0 FF  FF 7F F0 FF FF 7F 6D 31  ...RG.........m1
15C0: 35 33 45 14 80 F0 FF FF  7F F0 FF FF 7F 6E 74 72  53E..........ntr
15D0: 31 01 80 01 2C 16 02 02  10 1F 80 80 01 16 52 47  1...,.........RG
15E0: 80 F0 FF FF 7F F0 FF FF  7F 6D 31 35 33 45 14 80  .........m153E..
15F0: F0 FF FF 7F F0 FF FF 7F  6E 6D 74 31 01 80 01 2C  ........nmt1...,
1600: 16 02 02 10 20 80 80 2C  16 52 47 80 F0 FF FF 7F  .... ..,.RG.....
1610: F0 FF FF 7F 6D 31 35 33  45 14 80 F0 FF FF 7F F0  ....m153E.......
1620: FF FF 7F 6E 67 6C 31 01  80 01 2C 16 6E F0 FF FF  ...ngl1...,.n...
1630: 7F 4D 80 99 F0 FF FF 7F  1C 33 80 6B 69 64 6C 30  .M.......3.kidl0
1640: 22 D2 03 01 1C 4C 80 52  14 80 F0 FF FF 7F F0 FF  "....L.R........
1650: FF 7F 6E 68 6D 31 52 14  80 F0 FF FF 7F F0 FF FF  ..nhm1R.........
1660: 7F 6E 65 6D 31 52 14 80  F0 FF FF 7F F0 FF FF 7F  .nem1R..........
1670: 6E 74 72 31 52 14 80 F0  FF FF 7F F0 FF FF 7F 6E  ntr1R..........n
1680: 6D 74 31 52 14 80 F0 FF  FF 7F F0 FF FF 7F 6E 67  mt1R..........ng
1690: 6C 31 45 47 80 F0 FF FF  7F F0 FF FF 7F 6D 31 35  l1EG.........m15
16A0: 34 01 80 2B 22 D2 03 01  4E 80 23 2B 22 D2 03 01  4..+"...N.#+"...
16B0: 4F 80 23 52 47 80 F0 FF  FF 7F F0 FF FF 7F 6D 31  O.#RG.........m1
16C0: 35 34 01 C5 16 45 47 80  F0 FF FF 7F F0 FF FF 7F  54...EG.........
16D0: 6D 31 35 35 01 80 5B 07  80 22 D2 03 01 22 D2 03  m155..[.."..."..
16E0: 01 74 6C 6B 30 2B 22 D2  03 01 50 80 23 5B 07 80  .tlk0+"...P.#[..
16F0: 22 D2 03 01 22 D2 03 01  74 6C 6B 65 52 47 80 F0  "..."...tlkeRG..
1700: FF FF 7F F0 FF FF 7F 6D  31 35 35 45 47 80 F0 FF  .......m155EG...
1710: FF 7F F0 FF FF 7F 6D 31  35 36 01 80 2B 22 D2 03  ......m156..+"..
1720: 01 51 80 23 2B 22 D2 03  01 52 80 23 27 10 22 D2  .Q.#+"...R.#'.".
1730: 03 01 0D 1C 33 80 52 47  80 F0 FF FF 7F F0 FF FF  ....3.RG........
1740: 7F 6D 31 35 36 45 47 80  F0 FF FF 7F F0 FF FF 7F  .m156EG.........
1750: 6D 31 35 37 01 80 1C 15  80 5D 01 80 15 80 1A 64  m157.....].....d
1760: 00 1C 06 80 59 05 F0 FF  FF 7F 00 52 47 80 F0 FF  ....Y......RG...
1770: FF 7F F0 FF FF 7F 6D 31  35 37 78 1C 13 80 AB 09  ......m157x.....
1780: 1C 13 80 AB 11 01 80 1C  03 80 5C 00 01 80 5C 01  ..........\...\.
1790: 01 80 9A 46 00 45 00 80  F0 FF FF 7F F0 FF FF 7F  ...F.E..........
17A0: 66 64 69 32 01 80 21 00                           fdi2..!.        
```

#### Opcodes

```
  0: 0x0F6D [0x42] SET_CLI_EVENT_CANCEL_DATA()
  1: 0x0F6E [0x45] LOAD_SCHEDULED_TASK: Load scheduler "fdo1" with entities [EventEntity, EventEntity], work=[200*, 0*]
  2: 0x0F7F [0x55] WAIT_LOAD_SCHEDULER: Wait for scheduler "fdo1" with entities [EventEntity, EventEntity], work=200*
  3: 0x0F8E [0x46] CAMERA_CONTROL: Disable user control
  4: 0x0F90 [0x38] SET_CLIENT_EVENT_MODE(mode=19*)
  5: 0x0F93 [0x27] REQ_SET(priority=0x10, entity_id=Megomak (ID: 17027618/0x0103D222), tag_num=0x04)
  6: 0x0F9A [0x27] REQ_SET(priority=0x10, entity_id=Unnamed NPC (ID: 17027621/0x0103D225), tag_num=0x02)
  7: 0x0FA1 [0x92] Unnamed NPC (ID: 17027621/0x0103D225)->Render.Flags3 ^= 0x01
  8: 0x0FA7 [0x92] Megomak (ID: 17027618/0x0103D222)->Render.Flags3 ^= 0x01
  9: 0x0FAD [0x94] LocalPlayer->Render.Flags3 ^= 0x01
 10: 0x0FB3 [0x94] Megomak (ID: 17027618/0x0103D222)->Render.Flags3 ^= 0x01
 11: 0x0FB9 [0x94] Unnamed NPC (ID: 17027621/0x0103D225)->Render.Flags3 ^= 0x01
 12: 0x0FBF [0xBA] SET_ENTITY_POSITION(entity_id=LocalPlayer, pos_x=275.689*, pos_z=-87.726*, pos_y=-32.000*, direction=178.7°*)
 13: 0x0FCC [0xBA] SET_ENTITY_POSITION(entity_id=Megomak (ID: 17027618/0x0103D222), pos_x=270.433*, pos_z=-88.078*, pos_y=-32.000*, direction=351.6°*)
 14: 0x0FD9 [0xBA] SET_ENTITY_POSITION(entity_id=Unnamed NPC (ID: 17027621/0x0103D225), pos_x=274.528*, pos_z=-87.707*, pos_y=-32.000*, direction=351.6°*)
 15: 0x0FE6 [0x7B] LocalPlayer stops talking
 16: 0x0FEB [0x7B] Megomak (ID: 17027618/0x0103D222) stops talking
 17: 0x0FF0 [0x7B] Unnamed NPC (ID: 17027621/0x0103D225) stops talking
 18: 0x0FF5 [0x80] LOAD_WAIT(entity=LocalPlayer)
 19: 0x0FFA [0x80] LOAD_WAIT(entity=Megomak (ID: 17027618/0x0103D222))
 20: 0x0FFF [0x80] LOAD_WAIT(entity=Unnamed NPC (ID: 17027621/0x0103D225))
 21: 0x1004 [0x59] UPDATE_ENTITY_DATA: Set Megomak (ID: 17027618/0x0103D222) main speed = 13* * 0.1
 22: 0x100C [0x1C] WAIT(15* ticks)
 23: 0x100F [0x5C] MUSIC_CONTROL: Set Idle (Day) music to song 163*
 24: 0x1013 [0x5C] MUSIC_CONTROL: Set Idle (Night) music to song 163*
 25: 0x1017 [0x9A] WAIT_MUSIC_SERVER()
 26: 0x1018 [0x27] REQ_SET(priority=0x10, entity_id=Megomak (ID: 17027618/0x0103D222), tag_num=0x0C)
 27: 0x101F [0x1C] WAIT(15* ticks)
 28: 0x1022 [0x9A] WAIT_MUSIC_SERVER()
 29: 0x1023 [0x45] LOAD_SCHEDULED_TASK: Load scheduler "m151" with entities [LocalPlayer, LocalPlayer], work=[495*, 0*]
 30: 0x1034 [0x1A] CALL_SUBROUTINE(address=0x0043)
 31: 0x1037 [0x1C] WAIT(150* ticks)
 32: 0x103A [0x29] REQ_SET_WAIT(priority=0x10, entity_id=LocalPlayer, tag_num=0x22)
 33: 0x1041 [0x02] IF !(Work_Zone[2] == 1*) GOTO 0x106C
 34: 0x1049 [0x52] END_LOAD_SCHEDULER: End scheduler "m151" with entities [LocalPlayer, LocalPlayer], work=495*
 35: 0x1058 [0x45] LOAD_SCHEDULED_TASK: Load scheduler "nhm1" with entities [LocalPlayer, LocalPlayer], work=[450*, 0*]
 36: 0x1069 [0x01] GOTO 0x1199
 37: 0x106C [0x02] IF !(Work_Zone[2] == 2*) GOTO 0x1097
 38: 0x1074 [0x52] END_LOAD_SCHEDULER: End scheduler "m151" with entities [LocalPlayer, LocalPlayer], work=495*
 39: 0x1083 [0x45] LOAD_SCHEDULED_TASK: Load scheduler "nhm1" with entities [LocalPlayer, LocalPlayer], work=[450*, 0*]
 40: 0x1094 [0x01] GOTO 0x1199
 41: 0x1097 [0x02] IF !(Work_Zone[2] == 3*) GOTO 0x10C2
 42: 0x109F [0x52] END_LOAD_SCHEDULER: End scheduler "m151" with entities [LocalPlayer, LocalPlayer], work=495*
 43: 0x10AE [0x45] LOAD_SCHEDULED_TASK: Load scheduler "nem1" with entities [LocalPlayer, LocalPlayer], work=[450*, 0*]
 44: 0x10BF [0x01] GOTO 0x1199
 45: 0x10C2 [0x02] IF !(Work_Zone[2] == 4*) GOTO 0x10ED
 46: 0x10CA [0x52] END_LOAD_SCHEDULER: End scheduler "m151" with entities [LocalPlayer, LocalPlayer], work=495*
 47: 0x10D9 [0x45] LOAD_SCHEDULED_TASK: Load scheduler "nem1" with entities [LocalPlayer, LocalPlayer], work=[450*, 0*]
 48: 0x10EA [0x01] GOTO 0x1199
 49: 0x10ED [0x02] IF !(Work_Zone[2] == 5*) GOTO 0x1118
 50: 0x10F5 [0x52] END_LOAD_SCHEDULER: End scheduler "m151" with entities [LocalPlayer, LocalPlayer], work=495*
 51: 0x1104 [0x45] LOAD_SCHEDULED_TASK: Load scheduler "ntr1" with entities [LocalPlayer, LocalPlayer], work=[450*, 0*]
 52: 0x1115 [0x01] GOTO 0x1199
 53: 0x1118 [0x02] IF !(Work_Zone[2] == 6*) GOTO 0x1143
 54: 0x1120 [0x52] END_LOAD_SCHEDULER: End scheduler "m151" with entities [LocalPlayer, LocalPlayer], work=495*
 55: 0x112F [0x45] LOAD_SCHEDULED_TASK: Load scheduler "ntr1" with entities [LocalPlayer, LocalPlayer], work=[450*, 0*]
 56: 0x1140 [0x01] GOTO 0x1199
 57: 0x1143 [0x02] IF !(Work_Zone[2] == 7*) GOTO 0x116E
 58: 0x114B [0x52] END_LOAD_SCHEDULER: End scheduler "m151" with entities [LocalPlayer, LocalPlayer], work=495*
 59: 0x115A [0x45] LOAD_SCHEDULED_TASK: Load scheduler "nmt1" with entities [LocalPlayer, LocalPlayer], work=[450*, 0*]
 60: 0x116B [0x01] GOTO 0x1199
 61: 0x116E [0x02] IF !(Work_Zone[2] == 8*) GOTO 0x1199
 62: 0x1176 [0x52] END_LOAD_SCHEDULER: End scheduler "m151" with entities [LocalPlayer, LocalPlayer], work=495*
 63: 0x1185 [0x45] LOAD_SCHEDULED_TASK: Load scheduler "ngl1" with entities [LocalPlayer, LocalPlayer], work=[450*, 0*]
 64: 0x1196 [0x01] GOTO 0x1199

SUBROUTINE_1199:
 65: 0x1199 [0x27] REQ_SET(priority=0x10, entity_id=LocalPlayer, tag_num=0x20)
 66: 0x11A0 [0x1C] WAIT(180* ticks)
 67: 0x11A3 [0x52] END_LOAD_SCHEDULER: End scheduler "nhm1" with entities [LocalPlayer, LocalPlayer], work=450*
 68: 0x11B2 [0x52] END_LOAD_SCHEDULER: End scheduler "nem1" with entities [LocalPlayer, LocalPlayer], work=450*
 69: 0x11C1 [0x52] END_LOAD_SCHEDULER: End scheduler "ntr1" with entities [LocalPlayer, LocalPlayer], work=450*
 70: 0x11D0 [0x52] END_LOAD_SCHEDULER: End scheduler "nmt1" with entities [LocalPlayer, LocalPlayer], work=450*
 71: 0x11DF [0x52] END_LOAD_SCHEDULER: End scheduler "ngl1" with entities [LocalPlayer, LocalPlayer], work=450*
 72: 0x11EE [0x45] LOAD_SCHEDULED_TASK: Load scheduler "m152" with entities [LocalPlayer, LocalPlayer], work=[495*, 0*]
 73: 0x11FF [0x5B] LOAD_EXT_SCHEDULER: Load scheduler "tlk0" with entities [Megomak (ID: 17027618/0x0103D222), Megomak (ID: 17027618/0x0103D222)], work=215*
 74: 0x120E [0x03] Work_Zone[2] = 1246*
 75: 0x1213 [0x2B] Megomak (ID: 17027618/0x0103D222) [7866*]:
    → "Oh drat, you're back. I was hoping you'd fall in a crater or something so I could have some peace and quiet for once."
 76: 0x121A [0x23] WAIT_FOR_DIALOG_INTERACTION
 77: 0x121B [0x27] REQ_SET(priority=0x10, entity_id=Megomak (ID: 17027618/0x0103D222), tag_num=0x0D)
 78: 0x1222 [0x1C] WAIT(10* ticks)
 79: 0x1225 [0x45] LOAD_SCHEDULED_TASK: Load scheduler "fdo2" with entities [LocalPlayer, LocalPlayer], work=[200*, 0*]
 80: 0x1236 [0x55] WAIT_LOAD_SCHEDULER: Wait for scheduler "fdo2" with entities [LocalPlayer, LocalPlayer], work=200*
 81: 0x1245 [0x52] END_LOAD_SCHEDULER: End scheduler "m152" with entities [LocalPlayer, LocalPlayer], work=495*
 82: 0x1254 [0x7A] VM_CONTROL: Reset VM for Megomak (ID: 17027618/0x0103D222)
 83: 0x125A [0x27] REQ_SET(priority=0x10, entity_id=Megomak (ID: 17027618/0x0103D222), tag_num=0x0C)
 84: 0x1261 [0x6C] FADE_ENTITY_COLOR(entity_id=Unnamed NPC (ID: 17027621/0x0103D225), end_alpha=128*, fade_time=1*)
 85: 0x126A [0x1C] WAIT(120* ticks)
 86: 0x126D [0x45] LOAD_SCHEDULED_TASK: Load scheduler "m158" with entities [LocalPlayer, LocalPlayer], work=[495*, 0*]
 87: 0x127E [0x45] LOAD_SCHEDULED_TASK: Load scheduler "fdi2" with entities [LocalPlayer, LocalPlayer], work=[200*, 0*]
 88: 0x128F [0x55] WAIT_LOAD_SCHEDULER: Wait for scheduler "fdi2" with entities [LocalPlayer, LocalPlayer], work=200*
 89: 0x129E [0x2C] CREATE_SCHEDULER_TASK: Create scheduler "ope2" with entities [Unnamed NPC (ID: 17027621/0x0103D225), Unnamed NPC (ID: 17027621/0x0103D225)]
 90: 0x12AB [0x1C] WAIT(80* ticks)
 91: 0x12AE [0x5B] LOAD_EXT_SCHEDULER: Load scheduler "war0" with entities [Megomak (ID: 17027618/0x0103D222), Megomak (ID: 17027618/0x0103D222)], work=218*
 92: 0x12BD [0x52] END_LOAD_SCHEDULER: End scheduler "m158" with entities [LocalPlayer, LocalPlayer], work=495*
 93: 0x12CC [0x45] LOAD_SCHEDULED_TASK: Load scheduler "m105" with entities [LocalPlayer, LocalPlayer], work=[450*, 0*]
 94: 0x12DD [0x2B] Megomak (ID: 17027618/0x0103D222) [7867*]:
    → "Ah, but it is the plight of the genius to suffer! Anyway, here's your $3. Take it and get lost."
 95: 0x12E4 [0x23] WAIT_FOR_DIALOG_INTERACTION
 96: 0x12E5 [0x2B] Megomak (ID: 17027618/0x0103D222) [7868*]:
    → "And remember: no replacements, no refunds."
 97: 0x12EC [0x23] WAIT_FOR_DIALOG_INTERACTION
 98: 0x12ED [0x24] CREATE_DIALOG(message_id=7869*, default_option=0*, option_flags=0*)
    → "Ask for instructions? [None needed./Just in case...]"
 99: 0x12F4 [0x25] WAIT_DIALOG_SELECT()
100: 0x12F5 [0x02] IF !(Work_Zone[0] == 0*) GOTO 0x14C5
101: 0x12FD [0x29] REQ_SET_WAIT(priority=0x10, entity_id=LocalPlayer, tag_num=0x22)
102: 0x1304 [0x02] IF !(Work_Zone[2] == 1*) GOTO 0x132F
103: 0x130C [0x52] END_LOAD_SCHEDULER: End scheduler "m105" with entities [LocalPlayer, LocalPlayer], work=495*
104: 0x131B [0x45] LOAD_SCHEDULED_TASK: Load scheduler "nhm1" with entities [LocalPlayer, LocalPlayer], work=[450*, 0*]
105: 0x132C [0x01] GOTO 0x145C
106: 0x132F [0x02] IF !(Work_Zone[2] == 2*) GOTO 0x135A
107: 0x1337 [0x52] END_LOAD_SCHEDULER: End scheduler "m105" with entities [LocalPlayer, LocalPlayer], work=495*
108: 0x1346 [0x45] LOAD_SCHEDULED_TASK: Load scheduler "nhm1" with entities [LocalPlayer, LocalPlayer], work=[450*, 0*]
109: 0x1357 [0x01] GOTO 0x145C
110: 0x135A [0x02] IF !(Work_Zone[2] == 3*) GOTO 0x1385
111: 0x1362 [0x52] END_LOAD_SCHEDULER: End scheduler "m105" with entities [LocalPlayer, LocalPlayer], work=495*
112: 0x1371 [0x45] LOAD_SCHEDULED_TASK: Load scheduler "nem1" with entities [LocalPlayer, LocalPlayer], work=[450*, 0*]
113: 0x1382 [0x01] GOTO 0x145C
114: 0x1385 [0x02] IF !(Work_Zone[2] == 4*) GOTO 0x13B0
115: 0x138D [0x52] END_LOAD_SCHEDULER: End scheduler "m105" with entities [LocalPlayer, LocalPlayer], work=495*
116: 0x139C [0x45] LOAD_SCHEDULED_TASK: Load scheduler "nem1" with entities [LocalPlayer, LocalPlayer], work=[450*, 0*]
117: 0x13AD [0x01] GOTO 0x145C
118: 0x13B0 [0x02] IF !(Work_Zone[2] == 5*) GOTO 0x13DB
119: 0x13B8 [0x52] END_LOAD_SCHEDULER: End scheduler "m105" with entities [LocalPlayer, LocalPlayer], work=495*
120: 0x13C7 [0x45] LOAD_SCHEDULED_TASK: Load scheduler "ntr1" with entities [LocalPlayer, LocalPlayer], work=[450*, 0*]
121: 0x13D8 [0x01] GOTO 0x145C
122: 0x13DB [0x02] IF !(Work_Zone[2] == 6*) GOTO 0x1406
123: 0x13E3 [0x52] END_LOAD_SCHEDULER: End scheduler "m105" with entities [LocalPlayer, LocalPlayer], work=495*
124: 0x13F2 [0x45] LOAD_SCHEDULED_TASK: Load scheduler "ntr1" with entities [LocalPlayer, LocalPlayer], work=[450*, 0*]
125: 0x1403 [0x01] GOTO 0x145C
126: 0x1406 [0x02] IF !(Work_Zone[2] == 7*) GOTO 0x1431
127: 0x140E [0x52] END_LOAD_SCHEDULER: End scheduler "m105" with entities [LocalPlayer, LocalPlayer], work=495*
128: 0x141D [0x45] LOAD_SCHEDULED_TASK: Load scheduler "nmt1" with entities [LocalPlayer, LocalPlayer], work=[450*, 0*]
129: 0x142E [0x01] GOTO 0x145C
130: 0x1431 [0x02] IF !(Work_Zone[2] == 8*) GOTO 0x145C
131: 0x1439 [0x52] END_LOAD_SCHEDULER: End scheduler "m105" with entities [LocalPlayer, LocalPlayer], work=495*
132: 0x1448 [0x45] LOAD_SCHEDULED_TASK: Load scheduler "ngl1" with entities [LocalPlayer, LocalPlayer], work=[450*, 0*]
133: 0x1459 [0x01] GOTO 0x145C

SUBROUTINE_145C:
134: 0x145C [0x6E] LocalPlayer uses emote 7*
135: 0x1463 [0x99] Wait for LocalPlayer animation to complete
136: 0x1468 [0x1C] WAIT(10* ticks)
137: 0x146B [0x6B] STOP_AND_IDLE: Megomak (ID: 17027618/0x0103D222) stops current action and resets to idle (animation="idl0")
138: 0x1474 [0x1C] WAIT(130* ticks)
139: 0x1477 [0x52] END_LOAD_SCHEDULER: End scheduler "nhm1" with entities [LocalPlayer, LocalPlayer], work=450*
140: 0x1486 [0x52] END_LOAD_SCHEDULER: End scheduler "nem1" with entities [LocalPlayer, LocalPlayer], work=450*
141: 0x1495 [0x52] END_LOAD_SCHEDULER: End scheduler "ntr1" with entities [LocalPlayer, LocalPlayer], work=450*
142: 0x14A4 [0x52] END_LOAD_SCHEDULER: End scheduler "nmt1" with entities [LocalPlayer, LocalPlayer], work=450*
143: 0x14B3 [0x52] END_LOAD_SCHEDULER: End scheduler "ngl1" with entities [LocalPlayer, LocalPlayer], work=450*
144: 0x14C2 [0x01] GOTO 0x16C5
145: 0x14C5 [0x02] IF !(Work_Zone[0] == 1*) GOTO 0x16C5
146: 0x14CD [0x29] REQ_SET_WAIT(priority=0x10, entity_id=LocalPlayer, tag_num=0x22)
147: 0x14D4 [0x02] IF !(Work_Zone[2] == 1*) GOTO 0x14FF
148: 0x14DC [0x52] END_LOAD_SCHEDULER: End scheduler "m153" with entities [LocalPlayer, LocalPlayer], work=495*
149: 0x14EB [0x45] LOAD_SCHEDULED_TASK: Load scheduler "nhm1" with entities [LocalPlayer, LocalPlayer], work=[450*, 0*]
150: 0x14FC [0x01] GOTO 0x162C
151: 0x14FF [0x02] IF !(Work_Zone[2] == 2*) GOTO 0x152A
152: 0x1507 [0x52] END_LOAD_SCHEDULER: End scheduler "m153" with entities [LocalPlayer, LocalPlayer], work=495*
153: 0x1516 [0x45] LOAD_SCHEDULED_TASK: Load scheduler "nhm1" with entities [LocalPlayer, LocalPlayer], work=[450*, 0*]
154: 0x1527 [0x01] GOTO 0x162C
155: 0x152A [0x02] IF !(Work_Zone[2] == 3*) GOTO 0x1555
156: 0x1532 [0x52] END_LOAD_SCHEDULER: End scheduler "m153" with entities [LocalPlayer, LocalPlayer], work=495*
157: 0x1541 [0x45] LOAD_SCHEDULED_TASK: Load scheduler "nem1" with entities [LocalPlayer, LocalPlayer], work=[450*, 0*]
158: 0x1552 [0x01] GOTO 0x162C
159: 0x1555 [0x02] IF !(Work_Zone[2] == 4*) GOTO 0x1580
160: 0x155D [0x52] END_LOAD_SCHEDULER: End scheduler "m153" with entities [LocalPlayer, LocalPlayer], work=495*
161: 0x156C [0x45] LOAD_SCHEDULED_TASK: Load scheduler "nem1" with entities [LocalPlayer, LocalPlayer], work=[450*, 0*]
162: 0x157D [0x01] GOTO 0x162C
163: 0x1580 [0x02] IF !(Work_Zone[2] == 5*) GOTO 0x15AB
164: 0x1588 [0x52] END_LOAD_SCHEDULER: End scheduler "m153" with entities [LocalPlayer, LocalPlayer], work=495*
165: 0x1597 [0x45] LOAD_SCHEDULED_TASK: Load scheduler "ntr1" with entities [LocalPlayer, LocalPlayer], work=[450*, 0*]
166: 0x15A8 [0x01] GOTO 0x162C
167: 0x15AB [0x02] IF !(Work_Zone[2] == 6*) GOTO 0x15D6
168: 0x15B3 [0x52] END_LOAD_SCHEDULER: End scheduler "m153" with entities [LocalPlayer, LocalPlayer], work=495*
169: 0x15C2 [0x45] LOAD_SCHEDULED_TASK: Load scheduler "ntr1" with entities [LocalPlayer, LocalPlayer], work=[450*, 0*]
170: 0x15D3 [0x01] GOTO 0x162C
171: 0x15D6 [0x02] IF !(Work_Zone[2] == 7*) GOTO 0x1601
172: 0x15DE [0x52] END_LOAD_SCHEDULER: End scheduler "m153" with entities [LocalPlayer, LocalPlayer], work=495*
173: 0x15ED [0x45] LOAD_SCHEDULED_TASK: Load scheduler "nmt1" with entities [LocalPlayer, LocalPlayer], work=[450*, 0*]
174: 0x15FE [0x01] GOTO 0x162C
175: 0x1601 [0x02] IF !(Work_Zone[2] == 8*) GOTO 0x162C
176: 0x1609 [0x52] END_LOAD_SCHEDULER: End scheduler "m153" with entities [LocalPlayer, LocalPlayer], work=495*
177: 0x1618 [0x45] LOAD_SCHEDULED_TASK: Load scheduler "ngl1" with entities [LocalPlayer, LocalPlayer], work=[450*, 0*]
178: 0x1629 [0x01] GOTO 0x162C

SUBROUTINE_162C:
179: 0x162C [0x6E] LocalPlayer uses emote 32*
180: 0x1633 [0x99] Wait for LocalPlayer animation to complete
181: 0x1638 [0x1C] WAIT(10* ticks)
182: 0x163B [0x6B] STOP_AND_IDLE: Megomak (ID: 17027618/0x0103D222) stops current action and resets to idle (animation="idl0")
183: 0x1644 [0x1C] WAIT(130* ticks)
184: 0x1647 [0x52] END_LOAD_SCHEDULER: End scheduler "nhm1" with entities [LocalPlayer, LocalPlayer], work=450*
185: 0x1656 [0x52] END_LOAD_SCHEDULER: End scheduler "nem1" with entities [LocalPlayer, LocalPlayer], work=450*
186: 0x1665 [0x52] END_LOAD_SCHEDULER: End scheduler "ntr1" with entities [LocalPlayer, LocalPlayer], work=450*
187: 0x1674 [0x52] END_LOAD_SCHEDULER: End scheduler "nmt1" with entities [LocalPlayer, LocalPlayer], work=450*
188: 0x1683 [0x52] END_LOAD_SCHEDULER: End scheduler "ngl1" with entities [LocalPlayer, LocalPlayer], work=450*
189: 0x1692 [0x45] LOAD_SCHEDULED_TASK: Load scheduler "m154" with entities [LocalPlayer, LocalPlayer], work=[495*, 0*]
190: 0x16A3 [0x2B] Megomak (ID: 17027618/0x0103D222) [7870*]:
    → "<Sigh>... You don't have much of a brain in that big head of yours, do you?"
191: 0x16AA [0x23] WAIT_FOR_DIALOG_INTERACTION
192: 0x16AB [0x2B] Megomak (ID: 17027618/0x0103D222) [7871*]:
    → "Well, listen up: as potent a charge as this baby can carry, it exhausts its energy just as quick."
193: 0x16B2 [0x23] WAIT_FOR_DIALOG_INTERACTION
194: 0x16B3 [0x52] END_LOAD_SCHEDULER: End scheduler "m154" with entities [LocalPlayer, LocalPlayer], work=495*
195: 0x16C2 [0x01] GOTO 0x16C5

SUBROUTINE_16C5:
196: 0x16C5 [0x45] LOAD_SCHEDULED_TASK: Load scheduler "m155" with entities [LocalPlayer, LocalPlayer], work=[495*, 0*]
197: 0x16D6 [0x5B] LOAD_EXT_SCHEDULER: Load scheduler "tlk0" with entities [Megomak (ID: 17027618/0x0103D222), Megomak (ID: 17027618/0x0103D222)], work=215*
198: 0x16E5 [0x2B] Megomak (ID: 17027618/0x0103D222) [7872*]:
    → "That means you can only use it once, so you'd better make it count."
199: 0x16EC [0x23] WAIT_FOR_DIALOG_INTERACTION
200: 0x16ED [0x5B] LOAD_EXT_SCHEDULER: Load scheduler "tlke" with entities [Megomak (ID: 17027618/0x0103D222), Megomak (ID: 17027618/0x0103D222)], work=215*
201: 0x16FC [0x52] END_LOAD_SCHEDULER: End scheduler "m155" with entities [LocalPlayer, LocalPlayer], work=495*
202: 0x170B [0x45] LOAD_SCHEDULED_TASK: Load scheduler "m156" with entities [LocalPlayer, LocalPlayer], work=[495*, 0*]
203: 0x171C [0x2B] Megomak (ID: 17027618/0x0103D222) [7873*]:
    → "Now, if you'll excuse me..."
204: 0x1723 [0x23] WAIT_FOR_DIALOG_INTERACTION
205: 0x1724 [0x2B] Megomak (ID: 17027618/0x0103D222) [7874*]:
    → "(Easy there, Khimmy-kins! Daddy's on his way!)"
206: 0x172B [0x23] WAIT_FOR_DIALOG_INTERACTION
207: 0x172C [0x27] REQ_SET(priority=0x10, entity_id=Megomak (ID: 17027618/0x0103D222), tag_num=0x0D)
208: 0x1733 [0x1C] WAIT(10* ticks)
209: 0x1736 [0x52] END_LOAD_SCHEDULER: End scheduler "m156" with entities [LocalPlayer, LocalPlayer], work=495*
210: 0x1745 [0x45] LOAD_SCHEDULED_TASK: Load scheduler "m157" with entities [LocalPlayer, LocalPlayer], work=[495*, 0*]
211: 0x1756 [0x1C] WAIT(120* ticks)
212: 0x1759 [0x5D] SET_MUSIC_VOLUME(volume=0*, fade_time=120*)
213: 0x175E [0x1A] CALL_SUBROUTINE(address=0x0064)
214: 0x1761 [0x1C] WAIT(30* ticks)
215: 0x1764 [0x59] UPDATE_ENTITY_DATA: LocalPlayer->Render.Flags0 &= ~0x200000
216: 0x176B [0x52] END_LOAD_SCHEDULER: End scheduler "m157" with entities [LocalPlayer, LocalPlayer], work=495*
217: 0x177A [0x78] ENABLE_GAME_TIMER_RESET_WEATHER()
218: 0x177B [0x1C] WAIT(15* ticks)
219: 0x177E [0xAB] EventEntity->UnknownFlag = 1 // Enable unknown flag
220: 0x1780 [0x1C] WAIT(15* ticks)
221: 0x1783 [0xAB] EventEntity->DespawnValue = 0* // Set despawn value
222: 0x1787 [0x1C] WAIT(1* ticks)
223: 0x178A [0x5C] MUSIC_CONTROL: Set Idle (Day) music to song 0*
224: 0x178E [0x5C] MUSIC_CONTROL: Set Idle (Night) music to song 0*
225: 0x1792 [0x9A] WAIT_MUSIC_SERVER()
226: 0x1793 [0x46] CAMERA_CONTROL: Restore default settings
227: 0x1795 [0x45] LOAD_SCHEDULED_TASK: Load scheduler "fdi2" with entities [LocalPlayer, LocalPlayer], work=[200*, 0*]
228: 0x17A6 [0x21] END_EVENT
229: 0x17A7 [0x00] END_REQSTACK()
```

### Event 157

#### Metadata

| Field        | Value      |
|--------------|------------|
| Entrypoint   | 0x17A8     |
| Data Size    | 1039 bytes |
| Instructions | 123        |

```
      00 01 02 03 04 05 06 07  08 09 0A 0B 0C 0D 0E 0F
      -- -- -- -- -- -- -- --  -- -- -- -- -- -- -- --
17A0:                          42 45 00 80 F8 FF FF 7F          BE......
17B0: F8 FF FF 7F 66 64 6F 31  01 80 55 00 80 F8 FF FF  ....fdo1..U.....
17C0: 7F F8 FF FF 7F 66 64 6F  31 46 01 38 08 80 27 10  .....fdo1F.8..'.
17D0: 22 D2 03 01 04 92 01 22  D2 03 01 94 01 F0 FF FF  "......"........
17E0: 7F 94 01 22 D2 03 01 BA  F0 FF FF 7F 09 80 0A 80  ..."............
17F0: 0B 80 0C 80 BA 22 D2 03  01 0D 80 0E 80 0B 80 0F  ....."..........
1800: 80 7B F0 FF FF 7F 7B 22  D2 03 01 80 F0 FF FF 7F  .{....{"........
1810: 80 22 D2 03 01 59 04 22  D2 03 01 12 80 1C 13 80  ."...Y."........
1820: 5C 00 11 80 5C 01 11 80  9A 27 10 22 D2 03 01 0C  \...\....'."....
1830: 27 10 22 D2 03 01 0C 1C  13 80 9A 45 47 80 F0 FF  '."........EG...
1840: FF 7F F0 FF FF 7F 6D 31  30 31 01 80 1A 43 00 1C  ......m101...C..
1850: 17 80 52 47 80 F0 FF FF  7F F0 FF FF 7F 6D 31 30  ..RG.........m10
1860: 31 45 47 80 F0 FF FF 7F  F0 FF FF 7F 6D 31 30 32  1EG.........m102
1870: 01 80 5B 07 80 22 D2 03  01 22 D2 03 01 74 6C 6B  ..[.."..."...tlk
1880: 30 2B 22 D2 03 01 53 80  23 29 10 F0 FF FF 7F 22  0+"...S.#)....."
1890: 02 02 10 03 80 80 BB 18  52 47 80 F0 FF FF 7F F0  ........RG......
18A0: FF FF 7F 6D 31 30 32 45  14 80 F0 FF FF 7F F0 FF  ...m102E........
18B0: FF 7F 6E 68 6D 31 01 80  01 E8 19 02 02 10 05 80  ..nhm1..........
18C0: 80 E6 18 52 47 80 F0 FF  FF 7F F0 FF FF 7F 6D 31  ...RG.........m1
18D0: 30 32 45 14 80 F0 FF FF  7F F0 FF FF 7F 6E 68 6D  02E..........nhm
18E0: 31 01 80 01 E8 19 02 02  10 1B 80 80 11 19 52 47  1.............RG
18F0: 80 F0 FF FF 7F F0 FF FF  7F 6D 31 30 32 45 14 80  .........m102E..
1900: F0 FF FF 7F F0 FF FF 7F  6E 65 6D 31 01 80 01 E8  ........nem1....
1910: 19 02 02 10 1C 80 80 3C  19 52 47 80 F0 FF FF 7F  .......<.RG.....
1920: F0 FF FF 7F 6D 31 30 32  45 14 80 F0 FF FF 7F F0  ....m102E.......
1930: FF FF 7F 6E 65 6D 31 01  80 01 E8 19 02 02 10 1D  ...nem1.........
1940: 80 80 67 19 52 47 80 F0  FF FF 7F F0 FF FF 7F 6D  ..g.RG.........m
1950: 31 30 32 45 14 80 F0 FF  FF 7F F0 FF FF 7F 6E 74  102E..........nt
1960: 72 31 01 80 01 E8 19 02  02 10 1E 80 80 92 19 52  r1.............R
1970: 47 80 F0 FF FF 7F F0 FF  FF 7F 6D 31 30 32 45 14  G.........m102E.
1980: 80 F0 FF FF 7F F0 FF FF  7F 6E 74 72 31 01 80 01  .........ntr1...
1990: E8 19 02 02 10 1F 80 80  BD 19 52 47 80 F0 FF FF  ..........RG....
19A0: 7F F0 FF FF 7F 6D 31 30  32 45 14 80 F0 FF FF 7F  .....m102E......
19B0: F0 FF FF 7F 6E 6D 74 31  01 80 01 E8 19 02 02 10  ....nmt1........
19C0: 20 80 80 E8 19 52 47 80  F0 FF FF 7F F0 FF FF 7F   ....RG.........
19D0: 6D 31 30 32 45 14 80 F0  FF FF 7F F0 FF FF 7F 6E  m102E..........n
19E0: 67 6C 31 01 80 01 E8 19  6E F0 FF FF 7F 1F 80 99  gl1.....n.......
19F0: F0 FF FF 7F 1C 54 80 52  14 80 F0 FF FF 7F F0 FF  .....T.R........
1A00: FF 7F 6E 68 6D 31 52 14  80 F0 FF FF 7F F0 FF FF  ..nhm1R.........
1A10: 7F 6E 65 6D 31 52 14 80  F0 FF FF 7F F0 FF FF 7F  .nem1R..........
1A20: 6E 74 72 31 52 14 80 F0  FF FF 7F F0 FF FF 7F 6E  ntr1R..........n
1A30: 6D 74 31 52 14 80 F0 FF  FF 7F F0 FF FF 7F 6E 67  mt1R..........ng
1A40: 6C 31 45 47 80 F0 FF FF  7F F0 FF FF 7F 6D 31 30  l1EG.........m10
1A50: 37 01 80 5B 07 80 22 D2  03 01 22 D2 03 01 74 6C  7..[.."..."...tl
1A60: 6B 65 2B 22 D2 03 01 55  80 23 52 47 80 F0 FF FF  ke+"...U.#RG....
1A70: 7F F0 FF FF 7F 6D 31 30  37 45 47 80 F0 FF FF 7F  .....m107EG.....
1A80: F0 FF FF 7F 6D 31 30 33  01 80 03 02 10 18 80 2B  ....m103.......+
1A90: 22 D2 03 01 56 80 23 5B  07 80 22 D2 03 01 22 D2  "...V.#[.."...".
1AA0: 03 01 74 6C 6B 30 2B 22  D2 03 01 57 80 23 52 47  ..tlk0+"...W.#RG
1AB0: 80 F0 FF FF 7F F0 FF FF  7F 6D 31 30 33 45 47 80  .........m103EG.
1AC0: F0 FF FF 7F F0 FF FF 7F  6D 31 30 34 01 80 2B 22  ........m104..+"
1AD0: D2 03 01 58 80 23 2B 22  D2 03 01 59 80 23 52 47  ...X.#+"...Y.#RG
1AE0: 80 F0 FF FF 7F F0 FF FF  7F 6D 31 30 34 45 47 80  .........m104EG.
1AF0: F0 FF FF 7F F0 FF FF 7F  6D 31 30 35 01 80 5B 07  ........m105..[.
1B00: 80 22 D2 03 01 22 D2 03  01 74 6C 6B 65 2B 22 D2  ."..."...tlke+".
1B10: 03 01 5A 80 23 2B 22 D2  03 01 5B 80 23 52 47 80  ..Z.#+"...[.#RG.
1B20: F0 FF FF 7F F0 FF FF 7F  6D 31 30 35 45 47 80 F0  ........m105EG..
1B30: FF FF 7F F0 FF FF 7F 6D  31 30 36 01 80 2B 22 D2  .......m106..+".
1B40: 03 01 5C 80 23 27 10 22  D2 03 01 0D 1C 33 80 52  ..\.#'.".....3.R
1B50: 47 80 F0 FF FF 7F F0 FF  FF 7F 6D 31 30 36 45 47  G.........m106EG
1B60: 80 F0 FF FF 7F F0 FF FF  7F 6D 31 30 38 01 80 1C  .........m108...
1B70: 15 80 5D 01 80 15 80 1A  64 00 52 47 80 F0 FF FF  ..].....d.RG....
1B80: 7F F0 FF FF 7F 6D 31 30  38 78 1C 13 80 AB 09 1C  .....m108x......
1B90: 13 80 AB 11 01 80 1C 03  80 5C 00 01 80 5C 01 01  .........\...\..
1BA0: 80 9A 46 00 45 00 80 F0  FF FF 7F F0 FF FF 7F 66  ..F.E..........f
1BB0: 64 69 32 01 80 21 00                              di2..!.         
```

#### Opcodes

```
  0: 0x17A8 [0x42] SET_CLI_EVENT_CANCEL_DATA()
  1: 0x17A9 [0x45] LOAD_SCHEDULED_TASK: Load scheduler "fdo1" with entities [EventEntity, EventEntity], work=[200*, 0*]
  2: 0x17BA [0x55] WAIT_LOAD_SCHEDULER: Wait for scheduler "fdo1" with entities [EventEntity, EventEntity], work=200*
  3: 0x17C9 [0x46] CAMERA_CONTROL: Disable user control
  4: 0x17CB [0x38] SET_CLIENT_EVENT_MODE(mode=19*)
  5: 0x17CE [0x27] REQ_SET(priority=0x10, entity_id=Megomak (ID: 17027618/0x0103D222), tag_num=0x04)
  6: 0x17D5 [0x92] Megomak (ID: 17027618/0x0103D222)->Render.Flags3 ^= 0x01
  7: 0x17DB [0x94] LocalPlayer->Render.Flags3 ^= 0x01
  8: 0x17E1 [0x94] Megomak (ID: 17027618/0x0103D222)->Render.Flags3 ^= 0x01
  9: 0x17E7 [0xBA] SET_ENTITY_POSITION(entity_id=LocalPlayer, pos_x=275.689*, pos_z=-87.726*, pos_y=-32.000*, direction=178.7°*)
 10: 0x17F4 [0xBA] SET_ENTITY_POSITION(entity_id=Megomak (ID: 17027618/0x0103D222), pos_x=270.433*, pos_z=-88.078*, pos_y=-32.000*, direction=351.6°*)
 11: 0x1801 [0x7B] LocalPlayer stops talking
 12: 0x1806 [0x7B] Megomak (ID: 17027618/0x0103D222) stops talking
 13: 0x180B [0x80] LOAD_WAIT(entity=LocalPlayer)
 14: 0x1810 [0x80] LOAD_WAIT(entity=Megomak (ID: 17027618/0x0103D222))
 15: 0x1815 [0x59] UPDATE_ENTITY_DATA: Set Megomak (ID: 17027618/0x0103D222) main speed = 13* * 0.1
 16: 0x181D [0x1C] WAIT(15* ticks)
 17: 0x1820 [0x5C] MUSIC_CONTROL: Set Idle (Day) music to song 163*
 18: 0x1824 [0x5C] MUSIC_CONTROL: Set Idle (Night) music to song 163*
 19: 0x1828 [0x9A] WAIT_MUSIC_SERVER()
 20: 0x1829 [0x27] REQ_SET(priority=0x10, entity_id=Megomak (ID: 17027618/0x0103D222), tag_num=0x0C)
 21: 0x1830 [0x27] REQ_SET(priority=0x10, entity_id=Megomak (ID: 17027618/0x0103D222), tag_num=0x0C)
 22: 0x1837 [0x1C] WAIT(15* ticks)
 23: 0x183A [0x9A] WAIT_MUSIC_SERVER()
 24: 0x183B [0x45] LOAD_SCHEDULED_TASK: Load scheduler "m101" with entities [LocalPlayer, LocalPlayer], work=[495*, 0*]
 25: 0x184C [0x1A] CALL_SUBROUTINE(address=0x0043)
 26: 0x184F [0x1C] WAIT(150* ticks)
 27: 0x1852 [0x52] END_LOAD_SCHEDULER: End scheduler "m101" with entities [LocalPlayer, LocalPlayer], work=495*
 28: 0x1861 [0x45] LOAD_SCHEDULED_TASK: Load scheduler "m102" with entities [LocalPlayer, LocalPlayer], work=[495*, 0*]
 29: 0x1872 [0x5B] LOAD_EXT_SCHEDULER: Load scheduler "tlk0" with entities [Megomak (ID: 17027618/0x0103D222), Megomak (ID: 17027618/0x0103D222)], work=215*
 30: 0x1881 [0x2B] Megomak (ID: 17027618/0x0103D222) [7857*]:
    → "Well, well, if it isn't the maundering mercenary. Let me guess...you find yourself needing the sort of goods that only I can provide."
 31: 0x1888 [0x23] WAIT_FOR_DIALOG_INTERACTION
 32: 0x1889 [0x29] REQ_SET_WAIT(priority=0x10, entity_id=LocalPlayer, tag_num=0x22)
 33: 0x1890 [0x02] IF !(Work_Zone[2] == 1*) GOTO 0x18BB
 34: 0x1898 [0x52] END_LOAD_SCHEDULER: End scheduler "m102" with entities [LocalPlayer, LocalPlayer], work=495*
 35: 0x18A7 [0x45] LOAD_SCHEDULED_TASK: Load scheduler "nhm1" with entities [LocalPlayer, LocalPlayer], work=[450*, 0*]
 36: 0x18B8 [0x01] GOTO 0x19E8
 37: 0x18BB [0x02] IF !(Work_Zone[2] == 2*) GOTO 0x18E6
 38: 0x18C3 [0x52] END_LOAD_SCHEDULER: End scheduler "m102" with entities [LocalPlayer, LocalPlayer], work=495*
 39: 0x18D2 [0x45] LOAD_SCHEDULED_TASK: Load scheduler "nhm1" with entities [LocalPlayer, LocalPlayer], work=[450*, 0*]
 40: 0x18E3 [0x01] GOTO 0x19E8
 41: 0x18E6 [0x02] IF !(Work_Zone[2] == 3*) GOTO 0x1911
