# 17027561 - Waudeen

## Common Data

| Field            | Value                  |
|------------------|------------------------|
| Zone             | Mount Zhayolm (ID: 61) |
| Block Size       | 652 bytes              |
| Total Events     | 10                     |
| References Count | 32                     |

## List of Events

| Event ID                 | Entrypoint   |   Size |   Instructions |
|--------------------------|--------------|--------|----------------|
| [65535](#event-65535)    | 0x0000       |      1 |              1 |
| [3](#event-3)            | 0x0001       |     25 |              9 |
| [4](#event-4)            | 0x001A       |      1 |              1 |
| [5](#event-5)            | 0x001B       |     17 |              7 |
| [6](#event-6)            | 0x002C       |     31 |             11 |
| [209](#event-209)        | 0x004B       |    144 |             44 |
| [10](#event-10)          | 0x00DB       |      1 |              1 |
| [11](#event-11)          | 0x00DC       |     26 |             10 |
| [65535.1](#event-655351) | 0x00F6       |     37 |              5 |
| [65535.2](#event-655352) | 0x011B       |    185 |             37 |

## DAT References (imed_data)

|   Index | Hex Value   |   Dec Value |
|---------|-------------|-------------|
|       0 | 0x1CEF      |        7407 |
|       1 | 0x1CF0      |        7408 |
|       2 | 0x1D03      |        7427 |
|       3 | 0x1D04      |        7428 |
|       4 | 0x005A      |          90 |
|       5 | 0x1D05      |        7429 |
|       6 | 0x1D06      |        7430 |
|       7 | 0x0000      |           0 |
|       8 | 0x1D56      |        7510 |
|       9 | 0x1D57      |        7511 |
|      10 | 0x1D58      |        7512 |
|      11 | 0x1D59      |        7513 |
|      12 | 0x1D5A      |        7514 |
|      13 | 0x0001      |           1 |
|      14 | 0x0032      |          50 |
|      15 | 0x1D5D      |        7517 |
|      16 | 0x1D5B      |        7515 |
|      17 | 0x1D5C      |        7516 |
|      18 | 0x1D5E      |        7518 |
|      19 | 0x1D5F      |        7519 |
|      20 | 0x0002      |           2 |
|      21 | 0x1D60      |        7520 |
|      22 | 0x1D61      |        7521 |
|      23 | 0x1D62      |        7522 |
|      24 | 0x1D82      |        7554 |
|      25 | 0x1D83      |        7555 |
|      26 | 0x0005      |           5 |
|      27 | 0x000A      |          10 |
|      28 | 0x0009      |           9 |
|      29 | 0x0046      |          70 |
|      30 | 0x008C      |         140 |
|      31 | 0x00D2      |         210 |

## String References

- **7428**: <Player>'s mercenary badge flashes.
- **7510**: Greetings, mercenary. I am % of the Immortals.
- **7511**: You are here on an Assault mission? Then you'll be wanting command verification.
- **7512**: Do you want command verification? [Yes./No./Command what...?]
- **7513**: If you have $0 [credit/credits] available from your Imperial Standing, I will recognize your ability to lead this Assault mission.
- **7514**: Receive command verification? [Yes. ($0 [credit/credits])/No.]
- **7515**: Very well. Consider your command of this mission verified.
- **7516**: With this in your possession, you will be able to pass through the runic seal and enter the Assault area. Good luck.
- **7517**: I cannot entrust leadership of a mission to a mercenary with such an unimpressive standing. Return to me when you are worthy.
- **7518**: You refuse to assume leadership? Perhaps you should make that decision before you speak to me.
- **7519**: No? Then I suggest you complete your preparations and await your leader's orders!
- **7520**: Receiving command verification will authorize you to begin an Assault mission.
- **7521**: Naturally, you are also charged with the responsibility of making sure your party members are ready to enter the Assault area.
- **7522**: However, successfully completing an Assault mission under your command will most certainly improve your standing with the Empire.

## Events

### Event 65535

#### Metadata

| Field        | Value   |
|--------------|---------|
| Entrypoint   | 0x0000  |
| Data Size    | 1 bytes |
| Instructions | 1       |

```
      00 01 02 03 04 05 06 07  08 09 0A 0B 0C 0D 0E 0F
      -- -- -- -- -- -- -- --  -- -- -- -- -- -- -- --
0000: 00                                                .               
```

#### Opcodes

```
  0: 0x0000 [0x00] END_REQSTACK()
```

### Event 3

#### Metadata

| Field        | Value    |
|--------------|----------|
| Entrypoint   | 0x0001   |
| Data Size    | 25 bytes |
| Instructions | 9        |

```
      00 01 02 03 04 05 06 07  08 09 0A 0B 0C 0D 0E 0F
      -- -- -- -- -- -- -- --  -- -- -- -- -- -- -- --
0000:    1E F0 FF FF 7F 6F 70  2B E9 D1 03 01 00 80 23   .....op+......#
0010: 2B E9 D1 03 01 01 80 23  21 00                    +......#!.      
```

#### Opcodes

```
  0: 0x0001 [0x1E] EventEntity looks at LocalPlayer and starts talking
  1: 0x0006 [0x6F] WAIT_FRAME_DELAY: Yield until WaitTime reaches zero
  2: 0x0007 [0x70] WAIT_ENTITY_RENDER_FLAG: Wait while EventEntity->Render.Flags3 bit 2 is set (cancel turn if not)
  3: 0x0008 [0x2B] Waudeen (ID: 17027561/0x0103D1E9) [7407*]:
    → "What brings you here? This is the Halvung staging point. From here we keep close surveillance on lands that are of strategic importance to the Imperial Army."
  4: 0x000F [0x23] WAIT_FOR_DIALOG_INTERACTION
  5: 0x0010 [0x2B] Waudeen (ID: 17027561/0x0103D1E9) [7408*]:
    → "This is not the sort of place for common folk like you."
  6: 0x0017 [0x23] WAIT_FOR_DIALOG_INTERACTION
  7: 0x0018 [0x21] END_EVENT
  8: 0x0019 [0x00] END_REQSTACK()
```

### Event 4

#### Metadata

| Field        | Value   |
|--------------|---------|
| Entrypoint   | 0x001A  |
| Data Size    | 1 bytes |
| Instructions | 1       |

```
      00 01 02 03 04 05 06 07  08 09 0A 0B 0C 0D 0E 0F
      -- -- -- -- -- -- -- --  -- -- -- -- -- -- -- --
0010:                                00                           .     
```

#### Opcodes

```
  0: 0x001A [0x00] END_REQSTACK()
```

### Event 5

#### Metadata

| Field        | Value    |
|--------------|----------|
| Entrypoint   | 0x001B   |
| Data Size    | 17 bytes |
| Instructions | 7        |

```
      00 01 02 03 04 05 06 07  08 09 0A 0B 0C 0D 0E 0F
      -- -- -- -- -- -- -- --  -- -- -- -- -- -- -- --
0010:                                   1E F0 FF FF 7F             .....
0020: 6F 70 2B E9 D1 03 01 02  80 23 21 00              op+......#!.    
```

#### Opcodes

```
  0: 0x001B [0x1E] EventEntity looks at LocalPlayer and starts talking
  1: 0x0020 [0x6F] WAIT_FRAME_DELAY: Yield until WaitTime reaches zero
  2: 0x0021 [0x70] WAIT_ENTITY_RENDER_FLAG: Wait while EventEntity->Render.Flags3 bit 2 is set (cancel turn if not)
  3: 0x0022 [0x2B] Waudeen (ID: 17027561/0x0103D1E9) [7427*]:
    → "If you ever should have urgent business with me, remember that you can return instantly using the runic portal."
  4: 0x0029 [0x23] WAIT_FOR_DIALOG_INTERACTION
  5: 0x002A [0x21] END_EVENT
  6: 0x002B [0x00] END_REQSTACK()
```

### Event 6

#### Metadata

| Field        | Value    |
|--------------|----------|
| Entrypoint   | 0x002C   |
| Data Size    | 31 bytes |
| Instructions | 11       |

```
      00 01 02 03 04 05 06 07  08 09 0A 0B 0C 0D 0E 0F
      -- -- -- -- -- -- -- --  -- -- -- -- -- -- -- --
0020:                                      1E F0 FF FF              ....
0030: 7F 6F 70 48 03 80 1C 04  80 2B E9 D1 03 01 05 80  .opH.....+......
0040: 23 2B E9 D1 03 01 06 80  23 21 00                 #+......#!.     
```

#### Opcodes

```
  0: 0x002C [0x1E] EventEntity looks at LocalPlayer and starts talking
  1: 0x0031 [0x6F] WAIT_FRAME_DELAY: Yield until WaitTime reaches zero
  2: 0x0032 [0x70] WAIT_ENTITY_RENDER_FLAG: Wait while EventEntity->Render.Flags3 bit 2 is set (cancel turn if not)
  3: 0x0033 [0x48] [System] [7428*]:
    → "<Player>'s mercenary badge flashes."
  4: 0x0036 [0x1C] WAIT(90* ticks)
  5: 0x0039 [0x2B] Waudeen (ID: 17027561/0x0103D1E9) [7429*]:
    → "Is that a mercenary badge from Salaheem's Sentinels you have there? So you have become a mercenary, am I correct?"
  6: 0x0040 [0x23] WAIT_FOR_DIALOG_INTERACTION
  7: 0x0041 [0x2B] Waudeen (ID: 17027561/0x0103D1E9) [7430*]:
    → "I have heard that Salaheem's Sentinels do not treat their employees very kindly. I will not give any orders, but I suggest that you not let your life go to waste."
  8: 0x0048 [0x23] WAIT_FOR_DIALOG_INTERACTION
  9: 0x0049 [0x21] END_EVENT
 10: 0x004A [0x00] END_REQSTACK()
```

### Event 209

#### Metadata

| Field        | Value     |
|--------------|-----------|
| Entrypoint   | 0x004B    |
| Data Size    | 144 bytes |
| Instructions | 44        |

```
      00 01 02 03 04 05 06 07  08 09 0A 0B 0C 0D 0E 0F
      -- -- -- -- -- -- -- --  -- -- -- -- -- -- -- --
0040:                                   03 01 10 07 80             .....
0050: 1E F0 FF FF 7F 1D 08 80  23 1D 09 80 23 24 0A 80  ........#...#$..
0060: 07 80 07 80 25 02 00 10  07 80 00 B3 00 1D 0B 80  ....%...........
0070: 23 24 0C 80 0D 80 07 80  25 02 00 10 07 80 00 A1  #$......%.......
0080: 00 02 03 10 0E 80 03 90  00 1D 0F 80 23 01 9E 00  ............#...
0090: 42 1D 10 80 23 1D 11 80  23 03 01 10 0D 80 01 B0  B...#...#.......
00A0: 00 02 00 10 0D 80 00 B0  00 1D 12 80 23 01 B0 00  ............#...
00B0: 01 D9 00 02 00 10 0D 80  00 C2 00 1D 13 80 23 01  ..............#.
00C0: D9 00 02 00 10 14 80 00  D9 00 1D 15 80 23 1D 16  .............#..
00D0: 80 23 1D 17 80 23 01 D9  00 21 00                 .#...#...!.     
```

#### Opcodes

```
  0: 0x004B [0x03] Work_Zone[1] = 0*
  1: 0x0050 [0x1E] EventEntity looks at LocalPlayer and starts talking
  2: 0x0055 [0x1D] PRINT_EVENT_MESSAGE(message_id=7510*)
    → "Greetings, mercenary. I am % of the Immortals."
  3: 0x0058 [0x23] WAIT_FOR_DIALOG_INTERACTION
  4: 0x0059 [0x1D] PRINT_EVENT_MESSAGE(message_id=7511*)
    → "You are here on an Assault mission? Then you'll be wanting command verification."
  5: 0x005C [0x23] WAIT_FOR_DIALOG_INTERACTION
  6: 0x005D [0x24] CREATE_DIALOG(message_id=7512*, default_option=0*, option_flags=0*)
    → "Do you want command verification? [Yes./No./Command what...?]"
  7: 0x0064 [0x25] WAIT_DIALOG_SELECT()
  8: 0x0065 [0x02] IF !(Work_Zone[0] == 0*) GOTO 0x00B3
  9: 0x006D [0x1D] PRINT_EVENT_MESSAGE(message_id=7513*)
    → "If you have $0 [credit/credits] available from your Imperial Standing, I will recognize your ability to lead this Assault mission."
 10: 0x0070 [0x23] WAIT_FOR_DIALOG_INTERACTION
 11: 0x0071 [0x24] CREATE_DIALOG(message_id=7514*, default_option=1*, option_flags=0*)
    → "Receive command verification? [Yes. ($0 [credit/credits])/No.]"
 12: 0x0078 [0x25] WAIT_DIALOG_SELECT()
 13: 0x0079 [0x02] IF !(Work_Zone[0] == 0*) GOTO 0x00A1
 14: 0x0081 [0x02] IF !(Work_Zone[3] >= 50*) GOTO 0x0090
 15: 0x0089 [0x1D] PRINT_EVENT_MESSAGE(message_id=7517*)
    → "I cannot entrust leadership of a mission to a mercenary with such an unimpressive standing. Return to me when you are worthy."
 16: 0x008C [0x23] WAIT_FOR_DIALOG_INTERACTION
 17: 0x008D [0x01] GOTO 0x009E
 18: 0x0090 [0x42] SET_CLI_EVENT_CANCEL_DATA()
 19: 0x0091 [0x1D] PRINT_EVENT_MESSAGE(message_id=7515*)
    → "Very well. Consider your command of this mission verified."
 20: 0x0094 [0x23] WAIT_FOR_DIALOG_INTERACTION
 21: 0x0095 [0x1D] PRINT_EVENT_MESSAGE(message_id=7516*)
    → "With this in your possession, you will be able to pass through the runic seal and enter the Assault area. Good luck."
 22: 0x0098 [0x23] WAIT_FOR_DIALOG_INTERACTION
 23: 0x0099 [0x03] Work_Zone[1] = 1*

SUBROUTINE_009E:
 24: 0x009E [0x01] GOTO 0x00B0
 25: 0x00A1 [0x02] IF !(Work_Zone[0] == 1*) GOTO 0x00B0
 26: 0x00A9 [0x1D] PRINT_EVENT_MESSAGE(message_id=7518*)
    → "You refuse to assume leadership? Perhaps you should make that decision before you speak to me."
 27: 0x00AC [0x23] WAIT_FOR_DIALOG_INTERACTION
 28: 0x00AD [0x01] GOTO 0x00B0

SUBROUTINE_00B0:
 29: 0x00B0 [0x01] GOTO 0x00D9
 30: 0x00B3 [0x02] IF !(Work_Zone[0] == 1*) GOTO 0x00C2
 31: 0x00BB [0x1D] PRINT_EVENT_MESSAGE(message_id=7519*)
    → "No? Then I suggest you complete your preparations and await your leader's orders!"
 32: 0x00BE [0x23] WAIT_FOR_DIALOG_INTERACTION
 33: 0x00BF [0x01] GOTO 0x00D9
 34: 0x00C2 [0x02] IF !(Work_Zone[0] == 2*) GOTO 0x00D9
 35: 0x00CA [0x1D] PRINT_EVENT_MESSAGE(message_id=7520*)
    → "Receiving command verification will authorize you to begin an Assault mission."
 36: 0x00CD [0x23] WAIT_FOR_DIALOG_INTERACTION
 37: 0x00CE [0x1D] PRINT_EVENT_MESSAGE(message_id=7521*)
    → "Naturally, you are also charged with the responsibility of making sure your party members are ready to enter the Assault area."
 38: 0x00D1 [0x23] WAIT_FOR_DIALOG_INTERACTION
 39: 0x00D2 [0x1D] PRINT_EVENT_MESSAGE(message_id=7522*)
    → "However, successfully completing an Assault mission under your command will most certainly improve your standing with the Empire."
 40: 0x00D5 [0x23] WAIT_FOR_DIALOG_INTERACTION
 41: 0x00D6 [0x01] GOTO 0x00D9

SUBROUTINE_00D9:
 42: 0x00D9 [0x21] END_EVENT
 43: 0x00DA [0x00] END_REQSTACK()
```

### Event 10

#### Metadata

| Field        | Value   |
|--------------|---------|
| Entrypoint   | 0x00DB  |
| Data Size    | 1 bytes |
| Instructions | 1       |

```
      00 01 02 03 04 05 06 07  08 09 0A 0B 0C 0D 0E 0F
      -- -- -- -- -- -- -- --  -- -- -- -- -- -- -- --
00D0:                                   00                         .    
```

#### Opcodes

```
  0: 0x00DB [0x00] END_REQSTACK()
```

### Event 11

#### Metadata

| Field        | Value    |
|--------------|----------|
| Entrypoint   | 0x00DC   |
| Data Size    | 26 bytes |
| Instructions | 10       |

```
      00 01 02 03 04 05 06 07  08 09 0A 0B 0C 0D 0E 0F
      -- -- -- -- -- -- -- --  -- -- -- -- -- -- -- --
00D0:                                      42 1E F0 FF              B...
00E0: FF 7F 6F 70 2B E9 D1 03  01 18 80 23 2B E9 D1 03  ..op+......#+...
00F0: 01 19 80 23 21 00                                 ...#!.          
```

#### Opcodes

```
  0: 0x00DC [0x42] SET_CLI_EVENT_CANCEL_DATA()
  1: 0x00DD [0x1E] EventEntity looks at LocalPlayer and starts talking
  2: 0x00E2 [0x6F] WAIT_FRAME_DELAY: Yield until WaitTime reaches zero
  3: 0x00E3 [0x70] WAIT_ENTITY_RENDER_FLAG: Wait while EventEntity->Render.Flags3 bit 2 is set (cancel turn if not)
  4: 0x00E4 [0x2B] Waudeen (ID: 17027561/0x0103D1E9) [7554*]:
    → "The way is neither smooth nor easy, and you cannot turn from the road you have chosen. Stay vigilant against the beast within."
  5: 0x00EB [0x23] WAIT_FOR_DIALOG_INTERACTION
  6: 0x00EC [0x2B] Waudeen (ID: 17027561/0x0103D1E9) [7555*]:
    → "That is all the wisdom I can give you. Be well, <Player>."
  7: 0x00F3 [0x23] WAIT_FOR_DIALOG_INTERACTION
  8: 0x00F4 [0x21] END_EVENT
  9: 0x00F5 [0x00] END_REQSTACK()
```

### Event 65535.1

#### Metadata

| Field        | Value    |
|--------------|----------|
| Entrypoint   | 0x00F6   |
| Data Size    | 37 bytes |
| Instructions | 5        |

```
      00 01 02 03 04 05 06 07  08 09 0A 0B 0C 0D 0E 0F
      -- -- -- -- -- -- -- --  -- -- -- -- -- -- -- --
00F0:                   03 00  00 07 7F 1A 40 01 66 01        ......@.f.
0100: 00 F8 FF FF 7F F8 FF FF  7F 73 68 61 30 53 F8 FF  .........sha0S..
0110: FF 7F F8 FF FF 7F 73 68  61 30 00                 ......sha0.     
```

#### Opcodes

```
  0: 0x00F6 [0x03] ExtData[1]->WorkLocal[0] = Entity->Race
  1: 0x00FB [0x1A] CALL_SUBROUTINE(address=0x0140)
  2: 0x00FE [0x66] LOAD_EXT_SCHEDULER_MAIN: Load scheduler "sha0" with entities [EventEntity, EventEntity], work=ExtData[1]->WorkLocal[1]
  3: 0x010D [0x53] WAIT_SCHEDULER_TASK: Wait for scheduler "sha0" with entities [EventEntity, EventEntity]
  4: 0x011A [0x00] END_REQSTACK()
```

### Event 65535.2

#### Metadata

| Field        | Value     |
|--------------|-----------|
| Entrypoint   | 0x011B    |
| Data Size    | 185 bytes |
| Instructions | 13        |

```
      00 01 02 03 04 05 06 07  08 09 0A 0B 0C 0D 0E 0F
      -- -- -- -- -- -- -- --  -- -- -- -- -- -- -- --
0110:                                   03 00 00 07 7F             .....
0120: 1A 40 01 66 01 00 F8 FF  FF 7F F8 FF FF 7F 73 68  .@.f..........sh
0130: 61 31 53 F8 FF FF 7F F8  FF FF 7F 73 68 61 31 00  a1S........sha1.
0140: 03 01 00 00 00 02 01 00  1A 80 05 55 01 08 01 00  ...........U....
0150: 0D 80 01 5A 01 08 01 00  14 80 14 01 00 1B 80 07  ...Z............
0160: 01 00 1C 80 1B 03 01 00  00 00 02 01 00 1A 80 05  ................
0170: 7A 01 08 01 00 0D 80 01  7F 01 08 01 00 14 80 14  z...............
0180: 01 00 1B 80 07 01 00 1D  80 1B 03 01 00 00 00 02  ................
0190: 01 00 1A 80 05 9F 01 08  01 00 0D 80 01 A4 01 08  ................
01A0: 01 00 14 80 14 01 00 1B  80 07 01 00 1E 80 1B 03  ................
01B0: 01 00 00 00 02 01 00 1A  80 05 C4 01 08 01 00 0D  ................
01C0: 80 01 C9 01 08 01 00 14  80 14 01 00 1B 80 07 01  ................
01D0: 00 1F 80 1B                                       ....            
```

#### Opcodes

```
  0: 0x011B [0x03] ExtData[1]->WorkLocal[0] = Entity->Race
  1: 0x0120 [0x1A] CALL_SUBROUTINE(address=0x0140)
  2: 0x0123 [0x66] LOAD_EXT_SCHEDULER_MAIN: Load scheduler "sha1" with entities [EventEntity, EventEntity], work=ExtData[1]->WorkLocal[1]
  3: 0x0132 [0x53] WAIT_SCHEDULER_TASK: Wait for scheduler "sha1" with entities [EventEntity, EventEntity]
  4: 0x013F [0x00] END_REQSTACK()

SUBROUTINE_0140:
  5: 0x0140 [0x03] ExtData[1]->WorkLocal[1] = ExtData[1]->WorkLocal[0]
  6: 0x0145 [0x02] IF !(ExtData[1]->WorkLocal[1] > 5*) GOTO 0x0155
  7: 0x014D [0x08] ExtData[1]->WorkLocal[1] -= 1*
  8: 0x0152 [0x01] GOTO 0x015A
  9: 0x0155 [0x08] ExtData[1]->WorkLocal[1] -= 2*

SUBROUTINE_015A:
 10: 0x015A [0x14] ExtData[1]->WorkLocal[1] *= 10*
 11: 0x015F [0x07] ExtData[1]->WorkLocal[1] += 9*
 12: 0x0164 [0x1B] RETURN
```

#### Data or dead code:

```
# Dead code (unreachable instructions):
     0x0165 [0x03] ExtData[1]->WorkLocal[1] = ExtData[1]->WorkLocal[0]
     0x016A [0x02] IF !(ExtData[1]->WorkLocal[1] > 5*) GOTO 0x017A
     0x0172 [0x08] ExtData[1]->WorkLocal[1] -= 1*
     0x0177 [0x01] GOTO 0x017F
     0x017A [0x08] ExtData[1]->WorkLocal[1] -= 2*
     0x017F [0x14] ExtData[1]->WorkLocal[1] *= 10*
     0x0184 [0x07] ExtData[1]->WorkLocal[1] += 70*
     0x0189 [0x1B] RETURN
     0x018A [0x03] ExtData[1]->WorkLocal[1] = ExtData[1]->WorkLocal[0]
     0x018F [0x02] IF !(ExtData[1]->WorkLocal[1] > 5*) GOTO 0x019F
     0x0197 [0x08] ExtData[1]->WorkLocal[1] -= 1*
     0x019C [0x01] GOTO 0x01A4
     0x019F [0x08] ExtData[1]->WorkLocal[1] -= 2*
     0x01A4 [0x14] ExtData[1]->WorkLocal[1] *= 10*
     0x01A9 [0x07] ExtData[1]->WorkLocal[1] += 140*
     0x01AE [0x1B] RETURN
     0x01AF [0x03] ExtData[1]->WorkLocal[1] = ExtData[1]->WorkLocal[0]
     0x01B4 [0x02] IF !(ExtData[1]->WorkLocal[1] > 5*) GOTO 0x01C4
     0x01BC [0x08] ExtData[1]->WorkLocal[1] -= 1*
     0x01C1 [0x01] GOTO 0x01C9
     0x01C4 [0x08] ExtData[1]->WorkLocal[1] -= 2*
     0x01C9 [0x14] ExtData[1]->WorkLocal[1] *= 10*
     0x01CE [0x07] ExtData[1]->WorkLocal[1] += 210*
     0x01D3 [0x1B] RETURN
```
