# 17027599 - hei08

## Common Data

| Field            | Value                  |
|------------------|------------------------|
| Zone             | Mount Zhayolm (ID: 61) |
| Block Size       | 196 bytes              |
| Total Events     | 6                      |
| References Count | 14                     |

## List of Events

| Event ID                 | Entrypoint   |   Size |   Instructions |
|--------------------------|--------------|--------|----------------|
| [65535](#event-65535)    | 0x0000       |      1 |              1 |
| [16](#event-16)          | 0x0001       |      1 |              1 |
| [65535.1](#event-655351) | 0x0002       |     19 |              4 |
| [65535.2](#event-655352) | 0x0015       |     34 |              7 |
| [65535.3](#event-655353) | 0x0037       |     21 |              2 |
| [65535.4](#event-655354) | 0x004C       |     21 |              2 |

## DAT References (imed_data)

|   Index | Hex Value   |   Dec Value |
|---------|-------------|-------------|
|       0 | 0x000D      |          13 |
|       1 | 0xC873A     |      821050 |
|       2 | 0x3325C     |      209500 |
|       3 | 0xFFFFBADC  |  4294949596 |
|       4 | 0xC5BEC     |      809964 |
|       5 | 0x38700     |      231168 |
|       6 | 0xFFFFC840  |  4294953024 |
|       7 | 0x0001      |           1 |
|       8 | 0x000E      |          14 |
|       9 | 0x00AE      |         174 |
|      10 | 0x00AB      |         171 |
|      11 | 0x0177      |         375 |
|      12 | 0x0000      |           0 |
|      13 | 0x015D      |         349 |

## Events

### Event 65535

#### Metadata

| Field        | Value   |
|--------------|---------|
| Entrypoint   | 0x0000  |
| Data Size    | 1 bytes |
| Instructions | 1       |

```
      00 01 02 03 04 05 06 07  08 09 0A 0B 0C 0D 0E 0F
      -- -- -- -- -- -- -- --  -- -- -- -- -- -- -- --
0000: 00                                                .               
```

#### Opcodes

```
  0: 0x0000 [0x00] END_REQSTACK()
```

### Event 16

#### Metadata

| Field        | Value   |
|--------------|---------|
| Entrypoint   | 0x0001  |
| Data Size    | 1 bytes |
| Instructions | 1       |

```
      00 01 02 03 04 05 06 07  08 09 0A 0B 0C 0D 0E 0F
      -- -- -- -- -- -- -- --  -- -- -- -- -- -- -- --
0000:    00                                              .              
```

#### Opcodes

```
  0: 0x0001 [0x00] END_REQSTACK()
```

### Event 65535.1

#### Metadata

| Field        | Value    |
|--------------|----------|
| Entrypoint   | 0x0002   |
| Data Size    | 19 bytes |
| Instructions | 4        |

```
      00 01 02 03 04 05 06 07  08 09 0A 0B 0C 0D 0E 0F
      -- -- -- -- -- -- -- --  -- -- -- -- -- -- -- --
0000:       59 04 0F D2 03 01  00 80 1F 00 01 80 02 80    Y.............
0010: 03 80 1F 01 00                                    .....           
```

#### Opcodes

```
  0: 0x0002 [0x59] UPDATE_ENTITY_DATA: Set hei08 (ID: 17027599/0x0103D20F) main speed = 13* * 0.1
  1: 0x000A [0x1F] MOVE_ENTITY: EventEntity moves to X=821.050*, Z=209.500*, Y=-17.700*
  2: 0x0012 [0x1F] MOVE_ENTITY: Update entity position (mode=1)
  3: 0x0014 [0x00] END_REQSTACK()
```

### Event 65535.2

#### Metadata

| Field        | Value    |
|--------------|----------|
| Entrypoint   | 0x0015   |
| Data Size    | 34 bytes |
| Instructions | 7        |

```
      00 01 02 03 04 05 06 07  08 09 0A 0B 0C 0D 0E 0F
      -- -- -- -- -- -- -- --  -- -- -- -- -- -- -- --
0010:                59 04 0F  D2 03 01 00 80 1F 00 04       Y..........
0020: 80 05 80 06 80 1F 01 6F  4A 0F D2 03 01 07 D2 03  .......oJ.......
0030: 01 7B 0F D2 03 01 00                              .{.....         
```

#### Opcodes

```
  0: 0x0015 [0x59] UPDATE_ENTITY_DATA: Set hei08 (ID: 17027599/0x0103D20F) main speed = 13* * 0.1
  1: 0x001D [0x1F] MOVE_ENTITY: EventEntity moves to X=809.964*, Z=231.168*, Y=-14.272*
  2: 0x0025 [0x1F] MOVE_ENTITY: Update entity position (mode=1)
  3: 0x0027 [0x6F] WAIT_FRAME_DELAY: Yield until WaitTime reaches zero
  4: 0x0028 [0x4A] hei08 (ID: 17027599/0x0103D20F) looks at ??? (ID: 17027591/0x0103D207)
  5: 0x0031 [0x7B] hei08 (ID: 17027599/0x0103D20F) stops talking
  6: 0x0036 [0x00] END_REQSTACK()
```

### Event 65535.3

#### Metadata

| Field        | Value    |
|--------------|----------|
| Entrypoint   | 0x0037   |
| Data Size    | 21 bytes |
| Instructions | 2        |

```
      00 01 02 03 04 05 06 07  08 09 0A 0B 0C 0D 0E 0F
      -- -- -- -- -- -- -- --  -- -- -- -- -- -- -- --
0030:                      B6  0B 07 80 08 80 09 80 0A         .........
0040: 80 0A 80 0A 80 0A 80 0B  80 0C 80 00              ............    
```

#### Opcodes

```
  0: 0x0037 [0xB6] ENTITY_APPEARANCE_HANDLER(case=Full entity look, race=1*, hair=14*, head=174*, body=171*, hands=171*, legs=171*, feet=171*, main=375*, sub=0*)
  1: 0x004B [0x00] END_REQSTACK()
```

### Event 65535.4

#### Metadata

| Field        | Value    |
|--------------|----------|
| Entrypoint   | 0x004C   |
| Data Size    | 21 bytes |
| Instructions | 2        |

```
      00 01 02 03 04 05 06 07  08 09 0A 0B 0C 0D 0E 0F
      -- -- -- -- -- -- -- --  -- -- -- -- -- -- -- --
0040:                                      B6 0B 07 80              ....
0050: 08 80 09 80 0A 80 0A 80  0A 80 0A 80 0D 80 0C 80  ................
0060: 00                                                .               
```

#### Opcodes

```
  0: 0x004C [0xB6] ENTITY_APPEARANCE_HANDLER(case=Full entity look, race=1*, hair=14*, head=174*, body=171*, hands=171*, legs=171*, feet=171*, main=349*, sub=0*)
  1: 0x0060 [0x00] END_REQSTACK()
```
