# 17027591

## Common Data

| Field            | Value                  |
|------------------|------------------------|
| Zone             | Mount Zhayolm (ID: 61) |
| Block Size       | 1152 bytes             |
| Total Events     | 34                     |
| References Count | 32                     |

## List of Events

| Event ID                   | Entrypoint   |   Size |   Instructions |
|----------------------------|--------------|--------|----------------|
| [65535](#event-65535)      | 0x0000       |      1 |              1 |
| [15](#event-15)            | 0x0001       |      1 |              1 |
| [16](#event-16)            | 0x0002       |      1 |              1 |
| [65535.1](#event-655351)   | 0x0003       |     38 |              7 |
| [65535.2](#event-655352)   | 0x0029       |     44 |              6 |
| [65535.3](#event-655353)   | 0x0055       |     32 |              4 |
| [65535.4](#event-655354)   | 0x0075       |     72 |              8 |
| [65535.5](#event-655355)   | 0x00BD       |     45 |              6 |
| [65535.6](#event-655356)   | 0x00EA       |      4 |              2 |
| [65535.7](#event-655357)   | 0x00EE       |     50 |              6 |
| [65535.8](#event-655358)   | 0x0120       |     47 |              5 |
| [65535.9](#event-655359)   | 0x014F       |     16 |              4 |
| [65535.10](#event-6553510) | 0x015F       |     28 |              6 |
| [65535.11](#event-6553511) | 0x017B       |     44 |              6 |
| [65535.12](#event-6553512) | 0x01A7       |     16 |              4 |
| [65535.13](#event-6553513) | 0x01B7       |     56 |              8 |
| [65535.14](#event-6553514) | 0x01EF       |     17 |              4 |
| [65535.15](#event-6553515) | 0x0200       |     16 |              4 |
| [65535.16](#event-6553516) | 0x0210       |     16 |              4 |
| [65535.17](#event-6553517) | 0x0220       |      4 |              2 |
| [65535.18](#event-6553518) | 0x0224       |      4 |              2 |
| [65535.19](#event-6553519) | 0x0228       |     16 |              4 |
| [65535.20](#event-6553520) | 0x0238       |     16 |              4 |
| [65535.21](#event-6553521) | 0x0248       |     44 |              6 |
| [65535.22](#event-6553522) | 0x0274       |      4 |              2 |
| [65535.23](#event-6553523) | 0x0278       |     16 |              4 |
| [65535.24](#event-6553524) | 0x0288       |     19 |              5 |
| [65535.25](#event-6553525) | 0x029B       |     16 |              4 |
| [65535.26](#event-6553526) | 0x02AB       |     47 |              5 |
| [65535.27](#event-6553527) | 0x02DA       |     16 |              4 |
| [65535.28](#event-6553528) | 0x02EA       |      4 |              2 |
| [65535.29](#event-6553529) | 0x02EE       |     85 |              7 |
| [65535.30](#event-6553530) | 0x0343       |     16 |              4 |
| [65535.31](#event-6553531) | 0x0353       |     19 |              5 |

## DAT References (imed_data)

|   Index | Hex Value   |   Dec Value |
|---------|-------------|-------------|
|       0 | 0x0022      |          34 |
|       1 | 0x001A      |          26 |
|       2 | 0x0082      |         130 |
|       3 | 0x003C      |          60 |
|       4 | 0x002A      |          42 |
|       5 | 0x0031      |          49 |
|       6 | 0x000B      |          11 |
|       7 | 0x0050      |          80 |
|       8 | 0x055D      |        1373 |
|       9 | 0x0032      |          50 |
|      10 | 0x014A      |         330 |
|      11 | 0x00D2      |         210 |
|      12 | 0x001E      |          30 |
|      13 | 0x0028      |          40 |
|      14 | 0x0026      |          38 |
|      15 | 0x0078      |         120 |
|      16 | 0x0015      |          21 |
|      17 | 0x001D      |          29 |
|      18 | 0x0012      |          18 |
|      19 | 0x0096      |         150 |
|      20 | 0x0016      |          22 |
|      21 | 0x0021      |          33 |
|      22 | 0x00B4      |         180 |
|      23 | 0x028A      |         650 |
|      24 | 0x0064      |         100 |
|      25 | 0x0000      |           0 |
|      26 | 0x0009      |           9 |
|      27 | 0x002D      |          45 |
|      28 | 0x0019      |          25 |
|      29 | 0x0006      |           6 |
|      30 | 0x015E      |         350 |
|      31 | 0x0013      |          19 |

## Events

### Event 65535

#### Metadata

| Field        | Value   |
|--------------|---------|
| Entrypoint   | 0x0000  |
| Data Size    | 1 bytes |
| Instructions | 1       |

```
      00 01 02 03 04 05 06 07  08 09 0A 0B 0C 0D 0E 0F
      -- -- -- -- -- -- -- --  -- -- -- -- -- -- -- --
0000: 00                                                .               
```

#### Opcodes

```
  0: 0x0000 [0x00] END_REQSTACK()
```

### Event 15

#### Metadata

| Field        | Value   |
|--------------|---------|
| Entrypoint   | 0x0001  |
| Data Size    | 1 bytes |
| Instructions | 1       |

```
      00 01 02 03 04 05 06 07  08 09 0A 0B 0C 0D 0E 0F
      -- -- -- -- -- -- -- --  -- -- -- -- -- -- -- --
0000:    00                                              .              
```

#### Opcodes

```
  0: 0x0001 [0x00] END_REQSTACK()
```

### Event 16

#### Metadata

| Field        | Value   |
|--------------|---------|
| Entrypoint   | 0x0002  |
| Data Size    | 1 bytes |
| Instructions | 1       |

```
      00 01 02 03 04 05 06 07  08 09 0A 0B 0C 0D 0E 0F
      -- -- -- -- -- -- -- --  -- -- -- -- -- -- -- --
0000:       00                                            .             
```

#### Opcodes

```
  0: 0x0002 [0x00] END_REQSTACK()
```

### Event 65535.1

#### Metadata

| Field        | Value    |
|--------------|----------|
| Entrypoint   | 0x0003   |
| Data Size    | 38 bytes |
| Instructions | 7        |

```
      00 01 02 03 04 05 06 07  08 09 0A 0B 0C 0D 0E 0F
      -- -- -- -- -- -- -- --  -- -- -- -- -- -- -- --
0000:          7B F0 FF FF 7F  29 10 F0 FF FF 7F 2D 4A     {....).....-J
0010: F0 FF FF 7F F6 D1 03 01  79 00 F0 FF FF 7F F6 D1  ........y.......
0020: 03 01 6F 76 F0 FF FF 7F  00                       ..ov.....       
```

#### Opcodes

```
  0: 0x0003 [0x7B] LocalPlayer stops talking
  1: 0x0008 [0x29] REQ_SET_WAIT(priority=0x10, entity_id=LocalPlayer, tag_num=0x2D)
  2: 0x000F [0x4A] LocalPlayer looks at Fari-Wari (ID: 17027574/0x0103D1F6)
  3: 0x0018 [0x79] LocalPlayer looks at Fari-Wari (ID: 17027574/0x0103D1F6) (Basic look)
  4: 0x0022 [0x6F] WAIT_FRAME_DELAY: Yield until WaitTime reaches zero
  5: 0x0023 [0x76] CHECK_ENTITY_RENDER_FLAGS: Wait until LocalPlayer Render.Flags0 and Render.Flags3 conditions are met
  6: 0x0028 [0x00] END_REQSTACK()
```

### Event 65535.2

#### Metadata

| Field        | Value    |
|--------------|----------|
| Entrypoint   | 0x0029   |
| Data Size    | 44 bytes |
| Instructions | 6        |

```
      00 01 02 03 04 05 06 07  08 09 0A 0B 0C 0D 0E 0F
      -- -- -- -- -- -- -- --  -- -- -- -- -- -- -- --
0020:                             66 00 80 F6 D1 03 01           f......
0030: F6 D1 03 01 77 61 76 30  53 F6 D1 03 01 F6 D1 03  ....wav0S.......
0040: 01 77 61 76 30 6E F6 D1  03 01 01 80 99 F6 D1 03  .wav0n..........
0050: 01 1C 02 80 00                                    .....           
```

#### Opcodes

```
  0: 0x0029 [0x66] LOAD_EXT_SCHEDULER_MAIN: Load scheduler "wav0" with entities [Fari-Wari (ID: 17027574/0x0103D1F6), Fari-Wari (ID: 17027574/0x0103D1F6)], work=34*
  1: 0x0038 [0x53] WAIT_SCHEDULER_TASK: Wait for scheduler "wav0" with entities [Fari-Wari (ID: 17027574/0x0103D1F6), Fari-Wari (ID: 17027574/0x0103D1F6)]
  2: 0x0045 [0x6E] Fari-Wari (ID: 17027574/0x0103D1F6) uses emote 26*
  3: 0x004C [0x99] Wait for Fari-Wari (ID: 17027574/0x0103D1F6) animation to complete
  4: 0x0051 [0x1C] WAIT(130* ticks)
  5: 0x0054 [0x00] END_REQSTACK()
```

### Event 65535.3

#### Metadata

| Field        | Value    |
|--------------|----------|
| Entrypoint   | 0x0055   |
| Data Size    | 32 bytes |
| Instructions | 4        |

```
      00 01 02 03 04 05 06 07  08 09 0A 0B 0C 0D 0E 0F
      -- -- -- -- -- -- -- --  -- -- -- -- -- -- -- --
0050:                1C 03 80  66 04 80 F6 D1 03 01 F6       ...f.......
0060: D1 03 01 67 6B 72 30 53  F6 D1 03 01 F6 D1 03 01  ...gkr0S........
0070: 67 6B 72 30 00                                    gkr0.           
```

#### Opcodes

```
  0: 0x0055 [0x1C] WAIT(60* ticks)
  1: 0x0058 [0x66] LOAD_EXT_SCHEDULER_MAIN: Load scheduler "gkr0" with entities [Fari-Wari (ID: 17027574/0x0103D1F6), Fari-Wari (ID: 17027574/0x0103D1F6)], work=42*
  2: 0x0067 [0x53] WAIT_SCHEDULER_TASK: Wait for scheduler "gkr0" with entities [Fari-Wari (ID: 17027574/0x0103D1F6), Fari-Wari (ID: 17027574/0x0103D1F6)]
  3: 0x0074 [0x00] END_REQSTACK()
```

### Event 65535.4

#### Metadata

| Field        | Value    |
|--------------|----------|
| Entrypoint   | 0x0075   |
| Data Size    | 72 bytes |
| Instructions | 8        |

```
      00 01 02 03 04 05 06 07  08 09 0A 0B 0C 0D 0E 0F
      -- -- -- -- -- -- -- --  -- -- -- -- -- -- -- --
0070:                66 05 80  F6 D1 03 01 F6 D1 03 01       f..........
0080: 74 6C 6B 30 53 F6 D1 03  01 F6 D1 03 01 74 6C 6B  tlk0S........tlk
0090: 30 66 05 80 F6 D1 03 01  F6 D1 03 01 74 6C 6B 31  0f..........tlk1
00A0: 53 F6 D1 03 01 F6 D1 03  01 74 6C 6B 31 6E F6 D1  S........tlk1n..
00B0: 03 01 06 80 99 F6 D1 03  01 1C 07 80 00           .............   
```

#### Opcodes

```
  0: 0x0075 [0x66] LOAD_EXT_SCHEDULER_MAIN: Load scheduler "tlk0" with entities [Fari-Wari (ID: 17027574/0x0103D1F6), Fari-Wari (ID: 17027574/0x0103D1F6)], work=49*
  1: 0x0084 [0x53] WAIT_SCHEDULER_TASK: Wait for scheduler "tlk0" with entities [Fari-Wari (ID: 17027574/0x0103D1F6), Fari-Wari (ID: 17027574/0x0103D1F6)]
  2: 0x0091 [0x66] LOAD_EXT_SCHEDULER_MAIN: Load scheduler "tlk1" with entities [Fari-Wari (ID: 17027574/0x0103D1F6), Fari-Wari (ID: 17027574/0x0103D1F6)], work=49*
  3: 0x00A0 [0x53] WAIT_SCHEDULER_TASK: Wait for scheduler "tlk1" with entities [Fari-Wari (ID: 17027574/0x0103D1F6), Fari-Wari (ID: 17027574/0x0103D1F6)]
  4: 0x00AD [0x6E] Fari-Wari (ID: 17027574/0x0103D1F6) uses emote 11*
  5: 0x00B4 [0x99] Wait for Fari-Wari (ID: 17027574/0x0103D1F6) animation to complete
  6: 0x00B9 [0x1C] WAIT(80* ticks)
  7: 0x00BC [0x00] END_REQSTACK()
```

### Event 65535.5

#### Metadata

| Field        | Value    |
|--------------|----------|
| Entrypoint   | 0x00BD   |
| Data Size    | 45 bytes |
| Instructions | 6        |

```
      00 01 02 03 04 05 06 07  08 09 0A 0B 0C 0D 0E 0F
      -- -- -- -- -- -- -- --  -- -- -- -- -- -- -- --
00B0:                                         5B 08 80               [..
00C0: F6 D1 03 01 F6 D1 03 01  67 75 64 30 53 F6 D1 03  ........gud0S...
00D0: 01 F6 D1 03 01 67 75 64  30 1C 09 80 79 00 F6 D1  .....gud0...y...
00E0: 03 01 07 D2 03 01 1C 02  80 00                    ..........      
```

#### Opcodes

```
  0: 0x00BD [0x5B] LOAD_EXT_SCHEDULER: Load scheduler "gud0" with entities [Fari-Wari (ID: 17027574/0x0103D1F6), Fari-Wari (ID: 17027574/0x0103D1F6)], work=1373*
  1: 0x00CC [0x53] WAIT_SCHEDULER_TASK: Wait for scheduler "gud0" with entities [Fari-Wari (ID: 17027574/0x0103D1F6), Fari-Wari (ID: 17027574/0x0103D1F6)]
  2: 0x00D9 [0x1C] WAIT(50* ticks)
  3: 0x00DC [0x79] Fari-Wari (ID: 17027574/0x0103D1F6) looks at ??? (ID: 17027591/0x0103D207) (Basic look)
  4: 0x00E6 [0x1C] WAIT(130* ticks)
  5: 0x00E9 [0x00] END_REQSTACK()
```

### Event 65535.6

#### Metadata

| Field        | Value   |
|--------------|---------|
| Entrypoint   | 0x00EA  |
| Data Size    | 4 bytes |
| Instructions | 2       |

```
      00 01 02 03 04 05 06 07  08 09 0A 0B 0C 0D 0E 0F
      -- -- -- -- -- -- -- --  -- -- -- -- -- -- -- --
00E0:                                1C 0A 80 00                  ....  
```

#### Opcodes

```
  0: 0x00EA [0x1C] WAIT(330* ticks)
  1: 0x00ED [0x00] END_REQSTACK()
```

### Event 65535.7

#### Metadata

| Field        | Value    |
|--------------|----------|
| Entrypoint   | 0x00EE   |
| Data Size    | 50 bytes |
| Instructions | 6        |

```
      00 01 02 03 04 05 06 07  08 09 0A 0B 0C 0D 0E 0F
      -- -- -- -- -- -- -- --  -- -- -- -- -- -- -- --
00E0:                                            66 05                f.
00F0: 80 F6 D1 03 01 F6 D1 03  01 74 68 6B 31 1C 0B 80  .........thk1...
0100: 66 04 80 F6 D1 03 01 F6  D1 03 01 62 69 6B 30 53  f..........bik0S
0110: F6 D1 03 01 F6 D1 03 01  62 69 6B 30 1C 0C 80 00  ........bik0....
```

#### Opcodes

```
  0: 0x00EE [0x66] LOAD_EXT_SCHEDULER_MAIN: Load scheduler "thk1" with entities [Fari-Wari (ID: 17027574/0x0103D1F6), Fari-Wari (ID: 17027574/0x0103D1F6)], work=49*
  1: 0x00FD [0x1C] WAIT(210* ticks)
  2: 0x0100 [0x66] LOAD_EXT_SCHEDULER_MAIN: Load scheduler "bik0" with entities [Fari-Wari (ID: 17027574/0x0103D1F6), Fari-Wari (ID: 17027574/0x0103D1F6)], work=42*
  3: 0x010F [0x53] WAIT_SCHEDULER_TASK: Wait for scheduler "bik0" with entities [Fari-Wari (ID: 17027574/0x0103D1F6), Fari-Wari (ID: 17027574/0x0103D1F6)]
  4: 0x011C [0x1C] WAIT(30* ticks)
  5: 0x011F [0x00] END_REQSTACK()
```

### Event 65535.8

#### Metadata

| Field        | Value    |
|--------------|----------|
| Entrypoint   | 0x0120   |
| Data Size    | 47 bytes |
| Instructions | 5        |

```
      00 01 02 03 04 05 06 07  08 09 0A 0B 0C 0D 0E 0F
      -- -- -- -- -- -- -- --  -- -- -- -- -- -- -- --
0120: 1C 03 80 66 0D 80 F6 D1  03 01 F6 D1 03 01 74 68  ...f..........th
0130: 6B 32 53 F6 D1 03 01 F6  D1 03 01 74 68 6B 32 66  k2S........thk2f
0140: 04 80 F6 D1 03 01 F6 D1  03 01 62 69 6B 30 00     ..........bik0. 
```

#### Opcodes

```
  0: 0x0120 [0x1C] WAIT(60* ticks)
  1: 0x0123 [0x66] LOAD_EXT_SCHEDULER_MAIN: Load scheduler "thk2" with entities [Fari-Wari (ID: 17027574/0x0103D1F6), Fari-Wari (ID: 17027574/0x0103D1F6)], work=40*
  2: 0x0132 [0x53] WAIT_SCHEDULER_TASK: Wait for scheduler "thk2" with entities [Fari-Wari (ID: 17027574/0x0103D1F6), Fari-Wari (ID: 17027574/0x0103D1F6)]
  3: 0x013F [0x66] LOAD_EXT_SCHEDULER_MAIN: Load scheduler "bik0" with entities [Fari-Wari (ID: 17027574/0x0103D1F6), Fari-Wari (ID: 17027574/0x0103D1F6)], work=42*
  4: 0x014E [0x00] END_REQSTACK()
```

### Event 65535.9

#### Metadata

| Field        | Value    |
|--------------|----------|
| Entrypoint   | 0x014F   |
| Data Size    | 16 bytes |
| Instructions | 4        |

```
      00 01 02 03 04 05 06 07  08 09 0A 0B 0C 0D 0E 0F
      -- -- -- -- -- -- -- --  -- -- -- -- -- -- -- --
0140:                                               6E                 n
0150: F6 D1 03 01 0E 80 99 F6  D1 03 01 1C 0F 80 00     ............... 
```

#### Opcodes

```
  0: 0x014F [0x6E] Fari-Wari (ID: 17027574/0x0103D1F6) uses emote 38*
  1: 0x0156 [0x99] Wait for Fari-Wari (ID: 17027574/0x0103D1F6) animation to complete
  2: 0x015B [0x1C] WAIT(120* ticks)
  3: 0x015E [0x00] END_REQSTACK()
```

### Event 65535.10

#### Metadata

| Field        | Value    |
|--------------|----------|
| Entrypoint   | 0x015F   |
| Data Size    | 28 bytes |
| Instructions | 6        |

```
      00 01 02 03 04 05 06 07  08 09 0A 0B 0C 0D 0E 0F
      -- -- -- -- -- -- -- --  -- -- -- -- -- -- -- --
0150:                                               6E                 n
0160: F6 D1 03 01 10 80 99 F6  D1 03 01 1C 0F 80 6E F6  ..............n.
0170: D1 03 01 11 80 99 F6 D1  03 01 00                 ...........     
```

#### Opcodes

```
  0: 0x015F [0x6E] Fari-Wari (ID: 17027574/0x0103D1F6) uses emote 21*
  1: 0x0166 [0x99] Wait for Fari-Wari (ID: 17027574/0x0103D1F6) animation to complete
  2: 0x016B [0x1C] WAIT(120* ticks)
  3: 0x016E [0x6E] Fari-Wari (ID: 17027574/0x0103D1F6) uses emote 29*
  4: 0x0175 [0x99] Wait for Fari-Wari (ID: 17027574/0x0103D1F6) animation to complete
  5: 0x017A [0x00] END_REQSTACK()
```

### Event 65535.11

#### Metadata

| Field        | Value    |
|--------------|----------|
| Entrypoint   | 0x017B   |
| Data Size    | 44 bytes |
| Instructions | 6        |

```
      00 01 02 03 04 05 06 07  08 09 0A 0B 0C 0D 0E 0F
      -- -- -- -- -- -- -- --  -- -- -- -- -- -- -- --
0170:                                   6E F6 D1 03 01             n....
0180: 11 80 99 F6 D1 03 01 1C  0F 80 66 0D 80 F6 D1 03  ..........f.....
0190: 01 F6 D1 03 01 6D 6F 6A  30 53 F6 D1 03 01 F6 D1  .....moj0S......
01A0: 03 01 6D 6F 6A 30 00                              ..moj0.         
```

#### Opcodes

```
  0: 0x017B [0x6E] Fari-Wari (ID: 17027574/0x0103D1F6) uses emote 29*
  1: 0x0182 [0x99] Wait for Fari-Wari (ID: 17027574/0x0103D1F6) animation to complete
  2: 0x0187 [0x1C] WAIT(120* ticks)
  3: 0x018A [0x66] LOAD_EXT_SCHEDULER_MAIN: Load scheduler "moj0" with entities [Fari-Wari (ID: 17027574/0x0103D1F6), Fari-Wari (ID: 17027574/0x0103D1F6)], work=40*
  4: 0x0199 [0x53] WAIT_SCHEDULER_TASK: Wait for scheduler "moj0" with entities [Fari-Wari (ID: 17027574/0x0103D1F6), Fari-Wari (ID: 17027574/0x0103D1F6)]
  5: 0x01A6 [0x00] END_REQSTACK()
```

### Event 65535.12

#### Metadata

| Field        | Value    |
|--------------|----------|
| Entrypoint   | 0x01A7   |
| Data Size    | 16 bytes |
| Instructions | 4        |

```
      00 01 02 03 04 05 06 07  08 09 0A 0B 0C 0D 0E 0F
      -- -- -- -- -- -- -- --  -- -- -- -- -- -- -- --
01A0:                      6E  F6 D1 03 01 11 80 99 F6         n........
01B0: D1 03 01 1C 0F 80 00                              .......         
```

#### Opcodes

```
  0: 0x01A7 [0x6E] Fari-Wari (ID: 17027574/0x0103D1F6) uses emote 29*
  1: 0x01AE [0x99] Wait for Fari-Wari (ID: 17027574/0x0103D1F6) animation to complete
  2: 0x01B3 [0x1C] WAIT(120* ticks)
  3: 0x01B6 [0x00] END_REQSTACK()
```

### Event 65535.13

#### Metadata

| Field        | Value    |
|--------------|----------|
| Entrypoint   | 0x01B7   |
| Data Size    | 56 bytes |
| Instructions | 8        |

```
      00 01 02 03 04 05 06 07  08 09 0A 0B 0C 0D 0E 0F
      -- -- -- -- -- -- -- --  -- -- -- -- -- -- -- --
01B0:                      6E  F6 D1 03 01 12 80 99 F6         n........
01C0: D1 03 01 1C 13 80 6B 69  64 6C 30 F6 D1 03 01 1C  ......kidl0.....
01D0: 03 80 66 05 80 F6 D1 03  01 F6 D1 03 01 74 6C 6B  ..f..........tlk
01E0: 30 53 F6 D1 03 01 F6 D1  03 01 74 6C 6B 30 00     0S........tlk0. 
```

#### Opcodes

```
  0: 0x01B7 [0x6E] Fari-Wari (ID: 17027574/0x0103D1F6) uses emote 18*
  1: 0x01BE [0x99] Wait for Fari-Wari (ID: 17027574/0x0103D1F6) animation to complete
  2: 0x01C3 [0x1C] WAIT(150* ticks)
  3: 0x01C6 [0x6B] STOP_AND_IDLE: Fari-Wari (ID: 17027574/0x0103D1F6) stops current action and resets to idle (animation="idl0")
  4: 0x01CF [0x1C] WAIT(60* ticks)
  5: 0x01D2 [0x66] LOAD_EXT_SCHEDULER_MAIN: Load scheduler "tlk0" with entities [Fari-Wari (ID: 17027574/0x0103D1F6), Fari-Wari (ID: 17027574/0x0103D1F6)], work=49*
  6: 0x01E1 [0x53] WAIT_SCHEDULER_TASK: Wait for scheduler "tlk0" with entities [Fari-Wari (ID: 17027574/0x0103D1F6), Fari-Wari (ID: 17027574/0x0103D1F6)]
  7: 0x01EE [0x00] END_REQSTACK()
```

### Event 65535.14

#### Metadata

| Field        | Value    |
|--------------|----------|
| Entrypoint   | 0x01EF   |
| Data Size    | 17 bytes |
| Instructions | 4        |

```
      00 01 02 03 04 05 06 07  08 09 0A 0B 0C 0D 0E 0F
      -- -- -- -- -- -- -- --  -- -- -- -- -- -- -- --
01E0:                                               1C                 .
01F0: 09 80 79 00 F6 D1 03 01  0C D2 03 01 1C 02 80 00  ..y.............
```

#### Opcodes

```
  0: 0x01EF [0x1C] WAIT(50* ticks)
  1: 0x01F2 [0x79] Fari-Wari (ID: 17027574/0x0103D1F6) looks at hei05 (ID: 17027596/0x0103D20C) (Basic look)
  2: 0x01FC [0x1C] WAIT(130* ticks)
  3: 0x01FF [0x00] END_REQSTACK()
```

### Event 65535.15

#### Metadata

| Field        | Value    |
|--------------|----------|
| Entrypoint   | 0x0200   |
| Data Size    | 16 bytes |
| Instructions | 4        |

```
      00 01 02 03 04 05 06 07  08 09 0A 0B 0C 0D 0E 0F
      -- -- -- -- -- -- -- --  -- -- -- -- -- -- -- --
0200: 6E F6 D1 03 01 14 80 99  F6 D1 03 01 1C 0F 80 00  n...............
```

#### Opcodes

```
  0: 0x0200 [0x6E] Fari-Wari (ID: 17027574/0x0103D1F6) uses emote 22*
  1: 0x0207 [0x99] Wait for Fari-Wari (ID: 17027574/0x0103D1F6) animation to complete
  2: 0x020C [0x1C] WAIT(120* ticks)
  3: 0x020F [0x00] END_REQSTACK()
```

### Event 65535.16

#### Metadata

| Field        | Value    |
|--------------|----------|
| Entrypoint   | 0x0210   |
| Data Size    | 16 bytes |
| Instructions | 4        |

```
      00 01 02 03 04 05 06 07  08 09 0A 0B 0C 0D 0E 0F
      -- -- -- -- -- -- -- --  -- -- -- -- -- -- -- --
0210: 6E F6 D1 03 01 15 80 99  F6 D1 03 01 1C 16 80 00  n...............
```

#### Opcodes

```
  0: 0x0210 [0x6E] Fari-Wari (ID: 17027574/0x0103D1F6) uses emote 33*
  1: 0x0217 [0x99] Wait for Fari-Wari (ID: 17027574/0x0103D1F6) animation to complete
  2: 0x021C [0x1C] WAIT(180* ticks)
  3: 0x021F [0x00] END_REQSTACK()
```

### Event 65535.17

#### Metadata

| Field        | Value   |
|--------------|---------|
| Entrypoint   | 0x0220  |
| Data Size    | 4 bytes |
| Instructions | 2       |

```
      00 01 02 03 04 05 06 07  08 09 0A 0B 0C 0D 0E 0F
      -- -- -- -- -- -- -- --  -- -- -- -- -- -- -- --
0220: 1C 0A 80 00                                       ....            
```

#### Opcodes

```
  0: 0x0220 [0x1C] WAIT(330* ticks)
  1: 0x0223 [0x00] END_REQSTACK()
```

### Event 65535.18

#### Metadata

| Field        | Value   |
|--------------|---------|
| Entrypoint   | 0x0224  |
| Data Size    | 4 bytes |
| Instructions | 2       |

```
      00 01 02 03 04 05 06 07  08 09 0A 0B 0C 0D 0E 0F
      -- -- -- -- -- -- -- --  -- -- -- -- -- -- -- --
0220:             1C 17 80 00                               ....        
```

#### Opcodes

```
  0: 0x0224 [0x1C] WAIT(650* ticks)
  1: 0x0227 [0x00] END_REQSTACK()
```

### Event 65535.19

#### Metadata

| Field        | Value    |
|--------------|----------|
| Entrypoint   | 0x0228   |
| Data Size    | 16 bytes |
| Instructions | 4        |

```
      00 01 02 03 04 05 06 07  08 09 0A 0B 0C 0D 0E 0F
      -- -- -- -- -- -- -- --  -- -- -- -- -- -- -- --
0220:                          6E F6 D1 03 01 01 80 99          n.......
0230: F6 D1 03 01 1C 18 80 00                           ........        
```

#### Opcodes

```
  0: 0x0228 [0x6E] Fari-Wari (ID: 17027574/0x0103D1F6) uses emote 26*
  1: 0x022F [0x99] Wait for Fari-Wari (ID: 17027574/0x0103D1F6) animation to complete
  2: 0x0234 [0x1C] WAIT(100* ticks)
  3: 0x0237 [0x00] END_REQSTACK()
```

### Event 65535.20

#### Metadata

| Field        | Value    |
|--------------|----------|
| Entrypoint   | 0x0238   |
| Data Size    | 16 bytes |
| Instructions | 4        |

```
      00 01 02 03 04 05 06 07  08 09 0A 0B 0C 0D 0E 0F
      -- -- -- -- -- -- -- --  -- -- -- -- -- -- -- --
0230:                          6E FD D1 03 01 00 80 99          n.......
0240: FD D1 03 01 1C 13 80 00                           ........        
```

#### Opcodes

```
  0: 0x0238 [0x6E] Malzaab (ID: 17027581/0x0103D1FD) uses emote 34*
  1: 0x023F [0x99] Wait for Malzaab (ID: 17027581/0x0103D1FD) animation to complete
  2: 0x0244 [0x1C] WAIT(150* ticks)
  3: 0x0247 [0x00] END_REQSTACK()
```

### Event 65535.21

#### Metadata

| Field        | Value    |
|--------------|----------|
| Entrypoint   | 0x0248   |
| Data Size    | 44 bytes |
| Instructions | 6        |

```
      00 01 02 03 04 05 06 07  08 09 0A 0B 0C 0D 0E 0F
      -- -- -- -- -- -- -- --  -- -- -- -- -- -- -- --
0240:                          6E FD D1 03 01 19 80 99          n.......
0250: FD D1 03 01 1C 13 80 66  1A 80 FD D1 03 01 FD D1  .......f........
0260: 03 01 74 77 62 30 53 FD  D1 03 01 FD D1 03 01 74  ..twb0S........t
0270: 77 62 30 00                                       wb0.            
```

#### Opcodes

```
  0: 0x0248 [0x6E] Malzaab (ID: 17027581/0x0103D1FD) uses emote 0*
  1: 0x024F [0x99] Wait for Malzaab (ID: 17027581/0x0103D1FD) animation to complete
  2: 0x0254 [0x1C] WAIT(150* ticks)
  3: 0x0257 [0x66] LOAD_EXT_SCHEDULER_MAIN: Load scheduler "twb0" with entities [Malzaab (ID: 17027581/0x0103D1FD), Malzaab (ID: 17027581/0x0103D1FD)], work=9*
  4: 0x0266 [0x53] WAIT_SCHEDULER_TASK: Wait for scheduler "twb0" with entities [Malzaab (ID: 17027581/0x0103D1FD), Malzaab (ID: 17027581/0x0103D1FD)]
  5: 0x0273 [0x00] END_REQSTACK()
```

### Event 65535.22

#### Metadata

| Field        | Value   |
|--------------|---------|
| Entrypoint   | 0x0274  |
| Data Size    | 4 bytes |
| Instructions | 2       |

```
      00 01 02 03 04 05 06 07  08 09 0A 0B 0C 0D 0E 0F
      -- -- -- -- -- -- -- --  -- -- -- -- -- -- -- --
0270:             1C 0F 80 00                               ....        
```

#### Opcodes

```
  0: 0x0274 [0x1C] WAIT(120* ticks)
  1: 0x0277 [0x00] END_REQSTACK()
```

### Event 65535.23

#### Metadata

| Field        | Value    |
|--------------|----------|
| Entrypoint   | 0x0278   |
| Data Size    | 16 bytes |
| Instructions | 4        |

```
      00 01 02 03 04 05 06 07  08 09 0A 0B 0C 0D 0E 0F
      -- -- -- -- -- -- -- --  -- -- -- -- -- -- -- --
0270:                          6E F6 D1 03 01 0E 80 99          n.......
0280: F6 D1 03 01 1C 16 80 00                           ........        
```

#### Opcodes

```
  0: 0x0278 [0x6E] Fari-Wari (ID: 17027574/0x0103D1F6) uses emote 38*
  1: 0x027F [0x99] Wait for Fari-Wari (ID: 17027574/0x0103D1F6) animation to complete
  2: 0x0284 [0x1C] WAIT(180* ticks)
  3: 0x0287 [0x00] END_REQSTACK()
```

### Event 65535.24

#### Metadata

| Field        | Value    |
|--------------|----------|
| Entrypoint   | 0x0288   |
| Data Size    | 19 bytes |
| Instructions | 5        |

```
      00 01 02 03 04 05 06 07  08 09 0A 0B 0C 0D 0E 0F
      -- -- -- -- -- -- -- --  -- -- -- -- -- -- -- --
0280:                          1C 1B 80 6E F6 D1 03 01          ...n....
0290: 1C 80 99 F6 D1 03 01 1C  16 80 00                 ...........     
```

#### Opcodes

```
  0: 0x0288 [0x1C] WAIT(45* ticks)
  1: 0x028B [0x6E] Fari-Wari (ID: 17027574/0x0103D1F6) uses emote 25*
  2: 0x0292 [0x99] Wait for Fari-Wari (ID: 17027574/0x0103D1F6) animation to complete
  3: 0x0297 [0x1C] WAIT(180* ticks)
  4: 0x029A [0x00] END_REQSTACK()
```

### Event 65535.25

#### Metadata

| Field        | Value    |
|--------------|----------|
| Entrypoint   | 0x029B   |
| Data Size    | 16 bytes |
| Instructions | 4        |

```
      00 01 02 03 04 05 06 07  08 09 0A 0B 0C 0D 0E 0F
      -- -- -- -- -- -- -- --  -- -- -- -- -- -- -- --
0290:                                   6E F6 D1 03 01             n....
02A0: 1D 80 99 F6 D1 03 01 1C  0F 80 00                 ...........     
```

#### Opcodes

```
  0: 0x029B [0x6E] Fari-Wari (ID: 17027574/0x0103D1F6) uses emote 6*
  1: 0x02A2 [0x99] Wait for Fari-Wari (ID: 17027574/0x0103D1F6) animation to complete
  2: 0x02A7 [0x1C] WAIT(120* ticks)
  3: 0x02AA [0x00] END_REQSTACK()
```

### Event 65535.26

#### Metadata

| Field        | Value    |
|--------------|----------|
| Entrypoint   | 0x02AB   |
| Data Size    | 47 bytes |
| Instructions | 5        |

```
      00 01 02 03 04 05 06 07  08 09 0A 0B 0C 0D 0E 0F
      -- -- -- -- -- -- -- --  -- -- -- -- -- -- -- --
02A0:                                   66 1A 80 FD D1             f....
02B0: 03 01 FD D1 03 01 74 68  6B 31 53 FD D1 03 01 FD  ......thk1S.....
02C0: D1 03 01 74 68 6B 31 66  1A 80 FD D1 03 01 FD D1  ...thk1f........
02D0: 03 01 74 68 6B 32 1C 07  80 00                    ..thk2....      
```

#### Opcodes

```
  0: 0x02AB [0x66] LOAD_EXT_SCHEDULER_MAIN: Load scheduler "thk1" with entities [Malzaab (ID: 17027581/0x0103D1FD), Malzaab (ID: 17027581/0x0103D1FD)], work=9*
  1: 0x02BA [0x53] WAIT_SCHEDULER_TASK: Wait for scheduler "thk1" with entities [Malzaab (ID: 17027581/0x0103D1FD), Malzaab (ID: 17027581/0x0103D1FD)]
  2: 0x02C7 [0x66] LOAD_EXT_SCHEDULER_MAIN: Load scheduler "thk2" with entities [Malzaab (ID: 17027581/0x0103D1FD), Malzaab (ID: 17027581/0x0103D1FD)], work=9*
  3: 0x02D6 [0x1C] WAIT(80* ticks)
  4: 0x02D9 [0x00] END_REQSTACK()
```

### Event 65535.27

#### Metadata

| Field        | Value    |
|--------------|----------|
| Entrypoint   | 0x02DA   |
| Data Size    | 16 bytes |
| Instructions | 4        |

```
      00 01 02 03 04 05 06 07  08 09 0A 0B 0C 0D 0E 0F
      -- -- -- -- -- -- -- --  -- -- -- -- -- -- -- --
02D0:                                6E F6 D1 03 01 1A            n.....
02E0: 80 99 F6 D1 03 01 1C 16  80 00                    ..........      
```

#### Opcodes

```
  0: 0x02DA [0x6E] Fari-Wari (ID: 17027574/0x0103D1F6) uses emote 9*
  1: 0x02E1 [0x99] Wait for Fari-Wari (ID: 17027574/0x0103D1F6) animation to complete
  2: 0x02E6 [0x1C] WAIT(180* ticks)
  3: 0x02E9 [0x00] END_REQSTACK()
```

### Event 65535.28

#### Metadata

| Field        | Value   |
|--------------|---------|
| Entrypoint   | 0x02EA  |
| Data Size    | 4 bytes |
| Instructions | 2       |

```
      00 01 02 03 04 05 06 07  08 09 0A 0B 0C 0D 0E 0F
      -- -- -- -- -- -- -- --  -- -- -- -- -- -- -- --
02E0:                                1C 1E 80 00                  ....  
```

#### Opcodes

```
  0: 0x02EA [0x1C] WAIT(350* ticks)
  1: 0x02ED [0x00] END_REQSTACK()
```

### Event 65535.29

#### Metadata

| Field        | Value    |
|--------------|----------|
| Entrypoint   | 0x02EE   |
| Data Size    | 85 bytes |
| Instructions | 7        |

```
      00 01 02 03 04 05 06 07  08 09 0A 0B 0C 0D 0E 0F
      -- -- -- -- -- -- -- --  -- -- -- -- -- -- -- --
02E0:                                            66 0D                f.
02F0: 80 F6 D1 03 01 F6 D1 03  01 74 6C 6B 30 53 F6 D1  .........tlk0S..
0300: 03 01 F6 D1 03 01 74 6C  6B 30 66 0D 80 F6 D1 03  ......tlk0f.....
0310: 01 F6 D1 03 01 74 6C 6B  31 53 F6 D1 03 01 F6 D1  .....tlk1S......
0320: 03 01 74 6C 6B 31 66 0D  80 F6 D1 03 01 F6 D1 03  ..tlk1f.........
0330: 01 6D 6F 6A 30 53 F6 D1  03 01 F6 D1 03 01 6D 6F  .moj0S........mo
0340: 6A 30 00                                          j0.             
```

#### Opcodes

```
  0: 0x02EE [0x66] LOAD_EXT_SCHEDULER_MAIN: Load scheduler "tlk0" with entities [Fari-Wari (ID: 17027574/0x0103D1F6), Fari-Wari (ID: 17027574/0x0103D1F6)], work=40*
  1: 0x02FD [0x53] WAIT_SCHEDULER_TASK: Wait for scheduler "tlk0" with entities [Fari-Wari (ID: 17027574/0x0103D1F6), Fari-Wari (ID: 17027574/0x0103D1F6)]
  2: 0x030A [0x66] LOAD_EXT_SCHEDULER_MAIN: Load scheduler "tlk1" with entities [Fari-Wari (ID: 17027574/0x0103D1F6), Fari-Wari (ID: 17027574/0x0103D1F6)], work=40*
  3: 0x0319 [0x53] WAIT_SCHEDULER_TASK: Wait for scheduler "tlk1" with entities [Fari-Wari (ID: 17027574/0x0103D1F6), Fari-Wari (ID: 17027574/0x0103D1F6)]
  4: 0x0326 [0x66] LOAD_EXT_SCHEDULER_MAIN: Load scheduler "moj0" with entities [Fari-Wari (ID: 17027574/0x0103D1F6), Fari-Wari (ID: 17027574/0x0103D1F6)], work=40*
  5: 0x0335 [0x53] WAIT_SCHEDULER_TASK: Wait for scheduler "moj0" with entities [Fari-Wari (ID: 17027574/0x0103D1F6), Fari-Wari (ID: 17027574/0x0103D1F6)]
  6: 0x0342 [0x00] END_REQSTACK()
```

### Event 65535.30

#### Metadata

| Field        | Value    |
|--------------|----------|
| Entrypoint   | 0x0343   |
| Data Size    | 16 bytes |
| Instructions | 4        |

```
      00 01 02 03 04 05 06 07  08 09 0A 0B 0C 0D 0E 0F
      -- -- -- -- -- -- -- --  -- -- -- -- -- -- -- --
0340:          6E F6 D1 03 01  1F 80 99 F6 D1 03 01 1C     n............
0350: 13 80 00                                          ...             
```

#### Opcodes

```
  0: 0x0343 [0x6E] Fari-Wari (ID: 17027574/0x0103D1F6) uses emote 19*
  1: 0x034A [0x99] Wait for Fari-Wari (ID: 17027574/0x0103D1F6) animation to complete
  2: 0x034F [0x1C] WAIT(150* ticks)
  3: 0x0352 [0x00] END_REQSTACK()
```

### Event 65535.31

#### Metadata

| Field        | Value    |
|--------------|----------|
| Entrypoint   | 0x0353   |
| Data Size    | 19 bytes |
| Instructions | 5        |

```
      00 01 02 03 04 05 06 07  08 09 0A 0B 0C 0D 0E 0F
      -- -- -- -- -- -- -- --  -- -- -- -- -- -- -- --
0350:          1C 18 80 6E F6  D1 03 01 11 80 99 F6 D1     ...n.........
0360: 03 01 1C 0F 80 00                                 ......          
```

#### Opcodes

```
  0: 0x0353 [0x1C] WAIT(100* ticks)
  1: 0x0356 [0x6E] Fari-Wari (ID: 17027574/0x0103D1F6) uses emote 29*
  2: 0x035D [0x99] Wait for Fari-Wari (ID: 17027574/0x0103D1F6) animation to complete
  3: 0x0362 [0x1C] WAIT(120* ticks)
  4: 0x0365 [0x00] END_REQSTACK()
```
