# 17027636

## Common Data

| Field            | Value                  |
|------------------|------------------------|
| Zone             | Mount Zhayolm (ID: 61) |
| Block Size       | 5920 bytes             |
| Total Events     | 3                      |
| References Count | 128                    |

## List of Events

| Event ID              | Entrypoint   |   Size |   Instructions |
|-----------------------|--------------|--------|----------------|
| [65535](#event-65535) | 0x0000       |    658 |             62 |
| [304](#event-304)     | 0x0292       |   1648 |            223 |
| [305](#event-305)     | 0x0902       |   3071 |            432 |

## DAT References (imed_data)

|   Index | Hex Value   |   Dec Value |
|---------|-------------|-------------|
|       0 | 0x00C8      |         200 |
|       1 | 0x0000      |           0 |
|       2 | 0x00C9      |         201 |
|       3 | 0x0001      |           1 |
|       4 | 0x002D      |          45 |
|       5 | 0x0002      |           2 |
|       6 | 0x001E      |          30 |
|       7 | 0x00D7      |         215 |
|       8 | 0x012C      |         300 |
|       9 | 0x0093      |         147 |
|      10 | 0x42061     |      270433 |
|      11 | 0xFFFEA7F2  |  4294879218 |
|      12 | 0xFFFF8300  |  4294935296 |
|      13 | 0x0FA0      |        4000 |
|      14 | 0x434E9     |      275689 |
|      15 | 0xFFFEA952  |  4294879570 |
|      16 | 0x07F1      |        2033 |
|      17 | 0x000D      |          13 |
|      18 | 0x000F      |          15 |
|      19 | 0x001B      |          27 |
|      20 | 0x007F      |         127 |
|      21 | 0x0359      |         857 |
|      22 | 0x0078      |         120 |
|      23 | 0x227B      |        8827 |
|      24 | 0x0003      |           3 |
|      25 | 0x0005      |           5 |
|      26 | 0x0006      |           6 |
|      27 | 0x0008      |           8 |
|      28 | 0x227C      |        8828 |
|      29 | 0x0050      |          80 |
|      30 | 0x227D      |        8829 |
|      31 | 0x227E      |        8830 |
|      32 | 0x227F      |        8831 |
|      33 | 0x2280      |        8832 |
|      34 | 0x2281      |        8833 |
|      35 | 0x2282      |        8834 |
|      36 | 0x2283      |        8835 |
|      37 | 0x004E      |          78 |
|      38 | 0x0011      |          17 |
|      39 | 0x0013      |          19 |
|      40 | 0x2284      |        8836 |
|      41 | 0x2285      |        8837 |
|      42 | 0x2286      |        8838 |
|      43 | 0x2287      |        8839 |
|      44 | 0x003C      |          60 |
|      45 | 0x003D      |          61 |
|      46 | 0x2288      |        8840 |
|      47 | 0x2289      |        8841 |
|      48 | 0x228A      |        8842 |
|      49 | 0x228B      |        8843 |
|      50 | 0x228C      |        8844 |
|      51 | 0x228D      |        8845 |
|      52 | 0x228E      |        8846 |
|      53 | 0x228F      |        8847 |
|      54 | 0x2290      |        8848 |
|      55 | 0x2291      |        8849 |
|      56 | 0x43C94     |      277652 |
|      57 | 0xFFFEDF0C  |  4294893324 |
|      58 | 0xFFFF8301  |  4294935297 |
|      59 | 0x03F4      |        1012 |
|      60 | 0x2293      |        8851 |
|      61 | 0x0CC0      |        3264 |
|      62 | 0x2294      |        8852 |
|      63 | 0x0096      |         150 |
|      64 | 0x2295      |        8853 |
|      65 | 0x2296      |        8854 |
|      66 | 0x2297      |        8855 |
|      67 | 0x2298      |        8856 |
|      68 | 0x1144      |        4420 |
|      69 | 0x1148      |        4424 |
|      70 | 0x2299      |        8857 |
|      71 | 0x229A      |        8858 |
|      72 | 0x229B      |        8859 |
|      73 | 0x1E99      |        7833 |
|      74 | 0xFFFFFF23  |  4294967075 |
|      75 | 0xEA60      |       60000 |
|      76 | 0xFFFE7960  |  4294867296 |
|      77 | 0x05DC      |        1500 |
|      78 | 0xFFFFB1E0  |  4294947296 |
|      79 | 0x03E8      |        1000 |
|      80 | 0x0258      |         600 |
|      81 | 0x229C      |        8860 |
|      82 | 0x229D      |        8861 |
|      83 | 0x229E      |        8862 |
|      84 | 0x229F      |        8863 |
|      85 | 0x0080      |         128 |
|      86 | 0x22A0      |        8864 |
|      87 | 0x0014      |          20 |
|      88 | 0x035A      |         858 |
|      89 | 0x22A1      |        8865 |
|      90 | 0x000A      |          10 |
|      91 | 0x0028      |          40 |
|      92 | 0x22A2      |        8866 |
|      93 | 0x22A3      |        8867 |
|      94 | 0x22A4      |        8868 |
|      95 | 0x0ED6      |        3798 |
|      96 | 0x22A5      |        8869 |
|      97 | 0x0007      |           7 |
|      98 | 0x22A6      |        8870 |
|      99 | 0x22A7      |        8871 |
|     100 | 0x4BB28     |      310056 |
|     101 | 0xFFFEFBE6  |  4294900710 |
|     102 | 0xFFFD8B1A  |  4294806298 |
|     103 | 0x0AEE      |        2798 |
|     104 | 0x49AF7     |      301815 |
|     105 | 0xFFFEDC69  |  4294892649 |
|     106 | 0xFFFD8B19  |  4294806297 |
|     107 | 0x05F2      |        1522 |
|     108 | 0x00D5      |         213 |
|     109 | 0x22A8      |        8872 |
|     110 | 0x22A9      |        8873 |
|     111 | 0x43152     |      274770 |
|     112 | 0xFFFEB643  |  4294882883 |
|     113 | 0x054C      |        1356 |
|     114 | 0x22AA      |        8874 |
|     115 | 0x22AB      |        8875 |
|     116 | 0x22AC      |        8876 |
|     117 | 0x22AD      |        8877 |
|     118 | 0x22AE      |        8878 |
|     119 | 0x22AF      |        8879 |
|     120 | 0x22B0      |        8880 |
|     121 | 0x22B1      |        8881 |
|     122 | 0x005A      |          90 |
|     123 | 0x0032      |          50 |
|     124 | 0x22B2      |        8882 |
|     125 | 0x22B3      |        8883 |
|     126 | 0x06B7      |        1719 |
|     127 | 0x22B4      |        8884 |

## String References

- **7833**: @@
- **8869**: How will you respond? [Yes, we have./I don't think so.]

## Events

### Event 65535

#### Metadata

| Field        | Value     |
|--------------|-----------|
| Entrypoint   | 0x0000    |
| Data Size    | 658 bytes |
| Instructions | 1         |

```
      00 01 02 03 04 05 06 07  08 09 0A 0B 0C 0D 0E 0F
      -- -- -- -- -- -- -- --  -- -- -- -- -- -- -- --
0000: 00 45 00 80 F0 FF FF 7F  F0 FF FF 7F 66 64 69 30  .E..........fdi0
0010: 01 80 55 00 80 F0 FF FF  7F F0 FF FF 7F 66 64 69  ..U..........fdi
0020: 30 1B 45 00 80 F0 FF FF  7F F0 FF FF 7F 66 64 6F  0.E..........fdo
0030: 30 01 80 55 00 80 F0 FF  FF 7F F0 FF FF 7F 66 64  0..U..........fd
0040: 6F 30 1B 45 00 80 F0 FF  FF 7F F0 FF FF 7F 66 64  o0.E..........fd
0050: 69 31 01 80 55 00 80 F0  FF FF 7F F0 FF FF 7F 66  i1..U..........f
0060: 64 69 31 1B 45 00 80 F0  FF FF 7F F0 FF FF 7F 66  di1.E..........f
0070: 64 6F 31 01 80 55 00 80  F0 FF FF 7F F0 FF FF 7F  do1..U..........
0080: 66 64 6F 31 1B 45 02 80  F0 FF FF 7F F0 FF FF 7F  fdo1.E..........
0090: 77 68 69 31 01 80 55 02  80 F0 FF FF 7F F0 FF FF  whi1..U.........
00A0: 7F 77 68 69 31 1B 45 02  80 F0 FF FF 7F F0 FF FF  .whi1.E.........
00B0: 7F 77 68 6F 31 01 80 55  02 80 F0 FF FF 7F F0 FF  .who1..U........
00C0: FF 7F 77 68 6F 31 1B 45  02 80 F0 FF FF 7F F0 FF  ..who1.E........
00D0: FF 7F 77 68 6F 32 01 80  55 02 80 F0 FF FF 7F F0  ..who2..U.......
00E0: FF FF 7F 77 68 6F 32 1B  45 02 80 F0 FF FF 7F F0  ...who2.E.......
00F0: FF FF 7F 77 68 6F 33 01  80 55 02 80 F0 FF FF 7F  ...who3..U......
0100: F0 FF FF 7F 77 68 6F 33  1B 62 03 80 F0 FF FF 7F  ....who3.b......
0110: F0 FF FF 7F 6D 61 69 6E  01 80 1C 04 80 45 00 80  ....main.....E..
0120: F0 FF FF 7F F0 FF FF 7F  66 64 6F 31 01 80 55 00  ........fdo1..U.
0130: 80 F0 FF FF 7F F0 FF FF  7F 66 64 6F 31 1B 45 00  .........fdo1.E.
0140: 80 F0 FF FF 7F F0 FF FF  7F 66 64 69 31 01 80 62  .........fdi1..b
0150: 05 80 F0 FF FF 7F F0 FF  FF 7F 6D 61 69 6E 01 80  ..........main..
0160: 1C 06 80 55 00 80 F0 FF  FF 7F F0 FF FF 7F 66 64  ...U..........fd
0170: 69 31 1B 45 00 80 F0 FF  FF 7F F0 FF FF 7F 62 6C  i1.E..........bl
0180: 6F 6E 01 80 45 02 80 F0  FF FF 7F F0 FF FF 7F 62  on..E..........b
0190: 6C 6F 6E 01 80 1B 45 02  80 F0 FF FF 7F F0 FF FF  lon...E.........
01A0: 7F 77 68 69 30 01 80 55  02 80 F0 FF FF 7F F0 FF  .whi0..U........
01B0: FF 7F 77 68 69 30 1B 45  02 80 F0 FF FF 7F F0 FF  ..whi0.E........
01C0: FF 7F 77 68 6F 30 01 80  55 02 80 F0 FF FF 7F F0  ..who0..U.......
01D0: FF FF 7F 77 68 6F 30 1B  45 07 80 F0 FF FF 7F F0  ...who0.E.......
01E0: FF FF 7F 65 66 6F 6E 01  80 55 07 80 F0 FF FF 7F  ...efon..U......
01F0: F0 FF FF 7F 65 66 6F 6E  1B 45 00 80 F0 FF FF 7F  ....efon.E......
0200: F0 FF FF 7F 66 64 69 73  01 80 1B 45 00 80 F0 FF  ....fdis...E....
0210: FF 7F F0 FF FF 7F 66 64  6F 73 01 80 55 00 80 F0  ......fdos..U...
0220: FF FF 7F F0 FF FF 7F 66  64 6F 73 1B 45 00 80 F0  .......fdos.E...
0230: FF FF 7F F0 FF FF 7F 66  64 69 66 01 80 1B 45 00  .......fdif...E.
0240: 80 F0 FF FF 7F F0 FF FF  7F 66 64 6F 66 01 80 55  .........fdof..U
0250: 00 80 F0 FF FF 7F F0 FF  FF 7F 66 64 6F 66 1B 45  ..........fdof.E
0260: 00 80 F0 FF FF 7F F0 FF  FF 7F 66 64 69 70 01 80  ..........fdip..
0270: 1B 45 00 80 F0 FF FF 7F  F0 FF FF 7F 66 64 6F 70  .E..........fdop
0280: 01 80 55 00 80 F0 FF FF  7F F0 FF FF 7F 66 64 6F  ..U..........fdo
0290: 70 1B                                             p.              
```

#### Opcodes

```
  0: 0x0000 [0x00] END_REQSTACK()
```

#### Data or dead code:

```
# Dead code (unreachable instructions):
     0x0001 [0x45] LOAD_SCHEDULED_TASK: Load scheduler "fdi0" with entities [LocalPlayer, LocalPlayer], work=[200*, 0*]
     0x0012 [0x55] WAIT_LOAD_SCHEDULER: Wait for scheduler "fdi0" with entities [LocalPlayer, LocalPlayer], work=200*
     0x0021 [0x1B] RETURN
     0x0022 [0x45] LOAD_SCHEDULED_TASK: Load scheduler "fdo0" with entities [LocalPlayer, LocalPlayer], work=[200*, 0*]
     0x0033 [0x55] WAIT_LOAD_SCHEDULER: Wait for scheduler "fdo0" with entities [LocalPlayer, LocalPlayer], work=200*
     0x0042 [0x1B] RETURN
     0x0043 [0x45] LOAD_SCHEDULED_TASK: Load scheduler "fdi1" with entities [LocalPlayer, LocalPlayer], work=[200*, 0*]
     0x0054 [0x55] WAIT_LOAD_SCHEDULER: Wait for scheduler "fdi1" with entities [LocalPlayer, LocalPlayer], work=200*
     0x0063 [0x1B] RETURN
     0x0064 [0x45] LOAD_SCHEDULED_TASK: Load scheduler "fdo1" with entities [LocalPlayer, LocalPlayer], work=[200*, 0*]
     0x0075 [0x55] WAIT_LOAD_SCHEDULER: Wait for scheduler "fdo1" with entities [LocalPlayer, LocalPlayer], work=200*
     0x0084 [0x1B] RETURN
     0x0085 [0x45] LOAD_SCHEDULED_TASK: Load scheduler "whi1" with entities [LocalPlayer, LocalPlayer], work=[201*, 0*]
     0x0096 [0x55] WAIT_LOAD_SCHEDULER: Wait for scheduler "whi1" with entities [LocalPlayer, LocalPlayer], work=201*
     0x00A5 [0x1B] RETURN
     0x00A6 [0x45] LOAD_SCHEDULED_TASK: Load scheduler "who1" with entities [LocalPlayer, LocalPlayer], work=[201*, 0*]
     0x00B7 [0x55] WAIT_LOAD_SCHEDULER: Wait for scheduler "who1" with entities [LocalPlayer, LocalPlayer], work=201*
     0x00C6 [0x1B] RETURN
     0x00C7 [0x45] LOAD_SCHEDULED_TASK: Load scheduler "who2" with entities [LocalPlayer, LocalPlayer], work=[201*, 0*]
     0x00D8 [0x55] WAIT_LOAD_SCHEDULER: Wait for scheduler "who2" with entities [LocalPlayer, LocalPlayer], work=201*
     0x00E7 [0x1B] RETURN
     0x00E8 [0x45] LOAD_SCHEDULED_TASK: Load scheduler "who3" with entities [LocalPlayer, LocalPlayer], work=[201*, 0*]
     0x00F9 [0x55] WAIT_LOAD_SCHEDULER: Wait for scheduler "who3" with entities [LocalPlayer, LocalPlayer], work=201*
     0x0108 [0x1B] RETURN
     0x0109 [0x62] LOAD_EVENT_SCHEDULER: Load scheduler "main" with entities [LocalPlayer, LocalPlayer], work=[1*, 0*]
     0x011A [0x1C] WAIT(45* ticks)
     0x011D [0x45] LOAD_SCHEDULED_TASK: Load scheduler "fdo1" with entities [LocalPlayer, LocalPlayer], work=[200*, 0*]
     0x012E [0x55] WAIT_LOAD_SCHEDULER: Wait for scheduler "fdo1" with entities [LocalPlayer, LocalPlayer], work=200*
     0x013D [0x1B] RETURN
     0x013E [0x45] LOAD_SCHEDULED_TASK: Load scheduler "fdi1" with entities [LocalPlayer, LocalPlayer], work=[200*, 0*]
     0x014F [0x62] LOAD_EVENT_SCHEDULER: Load scheduler "main" with entities [LocalPlayer, LocalPlayer], work=[2*, 0*]
     0x0160 [0x1C] WAIT(30* ticks)
     0x0163 [0x55] WAIT_LOAD_SCHEDULER: Wait for scheduler "fdi1" with entities [LocalPlayer, LocalPlayer], work=200*
     0x0172 [0x1B] RETURN
     0x0173 [0x45] LOAD_SCHEDULED_TASK: Load scheduler "blon" with entities [LocalPlayer, LocalPlayer], work=[200*, 0*]
     0x0184 [0x45] LOAD_SCHEDULED_TASK: Load scheduler "blon" with entities [LocalPlayer, LocalPlayer], work=[201*, 0*]
     0x0195 [0x1B] RETURN
     0x0196 [0x45] LOAD_SCHEDULED_TASK: Load scheduler "whi0" with entities [LocalPlayer, LocalPlayer], work=[201*, 0*]
     0x01A7 [0x55] WAIT_LOAD_SCHEDULER: Wait for scheduler "whi0" with entities [LocalPlayer, LocalPlayer], work=201*
     0x01B6 [0x1B] RETURN
     0x01B7 [0x45] LOAD_SCHEDULED_TASK: Load scheduler "who0" with entities [LocalPlayer, LocalPlayer], work=[201*, 0*]
     0x01C8 [0x55] WAIT_LOAD_SCHEDULER: Wait for scheduler "who0" with entities [LocalPlayer, LocalPlayer], work=201*
     0x01D7 [0x1B] RETURN
     0x01D8 [0x45] LOAD_SCHEDULED_TASK: Load scheduler "efon" with entities [LocalPlayer, LocalPlayer], work=[215*, 0*]
     0x01E9 [0x55] WAIT_LOAD_SCHEDULER: Wait for scheduler "efon" with entities [LocalPlayer, LocalPlayer], work=215*
     0x01F8 [0x1B] RETURN
     0x01F9 [0x45] LOAD_SCHEDULED_TASK: Load scheduler "fdis" with entities [LocalPlayer, LocalPlayer], work=[200*, 0*]
     0x020A [0x1B] RETURN
     0x020B [0x45] LOAD_SCHEDULED_TASK: Load scheduler "fdos" with entities [LocalPlayer, LocalPlayer], work=[200*, 0*]
     0x021C [0x55] WAIT_LOAD_SCHEDULER: Wait for scheduler "fdos" with entities [LocalPlayer, LocalPlayer], work=200*
     0x022B [0x1B] RETURN
     0x022C [0x45] LOAD_SCHEDULED_TASK: Load scheduler "fdif" with entities [LocalPlayer, LocalPlayer], work=[200*, 0*]
     0x023D [0x1B] RETURN
     0x023E [0x45] LOAD_SCHEDULED_TASK: Load scheduler "fdof" with entities [LocalPlayer, LocalPlayer], work=[200*, 0*]
     0x024F [0x55] WAIT_LOAD_SCHEDULER: Wait for scheduler "fdof" with entities [LocalPlayer, LocalPlayer], work=200*
     0x025E [0x1B] RETURN
     0x025F [0x45] LOAD_SCHEDULED_TASK: Load scheduler "fdip" with entities [LocalPlayer, LocalPlayer], work=[200*, 0*]
     0x0270 [0x1B] RETURN
     0x0271 [0x45] LOAD_SCHEDULED_TASK: Load scheduler "fdop" with entities [LocalPlayer, LocalPlayer], work=[200*, 0*]
     0x0282 [0x55] WAIT_LOAD_SCHEDULER: Wait for scheduler "fdop" with entities [LocalPlayer, LocalPlayer], work=200*
     0x0291 [0x1B] RETURN
```

### Event 304

#### Metadata

| Field        | Value      |
|--------------|------------|
| Entrypoint   | 0x0292     |
| Data Size    | 1648 bytes |
| Instructions | 223        |

```
      00 01 02 03 04 05 06 07  08 09 0A 0B 0C 0D 0E 0F
      -- -- -- -- -- -- -- --  -- -- -- -- -- -- -- --
0290:       42 5D 01 80 08 80  1A 64 00 46 01 38 09 80    B].....d.F.8..
02A0: 2F 00 22 D2 03 01 4E 00  22 D2 03 01 94 01 22 D2  /."...N.".....".
02B0: 03 01 94 01 F0 FF FF 7F  BA 22 D2 03 01 0A 80 0B  ........."......
02C0: 80 0C 80 0D 80 BA F0 FF  FF 7F 0E 80 0F 80 0C 80  ................
02D0: 10 80 80 22 D2 03 01 80  F0 FF FF 7F 29 0F F0 FF  ..."........)...
02E0: FF 7F 3A 59 04 22 D2 03  01 11 80 1C 12 80 5C 00  ..:Y."........\.
02F0: 13 80 5C 01 13 80 9A 5D  14 80 03 80 27 10 22 D2  ..\....]....'.".
0300: 03 01 0C 1C 12 80 45 15  80 F8 FF FF 7F F8 FF FF  ......E.........
0310: 7F 73 30 30 31 01 80 1A  43 00 1C 16 80 52 15 80  .s001...C....R..
0320: F8 FF FF 7F F8 FF FF 7F  73 30 30 31 45 15 80 F8  ........s001E...
0330: FF FF 7F F8 FF FF 7F 73  30 30 32 01 80 2A 10 22  .......s002..*."
0340: D2 03 01 29 0F 22 D2 03  01 0F 2B 22 D2 03 01 17  ...)."....+"....
0350: 80 23 29 0F 22 D2 03 01  10 29 0F 22 D2 03 01 11  .#)."....)."....
0360: 4A 22 D2 03 01 F0 FF FF  7F 27 0F F0 FF FF 7F 20  J".......'..... 
0370: 1C 06 80 52 15 80 F8 FF  FF 7F F8 FF FF 7F 73 30  ...R..........s0
0380: 30 32 02 09 10 18 80 00  9E 03 45 15 80 F8 FF FF  02........E.....
0390: 7F F8 FF FF 7F 73 30 30  38 01 80 01 03 04 02 09  .....s008.......
03A0: 10 19 80 00 BA 03 45 15  80 F8 FF FF 7F F8 FF FF  ......E.........
03B0: 7F 73 30 30 39 01 80 01  03 04 02 09 10 1A 80 00  .s009...........
03C0: D6 03 45 15 80 F8 FF FF  7F F8 FF FF 7F 73 30 30  ..E..........s00
03D0: 39 01 80 01 03 04 02 09  10 1B 80 00 F2 03 45 15  9.............E.
03E0: 80 F8 FF FF 7F F8 FF FF  7F 73 30 30 38 01 80 01  .........s008...
03F0: 03 04 45 15 80 F8 FF FF  7F F8 FF FF 7F 73 30 33  ..E..........s03
0400: 39 01 80 2A 0F F0 FF FF  7F 02 09 10 18 80 00 23  9..*...........#
0410: 04 52 15 80 F8 FF FF 7F  F8 FF FF 7F 73 30 30 38  .R..........s008
0420: 01 80 04 02 09 10 19 80  00 3D 04 52 15 80 F8 FF  .........=.R....
0430: FF 7F F8 FF FF 7F 73 30  30 39 01 80 04 02 09 10  ......s009......
0440: 1A 80 00 57 04 52 15 80  F8 FF FF 7F F8 FF FF 7F  ...W.R..........
0450: 73 30 30 39 01 80 04 02  09 10 1B 80 00 71 04 52  s009.........q.R
0460: 15 80 F8 FF FF 7F F8 FF  FF 7F 73 30 30 38 01 80  ..........s008..
0470: 04 52 15 80 F8 FF FF 7F  F8 FF FF 7F 73 30 33 39  .R..........s039
0480: 45 15 80 F8 FF FF 7F F8  FF FF 7F 73 30 30 33 01  E..........s003.
0490: 80 2B 22 D2 03 01 1C 80  23 29 10 F0 FF FF 7F 1E  .+".....#)......
04A0: 1C 1D 80 1A 64 00 52 15  80 F8 FF FF 7F F8 FF FF  ....d.R.........
04B0: 7F 73 30 30 33 1C 06 80  29 10 F0 FF FF 7F 1F 29  .s003...)......)
04C0: 0F 22 D2 03 01 12 45 15  80 F8 FF FF 7F F8 FF FF  ."....E.........
04D0: 7F 73 30 30 34 01 80 1A  43 00 29 0F 22 D2 03 01  .s004...C.)."...
04E0: 0F 2B 22 D2 03 01 1E 80  23 2B 22 D2 03 01 1F 80  .+".....#+".....
04F0: 23 52 15 80 F8 FF FF 7F  F8 FF FF 7F 73 30 30 34  #R..........s004
0500: 45 15 80 F8 FF FF 7F F8  FF FF 7F 73 30 30 36 01  E..........s006.
0510: 80 2B 22 D2 03 01 20 80  23 2B 22 D2 03 01 21 80  .+"... .#+"...!.
0520: 23 29 0F 22 D2 03 01 10  52 15 80 F8 FF FF 7F F8  #)."....R.......
0530: FF FF 7F 73 30 30 36 45  15 80 F8 FF FF 7F F8 FF  ...s006E........
0540: FF 7F 73 30 30 37 01 80  29 0F 22 D2 03 01 11 2B  ..s007..)."....+
0550: 22 D2 03 01 22 80 23 29  0F 22 D2 03 01 12 2B 22  "...".#)."....+"
0560: D2 03 01 23 80 23 52 15  80 F8 FF FF 7F F8 FF FF  ...#.#R.........
0570: 7F 73 30 30 37 45 15 80  F8 FF FF 7F F8 FF FF 7F  .s007E..........
0580: 73 30 31 30 01 80 29 0F  22 D2 03 01 13 2B 22 D2  s010..)."....+".
0590: 03 01 24 80 23 5D 06 80  08 80 1A 64 00 52 15 80  ..$.#].....d.R..
05A0: F8 FF FF 7F F8 FF FF 7F  73 30 31 30 1C 03 80 34  ........s010...4
05B0: 25 80 77 26 80 27 80 1C  03 80 2F 00 38 D2 03 01  %.w&.'..../.8...
05C0: 4E 00 38 D2 03 01 45 15  80 F8 FF FF 7F F8 FF FF  N.8...E.........
05D0: 7F 73 30 31 38 01 80 1C  12 80 1A 43 00 27 05 38  .s018......C.'.8
05E0: D2 03 01 02 2B 22 D2 03  01 28 80 23 29 0F 22 D2  ....+"...(.#).".
05F0: 03 01 14 52 15 80 F8 FF  FF 7F F8 FF FF 7F 73 30  ...R..........s0
0600: 31 38 45 15 80 F8 FF FF  7F F8 FF FF 7F 73 30 31  18E..........s01
0610: 39 01 80 2B 22 D2 03 01  29 80 23 52 15 80 F8 FF  9..+"...).#R....
0620: FF 7F F8 FF FF 7F 73 30  31 39 45 15 80 F8 FF FF  ......s019E.....
0630: 7F F8 FF FF 7F 73 30 32  30 01 80 2B 22 D2 03 01  .....s020..+"...
0640: 2A 80 23 52 15 80 F8 FF  FF 7F F8 FF FF 7F 73 30  *.#R..........s0
0650: 32 30 45 15 80 F8 FF FF  7F F8 FF FF 7F 73 30 32  20E..........s02
0660: 31 01 80 2B 22 D2 03 01  2B 80 23 1C 2C 80 1A 64  1..+"...+.#.,..d
0670: 00 52 15 80 F8 FF FF 7F  F8 FF FF 7F 73 30 32 31  .R..........s021
0680: 4E 01 38 D2 03 01 2F 01  38 D2 03 01 35 2D 80 78  N.8.../.8...5-.x
0690: 1C 12 80 22 00 80 22 D2  03 01 5D 14 80 08 80 29  ...".."...]....)
06A0: 0F 22 D2 03 01 19 1C 05  80 45 15 80 F8 FF FF 7F  .".......E......
06B0: F8 FF FF 7F 73 30 31 32  01 80 1A 43 00 2B 22 D2  ....s012...C.+".
06C0: 03 01 2E 80 23 2B 22 D2  03 01 2F 80 23 29 0F 22  ....#+".../.#)."
06D0: D2 03 01 1A 52 15 80 F8  FF FF 7F F8 FF FF 7F 73  ....R..........s
06E0: 30 31 32 02 09 10 19 80  00 FF 06 45 15 80 F8 FF  012........E....
06F0: FF 7F F8 FF FF 7F 73 30  31 31 01 80 01 2C 07 02  ......s011...,..
0700: 09 10 1A 80 00 1B 07 45  15 80 F8 FF FF 7F F8 FF  .......E........
0710: FF 7F 73 30 31 31 01 80  01 2C 07 45 15 80 F8 FF  ..s011...,.E....
0720: FF 7F F8 FF FF 7F 73 30  30 35 01 80 29 0F 22 D2  ......s005..).".
0730: 03 01 1B 2B 22 D2 03 01  30 80 23 29 0F 22 D2 03  ...+"...0.#)."..
0740: 01 1C 29 0F 22 D2 03 01  0F 2B 22 D2 03 01 31 80  ..)."....+"...1.
0750: 23 29 0F 22 D2 03 01 10  02 09 10 19 80 00 72 07  #)."..........r.
0760: 52 15 80 F8 FF FF 7F F8  FF FF 7F 73 30 31 31 01  R..........s011.
0770: 9B 07 02 09 10 1A 80 00  8C 07 52 15 80 F8 FF FF  ..........R.....
0780: 7F F8 FF FF 7F 73 30 31  31 01 9B 07 52 15 80 F8  .....s011...R...
0790: FF FF 7F F8 FF FF 7F 73  30 30 35 45 15 80 F8 FF  .......s005E....
07A0: FF 7F F8 FF FF 7F 73 30  31 33 01 80 29 0F 22 D2  ......s013..).".
07B0: 03 01 11 2B 22 D2 03 01  32 80 23 29 0F 22 D2 03  ...+"...2.#)."..
07C0: 01 12 29 0F 22 D2 03 01  0F 2B 22 D2 03 01 33 80  ..)."....+"...3.
07D0: 23 29 0F 22 D2 03 01 10  52 15 80 F8 FF FF 7F F8  #)."....R.......
07E0: FF FF 7F 73 30 31 33 45  15 80 F8 FF FF 7F F8 FF  ...s013E........
07F0: FF 7F 73 30 31 36 01 80  29 0F 22 D2 03 01 11 2B  ..s016..)."....+
0800: 22 D2 03 01 34 80 23 29  0F 22 D2 03 01 12 2B 22  "...4.#)."....+"
0810: D2 03 01 35 80 23 52 15  80 F8 FF FF 7F F8 FF FF  ...5.#R.........
0820: 7F 73 30 31 36 45 15 80  F8 FF FF 7F F8 FF FF 7F  .s016E..........
0830: 73 30 31 37 01 80 29 0F  22 D2 03 01 25 2B 22 D2  s017..)."...%+".
0840: 03 01 36 80 23 29 0F 22  D2 03 01 26 52 15 80 F8  ..6.#)."...&R...
0850: FF FF 7F F8 FF FF 7F 73  30 31 37 45 15 80 F8 FF  .......s017E....
0860: FF 7F F8 FF FF 7F 73 30  31 30 01 80 29 0F 22 D2  ......s010..).".
0870: 03 01 13 2B 22 D2 03 01  37 80 23 29 0F 22 D2 03  ...+"...7.#)."..
0880: 01 14 52 15 80 F8 FF FF  7F F8 FF FF 7F 73 30 31  ..R..........s01
0890: 30 45 15 80 F8 FF FF 7F  F8 FF FF 7F 73 30 30 30  0E..........s000
08A0: 01 80 29 0F 22 D2 03 01  2B 27 10 22 D2 03 01 0D  ..)."...+'."....
08B0: 1C 06 80 5D 01 80 08 80  1A 64 00 1C 06 80 52 15  ...].....d....R.
08C0: 80 F8 FF FF 7F F8 FF FF  7F 73 30 30 30 59 05 F0  .........s000Y..
08D0: FF FF 7F 00 78 5C 00 01  80 5C 01 01 80 9A 5D 14  ....x\...\....].
08E0: 80 03 80 1C 12 80 AB 11  01 80 1C 03 80 46 00 45  .............F.E
08F0: 00 80 F8 FF FF 7F F8 FF  FF 7F 66 64 69 32 01 80  ..........fdi2..
0900: 21 00                                             !.              
```

#### Opcodes

```
  0: 0x0292 [0x42] SET_CLI_EVENT_CANCEL_DATA()
  1: 0x0293 [0x5D] SET_MUSIC_VOLUME(volume=0*, fade_time=300*)
  2: 0x0298 [0x1A] CALL_SUBROUTINE(address=0x0064)
  3: 0x029B [0x46] CAMERA_CONTROL: Disable user control
  4: 0x029D [0x38] SET_CLIENT_EVENT_MODE(mode=147*)
  5: 0x02A0 [0x2F] Megomak (ID: 17027618/0x0103D222)->Render.Flags0 &= ~0x80000 // Bit 19
  6: 0x02A6 [0x4E] SET_ENTITY_HIDE_FLAG: Show Megomak (ID: 17027618/0x0103D222)
  7: 0x02AC [0x94] Megomak (ID: 17027618/0x0103D222)->Render.Flags3 ^= 0x01
  8: 0x02B2 [0x94] LocalPlayer->Render.Flags3 ^= 0x01
  9: 0x02B8 [0xBA] SET_ENTITY_POSITION(entity_id=Megomak (ID: 17027618/0x0103D222), pos_x=270.433*, pos_z=-88.078*, pos_y=-32.000*, direction=351.6°*)
 10: 0x02C5 [0xBA] SET_ENTITY_POSITION(entity_id=LocalPlayer, pos_x=275.689*, pos_z=-87.726*, pos_y=-32.000*, direction=178.7°*)
 11: 0x02D2 [0x80] LOAD_WAIT(entity=Megomak (ID: 17027618/0x0103D222))
 12: 0x02D7 [0x80] LOAD_WAIT(entity=LocalPlayer)
 13: 0x02DC [0x29] REQ_SET_WAIT(priority=0x0F, entity_id=LocalPlayer, tag_num=0x3A)
 14: 0x02E3 [0x59] UPDATE_ENTITY_DATA: Set Megomak (ID: 17027618/0x0103D222) main speed = 13* * 0.1
 15: 0x02EB [0x1C] WAIT(15* ticks)
 16: 0x02EE [0x5C] MUSIC_CONTROL: Set Idle (Day) music to song 27*
 17: 0x02F2 [0x5C] MUSIC_CONTROL: Set Idle (Night) music to song 27*
 18: 0x02F6 [0x9A] WAIT_MUSIC_SERVER()
 19: 0x02F7 [0x5D] SET_MUSIC_VOLUME(volume=127*, fade_time=1*)
 20: 0x02FC [0x27] REQ_SET(priority=0x10, entity_id=Megomak (ID: 17027618/0x0103D222), tag_num=0x0C)
 21: 0x0303 [0x1C] WAIT(15* ticks)
 22: 0x0306 [0x45] LOAD_SCHEDULED_TASK: Load scheduler "s001" with entities [EventEntity, EventEntity], work=[857*, 0*]
 23: 0x0317 [0x1A] CALL_SUBROUTINE(address=0x0043)
 24: 0x031A [0x1C] WAIT(120* ticks)
 25: 0x031D [0x52] END_LOAD_SCHEDULER: End scheduler "s001" with entities [EventEntity, EventEntity], work=857*
 26: 0x032C [0x45] LOAD_SCHEDULED_TASK: Load scheduler "s002" with entities [EventEntity, EventEntity], work=[857*, 0*]
 27: 0x033D [0x2A] GET_REQ_LEVEL(level=16, entity_id=Megomak (ID: 17027618/0x0103D222))
 28: 0x0343 [0x29] REQ_SET_WAIT(priority=0x0F, entity_id=Megomak (ID: 17027618/0x0103D222), tag_num=0x0F)
 29: 0x034A [0x2B] Megomak (ID: 17027618/0x0103D222) [8827*]:
    → "What do you want?"
 30: 0x0351 [0x23] WAIT_FOR_DIALOG_INTERACTION
 31: 0x0352 [0x29] REQ_SET_WAIT(priority=0x0F, entity_id=Megomak (ID: 17027618/0x0103D222), tag_num=0x10)
 32: 0x0359 [0x29] REQ_SET_WAIT(priority=0x0F, entity_id=Megomak (ID: 17027618/0x0103D222), tag_num=0x11)
 33: 0x0360 [0x4A] Megomak (ID: 17027618/0x0103D222) looks at LocalPlayer
 34: 0x0369 [0x27] REQ_SET(priority=0x0F, entity_id=LocalPlayer, tag_num=0x20)
 35: 0x0370 [0x1C] WAIT(30* ticks)
 36: 0x0373 [0x52] END_LOAD_SCHEDULER: End scheduler "s002" with entities [EventEntity, EventEntity], work=857*
 37: 0x0382 [0x02] IF !(Work_Zone[9] == 3*) GOTO 0x039E
 38: 0x038A [0x45] LOAD_SCHEDULED_TASK: Load scheduler "s008" with entities [EventEntity, EventEntity], work=[857*, 0*]
 39: 0x039B [0x01] GOTO 0x0403
 40: 0x039E [0x02] IF !(Work_Zone[9] == 5*) GOTO 0x03BA
 41: 0x03A6 [0x45] LOAD_SCHEDULED_TASK: Load scheduler "s009" with entities [EventEntity, EventEntity], work=[857*, 0*]
 42: 0x03B7 [0x01] GOTO 0x0403
 43: 0x03BA [0x02] IF !(Work_Zone[9] == 6*) GOTO 0x03D6
 44: 0x03C2 [0x45] LOAD_SCHEDULED_TASK: Load scheduler "s009" with entities [EventEntity, EventEntity], work=[857*, 0*]
 45: 0x03D3 [0x01] GOTO 0x0403
 46: 0x03D6 [0x02] IF !(Work_Zone[9] == 8*) GOTO 0x03F2
 47: 0x03DE [0x45] LOAD_SCHEDULED_TASK: Load scheduler "s008" with entities [EventEntity, EventEntity], work=[857*, 0*]
 48: 0x03EF [0x01] GOTO 0x0403
 49: 0x03F2 [0x45] LOAD_SCHEDULED_TASK: Load scheduler "s039" with entities [EventEntity, EventEntity], work=[857*, 0*]

SUBROUTINE_0403:
 50: 0x0403 [0x2A] GET_REQ_LEVEL(level=15, entity_id=LocalPlayer)
 51: 0x0409 [0x02] IF !(Work_Zone[9] == 3*) GOTO 0x0423
 52: 0x0411 [0x52] END_LOAD_SCHEDULER: End scheduler "s008" with entities [EventEntity, EventEntity], work=857*
 53: 0x0420 [0x01] GOTO 0x0480
 54: 0x0423 [0x02] IF !(Work_Zone[9] == 5*) GOTO 0x043D
 55: 0x042B [0x52] END_LOAD_SCHEDULER: End scheduler "s009" with entities [EventEntity, EventEntity], work=857*
 56: 0x043A [0x01] GOTO 0x0480
 57: 0x043D [0x02] IF !(Work_Zone[9] == 6*) GOTO 0x0457
 58: 0x0445 [0x52] END_LOAD_SCHEDULER: End scheduler "s009" with entities [EventEntity, EventEntity], work=857*
 59: 0x0454 [0x01] GOTO 0x0480
 60: 0x0457 [0x02] IF !(Work_Zone[9] == 8*) GOTO 0x0471
 61: 0x045F [0x52] END_LOAD_SCHEDULER: End scheduler "s008" with entities [EventEntity, EventEntity], work=857*
 62: 0x046E [0x01] GOTO 0x0480
 63: 0x0471 [0x52] END_LOAD_SCHEDULER: End scheduler "s039" with entities [EventEntity, EventEntity], work=857*

SUBROUTINE_0480:
 64: 0x0480 [0x45] LOAD_SCHEDULED_TASK: Load scheduler "s003" with entities [EventEntity, EventEntity], work=[857*, 0*]
 65: 0x0491 [0x2B] Megomak (ID: 17027618/0x0103D222) [8828*]:
    → "I'll ask you again... What do you want with Megomak?"
 66: 0x0498 [0x23] WAIT_FOR_DIALOG_INTERACTION
 67: 0x0499 [0x29] REQ_SET_WAIT(priority=0x10, entity_id=LocalPlayer, tag_num=0x1E)
 68: 0x04A0 [0x1C] WAIT(80* ticks)
 69: 0x04A3 [0x1A] CALL_SUBROUTINE(address=0x0064)
 70: 0x04A6 [0x52] END_LOAD_SCHEDULER: End scheduler "s003" with entities [EventEntity, EventEntity], work=857*
 71: 0x04B5 [0x1C] WAIT(30* ticks)
 72: 0x04B8 [0x29] REQ_SET_WAIT(priority=0x10, entity_id=LocalPlayer, tag_num=0x1F)
 73: 0x04BF [0x29] REQ_SET_WAIT(priority=0x0F, entity_id=Megomak (ID: 17027618/0x0103D222), tag_num=0x12)
 74: 0x04C6 [0x45] LOAD_SCHEDULED_TASK: Load scheduler "s004" with entities [EventEntity, EventEntity], work=[857*, 0*]
 75: 0x04D7 [0x1A] CALL_SUBROUTINE(address=0x0043)
 76: 0x04DA [0x29] REQ_SET_WAIT(priority=0x0F, entity_id=Megomak (ID: 17027618/0x0103D222), tag_num=0x0F)
 77: 0x04E1 [0x2B] Megomak (ID: 17027618/0x0103D222) [8829*]:
    → "Oh, you know about Falak? From what I hear, that's all anybody's talking about right now."
 78: 0x04E8 [0x23] WAIT_FOR_DIALOG_INTERACTION
 79: 0x04E9 [0x2B] Megomak (ID: 17027618/0x0103D222) [8830*]:
    → "Well, you did come bearing gifts, and I suppose I can give you the short version, but you're looking for details, right?"
 80: 0x04F0 [0x23] WAIT_FOR_DIALOG_INTERACTION
 81: 0x04F1 [0x52] END_LOAD_SCHEDULER: End scheduler "s004" with entities [EventEntity, EventEntity], work=857*
 82: 0x0500 [0x45] LOAD_SCHEDULED_TASK: Load scheduler "s006" with entities [EventEntity, EventEntity], work=[857*, 0*]
 83: 0x0511 [0x2B] Megomak (ID: 17027618/0x0103D222) [8831*]:
    → "In that case, there just so happens to be someone who knows much more about the subject than good old Megomak does. Maybe you should pay 'em a visit?"
 84: 0x0518 [0x23] WAIT_FOR_DIALOG_INTERACTION
 85: 0x0519 [0x2B] Megomak (ID: 17027618/0x0103D222) [8832*]:
    → "My friend was born to a brave and heroic family, but found it tough always being the youngest. Really hasn't had much luck in life, that's for sure."
 86: 0x0520 [0x23] WAIT_FOR_DIALOG_INTERACTION
 87: 0x0521 [0x29] REQ_SET_WAIT(priority=0x0F, entity_id=Megomak (ID: 17027618/0x0103D222), tag_num=0x10)
 88: 0x0528 [0x52] END_LOAD_SCHEDULER: End scheduler "s006" with entities [EventEntity, EventEntity], work=857*
 89: 0x0537 [0x45] LOAD_SCHEDULED_TASK: Load scheduler "s007" with entities [EventEntity, EventEntity], work=[857*, 0*]
 90: 0x0548 [0x29] REQ_SET_WAIT(priority=0x0F, entity_id=Megomak (ID: 17027618/0x0103D222), tag_num=0x11)
 91: 0x054F [0x2B] Megomak (ID: 17027618/0x0103D222) [8833*]:
    → "Hm? You want to meet my friend who knows about Falak?"
 92: 0x0556 [0x23] WAIT_FOR_DIALOG_INTERACTION
 93: 0x0557 [0x29] REQ_SET_WAIT(priority=0x0F, entity_id=Megomak (ID: 17027618/0x0103D222), tag_num=0x12)
 94: 0x055E [0x2B] Megomak (ID: 17027618/0x0103D222) [8834*]:
    → "Sorry, I sent 'em on important business at the Hazhalm Testing Grounds that needed taking care of."
 95: 0x0565 [0x23] WAIT_FOR_DIALOG_INTERACTION
 96: 0x0566 [0x52] END_LOAD_SCHEDULER: End scheduler "s007" with entities [EventEntity, EventEntity], work=857*
 97: 0x0575 [0x45] LOAD_SCHEDULED_TASK: Load scheduler "s010" with entities [EventEntity, EventEntity], work=[857*, 0*]
 98: 0x0586 [0x29] REQ_SET_WAIT(priority=0x0F, entity_id=Megomak (ID: 17027618/0x0103D222), tag_num=0x13)
 99: 0x058D [0x2B] Megomak (ID: 17027618/0x0103D222) [8835*]:
    → "Actually, do you know the cave just beyond the Caedarva Mire? There's a secret Aht Urhgan facility deep inside it!"
100: 0x0594 [0x23] WAIT_FOR_DIALOG_INTERACTION
101: 0x0595 [0x5D] SET_MUSIC_VOLUME(volume=30*, fade_time=300*)
102: 0x059A [0x1A] CALL_SUBROUTINE(address=0x0064)
103: 0x059D [0x52] END_LOAD_SCHEDULER: End scheduler "s010" with entities [EventEntity, EventEntity], work=857*
104: 0x05AC [0x1C] WAIT(1* ticks)
105: 0x05AF [0x34] LOAD_UNLOAD_ZONE(zone_id=78*)
106: 0x05B2 [0x77] SET_EVENT_TIME_WEATHER(hour=17*, weather=19*)
107: 0x05B7 [0x1C] WAIT(1* ticks)
108: 0x05BA [0x2F] Unnamed NPC (ID: 17027640/0x0103D238)->Render.Flags0 &= ~0x80000 // Bit 19
109: 0x05C0 [0x4E] SET_ENTITY_HIDE_FLAG: Show Unnamed NPC (ID: 17027640/0x0103D238)
110: 0x05C6 [0x45] LOAD_SCHEDULED_TASK: Load scheduler "s018" with entities [EventEntity, EventEntity], work=[857*, 0*]
111: 0x05D7 [0x1C] WAIT(15* ticks)
112: 0x05DA [0x1A] CALL_SUBROUTINE(address=0x0043)
113: 0x05DD [0x27] REQ_SET(priority=0x05, entity_id=Unnamed NPC (ID: 17027640/0x0103D238), tag_num=0x02)
114: 0x05E4 [0x2B] Megomak (ID: 17027618/0x0103D222) [8836*]:
    → "There, they used forbidden alchemy techniques to fuse different species of creatures into strange new monstrosities."
115: 0x05EB [0x23] WAIT_FOR_DIALOG_INTERACTION
116: 0x05EC [0x29] REQ_SET_WAIT(priority=0x0F, entity_id=Megomak (ID: 17027618/0x0103D222), tag_num=0x14)
117: 0x05F3 [0x52] END_LOAD_SCHEDULER: End scheduler "s018" with entities [EventEntity, EventEntity], work=857*
118: 0x0602 [0x45] LOAD_SCHEDULED_TASK: Load scheduler "s019" with entities [EventEntity, EventEntity], work=[857*, 0*]
119: 0x0613 [0x2B] Megomak (ID: 17027618/0x0103D222) [8837*]:
    → "Their artificial creations are known as chimeras."
120: 0x061A [0x23] WAIT_FOR_DIALOG_INTERACTION
121: 0x061B [0x52] END_LOAD_SCHEDULER: End scheduler "s019" with entities [EventEntity, EventEntity], work=857*
122: 0x062A [0x45] LOAD_SCHEDULED_TASK: Load scheduler "s020" with entities [EventEntity, EventEntity], work=[857*, 0*]
123: 0x063B [0x2B] Megomak (ID: 17027618/0x0103D222) [8838*]:
    → "Lamia, puk, mandragora... That facility has given life to countless creatures."
124: 0x0642 [0x23] WAIT_FOR_DIALOG_INTERACTION
125: 0x0643 [0x52] END_LOAD_SCHEDULER: End scheduler "s020" with entities [EventEntity, EventEntity], work=857*
126: 0x0652 [0x45] LOAD_SCHEDULED_TASK: Load scheduler "s021" with entities [EventEntity, EventEntity], work=[857*, 0*]
127: 0x0663 [0x2B] Megomak (ID: 17027618/0x0103D222) [8839*]:
    → "It was a grand sanctuary of learning that attempted to approach the greatness of the gods themselves..."
128: 0x066A [0x23] WAIT_FOR_DIALOG_INTERACTION
129: 0x066B [0x1C] WAIT(60* ticks)
130: 0x066E [0x1A] CALL_SUBROUTINE(address=0x0064)
131: 0x0671 [0x52] END_LOAD_SCHEDULER: End scheduler "s021" with entities [EventEntity, EventEntity], work=857*
132: 0x0680 [0x4E] SET_ENTITY_HIDE_FLAG: Hide Unnamed NPC (ID: 17027640/0x0103D238)
133: 0x0686 [0x2F] Unnamed NPC (ID: 17027640/0x0103D238)->Render.Flags0 |= 0x80000 // Bit 19
134: 0x068C [0x35] LOAD_ZONE_NO_CLOSE(zone_id=61*)
135: 0x068F [0x78] ENABLE_GAME_TIMER_RESET_WEATHER()
136: 0x0690 [0x1C] WAIT(15* ticks)
137: 0x0693 [0x22] ENTITY_HIDE_FLAG(enabled=0x00)
138: 0x0695 [0x80] LOAD_WAIT(entity=Megomak (ID: 17027618/0x0103D222))
139: 0x069A [0x5D] SET_MUSIC_VOLUME(volume=127*, fade_time=300*)
140: 0x069F [0x29] REQ_SET_WAIT(priority=0x0F, entity_id=Megomak (ID: 17027618/0x0103D222), tag_num=0x19)
141: 0x06A6 [0x1C] WAIT(2* ticks)
142: 0x06A9 [0x45] LOAD_SCHEDULED_TASK: Load scheduler "s012" with entities [EventEntity, EventEntity], work=[857*, 0*]
143: 0x06BA [0x1A] CALL_SUBROUTINE(address=0x0043)
144: 0x06BD [0x2B] Megomak (ID: 17027618/0x0103D222) [8840*]:
    → "I'm actually something of an alchemist myself, you know."
145: 0x06C4 [0x23] WAIT_FOR_DIALOG_INTERACTION
146: 0x06C5 [0x2B] Megomak (ID: 17027618/0x0103D222) [8841*]:
    → "I once used a stolen egg to create a chimera known as Khimaira 13, but it didn't turn out so well..."
147: 0x06CC [0x23] WAIT_FOR_DIALOG_INTERACTION
148: 0x06CD [0x29] REQ_SET_WAIT(priority=0x0F, entity_id=Megomak (ID: 17027618/0x0103D222), tag_num=0x1A)
149: 0x06D4 [0x52] END_LOAD_SCHEDULER: End scheduler "s012" with entities [EventEntity, EventEntity], work=857*
150: 0x06E3 [0x02] IF !(Work_Zone[9] == 5*) GOTO 0x06FF
151: 0x06EB [0x45] LOAD_SCHEDULED_TASK: Load scheduler "s011" with entities [EventEntity, EventEntity], work=[857*, 0*]
152: 0x06FC [0x01] GOTO 0x072C
153: 0x06FF [0x02] IF !(Work_Zone[9] == 6*) GOTO 0x071B
154: 0x0707 [0x45] LOAD_SCHEDULED_TASK: Load scheduler "s011" with entities [EventEntity, EventEntity], work=[857*, 0*]
155: 0x0718 [0x01] GOTO 0x072C
156: 0x071B [0x45] LOAD_SCHEDULED_TASK: Load scheduler "s005" with entities [EventEntity, EventEntity], work=[857*, 0*]

SUBROUTINE_072C:
157: 0x072C [0x29] REQ_SET_WAIT(priority=0x0F, entity_id=Megomak (ID: 17027618/0x0103D222), tag_num=0x1B)
158: 0x0733 [0x2B] Megomak (ID: 17027618/0x0103D222) [8842*]:
    → "I spent many agonizing days burned and tattered, but it did help me regain my sense of motivation."
159: 0x073A [0x23] WAIT_FOR_DIALOG_INTERACTION
160: 0x073B [0x29] REQ_SET_WAIT(priority=0x0F, entity_id=Megomak (ID: 17027618/0x0103D222), tag_num=0x1C)
161: 0x0742 [0x29] REQ_SET_WAIT(priority=0x0F, entity_id=Megomak (ID: 17027618/0x0103D222), tag_num=0x0F)
162: 0x0749 [0x2B] Megomak (ID: 17027618/0x0103D222) [8843*]:
    → "According to my friend, my beloved chimeras are needed for the dreaded battle yet to come."
163: 0x0750 [0x23] WAIT_FOR_DIALOG_INTERACTION
164: 0x0751 [0x29] REQ_SET_WAIT(priority=0x0F, entity_id=Megomak (ID: 17027618/0x0103D222), tag_num=0x10)
165: 0x0758 [0x02] IF !(Work_Zone[9] == 5*) GOTO 0x0772
166: 0x0760 [0x52] END_LOAD_SCHEDULER: End scheduler "s011" with entities [EventEntity, EventEntity], work=857*
167: 0x076F [0x01] GOTO 0x079B
168: 0x0772 [0x02] IF !(Work_Zone[9] == 6*) GOTO 0x078C
169: 0x077A [0x52] END_LOAD_SCHEDULER: End scheduler "s011" with entities [EventEntity, EventEntity], work=857*
170: 0x0789 [0x01] GOTO 0x079B
171: 0x078C [0x52] END_LOAD_SCHEDULER: End scheduler "s005" with entities [EventEntity, EventEntity], work=857*

SUBROUTINE_079B:
172: 0x079B [0x45] LOAD_SCHEDULED_TASK: Load scheduler "s013" with entities [EventEntity, EventEntity], work=[857*, 0*]
173: 0x07AC [0x29] REQ_SET_WAIT(priority=0x0F, entity_id=Megomak (ID: 17027618/0x0103D222), tag_num=0x11)
174: 0x07B3 [0x2B] Megomak (ID: 17027618/0x0103D222) [8844*]:
    → "Hm? You want to know who this friend of Megomak's is?"
175: 0x07BA [0x23] WAIT_FOR_DIALOG_INTERACTION
176: 0x07BB [0x29] REQ_SET_WAIT(priority=0x0F, entity_id=Megomak (ID: 17027618/0x0103D222), tag_num=0x12)
177: 0x07C2 [0x29] REQ_SET_WAIT(priority=0x0F, entity_id=Megomak (ID: 17027618/0x0103D222), tag_num=0x0F)
178: 0x07C9 [0x2B] Megomak (ID: 17027618/0x0103D222) [8845*]:
    → "I already told you--on an errand for me at the Hazhalm Testing Grounds. That's definitely who you should talk to about Falak."
179: 0x07D0 [0x23] WAIT_FOR_DIALOG_INTERACTION
180: 0x07D1 [0x29] REQ_SET_WAIT(priority=0x0F, entity_id=Megomak (ID: 17027618/0x0103D222), tag_num=0x10)
181: 0x07D8 [0x52] END_LOAD_SCHEDULER: End scheduler "s013" with entities [EventEntity, EventEntity], work=857*
182: 0x07E7 [0x45] LOAD_SCHEDULED_TASK: Load scheduler "s016" with entities [EventEntity, EventEntity], work=[857*, 0*]
183: 0x07F8 [0x29] REQ_SET_WAIT(priority=0x0F, entity_id=Megomak (ID: 17027618/0x0103D222), tag_num=0x11)
184: 0x07FF [0x2B] Megomak (ID: 17027618/0x0103D222) [8846*]:
    → "Actually, my friend's been gone for a while now..."
185: 0x0806 [0x23] WAIT_FOR_DIALOG_INTERACTION
186: 0x0807 [0x29] REQ_SET_WAIT(priority=0x0F, entity_id=Megomak (ID: 17027618/0x0103D222), tag_num=0x12)
187: 0x080E [0x2B] Megomak (ID: 17027618/0x0103D222) [8847*]:
    → "I was hoping to steal another egg..."
188: 0x0815 [0x23] WAIT_FOR_DIALOG_INTERACTION
189: 0x0816 [0x52] END_LOAD_SCHEDULER: End scheduler "s016" with entities [EventEntity, EventEntity], work=857*
190: 0x0825 [0x45] LOAD_SCHEDULED_TASK: Load scheduler "s017" with entities [EventEntity, EventEntity], work=[857*, 0*]
191: 0x0836 [0x29] REQ_SET_WAIT(priority=0x0F, entity_id=Megomak (ID: 17027618/0x0103D222), tag_num=0x25)
192: 0x083D [0x2B] Megomak (ID: 17027618/0x0103D222) [8848*]:
    → "Maybe the Empire discovered my little plan! I shudder to think what they might do to my friend!"
193: 0x0844 [0x23] WAIT_FOR_DIALOG_INTERACTION
194: 0x0845 [0x29] REQ_SET_WAIT(priority=0x0F, entity_id=Megomak (ID: 17027618/0x0103D222), tag_num=0x26)
195: 0x084C [0x52] END_LOAD_SCHEDULER: End scheduler "s017" with entities [EventEntity, EventEntity], work=857*
196: 0x085B [0x45] LOAD_SCHEDULED_TASK: Load scheduler "s010" with entities [EventEntity, EventEntity], work=[857*, 0*]
197: 0x086C [0x29] REQ_SET_WAIT(priority=0x0F, entity_id=Megomak (ID: 17027618/0x0103D222), tag_num=0x13)
198: 0x0873 [0x2B] Megomak (ID: 17027618/0x0103D222) [8849*]:
    → "Hey, I need you to go check out the entrance to the Hazhalm Testing Grounds and see what's going on. I'm counting on you."
199: 0x087A [0x23] WAIT_FOR_DIALOG_INTERACTION
200: 0x087B [0x29] REQ_SET_WAIT(priority=0x0F, entity_id=Megomak (ID: 17027618/0x0103D222), tag_num=0x14)
201: 0x0882 [0x52] END_LOAD_SCHEDULER: End scheduler "s010" with entities [EventEntity, EventEntity], work=857*
202: 0x0891 [0x45] LOAD_SCHEDULED_TASK: Load scheduler "s000" with entities [EventEntity, EventEntity], work=[857*, 0*]
203: 0x08A2 [0x29] REQ_SET_WAIT(priority=0x0F, entity_id=Megomak (ID: 17027618/0x0103D222), tag_num=0x2B)
204: 0x08A9 [0x27] REQ_SET(priority=0x10, entity_id=Megomak (ID: 17027618/0x0103D222), tag_num=0x0D)
205: 0x08B0 [0x1C] WAIT(30* ticks)
206: 0x08B3 [0x5D] SET_MUSIC_VOLUME(volume=0*, fade_time=300*)
207: 0x08B8 [0x1A] CALL_SUBROUTINE(address=0x0064)
208: 0x08BB [0x1C] WAIT(30* ticks)
209: 0x08BE [0x52] END_LOAD_SCHEDULER: End scheduler "s000" with entities [EventEntity, EventEntity], work=857*
210: 0x08CD [0x59] UPDATE_ENTITY_DATA: LocalPlayer->Render.Flags0 &= ~0x200000
211: 0x08D4 [0x78] ENABLE_GAME_TIMER_RESET_WEATHER()
212: 0x08D5 [0x5C] MUSIC_CONTROL: Set Idle (Day) music to song 0*
213: 0x08D9 [0x5C] MUSIC_CONTROL: Set Idle (Night) music to song 0*
214: 0x08DD [0x9A] WAIT_MUSIC_SERVER()
215: 0x08DE [0x5D] SET_MUSIC_VOLUME(volume=127*, fade_time=1*)
216: 0x08E3 [0x1C] WAIT(15* ticks)
217: 0x08E6 [0xAB] EventEntity->DespawnValue = 0* // Set despawn value
218: 0x08EA [0x1C] WAIT(1* ticks)
219: 0x08ED [0x46] CAMERA_CONTROL: Restore default settings
220: 0x08EF [0x45] LOAD_SCHEDULED_TASK: Load scheduler "fdi2" with entities [EventEntity, EventEntity], work=[200*, 0*]
221: 0x0900 [0x21] END_EVENT
222: 0x0901 [0x00] END_REQSTACK()
```

### Event 305

#### Metadata

| Field        | Value      |
|--------------|------------|
| Entrypoint   | 0x0902     |
| Data Size    | 3071 bytes |
| Instructions | 432        |

```
      00 01 02 03 04 05 06 07  08 09 0A 0B 0C 0D 0E 0F
      -- -- -- -- -- -- -- --  -- -- -- -- -- -- -- --
0900:       42 5D 01 80 08 80  1A 64 00 46 01 38 09 80    B].....d.F.8..
0910: 2F 00 22 D2 03 01 2F 00  35 D2 03 01 4E 00 22 D2  /.".../.5...N.".
0920: 03 01 4E 00 35 D2 03 01  94 01 22 D2 03 01 94 01  ..N.5.....".....
0930: 35 D2 03 01 94 01 F0 FF  FF 7F BA 22 D2 03 01 0A  5.........."....
0940: 80 0B 80 0C 80 0D 80 BA  35 D2 03 01 38 80 39 80  ........5...8.9.
0950: 3A 80 3B 80 BA F0 FF FF  7F 0E 80 0F 80 0C 80 10  :.;.............
0960: 80 80 22 D2 03 01 80 35  D2 03 01 80 F0 FF FF 7F  .."....5........
0970: 7B F0 FF FF 7F 7B 22 D2  03 01 2C 35 D2 03 01 35  {....{"...,5...5
0980: D2 03 01 77 70 6F 6E 6C  35 D2 03 01 01 80 03 80  ...wponl5.......
0990: 29 0F F0 FF FF 7F 3A 59  04 22 D2 03 01 11 80 1C  ).....:Y."......
09A0: 12 80 5C 00 14 80 5C 01  14 80 9A 5D 14 80 03 80  ..\...\....]....
09B0: 27 10 22 D2 03 01 0C 1C  12 80 45 15 80 F8 FF FF  '.".......E.....
09C0: 7F F8 FF FF 7F 73 30 30  31 01 80 1A 43 00 1C 16  .....s001...C...
09D0: 80 52 15 80 F8 FF FF 7F  F8 FF FF 7F 73 30 30 31  .R..........s001
09E0: 45 15 80 F8 FF FF 7F F8  FF FF 7F 73 30 30 32 01  E..........s002.
09F0: 80 2A 10 22 D2 03 01 29  0F 22 D2 03 01 0F 2B 22  .*."...)."....+"
0A00: D2 03 01 3C 80 23 27 0F  F0 FF FF 7F 20 1C 06 80  ...<.#'..... ...
0A10: 52 15 80 F8 FF FF 7F F8  FF FF 7F 73 30 30 32 02  R..........s002.
0A20: 09 10 18 80 00 3B 0A 45  15 80 F8 FF FF 7F F8 FF  .....;.E........
0A30: FF 7F 73 30 30 38 01 80  01 A0 0A 02 09 10 19 80  ..s008..........
0A40: 00 57 0A 45 15 80 F8 FF  FF 7F F8 FF FF 7F 73 30  .W.E..........s0
0A50: 30 39 01 80 01 A0 0A 02  09 10 1A 80 00 73 0A 45  09...........s.E
0A60: 15 80 F8 FF FF 7F F8 FF  FF 7F 73 30 30 39 01 80  ..........s009..
0A70: 01 A0 0A 02 09 10 1B 80  00 8F 0A 45 15 80 F8 FF  ...........E....
0A80: FF 7F F8 FF FF 7F 73 30  30 38 01 80 01 A0 0A 45  ......s008.....E
0A90: 15 80 F8 FF FF 7F F8 FF  FF 7F 73 30 33 39 01 80  ..........s039..
0AA0: 2A 0F F0 FF FF 7F 02 09  10 18 80 00 C0 0A 52 15  *.............R.
0AB0: 80 F8 FF FF 7F F8 FF FF  7F 73 30 30 38 01 1D 0B  .........s008...
0AC0: 02 09 10 19 80 00 DA 0A  52 15 80 F8 FF FF 7F F8  ........R.......
0AD0: FF FF 7F 73 30 30 39 01  1D 0B 02 09 10 1A 80 00  ...s009.........
0AE0: F4 0A 52 15 80 F8 FF FF  7F F8 FF FF 7F 73 30 30  ..R..........s00
0AF0: 39 01 1D 0B 02 09 10 1B  80 00 0E 0B 52 15 80 F8  9...........R...
0B00: FF FF 7F F8 FF FF 7F 73  30 30 38 01 1D 0B 52 15  .......s008...R.
0B10: 80 F8 FF FF 7F F8 FF FF  7F 73 30 33 39 45 15 80  .........s039E..
0B20: F8 FF FF 7F F8 FF FF 7F  73 30 30 33 01 80 03 03  ........s003....
0B30: 10 3D 80 2B 22 D2 03 01  3E 80 23 29 0F 22 D2 03  .=.+"...>.#)."..
0B40: 01 10 1A 64 00 52 15 80  F8 FF FF 7F F8 FF FF 7F  ...d.R..........
0B50: 73 30 30 33 29 0F 22 D2  03 01 11 29 0F 22 D2 03  s003)."....)."..
0B60: 01 12 29 0F 22 D2 03 01  19 1C 05 80 29 10 F0 FF  ..).".......)...
0B70: FF 7F 1E 1C 3F 80 29 10  F0 FF FF 7F 1F 45 15 80  ....?.)......E..
0B80: F8 FF FF 7F F8 FF FF 7F  73 30 31 32 01 80 1A 43  ........s012...C
0B90: 00 2B 22 D2 03 01 40 80  23 29 0F 22 D2 03 01 1A  .+"...@.#)."....
0BA0: 52 15 80 F8 FF FF 7F F8  FF FF 7F 73 30 31 32 02  R..........s012.
0BB0: 09 10 19 80 00 CB 0B 45  15 80 F8 FF FF 7F F8 FF  .......E........
0BC0: FF 7F 73 30 31 31 01 80  01 F8 0B 02 09 10 1A 80  ..s011..........
0BD0: 00 E7 0B 45 15 80 F8 FF  FF 7F F8 FF FF 7F 73 30  ...E..........s0
0BE0: 31 31 01 80 01 F8 0B 45  15 80 F8 FF FF 7F F8 FF  11.....E........
0BF0: FF 7F 73 30 30 35 01 80  29 0F 22 D2 03 01 1B 2B  ..s005..)."....+
0C00: 22 D2 03 01 41 80 23 29  0F 22 D2 03 01 1C 29 0F  "...A.#)."....).
0C10: 22 D2 03 01 0F 2B 22 D2  03 01 42 80 23 29 0F 22  "....+"...B.#)."
0C20: D2 03 01 10 02 09 10 19  80 00 3E 0C 52 15 80 F8  ..........>.R...
0C30: FF FF 7F F8 FF FF 7F 73  30 31 31 01 67 0C 02 09  .......s011.g...
0C40: 10 1A 80 00 58 0C 52 15  80 F8 FF FF 7F F8 FF FF  ....X.R.........
0C50: 7F 73 30 31 31 01 67 0C  52 15 80 F8 FF FF 7F F8  .s011.g.R.......
0C60: FF FF 7F 73 30 30 35 45  15 80 F8 FF FF 7F F8 FF  ...s005E........
0C70: FF 7F 73 30 31 34 01 80  2B 22 D2 03 01 43 80 23  ..s014..+"...C.#
0C80: 03 02 10 44 80 03 03 10  45 80 2B 22 D2 03 01 46  ...D....E.+"...F
0C90: 80 23 52 15 80 F8 FF FF  7F F8 FF FF 7F 73 30 31  .#R..........s01
0CA0: 34 45 15 80 F8 FF FF 7F  F8 FF FF 7F 73 30 31 35  4E..........s015
0CB0: 01 80 29 0F 22 D2 03 01  11 2B 22 D2 03 01 47 80  ..)."....+"...G.
0CC0: 23 29 0F 22 D2 03 01 12  52 15 80 F8 FF FF 7F F8  #)."....R.......
0CD0: FF FF 7F 73 30 31 35 45  15 80 F8 FF FF 7F F8 FF  ...s015E........
0CE0: FF 7F 73 30 30 33 01 80  29 0F 22 D2 03 01 13 2B  ..s003..)."....+
0CF0: 22 D2 03 01 48 80 23 5D  01 80 08 80 1A 64 00 1C  "...H.#].....d..
0D00: 06 80 52 15 80 F8 FF FF  7F F8 FF FF 7F 73 30 30  ..R..........s00
0D10: 33 5C 00 13 80 5C 01 13  80 9A 5D 14 80 03 80 48  3\...\....]....H
0D20: 49 80 23 1A 0B 02 1C 2C  80 89 4A 80 1C 2C 80 B4  I.#....,..J..,..
0D30: 14 4B 80 4C 80 4D 80 01  80 03 80 B4 14 01 80 4E  .K.L.M.........N
0D40: 80 4F 80 08 80 03 80 03  02 10 50 80 27 10 F0 FF  .O........P.'...
0D50: FF 7F 3B 1A F9 01 1C 16  80 2B 22 D2 03 01 51 80  ..;......+"...Q.
0D60: 23 1C 2C 80 2B 22 D2 03  01 52 80 23 1C 2C 80 2B  #.,.+"...R.#.,.+
0D70: 22 D2 03 01 53 80 23 1C  2C 80 2B 22 D2 03 01 54  "...S.#.,.+"...T
0D80: 80 23 1A 0B 02 8A B4 15  1A F9 01 48 49 80 29 0F  .#.........HI.).
0D90: 22 D2 03 01 2B 29 0F 22  D2 03 01 0F 6C 35 D2 03  "...+)."....l5..
0DA0: 01 55 80 03 80 45 15 80  F8 FF FF 7F F8 FF FF 7F  .U...E..........
0DB0: 73 30 30 37 01 80 1A 43  00 2B 22 D2 03 01 56 80  s007...C.+"...V.
0DC0: 23 29 0F 22 D2 03 01 10  27 0F 35 D2 03 01 4D 1C  #)."....'.5...M.
0DD0: 57 80 52 15 80 F8 FF FF  7F F8 FF FF 7F 73 30 30  W.R..........s00
0DE0: 37 45 15 80 F8 FF FF 7F  F8 FF FF 7F 73 30 32 32  7E..........s022
0DF0: 01 80 29 0F 22 D2 03 01  11 45 58 80 F8 FF FF 7F  ..)."....EX.....
0E00: F8 FF FF 7F 38 31 36 30  01 80 2B 35 D2 03 01 59  ....8160..+5...Y
0E10: 80 1C 5A 80 4A F0 FF FF  7F 35 D2 03 01 29 0F 22  ..Z.J....5...)."
0E20: D2 03 01 12 4A 22 D2 03  01 35 D2 03 01 6F 76 22  ....J"...5...ov"
0E30: D2 03 01 6F 76 F0 FF FF  7F 1C 5B 80 52 15 80 F8  ...ov.....[.R...
0E40: FF FF 7F F8 FF FF 7F 73  30 32 32 45 15 80 F8 FF  .......s022E....
0E50: FF 7F F8 FF FF 7F 73 30  32 33 01 80 23 2A 0F 35  ......s023..#*.5
0E60: D2 03 01 45 15 80 F8 FF  FF 7F F8 FF FF 7F 31 30  ...E..........10
0E70: 30 31 01 80 29 0F 35 D2  03 01 01 2B 35 D2 03 01  01..).5....+5...
0E80: 5C 80 4A 22 D2 03 01 35  D2 03 01 4A F0 FF FF 7F  \.J"...5...J....
0E90: 35 D2 03 01 6F 76 22 D2  03 01 6F 76 F0 FF FF 7F  5...ov"...ov....
0EA0: 23 29 0F 35 D2 03 01 02  52 15 80 F8 FF FF 7F F8  #).5....R.......
0EB0: FF FF 7F 73 30 32 33 45  15 80 F8 FF FF 7F F8 FF  ...s023E........
0EC0: FF 7F 73 30 32 34 01 80  29 0F 35 D2 03 01 05 27  ..s024..).5....'
0ED0: 0F 22 D2 03 01 2C 03 03  10 3D 80 2B 22 D2 03 01  ."...,...=.+"...
0EE0: 5D 80 23 2A 0F 22 D2 03  01 29 0F 35 D2 03 01 06  ].#*."...).5....
0EF0: 4A 35 D2 03 01 F0 FF FF  7F 6F 76 35 D2 03 01 52  J5.......ov5...R
0F00: 15 80 F8 FF FF 7F F8 FF  FF 7F 73 30 32 34 02 09  ..........s024..
0F10: 10 19 80 00 2A 0F 45 15  80 F8 FF FF 7F F8 FF FF  ....*.E.........
0F20: 7F 73 30 33 38 01 80 01  57 0F 02 09 10 1A 80 00  .s038...W.......
0F30: 46 0F 45 15 80 F8 FF FF  7F F8 FF FF 7F 73 30 33  F.E..........s03
0F40: 38 01 80 01 57 0F 45 15  80 F8 FF FF 7F F8 FF FF  8...W.E.........
0F50: 7F 73 30 32 35 01 80 45  15 80 F8 FF FF 7F F8 FF  .s025..E........
0F60: FF 7F 31 30 31 34 01 80  2B 35 D2 03 01 5E 80 23  ..1014..+5...^.#
0F70: 4B 22 D2 03 01 5F 80 24  60 80 01 80 01 80 25 02  K"..._.$`.....%.
0F80: 00 10 01 80 00 99 0F 6E  F0 FF FF 7F 61 80 99 F0  .......n....a...
0F90: FF FF 7F 1C 2C 80 01 B3  0F 02 00 10 03 80 00 B3  ....,...........
0FA0: 0F 6E F0 FF FF 7F 1A 80  99 F0 FF FF 7F 1C 2C 80  .n............,.
0FB0: 01 B3 0F 6F 76 22 D2 03  01 02 09 10 19 80 00 D3  ...ov"..........
0FC0: 0F 52 15 80 F8 FF FF 7F  F8 FF FF 7F 73 30 33 38  .R..........s038
0FD0: 01 FC 0F 02 09 10 1A 80  00 ED 0F 52 15 80 F8 FF  ...........R....
0FE0: FF 7F F8 FF FF 7F 73 30  33 38 01 FC 0F 52 15 80  ......s038...R..
0FF0: F8 FF FF 7F F8 FF FF 7F  73 30 32 35 45 15 80 F8  ........s025E...
1000: FF FF 7F F8 FF FF 7F 73  30 32 39 01 80 29 0F 22  .......s029..)."
1010: D2 03 01 0F 2B 22 D2 03  01 62 80 1C 5A 80 79 00  ....+"...b..Z.y.
1020: F0 FF FF 7F 22 D2 03 01  4A 35 D2 03 01 22 D2 03  ...."...J5..."..
1030: 01 6F 76 35 D2 03 01 23  29 0F 22 D2 03 01 10 29  .ov5...#)."....)
1040: 0F 22 D2 03 01 11 52 15  80 F8 FF FF 7F F8 FF FF  ."....R.........
1050: 7F 73 30 32 39 45 15 80  F8 FF FF 7F F8 FF FF 7F  .s029E..........
1060: 73 30 32 37 01 80 4A 35  D2 03 01 F0 FF FF 7F 6F  s027..J5.......o
1070: 76 35 D2 03 01 29 0F 35  D2 03 01 01 2B 35 D2 03  v5...).5....+5..
1080: 01 63 80 1C 57 80 79 00  F0 FF FF 7F 35 D2 03 01  .c..W.y.....5...
1090: 79 00 22 D2 03 01 35 D2  03 01 23 29 0F 35 D2 03  y."...5...#).5..
10A0: 01 02 29 0F 22 D2 03 01  12 1A 64 00 29 0F 35 D2  ..).".....d.).5.
10B0: 03 01 05 52 15 80 F8 FF  FF 7F F8 FF FF 7F 73 30  ...R..........s0
10C0: 32 37 2F 00 36 D2 03 01  2F 00 37 D2 03 01 4E 00  27/.6.../.7...N.
10D0: 36 D2 03 01 4E 00 37 D2  03 01 80 36 D2 03 01 80  6...N.7....6....
10E0: 37 D2 03 01 94 01 36 D2  03 01 94 01 37 D2 03 01  7.....6.....7...
10F0: 59 05 36 D2 03 01 01 59  05 37 D2 03 01 01 BA 36  Y.6....Y.7.....6
1100: D2 03 01 64 80 65 80 66  80 67 80 BA 37 D2 03 01  ...d.e.f.g..7...
1110: 68 80 69 80 6A 80 6B 80  59 05 36 D2 03 01 01 59  h.i.j.k.Y.6....Y
1120: 05 37 D2 03 01 01 4A 36  D2 03 01 37 D2 03 01 6F  .7....J6...7...o
1130: 76 36 D2 03 01 1C 18 80  C5 6C 80 37 D2 03 01 37  v6.......l.7...7
1140: D2 03 01 73 30 30 30 01  80 1C 06 80 29 0F 37 D2  ...s000.....).7.
1150: 03 01 02 27 0F 36 D2 03  01 03 45 15 80 F8 FF FF  ...'.6....E.....
1160: 7F F8 FF FF 7F 73 30 33  31 01 80 1A 43 00 2B 35  .....s031...C.+5
1170: D2 03 01 6D 80 45 58 80  F8 FF FF 7F F8 FF FF 7F  ...m.EX.........
1180: 38 31 36 30 01 80 1C 2C  80 23 2B 35 D2 03 01 6E  8160...,.#+5...n
1190: 80 1C 2C 80 2A 0F 36 D2  03 01 1A 64 00 52 15 80  ..,.*.6....d.R..
11A0: F8 FF FF 7F F8 FF FF 7F  73 30 33 31 23 C5 6C 80  ........s031#.l.
11B0: 37 D2 03 01 37 D2 03 01  6B 69 6C 30 01 80 29 0F  7...7...kil0..).
11C0: 35 D2 03 01 06 BA 35 D2  03 01 6F 80 70 80 0C 80  5.....5...o.p...
11D0: 71 80 4A 35 D2 03 01 22  D2 03 01 4A 22 D2 03 01  q.J5..."...J"...
11E0: 35 D2 03 01 6F 76 22 D2  03 01 6F 76 35 D2 03 01  5...ov"...ov5...
11F0: 45 15 80 F8 FF FF 7F F8  FF FF 7F 73 30 33 35 01  E..........s035.
1200: 80 29 0F 35 D2 03 01 29  1A 43 00 2B 35 D2 03 01  .).5...).C.+5...
1210: 72 80 23 29 0F 35 D2 03  01 2A 52 15 80 F8 FF FF  r.#).5...*R.....
1220: 7F F8 FF FF 7F 73 30 33  35 45 15 80 F8 FF FF 7F  .....s035E......
1230: F8 FF FF 7F 73 30 33 36  01 80 29 0F 22 D2 03 01  ....s036..)."...
1240: 0F 2B 22 D2 03 01 73 80  29 0F 35 D2 03 01 4C 4A  .+"...s.).5...LJ
1250: 35 D2 03 01 22 D2 03 01  6F 76 35 D2 03 01 23 29  5..."...ov5...#)
1260: 0F 22 D2 03 01 10 29 0F  22 D2 03 01 11 2A 0F 35  ."....)."....*.5
1270: D2 03 01 45 15 80 F8 FF  FF 7F F8 FF FF 7F 31 30  ...E..........10
1280: 31 33 01 80 29 0F 35 D2  03 01 1B 2B 35 D2 03 01  13..).5....+5...
1290: 74 80 23 29 0F 35 D2 03  01 1C 52 15 80 F8 FF FF  t.#).5....R.....
12A0: 7F F8 FF FF 7F 73 30 33  36 45 15 80 F8 FF FF 7F  .....s036E......
12B0: F8 FF FF 7F 73 30 32 36  01 80 29 0F 22 D2 03 01  ....s026..)."...
12C0: 12 29 0F 22 D2 03 01 0F  27 0F 35 D2 03 01 4C 2B  .)."....'.5...L+
12D0: 22 D2 03 01 75 80 23 2A  0F 35 D2 03 01 29 0F 22  "...u.#*.5...)."
12E0: D2 03 01 10 29 0F 35 D2  03 01 33 1C 19 80 52 15  ....).5...3...R.
12F0: 80 F8 FF FF 7F F8 FF FF  7F 73 30 32 36 45 15 80  .........s026E..
1300: F8 FF FF 7F F8 FF FF 7F  73 30 33 30 01 80 29 0F  ........s030..).
1310: 22 D2 03 01 11 45 15 80  F8 FF FF 7F F8 FF FF 7F  "....E..........
1320: 31 30 31 33 01 80 2B 35  D2 03 01 76 80 23 29 0F  1013..+5...v.#).
1330: 35 D2 03 01 34 29 0F 22  D2 03 01 12 29 0F 22 D2  5...4)."....).".
1340: 03 01 13 2B 22 D2 03 01  77 80 23 29 0F 22 D2 03  ...+"...w.#)."..
1350: 01 14 52 15 80 F8 FF FF  7F F8 FF FF 7F 73 30 33  ..R..........s03
1360: 30 45 15 80 F8 FF FF 7F  F8 FF FF 7F 73 30 33 34  0E..........s034
1370: 01 80 27 0F 22 D2 03 01  2B 27 0F 35 D2 03 01 4E  ..'."...+'.5...N
1380: 2B 35 D2 03 01 78 80 23  2A 0F 35 D2 03 01 2A 0F  +5...x.#*.5...*.
1390: 22 D2 03 01 52 15 80 F8  FF FF 7F F8 FF FF 7F 73  "...R..........s
13A0: 30 33 34 45 15 80 F8 FF  FF 7F F8 FF FF 7F 73 30  034E..........s0
13B0: 33 32 01 80 5D 01 80 08  80 27 0F 35 D2 03 01 4F  32..]....'.5...O
13C0: 1C 5A 80 2B 22 D2 03 01  79 80 23 1C 7A 80 1C 7B  .Z.+"...y.#.z..{
13D0: 80 6C 35 D2 03 01 01 80  03 80 1C 03 80 52 15 80  .l5..........R..
13E0: F8 FF FF 7F F8 FF FF 7F  73 30 33 32 45 15 80 F8  ........s032E...
13F0: FF FF 7F F8 FF FF 7F 73  30 33 33 01 80 1C 06 80  .......s033.....
1400: 4A 22 D2 03 01 F0 FF FF  7F 6F 76 22 D2 03 01 29  J".......ov"...)
1410: 0F 22 D2 03 01 0F 2B 22  D2 03 01 7C 80 1C 5A 80  ."....+"...|..Z.
1420: 4A F0 FF FF 7F 22 D2 03  01 6F 76 F0 FF FF 7F 23  J...."...ov....#
1430: 2A 0F 35 D2 03 01 52 15  80 F8 FF FF 7F F8 FF FF  *.5...R.........
1440: 7F 73 30 33 33 45 15 80  F8 FF FF 7F F8 FF FF 7F  .s033E..........
1450: 73 30 33 37 01 80 2B 22  D2 03 01 7D 80 23 29 0F  s037..+"...}.#).
1460: 22 D2 03 01 10 52 15 80  F8 FF FF 7F F8 FF FF 7F  "....R..........
1470: 73 30 33 37 45 15 80 F8  FF FF 7F F8 FF FF 7F 73  s037E..........s
1480: 30 32 38 01 80 29 0F 22  D2 03 01 11 29 0F 22 D2  028..)."....).".
1490: 03 01 12 4B 22 D2 03 01  7E 80 2B 22 D2 03 01 7F  ...K"...~.+"....
14A0: 80 23 6F 76 22 D2 03 01  27 10 22 D2 03 01 0D 1C  .#ov"...'.".....
14B0: 06 80 5D 01 80 08 80 1A  64 00 1C 06 80 52 15 80  ..].....d....R..
14C0: F8 FF FF 7F F8 FF FF 7F  73 30 32 38 59 05 F0 FF  ........s028Y...
14D0: FF 7F 00 78 5C 00 01 80  5C 01 01 80 9A 5D 14 80  ...x\...\....]..
14E0: 03 80 1C 12 80 AB 11 01  80 1C 03 80 46 00 45 00  ............F.E.
14F0: 80 F8 FF FF 7F F8 FF FF  7F 66 64 69 32 01 80 21  .........fdi2..!
1500: 00                                                .               
```

#### Opcodes

```
  0: 0x0902 [0x42] SET_CLI_EVENT_CANCEL_DATA()
  1: 0x0903 [0x5D] SET_MUSIC_VOLUME(volume=0*, fade_time=300*)
  2: 0x0908 [0x1A] CALL_SUBROUTINE(address=0x0064)
  3: 0x090B [0x46] CAMERA_CONTROL: Disable user control
  4: 0x090D [0x38] SET_CLIENT_EVENT_MODE(mode=147*)
  5: 0x0910 [0x2F] Megomak (ID: 17027618/0x0103D222)->Render.Flags0 &= ~0x80000 // Bit 19
  6: 0x0916 [0x2F] Gloom Phantom (ID: 17027637/0x0103D235)->Render.Flags0 &= ~0x80000 // Bit 19
  7: 0x091C [0x4E] SET_ENTITY_HIDE_FLAG: Show Megomak (ID: 17027618/0x0103D222)
  8: 0x0922 [0x4E] SET_ENTITY_HIDE_FLAG: Show Gloom Phantom (ID: 17027637/0x0103D235)
  9: 0x0928 [0x94] Megomak (ID: 17027618/0x0103D222)->Render.Flags3 ^= 0x01
 10: 0x092E [0x94] Gloom Phantom (ID: 17027637/0x0103D235)->Render.Flags3 ^= 0x01
 11: 0x0934 [0x94] LocalPlayer->Render.Flags3 ^= 0x01
 12: 0x093A [0xBA] SET_ENTITY_POSITION(entity_id=Megomak (ID: 17027618/0x0103D222), pos_x=270.433*, pos_z=-88.078*, pos_y=-32.000*, direction=351.6°*)
 13: 0x0947 [0xBA] SET_ENTITY_POSITION(entity_id=Gloom Phantom (ID: 17027637/0x0103D235), pos_x=277.652*, pos_z=-73.972*, pos_y=-31.999*, direction=88.9°*)
 14: 0x0954 [0xBA] SET_ENTITY_POSITION(entity_id=LocalPlayer, pos_x=275.689*, pos_z=-87.726*, pos_y=-32.000*, direction=178.7°*)
 15: 0x0961 [0x80] LOAD_WAIT(entity=Megomak (ID: 17027618/0x0103D222))
 16: 0x0966 [0x80] LOAD_WAIT(entity=Gloom Phantom (ID: 17027637/0x0103D235))
 17: 0x096B [0x80] LOAD_WAIT(entity=LocalPlayer)
 18: 0x0970 [0x7B] LocalPlayer stops talking
 19: 0x0975 [0x7B] Megomak (ID: 17027618/0x0103D222) stops talking
 20: 0x097A [0x2C] CREATE_SCHEDULER_TASK: Create scheduler "wpon" with entities [Gloom Phantom (ID: 17027637/0x0103D235), Gloom Phantom (ID: 17027637/0x0103D235)]
 21: 0x0987 [0x6C] FADE_ENTITY_COLOR(entity_id=Gloom Phantom (ID: 17027637/0x0103D235), end_alpha=0*, fade_time=1*)
 22: 0x0990 [0x29] REQ_SET_WAIT(priority=0x0F, entity_id=LocalPlayer, tag_num=0x3A)
 23: 0x0997 [0x59] UPDATE_ENTITY_DATA: Set Megomak (ID: 17027618/0x0103D222) main speed = 13* * 0.1
 24: 0x099F [0x1C] WAIT(15* ticks)
 25: 0x09A2 [0x5C] MUSIC_CONTROL: Set Idle (Day) music to song 127*
 26: 0x09A6 [0x5C] MUSIC_CONTROL: Set Idle (Night) music to song 127*
 27: 0x09AA [0x9A] WAIT_MUSIC_SERVER()
 28: 0x09AB [0x5D] SET_MUSIC_VOLUME(volume=127*, fade_time=1*)
 29: 0x09B0 [0x27] REQ_SET(priority=0x10, entity_id=Megomak (ID: 17027618/0x0103D222), tag_num=0x0C)
 30: 0x09B7 [0x1C] WAIT(15* ticks)
 31: 0x09BA [0x45] LOAD_SCHEDULED_TASK: Load scheduler "s001" with entities [EventEntity, EventEntity], work=[857*, 0*]
 32: 0x09CB [0x1A] CALL_SUBROUTINE(address=0x0043)
 33: 0x09CE [0x1C] WAIT(120* ticks)
 34: 0x09D1 [0x52] END_LOAD_SCHEDULER: End scheduler "s001" with entities [EventEntity, EventEntity], work=857*
 35: 0x09E0 [0x45] LOAD_SCHEDULED_TASK: Load scheduler "s002" with entities [EventEntity, EventEntity], work=[857*, 0*]
 36: 0x09F1 [0x2A] GET_REQ_LEVEL(level=16, entity_id=Megomak (ID: 17027618/0x0103D222))
 37: 0x09F7 [0x29] REQ_SET_WAIT(priority=0x0F, entity_id=Megomak (ID: 17027618/0x0103D222), tag_num=0x0F)
 38: 0x09FE [0x2B] Megomak (ID: 17027618/0x0103D222) [8851*]:
    → "Ah, you're back. Did you investigate the Hazhalm Testing Grounds like I asked?"
 39: 0x0A05 [0x23] WAIT_FOR_DIALOG_INTERACTION
 40: 0x0A06 [0x27] REQ_SET(priority=0x0F, entity_id=LocalPlayer, tag_num=0x20)
 41: 0x0A0D [0x1C] WAIT(30* ticks)
 42: 0x0A10 [0x52] END_LOAD_SCHEDULER: End scheduler "s002" with entities [EventEntity, EventEntity], work=857*
 43: 0x0A1F [0x02] IF !(Work_Zone[9] == 3*) GOTO 0x0A3B
 44: 0x0A27 [0x45] LOAD_SCHEDULED_TASK: Load scheduler "s008" with entities [EventEntity, EventEntity], work=[857*, 0*]
 45: 0x0A38 [0x01] GOTO 0x0AA0
 46: 0x0A3B [0x02] IF !(Work_Zone[9] == 5*) GOTO 0x0A57
 47: 0x0A43 [0x45] LOAD_SCHEDULED_TASK: Load scheduler "s009" with entities [EventEntity, EventEntity], work=[857*, 0*]
 48: 0x0A54 [0x01] GOTO 0x0AA0
 49: 0x0A57 [0x02] IF !(Work_Zone[9] == 6*) GOTO 0x0A73
 50: 0x0A5F [0x45] LOAD_SCHEDULED_TASK: Load scheduler "s009" with entities [EventEntity, EventEntity], work=[857*, 0*]
 51: 0x0A70 [0x01] GOTO 0x0AA0
 52: 0x0A73 [0x02] IF !(Work_Zone[9] == 8*) GOTO 0x0A8F
 53: 0x0A7B [0x45] LOAD_SCHEDULED_TASK: Load scheduler "s008" with entities [EventEntity, EventEntity], work=[857*, 0*]
 54: 0x0A8C [0x01] GOTO 0x0AA0
 55: 0x0A8F [0x45] LOAD_SCHEDULED_TASK: Load scheduler "s039" with entities [EventEntity, EventEntity], work=[857*, 0*]

SUBROUTINE_0AA0:
 56: 0x0AA0 [0x2A] GET_REQ_LEVEL(level=15, entity_id=LocalPlayer)
 57: 0x0AA6 [0x02] IF !(Work_Zone[9] == 3*) GOTO 0x0AC0
 58: 0x0AAE [0x52] END_LOAD_SCHEDULER: End scheduler "s008" with entities [EventEntity, EventEntity], work=857*
 59: 0x0ABD [0x01] GOTO 0x0B1D
 60: 0x0AC0 [0x02] IF !(Work_Zone[9] == 5*) GOTO 0x0ADA
 61: 0x0AC8 [0x52] END_LOAD_SCHEDULER: End scheduler "s009" with entities [EventEntity, EventEntity], work=857*
 62: 0x0AD7 [0x01] GOTO 0x0B1D
 63: 0x0ADA [0x02] IF !(Work_Zone[9] == 6*) GOTO 0x0AF4
 64: 0x0AE2 [0x52] END_LOAD_SCHEDULER: End scheduler "s009" with entities [EventEntity, EventEntity], work=857*
 65: 0x0AF1 [0x01] GOTO 0x0B1D
 66: 0x0AF4 [0x02] IF !(Work_Zone[9] == 8*) GOTO 0x0B0E
 67: 0x0AFC [0x52] END_LOAD_SCHEDULER: End scheduler "s008" with entities [EventEntity, EventEntity], work=857*
 68: 0x0B0B [0x01] GOTO 0x0B1D
 69: 0x0B0E [0x52] END_LOAD_SCHEDULER: End scheduler "s039" with entities [EventEntity, EventEntity], work=857*

SUBROUTINE_0B1D:
 70: 0x0B1D [0x45] LOAD_SCHEDULED_TASK: Load scheduler "s003" with entities [EventEntity, EventEntity], work=[857*, 0*]
 71: 0x0B2E [0x03] Work_Zone[3] = 3264*
 72: 0x0B33 [0x2B] Megomak (ID: 17027618/0x0103D222) [8852*]:
    → "What's this? This is the $3 I asked for!"
 73: 0x0B3A [0x23] WAIT_FOR_DIALOG_INTERACTION
 74: 0x0B3B [0x29] REQ_SET_WAIT(priority=0x0F, entity_id=Megomak (ID: 17027618/0x0103D222), tag_num=0x10)
 75: 0x0B42 [0x1A] CALL_SUBROUTINE(address=0x0064)
 76: 0x0B45 [0x52] END_LOAD_SCHEDULER: End scheduler "s003" with entities [EventEntity, EventEntity], work=857*
 77: 0x0B54 [0x29] REQ_SET_WAIT(priority=0x0F, entity_id=Megomak (ID: 17027618/0x0103D222), tag_num=0x11)
 78: 0x0B5B [0x29] REQ_SET_WAIT(priority=0x0F, entity_id=Megomak (ID: 17027618/0x0103D222), tag_num=0x12)
 79: 0x0B62 [0x29] REQ_SET_WAIT(priority=0x0F, entity_id=Megomak (ID: 17027618/0x0103D222), tag_num=0x19)
 80: 0x0B69 [0x1C] WAIT(2* ticks)
 81: 0x0B6C [0x29] REQ_SET_WAIT(priority=0x10, entity_id=LocalPlayer, tag_num=0x1E)
 82: 0x0B73 [0x1C] WAIT(150* ticks)
 83: 0x0B76 [0x29] REQ_SET_WAIT(priority=0x10, entity_id=LocalPlayer, tag_num=0x1F)
 84: 0x0B7D [0x45] LOAD_SCHEDULED_TASK: Load scheduler "s012" with entities [EventEntity, EventEntity], work=[857*, 0*]
 85: 0x0B8E [0x1A] CALL_SUBROUTINE(address=0x0043)
 86: 0x0B91 [0x2B] Megomak (ID: 17027618/0x0103D222) [8853*]:
    → "I'm not sure I understand the details, but it's good that I didn't go personally."
 87: 0x0B98 [0x23] WAIT_FOR_DIALOG_INTERACTION
 88: 0x0B99 [0x29] REQ_SET_WAIT(priority=0x0F, entity_id=Megomak (ID: 17027618/0x0103D222), tag_num=0x1A)
 89: 0x0BA0 [0x52] END_LOAD_SCHEDULER: End scheduler "s012" with entities [EventEntity, EventEntity], work=857*
 90: 0x0BAF [0x02] IF !(Work_Zone[9] == 5*) GOTO 0x0BCB
 91: 0x0BB7 [0x45] LOAD_SCHEDULED_TASK: Load scheduler "s011" with entities [EventEntity, EventEntity], work=[857*, 0*]
 92: 0x0BC8 [0x01] GOTO 0x0BF8
 93: 0x0BCB [0x02] IF !(Work_Zone[9] == 6*) GOTO 0x0BE7
 94: 0x0BD3 [0x45] LOAD_SCHEDULED_TASK: Load scheduler "s011" with entities [EventEntity, EventEntity], work=[857*, 0*]
 95: 0x0BE4 [0x01] GOTO 0x0BF8
 96: 0x0BE7 [0x45] LOAD_SCHEDULED_TASK: Load scheduler "s005" with entities [EventEntity, EventEntity], work=[857*, 0*]

SUBROUTINE_0BF8:
 97: 0x0BF8 [0x29] REQ_SET_WAIT(priority=0x0F, entity_id=Megomak (ID: 17027618/0x0103D222), tag_num=0x1B)
 98: 0x0BFF [0x2B] Megomak (ID: 17027618/0x0103D222) [8854*]:
    → "I don't think Megomak could handle being chased around by some haughty automaton."
 99: 0x0C06 [0x23] WAIT_FOR_DIALOG_INTERACTION
100: 0x0C07 [0x29] REQ_SET_WAIT(priority=0x0F, entity_id=Megomak (ID: 17027618/0x0103D222), tag_num=0x1C)
101: 0x0C0E [0x29] REQ_SET_WAIT(priority=0x0F, entity_id=Megomak (ID: 17027618/0x0103D222), tag_num=0x0F)
102: 0x0C15 [0x2B] Megomak (ID: 17027618/0x0103D222) [8855*]:
    → "At any rate, where are the Destiny Destroyers now?"
103: 0x0C1C [0x23] WAIT_FOR_DIALOG_INTERACTION
104: 0x0C1D [0x29] REQ_SET_WAIT(priority=0x0F, entity_id=Megomak (ID: 17027618/0x0103D222), tag_num=0x10)
105: 0x0C24 [0x02] IF !(Work_Zone[9] == 5*) GOTO 0x0C3E
106: 0x0C2C [0x52] END_LOAD_SCHEDULER: End scheduler "s011" with entities [EventEntity, EventEntity], work=857*
107: 0x0C3B [0x01] GOTO 0x0C67
108: 0x0C3E [0x02] IF !(Work_Zone[9] == 6*) GOTO 0x0C58
109: 0x0C46 [0x52] END_LOAD_SCHEDULER: End scheduler "s011" with entities [EventEntity, EventEntity], work=857*
110: 0x0C55 [0x01] GOTO 0x0C67
111: 0x0C58 [0x52] END_LOAD_SCHEDULER: End scheduler "s005" with entities [EventEntity, EventEntity], work=857*

SUBROUTINE_0C67:
112: 0x0C67 [0x45] LOAD_SCHEDULED_TASK: Load scheduler "s014" with entities [EventEntity, EventEntity], work=[857*, 0*]
113: 0x0C78 [0x2B] Megomak (ID: 17027618/0x0103D222) [8856*]:
    → "I told them how to reach the elder, so perhaps they went straight there."
114: 0x0C7F [0x23] WAIT_FOR_DIALOG_INTERACTION
115: 0x0C80 [0x03] Work_Zone[2] = 4420*
116: 0x0C85 [0x03] Work_Zone[3] = 4424*
117: 0x0C8A [0x2B] Megomak (ID: 17027618/0x0103D222) [8857*]:
    → "Ah, and here I was ready to treat them to $0 and $1 too..."
118: 0x0C91 [0x23] WAIT_FOR_DIALOG_INTERACTION
119: 0x0C92 [0x52] END_LOAD_SCHEDULER: End scheduler "s014" with entities [EventEntity, EventEntity], work=857*
120: 0x0CA1 [0x45] LOAD_SCHEDULED_TASK: Load scheduler "s015" with entities [EventEntity, EventEntity], work=[857*, 0*]
121: 0x0CB2 [0x29] REQ_SET_WAIT(priority=0x0F, entity_id=Megomak (ID: 17027618/0x0103D222), tag_num=0x11)
122: 0x0CB9 [0x2B] Megomak (ID: 17027618/0x0103D222) [8858*]:
    → "Hm? What are you still doing here?"
123: 0x0CC0 [0x23] WAIT_FOR_DIALOG_INTERACTION
124: 0x0CC1 [0x29] REQ_SET_WAIT(priority=0x0F, entity_id=Megomak (ID: 17027618/0x0103D222), tag_num=0x12)
125: 0x0CC8 [0x52] END_LOAD_SCHEDULER: End scheduler "s015" with entities [EventEntity, EventEntity], work=857*
126: 0x0CD7 [0x45] LOAD_SCHEDULED_TASK: Load scheduler "s003" with entities [EventEntity, EventEntity], work=[857*, 0*]
127: 0x0CE8 [0x29] REQ_SET_WAIT(priority=0x0F, entity_id=Megomak (ID: 17027618/0x0103D222), tag_num=0x13)
128: 0x0CEF [0x2B] Megomak (ID: 17027618/0x0103D222) [8859*]:
    → "Oh, that's right! You wanted to learn more about Falak!"
129: 0x0CF6 [0x23] WAIT_FOR_DIALOG_INTERACTION
130: 0x0CF7 [0x5D] SET_MUSIC_VOLUME(volume=0*, fade_time=300*)
131: 0x0CFC [0x1A] CALL_SUBROUTINE(address=0x0064)
132: 0x0CFF [0x1C] WAIT(30* ticks)
133: 0x0D02 [0x52] END_LOAD_SCHEDULER: End scheduler "s003" with entities [EventEntity, EventEntity], work=857*
134: 0x0D11 [0x5C] MUSIC_CONTROL: Set Idle (Day) music to song 27*
135: 0x0D15 [0x5C] MUSIC_CONTROL: Set Idle (Night) music to song 27*
136: 0x0D19 [0x9A] WAIT_MUSIC_SERVER()
137: 0x0D1A [0x5D] SET_MUSIC_VOLUME(volume=127*, fade_time=1*)
138: 0x0D1F [0x48] [System] [7833*]:
    → "@@"
139: 0x0D22 [0x23] WAIT_FOR_DIALOG_INTERACTION
140: 0x0D23 [0x1A] CALL_SUBROUTINE(address=0x020B)
141: 0x0D26 [0x1C] WAIT(60* ticks)
142: 0x0D29 [0x89] OPEN_MAP(map_id=0x0000804A)
143: 0x0D2C [0x1C] WAIT(60* ticks)
144: 0x0D2F [0xB4] UI_WINDOW_STRING_HANDLER(case=0x14 - Update map window values, work_offset1=60000*, work_offset2=4294867296*, work_offset3=1500*, work_offset4=0*, work_offset5=1*)
145: 0x0D3B [0xB4] UI_WINDOW_STRING_HANDLER(case=0x14 - Update map window values, work_offset1=0*, work_offset2=4294947296*, work_offset3=1000*, work_offset4=300*, work_offset5=1*)
146: 0x0D47 [0x03] Work_Zone[2] = 600*
147: 0x0D4C [0x27] REQ_SET(priority=0x10, entity_id=LocalPlayer, tag_num=0x3B)
148: 0x0D53 [0x1A] CALL_SUBROUTINE(address=0x01F9)
149: 0x0D56 [0x1C] WAIT(120* ticks)
150: 0x0D59 [0x2B] Megomak (ID: 17027618/0x0103D222) [8860*]:
    → "You see, it all began several thousand years ago."
151: 0x0D60 [0x23] WAIT_FOR_DIALOG_INTERACTION
152: 0x0D61 [0x1C] WAIT(60* ticks)
153: 0x0D64 [0x2B] Megomak (ID: 17027618/0x0103D222) [8861*]:
    → "Falak attempted to lay waste to Aht Urhgan, but was eventually stopped and separated into nine pieces."
154: 0x0D6B [0x23] WAIT_FOR_DIALOG_INTERACTION
155: 0x0D6C [0x1C] WAIT(60* ticks)
156: 0x0D6F [0x2B] Megomak (ID: 17027618/0x0103D222) [8862*]:
    → "However, what you refer to as the Olduum civilization gave rise to some ingenious alchemists who knew nothing of fear."
157: 0x0D76 [0x23] WAIT_FOR_DIALOG_INTERACTION
158: 0x0D77 [0x1C] WAIT(60* ticks)
159: 0x0D7A [0x2B] Megomak (ID: 17027618/0x0103D222) [8863*]:
    → "They lifted the seal on the "Urn of Sealing" and took those nine pieces and used them to create entirely new beings, consisting of three pieces each."
160: 0x0D81 [0x23] WAIT_FOR_DIALOG_INTERACTION
161: 0x0D82 [0x1A] CALL_SUBROUTINE(address=0x020B)
162: 0x0D85 [0x8A] CLOSE_MAP()
163: 0x0D86 [0xB4] UI_WINDOW_STRING_HANDLER(case=0x15 - Test map window validity)
164: 0x0D88 [0x1A] CALL_SUBROUTINE(address=0x01F9)
165: 0x0D8B [0x48] [System] [7833*]:
    → "@@"
166: 0x0D8E [0x29] REQ_SET_WAIT(priority=0x0F, entity_id=Megomak (ID: 17027618/0x0103D222), tag_num=0x2B)
167: 0x0D95 [0x29] REQ_SET_WAIT(priority=0x0F, entity_id=Megomak (ID: 17027618/0x0103D222), tag_num=0x0F)
168: 0x0D9C [0x6C] FADE_ENTITY_COLOR(entity_id=Gloom Phantom (ID: 17027637/0x0103D235), end_alpha=128*, fade_time=1*)
169: 0x0DA5 [0x45] LOAD_SCHEDULED_TASK: Load scheduler "s007" with entities [EventEntity, EventEntity], work=[857*, 0*]
170: 0x0DB6 [0x1A] CALL_SUBROUTINE(address=0x0043)
171: 0x0DB9 [0x2B] Megomak (ID: 17027618/0x0103D222) [8864*]:
    → "That is how the three chimeras known as Tinnin, Sarameya, and Tyger were created, and research into chimeras began."
172: 0x0DC0 [0x23] WAIT_FOR_DIALOG_INTERACTION
173: 0x0DC1 [0x29] REQ_SET_WAIT(priority=0x0F, entity_id=Megomak (ID: 17027618/0x0103D222), tag_num=0x10)
174: 0x0DC8 [0x27] REQ_SET(priority=0x0F, entity_id=Gloom Phantom (ID: 17027637/0x0103D235), tag_num=0x4D)
175: 0x0DCF [0x1C] WAIT(20* ticks)
176: 0x0DD2 [0x52] END_LOAD_SCHEDULER: End scheduler "s007" with entities [EventEntity, EventEntity], work=857*
177: 0x0DE1 [0x45] LOAD_SCHEDULED_TASK: Load scheduler "s022" with entities [EventEntity, EventEntity], work=[857*, 0*]
178: 0x0DF2 [0x29] REQ_SET_WAIT(priority=0x0F, entity_id=Megomak (ID: 17027618/0x0103D222), tag_num=0x11)
179: 0x0DF9 [0x45] LOAD_SCHEDULED_TASK: Load scheduler "8160" with entities [EventEntity, EventEntity], work=[858*, 0*]
180: 0x0E0A [0x2B] Gloom Phantom (ID: 17027637/0x0103D235) [8865*]:
    → "You people don't get it..."
181: 0x0E11 [0x1C] WAIT(10* ticks)
182: 0x0E14 [0x4A] LocalPlayer looks at Gloom Phantom (ID: 17027637/0x0103D235)
183: 0x0E1D [0x29] REQ_SET_WAIT(priority=0x0F, entity_id=Megomak (ID: 17027618/0x0103D222), tag_num=0x12)
184: 0x0E24 [0x4A] Megomak (ID: 17027618/0x0103D222) looks at Gloom Phantom (ID: 17027637/0x0103D235)
185: 0x0E2D [0x6F] WAIT_FRAME_DELAY: Yield until WaitTime reaches zero
186: 0x0E2E [0x76] CHECK_ENTITY_RENDER_FLAGS: Wait until Megomak (ID: 17027618/0x0103D222) Render.Flags0 and Render.Flags3 conditions are met
187: 0x0E33 [0x6F] WAIT_FRAME_DELAY: Yield until WaitTime reaches zero
188: 0x0E34 [0x76] CHECK_ENTITY_RENDER_FLAGS: Wait until LocalPlayer Render.Flags0 and Render.Flags3 conditions are met
189: 0x0E39 [0x1C] WAIT(40* ticks)
190: 0x0E3C [0x52] END_LOAD_SCHEDULER: End scheduler "s022" with entities [EventEntity, EventEntity], work=857*
191: 0x0E4B [0x45] LOAD_SCHEDULED_TASK: Load scheduler "s023" with entities [EventEntity, EventEntity], work=[857*, 0*]
192: 0x0E5C [0x23] WAIT_FOR_DIALOG_INTERACTION
193: 0x0E5D [0x2A] GET_REQ_LEVEL(level=15, entity_id=Gloom Phantom (ID: 17027637/0x0103D235))
194: 0x0E63 [0x45] LOAD_SCHEDULED_TASK: Load scheduler "1001" with entities [EventEntity, EventEntity], work=[857*, 0*]
195: 0x0E74 [0x29] REQ_SET_WAIT(priority=0x0F, entity_id=Gloom Phantom (ID: 17027637/0x0103D235), tag_num=0x01)
196: 0x0E7B [0x2B] Gloom Phantom (ID: 17027637/0x0103D235) [8866*]:
    → "If Tinnin, Sarameya, and Tyger are combined, it'll lead to Falak's resurrection!"
197: 0x0E82 [0x4A] Megomak (ID: 17027618/0x0103D222) looks at Gloom Phantom (ID: 17027637/0x0103D235)
198: 0x0E8B [0x4A] LocalPlayer looks at Gloom Phantom (ID: 17027637/0x0103D235)
199: 0x0E94 [0x6F] WAIT_FRAME_DELAY: Yield until WaitTime reaches zero
200: 0x0E95 [0x76] CHECK_ENTITY_RENDER_FLAGS: Wait until Megomak (ID: 17027618/0x0103D222) Render.Flags0 and Render.Flags3 conditions are met
201: 0x0E9A [0x6F] WAIT_FRAME_DELAY: Yield until WaitTime reaches zero
202: 0x0E9B [0x76] CHECK_ENTITY_RENDER_FLAGS: Wait until LocalPlayer Render.Flags0 and Render.Flags3 conditions are met
203: 0x0EA0 [0x23] WAIT_FOR_DIALOG_INTERACTION
204: 0x0EA1 [0x29] REQ_SET_WAIT(priority=0x0F, entity_id=Gloom Phantom (ID: 17027637/0x0103D235), tag_num=0x02)
205: 0x0EA8 [0x52] END_LOAD_SCHEDULER: End scheduler "s023" with entities [EventEntity, EventEntity], work=857*
206: 0x0EB7 [0x45] LOAD_SCHEDULED_TASK: Load scheduler "s024" with entities [EventEntity, EventEntity], work=[857*, 0*]
207: 0x0EC8 [0x29] REQ_SET_WAIT(priority=0x0F, entity_id=Gloom Phantom (ID: 17027637/0x0103D235), tag_num=0x05)
208: 0x0ECF [0x27] REQ_SET(priority=0x0F, entity_id=Megomak (ID: 17027618/0x0103D222), tag_num=0x2C)
209: 0x0ED6 [0x03] Work_Zone[3] = 3264*
210: 0x0EDB [0x2B] Megomak (ID: 17027618/0x0103D222) [8867*]:
    → "Ah, there you are! I received the $3 from this person here!"
211: 0x0EE2 [0x23] WAIT_FOR_DIALOG_INTERACTION
212: 0x0EE3 [0x2A] GET_REQ_LEVEL(level=15, entity_id=Megomak (ID: 17027618/0x0103D222))
213: 0x0EE9 [0x29] REQ_SET_WAIT(priority=0x0F, entity_id=Gloom Phantom (ID: 17027637/0x0103D235), tag_num=0x06)
214: 0x0EF0 [0x4A] Gloom Phantom (ID: 17027637/0x0103D235) looks at LocalPlayer
215: 0x0EF9 [0x6F] WAIT_FRAME_DELAY: Yield until WaitTime reaches zero
216: 0x0EFA [0x76] CHECK_ENTITY_RENDER_FLAGS: Wait until Gloom Phantom (ID: 17027637/0x0103D235) Render.Flags0 and Render.Flags3 conditions are met
217: 0x0EFF [0x52] END_LOAD_SCHEDULER: End scheduler "s024" with entities [EventEntity, EventEntity], work=857*
218: 0x0F0E [0x02] IF !(Work_Zone[9] == 5*) GOTO 0x0F2A
219: 0x0F16 [0x45] LOAD_SCHEDULED_TASK: Load scheduler "s038" with entities [EventEntity, EventEntity], work=[857*, 0*]
220: 0x0F27 [0x01] GOTO 0x0F57
221: 0x0F2A [0x02] IF !(Work_Zone[9] == 6*) GOTO 0x0F46
222: 0x0F32 [0x45] LOAD_SCHEDULED_TASK: Load scheduler "s038" with entities [EventEntity, EventEntity], work=[857*, 0*]
223: 0x0F43 [0x01] GOTO 0x0F57
224: 0x0F46 [0x45] LOAD_SCHEDULED_TASK: Load scheduler "s025" with entities [EventEntity, EventEntity], work=[857*, 0*]

SUBROUTINE_0F57:
225: 0x0F57 [0x45] LOAD_SCHEDULED_TASK: Load scheduler "1014" with entities [EventEntity, EventEntity], work=[857*, 0*]
226: 0x0F68 [0x2B] Gloom Phantom (ID: 17027637/0x0103D235) [8868*]:
    → "You... Have we met before?"
227: 0x0F6F [0x23] WAIT_FOR_DIALOG_INTERACTION
228: 0x0F70 [0x4B] UPDATE_ENTITY_YAW(entity=Megomak (ID: 17027618/0x0103D222), yaw=20.9°*)
229: 0x0F77 [0x24] CREATE_DIALOG(message_id=8869*, default_option=0*, option_flags=0*)
    → "How will you respond? [Yes, we have./I don't think so.]"
230: 0x0F7E [0x25] WAIT_DIALOG_SELECT()
231: 0x0F7F [0x02] IF !(Work_Zone[0] == 0*) GOTO 0x0F99
232: 0x0F87 [0x6E] LocalPlayer uses emote 7*
233: 0x0F8E [0x99] Wait for LocalPlayer animation to complete
234: 0x0F93 [0x1C] WAIT(60* ticks)
235: 0x0F96 [0x01] GOTO 0x0FB3
236: 0x0F99 [0x02] IF !(Work_Zone[0] == 1*) GOTO 0x0FB3
237: 0x0FA1 [0x6E] LocalPlayer uses emote 6*
238: 0x0FA8 [0x99] Wait for LocalPlayer animation to complete
239: 0x0FAD [0x1C] WAIT(60* ticks)
240: 0x0FB0 [0x01] GOTO 0x0FB3

SUBROUTINE_0FB3:
241: 0x0FB3 [0x6F] WAIT_FRAME_DELAY: Yield until WaitTime reaches zero
242: 0x0FB4 [0x76] CHECK_ENTITY_RENDER_FLAGS: Wait until Megomak (ID: 17027618/0x0103D222) Render.Flags0 and Render.Flags3 conditions are met
243: 0x0FB9 [0x02] IF !(Work_Zone[9] == 5*) GOTO 0x0FD3
244: 0x0FC1 [0x52] END_LOAD_SCHEDULER: End scheduler "s038" with entities [EventEntity, EventEntity], work=857*
245: 0x0FD0 [0x01] GOTO 0x0FFC
246: 0x0FD3 [0x02] IF !(Work_Zone[9] == 6*) GOTO 0x0FED
247: 0x0FDB [0x52] END_LOAD_SCHEDULER: End scheduler "s038" with entities [EventEntity, EventEntity], work=857*
248: 0x0FEA [0x01] GOTO 0x0FFC
249: 0x0FED [0x52] END_LOAD_SCHEDULER: End scheduler "s025" with entities [EventEntity, EventEntity], work=857*

SUBROUTINE_0FFC:
250: 0x0FFC [0x45] LOAD_SCHEDULED_TASK: Load scheduler "s029" with entities [EventEntity, EventEntity], work=[857*, 0*]
251: 0x100D [0x29] REQ_SET_WAIT(priority=0x0F, entity_id=Megomak (ID: 17027618/0x0103D222), tag_num=0x0F)
252: 0x1014 [0x2B] Megomak (ID: 17027618/0x0103D222) [8870*]:
    → "Bah, who cares? Hurry up and finish the story, will you? In a way, it's about you, right?"
253: 0x101B [0x1C] WAIT(10* ticks)
254: 0x101E [0x79] LocalPlayer looks at Megomak (ID: 17027618/0x0103D222) (Basic look)
255: 0x1028 [0x4A] Gloom Phantom (ID: 17027637/0x0103D235) looks at Megomak (ID: 17027618/0x0103D222)
256: 0x1031 [0x6F] WAIT_FRAME_DELAY: Yield until WaitTime reaches zero
257: 0x1032 [0x76] CHECK_ENTITY_RENDER_FLAGS: Wait until Gloom Phantom (ID: 17027637/0x0103D235) Render.Flags0 and Render.Flags3 conditions are met
258: 0x1037 [0x23] WAIT_FOR_DIALOG_INTERACTION
259: 0x1038 [0x29] REQ_SET_WAIT(priority=0x0F, entity_id=Megomak (ID: 17027618/0x0103D222), tag_num=0x10)
260: 0x103F [0x29] REQ_SET_WAIT(priority=0x0F, entity_id=Megomak (ID: 17027618/0x0103D222), tag_num=0x11)
261: 0x1046 [0x52] END_LOAD_SCHEDULER: End scheduler "s029" with entities [EventEntity, EventEntity], work=857*
262: 0x1055 [0x45] LOAD_SCHEDULED_TASK: Load scheduler "s027" with entities [EventEntity, EventEntity], work=[857*, 0*]
263: 0x1066 [0x4A] Gloom Phantom (ID: 17027637/0x0103D235) looks at LocalPlayer
264: 0x106F [0x6F] WAIT_FRAME_DELAY: Yield until WaitTime reaches zero
265: 0x1070 [0x76] CHECK_ENTITY_RENDER_FLAGS: Wait until Gloom Phantom (ID: 17027637/0x0103D235) Render.Flags0 and Render.Flags3 conditions are met
266: 0x1075 [0x29] REQ_SET_WAIT(priority=0x0F, entity_id=Gloom Phantom (ID: 17027637/0x0103D235), tag_num=0x01)
267: 0x107C [0x2B] Gloom Phantom (ID: 17027637/0x0103D235) [8871*]:
    → "Fine. The hero of this story happens to be one of my ancestors."
268: 0x1083 [0x1C] WAIT(20* ticks)
269: 0x1086 [0x79] LocalPlayer looks at Gloom Phantom (ID: 17027637/0x0103D235) (Basic look)
270: 0x1090 [0x79] Megomak (ID: 17027618/0x0103D222) looks at Gloom Phantom (ID: 17027637/0x0103D235) (Basic look)
271: 0x109A [0x23] WAIT_FOR_DIALOG_INTERACTION
272: 0x109B [0x29] REQ_SET_WAIT(priority=0x0F, entity_id=Gloom Phantom (ID: 17027637/0x0103D235), tag_num=0x02)
273: 0x10A2 [0x29] REQ_SET_WAIT(priority=0x0F, entity_id=Megomak (ID: 17027618/0x0103D222), tag_num=0x12)
274: 0x10A9 [0x1A] CALL_SUBROUTINE(address=0x0064)
275: 0x10AC [0x29] REQ_SET_WAIT(priority=0x0F, entity_id=Gloom Phantom (ID: 17027637/0x0103D235), tag_num=0x05)
276: 0x10B3 [0x52] END_LOAD_SCHEDULER: End scheduler "s027" with entities [EventEntity, EventEntity], work=857*
277: 0x10C2 [0x2F] Unnamed NPC (ID: 17027638/0x0103D236)->Render.Flags0 &= ~0x80000 // Bit 19
278: 0x10C8 [0x2F] Unnamed NPC (ID: 17027639/0x0103D237)->Render.Flags0 &= ~0x80000 // Bit 19
279: 0x10CE [0x4E] SET_ENTITY_HIDE_FLAG: Show Unnamed NPC (ID: 17027638/0x0103D236)
280: 0x10D4 [0x4E] SET_ENTITY_HIDE_FLAG: Show Unnamed NPC (ID: 17027639/0x0103D237)
281: 0x10DA [0x80] LOAD_WAIT(entity=Unnamed NPC (ID: 17027638/0x0103D236))
282: 0x10DF [0x80] LOAD_WAIT(entity=Unnamed NPC (ID: 17027639/0x0103D237))
283: 0x10E4 [0x94] Unnamed NPC (ID: 17027638/0x0103D236)->Render.Flags3 ^= 0x01
284: 0x10EA [0x94] Unnamed NPC (ID: 17027639/0x0103D237)->Render.Flags3 ^= 0x01
285: 0x10F0 [0x59] UPDATE_ENTITY_DATA: Unnamed NPC (ID: 17027638/0x0103D236)->Render.Flags0 |= 0x200000
286: 0x10F7 [0x59] UPDATE_ENTITY_DATA: Unnamed NPC (ID: 17027639/0x0103D237)->Render.Flags0 |= 0x200000
287: 0x10FE [0xBA] SET_ENTITY_POSITION(entity_id=Unnamed NPC (ID: 17027638/0x0103D236), pos_x=310.056*, pos_z=-66.586*, pos_y=-160.998*, direction=245.9°*)
288: 0x110B [0xBA] SET_ENTITY_POSITION(entity_id=Unnamed NPC (ID: 17027639/0x0103D237), pos_x=301.815*, pos_z=-74.647*, pos_y=-160.999*, direction=133.8°*)
289: 0x1118 [0x59] UPDATE_ENTITY_DATA: Unnamed NPC (ID: 17027638/0x0103D236)->Render.Flags0 |= 0x200000
290: 0x111F [0x59] UPDATE_ENTITY_DATA: Unnamed NPC (ID: 17027639/0x0103D237)->Render.Flags0 |= 0x200000
291: 0x1126 [0x4A] Unnamed NPC (ID: 17027638/0x0103D236) looks at Unnamed NPC (ID: 17027639/0x0103D237)
292: 0x112F [0x6F] WAIT_FRAME_DELAY: Yield until WaitTime reaches zero
293: 0x1130 [0x76] CHECK_ENTITY_RENDER_FLAGS: Wait until Unnamed NPC (ID: 17027638/0x0103D236) Render.Flags0 and Render.Flags3 conditions are met
294: 0x1135 [0x1C] WAIT(3* ticks)
295: 0x1138 [0xC5] LOAD_SCHEDULED_TASK_ALT3: Load scheduler 0x80013030 for entities [Unnamed NPC (ID: 17027639/0x0103D237), Unnamed NPC (ID: 17027639/0x0103D237)], work=213*, param=12403
296: 0x1149 [0x1C] WAIT(30* ticks)
297: 0x114C [0x29] REQ_SET_WAIT(priority=0x0F, entity_id=Unnamed NPC (ID: 17027639/0x0103D237), tag_num=0x02)
298: 0x1153 [0x27] REQ_SET(priority=0x0F, entity_id=Unnamed NPC (ID: 17027638/0x0103D236), tag_num=0x03)
299: 0x115A [0x45] LOAD_SCHEDULED_TASK: Load scheduler "s031" with entities [EventEntity, EventEntity], work=[857*, 0*]
300: 0x116B [0x1A] CALL_SUBROUTINE(address=0x0043)
301: 0x116E [0x2B] Gloom Phantom (ID: 17027637/0x0103D235) [8872*]:
    → "My ancestor was a renowned hero who came across a human who he could communicate with, a man named Ramuul."
302: 0x1175 [0x45] LOAD_SCHEDULED_TASK: Load scheduler "8160" with entities [EventEntity, EventEntity], work=[858*, 0*]
303: 0x1186 [0x1C] WAIT(60* ticks)
304: 0x1189 [0x23] WAIT_FOR_DIALOG_INTERACTION
305: 0x118A [0x2B] Gloom Phantom (ID: 17027637/0x0103D235) [8873*]:
    → "Even though he was human, he knew the danger posed by Falak. With the stone tablets, he sealed it away through three "islands"!"
306: 0x1191 [0x1C] WAIT(60* ticks)
307: 0x1194 [0x2A] GET_REQ_LEVEL(level=15, entity_id=Unnamed NPC (ID: 17027638/0x0103D236))
308: 0x119A [0x1A] CALL_SUBROUTINE(address=0x0064)
309: 0x119D [0x52] END_LOAD_SCHEDULER: End scheduler "s031" with entities [EventEntity, EventEntity], work=857*
310: 0x11AC [0x23] WAIT_FOR_DIALOG_INTERACTION
311: 0x11AD [0xC5] LOAD_SCHEDULED_TASK_ALT3: Load scheduler 0x8001306C for entities [Unnamed NPC (ID: 17027639/0x0103D237), Unnamed NPC (ID: 17027639/0x0103D237)], work=213*, param=26987
312: 0x11BE [0x29] REQ_SET_WAIT(priority=0x0F, entity_id=Gloom Phantom (ID: 17027637/0x0103D235), tag_num=0x06)
313: 0x11C5 [0xBA] SET_ENTITY_POSITION(entity_id=Gloom Phantom (ID: 17027637/0x0103D235), pos_x=274.770*, pos_z=-84.413*, pos_y=-32.000*, direction=119.2°*)
314: 0x11D2 [0x4A] Gloom Phantom (ID: 17027637/0x0103D235) looks at Megomak (ID: 17027618/0x0103D222)
315: 0x11DB [0x4A] Megomak (ID: 17027618/0x0103D222) looks at Gloom Phantom (ID: 17027637/0x0103D235)
316: 0x11E4 [0x6F] WAIT_FRAME_DELAY: Yield until WaitTime reaches zero
317: 0x11E5 [0x76] CHECK_ENTITY_RENDER_FLAGS: Wait until Megomak (ID: 17027618/0x0103D222) Render.Flags0 and Render.Flags3 conditions are met
318: 0x11EA [0x6F] WAIT_FRAME_DELAY: Yield until WaitTime reaches zero
319: 0x11EB [0x76] CHECK_ENTITY_RENDER_FLAGS: Wait until Gloom Phantom (ID: 17027637/0x0103D235) Render.Flags0 and Render.Flags3 conditions are met
320: 0x11F0 [0x45] LOAD_SCHEDULED_TASK: Load scheduler "s035" with entities [EventEntity, EventEntity], work=[857*, 0*]
321: 0x1201 [0x29] REQ_SET_WAIT(priority=0x0F, entity_id=Gloom Phantom (ID: 17027637/0x0103D235), tag_num=0x29)
322: 0x1208 [0x1A] CALL_SUBROUTINE(address=0x0043)
323: 0x120B [0x2B] Gloom Phantom (ID: 17027637/0x0103D235) [8874*]:
    → "To do so, he used a powerful relic known as the Olduum staff. Only it is capable of breaking the rock!"
324: 0x1212 [0x23] WAIT_FOR_DIALOG_INTERACTION
325: 0x1213 [0x29] REQ_SET_WAIT(priority=0x0F, entity_id=Gloom Phantom (ID: 17027637/0x0103D235), tag_num=0x2A)
326: 0x121A [0x52] END_LOAD_SCHEDULER: End scheduler "s035" with entities [EventEntity, EventEntity], work=857*
327: 0x1229 [0x45] LOAD_SCHEDULED_TASK: Load scheduler "s036" with entities [EventEntity, EventEntity], work=[857*, 0*]
328: 0x123A [0x29] REQ_SET_WAIT(priority=0x0F, entity_id=Megomak (ID: 17027618/0x0103D222), tag_num=0x0F)
329: 0x1241 [0x2B] Megomak (ID: 17027618/0x0103D222) [8875*]:
    → "The tablet has become quite the hot spot. The place is crawling with the undead."
330: 0x1248 [0x29] REQ_SET_WAIT(priority=0x0F, entity_id=Gloom Phantom (ID: 17027637/0x0103D235), tag_num=0x4C)
331: 0x124F [0x4A] Gloom Phantom (ID: 17027637/0x0103D235) looks at Megomak (ID: 17027618/0x0103D222)
332: 0x1258 [0x6F] WAIT_FRAME_DELAY: Yield until WaitTime reaches zero
333: 0x1259 [0x76] CHECK_ENTITY_RENDER_FLAGS: Wait until Gloom Phantom (ID: 17027637/0x0103D235) Render.Flags0 and Render.Flags3 conditions are met
334: 0x125E [0x23] WAIT_FOR_DIALOG_INTERACTION
335: 0x125F [0x29] REQ_SET_WAIT(priority=0x0F, entity_id=Megomak (ID: 17027618/0x0103D222), tag_num=0x10)
336: 0x1266 [0x29] REQ_SET_WAIT(priority=0x0F, entity_id=Megomak (ID: 17027618/0x0103D222), tag_num=0x11)
337: 0x126D [0x2A] GET_REQ_LEVEL(level=15, entity_id=Gloom Phantom (ID: 17027637/0x0103D235))
338: 0x1273 [0x45] LOAD_SCHEDULED_TASK: Load scheduler "1013" with entities [EventEntity, EventEntity], work=[857*, 0*]
339: 0x1284 [0x29] REQ_SET_WAIT(priority=0x0F, entity_id=Gloom Phantom (ID: 17027637/0x0103D235), tag_num=0x1B)
340: 0x128B [0x2B] Gloom Phantom (ID: 17027637/0x0103D235) [8876*]:
    → "Hey, Megomak. Do you think this crew is up to the task of protecting the staff?"
341: 0x1292 [0x23] WAIT_FOR_DIALOG_INTERACTION
342: 0x1293 [0x29] REQ_SET_WAIT(priority=0x0F, entity_id=Gloom Phantom (ID: 17027637/0x0103D235), tag_num=0x1C)
343: 0x129A [0x52] END_LOAD_SCHEDULER: End scheduler "s036" with entities [EventEntity, EventEntity], work=857*
344: 0x12A9 [0x45] LOAD_SCHEDULED_TASK: Load scheduler "s026" with entities [EventEntity, EventEntity], work=[857*, 0*]
345: 0x12BA [0x29] REQ_SET_WAIT(priority=0x0F, entity_id=Megomak (ID: 17027618/0x0103D222), tag_num=0x12)
346: 0x12C1 [0x29] REQ_SET_WAIT(priority=0x0F, entity_id=Megomak (ID: 17027618/0x0103D222), tag_num=0x0F)
347: 0x12C8 [0x27] REQ_SET(priority=0x0F, entity_id=Gloom Phantom (ID: 17027637/0x0103D235), tag_num=0x4C)
348: 0x12CF [0x2B] Megomak (ID: 17027618/0x0103D222) [8877*]:
    → "I've been assured as much. You needn't worry."
349: 0x12D6 [0x23] WAIT_FOR_DIALOG_INTERACTION
350: 0x12D7 [0x2A] GET_REQ_LEVEL(level=15, entity_id=Gloom Phantom (ID: 17027637/0x0103D235))
351: 0x12DD [0x29] REQ_SET_WAIT(priority=0x0F, entity_id=Megomak (ID: 17027618/0x0103D222), tag_num=0x10)
352: 0x12E4 [0x29] REQ_SET_WAIT(priority=0x0F, entity_id=Gloom Phantom (ID: 17027637/0x0103D235), tag_num=0x33)
353: 0x12EB [0x1C] WAIT(5* ticks)
354: 0x12EE [0x52] END_LOAD_SCHEDULER: End scheduler "s026" with entities [EventEntity, EventEntity], work=857*
355: 0x12FD [0x45] LOAD_SCHEDULED_TASK: Load scheduler "s030" with entities [EventEntity, EventEntity], work=[857*, 0*]
356: 0x130E [0x29] REQ_SET_WAIT(priority=0x0F, entity_id=Megomak (ID: 17027618/0x0103D222), tag_num=0x11)
357: 0x1315 [0x45] LOAD_SCHEDULED_TASK: Load scheduler "1013" with entities [EventEntity, EventEntity], work=[857*, 0*]
358: 0x1326 [0x2B] Gloom Phantom (ID: 17027637/0x0103D235) [8878*]:
    → "Hey! Guard that thing like your life depends on it, because it does! You can't let it fall into the hands of the undead!"
359: 0x132D [0x23] WAIT_FOR_DIALOG_INTERACTION
360: 0x132E [0x29] REQ_SET_WAIT(priority=0x0F, entity_id=Gloom Phantom (ID: 17027637/0x0103D235), tag_num=0x34)
361: 0x1335 [0x29] REQ_SET_WAIT(priority=0x0F, entity_id=Megomak (ID: 17027618/0x0103D222), tag_num=0x12)
362: 0x133C [0x29] REQ_SET_WAIT(priority=0x0F, entity_id=Megomak (ID: 17027618/0x0103D222), tag_num=0x13)
363: 0x1343 [0x2B] Megomak (ID: 17027618/0x0103D222) [8879*]:
    → "You're on your way to visit the elder, right? You can find out more there."
364: 0x134A [0x23] WAIT_FOR_DIALOG_INTERACTION
365: 0x134B [0x29] REQ_SET_WAIT(priority=0x0F, entity_id=Megomak (ID: 17027618/0x0103D222), tag_num=0x14)
366: 0x1352 [0x52] END_LOAD_SCHEDULER: End scheduler "s030" with entities [EventEntity, EventEntity], work=857*
367: 0x1361 [0x45] LOAD_SCHEDULED_TASK: Load scheduler "s034" with entities [EventEntity, EventEntity], work=[857*, 0*]
368: 0x1372 [0x27] REQ_SET(priority=0x0F, entity_id=Megomak (ID: 17027618/0x0103D222), tag_num=0x2B)
369: 0x1379 [0x27] REQ_SET(priority=0x0F, entity_id=Gloom Phantom (ID: 17027637/0x0103D235), tag_num=0x4E)
370: 0x1380 [0x2B] Gloom Phantom (ID: 17027637/0x0103D235) [8880*]:
    → "Okay! Let's get going! Thanks for the help!"
371: 0x1387 [0x23] WAIT_FOR_DIALOG_INTERACTION
372: 0x1388 [0x2A] GET_REQ_LEVEL(level=15, entity_id=Gloom Phantom (ID: 17027637/0x0103D235))
373: 0x138E [0x2A] GET_REQ_LEVEL(level=15, entity_id=Megomak (ID: 17027618/0x0103D222))
374: 0x1394 [0x52] END_LOAD_SCHEDULER: End scheduler "s034" with entities [EventEntity, EventEntity], work=857*
375: 0x13A3 [0x45] LOAD_SCHEDULED_TASK: Load scheduler "s032" with entities [EventEntity, EventEntity], work=[857*, 0*]
376: 0x13B4 [0x5D] SET_MUSIC_VOLUME(volume=0*, fade_time=300*)
377: 0x13B9 [0x27] REQ_SET(priority=0x0F, entity_id=Gloom Phantom (ID: 17027637/0x0103D235), tag_num=0x4F)
378: 0x13C0 [0x1C] WAIT(10* ticks)
379: 0x13C3 [0x2B] Megomak (ID: 17027618/0x0103D222) [8881*]:
    → "Take care!"
380: 0x13CA [0x23] WAIT_FOR_DIALOG_INTERACTION
381: 0x13CB [0x1C] WAIT(90* ticks)
382: 0x13CE [0x1C] WAIT(50* ticks)
383: 0x13D1 [0x6C] FADE_ENTITY_COLOR(entity_id=Gloom Phantom (ID: 17027637/0x0103D235), end_alpha=0*, fade_time=1*)
384: 0x13DA [0x1C] WAIT(1* ticks)
385: 0x13DD [0x52] END_LOAD_SCHEDULER: End scheduler "s032" with entities [EventEntity, EventEntity], work=857*
386: 0x13EC [0x45] LOAD_SCHEDULED_TASK: Load scheduler "s033" with entities [EventEntity, EventEntity], work=[857*, 0*]
387: 0x13FD [0x1C] WAIT(30* ticks)
388: 0x1400 [0x4A] Megomak (ID: 17027618/0x0103D222) looks at LocalPlayer
389: 0x1409 [0x6F] WAIT_FRAME_DELAY: Yield until WaitTime reaches zero
390: 0x140A [0x76] CHECK_ENTITY_RENDER_FLAGS: Wait until Megomak (ID: 17027618/0x0103D222) Render.Flags0 and Render.Flags3 conditions are met
391: 0x140F [0x29] REQ_SET_WAIT(priority=0x0F, entity_id=Megomak (ID: 17027618/0x0103D222), tag_num=0x0F)
392: 0x1416 [0x2B] Megomak (ID: 17027618/0x0103D222) [8882*]:
    → "Well, did you get all that? Basically, Falak is dangerous, and if the Immortals get their clammy hands on the Olduum staff, that monster will be brought back to life."
393: 0x141D [0x1C] WAIT(10* ticks)
394: 0x1420 [0x4A] LocalPlayer looks at Megomak (ID: 17027618/0x0103D222)
395: 0x1429 [0x6F] WAIT_FRAME_DELAY: Yield until WaitTime reaches zero
396: 0x142A [0x76] CHECK_ENTITY_RENDER_FLAGS: Wait until LocalPlayer Render.Flags0 and Render.Flags3 conditions are met
397: 0x142F [0x23] WAIT_FOR_DIALOG_INTERACTION
398: 0x1430 [0x2A] GET_REQ_LEVEL(level=15, entity_id=Gloom Phantom (ID: 17027637/0x0103D235))
399: 0x1436 [0x52] END_LOAD_SCHEDULER: End scheduler "s033" with entities [EventEntity, EventEntity], work=857*
400: 0x1445 [0x45] LOAD_SCHEDULED_TASK: Load scheduler "s037" with entities [EventEntity, EventEntity], work=[857*, 0*]
401: 0x1456 [0x2B] Megomak (ID: 17027618/0x0103D222) [8883*]:
    → "Although, now that you know, I don't expect it to change anything for the better. Just stay out of our way, okay?"
402: 0x145D [0x23] WAIT_FOR_DIALOG_INTERACTION
403: 0x145E [0x29] REQ_SET_WAIT(priority=0x0F, entity_id=Megomak (ID: 17027618/0x0103D222), tag_num=0x10)
404: 0x1465 [0x52] END_LOAD_SCHEDULER: End scheduler "s037" with entities [EventEntity, EventEntity], work=857*
405: 0x1474 [0x45] LOAD_SCHEDULED_TASK: Load scheduler "s028" with entities [EventEntity, EventEntity], work=[857*, 0*]
406: 0x1485 [0x29] REQ_SET_WAIT(priority=0x0F, entity_id=Megomak (ID: 17027618/0x0103D222), tag_num=0x11)
407: 0x148C [0x29] REQ_SET_WAIT(priority=0x0F, entity_id=Megomak (ID: 17027618/0x0103D222), tag_num=0x12)
408: 0x1493 [0x4B] UPDATE_ENTITY_YAW(entity=Megomak (ID: 17027618/0x0103D222), yaw=9.4°*)
409: 0x149A [0x2B] Megomak (ID: 17027618/0x0103D222) [8884*]:
    → "See you around. I've got experiments to perform on behalf of my beloved chimeras."
410: 0x14A1 [0x23] WAIT_FOR_DIALOG_INTERACTION
411: 0x14A2 [0x6F] WAIT_FRAME_DELAY: Yield until WaitTime reaches zero
412: 0x14A3 [0x76] CHECK_ENTITY_RENDER_FLAGS: Wait until Megomak (ID: 17027618/0x0103D222) Render.Flags0 and Render.Flags3 conditions are met
413: 0x14A8 [0x27] REQ_SET(priority=0x10, entity_id=Megomak (ID: 17027618/0x0103D222), tag_num=0x0D)
414: 0x14AF [0x1C] WAIT(30* ticks)
415: 0x14B2 [0x5D] SET_MUSIC_VOLUME(volume=0*, fade_time=300*)
416: 0x14B7 [0x1A] CALL_SUBROUTINE(address=0x0064)
417: 0x14BA [0x1C] WAIT(30* ticks)
418: 0x14BD [0x52] END_LOAD_SCHEDULER: End scheduler "s028" with entities [EventEntity, EventEntity], work=857*
419: 0x14CC [0x59] UPDATE_ENTITY_DATA: LocalPlayer->Render.Flags0 &= ~0x200000
420: 0x14D3 [0x78] ENABLE_GAME_TIMER_RESET_WEATHER()
421: 0x14D4 [0x5C] MUSIC_CONTROL: Set Idle (Day) music to song 0*
422: 0x14D8 [0x5C] MUSIC_CONTROL: Set Idle (Night) music to song 0*
423: 0x14DC [0x9A] WAIT_MUSIC_SERVER()
424: 0x14DD [0x5D] SET_MUSIC_VOLUME(volume=127*, fade_time=1*)
425: 0x14E2 [0x1C] WAIT(15* ticks)
426: 0x14E5 [0xAB] EventEntity->DespawnValue = 0* // Set despawn value
427: 0x14E9 [0x1C] WAIT(1* ticks)
428: 0x14EC [0x46] CAMERA_CONTROL: Restore default settings
429: 0x14EE [0x45] LOAD_SCHEDULED_TASK: Load scheduler "fdi2" with entities [EventEntity, EventEntity], work=[200*, 0*]
430: 0x14FF [0x21] END_EVENT
431: 0x1500 [0x00] END_REQSTACK()
```
