# 17027571

## Common Data

| Field            | Value                  |
|------------------|------------------------|
| Zone             | Mount Zhayolm (ID: 61) |
| Block Size       | 1804 bytes             |
| Total Events     | 53                     |
| References Count | 126                    |

## List of Events

| Event ID                   | Entrypoint   |   Size |   Instructions |
|----------------------------|--------------|--------|----------------|
| [65535](#event-65535)      | 0x0000       |      1 |              1 |
| [15](#event-15)            | 0x0001       |      1 |              1 |
| [16](#event-16)            | 0x0002       |      1 |              1 |
| [17](#event-17)            | 0x0003       |      1 |              1 |
| [18](#event-18)            | 0x0004       |      1 |              1 |
| [65535.1](#event-655351)   | 0x0005       |     19 |              4 |
| [65535.2](#event-655352)   | 0x0018       |     19 |              4 |
| [65535.3](#event-655353)   | 0x002B       |     19 |              4 |
| [65535.4](#event-655354)   | 0x003E       |     19 |              4 |
| [65535.5](#event-655355)   | 0x0051       |     19 |              4 |
| [65535.6](#event-655356)   | 0x0064       |     19 |              4 |
| [65535.7](#event-655357)   | 0x0077       |     19 |              4 |
| [65535.8](#event-655358)   | 0x008A       |     34 |              7 |
| [65535.9](#event-655359)   | 0x00AC       |     19 |              4 |
| [65535.10](#event-6553510) | 0x00BF       |     13 |              3 |
| [65535.11](#event-6553511) | 0x00CC       |     29 |              6 |
| [65535.12](#event-6553512) | 0x00E9       |     19 |              4 |
| [65535.13](#event-6553513) | 0x00FC       |     37 |              7 |
| [65535.14](#event-6553514) | 0x0121       |     19 |              4 |
| [65535.15](#event-6553515) | 0x0134       |     21 |              2 |
| [65535.16](#event-6553516) | 0x0149       |     21 |              2 |
| [65535.17](#event-6553517) | 0x015E       |     19 |              4 |
| [65535.18](#event-6553518) | 0x0171       |     34 |              7 |
| [65535.19](#event-6553519) | 0x0193       |     32 |              7 |
| [65535.20](#event-6553520) | 0x01B3       |     19 |              4 |
| [65535.21](#event-6553521) | 0x01C6       |     19 |              4 |
| [65535.22](#event-6553522) | 0x01D9       |     19 |              4 |
| [65535.23](#event-6553523) | 0x01EC       |     12 |              4 |
| [65535.24](#event-6553524) | 0x01F8       |     12 |              4 |
| [65535.25](#event-6553525) | 0x0204       |     42 |              8 |
| [65535.26](#event-6553526) | 0x022E       |     42 |              8 |
| [65535.27](#event-6553527) | 0x0258       |     42 |              8 |
| [65535.28](#event-6553528) | 0x0282       |     42 |              8 |
| [65535.29](#event-6553529) | 0x02AC       |     42 |              8 |
| [65535.30](#event-6553530) | 0x02D6       |     42 |              8 |
| [65535.31](#event-6553531) | 0x0300       |     42 |              8 |
| [65535.32](#event-6553532) | 0x032A       |     42 |              8 |
| [65535.33](#event-6553533) | 0x0354       |     12 |              4 |
| [65535.34](#event-6553534) | 0x0360       |     12 |              4 |
| [65535.35](#event-6553535) | 0x036C       |     12 |              4 |
| [65535.36](#event-6553536) | 0x0378       |     12 |              4 |
| [65535.37](#event-6553537) | 0x0384       |     30 |              8 |
| [65535.38](#event-6553538) | 0x03A2       |     27 |              5 |
| [65535.39](#event-6553539) | 0x03BD       |     27 |              7 |
| [65535.40](#event-6553540) | 0x03D8       |     12 |              4 |
| [65535.41](#event-6553541) | 0x03E4       |     10 |              2 |
| [65535.42](#event-6553542) | 0x03EE       |     10 |              2 |
| [65535.43](#event-6553543) | 0x03F8       |     10 |              2 |
| [65535.44](#event-6553544) | 0x0402       |     10 |              2 |
| [65535.45](#event-6553545) | 0x040C       |      4 |              2 |
| [65535.46](#event-6553546) | 0x0410       |     10 |              2 |
| [65535.47](#event-6553547) | 0x041A       |     10 |              2 |
| [65535.48](#event-6553548) | 0x0424       |     10 |              2 |

## DAT References (imed_data)

|   Index | Hex Value   |   Dec Value |
|---------|-------------|-------------|
|       0 | 0x000B      |          11 |
|       1 | 0xDBB7E     |      899966 |
|       2 | 0x2C9E1     |      182753 |
|       3 | 0xFFFFE401  |  4294960129 |
|       4 | 0x000C      |          12 |
|       5 | 0xD76E4     |      882404 |
|       6 | 0x2C70C     |      182028 |
|       7 | 0xFFFFE00A  |  4294959114 |
|       8 | 0x000D      |          13 |
|       9 | 0xD5DE9     |      876009 |
|      10 | 0x2C122     |      180514 |
|      11 | 0xFFFFDF60  |  4294958944 |
|      12 | 0x000E      |          14 |
|      13 | 0xD415C     |      868700 |
|      14 | 0x2C080     |      180352 |
|      15 | 0xFFFFD9C0  |  4294957504 |
|      16 | 0x000F      |          15 |
|      17 | 0xD2490     |      861328 |
|      18 | 0x2AC46     |      175174 |
|      19 | 0xFFFFD18A  |  4294955402 |
|      20 | 0xC5ACD     |      809677 |
|      21 | 0x3802A     |      229418 |
|      22 | 0xFFFFC793  |  4294952851 |
|      23 | 0xD7E3A     |      884282 |
|      24 | 0x2BAD1     |      178897 |
|      25 | 0xFFFFDC59  |  4294958169 |
|      26 | 0xD6922     |      878882 |
|      27 | 0x2C248     |      180808 |
|      28 | 0xFFFFE094  |  4294959252 |
|      29 | 0xC96DA     |      825050 |
|      30 | 0x37C9B     |      228507 |
|      31 | 0xFFFFC8B2  |  4294953138 |
|      32 | 0x0012      |          18 |
|      33 | 0x0026      |          38 |
|      34 | 0xC5D81     |      810369 |
|      35 | 0x39691     |      235153 |
|      36 | 0xFFFFC9B5  |  4294953397 |
|      37 | 0xFFFFFC74  |  4294966388 |
|      38 | 0xFFFF1DA5  |  4294909349 |
|      39 | 0x0000      |           0 |
|      40 | 0x222E7     |      140007 |
|      41 | 0x0311      |         785 |
|      42 | 0xFFFFF830  |  4294965296 |
|      43 | 0x0378      |         888 |
|      44 | 0x1C9B6     |      117174 |
|      45 | 0x0004      |           4 |
|      46 | 0x00AE      |         174 |
|      47 | 0x00AB      |         171 |
|      48 | 0x015E      |         350 |
|      49 | 0x00B3      |         179 |
|      50 | 0x0060      |          96 |
|      51 | 0x006E      |         110 |
|      52 | 0xC828A     |      819850 |
|      53 | 0x33838     |      211000 |
|      54 | 0xFFFFBA56  |  4294949462 |
|      55 | 0xC6A7F     |      813695 |
|      56 | 0x389CB     |      231883 |
|      57 | 0xFFFFC9B1  |  4294953393 |
|      58 | 0x009A      |         154 |
|      59 | 0xFFFF9882  |  4294940802 |
|      60 | 0x03E8      |        1000 |
|      61 | 0x0028      |          40 |
|      62 | 0xC39C7     |      801223 |
|      63 | 0x442F9     |      279289 |
|      64 | 0xFFFFAA10  |  4294945296 |
|      65 | 0x0029      |          41 |
|      66 | 0xC26FD     |      796413 |
|      67 | 0x44C5D     |      281693 |
|      68 | 0xC20C6     |      794822 |
|      69 | 0x444E8     |      279784 |
|      70 | 0xFFFFAA09  |  4294945289 |
|      71 | 0xBFC98     |      785560 |
|      72 | 0x48949     |      297289 |
|      73 | 0xFFFFA8D5  |  4294944981 |
|      74 | 0xD07A0     |      853920 |
|      75 | 0x3CDC1     |      249281 |
|      76 | 0xFFFFC758  |  4294952792 |
|      77 | 0xFFF6CBC7  |  4294364103 |
|      78 | 0xFFFA5D9D  |  4294598045 |
|      79 | 0xFFFFBD82  |  4294950274 |
|      80 | 0x0359      |         857 |
|      81 | 0xFFF6D921  |  4294367521 |
|      82 | 0xFFFA6F81  |  4294602625 |
|      83 | 0xFFFFC126  |  4294951206 |
|      84 | 0xFFF6DAC8  |  4294367944 |
|      85 | 0xFFFA64B0  |  4294599856 |
|      86 | 0xFFFFBFCE  |  4294950862 |
|      87 | 0xFFF6E09F  |  4294369439 |
|      88 | 0xFFFA6B89  |  4294601609 |
|      89 | 0xFFFFC0A8  |  4294951080 |
|      90 | 0xFFF72F68  |  4294389608 |
|      91 | 0xFFFA7B66  |  4294605670 |
|      92 | 0xFFFFD63D  |  4294956605 |
|      93 | 0xFFF73A73  |  4294392435 |
|      94 | 0xFFFA77CC  |  4294604748 |
|      95 | 0xFFFFD8F0  |  4294957296 |
|      96 | 0xFFF74072  |  4294393970 |
|      97 | 0xFFFA7FB1  |  4294606769 |
|      98 | 0xFFF74440  |  4294394944 |
|      99 | 0xFFFA7317  |  4294603543 |
|     100 | 0xFFF67B97  |  4294343575 |
|     101 | 0xFFF9BB89  |  4294556553 |
|     102 | 0xFFFFB69F  |  4294948511 |
|     103 | 0xFFF681D5  |  4294345173 |
|     104 | 0xFFF9BA9D  |  4294556317 |
|     105 | 0xFFFFB6D2  |  4294948562 |
|     106 | 0xFFF67489  |  4294341769 |
|     107 | 0xFFF9B168  |  4294553960 |
|     108 | 0xFFFFB85E  |  4294948958 |
|     109 | 0xFFF67ABE  |  4294343358 |
|     110 | 0xFFF9A6D0  |  4294551248 |
|     111 | 0xFFFFB9AF  |  4294949295 |
|     112 | 0xFFF6BCD8  |  4294360280 |
|     113 | 0xFFFA5F7E  |  4294598526 |
|     114 | 0xFFFFBDD8  |  4294950360 |
|     115 | 0x0003      |           3 |
|     116 | 0xFFF6B1C2  |  4294357442 |
|     117 | 0xFFFA3E5A  |  4294590042 |
|     118 | 0xFFFFB9B0  |  4294949296 |
|     119 | 0xFFF6A973  |  4294355315 |
|     120 | 0xFFFA356C  |  4294587756 |
|     121 | 0xFFF6A63C  |  4294354492 |
|     122 | 0xFFFA3D47  |  4294589767 |
|     123 | 0x0001      |           1 |
|     124 | 0x0080      |         128 |
|     125 | 0x0078      |         120 |

## Events

### Event 65535

#### Metadata

| Field        | Value   |
|--------------|---------|
| Entrypoint   | 0x0000  |
| Data Size    | 1 bytes |
| Instructions | 1       |

```
      00 01 02 03 04 05 06 07  08 09 0A 0B 0C 0D 0E 0F
      -- -- -- -- -- -- -- --  -- -- -- -- -- -- -- --
0000: 00                                                .               
```

#### Opcodes

```
  0: 0x0000 [0x00] END_REQSTACK()
```

### Event 15

#### Metadata

| Field        | Value   |
|--------------|---------|
| Entrypoint   | 0x0001  |
| Data Size    | 1 bytes |
| Instructions | 1       |

```
      00 01 02 03 04 05 06 07  08 09 0A 0B 0C 0D 0E 0F
      -- -- -- -- -- -- -- --  -- -- -- -- -- -- -- --
0000:    00                                              .              
```

#### Opcodes

```
  0: 0x0001 [0x00] END_REQSTACK()
```

### Event 16

#### Metadata

| Field        | Value   |
|--------------|---------|
| Entrypoint   | 0x0002  |
| Data Size    | 1 bytes |
| Instructions | 1       |

```
      00 01 02 03 04 05 06 07  08 09 0A 0B 0C 0D 0E 0F
      -- -- -- -- -- -- -- --  -- -- -- -- -- -- -- --
0000:       00                                            .             
```

#### Opcodes

```
  0: 0x0002 [0x00] END_REQSTACK()
```

### Event 17

#### Metadata

| Field        | Value   |
|--------------|---------|
| Entrypoint   | 0x0003  |
| Data Size    | 1 bytes |
| Instructions | 1       |

```
      00 01 02 03 04 05 06 07  08 09 0A 0B 0C 0D 0E 0F
      -- -- -- -- -- -- -- --  -- -- -- -- -- -- -- --
0000:          00                                          .            
```

#### Opcodes

```
  0: 0x0003 [0x00] END_REQSTACK()
```

### Event 18

#### Metadata

| Field        | Value   |
|--------------|---------|
| Entrypoint   | 0x0004  |
| Data Size    | 1 bytes |
| Instructions | 1       |

```
      00 01 02 03 04 05 06 07  08 09 0A 0B 0C 0D 0E 0F
      -- -- -- -- -- -- -- --  -- -- -- -- -- -- -- --
0000:             00                                        .           
```

#### Opcodes

```
  0: 0x0004 [0x00] END_REQSTACK()
```

### Event 65535.1

#### Metadata

| Field        | Value    |
|--------------|----------|
| Entrypoint   | 0x0005   |
| Data Size    | 19 bytes |
| Instructions | 4        |

```
      00 01 02 03 04 05 06 07  08 09 0A 0B 0C 0D 0E 0F
      -- -- -- -- -- -- -- --  -- -- -- -- -- -- -- --
0000:                59 04 F7  D1 03 01 00 80 1F 00 01       Y..........
0010: 80 02 80 03 80 1F 01 00                           ........        
```

#### Opcodes

```
  0: 0x0005 [0x59] UPDATE_ENTITY_DATA: Set Gadalar (ID: 17027575/0x0103D1F7) main speed = 11* * 0.1
  1: 0x000D [0x1F] MOVE_ENTITY: EventEntity moves to X=899.966*, Z=182.753*, Y=-7.167*
  2: 0x0015 [0x1F] MOVE_ENTITY: Update entity position (mode=1)
  3: 0x0017 [0x00] END_REQSTACK()
```

### Event 65535.2

#### Metadata

| Field        | Value    |
|--------------|----------|
| Entrypoint   | 0x0018   |
| Data Size    | 19 bytes |
| Instructions | 4        |

```
      00 01 02 03 04 05 06 07  08 09 0A 0B 0C 0D 0E 0F
      -- -- -- -- -- -- -- --  -- -- -- -- -- -- -- --
0010:                          59 04 F7 D1 03 01 04 80          Y.......
0020: 1F 00 05 80 06 80 07 80  1F 01 00                 ...........     
```

#### Opcodes

```
  0: 0x0018 [0x59] UPDATE_ENTITY_DATA: Set Gadalar (ID: 17027575/0x0103D1F7) main speed = 12* * 0.1
  1: 0x0020 [0x1F] MOVE_ENTITY: EventEntity moves to X=882.404*, Z=182.028*, Y=-8.182*
  2: 0x0028 [0x1F] MOVE_ENTITY: Update entity position (mode=1)
  3: 0x002A [0x00] END_REQSTACK()
```

### Event 65535.3

#### Metadata

| Field        | Value    |
|--------------|----------|
| Entrypoint   | 0x002B   |
| Data Size    | 19 bytes |
| Instructions | 4        |

```
      00 01 02 03 04 05 06 07  08 09 0A 0B 0C 0D 0E 0F
      -- -- -- -- -- -- -- --  -- -- -- -- -- -- -- --
0020:                                   59 04 F7 D1 03             Y....
0030: 01 08 80 1F 00 09 80 0A  80 0B 80 1F 01 00        ..............  
```

#### Opcodes

```
  0: 0x002B [0x59] UPDATE_ENTITY_DATA: Set Gadalar (ID: 17027575/0x0103D1F7) main speed = 13* * 0.1
  1: 0x0033 [0x1F] MOVE_ENTITY: EventEntity moves to X=876.009*, Z=180.514*, Y=-8.352*
  2: 0x003B [0x1F] MOVE_ENTITY: Update entity position (mode=1)
  3: 0x003D [0x00] END_REQSTACK()
```

### Event 65535.4

#### Metadata

| Field        | Value    |
|--------------|----------|
| Entrypoint   | 0x003E   |
| Data Size    | 19 bytes |
| Instructions | 4        |

```
      00 01 02 03 04 05 06 07  08 09 0A 0B 0C 0D 0E 0F
      -- -- -- -- -- -- -- --  -- -- -- -- -- -- -- --
0030:                                            59 04                Y.
0040: F7 D1 03 01 0C 80 1F 00  0D 80 0E 80 0F 80 1F 01  ................
0050: 00                                                .               
```

#### Opcodes

```
  0: 0x003E [0x59] UPDATE_ENTITY_DATA: Set Gadalar (ID: 17027575/0x0103D1F7) main speed = 14* * 0.1
  1: 0x0046 [0x1F] MOVE_ENTITY: EventEntity moves to X=868.700*, Z=180.352*, Y=-9.792*
  2: 0x004E [0x1F] MOVE_ENTITY: Update entity position (mode=1)
  3: 0x0050 [0x00] END_REQSTACK()
```

### Event 65535.5

#### Metadata

| Field        | Value    |
|--------------|----------|
| Entrypoint   | 0x0051   |
| Data Size    | 19 bytes |
| Instructions | 4        |

```
      00 01 02 03 04 05 06 07  08 09 0A 0B 0C 0D 0E 0F
      -- -- -- -- -- -- -- --  -- -- -- -- -- -- -- --
0050:    59 04 F7 D1 03 01 10  80 1F 00 11 80 12 80 13   Y..............
0060: 80 1F 01 00                                       ....            
```

#### Opcodes

```
  0: 0x0051 [0x59] UPDATE_ENTITY_DATA: Set Gadalar (ID: 17027575/0x0103D1F7) main speed = 15* * 0.1
  1: 0x0059 [0x1F] MOVE_ENTITY: EventEntity moves to X=861.328*, Z=175.174*, Y=-11.894*
  2: 0x0061 [0x1F] MOVE_ENTITY: Update entity position (mode=1)
  3: 0x0063 [0x00] END_REQSTACK()
```

### Event 65535.6

#### Metadata

| Field        | Value    |
|--------------|----------|
| Entrypoint   | 0x0064   |
| Data Size    | 19 bytes |
| Instructions | 4        |

```
      00 01 02 03 04 05 06 07  08 09 0A 0B 0C 0D 0E 0F
      -- -- -- -- -- -- -- --  -- -- -- -- -- -- -- --
0060:             59 04 F7 D1  03 01 04 80 1F 00 14 80      Y...........
0070: 15 80 16 80 1F 01 00                              .......         
```

#### Opcodes

```
  0: 0x0064 [0x59] UPDATE_ENTITY_DATA: Set Gadalar (ID: 17027575/0x0103D1F7) main speed = 12* * 0.1
  1: 0x006C [0x1F] MOVE_ENTITY: EventEntity moves to X=809.677*, Z=229.418*, Y=-14.445*
  2: 0x0074 [0x1F] MOVE_ENTITY: Update entity position (mode=1)
  3: 0x0076 [0x00] END_REQSTACK()
```

### Event 65535.7

#### Metadata

| Field        | Value    |
|--------------|----------|
| Entrypoint   | 0x0077   |
| Data Size    | 19 bytes |
| Instructions | 4        |

```
      00 01 02 03 04 05 06 07  08 09 0A 0B 0C 0D 0E 0F
      -- -- -- -- -- -- -- --  -- -- -- -- -- -- -- --
0070:                      59  04 F6 D1 03 01 0C 80 1F         Y........
0080: 00 17 80 18 80 19 80 1F  01 00                    ..........      
```

#### Opcodes

```
  0: 0x0077 [0x59] UPDATE_ENTITY_DATA: Set Fari-Wari (ID: 17027574/0x0103D1F6) main speed = 14* * 0.1
  1: 0x007F [0x1F] MOVE_ENTITY: EventEntity moves to X=884.282*, Z=178.897*, Y=-9.127*
  2: 0x0087 [0x1F] MOVE_ENTITY: Update entity position (mode=1)
  3: 0x0089 [0x00] END_REQSTACK()
```

### Event 65535.8

#### Metadata

| Field        | Value    |
|--------------|----------|
| Entrypoint   | 0x008A   |
| Data Size    | 34 bytes |
| Instructions | 7        |

```
      00 01 02 03 04 05 06 07  08 09 0A 0B 0C 0D 0E 0F
      -- -- -- -- -- -- -- --  -- -- -- -- -- -- -- --
0080:                                59 04 F6 D1 03 01            Y.....
0090: 0C 80 1F 00 1A 80 1B 80  1C 80 1F 01 6F 4A F6 D1  ............oJ..
00A0: 03 01 07 D2 03 01 7B F6  D1 03 01 00              ......{.....    
```

#### Opcodes

```
  0: 0x008A [0x59] UPDATE_ENTITY_DATA: Set Fari-Wari (ID: 17027574/0x0103D1F6) main speed = 14* * 0.1
  1: 0x0092 [0x1F] MOVE_ENTITY: EventEntity moves to X=878.882*, Z=180.808*, Y=-8.044*
  2: 0x009A [0x1F] MOVE_ENTITY: Update entity position (mode=1)
  3: 0x009C [0x6F] WAIT_FRAME_DELAY: Yield until WaitTime reaches zero
  4: 0x009D [0x4A] Fari-Wari (ID: 17027574/0x0103D1F6) looks at ??? (ID: 17027591/0x0103D207)
  5: 0x00A6 [0x7B] Fari-Wari (ID: 17027574/0x0103D1F6) stops talking
  6: 0x00AB [0x00] END_REQSTACK()
```

### Event 65535.9

#### Metadata

| Field        | Value    |
|--------------|----------|
| Entrypoint   | 0x00AC   |
| Data Size    | 19 bytes |
| Instructions | 4        |

```
      00 01 02 03 04 05 06 07  08 09 0A 0B 0C 0D 0E 0F
      -- -- -- -- -- -- -- --  -- -- -- -- -- -- -- --
00A0:                                      59 04 F6 D1              Y...
00B0: 03 01 08 80 1F 00 1D 80  1E 80 1F 80 1F 01 00     ............... 
```

#### Opcodes

```
  0: 0x00AC [0x59] UPDATE_ENTITY_DATA: Set Fari-Wari (ID: 17027574/0x0103D1F6) main speed = 13* * 0.1
  1: 0x00B4 [0x1F] MOVE_ENTITY: EventEntity moves to X=825.050*, Z=228.507*, Y=-14.158*
  2: 0x00BC [0x1F] MOVE_ENTITY: Update entity position (mode=1)
  3: 0x00BE [0x00] END_REQSTACK()
```

### Event 65535.10

#### Metadata

| Field        | Value    |
|--------------|----------|
| Entrypoint   | 0x00BF   |
| Data Size    | 13 bytes |
| Instructions | 3        |

```
      00 01 02 03 04 05 06 07  08 09 0A 0B 0C 0D 0E 0F
      -- -- -- -- -- -- -- --  -- -- -- -- -- -- -- --
00B0:                                               6E                 n
00C0: F6 D1 03 01 20 80 99 F6  D1 03 01 00              .... .......    
```

#### Opcodes

```
  0: 0x00BF [0x6E] Fari-Wari (ID: 17027574/0x0103D1F6) uses emote 18*
  1: 0x00C6 [0x99] Wait for Fari-Wari (ID: 17027574/0x0103D1F6) animation to complete
  2: 0x00CB [0x00] END_REQSTACK()
```

### Event 65535.11

#### Metadata

| Field        | Value    |
|--------------|----------|
| Entrypoint   | 0x00CC   |
| Data Size    | 29 bytes |
| Instructions | 6        |

```
      00 01 02 03 04 05 06 07  08 09 0A 0B 0C 0D 0E 0F
      -- -- -- -- -- -- -- --  -- -- -- -- -- -- -- --
00C0:                                      59 04 F6 D1              Y...
00D0: 03 01 21 80 1F 00 22 80  23 80 24 80 1F 01 6F 4A  ..!...".#.$...oJ
00E0: F6 D1 03 01 0C D2 03 01  00                       .........       
```

#### Opcodes

```
  0: 0x00CC [0x59] UPDATE_ENTITY_DATA: Set Fari-Wari (ID: 17027574/0x0103D1F6) main speed = 38* * 0.1
  1: 0x00D4 [0x1F] MOVE_ENTITY: EventEntity moves to X=810.369*, Z=235.153*, Y=-13.899*
  2: 0x00DC [0x1F] MOVE_ENTITY: Update entity position (mode=1)
  3: 0x00DE [0x6F] WAIT_FRAME_DELAY: Yield until WaitTime reaches zero
  4: 0x00DF [0x4A] Fari-Wari (ID: 17027574/0x0103D1F6) looks at hei05 (ID: 17027596/0x0103D20C)
  5: 0x00E8 [0x00] END_REQSTACK()
```

### Event 65535.12

#### Metadata

| Field        | Value    |
|--------------|----------|
| Entrypoint   | 0x00E9   |
| Data Size    | 19 bytes |
| Instructions | 4        |

```
      00 01 02 03 04 05 06 07  08 09 0A 0B 0C 0D 0E 0F
      -- -- -- -- -- -- -- --  -- -- -- -- -- -- -- --
00E0:                             59 04 F6 D1 03 01 04           Y......
00F0: 80 1F 00 25 80 26 80 27  80 1F 01 00              ...%.&.'....    
```

#### Opcodes

```
  0: 0x00E9 [0x59] UPDATE_ENTITY_DATA: Set Fari-Wari (ID: 17027574/0x0103D1F6) main speed = 12* * 0.1
  1: 0x00F1 [0x1F] MOVE_ENTITY: EventEntity moves to X=-0.908*, Z=-57.947*, Y=0.000*
  2: 0x00F9 [0x1F] MOVE_ENTITY: Update entity position (mode=1)
  3: 0x00FB [0x00] END_REQSTACK()
```

### Event 65535.13

#### Metadata

| Field        | Value    |
|--------------|----------|
| Entrypoint   | 0x00FC   |
| Data Size    | 37 bytes |
| Instructions | 7        |

```
      00 01 02 03 04 05 06 07  08 09 0A 0B 0C 0D 0E 0F
      -- -- -- -- -- -- -- --  -- -- -- -- -- -- -- --
00F0:                                      59 04 F6 D1              Y...
0100: 03 01 08 80 1F 00 28 80  29 80 2A 80 1F 01 6F 79  ......(.).*...oy
0110: 00 F6 D1 03 01 F0 FF FF  7F 4B F6 D1 03 01 2B 80  .........K....+.
0120: 00                                                .               
```

#### Opcodes

```
  0: 0x00FC [0x59] UPDATE_ENTITY_DATA: Set Fari-Wari (ID: 17027574/0x0103D1F6) main speed = 13* * 0.1
  1: 0x0104 [0x1F] MOVE_ENTITY: EventEntity moves to X=140.007*, Z=0.785*, Y=-2.000*
  2: 0x010C [0x1F] MOVE_ENTITY: Update entity position (mode=1)
  3: 0x010E [0x6F] WAIT_FRAME_DELAY: Yield until WaitTime reaches zero
  4: 0x010F [0x79] Fari-Wari (ID: 17027574/0x0103D1F6) looks at LocalPlayer (Basic look)
  5: 0x0119 [0x4B] UPDATE_ENTITY_YAW(entity=Fari-Wari (ID: 17027574/0x0103D1F6), yaw=4.9°*)
  6: 0x0120 [0x00] END_REQSTACK()
```

### Event 65535.14

#### Metadata

| Field        | Value    |
|--------------|----------|
| Entrypoint   | 0x0121   |
| Data Size    | 19 bytes |
| Instructions | 4        |

```
      00 01 02 03 04 05 06 07  08 09 0A 0B 0C 0D 0E 0F
      -- -- -- -- -- -- -- --  -- -- -- -- -- -- -- --
0120:    59 04 F6 D1 03 01 08  80 1F 00 2C 80 29 80 2A   Y.........,.).*
0130: 80 1F 01 00                                       ....            
```

#### Opcodes

```
  0: 0x0121 [0x59] UPDATE_ENTITY_DATA: Set Fari-Wari (ID: 17027574/0x0103D1F6) main speed = 13* * 0.1
  1: 0x0129 [0x1F] MOVE_ENTITY: EventEntity moves to X=117.174*, Z=0.785*, Y=-2.000*
  2: 0x0131 [0x1F] MOVE_ENTITY: Update entity position (mode=1)
  3: 0x0133 [0x00] END_REQSTACK()
```

### Event 65535.15

#### Metadata

| Field        | Value    |
|--------------|----------|
| Entrypoint   | 0x0134   |
| Data Size    | 21 bytes |
| Instructions | 2        |

```
      00 01 02 03 04 05 06 07  08 09 0A 0B 0C 0D 0E 0F
      -- -- -- -- -- -- -- --  -- -- -- -- -- -- -- --
0130:             B6 0B 2D 80  0C 80 2E 80 2F 80 2F 80      ..-....././.
0140: 2F 80 2F 80 30 80 27 80  00                       /./.0.'..       
```

#### Opcodes

```
  0: 0x0134 [0xB6] ENTITY_APPEARANCE_HANDLER(case=Full entity look, race=4*, hair=14*, head=174*, body=171*, hands=171*, legs=171*, feet=171*, main=350*, sub=0*)
  1: 0x0148 [0x00] END_REQSTACK()
```

### Event 65535.16

#### Metadata

| Field        | Value    |
|--------------|----------|
| Entrypoint   | 0x0149   |
| Data Size    | 21 bytes |
| Instructions | 2        |

```
      00 01 02 03 04 05 06 07  08 09 0A 0B 0C 0D 0E 0F
      -- -- -- -- -- -- -- --  -- -- -- -- -- -- -- --
0140:                             B6 0B 2D 80 0C 80 27           ..-...'
0150: 80 31 80 32 80 33 80 32  80 30 80 27 80 00        .1.2.3.2.0.'..  
```

#### Opcodes

```
  0: 0x0149 [0xB6] ENTITY_APPEARANCE_HANDLER(case=Full entity look, race=4*, hair=14*, head=0*, body=179*, hands=96*, legs=110*, feet=96*, main=350*, sub=0*)
  1: 0x015D [0x00] END_REQSTACK()
```

### Event 65535.17

#### Metadata

| Field        | Value    |
|--------------|----------|
| Entrypoint   | 0x015E   |
| Data Size    | 19 bytes |
| Instructions | 4        |

```
      00 01 02 03 04 05 06 07  08 09 0A 0B 0C 0D 0E 0F
      -- -- -- -- -- -- -- --  -- -- -- -- -- -- -- --
0150:                                            59 04                Y.
0160: F9 D1 03 01 08 80 1F 00  34 80 35 80 36 80 1F 01  ........4.5.6...
0170: 00                                                .               
```

#### Opcodes

```
  0: 0x015E [0x59] UPDATE_ENTITY_DATA: Set ??? (ID: 17027577/0x0103D1F9) main speed = 13* * 0.1
  1: 0x0166 [0x1F] MOVE_ENTITY: EventEntity moves to X=819.850*, Z=211.000*, Y=-17.834*
  2: 0x016E [0x1F] MOVE_ENTITY: Update entity position (mode=1)
  3: 0x0170 [0x00] END_REQSTACK()
```

### Event 65535.18

#### Metadata

| Field        | Value    |
|--------------|----------|
| Entrypoint   | 0x0171   |
| Data Size    | 34 bytes |
| Instructions | 7        |

```
      00 01 02 03 04 05 06 07  08 09 0A 0B 0C 0D 0E 0F
      -- -- -- -- -- -- -- --  -- -- -- -- -- -- -- --
0170:    59 04 F9 D1 03 01 08  80 1F 00 37 80 38 80 39   Y.........7.8.9
0180: 80 1F 01 6F 4A F9 D1 03  01 07 D2 03 01 7B F9 D1  ...oJ........{..
0190: 03 01 00                                          ...             
```

#### Opcodes

```
  0: 0x0171 [0x59] UPDATE_ENTITY_DATA: Set ??? (ID: 17027577/0x0103D1F9) main speed = 13* * 0.1
  1: 0x0179 [0x1F] MOVE_ENTITY: EventEntity moves to X=813.695*, Z=231.883*, Y=-13.903*
  2: 0x0181 [0x1F] MOVE_ENTITY: Update entity position (mode=1)
  3: 0x0183 [0x6F] WAIT_FRAME_DELAY: Yield until WaitTime reaches zero
  4: 0x0184 [0x4A] ??? (ID: 17027577/0x0103D1F9) looks at ??? (ID: 17027591/0x0103D207)
  5: 0x018D [0x7B] ??? (ID: 17027577/0x0103D1F9) stops talking
  6: 0x0192 [0x00] END_REQSTACK()
```

### Event 65535.19

#### Metadata

| Field        | Value    |
|--------------|----------|
| Entrypoint   | 0x0193   |
| Data Size    | 32 bytes |
| Instructions | 7        |

```
      00 01 02 03 04 05 06 07  08 09 0A 0B 0C 0D 0E 0F
      -- -- -- -- -- -- -- --  -- -- -- -- -- -- -- --
0190:          59 04 F9 D1 03  01 0C 80 1F 00 3A 80 3B     Y.........:.;
01A0: 80 27 80 1F 01 6F 4B F9  D1 03 01 3C 80 7B F9 D1  .'...oK....<.{..
01B0: 03 01 00                                          ...             
```

#### Opcodes

```
  0: 0x0193 [0x59] UPDATE_ENTITY_DATA: Set ??? (ID: 17027577/0x0103D1F9) main speed = 14* * 0.1
  1: 0x019B [0x1F] MOVE_ENTITY: EventEntity moves to X=0.154*, Z=-26.494*, Y=0.000*
  2: 0x01A3 [0x1F] MOVE_ENTITY: Update entity position (mode=1)
  3: 0x01A5 [0x6F] WAIT_FRAME_DELAY: Yield until WaitTime reaches zero
  4: 0x01A6 [0x4B] UPDATE_ENTITY_YAW(entity=??? (ID: 17027577/0x0103D1F9), yaw=5.5°*)
  5: 0x01AD [0x7B] ??? (ID: 17027577/0x0103D1F9) stops talking
  6: 0x01B2 [0x00] END_REQSTACK()
```

### Event 65535.20

#### Metadata

| Field        | Value    |
|--------------|----------|
| Entrypoint   | 0x01B3   |
| Data Size    | 19 bytes |
| Instructions | 4        |

```
      00 01 02 03 04 05 06 07  08 09 0A 0B 0C 0D 0E 0F
      -- -- -- -- -- -- -- --  -- -- -- -- -- -- -- --
01B0:          59 04 19 D2 03  01 3D 80 1F 00 3E 80 3F     Y.....=...>.?
01C0: 80 40 80 1F 01 00                                 .@....          
```

#### Opcodes

```
  0: 0x01B3 [0x59] UPDATE_ENTITY_DATA: Set yagu1 (ID: 17027609/0x0103D219) main speed = 40* * 0.1
  1: 0x01BB [0x1F] MOVE_ENTITY: EventEntity moves to X=801.223*, Z=279.289*, Y=-22.000*
  2: 0x01C3 [0x1F] MOVE_ENTITY: Update entity position (mode=1)
  3: 0x01C5 [0x00] END_REQSTACK()
```

### Event 65535.21

#### Metadata

| Field        | Value    |
|--------------|----------|
| Entrypoint   | 0x01C6   |
| Data Size    | 19 bytes |
| Instructions | 4        |

```
      00 01 02 03 04 05 06 07  08 09 0A 0B 0C 0D 0E 0F
      -- -- -- -- -- -- -- --  -- -- -- -- -- -- -- --
01C0:                   59 04  1A D2 03 01 41 80 1F 00        Y.....A...
01D0: 42 80 43 80 40 80 1F 01  00                       B.C.@....       
```

#### Opcodes

```
  0: 0x01C6 [0x59] UPDATE_ENTITY_DATA: Set yagu2 (ID: 17027610/0x0103D21A) main speed = 41* * 0.1
  1: 0x01CE [0x1F] MOVE_ENTITY: EventEntity moves to X=796.413*, Z=281.693*, Y=-22.000*
  2: 0x01D6 [0x1F] MOVE_ENTITY: Update entity position (mode=1)
  3: 0x01D8 [0x00] END_REQSTACK()
```

### Event 65535.22

#### Metadata

| Field        | Value    |
|--------------|----------|
| Entrypoint   | 0x01D9   |
| Data Size    | 19 bytes |
| Instructions | 4        |

```
      00 01 02 03 04 05 06 07  08 09 0A 0B 0C 0D 0E 0F
      -- -- -- -- -- -- -- --  -- -- -- -- -- -- -- --
01D0:                             59 04 1B D2 03 01 41           Y.....A
01E0: 80 1F 00 44 80 45 80 46  80 1F 01 00              ...D.E.F....    
```

#### Opcodes

```
  0: 0x01D9 [0x59] UPDATE_ENTITY_DATA: Set yagu3 (ID: 17027611/0x0103D21B) main speed = 41* * 0.1
  1: 0x01E1 [0x1F] MOVE_ENTITY: EventEntity moves to X=794.822*, Z=279.784*, Y=-22.007*
  2: 0x01E9 [0x1F] MOVE_ENTITY: Update entity position (mode=1)
  3: 0x01EB [0x00] END_REQSTACK()
```

### Event 65535.23

#### Metadata

| Field        | Value    |
|--------------|----------|
| Entrypoint   | 0x01EC   |
| Data Size    | 12 bytes |
| Instructions | 4        |

```
      00 01 02 03 04 05 06 07  08 09 0A 0B 0C 0D 0E 0F
      -- -- -- -- -- -- -- --  -- -- -- -- -- -- -- --
01E0:                                      1F 00 47 80              ..G.
01F0: 48 80 49 80 1F 01 6F 00                           H.I...o.        
```

#### Opcodes

```
  0: 0x01EC [0x1F] MOVE_ENTITY: EventEntity moves to X=785.560*, Z=297.289*, Y=-22.315*
  1: 0x01F4 [0x1F] MOVE_ENTITY: Update entity position (mode=1)
  2: 0x01F6 [0x6F] WAIT_FRAME_DELAY: Yield until WaitTime reaches zero
  3: 0x01F7 [0x00] END_REQSTACK()
```

### Event 65535.24

#### Metadata

| Field        | Value    |
|--------------|----------|
| Entrypoint   | 0x01F8   |
| Data Size    | 12 bytes |
| Instructions | 4        |

```
      00 01 02 03 04 05 06 07  08 09 0A 0B 0C 0D 0E 0F
      -- -- -- -- -- -- -- --  -- -- -- -- -- -- -- --
01F0:                          1F 00 4A 80 4B 80 4C 80          ..J.K.L.
0200: 1F 01 6F 00                                       ..o.            
```

#### Opcodes

```
  0: 0x01F8 [0x1F] MOVE_ENTITY: EventEntity moves to X=853.920*, Z=249.281*, Y=-14.504*
  1: 0x0200 [0x1F] MOVE_ENTITY: Update entity position (mode=1)
  2: 0x0202 [0x6F] WAIT_FRAME_DELAY: Yield until WaitTime reaches zero
  3: 0x0203 [0x00] END_REQSTACK()
```

### Event 65535.25

#### Metadata

| Field        | Value    |
|--------------|----------|
| Entrypoint   | 0x0204   |
| Data Size    | 42 bytes |
| Instructions | 8        |

```
      00 01 02 03 04 05 06 07  08 09 0A 0B 0C 0D 0E 0F
      -- -- -- -- -- -- -- --  -- -- -- -- -- -- -- --
0200:             1F 00 4D 80  4E 80 4F 80 1F 01 6F 4A      ..M.N.O...oJ
0210: 19 D2 03 01 F8 D1 03 01  6F 76 19 D2 03 01 5B 50  ........ov....[P
0220: 80 19 D2 03 01 19 D2 03  01 77 6E 64 31 00        .........wnd1.  
```

#### Opcodes

```
  0: 0x0204 [0x1F] MOVE_ENTITY: EventEntity moves to X=-603.193*, Z=-369.251*, Y=-17.022*
  1: 0x020C [0x1F] MOVE_ENTITY: Update entity position (mode=1)
  2: 0x020E [0x6F] WAIT_FRAME_DELAY: Yield until WaitTime reaches zero
  3: 0x020F [0x4A] yagu1 (ID: 17027609/0x0103D219) looks at Shayeeha (ID: 17027576/0x0103D1F8)
  4: 0x0218 [0x6F] WAIT_FRAME_DELAY: Yield until WaitTime reaches zero
  5: 0x0219 [0x76] CHECK_ENTITY_RENDER_FLAGS: Wait until yagu1 (ID: 17027609/0x0103D219) Render.Flags0 and Render.Flags3 conditions are met
  6: 0x021E [0x5B] LOAD_EXT_SCHEDULER: Load scheduler "wnd1" with entities [yagu1 (ID: 17027609/0x0103D219), yagu1 (ID: 17027609/0x0103D219)], work=857*
  7: 0x022D [0x00] END_REQSTACK()
```

### Event 65535.26

#### Metadata

| Field        | Value    |
|--------------|----------|
| Entrypoint   | 0x022E   |
| Data Size    | 42 bytes |
| Instructions | 8        |

```
      00 01 02 03 04 05 06 07  08 09 0A 0B 0C 0D 0E 0F
      -- -- -- -- -- -- -- --  -- -- -- -- -- -- -- --
0220:                                            1F 00                ..
0230: 51 80 52 80 53 80 1F 01  6F 4A 1A D2 03 01 F8 D1  Q.R.S...oJ......
0240: 03 01 6F 76 1A D2 03 01  5B 50 80 1A D2 03 01 1A  ..ov....[P......
0250: D2 03 01 32 68 73 30 00                           ...2hs0.        
```

#### Opcodes

```
  0: 0x022E [0x1F] MOVE_ENTITY: EventEntity moves to X=-599.775*, Z=-364.671*, Y=-16.090*
  1: 0x0236 [0x1F] MOVE_ENTITY: Update entity position (mode=1)
  2: 0x0238 [0x6F] WAIT_FRAME_DELAY: Yield until WaitTime reaches zero
  3: 0x0239 [0x4A] yagu2 (ID: 17027610/0x0103D21A) looks at Shayeeha (ID: 17027576/0x0103D1F8)
  4: 0x0242 [0x6F] WAIT_FRAME_DELAY: Yield until WaitTime reaches zero
  5: 0x0243 [0x76] CHECK_ENTITY_RENDER_FLAGS: Wait until yagu2 (ID: 17027610/0x0103D21A) Render.Flags0 and Render.Flags3 conditions are met
  6: 0x0248 [0x5B] LOAD_EXT_SCHEDULER: Load scheduler "2hs0" with entities [yagu2 (ID: 17027610/0x0103D21A), yagu2 (ID: 17027610/0x0103D21A)], work=857*
  7: 0x0257 [0x00] END_REQSTACK()
```

### Event 65535.27

#### Metadata

| Field        | Value    |
|--------------|----------|
| Entrypoint   | 0x0258   |
| Data Size    | 42 bytes |
| Instructions | 8        |

```
      00 01 02 03 04 05 06 07  08 09 0A 0B 0C 0D 0E 0F
      -- -- -- -- -- -- -- --  -- -- -- -- -- -- -- --
0250:                          1F 00 54 80 55 80 56 80          ..T.U.V.
0260: 1F 01 6F 4A 1B D2 03 01  F8 D1 03 01 6F 76 1B D2  ..oJ........ov..
0270: 03 01 5B 50 80 1B D2 03  01 1B D2 03 01 73 74 66  ..[P.........stf
0280: 31 00                                             1.              
```

#### Opcodes

```
  0: 0x0258 [0x1F] MOVE_ENTITY: EventEntity moves to X=-599.352*, Z=-367.440*, Y=-16.434*
  1: 0x0260 [0x1F] MOVE_ENTITY: Update entity position (mode=1)
  2: 0x0262 [0x6F] WAIT_FRAME_DELAY: Yield until WaitTime reaches zero
  3: 0x0263 [0x4A] yagu3 (ID: 17027611/0x0103D21B) looks at Shayeeha (ID: 17027576/0x0103D1F8)
  4: 0x026C [0x6F] WAIT_FRAME_DELAY: Yield until WaitTime reaches zero
  5: 0x026D [0x76] CHECK_ENTITY_RENDER_FLAGS: Wait until yagu3 (ID: 17027611/0x0103D21B) Render.Flags0 and Render.Flags3 conditions are met
  6: 0x0272 [0x5B] LOAD_EXT_SCHEDULER: Load scheduler "stf1" with entities [yagu3 (ID: 17027611/0x0103D21B), yagu3 (ID: 17027611/0x0103D21B)], work=857*
  7: 0x0281 [0x00] END_REQSTACK()
```

### Event 65535.28

#### Metadata

| Field        | Value    |
|--------------|----------|
| Entrypoint   | 0x0282   |
| Data Size    | 42 bytes |
| Instructions | 8        |

```
      00 01 02 03 04 05 06 07  08 09 0A 0B 0C 0D 0E 0F
      -- -- -- -- -- -- -- --  -- -- -- -- -- -- -- --
0280:       1F 00 57 80 58 80  59 80 1F 01 6F 4A 1C D2    ..W.X.Y...oJ..
0290: 03 01 F8 D1 03 01 6F 76  1C D2 03 01 5B 50 80 1C  ......ov....[P..
02A0: D2 03 01 1C D2 03 01 77  6E 64 31 00              .......wnd1.    
```

#### Opcodes

```
  0: 0x0282 [0x1F] MOVE_ENTITY: EventEntity moves to X=-597.857*, Z=-365.687*, Y=-16.216*
  1: 0x028A [0x1F] MOVE_ENTITY: Update entity position (mode=1)
  2: 0x028C [0x6F] WAIT_FRAME_DELAY: Yield until WaitTime reaches zero
  3: 0x028D [0x4A] yagu4 (ID: 17027612/0x0103D21C) looks at Shayeeha (ID: 17027576/0x0103D1F8)
  4: 0x0296 [0x6F] WAIT_FRAME_DELAY: Yield until WaitTime reaches zero
  5: 0x0297 [0x76] CHECK_ENTITY_RENDER_FLAGS: Wait until yagu4 (ID: 17027612/0x0103D21C) Render.Flags0 and Render.Flags3 conditions are met
  6: 0x029C [0x5B] LOAD_EXT_SCHEDULER: Load scheduler "wnd1" with entities [yagu4 (ID: 17027612/0x0103D21C), yagu4 (ID: 17027612/0x0103D21C)], work=857*
  7: 0x02AB [0x00] END_REQSTACK()
```

### Event 65535.29

#### Metadata

| Field        | Value    |
|--------------|----------|
| Entrypoint   | 0x02AC   |
| Data Size    | 42 bytes |
| Instructions | 8        |

```
      00 01 02 03 04 05 06 07  08 09 0A 0B 0C 0D 0E 0F
      -- -- -- -- -- -- -- --  -- -- -- -- -- -- -- --
02A0:                                      1F 00 5A 80              ..Z.
02B0: 5B 80 5C 80 1F 01 6F 4A  1D D2 03 01 F8 D1 03 01  [.\...oJ........
02C0: 6F 76 1D D2 03 01 5B 50  80 1D D2 03 01 1D D2 03  ov....[P........
02D0: 01 32 68 73 30 00                                 .2hs0.          
```

#### Opcodes

```
  0: 0x02AC [0x1F] MOVE_ENTITY: EventEntity moves to X=-577.688*, Z=-361.626*, Y=-10.691*
  1: 0x02B4 [0x1F] MOVE_ENTITY: Update entity position (mode=1)
  2: 0x02B6 [0x6F] WAIT_FRAME_DELAY: Yield until WaitTime reaches zero
  3: 0x02B7 [0x4A] yagu5 (ID: 17027613/0x0103D21D) looks at Shayeeha (ID: 17027576/0x0103D1F8)
  4: 0x02C0 [0x6F] WAIT_FRAME_DELAY: Yield until WaitTime reaches zero
  5: 0x02C1 [0x76] CHECK_ENTITY_RENDER_FLAGS: Wait until yagu5 (ID: 17027613/0x0103D21D) Render.Flags0 and Render.Flags3 conditions are met
  6: 0x02C6 [0x5B] LOAD_EXT_SCHEDULER: Load scheduler "2hs0" with entities [yagu5 (ID: 17027613/0x0103D21D), yagu5 (ID: 17027613/0x0103D21D)], work=857*
  7: 0x02D5 [0x00] END_REQSTACK()
```

### Event 65535.30

#### Metadata

| Field        | Value    |
|--------------|----------|
| Entrypoint   | 0x02D6   |
| Data Size    | 42 bytes |
| Instructions | 8        |

```
      00 01 02 03 04 05 06 07  08 09 0A 0B 0C 0D 0E 0F
      -- -- -- -- -- -- -- --  -- -- -- -- -- -- -- --
02D0:                   1F 00  5D 80 5E 80 5F 80 1F 01        ..].^._...
02E0: 6F 4A 1E D2 03 01 F8 D1  03 01 6F 76 1E D2 03 01  oJ........ov....
02F0: 5B 50 80 1E D2 03 01 1E  D2 03 01 6B 74 6E 30 00  [P.........ktn0.
```

#### Opcodes

```
  0: 0x02D6 [0x1F] MOVE_ENTITY: EventEntity moves to X=-574.861*, Z=-362.548*, Y=-10.000*
  1: 0x02DE [0x1F] MOVE_ENTITY: Update entity position (mode=1)
  2: 0x02E0 [0x6F] WAIT_FRAME_DELAY: Yield until WaitTime reaches zero
  3: 0x02E1 [0x4A] yagu6 (ID: 17027614/0x0103D21E) looks at Shayeeha (ID: 17027576/0x0103D1F8)
  4: 0x02EA [0x6F] WAIT_FRAME_DELAY: Yield until WaitTime reaches zero
  5: 0x02EB [0x76] CHECK_ENTITY_RENDER_FLAGS: Wait until yagu6 (ID: 17027614/0x0103D21E) Render.Flags0 and Render.Flags3 conditions are met
  6: 0x02F0 [0x5B] LOAD_EXT_SCHEDULER: Load scheduler "ktn0" with entities [yagu6 (ID: 17027614/0x0103D21E), yagu6 (ID: 17027614/0x0103D21E)], work=857*
  7: 0x02FF [0x00] END_REQSTACK()
```

### Event 65535.31

#### Metadata

| Field        | Value    |
|--------------|----------|
| Entrypoint   | 0x0300   |
| Data Size    | 42 bytes |
| Instructions | 8        |

```
      00 01 02 03 04 05 06 07  08 09 0A 0B 0C 0D 0E 0F
      -- -- -- -- -- -- -- --  -- -- -- -- -- -- -- --
0300: 1F 00 60 80 61 80 5F 80  1F 01 6F 4A 1F D2 03 01  ..`.a._...oJ....
0310: F8 D1 03 01 6F 76 1F D2  03 01 5B 50 80 1F D2 03  ....ov....[P....
0320: 01 1F D2 03 01 73 74 66  30 00                    .....stf0.      
```

#### Opcodes

```
  0: 0x0300 [0x1F] MOVE_ENTITY: EventEntity moves to X=-573.326*, Z=-360.527*, Y=-10.000*
  1: 0x0308 [0x1F] MOVE_ENTITY: Update entity position (mode=1)
  2: 0x030A [0x6F] WAIT_FRAME_DELAY: Yield until WaitTime reaches zero
  3: 0x030B [0x4A] yagu7 (ID: 17027615/0x0103D21F) looks at Shayeeha (ID: 17027576/0x0103D1F8)
  4: 0x0314 [0x6F] WAIT_FRAME_DELAY: Yield until WaitTime reaches zero
  5: 0x0315 [0x76] CHECK_ENTITY_RENDER_FLAGS: Wait until yagu7 (ID: 17027615/0x0103D21F) Render.Flags0 and Render.Flags3 conditions are met
  6: 0x031A [0x5B] LOAD_EXT_SCHEDULER: Load scheduler "stf0" with entities [yagu7 (ID: 17027615/0x0103D21F), yagu7 (ID: 17027615/0x0103D21F)], work=857*
  7: 0x0329 [0x00] END_REQSTACK()
```

### Event 65535.32

#### Metadata

| Field        | Value    |
|--------------|----------|
| Entrypoint   | 0x032A   |
| Data Size    | 42 bytes |
| Instructions | 8        |

```
      00 01 02 03 04 05 06 07  08 09 0A 0B 0C 0D 0E 0F
      -- -- -- -- -- -- -- --  -- -- -- -- -- -- -- --
0320:                                1F 00 62 80 63 80            ..b.c.
0330: 5F 80 1F 01 6F 4A 20 D2  03 01 F8 D1 03 01 6F 76  _...oJ .......ov
0340: 20 D2 03 01 5B 50 80 20  D2 03 01 20 D2 03 01 6B   ...[P. ... ...k
0350: 74 6E 30 00                                       tn0.            
```

#### Opcodes

```
  0: 0x032A [0x1F] MOVE_ENTITY: EventEntity moves to X=-572.352*, Z=-363.753*, Y=-10.000*
  1: 0x0332 [0x1F] MOVE_ENTITY: Update entity position (mode=1)
  2: 0x0334 [0x6F] WAIT_FRAME_DELAY: Yield until WaitTime reaches zero
  3: 0x0335 [0x4A] yagu8 (ID: 17027616/0x0103D220) looks at Shayeeha (ID: 17027576/0x0103D1F8)
  4: 0x033E [0x6F] WAIT_FRAME_DELAY: Yield until WaitTime reaches zero
  5: 0x033F [0x76] CHECK_ENTITY_RENDER_FLAGS: Wait until yagu8 (ID: 17027616/0x0103D220) Render.Flags0 and Render.Flags3 conditions are met
  6: 0x0344 [0x5B] LOAD_EXT_SCHEDULER: Load scheduler "ktn0" with entities [yagu8 (ID: 17027616/0x0103D220), yagu8 (ID: 17027616/0x0103D220)], work=857*
  7: 0x0353 [0x00] END_REQSTACK()
```

### Event 65535.33

#### Metadata

| Field        | Value    |
|--------------|----------|
| Entrypoint   | 0x0354   |
| Data Size    | 12 bytes |
| Instructions | 4        |

```
      00 01 02 03 04 05 06 07  08 09 0A 0B 0C 0D 0E 0F
      -- -- -- -- -- -- -- --  -- -- -- -- -- -- -- --
0350:             1F 00 64 80  65 80 66 80 1F 01 6F 00      ..d.e.f...o.
```

#### Opcodes

```
  0: 0x0354 [0x1F] MOVE_ENTITY: EventEntity moves to X=-623.721*, Z=-410.743*, Y=-18.785*
  1: 0x035C [0x1F] MOVE_ENTITY: Update entity position (mode=1)
  2: 0x035E [0x6F] WAIT_FRAME_DELAY: Yield until WaitTime reaches zero
  3: 0x035F [0x00] END_REQSTACK()
```

### Event 65535.34

#### Metadata

| Field        | Value    |
|--------------|----------|
| Entrypoint   | 0x0360   |
| Data Size    | 12 bytes |
| Instructions | 4        |

```
      00 01 02 03 04 05 06 07  08 09 0A 0B 0C 0D 0E 0F
      -- -- -- -- -- -- -- --  -- -- -- -- -- -- -- --
0360: 1F 00 67 80 68 80 69 80  1F 01 6F 00              ..g.h.i...o.    
```

#### Opcodes

```
  0: 0x0360 [0x1F] MOVE_ENTITY: EventEntity moves to X=-622.123*, Z=-410.979*, Y=-18.734*
  1: 0x0368 [0x1F] MOVE_ENTITY: Update entity position (mode=1)
  2: 0x036A [0x6F] WAIT_FRAME_DELAY: Yield until WaitTime reaches zero
  3: 0x036B [0x00] END_REQSTACK()
```

### Event 65535.35

#### Metadata

| Field        | Value    |
|--------------|----------|
| Entrypoint   | 0x036C   |
| Data Size    | 12 bytes |
| Instructions | 4        |

```
      00 01 02 03 04 05 06 07  08 09 0A 0B 0C 0D 0E 0F
      -- -- -- -- -- -- -- --  -- -- -- -- -- -- -- --
0360:                                      1F 00 6A 80              ..j.
0370: 6B 80 6C 80 1F 01 6F 00                           k.l...o.        
```

#### Opcodes

```
  0: 0x036C [0x1F] MOVE_ENTITY: EventEntity moves to X=-625.527*, Z=-413.336*, Y=-18.338*
  1: 0x0374 [0x1F] MOVE_ENTITY: Update entity position (mode=1)
  2: 0x0376 [0x6F] WAIT_FRAME_DELAY: Yield until WaitTime reaches zero
  3: 0x0377 [0x00] END_REQSTACK()
```

### Event 65535.36

#### Metadata

| Field        | Value    |
|--------------|----------|
| Entrypoint   | 0x0378   |
| Data Size    | 12 bytes |
| Instructions | 4        |

```
      00 01 02 03 04 05 06 07  08 09 0A 0B 0C 0D 0E 0F
      -- -- -- -- -- -- -- --  -- -- -- -- -- -- -- --
0370:                          1F 00 6D 80 6E 80 6F 80          ..m.n.o.
0380: 1F 01 6F 00                                       ..o.            
```

#### Opcodes

```
  0: 0x0378 [0x1F] MOVE_ENTITY: EventEntity moves to X=-623.938*, Z=-416.048*, Y=-18.001*
  1: 0x0380 [0x1F] MOVE_ENTITY: Update entity position (mode=1)
  2: 0x0382 [0x6F] WAIT_FRAME_DELAY: Yield until WaitTime reaches zero
  3: 0x0383 [0x00] END_REQSTACK()
```

### Event 65535.37

#### Metadata

| Field        | Value    |
|--------------|----------|
| Entrypoint   | 0x0384   |
| Data Size    | 30 bytes |
| Instructions | 8        |

```
      00 01 02 03 04 05 06 07  08 09 0A 0B 0C 0D 0E 0F
      -- -- -- -- -- -- -- --  -- -- -- -- -- -- -- --
0380:             1F 00 70 80  71 80 72 80 1F 01 6F 4A      ..p.q.r...oJ
0390: 1F D2 03 01 F8 D1 03 01  6F 76 1F D2 03 01 1C 73  ........ov.....s
03A0: 80 00                                             ..              
```

#### Opcodes

```
  0: 0x0384 [0x1F] MOVE_ENTITY: EventEntity moves to X=-607.016*, Z=-368.770*, Y=-16.936*
  1: 0x038C [0x1F] MOVE_ENTITY: Update entity position (mode=1)
  2: 0x038E [0x6F] WAIT_FRAME_DELAY: Yield until WaitTime reaches zero
  3: 0x038F [0x4A] yagu7 (ID: 17027615/0x0103D21F) looks at Shayeeha (ID: 17027576/0x0103D1F8)
  4: 0x0398 [0x6F] WAIT_FRAME_DELAY: Yield until WaitTime reaches zero
  5: 0x0399 [0x76] CHECK_ENTITY_RENDER_FLAGS: Wait until yagu7 (ID: 17027615/0x0103D21F) Render.Flags0 and Render.Flags3 conditions are met
  6: 0x039E [0x1C] WAIT(3* ticks)
  7: 0x03A1 [0x00] END_REQSTACK()
```

### Event 65535.38

#### Metadata

| Field        | Value    |
|--------------|----------|
| Entrypoint   | 0x03A2   |
| Data Size    | 27 bytes |
| Instructions | 5        |

```
      00 01 02 03 04 05 06 07  08 09 0A 0B 0C 0D 0E 0F
      -- -- -- -- -- -- -- --  -- -- -- -- -- -- -- --
03A0:       1F 00 74 80 75 80  76 80 1F 01 6F 5B 50 80    ..t.u.v...o[P.
03B0: 1F D2 03 01 1F D2 03 01  73 74 66 31 00           ........stf1.   
```

#### Opcodes

```
  0: 0x03A2 [0x1F] MOVE_ENTITY: EventEntity moves to X=-609.854*, Z=-377.254*, Y=-18.000*
  1: 0x03AA [0x1F] MOVE_ENTITY: Update entity position (mode=1)
  2: 0x03AC [0x6F] WAIT_FRAME_DELAY: Yield until WaitTime reaches zero
  3: 0x03AD [0x5B] LOAD_EXT_SCHEDULER: Load scheduler "stf1" with entities [yagu7 (ID: 17027615/0x0103D21F), yagu7 (ID: 17027615/0x0103D21F)], work=857*
  4: 0x03BC [0x00] END_REQSTACK()
```

### Event 65535.39

#### Metadata

| Field        | Value    |
|--------------|----------|
| Entrypoint   | 0x03BD   |
| Data Size    | 27 bytes |
| Instructions | 7        |

```
      00 01 02 03 04 05 06 07  08 09 0A 0B 0C 0D 0E 0F
      -- -- -- -- -- -- -- --  -- -- -- -- -- -- -- --
03B0:                                         1F 00 77               ..w
03C0: 80 78 80 76 80 1F 01 6F  4A F7 D1 03 01 F8 D1 03  .x.v...oJ.......
03D0: 01 6F 76 F7 D1 03 01 00                           .ov.....        
```

#### Opcodes

```
  0: 0x03BD [0x1F] MOVE_ENTITY: EventEntity moves to X=-611.981*, Z=-379.540*, Y=-18.000*
  1: 0x03C5 [0x1F] MOVE_ENTITY: Update entity position (mode=1)
  2: 0x03C7 [0x6F] WAIT_FRAME_DELAY: Yield until WaitTime reaches zero
  3: 0x03C8 [0x4A] Gadalar (ID: 17027575/0x0103D1F7) looks at Shayeeha (ID: 17027576/0x0103D1F8)
  4: 0x03D1 [0x6F] WAIT_FRAME_DELAY: Yield until WaitTime reaches zero
  5: 0x03D2 [0x76] CHECK_ENTITY_RENDER_FLAGS: Wait until Gadalar (ID: 17027575/0x0103D1F7) Render.Flags0 and Render.Flags3 conditions are met
  6: 0x03D7 [0x00] END_REQSTACK()
```

### Event 65535.40

#### Metadata

| Field        | Value    |
|--------------|----------|
| Entrypoint   | 0x03D8   |
| Data Size    | 12 bytes |
| Instructions | 4        |

```
      00 01 02 03 04 05 06 07  08 09 0A 0B 0C 0D 0E 0F
      -- -- -- -- -- -- -- --  -- -- -- -- -- -- -- --
03D0:                          1F 00 79 80 7A 80 76 80          ..y.z.v.
03E0: 1F 01 6F 00                                       ..o.            
```

#### Opcodes

```
  0: 0x03D8 [0x1F] MOVE_ENTITY: EventEntity moves to X=-612.804*, Z=-377.529*, Y=-18.000*
  1: 0x03E0 [0x1F] MOVE_ENTITY: Update entity position (mode=1)
  2: 0x03E2 [0x6F] WAIT_FRAME_DELAY: Yield until WaitTime reaches zero
  3: 0x03E3 [0x00] END_REQSTACK()
```

### Event 65535.41

#### Metadata

| Field        | Value    |
|--------------|----------|
| Entrypoint   | 0x03E4   |
| Data Size    | 10 bytes |
| Instructions | 2        |

```
      00 01 02 03 04 05 06 07  08 09 0A 0B 0C 0D 0E 0F
      -- -- -- -- -- -- -- --  -- -- -- -- -- -- -- --
03E0:             6C F7 D1 03  01 27 80 7B 80 00            l....'.{..  
```

#### Opcodes

```
  0: 0x03E4 [0x6C] FADE_ENTITY_COLOR(entity_id=Gadalar (ID: 17027575/0x0103D1F7), end_alpha=0*, fade_time=1*)
  1: 0x03ED [0x00] END_REQSTACK()
```

### Event 65535.42

#### Metadata

| Field        | Value    |
|--------------|----------|
| Entrypoint   | 0x03EE   |
| Data Size    | 10 bytes |
| Instructions | 2        |

```
      00 01 02 03 04 05 06 07  08 09 0A 0B 0C 0D 0E 0F
      -- -- -- -- -- -- -- --  -- -- -- -- -- -- -- --
03E0:                                            6C 02                l.
03F0: D2 03 01 27 80 7B 80 00                           ...'.{..        
```

#### Opcodes

```
  0: 0x03EE [0x6C] FADE_ENTITY_COLOR(entity_id=Gadalar (ID: 17027586/0x0103D202), end_alpha=0*, fade_time=1*)
  1: 0x03F7 [0x00] END_REQSTACK()
```

### Event 65535.43

#### Metadata

| Field        | Value    |
|--------------|----------|
| Entrypoint   | 0x03F8   |
| Data Size    | 10 bytes |
| Instructions | 2        |

```
      00 01 02 03 04 05 06 07  08 09 0A 0B 0C 0D 0E 0F
      -- -- -- -- -- -- -- --  -- -- -- -- -- -- -- --
03F0:                          6C F7 D1 03 01 7C 80 7B          l....|.{
0400: 80 00                                             ..              
```

#### Opcodes

```
  0: 0x03F8 [0x6C] FADE_ENTITY_COLOR(entity_id=Gadalar (ID: 17027575/0x0103D1F7), end_alpha=128*, fade_time=1*)
  1: 0x0401 [0x00] END_REQSTACK()
```

### Event 65535.44

#### Metadata

| Field        | Value    |
|--------------|----------|
| Entrypoint   | 0x0402   |
| Data Size    | 10 bytes |
| Instructions | 2        |

```
      00 01 02 03 04 05 06 07  08 09 0A 0B 0C 0D 0E 0F
      -- -- -- -- -- -- -- --  -- -- -- -- -- -- -- --
0400:       6C 02 D2 03 01 7C  80 7B 80 00                l....|.{..    
```

#### Opcodes

```
  0: 0x0402 [0x6C] FADE_ENTITY_COLOR(entity_id=Gadalar (ID: 17027586/0x0103D202), end_alpha=128*, fade_time=1*)
  1: 0x040B [0x00] END_REQSTACK()
```

### Event 65535.45

#### Metadata

| Field        | Value   |
|--------------|---------|
| Entrypoint   | 0x040C  |
| Data Size    | 4 bytes |
| Instructions | 2       |

```
      00 01 02 03 04 05 06 07  08 09 0A 0B 0C 0D 0E 0F
      -- -- -- -- -- -- -- --  -- -- -- -- -- -- -- --
0400:                                      1C 02 10 00              ....
```

#### Opcodes

```
  0: 0x040C [0x1C] WAIT(Work_Zone[2] ticks)
  1: 0x040F [0x00] END_REQSTACK()
```

### Event 65535.46

#### Metadata

| Field        | Value    |
|--------------|----------|
| Entrypoint   | 0x0410   |
| Data Size    | 10 bytes |
| Instructions | 2        |

```
      00 01 02 03 04 05 06 07  08 09 0A 0B 0C 0D 0E 0F
      -- -- -- -- -- -- -- --  -- -- -- -- -- -- -- --
0410: 6C FE D1 03 01 27 80 7D  80 00                    l....'.}..      
```

#### Opcodes

```
  0: 0x0410 [0x6C] FADE_ENTITY_COLOR(entity_id=Shailham (ID: 17027582/0x0103D1FE), end_alpha=0*, fade_time=120*)
  1: 0x0419 [0x00] END_REQSTACK()
```

### Event 65535.47

#### Metadata

| Field        | Value    |
|--------------|----------|
| Entrypoint   | 0x041A   |
| Data Size    | 10 bytes |
| Instructions | 2        |

```
      00 01 02 03 04 05 06 07  08 09 0A 0B 0C 0D 0E 0F
      -- -- -- -- -- -- -- --  -- -- -- -- -- -- -- --
0410:                                6C 03 D2 03 01 7C            l....|
0420: 80 7B 80 00                                       .{..            
```

#### Opcodes

```
  0: 0x041A [0x6C] FADE_ENTITY_COLOR(entity_id=Unnamed NPC (ID: 17027587/0x0103D203), end_alpha=128*, fade_time=1*)
  1: 0x0423 [0x00] END_REQSTACK()
```

### Event 65535.48

#### Metadata

| Field        | Value    |
|--------------|----------|
| Entrypoint   | 0x0424   |
| Data Size    | 10 bytes |
| Instructions | 2        |

```
      00 01 02 03 04 05 06 07  08 09 0A 0B 0C 0D 0E 0F
      -- -- -- -- -- -- -- --  -- -- -- -- -- -- -- --
0420:             6C 04 D2 03  01 7C 80 7B 80 00            l....|.{..  
```

#### Opcodes

```
  0: 0x0424 [0x6C] FADE_ENTITY_COLOR(entity_id=Unnamed NPC (ID: 17027588/0x0103D204), end_alpha=128*, fade_time=1*)
  1: 0x042D [0x00] END_REQSTACK()
```
