# 0x7FFFFFF0 - Zone Events

## Common Data

| Field            | Value                  |
|------------------|------------------------|
| Zone             | Mount Zhayolm (ID: 61) |
| Block Size       | 2652 bytes             |
| Total Events     | 60                     |
| References Count | 119                    |

## List of Events

| Event ID                   | Entrypoint   |   Size |   Instructions |
|----------------------------|--------------|--------|----------------|
| [65535](#event-65535)      | 0x0000       |      1 |              1 |
| [65534](#event-65534)      | 0x0001       |      1 |              1 |
| [65535.1](#event-655351)   | 0x0002       |     41 |              5 |
| [65535.2](#event-655352)   | 0x002B       |     41 |              5 |
| [208](#event-208)          | 0x0054       |     46 |              8 |
| [90](#event-90)            | 0x0082       |     41 |              5 |
| [100](#event-100)          | 0x00AB       |     10 |              2 |
| [101](#event-101)          | 0x00B5       |     14 |              4 |
| [102](#event-102)          | 0x00C3       |     13 |              3 |
| [103](#event-103)          | 0x00D0       |     10 |              2 |
| [104](#event-104)          | 0x00DA       |     14 |              4 |
| [105](#event-105)          | 0x00E8       |     13 |              3 |
| [65535.3](#event-655353)   | 0x00F5       |     10 |              2 |
| [165](#event-165)          | 0x00FF       |     10 |              2 |
| [166](#event-166)          | 0x0109       |     14 |              4 |
| [167](#event-167)          | 0x0117       |     10 |              2 |
| [168](#event-168)          | 0x0121       |     14 |              4 |
| [169](#event-169)          | 0x012F       |     13 |              3 |
| [150](#event-150)          | 0x013C       |    719 |             85 |
| [151](#event-151)          | 0x040B       |      6 |              4 |
| [152](#event-152)          | 0x0411       |      6 |              4 |
| [65535.4](#event-655354)   | 0x0417       |     10 |              2 |
| [65535.5](#event-655355)   | 0x0421       |     12 |              3 |
| [65535.6](#event-655356)   | 0x042D       |     10 |              2 |
| [65535.7](#event-655357)   | 0x0437       |     10 |              2 |
| [65535.8](#event-655358)   | 0x0441       |     37 |              5 |
| [65535.9](#event-655359)   | 0x0466       |     37 |              5 |
| [65535.10](#event-6553510) | 0x048B       |     24 |              4 |
| [65535.11](#event-6553511) | 0x04A3       |     24 |              4 |
| [65535.12](#event-6553512) | 0x04BB       |     27 |              5 |
| [65535.13](#event-6553513) | 0x04D6       |     24 |              4 |
| [65535.14](#event-6553514) | 0x04EE       |     24 |              4 |
| [65535.15](#event-6553515) | 0x0506       |     42 |              6 |
| [20](#event-20)            | 0x0530       |    158 |             36 |
| [65535.16](#event-6553516) | 0x05CE       |      6 |              2 |
| [65535.17](#event-6553517) | 0x05D4       |      6 |              2 |
| [65535.18](#event-6553518) | 0x05DA       |      7 |              3 |
| [65535.19](#event-6553519) | 0x05E1       |      7 |              3 |
| [65535.20](#event-6553520) | 0x05E8       |     20 |              6 |
| [65535.21](#event-6553521) | 0x05FC       |     20 |              6 |
| [65535.22](#event-6553522) | 0x0610       |     16 |              4 |
| [65535.23](#event-6553523) | 0x0620       |      4 |              2 |
| [65535.24](#event-6553524) | 0x0624       |     18 |              6 |
| [65535.25](#event-6553525) | 0x0636       |     13 |              3 |
| [65535.26](#event-6553526) | 0x0643       |     36 |              6 |
| [65535.27](#event-6553527) | 0x0667       |     19 |              4 |
| [65535.28](#event-6553528) | 0x067A       |     19 |              4 |
| [65535.29](#event-6553529) | 0x068D       |     29 |              6 |
| [65535.30](#event-6553530) | 0x06AA       |     19 |              4 |
| [65535.31](#event-6553531) | 0x06BD       |     13 |              3 |
| [65535.32](#event-6553532) | 0x06CA       |     29 |              6 |
| [65535.33](#event-6553533) | 0x06E7       |     14 |              3 |
| [65535.34](#event-6553534) | 0x06F5       |     29 |              6 |
| [65535.35](#event-6553535) | 0x0712       |     19 |              4 |
| [65535.36](#event-6553536) | 0x0725       |     37 |              7 |
| [65535.37](#event-6553537) | 0x074A       |     19 |              4 |
| [65535.38](#event-6553538) | 0x075D       |     12 |              4 |
| [65535.39](#event-6553539) | 0x0769       |     12 |              4 |
| [65535.40](#event-6553540) | 0x0775       |      6 |              2 |
| [65535.41](#event-6553541) | 0x077B       |      4 |              2 |

## DAT References (imed_data)

|   Index | Hex Value   |   Dec Value |
|---------|-------------|-------------|
|       0 | 0x0001      |           1 |
|       1 | 0x0000      |           0 |
|       2 | 0x008C      |         140 |
|       3 | 0x00C8      |         200 |
|       4 | 0x003C      |          60 |
|       5 | 0x0002      |           2 |
|       6 | 0x00AA      |         170 |
|       7 | 0x1D48      |        7496 |
|       8 | 0x00C9      |         201 |
|       9 | 0xA1221     |      660001 |
|      10 | 0x506A1     |      329377 |
|      11 | 0xFFFF9688  |  4294940296 |
|      12 | 0x0C00      |        3072 |
|      13 | 0x000D      |          13 |
|      14 | 0xA1216     |      659990 |
|      15 | 0x520C3     |      336067 |
|      16 | 0xFFFF976E  |  4294940526 |
|      17 | 0xA1215     |      659989 |
|      18 | 0x51B7A     |      334714 |
|      19 | 0xFFFF9689  |  4294940297 |
|      20 | 0x0400      |        1024 |
|      21 | 0xA8376     |      689014 |
|      22 | 0x5571D     |      349981 |
|      23 | 0xFFFFA273  |  4294943347 |
|      24 | 0xFFFFB1AE  |  4294947246 |
|      25 | 0x43CF8     |      277752 |
|      26 | 0xFFFFE6F4  |  4294960884 |
|      27 | 0xFFFFB2DD  |  4294947549 |
|      28 | 0x44CF7     |      281847 |
|      29 | 0xFFFFE8A1  |  4294961313 |
|      30 | 0x1CC8      |        7368 |
|      31 | 0x001B      |          27 |
|      32 | 0x00FD      |         253 |
|      33 | 0x1CC9      |        7369 |
|      34 | 0x1CCA      |        7370 |
|      35 | 0x1CCB      |        7371 |
|      36 | 0x1CCC      |        7372 |
|      37 | 0x0078      |         120 |
|      38 | 0x00FE      |         254 |
|      39 | 0x1CCD      |        7373 |
|      40 | 0x1CCE      |        7374 |
|      41 | 0x0003      |           3 |
|      42 | 0x1CCF      |        7375 |
|      43 | 0x1CD0      |        7376 |
|      44 | 0x1CD1      |        7377 |
|      45 | 0xA4EF4     |      675572 |
|      46 | 0x5989C     |      366748 |
|      47 | 0xFFFFA248  |  4294943304 |
|      48 | 0x097B      |        2427 |
|      49 | 0xCCA2E     |      838190 |
|      50 | 0x39639     |      235065 |
|      51 | 0xFFFFC775  |  4294952821 |
|      52 | 0x0E89      |        3721 |
|      53 | 0xD09C8     |      854472 |
|      54 | 0x3C4D2     |      246994 |
|      55 | 0xFFFFC47E  |  4294952062 |
|      56 | 0x0E8A      |        3722 |
|      57 | 0xD0808     |      854024 |
|      58 | 0x3C077     |      245879 |
|      59 | 0xFFFFC767  |  4294952807 |
|      60 | 0x0F86      |        3974 |
|      61 | 0x0005      |           5 |
|      62 | 0x000A      |          10 |
|      63 | 0x0009      |           9 |
|      64 | 0x0046      |          70 |
|      65 | 0x00D2      |         210 |
|      66 | 0x0028      |          40 |
|      67 | 0xCF0E2     |      848098 |
|      68 | 0x3B0FE     |      241918 |
|      69 | 0xFFFFC93E  |  4294953278 |
|      70 | 0xD71C4     |      881092 |
|      71 | 0x2B7F6     |      178166 |
|      72 | 0xFFFFE095  |  4294959253 |
|      73 | 0x0015      |          21 |
|      74 | 0x0708      |        1800 |
|      75 | 0xC69CD     |      813517 |
|      76 | 0x39D35     |      236853 |
|      77 | 0xFFFFCB1A  |  4294953754 |
|      78 | 0x002D      |          45 |
|      79 | 0xD7F3B     |      884539 |
|      80 | 0x2C8A9     |      182441 |
|      81 | 0xFFFFDD27  |  4294958375 |
|      82 | 0x0514      |        1300 |
|      83 | 0x000E      |          14 |
|      84 | 0xD7445     |      881733 |
|      85 | 0x2B654     |      177748 |
|      86 | 0xFFFFDFA4  |  4294959012 |
|      87 | 0x000F      |          15 |
|      88 | 0xD7C94     |      883860 |
|      89 | 0x2B78B     |      178059 |
|      90 | 0xFFFFDD10  |  4294958352 |
|      91 | 0xD6884     |      878724 |
|      92 | 0x2BD78     |      179576 |
|      93 | 0xFFFFE070  |  4294959216 |
|      94 | 0xC929E     |      823966 |
|      95 | 0x38380     |      230272 |
|      96 | 0xFFFFC9EE  |  4294953454 |
|      97 | 0x0012      |          18 |
|      98 | 0x0027      |          39 |
|      99 | 0xC6087     |      811143 |
|     100 | 0x39997     |      235927 |
|     101 | 0xFFFFCA2D  |  4294953517 |
|     102 | 0x0096      |         150 |
|     103 | 0x0006      |           6 |
|     104 | 0x00B4      |         180 |
|     105 | 0x038C      |         908 |
|     106 | 0xFFFF1DA5  |  4294909349 |
|     107 | 0x000C      |          12 |
|     108 | 0x224DB     |      140507 |
|     109 | 0xFFFFFB49  |  4294966089 |
|     110 | 0xFFFFF830  |  4294965296 |
|     111 | 0x0960      |        2400 |
|     112 | 0x1C9B6     |      117174 |
|     113 | 0xD097C     |      854396 |
|     114 | 0x3C7C1     |      247745 |
|     115 | 0xFFFFC79D  |  4294952861 |
|     116 | 0xD01D4     |      852436 |
|     117 | 0x379D8     |      227800 |
|     118 | 0xFFFFC791  |  4294952849 |

## String References

- **7368**: Choose a picture to take.
- **7369**: First scene.
- **7370**: Second scene.
- **7371**: Third scene.
- **7372**: Which picture will you take? [Show me again./First scene./Second scene./Third scene.]
- **7373**: <Player> records the first scene.
- **7374**: <Player> records the second scene.
- **7375**: <Player> records the third scene.
- **7376**: <Player> takes in the surrounding scenery. ...The view is breathtaking.
- **7377**: <Player> thinks back on Balakaf's words. ...Perhaps this is not the best time to record a picture.
- **7496**: The order has been given to invade [the Leujaoam Sanctum/the Mamool Ja Training Grounds/Lebros Cavern/Periqia/the Ilrusi Atoll/Nyzul Isle/the Ashu Talif/Zhayolm Remnants/Arrapago Remnants/Bhaflau Remnants/Silver Sea Remnants]!

## Events

### Event 65535

#### Metadata

| Field        | Value   |
|--------------|---------|
| Entrypoint   | 0x0000  |
| Data Size    | 1 bytes |
| Instructions | 1       |

```
      00 01 02 03 04 05 06 07  08 09 0A 0B 0C 0D 0E 0F
      -- -- -- -- -- -- -- --  -- -- -- -- -- -- -- --
0000: 00                                                .               
```

#### Opcodes

```
  0: 0x0000 [0x00] END_REQSTACK()
```

### Event 65534

#### Metadata

| Field        | Value   |
|--------------|---------|
| Entrypoint   | 0x0001  |
| Data Size    | 1 bytes |
| Instructions | 1       |

```
      00 01 02 03 04 05 06 07  08 09 0A 0B 0C 0D 0E 0F
      -- -- -- -- -- -- -- --  -- -- -- -- -- -- -- --
0000:    00                                              .              
```

#### Opcodes

```
  0: 0x0001 [0x00] END_REQSTACK()
```

### Event 65535.1

#### Metadata

| Field        | Value    |
|--------------|----------|
| Entrypoint   | 0x0002   |
| Data Size    | 41 bytes |
| Instructions | 5        |

```
      00 01 02 03 04 05 06 07  08 09 0A 0B 0C 0D 0E 0F
      -- -- -- -- -- -- -- --  -- -- -- -- -- -- -- --
0000:       62 00 80 F0 FF FF  7F F0 FF FF 7F 6D 61 69    b..........mai
0010: 6E 01 80 1C 02 80 45 03  80 F0 FF FF 7F F0 FF FF  n.....E.........
0020: 7F 66 64 6F 31 01 80 1C  04 80 00                 .fdo1......     
```

#### Opcodes

```
  0: 0x0002 [0x62] LOAD_EVENT_SCHEDULER: Load scheduler "main" with entities [LocalPlayer, LocalPlayer], work=[1*, 0*]
  1: 0x0013 [0x1C] WAIT(140* ticks)
  2: 0x0016 [0x45] LOAD_SCHEDULED_TASK: Load scheduler "fdo1" with entities [LocalPlayer, LocalPlayer], work=[200*, 0*]
  3: 0x0027 [0x1C] WAIT(60* ticks)
  4: 0x002A [0x00] END_REQSTACK()
```

### Event 65535.2

#### Metadata

| Field        | Value    |
|--------------|----------|
| Entrypoint   | 0x002B   |
| Data Size    | 41 bytes |
| Instructions | 5        |

```
      00 01 02 03 04 05 06 07  08 09 0A 0B 0C 0D 0E 0F
      -- -- -- -- -- -- -- --  -- -- -- -- -- -- -- --
0020:                                   45 03 80 F0 FF             E....
0030: FF 7F F0 FF FF 7F 66 64  69 31 01 80 1C 04 80 62  ......fdi1.....b
0040: 05 80 F0 FF FF 7F F0 FF  FF 7F 6D 61 69 6E 01 80  ..........main..
0050: 1C 06 80 00                                       ....            
```

#### Opcodes

```
  0: 0x002B [0x45] LOAD_SCHEDULED_TASK: Load scheduler "fdi1" with entities [LocalPlayer, LocalPlayer], work=[200*, 0*]
  1: 0x003C [0x1C] WAIT(60* ticks)
  2: 0x003F [0x62] LOAD_EVENT_SCHEDULER: Load scheduler "main" with entities [LocalPlayer, LocalPlayer], work=[2*, 0*]
  3: 0x0050 [0x1C] WAIT(170* ticks)
  4: 0x0053 [0x00] END_REQSTACK()
```

### Event 208

#### Metadata

| Field        | Value    |
|--------------|----------|
| Entrypoint   | 0x0054   |
| Data Size    | 46 bytes |
| Instructions | 8        |

```
      00 01 02 03 04 05 06 07  08 09 0A 0B 0C 0D 0E 0F
      -- -- -- -- -- -- -- --  -- -- -- -- -- -- -- --
0050:             42 48 07 80  9F 08 80 F8 FF FF 7F F8      BH..........
0060: FF FF 7F 6D 61 69 6E 01  80 1C 02 80 45 03 80 F0  ...main.....E...
0070: FF FF 7F F0 FF FF 7F 66  64 6F 31 01 80 1C 04 80  .......fdo1.....
0080: 21 00                                             !.              
```

#### Opcodes

```
  0: 0x0054 [0x42] SET_CLI_EVENT_CANCEL_DATA()
  1: 0x0055 [0x48] [System] [7496*]:
    → "The order has been given to invade [the Leujaoam Sanctum/the Mamool Ja Training Grounds/Lebros Cavern/Periqia/the Ilrusi Atoll/Nyzul Isle/the Ashu Talif/Zhayolm Remnants/Arrapago Remnants/Bhaflau Remnants/Silver Sea Remnants]!"
  2: 0x0058 [0x9F] LOAD_SCHEDULED_TASK_ALT: Load scheduler "main" with entities [EventEntity, EventEntity], work=[201*, 0*]
  3: 0x0069 [0x1C] WAIT(140* ticks)
  4: 0x006C [0x45] LOAD_SCHEDULED_TASK: Load scheduler "fdo1" with entities [LocalPlayer, LocalPlayer], work=[200*, 0*]
  5: 0x007D [0x1C] WAIT(60* ticks)
  6: 0x0080 [0x21] END_EVENT
  7: 0x0081 [0x00] END_REQSTACK()
```

### Event 90

#### Metadata

| Field        | Value    |
|--------------|----------|
| Entrypoint   | 0x0082   |
| Data Size    | 41 bytes |
| Instructions | 5        |

```
      00 01 02 03 04 05 06 07  08 09 0A 0B 0C 0D 0E 0F
      -- -- -- -- -- -- -- --  -- -- -- -- -- -- -- --
0080:       9F 08 80 F8 FF FF  7F F8 FF FF 7F 6D 61 69    ...........mai
0090: 6E 01 80 1C 02 80 45 03  80 F0 FF FF 7F F0 FF FF  n.....E.........
00A0: 7F 66 64 6F 31 01 80 1C  04 80 00                 .fdo1......     
```

#### Opcodes

```
  0: 0x0082 [0x9F] LOAD_SCHEDULED_TASK_ALT: Load scheduler "main" with entities [EventEntity, EventEntity], work=[201*, 0*]
  1: 0x0093 [0x1C] WAIT(140* ticks)
  2: 0x0096 [0x45] LOAD_SCHEDULED_TASK: Load scheduler "fdo1" with entities [LocalPlayer, LocalPlayer], work=[200*, 0*]
  3: 0x00A7 [0x1C] WAIT(60* ticks)
  4: 0x00AA [0x00] END_REQSTACK()
```

### Event 100

#### Metadata

| Field        | Value    |
|--------------|----------|
| Entrypoint   | 0x00AB   |
| Data Size    | 10 bytes |
| Instructions | 2        |

```
      00 01 02 03 04 05 06 07  08 09 0A 0B 0C 0D 0E 0F
      -- -- -- -- -- -- -- --  -- -- -- -- -- -- -- --
00A0:                                   37 09 80 0A 80             7....
00B0: 0B 80 0C 80 00                                    .....           
```

#### Opcodes

```
  0: 0x00AB [0x37] UPDATE_EVENT_POSITION_AND_DIR: x=660.001*, z=329.377*, y=-27.000*, direction=270.0°*
  1: 0x00B4 [0x00] END_REQSTACK()
```

### Event 101

#### Metadata

| Field        | Value    |
|--------------|----------|
| Entrypoint   | 0x00B5   |
| Data Size    | 14 bytes |
| Instructions | 4        |

```
      00 01 02 03 04 05 06 07  08 09 0A 0B 0C 0D 0E 0F
      -- -- -- -- -- -- -- --  -- -- -- -- -- -- -- --
00B0:                32 0D 80  1F 00 0E 80 0F 80 10 80       2..........
00C0: 1F 01 00                                          ...             
```

#### Opcodes

```
  0: 0x00B5 [0x32] ExtData[1]->MainSpeed = 13* * 0.1
  1: 0x00B8 [0x1F] MOVE_ENTITY: EventEntity moves to X=659.990*, Z=336.067*, Y=-26.770*
  2: 0x00C0 [0x1F] MOVE_ENTITY: Update entity position (mode=1)
  3: 0x00C2 [0x00] END_REQSTACK()
```

### Event 102

#### Metadata

| Field        | Value    |
|--------------|----------|
| Entrypoint   | 0x00C3   |
| Data Size    | 13 bytes |
| Instructions | 3        |

```
      00 01 02 03 04 05 06 07  08 09 0A 0B 0C 0D 0E 0F
      -- -- -- -- -- -- -- --  -- -- -- -- -- -- -- --
00C0:          47 00 0E 80 0F  80 10 80 0C 80 47 01 00     G.........G..
```

#### Opcodes

```
  0: 0x00C3 [0x47] UPDATE_PLAYER_POS(659.990*, 336.067*, -26.770*, yaw=270.0°*)
  1: 0x00CD [0x47] WAIT_PLAYER_POS_UPDATE
  2: 0x00CF [0x00] END_REQSTACK()
```

### Event 103

#### Metadata

| Field        | Value    |
|--------------|----------|
| Entrypoint   | 0x00D0   |
| Data Size    | 10 bytes |
| Instructions | 2        |

```
      00 01 02 03 04 05 06 07  08 09 0A 0B 0C 0D 0E 0F
      -- -- -- -- -- -- -- --  -- -- -- -- -- -- -- --
00D0: 37 11 80 12 80 13 80 14  80 00                    7.........      
```

#### Opcodes

```
  0: 0x00D0 [0x37] UPDATE_EVENT_POSITION_AND_DIR: x=659.989*, z=334.714*, y=-26.999*, direction=90.0°*
  1: 0x00D9 [0x00] END_REQSTACK()
```

### Event 104

#### Metadata

| Field        | Value    |
|--------------|----------|
| Entrypoint   | 0x00DA   |
| Data Size    | 14 bytes |
| Instructions | 4        |

```
      00 01 02 03 04 05 06 07  08 09 0A 0B 0C 0D 0E 0F
      -- -- -- -- -- -- -- --  -- -- -- -- -- -- -- --
00D0:                                32 0D 80 1F 00 09            2.....
00E0: 80 0A 80 0B 80 1F 01 00                           ........        
```

#### Opcodes

```
  0: 0x00DA [0x32] ExtData[1]->MainSpeed = 13* * 0.1
  1: 0x00DD [0x1F] MOVE_ENTITY: EventEntity moves to X=660.001*, Z=329.377*, Y=-27.000*
  2: 0x00E5 [0x1F] MOVE_ENTITY: Update entity position (mode=1)
  3: 0x00E7 [0x00] END_REQSTACK()
```

### Event 105

#### Metadata

| Field        | Value    |
|--------------|----------|
| Entrypoint   | 0x00E8   |
| Data Size    | 13 bytes |
| Instructions | 3        |

```
      00 01 02 03 04 05 06 07  08 09 0A 0B 0C 0D 0E 0F
      -- -- -- -- -- -- -- --  -- -- -- -- -- -- -- --
00E0:                          47 00 09 80 0A 80 0B 80          G.......
00F0: 14 80 47 01 00                                    ..G..           
```

#### Opcodes

```
  0: 0x00E8 [0x47] UPDATE_PLAYER_POS(660.001*, 329.377*, -27.000*, yaw=90.0°*)
  1: 0x00F2 [0x47] WAIT_PLAYER_POS_UPDATE
  2: 0x00F4 [0x00] END_REQSTACK()
```

### Event 65535.3

#### Metadata

| Field        | Value    |
|--------------|----------|
| Entrypoint   | 0x00F5   |
| Data Size    | 10 bytes |
| Instructions | 2        |

```
      00 01 02 03 04 05 06 07  08 09 0A 0B 0C 0D 0E 0F
      -- -- -- -- -- -- -- --  -- -- -- -- -- -- -- --
00F0:                37 15 80  16 80 17 80 01 80 00          7......... 
```

#### Opcodes

```
  0: 0x00F5 [0x37] UPDATE_EVENT_POSITION_AND_DIR: x=689.014*, z=349.981*, y=-23.949*, direction=0.0°*
  1: 0x00FE [0x00] END_REQSTACK()
```

### Event 165

#### Metadata

| Field        | Value    |
|--------------|----------|
| Entrypoint   | 0x00FF   |
| Data Size    | 10 bytes |
| Instructions | 2        |

```
      00 01 02 03 04 05 06 07  08 09 0A 0B 0C 0D 0E 0F
      -- -- -- -- -- -- -- --  -- -- -- -- -- -- -- --
00F0:                                               37                 7
0100: 18 80 19 80 1A 80 0C 80  00                       .........       
```

#### Opcodes

```
  0: 0x00FF [0x37] UPDATE_EVENT_POSITION_AND_DIR: x=-20.050*, z=277.752*, y=-6.412*, direction=270.0°*
  1: 0x0108 [0x00] END_REQSTACK()
```

### Event 166

#### Metadata

| Field        | Value    |
|--------------|----------|
| Entrypoint   | 0x0109   |
| Data Size    | 14 bytes |
| Instructions | 4        |

```
      00 01 02 03 04 05 06 07  08 09 0A 0B 0C 0D 0E 0F
      -- -- -- -- -- -- -- --  -- -- -- -- -- -- -- --
0100:                             32 0D 80 1F 00 1B 80           2......
0110: 1C 80 1D 80 1F 01 00                              .......         
```

#### Opcodes

```
  0: 0x0109 [0x32] ExtData[1]->MainSpeed = 13* * 0.1
  1: 0x010C [0x1F] MOVE_ENTITY: EventEntity moves to X=-19.747*, Z=281.847*, Y=-5.983*
  2: 0x0114 [0x1F] MOVE_ENTITY: Update entity position (mode=1)
  3: 0x0116 [0x00] END_REQSTACK()
```

### Event 167

#### Metadata

| Field        | Value    |
|--------------|----------|
| Entrypoint   | 0x0117   |
| Data Size    | 10 bytes |
| Instructions | 2        |

```
      00 01 02 03 04 05 06 07  08 09 0A 0B 0C 0D 0E 0F
      -- -- -- -- -- -- -- --  -- -- -- -- -- -- -- --
0110:                      37  1B 80 1C 80 1D 80 14 80         7........
0120: 00                                                .               
```

#### Opcodes

```
  0: 0x0117 [0x37] UPDATE_EVENT_POSITION_AND_DIR: x=-19.747*, z=281.847*, y=-5.983*, direction=90.0°*
  1: 0x0120 [0x00] END_REQSTACK()
```

### Event 168

#### Metadata

| Field        | Value    |
|--------------|----------|
| Entrypoint   | 0x0121   |
| Data Size    | 14 bytes |
| Instructions | 4        |

```
      00 01 02 03 04 05 06 07  08 09 0A 0B 0C 0D 0E 0F
      -- -- -- -- -- -- -- --  -- -- -- -- -- -- -- --
0120:    32 0D 80 1F 00 18 80  19 80 1A 80 1F 01 00      2............. 
```

#### Opcodes

```
  0: 0x0121 [0x32] ExtData[1]->MainSpeed = 13* * 0.1
  1: 0x0124 [0x1F] MOVE_ENTITY: EventEntity moves to X=-20.050*, Z=277.752*, Y=-6.412*
  2: 0x012C [0x1F] MOVE_ENTITY: Update entity position (mode=1)
  3: 0x012E [0x00] END_REQSTACK()
```

### Event 169

#### Metadata

| Field        | Value    |
|--------------|----------|
| Entrypoint   | 0x012F   |
| Data Size    | 13 bytes |
| Instructions | 3        |

```
      00 01 02 03 04 05 06 07  08 09 0A 0B 0C 0D 0E 0F
      -- -- -- -- -- -- -- --  -- -- -- -- -- -- -- --
0120:                                               47                 G
0130: 00 18 80 19 80 1A 80 14  80 47 01 00              .........G..    
```

#### Opcodes

```
  0: 0x012F [0x47] UPDATE_PLAYER_POS(-20.050*, 277.752*, -6.412*, yaw=90.0°*)
  1: 0x0139 [0x47] WAIT_PLAYER_POS_UPDATE
  2: 0x013B [0x00] END_REQSTACK()
```

### Event 150

#### Metadata

| Field        | Value     |
|--------------|-----------|
| Entrypoint   | 0x013C    |
| Data Size    | 719 bytes |
| Instructions | 85        |

```
      00 01 02 03 04 05 06 07  08 09 0A 0B 0C 0D 0E 0F
      -- -- -- -- -- -- -- --  -- -- -- -- -- -- -- --
0130:                                      42 48 1E 80              BH..
0140: 23 45 03 80 F8 FF FF 7F  F8 FF FF 7F 66 64 6F 31  #E..........fdo1
0150: 01 80 55 03 80 F8 FF FF  7F F8 FF FF 7F 66 64 6F  ..U..........fdo
0160: 31 46 01 38 1F 80 4E 01  F0 FF FF 7F 03 00 00 01  1F.8..N.........
0170: 80 02 00 00 01 80 00 F3  03 45 20 80 F8 FF FF 7F  .........E .....
0180: F8 FF FF 7F 73 30 37 34  01 80 1C 04 80 45 03 80  ....s074.....E..
0190: F8 FF FF 7F F8 FF FF 7F  66 64 69 31 01 80 1C 04  ........fdi1....
01A0: 80 48 21 80 23 45 03 80  F8 FF FF 7F F8 FF FF 7F  .H!.#E..........
01B0: 66 64 6F 31 01 80 55 03  80 F8 FF FF 7F F8 FF FF  fdo1..U.........
01C0: 7F 66 64 6F 31 52 20 80  F8 FF FF 7F F8 FF FF 7F  .fdo1R .........
01D0: 73 30 37 34 45 20 80 F8  FF FF 7F F8 FF FF 7F 73  s074E .........s
01E0: 30 37 35 01 80 1C 04 80  45 03 80 F8 FF FF 7F F8  075.....E.......
01F0: FF FF 7F 66 64 69 31 01  80 1C 04 80 48 22 80 23  ...fdi1.....H".#
0200: 45 03 80 F8 FF FF 7F F8  FF FF 7F 66 64 6F 31 01  E..........fdo1.
0210: 80 55 03 80 F8 FF FF 7F  F8 FF FF 7F 66 64 6F 31  .U..........fdo1
0220: 52 20 80 F8 FF FF 7F F8  FF FF 7F 73 30 37 35 45  R .........s075E
0230: 20 80 F8 FF FF 7F F8 FF  FF 7F 73 30 37 36 01 80   .........s076..
0240: 1C 04 80 45 03 80 F8 FF  FF 7F F8 FF FF 7F 66 64  ...E..........fd
0250: 69 31 01 80 1C 04 80 48  23 80 23 24 24 80 01 80  i1.....H#.#$$...
0260: 01 80 25 02 00 10 01 80  00 6E 02 01 A3 03 02 00  ..%......n......
0270: 10 00 80 00 F1 02 45 03  80 F8 FF FF 7F F8 FF FF  ......E.........
0280: 7F 66 64 6F 31 01 80 55  03 80 F8 FF FF 7F F8 FF  .fdo1..U........
0290: FF 7F 66 64 6F 31 52 20  80 F8 FF FF 7F F8 FF FF  ..fdo1R ........
02A0: 7F 73 30 37 36 45 20 80  F8 FF FF 7F F8 FF FF 7F  .s076E .........
02B0: 73 30 37 34 01 80 1C 04  80 45 03 80 F8 FF FF 7F  s074.....E......
02C0: F8 FF FF 7F 66 64 69 31  01 80 1C 25 80 45 26 80  ....fdi1...%.E&.
02D0: F8 FF FF 7F F8 FF FF 7F  73 30 34 37 01 80 1C 25  ........s047...%
02E0: 80 48 27 80 03 00 00 00  80 03 01 10 00 80 01 A3  .H'.............
02F0: 03 02 00 10 05 80 00 74  03 45 03 80 F8 FF FF 7F  .......t.E......
0300: F8 FF FF 7F 66 64 6F 31  01 80 55 03 80 F8 FF FF  ....fdo1..U.....
0310: 7F F8 FF FF 7F 66 64 6F  31 52 20 80 F8 FF FF 7F  .....fdo1R .....
0320: F8 FF FF 7F 73 30 37 36  45 20 80 F8 FF FF 7F F8  ....s076E ......
0330: FF FF 7F 73 30 37 35 01  80 1C 04 80 45 03 80 F8  ...s075.....E...
0340: FF FF 7F F8 FF FF 7F 66  64 69 31 01 80 1C 25 80  .......fdi1...%.
0350: 45 26 80 F8 FF FF 7F F8  FF FF 7F 73 30 34 37 01  E&.........s047.
0360: 80 1C 25 80 48 28 80 03  00 00 00 80 03 01 10 05  ..%.H(..........
0370: 80 01 A3 03 02 00 10 29  80 00 A3 03 1C 25 80 45  .......).....%.E
0380: 26 80 F8 FF FF 7F F8 FF  FF 7F 73 30 34 37 01 80  &.........s047..
0390: 1C 25 80 48 2A 80 03 00  00 00 80 03 01 10 29 80  .%.H*.........).
03A0: 01 A3 03 45 03 80 F8 FF  FF 7F F8 FF FF 7F 66 64  ...E..........fd
03B0: 6F 31 01 80 55 03 80 F8  FF FF 7F F8 FF FF 7F 66  o1..U..........f
03C0: 64 6F 31 52 20 80 F8 FF  FF 7F F8 FF FF 7F 73 30  do1R .........s0
03D0: 37 34 52 20 80 F8 FF FF  7F F8 FF FF 7F 73 30 37  74R .........s07
03E0: 35 52 20 80 F8 FF FF 7F  F8 FF FF 7F 73 30 37 36  5R .........s076
03F0: 01 71 01 46 00 1C 04 80  45 03 80 F8 FF FF 7F F8  .q.F....E.......
0400: FF FF 7F 66 64 69 31 01  80 21 00                 ...fdi1..!.     
```

#### Opcodes

```
  0: 0x013C [0x42] SET_CLI_EVENT_CANCEL_DATA()
  1: 0x013D [0x48] [System] [7368*]:
    → "Choose a picture to take."
  2: 0x0140 [0x23] WAIT_FOR_DIALOG_INTERACTION
  3: 0x0141 [0x45] LOAD_SCHEDULED_TASK: Load scheduler "fdo1" with entities [EventEntity, EventEntity], work=[200*, 0*]
  4: 0x0152 [0x55] WAIT_LOAD_SCHEDULER: Wait for scheduler "fdo1" with entities [EventEntity, EventEntity], work=200*
  5: 0x0161 [0x46] CAMERA_CONTROL: Disable user control
  6: 0x0163 [0x38] SET_CLIENT_EVENT_MODE(mode=27*)
  7: 0x0166 [0x4E] SET_ENTITY_HIDE_FLAG: Hide LocalPlayer
  8: 0x016C [0x03] ExtData[1]->WorkLocal[0] = 0*
  9: 0x0171 [0x02] IF !(ExtData[1]->WorkLocal[0] == 0*) GOTO 0x03F3
 10: 0x0179 [0x45] LOAD_SCHEDULED_TASK: Load scheduler "s074" with entities [EventEntity, EventEntity], work=[253*, 0*]
 11: 0x018A [0x1C] WAIT(60* ticks)
 12: 0x018D [0x45] LOAD_SCHEDULED_TASK: Load scheduler "fdi1" with entities [EventEntity, EventEntity], work=[200*, 0*]
 13: 0x019E [0x1C] WAIT(60* ticks)
 14: 0x01A1 [0x48] [System] [7369*]:
    → "First scene."
 15: 0x01A4 [0x23] WAIT_FOR_DIALOG_INTERACTION
 16: 0x01A5 [0x45] LOAD_SCHEDULED_TASK: Load scheduler "fdo1" with entities [EventEntity, EventEntity], work=[200*, 0*]
 17: 0x01B6 [0x55] WAIT_LOAD_SCHEDULER: Wait for scheduler "fdo1" with entities [EventEntity, EventEntity], work=200*
 18: 0x01C5 [0x52] END_LOAD_SCHEDULER: End scheduler "s074" with entities [EventEntity, EventEntity], work=253*
 19: 0x01D4 [0x45] LOAD_SCHEDULED_TASK: Load scheduler "s075" with entities [EventEntity, EventEntity], work=[253*, 0*]
 20: 0x01E5 [0x1C] WAIT(60* ticks)
 21: 0x01E8 [0x45] LOAD_SCHEDULED_TASK: Load scheduler "fdi1" with entities [EventEntity, EventEntity], work=[200*, 0*]
 22: 0x01F9 [0x1C] WAIT(60* ticks)
 23: 0x01FC [0x48] [System] [7370*]:
    → "Second scene."
 24: 0x01FF [0x23] WAIT_FOR_DIALOG_INTERACTION
 25: 0x0200 [0x45] LOAD_SCHEDULED_TASK: Load scheduler "fdo1" with entities [EventEntity, EventEntity], work=[200*, 0*]
 26: 0x0211 [0x55] WAIT_LOAD_SCHEDULER: Wait for scheduler "fdo1" with entities [EventEntity, EventEntity], work=200*
 27: 0x0220 [0x52] END_LOAD_SCHEDULER: End scheduler "s075" with entities [EventEntity, EventEntity], work=253*
 28: 0x022F [0x45] LOAD_SCHEDULED_TASK: Load scheduler "s076" with entities [EventEntity, EventEntity], work=[253*, 0*]
 29: 0x0240 [0x1C] WAIT(60* ticks)
 30: 0x0243 [0x45] LOAD_SCHEDULED_TASK: Load scheduler "fdi1" with entities [EventEntity, EventEntity], work=[200*, 0*]
 31: 0x0254 [0x1C] WAIT(60* ticks)
 32: 0x0257 [0x48] [System] [7371*]:
    → "Third scene."
 33: 0x025A [0x23] WAIT_FOR_DIALOG_INTERACTION
 34: 0x025B [0x24] CREATE_DIALOG(message_id=7372*, default_option=0*, option_flags=0*)
    → "Which picture will you take? [Show me again./First scene./Second scene./Third scene.]"
 35: 0x0262 [0x25] WAIT_DIALOG_SELECT()
 36: 0x0263 [0x02] IF !(Work_Zone[0] == 0*) GOTO 0x026E
 37: 0x026B [0x01] GOTO 0x03A3
 38: 0x026E [0x02] IF !(Work_Zone[0] == 1*) GOTO 0x02F1
 39: 0x0276 [0x45] LOAD_SCHEDULED_TASK: Load scheduler "fdo1" with entities [EventEntity, EventEntity], work=[200*, 0*]
 40: 0x0287 [0x55] WAIT_LOAD_SCHEDULER: Wait for scheduler "fdo1" with entities [EventEntity, EventEntity], work=200*
 41: 0x0296 [0x52] END_LOAD_SCHEDULER: End scheduler "s076" with entities [EventEntity, EventEntity], work=253*
 42: 0x02A5 [0x45] LOAD_SCHEDULED_TASK: Load scheduler "s074" with entities [EventEntity, EventEntity], work=[253*, 0*]
 43: 0x02B6 [0x1C] WAIT(60* ticks)
 44: 0x02B9 [0x45] LOAD_SCHEDULED_TASK: Load scheduler "fdi1" with entities [EventEntity, EventEntity], work=[200*, 0*]
 45: 0x02CA [0x1C] WAIT(120* ticks)
 46: 0x02CD [0x45] LOAD_SCHEDULED_TASK: Load scheduler "s047" with entities [EventEntity, EventEntity], work=[254*, 0*]
 47: 0x02DE [0x1C] WAIT(120* ticks)
 48: 0x02E1 [0x48] [System] [7373*]:
    → "<Player> records the first scene."
 49: 0x02E4 [0x03] ExtData[1]->WorkLocal[0] = 1*
 50: 0x02E9 [0x03] Work_Zone[1] = 1*
 51: 0x02EE [0x01] GOTO 0x03A3
 52: 0x02F1 [0x02] IF !(Work_Zone[0] == 2*) GOTO 0x0374
 53: 0x02F9 [0x45] LOAD_SCHEDULED_TASK: Load scheduler "fdo1" with entities [EventEntity, EventEntity], work=[200*, 0*]
 54: 0x030A [0x55] WAIT_LOAD_SCHEDULER: Wait for scheduler "fdo1" with entities [EventEntity, EventEntity], work=200*
 55: 0x0319 [0x52] END_LOAD_SCHEDULER: End scheduler "s076" with entities [EventEntity, EventEntity], work=253*
 56: 0x0328 [0x45] LOAD_SCHEDULED_TASK: Load scheduler "s075" with entities [EventEntity, EventEntity], work=[253*, 0*]
 57: 0x0339 [0x1C] WAIT(60* ticks)
 58: 0x033C [0x45] LOAD_SCHEDULED_TASK: Load scheduler "fdi1" with entities [EventEntity, EventEntity], work=[200*, 0*]
 59: 0x034D [0x1C] WAIT(120* ticks)
 60: 0x0350 [0x45] LOAD_SCHEDULED_TASK: Load scheduler "s047" with entities [EventEntity, EventEntity], work=[254*, 0*]
 61: 0x0361 [0x1C] WAIT(120* ticks)
 62: 0x0364 [0x48] [System] [7374*]:
    → "<Player> records the second scene."
 63: 0x0367 [0x03] ExtData[1]->WorkLocal[0] = 1*
 64: 0x036C [0x03] Work_Zone[1] = 2*
 65: 0x0371 [0x01] GOTO 0x03A3
 66: 0x0374 [0x02] IF !(Work_Zone[0] == 3*) GOTO 0x03A3
 67: 0x037C [0x1C] WAIT(120* ticks)
 68: 0x037F [0x45] LOAD_SCHEDULED_TASK: Load scheduler "s047" with entities [EventEntity, EventEntity], work=[254*, 0*]
 69: 0x0390 [0x1C] WAIT(120* ticks)
 70: 0x0393 [0x48] [System] [7375*]:
    → "<Player> records the third scene."
 71: 0x0396 [0x03] ExtData[1]->WorkLocal[0] = 1*
 72: 0x039B [0x03] Work_Zone[1] = 3*
 73: 0x03A0 [0x01] GOTO 0x03A3

SUBROUTINE_03A3:
 74: 0x03A3 [0x45] LOAD_SCHEDULED_TASK: Load scheduler "fdo1" with entities [EventEntity, EventEntity], work=[200*, 0*]
 75: 0x03B4 [0x55] WAIT_LOAD_SCHEDULER: Wait for scheduler "fdo1" with entities [EventEntity, EventEntity], work=200*
 76: 0x03C3 [0x52] END_LOAD_SCHEDULER: End scheduler "s074" with entities [EventEntity, EventEntity], work=253*
 77: 0x03D2 [0x52] END_LOAD_SCHEDULER: End scheduler "s075" with entities [EventEntity, EventEntity], work=253*
 78: 0x03E1 [0x52] END_LOAD_SCHEDULER: End scheduler "s076" with entities [EventEntity, EventEntity], work=253*
 79: 0x03F0 [0x01] GOTO 0x0171
 80: 0x03F3 [0x46] CAMERA_CONTROL: Restore default settings
 81: 0x03F5 [0x1C] WAIT(60* ticks)
 82: 0x03F8 [0x45] LOAD_SCHEDULED_TASK: Load scheduler "fdi1" with entities [EventEntity, EventEntity], work=[200*, 0*]
 83: 0x0409 [0x21] END_EVENT
 84: 0x040A [0x00] END_REQSTACK()
```

### Event 151

#### Metadata

| Field        | Value   |
|--------------|---------|
| Entrypoint   | 0x040B  |
| Data Size    | 6 bytes |
| Instructions | 4       |

```
      00 01 02 03 04 05 06 07  08 09 0A 0B 0C 0D 0E 0F
      -- -- -- -- -- -- -- --  -- -- -- -- -- -- -- --
0400:                                   48 2B 80 23 21             H+.#!
0410: 00                                                .               
```

#### Opcodes

```
  0: 0x040B [0x48] [System] [7376*]:
    → "<Player> takes in the surrounding scenery. ...The view is breathtaking."
  1: 0x040E [0x23] WAIT_FOR_DIALOG_INTERACTION
  2: 0x040F [0x21] END_EVENT
  3: 0x0410 [0x00] END_REQSTACK()
```

### Event 152

#### Metadata

| Field        | Value   |
|--------------|---------|
| Entrypoint   | 0x0411  |
| Data Size    | 6 bytes |
| Instructions | 4       |

```
      00 01 02 03 04 05 06 07  08 09 0A 0B 0C 0D 0E 0F
      -- -- -- -- -- -- -- --  -- -- -- -- -- -- -- --
0410:    48 2C 80 23 21 00                               H,.#!.         
```

#### Opcodes

```
  0: 0x0411 [0x48] [System] [7377*]:
    → "<Player> thinks back on Balakaf's words. ...Perhaps this is not the best time to record a picture."
  1: 0x0414 [0x23] WAIT_FOR_DIALOG_INTERACTION
  2: 0x0415 [0x21] END_EVENT
  3: 0x0416 [0x00] END_REQSTACK()
```

### Event 65535.4

#### Metadata

| Field        | Value    |
|--------------|----------|
| Entrypoint   | 0x0417   |
| Data Size    | 10 bytes |
| Instructions | 2        |

```
      00 01 02 03 04 05 06 07  08 09 0A 0B 0C 0D 0E 0F
      -- -- -- -- -- -- -- --  -- -- -- -- -- -- -- --
0410:                      37  2D 80 2E 80 2F 80 30 80         7-.../.0.
0420: 00                                                .               
```

#### Opcodes

```
  0: 0x0417 [0x37] UPDATE_EVENT_POSITION_AND_DIR: x=675.572*, z=366.748*, y=-23.992*, direction=213.3°*
  1: 0x0420 [0x00] END_REQSTACK()
```

### Event 65535.5

#### Metadata

| Field        | Value    |
|--------------|----------|
| Entrypoint   | 0x0421   |
| Data Size    | 12 bytes |
| Instructions | 3        |

```
      00 01 02 03 04 05 06 07  08 09 0A 0B 0C 0D 0E 0F
      -- -- -- -- -- -- -- --  -- -- -- -- -- -- -- --
0420:    33 01 37 31 80 32 80  33 80 34 80 00            3.71.2.3.4..   
```

#### Opcodes

```
  0: 0x0421 [0x33] EventEntity->Render.Flags0 |= 0x200000 // Bit 21 (flag=0x01)
  1: 0x0423 [0x37] UPDATE_EVENT_POSITION_AND_DIR: x=838.190*, z=235.065*, y=-14.475*, direction=327.0°*
  2: 0x042C [0x00] END_REQSTACK()
```

### Event 65535.6

#### Metadata

| Field        | Value    |
|--------------|----------|
| Entrypoint   | 0x042D   |
| Data Size    | 10 bytes |
| Instructions | 2        |

```
      00 01 02 03 04 05 06 07  08 09 0A 0B 0C 0D 0E 0F
      -- -- -- -- -- -- -- --  -- -- -- -- -- -- -- --
0420:                                         37 35 80               75.
0430: 36 80 37 80 38 80 00                              6.7.8..         
```

#### Opcodes

```
  0: 0x042D [0x37] UPDATE_EVENT_POSITION_AND_DIR: x=854.472*, z=246.994*, y=-15.234*, direction=327.1°*
  1: 0x0436 [0x00] END_REQSTACK()
```

### Event 65535.7

#### Metadata

| Field        | Value    |
|--------------|----------|
| Entrypoint   | 0x0437   |
| Data Size    | 10 bytes |
| Instructions | 2        |

```
      00 01 02 03 04 05 06 07  08 09 0A 0B 0C 0D 0E 0F
      -- -- -- -- -- -- -- --  -- -- -- -- -- -- -- --
0430:                      37  39 80 3A 80 3B 80 3C 80         79.:.;.<.
0440: 00                                                .               
```

#### Opcodes

```
  0: 0x0437 [0x37] UPDATE_EVENT_POSITION_AND_DIR: x=854.024*, z=245.879*, y=-14.489*, direction=349.3°*
  1: 0x0440 [0x00] END_REQSTACK()
```

### Event 65535.8

#### Metadata

| Field        | Value    |
|--------------|----------|
| Entrypoint   | 0x0441   |
| Data Size    | 37 bytes |
| Instructions | 5        |

```
      00 01 02 03 04 05 06 07  08 09 0A 0B 0C 0D 0E 0F
      -- -- -- -- -- -- -- --  -- -- -- -- -- -- -- --
0440:    03 01 00 07 7F 1A 3A  05 66 02 00 F8 FF FF 7F   ......:.f......
0450: F8 FF FF 7F 73 68 61 30  53 F8 FF FF 7F F8 FF FF  ....sha0S.......
0460: 7F 73 68 61 30 00                                 .sha0.          
```

#### Opcodes

```
  0: 0x0441 [0x03] ExtData[1]->WorkLocal[1] = Entity->Race
  1: 0x0446 [0x1A] CALL_SUBROUTINE(address=0x053A)
  2: 0x0449 [0x66] LOAD_EXT_SCHEDULER_MAIN: Load scheduler "sha0" with entities [EventEntity, EventEntity], work=ExtData[1]->WorkLocal[2]
  3: 0x0458 [0x53] WAIT_SCHEDULER_TASK: Wait for scheduler "sha0" with entities [EventEntity, EventEntity]
  4: 0x0465 [0x00] END_REQSTACK()
```

### Event 65535.9

#### Metadata

| Field        | Value    |
|--------------|----------|
| Entrypoint   | 0x0466   |
| Data Size    | 37 bytes |
| Instructions | 5        |

```
      00 01 02 03 04 05 06 07  08 09 0A 0B 0C 0D 0E 0F
      -- -- -- -- -- -- -- --  -- -- -- -- -- -- -- --
0460:                   03 01  00 07 7F 1A 3A 05 66 02        ......:.f.
0470: 00 F8 FF FF 7F F8 FF FF  7F 73 68 61 31 53 F8 FF  .........sha1S..
0480: FF 7F F8 FF FF 7F 73 68  61 31 00                 ......sha1.     
```

#### Opcodes

```
  0: 0x0466 [0x03] ExtData[1]->WorkLocal[1] = Entity->Race
  1: 0x046B [0x1A] CALL_SUBROUTINE(address=0x053A)
  2: 0x046E [0x66] LOAD_EXT_SCHEDULER_MAIN: Load scheduler "sha1" with entities [EventEntity, EventEntity], work=ExtData[1]->WorkLocal[2]
  3: 0x047D [0x53] WAIT_SCHEDULER_TASK: Wait for scheduler "sha1" with entities [EventEntity, EventEntity]
  4: 0x048A [0x00] END_REQSTACK()
```

### Event 65535.10

#### Metadata

| Field        | Value    |
|--------------|----------|
| Entrypoint   | 0x048B   |
| Data Size    | 24 bytes |
| Instructions | 4        |

```
      00 01 02 03 04 05 06 07  08 09 0A 0B 0C 0D 0E 0F
      -- -- -- -- -- -- -- --  -- -- -- -- -- -- -- --
0480:                                   03 01 00 07 7F             .....
0490: 1A 3A 05 66 02 00 F8 FF  FF 7F F8 FF FF 7F 73 69  .:.f..........si
04A0: 74 30 00                                          t0.             
```

#### Opcodes

```
  0: 0x048B [0x03] ExtData[1]->WorkLocal[1] = Entity->Race
  1: 0x0490 [0x1A] CALL_SUBROUTINE(address=0x053A)
  2: 0x0493 [0x66] LOAD_EXT_SCHEDULER_MAIN: Load scheduler "sit0" with entities [EventEntity, EventEntity], work=ExtData[1]->WorkLocal[2]
  3: 0x04A2 [0x00] END_REQSTACK()
```

### Event 65535.11

#### Metadata

| Field        | Value    |
|--------------|----------|
| Entrypoint   | 0x04A3   |
| Data Size    | 24 bytes |
| Instructions | 4        |

```
      00 01 02 03 04 05 06 07  08 09 0A 0B 0C 0D 0E 0F
      -- -- -- -- -- -- -- --  -- -- -- -- -- -- -- --
04A0:          03 01 00 07 7F  1A 3A 05 66 02 00 F8 FF     ......:.f....
04B0: FF 7F F8 FF FF 7F 73 69  74 30 00                 ......sit0.     
```

#### Opcodes

```
  0: 0x04A3 [0x03] ExtData[1]->WorkLocal[1] = Entity->Race
  1: 0x04A8 [0x1A] CALL_SUBROUTINE(address=0x053A)
  2: 0x04AB [0x66] LOAD_EXT_SCHEDULER_MAIN: Load scheduler "sit0" with entities [EventEntity, EventEntity], work=ExtData[1]->WorkLocal[2]
  3: 0x04BA [0x00] END_REQSTACK()
```

### Event 65535.12

#### Metadata

| Field        | Value    |
|--------------|----------|
| Entrypoint   | 0x04BB   |
| Data Size    | 27 bytes |
| Instructions | 5        |

```
      00 01 02 03 04 05 06 07  08 09 0A 0B 0C 0D 0E 0F
      -- -- -- -- -- -- -- --  -- -- -- -- -- -- -- --
04B0:                                   03 01 00 07 7F             .....
04C0: 1A 5F 05 0B 02 00 66 02  00 F8 FF FF 7F F8 FF FF  ._....f.........
04D0: 7F 70 61 73 30 00                                 .pas0.          
```

#### Opcodes

```
  0: 0x04BB [0x03] ExtData[1]->WorkLocal[1] = Entity->Race
  1: 0x04C0 [0x1A] CALL_SUBROUTINE(address=0x055F)
  2: 0x04C3 [0x0B] ExtData[1]->WorkLocal[2]++
  3: 0x04C6 [0x66] LOAD_EXT_SCHEDULER_MAIN: Load scheduler "pas0" with entities [EventEntity, EventEntity], work=ExtData[1]->WorkLocal[2]
  4: 0x04D5 [0x00] END_REQSTACK()
```

### Event 65535.13

#### Metadata

| Field        | Value    |
|--------------|----------|
| Entrypoint   | 0x04D6   |
| Data Size    | 24 bytes |
| Instructions | 4        |

```
      00 01 02 03 04 05 06 07  08 09 0A 0B 0C 0D 0E 0F
      -- -- -- -- -- -- -- --  -- -- -- -- -- -- -- --
04D0:                   03 01  00 07 7F 1A 3A 05 66 02        ......:.f.
04E0: 00 F8 FF FF 7F F8 FF FF  7F 74 6C 6B 30 00        .........tlk0.  
```

#### Opcodes

```
  0: 0x04D6 [0x03] ExtData[1]->WorkLocal[1] = Entity->Race
  1: 0x04DB [0x1A] CALL_SUBROUTINE(address=0x053A)
  2: 0x04DE [0x66] LOAD_EXT_SCHEDULER_MAIN: Load scheduler "tlk0" with entities [EventEntity, EventEntity], work=ExtData[1]->WorkLocal[2]
  3: 0x04ED [0x00] END_REQSTACK()
```

### Event 65535.14

#### Metadata

| Field        | Value    |
|--------------|----------|
| Entrypoint   | 0x04EE   |
| Data Size    | 24 bytes |
| Instructions | 4        |

```
      00 01 02 03 04 05 06 07  08 09 0A 0B 0C 0D 0E 0F
      -- -- -- -- -- -- -- --  -- -- -- -- -- -- -- --
04E0:                                            03 01                ..
04F0: 00 07 7F 1A 3A 05 66 02  00 F8 FF FF 7F F8 FF FF  ....:.f.........
0500: 7F 74 6C 6B 31 00                                 .tlk1.          
```

#### Opcodes

```
  0: 0x04EE [0x03] ExtData[1]->WorkLocal[1] = Entity->Race
  1: 0x04F3 [0x1A] CALL_SUBROUTINE(address=0x053A)
  2: 0x04F6 [0x66] LOAD_EXT_SCHEDULER_MAIN: Load scheduler "tlk1" with entities [EventEntity, EventEntity], work=ExtData[1]->WorkLocal[2]
  3: 0x0505 [0x00] END_REQSTACK()
```

### Event 65535.15

#### Metadata

| Field        | Value    |
|--------------|----------|
| Entrypoint   | 0x0506   |
| Data Size    | 42 bytes |
| Instructions | 6        |

```
      00 01 02 03 04 05 06 07  08 09 0A 0B 0C 0D 0E 0F
      -- -- -- -- -- -- -- --  -- -- -- -- -- -- -- --
0500:                   03 01  00 07 7F 1A 5F 05 07 02        ......_...
0510: 00 00 80 66 02 00 F8 FF  FF 7F F8 FF FF 7F 70 61  ...f..........pa
0520: 73 30 53 F8 FF FF 7F F8  FF FF 7F 70 61 73 30 00  s0S........pas0.
```

#### Opcodes

```
  0: 0x0506 [0x03] ExtData[1]->WorkLocal[1] = Entity->Race
  1: 0x050B [0x1A] CALL_SUBROUTINE(address=0x055F)
  2: 0x050E [0x07] ExtData[1]->WorkLocal[2] += 1*
  3: 0x0513 [0x66] LOAD_EXT_SCHEDULER_MAIN: Load scheduler "pas0" with entities [EventEntity, EventEntity], work=ExtData[1]->WorkLocal[2]
  4: 0x0522 [0x53] WAIT_SCHEDULER_TASK: Wait for scheduler "pas0" with entities [EventEntity, EventEntity]
  5: 0x052F [0x00] END_REQSTACK()
```

### Event 20

#### Metadata

| Field        | Value     |
|--------------|-----------|
| Entrypoint   | 0x0530    |
| Data Size    | 158 bytes |
| Instructions | 4         |

```
      00 01 02 03 04 05 06 07  08 09 0A 0B 0C 0D 0E 0F
      -- -- -- -- -- -- -- --  -- -- -- -- -- -- -- --
0530: 42 29 01 F0 FF FF 7F 02  21 00 03 02 00 01 00 02  B)......!.......
0540: 02 00 3D 80 05 4F 05 08  02 00 00 80 01 54 05 08  ..=..O.......T..
0550: 02 00 05 80 14 02 00 3E  80 07 02 00 3F 80 1B 03  .......>....?...
0560: 02 00 01 00 02 02 00 3D  80 05 74 05 08 02 00 00  .......=..t.....
0570: 80 01 79 05 08 02 00 05  80 14 02 00 3E 80 07 02  ..y.........>...
0580: 00 40 80 1B 03 02 00 01  00 02 02 00 3D 80 05 99  .@..........=...
0590: 05 08 02 00 00 80 01 9E  05 08 02 00 05 80 14 02  ................
05A0: 00 3E 80 07 02 00 02 80  1B 03 02 00 01 00 02 02  .>..............
05B0: 00 3D 80 05 BE 05 08 02  00 00 80 01 C3 05 08 02  .=..............
05C0: 00 05 80 14 02 00 3E 80  07 02 00 41 80 1B        ......>....A..  
```

#### Opcodes

```
  0: 0x0530 [0x42] SET_CLI_EVENT_CANCEL_DATA()
  1: 0x0531 [0x29] REQ_SET_WAIT(priority=0x01, entity_id=LocalPlayer, tag_num=0x02)
  2: 0x0538 [0x21] END_EVENT
  3: 0x0539 [0x00] END_REQSTACK()
```

#### Data or dead code:

```
# Dead code (unreachable instructions):
     0x053A [0x03] ExtData[1]->WorkLocal[2] = ExtData[1]->WorkLocal[1]
     0x053F [0x02] IF !(ExtData[1]->WorkLocal[2] > 5*) GOTO 0x054F
     0x0547 [0x08] ExtData[1]->WorkLocal[2] -= 1*
     0x054C [0x01] GOTO 0x0554
     0x054F [0x08] ExtData[1]->WorkLocal[2] -= 2*
     0x0554 [0x14] ExtData[1]->WorkLocal[2] *= 10*
     0x0559 [0x07] ExtData[1]->WorkLocal[2] += 9*
     0x055E [0x1B] RETURN
     0x055F [0x03] ExtData[1]->WorkLocal[2] = ExtData[1]->WorkLocal[1]
     0x0564 [0x02] IF !(ExtData[1]->WorkLocal[2] > 5*) GOTO 0x0574
     0x056C [0x08] ExtData[1]->WorkLocal[2] -= 1*
     0x0571 [0x01] GOTO 0x0579
     0x0574 [0x08] ExtData[1]->WorkLocal[2] -= 2*
     0x0579 [0x14] ExtData[1]->WorkLocal[2] *= 10*
     0x057E [0x07] ExtData[1]->WorkLocal[2] += 70*
     0x0583 [0x1B] RETURN
     0x0584 [0x03] ExtData[1]->WorkLocal[2] = ExtData[1]->WorkLocal[1]
     0x0589 [0x02] IF !(ExtData[1]->WorkLocal[2] > 5*) GOTO 0x0599
     0x0591 [0x08] ExtData[1]->WorkLocal[2] -= 1*
     0x0596 [0x01] GOTO 0x059E
     0x0599 [0x08] ExtData[1]->WorkLocal[2] -= 2*
     0x059E [0x14] ExtData[1]->WorkLocal[2] *= 10*
     0x05A3 [0x07] ExtData[1]->WorkLocal[2] += 140*
     0x05A8 [0x1B] RETURN
     0x05A9 [0x03] ExtData[1]->WorkLocal[2] = ExtData[1]->WorkLocal[1]
     0x05AE [0x02] IF !(ExtData[1]->WorkLocal[2] > 5*) GOTO 0x05BE
     0x05B6 [0x08] ExtData[1]->WorkLocal[2] -= 1*
     0x05BB [0x01] GOTO 0x05C3
     0x05BE [0x08] ExtData[1]->WorkLocal[2] -= 2*
     0x05C3 [0x14] ExtData[1]->WorkLocal[2] *= 10*
     0x05C8 [0x07] ExtData[1]->WorkLocal[2] += 210*
     0x05CD [0x1B] RETURN
```

### Event 65535.16

#### Metadata

| Field        | Value   |
|--------------|---------|
| Entrypoint   | 0x05CE  |
| Data Size    | 6 bytes |
| Instructions | 2       |

```
      00 01 02 03 04 05 06 07  08 09 0A 0B 0C 0D 0E 0F
      -- -- -- -- -- -- -- --  -- -- -- -- -- -- -- --
05C0:                                            03 02                ..
05D0: 10 07 7F 00                                       ....            
```

#### Opcodes

```
  0: 0x05CE [0x03] Work_Zone[2] = Entity->Race
  1: 0x05D3 [0x00] END_REQSTACK()
```

### Event 65535.17

#### Metadata

| Field        | Value   |
|--------------|---------|
| Entrypoint   | 0x05D4  |
| Data Size    | 6 bytes |
| Instructions | 2       |

```
      00 01 02 03 04 05 06 07  08 09 0A 0B 0C 0D 0E 0F
      -- -- -- -- -- -- -- --  -- -- -- -- -- -- -- --
05D0:             03 02 10 0B  7F 00                        ......      
```

#### Opcodes

```
  0: 0x05D4 [0x03] Work_Zone[2] = (Entity->Render.Flags01 >> 25) & 1
  1: 0x05D9 [0x00] END_REQSTACK()
```

### Event 65535.18

#### Metadata

| Field        | Value   |
|--------------|---------|
| Entrypoint   | 0x05DA  |
| Data Size    | 7 bytes |
| Instructions | 3       |

```
      00 01 02 03 04 05 06 07  08 09 0A 0B 0C 0D 0E 0F
      -- -- -- -- -- -- -- --  -- -- -- -- -- -- -- --
05D0:                                AB 03 AC 01 00 80            ......
05E0: 00                                                .               
```

#### Opcodes

```
  0: 0x05DA [0xAB] EventEntity->Render.Flags0 ^= 0x20000 // Toggle bit 17
  1: 0x05DC [0xAC] EventEntity->StatusEvent = 1*
  2: 0x05E0 [0x00] END_REQSTACK()
```

### Event 65535.19

#### Metadata

| Field        | Value   |
|--------------|---------|
| Entrypoint   | 0x05E1  |
| Data Size    | 7 bytes |
| Instructions | 3       |

```
      00 01 02 03 04 05 06 07  08 09 0A 0B 0C 0D 0E 0F
      -- -- -- -- -- -- -- --  -- -- -- -- -- -- -- --
05E0:    AC 01 01 80 AB 04 00                            .......        
```

#### Opcodes

```
  0: 0x05E1 [0xAC] EventEntity->StatusEvent = 0*
  1: 0x05E5 [0xAB] EventEntity->Render.Flags0 |= 0x40000 // Set bit 18
  2: 0x05E7 [0x00] END_REQSTACK()
```

### Event 65535.20

#### Metadata

| Field        | Value    |
|--------------|----------|
| Entrypoint   | 0x05E8   |
| Data Size    | 20 bytes |
| Instructions | 6        |

```
      00 01 02 03 04 05 06 07  08 09 0A 0B 0C 0D 0E 0F
      -- -- -- -- -- -- -- --  -- -- -- -- -- -- -- --
05E0:                          32 42 80 1F 00 43 80 44          2B...C.D
05F0: 80 45 80 1F 01 6F 1E FD  D1 03 01 00              .E...o......    
```

#### Opcodes

```
  0: 0x05E8 [0x32] ExtData[1]->MainSpeed = 40* * 0.1
  1: 0x05EB [0x1F] MOVE_ENTITY: EventEntity moves to X=848.098*, Z=241.918*, Y=-14.018*
  2: 0x05F3 [0x1F] MOVE_ENTITY: Update entity position (mode=1)
  3: 0x05F5 [0x6F] WAIT_FRAME_DELAY: Yield until WaitTime reaches zero
  4: 0x05F6 [0x1E] EventEntity looks at Malzaab (ID: 17027581/0x0103D1FD) and starts talking
  5: 0x05FB [0x00] END_REQSTACK()
```

### Event 65535.21

#### Metadata

| Field        | Value    |
|--------------|----------|
| Entrypoint   | 0x05FC   |
| Data Size    | 20 bytes |
| Instructions | 6        |

```
      00 01 02 03 04 05 06 07  08 09 0A 0B 0C 0D 0E 0F
      -- -- -- -- -- -- -- --  -- -- -- -- -- -- -- --
05F0:                                      32 0D 80 1F              2...
0600: 00 46 80 47 80 48 80 1F  01 6F 1E F6 D1 03 01 00  .F.G.H...o......
```

#### Opcodes

```
  0: 0x05FC [0x32] ExtData[1]->MainSpeed = 13* * 0.1
  1: 0x05FF [0x1F] MOVE_ENTITY: EventEntity moves to X=881.092*, Z=178.166*, Y=-8.043*
  2: 0x0607 [0x1F] MOVE_ENTITY: Update entity position (mode=1)
  3: 0x0609 [0x6F] WAIT_FRAME_DELAY: Yield until WaitTime reaches zero
  4: 0x060A [0x1E] EventEntity looks at Fari-Wari (ID: 17027574/0x0103D1F6) and starts talking
  5: 0x060F [0x00] END_REQSTACK()
```

### Event 65535.22

#### Metadata

| Field        | Value    |
|--------------|----------|
| Entrypoint   | 0x0610   |
| Data Size    | 16 bytes |
| Instructions | 4        |

```
      00 01 02 03 04 05 06 07  08 09 0A 0B 0C 0D 0E 0F
      -- -- -- -- -- -- -- --  -- -- -- -- -- -- -- --
0610: 1C 25 80 6E F0 FF FF 7F  49 80 99 F0 FF FF 7F 00  .%.n....I.......
```

#### Opcodes

```
  0: 0x0610 [0x1C] WAIT(120* ticks)
  1: 0x0613 [0x6E] LocalPlayer uses emote 21*
  2: 0x061A [0x99] Wait for LocalPlayer animation to complete
  3: 0x061F [0x00] END_REQSTACK()
```

### Event 65535.23

#### Metadata

| Field        | Value   |
|--------------|---------|
| Entrypoint   | 0x0620  |
| Data Size    | 4 bytes |
| Instructions | 2       |

```
      00 01 02 03 04 05 06 07  08 09 0A 0B 0C 0D 0E 0F
      -- -- -- -- -- -- -- --  -- -- -- -- -- -- -- --
0620: 39 4A 80 00                                       9J..            
```

#### Opcodes

```
  0: 0x0620 [0x39] SET_ENTITY_DIRECTION(direction=9.9°*)
  1: 0x0623 [0x00] END_REQSTACK()
```

### Event 65535.24

#### Metadata

| Field        | Value    |
|--------------|----------|
| Entrypoint   | 0x0624   |
| Data Size    | 18 bytes |
| Instructions | 6        |

```
      00 01 02 03 04 05 06 07  08 09 0A 0B 0C 0D 0E 0F
      -- -- -- -- -- -- -- --  -- -- -- -- -- -- -- --
0620:             1C 03 80 32  0D 80 1F 00 4B 80 4C 80      ...2....K.L.
0630: 4D 80 1F 01 6F 00                                 M...o.          
```

#### Opcodes

```
  0: 0x0624 [0x1C] WAIT(200* ticks)
  1: 0x0627 [0x32] ExtData[1]->MainSpeed = 13* * 0.1
  2: 0x062A [0x1F] MOVE_ENTITY: EventEntity moves to X=813.517*, Z=236.853*, Y=-13.542*
  3: 0x0632 [0x1F] MOVE_ENTITY: Update entity position (mode=1)
  4: 0x0634 [0x6F] WAIT_FRAME_DELAY: Yield until WaitTime reaches zero
  5: 0x0635 [0x00] END_REQSTACK()
```

### Event 65535.25

#### Metadata

| Field        | Value    |
|--------------|----------|
| Entrypoint   | 0x0636   |
| Data Size    | 13 bytes |
| Instructions | 3        |

```
      00 01 02 03 04 05 06 07  08 09 0A 0B 0C 0D 0E 0F
      -- -- -- -- -- -- -- --  -- -- -- -- -- -- -- --
0630:                   1C 4E  80 4A F0 FF FF 7F 12 D2        .N.J......
0640: 03 01 00                                          ...             
```

#### Opcodes

```
  0: 0x0636 [0x1C] WAIT(45* ticks)
  1: 0x0639 [0x4A] LocalPlayer looks at Nabitham (ID: 17027602/0x0103D212)
  2: 0x0642 [0x00] END_REQSTACK()
```

### Event 65535.26

#### Metadata

| Field        | Value    |
|--------------|----------|
| Entrypoint   | 0x0643   |
| Data Size    | 36 bytes |
| Instructions | 6        |

```
      00 01 02 03 04 05 06 07  08 09 0A 0B 0C 0D 0E 0F
      -- -- -- -- -- -- -- --  -- -- -- -- -- -- -- --
0640:          59 04 F0 FF FF  7F 0D 80 1F 00 4F 80 50     Y.........O.P
0650: 80 51 80 1F 01 4B F0 FF  FF 7F 52 80 79 00 F0 FF  .Q...K....R.y...
0660: FF 7F F6 D1 03 01 00                              .......         
```

#### Opcodes

```
  0: 0x0643 [0x59] UPDATE_ENTITY_DATA: Set LocalPlayer main speed = 13* * 0.1
  1: 0x064B [0x1F] MOVE_ENTITY: EventEntity moves to X=884.539*, Z=182.441*, Y=-8.921*
  2: 0x0653 [0x1F] MOVE_ENTITY: Update entity position (mode=1)
  3: 0x0655 [0x4B] UPDATE_ENTITY_YAW(entity=LocalPlayer, yaw=7.1°*)
  4: 0x065C [0x79] LocalPlayer looks at Fari-Wari (ID: 17027574/0x0103D1F6) (Basic look)
  5: 0x0666 [0x00] END_REQSTACK()
```

### Event 65535.27

#### Metadata

| Field        | Value    |
|--------------|----------|
| Entrypoint   | 0x0667   |
| Data Size    | 19 bytes |
| Instructions | 4        |

```
      00 01 02 03 04 05 06 07  08 09 0A 0B 0C 0D 0E 0F
      -- -- -- -- -- -- -- --  -- -- -- -- -- -- -- --
0660:                      59  04 F0 FF FF 7F 53 80 1F         Y.....S..
0670: 00 54 80 55 80 56 80 1F  01 00                    .T.U.V....      
```

#### Opcodes

```
  0: 0x0667 [0x59] UPDATE_ENTITY_DATA: Set LocalPlayer main speed = 14* * 0.1
  1: 0x066F [0x1F] MOVE_ENTITY: EventEntity moves to X=881.733*, Z=177.748*, Y=-8.284*
  2: 0x0677 [0x1F] MOVE_ENTITY: Update entity position (mode=1)
  3: 0x0679 [0x00] END_REQSTACK()
```

### Event 65535.28

#### Metadata

| Field        | Value    |
|--------------|----------|
| Entrypoint   | 0x067A   |
| Data Size    | 19 bytes |
| Instructions | 4        |

```
      00 01 02 03 04 05 06 07  08 09 0A 0B 0C 0D 0E 0F
      -- -- -- -- -- -- -- --  -- -- -- -- -- -- -- --
0670:                                59 04 F0 FF FF 7F            Y.....
0680: 57 80 1F 00 58 80 59 80  5A 80 1F 01 00           W...X.Y.Z....   
```

#### Opcodes

```
  0: 0x067A [0x59] UPDATE_ENTITY_DATA: Set LocalPlayer main speed = 15* * 0.1
  1: 0x0682 [0x1F] MOVE_ENTITY: EventEntity moves to X=883.860*, Z=178.059*, Y=-8.944*
  2: 0x068A [0x1F] MOVE_ENTITY: Update entity position (mode=1)
  3: 0x068C [0x00] END_REQSTACK()
```

### Event 65535.29

#### Metadata

| Field        | Value    |
|--------------|----------|
| Entrypoint   | 0x068D   |
| Data Size    | 29 bytes |
| Instructions | 6        |

```
      00 01 02 03 04 05 06 07  08 09 0A 0B 0C 0D 0E 0F
      -- -- -- -- -- -- -- --  -- -- -- -- -- -- -- --
0680:                                         59 04 F0               Y..
0690: FF FF 7F 53 80 1F 00 5B  80 5C 80 5D 80 1F 01 6F  ...S...[.\.]...o
06A0: 4A F0 FF FF 7F 17 D2 03  01 00                    J.........      
```

#### Opcodes

```
  0: 0x068D [0x59] UPDATE_ENTITY_DATA: Set LocalPlayer main speed = 14* * 0.1
  1: 0x0695 [0x1F] MOVE_ENTITY: EventEntity moves to X=878.724*, Z=179.576*, Y=-8.080*
  2: 0x069D [0x1F] MOVE_ENTITY: Update entity position (mode=1)
  3: 0x069F [0x6F] WAIT_FRAME_DELAY: Yield until WaitTime reaches zero
  4: 0x06A0 [0x4A] LocalPlayer looks at Unnamed NPC (ID: 17027607/0x0103D217)
  5: 0x06A9 [0x00] END_REQSTACK()
```

### Event 65535.30

#### Metadata

| Field        | Value    |
|--------------|----------|
| Entrypoint   | 0x06AA   |
| Data Size    | 19 bytes |
| Instructions | 4        |

```
      00 01 02 03 04 05 06 07  08 09 0A 0B 0C 0D 0E 0F
      -- -- -- -- -- -- -- --  -- -- -- -- -- -- -- --
06A0:                                59 04 F0 FF FF 7F            Y.....
06B0: 53 80 1F 00 5E 80 5F 80  60 80 1F 01 00           S...^._.`....   
```

#### Opcodes

```
  0: 0x06AA [0x59] UPDATE_ENTITY_DATA: Set LocalPlayer main speed = 14* * 0.1
  1: 0x06B2 [0x1F] MOVE_ENTITY: EventEntity moves to X=823.966*, Z=230.272*, Y=-13.842*
  2: 0x06BA [0x1F] MOVE_ENTITY: Update entity position (mode=1)
  3: 0x06BC [0x00] END_REQSTACK()
```

### Event 65535.31

#### Metadata

| Field        | Value    |
|--------------|----------|
| Entrypoint   | 0x06BD   |
| Data Size    | 13 bytes |
| Instructions | 3        |

```
      00 01 02 03 04 05 06 07  08 09 0A 0B 0C 0D 0E 0F
      -- -- -- -- -- -- -- --  -- -- -- -- -- -- -- --
06B0:                                         6E F0 FF               n..
06C0: FF 7F 61 80 99 F0 FF FF  7F 00                    ..a.......      
```

#### Opcodes

```
  0: 0x06BD [0x6E] LocalPlayer uses emote 18*
  1: 0x06C4 [0x99] Wait for LocalPlayer animation to complete
  2: 0x06C9 [0x00] END_REQSTACK()
```

### Event 65535.32

#### Metadata

| Field        | Value    |
|--------------|----------|
| Entrypoint   | 0x06CA   |
| Data Size    | 29 bytes |
| Instructions | 6        |

```
      00 01 02 03 04 05 06 07  08 09 0A 0B 0C 0D 0E 0F
      -- -- -- -- -- -- -- --  -- -- -- -- -- -- -- --
06C0:                                59 04 F0 FF FF 7F            Y.....
06D0: 62 80 1F 00 63 80 64 80  65 80 1F 01 6F 4A F0 FF  b...c.d.e...oJ..
06E0: FF 7F 0C D2 03 01 00                              .......         
```

#### Opcodes

```
  0: 0x06CA [0x59] UPDATE_ENTITY_DATA: Set LocalPlayer main speed = 39* * 0.1
  1: 0x06D2 [0x1F] MOVE_ENTITY: EventEntity moves to X=811.143*, Z=235.927*, Y=-13.779*
  2: 0x06DA [0x1F] MOVE_ENTITY: Update entity position (mode=1)
  3: 0x06DC [0x6F] WAIT_FRAME_DELAY: Yield until WaitTime reaches zero
  4: 0x06DD [0x4A] LocalPlayer looks at hei05 (ID: 17027596/0x0103D20C)
  5: 0x06E6 [0x00] END_REQSTACK()
```

### Event 65535.33

#### Metadata

| Field        | Value    |
|--------------|----------|
| Entrypoint   | 0x06E7   |
| Data Size    | 14 bytes |
| Instructions | 3        |

```
      00 01 02 03 04 05 06 07  08 09 0A 0B 0C 0D 0E 0F
      -- -- -- -- -- -- -- --  -- -- -- -- -- -- -- --
06E0:                      1C  25 80 79 00 F0 FF FF 7F         .%.y.....
06F0: F6 D1 03 01 00                                    .....           
```

#### Opcodes

```
  0: 0x06E7 [0x1C] WAIT(120* ticks)
  1: 0x06EA [0x79] LocalPlayer looks at Fari-Wari (ID: 17027574/0x0103D1F6) (Basic look)
  2: 0x06F4 [0x00] END_REQSTACK()
```

### Event 65535.34

#### Metadata

| Field        | Value    |
|--------------|----------|
| Entrypoint   | 0x06F5   |
| Data Size    | 29 bytes |
| Instructions | 6        |

```
      00 01 02 03 04 05 06 07  08 09 0A 0B 0C 0D 0E 0F
      -- -- -- -- -- -- -- --  -- -- -- -- -- -- -- --
06F0:                1C 66 80  79 00 F0 FF FF 7F F6 D1       .f.y.......
0700: 03 01 6E F0 FF FF 7F 67  80 99 F0 FF FF 7F 1C 68  ..n....g.......h
0710: 80 00                                             ..              
```

#### Opcodes

```
  0: 0x06F5 [0x1C] WAIT(150* ticks)
  1: 0x06F8 [0x79] LocalPlayer looks at Fari-Wari (ID: 17027574/0x0103D1F6) (Basic look)
  2: 0x0702 [0x6E] LocalPlayer uses emote 6*
  3: 0x0709 [0x99] Wait for LocalPlayer animation to complete
  4: 0x070E [0x1C] WAIT(180* ticks)
  5: 0x0711 [0x00] END_REQSTACK()
```

### Event 65535.35

#### Metadata

| Field        | Value    |
|--------------|----------|
| Entrypoint   | 0x0712   |
| Data Size    | 19 bytes |
| Instructions | 4        |

```
      00 01 02 03 04 05 06 07  08 09 0A 0B 0C 0D 0E 0F
      -- -- -- -- -- -- -- --  -- -- -- -- -- -- -- --
0710:       59 04 F0 FF FF 7F  0D 80 1F 00 69 80 6A 80    Y.........i.j.
0720: 01 80 1F 01 00                                    .....           
```

#### Opcodes

```
  0: 0x0712 [0x59] UPDATE_ENTITY_DATA: Set LocalPlayer main speed = 13* * 0.1
  1: 0x071A [0x1F] MOVE_ENTITY: EventEntity moves to X=0.908*, Z=-57.947*, Y=0.000*
  2: 0x0722 [0x1F] MOVE_ENTITY: Update entity position (mode=1)
  3: 0x0724 [0x00] END_REQSTACK()
```

### Event 65535.36

#### Metadata

| Field        | Value    |
|--------------|----------|
| Entrypoint   | 0x0725   |
| Data Size    | 37 bytes |
| Instructions | 7        |

```
      00 01 02 03 04 05 06 07  08 09 0A 0B 0C 0D 0E 0F
      -- -- -- -- -- -- -- --  -- -- -- -- -- -- -- --
0720:                59 04 F0  FF FF 7F 6B 80 1F 00 6C       Y.....k...l
0730: 80 6D 80 6E 80 1F 01 6F  79 00 F0 FF FF 7F F6 D1  .m.n...oy.......
0740: 03 01 4B F0 FF FF 7F 6F  80 00                    ..K....o..      
```

#### Opcodes

```
  0: 0x0725 [0x59] UPDATE_ENTITY_DATA: Set LocalPlayer main speed = 12* * 0.1
  1: 0x072D [0x1F] MOVE_ENTITY: EventEntity moves to X=140.507*, Z=-1.207*, Y=-2.000*
  2: 0x0735 [0x1F] MOVE_ENTITY: Update entity position (mode=1)
  3: 0x0737 [0x6F] WAIT_FRAME_DELAY: Yield until WaitTime reaches zero
  4: 0x0738 [0x79] LocalPlayer looks at Fari-Wari (ID: 17027574/0x0103D1F6) (Basic look)
  5: 0x0742 [0x4B] UPDATE_ENTITY_YAW(entity=LocalPlayer, yaw=13.2°*)
  6: 0x0749 [0x00] END_REQSTACK()
```

### Event 65535.37

#### Metadata

| Field        | Value    |
|--------------|----------|
| Entrypoint   | 0x074A   |
| Data Size    | 19 bytes |
| Instructions | 4        |

```
      00 01 02 03 04 05 06 07  08 09 0A 0B 0C 0D 0E 0F
      -- -- -- -- -- -- -- --  -- -- -- -- -- -- -- --
0740:                                59 04 F6 D1 03 01            Y.....
0750: 0D 80 1F 00 70 80 6D 80  6E 80 1F 01 00           ....p.m.n....   
```

#### Opcodes

```
  0: 0x074A [0x59] UPDATE_ENTITY_DATA: Set Fari-Wari (ID: 17027574/0x0103D1F6) main speed = 13* * 0.1
  1: 0x0752 [0x1F] MOVE_ENTITY: EventEntity moves to X=117.174*, Z=-1.207*, Y=-2.000*
  2: 0x075A [0x1F] MOVE_ENTITY: Update entity position (mode=1)
  3: 0x075C [0x00] END_REQSTACK()
```

### Event 65535.38

#### Metadata

| Field        | Value    |
|--------------|----------|
| Entrypoint   | 0x075D   |
| Data Size    | 12 bytes |
| Instructions | 4        |

```
      00 01 02 03 04 05 06 07  08 09 0A 0B 0C 0D 0E 0F
      -- -- -- -- -- -- -- --  -- -- -- -- -- -- -- --
0750:                                         1F 00 71               ..q
0760: 80 72 80 73 80 1F 01 6F  00                       .r.s...o.       
```

#### Opcodes

```
  0: 0x075D [0x1F] MOVE_ENTITY: EventEntity moves to X=854.396*, Z=247.745*, Y=-14.435*
  1: 0x0765 [0x1F] MOVE_ENTITY: Update entity position (mode=1)
  2: 0x0767 [0x6F] WAIT_FRAME_DELAY: Yield until WaitTime reaches zero
  3: 0x0768 [0x00] END_REQSTACK()
```

### Event 65535.39

#### Metadata

| Field        | Value    |
|--------------|----------|
| Entrypoint   | 0x0769   |
| Data Size    | 12 bytes |
| Instructions | 4        |

```
      00 01 02 03 04 05 06 07  08 09 0A 0B 0C 0D 0E 0F
      -- -- -- -- -- -- -- --  -- -- -- -- -- -- -- --
0760:                             1F 00 74 80 75 80 76           ..t.u.v
0770: 80 1F 01 6F 00                                    ...o.           
```

#### Opcodes

```
  0: 0x0769 [0x1F] MOVE_ENTITY: EventEntity moves to X=852.436*, Z=227.800*, Y=-14.447*
  1: 0x0771 [0x1F] MOVE_ENTITY: Update entity position (mode=1)
  2: 0x0773 [0x6F] WAIT_FRAME_DELAY: Yield until WaitTime reaches zero
  3: 0x0774 [0x00] END_REQSTACK()
```

### Event 65535.40

#### Metadata

| Field        | Value   |
|--------------|---------|
| Entrypoint   | 0x0775  |
| Data Size    | 6 bytes |
| Instructions | 2       |

```
      00 01 02 03 04 05 06 07  08 09 0A 0B 0C 0D 0E 0F
      -- -- -- -- -- -- -- --  -- -- -- -- -- -- -- --
0770:                03 09 10  07 7F 00                      ......     
```

#### Opcodes

```
  0: 0x0775 [0x03] Work_Zone[9] = Entity->Race
  1: 0x077A [0x00] END_REQSTACK()
```

### Event 65535.41

#### Metadata

| Field        | Value   |
|--------------|---------|
| Entrypoint   | 0x077B  |
| Data Size    | 4 bytes |
| Instructions | 2       |

```
      00 01 02 03 04 05 06 07  08 09 0A 0B 0C 0D 0E 0F
      -- -- -- -- -- -- -- --  -- -- -- -- -- -- -- --
0770:                                   1C 02 10 00                .... 
```

#### Opcodes

```
  0: 0x077B [0x1C] WAIT(Work_Zone[2] ticks)
  1: 0x077E [0x00] END_REQSTACK()
```
