# Event 65535

## Metadata

| Field           | Value    |
|-----------------|----------|
| Event Index     | 12/13    |
| Offset          | 0x01F9   |
| Data Size       | 48 bytes |
| Calculated Size | 48 bytes |
| Instructions    | 9        |

```
      00 01 02 03 04 05 06 07  08 09 0A 0B 0C 0D 0E 0F
      -- -- -- -- -- -- -- --  -- -- -- -- -- -- -- --
01F0:                             03 03 00 11 80 03 02           .......
0200: 00 12 80 02 02 00 00 80  04 28 02 BA 78 C0 09 01  .........(..x...
0210: 13 80 14 80 03 00 00 80  1C 01 80 08 02 00 0C 80  ................
0220: 07 03 00 15 80 01 03 02  00                       .........       
```

## Opcodes

```
  0: 0x01F9 [0x03] ExtData[1]->WorkLocal[3] = 4294960896*
  1: 0x01FE [0x03] ExtData[1]->WorkLocal[2] = 1000*
  2: 0x0203 [0x02] IF !(ExtData[1]->WorkLocal[2] < 0*) GOTO 0x0228
  3: 0x020B [0xBA] SET_ENTITY_POSITION(entity_id=References[17383544], pos_x=-4.977*, pos_z=0.024*, pos_y=ExtData[1]->WorkLocal[3], direction=0.0°*)
  4: 0x0218 [0x1C] WAIT(1* ticks)
  5: 0x021B [0x08] ExtData[1]->WorkLocal[2] -= 10*
  6: 0x0220 [0x07] ExtData[1]->WorkLocal[3] += 60*
  7: 0x0225 [0x01] GOTO 0x0203

SUBROUTINE_0228:
  8: 0x0228 [0x00] END_REQSTACK()
```
