# Event 65535

## Metadata

| Field           | Value    |
|-----------------|----------|
| Event Index     | 92/115   |
| Offset          | 0x216A   |
| Data Size       | 68 bytes |
| Calculated Size | 68 bytes |
| Instructions    | 11       |

```
      00 01 02 03 04 05 06 07  08 09 0A 0B 0C 0D 0E 0F
      -- -- -- -- -- -- -- --  -- -- -- -- -- -- -- --
2160:                                1A 23 28 03 03 10            .#(...
2170: 8B 80 1A E8 26 02 4A 10  11 80 00 A5 21 45 12 80  ....&.J.....!E..
2180: F8 FF FF 7F F8 FF FF 7F  73 32 31 34 08 80 1C 43  ........s214...C
2190: 80 45 09 80 F8 FF FF 7F  F8 FF FF 7F 66 64 69 31  .E..........fdi1
21A0: 08 80 1C 0D 80 2B 90 A0  0E 01 91 80 23 00        .....+......#.  
```

## Opcodes

```
  0: 0x216A [0x1A] CALL_SUBROUTINE(address=0x2823)
  1: 0x216D [0x03] Work_Zone[3] = 2201*
  2: 0x2172 [0x1A] CALL_SUBROUTINE(address=0x26E8)
  3: 0x2175 [0x02] IF !(Work_Zone[74] == 1*) GOTO 0x21A5
  4: 0x217D [0x45] LOAD_SCHEDULED_TASK(work_offset1=254*, entity1=EventEntity, entity2=EventEntity, scheduler_id="s214", work_offset2=0*)
  5: 0x218E [0x1C] WAIT(15* ticks)
  6: 0x2191 [0x45] LOAD_SCHEDULED_TASK(work_offset1=200*, entity1=EventEntity, entity2=EventEntity, scheduler_id="fdi1", work_offset2=0*)
  7: 0x21A2 [0x1C] WAIT(60* ticks)
  8: 0x21A5 [0x2B] Zopago (ID: 17735824/0x010EA090) [13477*]:
    → "\u0001\u0005\u0004\u0002\u0000\u0000\u0000 is very ill. We need \u0001\u0001\u0001 \u0001\u0005$\u0002\u0001\u0000\u0000 in order to help it.\u007F1\u0000\u0007"
  9: 0x21AC [0x23] WAIT_FOR_DIALOG_INTERACTION
 10: 0x21AD [0x00] END_REQSTACK()
```
