# Event 65535

## Metadata

| Field           | Value    |
|-----------------|----------|
| Event Index     | 101/115  |
| Offset          | 0x23CE   |
| Data Size       | 66 bytes |
| Calculated Size | 66 bytes |
| Instructions    | 11       |

```
      00 01 02 03 04 05 06 07  08 09 0A 0B 0C 0D 0E 0F
      -- -- -- -- -- -- -- --  -- -- -- -- -- -- -- --
23C0:                                            1A 23                .#
23D0: 28 1A E8 26 02 4A 10 11  80 00 04 24 45 12 80 F8  (..&.J.....$E...
23E0: FF FF 7F F8 FF FF 7F 73  32 31 34 08 80 1C 43 80  .......s214...C.
23F0: 45 09 80 F8 FF FF 7F F8  FF FF 7F 66 64 69 31 08  E..........fdi1.
2400: 80 1C 0D 80 2B 90 A0 0E  01 25 80 23 1A 2E 28 00  ....+....%.#..(.
```

## Opcodes

```
  0: 0x23CE [0x1A] CALL_SUBROUTINE(address=0x2823)
  1: 0x23D1 [0x1A] CALL_SUBROUTINE(address=0x26E8)
  2: 0x23D4 [0x02] IF !(Work_Zone[74] == 1*) GOTO 0x2404
  3: 0x23DC [0x45] LOAD_SCHEDULED_TASK(work_offset1=254*, entity1=EventEntity, entity2=EventEntity, scheduler_id="s214", work_offset2=0*)
  4: 0x23ED [0x1C] WAIT(15* ticks)
  5: 0x23F0 [0x45] LOAD_SCHEDULED_TASK(work_offset1=200*, entity1=EventEntity, entity2=EventEntity, scheduler_id="fdi1", work_offset2=0*)
  6: 0x2401 [0x1C] WAIT(60* ticks)
  7: 0x2404 [0x2B] Zopago (ID: 17735824/0x010EA090) [13468*]:
    → "\u0001\u0005\u0004\u0002\u0000\u0000\u0000 seems to have a stronger stomach these days.\u007F1\u0000\u0007"
  8: 0x240B [0x23] WAIT_FOR_DIALOG_INTERACTION
  9: 0x240C [0x1A] CALL_SUBROUTINE(address=0x282E)
 10: 0x240F [0x00] END_REQSTACK()
```
