# Event 65535

## Metadata

| Field           | Value    |
|-----------------|----------|
| Event Index     | 63/115   |
| Offset          | 0x1DBA   |
| Data Size       | 66 bytes |
| Calculated Size | 66 bytes |
| Instructions    | 11       |

```
      00 01 02 03 04 05 06 07  08 09 0A 0B 0C 0D 0E 0F
      -- -- -- -- -- -- -- --  -- -- -- -- -- -- -- --
1DB0:                                1A 23 28 1A E8 26            .#(..&
1DC0: 02 4A 10 11 80 00 ED 1D  45 12 80 F8 FF FF 7F F8  .J......E.......
1DD0: FF FF 7F 73 32 31 34 08  80 1C 43 80 45 09 80 F8  ...s214...C.E...
1DE0: FF FF 7F F8 FF FF 7F 66  64 69 31 08 80 1C 0D 80  .......fdi1.....
1DF0: 2B 90 A0 0E 01 72 80 23  1A 2E 28 00              +....r.#..(.    
```

## Opcodes

```
  0: 0x1DBA [0x1A] CALL_SUBROUTINE(address=0x2823)
  1: 0x1DBD [0x1A] CALL_SUBROUTINE(address=0x26E8)
  2: 0x1DC0 [0x02] IF !(Work_Zone[74] == 1*) GOTO 0x1DED
  3: 0x1DC8 [0x45] LOAD_SCHEDULED_TASK: Load scheduler "s214" with entities [EventEntity, EventEntity], work=[254*, 0*]
  4: 0x1DD9 [0x1C] WAIT(15* ticks)
  5: 0x1DDC [0x45] LOAD_SCHEDULED_TASK: Load scheduler "fdi1" with entities [EventEntity, EventEntity], work=[200*, 0*]
  6: 0x1DED [0x1C] WAIT(60* ticks)
  7: 0x1DF0 [0x2B] Zopago (ID: 17735824/0x010EA090) [13510*]:
    → "I had your chocobo exercise with the other chocobos here. All that stimulation seems to have made the animal a bit more patient.\u007F1\u0000\u0007"
  8: 0x1DF7 [0x23] WAIT_FOR_DIALOG_INTERACTION
  9: 0x1DF8 [0x1A] CALL_SUBROUTINE(address=0x282E)
 10: 0x1DFB [0x00] END_REQSTACK()
```
