# Event 65535

## Metadata

| Field           | Value    |
|-----------------|----------|
| Event Index     | 90/115   |
| Offset          | 0x20E6   |
| Data Size       | 66 bytes |
| Calculated Size | 66 bytes |
| Instructions    | 11       |

```
      00 01 02 03 04 05 06 07  08 09 0A 0B 0C 0D 0E 0F
      -- -- -- -- -- -- -- --  -- -- -- -- -- -- -- --
20E0:                   1A 23  28 1A E8 26 02 4A 10 11        .#(..&.J..
20F0: 80 00 1C 21 45 12 80 F8  FF FF 7F F8 FF FF 7F 73  ...!E..........s
2100: 32 31 34 08 80 1C 43 80  45 09 80 F8 FF FF 7F F8  214...C.E.......
2110: FF FF 7F 66 64 69 31 08  80 1C 0D 80 2B 90 A0 0E  ...fdi1.....+...
2120: 01 8F 80 23 1A 2E 28 00                           ...#..(.        
```

## Opcodes

```
  0: 0x20E6 [0x1A] CALL_SUBROUTINE(address=0x2823)
  1: 0x20E9 [0x1A] CALL_SUBROUTINE(address=0x26E8)
  2: 0x20EC [0x02] IF !(Work_Zone[74] == 1*) GOTO 0x211C
  3: 0x20F4 [0x45] LOAD_SCHEDULED_TASK(work_offset1=254*, entity1=EventEntity, entity2=EventEntity, scheduler_id="s214", work_offset2=0*)
  4: 0x2105 [0x1C] WAIT(15* ticks)
  5: 0x2108 [0x45] LOAD_SCHEDULED_TASK(work_offset1=200*, entity1=EventEntity, entity2=EventEntity, scheduler_id="fdi1", work_offset2=0*)
  6: 0x2119 [0x1C] WAIT(60* ticks)
  7: 0x211C [0x2B] Zopago (ID: 17735824/0x010EA090) [13473*]:
    → "\u0001\u0005\u0004\u0002\u0000\u0000\u0000 seems pretty perky lately. It should be responsive to anything you give it now.\u007F1\u0000\u0007"
  8: 0x2123 [0x23] WAIT_FOR_DIALOG_INTERACTION
  9: 0x2124 [0x1A] CALL_SUBROUTINE(address=0x282E)
 10: 0x2127 [0x00] END_REQSTACK()
```
