# Event 65535

## Metadata

| Field           | Value    |
|-----------------|----------|
| Event Index     | 64/115   |
| Offset          | 0x1DFC   |
| Data Size       | 66 bytes |
| Calculated Size | 66 bytes |
| Instructions    | 11       |

```
      00 01 02 03 04 05 06 07  08 09 0A 0B 0C 0D 0E 0F
      -- -- -- -- -- -- -- --  -- -- -- -- -- -- -- --
1DF0:                                      1A 23 28 1A              .#(.
1E00: E8 26 02 4A 10 11 80 00  2F 1E 45 12 80 F8 FF FF  .&.J..../.E.....
1E10: 7F F8 FF FF 7F 73 32 31  34 08 80 1C 43 80 45 09  .....s214...C.E.
1E20: 80 F8 FF FF 7F F8 FF FF  7F 66 64 69 31 08 80 1C  .........fdi1...
1E30: 0D 80 2B 90 A0 0E 01 73  80 23 1A 2E 28 00        ..+....s.#..(.  
```

## Opcodes

```
  0: 0x1DFC [0x1A] CALL_SUBROUTINE(address=0x2823)
  1: 0x1DFF [0x1A] CALL_SUBROUTINE(address=0x26E8)
  2: 0x1E02 [0x02] IF !(Work_Zone[74] == 1*) GOTO 0x1E2F
  3: 0x1E0A [0x45] LOAD_SCHEDULED_TASK(work_offset1=254*, entity1=EventEntity, entity2=EventEntity, scheduler_id="s214", work_offset2=0*)
  4: 0x1E1B [0x1C] WAIT(15* ticks)
  5: 0x1E1E [0x45] LOAD_SCHEDULED_TASK(work_offset1=200*, entity1=EventEntity, entity2=EventEntity, scheduler_id="fdi1", work_offset2=0*)
  6: 0x1E2F [0x1C] WAIT(60* ticks)
  7: 0x1E32 [0x2B] Zopago (ID: 17735824/0x010EA090) [13511*]:
    → "\u0001\u0005\u0004\u0002\u0000\u0000\u0000's been out playing with the children of Bastok. Even I felt like a kid again!\u007F1\u0000\u0007"
  8: 0x1E39 [0x23] WAIT_FOR_DIALOG_INTERACTION
  9: 0x1E3A [0x1A] CALL_SUBROUTINE(address=0x282E)
 10: 0x1E3D [0x00] END_REQSTACK()
```
