# Event 65535

## Metadata

| Field           | Value    |
|-----------------|----------|
| Event Index     | 110/115  |
| Offset          | 0x2620   |
| Data Size       | 68 bytes |
| Calculated Size | 68 bytes |
| Instructions    | 11       |

```
      00 01 02 03 04 05 06 07  08 09 0A 0B 0C 0D 0E 0F
      -- -- -- -- -- -- -- --  -- -- -- -- -- -- -- --
2620: 1A 23 28 03 03 10 1A 80  1A E8 26 02 4A 10 11 80  .#(.......&.J...
2630: 00 5B 26 45 12 80 F8 FF  FF 7F F8 FF FF 7F 73 32  .[&E..........s2
2640: 31 34 08 80 1C 43 80 45  09 80 F8 FF FF 7F F8 FF  14...C.E........
2650: FF 7F 66 64 69 31 08 80  1C 0D 80 2B 90 A0 0E 01  ..fdi1.....+....
2660: 33 80 23 00                                       3.#.            
```

## Opcodes

```
  0: 0x2620 [0x1A] CALL_SUBROUTINE(address=0x2823)
  1: 0x2623 [0x03] Work_Zone[3] = 806*
  2: 0x2628 [0x1A] CALL_SUBROUTINE(address=0x26E8)
  3: 0x262B [0x02] IF !(Work_Zone[74] == 1*) GOTO 0x265B
  4: 0x2633 [0x45] LOAD_SCHEDULED_TASK(work_offset1=254*, entity1=EventEntity, entity2=EventEntity, scheduler_id="s214", work_offset2=0*)
  5: 0x2644 [0x1C] WAIT(15* ticks)
  6: 0x2647 [0x45] LOAD_SCHEDULED_TASK(work_offset1=200*, entity1=EventEntity, entity2=EventEntity, scheduler_id="fdi1", work_offset2=0*)
  7: 0x2658 [0x1C] WAIT(60* ticks)
  8: 0x265B [0x2B] Zopago (ID: 17735824/0x010EA090) [13429*]:
    → "Thanks to the \u0001\u00053\u0002\u0001\u0000\u0000, \u0001\u0005\u0004\u0002\u0000\u0000\u0000 has been sleeping like a baby.\u007F1\u0000\u0007"
  9: 0x2662 [0x23] WAIT_FOR_DIALOG_INTERACTION
 10: 0x2663 [0x00] END_REQSTACK()
```
