# Event 65535

## Metadata

| Field           | Value    |
|-----------------|----------|
| Event Index     | 45/115   |
| Offset          | 0x1920   |
| Data Size       | 67 bytes |
| Calculated Size | 67 bytes |
| Instructions    | 7        |

```
      00 01 02 03 04 05 06 07  08 09 0A 0B 0C 0D 0E 0F
      -- -- -- -- -- -- -- --  -- -- -- -- -- -- -- --
1920: 9F 18 80 91 A0 0E 01 91  A0 0E 01 73 74 6F 70 08  ...........stop.
1930: 80 29 05 91 A0 0E 01 06  80 91 A0 0E 01 5B 3E 80  .)...........[>.
1940: 91 A0 0E 01 91 A0 0E 01  6F 62 69 30 29 05 90 A0  ........obi0)...
1950: 0E 01 08 66 0E 80 90 A0  0E 01 90 A0 0E 01 73 68  ...f..........sh
1960: 61 30 00                                          a0.             
```

## Opcodes

```
  0: 0x1920 [0x9F] LOAD_SCHEDULED_TASK_ALT: Load scheduler "stop" with entities [Unnamed NPC (ID: 17735825/0x010EA091), Unnamed NPC (ID: 17735825/0x010EA091)], work=[235*, 0*]
  1: 0x1931 [0x29] REQ_SET_WAIT(priority=0x05, entity_id=Unnamed NPC (ID: 17735825/0x010EA091), tag_num=0x06)
  2: 0x1938 [0x80] LOAD_WAIT(entity=Unnamed NPC (ID: 17735825/0x010EA091))
  3: 0x193D [0x5B] LOAD_EXT_SCHEDULER(work_offset=876*, entity1=Unnamed NPC (ID: 17735825/0x010EA091), entity2=Unnamed NPC (ID: 17735825/0x010EA091), action="obi0")
  4: 0x194C [0x29] REQ_SET_WAIT(priority=0x05, entity_id=Zopago (ID: 17735824/0x010EA090), tag_num=0x08)
  5: 0x1953 [0x66] LOAD_EXT_SCHEDULER_MAIN(work_offset=69*, entity1=Zopago (ID: 17735824/0x010EA090), entity2=Zopago (ID: 17735824/0x010EA090), action="sha0")
  6: 0x1962 [0x00] END_REQSTACK()
```
