# Event 65535

## Metadata

| Field           | Value    |
|-----------------|----------|
| Event Index     | 108/115  |
| Offset          | 0x259C   |
| Data Size       | 66 bytes |
| Calculated Size | 66 bytes |
| Instructions    | 11       |

```
      00 01 02 03 04 05 06 07  08 09 0A 0B 0C 0D 0E 0F
      -- -- -- -- -- -- -- --  -- -- -- -- -- -- -- --
2590:                                      1A 23 28 1A              .#(.
25A0: E8 26 02 4A 10 11 80 00  D2 25 45 12 80 F8 FF FF  .&.J.....%E.....
25B0: 7F F8 FF FF 7F 73 32 31  34 08 80 1C 43 80 45 09  .....s214...C.E.
25C0: 80 F8 FF FF 7F F8 FF FF  7F 66 64 69 31 08 80 1C  .........fdi1...
25D0: 0D 80 2B 90 A0 0E 01 30  80 23 1A 2E 28 00        ..+....0.#..(.  
```

## Opcodes

```
  0: 0x259C [0x1A] CALL_SUBROUTINE(address=0x2823)
  1: 0x259F [0x1A] CALL_SUBROUTINE(address=0x26E8)
  2: 0x25A2 [0x02] IF !(Work_Zone[74] == 1*) GOTO 0x25D2
  3: 0x25AA [0x45] LOAD_SCHEDULED_TASK: Load scheduler "s214" with entities [EventEntity, EventEntity], work=[254*, 0*]
  4: 0x25BB [0x1C] WAIT(15* ticks)
  5: 0x25BE [0x45] LOAD_SCHEDULED_TASK: Load scheduler "fdi1" with entities [EventEntity, EventEntity], work=[200*, 0*]
  6: 0x25CF [0x1C] WAIT(60* ticks)
  7: 0x25D2 [0x2B] Zopago (ID: 17735824/0x010EA090) [13486*]:
    → "\u0001\u0005\u0004\u0002\u0000\u0000\u0000 is back, and I'm happy to say it seems to be fine.\u007F1\u0000\u0007"
  8: 0x25D9 [0x23] WAIT_FOR_DIALOG_INTERACTION
  9: 0x25DA [0x1A] CALL_SUBROUTINE(address=0x282E)
 10: 0x25DD [0x00] END_REQSTACK()
```
