# Event 65535

## Metadata

| Field           | Value    |
|-----------------|----------|
| Event Index     | 46/115   |
| Offset          | 0x1963   |
| Data Size       | 67 bytes |
| Calculated Size | 67 bytes |
| Instructions    | 7        |

```
      00 01 02 03 04 05 06 07  08 09 0A 0B 0C 0D 0E 0F
      -- -- -- -- -- -- -- --  -- -- -- -- -- -- -- --
1960:          9F 18 80 97 A0  0E 01 97 A0 0E 01 73 74     ...........st
1970: 6F 70 08 80 29 05 97 A0  0E 01 04 80 97 A0 0E 01  op..)...........
1980: 5B 3F 80 97 A0 0E 01 97  A0 0E 01 6F 62 69 30 29  [?.........obi0)
1990: 05 90 A0 0E 01 08 66 0E  80 90 A0 0E 01 90 A0 0E  ......f.........
19A0: 01 73 68 61 30 00                                 .sha0.          
```

## Opcodes

```
  0: 0x1963 [0x9F] LOAD_SCHEDULED_TASK_ALT: Load scheduler "stop" with entities [Unnamed NPC (ID: 17735831/0x010EA097), Unnamed NPC (ID: 17735831/0x010EA097)], work=[235*, 0*]
  1: 0x1974 [0x29] REQ_SET_WAIT(priority=0x05, entity_id=Unnamed NPC (ID: 17735831/0x010EA097), tag_num=0x04)
  2: 0x197B [0x80] LOAD_WAIT(entity=Unnamed NPC (ID: 17735831/0x010EA097))
  3: 0x1980 [0x5B] LOAD_EXT_SCHEDULER: Load scheduler "obi0" with entities [Unnamed NPC (ID: 17735831/0x010EA097), Unnamed NPC (ID: 17735831/0x010EA097)], work=222*
  4: 0x198F [0x29] REQ_SET_WAIT(priority=0x05, entity_id=Zopago (ID: 17735824/0x010EA090), tag_num=0x08)
  5: 0x1996 [0x66] LOAD_EXT_SCHEDULER_MAIN: Load scheduler "sha0" with entities [Zopago (ID: 17735824/0x010EA090), Zopago (ID: 17735824/0x010EA090)], work=69*
  6: 0x19A5 [0x00] END_REQSTACK()
```
