# Event 65535

## Metadata

| Field           | Value    |
|-----------------|----------|
| Event Index     | 57/115   |
| Offset          | 0x1C34   |
| Data Size       | 60 bytes |
| Calculated Size | 60 bytes |
| Instructions    | 9        |

```
      00 01 02 03 04 05 06 07  08 09 0A 0B 0C 0D 0E 0F
      -- -- -- -- -- -- -- --  -- -- -- -- -- -- -- --
1C30:             1A E8 26 02  4A 10 11 80 00 67 1C 45      ..&.J....g.E
1C40: 12 80 F8 FF FF 7F F8 FF  FF 7F 73 32 31 34 08 80  ..........s214..
1C50: 1C 43 80 45 09 80 F8 FF  FF 7F F8 FF FF 7F 66 64  .C.E..........fd
1C60: 69 31 08 80 1C 0D 80 2B  90 A0 0E 01 3B 80 23 00  i1.....+....;.#.
```

## Opcodes

```
  0: 0x1C34 [0x1A] CALL_SUBROUTINE(address=0x26E8)
  1: 0x1C37 [0x02] IF !(Work_Zone[74] == 1*) GOTO 0x1C67
  2: 0x1C3F [0x45] LOAD_SCHEDULED_TASK(work_offset1=254*, entity1=EventEntity, entity2=EventEntity, scheduler_id="s214", work_offset2=0*)
  3: 0x1C50 [0x1C] WAIT(15* ticks)
  4: 0x1C53 [0x45] LOAD_SCHEDULED_TASK(work_offset1=200*, entity1=EventEntity, entity2=EventEntity, scheduler_id="fdi1", work_offset2=0*)
  5: 0x1C64 [0x1C] WAIT(60* ticks)
  6: 0x1C67 [0x2B] Zopago (ID: 17735824/0x010EA090) [13504*]:
    → "We've been taking good care of your egg. I can't wait to see how the chick looks.\u007F1\u0000\u0007"
  7: 0x1C6E [0x23] WAIT_FOR_DIALOG_INTERACTION
  8: 0x1C6F [0x00] END_REQSTACK()
```
