# Event 65535

## Metadata

| Field           | Value    |
|-----------------|----------|
| Event Index     | 91/115   |
| Offset          | 0x2128   |
| Data Size       | 66 bytes |
| Calculated Size | 66 bytes |
| Instructions    | 11       |

```
      00 01 02 03 04 05 06 07  08 09 0A 0B 0C 0D 0E 0F
      -- -- -- -- -- -- -- --  -- -- -- -- -- -- -- --
2120:                          1A 23 28 1A E8 26 02 4A          .#(..&.J
2130: 10 11 80 00 5E 21 45 12  80 F8 FF FF 7F F8 FF FF  ....^!E.........
2140: 7F 73 32 31 34 08 80 1C  43 80 45 09 80 F8 FF FF  .s214...C.E.....
2150: 7F F8 FF FF 7F 66 64 69  31 08 80 1C 0D 80 2B 90  .....fdi1.....+.
2160: A0 0E 01 90 80 23 1A 2E  28 00                    .....#..(.      
```

## Opcodes

```
  0: 0x2128 [0x1A] CALL_SUBROUTINE(address=0x2823)
  1: 0x212B [0x1A] CALL_SUBROUTINE(address=0x26E8)
  2: 0x212E [0x02] IF !(Work_Zone[74] == 1*) GOTO 0x215E
  3: 0x2136 [0x45] LOAD_SCHEDULED_TASK(work_offset1=254*, entity1=EventEntity, entity2=EventEntity, scheduler_id="s214", work_offset2=0*)
  4: 0x2147 [0x1C] WAIT(15* ticks)
  5: 0x214A [0x45] LOAD_SCHEDULED_TASK(work_offset1=200*, entity1=EventEntity, entity2=EventEntity, scheduler_id="fdi1", work_offset2=0*)
  6: 0x215B [0x1C] WAIT(60* ticks)
  7: 0x215E [0x2B] Zopago (ID: 17735824/0x010EA090) [13475*]:
    → "\u0001\u0005\u0004\u0002\u0000\u0000\u0000 is sleeping soundly right now, so don't disturb it.\u007F1\u0000\u0007"
  8: 0x2165 [0x23] WAIT_FOR_DIALOG_INTERACTION
  9: 0x2166 [0x1A] CALL_SUBROUTINE(address=0x282E)
 10: 0x2169 [0x00] END_REQSTACK()
```
