# Event 65535

## Metadata

| Field           | Value    |
|-----------------|----------|
| Event Index     | 104/115  |
| Offset          | 0x2494   |
| Data Size       | 66 bytes |
| Calculated Size | 66 bytes |
| Instructions    | 11       |

```
      00 01 02 03 04 05 06 07  08 09 0A 0B 0C 0D 0E 0F
      -- -- -- -- -- -- -- --  -- -- -- -- -- -- -- --
2490:             1A 23 28 1A  E8 26 02 4A 10 11 80 00      .#(..&.J....
24A0: CA 24 45 12 80 F8 FF FF  7F F8 FF FF 7F 73 32 31  .$E..........s21
24B0: 34 08 80 1C 43 80 45 09  80 F8 FF FF 7F F8 FF FF  4...C.E.........
24C0: 7F 66 64 69 31 08 80 1C  0D 80 2B 90 A0 0E 01 2C  .fdi1.....+....,
24D0: 80 23 1A 2E 28 00                                 .#..(.          
```

## Opcodes

```
  0: 0x2494 [0x1A] CALL_SUBROUTINE(address=0x2823)
  1: 0x2497 [0x1A] CALL_SUBROUTINE(address=0x26E8)
  2: 0x249A [0x02] IF !(Work_Zone[74] == 1*) GOTO 0x24CA
  3: 0x24A2 [0x45] LOAD_SCHEDULED_TASK(work_offset1=254*, entity1=EventEntity, entity2=EventEntity, scheduler_id="s214", work_offset2=0*)
  4: 0x24B3 [0x1C] WAIT(15* ticks)
  5: 0x24B6 [0x45] LOAD_SCHEDULED_TASK(work_offset1=200*, entity1=EventEntity, entity2=EventEntity, scheduler_id="fdi1", work_offset2=0*)
  6: 0x24C7 [0x1C] WAIT(60* ticks)
  7: 0x24CA [0x2B] Zopago (ID: 17735824/0x010EA090) [13476*]:
    → "\u0001\u0005\u0004\u0002\u0000\u0000\u0000's been waking up every morning as of late.\u007F1\u0000\u0007"
  8: 0x24D1 [0x23] WAIT_FOR_DIALOG_INTERACTION
  9: 0x24D2 [0x1A] CALL_SUBROUTINE(address=0x282E)
 10: 0x24D5 [0x00] END_REQSTACK()
```
