# Event 65535

## Metadata

| Field           | Value    |
|-----------------|----------|
| Event Index     | 44/115   |
| Offset          | 0x18E3   |
| Data Size       | 61 bytes |
| Calculated Size | 61 bytes |
| Instructions    | 7        |

```
      00 01 02 03 04 05 06 07  08 09 0A 0B 0C 0D 0E 0F
      -- -- -- -- -- -- -- --  -- -- -- -- -- -- -- --
18E0:          9F 18 80 91 A0  0E 01 91 A0 0E 01 73 74     ...........st
18F0: 6F 70 08 80 29 05 91 A0  0E 01 04 80 91 A0 0E 01  op..)...........
1900: 5B 16 80 91 A0 0E 01 91  A0 0E 01 68 69 30 38 29  [..........hi08)
1910: 05 90 A0 0E 01 06 4A 90  A0 0E 01 91 A0 0E 01 00  ......J.........
```

## Opcodes

```
  0: 0x18E3 [0x9F] LOAD_SCHEDULED_TASK_ALT: Load scheduler "stop" with entities [Unnamed NPC (ID: 17735825/0x010EA091), Unnamed NPC (ID: 17735825/0x010EA091)], work=[235*, 0*]
  1: 0x18F4 [0x29] REQ_SET_WAIT(priority=0x05, entity_id=Unnamed NPC (ID: 17735825/0x010EA091), tag_num=0x04)
  2: 0x18FB [0x80] LOAD_WAIT(entity=Unnamed NPC (ID: 17735825/0x010EA091))
  3: 0x1900 [0x5B] LOAD_EXT_SCHEDULER(work_offset=872*, entity1=Unnamed NPC (ID: 17735825/0x010EA091), entity2=Unnamed NPC (ID: 17735825/0x010EA091), action="hi08")
  4: 0x190F [0x29] REQ_SET_WAIT(priority=0x05, entity_id=Zopago (ID: 17735824/0x010EA090), tag_num=0x06)
  5: 0x1916 [0x4A] Zopago (ID: 17735824/0x010EA090) looks at Unnamed NPC (ID: 17735825/0x010EA091)
  6: 0x191F [0x00] END_REQSTACK()
```
