# Event 65535

## Metadata

| Field           | Value    |
|-----------------|----------|
| Event Index     | 94/115   |
| Offset          | 0x21F0   |
| Data Size       | 66 bytes |
| Calculated Size | 66 bytes |
| Instructions    | 11       |

```
      00 01 02 03 04 05 06 07  08 09 0A 0B 0C 0D 0E 0F
      -- -- -- -- -- -- -- --  -- -- -- -- -- -- -- --
21F0: 1A 23 28 1A E8 26 02 4A  10 11 80 00 26 22 45 12  .#(..&.J....&"E.
2200: 80 F8 FF FF 7F F8 FF FF  7F 73 32 31 34 08 80 1C  .........s214...
2210: 43 80 45 09 80 F8 FF FF  7F F8 FF FF 7F 66 64 69  C.E..........fdi
2220: 31 08 80 1C 0D 80 2B 90  A0 0E 01 93 80 23 1A 2E  1.....+......#..
2230: 28 00                                             (.              
```

## Opcodes

```
  0: 0x21F0 [0x1A] CALL_SUBROUTINE(address=0x2823)
  1: 0x21F3 [0x1A] CALL_SUBROUTINE(address=0x26E8)
  2: 0x21F6 [0x02] IF !(Work_Zone[74] == 1*) GOTO 0x2226
  3: 0x21FE [0x45] LOAD_SCHEDULED_TASK: Load scheduler "s214" with entities [EventEntity, EventEntity], work=[254*, 0*]
  4: 0x220F [0x1C] WAIT(15* ticks)
  5: 0x2212 [0x45] LOAD_SCHEDULED_TASK: Load scheduler "fdi1" with entities [EventEntity, EventEntity], work=[200*, 0*]
  6: 0x2223 [0x1C] WAIT(60* ticks)
  7: 0x2226 [0x2B] Zopago (ID: 17735824/0x010EA090) [13481*]:
    → "\u0001\u0005\u0004\u0002\u0000\u0000\u0000 is spoiled rotten! You should discipline it more often.\u007F1\u0000\u0007"
  8: 0x222D [0x23] WAIT_FOR_DIALOG_INTERACTION
  9: 0x222E [0x1A] CALL_SUBROUTINE(address=0x282E)
 10: 0x2231 [0x00] END_REQSTACK()
```
