# Event 65535

## Metadata

| Field           | Value    |
|-----------------|----------|
| Event Index     | 65/115   |
| Offset          | 0x1E3E   |
| Data Size       | 66 bytes |
| Calculated Size | 66 bytes |
| Instructions    | 11       |

```
      00 01 02 03 04 05 06 07  08 09 0A 0B 0C 0D 0E 0F
      -- -- -- -- -- -- -- --  -- -- -- -- -- -- -- --
1E30:                                            1A 23                .#
1E40: 28 1A E8 26 02 4A 10 11  80 00 71 1E 45 12 80 F8  (..&.J....q.E...
1E50: FF FF 7F F8 FF FF 7F 73  32 31 34 08 80 1C 43 80  .......s214...C.
1E60: 45 09 80 F8 FF FF 7F F8  FF FF 7F 66 64 69 31 08  E..........fdi1.
1E70: 80 1C 0D 80 2B 90 A0 0E  01 74 80 23 1A 2E 28 00  ....+....t.#..(.
```

## Opcodes

```
  0: 0x1E3E [0x1A] CALL_SUBROUTINE(address=0x2823)
  1: 0x1E41 [0x1A] CALL_SUBROUTINE(address=0x26E8)
  2: 0x1E44 [0x02] IF !(Work_Zone[74] == 1*) GOTO 0x1E71
  3: 0x1E4C [0x45] LOAD_SCHEDULED_TASK: Load scheduler "s214" with entities [EventEntity, EventEntity], work=[254*, 0*]
  4: 0x1E5D [0x1C] WAIT(15* ticks)
  5: 0x1E60 [0x45] LOAD_SCHEDULED_TASK: Load scheduler "fdi1" with entities [EventEntity, EventEntity], work=[200*, 0*]
  6: 0x1E71 [0x1C] WAIT(60* ticks)
  7: 0x1E74 [0x2B] Zopago (ID: 17735824/0x010EA090) [13512*]:
    → "Your chocobo's been out playing with the other chocobos here. They all seemed so cheerful, I started to think back to when I was a kid...\u007F1\u0000\u0007"
  8: 0x1E7B [0x23] WAIT_FOR_DIALOG_INTERACTION
  9: 0x1E7C [0x1A] CALL_SUBROUTINE(address=0x282E)
 10: 0x1E7F [0x00] END_REQSTACK()
```
