# Event 65535

## Metadata

| Field           | Value    |
|-----------------|----------|
| Event Index     | 41/115   |
| Offset          | 0x17CE   |
| Data Size       | 64 bytes |
| Calculated Size | 64 bytes |
| Instructions    | 8        |

```
      00 01 02 03 04 05 06 07  08 09 0A 0B 0C 0D 0E 0F
      -- -- -- -- -- -- -- --  -- -- -- -- -- -- -- --
17C0:                                            1C 0D                ..
17D0: 80 45 09 80 F8 FF FF 7F  F8 FF FF 7F 66 64 69 31  .E..........fdi1
17E0: 08 80 1C 0D 80 45 49 80  F8 FF FF 7F F8 FF FF 7F  .....EI.........
17F0: 73 30 39 34 08 80 5B 4A  80 97 A0 0E 01 97 A0 0E  s094..[J........
1800: 01 66 75 72 69 2B 90 A0  0E 01 4B 80 23 00        .furi+....K.#.  
```

## Opcodes

```
  0: 0x17CE [0x1C] WAIT(60* ticks)
  1: 0x17D1 [0x45] LOAD_SCHEDULED_TASK(work_offset1=200*, entity1=EventEntity, entity2=EventEntity, scheduler_id="fdi1", work_offset2=0*)
  2: 0x17E2 [0x1C] WAIT(60* ticks)
  3: 0x17E5 [0x45] LOAD_SCHEDULED_TASK(work_offset1=255*, entity1=EventEntity, entity2=EventEntity, scheduler_id="s094", work_offset2=0*)
  4: 0x17F6 [0x5B] LOAD_EXT_SCHEDULER(work_offset=223*, entity1=Unnamed NPC (ID: 17735831/0x010EA097), entity2=Unnamed NPC (ID: 17735831/0x010EA097), action="furi")
  5: 0x1805 [0x2B] Zopago (ID: 17735824/0x010EA090) [13435*]:
    → "\u0001\u0005\u0004\u0002\u0000\u0000\u0000 has finally grown large enough to ride! Just look at that graceful plumage!\u007F1\u0000\u0007"
  6: 0x180C [0x23] WAIT_FOR_DIALOG_INTERACTION
  7: 0x180D [0x00] END_REQSTACK()
```
