# Event 65535

## Metadata

| Field           | Value    |
|-----------------|----------|
| Event Index     | 88/115   |
| Offset          | 0x2062   |
| Data Size       | 66 bytes |
| Calculated Size | 66 bytes |
| Instructions    | 11       |

```
      00 01 02 03 04 05 06 07  08 09 0A 0B 0C 0D 0E 0F
      -- -- -- -- -- -- -- --  -- -- -- -- -- -- -- --
2060:       1A 23 28 1A E8 26  02 4A 10 11 80 00 98 20    .#(..&.J..... 
2070: 45 12 80 F8 FF FF 7F F8  FF FF 7F 73 32 31 34 08  E..........s214.
2080: 80 1C 43 80 45 09 80 F8  FF FF 7F F8 FF FF 7F 66  ..C.E..........f
2090: 64 69 31 08 80 1C 0D 80  2B 90 A0 0E 01 8D 80 23  di1.....+......#
20A0: 1A 2E 28 00                                       ..(.            
```

## Opcodes

```
  0: 0x2062 [0x1A] CALL_SUBROUTINE(address=0x2823)
  1: 0x2065 [0x1A] CALL_SUBROUTINE(address=0x26E8)
  2: 0x2068 [0x02] IF !(Work_Zone[74] == 1*) GOTO 0x2098
  3: 0x2070 [0x45] LOAD_SCHEDULED_TASK: Load scheduler "s214" with entities [EventEntity, EventEntity], work=[254*, 0*]
  4: 0x2081 [0x1C] WAIT(15* ticks)
  5: 0x2084 [0x45] LOAD_SCHEDULED_TASK: Load scheduler "fdi1" with entities [EventEntity, EventEntity], work=[200*, 0*]
  6: 0x2095 [0x1C] WAIT(60* ticks)
  7: 0x2098 [0x2B] Zopago (ID: 17735824/0x010EA090) [13467*]:
    → "\u0001\u0005\u0004\u0002\u0000\u0000\u0000 seems to have a stomachache. You should probably feed it better.\u007F1\u0000\u0007"
  8: 0x209F [0x23] WAIT_FOR_DIALOG_INTERACTION
  9: 0x20A0 [0x1A] CALL_SUBROUTINE(address=0x282E)
 10: 0x20A3 [0x00] END_REQSTACK()
```
