# Event 65535

## Metadata

| Field           | Value    |
|-----------------|----------|
| Event Index     | 86/115   |
| Offset          | 0x1FDA   |
| Data Size       | 68 bytes |
| Calculated Size | 68 bytes |
| Instructions    | 11       |

```
      00 01 02 03 04 05 06 07  08 09 0A 0B 0C 0D 0E 0F
      -- -- -- -- -- -- -- --  -- -- -- -- -- -- -- --
1FD0:                                1A 23 28 03 03 10            .#(...
1FE0: 89 80 1A E8 26 02 4A 10  11 80 00 15 20 45 12 80  ....&.J..... E..
1FF0: F8 FF FF 7F F8 FF FF 7F  73 32 31 34 08 80 1C 43  ........s214...C
2000: 80 45 09 80 F8 FF FF 7F  F8 FF FF 7F 66 64 69 31  .E..........fdi1
2010: 08 80 1C 0D 80 2B 90 A0  0E 01 8A 80 23 00        .....+......#.  
```

## Opcodes

```
  0: 0x1FDA [0x1A] CALL_SUBROUTINE(address=0x2823)
  1: 0x1FDD [0x03] Work_Zone[3] = 534*
  2: 0x1FE2 [0x1A] CALL_SUBROUTINE(address=0x26E8)
  3: 0x1FE5 [0x02] IF !(Work_Zone[74] == 1*) GOTO 0x2015
  4: 0x1FED [0x45] LOAD_SCHEDULED_TASK: Load scheduler "s214" with entities [EventEntity, EventEntity], work=[254*, 0*]
  5: 0x1FFE [0x1C] WAIT(15* ticks)
  6: 0x2001 [0x45] LOAD_SCHEDULED_TASK: Load scheduler "fdi1" with entities [EventEntity, EventEntity], work=[200*, 0*]
  7: 0x2012 [0x1C] WAIT(60* ticks)
  8: 0x2015 [0x2B] Zopago (ID: 17735824/0x010EA090) [13463*]:
    → "\u0001\u0005\u0004\u0002\u0000\u0000\u0000 is injured, but I'm sure it would heal quickly if we had \u0001\u0001\u0001 \u0001\u0005$\u0002\u0001\u0000\u0000.\u007F1\u0000\u0007"
  9: 0x201C [0x23] WAIT_FOR_DIALOG_INTERACTION
 10: 0x201D [0x00] END_REQSTACK()
```
