# Event 65535

## Metadata

| Field           | Value    |
|-----------------|----------|
| Event Index     | 106/115  |
| Offset          | 0x2518   |
| Data Size       | 66 bytes |
| Calculated Size | 66 bytes |
| Instructions    | 11       |

```
      00 01 02 03 04 05 06 07  08 09 0A 0B 0C 0D 0E 0F
      -- -- -- -- -- -- -- --  -- -- -- -- -- -- -- --
2510:                          1A 23 28 1A E8 26 02 4A          .#(..&.J
2520: 10 11 80 00 4E 25 45 12  80 F8 FF FF 7F F8 FF FF  ....N%E.........
2530: 7F 73 32 31 34 08 80 1C  43 80 45 09 80 F8 FF FF  .s214...C.E.....
2540: 7F F8 FF FF 7F 66 64 69  31 08 80 1C 0D 80 2B 90  .....fdi1.....+.
2550: A0 0E 01 2E 80 23 1A 2E  28 00                    .....#..(.      
```

## Opcodes

```
  0: 0x2518 [0x1A] CALL_SUBROUTINE(address=0x2823)
  1: 0x251B [0x1A] CALL_SUBROUTINE(address=0x26E8)
  2: 0x251E [0x02] IF !(Work_Zone[74] == 1*) GOTO 0x254E
  3: 0x2526 [0x45] LOAD_SCHEDULED_TASK: Load scheduler "s214" with entities [EventEntity, EventEntity], work=[254*, 0*]
  4: 0x2537 [0x1C] WAIT(15* ticks)
  5: 0x253A [0x45] LOAD_SCHEDULED_TASK: Load scheduler "fdi1" with entities [EventEntity, EventEntity], work=[200*, 0*]
  6: 0x254B [0x1C] WAIT(60* ticks)
  7: 0x254E [0x2B] Zopago (ID: 17735824/0x010EA090) [13480*]:
    → "\u0001\u0005\u0004\u0002\u0000\u0000\u0000 seems to have more zest for life nowadays.\u007F1\u0000\u0007"
  8: 0x2555 [0x23] WAIT_FOR_DIALOG_INTERACTION
  9: 0x2556 [0x1A] CALL_SUBROUTINE(address=0x282E)
 10: 0x2559 [0x00] END_REQSTACK()
```
