# Event 65535

## Metadata

| Field           | Value    |
|-----------------|----------|
| Event Index     | 58/115   |
| Offset          | 0x1C70   |
| Data Size       | 66 bytes |
| Calculated Size | 66 bytes |
| Instructions    | 11       |

```
      00 01 02 03 04 05 06 07  08 09 0A 0B 0C 0D 0E 0F
      -- -- -- -- -- -- -- --  -- -- -- -- -- -- -- --
1C70: 1A E8 26 02 4A 10 11 80  00 A3 1C 45 12 80 F8 FF  ..&.J......E....
1C80: FF 7F F8 FF FF 7F 73 32  31 34 08 80 1C 43 80 45  ......s214...C.E
1C90: 09 80 F8 FF FF 7F F8 FF  FF 7F 66 64 69 31 08 80  ..........fdi1..
1CA0: 1C 0D 80 1A 23 28 2B 90  A0 0E 01 3C 80 23 1A 2E  ....#(+....<.#..
1CB0: 28 00                                             (.              
```

## Opcodes

```
  0: 0x1C70 [0x1A] CALL_SUBROUTINE(address=0x26E8)
  1: 0x1C73 [0x02] IF !(Work_Zone[74] == 1*) GOTO 0x1CA3
  2: 0x1C7B [0x45] LOAD_SCHEDULED_TASK(work_offset1=254*, entity1=EventEntity, entity2=EventEntity, scheduler_id="s214", work_offset2=0*)
  3: 0x1C8C [0x1C] WAIT(15* ticks)
  4: 0x1C8F [0x45] LOAD_SCHEDULED_TASK(work_offset1=200*, entity1=EventEntity, entity2=EventEntity, scheduler_id="fdi1", work_offset2=0*)
  5: 0x1CA0 [0x1C] WAIT(60* ticks)
  6: 0x1CA3 [0x1A] CALL_SUBROUTINE(address=0x2823)
  7: 0x1CA6 [0x2B] Zopago (ID: 17735824/0x010EA090) [13505*]:
    → "We've been taking good care of \u0001\u0005\u0004\u0002\u0000\u0000\u0000. It's been passing its time here in the stables without concern.\u007F1\u0000\u0007"
  8: 0x1CAD [0x23] WAIT_FOR_DIALOG_INTERACTION
  9: 0x1CAE [0x1A] CALL_SUBROUTINE(address=0x282E)
 10: 0x1CB1 [0x00] END_REQSTACK()
```
