# Event 65535

## Metadata

| Field           | Value    |
|-----------------|----------|
| Event Index     | 109/115  |
| Offset          | 0x25DE   |
| Data Size       | 66 bytes |
| Calculated Size | 66 bytes |
| Instructions    | 11       |

```
      00 01 02 03 04 05 06 07  08 09 0A 0B 0C 0D 0E 0F
      -- -- -- -- -- -- -- --  -- -- -- -- -- -- -- --
25D0:                                            1A 23                .#
25E0: 28 1A E8 26 02 4A 10 11  80 00 14 26 45 12 80 F8  (..&.J.....&E...
25F0: FF FF 7F F8 FF FF 7F 73  32 31 34 08 80 1C 43 80  .......s214...C.
2600: 45 09 80 F8 FF FF 7F F8  FF FF 7F 66 64 69 31 08  E..........fdi1.
2610: 80 1C 0D 80 2B 90 A0 0E  01 32 80 23 1A 2E 28 00  ....+....2.#..(.
```

## Opcodes

```
  0: 0x25DE [0x1A] CALL_SUBROUTINE(address=0x2823)
  1: 0x25E1 [0x1A] CALL_SUBROUTINE(address=0x26E8)
  2: 0x25E4 [0x02] IF !(Work_Zone[74] == 1*) GOTO 0x2614
  3: 0x25EC [0x45] LOAD_SCHEDULED_TASK: Load scheduler "s214" with entities [EventEntity, EventEntity], work=[254*, 0*]
  4: 0x25FD [0x1C] WAIT(15* ticks)
  5: 0x2600 [0x45] LOAD_SCHEDULED_TASK: Load scheduler "fdi1" with entities [EventEntity, EventEntity], work=[200*, 0*]
  6: 0x2611 [0x1C] WAIT(60* ticks)
  7: 0x2614 [0x2B] Zopago (ID: 17735824/0x010EA090) [13490*]:
    → "It seems that \u0001\u0005\u0004\u0002\u0000\u0000\u0000 was in love. Everything should be all right now... Its appetite has returned and it appears to be feeling better.\u007F1\u0000\u0007"
  8: 0x261B [0x23] WAIT_FOR_DIALOG_INTERACTION
  9: 0x261C [0x1A] CALL_SUBROUTINE(address=0x282E)
 10: 0x261F [0x00] END_REQSTACK()
```
