# Event 65535

## Metadata

| Field           | Value    |
|-----------------|----------|
| Event Index     | 42/115   |
| Offset          | 0x180E   |
| Data Size       | 79 bytes |
| Calculated Size | 79 bytes |
| Instructions    | 9        |

```
      00 01 02 03 04 05 06 07  08 09 0A 0B 0C 0D 0E 0F
      -- -- -- -- -- -- -- --  -- -- -- -- -- -- -- --
1800:                                            1C 0D                ..
1810: 80 45 09 80 F8 FF FF 7F  F8 FF FF 7F 66 64 69 31  .E..........fdi1
1820: 08 80 1C 0D 80 45 49 80  F8 FF FF 7F F8 FF FF 7F  .....EI.........
1830: 73 30 39 34 08 80 5B 3F  80 97 A0 0E 01 97 A0 0E  s094..[?........
1840: 01 6A 6F 79 30 5B 3D 80  97 A0 0E 01 97 A0 0E 01  .joy0[=.........
1850: 31 30 31 31 2B 90 A0 0E  01 4C 80 23 00           1011+....L.#.   
```

## Opcodes

```
  0: 0x180E [0x1C] WAIT(60* ticks)
  1: 0x1811 [0x45] LOAD_SCHEDULED_TASK: Load scheduler "fdi1" with entities [EventEntity, EventEntity], work=[200*, 0*]
  2: 0x1822 [0x1C] WAIT(60* ticks)
  3: 0x1825 [0x45] LOAD_SCHEDULED_TASK: Load scheduler "s094" with entities [EventEntity, EventEntity], work=[255*, 0*]
  4: 0x1836 [0x5B] LOAD_EXT_SCHEDULER: Load scheduler "joy0" with entities [Unnamed NPC (ID: 17735831/0x010EA097), Unnamed NPC (ID: 17735831/0x010EA097)], work=222*
  5: 0x1845 [0x5B] LOAD_EXT_SCHEDULER: Load scheduler "1011" with entities [Unnamed NPC (ID: 17735831/0x010EA097), Unnamed NPC (ID: 17735831/0x010EA097)], work=224*
  6: 0x1854 [0x2B] Zopago (ID: 17735824/0x010EA090) [13432*]:
    → "\u0001\u0005\u0004\u0002\u0000\u0000\u0000 has finally grown large enough to ride!\u007F1\u0000\u0007"
  7: 0x185B [0x23] WAIT_FOR_DIALOG_INTERACTION
  8: 0x185C [0x00] END_REQSTACK()
```
