# Event 65535

## Metadata

| Field           | Value    |
|-----------------|----------|
| Event Index     | 10/11    |
| Offset          | 0x003E   |
| Data Size       | 84 bytes |
| Calculated Size | 84 bytes |
| Instructions    | 6        |

```
      00 01 02 03 04 05 06 07  08 09 0A 0B 0C 0D 0E 0F
      -- -- -- -- -- -- -- --  -- -- -- -- -- -- -- --
0030:                                            32 06                2.
0040: 80 1F 00 07 80 08 80 09  80 1F 01 22 01 00 3B F8  ..........."..;.
0050: FF FF 7F 01 00 02 00 03  00 3A F8 FF FF 7F 04 00  .........:......
0060: 17 05 00 04 00 00 00 16  06 00 04 00 00 00 07 01  ................
0070: 00 05 00 07 02 00 06 00  1B 17 05 00 04 00 00 00  ................
0080: 16 06 00 04 00 00 00 07  01 00 05 00 07 02 00 06  ................
0090: 00 1B                                             ..              
```

## Opcodes

```
  0: 0x003E [0x32] ExtData[1]->MainSpeed = 13* * 0.1
  1: 0x0041 [0x1F] MOVE_ENTITY: EventEntity moves to X=-3.827*, Z=107.453*, Y=-3.000*
  2: 0x0049 [0x1F] MOVE_ENTITY: Update entity position (mode=1)
  3: 0x004B [0x22] ENTITY_HIDE_FLAG(enabled=0x01)
  4: 0x004D [0x00] END_REQSTACK()
```

## Data or dead code:

```
# Data Section: 0x004E (68 bytes)
     0x004E: 3B F8 FF FF 7F 01 00 02 00 03 00 3A F8 FF FF 7F
     0x005E: 04 00 17 05 00 04 00 00 00 16 06 00 04 00 00 00
     0x006E: 07 01 00 05 00 07 02 00 06 00 1B 17 05 00 04 00
     0x007E: 00 00 16 06 00 04 00 00 00 07 01 00 05 00 07 02
     0x008E: 00 06 00 1B
```