# Event 588

## Metadata

| Field           | Value    |
|-----------------|----------|
| Event Index     | 9/13     |
| Offset          | 0x01D6   |
| Data Size       | 64 bytes |
| Calculated Size | 64 bytes |
| Instructions    | 12       |

```
      00 01 02 03 04 05 06 07  08 09 0A 0B 0C 0D 0E 0F
      -- -- -- -- -- -- -- --  -- -- -- -- -- -- -- --
01D0:                   1E F0  FF FF 7F 6F 70 5B 0A 80        .....op[..
01E0: F8 FF FF 7F F8 FF FF 7F  74 6C 6B 30 03 02 10 12  ........tlk0....
01F0: 80 1D 14 80 23 5B 0A 80  F8 FF FF 7F F8 FF FF 7F  ....#[..........
0200: 74 6C 6B 31 53 F8 FF FF  7F F8 FF FF 7F 74 6C 6B  tlk1S........tlk
0210: 31 1C 0F 80 21 00                                 1...!.          
```

## Opcodes

```
  0: 0x01D6 [0x1E] EventEntity looks at LocalPlayer and starts talking
  1: 0x01DB [0x6F] WAIT_FRAME_DELAY: Yield until WaitTime reaches zero
  2: 0x01DC [0x70] WAIT_ENTITY_RENDER_FLAG: Wait while EventEntity->Render.Flags3 bit 2 is set (cancel turn if not)
  3: 0x01DD [0x5B] LOAD_EXT_SCHEDULER: Load scheduler "tlk0" with entities [EventEntity, EventEntity], work=20*
  4: 0x01EC [0x03] Work_Zone[2] = 603*
  5: 0x01F1 [0x1D] PRINT_EVENT_MESSAGE(message_id=11203*)
    → "My \u007F\u0005[son/child], your offering of \u0001\u0005#\u0002\u0000\u0000\u0000 was generous enough. You need not obtain another waterskin.\u007F1\u0000\u0007"
  6: 0x01F4 [0x23] WAIT_FOR_DIALOG_INTERACTION
  7: 0x01F5 [0x5B] LOAD_EXT_SCHEDULER: Load scheduler "tlk1" with entities [EventEntity, EventEntity], work=20*
  8: 0x0204 [0x53] WAIT_SCHEDULER_TASK: Wait for scheduler "tlk1" with entities [EventEntity, EventEntity]
  9: 0x0211 [0x1C] WAIT(30* ticks)
 10: 0x0214 [0x21] END_EVENT
 11: 0x0215 [0x00] END_REQSTACK()
```
