# Event 65535

## Metadata

| Field           | Value    |
|-----------------|----------|
| Event Index     | 12/24    |
| Offset          | 0x00C4   |
| Data Size       | 54 bytes |
| Calculated Size | 54 bytes |
| Instructions    | 10       |

```
      00 01 02 03 04 05 06 07  08 09 0A 0B 0C 0D 0E 0F
      -- -- -- -- -- -- -- --  -- -- -- -- -- -- -- --
00C0:             1F 00 17 80  18 80 0F 80 1F 01 4A 16      ..........J.
00D0: 50 0F 01 17 50 0F 01 1F  00 19 80 1A 80 07 80 1F  P...P...........
00E0: 01 4A 16 50 0F 01 17 50  0F 01 4A 17 50 0F 01 16  .J.P...P..J.P...
00F0: 50 0F 01 6F 76 17 50 0F  01 00                    P..ov.P...      
```

## Opcodes

```
  0: 0x00C4 [0x1F] MOVE_ENTITY: EventEntity moves to X=-59.394*, Z=-138.072*, Y=-0.109*
  1: 0x00CC [0x1F] MOVE_ENTITY: Update entity position (mode=1)
  2: 0x00CE [0x4A] Panta-Putta (ID: 17780758/0x010F5016) looks at Two of Swords (ID: 17780759/0x010F5017)
  3: 0x00D7 [0x1F] MOVE_ENTITY: EventEntity moves to X=-60.547*, Z=-139.597*, Y=-0.100*
  4: 0x00DF [0x1F] MOVE_ENTITY: Update entity position (mode=1)
  5: 0x00E1 [0x4A] Panta-Putta (ID: 17780758/0x010F5016) looks at Two of Swords (ID: 17780759/0x010F5017)
  6: 0x00EA [0x4A] Two of Swords (ID: 17780759/0x010F5017) looks at Panta-Putta (ID: 17780758/0x010F5016)
  7: 0x00F3 [0x6F] WAIT_FRAME_DELAY: Yield until WaitTime reaches zero
  8: 0x00F4 [0x76] CHECK_ENTITY_RENDER_FLAGS: Wait until Two of Swords (ID: 17780759/0x010F5017) Render.Flags0 and Render.Flags3 conditions are met
  9: 0x00F9 [0x00] END_REQSTACK()
```
