# Event 65535

## Metadata

| Field           | Value    |
|-----------------|----------|
| Event Index     | 4/4      |
| Offset          | 0x0019   |
| Data Size       | 87 bytes |
| Calculated Size | 87 bytes |
| Instructions    | 7        |

```
      00 01 02 03 04 05 06 07  08 09 0A 0B 0C 0D 0E 0F
      -- -- -- -- -- -- -- --  -- -- -- -- -- -- -- --
0010:                             45 04 80 F0 FF FF 7F           E......
0020: F0 FF FF 7F 73 30 33 36  05 80 45 06 80 F0 FF FF  ....s036..E.....
0030: 7F F0 FF FF 7F 66 64 69  31 05 80 1C 07 80 52 04  .....fdi1.....R.
0040: 80 F0 FF FF 7F F0 FF FF  7F 73 30 33 36 45 06 80  .........s036E..
0050: F0 FF FF 7F F0 FF FF 7F  6F 76 6C 31 05 80 45 04  ........ovl1..E.
0060: 80 F0 FF FF 7F F0 FF FF  7F 73 30 33 37 05 80 00  .........s037...
```

## Opcodes

```
  0: 0x0019 [0x45] LOAD_SCHEDULED_TASK(work_offset1=150*, entity1=LocalPlayer, entity2=LocalPlayer, scheduler_id="s036", work_offset2=0*)
  1: 0x002A [0x45] LOAD_SCHEDULED_TASK(work_offset1=200*, entity1=LocalPlayer, entity2=LocalPlayer, scheduler_id="fdi1", work_offset2=0*)
  2: 0x003B [0x1C] WAIT(240* ticks)
  3: 0x003E [0x52] END_LOAD_SCHEDULER: End scheduler "s036" with entities [LocalPlayer, LocalPlayer], work=150*
  4: 0x004D [0x45] LOAD_SCHEDULED_TASK(work_offset1=200*, entity1=LocalPlayer, entity2=LocalPlayer, scheduler_id="ovl1", work_offset2=0*)
  5: 0x005E [0x45] LOAD_SCHEDULED_TASK(work_offset1=150*, entity1=LocalPlayer, entity2=LocalPlayer, scheduler_id="s037", work_offset2=0*)
  6: 0x006F [0x00] END_REQSTACK()
```
