# 17846793 - Dummy

## Common Data

| Field            | Value                          |
|------------------|--------------------------------|
| Zone             | Ceizak Battlegrounds (ID: 261) |
| Block Size       | 252 bytes                      |
| Total Events     | 2                              |
| References Count | 10                             |

## List of Events

| Event ID              | Entrypoint   |   Size |   Instructions |
|-----------------------|--------------|--------|----------------|
| [65535](#event-65535) | 0x0000       |      1 |              1 |
| [26](#event-26)       | 0x0001       |    185 |             24 |

## DAT References (imed_data)

|   Index | Hex Value   |   Dec Value |
|---------|-------------|-------------|
|       0 | 0x00C8      |         200 |
|       1 | 0x0000      |           0 |
|       2 | 0x0013      |          19 |
|       3 | 0xFFFF8641  |  4294936129 |
|       4 | 0xFFFF19B7  |  4294908343 |
|       5 | 0x0208      |         520 |
|       6 | 0x0FC7      |        4039 |
|       7 | 0x028B      |         651 |
|       8 | 0x1E76      |        7798 |
|       9 | 0x0D43      |        3395 |

## String References

- **7798**: Push button to continue.

## Events

### Event 65535

#### Metadata

| Field        | Value   |
|--------------|---------|
| Entrypoint   | 0x0000  |
| Data Size    | 1 bytes |
| Instructions | 1       |

```
      00 01 02 03 04 05 06 07  08 09 0A 0B 0C 0D 0E 0F
      -- -- -- -- -- -- -- --  -- -- -- -- -- -- -- --
0000: 00                                                .               
```

#### Opcodes

```
  0: 0x0000 [0x00] END_REQSTACK()
```

### Event 26

#### Metadata

| Field        | Value     |
|--------------|-----------|
| Entrypoint   | 0x0001    |
| Data Size    | 185 bytes |
| Instructions | 24        |

```
      00 01 02 03 04 05 06 07  08 09 0A 0B 0C 0D 0E 0F
      -- -- -- -- -- -- -- --  -- -- -- -- -- -- -- --
0000:    42 46 01 45 00 80 F0  FF FF 7F F0 FF FF 7F 66   BF.E..........f
0010: 64 6F 31 01 80 55 00 80  F0 FF FF 7F F0 FF FF 7F  do1..U..........
0020: 66 64 6F 31 38 02 80 2F  00 FB 51 10 01 4E 00 FB  fdo18../..Q..N..
0030: 51 10 01 94 01 FB 51 10  01 BA FB 51 10 01 03 80  Q.....Q....Q....
0040: 04 80 05 80 06 80 80 FB  51 10 01 45 07 80 F0 FF  ........Q..E....
0050: FF 7F F0 FF FF 7F 30 64  30 30 01 80 45 00 80 F0  ......0d00..E...
0060: FF FF 7F F0 FF FF 7F 66  64 69 31 01 80 48 08 80  .......fdi1..H..
0070: 23 5B 09 80 FB 51 10 01  FB 51 10 01 31 30 30 30  #[...Q...Q..1000
0080: 48 08 80 23 45 00 80 F0  FF FF 7F F0 FF FF 7F 66  H..#E..........f
0090: 64 6F 31 01 80 55 00 80  F0 FF FF 7F F0 FF FF 7F  do1..U..........
00A0: 66 64 6F 31 78 46 00 45  00 80 F0 FF FF 7F F0 FF  fdo1xF.E........
00B0: FF 7F 66 64 69 32 01 80  21 00                    ..fdi2..!.      
```

#### Opcodes

```
  0: 0x0001 [0x42] SET_CLI_EVENT_CANCEL_DATA()
  1: 0x0002 [0x46] CAMERA_CONTROL: Disable user control
  2: 0x0004 [0x45] LOAD_SCHEDULED_TASK: Load scheduler "fdo1" with entities [LocalPlayer, LocalPlayer], work=[200*, 0*]
  3: 0x0015 [0x55] WAIT_LOAD_SCHEDULER: Wait for scheduler "fdo1" with entities [LocalPlayer, LocalPlayer], work=200*
  4: 0x0024 [0x38] SET_CLIENT_EVENT_MODE(mode=19*)
  5: 0x0027 [0x2F] Unnamed NPC (ID: 17846779/0x011051FB)->Render.Flags0 &= ~0x80000 // Bit 19
  6: 0x002D [0x4E] SET_ENTITY_HIDE_FLAG: Show Unnamed NPC (ID: 17846779/0x011051FB)
  7: 0x0033 [0x94] Unnamed NPC (ID: 17846779/0x011051FB)->Render.Flags3 ^= 0x01
  8: 0x0039 [0xBA] SET_ENTITY_POSITION(entity_id=Unnamed NPC (ID: 17846779/0x011051FB), pos_x=-31.167*, pos_z=-58.953*, pos_y=0.520*, direction=355.0°*)
  9: 0x0046 [0x80] LOAD_WAIT(entity=Unnamed NPC (ID: 17846779/0x011051FB))
 10: 0x004B [0x45] LOAD_SCHEDULED_TASK: Load scheduler "0d00" with entities [LocalPlayer, LocalPlayer], work=[651*, 0*]
 11: 0x005C [0x45] LOAD_SCHEDULED_TASK: Load scheduler "fdi1" with entities [LocalPlayer, LocalPlayer], work=[200*, 0*]
 12: 0x006D [0x48] [System] [7798*]:
    → "Push button to continue."
 13: 0x0070 [0x23] WAIT_FOR_DIALOG_INTERACTION
 14: 0x0071 [0x5B] LOAD_EXT_SCHEDULER: Load scheduler "1000" with entities [Unnamed NPC (ID: 17846779/0x011051FB), Unnamed NPC (ID: 17846779/0x011051FB)], work=3395*
 15: 0x0080 [0x48] [System] [7798*]:
    → "Push button to continue."
 16: 0x0083 [0x23] WAIT_FOR_DIALOG_INTERACTION
 17: 0x0084 [0x45] LOAD_SCHEDULED_TASK: Load scheduler "fdo1" with entities [LocalPlayer, LocalPlayer], work=[200*, 0*]
 18: 0x0095 [0x55] WAIT_LOAD_SCHEDULER: Wait for scheduler "fdo1" with entities [LocalPlayer, LocalPlayer], work=200*
 19: 0x00A4 [0x78] ENABLE_GAME_TIMER_RESET_WEATHER()
 20: 0x00A5 [0x46] CAMERA_CONTROL: Restore default settings
 21: 0x00A7 [0x45] LOAD_SCHEDULED_TASK: Load scheduler "fdi2" with entities [LocalPlayer, LocalPlayer], work=[200*, 0*]
 22: 0x00B8 [0x21] END_EVENT
 23: 0x00B9 [0x00] END_REQSTACK()
```
