# 17846827

## Common Data

| Field            | Value                          |
|------------------|--------------------------------|
| Zone             | Ceizak Battlegrounds (ID: 261) |
| Block Size       | 11568 bytes                    |
| Total Events     | 2                              |
| References Count | 309                            |

## List of Events

| Event ID              | Entrypoint   |   Size |   Instructions |
|-----------------------|--------------|--------|----------------|
| [65535](#event-65535) | 0x0000       |      1 |              1 |
| [36](#event-36)       | 0x0001       |  10306 |           1139 |

## DAT References (imed_data)

|   Index | Hex Value   |   Dec Value |
|---------|-------------|-------------|
|       0 | 0x00C8      |         200 |
|       1 | 0x0000      |           0 |
|       2 | 0x0013      |          19 |
|       3 | 0x3E166     |      254310 |
|       4 | 0xFFFC8B8C  |  4294740876 |
|       5 | 0x0122      |         290 |
|       6 | 0x0090      |         144 |
|       7 | 0x43044     |      274500 |
|       8 | 0xFFFC4AC8  |  4294724296 |
|       9 | 0x037F      |         895 |
|      10 | 0x466F4     |      288500 |
|      11 | 0xFFFC2D7C  |  4294716796 |
|      12 | 0x0294      |         660 |
|      13 | 0x01BF      |         447 |
|      14 | 0x46ADC     |      289500 |
|      15 | 0xFFFC3358  |  4294718296 |
|      16 | 0x02BC      |         700 |
|      17 | 0x02BF      |         703 |
|      18 | 0x441D8     |      279000 |
|      19 | 0xFFFC2F70  |  4294717296 |
|      20 | 0x0190      |         400 |
|      21 | 0x03FF      |        1023 |
|      22 | 0x3E474     |      255092 |
|      23 | 0xFFFC8EEE  |  4294741742 |
|      24 | 0x0172      |         370 |
|      25 | 0x48C7E     |      298110 |
|      26 | 0xFFFC0CAC  |  4294708396 |
|      27 | 0x02F8      |         760 |
|      28 | 0x09C4      |        2500 |
|      29 | 0x49B30     |      301872 |
|      30 | 0xFFFCC590  |  4294755728 |
|      31 | 0xFFFFE002  |  4294959106 |
|      32 | 0x0737      |        1847 |
|      33 | 0x47ABC     |      293564 |
|      34 | 0xFFFC88DF  |  4294740191 |
|      35 | 0xFFFFED86  |  4294962566 |
|      36 | 0x0158      |         344 |
|      37 | 0x0E13      |        3603 |
|      38 | 0x0CD1      |        3281 |
|      39 | 0x0001      |           1 |
|      40 | 0x4374C     |      276300 |
|      41 | 0xFFFC27A0  |  4294715296 |
|      42 | 0x01FE      |         510 |
|      43 | 0x04FF      |        1279 |
|      44 | 0x003C      |          60 |
|      45 | 0x0003      |           3 |
|      46 | 0x032A      |         810 |
|      47 | 0x0004      |           4 |
|      48 | 0x0008      |           8 |
|      49 | 0x00F0      |         240 |
|      50 | 0x005A      |          90 |
|      51 | 0x20AB      |        8363 |
|      52 | 0x0078      |         120 |
|      53 | 0x000F      |          15 |
|      54 | 0x0005      |           5 |
|      55 | 0x001E      |          30 |
|      56 | 0x0006      |           6 |
|      57 | 0x0096      |         150 |
|      58 | 0x0CB0      |        3248 |
|      59 | 0x20AC      |        8364 |
|      60 | 0x20AD      |        8365 |
|      61 | 0x20AE      |        8366 |
|      62 | 0x20AF      |        8367 |
|      63 | 0x20B0      |        8368 |
|      64 | 0x1E77      |        7799 |
|      65 | 0x48076     |      295030 |
|      66 | 0xFFFC135A  |  4294710106 |
|      67 | 0x0302      |         770 |
|      68 | 0x473B4     |      291764 |
|      69 | 0xFFFC0DF3  |  4294708723 |
|      70 | 0x0325      |         805 |
|      71 | 0x20B1      |        8369 |
|      72 | 0x096A      |        2410 |
|      73 | 0x20B2      |        8370 |
|      74 | 0x20B3      |        8371 |
|      75 | 0x014A      |         330 |
|      76 | 0x20B4      |        8372 |
|      77 | 0x000A      |          10 |
|      78 | 0x20B5      |        8373 |
|      79 | 0x20B6      |        8374 |
|      80 | 0x20B7      |        8375 |
|      81 | 0x0018      |          24 |
|      82 | 0x00B4      |         180 |
|      83 | 0x0CF7      |        3319 |
|      84 | 0x20B8      |        8376 |
|      85 | 0x20B9      |        8377 |
|      86 | 0x00AE      |         174 |
|      87 | 0x0CB7      |        3255 |
|      88 | 0x20BA      |        8378 |
|      89 | 0x0064      |         100 |
|      90 | 0x00C9      |         201 |
|      91 | 0x0014      |          20 |
|      92 | 0x00B1      |         177 |
|      93 | 0x20BB      |        8379 |
|      94 | 0x20BC      |        8380 |
|      95 | 0x20BD      |        8381 |
|      96 | 0x20BE      |        8382 |
|      97 | 0x20BF      |        8383 |
|      98 | 0x0007      |           7 |
|      99 | 0x0040      |          64 |
|     100 | 0x007F      |         127 |
|     101 | 0x20C0      |        8384 |
|     102 | 0x002D      |          45 |
|     103 | 0x004B      |          75 |
|     104 | 0x20C1      |        8385 |
|     105 | 0x0028      |          40 |
|     106 | 0x466FE     |      288510 |
|     107 | 0xFFFC36FA  |  4294719226 |
|     108 | 0x028A      |         650 |
|     109 | 0x01FF      |         511 |
|     110 | 0x00F5      |         245 |
|     111 | 0x0080      |         128 |
|     112 | 0x20C2      |        8386 |
|     113 | 0x0CD2      |        3282 |
|     114 | 0x20C3      |        8387 |
|     115 | 0x005C      |          92 |
|     116 | 0x20C4      |        8388 |
|     117 | 0x00B2      |         178 |
|     118 | 0x20C5      |        8389 |
|     119 | 0x20C6      |        8390 |
|     120 | 0x49700     |      300800 |
|     121 | 0xFFFC53F6  |  4294726646 |
|     122 | 0x03E8      |        1000 |
|     123 | 0x06A4      |        1700 |
|     124 | 0x0CD3      |        3283 |
|     125 | 0x20C7      |        8391 |
|     126 | 0x46AAA     |      289450 |
|     127 | 0xFFFC2A2A  |  4294715946 |
|     128 | 0x0A28      |        2600 |
|     129 | 0xFFFC3164  |  4294717796 |
|     130 | 0x4630C     |      287500 |
|     131 | 0xFFFC2C50  |  4294716496 |
|     132 | 0x0262      |         610 |
|     133 | 0xFFFFFF9C  |  4294967196 |
|     134 | 0x0CA4      |        3236 |
|     135 | 0x20C8      |        8392 |
|     136 | 0x0E14      |        3604 |
|     137 | 0x46807     |      288775 |
|     138 | 0xFFFC2D28  |  4294716712 |
|     139 | 0x0163      |         355 |
|     140 | 0x0F04      |        3844 |
|     141 | 0x20C9      |        8393 |
|     142 | 0x20CA      |        8394 |
|     143 | 0x20CB      |        8395 |
|     144 | 0x45629     |      284201 |
|     145 | 0xFFFC658D  |  4294731149 |
|     146 | 0x0971      |        2417 |
|     147 | 0x3D619     |      251417 |
|     148 | 0xFFFC98C2  |  4294744258 |
|     149 | 0x012C      |         300 |
|     150 | 0x091C      |        2332 |
|     151 | 0x40052     |      262226 |
|     152 | 0xFFFC84F0  |  4294739184 |
|     153 | 0x0188      |         392 |
|     154 | 0x0911      |        2321 |
|     155 | 0x0400      |        1024 |
|     156 | 0x455D8     |      284120 |
|     157 | 0xFFFC5C6A  |  4294728810 |
|     158 | 0xFFFFFF92  |  4294967186 |
|     159 | 0x0E17      |        3607 |
|     160 | 0x0EAE      |        3758 |
|     161 | 0x20CC      |        8396 |
|     162 | 0x20CD      |        8397 |
|     163 | 0x006C      |         108 |
|     164 | 0x42128     |      270632 |
|     165 | 0xFFFC787A  |  4294735994 |
|     166 | 0x0174      |         372 |
|     167 | 0x010A      |         266 |
|     168 | 0x436E2     |      276194 |
|     169 | 0xFFFC7329  |  4294734633 |
|     170 | 0x4257B     |      271739 |
|     171 | 0xFFFC7B34  |  4294736692 |
|     172 | 0x0116      |         278 |
|     173 | 0x0046      |          70 |
|     174 | 0x00FF      |         255 |
|     175 | 0x0E15      |        3605 |
|     176 | 0x20CE      |        8398 |
|     177 | 0x20CF      |        8399 |
|     178 | 0x4D840     |      317504 |
|     179 | 0xFFFCAF88  |  4294750088 |
|     180 | 0xFFFFD071  |  4294955121 |
|     181 | 0x0707      |        1799 |
|     182 | 0x20D0      |        8400 |
|     183 | 0x20D1      |        8401 |
|     184 | 0x20D2      |        8402 |
|     185 | 0x20D3      |        8403 |
|     186 | 0x20D4      |        8404 |
|     187 | 0x4304E     |      274510 |
|     188 | 0xFFFC7886  |  4294736006 |
|     189 | 0x0077      |         119 |
|     190 | 0x20D5      |        8405 |
|     191 | 0x0D6D      |        3437 |
|     192 | 0x0EAD      |        3757 |
|     193 | 0x47E2D     |      294445 |
|     194 | 0xFFFC7C69  |  4294737001 |
|     195 | 0xFFFFF833  |  4294965299 |
|     196 | 0x0417      |        1047 |
|     197 | 0x003E      |          62 |
|     198 | 0x47CA0     |      294048 |
|     199 | 0xFFFC55AF  |  4294727087 |
|     200 | 0x01F3      |         499 |
|     201 | 0x001C      |          28 |
|     202 | 0x0E16      |        3606 |
|     203 | 0x20D6      |        8406 |
|     204 | 0x0EAB      |        3755 |
|     205 | 0x46501     |      288001 |
|     206 | 0xFFFC529F  |  4294726303 |
|     207 | 0x014B      |         331 |
|     208 | 0x0800      |        2048 |
|     209 | 0x485AF     |      296367 |
|     210 | 0xFFFC59EA  |  4294728170 |
|     211 | 0x0258      |         600 |
|     212 | 0x0ED3      |        3795 |
|     213 | 0x0DC2      |        3522 |
|     214 | 0x453F8     |      283640 |
|     215 | 0xFFFBC37A  |  4294689658 |
|     216 | 0x00D4      |         212 |
|     217 | 0x07C0      |        1984 |
|     218 | 0x45204     |      283140 |
|     219 | 0xFFFBC370  |  4294689648 |
|     220 | 0xFFFFFAC6  |  4294965958 |
|     221 | 0x000C      |          12 |
|     222 | 0x44F48     |      282440 |
|     223 | 0xFFFBBE33  |  4294688307 |
|     224 | 0xFFFFFFE5  |  4294967269 |
|     225 | 0x0BD1      |        3025 |
|     226 | 0x008E      |         142 |
|     227 | 0x0002      |           2 |
|     228 | 0x0098      |         152 |
|     229 | 0x00A2      |         162 |
|     230 | 0x00AC      |         172 |
|     231 | 0x44E68     |      282216 |
|     232 | 0xFFFBBAB3  |  4294687411 |
|     233 | 0x0B70      |        2928 |
|     234 | 0x00B6      |         182 |
|     235 | 0x00C0      |         192 |
|     236 | 0x00CA      |         202 |
|     237 | 0x0082      |         130 |
|     238 | 0x0D66      |        3430 |
|     239 | 0x0514      |        1300 |
|     240 | 0x00AA      |         170 |
|     241 | 0x03E7      |         999 |
|     242 | 0x0EAC      |        3756 |
|     243 | 0x453CC     |      283596 |
|     244 | 0xFFFBBBD1  |  4294687697 |
|     245 | 0x09A9      |        2473 |
|     246 | 0xFFFBBC9D  |  4294687901 |
|     247 | 0x0941      |        2369 |
|     248 | 0x0059      |          89 |
|     249 | 0x40083     |      262275 |
|     250 | 0xFFFC8842  |  4294740034 |
|     251 | 0x0153      |         339 |
|     252 | 0x08DF      |        2271 |
|     253 | 0x436AC     |      276140 |
|     254 | 0xFFFC76D8  |  4294735576 |
|     255 | 0x43C4E     |      277582 |
|     256 | 0xFFFC6B5F  |  4294732639 |
|     257 | 0x0920      |        2336 |
|     258 | 0x20D7      |        8407 |
|     259 | 0x448BE     |      280766 |
|     260 | 0xFFFC7D4B  |  4294737227 |
|     261 | 0xFFFFFFB7  |  4294967223 |
|     262 | 0x0819      |        2073 |
|     263 | 0x43D58     |      277848 |
|     264 | 0xFFFC6A48  |  4294732360 |
|     265 | 0xFFFF3CB0  |  4294917296 |
|     266 | 0x0FF3      |        4083 |
|     267 | 0x43A9C     |      277148 |
|     268 | 0xFFFC7BF2  |  4294736882 |
|     269 | 0x0093      |         147 |
|     270 | 0xFFFFFFCE  |  4294967246 |
|     271 | 0xFFFFFFAB  |  4294967211 |
|     272 | 0x00D5      |         213 |
|     273 | 0x0D60      |        3424 |
|     274 | 0x20D8      |        8408 |
|     275 | 0x20D9      |        8409 |
|     276 | 0x20DA      |        8410 |
|     277 | 0x20DB      |        8411 |
|     278 | 0x20DC      |        8412 |
|     279 | 0x20DD      |        8413 |
|     280 | 0x20DE      |        8414 |
|     281 | 0x010E      |         270 |
|     282 | 0x02C8      |         712 |
|     283 | 0x537F0     |      342000 |
|     284 | 0x783D4     |      492500 |
|     285 | 0xFFFFD90E  |  4294957326 |
|     286 | 0x0BB8      |        3000 |
|     287 | 0x53A2A     |      342570 |
|     288 | 0x7AC10     |      502800 |
|     289 | 0xFFFFD97C  |  4294957436 |
|     290 | 0x05BE      |        1470 |
|     291 | 0x5640A     |      353290 |
|     292 | 0x79B62     |      498530 |
|     293 | 0xFFFFD904  |  4294957316 |
|     294 | 0x5A32A     |      369450 |
|     295 | 0x38270     |      230000 |
|     296 | 0x5A2F8     |      369400 |
|     297 | 0x3DE0A     |      253450 |
|     298 | 0x5C42C     |      377900 |
|     299 | 0x66198     |      418200 |
|     300 | 0xFFFFAD30  |  4294946096 |
|     301 | 0x5B8D8     |      375000 |
|     302 | 0x66774     |      419700 |
|     303 | 0xFFFFB2BC  |  4294947516 |
|     304 | 0x57670     |      358000 |
|     305 | 0x668A0     |      420000 |
|     306 | 0xFFFFB1E0  |  4294947296 |
|     307 | 0x0186      |         390 |
|     308 | 0x02C1      |         705 |

## String References

- **7799**: 
- **8408**: The following is an excerpt from the biography of a certain individual...
- **8409**: In the distant future...
- **8410**: The allied nation was drawn together under the rule of a single queen...
- **8411**: It expanded in both size and splendor, and its name and queen would be known throughout the land.
- **8412**: Although it would take some time for their fame to reach such heights...
- **8413**: The young queen sauntered forth with her jeweled sword hanging from her hip...
- **8414**: And her many great deeds performed were actually the work of a small tree-like spirit...$0

## Events

### Event 65535

#### Metadata

| Field        | Value   |
|--------------|---------|
| Entrypoint   | 0x0000  |
| Data Size    | 1 bytes |
| Instructions | 1       |

```
      00 01 02 03 04 05 06 07  08 09 0A 0B 0C 0D 0E 0F
      -- -- -- -- -- -- -- --  -- -- -- -- -- -- -- --
0000: 00                                                .               
```

#### Opcodes

```
  0: 0x0000 [0x00] END_REQSTACK()
```

### Event 36

#### Metadata

| Field        | Value       |
|--------------|-------------|
| Entrypoint   | 0x0001      |
| Data Size    | 10306 bytes |
| Instructions | 1139        |

```
      00 01 02 03 04 05 06 07  08 09 0A 0B 0C 0D 0E 0F
      -- -- -- -- -- -- -- --  -- -- -- -- -- -- -- --
0000:    42 45 00 80 F0 FF FF  7F F0 FF FF 7F 66 64 6F   BE..........fdo
0010: 31 01 80 55 00 80 F0 FF  FF 7F F0 FF FF 7F 66 64  1..U..........fd
0020: 6F 31 46 01 38 02 80 2F  00 FA 51 10 01 2F 00 FB  o1F.8../..Q../..
0030: 51 10 01 2F 00 FC 51 10  01 2F 00 FD 51 10 01 2F  Q../..Q../..Q../
0040: 00 FE 51 10 01 2F 00 FF  51 10 01 2F 00 00 52 10  ..Q../..Q../..R.
0050: 01 2F 00 01 52 10 01 2F  00 0A 52 10 01 22 00 4E  ./..R../..R..".N
0060: 00 FB 51 10 01 4E 00 FC  51 10 01 4E 00 FD 51 10  ..Q..N..Q..N..Q.
0070: 01 4E 00 0A 52 10 01 94  01 FA 51 10 01 94 01 FB  .N..R.....Q.....
0080: 51 10 01 94 01 FC 51 10  01 94 01 FD 51 10 01 94  Q.....Q.....Q...
0090: 01 FE 51 10 01 94 01 FF  51 10 01 94 01 00 52 10  ..Q.....Q.....R.
00A0: 01 94 01 01 52 10 01 94  01 0A 52 10 01 94 01 F0  ....R.....R.....
00B0: FF FF 7F 59 05 0A 52 10  01 01 BA FA 51 10 01 03  ...Y..R.....Q...
00C0: 80 04 80 05 80 06 80 BA  FB 51 10 01 07 80 08 80  .........Q......
00D0: 01 80 09 80 BA FC 51 10  01 0A 80 0B 80 0C 80 0D  ......Q.........
00E0: 80 BA FD 51 10 01 0E 80  0F 80 10 80 11 80 BA FE  ...Q............
00F0: 51 10 01 12 80 13 80 14  80 15 80 BA FF 51 10 01  Q............Q..
0100: 16 80 17 80 18 80 06 80  BA 00 52 10 01 19 80 1A  ..........R.....
0110: 80 1B 80 1C 80 59 05 01  52 10 01 01 BA 01 52 10  .....Y..R.....R.
0120: 01 1D 80 1E 80 1F 80 20  80 BA 0A 52 10 01 21 80  ....... ...R..!.
0130: 22 80 23 80 24 80 5B 25  80 FC 51 10 01 FC 51 10  ".#.$.[%..Q...Q.
0140: 01 69 6B 69 30 5B 26 80  FD 51 10 01 FD 51 10 01  .iki0[&..Q...Q..
0150: 73 74 64 30 80 FB 51 10  01 80 FC 51 10 01 80 FD  std0..Q....Q....
0160: 51 10 01 6C FC 51 10 01  01 80 27 80 6C FD 51 10  Q..l.Q....'.l.Q.
0170: 01 01 80 27 80 80 0A 52  10 01 7B F0 FF FF 7F BA  ...'...R..{.....
0180: F0 FF FF 7F 28 80 29 80  2A 80 2B 80 29 10 F0 FF  ....(.).*.+.)...
0190: FF 7F 41 4A FB 51 10 01  F0 FF FF 7F 7B FB 51 10  ..AJ.Q......{.Q.
01A0: 01 1C 2C 80 02 87 7F 2D  80 80 C0 01 45 2E 80 F8  ..,....-....E...
01B0: FF FF 7F F8 FF FF 7F 73  67 30 30 01 80 01 09 02  .......sg00.....
01C0: 02 87 7F 2F 80 80 DC 01  45 2E 80 F8 FF FF 7F F8  .../....E.......
01D0: FF FF 7F 73 67 30 30 01  80 01 09 02 02 87 7F 30  ...sg00........0
01E0: 80 80 F8 01 45 2E 80 F8  FF FF 7F F8 FF FF 7F 73  ....E..........s
01F0: 67 30 30 01 80 01 09 02  45 2E 80 F8 FF FF 7F F8  g00.....E.......
0200: FF FF 7F 73 30 30 30 01  80 45 00 80 F0 FF FF 7F  ...s000..E......
0210: F0 FF FF 7F 66 64 69 31  01 80 55 00 80 F0 FF FF  ....fdi1..U.....
0220: 7F F0 FF FF 7F 66 64 69  31 1C 31 80 27 10 FB 51  .....fdi1.1.'..Q
0230: 10 01 67 2A 10 FB 51 10  01 4A FB 51 10 01 F0 FF  ..g*..Q..J.Q....
0240: FF 7F 1C 32 80 B4 00 00  00 3F 3F 3F 00 00 00 00  ...2.....???....
0250: 00 00 00 00 00 00 00 00  00 B5 00 00 00 B0 00 F8  ................
0260: FF FF 7F FB 51 10 01 33  80 1C 34 80 23 27 10 F0  ....Q..3..4.#'..
0270: FF FF 7F 42 1C 35 80 27  10 FB 51 10 01 68 1C 36  ...B.5.'..Q..h.6
0280: 80 02 87 7F 2D 80 80 AC  02 52 2E 80 F8 FF FF 7F  ....-....R......
0290: F8 FF FF 7F 73 67 30 30  45 2E 80 F8 FF FF 7F F8  ....sg00E.......
02A0: FF FF 7F 73 67 30 31 01  80 01 22 03 02 87 7F 2F  ...sg01..."..../
02B0: 80 80 D7 02 52 2E 80 F8  FF FF 7F F8 FF FF 7F 73  ....R..........s
02C0: 67 30 30 45 2E 80 F8 FF  FF 7F F8 FF FF 7F 73 67  g00E..........sg
02D0: 30 31 01 80 01 22 03 02  87 7F 30 80 80 02 03 52  01..."....0....R
02E0: 2E 80 F8 FF FF 7F F8 FF  FF 7F 73 67 30 30 45 2E  ..........sg00E.
02F0: 80 F8 FF FF 7F F8 FF FF  7F 73 67 30 31 01 80 01  .........sg01...
0300: 22 03 52 2E 80 F8 FF FF  7F F8 FF FF 7F 73 30 30  ".R..........s00
0310: 30 45 2E 80 F8 FF FF 7F  F8 FF FF 7F 73 30 30 31  0E..........s001
0320: 01 80 2A 10 F0 FF FF 7F  1C 35 80 4A F0 FF FF 7F  ..*......5.J....
0330: FB 51 10 01 1C 37 80 02  87 7F 2D 80 80 62 03 52  .Q...7....-..b.R
0340: 2E 80 F8 FF FF 7F F8 FF  FF 7F 73 67 30 31 45 2E  ..........sg01E.
0350: 80 F8 FF FF 7F F8 FF FF  7F 73 30 30 32 01 80 01  .........s002...
0360: 2E 04 02 87 7F 2F 80 80  8D 03 52 2E 80 F8 FF FF  ...../....R.....
0370: 7F F8 FF FF 7F 73 67 30  31 45 2E 80 F8 FF FF 7F  .....sg01E......
0380: F8 FF FF 7F 73 30 30 32  01 80 01 2E 04 02 87 7F  ....s002........
0390: 36 80 80 B8 03 52 2E 80  F8 FF FF 7F F8 FF FF 7F  6....R..........
03A0: 73 30 30 31 45 2E 80 F8  FF FF 7F F8 FF FF 7F 73  s001E..........s
03B0: 74 30 32 01 80 01 2E 04  02 87 7F 38 80 80 E3 03  t02........8....
03C0: 52 2E 80 F8 FF FF 7F F8  FF FF 7F 73 30 30 31 45  R..........s001E
03D0: 2E 80 F8 FF FF 7F F8 FF  FF 7F 73 74 30 32 01 80  ..........st02..
03E0: 01 2E 04 02 87 7F 30 80  80 0E 04 52 2E 80 F8 FF  ......0....R....
03F0: FF 7F F8 FF FF 7F 73 67  30 31 45 2E 80 F8 FF FF  ......sg01E.....
0400: 7F F8 FF FF 7F 73 30 30  32 01 80 01 2E 04 52 2E  .....s002.....R.
0410: 80 F8 FF FF 7F F8 FF FF  7F 73 30 30 31 45 2E 80  .........s001E..
0420: F8 FF FF 7F F8 FF FF 7F  73 30 30 32 01 80 2A 10  ........s002..*.
0430: FB 51 10 01 1C 36 80 4A  F0 FF FF 7F FB 51 10 01  .Q...6.J.....Q..
0440: 6F 76 F0 FF FF 7F 27 10  F0 FF FF 7F 40 1C 39 80  ov....'.....@.9.
0450: 02 87 7F 36 80 80 6A 04  52 2E 80 F8 FF FF 7F F8  ...6..j.R.......
0460: FF FF 7F 73 74 30 32 01  93 04 02 87 7F 38 80 80  ...st02......8..
0470: 84 04 52 2E 80 F8 FF FF  7F F8 FF FF 7F 73 74 30  ..R..........st0
0480: 32 01 93 04 52 2E 80 F8  FF FF 7F F8 FF FF 7F 73  2...R..........s
0490: 30 30 32 45 2E 80 F8 FF  FF 7F F8 FF FF 7F 73 30  002E..........s0
04A0: 30 33 01 80 5B 3A 80 FB  51 10 01 FB 51 10 01 74  03..[:..Q...Q..t
04B0: 6C 6B 30 2B FB 51 10 01  3B 80 1C 34 80 23 5B 3A  lk0+.Q..;..4.#[:
04C0: 80 FB 51 10 01 FB 51 10  01 74 6C 6B 31 2B FB 51  ..Q...Q..tlk1+.Q
04D0: 10 01 3C 80 1C 39 80 23  52 2E 80 F8 FF FF 7F F8  ..<..9.#R.......
04E0: FF FF 7F 73 30 30 33 02  87 7F 2D 80 80 03 05 45  ...s003...-....E
04F0: 2E 80 F8 FF FF 7F F8 FF  FF 7F 73 67 30 34 01 80  ..........sg04..
0500: 01 84 05 02 87 7F 2F 80  80 1F 05 45 2E 80 F8 FF  ....../....E....
0510: FF 7F F8 FF FF 7F 73 67  30 34 01 80 01 84 05 02  ......sg04......
0520: 87 7F 36 80 80 3B 05 45  2E 80 F8 FF FF 7F F8 FF  ..6..;.E........
0530: FF 7F 73 74 30 34 01 80  01 84 05 02 87 7F 38 80  ..st04........8.
0540: 80 57 05 45 2E 80 F8 FF  FF 7F F8 FF FF 7F 73 74  .W.E..........st
0550: 30 34 01 80 01 84 05 02  87 7F 30 80 80 73 05 45  04........0..s.E
0560: 2E 80 F8 FF FF 7F F8 FF  FF 7F 73 67 30 34 01 80  ..........sg04..
0570: 01 84 05 45 2E 80 F8 FF  FF 7F F8 FF FF 7F 73 30  ...E..........s0
0580: 30 34 01 80 5B 3A 80 FB  51 10 01 FB 51 10 01 74  04..[:..Q...Q..t
0590: 6C 6B 30 2B FB 51 10 01  3D 80 23 2B FB 51 10 01  lk0+.Q..=.#+.Q..
05A0: 3E 80 1C 39 80 23 5B 3A  80 FB 51 10 01 FB 51 10  >..9.#[:..Q...Q.
05B0: 01 74 6C 6B 31 02 87 7F  2D 80 80 CF 05 52 2E 80  .tlk1...-....R..
05C0: F8 FF FF 7F F8 FF FF 7F  73 67 30 34 01 46 06 02  ........sg04.F..
05D0: 87 7F 2F 80 80 E9 05 52  2E 80 F8 FF FF 7F F8 FF  ../....R........
05E0: FF 7F 73 67 30 34 01 46  06 02 87 7F 36 80 80 03  ..sg04.F....6...
05F0: 06 52 2E 80 F8 FF FF 7F  F8 FF FF 7F 73 74 30 34  .R..........st04
0600: 01 46 06 02 87 7F 38 80  80 1D 06 52 2E 80 F8 FF  .F....8....R....
0610: FF 7F F8 FF FF 7F 73 74  30 34 01 46 06 02 87 7F  ......st04.F....
0620: 30 80 80 37 06 52 2E 80  F8 FF FF 7F F8 FF FF 7F  0..7.R..........
0630: 73 67 30 34 01 46 06 52  2E 80 F8 FF FF 7F F8 FF  sg04.F.R........
0640: FF 7F 73 30 30 34 45 2E  80 F8 FF FF 7F F8 FF FF  ..s004E.........
0650: 7F 73 30 30 35 01 80 2B  FB 51 10 01 3F 80 1C 39  .s005..+.Q..?..9
0660: 80 23 45 00 80 F0 FF FF  7F F0 FF FF 7F 66 64 6F  .#E..........fdo
0670: 31 01 80 55 00 80 F0 FF  FF 7F F0 FF FF 7F 66 64  1..U..........fd
0680: 6F 31 48 40 80 7B FB 51  10 01 7B F0 FF FF 7F BA  o1H@.{.Q..{.....
0690: FB 51 10 01 41 80 42 80  43 80 01 80 BA F0 FF FF  .Q..A.B.C.......
06A0: 7F 44 80 45 80 46 80 01  80 1C 34 80 27 10 FB 51  .D.E.F....4.'..Q
06B0: 10 01 69 27 10 F0 FF FF  7F 43 52 2E 80 F8 FF FF  ..i'.....CR.....
06C0: 7F F8 FF FF 7F 73 30 30  35 45 2E 80 F8 FF FF 7F  .....s005E......
06D0: F8 FF FF 7F 73 30 30 36  01 80 45 00 80 F0 FF FF  ....s006..E.....
06E0: 7F F0 FF FF 7F 66 64 69  31 01 80 55 00 80 F0 FF  .....fdi1..U....
06F0: FF 7F F0 FF FF 7F 66 64  69 31 1C 34 80 52 2E 80  ......fdi1.4.R..
0700: F8 FF FF 7F F8 FF FF 7F  73 30 30 36 45 2E 80 F8  ........s006E...
0710: FF FF 7F F8 FF FF 7F 73  30 30 37 01 80 2A 10 F0  .......s007..*..
0720: FF FF 7F 1C 37 80 2B FB  51 10 01 47 80 23 03 02  ....7.+.Q..G.#..
0730: 10 48 80 2B FB 51 10 01  49 80 1C 34 80 23 2B FB  .H.+.Q..I..4.#+.
0740: 51 10 01 4A 80 1C 39 80  23 52 2E 80 F8 FF FF 7F  Q..J..9.#R......
0750: F8 FF FF 7F 73 30 30 37  45 2E 80 F8 FF FF 7F F8  ....s007E.......
0760: FF FF 7F 73 61 30 38 01  80 1C 4B 80 2B FB 51 10  ...sa08...K.+.Q.
0770: 01 4C 80 1C 31 80 23 27  10 FB 51 10 01 6A 1C 4D  .L..1.#'..Q..j.M
0780: 80 52 2E 80 F8 FF FF 7F  F8 FF FF 7F 73 61 30 38  .R..........sa08
0790: 45 2E 80 F8 FF FF 7F F8  FF FF 7F 73 30 30 38 01  E..........s008.
07A0: 80 2B FB 51 10 01 4E 80  2A 10 FB 51 10 01 23 1C  .+.Q..N.*..Q..#.
07B0: 2C 80 4A FB 51 10 01 F0  FF FF 7F 1C 35 80 52 2E  ,.J.Q.......5.R.
07C0: 80 F8 FF FF 7F F8 FF FF  7F 73 30 30 38 02 87 7F  .........s008...
07D0: 2D 80 80 E9 07 45 2E 80  F8 FF FF 7F F8 FF FF 7F  -....E..........
07E0: 73 67 30 39 01 80 01 6A  08 02 87 7F 2F 80 80 05  sg09...j..../...
07F0: 08 45 2E 80 F8 FF FF 7F  F8 FF FF 7F 73 67 30 39  .E..........sg09
0800: 01 80 01 6A 08 02 87 7F  36 80 80 21 08 45 2E 80  ...j....6..!.E..
0810: F8 FF FF 7F F8 FF FF 7F  73 74 30 39 01 80 01 6A  ........st09...j
0820: 08 02 87 7F 38 80 80 3D  08 45 2E 80 F8 FF FF 7F  ....8..=.E......
0830: F8 FF FF 7F 73 74 30 39  01 80 01 6A 08 02 87 7F  ....st09...j....
0840: 30 80 80 59 08 45 2E 80  F8 FF FF 7F F8 FF FF 7F  0..Y.E..........
0850: 73 67 30 39 01 80 01 6A  08 45 2E 80 F8 FF FF 7F  sg09...j.E......
0860: F8 FF FF 7F 73 30 30 39  01 80 6F 76 FB 51 10 01  ....s009..ov.Q..
0870: 6F 76 FB 51 10 01 4A F0  FF FF 7F FB 51 10 01 5B  ov.Q..J.....Q..[
0880: 3A 80 FB 51 10 01 FB 51  10 01 74 6C 6B 30 2B FB  :..Q...Q..tlk0+.
0890: 51 10 01 4F 80 1C 39 80  23 5B 3A 80 FB 51 10 01  Q..O..9.#[:..Q..
08A0: FB 51 10 01 74 6C 6B 31  2B FB 51 10 01 50 80 1C  .Q..tlk1+.Q..P..
08B0: 34 80 23 1C 37 80 7B F0  FF FF 7F 6E F0 FF FF 7F  4.#.7.{....n....
08C0: 51 80 99 F0 FF FF 7F 1C  52 80 79 00 F0 FF FF 7F  Q.......R.y.....
08D0: FB 51 10 01 02 87 7F 2D  80 80 FF 08 52 2E 80 F8  .Q.....-....R...
08E0: FF FF 7F F8 FF FF 7F 73  67 30 39 45 2E 80 F8 FF  .......sg09E....
08F0: FF 7F F8 FF FF 7F 73 67  31 30 01 80 01 CB 09 02  ......sg10......
0900: 87 7F 2F 80 80 2A 09 52  2E 80 F8 FF FF 7F F8 FF  ../..*.R........
0910: FF 7F 73 67 30 39 45 2E  80 F8 FF FF 7F F8 FF FF  ..sg09E.........
0920: 7F 73 67 31 30 01 80 01  CB 09 02 87 7F 36 80 80  .sg10........6..
0930: 55 09 52 2E 80 F8 FF FF  7F F8 FF FF 7F 73 74 30  U.R..........st0
0940: 39 45 2E 80 F8 FF FF 7F  F8 FF FF 7F 73 74 31 30  9E..........st10
0950: 01 80 01 CB 09 02 87 7F  38 80 80 80 09 52 2E 80  ........8....R..
0960: F8 FF FF 7F F8 FF FF 7F  73 74 30 39 45 2E 80 F8  ........st09E...
0970: FF FF 7F F8 FF FF 7F 73  74 31 30 01 80 01 CB 09  .......st10.....
0980: 02 87 7F 30 80 80 AB 09  52 2E 80 F8 FF FF 7F F8  ...0....R.......
0990: FF FF 7F 73 67 30 39 45  2E 80 F8 FF FF 7F F8 FF  ...sg09E........
09A0: FF 7F 73 67 31 30 01 80  01 CB 09 52 2E 80 F8 FF  ..sg10.....R....
09B0: FF 7F F8 FF FF 7F 73 30  30 39 45 2E 80 F8 FF FF  ......s009E.....
09C0: 7F F8 FF FF 7F 73 30 31  30 01 80 5B 53 80 FB 51  .....s010..[S..Q
09D0: 10 01 FB 51 10 01 74 6C  61 30 2B FB 51 10 01 54  ...Q..tla0+.Q..T
09E0: 80 23 2B FB 51 10 01 55  80 1C 39 80 5B 53 80 FB  .#+.Q..U..9.[S..
09F0: 51 10 01 FB 51 10 01 74  6C 61 31 1C 2C 80 5D 01  Q...Q..tla1.,.].
0A00: 80 14 80 CD 56 80 F0 FF  FF 7F F0 FF FF 7F 73 74  ....V.........st
0A10: 61 72 01 80 1C 2C 80 02  87 7F 2D 80 80 31 0A 52  ar...,....-..1.R
0A20: 2E 80 F8 FF FF 7F F8 FF  FF 7F 73 67 31 30 01 A8  ..........sg10..
0A30: 0A 02 87 7F 2F 80 80 4B  0A 52 2E 80 F8 FF FF 7F  ..../..K.R......
0A40: F8 FF FF 7F 73 67 31 30  01 A8 0A 02 87 7F 36 80  ....sg10......6.
0A50: 80 65 0A 52 2E 80 F8 FF  FF 7F F8 FF FF 7F 73 74  .e.R..........st
0A60: 31 30 01 A8 0A 02 87 7F  38 80 80 7F 0A 52 2E 80  10......8....R..
0A70: F8 FF FF 7F F8 FF FF 7F  73 74 31 30 01 A8 0A 02  ........st10....
0A80: 87 7F 30 80 80 99 0A 52  2E 80 F8 FF FF 7F F8 FF  ..0....R........
0A90: FF 7F 73 67 31 30 01 A8  0A 52 2E 80 F8 FF FF 7F  ..sg10...R......
0AA0: F8 FF FF 7F 73 30 31 30  45 2E 80 F8 FF FF 7F F8  ....s010E.......
0AB0: FF FF 7F 73 30 31 31 01  80 5B 57 80 FB 51 10 01  ...s011..[W..Q..
0AC0: FB 51 10 01 6D 67 6B 30  2B FB 51 10 01 58 80 1C  .Q..mgk0+.Q..X..
0AD0: 2C 80 23 CD 56 80 F0 FF  FF 7F F0 FF FF 7F 73 74  ,.#.V.........st
0AE0: 6F 70 01 80 1C 59 80 45  5A 80 F0 FF FF 7F F0 FF  op...Y.EZ.......
0AF0: FF 7F 77 68 6F 31 01 80  55 5A 80 F0 FF FF 7F F0  ..who1..UZ......
0B00: FF FF 7F 77 68 6F 31 6B  69 64 6C 30 FB 51 10 01  ...who1kidl0.Q..
0B10: 4E 00 00 52 10 01 80 00  52 10 01 79 00 F0 FF FF  N..R....R..y....
0B20: 7F 00 52 10 01 4A 00 52  10 01 F0 FF FF 7F 4A FB  ..R..J.R......J.
0B30: 51 10 01 00 52 10 01 6F  76 FB 51 10 01 6F 76 00  Q...R..ov.Q..ov.
0B40: 52 10 01 7B FB 51 10 01  7B 00 52 10 01 1C 5B 80  R..{.Q..{.R...[.
0B50: CD 5C 80 00 52 10 01 00  52 10 01 6D 61 69 6E 01  .\..R...R..main.
0B60: 80 52 2E 80 F8 FF FF 7F  F8 FF FF 7F 73 30 31 31  .R..........s011
0B70: 45 2E 80 F8 FF FF 7F F8  FF FF 7F 73 30 31 32 01  E..........s012.
0B80: 80 45 5A 80 F0 FF FF 7F  F0 FF FF 7F 77 68 69 31  .EZ.........whi1
0B90: 01 80 55 5A 80 F0 FF FF  7F F0 FF FF 7F 77 68 69  ..UZ.........whi
0BA0: 31 79 00 F0 FF FF 7F FB  51 10 01 1C 52 80 4A 00  1y......Q...R.J.
0BB0: 52 10 01 FB 51 10 01 1C  35 80 52 2E 80 F8 FF FF  R...Q...5.R.....
0BC0: 7F F8 FF FF 7F 73 30 31  32 45 2E 80 F8 FF FF 7F  .....s012E......
0BD0: F8 FF FF 7F 73 30 31 33  01 80 6F 76 00 52 10 01  ....s013..ov.R..
0BE0: 5B 3A 80 00 52 10 01 00  52 10 01 74 6C 6B 30 2B  [:..R...R..tlk0+
0BF0: 00 52 10 01 5D 80 1C 39  80 23 52 2E 80 F8 FF FF  .R..]..9.#R.....
0C00: 7F F8 FF FF 7F 73 30 31  33 45 2E 80 F8 FF FF 7F  .....s013E......
0C10: F8 FF FF 7F 73 30 31 34  01 80 5B 53 80 FB 51 10  ....s014..[S..Q.
0C20: 01 FB 51 10 01 74 6C 61  30 2B FB 51 10 01 5E 80  ..Q..tla0+.Q..^.
0C30: 1C 39 80 23 5B 53 80 FB  51 10 01 FB 51 10 01 74  .9.#[S..Q...Q..t
0C40: 6C 61 31 27 10 00 52 10  01 13 52 2E 80 F8 FF FF  la1'..R...R.....
0C50: 7F F8 FF FF 7F 73 30 31  34 45 2E 80 F8 FF FF 7F  .....s014E......
0C60: F8 FF FF 7F 73 30 31 35  01 80 2B FB 51 10 01 5F  ....s015..+.Q.._
0C70: 80 1C 34 80 23 5B 53 80  FB 51 10 01 FB 51 10 01  ..4.#[S..Q...Q..
0C80: 70 6F 69 30 2B FB 51 10  01 60 80 1C 39 80 23 6B  poi0+.Q..`..9.#k
0C90: 69 64 6C 30 FB 51 10 01  7B FB 51 10 01 4A FB 51  idl0.Q..{.Q..J.Q
0CA0: 10 01 F0 FF FF 7F 52 2E  80 F8 FF FF 7F F8 FF FF  ......R.........
0CB0: 7F 73 30 31 35 02 87 7F  2D 80 80 D1 0C 45 2E 80  .s015...-....E..
0CC0: F8 FF FF 7F F8 FF FF 7F  73 67 31 36 01 80 01 52  ........sg16...R
0CD0: 0D 02 87 7F 2F 80 80 ED  0C 45 2E 80 F8 FF FF 7F  ..../....E......
0CE0: F8 FF FF 7F 73 67 31 36  01 80 01 52 0D 02 87 7F  ....sg16...R....
0CF0: 36 80 80 09 0D 45 2E 80  F8 FF FF 7F F8 FF FF 7F  6....E..........
0D00: 73 74 31 36 01 80 01 52  0D 02 87 7F 38 80 80 25  st16...R....8..%
0D10: 0D 45 2E 80 F8 FF FF 7F  F8 FF FF 7F 73 74 31 36  .E..........st16
0D20: 01 80 01 52 0D 02 87 7F  30 80 80 41 0D 45 2E 80  ...R....0..A.E..
0D30: F8 FF FF 7F F8 FF FF 7F  73 67 31 36 01 80 01 52  ........sg16...R
0D40: 0D 45 2E 80 F8 FF FF 7F  F8 FF FF 7F 73 30 31 36  .E..........s016
0D50: 01 80 6F 76 FB 51 10 01  5B 53 80 FB 51 10 01 FB  ..ov.Q..[S..Q...
0D60: 51 10 01 74 6C 61 30 2B  FB 51 10 01 61 80 1C 39  Q..tla0+.Q..a..9
0D70: 80 23 5B 53 80 FB 51 10  01 FB 51 10 01 74 6C 61  .#[S..Q...Q..tla
0D80: 31 6E F0 FF FF 7F 62 80  99 F0 FF FF 7F 1C 32 80  1n....b.......2.
0D90: 5C 00 63 80 5C 01 63 80  9A 5D 64 80 27 80 4E 00  \.c.\.c..]d.'.N.
0DA0: FA 51 10 01 27 10 FA 51  10 01 5D 1C 36 80 27 10  .Q..'..Q..].6.'.
0DB0: 00 52 10 01 14 02 87 7F  2D 80 80 CF 0D 52 2E 80  .R......-....R..
0DC0: F8 FF FF 7F F8 FF FF 7F  73 67 31 36 01 46 0E 02  ........sg16.F..
0DD0: 87 7F 2F 80 80 E9 0D 52  2E 80 F8 FF FF 7F F8 FF  ../....R........
0DE0: FF 7F 73 67 31 36 01 46  0E 02 87 7F 36 80 80 03  ..sg16.F....6...
0DF0: 0E 52 2E 80 F8 FF FF 7F  F8 FF FF 7F 73 74 31 36  .R..........st16
0E00: 01 46 0E 02 87 7F 38 80  80 1D 0E 52 2E 80 F8 FF  .F....8....R....
0E10: FF 7F F8 FF FF 7F 73 74  31 36 01 46 0E 02 87 7F  ......st16.F....
0E20: 30 80 80 37 0E 52 2E 80  F8 FF FF 7F F8 FF FF 7F  0..7.R..........
0E30: 73 67 31 36 01 46 0E 52  2E 80 F8 FF FF 7F F8 FF  sg16.F.R........
0E40: FF 7F 73 30 31 36 45 2E  80 F8 FF FF 7F F8 FF FF  ..s016E.........
0E50: 7F 73 30 31 37 01 80 B0  00 F8 FF FF 7F FA 51 10  .s017.........Q.
0E60: 01 65 80 1C 66 80 4E 00  FF 51 10 01 27 10 FF 51  .e..f.N..Q..'..Q
0E70: 10 01 12 1C 67 80 52 2E  80 F8 FF FF 7F F8 FF FF  ....g.R.........
0E80: 7F 73 30 31 37 45 2E 80  F8 FF FF 7F F8 FF FF 7F  .s017E..........
0E90: 73 30 31 38 01 80 B0 00  F8 FF FF 7F FA 51 10 01  s018.........Q..
0EA0: 68 80 B4 00 00 00 00 00  00 00 00 00 00 00 00 00  h...............
0EB0: 00 00 00 00 00 00 B5 00  00 00 1C 37 80 CD 62 80  ...........7..b.
0EC0: F8 FF FF 7F F8 FF FF 7F  73 30 30 32 01 80 1C 69  ........s002...i
0ED0: 80 7A 00 FA 51 10 01 BA  FA 51 10 01 0A 80 0B 80  .z..Q....Q......
0EE0: 0C 80 0D 80 1C 5B 80 52  2E 80 F8 FF FF 7F F8 FF  .....[.R........
0EF0: FF 7F 73 30 31 38 45 2E  80 F8 FF FF 7F F8 FF FF  ..s018E.........
0F00: 7F 62 6C 6F 66 01 80 55  2E 80 F8 FF FF 7F F8 FF  .blof..U........
0F10: FF 7F 62 6C 6F 66 45 2E  80 F8 FF FF 7F F8 FF FF  ..blofE.........
0F20: 7F 73 30 31 39 01 80 7A  00 FF 51 10 01 BA FF 51  .s019..z..Q....Q
0F30: 10 01 6A 80 6B 80 6C 80  11 80 27 10 FF 51 10 01  ..j.k.l...'..Q..
0F40: 13 5B 53 80 FA 51 10 01  FA 51 10 01 64 65 64 30  .[S..Q...Q..ded0
0F50: 2A 10 FF 51 10 01 1C 35  80 37 0A 80 0B 80 0C 80  *..Q...5.7......
0F60: 6D 80 4E 00 FE 51 10 01  29 10 FE 51 10 01 0C BA  m.N..Q..)..Q....
0F70: FE 51 10 01 0E 80 0F 80  10 80 11 80 1C 32 80 45  .Q...........2.E
0F80: 2E 80 F8 FF FF 7F F8 FF  FF 7F 31 30 37 36 01 80  ..........1076..
0F90: CD 6E 80 F8 FF FF 7F F8  FF FF 7F 68 69 74 30 01  .n.........hit0.
0FA0: 80 CD 6E 80 FE 51 10 01  FE 51 10 01 68 69 74 30  ..n..Q...Q..hit0
0FB0: 01 80 1C 4D 80 6C FC 51  10 01 6F 80 27 80 6C FD  ...M.l.Q..o.'.l.
0FC0: 51 10 01 6F 80 27 80 4E  01 FA 51 10 01 4E 01 FF  Q..o.'.N..Q..N..
0FD0: 51 10 01 2B FC 51 10 01  70 80 1C 34 80 23 5B 25  Q..+.Q..p..4.#[%
0FE0: 80 FC 51 10 01 FC 51 10  01 69 6B 69 31 1C 4D 80  ..Q...Q..iki1.M.
0FF0: 52 2E 80 F8 FF FF 7F F8  FF FF 7F 73 30 31 39 45  R..........s019E
1000: 2E 80 F8 FF FF 7F F8 FF  FF 7F 73 30 32 30 01 80  ..........s020..
1010: 1C 39 80 4E 01 FE 51 10  01 52 2E 80 F8 FF FF 7F  .9.N..Q..R......
1020: F8 FF FF 7F 73 30 32 30  45 2E 80 F8 FF FF 7F F8  ....s020E.......
1030: FF FF 7F 73 30 32 31 01  80 5B 71 80 FC 51 10 01  ...s021..[q..Q..
1040: FC 51 10 01 62 69 6B 30  2B FC 51 10 01 72 80 1C  .Q..bik0+.Q..r..
1050: 73 80 23 5B 71 80 FC 51  10 01 FC 51 10 01 62 69  s.#[q..Q...Q..bi
1060: 6B 31 1C 37 80 5B 71 80  FC 51 10 01 FC 51 10 01  k1.7.[q..Q...Q..
1070: 6E 6F 6E 30 1C 2C 80 52  2E 80 F8 FF FF 7F F8 FF  non0.,.R........
1080: FF 7F 73 30 32 31 45 2E  80 F8 FF FF 7F F8 FF FF  ..s021E.........
1090: 7F 62 6C 6F 66 01 80 55  2E 80 F8 FF FF 7F F8 FF  .blof..U........
10A0: FF 7F 62 6C 6F 66 45 2E  80 F8 FF FF 7F F8 FF FF  ..blofE.........
10B0: 7F 73 30 32 32 01 80 2B  FC 51 10 01 74 80 1C 34  .s022..+.Q..t..4
10C0: 80 52 2E 80 F8 FF FF 7F  F8 FF FF 7F 73 30 32 32  .R..........s022
10D0: 45 2E 80 F8 FF FF 7F F8  FF FF 7F 73 30 32 33 01  E..........s023.
10E0: 80 CD 75 80 00 52 10 01  00 52 10 01 6D 61 69 6E  ..u..R...R..main
10F0: 01 80 1C 52 80 5B 71 80  FC 51 10 01 FC 51 10 01  ...R.[q..Q...Q..
1100: 62 69 6B 30 1C 35 80 52  2E 80 F8 FF FF 7F F8 FF  bik0.5.R........
1110: FF 7F 73 30 32 33 45 2E  80 F8 FF FF 7F F8 FF FF  ..s023E.........
1120: 7F 73 30 32 34 01 80 2B  FC 51 10 01 76 80 1C 39  .s024..+.Q..v..9
1130: 80 23 5B 71 80 FC 51 10  01 FC 51 10 01 62 69 6B  .#[q..Q...Q..bik
1140: 31 1C 37 80 52 2E 80 F8  FF FF 7F F8 FF FF 7F 73  1.7.R..........s
1150: 30 32 34 45 2E 80 F8 FF  FF 7F F8 FF FF 7F 73 30  024E..........s0
1160: 32 35 01 80 2B FD 51 10  01 77 80 1C 34 80 23 BA  25..+.Q..w..4.#.
1170: FA 51 10 01 01 80 01 80  01 80 01 80 BA FE 51 10  .Q............Q.
1180: 01 01 80 01 80 01 80 01  80 BA FF 51 10 01 01 80  ...........Q....
1190: 01 80 01 80 01 80 59 05  00 52 10 01 01 BA 00 52  ......Y..R.....R
11A0: 10 01 78 80 79 80 7A 80  7B 80 4E 00 00 52 10 01  ..x.y.z.{.N..R..
11B0: 27 10 FA 51 10 01 5C 27  10 FE 51 10 01 16 27 10  '..Q..\'..Q...'.
11C0: FF 51 10 01 14 27 10 00  52 10 01 15 27 10 00 52  .Q...'..R...'..R
11D0: 10 01 16 4E 01 00 52 10  01 52 2E 80 F8 FF FF 7F  ...N..R..R......
11E0: F8 FF FF 7F 73 30 32 35  45 2E 80 F8 FF FF 7F F8  ....s025E.......
11F0: FF FF 7F 73 30 32 36 01  80 5B 7C 80 FC 51 10 01  ...s026..[|..Q..
1200: FC 51 10 01 74 68 61 30  2B FC 51 10 01 7D 80 23  .Q..tha0+.Q..}.#
1210: 1C 32 80 23 BA FA 51 10  01 7E 80 7F 80 10 80 80  .2.#..Q..~......
1220: 80 4A FA 51 10 01 FC 51  10 01 BA FE 51 10 01 0A  .J.Q...Q....Q...
1230: 80 81 80 6C 80 10 80 4A  FE 51 10 01 FC 51 10 01  ...l...J.Q...Q..
1240: BA FF 51 10 01 82 80 83  80 84 80 85 80 4A FF 51  ..Q..........J.Q
1250: 10 01 FC 51 10 01 5B 86  80 FA 51 10 01 FA 51 10  ...Q..[...Q...Q.
1260: 01 6F 72 69 30 4E 00 FA  51 10 01 2B FA 51 10 01  .ori0N..Q..+.Q..
1270: 87 80 1C 37 80 5F 03 88  80 FC 51 10 01 FC 51 10  ...7._....Q...Q.
1280: 01 73 6F 72 30 1C 2C 80  23 81 00 FC 51 10 01 52  .sor0.,.#...Q..R
1290: 2E 80 F8 FF FF 7F F8 FF  FF 7F 73 30 32 36 45 2E  ..........s026E.
12A0: 80 F8 FF FF 7F F8 FF FF  7F 73 61 32 36 01 80 1C  .........sa26...
12B0: 2C 80 59 05 FA 51 10 01  01 BA FA 51 10 01 89 80  ,.Y..Q.....Q....
12C0: 8A 80 01 80 8B 80 5F 03  8C 80 FA 51 10 01 FA 51  ......_....Q...Q
12D0: 10 01 6B 6F 6D 30 1C 34  80 52 2E 80 F8 FF FF 7F  ..kom0.4.R......
12E0: F8 FF FF 7F 73 61 32 36  45 2E 80 F8 FF FF 7F F8  ....sa26E.......
12F0: FF FF 7F 62 6C 6F 66 01  80 55 2E 80 F8 FF FF 7F  ...blof..U......
1300: F8 FF FF 7F 62 6C 6F 66  45 2E 80 F8 FF FF 7F F8  ....blofE.......
1310: FF FF 7F 73 62 32 36 01  80 5F 03 88 80 FC 51 10  ...sb26.._....Q.
1320: 01 FC 51 10 01 73 6F 72  6C 2B FA 51 10 01 87 80  ..Q..sorl+.Q....
1330: 1C 34 80 23 5F 03 88 80  FC 51 10 01 FC 51 10 01  .4.#_....Q...Q..
1340: 73 6F 72 31 52 2E 80 F8  FF FF 7F F8 FF FF 7F 73  sor1R..........s
1350: 62 32 36 45 2E 80 F8 FF  FF 7F F8 FF FF 7F 73 63  b26E..........sc
1360: 32 36 01 80 1C 31 80 52  2E 80 F8 FF FF 7F F8 FF  26...1.R........
1370: FF 7F 73 63 32 36 45 2E  80 F8 FF FF 7F F8 FF FF  ..sc26E.........
1380: 7F 73 64 32 36 01 80 5B  86 80 FE 51 10 01 FE 51  .sd26..[...Q...Q
1390: 10 01 6F 72 69 30 4E 00  FE 51 10 01 2B FE 51 10  ..ori0N..Q..+.Q.
13A0: 01 8D 80 1C 32 80 23 52  2E 80 F8 FF FF 7F F8 FF  ....2.#R........
13B0: FF 7F 73 64 32 36 45 2E  80 F8 FF FF 7F F8 FF FF  ..sd26E.........
13C0: 7F 73 65 32 36 01 80 5B  86 80 FF 51 10 01 FF 51  .se26..[...Q...Q
13D0: 10 01 6F 72 69 30 4E 00  FF 51 10 01 2B FF 51 10  ..ori0N..Q..+.Q.
13E0: 01 8E 80 1C 32 80 23 52  2E 80 F8 FF FF 7F F8 FF  ....2.#R........
13F0: FF 7F 73 65 32 36 45 2E  80 F8 FF FF 7F F8 FF FF  ..se26E.........
1400: 7F 73 30 32 37 01 80 5F  03 8C 80 FA 51 10 01 FA  .s027.._....Q...
1410: 51 10 01 6E 6F 6E 30 1C  52 80 5F 03 88 80 FC 51  Q..non0.R._....Q
1420: 10 01 FC 51 10 01 73 6F  72 32 1C 4D 80 81 01 FC  ...Q..sor2.M....
1430: 51 10 01 52 2E 80 F8 FF  FF 7F F8 FF FF 7F 73 30  Q..R..........s0
1440: 32 37 45 2E 80 F8 FF FF  7F F8 FF FF 7F 73 30 32  27E..........s02
1450: 39 01 80 CD 62 80 F8 FF  FF 7F F8 FF FF 7F 73 30  9...b.........s0
1460: 30 32 01 80 2B FC 51 10  01 8F 80 27 10 FA 51 10  02..+.Q....'..Q.
1470: 01 1A 27 10 FE 51 10 01  0D 5B 86 80 FA 51 10 01  ..'..Q...[...Q..
1480: FA 51 10 01 6E 69 67 30  1C 5B 80 5B 86 80 FE 51  .Q..nig0.[.[...Q
1490: 10 01 FE 51 10 01 6E 69  67 31 1C 5B 80 27 10 FF  ...Q..nig1.[.'..
14A0: 51 10 01 15 1C 2C 80 27  10 FC 51 10 01 18 1C 37  Q....,.'..Q....7
14B0: 80 4A FD 51 10 01 FC 51  10 01 1C 34 80 59 05 FA  .J.Q...Q...4.Y..
14C0: 51 10 01 00 52 2E 80 F8  FF FF 7F F8 FF FF 7F 73  Q...R..........s
14D0: 30 32 39 45 2E 80 F8 FF  FF 7F F8 FF FF 7F 62 6C  029E..........bl
14E0: 6F 66 01 80 55 2E 80 F8  FF FF 7F F8 FF FF 7F 62  of..U..........b
14F0: 6C 6F 66 45 2E 80 F8 FF  FF 7F F8 FF FF 7F 73 30  lofE..........s0
1500: 33 30 01 80 6C FD 51 10  01 01 80 27 80 7B FB 51  30..l.Q....'.{.Q
1510: 10 01 4A FB 51 10 01 FC  51 10 01 1C 36 80 7B F0  ..J.Q...Q...6.{.
1520: FF FF 7F 4A F0 FF FF 7F  FC 51 10 01 6F 76 FB 51  ...J.....Q..ov.Q
1530: 10 01 6F 76 F0 FF FF 7F  27 10 FB 51 10 01 6B 27  ..ov....'..Q..k'
1540: 10 F0 FF FF 7F 44 1C 32  80 52 2E 80 F8 FF FF 7F  .....D.2.R......
1550: F8 FF FF 7F 73 30 33 30  45 2E 80 F8 FF FF 7F F8  ....s030E.......
1560: FF FF 7F 73 30 33 31 01  80 1C 52 80 45 00 80 F0  ...s031...R.E...
1570: FF FF 7F F0 FF FF 7F 66  64 6F 31 01 80 55 00 80  .......fdo1..U..
1580: F0 FF FF 7F F0 FF FF 7F  66 64 6F 31 6B 69 64 6C  ........fdo1kidl
1590: 30 FA 51 10 01 6B 69 64  6C 30 FE 51 10 01 6B 69  0.Q..kidl0.Q..ki
15A0: 64 6C 30 FF 51 10 01 7A  00 FA 51 10 01 7A 00 FB  dl0.Q..z..Q..z..
15B0: 51 10 01 7A 00 FC 51 10  01 7A 00 FD 51 10 01 7A  Q..z..Q..z..Q..z
15C0: 00 FE 51 10 01 7A 00 FF  51 10 01 7A 00 F0 FF FF  ..Q..z..Q..z....
15D0: 7F 7B F0 FF FF 7F 6C FD  51 10 01 6F 80 27 80 BA  .{....l.Q..o.'..
15E0: FB 51 10 01 90 80 91 80  01 80 92 80 BA FC 51 10  .Q............Q.
15F0: 01 93 80 94 80 95 80 96  80 BA FD 51 10 01 97 80  ...........Q....
1600: 98 80 99 80 9A 80 BA FA  51 10 01 93 80 94 80 95  ........Q.......
1610: 80 9B 80 BA FE 51 10 01  93 80 94 80 95 80 9B 80  .....Q..........
1620: BA FF 51 10 01 93 80 94  80 95 80 9B 80 BA F0 FF  ..Q.............
1630: FF 7F 9C 80 9D 80 9E 80  92 80 27 10 FA 51 10 01  ..........'..Q..
1640: 1B 27 10 FE 51 10 01 0E  5B 9F 80 FC 51 10 01 FC  .'..Q...[...Q...
1650: 51 10 01 78 78 78 78 5B  A0 80 FA 51 10 01 FA 51  Q..xxxx[...Q...Q
1660: 10 01 78 78 78 78 5B A0  80 FE 51 10 01 FE 51 10  ..xxxx[...Q...Q.
1670: 01 78 78 78 78 5B 8C 80  FF 51 10 01 FF 51 10 01  .xxxx[...Q...Q..
1680: 78 78 78 78 1C 5B 80 5B  9F 80 FC 51 10 01 FC 51  xxxx.[.[...Q...Q
1690: 10 01 6F 6B 6F 30 5B A0  80 FA 51 10 01 FA 51 10  ..oko0[...Q...Q.
16A0: 01 6F 6B 6F 30 5B A0 80  FE 51 10 01 FE 51 10 01  .oko0[...Q...Q..
16B0: 6F 6B 6F 34 5B 8C 80 FF  51 10 01 FF 51 10 01 6F  oko4[...Q...Q..o
16C0: 6B 6F 30 48 40 80 27 10  F0 FF FF 7F 45 1C 35 80  ko0H@.'.....E.5.
16D0: 27 10 FB 51 10 01 6C 27  10 FD 51 10 01 13 52 2E  '..Q..l'..Q...R.
16E0: 80 F8 FF FF 7F F8 FF FF  7F 73 30 33 31 45 2E 80  .........s031E..
16F0: F8 FF FF 7F F8 FF FF 7F  73 30 33 32 01 80 45 00  ........s032..E.
1700: 80 F0 FF FF 7F F0 FF FF  7F 66 64 69 31 01 80 55  .........fdi1..U
1710: 00 80 F0 FF FF 7F F0 FF  FF 7F 66 64 69 31 2A 10  ..........fdi1*.
1720: FB 51 10 01 5B 9F 80 FC  51 10 01 FC 51 10 01 6F  .Q..[...Q...Q..o
1730: 6B 6F 31 5B A0 80 FA 51  10 01 FA 51 10 01 6F 6B  ko1[...Q...Q..ok
1740: 6F 31 5B A0 80 FE 51 10  01 FE 51 10 01 6F 6B 6F  o1[...Q...Q..oko
1750: 35 5B 8C 80 FF 51 10 01  FF 51 10 01 6F 6B 6F 31  5[...Q...Q..oko1
1760: 1C 52 80 52 2E 80 F8 FF  FF 7F F8 FF FF 7F 73 30  .R.R..........s0
1770: 33 32 45 2E 80 F8 FF FF  7F F8 FF FF 7F 73 30 33  32E..........s03
1780: 33 01 80 5B 9F 80 FC 51  10 01 FC 51 10 01 6F 6B  3..[...Q...Q..ok
1790: 6F 32 5B A0 80 FA 51 10  01 FA 51 10 01 6F 6B 6F  o2[...Q...Q..oko
17A0: 32 5B A0 80 FE 51 10 01  FE 51 10 01 6F 6B 6F 36  2[...Q...Q..oko6
17B0: 5B 8C 80 FF 51 10 01 FF  51 10 01 6F 6B 6F 32 1C  [...Q...Q..oko2.
17C0: 31 80 52 2E 80 F8 FF FF  7F F8 FF FF 7F 73 30 33  1.R..........s03
17D0: 33 45 2E 80 F8 FF FF 7F  F8 FF FF 7F 73 30 33 34  3E..........s034
17E0: 01 80 5B 9F 80 FC 51 10  01 FC 51 10 01 6F 6B 6F  ..[...Q...Q..oko
17F0: 33 5B A0 80 FA 51 10 01  FA 51 10 01 6F 6B 6F 33  3[...Q...Q..oko3
1800: 5B A0 80 FE 51 10 01 FE  51 10 01 6F 6B 6F 37 5B  [...Q...Q..oko7[
1810: 8C 80 FF 51 10 01 FF 51  10 01 6F 6B 6F 33 2B FB  ...Q...Q..oko3+.
1820: 51 10 01 A1 80 1C 31 80  23 52 2E 80 F8 FF FF 7F  Q.....1.#R......
1830: F8 FF FF 7F 73 30 33 34  45 2E 80 F8 FF FF 7F F8  ....s034E.......
1840: FF FF 7F 73 30 33 35 01  80 1C 2C 80 2B FB 51 10  ...s035...,.+.Q.
1850: 01 A2 80 1C 32 80 23 5C  00 A3 80 5C 01 A3 80 9A  ....2.#\...\....
1860: 4E 01 FE 51 10 01 4E 01  FF 51 10 01 BA FD 51 10  N..Q..N..Q....Q.
1870: 01 A4 80 A5 80 A6 80 A7  80 5B 26 80 FD 51 10 01  .........[&..Q..
1880: FD 51 10 01 73 74 64 30  6B 69 64 6C 30 FA 51 10  .Q..std0kidl0.Q.
1890: 01 6B 69 64 6C 30 FC 51  10 01 27 10 FC 51 10 01  .kidl0.Q..'..Q..
18A0: 0C 4E 01 FC 51 10 01 BA  FC 51 10 01 A8 80 A9 80  .N..Q....Q......
18B0: 36 80 24 80 BA FA 51 10  01 AA 80 AB 80 AC 80 A7  6.$...Q.........
18C0: 80 1C AD 80 79 00 F0 FF  FF 7F FB 51 10 01 4B FB  ....y......Q..K.
18D0: 51 10 01 AE 80 1C 36 80  27 10 FB 51 10 01 6D 1C  Q.....6.'..Q..m.
18E0: 5B 80 52 2E 80 F8 FF FF  7F F8 FF FF 7F 73 30 33  [.R..........s03
18F0: 35 45 2E 80 F8 FF FF 7F  F8 FF FF 7F 73 30 33 37  5E..........s037
1900: 01 80 1C 52 80 4A F0 FF  FF 7F FC 51 10 01 5B AF  ...R.J.....Q..[.
1910: 80 FC 51 10 01 FC 51 10  01 68 65 62 30 4E 00 FC  ..Q...Q..heb0N..
1920: 51 10 01 1C 59 80 2B FC  51 10 01 B0 80 1C 52 80  Q...Y.+.Q.....R.
1930: 23 5B AF 80 FC 51 10 01  FC 51 10 01 68 65 62 31  #[...Q...Q..heb1
1940: 52 2E 80 F8 FF FF 7F F8  FF FF 7F 73 30 33 37 45  R..........s037E
1950: 2E 80 F8 FF FF 7F F8 FF  FF 7F 73 30 33 38 01 80  ..........s038..
1960: 1C 69 80 2B FC 51 10 01  B1 80 1C 00 80 52 2E 80  .i.+.Q.......R..
1970: F8 FF FF 7F F8 FF FF 7F  73 30 33 38 45 2E 80 F8  ........s038E...
1980: FF FF 7F F8 FF FF 7F 73  30 33 39 01 80 7A 00 FB  .......s039..z..
1990: 51 10 01 59 05 FB 51 10  01 01 BA FB 51 10 01 B2  Q..Y..Q.....Q...
19A0: 80 B3 80 B4 80 B5 80 27  10 FC 51 10 01 0D 1C 59  .......'..Q....Y
19B0: 80 23 52 2E 80 F8 FF FF  7F F8 FF FF 7F 73 30 33  .#R..........s03
19C0: 39 45 2E 80 F8 FF FF 7F  F8 FF FF 7F 73 30 34 30  9E..........s040
19D0: 01 80 2B FB 51 10 01 B6  80 23 5B AF 80 FC 51 10  ..+.Q....#[...Q.
19E0: 01 FC 51 10 01 68 65 62  32 7C 00 FC 51 10 01 2B  ..Q..heb2|..Q..+
19F0: FC 51 10 01 B7 80 1C AD  80 7C 01 FC 51 10 01 2B  .Q.......|..Q..+
1A00: FC 51 10 01 B8 80 1C 00  80 23 52 2E 80 F8 FF FF  .Q.......#R.....
1A10: 7F F8 FF FF 7F 73 30 34  30 45 2E 80 F8 FF FF 7F  .....s040E......
1A20: F8 FF FF 7F 73 30 34 31  01 80 1C 52 80 52 2E 80  ....s041...R.R..
1A30: F8 FF FF 7F F8 FF FF 7F  73 30 34 31 45 2E 80 F8  ........s041E...
1A40: FF FF 7F F8 FF FF 7F 73  61 34 31 01 80 1C 34 80  .......sa41...4.
1A50: 5B 3A 80 FB 51 10 01 FB  51 10 01 74 6C 6B 30 2B  [:..Q...Q..tlk0+
1A60: FB 51 10 01 B9 80 1C 34  80 23 5B 3A 80 FB 51 10  .Q.....4.#[:..Q.
1A70: 01 FB 51 10 01 74 6C 6B  31 2B FB 51 10 01 BA 80  ..Q..tlk1+.Q....
1A80: 1C 39 80 23 27 10 FB 51  10 01 6E 52 2E 80 F8 FF  .9.#'..Q..nR....
1A90: FF 7F F8 FF FF 7F 73 61  34 31 45 2E 80 F8 FF FF  ......sa41E.....
1AA0: 7F F8 FF FF 7F 62 6C 6F  66 01 80 55 2E 80 F8 FF  .....blof..U....
1AB0: FF 7F F8 FF FF 7F 62 6C  6F 66 45 2E 80 F8 FF FF  ......blofE.....
1AC0: 7F F8 FF FF 7F 73 30 34  32 01 80 6B 69 64 6C 30  .....s042..kidl0
1AD0: FC 51 10 01 1C 39 80 BA  FC 51 10 01 BB 80 BC 80  .Q...9...Q......
1AE0: 32 80 BD 80 80 FC 51 10  01 52 2E 80 F8 FF FF 7F  2.....Q..R......
1AF0: F8 FF FF 7F 73 30 34 32  45 2E 80 F8 FF FF 7F F8  ....s042E.......
1B00: FF FF 7F 73 30 34 33 01  80 2B FC 51 10 01 BE 80  ...s043..+.Q....
1B10: 1C 37 80 27 10 FC 51 10  01 19 1C 4D 80 27 10 FA  .7.'..Q....M.'..
1B20: 51 10 01 5E 1C 4D 80 27  10 FD 51 10 01 14 BA 0A  Q..^.M.'..Q.....
1B30: 52 10 01 1D 80 1E 80 1F  80 20 80 1C 32 80 52 2E  R........ ..2.R.
1B40: 80 F8 FF FF 7F F8 FF FF  7F 73 30 34 33 45 2E 80  .........s043E..
1B50: F8 FF FF 7F F8 FF FF 7F  73 30 34 34 01 80 4A F0  ........s044..J.
1B60: FF FF 7F FC 51 10 01 4E  00 01 52 10 01 2C 01 52  ....Q..N..R..,.R
1B70: 10 01 01 52 10 01 73 6A  6F 66 1C 2C 80 5F 03 BF  ...R..sjof.,._..
1B80: 80 0A 52 10 01 0A 52 10  01 78 78 78 78 5F 03 C0  ..R...R..xxxx_..
1B90: 80 01 52 10 01 01 52 10  01 78 78 78 78 1C 2C 80  ..R...R..xxxx.,.
1BA0: 52 2E 80 F8 FF FF 7F F8  FF FF 7F 73 30 34 34 AE  R..........s044.
1BB0: 05 0A 52 10 01 01 52 10  01 5F 03 C0 80 01 52 10  ..R...R.._....R.
1BC0: 01 01 52 10 01 74 6F 75  30 5F 03 BF 80 0A 52 10  ..R..tou0_....R.
1BD0: 01 0A 52 10 01 74 6F 75  30 1C 69 80 BA 0A 52 10  ..R..tou0.i...R.
1BE0: 01 C1 80 C2 80 C3 80 C4  80 BA 01 52 10 01 C1 80  ...........R....
1BF0: C2 80 C3 80 C4 80 5F 03  BF 80 0A 52 10 01 0A 52  ......_....R...R
1C00: 10 01 6B 61 6B 30 5F 03  C0 80 01 52 10 01 01 52  ..kak0_....R...R
1C10: 10 01 6B 61 6B 30 D0 C5  80 01 52 10 01 01 52 10  ..kak0....R...R.
1C20: 01 74 69 6D 30 01 80 81  00 FC 51 10 01 7C 00 FC  .tim0.....Q..|..
1C30: 51 10 01 BA FC 51 10 01  C6 80 C7 80 C8 80 88 80  Q....Q..........
1C40: 1C C9 80 5F 03 CA 80 FC  51 10 01 FC 51 10 01 6F  ..._....Q...Q..o
1C50: 64 6F 30 5F 03 BF 80 0A  52 10 01 0A 52 10 01 6A  do0_....R...R..j
1C60: 6D 70 30 5F 03 C0 80 01  52 10 01 01 52 10 01 6A  mp0_....R...R..j
1C70: 6D 70 30 D0 C5 80 01 52  10 01 01 52 10 01 74 69  mp0....R...R..ti
1C80: 6D 31 01 80 1C 59 80 2B  FC 51 10 01 CB 80 4E 00  m1...Y.+.Q....N.
1C90: FE 51 10 01 27 10 FE 51  10 01 17 1C 32 80 5F 03  .Q..'..Q....2._.
1CA0: CC 80 01 52 10 01 01 52  10 01 78 78 78 78 1C 5B  ...R...R..xxxx.[
1CB0: 80 AE 06 01 52 10 01 2C  01 52 10 01 01 52 10 01  ....R..,.R...R..
1CC0: 73 6A 6F 6E BA 0A 52 10  01 CD 80 CE 80 CF 80 D0  sjon..R.........
1CD0: 80 5F 03 BF 80 0A 52 10  01 0A 52 10 01 74 79 6B  ._....R...R..tyk
1CE0: 30 5F 03 CC 80 01 52 10  01 01 52 10 01 74 79 6B  0_....R...R..tyk
1CF0: 30 D0 C5 80 01 52 10 01  01 52 10 01 74 69 6D 32  0....R...R..tim2
1D00: 01 80 1C 35 80 45 2E 80  F8 FF FF 7F F8 FF FF 7F  ...5.E..........
1D10: 30 30 30 35 01 80 4E 00  00 52 10 01 27 10 00 52  0005..N..R..'..R
1D20: 10 01 17 BA FC 51 10 01  D1 80 D2 80 D3 80 D4 80  .....Q..........
1D30: 1C 5B 80 5B D5 80 FB 51  10 01 FB 51 10 01 78 78  .[.[...Q...Q..xx
1D40: 78 78 4E 01 01 52 10 01  59 05 01 52 10 01 00 1C  xxN..R..Y..R....
1D50: 4D 80 5F 03 BF 80 0A 52  10 01 0A 52 10 01 74 79  M._....R...R..ty
1D60: 6B 31 5F 03 CA 80 FC 51  10 01 FC 51 10 01 6D 69  k1_....Q...Q..mi
1D70: 75 30 7B F0 FF FF 7F 1C  34 80 27 05 FE 51 10 01  u0{.....4.'..Q..
1D80: 14 4E 01 00 52 10 01 BA  0A 52 10 01 D6 80 D7 80  .N..R....R......
1D90: D8 80 D9 80 BA FB 51 10  01 DA 80 DB 80 DC 80 D9  ......Q.........
1DA0: 80 5B D5 80 FB 51 10 01  FB 51 10 01 66 79 75 30  .[...Q...Q..fyu0
1DB0: 27 10 FB 51 10 01 6F 7A  00 FE 51 10 01 27 10 FE  '..Q..oz..Q..'..
1DC0: 51 10 01 17 BA FE 51 10  01 DA 80 DB 80 DD 80 D9  Q.....Q.........
1DD0: 80 6A 01 80 27 80 27 80  02 87 7F 27 80 80 20 1E  .j..'.'....'.. .
1DE0: BA F0 FF FF 7F DE 80 DF  80 E0 80 E1 80 5F 03 BF  ............._..
1DF0: 80 0A 52 10 01 0A 52 10  01 73 6C 6F 30 5F 03 CC  ..R...R..slo0_..
1E00: 80 FE 51 10 01 FE 51 10  01 73 6C 6F 30 5F 04 E2  ..Q...Q..slo0_..
1E10: 80 F0 FF FF 7F F0 FF FF  7F 73 6C 6F 30 01 18 20  .........slo0.. 
1E20: 02 87 7F E3 80 80 68 1E  BA F0 FF FF 7F DE 80 DF  ......h.........
1E30: 80 E0 80 E1 80 5F 03 BF  80 0A 52 10 01 0A 52 10  ....._....R...R.
1E40: 01 73 6C 6F 30 5F 03 CC  80 FE 51 10 01 FE 51 10  .slo0_....Q...Q.
1E50: 01 73 6C 6F 30 5F 04 E4  80 F0 FF FF 7F F0 FF FF  .slo0_..........
1E60: 7F 73 6C 6F 30 01 18 20  02 87 7F 2D 80 80 B0 1E  .slo0.. ...-....
1E70: BA F0 FF FF 7F DE 80 DF  80 E0 80 E1 80 5F 03 BF  ............._..
1E80: 80 0A 52 10 01 0A 52 10  01 73 6C 6F 32 5F 03 CC  ..R...R..slo2_..
1E90: 80 FE 51 10 01 FE 51 10  01 73 6C 6F 30 5F 04 E5  ..Q...Q..slo0_..
1EA0: 80 F0 FF FF 7F F0 FF FF  7F 73 6C 6F 30 01 18 20  .........slo0.. 
1EB0: 02 87 7F 2F 80 80 F8 1E  BA F0 FF FF 7F DE 80 DF  .../............
1EC0: 80 E0 80 E1 80 5F 03 BF  80 0A 52 10 01 0A 52 10  ....._....R...R.
1ED0: 01 73 6C 6F 32 5F 03 CC  80 FE 51 10 01 FE 51 10  .slo2_....Q...Q.
1EE0: 01 73 6C 6F 30 5F 04 E6  80 F0 FF FF 7F F0 FF FF  .slo0_..........
1EF0: 7F 73 6C 6F 30 01 18 20  02 87 7F 36 80 80 40 1F  .slo0.. ...6..@.
1F00: BA F0 FF FF 7F E7 80 E8  80 E0 80 E9 80 5F 03 BF  ............._..
1F10: 80 0A 52 10 01 0A 52 10  01 73 6C 6F 34 5F 03 CC  ..R...R..slo4_..
1F20: 80 FE 51 10 01 FE 51 10  01 73 6C 6F 30 5F 04 EA  ..Q...Q..slo0_..
1F30: 80 F0 FF FF 7F F0 FF FF  7F 73 6C 6F 30 01 18 20  .........slo0.. 
1F40: 02 87 7F 38 80 80 88 1F  BA F0 FF FF 7F E7 80 E8  ...8............
1F50: 80 E0 80 E9 80 5F 03 BF  80 0A 52 10 01 0A 52 10  ....._....R...R.
1F60: 01 73 6C 6F 34 5F 03 CC  80 FE 51 10 01 FE 51 10  .slo4_....Q...Q.
1F70: 01 73 6C 6F 30 5F 04 EA  80 F0 FF FF 7F F0 FF FF  .slo0_..........
1F80: 7F 73 6C 6F 30 01 18 20  02 87 7F 62 80 80 D0 1F  .slo0.. ...b....
1F90: BA F0 FF FF 7F DE 80 DF  80 E0 80 E1 80 5F 03 BF  ............._..
1FA0: 80 0A 52 10 01 0A 52 10  01 73 6C 6F 30 5F 03 CC  ..R...R..slo0_..
1FB0: 80 FE 51 10 01 FE 51 10  01 73 6C 6F 30 5F 04 EB  ..Q...Q..slo0_..
1FC0: 80 F0 FF FF 7F F0 FF FF  7F 73 6C 6F 30 01 18 20  .........slo0.. 
1FD0: 02 87 7F 30 80 80 18 20  BA F0 FF FF 7F DE 80 DF  ...0... ........
1FE0: 80 E0 80 E1 80 5F 03 BF  80 0A 52 10 01 0A 52 10  ....._....R...R.
1FF0: 01 73 6C 6F 36 5F 03 CC  80 FE 51 10 01 FE 51 10  .slo6_....Q...Q.
2000: 01 73 6C 6F 30 5F 04 EC  80 F0 FF FF 7F F0 FF FF  .slo0_..........
2010: 7F 73 6C 6F 30 01 18 20  D0 C5 80 FE 51 10 01 FE  .slo0.. ....Q...
2020: 51 10 01 74 69 6D 33 01  80 1C ED 80 5F 03 EE 80  Q..tim3....._...
2030: 0A 52 10 01 0A 52 10 01  63 6D 6F 66 5F 02 0A 52  .R...R..cmof_..R
2040: 10 01 45 2E 80 F8 FF FF  7F F8 FF FF 7F 73 61 34  ..E..........sa4
2050: 34 01 80 7A 00 FB 51 10  01 59 01 FB 51 10 01 36  4..z..Q..Y..Q..6
2060: 80 4B FB 51 10 01 EF 80  1C F0 80 6A F1 80 27 80  .K.Q.......j..'.
2070: 27 80 4E 00 00 52 10 01  5F 03 F2 80 FE 51 10 01  '.N..R.._....Q..
2080: FE 51 10 01 73 6C 6F 31  59 01 FB 51 10 01 59 80  .Q..slo1Y..Q..Y.
2090: 52 2E 80 F8 FF FF 7F F8  FF FF 7F 73 61 34 34 5F  R..........sa44_
20A0: 03 EE 80 0A 52 10 01 0A  52 10 01 63 6D 6F 6E BA  ....R...R..cmon.
20B0: 0A 52 10 01 DA 80 DB 80  DD 80 D9 80 02 87 7F 27  .R.............'
20C0: 80 80 F4 20 BA F0 FF FF  7F F3 80 F4 80 E0 80 F5  ... ............
20D0: 80 5F 03 BF 80 0A 52 10  01 0A 52 10 01 73 6C 6F  ._....R...R..slo
20E0: 31 5F 04 E2 80 F0 FF FF  7F F0 FF FF 7F 73 6C 6F  1_...........slo
20F0: 31 01 7C 22 02 87 7F E3  80 80 2C 21 BA F0 FF FF  1.|"......,!....
2100: 7F F3 80 F4 80 E0 80 F5  80 5F 03 BF 80 0A 52 10  ........._....R.
2110: 01 0A 52 10 01 73 6C 6F  31 5F 04 E4 80 F0 FF FF  ..R..slo1_......
2120: 7F F0 FF FF 7F 73 6C 6F  31 01 7C 22 02 87 7F 2D  .....slo1.|"...-
2130: 80 80 64 21 BA F0 FF FF  7F F3 80 F4 80 E0 80 F5  ..d!............
2140: 80 5F 03 BF 80 0A 52 10  01 0A 52 10 01 73 6C 6F  ._....R...R..slo
2150: 33 5F 04 E5 80 F0 FF FF  7F F0 FF FF 7F 73 6C 6F  3_...........slo
2160: 31 01 7C 22 02 87 7F 2F  80 80 9C 21 BA F0 FF FF  1.|".../...!....
2170: 7F F3 80 F4 80 E0 80 F5  80 5F 03 BF 80 0A 52 10  ........._....R.
2180: 01 0A 52 10 01 73 6C 6F  33 5F 04 E6 80 F0 FF FF  ..R..slo3_......
2190: 7F F0 FF FF 7F 73 6C 6F  31 01 7C 22 02 87 7F 36  .....slo1.|"...6
21A0: 80 80 D4 21 BA F0 FF FF  7F F3 80 F6 80 E0 80 F7  ...!............
21B0: 80 5F 03 BF 80 0A 52 10  01 0A 52 10 01 73 6C 6F  ._....R...R..slo
21C0: 35 5F 04 EA 80 F0 FF FF  7F F0 FF FF 7F 73 6C 6F  5_...........slo
21D0: 31 01 7C 22 02 87 7F 38  80 80 0C 22 BA F0 FF FF  1.|"...8..."....
21E0: 7F F3 80 F6 80 E0 80 F7  80 5F 03 BF 80 0A 52 10  ........._....R.
21F0: 01 0A 52 10 01 73 6C 6F  35 5F 04 EA 80 F0 FF FF  ..R..slo5_......
2200: 7F F0 FF FF 7F 73 6C 6F  31 01 7C 22 02 87 7F 62  .....slo1.|"...b
2210: 80 80 44 22 BA F0 FF FF  7F F3 80 F4 80 E0 80 F5  ..D"............
2220: 80 5F 03 BF 80 0A 52 10  01 0A 52 10 01 73 6C 6F  ._....R...R..slo
2230: 31 5F 04 EB 80 F0 FF FF  7F F0 FF FF 7F 73 6C 6F  1_...........slo
2240: 31 01 7C 22 02 87 7F 30  80 80 7C 22 BA F0 FF FF  1.|"...0..|"....
2250: 7F F3 80 F4 80 E0 80 F5  80 5F 03 BF 80 0A 52 10  ........._....R.
2260: 01 0A 52 10 01 73 6C 6F  37 5F 04 EC 80 F0 FF FF  ..R..slo7_......
2270: 7F F0 FF FF 7F 73 6C 6F  31 01 7C 22 D0 C5 80 FE  .....slo1.|"....
2280: 51 10 01 FE 51 10 01 74  69 6D 34 01 80 1C 27 80  Q...Q..tim4...'.
2290: 4E 01 FB 51 10 01 1C F8  80 6B 69 64 6C 30 FC 51  N..Q.....kidl0.Q
22A0: 10 01 27 10 FC 51 10 01  1A 1C 5B 80 4E 01 FE 51  ..'..Q....[.N..Q
22B0: 10 01 27 10 FE 51 10 01  13 BA 0A 52 10 01 F9 80  ..'..Q.....R....
22C0: FA 80 FB 80 FC 80 5F 03  BF 80 0A 52 10 01 0A 52  ......_....R...R
22D0: 10 01 6B 61 6B 31 5F 03  F2 80 FE 51 10 01 FE 51  ..kak1_....Q...Q
22E0: 10 01 6B 61 6B 30 D0 C5  80 00 52 10 01 00 52 10  ..kak0....R...R.
22F0: 01 74 69 6D 35 01 80 59  05 00 52 10 01 00 BA 00  .tim5..Y..R.....
2300: 52 10 01 FD 80 FE 80 01  80 FC 80 27 10 00 52 10  R..........'..R.
2310: 01 18 BA F0 FF FF 7F FF  80 00 81 E0 80 01 81 6E  ...............n
2320: F0 FF FF 7F 30 80 99 F0  FF FF 7F 2B FC 51 10 01  ....0......+.Q..
2330: 02 81 1C 00 80 5F 03 EE  80 0A 52 10 01 0A 52 10  ....._....R...R.
2340: 01 63 6D 6F 66 5F 02 0A  52 10 01 52 2E 80 F8 FF  .cmof_..R..R....
2350: FF 7F F8 FF FF 7F 73 61  34 34 45 2E 80 F8 FF FF  ......sa44E.....
2360: 7F F8 FF FF 7F 73 62 34  34 01 80 1C 27 80 7A 00  .....sb44...'.z.
2370: 00 52 10 01 BA 00 52 10  01 03 81 04 81 05 81 06  .R....R.........
2380: 81 27 10 00 52 10 01 19  1C 95 80 45 00 80 F0 FF  .'..R......E....
2390: FF 7F F0 FF FF 7F 66 64  6F 31 01 80 55 00 80 F0  ......fdo1..U...
23A0: FF FF 7F F0 FF FF 7F 66  64 6F 31 1C 37 80 6B 69  .......fdo1.7.ki
23B0: 64 6C 30 F0 FF FF 7F 4E  01 F0 FF FF 7F 7A 00 FC  dl0....N.....z..
23C0: 51 10 01 7A 00 FD 51 10  01 27 05 FC 51 10 01 16  Q..z..Q..'..Q...
23D0: 27 05 FD 51 10 01 11 37  07 81 08 81 09 81 0A 81  '..Q...7........
23E0: BA FC 51 10 01 07 81 08  81 09 81 0A 81 BA FD 51  ..Q............Q
23F0: 10 01 0B 81 0C 81 09 81  0A 81 80 FC 51 10 01 80  ............Q...
2400: FD 51 10 01 80 F8 FF FF  7F 1C 37 80 4E 01 F0 FF  .Q........7.N...
2410: FF 7F 92 01 F0 FF FF 7F  38 0D 81 67 0E 81 0F 81  ........8..g....
2420: 1C 37 80 2C FC 51 10 01  FC 51 10 01 70 67 6F 6E  .7.,.Q...Q..pgon
2430: C5 10 81 F8 FF FF 7F F8  FF FF 7F 73 30 30 30 01  ...........s000.
2440: 80 5B 11 81 FD 51 10 01  FD 51 10 01 74 61 62 32  .[...Q...Q..tab2
2450: 1C 37 80 48 12 81 23 1C  2C 80 52 2E 80 F8 FF FF  .7.H..#.,.R.....
2460: 7F F8 FF FF 7F 73 62 34  34 45 2E 80 F8 FF FF 7F  .....sb44E......
2470: F8 FF FF 7F 73 30 34 35  01 80 1C 35 80 45 00 80  ....s045...5.E..
2480: F0 FF FF 7F F0 FF FF 7F  66 64 69 32 01 80 1C 37  ........fdi2...7
2490: 80 48 13 81 23 1C 37 80  48 14 81 23 1C 37 80 48  .H..#.7.H..#.7.H
24A0: 15 81 23 1C 37 80 48 16  81 23 1C 37 80 48 17 81  ..#.7.H..#.7.H..
24B0: 23 1C 37 80 48 18 81 23  5D 01 80 D3 80 5B 11 81  #.7.H..#]....[..
24C0: FC 51 10 01 FC 51 10 01  63 6C 73 30 45 00 80 F0  .Q...Q..cls0E...
24D0: FF FF 7F F0 FF FF 7F 6F  76 6C 31 01 80 52 2E 80  .......ovl1..R..
24E0: F8 FF FF 7F F8 FF FF 7F  73 30 34 35 45 2E 80 F8  ........s045E...
24F0: FF FF 7F F8 FF FF 7F 73  30 34 36 01 80 1C 31 80  .......s046...1.
2500: 52 2E 80 F8 FF FF 7F F8  FF FF 7F 73 30 34 36 45  R..........s046E
2510: 2E 80 F8 FF FF 7F F8 FF  FF 7F 73 30 34 37 01 80  ..........s047..
2520: 1C 19 81 CD 06 80 F8 FF  FF 7F F8 FF FF 7F 73 30  ..............s0
2530: 30 31 01 80 45 2E 80 F8  FF FF 7F F8 FF FF 7F 31  01..E..........1
2540: 31 30 38 01 80 1C 34 80  45 00 80 F0 FF FF 7F F0  108...4.E.......
2550: FF FF 7F 66 64 6F 31 01  80 55 00 80 F0 FF FF 7F  ...fdo1..U......
2560: F0 FF FF 7F 66 64 6F 31  1C 37 80 68 C5 10 81 F8  ....fdo1.7.h....
2570: FF FF 7F F8 FF FF 7F 6B  69 6C 30 01 80 1C 31 80  .......kil0...1.
2580: 6A 01 80 31 80 36 80 1C  31 80 7A 00 FA 51 10 01  j..1.6..1.z..Q..
2590: 7A 00 FB 51 10 01 7A 00  FC 51 10 01 7A 00 FD 51  z..Q..z..Q..z..Q
25A0: 10 01 7A 00 FE 51 10 01  7A 00 FF 51 10 01 7A 00  ..z..Q..z..Q..z.
25B0: 00 52 10 01 7A 00 01 52  10 01 34 1A 81 77 AE 80  .R..z..R..4..w..
25C0: 27 80 1C 27 80 6A F1 80  27 80 36 80 4E 00 FF 51  '..'.j..'.6.N..Q
25D0: 10 01 4E 00 00 52 10 01  4E 00 01 52 10 01 BA FA  ..N..R..N..R....
25E0: 51 10 01 1B 81 1C 81 1D  81 1E 81 BA FF 51 10 01  Q............Q..
25F0: 1F 81 20 81 21 81 22 81  BA 00 52 10 01 23 81 24  .. .!."...R..#.$
2600: 81 25 81 E2 80 BA FC 51  10 01 26 81 27 81 01 80  .%.....Q..&.'...
2610: 01 80 BA FD 51 10 01 28  81 29 81 01 80 6D 80 BA  ....Q..(.)...m..
2620: FB 51 10 01 2A 81 2B 81  2C 81 01 80 BA FE 51 10  .Q..*.+.,.....Q.
2630: 01 2D 81 2E 81 2F 81 01  80 BA 01 52 10 01 30 81  .-.../.....R..0.
2640: 31 81 32 81 01 80 27 10  FA 51 10 01 5F 27 10 FF  1.2...'..Q.._'..
2650: 51 10 01 17 27 10 00 52  10 01 1A 27 10 FC 51 10  Q...'..R...'..Q.
2660: 01 1B 27 10 FD 51 10 01  15 80 FC 51 10 01 80 FD  ..'..Q.....Q....
2670: 51 10 01 80 FA 51 10 01  80 FF 51 10 01 80 00 52  Q....Q....Q....R
2680: 10 01 80 FB 51 10 01 80  FE 51 10 01 80 01 52 10  ....Q....Q....R.
2690: 01 48 40 80 52 2E 80 F8  FF FF 7F F8 FF FF 7F 30  .H@.R..........0
26A0: 34 37 00 45 2E 80 F8 FF  FF 7F F8 FF FF 7F 73 30  47.E..........s0
26B0: 34 38 01 80 45 00 80 F0  FF FF 7F F0 FF FF 7F 66  48..E..........f
26C0: 64 69 31 01 80 55 00 80  F0 FF FF 7F F0 FF FF 7F  di1..U..........
26D0: 66 64 69 31 1C 4B 80 27  10 FA 51 10 01 60 1C 33  fdi1.K.'..Q..`.3
26E0: 81 27 10 01 52 10 01 28  1C 37 80 52 2E 80 F8 FF  .'..R..(.7.R....
26F0: FF 7F F8 FF FF 7F 30 34  38 00 45 2E 80 F8 FF FF  ......048.E.....
2700: 7F F8 FF FF 7F 73 30 34  39 01 80 1C 31 80 27 10  .....s049...1.'.
2710: 01 52 10 01 2A 1C 2C 80  2A 10 01 52 10 01 27 10  .R..*.,.*..R..'.
2720: 01 52 10 01 29 4E 01 01  52 10 01 4E 00 FB 51 10  .R..)N..R..N..Q.
2730: 01 4E 00 FE 51 10 01 52  2E 80 F8 FF FF 7F F8 FF  .N..Q..R........
2740: FF 7F 30 34 39 00 45 2E  80 F8 FF FF 7F F8 FF FF  ..049.E.........
2750: 7F 73 30 35 30 01 80 27  10 FE 51 10 01 18 2A 10  .s050..'..Q...*.
2760: FE 51 10 01 1C 2C 80 27  10 FB 51 10 01 70 1C 4D  .Q...,.'..Q..p.M
2770: 80 45 2E 80 F8 FF FF 7F  F8 FF FF 7F 32 30 30 35  .E..........2005
2780: 01 80 1C 33 81 52 2E 80  F8 FF FF 7F F8 FF FF 7F  ...3.R..........
2790: 30 35 30 00 45 00 80 F0  FF FF 7F F0 FF FF 7F 66  050.E..........f
27A0: 64 6F 31 01 80 55 00 80  F0 FF FF 7F F0 FF FF 7F  do1..U..........
27B0: 66 64 6F 31 1C 37 80 92  00 F0 FF FF 7F 59 05 0A  fdo1.7.......Y..
27C0: 52 10 01 00 27 05 FA 51  10 01 0D 27 05 FB 51 10  R...'..Q...'..Q.
27D0: 01 0B 27 05 FC 51 10 01  0A 27 05 FD 51 10 01 0A  ..'..Q...'..Q...
27E0: 27 05 FE 51 10 01 0C 27  05 FF 51 10 01 0C 27 05  '..Q...'..Q...'.
27F0: 00 52 10 01 0C 27 05 01  52 10 01 24 35 34 81 78  .R...'..R..$54.x
2800: 1C 27 80 5C 00 2C 80 5C  01 2C 80 9A 5D 64 80 2C  .'.\.,.\.,..]d.,
2810: 80 1C 35 80 AB 11 01 80  1C 27 80 AB 0A 46 00 45  ..5......'...F.E
2820: 00 80 F0 FF FF 7F F0 FF  FF 7F 66 64 69 32 01 80  ..........fdi2..
2830: 45 5A 80 F8 FF FF 7F F8  FF FF 7F 71 73 74 63 01  EZ.........qstc.
2840: 80 21 00                                          .!.             
```

#### Opcodes

```
  0: 0x0001 [0x42] SET_CLI_EVENT_CANCEL_DATA()
  1: 0x0002 [0x45] LOAD_SCHEDULED_TASK: Load scheduler "fdo1" with entities [LocalPlayer, LocalPlayer], work=[200*, 0*]
  2: 0x0013 [0x55] WAIT_LOAD_SCHEDULER: Wait for scheduler "fdo1" with entities [LocalPlayer, LocalPlayer], work=200*
  3: 0x0022 [0x46] CAMERA_CONTROL: Disable user control
  4: 0x0024 [0x38] SET_CLIENT_EVENT_MODE(mode=19*)
  5: 0x0027 [0x2F] Unnamed NPC (ID: 17846778/0x011051FA)->Render.Flags0 &= ~0x80000 // Bit 19
  6: 0x002D [0x2F] Unnamed NPC (ID: 17846779/0x011051FB)->Render.Flags0 &= ~0x80000 // Bit 19
  7: 0x0033 [0x2F] Unnamed NPC (ID: 17846780/0x011051FC)->Render.Flags0 &= ~0x80000 // Bit 19
  8: 0x0039 [0x2F] Unnamed NPC (ID: 17846781/0x011051FD)->Render.Flags0 &= ~0x80000 // Bit 19
  9: 0x003F [0x2F] Unnamed NPC (ID: 17846782/0x011051FE)->Render.Flags0 &= ~0x80000 // Bit 19
 10: 0x0045 [0x2F] Unnamed NPC (ID: 17846783/0x011051FF)->Render.Flags0 &= ~0x80000 // Bit 19
 11: 0x004B [0x2F] Unnamed NPC (ID: 17846784/0x01105200)->Render.Flags0 &= ~0x80000 // Bit 19
 12: 0x0051 [0x2F] Unnamed NPC (ID: 17846785/0x01105201)->Render.Flags0 &= ~0x80000 // Bit 19
 13: 0x0057 [0x2F] Unnamed NPC (ID: 17846794/0x0110520A)->Render.Flags0 &= ~0x80000 // Bit 19
 14: 0x005D [0x22] ENTITY_HIDE_FLAG(enabled=0x00)
 15: 0x005F [0x4E] SET_ENTITY_HIDE_FLAG: Show Unnamed NPC (ID: 17846779/0x011051FB)
 16: 0x0065 [0x4E] SET_ENTITY_HIDE_FLAG: Show Unnamed NPC (ID: 17846780/0x011051FC)
 17: 0x006B [0x4E] SET_ENTITY_HIDE_FLAG: Show Unnamed NPC (ID: 17846781/0x011051FD)
 18: 0x0071 [0x4E] SET_ENTITY_HIDE_FLAG: Show Unnamed NPC (ID: 17846794/0x0110520A)
 19: 0x0077 [0x94] Unnamed NPC (ID: 17846778/0x011051FA)->Render.Flags3 ^= 0x01
 20: 0x007D [0x94] Unnamed NPC (ID: 17846779/0x011051FB)->Render.Flags3 ^= 0x01
 21: 0x0083 [0x94] Unnamed NPC (ID: 17846780/0x011051FC)->Render.Flags3 ^= 0x01
 22: 0x0089 [0x94] Unnamed NPC (ID: 17846781/0x011051FD)->Render.Flags3 ^= 0x01
 23: 0x008F [0x94] Unnamed NPC (ID: 17846782/0x011051FE)->Render.Flags3 ^= 0x01
 24: 0x0095 [0x94] Unnamed NPC (ID: 17846783/0x011051FF)->Render.Flags3 ^= 0x01
 25: 0x009B [0x94] Unnamed NPC (ID: 17846784/0x01105200)->Render.Flags3 ^= 0x01
 26: 0x00A1 [0x94] Unnamed NPC (ID: 17846785/0x01105201)->Render.Flags3 ^= 0x01
 27: 0x00A7 [0x94] Unnamed NPC (ID: 17846794/0x0110520A)->Render.Flags3 ^= 0x01
 28: 0x00AD [0x94] LocalPlayer->Render.Flags3 ^= 0x01
 29: 0x00B3 [0x59] UPDATE_ENTITY_DATA: Unnamed NPC (ID: 17846794/0x0110520A)->Render.Flags0 |= 0x200000
 30: 0x00BA [0xBA] SET_ENTITY_POSITION(entity_id=Unnamed NPC (ID: 17846778/0x011051FA), pos_x=254.310*, pos_z=-226.420*, pos_y=0.290*, direction=12.7*)
 31: 0x00C7 [0xBA] SET_ENTITY_POSITION(entity_id=Unnamed NPC (ID: 17846779/0x011051FB), pos_x=274.500*, pos_z=-243.000*, pos_y=0.000*, direction=78.7*)
 32: 0x00D4 [0xBA] SET_ENTITY_POSITION(entity_id=Unnamed NPC (ID: 17846780/0x011051FC), pos_x=288.500*, pos_z=-250.500*, pos_y=0.660*, direction=39.3*)
 33: 0x00E1 [0xBA] SET_ENTITY_POSITION(entity_id=Unnamed NPC (ID: 17846781/0x011051FD), pos_x=289.500*, pos_z=-249.000*, pos_y=0.700*, direction=61.8*)
 34: 0x00EE [0xBA] SET_ENTITY_POSITION(entity_id=Unnamed NPC (ID: 17846782/0x011051FE), pos_x=279.000*, pos_z=-250.000*, pos_y=0.400*, direction=89.9*)
 35: 0x00FB [0xBA] SET_ENTITY_POSITION(entity_id=Unnamed NPC (ID: 17846783/0x011051FF), pos_x=255.092*, pos_z=-225.554*, pos_y=0.370*, direction=12.7*)
 36: 0x0108 [0xBA] SET_ENTITY_POSITION(entity_id=Unnamed NPC (ID: 17846784/0x01105200), pos_x=298.110*, pos_z=-258.900*, pos_y=0.760*, direction=219.7*)
 37: 0x0115 [0x59] UPDATE_ENTITY_DATA: Unnamed NPC (ID: 17846785/0x01105201)->Render.Flags0 |= 0x200000
 38: 0x011C [0xBA] SET_ENTITY_POSITION(entity_id=Unnamed NPC (ID: 17846785/0x01105201), pos_x=301.872*, pos_z=-211.568*, pos_y=-8.190*, direction=162.3*)
 39: 0x0129 [0xBA] SET_ENTITY_POSITION(entity_id=Unnamed NPC (ID: 17846794/0x0110520A), pos_x=293.564*, pos_z=-227.105*, pos_y=-4.730*, direction=30.2*)
 40: 0x0136 [0x5B] LOAD_EXT_SCHEDULER: Load scheduler "iki0" with entities [Unnamed NPC (ID: 17846780/0x011051FC), Unnamed NPC (ID: 17846780/0x011051FC)], work=3603*
 41: 0x0145 [0x5B] LOAD_EXT_SCHEDULER: Load scheduler "std0" with entities [Unnamed NPC (ID: 17846781/0x011051FD), Unnamed NPC (ID: 17846781/0x011051FD)], work=3281*
 42: 0x0154 [0x80] LOAD_WAIT(entity=Unnamed NPC (ID: 17846779/0x011051FB))
 43: 0x0159 [0x80] LOAD_WAIT(entity=Unnamed NPC (ID: 17846780/0x011051FC))
 44: 0x015E [0x80] LOAD_WAIT(entity=Unnamed NPC (ID: 17846781/0x011051FD))
 45: 0x0163 [0x6C] FADE_ENTITY_COLOR(entity_id=Unnamed NPC (ID: 17846780/0x011051FC), end_alpha=0*, fade_time=1*)
 46: 0x016C [0x6C] FADE_ENTITY_COLOR(entity_id=Unnamed NPC (ID: 17846781/0x011051FD), end_alpha=0*, fade_time=1*)
 47: 0x0175 [0x80] LOAD_WAIT(entity=Unnamed NPC (ID: 17846794/0x0110520A))
 48: 0x017A [0x7B] LocalPlayer stops talking
 49: 0x017F [0xBA] SET_ENTITY_POSITION(entity_id=LocalPlayer, pos_x=276.300*, pos_z=-252.000*, pos_y=0.510*, direction=112.4*)
 50: 0x018C [0x29] REQ_SET_WAIT(priority=0x10, entity_id=LocalPlayer, tag_num=0x41)
 51: 0x0193 [0x4A] Unnamed NPC (ID: 17846779/0x011051FB) looks at LocalPlayer
 52: 0x019C [0x7B] Unnamed NPC (ID: 17846779/0x011051FB) stops talking
 53: 0x01A1 [0x1C] WAIT(60* ticks)
 54: 0x01A4 [0x02] IF !(LocalPlayer->Race == 3*) GOTO 0x01C0
 55: 0x01AC [0x45] LOAD_SCHEDULED_TASK: Load scheduler "sg00" with entities [EventEntity, EventEntity], work=[810*, 0*]
 56: 0x01BD [0x01] GOTO 0x0209
 57: 0x01C0 [0x02] IF !(LocalPlayer->Race == 4*) GOTO 0x01DC
 58: 0x01C8 [0x45] LOAD_SCHEDULED_TASK: Load scheduler "sg00" with entities [EventEntity, EventEntity], work=[810*, 0*]
 59: 0x01D9 [0x01] GOTO 0x0209
 60: 0x01DC [0x02] IF !(LocalPlayer->Race == 8*) GOTO 0x01F8
 61: 0x01E4 [0x45] LOAD_SCHEDULED_TASK: Load scheduler "sg00" with entities [EventEntity, EventEntity], work=[810*, 0*]
 62: 0x01F5 [0x01] GOTO 0x0209
 63: 0x01F8 [0x45] LOAD_SCHEDULED_TASK: Load scheduler "s000" with entities [EventEntity, EventEntity], work=[810*, 0*]

SUBROUTINE_0209:
 64: 0x0209 [0x45] LOAD_SCHEDULED_TASK: Load scheduler "fdi1" with entities [LocalPlayer, LocalPlayer], work=[200*, 0*]
 65: 0x021A [0x55] WAIT_LOAD_SCHEDULER: Wait for scheduler "fdi1" with entities [LocalPlayer, LocalPlayer], work=200*
 66: 0x0229 [0x1C] WAIT(240* ticks)
 67: 0x022C [0x27] REQ_SET(priority=0x10, entity_id=Unnamed NPC (ID: 17846779/0x011051FB), tag_num=0x67)
 68: 0x0233 [0x2A] GET_REQ_LEVEL(level=16, entity_id=Unnamed NPC (ID: 17846779/0x011051FB))
 69: 0x0239 [0x4A] Unnamed NPC (ID: 17846779/0x011051FB) looks at LocalPlayer
 70: 0x0242 [0x1C] WAIT(90* ticks)
 71: 0x0245 [0xB4] UI_WINDOW_STRING_HANDLER(case=0x00 - Copy string from opcode, work_offset=ExtData[1]->WorkLocal[0], string="???")
 72: 0x0259 [0xB5] SET_EVENT_ENTITY_NAME: Change EventEntity name to ExtData[1]->WorkLocal[0]
 73: 0x025D [0xB0] PRINT_EVENT_MESSAGE(unknown1=0x00, speaker_id=EventEntity, listener_id=0x011051FB, message_offset=0x8033)
 74: 0x0269 [0x1C] WAIT(120* ticks)
 75: 0x026C [0x23] WAIT_FOR_DIALOG_INTERACTION
 76: 0x026D [0x27] REQ_SET(priority=0x10, entity_id=LocalPlayer, tag_num=0x42)
 77: 0x0274 [0x1C] WAIT(15* ticks)
 78: 0x0277 [0x27] REQ_SET(priority=0x10, entity_id=Unnamed NPC (ID: 17846779/0x011051FB), tag_num=0x68)
 79: 0x027E [0x1C] WAIT(5* ticks)
 80: 0x0281 [0x02] IF !(LocalPlayer->Race == 3*) GOTO 0x02AC
 81: 0x0289 [0x52] END_LOAD_SCHEDULER: End scheduler "sg00" with entities [EventEntity, EventEntity], work=810*
 82: 0x0298 [0x45] LOAD_SCHEDULED_TASK: Load scheduler "sg01" with entities [EventEntity, EventEntity], work=[810*, 0*]
 83: 0x02A9 [0x01] GOTO 0x0322
 84: 0x02AC [0x02] IF !(LocalPlayer->Race == 4*) GOTO 0x02D7
 85: 0x02B4 [0x52] END_LOAD_SCHEDULER: End scheduler "sg00" with entities [EventEntity, EventEntity], work=810*
 86: 0x02C3 [0x45] LOAD_SCHEDULED_TASK: Load scheduler "sg01" with entities [EventEntity, EventEntity], work=[810*, 0*]
 87: 0x02D4 [0x01] GOTO 0x0322
 88: 0x02D7 [0x02] IF !(LocalPlayer->Race == 8*) GOTO 0x0302
 89: 0x02DF [0x52] END_LOAD_SCHEDULER: End scheduler "sg00" with entities [EventEntity, EventEntity], work=810*
 90: 0x02EE [0x45] LOAD_SCHEDULED_TASK: Load scheduler "sg01" with entities [EventEntity, EventEntity], work=[810*, 0*]
 91: 0x02FF [0x01] GOTO 0x0322
 92: 0x0302 [0x52] END_LOAD_SCHEDULER: End scheduler "s000" with entities [EventEntity, EventEntity], work=810*
 93: 0x0311 [0x45] LOAD_SCHEDULED_TASK: Load scheduler "s001" with entities [EventEntity, EventEntity], work=[810*, 0*]

SUBROUTINE_0322:
 94: 0x0322 [0x2A] GET_REQ_LEVEL(level=16, entity_id=LocalPlayer)
 95: 0x0328 [0x1C] WAIT(15* ticks)
 96: 0x032B [0x4A] LocalPlayer looks at Unnamed NPC (ID: 17846779/0x011051FB)
 97: 0x0334 [0x1C] WAIT(30* ticks)
 98: 0x0337 [0x02] IF !(LocalPlayer->Race == 3*) GOTO 0x0362
 99: 0x033F [0x52] END_LOAD_SCHEDULER: End scheduler "sg01" with entities [EventEntity, EventEntity], work=810*
100: 0x034E [0x45] LOAD_SCHEDULED_TASK: Load scheduler "s002" with entities [EventEntity, EventEntity], work=[810*, 0*]
101: 0x035F [0x01] GOTO 0x042E
102: 0x0362 [0x02] IF !(LocalPlayer->Race == 4*) GOTO 0x038D
103: 0x036A [0x52] END_LOAD_SCHEDULER: End scheduler "sg01" with entities [EventEntity, EventEntity], work=810*
104: 0x0379 [0x45] LOAD_SCHEDULED_TASK: Load scheduler "s002" with entities [EventEntity, EventEntity], work=[810*, 0*]
105: 0x038A [0x01] GOTO 0x042E
106: 0x038D [0x02] IF !(LocalPlayer->Race == 5*) GOTO 0x03B8
107: 0x0395 [0x52] END_LOAD_SCHEDULER: End scheduler "s001" with entities [EventEntity, EventEntity], work=810*
108: 0x03A4 [0x45] LOAD_SCHEDULED_TASK: Load scheduler "st02" with entities [EventEntity, EventEntity], work=[810*, 0*]
109: 0x03B5 [0x01] GOTO 0x042E
110: 0x03B8 [0x02] IF !(LocalPlayer->Race == 6*) GOTO 0x03E3
111: 0x03C0 [0x52] END_LOAD_SCHEDULER: End scheduler "s001" with entities [EventEntity, EventEntity], work=810*
112: 0x03CF [0x45] LOAD_SCHEDULED_TASK: Load scheduler "st02" with entities [EventEntity, EventEntity], work=[810*, 0*]
113: 0x03E0 [0x01] GOTO 0x042E
114: 0x03E3 [0x02] IF !(LocalPlayer->Race == 8*) GOTO 0x040E
115: 0x03EB [0x52] END_LOAD_SCHEDULER: End scheduler "sg01" with entities [EventEntity, EventEntity], work=810*
116: 0x03FA [0x45] LOAD_SCHEDULED_TASK: Load scheduler "s002" with entities [EventEntity, EventEntity], work=[810*, 0*]
117: 0x040B [0x01] GOTO 0x042E
118: 0x040E [0x52] END_LOAD_SCHEDULER: End scheduler "s001" with entities [EventEntity, EventEntity], work=810*
119: 0x041D [0x45] LOAD_SCHEDULED_TASK: Load scheduler "s002" with entities [EventEntity, EventEntity], work=[810*, 0*]

SUBROUTINE_042E:
120: 0x042E [0x2A] GET_REQ_LEVEL(level=16, entity_id=Unnamed NPC (ID: 17846779/0x011051FB))
121: 0x0434 [0x1C] WAIT(5* ticks)
122: 0x0437 [0x4A] LocalPlayer looks at Unnamed NPC (ID: 17846779/0x011051FB)
123: 0x0440 [0x6F] WAIT_FRAME_DELAY: Yield until WaitTime reaches zero
124: 0x0441 [0x76] CHECK_ENTITY_RENDER_FLAGS: Wait until LocalPlayer Render.Flags0 and Render.Flags3 conditions are met
125: 0x0446 [0x27] REQ_SET(priority=0x10, entity_id=LocalPlayer, tag_num=0x40)
126: 0x044D [0x1C] WAIT(150* ticks)
127: 0x0450 [0x02] IF !(LocalPlayer->Race == 5*) GOTO 0x046A
128: 0x0458 [0x52] END_LOAD_SCHEDULER: End scheduler "st02" with entities [EventEntity, EventEntity], work=810*
129: 0x0467 [0x01] GOTO 0x0493
130: 0x046A [0x02] IF !(LocalPlayer->Race == 6*) GOTO 0x0484
131: 0x0472 [0x52] END_LOAD_SCHEDULER: End scheduler "st02" with entities [EventEntity, EventEntity], work=810*
132: 0x0481 [0x01] GOTO 0x0493
133: 0x0484 [0x52] END_LOAD_SCHEDULER: End scheduler "s002" with entities [EventEntity, EventEntity], work=810*

SUBROUTINE_0493:
134: 0x0493 [0x45] LOAD_SCHEDULED_TASK: Load scheduler "s003" with entities [EventEntity, EventEntity], work=[810*, 0*]
135: 0x04A4 [0x5B] LOAD_EXT_SCHEDULER: Load scheduler "tlk0" with entities [Unnamed NPC (ID: 17846779/0x011051FB), Unnamed NPC (ID: 17846779/0x011051FB)], work=3248*
136: 0x04B3 [0x2B] Unnamed NPC (ID: 17846779/0x011051FB) [8364*]:
     "I see... So Fremilla is the one doing the investigating this time around."
137: 0x04BA [0x1C] WAIT(120* ticks)
138: 0x04BD [0x23] WAIT_FOR_DIALOG_INTERACTION
139: 0x04BE [0x5B] LOAD_EXT_SCHEDULER: Load scheduler "tlk1" with entities [Unnamed NPC (ID: 17846779/0x011051FB), Unnamed NPC (ID: 17846779/0x011051FB)], work=3248*
140: 0x04CD [0x2B] Unnamed NPC (ID: 17846779/0x011051FB) [8365*]:
     "It must've been quite the sight to see her racing out of the castle... She refuses to be tied down by convention, although I suppose I'm not one to talk."
141: 0x04D4 [0x1C] WAIT(150* ticks)
142: 0x04D7 [0x23] WAIT_FOR_DIALOG_INTERACTION
143: 0x04D8 [0x52] END_LOAD_SCHEDULER: End scheduler "s003" with entities [EventEntity, EventEntity], work=810*
144: 0x04E7 [0x02] IF !(LocalPlayer->Race == 3*) GOTO 0x0503
145: 0x04EF [0x45] LOAD_SCHEDULED_TASK: Load scheduler "sg04" with entities [EventEntity, EventEntity], work=[810*, 0*]
146: 0x0500 [0x01] GOTO 0x0584
147: 0x0503 [0x02] IF !(LocalPlayer->Race == 4*) GOTO 0x051F
148: 0x050B [0x45] LOAD_SCHEDULED_TASK: Load scheduler "sg04" with entities [EventEntity, EventEntity], work=[810*, 0*]
149: 0x051C [0x01] GOTO 0x0584
150: 0x051F [0x02] IF !(LocalPlayer->Race == 5*) GOTO 0x053B
151: 0x0527 [0x45] LOAD_SCHEDULED_TASK: Load scheduler "st04" with entities [EventEntity, EventEntity], work=[810*, 0*]
152: 0x0538 [0x01] GOTO 0x0584
153: 0x053B [0x02] IF !(LocalPlayer->Race == 6*) GOTO 0x0557
154: 0x0543 [0x45] LOAD_SCHEDULED_TASK: Load scheduler "st04" with entities [EventEntity, EventEntity], work=[810*, 0*]
155: 0x0554 [0x01] GOTO 0x0584
156: 0x0557 [0x02] IF !(LocalPlayer->Race == 8*) GOTO 0x0573
157: 0x055F [0x45] LOAD_SCHEDULED_TASK: Load scheduler "sg04" with entities [EventEntity, EventEntity], work=[810*, 0*]
158: 0x0570 [0x01] GOTO 0x0584
159: 0x0573 [0x45] LOAD_SCHEDULED_TASK: Load scheduler "s004" with entities [EventEntity, EventEntity], work=[810*, 0*]

SUBROUTINE_0584:
160: 0x0584 [0x5B] LOAD_EXT_SCHEDULER: Load scheduler "tlk0" with entities [Unnamed NPC (ID: 17846779/0x011051FB), Unnamed NPC (ID: 17846779/0x011051FB)], work=3248*
161: 0x0593 [0x2B] Unnamed NPC (ID: 17846779/0x011051FB) [8366*]:
     "That being said, I imagine she's so focused on helping Arciela that she's probably just moving blindly about without any real direction."
162: 0x059A [0x23] WAIT_FOR_DIALOG_INTERACTION
163: 0x059B [0x2B] Unnamed NPC (ID: 17846779/0x011051FB) [8367*]:
     "Although, the day will eventually come when Arciela and Adoulin itself require her support. I look forward to seeing that day in person."
164: 0x05A2 [0x1C] WAIT(150* ticks)
165: 0x05A5 [0x23] WAIT_FOR_DIALOG_INTERACTION
166: 0x05A6 [0x5B] LOAD_EXT_SCHEDULER: Load scheduler "tlk1" with entities [Unnamed NPC (ID: 17846779/0x011051FB), Unnamed NPC (ID: 17846779/0x011051FB)], work=3248*
167: 0x05B5 [0x02] IF !(LocalPlayer->Race == 3*) GOTO 0x05CF
168: 0x05BD [0x52] END_LOAD_SCHEDULER: End scheduler "sg04" with entities [EventEntity, EventEntity], work=810*
169: 0x05CC [0x01] GOTO 0x0646
170: 0x05CF [0x02] IF !(LocalPlayer->Race == 4*) GOTO 0x05E9
171: 0x05D7 [0x52] END_LOAD_SCHEDULER: End scheduler "sg04" with entities [EventEntity, EventEntity], work=810*
172: 0x05E6 [0x01] GOTO 0x0646
173: 0x05E9 [0x02] IF !(LocalPlayer->Race == 5*) GOTO 0x0603
174: 0x05F1 [0x52] END_LOAD_SCHEDULER: End scheduler "st04" with entities [EventEntity, EventEntity], work=810*
175: 0x0600 [0x01] GOTO 0x0646
176: 0x0603 [0x02] IF !(LocalPlayer->Race == 6*) GOTO 0x061D
177: 0x060B [0x52] END_LOAD_SCHEDULER: End scheduler "st04" with entities [EventEntity, EventEntity], work=810*
178: 0x061A [0x01] GOTO 0x0646
179: 0x061D [0x02] IF !(LocalPlayer->Race == 8*) GOTO 0x0637
180: 0x0625 [0x52] END_LOAD_SCHEDULER: End scheduler "sg04" with entities [EventEntity, EventEntity], work=810*
181: 0x0634 [0x01] GOTO 0x0646
182: 0x0637 [0x52] END_LOAD_SCHEDULER: End scheduler "s004" with entities [EventEntity, EventEntity], work=810*

SUBROUTINE_0646:
183: 0x0646 [0x45] LOAD_SCHEDULED_TASK: Load scheduler "s005" with entities [EventEntity, EventEntity], work=[810*, 0*]
184: 0x0657 [0x2B] Unnamed NPC (ID: 17846779/0x011051FB) [8368*]:
     "In fact, that day might come even sooner than anticipated..."
185: 0x065E [0x1C] WAIT(150* ticks)
186: 0x0661 [0x23] WAIT_FOR_DIALOG_INTERACTION
187: 0x0662 [0x45] LOAD_SCHEDULED_TASK: Load scheduler "fdo1" with entities [LocalPlayer, LocalPlayer], work=[200*, 0*]
188: 0x0673 [0x55] WAIT_LOAD_SCHEDULER: Wait for scheduler "fdo1" with entities [LocalPlayer, LocalPlayer], work=200*
189: 0x0682 [0x48] [System] [7799*]:
     ""
190: 0x0685 [0x7B] Unnamed NPC (ID: 17846779/0x011051FB) stops talking
191: 0x068A [0x7B] LocalPlayer stops talking
192: 0x068F [0xBA] SET_ENTITY_POSITION(entity_id=Unnamed NPC (ID: 17846779/0x011051FB), pos_x=295.030*, pos_z=-257.190*, pos_y=0.770*, direction=0.0*)
193: 0x069C [0xBA] SET_ENTITY_POSITION(entity_id=LocalPlayer, pos_x=291.764*, pos_z=-258.573*, pos_y=0.805*, direction=0.0*)
194: 0x06A9 [0x1C] WAIT(120* ticks)
195: 0x06AC [0x27] REQ_SET(priority=0x10, entity_id=Unnamed NPC (ID: 17846779/0x011051FB), tag_num=0x69)
196: 0x06B3 [0x27] REQ_SET(priority=0x10, entity_id=LocalPlayer, tag_num=0x43)
197: 0x06BA [0x52] END_LOAD_SCHEDULER: End scheduler "s005" with entities [EventEntity, EventEntity], work=810*
198: 0x06C9 [0x45] LOAD_SCHEDULED_TASK: Load scheduler "s006" with entities [EventEntity, EventEntity], work=[810*, 0*]
199: 0x06DA [0x45] LOAD_SCHEDULED_TASK: Load scheduler "fdi1" with entities [LocalPlayer, LocalPlayer], work=[200*, 0*]
200: 0x06EB [0x55] WAIT_LOAD_SCHEDULER: Wait for scheduler "fdi1" with entities [LocalPlayer, LocalPlayer], work=200*
201: 0x06FA [0x1C] WAIT(120* ticks)
202: 0x06FD [0x52] END_LOAD_SCHEDULER: End scheduler "s006" with entities [EventEntity, EventEntity], work=810*
203: 0x070C [0x45] LOAD_SCHEDULED_TASK: Load scheduler "s007" with entities [EventEntity, EventEntity], work=[810*, 0*]
204: 0x071D [0x2A] GET_REQ_LEVEL(level=16, entity_id=LocalPlayer)
205: 0x0723 [0x1C] WAIT(30* ticks)
206: 0x0726 [0x2B] Unnamed NPC (ID: 17846779/0x011051FB) [8369*]:
     "It truly is strange..."
207: 0x072D [0x23] WAIT_FOR_DIALOG_INTERACTION
208: 0x072E [0x03] Work_Zone[2] = 2410*
209: 0x0733 [0x2B] Unnamed NPC (ID: 17846779/0x011051FB) [8370*]:
     "At first, I was able to use the power of the $3 to speak only a few rudimentary sentences."
210: 0x073A [0x1C] WAIT(120* ticks)
211: 0x073D [0x23] WAIT_FOR_DIALOG_INTERACTION
212: 0x073E [0x2B] Unnamed NPC (ID: 17846779/0x011051FB) [8371*]:
     "But now, I'm actually quite fluent."
213: 0x0745 [0x1C] WAIT(150* ticks)
214: 0x0748 [0x23] WAIT_FOR_DIALOG_INTERACTION
215: 0x0749 [0x52] END_LOAD_SCHEDULER: End scheduler "s007" with entities [EventEntity, EventEntity], work=810*
216: 0x0758 [0x45] LOAD_SCHEDULED_TASK: Load scheduler "sa08" with entities [EventEntity, EventEntity], work=[810*, 0*]
217: 0x0769 [0x1C] WAIT(330* ticks)
218: 0x076C [0x2B] Unnamed NPC (ID: 17846779/0x011051FB) [8372*]:
     "Although it's coming along slowly, I've been able to hold conversations with the townsfolk recently."
219: 0x0773 [0x1C] WAIT(240* ticks)
220: 0x0776 [0x23] WAIT_FOR_DIALOG_INTERACTION
221: 0x0777 [0x27] REQ_SET(priority=0x10, entity_id=Unnamed NPC (ID: 17846779/0x011051FB), tag_num=0x6A)
222: 0x077E [0x1C] WAIT(10* ticks)
223: 0x0781 [0x52] END_LOAD_SCHEDULER: End scheduler "sa08" with entities [EventEntity, EventEntity], work=810*
224: 0x0790 [0x45] LOAD_SCHEDULED_TASK: Load scheduler "s008" with entities [EventEntity, EventEntity], work=[810*, 0*]
225: 0x07A1 [0x2B] Unnamed NPC (ID: 17846779/0x011051FB) [8373*]:
     "And I'm only able to take that next step because peace has been restored to Adoulin."
226: 0x07A8 [0x2A] GET_REQ_LEVEL(level=16, entity_id=Unnamed NPC (ID: 17846779/0x011051FB))
227: 0x07AE [0x23] WAIT_FOR_DIALOG_INTERACTION
228: 0x07AF [0x1C] WAIT(60* ticks)
229: 0x07B2 [0x4A] Unnamed NPC (ID: 17846779/0x011051FB) looks at LocalPlayer
230: 0x07BB [0x1C] WAIT(15* ticks)
231: 0x07BE [0x52] END_LOAD_SCHEDULER: End scheduler "s008" with entities [EventEntity, EventEntity], work=810*
232: 0x07CD [0x02] IF !(LocalPlayer->Race == 3*) GOTO 0x07E9
233: 0x07D5 [0x45] LOAD_SCHEDULED_TASK: Load scheduler "sg09" with entities [EventEntity, EventEntity], work=[810*, 0*]
234: 0x07E6 [0x01] GOTO 0x086A
235: 0x07E9 [0x02] IF !(LocalPlayer->Race == 4*) GOTO 0x0805
236: 0x07F1 [0x45] LOAD_SCHEDULED_TASK: Load scheduler "sg09" with entities [EventEntity, EventEntity], work=[810*, 0*]
237: 0x0802 [0x01] GOTO 0x086A
238: 0x0805 [0x02] IF !(LocalPlayer->Race == 5*) GOTO 0x0821
239: 0x080D [0x45] LOAD_SCHEDULED_TASK: Load scheduler "st09" with entities [EventEntity, EventEntity], work=[810*, 0*]
240: 0x081E [0x01] GOTO 0x086A
241: 0x0821 [0x02] IF !(LocalPlayer->Race == 6*) GOTO 0x083D
242: 0x0829 [0x45] LOAD_SCHEDULED_TASK: Load scheduler "st09" with entities [EventEntity, EventEntity], work=[810*, 0*]
243: 0x083A [0x01] GOTO 0x086A
244: 0x083D [0x02] IF !(LocalPlayer->Race == 8*) GOTO 0x0859
245: 0x0845 [0x45] LOAD_SCHEDULED_TASK: Load scheduler "sg09" with entities [EventEntity, EventEntity], work=[810*, 0*]
246: 0x0856 [0x01] GOTO 0x086A
247: 0x0859 [0x45] LOAD_SCHEDULED_TASK: Load scheduler "s009" with entities [EventEntity, EventEntity], work=[810*, 0*]

SUBROUTINE_086A:
248: 0x086A [0x6F] WAIT_FRAME_DELAY: Yield until WaitTime reaches zero
249: 0x086B [0x76] CHECK_ENTITY_RENDER_FLAGS: Wait until Unnamed NPC (ID: 17846779/0x011051FB) Render.Flags0 and Render.Flags3 conditions are met
250: 0x0870 [0x6F] WAIT_FRAME_DELAY: Yield until WaitTime reaches zero
251: 0x0871 [0x76] CHECK_ENTITY_RENDER_FLAGS: Wait until Unnamed NPC (ID: 17846779/0x011051FB) Render.Flags0 and Render.Flags3 conditions are met
252: 0x0876 [0x4A] LocalPlayer looks at Unnamed NPC (ID: 17846779/0x011051FB)
253: 0x087F [0x5B] LOAD_EXT_SCHEDULER: Load scheduler "tlk0" with entities [Unnamed NPC (ID: 17846779/0x011051FB), Unnamed NPC (ID: 17846779/0x011051FB)], work=3248*
254: 0x088E [0x2B] Unnamed NPC (ID: 17846779/0x011051FB) [8374*]:
     "In other words, <Player>, I have you to thank."
255: 0x0895 [0x1C] WAIT(150* ticks)
256: 0x0898 [0x23] WAIT_FOR_DIALOG_INTERACTION
257: 0x0899 [0x5B] LOAD_EXT_SCHEDULER: Load scheduler "tlk1" with entities [Unnamed NPC (ID: 17846779/0x011051FB), Unnamed NPC (ID: 17846779/0x011051FB)], work=3248*
258: 0x08A8 [0x2B] Unnamed NPC (ID: 17846779/0x011051FB) [8375*]:
     "It's long overdue, but I want to express my gratitude."
259: 0x08AF [0x1C] WAIT(120* ticks)
260: 0x08B2 [0x23] WAIT_FOR_DIALOG_INTERACTION
261: 0x08B3 [0x1C] WAIT(30* ticks)
262: 0x08B6 [0x7B] LocalPlayer stops talking
263: 0x08BB [0x6E] LocalPlayer uses emote 24*
264: 0x08C2 [0x99] Wait for LocalPlayer animation to complete
265: 0x08C7 [0x1C] WAIT(180* ticks)
266: 0x08CA [0x79] LocalPlayer looks at Unnamed NPC (ID: 17846779/0x011051FB) (Basic look)
267: 0x08D4 [0x02] IF !(LocalPlayer->Race == 3*) GOTO 0x08FF
268: 0x08DC [0x52] END_LOAD_SCHEDULER: End scheduler "sg09" with entities [EventEntity, EventEntity], work=810*
269: 0x08EB [0x45] LOAD_SCHEDULED_TASK: Load scheduler "sg10" with entities [EventEntity, EventEntity], work=[810*, 0*]
270: 0x08FC [0x01] GOTO 0x09CB
271: 0x08FF [0x02] IF !(LocalPlayer->Race == 4*) GOTO 0x092A
272: 0x0907 [0x52] END_LOAD_SCHEDULER: End scheduler "sg09" with entities [EventEntity, EventEntity], work=810*
273: 0x0916 [0x45] LOAD_SCHEDULED_TASK: Load scheduler "sg10" with entities [EventEntity, EventEntity], work=[810*, 0*]
274: 0x0927 [0x01] GOTO 0x09CB
275: 0x092A [0x02] IF !(LocalPlayer->Race == 5*) GOTO 0x0955
276: 0x0932 [0x52] END_LOAD_SCHEDULER: End scheduler "st09" with entities [EventEntity, EventEntity], work=810*
277: 0x0941 [0x45] LOAD_SCHEDULED_TASK: Load scheduler "st10" with entities [EventEntity, EventEntity], work=[810*, 0*]
278: 0x0952 [0x01] GOTO 0x09CB
279: 0x0955 [0x02] IF !(LocalPlayer->Race == 6*) GOTO 0x0980
280: 0x095D [0x52] END_LOAD_SCHEDULER: End scheduler "st09" with entities [EventEntity, EventEntity], work=810*
281: 0x096C [0x45] LOAD_SCHEDULED_TASK: Load scheduler "st10" with entities [EventEntity, EventEntity], work=[810*, 0*]
282: 0x097D [0x01] GOTO 0x09CB
283: 0x0980 [0x02] IF !(LocalPlayer->Race == 8*) GOTO 0x09AB
284: 0x0988 [0x52] END_LOAD_SCHEDULER: End scheduler "sg09" with entities [EventEntity, EventEntity], work=810*
285: 0x0997 [0x45] LOAD_SCHEDULED_TASK: Load scheduler "sg10" with entities [EventEntity, EventEntity], work=[810*, 0*]
286: 0x09A8 [0x01] GOTO 0x09CB
287: 0x09AB [0x52] END_LOAD_SCHEDULER: End scheduler "s009" with entities [EventEntity, EventEntity], work=810*
288: 0x09BA [0x45] LOAD_SCHEDULED_TASK: Load scheduler "s010" with entities [EventEntity, EventEntity], work=[810*, 0*]

SUBROUTINE_09CB:
289: 0x09CB [0x5B] LOAD_EXT_SCHEDULER: Load scheduler "tla0" with entities [Unnamed NPC (ID: 17846779/0x011051FB), Unnamed NPC (ID: 17846779/0x011051FB)], work=3319*
290: 0x09DA [0x2B] Unnamed NPC (ID: 17846779/0x011051FB) [8376*]:
     "Normally, this would be where I tell you to let me know if you ever need my help..."
291: 0x09E1 [0x23] WAIT_FOR_DIALOG_INTERACTION
292: 0x09E2 [0x2B] Unnamed NPC (ID: 17846779/0x011051FB) [8377*]:
     "However, there is still much that requires my attention. I'm sorry I can't be of more assistance to you."
293: 0x09E9 [0x1C] WAIT(150* ticks)
294: 0x09EC [0x5B] LOAD_EXT_SCHEDULER: Load scheduler "tla1" with entities [Unnamed NPC (ID: 17846779/0x011051FB), Unnamed NPC (ID: 17846779/0x011051FB)], work=3319*
295: 0x09FB [0x1C] WAIT(60* ticks)
296: 0x09FE [0x5D] SET_MUSIC_VOLUME(volume=0*, fade_time=400*)
297: 0x0A03 [0xCD] LOAD_SCHEDULED_TASK_ALT4: Load scheduler "star" with entities [LocalPlayer, LocalPlayer], work=[174*, 0*]
298: 0x0A14 [0x1C] WAIT(60* ticks)
299: 0x0A17 [0x02] IF !(LocalPlayer->Race == 3*) GOTO 0x0A31
300: 0x0A1F [0x52] END_LOAD_SCHEDULER: End scheduler "sg10" with entities [EventEntity, EventEntity], work=810*
301: 0x0A2E [0x01] GOTO 0x0AA8
302: 0x0A31 [0x02] IF !(LocalPlayer->Race == 4*) GOTO 0x0A4B
303: 0x0A39 [0x52] END_LOAD_SCHEDULER: End scheduler "sg10" with entities [EventEntity, EventEntity], work=810*
304: 0x0A48 [0x01] GOTO 0x0AA8
305: 0x0A4B [0x02] IF !(LocalPlayer->Race == 5*) GOTO 0x0A65
306: 0x0A53 [0x52] END_LOAD_SCHEDULER: End scheduler "st10" with entities [EventEntity, EventEntity], work=810*
307: 0x0A62 [0x01] GOTO 0x0AA8
308: 0x0A65 [0x02] IF !(LocalPlayer->Race == 6*) GOTO 0x0A7F
309: 0x0A6D [0x52] END_LOAD_SCHEDULER: End scheduler "st10" with entities [EventEntity, EventEntity], work=810*
310: 0x0A7C [0x01] GOTO 0x0AA8
311: 0x0A7F [0x02] IF !(LocalPlayer->Race == 8*) GOTO 0x0A99
312: 0x0A87 [0x52] END_LOAD_SCHEDULER: End scheduler "sg10" with entities [EventEntity, EventEntity], work=810*
313: 0x0A96 [0x01] GOTO 0x0AA8
314: 0x0A99 [0x52] END_LOAD_SCHEDULER: End scheduler "s010" with entities [EventEntity, EventEntity], work=810*

SUBROUTINE_0AA8:
315: 0x0AA8 [0x45] LOAD_SCHEDULED_TASK: Load scheduler "s011" with entities [EventEntity, EventEntity], work=[810*, 0*]
316: 0x0AB9 [0x5B] LOAD_EXT_SCHEDULER: Load scheduler "mgk0" with entities [Unnamed NPC (ID: 17846779/0x011051FB), Unnamed NPC (ID: 17846779/0x011051FB)], work=3255*
317: 0x0AC8 [0x2B] Unnamed NPC (ID: 17846779/0x011051FB) [8378*]:
     "What!?"
318: 0x0ACF [0x1C] WAIT(60* ticks)
319: 0x0AD2 [0x23] WAIT_FOR_DIALOG_INTERACTION
320: 0x0AD3 [0xCD] LOAD_SCHEDULED_TASK_ALT4: Load scheduler "stop" with entities [LocalPlayer, LocalPlayer], work=[174*, 0*]
321: 0x0AE4 [0x1C] WAIT(100* ticks)
322: 0x0AE7 [0x45] LOAD_SCHEDULED_TASK: Load scheduler "who1" with entities [LocalPlayer, LocalPlayer], work=[201*, 0*]
323: 0x0AF8 [0x55] WAIT_LOAD_SCHEDULER: Wait for scheduler "who1" with entities [LocalPlayer, LocalPlayer], work=201*
324: 0x0B07 [0x6B] STOP_AND_IDLE: Unnamed NPC (ID: 17846779/0x011051FB) stops current action and resets to idle (animation="idl0")
325: 0x0B10 [0x4E] SET_ENTITY_HIDE_FLAG: Show Unnamed NPC (ID: 17846784/0x01105200)
326: 0x0B16 [0x80] LOAD_WAIT(entity=Unnamed NPC (ID: 17846784/0x01105200))
327: 0x0B1B [0x79] LocalPlayer looks at Unnamed NPC (ID: 17846784/0x01105200) (Basic look)
328: 0x0B25 [0x4A] Unnamed NPC (ID: 17846784/0x01105200) looks at LocalPlayer
329: 0x0B2E [0x4A] Unnamed NPC (ID: 17846779/0x011051FB) looks at Unnamed NPC (ID: 17846784/0x01105200)
330: 0x0B37 [0x6F] WAIT_FRAME_DELAY: Yield until WaitTime reaches zero
331: 0x0B38 [0x76] CHECK_ENTITY_RENDER_FLAGS: Wait until Unnamed NPC (ID: 17846779/0x011051FB) Render.Flags0 and Render.Flags3 conditions are met
332: 0x0B3D [0x6F] WAIT_FRAME_DELAY: Yield until WaitTime reaches zero
333: 0x0B3E [0x76] CHECK_ENTITY_RENDER_FLAGS: Wait until Unnamed NPC (ID: 17846784/0x01105200) Render.Flags0 and Render.Flags3 conditions are met
334: 0x0B43 [0x7B] Unnamed NPC (ID: 17846779/0x011051FB) stops talking
335: 0x0B48 [0x7B] Unnamed NPC (ID: 17846784/0x01105200) stops talking
336: 0x0B4D [0x1C] WAIT(20* ticks)
337: 0x0B50 [0xCD] LOAD_SCHEDULED_TASK_ALT4: Load scheduler "main" with entities [Unnamed NPC (ID: 17846784/0x01105200), Unnamed NPC (ID: 17846784/0x01105200)], work=[177*, 0*]
338: 0x0B61 [0x52] END_LOAD_SCHEDULER: End scheduler "s011" with entities [EventEntity, EventEntity], work=810*
339: 0x0B70 [0x45] LOAD_SCHEDULED_TASK: Load scheduler "s012" with entities [EventEntity, EventEntity], work=[810*, 0*]
340: 0x0B81 [0x45] LOAD_SCHEDULED_TASK: Load scheduler "whi1" with entities [LocalPlayer, LocalPlayer], work=[201*, 0*]
341: 0x0B92 [0x55] WAIT_LOAD_SCHEDULER: Wait for scheduler "whi1" with entities [LocalPlayer, LocalPlayer], work=201*
342: 0x0BA1 [0x79] LocalPlayer looks at Unnamed NPC (ID: 17846779/0x011051FB) (Basic look)
343: 0x0BAB [0x1C] WAIT(180* ticks)
344: 0x0BAE [0x4A] Unnamed NPC (ID: 17846784/0x01105200) looks at Unnamed NPC (ID: 17846779/0x011051FB)
345: 0x0BB7 [0x1C] WAIT(15* ticks)
346: 0x0BBA [0x52] END_LOAD_SCHEDULER: End scheduler "s012" with entities [EventEntity, EventEntity], work=810*
347: 0x0BC9 [0x45] LOAD_SCHEDULED_TASK: Load scheduler "s013" with entities [EventEntity, EventEntity], work=[810*, 0*]
348: 0x0BDA [0x6F] WAIT_FRAME_DELAY: Yield until WaitTime reaches zero
349: 0x0BDB [0x76] CHECK_ENTITY_RENDER_FLAGS: Wait until Unnamed NPC (ID: 17846784/0x01105200) Render.Flags0 and Render.Flags3 conditions are met
350: 0x0BE0 [0x5B] LOAD_EXT_SCHEDULER: Load scheduler "tlk0" with entities [Unnamed NPC (ID: 17846784/0x01105200), Unnamed NPC (ID: 17846784/0x01105200)], work=3248*
351: 0x0BEF [0x2B] Unnamed NPC (ID: 17846784/0x01105200) [8379*]:
     "Maybe there is a way I could help you, <Player>!"
352: 0x0BF6 [0x1C] WAIT(150* ticks)
353: 0x0BF9 [0x23] WAIT_FOR_DIALOG_INTERACTION
354: 0x0BFA [0x52] END_LOAD_SCHEDULER: End scheduler "s013" with entities [EventEntity, EventEntity], work=810*
355: 0x0C09 [0x45] LOAD_SCHEDULED_TASK: Load scheduler "s014" with entities [EventEntity, EventEntity], work=[810*, 0*]
356: 0x0C1A [0x5B] LOAD_EXT_SCHEDULER: Load scheduler "tla0" with entities [Unnamed NPC (ID: 17846779/0x011051FB), Unnamed NPC (ID: 17846779/0x011051FB)], work=3319*
357: 0x0C29 [0x2B] Unnamed NPC (ID: 17846779/0x011051FB) [8380*]:
     "Is that the Trust magic I've been hearing about?"
358: 0x0C30 [0x1C] WAIT(150* ticks)
359: 0x0C33 [0x23] WAIT_FOR_DIALOG_INTERACTION
360: 0x0C34 [0x5B] LOAD_EXT_SCHEDULER: Load scheduler "tla1" with entities [Unnamed NPC (ID: 17846779/0x011051FB), Unnamed NPC (ID: 17846779/0x011051FB)], work=3319*
361: 0x0C43 [0x27] REQ_SET(priority=0x10, entity_id=Unnamed NPC (ID: 17846784/0x01105200), tag_num=0x13)
362: 0x0C4A [0x52] END_LOAD_SCHEDULER: End scheduler "s014" with entities [EventEntity, EventEntity], work=810*
363: 0x0C59 [0x45] LOAD_SCHEDULED_TASK: Load scheduler "s015" with entities [EventEntity, EventEntity], work=[810*, 0*]
364: 0x0C6A [0x2B] Unnamed NPC (ID: 17846779/0x011051FB) [8381*]:
     "Arciela's told me about it, but I've never actually seen it in person..."
365: 0x0C71 [0x1C] WAIT(120* ticks)
366: 0x0C74 [0x23] WAIT_FOR_DIALOG_INTERACTION
367: 0x0C75 [0x5B] LOAD_EXT_SCHEDULER: Load scheduler "poi0" with entities [Unnamed NPC (ID: 17846779/0x011051FB), Unnamed NPC (ID: 17846779/0x011051FB)], work=3319*
368: 0x0C84 [0x2B] Unnamed NPC (ID: 17846779/0x011051FB) [8382*]:
     "This really is amazing! The leaves are so lifelike... It's like an exact duplicate of me!"
369: 0x0C8B [0x1C] WAIT(150* ticks)
370: 0x0C8E [0x23] WAIT_FOR_DIALOG_INTERACTION
371: 0x0C8F [0x6B] STOP_AND_IDLE: Unnamed NPC (ID: 17846779/0x011051FB) stops current action and resets to idle (animation="idl0")
372: 0x0C98 [0x7B] Unnamed NPC (ID: 17846779/0x011051FB) stops talking
373: 0x0C9D [0x4A] Unnamed NPC (ID: 17846779/0x011051FB) looks at LocalPlayer
374: 0x0CA6 [0x52] END_LOAD_SCHEDULER: End scheduler "s015" with entities [EventEntity, EventEntity], work=810*
375: 0x0CB5 [0x02] IF !(LocalPlayer->Race == 3*) GOTO 0x0CD1
376: 0x0CBD [0x45] LOAD_SCHEDULED_TASK: Load scheduler "sg16" with entities [EventEntity, EventEntity], work=[810*, 0*]
377: 0x0CCE [0x01] GOTO 0x0D52
378: 0x0CD1 [0x02] IF !(LocalPlayer->Race == 4*) GOTO 0x0CED
379: 0x0CD9 [0x45] LOAD_SCHEDULED_TASK: Load scheduler "sg16" with entities [EventEntity, EventEntity], work=[810*, 0*]
380: 0x0CEA [0x01] GOTO 0x0D52
381: 0x0CED [0x02] IF !(LocalPlayer->Race == 5*) GOTO 0x0D09
382: 0x0CF5 [0x45] LOAD_SCHEDULED_TASK: Load scheduler "st16" with entities [EventEntity, EventEntity], work=[810*, 0*]
383: 0x0D06 [0x01] GOTO 0x0D52
384: 0x0D09 [0x02] IF !(LocalPlayer->Race == 6*) GOTO 0x0D25
385: 0x0D11 [0x45] LOAD_SCHEDULED_TASK: Load scheduler "st16" with entities [EventEntity, EventEntity], work=[810*, 0*]
386: 0x0D22 [0x01] GOTO 0x0D52
387: 0x0D25 [0x02] IF !(LocalPlayer->Race == 8*) GOTO 0x0D41
388: 0x0D2D [0x45] LOAD_SCHEDULED_TASK: Load scheduler "sg16" with entities [EventEntity, EventEntity], work=[810*, 0*]
389: 0x0D3E [0x01] GOTO 0x0D52
390: 0x0D41 [0x45] LOAD_SCHEDULED_TASK: Load scheduler "s016" with entities [EventEntity, EventEntity], work=[810*, 0*]

SUBROUTINE_0D52:
391: 0x0D52 [0x6F] WAIT_FRAME_DELAY: Yield until WaitTime reaches zero
392: 0x0D53 [0x76] CHECK_ENTITY_RENDER_FLAGS: Wait until Unnamed NPC (ID: 17846779/0x011051FB) Render.Flags0 and Render.Flags3 conditions are met
393: 0x0D58 [0x5B] LOAD_EXT_SCHEDULER: Load scheduler "tla0" with entities [Unnamed NPC (ID: 17846779/0x011051FB), Unnamed NPC (ID: 17846779/0x011051FB)], work=3319*
394: 0x0D67 [0x2B] Unnamed NPC (ID: 17846779/0x011051FB) [8383*]:
     "This is proof of the connection between our hearts and minds, <Player>... This shows just how strong the bond between us is!"
395: 0x0D6E [0x1C] WAIT(150* ticks)
396: 0x0D71 [0x23] WAIT_FOR_DIALOG_INTERACTION
397: 0x0D72 [0x5B] LOAD_EXT_SCHEDULER: Load scheduler "tla1" with entities [Unnamed NPC (ID: 17846779/0x011051FB), Unnamed NPC (ID: 17846779/0x011051FB)], work=3319*
398: 0x0D81 [0x6E] LocalPlayer uses emote 7*
399: 0x0D88 [0x99] Wait for LocalPlayer animation to complete
400: 0x0D8D [0x1C] WAIT(90* ticks)
401: 0x0D90 [0x5C] MUSIC_CONTROL: Set Idle (Day) music to song 64*
402: 0x0D94 [0x5C] MUSIC_CONTROL: Set Idle (Night) music to song 64*
403: 0x0D98 [0x9A] WAIT_MUSIC_SERVER()
404: 0x0D99 [0x5D] SET_MUSIC_VOLUME(volume=127*, fade_time=1*)
405: 0x0D9E [0x4E] SET_ENTITY_HIDE_FLAG: Show Unnamed NPC (ID: 17846778/0x011051FA)
406: 0x0DA4 [0x27] REQ_SET(priority=0x10, entity_id=Unnamed NPC (ID: 17846778/0x011051FA), tag_num=0x5D)
407: 0x0DAB [0x1C] WAIT(5* ticks)
408: 0x0DAE [0x27] REQ_SET(priority=0x10, entity_id=Unnamed NPC (ID: 17846784/0x01105200), tag_num=0x14)
409: 0x0DB5 [0x02] IF !(LocalPlayer->Race == 3*) GOTO 0x0DCF
410: 0x0DBD [0x52] END_LOAD_SCHEDULER: End scheduler "sg16" with entities [EventEntity, EventEntity], work=810*
411: 0x0DCC [0x01] GOTO 0x0E46
412: 0x0DCF [0x02] IF !(LocalPlayer->Race == 4*) GOTO 0x0DE9
413: 0x0DD7 [0x52] END_LOAD_SCHEDULER: End scheduler "sg16" with entities [EventEntity, EventEntity], work=810*
414: 0x0DE6 [0x01] GOTO 0x0E46
415: 0x0DE9 [0x02] IF !(LocalPlayer->Race == 5*) GOTO 0x0E03
416: 0x0DF1 [0x52] END_LOAD_SCHEDULER: End scheduler "st16" with entities [EventEntity, EventEntity], work=810*
417: 0x0E00 [0x01] GOTO 0x0E46
418: 0x0E03 [0x02] IF !(LocalPlayer->Race == 6*) GOTO 0x0E1D
419: 0x0E0B [0x52] END_LOAD_SCHEDULER: End scheduler "st16" with entities [EventEntity, EventEntity], work=810*
420: 0x0E1A [0x01] GOTO 0x0E46
421: 0x0E1D [0x02] IF !(LocalPlayer->Race == 8*) GOTO 0x0E37
422: 0x0E25 [0x52] END_LOAD_SCHEDULER: End scheduler "sg16" with entities [EventEntity, EventEntity], work=810*
423: 0x0E34 [0x01] GOTO 0x0E46
424: 0x0E37 [0x52] END_LOAD_SCHEDULER: End scheduler "s016" with entities [EventEntity, EventEntity], work=810*

SUBROUTINE_0E46:
425: 0x0E46 [0x45] LOAD_SCHEDULED_TASK: Load scheduler "s017" with entities [EventEntity, EventEntity], work=[810*, 0*]
426: 0x0E57 [0xB0] PRINT_EVENT_MESSAGE(unknown1=0x00, speaker_id=EventEntity, listener_id=0x011051FA, message_offset=0x8065)
427: 0x0E63 [0x1C] WAIT(45* ticks)
428: 0x0E66 [0x4E] SET_ENTITY_HIDE_FLAG: Show Unnamed NPC (ID: 17846783/0x011051FF)
429: 0x0E6C [0x27] REQ_SET(priority=0x10, entity_id=Unnamed NPC (ID: 17846783/0x011051FF), tag_num=0x12)
430: 0x0E73 [0x1C] WAIT(75* ticks)
431: 0x0E76 [0x52] END_LOAD_SCHEDULER: End scheduler "s017" with entities [EventEntity, EventEntity], work=810*
432: 0x0E85 [0x45] LOAD_SCHEDULED_TASK: Load scheduler "s018" with entities [EventEntity, EventEntity], work=[810*, 0*]
433: 0x0E96 [0xB0] PRINT_EVENT_MESSAGE(unknown1=0x00, speaker_id=EventEntity, listener_id=0x011051FA, message_offset=0x8068)
434: 0x0EA2 [0xB4] UI_WINDOW_STRING_HANDLER(case=0x00 - Copy string from opcode, work_offset=ExtData[1]->WorkLocal[0], string="")
435: 0x0EB6 [0xB5] SET_EVENT_ENTITY_NAME: Change EventEntity name to ExtData[1]->WorkLocal[0]
436: 0x0EBA [0x1C] WAIT(30* ticks)
437: 0x0EBD [0xCD] LOAD_SCHEDULED_TASK_ALT4: Load scheduler "s002" with entities [EventEntity, EventEntity], work=[7*, 0*]
438: 0x0ECE [0x1C] WAIT(40* ticks)
439: 0x0ED1 [0x7A] VM_CONTROL: Reset VM for Unnamed NPC (ID: 17846778/0x011051FA)
440: 0x0ED7 [0xBA] SET_ENTITY_POSITION(entity_id=Unnamed NPC (ID: 17846778/0x011051FA), pos_x=288.500*, pos_z=-250.500*, pos_y=0.660*, direction=39.3*)
441: 0x0EE4 [0x1C] WAIT(20* ticks)
442: 0x0EE7 [0x52] END_LOAD_SCHEDULER: End scheduler "s018" with entities [EventEntity, EventEntity], work=810*
