# 17846785

## Common Data

| Field            | Value                          |
|------------------|--------------------------------|
| Zone             | Ceizak Battlegrounds (ID: 261) |
| Block Size       | 812 bytes                      |
| Total Events     | 43                             |
| References Count | 12                             |

## List of Events

| Event ID                   | Entrypoint   |   Size |   Instructions |
|----------------------------|--------------|--------|----------------|
| [65535](#event-65535)      | 0x0000       |      1 |              1 |
| [65535.1](#event-655351)   | 0x0001       |      1 |              1 |
| [65535.2](#event-655352)   | 0x0002       |     18 |              4 |
| [65535.3](#event-655353)   | 0x0014       |     10 |              2 |
| [65535.4](#event-655354)   | 0x001E       |      9 |              3 |
| [65535.5](#event-655355)   | 0x0027       |      9 |              3 |
| [65535.6](#event-655356)   | 0x0030       |     10 |              2 |
| [65535.7](#event-655357)   | 0x003A       |     10 |              2 |
| [65535.8](#event-655358)   | 0x0044       |      7 |              2 |
| [65535.9](#event-655359)   | 0x004B       |     28 |              4 |
| [65535.10](#event-6553510) | 0x0067       |     16 |              2 |
| [65535.11](#event-6553511) | 0x0077       |     16 |              2 |
| [65535.12](#event-6553512) | 0x0087       |     16 |              2 |
| [65535.13](#event-6553513) | 0x0097       |     16 |              2 |
| [65535.14](#event-6553514) | 0x00A7       |     16 |              2 |
| [65535.15](#event-6553515) | 0x00B7       |     16 |              2 |
| [65535.16](#event-6553516) | 0x00C7       |     16 |              2 |
| [65535.17](#event-6553517) | 0x00D7       |     16 |              2 |
| [65535.18](#event-6553518) | 0x00E7       |     16 |              2 |
| [65535.19](#event-6553519) | 0x00F7       |     16 |              2 |
| [65535.20](#event-6553520) | 0x0107       |     16 |              2 |
| [65535.21](#event-6553521) | 0x0117       |     16 |              2 |
| [65535.22](#event-6553522) | 0x0127       |     16 |              2 |
| [65535.23](#event-6553523) | 0x0137       |     16 |              2 |
| [65535.24](#event-6553524) | 0x0147       |     16 |              2 |
| [65535.25](#event-6553525) | 0x0157       |     16 |              2 |
| [65535.26](#event-6553526) | 0x0167       |     16 |              2 |
| [65535.27](#event-6553527) | 0x0177       |     16 |              2 |
| [65535.28](#event-6553528) | 0x0187       |     16 |              2 |
| [65535.29](#event-6553529) | 0x0197       |     16 |              2 |
| [65535.30](#event-6553530) | 0x01A7       |     16 |              2 |
| [65535.31](#event-6553531) | 0x01B7       |     16 |              2 |
| [3](#event-3)              | 0x01C7       |      4 |              2 |
| [65535.32](#event-6553532) | 0x01CB       |      3 |              2 |
| [65535.33](#event-6553533) | 0x01CE       |      3 |              2 |
| [65535.34](#event-6553534) | 0x01D1       |      5 |              2 |
| [65535.35](#event-6553535) | 0x01D6       |      5 |              2 |
| [65535.36](#event-6553536) | 0x01DB       |     25 |              3 |
| [65535.37](#event-6553537) | 0x01F4       |     25 |              3 |
| [36](#event-36)            | 0x020D       |     29 |              4 |
| [65535.38](#event-6553538) | 0x022A       |     14 |              4 |
| [65535.39](#event-6553539) | 0x0238       |      3 |              2 |
| [65535.40](#event-6553540) | 0x023B       |      3 |              2 |

## DAT References (imed_data)

|   Index | Hex Value   |   Dec Value |
|---------|-------------|-------------|
|       0 | 0x0000      |           0 |
|       1 | 0x0001      |           1 |
|       2 | 0x0080      |         128 |
|       3 | 0x0C90      |        3216 |
|       4 | 0x0C93      |        3219 |
|       5 | 0x0A8C      |        2700 |
|       6 | 0x0034      |          52 |
|       7 | 0x0AC0      |        2752 |
|       8 | 0x0032      |          50 |
|       9 | 0x5B8D8     |      375000 |
|      10 | 0x668A0     |      420000 |
|      11 | 0xFFFFB19A  |  4294947226 |

## Events

### Event 65535

#### Metadata

| Field        | Value   |
|--------------|---------|
| Entrypoint   | 0x0000  |
| Data Size    | 1 bytes |
| Instructions | 1       |

```
      00 01 02 03 04 05 06 07  08 09 0A 0B 0C 0D 0E 0F
      -- -- -- -- -- -- -- --  -- -- -- -- -- -- -- --
0000: 00                                                .               
```

#### Opcodes

```
  0: 0x0000 [0x00] END_REQSTACK()
```

### Event 65535.1

#### Metadata

| Field        | Value   |
|--------------|---------|
| Entrypoint   | 0x0001  |
| Data Size    | 1 bytes |
| Instructions | 1       |

```
      00 01 02 03 04 05 06 07  08 09 0A 0B 0C 0D 0E 0F
      -- -- -- -- -- -- -- --  -- -- -- -- -- -- -- --
0000:    00                                              .              
```

#### Opcodes

```
  0: 0x0001 [0x00] END_REQSTACK()
```

### Event 65535.2

#### Metadata

| Field        | Value    |
|--------------|----------|
| Entrypoint   | 0x0002   |
| Data Size    | 18 bytes |
| Instructions | 4        |

```
      00 01 02 03 04 05 06 07  08 09 0A 0B 0C 0D 0E 0F
      -- -- -- -- -- -- -- --  -- -- -- -- -- -- -- --
0000:       22 00 2F 00 F8 FF  FF 7F 6C F8 FF FF 7F 00    "./.....l.....
0010: 80 01 80 00                                       ....            
```

#### Opcodes

```
  0: 0x0002 [0x22] ENTITY_HIDE_FLAG(enabled=0x00)
  1: 0x0004 [0x2F] EventEntity->Render.Flags0 &= ~0x80000 // Bit 19
  2: 0x000A [0x6C] FADE_ENTITY_COLOR(entity_id=EventEntity, end_alpha=0*, fade_time=1*)
  3: 0x0013 [0x00] END_REQSTACK()
```

### Event 65535.3

#### Metadata

| Field        | Value    |
|--------------|----------|
| Entrypoint   | 0x0014   |
| Data Size    | 10 bytes |
| Instructions | 2        |

```
      00 01 02 03 04 05 06 07  08 09 0A 0B 0C 0D 0E 0F
      -- -- -- -- -- -- -- --  -- -- -- -- -- -- -- --
0010:             6C F8 FF FF  7F 02 80 01 80 00            l.........  
```

#### Opcodes

```
  0: 0x0014 [0x6C] FADE_ENTITY_COLOR(entity_id=EventEntity, end_alpha=128*, fade_time=1*)
  1: 0x001D [0x00] END_REQSTACK()
```

### Event 65535.4

#### Metadata

| Field        | Value   |
|--------------|---------|
| Entrypoint   | 0x001E  |
| Data Size    | 9 bytes |
| Instructions | 3       |

```
      00 01 02 03 04 05 06 07  08 09 0A 0B 0C 0D 0E 0F
      -- -- -- -- -- -- -- --  -- -- -- -- -- -- -- --
0010:                                            22 00                ".
0020: 2F 00 F8 FF FF 7F 00                              /......         
```

#### Opcodes

```
  0: 0x001E [0x22] ENTITY_HIDE_FLAG(enabled=0x00)
  1: 0x0020 [0x2F] EventEntity->Render.Flags0 &= ~0x80000 // Bit 19
  2: 0x0026 [0x00] END_REQSTACK()
```

### Event 65535.5

#### Metadata

| Field        | Value   |
|--------------|---------|
| Entrypoint   | 0x0027  |
| Data Size    | 9 bytes |
| Instructions | 3       |

```
      00 01 02 03 04 05 06 07  08 09 0A 0B 0C 0D 0E 0F
      -- -- -- -- -- -- -- --  -- -- -- -- -- -- -- --
0020:                      22  01 2F 01 F8 FF FF 7F 00         "./......
```

#### Opcodes

```
  0: 0x0027 [0x22] ENTITY_HIDE_FLAG(enabled=0x01)
  1: 0x0029 [0x2F] EventEntity->Render.Flags0 |= 0x80000 // Bit 19
  2: 0x002F [0x00] END_REQSTACK()
```

### Event 65535.6

#### Metadata

| Field        | Value    |
|--------------|----------|
| Entrypoint   | 0x0030   |
| Data Size    | 10 bytes |
| Instructions | 2        |

```
      00 01 02 03 04 05 06 07  08 09 0A 0B 0C 0D 0E 0F
      -- -- -- -- -- -- -- --  -- -- -- -- -- -- -- --
0030: 6C F8 FF FF 7F 00 80 01  80 00                    l.........      
```

#### Opcodes

```
  0: 0x0030 [0x6C] FADE_ENTITY_COLOR(entity_id=EventEntity, end_alpha=0*, fade_time=1*)
  1: 0x0039 [0x00] END_REQSTACK()
```

### Event 65535.7

#### Metadata

| Field        | Value    |
|--------------|----------|
| Entrypoint   | 0x003A   |
| Data Size    | 10 bytes |
| Instructions | 2        |

```
      00 01 02 03 04 05 06 07  08 09 0A 0B 0C 0D 0E 0F
      -- -- -- -- -- -- -- --  -- -- -- -- -- -- -- --
0030:                                6C F8 FF FF 7F 02            l.....
0040: 80 01 80 00                                       ....            
```

#### Opcodes

```
  0: 0x003A [0x6C] FADE_ENTITY_COLOR(entity_id=EventEntity, end_alpha=128*, fade_time=1*)
  1: 0x0043 [0x00] END_REQSTACK()
```

### Event 65535.8

#### Metadata

| Field        | Value   |
|--------------|---------|
| Entrypoint   | 0x0044  |
| Data Size    | 7 bytes |
| Instructions | 2       |

```
      00 01 02 03 04 05 06 07  08 09 0A 0B 0C 0D 0E 0F
      -- -- -- -- -- -- -- --  -- -- -- -- -- -- -- --
0040:             D3 00 F8 FF  FF 7F 00                     .......     
```

#### Opcodes

```
  0: 0x0044 [0xD3] CLEAR_ENTITY_MOTION_QUEUE(condition_flag=0x00, entity_server_id=EventEntity)
  1: 0x004A [0x00] END_REQSTACK()
```

### Event 65535.9

#### Metadata

| Field        | Value    |
|--------------|----------|
| Entrypoint   | 0x004B   |
| Data Size    | 28 bytes |
| Instructions | 4        |

```
      00 01 02 03 04 05 06 07  08 09 0A 0B 0C 0D 0E 0F
      -- -- -- -- -- -- -- --  -- -- -- -- -- -- -- --
0040:                                   81 01 F8 FF FF             .....
0050: 7F 7C 01 F8 FF FF 7F 5B  03 80 F8 FF FF 7F F8 FF  .|.....[........
0060: FF 7F 66 30 30 30 00                              ..f000.         
```

#### Opcodes

```
  0: 0x004B [0x81] SET_ENTITY_BLINKING(blink_flag=0x01, entity=EventEntity)
  1: 0x0051 [0x7C] EventEntity->Render.Flags2 |= 0x01
  2: 0x0057 [0x5B] LOAD_EXT_SCHEDULER: Load scheduler "f000" with entities [EventEntity, EventEntity], work=3216*
  3: 0x0066 [0x00] END_REQSTACK()
```

### Event 65535.10

#### Metadata

| Field        | Value    |
|--------------|----------|
| Entrypoint   | 0x0067   |
| Data Size    | 16 bytes |
| Instructions | 2        |

```
      00 01 02 03 04 05 06 07  08 09 0A 0B 0C 0D 0E 0F
      -- -- -- -- -- -- -- --  -- -- -- -- -- -- -- --
0060:                      5B  03 80 F8 FF FF 7F F8 FF         [........
0070: FF 7F 66 61 30 30 00                              ..fa00.         
```

#### Opcodes

```
  0: 0x0067 [0x5B] LOAD_EXT_SCHEDULER: Load scheduler "fa00" with entities [EventEntity, EventEntity], work=3216*
  1: 0x0076 [0x00] END_REQSTACK()
```

### Event 65535.11

#### Metadata

| Field        | Value    |
|--------------|----------|
| Entrypoint   | 0x0077   |
| Data Size    | 16 bytes |
| Instructions | 2        |

```
      00 01 02 03 04 05 06 07  08 09 0A 0B 0C 0D 0E 0F
      -- -- -- -- -- -- -- --  -- -- -- -- -- -- -- --
0070:                      5B  03 80 F8 FF FF 7F F8 FF         [........
0080: FF 7F 66 61 30 31 00                              ..fa01.         
```

#### Opcodes

```
  0: 0x0077 [0x5B] LOAD_EXT_SCHEDULER: Load scheduler "fa01" with entities [EventEntity, EventEntity], work=3216*
  1: 0x0086 [0x00] END_REQSTACK()
```

### Event 65535.12

#### Metadata

| Field        | Value    |
|--------------|----------|
| Entrypoint   | 0x0087   |
| Data Size    | 16 bytes |
| Instructions | 2        |

```
      00 01 02 03 04 05 06 07  08 09 0A 0B 0C 0D 0E 0F
      -- -- -- -- -- -- -- --  -- -- -- -- -- -- -- --
0080:                      5B  03 80 F8 FF FF 7F F8 FF         [........
0090: FF 7F 66 62 30 30 00                              ..fb00.         
```

#### Opcodes

```
  0: 0x0087 [0x5B] LOAD_EXT_SCHEDULER: Load scheduler "fb00" with entities [EventEntity, EventEntity], work=3216*
  1: 0x0096 [0x00] END_REQSTACK()
```

### Event 65535.13

#### Metadata

| Field        | Value    |
|--------------|----------|
| Entrypoint   | 0x0097   |
| Data Size    | 16 bytes |
| Instructions | 2        |

```
      00 01 02 03 04 05 06 07  08 09 0A 0B 0C 0D 0E 0F
      -- -- -- -- -- -- -- --  -- -- -- -- -- -- -- --
0090:                      5B  03 80 F8 FF FF 7F F8 FF         [........
00A0: FF 7F 66 62 30 31 00                              ..fb01.         
```

#### Opcodes

```
  0: 0x0097 [0x5B] LOAD_EXT_SCHEDULER: Load scheduler "fb01" with entities [EventEntity, EventEntity], work=3216*
  1: 0x00A6 [0x00] END_REQSTACK()
```

### Event 65535.14

#### Metadata

| Field        | Value    |
|--------------|----------|
| Entrypoint   | 0x00A7   |
| Data Size    | 16 bytes |
| Instructions | 2        |

```
      00 01 02 03 04 05 06 07  08 09 0A 0B 0C 0D 0E 0F
      -- -- -- -- -- -- -- --  -- -- -- -- -- -- -- --
00A0:                      5B  03 80 F8 FF FF 7F F8 FF         [........
00B0: FF 7F 66 63 30 30 00                              ..fc00.         
```

#### Opcodes

```
  0: 0x00A7 [0x5B] LOAD_EXT_SCHEDULER: Load scheduler "fc00" with entities [EventEntity, EventEntity], work=3216*
  1: 0x00B6 [0x00] END_REQSTACK()
```

### Event 65535.15

#### Metadata

| Field        | Value    |
|--------------|----------|
| Entrypoint   | 0x00B7   |
| Data Size    | 16 bytes |
| Instructions | 2        |

```
      00 01 02 03 04 05 06 07  08 09 0A 0B 0C 0D 0E 0F
      -- -- -- -- -- -- -- --  -- -- -- -- -- -- -- --
00B0:                      5B  03 80 F8 FF FF 7F F8 FF         [........
00C0: FF 7F 66 63 30 31 00                              ..fc01.         
```

#### Opcodes

```
  0: 0x00B7 [0x5B] LOAD_EXT_SCHEDULER: Load scheduler "fc01" with entities [EventEntity, EventEntity], work=3216*
  1: 0x00C6 [0x00] END_REQSTACK()
```

### Event 65535.16

#### Metadata

| Field        | Value    |
|--------------|----------|
| Entrypoint   | 0x00C7   |
| Data Size    | 16 bytes |
| Instructions | 2        |

```
      00 01 02 03 04 05 06 07  08 09 0A 0B 0C 0D 0E 0F
      -- -- -- -- -- -- -- --  -- -- -- -- -- -- -- --
00C0:                      5B  03 80 F8 FF FF 7F F8 FF         [........
00D0: FF 7F 66 64 30 30 00                              ..fd00.         
```

#### Opcodes

```
  0: 0x00C7 [0x5B] LOAD_EXT_SCHEDULER: Load scheduler "fd00" with entities [EventEntity, EventEntity], work=3216*
  1: 0x00D6 [0x00] END_REQSTACK()
```

### Event 65535.17

#### Metadata

| Field        | Value    |
|--------------|----------|
| Entrypoint   | 0x00D7   |
| Data Size    | 16 bytes |
| Instructions | 2        |

```
      00 01 02 03 04 05 06 07  08 09 0A 0B 0C 0D 0E 0F
      -- -- -- -- -- -- -- --  -- -- -- -- -- -- -- --
00D0:                      5B  03 80 F8 FF FF 7F F8 FF         [........
00E0: FF 7F 66 64 30 31 00                              ..fd01.         
```

#### Opcodes

```
  0: 0x00D7 [0x5B] LOAD_EXT_SCHEDULER: Load scheduler "fd01" with entities [EventEntity, EventEntity], work=3216*
  1: 0x00E6 [0x00] END_REQSTACK()
```

### Event 65535.18

#### Metadata

| Field        | Value    |
|--------------|----------|
| Entrypoint   | 0x00E7   |
| Data Size    | 16 bytes |
| Instructions | 2        |

```
      00 01 02 03 04 05 06 07  08 09 0A 0B 0C 0D 0E 0F
      -- -- -- -- -- -- -- --  -- -- -- -- -- -- -- --
00E0:                      5B  03 80 F8 FF FF 7F F8 FF         [........
00F0: FF 7F 66 65 30 30 00                              ..fe00.         
```

#### Opcodes

```
  0: 0x00E7 [0x5B] LOAD_EXT_SCHEDULER: Load scheduler "fe00" with entities [EventEntity, EventEntity], work=3216*
  1: 0x00F6 [0x00] END_REQSTACK()
```

### Event 65535.19

#### Metadata

| Field        | Value    |
|--------------|----------|
| Entrypoint   | 0x00F7   |
| Data Size    | 16 bytes |
| Instructions | 2        |

```
      00 01 02 03 04 05 06 07  08 09 0A 0B 0C 0D 0E 0F
      -- -- -- -- -- -- -- --  -- -- -- -- -- -- -- --
00F0:                      5B  03 80 F8 FF FF 7F F8 FF         [........
0100: FF 7F 66 65 30 31 00                              ..fe01.         
```

#### Opcodes

```
  0: 0x00F7 [0x5B] LOAD_EXT_SCHEDULER: Load scheduler "fe01" with entities [EventEntity, EventEntity], work=3216*
  1: 0x0106 [0x00] END_REQSTACK()
```

### Event 65535.20

#### Metadata

| Field        | Value    |
|--------------|----------|
| Entrypoint   | 0x0107   |
| Data Size    | 16 bytes |
| Instructions | 2        |

```
      00 01 02 03 04 05 06 07  08 09 0A 0B 0C 0D 0E 0F
      -- -- -- -- -- -- -- --  -- -- -- -- -- -- -- --
0100:                      5B  03 80 F8 FF FF 7F F8 FF         [........
0110: FF 7F 66 66 30 30 00                              ..ff00.         
```

#### Opcodes

```
  0: 0x0107 [0x5B] LOAD_EXT_SCHEDULER: Load scheduler "ff00" with entities [EventEntity, EventEntity], work=3216*
  1: 0x0116 [0x00] END_REQSTACK()
```

### Event 65535.21

#### Metadata

| Field        | Value    |
|--------------|----------|
| Entrypoint   | 0x0117   |
| Data Size    | 16 bytes |
| Instructions | 2        |

```
      00 01 02 03 04 05 06 07  08 09 0A 0B 0C 0D 0E 0F
      -- -- -- -- -- -- -- --  -- -- -- -- -- -- -- --
0110:                      5B  03 80 F8 FF FF 7F F8 FF         [........
0120: FF 7F 66 66 30 31 00                              ..ff01.         
```

#### Opcodes

```
  0: 0x0117 [0x5B] LOAD_EXT_SCHEDULER: Load scheduler "ff01" with entities [EventEntity, EventEntity], work=3216*
  1: 0x0126 [0x00] END_REQSTACK()
```

### Event 65535.22

#### Metadata

| Field        | Value    |
|--------------|----------|
| Entrypoint   | 0x0127   |
| Data Size    | 16 bytes |
| Instructions | 2        |

```
      00 01 02 03 04 05 06 07  08 09 0A 0B 0C 0D 0E 0F
      -- -- -- -- -- -- -- --  -- -- -- -- -- -- -- --
0120:                      5B  03 80 F8 FF FF 7F F8 FF         [........
0130: FF 7F 66 67 30 30 00                              ..fg00.         
```

#### Opcodes

```
  0: 0x0127 [0x5B] LOAD_EXT_SCHEDULER: Load scheduler "fg00" with entities [EventEntity, EventEntity], work=3216*
  1: 0x0136 [0x00] END_REQSTACK()
```

### Event 65535.23

#### Metadata

| Field        | Value    |
|--------------|----------|
| Entrypoint   | 0x0137   |
| Data Size    | 16 bytes |
| Instructions | 2        |

```
      00 01 02 03 04 05 06 07  08 09 0A 0B 0C 0D 0E 0F
      -- -- -- -- -- -- -- --  -- -- -- -- -- -- -- --
0130:                      5B  03 80 F8 FF FF 7F F8 FF         [........
0140: FF 7F 66 67 30 31 00                              ..fg01.         
```

#### Opcodes

```
  0: 0x0137 [0x5B] LOAD_EXT_SCHEDULER: Load scheduler "fg01" with entities [EventEntity, EventEntity], work=3216*
  1: 0x0146 [0x00] END_REQSTACK()
```

### Event 65535.24

#### Metadata

| Field        | Value    |
|--------------|----------|
| Entrypoint   | 0x0147   |
| Data Size    | 16 bytes |
| Instructions | 2        |

```
      00 01 02 03 04 05 06 07  08 09 0A 0B 0C 0D 0E 0F
      -- -- -- -- -- -- -- --  -- -- -- -- -- -- -- --
0140:                      5B  03 80 F8 FF FF 7F F8 FF         [........
0150: FF 7F 66 68 30 30 00                              ..fh00.         
```

#### Opcodes

```
  0: 0x0147 [0x5B] LOAD_EXT_SCHEDULER: Load scheduler "fh00" with entities [EventEntity, EventEntity], work=3216*
  1: 0x0156 [0x00] END_REQSTACK()
```

### Event 65535.25

#### Metadata

| Field        | Value    |
|--------------|----------|
| Entrypoint   | 0x0157   |
| Data Size    | 16 bytes |
| Instructions | 2        |

```
      00 01 02 03 04 05 06 07  08 09 0A 0B 0C 0D 0E 0F
      -- -- -- -- -- -- -- --  -- -- -- -- -- -- -- --
0150:                      5B  03 80 F8 FF FF 7F F8 FF         [........
0160: FF 7F 66 68 30 31 00                              ..fh01.         
```

#### Opcodes

```
  0: 0x0157 [0x5B] LOAD_EXT_SCHEDULER: Load scheduler "fh01" with entities [EventEntity, EventEntity], work=3216*
  1: 0x0166 [0x00] END_REQSTACK()
```

### Event 65535.26

#### Metadata

| Field        | Value    |
|--------------|----------|
| Entrypoint   | 0x0167   |
| Data Size    | 16 bytes |
| Instructions | 2        |

```
      00 01 02 03 04 05 06 07  08 09 0A 0B 0C 0D 0E 0F
      -- -- -- -- -- -- -- --  -- -- -- -- -- -- -- --
0160:                      5B  03 80 F8 FF FF 7F F8 FF         [........
0170: FF 7F 66 69 30 30 00                              ..fi00.         
```

#### Opcodes

```
  0: 0x0167 [0x5B] LOAD_EXT_SCHEDULER: Load scheduler "fi00" with entities [EventEntity, EventEntity], work=3216*
  1: 0x0176 [0x00] END_REQSTACK()
```

### Event 65535.27

#### Metadata

| Field        | Value    |
|--------------|----------|
| Entrypoint   | 0x0177   |
| Data Size    | 16 bytes |
| Instructions | 2        |

```
      00 01 02 03 04 05 06 07  08 09 0A 0B 0C 0D 0E 0F
      -- -- -- -- -- -- -- --  -- -- -- -- -- -- -- --
0170:                      5B  03 80 F8 FF FF 7F F8 FF         [........
0180: FF 7F 66 69 30 31 00                              ..fi01.         
```

#### Opcodes

```
  0: 0x0177 [0x5B] LOAD_EXT_SCHEDULER: Load scheduler "fi01" with entities [EventEntity, EventEntity], work=3216*
  1: 0x0186 [0x00] END_REQSTACK()
```

### Event 65535.28

#### Metadata

| Field        | Value    |
|--------------|----------|
| Entrypoint   | 0x0187   |
| Data Size    | 16 bytes |
| Instructions | 2        |

```
      00 01 02 03 04 05 06 07  08 09 0A 0B 0C 0D 0E 0F
      -- -- -- -- -- -- -- --  -- -- -- -- -- -- -- --
0180:                      5B  03 80 F8 FF FF 7F F8 FF         [........
0190: FF 7F 66 6A 30 30 00                              ..fj00.         
```

#### Opcodes

```
  0: 0x0187 [0x5B] LOAD_EXT_SCHEDULER: Load scheduler "fj00" with entities [EventEntity, EventEntity], work=3216*
  1: 0x0196 [0x00] END_REQSTACK()
```

### Event 65535.29

#### Metadata

| Field        | Value    |
|--------------|----------|
| Entrypoint   | 0x0197   |
| Data Size    | 16 bytes |
| Instructions | 2        |

```
      00 01 02 03 04 05 06 07  08 09 0A 0B 0C 0D 0E 0F
      -- -- -- -- -- -- -- --  -- -- -- -- -- -- -- --
0190:                      5B  03 80 F8 FF FF 7F F8 FF         [........
01A0: FF 7F 66 6A 30 31 00                              ..fj01.         
```

#### Opcodes

```
  0: 0x0197 [0x5B] LOAD_EXT_SCHEDULER: Load scheduler "fj01" with entities [EventEntity, EventEntity], work=3216*
  1: 0x01A6 [0x00] END_REQSTACK()
```

### Event 65535.30

#### Metadata

| Field        | Value    |
|--------------|----------|
| Entrypoint   | 0x01A7   |
| Data Size    | 16 bytes |
| Instructions | 2        |

```
      00 01 02 03 04 05 06 07  08 09 0A 0B 0C 0D 0E 0F
      -- -- -- -- -- -- -- --  -- -- -- -- -- -- -- --
01A0:                      5B  04 80 F8 FF FF 7F F8 FF         [........
01B0: FF 7F 66 6B 30 30 00                              ..fk00.         
```

#### Opcodes

```
  0: 0x01A7 [0x5B] LOAD_EXT_SCHEDULER: Load scheduler "fk00" with entities [EventEntity, EventEntity], work=3219*
  1: 0x01B6 [0x00] END_REQSTACK()
```

### Event 65535.31

#### Metadata

| Field        | Value    |
|--------------|----------|
| Entrypoint   | 0x01B7   |
| Data Size    | 16 bytes |
| Instructions | 2        |

```
      00 01 02 03 04 05 06 07  08 09 0A 0B 0C 0D 0E 0F
      -- -- -- -- -- -- -- --  -- -- -- -- -- -- -- --
01B0:                      5B  04 80 F8 FF FF 7F F8 FF         [........
01C0: FF 7F 66 6B 30 31 00                              ..fk01.         
```

#### Opcodes

```
  0: 0x01B7 [0x5B] LOAD_EXT_SCHEDULER: Load scheduler "fk01" with entities [EventEntity, EventEntity], work=3219*
  1: 0x01C6 [0x00] END_REQSTACK()
```

### Event 3

#### Metadata

| Field        | Value   |
|--------------|---------|
| Entrypoint   | 0x01C7  |
| Data Size    | 4 bytes |
| Instructions | 2       |

```
      00 01 02 03 04 05 06 07  08 09 0A 0B 0C 0D 0E 0F
      -- -- -- -- -- -- -- --  -- -- -- -- -- -- -- --
01C0:                      C0  01 80 00                        ....     
```

#### Opcodes

```
  0: 0x01C7 [0xC0] EventEntity->Render.Flags3 |= 0x1000 // Set bit 12 (from 1*)
  1: 0x01CA [0x00] END_REQSTACK()
```

### Event 65535.32

#### Metadata

| Field        | Value   |
|--------------|---------|
| Entrypoint   | 0x01CB  |
| Data Size    | 3 bytes |
| Instructions | 2       |

```
      00 01 02 03 04 05 06 07  08 09 0A 0B 0C 0D 0E 0F
      -- -- -- -- -- -- -- --  -- -- -- -- -- -- -- --
01C0:                                   A4 01 00                   ...  
```

#### Opcodes

```
  0: 0x01CB [0xA4] EventEntity->Flags3.unknown_3_2 = 1
  1: 0x01CD [0x00] END_REQSTACK()
```

### Event 65535.33

#### Metadata

| Field        | Value   |
|--------------|---------|
| Entrypoint   | 0x01CE  |
| Data Size    | 3 bytes |
| Instructions | 2       |

```
      00 01 02 03 04 05 06 07  08 09 0A 0B 0C 0D 0E 0F
      -- -- -- -- -- -- -- --  -- -- -- -- -- -- -- --
01C0:                                            A4 00                ..
01D0: 00                                                .               
```

#### Opcodes

```
  0: 0x01CE [0xA4] EventEntity->Flags3.unknown_3_2 = 0
  1: 0x01D0 [0x00] END_REQSTACK()
```

### Event 65535.34

#### Metadata

| Field        | Value   |
|--------------|---------|
| Entrypoint   | 0x01D1  |
| Data Size    | 5 bytes |
| Instructions | 2       |

```
      00 01 02 03 04 05 06 07  08 09 0A 0B 0C 0D 0E 0F
      -- -- -- -- -- -- -- --  -- -- -- -- -- -- -- --
01D0:    B6 00 05 80 00                                  .....          
```

#### Opcodes

```
  0: 0x01D1 [0xB6] ENTITY_APPEARANCE_HANDLER(case=Hair style, value=2700*)
  1: 0x01D5 [0x00] END_REQSTACK()
```

### Event 65535.35

#### Metadata

| Field        | Value   |
|--------------|---------|
| Entrypoint   | 0x01D6  |
| Data Size    | 5 bytes |
| Instructions | 2       |

```
      00 01 02 03 04 05 06 07  08 09 0A 0B 0C 0D 0E 0F
      -- -- -- -- -- -- -- --  -- -- -- -- -- -- -- --
01D0:                   B6 00  06 80 00                       .....     
```

#### Opcodes

```
  0: 0x01D6 [0xB6] ENTITY_APPEARANCE_HANDLER(case=Hair style, value=52*)
  1: 0x01DA [0x00] END_REQSTACK()
```

### Event 65535.36

#### Metadata

| Field        | Value    |
|--------------|----------|
| Entrypoint   | 0x01DB   |
| Data Size    | 25 bytes |
| Instructions | 3        |

```
      00 01 02 03 04 05 06 07  08 09 0A 0B 0C 0D 0E 0F
      -- -- -- -- -- -- -- --  -- -- -- -- -- -- -- --
01D0:                                   B4 00 00 00 3F             ....?
01E0: 3F 3F 00 00 00 00 00 00  00 00 00 00 00 00 00 B5  ??..............
01F0: 00 00 00 00                                       ....            
```

#### Opcodes

```
  0: 0x01DB [0xB4] UI_WINDOW_STRING_HANDLER(case=0x00 - Copy string from opcode, work_offset=ExtData[1]->WorkLocal[0], string="???")
  1: 0x01EF [0xB5] SET_EVENT_ENTITY_NAME: Change EventEntity name to ExtData[1]->WorkLocal[0]
  2: 0x01F3 [0x00] END_REQSTACK()
```

### Event 65535.37

#### Metadata

| Field        | Value    |
|--------------|----------|
| Entrypoint   | 0x01F4   |
| Data Size    | 25 bytes |
| Instructions | 3        |

```
      00 01 02 03 04 05 06 07  08 09 0A 0B 0C 0D 0E 0F
      -- -- -- -- -- -- -- --  -- -- -- -- -- -- -- --
01F0:             B4 00 00 00  53 77 6F 72 64 6D 61 69      ....Swordmai
0200: 64 65 6E 00 00 00 00 00  B5 00 00 00 00           den..........   
```

#### Opcodes

```
  0: 0x01F4 [0xB4] UI_WINDOW_STRING_HANDLER(case=0x00 - Copy string from opcode, work_offset=ExtData[1]->WorkLocal[0], string="Swordmaiden")
  1: 0x0208 [0xB5] SET_EVENT_ENTITY_NAME: Change EventEntity name to ExtData[1]->WorkLocal[0]
  2: 0x020C [0x00] END_REQSTACK()
```

### Event 36

#### Metadata

| Field        | Value    |
|--------------|----------|
| Entrypoint   | 0x020D   |
| Data Size    | 29 bytes |
| Instructions | 4        |

```
      00 01 02 03 04 05 06 07  08 09 0A 0B 0C 0D 0E 0F
      -- -- -- -- -- -- -- --  -- -- -- -- -- -- -- --
0200:                                         B6 00 07               ...
0210: 80 B4 00 00 00 00 00 00  00 00 00 00 00 00 00 00  ................
0220: 00 00 00 00 00 B5 00 00  00 00                    ..........      
```

#### Opcodes

```
  0: 0x020D [0xB6] ENTITY_APPEARANCE_HANDLER(case=Hair style, value=2752*)
  1: 0x0211 [0xB4] UI_WINDOW_STRING_HANDLER(case=0x00 - Copy string from opcode, work_offset=ExtData[1]->WorkLocal[0], string="")
  2: 0x0225 [0xB5] SET_EVENT_ENTITY_NAME: Change EventEntity name to ExtData[1]->WorkLocal[0]
  3: 0x0229 [0x00] END_REQSTACK()
```

### Event 65535.38

#### Metadata

| Field        | Value    |
|--------------|----------|
| Entrypoint   | 0x022A   |
| Data Size    | 14 bytes |
| Instructions | 4        |

```
      00 01 02 03 04 05 06 07  08 09 0A 0B 0C 0D 0E 0F
      -- -- -- -- -- -- -- --  -- -- -- -- -- -- -- --
0220:                                32 08 80 1F 00 09            2.....
0230: 80 0A 80 0B 80 1F 01 00                           ........        
```

#### Opcodes

```
  0: 0x022A [0x32] ExtData[1]->MainSpeed = 50* * 0.1
  1: 0x022D [0x1F] MOVE_ENTITY: EventEntity moves to X=375.000*, Z=420.000*, Y=-20.070*
  2: 0x0235 [0x1F] MOVE_ENTITY: Update entity position (mode=1)
  3: 0x0237 [0x00] END_REQSTACK()
```

### Event 65535.39

#### Metadata

| Field        | Value   |
|--------------|---------|
| Entrypoint   | 0x0238  |
| Data Size    | 3 bytes |
| Instructions | 2       |

```
      00 01 02 03 04 05 06 07  08 09 0A 0B 0C 0D 0E 0F
      -- -- -- -- -- -- -- --  -- -- -- -- -- -- -- --
0230:                          AB 08 00                         ...     
```

#### Opcodes

```
  0: 0x0238 [0xAB] EventEntity->Render.Flags2 |= 0x02 // Set bit 1
  1: 0x023A [0x00] END_REQSTACK()
```

### Event 65535.40

#### Metadata

| Field        | Value   |
|--------------|---------|
| Entrypoint   | 0x023B  |
| Data Size    | 3 bytes |
| Instructions | 2       |

```
      00 01 02 03 04 05 06 07  08 09 0A 0B 0C 0D 0E 0F
      -- -- -- -- -- -- -- --  -- -- -- -- -- -- -- --
0230:                                   AB 07 00                   ...  
```

#### Opcodes

```
  0: 0x023B [0xAB] EventEntity->Render.Flags2 |= 0x01 // Set bit 0
  1: 0x023D [0x00] END_REQSTACK()
```
