# 17846824

## Common Data

| Field            | Value                          |
|------------------|--------------------------------|
| Zone             | Ceizak Battlegrounds (ID: 261) |
| Block Size       | 120 bytes                      |
| Total Events     | 4                              |
| References Count | 8                              |

## List of Events

| Event ID                 | Entrypoint   |   Size |   Instructions |
|--------------------------|--------------|--------|----------------|
| [65535](#event-65535)    | 0x0000       |      1 |              1 |
| [31](#event-31)          | 0x0001       |      1 |              1 |
| [65535.1](#event-655351) | 0x0002       |     41 |              6 |
| [65535.2](#event-655352) | 0x002B       |     13 |              4 |

## DAT References (imed_data)

|   Index | Hex Value   |   Dec Value |
|---------|-------------|-------------|
|       0 | 0x0A2D      |        2605 |
|       1 | 0x43A38     |      277048 |
|       2 | 0x42A7D     |      273021 |
|       3 | 0x0000      |           0 |
|       4 | 0x072C      |        1836 |
|       5 | 0x0001      |           1 |
|       6 | 0x00EF      |         239 |
|       7 | 0x0034      |          52 |

## Events

### Event 65535

#### Metadata

| Field        | Value   |
|--------------|---------|
| Entrypoint   | 0x0000  |
| Data Size    | 1 bytes |
| Instructions | 1       |

```
      00 01 02 03 04 05 06 07  08 09 0A 0B 0C 0D 0E 0F
      -- -- -- -- -- -- -- --  -- -- -- -- -- -- -- --
0000: 00                                                .               
```

#### Opcodes

```
  0: 0x0000 [0x00] END_REQSTACK()
```

### Event 31

#### Metadata

| Field        | Value   |
|--------------|---------|
| Entrypoint   | 0x0001  |
| Data Size    | 1 bytes |
| Instructions | 1       |

```
      00 01 02 03 04 05 06 07  08 09 0A 0B 0C 0D 0E 0F
      -- -- -- -- -- -- -- --  -- -- -- -- -- -- -- --
0000:    00                                              .              
```

#### Opcodes

```
  0: 0x0001 [0x00] END_REQSTACK()
```

### Event 65535.1

#### Metadata

| Field        | Value    |
|--------------|----------|
| Entrypoint   | 0x0002   |
| Data Size    | 41 bytes |
| Instructions | 6        |

```
      00 01 02 03 04 05 06 07  08 09 0A 0B 0C 0D 0E 0F
      -- -- -- -- -- -- -- --  -- -- -- -- -- -- -- --
0000:       B6 00 00 80 BA F8  FF FF 7F 01 80 02 80 03    ..............
0010: 80 04 80 AB 03 AC 01 05  80 BB 06 80 F8 FF FF 7F  ................
0020: F8 FF FF 7F 6D 61 69 31  03 80 00                 ....mai1...     
```

#### Opcodes

```
  0: 0x0002 [0xB6] ENTITY_APPEARANCE_HANDLER(case=Hair style, value=2605*)
  1: 0x0006 [0xBA] SET_ENTITY_POSITION(entity_id=EventEntity, pos_x=277.048*, pos_z=273.021*, pos_y=0.000*, direction=161.4°*)
  2: 0x0013 [0xAB] EventEntity->Render.Flags0 ^= 0x20000 // Toggle bit 17
  3: 0x0015 [0xAC] EventEntity->StatusEvent = 1*
  4: 0x0019 [0xBB] LOAD_EVENT_SCHEDULER_ALT: Load scheduler "mai1" with entities [EventEntity, EventEntity], work=[239*, 0*]
  5: 0x002A [0x00] END_REQSTACK()
```

### Event 65535.2

#### Metadata

| Field        | Value    |
|--------------|----------|
| Entrypoint   | 0x002B   |
| Data Size    | 13 bytes |
| Instructions | 4        |

```
      00 01 02 03 04 05 06 07  08 09 0A 0B 0C 0D 0E 0F
      -- -- -- -- -- -- -- --  -- -- -- -- -- -- -- --
0020:                                   B6 00 07 80 22             ...."
0030: 01 2F 01 F8 FF FF 7F 00                           ./......        
```

#### Opcodes

```
  0: 0x002B [0xB6] ENTITY_APPEARANCE_HANDLER(case=Hair style, value=52*)
  1: 0x002F [0x22] ENTITY_HIDE_FLAG(enabled=0x01)
  2: 0x0031 [0x2F] EventEntity->Render.Flags0 |= 0x80000 // Bit 19
  3: 0x0037 [0x00] END_REQSTACK()
```
