# 17846790 - HEISHI_A

## Common Data

| Field            | Value                          |
|------------------|--------------------------------|
| Zone             | Ceizak Battlegrounds (ID: 261) |
| Block Size       | 1136 bytes                     |
| Total Events     | 24                             |
| References Count | 48                             |

## List of Events

| Event ID                   | Entrypoint   |   Size |   Instructions |
|----------------------------|--------------|--------|----------------|
| [65535](#event-65535)      | 0x0000       |      1 |              1 |
| [21](#event-21)            | 0x0001       |      1 |              1 |
| [65535.1](#event-655351)   | 0x0002       |     38 |              5 |
| [65535.2](#event-655352)   | 0x0028       |     29 |              3 |
| [65535.3](#event-655353)   | 0x0045       |     29 |              3 |
| [65535.4](#event-655354)   | 0x0062       |     29 |              3 |
| [65535.5](#event-655355)   | 0x007F       |     29 |              3 |
| [65535.6](#event-655356)   | 0x009C       |     27 |              3 |
| [65535.7](#event-655357)   | 0x00B7       |     27 |              7 |
| [65535.8](#event-655358)   | 0x00D2       |     14 |              4 |
| [20](#event-20)            | 0x00E0       |      1 |              1 |
| [65535.9](#event-655359)   | 0x00E1       |     38 |              5 |
| [65535.10](#event-6553510) | 0x0107       |     38 |              5 |
| [26](#event-26)            | 0x012D       |     21 |              2 |
| [27](#event-27)            | 0x0142       |     26 |              4 |
| [65535.11](#event-6553511) | 0x015C       |     14 |              4 |
| [65535.12](#event-6553512) | 0x016A       |     14 |              4 |
| [65535.13](#event-6553513) | 0x0178       |     21 |              2 |
| [34](#event-34)            | 0x018D       |      1 |              1 |
| [35](#event-35)            | 0x018E       |      1 |              1 |
| [65535.14](#event-6553514) | 0x018F       |    256 |             26 |
| [65535.15](#event-6553515) | 0x028F       |     14 |              4 |
| [65535.16](#event-6553516) | 0x029D       |      7 |              3 |
| [65535.17](#event-6553517) | 0x02A4       |    155 |             35 |

## DAT References (imed_data)

|   Index | Hex Value   |   Dec Value |
|---------|-------------|-------------|
|       0 | 0x0003      |           3 |
|       1 | 0x000C      |          12 |
|       2 | 0x0000      |           0 |
|       3 | 0x008F      |         143 |
|       4 | 0x014A      |         330 |
|       5 | 0x2FF98     |      196504 |
|       6 | 0x12A51     |       76369 |
|       7 | 0x000F      |          15 |
|       8 | 0x085E      |        2142 |
|       9 | 0x001D      |          29 |
|      10 | 0x000D      |          13 |
|      11 | 0x2CDB4     |      183732 |
|      12 | 0xCA2D      |       51757 |
|      13 | 0x011A      |         282 |
|      14 | 0x0B35      |        2869 |
|      15 | 0x2E929     |      190761 |
|      16 | 0x1047C     |       66684 |
|      17 | 0x01F9      |         505 |
|      18 | 0x0008      |           8 |
|      19 | 0x0005      |           5 |
|      20 | 0x0018      |          24 |
|      21 | 0x0031      |          49 |
|      22 | 0x00AB      |         171 |
|      23 | 0x0063      |          99 |
|      24 | 0x58FD4     |      364500 |
|      25 | 0x2DE60     |      188000 |
|      26 | 0x01F4      |         500 |
|      27 | 0x0001      |           1 |
|      28 | 0x65FCC     |      417740 |
|      29 | 0x2AF26     |      175910 |
|      30 | 0x0250      |         592 |
|      31 | 0x31EB5     |      204469 |
|      32 | 0x13B17     |       80663 |
|      33 | 0x00B9      |         185 |
|      34 | 0x00E6      |         230 |
|      35 | 0x0002      |           2 |
|      36 | 0x0004      |           4 |
|      37 | 0x0006      |           6 |
|      38 | 0x0007      |           7 |
|      39 | 0x1EF51     |      126801 |
|      40 | 0xFFFFB7DF  |  4294948831 |
|      41 | 0xFFF75540  |  4294399296 |
|      42 | 0x0042      |          66 |
|      43 | 0x000A      |          10 |
|      44 | 0x0009      |           9 |
|      45 | 0x0046      |          70 |
|      46 | 0x008C      |         140 |
|      47 | 0x00D2      |         210 |

## Events

### Event 65535

#### Metadata

| Field        | Value   |
|--------------|---------|
| Entrypoint   | 0x0000  |
| Data Size    | 1 bytes |
| Instructions | 1       |

```
      00 01 02 03 04 05 06 07  08 09 0A 0B 0C 0D 0E 0F
      -- -- -- -- -- -- -- --  -- -- -- -- -- -- -- --
0000: 00                                                .               
```

#### Opcodes

```
  0: 0x0000 [0x00] END_REQSTACK()
```

### Event 21

#### Metadata

| Field        | Value   |
|--------------|---------|
| Entrypoint   | 0x0001  |
| Data Size    | 1 bytes |
| Instructions | 1       |

```
      00 01 02 03 04 05 06 07  08 09 0A 0B 0C 0D 0E 0F
      -- -- -- -- -- -- -- --  -- -- -- -- -- -- -- --
0000:    00                                              .              
```

#### Opcodes

```
  0: 0x0001 [0x00] END_REQSTACK()
```

### Event 65535.1

#### Metadata

| Field        | Value    |
|--------------|----------|
| Entrypoint   | 0x0002   |
| Data Size    | 38 bytes |
| Instructions | 5        |

```
      00 01 02 03 04 05 06 07  08 09 0A 0B 0C 0D 0E 0F
      -- -- -- -- -- -- -- --  -- -- -- -- -- -- -- --
0000:       2F 00 F8 FF FF 7F  B6 0B 00 80 01 80 02 80    /.............
0010: 03 80 03 80 03 80 03 80  04 80 02 80 37 05 80 06  ............7...
0020: 80 07 80 08 80 22 00 00                           ....."..        
```

#### Opcodes

```
  0: 0x0002 [0x2F] EventEntity->Render.Flags0 &= ~0x80000 // Bit 19
  1: 0x0008 [0xB6] ENTITY_APPEARANCE_HANDLER(case=Full entity look, race=3*, hair=12*, head=0*, body=143*, hands=143*, legs=143*, feet=143*, main=330*, sub=0*)
  2: 0x001C [0x37] UPDATE_EVENT_POSITION_AND_DIR: x=196.504*, z=76.369*, y=0.015*, direction=188.3째*
  3: 0x0025 [0x22] ENTITY_HIDE_FLAG(enabled=0x00)
  4: 0x0027 [0x00] END_REQSTACK()
```

### Event 65535.2

#### Metadata

| Field        | Value    |
|--------------|----------|
| Entrypoint   | 0x0028   |
| Data Size    | 29 bytes |
| Instructions | 3        |

```
      00 01 02 03 04 05 06 07  08 09 0A 0B 0C 0D 0E 0F
      -- -- -- -- -- -- -- --  -- -- -- -- -- -- -- --
0020:                          66 09 80 F8 FF FF 7F F8          f.......
0030: FF FF 7F 73 68 61 30 53  F8 FF FF 7F F8 FF FF 7F  ...sha0S........
0040: 73 68 61 30 00                                    sha0.           
```

#### Opcodes

```
  0: 0x0028 [0x66] LOAD_EXT_SCHEDULER_MAIN: Load scheduler "sha0" with entities [EventEntity, EventEntity], work=29*
  1: 0x0037 [0x53] WAIT_SCHEDULER_TASK: Wait for scheduler "sha0" with entities [EventEntity, EventEntity]
  2: 0x0044 [0x00] END_REQSTACK()
```

### Event 65535.3

#### Metadata

| Field        | Value    |
|--------------|----------|
| Entrypoint   | 0x0045   |
| Data Size    | 29 bytes |
| Instructions | 3        |

```
      00 01 02 03 04 05 06 07  08 09 0A 0B 0C 0D 0E 0F
      -- -- -- -- -- -- -- --  -- -- -- -- -- -- -- --
0040:                66 09 80  F8 FF FF 7F F8 FF FF 7F       f..........
0050: 73 68 61 31 53 F8 FF FF  7F F8 FF FF 7F 73 68 61  sha1S........sha
0060: 31 00                                             1.              
```

#### Opcodes

```
  0: 0x0045 [0x66] LOAD_EXT_SCHEDULER_MAIN: Load scheduler "sha1" with entities [EventEntity, EventEntity], work=29*
  1: 0x0054 [0x53] WAIT_SCHEDULER_TASK: Wait for scheduler "sha1" with entities [EventEntity, EventEntity]
  2: 0x0061 [0x00] END_REQSTACK()
```

### Event 65535.4

#### Metadata

| Field        | Value    |
|--------------|----------|
| Entrypoint   | 0x0062   |
| Data Size    | 29 bytes |
| Instructions | 3        |

```
      00 01 02 03 04 05 06 07  08 09 0A 0B 0C 0D 0E 0F
      -- -- -- -- -- -- -- --  -- -- -- -- -- -- -- --
0060:       66 09 80 F8 FF FF  7F F8 FF FF 7F 73 69 72    f..........sir
0070: 30 53 F8 FF FF 7F F8 FF  FF 7F 73 69 72 30 00     0S........sir0. 
```

#### Opcodes

```
  0: 0x0062 [0x66] LOAD_EXT_SCHEDULER_MAIN: Load scheduler "sir0" with entities [EventEntity, EventEntity], work=29*
  1: 0x0071 [0x53] WAIT_SCHEDULER_TASK: Wait for scheduler "sir0" with entities [EventEntity, EventEntity]
  2: 0x007E [0x00] END_REQSTACK()
```

### Event 65535.5

#### Metadata

| Field        | Value    |
|--------------|----------|
| Entrypoint   | 0x007F   |
| Data Size    | 29 bytes |
| Instructions | 3        |

```
      00 01 02 03 04 05 06 07  08 09 0A 0B 0C 0D 0E 0F
      -- -- -- -- -- -- -- --  -- -- -- -- -- -- -- --
0070:                                               66                 f
0080: 09 80 F8 FF FF 7F F8 FF  FF 7F 73 69 72 31 53 F8  ..........sir1S.
0090: FF FF 7F F8 FF FF 7F 73  69 72 31 00              .......sir1.    
```

#### Opcodes

```
  0: 0x007F [0x66] LOAD_EXT_SCHEDULER_MAIN: Load scheduler "sir1" with entities [EventEntity, EventEntity], work=29*
  1: 0x008E [0x53] WAIT_SCHEDULER_TASK: Wait for scheduler "sir1" with entities [EventEntity, EventEntity]
  2: 0x009B [0x00] END_REQSTACK()
```

### Event 65535.6

#### Metadata

| Field        | Value    |
|--------------|----------|
| Entrypoint   | 0x009C   |
| Data Size    | 27 bytes |
| Instructions | 3        |

```
      00 01 02 03 04 05 06 07  08 09 0A 0B 0C 0D 0E 0F
      -- -- -- -- -- -- -- --  -- -- -- -- -- -- -- --
0090:                                      2C F8 FF FF              ,...
00A0: 7F F8 FF FF 7F 63 6F 72  70 53 F8 FF FF 7F F8 FF  .....corpS......
00B0: FF 7F 63 6F 72 70 00                              ..corp.         
```

#### Opcodes

```
  0: 0x009C [0x2C] CREATE_SCHEDULER_TASK: Create scheduler "corp" with entities [EventEntity, EventEntity]
  1: 0x00A9 [0x53] WAIT_SCHEDULER_TASK: Wait for scheduler "corp" with entities [EventEntity, EventEntity]
  2: 0x00B6 [0x00] END_REQSTACK()
```

### Event 65535.7

#### Metadata

| Field        | Value    |
|--------------|----------|
| Entrypoint   | 0x00B7   |
| Data Size    | 27 bytes |
| Instructions | 7        |

```
      00 01 02 03 04 05 06 07  08 09 0A 0B 0C 0D 0E 0F
      -- -- -- -- -- -- -- --  -- -- -- -- -- -- -- --
00B0:                      32  0A 80 1F 00 0B 80 0C 80         2........
00C0: 0D 80 1F 01 4B F8 FF FF  7F 0E 80 6F 76 F8 FF FF  ....K......ov...
00D0: 7F 00                                             ..              
```

#### Opcodes

```
  0: 0x00B7 [0x32] ExtData[1]->MainSpeed = 13* * 0.1
  1: 0x00BA [0x1F] MOVE_ENTITY: EventEntity moves to X=183.732*, Z=51.757*, Y=0.282*
  2: 0x00C2 [0x1F] MOVE_ENTITY: Update entity position (mode=1)
  3: 0x00C4 [0x4B] UPDATE_ENTITY_YAW(entity=EventEntity, yaw=15.8째*)
  4: 0x00CB [0x6F] WAIT_FRAME_DELAY: Yield until WaitTime reaches zero
  5: 0x00CC [0x76] CHECK_ENTITY_RENDER_FLAGS: Wait until EventEntity Render.Flags0 and Render.Flags3 conditions are met
  6: 0x00D1 [0x00] END_REQSTACK()
```

### Event 65535.8

#### Metadata

| Field        | Value    |
|--------------|----------|
| Entrypoint   | 0x00D2   |
| Data Size    | 14 bytes |
| Instructions | 4        |

```
      00 01 02 03 04 05 06 07  08 09 0A 0B 0C 0D 0E 0F
      -- -- -- -- -- -- -- --  -- -- -- -- -- -- -- --
00D0:       32 0A 80 1F 00 0F  80 10 80 11 80 1F 01 00    2.............
```

#### Opcodes

```
  0: 0x00D2 [0x32] ExtData[1]->MainSpeed = 13* * 0.1
  1: 0x00D5 [0x1F] MOVE_ENTITY: EventEntity moves to X=190.761*, Z=66.684*, Y=0.505*
  2: 0x00DD [0x1F] MOVE_ENTITY: Update entity position (mode=1)
  3: 0x00DF [0x00] END_REQSTACK()
```

### Event 20

#### Metadata

| Field        | Value   |
|--------------|---------|
| Entrypoint   | 0x00E0  |
| Data Size    | 1 bytes |
| Instructions | 1       |

```
      00 01 02 03 04 05 06 07  08 09 0A 0B 0C 0D 0E 0F
      -- -- -- -- -- -- -- --  -- -- -- -- -- -- -- --
00E0: 00                                                .               
```

#### Opcodes

```
  0: 0x00E0 [0x00] END_REQSTACK()
```

### Event 65535.9

#### Metadata

| Field        | Value    |
|--------------|----------|
| Entrypoint   | 0x00E1   |
| Data Size    | 38 bytes |
| Instructions | 5        |

```
      00 01 02 03 04 05 06 07  08 09 0A 0B 0C 0D 0E 0F
      -- -- -- -- -- -- -- --  -- -- -- -- -- -- -- --
00E0:    2F 00 F8 FF FF 7F B6  0B 12 80 13 80 14 80 15   /..............
00F0: 80 02 80 16 80 17 80 02  80 02 80 37 18 80 19 80  ...........7....
0100: 1A 80 02 80 22 00 00                              ...."..         
```

#### Opcodes

```
  0: 0x00E1 [0x2F] EventEntity->Render.Flags0 &= ~0x80000 // Bit 19
  1: 0x00E7 [0xB6] ENTITY_APPEARANCE_HANDLER(case=Full entity look, race=8*, hair=5*, head=24*, body=49*, hands=0*, legs=171*, feet=99*, main=0*, sub=0*)
  2: 0x00FB [0x37] UPDATE_EVENT_POSITION_AND_DIR: x=364.500*, z=188.000*, y=0.500*, direction=0.0째*
  3: 0x0104 [0x22] ENTITY_HIDE_FLAG(enabled=0x00)
  4: 0x0106 [0x00] END_REQSTACK()
```

### Event 65535.10

#### Metadata

| Field        | Value    |
|--------------|----------|
| Entrypoint   | 0x0107   |
| Data Size    | 38 bytes |
| Instructions | 5        |

```
      00 01 02 03 04 05 06 07  08 09 0A 0B 0C 0D 0E 0F
      -- -- -- -- -- -- -- --  -- -- -- -- -- -- -- --
0100:                      B6  0B 1B 80 02 80 02 80 02         .........
0110: 80 02 80 02 80 02 80 02  80 02 80 37 0B 80 0C 80  ...........7....
0120: 0D 80 0E 80 22 01 2F 01  F8 FF FF 7F 00           ...."./......   
```

#### Opcodes

```
  0: 0x0107 [0xB6] ENTITY_APPEARANCE_HANDLER(case=Full entity look, race=1*, hair=0*, head=0*, body=0*, hands=0*, legs=0*, feet=0*, main=0*, sub=0*)
  1: 0x011B [0x37] UPDATE_EVENT_POSITION_AND_DIR: x=183.732*, z=51.757*, y=0.282*, direction=252.2째*
  2: 0x0124 [0x22] ENTITY_HIDE_FLAG(enabled=0x01)
  3: 0x0126 [0x2F] EventEntity->Render.Flags0 |= 0x80000 // Bit 19
  4: 0x012C [0x00] END_REQSTACK()
```

### Event 26

#### Metadata

| Field        | Value    |
|--------------|----------|
| Entrypoint   | 0x012D   |
| Data Size    | 21 bytes |
| Instructions | 2        |

```
      00 01 02 03 04 05 06 07  08 09 0A 0B 0C 0D 0E 0F
      -- -- -- -- -- -- -- --  -- -- -- -- -- -- -- --
0120:                                         B6 0B 00               ...
0130: 80 01 80 02 80 03 80 03  80 03 80 03 80 02 80 02  ................
0140: 80 00                                             ..              
```

#### Opcodes

```
  0: 0x012D [0xB6] ENTITY_APPEARANCE_HANDLER(case=Full entity look, race=3*, hair=12*, head=0*, body=143*, hands=143*, legs=143*, feet=143*, main=0*, sub=0*)
  1: 0x0141 [0x00] END_REQSTACK()
```

### Event 27

#### Metadata

| Field        | Value    |
|--------------|----------|
| Entrypoint   | 0x0142   |
| Data Size    | 26 bytes |
| Instructions | 4        |

```
      00 01 02 03 04 05 06 07  08 09 0A 0B 0C 0D 0E 0F
      -- -- -- -- -- -- -- --  -- -- -- -- -- -- -- --
0140:       B6 0B 00 80 01 80  02 80 03 80 03 80 03 80    ..............
0150: 03 80 04 80 02 80 C0 1B  80 A5 01 00              ............    
```

#### Opcodes

```
  0: 0x0142 [0xB6] ENTITY_APPEARANCE_HANDLER(case=Full entity look, race=3*, hair=12*, head=0*, body=143*, hands=143*, legs=143*, feet=143*, main=330*, sub=0*)
  1: 0x0156 [0xC0] EventEntity->Render.Flags3 |= 0x1000 // Set bit 12 (from 1*)
  2: 0x0159 [0xA5] EventEntity->Flags3.BallistaTeam |= 0x08  // Set bit 3 of BallistaTeam
  3: 0x015B [0x00] END_REQSTACK()
```

### Event 65535.11

#### Metadata

| Field        | Value    |
|--------------|----------|
| Entrypoint   | 0x015C   |
| Data Size    | 14 bytes |
| Instructions | 4        |

```
      00 01 02 03 04 05 06 07  08 09 0A 0B 0C 0D 0E 0F
      -- -- -- -- -- -- -- --  -- -- -- -- -- -- -- --
0150:                                      32 0A 80 1F              2...
0160: 00 1C 80 1D 80 1E 80 1F  01 00                    ..........      
```

#### Opcodes

```
  0: 0x015C [0x32] ExtData[1]->MainSpeed = 13* * 0.1
  1: 0x015F [0x1F] MOVE_ENTITY: EventEntity moves to X=417.740*, Z=175.910*, Y=0.592*
  2: 0x0167 [0x1F] MOVE_ENTITY: Update entity position (mode=1)
  3: 0x0169 [0x00] END_REQSTACK()
```

### Event 65535.12

#### Metadata

| Field        | Value    |
|--------------|----------|
| Entrypoint   | 0x016A   |
| Data Size    | 14 bytes |
| Instructions | 4        |

```
      00 01 02 03 04 05 06 07  08 09 0A 0B 0C 0D 0E 0F
      -- -- -- -- -- -- -- --  -- -- -- -- -- -- -- --
0160:                                32 0A 80 1F 00 1F            2.....
0170: 80 20 80 02 80 1F 01 00                           . ......        
```

#### Opcodes

```
  0: 0x016A [0x32] ExtData[1]->MainSpeed = 13* * 0.1
  1: 0x016D [0x1F] MOVE_ENTITY: EventEntity moves to X=204.469*, Z=80.663*, Y=0.000*
  2: 0x0175 [0x1F] MOVE_ENTITY: Update entity position (mode=1)
  3: 0x0177 [0x00] END_REQSTACK()
```

### Event 65535.13

#### Metadata

| Field        | Value    |
|--------------|----------|
| Entrypoint   | 0x0178   |
| Data Size    | 21 bytes |
| Instructions | 2        |

```
      00 01 02 03 04 05 06 07  08 09 0A 0B 0C 0D 0E 0F
      -- -- -- -- -- -- -- --  -- -- -- -- -- -- -- --
0170:                          B6 0B 1B 80 02 80 02 80          ........
0180: 02 80 02 80 02 80 02 80  02 80 02 80 00           .............   
```

#### Opcodes

```
  0: 0x0178 [0xB6] ENTITY_APPEARANCE_HANDLER(case=Full entity look, race=1*, hair=0*, head=0*, body=0*, hands=0*, legs=0*, feet=0*, main=0*, sub=0*)
  1: 0x018C [0x00] END_REQSTACK()
```

### Event 34

#### Metadata

| Field        | Value   |
|--------------|---------|
| Entrypoint   | 0x018D  |
| Data Size    | 1 bytes |
| Instructions | 1       |

```
      00 01 02 03 04 05 06 07  08 09 0A 0B 0C 0D 0E 0F
      -- -- -- -- -- -- -- --  -- -- -- -- -- -- -- --
0180:                                         00                     .  
```

#### Opcodes

```
  0: 0x018D [0x00] END_REQSTACK()
```

### Event 35

#### Metadata

| Field        | Value   |
|--------------|---------|
| Entrypoint   | 0x018E  |
| Data Size    | 1 bytes |
| Instructions | 1       |

```
      00 01 02 03 04 05 06 07  08 09 0A 0B 0C 0D 0E 0F
      -- -- -- -- -- -- -- --  -- -- -- -- -- -- -- --
0180:                                            00                   . 
```

#### Opcodes

```
  0: 0x018E [0x00] END_REQSTACK()
```

### Event 65535.14

#### Metadata

| Field        | Value     |
|--------------|-----------|
| Entrypoint   | 0x018F    |
| Data Size    | 256 bytes |
| Instructions | 26        |

```
      00 01 02 03 04 05 06 07  08 09 0A 0B 0C 0D 0E 0F
      -- -- -- -- -- -- -- --  -- -- -- -- -- -- -- --
0180:                                               29                 )
0190: 10 F0 FF FF 7F 02 02 02  10 1B 80 80 B5 01 B6 0B  ................
01A0: 1B 80 03 10 02 80 04 80  21 80 22 80 22 80 02 80  ........!."."...
01B0: 02 80 01 8E 02 02 02 10  23 80 80 D4 01 B6 0B 23  ........#......#
01C0: 80 03 10 02 80 04 80 21  80 22 80 22 80 02 80 02  .......!."."....
01D0: 80 01 8E 02 02 02 10 00  80 80 F3 01 B6 0B 00 80  ................
01E0: 03 10 02 80 04 80 21 80  22 80 22 80 02 80 02 80  ......!.".".....
01F0: 01 8E 02 02 02 10 24 80  80 12 02 B6 0B 24 80 03  ......$......$..
0200: 10 02 80 04 80 21 80 22  80 22 80 02 80 02 80 01  .....!."."......
0210: 8E 02 02 02 10 13 80 80  31 02 B6 0B 13 80 03 10  ........1.......
0220: 02 80 04 80 21 80 22 80  22 80 02 80 02 80 01 8E  ....!.".".......
0230: 02 02 02 10 25 80 80 50  02 B6 0B 25 80 03 10 02  ....%..P...%....
0240: 80 04 80 21 80 22 80 22  80 02 80 02 80 01 8E 02  ...!."."........
0250: 02 02 10 26 80 80 6F 02  B6 0B 26 80 03 10 02 80  ...&..o...&.....
0260: 04 80 21 80 22 80 22 80  02 80 02 80 01 8E 02 02  ..!.".".........
0270: 02 10 12 80 80 8E 02 B6  0B 12 80 03 10 02 80 04  ................
0280: 80 21 80 22 80 22 80 02  80 02 80 01 8E 02 00     .!."."......... 
```

#### Opcodes

```
  0: 0x018F [0x29] REQ_SET_WAIT(priority=0x10, entity_id=LocalPlayer, tag_num=0x02)
  1: 0x0196 [0x02] IF !(Work_Zone[2] == 1*) GOTO 0x01B5
  2: 0x019E [0xB6] ENTITY_APPEARANCE_HANDLER(case=Full entity look, race=1*, hair=Work_Zone[3], head=0*, body=330*, hands=185*, legs=230*, feet=230*, main=0*, sub=0*)
  3: 0x01B2 [0x01] GOTO 0x028E
  4: 0x01B5 [0x02] IF !(Work_Zone[2] == 2*) GOTO 0x01D4
  5: 0x01BD [0xB6] ENTITY_APPEARANCE_HANDLER(case=Full entity look, race=2*, hair=Work_Zone[3], head=0*, body=330*, hands=185*, legs=230*, feet=230*, main=0*, sub=0*)
  6: 0x01D1 [0x01] GOTO 0x028E
  7: 0x01D4 [0x02] IF !(Work_Zone[2] == 3*) GOTO 0x01F3
  8: 0x01DC [0xB6] ENTITY_APPEARANCE_HANDLER(case=Full entity look, race=3*, hair=Work_Zone[3], head=0*, body=330*, hands=185*, legs=230*, feet=230*, main=0*, sub=0*)
  9: 0x01F0 [0x01] GOTO 0x028E
 10: 0x01F3 [0x02] IF !(Work_Zone[2] == 4*) GOTO 0x0212
 11: 0x01FB [0xB6] ENTITY_APPEARANCE_HANDLER(case=Full entity look, race=4*, hair=Work_Zone[3], head=0*, body=330*, hands=185*, legs=230*, feet=230*, main=0*, sub=0*)
 12: 0x020F [0x01] GOTO 0x028E
 13: 0x0212 [0x02] IF !(Work_Zone[2] == 5*) GOTO 0x0231
 14: 0x021A [0xB6] ENTITY_APPEARANCE_HANDLER(case=Full entity look, race=5*, hair=Work_Zone[3], head=0*, body=330*, hands=185*, legs=230*, feet=230*, main=0*, sub=0*)
 15: 0x022E [0x01] GOTO 0x028E
 16: 0x0231 [0x02] IF !(Work_Zone[2] == 6*) GOTO 0x0250
 17: 0x0239 [0xB6] ENTITY_APPEARANCE_HANDLER(case=Full entity look, race=6*, hair=Work_Zone[3], head=0*, body=330*, hands=185*, legs=230*, feet=230*, main=0*, sub=0*)
 18: 0x024D [0x01] GOTO 0x028E
 19: 0x0250 [0x02] IF !(Work_Zone[2] == 7*) GOTO 0x026F
 20: 0x0258 [0xB6] ENTITY_APPEARANCE_HANDLER(case=Full entity look, race=7*, hair=Work_Zone[3], head=0*, body=330*, hands=185*, legs=230*, feet=230*, main=0*, sub=0*)
 21: 0x026C [0x01] GOTO 0x028E
 22: 0x026F [0x02] IF !(Work_Zone[2] == 8*) GOTO 0x028E
 23: 0x0277 [0xB6] ENTITY_APPEARANCE_HANDLER(case=Full entity look, race=8*, hair=Work_Zone[3], head=0*, body=330*, hands=185*, legs=230*, feet=230*, main=0*, sub=0*)
 24: 0x028B [0x01] GOTO 0x028E

SUBROUTINE_028E:
 25: 0x028E [0x00] END_REQSTACK()
```

### Event 65535.15

#### Metadata

| Field        | Value    |
|--------------|----------|
| Entrypoint   | 0x028F   |
| Data Size    | 14 bytes |
| Instructions | 4        |

```
      00 01 02 03 04 05 06 07  08 09 0A 0B 0C 0D 0E 0F
      -- -- -- -- -- -- -- --  -- -- -- -- -- -- -- --
0280:                                               32                 2
0290: 0A 80 1F 00 27 80 28 80  29 80 1F 01 00           ....'.(.)....   
```

#### Opcodes

```
  0: 0x028F [0x32] ExtData[1]->MainSpeed = 13* * 0.1
  1: 0x0292 [0x1F] MOVE_ENTITY: EventEntity moves to X=126.801*, Z=-18.465*, Y=-568.000*
  2: 0x029A [0x1F] MOVE_ENTITY: Update entity position (mode=1)
  3: 0x029C [0x00] END_REQSTACK()
```

### Event 65535.16

#### Metadata

| Field        | Value   |
|--------------|---------|
| Entrypoint   | 0x029D  |
| Data Size    | 7 bytes |
| Instructions | 3       |

```
      00 01 02 03 04 05 06 07  08 09 0A 0B 0C 0D 0E 0F
      -- -- -- -- -- -- -- --  -- -- -- -- -- -- -- --
0290:                                         AC 01 02               ...
02A0: 80 AB 04 00                                       ....            
```

#### Opcodes

```
  0: 0x029D [0xAC] EventEntity->StatusEvent = 0*
  1: 0x02A1 [0xAB] EventEntity->Render.Flags0 |= 0x40000 // Set bit 18
  2: 0x02A3 [0x00] END_REQSTACK()
```

### Event 65535.17

#### Metadata

| Field        | Value     |
|--------------|-----------|
| Entrypoint   | 0x02A4    |
| Data Size    | 155 bytes |
| Instructions | 3         |

```
      00 01 02 03 04 05 06 07  08 09 0A 0B 0C 0D 0E 0F
      -- -- -- -- -- -- -- --  -- -- -- -- -- -- -- --
02A0:             AB 03 AC 01  2A 80 00 03 01 00 00 00      ....*.......
02B0: 02 01 00 13 80 05 C0 02  08 01 00 1B 80 01 C5 02  ................
02C0: 08 01 00 23 80 14 01 00  2B 80 07 01 00 2C 80 1B  ...#....+....,..
02D0: 03 01 00 00 00 02 01 00  13 80 05 E5 02 08 01 00  ................
02E0: 1B 80 01 EA 02 08 01 00  23 80 14 01 00 2B 80 07  ........#....+..
02F0: 01 00 2D 80 1B 03 01 00  00 00 02 01 00 13 80 05  ..-.............
0300: 0A 03 08 01 00 1B 80 01  0F 03 08 01 00 23 80 14  .............#..
0310: 01 00 2B 80 07 01 00 2E  80 1B 03 01 00 00 00 02  ..+.............
0320: 01 00 13 80 05 2F 03 08  01 00 1B 80 01 34 03 08  ...../.......4..
0330: 01 00 23 80 14 01 00 2B  80 07 01 00 2F 80 1B     ..#....+..../.. 
```

#### Opcodes

```
  0: 0x02A4 [0xAB] EventEntity->Render.Flags0 ^= 0x20000 // Toggle bit 17
  1: 0x02A6 [0xAC] EventEntity->StatusEvent = 66*
  2: 0x02AA [0x00] END_REQSTACK()
```

#### Data or dead code:

```
# Dead code (unreachable instructions):
     0x02AB [0x03] ExtData[1]->WorkLocal[1] = ExtData[1]->WorkLocal[0]
     0x02B0 [0x02] IF !(ExtData[1]->WorkLocal[1] > 5*) GOTO 0x02C0
     0x02B8 [0x08] ExtData[1]->WorkLocal[1] -= 1*
     0x02BD [0x01] GOTO 0x02C5
     0x02C0 [0x08] ExtData[1]->WorkLocal[1] -= 2*
     0x02C5 [0x14] ExtData[1]->WorkLocal[1] *= 10*
     0x02CA [0x07] ExtData[1]->WorkLocal[1] += 9*
     0x02CF [0x1B] RETURN
     0x02D0 [0x03] ExtData[1]->WorkLocal[1] = ExtData[1]->WorkLocal[0]
     0x02D5 [0x02] IF !(ExtData[1]->WorkLocal[1] > 5*) GOTO 0x02E5
     0x02DD [0x08] ExtData[1]->WorkLocal[1] -= 1*
     0x02E2 [0x01] GOTO 0x02EA
     0x02E5 [0x08] ExtData[1]->WorkLocal[1] -= 2*
     0x02EA [0x14] ExtData[1]->WorkLocal[1] *= 10*
     0x02EF [0x07] ExtData[1]->WorkLocal[1] += 70*
     0x02F4 [0x1B] RETURN
     0x02F5 [0x03] ExtData[1]->WorkLocal[1] = ExtData[1]->WorkLocal[0]
     0x02FA [0x02] IF !(ExtData[1]->WorkLocal[1] > 5*) GOTO 0x030A
     0x0302 [0x08] ExtData[1]->WorkLocal[1] -= 1*
     0x0307 [0x01] GOTO 0x030F
     0x030A [0x08] ExtData[1]->WorkLocal[1] -= 2*
     0x030F [0x14] ExtData[1]->WorkLocal[1] *= 10*
     0x0314 [0x07] ExtData[1]->WorkLocal[1] += 140*
     0x0319 [0x1B] RETURN
     0x031A [0x03] ExtData[1]->WorkLocal[1] = ExtData[1]->WorkLocal[0]
     0x031F [0x02] IF !(ExtData[1]->WorkLocal[1] > 5*) GOTO 0x032F
     0x0327 [0x08] ExtData[1]->WorkLocal[1] -= 1*
     0x032C [0x01] GOTO 0x0334
     0x032F [0x08] ExtData[1]->WorkLocal[1] -= 2*
     0x0334 [0x14] ExtData[1]->WorkLocal[1] *= 10*
     0x0339 [0x07] ExtData[1]->WorkLocal[1] += 210*
     0x033E [0x1B] RETURN
```
