# 17846789 - Ingrid

## Common Data

| Field            | Value                          |
|------------------|--------------------------------|
| Zone             | Ceizak Battlegrounds (ID: 261) |
| Block Size       | 896 bytes                      |
| Total Events     | 42                             |
| References Count | 22                             |

## List of Events

| Event ID                   | Entrypoint   |   Size |   Instructions |
|----------------------------|--------------|--------|----------------|
| [65535](#event-65535)      | 0x0000       |      1 |              1 |
| [65535.1](#event-655351)   | 0x0001       |     16 |              2 |
| [65535.2](#event-655352)   | 0x0011       |     14 |              2 |
| [65535.3](#event-655353)   | 0x001F       |     16 |              2 |
| [65535.4](#event-655354)   | 0x002F       |     14 |              2 |
| [65535.5](#event-655355)   | 0x003D       |     16 |              2 |
| [65535.6](#event-655356)   | 0x004D       |     14 |              2 |
| [65535.7](#event-655357)   | 0x005B       |     16 |              2 |
| [65535.8](#event-655358)   | 0x006B       |     14 |              2 |
| [65535.9](#event-655359)   | 0x0079       |     16 |              2 |
| [65535.10](#event-6553510) | 0x0089       |     14 |              2 |
| [65535.11](#event-6553511) | 0x0097       |     29 |              3 |
| [65535.12](#event-6553512) | 0x00B4       |     27 |              3 |
| [65535.13](#event-6553513) | 0x00CF       |     16 |              2 |
| [65535.14](#event-6553514) | 0x00DF       |     14 |              2 |
| [65535.15](#event-6553515) | 0x00ED       |     16 |              2 |
| [65535.16](#event-6553516) | 0x00FD       |     14 |              2 |
| [65535.17](#event-6553517) | 0x010B       |     16 |              2 |
| [65535.18](#event-6553518) | 0x011B       |     14 |              2 |
| [65535.19](#event-6553519) | 0x0129       |     16 |              2 |
| [65535.20](#event-6553520) | 0x0139       |     14 |              2 |
| [65535.21](#event-6553521) | 0x0147       |     16 |              2 |
| [65535.22](#event-6553522) | 0x0157       |     14 |              2 |
| [65535.23](#event-6553523) | 0x0165       |     16 |              2 |
| [65535.24](#event-6553524) | 0x0175       |     14 |              2 |
| [65535.25](#event-6553525) | 0x0183       |     16 |              2 |
| [65535.26](#event-6553526) | 0x0193       |     14 |              2 |
| [65535.27](#event-6553527) | 0x01A1       |     16 |              2 |
| [65535.28](#event-6553528) | 0x01B1       |     14 |              2 |
| [65535.29](#event-6553529) | 0x01BF       |     16 |              2 |
| [65535.30](#event-6553530) | 0x01CF       |     14 |              2 |
| [65535.31](#event-6553531) | 0x01DD       |     16 |              2 |
| [65535.32](#event-6553532) | 0x01ED       |     14 |              2 |
| [21](#event-21)            | 0x01FB       |      1 |              1 |
| [65535.33](#event-6553533) | 0x01FC       |     18 |              4 |
| [65535.34](#event-6553534) | 0x020E       |     14 |              4 |
| [65535.35](#event-6553535) | 0x021C       |     14 |              4 |
| [65535.36](#event-6553536) | 0x022A       |     14 |              4 |
| [27](#event-27)            | 0x0238       |      6 |              3 |
| [65535.37](#event-6553537) | 0x023E       |     14 |              4 |
| [65535.38](#event-6553538) | 0x024C       |     14 |              4 |
| [65535.39](#event-6553539) | 0x025A       |     20 |              4 |

## DAT References (imed_data)

|   Index | Hex Value   |   Dec Value |
|---------|-------------|-------------|
|       0 | 0x0D2A      |        3370 |
|       1 | 0x0D2B      |        3371 |
|       2 | 0x0CDB      |        3291 |
|       3 | 0x30D55     |      200021 |
|       4 | 0x12920     |       76064 |
|       5 | 0x000C      |          12 |
|       6 | 0x0727      |        1831 |
|       7 | 0x000D      |          13 |
|       8 | 0x2D16F     |      184687 |
|       9 | 0xDE46      |       56902 |
|      10 | 0x01E7      |         487 |
|      11 | 0x3175F     |      202591 |
|      12 | 0x1444C     |       83020 |
|      13 | 0x0000      |           0 |
|      14 | 0x3093E     |      198974 |
|      15 | 0x1335C     |       78684 |
|      16 | 0x0001      |           1 |
|      17 | 0x65FCC     |      417740 |
|      18 | 0x2AF26     |      175910 |
|      19 | 0x0250      |         592 |
|      20 | 0x319F8     |      203256 |
|      21 | 0x13CD0     |       81104 |

## Events

### Event 65535

#### Metadata

| Field        | Value   |
|--------------|---------|
| Entrypoint   | 0x0000  |
| Data Size    | 1 bytes |
| Instructions | 1       |

```
      00 01 02 03 04 05 06 07  08 09 0A 0B 0C 0D 0E 0F
      -- -- -- -- -- -- -- --  -- -- -- -- -- -- -- --
0000: 00                                                .               
```

#### Opcodes

```
  0: 0x0000 [0x00] END_REQSTACK()
```

### Event 65535.1

#### Metadata

| Field        | Value    |
|--------------|----------|
| Entrypoint   | 0x0001   |
| Data Size    | 16 bytes |
| Instructions | 2        |

```
      00 01 02 03 04 05 06 07  08 09 0A 0B 0C 0D 0E 0F
      -- -- -- -- -- -- -- --  -- -- -- -- -- -- -- --
0000:    5B 00 80 F8 FF FF 7F  F8 FF FF 7F 66 62 30 30   [..........fb00
0010: 00                                                .               
```

#### Opcodes

```
  0: 0x0001 [0x5B] LOAD_EXT_SCHEDULER: Load scheduler "fb00" with entities [EventEntity, EventEntity], work=3370*
  1: 0x0010 [0x00] END_REQSTACK()
```

### Event 65535.2

#### Metadata

| Field        | Value    |
|--------------|----------|
| Entrypoint   | 0x0011   |
| Data Size    | 14 bytes |
| Instructions | 2        |

```
      00 01 02 03 04 05 06 07  08 09 0A 0B 0C 0D 0E 0F
      -- -- -- -- -- -- -- --  -- -- -- -- -- -- -- --
0010:    53 F8 FF FF 7F F8 FF  FF 7F 66 62 30 30 00      S........fb00. 
```

#### Opcodes

```
  0: 0x0011 [0x53] WAIT_SCHEDULER_TASK: Wait for scheduler "fb00" with entities [EventEntity, EventEntity]
  1: 0x001E [0x00] END_REQSTACK()
```

### Event 65535.3

#### Metadata

| Field        | Value    |
|--------------|----------|
| Entrypoint   | 0x001F   |
| Data Size    | 16 bytes |
| Instructions | 2        |

```
      00 01 02 03 04 05 06 07  08 09 0A 0B 0C 0D 0E 0F
      -- -- -- -- -- -- -- --  -- -- -- -- -- -- -- --
0010:                                               5B                 [
0020: 00 80 F8 FF FF 7F F8 FF  FF 7F 66 62 30 31 00     ..........fb01. 
```

#### Opcodes

```
  0: 0x001F [0x5B] LOAD_EXT_SCHEDULER: Load scheduler "fb01" with entities [EventEntity, EventEntity], work=3370*
  1: 0x002E [0x00] END_REQSTACK()
```

### Event 65535.4

#### Metadata

| Field        | Value    |
|--------------|----------|
| Entrypoint   | 0x002F   |
| Data Size    | 14 bytes |
| Instructions | 2        |

```
      00 01 02 03 04 05 06 07  08 09 0A 0B 0C 0D 0E 0F
      -- -- -- -- -- -- -- --  -- -- -- -- -- -- -- --
0020:                                               53                 S
0030: F8 FF FF 7F F8 FF FF 7F  66 62 30 31 00           ........fb01.   
```

#### Opcodes

```
  0: 0x002F [0x53] WAIT_SCHEDULER_TASK: Wait for scheduler "fb01" with entities [EventEntity, EventEntity]
  1: 0x003C [0x00] END_REQSTACK()
```

### Event 65535.5

#### Metadata

| Field        | Value    |
|--------------|----------|
| Entrypoint   | 0x003D   |
| Data Size    | 16 bytes |
| Instructions | 2        |

```
      00 01 02 03 04 05 06 07  08 09 0A 0B 0C 0D 0E 0F
      -- -- -- -- -- -- -- --  -- -- -- -- -- -- -- --
0030:                                         5B 00 80               [..
0040: F8 FF FF 7F F8 FF FF 7F  64 61 6D 30 00           ........dam0.   
```

#### Opcodes

```
  0: 0x003D [0x5B] LOAD_EXT_SCHEDULER: Load scheduler "dam0" with entities [EventEntity, EventEntity], work=3370*
  1: 0x004C [0x00] END_REQSTACK()
```

### Event 65535.6

#### Metadata

| Field        | Value    |
|--------------|----------|
| Entrypoint   | 0x004D   |
| Data Size    | 14 bytes |
| Instructions | 2        |

```
      00 01 02 03 04 05 06 07  08 09 0A 0B 0C 0D 0E 0F
      -- -- -- -- -- -- -- --  -- -- -- -- -- -- -- --
0040:                                         53 F8 FF               S..
0050: FF 7F F8 FF FF 7F 64 61  6D 30 00                 ......dam0.     
```

#### Opcodes

```
  0: 0x004D [0x53] WAIT_SCHEDULER_TASK: Wait for scheduler "dam0" with entities [EventEntity, EventEntity]
  1: 0x005A [0x00] END_REQSTACK()
```

### Event 65535.7

#### Metadata

| Field        | Value    |
|--------------|----------|
| Entrypoint   | 0x005B   |
| Data Size    | 16 bytes |
| Instructions | 2        |

```
      00 01 02 03 04 05 06 07  08 09 0A 0B 0C 0D 0E 0F
      -- -- -- -- -- -- -- --  -- -- -- -- -- -- -- --
0050:                                   5B 00 80 F8 FF             [....
0060: FF 7F F8 FF FF 7F 64 61  6D 31 00                 ......dam1.     
```

#### Opcodes

```
  0: 0x005B [0x5B] LOAD_EXT_SCHEDULER: Load scheduler "dam1" with entities [EventEntity, EventEntity], work=3370*
  1: 0x006A [0x00] END_REQSTACK()
```

### Event 65535.8

#### Metadata

| Field        | Value    |
|--------------|----------|
| Entrypoint   | 0x006B   |
| Data Size    | 14 bytes |
| Instructions | 2        |

```
      00 01 02 03 04 05 06 07  08 09 0A 0B 0C 0D 0E 0F
      -- -- -- -- -- -- -- --  -- -- -- -- -- -- -- --
0060:                                   53 F8 FF FF 7F             S....
0070: F8 FF FF 7F 64 61 6D 31  00                       ....dam1.       
```

#### Opcodes

```
  0: 0x006B [0x53] WAIT_SCHEDULER_TASK: Wait for scheduler "dam1" with entities [EventEntity, EventEntity]
  1: 0x0078 [0x00] END_REQSTACK()
```

### Event 65535.9

#### Metadata

| Field        | Value    |
|--------------|----------|
| Entrypoint   | 0x0079   |
| Data Size    | 16 bytes |
| Instructions | 2        |

```
      00 01 02 03 04 05 06 07  08 09 0A 0B 0C 0D 0E 0F
      -- -- -- -- -- -- -- --  -- -- -- -- -- -- -- --
0070:                             5B 00 80 F8 FF FF 7F           [......
0080: F8 FF FF 7F 64 61 6D 32  00                       ....dam2.       
```

#### Opcodes

```
  0: 0x0079 [0x5B] LOAD_EXT_SCHEDULER: Load scheduler "dam2" with entities [EventEntity, EventEntity], work=3370*
  1: 0x0088 [0x00] END_REQSTACK()
```

### Event 65535.10

#### Metadata

| Field        | Value    |
|--------------|----------|
| Entrypoint   | 0x0089   |
| Data Size    | 14 bytes |
| Instructions | 2        |

```
      00 01 02 03 04 05 06 07  08 09 0A 0B 0C 0D 0E 0F
      -- -- -- -- -- -- -- --  -- -- -- -- -- -- -- --
0080:                             53 F8 FF FF 7F F8 FF           S......
0090: FF 7F 64 61 6D 32 00                              ..dam2.         
```

#### Opcodes

```
  0: 0x0089 [0x53] WAIT_SCHEDULER_TASK: Wait for scheduler "dam2" with entities [EventEntity, EventEntity]
  1: 0x0096 [0x00] END_REQSTACK()
```

### Event 65535.11

#### Metadata

| Field        | Value    |
|--------------|----------|
| Entrypoint   | 0x0097   |
| Data Size    | 29 bytes |
| Instructions | 3        |

```
      00 01 02 03 04 05 06 07  08 09 0A 0B 0C 0D 0E 0F
      -- -- -- -- -- -- -- --  -- -- -- -- -- -- -- --
0090:                      2C  F8 FF FF 7F F8 FF FF 7F         ,........
00A0: 77 36 6F 6E 5B 00 80 F8  FF FF 7F F8 FF FF 7F 64  w6on[..........d
00B0: 61 6D 33 00                                       am3.            
```

#### Opcodes

```
  0: 0x0097 [0x2C] CREATE_SCHEDULER_TASK: Create scheduler "w6on" with entities [EventEntity, EventEntity]
  1: 0x00A4 [0x5B] LOAD_EXT_SCHEDULER: Load scheduler "dam3" with entities [EventEntity, EventEntity], work=3370*
  2: 0x00B3 [0x00] END_REQSTACK()
```

### Event 65535.12

#### Metadata

| Field        | Value    |
|--------------|----------|
| Entrypoint   | 0x00B4   |
| Data Size    | 27 bytes |
| Instructions | 3        |

```
      00 01 02 03 04 05 06 07  08 09 0A 0B 0C 0D 0E 0F
      -- -- -- -- -- -- -- --  -- -- -- -- -- -- -- --
00B0:             53 F8 FF FF  7F F8 FF FF 7F 64 61 6D      S........dam
00C0: 33 2C F8 FF FF 7F F8 FF  FF 7F 77 36 6F 66 00     3,........w6of. 
```

#### Opcodes

```
  0: 0x00B4 [0x53] WAIT_SCHEDULER_TASK: Wait for scheduler "dam3" with entities [EventEntity, EventEntity]
  1: 0x00C1 [0x2C] CREATE_SCHEDULER_TASK: Create scheduler "w6of" with entities [EventEntity, EventEntity]
  2: 0x00CE [0x00] END_REQSTACK()
```

### Event 65535.13

#### Metadata

| Field        | Value    |
|--------------|----------|
| Entrypoint   | 0x00CF   |
| Data Size    | 16 bytes |
| Instructions | 2        |

```
      00 01 02 03 04 05 06 07  08 09 0A 0B 0C 0D 0E 0F
      -- -- -- -- -- -- -- --  -- -- -- -- -- -- -- --
00C0:                                               5B                 [
00D0: 01 80 F8 FF FF 7F F8 FF  FF 7F 64 61 6D 34 00     ..........dam4. 
```

#### Opcodes

```
  0: 0x00CF [0x5B] LOAD_EXT_SCHEDULER: Load scheduler "dam4" with entities [EventEntity, EventEntity], work=3371*
  1: 0x00DE [0x00] END_REQSTACK()
```

### Event 65535.14

#### Metadata

| Field        | Value    |
|--------------|----------|
| Entrypoint   | 0x00DF   |
| Data Size    | 14 bytes |
| Instructions | 2        |

```
      00 01 02 03 04 05 06 07  08 09 0A 0B 0C 0D 0E 0F
      -- -- -- -- -- -- -- --  -- -- -- -- -- -- -- --
00D0:                                               53                 S
00E0: F8 FF FF 7F F8 FF FF 7F  64 61 6D 34 00           ........dam4.   
```

#### Opcodes

```
  0: 0x00DF [0x53] WAIT_SCHEDULER_TASK: Wait for scheduler "dam4" with entities [EventEntity, EventEntity]
  1: 0x00EC [0x00] END_REQSTACK()
```

### Event 65535.15

#### Metadata

| Field        | Value    |
|--------------|----------|
| Entrypoint   | 0x00ED   |
| Data Size    | 16 bytes |
| Instructions | 2        |

```
      00 01 02 03 04 05 06 07  08 09 0A 0B 0C 0D 0E 0F
      -- -- -- -- -- -- -- --  -- -- -- -- -- -- -- --
00E0:                                         5B 02 80               [..
00F0: F8 FF FF 7F F8 FF FF 7F  74 6C 6B 30 00           ........tlk0.   
```

#### Opcodes

```
  0: 0x00ED [0x5B] LOAD_EXT_SCHEDULER: Load scheduler "tlk0" with entities [EventEntity, EventEntity], work=3291*
  1: 0x00FC [0x00] END_REQSTACK()
```

### Event 65535.16

#### Metadata

| Field        | Value    |
|--------------|----------|
| Entrypoint   | 0x00FD   |
| Data Size    | 14 bytes |
| Instructions | 2        |

```
      00 01 02 03 04 05 06 07  08 09 0A 0B 0C 0D 0E 0F
      -- -- -- -- -- -- -- --  -- -- -- -- -- -- -- --
00F0:                                         53 F8 FF               S..
0100: FF 7F F8 FF FF 7F 74 6C  6B 30 00                 ......tlk0.     
```

#### Opcodes

```
  0: 0x00FD [0x53] WAIT_SCHEDULER_TASK: Wait for scheduler "tlk0" with entities [EventEntity, EventEntity]
  1: 0x010A [0x00] END_REQSTACK()
```

### Event 65535.17

#### Metadata

| Field        | Value    |
|--------------|----------|
| Entrypoint   | 0x010B   |
| Data Size    | 16 bytes |
| Instructions | 2        |

```
      00 01 02 03 04 05 06 07  08 09 0A 0B 0C 0D 0E 0F
      -- -- -- -- -- -- -- --  -- -- -- -- -- -- -- --
0100:                                   5B 02 80 F8 FF             [....
0110: FF 7F F8 FF FF 7F 74 6C  6B 31 00                 ......tlk1.     
```

#### Opcodes

```
  0: 0x010B [0x5B] LOAD_EXT_SCHEDULER: Load scheduler "tlk1" with entities [EventEntity, EventEntity], work=3291*
  1: 0x011A [0x00] END_REQSTACK()
```

### Event 65535.18

#### Metadata

| Field        | Value    |
|--------------|----------|
| Entrypoint   | 0x011B   |
| Data Size    | 14 bytes |
| Instructions | 2        |

```
      00 01 02 03 04 05 06 07  08 09 0A 0B 0C 0D 0E 0F
      -- -- -- -- -- -- -- --  -- -- -- -- -- -- -- --
0110:                                   53 F8 FF FF 7F             S....
0120: F8 FF FF 7F 74 6C 6B 31  00                       ....tlk1.       
```

#### Opcodes

```
  0: 0x011B [0x53] WAIT_SCHEDULER_TASK: Wait for scheduler "tlk1" with entities [EventEntity, EventEntity]
  1: 0x0128 [0x00] END_REQSTACK()
```

### Event 65535.19

#### Metadata

| Field        | Value    |
|--------------|----------|
| Entrypoint   | 0x0129   |
| Data Size    | 16 bytes |
| Instructions | 2        |

```
      00 01 02 03 04 05 06 07  08 09 0A 0B 0C 0D 0E 0F
      -- -- -- -- -- -- -- --  -- -- -- -- -- -- -- --
0120:                             5B 02 80 F8 FF FF 7F           [......
0130: F8 FF FF 7F 74 68 6B 30  00                       ....thk0.       
```

#### Opcodes

```
  0: 0x0129 [0x5B] LOAD_EXT_SCHEDULER: Load scheduler "thk0" with entities [EventEntity, EventEntity], work=3291*
  1: 0x0138 [0x00] END_REQSTACK()
```

### Event 65535.20

#### Metadata

| Field        | Value    |
|--------------|----------|
| Entrypoint   | 0x0139   |
| Data Size    | 14 bytes |
| Instructions | 2        |

```
      00 01 02 03 04 05 06 07  08 09 0A 0B 0C 0D 0E 0F
      -- -- -- -- -- -- -- --  -- -- -- -- -- -- -- --
0130:                             53 F8 FF FF 7F F8 FF           S......
0140: FF 7F 74 68 6B 30 00                              ..thk0.         
```

#### Opcodes

```
  0: 0x0139 [0x53] WAIT_SCHEDULER_TASK: Wait for scheduler "thk0" with entities [EventEntity, EventEntity]
  1: 0x0146 [0x00] END_REQSTACK()
```

### Event 65535.21

#### Metadata

| Field        | Value    |
|--------------|----------|
| Entrypoint   | 0x0147   |
| Data Size    | 16 bytes |
| Instructions | 2        |

```
      00 01 02 03 04 05 06 07  08 09 0A 0B 0C 0D 0E 0F
      -- -- -- -- -- -- -- --  -- -- -- -- -- -- -- --
0140:                      5B  02 80 F8 FF FF 7F F8 FF         [........
0150: FF 7F 74 68 6B 31 00                              ..thk1.         
```

#### Opcodes

```
  0: 0x0147 [0x5B] LOAD_EXT_SCHEDULER: Load scheduler "thk1" with entities [EventEntity, EventEntity], work=3291*
  1: 0x0156 [0x00] END_REQSTACK()
```

### Event 65535.22

#### Metadata

| Field        | Value    |
|--------------|----------|
| Entrypoint   | 0x0157   |
| Data Size    | 14 bytes |
| Instructions | 2        |

```
      00 01 02 03 04 05 06 07  08 09 0A 0B 0C 0D 0E 0F
      -- -- -- -- -- -- -- --  -- -- -- -- -- -- -- --
0150:                      53  F8 FF FF 7F F8 FF FF 7F         S........
0160: 74 68 6B 31 00                                    thk1.           
```

#### Opcodes

```
  0: 0x0157 [0x53] WAIT_SCHEDULER_TASK: Wait for scheduler "thk1" with entities [EventEntity, EventEntity]
  1: 0x0164 [0x00] END_REQSTACK()
```

### Event 65535.23

#### Metadata

| Field        | Value    |
|--------------|----------|
| Entrypoint   | 0x0165   |
| Data Size    | 16 bytes |
| Instructions | 2        |

```
      00 01 02 03 04 05 06 07  08 09 0A 0B 0C 0D 0E 0F
      -- -- -- -- -- -- -- --  -- -- -- -- -- -- -- --
0160:                5B 02 80  F8 FF FF 7F F8 FF FF 7F       [..........
0170: 79 65 73 30 00                                    yes0.           
```

#### Opcodes

```
  0: 0x0165 [0x5B] LOAD_EXT_SCHEDULER: Load scheduler "yes0" with entities [EventEntity, EventEntity], work=3291*
  1: 0x0174 [0x00] END_REQSTACK()
```

### Event 65535.24

#### Metadata

| Field        | Value    |
|--------------|----------|
| Entrypoint   | 0x0175   |
| Data Size    | 14 bytes |
| Instructions | 2        |

```
      00 01 02 03 04 05 06 07  08 09 0A 0B 0C 0D 0E 0F
      -- -- -- -- -- -- -- --  -- -- -- -- -- -- -- --
0170:                53 F8 FF  FF 7F F8 FF FF 7F 79 65       S........ye
0180: 73 30 00                                          s0.             
```

#### Opcodes

```
  0: 0x0175 [0x53] WAIT_SCHEDULER_TASK: Wait for scheduler "yes0" with entities [EventEntity, EventEntity]
  1: 0x0182 [0x00] END_REQSTACK()
```

### Event 65535.25

#### Metadata

| Field        | Value    |
|--------------|----------|
| Entrypoint   | 0x0183   |
| Data Size    | 16 bytes |
| Instructions | 2        |

```
      00 01 02 03 04 05 06 07  08 09 0A 0B 0C 0D 0E 0F
      -- -- -- -- -- -- -- --  -- -- -- -- -- -- -- --
0180:          5B 02 80 F8 FF  FF 7F F8 FF FF 7F 6E 6F     [..........no
0190: 6E 30 00                                          n0.             
```

#### Opcodes

```
  0: 0x0183 [0x5B] LOAD_EXT_SCHEDULER: Load scheduler "non0" with entities [EventEntity, EventEntity], work=3291*
  1: 0x0192 [0x00] END_REQSTACK()
```

### Event 65535.26

#### Metadata

| Field        | Value    |
|--------------|----------|
| Entrypoint   | 0x0193   |
| Data Size    | 14 bytes |
| Instructions | 2        |

```
      00 01 02 03 04 05 06 07  08 09 0A 0B 0C 0D 0E 0F
      -- -- -- -- -- -- -- --  -- -- -- -- -- -- -- --
0190:          53 F8 FF FF 7F  F8 FF FF 7F 6E 6F 6E 30     S........non0
01A0: 00                                                .               
```

#### Opcodes

```
  0: 0x0193 [0x53] WAIT_SCHEDULER_TASK: Wait for scheduler "non0" with entities [EventEntity, EventEntity]
  1: 0x01A0 [0x00] END_REQSTACK()
```

### Event 65535.27

#### Metadata

| Field        | Value    |
|--------------|----------|
| Entrypoint   | 0x01A1   |
| Data Size    | 16 bytes |
| Instructions | 2        |

```
      00 01 02 03 04 05 06 07  08 09 0A 0B 0C 0D 0E 0F
      -- -- -- -- -- -- -- --  -- -- -- -- -- -- -- --
01A0:    5B 02 80 F8 FF FF 7F  F8 FF FF 7F 6B 61 6D 30   [..........kam0
01B0: 00                                                .               
```

#### Opcodes

```
  0: 0x01A1 [0x5B] LOAD_EXT_SCHEDULER: Load scheduler "kam0" with entities [EventEntity, EventEntity], work=3291*
  1: 0x01B0 [0x00] END_REQSTACK()
```

### Event 65535.28

#### Metadata

| Field        | Value    |
|--------------|----------|
| Entrypoint   | 0x01B1   |
| Data Size    | 14 bytes |
| Instructions | 2        |

```
      00 01 02 03 04 05 06 07  08 09 0A 0B 0C 0D 0E 0F
      -- -- -- -- -- -- -- --  -- -- -- -- -- -- -- --
01B0:    53 F8 FF FF 7F F8 FF  FF 7F 6B 61 6D 30 00      S........kam0. 
```

#### Opcodes

```
  0: 0x01B1 [0x53] WAIT_SCHEDULER_TASK: Wait for scheduler "kam0" with entities [EventEntity, EventEntity]
  1: 0x01BE [0x00] END_REQSTACK()
```

### Event 65535.29

#### Metadata

| Field        | Value    |
|--------------|----------|
| Entrypoint   | 0x01BF   |
| Data Size    | 16 bytes |
| Instructions | 2        |

```
      00 01 02 03 04 05 06 07  08 09 0A 0B 0C 0D 0E 0F
      -- -- -- -- -- -- -- --  -- -- -- -- -- -- -- --
01B0:                                               5B                 [
01C0: 02 80 F8 FF FF 7F F8 FF  FF 7F 6B 61 6D 31 00     ..........kam1. 
```

#### Opcodes

```
  0: 0x01BF [0x5B] LOAD_EXT_SCHEDULER: Load scheduler "kam1" with entities [EventEntity, EventEntity], work=3291*
  1: 0x01CE [0x00] END_REQSTACK()
```

### Event 65535.30

#### Metadata

| Field        | Value    |
|--------------|----------|
| Entrypoint   | 0x01CF   |
| Data Size    | 14 bytes |
| Instructions | 2        |

```
      00 01 02 03 04 05 06 07  08 09 0A 0B 0C 0D 0E 0F
      -- -- -- -- -- -- -- --  -- -- -- -- -- -- -- --
01C0:                                               53                 S
01D0: F8 FF FF 7F F8 FF FF 7F  6B 61 6D 31 00           ........kam1.   
```

#### Opcodes

```
  0: 0x01CF [0x53] WAIT_SCHEDULER_TASK: Wait for scheduler "kam1" with entities [EventEntity, EventEntity]
  1: 0x01DC [0x00] END_REQSTACK()
```

### Event 65535.31

#### Metadata

| Field        | Value    |
|--------------|----------|
| Entrypoint   | 0x01DD   |
| Data Size    | 16 bytes |
| Instructions | 2        |

```
      00 01 02 03 04 05 06 07  08 09 0A 0B 0C 0D 0E 0F
      -- -- -- -- -- -- -- --  -- -- -- -- -- -- -- --
01D0:                                         5B 02 80               [..
01E0: F8 FF FF 7F F8 FF FF 7F  77 61 6B 30 00           ........wak0.   
```

#### Opcodes

```
  0: 0x01DD [0x5B] LOAD_EXT_SCHEDULER: Load scheduler "wak0" with entities [EventEntity, EventEntity], work=3291*
  1: 0x01EC [0x00] END_REQSTACK()
```

### Event 65535.32

#### Metadata

| Field        | Value    |
|--------------|----------|
| Entrypoint   | 0x01ED   |
| Data Size    | 14 bytes |
| Instructions | 2        |

```
      00 01 02 03 04 05 06 07  08 09 0A 0B 0C 0D 0E 0F
      -- -- -- -- -- -- -- --  -- -- -- -- -- -- -- --
01E0:                                         53 F8 FF               S..
01F0: FF 7F F8 FF FF 7F 77 61  6B 30 00                 ......wak0.     
```

#### Opcodes

```
  0: 0x01ED [0x53] WAIT_SCHEDULER_TASK: Wait for scheduler "wak0" with entities [EventEntity, EventEntity]
  1: 0x01FA [0x00] END_REQSTACK()
```

### Event 21

#### Metadata

| Field        | Value   |
|--------------|---------|
| Entrypoint   | 0x01FB  |
| Data Size    | 1 bytes |
| Instructions | 1       |

```
      00 01 02 03 04 05 06 07  08 09 0A 0B 0C 0D 0E 0F
      -- -- -- -- -- -- -- --  -- -- -- -- -- -- -- --
01F0:                                   00                         .    
```

#### Opcodes

```
  0: 0x01FB [0x00] END_REQSTACK()
```

### Event 65535.33

#### Metadata

| Field        | Value    |
|--------------|----------|
| Entrypoint   | 0x01FC   |
| Data Size    | 18 bytes |
| Instructions | 4        |

```
      00 01 02 03 04 05 06 07  08 09 0A 0B 0C 0D 0E 0F
      -- -- -- -- -- -- -- --  -- -- -- -- -- -- -- --
01F0:                                      2F 00 F8 FF              /...
0200: FF 7F 37 03 80 04 80 05  80 06 80 22 00 00        ..7........"..  
```

#### Opcodes

```
  0: 0x01FC [0x2F] EventEntity->Render.Flags0 &= ~0x80000 // Bit 19
  1: 0x0202 [0x37] UPDATE_EVENT_POSITION_AND_DIR: x=200.021*, z=76.064*, y=0.012*, direction=160.9°*
  2: 0x020B [0x22] ENTITY_HIDE_FLAG(enabled=0x00)
  3: 0x020D [0x00] END_REQSTACK()
```

### Event 65535.34

#### Metadata

| Field        | Value    |
|--------------|----------|
| Entrypoint   | 0x020E   |
| Data Size    | 14 bytes |
| Instructions | 4        |

```
      00 01 02 03 04 05 06 07  08 09 0A 0B 0C 0D 0E 0F
      -- -- -- -- -- -- -- --  -- -- -- -- -- -- -- --
0200:                                            32 07                2.
0210: 80 1F 00 08 80 09 80 0A  80 1F 01 00              ............    
```

#### Opcodes

```
  0: 0x020E [0x32] ExtData[1]->MainSpeed = 13* * 0.1
  1: 0x0211 [0x1F] MOVE_ENTITY: EventEntity moves to X=184.687*, Z=56.902*, Y=0.487*
  2: 0x0219 [0x1F] MOVE_ENTITY: Update entity position (mode=1)
  3: 0x021B [0x00] END_REQSTACK()
```

### Event 65535.35

#### Metadata

| Field        | Value    |
|--------------|----------|
| Entrypoint   | 0x021C   |
| Data Size    | 14 bytes |
| Instructions | 4        |

```
      00 01 02 03 04 05 06 07  08 09 0A 0B 0C 0D 0E 0F
      -- -- -- -- -- -- -- --  -- -- -- -- -- -- -- --
0210:                                      32 07 80 1F              2...
0220: 00 0B 80 0C 80 0D 80 1F  01 00                    ..........      
```

#### Opcodes

```
  0: 0x021C [0x32] ExtData[1]->MainSpeed = 13* * 0.1
  1: 0x021F [0x1F] MOVE_ENTITY: EventEntity moves to X=202.591*, Z=83.020*, Y=0.000*
  2: 0x0227 [0x1F] MOVE_ENTITY: Update entity position (mode=1)
  3: 0x0229 [0x00] END_REQSTACK()
```

### Event 65535.36

#### Metadata

| Field        | Value    |
|--------------|----------|
| Entrypoint   | 0x022A   |
| Data Size    | 14 bytes |
| Instructions | 4        |

```
      00 01 02 03 04 05 06 07  08 09 0A 0B 0C 0D 0E 0F
      -- -- -- -- -- -- -- --  -- -- -- -- -- -- -- --
0220:                                32 07 80 1F 00 0E            2.....
0230: 80 0F 80 0D 80 1F 01 00                           ........        
```

#### Opcodes

```
  0: 0x022A [0x32] ExtData[1]->MainSpeed = 13* * 0.1
  1: 0x022D [0x1F] MOVE_ENTITY: EventEntity moves to X=198.974*, Z=78.684*, Y=0.000*
  2: 0x0235 [0x1F] MOVE_ENTITY: Update entity position (mode=1)
  3: 0x0237 [0x00] END_REQSTACK()
```

### Event 27

#### Metadata

| Field        | Value   |
|--------------|---------|
| Entrypoint   | 0x0238  |
| Data Size    | 6 bytes |
| Instructions | 3       |

```
      00 01 02 03 04 05 06 07  08 09 0A 0B 0C 0D 0E 0F
      -- -- -- -- -- -- -- --  -- -- -- -- -- -- -- --
0230:                          C0 10 80 A5 01 00                ......  
```

#### Opcodes

```
  0: 0x0238 [0xC0] EventEntity->Render.Flags3 |= 0x1000 // Set bit 12 (from 1*)
  1: 0x023B [0xA5] EventEntity->Flags3.BallistaTeam |= 0x08  // Set bit 3 of BallistaTeam
  2: 0x023D [0x00] END_REQSTACK()
```

### Event 65535.37

#### Metadata

| Field        | Value    |
|--------------|----------|
| Entrypoint   | 0x023E   |
| Data Size    | 14 bytes |
| Instructions | 4        |

```
      00 01 02 03 04 05 06 07  08 09 0A 0B 0C 0D 0E 0F
      -- -- -- -- -- -- -- --  -- -- -- -- -- -- -- --
0230:                                            32 07                2.
0240: 80 1F 00 11 80 12 80 13  80 1F 01 00              ............    
```

#### Opcodes

```
  0: 0x023E [0x32] ExtData[1]->MainSpeed = 13* * 0.1
  1: 0x0241 [0x1F] MOVE_ENTITY: EventEntity moves to X=417.740*, Z=175.910*, Y=0.592*
  2: 0x0249 [0x1F] MOVE_ENTITY: Update entity position (mode=1)
  3: 0x024B [0x00] END_REQSTACK()
```

### Event 65535.38

#### Metadata

| Field        | Value    |
|--------------|----------|
| Entrypoint   | 0x024C   |
| Data Size    | 14 bytes |
| Instructions | 4        |

```
      00 01 02 03 04 05 06 07  08 09 0A 0B 0C 0D 0E 0F
      -- -- -- -- -- -- -- --  -- -- -- -- -- -- -- --
0240:                                      32 07 80 1F              2...
0250: 00 14 80 15 80 0D 80 1F  01 00                    ..........      
```

#### Opcodes

```
  0: 0x024C [0x32] ExtData[1]->MainSpeed = 13* * 0.1
  1: 0x024F [0x1F] MOVE_ENTITY: EventEntity moves to X=203.256*, Z=81.104*, Y=0.000*
  2: 0x0257 [0x1F] MOVE_ENTITY: Update entity position (mode=1)
  3: 0x0259 [0x00] END_REQSTACK()
```

### Event 65535.39

#### Metadata

| Field        | Value    |
|--------------|----------|
| Entrypoint   | 0x025A   |
| Data Size    | 20 bytes |
| Instructions | 4        |

```
      00 01 02 03 04 05 06 07  08 09 0A 0B 0C 0D 0E 0F
      -- -- -- -- -- -- -- --  -- -- -- -- -- -- -- --
0250:                                81 00 05 52 10 01            ...R..
0260: 7C 00 05 52 10 01 59 05  05 52 10 01 01 00        |..R..Y..R....  
```

#### Opcodes

```
  0: 0x025A [0x81] SET_ENTITY_BLINKING(blink_flag=0x00, entity=Ingrid (ID: 17846789/0x01105205))
  1: 0x0260 [0x7C] Ingrid (ID: 17846789/0x01105205)->Render.Flags2 |= 0x00
  2: 0x0266 [0x59] UPDATE_ENTITY_DATA: Ingrid (ID: 17846789/0x01105205)->Render.Flags0 |= 0x200000
  3: 0x026D [0x00] END_REQSTACK()
```
