# 17846826

## Common Data

| Field            | Value                          |
|------------------|--------------------------------|
| Zone             | Ceizak Battlegrounds (ID: 261) |
| Block Size       | 768 bytes                      |
| Total Events     | 2                              |
| References Count | 11                             |

## List of Events

| Event ID              | Entrypoint   |   Size |   Instructions |
|-----------------------|--------------|--------|----------------|
| [65535](#event-65535) | 0x0000       |      1 |              1 |
| [5004](#event-5004)   | 0x0001       |    697 |             75 |

## DAT References (imed_data)

|   Index | Hex Value   |   Dec Value |
|---------|-------------|-------------|
|       0 | 0x001E      |          30 |
|       1 | 0x0029      |          41 |
|       2 | 0x1F13      |        7955 |
|       3 | 0x1F14      |        7956 |
|       4 | 0x00C8      |         200 |
|       5 | 0x0000      |           0 |
|       6 | 0x00C9      |         201 |
|       7 | 0x0001      |           1 |
|       8 | 0x002D      |          45 |
|       9 | 0x0002      |           2 |
|      10 | 0x00D7      |         215 |

## String References

- **7955**: Upending some of the soil reveals a weathered pouch made of leather. Judging by the location, it could only come from a pioneer who lost his life long ago.
- **7956**: A brass-embossed envelope rests within the pouch, which in turn contains a crumpled sheet of vellum.

## Events

### Event 65535

#### Metadata

| Field        | Value   |
|--------------|---------|
| Entrypoint   | 0x0000  |
| Data Size    | 1 bytes |
| Instructions | 1       |

```
      00 01 02 03 04 05 06 07  08 09 0A 0B 0C 0D 0E 0F
      -- -- -- -- -- -- -- --  -- -- -- -- -- -- -- --
0000: 00                                                .               
```

#### Opcodes

```
  0: 0x0000 [0x00] END_REQSTACK()
```

### Event 5004

#### Metadata

| Field        | Value     |
|--------------|-----------|
| Entrypoint   | 0x0001    |
| Data Size    | 697 bytes |
| Instructions | 14        |

```
      00 01 02 03 04 05 06 07  08 09 0A 0B 0C 0D 0E 0F
      -- -- -- -- -- -- -- --  -- -- -- -- -- -- -- --
0000:    42 4A F0 FF FF 7F F8  FF FF 7F 6F 70 1C 00 80   BJ........op...
0010: 6E F0 FF FF 7F 01 80 99  F0 FF FF 7F 1C 00 80 48  n..............H
0020: 02 80 23 48 03 80 23 21  00 45 04 80 F0 FF FF 7F  ..#H..#!.E......
0030: F0 FF FF 7F 66 64 69 30  05 80 55 04 80 F0 FF FF  ....fdi0..U.....
0040: 7F F0 FF FF 7F 66 64 69  30 1B 45 04 80 F0 FF FF  .....fdi0.E.....
0050: 7F F0 FF FF 7F 66 64 6F  30 05 80 55 04 80 F0 FF  .....fdo0..U....
0060: FF 7F F0 FF FF 7F 66 64  6F 30 1B 45 04 80 F0 FF  ......fdo0.E....
0070: FF 7F F0 FF FF 7F 66 64  69 31 05 80 55 04 80 F0  ......fdi1..U...
0080: FF FF 7F F0 FF FF 7F 66  64 69 31 1B 45 04 80 F0  .......fdi1.E...
0090: FF FF 7F F0 FF FF 7F 66  64 6F 31 05 80 55 04 80  .......fdo1..U..
00A0: F0 FF FF 7F F0 FF FF 7F  66 64 6F 31 1B 45 06 80  ........fdo1.E..
00B0: F0 FF FF 7F F0 FF FF 7F  77 68 69 31 05 80 55 06  ........whi1..U.
00C0: 80 F0 FF FF 7F F0 FF FF  7F 77 68 69 31 1B 45 06  .........whi1.E.
00D0: 80 F0 FF FF 7F F0 FF FF  7F 77 68 6F 31 05 80 55  .........who1..U
00E0: 06 80 F0 FF FF 7F F0 FF  FF 7F 77 68 6F 31 1B 45  ..........who1.E
00F0: 06 80 F0 FF FF 7F F0 FF  FF 7F 77 68 6F 32 05 80  ..........who2..
0100: 55 06 80 F0 FF FF 7F F0  FF FF 7F 77 68 6F 32 1B  U..........who2.
0110: 45 06 80 F0 FF FF 7F F0  FF FF 7F 77 68 6F 33 05  E..........who3.
0120: 80 55 06 80 F0 FF FF 7F  F0 FF FF 7F 77 68 6F 33  .U..........who3
0130: 1B 62 07 80 F0 FF FF 7F  F0 FF FF 7F 6D 61 69 6E  .b..........main
0140: 05 80 1C 08 80 45 04 80  F0 FF FF 7F F0 FF FF 7F  .....E..........
0150: 66 64 6F 31 05 80 55 04  80 F0 FF FF 7F F0 FF FF  fdo1..U.........
0160: 7F 66 64 6F 31 1B 45 04  80 F0 FF FF 7F F0 FF FF  .fdo1.E.........
0170: 7F 66 64 69 31 05 80 62  09 80 F0 FF FF 7F F0 FF  .fdi1..b........
0180: FF 7F 6D 61 69 6E 05 80  1C 00 80 55 04 80 F0 FF  ..main.....U....
0190: FF 7F F0 FF FF 7F 66 64  69 31 1B 45 04 80 F0 FF  ......fdi1.E....
01A0: FF 7F F0 FF FF 7F 62 6C  6F 6E 05 80 45 06 80 F0  ......blon..E...
01B0: FF FF 7F F0 FF FF 7F 62  6C 6F 6E 05 80 1B 45 06  .......blon...E.
01C0: 80 F0 FF FF 7F F0 FF FF  7F 77 68 69 30 05 80 55  .........whi0..U
01D0: 06 80 F0 FF FF 7F F0 FF  FF 7F 77 68 69 30 1B 45  ..........whi0.E
01E0: 06 80 F0 FF FF 7F F0 FF  FF 7F 77 68 6F 30 05 80  ..........who0..
01F0: 55 06 80 F0 FF FF 7F F0  FF FF 7F 77 68 6F 30 1B  U..........who0.
0200: 45 0A 80 F0 FF FF 7F F0  FF FF 7F 65 66 6F 6E 05  E..........efon.
0210: 80 55 0A 80 F0 FF FF 7F  F0 FF FF 7F 65 66 6F 6E  .U..........efon
0220: 1B 45 04 80 F0 FF FF 7F  F0 FF FF 7F 66 64 69 73  .E..........fdis
0230: 05 80 1B 45 04 80 F0 FF  FF 7F F0 FF FF 7F 66 64  ...E..........fd
0240: 6F 73 05 80 55 04 80 F0  FF FF 7F F0 FF FF 7F 66  os..U..........f
0250: 64 6F 73 1B 45 04 80 F0  FF FF 7F F0 FF FF 7F 66  dos.E..........f
0260: 64 69 66 05 80 1B 45 04  80 F0 FF FF 7F F0 FF FF  dif...E.........
0270: 7F 66 64 6F 66 05 80 55  04 80 F0 FF FF 7F F0 FF  .fdof..U........
0280: FF 7F 66 64 6F 66 1B 45  04 80 F0 FF FF 7F F0 FF  ..fdof.E........
0290: FF 7F 66 64 69 70 05 80  1B 45 04 80 F0 FF FF 7F  ..fdip...E......
02A0: F0 FF FF 7F 66 64 6F 70  05 80 55 04 80 F0 FF FF  ....fdop..U.....
02B0: 7F F0 FF FF 7F 66 64 6F  70 1B                    .....fdop.      
```

#### Opcodes

```
  0: 0x0001 [0x42] SET_CLI_EVENT_CANCEL_DATA()
  1: 0x0002 [0x4A] LocalPlayer looks at EventEntity
  2: 0x000B [0x6F] WAIT_FRAME_DELAY: Yield until WaitTime reaches zero
  3: 0x000C [0x70] WAIT_ENTITY_RENDER_FLAG: Wait while EventEntity->Render.Flags3 bit 2 is set (cancel turn if not)
  4: 0x000D [0x1C] WAIT(30* ticks)
  5: 0x0010 [0x6E] LocalPlayer uses emote 41*
  6: 0x0017 [0x99] Wait for LocalPlayer animation to complete
  7: 0x001C [0x1C] WAIT(30* ticks)
  8: 0x001F [0x48] [System] [7955*]:
    → "Upending some of the soil reveals a weathered pouch made of leather. Judging by the location, it could only come from a pioneer who lost his life long ago."
  9: 0x0022 [0x23] WAIT_FOR_DIALOG_INTERACTION
 10: 0x0023 [0x48] [System] [7956*]:
    → "A brass-embossed envelope rests within the pouch, which in turn contains a crumpled sheet of vellum."
 11: 0x0026 [0x23] WAIT_FOR_DIALOG_INTERACTION
 12: 0x0027 [0x21] END_EVENT
 13: 0x0028 [0x00] END_REQSTACK()
```

#### Data or dead code:

```
# Dead code (unreachable instructions):
     0x0029 [0x45] LOAD_SCHEDULED_TASK: Load scheduler "fdi0" with entities [LocalPlayer, LocalPlayer], work=[200*, 0*]
     0x003A [0x55] WAIT_LOAD_SCHEDULER: Wait for scheduler "fdi0" with entities [LocalPlayer, LocalPlayer], work=200*
     0x0049 [0x1B] RETURN
     0x004A [0x45] LOAD_SCHEDULED_TASK: Load scheduler "fdo0" with entities [LocalPlayer, LocalPlayer], work=[200*, 0*]
     0x005B [0x55] WAIT_LOAD_SCHEDULER: Wait for scheduler "fdo0" with entities [LocalPlayer, LocalPlayer], work=200*
     0x006A [0x1B] RETURN
     0x006B [0x45] LOAD_SCHEDULED_TASK: Load scheduler "fdi1" with entities [LocalPlayer, LocalPlayer], work=[200*, 0*]
     0x007C [0x55] WAIT_LOAD_SCHEDULER: Wait for scheduler "fdi1" with entities [LocalPlayer, LocalPlayer], work=200*
     0x008B [0x1B] RETURN
     0x008C [0x45] LOAD_SCHEDULED_TASK: Load scheduler "fdo1" with entities [LocalPlayer, LocalPlayer], work=[200*, 0*]
     0x009D [0x55] WAIT_LOAD_SCHEDULER: Wait for scheduler "fdo1" with entities [LocalPlayer, LocalPlayer], work=200*
     0x00AC [0x1B] RETURN
     0x00AD [0x45] LOAD_SCHEDULED_TASK: Load scheduler "whi1" with entities [LocalPlayer, LocalPlayer], work=[201*, 0*]
     0x00BE [0x55] WAIT_LOAD_SCHEDULER: Wait for scheduler "whi1" with entities [LocalPlayer, LocalPlayer], work=201*
     0x00CD [0x1B] RETURN
     0x00CE [0x45] LOAD_SCHEDULED_TASK: Load scheduler "who1" with entities [LocalPlayer, LocalPlayer], work=[201*, 0*]
     0x00DF [0x55] WAIT_LOAD_SCHEDULER: Wait for scheduler "who1" with entities [LocalPlayer, LocalPlayer], work=201*
     0x00EE [0x1B] RETURN
     0x00EF [0x45] LOAD_SCHEDULED_TASK: Load scheduler "who2" with entities [LocalPlayer, LocalPlayer], work=[201*, 0*]
     0x0100 [0x55] WAIT_LOAD_SCHEDULER: Wait for scheduler "who2" with entities [LocalPlayer, LocalPlayer], work=201*
     0x010F [0x1B] RETURN
     0x0110 [0x45] LOAD_SCHEDULED_TASK: Load scheduler "who3" with entities [LocalPlayer, LocalPlayer], work=[201*, 0*]
     0x0121 [0x55] WAIT_LOAD_SCHEDULER: Wait for scheduler "who3" with entities [LocalPlayer, LocalPlayer], work=201*
     0x0130 [0x1B] RETURN
     0x0131 [0x62] LOAD_EVENT_SCHEDULER: Load scheduler "main" with entities [LocalPlayer, LocalPlayer], work=[1*, 0*]
     0x0142 [0x1C] WAIT(45* ticks)
     0x0145 [0x45] LOAD_SCHEDULED_TASK: Load scheduler "fdo1" with entities [LocalPlayer, LocalPlayer], work=[200*, 0*]
     0x0156 [0x55] WAIT_LOAD_SCHEDULER: Wait for scheduler "fdo1" with entities [LocalPlayer, LocalPlayer], work=200*
     0x0165 [0x1B] RETURN
     0x0166 [0x45] LOAD_SCHEDULED_TASK: Load scheduler "fdi1" with entities [LocalPlayer, LocalPlayer], work=[200*, 0*]
     0x0177 [0x62] LOAD_EVENT_SCHEDULER: Load scheduler "main" with entities [LocalPlayer, LocalPlayer], work=[2*, 0*]
     0x0188 [0x1C] WAIT(30* ticks)
     0x018B [0x55] WAIT_LOAD_SCHEDULER: Wait for scheduler "fdi1" with entities [LocalPlayer, LocalPlayer], work=200*
     0x019A [0x1B] RETURN
     0x019B [0x45] LOAD_SCHEDULED_TASK: Load scheduler "blon" with entities [LocalPlayer, LocalPlayer], work=[200*, 0*]
     0x01AC [0x45] LOAD_SCHEDULED_TASK: Load scheduler "blon" with entities [LocalPlayer, LocalPlayer], work=[201*, 0*]
     0x01BD [0x1B] RETURN
     0x01BE [0x45] LOAD_SCHEDULED_TASK: Load scheduler "whi0" with entities [LocalPlayer, LocalPlayer], work=[201*, 0*]
     0x01CF [0x55] WAIT_LOAD_SCHEDULER: Wait for scheduler "whi0" with entities [LocalPlayer, LocalPlayer], work=201*
     0x01DE [0x1B] RETURN
     0x01DF [0x45] LOAD_SCHEDULED_TASK: Load scheduler "who0" with entities [LocalPlayer, LocalPlayer], work=[201*, 0*]
     0x01F0 [0x55] WAIT_LOAD_SCHEDULER: Wait for scheduler "who0" with entities [LocalPlayer, LocalPlayer], work=201*
     0x01FF [0x1B] RETURN
     0x0200 [0x45] LOAD_SCHEDULED_TASK: Load scheduler "efon" with entities [LocalPlayer, LocalPlayer], work=[215*, 0*]
     0x0211 [0x55] WAIT_LOAD_SCHEDULER: Wait for scheduler "efon" with entities [LocalPlayer, LocalPlayer], work=215*
     0x0220 [0x1B] RETURN
     0x0221 [0x45] LOAD_SCHEDULED_TASK: Load scheduler "fdis" with entities [LocalPlayer, LocalPlayer], work=[200*, 0*]
     0x0232 [0x1B] RETURN
     0x0233 [0x45] LOAD_SCHEDULED_TASK: Load scheduler "fdos" with entities [LocalPlayer, LocalPlayer], work=[200*, 0*]
     0x0244 [0x55] WAIT_LOAD_SCHEDULER: Wait for scheduler "fdos" with entities [LocalPlayer, LocalPlayer], work=200*
     0x0253 [0x1B] RETURN
     0x0254 [0x45] LOAD_SCHEDULED_TASK: Load scheduler "fdif" with entities [LocalPlayer, LocalPlayer], work=[200*, 0*]
     0x0265 [0x1B] RETURN
     0x0266 [0x45] LOAD_SCHEDULED_TASK: Load scheduler "fdof" with entities [LocalPlayer, LocalPlayer], work=[200*, 0*]
     0x0277 [0x55] WAIT_LOAD_SCHEDULER: Wait for scheduler "fdof" with entities [LocalPlayer, LocalPlayer], work=200*
     0x0286 [0x1B] RETURN
     0x0287 [0x45] LOAD_SCHEDULED_TASK: Load scheduler "fdip" with entities [LocalPlayer, LocalPlayer], work=[200*, 0*]
     0x0298 [0x1B] RETURN
     0x0299 [0x45] LOAD_SCHEDULED_TASK: Load scheduler "fdop" with entities [LocalPlayer, LocalPlayer], work=[200*, 0*]
     0x02AA [0x55] WAIT_LOAD_SCHEDULER: Wait for scheduler "fdop" with entities [LocalPlayer, LocalPlayer], work=200*
     0x02B9 [0x1B] RETURN
```
