# 17846820

## Common Data

| Field            | Value                          |
|------------------|--------------------------------|
| Zone             | Ceizak Battlegrounds (ID: 261) |
| Block Size       | 268 bytes                      |
| Total Events     | 6                              |
| References Count | 18                             |

## List of Events

| Event ID                 | Entrypoint   |   Size |   Instructions |
|--------------------------|--------------|--------|----------------|
| [65535](#event-65535)    | 0x0000       |      1 |              1 |
| [31](#event-31)          | 0x0001       |      1 |              1 |
| [65535.1](#event-655351) | 0x0002       |     21 |              2 |
| [65535.2](#event-655352) | 0x0017       |     29 |              3 |
| [65535.3](#event-655353) | 0x0034       |     61 |              6 |
| [65535.4](#event-655354) | 0x0071       |     41 |              5 |

## DAT References (imed_data)

|   Index | Hex Value   |   Dec Value |
|---------|-------------|-------------|
|       0 | 0x0007      |           7 |
|       1 | 0x000D      |          13 |
|       2 | 0x0072      |         114 |
|       3 | 0x0086      |         134 |
|       4 | 0x001A      |          26 |
|       5 | 0x0006      |           6 |
|       6 | 0x0000      |           0 |
|       7 | 0x00C5      |         197 |
|       8 | 0x0001      |           1 |
|       9 | 0x0009      |           9 |
|      10 | 0x008F      |         143 |
|      11 | 0x01BE      |         446 |
|      12 | 0x3DC13     |      252947 |
|      13 | 0x40407     |      263175 |
|      14 | 0x0196      |         406 |
|      15 | 0x0EC7      |        3783 |
|      16 | 0x004B      |          75 |
|      17 | 0x0BC5      |        3013 |

## Events

### Event 65535

#### Metadata

| Field        | Value   |
|--------------|---------|
| Entrypoint   | 0x0000  |
| Data Size    | 1 bytes |
| Instructions | 1       |

```
      00 01 02 03 04 05 06 07  08 09 0A 0B 0C 0D 0E 0F
      -- -- -- -- -- -- -- --  -- -- -- -- -- -- -- --
0000: 00                                                .               
```

#### Opcodes

```
  0: 0x0000 [0x00] END_REQSTACK()
```

### Event 31

#### Metadata

| Field        | Value   |
|--------------|---------|
| Entrypoint   | 0x0001  |
| Data Size    | 1 bytes |
| Instructions | 1       |

```
      00 01 02 03 04 05 06 07  08 09 0A 0B 0C 0D 0E 0F
      -- -- -- -- -- -- -- --  -- -- -- -- -- -- -- --
0000:    00                                              .              
```

#### Opcodes

```
  0: 0x0001 [0x00] END_REQSTACK()
```

### Event 65535.1

#### Metadata

| Field        | Value    |
|--------------|----------|
| Entrypoint   | 0x0002   |
| Data Size    | 21 bytes |
| Instructions | 2        |

```
      00 01 02 03 04 05 06 07  08 09 0A 0B 0C 0D 0E 0F
      -- -- -- -- -- -- -- --  -- -- -- -- -- -- -- --
0000:       B6 0B 00 80 01 80  02 80 03 80 04 80 05 80    ..............
0010: 05 80 06 80 06 80 00                              .......         
```

#### Opcodes

```
  0: 0x0002 [0xB6] ENTITY_APPEARANCE_HANDLER(case=Full entity look, race=7*, hair=13*, head=114*, body=134*, hands=26*, legs=6*, feet=6*, main=0*, sub=0*)
  1: 0x0016 [0x00] END_REQSTACK()
```

### Event 65535.2

#### Metadata

| Field        | Value    |
|--------------|----------|
| Entrypoint   | 0x0017   |
| Data Size    | 29 bytes |
| Instructions | 3        |

```
      00 01 02 03 04 05 06 07  08 09 0A 0B 0C 0D 0E 0F
      -- -- -- -- -- -- -- --  -- -- -- -- -- -- -- --
0010:                      66  07 80 F8 FF FF 7F F8 FF         f........
0020: FF 7F 67 6F 68 31 53 F8  FF FF 7F F8 FF FF 7F 67  ..goh1S........g
0030: 6F 68 31 00                                       oh1.            
```

#### Opcodes

```
  0: 0x0017 [0x66] LOAD_EXT_SCHEDULER_MAIN: Load scheduler "goh1" with entities [EventEntity, EventEntity], work=197*
  1: 0x0026 [0x53] WAIT_SCHEDULER_TASK: Wait for scheduler "goh1" with entities [EventEntity, EventEntity]
  2: 0x0033 [0x00] END_REQSTACK()
```

### Event 65535.3

#### Metadata

| Field        | Value    |
|--------------|----------|
| Entrypoint   | 0x0034   |
| Data Size    | 61 bytes |
| Instructions | 6        |

```
      00 01 02 03 04 05 06 07  08 09 0A 0B 0C 0D 0E 0F
      -- -- -- -- -- -- -- --  -- -- -- -- -- -- -- --
0030:             B6 0B 08 80  09 80 06 80 0A 80 0A 80      ............
0040: 0A 80 0A 80 0B 80 06 80  B4 00 00 00 4A 6F 72 69  ............Jori
0050: 75 73 00 00 00 00 00 00  00 00 00 00 B5 00 00 00  us..............
0060: BA 24 52 10 01 0C 80 0D  80 0E 80 0F 80 1C 10 80  .$R.............
0070: 00                                                .               
```

#### Opcodes

```
  0: 0x0034 [0xB6] ENTITY_APPEARANCE_HANDLER(case=Full entity look, race=1*, hair=9*, head=0*, body=143*, hands=143*, legs=143*, feet=143*, main=446*, sub=0*)
  1: 0x0048 [0xB4] UI_WINDOW_STRING_HANDLER(case=0x00 - Copy string from opcode, work_offset=ExtData[1]->WorkLocal[0], string="Jorius")
  2: 0x005C [0xB5] SET_EVENT_ENTITY_NAME: Change EventEntity name to ExtData[1]->WorkLocal[0]
  3: 0x0060 [0xBA] SET_ENTITY_POSITION(entity_id=Unnamed NPC (ID: 17846820/0x01105224), pos_x=252.947*, pos_z=263.175*, pos_y=0.406*, direction=332.5°*)
  4: 0x006D [0x1C] WAIT(75* ticks)
  5: 0x0070 [0x00] END_REQSTACK()
```

### Event 65535.4

#### Metadata

| Field        | Value    |
|--------------|----------|
| Entrypoint   | 0x0071   |
| Data Size    | 41 bytes |
| Instructions | 5        |

```
      00 01 02 03 04 05 06 07  08 09 0A 0B 0C 0D 0E 0F
      -- -- -- -- -- -- -- --  -- -- -- -- -- -- -- --
0070:    81 00 F8 FF FF 7F 7C  00 F8 FF FF 7F 5B 11 80   ......|.....[..
0080: F8 FF FF 7F F8 FF FF 7F  7A 65 74 30 53 F8 FF FF  ........zet0S...
0090: 7F F8 FF FF 7F 7A 65 74  30 00                    .....zet0.      
```

#### Opcodes

```
  0: 0x0071 [0x81] SET_ENTITY_BLINKING(blink_flag=0x00, entity=EventEntity)
  1: 0x0077 [0x7C] EventEntity->Render.Flags2 |= 0x00
  2: 0x007D [0x5B] LOAD_EXT_SCHEDULER: Load scheduler "zet0" with entities [EventEntity, EventEntity], work=3013*
  3: 0x008C [0x53] WAIT_SCHEDULER_TASK: Wait for scheduler "zet0" with entities [EventEntity, EventEntity]
  4: 0x0099 [0x00] END_REQSTACK()
```
