# 17846772

## Common Data

| Field            | Value                          |
|------------------|--------------------------------|
| Zone             | Ceizak Battlegrounds (ID: 261) |
| Block Size       | 1112 bytes                     |
| Total Events     | 47                             |
| References Count | 28                             |

## List of Events

| Event ID                   | Entrypoint   |   Size |   Instructions |
|----------------------------|--------------|--------|----------------|
| [65535](#event-65535)      | 0x0000       |      1 |              1 |
| [65535.1](#event-655351)   | 0x0001       |      4 |              2 |
| [3](#event-3)              | 0x0005       |      1 |              1 |
| [65535.2](#event-655352)   | 0x0006       |     21 |              6 |
| [65535.3](#event-655353)   | 0x001B       |     36 |              5 |
| [20](#event-20)            | 0x003F       |      1 |              1 |
| [21](#event-21)            | 0x0040       |      1 |              1 |
| [27](#event-27)            | 0x0041       |      1 |              1 |
| [65535.4](#event-655354)   | 0x0042       |     10 |              2 |
| [65535.5](#event-655355)   | 0x004C       |     10 |              2 |
| [65535.6](#event-655356)   | 0x0056       |     10 |              2 |
| [65535.7](#event-655357)   | 0x0060       |     10 |              2 |
| [65535.8](#event-655358)   | 0x006A       |     10 |              2 |
| [65535.9](#event-655359)   | 0x0074       |     10 |              2 |
| [65535.10](#event-6553510) | 0x007E       |     10 |              2 |
| [65535.11](#event-6553511) | 0x0088       |     10 |              2 |
| [65535.12](#event-6553512) | 0x0092       |     10 |              2 |
| [65535.13](#event-6553513) | 0x009C       |     10 |              2 |
| [65535.14](#event-6553514) | 0x00A6       |     10 |              2 |
| [65535.15](#event-6553515) | 0x00B0       |     10 |              2 |
| [65535.16](#event-6553516) | 0x00BA       |     10 |              2 |
| [65535.17](#event-6553517) | 0x00C4       |     10 |              2 |
| [65535.18](#event-6553518) | 0x00CE       |     10 |              2 |
| [65535.19](#event-6553519) | 0x00D8       |     10 |              2 |
| [65535.20](#event-6553520) | 0x00E2       |     10 |              2 |
| [65535.21](#event-6553521) | 0x00EC       |     10 |              2 |
| [65535.22](#event-6553522) | 0x00F6       |     10 |              2 |
| [65535.23](#event-6553523) | 0x0100       |     10 |              2 |
| [65535.24](#event-6553524) | 0x010A       |     27 |              3 |
| [65535.25](#event-6553525) | 0x0125       |     41 |              5 |
| [65535.26](#event-6553526) | 0x014E       |     21 |              3 |
| [65535.27](#event-6553527) | 0x0163       |     21 |              3 |
| [65535.28](#event-6553528) | 0x0178       |     34 |              4 |
| [65535.29](#event-6553529) | 0x019A       |     27 |              3 |
| [30](#event-30)            | 0x01B5       |      1 |              1 |
| [65535.30](#event-6553530) | 0x01B6       |     33 |              3 |
| [65535.31](#event-6553531) | 0x01D7       |     33 |              3 |
| [65535.32](#event-6553532) | 0x01F8       |     33 |              3 |
| [65535.33](#event-6553533) | 0x0219       |     33 |              3 |
| [65535.34](#event-6553534) | 0x023A       |     61 |              5 |
| [65535.35](#event-6553535) | 0x0277       |     33 |              3 |
| [65535.36](#event-6553536) | 0x0298       |     33 |              3 |
| [65535.37](#event-6553537) | 0x02B9       |     33 |              3 |
| [34](#event-34)            | 0x02DA       |      1 |              1 |
| [35](#event-35)            | 0x02DB       |      1 |              1 |
| [65535.38](#event-6553538) | 0x02DC       |     31 |              3 |
| [65535.39](#event-6553539) | 0x02FB       |     33 |              3 |

## DAT References (imed_data)

|   Index | Hex Value   |   Dec Value |
|---------|-------------|-------------|
|       0 | 0x0001      |           1 |
|       1 | 0x23A8F     |      146063 |
|       2 | 0xFFFEF9DA  |  4294900186 |
|       3 | 0x021B      |         539 |
|       4 | 0x0AFF      |        2815 |
|       5 | 0x0000      |           0 |
|       6 | 0x007F      |         127 |
|       7 | 0x31F32     |      204594 |
|       8 | 0x129EE     |       76270 |
|       9 | 0x0033      |          51 |
|      10 | 0x0400      |        1024 |
|      11 | 0x18B96     |      101270 |
|      12 | 0x0D67      |        3431 |
|      13 | 0x0DA4      |        3492 |
|      14 | 0x0EF0      |        3824 |
|      15 | 0x0D57      |        3415 |
|      16 | 0x0EF1      |        3825 |
|      17 | 0x0E17      |        3607 |
|      18 | 0x0EAE      |        3758 |
|      19 | 0x0F04      |        3844 |
|      20 | 0x0D6D      |        3437 |
|      21 | 0x0EAD      |        3757 |
|      22 | 0x0EAB      |        3755 |
|      23 | 0x0EF4      |        3828 |
|      24 | 0x0EAC      |        3756 |
|      25 | 0x0DFF      |        3583 |
|      26 | 0x0F26      |        3878 |
|      27 | 0x0E00      |        3584 |

## Events

### Event 65535

#### Metadata

| Field        | Value   |
|--------------|---------|
| Entrypoint   | 0x0000  |
| Data Size    | 1 bytes |
| Instructions | 1       |

```
      00 01 02 03 04 05 06 07  08 09 0A 0B 0C 0D 0E 0F
      -- -- -- -- -- -- -- --  -- -- -- -- -- -- -- --
0000: 00                                                .               
```

#### Opcodes

```
  0: 0x0000 [0x00] END_REQSTACK()
```

### Event 65535.1

#### Metadata

| Field        | Value   |
|--------------|---------|
| Entrypoint   | 0x0001  |
| Data Size    | 4 bytes |
| Instructions | 2       |

```
      00 01 02 03 04 05 06 07  08 09 0A 0B 0C 0D 0E 0F
      -- -- -- -- -- -- -- --  -- -- -- -- -- -- -- --
0000:    1C 02 10 00                                     ....           
```

#### Opcodes

```
  0: 0x0001 [0x1C] WAIT(Work_Zone[2] ticks)
  1: 0x0004 [0x00] END_REQSTACK()
```

### Event 3

#### Metadata

| Field        | Value   |
|--------------|---------|
| Entrypoint   | 0x0005  |
| Data Size    | 1 bytes |
| Instructions | 1       |

```
      00 01 02 03 04 05 06 07  08 09 0A 0B 0C 0D 0E 0F
      -- -- -- -- -- -- -- --  -- -- -- -- -- -- -- --
0000:                00                                      .          
```

#### Opcodes

```
  0: 0x0005 [0x00] END_REQSTACK()
```

### Event 65535.2

#### Metadata

| Field        | Value    |
|--------------|----------|
| Entrypoint   | 0x0006   |
| Data Size    | 21 bytes |
| Instructions | 6        |

```
      00 01 02 03 04 05 06 07  08 09 0A 0B 0C 0D 0E 0F
      -- -- -- -- -- -- -- --  -- -- -- -- -- -- -- --
0000:                   06 00  00 02 00 00 02 10 03 1A        ..........
0010: 00 1C 00 80 57 00 00 01  09 00 00                 ....W......     
```

#### Opcodes

```
  0: 0x0006 [0x06] ExtData[1]->WorkLocal[0] = 0
  1: 0x0009 [0x02] IF !(ExtData[1]->WorkLocal[0] >= Work_Zone[2]) GOTO 0x001A
  2: 0x0011 [0x1C] WAIT(1* ticks)
  3: 0x0014 [0x57] CREATE_FRAME_DELAY(delay=ExtData[1]->WorkLocal[0])
  4: 0x0017 [0x01] GOTO 0x0009
  5: 0x001A [0x00] END_REQSTACK()
```

### Event 65535.3

#### Metadata

| Field        | Value    |
|--------------|----------|
| Entrypoint   | 0x001B   |
| Data Size    | 36 bytes |
| Instructions | 5        |

```
      00 01 02 03 04 05 06 07  08 09 0A 0B 0C 0D 0E 0F
      -- -- -- -- -- -- -- --  -- -- -- -- -- -- -- --
0010:                                   6B 69 64 6C 30             kidl0
0020: F0 FF FF 7F 92 01 F0 FF  FF 7F 59 05 F0 FF FF 7F  ..........Y.....
0030: 00 BA F0 FF FF 7F 01 80  02 80 03 80 04 80 00     ............... 
```

#### Opcodes

```
  0: 0x001B [0x6B] STOP_AND_IDLE: LocalPlayer stops current action and resets to idle (animation="idl0")
  1: 0x0024 [0x92] LocalPlayer->Render.Flags3 ^= 0x01
  2: 0x002A [0x59] UPDATE_ENTITY_DATA: LocalPlayer->Render.Flags0 &= ~0x200000
  3: 0x0031 [0xBA] SET_ENTITY_POSITION(entity_id=LocalPlayer, pos_x=146.063*, pos_z=-67.110*, pos_y=0.539*, direction=247.4°*)
  4: 0x003E [0x00] END_REQSTACK()
```

### Event 20

#### Metadata

| Field        | Value   |
|--------------|---------|
| Entrypoint   | 0x003F  |
| Data Size    | 1 bytes |
| Instructions | 1       |

```
      00 01 02 03 04 05 06 07  08 09 0A 0B 0C 0D 0E 0F
      -- -- -- -- -- -- -- --  -- -- -- -- -- -- -- --
0030:                                               00                 .
```

#### Opcodes

```
  0: 0x003F [0x00] END_REQSTACK()
```

### Event 21

#### Metadata

| Field        | Value   |
|--------------|---------|
| Entrypoint   | 0x0040  |
| Data Size    | 1 bytes |
| Instructions | 1       |

```
      00 01 02 03 04 05 06 07  08 09 0A 0B 0C 0D 0E 0F
      -- -- -- -- -- -- -- --  -- -- -- -- -- -- -- --
0040: 00                                                .               
```

#### Opcodes

```
  0: 0x0040 [0x00] END_REQSTACK()
```

### Event 27

#### Metadata

| Field        | Value   |
|--------------|---------|
| Entrypoint   | 0x0041  |
| Data Size    | 1 bytes |
| Instructions | 1       |

```
      00 01 02 03 04 05 06 07  08 09 0A 0B 0C 0D 0E 0F
      -- -- -- -- -- -- -- --  -- -- -- -- -- -- -- --
0040:    00                                              .              
```

#### Opcodes

```
  0: 0x0041 [0x00] END_REQSTACK()
```

### Event 65535.4

#### Metadata

| Field        | Value    |
|--------------|----------|
| Entrypoint   | 0x0042   |
| Data Size    | 10 bytes |
| Instructions | 2        |

```
      00 01 02 03 04 05 06 07  08 09 0A 0B 0C 0D 0E 0F
      -- -- -- -- -- -- -- --  -- -- -- -- -- -- -- --
0040:       6C F9 51 10 01 05  80 00 80 00                l.Q.......    
```

#### Opcodes

```
  0: 0x0042 [0x6C] FADE_ENTITY_COLOR(entity_id=Arciela (ID: 17846777/0x011051F9), end_alpha=0*, fade_time=1*)
  1: 0x004B [0x00] END_REQSTACK()
```

### Event 65535.5

#### Metadata

| Field        | Value    |
|--------------|----------|
| Entrypoint   | 0x004C   |
| Data Size    | 10 bytes |
| Instructions | 2        |

```
      00 01 02 03 04 05 06 07  08 09 0A 0B 0C 0D 0E 0F
      -- -- -- -- -- -- -- --  -- -- -- -- -- -- -- --
0040:                                      6C F9 51 10              l.Q.
0050: 01 06 80 00 80 00                                 ......          
```

#### Opcodes

```
  0: 0x004C [0x6C] FADE_ENTITY_COLOR(entity_id=Arciela (ID: 17846777/0x011051F9), end_alpha=127*, fade_time=1*)
  1: 0x0055 [0x00] END_REQSTACK()
```

### Event 65535.6

#### Metadata

| Field        | Value    |
|--------------|----------|
| Entrypoint   | 0x0056   |
| Data Size    | 10 bytes |
| Instructions | 2        |

```
      00 01 02 03 04 05 06 07  08 09 0A 0B 0C 0D 0E 0F
      -- -- -- -- -- -- -- --  -- -- -- -- -- -- -- --
0050:                   6C 05  52 10 01 05 80 00 80 00        l.R.......
```

#### Opcodes

```
  0: 0x0056 [0x6C] FADE_ENTITY_COLOR(entity_id=Ingrid (ID: 17846789/0x01105205), end_alpha=0*, fade_time=1*)
  1: 0x005F [0x00] END_REQSTACK()
```

### Event 65535.7

#### Metadata

| Field        | Value    |
|--------------|----------|
| Entrypoint   | 0x0060   |
| Data Size    | 10 bytes |
| Instructions | 2        |

```
      00 01 02 03 04 05 06 07  08 09 0A 0B 0C 0D 0E 0F
      -- -- -- -- -- -- -- --  -- -- -- -- -- -- -- --
0060: 6C 05 52 10 01 06 80 00  80 00                    l.R.......      
```

#### Opcodes

```
  0: 0x0060 [0x6C] FADE_ENTITY_COLOR(entity_id=Ingrid (ID: 17846789/0x01105205), end_alpha=127*, fade_time=1*)
  1: 0x0069 [0x00] END_REQSTACK()
```

### Event 65535.8

#### Metadata

| Field        | Value    |
|--------------|----------|
| Entrypoint   | 0x006A   |
| Data Size    | 10 bytes |
| Instructions | 2        |

```
      00 01 02 03 04 05 06 07  08 09 0A 0B 0C 0D 0E 0F
      -- -- -- -- -- -- -- --  -- -- -- -- -- -- -- --
0060:                                6C FA 51 10 01 05            l.Q...
0070: 80 00 80 00                                       ....            
```

#### Opcodes

```
  0: 0x006A [0x6C] FADE_ENTITY_COLOR(entity_id=Unnamed NPC (ID: 17846778/0x011051FA), end_alpha=0*, fade_time=1*)
  1: 0x0073 [0x00] END_REQSTACK()
```

### Event 65535.9

#### Metadata

| Field        | Value    |
|--------------|----------|
| Entrypoint   | 0x0074   |
| Data Size    | 10 bytes |
| Instructions | 2        |

```
      00 01 02 03 04 05 06 07  08 09 0A 0B 0C 0D 0E 0F
      -- -- -- -- -- -- -- --  -- -- -- -- -- -- -- --
0070:             6C FA 51 10  01 06 80 00 80 00            l.Q.......  
```

#### Opcodes

```
  0: 0x0074 [0x6C] FADE_ENTITY_COLOR(entity_id=Unnamed NPC (ID: 17846778/0x011051FA), end_alpha=127*, fade_time=1*)
  1: 0x007D [0x00] END_REQSTACK()
```

### Event 65535.10

#### Metadata

| Field        | Value    |
|--------------|----------|
| Entrypoint   | 0x007E   |
| Data Size    | 10 bytes |
| Instructions | 2        |

```
      00 01 02 03 04 05 06 07  08 09 0A 0B 0C 0D 0E 0F
      -- -- -- -- -- -- -- --  -- -- -- -- -- -- -- --
0070:                                            6C FB                l.
0080: 51 10 01 05 80 00 80 00                           Q.......        
```

#### Opcodes

```
  0: 0x007E [0x6C] FADE_ENTITY_COLOR(entity_id=Unnamed NPC (ID: 17846779/0x011051FB), end_alpha=0*, fade_time=1*)
  1: 0x0087 [0x00] END_REQSTACK()
```

### Event 65535.11

#### Metadata

| Field        | Value    |
|--------------|----------|
| Entrypoint   | 0x0088   |
| Data Size    | 10 bytes |
| Instructions | 2        |

```
      00 01 02 03 04 05 06 07  08 09 0A 0B 0C 0D 0E 0F
      -- -- -- -- -- -- -- --  -- -- -- -- -- -- -- --
0080:                          6C FB 51 10 01 06 80 00          l.Q.....
0090: 80 00                                             ..              
```

#### Opcodes

```
  0: 0x0088 [0x6C] FADE_ENTITY_COLOR(entity_id=Unnamed NPC (ID: 17846779/0x011051FB), end_alpha=127*, fade_time=1*)
  1: 0x0091 [0x00] END_REQSTACK()
```

### Event 65535.12

#### Metadata

| Field        | Value    |
|--------------|----------|
| Entrypoint   | 0x0092   |
| Data Size    | 10 bytes |
| Instructions | 2        |

```
      00 01 02 03 04 05 06 07  08 09 0A 0B 0C 0D 0E 0F
      -- -- -- -- -- -- -- --  -- -- -- -- -- -- -- --
0090:       6C FC 51 10 01 05  80 00 80 00                l.Q.......    
```

#### Opcodes

```
  0: 0x0092 [0x6C] FADE_ENTITY_COLOR(entity_id=Unnamed NPC (ID: 17846780/0x011051FC), end_alpha=0*, fade_time=1*)
  1: 0x009B [0x00] END_REQSTACK()
```

### Event 65535.13

#### Metadata

| Field        | Value    |
|--------------|----------|
| Entrypoint   | 0x009C   |
| Data Size    | 10 bytes |
| Instructions | 2        |

```
      00 01 02 03 04 05 06 07  08 09 0A 0B 0C 0D 0E 0F
      -- -- -- -- -- -- -- --  -- -- -- -- -- -- -- --
0090:                                      6C FC 51 10              l.Q.
00A0: 01 06 80 00 80 00                                 ......          
```

#### Opcodes

```
  0: 0x009C [0x6C] FADE_ENTITY_COLOR(entity_id=Unnamed NPC (ID: 17846780/0x011051FC), end_alpha=127*, fade_time=1*)
  1: 0x00A5 [0x00] END_REQSTACK()
```

### Event 65535.14

#### Metadata

| Field        | Value    |
|--------------|----------|
| Entrypoint   | 0x00A6   |
| Data Size    | 10 bytes |
| Instructions | 2        |

```
      00 01 02 03 04 05 06 07  08 09 0A 0B 0C 0D 0E 0F
      -- -- -- -- -- -- -- --  -- -- -- -- -- -- -- --
00A0:                   6C FD  51 10 01 05 80 00 80 00        l.Q.......
```

#### Opcodes

```
  0: 0x00A6 [0x6C] FADE_ENTITY_COLOR(entity_id=Unnamed NPC (ID: 17846781/0x011051FD), end_alpha=0*, fade_time=1*)
  1: 0x00AF [0x00] END_REQSTACK()
```

### Event 65535.15

#### Metadata

| Field        | Value    |
|--------------|----------|
| Entrypoint   | 0x00B0   |
| Data Size    | 10 bytes |
| Instructions | 2        |

```
      00 01 02 03 04 05 06 07  08 09 0A 0B 0C 0D 0E 0F
      -- -- -- -- -- -- -- --  -- -- -- -- -- -- -- --
00B0: 6C FD 51 10 01 06 80 00  80 00                    l.Q.......      
```

#### Opcodes

```
  0: 0x00B0 [0x6C] FADE_ENTITY_COLOR(entity_id=Unnamed NPC (ID: 17846781/0x011051FD), end_alpha=127*, fade_time=1*)
  1: 0x00B9 [0x00] END_REQSTACK()
```

### Event 65535.16

#### Metadata

| Field        | Value    |
|--------------|----------|
| Entrypoint   | 0x00BA   |
| Data Size    | 10 bytes |
| Instructions | 2        |

```
      00 01 02 03 04 05 06 07  08 09 0A 0B 0C 0D 0E 0F
      -- -- -- -- -- -- -- --  -- -- -- -- -- -- -- --
00B0:                                6C FE 51 10 01 05            l.Q...
00C0: 80 00 80 00                                       ....            
```

#### Opcodes

```
  0: 0x00BA [0x6C] FADE_ENTITY_COLOR(entity_id=Unnamed NPC (ID: 17846782/0x011051FE), end_alpha=0*, fade_time=1*)
  1: 0x00C3 [0x00] END_REQSTACK()
```

### Event 65535.17

#### Metadata

| Field        | Value    |
|--------------|----------|
| Entrypoint   | 0x00C4   |
| Data Size    | 10 bytes |
| Instructions | 2        |

```
      00 01 02 03 04 05 06 07  08 09 0A 0B 0C 0D 0E 0F
      -- -- -- -- -- -- -- --  -- -- -- -- -- -- -- --
00C0:             6C FE 51 10  01 06 80 00 80 00            l.Q.......  
```

#### Opcodes

```
  0: 0x00C4 [0x6C] FADE_ENTITY_COLOR(entity_id=Unnamed NPC (ID: 17846782/0x011051FE), end_alpha=127*, fade_time=1*)
  1: 0x00CD [0x00] END_REQSTACK()
```

### Event 65535.18

#### Metadata

| Field        | Value    |
|--------------|----------|
| Entrypoint   | 0x00CE   |
| Data Size    | 10 bytes |
| Instructions | 2        |

```
      00 01 02 03 04 05 06 07  08 09 0A 0B 0C 0D 0E 0F
      -- -- -- -- -- -- -- --  -- -- -- -- -- -- -- --
00C0:                                            6C FF                l.
00D0: 51 10 01 05 80 00 80 00                           Q.......        
```

#### Opcodes

```
  0: 0x00CE [0x6C] FADE_ENTITY_COLOR(entity_id=Unnamed NPC (ID: 17846783/0x011051FF), end_alpha=0*, fade_time=1*)
  1: 0x00D7 [0x00] END_REQSTACK()
```

### Event 65535.19

#### Metadata

| Field        | Value    |
|--------------|----------|
| Entrypoint   | 0x00D8   |
| Data Size    | 10 bytes |
| Instructions | 2        |

```
      00 01 02 03 04 05 06 07  08 09 0A 0B 0C 0D 0E 0F
      -- -- -- -- -- -- -- --  -- -- -- -- -- -- -- --
00D0:                          6C FF 51 10 01 06 80 00          l.Q.....
00E0: 80 00                                             ..              
```

#### Opcodes

```
  0: 0x00D8 [0x6C] FADE_ENTITY_COLOR(entity_id=Unnamed NPC (ID: 17846783/0x011051FF), end_alpha=127*, fade_time=1*)
  1: 0x00E1 [0x00] END_REQSTACK()
```

### Event 65535.20

#### Metadata

| Field        | Value    |
|--------------|----------|
| Entrypoint   | 0x00E2   |
| Data Size    | 10 bytes |
| Instructions | 2        |

```
      00 01 02 03 04 05 06 07  08 09 0A 0B 0C 0D 0E 0F
      -- -- -- -- -- -- -- --  -- -- -- -- -- -- -- --
00E0:       6C 06 52 10 01 05  80 00 80 00                l.R.......    
```

#### Opcodes

```
  0: 0x00E2 [0x6C] FADE_ENTITY_COLOR(entity_id=HEISHI_A (ID: 17846790/0x01105206), end_alpha=0*, fade_time=1*)
  1: 0x00EB [0x00] END_REQSTACK()
```

### Event 65535.21

#### Metadata

| Field        | Value    |
|--------------|----------|
| Entrypoint   | 0x00EC   |
| Data Size    | 10 bytes |
| Instructions | 2        |

```
      00 01 02 03 04 05 06 07  08 09 0A 0B 0C 0D 0E 0F
      -- -- -- -- -- -- -- --  -- -- -- -- -- -- -- --
00E0:                                      6C 06 52 10              l.R.
00F0: 01 06 80 00 80 00                                 ......          
```

#### Opcodes

```
  0: 0x00EC [0x6C] FADE_ENTITY_COLOR(entity_id=HEISHI_A (ID: 17846790/0x01105206), end_alpha=127*, fade_time=1*)
  1: 0x00F5 [0x00] END_REQSTACK()
```

### Event 65535.22

#### Metadata

| Field        | Value    |
|--------------|----------|
| Entrypoint   | 0x00F6   |
| Data Size    | 10 bytes |
| Instructions | 2        |

```
      00 01 02 03 04 05 06 07  08 09 0A 0B 0C 0D 0E 0F
      -- -- -- -- -- -- -- --  -- -- -- -- -- -- -- --
00F0:                   6C 07  52 10 01 05 80 00 80 00        l.R.......
```

#### Opcodes

```
  0: 0x00F6 [0x6C] FADE_ENTITY_COLOR(entity_id=HEISHI_B (ID: 17846791/0x01105207), end_alpha=0*, fade_time=1*)
  1: 0x00FF [0x00] END_REQSTACK()
```

### Event 65535.23

#### Metadata

| Field        | Value    |
|--------------|----------|
| Entrypoint   | 0x0100   |
| Data Size    | 10 bytes |
| Instructions | 2        |

```
      00 01 02 03 04 05 06 07  08 09 0A 0B 0C 0D 0E 0F
      -- -- -- -- -- -- -- --  -- -- -- -- -- -- -- --
0100: 6C 07 52 10 01 06 80 00  80 00                    l.R.......      
```

#### Opcodes

```
  0: 0x0100 [0x6C] FADE_ENTITY_COLOR(entity_id=HEISHI_B (ID: 17846791/0x01105207), end_alpha=127*, fade_time=1*)
  1: 0x0109 [0x00] END_REQSTACK()
```

### Event 65535.24

#### Metadata

| Field        | Value    |
|--------------|----------|
| Entrypoint   | 0x010A   |
| Data Size    | 27 bytes |
| Instructions | 3        |

```
      00 01 02 03 04 05 06 07  08 09 0A 0B 0C 0D 0E 0F
      -- -- -- -- -- -- -- --  -- -- -- -- -- -- -- --
0100:                                2C F9 51 10 01 F9            ,.Q...
0110: 51 10 01 77 34 6F 6E 2C  F9 51 10 01 F9 51 10 01  Q..w4on,.Q...Q..
0120: 77 33 6F 66 00                                    w3of.           
```

#### Opcodes

```
  0: 0x010A [0x2C] CREATE_SCHEDULER_TASK: Create scheduler "w4on" with entities [Arciela (ID: 17846777/0x011051F9), Arciela (ID: 17846777/0x011051F9)]
  1: 0x0117 [0x2C] CREATE_SCHEDULER_TASK: Create scheduler "w3of" with entities [Arciela (ID: 17846777/0x011051F9), Arciela (ID: 17846777/0x011051F9)]
  2: 0x0124 [0x00] END_REQSTACK()
```

### Event 65535.25

#### Metadata

| Field        | Value    |
|--------------|----------|
| Entrypoint   | 0x0125   |
| Data Size    | 41 bytes |
| Instructions | 5        |

```
      00 01 02 03 04 05 06 07  08 09 0A 0B 0C 0D 0E 0F
      -- -- -- -- -- -- -- --  -- -- -- -- -- -- -- --
0120:                59 05 F9  51 10 01 01 59 05 FA 51       Y..Q...Y..Q
0130: 10 01 01 BA F9 51 10 01  07 80 08 80 09 80 0A 80  .....Q..........
0140: BA FA 51 10 01 07 80 08  80 09 80 0A 80 00        ..Q...........  
```

#### Opcodes

```
  0: 0x0125 [0x59] UPDATE_ENTITY_DATA: Arciela (ID: 17846777/0x011051F9)->Render.Flags0 |= 0x200000
  1: 0x012C [0x59] UPDATE_ENTITY_DATA: Unnamed NPC (ID: 17846778/0x011051FA)->Render.Flags0 |= 0x200000
  2: 0x0133 [0xBA] SET_ENTITY_POSITION(entity_id=Arciela (ID: 17846777/0x011051F9), pos_x=204.594*, pos_z=76.270*, pos_y=0.051*, direction=90.0°*)
  3: 0x0140 [0xBA] SET_ENTITY_POSITION(entity_id=Unnamed NPC (ID: 17846778/0x011051FA), pos_x=204.594*, pos_z=76.270*, pos_y=0.051*, direction=90.0°*)
  4: 0x014D [0x00] END_REQSTACK()
```

### Event 65535.26

#### Metadata

| Field        | Value    |
|--------------|----------|
| Entrypoint   | 0x014E   |
| Data Size    | 21 bytes |
| Instructions | 3        |

```
      00 01 02 03 04 05 06 07  08 09 0A 0B 0C 0D 0E 0F
      -- -- -- -- -- -- -- --  -- -- -- -- -- -- -- --
0140:                                            59 05                Y.
0150: 06 52 10 01 01 BA 06 52  10 01 07 80 08 80 09 80  .R.....R........
0160: 0A 80 00                                          ...             
```

#### Opcodes

```
  0: 0x014E [0x59] UPDATE_ENTITY_DATA: HEISHI_A (ID: 17846790/0x01105206)->Render.Flags0 |= 0x200000
  1: 0x0155 [0xBA] SET_ENTITY_POSITION(entity_id=HEISHI_A (ID: 17846790/0x01105206), pos_x=204.594*, pos_z=76.270*, pos_y=0.051*, direction=90.0°*)
  2: 0x0162 [0x00] END_REQSTACK()
```

### Event 65535.27

#### Metadata

| Field        | Value    |
|--------------|----------|
| Entrypoint   | 0x0163   |
| Data Size    | 21 bytes |
| Instructions | 3        |

```
      00 01 02 03 04 05 06 07  08 09 0A 0B 0C 0D 0E 0F
      -- -- -- -- -- -- -- --  -- -- -- -- -- -- -- --
0160:          59 05 07 52 10  01 01 BA 07 52 10 01 07     Y..R.....R...
0170: 80 08 80 09 80 0A 80 00                           ........        
```

#### Opcodes

```
  0: 0x0163 [0x59] UPDATE_ENTITY_DATA: HEISHI_B (ID: 17846791/0x01105207)->Render.Flags0 |= 0x200000
  1: 0x016A [0xBA] SET_ENTITY_POSITION(entity_id=HEISHI_B (ID: 17846791/0x01105207), pos_x=204.594*, pos_z=76.270*, pos_y=0.051*, direction=90.0°*)
  2: 0x0177 [0x00] END_REQSTACK()
```

### Event 65535.28

#### Metadata

| Field        | Value    |
|--------------|----------|
| Entrypoint   | 0x0178   |
| Data Size    | 34 bytes |
| Instructions | 4        |

```
      00 01 02 03 04 05 06 07  08 09 0A 0B 0C 0D 0E 0F
      -- -- -- -- -- -- -- --  -- -- -- -- -- -- -- --
0170:                          59 05 FB 51 10 01 01 BA          Y..Q....
0180: 0A 52 10 01 07 80 08 80  09 80 0A 80 BA FB 51 10  .R............Q.
0190: 01 07 80 08 80 09 80 0A  80 00                    ..........      
```

#### Opcodes

```
  0: 0x0178 [0x59] UPDATE_ENTITY_DATA: Unnamed NPC (ID: 17846779/0x011051FB)->Render.Flags0 |= 0x200000
  1: 0x017F [0xBA] SET_ENTITY_POSITION(entity_id=Unnamed NPC (ID: 17846794/0x0110520A), pos_x=204.594*, pos_z=76.270*, pos_y=0.051*, direction=90.0°*)
  2: 0x018C [0xBA] SET_ENTITY_POSITION(entity_id=Unnamed NPC (ID: 17846779/0x011051FB), pos_x=204.594*, pos_z=76.270*, pos_y=0.051*, direction=90.0°*)
  3: 0x0199 [0x00] END_REQSTACK()
```

### Event 65535.29

#### Metadata

| Field        | Value    |
|--------------|----------|
| Entrypoint   | 0x019A   |
| Data Size    | 27 bytes |
| Instructions | 3        |

```
      00 01 02 03 04 05 06 07  08 09 0A 0B 0C 0D 0E 0F
      -- -- -- -- -- -- -- --  -- -- -- -- -- -- -- --
0190:                                BA F9 51 10 01 07            ..Q...
01A0: 80 0B 80 09 80 0A 80 BA  FD 51 10 01 07 80 0B 80  .........Q......
01B0: 09 80 0A 80 00                                    .....           
```

#### Opcodes

```
  0: 0x019A [0xBA] SET_ENTITY_POSITION(entity_id=Arciela (ID: 17846777/0x011051F9), pos_x=204.594*, pos_z=101.270*, pos_y=0.051*, direction=90.0°*)
  1: 0x01A7 [0xBA] SET_ENTITY_POSITION(entity_id=Unnamed NPC (ID: 17846781/0x011051FD), pos_x=204.594*, pos_z=101.270*, pos_y=0.051*, direction=90.0°*)
  2: 0x01B4 [0x00] END_REQSTACK()
```

### Event 30

#### Metadata

| Field        | Value   |
|--------------|---------|
| Entrypoint   | 0x01B5  |
| Data Size    | 1 bytes |
| Instructions | 1       |

```
      00 01 02 03 04 05 06 07  08 09 0A 0B 0C 0D 0E 0F
      -- -- -- -- -- -- -- --  -- -- -- -- -- -- -- --
01B0:                00                                      .          
```

#### Opcodes

```
  0: 0x01B5 [0x00] END_REQSTACK()
```

### Event 65535.30

#### Metadata

| Field        | Value    |
|--------------|----------|
| Entrypoint   | 0x01B6   |
| Data Size    | 33 bytes |
| Instructions | 3        |

```
      00 01 02 03 04 05 06 07  08 09 0A 0B 0C 0D 0E 0F
      -- -- -- -- -- -- -- --  -- -- -- -- -- -- -- --
01B0:                   5F 03  0C 80 0A 52 10 01 0A 52        _....R...R
01C0: 10 01 78 78 78 78 5F 03  0D 80 FA 51 10 01 FA 51  ..xxxx_....Q...Q
01D0: 10 01 78 78 78 78 00                              ..xxxx.         
```

#### Opcodes

```
  0: 0x01B6 [0x5F] MULTI_HANDLER_COMPLEX(mode=0x03 - Load ext scheduler (OpCode 0x5B mode 0), ref=3431*, entity1=Unnamed NPC (ID: 17846794/0x0110520A), entity2=Unnamed NPC (ID: 17846794/0x0110520A), string="xxxx")
  1: 0x01C6 [0x5F] MULTI_HANDLER_COMPLEX(mode=0x03 - Load ext scheduler (OpCode 0x5B mode 0), ref=3492*, entity1=Unnamed NPC (ID: 17846778/0x011051FA), entity2=Unnamed NPC (ID: 17846778/0x011051FA), string="xxxx")
  2: 0x01D6 [0x00] END_REQSTACK()
```

### Event 65535.31

#### Metadata

| Field        | Value    |
|--------------|----------|
| Entrypoint   | 0x01D7   |
| Data Size    | 33 bytes |
| Instructions | 3        |

```
      00 01 02 03 04 05 06 07  08 09 0A 0B 0C 0D 0E 0F
      -- -- -- -- -- -- -- --  -- -- -- -- -- -- -- --
01D0:                      5F  03 0E 80 F9 51 10 01 F9         _....Q...
01E0: 51 10 01 78 78 78 78 5F  03 0F 80 FF 51 10 01 FF  Q..xxxx_....Q...
01F0: 51 10 01 78 78 78 78 00                           Q..xxxx.        
```

#### Opcodes

```
  0: 0x01D7 [0x5F] MULTI_HANDLER_COMPLEX(mode=0x03 - Load ext scheduler (OpCode 0x5B mode 0), ref=3824*, entity1=Arciela (ID: 17846777/0x011051F9), entity2=Arciela (ID: 17846777/0x011051F9), string="xxxx")
  1: 0x01E7 [0x5F] MULTI_HANDLER_COMPLEX(mode=0x03 - Load ext scheduler (OpCode 0x5B mode 0), ref=3415*, entity1=Unnamed NPC (ID: 17846783/0x011051FF), entity2=Unnamed NPC (ID: 17846783/0x011051FF), string="xxxx")
  2: 0x01F7 [0x00] END_REQSTACK()
```

### Event 65535.32

#### Metadata

| Field        | Value    |
|--------------|----------|
| Entrypoint   | 0x01F8   |
| Data Size    | 33 bytes |
| Instructions | 3        |

```
      00 01 02 03 04 05 06 07  08 09 0A 0B 0C 0D 0E 0F
      -- -- -- -- -- -- -- --  -- -- -- -- -- -- -- --
01F0:                          5F 03 0E 80 F9 51 10 01          _....Q..
0200: F9 51 10 01 78 78 78 78  5F 03 0F 80 FF 51 10 01  .Q..xxxx_....Q..
0210: FF 51 10 01 78 78 78 78  00                       .Q..xxxx.       
```

#### Opcodes

```
  0: 0x01F8 [0x5F] MULTI_HANDLER_COMPLEX(mode=0x03 - Load ext scheduler (OpCode 0x5B mode 0), ref=3824*, entity1=Arciela (ID: 17846777/0x011051F9), entity2=Arciela (ID: 17846777/0x011051F9), string="xxxx")
  1: 0x0208 [0x5F] MULTI_HANDLER_COMPLEX(mode=0x03 - Load ext scheduler (OpCode 0x5B mode 0), ref=3415*, entity1=Unnamed NPC (ID: 17846783/0x011051FF), entity2=Unnamed NPC (ID: 17846783/0x011051FF), string="xxxx")
  2: 0x0218 [0x00] END_REQSTACK()
```

### Event 65535.33

#### Metadata

| Field        | Value    |
|--------------|----------|
| Entrypoint   | 0x0219   |
| Data Size    | 33 bytes |
| Instructions | 3        |

```
      00 01 02 03 04 05 06 07  08 09 0A 0B 0C 0D 0E 0F
      -- -- -- -- -- -- -- --  -- -- -- -- -- -- -- --
0210:                             5F 03 10 80 F9 51 10           _....Q.
0220: 01 F9 51 10 01 78 78 78  78 5F 03 0F 80 FF 51 10  ..Q..xxxx_....Q.
0230: 01 FF 51 10 01 78 78 78  78 00                    ..Q..xxxx.      
```

#### Opcodes

```
  0: 0x0219 [0x5F] MULTI_HANDLER_COMPLEX(mode=0x03 - Load ext scheduler (OpCode 0x5B mode 0), ref=3825*, entity1=Arciela (ID: 17846777/0x011051F9), entity2=Arciela (ID: 17846777/0x011051F9), string="xxxx")
  1: 0x0229 [0x5F] MULTI_HANDLER_COMPLEX(mode=0x03 - Load ext scheduler (OpCode 0x5B mode 0), ref=3415*, entity1=Unnamed NPC (ID: 17846783/0x011051FF), entity2=Unnamed NPC (ID: 17846783/0x011051FF), string="xxxx")
  2: 0x0239 [0x00] END_REQSTACK()
```

### Event 65535.34

#### Metadata

| Field        | Value    |
|--------------|----------|
| Entrypoint   | 0x023A   |
| Data Size    | 61 bytes |
| Instructions | 5        |

```
      00 01 02 03 04 05 06 07  08 09 0A 0B 0C 0D 0E 0F
      -- -- -- -- -- -- -- --  -- -- -- -- -- -- -- --
0230:                                5B 11 80 FA 51 10            [...Q.
0240: 01 FA 51 10 01 78 78 78  78 5B 12 80 FC 51 10 01  ..Q..xxxx[...Q..
0250: FC 51 10 01 78 78 78 78  5B 12 80 FD 51 10 01 FD  .Q..xxxx[...Q...
0260: 51 10 01 78 78 78 78 5B  13 80 FE 51 10 01 FE 51  Q..xxxx[...Q...Q
0270: 10 01 78 78 78 78 00                              ..xxxx.         
```

#### Opcodes

```
  0: 0x023A [0x5B] LOAD_EXT_SCHEDULER: Load scheduler "xxxx" with entities [Unnamed NPC (ID: 17846778/0x011051FA), Unnamed NPC (ID: 17846778/0x011051FA)], work=3607*
  1: 0x0249 [0x5B] LOAD_EXT_SCHEDULER: Load scheduler "xxxx" with entities [Unnamed NPC (ID: 17846780/0x011051FC), Unnamed NPC (ID: 17846780/0x011051FC)], work=3758*
  2: 0x0258 [0x5B] LOAD_EXT_SCHEDULER: Load scheduler "xxxx" with entities [Unnamed NPC (ID: 17846781/0x011051FD), Unnamed NPC (ID: 17846781/0x011051FD)], work=3758*
  3: 0x0267 [0x5B] LOAD_EXT_SCHEDULER: Load scheduler "xxxx" with entities [Unnamed NPC (ID: 17846782/0x011051FE), Unnamed NPC (ID: 17846782/0x011051FE)], work=3844*
  4: 0x0276 [0x00] END_REQSTACK()
```

### Event 65535.35

#### Metadata

| Field        | Value    |
|--------------|----------|
| Entrypoint   | 0x0277   |
| Data Size    | 33 bytes |
| Instructions | 3        |

```
      00 01 02 03 04 05 06 07  08 09 0A 0B 0C 0D 0E 0F
      -- -- -- -- -- -- -- --  -- -- -- -- -- -- -- --
0270:                      5F  03 14 80 0A 52 10 01 0A         _....R...
0280: 52 10 01 78 78 78 78 5F  03 15 80 0C 52 10 01 0C  R..xxxx_....R...
0290: 52 10 01 78 78 78 78 00                           R..xxxx.        
```

#### Opcodes

```
  0: 0x0277 [0x5F] MULTI_HANDLER_COMPLEX(mode=0x03 - Load ext scheduler (OpCode 0x5B mode 0), ref=3437*, entity1=Unnamed NPC (ID: 17846794/0x0110520A), entity2=Unnamed NPC (ID: 17846794/0x0110520A), string="xxxx")
  1: 0x0287 [0x5F] MULTI_HANDLER_COMPLEX(mode=0x03 - Load ext scheduler (OpCode 0x5B mode 0), ref=3757*, entity1=Unnamed NPC (ID: 17846796/0x0110520C), entity2=Unnamed NPC (ID: 17846796/0x0110520C), string="xxxx")
  2: 0x0297 [0x00] END_REQSTACK()
```

### Event 65535.36

#### Metadata

| Field        | Value    |
|--------------|----------|
| Entrypoint   | 0x0298   |
| Data Size    | 33 bytes |
| Instructions | 3        |

```
      00 01 02 03 04 05 06 07  08 09 0A 0B 0C 0D 0E 0F
      -- -- -- -- -- -- -- --  -- -- -- -- -- -- -- --
0290:                          5F 03 16 80 FE 51 10 01          _....Q..
02A0: FE 51 10 01 78 78 78 78  5F 03 17 80 F9 51 10 01  .Q..xxxx_....Q..
02B0: F9 51 10 01 78 78 78 78  00                       .Q..xxxx.       
```

#### Opcodes

```
  0: 0x0298 [0x5F] MULTI_HANDLER_COMPLEX(mode=0x03 - Load ext scheduler (OpCode 0x5B mode 0), ref=3755*, entity1=Unnamed NPC (ID: 17846782/0x011051FE), entity2=Unnamed NPC (ID: 17846782/0x011051FE), string="xxxx")
  1: 0x02A8 [0x5F] MULTI_HANDLER_COMPLEX(mode=0x03 - Load ext scheduler (OpCode 0x5B mode 0), ref=3828*, entity1=Arciela (ID: 17846777/0x011051F9), entity2=Arciela (ID: 17846777/0x011051F9), string="xxxx")
  2: 0x02B8 [0x00] END_REQSTACK()
```

### Event 65535.37

#### Metadata

| Field        | Value    |
|--------------|----------|
| Entrypoint   | 0x02B9   |
| Data Size    | 33 bytes |
| Instructions | 3        |

```
      00 01 02 03 04 05 06 07  08 09 0A 0B 0C 0D 0E 0F
      -- -- -- -- -- -- -- --  -- -- -- -- -- -- -- --
02B0:                             5F 03 18 80 FE 51 10           _....Q.
02C0: 01 FE 51 10 01 78 78 78  78 5F 03 17 80 F9 51 10  ..Q..xxxx_....Q.
02D0: 01 F9 51 10 01 78 78 78  78 00                    ..Q..xxxx.      
```

#### Opcodes

```
  0: 0x02B9 [0x5F] MULTI_HANDLER_COMPLEX(mode=0x03 - Load ext scheduler (OpCode 0x5B mode 0), ref=3756*, entity1=Unnamed NPC (ID: 17846782/0x011051FE), entity2=Unnamed NPC (ID: 17846782/0x011051FE), string="xxxx")
  1: 0x02C9 [0x5F] MULTI_HANDLER_COMPLEX(mode=0x03 - Load ext scheduler (OpCode 0x5B mode 0), ref=3828*, entity1=Arciela (ID: 17846777/0x011051F9), entity2=Arciela (ID: 17846777/0x011051F9), string="xxxx")
  2: 0x02D9 [0x00] END_REQSTACK()
```

### Event 34

#### Metadata

| Field        | Value   |
|--------------|---------|
| Entrypoint   | 0x02DA  |
| Data Size    | 1 bytes |
| Instructions | 1       |

```
      00 01 02 03 04 05 06 07  08 09 0A 0B 0C 0D 0E 0F
      -- -- -- -- -- -- -- --  -- -- -- -- -- -- -- --
02D0:                                00                           .     
```

#### Opcodes

```
  0: 0x02DA [0x00] END_REQSTACK()
```

### Event 35

#### Metadata

| Field        | Value   |
|--------------|---------|
| Entrypoint   | 0x02DB  |
| Data Size    | 1 bytes |
| Instructions | 1       |

```
      00 01 02 03 04 05 06 07  08 09 0A 0B 0C 0D 0E 0F
      -- -- -- -- -- -- -- --  -- -- -- -- -- -- -- --
02D0:                                   00                         .    
```

#### Opcodes

```
  0: 0x02DB [0x00] END_REQSTACK()
```

### Event 65535.38

#### Metadata

| Field        | Value    |
|--------------|----------|
| Entrypoint   | 0x02DC   |
| Data Size    | 31 bytes |
| Instructions | 3        |

```
      00 01 02 03 04 05 06 07  08 09 0A 0B 0C 0D 0E 0F
      -- -- -- -- -- -- -- --  -- -- -- -- -- -- -- --
02D0:                                      5B 19 80 FB              [...
02E0: 51 10 01 FB 51 10 01 78  78 78 78 5B 1A 80 FA 51  Q...Q..xxxx[...Q
02F0: 10 01 FA 51 10 01 78 78  78 78 00                 ...Q..xxxx.     
```

#### Opcodes

```
  0: 0x02DC [0x5B] LOAD_EXT_SCHEDULER: Load scheduler "xxxx" with entities [Unnamed NPC (ID: 17846779/0x011051FB), Unnamed NPC (ID: 17846779/0x011051FB)], work=3583*
  1: 0x02EB [0x5B] LOAD_EXT_SCHEDULER: Load scheduler "xxxx" with entities [Unnamed NPC (ID: 17846778/0x011051FA), Unnamed NPC (ID: 17846778/0x011051FA)], work=3878*
  2: 0x02FA [0x00] END_REQSTACK()
```

### Event 65535.39

#### Metadata

| Field        | Value    |
|--------------|----------|
| Entrypoint   | 0x02FB   |
| Data Size    | 33 bytes |
| Instructions | 3        |

```
      00 01 02 03 04 05 06 07  08 09 0A 0B 0C 0D 0E 0F
      -- -- -- -- -- -- -- --  -- -- -- -- -- -- -- --
02F0:                                   5F 03 1B 80 FB             _....
0300: 51 10 01 FB 51 10 01 78  78 78 78 5F 03 1A 80 FA  Q...Q..xxxx_....
0310: 51 10 01 FA 51 10 01 78  78 78 78 00              Q...Q..xxxx.    
```

#### Opcodes

```
  0: 0x02FB [0x5F] MULTI_HANDLER_COMPLEX(mode=0x03 - Load ext scheduler (OpCode 0x5B mode 0), ref=3584*, entity1=Unnamed NPC (ID: 17846779/0x011051FB), entity2=Unnamed NPC (ID: 17846779/0x011051FB), string="xxxx")
  1: 0x030B [0x5F] MULTI_HANDLER_COMPLEX(mode=0x03 - Load ext scheduler (OpCode 0x5B mode 0), ref=3878*, entity1=Unnamed NPC (ID: 17846778/0x011051FA), entity2=Unnamed NPC (ID: 17846778/0x011051FA), string="xxxx")
  2: 0x031B [0x00] END_REQSTACK()
```
