# 17846791 - HEISHI_B

## Common Data

| Field            | Value                          |
|------------------|--------------------------------|
| Zone             | Ceizak Battlegrounds (ID: 261) |
| Block Size       | 364 bytes                      |
| Total Events     | 10                             |
| References Count | 24                             |

## List of Events

| Event ID                 | Entrypoint   |   Size |   Instructions |
|--------------------------|--------------|--------|----------------|
| [65535](#event-65535)    | 0x0000       |      1 |              1 |
| [21](#event-21)          | 0x0001       |      1 |              1 |
| [65535.1](#event-655351) | 0x0002       |     29 |              3 |
| [65535.2](#event-655352) | 0x001F       |     38 |              5 |
| [65535.3](#event-655353) | 0x0045       |     38 |              5 |
| [65535.4](#event-655354) | 0x006B       |     30 |              8 |
| [27](#event-27)          | 0x0089       |     26 |              4 |
| [65535.5](#event-655355) | 0x00A3       |     14 |              4 |
| [65535.6](#event-655356) | 0x00B1       |     14 |              4 |
| [65535.7](#event-655357) | 0x00BF       |     21 |              2 |

## DAT References (imed_data)

|   Index | Hex Value   |   Dec Value |
|---------|-------------|-------------|
|       0 | 0x001D      |          29 |
|       1 | 0x0003      |           3 |
|       2 | 0x0002      |           2 |
|       3 | 0x0000      |           0 |
|       4 | 0x008F      |         143 |
|       5 | 0x014A      |         330 |
|       6 | 0x31CC8     |      203976 |
|       7 | 0x11AC5     |       72389 |
|       8 | 0xFFFFFFF8  |  4294967288 |
|       9 | 0xFFFFFC01  |  4294966273 |
|      10 | 0x31A22     |      203298 |
|      11 | 0x12098     |       73880 |
|      12 | 0x0C98      |        3224 |
|      13 | 0x003C      |          60 |
|      14 | 0x000D      |          13 |
|      15 | 0x2F27B     |      193147 |
|      16 | 0x10A73     |       68211 |
|      17 | 0x0184      |         388 |
|      18 | 0x0001      |           1 |
|      19 | 0x65FCC     |      417740 |
|      20 | 0x2AF26     |      175910 |
|      21 | 0x0250      |         592 |
|      22 | 0x316E9     |      202473 |
|      23 | 0x1362D     |       79405 |

## Events

### Event 65535

#### Metadata

| Field        | Value   |
|--------------|---------|
| Entrypoint   | 0x0000  |
| Data Size    | 1 bytes |
| Instructions | 1       |

```
      00 01 02 03 04 05 06 07  08 09 0A 0B 0C 0D 0E 0F
      -- -- -- -- -- -- -- --  -- -- -- -- -- -- -- --
0000: 00                                                .               
```

#### Opcodes

```
  0: 0x0000 [0x00] END_REQSTACK()
```

### Event 21

#### Metadata

| Field        | Value   |
|--------------|---------|
| Entrypoint   | 0x0001  |
| Data Size    | 1 bytes |
| Instructions | 1       |

```
      00 01 02 03 04 05 06 07  08 09 0A 0B 0C 0D 0E 0F
      -- -- -- -- -- -- -- --  -- -- -- -- -- -- -- --
0000:    00                                              .              
```

#### Opcodes

```
  0: 0x0001 [0x00] END_REQSTACK()
```

### Event 65535.1

#### Metadata

| Field        | Value    |
|--------------|----------|
| Entrypoint   | 0x0002   |
| Data Size    | 29 bytes |
| Instructions | 3        |

```
      00 01 02 03 04 05 06 07  08 09 0A 0B 0C 0D 0E 0F
      -- -- -- -- -- -- -- --  -- -- -- -- -- -- -- --
0000:       66 00 80 F8 FF FF  7F F8 FF FF 7F 73 69 72    f..........sir
0010: 31 53 F8 FF FF 7F F8 FF  FF 7F 73 69 72 31 00     1S........sir1. 
```

#### Opcodes

```
  0: 0x0002 [0x66] LOAD_EXT_SCHEDULER_MAIN: Load scheduler "sir1" with entities [EventEntity, EventEntity], work=29*
  1: 0x0011 [0x53] WAIT_SCHEDULER_TASK: Wait for scheduler "sir1" with entities [EventEntity, EventEntity]
  2: 0x001E [0x00] END_REQSTACK()
```

### Event 65535.2

#### Metadata

| Field        | Value    |
|--------------|----------|
| Entrypoint   | 0x001F   |
| Data Size    | 38 bytes |
| Instructions | 5        |

```
      00 01 02 03 04 05 06 07  08 09 0A 0B 0C 0D 0E 0F
      -- -- -- -- -- -- -- --  -- -- -- -- -- -- -- --
0010:                                               2F                 /
0020: 00 F8 FF FF 7F B6 0B 01  80 02 80 03 80 04 80 04  ................
0030: 80 04 80 04 80 05 80 03  80 37 06 80 07 80 08 80  .........7......
0040: 09 80 22 00 00                                    .."..           
```

#### Opcodes

```
  0: 0x001F [0x2F] EventEntity->Render.Flags0 &= ~0x80000 // Bit 19
  1: 0x0025 [0xB6] ENTITY_APPEARANCE_HANDLER(case=Full entity look, race=3*, hair=2*, head=0*, body=143*, hands=143*, legs=143*, feet=143*, main=330*, sub=0*)
  2: 0x0039 [0x37] UPDATE_EVENT_POSITION_AND_DIR: x=203.976*, z=72.389*, y=-0.008*, direction=377476129.3°*
  3: 0x0042 [0x22] ENTITY_HIDE_FLAG(enabled=0x00)
  4: 0x0044 [0x00] END_REQSTACK()
```

### Event 65535.3

#### Metadata

| Field        | Value    |
|--------------|----------|
| Entrypoint   | 0x0045   |
| Data Size    | 38 bytes |
| Instructions | 5        |

```
      00 01 02 03 04 05 06 07  08 09 0A 0B 0C 0D 0E 0F
      -- -- -- -- -- -- -- --  -- -- -- -- -- -- -- --
0040:                2F 00 F8  FF FF 7F B6 0B 01 80 02       /..........
0050: 80 03 80 04 80 04 80 04  80 04 80 05 80 03 80 37  ...............7
0060: 0A 80 0B 80 03 80 09 80  22 00 00                 ........"..     
```

#### Opcodes

```
  0: 0x0045 [0x2F] EventEntity->Render.Flags0 &= ~0x80000 // Bit 19
  1: 0x004B [0xB6] ENTITY_APPEARANCE_HANDLER(case=Full entity look, race=3*, hair=2*, head=0*, body=143*, hands=143*, legs=143*, feet=143*, main=330*, sub=0*)
  2: 0x005F [0x37] UPDATE_EVENT_POSITION_AND_DIR: x=203.298*, z=73.880*, y=0.000*, direction=377476129.3°*
  3: 0x0068 [0x22] ENTITY_HIDE_FLAG(enabled=0x00)
  4: 0x006A [0x00] END_REQSTACK()
```

### Event 65535.4

#### Metadata

| Field        | Value    |
|--------------|----------|
| Entrypoint   | 0x006B   |
| Data Size    | 30 bytes |
| Instructions | 8        |

```
      00 01 02 03 04 05 06 07  08 09 0A 0B 0C 0D 0E 0F
      -- -- -- -- -- -- -- --  -- -- -- -- -- -- -- --
0060:                                   4B F8 FF FF 7F             K....
0070: 0C 80 6F 76 F8 FF FF 7F  1C 0D 80 32 0E 80 1F 00  ..ov.......2....
0080: 0F 80 10 80 11 80 1F 01  00                       .........       
```

#### Opcodes

```
  0: 0x006B [0x4B] UPDATE_ENTITY_YAW(entity=EventEntity, yaw=17.7°*)
  1: 0x0072 [0x6F] WAIT_FRAME_DELAY: Yield until WaitTime reaches zero
  2: 0x0073 [0x76] CHECK_ENTITY_RENDER_FLAGS: Wait until EventEntity Render.Flags0 and Render.Flags3 conditions are met
  3: 0x0078 [0x1C] WAIT(60* ticks)
  4: 0x007B [0x32] ExtData[1]->MainSpeed = 13* * 0.1
  5: 0x007E [0x1F] MOVE_ENTITY: EventEntity moves to X=193.147*, Z=68.211*, Y=0.388*
  6: 0x0086 [0x1F] MOVE_ENTITY: Update entity position (mode=1)
  7: 0x0088 [0x00] END_REQSTACK()
```

### Event 27

#### Metadata

| Field        | Value    |
|--------------|----------|
| Entrypoint   | 0x0089   |
| Data Size    | 26 bytes |
| Instructions | 4        |

```
      00 01 02 03 04 05 06 07  08 09 0A 0B 0C 0D 0E 0F
      -- -- -- -- -- -- -- --  -- -- -- -- -- -- -- --
0080:                             B6 0B 01 80 02 80 03           .......
0090: 80 04 80 04 80 04 80 04  80 05 80 03 80 C0 12 80  ................
00A0: A5 01 00                                          ...             
```

#### Opcodes

```
  0: 0x0089 [0xB6] ENTITY_APPEARANCE_HANDLER(case=Full entity look, race=3*, hair=2*, head=0*, body=143*, hands=143*, legs=143*, feet=143*, main=330*, sub=0*)
  1: 0x009D [0xC0] EventEntity->Render.Flags3 |= 0x1000 // Set bit 12 (from 1*)
  2: 0x00A0 [0xA5] EventEntity->Flags3.BallistaTeam |= 0x08  // Set bit 3 of BallistaTeam
  3: 0x00A2 [0x00] END_REQSTACK()
```

### Event 65535.5

#### Metadata

| Field        | Value    |
|--------------|----------|
| Entrypoint   | 0x00A3   |
| Data Size    | 14 bytes |
| Instructions | 4        |

```
      00 01 02 03 04 05 06 07  08 09 0A 0B 0C 0D 0E 0F
      -- -- -- -- -- -- -- --  -- -- -- -- -- -- -- --
00A0:          32 0E 80 1F 00  13 80 14 80 15 80 1F 01     2............
00B0: 00                                                .               
```

#### Opcodes

```
  0: 0x00A3 [0x32] ExtData[1]->MainSpeed = 13* * 0.1
  1: 0x00A6 [0x1F] MOVE_ENTITY: EventEntity moves to X=417.740*, Z=175.910*, Y=0.592*
  2: 0x00AE [0x1F] MOVE_ENTITY: Update entity position (mode=1)
  3: 0x00B0 [0x00] END_REQSTACK()
```

### Event 65535.6

#### Metadata

| Field        | Value    |
|--------------|----------|
| Entrypoint   | 0x00B1   |
| Data Size    | 14 bytes |
| Instructions | 4        |

```
      00 01 02 03 04 05 06 07  08 09 0A 0B 0C 0D 0E 0F
      -- -- -- -- -- -- -- --  -- -- -- -- -- -- -- --
00B0:    32 0E 80 1F 00 16 80  17 80 03 80 1F 01 00      2............. 
```

#### Opcodes

```
  0: 0x00B1 [0x32] ExtData[1]->MainSpeed = 13* * 0.1
  1: 0x00B4 [0x1F] MOVE_ENTITY: EventEntity moves to X=202.473*, Z=79.405*, Y=0.000*
  2: 0x00BC [0x1F] MOVE_ENTITY: Update entity position (mode=1)
  3: 0x00BE [0x00] END_REQSTACK()
```

### Event 65535.7

#### Metadata

| Field        | Value    |
|--------------|----------|
| Entrypoint   | 0x00BF   |
| Data Size    | 21 bytes |
| Instructions | 2        |

```
      00 01 02 03 04 05 06 07  08 09 0A 0B 0C 0D 0E 0F
      -- -- -- -- -- -- -- --  -- -- -- -- -- -- -- --
00B0:                                               B6                 .
00C0: 0B 12 80 03 80 03 80 03  80 03 80 03 80 03 80 03  ................
00D0: 80 03 80 00                                       ....            
```

#### Opcodes

```
  0: 0x00BF [0xB6] ENTITY_APPEARANCE_HANDLER(case=Full entity look, race=1*, hair=0*, head=0*, body=0*, hands=0*, legs=0*, feet=0*, main=0*, sub=0*)
  1: 0x00D3 [0x00] END_REQSTACK()
```
