# 0x7FFFFFF0 - Zone Events

## Common Data

| Field            | Value                          |
|------------------|--------------------------------|
| Zone             | Ceizak Battlegrounds (ID: 261) |
| Block Size       | 2884 bytes                     |
| Total Events     | 73                             |
| References Count | 113                            |

## List of Events

| Event ID                   | Entrypoint   |   Size |   Instructions |
|----------------------------|--------------|--------|----------------|
| [65535](#event-65535)      | 0x0000       |      1 |              1 |
| [65534](#event-65534)      | 0x0001       |      1 |              1 |
| [65535.1](#event-655351)   | 0x0002       |      6 |              2 |
| [65535.2](#event-655352)   | 0x0008       |      6 |              2 |
| [65535.3](#event-655353)   | 0x000E       |     27 |              5 |
| [65535.4](#event-655354)   | 0x0029       |     37 |              5 |
| [65535.5](#event-655355)   | 0x004E       |    185 |             37 |
| [65535.6](#event-655356)   | 0x0107       |      7 |              3 |
| [65535.7](#event-655357)   | 0x010E       |      7 |              3 |
| [5504](#event-5504)        | 0x0115       |    128 |             14 |
| [65535.8](#event-655358)   | 0x0195       |     24 |              4 |
| [65535.9](#event-655359)   | 0x01AD       |     24 |              4 |
| [65535.10](#event-6553510) | 0x01C5       |     24 |              4 |
| [65535.11](#event-6553511) | 0x01DD       |     24 |              4 |
| [65535.12](#event-6553512) | 0x01F5       |     24 |              4 |
| [65535.13](#event-6553513) | 0x020D       |     24 |              4 |
| [65535.14](#event-6553514) | 0x0225       |     29 |              5 |
| [65535.15](#event-6553515) | 0x0242       |     24 |              4 |
| [65535.16](#event-6553516) | 0x025A       |     24 |              4 |
| [65535.17](#event-6553517) | 0x0272       |     24 |              4 |
| [65535.18](#event-6553518) | 0x028A       |     24 |              4 |
| [65535.19](#event-6553519) | 0x02A2       |     29 |              5 |
| [65535.20](#event-6553520) | 0x02BF       |     29 |              5 |
| [65535.21](#event-6553521) | 0x02DC       |     29 |              5 |
| [65535.22](#event-6553522) | 0x02F9       |     27 |              7 |
| [65535.23](#event-6553523) | 0x0314       |     22 |              6 |
| [65535.24](#event-6553524) | 0x032A       |     14 |              4 |
| [65535.25](#event-6553525) | 0x0338       |     17 |              5 |
| [65535.26](#event-6553526) | 0x0349       |     24 |              4 |
| [65535.27](#event-6553527) | 0x0361       |     24 |              4 |
| [65535.28](#event-6553528) | 0x0379       |     38 |              5 |
| [65535.29](#event-6553529) | 0x039F       |     38 |              5 |
| [65535.30](#event-6553530) | 0x03C5       |     38 |              5 |
| [65535.31](#event-6553531) | 0x03EB       |     37 |              5 |
| [65535.32](#event-6553532) | 0x0410       |     37 |              5 |
| [65535.33](#event-6553533) | 0x0435       |     42 |              6 |
| [65535.34](#event-6553534) | 0x045F       |     14 |              4 |
| [65535.35](#event-6553535) | 0x046D       |     14 |              4 |
| [65535.36](#event-6553536) | 0x047B       |     14 |              4 |
| [65535.37](#event-6553537) | 0x0489       |     24 |              4 |
| [65535.38](#event-6553538) | 0x04A1       |     24 |              4 |
| [65535.39](#event-6553539) | 0x04B9       |     24 |              4 |
| [65535.40](#event-6553540) | 0x04D1       |     13 |              3 |
| [65535.41](#event-6553541) | 0x04DE       |     22 |              6 |
| [65535.42](#event-6553542) | 0x04F4       |      6 |              2 |
| [65535.43](#event-6553543) | 0x04FA       |      6 |              2 |
| [65535.44](#event-6553544) | 0x0500       |      6 |              2 |
| [65535.45](#event-6553545) | 0x0506       |      6 |              2 |
| [65535.46](#event-6553546) | 0x050C       |      6 |              2 |
| [65535.47](#event-6553547) | 0x0512       |     10 |              2 |
| [65535.48](#event-6553548) | 0x051C       |     14 |              4 |
| [65535.49](#event-6553549) | 0x052A       |     32 |              8 |
| [65535.50](#event-6553550) | 0x054A       |     65 |              7 |
| [65535.51](#event-6553551) | 0x058B       |     16 |              4 |
| [65535.52](#event-6553552) | 0x059B       |     10 |              2 |
| [65535.53](#event-6553553) | 0x05A5       |     21 |              7 |
| [65535.54](#event-6553554) | 0x05BA       |     10 |              2 |
| [65535.55](#event-6553555) | 0x05C4       |     10 |              2 |
| [65535.56](#event-6553556) | 0x05CE       |     10 |              2 |
| [65535.57](#event-6553557) | 0x05D8       |     10 |              2 |
| [65535.58](#event-6553558) | 0x05E2       |     10 |              2 |
| [65535.59](#event-6553559) | 0x05EC       |     10 |              2 |
| [65535.60](#event-6553560) | 0x05F6       |     14 |              4 |
| [65535.61](#event-6553561) | 0x0604       |     27 |              3 |
| [65535.62](#event-6553562) | 0x061F       |    353 |             41 |
| [65535.63](#event-6553563) | 0x0780       |     37 |              5 |
| [65535.64](#event-6553564) | 0x07A5       |     37 |              5 |
| [65535.65](#event-6553565) | 0x07CA       |     14 |              4 |
| [65535.66](#event-6553566) | 0x07D8       |     14 |              4 |
| [65535.67](#event-6553567) | 0x07E6       |     14 |              4 |
| [65535.68](#event-6553568) | 0x07F4       |     14 |              4 |
| [65535.69](#event-6553569) | 0x0802       |     29 |              7 |
| [65535.70](#event-6553570) | 0x081F       |     45 |              7 |

## DAT References (imed_data)

|   Index | Hex Value   |   Dec Value |
|---------|-------------|-------------|
|       0 | 0x0005      |           5 |
|       1 | 0x0001      |           1 |
|       2 | 0x0002      |           2 |
|       3 | 0x000A      |          10 |
|       4 | 0x0009      |           9 |
|       5 | 0x0046      |          70 |
|       6 | 0x008C      |         140 |
|       7 | 0x00D2      |         210 |
|       8 | 0x0000      |           0 |
|       9 | 0x00C8      |         200 |
|      10 | 0x005A      |          90 |
|      11 | 0x00C9      |         201 |
|      12 | 0x002D      |          45 |
|      13 | 0x000F      |          15 |
|      14 | 0x000D      |          13 |
|      15 | 0x52BF8     |      338936 |
|      16 | 0xFFFC09A7  |  4294707623 |
|      17 | 0x0500      |        1280 |
|      18 | 0x001E      |          30 |
|      19 | 0x0071      |         113 |
|      20 | 0x003C      |          60 |
|      21 | 0x4E588     |      320904 |
|      22 | 0xFFFBF389  |  4294701961 |
|      23 | 0x0FA0      |        4000 |
|      24 | 0x4C533     |      312627 |
|      25 | 0xFFFC0386  |  4294706054 |
|      26 | 0x0E48      |        3656 |
|      27 | 0x43554     |      275796 |
|      28 | 0xFFFC6C64  |  4294732900 |
|      29 | 0xFFFFFFE5  |  4294967269 |
|      30 | 0x0008      |           8 |
|      31 | 0x0007      |           7 |
|      32 | 0x0091      |         145 |
|      33 | 0x004F      |          79 |
|      34 | 0x004C      |          76 |
|      35 | 0x0018      |          24 |
|      36 | 0x0020      |          32 |
|      37 | 0x0030      |          48 |
|      38 | 0x0040      |          64 |
|      39 | 0x0028      |          40 |
|      40 | 0x2BF0A     |      179978 |
|      41 | 0xFFFFFE95  |  4294966933 |
|      42 | 0x01EB      |         491 |
|      43 | 0x2692D     |      157997 |
|      44 | 0xFFFF3D3F  |  4294917439 |
|      45 | 0x0188      |         392 |
|      46 | 0x2617B     |      156027 |
|      47 | 0xFFFF25C1  |  4294911425 |
|      48 | 0x0255      |         597 |
|      49 | 0xFFFD70B1  |  4294799537 |
|      50 | 0xFFFF66EE  |  4294928110 |
|      51 | 0x612F4     |      398068 |
|      52 | 0x2A308     |      172808 |
|      53 | 0x0208      |         520 |
|      54 | 0x073F      |        1855 |
|      55 | 0x5EDAC     |      388524 |
|      56 | 0x29849     |      170057 |
|      57 | 0x0259      |         601 |
|      58 | 0x5D7C7     |      382919 |
|      59 | 0x293D3     |      168915 |
|      60 | 0x000B      |          11 |
|      61 | 0x31B27     |      203559 |
|      62 | 0x144CA     |       83146 |
|      63 | 0x0561      |        1377 |
|      64 | 0x314CF     |      201935 |
|      65 | 0x1381D     |       79901 |
|      66 | 0x2D6C1     |      186049 |
|      67 | 0xEAD1      |       60113 |
|      68 | 0x018B      |         395 |
|      69 | 0x0447      |        1095 |
|      70 | 0x574D9     |      357593 |
|      71 | 0x2CF02     |      184066 |
|      72 | 0x0256      |         598 |
|      73 | 0xFFFFF800  |  4294965248 |
|      74 | 0x43801     |      276481 |
|      75 | 0xFFFC1EAB  |  4294713003 |
|      76 | 0x022D      |         557 |
|      77 | 0x075D      |        1885 |
|      78 | 0x4873C     |      296764 |
|      79 | 0xFFFC0DF3  |  4294708723 |
|      80 | 0x0325      |         805 |
|      81 | 0x0CF6      |        3318 |
|      82 | 0x48362     |      295778 |
|      83 | 0xFFFC1066  |  4294709350 |
|      84 | 0x0322      |         802 |
|      85 | 0x01C0      |         448 |
|      86 | 0x44981     |      280961 |
|      87 | 0xFFFC3C41  |  4294720577 |
|      88 | 0x00CA      |         202 |
|      89 | 0x0AB8      |        2744 |
|      90 | 0x40B82     |      265090 |
|      91 | 0xFFFC7E6C  |  4294737516 |
|      92 | 0x01AE      |         430 |
|      93 | 0x0095      |         149 |
|      94 | 0x0078      |         120 |
|      95 | 0x009F      |         159 |
|      96 | 0x0003      |           3 |
|      97 | 0x00A9      |         169 |
|      98 | 0x0004      |           4 |
|      99 | 0x00B3      |         179 |
|     100 | 0x00BD      |         189 |
|     101 | 0x0006      |           6 |
|     102 | 0x00C7      |         199 |
|     103 | 0x00D1      |         209 |
|     104 | 0x462BC     |      287420 |
|     105 | 0xFFFC2AD4  |  4294716116 |
|     106 | 0x0262      |         610 |
|     107 | 0x25A27     |      154151 |
|     108 | 0xFFFF457D  |  4294919549 |
|     109 | 0x0186      |         390 |
|     110 | 0x25BBC     |      154556 |
|     111 | 0xFFFF2B28  |  4294912808 |
|     112 | 0x0257      |         599 |

## Events

### Event 65535

#### Metadata

| Field        | Value   |
|--------------|---------|
| Entrypoint   | 0x0000  |
| Data Size    | 1 bytes |
| Instructions | 1       |

```
      00 01 02 03 04 05 06 07  08 09 0A 0B 0C 0D 0E 0F
      -- -- -- -- -- -- -- --  -- -- -- -- -- -- -- --
0000: 00                                                .               
```

#### Opcodes

```
  0: 0x0000 [0x00] END_REQSTACK()
```

### Event 65534

#### Metadata

| Field        | Value   |
|--------------|---------|
| Entrypoint   | 0x0001  |
| Data Size    | 1 bytes |
| Instructions | 1       |

```
      00 01 02 03 04 05 06 07  08 09 0A 0B 0C 0D 0E 0F
      -- -- -- -- -- -- -- --  -- -- -- -- -- -- -- --
0000:    00                                              .              
```

#### Opcodes

```
  0: 0x0001 [0x00] END_REQSTACK()
```

### Event 65535.1

#### Metadata

| Field        | Value   |
|--------------|---------|
| Entrypoint   | 0x0002  |
| Data Size    | 6 bytes |
| Instructions | 2       |

```
      00 01 02 03 04 05 06 07  08 09 0A 0B 0C 0D 0E 0F
      -- -- -- -- -- -- -- --  -- -- -- -- -- -- -- --
0000:       03 02 10 07 7F 00                             ......        
```

#### Opcodes

```
  0: 0x0002 [0x03] Work_Zone[2] = Entity->Race
  1: 0x0007 [0x00] END_REQSTACK()
```

### Event 65535.2

#### Metadata

| Field        | Value   |
|--------------|---------|
| Entrypoint   | 0x0008  |
| Data Size    | 6 bytes |
| Instructions | 2       |

```
      00 01 02 03 04 05 06 07  08 09 0A 0B 0C 0D 0E 0F
      -- -- -- -- -- -- -- --  -- -- -- -- -- -- -- --
0000:                          03 02 10 0B 7F 00                ......  
```

#### Opcodes

```
  0: 0x0008 [0x03] Work_Zone[2] = (Entity->Render.Flags01 >> 25) & 1
  1: 0x000D [0x00] END_REQSTACK()
```

### Event 65535.3

#### Metadata

| Field        | Value    |
|--------------|----------|
| Entrypoint   | 0x000E   |
| Data Size    | 27 bytes |
| Instructions | 5        |

```
      00 01 02 03 04 05 06 07  08 09 0A 0B 0C 0D 0E 0F
      -- -- -- -- -- -- -- --  -- -- -- -- -- -- -- --
0000:                                            03 00                ..
0010: 00 07 7F 1A 98 00 0B 01  00 66 01 00 F8 FF FF 7F  .........f......
0020: F8 FF FF 7F 70 61 73 30  00                       ....pas0.       
```

#### Opcodes

```
  0: 0x000E [0x03] ExtData[1]->WorkLocal[0] = Entity->Race
  1: 0x0013 [0x1A] CALL_SUBROUTINE(address=0x0098)
  2: 0x0016 [0x0B] ExtData[1]->WorkLocal[1]++
  3: 0x0019 [0x66] LOAD_EXT_SCHEDULER_MAIN: Load scheduler "pas0" with entities [EventEntity, EventEntity], work=ExtData[1]->WorkLocal[1]
  4: 0x0028 [0x00] END_REQSTACK()
```

### Event 65535.4

#### Metadata

| Field        | Value    |
|--------------|----------|
| Entrypoint   | 0x0029   |
| Data Size    | 37 bytes |
| Instructions | 5        |

```
      00 01 02 03 04 05 06 07  08 09 0A 0B 0C 0D 0E 0F
      -- -- -- -- -- -- -- --  -- -- -- -- -- -- -- --
0020:                             03 00 00 07 7F 1A 73           ......s
0030: 00 66 01 00 F8 FF FF 7F  F8 FF FF 7F 73 68 61 30  .f..........sha0
0040: 53 F8 FF FF 7F F8 FF FF  7F 73 68 61 30 00        S........sha0.  
```

#### Opcodes

```
  0: 0x0029 [0x03] ExtData[1]->WorkLocal[0] = Entity->Race
  1: 0x002E [0x1A] CALL_SUBROUTINE(address=0x0073)
  2: 0x0031 [0x66] LOAD_EXT_SCHEDULER_MAIN: Load scheduler "sha0" with entities [EventEntity, EventEntity], work=ExtData[1]->WorkLocal[1]
  3: 0x0040 [0x53] WAIT_SCHEDULER_TASK: Wait for scheduler "sha0" with entities [EventEntity, EventEntity]
  4: 0x004D [0x00] END_REQSTACK()
```

### Event 65535.5

#### Metadata

| Field        | Value     |
|--------------|-----------|
| Entrypoint   | 0x004E    |
| Data Size    | 185 bytes |
| Instructions | 13        |

```
      00 01 02 03 04 05 06 07  08 09 0A 0B 0C 0D 0E 0F
      -- -- -- -- -- -- -- --  -- -- -- -- -- -- -- --
0040:                                            03 00                ..
0050: 00 07 7F 1A 73 00 66 01  00 F8 FF FF 7F F8 FF FF  ....s.f.........
0060: 7F 73 68 61 31 53 F8 FF  FF 7F F8 FF FF 7F 73 68  .sha1S........sh
0070: 61 31 00 03 01 00 00 00  02 01 00 00 80 05 88 00  a1..............
0080: 08 01 00 01 80 01 8D 00  08 01 00 02 80 14 01 00  ................
0090: 03 80 07 01 00 04 80 1B  03 01 00 00 00 02 01 00  ................
00A0: 00 80 05 AD 00 08 01 00  01 80 01 B2 00 08 01 00  ................
00B0: 02 80 14 01 00 03 80 07  01 00 05 80 1B 03 01 00  ................
00C0: 00 00 02 01 00 00 80 05  D2 00 08 01 00 01 80 01  ................
00D0: D7 00 08 01 00 02 80 14  01 00 03 80 07 01 00 06  ................
00E0: 80 1B 03 01 00 00 00 02  01 00 00 80 05 F7 00 08  ................
00F0: 01 00 01 80 01 FC 00 08  01 00 02 80 14 01 00 03  ................
0100: 80 07 01 00 07 80 1B                              .......         
```

#### Opcodes

```
  0: 0x004E [0x03] ExtData[1]->WorkLocal[0] = Entity->Race
  1: 0x0053 [0x1A] CALL_SUBROUTINE(address=0x0073)
  2: 0x0056 [0x66] LOAD_EXT_SCHEDULER_MAIN: Load scheduler "sha1" with entities [EventEntity, EventEntity], work=ExtData[1]->WorkLocal[1]
  3: 0x0065 [0x53] WAIT_SCHEDULER_TASK: Wait for scheduler "sha1" with entities [EventEntity, EventEntity]
  4: 0x0072 [0x00] END_REQSTACK()

SUBROUTINE_0073:
  5: 0x0073 [0x03] ExtData[1]->WorkLocal[1] = ExtData[1]->WorkLocal[0]
  6: 0x0078 [0x02] IF !(ExtData[1]->WorkLocal[1] > 5*) GOTO 0x0088
  7: 0x0080 [0x08] ExtData[1]->WorkLocal[1] -= 1*
  8: 0x0085 [0x01] GOTO 0x008D
  9: 0x0088 [0x08] ExtData[1]->WorkLocal[1] -= 2*

SUBROUTINE_008D:
 10: 0x008D [0x14] ExtData[1]->WorkLocal[1] *= 10*
 11: 0x0092 [0x07] ExtData[1]->WorkLocal[1] += 9*
 12: 0x0097 [0x1B] RETURN
```

#### Data or dead code:

```
# Dead code (unreachable instructions):
     0x0098 [0x03] ExtData[1]->WorkLocal[1] = ExtData[1]->WorkLocal[0]
     0x009D [0x02] IF !(ExtData[1]->WorkLocal[1] > 5*) GOTO 0x00AD
     0x00A5 [0x08] ExtData[1]->WorkLocal[1] -= 1*
     0x00AA [0x01] GOTO 0x00B2
     0x00AD [0x08] ExtData[1]->WorkLocal[1] -= 2*
     0x00B2 [0x14] ExtData[1]->WorkLocal[1] *= 10*
     0x00B7 [0x07] ExtData[1]->WorkLocal[1] += 70*
     0x00BC [0x1B] RETURN
     0x00BD [0x03] ExtData[1]->WorkLocal[1] = ExtData[1]->WorkLocal[0]
     0x00C2 [0x02] IF !(ExtData[1]->WorkLocal[1] > 5*) GOTO 0x00D2
     0x00CA [0x08] ExtData[1]->WorkLocal[1] -= 1*
     0x00CF [0x01] GOTO 0x00D7
     0x00D2 [0x08] ExtData[1]->WorkLocal[1] -= 2*
     0x00D7 [0x14] ExtData[1]->WorkLocal[1] *= 10*
     0x00DC [0x07] ExtData[1]->WorkLocal[1] += 140*
     0x00E1 [0x1B] RETURN
     0x00E2 [0x03] ExtData[1]->WorkLocal[1] = ExtData[1]->WorkLocal[0]
     0x00E7 [0x02] IF !(ExtData[1]->WorkLocal[1] > 5*) GOTO 0x00F7
     0x00EF [0x08] ExtData[1]->WorkLocal[1] -= 1*
     0x00F4 [0x01] GOTO 0x00FC
     0x00F7 [0x08] ExtData[1]->WorkLocal[1] -= 2*
     0x00FC [0x14] ExtData[1]->WorkLocal[1] *= 10*
     0x0101 [0x07] ExtData[1]->WorkLocal[1] += 210*
     0x0106 [0x1B] RETURN
```

### Event 65535.6

#### Metadata

| Field        | Value   |
|--------------|---------|
| Entrypoint   | 0x0107  |
| Data Size    | 7 bytes |
| Instructions | 3       |

```
      00 01 02 03 04 05 06 07  08 09 0A 0B 0C 0D 0E 0F
      -- -- -- -- -- -- -- --  -- -- -- -- -- -- -- --
0100:                      AB  03 AC 01 01 80 00               .......  
```

#### Opcodes

```
  0: 0x0107 [0xAB] EventEntity->Render.Flags0 ^= 0x20000 // Toggle bit 17
  1: 0x0109 [0xAC] EventEntity->StatusEvent = 1*
  2: 0x010D [0x00] END_REQSTACK()
```

### Event 65535.7

#### Metadata

| Field        | Value   |
|--------------|---------|
| Entrypoint   | 0x010E  |
| Data Size    | 7 bytes |
| Instructions | 3       |

```
      00 01 02 03 04 05 06 07  08 09 0A 0B 0C 0D 0E 0F
      -- -- -- -- -- -- -- --  -- -- -- -- -- -- -- --
0100:                                            AC 01                ..
0110: 08 80 AB 04 00                                    .....           
```

#### Opcodes

```
  0: 0x010E [0xAC] EventEntity->StatusEvent = 0*
  1: 0x0112 [0xAB] EventEntity->Render.Flags0 |= 0x40000 // Set bit 18
  2: 0x0114 [0x00] END_REQSTACK()
```

### Event 5504

#### Metadata

| Field        | Value     |
|--------------|-----------|
| Entrypoint   | 0x0115    |
| Data Size    | 128 bytes |
| Instructions | 14        |

```
      00 01 02 03 04 05 06 07  08 09 0A 0B 0C 0D 0E 0F
      -- -- -- -- -- -- -- --  -- -- -- -- -- -- -- --
0110:                42 45 09  80 F0 FF FF 7F F0 FF FF       BE.........
0120: 7F 66 64 6F 31 08 80 62  01 80 F0 FF FF 7F F0 FF  .fdo1..b........
0130: FF 7F 6D 61 69 6E 08 80  1C 0A 80 45 0B 80 F0 FF  ..main.....E....
0140: FF 7F F0 FF FF 7F 77 68  6F 31 08 80 55 0B 80 F0  ......who1..U...
0150: FF FF 7F F0 FF FF 7F 77  68 6F 31 1C 0C 80 45 09  .......who1...E.
0160: 80 F0 FF FF 7F F0 FF FF  7F 66 64 6F 31 08 80 55  .........fdo1..U
0170: 09 80 F0 FF FF 7F F0 FF  FF 7F 66 64 6F 31 45 0B  ..........fdo1E.
0180: 80 F0 FF FF 7F F0 FF FF  7F 77 68 69 31 08 80 1C  .........whi1...
0190: 0D 80 30 21 00                                    ..0!.           
```

#### Opcodes

```
  0: 0x0115 [0x42] SET_CLI_EVENT_CANCEL_DATA()
  1: 0x0116 [0x45] LOAD_SCHEDULED_TASK: Load scheduler "fdo1" with entities [LocalPlayer, LocalPlayer], work=[200*, 0*]
  2: 0x0127 [0x62] LOAD_EVENT_SCHEDULER: Load scheduler "main" with entities [LocalPlayer, LocalPlayer], work=[1*, 0*]
  3: 0x0138 [0x1C] WAIT(90* ticks)
  4: 0x013B [0x45] LOAD_SCHEDULED_TASK: Load scheduler "who1" with entities [LocalPlayer, LocalPlayer], work=[201*, 0*]
  5: 0x014C [0x55] WAIT_LOAD_SCHEDULER: Wait for scheduler "who1" with entities [LocalPlayer, LocalPlayer], work=201*
  6: 0x015B [0x1C] WAIT(45* ticks)
  7: 0x015E [0x45] LOAD_SCHEDULED_TASK: Load scheduler "fdo1" with entities [LocalPlayer, LocalPlayer], work=[200*, 0*]
  8: 0x016F [0x55] WAIT_LOAD_SCHEDULER: Wait for scheduler "fdo1" with entities [LocalPlayer, LocalPlayer], work=200*
  9: 0x017E [0x45] LOAD_SCHEDULED_TASK: Load scheduler "whi1" with entities [LocalPlayer, LocalPlayer], work=[201*, 0*]
 10: 0x018F [0x1C] WAIT(15* ticks)
 11: 0x0192 [0x30] SET_UCOFF_CONTINUE_ZERO()
 12: 0x0193 [0x21] END_EVENT
 13: 0x0194 [0x00] END_REQSTACK()
```

### Event 65535.8

#### Metadata

| Field        | Value    |
|--------------|----------|
| Entrypoint   | 0x0195   |
| Data Size    | 24 bytes |
| Instructions | 4        |

```
      00 01 02 03 04 05 06 07  08 09 0A 0B 0C 0D 0E 0F
      -- -- -- -- -- -- -- --  -- -- -- -- -- -- -- --
0190:                03 00 00  07 7F 1A BD 00 66 01 00       ........f..
01A0: F8 FF FF 7F F8 FF FF 7F  6F 72 7A 30 00           ........orz0.   
```

#### Opcodes

```
  0: 0x0195 [0x03] ExtData[1]->WorkLocal[0] = Entity->Race
  1: 0x019A [0x1A] CALL_SUBROUTINE(address=0x00BD)
  2: 0x019D [0x66] LOAD_EXT_SCHEDULER_MAIN: Load scheduler "orz0" with entities [EventEntity, EventEntity], work=ExtData[1]->WorkLocal[1]
  3: 0x01AC [0x00] END_REQSTACK()
```

### Event 65535.9

#### Metadata

| Field        | Value    |
|--------------|----------|
| Entrypoint   | 0x01AD   |
| Data Size    | 24 bytes |
| Instructions | 4        |

```
      00 01 02 03 04 05 06 07  08 09 0A 0B 0C 0D 0E 0F
      -- -- -- -- -- -- -- --  -- -- -- -- -- -- -- --
01A0:                                         03 00 00               ...
01B0: 07 7F 1A BD 00 66 01 00  F8 FF FF 7F F8 FF FF 7F  .....f..........
01C0: 61 6D 61 30 00                                    ama0.           
```

#### Opcodes

```
  0: 0x01AD [0x03] ExtData[1]->WorkLocal[0] = Entity->Race
  1: 0x01B2 [0x1A] CALL_SUBROUTINE(address=0x00BD)
  2: 0x01B5 [0x66] LOAD_EXT_SCHEDULER_MAIN: Load scheduler "ama0" with entities [EventEntity, EventEntity], work=ExtData[1]->WorkLocal[1]
  3: 0x01C4 [0x00] END_REQSTACK()
```

### Event 65535.10

#### Metadata

| Field        | Value    |
|--------------|----------|
| Entrypoint   | 0x01C5   |
| Data Size    | 24 bytes |
| Instructions | 4        |

```
      00 01 02 03 04 05 06 07  08 09 0A 0B 0C 0D 0E 0F
      -- -- -- -- -- -- -- --  -- -- -- -- -- -- -- --
01C0:                03 00 00  07 7F 1A BD 00 66 01 00       ........f..
01D0: F8 FF FF 7F F8 FF FF 7F  6D 6F 74 30 00           ........mot0.   
```

#### Opcodes

```
  0: 0x01C5 [0x03] ExtData[1]->WorkLocal[0] = Entity->Race
  1: 0x01CA [0x1A] CALL_SUBROUTINE(address=0x00BD)
  2: 0x01CD [0x66] LOAD_EXT_SCHEDULER_MAIN: Load scheduler "mot0" with entities [EventEntity, EventEntity], work=ExtData[1]->WorkLocal[1]
  3: 0x01DC [0x00] END_REQSTACK()
```

### Event 65535.11

#### Metadata

| Field        | Value    |
|--------------|----------|
| Entrypoint   | 0x01DD   |
| Data Size    | 24 bytes |
| Instructions | 4        |

```
      00 01 02 03 04 05 06 07  08 09 0A 0B 0C 0D 0E 0F
      -- -- -- -- -- -- -- --  -- -- -- -- -- -- -- --
01D0:                                         03 00 00               ...
01E0: 07 7F 1A BD 00 66 01 00  F8 FF FF 7F F8 FF FF 7F  .....f..........
01F0: 6D 6F 74 31 00                                    mot1.           
```

#### Opcodes

```
  0: 0x01DD [0x03] ExtData[1]->WorkLocal[0] = Entity->Race
  1: 0x01E2 [0x1A] CALL_SUBROUTINE(address=0x00BD)
  2: 0x01E5 [0x66] LOAD_EXT_SCHEDULER_MAIN: Load scheduler "mot1" with entities [EventEntity, EventEntity], work=ExtData[1]->WorkLocal[1]
  3: 0x01F4 [0x00] END_REQSTACK()
```

### Event 65535.12

#### Metadata

| Field        | Value    |
|--------------|----------|
| Entrypoint   | 0x01F5   |
| Data Size    | 24 bytes |
| Instructions | 4        |

```
      00 01 02 03 04 05 06 07  08 09 0A 0B 0C 0D 0E 0F
      -- -- -- -- -- -- -- --  -- -- -- -- -- -- -- --
01F0:                03 00 00  07 7F 1A BD 00 66 01 00       ........f..
0200: F8 FF FF 7F F8 FF FF 7F  6D 6F 74 32 00           ........mot2.   
```

#### Opcodes

```
  0: 0x01F5 [0x03] ExtData[1]->WorkLocal[0] = Entity->Race
  1: 0x01FA [0x1A] CALL_SUBROUTINE(address=0x00BD)
  2: 0x01FD [0x66] LOAD_EXT_SCHEDULER_MAIN: Load scheduler "mot2" with entities [EventEntity, EventEntity], work=ExtData[1]->WorkLocal[1]
  3: 0x020C [0x00] END_REQSTACK()
```

### Event 65535.13

#### Metadata

| Field        | Value    |
|--------------|----------|
| Entrypoint   | 0x020D   |
| Data Size    | 24 bytes |
| Instructions | 4        |

```
      00 01 02 03 04 05 06 07  08 09 0A 0B 0C 0D 0E 0F
      -- -- -- -- -- -- -- --  -- -- -- -- -- -- -- --
0200:                                         03 00 00               ...
0210: 07 7F 1A BD 00 66 01 00  F8 FF FF 7F F8 FF FF 7F  .....f..........
0220: 61 72 75 30 00                                    aru0.           
```

#### Opcodes

```
  0: 0x020D [0x03] ExtData[1]->WorkLocal[0] = Entity->Race
  1: 0x0212 [0x1A] CALL_SUBROUTINE(address=0x00BD)
  2: 0x0215 [0x66] LOAD_EXT_SCHEDULER_MAIN: Load scheduler "aru0" with entities [EventEntity, EventEntity], work=ExtData[1]->WorkLocal[1]
  3: 0x0224 [0x00] END_REQSTACK()
```

### Event 65535.14

#### Metadata

| Field        | Value    |
|--------------|----------|
| Entrypoint   | 0x0225   |
| Data Size    | 29 bytes |
| Instructions | 5        |

```
      00 01 02 03 04 05 06 07  08 09 0A 0B 0C 0D 0E 0F
      -- -- -- -- -- -- -- --  -- -- -- -- -- -- -- --
0220:                03 00 00  07 7F 1A 98 00 07 01 00       ...........
0230: 01 80 66 01 00 F8 FF FF  7F F8 FF FF 7F 70 61 73  ..f..........pas
0240: 30 00                                             0.              
```

#### Opcodes

```
  0: 0x0225 [0x03] ExtData[1]->WorkLocal[0] = Entity->Race
  1: 0x022A [0x1A] CALL_SUBROUTINE(address=0x0098)
  2: 0x022D [0x07] ExtData[1]->WorkLocal[1] += 1*
  3: 0x0232 [0x66] LOAD_EXT_SCHEDULER_MAIN: Load scheduler "pas0" with entities [EventEntity, EventEntity], work=ExtData[1]->WorkLocal[1]
  4: 0x0241 [0x00] END_REQSTACK()
```

### Event 65535.15

#### Metadata

| Field        | Value    |
|--------------|----------|
| Entrypoint   | 0x0242   |
| Data Size    | 24 bytes |
| Instructions | 4        |

```
      00 01 02 03 04 05 06 07  08 09 0A 0B 0C 0D 0E 0F
      -- -- -- -- -- -- -- --  -- -- -- -- -- -- -- --
0240:       03 00 00 07 7F 1A  BD 00 66 01 00 F8 FF FF    ........f.....
0250: 7F F8 FF FF 7F 69 74 6D  30 00                    .....itm0.      
```

#### Opcodes

```
  0: 0x0242 [0x03] ExtData[1]->WorkLocal[0] = Entity->Race
  1: 0x0247 [0x1A] CALL_SUBROUTINE(address=0x00BD)
  2: 0x024A [0x66] LOAD_EXT_SCHEDULER_MAIN: Load scheduler "itm0" with entities [EventEntity, EventEntity], work=ExtData[1]->WorkLocal[1]
  3: 0x0259 [0x00] END_REQSTACK()
```

### Event 65535.16

#### Metadata

| Field        | Value    |
|--------------|----------|
| Entrypoint   | 0x025A   |
| Data Size    | 24 bytes |
| Instructions | 4        |

```
      00 01 02 03 04 05 06 07  08 09 0A 0B 0C 0D 0E 0F
      -- -- -- -- -- -- -- --  -- -- -- -- -- -- -- --
0250:                                03 00 00 07 7F 1A            ......
0260: BD 00 66 01 00 F8 FF FF  7F F8 FF FF 7F 6D 61 62  ..f..........mab
0270: 30 00                                             0.              
```

#### Opcodes

```
  0: 0x025A [0x03] ExtData[1]->WorkLocal[0] = Entity->Race
  1: 0x025F [0x1A] CALL_SUBROUTINE(address=0x00BD)
  2: 0x0262 [0x66] LOAD_EXT_SCHEDULER_MAIN: Load scheduler "mab0" with entities [EventEntity, EventEntity], work=ExtData[1]->WorkLocal[1]
  3: 0x0271 [0x00] END_REQSTACK()
```

### Event 65535.17

#### Metadata

| Field        | Value    |
|--------------|----------|
| Entrypoint   | 0x0272   |
| Data Size    | 24 bytes |
| Instructions | 4        |

```
      00 01 02 03 04 05 06 07  08 09 0A 0B 0C 0D 0E 0F
      -- -- -- -- -- -- -- --  -- -- -- -- -- -- -- --
0270:       03 00 00 07 7F 1A  BD 00 66 01 00 F8 FF FF    ........f.....
0280: 7F F8 FF FF 7F 6D 61 6C  31 00                    .....mal1.      
```

#### Opcodes

```
  0: 0x0272 [0x03] ExtData[1]->WorkLocal[0] = Entity->Race
  1: 0x0277 [0x1A] CALL_SUBROUTINE(address=0x00BD)
  2: 0x027A [0x66] LOAD_EXT_SCHEDULER_MAIN: Load scheduler "mal1" with entities [EventEntity, EventEntity], work=ExtData[1]->WorkLocal[1]
  3: 0x0289 [0x00] END_REQSTACK()
```

### Event 65535.18

#### Metadata

| Field        | Value    |
|--------------|----------|
| Entrypoint   | 0x028A   |
| Data Size    | 24 bytes |
| Instructions | 4        |

```
      00 01 02 03 04 05 06 07  08 09 0A 0B 0C 0D 0E 0F
      -- -- -- -- -- -- -- --  -- -- -- -- -- -- -- --
0280:                                03 00 00 07 7F 1A            ......
0290: BD 00 66 01 00 F8 FF FF  7F F8 FF FF 7F 6D 61 62  ..f..........mab
02A0: 32 00                                             2.              
```

#### Opcodes

```
  0: 0x028A [0x03] ExtData[1]->WorkLocal[0] = Entity->Race
  1: 0x028F [0x1A] CALL_SUBROUTINE(address=0x00BD)
  2: 0x0292 [0x66] LOAD_EXT_SCHEDULER_MAIN: Load scheduler "mab2" with entities [EventEntity, EventEntity], work=ExtData[1]->WorkLocal[1]
  3: 0x02A1 [0x00] END_REQSTACK()
```

### Event 65535.19

#### Metadata

| Field        | Value    |
|--------------|----------|
| Entrypoint   | 0x02A2   |
| Data Size    | 29 bytes |
| Instructions | 5        |

```
      00 01 02 03 04 05 06 07  08 09 0A 0B 0C 0D 0E 0F
      -- -- -- -- -- -- -- --  -- -- -- -- -- -- -- --
02A0:       03 00 00 07 7F 1A  BD 00 07 01 00 01 80 66    .............f
02B0: 01 00 F8 FF FF 7F F8 FF  FF 7F 6F 6F 75 30 00     ..........oou0. 
```

#### Opcodes

```
  0: 0x02A2 [0x03] ExtData[1]->WorkLocal[0] = Entity->Race
  1: 0x02A7 [0x1A] CALL_SUBROUTINE(address=0x00BD)
  2: 0x02AA [0x07] ExtData[1]->WorkLocal[1] += 1*
  3: 0x02AF [0x66] LOAD_EXT_SCHEDULER_MAIN: Load scheduler "oou0" with entities [EventEntity, EventEntity], work=ExtData[1]->WorkLocal[1]
  4: 0x02BE [0x00] END_REQSTACK()
```

### Event 65535.20

#### Metadata

| Field        | Value    |
|--------------|----------|
| Entrypoint   | 0x02BF   |
| Data Size    | 29 bytes |
| Instructions | 5        |

```
      00 01 02 03 04 05 06 07  08 09 0A 0B 0C 0D 0E 0F
      -- -- -- -- -- -- -- --  -- -- -- -- -- -- -- --
02B0:                                               03                 .
02C0: 00 00 07 7F 1A BD 00 07  01 00 01 80 66 01 00 F8  ............f...
02D0: FF FF 7F F8 FF FF 7F 6F  6F 75 31 00              .......oou1.    
```

#### Opcodes

```
  0: 0x02BF [0x03] ExtData[1]->WorkLocal[0] = Entity->Race
  1: 0x02C4 [0x1A] CALL_SUBROUTINE(address=0x00BD)
  2: 0x02C7 [0x07] ExtData[1]->WorkLocal[1] += 1*
  3: 0x02CC [0x66] LOAD_EXT_SCHEDULER_MAIN: Load scheduler "oou1" with entities [EventEntity, EventEntity], work=ExtData[1]->WorkLocal[1]
  4: 0x02DB [0x00] END_REQSTACK()
```

### Event 65535.21

#### Metadata

| Field        | Value    |
|--------------|----------|
| Entrypoint   | 0x02DC   |
| Data Size    | 29 bytes |
| Instructions | 5        |

```
      00 01 02 03 04 05 06 07  08 09 0A 0B 0C 0D 0E 0F
      -- -- -- -- -- -- -- --  -- -- -- -- -- -- -- --
02D0:                                      03 00 00 07              ....
02E0: 7F 1A BD 00 07 01 00 01  80 66 01 00 F8 FF FF 7F  .........f......
02F0: F8 FF FF 7F 6F 6F 75 32  00                       ....oou2.       
```

#### Opcodes

```
  0: 0x02DC [0x03] ExtData[1]->WorkLocal[0] = Entity->Race
  1: 0x02E1 [0x1A] CALL_SUBROUTINE(address=0x00BD)
  2: 0x02E4 [0x07] ExtData[1]->WorkLocal[1] += 1*
  3: 0x02E9 [0x66] LOAD_EXT_SCHEDULER_MAIN: Load scheduler "oou2" with entities [EventEntity, EventEntity], work=ExtData[1]->WorkLocal[1]
  4: 0x02F8 [0x00] END_REQSTACK()
```

### Event 65535.22

#### Metadata

| Field        | Value    |
|--------------|----------|
| Entrypoint   | 0x02F9   |
| Data Size    | 27 bytes |
| Instructions | 7        |

```
      00 01 02 03 04 05 06 07  08 09 0A 0B 0C 0D 0E 0F
      -- -- -- -- -- -- -- --  -- -- -- -- -- -- -- --
02F0:                             32 0E 80 1F 00 0F 80           2......
0300: 10 80 11 80 1F 01 1C 12  80 4B F0 FF FF 7F 13 80  .........K......
0310: 1C 14 80 00                                       ....            
```

#### Opcodes

```
  0: 0x02F9 [0x32] ExtData[1]->MainSpeed = 13* * 0.1
  1: 0x02FC [0x1F] MOVE_ENTITY: EventEntity moves to X=338.936*, Z=-259.673*, Y=1.280*
  2: 0x0304 [0x1F] MOVE_ENTITY: Update entity position (mode=1)
  3: 0x0306 [0x1C] WAIT(30* ticks)
  4: 0x0309 [0x4B] UPDATE_ENTITY_YAW(entity=LocalPlayer, yaw=0.6°*)
  5: 0x0310 [0x1C] WAIT(60* ticks)
  6: 0x0313 [0x00] END_REQSTACK()
```

### Event 65535.23

#### Metadata

| Field        | Value    |
|--------------|----------|
| Entrypoint   | 0x0314   |
| Data Size    | 22 bytes |
| Instructions | 6        |

```
      00 01 02 03 04 05 06 07  08 09 0A 0B 0C 0D 0E 0F
      -- -- -- -- -- -- -- --  -- -- -- -- -- -- -- --
0310:             32 0E 80 1F  00 15 80 16 80 17 80 1F      2...........
0320: 01 1E F9 51 10 01 1C 12  80 00                    ...Q......      
```

#### Opcodes

```
  0: 0x0314 [0x32] ExtData[1]->MainSpeed = 13* * 0.1
  1: 0x0317 [0x1F] MOVE_ENTITY: EventEntity moves to X=320.904*, Z=-265.335*, Y=4.000*
  2: 0x031F [0x1F] MOVE_ENTITY: Update entity position (mode=1)
  3: 0x0321 [0x1E] EventEntity looks at Arciela (ID: 17846777/0x011051F9) and starts talking
  4: 0x0326 [0x1C] WAIT(30* ticks)
  5: 0x0329 [0x00] END_REQSTACK()
```

### Event 65535.24

#### Metadata

| Field        | Value    |
|--------------|----------|
| Entrypoint   | 0x032A   |
| Data Size    | 14 bytes |
| Instructions | 4        |

```
      00 01 02 03 04 05 06 07  08 09 0A 0B 0C 0D 0E 0F
      -- -- -- -- -- -- -- --  -- -- -- -- -- -- -- --
0320:                                32 0E 80 1F 00 18            2.....
0330: 80 19 80 1A 80 1F 01 00                           ........        
```

#### Opcodes

```
  0: 0x032A [0x32] ExtData[1]->MainSpeed = 13* * 0.1
  1: 0x032D [0x1F] MOVE_ENTITY: EventEntity moves to X=312.627*, Z=-261.242*, Y=3.656*
  2: 0x0335 [0x1F] MOVE_ENTITY: Update entity position (mode=1)
  3: 0x0337 [0x00] END_REQSTACK()
```

### Event 65535.25

#### Metadata

| Field        | Value    |
|--------------|----------|
| Entrypoint   | 0x0338   |
| Data Size    | 17 bytes |
| Instructions | 5        |

```
      00 01 02 03 04 05 06 07  08 09 0A 0B 0C 0D 0E 0F
      -- -- -- -- -- -- -- --  -- -- -- -- -- -- -- --
0330:                          32 0E 80 1F 00 1B 80 1C          2.......
0340: 80 1D 80 1F 01 1C 12 80  00                       .........       
```

#### Opcodes

```
  0: 0x0338 [0x32] ExtData[1]->MainSpeed = 13* * 0.1
  1: 0x033B [0x1F] MOVE_ENTITY: EventEntity moves to X=275.796*, Z=-234.396*, Y=-0.027*
  2: 0x0343 [0x1F] MOVE_ENTITY: Update entity position (mode=1)
  3: 0x0345 [0x1C] WAIT(30* ticks)
  4: 0x0348 [0x00] END_REQSTACK()
```

### Event 65535.26

#### Metadata

| Field        | Value    |
|--------------|----------|
| Entrypoint   | 0x0349   |
| Data Size    | 24 bytes |
| Instructions | 4        |

```
      00 01 02 03 04 05 06 07  08 09 0A 0B 0C 0D 0E 0F
      -- -- -- -- -- -- -- --  -- -- -- -- -- -- -- --
0340:                             03 00 00 07 7F 1A 73           ......s
0350: 00 66 01 00 F8 FF FF 7F  F8 FF FF 7F 74 6C 6B 30  .f..........tlk0
0360: 00                                                .               
```

#### Opcodes

```
  0: 0x0349 [0x03] ExtData[1]->WorkLocal[0] = Entity->Race
  1: 0x034E [0x1A] CALL_SUBROUTINE(address=0x0073)
  2: 0x0351 [0x66] LOAD_EXT_SCHEDULER_MAIN: Load scheduler "tlk0" with entities [EventEntity, EventEntity], work=ExtData[1]->WorkLocal[1]
  3: 0x0360 [0x00] END_REQSTACK()
```

### Event 65535.27

#### Metadata

| Field        | Value    |
|--------------|----------|
| Entrypoint   | 0x0361   |
| Data Size    | 24 bytes |
| Instructions | 4        |

```
      00 01 02 03 04 05 06 07  08 09 0A 0B 0C 0D 0E 0F
      -- -- -- -- -- -- -- --  -- -- -- -- -- -- -- --
0360:    03 00 00 07 7F 1A 73  00 66 01 00 F8 FF FF 7F   ......s.f......
0370: F8 FF FF 7F 74 6C 6B 31  00                       ....tlk1.       
```

#### Opcodes

```
  0: 0x0361 [0x03] ExtData[1]->WorkLocal[0] = Entity->Race
  1: 0x0366 [0x1A] CALL_SUBROUTINE(address=0x0073)
  2: 0x0369 [0x66] LOAD_EXT_SCHEDULER_MAIN: Load scheduler "tlk1" with entities [EventEntity, EventEntity], work=ExtData[1]->WorkLocal[1]
  3: 0x0378 [0x00] END_REQSTACK()
```

### Event 65535.28

#### Metadata

| Field        | Value    |
|--------------|----------|
| Entrypoint   | 0x0379   |
| Data Size    | 38 bytes |
| Instructions | 5        |

```
      00 01 02 03 04 05 06 07  08 09 0A 0B 0C 0D 0E 0F
      -- -- -- -- -- -- -- --  -- -- -- -- -- -- -- --
0370:                             22 00 2F 00 F8 FF FF           "./....
0380: 7F B6 0B 1E 80 1F 80 20  80 21 80 22 80 22 80 22  ....... .!."."."
0390: 80 0B 80 23 80 6C F8 FF  FF 7F 24 80 01 80 00     ...#.l....$.... 
```

#### Opcodes

```
  0: 0x0379 [0x22] ENTITY_HIDE_FLAG(enabled=0x00)
  1: 0x037B [0x2F] EventEntity->Render.Flags0 &= ~0x80000 // Bit 19
  2: 0x0381 [0xB6] ENTITY_APPEARANCE_HANDLER(case=Full entity look, race=8*, hair=7*, head=145*, body=79*, hands=76*, legs=76*, feet=76*, main=201*, sub=24*)
  3: 0x0395 [0x6C] FADE_ENTITY_COLOR(entity_id=EventEntity, end_alpha=32*, fade_time=1*)
  4: 0x039E [0x00] END_REQSTACK()
```

### Event 65535.29

#### Metadata

| Field        | Value    |
|--------------|----------|
| Entrypoint   | 0x039F   |
| Data Size    | 38 bytes |
| Instructions | 5        |

```
      00 01 02 03 04 05 06 07  08 09 0A 0B 0C 0D 0E 0F
      -- -- -- -- -- -- -- --  -- -- -- -- -- -- -- --
0390:                                               22                 "
03A0: 00 2F 00 F8 FF FF 7F B6  0B 1F 80 1F 80 20 80 21  ./........... .!
03B0: 80 22 80 22 80 22 80 0B  80 23 80 6C F8 FF FF 7F  ."."."...#.l....
03C0: 25 80 01 80 00                                    %....           
```

#### Opcodes

```
  0: 0x039F [0x22] ENTITY_HIDE_FLAG(enabled=0x00)
  1: 0x03A1 [0x2F] EventEntity->Render.Flags0 &= ~0x80000 // Bit 19
  2: 0x03A7 [0xB6] ENTITY_APPEARANCE_HANDLER(case=Full entity look, race=7*, hair=7*, head=145*, body=79*, hands=76*, legs=76*, feet=76*, main=201*, sub=24*)
  3: 0x03BB [0x6C] FADE_ENTITY_COLOR(entity_id=EventEntity, end_alpha=48*, fade_time=1*)
  4: 0x03C4 [0x00] END_REQSTACK()
```

### Event 65535.30

#### Metadata

| Field        | Value    |
|--------------|----------|
| Entrypoint   | 0x03C5   |
| Data Size    | 38 bytes |
| Instructions | 5        |

```
      00 01 02 03 04 05 06 07  08 09 0A 0B 0C 0D 0E 0F
      -- -- -- -- -- -- -- --  -- -- -- -- -- -- -- --
03C0:                22 00 2F  00 F8 FF FF 7F B6 0B 00       "./........
03D0: 80 1F 80 20 80 21 80 22  80 22 80 22 80 0B 80 23  ... .!."."."...#
03E0: 80 6C F8 FF FF 7F 26 80  01 80 00                 .l....&....     
```

#### Opcodes

```
  0: 0x03C5 [0x22] ENTITY_HIDE_FLAG(enabled=0x00)
  1: 0x03C7 [0x2F] EventEntity->Render.Flags0 &= ~0x80000 // Bit 19
  2: 0x03CD [0xB6] ENTITY_APPEARANCE_HANDLER(case=Full entity look, race=5*, hair=7*, head=145*, body=79*, hands=76*, legs=76*, feet=76*, main=201*, sub=24*)
  3: 0x03E1 [0x6C] FADE_ENTITY_COLOR(entity_id=EventEntity, end_alpha=64*, fade_time=1*)
  4: 0x03EA [0x00] END_REQSTACK()
```

### Event 65535.31

#### Metadata

| Field        | Value    |
|--------------|----------|
| Entrypoint   | 0x03EB   |
| Data Size    | 37 bytes |
| Instructions | 5        |

```
      00 01 02 03 04 05 06 07  08 09 0A 0B 0C 0D 0E 0F
      -- -- -- -- -- -- -- --  -- -- -- -- -- -- -- --
03E0:                                   03 00 00 07 7F             .....
03F0: 1A 73 00 66 01 00 F8 FF  FF 7F F8 FF FF 7F 73 69  .s.f..........si
0400: 74 30 53 F8 FF FF 7F F8  FF FF 7F 73 69 74 30 00  t0S........sit0.
```

#### Opcodes

```
  0: 0x03EB [0x03] ExtData[1]->WorkLocal[0] = Entity->Race
  1: 0x03F0 [0x1A] CALL_SUBROUTINE(address=0x0073)
  2: 0x03F3 [0x66] LOAD_EXT_SCHEDULER_MAIN: Load scheduler "sit0" with entities [EventEntity, EventEntity], work=ExtData[1]->WorkLocal[1]
  3: 0x0402 [0x53] WAIT_SCHEDULER_TASK: Wait for scheduler "sit0" with entities [EventEntity, EventEntity]
  4: 0x040F [0x00] END_REQSTACK()
```

### Event 65535.32

#### Metadata

| Field        | Value    |
|--------------|----------|
| Entrypoint   | 0x0410   |
| Data Size    | 37 bytes |
| Instructions | 5        |

```
      00 01 02 03 04 05 06 07  08 09 0A 0B 0C 0D 0E 0F
      -- -- -- -- -- -- -- --  -- -- -- -- -- -- -- --
0410: 03 00 00 07 7F 1A 73 00  66 01 00 F8 FF FF 7F F8  ......s.f.......
0420: FF FF 7F 73 69 74 31 53  F8 FF FF 7F F8 FF FF 7F  ...sit1S........
0430: 73 69 74 31 00                                    sit1.           
```

#### Opcodes

```
  0: 0x0410 [0x03] ExtData[1]->WorkLocal[0] = Entity->Race
  1: 0x0415 [0x1A] CALL_SUBROUTINE(address=0x0073)
  2: 0x0418 [0x66] LOAD_EXT_SCHEDULER_MAIN: Load scheduler "sit1" with entities [EventEntity, EventEntity], work=ExtData[1]->WorkLocal[1]
  3: 0x0427 [0x53] WAIT_SCHEDULER_TASK: Wait for scheduler "sit1" with entities [EventEntity, EventEntity]
  4: 0x0434 [0x00] END_REQSTACK()
```

### Event 65535.33

#### Metadata

| Field        | Value    |
|--------------|----------|
| Entrypoint   | 0x0435   |
| Data Size    | 42 bytes |
| Instructions | 6        |

```
      00 01 02 03 04 05 06 07  08 09 0A 0B 0C 0D 0E 0F
      -- -- -- -- -- -- -- --  -- -- -- -- -- -- -- --
0430:                03 00 00  07 7F 1A 73 00 66 01 00       ......s.f..
0440: F8 FF FF 7F F8 FF FF 7F  74 6C 6B 30 1C 14 80 66  ........tlk0...f
0450: 01 00 F8 FF FF 7F F8 FF  FF 7F 74 6C 6B 31 00     ..........tlk1. 
```

#### Opcodes

```
  0: 0x0435 [0x03] ExtData[1]->WorkLocal[0] = Entity->Race
  1: 0x043A [0x1A] CALL_SUBROUTINE(address=0x0073)
  2: 0x043D [0x66] LOAD_EXT_SCHEDULER_MAIN: Load scheduler "tlk0" with entities [EventEntity, EventEntity], work=ExtData[1]->WorkLocal[1]
  3: 0x044C [0x1C] WAIT(60* ticks)
  4: 0x044F [0x66] LOAD_EXT_SCHEDULER_MAIN: Load scheduler "tlk1" with entities [EventEntity, EventEntity], work=ExtData[1]->WorkLocal[1]
  5: 0x045E [0x00] END_REQSTACK()
```

### Event 65535.34

#### Metadata

| Field        | Value    |
|--------------|----------|
| Entrypoint   | 0x045F   |
| Data Size    | 14 bytes |
| Instructions | 4        |

```
      00 01 02 03 04 05 06 07  08 09 0A 0B 0C 0D 0E 0F
      -- -- -- -- -- -- -- --  -- -- -- -- -- -- -- --
0450:                                               32                 2
0460: 27 80 1F 00 28 80 29 80  2A 80 1F 01 00           '...(.).*....   
```

#### Opcodes

```
  0: 0x045F [0x32] ExtData[1]->MainSpeed = 40* * 0.1
  1: 0x0462 [0x1F] MOVE_ENTITY: EventEntity moves to X=179.978*, Z=-0.363*, Y=0.491*
  2: 0x046A [0x1F] MOVE_ENTITY: Update entity position (mode=1)
  3: 0x046C [0x00] END_REQSTACK()
```

### Event 65535.35

#### Metadata

| Field        | Value    |
|--------------|----------|
| Entrypoint   | 0x046D   |
| Data Size    | 14 bytes |
| Instructions | 4        |

```
      00 01 02 03 04 05 06 07  08 09 0A 0B 0C 0D 0E 0F
      -- -- -- -- -- -- -- --  -- -- -- -- -- -- -- --
0460:                                         32 27 80               2'.
0470: 1F 00 2B 80 2C 80 2D 80  1F 01 00                 ..+.,.-....     
```

#### Opcodes

```
  0: 0x046D [0x32] ExtData[1]->MainSpeed = 40* * 0.1
  1: 0x0470 [0x1F] MOVE_ENTITY: EventEntity moves to X=157.997*, Z=-49.857*, Y=0.392*
  2: 0x0478 [0x1F] MOVE_ENTITY: Update entity position (mode=1)
  3: 0x047A [0x00] END_REQSTACK()
```

### Event 65535.36

#### Metadata

| Field        | Value    |
|--------------|----------|
| Entrypoint   | 0x047B   |
| Data Size    | 14 bytes |
| Instructions | 4        |

```
      00 01 02 03 04 05 06 07  08 09 0A 0B 0C 0D 0E 0F
      -- -- -- -- -- -- -- --  -- -- -- -- -- -- -- --
0470:                                   32 27 80 1F 00             2'...
0480: 2E 80 2F 80 30 80 1F 01  00                       ../.0....       
```

#### Opcodes

```
  0: 0x047B [0x32] ExtData[1]->MainSpeed = 40* * 0.1
  1: 0x047E [0x1F] MOVE_ENTITY: EventEntity moves to X=156.027*, Z=-55.871*, Y=0.597*
  2: 0x0486 [0x1F] MOVE_ENTITY: Update entity position (mode=1)
  3: 0x0488 [0x00] END_REQSTACK()
```

### Event 65535.37

#### Metadata

| Field        | Value    |
|--------------|----------|
| Entrypoint   | 0x0489   |
| Data Size    | 24 bytes |
| Instructions | 4        |

```
      00 01 02 03 04 05 06 07  08 09 0A 0B 0C 0D 0E 0F
      -- -- -- -- -- -- -- --  -- -- -- -- -- -- -- --
0480:                             03 00 00 07 7F 1A BD           .......
0490: 00 66 01 00 F8 FF FF 7F  F8 FF FF 7F 6D 6F 74 30  .f..........mot0
04A0: 00                                                .               
```

#### Opcodes

```
  0: 0x0489 [0x03] ExtData[1]->WorkLocal[0] = Entity->Race
  1: 0x048E [0x1A] CALL_SUBROUTINE(address=0x00BD)
  2: 0x0491 [0x66] LOAD_EXT_SCHEDULER_MAIN: Load scheduler "mot0" with entities [EventEntity, EventEntity], work=ExtData[1]->WorkLocal[1]
  3: 0x04A0 [0x00] END_REQSTACK()
```

### Event 65535.38

#### Metadata

| Field        | Value    |
|--------------|----------|
| Entrypoint   | 0x04A1   |
| Data Size    | 24 bytes |
| Instructions | 4        |

```
      00 01 02 03 04 05 06 07  08 09 0A 0B 0C 0D 0E 0F
      -- -- -- -- -- -- -- --  -- -- -- -- -- -- -- --
04A0:    03 00 00 07 7F 1A BD  00 66 01 00 F8 FF FF 7F   ........f......
04B0: F8 FF FF 7F 6D 6F 74 31  00                       ....mot1.       
```

#### Opcodes

```
  0: 0x04A1 [0x03] ExtData[1]->WorkLocal[0] = Entity->Race
  1: 0x04A6 [0x1A] CALL_SUBROUTINE(address=0x00BD)
  2: 0x04A9 [0x66] LOAD_EXT_SCHEDULER_MAIN: Load scheduler "mot1" with entities [EventEntity, EventEntity], work=ExtData[1]->WorkLocal[1]
  3: 0x04B8 [0x00] END_REQSTACK()
```

### Event 65535.39

#### Metadata

| Field        | Value    |
|--------------|----------|
| Entrypoint   | 0x04B9   |
| Data Size    | 24 bytes |
| Instructions | 4        |

```
      00 01 02 03 04 05 06 07  08 09 0A 0B 0C 0D 0E 0F
      -- -- -- -- -- -- -- --  -- -- -- -- -- -- -- --
04B0:                             03 00 00 07 7F 1A BD           .......
04C0: 00 66 01 00 F8 FF FF 7F  F8 FF FF 7F 61 72 75 30  .f..........aru0
04D0: 00                                                .               
```

#### Opcodes

```
  0: 0x04B9 [0x03] ExtData[1]->WorkLocal[0] = Entity->Race
  1: 0x04BE [0x1A] CALL_SUBROUTINE(address=0x00BD)
  2: 0x04C1 [0x66] LOAD_EXT_SCHEDULER_MAIN: Load scheduler "aru0" with entities [EventEntity, EventEntity], work=ExtData[1]->WorkLocal[1]
  3: 0x04D0 [0x00] END_REQSTACK()
```

### Event 65535.40

#### Metadata

| Field        | Value    |
|--------------|----------|
| Entrypoint   | 0x04D1   |
| Data Size    | 13 bytes |
| Instructions | 3        |

```
      00 01 02 03 04 05 06 07  08 09 0A 0B 0C 0D 0E 0F
      -- -- -- -- -- -- -- --  -- -- -- -- -- -- -- --
04D0:    29 03 F0 FF FF 7F 06  1E 02 52 10 01 00         )........R...  
```

#### Opcodes

```
  0: 0x04D1 [0x29] REQ_SET_WAIT(priority=0x03, entity_id=LocalPlayer, tag_num=0x06)
  1: 0x04D8 [0x1E] EventEntity looks at Lhe Lhangavo (ID: 17846786/0x01105202) and starts talking
  2: 0x04DD [0x00] END_REQSTACK()
```

### Event 65535.41

#### Metadata

| Field        | Value    |
|--------------|----------|
| Entrypoint   | 0x04DE   |
| Data Size    | 22 bytes |
| Instructions | 6        |

```
      00 01 02 03 04 05 06 07  08 09 0A 0B 0C 0D 0E 0F
      -- -- -- -- -- -- -- --  -- -- -- -- -- -- -- --
04D0:                                            32 0E                2.
04E0: 80 1F 00 31 80 32 80 08  80 1F 01 1E 02 52 10 01  ...1.2.......R..
04F0: 1C 12 80 00                                       ....            
```

#### Opcodes

```
  0: 0x04DE [0x32] ExtData[1]->MainSpeed = 13* * 0.1
  1: 0x04E1 [0x1F] MOVE_ENTITY: EventEntity moves to X=-167.759*, Z=-39.186*, Y=0.000*
  2: 0x04E9 [0x1F] MOVE_ENTITY: Update entity position (mode=1)
  3: 0x04EB [0x1E] EventEntity looks at Lhe Lhangavo (ID: 17846786/0x01105202) and starts talking
  4: 0x04F0 [0x1C] WAIT(30* ticks)
  5: 0x04F3 [0x00] END_REQSTACK()
```

### Event 65535.42

#### Metadata

| Field        | Value   |
|--------------|---------|
| Entrypoint   | 0x04F4  |
| Data Size    | 6 bytes |
| Instructions | 2       |

```
      00 01 02 03 04 05 06 07  08 09 0A 0B 0C 0D 0E 0F
      -- -- -- -- -- -- -- --  -- -- -- -- -- -- -- --
04F0:             03 02 10 0B  7F 00                        ......      
```

#### Opcodes

```
  0: 0x04F4 [0x03] Work_Zone[2] = (Entity->Render.Flags01 >> 25) & 1
  1: 0x04F9 [0x00] END_REQSTACK()
```

### Event 65535.43

#### Metadata

| Field        | Value   |
|--------------|---------|
| Entrypoint   | 0x04FA  |
| Data Size    | 6 bytes |
| Instructions | 2       |

```
      00 01 02 03 04 05 06 07  08 09 0A 0B 0C 0D 0E 0F
      -- -- -- -- -- -- -- --  -- -- -- -- -- -- -- --
04F0:                                03 06 10 0B 7F 00            ......
```

#### Opcodes

```
  0: 0x04FA [0x03] Work_Zone[6] = (Entity->Render.Flags01 >> 25) & 1
  1: 0x04FF [0x00] END_REQSTACK()
```

### Event 65535.44

#### Metadata

| Field        | Value   |
|--------------|---------|
| Entrypoint   | 0x0500  |
| Data Size    | 6 bytes |
| Instructions | 2       |

```
      00 01 02 03 04 05 06 07  08 09 0A 0B 0C 0D 0E 0F
      -- -- -- -- -- -- -- --  -- -- -- -- -- -- -- --
0500: 03 02 10 07 7F 00                                 ......          
```

#### Opcodes

```
  0: 0x0500 [0x03] Work_Zone[2] = Entity->Race
  1: 0x0505 [0x00] END_REQSTACK()
```

### Event 65535.45

#### Metadata

| Field        | Value   |
|--------------|---------|
| Entrypoint   | 0x0506  |
| Data Size    | 6 bytes |
| Instructions | 2       |

```
      00 01 02 03 04 05 06 07  08 09 0A 0B 0C 0D 0E 0F
      -- -- -- -- -- -- -- --  -- -- -- -- -- -- -- --
0500:                   03 09  10 07 7F 00                    ......    
```

#### Opcodes

```
  0: 0x0506 [0x03] Work_Zone[9] = Entity->Race
  1: 0x050B [0x00] END_REQSTACK()
```

### Event 65535.46

#### Metadata

| Field        | Value   |
|--------------|---------|
| Entrypoint   | 0x050C  |
| Data Size    | 6 bytes |
| Instructions | 2       |

```
      00 01 02 03 04 05 06 07  08 09 0A 0B 0C 0D 0E 0F
      -- -- -- -- -- -- -- --  -- -- -- -- -- -- -- --
0500:                                      03 02 10 06              ....
0510: 7F 00                                             ..              
```

#### Opcodes

```
  0: 0x050C [0x03] Work_Zone[2] = Entity->JobId (if LocalPlayer)
  1: 0x0511 [0x00] END_REQSTACK()
```

### Event 65535.47

#### Metadata

| Field        | Value    |
|--------------|----------|
| Entrypoint   | 0x0512   |
| Data Size    | 10 bytes |
| Instructions | 2        |

```
      00 01 02 03 04 05 06 07  08 09 0A 0B 0C 0D 0E 0F
      -- -- -- -- -- -- -- --  -- -- -- -- -- -- -- --
0510:       37 33 80 34 80 35  80 36 80 00                73.4.5.6..    
```

#### Opcodes

```
  0: 0x0512 [0x37] UPDATE_EVENT_POSITION_AND_DIR: x=398.068*, z=172.808*, y=0.520*, direction=163.0°*
  1: 0x051B [0x00] END_REQSTACK()
```

### Event 65535.48

#### Metadata

| Field        | Value    |
|--------------|----------|
| Entrypoint   | 0x051C   |
| Data Size    | 14 bytes |
| Instructions | 4        |

```
      00 01 02 03 04 05 06 07  08 09 0A 0B 0C 0D 0E 0F
      -- -- -- -- -- -- -- --  -- -- -- -- -- -- -- --
0510:                                      32 27 80 1F              2'..
0520: 00 37 80 38 80 39 80 1F  01 00                    .7.8.9....      
```

#### Opcodes

```
  0: 0x051C [0x32] ExtData[1]->MainSpeed = 40* * 0.1
  1: 0x051F [0x1F] MOVE_ENTITY: EventEntity moves to X=388.524*, Z=170.057*, Y=0.601*
  2: 0x0527 [0x1F] MOVE_ENTITY: Update entity position (mode=1)
  3: 0x0529 [0x00] END_REQSTACK()
```

### Event 65535.49

#### Metadata

| Field        | Value    |
|--------------|----------|
| Entrypoint   | 0x052A   |
| Data Size    | 32 bytes |
| Instructions | 8        |

```
      00 01 02 03 04 05 06 07  08 09 0A 0B 0C 0D 0E 0F
      -- -- -- -- -- -- -- --  -- -- -- -- -- -- -- --
0520:                                32 0E 80 1F 00 3A            2....:
0530: 80 3B 80 39 80 1F 01 1C  00 80 4A F0 FF FF 7F 03  .;.9......J.....
0540: 52 10 01 6F 76 F0 FF FF  7F 00                    R..ov.....      
```

#### Opcodes

```
  0: 0x052A [0x32] ExtData[1]->MainSpeed = 13* * 0.1
  1: 0x052D [0x1F] MOVE_ENTITY: EventEntity moves to X=382.919*, Z=168.915*, Y=0.601*
  2: 0x0535 [0x1F] MOVE_ENTITY: Update entity position (mode=1)
  3: 0x0537 [0x1C] WAIT(5* ticks)
  4: 0x053A [0x4A] LocalPlayer looks at Teodor (ID: 17846787/0x01105203)
  5: 0x0543 [0x6F] WAIT_FRAME_DELAY: Yield until WaitTime reaches zero
  6: 0x0544 [0x76] CHECK_ENTITY_RENDER_FLAGS: Wait until LocalPlayer Render.Flags0 and Render.Flags3 conditions are met
  7: 0x0549 [0x00] END_REQSTACK()
```

### Event 65535.50

#### Metadata

| Field        | Value    |
|--------------|----------|
| Entrypoint   | 0x054A   |
| Data Size    | 65 bytes |
| Instructions | 7        |

```
      00 01 02 03 04 05 06 07  08 09 0A 0B 0C 0D 0E 0F
      -- -- -- -- -- -- -- --  -- -- -- -- -- -- -- --
0540:                                03 00 00 07 7F 1A            ......
0550: 73 00 66 01 00 F8 FF FF  7F F8 FF FF 7F 74 6C 6B  s.f..........tlk
0560: 30 53 F8 FF FF 7F F8 FF  FF 7F 74 6C 6B 30 66 01  0S........tlk0f.
0570: 00 F8 FF FF 7F F8 FF FF  7F 74 6C 6B 31 53 F8 FF  .........tlk1S..
0580: FF 7F F8 FF FF 7F 74 6C  6B 31 00                 ......tlk1.     
```

#### Opcodes

```
  0: 0x054A [0x03] ExtData[1]->WorkLocal[0] = Entity->Race
  1: 0x054F [0x1A] CALL_SUBROUTINE(address=0x0073)
  2: 0x0552 [0x66] LOAD_EXT_SCHEDULER_MAIN: Load scheduler "tlk0" with entities [EventEntity, EventEntity], work=ExtData[1]->WorkLocal[1]
  3: 0x0561 [0x53] WAIT_SCHEDULER_TASK: Wait for scheduler "tlk0" with entities [EventEntity, EventEntity]
  4: 0x056E [0x66] LOAD_EXT_SCHEDULER_MAIN: Load scheduler "tlk1" with entities [EventEntity, EventEntity], work=ExtData[1]->WorkLocal[1]
  5: 0x057D [0x53] WAIT_SCHEDULER_TASK: Wait for scheduler "tlk1" with entities [EventEntity, EventEntity]
  6: 0x058A [0x00] END_REQSTACK()
```

### Event 65535.51

#### Metadata

| Field        | Value    |
|--------------|----------|
| Entrypoint   | 0x058B   |
| Data Size    | 16 bytes |
| Instructions | 4        |

```
      00 01 02 03 04 05 06 07  08 09 0A 0B 0C 0D 0E 0F
      -- -- -- -- -- -- -- --  -- -- -- -- -- -- -- --
0580:                                   6E F8 FF FF 7F             n....
0590: 3C 80 99 F8 FF FF 7F 1C  0A 80 00                 <..........     
```

#### Opcodes

```
  0: 0x058B [0x6E] EventEntity uses emote 11*
  1: 0x0592 [0x99] Wait for EventEntity animation to complete
  2: 0x0597 [0x1C] WAIT(90* ticks)
  3: 0x059A [0x00] END_REQSTACK()
```

### Event 65535.52

#### Metadata

| Field        | Value    |
|--------------|----------|
| Entrypoint   | 0x059B   |
| Data Size    | 10 bytes |
| Instructions | 2        |

```
      00 01 02 03 04 05 06 07  08 09 0A 0B 0C 0D 0E 0F
      -- -- -- -- -- -- -- --  -- -- -- -- -- -- -- --
0590:                                   37 3D 80 3E 80             7=.>.
05A0: 08 80 3F 80 00                                    ..?..           
```

#### Opcodes

```
  0: 0x059B [0x37] UPDATE_EVENT_POSITION_AND_DIR: x=203.559*, z=83.146*, y=0.000*, direction=121.0°*
  1: 0x05A4 [0x00] END_REQSTACK()
```

### Event 65535.53

#### Metadata

| Field        | Value    |
|--------------|----------|
| Entrypoint   | 0x05A5   |
| Data Size    | 21 bytes |
| Instructions | 7        |

```
      00 01 02 03 04 05 06 07  08 09 0A 0B 0C 0D 0E 0F
      -- -- -- -- -- -- -- --  -- -- -- -- -- -- -- --
05A0:                32 27 80  1F 00 40 80 41 80 08 80       2'...@.A...
05B0: 1F 01 1E 05 52 10 01 6F  70 00                    ....R..op.      
```

#### Opcodes

```
  0: 0x05A5 [0x32] ExtData[1]->MainSpeed = 40* * 0.1
  1: 0x05A8 [0x1F] MOVE_ENTITY: EventEntity moves to X=201.935*, Z=79.901*, Y=0.000*
  2: 0x05B0 [0x1F] MOVE_ENTITY: Update entity position (mode=1)
  3: 0x05B2 [0x1E] EventEntity looks at Ingrid (ID: 17846789/0x01105205) and starts talking
  4: 0x05B7 [0x6F] WAIT_FRAME_DELAY: Yield until WaitTime reaches zero
  5: 0x05B8 [0x70] WAIT_ENTITY_RENDER_FLAG: Wait while EventEntity->Render.Flags3 bit 2 is set (cancel turn if not)
  6: 0x05B9 [0x00] END_REQSTACK()
```

### Event 65535.54

#### Metadata

| Field        | Value    |
|--------------|----------|
| Entrypoint   | 0x05BA   |
| Data Size    | 10 bytes |
| Instructions | 2        |

```
      00 01 02 03 04 05 06 07  08 09 0A 0B 0C 0D 0E 0F
      -- -- -- -- -- -- -- --  -- -- -- -- -- -- -- --
05B0:                                37 42 80 43 80 44            7B.C.D
05C0: 80 45 80 00                                       .E..            
```

#### Opcodes

```
  0: 0x05BA [0x37] UPDATE_EVENT_POSITION_AND_DIR: x=186.049*, z=60.113*, y=0.395*, direction=96.2°*
  1: 0x05C3 [0x00] END_REQSTACK()
```

### Event 65535.55

#### Metadata

| Field        | Value    |
|--------------|----------|
| Entrypoint   | 0x05C4   |
| Data Size    | 10 bytes |
| Instructions | 2        |

```
      00 01 02 03 04 05 06 07  08 09 0A 0B 0C 0D 0E 0F
      -- -- -- -- -- -- -- --  -- -- -- -- -- -- -- --
05C0:             37 46 80 47  80 48 80 49 80 00            7F.G.H.I..  
```

#### Opcodes

```
  0: 0x05C4 [0x37] UPDATE_EVENT_POSITION_AND_DIR: x=357.593*, z=184.066*, y=0.598*, direction=377476039.2°*
  1: 0x05CD [0x00] END_REQSTACK()
```

### Event 65535.56

#### Metadata

| Field        | Value    |
|--------------|----------|
| Entrypoint   | 0x05CE   |
| Data Size    | 10 bytes |
| Instructions | 2        |

```
      00 01 02 03 04 05 06 07  08 09 0A 0B 0C 0D 0E 0F
      -- -- -- -- -- -- -- --  -- -- -- -- -- -- -- --
05C0:                                            37 4A                7J
05D0: 80 4B 80 4C 80 4D 80 00                           .K.L.M..        
```

#### Opcodes

```
  0: 0x05CE [0x37] UPDATE_EVENT_POSITION_AND_DIR: x=276.481*, z=-254.293*, y=0.557*, direction=165.7°*
  1: 0x05D7 [0x00] END_REQSTACK()
```

### Event 65535.57

#### Metadata

| Field        | Value    |
|--------------|----------|
| Entrypoint   | 0x05D8   |
| Data Size    | 10 bytes |
| Instructions | 2        |

```
      00 01 02 03 04 05 06 07  08 09 0A 0B 0C 0D 0E 0F
      -- -- -- -- -- -- -- --  -- -- -- -- -- -- -- --
05D0:                          37 4E 80 4F 80 50 80 51          7N.O.P.Q
05E0: 80 00                                             ..              
```

#### Opcodes

```
  0: 0x05D8 [0x37] UPDATE_EVENT_POSITION_AND_DIR: x=296.764*, z=-258.573*, y=0.805*, direction=291.6°*
  1: 0x05E1 [0x00] END_REQSTACK()
```

### Event 65535.58

#### Metadata

| Field        | Value    |
|--------------|----------|
| Entrypoint   | 0x05E2   |
| Data Size    | 10 bytes |
| Instructions | 2        |

```
      00 01 02 03 04 05 06 07  08 09 0A 0B 0C 0D 0E 0F
      -- -- -- -- -- -- -- --  -- -- -- -- -- -- -- --
05E0:       37 52 80 53 80 54  80 55 80 00                7R.S.T.U..    
```

#### Opcodes

```
  0: 0x05E2 [0x37] UPDATE_EVENT_POSITION_AND_DIR: x=295.778*, z=-257.946*, y=0.802*, direction=39.4°*
  1: 0x05EB [0x00] END_REQSTACK()
```

### Event 65535.59

#### Metadata

| Field        | Value    |
|--------------|----------|
| Entrypoint   | 0x05EC   |
| Data Size    | 10 bytes |
| Instructions | 2        |

```
      00 01 02 03 04 05 06 07  08 09 0A 0B 0C 0D 0E 0F
      -- -- -- -- -- -- -- --  -- -- -- -- -- -- -- --
05E0:                                      37 56 80 57              7V.W
05F0: 80 58 80 59 80 00                                 .X.Y..          
```

#### Opcodes

```
  0: 0x05EC [0x37] UPDATE_EVENT_POSITION_AND_DIR: x=280.961*, z=-246.719*, y=0.202*, direction=241.2°*
  1: 0x05F5 [0x00] END_REQSTACK()
```

### Event 65535.60

#### Metadata

| Field        | Value    |
|--------------|----------|
| Entrypoint   | 0x05F6   |
| Data Size    | 14 bytes |
| Instructions | 4        |

```
      00 01 02 03 04 05 06 07  08 09 0A 0B 0C 0D 0E 0F
      -- -- -- -- -- -- -- --  -- -- -- -- -- -- -- --
05F0:                   32 0E  80 1F 00 5A 80 5B 80 5C        2....Z.[.\
0600: 80 1F 01 00                                       ....            
```

#### Opcodes

```
  0: 0x05F6 [0x32] ExtData[1]->MainSpeed = 13* * 0.1
  1: 0x05F9 [0x1F] MOVE_ENTITY: EventEntity moves to X=265.090*, Z=-229.780*, Y=0.430*
  2: 0x0601 [0x1F] MOVE_ENTITY: Update entity position (mode=1)
  3: 0x0603 [0x00] END_REQSTACK()
```

### Event 65535.61

#### Metadata

| Field        | Value    |
|--------------|----------|
| Entrypoint   | 0x0604   |
| Data Size    | 27 bytes |
| Instructions | 3        |

```
      00 01 02 03 04 05 06 07  08 09 0A 0B 0C 0D 0E 0F
      -- -- -- -- -- -- -- --  -- -- -- -- -- -- -- --
0600:             2C F8 FF FF  7F F8 FF FF 7F 63 6F 72      ,........cor
0610: 70 53 F8 FF FF 7F F8 FF  FF 7F 63 6F 72 70 00     pS........corp. 
```

#### Opcodes

```
  0: 0x0604 [0x2C] CREATE_SCHEDULER_TASK: Create scheduler "corp" with entities [EventEntity, EventEntity]
  1: 0x0611 [0x53] WAIT_SCHEDULER_TASK: Wait for scheduler "corp" with entities [EventEntity, EventEntity]
  2: 0x061E [0x00] END_REQSTACK()
```

### Event 65535.62

#### Metadata

| Field        | Value     |
|--------------|-----------|
| Entrypoint   | 0x061F    |
| Data Size    | 353 bytes |
| Instructions | 41        |

```
      00 01 02 03 04 05 06 07  08 09 0A 0B 0C 0D 0E 0F
      -- -- -- -- -- -- -- --  -- -- -- -- -- -- -- --
0610:                                               02                 .
0620: 07 7F 01 80 80 4B 06 66  5D 80 F8 FF FF 7F F8 FF  .....K.f].......
0630: FF 7F 74 6C 6B 30 1C 5E  80 66 5D 80 F8 FF FF 7F  ..tlk0.^.f].....
0640: F8 FF FF 7F 74 6C 6B 31  01 7F 07 02 07 7F 02 80  ....tlk1........
0650: 80 77 06 66 5F 80 F8 FF  FF 7F F8 FF FF 7F 74 6C  .w.f_.........tl
0660: 6B 30 1C 5E 80 66 5F 80  F8 FF FF 7F F8 FF FF 7F  k0.^.f_.........
0670: 74 6C 6B 31 01 7F 07 02  07 7F 60 80 80 A3 06 66  tlk1......`....f
0680: 61 80 F8 FF FF 7F F8 FF  FF 7F 74 6C 6B 30 1C 5E  a.........tlk0.^
0690: 80 66 61 80 F8 FF FF 7F  F8 FF FF 7F 74 6C 6B 31  .fa.........tlk1
06A0: 01 7F 07 02 07 7F 62 80  80 CF 06 66 63 80 F8 FF  ......b....fc...
06B0: FF 7F F8 FF FF 7F 74 6C  6B 30 1C 5E 80 66 63 80  ......tlk0.^.fc.
06C0: F8 FF FF 7F F8 FF FF 7F  74 6C 6B 31 01 7F 07 02  ........tlk1....
06D0: 07 7F 00 80 80 FB 06 66  64 80 F8 FF FF 7F F8 FF  .......fd.......
06E0: FF 7F 74 6C 6B 30 1C 5E  80 66 64 80 F8 FF FF 7F  ..tlk0.^.fd.....
06F0: F8 FF FF 7F 74 6C 6B 31  01 7F 07 02 07 7F 65 80  ....tlk1......e.
0700: 80 27 07 66 64 80 F8 FF  FF 7F F8 FF FF 7F 74 6C  .'.fd.........tl
0710: 6B 30 1C 5E 80 66 64 80  F8 FF FF 7F F8 FF FF 7F  k0.^.fd.........
0720: 74 6C 6B 31 01 7F 07 02  07 7F 1F 80 80 53 07 66  tlk1.........S.f
0730: 66 80 F8 FF FF 7F F8 FF  FF 7F 74 6C 6B 30 1C 5E  f.........tlk0.^
0740: 80 66 66 80 F8 FF FF 7F  F8 FF FF 7F 74 6C 6B 31  .ff.........tlk1
0750: 01 7F 07 02 07 7F 1E 80  80 7F 07 66 67 80 F8 FF  ...........fg...
0760: FF 7F F8 FF FF 7F 74 6C  6B 30 1C 5E 80 66 67 80  ......tlk0.^.fg.
0770: F8 FF FF 7F F8 FF FF 7F  74 6C 6B 31 01 7F 07 00  ........tlk1....
```

#### Opcodes

```
  0: 0x061F [0x02] IF !(Entity->Race == 1*) GOTO 0x064B
  1: 0x0627 [0x66] LOAD_EXT_SCHEDULER_MAIN: Load scheduler "tlk0" with entities [EventEntity, EventEntity], work=149*
  2: 0x0636 [0x1C] WAIT(120* ticks)
  3: 0x0639 [0x66] LOAD_EXT_SCHEDULER_MAIN: Load scheduler "tlk1" with entities [EventEntity, EventEntity], work=149*
  4: 0x0648 [0x01] GOTO 0x077F
  5: 0x064B [0x02] IF !(Entity->Race == 2*) GOTO 0x0677
  6: 0x0653 [0x66] LOAD_EXT_SCHEDULER_MAIN: Load scheduler "tlk0" with entities [EventEntity, EventEntity], work=159*
  7: 0x0662 [0x1C] WAIT(120* ticks)
  8: 0x0665 [0x66] LOAD_EXT_SCHEDULER_MAIN: Load scheduler "tlk1" with entities [EventEntity, EventEntity], work=159*
  9: 0x0674 [0x01] GOTO 0x077F
 10: 0x0677 [0x02] IF !(Entity->Race == 3*) GOTO 0x06A3
 11: 0x067F [0x66] LOAD_EXT_SCHEDULER_MAIN: Load scheduler "tlk0" with entities [EventEntity, EventEntity], work=169*
 12: 0x068E [0x1C] WAIT(120* ticks)
 13: 0x0691 [0x66] LOAD_EXT_SCHEDULER_MAIN: Load scheduler "tlk1" with entities [EventEntity, EventEntity], work=169*
 14: 0x06A0 [0x01] GOTO 0x077F
 15: 0x06A3 [0x02] IF !(Entity->Race == 4*) GOTO 0x06CF
 16: 0x06AB [0x66] LOAD_EXT_SCHEDULER_MAIN: Load scheduler "tlk0" with entities [EventEntity, EventEntity], work=179*
 17: 0x06BA [0x1C] WAIT(120* ticks)
 18: 0x06BD [0x66] LOAD_EXT_SCHEDULER_MAIN: Load scheduler "tlk1" with entities [EventEntity, EventEntity], work=179*
 19: 0x06CC [0x01] GOTO 0x077F
 20: 0x06CF [0x02] IF !(Entity->Race == 5*) GOTO 0x06FB
 21: 0x06D7 [0x66] LOAD_EXT_SCHEDULER_MAIN: Load scheduler "tlk0" with entities [EventEntity, EventEntity], work=189*
 22: 0x06E6 [0x1C] WAIT(120* ticks)
 23: 0x06E9 [0x66] LOAD_EXT_SCHEDULER_MAIN: Load scheduler "tlk1" with entities [EventEntity, EventEntity], work=189*
 24: 0x06F8 [0x01] GOTO 0x077F
 25: 0x06FB [0x02] IF !(Entity->Race == 6*) GOTO 0x0727
 26: 0x0703 [0x66] LOAD_EXT_SCHEDULER_MAIN: Load scheduler "tlk0" with entities [EventEntity, EventEntity], work=189*
 27: 0x0712 [0x1C] WAIT(120* ticks)
 28: 0x0715 [0x66] LOAD_EXT_SCHEDULER_MAIN: Load scheduler "tlk1" with entities [EventEntity, EventEntity], work=189*
 29: 0x0724 [0x01] GOTO 0x077F
 30: 0x0727 [0x02] IF !(Entity->Race == 7*) GOTO 0x0753
 31: 0x072F [0x66] LOAD_EXT_SCHEDULER_MAIN: Load scheduler "tlk0" with entities [EventEntity, EventEntity], work=199*
 32: 0x073E [0x1C] WAIT(120* ticks)
 33: 0x0741 [0x66] LOAD_EXT_SCHEDULER_MAIN: Load scheduler "tlk1" with entities [EventEntity, EventEntity], work=199*
 34: 0x0750 [0x01] GOTO 0x077F
 35: 0x0753 [0x02] IF !(Entity->Race == 8*) GOTO 0x077F
 36: 0x075B [0x66] LOAD_EXT_SCHEDULER_MAIN: Load scheduler "tlk0" with entities [EventEntity, EventEntity], work=209*
 37: 0x076A [0x1C] WAIT(120* ticks)
 38: 0x076D [0x66] LOAD_EXT_SCHEDULER_MAIN: Load scheduler "tlk1" with entities [EventEntity, EventEntity], work=209*
 39: 0x077C [0x01] GOTO 0x077F

SUBROUTINE_077F:
 40: 0x077F [0x00] END_REQSTACK()
```

### Event 65535.63

#### Metadata

| Field        | Value    |
|--------------|----------|
| Entrypoint   | 0x0780   |
| Data Size    | 37 bytes |
| Instructions | 5        |

```
      00 01 02 03 04 05 06 07  08 09 0A 0B 0C 0D 0E 0F
      -- -- -- -- -- -- -- --  -- -- -- -- -- -- -- --
0780: 03 00 00 07 7F 1A 73 00  66 01 00 F8 FF FF 7F F8  ......s.f.......
0790: FF FF 7F 73 68 61 30 53  F8 FF FF 7F F8 FF FF 7F  ...sha0S........
07A0: 73 68 61 30 00                                    sha0.           
```

#### Opcodes

```
  0: 0x0780 [0x03] ExtData[1]->WorkLocal[0] = Entity->Race
  1: 0x0785 [0x1A] CALL_SUBROUTINE(address=0x0073)
  2: 0x0788 [0x66] LOAD_EXT_SCHEDULER_MAIN: Load scheduler "sha0" with entities [EventEntity, EventEntity], work=ExtData[1]->WorkLocal[1]
  3: 0x0797 [0x53] WAIT_SCHEDULER_TASK: Wait for scheduler "sha0" with entities [EventEntity, EventEntity]
  4: 0x07A4 [0x00] END_REQSTACK()
```

### Event 65535.64

#### Metadata

| Field        | Value    |
|--------------|----------|
| Entrypoint   | 0x07A5   |
| Data Size    | 37 bytes |
| Instructions | 5        |

```
      00 01 02 03 04 05 06 07  08 09 0A 0B 0C 0D 0E 0F
      -- -- -- -- -- -- -- --  -- -- -- -- -- -- -- --
07A0:                03 00 00  07 7F 1A 73 00 66 01 00       ......s.f..
07B0: F8 FF FF 7F F8 FF FF 7F  73 68 61 31 53 F8 FF FF  ........sha1S...
07C0: 7F F8 FF FF 7F 73 68 61  31 00                    .....sha1.      
```

#### Opcodes

```
  0: 0x07A5 [0x03] ExtData[1]->WorkLocal[0] = Entity->Race
  1: 0x07AA [0x1A] CALL_SUBROUTINE(address=0x0073)
  2: 0x07AD [0x66] LOAD_EXT_SCHEDULER_MAIN: Load scheduler "sha1" with entities [EventEntity, EventEntity], work=ExtData[1]->WorkLocal[1]
  3: 0x07BC [0x53] WAIT_SCHEDULER_TASK: Wait for scheduler "sha1" with entities [EventEntity, EventEntity]
  4: 0x07C9 [0x00] END_REQSTACK()
```

### Event 65535.65

#### Metadata

| Field        | Value    |
|--------------|----------|
| Entrypoint   | 0x07CA   |
| Data Size    | 14 bytes |
| Instructions | 4        |

```
      00 01 02 03 04 05 06 07  08 09 0A 0B 0C 0D 0E 0F
      -- -- -- -- -- -- -- --  -- -- -- -- -- -- -- --
07C0:                                32 0E 80 1F 00 4E            2....N
07D0: 80 4F 80 50 80 1F 01 00                           .O.P....        
```

#### Opcodes

```
  0: 0x07CA [0x32] ExtData[1]->MainSpeed = 13* * 0.1
  1: 0x07CD [0x1F] MOVE_ENTITY: EventEntity moves to X=296.764*, Z=-258.573*, Y=0.805*
  2: 0x07D5 [0x1F] MOVE_ENTITY: Update entity position (mode=1)
  3: 0x07D7 [0x00] END_REQSTACK()
```

### Event 65535.66

#### Metadata

| Field        | Value    |
|--------------|----------|
| Entrypoint   | 0x07D8   |
| Data Size    | 14 bytes |
| Instructions | 4        |

```
      00 01 02 03 04 05 06 07  08 09 0A 0B 0C 0D 0E 0F
      -- -- -- -- -- -- -- --  -- -- -- -- -- -- -- --
07D0:                          32 0E 80 1F 00 68 80 69          2....h.i
07E0: 80 6A 80 1F 01 00                                 .j....          
```

#### Opcodes

```
  0: 0x07D8 [0x32] ExtData[1]->MainSpeed = 13* * 0.1
  1: 0x07DB [0x1F] MOVE_ENTITY: EventEntity moves to X=287.420*, Z=-251.180*, Y=0.610*
  2: 0x07E3 [0x1F] MOVE_ENTITY: Update entity position (mode=1)
  3: 0x07E5 [0x00] END_REQSTACK()
```

### Event 65535.67

#### Metadata

| Field        | Value    |
|--------------|----------|
| Entrypoint   | 0x07E6   |
| Data Size    | 14 bytes |
| Instructions | 4        |

```
      00 01 02 03 04 05 06 07  08 09 0A 0B 0C 0D 0E 0F
      -- -- -- -- -- -- -- --  -- -- -- -- -- -- -- --
07E0:                   32 0E  80 1F 00 1B 80 1C 80 1D        2.........
07F0: 80 1F 01 00                                       ....            
```

#### Opcodes

```
  0: 0x07E6 [0x32] ExtData[1]->MainSpeed = 13* * 0.1
  1: 0x07E9 [0x1F] MOVE_ENTITY: EventEntity moves to X=275.796*, Z=-234.396*, Y=-0.027*
  2: 0x07F1 [0x1F] MOVE_ENTITY: Update entity position (mode=1)
  3: 0x07F3 [0x00] END_REQSTACK()
```

### Event 65535.68

#### Metadata

| Field        | Value    |
|--------------|----------|
| Entrypoint   | 0x07F4   |
| Data Size    | 14 bytes |
| Instructions | 4        |

```
      00 01 02 03 04 05 06 07  08 09 0A 0B 0C 0D 0E 0F
      -- -- -- -- -- -- -- --  -- -- -- -- -- -- -- --
07F0:             32 27 80 1F  00 6B 80 6C 80 6D 80 1F      2'...k.l.m..
0800: 01 00                                             ..              
```

#### Opcodes

```
  0: 0x07F4 [0x32] ExtData[1]->MainSpeed = 40* * 0.1
  1: 0x07F7 [0x1F] MOVE_ENTITY: EventEntity moves to X=154.151*, Z=-47.747*, Y=0.390*
  2: 0x07FF [0x1F] MOVE_ENTITY: Update entity position (mode=1)
  3: 0x0801 [0x00] END_REQSTACK()
```

### Event 65535.69

#### Metadata

| Field        | Value    |
|--------------|----------|
| Entrypoint   | 0x0802   |
| Data Size    | 29 bytes |
| Instructions | 7        |

```
      00 01 02 03 04 05 06 07  08 09 0A 0B 0C 0D 0E 0F
      -- -- -- -- -- -- -- --  -- -- -- -- -- -- -- --
0800:       32 27 80 1F 00 6E  80 6F 80 70 80 1F 01 1E    2'...n.o.p....
0810: FA 51 10 01 1C 12 80 29  03 F0 FF FF 7F 05 00     .Q.....)....... 
```

#### Opcodes

```
  0: 0x0802 [0x32] ExtData[1]->MainSpeed = 40* * 0.1
  1: 0x0805 [0x1F] MOVE_ENTITY: EventEntity moves to X=154.556*, Z=-54.488*, Y=0.599*
  2: 0x080D [0x1F] MOVE_ENTITY: Update entity position (mode=1)
  3: 0x080F [0x1E] EventEntity looks at Unnamed NPC (ID: 17846778/0x011051FA) and starts talking
  4: 0x0814 [0x1C] WAIT(30* ticks)
  5: 0x0817 [0x29] REQ_SET_WAIT(priority=0x03, entity_id=LocalPlayer, tag_num=0x05)
  6: 0x081E [0x00] END_REQSTACK()
```

### Event 65535.70

#### Metadata

| Field        | Value    |
|--------------|----------|
| Entrypoint   | 0x081F   |
| Data Size    | 45 bytes |
| Instructions | 7        |

```
      00 01 02 03 04 05 06 07  08 09 0A 0B 0C 0D 0E 0F
      -- -- -- -- -- -- -- --  -- -- -- -- -- -- -- --
0810:                                               03                 .
0820: 00 00 07 7F 1A 73 00 66  01 00 F8 FF FF 7F F8 FF  .....s.f........
0830: FF 7F 73 68 61 31 53 F8  FF FF 7F F8 FF FF 7F 73  ..sha1S........s
0840: 68 61 31 1E FB 51 10 01  1C 12 80 00              ha1..Q......    
```

#### Opcodes

```
  0: 0x081F [0x03] ExtData[1]->WorkLocal[0] = Entity->Race
  1: 0x0824 [0x1A] CALL_SUBROUTINE(address=0x0073)
  2: 0x0827 [0x66] LOAD_EXT_SCHEDULER_MAIN: Load scheduler "sha1" with entities [EventEntity, EventEntity], work=ExtData[1]->WorkLocal[1]
  3: 0x0836 [0x53] WAIT_SCHEDULER_TASK: Wait for scheduler "sha1" with entities [EventEntity, EventEntity]
  4: 0x0843 [0x1E] EventEntity looks at Unnamed NPC (ID: 17846779/0x011051FB) and starts talking
  5: 0x0848 [0x1C] WAIT(30* ticks)
  6: 0x084B [0x00] END_REQSTACK()
```
