# Event 65535

## Metadata

| Field           | Value    |
|-----------------|----------|
| Event Index     | 71/76    |
| Offset          | 0x0502   |
| Data Size       | 47 bytes |
| Calculated Size | 47 bytes |
| Instructions    | 11       |

```
      00 01 02 03 04 05 06 07  08 09 0A 0B 0C 0D 0E 0F
      -- -- -- -- -- -- -- --  -- -- -- -- -- -- -- --
0500:       32 17 80 5A 00 38  80 39 80 3A 80 5A 01 5A    2..Z.8.9.:.Z.Z
0510: 00 3B 80 3C 80 3D 80 5A  01 1F 00 3E 80 3F 80 40  .;.<.=.Z...>.?.@
0520: 80 1F 01 4B F8 FF FF 7F  41 80 6F 76 F8 FF FF 7F  ...K....A.ov....
0530: 00                                                .               
```

## Opcodes

```
  0: 0x0502 [0x32] ExtData[1]->MainSpeed = 40* * 0.1
  1: 0x0505 [0x5A] UPDATE_EVENT_POSITION: Set EventEntity MovePosition to X=-391.379*, Z=-439.540*, Y=12.171*
  2: 0x050D [0x5A] UPDATE_EVENT_POSITION: Move EventEntity incrementally towards MovePosition
  3: 0x050F [0x5A] UPDATE_EVENT_POSITION: Set EventEntity MovePosition to X=-369.345*, Z=-438.895*, Y=14.825*
  4: 0x0517 [0x5A] UPDATE_EVENT_POSITION: Move EventEntity incrementally towards MovePosition
  5: 0x0519 [0x1F] MOVE_ENTITY: EventEntity moves to X=-367.928*, Z=-444.892*, Y=14.874*
  6: 0x0521 [0x1F] MOVE_ENTITY: Update entity position (mode=1)
  7: 0x0523 [0x4B] UPDATE_ENTITY_YAW(entity=EventEntity, yaw=16.74°*)
  8: 0x052A [0x6F] WAIT_FRAME_DELAY: Yield until WaitTime reaches zero
  9: 0x052B [0x76] CHECK_ENTITY_RENDER_FLAGS: Wait until EventEntity Render.Flags0 and Render.Flags3 conditions are met
 10: 0x0530 [0x00] END_REQSTACK()
```
