# Event 201

## Metadata

| Field           | Value    |
|-----------------|----------|
| Event Index     | 5/47     |
| Offset          | 0x0134   |
| Data Size       | 58 bytes |
| Calculated Size | 58 bytes |
| Instructions    | 9        |

```
      00 01 02 03 04 05 06 07  08 09 0A 0B 0C 0D 0E 0F
      -- -- -- -- -- -- -- --  -- -- -- -- -- -- -- --
0130:             20 01 42 45  00 80 F0 FF FF 7F F0 FF       .BE........
0140: FF 7F 66 64 69 32 01 80  46 01 45 06 80 F0 FF FF  ..fdi2..F.E.....
0150: 7F F0 FF FF 7F 73 30 36  34 01 80 55 06 80 F0 FF  .....s064..U....
0160: FF 7F F0 FF FF 7F 73 30  36 34 46 00 21 00        ......s064F.!.  
```

## Opcodes

```
  0: 0x0134 [0x20] SET_CLI_EVENT_UC_FLAG: Lock player control
  1: 0x0136 [0x42] SET_CLI_EVENT_CANCEL_DATA()
  2: 0x0137 [0x45] LOAD_SCHEDULED_TASK(work_offset1=200*, entity1=LocalPlayer, entity2=LocalPlayer, scheduler_id="fdi2", work_offset2=0*)
  3: 0x0148 [0x46] CAMERA_CONTROL: Disable user control
  4: 0x014A [0x45] LOAD_SCHEDULED_TASK(work_offset1=199*, entity1=LocalPlayer, entity2=LocalPlayer, scheduler_id="s064", work_offset2=0*)
  5: 0x015B [0x55] WAIT_LOAD_SCHEDULER(work_offset=199*, entity1=LocalPlayer, entity2=LocalPlayer, scheduler_id="s064")
  6: 0x016A [0x46] CAMERA_CONTROL: Restore default settings
  7: 0x016C [0x21] END_EVENT
  8: 0x016D [0x00] END_REQSTACK()
```
