# Event 65535

## Metadata

| Field           | Value    |
|-----------------|----------|
| Event Index     | 34/47    |
| Offset          | 0x4124   |
| Data Size       | 41 bytes |
| Calculated Size | 41 bytes |
| Instructions    | 10       |

```
      00 01 02 03 04 05 06 07  08 09 0A 0B 0C 0D 0E 0F
      -- -- -- -- -- -- -- --  -- -- -- -- -- -- -- --
4120:             03 02 00 B7  81 06 03 00 B4 0A 02 00      ............
4130: 02 02 00 01 80 02 3F 41  B4 0C 02 00 01 30 41 B4  ......?A.....0A.
4140: 0B 02 03 00 01 80 00 4C  41 B4 06 00 00           .......LA....   
```

## Opcodes

```
  0: 0x4124 [0x03] ExtData[1]->WorkLocal[2] = 3600*
  1: 0x4129 [0x06] ExtData[1]->WorkLocal[3] = 0
  2: 0x412C [0xB4] UI_WINDOW_STRING_HANDLER(case=0x0A - Open event time window, work_offset=ExtData[1]->WorkLocal[2])
  3: 0x4130 [0x02] IF !(ExtData[1]->WorkLocal[2] <= 0*) GOTO 0x413F
  4: 0x4138 [0xB4] UI_WINDOW_STRING_HANDLER(case=0x0C - Get event time count value, work_offset=ExtData[1]->WorkLocal[2])
  5: 0x413C [0x01] GOTO 0x4130

SUBROUTINE_413F:
  6: 0x413F [0xB4] UI_WINDOW_STRING_HANDLER(case=0x0B - Destroy event time window)
  7: 0x4141 [0x02] IF !(ExtData[1]->WorkLocal[3] == 0*) GOTO 0x414C
  8: 0x4149 [0xB4] UI_WINDOW_STRING_HANDLER(case=0x06 - Toggle query message flag, flag_value=0x00)
  9: 0x414C [0x00] END_REQSTACK()
```
