# Event 65535

## Metadata

| Field           | Value     |
|-----------------|-----------|
| Event Index     | 35/47     |
| Offset          | 0x414D    |
| Data Size       | 157 bytes |
| Calculated Size | 157 bytes |
| Instructions    | 3         |

```
      00 01 02 03 04 05 06 07  08 09 0A 0B 0C 0D 0E 0F
      -- -- -- -- -- -- -- --  -- -- -- -- -- -- -- --
4140:                                         03 02 00               ...
4150: 01 80 05 03 00 00 03 05  00 04 00 02 05 00 B8 81  ................
4160: 05 6B 41 08 05 00 15 80  01 70 41 08 05 00 2E 80  .kA......pA.....
4170: 14 05 00 2C 80 07 05 00  A4 80 1B 03 05 00 04 00  ...,............
4180: 02 05 00 B8 81 05 90 41  08 05 00 15 80 01 95 41  .......A.......A
4190: 08 05 00 2E 80 14 05 00  2C 80 07 05 00 B9 81 1B  ........,.......
41A0: 03 05 00 04 00 02 05 00  B8 81 05 B5 41 08 05 00  ............A...
41B0: 15 80 01 BA 41 08 05 00  2E 80 14 05 00 2C 80 07  ....A........,..
41C0: 05 00 BA 81 1B 03 05 00  04 00 02 05 00 B8 81 05  ................
41D0: DA 41 08 05 00 15 80 01  DF 41 08 05 00 2E 80 14  .A.......A......
41E0: 05 00 2C 80 07 05 00 BB  81 1B                    ..,.......      
```

## Opcodes

```
  0: 0x414D [0x03] ExtData[1]->WorkLocal[2] = 0*
  1: 0x4152 [0x05] ExtData[1]->WorkLocal[3] = 1
  2: 0x4155 [0x00] END_REQSTACK()
```

## Data or dead code:

```
# Dead code (unreachable instructions):
     0x4156 [0x03] ExtData[1]->WorkLocal[5] = ExtData[1]->WorkLocal[4]
     0x415B [0x02] IF !(ExtData[1]->WorkLocal[5] > 5*) GOTO 0x416B
     0x4163 [0x08] ExtData[1]->WorkLocal[5] -= 1*
     0x4168 [0x01] GOTO 0x4170
     0x416B [0x08] ExtData[1]->WorkLocal[5] -= 2*
     0x4170 [0x14] ExtData[1]->WorkLocal[5] *= 10*
     0x4175 [0x07] ExtData[1]->WorkLocal[5] += 9*
     0x417A [0x1B] RETURN
     0x417B [0x03] ExtData[1]->WorkLocal[5] = ExtData[1]->WorkLocal[4]
     0x4180 [0x02] IF !(ExtData[1]->WorkLocal[5] > 5*) GOTO 0x4190
     0x4188 [0x08] ExtData[1]->WorkLocal[5] -= 1*
     0x418D [0x01] GOTO 0x4195
     0x4190 [0x08] ExtData[1]->WorkLocal[5] -= 2*
     0x4195 [0x14] ExtData[1]->WorkLocal[5] *= 10*
     0x419A [0x07] ExtData[1]->WorkLocal[5] += 70*
     0x419F [0x1B] RETURN
     0x41A0 [0x03] ExtData[1]->WorkLocal[5] = ExtData[1]->WorkLocal[4]
     0x41A5 [0x02] IF !(ExtData[1]->WorkLocal[5] > 5*) GOTO 0x41B5
     0x41AD [0x08] ExtData[1]->WorkLocal[5] -= 1*
     0x41B2 [0x01] GOTO 0x41BA
     0x41B5 [0x08] ExtData[1]->WorkLocal[5] -= 2*
     0x41BA [0x14] ExtData[1]->WorkLocal[5] *= 10*
     0x41BF [0x07] ExtData[1]->WorkLocal[5] += 140*
     0x41C4 [0x1B] RETURN
     0x41C5 [0x03] ExtData[1]->WorkLocal[5] = ExtData[1]->WorkLocal[4]
     0x41CA [0x02] IF !(ExtData[1]->WorkLocal[5] > 5*) GOTO 0x41DA
     0x41D2 [0x08] ExtData[1]->WorkLocal[5] -= 1*
     0x41D7 [0x01] GOTO 0x41DF
     0x41DA [0x08] ExtData[1]->WorkLocal[5] -= 2*
     0x41DF [0x14] ExtData[1]->WorkLocal[5] *= 10*
     0x41E4 [0x07] ExtData[1]->WorkLocal[5] += 210*
     0x41E9 [0x1B] RETURN
```