# Event 65535

## Metadata

| Field           | Value     |
|-----------------|-----------|
| Event Index     | 35/47     |
| Offset          | 0x414D    |
| Data Size       | 157 bytes |
| Calculated Size | 157 bytes |
| Instructions    | 4         |

```
      00 01 02 03 04 05 06 07  08 09 0A 0B 0C 0D 0E 0F
      -- -- -- -- -- -- -- --  -- -- -- -- -- -- -- --
4140:                                         03 02 00               ...
4150: 01 80 05 03 00 00 03 05  00 04 00 02 05 00 B8 81  ................
4160: 05 6B 41 08 05 00 15 80  01 70 41 08 05 00 2E 80  .kA......pA.....
4170: 14 05 00 2C 80 07 05 00  A4 80 1B 03 05 00 04 00  ...,............
4180: 02 05 00 B8 81 05 90 41  08 05 00 15 80 01 95 41  .......A.......A
4190: 08 05 00 2E 80 14 05 00  2C 80 07 05 00 B9 81 1B  ........,.......
41A0: 03 05 00 04 00 02 05 00  B8 81 05 B5 41 08 05 00  ............A...
41B0: 15 80 01 BA 41 08 05 00  2E 80 14 05 00 2C 80 07  ....A........,..
41C0: 05 00 BA 81 1B 03 05 00  04 00 02 05 00 B8 81 05  ................
41D0: DA 41 08 05 00 15 80 01  DF 41 08 05 00 2E 80 14  .A.......A......
41E0: 05 00 2C 80 07 05 00 BB  81 1B                    ..,.......      
```

## Opcodes

```
  0: 0x414D [0x03] ExtData[1]->WorkLocal[2] = 0*
  1: 0x4152 [0x05] ExtData[1]->WorkLocal[3] = 1
  2: 0x4155 [0x00] END_REQSTACK()
```

## Data or dead code:

```
# Data Section: 0x4156 (148 bytes)
     0x4156: 03 05 00 04 00 02 05 00 B8 81 05 6B 41 08 05 00
     0x4166: 15 80 01 70 41 08 05 00 2E 80 14 05 00 2C 80 07
     0x4176: 05 00 A4 80 1B 03 05 00 04 00 02 05 00 B8 81 05
     0x4186: 90 41 08 05 00 15 80 01 95 41 08 05 00 2E 80 14
     0x4196: 05 00 2C 80 07 05 00 B9 81 1B 03 05 00 04 00 02
     0x41A6: 05 00 B8 81 05 B5 41 08 05 00 15 80 01 BA 41 08
     0x41B6: 05 00 2E 80 14 05 00 2C 80 07 05 00 BA 81 1B 03
     0x41C6: 05 00 04 00 02 05 00 B8 81 05 DA 41 08 05 00 15
     0x41D6: 80 01 DF 41 08 05 00 2E 80 14 05 00 2C 80 07 05
     0x41E6: 00 BB 81 1B
```