# Event 65535

## Metadata

| Field           | Value    |
|-----------------|----------|
| Event Index     | 10/15    |
| Offset          | 0x0017   |
| Data Size       | 93 bytes |
| Calculated Size | 93 bytes |
| Instructions    | 12       |

```
      00 01 02 03 04 05 06 07  08 09 0A 0B 0C 0D 0E 0F
      -- -- -- -- -- -- -- --  -- -- -- -- -- -- -- --
0010:                      02  23 10 00 80 00 24 00 22         .#....$."
0020: 01 01 70 00 1A 82 00 02  01 00 01 80 00 46 00 B6  ..p..........F..
0030: 0B 02 80 03 80 01 80 04  80 05 80 05 80 05 80 01  ................
0040: 80 01 80 01 5A 00 B6 0B  01 00 03 80 01 80 04 80  ....Z...........
0050: 05 80 05 80 05 80 01 80  01 80 7E 03 F8 FF FF 7F  ..........~.....
0060: 02 00 01 80 03 00 04 00  05 00 7E 04 F8 FF FF 7F  ..........~.....
0070: 32 06 80 00                                       2...            
```

## Opcodes

```
  0: 0x0017 [0x02] IF !(Work_Zone[35] == 11*) GOTO 0x0024
  1: 0x001F [0x22] ENTITY_HIDE_FLAG(enabled=0x01)
  2: 0x0021 [0x01] GOTO 0x0070
  3: 0x0024 [0x1A] CALL_SUBROUTINE(address=0x0082)
  4: 0x0027 [0x02] IF !(ExtData[1]->WorkLocal[1] == 0*) GOTO 0x0046
  5: 0x002F [0xB6] ENTITY_APPEARANCE_HANDLER(case=Full entity look, race=8*, hair=12*, head=0*, body=188*, hands=6*, legs=6*, feet=6*, main=0*, sub=0*)
  6: 0x0043 [0x01] GOTO 0x005A
  7: 0x0046 [0xB6] ENTITY_APPEARANCE_HANDLER(case=Full entity look, race=ExtData[1]->WorkLocal[1], hair=12*, head=0*, body=188*, hands=6*, legs=6*, feet=6*, main=0*, sub=0*)

SUBROUTINE_005A:
  8: 0x005A [0x7E] CHOCOBO_MOUNT: Mount custom chocobo on EventEntity (index=2, color=32769, name_id=3)
  9: 0x006A [0x7E] CHOCOBO_MOUNT: Mode 4 on EventEntity

SUBROUTINE_0070:
 10: 0x0070 [0x32] ExtData[1]->MainSpeed = 80* * 0.1
 11: 0x0073 [0x00] END_REQSTACK()
```
