# 16916897

## Common Data

| Field            | Value                            |
|------------------|----------------------------------|
| Zone             | Grand Palace of Hu'Xzoi (ID: 34) |
| Block Size       | 132 bytes                        |
| Total Events     | 2                                |
| References Count | 7                                |

## List of Events

| Event ID              | Entrypoint   |   Size |   Instructions |
|-----------------------|--------------|--------|----------------|
| [65535](#event-65535) | 0x0000       |      1 |              1 |
| [171](#event-171)     | 0x0001       |     76 |             20 |

## DAT References (imed_data)

|   Index | Hex Value   |   Dec Value |
|---------|-------------|-------------|
|       0 | 0x1C5B      |        7259 |
|       1 | 0x1C5C      |        7260 |
|       2 | 0x0001      |           1 |
|       3 | 0x0000      |           0 |
|       4 | 0x53059     |      340057 |
|       5 | 0x47EA9     |      294569 |
|       6 | 0x0400      |        1024 |

## String References

- **7259**: There is a spatial displacement here...
- **7260**: Enter the spatial displacement? [Yes./No.]

## Events

### Event 65535

#### Metadata

| Field        | Value   |
|--------------|---------|
| Entrypoint   | 0x0000  |
| Data Size    | 1 bytes |
| Instructions | 1       |

```
      00 01 02 03 04 05 06 07  08 09 0A 0B 0C 0D 0E 0F
      -- -- -- -- -- -- -- --  -- -- -- -- -- -- -- --
0000: 00                                                .               
```

#### Opcodes

```
  0: 0x0000 [0x00] END_REQSTACK()
```

### Event 171

#### Metadata

| Field        | Value    |
|--------------|----------|
| Entrypoint   | 0x0001   |
| Data Size    | 76 bytes |
| Instructions | 20       |

```
      00 01 02 03 04 05 06 07  08 09 0A 0B 0C 0D 0E 0F
      -- -- -- -- -- -- -- --  -- -- -- -- -- -- -- --
0000:    20 01 48 00 80 23 24  01 80 02 80 03 80 25 02    .H..#$......%.
0010: 00 10 03 80 00 3E 00 42  43 00 43 01 03 01 10 02  .....>.BC.C.....
0020: 80 29 01 F0 FF FF 7F 18  47 00 04 80 05 80 03 80  .)......G.......
0030: 06 80 47 01 29 01 F0 FF  FF 7F 19 01 49 00 02 00  ..G.).......I...
0040: 10 02 80 00 49 00 01 49  00 20 00 21 00           ....I..I. .!.   
```

#### Opcodes

```
  0: 0x0001 [0x20] SET_CLI_EVENT_UC_FLAG: Lock player control
  1: 0x0003 [0x48] [System] [7259*]:
    → "There is a spatial displacement here..."
  2: 0x0006 [0x23] WAIT_FOR_DIALOG_INTERACTION
  3: 0x0007 [0x24] CREATE_DIALOG(message_id=7260*, default_option=1*, option_flags=0*)
    → "Enter the spatial displacement? [Yes./No.]"
  4: 0x000E [0x25] WAIT_DIALOG_SELECT()
  5: 0x000F [0x02] IF !(Work_Zone[0] == 0*) GOTO 0x003E
  6: 0x0017 [0x42] SET_CLI_EVENT_CANCEL_DATA()
  7: 0x0018 [0x43] SEND_EVENT_UPDATE: Send pending tag to server (packet 0x005B)
  8: 0x001A [0x43] SEND_EVENT_UPDATE: Check pending flag (skip if not pending)
  9: 0x001C [0x03] Work_Zone[1] = 1*
 10: 0x0021 [0x29] REQ_SET_WAIT(priority=0x01, entity_id=LocalPlayer, tag_num=0x18)
 11: 0x0028 [0x47] UPDATE_PLAYER_POS(340.057*, 294.569*, 0.000*, yaw=90.0°*)
 12: 0x0032 [0x47] WAIT_PLAYER_POS_UPDATE
 13: 0x0034 [0x29] REQ_SET_WAIT(priority=0x01, entity_id=LocalPlayer, tag_num=0x19)
 14: 0x003B [0x01] GOTO 0x0049
 15: 0x003E [0x02] IF !(Work_Zone[0] == 1*) GOTO 0x0049
 16: 0x0046 [0x01] GOTO 0x0049

SUBROUTINE_0049:
 17: 0x0049 [0x20] SET_CLI_EVENT_UC_FLAG: Unlock player control
 18: 0x004B [0x21] END_EVENT
 19: 0x004C [0x00] END_REQSTACK()
```
