# 16916917 - Nagmolada

## Common Data

| Field            | Value                            |
|------------------|----------------------------------|
| Zone             | Grand Palace of Hu'Xzoi (ID: 34) |
| Block Size       | 292 bytes                        |
| Total Events     | 16                               |
| References Count | 15                               |

## List of Events

| Event ID                   | Entrypoint   |   Size |   Instructions |
|----------------------------|--------------|--------|----------------|
| [65535](#event-65535)      | 0x0000       |      1 |              1 |
| [0](#event-0)              | 0x0001       |      1 |              1 |
| [65535.1](#event-655351)   | 0x0002       |     18 |              4 |
| [65535.2](#event-655352)   | 0x0014       |     10 |              2 |
| [65535.3](#event-655353)   | 0x001E       |      9 |              3 |
| [65535.4](#event-655354)   | 0x0027       |      9 |              3 |
| [65535.5](#event-655355)   | 0x0030       |     10 |              2 |
| [65535.6](#event-655356)   | 0x003A       |     10 |              2 |
| [3](#event-3)              | 0x0044       |      1 |              1 |
| [65535.7](#event-655357)   | 0x0045       |     10 |              2 |
| [65535.8](#event-655358)   | 0x004F       |     10 |              2 |
| [65535.9](#event-655359)   | 0x0059       |     15 |              5 |
| [65535.10](#event-6553510) | 0x0068       |     10 |              2 |
| [65535.11](#event-6553511) | 0x0072       |     10 |              2 |
| [65535.12](#event-6553512) | 0x007C       |     14 |              2 |
| [65535.13](#event-6553513) | 0x008A       |     14 |              2 |

## DAT References (imed_data)

|   Index | Hex Value   |   Dec Value |
|---------|-------------|-------------|
|       0 | 0x0000      |           0 |
|       1 | 0x0001      |           1 |
|       2 | 0x0080      |         128 |
|       3 | 0x000A      |          10 |
|       4 | 0xFFFFF81B  |  4294965275 |
|       5 | 0x0EA5      |        3749 |
|       6 | 0x0C00      |        3072 |
|       7 | 0x2518      |        9496 |
|       8 | 0x1BFB      |        7163 |
|       9 | 0x1963      |        6499 |
|      10 | 0x08E2      |        2274 |
|      11 | 0x000D      |          13 |
|      12 | 0x212B      |        8491 |
|      13 | 0x1D61      |        7521 |
|      14 | 0x08E0      |        2272 |

## Events

### Event 65535

#### Metadata

| Field        | Value   |
|--------------|---------|
| Entrypoint   | 0x0000  |
| Data Size    | 1 bytes |
| Instructions | 1       |

```
      00 01 02 03 04 05 06 07  08 09 0A 0B 0C 0D 0E 0F
      -- -- -- -- -- -- -- --  -- -- -- -- -- -- -- --
0000: 00                                                .               
```

#### Opcodes

```
  0: 0x0000 [0x00] END_REQSTACK()
```

### Event 0

#### Metadata

| Field        | Value   |
|--------------|---------|
| Entrypoint   | 0x0001  |
| Data Size    | 1 bytes |
| Instructions | 1       |

```
      00 01 02 03 04 05 06 07  08 09 0A 0B 0C 0D 0E 0F
      -- -- -- -- -- -- -- --  -- -- -- -- -- -- -- --
0000:    00                                              .              
```

#### Opcodes

```
  0: 0x0001 [0x00] END_REQSTACK()
```

### Event 65535.1

#### Metadata

| Field        | Value    |
|--------------|----------|
| Entrypoint   | 0x0002   |
| Data Size    | 18 bytes |
| Instructions | 4        |

```
      00 01 02 03 04 05 06 07  08 09 0A 0B 0C 0D 0E 0F
      -- -- -- -- -- -- -- --  -- -- -- -- -- -- -- --
0000:       22 00 2F 00 F8 FF  FF 7F 6C F8 FF FF 7F 00    "./.....l.....
0010: 80 01 80 00                                       ....            
```

#### Opcodes

```
  0: 0x0002 [0x22] ENTITY_HIDE_FLAG(enabled=0x00)
  1: 0x0004 [0x2F] EventEntity->Render.Flags0 &= ~0x80000 // Bit 19
  2: 0x000A [0x6C] FADE_ENTITY_COLOR(entity_id=EventEntity, end_alpha=0*, fade_time=1*)
  3: 0x0013 [0x00] END_REQSTACK()
```

### Event 65535.2

#### Metadata

| Field        | Value    |
|--------------|----------|
| Entrypoint   | 0x0014   |
| Data Size    | 10 bytes |
| Instructions | 2        |

```
      00 01 02 03 04 05 06 07  08 09 0A 0B 0C 0D 0E 0F
      -- -- -- -- -- -- -- --  -- -- -- -- -- -- -- --
0010:             6C F8 FF FF  7F 02 80 01 80 00            l.........  
```

#### Opcodes

```
  0: 0x0014 [0x6C] FADE_ENTITY_COLOR(entity_id=EventEntity, end_alpha=128*, fade_time=1*)
  1: 0x001D [0x00] END_REQSTACK()
```

### Event 65535.3

#### Metadata

| Field        | Value   |
|--------------|---------|
| Entrypoint   | 0x001E  |
| Data Size    | 9 bytes |
| Instructions | 3       |

```
      00 01 02 03 04 05 06 07  08 09 0A 0B 0C 0D 0E 0F
      -- -- -- -- -- -- -- --  -- -- -- -- -- -- -- --
0010:                                            22 00                ".
0020: 2F 00 F8 FF FF 7F 00                              /......         
```

#### Opcodes

```
  0: 0x001E [0x22] ENTITY_HIDE_FLAG(enabled=0x00)
  1: 0x0020 [0x2F] EventEntity->Render.Flags0 &= ~0x80000 // Bit 19
  2: 0x0026 [0x00] END_REQSTACK()
```

### Event 65535.4

#### Metadata

| Field        | Value   |
|--------------|---------|
| Entrypoint   | 0x0027  |
| Data Size    | 9 bytes |
| Instructions | 3       |

```
      00 01 02 03 04 05 06 07  08 09 0A 0B 0C 0D 0E 0F
      -- -- -- -- -- -- -- --  -- -- -- -- -- -- -- --
0020:                      22  01 2F 01 F8 FF FF 7F 00         "./......
```

#### Opcodes

```
  0: 0x0027 [0x22] ENTITY_HIDE_FLAG(enabled=0x01)
  1: 0x0029 [0x2F] EventEntity->Render.Flags0 |= 0x80000 // Bit 19
  2: 0x002F [0x00] END_REQSTACK()
```

### Event 65535.5

#### Metadata

| Field        | Value    |
|--------------|----------|
| Entrypoint   | 0x0030   |
| Data Size    | 10 bytes |
| Instructions | 2        |

```
      00 01 02 03 04 05 06 07  08 09 0A 0B 0C 0D 0E 0F
      -- -- -- -- -- -- -- --  -- -- -- -- -- -- -- --
0030: 6C F8 FF FF 7F 00 80 01  80 00                    l.........      
```

#### Opcodes

```
  0: 0x0030 [0x6C] FADE_ENTITY_COLOR(entity_id=EventEntity, end_alpha=0*, fade_time=1*)
  1: 0x0039 [0x00] END_REQSTACK()
```

### Event 65535.6

#### Metadata

| Field        | Value    |
|--------------|----------|
| Entrypoint   | 0x003A   |
| Data Size    | 10 bytes |
| Instructions | 2        |

```
      00 01 02 03 04 05 06 07  08 09 0A 0B 0C 0D 0E 0F
      -- -- -- -- -- -- -- --  -- -- -- -- -- -- -- --
0030:                                6C F8 FF FF 7F 02            l.....
0040: 80 01 80 00                                       ....            
```

#### Opcodes

```
  0: 0x003A [0x6C] FADE_ENTITY_COLOR(entity_id=EventEntity, end_alpha=128*, fade_time=1*)
  1: 0x0043 [0x00] END_REQSTACK()
```

### Event 3

#### Metadata

| Field        | Value   |
|--------------|---------|
| Entrypoint   | 0x0044  |
| Data Size    | 1 bytes |
| Instructions | 1       |

```
      00 01 02 03 04 05 06 07  08 09 0A 0B 0C 0D 0E 0F
      -- -- -- -- -- -- -- --  -- -- -- -- -- -- -- --
0040:             00                                        .           
```

#### Opcodes

```
  0: 0x0044 [0x00] END_REQSTACK()
```

### Event 65535.7

#### Metadata

| Field        | Value    |
|--------------|----------|
| Entrypoint   | 0x0045   |
| Data Size    | 10 bytes |
| Instructions | 2        |

```
      00 01 02 03 04 05 06 07  08 09 0A 0B 0C 0D 0E 0F
      -- -- -- -- -- -- -- --  -- -- -- -- -- -- -- --
0040:                37 03 80  04 80 05 80 06 80 00          7......... 
```

#### Opcodes

```
  0: 0x0045 [0x37] UPDATE_EVENT_POSITION_AND_DIR: x=0.010*, z=-2.021*, y=3.749*, direction=270.0째*
  1: 0x004E [0x00] END_REQSTACK()
```

### Event 65535.8

#### Metadata

| Field        | Value    |
|--------------|----------|
| Entrypoint   | 0x004F   |
| Data Size    | 10 bytes |
| Instructions | 2        |

```
      00 01 02 03 04 05 06 07  08 09 0A 0B 0C 0D 0E 0F
      -- -- -- -- -- -- -- --  -- -- -- -- -- -- -- --
0040:                                               37                 7
0050: 07 80 08 80 09 80 0A 80  00                       .........       
```

#### Opcodes

```
  0: 0x004F [0x37] UPDATE_EVENT_POSITION_AND_DIR: x=9.496*, z=7.163*, y=6.499*, direction=199.9째*
  1: 0x0058 [0x00] END_REQSTACK()
```

### Event 65535.9

#### Metadata

| Field        | Value    |
|--------------|----------|
| Entrypoint   | 0x0059   |
| Data Size    | 15 bytes |
| Instructions | 5        |

```
      00 01 02 03 04 05 06 07  08 09 0A 0B 0C 0D 0E 0F
      -- -- -- -- -- -- -- --  -- -- -- -- -- -- -- --
0050:                             32 0B 80 1F 00 0C 80           2......
0060: 0D 80 09 80 1F 01 6F 00                           ......o.        
```

#### Opcodes

```
  0: 0x0059 [0x32] ExtData[1]->MainSpeed = 13* * 0.1
  1: 0x005C [0x1F] MOVE_ENTITY: EventEntity moves to X=8.491*, Z=7.521*, Y=6.499*
  2: 0x0064 [0x1F] MOVE_ENTITY: Update entity position (mode=1)
  3: 0x0066 [0x6F] WAIT_FRAME_DELAY: Yield until WaitTime reaches zero
  4: 0x0067 [0x00] END_REQSTACK()
```

### Event 65535.10

#### Metadata

| Field        | Value    |
|--------------|----------|
| Entrypoint   | 0x0068   |
| Data Size    | 10 bytes |
| Instructions | 2        |

```
      00 01 02 03 04 05 06 07  08 09 0A 0B 0C 0D 0E 0F
      -- -- -- -- -- -- -- --  -- -- -- -- -- -- -- --
0060:                          37 0C 80 0D 80 09 80 0E          7.......
0070: 80 00                                             ..              
```

#### Opcodes

```
  0: 0x0068 [0x37] UPDATE_EVENT_POSITION_AND_DIR: x=8.491*, z=7.521*, y=6.499*, direction=199.7째*
  1: 0x0071 [0x00] END_REQSTACK()
```

### Event 65535.11

#### Metadata

| Field        | Value    |
|--------------|----------|
| Entrypoint   | 0x0072   |
| Data Size    | 10 bytes |
| Instructions | 2        |

```
      00 01 02 03 04 05 06 07  08 09 0A 0B 0C 0D 0E 0F
      -- -- -- -- -- -- -- --  -- -- -- -- -- -- -- --
0070:       37 0C 80 0D 80 09  80 06 80 00                7.........    
```

#### Opcodes

```
  0: 0x0072 [0x37] UPDATE_EVENT_POSITION_AND_DIR: x=8.491*, z=7.521*, y=6.499*, direction=270.0째*
  1: 0x007B [0x00] END_REQSTACK()
```

### Event 65535.12

#### Metadata

| Field        | Value    |
|--------------|----------|
| Entrypoint   | 0x007C   |
| Data Size    | 14 bytes |
| Instructions | 2        |

```
      00 01 02 03 04 05 06 07  08 09 0A 0B 0C 0D 0E 0F
      -- -- -- -- -- -- -- --  -- -- -- -- -- -- -- --
0070:                                      2C B5 21 02              ,.!.
0080: 01 B5 21 02 01 77 6F 6E  32 00                    ..!..won2.      
```

#### Opcodes

```
  0: 0x007C [0x2C] CREATE_SCHEDULER_TASK: Create scheduler "won2" with entities [Nag'molada (ID: 16916917/0x010221B5), Nag'molada (ID: 16916917/0x010221B5)]
  1: 0x0089 [0x00] END_REQSTACK()
```

### Event 65535.13

#### Metadata

| Field        | Value    |
|--------------|----------|
| Entrypoint   | 0x008A   |
| Data Size    | 14 bytes |
| Instructions | 2        |

```
      00 01 02 03 04 05 06 07  08 09 0A 0B 0C 0D 0E 0F
      -- -- -- -- -- -- -- --  -- -- -- -- -- -- -- --
0080:                                2C B5 21 02 01 B5            ,.!...
0090: 21 02 01 77 6F 66 32 00                           !..wof2.        
```

#### Opcodes

```
  0: 0x008A [0x2C] CREATE_SCHEDULER_TASK: Create scheduler "wof2" with entities [Nag'molada (ID: 16916917/0x010221B5), Nag'molada (ID: 16916917/0x010221B5)]
  1: 0x0097 [0x00] END_REQSTACK()
```
