# 16916921

## Common Data

| Field            | Value                            |
|------------------|----------------------------------|
| Zone             | Grand Palace of Hu'Xzoi (ID: 34) |
| Block Size       | 8684 bytes                       |
| Total Events     | 4                                |
| References Count | 150                              |

## List of Events

| Event ID              | Entrypoint   |   Size |   Instructions |
|-----------------------|--------------|--------|----------------|
| [65535](#event-65535) | 0x0000       |      1 |              1 |
| [2](#event-2)         | 0x0001       |   1204 |            147 |
| [3](#event-3)         | 0x04B5       |   4909 |            610 |
| [4](#event-4)         | 0x17E2       |   1935 |            224 |

## DAT References (imed_data)

|   Index | Hex Value   |   Dec Value |
|---------|-------------|-------------|
|       0 | 0x0013      |          19 |
|       1 | 0x001E      |          30 |
|       2 | 0x01E1      |         481 |
|       3 | 0x00B2      |         178 |
|       4 | 0x0000      |           0 |
|       5 | 0x003C      |          60 |
|       6 | 0x0096      |         150 |
|       7 | 0x1C82      |        7298 |
|       8 | 0x01A4      |         420 |
|       9 | 0x1C83      |        7299 |
|      10 | 0x00C9      |         201 |
|      11 | 0x000F      |          15 |
|      12 | 0x001D      |          29 |
|      13 | 0x01DB      |         475 |
|      14 | 0x1C84      |        7300 |
|      15 | 0x1C85      |        7301 |
|      16 | 0x1C86      |        7302 |
|      17 | 0x0045      |          69 |
|      18 | 0x1C87      |        7303 |
|      19 | 0x1C88      |        7304 |
|      20 | 0x1C89      |        7305 |
|      21 | 0x1C8A      |        7306 |
|      22 | 0x1C8B      |        7307 |
|      23 | 0x1C8C      |        7308 |
|      24 | 0x1C8D      |        7309 |
|      25 | 0x0270      |         624 |
|      26 | 0x1C8E      |        7310 |
|      27 | 0x0279      |         633 |
|      28 | 0x0073      |         115 |
|      29 | 0x00DA      |         218 |
|      30 | 0x00C8      |         200 |
|      31 | 0x001B      |          27 |
|      32 | 0x0078      |         120 |
|      33 | 0x00F0      |         240 |
|      34 | 0x0064      |         100 |
|      35 | 0x0220      |         544 |
|      36 | 0x000C      |          12 |
|      37 | 0x0001      |           1 |
|      38 | 0x007F      |         127 |
|      39 | 0x02E9      |         745 |
|      40 | 0x0287      |         647 |
|      41 | 0x01C8      |         456 |
|      42 | 0x02DA      |         730 |
|      43 | 0x1C8F      |        7311 |
|      44 | 0x1C90      |        7312 |
|      45 | 0x0080      |         128 |
|      46 | 0x01D1      |         465 |
|      47 | 0x0258      |         600 |
|      48 | 0x002D      |          45 |
|      49 | 0x1C91      |        7313 |
|      50 | 0x1C92      |        7314 |
|      51 | 0x1C93      |        7315 |
|      52 | 0x1C94      |        7316 |
|      53 | 0x007C      |         124 |
|      54 | 0x1C95      |        7317 |
|      55 | 0x1C96      |        7318 |
|      56 | 0x1C97      |        7319 |
|      57 | 0x1C98      |        7320 |
|      58 | 0x1C99      |        7321 |
|      59 | 0x01DF      |         479 |
|      60 | 0x1C9A      |        7322 |
|      61 | 0x1C9B      |        7323 |
|      62 | 0x1C9C      |        7324 |
|      63 | 0x1C9D      |        7325 |
|      64 | 0x1C9E      |        7326 |
|      65 | 0x1C9F      |        7327 |
|      66 | 0x1CA0      |        7328 |
|      67 | 0x1CA1      |        7329 |
|      68 | 0x1CA2      |        7330 |
|      69 | 0x1CA3      |        7331 |
|      70 | 0x1CA4      |        7332 |
|      71 | 0x1CA5      |        7333 |
|      72 | 0x0010      |          16 |
|      73 | 0x00F3      |         243 |
|      74 | 0x1CA6      |        7334 |
|      75 | 0x1CA7      |        7335 |
|      76 | 0x1CA8      |        7336 |
|      77 | 0x0269      |         617 |
|      78 | 0x1CA9      |        7337 |
|      79 | 0x1CAA      |        7338 |
|      80 | 0x1CAB      |        7339 |
|      81 | 0x02DB      |         731 |
|      82 | 0x1CAC      |        7340 |
|      83 | 0x1CAD      |        7341 |
|      84 | 0x1CAE      |        7342 |
|      85 | 0x0221      |         545 |
|      86 | 0x0012      |          18 |
|      87 | 0x1CAF      |        7343 |
|      88 | 0x012C      |         300 |
|      89 | 0x00F4      |         244 |
|      90 | 0x1CB0      |        7344 |
|      91 | 0x1CB1      |        7345 |
|      92 | 0x1CB2      |        7346 |
|      93 | 0x1CB3      |        7347 |
|      94 | 0x1CB4      |        7348 |
|      95 | 0x1CB5      |        7349 |
|      96 | 0x1CB6      |        7350 |
|      97 | 0x1CB7      |        7351 |
|      98 | 0x1CB8      |        7352 |
|      99 | 0x02B5      |         693 |
|     100 | 0x1CB9      |        7353 |
|     101 | 0x1CBA      |        7354 |
|     102 | 0x1CBB      |        7355 |
|     103 | 0x1CBC      |        7356 |
|     104 | 0x1CBD      |        7357 |
|     105 | 0x1CBE      |        7358 |
|     106 | 0x1CBF      |        7359 |
|     107 | 0x1CC0      |        7360 |
|     108 | 0x007B      |         123 |
|     109 | 0x001C      |          28 |
|     110 | 0x0384      |         900 |
|     111 | 0x0022      |          34 |
|     112 | 0x02B2      |         690 |
|     113 | 0x1CC1      |        7361 |
|     114 | 0x1CC2      |        7362 |
|     115 | 0x026C      |         620 |
|     116 | 0x1CC3      |        7363 |
|     117 | 0x1CC4      |        7364 |
|     118 | 0x005A      |          90 |
|     119 | 0x1CC5      |        7365 |
|     120 | 0x1CC6      |        7366 |
|     121 | 0x1CC7      |        7367 |
|     122 | 0x1CC8      |        7368 |
|     123 | 0x1CC9      |        7369 |
|     124 | 0x027D      |         637 |
|     125 | 0x0101      |         257 |
|     126 | 0x021C      |         540 |
|     127 | 0x00B4      |         180 |
|     128 | 0x1CFF      |        7423 |
|     129 | 0x0321      |         801 |
|     130 | 0x01A9      |         425 |
|     131 | 0x1D00      |        7424 |
|     132 | 0x0300      |         768 |
|     133 | 0x1D01      |        7425 |
|     134 | 0x01EE      |         494 |
|     135 | 0x1D02      |        7426 |
|     136 | 0x0150      |         336 |
|     137 | 0x1D03      |        7427 |
|     138 | 0x01B9      |         441 |
|     139 | 0x1D04      |        7428 |
|     140 | 0x01B1      |         433 |
|     141 | 0x1D05      |        7429 |
|     142 | 0x001A      |          26 |
|     143 | 0x1D06      |        7430 |
|     144 | 0x1D07      |        7431 |
|     145 | 0x1D08      |        7432 |
|     146 | 0x01AB      |         427 |
|     147 | 0x1D09      |        7433 |
|     148 | 0x0002      |           2 |
|     149 | 0x00D7      |         215 |

## Events

### Event 65535

#### Metadata

| Field        | Value   |
|--------------|---------|
| Entrypoint   | 0x0000  |
| Data Size    | 1 bytes |
| Instructions | 1       |

```
      00 01 02 03 04 05 06 07  08 09 0A 0B 0C 0D 0E 0F
      -- -- -- -- -- -- -- --  -- -- -- -- -- -- -- --
0000: 00                                                .               
```

#### Opcodes

```
  0: 0x0000 [0x00] END_REQSTACK()
```

### Event 2

#### Metadata

| Field        | Value      |
|--------------|------------|
| Entrypoint   | 0x0001     |
| Data Size    | 1204 bytes |
| Instructions | 147        |

```
      00 01 02 03 04 05 06 07  08 09 0A 0B 0C 0D 0E 0F
      -- -- -- -- -- -- -- --  -- -- -- -- -- -- -- --
0000:    42 1A 43 1D 46 01 38  00 80 79 00 F0 FF FF 7F   B.C.F.8..y.....
0010: F0 FF FF 7F 27 10 AE 21  02 01 04 27 10 B0 21 02  ....'..!...'..!.
0020: 01 04 27 10 B3 21 02 01  04 27 10 B2 21 02 01 04  ..'..!...'..!...
0030: 27 10 B4 21 02 01 04 92  01 AE 21 02 01 92 01 B0  '..!......!.....
0040: 21 02 01 92 01 B3 21 02  01 92 01 B2 21 02 01 92  !.....!.....!...
0050: 01 B4 21 02 01 94 01 F0  FF FF 7F 94 01 AE 21 02  ..!...........!.
0060: 01 94 01 B0 21 02 01 94  01 B3 21 02 01 94 01 B2  ....!.....!.....
0070: 21 02 01 94 01 B4 21 02  01 29 10 AE 21 02 01 0A  !.....!..)..!...
0080: 29 10 B0 21 02 01 0B 29  10 B3 21 02 01 0B 29 10  )..!...)..!...).
0090: B2 21 02 01 0B 29 10 B4  21 02 01 0B 29 10 F0 FF  .!...)..!...)...
00A0: FF 7F 1A 80 B0 21 02 01  80 B3 21 02 01 80 B4 21  .....!....!....!
00B0: 02 01 80 F0 FF FF 7F 1C  01 80 5B 02 80 AE 21 02  ..........[...!.
00C0: 01 AE 21 02 01 62 74 75  30 7B F0 FF FF 7F 45 03  ..!..btu0{....E.
00D0: 80 F0 FF FF 7F F0 FF FF  7F 63 30 30 30 04 80 27  .........c000..'
00E0: 10 F0 FF FF 7F 1B 1A 22  1D 2D F8 FF FF 7F F8 FF  .......".-......
00F0: FF 7F 73 31 34 38 2D F8  FF FF 7F F8 FF FF 7F 63  ..s148-........c
0100: 72 79 68 54 F8 FF FF 7F  F8 FF FF 7F 63 72 79 68  ryhT........cryh
0110: 1C 05 80 2D F8 FF FF 7F  F8 FF FF 7F 73 65 6E 68  ...-........senh
0120: 54 F8 FF FF 7F F8 FF FF  7F 73 65 6E 68 27 10 5D  T........senh'.]
0130: 21 02 01 04 79 00 F0 FF  FF 7F AE 21 02 01 5B 02  !...y......!..[.
0140: 80 AE 21 02 01 AE 21 02  01 62 74 75 31 1C 06 80  ..!...!..btu1...
0150: 52 03 80 F0 FF FF 7F F0  FF FF 7F 63 30 30 30 45  R..........c000E
0160: 03 80 F0 FF FF 7F F0 FF  FF 7F 63 30 30 31 04 80  ..........c001..
0170: 27 10 AE 21 02 01 0C 2B  AE 21 02 01 07 80 23 79  '..!...+.!....#y
0180: 00 B0 21 02 01 AE 21 02  01 5B 08 80 B0 21 02 01  ..!...!..[...!..
0190: B0 21 02 01 74 6C 61 30  52 03 80 F0 FF FF 7F F0  .!..tla0R.......
01A0: FF FF 7F 63 30 30 31 45  03 80 F0 FF FF 7F F0 FF  ...c001E........
01B0: FF 7F 63 30 30 32 04 80  2B B0 21 02 01 09 80 23  ..c002..+.!....#
01C0: 1A 43 1D 1C 01 80 45 0A  80 F0 FF FF 7F F0 FF FF  .C....E.........
01D0: 7F 77 68 69 31 04 80 29  10 AE 21 02 01 0D 29 10  .whi1..)..!...).
01E0: B0 21 02 01 0C 29 10 B3  21 02 01 0C 29 10 B2 21  .!...)..!...)..!
01F0: 02 01 0C 29 10 B4 21 02  01 0C 29 10 F0 FF FF 7F  ...)..!...).....
0200: 1C 1C 0B 80 79 00 B3 21  02 01 AE 21 02 01 66 0C  ....y..!...!..f.
0210: 80 B4 21 02 01 B4 21 02  01 74 68 6B 31 5B 08 80  ..!...!..thk1[..
0220: B0 21 02 01 B0 21 02 01  74 6C 62 30 52 03 80 F0  .!...!..tlb0R...
0230: FF FF 7F F0 FF FF 7F 63  30 30 32 45 03 80 F0 FF  .......c002E....
0240: FF 7F F0 FF FF 7F 63 30  30 33 04 80 1A 22 1D 27  ......c003...".'
0250: 10 AE 21 02 01 0E 1C 0B  80 5B 0D 80 AE 21 02 01  ..!......[...!..
0260: AE 21 02 01 74 6C 62 30  2B AE 21 02 01 0E 80 23  .!..tlb0+.!....#
0270: 2B AE 21 02 01 0F 80 23  52 03 80 F0 FF FF 7F F0  +.!....#R.......
0280: FF FF 7F 63 30 30 33 45  03 80 F0 FF FF 7F F0 FF  ...c003E........
0290: FF 7F 63 30 30 34 04 80  5B 0D 80 AE 21 02 01 AE  ..c004..[...!...
02A0: 21 02 01 74 6C 62 31 2B  AE 21 02 01 10 80 23 52  !..tlb1+.!....#R
02B0: 03 80 F0 FF FF 7F F0 FF  FF 7F 63 30 30 34 45 03  ..........c004E.
02C0: 80 F0 FF FF 7F F0 FF FF  7F 63 30 30 35 04 80 66  .........c005..f
02D0: 11 80 B2 21 02 01 B2 21  02 01 74 6C 6B 30 2B B2  ...!...!..tlk0+.
02E0: 21 02 01 12 80 23 66 11  80 B2 21 02 01 B2 21 02  !....#f...!...!.
02F0: 01 74 6C 6B 31 7B AE 21  02 01 5B 02 80 AE 21 02  .tlk1{.!..[...!.
0300: 01 AE 21 02 01 73 72 61  30 52 03 80 F0 FF FF 7F  ..!..sra0R......
0310: F0 FF FF 7F 63 30 30 35  45 03 80 F0 FF FF 7F F0  ....c005E.......
0320: FF FF 7F 63 30 30 36 04  80 2B AE 21 02 01 13 80  ...c006..+.!....
0330: 23 5B 08 80 B0 21 02 01  B0 21 02 01 74 6C 62 31  #[...!...!..tlb1
0340: 2B B0 21 02 01 14 80 23  5B 02 80 AE 21 02 01 AE  +.!....#[...!...
0350: 21 02 01 73 72 61 31 53  AE 21 02 01 AE 21 02 01  !..sra1S.!...!..
0360: 73 72 61 31 52 03 80 F0  FF FF 7F F0 FF FF 7F 63  sra1R..........c
0370: 30 30 36 45 03 80 F0 FF  FF 7F F0 FF FF 7F 63 30  006E..........c0
0380: 30 37 04 80 79 00 AE 21  02 01 F0 FF FF 7F 5B 0D  07..y..!......[.
0390: 80 AE 21 02 01 AE 21 02  01 74 6C 63 30 2B AE 21  ..!...!..tlc0+.!
03A0: 02 01 15 80 23 2B AE 21  02 01 16 80 23 52 03 80  ....#+.!....#R..
03B0: F0 FF FF 7F F0 FF FF 7F  63 30 30 37 45 03 80 F0  ........c007E...
03C0: FF FF 7F F0 FF FF 7F 63  30 30 38 04 80 7B AE 21  .......c008..{.!
03D0: 02 01 5B 0D 80 AE 21 02  01 AE 21 02 01 74 6C 63  ..[...!...!..tlc
03E0: 31 2B AE 21 02 01 17 80  23 2B AE 21 02 01 18 80  1+.!....#+.!....
03F0: 23 53 AE 21 02 01 AE 21  02 01 74 6C 63 31 5B 19  #S.!...!..tlc1[.
0400: 80 AE 21 02 01 AE 21 02  01 6F 72 61 30 2B AE 21  ..!...!..ora0+.!
0410: 02 01 1A 80 23 52 03 80  F0 FF FF 7F F0 FF FF 7F  ....#R..........
0420: 63 30 30 38 45 03 80 F0  FF FF 7F F0 FF FF 7F 63  c008E..........c
0430: 30 30 39 04 80 27 10 AE  21 02 01 0F 1C 0B 80 81  009..'..!.......
0440: 00 B0 21 02 01 7C 00 B0  21 02 01 5B 1B 80 B0 21  ..!..|..!..[...!
0450: 02 01 B0 21 02 01 6D 74  65 30 1A 43 1D 1C 01 80  ...!..mte0.C....
0460: 2A 10 AE 21 02 01 1C 0B  80 52 03 80 F0 FF FF 7F  *..!.....R......
0470: F0 FF FF 7F 63 30 30 39  27 10 5D 21 02 01 05 2D  ....c009'.]!...-
0480: F8 FF FF 7F F8 FF FF 7F  64 6F 6F 72 5C 00 04 80  ........door\...
0490: 5C 01 04 80 5C 02 1C 80  5C 03 1D 80 9A 1A BA 17  \...\...\.......
04A0: 46 00 45 1E 80 F0 FF FF  7F F0 FF FF 7F 66 64 69  F.E..........fdi
04B0: 32 04 80 21 00                                    2..!.           
```

#### Opcodes

```
  0: 0x0001 [0x42] SET_CLI_EVENT_CANCEL_DATA()
  1: 0x0002 [0x1A] CALL_SUBROUTINE(address=0x1D43)
  2: 0x0005 [0x46] CAMERA_CONTROL: Disable user control
  3: 0x0007 [0x38] SET_CLIENT_EVENT_MODE(mode=19*)
  4: 0x000A [0x79] LocalPlayer looks at LocalPlayer (Basic look)
  5: 0x0014 [0x27] REQ_SET(priority=0x10, entity_id=Prishe (ID: 16916910/0x010221AE), tag_num=0x04)
  6: 0x001B [0x27] REQ_SET(priority=0x10, entity_id=Ulmia (ID: 16916912/0x010221B0), tag_num=0x04)
  7: 0x0022 [0x27] REQ_SET(priority=0x10, entity_id=Shikaree Z (ID: 16916915/0x010221B3), tag_num=0x04)
  8: 0x0029 [0x27] REQ_SET(priority=0x10, entity_id=Jabbos (ID: 16916914/0x010221B2), tag_num=0x04)
  9: 0x0030 [0x27] REQ_SET(priority=0x10, entity_id=Louverance (ID: 16916916/0x010221B4), tag_num=0x04)
 10: 0x0037 [0x92] Prishe (ID: 16916910/0x010221AE)->Render.Flags3 ^= 0x01
 11: 0x003D [0x92] Ulmia (ID: 16916912/0x010221B0)->Render.Flags3 ^= 0x01
 12: 0x0043 [0x92] Shikaree Z (ID: 16916915/0x010221B3)->Render.Flags3 ^= 0x01
 13: 0x0049 [0x92] Jabbos (ID: 16916914/0x010221B2)->Render.Flags3 ^= 0x01
 14: 0x004F [0x92] Louverance (ID: 16916916/0x010221B4)->Render.Flags3 ^= 0x01
 15: 0x0055 [0x94] LocalPlayer->Render.Flags3 ^= 0x01
 16: 0x005B [0x94] Prishe (ID: 16916910/0x010221AE)->Render.Flags3 ^= 0x01
 17: 0x0061 [0x94] Ulmia (ID: 16916912/0x010221B0)->Render.Flags3 ^= 0x01
 18: 0x0067 [0x94] Shikaree Z (ID: 16916915/0x010221B3)->Render.Flags3 ^= 0x01
 19: 0x006D [0x94] Jabbos (ID: 16916914/0x010221B2)->Render.Flags3 ^= 0x01
 20: 0x0073 [0x94] Louverance (ID: 16916916/0x010221B4)->Render.Flags3 ^= 0x01
 21: 0x0079 [0x29] REQ_SET_WAIT(priority=0x10, entity_id=Prishe (ID: 16916910/0x010221AE), tag_num=0x0A)
 22: 0x0080 [0x29] REQ_SET_WAIT(priority=0x10, entity_id=Ulmia (ID: 16916912/0x010221B0), tag_num=0x0B)
 23: 0x0087 [0x29] REQ_SET_WAIT(priority=0x10, entity_id=Shikaree Z (ID: 16916915/0x010221B3), tag_num=0x0B)
 24: 0x008E [0x29] REQ_SET_WAIT(priority=0x10, entity_id=Jabbos (ID: 16916914/0x010221B2), tag_num=0x0B)
 25: 0x0095 [0x29] REQ_SET_WAIT(priority=0x10, entity_id=Louverance (ID: 16916916/0x010221B4), tag_num=0x0B)
 26: 0x009C [0x29] REQ_SET_WAIT(priority=0x10, entity_id=LocalPlayer, tag_num=0x1A)
 27: 0x00A3 [0x80] LOAD_WAIT(entity=Ulmia (ID: 16916912/0x010221B0))
 28: 0x00A8 [0x80] LOAD_WAIT(entity=Shikaree Z (ID: 16916915/0x010221B3))
 29: 0x00AD [0x80] LOAD_WAIT(entity=Louverance (ID: 16916916/0x010221B4))
 30: 0x00B2 [0x80] LOAD_WAIT(entity=LocalPlayer)
 31: 0x00B7 [0x1C] WAIT(30* ticks)
 32: 0x00BA [0x5B] LOAD_EXT_SCHEDULER: Load scheduler "btu0" with entities [Prishe (ID: 16916910/0x010221AE), Prishe (ID: 16916910/0x010221AE)], work=481*
 33: 0x00C9 [0x7B] LocalPlayer stops talking
 34: 0x00CE [0x45] LOAD_SCHEDULED_TASK: Load scheduler "c000" with entities [LocalPlayer, LocalPlayer], work=[178*, 0*]
 35: 0x00DF [0x27] REQ_SET(priority=0x10, entity_id=LocalPlayer, tag_num=0x1B)
 36: 0x00E6 [0x1A] CALL_SUBROUTINE(address=0x1D22)
 37: 0x00E9 [0x2D] CREATE_ZONE_SCHEDULER_TASK: Create scheduler "s148" with entities [EventEntity, EventEntity]
 38: 0x00F6 [0x2D] CREATE_ZONE_SCHEDULER_TASK: Create scheduler "cryh" with entities [EventEntity, EventEntity]
 39: 0x0103 [0x54] WAIT_MAP_SCHEDULER: Wait for scheduler "cryh" with entities [EventEntity, EventEntity]
 40: 0x0110 [0x1C] WAIT(60* ticks)
 41: 0x0113 [0x2D] CREATE_ZONE_SCHEDULER_TASK: Create scheduler "senh" with entities [EventEntity, EventEntity]
 42: 0x0120 [0x54] WAIT_MAP_SCHEDULER: Wait for scheduler "senh" with entities [EventEntity, EventEntity]
 43: 0x012D [0x27] REQ_SET(priority=0x10, entity_id=Particle Gate (ID: 16916829/0x0102215D), tag_num=0x04)
 44: 0x0134 [0x79] LocalPlayer looks at Prishe (ID: 16916910/0x010221AE) (Basic look)
 45: 0x013E [0x5B] LOAD_EXT_SCHEDULER: Load scheduler "btu1" with entities [Prishe (ID: 16916910/0x010221AE), Prishe (ID: 16916910/0x010221AE)], work=481*
 46: 0x014D [0x1C] WAIT(150* ticks)
 47: 0x0150 [0x52] END_LOAD_SCHEDULER: End scheduler "c000" with entities [LocalPlayer, LocalPlayer], work=178*
 48: 0x015F [0x45] LOAD_SCHEDULED_TASK: Load scheduler "c001" with entities [LocalPlayer, LocalPlayer], work=[178*, 0*]
 49: 0x0170 [0x27] REQ_SET(priority=0x10, entity_id=Prishe (ID: 16916910/0x010221AE), tag_num=0x0C)
 50: 0x0177 [0x2B] Prishe (ID: 16916910/0x010221AE) [7298*]:
    → "Hey, it's <Player>!"
 51: 0x017E [0x23] WAIT_FOR_DIALOG_INTERACTION
 52: 0x017F [0x79] Ulmia (ID: 16916912/0x010221B0) looks at Prishe (ID: 16916910/0x010221AE) (Basic look)
 53: 0x0189 [0x5B] LOAD_EXT_SCHEDULER: Load scheduler "tla0" with entities [Ulmia (ID: 16916912/0x010221B0), Ulmia (ID: 16916912/0x010221B0)], work=420*
 54: 0x0198 [0x52] END_LOAD_SCHEDULER: End scheduler "c001" with entities [LocalPlayer, LocalPlayer], work=178*
 55: 0x01A7 [0x45] LOAD_SCHEDULED_TASK: Load scheduler "c002" with entities [LocalPlayer, LocalPlayer], work=[178*, 0*]
 56: 0x01B8 [0x2B] Ulmia (ID: 16916912/0x010221B0) [7299*]:
    → "Prishe!?"
 57: 0x01BF [0x23] WAIT_FOR_DIALOG_INTERACTION
 58: 0x01C0 [0x1A] CALL_SUBROUTINE(address=0x1D43)
 59: 0x01C3 [0x1C] WAIT(30* ticks)
 60: 0x01C6 [0x45] LOAD_SCHEDULED_TASK: Load scheduler "whi1" with entities [LocalPlayer, LocalPlayer], work=[201*, 0*]
 61: 0x01D7 [0x29] REQ_SET_WAIT(priority=0x10, entity_id=Prishe (ID: 16916910/0x010221AE), tag_num=0x0D)
 62: 0x01DE [0x29] REQ_SET_WAIT(priority=0x10, entity_id=Ulmia (ID: 16916912/0x010221B0), tag_num=0x0C)
 63: 0x01E5 [0x29] REQ_SET_WAIT(priority=0x10, entity_id=Shikaree Z (ID: 16916915/0x010221B3), tag_num=0x0C)
 64: 0x01EC [0x29] REQ_SET_WAIT(priority=0x10, entity_id=Jabbos (ID: 16916914/0x010221B2), tag_num=0x0C)
 65: 0x01F3 [0x29] REQ_SET_WAIT(priority=0x10, entity_id=Louverance (ID: 16916916/0x010221B4), tag_num=0x0C)
 66: 0x01FA [0x29] REQ_SET_WAIT(priority=0x10, entity_id=LocalPlayer, tag_num=0x1C)
 67: 0x0201 [0x1C] WAIT(15* ticks)
 68: 0x0204 [0x79] Shikaree Z (ID: 16916915/0x010221B3) looks at Prishe (ID: 16916910/0x010221AE) (Basic look)
 69: 0x020E [0x66] LOAD_EXT_SCHEDULER_MAIN: Load scheduler "thk1" with entities [Louverance (ID: 16916916/0x010221B4), Louverance (ID: 16916916/0x010221B4)], work=29*
 70: 0x021D [0x5B] LOAD_EXT_SCHEDULER: Load scheduler "tlb0" with entities [Ulmia (ID: 16916912/0x010221B0), Ulmia (ID: 16916912/0x010221B0)], work=420*
 71: 0x022C [0x52] END_LOAD_SCHEDULER: End scheduler "c002" with entities [LocalPlayer, LocalPlayer], work=178*
 72: 0x023B [0x45] LOAD_SCHEDULED_TASK: Load scheduler "c003" with entities [LocalPlayer, LocalPlayer], work=[178*, 0*]
 73: 0x024C [0x1A] CALL_SUBROUTINE(address=0x1D22)
 74: 0x024F [0x27] REQ_SET(priority=0x10, entity_id=Prishe (ID: 16916910/0x010221AE), tag_num=0x0E)
 75: 0x0256 [0x1C] WAIT(15* ticks)
 76: 0x0259 [0x5B] LOAD_EXT_SCHEDULER: Load scheduler "tlb0" with entities [Prishe (ID: 16916910/0x010221AE), Prishe (ID: 16916910/0x010221AE)], work=475*
 77: 0x0268 [0x2B] Prishe (ID: 16916910/0x010221AE) [7300*]:
    → "Glad to see you guys are okay. You gotta help me! I was trying to chase down that two-faced Orc-kisser, Nag'molada..."
 78: 0x026F [0x23] WAIT_FOR_DIALOG_INTERACTION
 79: 0x0270 [0x2B] Prishe (ID: 16916910/0x010221AE) [7301*]:
    → "But there's a gate blocking the way! I can't put a dent in it, even with my best drop-kick. Dammit, if I only had my amulet, I could pop it open faster than you could say "Bahamut's backside!""
 80: 0x0277 [0x23] WAIT_FOR_DIALOG_INTERACTION
 81: 0x0278 [0x52] END_LOAD_SCHEDULER: End scheduler "c003" with entities [LocalPlayer, LocalPlayer], work=178*
 82: 0x0287 [0x45] LOAD_SCHEDULED_TASK: Load scheduler "c004" with entities [LocalPlayer, LocalPlayer], work=[178*, 0*]
 83: 0x0298 [0x5B] LOAD_EXT_SCHEDULER: Load scheduler "tlb1" with entities [Prishe (ID: 16916910/0x010221AE), Prishe (ID: 16916910/0x010221AE)], work=475*
 84: 0x02A7 [0x2B] Prishe (ID: 16916910/0x010221AE) [7302*]:
    → "If we don't get a move on, old Naggy's gonna get to the Chamber of Eventide before us!"
 85: 0x02AE [0x23] WAIT_FOR_DIALOG_INTERACTION
 86: 0x02AF [0x52] END_LOAD_SCHEDULER: End scheduler "c004" with entities [LocalPlayer, LocalPlayer], work=178*
 87: 0x02BE [0x45] LOAD_SCHEDULED_TASK: Load scheduler "c005" with entities [LocalPlayer, LocalPlayer], work=[178*, 0*]
 88: 0x02CF [0x66] LOAD_EXT_SCHEDULER_MAIN: Load scheduler "tlk0" with entities [Jabbos (ID: 16916914/0x010221B2), Jabbos (ID: 16916914/0x010221B2)], work=69*
 89: 0x02DE [0x2B] Jabbos (ID: 16916914/0x010221B2) [7303*]:
    → "What...is this...Chamber of...Eventide...?"
 90: 0x02E5 [0x23] WAIT_FOR_DIALOG_INTERACTION
 91: 0x02E6 [0x66] LOAD_EXT_SCHEDULER_MAIN: Load scheduler "tlk1" with entities [Jabbos (ID: 16916914/0x010221B2), Jabbos (ID: 16916914/0x010221B2)], work=69*
 92: 0x02F5 [0x7B] Prishe (ID: 16916910/0x010221AE) stops talking
 93: 0x02FA [0x5B] LOAD_EXT_SCHEDULER: Load scheduler "sra0" with entities [Prishe (ID: 16916910/0x010221AE), Prishe (ID: 16916910/0x010221AE)], work=481*
 94: 0x0309 [0x52] END_LOAD_SCHEDULER: End scheduler "c005" with entities [LocalPlayer, LocalPlayer], work=178*
 95: 0x0318 [0x45] LOAD_SCHEDULED_TASK: Load scheduler "c006" with entities [LocalPlayer, LocalPlayer], work=[178*, 0*]
 96: 0x0329 [0x2B] Prishe (ID: 16916910/0x010221AE) [7304*]:
    → "I don't know for sure, but it's a device that's supposed to suck the Emptiness right out of a person."
 97: 0x0330 [0x23] WAIT_FOR_DIALOG_INTERACTION
 98: 0x0331 [0x5B] LOAD_EXT_SCHEDULER: Load scheduler "tlb1" with entities [Ulmia (ID: 16916912/0x010221B0), Ulmia (ID: 16916912/0x010221B0)], work=420*
 99: 0x0340 [0x2B] Ulmia (ID: 16916912/0x010221B0) [7305*]:
    → "Extract the Emptiness...?"
100: 0x0347 [0x23] WAIT_FOR_DIALOG_INTERACTION
101: 0x0348 [0x5B] LOAD_EXT_SCHEDULER: Load scheduler "sra1" with entities [Prishe (ID: 16916910/0x010221AE), Prishe (ID: 16916910/0x010221AE)], work=481*
102: 0x0357 [0x53] WAIT_SCHEDULER_TASK: Wait for scheduler "sra1" with entities [Prishe (ID: 16916910/0x010221AE), Prishe (ID: 16916910/0x010221AE)]
103: 0x0364 [0x52] END_LOAD_SCHEDULER: End scheduler "c006" with entities [LocalPlayer, LocalPlayer], work=178*
104: 0x0373 [0x45] LOAD_SCHEDULED_TASK: Load scheduler "c007" with entities [LocalPlayer, LocalPlayer], work=[178*, 0*]
105: 0x0384 [0x79] Prishe (ID: 16916910/0x010221AE) looks at LocalPlayer (Basic look)
106: 0x038E [0x5B] LOAD_EXT_SCHEDULER: Load scheduler "tlc0" with entities [Prishe (ID: 16916910/0x010221AE), Prishe (ID: 16916910/0x010221AE)], work=475*
107: 0x039D [0x2B] Prishe (ID: 16916910/0x010221AE) [7306*]:
    → "Do you remember, <Player>? The Emptiness within caused the ancients to lose the whisper of the soul."
108: 0x03A4 [0x23] WAIT_FOR_DIALOG_INTERACTION
109: 0x03A5 [0x2B] Prishe (ID: 16916910/0x010221AE) [7307*]:
    → "Their inner darkness grew so intense that it completely overshadowed the light."
110: 0x03AC [0x23] WAIT_FOR_DIALOG_INTERACTION
111: 0x03AD [0x52] END_LOAD_SCHEDULER: End scheduler "c007" with entities [LocalPlayer, LocalPlayer], work=178*
112: 0x03BC [0x45] LOAD_SCHEDULED_TASK: Load scheduler "c008" with entities [LocalPlayer, LocalPlayer], work=[178*, 0*]
113: 0x03CD [0x7B] Prishe (ID: 16916910/0x010221AE) stops talking
114: 0x03D2 [0x5B] LOAD_EXT_SCHEDULER: Load scheduler "tlc1" with entities [Prishe (ID: 16916910/0x010221AE), Prishe (ID: 16916910/0x010221AE)], work=475*
115: 0x03E1 [0x2B] Prishe (ID: 16916910/0x010221AE) [7308*]:
    → "And that's why Nag'molada means to use the Chamber of Eventide--to become wholly Zilart once more."
116: 0x03E8 [0x23] WAIT_FOR_DIALOG_INTERACTION
117: 0x03E9 [0x2B] Prishe (ID: 16916910/0x010221AE) [7309*]:
    → "But both Miss Mildaurion and Selh'teus warned us that the device is too unstable."
118: 0x03F0 [0x23] WAIT_FOR_DIALOG_INTERACTION
119: 0x03F1 [0x53] WAIT_SCHEDULER_TASK: Wait for scheduler "tlc1" with entities [Prishe (ID: 16916910/0x010221AE), Prishe (ID: 16916910/0x010221AE)]
120: 0x03FE [0x5B] LOAD_EXT_SCHEDULER: Load scheduler "ora0" with entities [Prishe (ID: 16916910/0x010221AE), Prishe (ID: 16916910/0x010221AE)], work=624*
121: 0x040D [0x2B] Prishe (ID: 16916910/0x010221AE) [7310*]:
    → "We gotta stop him from making a huge mistake! C'mon, get those legs moving!"
122: 0x0414 [0x23] WAIT_FOR_DIALOG_INTERACTION
123: 0x0415 [0x52] END_LOAD_SCHEDULER: End scheduler "c008" with entities [LocalPlayer, LocalPlayer], work=178*
124: 0x0424 [0x45] LOAD_SCHEDULED_TASK: Load scheduler "c009" with entities [LocalPlayer, LocalPlayer], work=[178*, 0*]
125: 0x0435 [0x27] REQ_SET(priority=0x10, entity_id=Prishe (ID: 16916910/0x010221AE), tag_num=0x0F)
126: 0x043C [0x1C] WAIT(15* ticks)
127: 0x043F [0x81] SET_ENTITY_BLINKING(blink_flag=0x00, entity=Ulmia (ID: 16916912/0x010221B0))
128: 0x0445 [0x7C] Ulmia (ID: 16916912/0x010221B0)->Render.Flags2 |= 0x00
129: 0x044B [0x5B] LOAD_EXT_SCHEDULER: Load scheduler "mte0" with entities [Ulmia (ID: 16916912/0x010221B0), Ulmia (ID: 16916912/0x010221B0)], work=633*
130: 0x045A [0x1A] CALL_SUBROUTINE(address=0x1D43)
131: 0x045D [0x1C] WAIT(30* ticks)
132: 0x0460 [0x2A] GET_REQ_LEVEL(level=16, entity_id=Prishe (ID: 16916910/0x010221AE))
133: 0x0466 [0x1C] WAIT(15* ticks)
134: 0x0469 [0x52] END_LOAD_SCHEDULER: End scheduler "c009" with entities [LocalPlayer, LocalPlayer], work=178*
135: 0x0478 [0x27] REQ_SET(priority=0x10, entity_id=Particle Gate (ID: 16916829/0x0102215D), tag_num=0x05)
136: 0x047F [0x2D] CREATE_ZONE_SCHEDULER_TASK: Create scheduler "door" with entities [EventEntity, EventEntity]
137: 0x048C [0x5C] MUSIC_CONTROL: Set Idle (Day) music to song 0*
138: 0x0490 [0x5C] MUSIC_CONTROL: Set Idle (Night) music to song 0*
139: 0x0494 [0x5C] MUSIC_CONTROL: Set Combat (Solo) music to song 115*
140: 0x0498 [0x5C] MUSIC_CONTROL: Set Combat (Party) music to song 218*
141: 0x049C [0x9A] WAIT_MUSIC_SERVER()
142: 0x049D [0x1A] CALL_SUBROUTINE(address=0x17BA)
143: 0x04A0 [0x46] CAMERA_CONTROL: Restore default settings
144: 0x04A2 [0x45] LOAD_SCHEDULED_TASK: Load scheduler "fdi2" with entities [LocalPlayer, LocalPlayer], work=[200*, 0*]
145: 0x04B3 [0x21] END_EVENT
146: 0x04B4 [0x00] END_REQSTACK()
```

### Event 3

#### Metadata

| Field        | Value      |
|--------------|------------|
| Entrypoint   | 0x04B5     |
| Data Size    | 4909 bytes |
| Instructions | 610        |

```
      00 01 02 03 04 05 06 07  08 09 0A 0B 0C 0D 0E 0F
      -- -- -- -- -- -- -- --  -- -- -- -- -- -- -- --
04B0:                42 1A 43  1D 46 01 38 00 80 1C 05       B.C.F.8....
04C0: 80 38 00 80 45 1F 80 F0  FF FF 7F F0 FF FF 7F 75  .8..E..........u
04D0: 74 36 30 04 80 29 01 F0  FF FF 7F 08 45 1E 80 F0  t60..)......E...
04E0: FF FF 7F F0 FF FF 7F 66  64 69 31 04 80 1C 20 80  .......fdi1... .
04F0: 2D F8 FF FF 7F F8 FF FF  7F 73 31 34 39 2D F8 FF  -........s149-..
0500: FF 7F F8 FF FF 7F 68 69  6B 61 54 F8 FF FF 7F F8  ......hikaT.....
0510: FF FF 7F 68 69 6B 61 1C  05 80 27 10 9A 21 02 01  ...hika...'..!..
0520: 04 1C 20 80 27 01 F0 FF  FF 7F 09 1C 21 80 27 10  .. .'.......!.'.
0530: 9A 21 02 01 05 1C 22 80  45 1E 80 F0 FF FF 7F F0  .!....".E.......
0540: FF FF 7F 66 64 6F 31 04  80 1C 05 80 45 0A 80 F0  ...fdo1.....E...
0550: FF FF 7F F0 FF FF 7F 77  68 69 31 04 80 52 1F 80  .......whi1..R..
0560: F0 FF FF 7F F0 FF FF 7F  75 74 36 30 34 23 80 77  ........ut604#.w
0570: 24 80 25 80 1C 01 80 AB  09 1C 0B 80 79 00 F0 FF  $.%.........y...
0580: FF 7F F0 FF FF 7F 27 10  AE 21 02 01 02 27 10 BE  ......'..!...'..
0590: 21 02 01 02 27 10 B5 21  02 01 04 27 10 AF 21 02  !...'..!...'..!.
05A0: 01 02 27 10 BC 21 02 01  02 27 10 BD 21 02 01 02  ..'..!...'..!...
05B0: 92 01 AE 21 02 01 92 01  BE 21 02 01 92 01 B5 21  ...!.....!.....!
05C0: 02 01 92 01 AF 21 02 01  92 01 BC 21 02 01 92 01  .....!.....!....
05D0: BD 21 02 01 94 01 F0 FF  FF 7F 94 01 AE 21 02 01  .!...........!..
05E0: 94 01 BE 21 02 01 94 01  B5 21 02 01 94 01 AF 21  ...!.....!.....!
05F0: 02 01 94 01 BC 21 02 01  94 01 BD 21 02 01 29 10  .....!.....!..).
0600: AE 21 02 01 10 29 10 BE  21 02 01 09 29 10 B5 21  .!...)..!...)..!
0610: 02 01 09 29 10 AF 21 02  01 09 29 10 BC 21 02 01  ...)..!...)..!..
0620: 09 29 10 BD 21 02 01 09  29 10 F0 FF FF 7F 1D 80  .)..!...).......
0630: AE 21 02 01 80 BE 21 02  01 80 B5 21 02 01 80 AF  .!....!....!....
0640: 21 02 01 80 BC 21 02 01  80 BD 21 02 01 80 F0 FF  !....!....!.....
0650: FF 7F 1C 01 80 5C 00 26  80 5C 01 26 80 9A 5B 27  .....\.&.\.&..['
0660: 80 BD 21 02 01 BD 21 02  01 64 65 64 30 5B 28 80  ..!...!..ded0[(.
0670: B5 21 02 01 B5 21 02 01  75 74 6C 31 5B 29 80 AF  .!...!..utl1[)..
0680: 21 02 01 AF 21 02 01 64  77 6E 30 5B 2A 80 BC 21  !...!..dwn0[*..!
0690: 02 01 BC 21 02 01 70 6F  70 30 7B F0 FF FF 7F 27  ...!..pop0{....'
06A0: 10 B5 21 02 01 0F 45 1F  80 F0 FF FF 7F F0 FF FF  ..!...E.........
06B0: 7F 75 74 30 30 04 80 1A  22 1D 2B B5 21 02 01 2B  .ut00...".+.!..+
06C0: 80 23 45 1F 80 F0 FF FF  7F F0 FF FF 7F 61 73 69  .#E..........asi
06D0: 30 04 80 5B 28 80 B5 21  02 01 B5 21 02 01 75 74  0..[(..!...!..ut
06E0: 30 31 1C 01 80 52 1F 80  F0 FF FF 7F F0 FF FF 7F  01...R..........
06F0: 75 74 30 30 45 1F 80 F0  FF FF 7F F0 FF FF 7F 75  ut00E..........u
0700: 74 30 31 04 80 2B B5 21  02 01 2C 80 23 55 1F 80  t01..+.!..,.#U..
0710: F0 FF FF 7F F0 FF FF 7F  75 74 30 31 45 1F 80 F0  ........ut01E...
0720: FF FF 7F F0 FF FF 7F 75  74 30 33 04 80 1C 20 80  .......ut03... .
0730: 29 10 BD 21 02 01 0A 55  1F 80 F0 FF FF 7F F0 FF  )..!...U........
0740: FF 7F 75 74 30 33 1A 43  1D 1C 20 80 53 B5 21 02  ..ut03.C.. .S.!.
0750: 01 B5 21 02 01 75 74 30  31 6B 69 64 6C 30 B5 21  ..!..ut01kidl0.!
0760: 02 01 29 10 B5 21 02 01  0A 6C F0 FF FF 7F 2D 80  ..)..!...l....-.
0770: 25 80 6C AE 21 02 01 2D  80 25 80 1C 05 80 5B 2E  %.l.!..-.%....[.
0780: 80 B5 21 02 01 B5 21 02  01 74 68 61 30 45 1E 80  ..!...!..tha0E..
0790: F0 FF FF 7F F0 FF FF 7F  66 64 69 32 04 80 5D 04  ........fdi2..].
07A0: 80 2F 80 27 10 F0 FF FF  7F 1E 27 10 AE 21 02 01  ./.'......'..!..
07B0: 11 45 1F 80 F0 FF FF 7F  F0 FF FF 7F 75 74 30 35  .E..........ut05
07C0: 04 80 1C 30 80 2B AE 21  02 01 31 80 23 2A 10 F0  ...0.+.!..1.#*..
07D0: FF FF 7F 52 1F 80 F0 FF  FF 7F F0 FF FF 7F 75 74  ...R..........ut
07E0: 30 35 45 1F 80 F0 FF FF  7F F0 FF FF 7F 75 74 30  05E..........ut0
07F0: 36 04 80 2B B5 21 02 01  32 80 23 2B B5 21 02 01  6..+.!..2.#+.!..
0800: 33 80 23 27 10 F0 FF FF  7F 1F 27 10 AE 21 02 01  3.#'......'..!..
0810: 12 52 1F 80 F0 FF FF 7F  F0 FF FF 7F 75 74 30 36  .R..........ut06
0820: 45 1F 80 F0 FF FF 7F F0  FF FF 7F 75 74 30 37 04  E..........ut07.
0830: 80 1C 01 80 5B 2E 80 B5  21 02 01 B5 21 02 01 74  ....[...!...!..t
0840: 68 61 31 2B AD 21 02 01  34 80 23 5C 00 21 80 5C  ha1+.!..4.#\.!.\
0850: 01 21 80 9A 79 00 B5 21  02 01 BC 21 02 01 4A F0  .!..y..!...!..J.
0860: FF FF 7F BC 21 02 01 4A  AE 21 02 01 BC 21 02 01  ....!..J.!...!..
0870: 27 10 B5 21 02 01 0B 52  1F 80 F0 FF FF 7F F0 FF  '..!...R........
0880: FF 7F 75 74 30 37 45 1F  80 F0 FF FF 7F F0 FF FF  ..ut07E.........
0890: 7F 75 74 30 38 04 80 9F  35 80 BC 21 02 01 BC 21  .ut08...5..!...!
08A0: 02 01 6D 61 69 6E 04 80  55 1F 80 F0 FF FF 7F F0  ..main..U.......
08B0: FF FF 7F 75 74 30 38 45  1F 80 F0 FF FF 7F F0 FF  ...ut08E........
08C0: FF 7F 75 74 31 30 04 80  1C 05 80 2B B5 21 02 01  ..ut10.....+.!..
08D0: 36 80 23 2B BC 21 02 01  37 80 23 52 1F 80 F0 FF  6.#+.!..7.#R....
08E0: FF 7F F0 FF FF 7F 75 74  31 30 45 1F 80 F0 FF FF  ......ut10E.....
08F0: 7F F0 FF FF 7F 75 74 33  30 04 80 2B BC 21 02 01  .....ut30..+.!..
0900: 38 80 23 52 1F 80 F0 FF  FF 7F F0 FF FF 7F 75 74  8.#R..........ut
0910: 33 30 45 1F 80 F0 FF FF  7F F0 FF FF 7F 75 74 31  30E..........ut1
0920: 32 04 80 5B 2E 80 B5 21  02 01 B5 21 02 01 74 6C  2..[...!...!..tl
0930: 62 30 2B B5 21 02 01 39  80 23 52 1F 80 F0 FF FF  b0+.!..9.#R.....
0940: 7F F0 FF FF 7F 75 74 31  32 45 1F 80 F0 FF FF 7F  .....ut12E......
0950: F0 FF FF 7F 75 74 31 33  04 80 2B BC 21 02 01 3A  ....ut13..+.!..:
0960: 80 23 52 1F 80 F0 FF FF  7F F0 FF FF 7F 75 74 31  .#R..........ut1
0970: 33 45 1F 80 F0 FF FF 7F  F0 FF FF 7F 75 74 31 34  3E..........ut14
0980: 04 80 5B 2E 80 B5 21 02  01 B5 21 02 01 74 6C 62  ..[...!...!..tlb
0990: 31 5B 3B 80 AE 21 02 01  AE 21 02 01 73 74 64 30  1[;..!...!..std0
09A0: 2B AE 21 02 01 3C 80 23  52 1F 80 F0 FF FF 7F F0  +.!..<.#R.......
09B0: FF FF 7F 75 74 31 34 45  1F 80 F0 FF FF 7F F0 FF  ...ut14E........
09C0: FF 7F 75 74 31 35 04 80  2B BC 21 02 01 3D 80 23  ..ut15..+.!..=.#
09D0: 52 1F 80 F0 FF FF 7F F0  FF FF 7F 75 74 31 35 45  R..........ut15E
09E0: 1F 80 F0 FF FF 7F F0 FF  FF 7F 75 74 31 36 04 80  ..........ut16..
09F0: 5B 3B 80 AE 21 02 01 AE  21 02 01 73 74 74 66 2B  [;..!...!..sttf+
0A00: AE 21 02 01 3E 80 23 52  1F 80 F0 FF FF 7F F0 FF  .!..>.#R........
0A10: FF 7F 75 74 31 36 45 1F  80 F0 FF FF 7F F0 FF FF  ..ut16E.........
0A20: 7F 75 74 31 37 04 80 5B  3B 80 AE 21 02 01 AE 21  .ut17..[;..!...!
0A30: 02 01 74 6C 66 31 2B BC  21 02 01 3F 80 23 2B BC  ..tlf1+.!..?.#+.
0A40: 21 02 01 40 80 23 52 1F  80 F0 FF FF 7F F0 FF FF  !..@.#R.........
0A50: 7F 75 74 31 37 45 1F 80  F0 FF FF 7F F0 FF FF 7F  .ut17E..........
0A60: 75 74 31 38 04 80 1C 05  80 2B BC 21 02 01 41 80  ut18.....+.!..A.
0A70: 23 45 1F 80 F0 FF FF 7F  F0 FF FF 7F 34 30 32 37  #E..........4027
0A80: 04 80 5B 2A 80 BC 21 02  01 BC 21 02 01 6C 6B 62  ..[*..!...!..lkb
0A90: 30 1C 01 80 52 1F 80 F0  FF FF 7F F0 FF FF 7F 75  0...R..........u
0AA0: 74 31 38 45 1F 80 F0 FF  FF 7F F0 FF FF 7F 75 74  t18E..........ut
0AB0: 31 39 04 80 2B BC 21 02  01 42 80 23 52 1F 80 F0  19..+.!..B.#R...
0AC0: FF FF 7F F0 FF FF 7F 75  74 31 39 45 1F 80 F0 FF  .......ut19E....
0AD0: FF 7F F0 FF FF 7F 75 74  32 33 04 80 2B BC 21 02  ......ut23..+.!.
0AE0: 01 43 80 23 52 1F 80 F0  FF FF 7F F0 FF FF 7F 75  .C.#R..........u
0AF0: 74 32 33 45 1F 80 F0 FF  FF 7F F0 FF FF 7F 75 74  t23E..........ut
0B00: 32 31 04 80 2B BC 21 02  01 44 80 23 5B 28 80 B5  21..+.!..D.#[(..
0B10: 21 02 01 B5 21 02 01 75  74 30 32 52 1F 80 F0 FF  !...!..ut02R....
0B20: FF 7F F0 FF FF 7F 75 74  32 31 45 1F 80 F0 FF FF  ......ut21E.....
0B30: 7F F0 FF FF 7F 75 74 32  32 04 80 1C 01 80 2B B5  .....ut22.....+.
0B40: 21 02 01 45 80 23 2B B5  21 02 01 46 80 23 5D 04  !..E.#+.!..F.#].
0B50: 80 06 80 52 1F 80 F0 FF  FF 7F F0 FF FF 7F 75 74  ...R..........ut
0B60: 32 32 45 1F 80 F0 FF FF  7F F0 FF FF 7F 75 74 32  22E..........ut2
0B70: 34 04 80 45 1F 80 F0 FF  FF 7F F0 FF FF 7F 34 30  4..E..........40
0B80: 32 37 04 80 5B 2A 80 BC  21 02 01 BC 21 02 01 6C  27..[*..!...!..l
0B90: 6B 62 31 53 BC 21 02 01  BC 21 02 01 6C 6B 62 31  kb1S.!...!..lkb1
0BA0: 2B BC 21 02 01 47 80 23  1A 85 1D 1C 01 80 77 24  +.!..G.#......w$
0BB0: 80 48 80 6C AF 21 02 01  2D 80 25 80 6C BC 21 02  .H.l.!..-.%.l.!.
0BC0: 01 04 80 25 80 6C F0 FF  FF 7F 04 80 25 80 6C AE  ...%.l......%.l.
0BD0: 21 02 01 04 80 25 80 6C  B5 21 02 01 04 80 25 80  !....%.l.!....%.
0BE0: 6C BD 21 02 01 04 80 25  80 92 01 F0 FF FF 7F 1C  l.!....%........
0BF0: 01 80 5C 00 49 80 5C 01  49 80 9A 52 1F 80 F0 FF  ..\.I.\.I..R....
0C00: FF 7F F0 FF FF 7F 75 74  32 34 45 1F 80 F0 FF FF  ......ut24E.....
0C10: 7F F0 FF FF 7F 75 74 32  35 04 80 1A 64 1D 1C 05  .....ut25...d...
0C20: 80 2B BC 21 02 01 4A 80  23 52 1F 80 F0 FF FF 7F  .+.!..J.#R......
0C30: F0 FF FF 7F 75 74 32 35  45 1F 80 F0 FF FF 7F F0  ....ut25E.......
0C40: FF FF 7F 75 74 32 39 04  80 2B BC 21 02 01 4B 80  ...ut29..+.!..K.
0C50: 23 1C 05 80 2B B5 21 02  01 4C 80 52 1F 80 F0 FF  #...+.!..L.R....
0C60: FF 7F F0 FF FF 7F 75 74  32 39 45 1F 80 F0 FF FF  ......ut29E.....
0C70: 7F F0 FF FF 7F 75 74 32  36 04 80 1C 21 80 1A 85  .....ut26...!...
0C80: 1D 1C 01 80 77 24 80 25  80 52 1F 80 F0 FF FF 7F  ....w$.%.R......
0C90: F0 FF FF 7F 75 74 32 36  6C AF 21 02 01 04 80 25  ....ut26l.!....%
0CA0: 80 6C BC 21 02 01 2D 80  25 80 6C F0 FF FF 7F 2D  .l.!..-.%.l....-
0CB0: 80 25 80 6C AE 21 02 01  2D 80 25 80 6C B5 21 02  .%.l.!..-.%.l.!.
0CC0: 01 2D 80 25 80 6C BD 21  02 01 2D 80 25 80 92 00  .-.%.l.!..-.%...
0CD0: F0 FF FF 7F 1C 01 80 5B  4D 80 AE 21 02 01 AE 21  .......[M..!...!
0CE0: 02 01 63 34 31 32 45 1F  80 F0 FF FF 7F F0 FF FF  ..c412E.........
0CF0: 7F 30 62 6C 66 04 80 45  1F 80 F0 FF FF 7F F0 FF  .0blf..E........
0D00: FF 7F 75 74 32 38 04 80  1A 64 1D 2B AE 21 02 01  ..ut28...d.+.!..
0D10: 4E 80 23 2B AE 21 02 01  4F 80 23 52 1F 80 F0 FF  N.#+.!..O.#R....
0D20: FF 7F F0 FF FF 7F 75 74  32 38 45 1F 80 F0 FF FF  ......ut28E.....
0D30: 7F F0 FF FF 7F 75 74 33  31 04 80 2B AE 21 02 01  .....ut31..+.!..
0D40: 50 80 23 81 00 BC 21 02  01 5B 51 80 BC 21 02 01  P.#...!..[Q..!..
0D50: BC 21 02 01 75 74 75 30  1C 05 80 2B BC 21 02 01  .!..utu0...+.!..
0D60: 52 80 23 2B BC 21 02 01  53 80 23 2B BC 21 02 01  R.#+.!..S.#+.!..
0D70: 54 80 23 1A 85 1D 1C 01  80 34 55 80 77 24 80 25  T.#......4U.w$.%
0D80: 80 1C 01 80 6C AF 21 02  01 04 80 25 80 6C BC 21  ....l.!....%.l.!
0D90: 02 01 04 80 25 80 6C F0  FF FF 7F 04 80 25 80 6C  ....%.l......%.l
0DA0: AE 21 02 01 04 80 25 80  6C BE 21 02 01 04 80 25  .!....%.l.!....%
0DB0: 80 6C B5 21 02 01 04 80  25 80 6C BD 21 02 01 2D  .l.!....%.l.!..-
0DC0: 80 25 80 92 01 F0 FF FF  7F 92 01 AE 21 02 01 92  .%..........!...
0DD0: 01 BE 21 02 01 92 01 B5  21 02 01 92 01 AF 21 02  ..!.....!.....!.
0DE0: 01 92 01 BC 21 02 01 92  01 BD 21 02 01 29 10 F0  ....!.....!..)..
0DF0: FF FF 7F 20 29 10 BD 21  02 01 0B 80 BD 21 02 01  ... )..!.....!..
0E00: 9F 56 80 F0 FF FF 7F F0  FF FF 7F 00 FE FE FE 04  .V..............
0E10: 80 5B 27 80 BD 21 02 01  BD 21 02 01 00 FE FE FE  .['..!...!......
0E20: 1C 0B 80 52 1F 80 F0 FF  FF 7F F0 FF FF 7F 75 74  ...R..........ut
0E30: 33 31 45 1F 80 F0 FF FF  7F F0 FF FF 7F 75 74 33  31E..........ut3
0E40: 32 04 80 1A 64 1D 1C 05  80 81 00 BD 21 02 01 5B  2...d.......!..[
0E50: 27 80 BD 21 02 01 BD 21  02 01 74 70 30 30 2B BC  '..!...!..tp00+.
0E60: 21 02 01 57 80 23 52 1F  80 F0 FF FF 7F F0 FF FF  !..W.#R.........
0E70: 7F 75 74 33 32 45 1F 80  F0 FF FF 7F F0 FF FF 7F  .ut32E..........
0E80: 75 74 33 33 04 80 1C 01  80 9F 56 80 F0 FF FF 7F  ut33......V.....
0E90: F0 FF FF 7F 6D 61 69 6E  04 80 5D 04 80 58 80 1C  ....main..]..X..
0EA0: 21 80 1A 85 1D 1C 01 80  34 23 80 77 24 80 25 80  !.......4#.w$.%.
0EB0: 1C 01 80 92 00 F0 FF FF  7F 92 01 AE 21 02 01 92  ............!...
0EC0: 01 BE 21 02 01 92 01 B5  21 02 01 92 01 AF 21 02  ..!.....!.....!.
0ED0: 01 92 01 BC 21 02 01 92  01 BD 21 02 01 94 01 F0  ....!.....!.....
0EE0: FF FF 7F 94 01 AE 21 02  01 94 01 BE 21 02 01 94  ......!.....!...
0EF0: 01 B5 21 02 01 94 01 AF  21 02 01 94 01 BC 21 02  ..!.....!.....!.
0F00: 01 94 01 BD 21 02 01 29  10 B5 21 02 01 0C 29 10  ....!..)..!...).
0F10: AE 21 02 01 12 29 10 BE  21 02 01 09 29 10 BC 21  .!...)..!...)..!
0F20: 02 01 09 29 10 BD 21 02  01 09 29 10 F0 FF FF 7F  ...)..!...).....
0F30: 1F 80 AE 21 02 01 80 B5  21 02 01 80 BC 21 02 01  ...!....!....!..
0F40: 80 BD 21 02 01 80 F0 FF  FF 7F 1C 01 80 6C F0 FF  ..!..........l..
0F50: FF 7F 2D 80 25 80 6C AF  21 02 01 04 80 25 80 6C  ..-.%.l.!....%.l
0F60: BC 21 02 01 2D 80 25 80  6C AE 21 02 01 2D 80 25  .!..-.%.l.!..-.%
0F70: 80 6C BE 21 02 01 04 80  25 80 6C B5 21 02 01 2D  .l.!....%.l.!..-
0F80: 80 25 80 6C BD 21 02 01  2D 80 25 80 5B 28 80 B5  .%.l.!..-.%.[(..
0F90: 21 02 01 B5 21 02 01 75  74 30 32 5B 51 80 BC 21  !...!..ut02[Q..!
0FA0: 02 01 BC 21 02 01 75 74  75 30 5B 27 80 BD 21 02  ...!..utu0['..!.
0FB0: 01 BD 21 02 01 64 65 64  30 4A F0 FF FF 7F BC 21  ..!..ded0J.....!
0FC0: 02 01 4A AE 21 02 01 BC  21 02 01 4A B5 21 02 01  ..J.!...!..J.!..
0FD0: BC 21 02 01 5C 00 59 80  5C 01 59 80 9A 27 10 B5  .!..\.Y.\.Y..'..
0FE0: 21 02 01 0F 52 1F 80 F0  FF FF 7F F0 FF FF 7F 75  !...R..........u
0FF0: 74 33 33 45 1F 80 F0 FF  FF 7F F0 FF FF 7F 75 74  t33E..........ut
1000: 33 34 04 80 1A 64 1D 1C  01 80 5B 51 80 BC 21 02  34...d....[Q..!.
1010: 01 BC 21 02 01 75 74 75  31 2B BC 21 02 01 5A 80  ..!..utu1+.!..Z.
1020: 23 7B B5 21 02 01 52 1F  80 F0 FF FF 7F F0 FF FF  #{.!..R.........
1030: 7F 75 74 33 34 45 1F 80  F0 FF FF 7F F0 FF FF 7F  .ut34E..........
1040: 75 74 33 35 04 80 5B 28  80 B5 21 02 01 B5 21 02  ut35..[(..!...!.
1050: 01 75 74 30 33 1C 30 80  2B B5 21 02 01 5B 80 23  .ut03.0.+.!..[.#
1060: 52 1F 80 F0 FF FF 7F F0  FF FF 7F 75 74 33 35 45  R..........ut35E
1070: 1F 80 F0 FF FF 7F F0 FF  FF 7F 75 74 33 36 04 80  ..........ut36..
1080: 2B B5 21 02 01 5C 80 23  52 1F 80 F0 FF FF 7F F0  +.!..\.#R.......
1090: FF FF 7F 75 74 33 36 45  1F 80 F0 FF FF 7F F0 FF  ...ut36E........
10A0: FF 7F 75 74 33 37 04 80  2B BC 21 02 01 5D 80 23  ..ut37..+.!..].#
10B0: 5B 28 80 B5 21 02 01 B5  21 02 01 75 74 73 33 2B  [(..!...!..uts3+
10C0: BC 21 02 01 5E 80 23 52  1F 80 F0 FF FF 7F F0 FF  .!..^.#R........
10D0: FF 7F 75 74 33 37 45 1F  80 F0 FF FF 7F F0 FF FF  ..ut37E.........
10E0: 7F 75 74 33 38 04 80 55  1F 80 F0 FF FF 7F F0 FF  .ut38..U........
10F0: FF 7F 75 74 33 38 45 1F  80 F0 FF FF 7F F0 FF FF  ..ut38E.........
1100: 7F 75 74 35 37 04 80 2B  AE 21 02 01 5F 80 23 52  .ut57..+.!.._.#R
1110: 1F 80 F0 FF FF 7F F0 FF  FF 7F 75 74 35 37 45 1F  ..........ut57E.
1120: 80 F0 FF FF 7F F0 FF FF  7F 75 74 34 30 04 80 2B  .........ut40..+
1130: BC 21 02 01 60 80 23 2B  BC 21 02 01 61 80 23 2B  .!..`.#+.!..a.#+
1140: BC 21 02 01 62 80 23 5B  63 80 AE 21 02 01 AE 21  .!..b.#[c..!...!
1150: 02 01 79 61 74 30 52 1F  80 F0 FF FF 7F F0 FF FF  ..yat0R.........
1160: 7F 75 74 34 30 45 1F 80  F0 FF FF 7F F0 FF FF 7F  .ut40E..........
1170: 75 74 34 31 04 80 1C 0B  80 2B AE 21 02 01 64 80  ut41.....+.!..d.
1180: 23 53 AE 21 02 01 AE 21  02 01 79 61 74 30 52 1F  #S.!...!..yat0R.
1190: 80 F0 FF FF 7F F0 FF FF  7F 75 74 34 31 45 1F 80  .........ut41E..
11A0: F0 FF FF 7F F0 FF FF 7F  75 74 34 32 04 80 81 00  ........ut42....
11B0: BC 21 02 01 5B 51 80 BC  21 02 01 BC 21 02 01 75  .!..[Q..!...!..u
11C0: 74 75 30 1C 05 80 2B BC  21 02 01 65 80 23 81 01  tu0...+.!..e.#..
11D0: BC 21 02 01 5B 51 80 BC  21 02 01 BC 21 02 01 75  .!..[Q..!...!..u
11E0: 74 75 31 1C 01 80 5B 63  80 AE 21 02 01 AE 21 02  tu1...[c..!...!.
11F0: 01 79 61 74 31 1A 43 1D  1C 01 80 77 24 80 48 80  .yat1.C....w$.H.
1200: 52 1F 80 F0 FF FF 7F F0  FF FF 7F 75 74 34 32 45  R..........ut42E
1210: 1F 80 F0 FF FF 7F F0 FF  FF 7F 75 74 34 33 04 80  ..........ut43..
1220: 1A 22 1D 2B BC 21 02 01  66 80 23 2B BC 21 02 01  .".+.!..f.#+.!..
1230: 67 80 23 2B BC 21 02 01  68 80 23 1A 43 1D 1C 01  g.#+.!..h.#.C...
1240: 80 77 24 80 25 80 52 1F  80 F0 FF FF 7F F0 FF FF  .w$.%.R.........
1250: 7F 75 74 34 33 45 1F 80  F0 FF FF 7F F0 FF FF 7F  .ut43E..........
1260: 75 74 34 35 04 80 1A 22  1D 2B BC 21 02 01 69 80  ut45...".+.!..i.
1270: 23 2B BC 21 02 01 6A 80  23 2B BC 21 02 01 6B 80  #+.!..j.#+.!..k.
1280: 23 52 1F 80 F0 FF FF 7F  F0 FF FF 7F 75 74 34 35  #R..........ut45
1290: 45 1F 80 F0 FF FF 7F F0  FF FF 7F 75 74 34 36 04  E..........ut46.
12A0: 80 5B 2A 80 BC 21 02 01  BC 21 02 01 64 65 70 30  .[*..!...!..dep0
12B0: 9F 6C 80 BC 21 02 01 BC  21 02 01 6D 61 69 6E 04  .l..!...!..main.
12C0: 80 45 6D 80 F0 FF FF 7F  F0 FF FF 7F 36 31 34 39  .Em.........6149
12D0: 04 80 1C 58 80 5D 04 80  6E 80 1A 85 1D 1C 01 80  ...X.]..n.......
12E0: 52 1F 80 F0 FF FF 7F F0  FF FF 7F 75 74 34 36 34  R..........ut464
12F0: 6F 80 77 24 80 25 80 1C  01 80 2D F8 FF FF 7F F8  o.w$.%....-.....
1300: FF FF 7F 64 74 75 6B 6C  AF 21 02 01 04 80 25 80  ...dtukl.!....%.
1310: 6C BC 21 02 01 04 80 25  80 6C F0 FF FF 7F 04 80  l.!....%.l......
1320: 25 80 6C AE 21 02 01 04  80 25 80 6C BE 21 02 01  %.l.!....%.l.!..
1330: 04 80 25 80 6C B5 21 02  01 04 80 25 80 6C BD 21  ..%.l.!....%.l.!
1340: 02 01 04 80 25 80 92 01  F0 FF FF 7F 92 01 AE 21  ....%..........!
1350: 02 01 92 01 BE 21 02 01  92 01 B5 21 02 01 92 01  .....!.....!....
1360: AF 21 02 01 92 01 BC 21  02 01 92 01 BD 21 02 01  .!.....!.....!..
1370: 1C 0B 80 45 1F 80 F0 FF  FF 7F F0 FF FF 7F 75 74  ...E..........ut
1380: 30 64 04 80 1A 64 1D 2D  F8 FF FF 7F F8 FF FF 7F  0d...d.-........
1390: 73 31 34 37 2D F8 FF FF  7F F8 FF FF 7F 73 6E 30  s147-........sn0
13A0: 31 1C 2F 80 1A 85 1D 1C  01 80 52 1F 80 F0 FF FF  1./.......R.....
13B0: 7F F0 FF FF 7F 75 74 30  64 34 23 80 77 24 80 25  .....ut0d4#.w$.%
13C0: 80 1C 01 80 92 00 F0 FF  FF 7F 92 01 AE 21 02 01  .............!..
13D0: 92 01 BE 21 02 01 92 01  B5 21 02 01 92 01 AF 21  ...!.....!.....!
13E0: 02 01 92 01 BC 21 02 01  92 01 BD 21 02 01 94 01  .....!.....!....
13F0: F0 FF FF 7F 94 01 AE 21  02 01 94 01 BE 21 02 01  .......!.....!..
1400: 94 01 B5 21 02 01 94 01  BC 21 02 01 94 01 BD 21  ...!.....!.....!
1410: 02 01 29 10 B5 21 02 01  0D 29 10 AE 21 02 01 12  ..)..!...)..!...
1420: 29 10 BE 21 02 01 0B 29  10 BC 21 02 01 09 29 10  )..!...)..!...).
1430: BD 21 02 01 09 29 10 F0  FF FF 7F 1F 80 AE 21 02  .!...)........!.
1440: 01 80 BE 21 02 01 80 B5  21 02 01 80 BC 21 02 01  ...!....!....!..
1450: 80 BD 21 02 01 80 F0 FF  FF 7F 1C 01 80 6C F0 FF  ..!..........l..
1460: FF 7F 2D 80 25 80 6C AF  21 02 01 04 80 25 80 6C  ..-.%.l.!....%.l
1470: BC 21 02 01 04 80 25 80  6C AE 21 02 01 2D 80 25  .!....%.l.!..-.%
1480: 80 6C BE 21 02 01 04 80  25 80 6C B5 21 02 01 2D  .l.!....%.l.!..-
1490: 80 25 80 6C BD 21 02 01  2D 80 25 80 5B 27 80 BD  .%.l.!..-.%.['..
14A0: 21 02 01 BD 21 02 01 64  65 64 30 5B 70 80 BE 21  !...!..ded0[p..!
14B0: 02 01 BE 21 02 01 75 74  30 31 4A F0 FF FF 7F BC  ...!..ut01J.....
14C0: 21 02 01 4A AE 21 02 01  BC 21 02 01 27 10 B5 21  !..J.!...!..'..!
14D0: 02 01 0E 45 1F 80 F0 FF  FF 7F F0 FF FF 7F 75 74  ...E..........ut
14E0: 34 37 04 80 1A 64 1D 1C  05 80 4A AE 21 02 01 F0  47...d....J.!...
14F0: FF FF 7F 2B AE 21 02 01  71 80 23 7B AE 21 02 01  ...+.!..q.#{.!..
1500: 27 10 AE 21 02 01 13 1C  01 80 2B AE 21 02 01 72  '..!......+.!..r
1510: 80 23 2A 10 AE 21 02 01  5B 73 80 AE 21 02 01 AE  .#*..!..[s..!...
1520: 21 02 01 66 6E 64 30 52  1F 80 F0 FF FF 7F F0 FF  !..fnd0R........
1530: FF 7F 75 74 34 37 45 1F  80 F0 FF FF 7F F0 FF FF  ..ut47E.........
1540: 7F 75 74 34 38 04 80 1C  01 80 2B AE 21 02 01 74  .ut48.....+.!..t
1550: 80 23 52 1F 80 F0 FF FF  7F F0 FF FF 7F 75 74 34  .#R..........ut4
1560: 38 5B 28 80 B5 21 02 01  B5 21 02 01 75 74 30 34  8[(..!...!..ut04
1570: 45 1F 80 F0 FF FF 7F F0  FF FF 7F 75 74 34 39 04  E..........ut49.
1580: 80 6C AE 21 02 01 04 80  25 80 6C BE 21 02 01 2D  .l.!....%.l.!..-
1590: 80 25 80 55 1F 80 F0 FF  FF 7F F0 FF FF 7F 75 74  .%.U..........ut
15A0: 34 39 45 1F 80 F0 FF FF  7F F0 FF FF 7F 75 74 35  49E..........ut5
15B0: 30 04 80 5B 70 80 AE 21  02 01 AE 21 02 01 75 74  0..[p..!...!..ut
15C0: 30 32 5B 70 80 BE 21 02  01 BE 21 02 01 75 74 30  02[p..!...!..ut0
15D0: 32 27 10 AC 21 02 01 03  2B BE 21 02 01 75 80 1C  2'..!...+.!..u..
15E0: 76 80 52 1F 80 F0 FF FF  7F F0 FF FF 7F 75 74 35  v.R..........ut5
15F0: 30 45 1F 80 F0 FF FF 7F  F0 FF FF 7F 75 74 35 31  0E..........ut51
1600: 04 80 2B B5 21 02 01 77  80 23 52 1F 80 F0 FF FF  ..+.!..w.#R.....
1610: 7F F0 FF FF 7F 75 74 35  31 45 1F 80 F0 FF FF 7F  .....ut51E......
1620: F0 FF FF 7F 75 74 35 32  04 80 5B 28 80 B5 21 02  ....ut52..[(..!.
1630: 01 B5 21 02 01 75 74 30  35 1C 01 80 2B B5 21 02  ..!..ut05...+.!.
1640: 01 78 80 23 5B 70 80 AE  21 02 01 AE 21 02 01 75  .x.#[p..!...!..u
1650: 74 30 33 5B 70 80 BE 21  02 01 BE 21 02 01 75 74  t03[p..!...!..ut
1660: 30 33 52 1F 80 F0 FF FF  7F F0 FF FF 7F 75 74 35  03R..........ut5
1670: 32 45 1F 80 F0 FF FF 7F  F0 FF FF 7F 75 74 35 33  2E..........ut53
1680: 04 80 1C 01 80 2B BE 21  02 01 79 80 23 7C 01 BE  .....+.!..y.#|..
1690: 21 02 01 52 1F 80 F0 FF  FF 7F F0 FF FF 7F 75 74  !..R..........ut
16A0: 35 33 45 1F 80 F0 FF FF  7F F0 FF FF 7F 75 74 35  53E..........ut5
16B0: 38 04 80 5B 70 80 AE 21  02 01 AE 21 02 01 75 74  8..[p..!...!..ut
16C0: 30 35 5B 70 80 BE 21 02  01 BE 21 02 01 75 74 30  05[p..!...!..ut0
16D0: 35 1C 76 80 2B BE 21 02  01 7A 80 23 53 AE 21 02  5.v.+.!..z.#S.!.
16E0: 01 AE 21 02 01 75 74 30  35 53 BE 21 02 01 BE 21  ..!..ut05S.!...!
16F0: 02 01 75 74 30 35 55 1F  80 F0 FF FF 7F F0 FF FF  ..ut05U.........
1700: 7F 75 74 35 38 45 1F 80  F0 FF FF 7F F0 FF FF 7F  .ut58E..........
1710: 75 74 35 36 04 80 6C AE  21 02 01 2D 80 25 80 6C  ut56..l.!..-.%.l
1720: BE 21 02 01 04 80 25 80  1C 0B 80 5B 70 80 AE 21  .!....%....[p..!
1730: 02 01 AE 21 02 01 75 74  73 34 53 AE 21 02 01 AE  ...!..uts4S.!...
1740: 21 02 01 75 74 73 34 1C  01 80 4A AE 21 02 01 F0  !..uts4...J.!...
1750: FF FF 7F 1C 05 80 2B AE  21 02 01 7B 80 27 10 AE  ......+.!..{.'..
1760: 21 02 01 14 1C 01 80 4A  F0 FF FF 7F AE 21 02 01  !......J.....!..
1770: 1A 43 1D 1C 01 80 52 1F  80 F0 FF FF 7F F0 FF FF  .C....R.........
1780: 7F 75 74 35 36 35 6F 80  78 1C 01 80 AB 0A 1C 0B  .ut565o.x.......
1790: 80 5C 00 04 80 5C 01 04  80 5C 02 1C 80 5C 03 1D  .\...\...\...\..
17A0: 80 9A 1A BA 17 46 00 45  1E 80 F0 FF FF 7F F0 FF  .....F.E........
17B0: FF 7F 66 64 69 32 04 80  21 00 2D F0 FF FF 7F F0  ..fdi2..!.-.....
17C0: FF FF 7F 64 74 75 6B 2D  F0 FF FF 7F F0 FF FF 7F  ...dtuk-........
17D0: 64 6F 6F 72 2D F0 FF FF  7F F0 FF FF 7F 32 64 6F  door-........2do
17E0: 72 1B                                             r.              
```

#### Opcodes

```
  0: 0x04B5 [0x42] SET_CLI_EVENT_CANCEL_DATA()
  1: 0x04B6 [0x1A] CALL_SUBROUTINE(address=0x1D43)
  2: 0x04B9 [0x46] CAMERA_CONTROL: Disable user control
  3: 0x04BB [0x38] SET_CLIENT_EVENT_MODE(mode=19*)
  4: 0x04BE [0x1C] WAIT(60* ticks)
  5: 0x04C1 [0x38] SET_CLIENT_EVENT_MODE(mode=19*)
  6: 0x04C4 [0x45] LOAD_SCHEDULED_TASK: Load scheduler "ut60" with entities [LocalPlayer, LocalPlayer], work=[27*, 0*]
  7: 0x04D5 [0x29] REQ_SET_WAIT(priority=0x01, entity_id=LocalPlayer, tag_num=0x08)
  8: 0x04DC [0x45] LOAD_SCHEDULED_TASK: Load scheduler "fdi1" with entities [LocalPlayer, LocalPlayer], work=[200*, 0*]
  9: 0x04ED [0x1C] WAIT(120* ticks)
 10: 0x04F0 [0x2D] CREATE_ZONE_SCHEDULER_TASK: Create scheduler "s149" with entities [EventEntity, EventEntity]
 11: 0x04FD [0x2D] CREATE_ZONE_SCHEDULER_TASK: Create scheduler "hika" with entities [EventEntity, EventEntity]
 12: 0x050A [0x54] WAIT_MAP_SCHEDULER: Wait for scheduler "hika" with entities [EventEntity, EventEntity]
 13: 0x0517 [0x1C] WAIT(60* ticks)
 14: 0x051A [0x27] REQ_SET(priority=0x10, entity_id=Cermet Portal (ID: 16916890/0x0102219A), tag_num=0x04)
 15: 0x0521 [0x1C] WAIT(120* ticks)
 16: 0x0524 [0x27] REQ_SET(priority=0x01, entity_id=LocalPlayer, tag_num=0x09)
 17: 0x052B [0x1C] WAIT(240* ticks)
 18: 0x052E [0x27] REQ_SET(priority=0x10, entity_id=Cermet Portal (ID: 16916890/0x0102219A), tag_num=0x05)
 19: 0x0535 [0x1C] WAIT(100* ticks)
 20: 0x0538 [0x45] LOAD_SCHEDULED_TASK: Load scheduler "fdo1" with entities [LocalPlayer, LocalPlayer], work=[200*, 0*]
 21: 0x0549 [0x1C] WAIT(60* ticks)
 22: 0x054C [0x45] LOAD_SCHEDULED_TASK: Load scheduler "whi1" with entities [LocalPlayer, LocalPlayer], work=[201*, 0*]
 23: 0x055D [0x52] END_LOAD_SCHEDULER: End scheduler "ut60" with entities [LocalPlayer, LocalPlayer], work=27*
 24: 0x056C [0x34] LOAD_UNLOAD_ZONE(zone_id=544*)
 25: 0x056F [0x77] SET_EVENT_TIME_WEATHER(hour=12*, weather=1*)
 26: 0x0574 [0x1C] WAIT(30* ticks)
 27: 0x0577 [0xAB] EventEntity->UnknownFlag = 1 // Enable unknown flag
 28: 0x0579 [0x1C] WAIT(15* ticks)
 29: 0x057C [0x79] LocalPlayer looks at LocalPlayer (Basic look)
 30: 0x0586 [0x27] REQ_SET(priority=0x10, entity_id=Prishe (ID: 16916910/0x010221AE), tag_num=0x02)
 31: 0x058D [0x27] REQ_SET(priority=0x10, entity_id=Prishe (ID: 16916926/0x010221BE), tag_num=0x02)
 32: 0x0594 [0x27] REQ_SET(priority=0x10, entity_id=Nag'molada (ID: 16916917/0x010221B5), tag_num=0x04)
 33: 0x059B [0x27] REQ_SET(priority=0x10, entity_id=Selh'teus (ID: 16916911/0x010221AF), tag_num=0x02)
 34: 0x05A2 [0x27] REQ_SET(priority=0x10, entity_id=Selh'teus (ID: 16916924/0x010221BC), tag_num=0x02)
 35: 0x05A9 [0x27] REQ_SET(priority=0x10, entity_id=Yve'noile (ID: 16916925/0x010221BD), tag_num=0x02)
 36: 0x05B0 [0x92] Prishe (ID: 16916910/0x010221AE)->Render.Flags3 ^= 0x01
 37: 0x05B6 [0x92] Prishe (ID: 16916926/0x010221BE)->Render.Flags3 ^= 0x01
 38: 0x05BC [0x92] Nag'molada (ID: 16916917/0x010221B5)->Render.Flags3 ^= 0x01
 39: 0x05C2 [0x92] Selh'teus (ID: 16916911/0x010221AF)->Render.Flags3 ^= 0x01
 40: 0x05C8 [0x92] Selh'teus (ID: 16916924/0x010221BC)->Render.Flags3 ^= 0x01
 41: 0x05CE [0x92] Yve'noile (ID: 16916925/0x010221BD)->Render.Flags3 ^= 0x01
 42: 0x05D4 [0x94] LocalPlayer->Render.Flags3 ^= 0x01
 43: 0x05DA [0x94] Prishe (ID: 16916910/0x010221AE)->Render.Flags3 ^= 0x01
 44: 0x05E0 [0x94] Prishe (ID: 16916926/0x010221BE)->Render.Flags3 ^= 0x01
 45: 0x05E6 [0x94] Nag'molada (ID: 16916917/0x010221B5)->Render.Flags3 ^= 0x01
 46: 0x05EC [0x94] Selh'teus (ID: 16916911/0x010221AF)->Render.Flags3 ^= 0x01
 47: 0x05F2 [0x94] Selh'teus (ID: 16916924/0x010221BC)->Render.Flags3 ^= 0x01
 48: 0x05F8 [0x94] Yve'noile (ID: 16916925/0x010221BD)->Render.Flags3 ^= 0x01
 49: 0x05FE [0x29] REQ_SET_WAIT(priority=0x10, entity_id=Prishe (ID: 16916910/0x010221AE), tag_num=0x10)
 50: 0x0605 [0x29] REQ_SET_WAIT(priority=0x10, entity_id=Prishe (ID: 16916926/0x010221BE), tag_num=0x09)
 51: 0x060C [0x29] REQ_SET_WAIT(priority=0x10, entity_id=Nag'molada (ID: 16916917/0x010221B5), tag_num=0x09)
 52: 0x0613 [0x29] REQ_SET_WAIT(priority=0x10, entity_id=Selh'teus (ID: 16916911/0x010221AF), tag_num=0x09)
 53: 0x061A [0x29] REQ_SET_WAIT(priority=0x10, entity_id=Selh'teus (ID: 16916924/0x010221BC), tag_num=0x09)
 54: 0x0621 [0x29] REQ_SET_WAIT(priority=0x10, entity_id=Yve'noile (ID: 16916925/0x010221BD), tag_num=0x09)
 55: 0x0628 [0x29] REQ_SET_WAIT(priority=0x10, entity_id=LocalPlayer, tag_num=0x1D)
 56: 0x062F [0x80] LOAD_WAIT(entity=Prishe (ID: 16916910/0x010221AE))
 57: 0x0634 [0x80] LOAD_WAIT(entity=Prishe (ID: 16916926/0x010221BE))
 58: 0x0639 [0x80] LOAD_WAIT(entity=Nag'molada (ID: 16916917/0x010221B5))
 59: 0x063E [0x80] LOAD_WAIT(entity=Selh'teus (ID: 16916911/0x010221AF))
 60: 0x0643 [0x80] LOAD_WAIT(entity=Selh'teus (ID: 16916924/0x010221BC))
 61: 0x0648 [0x80] LOAD_WAIT(entity=Yve'noile (ID: 16916925/0x010221BD))
 62: 0x064D [0x80] LOAD_WAIT(entity=LocalPlayer)
 63: 0x0652 [0x1C] WAIT(30* ticks)
 64: 0x0655 [0x5C] MUSIC_CONTROL: Set Idle (Day) music to song 127*
 65: 0x0659 [0x5C] MUSIC_CONTROL: Set Idle (Night) music to song 127*
 66: 0x065D [0x9A] WAIT_MUSIC_SERVER()
 67: 0x065E [0x5B] LOAD_EXT_SCHEDULER: Load scheduler "ded0" with entities [Yve'noile (ID: 16916925/0x010221BD), Yve'noile (ID: 16916925/0x010221BD)], work=745*
 68: 0x066D [0x5B] LOAD_EXT_SCHEDULER: Load scheduler "utl1" with entities [Nag'molada (ID: 16916917/0x010221B5), Nag'molada (ID: 16916917/0x010221B5)], work=647*
 69: 0x067C [0x5B] LOAD_EXT_SCHEDULER: Load scheduler "dwn0" with entities [Selh'teus (ID: 16916911/0x010221AF), Selh'teus (ID: 16916911/0x010221AF)], work=456*
 70: 0x068B [0x5B] LOAD_EXT_SCHEDULER: Load scheduler "pop0" with entities [Selh'teus (ID: 16916924/0x010221BC), Selh'teus (ID: 16916924/0x010221BC)], work=730*
 71: 0x069A [0x7B] LocalPlayer stops talking
 72: 0x069F [0x27] REQ_SET(priority=0x10, entity_id=Nag'molada (ID: 16916917/0x010221B5), tag_num=0x0F)
 73: 0x06A6 [0x45] LOAD_SCHEDULED_TASK: Load scheduler "ut00" with entities [LocalPlayer, LocalPlayer], work=[27*, 0*]
 74: 0x06B7 [0x1A] CALL_SUBROUTINE(address=0x1D22)
 75: 0x06BA [0x2B] Nag'molada (ID: 16916917/0x010221B5) [7311*]:
    → "Why...?"
 76: 0x06C1 [0x23] WAIT_FOR_DIALOG_INTERACTION
 77: 0x06C2 [0x45] LOAD_SCHEDULED_TASK: Load scheduler "asi0" with entities [LocalPlayer, LocalPlayer], work=[27*, 0*]
 78: 0x06D3 [0x5B] LOAD_EXT_SCHEDULER: Load scheduler "ut01" with entities [Nag'molada (ID: 16916917/0x010221B5), Nag'molada (ID: 16916917/0x010221B5)], work=647*
 79: 0x06E2 [0x1C] WAIT(30* ticks)
 80: 0x06E5 [0x52] END_LOAD_SCHEDULER: End scheduler "ut00" with entities [LocalPlayer, LocalPlayer], work=27*
 81: 0x06F4 [0x45] LOAD_SCHEDULED_TASK: Load scheduler "ut01" with entities [LocalPlayer, LocalPlayer], work=[27*, 0*]
 82: 0x0705 [0x2B] Nag'molada (ID: 16916917/0x010221B5) [7312*]:
    → "Why would she be in the chamber...?"
 83: 0x070C [0x23] WAIT_FOR_DIALOG_INTERACTION
 84: 0x070D [0x55] WAIT_LOAD_SCHEDULER: Wait for scheduler "ut01" with entities [LocalPlayer, LocalPlayer], work=27*
 85: 0x071C [0x45] LOAD_SCHEDULED_TASK: Load scheduler "ut03" with entities [LocalPlayer, LocalPlayer], work=[27*, 0*]
 86: 0x072D [0x1C] WAIT(120* ticks)
 87: 0x0730 [0x29] REQ_SET_WAIT(priority=0x10, entity_id=Yve'noile (ID: 16916925/0x010221BD), tag_num=0x0A)
 88: 0x0737 [0x55] WAIT_LOAD_SCHEDULER: Wait for scheduler "ut03" with entities [LocalPlayer, LocalPlayer], work=27*
 89: 0x0746 [0x1A] CALL_SUBROUTINE(address=0x1D43)
 90: 0x0749 [0x1C] WAIT(120* ticks)
 91: 0x074C [0x53] WAIT_SCHEDULER_TASK: Wait for scheduler "ut01" with entities [Nag'molada (ID: 16916917/0x010221B5), Nag'molada (ID: 16916917/0x010221B5)]
 92: 0x0759 [0x6B] STOP_AND_IDLE: Nag'molada (ID: 16916917/0x010221B5) stops current action and resets to idle (animation="idl0")
 93: 0x0762 [0x29] REQ_SET_WAIT(priority=0x10, entity_id=Nag'molada (ID: 16916917/0x010221B5), tag_num=0x0A)
 94: 0x0769 [0x6C] FADE_ENTITY_COLOR(entity_id=LocalPlayer, end_alpha=128*, fade_time=1*)
 95: 0x0772 [0x6C] FADE_ENTITY_COLOR(entity_id=Prishe (ID: 16916910/0x010221AE), end_alpha=128*, fade_time=1*)
 96: 0x077B [0x1C] WAIT(60* ticks)
 97: 0x077E [0x5B] LOAD_EXT_SCHEDULER: Load scheduler "tha0" with entities [Nag'molada (ID: 16916917/0x010221B5), Nag'molada (ID: 16916917/0x010221B5)], work=465*
 98: 0x078D [0x45] LOAD_SCHEDULED_TASK: Load scheduler "fdi2" with entities [LocalPlayer, LocalPlayer], work=[200*, 0*]
 99: 0x079E [0x5D] SET_MUSIC_VOLUME(volume=0*, fade_time=600*)
100: 0x07A3 [0x27] REQ_SET(priority=0x10, entity_id=LocalPlayer, tag_num=0x1E)
101: 0x07AA [0x27] REQ_SET(priority=0x10, entity_id=Prishe (ID: 16916910/0x010221AE), tag_num=0x11)
102: 0x07B1 [0x45] LOAD_SCHEDULED_TASK: Load scheduler "ut05" with entities [LocalPlayer, LocalPlayer], work=[27*, 0*]
103: 0x07C2 [0x1C] WAIT(45* ticks)
104: 0x07C5 [0x2B] Prishe (ID: 16916910/0x010221AE) [7313*]:
    → "Nag'molada!"
105: 0x07CC [0x23] WAIT_FOR_DIALOG_INTERACTION
106: 0x07CD [0x2A] GET_REQ_LEVEL(level=16, entity_id=LocalPlayer)
107: 0x07D3 [0x52] END_LOAD_SCHEDULER: End scheduler "ut05" with entities [LocalPlayer, LocalPlayer], work=27*
108: 0x07E2 [0x45] LOAD_SCHEDULED_TASK: Load scheduler "ut06" with entities [LocalPlayer, LocalPlayer], work=[27*, 0*]
109: 0x07F3 [0x2B] Nag'molada (ID: 16916917/0x010221B5) [7314*]:
    → "Has even the Dawn Maiden come to know the icy grasp of Emptiness?"
110: 0x07FA [0x23] WAIT_FOR_DIALOG_INTERACTION
111: 0x07FB [0x2B] Nag'molada (ID: 16916917/0x010221B5) [7315*]:
    → "Has the great goddess Altana finally abandoned us to our hopeless destiny?"
112: 0x0802 [0x23] WAIT_FOR_DIALOG_INTERACTION
113: 0x0803 [0x27] REQ_SET(priority=0x10, entity_id=LocalPlayer, tag_num=0x1F)
114: 0x080A [0x27] REQ_SET(priority=0x10, entity_id=Prishe (ID: 16916910/0x010221AE), tag_num=0x12)
115: 0x0811 [0x52] END_LOAD_SCHEDULER: End scheduler "ut06" with entities [LocalPlayer, LocalPlayer], work=27*
116: 0x0820 [0x45] LOAD_SCHEDULED_TASK: Load scheduler "ut07" with entities [LocalPlayer, LocalPlayer], work=[27*, 0*]
117: 0x0831 [0x1C] WAIT(30* ticks)
118: 0x0834 [0x5B] LOAD_EXT_SCHEDULER: Load scheduler "tha1" with entities [Nag'molada (ID: 16916917/0x010221B5), Nag'molada (ID: 16916917/0x010221B5)], work=465*
119: 0x0843 [0x2B] ??? (ID: 16916909/0x010221AD) [7316*]:
    → "No, Nag'molada. Lady Yve'noile has become the instrument of Altana's will."
120: 0x084A [0x23] WAIT_FOR_DIALOG_INTERACTION
121: 0x084B [0x5C] MUSIC_CONTROL: Set Idle (Day) music to song 240*
122: 0x084F [0x5C] MUSIC_CONTROL: Set Idle (Night) music to song 240*
123: 0x0853 [0x9A] WAIT_MUSIC_SERVER()
124: 0x0854 [0x79] Nag'molada (ID: 16916917/0x010221B5) looks at Selh'teus (ID: 16916924/0x010221BC) (Basic look)
125: 0x085E [0x4A] LocalPlayer looks at Selh'teus (ID: 16916924/0x010221BC)
126: 0x0867 [0x4A] Prishe (ID: 16916910/0x010221AE) looks at Selh'teus (ID: 16916924/0x010221BC)
127: 0x0870 [0x27] REQ_SET(priority=0x10, entity_id=Nag'molada (ID: 16916917/0x010221B5), tag_num=0x0B)
128: 0x0877 [0x52] END_LOAD_SCHEDULER: End scheduler "ut07" with entities [LocalPlayer, LocalPlayer], work=27*
129: 0x0886 [0x45] LOAD_SCHEDULED_TASK: Load scheduler "ut08" with entities [LocalPlayer, LocalPlayer], work=[27*, 0*]
130: 0x0897 [0x9F] LOAD_SCHEDULED_TASK_ALT: Load scheduler "main" with entities [Selh'teus (ID: 16916924/0x010221BC), Selh'teus (ID: 16916924/0x010221BC)], work=[124*, 0*]
131: 0x08A8 [0x55] WAIT_LOAD_SCHEDULER: Wait for scheduler "ut08" with entities [LocalPlayer, LocalPlayer], work=27*
132: 0x08B7 [0x45] LOAD_SCHEDULED_TASK: Load scheduler "ut10" with entities [LocalPlayer, LocalPlayer], work=[27*, 0*]
133: 0x08C8 [0x1C] WAIT(60* ticks)
134: 0x08CB [0x2B] Nag'molada (ID: 16916917/0x010221B5) [7317*]:
    → "Selh'teus!?"
135: 0x08D2 [0x23] WAIT_FOR_DIALOG_INTERACTION
136: 0x08D3 [0x2B] Selh'teus (ID: 16916924/0x010221BC) [7318*]:
    → "If the plans of the terrestrial avatars and the Kuluu were to fail, this was the last line of defense."
137: 0x08DA [0x23] WAIT_FOR_DIALOG_INTERACTION
138: 0x08DB [0x52] END_LOAD_SCHEDULER: End scheduler "ut10" with entities [LocalPlayer, LocalPlayer], work=27*
139: 0x08EA [0x45] LOAD_SCHEDULED_TASK: Load scheduler "ut30" with entities [LocalPlayer, LocalPlayer], work=[27*, 0*]
140: 0x08FB [0x2B] Selh'teus (ID: 16916924/0x010221BC) [7319*]:
    → "She has attempted to absorb the Emptiness pervading the Chamber of Eventide and destroy it along with her own existence."
141: 0x0902 [0x23] WAIT_FOR_DIALOG_INTERACTION
142: 0x0903 [0x52] END_LOAD_SCHEDULER: End scheduler "ut30" with entities [LocalPlayer, LocalPlayer], work=27*
143: 0x0912 [0x45] LOAD_SCHEDULED_TASK: Load scheduler "ut12" with entities [LocalPlayer, LocalPlayer], work=[27*, 0*]
144: 0x0923 [0x5B] LOAD_EXT_SCHEDULER: Load scheduler "tlb0" with entities [Nag'molada (ID: 16916917/0x010221B5), Nag'molada (ID: 16916917/0x010221B5)], work=465*
145: 0x0932 [0x2B] Nag'molada (ID: 16916917/0x010221B5) [7320*]:
    → "Why would she do such a thing!?"
146: 0x0939 [0x23] WAIT_FOR_DIALOG_INTERACTION
147: 0x093A [0x52] END_LOAD_SCHEDULER: End scheduler "ut12" with entities [LocalPlayer, LocalPlayer], work=27*
148: 0x0949 [0x45] LOAD_SCHEDULED_TASK: Load scheduler "ut13" with entities [LocalPlayer, LocalPlayer], work=[27*, 0*]
149: 0x095A [0x2B] Selh'teus (ID: 16916924/0x010221BC) [7321*]:
    → "To prevent the coming of the Keeper of the Apocalypse. Promathia has been reborn."
150: 0x0961 [0x23] WAIT_FOR_DIALOG_INTERACTION
151: 0x0962 [0x52] END_LOAD_SCHEDULER: End scheduler "ut13" with entities [LocalPlayer, LocalPlayer], work=27*
152: 0x0971 [0x45] LOAD_SCHEDULED_TASK: Load scheduler "ut14" with entities [LocalPlayer, LocalPlayer], work=[27*, 0*]
153: 0x0982 [0x5B] LOAD_EXT_SCHEDULER: Load scheduler "tlb1" with entities [Nag'molada (ID: 16916917/0x010221B5), Nag'molada (ID: 16916917/0x010221B5)], work=465*
154: 0x0991 [0x5B] LOAD_EXT_SCHEDULER: Load scheduler "std0" with entities [Prishe (ID: 16916910/0x010221AE), Prishe (ID: 16916910/0x010221AE)], work=479*
155: 0x09A0 [0x2B] Prishe (ID: 16916910/0x010221AE) [7322*]:
    → "What the hell!? Promathia was only supposed to come back if Al'Taieu fell to Vana'diel! Bahamut himself said so!"
156: 0x09A7 [0x23] WAIT_FOR_DIALOG_INTERACTION
157: 0x09A8 [0x52] END_LOAD_SCHEDULER: End scheduler "ut14" with entities [LocalPlayer, LocalPlayer], work=27*
158: 0x09B7 [0x45] LOAD_SCHEDULED_TASK: Load scheduler "ut15" with entities [LocalPlayer, LocalPlayer], work=[27*, 0*]
159: 0x09C8 [0x2B] Selh'teus (ID: 16916924/0x010221BC) [7323*]:
    → "Then allow me to correct the statement. The incarnation of the Twilight God has been resurrected."
160: 0x09CF [0x23] WAIT_FOR_DIALOG_INTERACTION
161: 0x09D0 [0x52] END_LOAD_SCHEDULER: End scheduler "ut15" with entities [LocalPlayer, LocalPlayer], work=27*
162: 0x09DF [0x45] LOAD_SCHEDULED_TASK: Load scheduler "ut16" with entities [LocalPlayer, LocalPlayer], work=[27*, 0*]
163: 0x09F0 [0x5B] LOAD_EXT_SCHEDULER: Load scheduler "sttf" with entities [Prishe (ID: 16916910/0x010221AE), Prishe (ID: 16916910/0x010221AE)], work=479*
164: 0x09FF [0x2B] Prishe (ID: 16916910/0x010221AE) [7324*]:
    → "The incarnation?"
165: 0x0A06 [0x23] WAIT_FOR_DIALOG_INTERACTION
166: 0x0A07 [0x52] END_LOAD_SCHEDULER: End scheduler "ut16" with entities [LocalPlayer, LocalPlayer], work=27*
167: 0x0A16 [0x45] LOAD_SCHEDULED_TASK: Load scheduler "ut17" with entities [LocalPlayer, LocalPlayer], work=[27*, 0*]
168: 0x0A27 [0x5B] LOAD_EXT_SCHEDULER: Load scheduler "tlf1" with entities [Prishe (ID: 16916910/0x010221AE), Prishe (ID: 16916910/0x010221AE)], work=479*
169: 0x0A36 [0x2B] Selh'teus (ID: 16916924/0x010221BC) [7325*]:
    → "The Keeper of the Apocalypse is the instrument of Promathia's will."
170: 0x0A3D [0x23] WAIT_FOR_DIALOG_INTERACTION
171: 0x0A3E [0x2B] Selh'teus (ID: 16916924/0x010221BC) [7326*]:
    → "And Promathia's will is the Emptiness. The vessel that was destined to hold that darkness is among us once more."
172: 0x0A45 [0x23] WAIT_FOR_DIALOG_INTERACTION
173: 0x0A46 [0x52] END_LOAD_SCHEDULER: End scheduler "ut17" with entities [LocalPlayer, LocalPlayer], work=27*
174: 0x0A55 [0x45] LOAD_SCHEDULED_TASK: Load scheduler "ut18" with entities [LocalPlayer, LocalPlayer], work=[27*, 0*]
175: 0x0A66 [0x1C] WAIT(60* ticks)
176: 0x0A69 [0x2B] Selh'teus (ID: 16916924/0x010221BC) [7327*]:
    → "The incarnation sought to fill itself with Emptiness."
177: 0x0A70 [0x23] WAIT_FOR_DIALOG_INTERACTION
178: 0x0A71 [0x45] LOAD_SCHEDULED_TASK: Load scheduler "4027" with entities [LocalPlayer, LocalPlayer], work=[27*, 0*]
179: 0x0A82 [0x5B] LOAD_EXT_SCHEDULER: Load scheduler "lkb0" with entities [Selh'teus (ID: 16916924/0x010221BC), Selh'teus (ID: 16916924/0x010221BC)], work=730*
180: 0x0A91 [0x1C] WAIT(30* ticks)
181: 0x0A94 [0x52] END_LOAD_SCHEDULER: End scheduler "ut18" with entities [LocalPlayer, LocalPlayer], work=27*
182: 0x0AA3 [0x45] LOAD_SCHEDULED_TASK: Load scheduler "ut19" with entities [LocalPlayer, LocalPlayer], work=[27*, 0*]
183: 0x0AB4 [0x2B] Selh'teus (ID: 16916924/0x010221BC) [7328*]:
    → "And that Emptiness was found here--a source of darkness drained from many Kuluu during the perfection of the Chamber of Eventide."
184: 0x0ABB [0x23] WAIT_FOR_DIALOG_INTERACTION
185: 0x0ABC [0x52] END_LOAD_SCHEDULER: End scheduler "ut19" with entities [LocalPlayer, LocalPlayer], work=27*
186: 0x0ACB [0x45] LOAD_SCHEDULED_TASK: Load scheduler "ut23" with entities [LocalPlayer, LocalPlayer], work=[27*, 0*]
187: 0x0ADC [0x2B] Selh'teus (ID: 16916924/0x010221BC) [7329*]:
    → "A darkness greater than that of the intended keeper was unwittingly focused in this place."
188: 0x0AE3 [0x23] WAIT_FOR_DIALOG_INTERACTION
189: 0x0AE4 [0x52] END_LOAD_SCHEDULER: End scheduler "ut23" with entities [LocalPlayer, LocalPlayer], work=27*
190: 0x0AF3 [0x45] LOAD_SCHEDULED_TASK: Load scheduler "ut21" with entities [LocalPlayer, LocalPlayer], work=[27*, 0*]
191: 0x0B04 [0x2B] Selh'teus (ID: 16916924/0x010221BC) [7330*]:
    → "This source of Emptiness, if left unchecked, would lead to the resurrection of Promathia. Thus the attempt of Lady Yve'noile to send it into oblivion--along with her own life."
192: 0x0B0B [0x23] WAIT_FOR_DIALOG_INTERACTION
193: 0x0B0C [0x5B] LOAD_EXT_SCHEDULER: Load scheduler "ut02" with entities [Nag'molada (ID: 16916917/0x010221B5), Nag'molada (ID: 16916917/0x010221B5)], work=647*
194: 0x0B1B [0x52] END_LOAD_SCHEDULER: End scheduler "ut21" with entities [LocalPlayer, LocalPlayer], work=27*
195: 0x0B2A [0x45] LOAD_SCHEDULED_TASK: Load scheduler "ut22" with entities [LocalPlayer, LocalPlayer], work=[27*, 0*]
196: 0x0B3B [0x1C] WAIT(30* ticks)
197: 0x0B3E [0x2B] Nag'molada (ID: 16916917/0x010221B5) [7331*]:
    → "And you let her commit this act!?"
198: 0x0B45 [0x23] WAIT_FOR_DIALOG_INTERACTION
199: 0x0B46 [0x2B] Nag'molada (ID: 16916917/0x010221B5) [7332*]:
    → "Lady Yve'noile is not to blame! She built the Chamber of Eventide in the name of love! She tried to rescue us from our fate!"
200: 0x0B4D [0x23] WAIT_FOR_DIALOG_INTERACTION
201: 0x0B4E [0x5D] SET_MUSIC_VOLUME(volume=0*, fade_time=150*)
202: 0x0B53 [0x52] END_LOAD_SCHEDULER: End scheduler "ut22" with entities [LocalPlayer, LocalPlayer], work=27*
203: 0x0B62 [0x45] LOAD_SCHEDULED_TASK: Load scheduler "ut24" with entities [LocalPlayer, LocalPlayer], work=[27*, 0*]
204: 0x0B73 [0x45] LOAD_SCHEDULED_TASK: Load scheduler "4027" with entities [LocalPlayer, LocalPlayer], work=[27*, 0*]
205: 0x0B84 [0x5B] LOAD_EXT_SCHEDULER: Load scheduler "lkb1" with entities [Selh'teus (ID: 16916924/0x010221BC), Selh'teus (ID: 16916924/0x010221BC)], work=730*
206: 0x0B93 [0x53] WAIT_SCHEDULER_TASK: Wait for scheduler "lkb1" with entities [Selh'teus (ID: 16916924/0x010221BC), Selh'teus (ID: 16916924/0x010221BC)]
207: 0x0BA0 [0x2B] Selh'teus (ID: 16916924/0x010221BC) [7333*]:
    → "You speak the truth. We Kuluu are at the beginning of all of this."
208: 0x0BA7 [0x23] WAIT_FOR_DIALOG_INTERACTION
209: 0x0BA8 [0x1A] CALL_SUBROUTINE(address=0x1D85)
210: 0x0BAB [0x1C] WAIT(30* ticks)
211: 0x0BAE [0x77] SET_EVENT_TIME_WEATHER(hour=12*, weather=16*)
212: 0x0BB3 [0x6C] FADE_ENTITY_COLOR(entity_id=Selh'teus (ID: 16916911/0x010221AF), end_alpha=128*, fade_time=1*)
213: 0x0BBC [0x6C] FADE_ENTITY_COLOR(entity_id=Selh'teus (ID: 16916924/0x010221BC), end_alpha=0*, fade_time=1*)
214: 0x0BC5 [0x6C] FADE_ENTITY_COLOR(entity_id=LocalPlayer, end_alpha=0*, fade_time=1*)
215: 0x0BCE [0x6C] FADE_ENTITY_COLOR(entity_id=Prishe (ID: 16916910/0x010221AE), end_alpha=0*, fade_time=1*)
216: 0x0BD7 [0x6C] FADE_ENTITY_COLOR(entity_id=Nag'molada (ID: 16916917/0x010221B5), end_alpha=0*, fade_time=1*)
217: 0x0BE0 [0x6C] FADE_ENTITY_COLOR(entity_id=Yve'noile (ID: 16916925/0x010221BD), end_alpha=0*, fade_time=1*)
218: 0x0BE9 [0x92] LocalPlayer->Render.Flags3 ^= 0x01
219: 0x0BEF [0x1C] WAIT(30* ticks)
220: 0x0BF2 [0x5C] MUSIC_CONTROL: Set Idle (Day) music to song 243*
221: 0x0BF6 [0x5C] MUSIC_CONTROL: Set Idle (Night) music to song 243*
222: 0x0BFA [0x9A] WAIT_MUSIC_SERVER()
223: 0x0BFB [0x52] END_LOAD_SCHEDULER: End scheduler "ut24" with entities [LocalPlayer, LocalPlayer], work=27*
224: 0x0C0A [0x45] LOAD_SCHEDULED_TASK: Load scheduler "ut25" with entities [LocalPlayer, LocalPlayer], work=[27*, 0*]
225: 0x0C1B [0x1A] CALL_SUBROUTINE(address=0x1D64)
226: 0x0C1E [0x1C] WAIT(60* ticks)
227: 0x0C21 [0x2B] Selh'teus (ID: 16916924/0x010221BC) [7334*]:
    → "That is why I absorbed the Emptiness from the chamber..."
228: 0x0C28 [0x23] WAIT_FOR_DIALOG_INTERACTION
229: 0x0C29 [0x52] END_LOAD_SCHEDULER: End scheduler "ut25" with entities [LocalPlayer, LocalPlayer], work=27*
230: 0x0C38 [0x45] LOAD_SCHEDULED_TASK: Load scheduler "ut29" with entities [LocalPlayer, LocalPlayer], work=[27*, 0*]
231: 0x0C49 [0x2B] Selh'teus (ID: 16916924/0x010221BC) [7335*]:
    → "I sealed it within me, and departed this life."
232: 0x0C50 [0x23] WAIT_FOR_DIALOG_INTERACTION
233: 0x0C51 [0x1C] WAIT(60* ticks)
234: 0x0C54 [0x2B] Nag'molada (ID: 16916917/0x010221B5) [7336*]:
    → "You...died? But...you're still...?"
235: 0x0C5B [0x52] END_LOAD_SCHEDULER: End scheduler "ut29" with entities [LocalPlayer, LocalPlayer], work=27*
236: 0x0C6A [0x45] LOAD_SCHEDULED_TASK: Load scheduler "ut26" with entities [LocalPlayer, LocalPlayer], work=[27*, 0*]
237: 0x0C7B [0x1C] WAIT(240* ticks)
238: 0x0C7E [0x1A] CALL_SUBROUTINE(address=0x1D85)
239: 0x0C81 [0x1C] WAIT(30* ticks)
240: 0x0C84 [0x77] SET_EVENT_TIME_WEATHER(hour=12*, weather=1*)
241: 0x0C89 [0x52] END_LOAD_SCHEDULER: End scheduler "ut26" with entities [LocalPlayer, LocalPlayer], work=27*
242: 0x0C98 [0x6C] FADE_ENTITY_COLOR(entity_id=Selh'teus (ID: 16916911/0x010221AF), end_alpha=0*, fade_time=1*)
243: 0x0CA1 [0x6C] FADE_ENTITY_COLOR(entity_id=Selh'teus (ID: 16916924/0x010221BC), end_alpha=128*, fade_time=1*)
244: 0x0CAA [0x6C] FADE_ENTITY_COLOR(entity_id=LocalPlayer, end_alpha=128*, fade_time=1*)
245: 0x0CB3 [0x6C] FADE_ENTITY_COLOR(entity_id=Prishe (ID: 16916910/0x010221AE), end_alpha=128*, fade_time=1*)
246: 0x0CBC [0x6C] FADE_ENTITY_COLOR(entity_id=Nag'molada (ID: 16916917/0x010221B5), end_alpha=128*, fade_time=1*)
247: 0x0CC5 [0x6C] FADE_ENTITY_COLOR(entity_id=Yve'noile (ID: 16916925/0x010221BD), end_alpha=128*, fade_time=1*)
248: 0x0CCE [0x92] LocalPlayer->Render.Flags3 = Flags3  // No change (flag=0)
249: 0x0CD4 [0x1C] WAIT(30* ticks)
250: 0x0CD7 [0x5B] LOAD_EXT_SCHEDULER: Load scheduler "c412" with entities [Prishe (ID: 16916910/0x010221AE), Prishe (ID: 16916910/0x010221AE)], work=617*
251: 0x0CE6 [0x45] LOAD_SCHEDULED_TASK: Load scheduler "0blf" with entities [LocalPlayer, LocalPlayer], work=[27*, 0*]
252: 0x0CF7 [0x45] LOAD_SCHEDULED_TASK: Load scheduler "ut28" with entities [LocalPlayer, LocalPlayer], work=[27*, 0*]
253: 0x0D08 [0x1A] CALL_SUBROUTINE(address=0x1D64)
254: 0x0D0B [0x2B] Prishe (ID: 16916910/0x010221AE) [7337*]:
    → "Phoenix... Phoenix was with you, right? She brought you back to life."
255: 0x0D12 [0x23] WAIT_FOR_DIALOG_INTERACTION
256: 0x0D13 [0x2B] Prishe (ID: 16916910/0x010221AE) [7338*]:
    → "Miss Mildaurion came to the same conclusion. When the Emptiness dies with you, it will be born again in another form."
257: 0x0D1A [0x23] WAIT_FOR_DIALOG_INTERACTION
258: 0x0D1B [0x52] END_LOAD_SCHEDULER: End scheduler "ut28" with entities [LocalPlayer, LocalPlayer], work=27*
259: 0x0D2A [0x45] LOAD_SCHEDULED_TASK: Load scheduler "ut31" with entities [LocalPlayer, LocalPlayer], work=[27*, 0*]
260: 0x0D3B [0x2B] Prishe (ID: 16916910/0x010221AE) [7339*]:
    → "That's why you sealed it within you. Like I did with my magicite."
261: 0x0D42 [0x23] WAIT_FOR_DIALOG_INTERACTION
262: 0x0D43 [0x81] SET_ENTITY_BLINKING(blink_flag=0x00, entity=Selh'teus (ID: 16916924/0x010221BC))
263: 0x0D49 [0x5B] LOAD_EXT_SCHEDULER: Load scheduler "utu0" with entities [Selh'teus (ID: 16916924/0x010221BC), Selh'teus (ID: 16916924/0x010221BC)], work=731*
264: 0x0D58 [0x1C] WAIT(60* ticks)
265: 0x0D5B [0x2B] Selh'teus (ID: 16916924/0x010221BC) [7340*]:
    → "...Yes. However, that act was a dangerous gamble."
266: 0x0D62 [0x23] WAIT_FOR_DIALOG_INTERACTION
267: 0x0D63 [0x2B] Selh'teus (ID: 16916924/0x010221BC) [7341*]:
    → "With the creation of this new world, Bahamut lost his power and I could do nothing but flee the incarnation of the Twilight God."
268: 0x0D6A [0x23] WAIT_FOR_DIALOG_INTERACTION
269: 0x0D6B [0x2B] Selh'teus (ID: 16916924/0x010221BC) [7342*]:
    → "I was trapped here, unable to return to Vana'diel."
270: 0x0D72 [0x23] WAIT_FOR_DIALOG_INTERACTION
271: 0x0D73 [0x1A] CALL_SUBROUTINE(address=0x1D85)
272: 0x0D76 [0x1C] WAIT(30* ticks)
273: 0x0D79 [0x34] LOAD_UNLOAD_ZONE(zone_id=545*)
274: 0x0D7C [0x77] SET_EVENT_TIME_WEATHER(hour=12*, weather=1*)
275: 0x0D81 [0x1C] WAIT(30* ticks)
276: 0x0D84 [0x6C] FADE_ENTITY_COLOR(entity_id=Selh'teus (ID: 16916911/0x010221AF), end_alpha=0*, fade_time=1*)
277: 0x0D8D [0x6C] FADE_ENTITY_COLOR(entity_id=Selh'teus (ID: 16916924/0x010221BC), end_alpha=0*, fade_time=1*)
278: 0x0D96 [0x6C] FADE_ENTITY_COLOR(entity_id=LocalPlayer, end_alpha=0*, fade_time=1*)
279: 0x0D9F [0x6C] FADE_ENTITY_COLOR(entity_id=Prishe (ID: 16916910/0x010221AE), end_alpha=0*, fade_time=1*)
280: 0x0DA8 [0x6C] FADE_ENTITY_COLOR(entity_id=Prishe (ID: 16916926/0x010221BE), end_alpha=0*, fade_time=1*)
281: 0x0DB1 [0x6C] FADE_ENTITY_COLOR(entity_id=Nag'molada (ID: 16916917/0x010221B5), end_alpha=0*, fade_time=1*)
282: 0x0DBA [0x6C] FADE_ENTITY_COLOR(entity_id=Yve'noile (ID: 16916925/0x010221BD), end_alpha=128*, fade_time=1*)
283: 0x0DC3 [0x92] LocalPlayer->Render.Flags3 ^= 0x01
284: 0x0DC9 [0x92] Prishe (ID: 16916910/0x010221AE)->Render.Flags3 ^= 0x01
285: 0x0DCF [0x92] Prishe (ID: 16916926/0x010221BE)->Render.Flags3 ^= 0x01
286: 0x0DD5 [0x92] Nag'molada (ID: 16916917/0x010221B5)->Render.Flags3 ^= 0x01
287: 0x0DDB [0x92] Selh'teus (ID: 16916911/0x010221AF)->Render.Flags3 ^= 0x01
288: 0x0DE1 [0x92] Selh'teus (ID: 16916924/0x010221BC)->Render.Flags3 ^= 0x01
289: 0x0DE7 [0x92] Yve'noile (ID: 16916925/0x010221BD)->Render.Flags3 ^= 0x01
290: 0x0DED [0x29] REQ_SET_WAIT(priority=0x10, entity_id=LocalPlayer, tag_num=0x20)
291: 0x0DF4 [0x29] REQ_SET_WAIT(priority=0x10, entity_id=Yve'noile (ID: 16916925/0x010221BD), tag_num=0x0B)
292: 0x0DFB [0x80] LOAD_WAIT(entity=Yve'noile (ID: 16916925/0x010221BD))
293: 0x0E00 [0x9F] LOAD_SCHEDULED_TASK_ALT: Load scheduler 0xFEFEFE00 with entities [LocalPlayer, LocalPlayer], work=[18*, 0*]
294: 0x0E11 [0x5B] LOAD_EXT_SCHEDULER: Load scheduler 0xFEFEFE00 with entities [Yve'noile (ID: 16916925/0x010221BD), Yve'noile (ID: 16916925/0x010221BD)], work=745*
295: 0x0E20 [0x1C] WAIT(15* ticks)
296: 0x0E23 [0x52] END_LOAD_SCHEDULER: End scheduler "ut31" with entities [LocalPlayer, LocalPlayer], work=27*
297: 0x0E32 [0x45] LOAD_SCHEDULED_TASK: Load scheduler "ut32" with entities [LocalPlayer, LocalPlayer], work=[27*, 0*]
298: 0x0E43 [0x1A] CALL_SUBROUTINE(address=0x1D64)
299: 0x0E46 [0x1C] WAIT(60* ticks)
300: 0x0E49 [0x81] SET_ENTITY_BLINKING(blink_flag=0x00, entity=Yve'noile (ID: 16916925/0x010221BD))
301: 0x0E4F [0x5B] LOAD_EXT_SCHEDULER: Load scheduler "tp00" with entities [Yve'noile (ID: 16916925/0x010221BD), Yve'noile (ID: 16916925/0x010221BD)], work=745*
302: 0x0E5E [0x2B] Selh'teus (ID: 16916924/0x010221BC) [7343*]:
    → "It was then that Lady Yve'noile released the blinding light of her lifeforce to bind the incarnation within the audience chamber..."
303: 0x0E65 [0x23] WAIT_FOR_DIALOG_INTERACTION
304: 0x0E66 [0x52] END_LOAD_SCHEDULER: End scheduler "ut32" with entities [LocalPlayer, LocalPlayer], work=27*
305: 0x0E75 [0x45] LOAD_SCHEDULED_TASK: Load scheduler "ut33" with entities [LocalPlayer, LocalPlayer], work=[27*, 0*]
306: 0x0E86 [0x1C] WAIT(30* ticks)
307: 0x0E89 [0x9F] LOAD_SCHEDULED_TASK_ALT: Load scheduler "main" with entities [LocalPlayer, LocalPlayer], work=[18*, 0*]
308: 0x0E9A [0x5D] SET_MUSIC_VOLUME(volume=0*, fade_time=300*)
309: 0x0E9F [0x1C] WAIT(240* ticks)
310: 0x0EA2 [0x1A] CALL_SUBROUTINE(address=0x1D85)
311: 0x0EA5 [0x1C] WAIT(30* ticks)
312: 0x0EA8 [0x34] LOAD_UNLOAD_ZONE(zone_id=544*)
313: 0x0EAB [0x77] SET_EVENT_TIME_WEATHER(hour=12*, weather=1*)
314: 0x0EB0 [0x1C] WAIT(30* ticks)
315: 0x0EB3 [0x92] LocalPlayer->Render.Flags3 = Flags3  // No change (flag=0)
316: 0x0EB9 [0x92] Prishe (ID: 16916910/0x010221AE)->Render.Flags3 ^= 0x01
317: 0x0EBF [0x92] Prishe (ID: 16916926/0x010221BE)->Render.Flags3 ^= 0x01
318: 0x0EC5 [0x92] Nag'molada (ID: 16916917/0x010221B5)->Render.Flags3 ^= 0x01
319: 0x0ECB [0x92] Selh'teus (ID: 16916911/0x010221AF)->Render.Flags3 ^= 0x01
320: 0x0ED1 [0x92] Selh'teus (ID: 16916924/0x010221BC)->Render.Flags3 ^= 0x01
321: 0x0ED7 [0x92] Yve'noile (ID: 16916925/0x010221BD)->Render.Flags3 ^= 0x01
322: 0x0EDD [0x94] LocalPlayer->Render.Flags3 ^= 0x01
323: 0x0EE3 [0x94] Prishe (ID: 16916910/0x010221AE)->Render.Flags3 ^= 0x01
324: 0x0EE9 [0x94] Prishe (ID: 16916926/0x010221BE)->Render.Flags3 ^= 0x01
325: 0x0EEF [0x94] Nag'molada (ID: 16916917/0x010221B5)->Render.Flags3 ^= 0x01
326: 0x0EF5 [0x94] Selh'teus (ID: 16916911/0x010221AF)->Render.Flags3 ^= 0x01
327: 0x0EFB [0x94] Selh'teus (ID: 16916924/0x010221BC)->Render.Flags3 ^= 0x01
328: 0x0F01 [0x94] Yve'noile (ID: 16916925/0x010221BD)->Render.Flags3 ^= 0x01
329: 0x0F07 [0x29] REQ_SET_WAIT(priority=0x10, entity_id=Nag'molada (ID: 16916917/0x010221B5), tag_num=0x0C)
330: 0x0F0E [0x29] REQ_SET_WAIT(priority=0x10, entity_id=Prishe (ID: 16916910/0x010221AE), tag_num=0x12)
331: 0x0F15 [0x29] REQ_SET_WAIT(priority=0x10, entity_id=Prishe (ID: 16916926/0x010221BE), tag_num=0x09)
332: 0x0F1C [0x29] REQ_SET_WAIT(priority=0x10, entity_id=Selh'teus (ID: 16916924/0x010221BC), tag_num=0x09)
333: 0x0F23 [0x29] REQ_SET_WAIT(priority=0x10, entity_id=Yve'noile (ID: 16916925/0x010221BD), tag_num=0x09)
334: 0x0F2A [0x29] REQ_SET_WAIT(priority=0x10, entity_id=LocalPlayer, tag_num=0x1F)
335: 0x0F31 [0x80] LOAD_WAIT(entity=Prishe (ID: 16916910/0x010221AE))
336: 0x0F36 [0x80] LOAD_WAIT(entity=Nag'molada (ID: 16916917/0x010221B5))
337: 0x0F3B [0x80] LOAD_WAIT(entity=Selh'teus (ID: 16916924/0x010221BC))
338: 0x0F40 [0x80] LOAD_WAIT(entity=Yve'noile (ID: 16916925/0x010221BD))
339: 0x0F45 [0x80] LOAD_WAIT(entity=LocalPlayer)
340: 0x0F4A [0x1C] WAIT(30* ticks)
341: 0x0F4D [0x6C] FADE_ENTITY_COLOR(entity_id=LocalPlayer, end_alpha=128*, fade_time=1*)
342: 0x0F56 [0x6C] FADE_ENTITY_COLOR(entity_id=Selh'teus (ID: 16916911/0x010221AF), end_alpha=0*, fade_time=1*)
343: 0x0F5F [0x6C] FADE_ENTITY_COLOR(entity_id=Selh'teus (ID: 16916924/0x010221BC), end_alpha=128*, fade_time=1*)
344: 0x0F68 [0x6C] FADE_ENTITY_COLOR(entity_id=Prishe (ID: 16916910/0x010221AE), end_alpha=128*, fade_time=1*)
345: 0x0F71 [0x6C] FADE_ENTITY_COLOR(entity_id=Prishe (ID: 16916926/0x010221BE), end_alpha=0*, fade_time=1*)
346: 0x0F7A [0x6C] FADE_ENTITY_COLOR(entity_id=Nag'molada (ID: 16916917/0x010221B5), end_alpha=128*, fade_time=1*)
347: 0x0F83 [0x6C] FADE_ENTITY_COLOR(entity_id=Yve'noile (ID: 16916925/0x010221BD), end_alpha=128*, fade_time=1*)
348: 0x0F8C [0x5B] LOAD_EXT_SCHEDULER: Load scheduler "ut02" with entities [Nag'molada (ID: 16916917/0x010221B5), Nag'molada (ID: 16916917/0x010221B5)], work=647*
349: 0x0F9B [0x5B] LOAD_EXT_SCHEDULER: Load scheduler "utu0" with entities [Selh'teus (ID: 16916924/0x010221BC), Selh'teus (ID: 16916924/0x010221BC)], work=731*
350: 0x0FAA [0x5B] LOAD_EXT_SCHEDULER: Load scheduler "ded0" with entities [Yve'noile (ID: 16916925/0x010221BD), Yve'noile (ID: 16916925/0x010221BD)], work=745*
351: 0x0FB9 [0x4A] LocalPlayer looks at Selh'teus (ID: 16916924/0x010221BC)
352: 0x0FC2 [0x4A] Prishe (ID: 16916910/0x010221AE) looks at Selh'teus (ID: 16916924/0x010221BC)
353: 0x0FCB [0x4A] Nag'molada (ID: 16916917/0x010221B5) looks at Selh'teus (ID: 16916924/0x010221BC)
354: 0x0FD4 [0x5C] MUSIC_CONTROL: Set Idle (Day) music to song 244*
355: 0x0FD8 [0x5C] MUSIC_CONTROL: Set Idle (Night) music to song 244*
356: 0x0FDC [0x9A] WAIT_MUSIC_SERVER()
357: 0x0FDD [0x27] REQ_SET(priority=0x10, entity_id=Nag'molada (ID: 16916917/0x010221B5), tag_num=0x0F)
358: 0x0FE4 [0x52] END_LOAD_SCHEDULER: End scheduler "ut33" with entities [LocalPlayer, LocalPlayer], work=27*
359: 0x0FF3 [0x45] LOAD_SCHEDULED_TASK: Load scheduler "ut34" with entities [LocalPlayer, LocalPlayer], work=[27*, 0*]
360: 0x1004 [0x1A] CALL_SUBROUTINE(address=0x1D64)
361: 0x1007 [0x1C] WAIT(30* ticks)
362: 0x100A [0x5B] LOAD_EXT_SCHEDULER: Load scheduler "utu1" with entities [Selh'teus (ID: 16916924/0x010221BC), Selh'teus (ID: 16916924/0x010221BC)], work=731*
363: 0x1019 [0x2B] Selh'teus (ID: 16916924/0x010221BC) [7344*]:
    → "Exhausted by her efforts, she fell into eternal dream..."
364: 0x1020 [0x23] WAIT_FOR_DIALOG_INTERACTION
365: 0x1021 [0x7B] Nag'molada (ID: 16916917/0x010221B5) stops talking
366: 0x1026 [0x52] END_LOAD_SCHEDULER: End scheduler "ut34" with entities [LocalPlayer, LocalPlayer], work=27*
367: 0x1035 [0x45] LOAD_SCHEDULED_TASK: Load scheduler "ut35" with entities [LocalPlayer, LocalPlayer], work=[27*, 0*]
368: 0x1046 [0x5B] LOAD_EXT_SCHEDULER: Load scheduler "ut03" with entities [Nag'molada (ID: 16916917/0x010221B5), Nag'molada (ID: 16916917/0x010221B5)], work=647*
369: 0x1055 [0x1C] WAIT(45* ticks)
370: 0x1058 [0x2B] Nag'molada (ID: 16916917/0x010221B5) [7345*]:
    → "How could this have happened!? Is not Paradise meant to be the realm of the gods, overflowing with the blessed light of the crystals!?"
371: 0x105F [0x23] WAIT_FOR_DIALOG_INTERACTION
372: 0x1060 [0x52] END_LOAD_SCHEDULER: End scheduler "ut35" with entities [LocalPlayer, LocalPlayer], work=27*
373: 0x106F [0x45] LOAD_SCHEDULED_TASK: Load scheduler "ut36" with entities [LocalPlayer, LocalPlayer], work=[27*, 0*]
374: 0x1080 [0x2B] Nag'molada (ID: 16916917/0x010221B5) [7346*]:
    → "Are we not supposed to gain a higher dimension of existence--to attain perfection!?"
375: 0x1087 [0x23] WAIT_FOR_DIALOG_INTERACTION
376: 0x1088 [0x52] END_LOAD_SCHEDULER: End scheduler "ut36" with entities [LocalPlayer, LocalPlayer], work=27*
377: 0x1097 [0x45] LOAD_SCHEDULED_TASK: Load scheduler "ut37" with entities [LocalPlayer, LocalPlayer], work=[27*, 0*]
378: 0x10A8 [0x2B] Selh'teus (ID: 16916924/0x010221BC) [7347*]:
    → "Although it is sustained by an amplified shard of the mothercrystal, this world is not the perfect Paradise of legend."
379: 0x10AF [0x23] WAIT_FOR_DIALOG_INTERACTION
380: 0x10B0 [0x5B] LOAD_EXT_SCHEDULER: Load scheduler "uts3" with entities [Nag'molada (ID: 16916917/0x010221B5), Nag'molada (ID: 16916917/0x010221B5)], work=647*
381: 0x10BF [0x2B] Selh'teus (ID: 16916924/0x010221BC) [7348*]:
    → "And neither are you ready to be the perfect Warriors of the Crystal. Both you and this world lack the full blessings of the crystal's light."
382: 0x10C6 [0x23] WAIT_FOR_DIALOG_INTERACTION
383: 0x10C7 [0x52] END_LOAD_SCHEDULER: End scheduler "ut37" with entities [LocalPlayer, LocalPlayer], work=27*
384: 0x10D6 [0x45] LOAD_SCHEDULED_TASK: Load scheduler "ut38" with entities [LocalPlayer, LocalPlayer], work=[27*, 0*]
385: 0x10E7 [0x55] WAIT_LOAD_SCHEDULER: Wait for scheduler "ut38" with entities [LocalPlayer, LocalPlayer], work=27*
386: 0x10F6 [0x45] LOAD_SCHEDULED_TASK: Load scheduler "ut57" with entities [LocalPlayer, LocalPlayer], work=[27*, 0*]
387: 0x1107 [0x2B] Prishe (ID: 16916910/0x010221AE) [7349*]:
    → "So, what the hell are we supposed to do?"
388: 0x110E [0x23] WAIT_FOR_DIALOG_INTERACTION
389: 0x110F [0x52] END_LOAD_SCHEDULER: End scheduler "ut57" with entities [LocalPlayer, LocalPlayer], work=27*
390: 0x111E [0x45] LOAD_SCHEDULED_TASK: Load scheduler "ut40" with entities [LocalPlayer, LocalPlayer], work=[27*, 0*]
391: 0x112F [0x2B] Selh'teus (ID: 16916924/0x010221BC) [7350*]:
    → "You must pass through the Gate of the Gods and visit the five towers of the Garden of Ru'Hmet."
392: 0x1136 [0x23] WAIT_FOR_DIALOG_INTERACTION
393: 0x1137 [0x2B] Selh'teus (ID: 16916924/0x010221BC) [7351*]:
    → "Those towers are bathed in the light of the mothercrystals. They were built to cleanse the five forms of darkness from a person's soul."
394: 0x113E [0x23] WAIT_FOR_DIALOG_INTERACTION
395: 0x113F [0x2B] Selh'teus (ID: 16916924/0x010221BC) [7352*]:
    → "If that light illuminates the darkness that lurks in the deepest corners of your being, only then may you stand a chance against the incarnation of Promathia."
396: 0x1146 [0x23] WAIT_FOR_DIALOG_INTERACTION
397: 0x1147 [0x5B] LOAD_EXT_SCHEDULER: Load scheduler "yat0" with entities [Prishe (ID: 16916910/0x010221AE), Prishe (ID: 16916910/0x010221AE)], work=693*
398: 0x1156 [0x52] END_LOAD_SCHEDULER: End scheduler "ut40" with entities [LocalPlayer, LocalPlayer], work=27*
399: 0x1165 [0x45] LOAD_SCHEDULED_TASK: Load scheduler "ut41" with entities [LocalPlayer, LocalPlayer], work=[27*, 0*]
400: 0x1176 [0x1C] WAIT(15* ticks)
401: 0x1179 [0x2B] Prishe (ID: 16916910/0x010221AE) [7353*]:
    → "Selh'teus! Have you finally worked up some enthusiasm for this battle!?"
402: 0x1180 [0x23] WAIT_FOR_DIALOG_INTERACTION
403: 0x1181 [0x53] WAIT_SCHEDULER_TASK: Wait for scheduler "yat0" with entities [Prishe (ID: 16916910/0x010221AE), Prishe (ID: 16916910/0x010221AE)]
404: 0x118E [0x52] END_LOAD_SCHEDULER: End scheduler "ut41" with entities [LocalPlayer, LocalPlayer], work=27*
405: 0x119D [0x45] LOAD_SCHEDULED_TASK: Load scheduler "ut42" with entities [LocalPlayer, LocalPlayer], work=[27*, 0*]
406: 0x11AE [0x81] SET_ENTITY_BLINKING(blink_flag=0x00, entity=Selh'teus (ID: 16916924/0x010221BC))
407: 0x11B4 [0x5B] LOAD_EXT_SCHEDULER: Load scheduler "utu0" with entities [Selh'teus (ID: 16916924/0x010221BC), Selh'teus (ID: 16916924/0x010221BC)], work=731*
408: 0x11C3 [0x1C] WAIT(60* ticks)
409: 0x11C6 [0x2B] Selh'teus (ID: 16916924/0x010221BC) [7354*]:
    → "I do not know. I no longer experience any emotion..."
410: 0x11CD [0x23] WAIT_FOR_DIALOG_INTERACTION
411: 0x11CE [0x81] SET_ENTITY_BLINKING(blink_flag=0x01, entity=Selh'teus (ID: 16916924/0x010221BC))
412: 0x11D4 [0x5B] LOAD_EXT_SCHEDULER: Load scheduler "utu1" with entities [Selh'teus (ID: 16916924/0x010221BC), Selh'teus (ID: 16916924/0x010221BC)], work=731*
413: 0x11E3 [0x1C] WAIT(30* ticks)
414: 0x11E6 [0x5B] LOAD_EXT_SCHEDULER: Load scheduler "yat1" with entities [Prishe (ID: 16916910/0x010221AE), Prishe (ID: 16916910/0x010221AE)], work=693*
415: 0x11F5 [0x1A] CALL_SUBROUTINE(address=0x1D43)
416: 0x11F8 [0x1C] WAIT(30* ticks)
417: 0x11FB [0x77] SET_EVENT_TIME_WEATHER(hour=12*, weather=16*)
418: 0x1200 [0x52] END_LOAD_SCHEDULER: End scheduler "ut42" with entities [LocalPlayer, LocalPlayer], work=27*
419: 0x120F [0x45] LOAD_SCHEDULED_TASK: Load scheduler "ut43" with entities [LocalPlayer, LocalPlayer], work=[27*, 0*]
420: 0x1220 [0x1A] CALL_SUBROUTINE(address=0x1D22)
421: 0x1223 [0x2B] Selh'teus (ID: 16916924/0x010221BC) [7355*]:
    → "I realize this may be an unwelcome fact, but you must be prepared. The five forms of darkness are but wispy shadows in comparison to the abyssal void of the Emptiness."
422: 0x122A [0x23] WAIT_FOR_DIALOG_INTERACTION
423: 0x122B [0x2B] Selh'teus (ID: 16916924/0x010221BC) [7356*]:
    → "It is a complete and implacable foe."
424: 0x1232 [0x23] WAIT_FOR_DIALOG_INTERACTION
425: 0x1233 [0x2B] Selh'teus (ID: 16916924/0x010221BC) [7357*]:
    → "Your victory in this battle is not assured."
426: 0x123A [0x23] WAIT_FOR_DIALOG_INTERACTION
427: 0x123B [0x1A] CALL_SUBROUTINE(address=0x1D43)
428: 0x123E [0x1C] WAIT(30* ticks)
429: 0x1241 [0x77] SET_EVENT_TIME_WEATHER(hour=12*, weather=1*)
430: 0x1246 [0x52] END_LOAD_SCHEDULER: End scheduler "ut43" with entities [LocalPlayer, LocalPlayer], work=27*
431: 0x1255 [0x45] LOAD_SCHEDULED_TASK: Load scheduler "ut45" with entities [LocalPlayer, LocalPlayer], work=[27*, 0*]
432: 0x1266 [0x1A] CALL_SUBROUTINE(address=0x1D22)
433: 0x1269 [0x2B] Selh'teus (ID: 16916924/0x010221BC) [7358*]:
    → "What I can do, though, is show you the truth. Everything will be revealed on the highest level of the palace."
434: 0x1270 [0x23] WAIT_FOR_DIALOG_INTERACTION
435: 0x1271 [0x2B] Selh'teus (ID: 16916924/0x010221BC) [7359*]:
    → "If you are still ready to fight when the time comes, I will join you in the struggle to save the world."
436: 0x1278 [0x23] WAIT_FOR_DIALOG_INTERACTION
437: 0x1279 [0x2B] Selh'teus (ID: 16916924/0x010221BC) [7360*]:
    → "Come, the path beyond the Gate of the Gods awaits."
438: 0x1280 [0x23] WAIT_FOR_DIALOG_INTERACTION
439: 0x1281 [0x52] END_LOAD_SCHEDULER: End scheduler "ut45" with entities [LocalPlayer, LocalPlayer], work=27*
440: 0x1290 [0x45] LOAD_SCHEDULED_TASK: Load scheduler "ut46" with entities [LocalPlayer, LocalPlayer], work=[27*, 0*]
441: 0x12A1 [0x5B] LOAD_EXT_SCHEDULER: Load scheduler "dep0" with entities [Selh'teus (ID: 16916924/0x010221BC), Selh'teus (ID: 16916924/0x010221BC)], work=730*
442: 0x12B0 [0x9F] LOAD_SCHEDULED_TASK_ALT: Load scheduler "main" with entities [Selh'teus (ID: 16916924/0x010221BC), Selh'teus (ID: 16916924/0x010221BC)], work=[123*, 0*]
443: 0x12C1 [0x45] LOAD_SCHEDULED_TASK: Load scheduler "6149" with entities [LocalPlayer, LocalPlayer], work=[28*, 0*]
444: 0x12D2 [0x1C] WAIT(300* ticks)
445: 0x12D5 [0x5D] SET_MUSIC_VOLUME(volume=0*, fade_time=900*)
446: 0x12DA [0x1A] CALL_SUBROUTINE(address=0x1D85)
447: 0x12DD [0x1C] WAIT(30* ticks)
448: 0x12E0 [0x52] END_LOAD_SCHEDULER: End scheduler "ut46" with entities [LocalPlayer, LocalPlayer], work=27*
449: 0x12EF [0x34] LOAD_UNLOAD_ZONE(zone_id=34*)
450: 0x12F2 [0x77] SET_EVENT_TIME_WEATHER(hour=12*, weather=1*)
451: 0x12F7 [0x1C] WAIT(30* ticks)
452: 0x12FA [0x2D] CREATE_ZONE_SCHEDULER_TASK: Create scheduler "dtuk" with entities [EventEntity, EventEntity]
453: 0x1307 [0x6C] FADE_ENTITY_COLOR(entity_id=Selh'teus (ID: 16916911/0x010221AF), end_alpha=0*, fade_time=1*)
454: 0x1310 [0x6C] FADE_ENTITY_COLOR(entity_id=Selh'teus (ID: 16916924/0x010221BC), end_alpha=0*, fade_time=1*)
455: 0x1319 [0x6C] FADE_ENTITY_COLOR(entity_id=LocalPlayer, end_alpha=0*, fade_time=1*)
456: 0x1322 [0x6C] FADE_ENTITY_COLOR(entity_id=Prishe (ID: 16916910/0x010221AE), end_alpha=0*, fade_time=1*)
457: 0x132B [0x6C] FADE_ENTITY_COLOR(entity_id=Prishe (ID: 16916926/0x010221BE), end_alpha=0*, fade_time=1*)
458: 0x1334 [0x6C] FADE_ENTITY_COLOR(entity_id=Nag'molada (ID: 16916917/0x010221B5), end_alpha=0*, fade_time=1*)
459: 0x133D [0x6C] FADE_ENTITY_COLOR(entity_id=Yve'noile (ID: 16916925/0x010221BD), end_alpha=0*, fade_time=1*)
460: 0x1346 [0x92] LocalPlayer->Render.Flags3 ^= 0x01
461: 0x134C [0x92] Prishe (ID: 16916910/0x010221AE)->Render.Flags3 ^= 0x01
462: 0x1352 [0x92] Prishe (ID: 16916926/0x010221BE)->Render.Flags3 ^= 0x01
463: 0x1358 [0x92] Nag'molada (ID: 16916917/0x010221B5)->Render.Flags3 ^= 0x01
464: 0x135E [0x92] Selh'teus (ID: 16916911/0x010221AF)->Render.Flags3 ^= 0x01
465: 0x1364 [0x92] Selh'teus (ID: 16916924/0x010221BC)->Render.Flags3 ^= 0x01
466: 0x136A [0x92] Yve'noile (ID: 16916925/0x010221BD)->Render.Flags3 ^= 0x01
467: 0x1370 [0x1C] WAIT(15* ticks)
468: 0x1373 [0x45] LOAD_SCHEDULED_TASK: Load scheduler "ut0d" with entities [LocalPlayer, LocalPlayer], work=[27*, 0*]
469: 0x1384 [0x1A] CALL_SUBROUTINE(address=0x1D64)
470: 0x1387 [0x2D] CREATE_ZONE_SCHEDULER_TASK: Create scheduler "s147" with entities [EventEntity, EventEntity]
471: 0x1394 [0x2D] CREATE_ZONE_SCHEDULER_TASK: Create scheduler "sn01" with entities [EventEntity, EventEntity]
472: 0x13A1 [0x1C] WAIT(600* ticks)
473: 0x13A4 [0x1A] CALL_SUBROUTINE(address=0x1D85)
474: 0x13A7 [0x1C] WAIT(30* ticks)
475: 0x13AA [0x52] END_LOAD_SCHEDULER: End scheduler "ut0d" with entities [LocalPlayer, LocalPlayer], work=27*
476: 0x13B9 [0x34] LOAD_UNLOAD_ZONE(zone_id=544*)
477: 0x13BC [0x77] SET_EVENT_TIME_WEATHER(hour=12*, weather=1*)
478: 0x13C1 [0x1C] WAIT(30* ticks)
479: 0x13C4 [0x92] LocalPlayer->Render.Flags3 = Flags3  // No change (flag=0)
480: 0x13CA [0x92] Prishe (ID: 16916910/0x010221AE)->Render.Flags3 ^= 0x01
481: 0x13D0 [0x92] Prishe (ID: 16916926/0x010221BE)->Render.Flags3 ^= 0x01
482: 0x13D6 [0x92] Nag'molada (ID: 16916917/0x010221B5)->Render.Flags3 ^= 0x01
483: 0x13DC [0x92] Selh'teus (ID: 16916911/0x010221AF)->Render.Flags3 ^= 0x01
484: 0x13E2 [0x92] Selh'teus (ID: 16916924/0x010221BC)->Render.Flags3 ^= 0x01
485: 0x13E8 [0x92] Yve'noile (ID: 16916925/0x010221BD)->Render.Flags3 ^= 0x01
486: 0x13EE [0x94] LocalPlayer->Render.Flags3 ^= 0x01
487: 0x13F4 [0x94] Prishe (ID: 16916910/0x010221AE)->Render.Flags3 ^= 0x01
488: 0x13FA [0x94] Prishe (ID: 16916926/0x010221BE)->Render.Flags3 ^= 0x01
489: 0x1400 [0x94] Nag'molada (ID: 16916917/0x010221B5)->Render.Flags3 ^= 0x01
490: 0x1406 [0x94] Selh'teus (ID: 16916924/0x010221BC)->Render.Flags3 ^= 0x01
491: 0x140C [0x94] Yve'noile (ID: 16916925/0x010221BD)->Render.Flags3 ^= 0x01
492: 0x1412 [0x29] REQ_SET_WAIT(priority=0x10, entity_id=Nag'molada (ID: 16916917/0x010221B5), tag_num=0x0D)
493: 0x1419 [0x29] REQ_SET_WAIT(priority=0x10, entity_id=Prishe (ID: 16916910/0x010221AE), tag_num=0x12)
494: 0x1420 [0x29] REQ_SET_WAIT(priority=0x10, entity_id=Prishe (ID: 16916926/0x010221BE), tag_num=0x0B)
495: 0x1427 [0x29] REQ_SET_WAIT(priority=0x10, entity_id=Selh'teus (ID: 16916924/0x010221BC), tag_num=0x09)
496: 0x142E [0x29] REQ_SET_WAIT(priority=0x10, entity_id=Yve'noile (ID: 16916925/0x010221BD), tag_num=0x09)
497: 0x1435 [0x29] REQ_SET_WAIT(priority=0x10, entity_id=LocalPlayer, tag_num=0x1F)
498: 0x143C [0x80] LOAD_WAIT(entity=Prishe (ID: 16916910/0x010221AE))
499: 0x1441 [0x80] LOAD_WAIT(entity=Prishe (ID: 16916926/0x010221BE))
500: 0x1446 [0x80] LOAD_WAIT(entity=Nag'molada (ID: 16916917/0x010221B5))
501: 0x144B [0x80] LOAD_WAIT(entity=Selh'teus (ID: 16916924/0x010221BC))
502: 0x1450 [0x80] LOAD_WAIT(entity=Yve'noile (ID: 16916925/0x010221BD))
503: 0x1455 [0x80] LOAD_WAIT(entity=LocalPlayer)
504: 0x145A [0x1C] WAIT(30* ticks)
505: 0x145D [0x6C] FADE_ENTITY_COLOR(entity_id=LocalPlayer, end_alpha=128*, fade_time=1*)
506: 0x1466 [0x6C] FADE_ENTITY_COLOR(entity_id=Selh'teus (ID: 16916911/0x010221AF), end_alpha=0*, fade_time=1*)
507: 0x146F [0x6C] FADE_ENTITY_COLOR(entity_id=Selh'teus (ID: 16916924/0x010221BC), end_alpha=0*, fade_time=1*)
508: 0x1478 [0x6C] FADE_ENTITY_COLOR(entity_id=Prishe (ID: 16916910/0x010221AE), end_alpha=128*, fade_time=1*)
509: 0x1481 [0x6C] FADE_ENTITY_COLOR(entity_id=Prishe (ID: 16916926/0x010221BE), end_alpha=0*, fade_time=1*)
510: 0x148A [0x6C] FADE_ENTITY_COLOR(entity_id=Nag'molada (ID: 16916917/0x010221B5), end_alpha=128*, fade_time=1*)
511: 0x1493 [0x6C] FADE_ENTITY_COLOR(entity_id=Yve'noile (ID: 16916925/0x010221BD), end_alpha=128*, fade_time=1*)
512: 0x149C [0x5B] LOAD_EXT_SCHEDULER: Load scheduler "ded0" with entities [Yve'noile (ID: 16916925/0x010221BD), Yve'noile (ID: 16916925/0x010221BD)], work=745*
513: 0x14AB [0x5B] LOAD_EXT_SCHEDULER: Load scheduler "ut01" with entities [Prishe (ID: 16916926/0x010221BE), Prishe (ID: 16916926/0x010221BE)], work=690*
514: 0x14BA [0x4A] LocalPlayer looks at Selh'teus (ID: 16916924/0x010221BC)
515: 0x14C3 [0x4A] Prishe (ID: 16916910/0x010221AE) looks at Selh'teus (ID: 16916924/0x010221BC)
516: 0x14CC [0x27] REQ_SET(priority=0x10, entity_id=Nag'molada (ID: 16916917/0x010221B5), tag_num=0x0E)
517: 0x14D3 [0x45] LOAD_SCHEDULED_TASK: Load scheduler "ut47" with entities [LocalPlayer, LocalPlayer], work=[27*, 0*]
518: 0x14E4 [0x1A] CALL_SUBROUTINE(address=0x1D64)
519: 0x14E7 [0x1C] WAIT(60* ticks)
520: 0x14EA [0x4A] Prishe (ID: 16916910/0x010221AE) looks at LocalPlayer
521: 0x14F3 [0x2B] Prishe (ID: 16916910/0x010221AE) [7361*]:
    → "Let's go, <Player>."
522: 0x14FA [0x23] WAIT_FOR_DIALOG_INTERACTION
523: 0x14FB [0x7B] Prishe (ID: 16916910/0x010221AE) stops talking
524: 0x1500 [0x27] REQ_SET(priority=0x10, entity_id=Prishe (ID: 16916910/0x010221AE), tag_num=0x13)
525: 0x1507 [0x1C] WAIT(30* ticks)
526: 0x150A [0x2B] Prishe (ID: 16916910/0x010221AE) [7362*]:
    → "But first...!"
527: 0x1511 [0x23] WAIT_FOR_DIALOG_INTERACTION
528: 0x1512 [0x2A] GET_REQ_LEVEL(level=16, entity_id=Prishe (ID: 16916910/0x010221AE))
529: 0x1518 [0x5B] LOAD_EXT_SCHEDULER: Load scheduler "fnd0" with entities [Prishe (ID: 16916910/0x010221AE), Prishe (ID: 16916910/0x010221AE)], work=620*
530: 0x1527 [0x52] END_LOAD_SCHEDULER: End scheduler "ut47" with entities [LocalPlayer, LocalPlayer], work=27*
531: 0x1536 [0x45] LOAD_SCHEDULED_TASK: Load scheduler "ut48" with entities [LocalPlayer, LocalPlayer], work=[27*, 0*]
532: 0x1547 [0x1C] WAIT(30* ticks)
533: 0x154A [0x2B] Prishe (ID: 16916910/0x010221AE) [7363*]:
    → "Hey! Nag'molada!"
534: 0x1551 [0x23] WAIT_FOR_DIALOG_INTERACTION
535: 0x1552 [0x52] END_LOAD_SCHEDULER: End scheduler "ut48" with entities [LocalPlayer, LocalPlayer], work=27*
536: 0x1561 [0x5B] LOAD_EXT_SCHEDULER: Load scheduler "ut04" with entities [Nag'molada (ID: 16916917/0x010221B5), Nag'molada (ID: 16916917/0x010221B5)], work=647*
537: 0x1570 [0x45] LOAD_SCHEDULED_TASK: Load scheduler "ut49" with entities [LocalPlayer, LocalPlayer], work=[27*, 0*]
