# 0x7FFFFFF0 - Zone Events

## Common Data

| Field            | Value                            |
|------------------|----------------------------------|
| Zone             | Grand Palace of Hu'Xzoi (ID: 34) |
| Block Size       | 2912 bytes                       |
| Total Events     | 35                               |
| References Count | 112                              |

## List of Events

| Event ID                   | Entrypoint   |   Size |   Instructions |
|----------------------------|--------------|--------|----------------|
| [65535](#event-65535)      | 0x0000       |      1 |              1 |
| [65534](#event-65534)      | 0x0001       |      1 |              1 |
| [1](#event-1)              | 0x0002       |   1232 |            142 |
| [50](#event-50)            | 0x04D2       |     16 |              3 |
| [51](#event-51)            | 0x04E2       |     14 |              4 |
| [53](#event-53)            | 0x04F0       |     10 |              2 |
| [54](#event-54)            | 0x04FA       |     14 |              4 |
| [55](#event-55)            | 0x0508       |     13 |              3 |
| [57](#event-57)            | 0x0515       |     10 |              2 |
| [58](#event-58)            | 0x051F       |     14 |              4 |
| [60](#event-60)            | 0x052D       |     10 |              2 |
| [61](#event-61)            | 0x0537       |     14 |              4 |
| [62](#event-62)            | 0x0545       |     13 |              3 |
| [65535.1](#event-655351)   | 0x0552       |      1 |              1 |
| [150](#event-150)          | 0x0553       |     76 |             20 |
| [151](#event-151)          | 0x059F       |     76 |             20 |
| [152](#event-152)          | 0x05EB       |     76 |             20 |
| [153](#event-153)          | 0x0637       |     76 |             20 |
| [154](#event-154)          | 0x0683       |     76 |             20 |
| [155](#event-155)          | 0x06CF       |     76 |             20 |
| [156](#event-156)          | 0x071B       |     76 |             20 |
| [157](#event-157)          | 0x0767       |     76 |             20 |
| [158](#event-158)          | 0x07B3       |     76 |             20 |
| [159](#event-159)          | 0x07FF       |     76 |             20 |
| [160](#event-160)          | 0x084B       |     41 |              5 |
| [161](#event-161)          | 0x0874       |     38 |              4 |
| [65535.2](#event-655352)   | 0x089A       |     10 |              2 |
| [65535.3](#event-655353)   | 0x08A4       |     15 |              5 |
| [65535.4](#event-655354)   | 0x08B3       |     10 |              2 |
| [65535.5](#event-655355)   | 0x08BD       |     10 |              2 |
| [65535.6](#event-655356)   | 0x08C7       |     15 |              5 |
| [65535.7](#event-655357)   | 0x08D6       |     10 |              2 |
| [65535.8](#event-655358)   | 0x08E0       |     10 |              2 |
| [65535.9](#event-655359)   | 0x08EA       |     10 |              2 |
| [65535.10](#event-6553510) | 0x08F4       |     15 |              5 |

## DAT References (imed_data)

|   Index | Hex Value   |   Dec Value |
|---------|-------------|-------------|
|       0 | 0x0013      |          19 |
|       1 | 0xFFFFAA32  |  4294945330 |
|       2 | 0xFFFBA99C  |  4294683036 |
|       3 | 0x0000      |           0 |
|       4 | 0x0D5E      |        3422 |
|       5 | 0x00A3      |         163 |
|       6 | 0x00C8      |         200 |
|       7 | 0x01B9      |         441 |
|       8 | 0x1C61      |        7265 |
|       9 | 0x1C62      |        7266 |
|      10 | 0x01AF      |         431 |
|      11 | 0x1C63      |        7267 |
|      12 | 0x0291      |         657 |
|      13 | 0x1C64      |        7268 |
|      14 | 0x1C65      |        7269 |
|      15 | 0x003C      |          60 |
|      16 | 0x003B      |          59 |
|      17 | 0x1C66      |        7270 |
|      18 | 0x1C67      |        7271 |
|      19 | 0x1C68      |        7272 |
|      20 | 0x0001      |           1 |
|      21 | 0x1C69      |        7273 |
|      22 | 0x01EC      |         492 |
|      23 | 0x005A      |          90 |
|      24 | 0x1C6A      |        7274 |
|      25 | 0x001D      |          29 |
|      26 | 0x1C6B      |        7275 |
|      27 | 0x01A4      |         420 |
|      28 | 0x1C6C      |        7276 |
|      29 | 0x1C6D      |        7277 |
|      30 | 0x1C6E      |        7278 |
|      31 | 0x1C6F      |        7279 |
|      32 | 0x1C70      |        7280 |
|      33 | 0xFFFFB1EC  |  4294947308 |
|      34 | 0xFFFBA8AC  |  4294682796 |
|      35 | 0x0BFF      |        3071 |
|      36 | 0x000D      |          13 |
|      37 | 0xFFFFB120  |  4294947104 |
|      38 | 0xFFFBD1C1  |  4294693313 |
|      39 | 0x0A66      |        2662 |
|      40 | 0xFFFB1DF5  |  4294647285 |
|      41 | 0x01F3      |         499 |
|      42 | 0x0FFF      |        4095 |
|      43 | 0x2648      |        9800 |
|      44 | 0xFFFB1DDF  |  4294647263 |
|      45 | 0xFFFA6012  |  4294598674 |
|      46 | 0x3F793     |      259987 |
|      47 | 0x0FFD      |        4093 |
|      48 | 0x66891     |      419985 |
|      49 | 0x6242C     |      402476 |
|      50 | 0x03E8      |        1000 |
|      51 | 0x66893     |      419987 |
|      52 | 0x60CD5     |      396501 |
|      53 | 0xFFF8A4B1  |  4294485169 |
|      54 | 0x3F795     |      259989 |
|      55 | 0x0FF0      |        4080 |
|      56 | 0xFFF8BA86  |  4294490758 |
|      57 | 0x3F763     |      259939 |
|      58 | 0xFFFF5929  |  4294924585 |
|      59 | 0xFFFB1E32  |  4294647346 |
|      60 | 0x1C58      |        7256 |
|      61 | 0x1C57      |        7255 |
|      62 | 0x52080     |      336000 |
|      63 | 0xAAE60     |      700000 |
|      64 | 0xFFFFF6B9  |  4294964921 |
|      65 | 0x1000      |        4096 |
|      66 | 0xB4AA0     |      740000 |
|      67 | 0x84D00     |      544000 |
|      68 | 0x0400      |        1024 |
|      69 | 0xA21C0     |      664000 |
|      70 | 0x1869F     |       99999 |
|      71 | 0x0800      |        2048 |
|      72 | 0x53FC0     |      344000 |
|      73 | 0x18696     |       99990 |
|      74 | 0x186A0     |      100000 |
|      75 | 0x5BCBF     |      375999 |
|      76 | 0x0C00      |        3072 |
|      77 | 0x1C59      |        7257 |
|      78 | 0xFFF84F40  |  4294463296 |
|      79 | 0xFFFE7961  |  4294867297 |
|      80 | 0xFFFD5080  |  4294791296 |
|      81 | 0xFFF86E80  |  4294471296 |
|      82 | 0xFFF4B560  |  4294227296 |
|      83 | 0x5BCC0     |      376000 |
|      84 | 0x004B      |          75 |
|      85 | 0x008C      |         140 |
|      86 | 0x004C      |          76 |
|      87 | 0x00AA      |         170 |
|      88 | 0xFFFFE9D1  |  4294961617 |
|      89 | 0xFFFB1DF1  |  4294647281 |
|      90 | 0xFFFFF174  |  4294963572 |
|      91 | 0xFFFB1DC3  |  4294647235 |
|      92 | 0xFFFFEC9C  |  4294962332 |
|      93 | 0xFFFB1B4C  |  4294646604 |
|      94 | 0x0F7D      |        3965 |
|      95 | 0x01FA      |         506 |
|      96 | 0xFFFF9718  |  4294940440 |
|      97 | 0x09C3      |        2499 |
|      98 | 0x0C4C      |        3148 |
|      99 | 0x0028      |          40 |
|     100 | 0x05DB      |        1499 |
|     101 | 0xFFFFBBFD  |  4294949885 |
|     102 | 0x135B      |        4955 |
|     103 | 0xFFFFEFCC  |  4294963148 |
|     104 | 0x1274      |        4724 |
|     105 | 0x0C77      |        3191 |
|     106 | 0x2AAA      |       10922 |
|     107 | 0x03F8      |        1016 |
|     108 | 0xFFFFB1B3  |  4294947251 |
|     109 | 0xFFFBA481  |  4294681729 |
|     110 | 0xFFFFB1B0  |  4294947248 |
|     111 | 0xFFFBA813  |  4294682643 |

## String References

- **7255**: Use the device? [Yes./No.]
- **7256**: This device appears to be connected to the level below.
- **7257**: This device appears to be connected to the level above.
- **7271**: Can you hear it? [Loud and clear./Hear what?]

## Events

### Event 65535

#### Metadata

| Field        | Value   |
|--------------|---------|
| Entrypoint   | 0x0000  |
| Data Size    | 1 bytes |
| Instructions | 1       |

```
      00 01 02 03 04 05 06 07  08 09 0A 0B 0C 0D 0E 0F
      -- -- -- -- -- -- -- --  -- -- -- -- -- -- -- --
0000: 00                                                .               
```

#### Opcodes

```
  0: 0x0000 [0x00] END_REQSTACK()
```

### Event 65534

#### Metadata

| Field        | Value   |
|--------------|---------|
| Entrypoint   | 0x0001  |
| Data Size    | 1 bytes |
| Instructions | 1       |

```
      00 01 02 03 04 05 06 07  08 09 0A 0B 0C 0D 0E 0F
      -- -- -- -- -- -- -- --  -- -- -- -- -- -- -- --
0000:    00                                              .              
```

#### Opcodes

```
  0: 0x0001 [0x00] END_REQSTACK()
```

### Event 1

#### Metadata

| Field        | Value      |
|--------------|------------|
| Entrypoint   | 0x0002     |
| Data Size    | 1232 bytes |
| Instructions | 133        |

```
      00 01 02 03 04 05 06 07  08 09 0A 0B 0C 0D 0E 0F
      -- -- -- -- -- -- -- --  -- -- -- -- -- -- -- --
0000:       42 1A 6C 04 46 01  38 00 80 37 01 80 02 80    B.l.F.8..7....
0010: 03 80 04 80 45 05 80 F0  FF FF 7F F0 FF FF 7F 73  ....E..........s
0020: 30 35 36 03 80 4E 00 B6  21 02 01 4E 00 B7 21 02  056..N..!..N..!.
0030: 01 4E 00 B8 21 02 01 80  B6 21 02 01 80 B7 21 02  .N..!....!....!.
0040: 01 80 B8 21 02 01 1A C0  04 55 05 80 F0 FF FF 7F  ...!.....U......
0050: F0 FF FF 7F 73 30 35 36  45 06 80 F0 FF FF 7F F0  ....s056E.......
0060: FF FF 7F 6F 76 6C 31 03  80 45 05 80 F0 FF FF 7F  ...ovl1..E......
0070: F0 FF FF 7F 73 30 36 36  03 80 4E 00 B4 21 02 01  ....s066..N..!..
0080: 5B 07 80 B6 21 02 01 B6  21 02 01 64 66 6D 30 2B  [...!...!..dfm0+
0090: B6 21 02 01 08 80 23 5B  07 80 B6 21 02 01 B6 21  .!....#[...!...!
00A0: 02 01 64 66 6D 31 5B 07  80 B7 21 02 01 B7 21 02  ..dfm1[...!...!.
00B0: 01 64 66 6B 30 2B B7 21  02 01 09 80 23 5B 07 80  .dfk0+.!....#[..
00C0: B7 21 02 01 B7 21 02 01  64 66 6B 31 5B 0A 80 B8  .!...!..dfk1[...
00D0: 21 02 01 B8 21 02 01 64  66 63 30 2B B8 21 02 01  !...!..dfc0+.!..
00E0: 0B 80 23 5B 0A 80 B8 21  02 01 B8 21 02 01 64 66  ..#[...!...!..df
00F0: 63 31 80 B4 21 02 01 4E  00 B0 21 02 01 4E 00 B3  c1..!..N..!..N..
0100: 21 02 01 4E 00 B2 21 02  01 52 05 80 F0 FF FF 7F  !..N..!..R......
0110: F0 FF FF 7F 73 30 36 36  45 05 80 F0 FF FF 7F F0  ....s066E.......
0120: FF FF 7F 73 30 35 37 03  80 79 00 F0 FF FF 7F B4  ...s057..y......
0130: 21 02 01 79 00 B6 21 02  01 B4 21 02 01 79 00 B7  !..y..!...!..y..
0140: 21 02 01 B4 21 02 01 27  0A B4 21 02 01 09 55 05  !...!..'..!...U.
0150: 80 F0 FF FF 7F F0 FF FF  7F 73 30 35 37 45 06 80  .........s057E..
0160: F0 FF FF 7F F0 FF FF 7F  6F 76 6C 31 03 80 45 05  ........ovl1..E.
0170: 80 F0 FF FF 7F F0 FF FF  7F 73 30 35 38 03 80 2A  .........s058..*
0180: 0A B4 21 02 01 5B 0C 80  B4 21 02 01 B4 21 02 01  ..!..[...!...!..
0190: 73 69 30 31 2B B4 21 02  01 0D 80 23 80 B0 21 02  si01+.!....#..!.
01A0: 01 80 B3 21 02 01 80 B2  21 02 01 52 05 80 F0 FF  ...!....!..R....
01B0: FF 7F F0 FF FF 7F 73 30  35 38 45 05 80 F0 FF FF  ......s058E.....
01C0: 7F F0 FF FF 7F 73 30 35  39 03 80 27 0A B0 21 02  .....s059..'..!.
01D0: 01 09 27 0A B3 21 02 01  09 27 0A B2 21 02 01 09  ..'..!...'..!...
01E0: 4A B6 21 02 01 B0 21 02  01 4A B7 21 02 01 B0 21  J.!...!..J.!...!
01F0: 02 01 4A B8 21 02 01 B0  21 02 01 79 00 B0 21 02  ..J.!...!..y..!.
0200: 01 B8 21 02 01 2B B0 21  02 01 0E 80 1C 0F 80 79  ..!..+.!.......y
0210: 00 B0 21 02 01 B6 21 02  01 23 2A 0A B0 21 02 01  ..!...!..#*..!..
0220: 6B 69 64 6C 30 B4 21 02  01 4A B4 21 02 01 B2 21  kidl0.!..J.!...!
0230: 02 01 52 05 80 F0 FF FF  7F F0 FF FF 7F 73 30 35  ..R..........s05
0240: 39 45 05 80 F0 FF FF 7F  F0 FF FF 7F 73 30 36 30  9E..........s060
0250: 03 80 66 10 80 B3 21 02  01 B3 21 02 01 74 68 6B  ..f...!...!..thk
0260: 31 2B B3 21 02 01 11 80  23 24 12 80 03 80 03 80  1+.!....#$......
0270: 25 02 00 10 03 80 00 9D  02 66 10 80 B3 21 02 01  %........f...!..
0280: B3 21 02 01 74 68 6B 32  79 00 B3 21 02 01 F0 FF  .!..thk2y..!....
0290: FF 7F 2B B3 21 02 01 13  80 23 01 C9 02 02 00 10  ..+.!....#......
02A0: 14 80 00 C9 02 66 10 80  B3 21 02 01 B3 21 02 01  .....f...!...!..
02B0: 74 68 6B 32 79 00 B3 21  02 01 F0 FF FF 7F 2B B3  thk2y..!......+.
02C0: 21 02 01 15 80 23 01 C9  02 52 05 80 F0 FF FF 7F  !....#...R......
02D0: F0 FF FF 7F 73 30 36 30  7B B3 21 02 01 45 05 80  ....s060{.!..E..
02E0: F0 FF FF 7F F0 FF FF 7F  73 30 36 31 03 80 5B 16  ........s061..[.
02F0: 80 B2 21 02 01 B2 21 02  01 67 62 61 30 1C 17 80  ..!...!..gba0...
0300: 2B B2 21 02 01 18 80 23  52 05 80 F0 FF FF 7F F0  +.!....#R.......
0310: FF FF 7F 73 30 36 31 45  05 80 F0 FF FF 7F F0 FF  ...s061E........
0320: FF 7F 73 30 36 32 03 80  6B 69 64 6C 30 B2 21 02  ..s062..kidl0.!.
0330: 01 66 19 80 B4 21 02 01  B4 21 02 01 74 77 61 30  .f...!...!..twa0
0340: 2B B4 21 02 01 1A 80 23  66 19 80 B4 21 02 01 B4  +.!....#f...!...
0350: 21 02 01 74 77 61 31 1E  B0 21 02 01 7B B0 21 02  !..twa1..!..{.!.
0360: 01 52 05 80 F0 FF FF 7F  F0 FF FF 7F 73 30 36 32  .R..........s062
0370: 45 05 80 F0 FF FF 7F F0  FF FF 7F 73 30 36 33 03  E..........s063.
0380: 80 5B 1B 80 B0 21 02 01  B0 21 02 01 74 68 6B 30  .[...!...!..thk0
0390: 2B B0 21 02 01 1C 80 23  5B 1B 80 B0 21 02 01 B0  +.!....#[...!...
03A0: 21 02 01 68 74 61 30 2B  B0 21 02 01 1D 80 23 52  !..hta0+.!....#R
03B0: 05 80 F0 FF FF 7F F0 FF  FF 7F 73 30 36 33 45 05  ..........s063E.
03C0: 80 F0 FF FF 7F F0 FF FF  7F 73 30 36 34 03 80 4A  .........s064..J
03D0: B0 21 02 01 F0 FF FF 7F  2B B0 21 02 01 1E 80 23  .!......+.!....#
03E0: 5B 1B 80 B0 21 02 01 B0  21 02 01 74 6C 63 30 2B  [...!...!..tlc0+
03F0: B0 21 02 01 1F 80 23 52  05 80 F0 FF FF 7F F0 FF  .!....#R........
0400: FF 7F 73 30 36 34 45 05  80 F0 FF FF 7F F0 FF FF  ..s064E.........
0410: 7F 73 30 36 35 03 80 5B  1B 80 B0 21 02 01 B0 21  .s065..[...!...!
0420: 02 01 74 6C 63 31 2B B0  21 02 01 20 80 23 1A 6C  ..tlc1+.!.. .#.l
0430: 04 46 00 1A 8D 04 21 00  45 06 80 F0 FF FF 7F F0  .F....!.E.......
0440: FF FF 7F 66 64 6F 30 03  80 55 06 80 F0 FF FF 7F  ...fdo0..U......
0450: F0 FF FF 7F 66 64 6F 30  1B 1B 45 06 80 F0 FF FF  ....fdo0..E.....
0460: 7F F0 FF FF 7F 66 64 69  30 03 80 1B 45 06 80 F0  .....fdi0...E...
0470: FF FF 7F F0 FF FF 7F 66  64 6F 31 03 80 55 06 80  .......fdo1..U..
0480: F0 FF FF 7F F0 FF FF 7F  66 64 6F 31 1B 45 06 80  ........fdo1.E..
0490: F0 FF FF 7F F0 FF FF 7F  66 64 69 31 03 80 1B 45  ........fdi1...E
04A0: 06 80 F0 FF FF 7F F0 FF  FF 7F 66 64 6F 32 03 80  ..........fdo2..
04B0: 55 06 80 F0 FF FF 7F F0  FF FF 7F 66 64 6F 32 1B  U..........fdo2.
04C0: 45 06 80 F0 FF FF 7F F0  FF FF 7F 66 64 69 32 03  E..........fdi2.
04D0: 80 1B                                             ..              
```

#### Opcodes

```
  0: 0x0002 [0x42] SET_CLI_EVENT_CANCEL_DATA()
  1: 0x0003 [0x1A] CALL_SUBROUTINE(address=0x046C)
  2: 0x0006 [0x46] CAMERA_CONTROL: Disable user control
  3: 0x0008 [0x38] SET_CLIENT_EVENT_MODE(mode=19*)
  4: 0x000B [0x37] UPDATE_EVENT_POSITION_AND_DIR: x=-21.966*, z=-284.260*, y=0.000*, direction=300.8°*
  5: 0x0014 [0x45] LOAD_SCHEDULED_TASK: Load scheduler "s056" with entities [LocalPlayer, LocalPlayer], work=[163*, 0*]
  6: 0x0025 [0x4E] SET_ENTITY_HIDE_FLAG: Show Makki-Chebukki (ID: 16916918/0x010221B6)
  7: 0x002B [0x4E] SET_ENTITY_HIDE_FLAG: Show Kukki-Chebukki (ID: 16916919/0x010221B7)
  8: 0x0031 [0x4E] SET_ENTITY_HIDE_FLAG: Show Cherukiki (ID: 16916920/0x010221B8)
  9: 0x0037 [0x80] LOAD_WAIT(entity=Makki-Chebukki (ID: 16916918/0x010221B6))
 10: 0x003C [0x80] LOAD_WAIT(entity=Kukki-Chebukki (ID: 16916919/0x010221B7))
 11: 0x0041 [0x80] LOAD_WAIT(entity=Cherukiki (ID: 16916920/0x010221B8))
 12: 0x0046 [0x1A] CALL_SUBROUTINE(address=0x04C0)
 13: 0x0049 [0x55] WAIT_LOAD_SCHEDULER: Wait for scheduler "s056" with entities [LocalPlayer, LocalPlayer], work=163*
 14: 0x0058 [0x45] LOAD_SCHEDULED_TASK: Load scheduler "ovl1" with entities [LocalPlayer, LocalPlayer], work=[200*, 0*]
 15: 0x0069 [0x45] LOAD_SCHEDULED_TASK: Load scheduler "s066" with entities [LocalPlayer, LocalPlayer], work=[163*, 0*]
 16: 0x007A [0x4E] SET_ENTITY_HIDE_FLAG: Show Louverance (ID: 16916916/0x010221B4)
 17: 0x0080 [0x5B] LOAD_EXT_SCHEDULER: Load scheduler "dfm0" with entities [Makki-Chebukki (ID: 16916918/0x010221B6), Makki-Chebukki (ID: 16916918/0x010221B6)], work=441*
 18: 0x008F [0x2B] Makki-Chebukki (ID: 16916918/0x010221B6) [7265*]:
    → "Open the gates! The elder prince has returned!"
 19: 0x0096 [0x23] WAIT_FOR_DIALOG_INTERACTION
 20: 0x0097 [0x5B] LOAD_EXT_SCHEDULER: Load scheduler "dfm1" with entities [Makki-Chebukki (ID: 16916918/0x010221B6), Makki-Chebukki (ID: 16916918/0x010221B6)], work=441*
 21: 0x00A6 [0x5B] LOAD_EXT_SCHEDULER: Load scheduler "dfk0" with entities [Kukki-Chebukki (ID: 16916919/0x010221B7), Kukki-Chebukki (ID: 16916919/0x010221B7)], work=441*
 22: 0x00B5 [0x2B] Kukki-Chebukki (ID: 16916919/0x010221B7) [7266*]:
    → "Lower the drawbridge! The younger prince is home!"
 23: 0x00BC [0x23] WAIT_FOR_DIALOG_INTERACTION
 24: 0x00BD [0x5B] LOAD_EXT_SCHEDULER: Load scheduler "dfk1" with entities [Kukki-Chebukki (ID: 16916919/0x010221B7), Kukki-Chebukki (ID: 16916919/0x010221B7)], work=441*
 25: 0x00CC [0x5B] LOAD_EXT_SCHEDULER: Load scheduler "dfc0" with entities [Cherukiki (ID: 16916920/0x010221B8), Cherukiki (ID: 16916920/0x010221B8)], work=431*
 26: 0x00DB [0x2B] Cherukiki (ID: 16916920/0x010221B8) [7267*]:
    → "Prepare the banquet table! The princess is starved!"
 27: 0x00E2 [0x23] WAIT_FOR_DIALOG_INTERACTION
 28: 0x00E3 [0x5B] LOAD_EXT_SCHEDULER: Load scheduler "dfc1" with entities [Cherukiki (ID: 16916920/0x010221B8), Cherukiki (ID: 16916920/0x010221B8)], work=431*
 29: 0x00F2 [0x80] LOAD_WAIT(entity=Louverance (ID: 16916916/0x010221B4))
 30: 0x00F7 [0x4E] SET_ENTITY_HIDE_FLAG: Show Ulmia (ID: 16916912/0x010221B0)
 31: 0x00FD [0x4E] SET_ENTITY_HIDE_FLAG: Show Shikaree Z (ID: 16916915/0x010221B3)
 32: 0x0103 [0x4E] SET_ENTITY_HIDE_FLAG: Show Jabbos (ID: 16916914/0x010221B2)
 33: 0x0109 [0x52] END_LOAD_SCHEDULER: End scheduler "s066" with entities [LocalPlayer, LocalPlayer], work=163*
 34: 0x0118 [0x45] LOAD_SCHEDULED_TASK: Load scheduler "s057" with entities [LocalPlayer, LocalPlayer], work=[163*, 0*]
 35: 0x0129 [0x79] LocalPlayer looks at Louverance (ID: 16916916/0x010221B4) (Basic look)
 36: 0x0133 [0x79] Makki-Chebukki (ID: 16916918/0x010221B6) looks at Louverance (ID: 16916916/0x010221B4) (Basic look)
 37: 0x013D [0x79] Kukki-Chebukki (ID: 16916919/0x010221B7) looks at Louverance (ID: 16916916/0x010221B4) (Basic look)
 38: 0x0147 [0x27] REQ_SET(priority=0x0A, entity_id=Louverance (ID: 16916916/0x010221B4), tag_num=0x09)
 39: 0x014E [0x55] WAIT_LOAD_SCHEDULER: Wait for scheduler "s057" with entities [LocalPlayer, LocalPlayer], work=163*
 40: 0x015D [0x45] LOAD_SCHEDULED_TASK: Load scheduler "ovl1" with entities [LocalPlayer, LocalPlayer], work=[200*, 0*]
 41: 0x016E [0x45] LOAD_SCHEDULED_TASK: Load scheduler "s058" with entities [LocalPlayer, LocalPlayer], work=[163*, 0*]
 42: 0x017F [0x2A] GET_REQ_LEVEL(level=10, entity_id=Louverance (ID: 16916916/0x010221B4))
 43: 0x0185 [0x5B] LOAD_EXT_SCHEDULER: Load scheduler "si01" with entities [Louverance (ID: 16916916/0x010221B4), Louverance (ID: 16916916/0x010221B4)], work=657*
 44: 0x0194 [0x2B] Louverance (ID: 16916916/0x010221B4) [7268*]:
    → "Another obstacle in our path?"
 45: 0x019B [0x23] WAIT_FOR_DIALOG_INTERACTION
 46: 0x019C [0x80] LOAD_WAIT(entity=Ulmia (ID: 16916912/0x010221B0))
 47: 0x01A1 [0x80] LOAD_WAIT(entity=Shikaree Z (ID: 16916915/0x010221B3))
 48: 0x01A6 [0x80] LOAD_WAIT(entity=Jabbos (ID: 16916914/0x010221B2))
 49: 0x01AB [0x52] END_LOAD_SCHEDULER: End scheduler "s058" with entities [LocalPlayer, LocalPlayer], work=163*
 50: 0x01BA [0x45] LOAD_SCHEDULED_TASK: Load scheduler "s059" with entities [LocalPlayer, LocalPlayer], work=[163*, 0*]
 51: 0x01CB [0x27] REQ_SET(priority=0x0A, entity_id=Ulmia (ID: 16916912/0x010221B0), tag_num=0x09)
 52: 0x01D2 [0x27] REQ_SET(priority=0x0A, entity_id=Shikaree Z (ID: 16916915/0x010221B3), tag_num=0x09)
 53: 0x01D9 [0x27] REQ_SET(priority=0x0A, entity_id=Jabbos (ID: 16916914/0x010221B2), tag_num=0x09)
 54: 0x01E0 [0x4A] Makki-Chebukki (ID: 16916918/0x010221B6) looks at Ulmia (ID: 16916912/0x010221B0)
 55: 0x01E9 [0x4A] Kukki-Chebukki (ID: 16916919/0x010221B7) looks at Ulmia (ID: 16916912/0x010221B0)
 56: 0x01F2 [0x4A] Cherukiki (ID: 16916920/0x010221B8) looks at Ulmia (ID: 16916912/0x010221B0)
 57: 0x01FB [0x79] Ulmia (ID: 16916912/0x010221B0) looks at Cherukiki (ID: 16916920/0x010221B8) (Basic look)
 58: 0x0205 [0x2B] Ulmia (ID: 16916912/0x010221B0) [7269*]:
    → "What mischief are you three up to this time?"
 59: 0x020C [0x1C] WAIT(60* ticks)
 60: 0x020F [0x79] Ulmia (ID: 16916912/0x010221B0) looks at Makki-Chebukki (ID: 16916918/0x010221B6) (Basic look)
 61: 0x0219 [0x23] WAIT_FOR_DIALOG_INTERACTION
 62: 0x021A [0x2A] GET_REQ_LEVEL(level=10, entity_id=Ulmia (ID: 16916912/0x010221B0))
 63: 0x0220 [0x6B] STOP_AND_IDLE: Louverance (ID: 16916916/0x010221B4) stops current action and resets to idle (animation="idl0")
 64: 0x0229 [0x4A] Louverance (ID: 16916916/0x010221B4) looks at Jabbos (ID: 16916914/0x010221B2)
 65: 0x0232 [0x52] END_LOAD_SCHEDULER: End scheduler "s059" with entities [LocalPlayer, LocalPlayer], work=163*
 66: 0x0241 [0x45] LOAD_SCHEDULED_TASK: Load scheduler "s060" with entities [LocalPlayer, LocalPlayer], work=[163*, 0*]
 67: 0x0252 [0x66] LOAD_EXT_SCHEDULER_MAIN: Load scheduler "thk1" with entities [Shikaree Z (ID: 16916915/0x010221B3), Shikaree Z (ID: 16916915/0x010221B3)], work=59*
 68: 0x0261 [0x2B] Shikaree Z (ID: 16916915/0x010221B3) [7270*]:
    → "I can hear it clearly now. The source must be beyond this gate."
 69: 0x0268 [0x23] WAIT_FOR_DIALOG_INTERACTION
 70: 0x0269 [0x24] CREATE_DIALOG(message_id=7271*, default_option=0*, option_flags=0*)
    → "Can you hear it? [Loud and clear./Hear what?]"
 71: 0x0270 [0x25] WAIT_DIALOG_SELECT()
 72: 0x0271 [0x02] IF !(Work_Zone[0] == 0*) GOTO 0x029D
 73: 0x0279 [0x66] LOAD_EXT_SCHEDULER_MAIN: Load scheduler "thk2" with entities [Shikaree Z (ID: 16916915/0x010221B3), Shikaree Z (ID: 16916915/0x010221B3)], work=59*
 74: 0x0288 [0x79] Shikaree Z (ID: 16916915/0x010221B3) looks at LocalPlayer (Basic look)
 75: 0x0292 [0x2B] Shikaree Z (ID: 16916915/0x010221B3) [7272*]:
    → "Our contact with the mothercrystal must have altered our senses in some way. That would explain this ethereal voice..."
 76: 0x0299 [0x23] WAIT_FOR_DIALOG_INTERACTION
 77: 0x029A [0x01] GOTO 0x02C9
 78: 0x029D [0x02] IF !(Work_Zone[0] == 1*) GOTO 0x02C9
 79: 0x02A5 [0x66] LOAD_EXT_SCHEDULER_MAIN: Load scheduler "thk2" with entities [Shikaree Z (ID: 16916915/0x010221B3), Shikaree Z (ID: 16916915/0x010221B3)], work=59*
 80: 0x02B4 [0x79] Shikaree Z (ID: 16916915/0x010221B3) looks at LocalPlayer (Basic look)
 81: 0x02BE [0x2B] Shikaree Z (ID: 16916915/0x010221B3) [7273*]:
    → "You can't hear it? A voice is calling to us, suffocating in its insistence."
 82: 0x02C5 [0x23] WAIT_FOR_DIALOG_INTERACTION
 83: 0x02C6 [0x01] GOTO 0x02C9

SUBROUTINE_02C9:
 84: 0x02C9 [0x52] END_LOAD_SCHEDULER: End scheduler "s060" with entities [LocalPlayer, LocalPlayer], work=163*
 85: 0x02D8 [0x7B] Shikaree Z (ID: 16916915/0x010221B3) stops talking
 86: 0x02DD [0x45] LOAD_SCHEDULED_TASK: Load scheduler "s061" with entities [LocalPlayer, LocalPlayer], work=[163*, 0*]
 87: 0x02EE [0x5B] LOAD_EXT_SCHEDULER: Load scheduler "gba0" with entities [Jabbos (ID: 16916914/0x010221B2), Jabbos (ID: 16916914/0x010221B2)], work=492*
 88: 0x02FD [0x1C] WAIT(90* ticks)
 89: 0x0300 [0x2B] Jabbos (ID: 16916914/0x010221B2) [7274*]:
    → "It is...telling us...to pass through...this gate..."
 90: 0x0307 [0x23] WAIT_FOR_DIALOG_INTERACTION
 91: 0x0308 [0x52] END_LOAD_SCHEDULER: End scheduler "s061" with entities [LocalPlayer, LocalPlayer], work=163*
 92: 0x0317 [0x45] LOAD_SCHEDULED_TASK: Load scheduler "s062" with entities [LocalPlayer, LocalPlayer], work=[163*, 0*]
 93: 0x0328 [0x6B] STOP_AND_IDLE: Jabbos (ID: 16916914/0x010221B2) stops current action and resets to idle (animation="idl0")
 94: 0x0331 [0x66] LOAD_EXT_SCHEDULER_MAIN: Load scheduler "twa0" with entities [Louverance (ID: 16916916/0x010221B4), Louverance (ID: 16916916/0x010221B4)], work=29*
 95: 0x0340 [0x2B] Louverance (ID: 16916916/0x010221B4) [7275*]:
    → "A portal of this magnificence can only lead to the audience chamber of the Zilartian king."
 96: 0x0347 [0x23] WAIT_FOR_DIALOG_INTERACTION
 97: 0x0348 [0x66] LOAD_EXT_SCHEDULER_MAIN: Load scheduler "twa1" with entities [Louverance (ID: 16916916/0x010221B4), Louverance (ID: 16916916/0x010221B4)], work=29*
 98: 0x0357 [0x1E] EventEntity looks at Ulmia (ID: 16916912/0x010221B0) and starts talking
 99: 0x035C [0x7B] Ulmia (ID: 16916912/0x010221B0) stops talking
100: 0x0361 [0x52] END_LOAD_SCHEDULER: End scheduler "s062" with entities [LocalPlayer, LocalPlayer], work=163*
101: 0x0370 [0x45] LOAD_SCHEDULED_TASK: Load scheduler "s063" with entities [LocalPlayer, LocalPlayer], work=[163*, 0*]
102: 0x0381 [0x5B] LOAD_EXT_SCHEDULER: Load scheduler "thk0" with entities [Ulmia (ID: 16916912/0x010221B0), Ulmia (ID: 16916912/0x010221B0)], work=420*
103: 0x0390 [0x2B] Ulmia (ID: 16916912/0x010221B0) [7276*]:
    → "Could this soul-stirring voice belong to the king himself?"
104: 0x0397 [0x23] WAIT_FOR_DIALOG_INTERACTION
105: 0x0398 [0x5B] LOAD_EXT_SCHEDULER: Load scheduler "hta0" with entities [Ulmia (ID: 16916912/0x010221B0), Ulmia (ID: 16916912/0x010221B0)], work=420*
106: 0x03A7 [0x2B] Ulmia (ID: 16916912/0x010221B0) [7277*]:
    → "If so, then why does the gate remain closed? Are the children of Vana'diel not welcome here...?"
107: 0x03AE [0x23] WAIT_FOR_DIALOG_INTERACTION
108: 0x03AF [0x52] END_LOAD_SCHEDULER: End scheduler "s063" with entities [LocalPlayer, LocalPlayer], work=163*
109: 0x03BE [0x45] LOAD_SCHEDULED_TASK: Load scheduler "s064" with entities [LocalPlayer, LocalPlayer], work=[163*, 0*]
110: 0x03CF [0x4A] Ulmia (ID: 16916912/0x010221B0) looks at LocalPlayer
111: 0x03D8 [0x2B] Ulmia (ID: 16916912/0x010221B0) [7278*]:
    → "Oh, <Player>. Whatever are we to do?"
112: 0x03DF [0x23] WAIT_FOR_DIALOG_INTERACTION
113: 0x03E0 [0x5B] LOAD_EXT_SCHEDULER: Load scheduler "tlc0" with entities [Ulmia (ID: 16916912/0x010221B0), Ulmia (ID: 16916912/0x010221B0)], work=420*
114: 0x03EF [0x2B] Ulmia (ID: 16916912/0x010221B0) [7279*]:
    → "Cardinal Mildaurion gifted us with a ring that has the power to transport a person directly to Tavnazia..."
115: 0x03F6 [0x23] WAIT_FOR_DIALOG_INTERACTION
116: 0x03F7 [0x52] END_LOAD_SCHEDULER: End scheduler "s064" with entities [LocalPlayer, LocalPlayer], work=163*
117: 0x0406 [0x45] LOAD_SCHEDULED_TASK: Load scheduler "s065" with entities [LocalPlayer, LocalPlayer], work=[163*, 0*]
118: 0x0417 [0x5B] LOAD_EXT_SCHEDULER: Load scheduler "tlc1" with entities [Ulmia (ID: 16916912/0x010221B0), Ulmia (ID: 16916912/0x010221B0)], work=420*
119: 0x0426 [0x2B] Ulmia (ID: 16916912/0x010221B0) [7280*]:
    → "But I have no intention of returning until we discover the way to open this gate. Perhaps it may be of some small use to you, <Player>."
120: 0x042D [0x23] WAIT_FOR_DIALOG_INTERACTION
121: 0x042E [0x1A] CALL_SUBROUTINE(address=0x046C)
122: 0x0431 [0x46] CAMERA_CONTROL: Restore default settings
123: 0x0433 [0x1A] CALL_SUBROUTINE(address=0x048D)
124: 0x0436 [0x21] END_EVENT
125: 0x0437 [0x00] END_REQSTACK()

SUBROUTINE_046C:
126: 0x046C [0x45] LOAD_SCHEDULED_TASK: Load scheduler "fdo1" with entities [LocalPlayer, LocalPlayer], work=[200*, 0*]
127: 0x047D [0x55] WAIT_LOAD_SCHEDULER: Wait for scheduler "fdo1" with entities [LocalPlayer, LocalPlayer], work=200*
128: 0x048C [0x1B] RETURN

SUBROUTINE_048D:
129: 0x048D [0x45] LOAD_SCHEDULED_TASK: Load scheduler "fdi1" with entities [LocalPlayer, LocalPlayer], work=[200*, 0*]
130: 0x049E [0x1B] RETURN

SUBROUTINE_04C0:
131: 0x04C0 [0x45] LOAD_SCHEDULED_TASK: Load scheduler "fdi2" with entities [LocalPlayer, LocalPlayer], work=[200*, 0*]
132: 0x04D1 [0x1B] RETURN
```

#### Data or dead code:

```
# Dead code (unreachable instructions):
     0x0438 [0x45] LOAD_SCHEDULED_TASK: Load scheduler "fdo0" with entities [LocalPlayer, LocalPlayer], work=[200*, 0*]
     0x0449 [0x55] WAIT_LOAD_SCHEDULER: Wait for scheduler "fdo0" with entities [LocalPlayer, LocalPlayer], work=200*
     0x0458 [0x1B] RETURN
     0x0459 [0x1B] RETURN
     0x045A [0x45] LOAD_SCHEDULED_TASK: Load scheduler "fdi0" with entities [LocalPlayer, LocalPlayer], work=[200*, 0*]
     0x046B [0x1B] RETURN
# Dead code (unreachable instructions):
     0x049F [0x45] LOAD_SCHEDULED_TASK: Load scheduler "fdo2" with entities [LocalPlayer, LocalPlayer], work=[200*, 0*]
     0x04B0 [0x55] WAIT_LOAD_SCHEDULER: Wait for scheduler "fdo2" with entities [LocalPlayer, LocalPlayer], work=200*
     0x04BF [0x1B] RETURN
```

### Event 50

#### Metadata

| Field        | Value    |
|--------------|----------|
| Entrypoint   | 0x04D2   |
| Data Size    | 16 bytes |
| Instructions | 3        |

```
      00 01 02 03 04 05 06 07  08 09 0A 0B 0C 0D 0E 0F
      -- -- -- -- -- -- -- --  -- -- -- -- -- -- -- --
04D0:       92 01 F0 FF FF 7F  37 21 80 22 80 03 80 23    ......7!."...#
04E0: 80 00                                             ..              
```

#### Opcodes

```
  0: 0x04D2 [0x92] LocalPlayer->Render.Flags3 ^= 0x01
  1: 0x04D8 [0x37] UPDATE_EVENT_POSITION_AND_DIR: x=-19.988*, z=-284.500*, y=0.000*, direction=269.9°*
  2: 0x04E1 [0x00] END_REQSTACK()
```

### Event 51

#### Metadata

| Field        | Value    |
|--------------|----------|
| Entrypoint   | 0x04E2   |
| Data Size    | 14 bytes |
| Instructions | 4        |

```
      00 01 02 03 04 05 06 07  08 09 0A 0B 0C 0D 0E 0F
      -- -- -- -- -- -- -- --  -- -- -- -- -- -- -- --
04E0:       32 24 80 1F 00 25  80 26 80 03 80 1F 01 00    2$...%.&......
```

#### Opcodes

```
  0: 0x04E2 [0x32] ExtData[1]->MainSpeed = 13* * 0.1
  1: 0x04E5 [0x1F] MOVE_ENTITY: EventEntity moves to X=-20.192*, Z=-273.983*, Y=0.000*
  2: 0x04ED [0x1F] MOVE_ENTITY: Update entity position (mode=1)
  3: 0x04EF [0x00] END_REQSTACK()
```

### Event 53

#### Metadata

| Field        | Value    |
|--------------|----------|
| Entrypoint   | 0x04F0   |
| Data Size    | 10 bytes |
| Instructions | 2        |

```
      00 01 02 03 04 05 06 07  08 09 0A 0B 0C 0D 0E 0F
      -- -- -- -- -- -- -- --  -- -- -- -- -- -- -- --
04F0: 37 27 80 28 80 29 80 2A  80 00                    7'.(.).*..      
```

#### Opcodes

```
  0: 0x04F0 [0x37] UPDATE_EVENT_POSITION_AND_DIR: x=2.662*, z=-320.011*, y=0.499*, direction=359.9°*
  1: 0x04F9 [0x00] END_REQSTACK()
```

### Event 54

#### Metadata

| Field        | Value    |
|--------------|----------|
| Entrypoint   | 0x04FA   |
| Data Size    | 14 bytes |
| Instructions | 4        |

```
      00 01 02 03 04 05 06 07  08 09 0A 0B 0C 0D 0E 0F
      -- -- -- -- -- -- -- --  -- -- -- -- -- -- -- --
04F0:                                32 24 80 1F 00 2B            2$...+
0500: 80 2C 80 29 80 1F 01 00                           .,.)....        
```

#### Opcodes

```
  0: 0x04FA [0x32] ExtData[1]->MainSpeed = 13* * 0.1
  1: 0x04FD [0x1F] MOVE_ENTITY: EventEntity moves to X=9.800*, Z=-320.033*, Y=0.499*
  2: 0x0505 [0x1F] MOVE_ENTITY: Update entity position (mode=1)
  3: 0x0507 [0x00] END_REQSTACK()
```

### Event 55

#### Metadata

| Field        | Value    |
|--------------|----------|
| Entrypoint   | 0x0508   |
| Data Size    | 13 bytes |
| Instructions | 3        |

```
      00 01 02 03 04 05 06 07  08 09 0A 0B 0C 0D 0E 0F
      -- -- -- -- -- -- -- --  -- -- -- -- -- -- -- --
0500:                          47 00 2D 80 2E 80 03 80          G.-.....
0510: 2F 80 47 01 00                                    /.G..           
```

#### Opcodes

```
  0: 0x0508 [0x47] UPDATE_PLAYER_POS(-368.622*, 259.987*, 0.000*, yaw=359.7°*)
  1: 0x0512 [0x47] WAIT_PLAYER_POS_UPDATE
  2: 0x0514 [0x00] END_REQSTACK()
```

### Event 57

#### Metadata

| Field        | Value    |
|--------------|----------|
| Entrypoint   | 0x0515   |
| Data Size    | 10 bytes |
| Instructions | 2        |

```
      00 01 02 03 04 05 06 07  08 09 0A 0B 0C 0D 0E 0F
      -- -- -- -- -- -- -- --  -- -- -- -- -- -- -- --
0510:                37 30 80  31 80 03 80 32 80 00          70.1...2.. 
```

#### Opcodes

```
  0: 0x0515 [0x37] UPDATE_EVENT_POSITION_AND_DIR: x=419.985*, z=402.476*, y=0.000*, direction=87.9°*
  1: 0x051E [0x00] END_REQSTACK()
```

### Event 58

#### Metadata

| Field        | Value    |
|--------------|----------|
| Entrypoint   | 0x051F   |
| Data Size    | 14 bytes |
| Instructions | 4        |

```
      00 01 02 03 04 05 06 07  08 09 0A 0B 0C 0D 0E 0F
      -- -- -- -- -- -- -- --  -- -- -- -- -- -- -- --
0510:                                               32                 2
0520: 24 80 1F 00 33 80 34 80  03 80 1F 01 00           $...3.4......   
```

#### Opcodes

```
  0: 0x051F [0x32] ExtData[1]->MainSpeed = 13* * 0.1
  1: 0x0522 [0x1F] MOVE_ENTITY: EventEntity moves to X=419.987*, Z=396.501*, Y=0.000*
  2: 0x052A [0x1F] MOVE_ENTITY: Update entity position (mode=1)
  3: 0x052C [0x00] END_REQSTACK()
```

### Event 60

#### Metadata

| Field        | Value    |
|--------------|----------|
| Entrypoint   | 0x052D   |
| Data Size    | 10 bytes |
| Instructions | 2        |

```
      00 01 02 03 04 05 06 07  08 09 0A 0B 0C 0D 0E 0F
      -- -- -- -- -- -- -- --  -- -- -- -- -- -- -- --
0520:                                         37 35 80               75.
0530: 36 80 03 80 37 80 00                              6...7..         
```

#### Opcodes

```
  0: 0x052D [0x37] UPDATE_EVENT_POSITION_AND_DIR: x=-482.127*, z=259.989*, y=0.000*, direction=358.6°*
  1: 0x0536 [0x00] END_REQSTACK()
```

### Event 61

#### Metadata

| Field        | Value    |
|--------------|----------|
| Entrypoint   | 0x0537   |
| Data Size    | 14 bytes |
| Instructions | 4        |

```
      00 01 02 03 04 05 06 07  08 09 0A 0B 0C 0D 0E 0F
      -- -- -- -- -- -- -- --  -- -- -- -- -- -- -- --
0530:                      32  24 80 1F 00 38 80 39 80         2$...8.9.
0540: 03 80 1F 01 00                                    .....           
```

#### Opcodes

```
  0: 0x0537 [0x32] ExtData[1]->MainSpeed = 13* * 0.1
  1: 0x053A [0x1F] MOVE_ENTITY: EventEntity moves to X=-476.538*, Z=259.939*, Y=0.000*
  2: 0x0542 [0x1F] MOVE_ENTITY: Update entity position (mode=1)
  3: 0x0544 [0x00] END_REQSTACK()
```

### Event 62

#### Metadata

| Field        | Value    |
|--------------|----------|
| Entrypoint   | 0x0545   |
| Data Size    | 13 bytes |
| Instructions | 3        |

```
      00 01 02 03 04 05 06 07  08 09 0A 0B 0C 0D 0E 0F
      -- -- -- -- -- -- -- --  -- -- -- -- -- -- -- --
0540:                47 00 3A  80 3B 80 29 80 37 80 47       G.:.;.).7.G
0550: 01 00                                             ..              
```

#### Opcodes

```
  0: 0x0545 [0x47] UPDATE_PLAYER_POS(-42.711*, -319.950*, 0.499*, yaw=358.6°*)
  1: 0x054F [0x47] WAIT_PLAYER_POS_UPDATE
  2: 0x0551 [0x00] END_REQSTACK()
```

### Event 65535.1

#### Metadata

| Field        | Value   |
|--------------|---------|
| Entrypoint   | 0x0552  |
| Data Size    | 1 bytes |
| Instructions | 1       |

```
      00 01 02 03 04 05 06 07  08 09 0A 0B 0C 0D 0E 0F
      -- -- -- -- -- -- -- --  -- -- -- -- -- -- -- --
0550:       00                                            .             
```

#### Opcodes

```
  0: 0x0552 [0x00] END_REQSTACK()
```

### Event 150

#### Metadata

| Field        | Value    |
|--------------|----------|
| Entrypoint   | 0x0553   |
| Data Size    | 76 bytes |
| Instructions | 20       |

```
      00 01 02 03 04 05 06 07  08 09 0A 0B 0C 0D 0E 0F
      -- -- -- -- -- -- -- --  -- -- -- -- -- -- -- --
0550:          20 01 48 3C 80  23 24 3D 80 14 80 03 80      .H<.#$=.....
0560: 25 02 00 10 03 80 00 90  05 42 43 00 43 01 03 01  %........BC.C...
0570: 10 14 80 29 01 F0 FF FF  7F 18 47 00 3E 80 3F 80  ...)......G.>.?.
0580: 40 80 41 80 47 01 29 01  F0 FF FF 7F 19 01 9B 05  @.A.G.).........
0590: 02 00 10 14 80 00 9B 05  01 9B 05 20 00 21 00     ........... .!. 
```

#### Opcodes

```
  0: 0x0553 [0x20] SET_CLI_EVENT_UC_FLAG: Lock player control
  1: 0x0555 [0x48] [System] [7256*]:
    → "This device appears to be connected to the level below."
  2: 0x0558 [0x23] WAIT_FOR_DIALOG_INTERACTION
  3: 0x0559 [0x24] CREATE_DIALOG(message_id=7255*, default_option=1*, option_flags=0*)
    → "Use the device? [Yes./No.]"
  4: 0x0560 [0x25] WAIT_DIALOG_SELECT()
  5: 0x0561 [0x02] IF !(Work_Zone[0] == 0*) GOTO 0x0590
  6: 0x0569 [0x42] SET_CLI_EVENT_CANCEL_DATA()
  7: 0x056A [0x43] SEND_EVENT_UPDATE: Send pending tag to server (packet 0x005B)
  8: 0x056C [0x43] SEND_EVENT_UPDATE: Check pending flag (skip if not pending)
  9: 0x056E [0x03] Work_Zone[1] = 1*
 10: 0x0573 [0x29] REQ_SET_WAIT(priority=0x01, entity_id=LocalPlayer, tag_num=0x18)
 11: 0x057A [0x47] UPDATE_PLAYER_POS(336.000*, 700.000*, -2.375*, yaw=360.0°*)
 12: 0x0584 [0x47] WAIT_PLAYER_POS_UPDATE
 13: 0x0586 [0x29] REQ_SET_WAIT(priority=0x01, entity_id=LocalPlayer, tag_num=0x19)
 14: 0x058D [0x01] GOTO 0x059B
 15: 0x0590 [0x02] IF !(Work_Zone[0] == 1*) GOTO 0x059B
 16: 0x0598 [0x01] GOTO 0x059B

SUBROUTINE_059B:
 17: 0x059B [0x20] SET_CLI_EVENT_UC_FLAG: Unlock player control
 18: 0x059D [0x21] END_EVENT
 19: 0x059E [0x00] END_REQSTACK()
```

### Event 151

#### Metadata

| Field        | Value    |
|--------------|----------|
| Entrypoint   | 0x059F   |
| Data Size    | 76 bytes |
| Instructions | 20       |

```
      00 01 02 03 04 05 06 07  08 09 0A 0B 0C 0D 0E 0F
      -- -- -- -- -- -- -- --  -- -- -- -- -- -- -- --
0590:                                               20                  
05A0: 01 48 3C 80 23 24 3D 80  14 80 03 80 25 02 00 10  .H<.#$=.....%...
05B0: 03 80 00 DC 05 42 43 00  43 01 03 01 10 14 80 29  .....BC.C......)
05C0: 01 F0 FF FF 7F 18 47 00  42 80 43 80 40 80 44 80  ......G.B.C.@.D.
05D0: 47 01 29 01 F0 FF FF 7F  19 01 E7 05 02 00 10 14  G.).............
05E0: 80 00 E7 05 01 E7 05 20  00 21 00                 ....... .!.     
```

#### Opcodes

```
  0: 0x059F [0x20] SET_CLI_EVENT_UC_FLAG: Lock player control
  1: 0x05A1 [0x48] [System] [7256*]:
    → "This device appears to be connected to the level below."
  2: 0x05A4 [0x23] WAIT_FOR_DIALOG_INTERACTION
  3: 0x05A5 [0x24] CREATE_DIALOG(message_id=7255*, default_option=1*, option_flags=0*)
    → "Use the device? [Yes./No.]"
  4: 0x05AC [0x25] WAIT_DIALOG_SELECT()
  5: 0x05AD [0x02] IF !(Work_Zone[0] == 0*) GOTO 0x05DC
  6: 0x05B5 [0x42] SET_CLI_EVENT_CANCEL_DATA()
  7: 0x05B6 [0x43] SEND_EVENT_UPDATE: Send pending tag to server (packet 0x005B)
  8: 0x05B8 [0x43] SEND_EVENT_UPDATE: Check pending flag (skip if not pending)
  9: 0x05BA [0x03] Work_Zone[1] = 1*
 10: 0x05BF [0x29] REQ_SET_WAIT(priority=0x01, entity_id=LocalPlayer, tag_num=0x18)
 11: 0x05C6 [0x47] UPDATE_PLAYER_POS(740.000*, 544.000*, -2.375*, yaw=90.0°*)
 12: 0x05D0 [0x47] WAIT_PLAYER_POS_UPDATE
 13: 0x05D2 [0x29] REQ_SET_WAIT(priority=0x01, entity_id=LocalPlayer, tag_num=0x19)
 14: 0x05D9 [0x01] GOTO 0x05E7
 15: 0x05DC [0x02] IF !(Work_Zone[0] == 1*) GOTO 0x05E7
 16: 0x05E4 [0x01] GOTO 0x05E7

SUBROUTINE_05E7:
 17: 0x05E7 [0x20] SET_CLI_EVENT_UC_FLAG: Unlock player control
 18: 0x05E9 [0x21] END_EVENT
 19: 0x05EA [0x00] END_REQSTACK()
```

### Event 152

#### Metadata

| Field        | Value    |
|--------------|----------|
| Entrypoint   | 0x05EB   |
| Data Size    | 76 bytes |
| Instructions | 20       |

```
      00 01 02 03 04 05 06 07  08 09 0A 0B 0C 0D 0E 0F
      -- -- -- -- -- -- -- --  -- -- -- -- -- -- -- --
05E0:                                   20 01 48 3C 80              .H<.
05F0: 23 24 3D 80 14 80 03 80  25 02 00 10 03 80 00 28  #$=.....%......(
0600: 06 42 43 00 43 01 03 01  10 14 80 29 01 F0 FF FF  .BC.C......)....
0610: 7F 18 47 00 45 80 46 80  40 80 47 80 47 01 29 01  ..G.E.F.@.G.G.).
0620: F0 FF FF 7F 19 01 33 06  02 00 10 14 80 00 33 06  ......3.......3.
0630: 01 33 06 20 00 21 00                              .3. .!.         
```

#### Opcodes

```
  0: 0x05EB [0x20] SET_CLI_EVENT_UC_FLAG: Lock player control
  1: 0x05ED [0x48] [System] [7256*]:
    → "This device appears to be connected to the level below."
  2: 0x05F0 [0x23] WAIT_FOR_DIALOG_INTERACTION
  3: 0x05F1 [0x24] CREATE_DIALOG(message_id=7255*, default_option=1*, option_flags=0*)
    → "Use the device? [Yes./No.]"
  4: 0x05F8 [0x25] WAIT_DIALOG_SELECT()
  5: 0x05F9 [0x02] IF !(Work_Zone[0] == 0*) GOTO 0x0628
  6: 0x0601 [0x42] SET_CLI_EVENT_CANCEL_DATA()
  7: 0x0602 [0x43] SEND_EVENT_UPDATE: Send pending tag to server (packet 0x005B)
  8: 0x0604 [0x43] SEND_EVENT_UPDATE: Check pending flag (skip if not pending)
  9: 0x0606 [0x03] Work_Zone[1] = 1*
 10: 0x060B [0x29] REQ_SET_WAIT(priority=0x01, entity_id=LocalPlayer, tag_num=0x18)
 11: 0x0612 [0x47] UPDATE_PLAYER_POS(664.000*, 99.999*, -2.375*, yaw=180.0°*)
 12: 0x061C [0x47] WAIT_PLAYER_POS_UPDATE
 13: 0x061E [0x29] REQ_SET_WAIT(priority=0x01, entity_id=LocalPlayer, tag_num=0x19)
 14: 0x0625 [0x01] GOTO 0x0633
 15: 0x0628 [0x02] IF !(Work_Zone[0] == 1*) GOTO 0x0633
 16: 0x0630 [0x01] GOTO 0x0633

SUBROUTINE_0633:
 17: 0x0633 [0x20] SET_CLI_EVENT_UC_FLAG: Unlock player control
 18: 0x0635 [0x21] END_EVENT
 19: 0x0636 [0x00] END_REQSTACK()
```

### Event 153

#### Metadata

| Field        | Value    |
|--------------|----------|
| Entrypoint   | 0x0637   |
| Data Size    | 76 bytes |
| Instructions | 20       |

```
      00 01 02 03 04 05 06 07  08 09 0A 0B 0C 0D 0E 0F
      -- -- -- -- -- -- -- --  -- -- -- -- -- -- -- --
0630:                      20  01 48 3C 80 23 24 3D 80          .H<.#$=.
0640: 14 80 03 80 25 02 00 10  03 80 00 74 06 42 43 00  ....%......t.BC.
0650: 43 01 03 01 10 14 80 29  01 F0 FF FF 7F 18 47 00  C......)......G.
0660: 48 80 49 80 40 80 47 80  47 01 29 01 F0 FF FF 7F  H.I.@.G.G.).....
0670: 19 01 7F 06 02 00 10 14  80 00 7F 06 01 7F 06 20  ............... 
0680: 00 21 00                                          .!.             
```

#### Opcodes

```
  0: 0x0637 [0x20] SET_CLI_EVENT_UC_FLAG: Lock player control
  1: 0x0639 [0x48] [System] [7256*]:
    → "This device appears to be connected to the level below."
  2: 0x063C [0x23] WAIT_FOR_DIALOG_INTERACTION
  3: 0x063D [0x24] CREATE_DIALOG(message_id=7255*, default_option=1*, option_flags=0*)
    → "Use the device? [Yes./No.]"
  4: 0x0644 [0x25] WAIT_DIALOG_SELECT()
  5: 0x0645 [0x02] IF !(Work_Zone[0] == 0*) GOTO 0x0674
  6: 0x064D [0x42] SET_CLI_EVENT_CANCEL_DATA()
  7: 0x064E [0x43] SEND_EVENT_UPDATE: Send pending tag to server (packet 0x005B)
  8: 0x0650 [0x43] SEND_EVENT_UPDATE: Check pending flag (skip if not pending)
  9: 0x0652 [0x03] Work_Zone[1] = 1*
 10: 0x0657 [0x29] REQ_SET_WAIT(priority=0x01, entity_id=LocalPlayer, tag_num=0x18)
 11: 0x065E [0x47] UPDATE_PLAYER_POS(344.000*, 99.990*, -2.375*, yaw=180.0°*)
 12: 0x0668 [0x47] WAIT_PLAYER_POS_UPDATE
 13: 0x066A [0x29] REQ_SET_WAIT(priority=0x01, entity_id=LocalPlayer, tag_num=0x19)
 14: 0x0671 [0x01] GOTO 0x067F
 15: 0x0674 [0x02] IF !(Work_Zone[0] == 1*) GOTO 0x067F
 16: 0x067C [0x01] GOTO 0x067F

SUBROUTINE_067F:
 17: 0x067F [0x20] SET_CLI_EVENT_UC_FLAG: Unlock player control
 18: 0x0681 [0x21] END_EVENT
 19: 0x0682 [0x00] END_REQSTACK()
```

### Event 154

#### Metadata

| Field        | Value    |
|--------------|----------|
| Entrypoint   | 0x0683   |
| Data Size    | 76 bytes |
| Instructions | 20       |

```
      00 01 02 03 04 05 06 07  08 09 0A 0B 0C 0D 0E 0F
      -- -- -- -- -- -- -- --  -- -- -- -- -- -- -- --
0680:          20 01 48 3C 80  23 24 3D 80 14 80 03 80      .H<.#$=.....
0690: 25 02 00 10 03 80 00 C0  06 42 43 00 43 01 03 01  %........BC.C...
06A0: 10 14 80 29 01 F0 FF FF  7F 18 47 00 4A 80 4B 80  ...)......G.J.K.
06B0: 40 80 4C 80 47 01 29 01  F0 FF FF 7F 19 01 CB 06  @.L.G.).........
06C0: 02 00 10 14 80 00 CB 06  01 CB 06 20 00 21 00     ........... .!. 
```

#### Opcodes

```
  0: 0x0683 [0x20] SET_CLI_EVENT_UC_FLAG: Lock player control
  1: 0x0685 [0x48] [System] [7256*]:
    → "This device appears to be connected to the level below."
  2: 0x0688 [0x23] WAIT_FOR_DIALOG_INTERACTION
  3: 0x0689 [0x24] CREATE_DIALOG(message_id=7255*, default_option=1*, option_flags=0*)
    → "Use the device? [Yes./No.]"
  4: 0x0690 [0x25] WAIT_DIALOG_SELECT()
  5: 0x0691 [0x02] IF !(Work_Zone[0] == 0*) GOTO 0x06C0
  6: 0x0699 [0x42] SET_CLI_EVENT_CANCEL_DATA()
  7: 0x069A [0x43] SEND_EVENT_UPDATE: Send pending tag to server (packet 0x005B)
  8: 0x069C [0x43] SEND_EVENT_UPDATE: Check pending flag (skip if not pending)
  9: 0x069E [0x03] Work_Zone[1] = 1*
 10: 0x06A3 [0x29] REQ_SET_WAIT(priority=0x01, entity_id=LocalPlayer, tag_num=0x18)
 11: 0x06AA [0x47] UPDATE_PLAYER_POS(100.000*, 375.999*, -2.375*, yaw=270.0°*)
 12: 0x06B4 [0x47] WAIT_PLAYER_POS_UPDATE
 13: 0x06B6 [0x29] REQ_SET_WAIT(priority=0x01, entity_id=LocalPlayer, tag_num=0x19)
 14: 0x06BD [0x01] GOTO 0x06CB
 15: 0x06C0 [0x02] IF !(Work_Zone[0] == 1*) GOTO 0x06CB
 16: 0x06C8 [0x01] GOTO 0x06CB

SUBROUTINE_06CB:
 17: 0x06CB [0x20] SET_CLI_EVENT_UC_FLAG: Unlock player control
 18: 0x06CD [0x21] END_EVENT
 19: 0x06CE [0x00] END_REQSTACK()
```

### Event 155

#### Metadata

| Field        | Value    |
|--------------|----------|
| Entrypoint   | 0x06CF   |
| Data Size    | 76 bytes |
| Instructions | 20       |

```
      00 01 02 03 04 05 06 07  08 09 0A 0B 0C 0D 0E 0F
      -- -- -- -- -- -- -- --  -- -- -- -- -- -- -- --
06C0:                                               20                  
06D0: 01 48 4D 80 23 24 3D 80  14 80 03 80 25 02 00 10  .HM.#$=.....%...
06E0: 03 80 00 0C 07 42 43 00  43 01 03 01 10 14 80 29  .....BC.C......)
06F0: 01 F0 FF FF 7F 18 47 00  4E 80 3F 80 40 80 03 80  ......G.N.?.@...
0700: 47 01 29 01 F0 FF FF 7F  19 01 17 07 02 00 10 14  G.).............
0710: 80 00 17 07 01 17 07 20  00 21 00                 ....... .!.     
```

#### Opcodes

```
  0: 0x06CF [0x20] SET_CLI_EVENT_UC_FLAG: Lock player control
  1: 0x06D1 [0x48] [System] [7257*]:
    → "This device appears to be connected to the level above."
  2: 0x06D4 [0x23] WAIT_FOR_DIALOG_INTERACTION
  3: 0x06D5 [0x24] CREATE_DIALOG(message_id=7255*, default_option=1*, option_flags=0*)
    → "Use the device? [Yes./No.]"
  4: 0x06DC [0x25] WAIT_DIALOG_SELECT()
  5: 0x06DD [0x02] IF !(Work_Zone[0] == 0*) GOTO 0x070C
  6: 0x06E5 [0x42] SET_CLI_EVENT_CANCEL_DATA()
  7: 0x06E6 [0x43] SEND_EVENT_UPDATE: Send pending tag to server (packet 0x005B)
  8: 0x06E8 [0x43] SEND_EVENT_UPDATE: Check pending flag (skip if not pending)
  9: 0x06EA [0x03] Work_Zone[1] = 1*
 10: 0x06EF [0x29] REQ_SET_WAIT(priority=0x01, entity_id=LocalPlayer, tag_num=0x18)
 11: 0x06F6 [0x47] UPDATE_PLAYER_POS(-504.000*, 700.000*, -2.375*, yaw=0.0°*)
 12: 0x0700 [0x47] WAIT_PLAYER_POS_UPDATE
 13: 0x0702 [0x29] REQ_SET_WAIT(priority=0x01, entity_id=LocalPlayer, tag_num=0x19)
 14: 0x0709 [0x01] GOTO 0x0717
 15: 0x070C [0x02] IF !(Work_Zone[0] == 1*) GOTO 0x0717
 16: 0x0714 [0x01] GOTO 0x0717

SUBROUTINE_0717:
 17: 0x0717 [0x20] SET_CLI_EVENT_UC_FLAG: Unlock player control
 18: 0x0719 [0x21] END_EVENT
 19: 0x071A [0x00] END_REQSTACK()
```

### Event 156

#### Metadata

| Field        | Value    |
|--------------|----------|
| Entrypoint   | 0x071B   |
| Data Size    | 76 bytes |
| Instructions | 20       |

```
      00 01 02 03 04 05 06 07  08 09 0A 0B 0C 0D 0E 0F
      -- -- -- -- -- -- -- --  -- -- -- -- -- -- -- --
0710:                                   20 01 48 4D 80              .HM.
0720: 23 24 3D 80 14 80 03 80  25 02 00 10 03 80 00 58  #$=.....%......X
0730: 07 42 43 00 43 01 03 01  10 14 80 29 01 F0 FF FF  .BC.C......)....
0740: 7F 18 47 00 4F 80 43 80  40 80 44 80 47 01 29 01  ..G.O.C.@.D.G.).
0750: F0 FF FF 7F 19 01 63 07  02 00 10 14 80 00 63 07  ......c.......c.
0760: 01 63 07 20 00 21 00                              .c. .!.         
```

#### Opcodes

```
  0: 0x071B [0x20] SET_CLI_EVENT_UC_FLAG: Lock player control
  1: 0x071D [0x48] [System] [7257*]:
    → "This device appears to be connected to the level above."
  2: 0x0720 [0x23] WAIT_FOR_DIALOG_INTERACTION
  3: 0x0721 [0x24] CREATE_DIALOG(message_id=7255*, default_option=1*, option_flags=0*)
    → "Use the device? [Yes./No.]"
  4: 0x0728 [0x25] WAIT_DIALOG_SELECT()
  5: 0x0729 [0x02] IF !(Work_Zone[0] == 0*) GOTO 0x0758
  6: 0x0731 [0x42] SET_CLI_EVENT_CANCEL_DATA()
  7: 0x0732 [0x43] SEND_EVENT_UPDATE: Send pending tag to server (packet 0x005B)
  8: 0x0734 [0x43] SEND_EVENT_UPDATE: Check pending flag (skip if not pending)
  9: 0x0736 [0x03] Work_Zone[1] = 1*
 10: 0x073B [0x29] REQ_SET_WAIT(priority=0x01, entity_id=LocalPlayer, tag_num=0x18)
 11: 0x0742 [0x47] UPDATE_PLAYER_POS(-99.999*, 544.000*, -2.375*, yaw=90.0°*)
 12: 0x074C [0x47] WAIT_PLAYER_POS_UPDATE
 13: 0x074E [0x29] REQ_SET_WAIT(priority=0x01, entity_id=LocalPlayer, tag_num=0x19)
 14: 0x0755 [0x01] GOTO 0x0763
 15: 0x0758 [0x02] IF !(Work_Zone[0] == 1*) GOTO 0x0763
 16: 0x0760 [0x01] GOTO 0x0763

SUBROUTINE_0763:
 17: 0x0763 [0x20] SET_CLI_EVENT_UC_FLAG: Unlock player control
 18: 0x0765 [0x21] END_EVENT
 19: 0x0766 [0x00] END_REQSTACK()
```

### Event 157

#### Metadata

| Field        | Value    |
|--------------|----------|
| Entrypoint   | 0x0767   |
| Data Size    | 76 bytes |
| Instructions | 20       |

```
      00 01 02 03 04 05 06 07  08 09 0A 0B 0C 0D 0E 0F
      -- -- -- -- -- -- -- --  -- -- -- -- -- -- -- --
0760:                      20  01 48 4D 80 23 24 3D 80          .HM.#$=.
0770: 14 80 03 80 25 02 00 10  03 80 00 A4 07 42 43 00  ....%........BC.
0780: 43 01 03 01 10 14 80 29  01 F0 FF FF 7F 18 47 00  C......)......G.
0790: 50 80 46 80 40 80 47 80  47 01 29 01 F0 FF FF 7F  P.F.@.G.G.).....
07A0: 19 01 AF 07 02 00 10 14  80 00 AF 07 01 AF 07 20  ............... 
07B0: 00 21 00                                          .!.             
```

#### Opcodes

```
  0: 0x0767 [0x20] SET_CLI_EVENT_UC_FLAG: Lock player control
  1: 0x0769 [0x48] [System] [7257*]:
    → "This device appears to be connected to the level above."
  2: 0x076C [0x23] WAIT_FOR_DIALOG_INTERACTION
  3: 0x076D [0x24] CREATE_DIALOG(message_id=7255*, default_option=1*, option_flags=0*)
    → "Use the device? [Yes./No.]"
  4: 0x0774 [0x25] WAIT_DIALOG_SELECT()
  5: 0x0775 [0x02] IF !(Work_Zone[0] == 0*) GOTO 0x07A4
  6: 0x077D [0x42] SET_CLI_EVENT_CANCEL_DATA()
  7: 0x077E [0x43] SEND_EVENT_UPDATE: Send pending tag to server (packet 0x005B)
  8: 0x0780 [0x43] SEND_EVENT_UPDATE: Check pending flag (skip if not pending)
  9: 0x0782 [0x03] Work_Zone[1] = 1*
 10: 0x0787 [0x29] REQ_SET_WAIT(priority=0x01, entity_id=LocalPlayer, tag_num=0x18)
 11: 0x078E [0x47] UPDATE_PLAYER_POS(-176.000*, 99.999*, -2.375*, yaw=180.0°*)
 12: 0x0798 [0x47] WAIT_PLAYER_POS_UPDATE
 13: 0x079A [0x29] REQ_SET_WAIT(priority=0x01, entity_id=LocalPlayer, tag_num=0x19)
 14: 0x07A1 [0x01] GOTO 0x07AF
 15: 0x07A4 [0x02] IF !(Work_Zone[0] == 1*) GOTO 0x07AF
 16: 0x07AC [0x01] GOTO 0x07AF

SUBROUTINE_07AF:
 17: 0x07AF [0x20] SET_CLI_EVENT_UC_FLAG: Unlock player control
 18: 0x07B1 [0x21] END_EVENT
 19: 0x07B2 [0x00] END_REQSTACK()
```

### Event 158

#### Metadata

| Field        | Value    |
|--------------|----------|
| Entrypoint   | 0x07B3   |
| Data Size    | 76 bytes |
| Instructions | 20       |

```
      00 01 02 03 04 05 06 07  08 09 0A 0B 0C 0D 0E 0F
      -- -- -- -- -- -- -- --  -- -- -- -- -- -- -- --
07B0:          20 01 48 4D 80  23 24 3D 80 14 80 03 80      .HM.#$=.....
07C0: 25 02 00 10 03 80 00 F0  07 42 43 00 43 01 03 01  %........BC.C...
07D0: 10 14 80 29 01 F0 FF FF  7F 18 47 00 51 80 46 80  ...)......G.Q.F.
07E0: 40 80 47 80 47 01 29 01  F0 FF FF 7F 19 01 FB 07  @.G.G.).........
07F0: 02 00 10 14 80 00 FB 07  01 FB 07 20 00 21 00     ........... .!. 
```

#### Opcodes

```
  0: 0x07B3 [0x20] SET_CLI_EVENT_UC_FLAG: Lock player control
  1: 0x07B5 [0x48] [System] [7257*]:
    → "This device appears to be connected to the level above."
  2: 0x07B8 [0x23] WAIT_FOR_DIALOG_INTERACTION
  3: 0x07B9 [0x24] CREATE_DIALOG(message_id=7255*, default_option=1*, option_flags=0*)
    → "Use the device? [Yes./No.]"
  4: 0x07C0 [0x25] WAIT_DIALOG_SELECT()
  5: 0x07C1 [0x02] IF !(Work_Zone[0] == 0*) GOTO 0x07F0
  6: 0x07C9 [0x42] SET_CLI_EVENT_CANCEL_DATA()
  7: 0x07CA [0x43] SEND_EVENT_UPDATE: Send pending tag to server (packet 0x005B)
  8: 0x07CC [0x43] SEND_EVENT_UPDATE: Check pending flag (skip if not pending)
  9: 0x07CE [0x03] Work_Zone[1] = 1*
 10: 0x07D3 [0x29] REQ_SET_WAIT(priority=0x01, entity_id=LocalPlayer, tag_num=0x18)
 11: 0x07DA [0x47] UPDATE_PLAYER_POS(-496.000*, 99.999*, -2.375*, yaw=180.0°*)
 12: 0x07E4 [0x47] WAIT_PLAYER_POS_UPDATE
 13: 0x07E6 [0x29] REQ_SET_WAIT(priority=0x01, entity_id=LocalPlayer, tag_num=0x19)
 14: 0x07ED [0x01] GOTO 0x07FB
 15: 0x07F0 [0x02] IF !(Work_Zone[0] == 1*) GOTO 0x07FB
 16: 0x07F8 [0x01] GOTO 0x07FB

SUBROUTINE_07FB:
 17: 0x07FB [0x20] SET_CLI_EVENT_UC_FLAG: Unlock player control
 18: 0x07FD [0x21] END_EVENT
 19: 0x07FE [0x00] END_REQSTACK()
```

### Event 159

#### Metadata

| Field        | Value    |
|--------------|----------|
| Entrypoint   | 0x07FF   |
| Data Size    | 76 bytes |
| Instructions | 20       |

```
      00 01 02 03 04 05 06 07  08 09 0A 0B 0C 0D 0E 0F
      -- -- -- -- -- -- -- --  -- -- -- -- -- -- -- --
07F0:                                               20                  
0800: 01 48 4D 80 23 24 3D 80  14 80 03 80 25 02 00 10  .HM.#$=.....%...
0810: 03 80 00 3C 08 42 43 00  43 01 03 01 10 14 80 29  ...<.BC.C......)
0820: 01 F0 FF FF 7F 18 47 00  52 80 53 80 40 80 4C 80  ......G.R.S.@.L.
0830: 47 01 29 01 F0 FF FF 7F  19 01 47 08 02 00 10 14  G.).......G.....
0840: 80 00 47 08 01 47 08 20  00 21 00                 ..G..G. .!.     
```

#### Opcodes

```
  0: 0x07FF [0x20] SET_CLI_EVENT_UC_FLAG: Lock player control
  1: 0x0801 [0x48] [System] [7257*]:
    → "This device appears to be connected to the level above."
  2: 0x0804 [0x23] WAIT_FOR_DIALOG_INTERACTION
  3: 0x0805 [0x24] CREATE_DIALOG(message_id=7255*, default_option=1*, option_flags=0*)
    → "Use the device? [Yes./No.]"
  4: 0x080C [0x25] WAIT_DIALOG_SELECT()
  5: 0x080D [0x02] IF !(Work_Zone[0] == 0*) GOTO 0x083C
  6: 0x0815 [0x42] SET_CLI_EVENT_CANCEL_DATA()
  7: 0x0816 [0x43] SEND_EVENT_UPDATE: Send pending tag to server (packet 0x005B)
  8: 0x0818 [0x43] SEND_EVENT_UPDATE: Check pending flag (skip if not pending)
  9: 0x081A [0x03] Work_Zone[1] = 1*
 10: 0x081F [0x29] REQ_SET_WAIT(priority=0x01, entity_id=LocalPlayer, tag_num=0x18)
 11: 0x0826 [0x47] UPDATE_PLAYER_POS(-740.000*, 376.000*, -2.375*, yaw=270.0°*)
 12: 0x0830 [0x47] WAIT_PLAYER_POS_UPDATE
 13: 0x0832 [0x29] REQ_SET_WAIT(priority=0x01, entity_id=LocalPlayer, tag_num=0x19)
 14: 0x0839 [0x01] GOTO 0x0847
 15: 0x083C [0x02] IF !(Work_Zone[0] == 1*) GOTO 0x0847
 16: 0x0844 [0x01] GOTO 0x0847

SUBROUTINE_0847:
 17: 0x0847 [0x20] SET_CLI_EVENT_UC_FLAG: Unlock player control
 18: 0x0849 [0x21] END_EVENT
 19: 0x084A [0x00] END_REQSTACK()
```

### Event 160

#### Metadata

| Field        | Value    |
|--------------|----------|
| Entrypoint   | 0x084B   |
| Data Size    | 41 bytes |
| Instructions | 5        |

```
      00 01 02 03 04 05 06 07  08 09 0A 0B 0C 0D 0E 0F
      -- -- -- -- -- -- -- --  -- -- -- -- -- -- -- --
0840:                                   9F 54 80 F0 FF             .T...
0850: FF 7F F0 FF FF 7F 6D 61  69 6E 03 80 1C 55 80 45  ......main...U.E
0860: 06 80 F0 FF FF 7F F0 FF  FF 7F 66 64 6F 31 03 80  ..........fdo1..
0870: 1C 0F 80 00                                       ....            
```

#### Opcodes

```
  0: 0x084B [0x9F] LOAD_SCHEDULED_TASK_ALT: Load scheduler "main" with entities [LocalPlayer, LocalPlayer], work=[75*, 0*]
  1: 0x085C [0x1C] WAIT(140* ticks)
  2: 0x085F [0x45] LOAD_SCHEDULED_TASK: Load scheduler "fdo1" with entities [LocalPlayer, LocalPlayer], work=[200*, 0*]
  3: 0x0870 [0x1C] WAIT(60* ticks)
  4: 0x0873 [0x00] END_REQSTACK()
```

### Event 161

#### Metadata

| Field        | Value    |
|--------------|----------|
| Entrypoint   | 0x0874   |
| Data Size    | 38 bytes |
| Instructions | 4        |

```
      00 01 02 03 04 05 06 07  08 09 0A 0B 0C 0D 0E 0F
      -- -- -- -- -- -- -- --  -- -- -- -- -- -- -- --
0870:             45 06 80 F0  FF FF 7F F0 FF FF 7F 66      E..........f
0880: 64 69 31 03 80 9F 56 80  F0 FF FF 7F F0 FF FF 7F  di1...V.........
0890: 6D 61 69 6E 03 80 1C 57  80 00                    main...W..      
```

#### Opcodes

```
  0: 0x0874 [0x45] LOAD_SCHEDULED_TASK: Load scheduler "fdi1" with entities [LocalPlayer, LocalPlayer], work=[200*, 0*]
  1: 0x0885 [0x9F] LOAD_SCHEDULED_TASK_ALT: Load scheduler "main" with entities [LocalPlayer, LocalPlayer], work=[76*, 0*]
  2: 0x0896 [0x1C] WAIT(170* ticks)
  3: 0x0899 [0x00] END_REQSTACK()
```

### Event 65535.2

#### Metadata

| Field        | Value    |
|--------------|----------|
| Entrypoint   | 0x089A   |
| Data Size    | 10 bytes |
| Instructions | 2        |

```
      00 01 02 03 04 05 06 07  08 09 0A 0B 0C 0D 0E 0F
      -- -- -- -- -- -- -- --  -- -- -- -- -- -- -- --
0890:                                37 58 80 59 80 29            7X.Y.)
08A0: 80 00 80 00                                       ....            
```

#### Opcodes

```
  0: 0x089A [0x37] UPDATE_EVENT_POSITION_AND_DIR: x=-5.679*, z=-320.015*, y=0.499*, direction=1.7°*
  1: 0x08A3 [0x00] END_REQSTACK()
```

### Event 65535.3

#### Metadata

| Field        | Value    |
|--------------|----------|
| Entrypoint   | 0x08A4   |
| Data Size    | 15 bytes |
| Instructions | 5        |

```
      00 01 02 03 04 05 06 07  08 09 0A 0B 0C 0D 0E 0F
      -- -- -- -- -- -- -- --  -- -- -- -- -- -- -- --
08A0:             32 24 80 1F  00 5A 80 5B 80 29 80 1F      2$...Z.[.)..
08B0: 01 6F 00                                          .o.             
```

#### Opcodes

```
  0: 0x08A4 [0x32] ExtData[1]->MainSpeed = 13* * 0.1
  1: 0x08A7 [0x1F] MOVE_ENTITY: EventEntity moves to X=-3.724*, Z=-320.061*, Y=0.499*
  2: 0x08AF [0x1F] MOVE_ENTITY: Update entity position (mode=1)
  3: 0x08B1 [0x6F] WAIT_FRAME_DELAY: Yield until WaitTime reaches zero
  4: 0x08B2 [0x00] END_REQSTACK()
```

### Event 65535.4

#### Metadata

| Field        | Value    |
|--------------|----------|
| Entrypoint   | 0x08B3   |
| Data Size    | 10 bytes |
| Instructions | 2        |

```
      00 01 02 03 04 05 06 07  08 09 0A 0B 0C 0D 0E 0F
      -- -- -- -- -- -- -- --  -- -- -- -- -- -- -- --
08B0:          37 5C 80 5D 80  29 80 5E 80 00              7\.].).^..   
```

#### Opcodes

```
  0: 0x08B3 [0x37] UPDATE_EVENT_POSITION_AND_DIR: x=-4.964*, z=-320.692*, y=0.499*, direction=348.5°*
  1: 0x08BC [0x00] END_REQSTACK()
```

### Event 65535.5

#### Metadata

| Field        | Value    |
|--------------|----------|
| Entrypoint   | 0x08BD   |
| Data Size    | 10 bytes |
| Instructions | 2        |

```
      00 01 02 03 04 05 06 07  08 09 0A 0B 0C 0D 0E 0F
      -- -- -- -- -- -- -- --  -- -- -- -- -- -- -- --
08B0:                                         37 5F 80               7_.
08C0: 60 80 61 80 62 80 00                              `.a.b..         
```

#### Opcodes

```
  0: 0x08BD [0x37] UPDATE_EVENT_POSITION_AND_DIR: x=0.506*, z=-26.856*, y=2.499*, direction=276.7°*
  1: 0x08C6 [0x00] END_REQSTACK()
```

### Event 65535.6

#### Metadata

| Field        | Value    |
|--------------|----------|
| Entrypoint   | 0x08C7   |
| Data Size    | 15 bytes |
| Instructions | 5        |

```
      00 01 02 03 04 05 06 07  08 09 0A 0B 0C 0D 0E 0F
      -- -- -- -- -- -- -- --  -- -- -- -- -- -- -- --
08C0:                      32  63 80 1F 00 64 80 65 80         2c...d.e.
08D0: 61 80 1F 01 6F 00                                 a...o.          
```

#### Opcodes

```
  0: 0x08C7 [0x32] ExtData[1]->MainSpeed = 40* * 0.1
  1: 0x08CA [0x1F] MOVE_ENTITY: EventEntity moves to X=1.499*, Z=-17.411*, Y=2.499*
  2: 0x08D2 [0x1F] MOVE_ENTITY: Update entity position (mode=1)
  3: 0x08D4 [0x6F] WAIT_FRAME_DELAY: Yield until WaitTime reaches zero
  4: 0x08D5 [0x00] END_REQSTACK()
```

### Event 65535.7

#### Metadata

| Field        | Value    |
|--------------|----------|
| Entrypoint   | 0x08D6   |
| Data Size    | 10 bytes |
| Instructions | 2        |

```
      00 01 02 03 04 05 06 07  08 09 0A 0B 0C 0D 0E 0F
      -- -- -- -- -- -- -- --  -- -- -- -- -- -- -- --
08D0:                   37 66  80 67 80 68 80 69 80 00        7f.g.h.i..
```

#### Opcodes

```
  0: 0x08D6 [0x37] UPDATE_EVENT_POSITION_AND_DIR: x=4.955*, z=-4.148*, y=4.724*, direction=280.5°*
  1: 0x08DF [0x00] END_REQSTACK()
```

### Event 65535.8

#### Metadata

| Field        | Value    |
|--------------|----------|
| Entrypoint   | 0x08E0   |
| Data Size    | 10 bytes |
| Instructions | 2        |

```
      00 01 02 03 04 05 06 07  08 09 0A 0B 0C 0D 0E 0F
      -- -- -- -- -- -- -- --  -- -- -- -- -- -- -- --
08E0: 37 03 80 6A 80 00 80 6B  80 00                    7..j...k..      
```

#### Opcodes

```
  0: 0x08E0 [0x37] UPDATE_EVENT_POSITION_AND_DIR: x=0.000*, z=10.922*, y=0.019*, direction=89.3°*
  1: 0x08E9 [0x00] END_REQSTACK()
```

### Event 65535.9

#### Metadata

| Field        | Value    |
|--------------|----------|
| Entrypoint   | 0x08EA   |
| Data Size    | 10 bytes |
| Instructions | 2        |

```
      00 01 02 03 04 05 06 07  08 09 0A 0B 0C 0D 0E 0F
      -- -- -- -- -- -- -- --  -- -- -- -- -- -- -- --
08E0:                                37 6C 80 6D 80 03            7l.m..
08F0: 80 23 80 00                                       .#..            
```

#### Opcodes

```
  0: 0x08EA [0x37] UPDATE_EVENT_POSITION_AND_DIR: x=-20.045*, z=-285.567*, y=0.000*, direction=269.9°*
  1: 0x08F3 [0x00] END_REQSTACK()
```

### Event 65535.10

#### Metadata

| Field        | Value    |
|--------------|----------|
| Entrypoint   | 0x08F4   |
| Data Size    | 15 bytes |
| Instructions | 5        |

```
      00 01 02 03 04 05 06 07  08 09 0A 0B 0C 0D 0E 0F
      -- -- -- -- -- -- -- --  -- -- -- -- -- -- -- --
08F0:             32 24 80 1F  00 6E 80 6F 80 03 80 1F      2$...n.o....
0900: 01 6F 00                                          .o.             
```

#### Opcodes

```
  0: 0x08F4 [0x32] ExtData[1]->MainSpeed = 13* * 0.1
  1: 0x08F7 [0x1F] MOVE_ENTITY: EventEntity moves to X=-20.048*, Z=-284.653*, Y=0.000*
  2: 0x08FF [0x1F] MOVE_ENTITY: Update entity position (mode=1)
  3: 0x0901 [0x6F] WAIT_FRAME_DELAY: Yield until WaitTime reaches zero
  4: 0x0902 [0x00] END_REQSTACK()
```
