# Event 287

## Metadata

| Field           | Value    |
|-----------------|----------|
| Event Index     | 14/19    |
| Offset          | 0x00DC   |
| Data Size       | 33 bytes |
| Calculated Size | 33 bytes |
| Instructions    | 12       |

```
      00 01 02 03 04 05 06 07  08 09 0A 0B 0C 0D 0E 0F
      -- -- -- -- -- -- -- --  -- -- -- -- -- -- -- --
00D0:                                      1E F0 FF FF              ....
00E0: 7F 6F 70 29 08 1B E0 0E  01 01 1D 04 80 23 1D 05  .op).........#..
00F0: 80 23 29 08 1B E0 0E 01  02 20 00 21 00           .#)...... .!.   
```

## Opcodes

```
  0: 0x00DC [0x1E] EventEntity looks at LocalPlayer and starts talking
  1: 0x00E1 [0x6F] WAIT_FRAME_DELAY: Yield until WaitTime reaches zero
  2: 0x00E2 [0x70] WAIT_ENTITY_RENDER_FLAG: Wait while EventEntity->Render.Flags3 bit 2 is set (cancel turn if not)
  3: 0x00E3 [0x29] REQ_SET_WAIT(priority=0x08, entity_id=Churano-Shurano (ID: 17752091/0x010EE01B), tag_num=0x01)
  4: 0x00EA [0x1D] PRINT_EVENT_MESSAGE(message_id=7976*)
    → "Just getting you hands on a crystal lens is hard enough, not to mention the other thingy-wingys you need.\u007F1\u0000\u0007"
  5: 0x00ED [0x23] WAIT_FOR_DIALOG_INTERACTION
  6: 0x00EE [0x1D] PRINT_EVENT_MESSAGE(message_id=7977*)
    → "I bet our ancestors who made these telescopes didn't think they'd be in use hundreds of years later. Nor that their old worthless currency would be so valuable to us now.\u007F1\u0000\u0007"
  7: 0x00F1 [0x23] WAIT_FOR_DIALOG_INTERACTION
  8: 0x00F2 [0x29] REQ_SET_WAIT(priority=0x08, entity_id=Churano-Shurano (ID: 17752091/0x010EE01B), tag_num=0x02)
  9: 0x00F9 [0x20] SET_CLI_EVENT_UC_FLAG: Unlock player control
 10: 0x00FB [0x21] END_EVENT
 11: 0x00FC [0x00] END_REQSTACK()
```
