# Event 295

## Metadata

| Field           | Value    |
|-----------------|----------|
| Event Index     | 16/19    |
| Offset          | 0x011E   |
| Data Size       | 33 bytes |
| Calculated Size | 33 bytes |
| Instructions    | 12       |

```
      00 01 02 03 04 05 06 07  08 09 0A 0B 0C 0D 0E 0F
      -- -- -- -- -- -- -- --  -- -- -- -- -- -- -- --
0110:                                            1E F0                ..
0120: FF FF 7F 6F 70 29 08 1B  E0 0E 01 01 1D 08 80 23  ...op).........#
0130: 1D 09 80 23 29 08 1B E0  0E 01 02 20 00 21 00     ...#)...... .!. 
```

## Opcodes

```
  0: 0x011E [0x1E] EventEntity looks at LocalPlayer and starts talking
  1: 0x0123 [0x6F] WAIT_FRAME_DELAY: Yield until WaitTime reaches zero
  2: 0x0124 [0x70] WAIT_ENTITY_RENDER_FLAG: Wait while EventEntity->Render.Flags3 bit 2 is set (cancel turn if not)
  3: 0x0125 [0x29] REQ_SET_WAIT(priority=0x08, entity_id=Churano-Shurano (ID: 17752091/0x010EE01B), tag_num=0x01)
  4: 0x012C [0x1D] PRINT_EVENT_MESSAGE(message_id=7998*)
    → "When you gaze at the night skies, you note stars of all different colors, right? Placed together, those stars form the constellations of the gods.\u007F1\u0000\u0007"
  5: 0x012F [0x23] WAIT_FOR_DIALOG_INTERACTION
  6: 0x0130 [0x1D] PRINT_EVENT_MESSAGE(message_id=7999*)
    → "The aqua-colored stars in the east sky that form the constellation of Shiva are so alluring... We astronomers like those stars the best.\u007F1\u0000\u0007"
  7: 0x0133 [0x23] WAIT_FOR_DIALOG_INTERACTION
  8: 0x0134 [0x29] REQ_SET_WAIT(priority=0x08, entity_id=Churano-Shurano (ID: 17752091/0x010EE01B), tag_num=0x02)
  9: 0x013B [0x20] SET_CLI_EVENT_UC_FLAG: Unlock player control
 10: 0x013D [0x21] END_EVENT
 11: 0x013E [0x00] END_REQSTACK()
```
