# Event 299

## Metadata

| Field           | Value    |
|-----------------|----------|
| Event Index     | 17/19    |
| Offset          | 0x013F   |
| Data Size       | 33 bytes |
| Calculated Size | 33 bytes |
| Instructions    | 12       |

```
      00 01 02 03 04 05 06 07  08 09 0A 0B 0C 0D 0E 0F
      -- -- -- -- -- -- -- --  -- -- -- -- -- -- -- --
0130:                                               1E                 .
0140: F0 FF FF 7F 6F 70 29 08  1B E0 0E 01 01 1D 0A 80  ....op).........
0150: 23 1D 0B 80 23 29 08 1B  E0 0E 01 02 20 00 21 00  #...#)...... .!.
```

## Opcodes

```
  0: 0x013F [0x1E] EventEntity looks at LocalPlayer and starts talking
  1: 0x0144 [0x6F] WAIT_FRAME_DELAY: Yield until WaitTime reaches zero
  2: 0x0145 [0x70] WAIT_ENTITY_RENDER_FLAG: Wait while EventEntity->Render.Flags3 bit 2 is set (cancel turn if not)
  3: 0x0146 [0x29] REQ_SET_WAIT(priority=0x08, entity_id=Churano-Shurano (ID: 17752091/0x010EE01B), tag_num=0x01)
  4: 0x014D [0x1D] PRINT_EVENT_MESSAGE(message_id=8007*)
    → "Alexander shines bright and white in the northeastern sky. Titan's in the south and Leviathan's in the west.\u007F1\u0000\u0007"
  5: 0x0150 [0x23] WAIT_FOR_DIALOG_INTERACTION
  6: 0x0151 [0x1D] PRINT_EVENT_MESSAGE(message_id=8008*)
    → "See him spread his imaginary wings there? Connect the stars together and you can make lots of shapes...\u0007Look! There's the great Onion in the sky!\u0001t\u007F1\u0000\u0007"
  7: 0x0154 [0x23] WAIT_FOR_DIALOG_INTERACTION
  8: 0x0155 [0x29] REQ_SET_WAIT(priority=0x08, entity_id=Churano-Shurano (ID: 17752091/0x010EE01B), tag_num=0x02)
  9: 0x015C [0x20] SET_CLI_EVENT_UC_FLAG: Unlock player control
 10: 0x015E [0x21] END_EVENT
 11: 0x015F [0x00] END_REQSTACK()
```
