# 17150799 - Abenzio

## Common Data

| Field            | Value                          |
|------------------|--------------------------------|
| Zone             | Rolanberry Fields [S] (ID: 91) |
| Block Size       | 168 bytes                      |
| Total Events     | 7                              |
| References Count | 7                              |

## List of Events

| Event ID                 | Entrypoint   |   Size |   Instructions |
|--------------------------|--------------|--------|----------------|
| [65535](#event-65535)    | 0x0000       |      1 |              1 |
| [5](#event-5)            | 0x0001       |      1 |              1 |
| [65535.1](#event-655351) | 0x0002       |     29 |              3 |
| [65535.2](#event-655352) | 0x001F       |     14 |              4 |
| [65535.3](#event-655353) | 0x002D       |     16 |              4 |
| [65535.4](#event-655354) | 0x003D       |     19 |              5 |
| [65535.5](#event-655355) | 0x0050       |     14 |              4 |

## DAT References (imed_data)

|   Index | Hex Value   |   Dec Value |
|---------|-------------|-------------|
|       0 | 0x086E      |        2158 |
|       1 | 0x09C4      |        2500 |
|       2 | 0x001E      |          30 |
|       3 | 0x0006      |           6 |
|       4 | 0x2092E     |      133422 |
|       5 | 0xFFF9ED22  |  4294569250 |
|       6 | 0x6083      |       24707 |

## Events

### Event 65535

#### Metadata

| Field        | Value   |
|--------------|---------|
| Entrypoint   | 0x0000  |
| Data Size    | 1 bytes |
| Instructions | 1       |

```
      00 01 02 03 04 05 06 07  08 09 0A 0B 0C 0D 0E 0F
      -- -- -- -- -- -- -- --  -- -- -- -- -- -- -- --
0000: 00                                                .               
```

#### Opcodes

```
  0: 0x0000 [0x00] END_REQSTACK()
```

### Event 5

#### Metadata

| Field        | Value   |
|--------------|---------|
| Entrypoint   | 0x0001  |
| Data Size    | 1 bytes |
| Instructions | 1       |

```
      00 01 02 03 04 05 06 07  08 09 0A 0B 0C 0D 0E 0F
      -- -- -- -- -- -- -- --  -- -- -- -- -- -- -- --
0000:    00                                              .              
```

#### Opcodes

```
  0: 0x0001 [0x00] END_REQSTACK()
```

### Event 65535.1

#### Metadata

| Field        | Value    |
|--------------|----------|
| Entrypoint   | 0x0002   |
| Data Size    | 29 bytes |
| Instructions | 3        |

```
      00 01 02 03 04 05 06 07  08 09 0A 0B 0C 0D 0E 0F
      -- -- -- -- -- -- -- --  -- -- -- -- -- -- -- --
0000:       5B 00 80 4F B3 05  01 4F B3 05 01 73 61 69    [..O...O...sai
0010: 32 53 4F B3 05 01 4F B3  05 01 73 61 69 32 00     2SO...O...sai2. 
```

#### Opcodes

```
  0: 0x0002 [0x5B] LOAD_EXT_SCHEDULER: Load scheduler "sai2" with entities [Abenzio (ID: 17150799/0x0105B34F), Abenzio (ID: 17150799/0x0105B34F)], work=2158*
  1: 0x0011 [0x53] WAIT_SCHEDULER_TASK: Wait for scheduler "sai2" with entities [Abenzio (ID: 17150799/0x0105B34F), Abenzio (ID: 17150799/0x0105B34F)]
  2: 0x001E [0x00] END_REQSTACK()
```

### Event 65535.2

#### Metadata

| Field        | Value    |
|--------------|----------|
| Entrypoint   | 0x001F   |
| Data Size    | 14 bytes |
| Instructions | 4        |

```
      00 01 02 03 04 05 06 07  08 09 0A 0B 0C 0D 0E 0F
      -- -- -- -- -- -- -- --  -- -- -- -- -- -- -- --
0010:                                               4B                 K
0020: F8 FF FF 7F 01 80 6F 76  F8 FF FF 7F 00           ......ov.....   
```

#### Opcodes

```
  0: 0x001F [0x4B] UPDATE_ENTITY_YAW(entity=EventEntity, yaw=13.7°*)
  1: 0x0026 [0x6F] WAIT_FRAME_DELAY: Yield until WaitTime reaches zero
  2: 0x0027 [0x76] CHECK_ENTITY_RENDER_FLAGS: Wait until EventEntity Render.Flags0 and Render.Flags3 conditions are met
  3: 0x002C [0x00] END_REQSTACK()
```

### Event 65535.3

#### Metadata

| Field        | Value    |
|--------------|----------|
| Entrypoint   | 0x002D   |
| Data Size    | 16 bytes |
| Instructions | 4        |

```
      00 01 02 03 04 05 06 07  08 09 0A 0B 0C 0D 0E 0F
      -- -- -- -- -- -- -- --  -- -- -- -- -- -- -- --
0020:                                         4A F8 FF               J..
0030: FF 7F 51 B3 05 01 6F 76  F8 FF FF 7F 00           ..Q...ov.....   
```

#### Opcodes

```
  0: 0x002D [0x4A] EventEntity looks at Camlin (ID: 17150801/0x0105B351)
  1: 0x0036 [0x6F] WAIT_FRAME_DELAY: Yield until WaitTime reaches zero
  2: 0x0037 [0x76] CHECK_ENTITY_RENDER_FLAGS: Wait until EventEntity Render.Flags0 and Render.Flags3 conditions are met
  3: 0x003C [0x00] END_REQSTACK()
```

### Event 65535.4

#### Metadata

| Field        | Value    |
|--------------|----------|
| Entrypoint   | 0x003D   |
| Data Size    | 19 bytes |
| Instructions | 5        |

```
      00 01 02 03 04 05 06 07  08 09 0A 0B 0C 0D 0E 0F
      -- -- -- -- -- -- -- --  -- -- -- -- -- -- -- --
0030:                                         1C 02 80               ...
0040: 4A F8 FF FF 7F 4E B3 05  01 6F 76 F8 FF FF 7F 00  J....N...ov.....
```

#### Opcodes

```
  0: 0x003D [0x1C] WAIT(30* ticks)
  1: 0x0040 [0x4A] EventEntity looks at Babban Ny Mheillea (ID: 17150798/0x0105B34E)
  2: 0x0049 [0x6F] WAIT_FRAME_DELAY: Yield until WaitTime reaches zero
  3: 0x004A [0x76] CHECK_ENTITY_RENDER_FLAGS: Wait until EventEntity Render.Flags0 and Render.Flags3 conditions are met
  4: 0x004F [0x00] END_REQSTACK()
```

### Event 65535.5

#### Metadata

| Field        | Value    |
|--------------|----------|
| Entrypoint   | 0x0050   |
| Data Size    | 14 bytes |
| Instructions | 4        |

```
      00 01 02 03 04 05 06 07  08 09 0A 0B 0C 0D 0E 0F
      -- -- -- -- -- -- -- --  -- -- -- -- -- -- -- --
0050: 32 03 80 1F 00 04 80 05  80 06 80 1F 01 00        2.............  
```

#### Opcodes

```
  0: 0x0050 [0x32] ExtData[1]->MainSpeed = 6* * 0.1
  1: 0x0053 [0x1F] MOVE_ENTITY: EventEntity moves to X=133.422*, Z=-398.046*, Y=24.707*
  2: 0x005B [0x1F] MOVE_ENTITY: Update entity position (mode=1)
  3: 0x005D [0x00] END_REQSTACK()
```
