# 17150758 - Alystair

## Common Data

| Field            | Value                          |
|------------------|--------------------------------|
| Zone             | Rolanberry Fields [S] (ID: 91) |
| Block Size       | 1008 bytes                     |
| Total Events     | 37                             |
| References Count | 81                             |

## List of Events

| Event ID                   | Entrypoint   |   Size |   Instructions |
|----------------------------|--------------|--------|----------------|
| [65535](#event-65535)      | 0x0000       |      1 |              1 |
| [65535.1](#event-655351)   | 0x0001       |      1 |              1 |
| [65535.2](#event-655352)   | 0x0002       |     18 |              4 |
| [65535.3](#event-655353)   | 0x0014       |     10 |              2 |
| [65535.4](#event-655354)   | 0x001E       |      9 |              3 |
| [65535.5](#event-655355)   | 0x0027       |      9 |              3 |
| [65535.6](#event-655356)   | 0x0030       |     10 |              2 |
| [65535.7](#event-655357)   | 0x003A       |     10 |              2 |
| [700](#event-700)          | 0x0044       |      1 |              1 |
| [65535.8](#event-655358)   | 0x0045       |     25 |              3 |
| [65535.9](#event-655359)   | 0x005E       |      7 |              2 |
| [65535.10](#event-6553510) | 0x0065       |     18 |              6 |
| [65535.11](#event-6553511) | 0x0077       |     18 |              6 |
| [65535.12](#event-6553512) | 0x0089       |     15 |              5 |
| [65535.13](#event-6553513) | 0x0098       |     18 |              6 |
| [65535.14](#event-6553514) | 0x00AA       |     23 |              7 |
| [65535.15](#event-6553515) | 0x00C1       |     18 |              6 |
| [65535.16](#event-6553516) | 0x00D3       |     18 |              6 |
| [65535.17](#event-6553517) | 0x00E5       |     18 |              6 |
| [65535.18](#event-6553518) | 0x00F7       |     15 |              5 |
| [65535.19](#event-6553519) | 0x0106       |     18 |              6 |
| [65535.20](#event-6553520) | 0x0118       |     23 |              7 |
| [65535.21](#event-6553521) | 0x012F       |     18 |              6 |
| [65535.22](#event-6553522) | 0x0141       |     18 |              6 |
| [65535.23](#event-6553523) | 0x0153       |     18 |              6 |
| [65535.24](#event-6553524) | 0x0165       |     15 |              5 |
| [65535.25](#event-6553525) | 0x0174       |     18 |              6 |
| [65535.26](#event-6553526) | 0x0186       |     23 |              7 |
| [65535.27](#event-6553527) | 0x019D       |     18 |              6 |
| [65535.28](#event-6553528) | 0x01AF       |      1 |              1 |
| [65535.29](#event-6553529) | 0x01B0       |     24 |              6 |
| [65535.30](#event-6553530) | 0x01C8       |      1 |              1 |
| [65535.31](#event-6553531) | 0x01C9       |     19 |              5 |
| [65535.32](#event-6553532) | 0x01DC       |     13 |              3 |
| [65535.33](#event-6553533) | 0x01E9       |      1 |              1 |
| [65535.34](#event-6553534) | 0x01EA       |     14 |              4 |
| [65535.35](#event-6553535) | 0x01F8       |     14 |              4 |

## DAT References (imed_data)

|   Index | Hex Value   |   Dec Value |
|---------|-------------|-------------|
|       0 | 0x0000      |           0 |
|       1 | 0x0001      |           1 |
|       2 | 0x0080      |         128 |
|       3 | 0x000F      |          15 |
|       4 | 0x0050      |          80 |
|       5 | 0xFFFF5BDF  |  4294925279 |
|       6 | 0x630C7     |      405703 |
|       7 | 0x0053      |          83 |
|       8 | 0x000A      |          10 |
|       9 | 0x0018      |          24 |
|      10 | 0xFFFF5DCA  |  4294925770 |
|      11 | 0x65D73     |      417139 |
|      12 | 0x0358      |         856 |
|      13 | 0x000C      |          12 |
|      14 | 0xFFFF5DFB  |  4294925819 |
|      15 | 0x665C4     |      419268 |
|      16 | 0x03C2      |         962 |
|      17 | 0x001E      |          30 |
|      18 | 0x0028      |          40 |
|      19 | 0xFFFF4763  |  4294920035 |
|      20 | 0x6A579     |      435577 |
|      21 | 0x00B5      |         181 |
|      22 | 0x002D      |          45 |
|      23 | 0xFFFF47A5  |  4294920101 |
|      24 | 0x69589     |      431497 |
|      25 | 0xFFFFFFA5  |  4294967205 |
|      26 | 0xFFFF5BB2  |  4294925234 |
|      27 | 0x6807C     |      426108 |
|      28 | 0x0249      |         585 |
|      29 | 0xFFFD4777  |  4294788983 |
|      30 | 0x56C00     |      355328 |
|      31 | 0x21AF      |        8623 |
|      32 | 0xFFFD2643  |  4294780483 |
|      33 | 0x56C5A     |      355418 |
|      34 | 0x2045      |        8261 |
|      35 | 0xFFFD1DF5  |  4294778357 |
|      36 | 0x56C9E     |      355486 |
|      37 | 0x1FD6      |        8150 |
|      38 | 0xFFFCF5CA  |  4294768074 |
|      39 | 0x57E99     |      360089 |
|      40 | 0x1F3F      |        7999 |
|      41 | 0xFFFD10E2  |  4294775010 |
|      42 | 0x57A9E     |      359070 |
|      43 | 0x1FF8      |        8184 |
|      44 | 0xFFFD1CA4  |  4294778020 |
|      45 | 0x5708D     |      356493 |
|      46 | 0x208D      |        8333 |
|      47 | 0x6243E     |      402494 |
|      48 | 0xFFFCBDDD  |  4294753757 |
|      49 | 0x41D8      |       16856 |
|      50 | 0x607D0     |      395216 |
|      51 | 0xFFFCAFDC  |  4294750172 |
|      52 | 0x4187      |       16775 |
|      53 | 0x6021B     |      393755 |
|      54 | 0xFFFCAD7D  |  4294749565 |
|      55 | 0x412B      |       16683 |
|      56 | 0x5E9A7     |      387495 |
|      57 | 0xFFFCC08A  |  4294754442 |
|      58 | 0x3F33      |       16179 |
|      59 | 0x5F5B6     |      390582 |
|      60 | 0xFFFCAFC4  |  4294750148 |
|      61 | 0x400F      |       16399 |
|      62 | 0x6068C     |      394892 |
|      63 | 0xFFFCB4AB  |  4294751403 |
|      64 | 0x4148      |       16712 |
|      65 | 0x000D      |          13 |
|      66 | 0x64DD      |       25821 |
|      67 | 0xFA23      |       64035 |
|      68 | 0x07CB      |        1995 |
|      69 | 0x73A4      |       29604 |
|      70 | 0xFA1D      |       64029 |
|      71 | 0x07C7      |        1991 |
|      72 | 0xFFFFC3E6  |  4294951910 |
|      73 | 0xFFFFE466  |  4294960230 |
|      74 | 0x0BB7      |        2999 |
|      75 | 0x002B      |          43 |
|      76 | 0xFFFF2815  |  4294912021 |
|      77 | 0xFFFEC156  |  4294885718 |
|      78 | 0x176F      |        5999 |
|      79 | 0xFFFEEEF4  |  4294897396 |
|      80 | 0xFFFE62B0  |  4294861488 |

## Events

### Event 65535

#### Metadata

| Field        | Value   |
|--------------|---------|
| Entrypoint   | 0x0000  |
| Data Size    | 1 bytes |
| Instructions | 1       |

```
      00 01 02 03 04 05 06 07  08 09 0A 0B 0C 0D 0E 0F
      -- -- -- -- -- -- -- --  -- -- -- -- -- -- -- --
0000: 00                                                .               
```

#### Opcodes

```
  0: 0x0000 [0x00] END_REQSTACK()
```

### Event 65535.1

#### Metadata

| Field        | Value   |
|--------------|---------|
| Entrypoint   | 0x0001  |
| Data Size    | 1 bytes |
| Instructions | 1       |

```
      00 01 02 03 04 05 06 07  08 09 0A 0B 0C 0D 0E 0F
      -- -- -- -- -- -- -- --  -- -- -- -- -- -- -- --
0000:    00                                              .              
```

#### Opcodes

```
  0: 0x0001 [0x00] END_REQSTACK()
```

### Event 65535.2

#### Metadata

| Field        | Value    |
|--------------|----------|
| Entrypoint   | 0x0002   |
| Data Size    | 18 bytes |
| Instructions | 4        |

```
      00 01 02 03 04 05 06 07  08 09 0A 0B 0C 0D 0E 0F
      -- -- -- -- -- -- -- --  -- -- -- -- -- -- -- --
0000:       22 00 2F 00 F8 FF  FF 7F 6C F8 FF FF 7F 00    "./.....l.....
0010: 80 01 80 00                                       ....            
```

#### Opcodes

```
  0: 0x0002 [0x22] ENTITY_HIDE_FLAG(enabled=0x00)
  1: 0x0004 [0x2F] EventEntity->Render.Flags0 &= ~0x80000 // Bit 19
  2: 0x000A [0x6C] FADE_ENTITY_COLOR(entity_id=EventEntity, end_alpha=0*, fade_time=1*)
  3: 0x0013 [0x00] END_REQSTACK()
```

### Event 65535.3

#### Metadata

| Field        | Value    |
|--------------|----------|
| Entrypoint   | 0x0014   |
| Data Size    | 10 bytes |
| Instructions | 2        |

```
      00 01 02 03 04 05 06 07  08 09 0A 0B 0C 0D 0E 0F
      -- -- -- -- -- -- -- --  -- -- -- -- -- -- -- --
0010:             6C F8 FF FF  7F 02 80 01 80 00            l.........  
```

#### Opcodes

```
  0: 0x0014 [0x6C] FADE_ENTITY_COLOR(entity_id=EventEntity, end_alpha=128*, fade_time=1*)
  1: 0x001D [0x00] END_REQSTACK()
```

### Event 65535.4

#### Metadata

| Field        | Value   |
|--------------|---------|
| Entrypoint   | 0x001E  |
| Data Size    | 9 bytes |
| Instructions | 3       |

```
      00 01 02 03 04 05 06 07  08 09 0A 0B 0C 0D 0E 0F
      -- -- -- -- -- -- -- --  -- -- -- -- -- -- -- --
0010:                                            22 00                ".
0020: 2F 00 F8 FF FF 7F 00                              /......         
```

#### Opcodes

```
  0: 0x001E [0x22] ENTITY_HIDE_FLAG(enabled=0x00)
  1: 0x0020 [0x2F] EventEntity->Render.Flags0 &= ~0x80000 // Bit 19
  2: 0x0026 [0x00] END_REQSTACK()
```

### Event 65535.5

#### Metadata

| Field        | Value   |
|--------------|---------|
| Entrypoint   | 0x0027  |
| Data Size    | 9 bytes |
| Instructions | 3       |

```
      00 01 02 03 04 05 06 07  08 09 0A 0B 0C 0D 0E 0F
      -- -- -- -- -- -- -- --  -- -- -- -- -- -- -- --
0020:                      22  01 2F 01 F8 FF FF 7F 00         "./......
```

#### Opcodes

```
  0: 0x0027 [0x22] ENTITY_HIDE_FLAG(enabled=0x01)
  1: 0x0029 [0x2F] EventEntity->Render.Flags0 |= 0x80000 // Bit 19
  2: 0x002F [0x00] END_REQSTACK()
```

### Event 65535.6

#### Metadata

| Field        | Value    |
|--------------|----------|
| Entrypoint   | 0x0030   |
| Data Size    | 10 bytes |
| Instructions | 2        |

```
      00 01 02 03 04 05 06 07  08 09 0A 0B 0C 0D 0E 0F
      -- -- -- -- -- -- -- --  -- -- -- -- -- -- -- --
0030: 6C F8 FF FF 7F 00 80 01  80 00                    l.........      
```

#### Opcodes

```
  0: 0x0030 [0x6C] FADE_ENTITY_COLOR(entity_id=EventEntity, end_alpha=0*, fade_time=1*)
  1: 0x0039 [0x00] END_REQSTACK()
```

### Event 65535.7

#### Metadata

| Field        | Value    |
|--------------|----------|
| Entrypoint   | 0x003A   |
| Data Size    | 10 bytes |
| Instructions | 2        |

```
      00 01 02 03 04 05 06 07  08 09 0A 0B 0C 0D 0E 0F
      -- -- -- -- -- -- -- --  -- -- -- -- -- -- -- --
0030:                                6C F8 FF FF 7F 02            l.....
0040: 80 01 80 00                                       ....            
```

#### Opcodes

```
  0: 0x003A [0x6C] FADE_ENTITY_COLOR(entity_id=EventEntity, end_alpha=128*, fade_time=1*)
  1: 0x0043 [0x00] END_REQSTACK()
```

### Event 700

#### Metadata

| Field        | Value   |
|--------------|---------|
| Entrypoint   | 0x0044  |
| Data Size    | 1 bytes |
| Instructions | 1       |

```
      00 01 02 03 04 05 06 07  08 09 0A 0B 0C 0D 0E 0F
      -- -- -- -- -- -- -- --  -- -- -- -- -- -- -- --
0040:             00                                        .           
```

#### Opcodes

```
  0: 0x0044 [0x00] END_REQSTACK()
```

### Event 65535.8

#### Metadata

| Field        | Value    |
|--------------|----------|
| Entrypoint   | 0x0045   |
| Data Size    | 25 bytes |
| Instructions | 3        |

```
      00 01 02 03 04 05 06 07  08 09 0A 0B 0C 0D 0E 0F
      -- -- -- -- -- -- -- --  -- -- -- -- -- -- -- --
0040:                7E 06 F8  FF FF 7F 00 80 00 80 00       ~..........
0050: 80 01 80 00 80 01 80 7E  04 F8 FF FF 7F 00        .......~......  
```

#### Opcodes

```
  0: 0x0045 [0x7E] CHOCOBO_MOUNT: Mode 6 (custom mount) on EventEntity
  1: 0x0057 [0x7E] CHOCOBO_MOUNT: Mode 4 on EventEntity
  2: 0x005D [0x00] END_REQSTACK()
```

### Event 65535.9

#### Metadata

| Field        | Value   |
|--------------|---------|
| Entrypoint   | 0x005E  |
| Data Size    | 7 bytes |
| Instructions | 2       |

```
      00 01 02 03 04 05 06 07  08 09 0A 0B 0C 0D 0E 0F
      -- -- -- -- -- -- -- --  -- -- -- -- -- -- -- --
0050:                                            7E 05                ~.
0060: F8 FF FF 7F 00                                    .....           
```

#### Opcodes

```
  0: 0x005E [0x7E] CHOCOBO_MOUNT: Dismount EventEntity (status = 0)
  1: 0x0064 [0x00] END_REQSTACK()
```

### Event 65535.10

#### Metadata

| Field        | Value    |
|--------------|----------|
| Entrypoint   | 0x0065   |
| Data Size    | 18 bytes |
| Instructions | 6        |

```
      00 01 02 03 04 05 06 07  08 09 0A 0B 0C 0D 0E 0F
      -- -- -- -- -- -- -- --  -- -- -- -- -- -- -- --
0060:                1C 03 80  32 04 80 1F 00 05 80 06       ...2.......
0070: 80 07 80 1F 01 6F 00                              .....o.         
```

#### Opcodes

```
  0: 0x0065 [0x1C] WAIT(15* ticks)
  1: 0x0068 [0x32] ExtData[1]->MainSpeed = 80* * 0.1
  2: 0x006B [0x1F] MOVE_ENTITY: EventEntity moves to X=-42.017*, Z=405.703*, Y=0.083*
  3: 0x0073 [0x1F] MOVE_ENTITY: Update entity position (mode=1)
  4: 0x0075 [0x6F] WAIT_FRAME_DELAY: Yield until WaitTime reaches zero
  5: 0x0076 [0x00] END_REQSTACK()
```

### Event 65535.11

#### Metadata

| Field        | Value    |
|--------------|----------|
| Entrypoint   | 0x0077   |
| Data Size    | 18 bytes |
| Instructions | 6        |

```
      00 01 02 03 04 05 06 07  08 09 0A 0B 0C 0D 0E 0F
      -- -- -- -- -- -- -- --  -- -- -- -- -- -- -- --
0070:                      1C  08 80 32 09 80 1F 00 0A         ...2.....
0080: 80 0B 80 0C 80 1F 01 6F  00                       .......o.       
```

#### Opcodes

```
  0: 0x0077 [0x1C] WAIT(10* ticks)
  1: 0x007A [0x32] ExtData[1]->MainSpeed = 24* * 0.1
  2: 0x007D [0x1F] MOVE_ENTITY: EventEntity moves to X=-41.526*, Z=417.139*, Y=0.856*
  3: 0x0085 [0x1F] MOVE_ENTITY: Update entity position (mode=1)
  4: 0x0087 [0x6F] WAIT_FRAME_DELAY: Yield until WaitTime reaches zero
  5: 0x0088 [0x00] END_REQSTACK()
```

### Event 65535.12

#### Metadata

| Field        | Value    |
|--------------|----------|
| Entrypoint   | 0x0089   |
| Data Size    | 15 bytes |
| Instructions | 5        |

```
      00 01 02 03 04 05 06 07  08 09 0A 0B 0C 0D 0E 0F
      -- -- -- -- -- -- -- --  -- -- -- -- -- -- -- --
0080:                             32 0D 80 1F 00 0E 80           2......
0090: 0F 80 10 80 1F 01 6F 00                           ......o.        
```

#### Opcodes

```
  0: 0x0089 [0x32] ExtData[1]->MainSpeed = 12* * 0.1
  1: 0x008C [0x1F] MOVE_ENTITY: EventEntity moves to X=-41.477*, Z=419.268*, Y=0.962*
  2: 0x0094 [0x1F] MOVE_ENTITY: Update entity position (mode=1)
  3: 0x0096 [0x6F] WAIT_FRAME_DELAY: Yield until WaitTime reaches zero
  4: 0x0097 [0x00] END_REQSTACK()
```

### Event 65535.13

#### Metadata

| Field        | Value    |
|--------------|----------|
| Entrypoint   | 0x0098   |
| Data Size    | 18 bytes |
| Instructions | 6        |

```
      00 01 02 03 04 05 06 07  08 09 0A 0B 0C 0D 0E 0F
      -- -- -- -- -- -- -- --  -- -- -- -- -- -- -- --
0090:                          1C 11 80 32 12 80 1F 00          ...2....
00A0: 13 80 14 80 15 80 1F 01  6F 00                    ........o.      
```

#### Opcodes

```
  0: 0x0098 [0x1C] WAIT(30* ticks)
  1: 0x009B [0x32] ExtData[1]->MainSpeed = 40* * 0.1
  2: 0x009E [0x1F] MOVE_ENTITY: EventEntity moves to X=-47.261*, Z=435.577*, Y=0.181*
  3: 0x00A6 [0x1F] MOVE_ENTITY: Update entity position (mode=1)
  4: 0x00A8 [0x6F] WAIT_FRAME_DELAY: Yield until WaitTime reaches zero
  5: 0x00A9 [0x00] END_REQSTACK()
```

### Event 65535.14

#### Metadata

| Field        | Value    |
|--------------|----------|
| Entrypoint   | 0x00AA   |
| Data Size    | 23 bytes |
| Instructions | 7        |

```
      00 01 02 03 04 05 06 07  08 09 0A 0B 0C 0D 0E 0F
      -- -- -- -- -- -- -- --  -- -- -- -- -- -- -- --
00A0:                                1C 16 80 32 08 80            ...2..
00B0: 1F 00 17 80 18 80 19 80  1F 01 6F 1E 24 B3 05 01  ..........o.$...
00C0: 00                                                .               
```

#### Opcodes

```
  0: 0x00AA [0x1C] WAIT(45* ticks)
  1: 0x00AD [0x32] ExtData[1]->MainSpeed = 10* * 0.1
  2: 0x00B0 [0x1F] MOVE_ENTITY: EventEntity moves to X=-47.195*, Z=431.497*, Y=-0.091*
  3: 0x00B8 [0x1F] MOVE_ENTITY: Update entity position (mode=1)
  4: 0x00BA [0x6F] WAIT_FRAME_DELAY: Yield until WaitTime reaches zero
  5: 0x00BB [0x1E] EventEntity looks at Lysander (ID: 17150756/0x0105B324) and starts talking
  6: 0x00C0 [0x00] END_REQSTACK()
```

### Event 65535.15

#### Metadata

| Field        | Value    |
|--------------|----------|
| Entrypoint   | 0x00C1   |
| Data Size    | 18 bytes |
| Instructions | 6        |

```
      00 01 02 03 04 05 06 07  08 09 0A 0B 0C 0D 0E 0F
      -- -- -- -- -- -- -- --  -- -- -- -- -- -- -- --
00C0:    1C 03 80 32 08 80 1F  00 1A 80 1B 80 1C 80 1F   ...2...........
00D0: 01 6F 00                                          .o.             
```

#### Opcodes

```
  0: 0x00C1 [0x1C] WAIT(15* ticks)
  1: 0x00C4 [0x32] ExtData[1]->MainSpeed = 10* * 0.1
  2: 0x00C7 [0x1F] MOVE_ENTITY: EventEntity moves to X=-42.062*, Z=426.108*, Y=0.585*
  3: 0x00CF [0x1F] MOVE_ENTITY: Update entity position (mode=1)
  4: 0x00D1 [0x6F] WAIT_FRAME_DELAY: Yield until WaitTime reaches zero
  5: 0x00D2 [0x00] END_REQSTACK()
```

### Event 65535.16

#### Metadata

| Field        | Value    |
|--------------|----------|
| Entrypoint   | 0x00D3   |
| Data Size    | 18 bytes |
| Instructions | 6        |

```
      00 01 02 03 04 05 06 07  08 09 0A 0B 0C 0D 0E 0F
      -- -- -- -- -- -- -- --  -- -- -- -- -- -- -- --
00D0:          1C 03 80 32 04  80 1F 00 1D 80 1E 80 1F     ...2.........
00E0: 80 1F 01 6F 00                                    ...o.           
```

#### Opcodes

```
  0: 0x00D3 [0x1C] WAIT(15* ticks)
  1: 0x00D6 [0x32] ExtData[1]->MainSpeed = 80* * 0.1
  2: 0x00D9 [0x1F] MOVE_ENTITY: EventEntity moves to X=-178.313*, Z=355.328*, Y=8.623*
  3: 0x00E1 [0x1F] MOVE_ENTITY: Update entity position (mode=1)
  4: 0x00E3 [0x6F] WAIT_FRAME_DELAY: Yield until WaitTime reaches zero
  5: 0x00E4 [0x00] END_REQSTACK()
```

### Event 65535.17

#### Metadata

| Field        | Value    |
|--------------|----------|
| Entrypoint   | 0x00E5   |
| Data Size    | 18 bytes |
| Instructions | 6        |

```
      00 01 02 03 04 05 06 07  08 09 0A 0B 0C 0D 0E 0F
      -- -- -- -- -- -- -- --  -- -- -- -- -- -- -- --
00E0:                1C 08 80  32 09 80 1F 00 20 80 21       ...2.... .!
00F0: 80 22 80 1F 01 6F 00                              ."...o.         
```

#### Opcodes

```
  0: 0x00E5 [0x1C] WAIT(10* ticks)
  1: 0x00E8 [0x32] ExtData[1]->MainSpeed = 24* * 0.1
  2: 0x00EB [0x1F] MOVE_ENTITY: EventEntity moves to X=-186.813*, Z=355.418*, Y=8.261*
  3: 0x00F3 [0x1F] MOVE_ENTITY: Update entity position (mode=1)
  4: 0x00F5 [0x6F] WAIT_FRAME_DELAY: Yield until WaitTime reaches zero
  5: 0x00F6 [0x00] END_REQSTACK()
```

### Event 65535.18

#### Metadata

| Field        | Value    |
|--------------|----------|
| Entrypoint   | 0x00F7   |
| Data Size    | 15 bytes |
| Instructions | 5        |

```
      00 01 02 03 04 05 06 07  08 09 0A 0B 0C 0D 0E 0F
      -- -- -- -- -- -- -- --  -- -- -- -- -- -- -- --
00F0:                      32  0D 80 1F 00 23 80 24 80         2....#.$.
0100: 25 80 1F 01 6F 00                                 %...o.          
```

#### Opcodes

```
  0: 0x00F7 [0x32] ExtData[1]->MainSpeed = 12* * 0.1
  1: 0x00FA [0x1F] MOVE_ENTITY: EventEntity moves to X=-188.939*, Z=355.486*, Y=8.150*
  2: 0x0102 [0x1F] MOVE_ENTITY: Update entity position (mode=1)
  3: 0x0104 [0x6F] WAIT_FRAME_DELAY: Yield until WaitTime reaches zero
  4: 0x0105 [0x00] END_REQSTACK()
```

### Event 65535.19

#### Metadata

| Field        | Value    |
|--------------|----------|
| Entrypoint   | 0x0106   |
| Data Size    | 18 bytes |
| Instructions | 6        |

```
      00 01 02 03 04 05 06 07  08 09 0A 0B 0C 0D 0E 0F
      -- -- -- -- -- -- -- --  -- -- -- -- -- -- -- --
0100:                   1C 11  80 32 12 80 1F 00 26 80        ...2....&.
0110: 27 80 28 80 1F 01 6F 00                           '.(...o.        
```

#### Opcodes

```
  0: 0x0106 [0x1C] WAIT(30* ticks)
  1: 0x0109 [0x32] ExtData[1]->MainSpeed = 40* * 0.1
  2: 0x010C [0x1F] MOVE_ENTITY: EventEntity moves to X=-199.222*, Z=360.089*, Y=7.999*
  3: 0x0114 [0x1F] MOVE_ENTITY: Update entity position (mode=1)
  4: 0x0116 [0x6F] WAIT_FRAME_DELAY: Yield until WaitTime reaches zero
  5: 0x0117 [0x00] END_REQSTACK()
```

### Event 65535.20

#### Metadata

| Field        | Value    |
|--------------|----------|
| Entrypoint   | 0x0118   |
| Data Size    | 23 bytes |
| Instructions | 7        |

```
      00 01 02 03 04 05 06 07  08 09 0A 0B 0C 0D 0E 0F
      -- -- -- -- -- -- -- --  -- -- -- -- -- -- -- --
0110:                          1C 16 80 32 08 80 1F 00          ...2....
0120: 29 80 2A 80 2B 80 1F 01  6F 1E 24 B3 05 01 00     ).*.+...o.$.... 
```

#### Opcodes

```
  0: 0x0118 [0x1C] WAIT(45* ticks)
  1: 0x011B [0x32] ExtData[1]->MainSpeed = 10* * 0.1
  2: 0x011E [0x1F] MOVE_ENTITY: EventEntity moves to X=-192.286*, Z=359.070*, Y=8.184*
  3: 0x0126 [0x1F] MOVE_ENTITY: Update entity position (mode=1)
  4: 0x0128 [0x6F] WAIT_FRAME_DELAY: Yield until WaitTime reaches zero
  5: 0x0129 [0x1E] EventEntity looks at Lysander (ID: 17150756/0x0105B324) and starts talking
  6: 0x012E [0x00] END_REQSTACK()
```

### Event 65535.21

#### Metadata

| Field        | Value    |
|--------------|----------|
| Entrypoint   | 0x012F   |
| Data Size    | 18 bytes |
| Instructions | 6        |

```
      00 01 02 03 04 05 06 07  08 09 0A 0B 0C 0D 0E 0F
      -- -- -- -- -- -- -- --  -- -- -- -- -- -- -- --
0120:                                               1C                 .
0130: 03 80 32 08 80 1F 00 2C  80 2D 80 2E 80 1F 01 6F  ..2....,.-.....o
0140: 00                                                .               
```

#### Opcodes

```
  0: 0x012F [0x1C] WAIT(15* ticks)
  1: 0x0132 [0x32] ExtData[1]->MainSpeed = 10* * 0.1
  2: 0x0135 [0x1F] MOVE_ENTITY: EventEntity moves to X=-189.276*, Z=356.493*, Y=8.333*
  3: 0x013D [0x1F] MOVE_ENTITY: Update entity position (mode=1)
  4: 0x013F [0x6F] WAIT_FRAME_DELAY: Yield until WaitTime reaches zero
  5: 0x0140 [0x00] END_REQSTACK()
```

### Event 65535.22

#### Metadata

| Field        | Value    |
|--------------|----------|
| Entrypoint   | 0x0141   |
| Data Size    | 18 bytes |
| Instructions | 6        |

```
      00 01 02 03 04 05 06 07  08 09 0A 0B 0C 0D 0E 0F
      -- -- -- -- -- -- -- --  -- -- -- -- -- -- -- --
0140:    1C 03 80 32 04 80 1F  00 2F 80 30 80 31 80 1F   ...2..../.0.1..
0150: 01 6F 00                                          .o.             
```

#### Opcodes

```
  0: 0x0141 [0x1C] WAIT(15* ticks)
  1: 0x0144 [0x32] ExtData[1]->MainSpeed = 80* * 0.1
  2: 0x0147 [0x1F] MOVE_ENTITY: EventEntity moves to X=402.494*, Z=-213.539*, Y=16.856*
  3: 0x014F [0x1F] MOVE_ENTITY: Update entity position (mode=1)
  4: 0x0151 [0x6F] WAIT_FRAME_DELAY: Yield until WaitTime reaches zero
  5: 0x0152 [0x00] END_REQSTACK()
```

### Event 65535.23

#### Metadata

| Field        | Value    |
|--------------|----------|
| Entrypoint   | 0x0153   |
| Data Size    | 18 bytes |
| Instructions | 6        |

```
      00 01 02 03 04 05 06 07  08 09 0A 0B 0C 0D 0E 0F
      -- -- -- -- -- -- -- --  -- -- -- -- -- -- -- --
0150:          1C 08 80 32 09  80 1F 00 32 80 33 80 34     ...2....2.3.4
0160: 80 1F 01 6F 00                                    ...o.           
```

#### Opcodes

```
  0: 0x0153 [0x1C] WAIT(10* ticks)
  1: 0x0156 [0x32] ExtData[1]->MainSpeed = 24* * 0.1
  2: 0x0159 [0x1F] MOVE_ENTITY: EventEntity moves to X=395.216*, Z=-217.124*, Y=16.775*
  3: 0x0161 [0x1F] MOVE_ENTITY: Update entity position (mode=1)
  4: 0x0163 [0x6F] WAIT_FRAME_DELAY: Yield until WaitTime reaches zero
  5: 0x0164 [0x00] END_REQSTACK()
```

### Event 65535.24

#### Metadata

| Field        | Value    |
|--------------|----------|
| Entrypoint   | 0x0165   |
| Data Size    | 15 bytes |
| Instructions | 5        |

```
      00 01 02 03 04 05 06 07  08 09 0A 0B 0C 0D 0E 0F
      -- -- -- -- -- -- -- --  -- -- -- -- -- -- -- --
0160:                32 0D 80  1F 00 35 80 36 80 37 80       2....5.6.7.
0170: 1F 01 6F 00                                       ..o.            
```

#### Opcodes

```
  0: 0x0165 [0x32] ExtData[1]->MainSpeed = 12* * 0.1
  1: 0x0168 [0x1F] MOVE_ENTITY: EventEntity moves to X=393.755*, Z=-217.731*, Y=16.683*
  2: 0x0170 [0x1F] MOVE_ENTITY: Update entity position (mode=1)
  3: 0x0172 [0x6F] WAIT_FRAME_DELAY: Yield until WaitTime reaches zero
  4: 0x0173 [0x00] END_REQSTACK()
```

### Event 65535.25

#### Metadata

| Field        | Value    |
|--------------|----------|
| Entrypoint   | 0x0174   |
| Data Size    | 18 bytes |
| Instructions | 6        |

```
      00 01 02 03 04 05 06 07  08 09 0A 0B 0C 0D 0E 0F
      -- -- -- -- -- -- -- --  -- -- -- -- -- -- -- --
0170:             1C 11 80 32  12 80 1F 00 38 80 39 80      ...2....8.9.
0180: 3A 80 1F 01 6F 00                                 :...o.          
```

#### Opcodes

```
  0: 0x0174 [0x1C] WAIT(30* ticks)
  1: 0x0177 [0x32] ExtData[1]->MainSpeed = 40* * 0.1
  2: 0x017A [0x1F] MOVE_ENTITY: EventEntity moves to X=387.495*, Z=-212.854*, Y=16.179*
  3: 0x0182 [0x1F] MOVE_ENTITY: Update entity position (mode=1)
  4: 0x0184 [0x6F] WAIT_FRAME_DELAY: Yield until WaitTime reaches zero
  5: 0x0185 [0x00] END_REQSTACK()
```

### Event 65535.26

#### Metadata

| Field        | Value    |
|--------------|----------|
| Entrypoint   | 0x0186   |
| Data Size    | 23 bytes |
| Instructions | 7        |

```
      00 01 02 03 04 05 06 07  08 09 0A 0B 0C 0D 0E 0F
      -- -- -- -- -- -- -- --  -- -- -- -- -- -- -- --
0180:                   1C 16  80 32 08 80 1F 00 3B 80        ...2....;.
0190: 3C 80 3D 80 1F 01 6F 1E  24 B3 05 01 00           <.=...o.$....   
```

#### Opcodes

```
  0: 0x0186 [0x1C] WAIT(45* ticks)
  1: 0x0189 [0x32] ExtData[1]->MainSpeed = 10* * 0.1
  2: 0x018C [0x1F] MOVE_ENTITY: EventEntity moves to X=390.582*, Z=-217.148*, Y=16.399*
  3: 0x0194 [0x1F] MOVE_ENTITY: Update entity position (mode=1)
  4: 0x0196 [0x6F] WAIT_FRAME_DELAY: Yield until WaitTime reaches zero
  5: 0x0197 [0x1E] EventEntity looks at Lysander (ID: 17150756/0x0105B324) and starts talking
  6: 0x019C [0x00] END_REQSTACK()
```

### Event 65535.27

#### Metadata

| Field        | Value    |
|--------------|----------|
| Entrypoint   | 0x019D   |
| Data Size    | 18 bytes |
| Instructions | 6        |

```
      00 01 02 03 04 05 06 07  08 09 0A 0B 0C 0D 0E 0F
      -- -- -- -- -- -- -- --  -- -- -- -- -- -- -- --
0190:                                         1C 03 80               ...
01A0: 32 08 80 1F 00 3E 80 3F  80 40 80 1F 01 6F 00     2....>.?.@...o. 
```

#### Opcodes

```
  0: 0x019D [0x1C] WAIT(15* ticks)
  1: 0x01A0 [0x32] ExtData[1]->MainSpeed = 10* * 0.1
  2: 0x01A3 [0x1F] MOVE_ENTITY: EventEntity moves to X=394.892*, Z=-215.893*, Y=16.712*
  3: 0x01AB [0x1F] MOVE_ENTITY: Update entity position (mode=1)
  4: 0x01AD [0x6F] WAIT_FRAME_DELAY: Yield until WaitTime reaches zero
  5: 0x01AE [0x00] END_REQSTACK()
```

### Event 65535.28

#### Metadata

| Field        | Value   |
|--------------|---------|
| Entrypoint   | 0x01AF  |
| Data Size    | 1 bytes |
| Instructions | 1       |

```
      00 01 02 03 04 05 06 07  08 09 0A 0B 0C 0D 0E 0F
      -- -- -- -- -- -- -- --  -- -- -- -- -- -- -- --
01A0:                                               00                 .
```

#### Opcodes

```
  0: 0x01AF [0x00] END_REQSTACK()
```

### Event 65535.29

#### Metadata

| Field        | Value    |
|--------------|----------|
| Entrypoint   | 0x01B0   |
| Data Size    | 24 bytes |
| Instructions | 6        |

```
      00 01 02 03 04 05 06 07  08 09 0A 0B 0C 0D 0E 0F
      -- -- -- -- -- -- -- --  -- -- -- -- -- -- -- --
01B0: 32 41 80 1F 00 42 80 43  80 44 80 1F 01 1F 00 45  2A...B.C.D.....E
01C0: 80 46 80 47 80 1F 01 00                           .F.G....        
```

#### Opcodes

```
  0: 0x01B0 [0x32] ExtData[1]->MainSpeed = 13* * 0.1
  1: 0x01B3 [0x1F] MOVE_ENTITY: EventEntity moves to X=25.821*, Z=64.035*, Y=1.995*
  2: 0x01BB [0x1F] MOVE_ENTITY: Update entity position (mode=1)
  3: 0x01BD [0x1F] MOVE_ENTITY: EventEntity moves to X=29.604*, Z=64.029*, Y=1.991*
  4: 0x01C5 [0x1F] MOVE_ENTITY: Update entity position (mode=1)
  5: 0x01C7 [0x00] END_REQSTACK()
```

### Event 65535.30

#### Metadata

| Field        | Value   |
|--------------|---------|
| Entrypoint   | 0x01C8  |
| Data Size    | 1 bytes |
| Instructions | 1       |

```
      00 01 02 03 04 05 06 07  08 09 0A 0B 0C 0D 0E 0F
      -- -- -- -- -- -- -- --  -- -- -- -- -- -- -- --
01C0:                          00                               .       
```

#### Opcodes

```
  0: 0x01C8 [0x00] END_REQSTACK()
```

### Event 65535.31

#### Metadata

| Field        | Value    |
|--------------|----------|
| Entrypoint   | 0x01C9   |
| Data Size    | 19 bytes |
| Instructions | 5        |

```
      00 01 02 03 04 05 06 07  08 09 0A 0B 0C 0D 0E 0F
      -- -- -- -- -- -- -- --  -- -- -- -- -- -- -- --
01C0:                             32 41 80 1F 00 48 80           2A...H.
01D0: 49 80 4A 80 1F 01 1E 71  B3 05 01 00              I.J....q....    
```

#### Opcodes

```
  0: 0x01C9 [0x32] ExtData[1]->MainSpeed = 13* * 0.1
  1: 0x01CC [0x1F] MOVE_ENTITY: EventEntity moves to X=-15.386*, Z=-7.066*, Y=2.999*
  2: 0x01D4 [0x1F] MOVE_ENTITY: Update entity position (mode=1)
  3: 0x01D6 [0x1E] EventEntity looks at Ragelise (ID: 17150833/0x0105B371) and starts talking
  4: 0x01DB [0x00] END_REQSTACK()
```

### Event 65535.32

#### Metadata

| Field        | Value    |
|--------------|----------|
| Entrypoint   | 0x01DC   |
| Data Size    | 13 bytes |
| Instructions | 3        |

```
      00 01 02 03 04 05 06 07  08 09 0A 0B 0C 0D 0E 0F
      -- -- -- -- -- -- -- --  -- -- -- -- -- -- -- --
01D0:                                      6E 26 B3 05              n&..
01E0: 01 4B 80 99 26 B3 05 01  00                       .K..&....       
```

#### Opcodes

```
  0: 0x01DC [0x6E] Alystair (ID: 17150758/0x0105B326) uses emote 43*
  1: 0x01E3 [0x99] Wait for Alystair (ID: 17150758/0x0105B326) animation to complete
  2: 0x01E8 [0x00] END_REQSTACK()
```

### Event 65535.33

#### Metadata

| Field        | Value   |
|--------------|---------|
| Entrypoint   | 0x01E9  |
| Data Size    | 1 bytes |
| Instructions | 1       |

```
      00 01 02 03 04 05 06 07  08 09 0A 0B 0C 0D 0E 0F
      -- -- -- -- -- -- -- --  -- -- -- -- -- -- -- --
01E0:                             00                             .      
```

#### Opcodes

```
  0: 0x01E9 [0x00] END_REQSTACK()
```

### Event 65535.34

#### Metadata

| Field        | Value    |
|--------------|----------|
| Entrypoint   | 0x01EA   |
| Data Size    | 14 bytes |
| Instructions | 4        |

```
      00 01 02 03 04 05 06 07  08 09 0A 0B 0C 0D 0E 0F
      -- -- -- -- -- -- -- --  -- -- -- -- -- -- -- --
01E0:                                32 12 80 1F 00 4C            2....L
01F0: 80 4D 80 4E 80 1F 01 00                           .M.N....        
```

#### Opcodes

```
  0: 0x01EA [0x32] ExtData[1]->MainSpeed = 40* * 0.1
  1: 0x01ED [0x1F] MOVE_ENTITY: EventEntity moves to X=-55.275*, Z=-81.578*, Y=5.999*
  2: 0x01F5 [0x1F] MOVE_ENTITY: Update entity position (mode=1)
  3: 0x01F7 [0x00] END_REQSTACK()
```

### Event 65535.35

#### Metadata

| Field        | Value    |
|--------------|----------|
| Entrypoint   | 0x01F8   |
| Data Size    | 14 bytes |
| Instructions | 4        |

```
      00 01 02 03 04 05 06 07  08 09 0A 0B 0C 0D 0E 0F
      -- -- -- -- -- -- -- --  -- -- -- -- -- -- -- --
01F0:                          32 12 80 1F 00 4F 80 50          2....O.P
0200: 80 4E 80 1F 01 00                                 .N....          
```

#### Opcodes

```
  0: 0x01F8 [0x32] ExtData[1]->MainSpeed = 40* * 0.1
  1: 0x01FB [0x1F] MOVE_ENTITY: EventEntity moves to X=-69.900*, Z=-105.808*, Y=5.999*
  2: 0x0203 [0x1F] MOVE_ENTITY: Update entity position (mode=1)
  3: 0x0205 [0x00] END_REQSTACK()
```
