# 17150801 - Camlin

## Common Data

| Field            | Value                          |
|------------------|--------------------------------|
| Zone             | Rolanberry Fields [S] (ID: 91) |
| Block Size       | 296 bytes                      |
| Total Events     | 10                             |
| References Count | 22                             |

## List of Events

| Event ID                 | Entrypoint   |   Size |   Instructions |
|--------------------------|--------------|--------|----------------|
| [65535](#event-65535)    | 0x0000       |      1 |              1 |
| [5](#event-5)            | 0x0001       |      1 |              1 |
| [65535.1](#event-655351) | 0x0002       |     14 |              5 |
| [65535.2](#event-655352) | 0x0010       |     30 |              9 |
| [65535.3](#event-655353) | 0x002E       |     16 |              4 |
| [65535.4](#event-655354) | 0x003E       |     16 |              4 |
| [65535.5](#event-655355) | 0x004E       |     17 |              6 |
| [65535.6](#event-655356) | 0x005F       |     14 |              4 |
| [65535.7](#event-655357) | 0x006D       |     28 |              8 |
| [65535.8](#event-655358) | 0x0089       |     14 |              4 |

## DAT References (imed_data)

|   Index | Hex Value   |   Dec Value |
|---------|-------------|-------------|
|       0 | 0xFFFECEE0  |  4294889184 |
|       1 | 0xFFF29900  |  4294088960 |
|       2 | 0x0000      |           0 |
|       3 | 0x002A      |          42 |
|       4 | 0xFFFED6AE  |  4294891182 |
|       5 | 0xFFF28996  |  4294085014 |
|       6 | 0xFFFFFFFA  |  4294967290 |
|       7 | 0x0262      |         610 |
|       8 | 0x0028      |          40 |
|       9 | 0xFFFEC674  |  4294887028 |
|      10 | 0xFFF23316  |  4294062870 |
|      11 | 0x02F2      |         754 |
|      12 | 0x01E0      |         480 |
|      13 | 0x105B351   |    17150801 |
|      14 | 0x20EC7     |      134855 |
|      15 | 0xFFF9CB4D  |  4294560589 |
|      16 | 0x6067      |       24679 |
|      17 | 0x0615      |        1557 |
|      18 | 0x000A      |          10 |
|      19 | 0x231C9     |      143817 |
|      20 | 0xFFF9BEAC  |  4294557356 |
|      21 | 0x618B      |       24971 |

## Events

### Event 65535

#### Metadata

| Field        | Value   |
|--------------|---------|
| Entrypoint   | 0x0000  |
| Data Size    | 1 bytes |
| Instructions | 1       |

```
      00 01 02 03 04 05 06 07  08 09 0A 0B 0C 0D 0E 0F
      -- -- -- -- -- -- -- --  -- -- -- -- -- -- -- --
0000: 00                                                .               
```

#### Opcodes

```
  0: 0x0000 [0x00] END_REQSTACK()
```

### Event 5

#### Metadata

| Field        | Value   |
|--------------|---------|
| Entrypoint   | 0x0001  |
| Data Size    | 1 bytes |
| Instructions | 1       |

```
      00 01 02 03 04 05 06 07  08 09 0A 0B 0C 0D 0E 0F
      -- -- -- -- -- -- -- --  -- -- -- -- -- -- -- --
0000:    00                                              .              
```

#### Opcodes

```
  0: 0x0001 [0x00] END_REQSTACK()
```

### Event 65535.1

#### Metadata

| Field        | Value    |
|--------------|----------|
| Entrypoint   | 0x0002   |
| Data Size    | 14 bytes |
| Instructions | 5        |

```
      00 01 02 03 04 05 06 07  08 09 0A 0B 0C 0D 0E 0F
      -- -- -- -- -- -- -- --  -- -- -- -- -- -- -- --
0000:       61 00 1F 00 00 80  01 80 02 80 1F 01 6F 00    a...........o.
```

#### Opcodes

```
  0: 0x0002 [0x61] EventEntity->Render.Flags2 &= ~0x00000001
  1: 0x0004 [0x1F] MOVE_ENTITY: EventEntity moves to X=-78.112*, Z=-878.336*, Y=0.000*
  2: 0x000C [0x1F] MOVE_ENTITY: Update entity position (mode=1)
  3: 0x000E [0x6F] WAIT_FRAME_DELAY: Yield until WaitTime reaches zero
  4: 0x000F [0x00] END_REQSTACK()
```

### Event 65535.2

#### Metadata

| Field        | Value    |
|--------------|----------|
| Entrypoint   | 0x0010   |
| Data Size    | 30 bytes |
| Instructions | 9        |

```
      00 01 02 03 04 05 06 07  08 09 0A 0B 0C 0D 0E 0F
      -- -- -- -- -- -- -- --  -- -- -- -- -- -- -- --
0010: 61 01 32 03 80 1F 00 04  80 05 80 06 80 1F 01 6F  a.2............o
0020: 4B F8 FF FF 7F 07 80 6F  76 F8 FF FF 7F 00        K......ov.....  
```

#### Opcodes

```
  0: 0x0010 [0x61] EventEntity->Render.Flags2 |= 0x00000001
  1: 0x0012 [0x32] ExtData[1]->MainSpeed = 42* * 0.1
  2: 0x0015 [0x1F] MOVE_ENTITY: EventEntity moves to X=-76.114*, Z=-882.282*, Y=-0.006*
  3: 0x001D [0x1F] MOVE_ENTITY: Update entity position (mode=1)
  4: 0x001F [0x6F] WAIT_FRAME_DELAY: Yield until WaitTime reaches zero
  5: 0x0020 [0x4B] UPDATE_ENTITY_YAW(entity=EventEntity, yaw=3.4°*)
  6: 0x0027 [0x6F] WAIT_FRAME_DELAY: Yield until WaitTime reaches zero
  7: 0x0028 [0x76] CHECK_ENTITY_RENDER_FLAGS: Wait until EventEntity Render.Flags0 and Render.Flags3 conditions are met
  8: 0x002D [0x00] END_REQSTACK()
```

### Event 65535.3

#### Metadata

| Field        | Value    |
|--------------|----------|
| Entrypoint   | 0x002E   |
| Data Size    | 16 bytes |
| Instructions | 4        |

```
      00 01 02 03 04 05 06 07  08 09 0A 0B 0C 0D 0E 0F
      -- -- -- -- -- -- -- --  -- -- -- -- -- -- -- --
0020:                                            4A F8                J.
0030: FF FF 7F 52 B3 05 01 6F  76 F8 FF FF 7F 00        ...R...ov.....  
```

#### Opcodes

```
  0: 0x002E [0x4A] EventEntity looks at Darach (ID: 17150802/0x0105B352)
  1: 0x0037 [0x6F] WAIT_FRAME_DELAY: Yield until WaitTime reaches zero
  2: 0x0038 [0x76] CHECK_ENTITY_RENDER_FLAGS: Wait until EventEntity Render.Flags0 and Render.Flags3 conditions are met
  3: 0x003D [0x00] END_REQSTACK()
```

### Event 65535.4

#### Metadata

| Field        | Value    |
|--------------|----------|
| Entrypoint   | 0x003E   |
| Data Size    | 16 bytes |
| Instructions | 4        |

```
      00 01 02 03 04 05 06 07  08 09 0A 0B 0C 0D 0E 0F
      -- -- -- -- -- -- -- --  -- -- -- -- -- -- -- --
0030:                                            4A F8                J.
0040: FF FF 7F 4F B3 05 01 6F  76 F8 FF FF 7F 00        ...O...ov.....  
```

#### Opcodes

```
  0: 0x003E [0x4A] EventEntity looks at Abenzio (ID: 17150799/0x0105B34F)
  1: 0x0047 [0x6F] WAIT_FRAME_DELAY: Yield until WaitTime reaches zero
  2: 0x0048 [0x76] CHECK_ENTITY_RENDER_FLAGS: Wait until EventEntity Render.Flags0 and Render.Flags3 conditions are met
  3: 0x004D [0x00] END_REQSTACK()
```

### Event 65535.5

#### Metadata

| Field        | Value    |
|--------------|----------|
| Entrypoint   | 0x004E   |
| Data Size    | 17 bytes |
| Instructions | 6        |

```
      00 01 02 03 04 05 06 07  08 09 0A 0B 0C 0D 0E 0F
      -- -- -- -- -- -- -- --  -- -- -- -- -- -- -- --
0040:                                            61 00                a.
0050: 32 08 80 1F 00 09 80 0A  80 0B 80 1F 01 6F 00     2............o. 
```

#### Opcodes

```
  0: 0x004E [0x61] EventEntity->Render.Flags2 &= ~0x00000001
  1: 0x0050 [0x32] ExtData[1]->MainSpeed = 40* * 0.1
  2: 0x0053 [0x1F] MOVE_ENTITY: EventEntity moves to X=-80.268*, Z=-904.426*, Y=0.754*
  3: 0x005B [0x1F] MOVE_ENTITY: Update entity position (mode=1)
  4: 0x005D [0x6F] WAIT_FRAME_DELAY: Yield until WaitTime reaches zero
  5: 0x005E [0x00] END_REQSTACK()
```

### Event 65535.6

#### Metadata

| Field        | Value    |
|--------------|----------|
| Entrypoint   | 0x005F   |
| Data Size    | 14 bytes |
| Instructions | 4        |

```
      00 01 02 03 04 05 06 07  08 09 0A 0B 0C 0D 0E 0F
      -- -- -- -- -- -- -- --  -- -- -- -- -- -- -- --
0050:                                               4B                 K
0060: F8 FF FF 7F 0C 80 6F 76  F8 FF FF 7F 00           ......ov.....   
```

#### Opcodes

```
  0: 0x005F [0x4B] UPDATE_ENTITY_YAW(entity=EventEntity, yaw=2.6°*)
  1: 0x0066 [0x6F] WAIT_FRAME_DELAY: Yield until WaitTime reaches zero
  2: 0x0067 [0x76] CHECK_ENTITY_RENDER_FLAGS: Wait until EventEntity Render.Flags0 and Render.Flags3 conditions are met
  3: 0x006C [0x00] END_REQSTACK()
```

### Event 65535.7

#### Metadata

| Field        | Value    |
|--------------|----------|
| Entrypoint   | 0x006D   |
| Data Size    | 28 bytes |
| Instructions | 8        |

```
      00 01 02 03 04 05 06 07  08 09 0A 0B 0C 0D 0E 0F
      -- -- -- -- -- -- -- --  -- -- -- -- -- -- -- --
0060:                                         32 0D 80               2..
0070: 1F 00 0E 80 0F 80 10 80  1F 01 6F 4B F8 FF FF 7F  ..........oK....
0080: 11 80 6F 76 F8 FF FF 7F  00                       ..ov.....       
```

#### Opcodes

```
  0: 0x006D [0x32] ExtData[1]->MainSpeed = 17150801* * 0.1
  1: 0x0070 [0x1F] MOVE_ENTITY: EventEntity moves to X=134.855*, Z=-406.707*, Y=24.679*
  2: 0x0078 [0x1F] MOVE_ENTITY: Update entity position (mode=1)
  3: 0x007A [0x6F] WAIT_FRAME_DELAY: Yield until WaitTime reaches zero
  4: 0x007B [0x4B] UPDATE_ENTITY_YAW(entity=EventEntity, yaw=8.6°*)
  5: 0x0082 [0x6F] WAIT_FRAME_DELAY: Yield until WaitTime reaches zero
  6: 0x0083 [0x76] CHECK_ENTITY_RENDER_FLAGS: Wait until EventEntity Render.Flags0 and Render.Flags3 conditions are met
  7: 0x0088 [0x00] END_REQSTACK()
```

### Event 65535.8

#### Metadata

| Field        | Value    |
|--------------|----------|
| Entrypoint   | 0x0089   |
| Data Size    | 14 bytes |
| Instructions | 4        |

```
      00 01 02 03 04 05 06 07  08 09 0A 0B 0C 0D 0E 0F
      -- -- -- -- -- -- -- --  -- -- -- -- -- -- -- --
0080:                             32 12 80 1F 00 13 80           2......
0090: 14 80 15 80 1F 01 00                              .......         
```

#### Opcodes

```
  0: 0x0089 [0x32] ExtData[1]->MainSpeed = 10* * 0.1
  1: 0x008C [0x1F] MOVE_ENTITY: EventEntity moves to X=143.817*, Z=-409.940*, Y=24.971*
  2: 0x0094 [0x1F] MOVE_ENTITY: Update entity position (mode=1)
  3: 0x0096 [0x00] END_REQSTACK()
```
