# 17150744 - TGS_091

## Common Data

| Field            | Value                          |
|------------------|--------------------------------|
| Zone             | Rolanberry Fields [S] (ID: 91) |
| Block Size       | 220 bytes                      |
| Total Events     | 2                              |
| References Count | 9                              |

## List of Events

| Event ID              | Entrypoint   |   Size |   Instructions |
|-----------------------|--------------|--------|----------------|
| [65535](#event-65535) | 0x0000       |      1 |              1 |
| [100](#event-100)     | 0x0001       |    157 |             27 |

## DAT References (imed_data)

|   Index | Hex Value   |   Dec Value |
|---------|-------------|-------------|
|       0 | 0x00C8      |         200 |
|       1 | 0x0000      |           0 |
|       2 | 0x003C      |          60 |
|       3 | 0x000F      |          15 |
|       4 | 0x0006      |           6 |
|       5 | 0x0013      |          19 |
|       6 | 0x1E2E      |        7726 |
|       7 | 0x0155      |         341 |
|       8 | 0x0384      |         900 |

## String References

- **7726**: Press confirm button to start.

## Events

### Event 65535

#### Metadata

| Field        | Value   |
|--------------|---------|
| Entrypoint   | 0x0000  |
| Data Size    | 1 bytes |
| Instructions | 1       |

```
      00 01 02 03 04 05 06 07  08 09 0A 0B 0C 0D 0E 0F
      -- -- -- -- -- -- -- --  -- -- -- -- -- -- -- --
0000: 00                                                .               
```

#### Opcodes

```
  0: 0x0000 [0x00] END_REQSTACK()
```

### Event 100

#### Metadata

| Field        | Value     |
|--------------|-----------|
| Entrypoint   | 0x0001    |
| Data Size    | 157 bytes |
| Instructions | 27        |

```
      00 01 02 03 04 05 06 07  08 09 0A 0B 0C 0D 0E 0F
      -- -- -- -- -- -- -- --  -- -- -- -- -- -- -- --
0000:    20 01 42 46 01 45 00  80 F0 FF FF 7F F0 FF FF    .BF.E.........
0010: 7F 66 64 6F 31 01 80 1C  02 80 77 03 80 04 80 38  .fdo1.....w....8
0020: 05 80 80 17 B3 05 01 1C  03 80 29 01 17 B3 05 01  ..........).....
0030: 01 45 00 80 F0 FF FF 7F  F0 FF FF 7F 66 64 69 31  .E..........fdi1
0040: 01 80 1C 02 80 48 06 80  23 67 01 80 01 80 45 07  .....H..#g....E.
0050: 80 F0 FF FF 7F F0 FF FF  7F 74 67 73 34 01 80 1C  .........tgs4...
0060: 08 80 45 00 80 F0 FF FF  7F F0 FF FF 7F 66 64 6F  ..E..........fdo
0070: 31 01 80 1C 02 80 52 07  80 F0 FF FF 7F F0 FF FF  1.....R.........
0080: 7F 74 67 73 34 78 68 46  00 45 00 80 F0 FF FF 7F  .tgs4xhF.E......
0090: F0 FF FF 7F 66 64 69 31  01 80 20 00 21 00        ....fdi1.. .!.  
```

#### Opcodes

```
  0: 0x0001 [0x20] SET_CLI_EVENT_UC_FLAG: Lock player control
  1: 0x0003 [0x42] SET_CLI_EVENT_CANCEL_DATA()
  2: 0x0004 [0x46] CAMERA_CONTROL: Disable user control
  3: 0x0006 [0x45] LOAD_SCHEDULED_TASK: Load scheduler "fdo1" with entities [LocalPlayer, LocalPlayer], work=[200*, 0*]
  4: 0x0017 [0x1C] WAIT(60* ticks)
  5: 0x001A [0x77] SET_EVENT_TIME_WEATHER(hour=15*, weather=6*)
  6: 0x001F [0x38] SET_CLIENT_EVENT_MODE(mode=19*)
  7: 0x0022 [0x80] LOAD_WAIT(entity=test_hume01 (ID: 17150743/0x0105B317))
  8: 0x0027 [0x1C] WAIT(15* ticks)
  9: 0x002A [0x29] REQ_SET_WAIT(priority=0x01, entity_id=test_hume01 (ID: 17150743/0x0105B317), tag_num=0x01)
 10: 0x0031 [0x45] LOAD_SCHEDULED_TASK: Load scheduler "fdi1" with entities [LocalPlayer, LocalPlayer], work=[200*, 0*]
 11: 0x0042 [0x1C] WAIT(60* ticks)
 12: 0x0045 [0x48] [System] [7726*]:
    → "Press confirm button to start."
 13: 0x0048 [0x23] WAIT_FOR_DIALOG_INTERACTION
 14: 0x0049 [0x67] HIDE_HUD_ELEMENTS(param1=0x8001, param2=0x8001)
 15: 0x004E [0x45] LOAD_SCHEDULED_TASK: Load scheduler "tgs4" with entities [LocalPlayer, LocalPlayer], work=[341*, 0*]
 16: 0x005F [0x1C] WAIT(900* ticks)
 17: 0x0062 [0x45] LOAD_SCHEDULED_TASK: Load scheduler "fdo1" with entities [LocalPlayer, LocalPlayer], work=[200*, 0*]
 18: 0x0073 [0x1C] WAIT(60* ticks)
 19: 0x0076 [0x52] END_LOAD_SCHEDULER: End scheduler "tgs4" with entities [LocalPlayer, LocalPlayer], work=341*
 20: 0x0085 [0x78] ENABLE_GAME_TIMER_RESET_WEATHER()
 21: 0x0086 [0x68] SHOW_HUD_ELEMENTS()
 22: 0x0087 [0x46] CAMERA_CONTROL: Restore default settings
 23: 0x0089 [0x45] LOAD_SCHEDULED_TASK: Load scheduler "fdi1" with entities [LocalPlayer, LocalPlayer], work=[200*, 0*]
 24: 0x009A [0x20] SET_CLI_EVENT_UC_FLAG: Unlock player control
 25: 0x009C [0x21] END_EVENT
 26: 0x009D [0x00] END_REQSTACK()
```
