# 17150802 - Darach

## Common Data

| Field            | Value                          |
|------------------|--------------------------------|
| Zone             | Rolanberry Fields [S] (ID: 91) |
| Block Size       | 316 bytes                      |
| Total Events     | 12                             |
| References Count | 17                             |

## List of Events

| Event ID                   | Entrypoint   |   Size |   Instructions |
|----------------------------|--------------|--------|----------------|
| [65535](#event-65535)      | 0x0000       |      1 |              1 |
| [5](#event-5)              | 0x0001       |      1 |              1 |
| [65535.1](#event-655351)   | 0x0002       |     29 |              8 |
| [65535.2](#event-655352)   | 0x001F       |     14 |              4 |
| [65535.3](#event-655353)   | 0x002D       |     16 |              4 |
| [65535.4](#event-655354)   | 0x003D       |     28 |              8 |
| [65535.5](#event-655355)   | 0x0059       |     14 |              4 |
| [65535.6](#event-655356)   | 0x0067       |     17 |              6 |
| [65535.7](#event-655357)   | 0x0078       |     17 |              5 |
| [65535.8](#event-655358)   | 0x0089       |     16 |              4 |
| [65535.9](#event-655359)   | 0x0099       |     16 |              4 |
| [65535.10](#event-6553510) | 0x00A9       |     14 |              4 |

## DAT References (imed_data)

|   Index | Hex Value   |   Dec Value |
|---------|-------------|-------------|
|       0 | 0x000A      |          10 |
|       1 | 0xFFFECFC6  |  4294889414 |
|       2 | 0xFFF27EB0  |  4294082224 |
|       3 | 0x0034      |          52 |
|       4 | 0x023A      |         570 |
|       5 | 0x0262      |         610 |
|       6 | 0x000D      |          13 |
|       7 | 0x03D4      |         980 |
|       8 | 0xFFFED2CA  |  4294890186 |
|       9 | 0xFFF248DE  |  4294068446 |
|      10 | 0x03AD      |         941 |
|      11 | 0x001E      |          30 |
|      12 | 0x0640      |        1600 |
|      13 | 0x0004      |           4 |
|      14 | 0x20F5B     |      135003 |
|      15 | 0xFFF9CC33  |  4294560819 |
|      16 | 0x6088      |       24712 |

## Events

### Event 65535

#### Metadata

| Field        | Value   |
|--------------|---------|
| Entrypoint   | 0x0000  |
| Data Size    | 1 bytes |
| Instructions | 1       |

```
      00 01 02 03 04 05 06 07  08 09 0A 0B 0C 0D 0E 0F
      -- -- -- -- -- -- -- --  -- -- -- -- -- -- -- --
0000: 00                                                .               
```

#### Opcodes

```
  0: 0x0000 [0x00] END_REQSTACK()
```

### Event 5

#### Metadata

| Field        | Value   |
|--------------|---------|
| Entrypoint   | 0x0001  |
| Data Size    | 1 bytes |
| Instructions | 1       |

```
      00 01 02 03 04 05 06 07  08 09 0A 0B 0C 0D 0E 0F
      -- -- -- -- -- -- -- --  -- -- -- -- -- -- -- --
0000:    00                                              .              
```

#### Opcodes

```
  0: 0x0001 [0x00] END_REQSTACK()
```

### Event 65535.1

#### Metadata

| Field        | Value    |
|--------------|----------|
| Entrypoint   | 0x0002   |
| Data Size    | 29 bytes |
| Instructions | 8        |

```
      00 01 02 03 04 05 06 07  08 09 0A 0B 0C 0D 0E 0F
      -- -- -- -- -- -- -- --  -- -- -- -- -- -- -- --
0000:       61 00 32 00 80 1F  00 01 80 02 80 03 80 1F    a.2...........
0010: 01 4B F8 FF FF 7F 04 80  6F 76 F8 FF FF 7F 00     .K......ov..... 
```

#### Opcodes

```
  0: 0x0002 [0x61] EventEntity->Render.Flags2 &= ~0x00000001
  1: 0x0004 [0x32] ExtData[1]->MainSpeed = 10* * 0.1
  2: 0x0007 [0x1F] MOVE_ENTITY: EventEntity moves to X=-77.882*, Z=-885.072*, Y=0.052*
  3: 0x000F [0x1F] MOVE_ENTITY: Update entity position (mode=1)
  4: 0x0011 [0x4B] UPDATE_ENTITY_YAW(entity=EventEntity, yaw=3.1°*)
  5: 0x0018 [0x6F] WAIT_FRAME_DELAY: Yield until WaitTime reaches zero
  6: 0x0019 [0x76] CHECK_ENTITY_RENDER_FLAGS: Wait until EventEntity Render.Flags0 and Render.Flags3 conditions are met
  7: 0x001E [0x00] END_REQSTACK()
```

### Event 65535.2

#### Metadata

| Field        | Value    |
|--------------|----------|
| Entrypoint   | 0x001F   |
| Data Size    | 14 bytes |
| Instructions | 4        |

```
      00 01 02 03 04 05 06 07  08 09 0A 0B 0C 0D 0E 0F
      -- -- -- -- -- -- -- --  -- -- -- -- -- -- -- --
0010:                                               4B                 K
0020: F8 FF FF 7F 05 80 6F 76  F8 FF FF 7F 00           ......ov.....   
```

#### Opcodes

```
  0: 0x001F [0x4B] UPDATE_ENTITY_YAW(entity=EventEntity, yaw=3.4°*)
  1: 0x0026 [0x6F] WAIT_FRAME_DELAY: Yield until WaitTime reaches zero
  2: 0x0027 [0x76] CHECK_ENTITY_RENDER_FLAGS: Wait until EventEntity Render.Flags0 and Render.Flags3 conditions are met
  3: 0x002C [0x00] END_REQSTACK()
```

### Event 65535.3

#### Metadata

| Field        | Value    |
|--------------|----------|
| Entrypoint   | 0x002D   |
| Data Size    | 16 bytes |
| Instructions | 4        |

```
      00 01 02 03 04 05 06 07  08 09 0A 0B 0C 0D 0E 0F
      -- -- -- -- -- -- -- --  -- -- -- -- -- -- -- --
0020:                                         4A F8 FF               J..
0030: FF 7F 4F B3 05 01 6F 76  F8 FF FF 7F 00           ..O...ov.....   
```

#### Opcodes

```
  0: 0x002D [0x4A] EventEntity looks at Abenzio (ID: 17150799/0x0105B34F)
  1: 0x0036 [0x6F] WAIT_FRAME_DELAY: Yield until WaitTime reaches zero
  2: 0x0037 [0x76] CHECK_ENTITY_RENDER_FLAGS: Wait until EventEntity Render.Flags0 and Render.Flags3 conditions are met
  3: 0x003C [0x00] END_REQSTACK()
```

### Event 65535.4

#### Metadata

| Field        | Value    |
|--------------|----------|
| Entrypoint   | 0x003D   |
| Data Size    | 28 bytes |
| Instructions | 8        |

```
      00 01 02 03 04 05 06 07  08 09 0A 0B 0C 0D 0E 0F
      -- -- -- -- -- -- -- --  -- -- -- -- -- -- -- --
0030:                                         32 06 80               2..
0040: 1F 00 01 80 02 80 03 80  1F 01 6F 4B F8 FF FF 7F  ..........oK....
0050: 07 80 6F 76 F8 FF FF 7F  00                       ..ov.....       
```

#### Opcodes

```
  0: 0x003D [0x32] ExtData[1]->MainSpeed = 13* * 0.1
  1: 0x0040 [0x1F] MOVE_ENTITY: EventEntity moves to X=-77.882*, Z=-885.072*, Y=0.052*
  2: 0x0048 [0x1F] MOVE_ENTITY: Update entity position (mode=1)
  3: 0x004A [0x6F] WAIT_FRAME_DELAY: Yield until WaitTime reaches zero
  4: 0x004B [0x4B] UPDATE_ENTITY_YAW(entity=EventEntity, yaw=5.4°*)
  5: 0x0052 [0x6F] WAIT_FRAME_DELAY: Yield until WaitTime reaches zero
  6: 0x0053 [0x76] CHECK_ENTITY_RENDER_FLAGS: Wait until EventEntity Render.Flags0 and Render.Flags3 conditions are met
  7: 0x0058 [0x00] END_REQSTACK()
```

### Event 65535.5

#### Metadata

| Field        | Value    |
|--------------|----------|
| Entrypoint   | 0x0059   |
| Data Size    | 14 bytes |
| Instructions | 4        |

```
      00 01 02 03 04 05 06 07  08 09 0A 0B 0C 0D 0E 0F
      -- -- -- -- -- -- -- --  -- -- -- -- -- -- -- --
0050:                             4B F8 FF FF 7F 05 80           K......
0060: 6F 76 F8 FF FF 7F 00                              ov.....         
```

#### Opcodes

```
  0: 0x0059 [0x4B] UPDATE_ENTITY_YAW(entity=EventEntity, yaw=3.4°*)
  1: 0x0060 [0x6F] WAIT_FRAME_DELAY: Yield until WaitTime reaches zero
  2: 0x0061 [0x76] CHECK_ENTITY_RENDER_FLAGS: Wait until EventEntity Render.Flags0 and Render.Flags3 conditions are met
  3: 0x0066 [0x00] END_REQSTACK()
```

### Event 65535.6

#### Metadata

| Field        | Value    |
|--------------|----------|
| Entrypoint   | 0x0067   |
| Data Size    | 17 bytes |
| Instructions | 6        |

```
      00 01 02 03 04 05 06 07  08 09 0A 0B 0C 0D 0E 0F
      -- -- -- -- -- -- -- --  -- -- -- -- -- -- -- --
0060:                      61  00 32 06 80 1F 00 08 80         a.2......
0070: 09 80 0A 80 1F 01 6F 00                           ......o.        
```

#### Opcodes

```
  0: 0x0067 [0x61] EventEntity->Render.Flags2 &= ~0x00000001
  1: 0x0069 [0x32] ExtData[1]->MainSpeed = 13* * 0.1
  2: 0x006C [0x1F] MOVE_ENTITY: EventEntity moves to X=-77.110*, Z=-898.850*, Y=0.941*
  3: 0x0074 [0x1F] MOVE_ENTITY: Update entity position (mode=1)
  4: 0x0076 [0x6F] WAIT_FRAME_DELAY: Yield until WaitTime reaches zero
  5: 0x0077 [0x00] END_REQSTACK()
```

### Event 65535.7

#### Metadata

| Field        | Value    |
|--------------|----------|
| Entrypoint   | 0x0078   |
| Data Size    | 17 bytes |
| Instructions | 5        |

```
      00 01 02 03 04 05 06 07  08 09 0A 0B 0C 0D 0E 0F
      -- -- -- -- -- -- -- --  -- -- -- -- -- -- -- --
0070:                          1C 0B 80 4B F8 FF FF 7F          ...K....
0080: 0C 80 6F 76 F8 FF FF 7F  00                       ..ov.....       
```

#### Opcodes

```
  0: 0x0078 [0x1C] WAIT(30* ticks)
  1: 0x007B [0x4B] UPDATE_ENTITY_YAW(entity=EventEntity, yaw=8.8°*)
  2: 0x0082 [0x6F] WAIT_FRAME_DELAY: Yield until WaitTime reaches zero
  3: 0x0083 [0x76] CHECK_ENTITY_RENDER_FLAGS: Wait until EventEntity Render.Flags0 and Render.Flags3 conditions are met
  4: 0x0088 [0x00] END_REQSTACK()
```

### Event 65535.8

#### Metadata

| Field        | Value    |
|--------------|----------|
| Entrypoint   | 0x0089   |
| Data Size    | 16 bytes |
| Instructions | 4        |

```
      00 01 02 03 04 05 06 07  08 09 0A 0B 0C 0D 0E 0F
      -- -- -- -- -- -- -- --  -- -- -- -- -- -- -- --
0080:                             4A F8 FF FF 7F 4E B3           J....N.
0090: 05 01 6F 76 F8 FF FF 7F  00                       ..ov.....       
```

#### Opcodes

```
  0: 0x0089 [0x4A] EventEntity looks at Babban Ny Mheillea (ID: 17150798/0x0105B34E)
  1: 0x0092 [0x6F] WAIT_FRAME_DELAY: Yield until WaitTime reaches zero
  2: 0x0093 [0x76] CHECK_ENTITY_RENDER_FLAGS: Wait until EventEntity Render.Flags0 and Render.Flags3 conditions are met
  3: 0x0098 [0x00] END_REQSTACK()
```

### Event 65535.9

#### Metadata

| Field        | Value    |
|--------------|----------|
| Entrypoint   | 0x0099   |
| Data Size    | 16 bytes |
| Instructions | 4        |

```
      00 01 02 03 04 05 06 07  08 09 0A 0B 0C 0D 0E 0F
      -- -- -- -- -- -- -- --  -- -- -- -- -- -- -- --
0090:                             4A F8 FF FF 7F 51 B3           J....Q.
00A0: 05 01 6F 76 F8 FF FF 7F  00                       ..ov.....       
```

#### Opcodes

```
  0: 0x0099 [0x4A] EventEntity looks at Camlin (ID: 17150801/0x0105B351)
  1: 0x00A2 [0x6F] WAIT_FRAME_DELAY: Yield until WaitTime reaches zero
  2: 0x00A3 [0x76] CHECK_ENTITY_RENDER_FLAGS: Wait until EventEntity Render.Flags0 and Render.Flags3 conditions are met
  3: 0x00A8 [0x00] END_REQSTACK()
```

### Event 65535.10

#### Metadata

| Field        | Value    |
|--------------|----------|
| Entrypoint   | 0x00A9   |
| Data Size    | 14 bytes |
| Instructions | 4        |

```
      00 01 02 03 04 05 06 07  08 09 0A 0B 0C 0D 0E 0F
      -- -- -- -- -- -- -- --  -- -- -- -- -- -- -- --
00A0:                             32 0D 80 1F 00 0E 80           2......
00B0: 0F 80 10 80 1F 01 00                              .......         
```

#### Opcodes

```
  0: 0x00A9 [0x32] ExtData[1]->MainSpeed = 4* * 0.1
  1: 0x00AC [0x1F] MOVE_ENTITY: EventEntity moves to X=135.003*, Z=-406.477*, Y=24.712*
  2: 0x00B4 [0x1F] MOVE_ENTITY: Update entity position (mode=1)
  3: 0x00B6 [0x00] END_REQSTACK()
```
