# 17150737 - Rakula-Motakula

## Common Data

| Field            | Value                          |
|------------------|--------------------------------|
| Zone             | Rolanberry Fields [S] (ID: 91) |
| Block Size       | 2988 bytes                     |
| Total Events     | 2                              |
| References Count | 133                            |

## List of Events

| Event ID              | Entrypoint   |   Size |   Instructions |
|-----------------------|--------------|--------|----------------|
| [65535](#event-65535) | 0x0000       |      1 |              1 |
| [3](#event-3)         | 0x0001       |   2428 |            314 |

## DAT References (imed_data)

|   Index | Hex Value   |   Dec Value |
|---------|-------------|-------------|
|       0 | 0x00C8      |         200 |
|       1 | 0x0000      |           0 |
|       2 | 0x0013      |          19 |
|       3 | 0xFFFB2224  |  4294648356 |
|       4 | 0xFFFE27D5  |  4294846421 |
|       5 | 0xFFFFD676  |  4294956662 |
|       6 | 0x0EDC      |        3804 |
|       7 | 0xFFFBA2F6  |  4294681334 |
|       8 | 0xFFFE7743  |  4294866755 |
|       9 | 0xFFFFFE19  |  4294966809 |
|      10 | 0x09AA      |        2474 |
|      11 | 0xFFFBAC42  |  4294683714 |
|      12 | 0xFFFE815F  |  4294869343 |
|      13 | 0x0289      |         649 |
|      14 | 0xFFFBB8E6  |  4294686950 |
|      15 | 0xFFFE8EA4  |  4294872740 |
|      16 | 0x028B      |         651 |
|      17 | 0xFFFBC38C  |  4294689676 |
|      18 | 0xFFFE9B98  |  4294876056 |
|      19 | 0x0167      |         359 |
|      20 | 0xFFFBC6D4  |  4294690516 |
|      21 | 0xFFFE9ED0  |  4294876880 |
|      22 | 0x013E      |         318 |
|      23 | 0xFFFBA5D1  |  4294682065 |
|      24 | 0xFFFE7AB2  |  4294867634 |
|      25 | 0x02B4      |         692 |
|      26 | 0xFFFBB061  |  4294684769 |
|      27 | 0xFFFE852A  |  4294870314 |
|      28 | 0x029C      |         668 |
|      29 | 0xFFFBBB45  |  4294687557 |
|      30 | 0xFFFE922A  |  4294873642 |
|      31 | 0x0230      |         560 |
|      32 | 0xFFFBC0A9  |  4294688937 |
|      33 | 0xFFFE995C  |  4294875484 |
|      34 | 0x0178      |         376 |
|      35 | 0xFFFBA919  |  4294682905 |
|      36 | 0xFFFE7E3A  |  4294868538 |
|      37 | 0x02B5      |         693 |
|      38 | 0xFFFBB296  |  4294685334 |
|      39 | 0xFFFE885A  |  4294871130 |
|      40 | 0x028E      |         654 |
|      41 | 0xFFFBB5D2  |  4294686162 |
|      42 | 0xFFFE8B30  |  4294871856 |
|      43 | 0x02BA      |         698 |
|      44 | 0xFFFBBE43  |  4294688323 |
|      45 | 0xFFFE9634  |  4294874676 |
|      46 | 0x01C8      |         456 |
|      47 | 0x003C      |          60 |
|      48 | 0x0170      |         368 |
|      49 | 0x0001      |           1 |
|      50 | 0x1E49      |        7753 |
|      51 | 0x1E4A      |        7754 |
|      52 | 0x1E4B      |        7755 |
|      53 | 0x00A0      |         160 |
|      54 | 0x0031      |          49 |
|      55 | 0x1E36      |        7734 |
|      56 | 0x1E37      |        7735 |
|      57 | 0x1E38      |        7736 |
|      58 | 0x1E39      |        7737 |
|      59 | 0x0026      |          38 |
|      60 | 0x1E3A      |        7738 |
|      61 | 0x0ED8      |        3800 |
|      62 | 0x1E4C      |        7756 |
|      63 | 0x1E3B      |        7739 |
|      64 | 0x1E3C      |        7740 |
|      65 | 0x1E3D      |        7741 |
|      66 | 0x00FA      |         250 |
|      67 | 0x1E3E      |        7742 |
|      68 | 0xFFFA6A76  |  4294601334 |
|      69 | 0xFFFEB9AB  |  4294883755 |
|      70 | 0x00A5      |         165 |
|      71 | 0xFFFA73C2  |  4294603714 |
|      72 | 0xFFFEC3C7  |  4294886343 |
|      73 | 0x0EA7      |        3751 |
|      74 | 0xFFFA8066  |  4294606950 |
|      75 | 0xFFFED10C  |  4294889740 |
|      76 | 0x0E82      |        3714 |
|      77 | 0xFFFA8B0C  |  4294609676 |
|      78 | 0xFFFEDE00  |  4294893056 |
|      79 | 0xFFFA8CDC  |  4294610140 |
|      80 | 0xFFFEE1A3  |  4294893987 |
|      81 | 0x00F0      |         240 |
|      82 | 0x0EDD      |        3805 |
|      83 | 0xFFFA6D27  |  4294602023 |
|      84 | 0xFFFEBD79  |  4294884729 |
|      85 | 0x02B7      |         695 |
|      86 | 0xFFFA77E1  |  4294604769 |
|      87 | 0xFFFEC792  |  4294887314 |
|      88 | 0x0EDB      |        3803 |
|      89 | 0xFFFA82C5  |  4294607557 |
|      90 | 0xFFFED492  |  4294890642 |
|      91 | 0xFFFA8829  |  4294608937 |
|      92 | 0xFFFEDBC4  |  4294892484 |
|      93 | 0xFFFA7099  |  4294602905 |
|      94 | 0xFFFEC0A2  |  4294885538 |
|      95 | 0x0EDA      |        3802 |
|      96 | 0xFFFA7B4D  |  4294605645 |
|      97 | 0xFFFECAB7  |  4294888119 |
|      98 | 0x02A6      |         678 |
|      99 | 0x0EAA      |        3754 |
|     100 | 0xFFFA7DB4  |  4294606260 |
|     101 | 0xFFFECD2E  |  4294888750 |
|     102 | 0x02C4      |         708 |
|     103 | 0xFFFA956E  |  4294612334 |
|     104 | 0xFFF37EAB  |  4294147755 |
|     105 | 0xFFFA8681  |  4294608513 |
|     106 | 0xFFFED887  |  4294891655 |
|     107 | 0x01CA      |         458 |
|     108 | 0x000A      |          10 |
|     109 | 0x1E3F      |        7743 |
|     110 | 0x1E48      |        7752 |
|     111 | 0x0002      |           2 |
|     112 | 0x1E40      |        7744 |
|     113 | 0x1E41      |        7745 |
|     114 | 0x001E      |          30 |
|     115 | 0x1E42      |        7746 |
|     116 | 0x012C      |         300 |
|     117 | 0x1E45      |        7749 |
|     118 | 0xFFFBA5A7  |  4294682023 |
|     119 | 0xFFFE7B11  |  4294867729 |
|     120 | 0xFFFBB3CD  |  4294685645 |
|     121 | 0xFFFE884F  |  4294871119 |
|     122 | 0xFFFBB634  |  4294686260 |
|     123 | 0xFFFE8AC6  |  4294871750 |
|     124 | 0xFFFBC17A  |  4294689146 |
|     125 | 0xFFFE9C89  |  4294876297 |
|     126 | 0x015B      |         347 |
|     127 | 0xFFFBBF01  |  4294688513 |
|     128 | 0xFFFE961F  |  4294874655 |
|     129 | 0x1E44      |        7748 |
|     130 | 0x1E47      |        7751 |
|     131 | 0x1E43      |        7747 |
|     132 | 0x1E46      |        7750 |

## String References

- **7742**: What will you tell Naiko-Paneiko about? [The mandragora./The soldier's equipment./The weather in Rolanberry Fields.]
- **7749**: How many leafed mandragoras did you see? [Four./Five./Six.]
- **7750**: How many flowered mandragoras did you see? [Four./Five./Six.]
- **7751**: How many black mandragoras did you see? [Four./Five./Six.]

## Events

### Event 65535

#### Metadata

| Field        | Value   |
|--------------|---------|
| Entrypoint   | 0x0000  |
| Data Size    | 1 bytes |
| Instructions | 1       |

```
      00 01 02 03 04 05 06 07  08 09 0A 0B 0C 0D 0E 0F
      -- -- -- -- -- -- -- --  -- -- -- -- -- -- -- --
0000: 00                                                .               
```

#### Opcodes

```
  0: 0x0000 [0x00] END_REQSTACK()
```

### Event 3

#### Metadata

| Field        | Value      |
|--------------|------------|
| Entrypoint   | 0x0001     |
| Data Size    | 2428 bytes |
| Instructions | 283        |

```
      00 01 02 03 04 05 06 07  08 09 0A 0B 0C 0D 0E 0F
      -- -- -- -- -- -- -- --  -- -- -- -- -- -- -- --
0000:    42 45 00 80 F8 FF FF  7F F8 FF FF 7F 66 64 6F   BE..........fdo
0010: 31 01 80 55 00 80 F8 FF  FF 7F F8 FF FF 7F 66 64  1..U..........fd
0020: 6F 31 46 01 38 02 80 92  01 12 B3 05 01 92 01 11  o1F.8...........
0030: B3 05 01 92 01 3C B3 05  01 92 01 3D B3 05 01 92  .....<.....=....
0040: 01 3E B3 05 01 92 01 3F  B3 05 01 92 01 40 B3 05  .>.....?.....@..
0050: 01 92 01 41 B3 05 01 92  01 42 B3 05 01 92 01 43  ...A.....B.....C
0060: B3 05 01 92 01 44 B3 05  01 92 01 46 B3 05 01 92  .....D.....F....
0070: 01 47 B3 05 01 92 01 48  B3 05 01 92 01 4A B3 05  .G.....H.....J..
0080: 01 4E 00 3C B3 05 01 4E  00 3D B3 05 01 4E 00 3E  .N.<...N.=...N.>
0090: B3 05 01 4E 00 3F B3 05  01 4E 00 40 B3 05 01 4E  ...N.?...N.@...N
00A0: 00 41 B3 05 01 4E 00 42  B3 05 01 4E 00 43 B3 05  .A...N.B...N.C..
00B0: 01 4E 00 44 B3 05 01 4E  00 46 B3 05 01 4E 00 47  .N.D...N.F...N.G
00C0: B3 05 01 4E 00 48 B3 05  01 4E 00 4A B3 05 01 94  ...N.H...N.J....
00D0: 01 F0 FF FF 7F 94 01 11  B3 05 01 BA F0 FF FF 7F  ................
00E0: 03 80 04 80 05 80 06 80  BA 3C B3 05 01 07 80 08  .........<......
00F0: 80 09 80 0A 80 BA 3D B3  05 01 0B 80 0C 80 0D 80  ......=.........
0100: 0A 80 BA 3E B3 05 01 0E  80 0F 80 10 80 0A 80 BA  ...>............
0110: 3F B3 05 01 11 80 12 80  13 80 0A 80 BA 40 B3 05  ?............@..
0120: 01 14 80 15 80 16 80 0A  80 BA 41 B3 05 01 17 80  ..........A.....
0130: 18 80 19 80 0A 80 BA 42  B3 05 01 1A 80 1B 80 1C  .......B........
0140: 80 0A 80 BA 43 B3 05 01  1D 80 1E 80 1F 80 0A 80  ....C...........
0150: BA 44 B3 05 01 20 80 21  80 22 80 0A 80 BA 46 B3  .D... .!."....F.
0160: 05 01 23 80 24 80 25 80  0A 80 BA 47 B3 05 01 26  ..#.$.%....G...&
0170: 80 27 80 28 80 0A 80 BA  48 B3 05 01 29 80 2A 80  .'.(....H...).*.
0180: 2B 80 0A 80 BA 4A B3 05  01 2C 80 2D 80 2E 80 0A  +....J...,.-....
0190: 80 4A 12 B3 05 01 F0 FF  FF 7F 1C 2F 80 03 01 10  .J........./....
01A0: 01 80 45 30 80 F0 FF FF  7F F0 FF FF 7F 70 30 30  ..E0.........p00
01B0: 30 01 80 45 00 80 F0 FF  FF 7F F0 FF FF 7F 66 64  0..E..........fd
01C0: 69 31 01 80 1C 2F 80 02  09 10 31 80 00 3C 02 2B  i1.../....1..<.+
01D0: 12 B3 05 01 32 80 23 52  30 80 F0 FF FF 7F F0 FF  ....2.#R0.......
01E0: FF 7F 70 30 30 30 45 30  80 F0 FF FF 7F F0 FF FF  ..p000E0........
01F0: 7F 70 30 30 31 01 80 2B  11 B3 05 01 33 80 23 2B  .p001..+....3.#+
0200: 11 B3 05 01 34 80 23 52  30 80 F0 FF FF 7F F0 FF  ....4.#R0.......
0210: FF 7F 70 30 30 31 45 30  80 F0 FF FF 7F F0 FF FF  ..p001E0........
0220: 7F 6D 30 30 30 01 80 1C  35 80 52 30 80 F0 FF FF  .m000...5.R0....
0230: 7F F0 FF FF 7F 6D 30 30  30 01 09 03 66 36 80 12  .....m000...f6..
0240: B3 05 01 12 B3 05 01 74  6C 6B 30 2B 12 B3 05 01  .......tlk0+....
0250: 37 80 23 2B 12 B3 05 01  38 80 23 2B 12 B3 05 01  7.#+....8.#+....
0260: 39 80 23 4A 12 B3 05 01  11 B3 05 01 66 36 80 12  9.#J........f6..
0270: B3 05 01 12 B3 05 01 74  6C 6B 31 52 30 80 F0 FF  .......tlk1R0...
0280: FF 7F F0 FF FF 7F 70 30  30 30 45 30 80 F0 FF FF  ......p000E0....
0290: 7F F0 FF FF 7F 70 30 30  31 01 80 2B 11 B3 05 01  .....p001..+....
02A0: 3A 80 23 52 30 80 F0 FF  FF 7F F0 FF FF 7F 70 30  :.#R0.........p0
02B0: 30 31 45 30 80 F0 FF FF  7F F0 FF FF 7F 6D 30 30  01E0.........m00
02C0: 30 01 80 1C 35 80 52 30  80 F0 FF FF 7F F0 FF FF  0...5.R0........
02D0: 7F 6D 30 30 30 45 30 80  F0 FF FF 7F F0 FF FF 7F  .m000E0.........
02E0: 6D 30 30 31 01 80 6E 11  B3 05 01 3B 80 99 11 B3  m001..n....;....
02F0: 05 01 2B 11 B3 05 01 3C  80 23 52 30 80 F0 FF FF  ..+....<.#R0....
0300: 7F F0 FF FF 7F 6D 30 30  31 45 30 80 F0 FF FF 7F  .....m001E0.....
0310: F0 FF FF 7F 6D 30 30 32  01 80 39 3D 80 02 09 10  ....m002..9=....
0320: 31 80 00 30 03 2B 3A B3  05 01 3E 80 23 01 48 03  1..0.+:...>.#.H.
0330: 2B 3A B3 05 01 3F 80 23  2B 3A B3 05 01 40 80 23  +:...?.#+:...@.#
0340: 2B 3A B3 05 01 41 80 23  52 30 80 F0 FF FF 7F F0  +:...A.#R0......
0350: FF FF 7F 6D 30 30 32 45  30 80 F0 FF FF 7F F0 FF  ...m002E0.......
0360: FF 7F 6D 30 30 33 01 80  27 10 3C B3 05 01 02 27  ..m003..'.<....'
0370: 10 3D B3 05 01 02 27 10  3E B3 05 01 02 27 10 3F  .=....'.>....'.?
0380: B3 05 01 02 27 10 40 B3  05 01 02 27 10 41 B3 05  ....'.@....'.A..
0390: 01 02 27 10 42 B3 05 01  02 27 10 43 B3 05 01 02  ..'.B....'.C....
03A0: 27 10 44 B3 05 01 02 27  10 46 B3 05 01 02 27 10  '.D....'.F....'.
03B0: 47 B3 05 01 02 27 10 48  B3 05 01 02 27 10 4A B3  G....'.H....'.J.
03C0: 05 01 02 1C 42 80 52 30  80 F0 FF FF 7F F0 FF FF  ....B.R0........
03D0: 7F 6D 30 30 33 45 30 80  F0 FF FF 7F F0 FF FF 7F  .m003E0.........
03E0: 6D 30 30 32 01 80 24 43  80 01 80 01 80 25 02 00  m002..$C.....%..
03F0: 10 01 80 00 DD 04 52 30  80 F0 FF FF 7F F0 FF FF  ......R0........
0400: 7F 6D 30 30 32 BA 3C B3  05 01 44 80 45 80 09 80  .m002.<...D.E...
0410: 46 80 BA 3D B3 05 01 47  80 48 80 0D 80 49 80 BA  F..=...G.H...I..
0420: 3E B3 05 01 4A 80 4B 80  10 80 4C 80 BA 3F B3 05  >...J.K...L..?..
0430: 01 4D 80 4E 80 13 80 06  80 BA 40 B3 05 01 4F 80  .M.N......@...O.
0440: 50 80 51 80 52 80 BA 41  B3 05 01 53 80 54 80 55  P.Q.R..A...S.T.U
0450: 80 06 80 BA 42 B3 05 01  56 80 57 80 1C 80 58 80  ....B...V.W...X.
0460: BA 43 B3 05 01 59 80 5A  80 1F 80 52 80 BA 44 B3  .C...Y.Z...R..D.
0470: 05 01 5B 80 5C 80 22 80  58 80 BA 46 B3 05 01 5D  ..[.\.".X..F...]
0480: 80 5E 80 25 80 5F 80 BA  47 B3 05 01 60 80 61 80  .^.%._..G...`.a.
0490: 62 80 63 80 BA 48 B3 05  01 64 80 65 80 66 80 06  b.c..H...d.e.f..
04A0: 80 BA 49 B3 05 01 67 80  68 80 09 80 46 80 BA 4A  ..I...g.h...F..J
04B0: B3 05 01 69 80 6A 80 6B  80 06 80 1C 6C 80 45 30  ...i.j.k....l.E0
04C0: 80 F0 FF FF 7F F0 FF FF  7F 6D 30 30 34 01 80 1C  .........m004...
04D0: 6C 80 2B 3A B3 05 01 6D  80 23 01 13 05 02 00 10  l.+:...m.#......
04E0: 31 80 00 F8 04 03 01 10  31 80 2B 3A B3 05 01 6E  1.......1.+:...n
04F0: 80 23 01 36 09 01 13 05  02 00 10 6F 80 00 13 05  .#.6.......o....
0500: 03 01 10 31 80 2B 3A B3  05 01 6E 80 23 01 36 09  ...1.+:...n.#.6.
0510: 01 13 05 2B 3A B3 05 01  70 80 23 2B 3A B3 05 01  ...+:...p.#+:...
0520: 71 80 23 52 30 80 F0 FF  FF 7F F0 FF FF 7F 6D 30  q.#R0.........m0
0530: 30 34 45 30 80 F0 FF FF  7F F0 FF FF 7F 6D 30 30  04E0.........m00
0540: 35 01 80 27 10 3B B3 05  01 03 27 10 3C B3 05 01  5..'.;....'.<...
0550: 03 27 10 3D B3 05 01 03  27 10 3E B3 05 01 03 27  .'.=....'.>....'
0560: 10 3F B3 05 01 03 27 10  40 B3 05 01 03 27 10 41  .?....'.@....'.A
0570: B3 05 01 03 27 10 42 B3  05 01 03 27 10 43 B3 05  ....'.B....'.C..
0580: 01 03 27 10 44 B3 05 01  03 27 10 46 B3 05 01 03  ..'.D....'.F....
0590: 27 10 47 B3 05 01 03 27  10 48 B3 05 01 03 27 10  '.G....'.H....'.
05A0: 4A B3 05 01 03 1C 72 80  2B 3A B3 05 01 73 80 1C  J.....r.+:...s..
05B0: 74 80 52 30 80 F0 FF FF  7F F0 FF FF 7F 6D 30 30  t.R0.........m00
05C0: 35 45 30 80 F0 FF FF 7F  F0 FF FF 7F 6D 30 30 32  5E0.........m002
05D0: 01 80 24 75 80 01 80 01  80 25 02 00 10 01 80 00  ..$u.....%......
05E0: 9E 06 BA 3C B3 05 01 07  80 08 80 09 80 0A 80 BA  ...<............
05F0: 3D B3 05 01 0B 80 0C 80  0D 80 0A 80 BA 3E B3 05  =............>..
0600: 01 0E 80 0F 80 10 80 0A  80 BA 3F B3 05 01 11 80  ..........?.....
0610: 12 80 13 80 0A 80 BA 40  B3 05 01 14 80 15 80 16  .......@........
0620: 80 0A 80 BA 41 B3 05 01  76 80 77 80 55 80 0A 80  ....A...v.w.U...
0630: BA 42 B3 05 01 1A 80 1B  80 1C 80 0A 80 BA 43 B3  .B............C.
0640: 05 01 1D 80 1E 80 1F 80  0A 80 BA 44 B3 05 01 20  ...........D... 
0650: 80 21 80 22 80 0A 80 BA  46 B3 05 01 23 80 24 80  .!."....F...#.$.
0660: 25 80 0A 80 BA 47 B3 05  01 78 80 79 80 62 80 0A  %....G...x.y.b..
0670: 80 BA 48 B3 05 01 7A 80  7B 80 66 80 0A 80 BA 49  ..H...z.{.f....I
0680: B3 05 01 7C 80 7D 80 7E  80 0A 80 BA 4A B3 05 01  ...|.}.~....J...
0690: 7F 80 80 80 6B 80 0A 80  1C 72 80 01 D4 06 02 00  ....k....r......
06A0: 10 31 80 00 B9 06 03 01  10 6F 80 2B 3A B3 05 01  .1.......o.+:...
06B0: 6E 80 23 01 36 09 01 D4  06 02 00 10 6F 80 00 D4  n.#.6.......o...
06C0: 06 03 01 10 6F 80 2B 3A  B3 05 01 6E 80 23 01 36  ....o.+:...n.#.6
06D0: 09 01 D4 06 52 30 80 F0  FF FF 7F F0 FF FF 7F 6D  ....R0.........m
06E0: 30 30 32 45 30 80 F0 FF  FF 7F F0 FF FF 7F 6D 30  002E0.........m0
06F0: 30 36 01 80 27 10 3B B3  05 01 02 27 10 3C B3 05  06..'.;....'.<..
0700: 01 02 27 10 3D B3 05 01  02 27 10 3E B3 05 01 02  ..'.=....'.>....
0710: 27 10 3F B3 05 01 02 27  10 40 B3 05 01 02 27 10  '.?....'.@....'.
0720: 41 B3 05 01 02 27 10 42  B3 05 01 02 27 10 43 B3  A....'.B....'.C.
0730: 05 01 02 27 10 44 B3 05  01 02 27 10 46 B3 05 01  ...'.D....'.F...
0740: 02 27 10 47 B3 05 01 02  27 10 48 B3 05 01 02 27  .'.G....'.H....'
0750: 10 4A B3 05 01 02 1C 72  80 2B 3A B3 05 01 81 80  .J.....r.+:.....
0760: 1C 42 80 52 30 80 F0 FF  FF 7F F0 FF FF 7F 6D 30  .B.R0.........m0
0770: 30 36 45 30 80 F0 FF FF  7F F0 FF FF 7F 6D 30 30  06E0.........m00
0780: 32 01 80 24 82 80 01 80  01 80 25 02 00 10 01 80  2..$......%.....
0790: 00 FB 07 27 0A 3B B3 05  01 04 27 0A 3C B3 05 01  ...'.;....'.<...
07A0: 04 27 0A 3D B3 05 01 04  27 0A 3E B3 05 01 04 27  .'.=....'.>....'
07B0: 0A 3F B3 05 01 04 27 0A  40 B3 05 01 04 27 0A 41  .?....'.@....'.A
07C0: B3 05 01 04 27 0A 42 B3  05 01 04 27 0A 43 B3 05  ....'.B....'.C..
07D0: 01 04 27 0A 44 B3 05 01  04 27 0A 46 B3 05 01 04  ..'.D....'.F....
07E0: 27 0A 47 B3 05 01 04 27  0A 48 B3 05 01 04 27 0A  '.G....'.H....'.
07F0: 4A B3 05 01 04 1C 72 80  01 31 08 02 00 10 31 80  J.....r..1....1.
0800: 00 16 08 03 01 10 6F 80  2B 3A B3 05 01 6E 80 23  ......o.+:...n.#
0810: 01 36 09 01 31 08 02 00  10 6F 80 00 31 08 03 01  .6..1....o..1...
0820: 10 6F 80 2B 3A B3 05 01  6E 80 23 01 36 09 01 31  .o.+:...n.#.6..1
0830: 08 52 30 80 F0 FF FF 7F  F0 FF FF 7F 6D 30 30 32  .R0.........m002
0840: 45 30 80 F0 FF FF 7F F0  FF FF 7F 6D 30 30 37 01  E0.........m007.
0850: 80 27 10 3B B3 05 01 03  27 10 3C B3 05 01 03 27  .'.;....'.<....'
0860: 10 3D B3 05 01 03 27 10  3E B3 05 01 03 27 10 3F  .=....'.>....'.?
0870: B3 05 01 03 27 10 40 B3  05 01 03 27 10 41 B3 05  ....'.@....'.A..
0880: 01 03 27 10 42 B3 05 01  03 27 10 43 B3 05 01 03  ..'.B....'.C....
0890: 27 10 44 B3 05 01 03 27  10 46 B3 05 01 03 27 10  '.D....'.F....'.
08A0: 47 B3 05 01 03 27 10 48  B3 05 01 03 27 10 4A B3  G....'.H....'.J.
08B0: 05 01 03 1C 72 80 2B 3A  B3 05 01 83 80 1C 00 80  ....r.+:........
08C0: 52 30 80 F0 FF FF 7F F0  FF FF 7F 6D 30 30 37 45  R0.........m007E
08D0: 30 80 F0 FF FF 7F F0 FF  FF 7F 6D 30 30 32 01 80  0.........m002..
08E0: 24 84 80 01 80 01 80 25  02 00 10 01 80 00 03 09  $......%........
08F0: 03 01 10 6F 80 2B 3A B3  05 01 6E 80 23 01 36 09  ...o.+:...n.#.6.
0900: 01 2E 09 02 00 10 31 80  00 13 09 03 01 10 01 80  ......1.........
0910: 01 2E 09 02 00 10 6F 80  00 2E 09 03 01 10 6F 80  ......o.......o.
0920: 2B 3A B3 05 01 6E 80 23  01 36 09 01 2E 09 2B 3A  +:...n.#.6....+:
0930: B3 05 01 6E 80 23 1C 2F  80 45 00 80 F8 FF FF 7F  ...n.#./.E......
0940: F8 FF FF 7F 66 64 6F 31  01 80 55 00 80 F8 FF FF  ....fdo1..U.....
0950: 7F F8 FF FF 7F 66 64 6F  31 52 30 80 F0 FF FF 7F  .....fdo1R0.....
0960: F0 FF FF 7F 6D 30 30 32  46 00 45 00 80 F0 FF FF  ....m002F.E.....
0970: 7F F0 FF FF 7F 66 64 69  32 01 80 21 00           .....fdi2..!.   
```

#### Opcodes

```
  0: 0x0001 [0x42] SET_CLI_EVENT_CANCEL_DATA()
  1: 0x0002 [0x45] LOAD_SCHEDULED_TASK: Load scheduler "fdo1" with entities [EventEntity, EventEntity], work=[200*, 0*]
  2: 0x0013 [0x55] WAIT_LOAD_SCHEDULER: Wait for scheduler "fdo1" with entities [EventEntity, EventEntity], work=200*
  3: 0x0022 [0x46] CAMERA_CONTROL: Disable user control
  4: 0x0024 [0x38] SET_CLIENT_EVENT_MODE(mode=19*)
  5: 0x0027 [0x92] Merim-Kurim (ID: 17150738/0x0105B312)->Render.Flags3 ^= 0x01
  6: 0x002D [0x92] Rakula-Motakula (ID: 17150737/0x0105B311)->Render.Flags3 ^= 0x01
  7: 0x0033 [0x92] 2 (ID: 17150780/0x0105B33C)->Render.Flags3 ^= 0x01
  8: 0x0039 [0x92] 3 (ID: 17150781/0x0105B33D)->Render.Flags3 ^= 0x01
  9: 0x003F [0x92] 4 (ID: 17150782/0x0105B33E)->Render.Flags3 ^= 0x01
 10: 0x0045 [0x92] 5 (ID: 17150783/0x0105B33F)->Render.Flags3 ^= 0x01
 11: 0x004B [0x92] 1 (ID: 17150784/0x0105B340)->Render.Flags3 ^= 0x01
 12: 0x0051 [0x92] 2 (ID: 17150785/0x0105B341)->Render.Flags3 ^= 0x01
 13: 0x0057 [0x92] 3 (ID: 17150786/0x0105B342)->Render.Flags3 ^= 0x01
 14: 0x005D [0x92] 4 (ID: 17150787/0x0105B343)->Render.Flags3 ^= 0x01
 15: 0x0063 [0x92] 5 (ID: 17150788/0x0105B344)->Render.Flags3 ^= 0x01
 16: 0x0069 [0x92] 02 (ID: 17150790/0x0105B346)->Render.Flags3 ^= 0x01
 17: 0x006F [0x92] 03 (ID: 17150791/0x0105B347)->Render.Flags3 ^= 0x01
 18: 0x0075 [0x92] 04 (ID: 17150792/0x0105B348)->Render.Flags3 ^= 0x01
 19: 0x007B [0x92] 06 (ID: 17150794/0x0105B34A)->Render.Flags3 ^= 0x01
 20: 0x0081 [0x4E] SET_ENTITY_HIDE_FLAG: Show 2 (ID: 17150780/0x0105B33C)
 21: 0x0087 [0x4E] SET_ENTITY_HIDE_FLAG: Show 3 (ID: 17150781/0x0105B33D)
 22: 0x008D [0x4E] SET_ENTITY_HIDE_FLAG: Show 4 (ID: 17150782/0x0105B33E)
 23: 0x0093 [0x4E] SET_ENTITY_HIDE_FLAG: Show 5 (ID: 17150783/0x0105B33F)
 24: 0x0099 [0x4E] SET_ENTITY_HIDE_FLAG: Show 1 (ID: 17150784/0x0105B340)
 25: 0x009F [0x4E] SET_ENTITY_HIDE_FLAG: Show 2 (ID: 17150785/0x0105B341)
 26: 0x00A5 [0x4E] SET_ENTITY_HIDE_FLAG: Show 3 (ID: 17150786/0x0105B342)
 27: 0x00AB [0x4E] SET_ENTITY_HIDE_FLAG: Show 4 (ID: 17150787/0x0105B343)
 28: 0x00B1 [0x4E] SET_ENTITY_HIDE_FLAG: Show 5 (ID: 17150788/0x0105B344)
 29: 0x00B7 [0x4E] SET_ENTITY_HIDE_FLAG: Show 02 (ID: 17150790/0x0105B346)
 30: 0x00BD [0x4E] SET_ENTITY_HIDE_FLAG: Show 03 (ID: 17150791/0x0105B347)
 31: 0x00C3 [0x4E] SET_ENTITY_HIDE_FLAG: Show 04 (ID: 17150792/0x0105B348)
 32: 0x00C9 [0x4E] SET_ENTITY_HIDE_FLAG: Show 06 (ID: 17150794/0x0105B34A)
 33: 0x00CF [0x94] LocalPlayer->Render.Flags3 ^= 0x01
 34: 0x00D5 [0x94] Rakula-Motakula (ID: 17150737/0x0105B311)->Render.Flags3 ^= 0x01
 35: 0x00DB [0xBA] SET_ENTITY_POSITION(entity_id=LocalPlayer, pos_x=-318.940*, pos_z=-120.875*, pos_y=-10.634*, direction=334.3°*)
 36: 0x00E8 [0xBA] SET_ENTITY_POSITION(entity_id=2 (ID: 17150780/0x0105B33C), pos_x=-285.962*, pos_z=-100.541*, pos_y=-0.487*, direction=217.4°*)
 37: 0x00F5 [0xBA] SET_ENTITY_POSITION(entity_id=3 (ID: 17150781/0x0105B33D), pos_x=-283.582*, pos_z=-97.953*, pos_y=0.649*, direction=217.4°*)
 38: 0x0102 [0xBA] SET_ENTITY_POSITION(entity_id=4 (ID: 17150782/0x0105B33E), pos_x=-280.346*, pos_z=-94.556*, pos_y=0.651*, direction=217.4°*)
 39: 0x010F [0xBA] SET_ENTITY_POSITION(entity_id=5 (ID: 17150783/0x0105B33F), pos_x=-277.620*, pos_z=-91.240*, pos_y=0.359*, direction=217.4°*)
 40: 0x011C [0xBA] SET_ENTITY_POSITION(entity_id=1 (ID: 17150784/0x0105B340), pos_x=-276.780*, pos_z=-90.416*, pos_y=0.318*, direction=217.4°*)
 41: 0x0129 [0xBA] SET_ENTITY_POSITION(entity_id=2 (ID: 17150785/0x0105B341), pos_x=-285.231*, pos_z=-99.662*, pos_y=0.692*, direction=217.4°*)
 42: 0x0136 [0xBA] SET_ENTITY_POSITION(entity_id=3 (ID: 17150786/0x0105B342), pos_x=-282.527*, pos_z=-96.982*, pos_y=0.668*, direction=217.4°*)
 43: 0x0143 [0xBA] SET_ENTITY_POSITION(entity_id=4 (ID: 17150787/0x0105B343), pos_x=-279.739*, pos_z=-93.654*, pos_y=0.560*, direction=217.4°*)
 44: 0x0150 [0xBA] SET_ENTITY_POSITION(entity_id=5 (ID: 17150788/0x0105B344), pos_x=-278.359*, pos_z=-91.812*, pos_y=0.376*, direction=217.4°*)
 45: 0x015D [0xBA] SET_ENTITY_POSITION(entity_id=02 (ID: 17150790/0x0105B346), pos_x=-284.391*, pos_z=-98.758*, pos_y=0.693*, direction=217.4°*)
 46: 0x016A [0xBA] SET_ENTITY_POSITION(entity_id=03 (ID: 17150791/0x0105B347), pos_x=-281.962*, pos_z=-96.166*, pos_y=0.654*, direction=217.4°*)
 47: 0x0177 [0xBA] SET_ENTITY_POSITION(entity_id=04 (ID: 17150792/0x0105B348), pos_x=-281.134*, pos_z=-95.440*, pos_y=0.698*, direction=217.4°*)
 48: 0x0184 [0xBA] SET_ENTITY_POSITION(entity_id=06 (ID: 17150794/0x0105B34A), pos_x=-278.973*, pos_z=-92.620*, pos_y=0.456*, direction=217.4°*)
 49: 0x0191 [0x4A] Merim-Kurim (ID: 17150738/0x0105B312) looks at LocalPlayer
 50: 0x019A [0x1C] WAIT(60* ticks)
 51: 0x019D [0x03] Work_Zone[1] = 0*
 52: 0x01A2 [0x45] LOAD_SCHEDULED_TASK: Load scheduler "p000" with entities [LocalPlayer, LocalPlayer], work=[368*, 0*]
 53: 0x01B3 [0x45] LOAD_SCHEDULED_TASK: Load scheduler "fdi1" with entities [LocalPlayer, LocalPlayer], work=[200*, 0*]
 54: 0x01C4 [0x1C] WAIT(60* ticks)
 55: 0x01C7 [0x02] IF !(Work_Zone[9] == 1*) GOTO 0x023C
 56: 0x01CF [0x2B] Merim-Kurim (ID: 17150738/0x0105B312) [7753*]:
    → "Oh, it's you again. Have you come to see the mandragora-wora?"
 57: 0x01D6 [0x23] WAIT_FOR_DIALOG_INTERACTION
 58: 0x01D7 [0x52] END_LOAD_SCHEDULER: End scheduler "p000" with entities [LocalPlayer, LocalPlayer], work=368*
 59: 0x01E6 [0x45] LOAD_SCHEDULED_TASK: Load scheduler "p001" with entities [LocalPlayer, LocalPlayer], work=[368*, 0*]
 60: 0x01F7 [0x2B] Rakula-Motakula (ID: 17150737/0x0105B311) [7754*]:
    → "I wouldn'taru go too far that way if I were you. They were roaming around that area until just a bit ago."
 61: 0x01FE [0x23] WAIT_FOR_DIALOG_INTERACTION
 62: 0x01FF [0x2B] Rakula-Motakula (ID: 17150737/0x0105B311) [7755*]:
    → "Th-There they are!"
 63: 0x0206 [0x23] WAIT_FOR_DIALOG_INTERACTION
 64: 0x0207 [0x52] END_LOAD_SCHEDULER: End scheduler "p001" with entities [LocalPlayer, LocalPlayer], work=368*
 65: 0x0216 [0x45] LOAD_SCHEDULED_TASK: Load scheduler "m000" with entities [LocalPlayer, LocalPlayer], work=[368*, 0*]
 66: 0x0227 [0x1C] WAIT(160* ticks)
 67: 0x022A [0x52] END_LOAD_SCHEDULER: End scheduler "m000" with entities [LocalPlayer, LocalPlayer], work=368*
 68: 0x0239 [0x01] GOTO 0x0309
 69: 0x023C [0x66] LOAD_EXT_SCHEDULER_MAIN: Load scheduler "tlk0" with entities [Merim-Kurim (ID: 17150738/0x0105B312), Merim-Kurim (ID: 17150738/0x0105B312)], work=49*
 70: 0x024B [0x2B] Merim-Kurim (ID: 17150738/0x0105B312) [7734*]:
    → "These are dangerous lands, adventurer. We advise that you distance yourself from here."
 71: 0x0252 [0x23] WAIT_FOR_DIALOG_INTERACTION
 72: 0x0253 [0x2B] Merim-Kurim (ID: 17150738/0x0105B312) [7735*]:
    → "We are a Caster Company of the Federal Forces of Windurst. We hastened here after receiving intelligence of an infestarutation of monsters in the vicini-winity."
 73: 0x025A [0x23] WAIT_FOR_DIALOG_INTERACTION
 74: 0x025B [0x2B] Merim-Kurim (ID: 17150738/0x0105B312) [7736*]:
    → "If you have no busi-wusiness here, then you should evacuataru th-- Hm?"
 75: 0x0262 [0x23] WAIT_FOR_DIALOG_INTERACTION
 76: 0x0263 [0x4A] Merim-Kurim (ID: 17150738/0x0105B312) looks at Rakula-Motakula (ID: 17150737/0x0105B311)
 77: 0x026C [0x66] LOAD_EXT_SCHEDULER_MAIN: Load scheduler "tlk1" with entities [Merim-Kurim (ID: 17150738/0x0105B312), Merim-Kurim (ID: 17150738/0x0105B312)], work=49*
 78: 0x027B [0x52] END_LOAD_SCHEDULER: End scheduler "p000" with entities [LocalPlayer, LocalPlayer], work=368*
 79: 0x028A [0x45] LOAD_SCHEDULED_TASK: Load scheduler "p001" with entities [LocalPlayer, LocalPlayer], work=[368*, 0*]
 80: 0x029B [0x2B] Rakula-Motakula (ID: 17150737/0x0105B311) [7737*]:
    → "Wh-what is that!?"
 81: 0x02A2 [0x23] WAIT_FOR_DIALOG_INTERACTION
 82: 0x02A3 [0x52] END_LOAD_SCHEDULER: End scheduler "p001" with entities [LocalPlayer, LocalPlayer], work=368*
 83: 0x02B2 [0x45] LOAD_SCHEDULED_TASK: Load scheduler "m000" with entities [LocalPlayer, LocalPlayer], work=[368*, 0*]
 84: 0x02C3 [0x1C] WAIT(160* ticks)
 85: 0x02C6 [0x52] END_LOAD_SCHEDULER: End scheduler "m000" with entities [LocalPlayer, LocalPlayer], work=368*
 86: 0x02D5 [0x45] LOAD_SCHEDULED_TASK: Load scheduler "m001" with entities [LocalPlayer, LocalPlayer], work=[368*, 0*]
 87: 0x02E6 [0x6E] Rakula-Motakula (ID: 17150737/0x0105B311) uses emote 38*
 88: 0x02ED [0x99] Wait for Rakula-Motakula (ID: 17150737/0x0105B311) animation to complete
 89: 0x02F2 [0x2B] Rakula-Motakula (ID: 17150737/0x0105B311) [7738*]:
    → "I...I've never seen so ma-many-wany ma-mandra-wandra...gora...?"
 90: 0x02F9 [0x23] WAIT_FOR_DIALOG_INTERACTION
 91: 0x02FA [0x52] END_LOAD_SCHEDULER: End scheduler "m001" with entities [LocalPlayer, LocalPlayer], work=368*

SUBROUTINE_0309:
 92: 0x0309 [0x45] LOAD_SCHEDULED_TASK: Load scheduler "m002" with entities [LocalPlayer, LocalPlayer], work=[368*, 0*]
 93: 0x031A [0x39] SET_ENTITY_DIRECTION(direction=20.9°*)
 94: 0x031D [0x02] IF !(Work_Zone[9] == 1*) GOTO 0x0330
 95: 0x0325 [0x2B] Naiko-Paneiko (ID: 17150778/0x0105B33A) [7756*]:
    → "Now's your chance, kid! Make sure you see how many of each varietaru there are and then report back to me. The people must know!"
 96: 0x032C [0x23] WAIT_FOR_DIALOG_INTERACTION
 97: 0x032D [0x01] GOTO 0x0348
 98: 0x0330 [0x2B] Naiko-Paneiko (ID: 17150778/0x0105B33A) [7739*]:
    → "Ah, ah, ahhh. Testaru, testaru, testaru."
 99: 0x0337 [0x23] WAIT_FOR_DIALOG_INTERACTION
100: 0x0338 [0x2B] Naiko-Paneiko (ID: 17150778/0x0105B33A) [7740*]:
    → "Hello, out theeere! It's me, Naiko-Paneiko!"
101: 0x033F [0x23] WAIT_FOR_DIALOG_INTERACTION
102: 0x0340 [0x2B] Naiko-Paneiko (ID: 17150778/0x0105B33A) [7741*]:
    → "Hm? What's going on, kid? Did something happen?"
103: 0x0347 [0x23] WAIT_FOR_DIALOG_INTERACTION

SUBROUTINE_0348:
104: 0x0348 [0x52] END_LOAD_SCHEDULER: End scheduler "m002" with entities [LocalPlayer, LocalPlayer], work=368*
105: 0x0357 [0x45] LOAD_SCHEDULED_TASK: Load scheduler "m003" with entities [LocalPlayer, LocalPlayer], work=[368*, 0*]
106: 0x0368 [0x27] REQ_SET(priority=0x10, entity_id=2 (ID: 17150780/0x0105B33C), tag_num=0x02)
107: 0x036F [0x27] REQ_SET(priority=0x10, entity_id=3 (ID: 17150781/0x0105B33D), tag_num=0x02)
108: 0x0376 [0x27] REQ_SET(priority=0x10, entity_id=4 (ID: 17150782/0x0105B33E), tag_num=0x02)
109: 0x037D [0x27] REQ_SET(priority=0x10, entity_id=5 (ID: 17150783/0x0105B33F), tag_num=0x02)
110: 0x0384 [0x27] REQ_SET(priority=0x10, entity_id=1 (ID: 17150784/0x0105B340), tag_num=0x02)
111: 0x038B [0x27] REQ_SET(priority=0x10, entity_id=2 (ID: 17150785/0x0105B341), tag_num=0x02)
112: 0x0392 [0x27] REQ_SET(priority=0x10, entity_id=3 (ID: 17150786/0x0105B342), tag_num=0x02)
113: 0x0399 [0x27] REQ_SET(priority=0x10, entity_id=4 (ID: 17150787/0x0105B343), tag_num=0x02)
114: 0x03A0 [0x27] REQ_SET(priority=0x10, entity_id=5 (ID: 17150788/0x0105B344), tag_num=0x02)
115: 0x03A7 [0x27] REQ_SET(priority=0x10, entity_id=02 (ID: 17150790/0x0105B346), tag_num=0x02)
116: 0x03AE [0x27] REQ_SET(priority=0x10, entity_id=03 (ID: 17150791/0x0105B347), tag_num=0x02)
117: 0x03B5 [0x27] REQ_SET(priority=0x10, entity_id=04 (ID: 17150792/0x0105B348), tag_num=0x02)
118: 0x03BC [0x27] REQ_SET(priority=0x10, entity_id=06 (ID: 17150794/0x0105B34A), tag_num=0x02)
119: 0x03C3 [0x1C] WAIT(250* ticks)
120: 0x03C6 [0x52] END_LOAD_SCHEDULER: End scheduler "m003" with entities [LocalPlayer, LocalPlayer], work=368*
121: 0x03D5 [0x45] LOAD_SCHEDULED_TASK: Load scheduler "m002" with entities [LocalPlayer, LocalPlayer], work=[368*, 0*]
122: 0x03E6 [0x24] CREATE_DIALOG(message_id=7742*, default_option=0*, option_flags=0*)
    → "What will you tell Naiko-Paneiko about? [The mandragora./The soldier's equipment./The weather in Rolanberry Fields.]"
123: 0x03ED [0x25] WAIT_DIALOG_SELECT()
124: 0x03EE [0x02] IF !(Work_Zone[0] == 0*) GOTO 0x04DD
125: 0x03F6 [0x52] END_LOAD_SCHEDULER: End scheduler "m002" with entities [LocalPlayer, LocalPlayer], work=368*
126: 0x0405 [0xBA] SET_ENTITY_POSITION(entity_id=2 (ID: 17150780/0x0105B33C), pos_x=-365.962*, pos_z=-83.541*, pos_y=-0.487*, direction=14.5°*)
127: 0x0412 [0xBA] SET_ENTITY_POSITION(entity_id=3 (ID: 17150781/0x0105B33D), pos_x=-363.582*, pos_z=-80.953*, pos_y=0.649*, direction=329.7°*)
128: 0x041F [0xBA] SET_ENTITY_POSITION(entity_id=4 (ID: 17150782/0x0105B33E), pos_x=-360.346*, pos_z=-77.556*, pos_y=0.651*, direction=326.4°*)
129: 0x042C [0xBA] SET_ENTITY_POSITION(entity_id=5 (ID: 17150783/0x0105B33F), pos_x=-357.620*, pos_z=-74.240*, pos_y=0.359*, direction=334.3°*)
130: 0x0439 [0xBA] SET_ENTITY_POSITION(entity_id=1 (ID: 17150784/0x0105B340), pos_x=-357.156*, pos_z=-73.309*, pos_y=0.240*, direction=334.4°*)
131: 0x0446 [0xBA] SET_ENTITY_POSITION(entity_id=2 (ID: 17150785/0x0105B341), pos_x=-365.273*, pos_z=-82.567*, pos_y=0.695*, direction=334.3°*)
132: 0x0453 [0xBA] SET_ENTITY_POSITION(entity_id=3 (ID: 17150786/0x0105B342), pos_x=-362.527*, pos_z=-79.982*, pos_y=0.668*, direction=334.2°*)
133: 0x0460 [0xBA] SET_ENTITY_POSITION(entity_id=4 (ID: 17150787/0x0105B343), pos_x=-359.739*, pos_z=-76.654*, pos_y=0.560*, direction=334.4°*)
134: 0x046D [0xBA] SET_ENTITY_POSITION(entity_id=5 (ID: 17150788/0x0105B344), pos_x=-358.359*, pos_z=-74.812*, pos_y=0.376*, direction=334.2°*)
135: 0x047A [0xBA] SET_ENTITY_POSITION(entity_id=02 (ID: 17150790/0x0105B346), pos_x=-364.391*, pos_z=-81.758*, pos_y=0.693*, direction=334.2°*)
136: 0x0487 [0xBA] SET_ENTITY_POSITION(entity_id=03 (ID: 17150791/0x0105B347), pos_x=-361.651*, pos_z=-79.177*, pos_y=0.678*, direction=329.9°*)
137: 0x0494 [0xBA] SET_ENTITY_POSITION(entity_id=04 (ID: 17150792/0x0105B348), pos_x=-361.036*, pos_z=-78.546*, pos_y=0.708*, direction=334.3°*)
138: 0x04A1 [0xBA] SET_ENTITY_POSITION(entity_id=05 (ID: 17150793/0x0105B349), pos_x=-354.962*, pos_z=-819.541*, pos_y=-0.487*, direction=14.5°*)
139: 0x04AE [0xBA] SET_ENTITY_POSITION(entity_id=06 (ID: 17150794/0x0105B34A), pos_x=-358.783*, pos_z=-75.641*, pos_y=0.458*, direction=334.3°*)
140: 0x04BB [0x1C] WAIT(10* ticks)
141: 0x04BE [0x45] LOAD_SCHEDULED_TASK: Load scheduler "m004" with entities [LocalPlayer, LocalPlayer], work=[368*, 0*]
142: 0x04CF [0x1C] WAIT(10* ticks)
143: 0x04D2 [0x2B] Naiko-Paneiko (ID: 17150778/0x0105B33A) [7743*]:
    → "......What!? An exorbi-worbitant number of mandragora? They just appeared!? And in all varietarus!?"
144: 0x04D9 [0x23] WAIT_FOR_DIALOG_INTERACTION
145: 0x04DA [0x01] GOTO 0x0513
146: 0x04DD [0x02] IF !(Work_Zone[0] == 1*) GOTO 0x04F8
147: 0x04E5 [0x03] Work_Zone[1] = 1*
148: 0x04EA [0x2B] Naiko-Paneiko (ID: 17150778/0x0105B33A) [7752*]:
    → "All rightaru, I got it! I'll throw together a mockup right away and make sure it gets printed in the next edition!"
149: 0x04F1 [0x23] WAIT_FOR_DIALOG_INTERACTION
150: 0x04F2 [0x01] GOTO 0x0936

SUBROUTINE_0513:
151: 0x0513 [0x2B] Naiko-Paneiko (ID: 17150778/0x0105B33A) [7744*]:
    → "Oooooo, I really wish I could see that with my own peepers."
152: 0x051A [0x23] WAIT_FOR_DIALOG_INTERACTION
153: 0x051B [0x2B] Naiko-Paneiko (ID: 17150778/0x0105B33A) [7745*]:
    → "But this is no time for lamentaruing! Tell me exactly what you see!"
154: 0x0522 [0x23] WAIT_FOR_DIALOG_INTERACTION
155: 0x0523 [0x52] END_LOAD_SCHEDULER: End scheduler "m004" with entities [LocalPlayer, LocalPlayer], work=368*
156: 0x0532 [0x45] LOAD_SCHEDULED_TASK: Load scheduler "m005" with entities [LocalPlayer, LocalPlayer], work=[368*, 0*]
157: 0x0543 [0x27] REQ_SET(priority=0x10, entity_id=1 (ID: 17150779/0x0105B33B), tag_num=0x03)
158: 0x054A [0x27] REQ_SET(priority=0x10, entity_id=2 (ID: 17150780/0x0105B33C), tag_num=0x03)
159: 0x0551 [0x27] REQ_SET(priority=0x10, entity_id=3 (ID: 17150781/0x0105B33D), tag_num=0x03)
160: 0x0558 [0x27] REQ_SET(priority=0x10, entity_id=4 (ID: 17150782/0x0105B33E), tag_num=0x03)
161: 0x055F [0x27] REQ_SET(priority=0x10, entity_id=5 (ID: 17150783/0x0105B33F), tag_num=0x03)
162: 0x0566 [0x27] REQ_SET(priority=0x10, entity_id=1 (ID: 17150784/0x0105B340), tag_num=0x03)
163: 0x056D [0x27] REQ_SET(priority=0x10, entity_id=2 (ID: 17150785/0x0105B341), tag_num=0x03)
164: 0x0574 [0x27] REQ_SET(priority=0x10, entity_id=3 (ID: 17150786/0x0105B342), tag_num=0x03)
165: 0x057B [0x27] REQ_SET(priority=0x10, entity_id=4 (ID: 17150787/0x0105B343), tag_num=0x03)
166: 0x0582 [0x27] REQ_SET(priority=0x10, entity_id=5 (ID: 17150788/0x0105B344), tag_num=0x03)
167: 0x0589 [0x27] REQ_SET(priority=0x10, entity_id=02 (ID: 17150790/0x0105B346), tag_num=0x03)
168: 0x0590 [0x27] REQ_SET(priority=0x10, entity_id=03 (ID: 17150791/0x0105B347), tag_num=0x03)
169: 0x0597 [0x27] REQ_SET(priority=0x10, entity_id=04 (ID: 17150792/0x0105B348), tag_num=0x03)
170: 0x059E [0x27] REQ_SET(priority=0x10, entity_id=06 (ID: 17150794/0x0105B34A), tag_num=0x03)
171: 0x05A5 [0x1C] WAIT(30* ticks)
172: 0x05A8 [0x2B] Naiko-Paneiko (ID: 17150778/0x0105B33A) [7746*]:
    → "How many leafed mandragoras are there?"
173: 0x05AF [0x1C] WAIT(300* ticks)
174: 0x05B2 [0x52] END_LOAD_SCHEDULER: End scheduler "m005" with entities [LocalPlayer, LocalPlayer], work=368*
175: 0x05C1 [0x45] LOAD_SCHEDULED_TASK: Load scheduler "m002" with entities [LocalPlayer, LocalPlayer], work=[368*, 0*]
176: 0x05D2 [0x24] CREATE_DIALOG(message_id=7749*, default_option=0*, option_flags=0*)
    → "How many leafed mandragoras did you see? [Four./Five./Six.]"
177: 0x05D9 [0x25] WAIT_DIALOG_SELECT()
178: 0x05DA [0x02] IF !(Work_Zone[0] == 0*) GOTO 0x069E
179: 0x05E2 [0xBA] SET_ENTITY_POSITION(entity_id=2 (ID: 17150780/0x0105B33C), pos_x=-285.962*, pos_z=-100.541*, pos_y=-0.487*, direction=217.4°*)
180: 0x05EF [0xBA] SET_ENTITY_POSITION(entity_id=3 (ID: 17150781/0x0105B33D), pos_x=-283.582*, pos_z=-97.953*, pos_y=0.649*, direction=217.4°*)
181: 0x05FC [0xBA] SET_ENTITY_POSITION(entity_id=4 (ID: 17150782/0x0105B33E), pos_x=-280.346*, pos_z=-94.556*, pos_y=0.651*, direction=217.4°*)
182: 0x0609 [0xBA] SET_ENTITY_POSITION(entity_id=5 (ID: 17150783/0x0105B33F), pos_x=-277.620*, pos_z=-91.240*, pos_y=0.359*, direction=217.4°*)
183: 0x0616 [0xBA] SET_ENTITY_POSITION(entity_id=1 (ID: 17150784/0x0105B340), pos_x=-276.780*, pos_z=-90.416*, pos_y=0.318*, direction=217.4°*)
184: 0x0623 [0xBA] SET_ENTITY_POSITION(entity_id=2 (ID: 17150785/0x0105B341), pos_x=-285.273*, pos_z=-99.567*, pos_y=0.695*, direction=217.4°*)
185: 0x0630 [0xBA] SET_ENTITY_POSITION(entity_id=3 (ID: 17150786/0x0105B342), pos_x=-282.527*, pos_z=-96.982*, pos_y=0.668*, direction=217.4°*)
186: 0x063D [0xBA] SET_ENTITY_POSITION(entity_id=4 (ID: 17150787/0x0105B343), pos_x=-279.739*, pos_z=-93.654*, pos_y=0.560*, direction=217.4°*)
187: 0x064A [0xBA] SET_ENTITY_POSITION(entity_id=5 (ID: 17150788/0x0105B344), pos_x=-278.359*, pos_z=-91.812*, pos_y=0.376*, direction=217.4°*)
188: 0x0657 [0xBA] SET_ENTITY_POSITION(entity_id=02 (ID: 17150790/0x0105B346), pos_x=-284.391*, pos_z=-98.758*, pos_y=0.693*, direction=217.4°*)
189: 0x0664 [0xBA] SET_ENTITY_POSITION(entity_id=03 (ID: 17150791/0x0105B347), pos_x=-281.651*, pos_z=-96.177*, pos_y=0.678*, direction=217.4°*)
190: 0x0671 [0xBA] SET_ENTITY_POSITION(entity_id=04 (ID: 17150792/0x0105B348), pos_x=-281.036*, pos_z=-95.546*, pos_y=0.708*, direction=217.4°*)
191: 0x067E [0xBA] SET_ENTITY_POSITION(entity_id=05 (ID: 17150793/0x0105B349), pos_x=-278.150*, pos_z=-90.999*, pos_y=0.347*, direction=217.4°*)
192: 0x068B [0xBA] SET_ENTITY_POSITION(entity_id=06 (ID: 17150794/0x0105B34A), pos_x=-278.783*, pos_z=-92.641*, pos_y=0.458*, direction=217.4°*)
193: 0x0698 [0x1C] WAIT(30* ticks)
194: 0x069B [0x01] GOTO 0x06D4
195: 0x069E [0x02] IF !(Work_Zone[0] == 1*) GOTO 0x06B9
196: 0x06A6 [0x03] Work_Zone[1] = 2*
197: 0x06AB [0x2B] Naiko-Paneiko (ID: 17150778/0x0105B33A) [7752*]:
    → "All rightaru, I got it! I'll throw together a mockup right away and make sure it gets printed in the next edition!"
198: 0x06B2 [0x23] WAIT_FOR_DIALOG_INTERACTION
199: 0x06B3 [0x01] GOTO 0x0936

SUBROUTINE_06D4:
200: 0x06D4 [0x52] END_LOAD_SCHEDULER: End scheduler "m002" with entities [LocalPlayer, LocalPlayer], work=368*
201: 0x06E3 [0x45] LOAD_SCHEDULED_TASK: Load scheduler "m006" with entities [LocalPlayer, LocalPlayer], work=[368*, 0*]
202: 0x06F4 [0x27] REQ_SET(priority=0x10, entity_id=1 (ID: 17150779/0x0105B33B), tag_num=0x02)
203: 0x06FB [0x27] REQ_SET(priority=0x10, entity_id=2 (ID: 17150780/0x0105B33C), tag_num=0x02)
204: 0x0702 [0x27] REQ_SET(priority=0x10, entity_id=3 (ID: 17150781/0x0105B33D), tag_num=0x02)
205: 0x0709 [0x27] REQ_SET(priority=0x10, entity_id=4 (ID: 17150782/0x0105B33E), tag_num=0x02)
206: 0x0710 [0x27] REQ_SET(priority=0x10, entity_id=5 (ID: 17150783/0x0105B33F), tag_num=0x02)
207: 0x0717 [0x27] REQ_SET(priority=0x10, entity_id=1 (ID: 17150784/0x0105B340), tag_num=0x02)
208: 0x071E [0x27] REQ_SET(priority=0x10, entity_id=2 (ID: 17150785/0x0105B341), tag_num=0x02)
209: 0x0725 [0x27] REQ_SET(priority=0x10, entity_id=3 (ID: 17150786/0x0105B342), tag_num=0x02)
210: 0x072C [0x27] REQ_SET(priority=0x10, entity_id=4 (ID: 17150787/0x0105B343), tag_num=0x02)
211: 0x0733 [0x27] REQ_SET(priority=0x10, entity_id=5 (ID: 17150788/0x0105B344), tag_num=0x02)
212: 0x073A [0x27] REQ_SET(priority=0x10, entity_id=02 (ID: 17150790/0x0105B346), tag_num=0x02)
213: 0x0741 [0x27] REQ_SET(priority=0x10, entity_id=03 (ID: 17150791/0x0105B347), tag_num=0x02)
214: 0x0748 [0x27] REQ_SET(priority=0x10, entity_id=04 (ID: 17150792/0x0105B348), tag_num=0x02)
215: 0x074F [0x27] REQ_SET(priority=0x10, entity_id=06 (ID: 17150794/0x0105B34A), tag_num=0x02)
216: 0x0756 [0x1C] WAIT(30* ticks)
217: 0x0759 [0x2B] Naiko-Paneiko (ID: 17150778/0x0105B33A) [7748*]:
    → "How many black mandragoras are there?"
218: 0x0760 [0x1C] WAIT(250* ticks)
219: 0x0763 [0x52] END_LOAD_SCHEDULER: End scheduler "m006" with entities [LocalPlayer, LocalPlayer], work=368*
220: 0x0772 [0x45] LOAD_SCHEDULED_TASK: Load scheduler "m002" with entities [LocalPlayer, LocalPlayer], work=[368*, 0*]
221: 0x0783 [0x24] CREATE_DIALOG(message_id=7751*, default_option=0*, option_flags=0*)
    → "How many black mandragoras did you see? [Four./Five./Six.]"
222: 0x078A [0x25] WAIT_DIALOG_SELECT()
223: 0x078B [0x02] IF !(Work_Zone[0] == 0*) GOTO 0x07FB
224: 0x0793 [0x27] REQ_SET(priority=0x0A, entity_id=1 (ID: 17150779/0x0105B33B), tag_num=0x04)
225: 0x079A [0x27] REQ_SET(priority=0x0A, entity_id=2 (ID: 17150780/0x0105B33C), tag_num=0x04)
226: 0x07A1 [0x27] REQ_SET(priority=0x0A, entity_id=3 (ID: 17150781/0x0105B33D), tag_num=0x04)
227: 0x07A8 [0x27] REQ_SET(priority=0x0A, entity_id=4 (ID: 17150782/0x0105B33E), tag_num=0x04)
228: 0x07AF [0x27] REQ_SET(priority=0x0A, entity_id=5 (ID: 17150783/0x0105B33F), tag_num=0x04)
229: 0x07B6 [0x27] REQ_SET(priority=0x0A, entity_id=1 (ID: 17150784/0x0105B340), tag_num=0x04)
230: 0x07BD [0x27] REQ_SET(priority=0x0A, entity_id=2 (ID: 17150785/0x0105B341), tag_num=0x04)
231: 0x07C4 [0x27] REQ_SET(priority=0x0A, entity_id=3 (ID: 17150786/0x0105B342), tag_num=0x04)
232: 0x07CB [0x27] REQ_SET(priority=0x0A, entity_id=4 (ID: 17150787/0x0105B343), tag_num=0x04)
233: 0x07D2 [0x27] REQ_SET(priority=0x0A, entity_id=5 (ID: 17150788/0x0105B344), tag_num=0x04)
234: 0x07D9 [0x27] REQ_SET(priority=0x0A, entity_id=02 (ID: 17150790/0x0105B346), tag_num=0x04)
235: 0x07E0 [0x27] REQ_SET(priority=0x0A, entity_id=03 (ID: 17150791/0x0105B347), tag_num=0x04)
236: 0x07E7 [0x27] REQ_SET(priority=0x0A, entity_id=04 (ID: 17150792/0x0105B348), tag_num=0x04)
237: 0x07EE [0x27] REQ_SET(priority=0x0A, entity_id=06 (ID: 17150794/0x0105B34A), tag_num=0x04)
238: 0x07F5 [0x1C] WAIT(30* ticks)
239: 0x07F8 [0x01] GOTO 0x0831
240: 0x07FB [0x02] IF !(Work_Zone[0] == 1*) GOTO 0x0816
241: 0x0803 [0x03] Work_Zone[1] = 2*
242: 0x0808 [0x2B] Naiko-Paneiko (ID: 17150778/0x0105B33A) [7752*]:
    → "All rightaru, I got it! I'll throw together a mockup right away and make sure it gets printed in the next edition!"
243: 0x080F [0x23] WAIT_FOR_DIALOG_INTERACTION
244: 0x0810 [0x01] GOTO 0x0936

SUBROUTINE_0831:
245: 0x0831 [0x52] END_LOAD_SCHEDULER: End scheduler "m002" with entities [LocalPlayer, LocalPlayer], work=368*
246: 0x0840 [0x45] LOAD_SCHEDULED_TASK: Load scheduler "m007" with entities [LocalPlayer, LocalPlayer], work=[368*, 0*]
247: 0x0851 [0x27] REQ_SET(priority=0x10, entity_id=1 (ID: 17150779/0x0105B33B), tag_num=0x03)
248: 0x0858 [0x27] REQ_SET(priority=0x10, entity_id=2 (ID: 17150780/0x0105B33C), tag_num=0x03)
249: 0x085F [0x27] REQ_SET(priority=0x10, entity_id=3 (ID: 17150781/0x0105B33D), tag_num=0x03)
250: 0x0866 [0x27] REQ_SET(priority=0x10, entity_id=4 (ID: 17150782/0x0105B33E), tag_num=0x03)
251: 0x086D [0x27] REQ_SET(priority=0x10, entity_id=5 (ID: 17150783/0x0105B33F), tag_num=0x03)
252: 0x0874 [0x27] REQ_SET(priority=0x10, entity_id=1 (ID: 17150784/0x0105B340), tag_num=0x03)
253: 0x087B [0x27] REQ_SET(priority=0x10, entity_id=2 (ID: 17150785/0x0105B341), tag_num=0x03)
254: 0x0882 [0x27] REQ_SET(priority=0x10, entity_id=3 (ID: 17150786/0x0105B342), tag_num=0x03)
255: 0x0889 [0x27] REQ_SET(priority=0x10, entity_id=4 (ID: 17150787/0x0105B343), tag_num=0x03)
256: 0x0890 [0x27] REQ_SET(priority=0x10, entity_id=5 (ID: 17150788/0x0105B344), tag_num=0x03)
257: 0x0897 [0x27] REQ_SET(priority=0x10, entity_id=02 (ID: 17150790/0x0105B346), tag_num=0x03)
258: 0x089E [0x27] REQ_SET(priority=0x10, entity_id=03 (ID: 17150791/0x0105B347), tag_num=0x03)
259: 0x08A5 [0x27] REQ_SET(priority=0x10, entity_id=04 (ID: 17150792/0x0105B348), tag_num=0x03)
260: 0x08AC [0x27] REQ_SET(priority=0x10, entity_id=06 (ID: 17150794/0x0105B34A), tag_num=0x03)
261: 0x08B3 [0x1C] WAIT(30* ticks)
262: 0x08B6 [0x2B] Naiko-Paneiko (ID: 17150778/0x0105B33A) [7747*]:
    → "How many flowered mandragoras are there?"
263: 0x08BD [0x1C] WAIT(200* ticks)
264: 0x08C0 [0x52] END_LOAD_SCHEDULER: End scheduler "m007" with entities [LocalPlayer, LocalPlayer], work=368*
265: 0x08CF [0x45] LOAD_SCHEDULED_TASK: Load scheduler "m002" with entities [LocalPlayer, LocalPlayer], work=[368*, 0*]
266: 0x08E0 [0x24] CREATE_DIALOG(message_id=7750*, default_option=0*, option_flags=0*)
    → "How many flowered mandragoras did you see? [Four./Five./Six.]"
267: 0x08E7 [0x25] WAIT_DIALOG_SELECT()
268: 0x08E8 [0x02] IF !(Work_Zone[0] == 0*) GOTO 0x0903
269: 0x08F0 [0x03] Work_Zone[1] = 2*
270: 0x08F5 [0x2B] Naiko-Paneiko (ID: 17150778/0x0105B33A) [7752*]:
    → "All rightaru, I got it! I'll throw together a mockup right away and make sure it gets printed in the next edition!"
271: 0x08FC [0x23] WAIT_FOR_DIALOG_INTERACTION
272: 0x08FD [0x01] GOTO 0x0936

SUBROUTINE_092E:
273: 0x092E [0x2B] Naiko-Paneiko (ID: 17150778/0x0105B33A) [7752*]:
    → "All rightaru, I got it! I'll throw together a mockup right away and make sure it gets printed in the next edition!"
274: 0x0935 [0x23] WAIT_FOR_DIALOG_INTERACTION

SUBROUTINE_0936:
275: 0x0936 [0x1C] WAIT(60* ticks)
276: 0x0939 [0x45] LOAD_SCHEDULED_TASK: Load scheduler "fdo1" with entities [EventEntity, EventEntity], work=[200*, 0*]
277: 0x094A [0x55] WAIT_LOAD_SCHEDULER: Wait for scheduler "fdo1" with entities [EventEntity, EventEntity], work=200*
278: 0x0959 [0x52] END_LOAD_SCHEDULER: End scheduler "m002" with entities [LocalPlayer, LocalPlayer], work=368*
279: 0x0968 [0x46] CAMERA_CONTROL: Restore default settings
280: 0x096A [0x45] LOAD_SCHEDULED_TASK: Load scheduler "fdi2" with entities [LocalPlayer, LocalPlayer], work=[200*, 0*]
281: 0x097B [0x21] END_EVENT
282: 0x097C [0x00] END_REQSTACK()
```

#### Data or dead code:

```
# Dead code (unreachable instructions):
     0x04F5 [0x01] GOTO 0x0513
     0x0510 [0x01] GOTO 0x0513
# Dead code (unreachable instructions):
     0x06B6 [0x01] GOTO 0x06D4
     0x06D1 [0x01] GOTO 0x06D4
# Dead code (unreachable instructions):
     0x0813 [0x01] GOTO 0x0831
     0x082E [0x01] GOTO 0x0831
# Dead code (unreachable instructions):
     0x0900 [0x01] GOTO 0x092E
     0x092B [0x01] GOTO 0x092E
```
