# 17150796

## Common Data

| Field            | Value                          |
|------------------|--------------------------------|
| Zone             | Rolanberry Fields [S] (ID: 91) |
| Block Size       | 1352 bytes                     |
| Total Events     | 10                             |
| References Count | 88                             |

## List of Events

| Event ID                 | Entrypoint   |   Size |   Instructions |
|--------------------------|--------------|--------|----------------|
| [65535](#event-65535)    | 0x0000       |      1 |              1 |
| [5](#event-5)            | 0x0001       |      1 |              1 |
| [65535.1](#event-655351) | 0x0002       |     18 |              2 |
| [65535.2](#event-655352) | 0x0014       |    282 |             45 |
| [65535.3](#event-655353) | 0x012E       |     53 |              7 |
| [65535.4](#event-655354) | 0x0163       |    157 |             22 |
| [65535.5](#event-655355) | 0x0200       |    194 |             42 |
| [65535.6](#event-655356) | 0x02C2       |     48 |             12 |
| [65535.7](#event-655357) | 0x02F2       |    109 |             10 |
| [65535.8](#event-655358) | 0x035F       |     79 |              7 |

## DAT References (imed_data)

|   Index | Hex Value   |   Dec Value |
|---------|-------------|-------------|
|       0 | 0x00C8      |         200 |
|       1 | 0x0000      |           0 |
|       2 | 0x0013      |          19 |
|       3 | 0xFFFEE81E  |  4294895646 |
|       4 | 0xFFF27944  |  4294080836 |
|       5 | 0x0070      |         112 |
|       6 | 0x02DA      |         730 |
|       7 | 0xFFFEB8AA  |  4294883498 |
|       8 | 0xFFF28106  |  4294082822 |
|       9 | 0x0016      |          22 |
|      10 | 0x021C      |         540 |
|      11 | 0xFFFED6E3  |  4294891235 |
|      12 | 0xFFF28EFC  |  4294086396 |
|      13 | 0xFFFFFFFC  |  4294967292 |
|      14 | 0x0262      |         610 |
|      15 | 0xFFFECCEA  |  4294888682 |
|      16 | 0xFFF29366  |  4294087526 |
|      17 | 0x003C      |          60 |
|      18 | 0x086E      |        2158 |
|      19 | 0x0871      |        2161 |
|      20 | 0x0078      |         120 |
|      21 | 0x005A      |          90 |
|      22 | 0x000B      |          11 |
|      23 | 0x0006      |           6 |
|      24 | 0x00A3      |         163 |
|      25 | 0x71480     |      464000 |
|      26 | 0x55348     |      349000 |
|      27 | 0x65F4      |       26100 |
|      28 | 0x073A      |        1850 |
|      29 | 0x7DC74     |      515188 |
|      30 | 0x76C1D     |      486429 |
|      31 | 0x61A7      |       24999 |
|      32 | 0x07B0      |        1968 |
|      33 | 0x7FB14     |      523028 |
|      34 | 0x77F98     |      491416 |
|      35 | 0x076C      |        1900 |
|      36 | 0x7D7BA     |      513978 |
|      37 | 0x77B30     |      490288 |
|      38 | 0x05AD      |        1453 |
|      39 | 0x7FFFB     |      524283 |
|      40 | 0x79387     |      496519 |
|      41 | 0x7DE33     |      515635 |
|      42 | 0x77878     |      489592 |
|      43 | 0x0011      |          17 |
|      44 | 0x000D      |          13 |
|      45 | 0x0012      |          18 |
|      46 | 0x0019      |          25 |
|      47 | 0x0010      |          16 |
|      48 | 0x0014      |          20 |
|      49 | 0x4C9F6     |      313846 |
|      50 | 0x5D608     |      382472 |
|      51 | 0x6130      |       24880 |
|      52 | 0x01E0      |         480 |
|      53 | 0x4D426     |      316454 |
|      54 | 0x5B53B     |      374075 |
|      55 | 0x0ED8      |        3800 |
|      56 | 0x4E81F     |      321567 |
|      57 | 0x5D624     |      382500 |
|      58 | 0x609B      |       24731 |
|      59 | 0x4B912     |      309522 |
|      60 | 0x5C026     |      376870 |
|      61 | 0x6064      |       24676 |
|      62 | 0x0F3C      |        3900 |
|      63 | 0x4DFBB     |      319419 |
|      64 | 0x5CAB8     |      379576 |
|      65 | 0x6048      |       24648 |
|      66 | 0x4DD0D     |      318733 |
|      67 | 0x5D033     |      380979 |
|      68 | 0x1C622     |      116258 |
|      69 | 0xFFFA04BC  |  4294575292 |
|      70 | 0x610A      |       24842 |
|      71 | 0x040D      |        1037 |
|      72 | 0x1DDF9     |      122361 |
|      73 | 0xFFF9E865  |  4294568037 |
|      74 | 0x0180      |         384 |
|      75 | 0x1C113     |      114963 |
|      76 | 0xFFF9F6DD  |  4294571741 |
|      77 | 0x60B1      |       24753 |
|      78 | 0x201A6     |      131494 |
|      79 | 0xFFF9B113  |  4294553875 |
|      80 | 0x5EAA      |       24234 |
|      81 | 0x0615      |        1557 |
|      82 | 0x1CDC9     |      118217 |
|      83 | 0xFFF9DC18  |  4294564888 |
|      84 | 0x602C      |       24620 |
|      85 | 0x1C34D     |      115533 |
|      86 | 0xFFF9F7F3  |  4294572019 |
|      87 | 0x60A1      |       24737 |

## Events

### Event 65535

#### Metadata

| Field        | Value   |
|--------------|---------|
| Entrypoint   | 0x0000  |
| Data Size    | 1 bytes |
| Instructions | 1       |

```
      00 01 02 03 04 05 06 07  08 09 0A 0B 0C 0D 0E 0F
      -- -- -- -- -- -- -- --  -- -- -- -- -- -- -- --
0000: 00                                                .               
```

#### Opcodes

```
  0: 0x0000 [0x00] END_REQSTACK()
```

### Event 5

#### Metadata

| Field        | Value   |
|--------------|---------|
| Entrypoint   | 0x0001  |
| Data Size    | 1 bytes |
| Instructions | 1       |

```
      00 01 02 03 04 05 06 07  08 09 0A 0B 0C 0D 0E 0F
      -- -- -- -- -- -- -- --  -- -- -- -- -- -- -- --
0000:    00                                              .              
```

#### Opcodes

```
  0: 0x0001 [0x00] END_REQSTACK()
```

### Event 65535.1

#### Metadata

| Field        | Value    |
|--------------|----------|
| Entrypoint   | 0x0002   |
| Data Size    | 18 bytes |
| Instructions | 2        |

```
      00 01 02 03 04 05 06 07  08 09 0A 0B 0C 0D 0E 0F
      -- -- -- -- -- -- -- --  -- -- -- -- -- -- -- --
0000:       45 00 80 F0 FF FF  7F F0 FF FF 7F 62 6C 6F    E..........blo
0010: 66 01 80 00                                       f...            
```

#### Opcodes

```
  0: 0x0002 [0x45] LOAD_SCHEDULED_TASK: Load scheduler "blof" with entities [LocalPlayer, LocalPlayer], work=[200*, 0*]
  1: 0x0013 [0x00] END_REQSTACK()
```

### Event 65535.2

#### Metadata

| Field        | Value     |
|--------------|-----------|
| Entrypoint   | 0x0014    |
| Data Size    | 282 bytes |
| Instructions | 45        |

```
      00 01 02 03 04 05 06 07  08 09 0A 0B 0C 0D 0E 0F
      -- -- -- -- -- -- -- --  -- -- -- -- -- -- -- --
0010:             46 01 4E 01  F0 FF FF 7F 92 01 F0 FF      F.N.........
0020: FF 7F 94 01 F0 FF FF 7F  80 F0 FF FF 7F 38 02 80  .............8..
0030: 2F 00 4F B3 05 01 2F 00  4E B3 05 01 2F 00 50 B3  /.O.../.N.../.P.
0040: 05 01 2F 00 51 B3 05 01  2F 00 52 B3 05 01 4E 00  ../.Q.../.R...N.
0050: 4F B3 05 01 4E 00 4E B3  05 01 4E 00 50 B3 05 01  O...N.N...N.P...
0060: 4E 00 51 B3 05 01 4E 00  52 B3 05 01 94 01 4F B3  N.Q...N.R.....O.
0070: 05 01 94 01 4E B3 05 01  94 01 50 B3 05 01 94 01  ....N.....P.....
0080: 51 B3 05 01 94 01 52 B3  05 01 92 01 4F B3 05 01  Q.....R.....O...
0090: 92 01 4E B3 05 01 92 01  50 B3 05 01 92 01 51 B3  ..N.....P.....Q.
00A0: 05 01 92 01 52 B3 05 01  BA 4F B3 05 01 03 80 04  ....R....O......
00B0: 80 05 80 06 80 BA 4E B3  05 01 03 80 04 80 05 80  ......N.........
00C0: 06 80 BA 50 B3 05 01 07  80 08 80 09 80 0A 80 BA  ...P............
00D0: 51 B3 05 01 0B 80 0C 80  0D 80 0E 80 BA 52 B3 05  Q............R..
00E0: 01 0F 80 10 80 01 80 0E  80 80 4F B3 05 01 80 4E  ..........O....N
00F0: B3 05 01 80 50 B3 05 01  80 51 B3 05 01 80 52 B3  ....P....Q....R.
0100: 05 01 33 00 33 00 33 00  33 00 33 00 1C 11 80 5B  ..3.3.3.3.3....[
0110: 12 80 4F B3 05 01 4F B3  05 01 73 61 69 30 5B 13  ..O...O...sai0[.
0120: 80 4E B3 05 01 4E B3 05  01 73 61 69 30 00        .N...N...sai0.  
```

#### Opcodes

```
  0: 0x0014 [0x46] CAMERA_CONTROL: Disable user control
  1: 0x0016 [0x4E] SET_ENTITY_HIDE_FLAG: Hide LocalPlayer
  2: 0x001C [0x92] LocalPlayer->Render.Flags3 ^= 0x01
  3: 0x0022 [0x94] LocalPlayer->Render.Flags3 ^= 0x01
  4: 0x0028 [0x80] LOAD_WAIT(entity=LocalPlayer)
  5: 0x002D [0x38] SET_CLIENT_EVENT_MODE(mode=19*)
  6: 0x0030 [0x2F] Abenzio (ID: 17150799/0x0105B34F)->Render.Flags0 &= ~0x80000 // Bit 19
  7: 0x0036 [0x2F] Babban Ny Mheillea (ID: 17150798/0x0105B34E)->Render.Flags0 &= ~0x80000 // Bit 19
  8: 0x003C [0x2F] Bryher (ID: 17150800/0x0105B350)->Render.Flags0 &= ~0x80000 // Bit 19
  9: 0x0042 [0x2F] Camlin (ID: 17150801/0x0105B351)->Render.Flags0 &= ~0x80000 // Bit 19
 10: 0x0048 [0x2F] Darach (ID: 17150802/0x0105B352)->Render.Flags0 &= ~0x80000 // Bit 19
 11: 0x004E [0x4E] SET_ENTITY_HIDE_FLAG: Show Abenzio (ID: 17150799/0x0105B34F)
 12: 0x0054 [0x4E] SET_ENTITY_HIDE_FLAG: Show Babban Ny Mheillea (ID: 17150798/0x0105B34E)
 13: 0x005A [0x4E] SET_ENTITY_HIDE_FLAG: Show Bryher (ID: 17150800/0x0105B350)
 14: 0x0060 [0x4E] SET_ENTITY_HIDE_FLAG: Show Camlin (ID: 17150801/0x0105B351)
 15: 0x0066 [0x4E] SET_ENTITY_HIDE_FLAG: Show Darach (ID: 17150802/0x0105B352)
 16: 0x006C [0x94] Abenzio (ID: 17150799/0x0105B34F)->Render.Flags3 ^= 0x01
 17: 0x0072 [0x94] Babban Ny Mheillea (ID: 17150798/0x0105B34E)->Render.Flags3 ^= 0x01
 18: 0x0078 [0x94] Bryher (ID: 17150800/0x0105B350)->Render.Flags3 ^= 0x01
 19: 0x007E [0x94] Camlin (ID: 17150801/0x0105B351)->Render.Flags3 ^= 0x01
 20: 0x0084 [0x94] Darach (ID: 17150802/0x0105B352)->Render.Flags3 ^= 0x01
 21: 0x008A [0x92] Abenzio (ID: 17150799/0x0105B34F)->Render.Flags3 ^= 0x01
 22: 0x0090 [0x92] Babban Ny Mheillea (ID: 17150798/0x0105B34E)->Render.Flags3 ^= 0x01
 23: 0x0096 [0x92] Bryher (ID: 17150800/0x0105B350)->Render.Flags3 ^= 0x01
 24: 0x009C [0x92] Camlin (ID: 17150801/0x0105B351)->Render.Flags3 ^= 0x01
 25: 0x00A2 [0x92] Darach (ID: 17150802/0x0105B352)->Render.Flags3 ^= 0x01
 26: 0x00A8 [0xBA] SET_ENTITY_POSITION(entity_id=Abenzio (ID: 17150799/0x0105B34F), pos_x=-71.650*, pos_z=-886.460*, pos_y=0.112*, direction=64.2°*)
 27: 0x00B5 [0xBA] SET_ENTITY_POSITION(entity_id=Babban Ny Mheillea (ID: 17150798/0x0105B34E), pos_x=-71.650*, pos_z=-886.460*, pos_y=0.112*, direction=64.2°*)
 28: 0x00C2 [0xBA] SET_ENTITY_POSITION(entity_id=Bryher (ID: 17150800/0x0105B350), pos_x=-83.798*, pos_z=-884.474*, pos_y=0.022*, direction=47.5°*)
 29: 0x00CF [0xBA] SET_ENTITY_POSITION(entity_id=Camlin (ID: 17150801/0x0105B351), pos_x=-76.061*, pos_z=-880.900*, pos_y=-0.004*, direction=53.6°*)
 30: 0x00DC [0xBA] SET_ENTITY_POSITION(entity_id=Darach (ID: 17150802/0x0105B352), pos_x=-78.614*, pos_z=-879.770*, pos_y=0.000*, direction=53.6°*)
 31: 0x00E9 [0x80] LOAD_WAIT(entity=Abenzio (ID: 17150799/0x0105B34F))
 32: 0x00EE [0x80] LOAD_WAIT(entity=Babban Ny Mheillea (ID: 17150798/0x0105B34E))
 33: 0x00F3 [0x80] LOAD_WAIT(entity=Bryher (ID: 17150800/0x0105B350))
 34: 0x00F8 [0x80] LOAD_WAIT(entity=Camlin (ID: 17150801/0x0105B351))
 35: 0x00FD [0x80] LOAD_WAIT(entity=Darach (ID: 17150802/0x0105B352))
 36: 0x0102 [0x33] EventEntity->Render.Flags0 &= ~ 0x200000 // Bit 21 (flag=0x00)
 37: 0x0104 [0x33] EventEntity->Render.Flags0 &= ~ 0x200000 // Bit 21 (flag=0x00)
 38: 0x0106 [0x33] EventEntity->Render.Flags0 &= ~ 0x200000 // Bit 21 (flag=0x00)
 39: 0x0108 [0x33] EventEntity->Render.Flags0 &= ~ 0x200000 // Bit 21 (flag=0x00)
 40: 0x010A [0x33] EventEntity->Render.Flags0 &= ~ 0x200000 // Bit 21 (flag=0x00)
 41: 0x010C [0x1C] WAIT(60* ticks)
 42: 0x010F [0x5B] LOAD_EXT_SCHEDULER: Load scheduler "sai0" with entities [Abenzio (ID: 17150799/0x0105B34F), Abenzio (ID: 17150799/0x0105B34F)], work=2158*
 43: 0x011E [0x5B] LOAD_EXT_SCHEDULER: Load scheduler "sai0" with entities [Babban Ny Mheillea (ID: 17150798/0x0105B34E), Babban Ny Mheillea (ID: 17150798/0x0105B34E)], work=2161*
 44: 0x012D [0x00] END_REQSTACK()
```

### Event 65535.3

#### Metadata

| Field        | Value    |
|--------------|----------|
| Entrypoint   | 0x012E   |
| Data Size    | 53 bytes |
| Instructions | 7        |

```
      00 01 02 03 04 05 06 07  08 09 0A 0B 0C 0D 0E 0F
      -- -- -- -- -- -- -- --  -- -- -- -- -- -- -- --
0120:                                            5B 12                [.
0130: 80 4F B3 05 01 4F B3 05  01 73 61 69 30 5B 13 80  .O...O...sai0[..
0140: 4E B3 05 01 4E B3 05 01  73 61 69 30 53 4E B3 05  N...N...sai0SN..
0150: 01 4E B3 05 01 73 61 69  30 5C 00 14 80 5C 01 14  .N...sai0\...\..
0160: 80 9A 00                                          ...             
```

#### Opcodes

```
  0: 0x012E [0x5B] LOAD_EXT_SCHEDULER: Load scheduler "sai0" with entities [Abenzio (ID: 17150799/0x0105B34F), Abenzio (ID: 17150799/0x0105B34F)], work=2158*
  1: 0x013D [0x5B] LOAD_EXT_SCHEDULER: Load scheduler "sai0" with entities [Babban Ny Mheillea (ID: 17150798/0x0105B34E), Babban Ny Mheillea (ID: 17150798/0x0105B34E)], work=2161*
  2: 0x014C [0x53] WAIT_SCHEDULER_TASK: Wait for scheduler "sai0" with entities [Babban Ny Mheillea (ID: 17150798/0x0105B34E), Babban Ny Mheillea (ID: 17150798/0x0105B34E)]
  3: 0x0159 [0x5C] MUSIC_CONTROL: Set Idle (Day) music to song 120*
  4: 0x015D [0x5C] MUSIC_CONTROL: Set Idle (Night) music to song 120*
  5: 0x0161 [0x9A] WAIT_MUSIC_SERVER()
  6: 0x0162 [0x00] END_REQSTACK()
```

### Event 65535.4

#### Metadata

| Field        | Value     |
|--------------|-----------|
| Entrypoint   | 0x0163    |
| Data Size    | 157 bytes |
| Instructions | 22        |

```
      00 01 02 03 04 05 06 07  08 09 0A 0B 0C 0D 0E 0F
      -- -- -- -- -- -- -- --  -- -- -- -- -- -- -- --
0160:          34 15 80 AB 09  77 16 80 17 80 5C 00 18     4....w....\..
0170: 80 5C 01 18 80 9A BA 4E  B3 05 01 19 80 1A 80 1B  .\.....N........
0180: 80 1C 80 BA 4F B3 05 01  1D 80 1E 80 1F 80 20 80  ....O......... .
0190: BA 50 B3 05 01 21 80 22  80 1F 80 23 80 BA 51 B3  .P...!."...#..Q.
01A0: 05 01 24 80 25 80 1F 80  26 80 BA 52 B3 05 01 27  ..$.%...&..R...'
01B0: 80 28 80 1F 80 20 80 BA  53 B3 05 01 29 80 2A 80  .(... ..S...).*.
01C0: 1F 80 23 80 80 4E B3 05  01 80 4F B3 05 01 80 50  ..#..N....O....P
01D0: B3 05 01 80 51 B3 05 01  80 52 B3 05 01 80 53 B3  ....Q....R....S.
01E0: 05 01 1C 14 80 2C 4E B3  05 01 4E B3 05 01 63 6F  .....,N...N...co
01F0: 72 70 53 4E B3 05 01 4E  B3 05 01 63 6F 72 70 00  rpSN...N...corp.
```

#### Opcodes

```
  0: 0x0163 [0x34] LOAD_UNLOAD_ZONE(zone_id=90*)
  1: 0x0166 [0xAB] EventEntity->UnknownFlag = 1 // Enable unknown flag
  2: 0x0168 [0x77] SET_EVENT_TIME_WEATHER(hour=11*, weather=6*)
  3: 0x016D [0x5C] MUSIC_CONTROL: Set Idle (Day) music to song 163*
  4: 0x0171 [0x5C] MUSIC_CONTROL: Set Idle (Night) music to song 163*
  5: 0x0175 [0x9A] WAIT_MUSIC_SERVER()
  6: 0x0176 [0xBA] SET_ENTITY_POSITION(entity_id=Babban Ny Mheillea (ID: 17150798/0x0105B34E), pos_x=464.000*, pos_z=349.000*, pos_y=26.100*, direction=162.6°*)
  7: 0x0183 [0xBA] SET_ENTITY_POSITION(entity_id=Abenzio (ID: 17150799/0x0105B34F), pos_x=515.188*, pos_z=486.429*, pos_y=24.999*, direction=173.0°*)
  8: 0x0190 [0xBA] SET_ENTITY_POSITION(entity_id=Bryher (ID: 17150800/0x0105B350), pos_x=523.028*, pos_z=491.416*, pos_y=24.999*, direction=167.0°*)
  9: 0x019D [0xBA] SET_ENTITY_POSITION(entity_id=Camlin (ID: 17150801/0x0105B351), pos_x=513.978*, pos_z=490.288*, pos_y=24.999*, direction=127.7°*)
 10: 0x01AA [0xBA] SET_ENTITY_POSITION(entity_id=Darach (ID: 17150802/0x0105B352), pos_x=524.283*, pos_z=496.519*, pos_y=24.999*, direction=173.0°*)
 11: 0x01B7 [0xBA] SET_ENTITY_POSITION(entity_id=Unnamed NPC (ID: 17150803/0x0105B353), pos_x=515.635*, pos_z=489.592*, pos_y=24.999*, direction=167.0°*)
 12: 0x01C4 [0x80] LOAD_WAIT(entity=Babban Ny Mheillea (ID: 17150798/0x0105B34E))
 13: 0x01C9 [0x80] LOAD_WAIT(entity=Abenzio (ID: 17150799/0x0105B34F))
 14: 0x01CE [0x80] LOAD_WAIT(entity=Bryher (ID: 17150800/0x0105B350))
 15: 0x01D3 [0x80] LOAD_WAIT(entity=Camlin (ID: 17150801/0x0105B351))
 16: 0x01D8 [0x80] LOAD_WAIT(entity=Darach (ID: 17150802/0x0105B352))
 17: 0x01DD [0x80] LOAD_WAIT(entity=Unnamed NPC (ID: 17150803/0x0105B353))
 18: 0x01E2 [0x1C] WAIT(120* ticks)
 19: 0x01E5 [0x2C] CREATE_SCHEDULER_TASK: Create scheduler "corp" with entities [Babban Ny Mheillea (ID: 17150798/0x0105B34E), Babban Ny Mheillea (ID: 17150798/0x0105B34E)]
 20: 0x01F2 [0x53] WAIT_SCHEDULER_TASK: Wait for scheduler "corp" with entities [Babban Ny Mheillea (ID: 17150798/0x0105B34E), Babban Ny Mheillea (ID: 17150798/0x0105B34E)]
 21: 0x01FF [0x00] END_REQSTACK()
```

### Event 65535.5

#### Metadata

| Field        | Value     |
|--------------|-----------|
| Entrypoint   | 0x0200    |
| Data Size    | 194 bytes |
| Instructions | 42        |

```
      00 01 02 03 04 05 06 07  08 09 0A 0B 0C 0D 0E 0F
      -- -- -- -- -- -- -- --  -- -- -- -- -- -- -- --
0200: 4A 51 B3 05 01 4F B3 05  01 6F 76 51 B3 05 01 1C  JQ...O...ovQ....
0210: 2B 80 4A 52 B3 05 01 4F  B3 05 01 6F 76 52 B3 05  +.JR...O...ovR..
0220: 01 1C 2C 80 4A 50 B3 05  01 52 B3 05 01 6F 76 50  ..,.JP...R...ovP
0230: B3 05 01 1C 09 80 4A 51  B3 05 01 50 B3 05 01 6F  ......JQ...P...o
0240: 76 51 B3 05 01 1C 2D 80  4A 52 B3 05 01 50 B3 05  vQ....-.JR...P..
0250: 01 6F 76 52 B3 05 01 1C  2E 80 4A 53 B3 05 01 52  .ovR......JS...R
0260: B3 05 01 4A 51 B3 05 01  52 B3 05 01 6F 76 51 B3  ...JQ...R...ovQ.
0270: 05 01 1C 2D 80 4B 50 B3  05 01 23 80 6F 76 50 B3  ...-.KP...#.ovP.
0280: 05 01 4A 51 B3 05 01 4F  B3 05 01 4A 53 B3 05 01  ..JQ...O...JS...
0290: 51 B3 05 01 6F 76 51 B3  05 01 1C 2C 80 4A 52 B3  Q...ovQ....,.JR.
02A0: 05 01 4F B3 05 01 6F 76  52 B3 05 01 1C 2B 80 4A  ..O...ovR....+.J
02B0: 50 B3 05 01 52 B3 05 01  6F 76 50 B3 05 01 1C 2F  P...R...ovP..../
02C0: 80 00                                             ..              
```

#### Opcodes

```
  0: 0x0200 [0x4A] Camlin (ID: 17150801/0x0105B351) looks at Abenzio (ID: 17150799/0x0105B34F)
  1: 0x0209 [0x6F] WAIT_FRAME_DELAY: Yield until WaitTime reaches zero
  2: 0x020A [0x76] CHECK_ENTITY_RENDER_FLAGS: Wait until Camlin (ID: 17150801/0x0105B351) Render.Flags0 and Render.Flags3 conditions are met
  3: 0x020F [0x1C] WAIT(17* ticks)
  4: 0x0212 [0x4A] Darach (ID: 17150802/0x0105B352) looks at Abenzio (ID: 17150799/0x0105B34F)
  5: 0x021B [0x6F] WAIT_FRAME_DELAY: Yield until WaitTime reaches zero
  6: 0x021C [0x76] CHECK_ENTITY_RENDER_FLAGS: Wait until Darach (ID: 17150802/0x0105B352) Render.Flags0 and Render.Flags3 conditions are met
  7: 0x0221 [0x1C] WAIT(13* ticks)
  8: 0x0224 [0x4A] Bryher (ID: 17150800/0x0105B350) looks at Darach (ID: 17150802/0x0105B352)
  9: 0x022D [0x6F] WAIT_FRAME_DELAY: Yield until WaitTime reaches zero
 10: 0x022E [0x76] CHECK_ENTITY_RENDER_FLAGS: Wait until Bryher (ID: 17150800/0x0105B350) Render.Flags0 and Render.Flags3 conditions are met
 11: 0x0233 [0x1C] WAIT(22* ticks)
 12: 0x0236 [0x4A] Camlin (ID: 17150801/0x0105B351) looks at Bryher (ID: 17150800/0x0105B350)
 13: 0x023F [0x6F] WAIT_FRAME_DELAY: Yield until WaitTime reaches zero
 14: 0x0240 [0x76] CHECK_ENTITY_RENDER_FLAGS: Wait until Camlin (ID: 17150801/0x0105B351) Render.Flags0 and Render.Flags3 conditions are met
 15: 0x0245 [0x1C] WAIT(18* ticks)
 16: 0x0248 [0x4A] Darach (ID: 17150802/0x0105B352) looks at Bryher (ID: 17150800/0x0105B350)
 17: 0x0251 [0x6F] WAIT_FRAME_DELAY: Yield until WaitTime reaches zero
 18: 0x0252 [0x76] CHECK_ENTITY_RENDER_FLAGS: Wait until Darach (ID: 17150802/0x0105B352) Render.Flags0 and Render.Flags3 conditions are met
 19: 0x0257 [0x1C] WAIT(25* ticks)
 20: 0x025A [0x4A] Unnamed NPC (ID: 17150803/0x0105B353) looks at Darach (ID: 17150802/0x0105B352)
 21: 0x0263 [0x4A] Camlin (ID: 17150801/0x0105B351) looks at Darach (ID: 17150802/0x0105B352)
 22: 0x026C [0x6F] WAIT_FRAME_DELAY: Yield until WaitTime reaches zero
 23: 0x026D [0x76] CHECK_ENTITY_RENDER_FLAGS: Wait until Camlin (ID: 17150801/0x0105B351) Render.Flags0 and Render.Flags3 conditions are met
 24: 0x0272 [0x1C] WAIT(18* ticks)
 25: 0x0275 [0x4B] UPDATE_ENTITY_YAW(entity=Bryher (ID: 17150800/0x0105B350), yaw=10.4°*)
 26: 0x027C [0x6F] WAIT_FRAME_DELAY: Yield until WaitTime reaches zero
 27: 0x027D [0x76] CHECK_ENTITY_RENDER_FLAGS: Wait until Bryher (ID: 17150800/0x0105B350) Render.Flags0 and Render.Flags3 conditions are met
 28: 0x0282 [0x4A] Camlin (ID: 17150801/0x0105B351) looks at Abenzio (ID: 17150799/0x0105B34F)
 29: 0x028B [0x4A] Unnamed NPC (ID: 17150803/0x0105B353) looks at Camlin (ID: 17150801/0x0105B351)
 30: 0x0294 [0x6F] WAIT_FRAME_DELAY: Yield until WaitTime reaches zero
 31: 0x0295 [0x76] CHECK_ENTITY_RENDER_FLAGS: Wait until Camlin (ID: 17150801/0x0105B351) Render.Flags0 and Render.Flags3 conditions are met
 32: 0x029A [0x1C] WAIT(13* ticks)
 33: 0x029D [0x4A] Darach (ID: 17150802/0x0105B352) looks at Abenzio (ID: 17150799/0x0105B34F)
 34: 0x02A6 [0x6F] WAIT_FRAME_DELAY: Yield until WaitTime reaches zero
 35: 0x02A7 [0x76] CHECK_ENTITY_RENDER_FLAGS: Wait until Darach (ID: 17150802/0x0105B352) Render.Flags0 and Render.Flags3 conditions are met
 36: 0x02AC [0x1C] WAIT(17* ticks)
 37: 0x02AF [0x4A] Bryher (ID: 17150800/0x0105B350) looks at Darach (ID: 17150802/0x0105B352)
 38: 0x02B8 [0x6F] WAIT_FRAME_DELAY: Yield until WaitTime reaches zero
 39: 0x02B9 [0x76] CHECK_ENTITY_RENDER_FLAGS: Wait until Bryher (ID: 17150800/0x0105B350) Render.Flags0 and Render.Flags3 conditions are met
 40: 0x02BE [0x1C] WAIT(16* ticks)
 41: 0x02C1 [0x00] END_REQSTACK()
```

### Event 65535.6

#### Metadata

| Field        | Value    |
|--------------|----------|
| Entrypoint   | 0x02C2   |
| Data Size    | 48 bytes |
| Instructions | 12       |

```
      00 01 02 03 04 05 06 07  08 09 0A 0B 0C 0D 0E 0F
      -- -- -- -- -- -- -- --  -- -- -- -- -- -- -- --
02C0:       4A 51 B3 05 01 50  B3 05 01 6F 76 51 B3 05    JQ...P...ovQ..
02D0: 01 1C 30 80 4B 52 B3 05  01 23 80 6F 76 52 B3 05  ..0.KR...#.ovR..
02E0: 01 1C 02 80 4B 50 B3 05  01 23 80 6F 76 50 B3 05  ....KP...#.ovP..
02F0: 01 00                                             ..              
```

#### Opcodes

```
  0: 0x02C2 [0x4A] Camlin (ID: 17150801/0x0105B351) looks at Bryher (ID: 17150800/0x0105B350)
  1: 0x02CB [0x6F] WAIT_FRAME_DELAY: Yield until WaitTime reaches zero
  2: 0x02CC [0x76] CHECK_ENTITY_RENDER_FLAGS: Wait until Camlin (ID: 17150801/0x0105B351) Render.Flags0 and Render.Flags3 conditions are met
  3: 0x02D1 [0x1C] WAIT(20* ticks)
  4: 0x02D4 [0x4B] UPDATE_ENTITY_YAW(entity=Darach (ID: 17150802/0x0105B352), yaw=10.4°*)
  5: 0x02DB [0x6F] WAIT_FRAME_DELAY: Yield until WaitTime reaches zero
  6: 0x02DC [0x76] CHECK_ENTITY_RENDER_FLAGS: Wait until Darach (ID: 17150802/0x0105B352) Render.Flags0 and Render.Flags3 conditions are met
  7: 0x02E1 [0x1C] WAIT(19* ticks)
  8: 0x02E4 [0x4B] UPDATE_ENTITY_YAW(entity=Bryher (ID: 17150800/0x0105B350), yaw=10.4°*)
  9: 0x02EB [0x6F] WAIT_FRAME_DELAY: Yield until WaitTime reaches zero
 10: 0x02EC [0x76] CHECK_ENTITY_RENDER_FLAGS: Wait until Bryher (ID: 17150800/0x0105B350) Render.Flags0 and Render.Flags3 conditions are met
 11: 0x02F1 [0x00] END_REQSTACK()
```

### Event 65535.7

#### Metadata

| Field        | Value     |
|--------------|-----------|
| Entrypoint   | 0x02F2    |
| Data Size    | 109 bytes |
| Instructions | 10        |

```
      00 01 02 03 04 05 06 07  08 09 0A 0B 0C 0D 0E 0F
      -- -- -- -- -- -- -- --  -- -- -- -- -- -- -- --
02F0:       BA 4F B3 05 01 31  80 32 80 33 80 34 80 BA    .O...1.2.3.4..
0300: 50 B3 05 01 35 80 36 80  1F 80 37 80 33 00 BA 51  P...5.6...7.3..Q
0310: B3 05 01 38 80 39 80 3A  80 01 80 BA 52 B3 05 01  ...8.9.:....R...
0320: 3B 80 3C 80 3D 80 3E 80  BA 53 B3 05 01 3F 80 40  ;.<.=.>..S...?.@
0330: 80 41 80 37 80 BA 4E B3  05 01 42 80 43 80 41 80  .A.7..N...B.C.A.
0340: 01 80 5B 13 80 4E B3 05  01 4E B3 05 01 74 6C 6B  ..[..N...N...tlk
0350: 31 53 4E B3 05 01 4E B3  05 01 74 6C 6B 31 00     1SN...N...tlk1. 
```

#### Opcodes

```
  0: 0x02F2 [0xBA] SET_ENTITY_POSITION(entity_id=Abenzio (ID: 17150799/0x0105B34F), pos_x=313.846*, pos_z=382.472*, pos_y=24.880*, direction=42.2°*)
  1: 0x02FF [0xBA] SET_ENTITY_POSITION(entity_id=Bryher (ID: 17150800/0x0105B350), pos_x=316.454*, pos_z=374.075*, pos_y=24.999*, direction=334.0°*)
  2: 0x030C [0x33] EventEntity->Render.Flags0 &= ~ 0x200000 // Bit 21 (flag=0x00)
  3: 0x030E [0xBA] SET_ENTITY_POSITION(entity_id=Camlin (ID: 17150801/0x0105B351), pos_x=321.567*, pos_z=382.500*, pos_y=24.731*, direction=0.0°*)
  4: 0x031B [0xBA] SET_ENTITY_POSITION(entity_id=Darach (ID: 17150802/0x0105B352), pos_x=309.522*, pos_z=376.870*, pos_y=24.676*, direction=342.8°*)
  5: 0x0328 [0xBA] SET_ENTITY_POSITION(entity_id=Unnamed NPC (ID: 17150803/0x0105B353), pos_x=319.419*, pos_z=379.576*, pos_y=24.648*, direction=334.0°*)
  6: 0x0335 [0xBA] SET_ENTITY_POSITION(entity_id=Babban Ny Mheillea (ID: 17150798/0x0105B34E), pos_x=318.733*, pos_z=380.979*, pos_y=24.648*, direction=0.0°*)
  7: 0x0342 [0x5B] LOAD_EXT_SCHEDULER: Load scheduler "tlk1" with entities [Babban Ny Mheillea (ID: 17150798/0x0105B34E), Babban Ny Mheillea (ID: 17150798/0x0105B34E)], work=2161*
  8: 0x0351 [0x53] WAIT_SCHEDULER_TASK: Wait for scheduler "tlk1" with entities [Babban Ny Mheillea (ID: 17150798/0x0105B34E), Babban Ny Mheillea (ID: 17150798/0x0105B34E)]
  9: 0x035E [0x00] END_REQSTACK()
```

### Event 65535.8

#### Metadata

| Field        | Value    |
|--------------|----------|
| Entrypoint   | 0x035F   |
| Data Size    | 79 bytes |
| Instructions | 7        |

```
      00 01 02 03 04 05 06 07  08 09 0A 0B 0C 0D 0E 0F
      -- -- -- -- -- -- -- --  -- -- -- -- -- -- -- --
0350:                                               BA                 .
0360: 4F B3 05 01 44 80 45 80  46 80 47 80 BA 50 B3 05  O...D.E.F.G..P..
0370: 01 48 80 49 80 41 80 4A  80 BA 4E B3 05 01 4B 80  .H.I.A.J..N...K.
0380: 4C 80 4D 80 01 80 BA 51  B3 05 01 4E 80 4F 80 50  L.M....Q...N.O.P
0390: 80 51 80 BA 52 B3 05 01  52 80 53 80 54 80 4A 80  .Q..R...R.S.T.J.
03A0: BA 53 B3 05 01 55 80 56  80 57 80 4A 80 00        .S...U.V.W.J..  
```

#### Opcodes

```
  0: 0x035F [0xBA] SET_ENTITY_POSITION(entity_id=Abenzio (ID: 17150799/0x0105B34F), pos_x=116.258*, pos_z=-392.004*, pos_y=24.842*, direction=91.1°*)
  1: 0x036C [0xBA] SET_ENTITY_POSITION(entity_id=Bryher (ID: 17150800/0x0105B350), pos_x=122.361*, pos_z=-399.259*, pos_y=24.648*, direction=33.7°*)
  2: 0x0379 [0xBA] SET_ENTITY_POSITION(entity_id=Babban Ny Mheillea (ID: 17150798/0x0105B34E), pos_x=114.963*, pos_z=-395.555*, pos_y=24.753*, direction=0.0°*)
  3: 0x0386 [0xBA] SET_ENTITY_POSITION(entity_id=Camlin (ID: 17150801/0x0105B351), pos_x=131.494*, pos_z=-413.421*, pos_y=24.234*, direction=136.8°*)
  4: 0x0393 [0xBA] SET_ENTITY_POSITION(entity_id=Darach (ID: 17150802/0x0105B352), pos_x=118.217*, pos_z=-402.408*, pos_y=24.620*, direction=33.7°*)
  5: 0x03A0 [0xBA] SET_ENTITY_POSITION(entity_id=Unnamed NPC (ID: 17150803/0x0105B353), pos_x=115.533*, pos_z=-395.277*, pos_y=24.737*, direction=33.7°*)
  6: 0x03AD [0x00] END_REQSTACK()
```
