# 17150800 - Bryher

## Common Data

| Field            | Value                          |
|------------------|--------------------------------|
| Zone             | Rolanberry Fields [S] (ID: 91) |
| Block Size       | 224 bytes                      |
| Total Events     | 9                              |
| References Count | 13                             |

## List of Events

| Event ID                 | Entrypoint   |   Size |   Instructions |
|--------------------------|--------------|--------|----------------|
| [65535](#event-65535)    | 0x0000       |      1 |              1 |
| [5](#event-5)            | 0x0001       |      1 |              1 |
| [65535.1](#event-655351) | 0x0002       |     19 |              5 |
| [65535.2](#event-655352) | 0x0015       |     17 |              6 |
| [65535.3](#event-655353) | 0x0026       |     19 |              5 |
| [65535.4](#event-655354) | 0x0039       |     16 |              4 |
| [65535.5](#event-655355) | 0x0049       |     16 |              4 |
| [65535.6](#event-655356) | 0x0059       |     14 |              4 |
| [65535.7](#event-655357) | 0x0067       |     14 |              4 |

## DAT References (imed_data)

|   Index | Hex Value   |   Dec Value |
|---------|-------------|-------------|
|       0 | 0x000F      |          15 |
|       1 | 0x000D      |          13 |
|       2 | 0xFFFEAA29  |  4294879785 |
|       3 | 0xFFF1FDE5  |  4294049253 |
|       4 | 0x00AD      |         173 |
|       5 | 0x0004      |           4 |
|       6 | 0x21B14     |      138004 |
|       7 | 0xFFF9E036  |  4294565942 |
|       8 | 0x61F3      |       25075 |
|       9 | 0x0003      |           3 |
|      10 | 0xFFFEB5F7  |  4294882807 |
|      11 | 0xFFF24A81  |  4294068865 |
|      12 | 0x02B1      |         689 |

## Events

### Event 65535

#### Metadata

| Field        | Value   |
|--------------|---------|
| Entrypoint   | 0x0000  |
| Data Size    | 1 bytes |
| Instructions | 1       |

```
      00 01 02 03 04 05 06 07  08 09 0A 0B 0C 0D 0E 0F
      -- -- -- -- -- -- -- --  -- -- -- -- -- -- -- --
0000: 00                                                .               
```

#### Opcodes

```
  0: 0x0000 [0x00] END_REQSTACK()
```

### Event 5

#### Metadata

| Field        | Value   |
|--------------|---------|
| Entrypoint   | 0x0001  |
| Data Size    | 1 bytes |
| Instructions | 1       |

```
      00 01 02 03 04 05 06 07  08 09 0A 0B 0C 0D 0E 0F
      -- -- -- -- -- -- -- --  -- -- -- -- -- -- -- --
0000:    00                                              .              
```

#### Opcodes

```
  0: 0x0001 [0x00] END_REQSTACK()
```

### Event 65535.1

#### Metadata

| Field        | Value    |
|--------------|----------|
| Entrypoint   | 0x0002   |
| Data Size    | 19 bytes |
| Instructions | 5        |

```
      00 01 02 03 04 05 06 07  08 09 0A 0B 0C 0D 0E 0F
      -- -- -- -- -- -- -- --  -- -- -- -- -- -- -- --
0000:       1C 00 80 4A F8 FF  FF 7F 52 B3 05 01 6F 76    ...J....R...ov
0010: F8 FF FF 7F 00                                    .....           
```

#### Opcodes

```
  0: 0x0002 [0x1C] WAIT(15* ticks)
  1: 0x0005 [0x4A] EventEntity looks at Darach (ID: 17150802/0x0105B352)
  2: 0x000E [0x6F] WAIT_FRAME_DELAY: Yield until WaitTime reaches zero
  3: 0x000F [0x76] CHECK_ENTITY_RENDER_FLAGS: Wait until EventEntity Render.Flags0 and Render.Flags3 conditions are met
  4: 0x0014 [0x00] END_REQSTACK()
```

### Event 65535.2

#### Metadata

| Field        | Value    |
|--------------|----------|
| Entrypoint   | 0x0015   |
| Data Size    | 17 bytes |
| Instructions | 6        |

```
      00 01 02 03 04 05 06 07  08 09 0A 0B 0C 0D 0E 0F
      -- -- -- -- -- -- -- --  -- -- -- -- -- -- -- --
0010:                61 00 32  01 80 1F 00 02 80 03 80       a.2........
0020: 04 80 1F 01 6F 00                                 ....o.          
```

#### Opcodes

```
  0: 0x0015 [0x61] EventEntity->Render.Flags2 &= ~0x00000001
  1: 0x0017 [0x32] ExtData[1]->MainSpeed = 13* * 0.1
  2: 0x001A [0x1F] MOVE_ENTITY: EventEntity moves to X=-87.511*, Z=-918.043*, Y=0.173*
  3: 0x0022 [0x1F] MOVE_ENTITY: Update entity position (mode=1)
  4: 0x0024 [0x6F] WAIT_FRAME_DELAY: Yield until WaitTime reaches zero
  5: 0x0025 [0x00] END_REQSTACK()
```

### Event 65535.3

#### Metadata

| Field        | Value    |
|--------------|----------|
| Entrypoint   | 0x0026   |
| Data Size    | 19 bytes |
| Instructions | 5        |

```
      00 01 02 03 04 05 06 07  08 09 0A 0B 0C 0D 0E 0F
      -- -- -- -- -- -- -- --  -- -- -- -- -- -- -- --
0020:                   1C 00  80 4A F8 FF FF 7F 4F B3        ...J....O.
0030: 05 01 6F 76 F8 FF FF 7F  00                       ..ov.....       
```

#### Opcodes

```
  0: 0x0026 [0x1C] WAIT(15* ticks)
  1: 0x0029 [0x4A] EventEntity looks at Abenzio (ID: 17150799/0x0105B34F)
  2: 0x0032 [0x6F] WAIT_FRAME_DELAY: Yield until WaitTime reaches zero
  3: 0x0033 [0x76] CHECK_ENTITY_RENDER_FLAGS: Wait until EventEntity Render.Flags0 and Render.Flags3 conditions are met
  4: 0x0038 [0x00] END_REQSTACK()
```

### Event 65535.4

#### Metadata

| Field        | Value    |
|--------------|----------|
| Entrypoint   | 0x0039   |
| Data Size    | 16 bytes |
| Instructions | 4        |

```
      00 01 02 03 04 05 06 07  08 09 0A 0B 0C 0D 0E 0F
      -- -- -- -- -- -- -- --  -- -- -- -- -- -- -- --
0030:                             4A F8 FF FF 7F 52 B3           J....R.
0040: 05 01 6F 76 F8 FF FF 7F  00                       ..ov.....       
```

#### Opcodes

```
  0: 0x0039 [0x4A] EventEntity looks at Darach (ID: 17150802/0x0105B352)
  1: 0x0042 [0x6F] WAIT_FRAME_DELAY: Yield until WaitTime reaches zero
  2: 0x0043 [0x76] CHECK_ENTITY_RENDER_FLAGS: Wait until EventEntity Render.Flags0 and Render.Flags3 conditions are met
  3: 0x0048 [0x00] END_REQSTACK()
```

### Event 65535.5

#### Metadata

| Field        | Value    |
|--------------|----------|
| Entrypoint   | 0x0049   |
| Data Size    | 16 bytes |
| Instructions | 4        |

```
      00 01 02 03 04 05 06 07  08 09 0A 0B 0C 0D 0E 0F
      -- -- -- -- -- -- -- --  -- -- -- -- -- -- -- --
0040:                             4A F8 FF FF 7F 51 B3           J....Q.
0050: 05 01 6F 76 F8 FF FF 7F  00                       ..ov.....       
```

#### Opcodes

```
  0: 0x0049 [0x4A] EventEntity looks at Camlin (ID: 17150801/0x0105B351)
  1: 0x0052 [0x6F] WAIT_FRAME_DELAY: Yield until WaitTime reaches zero
  2: 0x0053 [0x76] CHECK_ENTITY_RENDER_FLAGS: Wait until EventEntity Render.Flags0 and Render.Flags3 conditions are met
  3: 0x0058 [0x00] END_REQSTACK()
```

### Event 65535.6

#### Metadata

| Field        | Value    |
|--------------|----------|
| Entrypoint   | 0x0059   |
| Data Size    | 14 bytes |
| Instructions | 4        |

```
      00 01 02 03 04 05 06 07  08 09 0A 0B 0C 0D 0E 0F
      -- -- -- -- -- -- -- --  -- -- -- -- -- -- -- --
0050:                             32 05 80 1F 00 06 80           2......
0060: 07 80 08 80 1F 01 00                              .......         
```

#### Opcodes

```
  0: 0x0059 [0x32] ExtData[1]->MainSpeed = 4* * 0.1
  1: 0x005C [0x1F] MOVE_ENTITY: EventEntity moves to X=138.004*, Z=-401.354*, Y=25.075*
  2: 0x0064 [0x1F] MOVE_ENTITY: Update entity position (mode=1)
  3: 0x0066 [0x00] END_REQSTACK()
```

### Event 65535.7

#### Metadata

| Field        | Value    |
|--------------|----------|
| Entrypoint   | 0x0067   |
| Data Size    | 14 bytes |
| Instructions | 4        |

```
      00 01 02 03 04 05 06 07  08 09 0A 0B 0C 0D 0E 0F
      -- -- -- -- -- -- -- --  -- -- -- -- -- -- -- --
0060:                      32  09 80 1F 00 0A 80 0B 80         2........
0070: 0C 80 1F 01 00                                    .....           
```

#### Opcodes

```
  0: 0x0067 [0x32] ExtData[1]->MainSpeed = 3* * 0.1
  1: 0x006A [0x1F] MOVE_ENTITY: EventEntity moves to X=-84.489*, Z=-898.431*, Y=0.689*
  2: 0x0072 [0x1F] MOVE_ENTITY: Update entity position (mode=1)
  3: 0x0074 [0x00] END_REQSTACK()
```
