# 17150803

## Common Data

| Field            | Value                          |
|------------------|--------------------------------|
| Zone             | Rolanberry Fields [S] (ID: 91) |
| Block Size       | 312 bytes                      |
| Total Events     | 7                              |
| References Count | 17                             |

## List of Events

| Event ID                 | Entrypoint   |   Size |   Instructions |
|--------------------------|--------------|--------|----------------|
| [65535](#event-65535)    | 0x0000       |      1 |              1 |
| [5](#event-5)            | 0x0001       |      1 |              1 |
| [65535.1](#event-655351) | 0x0002       |     45 |              8 |
| [65535.2](#event-655352) | 0x002F       |     15 |              5 |
| [65535.3](#event-655353) | 0x003E       |    105 |             30 |
| [65535.4](#event-655354) | 0x00A7       |     16 |              4 |
| [65535.5](#event-655355) | 0x00B7       |     14 |              4 |

## DAT References (imed_data)

|   Index | Hex Value   |   Dec Value |
|---------|-------------|-------------|
|       0 | 0xFFFEBF60  |  4294885216 |
|       1 | 0xFFF23131  |  4294062385 |
|       2 | 0x02C0      |         704 |
|       3 | 0x01E0      |         480 |
|       4 | 0x002B      |          43 |
|       5 | 0xFFFED114  |  4294889748 |
|       6 | 0xFFF25EBA  |  4294074042 |
|       7 | 0x0208      |         520 |
|       8 | 0x0028      |          40 |
|       9 | 0x80022     |      524322 |
|      10 | 0x71756     |      464726 |
|      11 | 0x61A7      |       24999 |
|      12 | 0x000F      |          15 |
|      13 | 0x0006      |           6 |
|      14 | 0x1FB66     |      129894 |
|      15 | 0xFFF9C69F  |  4294559391 |
|      16 | 0x5ED4      |       24276 |

## Events

### Event 65535

#### Metadata

| Field        | Value   |
|--------------|---------|
| Entrypoint   | 0x0000  |
| Data Size    | 1 bytes |
| Instructions | 1       |

```
      00 01 02 03 04 05 06 07  08 09 0A 0B 0C 0D 0E 0F
      -- -- -- -- -- -- -- --  -- -- -- -- -- -- -- --
0000: 00                                                .               
```

#### Opcodes

```
  0: 0x0000 [0x00] END_REQSTACK()
```

### Event 5

#### Metadata

| Field        | Value   |
|--------------|---------|
| Entrypoint   | 0x0001  |
| Data Size    | 1 bytes |
| Instructions | 1       |

```
      00 01 02 03 04 05 06 07  08 09 0A 0B 0C 0D 0E 0F
      -- -- -- -- -- -- -- --  -- -- -- -- -- -- -- --
0000:    00                                              .              
```

#### Opcodes

```
  0: 0x0001 [0x00] END_REQSTACK()
```

### Event 65535.1

#### Metadata

| Field        | Value    |
|--------------|----------|
| Entrypoint   | 0x0002   |
| Data Size    | 45 bytes |
| Instructions | 8        |

```
      00 01 02 03 04 05 06 07  08 09 0A 0B 0C 0D 0E 0F
      -- -- -- -- -- -- -- --  -- -- -- -- -- -- -- --
0000:       2F 00 F8 FF FF 7F  4E 00 F8 FF FF 7F 94 01    /.....N.......
0010: F8 FF FF 7F 92 01 F8 FF  FF 7F BA F8 FF FF 7F 00  ................
0020: 80 01 80 02 80 03 80 33  00 80 F8 FF FF 7F 00     .......3....... 
```

#### Opcodes

```
  0: 0x0002 [0x2F] EventEntity->Render.Flags0 &= ~0x80000 // Bit 19
  1: 0x0008 [0x4E] SET_ENTITY_HIDE_FLAG: Show EventEntity
  2: 0x000E [0x94] EventEntity->Render.Flags3 ^= 0x01
  3: 0x0014 [0x92] EventEntity->Render.Flags3 ^= 0x01
  4: 0x001A [0xBA] SET_ENTITY_POSITION(entity_id=EventEntity, pos_x=-82.080*, pos_z=-904.911*, pos_y=0.704*, direction=42.2°*)
  5: 0x0027 [0x33] EventEntity->Render.Flags0 &= ~ 0x200000 // Bit 21 (flag=0x00)
  6: 0x0029 [0x80] LOAD_WAIT(entity=EventEntity)
  7: 0x002E [0x00] END_REQSTACK()
```

### Event 65535.2

#### Metadata

| Field        | Value    |
|--------------|----------|
| Entrypoint   | 0x002F   |
| Data Size    | 15 bytes |
| Instructions | 5        |

```
      00 01 02 03 04 05 06 07  08 09 0A 0B 0C 0D 0E 0F
      -- -- -- -- -- -- -- --  -- -- -- -- -- -- -- --
0020:                                               32                 2
0030: 04 80 1F 00 05 80 06 80  07 80 1F 01 6F 00        ............o.  
```

#### Opcodes

```
  0: 0x002F [0x32] ExtData[1]->MainSpeed = 43* * 0.1
  1: 0x0032 [0x1F] MOVE_ENTITY: EventEntity moves to X=-77.548*, Z=-893.254*, Y=0.520*
  2: 0x003A [0x1F] MOVE_ENTITY: Update entity position (mode=1)
  3: 0x003C [0x6F] WAIT_FRAME_DELAY: Yield until WaitTime reaches zero
  4: 0x003D [0x00] END_REQSTACK()
```

### Event 65535.3

#### Metadata

| Field        | Value     |
|--------------|-----------|
| Entrypoint   | 0x003E    |
| Data Size    | 105 bytes |
| Instructions | 30        |

```
      00 01 02 03 04 05 06 07  08 09 0A 0B 0C 0D 0E 0F
      -- -- -- -- -- -- -- --  -- -- -- -- -- -- -- --
0030:                                            4A F8                J.
0040: FF FF 7F 4F B3 05 01 6F  76 F8 FF FF 7F 61 00 32  ...O...ov....a.2
0050: 08 80 1F 00 09 80 0A 80  0B 80 1F 01 6F 1C 0C 80  ............o...
0060: 1F 00 09 80 0A 80 0B 80  1F 01 6F 1C 0C 80 1F 00  ..........o.....
0070: 09 80 0A 80 0B 80 1F 01  6F 1C 0C 80 1F 00 09 80  ........o.......
0080: 0A 80 0B 80 1F 01 6F 1C  0C 80 1F 00 09 80 0A 80  ......o.........
0090: 0B 80 1F 01 6F 1C 0C 80  1F 00 09 80 0A 80 0B 80  ....o...........
00A0: 1F 01 6F 1C 0C 80 00                              ..o....         
```

#### Opcodes

```
  0: 0x003E [0x4A] EventEntity looks at Abenzio (ID: 17150799/0x0105B34F)
  1: 0x0047 [0x6F] WAIT_FRAME_DELAY: Yield until WaitTime reaches zero
  2: 0x0048 [0x76] CHECK_ENTITY_RENDER_FLAGS: Wait until EventEntity Render.Flags0 and Render.Flags3 conditions are met
  3: 0x004D [0x61] EventEntity->Render.Flags2 &= ~0x00000001
  4: 0x004F [0x32] ExtData[1]->MainSpeed = 40* * 0.1
  5: 0x0052 [0x1F] MOVE_ENTITY: EventEntity moves to X=524.322*, Z=464.726*, Y=24.999*
  6: 0x005A [0x1F] MOVE_ENTITY: Update entity position (mode=1)
  7: 0x005C [0x6F] WAIT_FRAME_DELAY: Yield until WaitTime reaches zero
  8: 0x005D [0x1C] WAIT(15* ticks)
  9: 0x0060 [0x1F] MOVE_ENTITY: EventEntity moves to X=524.322*, Z=464.726*, Y=24.999*
 10: 0x0068 [0x1F] MOVE_ENTITY: Update entity position (mode=1)
 11: 0x006A [0x6F] WAIT_FRAME_DELAY: Yield until WaitTime reaches zero
 12: 0x006B [0x1C] WAIT(15* ticks)
 13: 0x006E [0x1F] MOVE_ENTITY: EventEntity moves to X=524.322*, Z=464.726*, Y=24.999*
 14: 0x0076 [0x1F] MOVE_ENTITY: Update entity position (mode=1)
 15: 0x0078 [0x6F] WAIT_FRAME_DELAY: Yield until WaitTime reaches zero
 16: 0x0079 [0x1C] WAIT(15* ticks)
 17: 0x007C [0x1F] MOVE_ENTITY: EventEntity moves to X=524.322*, Z=464.726*, Y=24.999*
 18: 0x0084 [0x1F] MOVE_ENTITY: Update entity position (mode=1)
 19: 0x0086 [0x6F] WAIT_FRAME_DELAY: Yield until WaitTime reaches zero
 20: 0x0087 [0x1C] WAIT(15* ticks)
 21: 0x008A [0x1F] MOVE_ENTITY: EventEntity moves to X=524.322*, Z=464.726*, Y=24.999*
 22: 0x0092 [0x1F] MOVE_ENTITY: Update entity position (mode=1)
 23: 0x0094 [0x6F] WAIT_FRAME_DELAY: Yield until WaitTime reaches zero
 24: 0x0095 [0x1C] WAIT(15* ticks)
 25: 0x0098 [0x1F] MOVE_ENTITY: EventEntity moves to X=524.322*, Z=464.726*, Y=24.999*
 26: 0x00A0 [0x1F] MOVE_ENTITY: Update entity position (mode=1)
 27: 0x00A2 [0x6F] WAIT_FRAME_DELAY: Yield until WaitTime reaches zero
 28: 0x00A3 [0x1C] WAIT(15* ticks)
 29: 0x00A6 [0x00] END_REQSTACK()
```

### Event 65535.4

#### Metadata

| Field        | Value    |
|--------------|----------|
| Entrypoint   | 0x00A7   |
| Data Size    | 16 bytes |
| Instructions | 4        |

```
      00 01 02 03 04 05 06 07  08 09 0A 0B 0C 0D 0E 0F
      -- -- -- -- -- -- -- --  -- -- -- -- -- -- -- --
00A0:                      4A  F8 FF FF 7F 51 B3 05 01         J....Q...
00B0: 6F 76 F8 FF FF 7F 00                              ov.....         
```

#### Opcodes

```
  0: 0x00A7 [0x4A] EventEntity looks at Camlin (ID: 17150801/0x0105B351)
  1: 0x00B0 [0x6F] WAIT_FRAME_DELAY: Yield until WaitTime reaches zero
  2: 0x00B1 [0x76] CHECK_ENTITY_RENDER_FLAGS: Wait until EventEntity Render.Flags0 and Render.Flags3 conditions are met
  3: 0x00B6 [0x00] END_REQSTACK()
```

### Event 65535.5

#### Metadata

| Field        | Value    |
|--------------|----------|
| Entrypoint   | 0x00B7   |
| Data Size    | 14 bytes |
| Instructions | 4        |

```
      00 01 02 03 04 05 06 07  08 09 0A 0B 0C 0D 0E 0F
      -- -- -- -- -- -- -- --  -- -- -- -- -- -- -- --
00B0:                      32  0D 80 1F 00 0E 80 0F 80         2........
00C0: 10 80 1F 01 00                                    .....           
```

#### Opcodes

```
  0: 0x00B7 [0x32] ExtData[1]->MainSpeed = 6* * 0.1
  1: 0x00BA [0x1F] MOVE_ENTITY: EventEntity moves to X=129.894*, Z=-407.905*, Y=24.276*
  2: 0x00C2 [0x1F] MOVE_ENTITY: Update entity position (mode=1)
  3: 0x00C4 [0x00] END_REQSTACK()
```
