# 17150757 - Barnabas

## Common Data

| Field            | Value                          |
|------------------|--------------------------------|
| Zone             | Rolanberry Fields [S] (ID: 91) |
| Block Size       | 1208 bytes                     |
| Total Events     | 40                             |
| References Count | 97                             |

## List of Events

| Event ID                   | Entrypoint   |   Size |   Instructions |
|----------------------------|--------------|--------|----------------|
| [65535](#event-65535)      | 0x0000       |      1 |              1 |
| [65535.1](#event-655351)   | 0x0001       |      1 |              1 |
| [65535.2](#event-655352)   | 0x0002       |     18 |              4 |
| [65535.3](#event-655353)   | 0x0014       |     10 |              2 |
| [65535.4](#event-655354)   | 0x001E       |      9 |              3 |
| [65535.5](#event-655355)   | 0x0027       |      9 |              3 |
| [65535.6](#event-655356)   | 0x0030       |     10 |              2 |
| [65535.7](#event-655357)   | 0x003A       |     10 |              2 |
| [700](#event-700)          | 0x0044       |      1 |              1 |
| [65535.8](#event-655358)   | 0x0045       |     25 |              3 |
| [65535.9](#event-655359)   | 0x005E       |      7 |              2 |
| [65535.10](#event-6553510) | 0x0065       |     15 |              5 |
| [65535.11](#event-6553511) | 0x0074       |     18 |              6 |
| [65535.12](#event-6553512) | 0x0086       |     18 |              6 |
| [65535.13](#event-6553513) | 0x0098       |     15 |              5 |
| [65535.14](#event-6553514) | 0x00A7       |     41 |             10 |
| [65535.15](#event-6553515) | 0x00D0       |     18 |              6 |
| [65535.16](#event-6553516) | 0x00E2       |     15 |              5 |
| [65535.17](#event-6553517) | 0x00F1       |     18 |              6 |
| [65535.18](#event-6553518) | 0x0103       |     18 |              6 |
| [65535.19](#event-6553519) | 0x0115       |     15 |              5 |
| [65535.20](#event-6553520) | 0x0124       |     41 |             10 |
| [65535.21](#event-6553521) | 0x014D       |     18 |              6 |
| [65535.22](#event-6553522) | 0x015F       |     15 |              5 |
| [65535.23](#event-6553523) | 0x016E       |     18 |              6 |
| [65535.24](#event-6553524) | 0x0180       |     18 |              6 |
| [65535.25](#event-6553525) | 0x0192       |     15 |              5 |
| [65535.26](#event-6553526) | 0x01A1       |     49 |             12 |
| [65535.27](#event-6553527) | 0x01D2       |     18 |              6 |
| [65535.28](#event-6553528) | 0x01E4       |      1 |              1 |
| [65535.29](#event-6553529) | 0x01E5       |     24 |              6 |
| [65535.30](#event-6553530) | 0x01FD       |     22 |              6 |
| [65535.31](#event-6553531) | 0x0213       |     22 |              6 |
| [65535.32](#event-6553532) | 0x0229       |      1 |              1 |
| [65535.33](#event-6553533) | 0x022A       |     14 |              4 |
| [65535.34](#event-6553534) | 0x0238       |     13 |              3 |
| [65535.35](#event-6553535) | 0x0245       |     31 |              7 |
| [65535.36](#event-6553536) | 0x0264       |      1 |              1 |
| [65535.37](#event-6553537) | 0x0265       |     14 |              4 |
| [65535.38](#event-6553538) | 0x0273       |     14 |              4 |

## DAT References (imed_data)

|   Index | Hex Value   |   Dec Value |
|---------|-------------|-------------|
|       0 | 0x0000      |           0 |
|       1 | 0x0001      |           1 |
|       2 | 0x0080      |         128 |
|       3 | 0x0050      |          80 |
|       4 | 0xFFFF67C6  |  4294928326 |
|       5 | 0x634C5     |      406725 |
|       6 | 0x0086      |         134 |
|       7 | 0x001E      |          30 |
|       8 | 0x0014      |          20 |
|       9 | 0xFFFF6765  |  4294928229 |
|      10 | 0x6602A     |      417834 |
|      11 | 0x037B      |         891 |
|      12 | 0x000A      |          10 |
|      13 | 0x0028      |          40 |
|      14 | 0xFFFF4DBD  |  4294921661 |
|      15 | 0x6A648     |      435784 |
|      16 | 0x000B      |          11 |
|      17 | 0xFFFF3A5A  |  4294916698 |
|      18 | 0x6B25F     |      438879 |
|      19 | 0x0147      |         327 |
|      20 | 0x002D      |          45 |
|      21 | 0xFFFF40D5  |  4294918357 |
|      22 | 0x6AB71     |      437105 |
|      23 | 0x00F5      |         245 |
|      24 | 0x0026      |          38 |
|      25 | 0xFFFF494C  |  4294920524 |
|      26 | 0x6A1B7     |      434615 |
|      27 | 0x00B1      |         177 |
|      28 | 0xFFFF645D  |  4294927453 |
|      29 | 0x68873     |      428147 |
|      30 | 0x017C      |         380 |
|      31 | 0xFFFD41CD  |  4294787533 |
|      32 | 0x57AEC     |      359148 |
|      33 | 0x231B      |        8987 |
|      34 | 0xFFFD2440  |  4294779968 |
|      35 | 0x57ACC     |      359116 |
|      36 | 0x210E      |        8462 |
|      37 | 0xFFFCF8FE  |  4294768894 |
|      38 | 0x58585     |      361861 |
|      39 | 0x1F3F      |        7999 |
|      40 | 0xFFFD00AD  |  4294770861 |
|      41 | 0x596B7     |      366263 |
|      42 | 0x1FAF      |        8111 |
|      43 | 0xFFFD0518  |  4294771992 |
|      44 | 0x593A5     |      365477 |
|      45 | 0x1FAA      |        8106 |
|      46 | 0xFFFD0E7B  |  4294774395 |
|      47 | 0x58C40     |      363584 |
|      48 | 0x1FD9      |        8153 |
|      49 | 0xFFFD1FFA  |  4294778874 |
|      50 | 0x57EF7     |      360183 |
|      51 | 0x20B8      |        8376 |
|      52 | 0x61ACF     |      400079 |
|      53 | 0xFFFCC5D0  |  4294755792 |
|      54 | 0x3F9A      |       16282 |
|      55 | 0x601AB     |      393643 |
|      56 | 0xFFFCBA0A  |  4294752778 |
|      57 | 0x40BF      |       16575 |
|      58 | 0x5E649     |      386633 |
|      59 | 0xFFFCC96A  |  4294756714 |
|      60 | 0x3EF5      |       16117 |
|      61 | 0x5E89D     |      387229 |
|      62 | 0xFFFCBC42  |  4294753346 |
|      63 | 0x3F0B      |       16139 |
|      64 | 0x000F      |          15 |
|      65 | 0x5EB4D     |      387917 |
|      66 | 0xFFFCBC74  |  4294753396 |
|      67 | 0x3F33      |       16179 |
|      68 | 0x5F445     |      390213 |
|      69 | 0xFFFCBB90  |  4294753168 |
|      70 | 0x4001      |       16385 |
|      71 | 0x600BE     |      393406 |
|      72 | 0xFFFCC045  |  4294754373 |
|      73 | 0x4059      |       16473 |
|      74 | 0x000D      |          13 |
|      75 | 0x64DD      |       25821 |
|      76 | 0xFA23      |       64035 |
|      77 | 0x07CB      |        1995 |
|      78 | 0x73A4      |       29604 |
|      79 | 0xFA1D      |       64029 |
|      80 | 0x07C7      |        1991 |
|      81 | 0x5522      |       21794 |
|      82 | 0xF7E1      |       63457 |
|      83 | 0x07CF      |        1999 |
|      84 | 0x4E90      |       20112 |
|      85 | 0xF806      |       63494 |
|      86 | 0xFFFFC3F7  |  4294951927 |
|      87 | 0xFFFFEA20  |  4294961696 |
|      88 | 0x0BB7      |        2999 |
|      89 | 0x002B      |          43 |
|      90 | 0xFFFFD478  |  4294956152 |
|      91 | 0xFFFFE7B3  |  4294961075 |
|      92 | 0xFFFF41EB  |  4294918635 |
|      93 | 0xFFFED4D1  |  4294890705 |
|      94 | 0x176F      |        5999 |
|      95 | 0xFFFEFA70  |  4294900336 |
|      96 | 0xFFFE5CF4  |  4294860020 |

## Events

### Event 65535

#### Metadata

| Field        | Value   |
|--------------|---------|
| Entrypoint   | 0x0000  |
| Data Size    | 1 bytes |
| Instructions | 1       |

```
      00 01 02 03 04 05 06 07  08 09 0A 0B 0C 0D 0E 0F
      -- -- -- -- -- -- -- --  -- -- -- -- -- -- -- --
0000: 00                                                .               
```

#### Opcodes

```
  0: 0x0000 [0x00] END_REQSTACK()
```

### Event 65535.1

#### Metadata

| Field        | Value   |
|--------------|---------|
| Entrypoint   | 0x0001  |
| Data Size    | 1 bytes |
| Instructions | 1       |

```
      00 01 02 03 04 05 06 07  08 09 0A 0B 0C 0D 0E 0F
      -- -- -- -- -- -- -- --  -- -- -- -- -- -- -- --
0000:    00                                              .              
```

#### Opcodes

```
  0: 0x0001 [0x00] END_REQSTACK()
```

### Event 65535.2

#### Metadata

| Field        | Value    |
|--------------|----------|
| Entrypoint   | 0x0002   |
| Data Size    | 18 bytes |
| Instructions | 4        |

```
      00 01 02 03 04 05 06 07  08 09 0A 0B 0C 0D 0E 0F
      -- -- -- -- -- -- -- --  -- -- -- -- -- -- -- --
0000:       22 00 2F 00 F8 FF  FF 7F 6C F8 FF FF 7F 00    "./.....l.....
0010: 80 01 80 00                                       ....            
```

#### Opcodes

```
  0: 0x0002 [0x22] ENTITY_HIDE_FLAG(enabled=0x00)
  1: 0x0004 [0x2F] EventEntity->Render.Flags0 &= ~0x80000 // Bit 19
  2: 0x000A [0x6C] FADE_ENTITY_COLOR(entity_id=EventEntity, end_alpha=0*, fade_time=1*)
  3: 0x0013 [0x00] END_REQSTACK()
```

### Event 65535.3

#### Metadata

| Field        | Value    |
|--------------|----------|
| Entrypoint   | 0x0014   |
| Data Size    | 10 bytes |
| Instructions | 2        |

```
      00 01 02 03 04 05 06 07  08 09 0A 0B 0C 0D 0E 0F
      -- -- -- -- -- -- -- --  -- -- -- -- -- -- -- --
0010:             6C F8 FF FF  7F 02 80 01 80 00            l.........  
```

#### Opcodes

```
  0: 0x0014 [0x6C] FADE_ENTITY_COLOR(entity_id=EventEntity, end_alpha=128*, fade_time=1*)
  1: 0x001D [0x00] END_REQSTACK()
```

### Event 65535.4

#### Metadata

| Field        | Value   |
|--------------|---------|
| Entrypoint   | 0x001E  |
| Data Size    | 9 bytes |
| Instructions | 3       |

```
      00 01 02 03 04 05 06 07  08 09 0A 0B 0C 0D 0E 0F
      -- -- -- -- -- -- -- --  -- -- -- -- -- -- -- --
0010:                                            22 00                ".
0020: 2F 00 F8 FF FF 7F 00                              /......         
```

#### Opcodes

```
  0: 0x001E [0x22] ENTITY_HIDE_FLAG(enabled=0x00)
  1: 0x0020 [0x2F] EventEntity->Render.Flags0 &= ~0x80000 // Bit 19
  2: 0x0026 [0x00] END_REQSTACK()
```

### Event 65535.5

#### Metadata

| Field        | Value   |
|--------------|---------|
| Entrypoint   | 0x0027  |
| Data Size    | 9 bytes |
| Instructions | 3       |

```
      00 01 02 03 04 05 06 07  08 09 0A 0B 0C 0D 0E 0F
      -- -- -- -- -- -- -- --  -- -- -- -- -- -- -- --
0020:                      22  01 2F 01 F8 FF FF 7F 00         "./......
```

#### Opcodes

```
  0: 0x0027 [0x22] ENTITY_HIDE_FLAG(enabled=0x01)
  1: 0x0029 [0x2F] EventEntity->Render.Flags0 |= 0x80000 // Bit 19
  2: 0x002F [0x00] END_REQSTACK()
```

### Event 65535.6

#### Metadata

| Field        | Value    |
|--------------|----------|
| Entrypoint   | 0x0030   |
| Data Size    | 10 bytes |
| Instructions | 2        |

```
      00 01 02 03 04 05 06 07  08 09 0A 0B 0C 0D 0E 0F
      -- -- -- -- -- -- -- --  -- -- -- -- -- -- -- --
0030: 6C F8 FF FF 7F 00 80 01  80 00                    l.........      
```

#### Opcodes

```
  0: 0x0030 [0x6C] FADE_ENTITY_COLOR(entity_id=EventEntity, end_alpha=0*, fade_time=1*)
  1: 0x0039 [0x00] END_REQSTACK()
```

### Event 65535.7

#### Metadata

| Field        | Value    |
|--------------|----------|
| Entrypoint   | 0x003A   |
| Data Size    | 10 bytes |
| Instructions | 2        |

```
      00 01 02 03 04 05 06 07  08 09 0A 0B 0C 0D 0E 0F
      -- -- -- -- -- -- -- --  -- -- -- -- -- -- -- --
0030:                                6C F8 FF FF 7F 02            l.....
0040: 80 01 80 00                                       ....            
```

#### Opcodes

```
  0: 0x003A [0x6C] FADE_ENTITY_COLOR(entity_id=EventEntity, end_alpha=128*, fade_time=1*)
  1: 0x0043 [0x00] END_REQSTACK()
```

### Event 700

#### Metadata

| Field        | Value   |
|--------------|---------|
| Entrypoint   | 0x0044  |
| Data Size    | 1 bytes |
| Instructions | 1       |

```
      00 01 02 03 04 05 06 07  08 09 0A 0B 0C 0D 0E 0F
      -- -- -- -- -- -- -- --  -- -- -- -- -- -- -- --
0040:             00                                        .           
```

#### Opcodes

```
  0: 0x0044 [0x00] END_REQSTACK()
```

### Event 65535.8

#### Metadata

| Field        | Value    |
|--------------|----------|
| Entrypoint   | 0x0045   |
| Data Size    | 25 bytes |
| Instructions | 3        |

```
      00 01 02 03 04 05 06 07  08 09 0A 0B 0C 0D 0E 0F
      -- -- -- -- -- -- -- --  -- -- -- -- -- -- -- --
0040:                7E 06 F8  FF FF 7F 00 80 00 80 00       ~..........
0050: 80 01 80 00 80 01 80 7E  04 F8 FF FF 7F 00        .......~......  
```

#### Opcodes

```
  0: 0x0045 [0x7E] CHOCOBO_MOUNT: Mode 6 (custom mount) on EventEntity
  1: 0x0057 [0x7E] CHOCOBO_MOUNT: Mode 4 on EventEntity
  2: 0x005D [0x00] END_REQSTACK()
```

### Event 65535.9

#### Metadata

| Field        | Value   |
|--------------|---------|
| Entrypoint   | 0x005E  |
| Data Size    | 7 bytes |
| Instructions | 2       |

```
      00 01 02 03 04 05 06 07  08 09 0A 0B 0C 0D 0E 0F
      -- -- -- -- -- -- -- --  -- -- -- -- -- -- -- --
0050:                                            7E 05                ~.
0060: F8 FF FF 7F 00                                    .....           
```

#### Opcodes

```
  0: 0x005E [0x7E] CHOCOBO_MOUNT: Dismount EventEntity (status = 0)
  1: 0x0064 [0x00] END_REQSTACK()
```

### Event 65535.10

#### Metadata

| Field        | Value    |
|--------------|----------|
| Entrypoint   | 0x0065   |
| Data Size    | 15 bytes |
| Instructions | 5        |

```
      00 01 02 03 04 05 06 07  08 09 0A 0B 0C 0D 0E 0F
      -- -- -- -- -- -- -- --  -- -- -- -- -- -- -- --
0060:                32 03 80  1F 00 04 80 05 80 06 80       2..........
0070: 1F 01 6F 00                                       ..o.            
```

#### Opcodes

```
  0: 0x0065 [0x32] ExtData[1]->MainSpeed = 80* * 0.1
  1: 0x0068 [0x1F] MOVE_ENTITY: EventEntity moves to X=-38.970*, Z=406.725*, Y=0.134*
  2: 0x0070 [0x1F] MOVE_ENTITY: Update entity position (mode=1)
  3: 0x0072 [0x6F] WAIT_FRAME_DELAY: Yield until WaitTime reaches zero
  4: 0x0073 [0x00] END_REQSTACK()
```

### Event 65535.11

#### Metadata

| Field        | Value    |
|--------------|----------|
| Entrypoint   | 0x0074   |
| Data Size    | 18 bytes |
| Instructions | 6        |

```
      00 01 02 03 04 05 06 07  08 09 0A 0B 0C 0D 0E 0F
      -- -- -- -- -- -- -- --  -- -- -- -- -- -- -- --
0070:             1C 07 80 32  08 80 1F 00 09 80 0A 80      ...2........
0080: 0B 80 1F 01 6F 00                                 ....o.          
```

#### Opcodes

```
  0: 0x0074 [0x1C] WAIT(30* ticks)
  1: 0x0077 [0x32] ExtData[1]->MainSpeed = 20* * 0.1
  2: 0x007A [0x1F] MOVE_ENTITY: EventEntity moves to X=-39.067*, Z=417.834*, Y=0.891*
  3: 0x0082 [0x1F] MOVE_ENTITY: Update entity position (mode=1)
  4: 0x0084 [0x6F] WAIT_FRAME_DELAY: Yield until WaitTime reaches zero
  5: 0x0085 [0x00] END_REQSTACK()
```

### Event 65535.12

#### Metadata

| Field        | Value    |
|--------------|----------|
| Entrypoint   | 0x0086   |
| Data Size    | 18 bytes |
| Instructions | 6        |

```
      00 01 02 03 04 05 06 07  08 09 0A 0B 0C 0D 0E 0F
      -- -- -- -- -- -- -- --  -- -- -- -- -- -- -- --
0080:                   1C 0C  80 32 0D 80 1F 00 0E 80        ...2......
0090: 0F 80 03 80 1F 01 6F 00                           ......o.        
```

#### Opcodes

```
  0: 0x0086 [0x1C] WAIT(10* ticks)
  1: 0x0089 [0x32] ExtData[1]->MainSpeed = 40* * 0.1
  2: 0x008C [0x1F] MOVE_ENTITY: EventEntity moves to X=-45.635*, Z=435.784*, Y=0.080*
  3: 0x0094 [0x1F] MOVE_ENTITY: Update entity position (mode=1)
  4: 0x0096 [0x6F] WAIT_FRAME_DELAY: Yield until WaitTime reaches zero
  5: 0x0097 [0x00] END_REQSTACK()
```

### Event 65535.13

#### Metadata

| Field        | Value    |
|--------------|----------|
| Entrypoint   | 0x0098   |
| Data Size    | 15 bytes |
| Instructions | 5        |

```
      00 01 02 03 04 05 06 07  08 09 0A 0B 0C 0D 0E 0F
      -- -- -- -- -- -- -- --  -- -- -- -- -- -- -- --
0090:                          32 10 80 1F 00 11 80 12          2.......
00A0: 80 13 80 1F 01 6F 00                              .....o.         
```

#### Opcodes

```
  0: 0x0098 [0x32] ExtData[1]->MainSpeed = 11* * 0.1
  1: 0x009B [0x1F] MOVE_ENTITY: EventEntity moves to X=-50.598*, Z=438.879*, Y=0.327*
  2: 0x00A3 [0x1F] MOVE_ENTITY: Update entity position (mode=1)
  3: 0x00A5 [0x6F] WAIT_FRAME_DELAY: Yield until WaitTime reaches zero
  4: 0x00A6 [0x00] END_REQSTACK()
```

### Event 65535.14

#### Metadata

| Field        | Value    |
|--------------|----------|
| Entrypoint   | 0x00A7   |
| Data Size    | 41 bytes |
| Instructions | 10       |

```
      00 01 02 03 04 05 06 07  08 09 0A 0B 0C 0D 0E 0F
      -- -- -- -- -- -- -- --  -- -- -- -- -- -- -- --
00A0:                      1C  14 80 32 10 80 1F 00 15         ...2.....
00B0: 80 16 80 17 80 1F 01 79  00 F8 FF FF 7F 24 B3 05  .......y.....$..
00C0: 01 32 18 80 1F 00 19 80  1A 80 1B 80 1F 01 6F 00  .2............o.
```

#### Opcodes

```
  0: 0x00A7 [0x1C] WAIT(45* ticks)
  1: 0x00AA [0x32] ExtData[1]->MainSpeed = 11* * 0.1
  2: 0x00AD [0x1F] MOVE_ENTITY: EventEntity moves to X=-48.939*, Z=437.105*, Y=0.245*
  3: 0x00B5 [0x1F] MOVE_ENTITY: Update entity position (mode=1)
  4: 0x00B7 [0x79] EventEntity looks at Lysander (ID: 17150756/0x0105B324) (Basic look)
  5: 0x00C1 [0x32] ExtData[1]->MainSpeed = 38* * 0.1
  6: 0x00C4 [0x1F] MOVE_ENTITY: EventEntity moves to X=-46.772*, Z=434.615*, Y=0.177*
  7: 0x00CC [0x1F] MOVE_ENTITY: Update entity position (mode=1)
  8: 0x00CE [0x6F] WAIT_FRAME_DELAY: Yield until WaitTime reaches zero
  9: 0x00CF [0x00] END_REQSTACK()
```

### Event 65535.15

#### Metadata

| Field        | Value    |
|--------------|----------|
| Entrypoint   | 0x00D0   |
| Data Size    | 18 bytes |
| Instructions | 6        |

```
      00 01 02 03 04 05 06 07  08 09 0A 0B 0C 0D 0E 0F
      -- -- -- -- -- -- -- --  -- -- -- -- -- -- -- --
00D0: 1C 14 80 32 10 80 1F 00  1C 80 1D 80 1E 80 1F 01  ...2............
00E0: 6F 00                                             o.              
```

#### Opcodes

```
  0: 0x00D0 [0x1C] WAIT(45* ticks)
  1: 0x00D3 [0x32] ExtData[1]->MainSpeed = 11* * 0.1
  2: 0x00D6 [0x1F] MOVE_ENTITY: EventEntity moves to X=-39.843*, Z=428.147*, Y=0.380*
  3: 0x00DE [0x1F] MOVE_ENTITY: Update entity position (mode=1)
  4: 0x00E0 [0x6F] WAIT_FRAME_DELAY: Yield until WaitTime reaches zero
  5: 0x00E1 [0x00] END_REQSTACK()
```

### Event 65535.16

#### Metadata

| Field        | Value    |
|--------------|----------|
| Entrypoint   | 0x00E2   |
| Data Size    | 15 bytes |
| Instructions | 5        |

```
      00 01 02 03 04 05 06 07  08 09 0A 0B 0C 0D 0E 0F
      -- -- -- -- -- -- -- --  -- -- -- -- -- -- -- --
00E0:       32 03 80 1F 00 1F  80 20 80 21 80 1F 01 6F    2...... .!...o
00F0: 00                                                .               
```

#### Opcodes

```
  0: 0x00E2 [0x32] ExtData[1]->MainSpeed = 80* * 0.1
  1: 0x00E5 [0x1F] MOVE_ENTITY: EventEntity moves to X=-179.763*, Z=359.148*, Y=8.987*
  2: 0x00ED [0x1F] MOVE_ENTITY: Update entity position (mode=1)
  3: 0x00EF [0x6F] WAIT_FRAME_DELAY: Yield until WaitTime reaches zero
  4: 0x00F0 [0x00] END_REQSTACK()
```

### Event 65535.17

#### Metadata

| Field        | Value    |
|--------------|----------|
| Entrypoint   | 0x00F1   |
| Data Size    | 18 bytes |
| Instructions | 6        |

```
      00 01 02 03 04 05 06 07  08 09 0A 0B 0C 0D 0E 0F
      -- -- -- -- -- -- -- --  -- -- -- -- -- -- -- --
00F0:    1C 07 80 32 08 80 1F  00 22 80 23 80 24 80 1F   ...2....".#.$..
0100: 01 6F 00                                          .o.             
```

#### Opcodes

```
  0: 0x00F1 [0x1C] WAIT(30* ticks)
  1: 0x00F4 [0x32] ExtData[1]->MainSpeed = 20* * 0.1
  2: 0x00F7 [0x1F] MOVE_ENTITY: EventEntity moves to X=-187.328*, Z=359.116*, Y=8.462*
  3: 0x00FF [0x1F] MOVE_ENTITY: Update entity position (mode=1)
  4: 0x0101 [0x6F] WAIT_FRAME_DELAY: Yield until WaitTime reaches zero
  5: 0x0102 [0x00] END_REQSTACK()
```

### Event 65535.18

#### Metadata

| Field        | Value    |
|--------------|----------|
| Entrypoint   | 0x0103   |
| Data Size    | 18 bytes |
| Instructions | 6        |

```
      00 01 02 03 04 05 06 07  08 09 0A 0B 0C 0D 0E 0F
      -- -- -- -- -- -- -- --  -- -- -- -- -- -- -- --
0100:          1C 0C 80 32 0D  80 1F 00 25 80 26 80 27     ...2....%.&.'
0110: 80 1F 01 6F 00                                    ...o.           
```

#### Opcodes

```
  0: 0x0103 [0x1C] WAIT(10* ticks)
  1: 0x0106 [0x32] ExtData[1]->MainSpeed = 40* * 0.1
  2: 0x0109 [0x1F] MOVE_ENTITY: EventEntity moves to X=-198.402*, Z=361.861*, Y=7.999*
  3: 0x0111 [0x1F] MOVE_ENTITY: Update entity position (mode=1)
  4: 0x0113 [0x6F] WAIT_FRAME_DELAY: Yield until WaitTime reaches zero
  5: 0x0114 [0x00] END_REQSTACK()
```

### Event 65535.19

#### Metadata

| Field        | Value    |
|--------------|----------|
| Entrypoint   | 0x0115   |
| Data Size    | 15 bytes |
| Instructions | 5        |

```
      00 01 02 03 04 05 06 07  08 09 0A 0B 0C 0D 0E 0F
      -- -- -- -- -- -- -- --  -- -- -- -- -- -- -- --
0110:                32 10 80  1F 00 28 80 29 80 2A 80       2....(.).*.
0120: 1F 01 6F 00                                       ..o.            
```

#### Opcodes

```
  0: 0x0115 [0x32] ExtData[1]->MainSpeed = 11* * 0.1
  1: 0x0118 [0x1F] MOVE_ENTITY: EventEntity moves to X=-196.435*, Z=366.263*, Y=8.111*
  2: 0x0120 [0x1F] MOVE_ENTITY: Update entity position (mode=1)
  3: 0x0122 [0x6F] WAIT_FRAME_DELAY: Yield until WaitTime reaches zero
  4: 0x0123 [0x00] END_REQSTACK()
```

### Event 65535.20

#### Metadata

| Field        | Value    |
|--------------|----------|
| Entrypoint   | 0x0124   |
| Data Size    | 41 bytes |
| Instructions | 10       |

```
      00 01 02 03 04 05 06 07  08 09 0A 0B 0C 0D 0E 0F
      -- -- -- -- -- -- -- --  -- -- -- -- -- -- -- --
0120:             1C 14 80 32  10 80 1F 00 2B 80 2C 80      ...2....+.,.
0130: 2D 80 1F 01 79 00 F8 FF  FF 7F 24 B3 05 01 32 18  -...y.....$...2.
0140: 80 1F 00 2E 80 2F 80 30  80 1F 01 6F 00           ...../.0...o.   
```

#### Opcodes

```
  0: 0x0124 [0x1C] WAIT(45* ticks)
  1: 0x0127 [0x32] ExtData[1]->MainSpeed = 11* * 0.1
  2: 0x012A [0x1F] MOVE_ENTITY: EventEntity moves to X=-195.304*, Z=365.477*, Y=8.106*
  3: 0x0132 [0x1F] MOVE_ENTITY: Update entity position (mode=1)
  4: 0x0134 [0x79] EventEntity looks at Lysander (ID: 17150756/0x0105B324) (Basic look)
  5: 0x013E [0x32] ExtData[1]->MainSpeed = 38* * 0.1
  6: 0x0141 [0x1F] MOVE_ENTITY: EventEntity moves to X=-192.901*, Z=363.584*, Y=8.153*
  7: 0x0149 [0x1F] MOVE_ENTITY: Update entity position (mode=1)
  8: 0x014B [0x6F] WAIT_FRAME_DELAY: Yield until WaitTime reaches zero
  9: 0x014C [0x00] END_REQSTACK()
```

### Event 65535.21

#### Metadata

| Field        | Value    |
|--------------|----------|
| Entrypoint   | 0x014D   |
| Data Size    | 18 bytes |
| Instructions | 6        |

```
      00 01 02 03 04 05 06 07  08 09 0A 0B 0C 0D 0E 0F
      -- -- -- -- -- -- -- --  -- -- -- -- -- -- -- --
0140:                                         1C 14 80               ...
0150: 32 10 80 1F 00 31 80 32  80 33 80 1F 01 6F 00     2....1.2.3...o. 
```

#### Opcodes

```
  0: 0x014D [0x1C] WAIT(45* ticks)
  1: 0x0150 [0x32] ExtData[1]->MainSpeed = 11* * 0.1
  2: 0x0153 [0x1F] MOVE_ENTITY: EventEntity moves to X=-188.422*, Z=360.183*, Y=8.376*
  3: 0x015B [0x1F] MOVE_ENTITY: Update entity position (mode=1)
  4: 0x015D [0x6F] WAIT_FRAME_DELAY: Yield until WaitTime reaches zero
  5: 0x015E [0x00] END_REQSTACK()
```

### Event 65535.22

#### Metadata

| Field        | Value    |
|--------------|----------|
| Entrypoint   | 0x015F   |
| Data Size    | 15 bytes |
| Instructions | 5        |

```
      00 01 02 03 04 05 06 07  08 09 0A 0B 0C 0D 0E 0F
      -- -- -- -- -- -- -- --  -- -- -- -- -- -- -- --
0150:                                               32                 2
0160: 03 80 1F 00 34 80 35 80  36 80 1F 01 6F 00        ....4.5.6...o.  
```

#### Opcodes

```
  0: 0x015F [0x32] ExtData[1]->MainSpeed = 80* * 0.1
  1: 0x0162 [0x1F] MOVE_ENTITY: EventEntity moves to X=400.079*, Z=-211.504*, Y=16.282*
  2: 0x016A [0x1F] MOVE_ENTITY: Update entity position (mode=1)
  3: 0x016C [0x6F] WAIT_FRAME_DELAY: Yield until WaitTime reaches zero
  4: 0x016D [0x00] END_REQSTACK()
```

### Event 65535.23

#### Metadata

| Field        | Value    |
|--------------|----------|
| Entrypoint   | 0x016E   |
| Data Size    | 18 bytes |
| Instructions | 6        |

```
      00 01 02 03 04 05 06 07  08 09 0A 0B 0C 0D 0E 0F
      -- -- -- -- -- -- -- --  -- -- -- -- -- -- -- --
0160:                                            1C 07                ..
0170: 80 32 08 80 1F 00 37 80  38 80 39 80 1F 01 6F 00  .2....7.8.9...o.
```

#### Opcodes

```
  0: 0x016E [0x1C] WAIT(30* ticks)
  1: 0x0171 [0x32] ExtData[1]->MainSpeed = 20* * 0.1
  2: 0x0174 [0x1F] MOVE_ENTITY: EventEntity moves to X=393.643*, Z=-214.518*, Y=16.575*
  3: 0x017C [0x1F] MOVE_ENTITY: Update entity position (mode=1)
  4: 0x017E [0x6F] WAIT_FRAME_DELAY: Yield until WaitTime reaches zero
  5: 0x017F [0x00] END_REQSTACK()
```

### Event 65535.24

#### Metadata

| Field        | Value    |
|--------------|----------|
| Entrypoint   | 0x0180   |
| Data Size    | 18 bytes |
| Instructions | 6        |

```
      00 01 02 03 04 05 06 07  08 09 0A 0B 0C 0D 0E 0F
      -- -- -- -- -- -- -- --  -- -- -- -- -- -- -- --
0180: 1C 0C 80 32 0D 80 1F 00  3A 80 3B 80 3C 80 1F 01  ...2....:.;.<...
0190: 6F 00                                             o.              
```

#### Opcodes

```
  0: 0x0180 [0x1C] WAIT(10* ticks)
  1: 0x0183 [0x32] ExtData[1]->MainSpeed = 40* * 0.1
  2: 0x0186 [0x1F] MOVE_ENTITY: EventEntity moves to X=386.633*, Z=-210.582*, Y=16.117*
  3: 0x018E [0x1F] MOVE_ENTITY: Update entity position (mode=1)
  4: 0x0190 [0x6F] WAIT_FRAME_DELAY: Yield until WaitTime reaches zero
  5: 0x0191 [0x00] END_REQSTACK()
```

### Event 65535.25

#### Metadata

| Field        | Value    |
|--------------|----------|
| Entrypoint   | 0x0192   |
| Data Size    | 15 bytes |
| Instructions | 5        |

```
      00 01 02 03 04 05 06 07  08 09 0A 0B 0C 0D 0E 0F
      -- -- -- -- -- -- -- --  -- -- -- -- -- -- -- --
0190:       32 10 80 1F 00 3D  80 3E 80 3F 80 1F 01 6F    2....=.>.?...o
01A0: 00                                                .               
```

#### Opcodes

```
  0: 0x0192 [0x32] ExtData[1]->MainSpeed = 11* * 0.1
  1: 0x0195 [0x1F] MOVE_ENTITY: EventEntity moves to X=387.229*, Z=-213.950*, Y=16.139*
  2: 0x019D [0x1F] MOVE_ENTITY: Update entity position (mode=1)
  3: 0x019F [0x6F] WAIT_FRAME_DELAY: Yield until WaitTime reaches zero
  4: 0x01A0 [0x00] END_REQSTACK()
```

### Event 65535.26

#### Metadata

| Field        | Value    |
|--------------|----------|
| Entrypoint   | 0x01A1   |
| Data Size    | 49 bytes |
| Instructions | 12       |

```
      00 01 02 03 04 05 06 07  08 09 0A 0B 0C 0D 0E 0F
      -- -- -- -- -- -- -- --  -- -- -- -- -- -- -- --
01A0:    1C 40 80 1E 24 B3 05  01 1C 07 80 32 0C 80 1F   .@..$......2...
01B0: 00 41 80 42 80 43 80 1F  01 79 00 F8 FF FF 7F 24  .A.B.C...y.....$
01C0: B3 05 01 32 18 80 1F 00  44 80 45 80 46 80 1F 01  ...2....D.E.F...
01D0: 6F 00                                             o.              
```

#### Opcodes

```
  0: 0x01A1 [0x1C] WAIT(15* ticks)
  1: 0x01A4 [0x1E] EventEntity looks at Lysander (ID: 17150756/0x0105B324) and starts talking
  2: 0x01A9 [0x1C] WAIT(30* ticks)
  3: 0x01AC [0x32] ExtData[1]->MainSpeed = 10* * 0.1
  4: 0x01AF [0x1F] MOVE_ENTITY: EventEntity moves to X=387.917*, Z=-213.900*, Y=16.179*
  5: 0x01B7 [0x1F] MOVE_ENTITY: Update entity position (mode=1)
  6: 0x01B9 [0x79] EventEntity looks at Lysander (ID: 17150756/0x0105B324) (Basic look)
  7: 0x01C3 [0x32] ExtData[1]->MainSpeed = 38* * 0.1
  8: 0x01C6 [0x1F] MOVE_ENTITY: EventEntity moves to X=390.213*, Z=-214.128*, Y=16.385*
  9: 0x01CE [0x1F] MOVE_ENTITY: Update entity position (mode=1)
 10: 0x01D0 [0x6F] WAIT_FRAME_DELAY: Yield until WaitTime reaches zero
 11: 0x01D1 [0x00] END_REQSTACK()
```

### Event 65535.27

#### Metadata

| Field        | Value    |
|--------------|----------|
| Entrypoint   | 0x01D2   |
| Data Size    | 18 bytes |
| Instructions | 6        |

```
      00 01 02 03 04 05 06 07  08 09 0A 0B 0C 0D 0E 0F
      -- -- -- -- -- -- -- --  -- -- -- -- -- -- -- --
01D0:       1C 14 80 32 10 80  1F 00 47 80 48 80 49 80    ...2....G.H.I.
01E0: 1F 01 6F 00                                       ..o.            
```

#### Opcodes

```
  0: 0x01D2 [0x1C] WAIT(45* ticks)
  1: 0x01D5 [0x32] ExtData[1]->MainSpeed = 11* * 0.1
  2: 0x01D8 [0x1F] MOVE_ENTITY: EventEntity moves to X=393.406*, Z=-212.923*, Y=16.473*
  3: 0x01E0 [0x1F] MOVE_ENTITY: Update entity position (mode=1)
  4: 0x01E2 [0x6F] WAIT_FRAME_DELAY: Yield until WaitTime reaches zero
  5: 0x01E3 [0x00] END_REQSTACK()
```

### Event 65535.28

#### Metadata

| Field        | Value   |
|--------------|---------|
| Entrypoint   | 0x01E4  |
| Data Size    | 1 bytes |
| Instructions | 1       |

```
      00 01 02 03 04 05 06 07  08 09 0A 0B 0C 0D 0E 0F
      -- -- -- -- -- -- -- --  -- -- -- -- -- -- -- --
01E0:             00                                        .           
```

#### Opcodes

```
  0: 0x01E4 [0x00] END_REQSTACK()
```

### Event 65535.29

#### Metadata

| Field        | Value    |
|--------------|----------|
| Entrypoint   | 0x01E5   |
| Data Size    | 24 bytes |
| Instructions | 6        |

```
      00 01 02 03 04 05 06 07  08 09 0A 0B 0C 0D 0E 0F
      -- -- -- -- -- -- -- --  -- -- -- -- -- -- -- --
01E0:                32 4A 80  1F 00 4B 80 4C 80 4D 80       2J...K.L.M.
01F0: 1F 01 1F 00 4E 80 4F 80  50 80 1F 01 00           ....N.O.P....   
```

#### Opcodes

```
  0: 0x01E5 [0x32] ExtData[1]->MainSpeed = 13* * 0.1
  1: 0x01E8 [0x1F] MOVE_ENTITY: EventEntity moves to X=25.821*, Z=64.035*, Y=1.995*
  2: 0x01F0 [0x1F] MOVE_ENTITY: Update entity position (mode=1)
  3: 0x01F2 [0x1F] MOVE_ENTITY: EventEntity moves to X=29.604*, Z=64.029*, Y=1.991*
  4: 0x01FA [0x1F] MOVE_ENTITY: Update entity position (mode=1)
  5: 0x01FC [0x00] END_REQSTACK()
```

### Event 65535.30

#### Metadata

| Field        | Value    |
|--------------|----------|
| Entrypoint   | 0x01FD   |
| Data Size    | 22 bytes |
| Instructions | 6        |

```
      00 01 02 03 04 05 06 07  08 09 0A 0B 0C 0D 0E 0F
      -- -- -- -- -- -- -- --  -- -- -- -- -- -- -- --
01F0:                                         32 4A 80               2J.
0200: 1F 00 51 80 52 80 53 80  1F 01 1E 70 B3 05 01 1C  ..Q.R.S....p....
0210: 07 80 00                                          ...             
```

#### Opcodes

```
  0: 0x01FD [0x32] ExtData[1]->MainSpeed = 13* * 0.1
  1: 0x0200 [0x1F] MOVE_ENTITY: EventEntity moves to X=21.794*, Z=63.457*, Y=1.999*
  2: 0x0208 [0x1F] MOVE_ENTITY: Update entity position (mode=1)
  3: 0x020A [0x1E] EventEntity looks at Lilisette (ID: 17150832/0x0105B370) and starts talking
  4: 0x020F [0x1C] WAIT(30* ticks)
  5: 0x0212 [0x00] END_REQSTACK()
```

### Event 65535.31

#### Metadata

| Field        | Value    |
|--------------|----------|
| Entrypoint   | 0x0213   |
| Data Size    | 22 bytes |
| Instructions | 6        |

```
      00 01 02 03 04 05 06 07  08 09 0A 0B 0C 0D 0E 0F
      -- -- -- -- -- -- -- --  -- -- -- -- -- -- -- --
0210:          32 4A 80 1F 00  54 80 55 80 53 80 1F 01     2J...T.U.S...
0220: 1E 70 B3 05 01 1C 07 80  00                       .p.......       
```

#### Opcodes

```
  0: 0x0213 [0x32] ExtData[1]->MainSpeed = 13* * 0.1
  1: 0x0216 [0x1F] MOVE_ENTITY: EventEntity moves to X=20.112*, Z=63.494*, Y=1.999*
  2: 0x021E [0x1F] MOVE_ENTITY: Update entity position (mode=1)
  3: 0x0220 [0x1E] EventEntity looks at Lilisette (ID: 17150832/0x0105B370) and starts talking
  4: 0x0225 [0x1C] WAIT(30* ticks)
  5: 0x0228 [0x00] END_REQSTACK()
```

### Event 65535.32

#### Metadata

| Field        | Value   |
|--------------|---------|
| Entrypoint   | 0x0229  |
| Data Size    | 1 bytes |
| Instructions | 1       |

```
      00 01 02 03 04 05 06 07  08 09 0A 0B 0C 0D 0E 0F
      -- -- -- -- -- -- -- --  -- -- -- -- -- -- -- --
0220:                             00                             .      
```

#### Opcodes

```
  0: 0x0229 [0x00] END_REQSTACK()
```

### Event 65535.33

#### Metadata

| Field        | Value    |
|--------------|----------|
| Entrypoint   | 0x022A   |
| Data Size    | 14 bytes |
| Instructions | 4        |

```
      00 01 02 03 04 05 06 07  08 09 0A 0B 0C 0D 0E 0F
      -- -- -- -- -- -- -- --  -- -- -- -- -- -- -- --
0220:                                32 4A 80 1F 00 56            2J...V
0230: 80 57 80 58 80 1F 01 00                           .W.X....        
```

#### Opcodes

```
  0: 0x022A [0x32] ExtData[1]->MainSpeed = 13* * 0.1
  1: 0x022D [0x1F] MOVE_ENTITY: EventEntity moves to X=-15.369*, Z=-5.600*, Y=2.999*
  2: 0x0235 [0x1F] MOVE_ENTITY: Update entity position (mode=1)
  3: 0x0237 [0x00] END_REQSTACK()
```

### Event 65535.34

#### Metadata

| Field        | Value    |
|--------------|----------|
| Entrypoint   | 0x0238   |
| Data Size    | 13 bytes |
| Instructions | 3        |

```
      00 01 02 03 04 05 06 07  08 09 0A 0B 0C 0D 0E 0F
      -- -- -- -- -- -- -- --  -- -- -- -- -- -- -- --
0230:                          6E 25 B3 05 01 59 80 99          n%...Y..
0240: 25 B3 05 01 00                                    %....           
```

#### Opcodes

```
  0: 0x0238 [0x6E] Barnabas (ID: 17150757/0x0105B325) uses emote 43*
  1: 0x023F [0x99] Wait for Barnabas (ID: 17150757/0x0105B325) animation to complete
  2: 0x0244 [0x00] END_REQSTACK()
```

### Event 65535.35

#### Metadata

| Field        | Value    |
|--------------|----------|
| Entrypoint   | 0x0245   |
| Data Size    | 31 bytes |
| Instructions | 7        |

```
      00 01 02 03 04 05 06 07  08 09 0A 0B 0C 0D 0E 0F
      -- -- -- -- -- -- -- --  -- -- -- -- -- -- -- --
0240:                32 4A 80  1F 00 5A 80 5B 80 58 80       2J...Z.[.X.
0250: 1F 01 1E 70 B3 05 01 1C  07 80 4A 70 B3 05 01 F8  ...p......Jp....
0260: FF FF 7F 00                                       ....            
```

#### Opcodes

```
  0: 0x0245 [0x32] ExtData[1]->MainSpeed = 13* * 0.1
  1: 0x0248 [0x1F] MOVE_ENTITY: EventEntity moves to X=-11.144*, Z=-6.221*, Y=2.999*
  2: 0x0250 [0x1F] MOVE_ENTITY: Update entity position (mode=1)
  3: 0x0252 [0x1E] EventEntity looks at Lilisette (ID: 17150832/0x0105B370) and starts talking
  4: 0x0257 [0x1C] WAIT(30* ticks)
  5: 0x025A [0x4A] Lilisette (ID: 17150832/0x0105B370) looks at EventEntity
  6: 0x0263 [0x00] END_REQSTACK()
```

### Event 65535.36

#### Metadata

| Field        | Value   |
|--------------|---------|
| Entrypoint   | 0x0264  |
| Data Size    | 1 bytes |
| Instructions | 1       |

```
      00 01 02 03 04 05 06 07  08 09 0A 0B 0C 0D 0E 0F
      -- -- -- -- -- -- -- --  -- -- -- -- -- -- -- --
0260:             00                                        .           
```

#### Opcodes

```
  0: 0x0264 [0x00] END_REQSTACK()
```

### Event 65535.37

#### Metadata

| Field        | Value    |
|--------------|----------|
| Entrypoint   | 0x0265   |
| Data Size    | 14 bytes |
| Instructions | 4        |

```
      00 01 02 03 04 05 06 07  08 09 0A 0B 0C 0D 0E 0F
      -- -- -- -- -- -- -- --  -- -- -- -- -- -- -- --
0260:                32 0D 80  1F 00 5C 80 5D 80 5E 80       2....\.].^.
0270: 1F 01 00                                          ...             
```

#### Opcodes

```
  0: 0x0265 [0x32] ExtData[1]->MainSpeed = 40* * 0.1
  1: 0x0268 [0x1F] MOVE_ENTITY: EventEntity moves to X=-48.661*, Z=-76.591*, Y=5.999*
  2: 0x0270 [0x1F] MOVE_ENTITY: Update entity position (mode=1)
  3: 0x0272 [0x00] END_REQSTACK()
```

### Event 65535.38

#### Metadata

| Field        | Value    |
|--------------|----------|
| Entrypoint   | 0x0273   |
| Data Size    | 14 bytes |
| Instructions | 4        |

```
      00 01 02 03 04 05 06 07  08 09 0A 0B 0C 0D 0E 0F
      -- -- -- -- -- -- -- --  -- -- -- -- -- -- -- --
0270:          32 0D 80 1F 00  5F 80 60 80 5E 80 1F 01     2...._.`.^...
0280: 00                                                .               
```

#### Opcodes

```
  0: 0x0273 [0x32] ExtData[1]->MainSpeed = 40* * 0.1
  1: 0x0276 [0x1F] MOVE_ENTITY: EventEntity moves to X=-66.960*, Z=-107.276*, Y=5.999*
  2: 0x027E [0x1F] MOVE_ENTITY: Update entity position (mode=1)
  3: 0x0280 [0x00] END_REQSTACK()
```
