# 0x7FFFFFF0 - Zone Events

## Common Data

| Field            | Value                          |
|------------------|--------------------------------|
| Zone             | Rolanberry Fields [S] (ID: 91) |
| Block Size       | 4176 bytes                     |
| Total Events     | 49                             |
| References Count | 112                            |

## List of Events

| Event ID                   | Entrypoint   |   Size |   Instructions |
|----------------------------|--------------|--------|----------------|
| [65535](#event-65535)      | 0x0000       |      1 |              1 |
| [65534](#event-65534)      | 0x0001       |      1 |              1 |
| [201](#event-201)          | 0x0002       |    102 |             15 |
| [264](#event-264)          | 0x0068       |     29 |              7 |
| [65535.1](#event-655351)   | 0x0085       |     16 |              3 |
| [65535.2](#event-655352)   | 0x0095       |     41 |              5 |
| [65535.3](#event-655353)   | 0x00BE       |     13 |              3 |
| [65535.4](#event-655354)   | 0x00CB       |     14 |              4 |
| [65535.5](#event-655355)   | 0x00D9       |     13 |              3 |
| [65535.6](#event-655356)   | 0x00E6       |     14 |              4 |
| [65535.7](#event-655357)   | 0x00F4       |     29 |              5 |
| [65535.8](#event-655358)   | 0x0111       |     27 |              5 |
| [65535.9](#event-655359)   | 0x012C       |     27 |              5 |
| [65535.10](#event-6553510) | 0x0147       |     35 |              6 |
| [65535.11](#event-6553511) | 0x016A       |     27 |              5 |
| [65535.12](#event-6553512) | 0x0185       |     14 |              4 |
| [65535.13](#event-6553513) | 0x0193       |     14 |              4 |
| [65535.14](#event-6553514) | 0x01A1       |     14 |              4 |
| [65535.15](#event-6553515) | 0x01AF       |     14 |              4 |
| [65535.16](#event-6553516) | 0x01BD       |     14 |              4 |
| [65535.17](#event-6553517) | 0x01CB       |     14 |              4 |
| [65535.18](#event-6553518) | 0x01D9       |     14 |              4 |
| [65535.19](#event-6553519) | 0x01E7       |     28 |              6 |
| [65535.20](#event-6553520) | 0x0203       |     16 |              3 |
| [65535.21](#event-6553521) | 0x0213       |     16 |              3 |
| [65535.22](#event-6553522) | 0x0223       |     38 |              5 |
| [65535.23](#event-6553523) | 0x0249       |     38 |              5 |
| [65535.24](#event-6553524) | 0x026F       |     38 |              5 |
| [65535.25](#event-6553525) | 0x0295       |    209 |             25 |
| [65535.26](#event-6553526) | 0x0366       |    209 |             25 |
| [65535.27](#event-6553527) | 0x0437       |    209 |             25 |
| [65535.28](#event-6553528) | 0x0508       |    209 |             25 |
| [65535.29](#event-6553529) | 0x05D9       |    209 |             25 |
| [65535.30](#event-6553530) | 0x06AA       |     48 |              9 |
| [65535.31](#event-6553531) | 0x06DA       |     11 |              3 |
| [65535.32](#event-6553532) | 0x06E5       |     27 |              5 |
| [65535.33](#event-6553533) | 0x0700       |     16 |              4 |
| [65535.34](#event-6553534) | 0x0710       |     37 |              5 |
| [65535.35](#event-6553535) | 0x0735       |     37 |              5 |
| [65535.36](#event-6553536) | 0x075A       |     24 |              4 |
| [65535.37](#event-6553537) | 0x0772       |    172 |             36 |
| [65535.38](#event-6553538) | 0x081E       |      6 |              2 |
| [65535.39](#event-6553539) | 0x0824       |      6 |              2 |
| [65535.40](#event-6553540) | 0x082A       |      5 |              2 |
| [65535.41](#event-6553541) | 0x082F       |      5 |              2 |
| [65535.42](#event-6553542) | 0x0834       |      5 |              2 |
| [65535.43](#event-6553543) | 0x0839       |      5 |              2 |
| [65535.44](#event-6553544) | 0x083E       |    345 |             33 |
| [265](#event-265)          | 0x0997       |   1061 |            204 |

## DAT References (imed_data)

|   Index | Hex Value   |   Dec Value |
|---------|-------------|-------------|
|       0 | 0x1E2B      |        7723 |
|       1 | 0x00C8      |         200 |
|       2 | 0x0000      |           0 |
|       3 | 0x0001      |           1 |
|       4 | 0x005A      |          90 |
|       5 | 0x003C      |          60 |
|       6 | 0x00C9      |         201 |
|       7 | 0x1F38      |        7992 |
|       8 | 0x00EA      |         234 |
|       9 | 0xFFFCF600  |  4294768128 |
|      10 | 0x57FC2     |      360386 |
|      11 | 0x1F40      |        8000 |
|      12 | 0x0636      |        1590 |
|      13 | 0x0094      |         148 |
|      14 | 0x00F0      |         240 |
|      15 | 0xFFFA3BFB  |  4294589435 |
|      16 | 0xFFF4203B  |  4294189115 |
|      17 | 0xFFFF905D  |  4294938717 |
|      18 | 0x057F      |        1407 |
|      19 | 0x000D      |          13 |
|      20 | 0xFFFA372A  |  4294588202 |
|      21 | 0xFFF41729  |  4294186793 |
|      22 | 0xFFFF8CC5  |  4294937797 |
|      23 | 0xFFF4213B  |  4294189371 |
|      24 | 0xFFF86807  |  4294469639 |
|      25 | 0xFFFF712F  |  4294930735 |
|      26 | 0x069F      |        1695 |
|      27 | 0xFFF418CD  |  4294187213 |
|      28 | 0xFFF862D0  |  4294468304 |
|      29 | 0xFFFF6D63  |  4294929763 |
|      30 | 0x012C      |         300 |
|      31 | 0x001E      |          30 |
|      32 | 0xFFF97779  |  4294539129 |
|      33 | 0xFFFC360E  |  4294718990 |
|      34 | 0x4E1F      |       19999 |
|      35 | 0x0C1B      |        3099 |
|      36 | 0x8DB92     |      580498 |
|      37 | 0xFFFCA9CB  |  4294748619 |
|      38 | 0x8C9F      |       35999 |
|      39 | 0x8D5BB     |      579003 |
|      40 | 0xFFFC9A22  |  4294744610 |
|      41 | 0x8D55A     |      578906 |
|      42 | 0xFFFC4448  |  4294722632 |
|      43 | 0x85CA      |       34250 |
|      44 | 0x87EAE     |      556718 |
|      45 | 0xFFFA6B61  |  4294601569 |
|      46 | 0x000A      |          10 |
|      47 | 0xFFFB8893  |  4294674579 |
|      48 | 0xFFF8B131  |  4294488369 |
|      49 | 0x8E17B     |      582011 |
|      50 | 0xFFFCC75C  |  4294756188 |
|      51 | 0x8D9B5     |      580021 |
|      52 | 0xFFFC8498  |  4294739096 |
|      53 | 0x0007      |           7 |
|      54 | 0x0080      |         128 |
|      55 | 0x0091      |         145 |
|      56 | 0x004F      |          79 |
|      57 | 0x004C      |          76 |
|      58 | 0x0106      |         262 |
|      59 | 0x0040      |          64 |
|      60 | 0x0018      |          24 |
|      61 | 0x0050      |          80 |
|      62 | 0x0005      |           5 |
|      63 | 0x0046      |          70 |
|      64 | 0x0002      |           2 |
|      65 | 0x0003      |           3 |
|      66 | 0x0004      |           4 |
|      67 | 0x0064      |         100 |
|      68 | 0x006E      |         110 |
|      69 | 0x0006      |           6 |
|      70 | 0x0078      |         120 |
|      71 | 0x0008      |           8 |
|      72 | 0x0082      |         130 |
|      73 | 0x0049      |          73 |
|      74 | 0x0053      |          83 |
|      75 | 0x005D      |          93 |
|      76 | 0x0067      |         103 |
|      77 | 0x0071      |         113 |
|      78 | 0x007B      |         123 |
|      79 | 0x0085      |         133 |
|      80 | 0xFFFFFC18  |  4294966296 |
|      81 | 0x0BB8      |        3000 |
|      82 | 0x81434     |      529460 |
|      83 | 0xFFFA4FCB  |  4294594507 |
|      84 | 0x0F39      |        3897 |
|      85 | 0xFFFB6FF7  |  4294668279 |
|      86 | 0xFFF8B223  |  4294488611 |
|      87 | 0x0014      |          20 |
|      88 | 0x0009      |           9 |
|      89 | 0x008C      |         140 |
|      90 | 0x00D2      |         210 |
|      91 | 0x0057      |          87 |
|      92 | 0x0060      |          96 |
|      93 | 0x008D      |         141 |
|      94 | 0x0F26      |        3878 |
|      95 | 0x0097      |         151 |
|      96 | 0x00A1      |         161 |
|      97 | 0x00AB      |         171 |
|      98 | 0x00B5      |         181 |
|      99 | 0x00BF      |         191 |
|     100 | 0x0013      |          19 |
|     101 | 0x0090      |         144 |
|     102 | 0x00B4      |         180 |
|     103 | 0x1D19      |        7449 |
|     104 | 0x1D1A      |        7450 |
|     105 | 0x1D1C      |        7452 |
|     106 | 0x1D1D      |        7453 |
|     107 | 0x1D1E      |        7454 |
|     108 | 0x1D1F      |        7455 |
|     109 | 0x0102      |         258 |
|     110 | 0x0202      |         514 |
|     111 | 0x0156      |         342 |

## String References

- **7723**: The order has been given by your party leader to enter [Everbloom Hollow/the Ruhotz Silvermines/Ghoyu's Reverie].
- **7992**: The sandworm swallows you whole!

## Events

### Event 65535

#### Metadata

| Field        | Value   |
|--------------|---------|
| Entrypoint   | 0x0000  |
| Data Size    | 1 bytes |
| Instructions | 1       |

```
      00 01 02 03 04 05 06 07  08 09 0A 0B 0C 0D 0E 0F
      -- -- -- -- -- -- -- --  -- -- -- -- -- -- -- --
0000: 00                                                .               
```

#### Opcodes

```
  0: 0x0000 [0x00] END_REQSTACK()
```

### Event 65534

#### Metadata

| Field        | Value   |
|--------------|---------|
| Entrypoint   | 0x0001  |
| Data Size    | 1 bytes |
| Instructions | 1       |

```
      00 01 02 03 04 05 06 07  08 09 0A 0B 0C 0D 0E 0F
      -- -- -- -- -- -- -- --  -- -- -- -- -- -- -- --
0000:    00                                              .              
```

#### Opcodes

```
  0: 0x0001 [0x00] END_REQSTACK()
```

### Event 201

#### Metadata

| Field        | Value     |
|--------------|-----------|
| Entrypoint   | 0x0002    |
| Data Size    | 102 bytes |
| Instructions | 15        |

```
      00 01 02 03 04 05 06 07  08 09 0A 0B 0C 0D 0E 0F
      -- -- -- -- -- -- -- --  -- -- -- -- -- -- -- --
0000:       42 48 00 80 45 01  80 F0 FF FF 7F F0 FF FF    BH..E.........
0010: 7F 66 64 6F 31 02 80 02  03 10 02 80 00 33 00 62  .fdo1........3.b
0020: 03 80 F0 FF FF 7F F0 FF  FF 7F 6D 61 69 6E 02 80  ..........main..
0030: 1C 04 80 1C 05 80 83 1E  17 AA 1E 17 1E 17 1E 17  ................
0040: 1E 17 1E 17 1F 17 1E 17  1E 17 03 00 00 02 80 77  ...............w
0050: 1F 17 00 00 78 45 06 80  F0 FF FF 7F F0 FF FF 7F  ....xE..........
0060: 77 68 69 31 02 80 21 00                           whi1..!.        
```

#### Opcodes

```
  0: 0x0002 [0x42] SET_CLI_EVENT_CANCEL_DATA()
  1: 0x0003 [0x48] [System] [7723*]:
    → "The order has been given by your party leader to enter [Everbloom Hollow/the Ruhotz Silvermines/Ghoyu's Reverie]."
  2: 0x0006 [0x45] LOAD_SCHEDULED_TASK: Load scheduler "fdo1" with entities [LocalPlayer, LocalPlayer], work=[200*, 0*]
  3: 0x0017 [0x02] IF !(Work_Zone[3] == 0*) GOTO 0x0033
  4: 0x001F [0x62] LOAD_EVENT_SCHEDULER: Load scheduler "main" with entities [LocalPlayer, LocalPlayer], work=[1*, 0*]
  5: 0x0030 [0x1C] WAIT(90* ticks)
  6: 0x0033 [0x1C] WAIT(60* ticks)
  7: 0x0036 [0x83] Work_Zone_1700[30] = GetGameTime()
  8: 0x0039 [0xAA] VANA_DIEL_TIMESTAMP_CONVERTER(timestamp=Work_Zone_1700[30], year=Work_Zone_1700[30], month=Work_Zone_1700[30], day=Work_Zone_1700[30], weekday=Work_Zone_1700[30], hour=Work_Zone_1700[31], minute=Work_Zone_1700[30], moon=Work_Zone_1700[30])
  9: 0x004A [0x03] ExtData[1]->WorkLocal[0] = 0*
 10: 0x004F [0x77] SET_EVENT_TIME_WEATHER(hour=Work_Zone_1700[31], weather=ExtData[1]->WorkLocal[0])
 11: 0x0054 [0x78] ENABLE_GAME_TIMER_RESET_WEATHER()
 12: 0x0055 [0x45] LOAD_SCHEDULED_TASK: Load scheduler "whi1" with entities [LocalPlayer, LocalPlayer], work=[201*, 0*]
 13: 0x0066 [0x21] END_EVENT
 14: 0x0067 [0x00] END_REQSTACK()
```

### Event 264

#### Metadata

| Field        | Value    |
|--------------|----------|
| Entrypoint   | 0x0068   |
| Data Size    | 29 bytes |
| Instructions | 7        |

```
      00 01 02 03 04 05 06 07  08 09 0A 0B 0C 0D 0E 0F
      -- -- -- -- -- -- -- --  -- -- -- -- -- -- -- --
0060:                          42 48 07 80 BB 08 80 F0          BH......
0070: FF FF 7F F0 FF FF 7F 6D  61 69 6E 02 80 1C 05 80  .......main.....
0080: 1C 05 80 21 00                                    ...!.           
```

#### Opcodes

```
  0: 0x0068 [0x42] SET_CLI_EVENT_CANCEL_DATA()
  1: 0x0069 [0x48] [System] [7992*]:
    → "The sandworm swallows you whole!"
  2: 0x006C [0xBB] LOAD_EVENT_SCHEDULER_ALT: Load scheduler "main" with entities [LocalPlayer, LocalPlayer], work=[234*, 0*]
  3: 0x007D [0x1C] WAIT(60* ticks)
  4: 0x0080 [0x1C] WAIT(60* ticks)
  5: 0x0083 [0x21] END_EVENT
  6: 0x0084 [0x00] END_REQSTACK()
```

### Event 65535.1

#### Metadata

| Field        | Value    |
|--------------|----------|
| Entrypoint   | 0x0085   |
| Data Size    | 16 bytes |
| Instructions | 3        |

```
      00 01 02 03 04 05 06 07  08 09 0A 0B 0C 0D 0E 0F
      -- -- -- -- -- -- -- --  -- -- -- -- -- -- -- --
0080:                92 01 F0  FF FF 7F 37 09 80 0A 80       ......7....
0090: 0B 80 0C 80 00                                    .....           
```

#### Opcodes

```
  0: 0x0085 [0x92] LocalPlayer->Render.Flags3 ^= 0x01
  1: 0x008B [0x37] UPDATE_EVENT_POSITION_AND_DIR: x=-199.168*, z=360.386*, y=8.000*, direction=139.7°*
  2: 0x0094 [0x00] END_REQSTACK()
```

### Event 65535.2

#### Metadata

| Field        | Value    |
|--------------|----------|
| Entrypoint   | 0x0095   |
| Data Size    | 41 bytes |
| Instructions | 5        |

```
      00 01 02 03 04 05 06 07  08 09 0A 0B 0C 0D 0E 0F
      -- -- -- -- -- -- -- --  -- -- -- -- -- -- -- --
0090:                BB 0D 80  F0 FF FF 7F 19 B3 05 01       ...........
00A0: 6D 61 69 6E 02 80 1C 0E  80 45 01 80 F0 FF FF 7F  main.....E......
00B0: F0 FF FF 7F 66 64 6F 31  02 80 1C 05 80 00        ....fdo1......  
```

#### Opcodes

```
  0: 0x0095 [0xBB] LOAD_EVENT_SCHEDULER_ALT: Load scheduler "main" with entities [LocalPlayer, Cavernous Maw (ID: 17150745/0x0105B319)], work=[148*, 0*]
  1: 0x00A6 [0x1C] WAIT(240* ticks)
  2: 0x00A9 [0x45] LOAD_SCHEDULED_TASK: Load scheduler "fdo1" with entities [LocalPlayer, LocalPlayer], work=[200*, 0*]
  3: 0x00BA [0x1C] WAIT(60* ticks)
  4: 0x00BD [0x00] END_REQSTACK()
```

### Event 65535.3

#### Metadata

| Field        | Value    |
|--------------|----------|
| Entrypoint   | 0x00BE   |
| Data Size    | 13 bytes |
| Instructions | 3        |

```
      00 01 02 03 04 05 06 07  08 09 0A 0B 0C 0D 0E 0F
      -- -- -- -- -- -- -- --  -- -- -- -- -- -- -- --
00B0:                                            47 00                G.
00C0: 0F 80 10 80 11 80 12 80  47 01 00                 ........G..     
```

#### Opcodes

```
  0: 0x00BE [0x47] UPDATE_PLAYER_POS(-377.861*, -778.181*, -28.579*, yaw=123.7°*)
  1: 0x00C8 [0x47] WAIT_PLAYER_POS_UPDATE
  2: 0x00CA [0x00] END_REQSTACK()
```

### Event 65535.4

#### Metadata

| Field        | Value    |
|--------------|----------|
| Entrypoint   | 0x00CB   |
| Data Size    | 14 bytes |
| Instructions | 4        |

```
      00 01 02 03 04 05 06 07  08 09 0A 0B 0C 0D 0E 0F
      -- -- -- -- -- -- -- --  -- -- -- -- -- -- -- --
00C0:                                   32 13 80 1F 00             2....
00D0: 14 80 15 80 16 80 1F 01  00                       .........       
```

#### Opcodes

```
  0: 0x00CB [0x32] ExtData[1]->MainSpeed = 13* * 0.1
  1: 0x00CE [0x1F] MOVE_ENTITY: EventEntity moves to X=-379.094*, Z=-780.503*, Y=-29.499*
  2: 0x00D6 [0x1F] MOVE_ENTITY: Update entity position (mode=1)
  3: 0x00D8 [0x00] END_REQSTACK()
```

### Event 65535.5

#### Metadata

| Field        | Value    |
|--------------|----------|
| Entrypoint   | 0x00D9   |
| Data Size    | 13 bytes |
| Instructions | 3        |

```
      00 01 02 03 04 05 06 07  08 09 0A 0B 0C 0D 0E 0F
      -- -- -- -- -- -- -- --  -- -- -- -- -- -- -- --
00D0:                             47 00 17 80 18 80 19           G......
00E0: 80 1A 80 47 01 00                                 ...G..          
```

#### Opcodes

```
  0: 0x00D9 [0x47] UPDATE_PLAYER_POS(-777.925*, -497.657*, -36.561*, yaw=149.0°*)
  1: 0x00E3 [0x47] WAIT_PLAYER_POS_UPDATE
  2: 0x00E5 [0x00] END_REQSTACK()
```

### Event 65535.6

#### Metadata

| Field        | Value    |
|--------------|----------|
| Entrypoint   | 0x00E6   |
| Data Size    | 14 bytes |
| Instructions | 4        |

```
      00 01 02 03 04 05 06 07  08 09 0A 0B 0C 0D 0E 0F
      -- -- -- -- -- -- -- --  -- -- -- -- -- -- -- --
00E0:                   32 13  80 1F 00 1B 80 1C 80 1D        2.........
00F0: 80 1F 01 00                                       ....            
```

#### Opcodes

```
  0: 0x00E6 [0x32] ExtData[1]->MainSpeed = 13* * 0.1
  1: 0x00E9 [0x1F] MOVE_ENTITY: EventEntity moves to X=-780.083*, Z=-498.992*, Y=-37.533*
  2: 0x00F1 [0x1F] MOVE_ENTITY: Update entity position (mode=1)
  3: 0x00F3 [0x00] END_REQSTACK()
```

### Event 65535.7

#### Metadata

| Field        | Value    |
|--------------|----------|
| Entrypoint   | 0x00F4   |
| Data Size    | 29 bytes |
| Instructions | 5        |

```
      00 01 02 03 04 05 06 07  08 09 0A 0B 0C 0D 0E 0F
      -- -- -- -- -- -- -- --  -- -- -- -- -- -- -- --
00F0:             7B F8 FF FF  7F 03 03 00 07 7F 1A AF      {...........
0100: 07 66 04 00 F8 FF FF 7F  F8 FF FF 7F 61 74 70 30  .f..........atp0
0110: 00                                                .               
```

#### Opcodes

```
  0: 0x00F4 [0x7B] EventEntity stops talking
  1: 0x00F9 [0x03] ExtData[1]->WorkLocal[3] = Entity->Race
  2: 0x00FE [0x1A] CALL_SUBROUTINE(address=0x07AF)
  3: 0x0101 [0x66] LOAD_EXT_SCHEDULER_MAIN: Load scheduler "atp0" with entities [EventEntity, EventEntity], work=ExtData[1]->WorkLocal[4]
  4: 0x0110 [0x00] END_REQSTACK()
```

### Event 65535.8

#### Metadata

| Field        | Value    |
|--------------|----------|
| Entrypoint   | 0x0111   |
| Data Size    | 27 bytes |
| Instructions | 5        |

```
      00 01 02 03 04 05 06 07  08 09 0A 0B 0C 0D 0E 0F
      -- -- -- -- -- -- -- --  -- -- -- -- -- -- -- --
0110:    03 03 00 07 7F 1A AF  07 66 04 00 F8 FF FF 7F   ........f......
0120: F8 FF FF 7F 61 74 70 31  1C 1E 80 00              ....atp1....    
```

#### Opcodes

```
  0: 0x0111 [0x03] ExtData[1]->WorkLocal[3] = Entity->Race
  1: 0x0116 [0x1A] CALL_SUBROUTINE(address=0x07AF)
  2: 0x0119 [0x66] LOAD_EXT_SCHEDULER_MAIN: Load scheduler "atp1" with entities [EventEntity, EventEntity], work=ExtData[1]->WorkLocal[4]
  3: 0x0128 [0x1C] WAIT(300* ticks)
  4: 0x012B [0x00] END_REQSTACK()
```

### Event 65535.9

#### Metadata

| Field        | Value    |
|--------------|----------|
| Entrypoint   | 0x012C   |
| Data Size    | 27 bytes |
| Instructions | 5        |

```
      00 01 02 03 04 05 06 07  08 09 0A 0B 0C 0D 0E 0F
      -- -- -- -- -- -- -- --  -- -- -- -- -- -- -- --
0120:                                      03 03 00 07              ....
0130: 7F 1A AF 07 66 04 00 F8  FF FF 7F F8 FF FF 7F 65  ....f..........e
0140: 63 30 30 1C 1F 80 00                              c00....         
```

#### Opcodes

```
  0: 0x012C [0x03] ExtData[1]->WorkLocal[3] = Entity->Race
  1: 0x0131 [0x1A] CALL_SUBROUTINE(address=0x07AF)
  2: 0x0134 [0x66] LOAD_EXT_SCHEDULER_MAIN: Load scheduler "ec00" with entities [EventEntity, EventEntity], work=ExtData[1]->WorkLocal[4]
  3: 0x0143 [0x1C] WAIT(30* ticks)
  4: 0x0146 [0x00] END_REQSTACK()
```

### Event 65535.10

#### Metadata

| Field        | Value    |
|--------------|----------|
| Entrypoint   | 0x0147   |
| Data Size    | 35 bytes |
| Instructions | 6        |

```
      00 01 02 03 04 05 06 07  08 09 0A 0B 0C 0D 0E 0F
      -- -- -- -- -- -- -- --  -- -- -- -- -- -- -- --
0140:                      33  01 37 20 80 21 80 22 80         3.7 .!.".
0150: 23 80 03 03 00 07 7F 1A  AF 07 66 04 00 F8 FF FF  #.........f.....
0160: 7F F8 FF FF 7F 65 63 61  30 00                    .....eca0.      
```

#### Opcodes

```
  0: 0x0147 [0x33] EventEntity->Render.Flags0 |= 0x200000 // Bit 21 (flag=0x01)
  1: 0x0149 [0x37] UPDATE_EVENT_POSITION_AND_DIR: x=-428.167*, z=-248.306*, y=19.999*, direction=272.4°*
  2: 0x0152 [0x03] ExtData[1]->WorkLocal[3] = Entity->Race
  3: 0x0157 [0x1A] CALL_SUBROUTINE(address=0x07AF)
  4: 0x015A [0x66] LOAD_EXT_SCHEDULER_MAIN: Load scheduler "eca0" with entities [EventEntity, EventEntity], work=ExtData[1]->WorkLocal[4]
  5: 0x0169 [0x00] END_REQSTACK()
```

### Event 65535.11

#### Metadata

| Field        | Value    |
|--------------|----------|
| Entrypoint   | 0x016A   |
| Data Size    | 27 bytes |
| Instructions | 5        |

```
      00 01 02 03 04 05 06 07  08 09 0A 0B 0C 0D 0E 0F
      -- -- -- -- -- -- -- --  -- -- -- -- -- -- -- --
0160:                                03 03 00 07 7F 1A            ......
0170: AF 07 66 04 00 F8 FF FF  7F F8 FF FF 7F 65 63 61  ..f..........eca
0180: 31 1C 05 80 00                                    1....           
```

#### Opcodes

```
  0: 0x016A [0x03] ExtData[1]->WorkLocal[3] = Entity->Race
  1: 0x016F [0x1A] CALL_SUBROUTINE(address=0x07AF)
  2: 0x0172 [0x66] LOAD_EXT_SCHEDULER_MAIN: Load scheduler "eca1" with entities [EventEntity, EventEntity], work=ExtData[1]->WorkLocal[4]
  3: 0x0181 [0x1C] WAIT(60* ticks)
  4: 0x0184 [0x00] END_REQSTACK()
```

### Event 65535.12

#### Metadata

| Field        | Value    |
|--------------|----------|
| Entrypoint   | 0x0185   |
| Data Size    | 14 bytes |
| Instructions | 4        |

```
      00 01 02 03 04 05 06 07  08 09 0A 0B 0C 0D 0E 0F
      -- -- -- -- -- -- -- --  -- -- -- -- -- -- -- --
0180:                32 13 80  1F 00 24 80 25 80 26 80       2....$.%.&.
0190: 1F 01 00                                          ...             
```

#### Opcodes

```
  0: 0x0185 [0x32] ExtData[1]->MainSpeed = 13* * 0.1
  1: 0x0188 [0x1F] MOVE_ENTITY: EventEntity moves to X=580.498*, Z=-218.677*, Y=35.999*
  2: 0x0190 [0x1F] MOVE_ENTITY: Update entity position (mode=1)
  3: 0x0192 [0x00] END_REQSTACK()
```

### Event 65535.13

#### Metadata

| Field        | Value    |
|--------------|----------|
| Entrypoint   | 0x0193   |
| Data Size    | 14 bytes |
| Instructions | 4        |

```
      00 01 02 03 04 05 06 07  08 09 0A 0B 0C 0D 0E 0F
      -- -- -- -- -- -- -- --  -- -- -- -- -- -- -- --
0190:          32 13 80 1F 00  27 80 28 80 26 80 1F 01     2....'.(.&...
01A0: 00                                                .               
```

#### Opcodes

```
  0: 0x0193 [0x32] ExtData[1]->MainSpeed = 13* * 0.1
  1: 0x0196 [0x1F] MOVE_ENTITY: EventEntity moves to X=579.003*, Z=-222.686*, Y=35.999*
  2: 0x019E [0x1F] MOVE_ENTITY: Update entity position (mode=1)
  3: 0x01A0 [0x00] END_REQSTACK()
```

### Event 65535.14

#### Metadata

| Field        | Value    |
|--------------|----------|
| Entrypoint   | 0x01A1   |
| Data Size    | 14 bytes |
| Instructions | 4        |

```
      00 01 02 03 04 05 06 07  08 09 0A 0B 0C 0D 0E 0F
      -- -- -- -- -- -- -- --  -- -- -- -- -- -- -- --
01A0:    32 13 80 1F 00 29 80  2A 80 2B 80 1F 01 00      2....).*.+.... 
```

#### Opcodes

```
  0: 0x01A1 [0x32] ExtData[1]->MainSpeed = 13* * 0.1
  1: 0x01A4 [0x1F] MOVE_ENTITY: EventEntity moves to X=578.906*, Z=-244.664*, Y=34.250*
  2: 0x01AC [0x1F] MOVE_ENTITY: Update entity position (mode=1)
  3: 0x01AE [0x00] END_REQSTACK()
```

### Event 65535.15

#### Metadata

| Field        | Value    |
|--------------|----------|
| Entrypoint   | 0x01AF   |
| Data Size    | 14 bytes |
| Instructions | 4        |

```
      00 01 02 03 04 05 06 07  08 09 0A 0B 0C 0D 0E 0F
      -- -- -- -- -- -- -- --  -- -- -- -- -- -- -- --
01A0:                                               32                 2
01B0: 13 80 1F 00 2C 80 2D 80  02 80 1F 01 00           ....,.-......   
```

#### Opcodes

```
  0: 0x01AF [0x32] ExtData[1]->MainSpeed = 13* * 0.1
  1: 0x01B2 [0x1F] MOVE_ENTITY: EventEntity moves to X=556.718*, Z=-365.727*, Y=0.000*
  2: 0x01BA [0x1F] MOVE_ENTITY: Update entity position (mode=1)
  3: 0x01BC [0x00] END_REQSTACK()
```

### Event 65535.16

#### Metadata

| Field        | Value    |
|--------------|----------|
| Entrypoint   | 0x01BD   |
| Data Size    | 14 bytes |
| Instructions | 4        |

```
      00 01 02 03 04 05 06 07  08 09 0A 0B 0C 0D 0E 0F
      -- -- -- -- -- -- -- --  -- -- -- -- -- -- -- --
01B0:                                         32 2E 80               2..
01C0: 1F 00 2F 80 30 80 02 80  1F 01 00                 ../.0......     
```

#### Opcodes

```
  0: 0x01BD [0x32] ExtData[1]->MainSpeed = 10* * 0.1
  1: 0x01C0 [0x1F] MOVE_ENTITY: EventEntity moves to X=-292.717*, Z=-478.927*, Y=0.000*
  2: 0x01C8 [0x1F] MOVE_ENTITY: Update entity position (mode=1)
  3: 0x01CA [0x00] END_REQSTACK()
```

### Event 65535.17

#### Metadata

| Field        | Value    |
|--------------|----------|
| Entrypoint   | 0x01CB   |
| Data Size    | 14 bytes |
| Instructions | 4        |

```
      00 01 02 03 04 05 06 07  08 09 0A 0B 0C 0D 0E 0F
      -- -- -- -- -- -- -- --  -- -- -- -- -- -- -- --
01C0:                                   32 13 80 1F 00             2....
01D0: 31 80 32 80 26 80 1F 01  00                       1.2.&....       
```

#### Opcodes

```
  0: 0x01CB [0x32] ExtData[1]->MainSpeed = 13* * 0.1
  1: 0x01CE [0x1F] MOVE_ENTITY: EventEntity moves to X=582.011*, Z=-211.108*, Y=35.999*
  2: 0x01D6 [0x1F] MOVE_ENTITY: Update entity position (mode=1)
  3: 0x01D8 [0x00] END_REQSTACK()
```

### Event 65535.18

#### Metadata

| Field        | Value    |
|--------------|----------|
| Entrypoint   | 0x01D9   |
| Data Size    | 14 bytes |
| Instructions | 4        |

```
      00 01 02 03 04 05 06 07  08 09 0A 0B 0C 0D 0E 0F
      -- -- -- -- -- -- -- --  -- -- -- -- -- -- -- --
01D0:                             32 13 80 1F 00 33 80           2....3.
01E0: 34 80 26 80 1F 01 00                              4.&....         
```

#### Opcodes

```
  0: 0x01D9 [0x32] ExtData[1]->MainSpeed = 13* * 0.1
  1: 0x01DC [0x1F] MOVE_ENTITY: EventEntity moves to X=580.021*, Z=-228.200*, Y=35.999*
  2: 0x01E4 [0x1F] MOVE_ENTITY: Update entity position (mode=1)
  3: 0x01E6 [0x00] END_REQSTACK()
```

### Event 65535.19

#### Metadata

| Field        | Value    |
|--------------|----------|
| Entrypoint   | 0x01E7   |
| Data Size    | 28 bytes |
| Instructions | 6        |

```
      00 01 02 03 04 05 06 07  08 09 0A 0B 0C 0D 0E 0F
      -- -- -- -- -- -- -- --  -- -- -- -- -- -- -- --
01E0:                      6E  F0 FF FF 7F 35 80 99 F0         n....5...
01F0: FF FF 7F 1C 04 80 6E F0  FF FF 7F 2E 80 99 F0 FF  ......n.........
0200: FF 7F 00                                          ...             
```

#### Opcodes

```
  0: 0x01E7 [0x6E] LocalPlayer uses emote 7*
  1: 0x01EE [0x99] Wait for LocalPlayer animation to complete
  2: 0x01F3 [0x1C] WAIT(90* ticks)
  3: 0x01F6 [0x6E] LocalPlayer uses emote 10*
  4: 0x01FD [0x99] Wait for LocalPlayer animation to complete
  5: 0x0202 [0x00] END_REQSTACK()
```

### Event 65535.20

#### Metadata

| Field        | Value    |
|--------------|----------|
| Entrypoint   | 0x0203   |
| Data Size    | 16 bytes |
| Instructions | 3        |

```
      00 01 02 03 04 05 06 07  08 09 0A 0B 0C 0D 0E 0F
      -- -- -- -- -- -- -- --  -- -- -- -- -- -- -- --
0200:          6C F0 FF FF 7F  02 80 03 80 92 01 F0 FF     l............
0210: FF 7F 00                                          ...             
```

#### Opcodes

```
  0: 0x0203 [0x6C] FADE_ENTITY_COLOR(entity_id=LocalPlayer, end_alpha=0*, fade_time=1*)
  1: 0x020C [0x92] LocalPlayer->Render.Flags3 ^= 0x01
  2: 0x0212 [0x00] END_REQSTACK()
```

### Event 65535.21

#### Metadata

| Field        | Value    |
|--------------|----------|
| Entrypoint   | 0x0213   |
| Data Size    | 16 bytes |
| Instructions | 3        |

```
      00 01 02 03 04 05 06 07  08 09 0A 0B 0C 0D 0E 0F
      -- -- -- -- -- -- -- --  -- -- -- -- -- -- -- --
0210:          6C F0 FF FF 7F  36 80 03 80 92 00 F0 FF     l....6.......
0220: FF 7F 00                                          ...             
```

#### Opcodes

```
  0: 0x0213 [0x6C] FADE_ENTITY_COLOR(entity_id=LocalPlayer, end_alpha=128*, fade_time=1*)
  1: 0x021C [0x92] LocalPlayer->Render.Flags3 = Flags3  // No change (flag=0)
  2: 0x0222 [0x00] END_REQSTACK()
```

### Event 65535.22

#### Metadata

| Field        | Value    |
|--------------|----------|
| Entrypoint   | 0x0223   |
| Data Size    | 38 bytes |
| Instructions | 5        |

```
      00 01 02 03 04 05 06 07  08 09 0A 0B 0C 0D 0E 0F
      -- -- -- -- -- -- -- --  -- -- -- -- -- -- -- --
0220:          22 00 2F 00 F8  FF FF 7F B6 0B 03 80 02     "./..........
0230: 80 37 80 38 80 39 80 39  80 39 80 06 80 3A 80 6C  .7.8.9.9.9...:.l
0240: F8 FF FF 7F 3B 80 03 80  00                       ....;....       
```

#### Opcodes

```
  0: 0x0223 [0x22] ENTITY_HIDE_FLAG(enabled=0x00)
  1: 0x0225 [0x2F] EventEntity->Render.Flags0 &= ~0x80000 // Bit 19
  2: 0x022B [0xB6] ENTITY_APPEARANCE_HANDLER(case=Full entity look, race=1*, hair=0*, head=145*, body=79*, hands=76*, legs=76*, feet=76*, main=201*, sub=262*)
  3: 0x023F [0x6C] FADE_ENTITY_COLOR(entity_id=EventEntity, end_alpha=64*, fade_time=1*)
  4: 0x0248 [0x00] END_REQSTACK()
```

### Event 65535.23

#### Metadata

| Field        | Value    |
|--------------|----------|
| Entrypoint   | 0x0249   |
| Data Size    | 38 bytes |
| Instructions | 5        |

```
      00 01 02 03 04 05 06 07  08 09 0A 0B 0C 0D 0E 0F
      -- -- -- -- -- -- -- --  -- -- -- -- -- -- -- --
0240:                             22 00 2F 00 F8 FF FF           "./....
0250: 7F B6 0B 03 80 02 80 37  80 38 80 39 80 39 80 39  .......7.8.9.9.9
0260: 80 06 80 3C 80 6C F8 FF  FF 7F 3D 80 03 80 00     ...<.l....=.... 
```

#### Opcodes

```
  0: 0x0249 [0x22] ENTITY_HIDE_FLAG(enabled=0x00)
  1: 0x024B [0x2F] EventEntity->Render.Flags0 &= ~0x80000 // Bit 19
  2: 0x0251 [0xB6] ENTITY_APPEARANCE_HANDLER(case=Full entity look, race=1*, hair=0*, head=145*, body=79*, hands=76*, legs=76*, feet=76*, main=201*, sub=24*)
  3: 0x0265 [0x6C] FADE_ENTITY_COLOR(entity_id=EventEntity, end_alpha=80*, fade_time=1*)
  4: 0x026E [0x00] END_REQSTACK()
```

### Event 65535.24

#### Metadata

| Field        | Value    |
|--------------|----------|
| Entrypoint   | 0x026F   |
| Data Size    | 38 bytes |
| Instructions | 5        |

```
      00 01 02 03 04 05 06 07  08 09 0A 0B 0C 0D 0E 0F
      -- -- -- -- -- -- -- --  -- -- -- -- -- -- -- --
0260:                                               22                 "
0270: 00 2F 00 F8 FF FF 7F B6  0B 3E 80 02 80 37 80 38  ./.......>...7.8
0280: 80 39 80 39 80 39 80 06  80 3C 80 6C F8 FF FF 7F  .9.9.9...<.l....
0290: 3D 80 03 80 00                                    =....           
```

#### Opcodes

```
  0: 0x026F [0x22] ENTITY_HIDE_FLAG(enabled=0x00)
  1: 0x0271 [0x2F] EventEntity->Render.Flags0 &= ~0x80000 // Bit 19
  2: 0x0277 [0xB6] ENTITY_APPEARANCE_HANDLER(case=Full entity look, race=5*, hair=0*, head=145*, body=79*, hands=76*, legs=76*, feet=76*, main=201*, sub=24*)
  3: 0x028B [0x6C] FADE_ENTITY_COLOR(entity_id=EventEntity, end_alpha=80*, fade_time=1*)
  4: 0x0294 [0x00] END_REQSTACK()
```

### Event 65535.25

#### Metadata

| Field        | Value     |
|--------------|-----------|
| Entrypoint   | 0x0295    |
| Data Size    | 209 bytes |
| Instructions | 25        |

```
      00 01 02 03 04 05 06 07  08 09 0A 0B 0C 0D 0E 0F
      -- -- -- -- -- -- -- --  -- -- -- -- -- -- -- --
0290:                02 02 10  03 80 80 AF 02 66 3F 80       ........f?.
02A0: F0 FF FF 7F F0 FF FF 7F  65 63 61 30 01 65 03 02  ........eca0.e..
02B0: 02 10 40 80 80 C9 02 66  3D 80 F0 FF FF 7F F0 FF  ..@....f=.......
02C0: FF 7F 65 63 61 30 01 65  03 02 02 10 41 80 80 E3  ..eca0.e....A...
02D0: 02 66 04 80 F0 FF FF 7F  F0 FF FF 7F 65 63 61 30  .f..........eca0
02E0: 01 65 03 02 02 10 42 80  80 FD 02 66 43 80 F0 FF  .e....B....fC...
02F0: FF 7F F0 FF FF 7F 65 63  61 30 01 65 03 02 02 10  ......eca0.e....
0300: 3E 80 80 17 03 66 44 80  F0 FF FF 7F F0 FF FF 7F  >....fD.........
0310: 65 63 61 30 01 65 03 02  02 10 45 80 80 31 03 66  eca0.e....E..1.f
0320: 44 80 F0 FF FF 7F F0 FF  FF 7F 65 63 61 30 01 65  D.........eca0.e
0330: 03 02 02 10 35 80 80 4B  03 66 46 80 F0 FF FF 7F  ....5..K.fF.....
0340: F0 FF FF 7F 65 63 61 30  01 65 03 02 02 10 47 80  ....eca0.e....G.
0350: 80 65 03 66 48 80 F0 FF  FF 7F F0 FF FF 7F 65 63  .e.fH.........ec
0360: 61 30 01 65 03 00                                 a0.e..          
```

#### Opcodes

```
  0: 0x0295 [0x02] IF !(Work_Zone[2] == 1*) GOTO 0x02AF
  1: 0x029D [0x66] LOAD_EXT_SCHEDULER_MAIN: Load scheduler "eca0" with entities [LocalPlayer, LocalPlayer], work=70*
  2: 0x02AC [0x01] GOTO 0x0365
  3: 0x02AF [0x02] IF !(Work_Zone[2] == 2*) GOTO 0x02C9
  4: 0x02B7 [0x66] LOAD_EXT_SCHEDULER_MAIN: Load scheduler "eca0" with entities [LocalPlayer, LocalPlayer], work=80*
  5: 0x02C6 [0x01] GOTO 0x0365
  6: 0x02C9 [0x02] IF !(Work_Zone[2] == 3*) GOTO 0x02E3
  7: 0x02D1 [0x66] LOAD_EXT_SCHEDULER_MAIN: Load scheduler "eca0" with entities [LocalPlayer, LocalPlayer], work=90*
  8: 0x02E0 [0x01] GOTO 0x0365
  9: 0x02E3 [0x02] IF !(Work_Zone[2] == 4*) GOTO 0x02FD
 10: 0x02EB [0x66] LOAD_EXT_SCHEDULER_MAIN: Load scheduler "eca0" with entities [LocalPlayer, LocalPlayer], work=100*
 11: 0x02FA [0x01] GOTO 0x0365
 12: 0x02FD [0x02] IF !(Work_Zone[2] == 5*) GOTO 0x0317
 13: 0x0305 [0x66] LOAD_EXT_SCHEDULER_MAIN: Load scheduler "eca0" with entities [LocalPlayer, LocalPlayer], work=110*
 14: 0x0314 [0x01] GOTO 0x0365
 15: 0x0317 [0x02] IF !(Work_Zone[2] == 6*) GOTO 0x0331
 16: 0x031F [0x66] LOAD_EXT_SCHEDULER_MAIN: Load scheduler "eca0" with entities [LocalPlayer, LocalPlayer], work=110*
 17: 0x032E [0x01] GOTO 0x0365
 18: 0x0331 [0x02] IF !(Work_Zone[2] == 7*) GOTO 0x034B
 19: 0x0339 [0x66] LOAD_EXT_SCHEDULER_MAIN: Load scheduler "eca0" with entities [LocalPlayer, LocalPlayer], work=120*
 20: 0x0348 [0x01] GOTO 0x0365
 21: 0x034B [0x02] IF !(Work_Zone[2] == 8*) GOTO 0x0365
 22: 0x0353 [0x66] LOAD_EXT_SCHEDULER_MAIN: Load scheduler "eca0" with entities [LocalPlayer, LocalPlayer], work=130*
 23: 0x0362 [0x01] GOTO 0x0365

SUBROUTINE_0365:
 24: 0x0365 [0x00] END_REQSTACK()
```

### Event 65535.26

#### Metadata

| Field        | Value     |
|--------------|-----------|
| Entrypoint   | 0x0366    |
| Data Size    | 209 bytes |
| Instructions | 25        |

```
      00 01 02 03 04 05 06 07  08 09 0A 0B 0C 0D 0E 0F
      -- -- -- -- -- -- -- --  -- -- -- -- -- -- -- --
0360:                   02 02  10 03 80 80 80 03 66 3F        ........f?
0370: 80 F0 FF FF 7F F0 FF FF  7F 61 74 70 30 01 36 04  .........atp0.6.
0380: 02 02 10 40 80 80 9A 03  66 3D 80 F0 FF FF 7F F0  ...@....f=......
0390: FF FF 7F 61 74 70 30 01  36 04 02 02 10 41 80 80  ...atp0.6....A..
03A0: B4 03 66 04 80 F0 FF FF  7F F0 FF FF 7F 61 74 70  ..f..........atp
03B0: 30 01 36 04 02 02 10 42  80 80 CE 03 66 43 80 F0  0.6....B....fC..
03C0: FF FF 7F F0 FF FF 7F 61  74 70 30 01 36 04 02 02  .......atp0.6...
03D0: 10 3E 80 80 E8 03 66 44  80 F0 FF FF 7F F0 FF FF  .>....fD........
03E0: 7F 61 74 70 30 01 36 04  02 02 10 45 80 80 02 04  .atp0.6....E....
03F0: 66 44 80 F0 FF FF 7F F0  FF FF 7F 61 74 70 30 01  fD.........atp0.
0400: 36 04 02 02 10 35 80 80  1C 04 66 46 80 F0 FF FF  6....5....fF....
0410: 7F F0 FF FF 7F 61 74 70  30 01 36 04 02 02 10 47  .....atp0.6....G
0420: 80 80 36 04 66 48 80 F0  FF FF 7F F0 FF FF 7F 61  ..6.fH.........a
0430: 74 70 30 01 36 04 00                              tp0.6..         
```

#### Opcodes

```
  0: 0x0366 [0x02] IF !(Work_Zone[2] == 1*) GOTO 0x0380
  1: 0x036E [0x66] LOAD_EXT_SCHEDULER_MAIN: Load scheduler "atp0" with entities [LocalPlayer, LocalPlayer], work=70*
  2: 0x037D [0x01] GOTO 0x0436
  3: 0x0380 [0x02] IF !(Work_Zone[2] == 2*) GOTO 0x039A
  4: 0x0388 [0x66] LOAD_EXT_SCHEDULER_MAIN: Load scheduler "atp0" with entities [LocalPlayer, LocalPlayer], work=80*
  5: 0x0397 [0x01] GOTO 0x0436
  6: 0x039A [0x02] IF !(Work_Zone[2] == 3*) GOTO 0x03B4
  7: 0x03A2 [0x66] LOAD_EXT_SCHEDULER_MAIN: Load scheduler "atp0" with entities [LocalPlayer, LocalPlayer], work=90*
  8: 0x03B1 [0x01] GOTO 0x0436
  9: 0x03B4 [0x02] IF !(Work_Zone[2] == 4*) GOTO 0x03CE
 10: 0x03BC [0x66] LOAD_EXT_SCHEDULER_MAIN: Load scheduler "atp0" with entities [LocalPlayer, LocalPlayer], work=100*
 11: 0x03CB [0x01] GOTO 0x0436
 12: 0x03CE [0x02] IF !(Work_Zone[2] == 5*) GOTO 0x03E8
 13: 0x03D6 [0x66] LOAD_EXT_SCHEDULER_MAIN: Load scheduler "atp0" with entities [LocalPlayer, LocalPlayer], work=110*
 14: 0x03E5 [0x01] GOTO 0x0436
 15: 0x03E8 [0x02] IF !(Work_Zone[2] == 6*) GOTO 0x0402
 16: 0x03F0 [0x66] LOAD_EXT_SCHEDULER_MAIN: Load scheduler "atp0" with entities [LocalPlayer, LocalPlayer], work=110*
 17: 0x03FF [0x01] GOTO 0x0436
 18: 0x0402 [0x02] IF !(Work_Zone[2] == 7*) GOTO 0x041C
 19: 0x040A [0x66] LOAD_EXT_SCHEDULER_MAIN: Load scheduler "atp0" with entities [LocalPlayer, LocalPlayer], work=120*
 20: 0x0419 [0x01] GOTO 0x0436
 21: 0x041C [0x02] IF !(Work_Zone[2] == 8*) GOTO 0x0436
 22: 0x0424 [0x66] LOAD_EXT_SCHEDULER_MAIN: Load scheduler "atp0" with entities [LocalPlayer, LocalPlayer], work=130*
 23: 0x0433 [0x01] GOTO 0x0436

SUBROUTINE_0436:
 24: 0x0436 [0x00] END_REQSTACK()
```

### Event 65535.27

#### Metadata

| Field        | Value     |
|--------------|-----------|
| Entrypoint   | 0x0437    |
| Data Size    | 209 bytes |
| Instructions | 25        |

```
      00 01 02 03 04 05 06 07  08 09 0A 0B 0C 0D 0E 0F
      -- -- -- -- -- -- -- --  -- -- -- -- -- -- -- --
0430:                      02  02 10 03 80 80 51 04 66         ......Q.f
0440: 49 80 F0 FF FF 7F F0 FF  FF 7F 64 61 6B 30 01 07  I.........dak0..
0450: 05 02 02 10 40 80 80 6B  04 66 4A 80 F0 FF FF 7F  ....@..k.fJ.....
0460: F0 FF FF 7F 64 61 6B 30  01 07 05 02 02 10 41 80  ....dak0......A.
0470: 80 85 04 66 4B 80 F0 FF  FF 7F F0 FF FF 7F 64 61  ...fK.........da
0480: 6B 30 01 07 05 02 02 10  42 80 80 9F 04 66 4C 80  k0......B....fL.
0490: F0 FF FF 7F F0 FF FF 7F  64 61 6B 30 01 07 05 02  ........dak0....
04A0: 02 10 3E 80 80 B9 04 66  4D 80 F0 FF FF 7F F0 FF  ..>....fM.......
04B0: FF 7F 64 61 6B 30 01 07  05 02 02 10 45 80 80 D3  ..dak0......E...
04C0: 04 66 4D 80 F0 FF FF 7F  F0 FF FF 7F 64 61 6B 30  .fM.........dak0
04D0: 01 07 05 02 02 10 35 80  80 ED 04 66 4E 80 F0 FF  ......5....fN...
04E0: FF 7F F0 FF FF 7F 64 61  6B 30 01 07 05 02 02 10  ......dak0......
04F0: 47 80 80 07 05 66 4F 80  F0 FF FF 7F F0 FF FF 7F  G....fO.........
0500: 64 61 6B 30 01 07 05 00                           dak0....        
```

#### Opcodes

```
  0: 0x0437 [0x02] IF !(Work_Zone[2] == 1*) GOTO 0x0451
  1: 0x043F [0x66] LOAD_EXT_SCHEDULER_MAIN: Load scheduler "dak0" with entities [LocalPlayer, LocalPlayer], work=73*
  2: 0x044E [0x01] GOTO 0x0507
  3: 0x0451 [0x02] IF !(Work_Zone[2] == 2*) GOTO 0x046B
  4: 0x0459 [0x66] LOAD_EXT_SCHEDULER_MAIN: Load scheduler "dak0" with entities [LocalPlayer, LocalPlayer], work=83*
  5: 0x0468 [0x01] GOTO 0x0507
  6: 0x046B [0x02] IF !(Work_Zone[2] == 3*) GOTO 0x0485
  7: 0x0473 [0x66] LOAD_EXT_SCHEDULER_MAIN: Load scheduler "dak0" with entities [LocalPlayer, LocalPlayer], work=93*
  8: 0x0482 [0x01] GOTO 0x0507
  9: 0x0485 [0x02] IF !(Work_Zone[2] == 4*) GOTO 0x049F
 10: 0x048D [0x66] LOAD_EXT_SCHEDULER_MAIN: Load scheduler "dak0" with entities [LocalPlayer, LocalPlayer], work=103*
 11: 0x049C [0x01] GOTO 0x0507
 12: 0x049F [0x02] IF !(Work_Zone[2] == 5*) GOTO 0x04B9
 13: 0x04A7 [0x66] LOAD_EXT_SCHEDULER_MAIN: Load scheduler "dak0" with entities [LocalPlayer, LocalPlayer], work=113*
 14: 0x04B6 [0x01] GOTO 0x0507
 15: 0x04B9 [0x02] IF !(Work_Zone[2] == 6*) GOTO 0x04D3
 16: 0x04C1 [0x66] LOAD_EXT_SCHEDULER_MAIN: Load scheduler "dak0" with entities [LocalPlayer, LocalPlayer], work=113*
 17: 0x04D0 [0x01] GOTO 0x0507
 18: 0x04D3 [0x02] IF !(Work_Zone[2] == 7*) GOTO 0x04ED
 19: 0x04DB [0x66] LOAD_EXT_SCHEDULER_MAIN: Load scheduler "dak0" with entities [LocalPlayer, LocalPlayer], work=123*
 20: 0x04EA [0x01] GOTO 0x0507
 21: 0x04ED [0x02] IF !(Work_Zone[2] == 8*) GOTO 0x0507
 22: 0x04F5 [0x66] LOAD_EXT_SCHEDULER_MAIN: Load scheduler "dak0" with entities [LocalPlayer, LocalPlayer], work=133*
 23: 0x0504 [0x01] GOTO 0x0507

SUBROUTINE_0507:
 24: 0x0507 [0x00] END_REQSTACK()
```

### Event 65535.28

#### Metadata

| Field        | Value     |
|--------------|-----------|
| Entrypoint   | 0x0508    |
| Data Size    | 209 bytes |
| Instructions | 25        |

```
      00 01 02 03 04 05 06 07  08 09 0A 0B 0C 0D 0E 0F
      -- -- -- -- -- -- -- --  -- -- -- -- -- -- -- --
0500:                          02 02 10 03 80 80 22 05          ......".
0510: 66 49 80 F0 FF FF 7F F0  FF FF 7F 64 61 6B 31 01  fI.........dak1.
0520: D8 05 02 02 10 40 80 80  3C 05 66 4A 80 F0 FF FF  .....@..<.fJ....
0530: 7F F0 FF FF 7F 64 61 6B  31 01 D8 05 02 02 10 41  .....dak1......A
0540: 80 80 56 05 66 4B 80 F0  FF FF 7F F0 FF FF 7F 64  ..V.fK.........d
0550: 61 6B 31 01 D8 05 02 02  10 42 80 80 70 05 66 4C  ak1......B..p.fL
0560: 80 F0 FF FF 7F F0 FF FF  7F 64 61 6B 31 01 D8 05  .........dak1...
0570: 02 02 10 3E 80 80 8A 05  66 4D 80 F0 FF FF 7F F0  ...>....fM......
0580: FF FF 7F 64 61 6B 31 01  D8 05 02 02 10 45 80 80  ...dak1......E..
0590: A4 05 66 4D 80 F0 FF FF  7F F0 FF FF 7F 64 61 6B  ..fM.........dak
05A0: 31 01 D8 05 02 02 10 35  80 80 BE 05 66 4E 80 F0  1......5....fN..
05B0: FF FF 7F F0 FF FF 7F 64  61 6B 31 01 D8 05 02 02  .......dak1.....
05C0: 10 47 80 80 D8 05 66 4F  80 F0 FF FF 7F F0 FF FF  .G....fO........
05D0: 7F 64 61 6B 31 01 D8 05  00                       .dak1....       
```

#### Opcodes

```
  0: 0x0508 [0x02] IF !(Work_Zone[2] == 1*) GOTO 0x0522
  1: 0x0510 [0x66] LOAD_EXT_SCHEDULER_MAIN: Load scheduler "dak1" with entities [LocalPlayer, LocalPlayer], work=73*
  2: 0x051F [0x01] GOTO 0x05D8
  3: 0x0522 [0x02] IF !(Work_Zone[2] == 2*) GOTO 0x053C
  4: 0x052A [0x66] LOAD_EXT_SCHEDULER_MAIN: Load scheduler "dak1" with entities [LocalPlayer, LocalPlayer], work=83*
  5: 0x0539 [0x01] GOTO 0x05D8
  6: 0x053C [0x02] IF !(Work_Zone[2] == 3*) GOTO 0x0556
  7: 0x0544 [0x66] LOAD_EXT_SCHEDULER_MAIN: Load scheduler "dak1" with entities [LocalPlayer, LocalPlayer], work=93*
  8: 0x0553 [0x01] GOTO 0x05D8
  9: 0x0556 [0x02] IF !(Work_Zone[2] == 4*) GOTO 0x0570
 10: 0x055E [0x66] LOAD_EXT_SCHEDULER_MAIN: Load scheduler "dak1" with entities [LocalPlayer, LocalPlayer], work=103*
 11: 0x056D [0x01] GOTO 0x05D8
 12: 0x0570 [0x02] IF !(Work_Zone[2] == 5*) GOTO 0x058A
 13: 0x0578 [0x66] LOAD_EXT_SCHEDULER_MAIN: Load scheduler "dak1" with entities [LocalPlayer, LocalPlayer], work=113*
 14: 0x0587 [0x01] GOTO 0x05D8
 15: 0x058A [0x02] IF !(Work_Zone[2] == 6*) GOTO 0x05A4
 16: 0x0592 [0x66] LOAD_EXT_SCHEDULER_MAIN: Load scheduler "dak1" with entities [LocalPlayer, LocalPlayer], work=113*
 17: 0x05A1 [0x01] GOTO 0x05D8
 18: 0x05A4 [0x02] IF !(Work_Zone[2] == 7*) GOTO 0x05BE
 19: 0x05AC [0x66] LOAD_EXT_SCHEDULER_MAIN: Load scheduler "dak1" with entities [LocalPlayer, LocalPlayer], work=123*
 20: 0x05BB [0x01] GOTO 0x05D8
 21: 0x05BE [0x02] IF !(Work_Zone[2] == 8*) GOTO 0x05D8
 22: 0x05C6 [0x66] LOAD_EXT_SCHEDULER_MAIN: Load scheduler "dak1" with entities [LocalPlayer, LocalPlayer], work=133*
 23: 0x05D5 [0x01] GOTO 0x05D8

SUBROUTINE_05D8:
 24: 0x05D8 [0x00] END_REQSTACK()
```

### Event 65535.29

#### Metadata

| Field        | Value     |
|--------------|-----------|
| Entrypoint   | 0x05D9    |
| Data Size    | 209 bytes |
| Instructions | 25        |

```
      00 01 02 03 04 05 06 07  08 09 0A 0B 0C 0D 0E 0F
      -- -- -- -- -- -- -- --  -- -- -- -- -- -- -- --
05D0:                             02 02 10 03 80 80 F3           .......
05E0: 05 66 49 80 F0 FF FF 7F  F0 FF FF 7F 64 61 6B 32  .fI.........dak2
05F0: 01 A9 06 02 02 10 40 80  80 0D 06 66 4A 80 F0 FF  ......@....fJ...
0600: FF 7F F0 FF FF 7F 64 61  6B 32 01 A9 06 02 02 10  ......dak2......
0610: 41 80 80 27 06 66 4B 80  F0 FF FF 7F F0 FF FF 7F  A..'.fK.........
0620: 64 61 6B 32 01 A9 06 02  02 10 42 80 80 41 06 66  dak2......B..A.f
0630: 4C 80 F0 FF FF 7F F0 FF  FF 7F 64 61 6B 32 01 A9  L.........dak2..
0640: 06 02 02 10 3E 80 80 5B  06 66 4D 80 F0 FF FF 7F  ....>..[.fM.....
0650: F0 FF FF 7F 64 61 6B 32  01 A9 06 02 02 10 45 80  ....dak2......E.
0660: 80 75 06 66 4D 80 F0 FF  FF 7F F0 FF FF 7F 64 61  .u.fM.........da
0670: 6B 32 01 A9 06 02 02 10  35 80 80 8F 06 66 4E 80  k2......5....fN.
0680: F0 FF FF 7F F0 FF FF 7F  64 61 6B 32 01 A9 06 02  ........dak2....
0690: 02 10 47 80 80 A9 06 66  4F 80 F0 FF FF 7F F0 FF  ..G....fO.......
06A0: FF 7F 64 61 6B 32 01 A9  06 00                    ..dak2....      
```

#### Opcodes

```
  0: 0x05D9 [0x02] IF !(Work_Zone[2] == 1*) GOTO 0x05F3
  1: 0x05E1 [0x66] LOAD_EXT_SCHEDULER_MAIN: Load scheduler "dak2" with entities [LocalPlayer, LocalPlayer], work=73*
  2: 0x05F0 [0x01] GOTO 0x06A9
  3: 0x05F3 [0x02] IF !(Work_Zone[2] == 2*) GOTO 0x060D
  4: 0x05FB [0x66] LOAD_EXT_SCHEDULER_MAIN: Load scheduler "dak2" with entities [LocalPlayer, LocalPlayer], work=83*
  5: 0x060A [0x01] GOTO 0x06A9
  6: 0x060D [0x02] IF !(Work_Zone[2] == 3*) GOTO 0x0627
  7: 0x0615 [0x66] LOAD_EXT_SCHEDULER_MAIN: Load scheduler "dak2" with entities [LocalPlayer, LocalPlayer], work=93*
  8: 0x0624 [0x01] GOTO 0x06A9
  9: 0x0627 [0x02] IF !(Work_Zone[2] == 4*) GOTO 0x0641
 10: 0x062F [0x66] LOAD_EXT_SCHEDULER_MAIN: Load scheduler "dak2" with entities [LocalPlayer, LocalPlayer], work=103*
 11: 0x063E [0x01] GOTO 0x06A9
 12: 0x0641 [0x02] IF !(Work_Zone[2] == 5*) GOTO 0x065B
 13: 0x0649 [0x66] LOAD_EXT_SCHEDULER_MAIN: Load scheduler "dak2" with entities [LocalPlayer, LocalPlayer], work=113*
 14: 0x0658 [0x01] GOTO 0x06A9
 15: 0x065B [0x02] IF !(Work_Zone[2] == 6*) GOTO 0x0675
 16: 0x0663 [0x66] LOAD_EXT_SCHEDULER_MAIN: Load scheduler "dak2" with entities [LocalPlayer, LocalPlayer], work=113*
 17: 0x0672 [0x01] GOTO 0x06A9
 18: 0x0675 [0x02] IF !(Work_Zone[2] == 7*) GOTO 0x068F
 19: 0x067D [0x66] LOAD_EXT_SCHEDULER_MAIN: Load scheduler "dak2" with entities [LocalPlayer, LocalPlayer], work=123*
 20: 0x068C [0x01] GOTO 0x06A9
 21: 0x068F [0x02] IF !(Work_Zone[2] == 8*) GOTO 0x06A9
 22: 0x0697 [0x66] LOAD_EXT_SCHEDULER_MAIN: Load scheduler "dak2" with entities [LocalPlayer, LocalPlayer], work=133*
 23: 0x06A6 [0x01] GOTO 0x06A9

SUBROUTINE_06A9:
 24: 0x06A9 [0x00] END_REQSTACK()
```

### Event 65535.30

#### Metadata

| Field        | Value    |
|--------------|----------|
| Entrypoint   | 0x06AA   |
| Data Size    | 48 bytes |
| Instructions | 9        |

```
      00 01 02 03 04 05 06 07  08 09 0A 0B 0C 0D 0E 0F
      -- -- -- -- -- -- -- --  -- -- -- -- -- -- -- --
06A0:                                03 01 00 50 80 03            ...P..
06B0: 02 00 51 80 02 02 00 02  80 04 D9 06 BA F0 FF FF  ..Q.............
06C0: 7F 52 80 53 80 01 00 54  80 08 02 00 2E 80 07 01  .R.S...T........
06D0: 00 43 80 1C 03 80 01 B4  06 00                    .C........      
```

#### Opcodes

```
  0: 0x06AA [0x03] ExtData[1]->WorkLocal[1] = 4294966296*
  1: 0x06AF [0x03] ExtData[1]->WorkLocal[2] = 3000*
  2: 0x06B4 [0x02] IF !(ExtData[1]->WorkLocal[2] < 0*) GOTO 0x06D9
  3: 0x06BC [0xBA] SET_ENTITY_POSITION(entity_id=LocalPlayer, pos_x=529.460*, pos_z=-372.789*, pos_y=ExtData[1]->WorkLocal[1], direction=342.5°*)
  4: 0x06C9 [0x08] ExtData[1]->WorkLocal[2] -= 10*
  5: 0x06CE [0x07] ExtData[1]->WorkLocal[1] += 100*
  6: 0x06D3 [0x1C] WAIT(1* ticks)
  7: 0x06D6 [0x01] GOTO 0x06B4
  8: 0x06D9 [0x00] END_REQSTACK()
```

### Event 65535.31

#### Metadata

| Field        | Value    |
|--------------|----------|
| Entrypoint   | 0x06DA   |
| Data Size    | 11 bytes |
| Instructions | 3        |

```
      00 01 02 03 04 05 06 07  08 09 0A 0B 0C 0D 0E 0F
      -- -- -- -- -- -- -- --  -- -- -- -- -- -- -- --
06D0:                                1F 00 55 80 56 80            ..U.V.
06E0: 02 80 1F 01 00                                    .....           
```

#### Opcodes

```
  0: 0x06DA [0x1F] MOVE_ENTITY: EventEntity moves to X=-299.017*, Z=-478.685*, Y=0.000*
  1: 0x06E2 [0x1F] MOVE_ENTITY: Update entity position (mode=1)
  2: 0x06E4 [0x00] END_REQSTACK()
```

### Event 65535.32

#### Metadata

| Field        | Value    |
|--------------|----------|
| Entrypoint   | 0x06E5   |
| Data Size    | 27 bytes |
| Instructions | 5        |

```
      00 01 02 03 04 05 06 07  08 09 0A 0B 0C 0D 0E 0F
      -- -- -- -- -- -- -- --  -- -- -- -- -- -- -- --
06E0:                03 03 00  07 7F 1A AF 07 66 04 00       ........f..
06F0: F8 FF FF 7F F8 FF FF 7F  61 74 30 30 1C 0E 80 00  ........at00....
```

#### Opcodes

```
  0: 0x06E5 [0x03] ExtData[1]->WorkLocal[3] = Entity->Race
  1: 0x06EA [0x1A] CALL_SUBROUTINE(address=0x07AF)
  2: 0x06ED [0x66] LOAD_EXT_SCHEDULER_MAIN: Load scheduler "at00" with entities [EventEntity, EventEntity], work=ExtData[1]->WorkLocal[4]
  3: 0x06FC [0x1C] WAIT(240* ticks)
  4: 0x06FF [0x00] END_REQSTACK()
```

### Event 65535.33

#### Metadata

| Field        | Value    |
|--------------|----------|
| Entrypoint   | 0x0700   |
| Data Size    | 16 bytes |
| Instructions | 4        |

```
      00 01 02 03 04 05 06 07  08 09 0A 0B 0C 0D 0E 0F
      -- -- -- -- -- -- -- --  -- -- -- -- -- -- -- --
0700: 1C 04 80 6E F0 FF FF 7F  57 80 99 F0 FF FF 7F 00  ...n....W.......
```

#### Opcodes

```
  0: 0x0700 [0x1C] WAIT(90* ticks)
  1: 0x0703 [0x6E] LocalPlayer uses emote 20*
  2: 0x070A [0x99] Wait for LocalPlayer animation to complete
  3: 0x070F [0x00] END_REQSTACK()
```

### Event 65535.34

#### Metadata

| Field        | Value    |
|--------------|----------|
| Entrypoint   | 0x0710   |
| Data Size    | 37 bytes |
| Instructions | 5        |

```
      00 01 02 03 04 05 06 07  08 09 0A 0B 0C 0D 0E 0F
      -- -- -- -- -- -- -- --  -- -- -- -- -- -- -- --
0710: 03 03 00 07 7F 1A 8A 07  66 04 00 F8 FF FF 7F F8  ........f.......
0720: FF FF 7F 73 68 61 30 53  F8 FF FF 7F F8 FF FF 7F  ...sha0S........
0730: 73 68 61 30 00                                    sha0.           
```

#### Opcodes

```
  0: 0x0710 [0x03] ExtData[1]->WorkLocal[3] = Entity->Race
  1: 0x0715 [0x1A] CALL_SUBROUTINE(address=0x078A)
  2: 0x0718 [0x66] LOAD_EXT_SCHEDULER_MAIN: Load scheduler "sha0" with entities [EventEntity, EventEntity], work=ExtData[1]->WorkLocal[4]
  3: 0x0727 [0x53] WAIT_SCHEDULER_TASK: Wait for scheduler "sha0" with entities [EventEntity, EventEntity]
  4: 0x0734 [0x00] END_REQSTACK()
```

### Event 65535.35

#### Metadata

| Field        | Value    |
|--------------|----------|
| Entrypoint   | 0x0735   |
| Data Size    | 37 bytes |
| Instructions | 5        |

```
      00 01 02 03 04 05 06 07  08 09 0A 0B 0C 0D 0E 0F
      -- -- -- -- -- -- -- --  -- -- -- -- -- -- -- --
0730:                03 03 00  07 7F 1A 8A 07 66 04 00       ........f..
0740: F8 FF FF 7F F8 FF FF 7F  73 68 61 31 53 F8 FF FF  ........sha1S...
0750: 7F F8 FF FF 7F 73 68 61  31 00                    .....sha1.      
```

#### Opcodes

```
  0: 0x0735 [0x03] ExtData[1]->WorkLocal[3] = Entity->Race
  1: 0x073A [0x1A] CALL_SUBROUTINE(address=0x078A)
  2: 0x073D [0x66] LOAD_EXT_SCHEDULER_MAIN: Load scheduler "sha1" with entities [EventEntity, EventEntity], work=ExtData[1]->WorkLocal[4]
  3: 0x074C [0x53] WAIT_SCHEDULER_TASK: Wait for scheduler "sha1" with entities [EventEntity, EventEntity]
  4: 0x0759 [0x00] END_REQSTACK()
```

### Event 65535.36

#### Metadata

| Field        | Value    |
|--------------|----------|
| Entrypoint   | 0x075A   |
| Data Size    | 24 bytes |
| Instructions | 4        |

```
      00 01 02 03 04 05 06 07  08 09 0A 0B 0C 0D 0E 0F
      -- -- -- -- -- -- -- --  -- -- -- -- -- -- -- --
0750:                                03 03 00 07 7F 1A            ......
0760: 8A 07 66 04 00 F8 FF FF  7F F8 FF FF 7F 74 6C 6B  ..f..........tlk
0770: 30 00                                             0.              
```

#### Opcodes

```
  0: 0x075A [0x03] ExtData[1]->WorkLocal[3] = Entity->Race
  1: 0x075F [0x1A] CALL_SUBROUTINE(address=0x078A)
  2: 0x0762 [0x66] LOAD_EXT_SCHEDULER_MAIN: Load scheduler "tlk0" with entities [EventEntity, EventEntity], work=ExtData[1]->WorkLocal[4]
  3: 0x0771 [0x00] END_REQSTACK()
```

### Event 65535.37

#### Metadata

| Field        | Value     |
|--------------|-----------|
| Entrypoint   | 0x0772    |
| Data Size    | 172 bytes |
| Instructions | 12        |

```
      00 01 02 03 04 05 06 07  08 09 0A 0B 0C 0D 0E 0F
      -- -- -- -- -- -- -- --  -- -- -- -- -- -- -- --
0770:       03 03 00 07 7F 1A  8A 07 66 04 00 F8 FF FF    ........f.....
0780: 7F F8 FF FF 7F 74 6C 6B  31 00 03 04 00 03 00 02  .....tlk1.......
0790: 04 00 3E 80 05 9F 07 08  04 00 03 80 01 A4 07 08  ..>.............
07A0: 04 00 40 80 14 04 00 2E  80 07 04 00 58 80 1B 03  ..@.........X...
07B0: 04 00 03 00 02 04 00 3E  80 05 C4 07 08 04 00 03  .......>........
07C0: 80 01 C9 07 08 04 00 40  80 14 04 00 2E 80 07 04  .......@........
07D0: 00 3F 80 1B 03 04 00 03  00 02 04 00 3E 80 05 E9  .?..........>...
07E0: 07 08 04 00 03 80 01 EE  07 08 04 00 40 80 14 04  ............@...
07F0: 00 2E 80 07 04 00 59 80  1B 03 04 00 03 00 02 04  ......Y.........
0800: 00 3E 80 05 0E 08 08 04  00 03 80 01 13 08 08 04  .>..............
0810: 00 40 80 14 04 00 2E 80  07 04 00 5A 80 1B        .@.........Z..  
```

#### Opcodes

```
  0: 0x0772 [0x03] ExtData[1]->WorkLocal[3] = Entity->Race
  1: 0x0777 [0x1A] CALL_SUBROUTINE(address=0x078A)
  2: 0x077A [0x66] LOAD_EXT_SCHEDULER_MAIN: Load scheduler "tlk1" with entities [EventEntity, EventEntity], work=ExtData[1]->WorkLocal[4]
  3: 0x0789 [0x00] END_REQSTACK()

SUBROUTINE_078A:
  4: 0x078A [0x03] ExtData[1]->WorkLocal[4] = ExtData[1]->WorkLocal[3]
  5: 0x078F [0x02] IF !(ExtData[1]->WorkLocal[4] > 5*) GOTO 0x079F
  6: 0x0797 [0x08] ExtData[1]->WorkLocal[4] -= 1*
  7: 0x079C [0x01] GOTO 0x07A4
  8: 0x079F [0x08] ExtData[1]->WorkLocal[4] -= 2*

SUBROUTINE_07A4:
  9: 0x07A4 [0x14] ExtData[1]->WorkLocal[4] *= 10*
 10: 0x07A9 [0x07] ExtData[1]->WorkLocal[4] += 9*
 11: 0x07AE [0x1B] RETURN
```

#### Data or dead code:

```
# Dead code (unreachable instructions):
     0x07AF [0x03] ExtData[1]->WorkLocal[4] = ExtData[1]->WorkLocal[3]
     0x07B4 [0x02] IF !(ExtData[1]->WorkLocal[4] > 5*) GOTO 0x07C4
     0x07BC [0x08] ExtData[1]->WorkLocal[4] -= 1*
     0x07C1 [0x01] GOTO 0x07C9
     0x07C4 [0x08] ExtData[1]->WorkLocal[4] -= 2*
     0x07C9 [0x14] ExtData[1]->WorkLocal[4] *= 10*
     0x07CE [0x07] ExtData[1]->WorkLocal[4] += 70*
     0x07D3 [0x1B] RETURN
     0x07D4 [0x03] ExtData[1]->WorkLocal[4] = ExtData[1]->WorkLocal[3]
     0x07D9 [0x02] IF !(ExtData[1]->WorkLocal[4] > 5*) GOTO 0x07E9
     0x07E1 [0x08] ExtData[1]->WorkLocal[4] -= 1*
     0x07E6 [0x01] GOTO 0x07EE
     0x07E9 [0x08] ExtData[1]->WorkLocal[4] -= 2*
     0x07EE [0x14] ExtData[1]->WorkLocal[4] *= 10*
     0x07F3 [0x07] ExtData[1]->WorkLocal[4] += 140*
     0x07F8 [0x1B] RETURN
     0x07F9 [0x03] ExtData[1]->WorkLocal[4] = ExtData[1]->WorkLocal[3]
     0x07FE [0x02] IF !(ExtData[1]->WorkLocal[4] > 5*) GOTO 0x080E
     0x0806 [0x08] ExtData[1]->WorkLocal[4] -= 1*
     0x080B [0x01] GOTO 0x0813
     0x080E [0x08] ExtData[1]->WorkLocal[4] -= 2*
     0x0813 [0x14] ExtData[1]->WorkLocal[4] *= 10*
     0x0818 [0x07] ExtData[1]->WorkLocal[4] += 210*
     0x081D [0x1B] RETURN
```

### Event 65535.38

#### Metadata

| Field        | Value   |
|--------------|---------|
| Entrypoint   | 0x081E  |
| Data Size    | 6 bytes |
| Instructions | 2       |

```
      00 01 02 03 04 05 06 07  08 09 0A 0B 0C 0D 0E 0F
      -- -- -- -- -- -- -- --  -- -- -- -- -- -- -- --
0810:                                            03 02                ..
0820: 10 07 7F 00                                       ....            
```

#### Opcodes

```
  0: 0x081E [0x03] Work_Zone[2] = Entity->Race
  1: 0x0823 [0x00] END_REQSTACK()
```

### Event 65535.39

#### Metadata

| Field        | Value   |
|--------------|---------|
| Entrypoint   | 0x0824  |
| Data Size    | 6 bytes |
| Instructions | 2       |

```
      00 01 02 03 04 05 06 07  08 09 0A 0B 0C 0D 0E 0F
      -- -- -- -- -- -- -- --  -- -- -- -- -- -- -- --
0820:             03 02 10 0B  7F 00                        ......      
```

#### Opcodes

```
  0: 0x0824 [0x03] Work_Zone[2] = (Entity->Render.Flags01 >> 25) & 1
  1: 0x0829 [0x00] END_REQSTACK()
```

### Event 65535.40

#### Metadata

| Field        | Value   |
|--------------|---------|
| Entrypoint   | 0x082A  |
| Data Size    | 5 bytes |
| Instructions | 2       |

```
      00 01 02 03 04 05 06 07  08 09 0A 0B 0C 0D 0E 0F
      -- -- -- -- -- -- -- --  -- -- -- -- -- -- -- --
0820:                                B6 0F 5B 80 00               ..[.. 
```

#### Opcodes

```
  0: 0x082A [0xB6] ENTITY_APPEARANCE_HANDLER(case=Model size, value=87*)
  1: 0x082E [0x00] END_REQSTACK()
```

### Event 65535.41

#### Metadata

| Field        | Value   |
|--------------|---------|
| Entrypoint   | 0x082F  |
| Data Size    | 5 bytes |
| Instructions | 2       |

```
      00 01 02 03 04 05 06 07  08 09 0A 0B 0C 0D 0E 0F
      -- -- -- -- -- -- -- --  -- -- -- -- -- -- -- --
0820:                                               B6                 .
0830: 0F 4B 80 00                                       .K..            
```

#### Opcodes

```
  0: 0x082F [0xB6] ENTITY_APPEARANCE_HANDLER(case=Model size, value=93*)
  1: 0x0833 [0x00] END_REQSTACK()
```

### Event 65535.42

#### Metadata

| Field        | Value   |
|--------------|---------|
| Entrypoint   | 0x0834  |
| Data Size    | 5 bytes |
| Instructions | 2       |

```
      00 01 02 03 04 05 06 07  08 09 0A 0B 0C 0D 0E 0F
      -- -- -- -- -- -- -- --  -- -- -- -- -- -- -- --
0830:             B6 0F 5C 80  00                           ..\..       
```

#### Opcodes

```
  0: 0x0834 [0xB6] ENTITY_APPEARANCE_HANDLER(case=Model size, value=96*)
  1: 0x0838 [0x00] END_REQSTACK()
```

### Event 65535.43

#### Metadata

| Field        | Value   |
|--------------|---------|
| Entrypoint   | 0x0839  |
| Data Size    | 5 bytes |
| Instructions | 2       |

```
      00 01 02 03 04 05 06 07  08 09 0A 0B 0C 0D 0E 0F
      -- -- -- -- -- -- -- --  -- -- -- -- -- -- -- --
0830:                             B6 0F 43 80 00                 ..C..  
```

#### Opcodes

```
  0: 0x0839 [0xB6] ENTITY_APPEARANCE_HANDLER(case=Model size, value=100*)
  1: 0x083D [0x00] END_REQSTACK()
```

### Event 65535.44

#### Metadata

| Field        | Value     |
|--------------|-----------|
| Entrypoint   | 0x083E    |
| Data Size    | 345 bytes |
| Instructions | 33        |

```
      00 01 02 03 04 05 06 07  08 09 0A 0B 0C 0D 0E 0F
      -- -- -- -- -- -- -- --  -- -- -- -- -- -- -- --
0830:                                            02 87                ..
0840: 7F 03 80 80 69 08 5F 04  5D 80 F0 FF FF 7F F0 FF  ....i._.].......
0850: FF 7F 6B 69 7A 6D 5F 03  5E 80 81 B3 05 01 81 B3  ..kizm_.^.......
0860: 05 01 68 6D 6D 6D 01 96  09 02 87 7F 40 80 80 94  ..hmmm......@...
0870: 08 5F 04 5F 80 F0 FF FF  7F F0 FF FF 7F 6B 69 7A  ._._.........kiz
0880: 6D 5F 03 5E 80 81 B3 05  01 81 B3 05 01 68 66 6D  m_.^.........hfm
0890: 6D 01 96 09 02 87 7F 41  80 80 BF 08 5F 04 60 80  m......A...._.`.
08A0: F0 FF FF 7F F0 FF FF 7F  6B 69 7A 6D 5F 03 5E 80  ........kizm_.^.
08B0: 81 B3 05 01 81 B3 05 01  65 6D 6D 6D 01 96 09 02  ........emmm....
08C0: 87 7F 42 80 80 EA 08 5F  04 61 80 F0 FF FF 7F F0  ..B...._.a......
08D0: FF FF 7F 6B 69 7A 6D 5F  03 5E 80 81 B3 05 01 81  ...kizm_.^......
08E0: B3 05 01 65 66 6D 6D 01  96 09 02 87 7F 3E 80 80  ...efmm......>..
08F0: 15 09 5F 04 62 80 F0 FF  FF 7F F0 FF FF 7F 6B 69  .._.b.........ki
0900: 7A 6D 5F 03 5E 80 81 B3  05 01 81 B3 05 01 74 6D  zm_.^.........tm
0910: 61 6D 01 96 09 02 87 7F  45 80 80 40 09 5F 04 62  am......E..@._.b
0920: 80 F0 FF FF 7F F0 FF FF  7F 6B 69 7A 6D 5F 03 5E  .........kizm_.^
0930: 80 81 B3 05 01 81 B3 05  01 74 6D 61 6D 01 96 09  .........tmam...
0940: 02 87 7F 35 80 80 6B 09  5F 04 63 80 F0 FF FF 7F  ...5..k._.c.....
0950: F0 FF FF 7F 6B 69 7A 6D  5F 03 5E 80 81 B3 05 01  ....kizm_.^.....
0960: 81 B3 05 01 6D 6D 61 6D  01 96 09 02 87 7F 47 80  ....mmam......G.
0970: 80 96 09 5F 04 06 80 F0  FF FF 7F F0 FF FF 7F 6B  ..._...........k
0980: 69 7A 6D 5F 03 5E 80 81  B3 05 01 81 B3 05 01 67  izm_.^.........g
0990: 6D 61 6D 01 96 09 00                              mam....         
```

#### Opcodes

```
  0: 0x083E [0x02] IF !(LocalPlayer->Race == 1*) GOTO 0x0869
  1: 0x0846 [0x5F] MULTI_HANDLER_COMPLEX(mode=0x04 - Load ext scheduler (OpCode 0x5B mode 1), ref=141*, entity1=LocalPlayer, entity2=LocalPlayer, string="kizm")
  2: 0x0856 [0x5F] MULTI_HANDLER_COMPLEX(mode=0x03 - Load ext scheduler (OpCode 0x5B mode 0), ref=3878*, entity1=Unnamed NPC (ID: 17150849/0x0105B381), entity2=Unnamed NPC (ID: 17150849/0x0105B381), string="hmmm")
  3: 0x0866 [0x01] GOTO 0x0996
  4: 0x0869 [0x02] IF !(LocalPlayer->Race == 2*) GOTO 0x0894
  5: 0x0871 [0x5F] MULTI_HANDLER_COMPLEX(mode=0x04 - Load ext scheduler (OpCode 0x5B mode 1), ref=151*, entity1=LocalPlayer, entity2=LocalPlayer, string="kizm")
  6: 0x0881 [0x5F] MULTI_HANDLER_COMPLEX(mode=0x03 - Load ext scheduler (OpCode 0x5B mode 0), ref=3878*, entity1=Unnamed NPC (ID: 17150849/0x0105B381), entity2=Unnamed NPC (ID: 17150849/0x0105B381), string="hfmm")
  7: 0x0891 [0x01] GOTO 0x0996
  8: 0x0894 [0x02] IF !(LocalPlayer->Race == 3*) GOTO 0x08BF
  9: 0x089C [0x5F] MULTI_HANDLER_COMPLEX(mode=0x04 - Load ext scheduler (OpCode 0x5B mode 1), ref=161*, entity1=LocalPlayer, entity2=LocalPlayer, string="kizm")
 10: 0x08AC [0x5F] MULTI_HANDLER_COMPLEX(mode=0x03 - Load ext scheduler (OpCode 0x5B mode 0), ref=3878*, entity1=Unnamed NPC (ID: 17150849/0x0105B381), entity2=Unnamed NPC (ID: 17150849/0x0105B381), string="emmm")
 11: 0x08BC [0x01] GOTO 0x0996
 12: 0x08BF [0x02] IF !(LocalPlayer->Race == 4*) GOTO 0x08EA
 13: 0x08C7 [0x5F] MULTI_HANDLER_COMPLEX(mode=0x04 - Load ext scheduler (OpCode 0x5B mode 1), ref=171*, entity1=LocalPlayer, entity2=LocalPlayer, string="kizm")
 14: 0x08D7 [0x5F] MULTI_HANDLER_COMPLEX(mode=0x03 - Load ext scheduler (OpCode 0x5B mode 0), ref=3878*, entity1=Unnamed NPC (ID: 17150849/0x0105B381), entity2=Unnamed NPC (ID: 17150849/0x0105B381), string="efmm")
 15: 0x08E7 [0x01] GOTO 0x0996
 16: 0x08EA [0x02] IF !(LocalPlayer->Race == 5*) GOTO 0x0915
 17: 0x08F2 [0x5F] MULTI_HANDLER_COMPLEX(mode=0x04 - Load ext scheduler (OpCode 0x5B mode 1), ref=181*, entity1=LocalPlayer, entity2=LocalPlayer, string="kizm")
 18: 0x0902 [0x5F] MULTI_HANDLER_COMPLEX(mode=0x03 - Load ext scheduler (OpCode 0x5B mode 0), ref=3878*, entity1=Unnamed NPC (ID: 17150849/0x0105B381), entity2=Unnamed NPC (ID: 17150849/0x0105B381), string="tmam")
 19: 0x0912 [0x01] GOTO 0x0996
 20: 0x0915 [0x02] IF !(LocalPlayer->Race == 6*) GOTO 0x0940
 21: 0x091D [0x5F] MULTI_HANDLER_COMPLEX(mode=0x04 - Load ext scheduler (OpCode 0x5B mode 1), ref=181*, entity1=LocalPlayer, entity2=LocalPlayer, string="kizm")
 22: 0x092D [0x5F] MULTI_HANDLER_COMPLEX(mode=0x03 - Load ext scheduler (OpCode 0x5B mode 0), ref=3878*, entity1=Unnamed NPC (ID: 17150849/0x0105B381), entity2=Unnamed NPC (ID: 17150849/0x0105B381), string="tmam")
 23: 0x093D [0x01] GOTO 0x0996
 24: 0x0940 [0x02] IF !(LocalPlayer->Race == 7*) GOTO 0x096B
 25: 0x0948 [0x5F] MULTI_HANDLER_COMPLEX(mode=0x04 - Load ext scheduler (OpCode 0x5B mode 1), ref=191*, entity1=LocalPlayer, entity2=LocalPlayer, string="kizm")
 26: 0x0958 [0x5F] MULTI_HANDLER_COMPLEX(mode=0x03 - Load ext scheduler (OpCode 0x5B mode 0), ref=3878*, entity1=Unnamed NPC (ID: 17150849/0x0105B381), entity2=Unnamed NPC (ID: 17150849/0x0105B381), string="mmam")
 27: 0x0968 [0x01] GOTO 0x0996
 28: 0x096B [0x02] IF !(LocalPlayer->Race == 8*) GOTO 0x0996
 29: 0x0973 [0x5F] MULTI_HANDLER_COMPLEX(mode=0x04 - Load ext scheduler (OpCode 0x5B mode 1), ref=201*, entity1=LocalPlayer, entity2=LocalPlayer, string="kizm")
 30: 0x0983 [0x5F] MULTI_HANDLER_COMPLEX(mode=0x03 - Load ext scheduler (OpCode 0x5B mode 0), ref=3878*, entity1=Unnamed NPC (ID: 17150849/0x0105B381), entity2=Unnamed NPC (ID: 17150849/0x0105B381), string="gmam")
 31: 0x0993 [0x01] GOTO 0x0996

SUBROUTINE_0996:
 32: 0x0996 [0x00] END_REQSTACK()
```

### Event 265

#### Metadata

| Field        | Value      |
|--------------|------------|
| Entrypoint   | 0x0997     |
| Data Size    | 1061 bytes |
| Instructions | 204        |

```
      00 01 02 03 04 05 06 07  08 09 0A 0B 0C 0D 0E 0F
      -- -- -- -- -- -- -- --  -- -- -- -- -- -- -- --
0990:                      42  46 01 3E 04 10 02 80 A9         BF.>.....
09A0: 09 03 05 00 03 80 01 AE  09 03 05 00 02 80 3E 04  ..............>.
09B0: 10 03 80 BD 09 03 06 00  03 80 01 C2 09 03 06 00  ................
09C0: 02 80 41 40 80 41 80 04  10 07 00 45 01 80 F8 FF  ..A@.A.....E....
09D0: FF 7F F8 FF FF 7F 66 64  6F 30 02 80 55 01 80 F8  ......fdo0..U...
09E0: FF FF 7F F8 FF FF 7F 66  64 6F 30 BA F0 FF FF 7F  .......fdo0.....
09F0: 05 10 06 10 07 10 08 10  1A D8 0A 1A 36 0B 38 64  ............6.8d
0A00: 80 1A 7B 0B 03 05 10 02  10 03 06 10 02 10 03 07  ..{.............
0A10: 10 02 10 15 05 10 65 80  15 06 10 05 80 3F 07 10  ......e......?..
0A20: 07 10 05 80 1A 9A 0D 1A  BB 0B 45 01 80 F8 FF FF  ..........E.....
0A30: 7F F8 FF FF 7F 66 64 69  31 02 80 1C 66 80 1A 54  .....fdi1...f..T
0A40: 0D 1A F8 0B 1C 05 80 1A  32 0C 02 06 00 02 80 00  ........2.......
0A50: 5B 0A 1C 05 80 1A 6C 0C  01 9D 0A 1C 05 80 1A A6  [.....l.........
0A60: 0C 02 03 10 02 80 01 9D  0A 03 05 10 03 10 03 06  ................
0A70: 10 03 10 03 07 10 03 10  15 05 10 65 80 15 06 10  ...........e....
0A80: 05 80 3F 07 10 07 10 05  80 1C 05 80 02 05 00 02  ..?.............
0A90: 80 00 9A 0A 1A E0 0C 01  9D 0A 1A 1A 0D 1C 05 80  ................
0AA0: 1A AC 0D 45 01 80 F8 FF  FF 7F F8 FF FF 7F 66 64  ...E..........fd
0AB0: 6F 31 02 80 55 01 80 F8  FF FF 7F F8 FF FF 7F 66  o1..U..........f
0AC0: 64 6F 31 46 00 45 01 80  F8 FF FF 7F F8 FF FF 7F  do1F.E..........
0AD0: 66 64 69 32 02 80 21 00  02 07 00 03 80 80 F5 0A  fdi2..!.........
0AE0: 4E 00 FE B2 05 01 92 01  FE B2 05 01 4E 00 01 B3  N...........N...
0AF0: 05 01 01 2F 0B 02 07 00  40 80 80 12 0B 4E 00 FF  .../....@....N..
0B00: B2 05 01 92 01 FF B2 05  01 4E 00 02 B3 05 01 01  .........N......
0B10: 2F 0B 02 07 00 41 80 80  2F 0B 4E 00 00 B3 05 01  /....A../.N.....
0B20: 92 01 00 B3 05 01 4E 00  03 B3 05 01 01 2F 0B 4E  ......N....../.N
0B30: 00 60 B3 05 01 1B 02 07  00 03 80 80 4B 0B 80 FE  .`..........K...
0B40: B2 05 01 80 01 B3 05 01  01 75 0B 02 07 00 40 80  .........u....@.
0B50: 80 60 0B 80 FF B2 05 01  80 02 B3 05 01 01 75 0B  .`............u.
0B60: 02 07 00 41 80 80 75 0B  80 00 B3 05 01 80 03 B3  ...A..u.........
0B70: 05 01 01 75 0B 80 60 B3  05 01 1B 02 07 00 40 80  ...u..`.......@.
0B80: 80 90 0B 79 00 F0 FF FF  7F FE B2 05 01 01 BA 0B  ...y............
0B90: 02 07 00 41 80 80 A5 0B  79 00 F0 FF FF 7F FF B2  ...A....y.......
0BA0: 05 01 01 BA 0B 02 07 00  42 80 80 BA 0B 79 00 F0  ........B....y..
0BB0: FF FF 7F 00 B3 05 01 01  BA 0B 1B 02 07 00 03 80  ................
0BC0: 80 CF 0B 4A FE B2 05 01  F0 FF FF 7F 01 F7 0B 02  ...J............
0BD0: 07 00 40 80 80 E3 0B 4A  FF B2 05 01 F0 FF FF 7F  ..@....J........
0BE0: 01 F7 0B 02 07 00 41 80  80 F7 0B 4A 00 B3 05 01  ......A....J....
0BF0: F0 FF FF 7F 01 F7 0B 1B  02 07 00 03 80 80 0B 0C  ................
0C00: 2B FE B2 05 01 67 80 23  01 31 0C 02 07 00 40 80  +....g.#.1....@.
0C10: 80 1E 0C 2B FF B2 05 01  67 80 23 01 31 0C 02 07  ...+....g.#.1...
0C20: 00 41 80 80 31 0C 2B 00  B3 05 01 67 80 23 01 31  .A..1.+....g.#.1
0C30: 0C 1B 02 07 00 03 80 80  45 0C 2B FE B2 05 01 68  ........E.+....h
0C40: 80 23 01 6B 0C 02 07 00  40 80 80 58 0C 2B FF B2  .#.k....@..X.+..
0C50: 05 01 68 80 23 01 6B 0C  02 07 00 41 80 80 6B 0C  ..h.#.k....A..k.
0C60: 2B 00 B3 05 01 68 80 23  01 6B 0C 1B 02 07 00 03  +....h.#.k......
0C70: 80 80 7F 0C 2B FE B2 05  01 69 80 23 01 A5 0C 02  ....+....i.#....
0C80: 07 00 40 80 80 92 0C 2B  FF B2 05 01 69 80 23 01  ..@....+....i.#.
0C90: A5 0C 02 07 00 41 80 80  A5 0C 2B 00 B3 05 01 69  .....A....+....i
0CA0: 80 23 01 A5 0C 1B 02 07  00 03 80 80 B9 0C 2B FE  .#............+.
0CB0: B2 05 01 6A 80 23 01 DF  0C 02 07 00 40 80 80 CC  ...j.#......@...
0CC0: 0C 2B FF B2 05 01 6A 80  23 01 DF 0C 02 07 00 41  .+....j.#......A
0CD0: 80 80 DF 0C 2B 00 B3 05  01 6A 80 23 01 DF 0C 1B  ....+....j.#....
0CE0: 02 07 00 03 80 80 F3 0C  2B FE B2 05 01 6B 80 23  ........+....k.#
0CF0: 01 19 0D 02 07 00 40 80  80 06 0D 2B FF B2 05 01  ......@....+....
0D00: 6B 80 23 01 19 0D 02 07  00 41 80 80 19 0D 2B 00  k.#......A....+.
0D10: B3 05 01 6B 80 23 01 19  0D 1B 02 07 00 03 80 80  ...k.#..........
0D20: 2D 0D 2B FE B2 05 01 6C  80 23 01 53 0D 02 07 00  -.+....l.#.S....
0D30: 40 80 80 40 0D 2B FF B2  05 01 6C 80 23 01 53 0D  @..@.+....l.#.S.
0D40: 02 07 00 41 80 80 53 0D  2B 00 B3 05 01 6C 80 23  ...A..S.+....l.#
0D50: 01 53 0D 1B 02 07 00 03  80 80 6B 0D 6E FE B2 05  .S........k.n...
0D60: 01 40 80 99 FE B2 05 01  01 99 0D 02 07 00 40 80  .@............@.
0D70: 80 82 0D 6E FF B2 05 01  6D 80 99 FF B2 05 01 01  ...n....m.......
0D80: 99 0D 02 07 00 41 80 80  99 0D 6E 00 B3 05 01 6E  .....A....n....n
0D90: 80 99 00 B3 05 01 01 99  0D 1B 45 6F 80 F0 FF FF  ..........Eo....
0DA0: 7F F0 FF FF 7F 63 30 39  31 02 80 1B 52 6F 80 F0  .....c091...Ro..
0DB0: FF FF 7F F0 FF FF 7F 63  30 39 31 1B              .......c091.    
```

#### Opcodes

```
  0: 0x0997 [0x42] SET_CLI_EVENT_CANCEL_DATA()
  1: 0x0998 [0x46] CAMERA_CONTROL: Disable user control
  2: 0x099A [0x3E] IF !(Work_Zone[4] bit 0*) GOTO 0x09A9
  3: 0x09A1 [0x03] ExtData[1]->WorkLocal[5] = 1*
  4: 0x09A6 [0x01] GOTO 0x09AE
  5: 0x09A9 [0x03] ExtData[1]->WorkLocal[5] = 0*

SUBROUTINE_09AE:
  6: 0x09AE [0x3E] IF !(Work_Zone[4] bit 1*) GOTO 0x09BD
  7: 0x09B5 [0x03] ExtData[1]->WorkLocal[6] = 1*
  8: 0x09BA [0x01] GOTO 0x09C2
  9: 0x09BD [0x03] ExtData[1]->WorkLocal[6] = 0*

SUBROUTINE_09C2:
 10: 0x09C2 [0x41] ExtData[1]->WorkLocal[7] = Work_Zone[4] (bits 2*-3*)
 11: 0x09CB [0x45] LOAD_SCHEDULED_TASK: Load scheduler "fdo0" with entities [EventEntity, EventEntity], work=[200*, 0*]
 12: 0x09DC [0x55] WAIT_LOAD_SCHEDULER: Wait for scheduler "fdo0" with entities [EventEntity, EventEntity], work=200*
 13: 0x09EB [0xBA] SET_ENTITY_POSITION(entity_id=LocalPlayer, pos_x=Work_Zone[5], pos_z=Work_Zone[6], pos_y=Work_Zone[7], direction=Work_Zone[8])
 14: 0x09F8 [0x1A] CALL_SUBROUTINE(address=0x0AD8)
 15: 0x09FB [0x1A] CALL_SUBROUTINE(address=0x0B36)
 16: 0x09FE [0x38] SET_CLIENT_EVENT_MODE(mode=19*)
 17: 0x0A01 [0x1A] CALL_SUBROUTINE(address=0x0B7B)
 18: 0x0A04 [0x03] Work_Zone[5] = Work_Zone[2]
 19: 0x0A09 [0x03] Work_Zone[6] = Work_Zone[2]
 20: 0x0A0E [0x03] Work_Zone[7] = Work_Zone[2]
 21: 0x0A13 [0x15] Work_Zone[5] /= 144*
 22: 0x0A18 [0x15] Work_Zone[6] /= 60*
 23: 0x0A1D [0x3F] Work_Zone[7] = Work_Zone[7] % 60*
 24: 0x0A24 [0x1A] CALL_SUBROUTINE(address=0x0D9A)
 25: 0x0A27 [0x1A] CALL_SUBROUTINE(address=0x0BBB)
 26: 0x0A2A [0x45] LOAD_SCHEDULED_TASK: Load scheduler "fdi1" with entities [EventEntity, EventEntity], work=[200*, 0*]
 27: 0x0A3B [0x1C] WAIT(180* ticks)
 28: 0x0A3E [0x1A] CALL_SUBROUTINE(address=0x0D54)
 29: 0x0A41 [0x1A] CALL_SUBROUTINE(address=0x0BF8)
 30: 0x0A44 [0x1C] WAIT(60* ticks)
 31: 0x0A47 [0x1A] CALL_SUBROUTINE(address=0x0C32)
 32: 0x0A4A [0x02] IF !(ExtData[1]->WorkLocal[6] == 0*) GOTO 0x0A5B
 33: 0x0A52 [0x1C] WAIT(60* ticks)
 34: 0x0A55 [0x1A] CALL_SUBROUTINE(address=0x0C6C)
 35: 0x0A58 [0x01] GOTO 0x0A9D
 36: 0x0A5B [0x1C] WAIT(60* ticks)
 37: 0x0A5E [0x1A] CALL_SUBROUTINE(address=0x0CA6)
 38: 0x0A61 [0x02] IF !(Work_Zone[3] == 0*) GOTO 0x0A9D
 39: 0x0A69 [0x03] Work_Zone[5] = Work_Zone[3]
 40: 0x0A6E [0x03] Work_Zone[6] = Work_Zone[3]
 41: 0x0A73 [0x03] Work_Zone[7] = Work_Zone[3]
 42: 0x0A78 [0x15] Work_Zone[5] /= 144*
 43: 0x0A7D [0x15] Work_Zone[6] /= 60*
 44: 0x0A82 [0x3F] Work_Zone[7] = Work_Zone[7] % 60*
 45: 0x0A89 [0x1C] WAIT(60* ticks)
 46: 0x0A8C [0x02] IF !(ExtData[1]->WorkLocal[5] == 0*) GOTO 0x0A9A
 47: 0x0A94 [0x1A] CALL_SUBROUTINE(address=0x0CE0)
 48: 0x0A97 [0x01] GOTO 0x0A9D
 49: 0x0A9A [0x1A] CALL_SUBROUTINE(address=0x0D1A)

SUBROUTINE_0A9D:
 50: 0x0A9D [0x1C] WAIT(60* ticks)
 51: 0x0AA0 [0x1A] CALL_SUBROUTINE(address=0x0DAC)
 52: 0x0AA3 [0x45] LOAD_SCHEDULED_TASK: Load scheduler "fdo1" with entities [EventEntity, EventEntity], work=[200*, 0*]
 53: 0x0AB4 [0x55] WAIT_LOAD_SCHEDULER: Wait for scheduler "fdo1" with entities [EventEntity, EventEntity], work=200*
 54: 0x0AC3 [0x46] CAMERA_CONTROL: Restore default settings
 55: 0x0AC5 [0x45] LOAD_SCHEDULED_TASK: Load scheduler "fdi2" with entities [EventEntity, EventEntity], work=[200*, 0*]
 56: 0x0AD6 [0x21] END_EVENT
 57: 0x0AD7 [0x00] END_REQSTACK()

SUBROUTINE_0AD8:
 58: 0x0AD8 [0x02] IF !(ExtData[1]->WorkLocal[7] == 1*) GOTO 0x0AF5
 59: 0x0AE0 [0x4E] SET_ENTITY_HIDE_FLAG: Show Hedioste, R.K. (ID: 17150718/0x0105B2FE)
 60: 0x0AE6 [0x92] Hedioste, R.K. (ID: 17150718/0x0105B2FE)->Render.Flags3 ^= 0x01
 61: 0x0AEC [0x4E] SET_ENTITY_HIDE_FLAG: Show Unnamed NPC (ID: 17150721/0x0105B301)
 62: 0x0AF2 [0x01] GOTO 0x0B2F
 63: 0x0AF5 [0x02] IF !(ExtData[1]->WorkLocal[7] == 2*) GOTO 0x0B12
 64: 0x0AFD [0x4E] SET_ENTITY_HIDE_FLAG: Show Wayward Echo, L.C. (ID: 17150719/0x0105B2FF)
 65: 0x0B03 [0x92] Wayward Echo, L.C. (ID: 17150719/0x0105B2FF)->Render.Flags3 ^= 0x01
 66: 0x0B09 [0x4E] SET_ENTITY_HIDE_FLAG: Show Unnamed NPC (ID: 17150722/0x0105B302)
 67: 0x0B0F [0x01] GOTO 0x0B2F
 68: 0x0B12 [0x02] IF !(ExtData[1]->WorkLocal[7] == 3*) GOTO 0x0B2F
 69: 0x0B1A [0x4E] SET_ENTITY_HIDE_FLAG: Show Nori Kharoiro, M.C. (ID: 17150720/0x0105B300)
 70: 0x0B20 [0x92] Nori Kharoiro, M.C. (ID: 17150720/0x0105B300)->Render.Flags3 ^= 0x01
 71: 0x0B26 [0x4E] SET_ENTITY_HIDE_FLAG: Show Unnamed NPC (ID: 17150723/0x0105B303)
 72: 0x0B2C [0x01] GOTO 0x0B2F

SUBROUTINE_0B2F:
 73: 0x0B2F [0x4E] SET_ENTITY_HIDE_FLAG: Show Unnamed NPC (ID: 17150816/0x0105B360)
 74: 0x0B35 [0x1B] RETURN

SUBROUTINE_0B36:
 75: 0x0B36 [0x02] IF !(ExtData[1]->WorkLocal[7] == 1*) GOTO 0x0B4B
 76: 0x0B3E [0x80] LOAD_WAIT(entity=Hedioste, R.K. (ID: 17150718/0x0105B2FE))
 77: 0x0B43 [0x80] LOAD_WAIT(entity=Unnamed NPC (ID: 17150721/0x0105B301))
 78: 0x0B48 [0x01] GOTO 0x0B75
 79: 0x0B4B [0x02] IF !(ExtData[1]->WorkLocal[7] == 2*) GOTO 0x0B60
 80: 0x0B53 [0x80] LOAD_WAIT(entity=Wayward Echo, L.C. (ID: 17150719/0x0105B2FF))
 81: 0x0B58 [0x80] LOAD_WAIT(entity=Unnamed NPC (ID: 17150722/0x0105B302))
 82: 0x0B5D [0x01] GOTO 0x0B75
 83: 0x0B60 [0x02] IF !(ExtData[1]->WorkLocal[7] == 3*) GOTO 0x0B75
 84: 0x0B68 [0x80] LOAD_WAIT(entity=Nori Kharoiro, M.C. (ID: 17150720/0x0105B300))
 85: 0x0B6D [0x80] LOAD_WAIT(entity=Unnamed NPC (ID: 17150723/0x0105B303))
 86: 0x0B72 [0x01] GOTO 0x0B75

SUBROUTINE_0B75:
 87: 0x0B75 [0x80] LOAD_WAIT(entity=Unnamed NPC (ID: 17150816/0x0105B360))
 88: 0x0B7A [0x1B] RETURN

SUBROUTINE_0B7B:
 89: 0x0B7B [0x02] IF !(ExtData[1]->WorkLocal[7] == 2*) GOTO 0x0B90
 90: 0x0B83 [0x79] LocalPlayer looks at Hedioste, R.K. (ID: 17150718/0x0105B2FE) (Basic look)
 91: 0x0B8D [0x01] GOTO 0x0BBA
 92: 0x0B90 [0x02] IF !(ExtData[1]->WorkLocal[7] == 3*) GOTO 0x0BA5
 93: 0x0B98 [0x79] LocalPlayer looks at Wayward Echo, L.C. (ID: 17150719/0x0105B2FF) (Basic look)
 94: 0x0BA2 [0x01] GOTO 0x0BBA
 95: 0x0BA5 [0x02] IF !(ExtData[1]->WorkLocal[7] == 4*) GOTO 0x0BBA
 96: 0x0BAD [0x79] LocalPlayer looks at Nori Kharoiro, M.C. (ID: 17150720/0x0105B300) (Basic look)
 97: 0x0BB7 [0x01] GOTO 0x0BBA

SUBROUTINE_0BBA:
 98: 0x0BBA [0x1B] RETURN

SUBROUTINE_0BBB:
 99: 0x0BBB [0x02] IF !(ExtData[1]->WorkLocal[7] == 1*) GOTO 0x0BCF
100: 0x0BC3 [0x4A] Hedioste, R.K. (ID: 17150718/0x0105B2FE) looks at LocalPlayer
101: 0x0BCC [0x01] GOTO 0x0BF7
102: 0x0BCF [0x02] IF !(ExtData[1]->WorkLocal[7] == 2*) GOTO 0x0BE3
103: 0x0BD7 [0x4A] Wayward Echo, L.C. (ID: 17150719/0x0105B2FF) looks at LocalPlayer
104: 0x0BE0 [0x01] GOTO 0x0BF7
105: 0x0BE3 [0x02] IF !(ExtData[1]->WorkLocal[7] == 3*) GOTO 0x0BF7
106: 0x0BEB [0x4A] Nori Kharoiro, M.C. (ID: 17150720/0x0105B300) looks at LocalPlayer
107: 0x0BF4 [0x01] GOTO 0x0BF7

SUBROUTINE_0BF7:
108: 0x0BF7 [0x1B] RETURN

SUBROUTINE_0BF8:
109: 0x0BF8 [0x02] IF !(ExtData[1]->WorkLocal[7] == 1*) GOTO 0x0C0B
110: 0x0C00 [0x2B] Hedioste, R.K. (ID: 17150718/0x0105B2FE) [7449*]:
    → "Ah, you must be <Player>. We've been expecting you."
111: 0x0C07 [0x23] WAIT_FOR_DIALOG_INTERACTION
112: 0x0C08 [0x01] GOTO 0x0C31
113: 0x0C0B [0x02] IF !(ExtData[1]->WorkLocal[7] == 2*) GOTO 0x0C1E
114: 0x0C13 [0x2B] Wayward Echo, L.C. (ID: 17150719/0x0105B2FF) [7449*]:
    → "Ah, you must be <Player>. We've been expecting you."
115: 0x0C1A [0x23] WAIT_FOR_DIALOG_INTERACTION
116: 0x0C1B [0x01] GOTO 0x0C31
117: 0x0C1E [0x02] IF !(ExtData[1]->WorkLocal[7] == 3*) GOTO 0x0C31
118: 0x0C26 [0x2B] Nori Kharoiro, M.C. (ID: 17150720/0x0105B300) [7449*]:
    → "Ah, you must be <Player>. We've been expecting you."
119: 0x0C2D [0x23] WAIT_FOR_DIALOG_INTERACTION
120: 0x0C2E [0x01] GOTO 0x0C31

SUBROUTINE_0C31:
121: 0x0C31 [0x1B] RETURN

SUBROUTINE_0C32:
122: 0x0C32 [0x02] IF !(ExtData[1]->WorkLocal[7] == 1*) GOTO 0x0C45
123: 0x0C3A [0x2B] Hedioste, R.K. (ID: 17150718/0x0105B2FE) [7450*]:
    → "The delivery took you $3 [hour/hours] ($4 [minute/minutes] and $5 [second/seconds] Earth time)."
124: 0x0C41 [0x23] WAIT_FOR_DIALOG_INTERACTION
125: 0x0C42 [0x01] GOTO 0x0C6B
126: 0x0C45 [0x02] IF !(ExtData[1]->WorkLocal[7] == 2*) GOTO 0x0C58
127: 0x0C4D [0x2B] Wayward Echo, L.C. (ID: 17150719/0x0105B2FF) [7450*]:
    → "The delivery took you $3 [hour/hours] ($4 [minute/minutes] and $5 [second/seconds] Earth time)."
128: 0x0C54 [0x23] WAIT_FOR_DIALOG_INTERACTION
129: 0x0C55 [0x01] GOTO 0x0C6B
130: 0x0C58 [0x02] IF !(ExtData[1]->WorkLocal[7] == 3*) GOTO 0x0C6B
131: 0x0C60 [0x2B] Nori Kharoiro, M.C. (ID: 17150720/0x0105B300) [7450*]:
    → "The delivery took you $3 [hour/hours] ($4 [minute/minutes] and $5 [second/seconds] Earth time)."
132: 0x0C67 [0x23] WAIT_FOR_DIALOG_INTERACTION
133: 0x0C68 [0x01] GOTO 0x0C6B

SUBROUTINE_0C6B:
134: 0x0C6B [0x1B] RETURN

SUBROUTINE_0C6C:
135: 0x0C6C [0x02] IF !(ExtData[1]->WorkLocal[7] == 1*) GOTO 0x0C7F
136: 0x0C74 [0x2B] Hedioste, R.K. (ID: 17150718/0x0105B2FE) [7452*]:
    → "While you were dawdling your way here, a separate shipment of construction materials was delivered to us. We shan't be requiring anymore."
137: 0x0C7B [0x23] WAIT_FOR_DIALOG_INTERACTION
138: 0x0C7C [0x01] GOTO 0x0CA5
139: 0x0C7F [0x02] IF !(ExtData[1]->WorkLocal[7] == 2*) GOTO 0x0C92
140: 0x0C87 [0x2B] Wayward Echo, L.C. (ID: 17150719/0x0105B2FF) [7452*]:
    → "While you were dawdling your way here, a separate shipment of construction materials was delivered to us. We shan't be requiring anymore."
141: 0x0C8E [0x23] WAIT_FOR_DIALOG_INTERACTION
142: 0x0C8F [0x01] GOTO 0x0CA5
143: 0x0C92 [0x02] IF !(ExtData[1]->WorkLocal[7] == 3*) GOTO 0x0CA5
144: 0x0C9A [0x2B] Nori Kharoiro, M.C. (ID: 17150720/0x0105B300) [7452*]:
    → "While you were dawdling your way here, a separate shipment of construction materials was delivered to us. We shan't be requiring anymore."
145: 0x0CA1 [0x23] WAIT_FOR_DIALOG_INTERACTION
146: 0x0CA2 [0x01] GOTO 0x0CA5

SUBROUTINE_0CA5:
147: 0x0CA5 [0x1B] RETURN

SUBROUTINE_0CA6:
148: 0x0CA6 [0x02] IF !(ExtData[1]->WorkLocal[7] == 1*) GOTO 0x0CB9
149: 0x0CAE [0x2B] Hedioste, R.K. (ID: 17150718/0x0105B2FE) [7453*]:
    → "I commend you on your expeditiousness. Thanks to you, the construction work on our provision storehouse here can proceed as planned."
150: 0x0CB5 [0x23] WAIT_FOR_DIALOG_INTERACTION
151: 0x0CB6 [0x01] GOTO 0x0CDF
152: 0x0CB9 [0x02] IF !(ExtData[1]->WorkLocal[7] == 2*) GOTO 0x0CCC
153: 0x0CC1 [0x2B] Wayward Echo, L.C. (ID: 17150719/0x0105B2FF) [7453*]:
    → "I commend you on your expeditiousness. Thanks to you, the construction work on our provision storehouse here can proceed as planned."
154: 0x0CC8 [0x23] WAIT_FOR_DIALOG_INTERACTION
155: 0x0CC9 [0x01] GOTO 0x0CDF
156: 0x0CCC [0x02] IF !(ExtData[1]->WorkLocal[7] == 3*) GOTO 0x0CDF
157: 0x0CD4 [0x2B] Nori Kharoiro, M.C. (ID: 17150720/0x0105B300) [7453*]:
    → "I commend you on your expeditiousness. Thanks to you, the construction work on our provision storehouse here can proceed as planned."
158: 0x0CDB [0x23] WAIT_FOR_DIALOG_INTERACTION
159: 0x0CDC [0x01] GOTO 0x0CDF

SUBROUTINE_0CDF:
160: 0x0CDF [0x1B] RETURN

SUBROUTINE_0CE0:
161: 0x0CE0 [0x02] IF !(ExtData[1]->WorkLocal[7] == 1*) GOTO 0x0CF3
162: 0x0CE8 [0x2B] Hedioste, R.K. (ID: 17150718/0x0105B2FE) [7454*]:
    → "So you have something to aspire to, the quickest delivery thus far was made by %0. That indefatigable soldier traversed the same course as you in just $3 [hour/hours] ($4 [minute/minutes] and $5 [second/seconds] Earth time)."
163: 0x0CEF [0x23] WAIT_FOR_DIALOG_INTERACTION
164: 0x0CF0 [0x01] GOTO 0x0D19
165: 0x0CF3 [0x02] IF !(ExtData[1]->WorkLocal[7] == 2*) GOTO 0x0D06
166: 0x0CFB [0x2B] Wayward Echo, L.C. (ID: 17150719/0x0105B2FF) [7454*]:
    → "So you have something to aspire to, the quickest delivery thus far was made by %0. That indefatigable soldier traversed the same course as you in just $3 [hour/hours] ($4 [minute/minutes] and $5 [second/seconds] Earth time)."
167: 0x0D02 [0x23] WAIT_FOR_DIALOG_INTERACTION
168: 0x0D03 [0x01] GOTO 0x0D19
169: 0x0D06 [0x02] IF !(ExtData[1]->WorkLocal[7] == 3*) GOTO 0x0D19
170: 0x0D0E [0x2B] Nori Kharoiro, M.C. (ID: 17150720/0x0105B300) [7454*]:
    → "So you have something to aspire to, the quickest delivery thus far was made by %0. That indefatigable soldier traversed the same course as you in just $3 [hour/hours] ($4 [minute/minutes] and $5 [second/seconds] Earth time)."
171: 0x0D15 [0x23] WAIT_FOR_DIALOG_INTERACTION
172: 0x0D16 [0x01] GOTO 0x0D19

SUBROUTINE_0D19:
173: 0x0D19 [0x1B] RETURN

SUBROUTINE_0D1A:
174: 0x0D1A [0x02] IF !(ExtData[1]->WorkLocal[7] == 1*) GOTO 0x0D2D
175: 0x0D22 [0x2B] Hedioste, R.K. (ID: 17150718/0x0105B2FE) [7455*]:
    → "You're the current quickest delivery record holder, with a lightning-fast time of $3 [hour/hours] ($4 [minute/minutes] and $5 [second/seconds] Earth time). But that's no excuse to slack off, you hear?"
176: 0x0D29 [0x23] WAIT_FOR_DIALOG_INTERACTION
177: 0x0D2A [0x01] GOTO 0x0D53
178: 0x0D2D [0x02] IF !(ExtData[1]->WorkLocal[7] == 2*) GOTO 0x0D40
179: 0x0D35 [0x2B] Wayward Echo, L.C. (ID: 17150719/0x0105B2FF) [7455*]:
    → "You're the current quickest delivery record holder, with a lightning-fast time of $3 [hour/hours] ($4 [minute/minutes] and $5 [second/seconds] Earth time). But that's no excuse to slack off, you hear?"
180: 0x0D3C [0x23] WAIT_FOR_DIALOG_INTERACTION
181: 0x0D3D [0x01] GOTO 0x0D53
182: 0x0D40 [0x02] IF !(ExtData[1]->WorkLocal[7] == 3*) GOTO 0x0D53
183: 0x0D48 [0x2B] Nori Kharoiro, M.C. (ID: 17150720/0x0105B300) [7455*]:
    → "You're the current quickest delivery record holder, with a lightning-fast time of $3 [hour/hours] ($4 [minute/minutes] and $5 [second/seconds] Earth time). But that's no excuse to slack off, you hear?"
184: 0x0D4F [0x23] WAIT_FOR_DIALOG_INTERACTION
185: 0x0D50 [0x01] GOTO 0x0D53

SUBROUTINE_0D53:
186: 0x0D53 [0x1B] RETURN

SUBROUTINE_0D54:
187: 0x0D54 [0x02] IF !(ExtData[1]->WorkLocal[7] == 1*) GOTO 0x0D6B
188: 0x0D5C [0x6E] Hedioste, R.K. (ID: 17150718/0x0105B2FE) uses emote 2*
189: 0x0D63 [0x99] Wait for Hedioste, R.K. (ID: 17150718/0x0105B2FE) animation to complete
190: 0x0D68 [0x01] GOTO 0x0D99
191: 0x0D6B [0x02] IF !(ExtData[1]->WorkLocal[7] == 2*) GOTO 0x0D82
192: 0x0D73 [0x6E] Wayward Echo, L.C. (ID: 17150719/0x0105B2FF) uses emote 258*
193: 0x0D7A [0x99] Wait for Wayward Echo, L.C. (ID: 17150719/0x0105B2FF) animation to complete
194: 0x0D7F [0x01] GOTO 0x0D99
195: 0x0D82 [0x02] IF !(ExtData[1]->WorkLocal[7] == 3*) GOTO 0x0D99
196: 0x0D8A [0x6E] Nori Kharoiro, M.C. (ID: 17150720/0x0105B300) uses emote 514*
197: 0x0D91 [0x99] Wait for Nori Kharoiro, M.C. (ID: 17150720/0x0105B300) animation to complete
198: 0x0D96 [0x01] GOTO 0x0D99

SUBROUTINE_0D99:
199: 0x0D99 [0x1B] RETURN

SUBROUTINE_0D9A:
200: 0x0D9A [0x45] LOAD_SCHEDULED_TASK: Load scheduler "c091" with entities [LocalPlayer, LocalPlayer], work=[342*, 0*]
201: 0x0DAB [0x1B] RETURN

SUBROUTINE_0DAC:
202: 0x0DAC [0x52] END_LOAD_SCHEDULER: End scheduler "c091" with entities [LocalPlayer, LocalPlayer], work=342*
203: 0x0DBB [0x1B] RETURN
```
