# Event 5513

## Metadata

| Field           | Value     |
|-----------------|-----------|
| Event Index     | 10/10     |
| Offset          | 0x22C5    |
| Data Size       | 964 bytes |
| Calculated Size | 964 bytes |
| Instructions    | 23        |

```
      00 01 02 03 04 05 06 07  08 09 0A 0B 0C 0D 0E 0F
      -- -- -- -- -- -- -- --  -- -- -- -- -- -- -- --
22C0:                1E F0 FF  FF 7F 06 01 00 06 02 00       ...........
22D0: 06 1F 00 06 05 00 03 01  00 02 10 03 02 00 03 10  ................
22E0: 03 06 00 05 10 0B 06 00  3C 05 00 09 10 0C 80 10  ........<.......
22F0: 05 00 2A 80 1A 0E 1C 9D  00 59 26 10 00 41 00 03  ..*......Y&..A..
2300: 02 10 05 10 1D 3F 81 23  03 02 10 10 00 1D 40 81  .....?.#......@.
2310: 23 1A 4E 1C 1A 6A 16 21  00 06 80 07 80 32 80 35  #.N..j.!.....2.5
2320: 80 28 80 29 80 34 80 FE  80 03 81 39 80 0B 81 06  .(.).4.....9....
2330: 80 06 80 11 81 1A 81 06  80 0C 80 31 80 30 80 33  ...........1.0.3
2340: 80 0F 80 0A 80 FC 80 DD  80 38 80 09 81 0F 81 06  .........8......
2350: 80 06 80 18 81 41 81 06  80 03 10 04 10 05 10 06  .....A..........
2360: 10 07 10 08 10 09 10 00  17 01 17 02 17 03 17 04  ................
2370: 17 05 17 06 17 07 17 08  17 09 17 0A 17 0B 17 0C  ................
2380: 17 06 80 06 80 06 80 06  80 24 00 25 00 26 00 27  .........$.%.&.'
2390: 00 28 00 29 00 2A 00 2B  00 2C 00 2D 00 2E 00 2F  .(.).*.+.,.-.../
23A0: 00 30 00 31 00 32 00 33  00 34 00 35 00 36 00 37  .0.1.2.3.4.5.6.7
23B0: 00 06 80 06 80 06 80 06  80 33 80 06 80 07 80 0C  .........3......
23C0: 80 06 80 07 80 0C 80 32  80 32 80 06 80 09 80 35  .......2.2.....5
23D0: 80 32 80 32 80 06 80 35  80 06 80 2A 80 33 80 06  .2.2...5...*.3..
23E0: 80 33 80 35 80 32 80 0C  80 06 80 06 80 0C 80 06  .3.5.2..........
23F0: 80 32 80 30 80 06 80 0C  80 07 80 08 80 30 80 06  .2.0.........0..
2400: 80 08 80 32 80 31 80 33  80 06 80 06 80 06 80 06  ...2.1.3........
2410: 80 06 80 06 80 06 80 06  80 26 80 06 80 08 80 07  .........&......
2420: 80 06 80 32 80 06 80 09  80 33 80 06 80 33 80 0A  ...2.....3...3..
2430: 80 35 80 33 80 06 80 2D  80 06 80 36 80 26 80 06  .5.3...-...6.&..
2440: 80 09 80 0A 80 33 80 07  80 06 80 06 80 07 80 06  .....3..........
2450: 80 33 80 29 80 06 80 07  80 08 80 2A 80 29 80 06  .3.).......*.)..
2460: 80 2A 80 36 80 30 80 26  80 06 80 06 80 06 80 06  .*.6.0.&........
2470: 80 06 80 06 80 06 80 06  80 06 80 06 80 31 80 08  .............1..
2480: 80 06 80 06 80 06 80 05  81 09 80 06 80 32 80 E4  .............2..
2490: 80 2D 80 06 80 06 80 06  80 06 80 06 80 05 81 06  .-..............
24A0: 80 BA 80 E4 80 06 80 06  80 06 80 06 80 08 80 06  ................
24B0: 80 09 80 05 81 06 80 31  80 31 80 36 80 05 81 06  .......1.1.6....
24C0: 80 33 80 0F 80 33 80 02  81 06 80 06 80 06 80 06  .3...3..........
24D0: 80 06 80 06 80 06 80 06  80 06 80 06 80 06 80 06  ................
24E0: 80 06 80 06 80 06 80 06  80 42 81 06 80 06 80 06  .........B......
24F0: 80 06 80 06 80 06 80 06  80 06 80 06 80 06 80 06  ................
2500: 80 06 80 06 80 06 80 06  80 06 80 06 80 06 80 06  ................
2510: 80 06 80 06 80 06 80 06  80 06 80 43 81 06 80 06  ...........C....
2520: 80 06 80 06 80 0C 80 06  80 06 80 06 80 06 80 06  ................
2530: 80 06 80 06 80 06 80 06  80 44 81 45 81 46 81 47  .........D.E.F.G
2540: 81 48 81 49 81 4A 81 4B  81 4C 81 4D 81 4E 81 4F  .H.I.J.K.L.M.N.O
2550: 81 50 81 51 81 52 81 53  81 54 81 55 81 56 81 57  .P.Q.R.S.T.U.V.W
2560: 81 58 81 59 81 5A 81 5B  81 5C 81 5D 81 5E 81 5F  .X.Y.Z.[.\.].^._
2570: 81 60 81 61 81 62 81 63  81 64 81 65 81 66 81 67  .`.a.b.c.d.e.f.g
2580: 81 68 81 69 81 6A 81 6B  81 6C 81 6D 81 6E 81 6F  .h.i.j.k.l.m.n.o
2590: 81 70 81 71 81 06 80 06  80 33 80 33 80 72 81 72  .p.q.....3.3.r.r
25A0: 81 72 81 72 81 72 81 72  81 73 81 73 81 73 81 73  .r.r.r.r.s.s.s.s
25B0: 81 73 81 73 81 74 81 74  81 74 81 75 81 75 81 75  .s.s.t.t.t.u.u.u
25C0: 81 75 81 76 81 77 81 77  81 77 81 78 81 79 81 7A  .u.v.w.w.w.x.y.z
25D0: 81 7A 81 7A 81 7B 81 7B  81 7B 81 7C 81 7C 81 7C  .z.z.{.{.{.|.|.|
25E0: 81 7D 81 75 81 76 81 75  81 75 81 7E 81 7E 81 77  .}.u.v.u.u.~.~.w
25F0: 81 77 81 77 81 06 80 06  80 06 80 C0 80 C1 80 C2  .w.w............
2600: 80 C3 80 C4 80 CA 80 CB  80 CC 80 06 80 06 80 06  ................
2610: 80 06 80 06 80 06 80 06  80 06 80 C5 80 C6 80 C7  ................
2620: 80 C8 80 C9 80 CD 80 CE  80 CF 80 06 80 06 80 06  ................
2630: 80 06 80 06 80 06 80 06  80 06 80 07 80 08 80 31  ...............1
2640: 80 32 80 2A 80 2D 80 0F  80 29 80 06 80 06 80 06  .2.*.-...)......
2650: 80 06 80 06 80 06 80 06  80 06 80 9F 80 A0 80 A1  ................
2660: 80 A2 80 A3 80 06 80 06  80 06 80 06 80 06 80 06  ................
2670: 80 06 80 06 80 06 80 06  80 75 81 79 81 7E 81 7F  .........u.y.~..
2680: 81 7D 81 78 81 77 81 80  81                       .}.x.w...       
```

## Opcodes

```
  0: 0x22C5 [0x1E] EventEntity looks at LocalPlayer and starts talking
  1: 0x22CA [0x06] ExtData[1]->WorkLocal[1] = 0
  2: 0x22CD [0x06] ExtData[1]->WorkLocal[2] = 0
  3: 0x22D0 [0x06] ExtData[1]->WorkLocal[31] = 0
  4: 0x22D3 [0x06] ExtData[1]->WorkLocal[5] = 0
  5: 0x22D6 [0x03] ExtData[1]->WorkLocal[1] = Work_Zone[2]
  6: 0x22DB [0x03] ExtData[1]->WorkLocal[2] = Work_Zone[3]
  7: 0x22E0 [0x03] ExtData[1]->WorkLocal[6] = Work_Zone[5]
  8: 0x22E5 [0x0B] ExtData[1]->WorkLocal[6]++
  9: 0x22E8 [0x3C] SET_BIT_FLAG_CONDITIONAL(target_work_offset=ExtData[1]->WorkLocal[5], bit_index_work_offset=Work_Zone[9], condition_work_offset=1*)
 10: 0x22EF [0x10] ExtData[1]->WorkLocal[5] <<= 6*
 11: 0x22F4 [0x1A] CALL_SUBROUTINE(address=0x1C0E)
 12: 0x22F7 [0x9D] ExtData[1]->WorkLocal[16] = 0x2659[ExtData[1]->WorkLocal[65]] // Read WORD
 13: 0x22FF [0x03] Work_Zone[2] = Work_Zone[5]
 14: 0x2304 [0x1D] PRINT_EVENT_MESSAGE(message_id=13469*)
    → "What do we have here?\u0007This grimoire already seems to contain feats from expeditions under \u000C\u0000[Sauromugue Champaign/Batallia Downs].\u007F1\u0000\u0007"
 15: 0x2307 [0x23] WAIT_FOR_DIALOG_INTERACTION
 16: 0x2308 [0x03] Work_Zone[2] = ExtData[1]->WorkLocal[16]
 17: 0x230D [0x1D] PRINT_EVENT_MESSAGE(message_id=13543*)
    → "\u007F\u0000\u0001\u0001\u0001\u0001 \u0001\u0005$\u0002\u0000\u0000\u0000, huh? That'll grant you the following effects:\u007F1\u0000\u0007"
 18: 0x2310 [0x23] WAIT_FOR_DIALOG_INTERACTION
 19: 0x2311 [0x1A] CALL_SUBROUTINE(address=0x1C4E)
 20: 0x2314 [0x1A] CALL_SUBROUTINE(address=0x166A)
 21: 0x2317 [0x21] END_EVENT
 22: 0x2318 [0x00] END_REQSTACK()
```

## Data or dead code:

```
# Dead code (unreachable instructions):
     0x2319 [0x06] 0x0780 = 0
     0x231C [0x80] LOAD_WAIT(entity=Unknown NPC (ID: 2150989874/0x80358032))
     0x2321 [0x28] REQ_SET_WITH_CONDITIONS(priority=0x80, target_entity=Unknown NPC (ID: 2150924329/0x80348029), tag_num=0xFE)
     0x2328 [0x80] LOAD_WAIT(entity=Unknown NPC (ID: 2151252227/0x80398103))
     0x232D [0x0B] 0x0681++
     0x2330 [0x80] LOAD_WAIT(entity=Unknown NPC (ID: 2165407750/0x81118006))
     0x2335 [0x1A] CALL_SUBROUTINE(address=0x0681)
     0x2338 [0x80] LOAD_WAIT(entity=Unknown NPC (ID: 2150727692/0x8031800C))
     0x233D [0x30] SET_UCOFF_CONTINUE_ZERO()
     0x233E [0x80] LOAD_WAIT(entity=Unknown NPC (ID: 2148499507/0x800F8033))
     0x2343 [0x0A] 0xFC80 &= ~(1 << 0xDD80)
     0x2348 [0x80] LOAD_WAIT(entity=Unknown NPC (ID: 2164883512/0x81098038))
     0x234D [0x0F] 0x0681 ^= 0x0680
     0x2352 [0x80] LOAD_WAIT(entity=Unknown NPC (ID: 2168553752/0x81418118))
     0x2357 [0x06] 0x0380 = 0
     0x235A [0x10] Work_Zone[4] <<= Work_Zone[5]
     0x235F [0x06] 0x0710 = 0
     0x2362 [0x10] Work_Zone[8] <<= Work_Zone[9]
     0x2367 [0x00] END_REQSTACK()
     0x2368 [0x17] Work_Zone_1700[1] = cos(Work_Zone_1700[2]) * Work_Zone_1700[3]
     0x236F [0x04] DEPRECATED_NOP(unused=0x0517)
     0x2372 [0x17] Work_Zone_1700[6] = cos(Work_Zone_1700[7]) * Work_Zone_1700[8]
     0x2379 [0x09] 0x0A17 |= (1 << 0x0B17)
     0x237E [0x17] Work_Zone_1700[12] = cos(0*) * 0*
     0x2385 [0x06] 0x0680 = 0
     0x2388 [0x80] LOAD_WAIT(entity=Unknown NPC (ID: 2424868/0x00250024))
     0x238D [0x26] DEPRECATED_YIELD
     0x238E [0x00] END_REQSTACK()
     0x238F [0x27] REQ_SET(priority=0x00, entity_id=Unknown NPC (ID: 2687016/0x00290028), tag_num=0x2A)
     0x2396 [0x00] END_REQSTACK()
     0x2397 [0x2B] Unknown NPC (ID: 754985984/0x2D002C00) [0x2E00]:
     0x239E [0x00] END_REQSTACK()
     0x239F [0x2F] Unknown NPC (ID: 3211312/0x00310030)->Render.Flags0 &= ~0x80000 // Bit 19
     0x23A5 [0x32] ExtData[1]->MainSpeed = 0x3300 * 0.1
     0x23A8 [0x00] END_REQSTACK()
     0x23A9 [0x34] LOAD_UNLOAD_ZONE(zone_id=0x3500)
     0x23AC [0x00] END_REQSTACK()
     0x23AD [0x36] SET_ENTITY_EVENT_POSITION(pos_x=0x3700, pos_z=0x0600, pos_y=0x0680)
     0x23B4 [0x80] LOAD_WAIT(entity=Unknown NPC (ID: 2147909638/0x80068006))
     0x23B9 [0x33] EventEntity->Render.Flags0 ^= 0x200000 // Bit 21 (flag=0x80)
     0x23BB [0x06] 0x0780 = 0
     0x23BE [0x80] LOAD_WAIT(entity=Unknown NPC (ID: 2147909644/0x8006800C))
     0x23C3 [0x07] 0x0C80 += 0x3280
     0x23C8 [0x80] LOAD_WAIT(entity=Unknown NPC (ID: 2147909682/0x80068032))
     0x23CD [0x09] 0x3580 |= (1 << 0x3280)
     0x23D2 [0x80] LOAD_WAIT(entity=Unknown NPC (ID: 2147909682/0x80068032))
     0x23D7 [0x35] LOAD_ZONE_NO_CLOSE(zone_id=0x0680)
     0x23DA [0x80] LOAD_WAIT(entity=Unknown NPC (ID: 2150858794/0x8033802A))
     0x23DF [0x06] 0x3380 = 0
     0x23E2 [0x80] LOAD_WAIT(entity=Unknown NPC (ID: 2150793269/0x80328035))
     0x23E7 [0x0C] 0x0680--
     0x23EA [0x80] LOAD_WAIT(entity=Unknown NPC (ID: 2148302854/0x800C8006))
     0x23EF [0x06] 0x3280 = 0
     0x23F2 [0x80] LOAD_WAIT(entity=Unknown NPC (ID: 2147909680/0x80068030))
     0x23F7 [0x0C] 0x0780--
     0x23FA [0x80] LOAD_WAIT(entity=Unknown NPC (ID: 2150662152/0x80308008))
     0x23FF [0x06] 0x0880 = 0
     0x2402 [0x80] LOAD_WAIT(entity=Unknown NPC (ID: 2150727730/0x80318032))
     0x2407 [0x33] EventEntity->Render.Flags0 ^= 0x200000 // Bit 21 (flag=0x80)
     0x2409 [0x06] 0x0680 = 0
     0x240C [0x80] LOAD_WAIT(entity=Unknown NPC (ID: 2147909638/0x80068006))
     0x2411 [0x06] 0x0680 = 0
     0x2414 [0x80] LOAD_WAIT(entity=Unknown NPC (ID: 2147909638/0x80068006))
     0x2419 [0x26] DEPRECATED_YIELD
     0x241A [0x80] LOAD_WAIT(entity=Unknown NPC (ID: 2148040710/0x80088006))
     0x241F [0x07] 0x0680 += 0x3280
     0x2424 [0x80] LOAD_WAIT(entity=Unknown NPC (ID: 2148106246/0x80098006))
     0x2429 [0x33] EventEntity->Render.Flags0 ^= 0x200000 // Bit 21 (flag=0x80)
     0x242B [0x06] 0x3380 = 0
     0x242E [0x80] LOAD_WAIT(entity=Unknown NPC (ID: 2150989834/0x8035800A))
     0x2433 [0x33] EventEntity->Render.Flags0 ^= 0x200000 // Bit 21 (flag=0x80)
     0x2435 [0x06] 0x2D80 = 0
     0x2438 [0x80] LOAD_WAIT(entity=Unknown NPC (ID: 2151055366/0x80368006))
     0x243D [0x26] DEPRECATED_YIELD
     0x243E [0x80] LOAD_WAIT(entity=Unknown NPC (ID: 2148106246/0x80098006))
     0x2443 [0x0A] 0x3380 &= ~(1 << 0x0780)
     0x2448 [0x80] LOAD_WAIT(entity=Unknown NPC (ID: 2147909638/0x80068006))
     0x244D [0x07] 0x0680 += 0x3380
     0x2452 [0x80] LOAD_WAIT(entity=Unknown NPC (ID: 2147909673/0x80068029))
     0x2457 [0x07] 0x0880 += 0x2A80
     0x245C [0x80] LOAD_WAIT(entity=Unknown NPC (ID: 2147909673/0x80068029))
     0x2461 [0x2A] GET_REQ_LEVEL(level=128, entity_id=Unknown NPC (ID: 2150662198/0x80308036))
     0x2467 [0x26] DEPRECATED_YIELD
     0x2468 [0x80] LOAD_WAIT(entity=Unknown NPC (ID: 2147909638/0x80068006))
     0x246D [0x06] 0x0680 = 0
     0x2470 [0x80] LOAD_WAIT(entity=Unknown NPC (ID: 2147909638/0x80068006))
     0x2475 [0x06] 0x0680 = 0
     0x2478 [0x80] LOAD_WAIT(entity=Unknown NPC (ID: 2147909638/0x80068006))
     0x247D [0x31] UPDATE_ENTITY_POSITION: Set EventEntity goal position to X=0.003*, Z=0.000*, Y=0.000*, Time=0* (mode 0x80)
     0x2487 [0x05] 0x0981 = 1
     0x248A [0x80] LOAD_WAIT(entity=Unknown NPC (ID: 2150793222/0x80328006))
     0x248F [0xE4] UNKNOWN_0xE4
     0x2490 [0x80] LOAD_WAIT(entity=Unknown NPC (ID: 2147909677/0x8006802D))
     0x2495 [0x06] 0x0680 = 0
     0x2498 [0x80] LOAD_WAIT(entity=Unknown NPC (ID: 2147909638/0x80068006))
     0x249D [0x05] 0x0681 = 1
     0x24A0 [0x80] LOAD_WAIT(entity=Unknown NPC (ID: 2162458810/0x80E480BA))
     0x24A5 [0x06] 0x0680 = 0
     0x24A8 [0x80] LOAD_WAIT(entity=Unknown NPC (ID: 2147909638/0x80068006))
     0x24AD [0x08] 0x0680 -= 0x0980
     0x24B2 [0x80] LOAD_WAIT(entity=Unknown NPC (ID: 2147909893/0x80068105))
     0x24B7 [0x31] UPDATE_ENTITY_POSITION: Set EventEntity goal position to X=0.004*, Z=0.009*, Y=0.028*, Time=0* (mode 0x80)
     0x24C1 [0x33] EventEntity->Render.Flags0 ^= 0x200000 // Bit 21 (flag=0x80)
     0x24C3 [0x0F] 0x3380 ^= 0x0280
     0x24C8 [0x81] SET_ENTITY_BLINKING(blink_flag=0x06, entity=Unknown NPC (ID: 109053568/0x06800680))
     0x24CE [0x80] LOAD_WAIT(entity=Unknown NPC (ID: 2147909638/0x80068006))
     0x24D3 [0x06] 0x0680 = 0
     0x24D6 [0x80] LOAD_WAIT(entity=Unknown NPC (ID: 2147909638/0x80068006))
     0x24DB [0x06] 0x0680 = 0
     0x24DE [0x80] LOAD_WAIT(entity=Unknown NPC (ID: 2147909638/0x80068006))
     0x24E3 [0x06] 0x0680 = 0
     0x24E6 [0x80] LOAD_WAIT(entity=Unknown NPC (ID: 2168619014/0x81428006))
     0x24EB [0x06] 0x0680 = 0
     0x24EE [0x80] LOAD_WAIT(entity=Unknown NPC (ID: 2147909638/0x80068006))
     0x24F3 [0x06] 0x0680 = 0
     0x24F6 [0x80] LOAD_WAIT(entity=Unknown NPC (ID: 2147909638/0x80068006))
     0x24FB [0x06] 0x0680 = 0
     0x24FE [0x80] LOAD_WAIT(entity=Unknown NPC (ID: 2147909638/0x80068006))
     0x2503 [0x06] 0x0680 = 0
     0x2506 [0x80] LOAD_WAIT(entity=Unknown NPC (ID: 2147909638/0x80068006))
     0x250B [0x06] 0x0680 = 0
     0x250E [0x80] LOAD_WAIT(entity=Unknown NPC (ID: 2147909638/0x80068006))
     0x2513 [0x06] 0x0680 = 0
     0x2516 [0x80] LOAD_WAIT(entity=Unknown NPC (ID: 2147909638/0x80068006))
     0x251B [0x43] SEND_EVENT_UPDATE: Update flag 0x81
     0x251D [0x06] 0x0680 = 0
     0x2520 [0x80] LOAD_WAIT(entity=Unknown NPC (ID: 2147909638/0x80068006))
     0x2525 [0x0C] 0x0680--
     0x2528 [0x80] LOAD_WAIT(entity=Unknown NPC (ID: 2147909638/0x80068006))
     0x252D [0x06] 0x0680 = 0
     0x2530 [0x80] LOAD_WAIT(entity=Unknown NPC (ID: 2147909638/0x80068006))
     0x2535 [0x06] 0x0680 = 0
     0x2538 [0x80] LOAD_WAIT(entity=Unknown NPC (ID: 2168815940/0x81458144))
     0x253D [0x46] CAMERA_CONTROL: Unknown mode 0x81
     0x253F [0x47] WAIT_PLAYER_POS_UPDATE
     0x2541 [0x48] [System] [0x4981]:
     0x2544 [0x81] SET_ENTITY_BLINKING(blink_flag=0x4A, entity=Unknown NPC (ID: 1283541889/0x4C814B81))
     0x254A [0x81] SET_ENTITY_BLINKING(blink_flag=0x4D, entity=Unknown NPC (ID: 1333874305/0x4F814E81))
     0x2550 [0x81] SET_ENTITY_BLINKING(blink_flag=0x50, entity=Unknown NPC (ID: 1384206721/0x52815181))
     0x2556 [0x81] SET_ENTITY_BLINKING(blink_flag=0x53, entity=Unknown NPC (ID: 1434539137/0x55815481))
     0x255C [0x81] SET_ENTITY_BLINKING(blink_flag=0x56, entity=Unknown NPC (ID: 1484871553/0x58815781))
     0x2562 [0x81] SET_ENTITY_BLINKING(blink_flag=0x59, entity=Unknown NPC (ID: 1535203969/0x5B815A81))
     0x2568 [0x81] SET_ENTITY_BLINKING(blink_flag=0x5C, entity=Unknown NPC (ID: 1585536385/0x5E815D81))
     0x256E [0x81] SET_ENTITY_BLINKING(blink_flag=0x5F, entity=Unknown NPC (ID: 1635868801/0x61816081))
     0x2574 [0x81] SET_ENTITY_BLINKING(blink_flag=0x62, entity=Unknown NPC (ID: 1686201217/0x64816381))
     0x257A [0x81] SET_ENTITY_BLINKING(blink_flag=0x65, entity=Unknown NPC (ID: 1736533633/0x67816681))
     0x2580 [0x81] SET_ENTITY_BLINKING(blink_flag=0x68, entity=Unknown NPC (ID: 1786866049/0x6A816981))
     0x2586 [0x81] SET_ENTITY_BLINKING(blink_flag=0x6B, entity=Unknown NPC (ID: 1837198465/0x6D816C81))
     0x258C [0x81] SET_ENTITY_BLINKING(blink_flag=0x6E, entity=Unknown NPC (ID: 1887530881/0x70816F81))
     0x2592 [0x81] SET_ENTITY_BLINKING(blink_flag=0x71, entity=Unknown NPC (ID: 109053569/0x06800681))
     0x2598 [0x80] LOAD_WAIT(entity=Unknown NPC (ID: 2150858803/0x80338033))
     0x259D [0x72] LOAD_EVENT_WEATHER: Unknown mode 129, weather_id=20000*
     0x25A1 [0x72] LOAD_EVENT_WEATHER: Unknown mode 129, weather_id=20000*
     0x25A5 [0x72] LOAD_EVENT_WEATHER: Unknown mode 129, weather_id=20000*
     0x25A9 [0x73] Unknown NPC (ID: 1937863553/0x73817381) casts magic 0x7381 on Unknown NPC (ID: 1937863553/0x73817381)
     0x25B4 [0x81] SET_ENTITY_BLINKING(blink_flag=0x74, entity=Unknown NPC (ID: 1954641025/0x74817481))
     0x25BA [0x81] SET_ENTITY_BLINKING(blink_flag=0x75, entity=Unknown NPC (ID: 1971418497/0x75817581))
     0x25C0 [0x81] SET_ENTITY_BLINKING(blink_flag=0x75, entity=Unknown NPC (ID: 2004973185/0x77817681))
     0x25C6 [0x81] SET_ENTITY_BLINKING(blink_flag=0x77, entity=Unknown NPC (ID: 2021750657/0x78817781))
     0x25CC [0x81] SET_ENTITY_BLINKING(blink_flag=0x79, entity=Unknown NPC (ID: 2055305857/0x7A817A81))
     0x25D2 [0x81] SET_ENTITY_BLINKING(blink_flag=0x7A, entity=Unknown NPC (ID: 2072083329/0x7B817B81))
     0x25D8 [0x81] SET_ENTITY_BLINKING(blink_flag=0x7B, entity=Unknown NPC (ID: 2088860801/0x7C817C81))
     0x25DE [0x81] SET_ENTITY_BLINKING(blink_flag=0x7C, entity=Unknown NPC (ID: 1971420545/0x75817D81))
     0x25E4 [0x81] SET_ENTITY_BLINKING(blink_flag=0x76, entity=Unknown NPC (ID: 1971418497/0x75817581))
     0x25EA [0x81] SET_ENTITY_BLINKING(blink_flag=0x7E, entity=Unknown NPC (ID: 2004975233/0x77817E81))
     0x25F0 [0x81] SET_ENTITY_BLINKING(blink_flag=0x77, entity=Unknown NPC (ID: 109148033/0x06817781))
     0x25F6 [0x80] LOAD_WAIT(entity=Unknown NPC (ID: 2147909638/0x80068006))
     0x25FB [0xC0] EventEntity->Render.Flags3 &= ~0x1000 // Clear bit 12
     0x25FE [0x80] LOAD_WAIT(entity=Unknown NPC (ID: 2160296130/0x80C380C2))
     0x2603 [0xC4] SCHEDULE_MAGIC_CASTING_ALT (arg=16): Unknown NPC (ID: 2160885963/0x80CC80CB) casts magic 2197* on Unknown NPC (ID: 2147909638/0x80068006)
     0x260F [0x06] 0x0680 = 0
     0x2612 [0x80] LOAD_WAIT(entity=Unknown NPC (ID: 2147909638/0x80068006))
     0x2617 [0x06] 0x0680 = 0
     0x261A [0x80] LOAD_WAIT(entity=Unknown NPC (ID: 2160492741/0x80C680C5))
     0x261F [0xC7] END_LOAD_SCHEDULER_ALT3: End scheduler 0x06800680 with entities [Unknown NPC (ID: 3447769472/0xCD80C980), Unknown NPC (ID: 3481325184/0xCF80CE80)], work=0xC880
     0x262E [0x80] LOAD_WAIT(entity=Unknown NPC (ID: 2147909638/0x80068006))
     0x2633 [0x06] 0x0680 = 0
     0x2636 [0x80] LOAD_WAIT(entity=Unknown NPC (ID: 2147909638/0x80068006))
     0x263B [0x07] 0x0880 += 0x3180
     0x2640 [0x80] LOAD_WAIT(entity=Unknown NPC (ID: 2150268978/0x802A8032))
     0x2645 [0x2D] CREATE_ZONE_SCHEDULER_TASK: Create scheduler 0x06800680 with entities [Unknown NPC (ID: 696258432/0x29800F80), Unknown NPC (ID: 109053568/0x06800680)]
     0x2652 [0x80] LOAD_WAIT(entity=Unknown NPC (ID: 2147909638/0x80068006))
     0x2657 [0x06] 0x0680 = 0
     0x265A [0x80] LOAD_WAIT(entity=Unknown NPC (ID: 2158002335/0x80A0809F))
     0x265F [0xA1] END_LOAD_SCHEDULER_MAIN: End scheduler 0x06800680 with entities [Unknown NPC (ID: 109093760/0x0680A380), Unknown NPC (ID: 109053568/0x06800680)], work=0xA280
     0x266E [0x80] LOAD_WAIT(entity=Unknown NPC (ID: 2147909638/0x80068006))
     0x2673 [0x06] 0x0680 = 0
     0x2676 [0x80] LOAD_WAIT(entity=Unknown NPC (ID: 2171961350/0x81758006))
     0x267B [0x79] Unknown NPC (ID: 2172617086/0x817F817E) looks at Unknown NPC (ID: 2172158333/0x8178817D) (Unknown mode 129)
```