# Event 209

## Metadata

| Field           | Value    |
|-----------------|----------|
| Event Index     | 16/21    |
| Offset          | 0x0110   |
| Data Size       | 31 bytes |
| Calculated Size | 31 bytes |
| Instructions    | 11       |

```
      00 01 02 03 04 05 06 07  08 09 0A 0B 0C 0D 0E 0F
      -- -- -- -- -- -- -- --  -- -- -- -- -- -- -- --
0110: 1E F0 FF FF 7F 6F 70 29  08 2D 20 0F 01 01 1D 0A  .....op).- .....
0120: 80 23 1D 0B 80 23 29 08  2D 20 0F 01 02 21 00     .#...#).- ...!. 
```

## Opcodes

```
  0: 0x0110 [0x1E] EventEntity looks at LocalPlayer and starts talking
  1: 0x0115 [0x6F] WAIT_FRAME_DELAY: Yield until WaitTime reaches zero
  2: 0x0116 [0x70] WAIT_ENTITY_RENDER_FLAG: Wait while EventEntity->Render.Flags3 bit 2 is set (cancel turn if not)
  3: 0x0117 [0x29] REQ_SET_WAIT(priority=0x08, entity_id=Nayutata (ID: 17768493/0x010F202D), tag_num=0x01)
  4: 0x011E [0x1D] PRINT_EVENT_MESSAGE(message_id=464*)
    → "The conference held by the five ministers was not as \u00072exciting\u00073 as it usually is.\u007F1\u0000\u0007"
  5: 0x0121 [0x23] WAIT_FOR_DIALOG_INTERACTION
  6: 0x0122 [0x1D] PRINT_EVENT_MESSAGE(message_id=465*)
    → "When one shakes-rakes-takes into consideration the relationship we have with the other countries of Vana'diel, Windurst cannot accord-award-afford to rush into matters.\u007F1\u0000\u0007"
  7: 0x0125 [0x23] WAIT_FOR_DIALOG_INTERACTION
  8: 0x0126 [0x29] REQ_SET_WAIT(priority=0x08, entity_id=Nayutata (ID: 17768493/0x010F202D), tag_num=0x02)
  9: 0x012D [0x21] END_EVENT
 10: 0x012E [0x00] END_REQSTACK()
```
