# Event 230

## Metadata

| Field           | Value    |
|-----------------|----------|
| Event Index     | 17/21    |
| Offset          | 0x012F   |
| Data Size       | 31 bytes |
| Calculated Size | 31 bytes |
| Instructions    | 11       |

```
      00 01 02 03 04 05 06 07  08 09 0A 0B 0C 0D 0E 0F
      -- -- -- -- -- -- -- --  -- -- -- -- -- -- -- --
0120:                                               1E                 .
0130: F0 FF FF 7F 6F 70 29 08  2D 20 0F 01 01 1D 0C 80  ....op).- ......
0140: 23 1D 0D 80 23 29 08 2D  20 0F 01 02 21 00        #...#).- ...!.  
```

## Opcodes

```
  0: 0x012F [0x1E] EventEntity looks at LocalPlayer and starts talking
  1: 0x0134 [0x6F] WAIT_FRAME_DELAY: Yield until WaitTime reaches zero
  2: 0x0135 [0x70] WAIT_ENTITY_RENDER_FLAG: Wait while EventEntity->Render.Flags3 bit 2 is set (cancel turn if not)
  3: 0x0136 [0x29] REQ_SET_WAIT(priority=0x08, entity_id=Nayutata (ID: 17768493/0x010F202D), tag_num=0x01)
  4: 0x013D [0x1D] PRINT_EVENT_MESSAGE(message_id=511*)
    → "I cannot begin to imagine what horrible things you reserved-preserved-observed up in those cursed Northlands.\u007F1\u0000\u0007"
  5: 0x0140 [0x23] WAIT_FOR_DIALOG_INTERACTION
  6: 0x0141 [0x1D] PRINT_EVENT_MESSAGE(message_id=512*)
    → "But I no longer need to willy-wally-worry. You are at home now, and everyone welcomes you back. \u007F1\u0000\u0007"
  7: 0x0144 [0x23] WAIT_FOR_DIALOG_INTERACTION
  8: 0x0145 [0x29] REQ_SET_WAIT(priority=0x08, entity_id=Nayutata (ID: 17768493/0x010F202D), tag_num=0x02)
  9: 0x014C [0x21] END_EVENT
 10: 0x014D [0x00] END_REQSTACK()
```
