# Event 65535

## Metadata

| Field           | Value    |
|-----------------|----------|
| Event Index     | 11/14    |
| Offset          | 0x0046   |
| Data Size       | 39 bytes |
| Calculated Size | 39 bytes |
| Instructions    | 9        |

```
      00 01 02 03 04 05 06 07  08 09 0A 0B 0C 0D 0E 0F
      -- -- -- -- -- -- -- --  -- -- -- -- -- -- -- --
0040:                   1F 00  03 80 04 80 05 80 1F 01        ..........
0050: 6F 1E DF E0 08 01 6F 70  7B E0 E0 08 01 5B 06 80  o.....op{....[..
0060: E0 E0 08 01 E0 E0 08 01  74 6C 6B 30 00           ........tlk0.   
```

## Opcodes

```
  0: 0x0046 [0x1F] MOVE_ENTITY: EventEntity moves to X=346.782*, Z=-17.086*, Y=8.836*
  1: 0x004E [0x1F] MOVE_ENTITY: Update entity position (mode=1)
  2: 0x0050 [0x6F] WAIT_FRAME_DELAY: Yield until WaitTime reaches zero
  3: 0x0051 [0x1E] EventEntity looks at Zogbog (ID: 17359071/0x0108E0DF) and starts talking
  4: 0x0056 [0x6F] WAIT_FRAME_DELAY: Yield until WaitTime reaches zero
  5: 0x0057 [0x70] WAIT_ENTITY_RENDER_FLAG: Wait while EventEntity->Render.Flags3 bit 2 is set (cancel turn if not)
  6: 0x0058 [0x7B] Rivetpounder Mekglok (ID: 17359072/0x0108E0E0) stops talking
  7: 0x005D [0x5B] LOAD_EXT_SCHEDULER: Load scheduler "tlk0" with entities [Rivetpounder Mekglok (ID: 17359072/0x0108E0E0), Rivetpounder Mekglok (ID: 17359072/0x0108E0E0)], work=2593*
  8: 0x006C [0x00] END_REQSTACK()
```
