# 17613256 - Curilla

## Common Data

| Field            | Value             |
|------------------|-------------------|
| Zone             | Fei'Yin (ID: 204) |
| Block Size       | 188 bytes         |
| Total Events     | 6                 |
| References Count | 13                |

## List of Events

| Event ID                 | Entrypoint   |   Size |   Instructions |
|--------------------------|--------------|--------|----------------|
| [65535](#event-65535)    | 0x0000       |      1 |              1 |
| [23](#event-23)          | 0x0001       |     15 |              3 |
| [65535.1](#event-655351) | 0x0010       |     24 |              5 |
| [65535.2](#event-655352) | 0x0028       |     21 |              6 |
| [65535.3](#event-655353) | 0x003D       |     29 |              3 |
| [65535.4](#event-655354) | 0x005A       |      6 |              2 |

## DAT References (imed_data)

|   Index | Hex Value   |   Dec Value |
|---------|-------------|-------------|
|       0 | 0xFFFE7337  |  4294865719 |
|       1 | 0xFFFEB745  |  4294883141 |
|       2 | 0xFFFFC3B3  |  4294951859 |
|       3 | 0x0935      |        2357 |
|       4 | 0x000D      |          13 |
|       5 | 0xFFFE6D43  |  4294864195 |
|       6 | 0xFFFEBAA3  |  4294884003 |
|       7 | 0xFFFFC3BF  |  4294951871 |
|       8 | 0x0028      |          40 |
|       9 | 0xFFFEE456  |  4294894678 |
|      10 | 0xFFFEFBBD  |  4294900669 |
|      11 | 0xFFFFC180  |  4294951296 |
|      12 | 0x008E      |         142 |

## Events

### Event 65535

#### Metadata

| Field        | Value   |
|--------------|---------|
| Entrypoint   | 0x0000  |
| Data Size    | 1 bytes |
| Instructions | 1       |

```
      00 01 02 03 04 05 06 07  08 09 0A 0B 0C 0D 0E 0F
      -- -- -- -- -- -- -- --  -- -- -- -- -- -- -- --
0000: 00                                                .               
```

#### Opcodes

```
  0: 0x0000 [0x00] END_REQSTACK()
```

### Event 23

#### Metadata

| Field        | Value    |
|--------------|----------|
| Entrypoint   | 0x0001   |
| Data Size    | 15 bytes |
| Instructions | 3        |

```
      00 01 02 03 04 05 06 07  08 09 0A 0B 0C 0D 0E 0F
      -- -- -- -- -- -- -- --  -- -- -- -- -- -- -- --
0000:    37 00 80 01 80 02 80  03 80 5E 64 66 74 30 00   7........^dft0.
```

#### Opcodes

```
  0: 0x0001 [0x37] UPDATE_EVENT_POSITION_AND_DIR: x=-101.577*, z=-84.155*, y=-15.437*, direction=207.2°*
  1: 0x000A [0x5E] EventEntity goes idle (kills current action) (animation: "dft0")
  2: 0x000F [0x00] END_REQSTACK()
```

### Event 65535.1

#### Metadata

| Field        | Value    |
|--------------|----------|
| Entrypoint   | 0x0010   |
| Data Size    | 24 bytes |
| Instructions | 5        |

```
      00 01 02 03 04 05 06 07  08 09 0A 0B 0C 0D 0E 0F
      -- -- -- -- -- -- -- --  -- -- -- -- -- -- -- --
0010: 32 04 80 1F 00 05 80 06  80 07 80 1F 01 79 00 F8  2............y..
0020: FF FF 7F C5 C1 0C 01 00                           ........        
```

#### Opcodes

```
  0: 0x0010 [0x32] ExtData[1]->MainSpeed = 13* * 0.1
  1: 0x0013 [0x1F] MOVE_ENTITY: EventEntity moves to X=-103.101*, Z=-83.293*, Y=-15.425*
  2: 0x001B [0x1F] MOVE_ENTITY: Update entity position (mode=1)
  3: 0x001D [0x79] EventEntity looks at Trion (ID: 17613253/0x010CC1C5) (Basic look)
  4: 0x0027 [0x00] END_REQSTACK()
```

### Event 65535.2

#### Metadata

| Field        | Value    |
|--------------|----------|
| Entrypoint   | 0x0028   |
| Data Size    | 21 bytes |
| Instructions | 6        |

```
      00 01 02 03 04 05 06 07  08 09 0A 0B 0C 0D 0E 0F
      -- -- -- -- -- -- -- --  -- -- -- -- -- -- -- --
0020:                          7B F8 FF FF 7F 32 08 80          {....2..
0030: 1F 00 09 80 0A 80 0B 80  1F 01 22 01 00           .........."..   
```

#### Opcodes

```
  0: 0x0028 [0x7B] EventEntity stops talking
  1: 0x002D [0x32] ExtData[1]->MainSpeed = 40* * 0.1
  2: 0x0030 [0x1F] MOVE_ENTITY: EventEntity moves to X=-72.618*, Z=-66.627*, Y=-16.000*
  3: 0x0038 [0x1F] MOVE_ENTITY: Update entity position (mode=1)
  4: 0x003A [0x22] ENTITY_HIDE_FLAG(enabled=0x01)
  5: 0x003C [0x00] END_REQSTACK()
```

### Event 65535.3

#### Metadata

| Field        | Value    |
|--------------|----------|
| Entrypoint   | 0x003D   |
| Data Size    | 29 bytes |
| Instructions | 3        |

```
      00 01 02 03 04 05 06 07  08 09 0A 0B 0C 0D 0E 0F
      -- -- -- -- -- -- -- --  -- -- -- -- -- -- -- --
0030:                                         5B 0C 80               [..
0040: F8 FF FF 7F F8 FF FF 7F  61 63 74 30 53 F8 FF FF  ........act0S...
0050: 7F F8 FF FF 7F 61 63 74  30 00                    .....act0.      
```

#### Opcodes

```
  0: 0x003D [0x5B] LOAD_EXT_SCHEDULER: Load scheduler "act0" with entities [EventEntity, EventEntity], work=142*
  1: 0x004C [0x53] WAIT_SCHEDULER_TASK: Wait for scheduler "act0" with entities [EventEntity, EventEntity]
  2: 0x0059 [0x00] END_REQSTACK()
```

### Event 65535.4

#### Metadata

| Field        | Value   |
|--------------|---------|
| Entrypoint   | 0x005A  |
| Data Size    | 6 bytes |
| Instructions | 2       |

```
      00 01 02 03 04 05 06 07  08 09 0A 0B 0C 0D 0E 0F
      -- -- -- -- -- -- -- --  -- -- -- -- -- -- -- --
0050:                                5E 64 66 74 30 00            ^dft0.
```

#### Opcodes

```
  0: 0x005A [0x5E] EventEntity goes idle (kills current action) (animation: "dft0")
  1: 0x005F [0x00] END_REQSTACK()
```
