# 17613240 - Rukususu

## Common Data

| Field            | Value             |
|------------------|-------------------|
| Zone             | Fei'Yin (ID: 204) |
| Block Size       | 2256 bytes        |
| Total Events     | 25                |
| References Count | 45                |

## List of Events

| Event ID                   | Entrypoint   |   Size |   Instructions |
|----------------------------|--------------|--------|----------------|
| [65535](#event-65535)      | 0x0000       |      1 |              1 |
| [65535.1](#event-655351)   | 0x0001       |     16 |              2 |
| [65535.2](#event-655352)   | 0x0011       |     22 |              4 |
| [65535.3](#event-655353)   | 0x0027       |     29 |              3 |
| [65535.4](#event-655354)   | 0x0044       |     29 |              3 |
| [65535.5](#event-655355)   | 0x0061       |     29 |              3 |
| [65535.6](#event-655356)   | 0x007E       |     16 |              2 |
| [65535.7](#event-655357)   | 0x008E       |     14 |              2 |
| [65535.8](#event-655358)   | 0x009C       |      9 |              3 |
| [13](#event-13)            | 0x00A5       |    446 |             62 |
| [65535.9](#event-655359)   | 0x0263       |      8 |              2 |
| [65535.10](#event-6553510) | 0x026B       |     14 |              4 |
| [65535.11](#event-6553511) | 0x0279       |     14 |              4 |
| [65535.12](#event-6553512) | 0x0287       |     14 |              4 |
| [65535.13](#event-6553513) | 0x0295       |      9 |              5 |
| [65535.14](#event-6553514) | 0x029E       |      5 |              3 |
| [65535.15](#event-6553515) | 0x02A3       |      5 |              3 |
| [14](#event-14)            | 0x02A8       |    554 |             77 |
| [65535.16](#event-6553516) | 0x04D2       |      5 |              3 |
| [65535.17](#event-6553517) | 0x04D7       |      5 |              3 |
| [65535.18](#event-6553518) | 0x04DC       |     23 |              7 |
| [15](#event-15)            | 0x04F3       |     15 |              8 |
| [22](#event-22)            | 0x0502       |    653 |             92 |
| [65535.19](#event-6553519) | 0x078F       |     14 |              4 |
| [65535.20](#event-6553520) | 0x079D       |     10 |              2 |

## DAT References (imed_data)

|   Index | Hex Value   |   Dec Value |
|---------|-------------|-------------|
|       0 | 0x0151      |         337 |
|       1 | 0x001E      |          30 |
|       2 | 0x0000      |           0 |
|       3 | 0x00C8      |         200 |
|       4 | 0x003C      |          60 |
|       5 | 0x0013      |          19 |
|       6 | 0x00A4      |         164 |
|       7 | 0x007F      |         127 |
|       8 | 0x0001      |           1 |
|       9 | 0x012C      |         300 |
|      10 | 0x000F      |          15 |
|      11 | 0x0064      |         100 |
|      12 | 0x0078      |         120 |
|      13 | 0x1CB6      |        7350 |
|      14 | 0x03EC      |        1004 |
|      15 | 0x1CB9      |        7353 |
|      16 | 0xFFFD0E31  |  4294774321 |
|      17 | 0x2E5DC     |      189916 |
|      18 | 0x0054      |          84 |
|      19 | 0x000D      |          13 |
|      20 | 0xFFFD0991  |  4294773137 |
|      21 | 0x2E5BD     |      189885 |
|      22 | 0x0016      |          22 |
|      23 | 0x0028      |          40 |
|      24 | 0x1CB3      |        7347 |
|      25 | 0x1CB4      |        7348 |
|      26 | 0x1CB5      |        7349 |
|      27 | 0x1CB7      |        7351 |
|      28 | 0x1CBC      |        7356 |
|      29 | 0x1CBB      |        7355 |
|      30 | 0x1CBA      |        7354 |
|      31 | 0x1CBE      |        7358 |
|      32 | 0x1CBF      |        7359 |
|      33 | 0x1CC0      |        7360 |
|      34 | 0x009F      |         159 |
|      35 | 0x1CFD      |        7421 |
|      36 | 0x1CFE      |        7422 |
|      37 | 0x1CFF      |        7423 |
|      38 | 0x1D00      |        7424 |
|      39 | 0x1D01      |        7425 |
|      40 | 0x1D02      |        7426 |
|      41 | 0x1D03      |        7427 |
|      42 | 0x1D04      |        7428 |
|      43 | 0x1D05      |        7429 |
|      44 | 0x0FCF      |        4047 |

## String References

- **7347**: Qu'est-ce que c'est? Oh, you were looking pour moi?
- **7348**: I'm really quite busy-wusy studying zis golem at ze momentaru. If you have something to say to moi, say it tout suite.
- **7349**: You came all ze way from Windurst? Well now, zat's quite a journey.
- **7350**: However, it's as I thoughtaru... Ze magique zat you have brought to moi has been half-erased by some strange power.
- **7351**: Please hand zis back to ze Rhinosterie research team outside on ze Beaucedine Glacier. Zey should be able to restore ze lost magique.
- **7353**: If you battle certain magical creatures, it may have an adverse effectaru on zat magique tome.
- **7354**: You came all ze way from Windurst? Well now, zat's quite a journey.
- **7355**: Ah! You've succeeded! C'est magnifique! We've had all sorts of bother-wother trying to get Doctor Shantotto's magique here intact.
- **7356**: Ah! You've succeeded! C'est magnifique! Finally, you have brought moi ze magique completely intactaru. Merci!
- **7358**: Just un momentaru...
- **7359**: Doctor Shantotto didn't mention anything aboutaru ghosts or onions...did she?
- **7360**: Ah, never mind... Be extra careful on your way home, mon ami.
- **7421**: I never expected to see you here again... You adventurers certainly get around.
- **7422**: ...And now what of zee Book of zee Gods? What has become of it since zee ancient restored its magic?
- **7423**: ...I see. Zee Star Sibyl has yet to forgive Ajido-Marujido...
- **7424**: If she is really zat furious... ...It's possible zee Star Sibyl intends to quash all traces of Ajido-Marujido's natural-born magical ability.
- **7425**: Zee Dark Dungeon has zat kind of power. In my student days, I saw with my own eyes one who had met with such a fate.
- **7426**: ..... And how is poor Apururu holding up? She mustaru be worrying herself sick.
- **7427**: And zat is zee course of action she has decided on? ...Such a brave girl.
- **7428**: Well, zen. You must take my $3 and return to Windurst. Please help our dear Apururu.
- **7429**: Take zee Book of zee Gods to Ajido-Marujido. He is not one to shrink back in zee face of zee truth.

## Events

### Event 65535

#### Metadata

| Field        | Value   |
|--------------|---------|
| Entrypoint   | 0x0000  |
| Data Size    | 1 bytes |
| Instructions | 1       |

```
      00 01 02 03 04 05 06 07  08 09 0A 0B 0C 0D 0E 0F
      -- -- -- -- -- -- -- --  -- -- -- -- -- -- -- --
0000: 00                                                .               
```

#### Opcodes

```
  0: 0x0000 [0x00] END_REQSTACK()
```

### Event 65535.1

#### Metadata

| Field        | Value    |
|--------------|----------|
| Entrypoint   | 0x0001   |
| Data Size    | 16 bytes |
| Instructions | 2        |

```
      00 01 02 03 04 05 06 07  08 09 0A 0B 0C 0D 0E 0F
      -- -- -- -- -- -- -- --  -- -- -- -- -- -- -- --
0000:    5B 00 80 F8 FF FF 7F  F8 FF FF 7F 74 6C 6B 30   [..........tlk0
0010: 00                                                .               
```

#### Opcodes

```
  0: 0x0001 [0x5B] LOAD_EXT_SCHEDULER: Load scheduler "tlk0" with entities [EventEntity, EventEntity], work=337*
  1: 0x0010 [0x00] END_REQSTACK()
```

### Event 65535.2

#### Metadata

| Field        | Value    |
|--------------|----------|
| Entrypoint   | 0x0011   |
| Data Size    | 22 bytes |
| Instructions | 4        |

```
      00 01 02 03 04 05 06 07  08 09 0A 0B 0C 0D 0E 0F
      -- -- -- -- -- -- -- --  -- -- -- -- -- -- -- --
0010:    53 F8 FF FF 7F F8 FF  FF 7F 74 6C 6B 30 5E 69   S........tlk0^i
0020: 64 6C 30 1C 01 80 00                              dl0....         
```

#### Opcodes

```
  0: 0x0011 [0x53] WAIT_SCHEDULER_TASK: Wait for scheduler "tlk0" with entities [EventEntity, EventEntity]
  1: 0x001E [0x5E] EventEntity goes idle (kills current action) (animation: "idl0")
  2: 0x0023 [0x1C] WAIT(30* ticks)
  3: 0x0026 [0x00] END_REQSTACK()
```

### Event 65535.3

#### Metadata

| Field        | Value    |
|--------------|----------|
| Entrypoint   | 0x0027   |
| Data Size    | 29 bytes |
| Instructions | 3        |

```
      00 01 02 03 04 05 06 07  08 09 0A 0B 0C 0D 0E 0F
      -- -- -- -- -- -- -- --  -- -- -- -- -- -- -- --
0020:                      5B  00 80 F8 FF FF 7F F8 FF         [........
0030: FF 7F 74 68 6B 31 53 F8  FF FF 7F F8 FF FF 7F 74  ..thk1S........t
0040: 68 6B 31 00                                       hk1.            
```

#### Opcodes

```
  0: 0x0027 [0x5B] LOAD_EXT_SCHEDULER: Load scheduler "thk1" with entities [EventEntity, EventEntity], work=337*
  1: 0x0036 [0x53] WAIT_SCHEDULER_TASK: Wait for scheduler "thk1" with entities [EventEntity, EventEntity]
  2: 0x0043 [0x00] END_REQSTACK()
```

### Event 65535.4

#### Metadata

| Field        | Value    |
|--------------|----------|
| Entrypoint   | 0x0044   |
| Data Size    | 29 bytes |
| Instructions | 3        |

```
      00 01 02 03 04 05 06 07  08 09 0A 0B 0C 0D 0E 0F
      -- -- -- -- -- -- -- --  -- -- -- -- -- -- -- --
0040:             5B 00 80 F8  FF FF 7F F8 FF FF 7F 74      [..........t
0050: 68 6B 32 53 F8 FF FF 7F  F8 FF FF 7F 74 68 6B 32  hk2S........thk2
0060: 00                                                .               
```

#### Opcodes

```
  0: 0x0044 [0x5B] LOAD_EXT_SCHEDULER: Load scheduler "thk2" with entities [EventEntity, EventEntity], work=337*
  1: 0x0053 [0x53] WAIT_SCHEDULER_TASK: Wait for scheduler "thk2" with entities [EventEntity, EventEntity]
  2: 0x0060 [0x00] END_REQSTACK()
```

### Event 65535.5

#### Metadata

| Field        | Value    |
|--------------|----------|
| Entrypoint   | 0x0061   |
| Data Size    | 29 bytes |
| Instructions | 3        |

```
      00 01 02 03 04 05 06 07  08 09 0A 0B 0C 0D 0E 0F
      -- -- -- -- -- -- -- --  -- -- -- -- -- -- -- --
0060:    5B 00 80 F8 FF FF 7F  F8 FF FF 7F 70 6F 69 30   [..........poi0
0070: 53 F8 FF FF 7F F8 FF FF  7F 70 6F 69 30 00        S........poi0.  
```

#### Opcodes

```
  0: 0x0061 [0x5B] LOAD_EXT_SCHEDULER: Load scheduler "poi0" with entities [EventEntity, EventEntity], work=337*
  1: 0x0070 [0x53] WAIT_SCHEDULER_TASK: Wait for scheduler "poi0" with entities [EventEntity, EventEntity]
  2: 0x007D [0x00] END_REQSTACK()
```

### Event 65535.6

#### Metadata

| Field        | Value    |
|--------------|----------|
| Entrypoint   | 0x007E   |
| Data Size    | 16 bytes |
| Instructions | 2        |

```
      00 01 02 03 04 05 06 07  08 09 0A 0B 0C 0D 0E 0F
      -- -- -- -- -- -- -- --  -- -- -- -- -- -- -- --
0070:                                            5B 00                [.
0080: 80 F8 FF FF 7F F8 FF FF  7F 70 61 73 30 00        .........pas0.  
```

#### Opcodes

```
  0: 0x007E [0x5B] LOAD_EXT_SCHEDULER: Load scheduler "pas0" with entities [EventEntity, EventEntity], work=337*
  1: 0x008D [0x00] END_REQSTACK()
```

### Event 65535.7

#### Metadata

| Field        | Value    |
|--------------|----------|
| Entrypoint   | 0x008E   |
| Data Size    | 14 bytes |
| Instructions | 2        |

```
      00 01 02 03 04 05 06 07  08 09 0A 0B 0C 0D 0E 0F
      -- -- -- -- -- -- -- --  -- -- -- -- -- -- -- --
0080:                                            53 F8                S.
0090: FF FF 7F F8 FF FF 7F 70  61 73 30 00              .......pas0.    
```

#### Opcodes

```
  0: 0x008E [0x53] WAIT_SCHEDULER_TASK: Wait for scheduler "pas0" with entities [EventEntity, EventEntity]
  1: 0x009B [0x00] END_REQSTACK()
```

### Event 65535.8

#### Metadata

| Field        | Value   |
|--------------|---------|
| Entrypoint   | 0x009C  |
| Data Size    | 9 bytes |
| Instructions | 3       |

```
      00 01 02 03 04 05 06 07  08 09 0A 0B 0C 0D 0E 0F
      -- -- -- -- -- -- -- --  -- -- -- -- -- -- -- --
0090:                                      5E 69 64 6C              ^idl
00A0: 30 1C 01 80 00                                    0....           
```

#### Opcodes

```
  0: 0x009C [0x5E] EventEntity goes idle (kills current action) (animation: "idl0")
  1: 0x00A1 [0x1C] WAIT(30* ticks)
  2: 0x00A4 [0x00] END_REQSTACK()
```

### Event 13

#### Metadata

| Field        | Value     |
|--------------|-----------|
| Entrypoint   | 0x00A5    |
| Data Size    | 446 bytes |
| Instructions | 62        |

```
      00 01 02 03 04 05 06 07  08 09 0A 0B 0C 0D 0E 0F
      -- -- -- -- -- -- -- --  -- -- -- -- -- -- -- --
00A0:                20 01 42  46 01 5D 02 80 03 80 45        .BF.]....E
00B0: 03 80 F0 FF FF 7F F0 FF  FF 7F 66 64 6F 31 02 80  ..........fdo1..
00C0: 1C 04 80 38 05 80 5C 00  06 80 5C 01 06 80 5D 07  ...8..\...\...].
00D0: 80 08 80 29 0B F0 FF FF  7F 0C 1C 09 80 45 0A 80  ...).........E..
00E0: F0 FF FF 7F F0 FF FF 7F  73 30 30 30 02 80 45 03  ........s000..E.
00F0: 80 F0 FF FF 7F F0 FF FF  7F 66 64 69 31 02 80 1C  .........fdi1...
0100: 0B 80 1E F0 FF FF 7F 27  0B F0 FF FF 7F 0E 1C 0C  .......'........
0110: 80 6F 70 27 0B B8 C1 0C  01 0B 55 0A 80 F0 FF FF  .op'......U.....
0120: 7F F0 FF FF 7F 73 30 30  30 45 03 80 F0 FF FF 7F  .....s000E......
0130: F0 FF FF 7F 6F 76 6C 31  02 80 45 0A 80 F0 FF FF  ....ovl1..E.....
0140: 7F F0 FF FF 7F 73 30 30  31 02 80 4E 01 F0 FF FF  .....s001..N....
0150: 7F 2A 0B F0 FF FF 7F 2A  0B B8 C1 0C 01 1E F0 FF  .*.....*........
0160: FF 7F 29 0B B8 C1 0C 01  0E 45 03 80 F0 FF FF 7F  ..)......E......
0170: F0 FF FF 7F 66 64 6F 31  02 80 1C 0B 80 45 0A 80  ....fdo1.....E..
0180: F0 FF FF 7F F0 FF FF 7F  73 30 30 32 02 80 4E 00  ........s002..N.
0190: F0 FF FF 7F 45 03 80 F0  FF FF 7F F0 FF FF 7F 66  ....E..........f
01A0: 64 69 31 02 80 29 0B B8  C1 0C 01 0F 52 0A 80 F0  di1..)......R...
01B0: FF FF 7F F0 FF FF 7F 73  30 30 32 45 0A 80 F0 FF  .......s002E....
01C0: FF 7F F0 FF FF 7F 73 30  30 34 02 80 27 08 B8 C1  ......s004..'...
01D0: 0C 01 05 1D 0D 80 23 29  0B B8 C1 0C 01 10 2A 08  ......#)......*.
01E0: B8 C1 0C 01 45 0A 80 F0  FF FF 7F F0 FF FF 7F 73  ....E..........s
01F0: 30 30 33 02 80 27 0B B8  C1 0C 01 0C 29 0B B9 C1  003..'......)...
0200: 0C 01 02 2A 0B B8 C1 0C  01 4B B8 C1 0C 01 0E 80  ...*.....K......
0210: 5D 02 80 03 80 1D 0F 80  23 45 03 80 F0 FF FF 7F  ].......#E......
0220: F0 FF FF 7F 66 64 6F 31  02 80 1C 04 80 52 0A 80  ....fdo1.....R..
0230: F0 FF FF 7F F0 FF FF 7F  73 30 30 33 5C 00 02 80  ........s003\...
0240: 5C 01 02 80 5D 07 80 08  80 1C 09 80 46 00 45 03  \...].......F.E.
0250: 80 F0 FF FF 7F F0 FF FF  7F 66 64 69 31 02 80 20  .........fdi1.. 
0260: 00 21 00                                          .!.             
```

#### Opcodes

```
  0: 0x00A5 [0x20] SET_CLI_EVENT_UC_FLAG: Lock player control
  1: 0x00A7 [0x42] SET_CLI_EVENT_CANCEL_DATA()
  2: 0x00A8 [0x46] CAMERA_CONTROL: Disable user control
  3: 0x00AA [0x5D] SET_MUSIC_VOLUME(volume=0*, fade_time=200*)
  4: 0x00AF [0x45] LOAD_SCHEDULED_TASK: Load scheduler "fdo1" with entities [LocalPlayer, LocalPlayer], work=[200*, 0*]
  5: 0x00C0 [0x1C] WAIT(60* ticks)
  6: 0x00C3 [0x38] SET_CLIENT_EVENT_MODE(mode=19*)
  7: 0x00C6 [0x5C] MUSIC_CONTROL: Set Idle (Day) music to song 164*
  8: 0x00CA [0x5C] MUSIC_CONTROL: Set Idle (Night) music to song 164*
  9: 0x00CE [0x5D] SET_MUSIC_VOLUME(volume=127*, fade_time=1*)
 10: 0x00D3 [0x29] REQ_SET_WAIT(priority=0x0B, entity_id=LocalPlayer, tag_num=0x0C)
 11: 0x00DA [0x1C] WAIT(300* ticks)
 12: 0x00DD [0x45] LOAD_SCHEDULED_TASK: Load scheduler "s000" with entities [LocalPlayer, LocalPlayer], work=[15*, 0*]
 13: 0x00EE [0x45] LOAD_SCHEDULED_TASK: Load scheduler "fdi1" with entities [LocalPlayer, LocalPlayer], work=[200*, 0*]
 14: 0x00FF [0x1C] WAIT(100* ticks)
 15: 0x0102 [0x1E] EventEntity looks at LocalPlayer and starts talking
 16: 0x0107 [0x27] REQ_SET(priority=0x0B, entity_id=LocalPlayer, tag_num=0x0E)
 17: 0x010E [0x1C] WAIT(120* ticks)
 18: 0x0111 [0x6F] WAIT_FRAME_DELAY: Yield until WaitTime reaches zero
 19: 0x0112 [0x70] WAIT_ENTITY_RENDER_FLAG: Wait while EventEntity->Render.Flags3 bit 2 is set (cancel turn if not)
 20: 0x0113 [0x27] REQ_SET(priority=0x0B, entity_id=Rukususu (ID: 17613240/0x010CC1B8), tag_num=0x0B)
 21: 0x011A [0x55] WAIT_LOAD_SCHEDULER: Wait for scheduler "s000" with entities [LocalPlayer, LocalPlayer], work=15*
 22: 0x0129 [0x45] LOAD_SCHEDULED_TASK: Load scheduler "ovl1" with entities [LocalPlayer, LocalPlayer], work=[200*, 0*]
 23: 0x013A [0x45] LOAD_SCHEDULED_TASK: Load scheduler "s001" with entities [LocalPlayer, LocalPlayer], work=[15*, 0*]
 24: 0x014B [0x4E] SET_ENTITY_HIDE_FLAG: Hide LocalPlayer
 25: 0x0151 [0x2A] GET_REQ_LEVEL(level=11, entity_id=LocalPlayer)
 26: 0x0157 [0x2A] GET_REQ_LEVEL(level=11, entity_id=Rukususu (ID: 17613240/0x010CC1B8))
 27: 0x015D [0x1E] EventEntity looks at LocalPlayer and starts talking
 28: 0x0162 [0x29] REQ_SET_WAIT(priority=0x0B, entity_id=Rukususu (ID: 17613240/0x010CC1B8), tag_num=0x0E)
 29: 0x0169 [0x45] LOAD_SCHEDULED_TASK: Load scheduler "fdo1" with entities [LocalPlayer, LocalPlayer], work=[200*, 0*]
 30: 0x017A [0x1C] WAIT(100* ticks)
 31: 0x017D [0x45] LOAD_SCHEDULED_TASK: Load scheduler "s002" with entities [LocalPlayer, LocalPlayer], work=[15*, 0*]
 32: 0x018E [0x4E] SET_ENTITY_HIDE_FLAG: Show LocalPlayer
 33: 0x0194 [0x45] LOAD_SCHEDULED_TASK: Load scheduler "fdi1" with entities [LocalPlayer, LocalPlayer], work=[200*, 0*]
 34: 0x01A5 [0x29] REQ_SET_WAIT(priority=0x0B, entity_id=Rukususu (ID: 17613240/0x010CC1B8), tag_num=0x0F)
 35: 0x01AC [0x52] END_LOAD_SCHEDULER: End scheduler "s002" with entities [LocalPlayer, LocalPlayer], work=15*
 36: 0x01BB [0x45] LOAD_SCHEDULED_TASK: Load scheduler "s004" with entities [LocalPlayer, LocalPlayer], work=[15*, 0*]
 37: 0x01CC [0x27] REQ_SET(priority=0x08, entity_id=Rukususu (ID: 17613240/0x010CC1B8), tag_num=0x05)
 38: 0x01D3 [0x1D] PRINT_EVENT_MESSAGE(message_id=7350*)
    → "However, it's as I thoughtaru... Ze magique zat you have brought to moi has been half-erased by some strange power."
 39: 0x01D6 [0x23] WAIT_FOR_DIALOG_INTERACTION
 40: 0x01D7 [0x29] REQ_SET_WAIT(priority=0x0B, entity_id=Rukususu (ID: 17613240/0x010CC1B8), tag_num=0x10)
 41: 0x01DE [0x2A] GET_REQ_LEVEL(level=8, entity_id=Rukususu (ID: 17613240/0x010CC1B8))
 42: 0x01E4 [0x45] LOAD_SCHEDULED_TASK: Load scheduler "s003" with entities [LocalPlayer, LocalPlayer], work=[15*, 0*]
 43: 0x01F5 [0x27] REQ_SET(priority=0x0B, entity_id=Rukususu (ID: 17613240/0x010CC1B8), tag_num=0x0C)
 44: 0x01FC [0x29] REQ_SET_WAIT(priority=0x0B, entity_id=Unnamed NPC (ID: 17613241/0x010CC1B9), tag_num=0x02)
 45: 0x0203 [0x2A] GET_REQ_LEVEL(level=11, entity_id=Rukususu (ID: 17613240/0x010CC1B8))
 46: 0x0209 [0x4B] UPDATE_ENTITY_YAW(entity=Rukususu (ID: 17613240/0x010CC1B8), yaw=5.5°*)
 47: 0x0210 [0x5D] SET_MUSIC_VOLUME(volume=0*, fade_time=200*)
 48: 0x0215 [0x1D] PRINT_EVENT_MESSAGE(message_id=7353*)
    → "If you battle certain magical creatures, it may have an adverse effectaru on zat magique tome."
 49: 0x0218 [0x23] WAIT_FOR_DIALOG_INTERACTION
 50: 0x0219 [0x45] LOAD_SCHEDULED_TASK: Load scheduler "fdo1" with entities [LocalPlayer, LocalPlayer], work=[200*, 0*]
 51: 0x022A [0x1C] WAIT(60* ticks)
 52: 0x022D [0x52] END_LOAD_SCHEDULER: End scheduler "s003" with entities [LocalPlayer, LocalPlayer], work=15*
 53: 0x023C [0x5C] MUSIC_CONTROL: Set Idle (Day) music to song 0*
 54: 0x0240 [0x5C] MUSIC_CONTROL: Set Idle (Night) music to song 0*
 55: 0x0244 [0x5D] SET_MUSIC_VOLUME(volume=127*, fade_time=1*)
 56: 0x0249 [0x1C] WAIT(300* ticks)
 57: 0x024C [0x46] CAMERA_CONTROL: Restore default settings
 58: 0x024E [0x45] LOAD_SCHEDULED_TASK: Load scheduler "fdi1" with entities [LocalPlayer, LocalPlayer], work=[200*, 0*]
 59: 0x025F [0x20] SET_CLI_EVENT_UC_FLAG: Unlock player control
 60: 0x0261 [0x21] END_EVENT
 61: 0x0262 [0x00] END_REQSTACK()
```

### Event 65535.9

#### Metadata

| Field        | Value   |
|--------------|---------|
| Entrypoint   | 0x0263  |
| Data Size    | 8 bytes |
| Instructions | 2       |

```
      00 01 02 03 04 05 06 07  08 09 0A 0B 0C 0D 0E 0F
      -- -- -- -- -- -- -- --  -- -- -- -- -- -- -- --
0260:          36 10 80 11 80  12 80 00                    6.......     
```

#### Opcodes

```
  0: 0x0263 [0x36] SET_ENTITY_EVENT_POSITION(pos_x=-192.975*, pos_z=189.916*, pos_y=0.084*)
  1: 0x026A [0x00] END_REQSTACK()
```

### Event 65535.10

#### Metadata

| Field        | Value    |
|--------------|----------|
| Entrypoint   | 0x026B   |
| Data Size    | 14 bytes |
| Instructions | 4        |

```
      00 01 02 03 04 05 06 07  08 09 0A 0B 0C 0D 0E 0F
      -- -- -- -- -- -- -- --  -- -- -- -- -- -- -- --
0260:                                   32 13 80 1F 00             2....
0270: 10 80 11 80 12 80 1F 01  00                       .........       
```

#### Opcodes

```
  0: 0x026B [0x32] ExtData[1]->MainSpeed = 13* * 0.1
  1: 0x026E [0x1F] MOVE_ENTITY: EventEntity moves to X=-192.975*, Z=189.916*, Y=0.084*
  2: 0x0276 [0x1F] MOVE_ENTITY: Update entity position (mode=1)
  3: 0x0278 [0x00] END_REQSTACK()
```

### Event 65535.11

#### Metadata

| Field        | Value    |
|--------------|----------|
| Entrypoint   | 0x0279   |
| Data Size    | 14 bytes |
| Instructions | 4        |

```
      00 01 02 03 04 05 06 07  08 09 0A 0B 0C 0D 0E 0F
      -- -- -- -- -- -- -- --  -- -- -- -- -- -- -- --
0270:                             32 13 80 1F 00 14 80           2......
0280: 15 80 16 80 1F 01 00                              .......         
```

#### Opcodes

```
  0: 0x0279 [0x32] ExtData[1]->MainSpeed = 13* * 0.1
  1: 0x027C [0x1F] MOVE_ENTITY: EventEntity moves to X=-194.159*, Z=189.885*, Y=0.022*
  2: 0x0284 [0x1F] MOVE_ENTITY: Update entity position (mode=1)
  3: 0x0286 [0x00] END_REQSTACK()
```

### Event 65535.12

#### Metadata

| Field        | Value    |
|--------------|----------|
| Entrypoint   | 0x0287   |
| Data Size    | 14 bytes |
| Instructions | 4        |

```
      00 01 02 03 04 05 06 07  08 09 0A 0B 0C 0D 0E 0F
      -- -- -- -- -- -- -- --  -- -- -- -- -- -- -- --
0280:                      32  17 80 1F 00 10 80 11 80         2........
0290: 12 80 1F 01 00                                    .....           
```

#### Opcodes

```
  0: 0x0287 [0x32] ExtData[1]->MainSpeed = 40* * 0.1
  1: 0x028A [0x1F] MOVE_ENTITY: EventEntity moves to X=-192.975*, Z=189.916*, Y=0.084*
  2: 0x0292 [0x1F] MOVE_ENTITY: Update entity position (mode=1)
  3: 0x0294 [0x00] END_REQSTACK()
```

### Event 65535.13

#### Metadata

| Field        | Value   |
|--------------|---------|
| Entrypoint   | 0x0295  |
| Data Size    | 9 bytes |
| Instructions | 5       |

```
      00 01 02 03 04 05 06 07  08 09 0A 0B 0C 0D 0E 0F
      -- -- -- -- -- -- -- --  -- -- -- -- -- -- -- --
0290:                1D 18 80  23 1D 19 80 23 00             ...#...#.  
```

#### Opcodes

```
  0: 0x0295 [0x1D] PRINT_EVENT_MESSAGE(message_id=7347*)
    → "Qu'est-ce que c'est? Oh, you were looking pour moi?"
  1: 0x0298 [0x23] WAIT_FOR_DIALOG_INTERACTION
  2: 0x0299 [0x1D] PRINT_EVENT_MESSAGE(message_id=7348*)
    → "I'm really quite busy-wusy studying zis golem at ze momentaru. If you have something to say to moi, say it tout suite."
  3: 0x029C [0x23] WAIT_FOR_DIALOG_INTERACTION
  4: 0x029D [0x00] END_REQSTACK()
```

### Event 65535.14

#### Metadata

| Field        | Value   |
|--------------|---------|
| Entrypoint   | 0x029E  |
| Data Size    | 5 bytes |
| Instructions | 3       |

```
      00 01 02 03 04 05 06 07  08 09 0A 0B 0C 0D 0E 0F
      -- -- -- -- -- -- -- --  -- -- -- -- -- -- -- --
0290:                                            1D 1A                ..
02A0: 80 23 00                                          .#.             
```

#### Opcodes

```
  0: 0x029E [0x1D] PRINT_EVENT_MESSAGE(message_id=7349*)
    → "You came all ze way from Windurst? Well now, zat's quite a journey."
  1: 0x02A1 [0x23] WAIT_FOR_DIALOG_INTERACTION
  2: 0x02A2 [0x00] END_REQSTACK()
```

### Event 65535.15

#### Metadata

| Field        | Value   |
|--------------|---------|
| Entrypoint   | 0x02A3  |
| Data Size    | 5 bytes |
| Instructions | 3       |

```
      00 01 02 03 04 05 06 07  08 09 0A 0B 0C 0D 0E 0F
      -- -- -- -- -- -- -- --  -- -- -- -- -- -- -- --
02A0:          1D 1B 80 23 00                              ...#.        
```

#### Opcodes

```
  0: 0x02A3 [0x1D] PRINT_EVENT_MESSAGE(message_id=7351*)
    → "Please hand zis back to ze Rhinosterie research team outside on ze Beaucedine Glacier. Zey should be able to restore ze lost magique."
  1: 0x02A6 [0x23] WAIT_FOR_DIALOG_INTERACTION
  2: 0x02A7 [0x00] END_REQSTACK()
```

### Event 14

#### Metadata

| Field        | Value     |
|--------------|-----------|
| Entrypoint   | 0x02A8    |
| Data Size    | 554 bytes |
| Instructions | 77        |

```
      00 01 02 03 04 05 06 07  08 09 0A 0B 0C 0D 0E 0F
      -- -- -- -- -- -- -- --  -- -- -- -- -- -- -- --
02A0:                          20 01 42 46 01 5D 02 80           .BF.]..
02B0: 03 80 45 03 80 F0 FF FF  7F F0 FF FF 7F 66 64 6F  ..E..........fdo
02C0: 31 02 80 1C 04 80 38 05  80 5C 00 06 80 5C 01 06  1.....8..\...\..
02D0: 80 5D 07 80 08 80 29 0B  F0 FF FF 7F 0C 1C 09 80  .]....).........
02E0: 02 03 10 08 80 00 26 03  45 0A 80 F0 FF FF 7F F0  ......&.E.......
02F0: FF FF 7F 73 30 30 34 02  80 29 0B F0 FF FF 7F 0D  ...s004..)......
0300: 29 0B B8 C1 0C 01 0A 1E  F0 FF FF 7F 6F 70 45 03  )...........opE.
0310: 80 F0 FF FF 7F F0 FF FF  7F 66 64 69 31 02 80 1D  .........fdi1...
0320: 1C 80 23 01 19 04 45 0A  80 F0 FF FF 7F F0 FF FF  ..#...E.........
0330: 7F 73 30 30 30 02 80 45  03 80 F0 FF FF 7F F0 FF  .s000..E........
0340: FF 7F 66 64 69 31 02 80  1C 0B 80 1E F0 FF FF 7F  ..fdi1..........
0350: 27 0B F0 FF FF 7F 0E 1C  0C 80 6F 70 27 0B B8 C1  '.........op'...
0360: 0C 01 0B 55 0A 80 F0 FF  FF 7F F0 FF FF 7F 73 30  ...U..........s0
0370: 30 30 45 03 80 F0 FF FF  7F F0 FF FF 7F 6F 76 6C  00E..........ovl
0380: 31 02 80 45 0A 80 F0 FF  FF 7F F0 FF FF 7F 73 30  1..E..........s0
0390: 30 31 02 80 4E 01 F0 FF  FF 7F 2A 0B F0 FF FF 7F  01..N.....*.....
03A0: 2A 0B B8 C1 0C 01 1E F0  FF FF 7F 29 0B B8 C1 0C  *..........)....
03B0: 01 0E 45 03 80 F0 FF FF  7F F0 FF FF 7F 66 64 6F  ..E..........fdo
03C0: 31 02 80 1C 0B 80 45 0A  80 F0 FF FF 7F F0 FF FF  1.....E.........
03D0: 7F 73 30 30 32 02 80 4E  00 F0 FF FF 7F 45 03 80  .s002..N.....E..
03E0: F0 FF FF 7F F0 FF FF 7F  66 64 69 31 02 80 29 0B  ........fdi1..).
03F0: B8 C1 0C 01 12 52 0A 80  F0 FF FF 7F F0 FF FF 7F  .....R..........
0400: 73 30 30 32 45 0A 80 F0  FF FF 7F F0 FF FF 7F 73  s002E..........s
0410: 30 30 34 02 80 1D 1D 80  23 45 0A 80 F0 FF FF 7F  004.....#E......
0420: F0 FF FF 7F 73 30 30 33  02 80 27 0B B8 C1 0C 01  ....s003..'.....
0430: 0C 29 0B B9 C1 0C 01 04  2A 0B B8 C1 0C 01 52 0A  .)......*.....R.
0440: 80 F0 FF FF 7F F0 FF FF  7F 73 30 30 33 27 0B F0  .........s003'..
0450: FF FF 7F 0F 1C 04 80 4A  B8 C1 0C 01 F0 FF FF 7F  .......J........
0460: 6F 70 29 0B B8 C1 0C 01  0D 29 0B B8 C1 0C 01 13  op)......)......
0470: 45 0A 80 F0 FF FF 7F F0  FF FF 7F 73 30 30 31 02  E..........s001.
0480: 80 2A 0B F0 FF FF 7F 4A  F0 FF FF 7F B8 C1 0C 01  .*.....J........
0490: 29 0B B8 C1 0C 01 14 45  03 80 F0 FF FF 7F F0 FF  )......E........
04A0: FF 7F 66 64 6F 31 02 80  1C 04 80 5C 00 02 80 5C  ..fdo1.....\...\
04B0: 01 02 80 5D 07 80 08 80  1C 09 80 46 00 45 03 80  ...].......F.E..
04C0: F0 FF FF 7F F0 FF FF 7F  66 64 69 31 02 80 20 01  ........fdi1.. .
04D0: 21 00                                             !.              
```

#### Opcodes

```
  0: 0x02A8 [0x20] SET_CLI_EVENT_UC_FLAG: Lock player control
  1: 0x02AA [0x42] SET_CLI_EVENT_CANCEL_DATA()
  2: 0x02AB [0x46] CAMERA_CONTROL: Disable user control
  3: 0x02AD [0x5D] SET_MUSIC_VOLUME(volume=0*, fade_time=200*)
  4: 0x02B2 [0x45] LOAD_SCHEDULED_TASK: Load scheduler "fdo1" with entities [LocalPlayer, LocalPlayer], work=[200*, 0*]
  5: 0x02C3 [0x1C] WAIT(60* ticks)
  6: 0x02C6 [0x38] SET_CLIENT_EVENT_MODE(mode=19*)
  7: 0x02C9 [0x5C] MUSIC_CONTROL: Set Idle (Day) music to song 164*
  8: 0x02CD [0x5C] MUSIC_CONTROL: Set Idle (Night) music to song 164*
  9: 0x02D1 [0x5D] SET_MUSIC_VOLUME(volume=127*, fade_time=1*)
 10: 0x02D6 [0x29] REQ_SET_WAIT(priority=0x0B, entity_id=LocalPlayer, tag_num=0x0C)
 11: 0x02DD [0x1C] WAIT(300* ticks)
 12: 0x02E0 [0x02] IF !(Work_Zone[3] == 1*) GOTO 0x0326
 13: 0x02E8 [0x45] LOAD_SCHEDULED_TASK: Load scheduler "s004" with entities [LocalPlayer, LocalPlayer], work=[15*, 0*]
 14: 0x02F9 [0x29] REQ_SET_WAIT(priority=0x0B, entity_id=LocalPlayer, tag_num=0x0D)
 15: 0x0300 [0x29] REQ_SET_WAIT(priority=0x0B, entity_id=Rukususu (ID: 17613240/0x010CC1B8), tag_num=0x0A)
 16: 0x0307 [0x1E] EventEntity looks at LocalPlayer and starts talking
 17: 0x030C [0x6F] WAIT_FRAME_DELAY: Yield until WaitTime reaches zero
 18: 0x030D [0x70] WAIT_ENTITY_RENDER_FLAG: Wait while EventEntity->Render.Flags3 bit 2 is set (cancel turn if not)
 19: 0x030E [0x45] LOAD_SCHEDULED_TASK: Load scheduler "fdi1" with entities [LocalPlayer, LocalPlayer], work=[200*, 0*]
 20: 0x031F [0x1D] PRINT_EVENT_MESSAGE(message_id=7356*)
    → "Ah! You've succeeded! C'est magnifique! Finally, you have brought moi ze magique completely intactaru. Merci!"
 21: 0x0322 [0x23] WAIT_FOR_DIALOG_INTERACTION
 22: 0x0323 [0x01] GOTO 0x0419
 23: 0x0326 [0x45] LOAD_SCHEDULED_TASK: Load scheduler "s000" with entities [LocalPlayer, LocalPlayer], work=[15*, 0*]
 24: 0x0337 [0x45] LOAD_SCHEDULED_TASK: Load scheduler "fdi1" with entities [LocalPlayer, LocalPlayer], work=[200*, 0*]
 25: 0x0348 [0x1C] WAIT(100* ticks)
 26: 0x034B [0x1E] EventEntity looks at LocalPlayer and starts talking
 27: 0x0350 [0x27] REQ_SET(priority=0x0B, entity_id=LocalPlayer, tag_num=0x0E)
 28: 0x0357 [0x1C] WAIT(120* ticks)
 29: 0x035A [0x6F] WAIT_FRAME_DELAY: Yield until WaitTime reaches zero
 30: 0x035B [0x70] WAIT_ENTITY_RENDER_FLAG: Wait while EventEntity->Render.Flags3 bit 2 is set (cancel turn if not)
 31: 0x035C [0x27] REQ_SET(priority=0x0B, entity_id=Rukususu (ID: 17613240/0x010CC1B8), tag_num=0x0B)
 32: 0x0363 [0x55] WAIT_LOAD_SCHEDULER: Wait for scheduler "s000" with entities [LocalPlayer, LocalPlayer], work=15*
 33: 0x0372 [0x45] LOAD_SCHEDULED_TASK: Load scheduler "ovl1" with entities [LocalPlayer, LocalPlayer], work=[200*, 0*]
 34: 0x0383 [0x45] LOAD_SCHEDULED_TASK: Load scheduler "s001" with entities [LocalPlayer, LocalPlayer], work=[15*, 0*]
 35: 0x0394 [0x4E] SET_ENTITY_HIDE_FLAG: Hide LocalPlayer
 36: 0x039A [0x2A] GET_REQ_LEVEL(level=11, entity_id=LocalPlayer)
 37: 0x03A0 [0x2A] GET_REQ_LEVEL(level=11, entity_id=Rukususu (ID: 17613240/0x010CC1B8))
 38: 0x03A6 [0x1E] EventEntity looks at LocalPlayer and starts talking
 39: 0x03AB [0x29] REQ_SET_WAIT(priority=0x0B, entity_id=Rukususu (ID: 17613240/0x010CC1B8), tag_num=0x0E)
 40: 0x03B2 [0x45] LOAD_SCHEDULED_TASK: Load scheduler "fdo1" with entities [LocalPlayer, LocalPlayer], work=[200*, 0*]
 41: 0x03C3 [0x1C] WAIT(100* ticks)
 42: 0x03C6 [0x45] LOAD_SCHEDULED_TASK: Load scheduler "s002" with entities [LocalPlayer, LocalPlayer], work=[15*, 0*]
 43: 0x03D7 [0x4E] SET_ENTITY_HIDE_FLAG: Show LocalPlayer
 44: 0x03DD [0x45] LOAD_SCHEDULED_TASK: Load scheduler "fdi1" with entities [LocalPlayer, LocalPlayer], work=[200*, 0*]
 45: 0x03EE [0x29] REQ_SET_WAIT(priority=0x0B, entity_id=Rukususu (ID: 17613240/0x010CC1B8), tag_num=0x12)
 46: 0x03F5 [0x52] END_LOAD_SCHEDULER: End scheduler "s002" with entities [LocalPlayer, LocalPlayer], work=15*
 47: 0x0404 [0x45] LOAD_SCHEDULED_TASK: Load scheduler "s004" with entities [LocalPlayer, LocalPlayer], work=[15*, 0*]
 48: 0x0415 [0x1D] PRINT_EVENT_MESSAGE(message_id=7355*)
    → "Ah! You've succeeded! C'est magnifique! We've had all sorts of bother-wother trying to get Doctor Shantotto's magique here intact."
 49: 0x0418 [0x23] WAIT_FOR_DIALOG_INTERACTION

SUBROUTINE_0419:
 50: 0x0419 [0x45] LOAD_SCHEDULED_TASK: Load scheduler "s003" with entities [LocalPlayer, LocalPlayer], work=[15*, 0*]
 51: 0x042A [0x27] REQ_SET(priority=0x0B, entity_id=Rukususu (ID: 17613240/0x010CC1B8), tag_num=0x0C)
 52: 0x0431 [0x29] REQ_SET_WAIT(priority=0x0B, entity_id=Unnamed NPC (ID: 17613241/0x010CC1B9), tag_num=0x04)
 53: 0x0438 [0x2A] GET_REQ_LEVEL(level=11, entity_id=Rukususu (ID: 17613240/0x010CC1B8))
 54: 0x043E [0x52] END_LOAD_SCHEDULER: End scheduler "s003" with entities [LocalPlayer, LocalPlayer], work=15*
 55: 0x044D [0x27] REQ_SET(priority=0x0B, entity_id=LocalPlayer, tag_num=0x0F)
 56: 0x0454 [0x1C] WAIT(60* ticks)
 57: 0x0457 [0x4A] Rukususu (ID: 17613240/0x010CC1B8) looks at LocalPlayer
 58: 0x0460 [0x6F] WAIT_FRAME_DELAY: Yield until WaitTime reaches zero
 59: 0x0461 [0x70] WAIT_ENTITY_RENDER_FLAG: Wait while EventEntity->Render.Flags3 bit 2 is set (cancel turn if not)
 60: 0x0462 [0x29] REQ_SET_WAIT(priority=0x0B, entity_id=Rukususu (ID: 17613240/0x010CC1B8), tag_num=0x0D)
 61: 0x0469 [0x29] REQ_SET_WAIT(priority=0x0B, entity_id=Rukususu (ID: 17613240/0x010CC1B8), tag_num=0x13)
 62: 0x0470 [0x45] LOAD_SCHEDULED_TASK: Load scheduler "s001" with entities [LocalPlayer, LocalPlayer], work=[15*, 0*]
 63: 0x0481 [0x2A] GET_REQ_LEVEL(level=11, entity_id=LocalPlayer)
 64: 0x0487 [0x4A] LocalPlayer looks at Rukususu (ID: 17613240/0x010CC1B8)
 65: 0x0490 [0x29] REQ_SET_WAIT(priority=0x0B, entity_id=Rukususu (ID: 17613240/0x010CC1B8), tag_num=0x14)
 66: 0x0497 [0x45] LOAD_SCHEDULED_TASK: Load scheduler "fdo1" with entities [LocalPlayer, LocalPlayer], work=[200*, 0*]
 67: 0x04A8 [0x1C] WAIT(60* ticks)
 68: 0x04AB [0x5C] MUSIC_CONTROL: Set Idle (Day) music to song 0*
 69: 0x04AF [0x5C] MUSIC_CONTROL: Set Idle (Night) music to song 0*
 70: 0x04B3 [0x5D] SET_MUSIC_VOLUME(volume=127*, fade_time=1*)
 71: 0x04B8 [0x1C] WAIT(300* ticks)
 72: 0x04BB [0x46] CAMERA_CONTROL: Restore default settings
 73: 0x04BD [0x45] LOAD_SCHEDULED_TASK: Load scheduler "fdi1" with entities [LocalPlayer, LocalPlayer], work=[200*, 0*]
 74: 0x04CE [0x20] SET_CLI_EVENT_UC_FLAG: Lock player control
 75: 0x04D0 [0x21] END_EVENT
 76: 0x04D1 [0x00] END_REQSTACK()
```

### Event 65535.16

#### Metadata

| Field        | Value   |
|--------------|---------|
| Entrypoint   | 0x04D2  |
| Data Size    | 5 bytes |
| Instructions | 3       |

```
      00 01 02 03 04 05 06 07  08 09 0A 0B 0C 0D 0E 0F
      -- -- -- -- -- -- -- --  -- -- -- -- -- -- -- --
04D0:       1D 1E 80 23 00                                ...#.         
```

#### Opcodes

```
  0: 0x04D2 [0x1D] PRINT_EVENT_MESSAGE(message_id=7354*)
    → "You came all ze way from Windurst? Well now, zat's quite a journey."
  1: 0x04D5 [0x23] WAIT_FOR_DIALOG_INTERACTION
  2: 0x04D6 [0x00] END_REQSTACK()
```

### Event 65535.17

#### Metadata

| Field        | Value   |
|--------------|---------|
| Entrypoint   | 0x04D7  |
| Data Size    | 5 bytes |
| Instructions | 3       |

```
      00 01 02 03 04 05 06 07  08 09 0A 0B 0C 0D 0E 0F
      -- -- -- -- -- -- -- --  -- -- -- -- -- -- -- --
04D0:                      1D  1F 80 23 00                     ...#.    
```

#### Opcodes

```
  0: 0x04D7 [0x1D] PRINT_EVENT_MESSAGE(message_id=7358*)
    → "Just un momentaru..."
  1: 0x04DA [0x23] WAIT_FOR_DIALOG_INTERACTION
  2: 0x04DB [0x00] END_REQSTACK()
```

### Event 65535.18

#### Metadata

| Field        | Value    |
|--------------|----------|
| Entrypoint   | 0x04DC   |
| Data Size    | 23 bytes |
| Instructions | 7        |

```
      00 01 02 03 04 05 06 07  08 09 0A 0B 0C 0D 0E 0F
      -- -- -- -- -- -- -- --  -- -- -- -- -- -- -- --
04D0:                                      1D 20 80 23              . .#
04E0: 29 08 B8 C1 0C 01 01 1D  21 80 23 29 08 B8 C1 0C  ).......!.#)....
04F0: 01 02 00                                          ...             
```

#### Opcodes

```
  0: 0x04DC [0x1D] PRINT_EVENT_MESSAGE(message_id=7359*)
    → "Doctor Shantotto didn't mention anything aboutaru ghosts or onions...did she?"
  1: 0x04DF [0x23] WAIT_FOR_DIALOG_INTERACTION
  2: 0x04E0 [0x29] REQ_SET_WAIT(priority=0x08, entity_id=Rukususu (ID: 17613240/0x010CC1B8), tag_num=0x01)
  3: 0x04E7 [0x1D] PRINT_EVENT_MESSAGE(message_id=7360*)
    → "Ah, never mind... Be extra careful on your way home, mon ami."
  4: 0x04EA [0x23] WAIT_FOR_DIALOG_INTERACTION
  5: 0x04EB [0x29] REQ_SET_WAIT(priority=0x08, entity_id=Rukususu (ID: 17613240/0x010CC1B8), tag_num=0x02)
  6: 0x04F2 [0x00] END_REQSTACK()
```

### Event 15

#### Metadata

| Field        | Value    |
|--------------|----------|
| Entrypoint   | 0x04F3   |
| Data Size    | 15 bytes |
| Instructions | 8        |

```
      00 01 02 03 04 05 06 07  08 09 0A 0B 0C 0D 0E 0F
      -- -- -- -- -- -- -- --  -- -- -- -- -- -- -- --
04F0:          1E F0 FF FF 7F  6F 70 1D 19 80 23 20 01     .....op...# .
0500: 21 00                                             !.              
```

#### Opcodes

```
  0: 0x04F3 [0x1E] EventEntity looks at LocalPlayer and starts talking
  1: 0x04F8 [0x6F] WAIT_FRAME_DELAY: Yield until WaitTime reaches zero
  2: 0x04F9 [0x70] WAIT_ENTITY_RENDER_FLAG: Wait while EventEntity->Render.Flags3 bit 2 is set (cancel turn if not)
  3: 0x04FA [0x1D] PRINT_EVENT_MESSAGE(message_id=7348*)
    → "I'm really quite busy-wusy studying zis golem at ze momentaru. If you have something to say to moi, say it tout suite."
  4: 0x04FD [0x23] WAIT_FOR_DIALOG_INTERACTION
  5: 0x04FE [0x20] SET_CLI_EVENT_UC_FLAG: Lock player control
  6: 0x0500 [0x21] END_EVENT
  7: 0x0501 [0x00] END_REQSTACK()
```

### Event 22

#### Metadata

| Field        | Value     |
|--------------|-----------|
| Entrypoint   | 0x0502    |
| Data Size    | 653 bytes |
| Instructions | 92        |

```
      00 01 02 03 04 05 06 07  08 09 0A 0B 0C 0D 0E 0F
      -- -- -- -- -- -- -- --  -- -- -- -- -- -- -- --
0500:       20 01 42 46 01 5D  02 80 03 80 45 03 80 F0     .BF.]....E...
0510: FF FF 7F F0 FF FF 7F 66  64 6F 31 02 80 1C 04 80  .......fdo1.....
0520: 38 05 80 5C 00 22 80 5C  01 22 80 5D 07 80 08 80  8..\.".\.".]....
0530: 29 0B F0 FF FF 7F 0C 29  0B B8 C1 0C 01 18 1C 09  )......)........
0540: 80 45 0A 80 F0 FF FF 7F  F0 FF FF 7F 73 30 30 30  .E..........s000
0550: 02 80 45 03 80 F0 FF FF  7F F0 FF FF 7F 66 64 69  ..E..........fdi
0560: 31 02 80 1C 0B 80 1E F0  FF FF 7F 27 0B F0 FF FF  1..........'....
0570: 7F 0E 1C 0C 80 6F 70 27  0B B8 C1 0C 01 0B 55 0A  .....op'......U.
0580: 80 F0 FF FF 7F F0 FF FF  7F 73 30 30 30 45 03 80  .........s000E..
0590: F0 FF FF 7F F0 FF FF 7F  6F 76 6C 31 02 80 45 0A  ........ovl1..E.
05A0: 80 F0 FF FF 7F F0 FF FF  7F 73 30 30 31 02 80 4E  .........s001..N
05B0: 01 F0 FF FF 7F 2A 0B F0  FF FF 7F 2A 0B B8 C1 0C  .....*.....*....
05C0: 01 1E F0 FF FF 7F 1D 23  80 23 29 08 B8 C1 0C 01  .......#.#).....
05D0: 01 1D 24 80 23 29 08 B8  C1 0C 01 02 45 03 80 F0  ..$.#)......E...
05E0: FF FF 7F F0 FF FF 7F 66  64 6F 31 02 80 1C 0B 80  .......fdo1.....
05F0: 29 08 B8 C1 0C 01 03 45  0A 80 F0 FF FF 7F F0 FF  )......E........
0600: FF 7F 73 30 30 32 02 80  4E 00 F0 FF FF 7F 45 03  ..s002..N.....E.
0610: 80 F0 FF FF 7F F0 FF FF  7F 66 64 69 31 02 80 1D  .........fdi1...
0620: 25 80 23 52 0A 80 F0 FF  FF 7F F0 FF FF 7F 73 30  %.#R..........s0
0630: 30 32 45 03 80 F0 FF FF  7F F0 FF FF 7F 6F 76 6C  02E..........ovl
0640: 31 02 80 45 0A 80 F0 FF  FF 7F F0 FF FF 7F 73 30  1..E..........s0
0650: 30 34 02 80 27 08 B8 C1  0C 01 04 1D 26 80 23 2A  04..'.......&.#*
0660: 08 B8 C1 0C 01 45 0A 80  F0 FF FF 7F F0 FF FF 7F  .....E..........
0670: 73 31 36 36 02 80 7B B8  C1 0C 01 1D 27 80 23 52  s166..{.....'.#R
0680: 0A 80 F0 FF FF 7F F0 FF  FF 7F 73 31 36 36 45 03  ..........s166E.
0690: 80 F0 FF FF 7F F0 FF FF  7F 6F 76 6C 31 02 80 45  .........ovl1..E
06A0: 0A 80 F0 FF FF 7F F0 FF  FF 7F 73 30 30 33 02 80  ..........s003..
06B0: 27 0B B8 C1 0C 01 0C 1D  28 80 23 45 03 80 F0 FF  '.......(.#E....
06C0: FF 7F F0 FF FF 7F 66 64  6F 31 02 80 1C 0B 80 2A  ......fdo1.....*
06D0: 0B B8 C1 0C 01 4B B8 C1  0C 01 0E 80 6F 76 B8 C1  .....K......ov..
06E0: 0C 01 45 0A 80 F0 FF FF  7F F0 FF FF 7F 73 31 36  ..E..........s16
06F0: 39 02 80 45 03 80 F0 FF  FF 7F F0 FF FF 7F 66 64  9..E..........fd
0700: 69 31 02 80 1C 01 80 1D  29 80 23 52 0A 80 F0 FF  i1......).#R....
0710: FF 7F F0 FF FF 7F 73 31  36 39 45 0A 80 F0 FF FF  ......s169E.....
0720: 7F F0 FF FF 7F 73 30 30  31 02 80 27 0B B8 C1 0C  .....s001..'....
0730: 01 17 1D 2A 80 23 2A 0B  B8 C1 0C 01 1D 2B 80 23  ...*.#*......+.#
0740: 5D 02 80 03 80 45 03 80  F0 FF FF 7F F0 FF FF 7F  ]....E..........
0750: 66 64 6F 31 02 80 1C 03  80 52 0A 80 F0 FF FF 7F  fdo1.....R......
0760: F0 FF FF 7F 73 30 30 33  5C 00 02 80 5C 01 02 80  ....s003\...\...
0770: 5D 07 80 08 80 1C 09 80  46 00 45 03 80 F0 FF FF  ].......F.E.....
0780: 7F F0 FF FF 7F 66 64 69  31 02 80 20 00 21 00     .....fdi1.. .!. 
```

#### Opcodes

```
  0: 0x0502 [0x20] SET_CLI_EVENT_UC_FLAG: Lock player control
  1: 0x0504 [0x42] SET_CLI_EVENT_CANCEL_DATA()
  2: 0x0505 [0x46] CAMERA_CONTROL: Disable user control
  3: 0x0507 [0x5D] SET_MUSIC_VOLUME(volume=0*, fade_time=200*)
  4: 0x050C [0x45] LOAD_SCHEDULED_TASK: Load scheduler "fdo1" with entities [LocalPlayer, LocalPlayer], work=[200*, 0*]
  5: 0x051D [0x1C] WAIT(60* ticks)
  6: 0x0520 [0x38] SET_CLIENT_EVENT_MODE(mode=19*)
  7: 0x0523 [0x5C] MUSIC_CONTROL: Set Idle (Day) music to song 159*
  8: 0x0527 [0x5C] MUSIC_CONTROL: Set Idle (Night) music to song 159*
  9: 0x052B [0x5D] SET_MUSIC_VOLUME(volume=127*, fade_time=1*)
 10: 0x0530 [0x29] REQ_SET_WAIT(priority=0x0B, entity_id=LocalPlayer, tag_num=0x0C)
 11: 0x0537 [0x29] REQ_SET_WAIT(priority=0x0B, entity_id=Rukususu (ID: 17613240/0x010CC1B8), tag_num=0x18)
 12: 0x053E [0x1C] WAIT(300* ticks)
 13: 0x0541 [0x45] LOAD_SCHEDULED_TASK: Load scheduler "s000" with entities [LocalPlayer, LocalPlayer], work=[15*, 0*]
 14: 0x0552 [0x45] LOAD_SCHEDULED_TASK: Load scheduler "fdi1" with entities [LocalPlayer, LocalPlayer], work=[200*, 0*]
 15: 0x0563 [0x1C] WAIT(100* ticks)
 16: 0x0566 [0x1E] EventEntity looks at LocalPlayer and starts talking
 17: 0x056B [0x27] REQ_SET(priority=0x0B, entity_id=LocalPlayer, tag_num=0x0E)
 18: 0x0572 [0x1C] WAIT(120* ticks)
 19: 0x0575 [0x6F] WAIT_FRAME_DELAY: Yield until WaitTime reaches zero
 20: 0x0576 [0x70] WAIT_ENTITY_RENDER_FLAG: Wait while EventEntity->Render.Flags3 bit 2 is set (cancel turn if not)
 21: 0x0577 [0x27] REQ_SET(priority=0x0B, entity_id=Rukususu (ID: 17613240/0x010CC1B8), tag_num=0x0B)
 22: 0x057E [0x55] WAIT_LOAD_SCHEDULER: Wait for scheduler "s000" with entities [LocalPlayer, LocalPlayer], work=15*
 23: 0x058D [0x45] LOAD_SCHEDULED_TASK: Load scheduler "ovl1" with entities [LocalPlayer, LocalPlayer], work=[200*, 0*]
 24: 0x059E [0x45] LOAD_SCHEDULED_TASK: Load scheduler "s001" with entities [LocalPlayer, LocalPlayer], work=[15*, 0*]
 25: 0x05AF [0x4E] SET_ENTITY_HIDE_FLAG: Hide LocalPlayer
 26: 0x05B5 [0x2A] GET_REQ_LEVEL(level=11, entity_id=LocalPlayer)
 27: 0x05BB [0x2A] GET_REQ_LEVEL(level=11, entity_id=Rukususu (ID: 17613240/0x010CC1B8))
 28: 0x05C1 [0x1E] EventEntity looks at LocalPlayer and starts talking
 29: 0x05C6 [0x1D] PRINT_EVENT_MESSAGE(message_id=7421*)
    → "I never expected to see you here again... You adventurers certainly get around."
 30: 0x05C9 [0x23] WAIT_FOR_DIALOG_INTERACTION
 31: 0x05CA [0x29] REQ_SET_WAIT(priority=0x08, entity_id=Rukususu (ID: 17613240/0x010CC1B8), tag_num=0x01)
 32: 0x05D1 [0x1D] PRINT_EVENT_MESSAGE(message_id=7422*)
    → "...And now what of zee Book of zee Gods? What has become of it since zee ancient restored its magic?"
 33: 0x05D4 [0x23] WAIT_FOR_DIALOG_INTERACTION
 34: 0x05D5 [0x29] REQ_SET_WAIT(priority=0x08, entity_id=Rukususu (ID: 17613240/0x010CC1B8), tag_num=0x02)
 35: 0x05DC [0x45] LOAD_SCHEDULED_TASK: Load scheduler "fdo1" with entities [LocalPlayer, LocalPlayer], work=[200*, 0*]
 36: 0x05ED [0x1C] WAIT(100* ticks)
 37: 0x05F0 [0x29] REQ_SET_WAIT(priority=0x08, entity_id=Rukususu (ID: 17613240/0x010CC1B8), tag_num=0x03)
 38: 0x05F7 [0x45] LOAD_SCHEDULED_TASK: Load scheduler "s002" with entities [LocalPlayer, LocalPlayer], work=[15*, 0*]
 39: 0x0608 [0x4E] SET_ENTITY_HIDE_FLAG: Show LocalPlayer
 40: 0x060E [0x45] LOAD_SCHEDULED_TASK: Load scheduler "fdi1" with entities [LocalPlayer, LocalPlayer], work=[200*, 0*]
 41: 0x061F [0x1D] PRINT_EVENT_MESSAGE(message_id=7423*)
    → "...I see. Zee Star Sibyl has yet to forgive Ajido-Marujido..."
 42: 0x0622 [0x23] WAIT_FOR_DIALOG_INTERACTION
 43: 0x0623 [0x52] END_LOAD_SCHEDULER: End scheduler "s002" with entities [LocalPlayer, LocalPlayer], work=15*
 44: 0x0632 [0x45] LOAD_SCHEDULED_TASK: Load scheduler "ovl1" with entities [LocalPlayer, LocalPlayer], work=[200*, 0*]
 45: 0x0643 [0x45] LOAD_SCHEDULED_TASK: Load scheduler "s004" with entities [LocalPlayer, LocalPlayer], work=[15*, 0*]
 46: 0x0654 [0x27] REQ_SET(priority=0x08, entity_id=Rukususu (ID: 17613240/0x010CC1B8), tag_num=0x04)
 47: 0x065B [0x1D] PRINT_EVENT_MESSAGE(message_id=7424*)
    → "If she is really zat furious... ...It's possible zee Star Sibyl intends to quash all traces of Ajido-Marujido's natural-born magical ability."
 48: 0x065E [0x23] WAIT_FOR_DIALOG_INTERACTION
 49: 0x065F [0x2A] GET_REQ_LEVEL(level=8, entity_id=Rukususu (ID: 17613240/0x010CC1B8))
 50: 0x0665 [0x45] LOAD_SCHEDULED_TASK: Load scheduler "s166" with entities [LocalPlayer, LocalPlayer], work=[15*, 0*]
 51: 0x0676 [0x7B] Rukususu (ID: 17613240/0x010CC1B8) stops talking
 52: 0x067B [0x1D] PRINT_EVENT_MESSAGE(message_id=7425*)
    → "Zee Dark Dungeon has zat kind of power. In my student days, I saw with my own eyes one who had met with such a fate."
 53: 0x067E [0x23] WAIT_FOR_DIALOG_INTERACTION
 54: 0x067F [0x52] END_LOAD_SCHEDULER: End scheduler "s166" with entities [LocalPlayer, LocalPlayer], work=15*
 55: 0x068E [0x45] LOAD_SCHEDULED_TASK: Load scheduler "ovl1" with entities [LocalPlayer, LocalPlayer], work=[200*, 0*]
 56: 0x069F [0x45] LOAD_SCHEDULED_TASK: Load scheduler "s003" with entities [LocalPlayer, LocalPlayer], work=[15*, 0*]
 57: 0x06B0 [0x27] REQ_SET(priority=0x0B, entity_id=Rukususu (ID: 17613240/0x010CC1B8), tag_num=0x0C)
 58: 0x06B7 [0x1D] PRINT_EVENT_MESSAGE(message_id=7426*)
    → "..... And how is poor Apururu holding up? She mustaru be worrying herself sick."
 59: 0x06BA [0x23] WAIT_FOR_DIALOG_INTERACTION
 60: 0x06BB [0x45] LOAD_SCHEDULED_TASK: Load scheduler "fdo1" with entities [LocalPlayer, LocalPlayer], work=[200*, 0*]
 61: 0x06CC [0x1C] WAIT(100* ticks)
 62: 0x06CF [0x2A] GET_REQ_LEVEL(level=11, entity_id=Rukususu (ID: 17613240/0x010CC1B8))
 63: 0x06D5 [0x4B] UPDATE_ENTITY_YAW(entity=Rukususu (ID: 17613240/0x010CC1B8), yaw=5.5°*)
 64: 0x06DC [0x6F] WAIT_FRAME_DELAY: Yield until WaitTime reaches zero
 65: 0x06DD [0x76] CHECK_ENTITY_RENDER_FLAGS: Wait until Rukususu (ID: 17613240/0x010CC1B8) Render.Flags0 and Render.Flags3 conditions are met
 66: 0x06E2 [0x45] LOAD_SCHEDULED_TASK: Load scheduler "s169" with entities [LocalPlayer, LocalPlayer], work=[15*, 0*]
 67: 0x06F3 [0x45] LOAD_SCHEDULED_TASK: Load scheduler "fdi1" with entities [LocalPlayer, LocalPlayer], work=[200*, 0*]
 68: 0x0704 [0x1C] WAIT(30* ticks)
 69: 0x0707 [0x1D] PRINT_EVENT_MESSAGE(message_id=7427*)
    → "And zat is zee course of action she has decided on? ...Such a brave girl."
 70: 0x070A [0x23] WAIT_FOR_DIALOG_INTERACTION
 71: 0x070B [0x52] END_LOAD_SCHEDULER: End scheduler "s169" with entities [LocalPlayer, LocalPlayer], work=15*
 72: 0x071A [0x45] LOAD_SCHEDULED_TASK: Load scheduler "s001" with entities [LocalPlayer, LocalPlayer], work=[15*, 0*]
 73: 0x072B [0x27] REQ_SET(priority=0x0B, entity_id=Rukususu (ID: 17613240/0x010CC1B8), tag_num=0x17)
 74: 0x0732 [0x1D] PRINT_EVENT_MESSAGE(message_id=7428*)
    → "Well, zen. You must take my $3 and return to Windurst. Please help our dear Apururu."
 75: 0x0735 [0x23] WAIT_FOR_DIALOG_INTERACTION
 76: 0x0736 [0x2A] GET_REQ_LEVEL(level=11, entity_id=Rukususu (ID: 17613240/0x010CC1B8))
 77: 0x073C [0x1D] PRINT_EVENT_MESSAGE(message_id=7429*)
    → "Take zee Book of zee Gods to Ajido-Marujido. He is not one to shrink back in zee face of zee truth."
 78: 0x073F [0x23] WAIT_FOR_DIALOG_INTERACTION
 79: 0x0740 [0x5D] SET_MUSIC_VOLUME(volume=0*, fade_time=200*)
 80: 0x0745 [0x45] LOAD_SCHEDULED_TASK: Load scheduler "fdo1" with entities [LocalPlayer, LocalPlayer], work=[200*, 0*]
 81: 0x0756 [0x1C] WAIT(200* ticks)
 82: 0x0759 [0x52] END_LOAD_SCHEDULER: End scheduler "s003" with entities [LocalPlayer, LocalPlayer], work=15*
 83: 0x0768 [0x5C] MUSIC_CONTROL: Set Idle (Day) music to song 0*
 84: 0x076C [0x5C] MUSIC_CONTROL: Set Idle (Night) music to song 0*
 85: 0x0770 [0x5D] SET_MUSIC_VOLUME(volume=127*, fade_time=1*)
 86: 0x0775 [0x1C] WAIT(300* ticks)
 87: 0x0778 [0x46] CAMERA_CONTROL: Restore default settings
 88: 0x077A [0x45] LOAD_SCHEDULED_TASK: Load scheduler "fdi1" with entities [LocalPlayer, LocalPlayer], work=[200*, 0*]
 89: 0x078B [0x20] SET_CLI_EVENT_UC_FLAG: Unlock player control
 90: 0x078D [0x21] END_EVENT
 91: 0x078E [0x00] END_REQSTACK()
```

### Event 65535.19

#### Metadata

| Field        | Value    |
|--------------|----------|
| Entrypoint   | 0x078F   |
| Data Size    | 14 bytes |
| Instructions | 4        |

```
      00 01 02 03 04 05 06 07  08 09 0A 0B 0C 0D 0E 0F
      -- -- -- -- -- -- -- --  -- -- -- -- -- -- -- --
0780:                                               32                 2
0790: 13 80 1F 00 10 80 11 80  12 80 1F 01 00           .............   
```

#### Opcodes

```
  0: 0x078F [0x32] ExtData[1]->MainSpeed = 13* * 0.1
  1: 0x0792 [0x1F] MOVE_ENTITY: EventEntity moves to X=-192.975*, Z=189.916*, Y=0.084*
  2: 0x079A [0x1F] MOVE_ENTITY: Update entity position (mode=1)
  3: 0x079C [0x00] END_REQSTACK()
```

### Event 65535.20

#### Metadata

| Field        | Value    |
|--------------|----------|
| Entrypoint   | 0x079D   |
| Data Size    | 10 bytes |
| Instructions | 2        |

```
      00 01 02 03 04 05 06 07  08 09 0A 0B 0C 0D 0E 0F
      -- -- -- -- -- -- -- --  -- -- -- -- -- -- -- --
0790:                                         37 14 80               7..
07A0: 15 80 16 80 2C 80 00                              ....,..         
```

#### Opcodes

```
  0: 0x079D [0x37] UPDATE_EVENT_POSITION_AND_DIR: x=-194.159*, z=189.885*, y=0.022*, direction=355.7°*
  1: 0x07A6 [0x00] END_REQSTACK()
```
