# 17613243 - Dalzakk

## Common Data

| Field            | Value             |
|------------------|-------------------|
| Zone             | Fei'Yin (ID: 204) |
| Block Size       | 112 bytes         |
| Total Events     | 3                 |
| References Count | 10                |

## List of Events

| Event ID                 | Entrypoint   |   Size |   Instructions |
|--------------------------|--------------|--------|----------------|
| [65535](#event-65535)    | 0x0000       |      1 |              1 |
| [16](#event-16)          | 0x0001       |     26 |              6 |
| [65535.1](#event-655351) | 0x001B       |     14 |              4 |

## DAT References (imed_data)

|   Index | Hex Value   |   Dec Value |
|---------|-------------|-------------|
|       0 | 0x000D      |          13 |
|       1 | 0x001E      |          30 |
|       2 | 0x38CDB     |      232667 |
|       3 | 0xE657      |       58967 |
|       4 | 0xFFFFA147  |  4294943047 |
|       5 | 0x0035      |          53 |
|       6 | 0x39E07     |      237063 |
|       7 | 0xE629      |       58921 |
|       8 | 0x37119     |      225561 |
|       9 | 0xEB4A      |       60234 |

## Events

### Event 65535

#### Metadata

| Field        | Value   |
|--------------|---------|
| Entrypoint   | 0x0000  |
| Data Size    | 1 bytes |
| Instructions | 1       |

```
      00 01 02 03 04 05 06 07  08 09 0A 0B 0C 0D 0E 0F
      -- -- -- -- -- -- -- --  -- -- -- -- -- -- -- --
0000: 00                                                .               
```

#### Opcodes

```
  0: 0x0000 [0x00] END_REQSTACK()
```

### Event 16

#### Metadata

| Field        | Value    |
|--------------|----------|
| Entrypoint   | 0x0001   |
| Data Size    | 26 bytes |
| Instructions | 6        |

```
      00 01 02 03 04 05 06 07  08 09 0A 0B 0C 0D 0E 0F
      -- -- -- -- -- -- -- --  -- -- -- -- -- -- -- --
0000:    32 00 80 1C 01 80 37  02 80 03 80 04 80 05 80   2.....7........
0010: 1F 00 06 80 07 80 04 80  1F 01 00                 ...........     
```

#### Opcodes

```
  0: 0x0001 [0x32] ExtData[1]->MainSpeed = 13* * 0.1
  1: 0x0004 [0x1C] WAIT(30* ticks)
  2: 0x0007 [0x37] UPDATE_EVENT_POSITION_AND_DIR: x=232.667*, z=58.967*, y=-24.249*, direction=4.7°*
  3: 0x0010 [0x1F] MOVE_ENTITY: EventEntity moves to X=237.063*, Z=58.921*, Y=-24.249*
  4: 0x0018 [0x1F] MOVE_ENTITY: Update entity position (mode=1)
  5: 0x001A [0x00] END_REQSTACK()
```

### Event 65535.1

#### Metadata

| Field        | Value    |
|--------------|----------|
| Entrypoint   | 0x001B   |
| Data Size    | 14 bytes |
| Instructions | 4        |

```
      00 01 02 03 04 05 06 07  08 09 0A 0B 0C 0D 0E 0F
      -- -- -- -- -- -- -- --  -- -- -- -- -- -- -- --
0010:                                   32 00 80 1F 00             2....
0020: 08 80 09 80 04 80 1F 01  00                       .........       
```

#### Opcodes

```
  0: 0x001B [0x32] ExtData[1]->MainSpeed = 13* * 0.1
  1: 0x001E [0x1F] MOVE_ENTITY: EventEntity moves to X=225.561*, Z=60.234*, Y=-24.249*
  2: 0x0026 [0x1F] MOVE_ENTITY: Update entity position (mode=1)
  3: 0x0028 [0x00] END_REQSTACK()
```
