# 17613285

## Common Data

| Field            | Value             |
|------------------|-------------------|
| Zone             | Fei'Yin (ID: 204) |
| Block Size       | 472 bytes         |
| Total Events     | 7                 |
| References Count | 35                |

## List of Events

| Event ID              | Entrypoint   |   Size |   Instructions |
|-----------------------|--------------|--------|----------------|
| [65535](#event-65535) | 0x0000       |      1 |              1 |
| [34](#event-34)       | 0x0001       |     85 |             39 |
| [35](#event-35)       | 0x0056       |     72 |             28 |
| [36](#event-36)       | 0x009E       |     34 |             14 |
| [37](#event-37)       | 0x00C0       |     30 |             12 |
| [38](#event-38)       | 0x00DE       |     30 |             12 |
| [39](#event-39)       | 0x00FC       |     34 |             14 |

## DAT References (imed_data)

|   Index | Hex Value   |   Dec Value |
|---------|-------------|-------------|
|       0 | 0x2A36      |       10806 |
|       1 | 0x2A37      |       10807 |
|       2 | 0x2A38      |       10808 |
|       3 | 0x2A39      |       10809 |
|       4 | 0x2A3A      |       10810 |
|       5 | 0x2A3B      |       10811 |
|       6 | 0x2A3C      |       10812 |
|       7 | 0x2A3D      |       10813 |
|       8 | 0x2A3E      |       10814 |
|       9 | 0x2A3F      |       10815 |
|      10 | 0x003C      |          60 |
|      11 | 0x2A40      |       10816 |
|      12 | 0x2A41      |       10817 |
|      13 | 0x2A42      |       10818 |
|      14 | 0x2A43      |       10819 |
|      15 | 0x2A44      |       10820 |
|      16 | 0x2A45      |       10821 |
|      17 | 0x1D3A      |        7482 |
|      18 | 0x0000      |           0 |
|      19 | 0x2A46      |       10822 |
|      20 | 0x2A47      |       10823 |
|      21 | 0x2A48      |       10824 |
|      22 | 0x2A49      |       10825 |
|      23 | 0x2A4A      |       10826 |
|      24 | 0x2A4B      |       10827 |
|      25 | 0x2A4C      |       10828 |
|      26 | 0x2A4D      |       10829 |
|      27 | 0x2A4E      |       10830 |
|      28 | 0x2A4F      |       10831 |
|      29 | 0x2A50      |       10832 |
|      30 | 0x2A51      |       10833 |
|      31 | 0x2A52      |       10834 |
|      32 | 0x2A53      |       10835 |
|      33 | 0x2A54      |       10836 |
|      34 | 0x2A55      |       10837 |

## String References

- **7482**: The voice of a young woman rings in your head.
- **10806**: You begin hearing faint voices inside your head. It seems to be some sort of conversation.
- **10807**: Kareh'a...lio, how proceeds...the...?
- **10808**: You must mean Eal...e's flying... Things...progressing...slowly.
- **10809**: Hmm... So there...problem...the machine.
- **10810**: Indeed. Simply put, this machine...never intended...humans to...
- **10811**: Ahh... It...use...scout craft...as a bas... However, we cannot...impede us.
- **10812**: Naturally. In order...resolve...rethink the entire architec...and implem...system using the cryst...propulsion...as a base.
- **10813**: It is time...perform the...$3...activ...test. Care...watch...yourself?
- **10814**: That...most fascinat... I think...will.
- **10815**: The procedure...quite simple. We must insert...$3 and...rystal energy sourc...this device.
- **10816**: Hm? There seems...warning?
- **10817**: Sorry. It requires $1 and $2.
- **10818**: It still seems...giving off...warning?
- **10819**: Looks like...don't have...enough cryst... Let's try...cluster...
- **10820**: The conversation in your head disappeared.
- **10821**: In that moment, a picture of $7 appeared in your mind.
- **10822**: "Greetings, [/Doctor/Administrator] <Player>."
- **10823**: "3...detected."
- **10824**: "Analyzing...$3... @Fata...error... $3 damage...confirmed."
- **10825**: "Doctor...clearance or higher...required to initiate restoration...ogram."
- **10826**: "Initiating...restoration progr... Restor...complete."
- **10827**: "Transit...to $3 initiation pha... @...10% @...15% @...18% @...18% @...18% @...18%"
- **10828**: "Initiat...failed. The $3 has not...initialized."
- **10829**: "You can use $1...$2 to initialize...$3."
- **10830**: "Confirmed the $1...$2. Initiating...$3...initalization...rocess."
- **10831**: "...10% @...50% @...70% @...90% @...98% @...98%"
- **10832**: "Initializ...proce...complete. Insert $3 cryst...cluster...to supply...ergy."
- **10833**: "Activating...$3 requires...$1 cryst...cluster..."
- **10834**: "Cry...al cluster insertion...confirmed."
- **10835**: "Energ...charg...complete. Transitioning to...activation...hase."
- **10836**: "...10% @...35% @...55% @...85% @...95%"
- **10837**: "...complete. Please proceed with the unit connection phas..."

## Events

### Event 65535

#### Metadata

| Field        | Value   |
|--------------|---------|
| Entrypoint   | 0x0000  |
| Data Size    | 1 bytes |
| Instructions | 1       |

```
      00 01 02 03 04 05 06 07  08 09 0A 0B 0C 0D 0E 0F
      -- -- -- -- -- -- -- --  -- -- -- -- -- -- -- --
0000: 00                                                .               
```

#### Opcodes

```
  0: 0x0000 [0x00] END_REQSTACK()
```

### Event 34

#### Metadata

| Field        | Value    |
|--------------|----------|
| Entrypoint   | 0x0001   |
| Data Size    | 85 bytes |
| Instructions | 39       |

```
      00 01 02 03 04 05 06 07  08 09 0A 0B 0C 0D 0E 0F
      -- -- -- -- -- -- -- --  -- -- -- -- -- -- -- --
0000:    42 4A F0 FF FF 7F D1  C1 0C 01 6F 76 F0 FF FF   BJ........ov...
0010: 7F 48 00 80 23 1D 01 80  23 1D 02 80 23 1D 03 80  .H..#...#...#...
0020: 23 1D 04 80 23 1D 05 80  23 1D 06 80 23 1D 07 80  #...#...#...#...
0030: 23 1D 08 80 23 1D 09 80  23 1C 0A 80 1D 0B 80 23  #...#...#......#
0040: 1D 0C 80 23 1D 0D 80 23  1D 0E 80 23 48 0F 80 23  ...#...#...#H..#
0050: 48 10 80 23 21 00                                 H..#!.          
```

#### Opcodes

```
  0: 0x0001 [0x42] SET_CLI_EVENT_CANCEL_DATA()
  1: 0x0002 [0x4A] LocalPlayer looks at Strange Apparatus (ID: 17613265/0x010CC1D1)
  2: 0x000B [0x6F] WAIT_FRAME_DELAY: Yield until WaitTime reaches zero
  3: 0x000C [0x76] CHECK_ENTITY_RENDER_FLAGS: Wait until LocalPlayer Render.Flags0 and Render.Flags3 conditions are met
  4: 0x0011 [0x48] [System] [10806*]:
    → "You begin hearing faint voices inside your head. It seems to be some sort of conversation."
  5: 0x0014 [0x23] WAIT_FOR_DIALOG_INTERACTION
  6: 0x0015 [0x1D] PRINT_EVENT_MESSAGE(message_id=10807*)
    → "Kareh'a...lio, how proceeds...the...?"
  7: 0x0018 [0x23] WAIT_FOR_DIALOG_INTERACTION
  8: 0x0019 [0x1D] PRINT_EVENT_MESSAGE(message_id=10808*)
    → "You must mean Eal...e's flying... Things...progressing...slowly."
  9: 0x001C [0x23] WAIT_FOR_DIALOG_INTERACTION
 10: 0x001D [0x1D] PRINT_EVENT_MESSAGE(message_id=10809*)
    → "Hmm... So there...problem...the machine."
 11: 0x0020 [0x23] WAIT_FOR_DIALOG_INTERACTION
 12: 0x0021 [0x1D] PRINT_EVENT_MESSAGE(message_id=10810*)
    → "Indeed. Simply put, this machine...never intended...humans to..."
 13: 0x0024 [0x23] WAIT_FOR_DIALOG_INTERACTION
 14: 0x0025 [0x1D] PRINT_EVENT_MESSAGE(message_id=10811*)
    → "Ahh... It...use...scout craft...as a bas... However, we cannot...impede us."
 15: 0x0028 [0x23] WAIT_FOR_DIALOG_INTERACTION
 16: 0x0029 [0x1D] PRINT_EVENT_MESSAGE(message_id=10812*)
    → "Naturally. In order...resolve...rethink the entire architec...and implem...system using the cryst...propulsion...as a base."
 17: 0x002C [0x23] WAIT_FOR_DIALOG_INTERACTION
 18: 0x002D [0x1D] PRINT_EVENT_MESSAGE(message_id=10813*)
    → "It is time...perform the...$3...activ...test. Care...watch...yourself?"
 19: 0x0030 [0x23] WAIT_FOR_DIALOG_INTERACTION
 20: 0x0031 [0x1D] PRINT_EVENT_MESSAGE(message_id=10814*)
    → "That...most fascinat... I think...will."
 21: 0x0034 [0x23] WAIT_FOR_DIALOG_INTERACTION
 22: 0x0035 [0x1D] PRINT_EVENT_MESSAGE(message_id=10815*)
    → "The procedure...quite simple. We must insert...$3 and...rystal energy sourc...this device."
 23: 0x0038 [0x23] WAIT_FOR_DIALOG_INTERACTION
 24: 0x0039 [0x1C] WAIT(60* ticks)
 25: 0x003C [0x1D] PRINT_EVENT_MESSAGE(message_id=10816*)
    → "Hm? There seems...warning?"
 26: 0x003F [0x23] WAIT_FOR_DIALOG_INTERACTION
 27: 0x0040 [0x1D] PRINT_EVENT_MESSAGE(message_id=10817*)
    → "Sorry. It requires $1 and $2."
 28: 0x0043 [0x23] WAIT_FOR_DIALOG_INTERACTION
 29: 0x0044 [0x1D] PRINT_EVENT_MESSAGE(message_id=10818*)
    → "It still seems...giving off...warning?"
 30: 0x0047 [0x23] WAIT_FOR_DIALOG_INTERACTION
 31: 0x0048 [0x1D] PRINT_EVENT_MESSAGE(message_id=10819*)
    → "Looks like...don't have...enough cryst... Let's try...cluster..."
 32: 0x004B [0x23] WAIT_FOR_DIALOG_INTERACTION
 33: 0x004C [0x48] [System] [10820*]:
    → "The conversation in your head disappeared."
 34: 0x004F [0x23] WAIT_FOR_DIALOG_INTERACTION
 35: 0x0050 [0x48] [System] [10821*]:
    → "In that moment, a picture of $7 appeared in your mind."
 36: 0x0053 [0x23] WAIT_FOR_DIALOG_INTERACTION
 37: 0x0054 [0x21] END_EVENT
 38: 0x0055 [0x00] END_REQSTACK()
```

### Event 35

#### Metadata

| Field        | Value    |
|--------------|----------|
| Entrypoint   | 0x0056   |
| Data Size    | 72 bytes |
| Instructions | 28       |

```
      00 01 02 03 04 05 06 07  08 09 0A 0B 0C 0D 0E 0F
      -- -- -- -- -- -- -- --  -- -- -- -- -- -- -- --
0050:                   42 4A  F0 FF FF 7F D1 C1 0C 01        BJ........
0060: 6F 76 F0 FF FF 7F 48 11  80 23 02 09 10 12 80 02  ov....H..#......
0070: 76 00 48 13 80 23 48 14  80 23 48 15 80 23 02 09  v.H..#H..#H..#..
0080: 10 12 80 00 8C 00 48 16  80 23 21 00 48 17 80 23  ......H..#!.H..#
0090: 48 18 80 23 48 19 80 23  48 1A 80 23 21 00        H..#H..#H..#!.  
```

#### Opcodes

```
  0: 0x0056 [0x42] SET_CLI_EVENT_CANCEL_DATA()
  1: 0x0057 [0x4A] LocalPlayer looks at Strange Apparatus (ID: 17613265/0x010CC1D1)
  2: 0x0060 [0x6F] WAIT_FRAME_DELAY: Yield until WaitTime reaches zero
  3: 0x0061 [0x76] CHECK_ENTITY_RENDER_FLAGS: Wait until LocalPlayer Render.Flags0 and Render.Flags3 conditions are met
  4: 0x0066 [0x48] [System] [7482*]:
    → "The voice of a young woman rings in your head."
  5: 0x0069 [0x23] WAIT_FOR_DIALOG_INTERACTION
  6: 0x006A [0x02] IF !(Work_Zone[9] <= 0*) GOTO 0x0076
  7: 0x0072 [0x48] [System] [10822*]:
    → ""Greetings, [/Doctor/Administrator] <Player>.""
  8: 0x0075 [0x23] WAIT_FOR_DIALOG_INTERACTION
  9: 0x0076 [0x48] [System] [10823*]:
    → ""3...detected.""
 10: 0x0079 [0x23] WAIT_FOR_DIALOG_INTERACTION
 11: 0x007A [0x48] [System] [10824*]:
    → ""Analyzing...$3... @Fata...error... $3 damage...confirmed.""
 12: 0x007D [0x23] WAIT_FOR_DIALOG_INTERACTION
 13: 0x007E [0x02] IF !(Work_Zone[9] == 0*) GOTO 0x008C
 14: 0x0086 [0x48] [System] [10825*]:
    → ""Doctor...clearance or higher...required to initiate restoration...ogram.""
 15: 0x0089 [0x23] WAIT_FOR_DIALOG_INTERACTION
 16: 0x008A [0x21] END_EVENT
 17: 0x008B [0x00] END_REQSTACK()
 18: 0x008C [0x48] [System] [10826*]:
    → ""Initiating...restoration progr... Restor...complete.""
 19: 0x008F [0x23] WAIT_FOR_DIALOG_INTERACTION
 20: 0x0090 [0x48] [System] [10827*]:
    → ""Transit...to $3 initiation pha... @...10% @...15% @...18% @...18% @...18% @...18%""
 21: 0x0093 [0x23] WAIT_FOR_DIALOG_INTERACTION
 22: 0x0094 [0x48] [System] [10828*]:
    → ""Initiat...failed. The $3 has not...initialized.""
 23: 0x0097 [0x23] WAIT_FOR_DIALOG_INTERACTION
 24: 0x0098 [0x48] [System] [10829*]:
    → ""You can use $1...$2 to initialize...$3.""
 25: 0x009B [0x23] WAIT_FOR_DIALOG_INTERACTION
 26: 0x009C [0x21] END_EVENT
 27: 0x009D [0x00] END_REQSTACK()
```

### Event 36

#### Metadata

| Field        | Value    |
|--------------|----------|
| Entrypoint   | 0x009E   |
| Data Size    | 34 bytes |
| Instructions | 14       |

```
      00 01 02 03 04 05 06 07  08 09 0A 0B 0C 0D 0E 0F
      -- -- -- -- -- -- -- --  -- -- -- -- -- -- -- --
0090:                                            42 4A                BJ
00A0: F0 FF FF 7F D1 C1 0C 01  6F 76 F0 FF FF 7F 48 11  ........ov....H.
00B0: 80 23 48 1B 80 23 48 1C  80 23 48 1D 80 23 21 00  .#H..#H..#H..#!.
```

#### Opcodes

```
  0: 0x009E [0x42] SET_CLI_EVENT_CANCEL_DATA()
  1: 0x009F [0x4A] LocalPlayer looks at Strange Apparatus (ID: 17613265/0x010CC1D1)
  2: 0x00A8 [0x6F] WAIT_FRAME_DELAY: Yield until WaitTime reaches zero
  3: 0x00A9 [0x76] CHECK_ENTITY_RENDER_FLAGS: Wait until LocalPlayer Render.Flags0 and Render.Flags3 conditions are met
  4: 0x00AE [0x48] [System] [7482*]:
    → "The voice of a young woman rings in your head."
  5: 0x00B1 [0x23] WAIT_FOR_DIALOG_INTERACTION
  6: 0x00B2 [0x48] [System] [10830*]:
    → ""Confirmed the $1...$2. Initiating...$3...initalization...rocess.""
  7: 0x00B5 [0x23] WAIT_FOR_DIALOG_INTERACTION
  8: 0x00B6 [0x48] [System] [10831*]:
    → ""...10% @...50% @...70% @...90% @...98% @...98%""
  9: 0x00B9 [0x23] WAIT_FOR_DIALOG_INTERACTION
 10: 0x00BA [0x48] [System] [10832*]:
    → ""Initializ...proce...complete. Insert $3 cryst...cluster...to supply...ergy.""
 11: 0x00BD [0x23] WAIT_FOR_DIALOG_INTERACTION
 12: 0x00BE [0x21] END_EVENT
 13: 0x00BF [0x00] END_REQSTACK()
```

### Event 37

#### Metadata

| Field        | Value    |
|--------------|----------|
| Entrypoint   | 0x00C0   |
| Data Size    | 30 bytes |
| Instructions | 12       |

```
      00 01 02 03 04 05 06 07  08 09 0A 0B 0C 0D 0E 0F
      -- -- -- -- -- -- -- --  -- -- -- -- -- -- -- --
00C0: 42 4A F0 FF FF 7F D1 C1  0C 01 6F 76 F0 FF FF 7F  BJ........ov....
00D0: 48 11 80 23 48 13 80 23  48 1A 80 23 21 00        H..#H..#H..#!.  
```

#### Opcodes

```
  0: 0x00C0 [0x42] SET_CLI_EVENT_CANCEL_DATA()
  1: 0x00C1 [0x4A] LocalPlayer looks at Strange Apparatus (ID: 17613265/0x010CC1D1)
  2: 0x00CA [0x6F] WAIT_FRAME_DELAY: Yield until WaitTime reaches zero
  3: 0x00CB [0x76] CHECK_ENTITY_RENDER_FLAGS: Wait until LocalPlayer Render.Flags0 and Render.Flags3 conditions are met
  4: 0x00D0 [0x48] [System] [7482*]:
    → "The voice of a young woman rings in your head."
  5: 0x00D3 [0x23] WAIT_FOR_DIALOG_INTERACTION
  6: 0x00D4 [0x48] [System] [10822*]:
    → ""Greetings, [/Doctor/Administrator] <Player>.""
  7: 0x00D7 [0x23] WAIT_FOR_DIALOG_INTERACTION
  8: 0x00D8 [0x48] [System] [10829*]:
    → ""You can use $1...$2 to initialize...$3.""
  9: 0x00DB [0x23] WAIT_FOR_DIALOG_INTERACTION
 10: 0x00DC [0x21] END_EVENT
 11: 0x00DD [0x00] END_REQSTACK()
```

### Event 38

#### Metadata

| Field        | Value    |
|--------------|----------|
| Entrypoint   | 0x00DE   |
| Data Size    | 30 bytes |
| Instructions | 12       |

```
      00 01 02 03 04 05 06 07  08 09 0A 0B 0C 0D 0E 0F
      -- -- -- -- -- -- -- --  -- -- -- -- -- -- -- --
00D0:                                            42 4A                BJ
00E0: F0 FF FF 7F D1 C1 0C 01  6F 76 F0 FF FF 7F 48 11  ........ov....H.
00F0: 80 23 48 13 80 23 48 1E  80 23 21 00              .#H..#H..#!.    
```

#### Opcodes

```
  0: 0x00DE [0x42] SET_CLI_EVENT_CANCEL_DATA()
  1: 0x00DF [0x4A] LocalPlayer looks at Strange Apparatus (ID: 17613265/0x010CC1D1)
  2: 0x00E8 [0x6F] WAIT_FRAME_DELAY: Yield until WaitTime reaches zero
  3: 0x00E9 [0x76] CHECK_ENTITY_RENDER_FLAGS: Wait until LocalPlayer Render.Flags0 and Render.Flags3 conditions are met
  4: 0x00EE [0x48] [System] [7482*]:
    → "The voice of a young woman rings in your head."
  5: 0x00F1 [0x23] WAIT_FOR_DIALOG_INTERACTION
  6: 0x00F2 [0x48] [System] [10822*]:
    → ""Greetings, [/Doctor/Administrator] <Player>.""
  7: 0x00F5 [0x23] WAIT_FOR_DIALOG_INTERACTION
  8: 0x00F6 [0x48] [System] [10833*]:
    → ""Activating...$3 requires...$1 cryst...cluster...""
  9: 0x00F9 [0x23] WAIT_FOR_DIALOG_INTERACTION
 10: 0x00FA [0x21] END_EVENT
 11: 0x00FB [0x00] END_REQSTACK()
```

### Event 39

#### Metadata

| Field        | Value    |
|--------------|----------|
| Entrypoint   | 0x00FC   |
| Data Size    | 34 bytes |
| Instructions | 14       |

```
      00 01 02 03 04 05 06 07  08 09 0A 0B 0C 0D 0E 0F
      -- -- -- -- -- -- -- --  -- -- -- -- -- -- -- --
00F0:                                      42 4A F0 FF              BJ..
0100: FF 7F D1 C1 0C 01 6F 76  F0 FF FF 7F 48 1F 80 23  ......ov....H..#
0110: 48 20 80 23 48 21 80 23  48 22 80 23 21 00        H .#H!.#H".#!.  
```

#### Opcodes

```
  0: 0x00FC [0x42] SET_CLI_EVENT_CANCEL_DATA()
  1: 0x00FD [0x4A] LocalPlayer looks at Strange Apparatus (ID: 17613265/0x010CC1D1)
  2: 0x0106 [0x6F] WAIT_FRAME_DELAY: Yield until WaitTime reaches zero
  3: 0x0107 [0x76] CHECK_ENTITY_RENDER_FLAGS: Wait until LocalPlayer Render.Flags0 and Render.Flags3 conditions are met
  4: 0x010C [0x48] [System] [10834*]:
    → ""Cry...al cluster insertion...confirmed.""
  5: 0x010F [0x23] WAIT_FOR_DIALOG_INTERACTION
  6: 0x0110 [0x48] [System] [10835*]:
    → ""Energ...charg...complete. Transitioning to...activation...hase.""
  7: 0x0113 [0x23] WAIT_FOR_DIALOG_INTERACTION
  8: 0x0114 [0x48] [System] [10836*]:
    → ""...10% @...35% @...55% @...85% @...95%""
  9: 0x0117 [0x23] WAIT_FOR_DIALOG_INTERACTION
 10: 0x0118 [0x48] [System] [10837*]:
    → ""...complete. Please proceed with the unit connection phas...""
 11: 0x011B [0x23] WAIT_FOR_DIALOG_INTERACTION
 12: 0x011C [0x21] END_EVENT
 13: 0x011D [0x00] END_REQSTACK()
```
