# 17613250 - Balpah

## Common Data

| Field            | Value             |
|------------------|-------------------|
| Zone             | Fei'Yin (ID: 204) |
| Block Size       | 200 bytes         |
| Total Events     | 9                 |
| References Count | 7                 |

## List of Events

| Event ID                 | Entrypoint   |   Size |   Instructions |
|--------------------------|--------------|--------|----------------|
| [65535](#event-65535)    | 0x0000       |      1 |              1 |
| [18](#event-18)          | 0x0001       |      1 |              1 |
| [65535.1](#event-655351) | 0x0002       |     23 |              5 |
| [65535.2](#event-655352) | 0x0019       |     19 |              3 |
| [65535.3](#event-655353) | 0x002C       |      9 |              3 |
| [65535.4](#event-655354) | 0x0035       |     19 |              3 |
| [65535.5](#event-655355) | 0x0048       |      9 |              3 |
| [65535.6](#event-655356) | 0x0051       |     19 |              3 |
| [65535.7](#event-655357) | 0x0064       |     19 |              3 |

## DAT References (imed_data)

|   Index | Hex Value   |   Dec Value |
|---------|-------------|-------------|
|       0 | 0x0000      |           0 |
|       1 | 0xFFFD64CE  |  4294796494 |
|       2 | 0x3D263     |      250467 |
|       3 | 0xFFFFFEBB  |  4294966971 |
|       4 | 0x016B      |         363 |
|       5 | 0x003C      |          60 |
|       6 | 0x001E      |          30 |

## Events

### Event 65535

#### Metadata

| Field        | Value   |
|--------------|---------|
| Entrypoint   | 0x0000  |
| Data Size    | 1 bytes |
| Instructions | 1       |

```
      00 01 02 03 04 05 06 07  08 09 0A 0B 0C 0D 0E 0F
      -- -- -- -- -- -- -- --  -- -- -- -- -- -- -- --
0000: 00                                                .               
```

#### Opcodes

```
  0: 0x0000 [0x00] END_REQSTACK()
```

### Event 18

#### Metadata

| Field        | Value   |
|--------------|---------|
| Entrypoint   | 0x0001  |
| Data Size    | 1 bytes |
| Instructions | 1       |

```
      00 01 02 03 04 05 06 07  08 09 0A 0B 0C 0D 0E 0F
      -- -- -- -- -- -- -- --  -- -- -- -- -- -- -- --
0000:    00                                              .              
```

#### Opcodes

```
  0: 0x0001 [0x00] END_REQSTACK()
```

### Event 65535.1

#### Metadata

| Field        | Value    |
|--------------|----------|
| Entrypoint   | 0x0002   |
| Data Size    | 23 bytes |
| Instructions | 5        |

```
      00 01 02 03 04 05 06 07  08 09 0A 0B 0C 0D 0E 0F
      -- -- -- -- -- -- -- --  -- -- -- -- -- -- -- --
0000:       6C F8 FF FF 7F 00  80 00 80 33 01 37 01 80    l........3.7..
0010: 02 80 03 80 04 80 33 01  00                       ......3..       
```

#### Opcodes

```
  0: 0x0002 [0x6C] FADE_ENTITY_COLOR(entity_id=EventEntity, end_alpha=0*, fade_time=0*)
  1: 0x000B [0x33] EventEntity->Render.Flags0 |= 0x200000 // Bit 21 (flag=0x01)
  2: 0x000D [0x37] UPDATE_EVENT_POSITION_AND_DIR: x=-170.802*, z=250.467*, y=-0.325*, direction=31.9°*
  3: 0x0016 [0x33] EventEntity->Render.Flags0 |= 0x200000 // Bit 21 (flag=0x01)
  4: 0x0018 [0x00] END_REQSTACK()
```

### Event 65535.2

#### Metadata

| Field        | Value    |
|--------------|----------|
| Entrypoint   | 0x0019   |
| Data Size    | 19 bytes |
| Instructions | 3        |

```
      00 01 02 03 04 05 06 07  08 09 0A 0B 0C 0D 0E 0F
      -- -- -- -- -- -- -- --  -- -- -- -- -- -- -- --
0010:                             66 05 80 F8 FF FF 7F           f......
0020: F8 FF FF 7F 74 6C 6B 30  1C 06 80 00              ....tlk0....    
```

#### Opcodes

```
  0: 0x0019 [0x66] LOAD_EXT_SCHEDULER_MAIN: Load scheduler "tlk0" with entities [EventEntity, EventEntity], work=60*
  1: 0x0028 [0x1C] WAIT(30* ticks)
  2: 0x002B [0x00] END_REQSTACK()
```

### Event 65535.3

#### Metadata

| Field        | Value   |
|--------------|---------|
| Entrypoint   | 0x002C  |
| Data Size    | 9 bytes |
| Instructions | 3       |

```
      00 01 02 03 04 05 06 07  08 09 0A 0B 0C 0D 0E 0F
      -- -- -- -- -- -- -- --  -- -- -- -- -- -- -- --
0020:                                      5E 69 64 6C              ^idl
0030: 30 1C 05 80 00                                    0....           
```

#### Opcodes

```
  0: 0x002C [0x5E] EventEntity goes idle (kills current action) (animation: "idl0")
  1: 0x0031 [0x1C] WAIT(60* ticks)
  2: 0x0034 [0x00] END_REQSTACK()
```

### Event 65535.4

#### Metadata

| Field        | Value    |
|--------------|----------|
| Entrypoint   | 0x0035   |
| Data Size    | 19 bytes |
| Instructions | 3        |

```
      00 01 02 03 04 05 06 07  08 09 0A 0B 0C 0D 0E 0F
      -- -- -- -- -- -- -- --  -- -- -- -- -- -- -- --
0030:                66 05 80  F8 FF FF 7F F8 FF FF 7F       f..........
0040: 61 6E 67 30 1C 06 80 00                           ang0....        
```

#### Opcodes

```
  0: 0x0035 [0x66] LOAD_EXT_SCHEDULER_MAIN: Load scheduler "ang0" with entities [EventEntity, EventEntity], work=60*
  1: 0x0044 [0x1C] WAIT(30* ticks)
  2: 0x0047 [0x00] END_REQSTACK()
```

### Event 65535.5

#### Metadata

| Field        | Value   |
|--------------|---------|
| Entrypoint   | 0x0048  |
| Data Size    | 9 bytes |
| Instructions | 3       |

```
      00 01 02 03 04 05 06 07  08 09 0A 0B 0C 0D 0E 0F
      -- -- -- -- -- -- -- --  -- -- -- -- -- -- -- --
0040:                          5E 69 64 6C 30 1C 05 80          ^idl0...
0050: 00                                                .               
```

#### Opcodes

```
  0: 0x0048 [0x5E] EventEntity goes idle (kills current action) (animation: "idl0")
  1: 0x004D [0x1C] WAIT(60* ticks)
  2: 0x0050 [0x00] END_REQSTACK()
```

### Event 65535.6

#### Metadata

| Field        | Value    |
|--------------|----------|
| Entrypoint   | 0x0051   |
| Data Size    | 19 bytes |
| Instructions | 3        |

```
      00 01 02 03 04 05 06 07  08 09 0A 0B 0C 0D 0E 0F
      -- -- -- -- -- -- -- --  -- -- -- -- -- -- -- --
0050:    66 05 80 F8 FF FF 7F  F8 FF FF 7F 74 68 6B 31   f..........thk1
0060: 1C 05 80 00                                       ....            
```

#### Opcodes

```
  0: 0x0051 [0x66] LOAD_EXT_SCHEDULER_MAIN: Load scheduler "thk1" with entities [EventEntity, EventEntity], work=60*
  1: 0x0060 [0x1C] WAIT(60* ticks)
  2: 0x0063 [0x00] END_REQSTACK()
```

### Event 65535.7

#### Metadata

| Field        | Value    |
|--------------|----------|
| Entrypoint   | 0x0064   |
| Data Size    | 19 bytes |
| Instructions | 3        |

```
      00 01 02 03 04 05 06 07  08 09 0A 0B 0C 0D 0E 0F
      -- -- -- -- -- -- -- --  -- -- -- -- -- -- -- --
0060:             66 05 80 F8  FF FF 7F F8 FF FF 7F 74      f..........t
0070: 68 6B 32 1C 05 80 00                              hk2....         
```

#### Opcodes

```
  0: 0x0064 [0x66] LOAD_EXT_SCHEDULER_MAIN: Load scheduler "thk2" with entities [EventEntity, EventEntity], work=60*
  1: 0x0073 [0x1C] WAIT(60* ticks)
  2: 0x0076 [0x00] END_REQSTACK()
```
