# 17613297 - ALT_KISHI05

## Common Data

| Field            | Value             |
|------------------|-------------------|
| Zone             | Fei'Yin (ID: 204) |
| Block Size       | 96 bytes          |
| Total Events     | 3                 |
| References Count | 5                 |

## List of Events

| Event ID                 | Entrypoint   |   Size |   Instructions |
|--------------------------|--------------|--------|----------------|
| [65535](#event-65535)    | 0x0000       |      1 |              1 |
| [43](#event-43)          | 0x0001       |      7 |              2 |
| [65535.1](#event-655351) | 0x0008       |     37 |              8 |

## DAT References (imed_data)

|   Index | Hex Value   |   Dec Value |
|---------|-------------|-------------|
|       0 | 0x0028      |          40 |
|       1 | 0x2604      |        9732 |
|       2 | 0x20BC3     |      134083 |
|       3 | 0x0000      |           0 |
|       4 | 0x0258      |         600 |

## Events

### Event 65535

#### Metadata

| Field        | Value   |
|--------------|---------|
| Entrypoint   | 0x0000  |
| Data Size    | 1 bytes |
| Instructions | 1       |

```
      00 01 02 03 04 05 06 07  08 09 0A 0B 0C 0D 0E 0F
      -- -- -- -- -- -- -- --  -- -- -- -- -- -- -- --
0000: 00                                                .               
```

#### Opcodes

```
  0: 0x0000 [0x00] END_REQSTACK()
```

### Event 43

#### Metadata

| Field        | Value   |
|--------------|---------|
| Entrypoint   | 0x0001  |
| Data Size    | 7 bytes |
| Instructions | 2       |

```
      00 01 02 03 04 05 06 07  08 09 0A 0B 0C 0D 0E 0F
      -- -- -- -- -- -- -- --  -- -- -- -- -- -- -- --
0000:    92 01 F8 FF FF 7F 00                            .......        
```

#### Opcodes

```
  0: 0x0001 [0x92] EventEntity->Render.Flags3 ^= 0x01
  1: 0x0007 [0x00] END_REQSTACK()
```

### Event 65535.1

#### Metadata

| Field        | Value    |
|--------------|----------|
| Entrypoint   | 0x0008   |
| Data Size    | 37 bytes |
| Instructions | 8        |

```
      00 01 02 03 04 05 06 07  08 09 0A 0B 0C 0D 0E 0F
      -- -- -- -- -- -- -- --  -- -- -- -- -- -- -- --
0000:                          32 00 80 1F 00 01 80 02          2.......
0010: 80 03 80 1F 01 79 00 F8  FF FF 7F EA C1 0C 01 4B  .....y.........K
0020: F1 C1 0C 01 04 80 6F 76  F1 C1 0C 01 00           ......ov.....   
```

#### Opcodes

```
  0: 0x0008 [0x32] ExtData[1]->MainSpeed = 40* * 0.1
  1: 0x000B [0x1F] MOVE_ENTITY: EventEntity moves to X=9.732*, Z=134.083*, Y=0.000*
  2: 0x0013 [0x1F] MOVE_ENTITY: Update entity position (mode=1)
  3: 0x0015 [0x79] EventEntity looks at Altennia (ID: 17613290/0x010CC1EA) (Basic look)
  4: 0x001F [0x4B] UPDATE_ENTITY_YAW(entity=ALT_KISHI05 (ID: 17613297/0x010CC1F1), yaw=3.3°*)
  5: 0x0026 [0x6F] WAIT_FRAME_DELAY: Yield until WaitTime reaches zero
  6: 0x0027 [0x76] CHECK_ENTITY_RENDER_FLAGS: Wait until ALT_KISHI05 (ID: 17613297/0x010CC1F1) Render.Flags0 and Render.Flags3 conditions are met
  7: 0x002C [0x00] END_REQSTACK()
```
