# 17613251 - Pieuje

## Common Data

| Field            | Value             |
|------------------|-------------------|
| Zone             | Fei'Yin (ID: 204) |
| Block Size       | 356 bytes         |
| Total Events     | 10                |
| References Count | 18                |

## List of Events

| Event ID                 | Entrypoint   |   Size |   Instructions |
|--------------------------|--------------|--------|----------------|
| [65535](#event-65535)    | 0x0000       |      1 |              1 |
| [19](#event-19)          | 0x0001       |      3 |              2 |
| [65535.1](#event-655351) | 0x0004       |     14 |              4 |
| [23](#event-23)          | 0x0012       |     10 |              2 |
| [65535.2](#event-655352) | 0x001C       |     20 |              6 |
| [65535.3](#event-655353) | 0x0030       |     83 |              8 |
| [65535.4](#event-655354) | 0x0083       |     19 |              3 |
| [65535.5](#event-655355) | 0x0096       |     29 |              3 |
| [65535.6](#event-655356) | 0x00B3       |     19 |              3 |
| [65535.7](#event-655357) | 0x00C6       |     29 |              3 |

## DAT References (imed_data)

|   Index | Hex Value   |   Dec Value |
|---------|-------------|-------------|
|       0 | 0x000D      |          13 |
|       1 | 0xFFFD455F  |  4294788447 |
|       2 | 0xFFFCA1C6  |  4294746566 |
|       3 | 0xFFFF912A  |  4294938922 |
|       4 | 0xFFFE6C4C  |  4294863948 |
|       5 | 0xFFFEAF80  |  4294881152 |
|       6 | 0xFFFFC337  |  4294951735 |
|       7 | 0x0C0A      |        3082 |
|       8 | 0xFFFE69AD  |  4294863277 |
|       9 | 0xFFFEBA84  |  4294883972 |
|      10 | 0xFFFFC3BF  |  4294951871 |
|      11 | 0x007A      |         122 |
|      12 | 0x0000      |           0 |
|      13 | 0x0001      |           1 |
|      14 | 0x0034      |          52 |
|      15 | 0x0078      |         120 |
|      16 | 0x001E      |          30 |
|      17 | 0x0079      |         121 |

## Events

### Event 65535

#### Metadata

| Field        | Value   |
|--------------|---------|
| Entrypoint   | 0x0000  |
| Data Size    | 1 bytes |
| Instructions | 1       |

```
      00 01 02 03 04 05 06 07  08 09 0A 0B 0C 0D 0E 0F
      -- -- -- -- -- -- -- --  -- -- -- -- -- -- -- --
0000: 00                                                .               
```

#### Opcodes

```
  0: 0x0000 [0x00] END_REQSTACK()
```

### Event 19

#### Metadata

| Field        | Value   |
|--------------|---------|
| Entrypoint   | 0x0001  |
| Data Size    | 3 bytes |
| Instructions | 2       |

```
      00 01 02 03 04 05 06 07  08 09 0A 0B 0C 0D 0E 0F
      -- -- -- -- -- -- -- --  -- -- -- -- -- -- -- --
0000:    22 00 00                                        "..            
```

#### Opcodes

```
  0: 0x0001 [0x22] ENTITY_HIDE_FLAG(enabled=0x00)
  1: 0x0003 [0x00] END_REQSTACK()
```

### Event 65535.1

#### Metadata

| Field        | Value    |
|--------------|----------|
| Entrypoint   | 0x0004   |
| Data Size    | 14 bytes |
| Instructions | 4        |

```
      00 01 02 03 04 05 06 07  08 09 0A 0B 0C 0D 0E 0F
      -- -- -- -- -- -- -- --  -- -- -- -- -- -- -- --
0000:             32 00 80 1F  00 01 80 02 80 03 80 1F      2...........
0010: 01 00                                             ..              
```

#### Opcodes

```
  0: 0x0004 [0x32] ExtData[1]->MainSpeed = 13* * 0.1
  1: 0x0007 [0x1F] MOVE_ENTITY: EventEntity moves to X=-178.849*, Z=-220.730*, Y=-28.374*
  2: 0x000F [0x1F] MOVE_ENTITY: Update entity position (mode=1)
  3: 0x0011 [0x00] END_REQSTACK()
```

### Event 23

#### Metadata

| Field        | Value    |
|--------------|----------|
| Entrypoint   | 0x0012   |
| Data Size    | 10 bytes |
| Instructions | 2        |

```
      00 01 02 03 04 05 06 07  08 09 0A 0B 0C 0D 0E 0F
      -- -- -- -- -- -- -- --  -- -- -- -- -- -- -- --
0010:       37 04 80 05 80 06  80 07 80 00                7.........    
```

#### Opcodes

```
  0: 0x0012 [0x37] UPDATE_EVENT_POSITION_AND_DIR: x=-103.348*, z=-86.144*, y=-15.561*, direction=270.9°*
  1: 0x001B [0x00] END_REQSTACK()
```

### Event 65535.2

#### Metadata

| Field        | Value    |
|--------------|----------|
| Entrypoint   | 0x001C   |
| Data Size    | 20 bytes |
| Instructions | 6        |

```
      00 01 02 03 04 05 06 07  08 09 0A 0B 0C 0D 0E 0F
      -- -- -- -- -- -- -- --  -- -- -- -- -- -- -- --
0010:                                      32 00 80 1F              2...
0020: 00 08 80 09 80 0A 80 1F  01 6F 1E C5 C1 0C 01 00  .........o......
```

#### Opcodes

```
  0: 0x001C [0x32] ExtData[1]->MainSpeed = 13* * 0.1
  1: 0x001F [0x1F] MOVE_ENTITY: EventEntity moves to X=-104.019*, Z=-83.324*, Y=-15.425*
  2: 0x0027 [0x1F] MOVE_ENTITY: Update entity position (mode=1)
  3: 0x0029 [0x6F] WAIT_FRAME_DELAY: Yield until WaitTime reaches zero
  4: 0x002A [0x1E] EventEntity looks at Trion (ID: 17613253/0x010CC1C5) and starts talking
  5: 0x002F [0x00] END_REQSTACK()
```

### Event 65535.3

#### Metadata

| Field        | Value    |
|--------------|----------|
| Entrypoint   | 0x0030   |
| Data Size    | 83 bytes |
| Instructions | 8        |

```
      00 01 02 03 04 05 06 07  08 09 0A 0B 0C 0D 0E 0F
      -- -- -- -- -- -- -- --  -- -- -- -- -- -- -- --
0030: 5B 0B 80 C3 C1 0C 01 C5  C1 0C 01 63 61 77 68 53  [..........cawhS
0040: C3 C1 0C 01 C5 C1 0C 01  63 61 77 68 6C CB C1 0C  ........cawhl...
0050: 01 0C 80 0D 80 4E 00 CB  C1 0C 01 73 0E 80 CB C1  .....N.....s....
0060: 0C 01 C5 C1 0C 01 5B 0B  80 C3 C1 0C 01 C5 C1 0C  ......[.........
0070: 01 73 68 77 68 53 C3 C1  0C 01 C5 C1 0C 01 73 68  .shwhS........sh
0080: 77 68 00                                          wh.             
```

#### Opcodes

```
  0: 0x0030 [0x5B] LOAD_EXT_SCHEDULER: Load scheduler "cawh" with entities [Pieuje (ID: 17613251/0x010CC1C3), Trion (ID: 17613253/0x010CC1C5)], work=122*
  1: 0x003F [0x53] WAIT_SCHEDULER_TASK: Wait for scheduler "cawh" with entities [Pieuje (ID: 17613251/0x010CC1C3), Trion (ID: 17613253/0x010CC1C5)]
  2: 0x004C [0x6C] FADE_ENTITY_COLOR(entity_id=Rahal (ID: 17613259/0x010CC1CB), end_alpha=0*, fade_time=1*)
  3: 0x0055 [0x4E] SET_ENTITY_HIDE_FLAG: Show Rahal (ID: 17613259/0x010CC1CB)
  4: 0x005B [0x73] Rahal (ID: 17613259/0x010CC1CB) casts magic 52* on Trion (ID: 17613253/0x010CC1C5)
  5: 0x0066 [0x5B] LOAD_EXT_SCHEDULER: Load scheduler "shwh" with entities [Pieuje (ID: 17613251/0x010CC1C3), Trion (ID: 17613253/0x010CC1C5)], work=122*
  6: 0x0075 [0x53] WAIT_SCHEDULER_TASK: Wait for scheduler "shwh" with entities [Pieuje (ID: 17613251/0x010CC1C3), Trion (ID: 17613253/0x010CC1C5)]
  7: 0x0082 [0x00] END_REQSTACK()
```

### Event 65535.4

#### Metadata

| Field        | Value    |
|--------------|----------|
| Entrypoint   | 0x0083   |
| Data Size    | 19 bytes |
| Instructions | 3        |

```
      00 01 02 03 04 05 06 07  08 09 0A 0B 0C 0D 0E 0F
      -- -- -- -- -- -- -- --  -- -- -- -- -- -- -- --
0080:          5B 0F 80 C3 C1  0C 01 C3 C1 0C 01 74 6C     [..........tl
0090: 6B 30 1C 10 80 00                                 k0....          
```

#### Opcodes

```
  0: 0x0083 [0x5B] LOAD_EXT_SCHEDULER: Load scheduler "tlk0" with entities [Pieuje (ID: 17613251/0x010CC1C3), Pieuje (ID: 17613251/0x010CC1C3)], work=120*
  1: 0x0092 [0x1C] WAIT(30* ticks)
  2: 0x0095 [0x00] END_REQSTACK()
```

### Event 65535.5

#### Metadata

| Field        | Value    |
|--------------|----------|
| Entrypoint   | 0x0096   |
| Data Size    | 29 bytes |
| Instructions | 3        |

```
      00 01 02 03 04 05 06 07  08 09 0A 0B 0C 0D 0E 0F
      -- -- -- -- -- -- -- --  -- -- -- -- -- -- -- --
0090:                   5B 0F  80 C3 C1 0C 01 C3 C1 0C        [.........
00A0: 01 74 6C 6B 31 53 C3 C1  0C 01 C3 C1 0C 01 74 6C  .tlk1S........tl
00B0: 6B 31 00                                          k1.             
```

#### Opcodes

```
  0: 0x0096 [0x5B] LOAD_EXT_SCHEDULER: Load scheduler "tlk1" with entities [Pieuje (ID: 17613251/0x010CC1C3), Pieuje (ID: 17613251/0x010CC1C3)], work=120*
  1: 0x00A5 [0x53] WAIT_SCHEDULER_TASK: Wait for scheduler "tlk1" with entities [Pieuje (ID: 17613251/0x010CC1C3), Pieuje (ID: 17613251/0x010CC1C3)]
  2: 0x00B2 [0x00] END_REQSTACK()
```

### Event 65535.6

#### Metadata

| Field        | Value    |
|--------------|----------|
| Entrypoint   | 0x00B3   |
| Data Size    | 19 bytes |
| Instructions | 3        |

```
      00 01 02 03 04 05 06 07  08 09 0A 0B 0C 0D 0E 0F
      -- -- -- -- -- -- -- --  -- -- -- -- -- -- -- --
00B0:          5B 11 80 C3 C1  0C 01 C3 C1 0C 01 74 68     [..........th
00C0: 6B 30 1C 10 80 00                                 k0....          
```

#### Opcodes

```
  0: 0x00B3 [0x5B] LOAD_EXT_SCHEDULER: Load scheduler "thk0" with entities [Pieuje (ID: 17613251/0x010CC1C3), Pieuje (ID: 17613251/0x010CC1C3)], work=121*
  1: 0x00C2 [0x1C] WAIT(30* ticks)
  2: 0x00C5 [0x00] END_REQSTACK()
```

### Event 65535.7

#### Metadata

| Field        | Value    |
|--------------|----------|
| Entrypoint   | 0x00C6   |
| Data Size    | 29 bytes |
| Instructions | 3        |

```
      00 01 02 03 04 05 06 07  08 09 0A 0B 0C 0D 0E 0F
      -- -- -- -- -- -- -- --  -- -- -- -- -- -- -- --
00C0:                   5B 11  80 C3 C1 0C 01 C3 C1 0C        [.........
00D0: 01 74 68 6B 31 53 C3 C1  0C 01 C3 C1 0C 01 74 68  .thk1S........th
00E0: 6B 31 00                                          k1.             
```

#### Opcodes

```
  0: 0x00C6 [0x5B] LOAD_EXT_SCHEDULER: Load scheduler "thk1" with entities [Pieuje (ID: 17613251/0x010CC1C3), Pieuje (ID: 17613251/0x010CC1C3)], work=121*
  1: 0x00D5 [0x53] WAIT_SCHEDULER_TASK: Wait for scheduler "thk1" with entities [Pieuje (ID: 17613251/0x010CC1C3), Pieuje (ID: 17613251/0x010CC1C3)]
  2: 0x00E2 [0x00] END_REQSTACK()
```
