# 0x7FFFFFF0 - Zone Events

## Common Data

| Field            | Value             |
|------------------|-------------------|
| Zone             | Fei'Yin (ID: 204) |
| Block Size       | 5796 bytes        |
| Total Events     | 30                |
| References Count | 177               |

## List of Events

| Event ID                   | Entrypoint   |   Size |   Instructions |
|----------------------------|--------------|--------|----------------|
| [65535](#event-65535)      | 0x0000       |      1 |              1 |
| [65534](#event-65534)      | 0x0001       |      1 |              1 |
| [65535.1](#event-655351)   | 0x0002       |     37 |              5 |
| [65535.2](#event-655352)   | 0x0027       |    185 |             37 |
| [65535.3](#event-655353)   | 0x00E0       |     23 |              5 |
| [23](#event-23)            | 0x00F7       |   1843 |            272 |
| [65535.4](#event-655354)   | 0x082A       |     10 |              2 |
| [65535.5](#event-655355)   | 0x0834       |     15 |              5 |
| [65535.6](#event-655356)   | 0x0843       |     14 |              4 |
| [65535.7](#event-655357)   | 0x0851       |     10 |              2 |
| [65535.8](#event-655358)   | 0x085B       |     10 |              2 |
| [10](#event-10)            | 0x0865       |     10 |              2 |
| [65535.9](#event-655359)   | 0x086F       |     10 |              2 |
| [65535.10](#event-6553510) | 0x0879       |     10 |              2 |
| [65535.11](#event-6553511) | 0x0883       |     14 |              4 |
| [65535.12](#event-6553512) | 0x0891       |     14 |              4 |
| [16](#event-16)            | 0x089F       |    474 |             60 |
| [17](#event-17)            | 0x0A79       |    282 |             34 |
| [18](#event-18)            | 0x0B93       |    634 |             74 |
| [19](#event-19)            | 0x0E0D       |    597 |             81 |
| [28](#event-28)            | 0x1062       |     63 |             17 |
| [29](#event-29)            | 0x10A1       |    561 |             56 |
| [65535.13](#event-6553513) | 0x12D2       |      7 |              3 |
| [65535.14](#event-6553514) | 0x12D9       |      7 |              3 |
| [65535.15](#event-6553515) | 0x12E0       |     25 |              7 |
| [65535.16](#event-6553516) | 0x12F9       |      6 |              2 |
| [65535.17](#event-6553517) | 0x12FF       |     42 |              6 |
| [65535.18](#event-6553518) | 0x1329       |     15 |              5 |
| [65535.19](#event-6553519) | 0x1338       |     15 |              5 |
| [65535.20](#event-6553520) | 0x1347       |     15 |              5 |

## DAT References (imed_data)

|   Index | Hex Value   |   Dec Value |
|---------|-------------|-------------|
|       0 | 0x0005      |           5 |
|       1 | 0x0001      |           1 |
|       2 | 0x0002      |           2 |
|       3 | 0x000A      |          10 |
|       4 | 0x0009      |           9 |
|       5 | 0x0046      |          70 |
|       6 | 0x008C      |         140 |
|       7 | 0x00D2      |         210 |
|       8 | 0xFFFD4060  |  4294787168 |
|       9 | 0xFFFCE8FE  |  4294764798 |
|      10 | 0xFFFF9FD0  |  4294942672 |
|      11 | 0x0C00      |        3072 |
|      12 | 0x000D      |          13 |
|      13 | 0xFFFD40B5  |  4294787253 |
|      14 | 0xFFFCFDD0  |  4294770128 |
|      15 | 0xFFFFA240  |  4294943296 |
|      16 | 0x0013      |          19 |
|      17 | 0x0000      |           0 |
|      18 | 0x00F3      |         243 |
|      19 | 0x00C8      |         200 |
|      20 | 0x009D      |         157 |
|      21 | 0x1D06      |        7430 |
|      22 | 0x1D07      |        7431 |
|      23 | 0x04D2      |        1234 |
|      24 | 0x000F      |          15 |
|      25 | 0x1D08      |        7432 |
|      26 | 0x0078      |         120 |
|      27 | 0x1D09      |        7433 |
|      28 | 0x003C      |          60 |
|      29 | 0x1D0A      |        7434 |
|      30 | 0x1D0B      |        7435 |
|      31 | 0x1D0C      |        7436 |
|      32 | 0x1D0D      |        7437 |
|      33 | 0x001E      |          30 |
|      34 | 0x1D0E      |        7438 |
|      35 | 0x1D0F      |        7439 |
|      36 | 0x0014      |          20 |
|      37 | 0x1D10      |        7440 |
|      38 | 0x1D11      |        7441 |
|      39 | 0x0096      |         150 |
|      40 | 0x1D12      |        7442 |
|      41 | 0x1D13      |        7443 |
|      42 | 0x0A5B      |        2651 |
|      43 | 0x1D14      |        7444 |
|      44 | 0x1D15      |        7445 |
|      45 | 0x1D16      |        7446 |
|      46 | 0x1D17      |        7447 |
|      47 | 0x1D18      |        7448 |
|      48 | 0x0EA0      |        3744 |
|      49 | 0x005A      |          90 |
|      50 | 0x1D19      |        7449 |
|      51 | 0x1D1A      |        7450 |
|      52 | 0x1D1B      |        7451 |
|      53 | 0x1D1C      |        7452 |
|      54 | 0x1D1D      |        7453 |
|      55 | 0x00E6      |         230 |
|      56 | 0x1D1E      |        7454 |
|      57 | 0x1D1F      |        7455 |
|      58 | 0x0D02      |        3330 |
|      59 | 0xFFFD4769  |  4294788969 |
|      60 | 0xFFFD5F8E  |  4294795150 |
|      61 | 0x0E75      |        3701 |
|      62 | 0xFFFD5F88  |  4294795144 |
|      63 | 0xFFFD7120  |  4294799648 |
|      64 | 0xFFFD7A45  |  4294801989 |
|      65 | 0xFFFD68B9  |  4294797497 |
|      66 | 0xFFFFA261  |  4294943329 |
|      67 | 0xFFFDAD0F  |  4294814991 |
|      68 | 0xFFFD6513  |  4294796563 |
|      69 | 0xFFFFA22F  |  4294943279 |
|      70 | 0x0F4C      |        3916 |
|      71 | 0xFFFD8D29  |  4294806825 |
|      72 | 0xFFFD9631  |  4294809137 |
|      73 | 0xFFFFA47F  |  4294943871 |
|      74 | 0x0DAE      |        3502 |
|      75 | 0xFFFD3621  |  4294784545 |
|      76 | 0x2E6A8     |      190120 |
|      77 | 0x0FCB      |        4043 |
|      78 | 0xFFFD2B01  |  4294781697 |
|      79 | 0x2E617     |      189975 |
|      80 | 0x080C      |        2060 |
|      81 | 0xFFFD15C0  |  4294776256 |
|      82 | 0x2E5CB     |      189899 |
|      83 | 0x0072      |         114 |
|      84 | 0x00C0      |         192 |
|      85 | 0x3B349     |      242505 |
|      86 | 0xEA69      |       60009 |
|      87 | 0xFFFFA146  |  4294943046 |
|      88 | 0x0734      |        1844 |
|      89 | 0x00CC      |         204 |
|      90 | 0x3A6E0     |      239328 |
|      91 | 0xEAFA      |       60154 |
|      92 | 0xFFFFA147  |  4294943047 |
|      93 | 0x1CC3      |        7363 |
|      94 | 0x1CC4      |        7364 |
|      95 | 0x1CC5      |        7365 |
|      96 | 0x1CC6      |        7366 |
|      97 | 0x1CC7      |        7367 |
|      98 | 0x1CC8      |        7368 |
|      99 | 0x1CC9      |        7369 |
|     100 | 0x0064      |         100 |
|     101 | 0xFFFFC235  |  4294951477 |
|     102 | 0x11802     |       71682 |
|     103 | 0xFFFFC180  |  4294951296 |
|     104 | 0x04BB      |        1211 |
|     105 | 0x007B      |         123 |
|     106 | 0x00CF      |         207 |
|     107 | 0x0040      |          64 |
|     108 | 0x1CDE      |        7390 |
|     109 | 0x1CDF      |        7391 |
|     110 | 0xFFFD7181  |  4294799745 |
|     111 | 0x3C6E8     |      247528 |
|     112 | 0x0034      |          52 |
|     113 | 0x0A4F      |        2639 |
|     114 | 0x0003      |           3 |
|     115 | 0x1CE1      |        7393 |
|     116 | 0x1CE2      |        7394 |
|     117 | 0x0048      |          72 |
|     118 | 0x012C      |         300 |
|     119 | 0x1CE3      |        7395 |
|     120 | 0x1CE4      |        7396 |
|     121 | 0x1CE5      |        7397 |
|     122 | 0x1CE6      |        7398 |
|     123 | 0x1CE7      |        7399 |
|     124 | 0x0080      |         128 |
|     125 | 0x044A      |        1098 |
|     126 | 0x009C      |         156 |
|     127 | 0x00CB      |         203 |
|     128 | 0xFFFD428D  |  4294787725 |
|     129 | 0xFFFCA51B  |  4294747419 |
|     130 | 0xFFFF9223  |  4294939171 |
|     131 | 0x0C1E      |        3102 |
|     132 | 0xFFFD4230  |  4294787632 |
|     133 | 0xFFFCB2E9  |  4294750953 |
|     134 | 0xFFFF9511  |  4294939921 |
|     135 | 0x1CEA      |        7402 |
|     136 | 0x1CEB      |        7403 |
|     137 | 0x1CEC      |        7404 |
|     138 | 0x1CED      |        7405 |
|     139 | 0x1CEE      |        7406 |
|     140 | 0x00B4      |         180 |
|     141 | 0x1CEF      |        7407 |
|     142 | 0x1CF0      |        7408 |
|     143 | 0x1CF1      |        7409 |
|     144 | 0x1CF2      |        7410 |
|     145 | 0x1CF3      |        7411 |
|     146 | 0x1CF4      |        7412 |
|     147 | 0x1CF5      |        7413 |
|     148 | 0x1CF6      |        7414 |
|     149 | 0x1CF7      |        7415 |
|     150 | 0x1CF8      |        7416 |
|     151 | 0x0443      |        1091 |
|     152 | 0x0454      |        1108 |
|     153 | 0x1D56      |        7510 |
|     154 | 0x00C9      |         201 |
|     155 | 0x0155      |         341 |
|     156 | 0x1D57      |        7511 |
|     157 | 0x1D58      |        7512 |
|     158 | 0x01A4      |         420 |
|     159 | 0x1D59      |        7513 |
|     160 | 0x1D5A      |        7514 |
|     161 | 0x1D5B      |        7515 |
|     162 | 0x1D5C      |        7516 |
|     163 | 0x1D5D      |        7517 |
|     164 | 0xFFFD56ED  |  4294792941 |
|     165 | 0xFFFD675D  |  4294797149 |
|     166 | 0xFFFFA248  |  4294943304 |
|     167 | 0xFFFD64F1  |  4294796529 |
|     168 | 0xFFFD6FBC  |  4294799292 |
|     169 | 0xFFFFA238  |  4294943288 |
|     170 | 0x272F      |       10031 |
|     171 | 0x1FDA0     |      130464 |
|     172 | 0x001F      |          31 |
|     173 | 0x2EFF      |       12031 |
|     174 | 0x1FA4C     |      129612 |
|     175 | 0x2AFA      |       11002 |
|     176 | 0x20880     |      133248 |

## String References

- **7393**: You throw in $6 and give a moment of silence for the spirits of the beasts.
- **7510**: Which item will you obtain? [6./$6.]

## Events

### Event 65535

#### Metadata

| Field        | Value   |
|--------------|---------|
| Entrypoint   | 0x0000  |
| Data Size    | 1 bytes |
| Instructions | 1       |

```
      00 01 02 03 04 05 06 07  08 09 0A 0B 0C 0D 0E 0F
      -- -- -- -- -- -- -- --  -- -- -- -- -- -- -- --
0000: 00                                                .               
```

#### Opcodes

```
  0: 0x0000 [0x00] END_REQSTACK()
```

### Event 65534

#### Metadata

| Field        | Value   |
|--------------|---------|
| Entrypoint   | 0x0001  |
| Data Size    | 1 bytes |
| Instructions | 1       |

```
      00 01 02 03 04 05 06 07  08 09 0A 0B 0C 0D 0E 0F
      -- -- -- -- -- -- -- --  -- -- -- -- -- -- -- --
0000:    00                                              .              
```

#### Opcodes

```
  0: 0x0001 [0x00] END_REQSTACK()
```

### Event 65535.1

#### Metadata

| Field        | Value    |
|--------------|----------|
| Entrypoint   | 0x0002   |
| Data Size    | 37 bytes |
| Instructions | 5        |

```
      00 01 02 03 04 05 06 07  08 09 0A 0B 0C 0D 0E 0F
      -- -- -- -- -- -- -- --  -- -- -- -- -- -- -- --
0000:       03 00 00 07 7F 1A  4C 00 66 01 00 F8 FF FF    ......L.f.....
0010: 7F F8 FF FF 7F 73 68 61  30 53 F8 FF FF 7F F8 FF  .....sha0S......
0020: FF 7F 73 68 61 30 00                              ..sha0.         
```

#### Opcodes

```
  0: 0x0002 [0x03] ExtData[1]->WorkLocal[0] = Entity->Race
  1: 0x0007 [0x1A] CALL_SUBROUTINE(address=0x004C)
  2: 0x000A [0x66] LOAD_EXT_SCHEDULER_MAIN: Load scheduler "sha0" with entities [EventEntity, EventEntity], work=ExtData[1]->WorkLocal[1]
  3: 0x0019 [0x53] WAIT_SCHEDULER_TASK: Wait for scheduler "sha0" with entities [EventEntity, EventEntity]
  4: 0x0026 [0x00] END_REQSTACK()
```

### Event 65535.2

#### Metadata

| Field        | Value     |
|--------------|-----------|
| Entrypoint   | 0x0027    |
| Data Size    | 185 bytes |
| Instructions | 13        |

```
      00 01 02 03 04 05 06 07  08 09 0A 0B 0C 0D 0E 0F
      -- -- -- -- -- -- -- --  -- -- -- -- -- -- -- --
0020:                      03  00 00 07 7F 1A 4C 00 66         ......L.f
0030: 01 00 F8 FF FF 7F F8 FF  FF 7F 73 68 61 31 53 F8  ..........sha1S.
0040: FF FF 7F F8 FF FF 7F 73  68 61 31 00 03 01 00 00  .......sha1.....
0050: 00 02 01 00 00 80 05 61  00 08 01 00 01 80 01 66  .......a.......f
0060: 00 08 01 00 02 80 14 01  00 03 80 07 01 00 04 80  ................
0070: 1B 03 01 00 00 00 02 01  00 00 80 05 86 00 08 01  ................
0080: 00 01 80 01 8B 00 08 01  00 02 80 14 01 00 03 80  ................
0090: 07 01 00 05 80 1B 03 01  00 00 00 02 01 00 00 80  ................
00A0: 05 AB 00 08 01 00 01 80  01 B0 00 08 01 00 02 80  ................
00B0: 14 01 00 03 80 07 01 00  06 80 1B 03 01 00 00 00  ................
00C0: 02 01 00 00 80 05 D0 00  08 01 00 01 80 01 D5 00  ................
00D0: 08 01 00 02 80 14 01 00  03 80 07 01 00 07 80 1B  ................
```

#### Opcodes

```
  0: 0x0027 [0x03] ExtData[1]->WorkLocal[0] = Entity->Race
  1: 0x002C [0x1A] CALL_SUBROUTINE(address=0x004C)
  2: 0x002F [0x66] LOAD_EXT_SCHEDULER_MAIN: Load scheduler "sha1" with entities [EventEntity, EventEntity], work=ExtData[1]->WorkLocal[1]
  3: 0x003E [0x53] WAIT_SCHEDULER_TASK: Wait for scheduler "sha1" with entities [EventEntity, EventEntity]
  4: 0x004B [0x00] END_REQSTACK()

SUBROUTINE_004C:
  5: 0x004C [0x03] ExtData[1]->WorkLocal[1] = ExtData[1]->WorkLocal[0]
  6: 0x0051 [0x02] IF !(ExtData[1]->WorkLocal[1] > 5*) GOTO 0x0061
  7: 0x0059 [0x08] ExtData[1]->WorkLocal[1] -= 1*
  8: 0x005E [0x01] GOTO 0x0066
  9: 0x0061 [0x08] ExtData[1]->WorkLocal[1] -= 2*

SUBROUTINE_0066:
 10: 0x0066 [0x14] ExtData[1]->WorkLocal[1] *= 10*
 11: 0x006B [0x07] ExtData[1]->WorkLocal[1] += 9*
 12: 0x0070 [0x1B] RETURN
```

#### Data or dead code:

```
# Dead code (unreachable instructions):
     0x0071 [0x03] ExtData[1]->WorkLocal[1] = ExtData[1]->WorkLocal[0]
     0x0076 [0x02] IF !(ExtData[1]->WorkLocal[1] > 5*) GOTO 0x0086
     0x007E [0x08] ExtData[1]->WorkLocal[1] -= 1*
     0x0083 [0x01] GOTO 0x008B
     0x0086 [0x08] ExtData[1]->WorkLocal[1] -= 2*
     0x008B [0x14] ExtData[1]->WorkLocal[1] *= 10*
     0x0090 [0x07] ExtData[1]->WorkLocal[1] += 70*
     0x0095 [0x1B] RETURN
     0x0096 [0x03] ExtData[1]->WorkLocal[1] = ExtData[1]->WorkLocal[0]
     0x009B [0x02] IF !(ExtData[1]->WorkLocal[1] > 5*) GOTO 0x00AB
     0x00A3 [0x08] ExtData[1]->WorkLocal[1] -= 1*
     0x00A8 [0x01] GOTO 0x00B0
     0x00AB [0x08] ExtData[1]->WorkLocal[1] -= 2*
     0x00B0 [0x14] ExtData[1]->WorkLocal[1] *= 10*
     0x00B5 [0x07] ExtData[1]->WorkLocal[1] += 140*
     0x00BA [0x1B] RETURN
     0x00BB [0x03] ExtData[1]->WorkLocal[1] = ExtData[1]->WorkLocal[0]
     0x00C0 [0x02] IF !(ExtData[1]->WorkLocal[1] > 5*) GOTO 0x00D0
     0x00C8 [0x08] ExtData[1]->WorkLocal[1] -= 1*
     0x00CD [0x01] GOTO 0x00D5
     0x00D0 [0x08] ExtData[1]->WorkLocal[1] -= 2*
     0x00D5 [0x14] ExtData[1]->WorkLocal[1] *= 10*
     0x00DA [0x07] ExtData[1]->WorkLocal[1] += 210*
     0x00DF [0x1B] RETURN
```

### Event 65535.3

#### Metadata

| Field        | Value    |
|--------------|----------|
| Entrypoint   | 0x00E0   |
| Data Size    | 23 bytes |
| Instructions | 5        |

```
      00 01 02 03 04 05 06 07  08 09 0A 0B 0C 0D 0E 0F
      -- -- -- -- -- -- -- --  -- -- -- -- -- -- -- --
00E0: 37 08 80 09 80 0A 80 0B  80 32 0C 80 1F 00 0D 80  7........2......
00F0: 0E 80 0F 80 1F 01 00                              .......         
```

#### Opcodes

```
  0: 0x00E0 [0x37] UPDATE_EVENT_POSITION_AND_DIR: x=-180.128*, z=-202.498*, y=-24.624*, direction=270.0°*
  1: 0x00E9 [0x32] ExtData[1]->MainSpeed = 13* * 0.1
  2: 0x00EC [0x1F] MOVE_ENTITY: EventEntity moves to X=-180.043*, Z=-197.168*, Y=-24.000*
  3: 0x00F4 [0x1F] MOVE_ENTITY: Update entity position (mode=1)
  4: 0x00F6 [0x00] END_REQSTACK()
```

### Event 23

#### Metadata

| Field        | Value      |
|--------------|------------|
| Entrypoint   | 0x00F7     |
| Data Size    | 1843 bytes |
| Instructions | 272        |

```
      00 01 02 03 04 05 06 07  08 09 0A 0B 0C 0D 0E 0F
      -- -- -- -- -- -- -- --  -- -- -- -- -- -- -- --
00F0:                      20  01 46 01 42 38 10 80 22          .F.B8.."
0100: 01 97 11 80 01 80 77 03  80 11 80 94 01 C5 C1 0C  ......w.........
0110: 01 94 01 C6 C1 0C 01 94  01 C7 C1 0C 01 94 01 C8  ................
0120: C1 0C 01 94 01 C9 C1 0C  01 94 01 CA C1 0C 01 94  ................
0130: 01 CB C1 0C 01 94 01 CE  C1 0C 01 94 01 CD C1 0C  ................
0140: 01 94 01 C3 C1 0C 01 4E  00 C5 C1 0C 01 4E 00 C6  .......N.....N..
0150: C1 0C 01 4E 00 C7 C1 0C  01 4E 00 C8 C1 0C 01 4E  ...N.....N.....N
0160: 00 C9 C1 0C 01 4E 00 CA  C1 0C 01 4E 00 CB C1 0C  .....N.....N....
0170: 01 4E 00 CE C1 0C 01 4E  00 CD C1 0C 01 4E 00 C3  .N.....N.....N..
0180: C1 0C 01 80 CD C1 0C 01  45 12 80 F0 FF FF 7F F0  ........E.......
0190: FF FF 7F 78 30 30 30 11  80 27 03 CD C1 0C 01 02  ...x000..'......
01A0: 45 13 80 F0 FF FF 7F F0  FF FF 7F 66 64 69 31 11  E..........fdi1.
01B0: 80 55 13 80 F0 FF FF 7F  F0 FF FF 7F 66 64 69 31  .U..........fdi1
01C0: 55 12 80 F0 FF FF 7F F0  FF FF 7F 78 30 30 30 2A  U..........x000*
01D0: 03 CD C1 0C 01 5C 00 14  80 5C 01 14 80 2B CD C1  .....\...\...+..
01E0: 0C 01 15 80 23 27 03 C5  C1 0C 01 02 1C 03 80 45  ....#'.........E
01F0: 12 80 F0 FF FF 7F F0 FF  FF 7F 78 30 30 31 11 80  ..........x001..
0200: 55 12 80 F0 FF FF 7F F0  FF FF 7F 78 30 30 31 2A  U..........x001*
0210: 03 C5 C1 0C 01 4A C5 C1  0C 01 CD C1 0C 01 4A C6  .....J........J.
0220: C1 0C 01 C5 C1 0C 01 4A  C7 C1 0C 01 C5 C1 0C 01  .......J........
0230: 4A C8 C1 0C 01 C5 C1 0C  01 4A C9 C1 0C 01 C5 C1  J........J......
0240: 0C 01 4A CA C1 0C 01 C5  C1 0C 01 4A CB C1 0C 01  ..J........J....
0250: C5 C1 0C 01 4A CE C1 0C  01 C5 C1 0C 01 4A CD C1  ....J........J..
0260: 0C 01 C5 C1 0C 01 4A C3  C1 0C 01 C5 C1 0C 01 2B  ......J........+
0270: C5 C1 0C 01 16 80 23 7B  C5 C1 0C 01 4B C5 C1 0C  ......#{....K...
0280: 01 17 80 1C 18 80 45 12  80 F0 FF FF 7F F0 FF FF  ......E.........
0290: 7F 78 30 30 32 11 80 55  12 80 F0 FF FF 7F F0 FF  .x002..U........
02A0: FF 7F 78 30 30 32 6F 76  C5 C1 0C 01 2B C5 C1 0C  ..x002ov....+...
02B0: 01 19 80 23 45 12 80 F0  FF FF 7F F0 FF FF 7F 78  ...#E..........x
02C0: 30 30 33 11 80 1C 1A 80  2B C5 C1 0C 01 1B 80 23  003.....+......#
02D0: 55 12 80 F0 FF FF 7F F0  FF FF 7F 78 30 30 33 27  U..........x003'
02E0: 03 C6 C1 0C 01 03 27 03  C7 C1 0C 01 03 27 03 C8  ......'......'..
02F0: C1 0C 01 04 27 03 C9 C1  0C 01 03 27 03 CA C1 0C  ....'......'....
0300: 01 03 27 03 CB C1 0C 01  03 27 03 CE C1 0C 01 03  ..'......'......
0310: 27 03 CD C1 0C 01 04 1C  1C 80 45 12 80 F0 FF FF  '.........E.....
0320: 7F F0 FF FF 7F 78 30 30  34 11 80 1C 1A 80 2B C5  .....x004.....+.
0330: C1 0C 01 1D 80 23 55 12  80 F0 FF FF 7F F0 FF FF  .....#U.........
0340: 7F 78 30 30 34 27 03 C6  C1 0C 01 04 27 03 C7 C1  .x004'......'...
0350: 0C 01 04 27 03 C8 C1 0C  01 05 27 03 C9 C1 0C 01  ...'......'.....
0360: 04 27 03 CA C1 0C 01 04  27 03 CE C1 0C 01 04 27  .'......'......'
0370: 03 CD C1 0C 01 05 29 03  CB C1 0C 01 04 4A C5 C1  ......)......J..
0380: 0C 01 CB C1 0C 01 6F 76  C5 C1 0C 01 45 12 80 F0  ......ov....E...
0390: FF FF 7F F0 FF FF 7F 78  30 30 61 11 80 55 12 80  .......x00a..U..
03A0: F0 FF FF 7F F0 FF FF 7F  78 30 30 61 2B C5 C1 0C  ........x00a+...
03B0: 01 1E 80 1C 1A 80 23 45  12 80 F0 FF FF 7F F0 FF  ......#E........
03C0: FF 7F 78 30 30 35 11 80  2B CB C1 0C 01 1F 80 1C  ..x005..+.......
03D0: 1A 80 4A C5 C1 0C 01 C8  C1 0C 01 6F 76 C5 C1 0C  ..J........ov...
03E0: 01 55 12 80 F0 FF FF 7F  F0 FF FF 7F 78 30 30 35  .U..........x005
03F0: 23 2B C8 C1 0C 01 20 80  1C 1A 80 23 45 12 80 F0  #+.... ....#E...
0400: FF FF 7F F0 FF FF 7F 78  30 30 36 11 80 55 12 80  .......x006..U..
0410: F0 FF FF 7F F0 FF FF 7F  78 30 30 36 1C 21 80 27  ........x006.!.'
0420: 03 C3 C1 0C 01 06 2B C3  C1 0C 01 22 80 23 27 03  ......+....".#'.
0430: C3 C1 0C 01 07 4A C5 C1  0C 01 C3 C1 0C 01 1C 18  .....J..........
0440: 80 6F 76 C5 C1 0C 01 2B  C5 C1 0C 01 23 80 23 45  .ov....+....#.#E
0450: 12 80 F0 FF FF 7F F0 FF  FF 7F 78 30 30 37 11 80  ..........x007..
0460: 27 03 CB C1 0C 01 05 1C  24 80 2B CB C1 0C 01 25  '.......$.+....%
0470: 80 23 27 03 CB C1 0C 01  06 55 12 80 F0 FF FF 7F  .#'......U......
0480: F0 FF FF 7F 78 30 30 37  1C 1C 80 4A C5 C1 0C 01  ....x007...J....
0490: CB C1 0C 01 1C 18 80 45  12 80 F0 FF FF 7F F0 FF  .......E........
04A0: FF 7F 78 30 30 38 11 80  55 12 80 F0 FF FF 7F F0  ..x008..U.......
04B0: FF FF 7F 78 30 30 38 6F  76 C5 C1 0C 01 2B C5 C1  ...x008ov....+..
04C0: 0C 01 26 80 23 5D 11 80  27 80 45 12 80 F0 FF FF  ..&.#]..'.E.....
04D0: 7F F0 FF FF 7F 78 30 30  39 11 80 1C 1C 80 2B CB  .....x009.....+.
04E0: C1 0C 01 28 80 23 55 12  80 F0 FF FF 7F F0 FF FF  ...(.#U.........
04F0: 7F 78 30 30 39 7B C5 C1  0C 01 45 12 80 F0 FF FF  .x009{....E.....
0500: 7F F0 FF FF 7F 77 30 30  30 11 80 5C 00 1A 80 5C  .....w000..\...\
0510: 01 1A 80 9A 4B C5 C1 0C  01 17 80 6F 76 C5 C1 0C  ....K......ov...
0520: 01 55 12 80 F0 FF FF 7F  F0 FF FF 7F 77 30 30 30  .U..........w000
0530: 2B C5 C1 0C 01 29 80 23  4B CB C1 0C 01 2A 80 1C  +....).#K....*..
0540: 21 80 4B CD C1 0C 01 2A  80 4B CE C1 0C 01 2A 80  !.K....*.K....*.
0550: 6F 76 CB C1 0C 01 27 03  CD C1 0C 01 03 1C 21 80  ov....'.......!.
0560: 27 03 CE C1 0C 01 02 4A  C5 C1 0C 01 CB C1 0C 01  '......J........
0570: 1C 21 80 27 03 CB C1 0C  01 02 1C 1C 80 27 03 C8  .!.'.........'..
0580: C1 0C 01 02 1C 03 80 45  12 80 F0 FF FF 7F F0 FF  .......E........
0590: FF 7F 77 30 30 31 11 80  2A 03 C8 C1 0C 01 2B C8  ..w001..*.....+.
05A0: C1 0C 01 2B 80 23 55 12  80 F0 FF FF 7F F0 FF FF  ...+.#U.........
05B0: 7F 77 30 30 31 6F 76 C5  C1 0C 01 4A C5 C1 0C 01  .w001ov....J....
05C0: C8 C1 0C 01 6F 76 C5 C1  0C 01 2B C5 C1 0C 01 2C  ....ov....+....,
05D0: 80 23 45 12 80 F0 FF FF  7F F0 FF FF 7F 77 30 30  .#E..........w00
05E0: 32 11 80 55 12 80 F0 FF  FF 7F F0 FF FF 7F 77 30  2..U..........w0
05F0: 30 32 1C 21 80 2B C8 C1  0C 01 2D 80 23 45 12 80  02.!.+....-.#E..
0600: F0 FF FF 7F F0 FF FF 7F  77 30 30 33 11 80 55 12  ........w003..U.
0610: 80 F0 FF FF 7F F0 FF FF  7F 77 30 30 33 1C 21 80  .........w003.!.
0620: 2B C5 C1 0C 01 2E 80 23  1C 21 80 2B C8 C1 0C 01  +......#.!.+....
0630: 2F 80 4B C8 C1 0C 01 30  80 6F 76 C8 C1 0C 01 23  /.K....0.ov....#
0640: 4B CA C1 0C 01 30 80 4B  C9 C1 0C 01 30 80 6F 76  K....0.K....0.ov
0650: C9 C1 0C 01 27 03 C9 C1  0C 01 02 1C 21 80 6F 76  ....'.......!.ov
0660: CA C1 0C 01 27 03 CA C1  0C 01 02 1C 21 80 27 03  ....'.......!.'.
0670: C8 C1 0C 01 03 1C 31 80  27 03 C3 C1 0C 01 04 1C  ......1.'.......
0680: 1A 80 45 12 80 F0 FF FF  7F F0 FF FF 7F 77 30 30  ..E..........w00
0690: 34 11 80 55 12 80 F0 FF  FF 7F F0 FF FF 7F 77 30  4..U..........w0
06A0: 30 34 2A 03 C3 C1 0C 01  2B C3 C1 0C 01 32 80 23  04*.....+....2.#
06B0: 4A C5 C1 0C 01 C3 C1 0C  01 6F 76 C5 C1 0C 01 1C  J........ov.....
06C0: 1C 80 2B C5 C1 0C 01 33  80 23 45 12 80 F0 FF FF  ..+....3.#E.....
06D0: 7F F0 FF FF 7F 77 30 30  35 11 80 2B C3 C1 0C 01  .....w005..+....
06E0: 34 80 23 55 12 80 F0 FF  FF 7F F0 FF FF 7F 77 30  4.#U..........w0
06F0: 30 35 45 12 80 F0 FF FF  7F F0 FF FF 7F 77 30 30  05E..........w00
0700: 36 11 80 55 12 80 F0 FF  FF 7F F0 FF FF 7F 77 30  6..U..........w0
0710: 30 36 2B C5 C1 0C 01 35  80 23 2B C3 C1 0C 01 36  06+....5.#+....6
0720: 80 23 1C 21 80 27 03 C3  C1 0C 01 05 1C 1C 80 45  .#.!.'.........E
0730: 12 80 F0 FF FF 7F F0 FF  FF 7F 77 30 30 37 11 80  ..........w007..
0740: 55 12 80 F0 FF FF 7F F0  FF FF 7F 77 30 30 37 2A  U..........w007*
0750: 03 C3 C1 0C 01 1C 37 80  27 03 C3 C1 0C 01 06 2B  ......7.'......+
0760: C3 C1 0C 01 38 80 23 29  03 C3 C1 0C 01 07 45 12  ....8.#)......E.
0770: 80 F0 FF FF 7F F0 FF FF  7F 77 30 30 38 11 80 55  .........w008..U
0780: 12 80 F0 FF FF 7F F0 FF  FF 7F 77 30 30 38 2B C5  ..........w008+.
0790: C1 0C 01 39 80 23 4B C5  C1 0C 01 3A 80 6F 76 C5  ...9.#K....:.ov.
07A0: C1 0C 01 27 03 C5 C1 0C  01 03 1C 21 80 45 12 80  ...'.......!.E..
07B0: F0 FF FF 7F F0 FF FF 7F  77 30 30 39 11 80 1C 21  ........w009...!
07C0: 80 27 03 C6 C1 0C 01 02  1C 1C 80 27 03 C7 C1 0C  .'.........'....
07D0: 01 02 1C 27 80 45 13 80  F0 FF FF 7F F0 FF FF 7F  ...'.E..........
07E0: 66 64 6F 32 11 80 55 13  80 F0 FF FF 7F F0 FF FF  fdo2..U.........
07F0: 7F 66 64 6F 32 52 12 80  F0 FF FF 7F F0 FF FF 7F  .fdo2R..........
0800: 77 30 30 39 5D 11 80 27  80 1C 1A 80 78 5C 00 11  w009]..'....x\..
0810: 80 5C 01 11 80 46 00 45  13 80 F0 FF FF 7F F0 FF  .\...F.E........
0820: FF 7F 66 64 69 32 11 80  21 00                    ..fdi2..!.      
```

#### Opcodes

```
  0: 0x00F7 [0x20] SET_CLI_EVENT_UC_FLAG: Lock player control
  1: 0x00F9 [0x46] CAMERA_CONTROL: Disable user control
  2: 0x00FB [0x42] SET_CLI_EVENT_CANCEL_DATA()
  3: 0x00FC [0x38] SET_CLIENT_EVENT_MODE(mode=19*)
  4: 0x00FF [0x22] ENTITY_HIDE_FLAG(enabled=0x01)
  5: 0x0101 [0x97] SAVE_SET_WIND_VALUES(wind_base=0x8011, wind_width=0x8001)
  6: 0x0106 [0x77] SET_EVENT_TIME_WEATHER(hour=10*, weather=0*)
  7: 0x010B [0x94] Trion (ID: 17613253/0x010CC1C5)->Render.Flags3 ^= 0x01
  8: 0x0111 [0x94] Nonterene (ID: 17613254/0x010CC1C6)->Render.Flags3 ^= 0x01
  9: 0x0117 [0x94] Maunadolace (ID: 17613255/0x010CC1C7)->Render.Flags3 ^= 0x01
 10: 0x011D [0x94] Curilla (ID: 17613256/0x010CC1C8)->Render.Flags3 ^= 0x01
 11: 0x0123 [0x94] Guilerme (ID: 17613257/0x010CC1C9)->Render.Flags3 ^= 0x01
 12: 0x0129 [0x94] Bacherume (ID: 17613258/0x010CC1CA)->Render.Flags3 ^= 0x01
 13: 0x012F [0x94] Rahal (ID: 17613259/0x010CC1CB)->Render.Flags3 ^= 0x01
 14: 0x0135 [0x94] Aramaviont (ID: 17613262/0x010CC1CE)->Render.Flags3 ^= 0x01
 15: 0x013B [0x94] Milchupain (ID: 17613261/0x010CC1CD)->Render.Flags3 ^= 0x01
 16: 0x0141 [0x94] Pieuje (ID: 17613251/0x010CC1C3)->Render.Flags3 ^= 0x01
 17: 0x0147 [0x4E] SET_ENTITY_HIDE_FLAG: Show Trion (ID: 17613253/0x010CC1C5)
 18: 0x014D [0x4E] SET_ENTITY_HIDE_FLAG: Show Nonterene (ID: 17613254/0x010CC1C6)
 19: 0x0153 [0x4E] SET_ENTITY_HIDE_FLAG: Show Maunadolace (ID: 17613255/0x010CC1C7)
 20: 0x0159 [0x4E] SET_ENTITY_HIDE_FLAG: Show Curilla (ID: 17613256/0x010CC1C8)
 21: 0x015F [0x4E] SET_ENTITY_HIDE_FLAG: Show Guilerme (ID: 17613257/0x010CC1C9)
 22: 0x0165 [0x4E] SET_ENTITY_HIDE_FLAG: Show Bacherume (ID: 17613258/0x010CC1CA)
 23: 0x016B [0x4E] SET_ENTITY_HIDE_FLAG: Show Rahal (ID: 17613259/0x010CC1CB)
 24: 0x0171 [0x4E] SET_ENTITY_HIDE_FLAG: Show Aramaviont (ID: 17613262/0x010CC1CE)
 25: 0x0177 [0x4E] SET_ENTITY_HIDE_FLAG: Show Milchupain (ID: 17613261/0x010CC1CD)
 26: 0x017D [0x4E] SET_ENTITY_HIDE_FLAG: Show Pieuje (ID: 17613251/0x010CC1C3)
 27: 0x0183 [0x80] LOAD_WAIT(entity=Milchupain (ID: 17613261/0x010CC1CD))
 28: 0x0188 [0x45] LOAD_SCHEDULED_TASK: Load scheduler "x000" with entities [LocalPlayer, LocalPlayer], work=[243*, 0*]
 29: 0x0199 [0x27] REQ_SET(priority=0x03, entity_id=Milchupain (ID: 17613261/0x010CC1CD), tag_num=0x02)
 30: 0x01A0 [0x45] LOAD_SCHEDULED_TASK: Load scheduler "fdi1" with entities [LocalPlayer, LocalPlayer], work=[200*, 0*]
 31: 0x01B1 [0x55] WAIT_LOAD_SCHEDULER: Wait for scheduler "fdi1" with entities [LocalPlayer, LocalPlayer], work=200*
 32: 0x01C0 [0x55] WAIT_LOAD_SCHEDULER: Wait for scheduler "x000" with entities [LocalPlayer, LocalPlayer], work=243*
 33: 0x01CF [0x2A] GET_REQ_LEVEL(level=3, entity_id=Milchupain (ID: 17613261/0x010CC1CD))
 34: 0x01D5 [0x5C] MUSIC_CONTROL: Set Idle (Day) music to song 157*
 35: 0x01D9 [0x5C] MUSIC_CONTROL: Set Idle (Night) music to song 157*
 36: 0x01DD [0x2B] Milchupain (ID: 17613261/0x010CC1CD) [7430*]:
    → "Your Highness! The Orcs have formed a stronghold in the Qu'Bia Arena, and their leaders have gathered there!"
 37: 0x01E4 [0x23] WAIT_FOR_DIALOG_INTERACTION
 38: 0x01E5 [0x27] REQ_SET(priority=0x03, entity_id=Trion (ID: 17613253/0x010CC1C5), tag_num=0x02)
 39: 0x01EC [0x1C] WAIT(10* ticks)
 40: 0x01EF [0x45] LOAD_SCHEDULED_TASK: Load scheduler "x001" with entities [LocalPlayer, LocalPlayer], work=[243*, 0*]
 41: 0x0200 [0x55] WAIT_LOAD_SCHEDULER: Wait for scheduler "x001" with entities [LocalPlayer, LocalPlayer], work=243*
 42: 0x020F [0x2A] GET_REQ_LEVEL(level=3, entity_id=Trion (ID: 17613253/0x010CC1C5))
 43: 0x0215 [0x4A] Trion (ID: 17613253/0x010CC1C5) looks at Milchupain (ID: 17613261/0x010CC1CD)
 44: 0x021E [0x4A] Nonterene (ID: 17613254/0x010CC1C6) looks at Trion (ID: 17613253/0x010CC1C5)
 45: 0x0227 [0x4A] Maunadolace (ID: 17613255/0x010CC1C7) looks at Trion (ID: 17613253/0x010CC1C5)
 46: 0x0230 [0x4A] Curilla (ID: 17613256/0x010CC1C8) looks at Trion (ID: 17613253/0x010CC1C5)
 47: 0x0239 [0x4A] Guilerme (ID: 17613257/0x010CC1C9) looks at Trion (ID: 17613253/0x010CC1C5)
 48: 0x0242 [0x4A] Bacherume (ID: 17613258/0x010CC1CA) looks at Trion (ID: 17613253/0x010CC1C5)
 49: 0x024B [0x4A] Rahal (ID: 17613259/0x010CC1CB) looks at Trion (ID: 17613253/0x010CC1C5)
 50: 0x0254 [0x4A] Aramaviont (ID: 17613262/0x010CC1CE) looks at Trion (ID: 17613253/0x010CC1C5)
 51: 0x025D [0x4A] Milchupain (ID: 17613261/0x010CC1CD) looks at Trion (ID: 17613253/0x010CC1C5)
 52: 0x0266 [0x4A] Pieuje (ID: 17613251/0x010CC1C3) looks at Trion (ID: 17613253/0x010CC1C5)
 53: 0x026F [0x2B] Trion (ID: 17613253/0x010CC1C5) [7431*]:
    → "Understood. You may step down. It looks as though this conflict is to be decided in the arena."
 54: 0x0276 [0x23] WAIT_FOR_DIALOG_INTERACTION
 55: 0x0277 [0x7B] Trion (ID: 17613253/0x010CC1C5) stops talking
 56: 0x027C [0x4B] UPDATE_ENTITY_YAW(entity=Trion (ID: 17613253/0x010CC1C5), yaw=6.8°*)
 57: 0x0283 [0x1C] WAIT(15* ticks)
 58: 0x0286 [0x45] LOAD_SCHEDULED_TASK: Load scheduler "x002" with entities [LocalPlayer, LocalPlayer], work=[243*, 0*]
 59: 0x0297 [0x55] WAIT_LOAD_SCHEDULER: Wait for scheduler "x002" with entities [LocalPlayer, LocalPlayer], work=243*
 60: 0x02A6 [0x6F] WAIT_FRAME_DELAY: Yield until WaitTime reaches zero
 61: 0x02A7 [0x76] CHECK_ENTITY_RENDER_FLAGS: Wait until Trion (ID: 17613253/0x010CC1C5) Render.Flags0 and Render.Flags3 conditions are met
 62: 0x02AC [0x2B] Trion (ID: 17613253/0x010CC1C5) [7432*]:
    → "Noble knights of San d'Oria! If you fear for your lives, you are free to return to your families. However, unless the Orcs are defeated here today, you may not have a home to return to."
 63: 0x02B3 [0x23] WAIT_FOR_DIALOG_INTERACTION
 64: 0x02B4 [0x45] LOAD_SCHEDULED_TASK: Load scheduler "x003" with entities [LocalPlayer, LocalPlayer], work=[243*, 0*]
 65: 0x02C5 [0x1C] WAIT(120* ticks)
 66: 0x02C8 [0x2B] Trion (ID: 17613253/0x010CC1C5) [7433*]:
    → "Those who wish to stay, entrust your lives to me, and I will not let you, your families, nor our fine kingdom down."
 67: 0x02CF [0x23] WAIT_FOR_DIALOG_INTERACTION
 68: 0x02D0 [0x55] WAIT_LOAD_SCHEDULER: Wait for scheduler "x003" with entities [LocalPlayer, LocalPlayer], work=243*
 69: 0x02DF [0x27] REQ_SET(priority=0x03, entity_id=Nonterene (ID: 17613254/0x010CC1C6), tag_num=0x03)
 70: 0x02E6 [0x27] REQ_SET(priority=0x03, entity_id=Maunadolace (ID: 17613255/0x010CC1C7), tag_num=0x03)
 71: 0x02ED [0x27] REQ_SET(priority=0x03, entity_id=Curilla (ID: 17613256/0x010CC1C8), tag_num=0x04)
 72: 0x02F4 [0x27] REQ_SET(priority=0x03, entity_id=Guilerme (ID: 17613257/0x010CC1C9), tag_num=0x03)
 73: 0x02FB [0x27] REQ_SET(priority=0x03, entity_id=Bacherume (ID: 17613258/0x010CC1CA), tag_num=0x03)
 74: 0x0302 [0x27] REQ_SET(priority=0x03, entity_id=Rahal (ID: 17613259/0x010CC1CB), tag_num=0x03)
 75: 0x0309 [0x27] REQ_SET(priority=0x03, entity_id=Aramaviont (ID: 17613262/0x010CC1CE), tag_num=0x03)
 76: 0x0310 [0x27] REQ_SET(priority=0x03, entity_id=Milchupain (ID: 17613261/0x010CC1CD), tag_num=0x04)
 77: 0x0317 [0x1C] WAIT(60* ticks)
 78: 0x031A [0x45] LOAD_SCHEDULED_TASK: Load scheduler "x004" with entities [LocalPlayer, LocalPlayer], work=[243*, 0*]
 79: 0x032B [0x1C] WAIT(120* ticks)
 80: 0x032E [0x2B] Trion (ID: 17613253/0x010CC1C5) [7434*]:
    → "Let us take back what the beasts have wrongfully stolen from us! Let us bring victory to the San d'Orian people!"
 81: 0x0335 [0x23] WAIT_FOR_DIALOG_INTERACTION
 82: 0x0336 [0x55] WAIT_LOAD_SCHEDULER: Wait for scheduler "x004" with entities [LocalPlayer, LocalPlayer], work=243*
 83: 0x0345 [0x27] REQ_SET(priority=0x03, entity_id=Nonterene (ID: 17613254/0x010CC1C6), tag_num=0x04)
 84: 0x034C [0x27] REQ_SET(priority=0x03, entity_id=Maunadolace (ID: 17613255/0x010CC1C7), tag_num=0x04)
 85: 0x0353 [0x27] REQ_SET(priority=0x03, entity_id=Curilla (ID: 17613256/0x010CC1C8), tag_num=0x05)
 86: 0x035A [0x27] REQ_SET(priority=0x03, entity_id=Guilerme (ID: 17613257/0x010CC1C9), tag_num=0x04)
 87: 0x0361 [0x27] REQ_SET(priority=0x03, entity_id=Bacherume (ID: 17613258/0x010CC1CA), tag_num=0x04)
 88: 0x0368 [0x27] REQ_SET(priority=0x03, entity_id=Aramaviont (ID: 17613262/0x010CC1CE), tag_num=0x04)
 89: 0x036F [0x27] REQ_SET(priority=0x03, entity_id=Milchupain (ID: 17613261/0x010CC1CD), tag_num=0x05)
 90: 0x0376 [0x29] REQ_SET_WAIT(priority=0x03, entity_id=Rahal (ID: 17613259/0x010CC1CB), tag_num=0x04)
 91: 0x037D [0x4A] Trion (ID: 17613253/0x010CC1C5) looks at Rahal (ID: 17613259/0x010CC1CB)
 92: 0x0386 [0x6F] WAIT_FRAME_DELAY: Yield until WaitTime reaches zero
 93: 0x0387 [0x76] CHECK_ENTITY_RENDER_FLAGS: Wait until Trion (ID: 17613253/0x010CC1C5) Render.Flags0 and Render.Flags3 conditions are met
 94: 0x038C [0x45] LOAD_SCHEDULED_TASK: Load scheduler "x00a" with entities [LocalPlayer, LocalPlayer], work=[243*, 0*]
 95: 0x039D [0x55] WAIT_LOAD_SCHEDULER: Wait for scheduler "x00a" with entities [LocalPlayer, LocalPlayer], work=243*
 96: 0x03AC [0x2B] Trion (ID: 17613253/0x010CC1C5) [7435*]:
    → "Here are your orders! Rahal, Curilla--have your knights surround the arena. Allow not a single Orc to escape."
 97: 0x03B3 [0x1C] WAIT(120* ticks)
 98: 0x03B6 [0x23] WAIT_FOR_DIALOG_INTERACTION
 99: 0x03B7 [0x45] LOAD_SCHEDULED_TASK: Load scheduler "x005" with entities [LocalPlayer, LocalPlayer], work=[243*, 0*]
100: 0x03C8 [0x2B] Rahal (ID: 17613259/0x010CC1CB) [7436*]:
    → "Understood, Your Highness."
101: 0x03CF [0x1C] WAIT(120* ticks)
102: 0x03D2 [0x4A] Trion (ID: 17613253/0x010CC1C5) looks at Curilla (ID: 17613256/0x010CC1C8)
103: 0x03DB [0x6F] WAIT_FRAME_DELAY: Yield until WaitTime reaches zero
104: 0x03DC [0x76] CHECK_ENTITY_RENDER_FLAGS: Wait until Trion (ID: 17613253/0x010CC1C5) Render.Flags0 and Render.Flags3 conditions are met
105: 0x03E1 [0x55] WAIT_LOAD_SCHEDULER: Wait for scheduler "x005" with entities [LocalPlayer, LocalPlayer], work=243*
106: 0x03F0 [0x23] WAIT_FOR_DIALOG_INTERACTION
107: 0x03F1 [0x2B] Curilla (ID: 17613256/0x010CC1C8) [7437*]:
    → "We will not let the Kingdom down."
108: 0x03F8 [0x1C] WAIT(120* ticks)
109: 0x03FB [0x23] WAIT_FOR_DIALOG_INTERACTION
110: 0x03FC [0x45] LOAD_SCHEDULED_TASK: Load scheduler "x006" with entities [LocalPlayer, LocalPlayer], work=[243*, 0*]
111: 0x040D [0x55] WAIT_LOAD_SCHEDULER: Wait for scheduler "x006" with entities [LocalPlayer, LocalPlayer], work=243*
112: 0x041C [0x1C] WAIT(30* ticks)
113: 0x041F [0x27] REQ_SET(priority=0x03, entity_id=Pieuje (ID: 17613251/0x010CC1C3), tag_num=0x06)
114: 0x0426 [0x2B] Pieuje (ID: 17613251/0x010CC1C3) [7438*]:
    → "What of your knights, Brother?"
115: 0x042D [0x23] WAIT_FOR_DIALOG_INTERACTION
116: 0x042E [0x27] REQ_SET(priority=0x03, entity_id=Pieuje (ID: 17613251/0x010CC1C3), tag_num=0x07)
117: 0x0435 [0x4A] Trion (ID: 17613253/0x010CC1C5) looks at Pieuje (ID: 17613251/0x010CC1C3)
118: 0x043E [0x1C] WAIT(15* ticks)
119: 0x0441 [0x6F] WAIT_FRAME_DELAY: Yield until WaitTime reaches zero
120: 0x0442 [0x76] CHECK_ENTITY_RENDER_FLAGS: Wait until Trion (ID: 17613253/0x010CC1C5) Render.Flags0 and Render.Flags3 conditions are met
121: 0x0447 [0x2B] Trion (ID: 17613253/0x010CC1C5) [7439*]:
    → "My company will enter the arena and attempt to locate the central command."
122: 0x044E [0x23] WAIT_FOR_DIALOG_INTERACTION
123: 0x044F [0x45] LOAD_SCHEDULED_TASK: Load scheduler "x007" with entities [LocalPlayer, LocalPlayer], work=[243*, 0*]
124: 0x0460 [0x27] REQ_SET(priority=0x03, entity_id=Rahal (ID: 17613259/0x010CC1CB), tag_num=0x05)
125: 0x0467 [0x1C] WAIT(20* ticks)
126: 0x046A [0x2B] Rahal (ID: 17613259/0x010CC1CB) [7440*]:
    → "Prince Trion! That would be suicide! Assign the task to my knights!"
127: 0x0471 [0x23] WAIT_FOR_DIALOG_INTERACTION
128: 0x0472 [0x27] REQ_SET(priority=0x03, entity_id=Rahal (ID: 17613259/0x010CC1CB), tag_num=0x06)
129: 0x0479 [0x55] WAIT_LOAD_SCHEDULER: Wait for scheduler "x007" with entities [LocalPlayer, LocalPlayer], work=243*
130: 0x0488 [0x1C] WAIT(60* ticks)
131: 0x048B [0x4A] Trion (ID: 17613253/0x010CC1C5) looks at Rahal (ID: 17613259/0x010CC1CB)
132: 0x0494 [0x1C] WAIT(15* ticks)
133: 0x0497 [0x45] LOAD_SCHEDULED_TASK: Load scheduler "x008" with entities [LocalPlayer, LocalPlayer], work=[243*, 0*]
134: 0x04A8 [0x55] WAIT_LOAD_SCHEDULER: Wait for scheduler "x008" with entities [LocalPlayer, LocalPlayer], work=243*
135: 0x04B7 [0x6F] WAIT_FRAME_DELAY: Yield until WaitTime reaches zero
136: 0x04B8 [0x76] CHECK_ENTITY_RENDER_FLAGS: Wait until Trion (ID: 17613253/0x010CC1C5) Render.Flags0 and Render.Flags3 conditions are met
137: 0x04BD [0x2B] Trion (ID: 17613253/0x010CC1C5) [7441*]:
    → "Do not be ridiculous, Rahal. I have a duty to my kingdom and the countless lives that reside within it. And even if I am to fall in battle, Pieuje will be there to replace me."
138: 0x04C4 [0x23] WAIT_FOR_DIALOG_INTERACTION
139: 0x04C5 [0x5D] SET_MUSIC_VOLUME(volume=0*, fade_time=150*)
140: 0x04CA [0x45] LOAD_SCHEDULED_TASK: Load scheduler "x009" with entities [LocalPlayer, LocalPlayer], work=[243*, 0*]
141: 0x04DB [0x1C] WAIT(60* ticks)
142: 0x04DE [0x2B] Rahal (ID: 17613259/0x010CC1CB) [7442*]:
    → "Prince Trion..."
143: 0x04E5 [0x23] WAIT_FOR_DIALOG_INTERACTION
144: 0x04E6 [0x55] WAIT_LOAD_SCHEDULER: Wait for scheduler "x009" with entities [LocalPlayer, LocalPlayer], work=243*
145: 0x04F5 [0x7B] Trion (ID: 17613253/0x010CC1C5) stops talking
146: 0x04FA [0x45] LOAD_SCHEDULED_TASK: Load scheduler "w000" with entities [LocalPlayer, LocalPlayer], work=[243*, 0*]
147: 0x050B [0x5C] MUSIC_CONTROL: Set Idle (Day) music to song 120*
148: 0x050F [0x5C] MUSIC_CONTROL: Set Idle (Night) music to song 120*
149: 0x0513 [0x9A] WAIT_MUSIC_SERVER()
150: 0x0514 [0x4B] UPDATE_ENTITY_YAW(entity=Trion (ID: 17613253/0x010CC1C5), yaw=6.8°*)
151: 0x051B [0x6F] WAIT_FRAME_DELAY: Yield until WaitTime reaches zero
152: 0x051C [0x76] CHECK_ENTITY_RENDER_FLAGS: Wait until Trion (ID: 17613253/0x010CC1C5) Render.Flags0 and Render.Flags3 conditions are met
153: 0x0521 [0x55] WAIT_LOAD_SCHEDULER: Wait for scheduler "w000" with entities [LocalPlayer, LocalPlayer], work=243*
154: 0x0530 [0x2B] Trion (ID: 17613253/0x010CC1C5) [7443*]:
    → "Knights, take your positions! The time for judgment is upon us! And may victory taste as sweet as the Rolanberry 813 we shall drink when we return home!"
155: 0x0537 [0x23] WAIT_FOR_DIALOG_INTERACTION
156: 0x0538 [0x4B] UPDATE_ENTITY_YAW(entity=Rahal (ID: 17613259/0x010CC1CB), yaw=14.6°*)
157: 0x053F [0x1C] WAIT(30* ticks)
158: 0x0542 [0x4B] UPDATE_ENTITY_YAW(entity=Milchupain (ID: 17613261/0x010CC1CD), yaw=14.6°*)
159: 0x0549 [0x4B] UPDATE_ENTITY_YAW(entity=Aramaviont (ID: 17613262/0x010CC1CE), yaw=14.6°*)
160: 0x0550 [0x6F] WAIT_FRAME_DELAY: Yield until WaitTime reaches zero
161: 0x0551 [0x76] CHECK_ENTITY_RENDER_FLAGS: Wait until Rahal (ID: 17613259/0x010CC1CB) Render.Flags0 and Render.Flags3 conditions are met
162: 0x0556 [0x27] REQ_SET(priority=0x03, entity_id=Milchupain (ID: 17613261/0x010CC1CD), tag_num=0x03)
163: 0x055D [0x1C] WAIT(30* ticks)
164: 0x0560 [0x27] REQ_SET(priority=0x03, entity_id=Aramaviont (ID: 17613262/0x010CC1CE), tag_num=0x02)
165: 0x0567 [0x4A] Trion (ID: 17613253/0x010CC1C5) looks at Rahal (ID: 17613259/0x010CC1CB)
166: 0x0570 [0x1C] WAIT(30* ticks)
167: 0x0573 [0x27] REQ_SET(priority=0x03, entity_id=Rahal (ID: 17613259/0x010CC1CB), tag_num=0x02)
168: 0x057A [0x1C] WAIT(60* ticks)
169: 0x057D [0x27] REQ_SET(priority=0x03, entity_id=Curilla (ID: 17613256/0x010CC1C8), tag_num=0x02)
170: 0x0584 [0x1C] WAIT(10* ticks)
171: 0x0587 [0x45] LOAD_SCHEDULED_TASK: Load scheduler "w001" with entities [LocalPlayer, LocalPlayer], work=[243*, 0*]
172: 0x0598 [0x2A] GET_REQ_LEVEL(level=3, entity_id=Curilla (ID: 17613256/0x010CC1C8))
173: 0x059E [0x2B] Curilla (ID: 17613256/0x010CC1C8) [7444*]:
    → "Prince Trion."
174: 0x05A5 [0x23] WAIT_FOR_DIALOG_INTERACTION
175: 0x05A6 [0x55] WAIT_LOAD_SCHEDULER: Wait for scheduler "w001" with entities [LocalPlayer, LocalPlayer], work=243*
176: 0x05B5 [0x6F] WAIT_FRAME_DELAY: Yield until WaitTime reaches zero
177: 0x05B6 [0x76] CHECK_ENTITY_RENDER_FLAGS: Wait until Trion (ID: 17613253/0x010CC1C5) Render.Flags0 and Render.Flags3 conditions are met
178: 0x05BB [0x4A] Trion (ID: 17613253/0x010CC1C5) looks at Curilla (ID: 17613256/0x010CC1C8)
179: 0x05C4 [0x6F] WAIT_FRAME_DELAY: Yield until WaitTime reaches zero
180: 0x05C5 [0x76] CHECK_ENTITY_RENDER_FLAGS: Wait until Trion (ID: 17613253/0x010CC1C5) Render.Flags0 and Render.Flags3 conditions are met
181: 0x05CA [0x2B] Trion (ID: 17613253/0x010CC1C5) [7445*]:
    → "Curilla?"
182: 0x05D1 [0x23] WAIT_FOR_DIALOG_INTERACTION
183: 0x05D2 [0x45] LOAD_SCHEDULED_TASK: Load scheduler "w002" with entities [LocalPlayer, LocalPlayer], work=[243*, 0*]
184: 0x05E3 [0x55] WAIT_LOAD_SCHEDULER: Wait for scheduler "w002" with entities [LocalPlayer, LocalPlayer], work=243*
185: 0x05F2 [0x1C] WAIT(30* ticks)
186: 0x05F5 [0x2B] Curilla (ID: 17613256/0x010CC1C8) [7446*]:
    → "There are still matters between us that are yet to be settled. I expect your prompt and safe return..."
187: 0x05FC [0x23] WAIT_FOR_DIALOG_INTERACTION
188: 0x05FD [0x45] LOAD_SCHEDULED_TASK: Load scheduler "w003" with entities [LocalPlayer, LocalPlayer], work=[243*, 0*]
189: 0x060E [0x55] WAIT_LOAD_SCHEDULER: Wait for scheduler "w003" with entities [LocalPlayer, LocalPlayer], work=243*
190: 0x061D [0x1C] WAIT(30* ticks)
191: 0x0620 [0x2B] Trion (ID: 17613253/0x010CC1C5) [7447*]:
    → "As I expect yours."
192: 0x0627 [0x23] WAIT_FOR_DIALOG_INTERACTION
193: 0x0628 [0x1C] WAIT(30* ticks)
194: 0x062B [0x2B] Curilla (ID: 17613256/0x010CC1C8) [7448*]:
    → "Sir!"
195: 0x0632 [0x4B] UPDATE_ENTITY_YAW(entity=Curilla (ID: 17613256/0x010CC1C8), yaw=20.6°*)
196: 0x0639 [0x6F] WAIT_FRAME_DELAY: Yield until WaitTime reaches zero
197: 0x063A [0x76] CHECK_ENTITY_RENDER_FLAGS: Wait until Curilla (ID: 17613256/0x010CC1C8) Render.Flags0 and Render.Flags3 conditions are met
198: 0x063F [0x23] WAIT_FOR_DIALOG_INTERACTION
199: 0x0640 [0x4B] UPDATE_ENTITY_YAW(entity=Bacherume (ID: 17613258/0x010CC1CA), yaw=20.6°*)
200: 0x0647 [0x4B] UPDATE_ENTITY_YAW(entity=Guilerme (ID: 17613257/0x010CC1C9), yaw=20.6°*)
201: 0x064E [0x6F] WAIT_FRAME_DELAY: Yield until WaitTime reaches zero
202: 0x064F [0x76] CHECK_ENTITY_RENDER_FLAGS: Wait until Guilerme (ID: 17613257/0x010CC1C9) Render.Flags0 and Render.Flags3 conditions are met
203: 0x0654 [0x27] REQ_SET(priority=0x03, entity_id=Guilerme (ID: 17613257/0x010CC1C9), tag_num=0x02)
204: 0x065B [0x1C] WAIT(30* ticks)
205: 0x065E [0x6F] WAIT_FRAME_DELAY: Yield until WaitTime reaches zero
206: 0x065F [0x76] CHECK_ENTITY_RENDER_FLAGS: Wait until Bacherume (ID: 17613258/0x010CC1CA) Render.Flags0 and Render.Flags3 conditions are met
207: 0x0664 [0x27] REQ_SET(priority=0x03, entity_id=Bacherume (ID: 17613258/0x010CC1CA), tag_num=0x02)
208: 0x066B [0x1C] WAIT(30* ticks)
209: 0x066E [0x27] REQ_SET(priority=0x03, entity_id=Curilla (ID: 17613256/0x010CC1C8), tag_num=0x03)
210: 0x0675 [0x1C] WAIT(90* ticks)
211: 0x0678 [0x27] REQ_SET(priority=0x03, entity_id=Pieuje (ID: 17613251/0x010CC1C3), tag_num=0x04)
212: 0x067F [0x1C] WAIT(120* ticks)
213: 0x0682 [0x45] LOAD_SCHEDULED_TASK: Load scheduler "w004" with entities [LocalPlayer, LocalPlayer], work=[243*, 0*]
214: 0x0693 [0x55] WAIT_LOAD_SCHEDULER: Wait for scheduler "w004" with entities [LocalPlayer, LocalPlayer], work=243*
215: 0x06A2 [0x2A] GET_REQ_LEVEL(level=3, entity_id=Pieuje (ID: 17613251/0x010CC1C3))
216: 0x06A8 [0x2B] Pieuje (ID: 17613251/0x010CC1C3) [7449*]:
    → "My brother..."
217: 0x06AF [0x23] WAIT_FOR_DIALOG_INTERACTION
218: 0x06B0 [0x4A] Trion (ID: 17613253/0x010CC1C5) looks at Pieuje (ID: 17613251/0x010CC1C3)
219: 0x06B9 [0x6F] WAIT_FRAME_DELAY: Yield until WaitTime reaches zero
220: 0x06BA [0x76] CHECK_ENTITY_RENDER_FLAGS: Wait until Trion (ID: 17613253/0x010CC1C5) Render.Flags0 and Render.Flags3 conditions are met
221: 0x06BF [0x1C] WAIT(60* ticks)
222: 0x06C2 [0x2B] Trion (ID: 17613253/0x010CC1C5) [7450*]:
    → "Be silent, Pieuje, for I know that which you wish to say. Support the frontline, and take care of San d'Oria when that time comes."
223: 0x06C9 [0x23] WAIT_FOR_DIALOG_INTERACTION
224: 0x06CA [0x45] LOAD_SCHEDULED_TASK: Load scheduler "w005" with entities [LocalPlayer, LocalPlayer], work=[243*, 0*]
225: 0x06DB [0x2B] Pieuje (ID: 17613251/0x010CC1C3) [7451*]:
    → "Do not be foolish. I have already seen the light--the light of victory which shines down upon you."
226: 0x06E2 [0x23] WAIT_FOR_DIALOG_INTERACTION
227: 0x06E3 [0x55] WAIT_LOAD_SCHEDULER: Wait for scheduler "w005" with entities [LocalPlayer, LocalPlayer], work=243*
228: 0x06F2 [0x45] LOAD_SCHEDULED_TASK: Load scheduler "w006" with entities [LocalPlayer, LocalPlayer], work=[243*, 0*]
229: 0x0703 [0x55] WAIT_LOAD_SCHEDULER: Wait for scheduler "w006" with entities [LocalPlayer, LocalPlayer], work=243*
230: 0x0712 [0x2B] Trion (ID: 17613253/0x010CC1C5) [7452*]:
    → "Your words have given me strength, Pieuje. I thank you."
231: 0x0719 [0x23] WAIT_FOR_DIALOG_INTERACTION
232: 0x071A [0x2B] Pieuje (ID: 17613251/0x010CC1C3) [7453*]:
    → "It is the least I can do for my noble brother..."
233: 0x0721 [0x23] WAIT_FOR_DIALOG_INTERACTION
234: 0x0722 [0x1C] WAIT(30* ticks)
235: 0x0725 [0x27] REQ_SET(priority=0x03, entity_id=Pieuje (ID: 17613251/0x010CC1C3), tag_num=0x05)
236: 0x072C [0x1C] WAIT(60* ticks)
237: 0x072F [0x45] LOAD_SCHEDULED_TASK: Load scheduler "w007" with entities [LocalPlayer, LocalPlayer], work=[243*, 0*]
238: 0x0740 [0x55] WAIT_LOAD_SCHEDULER: Wait for scheduler "w007" with entities [LocalPlayer, LocalPlayer], work=243*
239: 0x074F [0x2A] GET_REQ_LEVEL(level=3, entity_id=Pieuje (ID: 17613251/0x010CC1C3))
240: 0x0755 [0x1C] WAIT(230* ticks)
241: 0x0758 [0x27] REQ_SET(priority=0x03, entity_id=Pieuje (ID: 17613251/0x010CC1C3), tag_num=0x06)
242: 0x075F [0x2B] Pieuje (ID: 17613251/0x010CC1C3) [7454*]:
    → "I will be here waiting for your return!"
243: 0x0766 [0x23] WAIT_FOR_DIALOG_INTERACTION
244: 0x0767 [0x29] REQ_SET_WAIT(priority=0x03, entity_id=Pieuje (ID: 17613251/0x010CC1C3), tag_num=0x07)
245: 0x076E [0x45] LOAD_SCHEDULED_TASK: Load scheduler "w008" with entities [LocalPlayer, LocalPlayer], work=[243*, 0*]
246: 0x077F [0x55] WAIT_LOAD_SCHEDULER: Wait for scheduler "w008" with entities [LocalPlayer, LocalPlayer], work=243*
247: 0x078E [0x2B] Trion (ID: 17613253/0x010CC1C5) [7455*]:
    → "Take care, Pieuje!"
248: 0x0795 [0x23] WAIT_FOR_DIALOG_INTERACTION
249: 0x0796 [0x4B] UPDATE_ENTITY_YAW(entity=Trion (ID: 17613253/0x010CC1C5), yaw=18.3°*)
250: 0x079D [0x6F] WAIT_FRAME_DELAY: Yield until WaitTime reaches zero
251: 0x079E [0x76] CHECK_ENTITY_RENDER_FLAGS: Wait until Trion (ID: 17613253/0x010CC1C5) Render.Flags0 and Render.Flags3 conditions are met
252: 0x07A3 [0x27] REQ_SET(priority=0x03, entity_id=Trion (ID: 17613253/0x010CC1C5), tag_num=0x03)
253: 0x07AA [0x1C] WAIT(30* ticks)
254: 0x07AD [0x45] LOAD_SCHEDULED_TASK: Load scheduler "w009" with entities [LocalPlayer, LocalPlayer], work=[243*, 0*]
255: 0x07BE [0x1C] WAIT(30* ticks)
256: 0x07C1 [0x27] REQ_SET(priority=0x03, entity_id=Nonterene (ID: 17613254/0x010CC1C6), tag_num=0x02)
257: 0x07C8 [0x1C] WAIT(60* ticks)
258: 0x07CB [0x27] REQ_SET(priority=0x03, entity_id=Maunadolace (ID: 17613255/0x010CC1C7), tag_num=0x02)
259: 0x07D2 [0x1C] WAIT(150* ticks)
260: 0x07D5 [0x45] LOAD_SCHEDULED_TASK: Load scheduler "fdo2" with entities [LocalPlayer, LocalPlayer], work=[200*, 0*]
261: 0x07E6 [0x55] WAIT_LOAD_SCHEDULER: Wait for scheduler "fdo2" with entities [LocalPlayer, LocalPlayer], work=200*
262: 0x07F5 [0x52] END_LOAD_SCHEDULER: End scheduler "w009" with entities [LocalPlayer, LocalPlayer], work=243*
263: 0x0804 [0x5D] SET_MUSIC_VOLUME(volume=0*, fade_time=150*)
264: 0x0809 [0x1C] WAIT(120* ticks)
265: 0x080C [0x78] ENABLE_GAME_TIMER_RESET_WEATHER()
266: 0x080D [0x5C] MUSIC_CONTROL: Set Idle (Day) music to song 0*
267: 0x0811 [0x5C] MUSIC_CONTROL: Set Idle (Night) music to song 0*
268: 0x0815 [0x46] CAMERA_CONTROL: Restore default settings
269: 0x0817 [0x45] LOAD_SCHEDULED_TASK: Load scheduler "fdi2" with entities [LocalPlayer, LocalPlayer], work=[200*, 0*]
270: 0x0828 [0x21] END_EVENT
271: 0x0829 [0x00] END_REQSTACK()
```

### Event 65535.4

#### Metadata

| Field        | Value    |
|--------------|----------|
| Entrypoint   | 0x082A   |
| Data Size    | 10 bytes |
| Instructions | 2        |

```
      00 01 02 03 04 05 06 07  08 09 0A 0B 0C 0D 0E 0F
      -- -- -- -- -- -- -- --  -- -- -- -- -- -- -- --
0820:                                37 3B 80 3C 80 0F            7;.<..
0830: 80 3D 80 00                                       .=..            
```

#### Opcodes

```
  0: 0x082A [0x37] UPDATE_EVENT_POSITION_AND_DIR: x=-178.327*, z=-172.146*, y=-24.000*, direction=325.3°*
  1: 0x0833 [0x00] END_REQSTACK()
```

### Event 65535.5

#### Metadata

| Field        | Value    |
|--------------|----------|
| Entrypoint   | 0x0834   |
| Data Size    | 15 bytes |
| Instructions | 5        |

```
      00 01 02 03 04 05 06 07  08 09 0A 0B 0C 0D 0E 0F
      -- -- -- -- -- -- -- --  -- -- -- -- -- -- -- --
0830:             32 0C 80 1F  00 3E 80 3F 80 0F 80 1F      2....>.?....
0840: 01 6F 00                                          .o.             
```

#### Opcodes

```
  0: 0x0834 [0x32] ExtData[1]->MainSpeed = 13* * 0.1
  1: 0x0837 [0x1F] MOVE_ENTITY: EventEntity moves to X=-172.152*, Z=-167.648*, Y=-24.000*
  2: 0x083F [0x1F] MOVE_ENTITY: Update entity position (mode=1)
  3: 0x0841 [0x6F] WAIT_FRAME_DELAY: Yield until WaitTime reaches zero
  4: 0x0842 [0x00] END_REQSTACK()
```

### Event 65535.6

#### Metadata

| Field        | Value    |
|--------------|----------|
| Entrypoint   | 0x0843   |
| Data Size    | 14 bytes |
| Instructions | 4        |

```
      00 01 02 03 04 05 06 07  08 09 0A 0B 0C 0D 0E 0F
      -- -- -- -- -- -- -- --  -- -- -- -- -- -- -- --
0840:          32 0C 80 1F 00  40 80 41 80 42 80 1F 01     2....@.A.B...
0850: 00                                                .               
```

#### Opcodes

```
  0: 0x0843 [0x32] ExtData[1]->MainSpeed = 13* * 0.1
  1: 0x0846 [0x1F] MOVE_ENTITY: EventEntity moves to X=-165.307*, Z=-169.799*, Y=-23.967*
  2: 0x084E [0x1F] MOVE_ENTITY: Update entity position (mode=1)
  3: 0x0850 [0x00] END_REQSTACK()
```

### Event 65535.7

#### Metadata

| Field        | Value    |
|--------------|----------|
| Entrypoint   | 0x0851   |
| Data Size    | 10 bytes |
| Instructions | 2        |

```
      00 01 02 03 04 05 06 07  08 09 0A 0B 0C 0D 0E 0F
      -- -- -- -- -- -- -- --  -- -- -- -- -- -- -- --
0850:    37 43 80 44 80 45 80  46 80 00                  7C.D.E.F..     
```

#### Opcodes

```
  0: 0x0851 [0x37] UPDATE_EVENT_POSITION_AND_DIR: x=-152.305*, z=-170.733*, y=-24.017*, direction=344.2°*
  1: 0x085A [0x00] END_REQSTACK()
```

### Event 65535.8

#### Metadata

| Field        | Value    |
|--------------|----------|
| Entrypoint   | 0x085B   |
| Data Size    | 10 bytes |
| Instructions | 2        |

```
      00 01 02 03 04 05 06 07  08 09 0A 0B 0C 0D 0E 0F
      -- -- -- -- -- -- -- --  -- -- -- -- -- -- -- --
0850:                                   37 47 80 48 80             7G.H.
0860: 49 80 4A 80 00                                    I.J..           
```

#### Opcodes

```
  0: 0x085B [0x37] UPDATE_EVENT_POSITION_AND_DIR: x=-160.471*, z=-158.159*, y=-23.425*, direction=307.8°*
  1: 0x0864 [0x00] END_REQSTACK()
```

### Event 10

#### Metadata

| Field        | Value    |
|--------------|----------|
| Entrypoint   | 0x0865   |
| Data Size    | 10 bytes |
| Instructions | 2        |

```
      00 01 02 03 04 05 06 07  08 09 0A 0B 0C 0D 0E 0F
      -- -- -- -- -- -- -- --  -- -- -- -- -- -- -- --
0860:                37 4B 80  4C 80 11 80 4D 80 00          7K.L...M.. 
```

#### Opcodes

```
  0: 0x0865 [0x37] UPDATE_EVENT_POSITION_AND_DIR: x=-182.751*, z=190.120*, y=0.000*, direction=355.3°*
  1: 0x086E [0x00] END_REQSTACK()
```

### Event 65535.9

#### Metadata

| Field        | Value    |
|--------------|----------|
| Entrypoint   | 0x086F   |
| Data Size    | 10 bytes |
| Instructions | 2        |

```
      00 01 02 03 04 05 06 07  08 09 0A 0B 0C 0D 0E 0F
      -- -- -- -- -- -- -- --  -- -- -- -- -- -- -- --
0860:                                               37                 7
0870: 4E 80 4F 80 11 80 50 80  00                       N.O...P..       
```

#### Opcodes

```
  0: 0x086F [0x37] UPDATE_EVENT_POSITION_AND_DIR: x=-185.599*, z=189.975*, y=0.000*, direction=181.0°*
  1: 0x0878 [0x00] END_REQSTACK()
```

### Event 65535.10

#### Metadata

| Field        | Value    |
|--------------|----------|
| Entrypoint   | 0x0879   |
| Data Size    | 10 bytes |
| Instructions | 2        |

```
      00 01 02 03 04 05 06 07  08 09 0A 0B 0C 0D 0E 0F
      -- -- -- -- -- -- -- --  -- -- -- -- -- -- -- --
0870:                             37 51 80 52 80 53 80           7Q.R.S.
0880: 50 80 00                                          P..             
```

#### Opcodes

```
  0: 0x0879 [0x37] UPDATE_EVENT_POSITION_AND_DIR: x=-191.040*, z=189.899*, y=0.114*, direction=181.0°*
  1: 0x0882 [0x00] END_REQSTACK()
```

### Event 65535.11

#### Metadata

| Field        | Value    |
|--------------|----------|
| Entrypoint   | 0x0883   |
| Data Size    | 14 bytes |
| Instructions | 4        |

```
      00 01 02 03 04 05 06 07  08 09 0A 0B 0C 0D 0E 0F
      -- -- -- -- -- -- -- --  -- -- -- -- -- -- -- --
0880:          32 0C 80 1F 00  51 80 52 80 53 80 1F 01     2....Q.R.S...
0890: 00                                                .               
```

#### Opcodes

```
  0: 0x0883 [0x32] ExtData[1]->MainSpeed = 13* * 0.1
  1: 0x0886 [0x1F] MOVE_ENTITY: EventEntity moves to X=-191.040*, Z=189.899*, Y=0.114*
  2: 0x088E [0x1F] MOVE_ENTITY: Update entity position (mode=1)
  3: 0x0890 [0x00] END_REQSTACK()
```

### Event 65535.12

#### Metadata

| Field        | Value    |
|--------------|----------|
| Entrypoint   | 0x0891   |
| Data Size    | 14 bytes |
| Instructions | 4        |

```
      00 01 02 03 04 05 06 07  08 09 0A 0B 0C 0D 0E 0F
      -- -- -- -- -- -- -- --  -- -- -- -- -- -- -- --
0890:    32 0C 80 1F 00 4E 80  4F 80 11 80 1F 01 00      2....N.O...... 
```

#### Opcodes

```
  0: 0x0891 [0x32] ExtData[1]->MainSpeed = 13* * 0.1
  1: 0x0894 [0x1F] MOVE_ENTITY: EventEntity moves to X=-185.599*, Z=189.975*, Y=0.000*
  2: 0x089C [0x1F] MOVE_ENTITY: Update entity position (mode=1)
  3: 0x089E [0x00] END_REQSTACK()
```

### Event 16

#### Metadata

| Field        | Value     |
|--------------|-----------|
| Entrypoint   | 0x089F    |
| Data Size    | 474 bytes |
| Instructions | 60        |

```
      00 01 02 03 04 05 06 07  08 09 0A 0B 0C 0D 0E 0F
      -- -- -- -- -- -- -- --  -- -- -- -- -- -- -- --
0890:                                               03                 .
08A0: 09 10 54 80 42 22 00 4E  00 BB C1 0C 01 46 01 37  ..T.B".N.....F.7
08B0: 55 80 56 80 57 80 58 80  45 13 80 F0 FF FF 7F F0  U.V.W.X.E.......
08C0: FF FF 7F 66 64 69 32 11  80 45 59 80 F0 FF FF 7F  ...fdi2..EY.....
08D0: F0 FF FF 7F 73 30 30 30  11 80 32 0C 80 1F 00 5A  ....s000..2....Z
08E0: 80 5B 80 5C 80 1F 01 79  00 F0 FF FF 7F BB C1 0C  .[.\...y........
08F0: 01 79 00 BB C1 0C 01 F0  FF FF 7F 1C 21 80 2B BB  .y..........!.+.
0900: C1 0C 01 5D 80 23 2A 0A  BB C1 0C 01 55 59 80 F0  ...].#*.....UY..
0910: FF FF 7F F0 FF FF 7F 73  30 30 30 45 13 80 F0 FF  .......s000E....
0920: FF 7F F0 FF FF 7F 66 64  6F 30 11 80 1C 21 80 45  ......fdo0...!.E
0930: 13 80 F0 FF FF 7F F0 FF  FF 7F 66 64 69 30 11 80  ..........fdi0..
0940: 45 59 80 F0 FF FF 7F F0  FF FF 7F 73 30 30 31 11  EY.........s001.
0950: 80 2B BB C1 0C 01 5E 80  23 7B BB C1 0C 01 66 1C  .+....^.#{....f.
0960: 80 BB C1 0C 01 BB C1 0C  01 74 68 6B 31 2B BB C1  .........thk1+..
0970: 0C 01 5F 80 23 53 BB C1  0C 01 BB C1 0C 01 74 68  .._.#S........th
0980: 6B 31 66 1C 80 BB C1 0C  01 BB C1 0C 01 74 68 6B  k1f..........thk
0990: 32 79 00 BB C1 0C 01 F0  FF FF 7F 2B BB C1 0C 01  2y.........+....
09A0: 60 80 23 4A BB C1 0C 01  F0 FF FF 7F 45 13 80 F0  `.#J........E...
09B0: FF FF 7F F0 FF FF 7F 66  64 6F 30 11 80 1C 21 80  .......fdo0...!.
09C0: 45 59 80 F0 FF FF 7F F0  FF FF 7F 73 30 30 32 11  EY.........s002.
09D0: 80 45 13 80 F0 FF FF 7F  F0 FF FF 7F 66 64 69 31  .E..........fdi1
09E0: 11 80 6F 76 BB C1 0C 01  66 1C 80 BB C1 0C 01 BB  ..ov....f.......
09F0: C1 0C 01 70 61 73 30 2B  BB C1 0C 01 61 80 23 2B  ...pas0+....a.#+
0A00: BB C1 0C 01 62 80 23 66  1C 80 BB C1 0C 01 BB C1  ....b.#f........
0A10: 0C 01 74 6C 6B 30 2B BB  C1 0C 01 63 80 23 1C 21  ..tlk0+....c.#.!
0A20: 80 27 0A BB C1 0C 01 02  1C 1C 80 27 0A 7E C1 0C  .'.........'.~..
0A30: 01 02 1C 64 80 45 13 80  F0 FF FF 7F F0 FF FF 7F  ...d.E..........
0A40: 66 64 6F 32 11 80 55 13  80 F0 FF FF 7F F0 FF FF  fdo2..U.........
0A50: 7F 66 64 6F 32 46 00 52  59 80 F0 FF FF 7F F0 FF  .fdo2F.RY.......
0A60: FF 7F 73 30 30 32 45 13  80 F0 FF FF 7F F0 FF FF  ..s002E.........
0A70: 7F 66 64 69 32 11 80 21  00                       .fdi2..!.       
```

#### Opcodes

```
  0: 0x089F [0x03] Work_Zone[9] = 192*
  1: 0x08A4 [0x42] SET_CLI_EVENT_CANCEL_DATA()
  2: 0x08A5 [0x22] ENTITY_HIDE_FLAG(enabled=0x00)
  3: 0x08A7 [0x4E] SET_ENTITY_HIDE_FLAG: Show Dalzakk (ID: 17613243/0x010CC1BB)
  4: 0x08AD [0x46] CAMERA_CONTROL: Disable user control
  5: 0x08AF [0x37] UPDATE_EVENT_POSITION_AND_DIR: x=242.505*, z=60.009*, y=-24.250*, direction=162.1°*
  6: 0x08B8 [0x45] LOAD_SCHEDULED_TASK: Load scheduler "fdi2" with entities [LocalPlayer, LocalPlayer], work=[200*, 0*]
  7: 0x08C9 [0x45] LOAD_SCHEDULED_TASK: Load scheduler "s000" with entities [LocalPlayer, LocalPlayer], work=[204*, 0*]
  8: 0x08DA [0x32] ExtData[1]->MainSpeed = 13* * 0.1
  9: 0x08DD [0x1F] MOVE_ENTITY: EventEntity moves to X=239.328*, Z=60.154*, Y=-24.249*
 10: 0x08E5 [0x1F] MOVE_ENTITY: Update entity position (mode=1)
 11: 0x08E7 [0x79] LocalPlayer looks at Dalzakk (ID: 17613243/0x010CC1BB) (Basic look)
 12: 0x08F1 [0x79] Dalzakk (ID: 17613243/0x010CC1BB) looks at LocalPlayer (Basic look)
 13: 0x08FB [0x1C] WAIT(30* ticks)
 14: 0x08FE [0x2B] Dalzakk (ID: 17613243/0x010CC1BB) [7363*]:
    → "You..."
 15: 0x0905 [0x23] WAIT_FOR_DIALOG_INTERACTION
 16: 0x0906 [0x2A] GET_REQ_LEVEL(level=10, entity_id=Dalzakk (ID: 17613243/0x010CC1BB))
 17: 0x090C [0x55] WAIT_LOAD_SCHEDULER: Wait for scheduler "s000" with entities [LocalPlayer, LocalPlayer], work=204*
 18: 0x091B [0x45] LOAD_SCHEDULED_TASK: Load scheduler "fdo0" with entities [LocalPlayer, LocalPlayer], work=[200*, 0*]
 19: 0x092C [0x1C] WAIT(30* ticks)
 20: 0x092F [0x45] LOAD_SCHEDULED_TASK: Load scheduler "fdi0" with entities [LocalPlayer, LocalPlayer], work=[200*, 0*]
 21: 0x0940 [0x45] LOAD_SCHEDULED_TASK: Load scheduler "s001" with entities [LocalPlayer, LocalPlayer], work=[204*, 0*]
 22: 0x0951 [0x2B] Dalzakk (ID: 17613243/0x010CC1BB) [7364*]:
    → "What is this? You are here to complete my task for me?"
 23: 0x0958 [0x23] WAIT_FOR_DIALOG_INTERACTION
 24: 0x0959 [0x7B] Dalzakk (ID: 17613243/0x010CC1BB) stops talking
 25: 0x095E [0x66] LOAD_EXT_SCHEDULER_MAIN: Load scheduler "thk1" with entities [Dalzakk (ID: 17613243/0x010CC1BB), Dalzakk (ID: 17613243/0x010CC1BB)], work=60*
 26: 0x096D [0x2B] Dalzakk (ID: 17613243/0x010CC1BB) [7365*]:
    → "So, Michea and Gwill are... However, I don't understand why you're here. Are you a new student?"
 27: 0x0974 [0x23] WAIT_FOR_DIALOG_INTERACTION
 28: 0x0975 [0x53] WAIT_SCHEDULER_TASK: Wait for scheduler "thk1" with entities [Dalzakk (ID: 17613243/0x010CC1BB), Dalzakk (ID: 17613243/0x010CC1BB)]
 29: 0x0982 [0x66] LOAD_EXT_SCHEDULER_MAIN: Load scheduler "thk2" with entities [Dalzakk (ID: 17613243/0x010CC1BB), Dalzakk (ID: 17613243/0x010CC1BB)], work=60*
 30: 0x0991 [0x79] Dalzakk (ID: 17613243/0x010CC1BB) looks at LocalPlayer (Basic look)
 31: 0x099B [0x2B] Dalzakk (ID: 17613243/0x010CC1BB) [7366*]:
    → "Whatever the reason... Let me inform you of what our master would like accomplished."
 32: 0x09A2 [0x23] WAIT_FOR_DIALOG_INTERACTION
 33: 0x09A3 [0x4A] Dalzakk (ID: 17613243/0x010CC1BB) looks at LocalPlayer
 34: 0x09AC [0x45] LOAD_SCHEDULED_TASK: Load scheduler "fdo0" with entities [LocalPlayer, LocalPlayer], work=[200*, 0*]
 35: 0x09BD [0x1C] WAIT(30* ticks)
 36: 0x09C0 [0x45] LOAD_SCHEDULED_TASK: Load scheduler "s002" with entities [LocalPlayer, LocalPlayer], work=[204*, 0*]
 37: 0x09D1 [0x45] LOAD_SCHEDULED_TASK: Load scheduler "fdi1" with entities [LocalPlayer, LocalPlayer], work=[200*, 0*]
 38: 0x09E2 [0x6F] WAIT_FRAME_DELAY: Yield until WaitTime reaches zero
 39: 0x09E3 [0x76] CHECK_ENTITY_RENDER_FLAGS: Wait until Dalzakk (ID: 17613243/0x010CC1BB) Render.Flags0 and Render.Flags3 conditions are met
 40: 0x09E8 [0x66] LOAD_EXT_SCHEDULER_MAIN: Load scheduler "pas0" with entities [Dalzakk (ID: 17613243/0x010CC1BB), Dalzakk (ID: 17613243/0x010CC1BB)], work=60*
 41: 0x09F7 [0x2B] Dalzakk (ID: 17613243/0x010CC1BB) [7367*]:
    → "In one of the Orc settlements in Davoi, $6 can be found. You must enter one of their tents to find it."
 42: 0x09FE [0x23] WAIT_FOR_DIALOG_INTERACTION
 43: 0x09FF [0x2B] Dalzakk (ID: 17613243/0x010CC1BB) [7368*]:
    → "Our master wants us to bring this to him. What, you ask, is this item for? Only our master can answer that question. However, I think it may have to do with my sisters..."
 44: 0x0A06 [0x23] WAIT_FOR_DIALOG_INTERACTION
 45: 0x0A07 [0x66] LOAD_EXT_SCHEDULER_MAIN: Load scheduler "tlk0" with entities [Dalzakk (ID: 17613243/0x010CC1BB), Dalzakk (ID: 17613243/0x010CC1BB)], work=60*
 46: 0x0A16 [0x2B] Dalzakk (ID: 17613243/0x010CC1BB) [7369*]:
    → "At any rate, that is all I know. As for me, I am going to take our master's advice and rest at my home on the Kulatz Bridge."
 47: 0x0A1D [0x23] WAIT_FOR_DIALOG_INTERACTION
 48: 0x0A1E [0x1C] WAIT(30* ticks)
 49: 0x0A21 [0x27] REQ_SET(priority=0x0A, entity_id=Dalzakk (ID: 17613243/0x010CC1BB), tag_num=0x02)
 50: 0x0A28 [0x1C] WAIT(60* ticks)
 51: 0x0A2B [0x27] REQ_SET(priority=0x0A, entity_id=Cermet Portal (ID: 17613182/0x010CC17E), tag_num=0x02)
 52: 0x0A32 [0x1C] WAIT(100* ticks)
 53: 0x0A35 [0x45] LOAD_SCHEDULED_TASK: Load scheduler "fdo2" with entities [LocalPlayer, LocalPlayer], work=[200*, 0*]
 54: 0x0A46 [0x55] WAIT_LOAD_SCHEDULER: Wait for scheduler "fdo2" with entities [LocalPlayer, LocalPlayer], work=200*
 55: 0x0A55 [0x46] CAMERA_CONTROL: Restore default settings
 56: 0x0A57 [0x52] END_LOAD_SCHEDULER: End scheduler "s002" with entities [LocalPlayer, LocalPlayer], work=204*
 57: 0x0A66 [0x45] LOAD_SCHEDULED_TASK: Load scheduler "fdi2" with entities [LocalPlayer, LocalPlayer], work=[200*, 0*]
 58: 0x0A77 [0x21] END_EVENT
 59: 0x0A78 [0x00] END_REQSTACK()
```

### Event 17

#### Metadata

| Field        | Value     |
|--------------|-----------|
| Entrypoint   | 0x0A79    |
| Data Size    | 282 bytes |
| Instructions | 34        |

```
      00 01 02 03 04 05 06 07  08 09 0A 0B 0C 0D 0E 0F
      -- -- -- -- -- -- -- --  -- -- -- -- -- -- -- --
0A70:                             20 01 46 01 42 45 13            .F.BE.
0A80: 80 F0 FF FF 7F F0 FF FF  7F 66 64 6F 31 11 80 55  .........fdo1..U
0A90: 13 80 F0 FF FF 7F F0 FF  FF 7F 66 64 6F 31 38 10  ..........fdo18.
0AA0: 80 37 65 80 66 80 67 80  68 80 4E 00 BD C1 0C 01  .7e.f.g.h.N.....
0AB0: 2F 00 BD C1 0C 01 29 03  BD C1 0C 01 02 6C BD C1  /.....)......l..
0AC0: 0C 01 11 80 11 80 5C 00  69 80 5C 01 69 80 45 6A  ......\.i.\.i.Ej
0AD0: 80 F0 FF FF 7F F0 FF FF  7F 76 30 30 31 11 80 55  .........v001..U
0AE0: 6A 80 F0 FF FF 7F F0 FF  FF 7F 76 30 30 31 45 13  j.........v001E.
0AF0: 80 F0 FF FF 7F F0 FF FF  7F 66 64 69 31 11 80 55  .........fdi1..U
0B00: 13 80 F0 FF FF 7F F0 FF  FF 7F 66 64 69 31 6C BD  ..........fdi1l.
0B10: C1 0C 01 6B 80 1A 80 45  6A 80 F0 FF FF 7F F0 FF  ...k...Ej.......
0B20: FF 7F 76 30 30 32 11 80  55 6A 80 F0 FF FF 7F F0  ..v002..Uj......
0B30: FF FF 7F 76 30 30 32 2B  BD C1 0C 01 6C 80 23 2B  ...v002+....l.#+
0B40: BD C1 0C 01 6D 80 23 6C  BD C1 0C 01 11 80 1A 80  ....m.#l........
0B50: 92 01 BD C1 0C 01 45 13  80 F0 FF FF 7F F0 FF FF  ......E.........
0B60: 7F 66 64 6F 32 11 80 55  13 80 F0 FF FF 7F F0 FF  .fdo2..U........
0B70: FF 7F 66 64 6F 32 5C 00  11 80 5C 01 11 80 46 00  ..fdo2\...\...F.
0B80: 45 13 80 F0 FF FF 7F F0  FF FF 7F 66 64 69 32 11  E..........fdi2.
0B90: 80 21 00                                          .!.             
```

#### Opcodes

```
  0: 0x0A79 [0x20] SET_CLI_EVENT_UC_FLAG: Lock player control
  1: 0x0A7B [0x46] CAMERA_CONTROL: Disable user control
  2: 0x0A7D [0x42] SET_CLI_EVENT_CANCEL_DATA()
  3: 0x0A7E [0x45] LOAD_SCHEDULED_TASK: Load scheduler "fdo1" with entities [LocalPlayer, LocalPlayer], work=[200*, 0*]
  4: 0x0A8F [0x55] WAIT_LOAD_SCHEDULER: Wait for scheduler "fdo1" with entities [LocalPlayer, LocalPlayer], work=200*
  5: 0x0A9E [0x38] SET_CLIENT_EVENT_MODE(mode=19*)
  6: 0x0AA1 [0x37] UPDATE_EVENT_POSITION_AND_DIR: x=-15.819*, z=71.682*, y=-16.000*, direction=106.4°*
  7: 0x0AAA [0x4E] SET_ENTITY_HIDE_FLAG: Show Rainemard (ID: 17613245/0x010CC1BD)
  8: 0x0AB0 [0x2F] Rainemard (ID: 17613245/0x010CC1BD)->Render.Flags0 &= ~0x80000 // Bit 19
  9: 0x0AB6 [0x29] REQ_SET_WAIT(priority=0x03, entity_id=Rainemard (ID: 17613245/0x010CC1BD), tag_num=0x02)
 10: 0x0ABD [0x6C] FADE_ENTITY_COLOR(entity_id=Rainemard (ID: 17613245/0x010CC1BD), end_alpha=0*, fade_time=0*)
 11: 0x0AC6 [0x5C] MUSIC_CONTROL: Set Idle (Day) music to song 123*
 12: 0x0ACA [0x5C] MUSIC_CONTROL: Set Idle (Night) music to song 123*
 13: 0x0ACE [0x45] LOAD_SCHEDULED_TASK: Load scheduler "v001" with entities [LocalPlayer, LocalPlayer], work=[207*, 0*]
 14: 0x0ADF [0x55] WAIT_LOAD_SCHEDULER: Wait for scheduler "v001" with entities [LocalPlayer, LocalPlayer], work=207*
 15: 0x0AEE [0x45] LOAD_SCHEDULED_TASK: Load scheduler "fdi1" with entities [LocalPlayer, LocalPlayer], work=[200*, 0*]
 16: 0x0AFF [0x55] WAIT_LOAD_SCHEDULER: Wait for scheduler "fdi1" with entities [LocalPlayer, LocalPlayer], work=200*
 17: 0x0B0E [0x6C] FADE_ENTITY_COLOR(entity_id=Rainemard (ID: 17613245/0x010CC1BD), end_alpha=64*, fade_time=120*)
 18: 0x0B17 [0x45] LOAD_SCHEDULED_TASK: Load scheduler "v002" with entities [LocalPlayer, LocalPlayer], work=[207*, 0*]
 19: 0x0B28 [0x55] WAIT_LOAD_SCHEDULER: Wait for scheduler "v002" with entities [LocalPlayer, LocalPlayer], work=207*
 20: 0x0B37 [0x2B] Rainemard (ID: 17613245/0x010CC1BD) [7390*]:
    → "Dark... So dark... I can't...move... Somebody...free me from this place... Free me from this darkness..."
 21: 0x0B3E [0x23] WAIT_FOR_DIALOG_INTERACTION
 22: 0x0B3F [0x2B] Rainemard (ID: 17613245/0x010CC1BD) [7391*]:
    → "I still have something I need to tell her..."
 23: 0x0B46 [0x23] WAIT_FOR_DIALOG_INTERACTION
 24: 0x0B47 [0x6C] FADE_ENTITY_COLOR(entity_id=Rainemard (ID: 17613245/0x010CC1BD), end_alpha=0*, fade_time=120*)
 25: 0x0B50 [0x92] Rainemard (ID: 17613245/0x010CC1BD)->Render.Flags3 ^= 0x01
 26: 0x0B56 [0x45] LOAD_SCHEDULED_TASK: Load scheduler "fdo2" with entities [LocalPlayer, LocalPlayer], work=[200*, 0*]
 27: 0x0B67 [0x55] WAIT_LOAD_SCHEDULER: Wait for scheduler "fdo2" with entities [LocalPlayer, LocalPlayer], work=200*
 28: 0x0B76 [0x5C] MUSIC_CONTROL: Set Idle (Day) music to song 0*
 29: 0x0B7A [0x5C] MUSIC_CONTROL: Set Idle (Night) music to song 0*
 30: 0x0B7E [0x46] CAMERA_CONTROL: Restore default settings
 31: 0x0B80 [0x45] LOAD_SCHEDULED_TASK: Load scheduler "fdi2" with entities [LocalPlayer, LocalPlayer], work=[200*, 0*]
 32: 0x0B91 [0x21] END_EVENT
 33: 0x0B92 [0x00] END_REQSTACK()
```

### Event 18

#### Metadata

| Field        | Value     |
|--------------|-----------|
| Entrypoint   | 0x0B93    |
| Data Size    | 634 bytes |
| Instructions | 74        |

```
      00 01 02 03 04 05 06 07  08 09 0A 0B 0C 0D 0E 0F
      -- -- -- -- -- -- -- --  -- -- -- -- -- -- -- --
0B90:          2F 00 C2 C1 0C  01 20 01 42 46 01 45 13     /..... .BF.E.
0BA0: 80 F0 FF FF 7F F0 FF FF  7F 66 64 6F 31 11 80 55  .........fdo1..U
0BB0: 13 80 F0 FF FF 7F F0 FF  FF 7F 66 64 6F 31 38 10  ..........fdo18.
0BC0: 80 37 6E 80 6F 80 70 80  71 80 29 03 C2 C1 0C 01  .7n.o.p.q.).....
0BD0: 02 79 00 C2 C1 0C 01 F0  FF FF 7F 79 00 F0 FF FF  .y.........y....
0BE0: 7F F0 FF FF 7F 79 00 F0  FF FF 7F C2 C1 0C 01 92  .....y..........
0BF0: 01 C2 C1 0C 01 4E 00 C2  C1 0C 01 45 6A 80 F0 FF  .....N.....Ej...
0C00: FF 7F F0 FF FF 7F 73 30  30 30 11 80 55 6A 80 F0  ......s000..Uj..
0C10: FF FF 7F F0 FF FF 7F 73  30 30 30 45 13 80 F0 FF  .......s000E....
0C20: FF 7F F0 FF FF 7F 66 64  69 31 11 80 55 13 80 F0  ......fdi1..U...
0C30: FF FF 7F F0 FF FF 7F 66  64 69 31 2C F0 FF FF 7F  .......fdi1,....
0C40: F0 FF FF 7F 73 68 69 74  1C 03 80 45 6A 80 F0 FF  ....shit...Ej...
0C50: FF 7F F0 FF FF 7F 73 30  30 33 11 80 53 F0 FF FF  ......s003..S...
0C60: 7F F0 FF FF 7F 73 68 69  74 55 6A 80 F0 FF FF 7F  .....shitUj.....
0C70: F0 FF FF 7F 73 30 30 33  1C 21 80 62 72 80 C0 C1  ....s003.!.br...
0C80: 0C 01 C0 C1 0C 01 6D 61  69 6E 11 80 53 C0 C1 0C  ......main..S...
0C90: 01 C0 C1 0C 01 6D 61 69  6E 2C F0 FF FF 7F F0 FF  .....main,......
0CA0: FF 7F 72 65 73 30 53 F0  FF FF 7F F0 FF FF 7F 72  ..res0S........r
0CB0: 65 73 30 1C 1C 80 03 02  10 37 80 48 73 80 23 5C  es0......7.Hs.#\
0CC0: 00 69 80 5C 01 69 80 2B  C2 C1 0C 01 74 80 23 2C  .i.\.i.+....t.#,
0CD0: F8 FF FF 7F F8 FF FF 7F  72 65 73 32 53 F8 FF FF  ........res2S...
0CE0: 7F F8 FF FF 7F 72 65 73  32 45 6A 80 F0 FF FF 7F  .....res2Ej.....
0CF0: F0 FF FF 7F 73 30 30 34  11 80 6C C2 C1 0C 01 75  ....s004..l....u
0D00: 80 76 80 92 00 C2 C1 0C  01 55 6A 80 F0 FF FF 7F  .v.......Uj.....
0D10: F0 FF FF 7F 73 30 30 34  27 03 C2 C1 0C 01 03 2B  ....s004'......+
0D20: C2 C1 0C 01 77 80 23 2B  C2 C1 0C 01 78 80 23 27  ....w.#+....x.#'
0D30: 04 C2 C1 0C 01 04 1C 03  80 45 6A 80 F0 FF FF 7F  .........Ej.....
0D40: F0 FF FF 7F 73 30 30 35  11 80 2B C2 C1 0C 01 79  ....s005..+....y
0D50: 80 23 2A 04 C2 C1 0C 01  55 6A 80 F0 FF FF 7F F0  .#*.....Uj......
0D60: FF FF 7F 73 30 30 35 27  05 C2 C1 0C 01 07 1C 21  ...s005'.......!
0D70: 80 45 6A 80 F0 FF FF 7F  F0 FF FF 7F 73 30 30 31  .Ej.........s001
0D80: 11 80 55 6A 80 F0 FF FF  7F F0 FF FF 7F 73 30 30  ..Uj.........s00
0D90: 31 2B C2 C1 0C 01 7A 80  23 45 6A 80 F0 FF FF 7F  1+....z.#Ej.....
0DA0: F0 FF FF 7F 73 30 30 32  11 80 2B C2 C1 0C 01 7B  ....s002..+....{
0DB0: 80 23 55 6A 80 F0 FF FF  7F F0 FF FF 7F 73 30 30  .#Uj.........s00
0DC0: 32 6C C2 C1 0C 01 11 80  7C 80 92 01 C2 C1 0C 01  2l......|.......
0DD0: 45 13 80 F0 FF FF 7F F0  FF FF 7F 66 64 6F 32 11  E..........fdo2.
0DE0: 80 55 13 80 F0 FF FF 7F  F0 FF FF 7F 66 64 6F 32  .U..........fdo2
0DF0: 5C 00 11 80 5C 01 11 80  46 00 45 13 80 F0 FF FF  \...\...F.E.....
0E00: 7F F0 FF FF 7F 66 64 69  32 11 80 21 00           .....fdi2..!.   
```

#### Opcodes

```
  0: 0x0B93 [0x2F] Balpah (ID: 17613250/0x010CC1C2)->Render.Flags0 &= ~0x80000 // Bit 19
  1: 0x0B99 [0x20] SET_CLI_EVENT_UC_FLAG: Lock player control
  2: 0x0B9B [0x42] SET_CLI_EVENT_CANCEL_DATA()
  3: 0x0B9C [0x46] CAMERA_CONTROL: Disable user control
  4: 0x0B9E [0x45] LOAD_SCHEDULED_TASK: Load scheduler "fdo1" with entities [LocalPlayer, LocalPlayer], work=[200*, 0*]
  5: 0x0BAF [0x55] WAIT_LOAD_SCHEDULER: Wait for scheduler "fdo1" with entities [LocalPlayer, LocalPlayer], work=200*
  6: 0x0BBE [0x38] SET_CLIENT_EVENT_MODE(mode=19*)
  7: 0x0BC1 [0x37] UPDATE_EVENT_POSITION_AND_DIR: x=-167.551*, z=247.528*, y=0.052*, direction=231.9°*
  8: 0x0BCA [0x29] REQ_SET_WAIT(priority=0x03, entity_id=Balpah (ID: 17613250/0x010CC1C2), tag_num=0x02)
  9: 0x0BD1 [0x79] Balpah (ID: 17613250/0x010CC1C2) looks at LocalPlayer (Basic look)
 10: 0x0BDB [0x79] LocalPlayer looks at LocalPlayer (Basic look)
 11: 0x0BE5 [0x79] LocalPlayer looks at Balpah (ID: 17613250/0x010CC1C2) (Basic look)
 12: 0x0BEF [0x92] Balpah (ID: 17613250/0x010CC1C2)->Render.Flags3 ^= 0x01
 13: 0x0BF5 [0x4E] SET_ENTITY_HIDE_FLAG: Show Balpah (ID: 17613250/0x010CC1C2)
 14: 0x0BFB [0x45] LOAD_SCHEDULED_TASK: Load scheduler "s000" with entities [LocalPlayer, LocalPlayer], work=[207*, 0*]
 15: 0x0C0C [0x55] WAIT_LOAD_SCHEDULER: Wait for scheduler "s000" with entities [LocalPlayer, LocalPlayer], work=207*
 16: 0x0C1B [0x45] LOAD_SCHEDULED_TASK: Load scheduler "fdi1" with entities [LocalPlayer, LocalPlayer], work=[200*, 0*]
 17: 0x0C2C [0x55] WAIT_LOAD_SCHEDULER: Wait for scheduler "fdi1" with entities [LocalPlayer, LocalPlayer], work=200*
 18: 0x0C3B [0x2C] CREATE_SCHEDULER_TASK: Create scheduler "shit" with entities [LocalPlayer, LocalPlayer]
 19: 0x0C48 [0x1C] WAIT(10* ticks)
 20: 0x0C4B [0x45] LOAD_SCHEDULED_TASK: Load scheduler "s003" with entities [LocalPlayer, LocalPlayer], work=[207*, 0*]
 21: 0x0C5C [0x53] WAIT_SCHEDULER_TASK: Wait for scheduler "shit" with entities [LocalPlayer, LocalPlayer]
 22: 0x0C69 [0x55] WAIT_LOAD_SCHEDULER: Wait for scheduler "s003" with entities [LocalPlayer, LocalPlayer], work=207*
 23: 0x0C78 [0x1C] WAIT(30* ticks)
 24: 0x0C7B [0x62] LOAD_EVENT_SCHEDULER: Load scheduler "main" with entities [Underground Pool (ID: 17613248/0x010CC1C0), Underground Pool (ID: 17613248/0x010CC1C0)], work=[3*, 0*]
 25: 0x0C8C [0x53] WAIT_SCHEDULER_TASK: Wait for scheduler "main" with entities [Underground Pool (ID: 17613248/0x010CC1C0), Underground Pool (ID: 17613248/0x010CC1C0)]
 26: 0x0C99 [0x2C] CREATE_SCHEDULER_TASK: Create scheduler "res0" with entities [LocalPlayer, LocalPlayer]
 27: 0x0CA6 [0x53] WAIT_SCHEDULER_TASK: Wait for scheduler "res0" with entities [LocalPlayer, LocalPlayer]
 28: 0x0CB3 [0x1C] WAIT(60* ticks)
 29: 0x0CB6 [0x03] Work_Zone[2] = 230*
 30: 0x0CBB [0x48] [System] [7393*]:
    → "You throw in $6 and give a moment of silence for the spirits of the beasts."
 31: 0x0CBE [0x23] WAIT_FOR_DIALOG_INTERACTION
 32: 0x0CBF [0x5C] MUSIC_CONTROL: Set Idle (Day) music to song 123*
 33: 0x0CC3 [0x5C] MUSIC_CONTROL: Set Idle (Night) music to song 123*
 34: 0x0CC7 [0x2B] Balpah (ID: 17613250/0x010CC1C2) [7394*]:
    → "Stop..."
 35: 0x0CCE [0x23] WAIT_FOR_DIALOG_INTERACTION
 36: 0x0CCF [0x2C] CREATE_SCHEDULER_TASK: Create scheduler "res2" with entities [EventEntity, EventEntity]
 37: 0x0CDC [0x53] WAIT_SCHEDULER_TASK: Wait for scheduler "res2" with entities [EventEntity, EventEntity]
 38: 0x0CE9 [0x45] LOAD_SCHEDULED_TASK: Load scheduler "s004" with entities [LocalPlayer, LocalPlayer], work=[207*, 0*]
 39: 0x0CFA [0x6C] FADE_ENTITY_COLOR(entity_id=Balpah (ID: 17613250/0x010CC1C2), end_alpha=72*, fade_time=300*)
 40: 0x0D03 [0x92] Balpah (ID: 17613250/0x010CC1C2)->Render.Flags3 = Flags3  // No change (flag=0)
 41: 0x0D09 [0x55] WAIT_LOAD_SCHEDULER: Wait for scheduler "s004" with entities [LocalPlayer, LocalPlayer], work=207*
 42: 0x0D18 [0x27] REQ_SET(priority=0x03, entity_id=Balpah (ID: 17613250/0x010CC1C2), tag_num=0x03)
 43: 0x0D1F [0x2B] Balpah (ID: 17613250/0x010CC1C2) [7395*]:
    → "Your futile attempts at respect are nothing but self-gratifying actions. Do you think that throwing $6 in this pond will bring the beasts back? Do you think they will be appeased?"
 44: 0x0D26 [0x23] WAIT_FOR_DIALOG_INTERACTION
 45: 0x0D27 [0x2B] Balpah (ID: 17613250/0x010CC1C2) [7396*]:
    → "Have you ever stopped to think why it's always the people who survive and the beasts that die?"
 46: 0x0D2E [0x23] WAIT_FOR_DIALOG_INTERACTION
 47: 0x0D2F [0x27] REQ_SET(priority=0x04, entity_id=Balpah (ID: 17613250/0x010CC1C2), tag_num=0x04)
 48: 0x0D36 [0x1C] WAIT(10* ticks)
 49: 0x0D39 [0x45] LOAD_SCHEDULED_TASK: Load scheduler "s005" with entities [LocalPlayer, LocalPlayer], work=[207*, 0*]
 50: 0x0D4A [0x2B] Balpah (ID: 17613250/0x010CC1C2) [7397*]:
    → "Only I can relieve them of their true pain--and that is through revenge. You understand my words, do you not?"
 51: 0x0D51 [0x23] WAIT_FOR_DIALOG_INTERACTION
 52: 0x0D52 [0x2A] GET_REQ_LEVEL(level=4, entity_id=Balpah (ID: 17613250/0x010CC1C2))
 53: 0x0D58 [0x55] WAIT_LOAD_SCHEDULER: Wait for scheduler "s005" with entities [LocalPlayer, LocalPlayer], work=207*
 54: 0x0D67 [0x27] REQ_SET(priority=0x05, entity_id=Balpah (ID: 17613250/0x010CC1C2), tag_num=0x07)
 55: 0x0D6E [0x1C] WAIT(30* ticks)
 56: 0x0D71 [0x45] LOAD_SCHEDULED_TASK: Load scheduler "s001" with entities [LocalPlayer, LocalPlayer], work=[207*, 0*]
 57: 0x0D82 [0x55] WAIT_LOAD_SCHEDULER: Wait for scheduler "s001" with entities [LocalPlayer, LocalPlayer], work=207*
 58: 0x0D91 [0x2B] Balpah (ID: 17613250/0x010CC1C2) [7398*]:
    → "My pet was taken from me and my body left unable to perform my act. I cannot forgive what has come upon me."
 59: 0x0D98 [0x23] WAIT_FOR_DIALOG_INTERACTION
 60: 0x0D99 [0x45] LOAD_SCHEDULED_TASK: Load scheduler "s002" with entities [LocalPlayer, LocalPlayer], work=[207*, 0*]
 61: 0x0DAA [0x2B] Balpah (ID: 17613250/0x010CC1C2) [7399*]:
    → "I ask you for your assistance. I will be waiting for your answer the next time we meet, but I already know you will help me."
 62: 0x0DB1 [0x23] WAIT_FOR_DIALOG_INTERACTION
 63: 0x0DB2 [0x55] WAIT_LOAD_SCHEDULER: Wait for scheduler "s002" with entities [LocalPlayer, LocalPlayer], work=207*
 64: 0x0DC1 [0x6C] FADE_ENTITY_COLOR(entity_id=Balpah (ID: 17613250/0x010CC1C2), end_alpha=0*, fade_time=128*)
 65: 0x0DCA [0x92] Balpah (ID: 17613250/0x010CC1C2)->Render.Flags3 ^= 0x01
 66: 0x0DD0 [0x45] LOAD_SCHEDULED_TASK: Load scheduler "fdo2" with entities [LocalPlayer, LocalPlayer], work=[200*, 0*]
 67: 0x0DE1 [0x55] WAIT_LOAD_SCHEDULER: Wait for scheduler "fdo2" with entities [LocalPlayer, LocalPlayer], work=200*
 68: 0x0DF0 [0x5C] MUSIC_CONTROL: Set Idle (Day) music to song 0*
 69: 0x0DF4 [0x5C] MUSIC_CONTROL: Set Idle (Night) music to song 0*
 70: 0x0DF8 [0x46] CAMERA_CONTROL: Restore default settings
 71: 0x0DFA [0x45] LOAD_SCHEDULED_TASK: Load scheduler "fdi2" with entities [LocalPlayer, LocalPlayer], work=[200*, 0*]
 72: 0x0E0B [0x21] END_EVENT
 73: 0x0E0C [0x00] END_REQSTACK()
```

### Event 19

#### Metadata

| Field        | Value     |
|--------------|-----------|
| Entrypoint   | 0x0E0D    |
| Data Size    | 597 bytes |
| Instructions | 81        |

```
      00 01 02 03 04 05 06 07  08 09 0A 0B 0C 0D 0E 0F
      -- -- -- -- -- -- -- --  -- -- -- -- -- -- -- --
0E00:                                         03 09 10               ...
0E10: 7D 80 42 22 00 5C 00 7E  80 5C 01 7E 80 4E 00 C3  }.B".\.~.\.~.N..
0E20: C1 0C 01 4E 00 C4 C1 0C  01 46 01 45 13 80 F0 FF  ...N.....F.E....
0E30: FF 7F F0 FF FF 7F 66 64  69 32 11 80 45 7F 80 F0  ......fdi2..E...
0E40: FF FF 7F F0 FF FF 7F 73  30 31 39 11 80 32 0C 80  .......s019..2..
0E50: 37 80 80 81 80 82 80 83  80 79 00 F0 FF FF 7F C3  7........y......
0E60: C1 0C 01 1F 00 84 80 85  80 86 80 1F 01 4A C3 C1  .............J..
0E70: 0C 01 F0 FF FF 7F 2B C3  C1 0C 01 87 80 23 5B 1A  ......+......#[.
0E80: 80 C3 C1 0C 01 C3 C1 0C  01 74 6C 6B 30 2B C3 C1  .........tlk0+..
0E90: 0C 01 88 80 23 52 7F 80  F0 FF FF 7F F0 FF FF 7F  ....#R..........
0EA0: 73 30 31 39 45 7F 80 F0  FF FF 7F F0 FF FF 7F 73  s019E..........s
0EB0: 30 32 30 11 80 2B C3 C1  0C 01 89 80 23 50 C3 C1  020..+......#P..
0EC0: 0C 01 C3 C1 0C 01 74 6C  6B 30 5B 1A 80 C3 C1 0C  ......tlk0[.....
0ED0: 01 C3 C1 0C 01 74 6C 6B  31 2B C3 C1 0C 01 8A 80  .....tlk1+......
0EE0: 23 4A C3 C1 0C 01 C4 C1  0C 01 2B C3 C1 0C 01 8B  #J........+.....
0EF0: 80 23 27 0A C3 C1 0C 01  02 4A F0 FF FF 7F C3 C1  .#'......J......
0F00: 0C 01 1C 21 80 4A C4 C1  0C 01 C3 C1 0C 01 52 7F  ...!.J........R.
0F10: 80 F0 FF FF 7F F0 FF FF  7F 73 30 32 30 45 7F 80  .........s020E..
0F20: F0 FF FF 7F F0 FF FF 7F  73 30 32 31 11 80 1C 8C  ........s021....
0F30: 80 2B C4 C1 0C 01 8D 80  23 66 21 80 C4 C1 0C 01  .+......#f!.....
0F40: C4 C1 0C 01 74 6C 6B 30  2B C4 C1 0C 01 8E 80 23  ....tlk0+......#
0F50: 2B C4 C1 0C 01 8F 80 23  6B 69 64 6C 30 C4 C1 0C  +......#kidl0...
0F60: 01 52 7F 80 F0 FF FF 7F  F0 FF FF 7F 73 30 32 31  .R..........s021
0F70: 45 7F 80 F0 FF FF 7F F0  FF FF 7F 73 30 32 32 11  E..........s022.
0F80: 80 2B C4 C1 0C 01 90 80  23 4A C4 C1 0C 01 F0 FF  .+......#J......
0F90: FF 7F 2B C4 C1 0C 01 91  80 23 66 21 80 C4 C1 0C  ..+......#f!....
0FA0: 01 C4 C1 0C 01 74 6C 6B  30 2B C4 C1 0C 01 92 80  .....tlk0+......
0FB0: 23 6B 69 64 6C 30 C4 C1  0C 01 2B C4 C1 0C 01 93  #kidl0....+.....
0FC0: 80 23 52 7F 80 F0 FF FF  7F F0 FF FF 7F 73 30 32  .#R..........s02
0FD0: 32 45 7F 80 F0 FF FF 7F  F0 FF FF 7F 73 30 32 33  2E..........s023
0FE0: 11 80 27 0A C4 C1 0C 01  02 4A F0 FF FF 7F C4 C1  ..'......J......
0FF0: 0C 01 2B C4 C1 0C 01 94  80 23 2B C4 C1 0C 01 95  ..+......#+.....
1000: 80 23 2B C4 C1 0C 01 96  80 23 27 0A C4 C1 0C 01  .#+......#'.....
1010: 03 5D 11 80 1A 80 45 13  80 F0 FF FF 7F F0 FF FF  .]....E.........
1020: 7F 66 64 6F 32 11 80 55  13 80 F0 FF FF 7F F0 FF  .fdo2..U........
1030: FF 7F 66 64 6F 32 52 7F  80 F0 FF FF 7F F0 FF FF  ..fdo2R.........
1040: 7F 73 30 32 33 46 00 5C  00 11 80 5C 01 11 80 45  .s023F.\...\...E
1050: 13 80 F0 FF FF 7F F0 FF  FF 7F 66 64 69 32 11 80  ..........fdi2..
1060: 21 00                                             !.              
```

#### Opcodes

```
  0: 0x0E0D [0x03] Work_Zone[9] = 1098*
  1: 0x0E12 [0x42] SET_CLI_EVENT_CANCEL_DATA()
  2: 0x0E13 [0x22] ENTITY_HIDE_FLAG(enabled=0x00)
  3: 0x0E15 [0x5C] MUSIC_CONTROL: Set Idle (Day) music to song 156*
  4: 0x0E19 [0x5C] MUSIC_CONTROL: Set Idle (Night) music to song 156*
  5: 0x0E1D [0x4E] SET_ENTITY_HIDE_FLAG: Show Pieuje (ID: 17613251/0x010CC1C3)
  6: 0x0E23 [0x4E] SET_ENTITY_HIDE_FLAG: Show Jeronne (ID: 17613252/0x010CC1C4)
  7: 0x0E29 [0x46] CAMERA_CONTROL: Disable user control
  8: 0x0E2B [0x45] LOAD_SCHEDULED_TASK: Load scheduler "fdi2" with entities [LocalPlayer, LocalPlayer], work=[200*, 0*]
  9: 0x0E3C [0x45] LOAD_SCHEDULED_TASK: Load scheduler "s019" with entities [LocalPlayer, LocalPlayer], work=[203*, 0*]
 10: 0x0E4D [0x32] ExtData[1]->MainSpeed = 13* * 0.1
 11: 0x0E50 [0x37] UPDATE_EVENT_POSITION_AND_DIR: x=-179.571*, z=-219.877*, y=-28.125*, direction=272.6°*
 12: 0x0E59 [0x79] LocalPlayer looks at Pieuje (ID: 17613251/0x010CC1C3) (Basic look)
 13: 0x0E63 [0x1F] MOVE_ENTITY: EventEntity moves to X=-179.664*, Z=-216.343*, Y=-27.375*
 14: 0x0E6B [0x1F] MOVE_ENTITY: Update entity position (mode=1)
 15: 0x0E6D [0x4A] Pieuje (ID: 17613251/0x010CC1C3) looks at LocalPlayer
 16: 0x0E76 [0x2B] Pieuje (ID: 17613251/0x010CC1C3) [7402*]:
    → "You are late. Is something wrong? You look as if you are confused by my being here."
 17: 0x0E7D [0x23] WAIT_FOR_DIALOG_INTERACTION
 18: 0x0E7E [0x5B] LOAD_EXT_SCHEDULER: Load scheduler "tlk0" with entities [Pieuje (ID: 17613251/0x010CC1C3), Pieuje (ID: 17613251/0x010CC1C3)], work=120*
 19: 0x0E8D [0x2B] Pieuje (ID: 17613251/0x010CC1C3) [7403*]:
    → "If you must know, I could not allow my brother to be involved in this."
 20: 0x0E94 [0x23] WAIT_FOR_DIALOG_INTERACTION
 21: 0x0E95 [0x52] END_LOAD_SCHEDULER: End scheduler "s019" with entities [LocalPlayer, LocalPlayer], work=203*
 22: 0x0EA4 [0x45] LOAD_SCHEDULED_TASK: Load scheduler "s020" with entities [LocalPlayer, LocalPlayer], work=[203*, 0*]
 23: 0x0EB5 [0x2B] Pieuje (ID: 17613251/0x010CC1C3) [7404*]:
    → "I am not inclined to inform Narcheral, but the white mages from the cathedral have been deployed into the surrounding area. Any further assembly of monsters has been prevented."
 24: 0x0EBC [0x23] WAIT_FOR_DIALOG_INTERACTION
 25: 0x0EBD [0x50] END_SCHEDULER_TASK: End scheduler "tl" with entities [0xC1C3, 0xC1C3], work=[268, 268]
 26: 0x0ECA [0x5B] LOAD_EXT_SCHEDULER: Load scheduler "tlk1" with entities [Pieuje (ID: 17613251/0x010CC1C3), Pieuje (ID: 17613251/0x010CC1C3)], work=120*
 27: 0x0ED9 [0x2B] Pieuje (ID: 17613251/0x010CC1C3) [7405*]:
    → "All that remains is to quell the rage of the marquis."
 28: 0x0EE0 [0x23] WAIT_FOR_DIALOG_INTERACTION
 29: 0x0EE1 [0x4A] Pieuje (ID: 17613251/0x010CC1C3) looks at Jeronne (ID: 17613252/0x010CC1C4)
 30: 0x0EEA [0x2B] Pieuje (ID: 17613251/0x010CC1C3) [7406*]:
    → "Jeronne, inform the adventurer what [he/she] needs to know. I am going to check on our backup."
 31: 0x0EF1 [0x23] WAIT_FOR_DIALOG_INTERACTION
 32: 0x0EF2 [0x27] REQ_SET(priority=0x0A, entity_id=Pieuje (ID: 17613251/0x010CC1C3), tag_num=0x02)
 33: 0x0EF9 [0x4A] LocalPlayer looks at Pieuje (ID: 17613251/0x010CC1C3)
 34: 0x0F02 [0x1C] WAIT(30* ticks)
 35: 0x0F05 [0x4A] Jeronne (ID: 17613252/0x010CC1C4) looks at Pieuje (ID: 17613251/0x010CC1C3)
 36: 0x0F0E [0x52] END_LOAD_SCHEDULER: End scheduler "s020" with entities [LocalPlayer, LocalPlayer], work=203*
 37: 0x0F1D [0x45] LOAD_SCHEDULED_TASK: Load scheduler "s021" with entities [LocalPlayer, LocalPlayer], work=[203*, 0*]
 38: 0x0F2E [0x1C] WAIT(180* ticks)
 39: 0x0F31 [0x2B] Jeronne (ID: 17613252/0x010CC1C4) [7407*]:
    → "He is such a kind man. I was ordered to keep my opinions to myself...but I know that this decision was made with Prince Trion in mind."
 40: 0x0F38 [0x23] WAIT_FOR_DIALOG_INTERACTION
 41: 0x0F39 [0x66] LOAD_EXT_SCHEDULER_MAIN: Load scheduler "tlk0" with entities [Jeronne (ID: 17613252/0x010CC1C4), Jeronne (ID: 17613252/0x010CC1C4)], work=30*
 42: 0x0F48 [0x2B] Jeronne (ID: 17613252/0x010CC1C4) [7408*]:
    → "The Prince looks fine, but the truth is that his wounds are not healing well."
 43: 0x0F4F [0x23] WAIT_FOR_DIALOG_INTERACTION
 44: 0x0F50 [0x2B] Jeronne (ID: 17613252/0x010CC1C4) [7409*]:
    → "However, if Prince Trion learned of the situation that unfolded in Tavnazia, he would more than likely wish to lead the forces onto the battlefield himself."
 45: 0x0F57 [0x23] WAIT_FOR_DIALOG_INTERACTION
 46: 0x0F58 [0x6B] STOP_AND_IDLE: Jeronne (ID: 17613252/0x010CC1C4) stops current action and resets to idle (animation="idl0")
 47: 0x0F61 [0x52] END_LOAD_SCHEDULER: End scheduler "s021" with entities [LocalPlayer, LocalPlayer], work=203*
 48: 0x0F70 [0x45] LOAD_SCHEDULED_TASK: Load scheduler "s022" with entities [LocalPlayer, LocalPlayer], work=[203*, 0*]
 49: 0x0F81 [0x2B] Jeronne (ID: 17613252/0x010CC1C4) [7410*]:
    → "The reason Prince Pieuje is keeping this operation a secret is solely for the well-being of Prince Trion."
 50: 0x0F88 [0x23] WAIT_FOR_DIALOG_INTERACTION
 51: 0x0F89 [0x4A] Jeronne (ID: 17613252/0x010CC1C4) looks at LocalPlayer
 52: 0x0F92 [0x2B] Jeronne (ID: 17613252/0x010CC1C4) [7411*]:
    → "I apologize. I have been rambling... Let me inform you on our latest report. It seems as if the $7 possessed by dark stalkers is the signal for assembly."
 53: 0x0F99 [0x23] WAIT_FOR_DIALOG_INTERACTION
 54: 0x0F9A [0x66] LOAD_EXT_SCHEDULER_MAIN: Load scheduler "tlk0" with entities [Jeronne (ID: 17613252/0x010CC1C4), Jeronne (ID: 17613252/0x010CC1C4)], work=30*
 55: 0x0FA9 [0x2B] Jeronne (ID: 17613252/0x010CC1C4) [7412*]:
    → "Now, the barrier is prohibiting the assembly. Now is the perfect time to purify the marquis' soul. Use the $7 and find a place suitable for calling him forth."
 56: 0x0FB0 [0x23] WAIT_FOR_DIALOG_INTERACTION
 57: 0x0FB1 [0x6B] STOP_AND_IDLE: Jeronne (ID: 17613252/0x010CC1C4) stops current action and resets to idle (animation="idl0")
 58: 0x0FBA [0x2B] Jeronne (ID: 17613252/0x010CC1C4) [7413*]:
    → "The details of this operation are strictly to have adventurers proceed in advance. When the soul has been purified, take back the proof of your success to Narcheral and we will continue from there."
 59: 0x0FC1 [0x23] WAIT_FOR_DIALOG_INTERACTION
 60: 0x0FC2 [0x52] END_LOAD_SCHEDULER: End scheduler "s022" with entities [LocalPlayer, LocalPlayer], work=203*
 61: 0x0FD1 [0x45] LOAD_SCHEDULED_TASK: Load scheduler "s023" with entities [LocalPlayer, LocalPlayer], work=[203*, 0*]
 62: 0x0FE2 [0x27] REQ_SET(priority=0x0A, entity_id=Jeronne (ID: 17613252/0x010CC1C4), tag_num=0x02)
 63: 0x0FE9 [0x4A] LocalPlayer looks at Jeronne (ID: 17613252/0x010CC1C4)
 64: 0x0FF2 [0x2B] Jeronne (ID: 17613252/0x010CC1C4) [7414*]:
    → "May the Goddess protect you in Her mercy..."
 65: 0x0FF9 [0x23] WAIT_FOR_DIALOG_INTERACTION
 66: 0x0FFA [0x2B] Jeronne (ID: 17613252/0x010CC1C4) [7415*]:
    → "Again, I apologize for the length of my speech, but there is one more thing. Narcheral is not rushing the situation. He and I were raised in different monasteries."
 67: 0x1001 [0x23] WAIT_FOR_DIALOG_INTERACTION
 68: 0x1002 [0x2B] Jeronne (ID: 17613252/0x010CC1C4) [7416*]:
    → "And those two monasteries have been destroyed by the Orcs. We both have the same wish in our hearts... But we do not want to lose anything more."
 69: 0x1009 [0x23] WAIT_FOR_DIALOG_INTERACTION
 70: 0x100A [0x27] REQ_SET(priority=0x0A, entity_id=Jeronne (ID: 17613252/0x010CC1C4), tag_num=0x03)
 71: 0x1011 [0x5D] SET_MUSIC_VOLUME(volume=0*, fade_time=120*)
 72: 0x1016 [0x45] LOAD_SCHEDULED_TASK: Load scheduler "fdo2" with entities [LocalPlayer, LocalPlayer], work=[200*, 0*]
 73: 0x1027 [0x55] WAIT_LOAD_SCHEDULER: Wait for scheduler "fdo2" with entities [LocalPlayer, LocalPlayer], work=200*
 74: 0x1036 [0x52] END_LOAD_SCHEDULER: End scheduler "s023" with entities [LocalPlayer, LocalPlayer], work=203*
 75: 0x1045 [0x46] CAMERA_CONTROL: Restore default settings
 76: 0x1047 [0x5C] MUSIC_CONTROL: Set Idle (Day) music to song 0*
 77: 0x104B [0x5C] MUSIC_CONTROL: Set Idle (Night) music to song 0*
 78: 0x104F [0x45] LOAD_SCHEDULED_TASK: Load scheduler "fdi2" with entities [LocalPlayer, LocalPlayer], work=[200*, 0*]
 79: 0x1060 [0x21] END_EVENT
 80: 0x1061 [0x00] END_REQSTACK()
```

### Event 28

#### Metadata

| Field        | Value    |
|--------------|----------|
| Entrypoint   | 0x1062   |
| Data Size    | 63 bytes |
| Instructions | 17       |

```
      00 01 02 03 04 05 06 07  08 09 0A 0B 0C 0D 0E 0F
      -- -- -- -- -- -- -- --  -- -- -- -- -- -- -- --
1060:       20 01 42 03 02 10  97 80 03 03 10 98 80 24     .B..........$
1070: 99 80 02 80 11 80 25 02  00 10 11 80 00 87 10 03  ......%.........
1080: 01 10 64 80 01 9C 10 02  00 10 01 80 00 97 10 03  ..d.............
1090: 01 10 13 80 01 9C 10 03  01 10 11 80 2E 20 00 21  ............. .!
10A0: 00                                                .               
```

#### Opcodes

```
  0: 0x1062 [0x20] SET_CLI_EVENT_UC_FLAG: Lock player control
  1: 0x1064 [0x42] SET_CLI_EVENT_CANCEL_DATA()
  2: 0x1065 [0x03] Work_Zone[2] = 1091*
  3: 0x106A [0x03] Work_Zone[3] = 1108*
  4: 0x106F [0x24] CREATE_DIALOG(message_id=7510*, default_option=2*, option_flags=0*)
    → "Which item will you obtain? [6./$6.]"
  5: 0x1076 [0x25] WAIT_DIALOG_SELECT()
  6: 0x1077 [0x02] IF !(Work_Zone[0] == 0*) GOTO 0x1087
  7: 0x107F [0x03] Work_Zone[1] = 100*
  8: 0x1084 [0x01] GOTO 0x109C
  9: 0x1087 [0x02] IF !(Work_Zone[0] == 1*) GOTO 0x1097
 10: 0x108F [0x03] Work_Zone[1] = 200*
 11: 0x1094 [0x01] GOTO 0x109C
 12: 0x1097 [0x03] Work_Zone[1] = 0*

SUBROUTINE_109C:
 13: 0x109C [0x2E] SET_CLI_EVENT_CANCEL_FLAGS()
 14: 0x109D [0x20] SET_CLI_EVENT_UC_FLAG: Unlock player control
 15: 0x109F [0x21] END_EVENT
 16: 0x10A0 [0x00] END_REQSTACK()
```

### Event 29

#### Metadata

| Field        | Value     |
|--------------|-----------|
| Entrypoint   | 0x10A1    |
| Data Size    | 561 bytes |
| Instructions | 56        |

```
      00 01 02 03 04 05 06 07  08 09 0A 0B 0C 0D 0E 0F
      -- -- -- -- -- -- -- --  -- -- -- -- -- -- -- --
10A0:    20 01 46 01 42 45 13  80 F0 FF FF 7F F0 FF FF    .F.BE.........
10B0: 7F 66 64 6F 31 11 80 1C  1C 80 38 10 80 4E 00 F0  .fdo1.....8..N..
10C0: FF FF 7F 80 F0 FF FF 7F  27 0F F0 FF FF 7F 04 45  ........'......E
10D0: 13 80 F0 FF FF 7F F0 FF  FF 7F 62 6C 6F 6E 11 80  ..........blon..
10E0: 45 9A 80 F0 FF FF 7F F0  FF FF 7F 62 6C 6F 6E 11  E..........blon.
10F0: 80 45 9B 80 F0 FF FF 7F  F0 FF FF 7F 64 6C 30 30  .E..........dl00
1100: 11 80 45 13 80 F0 FF FF  7F F0 FF FF 7F 66 64 69  ..E..........fdi
1110: 31 11 80 2B D2 C1 0C 01  9C 80 1C 8C 80 52 9B 80  1..+.........R..
1120: F0 FF FF 7F F0 FF FF 7F  64 6C 30 30 45 13 80 F0  ........dl00E...
1130: FF FF 7F F0 FF FF 7F 6F  76 6C 31 11 80 45 9B 80  .......ovl1..E..
1140: F0 FF FF 7F F0 FF FF 7F  64 6C 30 31 11 80 2B D2  ........dl01..+.
1150: C1 0C 01 9D 80 1C 9E 80  52 9B 80 F0 FF FF 7F F0  ........R.......
1160: FF FF 7F 64 6C 30 31 45  13 80 F0 FF FF 7F F0 FF  ...dl01E........
1170: FF 7F 6F 76 6C 31 11 80  45 9B 80 F0 FF FF 7F F0  ..ovl1..E.......
1180: FF FF 7F 64 6C 30 32 11  80 2B D2 C1 0C 01 9F 80  ...dl02..+......
1190: 1C 9E 80 52 9B 80 F0 FF  FF 7F F0 FF FF 7F 64 6C  ...R..........dl
11A0: 30 32 45 13 80 F0 FF FF  7F F0 FF FF 7F 6F 76 6C  02E..........ovl
11B0: 31 11 80 45 9B 80 F0 FF  FF 7F F0 FF FF 7F 64 6C  1..E..........dl
11C0: 30 33 11 80 2B D2 C1 0C  01 A0 80 1C 76 80 52 9B  03..+.......v.R.
11D0: 80 F0 FF FF 7F F0 FF FF  7F 64 6C 30 33 45 13 80  .........dl03E..
11E0: F0 FF FF 7F F0 FF FF 7F  6F 76 6C 31 11 80 45 9B  ........ovl1..E.
11F0: 80 F0 FF FF 7F F0 FF FF  7F 64 6C 30 34 11 80 2B  .........dl04..+
1200: D2 C1 0C 01 A1 80 1C 76  80 52 9B 80 F0 FF FF 7F  .......v.R......
1210: F0 FF FF 7F 64 6C 30 34  45 13 80 F0 FF FF 7F F0  ....dl04E.......
1220: FF FF 7F 6F 76 6C 31 11  80 45 9B 80 F0 FF FF 7F  ...ovl1..E......
1230: F0 FF FF 7F 64 6C 30 35  11 80 03 02 10 97 80 2B  ....dl05.......+
1240: D2 C1 0C 01 A2 80 1C 76  80 52 9B 80 F0 FF FF 7F  .......v.R......
1250: F0 FF FF 7F 64 6C 30 35  45 13 80 F0 FF FF 7F F0  ....dl05E.......
1260: FF FF 7F 6F 76 6C 31 11  80 45 9B 80 F0 FF FF 7F  ...ovl1..E......
1270: F0 FF FF 7F 64 6C 30 36  11 80 2B D2 C1 0C 01 A3  ....dl06..+.....
1280: 80 1C 76 80 45 13 80 F0  FF FF 7F F0 FF FF 7F 66  ..v.E..........f
1290: 64 6F 31 11 80 1C 1C 80  52 9B 80 F0 FF FF 7F F0  do1.....R.......
12A0: FF FF 7F 64 6C 30 36 45  13 80 F0 FF FF 7F F0 FF  ...dl06E........
12B0: FF 7F 62 6C 6F 66 11 80  1C 1C 80 45 13 80 F0 FF  ..blof.....E....
12C0: FF 7F F0 FF FF 7F 66 64  69 31 11 80 46 00 20 00  ......fdi1..F. .
12D0: 21 00                                             !.              
```

#### Opcodes

```
  0: 0x10A1 [0x20] SET_CLI_EVENT_UC_FLAG: Lock player control
  1: 0x10A3 [0x46] CAMERA_CONTROL: Disable user control
  2: 0x10A5 [0x42] SET_CLI_EVENT_CANCEL_DATA()
  3: 0x10A6 [0x45] LOAD_SCHEDULED_TASK: Load scheduler "fdo1" with entities [LocalPlayer, LocalPlayer], work=[200*, 0*]
  4: 0x10B7 [0x1C] WAIT(60* ticks)
  5: 0x10BA [0x38] SET_CLIENT_EVENT_MODE(mode=19*)
  6: 0x10BD [0x4E] SET_ENTITY_HIDE_FLAG: Show LocalPlayer
  7: 0x10C3 [0x80] LOAD_WAIT(entity=LocalPlayer)
  8: 0x10C8 [0x27] REQ_SET(priority=0x0F, entity_id=LocalPlayer, tag_num=0x04)
  9: 0x10CF [0x45] LOAD_SCHEDULED_TASK: Load scheduler "blon" with entities [LocalPlayer, LocalPlayer], work=[200*, 0*]
 10: 0x10E0 [0x45] LOAD_SCHEDULED_TASK: Load scheduler "blon" with entities [LocalPlayer, LocalPlayer], work=[201*, 0*]
 11: 0x10F1 [0x45] LOAD_SCHEDULED_TASK: Load scheduler "dl00" with entities [LocalPlayer, LocalPlayer], work=[341*, 0*]
 12: 0x1102 [0x45] LOAD_SCHEDULED_TASK: Load scheduler "fdi1" with entities [LocalPlayer, LocalPlayer], work=[200*, 0*]
 13: 0x1113 [0x2B] Young Aldo (ID: 17613266/0x010CC1D2) [7511*]:
    → "Ah, <Player>. We've no time to lose."
 14: 0x111A [0x1C] WAIT(180* ticks)
 15: 0x111D [0x52] END_LOAD_SCHEDULER: End scheduler "dl00" with entities [LocalPlayer, LocalPlayer], work=341*
 16: 0x112C [0x45] LOAD_SCHEDULED_TASK: Load scheduler "ovl1" with entities [LocalPlayer, LocalPlayer], work=[200*, 0*]
 17: 0x113D [0x45] LOAD_SCHEDULED_TASK: Load scheduler "dl01" with entities [LocalPlayer, LocalPlayer], work=[341*, 0*]
 18: 0x114E [0x2B] Young Aldo (ID: 17613266/0x010CC1D2) [7512*]:
    → "Mother is being held captive within the walls of the Qu'Bia Arena."
 19: 0x1155 [0x1C] WAIT(420* ticks)
 20: 0x1158 [0x52] END_LOAD_SCHEDULER: End scheduler "dl01" with entities [LocalPlayer, LocalPlayer], work=341*
 21: 0x1167 [0x45] LOAD_SCHEDULED_TASK: Load scheduler "ovl1" with entities [LocalPlayer, LocalPlayer], work=[200*, 0*]
 22: 0x1178 [0x45] LOAD_SCHEDULED_TASK: Load scheduler "dl02" with entities [LocalPlayer, LocalPlayer], work=[341*, 0*]
 23: 0x1189 [0x2B] Young Aldo (ID: 17613266/0x010CC1D2) [7513*]:
    → "I tried to get in, only to find my entry thwarted by a curious magical barrier. This must be the power of the Seed Crystal."
 24: 0x1190 [0x1C] WAIT(420* ticks)
 25: 0x1193 [0x52] END_LOAD_SCHEDULER: End scheduler "dl02" with entities [LocalPlayer, LocalPlayer], work=341*
 26: 0x11A2 [0x45] LOAD_SCHEDULED_TASK: Load scheduler "ovl1" with entities [LocalPlayer, LocalPlayer], work=[200*, 0*]
 27: 0x11B3 [0x45] LOAD_SCHEDULED_TASK: Load scheduler "dl03" with entities [LocalPlayer, LocalPlayer], work=[341*, 0*]
 28: 0x11C4 [0x2B] Young Aldo (ID: 17613266/0x010CC1D2) [7514*]:
    → "We have only one choice. We must harness this power for ourselves, and use it to negate the shield that bars our way."
 29: 0x11CB [0x1C] WAIT(300* ticks)
 30: 0x11CE [0x52] END_LOAD_SCHEDULER: End scheduler "dl03" with entities [LocalPlayer, LocalPlayer], work=341*
 31: 0x11DD [0x45] LOAD_SCHEDULED_TASK: Load scheduler "ovl1" with entities [LocalPlayer, LocalPlayer], work=[200*, 0*]
 32: 0x11EE [0x45] LOAD_SCHEDULED_TASK: Load scheduler "dl04" with entities [LocalPlayer, LocalPlayer], work=[341*, 0*]
 33: 0x11FF [0x2B] Young Aldo (ID: 17613266/0x010CC1D2) [7515*]:
    → "Remnants of the crystal's glow can be found scattered throughout these ruins. Their light has grown weak, and their power unstable..."
 34: 0x1206 [0x1C] WAIT(300* ticks)
 35: 0x1209 [0x52] END_LOAD_SCHEDULER: End scheduler "dl04" with entities [LocalPlayer, LocalPlayer], work=341*
 36: 0x1218 [0x45] LOAD_SCHEDULED_TASK: Load scheduler "ovl1" with entities [LocalPlayer, LocalPlayer], work=[200*, 0*]
 37: 0x1229 [0x45] LOAD_SCHEDULED_TASK: Load scheduler "dl05" with entities [LocalPlayer, LocalPlayer], work=[341*, 0*]
 38: 0x123A [0x03] Work_Zone[2] = 1091*
 39: 0x123F [0x2B] Young Aldo (ID: 17613266/0x010CC1D2) [7516*]:
    → "But if you can retrieve them all before their power fades, they will fuse to form the $3. This is the key that will open our path."
 40: 0x1246 [0x1C] WAIT(300* ticks)
 41: 0x1249 [0x52] END_LOAD_SCHEDULER: End scheduler "dl05" with entities [LocalPlayer, LocalPlayer], work=341*
 42: 0x1258 [0x45] LOAD_SCHEDULED_TASK: Load scheduler "ovl1" with entities [LocalPlayer, LocalPlayer], work=[200*, 0*]
 43: 0x1269 [0x45] LOAD_SCHEDULED_TASK: Load scheduler "dl06" with entities [LocalPlayer, LocalPlayer], work=[341*, 0*]
 44: 0x127A [0x2B] Young Aldo (ID: 17613266/0x010CC1D2) [7517*]:
    → "Do hurry, <Player>. Mother is waiting for us, and time is of the essence..."
 45: 0x1281 [0x1C] WAIT(300* ticks)
 46: 0x1284 [0x45] LOAD_SCHEDULED_TASK: Load scheduler "fdo1" with entities [LocalPlayer, LocalPlayer], work=[200*, 0*]
 47: 0x1295 [0x1C] WAIT(60* ticks)
 48: 0x1298 [0x52] END_LOAD_SCHEDULER: End scheduler "dl06" with entities [LocalPlayer, LocalPlayer], work=341*
 49: 0x12A7 [0x45] LOAD_SCHEDULED_TASK: Load scheduler "blof" with entities [LocalPlayer, LocalPlayer], work=[200*, 0*]
 50: 0x12B8 [0x1C] WAIT(60* ticks)
 51: 0x12BB [0x45] LOAD_SCHEDULED_TASK: Load scheduler "fdi1" with entities [LocalPlayer, LocalPlayer], work=[200*, 0*]
 52: 0x12CC [0x46] CAMERA_CONTROL: Restore default settings
 53: 0x12CE [0x20] SET_CLI_EVENT_UC_FLAG: Unlock player control
 54: 0x12D0 [0x21] END_EVENT
 55: 0x12D1 [0x00] END_REQSTACK()
```

### Event 65535.13

#### Metadata

| Field        | Value   |
|--------------|---------|
| Entrypoint   | 0x12D2  |
| Data Size    | 7 bytes |
| Instructions | 3       |

```
      00 01 02 03 04 05 06 07  08 09 0A 0B 0C 0D 0E 0F
      -- -- -- -- -- -- -- --  -- -- -- -- -- -- -- --
12D0:       AB 03 AC 01 01 80  00                         .......       
```

#### Opcodes

```
