# Event 65535

## Metadata

| Field           | Value    |
|-----------------|----------|
| Event Index     | 53/97    |
| Offset          | 0x0A8A   |
| Data Size       | 37 bytes |
| Calculated Size | 37 bytes |
| Instructions    | 9        |

```
      00 01 02 03 04 05 06 07  08 09 0A 0B 0C 0D 0E 0F
      -- -- -- -- -- -- -- --  -- -- -- -- -- -- -- --
0A80:                                29 0A 8D 60 0E 01            )..`..
0A90: 01 1D 45 80 23 29 0A 8D  60 0E 01 02 29 0A 8D 60  ..E.#)..`...)..`
0AA0: 0E 01 03 1D 46 80 23 29  0A 8D 60 0E 01 04 00     ....F.#)..`.... 
```

## Opcodes

```
  0: 0x0A8A [0x29] REQ_SET_WAIT(priority=0x0A, entity_id=Moogle (ID: 17719437/0x010E608D), tag_num=0x01)
  1: 0x0A91 [0x1D] PRINT_EVENT_MESSAGE(message_id=6663*)
    → "I used the \u0001\u0005#\u0002\u0003\u0000\u0000 to write a song for you, kupo!\u007F1\u0000\u0007"
  2: 0x0A94 [0x23] WAIT_FOR_DIALOG_INTERACTION
  3: 0x0A95 [0x29] REQ_SET_WAIT(priority=0x0A, entity_id=Moogle (ID: 17719437/0x010E608D), tag_num=0x02)
  4: 0x0A9C [0x29] REQ_SET_WAIT(priority=0x0A, entity_id=Moogle (ID: 17719437/0x010E608D), tag_num=0x03)
  5: 0x0AA3 [0x1D] PRINT_EVENT_MESSAGE(message_id=6664*)
    → "Here, kupo! Please think of the lonely moogle waiting for you back home when you hear this song, kupo!\u007F1\u0000\u0007"
  6: 0x0AA6 [0x23] WAIT_FOR_DIALOG_INTERACTION
  7: 0x0AA7 [0x29] REQ_SET_WAIT(priority=0x0A, entity_id=Moogle (ID: 17719437/0x010E608D), tag_num=0x04)
  8: 0x0AAE [0x00] END_REQSTACK()
```
