# Event 65535

## Metadata

| Field           | Value    |
|-----------------|----------|
| Event Index     | 13/13    |
| Offset          | 0x007A   |
| Data Size       | 51 bytes |
| Calculated Size | 51 bytes |
| Instructions    | 13       |

```
      00 01 02 03 04 05 06 07  08 09 0A 0B 0C 0D 0E 0F
      -- -- -- -- -- -- -- --  -- -- -- -- -- -- -- --
0070:                                1E F3 22 06 01 6F            .."..o
0080: 70 6E F8 FF FF 7F 11 80  99 F8 FF FF 7F 99 F8 FF  pn..............
0090: FF 7F 1C 12 80 32 13 80  1F 00 14 80 15 80 16 80  .....2..........
00A0: 1F 01 6F 6C F8 FF FF 7F  00 80 17 80 00           ..ol.........   
```

## Opcodes

```
  0: 0x007A [0x1E] EventEntity looks at Nalkuku (ID: 17179379/0x010622F3) and starts talking
  1: 0x007F [0x6F] WAIT_FRAME_DELAY: Yield until WaitTime reaches zero
  2: 0x0080 [0x70] WAIT_ENTITY_RENDER_FLAG: Wait while EventEntity->Render.Flags3 bit 2 is set (cancel turn if not)
  3: 0x0081 [0x6E] EventEntity uses emote 25*
  4: 0x0088 [0x99] Wait for EventEntity animation to complete
  5: 0x008D [0x99] Wait for EventEntity animation to complete
  6: 0x0092 [0x1C] WAIT(180* ticks)
  7: 0x0095 [0x32] ExtData[1]->MainSpeed = 40* * 0.1
  8: 0x0098 [0x1F] MOVE_ENTITY: EventEntity moves to X=-383.787*, Z=275.017*, Y=0.760*
  9: 0x00A0 [0x1F] MOVE_ENTITY: Update entity position (mode=1)
 10: 0x00A2 [0x6F] WAIT_FRAME_DELAY: Yield until WaitTime reaches zero
 11: 0x00A3 [0x6C] FADE_ENTITY_COLOR(entity_id=EventEntity, end_alpha=0*, fade_time=30*)
 12: 0x00AC [0x00] END_REQSTACK()
```
