# 17760284 - Satata

## Common Data

| Field            | Value                   |
|------------------|-------------------------|
| Zone             | Port Windurst (ID: 240) |
| Block Size       | 120 bytes               |
| Total Events     | 4                       |
| References Count | 3                       |

## List of Events

| Event ID                 | Entrypoint   |   Size |   Instructions |
|--------------------------|--------------|--------|----------------|
| [65535](#event-65535)    | 0x0000       |      1 |              1 |
| [65535.1](#event-655351) | 0x0001       |     29 |              4 |
| [65535.2](#event-655352) | 0x001E       |     10 |              3 |
| [235](#event-235)        | 0x0028       |     33 |             12 |

## DAT References (imed_data)

|   Index | Hex Value   |   Dec Value |
|---------|-------------|-------------|
|       0 | 0x0384      |         900 |
|       1 | 0x0E52      |        3666 |
|       2 | 0x0E53      |        3667 |

## String References

- **3666**: Aa\`ah. No mattaru how much I practice every day my magic powers just don't seem to be improving. You'd think magic would improve like magic, wouldn'taru?
- **3667**: Why, this is just the same as practaruicing fencing or archery! Was magic meant to be like this?

## Events

### Event 65535

#### Metadata

| Field        | Value   |
|--------------|---------|
| Entrypoint   | 0x0000  |
| Data Size    | 1 bytes |
| Instructions | 1       |

```
      00 01 02 03 04 05 06 07  08 09 0A 0B 0C 0D 0E 0F
      -- -- -- -- -- -- -- --  -- -- -- -- -- -- -- --
0000: 00                                                .               
```

#### Opcodes

```
  0: 0x0000 [0x00] END_REQSTACK()
```

### Event 65535.1

#### Metadata

| Field        | Value    |
|--------------|----------|
| Entrypoint   | 0x0001   |
| Data Size    | 29 bytes |
| Instructions | 4        |

```
      00 01 02 03 04 05 06 07  08 09 0A 0B 0C 0D 0E 0F
      -- -- -- -- -- -- -- --  -- -- -- -- -- -- -- --
0000:    5F 01 50 F8 FF FF 7F  F8 FF FF 7F 63 61 62 6B   _.P........cabk
0010: 50 F8 FF FF 7F F8 FF FF  7F 73 68 62 6B 00        P........shbk.  
```

#### Opcodes

```
  0: 0x0001 [0x5F] MULTI_HANDLER_COMPLEX(mode=0x01 - Toggle Render.Flags0 bit 29)
  1: 0x0003 [0x50] END_SCHEDULER_TASK: End scheduler "ca" with entities [0xFFF8, 0xFFF8], work=[32767, 32767]
  2: 0x0010 [0x50] END_SCHEDULER_TASK: End scheduler "sh" with entities [0xFFF8, 0xFFF8], work=[32767, 32767]
  3: 0x001D [0x00] END_REQSTACK()
```

### Event 65535.2

#### Metadata

| Field        | Value    |
|--------------|----------|
| Entrypoint   | 0x001E   |
| Data Size    | 10 bytes |
| Instructions | 3        |

```
      00 01 02 03 04 05 06 07  08 09 0A 0B 0C 0D 0E 0F
      -- -- -- -- -- -- -- --  -- -- -- -- -- -- -- --
0010:                                            5F 00                _.
0020: 4B 1C 00 0F 01 00 80 00                           K.......        
```

#### Opcodes

```
  0: 0x001E [0x5F] MULTI_HANDLER_COMPLEX(mode=0x00 - Toggle Render.Flags0 bit 29)
  1: 0x0020 [0x4B] UPDATE_ENTITY_YAW(entity=Satata (ID: 17760284/0x010F001C), yaw=4.9°*)
  2: 0x0027 [0x00] END_REQSTACK()
```

### Event 235

#### Metadata

| Field        | Value    |
|--------------|----------|
| Entrypoint   | 0x0028   |
| Data Size    | 33 bytes |
| Instructions | 12       |

```
      00 01 02 03 04 05 06 07  08 09 0A 0B 0C 0D 0E 0F
      -- -- -- -- -- -- -- --  -- -- -- -- -- -- -- --
0020:                          29 08 1C 00 0F 01 01 1E          ).......
0030: F0 FF FF 7F 6F 70 1D 01  80 23 1D 02 80 23 29 08  ....op...#...#).
0040: 1C 00 0F 01 02 20 00 21  00                       ..... .!.       
```

#### Opcodes

```
  0: 0x0028 [0x29] REQ_SET_WAIT(priority=0x08, entity_id=Satata (ID: 17760284/0x010F001C), tag_num=0x01)
  1: 0x002F [0x1E] EventEntity looks at LocalPlayer and starts talking
  2: 0x0034 [0x6F] WAIT_FRAME_DELAY: Yield until WaitTime reaches zero
  3: 0x0035 [0x70] WAIT_ENTITY_RENDER_FLAG: Wait while EventEntity->Render.Flags3 bit 2 is set (cancel turn if not)
  4: 0x0036 [0x1D] PRINT_EVENT_MESSAGE(message_id=3666*)
    → "Aa`ah. No mattaru how much I practice every day my magic powers just don't seem to be improving. You'd think magic would improve like magic, wouldn'taru?"
  5: 0x0039 [0x23] WAIT_FOR_DIALOG_INTERACTION
  6: 0x003A [0x1D] PRINT_EVENT_MESSAGE(message_id=3667*)
    → "Why, this is just the same as practaruicing fencing or archery! Was magic meant to be like this?"
  7: 0x003D [0x23] WAIT_FOR_DIALOG_INTERACTION
  8: 0x003E [0x29] REQ_SET_WAIT(priority=0x08, entity_id=Satata (ID: 17760284/0x010F001C), tag_num=0x02)
  9: 0x0045 [0x20] SET_CLI_EVENT_UC_FLAG: Unlock player control
 10: 0x0047 [0x21] END_EVENT
 11: 0x0048 [0x00] END_REQSTACK()
```
