# 17760503

## Common Data

| Field            | Value                   |
|------------------|-------------------------|
| Zone             | Port Windurst (ID: 240) |
| Block Size       | 6452 bytes              |
| Total Events     | 6                       |
| References Count | 108                     |

## List of Events

| Event ID              | Entrypoint   |   Size |   Instructions |
|-----------------------|--------------|--------|----------------|
| [65535](#event-65535) | 0x0000       |    658 |             62 |
| [887](#event-887)     | 0x0292       |   1295 |            180 |
| [893](#event-893)     | 0x07A1       |     34 |              8 |
| [888](#event-888)     | 0x07C3       |    110 |             22 |
| [889](#event-889)     | 0x0831       |   3730 |            554 |
| [890](#event-890)     | 0x16C3       |    153 |             30 |

## DAT References (imed_data)

|   Index | Hex Value   |   Dec Value |
|---------|-------------|-------------|
|       0 | 0x00C8      |         200 |
|       1 | 0x0000      |           0 |
|       2 | 0x00C9      |         201 |
|       3 | 0x0001      |           1 |
|       4 | 0x002D      |          45 |
|       5 | 0x0002      |           2 |
|       6 | 0x001E      |          30 |
|       7 | 0x00D7      |         215 |
|       8 | 0x00A2      |         162 |
|       9 | 0x019B      |         411 |
|      10 | 0x0013      |          19 |
|      11 | 0xFFFE5E29  |  4294860329 |
|      12 | 0x16A4D     |       92749 |
|      13 | 0xFFFFEF67  |  4294963047 |
|      14 | 0x0A50      |        2640 |
|      15 | 0xFFFE59C8  |  4294859208 |
|      16 | 0x1710A     |       94474 |
|      17 | 0x0279      |         633 |
|      18 | 0x0028      |          40 |
|      19 | 0x0264      |         612 |
|      20 | 0x0078      |         120 |
|      21 | 0x3F1D      |       16157 |
|      22 | 0x3F1C      |       16156 |
|      23 | 0x00B4      |         180 |
|      24 | 0x0082      |         130 |
|      25 | 0x3F12      |       16146 |
|      26 | 0x3F13      |       16147 |
|      27 | 0x3F14      |       16148 |
|      28 | 0x001D      |          29 |
|      29 | 0x3F15      |       16149 |
|      30 | 0x3F16      |       16150 |
|      31 | 0x3F17      |       16151 |
|      32 | 0x0007      |           7 |
|      33 | 0x0014      |          20 |
|      34 | 0x000F      |          15 |
|      35 | 0x3F18      |       16152 |
|      36 | 0x3F19      |       16153 |
|      37 | 0x00BD      |         189 |
|      38 | 0x3F1A      |       16154 |
|      39 | 0x3F1E      |       16158 |
|      40 | 0x3F1F      |       16159 |
|      41 | 0x000A      |          10 |
|      42 | 0x3F20      |       16160 |
|      43 | 0x3F21      |       16161 |
|      44 | 0x3F22      |       16162 |
|      45 | 0x3F23      |       16163 |
|      46 | 0x3F24      |       16164 |
|      47 | 0x3F25      |       16165 |
|      48 | 0x3F26      |       16166 |
|      49 | 0x3F27      |       16167 |
|      50 | 0x0046      |          70 |
|      51 | 0x0097      |         151 |
|      52 | 0x3F1B      |       16155 |
|      53 | 0x3F2B      |       16171 |
|      54 | 0xFFFE5339  |  4294857529 |
|      55 | 0x172CB     |       94923 |
|      56 | 0xFFFFEF66  |  4294963046 |
|      57 | 0x00E5      |         229 |
|      58 | 0x3F28      |       16168 |
|      59 | 0x3F29      |       16169 |
|      60 | 0x3F2A      |       16170 |
|      61 | 0x0037      |          55 |
|      62 | 0x0072      |         114 |
|      63 | 0x3F2C      |       16172 |
|      64 | 0x3F2D      |       16173 |
|      65 | 0x003C      |          60 |
|      66 | 0x0088      |         136 |
|      67 | 0x3F2E      |       16174 |
|      68 | 0x0003      |           3 |
|      69 | 0x007F      |         127 |
|      70 | 0x0009      |           9 |
|      71 | 0x0008      |           8 |
|      72 | 0x006F      |         111 |
|      73 | 0x004F      |          79 |
|      74 | 0x0006      |           6 |
|      75 | 0x001F      |          31 |
|      76 | 0x0005      |           5 |
|      77 | 0x0004      |           4 |
|      78 | 0x3F33      |       16179 |
|      79 | 0x03E7      |         999 |
|      80 | 0x3F50      |       16208 |
|      81 | 0x0096      |         150 |
|      82 | 0x3F36      |       16182 |
|      83 | 0x3F3B      |       16187 |
|      84 | 0x3F3C      |       16188 |
|      85 | 0x3F3D      |       16189 |
|      86 | 0x0023      |          35 |
|      87 | 0x3F3E      |       16190 |
|      88 | 0x3F3F      |       16191 |
|      89 | 0x3F40      |       16192 |
|      90 | 0x3F41      |       16193 |
|      91 | 0x005A      |          90 |
|      92 | 0x3F2F      |       16175 |
|      93 | 0x3F4D      |       16205 |
|      94 | 0x3F34      |       16180 |
|      95 | 0x3F30      |       16176 |
|      96 | 0x3F32      |       16178 |
|      97 | 0x3F4E      |       16206 |
|      98 | 0x3F31      |       16177 |
|      99 | 0x3F4F      |       16207 |
|     100 | 0x3F35      |       16181 |
|     101 | 0x3F37      |       16183 |
|     102 | 0x3F39      |       16185 |
|     103 | 0x3F38      |       16184 |
|     104 | 0x010E      |         270 |
|     105 | 0x012C      |         300 |
|     106 | 0x3F3A      |       16186 |
|     107 | 0x0262      |         610 |

## String References

- **16180**: Choose a rune! [Ignis./Gelus./Flabra./Tellus./Sulpor./Unda./Lux./Tenebrae.]
- **16181**: Choose the appropriate ward! [Vallation./Pflug./Valiance./Liemont.]
- **16182**: What number question is this? [Five./Six./Seven./Eight./Nine./Ten.]
- **16205**: [Unda/Ignis/Gelus/Flabra/Tellus/Sulpor/Tenebrae/Lux]
- **16206**: [Ignis/Gelus/Flabra/Tellus/Sulpor/Unda/Lux/Tenebrae]
- **16207**: [Vallation or Valiance/Pflug/Liemont]
- **16208**: [./././././5/6/7/8/9/10]

## Events

### Event 65535

#### Metadata

| Field        | Value     |
|--------------|-----------|
| Entrypoint   | 0x0000    |
| Data Size    | 658 bytes |
| Instructions | 1         |

```
      00 01 02 03 04 05 06 07  08 09 0A 0B 0C 0D 0E 0F
      -- -- -- -- -- -- -- --  -- -- -- -- -- -- -- --
0000: 00 45 00 80 F0 FF FF 7F  F0 FF FF 7F 66 64 69 30  .E..........fdi0
0010: 01 80 55 00 80 F0 FF FF  7F F0 FF FF 7F 66 64 69  ..U..........fdi
0020: 30 1B 45 00 80 F0 FF FF  7F F0 FF FF 7F 66 64 6F  0.E..........fdo
0030: 30 01 80 55 00 80 F0 FF  FF 7F F0 FF FF 7F 66 64  0..U..........fd
0040: 6F 30 1B 45 00 80 F0 FF  FF 7F F0 FF FF 7F 66 64  o0.E..........fd
0050: 69 31 01 80 55 00 80 F0  FF FF 7F F0 FF FF 7F 66  i1..U..........f
0060: 64 69 31 1B 45 00 80 F0  FF FF 7F F0 FF FF 7F 66  di1.E..........f
0070: 64 6F 31 01 80 55 00 80  F0 FF FF 7F F0 FF FF 7F  do1..U..........
0080: 66 64 6F 31 1B 45 02 80  F0 FF FF 7F F0 FF FF 7F  fdo1.E..........
0090: 77 68 69 31 01 80 55 02  80 F0 FF FF 7F F0 FF FF  whi1..U.........
00A0: 7F 77 68 69 31 1B 45 02  80 F0 FF FF 7F F0 FF FF  .whi1.E.........
00B0: 7F 77 68 6F 31 01 80 55  02 80 F0 FF FF 7F F0 FF  .who1..U........
00C0: FF 7F 77 68 6F 31 1B 45  02 80 F0 FF FF 7F F0 FF  ..who1.E........
00D0: FF 7F 77 68 6F 32 01 80  55 02 80 F0 FF FF 7F F0  ..who2..U.......
00E0: FF FF 7F 77 68 6F 32 1B  45 02 80 F0 FF FF 7F F0  ...who2.E.......
00F0: FF FF 7F 77 68 6F 33 01  80 55 02 80 F0 FF FF 7F  ...who3..U......
0100: F0 FF FF 7F 77 68 6F 33  1B 62 03 80 F0 FF FF 7F  ....who3.b......
0110: F0 FF FF 7F 6D 61 69 6E  01 80 1C 04 80 45 00 80  ....main.....E..
0120: F0 FF FF 7F F0 FF FF 7F  66 64 6F 31 01 80 55 00  ........fdo1..U.
0130: 80 F0 FF FF 7F F0 FF FF  7F 66 64 6F 31 1B 45 00  .........fdo1.E.
0140: 80 F0 FF FF 7F F0 FF FF  7F 66 64 69 31 01 80 62  .........fdi1..b
0150: 05 80 F0 FF FF 7F F0 FF  FF 7F 6D 61 69 6E 01 80  ..........main..
0160: 1C 06 80 55 00 80 F0 FF  FF 7F F0 FF FF 7F 66 64  ...U..........fd
0170: 69 31 1B 45 00 80 F0 FF  FF 7F F0 FF FF 7F 62 6C  i1.E..........bl
0180: 6F 6E 01 80 45 02 80 F0  FF FF 7F F0 FF FF 7F 62  on..E..........b
0190: 6C 6F 6E 01 80 1B 45 02  80 F0 FF FF 7F F0 FF FF  lon...E.........
01A0: 7F 77 68 69 30 01 80 55  02 80 F0 FF FF 7F F0 FF  .whi0..U........
01B0: FF 7F 77 68 69 30 1B 45  02 80 F0 FF FF 7F F0 FF  ..whi0.E........
01C0: FF 7F 77 68 6F 30 01 80  55 02 80 F0 FF FF 7F F0  ..who0..U.......
01D0: FF FF 7F 77 68 6F 30 1B  45 07 80 F0 FF FF 7F F0  ...who0.E.......
01E0: FF FF 7F 65 66 6F 6E 01  80 55 07 80 F0 FF FF 7F  ...efon..U......
01F0: F0 FF FF 7F 65 66 6F 6E  1B 45 00 80 F0 FF FF 7F  ....efon.E......
0200: F0 FF FF 7F 66 64 69 73  01 80 1B 45 00 80 F0 FF  ....fdis...E....
0210: FF 7F F0 FF FF 7F 66 64  6F 73 01 80 55 00 80 F0  ......fdos..U...
0220: FF FF 7F F0 FF FF 7F 66  64 6F 73 1B 45 00 80 F0  .......fdos.E...
0230: FF FF 7F F0 FF FF 7F 66  64 69 66 01 80 1B 45 00  .......fdif...E.
0240: 80 F0 FF FF 7F F0 FF FF  7F 66 64 6F 66 01 80 55  .........fdof..U
0250: 00 80 F0 FF FF 7F F0 FF  FF 7F 66 64 6F 66 1B 45  ..........fdof.E
0260: 00 80 F0 FF FF 7F F0 FF  FF 7F 66 64 69 70 01 80  ..........fdip..
0270: 1B 45 00 80 F0 FF FF 7F  F0 FF FF 7F 66 64 6F 70  .E..........fdop
0280: 01 80 55 00 80 F0 FF FF  7F F0 FF FF 7F 66 64 6F  ..U..........fdo
0290: 70 1B                                             p.              
```

#### Opcodes

```
  0: 0x0000 [0x00] END_REQSTACK()
```

#### Data or dead code:

```
# Dead code (unreachable instructions):
     0x0001 [0x45] LOAD_SCHEDULED_TASK: Load scheduler "fdi0" with entities [LocalPlayer, LocalPlayer], work=[200*, 0*]
     0x0012 [0x55] WAIT_LOAD_SCHEDULER: Wait for scheduler "fdi0" with entities [LocalPlayer, LocalPlayer], work=200*
     0x0021 [0x1B] RETURN
     0x0022 [0x45] LOAD_SCHEDULED_TASK: Load scheduler "fdo0" with entities [LocalPlayer, LocalPlayer], work=[200*, 0*]
     0x0033 [0x55] WAIT_LOAD_SCHEDULER: Wait for scheduler "fdo0" with entities [LocalPlayer, LocalPlayer], work=200*
     0x0042 [0x1B] RETURN
     0x0043 [0x45] LOAD_SCHEDULED_TASK: Load scheduler "fdi1" with entities [LocalPlayer, LocalPlayer], work=[200*, 0*]
     0x0054 [0x55] WAIT_LOAD_SCHEDULER: Wait for scheduler "fdi1" with entities [LocalPlayer, LocalPlayer], work=200*
     0x0063 [0x1B] RETURN
     0x0064 [0x45] LOAD_SCHEDULED_TASK: Load scheduler "fdo1" with entities [LocalPlayer, LocalPlayer], work=[200*, 0*]
     0x0075 [0x55] WAIT_LOAD_SCHEDULER: Wait for scheduler "fdo1" with entities [LocalPlayer, LocalPlayer], work=200*
     0x0084 [0x1B] RETURN
     0x0085 [0x45] LOAD_SCHEDULED_TASK: Load scheduler "whi1" with entities [LocalPlayer, LocalPlayer], work=[201*, 0*]
     0x0096 [0x55] WAIT_LOAD_SCHEDULER: Wait for scheduler "whi1" with entities [LocalPlayer, LocalPlayer], work=201*
     0x00A5 [0x1B] RETURN
     0x00A6 [0x45] LOAD_SCHEDULED_TASK: Load scheduler "who1" with entities [LocalPlayer, LocalPlayer], work=[201*, 0*]
     0x00B7 [0x55] WAIT_LOAD_SCHEDULER: Wait for scheduler "who1" with entities [LocalPlayer, LocalPlayer], work=201*
     0x00C6 [0x1B] RETURN
     0x00C7 [0x45] LOAD_SCHEDULED_TASK: Load scheduler "who2" with entities [LocalPlayer, LocalPlayer], work=[201*, 0*]
     0x00D8 [0x55] WAIT_LOAD_SCHEDULER: Wait for scheduler "who2" with entities [LocalPlayer, LocalPlayer], work=201*
     0x00E7 [0x1B] RETURN
     0x00E8 [0x45] LOAD_SCHEDULED_TASK: Load scheduler "who3" with entities [LocalPlayer, LocalPlayer], work=[201*, 0*]
     0x00F9 [0x55] WAIT_LOAD_SCHEDULER: Wait for scheduler "who3" with entities [LocalPlayer, LocalPlayer], work=201*
     0x0108 [0x1B] RETURN
     0x0109 [0x62] LOAD_EVENT_SCHEDULER: Load scheduler "main" with entities [LocalPlayer, LocalPlayer], work=[1*, 0*]
     0x011A [0x1C] WAIT(45* ticks)
     0x011D [0x45] LOAD_SCHEDULED_TASK: Load scheduler "fdo1" with entities [LocalPlayer, LocalPlayer], work=[200*, 0*]
     0x012E [0x55] WAIT_LOAD_SCHEDULER: Wait for scheduler "fdo1" with entities [LocalPlayer, LocalPlayer], work=200*
     0x013D [0x1B] RETURN
     0x013E [0x45] LOAD_SCHEDULED_TASK: Load scheduler "fdi1" with entities [LocalPlayer, LocalPlayer], work=[200*, 0*]
     0x014F [0x62] LOAD_EVENT_SCHEDULER: Load scheduler "main" with entities [LocalPlayer, LocalPlayer], work=[2*, 0*]
     0x0160 [0x1C] WAIT(30* ticks)
     0x0163 [0x55] WAIT_LOAD_SCHEDULER: Wait for scheduler "fdi1" with entities [LocalPlayer, LocalPlayer], work=200*
     0x0172 [0x1B] RETURN
     0x0173 [0x45] LOAD_SCHEDULED_TASK: Load scheduler "blon" with entities [LocalPlayer, LocalPlayer], work=[200*, 0*]
     0x0184 [0x45] LOAD_SCHEDULED_TASK: Load scheduler "blon" with entities [LocalPlayer, LocalPlayer], work=[201*, 0*]
     0x0195 [0x1B] RETURN
     0x0196 [0x45] LOAD_SCHEDULED_TASK: Load scheduler "whi0" with entities [LocalPlayer, LocalPlayer], work=[201*, 0*]
     0x01A7 [0x55] WAIT_LOAD_SCHEDULER: Wait for scheduler "whi0" with entities [LocalPlayer, LocalPlayer], work=201*
     0x01B6 [0x1B] RETURN
     0x01B7 [0x45] LOAD_SCHEDULED_TASK: Load scheduler "who0" with entities [LocalPlayer, LocalPlayer], work=[201*, 0*]
     0x01C8 [0x55] WAIT_LOAD_SCHEDULER: Wait for scheduler "who0" with entities [LocalPlayer, LocalPlayer], work=201*
     0x01D7 [0x1B] RETURN
     0x01D8 [0x45] LOAD_SCHEDULED_TASK: Load scheduler "efon" with entities [LocalPlayer, LocalPlayer], work=[215*, 0*]
     0x01E9 [0x55] WAIT_LOAD_SCHEDULER: Wait for scheduler "efon" with entities [LocalPlayer, LocalPlayer], work=215*
     0x01F8 [0x1B] RETURN
     0x01F9 [0x45] LOAD_SCHEDULED_TASK: Load scheduler "fdis" with entities [LocalPlayer, LocalPlayer], work=[200*, 0*]
     0x020A [0x1B] RETURN
     0x020B [0x45] LOAD_SCHEDULED_TASK: Load scheduler "fdos" with entities [LocalPlayer, LocalPlayer], work=[200*, 0*]
     0x021C [0x55] WAIT_LOAD_SCHEDULER: Wait for scheduler "fdos" with entities [LocalPlayer, LocalPlayer], work=200*
     0x022B [0x1B] RETURN
     0x022C [0x45] LOAD_SCHEDULED_TASK: Load scheduler "fdif" with entities [LocalPlayer, LocalPlayer], work=[200*, 0*]
     0x023D [0x1B] RETURN
     0x023E [0x45] LOAD_SCHEDULED_TASK: Load scheduler "fdof" with entities [LocalPlayer, LocalPlayer], work=[200*, 0*]
     0x024F [0x55] WAIT_LOAD_SCHEDULER: Wait for scheduler "fdof" with entities [LocalPlayer, LocalPlayer], work=200*
     0x025E [0x1B] RETURN
     0x025F [0x45] LOAD_SCHEDULED_TASK: Load scheduler "fdip" with entities [LocalPlayer, LocalPlayer], work=[200*, 0*]
     0x0270 [0x1B] RETURN
     0x0271 [0x45] LOAD_SCHEDULED_TASK: Load scheduler "fdop" with entities [LocalPlayer, LocalPlayer], work=[200*, 0*]
     0x0282 [0x55] WAIT_LOAD_SCHEDULER: Wait for scheduler "fdop" with entities [LocalPlayer, LocalPlayer], work=200*
     0x0291 [0x1B] RETURN
```

### Event 887

#### Metadata

| Field        | Value      |
|--------------|------------|
| Entrypoint   | 0x0292     |
| Data Size    | 1295 bytes |
| Instructions | 154        |

```
      00 01 02 03 04 05 06 07  08 09 0A 0B 0C 0D 0E 0F
      -- -- -- -- -- -- -- --  -- -- -- -- -- -- -- --
0290:       03 01 00 02 10 03  02 00 08 10 03 03 00 07    ..............
02A0: 10 42 1A 64 00 46 01 5C  00 08 80 5C 01 08 80 9A  .B.d.F.\...\....
02B0: 75 00 09 80 75 01 38 0A  80 92 01 18 00 0F 01 94  u...u.8.........
02C0: 01 18 00 0F 01 BA 18 00  0F 01 0B 80 0C 80 0D 80  ................
02D0: 0E 80 BA F0 FF FF 7F 0F  80 10 80 0D 80 11 80 66  ...............f
02E0: 12 80 18 00 0F 01 18 00  0F 01 30 00 20 8B 4A 18  ..........0. .J.
02F0: 00 0F 01 F0 FF FF 7F 4A  F0 FF FF 7F 18 00 0F 01  .......J........
0300: 80 F0 FF FF 7F 80 18 00  0F 01 02 01 00 03 80 00  ................
0310: 26 03 45 13 80 F0 FF FF  7F F0 FF FF 7F 73 30 38  &.E..........s08
0320: 35 01 80 01 37 03 45 13  80 F0 FF FF 7F F0 FF FF  5...7.E.........
0330: 7F 73 30 31 30 01 80 1A  43 00 06 01 10 02 01 00  .s010...C.......
0340: 03 80 00 DD 03 1C 14 80  52 13 80 F0 FF FF 7F F0  ........R.......
0350: FF FF 7F 73 30 38 35 45  13 80 F0 FF FF 7F F0 FF  ...s085E........
0360: FF 7F 73 30 38 36 01 80  02 03 00 03 80 00 8D 03  ..s086..........
0370: 66 12 80 18 00 0F 01 18  00 0F 01 73 79 75 30 2B  f..........syu0+
0380: 18 00 0F 01 15 80 23 1C  06 80 01 C8 03 7B 18 00  ......#......{..
0390: 0F 01 66 12 80 18 00 0F  01 18 00 0F 01 74 68 6B  ..f..........thk
03A0: 31 2B 18 00 0F 01 16 80  23 1C 06 80 66 12 80 18  1+......#...f...
03B0: 00 0F 01 18 00 0F 01 74  68 6B 32 1C 06 80 79 00  .......thk2...y.
03C0: 18 00 0F 01 F0 FF FF 7F  52 13 80 F0 FF FF 7F F0  ........R.......
03D0: FF FF 7F 73 30 38 36 01  7C 05 01 7C 05 1C 17 80  ...s086.|..|....
03E0: 27 10 F0 FF FF 7F 04 1C  18 80 2B 18 00 0F 01 19  '.........+.....
03F0: 80 23 52 13 80 F0 FF FF  7F F0 FF FF 7F 73 30 31  .#R..........s01
0400: 30 45 13 80 F0 FF FF 7F  F0 FF FF 7F 73 30 38 31  0E..........s081
0410: 01 80 02 02 00 03 80 00  4B 04 66 12 80 18 00 0F  ........K.f.....
0420: 01 18 00 0F 01 69 72 6F  30 1C 06 80 2B 18 00 0F  .....iro0...+...
0430: 01 1A 80 23 2B 18 00 0F  01 1B 80 23 6E F0 FF FF  ...#+......#n...
0440: 7F 1C 80 99 F0 FF FF 7F  01 7F 04 66 12 80 18 00  ...........f....
0450: 0F 01 18 00 0F 01 74 6C  6B 30 1C 06 80 2B 18 00  ......tlk0...+..
0460: 0F 01 1D 80 23 66 12 80  18 00 0F 01 18 00 0F 01  ....#f..........
0470: 74 6C 6B 31 1C 06 80 2B  18 00 0F 01 1E 80 23 52  tlk1...+......#R
0480: 13 80 F0 FF FF 7F F0 FF  FF 7F 73 30 38 31 45 13  ..........s081E.
0490: 80 F0 FF FF 7F F0 FF FF  7F 73 30 38 32 01 80 2B  .........s082..+
04A0: 18 00 0F 01 1F 80 23 02  02 00 03 80 00 B2 04 01  ......#.........
04B0: C1 04 6E F0 FF FF 7F 20  80 99 F0 FF FF 7F 1C 21  ..n.... .......!
04C0: 80 1C 04 80 1A 64 00 52  13 80 F0 FF FF 7F F0 FF  .....d.R........
04D0: FF 7F 73 30 38 32 1C 22  80 7B 18 00 0F 01 66 12  ..s082.".{....f.
04E0: 80 18 00 0F 01 18 00 0F  01 74 68 6B 31 53 18 00  .........thk1S..
04F0: 0F 01 18 00 0F 01 74 68  6B 31 45 13 80 F0 FF FF  ......thk1E.....
0500: 7F F0 FF FF 7F 73 30 38  33 01 80 1A 43 00 2B 18  .....s083...C.+.
0510: 00 0F 01 23 80 23 66 12  80 18 00 0F 01 18 00 0F  ...#.#f.........
0520: 01 74 68 6B 32 1C 06 80  79 00 18 00 0F 01 F0 FF  .thk2...y.......
0530: FF 7F 2B 18 00 0F 01 24  80 23 52 13 80 F0 FF FF  ..+....$.#R.....
0540: 7F F0 FF FF 7F 73 30 38  33 45 13 80 F0 FF FF 7F  .....s083E......
0550: F0 FF FF 7F 73 30 38 34  01 80 66 25 80 18 00 0F  ....s084..f%....
0560: 01 18 00 0F 01 74 6C 6B  30 2B 18 00 0F 01 26 80  .....tlk0+....&.
0570: 23 1C 06 80 03 01 10 03  80 01 44 07 1A 0E 17 02  #.........D.....
0580: 08 00 03 80 00 9B 05 45  13 80 F0 FF FF 7F F0 FF  .......E........
0590: FF 7F 73 30 38 38 01 80  01 AC 05 45 13 80 F0 FF  ..s088.....E....
05A0: FF 7F F0 FF FF 7F 73 30  38 37 01 80 2B 18 00 0F  ......s087..+...
05B0: 01 27 80 23 2B 18 00 0F  01 28 80 23 66 25 80 18  .'.#+....(.#f%..
05C0: 00 0F 01 18 00 0F 01 74  6C 6B 30 1C 29 80 52 13  .......tlk0.).R.
05D0: 80 F0 FF FF 7F F0 FF FF  7F 73 30 38 38 52 13 80  .........s088R..
05E0: F0 FF FF 7F F0 FF FF 7F  73 30 38 37 45 13 80 F0  ........s087E...
05F0: FF FF 7F F0 FF FF 7F 73  30 38 39 01 80 1C 21 80  .......s089...!.
0600: 2B 18 00 0F 01 2A 80 23  2B 18 00 0F 01 2B 80 23  +....*.#+....+.#
0610: 66 25 80 18 00 0F 01 18  00 0F 01 74 6C 6B 31 1C  f%.........tlk1.
0620: 29 80 52 13 80 F0 FF FF  7F F0 FF FF 7F 73 30 38  ).R..........s08
0630: 39 45 13 80 F0 FF FF 7F  F0 FF FF 7F 73 30 39 30  9E..........s090
0640: 01 80 1C 21 80 2B 18 00  0F 01 2C 80 23 66 12 80  ...!.+....,.#f..
0650: 18 00 0F 01 18 00 0F 01  74 6C 6B 30 1C 29 80 52  ........tlk0.).R
0660: 13 80 F0 FF FF 7F F0 FF  FF 7F 73 30 39 30 45 13  ..........s090E.
0670: 80 F0 FF FF 7F F0 FF FF  7F 73 30 39 31 01 80 1C  .........s091...
0680: 21 80 2B 18 00 0F 01 2D  80 23 2B 18 00 0F 01 2E  !.+....-.#+.....
0690: 80 23 2B 18 00 0F 01 2F  80 23 66 12 80 18 00 0F  .#+..../.#f.....
06A0: 01 18 00 0F 01 74 6C 6B  31 1C 29 80 52 13 80 F0  .....tlk1.).R...
06B0: FF FF 7F F0 FF FF 7F 73  30 39 31 45 13 80 F0 FF  .......s091E....
06C0: FF 7F F0 FF FF 7F 73 30  39 32 01 80 1C 21 80 2B  ......s092...!.+
06D0: 18 00 0F 01 30 80 23 52  13 80 F0 FF FF 7F F0 FF  ....0.#R........
06E0: FF 7F 73 30 39 32 1A 0E  17 02 08 00 03 80 00 05  ..s092..........
06F0: 07 45 13 80 F0 FF FF 7F  F0 FF FF 7F 73 30 39 34  .E..........s094
0700: 01 80 01 16 07 45 13 80  F0 FF FF 7F F0 FF FF 7F  .....E..........
0710: 73 30 39 33 01 80 2B 18  00 0F 01 31 80 23 66 12  s093..+....1.#f.
0720: 80 18 00 0F 01 18 00 0F  01 73 79 75 30 1C 21 80  .........syu0.!.
0730: 6E F0 FF FF 7F 20 80 99  F0 FF FF 7F 1C 32 80 03  n.... .......2..
0740: 01 10 05 80 1A 64 00 1C  06 80 52 13 80 F0 FF FF  .....d....R.....
0750: 7F F0 FF FF 7F 73 30 38  34 52 13 80 F0 FF FF 7F  .....s084R......
0760: F0 FF FF 7F 73 30 39 34  52 13 80 F0 FF FF 7F F0  ....s094R.......
0770: FF FF 7F 73 30 39 33 5C  00 33 80 5C 01 33 80 9A  ...s093\.3.\.3..
0780: 1C 22 80 AB 11 01 80 1C  03 80 AB 0A 46 00 45 00  ."..........F.E.
0790: 80 F0 FF FF 7F F0 FF FF  7F 66 64 69 32 01 80 21  .........fdi2..!
07A0: 00                                                .               
```

#### Opcodes

```
  0: 0x0292 [0x03] ExtData[1]->WorkLocal[1] = Work_Zone[2]
  1: 0x0297 [0x03] ExtData[1]->WorkLocal[2] = Work_Zone[8]
  2: 0x029C [0x03] ExtData[1]->WorkLocal[3] = Work_Zone[7]
  3: 0x02A1 [0x42] SET_CLI_EVENT_CANCEL_DATA()
  4: 0x02A2 [0x1A] CALL_SUBROUTINE(address=0x0064)
  5: 0x02A5 [0x46] CAMERA_CONTROL: Disable user control
  6: 0x02A7 [0x5C] MUSIC_CONTROL: Set Idle (Day) music to song 162*
  7: 0x02AB [0x5C] MUSIC_CONTROL: Set Idle (Night) music to song 162*
  8: 0x02AF [0x9A] WAIT_MUSIC_SERVER()
  9: 0x02B0 [0x75] LOAD_ROOM(Load indoor room, room=411*)
 10: 0x02B4 [0x75] LOAD_ROOM(No action)
 11: 0x02B6 [0x38] SET_CLIENT_EVENT_MODE(mode=19*)
 12: 0x02B9 [0x92] Ohruru (ID: 17760280/0x010F0018)->Render.Flags3 ^= 0x01
 13: 0x02BF [0x94] Ohruru (ID: 17760280/0x010F0018)->Render.Flags3 ^= 0x01
 14: 0x02C5 [0xBA] SET_ENTITY_POSITION(entity_id=Ohruru (ID: 17760280/0x010F0018), pos_x=-106.967*, pos_z=92.749*, pos_y=-4.249*, direction=232.0°*)
 15: 0x02D2 [0xBA] SET_ENTITY_POSITION(entity_id=LocalPlayer, pos_x=-108.088*, pos_z=94.474*, pos_y=-4.249*, direction=55.6°*)
 16: 0x02DF [0x66] LOAD_EXT_SCHEDULER_MAIN: Load scheduler 0x8B200030 with entities [Ohruru (ID: 17760280/0x010F0018), Ohruru (ID: 17760280/0x010F0018)], work=40*
 17: 0x02EE [0x4A] Ohruru (ID: 17760280/0x010F0018) looks at LocalPlayer
 18: 0x02F7 [0x4A] LocalPlayer looks at Ohruru (ID: 17760280/0x010F0018)
 19: 0x0300 [0x80] LOAD_WAIT(entity=LocalPlayer)
 20: 0x0305 [0x80] LOAD_WAIT(entity=Ohruru (ID: 17760280/0x010F0018))
 21: 0x030A [0x02] IF !(ExtData[1]->WorkLocal[1] == 1*) GOTO 0x0326
 22: 0x0312 [0x45] LOAD_SCHEDULED_TASK: Load scheduler "s085" with entities [LocalPlayer, LocalPlayer], work=[612*, 0*]
 23: 0x0323 [0x01] GOTO 0x0337
 24: 0x0326 [0x45] LOAD_SCHEDULED_TASK: Load scheduler "s010" with entities [LocalPlayer, LocalPlayer], work=[612*, 0*]

SUBROUTINE_0337:
 25: 0x0337 [0x1A] CALL_SUBROUTINE(address=0x0043)
 26: 0x033A [0x06] Work_Zone[1] = 0
 27: 0x033D [0x02] IF !(ExtData[1]->WorkLocal[1] == 1*) GOTO 0x03DD
 28: 0x0345 [0x1C] WAIT(120* ticks)
 29: 0x0348 [0x52] END_LOAD_SCHEDULER: End scheduler "s085" with entities [LocalPlayer, LocalPlayer], work=612*
 30: 0x0357 [0x45] LOAD_SCHEDULED_TASK: Load scheduler "s086" with entities [LocalPlayer, LocalPlayer], work=[612*, 0*]
 31: 0x0368 [0x02] IF !(ExtData[1]->WorkLocal[3] == 1*) GOTO 0x038D
 32: 0x0370 [0x66] LOAD_EXT_SCHEDULER_MAIN: Load scheduler "syu0" with entities [Ohruru (ID: 17760280/0x010F0018), Ohruru (ID: 17760280/0x010F0018)], work=40*
 33: 0x037F [0x2B] Ohruru (ID: 17760280/0x010F0018) [16157*]:
    → "Yes, that's exactaruly what I wanted to see!"
 34: 0x0386 [0x23] WAIT_FOR_DIALOG_INTERACTION
 35: 0x0387 [0x1C] WAIT(30* ticks)
 36: 0x038A [0x01] GOTO 0x03C8
 37: 0x038D [0x7B] Ohruru (ID: 17760280/0x010F0018) stops talking
 38: 0x0392 [0x66] LOAD_EXT_SCHEDULER_MAIN: Load scheduler "thk1" with entities [Ohruru (ID: 17760280/0x010F0018), Ohruru (ID: 17760280/0x010F0018)], work=40*
 39: 0x03A1 [0x2B] Ohruru (ID: 17760280/0x010F0018) [16156*]:
    → "I take it you had to try a hundred times to engrave your firstaru rune? Because that's not Ignis. At least it's a rune, though-though-though."
 40: 0x03A8 [0x23] WAIT_FOR_DIALOG_INTERACTION
 41: 0x03A9 [0x1C] WAIT(30* ticks)
 42: 0x03AC [0x66] LOAD_EXT_SCHEDULER_MAIN: Load scheduler "thk2" with entities [Ohruru (ID: 17760280/0x010F0018), Ohruru (ID: 17760280/0x010F0018)], work=40*
 43: 0x03BB [0x1C] WAIT(30* ticks)
 44: 0x03BE [0x79] Ohruru (ID: 17760280/0x010F0018) looks at LocalPlayer (Basic look)

SUBROUTINE_03C8:
 45: 0x03C8 [0x52] END_LOAD_SCHEDULER: End scheduler "s086" with entities [LocalPlayer, LocalPlayer], work=612*
 46: 0x03D7 [0x01] GOTO 0x057C

SUBROUTINE_047F:
 47: 0x047F [0x52] END_LOAD_SCHEDULER: End scheduler "s081" with entities [LocalPlayer, LocalPlayer], work=612*
 48: 0x048E [0x45] LOAD_SCHEDULED_TASK: Load scheduler "s082" with entities [LocalPlayer, LocalPlayer], work=[612*, 0*]
 49: 0x049F [0x2B] Ohruru (ID: 17760280/0x010F0018) [16151*]:
    → "Well, let's cut to the meat and potatoes-toes-toes. May I have a momentaru to read this?"
 50: 0x04A6 [0x23] WAIT_FOR_DIALOG_INTERACTION
 51: 0x04A7 [0x02] IF !(ExtData[1]->WorkLocal[2] == 1*) GOTO 0x04B2
 52: 0x04AF [0x01] GOTO 0x04C1
 53: 0x04B2 [0x6E] LocalPlayer uses emote 7*
 54: 0x04B9 [0x99] Wait for LocalPlayer animation to complete
 55: 0x04BE [0x1C] WAIT(20* ticks)

SUBROUTINE_04C1:
 56: 0x04C1 [0x1C] WAIT(45* ticks)
 57: 0x04C4 [0x1A] CALL_SUBROUTINE(address=0x0064)
 58: 0x04C7 [0x52] END_LOAD_SCHEDULER: End scheduler "s082" with entities [LocalPlayer, LocalPlayer], work=612*
 59: 0x04D6 [0x1C] WAIT(15* ticks)
 60: 0x04D9 [0x7B] Ohruru (ID: 17760280/0x010F0018) stops talking
 61: 0x04DE [0x66] LOAD_EXT_SCHEDULER_MAIN: Load scheduler "thk1" with entities [Ohruru (ID: 17760280/0x010F0018), Ohruru (ID: 17760280/0x010F0018)], work=40*
 62: 0x04ED [0x53] WAIT_SCHEDULER_TASK: Wait for scheduler "thk1" with entities [Ohruru (ID: 17760280/0x010F0018), Ohruru (ID: 17760280/0x010F0018)]
 63: 0x04FA [0x45] LOAD_SCHEDULED_TASK: Load scheduler "s083" with entities [LocalPlayer, LocalPlayer], work=[612*, 0*]
 64: 0x050B [0x1A] CALL_SUBROUTINE(address=0x0043)
 65: 0x050E [0x2B] Ohruru (ID: 17760280/0x010F0018) [16152*]:
    → "Hmmm... You should note that my expertise is status ailmentarus, not mysterious devices or runes-runes-runes."
 66: 0x0515 [0x23] WAIT_FOR_DIALOG_INTERACTION
 67: 0x0516 [0x66] LOAD_EXT_SCHEDULER_MAIN: Load scheduler "thk2" with entities [Ohruru (ID: 17760280/0x010F0018), Ohruru (ID: 17760280/0x010F0018)], work=40*
 68: 0x0525 [0x1C] WAIT(30* ticks)
 69: 0x0528 [0x79] Ohruru (ID: 17760280/0x010F0018) looks at LocalPlayer (Basic look)
 70: 0x0532 [0x2B] Ohruru (ID: 17760280/0x010F0018) [16153*]:
    → "Still, I think I know what the issue-wissue is."
 71: 0x0539 [0x23] WAIT_FOR_DIALOG_INTERACTION
 72: 0x053A [0x52] END_LOAD_SCHEDULER: End scheduler "s083" with entities [LocalPlayer, LocalPlayer], work=612*
 73: 0x0549 [0x45] LOAD_SCHEDULED_TASK: Load scheduler "s084" with entities [LocalPlayer, LocalPlayer], work=[612*, 0*]
 74: 0x055A [0x66] LOAD_EXT_SCHEDULER_MAIN: Load scheduler "tlk0" with entities [Ohruru (ID: 17760280/0x010F0018), Ohruru (ID: 17760280/0x010F0018)], work=189*
 75: 0x0569 [0x2B] Ohruru (ID: 17760280/0x010F0018) [16154*]:
    → "...But first, you can use runes, rightaru? Try talking to me after you unleash the power of Ignis-nis-nis."
 76: 0x0570 [0x23] WAIT_FOR_DIALOG_INTERACTION
 77: 0x0571 [0x1C] WAIT(30* ticks)
 78: 0x0574 [0x03] Work_Zone[1] = 1*
 79: 0x0579 [0x01] GOTO 0x0744

SUBROUTINE_057C:
 80: 0x057C [0x1A] CALL_SUBROUTINE(address=0x170E)
 81: 0x057F [0x02] IF !(ExtData[1]->WorkLocal[8] == 1*) GOTO 0x059B
 82: 0x0587 [0x45] LOAD_SCHEDULED_TASK: Load scheduler "s088" with entities [LocalPlayer, LocalPlayer], work=[612*, 0*]
 83: 0x0598 [0x01] GOTO 0x05AC
 84: 0x059B [0x45] LOAD_SCHEDULED_TASK: Load scheduler "s087" with entities [LocalPlayer, LocalPlayer], work=[612*, 0*]

SUBROUTINE_05AC:
 85: 0x05AC [0x2B] Ohruru (ID: 17760280/0x010F0018) [16158*]:
    → "So, here's my idea-dea-dea. Each of those contraptions is aligned with a specific-wific elementaru..."
 86: 0x05B3 [0x23] WAIT_FOR_DIALOG_INTERACTION
 87: 0x05B4 [0x2B] Ohruru (ID: 17760280/0x010F0018) [16159*]:
    → "Therefore, perhaps you could utarulize your runic aptitude to solve this riddle-dle-dle."
 88: 0x05BB [0x23] WAIT_FOR_DIALOG_INTERACTION
 89: 0x05BC [0x66] LOAD_EXT_SCHEDULER_MAIN: Load scheduler "tlk0" with entities [Ohruru (ID: 17760280/0x010F0018), Ohruru (ID: 17760280/0x010F0018)], work=189*
 90: 0x05CB [0x1C] WAIT(10* ticks)
 91: 0x05CE [0x52] END_LOAD_SCHEDULER: End scheduler "s088" with entities [LocalPlayer, LocalPlayer], work=612*
 92: 0x05DD [0x52] END_LOAD_SCHEDULER: End scheduler "s087" with entities [LocalPlayer, LocalPlayer], work=612*
 93: 0x05EC [0x45] LOAD_SCHEDULED_TASK: Load scheduler "s089" with entities [LocalPlayer, LocalPlayer], work=[612*, 0*]
 94: 0x05FD [0x1C] WAIT(20* ticks)
 95: 0x0600 [0x2B] Ohruru (ID: 17760280/0x010F0018) [16160*]:
    → "Once you find a device, discern its elemental affiliation and activataru three opposing runes."
 96: 0x0607 [0x23] WAIT_FOR_DIALOG_INTERACTION
 97: 0x0608 [0x2B] Ohruru (ID: 17760280/0x010F0018) [16161*]:
    → "Afterwards, examine-wamine the apparatus from front to back-back-back, top to bottom, inside and outaru."
 98: 0x060F [0x23] WAIT_FOR_DIALOG_INTERACTION
 99: 0x0610 [0x66] LOAD_EXT_SCHEDULER_MAIN: Load scheduler "tlk1" with entities [Ohruru (ID: 17760280/0x010F0018), Ohruru (ID: 17760280/0x010F0018)], work=189*
100: 0x061F [0x1C] WAIT(10* ticks)
101: 0x0622 [0x52] END_LOAD_SCHEDULER: End scheduler "s089" with entities [LocalPlayer, LocalPlayer], work=612*
102: 0x0631 [0x45] LOAD_SCHEDULED_TASK: Load scheduler "s090" with entities [LocalPlayer, LocalPlayer], work=[612*, 0*]
103: 0x0642 [0x1C] WAIT(20* ticks)
104: 0x0645 [0x2B] Ohruru (ID: 17760280/0x010F0018) [16162*]:
    → "Should my assumptions prove correctaru, they should exhibit some sort of reaction."
105: 0x064C [0x23] WAIT_FOR_DIALOG_INTERACTION
106: 0x064D [0x66] LOAD_EXT_SCHEDULER_MAIN: Load scheduler "tlk0" with entities [Ohruru (ID: 17760280/0x010F0018), Ohruru (ID: 17760280/0x010F0018)], work=40*
107: 0x065C [0x1C] WAIT(10* ticks)
108: 0x065F [0x52] END_LOAD_SCHEDULER: End scheduler "s090" with entities [LocalPlayer, LocalPlayer], work=612*
109: 0x066E [0x45] LOAD_SCHEDULED_TASK: Load scheduler "s091" with entities [LocalPlayer, LocalPlayer], work=[612*, 0*]
110: 0x067F [0x1C] WAIT(20* ticks)
111: 0x0682 [0x2B] Ohruru (ID: 17760280/0x010F0018) [16163*]:
    → "Now that we've dispensed with the methodology-gy-gy, you probably want to know where these devices-wices are located. There's one in..."
112: 0x0689 [0x23] WAIT_FOR_DIALOG_INTERACTION
113: 0x068A [0x2B] Ohruru (ID: 17760280/0x010F0018) [16164*]:
    → "$7, $7, $7, $7, $7..."
114: 0x0691 [0x23] WAIT_FOR_DIALOG_INTERACTION
115: 0x0692 [0x2B] Ohruru (ID: 17760280/0x010F0018) [16165*]:
    → "$7, $7, $7, and..."
116: 0x0699 [0x23] WAIT_FOR_DIALOG_INTERACTION
117: 0x069A [0x66] LOAD_EXT_SCHEDULER_MAIN: Load scheduler "tlk1" with entities [Ohruru (ID: 17760280/0x010F0018), Ohruru (ID: 17760280/0x010F0018)], work=40*
118: 0x06A9 [0x1C] WAIT(10* ticks)
119: 0x06AC [0x52] END_LOAD_SCHEDULER: End scheduler "s091" with entities [LocalPlayer, LocalPlayer], work=612*
120: 0x06BB [0x45] LOAD_SCHEDULED_TASK: Load scheduler "s092" with entities [LocalPlayer, LocalPlayer], work=[612*, 0*]
121: 0x06CC [0x1C] WAIT(20* ticks)
122: 0x06CF [0x2B] Ohruru (ID: 17760280/0x010F0018) [16166*]:
    → "...that's all I can remember-wember. There might be some others driftaruing in the back of my mind-mind-mind, however."
123: 0x06D6 [0x23] WAIT_FOR_DIALOG_INTERACTION
124: 0x06D7 [0x52] END_LOAD_SCHEDULER: End scheduler "s092" with entities [LocalPlayer, LocalPlayer], work=612*
125: 0x06E6 [0x1A] CALL_SUBROUTINE(address=0x170E)
126: 0x06E9 [0x02] IF !(ExtData[1]->WorkLocal[8] == 1*) GOTO 0x0705
127: 0x06F1 [0x45] LOAD_SCHEDULED_TASK: Load scheduler "s094" with entities [LocalPlayer, LocalPlayer], work=[612*, 0*]
128: 0x0702 [0x01] GOTO 0x0716
129: 0x0705 [0x45] LOAD_SCHEDULED_TASK: Load scheduler "s093" with entities [LocalPlayer, LocalPlayer], work=[612*, 0*]

SUBROUTINE_0716:
130: 0x0716 [0x2B] Ohruru (ID: 17760280/0x010F0018) [16167*]:
    → "Investigate three or more-more-more, then reportaru back to me. Got it?"
131: 0x071D [0x23] WAIT_FOR_DIALOG_INTERACTION
132: 0x071E [0x66] LOAD_EXT_SCHEDULER_MAIN: Load scheduler "syu0" with entities [Ohruru (ID: 17760280/0x010F0018), Ohruru (ID: 17760280/0x010F0018)], work=40*
133: 0x072D [0x1C] WAIT(20* ticks)
134: 0x0730 [0x6E] LocalPlayer uses emote 7*
135: 0x0737 [0x99] Wait for LocalPlayer animation to complete
136: 0x073C [0x1C] WAIT(70* ticks)
137: 0x073F [0x03] Work_Zone[1] = 2*

SUBROUTINE_0744:
138: 0x0744 [0x1A] CALL_SUBROUTINE(address=0x0064)
139: 0x0747 [0x1C] WAIT(30* ticks)
140: 0x074A [0x52] END_LOAD_SCHEDULER: End scheduler "s084" with entities [LocalPlayer, LocalPlayer], work=612*
141: 0x0759 [0x52] END_LOAD_SCHEDULER: End scheduler "s094" with entities [LocalPlayer, LocalPlayer], work=612*
142: 0x0768 [0x52] END_LOAD_SCHEDULER: End scheduler "s093" with entities [LocalPlayer, LocalPlayer], work=612*
143: 0x0777 [0x5C] MUSIC_CONTROL: Set Idle (Day) music to song 151*
144: 0x077B [0x5C] MUSIC_CONTROL: Set Idle (Night) music to song 151*
145: 0x077F [0x9A] WAIT_MUSIC_SERVER()
146: 0x0780 [0x1C] WAIT(15* ticks)
147: 0x0783 [0xAB] EventEntity->DespawnValue = 0* // Set despawn value
148: 0x0787 [0x1C] WAIT(1* ticks)
149: 0x078A [0xAB] EventEntity->UnknownFlag = 0 // Disable unknown flag
150: 0x078C [0x46] CAMERA_CONTROL: Restore default settings
151: 0x078E [0x45] LOAD_SCHEDULED_TASK: Load scheduler "fdi2" with entities [LocalPlayer, LocalPlayer], work=[200*, 0*]
152: 0x079F [0x21] END_EVENT
153: 0x07A0 [0x00] END_REQSTACK()
```

#### Data or dead code:

```
# Dead code (unreachable instructions):
     0x03DA [0x01] GOTO 0x057C
```

### Event 893

#### Metadata

| Field        | Value    |
|--------------|----------|
| Entrypoint   | 0x07A1   |
| Data Size    | 34 bytes |
| Instructions | 8        |

```
      00 01 02 03 04 05 06 07  08 09 0A 0B 0C 0D 0E 0F
      -- -- -- -- -- -- -- --  -- -- -- -- -- -- -- --
07A0:    4A 18 00 0F 01 F0 FF  FF 7F 4A F0 FF FF 7F 18   J........J.....
07B0: 00 0F 01 6F 76 18 00 0F  01 2B 18 00 0F 01 34 80  ...ov....+....4.
07C0: 23 21 00                                          #!.             
```

#### Opcodes

```
  0: 0x07A1 [0x4A] Ohruru (ID: 17760280/0x010F0018) looks at LocalPlayer
  1: 0x07AA [0x4A] LocalPlayer looks at Ohruru (ID: 17760280/0x010F0018)
  2: 0x07B3 [0x6F] WAIT_FRAME_DELAY: Yield until WaitTime reaches zero
  3: 0x07B4 [0x76] CHECK_ENTITY_RENDER_FLAGS: Wait until Ohruru (ID: 17760280/0x010F0018) Render.Flags0 and Render.Flags3 conditions are met
  4: 0x07B9 [0x2B] Ohruru (ID: 17760280/0x010F0018) [16155*]:
    → "I thoughtaru you were a rune fencer-cer-cer. Or maybe you just misheard me. I said "Unleash the power of Ignis," not "Don't do a damned thing.""
  5: 0x07C0 [0x23] WAIT_FOR_DIALOG_INTERACTION
  6: 0x07C1 [0x21] END_EVENT
  7: 0x07C2 [0x00] END_REQSTACK()
```

### Event 888

#### Metadata

| Field        | Value     |
|--------------|-----------|
| Entrypoint   | 0x07C3    |
| Data Size    | 110 bytes |
| Instructions | 22        |

```
      00 01 02 03 04 05 06 07  08 09 0A 0B 0C 0D 0E 0F
      -- -- -- -- -- -- -- --  -- -- -- -- -- -- -- --
07C0:          4A 18 00 0F 01  F0 FF FF 7F 4A F0 FF FF     J........J...
07D0: 7F 18 00 0F 01 6F 76 18  00 0F 01 2B 18 00 0F 01  .....ov....+....
07E0: 2B 80 23 66 25 80 18 00  0F 01 18 00 0F 01 74 6C  +.#f%.........tl
07F0: 6B 30 1C 06 80 2B 18 00  0F 01 2D 80 23 2B 18 00  k0...+....-.#+..
0800: 0F 01 2E 80 23 2B 18 00  0F 01 2F 80 23 2B 18 00  ....#+..../.#+..
0810: 0F 01 30 80 23 66 25 80  18 00 0F 01 18 00 0F 01  ..0.#f%.........
0820: 74 6C 6B 31 1C 06 80 2B  18 00 0F 01 31 80 23 21  tlk1...+....1.#!
0830: 00                                                .               
```

#### Opcodes

```
  0: 0x07C3 [0x4A] Ohruru (ID: 17760280/0x010F0018) looks at LocalPlayer
  1: 0x07CC [0x4A] LocalPlayer looks at Ohruru (ID: 17760280/0x010F0018)
  2: 0x07D5 [0x6F] WAIT_FRAME_DELAY: Yield until WaitTime reaches zero
  3: 0x07D6 [0x76] CHECK_ENTITY_RENDER_FLAGS: Wait until Ohruru (ID: 17760280/0x010F0018) Render.Flags0 and Render.Flags3 conditions are met
  4: 0x07DB [0x2B] Ohruru (ID: 17760280/0x010F0018) [16161*]:
    → "Afterwards, examine-wamine the apparatus from front to back-back-back, top to bottom, inside and outaru."
  5: 0x07E2 [0x23] WAIT_FOR_DIALOG_INTERACTION
  6: 0x07E3 [0x66] LOAD_EXT_SCHEDULER_MAIN: Load scheduler "tlk0" with entities [Ohruru (ID: 17760280/0x010F0018), Ohruru (ID: 17760280/0x010F0018)], work=189*
  7: 0x07F2 [0x1C] WAIT(30* ticks)
  8: 0x07F5 [0x2B] Ohruru (ID: 17760280/0x010F0018) [16163*]:
    → "Now that we've dispensed with the methodology-gy-gy, you probably want to know where these devices-wices are located. There's one in..."
  9: 0x07FC [0x23] WAIT_FOR_DIALOG_INTERACTION
 10: 0x07FD [0x2B] Ohruru (ID: 17760280/0x010F0018) [16164*]:
    → "$7, $7, $7, $7, $7..."
 11: 0x0804 [0x23] WAIT_FOR_DIALOG_INTERACTION
 12: 0x0805 [0x2B] Ohruru (ID: 17760280/0x010F0018) [16165*]:
    → "$7, $7, $7, and..."
 13: 0x080C [0x23] WAIT_FOR_DIALOG_INTERACTION
 14: 0x080D [0x2B] Ohruru (ID: 17760280/0x010F0018) [16166*]:
    → "...that's all I can remember-wember. There might be some others driftaruing in the back of my mind-mind-mind, however."
 15: 0x0814 [0x23] WAIT_FOR_DIALOG_INTERACTION
 16: 0x0815 [0x66] LOAD_EXT_SCHEDULER_MAIN: Load scheduler "tlk1" with entities [Ohruru (ID: 17760280/0x010F0018), Ohruru (ID: 17760280/0x010F0018)], work=189*
 17: 0x0824 [0x1C] WAIT(30* ticks)
 18: 0x0827 [0x2B] Ohruru (ID: 17760280/0x010F0018) [16167*]:
    → "Investigate three or more-more-more, then reportaru back to me. Got it?"
 19: 0x082E [0x23] WAIT_FOR_DIALOG_INTERACTION
 20: 0x082F [0x21] END_EVENT
 21: 0x0830 [0x00] END_REQSTACK()
```

### Event 889

#### Metadata

| Field        | Value      |
|--------------|------------|
| Entrypoint   | 0x0831     |
| Data Size    | 3730 bytes |
| Instructions | 554        |

```
      00 01 02 03 04 05 06 07  08 09 0A 0B 0C 0D 0E 0F
      -- -- -- -- -- -- -- --  -- -- -- -- -- -- -- --
0830:    03 01 00 02 10 03 00  00 09 10 42 1A 64 00 46   ..........B.d.F
0840: 01 75 00 09 80 75 01 38  0A 80 92 01 18 00 0F 01  .u...u.8........
0850: 94 01 18 00 0F 01 BA 18  00 0F 01 0B 80 0C 80 0D  ................
0860: 80 0E 80 80 18 00 0F 01  02 01 00 03 80 00 73 08  ..............s.
0870: 01 76 08 01 E0 08 BA F0  FF FF 7F 0F 80 10 80 0D  .v..............
0880: 80 11 80 4A 18 00 0F 01  F0 FF FF 7F 4A F0 FF FF  ...J........J...
0890: 7F 18 00 0F 01 6F 70 6F  70 66 12 80 18 00 0F 01  .....opopf......
08A0: 18 00 0F 01 30 00 20 8B  80 18 00 0F 01 80 F0 FF  ....0. .........
08B0: FF 7F 45 13 80 F0 FF FF  7F F0 FF FF 7F 73 30 39  ..E..........s09
08C0: 38 01 80 1A 43 00 2B 18  00 0F 01 35 80 23 52 13  8...C.+....5.#R.
08D0: 80 F0 FF FF 7F F0 FF FF  7F 73 30 39 38 01 F0 09  .........s098...
08E0: BA F0 FF FF 7F 36 80 37  80 38 80 39 80 80 F0 FF  .....6.7.8.9....
08F0: FF 7F 4A 18 00 0F 01 F0  FF FF 7F 6F 70 1A 0E 17  ..J........op...
0900: 02 08 00 03 80 00 1C 09  45 13 80 F0 FF FF 7F F0  ........E.......
0910: FF FF 7F 73 30 39 36 01  80 01 2D 09 45 13 80 F0  ...s096...-.E...
0920: FF FF 7F F0 FF FF 7F 73  30 39 35 01 80 27 10 F0  .......s095..'..
0930: FF FF 7F 05 1A 43 00 2A  10 F0 FF FF 7F 4A F0 FF  .....C.*.....J..
0940: FF 7F 18 00 0F 01 6F 70  66 12 80 18 00 0F 01 18  ......opf.......
0950: 00 0F 01 74 6C 6B 30 2B  18 00 0F 01 3A 80 23 1C  ...tlk0+....:.#.
0960: 06 80 66 12 80 18 00 0F  01 18 00 0F 01 74 6C 6B  ..f..........tlk
0970: 31 2B 18 00 0F 01 3B 80  23 1C 06 80 52 13 80 F0  1+....;.#...R...
0980: FF FF 7F F0 FF FF 7F 73  30 39 35 52 13 80 F0 FF  .......s095R....
0990: FF 7F F0 FF FF 7F 73 30  39 36 45 13 80 F0 FF FF  ......s096E.....
09A0: 7F F0 FF FF 7F 73 30 39  37 01 80 66 12 80 18 00  .....s097..f....
09B0: 0F 01 18 00 0F 01 77 61  69 30 5C 00 01 80 5C 01  ......wai0\...\.
09C0: 01 80 45 00 80 F0 FF FF  7F F0 FF FF 7F 73 30 32  ..E..........s02
09D0: 39 01 80 2B 18 00 0F 01  3C 80 23 1C 3D 80 52 13  9..+....<.#.=.R.
09E0: 80 F0 FF FF 7F F0 FF FF  7F 73 30 39 37 1A ED 16  .........s097...
09F0: 45 13 80 F0 FF FF 7F F0  FF FF 7F 73 30 39 39 01  E..........s099.
0A00: 80 66 3E 80 18 00 0F 01  18 00 0F 01 70 6F 73 30  .f>.........pos0
0A10: 2B 18 00 0F 01 3F 80 23  1C 06 80 52 13 80 F0 FF  +....?.#...R....
0A20: FF 7F F0 FF FF 7F 73 30  39 39 45 13 80 F0 FF FF  ......s099E.....
0A30: 7F F0 FF FF 7F 73 31 31  38 01 80 66 12 80 18 00  .....s118..f....
0A40: 0F 01 18 00 0F 01 73 79  75 30 2B 18 00 0F 01 40  ......syu0+....@
0A50: 80 23 1C 41 80 52 13 80  F0 FF FF 7F F0 FF FF 7F  .#.A.R..........
0A60: 73 31 31 38 1A 0E 17 02  08 00 03 80 00 83 0A 45  s118...........E
0A70: 13 80 F0 FF FF 7F F0 FF  FF 7F 73 31 30 31 01 80  ..........s101..
0A80: 01 94 0A 45 13 80 F0 FF  FF 7F F0 FF FF 7F 73 31  ...E..........s1
0A90: 30 30 01 80 5C 00 42 80  5C 01 42 80 9A 2B 18 00  00..\.B.\.B..+..
0AA0: 0F 01 43 80 23 52 13 80  F0 FF FF 7F F0 FF FF 7F  ..C.#R..........
0AB0: 73 31 30 31 52 13 80 F0  FF FF 7F F0 FF FF 7F 73  s101R..........s
0AC0: 31 30 30 1C 06 80 06 04  00 06 05 00 06 45 10 06  100..........E..
0AD0: 01 10 1A A6 0E 02 05 00  03 80 00 E0 0A 05 45 10  ..............E.
0AE0: 02 45 10 01 80 00 B4 0B  13 01 00 44 80 02 01 00  .E.........D....
0AF0: 01 80 80 FB 0A 1A A6 0E  01 25 0B 02 01 00 03 80  .........%......
0B00: 80 09 0B 1A E0 0F 01 25  0B 02 01 00 05 80 80 17  .......%........
0B10: 0B 1A 54 12 01 25 0B 02  01 00 44 80 80 25 0B 1A  ..T..%....D..%..
0B20: 1A 11 01 25 0B 02 05 00  03 80 00 33 0B 05 45 10  ...%.......3..E.
0B30: 01 B1 0B 13 01 00 45 80  02 04 00 46 80 00 46 0B  ......E....F..F.
0B40: 05 45 10 01 B1 0B 02 04  00 47 80 00 5C 0B 02 01  .E.......G..\...
0B50: 00 48 80 05 59 0B 05 45  10 01 B1 0B 02 04 00 20  .H..Y..E....... 
0B60: 80 00 72 0B 02 01 00 49  80 05 6F 0B 05 45 10 01  ..r....I..o..E..
0B70: B1 0B 02 04 00 4A 80 00  88 0B 02 01 00 4B 80 05  .....J.......K..
0B80: 85 0B 05 45 10 01 B1 0B  02 04 00 4C 80 00 9E 0B  ...E.......L....
0B90: 02 01 00 22 80 05 9B 0B  05 45 10 01 B1 0B 02 04  ...".....E......
0BA0: 00 4D 80 00 B1 0B 02 01  00 20 80 05 B1 0B 05 45  .M....... .....E
0BB0: 10 01 E0 0A 02 05 00 03  80 00 BF 0B 01 67 0E 0B  .............g..
0BC0: 04 00 45 13 80 F0 FF FF  7F F0 FF FF 7F 73 31 30  ..E..........s10
0BD0: 32 01 80 2B 18 00 0F 01  4E 80 02 00 00 4F 80 00  2..+....N....O..
0BE0: EA 0B 03 02 10 04 00 48  50 80 1C 51 80 52 13 80  .......HP..Q.R..
0BF0: F0 FF FF 7F F0 FF FF 7F  73 31 30 32 1A 0E 17 02  ........s102....
0C00: 07 00 03 80 00 1B 0C 45  13 80 F0 FF FF 7F F0 FF  .......E........
0C10: FF 7F 73 31 32 32 01 80  01 48 0C 02 08 00 03 80  ..s122...H......
0C20: 00 37 0C 45 13 80 F0 FF  FF 7F F0 FF FF 7F 73 31  .7.E..........s1
0C30: 30 34 01 80 01 48 0C 45  13 80 F0 FF FF 7F F0 FF  04...H.E........
0C40: FF 7F 73 31 30 33 01 80  27 10 F8 00 0F 01 02 24  ..s103..'......$
0C50: 52 80 01 80 01 80 25 02  00 10 01 80 00 6A 0C 03  R.....%......j..
0C60: 06 00 4C 80 1A A5 14 01  C9 0C 02 00 10 03 80 00  ..L.............
0C70: 7D 0C 03 06 00 4A 80 1A  A5 14 01 C9 0C 02 00 10  }....J..........
0C80: 05 80 00 90 0C 03 06 00  20 80 1A A5 14 01 C9 0C  ........ .......
0C90: 02 00 10 44 80 00 A3 0C  03 06 00 47 80 1A A5 14  ...D.......G....
0CA0: 01 C9 0C 02 00 10 4D 80  00 B6 0C 03 06 00 46 80  ......M.......F.
0CB0: 1A A5 14 01 C9 0C 02 00  10 4C 80 00 C9 0C 03 06  .........L......
0CC0: 00 29 80 1A A5 14 01 C9  0C 27 10 F8 00 0F 01 03  .).......'......
0CD0: 02 05 00 03 80 00 DB 0C  01 67 0E 5C 00 08 80 5C  .........g.\...\
0CE0: 01 08 80 9A 5D 45 80 14  80 45 13 80 F0 FF FF 7F  ....]E...E......
0CF0: F0 FF FF 7F 73 31 31 32  01 80 1C 21 80 2B 18 00  ....s112...!.+..
0D00: 0F 01 53 80 23 66 25 80  18 00 0F 01 18 00 0F 01  ..S.#f%.........
0D10: 74 6C 6B 30 1C 29 80 52  13 80 F0 FF FF 7F F0 FF  tlk0.).R........
0D20: FF 7F 73 31 31 32 45 13  80 F0 FF FF 7F F0 FF FF  ..s112E.........
0D30: 7F 73 31 31 33 01 80 1C  21 80 2B 18 00 0F 01 54  .s113...!.+....T
0D40: 80 23 66 25 80 18 00 0F  01 18 00 0F 01 74 6C 6B  .#f%.........tlk
0D50: 31 1C 06 80 2B 18 00 0F  01 55 80 23 66 48 80 18  1...+....U.#fH..
0D60: 00 0F 01 18 00 0F 01 70  61 73 30 1C 56 80 52 13  .......pas0.V.R.
0D70: 80 F0 FF FF 7F F0 FF FF  7F 73 31 31 33 1A 0E 17  .........s113...
0D80: 02 08 00 03 80 00 9C 0D  45 13 80 F0 FF FF 7F F0  ........E.......
0D90: FF FF 7F 73 31 31 35 01  80 01 AD 0D 45 13 80 F0  ...s115.....E...
0DA0: FF FF 7F F0 FF FF 7F 73  31 31 34 01 80 2B 18 00  .......s114..+..
0DB0: 0F 01 57 80 23 1C 56 80  2B 18 00 0F 01 58 80 23  ..W.#.V.+....X.#
0DC0: 52 13 80 F0 FF FF 7F F0  FF FF 7F 73 31 31 35 52  R..........s115R
0DD0: 13 80 F0 FF FF 7F F0 FF  FF 7F 73 31 31 34 45 13  ..........s114E.
0DE0: 80 F0 FF FF 7F F0 FF FF  7F 73 31 31 36 01 80 66  .........s116..f
0DF0: 12 80 18 00 0F 01 18 00  0F 01 74 6C 6B 30 1C 06  ..........tlk0..
0E00: 80 2B 18 00 0F 01 59 80  23 66 12 80 18 00 0F 01  .+....Y.#f......
0E10: 18 00 0F 01 74 6C 6B 31  1C 06 80 66 3E 80 18 00  ....tlk1...f>...
0E20: 0F 01 18 00 0F 01 70 6F  73 30 2B 18 00 0F 01 5A  ......pos0+....Z
0E30: 80 23 52 13 80 F0 FF FF  7F F0 FF FF 7F 73 31 31  .#R..........s11
0E40: 36 45 13 80 F0 FF FF 7F  F0 FF FF 7F 73 31 31 37  6E..........s117
0E50: 01 80 1C 06 80 6E F0 FF  FF 7F 03 80 99 F0 FF FF  .....n..........
0E60: 7F 1C 5B 80 05 01 10 1A  64 00 1C 06 80 52 13 80  ..[.....d....R..
0E70: F0 FF FF 7F F0 FF FF 7F  73 31 31 37 5C 00 33 80  ........s117\.3.
0E80: 5C 01 33 80 9A 1C 22 80  AB 11 01 80 1C 03 80 AB  \.3...".........
0E90: 0A 46 00 45 00 80 F0 FF  FF 7F F0 FF FF 7F 66 64  .F.E..........fd
0EA0: 69 32 01 80 21 00 45 13  80 F0 FF FF 7F F0 FF FF  i2..!.E.........
0EB0: 7F 73 31 30 32 01 80 13  01 00 20 80 03 02 10 01  .s102..... .....
0EC0: 00 2B 18 00 0F 01 5C 80  02 00 00 4F 80 00 D3 0E  .+....\....O....
0ED0: 48 5D 80 1C 51 80 52 13  80 F0 FF FF 7F F0 FF FF  H]..Q.R.........
0EE0: 7F 73 31 30 32 1A 0E 17  02 07 00 03 80 00 04 0F  .s102...........
0EF0: 45 13 80 F0 FF FF 7F F0  FF FF 7F 73 31 32 32 01  E..........s122.
0F00: 80 01 31 0F 02 08 00 03  80 00 20 0F 45 13 80 F0  ..1....... .E...
0F10: FF FF 7F F0 FF FF 7F 73  31 30 34 01 80 01 31 0F  .......s104...1.
0F20: 45 13 80 F0 FF FF 7F F0  FF FF 7F 73 31 30 33 01  E..........s103.
0F30: 80 27 10 F8 00 0F 01 02  24 5E 80 01 80 01 80 25  .'......$^.....%
0F40: 02 00 10 01 80 00 53 0F  03 06 00 03 80 1A 42 13  ......S.......B.
0F50: 01 D8 0F 02 00 10 03 80  00 66 0F 03 06 00 05 80  .........f......
0F60: 1A 42 13 01 D8 0F 02 00  10 05 80 00 79 0F 03 06  .B..........y...
0F70: 00 44 80 1A 42 13 01 D8  0F 02 00 10 44 80 00 8C  .D..B.......D...
0F80: 0F 03 06 00 4D 80 1A 42  13 01 D8 0F 02 00 10 4D  ....M..B.......M
0F90: 80 00 9F 0F 03 06 00 4C  80 1A 42 13 01 D8 0F 02  .......L..B.....
0FA0: 00 10 4C 80 00 B2 0F 03  06 00 01 80 1A 42 13 01  ..L..........B..
0FB0: D8 0F 02 00 10 4A 80 00  C5 0F 03 06 00 20 80 1A  .....J....... ..
0FC0: 42 13 01 D8 0F 02 00 10  20 80 00 D8 0F 03 06 00  B....... .......
0FD0: 4A 80 1A 42 13 01 D8 0F  27 10 F8 00 0F 01 03 1B  J..B....'.......
0FE0: 45 13 80 F0 FF FF 7F F0  FF FF 7F 73 31 30 37 01  E..........s107.
0FF0: 80 13 01 00 20 80 03 02  10 01 00 2B 18 00 0F 01  .... ......+....
1000: 5F 80 02 00 00 4F 80 00  0D 10 48 5D 80 1C 51 80  _....O....H]..Q.
1010: 52 13 80 F0 FF FF 7F F0  FF FF 7F 73 31 30 37 1A  R..........s107.
1020: 0E 17 02 07 00 03 80 00  3E 10 45 13 80 F0 FF FF  ........>.E.....
1030: 7F F0 FF FF 7F 73 31 32  32 01 80 01 6B 10 02 08  .....s122...k...
1040: 00 03 80 00 5A 10 45 13  80 F0 FF FF 7F F0 FF FF  ....Z.E.........
1050: 7F 73 31 30 34 01 80 01  6B 10 45 13 80 F0 FF FF  .s104...k.E.....
1060: 7F F0 FF FF 7F 73 31 30  33 01 80 27 10 F8 00 0F  .....s103..'....
1070: 01 02 24 5E 80 01 80 01  80 25 02 00 10 01 80 00  ..$^.....%......
1080: 8D 10 03 06 00 03 80 1A  42 13 01 12 11 02 00 10  ........B.......
1090: 03 80 00 A0 10 03 06 00  05 80 1A 42 13 01 12 11  ...........B....
10A0: 02 00 10 05 80 00 B3 10  03 06 00 44 80 1A 42 13  ...........D..B.
10B0: 01 12 11 02 00 10 44 80  00 C6 10 03 06 00 4D 80  ......D.......M.
10C0: 1A 42 13 01 12 11 02 00  10 4D 80 00 D9 10 03 06  .B.......M......
10D0: 00 4C 80 1A 42 13 01 12  11 02 00 10 4C 80 00 EC  .L..B.......L...
10E0: 10 03 06 00 01 80 1A 42  13 01 12 11 02 00 10 4A  .......B.......J
10F0: 80 00 FF 10 03 06 00 20  80 1A 42 13 01 12 11 02  ....... ..B.....
1100: 00 10 20 80 00 12 11 03  06 00 4A 80 1A 42 13 01  .. .......J..B..
1110: 12 11 27 10 F8 00 0F 01  03 1B 45 13 80 F0 FF FF  ..'.......E.....
1120: 7F F0 FF FF 7F 73 31 30  32 01 80 13 01 00 20 80  .....s102..... .
1130: 03 02 10 01 00 2B 18 00  0F 01 60 80 02 00 00 4F  .....+....`....O
1140: 80 00 47 11 48 61 80 1C  51 80 52 13 80 F0 FF FF  ..G.Ha..Q.R.....
1150: 7F F0 FF FF 7F 73 31 30  32 1A 0E 17 02 07 00 03  .....s102.......
1160: 80 00 78 11 45 13 80 F0  FF FF 7F F0 FF FF 7F 73  ..x.E..........s
1170: 31 32 32 01 80 01 A5 11  02 08 00 03 80 00 94 11  122.............
1180: 45 13 80 F0 FF FF 7F F0  FF FF 7F 73 31 30 34 01  E..........s104.
1190: 80 01 A5 11 45 13 80 F0  FF FF 7F F0 FF FF 7F 73  ....E..........s
11A0: 31 30 33 01 80 27 10 F8  00 0F 01 02 24 5E 80 01  103..'......$^..
11B0: 80 01 80 25 02 00 10 01  80 00 C7 11 03 06 00 01  ...%............
11C0: 80 1A 42 13 01 4C 12 02  00 10 03 80 00 DA 11 03  ..B..L..........
11D0: 06 00 03 80 1A 42 13 01  4C 12 02 00 10 05 80 00  .....B..L.......
11E0: ED 11 03 06 00 05 80 1A  42 13 01 4C 12 02 00 10  ........B..L....
11F0: 44 80 00 00 12 03 06 00  44 80 1A 42 13 01 4C 12  D.......D..B..L.
1200: 02 00 10 4D 80 00 13 12  03 06 00 4D 80 1A 42 13  ...M.......M..B.
1210: 01 4C 12 02 00 10 4C 80  00 26 12 03 06 00 4C 80  .L....L..&....L.
1220: 1A 42 13 01 4C 12 02 00  10 4A 80 00 39 12 03 06  .B..L....J..9...
1230: 00 4A 80 1A 42 13 01 4C  12 02 00 10 20 80 00 4C  .J..B..L.... ..L
1240: 12 03 06 00 20 80 1A 42  13 01 4C 12 27 10 F8 00  .... ..B..L.'...
1250: 0F 01 03 1B 45 13 80 F0  FF FF 7F F0 FF FF 7F 73  ....E..........s
1260: 31 30 32 01 80 13 01 00  05 80 03 02 10 01 00 2B  102............+
1270: 18 00 0F 01 62 80 02 00  00 4F 80 00 81 12 48 63  ....b....O....Hc
1280: 80 1C 51 80 52 13 80 F0  FF FF 7F F0 FF FF 7F 73  ..Q.R..........s
1290: 31 30 32 1A 0E 17 02 07  00 03 80 00 B2 12 45 13  102...........E.
12A0: 80 F0 FF FF 7F F0 FF FF  7F 73 31 32 32 01 80 01  .........s122...
12B0: DF 12 02 08 00 03 80 00  CE 12 45 13 80 F0 FF FF  ..........E.....
12C0: 7F F0 FF FF 7F 73 31 30  34 01 80 01 DF 12 45 13  .....s104.....E.
12D0: 80 F0 FF FF 7F F0 FF FF  7F 73 31 30 33 01 80 27  .........s103..'
12E0: 10 F8 00 0F 01 02 24 64  80 01 80 01 80 25 02 00  ......$d.....%..
12F0: 10 01 80 00 01 13 03 06  00 01 80 1A 42 13 01 3A  ............B..:
1300: 13 02 00 10 03 80 00 14  13 03 06 00 03 80 1A 42  ...............B
1310: 13 01 3A 13 02 00 10 05  80 00 27 13 03 06 00 01  ..:.......'.....
1320: 80 1A 42 13 01 3A 13 02  00 10 44 80 00 3A 13 03  ..B..:....D..:..
1330: 06 00 05 80 1A 42 13 01  3A 13 27 10 F8 00 0F 01  .....B..:.'.....
1340: 03 1B 52 13 80 F0 FF FF  7F F0 FF FF 7F 73 31 32  ..R..........s12
1350: 32 52 13 80 F0 FF FF 7F  F0 FF FF 7F 73 31 30 34  2R..........s104
1360: 52 13 80 F0 FF FF 7F F0  FF FF 7F 73 31 30 33 02  R..........s103.
1370: 47 10 01 80 00 54 14 06  46 10 02 01 00 06 00 00  G....T..F.......
1380: 01 14 0B 04 00 1A 0E 17  02 08 00 03 80 00 A4 13  ................
1390: 45 13 80 F0 FF FF 7F F0  FF FF 7F 73 31 31 39 01  E..........s119.
13A0: 80 01 B5 13 45 13 80 F0  FF FF 7F F0 FF FF 7F 73  ....E..........s
13B0: 31 30 35 01 80 45 00 80  F0 FF FF 7F F0 FF FF 7F  105..E..........
13C0: 73 30 33 31 01 80 6E 18  00 0F 01 20 80 99 18 00  s031..n.... ....
13D0: 0F 01 1C 21 80 2B 18 00  0F 01 65 80 23 1C 04 80  ...!.+....e.#...
13E0: 52 13 80 F0 FF FF 7F F0  FF FF 7F 73 31 31 39 52  R..........s119R
13F0: 13 80 F0 FF FF 7F F0 FF  FF 7F 73 31 30 35 01 51  ..........s105.Q
1400: 14 05 05 00 45 13 80 F0  FF FF 7F F0 FF FF 7F 73  ....E..........s
1410: 31 30 36 01 80 5D 01 80  01 80 45 00 80 F0 FF FF  106..]....E.....
1420: 7F F0 FF FF 7F 73 30 33  32 01 80 2B 18 00 0F 01  .....s032..+....
1430: 66 80 23 6E F0 FF FF 7F  0A 80 99 F0 FF FF 7F 1C  f.#n............
1440: 5B 80 52 13 80 F0 FF FF  7F F0 FF FF 7F 73 31 30  [.R..........s10
1450: 36 01 A4 14 05 05 00 45  13 80 F0 FF FF 7F F0 FF  6......E........
1460: FF 7F 73 31 30 36 01 80  5D 01 80 01 80 45 00 80  ..s106..]....E..
1470: F0 FF FF 7F F0 FF FF 7F  73 30 32 39 01 80 2B 18  ........s029..+.
1480: 00 0F 01 67 80 23 6E F0  FF FF 7F 1C 80 99 F0 FF  ...g.#n.........
1490: FF 7F 1C 5B 80 52 13 80  F0 FF FF 7F F0 FF FF 7F  ...[.R..........
14A0: 73 31 30 36 1B 52 13 80  F0 FF FF 7F F0 FF FF 7F  s106.R..........
14B0: 73 31 32 32 52 13 80 F0  FF FF 7F F0 FF FF 7F 73  s122R..........s
14C0: 31 30 34 52 13 80 F0 FF  FF 7F F0 FF FF 7F 73 31  104R..........s1
14D0: 30 33 02 47 10 01 80 00  72 16 06 46 10 02 04 00  03.G....r..F....
14E0: 06 00 00 1F 16 45 13 80  F0 FF FF 7F F0 FF FF 7F  .....E..........
14F0: 73 31 30 38 01 80 5D 01  80 14 80 7B 18 00 0F 01  s108..]....{....
1500: 66 12 80 18 00 0F 01 18  00 0F 01 74 68 6B 31 1C  f..........thk1.
1510: 68 80 52 13 80 F0 FF FF  7F F0 FF FF 7F 73 31 30  h.R..........s10
1520: 38 1A 0E 17 02 07 00 03  80 00 40 15 45 13 80 F0  8.........@.E...
1530: FF FF 7F F0 FF FF 7F 73  31 30 39 01 80 01 6D 15  .......s109...m.
1540: 02 08 00 03 80 00 5C 15  45 13 80 F0 FF FF 7F F0  ......\.E.......
1550: FF FF 7F 73 31 31 30 01  80 01 6D 15 45 13 80 F0  ...s110...m.E...
1560: FF FF 7F F0 FF FF 7F 73  31 32 33 01 80 1C 69 80  .......s123...i.
1570: 52 13 80 F0 FF FF 7F F0  FF FF 7F 73 31 31 30 52  R..........s110R
1580: 13 80 F0 FF FF 7F F0 FF  FF 7F 73 31 30 39 52 13  ..........s109R.
1590: 80 F0 FF FF 7F F0 FF FF  7F 73 31 32 33 45 13 80  .........s123E..
15A0: F0 FF FF 7F F0 FF FF 7F  73 31 31 31 01 80 1C 14  ........s111....
15B0: 80 66 12 80 18 00 0F 01  18 00 0F 01 74 68 6B 32  .f..........thk2
15C0: 79 00 18 00 0F 01 F0 FF  FF 7F 1C 69 80 66 3E 80  y..........i.f>.
15D0: 18 00 0F 01 18 00 0F 01  70 6F 73 30 1C 21 80 45  ........pos0.!.E
15E0: 00 80 F0 FF FF 7F F0 FF  FF 7F 66 61 6E 34 01 80  ..........fan4..
15F0: 2B 18 00 0F 01 6A 80 23  1C 21 80 66 12 80 18 00  +....j.#.!.f....
1600: 0F 01 18 00 0F 01 73 79  75 30 1C 04 80 52 13 80  ......syu0...R..
1610: F0 FF FF 7F F0 FF FF 7F  73 31 31 31 01 6F 16 05  ........s111.o..
1620: 05 00 45 13 80 F0 FF FF  7F F0 FF FF 7F 73 31 30  ..E..........s10
1630: 36 01 80 5D 01 80 01 80  45 00 80 F0 FF FF 7F F0  6..]....E.......
1640: FF FF 7F 73 30 33 32 01  80 2B 18 00 0F 01 66 80  ...s032..+....f.
1650: 23 6E F0 FF FF 7F 0A 80  99 F0 FF FF 7F 1C 5B 80  #n............[.
1660: 52 13 80 F0 FF FF 7F F0  FF FF 7F 73 31 30 36 01  R..........s106.
1670: C2 16 05 05 00 45 13 80  F0 FF FF 7F F0 FF FF 7F  .....E..........
1680: 73 31 30 36 01 80 5D 01  80 01 80 45 00 80 F0 FF  s106..]....E....
1690: FF 7F F0 FF FF 7F 73 30  32 39 01 80 2B 18 00 0F  ......s029..+...
16A0: 01 67 80 23 6E F0 FF FF  7F 1C 80 99 F0 FF FF 7F  .g.#n...........
16B0: 1C 5B 80 52 13 80 F0 FF  FF 7F F0 FF FF 7F 73 31  .[.R..........s1
16C0: 30 36 1B                                          06.             
```

#### Opcodes

```
  0: 0x0831 [0x03] ExtData[1]->WorkLocal[1] = Work_Zone[2]
  1: 0x0836 [0x03] ExtData[1]->WorkLocal[0] = Work_Zone[9]
  2: 0x083B [0x42] SET_CLI_EVENT_CANCEL_DATA()
  3: 0x083C [0x1A] CALL_SUBROUTINE(address=0x0064)
  4: 0x083F [0x46] CAMERA_CONTROL: Disable user control
  5: 0x0841 [0x75] LOAD_ROOM(Load indoor room, room=411*)
  6: 0x0845 [0x75] LOAD_ROOM(No action)
  7: 0x0847 [0x38] SET_CLIENT_EVENT_MODE(mode=19*)
  8: 0x084A [0x92] Ohruru (ID: 17760280/0x010F0018)->Render.Flags3 ^= 0x01
  9: 0x0850 [0x94] Ohruru (ID: 17760280/0x010F0018)->Render.Flags3 ^= 0x01
 10: 0x0856 [0xBA] SET_ENTITY_POSITION(entity_id=Ohruru (ID: 17760280/0x010F0018), pos_x=-106.967*, pos_z=92.749*, pos_y=-4.249*, direction=232.0°*)
 11: 0x0863 [0x80] LOAD_WAIT(entity=Ohruru (ID: 17760280/0x010F0018))
 12: 0x0868 [0x02] IF !(ExtData[1]->WorkLocal[1] == 1*) GOTO 0x0873
 13: 0x0870 [0x01] GOTO 0x0876
 14: 0x0873 [0x01] GOTO 0x08E0

SUBROUTINE_0876:
 15: 0x0876 [0xBA] SET_ENTITY_POSITION(entity_id=LocalPlayer, pos_x=-108.088*, pos_z=94.474*, pos_y=-4.249*, direction=55.6°*)
 16: 0x0883 [0x4A] Ohruru (ID: 17760280/0x010F0018) looks at LocalPlayer
 17: 0x088C [0x4A] LocalPlayer looks at Ohruru (ID: 17760280/0x010F0018)
 18: 0x0895 [0x6F] WAIT_FRAME_DELAY: Yield until WaitTime reaches zero
 19: 0x0896 [0x70] WAIT_ENTITY_RENDER_FLAG: Wait while EventEntity->Render.Flags3 bit 2 is set (cancel turn if not)
 20: 0x0897 [0x6F] WAIT_FRAME_DELAY: Yield until WaitTime reaches zero
 21: 0x0898 [0x70] WAIT_ENTITY_RENDER_FLAG: Wait while EventEntity->Render.Flags3 bit 2 is set (cancel turn if not)
 22: 0x0899 [0x66] LOAD_EXT_SCHEDULER_MAIN: Load scheduler 0x8B200030 with entities [Ohruru (ID: 17760280/0x010F0018), Ohruru (ID: 17760280/0x010F0018)], work=40*
 23: 0x08A8 [0x80] LOAD_WAIT(entity=Ohruru (ID: 17760280/0x010F0018))
 24: 0x08AD [0x80] LOAD_WAIT(entity=LocalPlayer)
 25: 0x08B2 [0x45] LOAD_SCHEDULED_TASK: Load scheduler "s098" with entities [LocalPlayer, LocalPlayer], work=[612*, 0*]
 26: 0x08C3 [0x1A] CALL_SUBROUTINE(address=0x0043)
 27: 0x08C6 [0x2B] Ohruru (ID: 17760280/0x010F0018) [16171*]:
    → "Come back for another beating, eh? Fine, but don't expect me to pull any punches just because you're a remedial studentaru."
 28: 0x08CD [0x23] WAIT_FOR_DIALOG_INTERACTION
 29: 0x08CE [0x52] END_LOAD_SCHEDULER: End scheduler "s098" with entities [LocalPlayer, LocalPlayer], work=612*
 30: 0x08DD [0x01] GOTO 0x09F0

SUBROUTINE_08E0:
 31: 0x08E0 [0xBA] SET_ENTITY_POSITION(entity_id=LocalPlayer, pos_x=-109.767*, pos_z=94.923*, pos_y=-4.250*, direction=20.1°*)
 32: 0x08ED [0x80] LOAD_WAIT(entity=LocalPlayer)
 33: 0x08F2 [0x4A] Ohruru (ID: 17760280/0x010F0018) looks at LocalPlayer
 34: 0x08FB [0x6F] WAIT_FRAME_DELAY: Yield until WaitTime reaches zero
 35: 0x08FC [0x70] WAIT_ENTITY_RENDER_FLAG: Wait while EventEntity->Render.Flags3 bit 2 is set (cancel turn if not)
 36: 0x08FD [0x1A] CALL_SUBROUTINE(address=0x170E)
 37: 0x0900 [0x02] IF !(ExtData[1]->WorkLocal[8] == 1*) GOTO 0x091C
 38: 0x0908 [0x45] LOAD_SCHEDULED_TASK: Load scheduler "s096" with entities [LocalPlayer, LocalPlayer], work=[612*, 0*]
 39: 0x0919 [0x01] GOTO 0x092D
 40: 0x091C [0x45] LOAD_SCHEDULED_TASK: Load scheduler "s095" with entities [LocalPlayer, LocalPlayer], work=[612*, 0*]

SUBROUTINE_092D:
 41: 0x092D [0x27] REQ_SET(priority=0x10, entity_id=LocalPlayer, tag_num=0x05)
 42: 0x0934 [0x1A] CALL_SUBROUTINE(address=0x0043)
 43: 0x0937 [0x2A] GET_REQ_LEVEL(level=16, entity_id=LocalPlayer)
 44: 0x093D [0x4A] LocalPlayer looks at Ohruru (ID: 17760280/0x010F0018)
 45: 0x0946 [0x6F] WAIT_FRAME_DELAY: Yield until WaitTime reaches zero
 46: 0x0947 [0x70] WAIT_ENTITY_RENDER_FLAG: Wait while EventEntity->Render.Flags3 bit 2 is set (cancel turn if not)
 47: 0x0948 [0x66] LOAD_EXT_SCHEDULER_MAIN: Load scheduler "tlk0" with entities [Ohruru (ID: 17760280/0x010F0018), Ohruru (ID: 17760280/0x010F0018)], work=40*
 48: 0x0957 [0x2B] Ohruru (ID: 17760280/0x010F0018) [16168*]:
    → "Thanks for checking-wecking those out-out-out."
 49: 0x095E [0x23] WAIT_FOR_DIALOG_INTERACTION
 50: 0x095F [0x1C] WAIT(30* ticks)
 51: 0x0962 [0x66] LOAD_EXT_SCHEDULER_MAIN: Load scheduler "tlk1" with entities [Ohruru (ID: 17760280/0x010F0018), Ohruru (ID: 17760280/0x010F0018)], work=40*
 52: 0x0971 [0x2B] Ohruru (ID: 17760280/0x010F0018) [16169*]:
    → "Now that you know all aboutaru the affinities and antitheses of runes..."
 53: 0x0978 [0x23] WAIT_FOR_DIALOG_INTERACTION
 54: 0x0979 [0x1C] WAIT(30* ticks)
 55: 0x097C [0x52] END_LOAD_SCHEDULER: End scheduler "s095" with entities [LocalPlayer, LocalPlayer], work=612*
 56: 0x098B [0x52] END_LOAD_SCHEDULER: End scheduler "s096" with entities [LocalPlayer, LocalPlayer], work=612*
 57: 0x099A [0x45] LOAD_SCHEDULED_TASK: Load scheduler "s097" with entities [LocalPlayer, LocalPlayer], work=[612*, 0*]
 58: 0x09AB [0x66] LOAD_EXT_SCHEDULER_MAIN: Load scheduler "wai0" with entities [Ohruru (ID: 17760280/0x010F0018), Ohruru (ID: 17760280/0x010F0018)], work=40*
 59: 0x09BA [0x5C] MUSIC_CONTROL: Set Idle (Day) music to song 0*
 60: 0x09BE [0x5C] MUSIC_CONTROL: Set Idle (Night) music to song 0*
 61: 0x09C2 [0x45] LOAD_SCHEDULED_TASK: Load scheduler "s029" with entities [LocalPlayer, LocalPlayer], work=[200*, 0*]
 62: 0x09D3 [0x2B] Ohruru (ID: 17760280/0x010F0018) [16170*]:
    → "It's time for a quiz-quiz-quiz!"
 63: 0x09DA [0x23] WAIT_FOR_DIALOG_INTERACTION
 64: 0x09DB [0x1C] WAIT(55* ticks)
 65: 0x09DE [0x52] END_LOAD_SCHEDULER: End scheduler "s097" with entities [LocalPlayer, LocalPlayer], work=612*
 66: 0x09ED [0x1A] CALL_SUBROUTINE(address=0x16ED)

SUBROUTINE_09F0:
 67: 0x09F0 [0x45] LOAD_SCHEDULED_TASK: Load scheduler "s099" with entities [LocalPlayer, LocalPlayer], work=[612*, 0*]
 68: 0x0A01 [0x66] LOAD_EXT_SCHEDULER_MAIN: Load scheduler "pos0" with entities [Ohruru (ID: 17760280/0x010F0018), Ohruru (ID: 17760280/0x010F0018)], work=114*
 69: 0x0A10 [0x2B] Ohruru (ID: 17760280/0x010F0018) [16172*]:
    → "For this test, I'll give the attributaru of a certain rune, and you answer the one that can counter it. I'll be magnanimous-wanimous and give you a full ten seconds to make up your mind-mind-mind."
 70: 0x0A17 [0x23] WAIT_FOR_DIALOG_INTERACTION
 71: 0x0A18 [0x1C] WAIT(30* ticks)
 72: 0x0A1B [0x52] END_LOAD_SCHEDULER: End scheduler "s099" with entities [LocalPlayer, LocalPlayer], work=612*
 73: 0x0A2A [0x45] LOAD_SCHEDULED_TASK: Load scheduler "s118" with entities [LocalPlayer, LocalPlayer], work=[612*, 0*]
 74: 0x0A3B [0x66] LOAD_EXT_SCHEDULER_MAIN: Load scheduler "syu0" with entities [Ohruru (ID: 17760280/0x010F0018), Ohruru (ID: 17760280/0x010F0018)], work=40*
 75: 0x0A4A [0x2B] Ohruru (ID: 17760280/0x010F0018) [16173*]:
    → "Remember, only if you can answer all of them correctaruly will I acknowledge your qualifications as a rune fencer."
 76: 0x0A51 [0x23] WAIT_FOR_DIALOG_INTERACTION
 77: 0x0A52 [0x1C] WAIT(60* ticks)
 78: 0x0A55 [0x52] END_LOAD_SCHEDULER: End scheduler "s118" with entities [LocalPlayer, LocalPlayer], work=612*
 79: 0x0A64 [0x1A] CALL_SUBROUTINE(address=0x170E)
 80: 0x0A67 [0x02] IF !(ExtData[1]->WorkLocal[8] == 1*) GOTO 0x0A83
 81: 0x0A6F [0x45] LOAD_SCHEDULED_TASK: Load scheduler "s101" with entities [LocalPlayer, LocalPlayer], work=[612*, 0*]
 82: 0x0A80 [0x01] GOTO 0x0A94
 83: 0x0A83 [0x45] LOAD_SCHEDULED_TASK: Load scheduler "s100" with entities [LocalPlayer, LocalPlayer], work=[612*, 0*]

SUBROUTINE_0A94:
 84: 0x0A94 [0x5C] MUSIC_CONTROL: Set Idle (Day) music to song 136*
 85: 0x0A98 [0x5C] MUSIC_CONTROL: Set Idle (Night) music to song 136*
 86: 0x0A9C [0x9A] WAIT_MUSIC_SERVER()
 87: 0x0A9D [0x2B] Ohruru (ID: 17760280/0x010F0018) [16174*]:
    → "Getaru ready to bend over, it's time to quiz away-way-way!"
 88: 0x0AA4 [0x23] WAIT_FOR_DIALOG_INTERACTION
 89: 0x0AA5 [0x52] END_LOAD_SCHEDULER: End scheduler "s101" with entities [LocalPlayer, LocalPlayer], work=612*
 90: 0x0AB4 [0x52] END_LOAD_SCHEDULER: End scheduler "s100" with entities [LocalPlayer, LocalPlayer], work=612*
 91: 0x0AC3 [0x1C] WAIT(30* ticks)
 92: 0x0AC6 [0x06] ExtData[1]->WorkLocal[4] = 0
 93: 0x0AC9 [0x06] ExtData[1]->WorkLocal[5] = 0
 94: 0x0ACC [0x06] Work_Zone[69] = 0
 95: 0x0ACF [0x06] Work_Zone[1] = 0
 96: 0x0AD2 [0x1A] CALL_SUBROUTINE(address=0x0EA6)
 97: 0x0AD5 [0x02] IF !(ExtData[1]->WorkLocal[5] == 1*) GOTO 0x0AE0
 98: 0x0ADD [0x05] Work_Zone[69] = 1

SUBROUTINE_0AE0:
 99: 0x0AE0 [0x02] IF !(Work_Zone[69] == 0*) GOTO 0x0BB4
100: 0x0AE8 [0x13] ExtData[1]->WorkLocal[1] = rand() % 3*
101: 0x0AED [0x02] IF !(ExtData[1]->WorkLocal[1] == 0*) GOTO 0x0AFB
102: 0x0AF5 [0x1A] CALL_SUBROUTINE(address=0x0EA6)
103: 0x0AF8 [0x01] GOTO 0x0B25
104: 0x0AFB [0x02] IF !(ExtData[1]->WorkLocal[1] == 1*) GOTO 0x0B09
105: 0x0B03 [0x1A] CALL_SUBROUTINE(address=0x0FE0)
106: 0x0B06 [0x01] GOTO 0x0B25
107: 0x0B09 [0x02] IF !(ExtData[1]->WorkLocal[1] == 2*) GOTO 0x0B17
108: 0x0B11 [0x1A] CALL_SUBROUTINE(address=0x1254)
109: 0x0B14 [0x01] GOTO 0x0B25
110: 0x0B17 [0x02] IF !(ExtData[1]->WorkLocal[1] == 3*) GOTO 0x0B25
111: 0x0B1F [0x1A] CALL_SUBROUTINE(address=0x111A)
112: 0x0B22 [0x01] GOTO 0x0B25

SUBROUTINE_0B25:
113: 0x0B25 [0x02] IF !(ExtData[1]->WorkLocal[5] == 1*) GOTO 0x0B33
114: 0x0B2D [0x05] Work_Zone[69] = 1
115: 0x0B30 [0x01] GOTO 0x0BB1
116: 0x0B33 [0x13] ExtData[1]->WorkLocal[1] = rand() % 127*
117: 0x0B38 [0x02] IF !(ExtData[1]->WorkLocal[4] == 9*) GOTO 0x0B46
118: 0x0B40 [0x05] Work_Zone[69] = 1
119: 0x0B43 [0x01] GOTO 0x0BB1
120: 0x0B46 [0x02] IF !(ExtData[1]->WorkLocal[4] == 8*) GOTO 0x0B5C
121: 0x0B4E [0x02] IF !(ExtData[1]->WorkLocal[1] > 111*) GOTO 0x0B59
122: 0x0B56 [0x05] Work_Zone[69] = 1
123: 0x0B59 [0x01] GOTO 0x0BB1
124: 0x0B5C [0x02] IF !(ExtData[1]->WorkLocal[4] == 7*) GOTO 0x0B72
125: 0x0B64 [0x02] IF !(ExtData[1]->WorkLocal[1] > 79*) GOTO 0x0B6F
126: 0x0B6C [0x05] Work_Zone[69] = 1
127: 0x0B6F [0x01] GOTO 0x0BB1
128: 0x0B72 [0x02] IF !(ExtData[1]->WorkLocal[4] == 6*) GOTO 0x0B88
129: 0x0B7A [0x02] IF !(ExtData[1]->WorkLocal[1] > 31*) GOTO 0x0B85
130: 0x0B82 [0x05] Work_Zone[69] = 1
131: 0x0B85 [0x01] GOTO 0x0BB1
132: 0x0B88 [0x02] IF !(ExtData[1]->WorkLocal[4] == 5*) GOTO 0x0B9E
133: 0x0B90 [0x02] IF !(ExtData[1]->WorkLocal[1] > 15*) GOTO 0x0B9B
134: 0x0B98 [0x05] Work_Zone[69] = 1
135: 0x0B9B [0x01] GOTO 0x0BB1
136: 0x0B9E [0x02] IF !(ExtData[1]->WorkLocal[4] == 4*) GOTO 0x0BB1
137: 0x0BA6 [0x02] IF !(ExtData[1]->WorkLocal[1] > 7*) GOTO 0x0BB1
138: 0x0BAE [0x05] Work_Zone[69] = 1

SUBROUTINE_0BB1:
139: 0x0BB1 [0x01] GOTO 0x0AE0
140: 0x0BB4 [0x02] IF !(ExtData[1]->WorkLocal[5] == 1*) GOTO 0x0BBF
141: 0x0BBC [0x01] GOTO 0x0E67
142: 0x0BBF [0x0B] ExtData[1]->WorkLocal[4]++
143: 0x0BC2 [0x45] LOAD_SCHEDULED_TASK: Load scheduler "s102" with entities [LocalPlayer, LocalPlayer], work=[612*, 0*]
144: 0x0BD3 [0x2B] Ohruru (ID: 17760280/0x010F0018) [16179*]:
    → "Do you happen-wappen to know what number question this is?"
145: 0x0BDA [0x02] IF !(ExtData[1]->WorkLocal[0] == 999*) GOTO 0x0BEA
146: 0x0BE2 [0x03] Work_Zone[2] = ExtData[1]->WorkLocal[4]
147: 0x0BE7 [0x48] [System] [16208*]:
    → "[./././././5/6/7/8/9/10]"
148: 0x0BEA [0x1C] WAIT(150* ticks)
149: 0x0BED [0x52] END_LOAD_SCHEDULER: End scheduler "s102" with entities [LocalPlayer, LocalPlayer], work=612*
150: 0x0BFC [0x1A] CALL_SUBROUTINE(address=0x170E)
151: 0x0BFF [0x02] IF !(ExtData[1]->WorkLocal[7] == 1*) GOTO 0x0C1B
152: 0x0C07 [0x45] LOAD_SCHEDULED_TASK: Load scheduler "s122" with entities [LocalPlayer, LocalPlayer], work=[612*, 0*]
153: 0x0C18 [0x01] GOTO 0x0C48
154: 0x0C1B [0x02] IF !(ExtData[1]->WorkLocal[8] == 1*) GOTO 0x0C37
155: 0x0C23 [0x45] LOAD_SCHEDULED_TASK: Load scheduler "s104" with entities [LocalPlayer, LocalPlayer], work=[612*, 0*]
156: 0x0C34 [0x01] GOTO 0x0C48
157: 0x0C37 [0x45] LOAD_SCHEDULED_TASK: Load scheduler "s103" with entities [LocalPlayer, LocalPlayer], work=[612*, 0*]

SUBROUTINE_0C48:
158: 0x0C48 [0x27] REQ_SET(priority=0x10, entity_id=Unnamed NPC (ID: 17760504/0x010F00F8), tag_num=0x02)
159: 0x0C4F [0x24] CREATE_DIALOG(message_id=16182*, default_option=0*, option_flags=0*)
    → "What number question is this? [Five./Six./Seven./Eight./Nine./Ten.]"
160: 0x0C56 [0x25] WAIT_DIALOG_SELECT()
161: 0x0C57 [0x02] IF !(Work_Zone[0] == 0*) GOTO 0x0C6A
162: 0x0C5F [0x03] ExtData[1]->WorkLocal[6] = 5*
163: 0x0C64 [0x1A] CALL_SUBROUTINE(address=0x14A5)
164: 0x0C67 [0x01] GOTO 0x0CC9
165: 0x0C6A [0x02] IF !(Work_Zone[0] == 1*) GOTO 0x0C7D
166: 0x0C72 [0x03] ExtData[1]->WorkLocal[6] = 6*
167: 0x0C77 [0x1A] CALL_SUBROUTINE(address=0x14A5)
168: 0x0C7A [0x01] GOTO 0x0CC9
169: 0x0C7D [0x02] IF !(Work_Zone[0] == 2*) GOTO 0x0C90
170: 0x0C85 [0x03] ExtData[1]->WorkLocal[6] = 7*
171: 0x0C8A [0x1A] CALL_SUBROUTINE(address=0x14A5)
172: 0x0C8D [0x01] GOTO 0x0CC9
173: 0x0C90 [0x02] IF !(Work_Zone[0] == 3*) GOTO 0x0CA3
174: 0x0C98 [0x03] ExtData[1]->WorkLocal[6] = 8*
175: 0x0C9D [0x1A] CALL_SUBROUTINE(address=0x14A5)
176: 0x0CA0 [0x01] GOTO 0x0CC9
177: 0x0CA3 [0x02] IF !(Work_Zone[0] == 4*) GOTO 0x0CB6
178: 0x0CAB [0x03] ExtData[1]->WorkLocal[6] = 9*
179: 0x0CB0 [0x1A] CALL_SUBROUTINE(address=0x14A5)
180: 0x0CB3 [0x01] GOTO 0x0CC9
181: 0x0CB6 [0x02] IF !(Work_Zone[0] == 5*) GOTO 0x0CC9
182: 0x0CBE [0x03] ExtData[1]->WorkLocal[6] = 10*
183: 0x0CC3 [0x1A] CALL_SUBROUTINE(address=0x14A5)
184: 0x0CC6 [0x01] GOTO 0x0CC9

SUBROUTINE_0CC9:
185: 0x0CC9 [0x27] REQ_SET(priority=0x10, entity_id=Unnamed NPC (ID: 17760504/0x010F00F8), tag_num=0x03)
186: 0x0CD0 [0x02] IF !(ExtData[1]->WorkLocal[5] == 1*) GOTO 0x0CDB
187: 0x0CD8 [0x01] GOTO 0x0E67
188: 0x0CDB [0x5C] MUSIC_CONTROL: Set Idle (Day) music to song 162*
189: 0x0CDF [0x5C] MUSIC_CONTROL: Set Idle (Night) music to song 162*
190: 0x0CE3 [0x9A] WAIT_MUSIC_SERVER()
191: 0x0CE4 [0x5D] SET_MUSIC_VOLUME(volume=127*, fade_time=120*)
192: 0x0CE9 [0x45] LOAD_SCHEDULED_TASK: Load scheduler "s112" with entities [LocalPlayer, LocalPlayer], work=[612*, 0*]
193: 0x0CFA [0x1C] WAIT(20* ticks)
194: 0x0CFD [0x2B] Ohruru (ID: 17760280/0x010F0018) [16187*]:
    → "As I promised, I recognize your talentaru as a rune fencer. I'll also let Octavien know that you've passed and your survey-wurvey is over."
195: 0x0D04 [0x23] WAIT_FOR_DIALOG_INTERACTION
196: 0x0D05 [0x66] LOAD_EXT_SCHEDULER_MAIN: Load scheduler "tlk0" with entities [Ohruru (ID: 17760280/0x010F0018), Ohruru (ID: 17760280/0x010F0018)], work=189*
197: 0x0D14 [0x1C] WAIT(10* ticks)
198: 0x0D17 [0x52] END_LOAD_SCHEDULER: End scheduler "s112" with entities [LocalPlayer, LocalPlayer], work=612*
199: 0x0D26 [0x45] LOAD_SCHEDULED_TASK: Load scheduler "s113" with entities [LocalPlayer, LocalPlayer], work=[612*, 0*]
200: 0x0D37 [0x1C] WAIT(20* ticks)
201: 0x0D3A [0x2B] Ohruru (ID: 17760280/0x010F0018) [16188*]:
    → "Sorry to spring a testaru on you all of a sudden-den-den."
202: 0x0D41 [0x23] WAIT_FOR_DIALOG_INTERACTION
203: 0x0D42 [0x66] LOAD_EXT_SCHEDULER_MAIN: Load scheduler "tlk1" with entities [Ohruru (ID: 17760280/0x010F0018), Ohruru (ID: 17760280/0x010F0018)], work=189*
204: 0x0D51 [0x1C] WAIT(30* ticks)
205: 0x0D54 [0x2B] Ohruru (ID: 17760280/0x010F0018) [16189*]:
    → "I just wanted to make sure you were worthy of receiving-weiving this."
206: 0x0D5B [0x23] WAIT_FOR_DIALOG_INTERACTION
207: 0x0D5C [0x66] LOAD_EXT_SCHEDULER_MAIN: Load scheduler "pas0" with entities [Ohruru (ID: 17760280/0x010F0018), Ohruru (ID: 17760280/0x010F0018)], work=111*
208: 0x0D6B [0x1C] WAIT(35* ticks)
209: 0x0D6E [0x52] END_LOAD_SCHEDULER: End scheduler "s113" with entities [LocalPlayer, LocalPlayer], work=612*
210: 0x0D7D [0x1A] CALL_SUBROUTINE(address=0x170E)
211: 0x0D80 [0x02] IF !(ExtData[1]->WorkLocal[8] == 1*) GOTO 0x0D9C
212: 0x0D88 [0x45] LOAD_SCHEDULED_TASK: Load scheduler "s115" with entities [LocalPlayer, LocalPlayer], work=[612*, 0*]
213: 0x0D99 [0x01] GOTO 0x0DAD
214: 0x0D9C [0x45] LOAD_SCHEDULED_TASK: Load scheduler "s114" with entities [LocalPlayer, LocalPlayer], work=[612*, 0*]

SUBROUTINE_0DAD:
215: 0x0DAD [0x2B] Ohruru (ID: 17760280/0x010F0018) [16190*]:
    → "Members of the Orastery have handed it down through generations-tions-tions."
216: 0x0DB4 [0x23] WAIT_FOR_DIALOG_INTERACTION
217: 0x0DB5 [0x1C] WAIT(35* ticks)
218: 0x0DB8 [0x2B] Ohruru (ID: 17760280/0x010F0018) [16191*]:
    → "A little birdie-wirdie told me it's something a rune fencer could use."
219: 0x0DBF [0x23] WAIT_FOR_DIALOG_INTERACTION
220: 0x0DC0 [0x52] END_LOAD_SCHEDULER: End scheduler "s115" with entities [LocalPlayer, LocalPlayer], work=612*
221: 0x0DCF [0x52] END_LOAD_SCHEDULER: End scheduler "s114" with entities [LocalPlayer, LocalPlayer], work=612*
222: 0x0DDE [0x45] LOAD_SCHEDULED_TASK: Load scheduler "s116" with entities [LocalPlayer, LocalPlayer], work=[612*, 0*]
223: 0x0DEF [0x66] LOAD_EXT_SCHEDULER_MAIN: Load scheduler "tlk0" with entities [Ohruru (ID: 17760280/0x010F0018), Ohruru (ID: 17760280/0x010F0018)], work=40*
224: 0x0DFE [0x1C] WAIT(30* ticks)
225: 0x0E01 [0x2B] Ohruru (ID: 17760280/0x010F0018) [16192*]:
    → "While it certainly is alluring, there's no pointaru in having a Windurstian like me hold onto it."
226: 0x0E08 [0x23] WAIT_FOR_DIALOG_INTERACTION
227: 0x0E09 [0x66] LOAD_EXT_SCHEDULER_MAIN: Load scheduler "tlk1" with entities [Ohruru (ID: 17760280/0x010F0018), Ohruru (ID: 17760280/0x010F0018)], work=40*
228: 0x0E18 [0x1C] WAIT(30* ticks)
229: 0x0E1B [0x66] LOAD_EXT_SCHEDULER_MAIN: Load scheduler "pos0" with entities [Ohruru (ID: 17760280/0x010F0018), Ohruru (ID: 17760280/0x010F0018)], work=114*
230: 0x0E2A [0x2B] Ohruru (ID: 17760280/0x010F0018) [16193*]:
    → "When you return-wurn to Adoulin, please give my regards to Octavien-en-en."
231: 0x0E31 [0x23] WAIT_FOR_DIALOG_INTERACTION
232: 0x0E32 [0x52] END_LOAD_SCHEDULER: End scheduler "s116" with entities [LocalPlayer, LocalPlayer], work=612*
233: 0x0E41 [0x45] LOAD_SCHEDULED_TASK: Load scheduler "s117" with entities [LocalPlayer, LocalPlayer], work=[612*, 0*]
234: 0x0E52 [0x1C] WAIT(30* ticks)
235: 0x0E55 [0x6E] LocalPlayer uses emote 1*
236: 0x0E5C [0x99] Wait for LocalPlayer animation to complete
237: 0x0E61 [0x1C] WAIT(90* ticks)
238: 0x0E64 [0x05] Work_Zone[1] = 1

SUBROUTINE_0E67:
239: 0x0E67 [0x1A] CALL_SUBROUTINE(address=0x0064)
240: 0x0E6A [0x1C] WAIT(30* ticks)
241: 0x0E6D [0x52] END_LOAD_SCHEDULER: End scheduler "s117" with entities [LocalPlayer, LocalPlayer], work=612*
242: 0x0E7C [0x5C] MUSIC_CONTROL: Set Idle (Day) music to song 151*
243: 0x0E80 [0x5C] MUSIC_CONTROL: Set Idle (Night) music to song 151*
244: 0x0E84 [0x9A] WAIT_MUSIC_SERVER()
245: 0x0E85 [0x1C] WAIT(15* ticks)
246: 0x0E88 [0xAB] EventEntity->DespawnValue = 0* // Set despawn value
247: 0x0E8C [0x1C] WAIT(1* ticks)
248: 0x0E8F [0xAB] EventEntity->UnknownFlag = 0 // Disable unknown flag
249: 0x0E91 [0x46] CAMERA_CONTROL: Restore default settings
250: 0x0E93 [0x45] LOAD_SCHEDULED_TASK: Load scheduler "fdi2" with entities [LocalPlayer, LocalPlayer], work=[200*, 0*]
251: 0x0EA4 [0x21] END_EVENT
252: 0x0EA5 [0x00] END_REQSTACK()

SUBROUTINE_0EA6:
253: 0x0EA6 [0x45] LOAD_SCHEDULED_TASK: Load scheduler "s102" with entities [LocalPlayer, LocalPlayer], work=[612*, 0*]
254: 0x0EB7 [0x13] ExtData[1]->WorkLocal[1] = rand() % 7*
255: 0x0EBC [0x03] Work_Zone[2] = ExtData[1]->WorkLocal[1]
256: 0x0EC1 [0x2B] Ohruru (ID: 17760280/0x010F0018) [16175*]:
    → "Your opponentaru is a virtuoso with [Fire/Blizzard/Aero/Stone/Thunder/Water/Holy/Drain]. Which rune do you use-use-use?"
257: 0x0EC8 [0x02] IF !(ExtData[1]->WorkLocal[0] == 999*) GOTO 0x0ED3
258: 0x0ED0 [0x48] [System] [16205*]:
    → "[Unda/Ignis/Gelus/Flabra/Tellus/Sulpor/Tenebrae/Lux]"
259: 0x0ED3 [0x1C] WAIT(150* ticks)
260: 0x0ED6 [0x52] END_LOAD_SCHEDULER: End scheduler "s102" with entities [LocalPlayer, LocalPlayer], work=612*
261: 0x0EE5 [0x1A] CALL_SUBROUTINE(address=0x170E)
262: 0x0EE8 [0x02] IF !(ExtData[1]->WorkLocal[7] == 1*) GOTO 0x0F04
263: 0x0EF0 [0x45] LOAD_SCHEDULED_TASK: Load scheduler "s122" with entities [LocalPlayer, LocalPlayer], work=[612*, 0*]
264: 0x0F01 [0x01] GOTO 0x0F31
265: 0x0F04 [0x02] IF !(ExtData[1]->WorkLocal[8] == 1*) GOTO 0x0F20
266: 0x0F0C [0x45] LOAD_SCHEDULED_TASK: Load scheduler "s104" with entities [LocalPlayer, LocalPlayer], work=[612*, 0*]
267: 0x0F1D [0x01] GOTO 0x0F31
268: 0x0F20 [0x45] LOAD_SCHEDULED_TASK: Load scheduler "s103" with entities [LocalPlayer, LocalPlayer], work=[612*, 0*]

SUBROUTINE_0F31:
269: 0x0F31 [0x27] REQ_SET(priority=0x10, entity_id=Unnamed NPC (ID: 17760504/0x010F00F8), tag_num=0x02)
270: 0x0F38 [0x24] CREATE_DIALOG(message_id=16180*, default_option=0*, option_flags=0*)
    → "Choose a rune! [Ignis./Gelus./Flabra./Tellus./Sulpor./Unda./Lux./Tenebrae.]"
271: 0x0F3F [0x25] WAIT_DIALOG_SELECT()
272: 0x0F40 [0x02] IF !(Work_Zone[0] == 0*) GOTO 0x0F53
273: 0x0F48 [0x03] ExtData[1]->WorkLocal[6] = 1*
274: 0x0F4D [0x1A] CALL_SUBROUTINE(address=0x1342)
275: 0x0F50 [0x01] GOTO 0x0FD8
276: 0x0F53 [0x02] IF !(Work_Zone[0] == 1*) GOTO 0x0F66
277: 0x0F5B [0x03] ExtData[1]->WorkLocal[6] = 2*
278: 0x0F60 [0x1A] CALL_SUBROUTINE(address=0x1342)
279: 0x0F63 [0x01] GOTO 0x0FD8
280: 0x0F66 [0x02] IF !(Work_Zone[0] == 2*) GOTO 0x0F79
281: 0x0F6E [0x03] ExtData[1]->WorkLocal[6] = 3*
282: 0x0F73 [0x1A] CALL_SUBROUTINE(address=0x1342)
283: 0x0F76 [0x01] GOTO 0x0FD8
284: 0x0F79 [0x02] IF !(Work_Zone[0] == 3*) GOTO 0x0F8C
285: 0x0F81 [0x03] ExtData[1]->WorkLocal[6] = 4*
286: 0x0F86 [0x1A] CALL_SUBROUTINE(address=0x1342)
287: 0x0F89 [0x01] GOTO 0x0FD8
288: 0x0F8C [0x02] IF !(Work_Zone[0] == 4*) GOTO 0x0F9F
289: 0x0F94 [0x03] ExtData[1]->WorkLocal[6] = 5*
290: 0x0F99 [0x1A] CALL_SUBROUTINE(address=0x1342)
291: 0x0F9C [0x01] GOTO 0x0FD8
292: 0x0F9F [0x02] IF !(Work_Zone[0] == 5*) GOTO 0x0FB2
293: 0x0FA7 [0x03] ExtData[1]->WorkLocal[6] = 0*
294: 0x0FAC [0x1A] CALL_SUBROUTINE(address=0x1342)
295: 0x0FAF [0x01] GOTO 0x0FD8
296: 0x0FB2 [0x02] IF !(Work_Zone[0] == 6*) GOTO 0x0FC5
297: 0x0FBA [0x03] ExtData[1]->WorkLocal[6] = 7*
298: 0x0FBF [0x1A] CALL_SUBROUTINE(address=0x1342)
299: 0x0FC2 [0x01] GOTO 0x0FD8
300: 0x0FC5 [0x02] IF !(Work_Zone[0] == 7*) GOTO 0x0FD8
301: 0x0FCD [0x03] ExtData[1]->WorkLocal[6] = 6*
302: 0x0FD2 [0x1A] CALL_SUBROUTINE(address=0x1342)
303: 0x0FD5 [0x01] GOTO 0x0FD8

SUBROUTINE_0FD8:
304: 0x0FD8 [0x27] REQ_SET(priority=0x10, entity_id=Unnamed NPC (ID: 17760504/0x010F00F8), tag_num=0x03)
305: 0x0FDF [0x1B] RETURN

SUBROUTINE_0FE0:
306: 0x0FE0 [0x45] LOAD_SCHEDULED_TASK: Load scheduler "s107" with entities [LocalPlayer, LocalPlayer], work=[612*, 0*]
307: 0x0FF1 [0x13] ExtData[1]->WorkLocal[1] = rand() % 7*
308: 0x0FF6 [0x03] Work_Zone[2] = ExtData[1]->WorkLocal[1]
309: 0x0FFB [0x2B] Ohruru (ID: 17760280/0x010F0018) [16176*]:
    → "Your opponent is a sadistaru of the highest degree and loves inflicting [Disease/Paralysis/Silence/Slow/Shock/Poison/Charm/Bane] upon people. What rune do you use-use-use?"
310: 0x1002 [0x02] IF !(ExtData[1]->WorkLocal[0] == 999*) GOTO 0x100D
311: 0x100A [0x48] [System] [16205*]:
    → "[Unda/Ignis/Gelus/Flabra/Tellus/Sulpor/Tenebrae/Lux]"
312: 0x100D [0x1C] WAIT(150* ticks)
313: 0x1010 [0x52] END_LOAD_SCHEDULER: End scheduler "s107" with entities [LocalPlayer, LocalPlayer], work=612*
314: 0x101F [0x1A] CALL_SUBROUTINE(address=0x170E)
315: 0x1022 [0x02] IF !(ExtData[1]->WorkLocal[7] == 1*) GOTO 0x103E
316: 0x102A [0x45] LOAD_SCHEDULED_TASK: Load scheduler "s122" with entities [LocalPlayer, LocalPlayer], work=[612*, 0*]
317: 0x103B [0x01] GOTO 0x106B
318: 0x103E [0x02] IF !(ExtData[1]->WorkLocal[8] == 1*) GOTO 0x105A
319: 0x1046 [0x45] LOAD_SCHEDULED_TASK: Load scheduler "s104" with entities [LocalPlayer, LocalPlayer], work=[612*, 0*]
320: 0x1057 [0x01] GOTO 0x106B
321: 0x105A [0x45] LOAD_SCHEDULED_TASK: Load scheduler "s103" with entities [LocalPlayer, LocalPlayer], work=[612*, 0*]

SUBROUTINE_106B:
322: 0x106B [0x27] REQ_SET(priority=0x10, entity_id=Unnamed NPC (ID: 17760504/0x010F00F8), tag_num=0x02)
323: 0x1072 [0x24] CREATE_DIALOG(message_id=16180*, default_option=0*, option_flags=0*)
    → "Choose a rune! [Ignis./Gelus./Flabra./Tellus./Sulpor./Unda./Lux./Tenebrae.]"
324: 0x1079 [0x25] WAIT_DIALOG_SELECT()
325: 0x107A [0x02] IF !(Work_Zone[0] == 0*) GOTO 0x108D
326: 0x1082 [0x03] ExtData[1]->WorkLocal[6] = 1*
327: 0x1087 [0x1A] CALL_SUBROUTINE(address=0x1342)
328: 0x108A [0x01] GOTO 0x1112
329: 0x108D [0x02] IF !(Work_Zone[0] == 1*) GOTO 0x10A0
330: 0x1095 [0x03] ExtData[1]->WorkLocal[6] = 2*
331: 0x109A [0x1A] CALL_SUBROUTINE(address=0x1342)
332: 0x109D [0x01] GOTO 0x1112
333: 0x10A0 [0x02] IF !(Work_Zone[0] == 2*) GOTO 0x10B3
334: 0x10A8 [0x03] ExtData[1]->WorkLocal[6] = 3*
335: 0x10AD [0x1A] CALL_SUBROUTINE(address=0x1342)
336: 0x10B0 [0x01] GOTO 0x1112
337: 0x10B3 [0x02] IF !(Work_Zone[0] == 3*) GOTO 0x10C6
338: 0x10BB [0x03] ExtData[1]->WorkLocal[6] = 4*
339: 0x10C0 [0x1A] CALL_SUBROUTINE(address=0x1342)
340: 0x10C3 [0x01] GOTO 0x1112
341: 0x10C6 [0x02] IF !(Work_Zone[0] == 4*) GOTO 0x10D9
342: 0x10CE [0x03] ExtData[1]->WorkLocal[6] = 5*
343: 0x10D3 [0x1A] CALL_SUBROUTINE(address=0x1342)
344: 0x10D6 [0x01] GOTO 0x1112
345: 0x10D9 [0x02] IF !(Work_Zone[0] == 5*) GOTO 0x10EC
346: 0x10E1 [0x03] ExtData[1]->WorkLocal[6] = 0*
347: 0x10E6 [0x1A] CALL_SUBROUTINE(address=0x1342)
348: 0x10E9 [0x01] GOTO 0x1112
349: 0x10EC [0x02] IF !(Work_Zone[0] == 6*) GOTO 0x10FF
350: 0x10F4 [0x03] ExtData[1]->WorkLocal[6] = 7*
351: 0x10F9 [0x1A] CALL_SUBROUTINE(address=0x1342)
352: 0x10FC [0x01] GOTO 0x1112
353: 0x10FF [0x02] IF !(Work_Zone[0] == 7*) GOTO 0x1112
354: 0x1107 [0x03] ExtData[1]->WorkLocal[6] = 6*
355: 0x110C [0x1A] CALL_SUBROUTINE(address=0x1342)
356: 0x110F [0x01] GOTO 0x1112

SUBROUTINE_1112:
357: 0x1112 [0x27] REQ_SET(priority=0x10, entity_id=Unnamed NPC (ID: 17760504/0x010F00F8), tag_num=0x03)
358: 0x1119 [0x1B] RETURN

SUBROUTINE_111A:
359: 0x111A [0x45] LOAD_SCHEDULED_TASK: Load scheduler "s102" with entities [LocalPlayer, LocalPlayer], work=[612*, 0*]
360: 0x112B [0x13] ExtData[1]->WorkLocal[1] = rand() % 7*
361: 0x1130 [0x03] Work_Zone[2] = ExtData[1]->WorkLocal[1]
362: 0x1135 [0x2B] Ohruru (ID: 17760280/0x010F0018) [16178*]:
    → "Your opponentaru can't stomach [flame/ice/wind/earth/lightning/water/light/dark] damage. What rune do you use-use-use?"
363: 0x113C [0x02] IF !(ExtData[1]->WorkLocal[0] == 999*) GOTO 0x1147
364: 0x1144 [0x48] [System] [16206*]:
    → "[Ignis/Gelus/Flabra/Tellus/Sulpor/Unda/Lux/Tenebrae]"
365: 0x1147 [0x1C] WAIT(150* ticks)
366: 0x114A [0x52] END_LOAD_SCHEDULER: End scheduler "s102" with entities [LocalPlayer, LocalPlayer], work=612*
367: 0x1159 [0x1A] CALL_SUBROUTINE(address=0x170E)
368: 0x115C [0x02] IF !(ExtData[1]->WorkLocal[7] == 1*) GOTO 0x1178
369: 0x1164 [0x45] LOAD_SCHEDULED_TASK: Load scheduler "s122" with entities [LocalPlayer, LocalPlayer], work=[612*, 0*]
370: 0x1175 [0x01] GOTO 0x11A5
371: 0x1178 [0x02] IF !(ExtData[1]->WorkLocal[8] == 1*) GOTO 0x1194
372: 0x1180 [0x45] LOAD_SCHEDULED_TASK: Load scheduler "s104" with entities [LocalPlayer, LocalPlayer], work=[612*, 0*]
373: 0x1191 [0x01] GOTO 0x11A5
374: 0x1194 [0x45] LOAD_SCHEDULED_TASK: Load scheduler "s103" with entities [LocalPlayer, LocalPlayer], work=[612*, 0*]

SUBROUTINE_11A5:
375: 0x11A5 [0x27] REQ_SET(priority=0x10, entity_id=Unnamed NPC (ID: 17760504/0x010F00F8), tag_num=0x02)
376: 0x11AC [0x24] CREATE_DIALOG(message_id=16180*, default_option=0*, option_flags=0*)
    → "Choose a rune! [Ignis./Gelus./Flabra./Tellus./Sulpor./Unda./Lux./Tenebrae.]"
377: 0x11B3 [0x25] WAIT_DIALOG_SELECT()
378: 0x11B4 [0x02] IF !(Work_Zone[0] == 0*) GOTO 0x11C7
379: 0x11BC [0x03] ExtData[1]->WorkLocal[6] = 0*
380: 0x11C1 [0x1A] CALL_SUBROUTINE(address=0x1342)
381: 0x11C4 [0x01] GOTO 0x124C
382: 0x11C7 [0x02] IF !(Work_Zone[0] == 1*) GOTO 0x11DA
383: 0x11CF [0x03] ExtData[1]->WorkLocal[6] = 1*
384: 0x11D4 [0x1A] CALL_SUBROUTINE(address=0x1342)
385: 0x11D7 [0x01] GOTO 0x124C
386: 0x11DA [0x02] IF !(Work_Zone[0] == 2*) GOTO 0x11ED
387: 0x11E2 [0x03] ExtData[1]->WorkLocal[6] = 2*
388: 0x11E7 [0x1A] CALL_SUBROUTINE(address=0x1342)
389: 0x11EA [0x01] GOTO 0x124C
390: 0x11ED [0x02] IF !(Work_Zone[0] == 3*) GOTO 0x1200
391: 0x11F5 [0x03] ExtData[1]->WorkLocal[6] = 3*
392: 0x11FA [0x1A] CALL_SUBROUTINE(address=0x1342)
393: 0x11FD [0x01] GOTO 0x124C
394: 0x1200 [0x02] IF !(Work_Zone[0] == 4*) GOTO 0x1213
395: 0x1208 [0x03] ExtData[1]->WorkLocal[6] = 4*
396: 0x120D [0x1A] CALL_SUBROUTINE(address=0x1342)
397: 0x1210 [0x01] GOTO 0x124C
398: 0x1213 [0x02] IF !(Work_Zone[0] == 5*) GOTO 0x1226
399: 0x121B [0x03] ExtData[1]->WorkLocal[6] = 5*
400: 0x1220 [0x1A] CALL_SUBROUTINE(address=0x1342)
401: 0x1223 [0x01] GOTO 0x124C
402: 0x1226 [0x02] IF !(Work_Zone[0] == 6*) GOTO 0x1239
403: 0x122E [0x03] ExtData[1]->WorkLocal[6] = 6*
404: 0x1233 [0x1A] CALL_SUBROUTINE(address=0x1342)
405: 0x1236 [0x01] GOTO 0x124C
406: 0x1239 [0x02] IF !(Work_Zone[0] == 7*) GOTO 0x124C
407: 0x1241 [0x03] ExtData[1]->WorkLocal[6] = 7*
408: 0x1246 [0x1A] CALL_SUBROUTINE(address=0x1342)
409: 0x1249 [0x01] GOTO 0x124C

SUBROUTINE_124C:
410: 0x124C [0x27] REQ_SET(priority=0x10, entity_id=Unnamed NPC (ID: 17760504/0x010F00F8), tag_num=0x03)
411: 0x1253 [0x1B] RETURN

SUBROUTINE_1254:
412: 0x1254 [0x45] LOAD_SCHEDULED_TASK: Load scheduler "s102" with entities [LocalPlayer, LocalPlayer], work=[612*, 0*]
413: 0x1265 [0x13] ExtData[1]->WorkLocal[1] = rand() % 2*
414: 0x126A [0x03] Work_Zone[2] = ExtData[1]->WorkLocal[1]
415: 0x126F [0x2B] Ohruru (ID: 17760280/0x010F0018) [16177*]:
    → "Which ward should you use when you want to [reduce elementaru damage/raise-waise resistances/absorb-worb elemental damage]?"
416: 0x1276 [0x02] IF !(ExtData[1]->WorkLocal[0] == 999*) GOTO 0x1281
417: 0x127E [0x48] [System] [16207*]:
    → "[Vallation or Valiance/Pflug/Liemont]"
418: 0x1281 [0x1C] WAIT(150* ticks)
419: 0x1284 [0x52] END_LOAD_SCHEDULER: End scheduler "s102" with entities [LocalPlayer, LocalPlayer], work=612*
420: 0x1293 [0x1A] CALL_SUBROUTINE(address=0x170E)
421: 0x1296 [0x02] IF !(ExtData[1]->WorkLocal[7] == 1*) GOTO 0x12B2
422: 0x129E [0x45] LOAD_SCHEDULED_TASK: Load scheduler "s122" with entities [LocalPlayer, LocalPlayer], work=[612*, 0*]
423: 0x12AF [0x01] GOTO 0x12DF
424: 0x12B2 [0x02] IF !(ExtData[1]->WorkLocal[8] == 1*) GOTO 0x12CE
425: 0x12BA [0x45] LOAD_SCHEDULED_TASK: Load scheduler "s104" with entities [LocalPlayer, LocalPlayer], work=[612*, 0*]
426: 0x12CB [0x01] GOTO 0x12DF
427: 0x12CE [0x45] LOAD_SCHEDULED_TASK: Load scheduler "s103" with entities [LocalPlayer, LocalPlayer], work=[612*, 0*]

SUBROUTINE_12DF:
428: 0x12DF [0x27] REQ_SET(priority=0x10, entity_id=Unnamed NPC (ID: 17760504/0x010F00F8), tag_num=0x02)
429: 0x12E6 [0x24] CREATE_DIALOG(message_id=16181*, default_option=0*, option_flags=0*)
    → "Choose the appropriate ward! [Vallation./Pflug./Valiance./Liemont.]"
430: 0x12ED [0x25] WAIT_DIALOG_SELECT()
431: 0x12EE [0x02] IF !(Work_Zone[0] == 0*) GOTO 0x1301
432: 0x12F6 [0x03] ExtData[1]->WorkLocal[6] = 0*
433: 0x12FB [0x1A] CALL_SUBROUTINE(address=0x1342)
434: 0x12FE [0x01] GOTO 0x133A
435: 0x1301 [0x02] IF !(Work_Zone[0] == 1*) GOTO 0x1314
436: 0x1309 [0x03] ExtData[1]->WorkLocal[6] = 1*
437: 0x130E [0x1A] CALL_SUBROUTINE(address=0x1342)
438: 0x1311 [0x01] GOTO 0x133A
439: 0x1314 [0x02] IF !(Work_Zone[0] == 2*) GOTO 0x1327
440: 0x131C [0x03] ExtData[1]->WorkLocal[6] = 0*
441: 0x1321 [0x1A] CALL_SUBROUTINE(address=0x1342)
442: 0x1324 [0x01] GOTO 0x133A
443: 0x1327 [0x02] IF !(Work_Zone[0] == 3*) GOTO 0x133A
444: 0x132F [0x03] ExtData[1]->WorkLocal[6] = 2*
445: 0x1334 [0x1A] CALL_SUBROUTINE(address=0x1342)
446: 0x1337 [0x01] GOTO 0x133A

SUBROUTINE_133A:
447: 0x133A [0x27] REQ_SET(priority=0x10, entity_id=Unnamed NPC (ID: 17760504/0x010F00F8), tag_num=0x03)
448: 0x1341 [0x1B] RETURN

SUBROUTINE_1342:
449: 0x1342 [0x52] END_LOAD_SCHEDULER: End scheduler "s122" with entities [LocalPlayer, LocalPlayer], work=612*
450: 0x1351 [0x52] END_LOAD_SCHEDULER: End scheduler "s104" with entities [LocalPlayer, LocalPlayer], work=612*
451: 0x1360 [0x52] END_LOAD_SCHEDULER: End scheduler "s103" with entities [LocalPlayer, LocalPlayer], work=612*
452: 0x136F [0x02] IF !(Work_Zone[71] == 0*) GOTO 0x1454
453: 0x1377 [0x06] Work_Zone[70] = 0
454: 0x137A [0x02] IF !(ExtData[1]->WorkLocal[1] == ExtData[1]->WorkLocal[6]) GOTO 0x1401
455: 0x1382 [0x0B] ExtData[1]->WorkLocal[4]++
456: 0x1385 [0x1A] CALL_SUBROUTINE(address=0x170E)
457: 0x1388 [0x02] IF !(ExtData[1]->WorkLocal[8] == 1*) GOTO 0x13A4
458: 0x1390 [0x45] LOAD_SCHEDULED_TASK: Load scheduler "s119" with entities [LocalPlayer, LocalPlayer], work=[612*, 0*]
459: 0x13A1 [0x01] GOTO 0x13B5
460: 0x13A4 [0x45] LOAD_SCHEDULED_TASK: Load scheduler "s105" with entities [LocalPlayer, LocalPlayer], work=[612*, 0*]

SUBROUTINE_13B5:
461: 0x13B5 [0x45] LOAD_SCHEDULED_TASK: Load scheduler "s031" with entities [LocalPlayer, LocalPlayer], work=[200*, 0*]
462: 0x13C6 [0x6E] Ohruru (ID: 17760280/0x010F0018) uses emote 7*
463: 0x13CD [0x99] Wait for Ohruru (ID: 17760280/0x010F0018) animation to complete
464: 0x13D2 [0x1C] WAIT(20* ticks)
465: 0x13D5 [0x2B] Ohruru (ID: 17760280/0x010F0018) [16183*]:
    → "Correctaru! On to the next question-tion-tion."
466: 0x13DC [0x23] WAIT_FOR_DIALOG_INTERACTION
467: 0x13DD [0x1C] WAIT(45* ticks)
468: 0x13E0 [0x52] END_LOAD_SCHEDULER: End scheduler "s119" with entities [LocalPlayer, LocalPlayer], work=612*
469: 0x13EF [0x52] END_LOAD_SCHEDULER: End scheduler "s105" with entities [LocalPlayer, LocalPlayer], work=612*
470: 0x13FE [0x01] GOTO 0x1451
471: 0x1401 [0x05] ExtData[1]->WorkLocal[5] = 1
472: 0x1404 [0x45] LOAD_SCHEDULED_TASK: Load scheduler "s106" with entities [LocalPlayer, LocalPlayer], work=[612*, 0*]
473: 0x1415 [0x5D] SET_MUSIC_VOLUME(volume=0*, fade_time=0*)
474: 0x141A [0x45] LOAD_SCHEDULED_TASK: Load scheduler "s032" with entities [LocalPlayer, LocalPlayer], work=[200*, 0*]
475: 0x142B [0x2B] Ohruru (ID: 17760280/0x010F0018) [16185*]:
    → "Wrong! I thoughtaru you were a rune fencer, not a buffoon dispenser!"
476: 0x1432 [0x23] WAIT_FOR_DIALOG_INTERACTION
477: 0x1433 [0x6E] LocalPlayer uses emote 19*
478: 0x143A [0x99] Wait for LocalPlayer animation to complete
479: 0x143F [0x1C] WAIT(90* ticks)
480: 0x1442 [0x52] END_LOAD_SCHEDULER: End scheduler "s106" with entities [LocalPlayer, LocalPlayer], work=612*

SUBROUTINE_1451:
481: 0x1451 [0x01] GOTO 0x14A4
482: 0x1454 [0x05] ExtData[1]->WorkLocal[5] = 1
483: 0x1457 [0x45] LOAD_SCHEDULED_TASK: Load scheduler "s106" with entities [LocalPlayer, LocalPlayer], work=[612*, 0*]
484: 0x1468 [0x5D] SET_MUSIC_VOLUME(volume=0*, fade_time=0*)
485: 0x146D [0x45] LOAD_SCHEDULED_TASK: Load scheduler "s029" with entities [LocalPlayer, LocalPlayer], work=[200*, 0*]
486: 0x147E [0x2B] Ohruru (ID: 17760280/0x010F0018) [16184*]:
    → "Time's up! You snooze, you lose-lose-lose."
487: 0x1485 [0x23] WAIT_FOR_DIALOG_INTERACTION
488: 0x1486 [0x6E] LocalPlayer uses emote 29*
489: 0x148D [0x99] Wait for LocalPlayer animation to complete
490: 0x1492 [0x1C] WAIT(90* ticks)
491: 0x1495 [0x52] END_LOAD_SCHEDULER: End scheduler "s106" with entities [LocalPlayer, LocalPlayer], work=612*

SUBROUTINE_14A4:
492: 0x14A4 [0x1B] RETURN

SUBROUTINE_14A5:
493: 0x14A5 [0x52] END_LOAD_SCHEDULER: End scheduler "s122" with entities [LocalPlayer, LocalPlayer], work=612*
494: 0x14B4 [0x52] END_LOAD_SCHEDULER: End scheduler "s104" with entities [LocalPlayer, LocalPlayer], work=612*
495: 0x14C3 [0x52] END_LOAD_SCHEDULER: End scheduler "s103" with entities [LocalPlayer, LocalPlayer], work=612*
496: 0x14D2 [0x02] IF !(Work_Zone[71] == 0*) GOTO 0x1672
497: 0x14DA [0x06] Work_Zone[70] = 0
498: 0x14DD [0x02] IF !(ExtData[1]->WorkLocal[4] == ExtData[1]->WorkLocal[6]) GOTO 0x161F
499: 0x14E5 [0x45] LOAD_SCHEDULED_TASK: Load scheduler "s108" with entities [LocalPlayer, LocalPlayer], work=[612*, 0*]
500: 0x14F6 [0x5D] SET_MUSIC_VOLUME(volume=0*, fade_time=120*)
501: 0x14FB [0x7B] Ohruru (ID: 17760280/0x010F0018) stops talking
502: 0x1500 [0x66] LOAD_EXT_SCHEDULER_MAIN: Load scheduler "thk1" with entities [Ohruru (ID: 17760280/0x010F0018), Ohruru (ID: 17760280/0x010F0018)], work=40*
503: 0x150F [0x1C] WAIT(270* ticks)
504: 0x1512 [0x52] END_LOAD_SCHEDULER: End scheduler "s108" with entities [LocalPlayer, LocalPlayer], work=612*
505: 0x1521 [0x1A] CALL_SUBROUTINE(address=0x170E)
506: 0x1524 [0x02] IF !(ExtData[1]->WorkLocal[7] == 1*) GOTO 0x1540
507: 0x152C [0x45] LOAD_SCHEDULED_TASK: Load scheduler "s109" with entities [LocalPlayer, LocalPlayer], work=[612*, 0*]
508: 0x153D [0x01] GOTO 0x156D
509: 0x1540 [0x02] IF !(ExtData[1]->WorkLocal[8] == 1*) GOTO 0x155C
510: 0x1548 [0x45] LOAD_SCHEDULED_TASK: Load scheduler "s110" with entities [LocalPlayer, LocalPlayer], work=[612*, 0*]
511: 0x1559 [0x01] GOTO 0x156D
512: 0x155C [0x45] LOAD_SCHEDULED_TASK: Load scheduler "s123" with entities [LocalPlayer, LocalPlayer], work=[612*, 0*]

SUBROUTINE_156D:
513: 0x156D [0x1C] WAIT(300* ticks)
514: 0x1570 [0x52] END_LOAD_SCHEDULER: End scheduler "s110" with entities [LocalPlayer, LocalPlayer], work=612*
515: 0x157F [0x52] END_LOAD_SCHEDULER: End scheduler "s109" with entities [LocalPlayer, LocalPlayer], work=612*
516: 0x158E [0x52] END_LOAD_SCHEDULER: End scheduler "s123" with entities [LocalPlayer, LocalPlayer], work=612*
517: 0x159D [0x45] LOAD_SCHEDULED_TASK: Load scheduler "s111" with entities [LocalPlayer, LocalPlayer], work=[612*, 0*]
518: 0x15AE [0x1C] WAIT(120* ticks)
519: 0x15B1 [0x66] LOAD_EXT_SCHEDULER_MAIN: Load scheduler "thk2" with entities [Ohruru (ID: 17760280/0x010F0018), Ohruru (ID: 17760280/0x010F0018)], work=40*
520: 0x15C0 [0x79] Ohruru (ID: 17760280/0x010F0018) looks at LocalPlayer (Basic look)
521: 0x15CA [0x1C] WAIT(300* ticks)
522: 0x15CD [0x66] LOAD_EXT_SCHEDULER_MAIN: Load scheduler "pos0" with entities [Ohruru (ID: 17760280/0x010F0018), Ohruru (ID: 17760280/0x010F0018)], work=114*
523: 0x15DC [0x1C] WAIT(20* ticks)
524: 0x15DF [0x45] LOAD_SCHEDULED_TASK: Load scheduler "fan4" with entities [LocalPlayer, LocalPlayer], work=[200*, 0*]
525: 0x15F0 [0x2B] Ohruru (ID: 17760280/0x010F0018) [16186*]:
    → "A peal-weal of trumpetarus from the heavens! You got a perfect score-score-score."
526: 0x15F7 [0x23] WAIT_FOR_DIALOG_INTERACTION
527: 0x15F8 [0x1C] WAIT(20* ticks)
528: 0x15FB [0x66] LOAD_EXT_SCHEDULER_MAIN: Load scheduler "syu0" with entities [Ohruru (ID: 17760280/0x010F0018), Ohruru (ID: 17760280/0x010F0018)], work=40*
529: 0x160A [0x1C] WAIT(45* ticks)
530: 0x160D [0x52] END_LOAD_SCHEDULER: End scheduler "s111" with entities [LocalPlayer, LocalPlayer], work=612*
531: 0x161C [0x01] GOTO 0x166F
532: 0x161F [0x05] ExtData[1]->WorkLocal[5] = 1
533: 0x1622 [0x45] LOAD_SCHEDULED_TASK: Load scheduler "s106" with entities [LocalPlayer, LocalPlayer], work=[612*, 0*]
534: 0x1633 [0x5D] SET_MUSIC_VOLUME(volume=0*, fade_time=0*)
535: 0x1638 [0x45] LOAD_SCHEDULED_TASK: Load scheduler "s032" with entities [LocalPlayer, LocalPlayer], work=[200*, 0*]
536: 0x1649 [0x2B] Ohruru (ID: 17760280/0x010F0018) [16185*]:
    → "Wrong! I thoughtaru you were a rune fencer, not a buffoon dispenser!"
537: 0x1650 [0x23] WAIT_FOR_DIALOG_INTERACTION
538: 0x1651 [0x6E] LocalPlayer uses emote 19*
539: 0x1658 [0x99] Wait for LocalPlayer animation to complete
540: 0x165D [0x1C] WAIT(90* ticks)
541: 0x1660 [0x52] END_LOAD_SCHEDULER: End scheduler "s106" with entities [LocalPlayer, LocalPlayer], work=612*

SUBROUTINE_166F:
542: 0x166F [0x01] GOTO 0x16C2
543: 0x1672 [0x05] ExtData[1]->WorkLocal[5] = 1
544: 0x1675 [0x45] LOAD_SCHEDULED_TASK: Load scheduler "s106" with entities [LocalPlayer, LocalPlayer], work=[612*, 0*]
545: 0x1686 [0x5D] SET_MUSIC_VOLUME(volume=0*, fade_time=0*)
546: 0x168B [0x45] LOAD_SCHEDULED_TASK: Load scheduler "s029" with entities [LocalPlayer, LocalPlayer], work=[200*, 0*]
547: 0x169C [0x2B] Ohruru (ID: 17760280/0x010F0018) [16184*]:
    → "Time's up! You snooze, you lose-lose-lose."
548: 0x16A3 [0x23] WAIT_FOR_DIALOG_INTERACTION
549: 0x16A4 [0x6E] LocalPlayer uses emote 29*
550: 0x16AB [0x99] Wait for LocalPlayer animation to complete
551: 0x16B0 [0x1C] WAIT(90* ticks)
552: 0x16B3 [0x52] END_LOAD_SCHEDULER: End scheduler "s106" with entities [LocalPlayer, LocalPlayer], work=612*

SUBROUTINE_16C2:
553: 0x16C2 [0x1B] RETURN
```

### Event 890

#### Metadata

| Field        | Value     |
|--------------|-----------|
| Entrypoint   | 0x16C3    |
| Data Size    | 153 bytes |
| Instructions | 10        |

```
      00 01 02 03 04 05 06 07  08 09 0A 0B 0C 0D 0E 0F
      -- -- -- -- -- -- -- --  -- -- -- -- -- -- -- --
16C0:          4A 18 00 0F 01  F0 FF FF 7F 4A F0 FF FF     J........J...
16D0: 7F 18 00 0F 01 6F 76 18  00 0F 01 2B 18 00 0F 01  .....ov....+....
16E0: 53 80 23 2B 18 00 0F 01  54 80 23 21 00 45 6B 80  S.#+....T.#!.Ek.
16F0: F0 FF FF 7F F0 FF FF 7F  30 30 62 6C 01 80 55 6B  ........00bl..Uk
1700: 80 F0 FF FF 7F F0 FF FF  7F 30 30 62 6C 1B 29 10  .........00bl.).
1710: F0 FF FF 7F 03 02 02 10  44 80 80 23 17 05 07 00  ........D..#....
1720: 01 5B 17 02 02 10 4D 80  80 31 17 05 07 00 01 5B  .[....M..1.....[
1730: 17 02 02 10 4C 80 80 3F  17 05 08 00 01 5B 17 02  ....L..?.....[..
1740: 02 10 4A 80 80 4D 17 05  08 00 01 5B 17 02 02 10  ..J..M.....[....
1750: 47 80 80 5B 17 05 07 00  01 5B 17 1B              G..[.....[..    
```

#### Opcodes

```
  0: 0x16C3 [0x4A] Ohruru (ID: 17760280/0x010F0018) looks at LocalPlayer
  1: 0x16CC [0x4A] LocalPlayer looks at Ohruru (ID: 17760280/0x010F0018)
  2: 0x16D5 [0x6F] WAIT_FRAME_DELAY: Yield until WaitTime reaches zero
  3: 0x16D6 [0x76] CHECK_ENTITY_RENDER_FLAGS: Wait until Ohruru (ID: 17760280/0x010F0018) Render.Flags0 and Render.Flags3 conditions are met
  4: 0x16DB [0x2B] Ohruru (ID: 17760280/0x010F0018) [16187*]:
    → "As I promised, I recognize your talentaru as a rune fencer. I'll also let Octavien know that you've passed and your survey-wurvey is over."
  5: 0x16E2 [0x23] WAIT_FOR_DIALOG_INTERACTION
  6: 0x16E3 [0x2B] Ohruru (ID: 17760280/0x010F0018) [16188*]:
    → "Sorry to spring a testaru on you all of a sudden-den-den."
  7: 0x16EA [0x23] WAIT_FOR_DIALOG_INTERACTION
  8: 0x16EB [0x21] END_EVENT
  9: 0x16EC [0x00] END_REQSTACK()
```

#### Data or dead code:

```
# Dead code (unreachable instructions):
     0x16ED [0x45] LOAD_SCHEDULED_TASK: Load scheduler "00bl" with entities [LocalPlayer, LocalPlayer], work=[610*, 0*]
     0x16FE [0x55] WAIT_LOAD_SCHEDULER: Wait for scheduler "00bl" with entities [LocalPlayer, LocalPlayer], work=610*
     0x170D [0x1B] RETURN
     0x170E [0x29] REQ_SET_WAIT(priority=0x10, entity_id=LocalPlayer, tag_num=0x03)
     0x1715 [0x02] IF !(Work_Zone[2] == 3*) GOTO 0x1723
     0x171D [0x05] ExtData[1]->WorkLocal[7] = 1
     0x1720 [0x01] GOTO 0x175B
     0x1723 [0x02] IF !(Work_Zone[2] == 4*) GOTO 0x1731
     0x172B [0x05] ExtData[1]->WorkLocal[7] = 1
     0x172E [0x01] GOTO 0x175B
     0x1731 [0x02] IF !(Work_Zone[2] == 5*) GOTO 0x173F
     0x1739 [0x05] ExtData[1]->WorkLocal[8] = 1
     0x173C [0x01] GOTO 0x175B
     0x173F [0x02] IF !(Work_Zone[2] == 6*) GOTO 0x174D
     0x1747 [0x05] ExtData[1]->WorkLocal[8] = 1
     0x174A [0x01] GOTO 0x175B
     0x174D [0x02] IF !(Work_Zone[2] == 8*) GOTO 0x175B
     0x1755 [0x05] ExtData[1]->WorkLocal[7] = 1
     0x1758 [0x01] GOTO 0x175B
     0x175B [0x1B] RETURN
```
