# 17760455 - Dealer Moogle

## Common Data

| Field            | Value                   |
|------------------|-------------------------|
| Zone             | Port Windurst (ID: 240) |
| Block Size       | 10812 bytes             |
| Total Events     | 3                       |
| References Count | 503                     |

## List of Events

| Event ID              | Entrypoint   |   Size |   Instructions |
|-----------------------|--------------|--------|----------------|
| [65535](#event-65535) | 0x0000       |      1 |              1 |
| [937](#event-937)     | 0x0001       |     11 |              5 |
| [938](#event-938)     | 0x000C       |   8757 |           1586 |

## DAT References (imed_data)

|   Index | Hex Value   |   Dec Value |
|---------|-------------|-------------|
|       0 | 0x3D33      |       15667 |
|       1 | 0x0000      |           0 |
|       2 | 0x0001      |           1 |
|       3 | 0x3D35      |       15669 |
|       4 | 0x3D36      |       15670 |
|       5 | 0x3D3E      |       15678 |
|       6 | 0x001E      |          30 |
|       7 | 0x001F      |          31 |
|       8 | 0x0007      |           7 |
|       9 | 0x3D43      |       15683 |
|      10 | 0x0002      |           2 |
|      11 | 0x0003      |           3 |
|      12 | 0x0004      |           4 |
|      13 | 0x0005      |           5 |
|      14 | 0x0006      |           6 |
|      15 | 0x0008      |           8 |
|      16 | 0x0009      |           9 |
|      17 | 0x000A      |          10 |
|      18 | 0x000B      |          11 |
|      19 | 0x000C      |          12 |
|      20 | 0x000D      |          13 |
|      21 | 0x000E      |          14 |
|      22 | 0x000F      |          15 |
|      23 | 0x0010      |          16 |
|      24 | 0x3D34      |       15668 |
|      25 | 0x0040      |          64 |
|      26 | 0x0020      |          32 |
|      27 | 0xFFFFFFFF  |  4294967295 |
|      28 | 0x001D      |          29 |
|      29 | 0x003A      |          58 |
|      30 | 0x5D04      |       23812 |
|      31 | 0x3D44      |       15684 |
|      32 | 0x5D05      |       23813 |
|      33 | 0x5D06      |       23814 |
|      34 | 0x5D07      |       23815 |
|      35 | 0x5D08      |       23816 |
|      36 | 0x3D3B      |       15675 |
|      37 | 0x3D3C      |       15676 |
|      38 | 0x3D3F      |       15679 |
|      39 | 0x3D3D      |       15677 |
|      40 | 0x3D40      |       15680 |
|      41 | 0x5D09      |       23817 |
|      42 | 0x5D0A      |       23818 |
|      43 | 0x5D0B      |       23819 |
|      44 | 0x5D0C      |       23820 |
|      45 | 0x5D0D      |       23821 |
|      46 | 0x5D18      |       23832 |
|      47 | 0x5D19      |       23833 |
|      48 | 0x5D1A      |       23834 |
|      49 | 0x5D1B      |       23835 |
|      50 | 0x5D1C      |       23836 |
|      51 | 0x5D0E      |       23822 |
|      52 | 0x5D0F      |       23823 |
|      53 | 0x5D10      |       23824 |
|      54 | 0x5D11      |       23825 |
|      55 | 0x5D12      |       23826 |
|      56 | 0x5D13      |       23827 |
|      57 | 0x5D14      |       23828 |
|      58 | 0x5D15      |       23829 |
|      59 | 0x5D16      |       23830 |
|      60 | 0x5D17      |       23831 |
|      61 | 0x5D30      |       23856 |
|      62 | 0x5D31      |       23857 |
|      63 | 0x5D32      |       23858 |
|      64 | 0x5D33      |       23859 |
|      65 | 0x5D34      |       23860 |
|      66 | 0x5D1D      |       23837 |
|      67 | 0x5D1E      |       23838 |
|      68 | 0x5D1F      |       23839 |
|      69 | 0x5D20      |       23840 |
|      70 | 0x5D21      |       23841 |
|      71 | 0x5D22      |       23842 |
|      72 | 0x5D23      |       23843 |
|      73 | 0x5D24      |       23844 |
|      74 | 0x5D25      |       23845 |
|      75 | 0x5D26      |       23846 |
|      76 | 0x5D27      |       23847 |
|      77 | 0x5D28      |       23848 |
|      78 | 0x5D29      |       23849 |
|      79 | 0x5D2A      |       23850 |
|      80 | 0x5D2B      |       23851 |
|      81 | 0x5D2C      |       23852 |
|      82 | 0x5D2D      |       23853 |
|      83 | 0x5D2E      |       23854 |
|      84 | 0x5D2F      |       23855 |
|      85 | 0x3D57      |       15703 |
|      86 | 0x0011      |          17 |
|      87 | 0x0012      |          18 |
|      88 | 0x0013      |          19 |
|      89 | 0x0014      |          20 |
|      90 | 0x0015      |          21 |
|      91 | 0x0016      |          22 |
|      92 | 0x081F      |        2079 |
|      93 | 0x08FF      |        2303 |
|      94 | 0x1807      |        6151 |
|      95 | 0x3D38      |       15672 |
|      96 | 0x3D39      |       15673 |
|      97 | 0x3D3A      |       15674 |
|      98 | 0x0018      |          24 |
|      99 | 0x5B4F      |       23375 |
|     100 | 0x5B50      |       23376 |
|     101 | 0x5B51      |       23377 |
|     102 | 0x5B52      |       23378 |
|     103 | 0x5B53      |       23379 |
|     104 | 0x5B54      |       23380 |
|     105 | 0x5B55      |       23381 |
|     106 | 0x5B56      |       23382 |
|     107 | 0x5B57      |       23383 |
|     108 | 0x5B58      |       23384 |
|     109 | 0x5B59      |       23385 |
|     110 | 0x5B5A      |       23386 |
|     111 | 0x5B5B      |       23387 |
|     112 | 0x5B5C      |       23388 |
|     113 | 0x5B5D      |       23389 |
|     114 | 0x5B5E      |       23390 |
|     115 | 0x5B5F      |       23391 |
|     116 | 0x5B60      |       23392 |
|     117 | 0x5B61      |       23393 |
|     118 | 0x5B62      |       23394 |
|     119 | 0x5B63      |       23395 |
|     120 | 0x5B64      |       23396 |
|     121 | 0x5B65      |       23397 |
|     122 | 0x5B92      |       23442 |
|     123 | 0x5B93      |       23443 |
|     124 | 0x5B94      |       23444 |
|     125 | 0x5B95      |       23445 |
|     126 | 0x5B96      |       23446 |
|     127 | 0x5B97      |       23447 |
|     128 | 0x5B98      |       23448 |
|     129 | 0x5B99      |       23449 |
|     130 | 0x5B9A      |       23450 |
|     131 | 0x5B9B      |       23451 |
|     132 | 0x5B9C      |       23452 |
|     133 | 0x5B9D      |       23453 |
|     134 | 0x5B9E      |       23454 |
|     135 | 0x5B9F      |       23455 |
|     136 | 0x5BA0      |       23456 |
|     137 | 0x5BA1      |       23457 |
|     138 | 0x5BA2      |       23458 |
|     139 | 0x5BA3      |       23459 |
|     140 | 0x5BA4      |       23460 |
|     141 | 0x5BA5      |       23461 |
|     142 | 0x5BA6      |       23462 |
|     143 | 0x5BA7      |       23463 |
|     144 | 0x5BA8      |       23464 |
|     145 | 0x5BD5      |       23509 |
|     146 | 0x5BD6      |       23510 |
|     147 | 0x5BD7      |       23511 |
|     148 | 0x5BD8      |       23512 |
|     149 | 0x5BD9      |       23513 |
|     150 | 0x5BDA      |       23514 |
|     151 | 0x5BDB      |       23515 |
|     152 | 0x5BDC      |       23516 |
|     153 | 0x5BDD      |       23517 |
|     154 | 0x5BDE      |       23518 |
|     155 | 0x5BDF      |       23519 |
|     156 | 0x5BE0      |       23520 |
|     157 | 0x5BE1      |       23521 |
|     158 | 0x5BE2      |       23522 |
|     159 | 0x5BE3      |       23523 |
|     160 | 0x5BE4      |       23524 |
|     161 | 0x5BE5      |       23525 |
|     162 | 0x5BE6      |       23526 |
|     163 | 0x5BE7      |       23527 |
|     164 | 0x5BE8      |       23528 |
|     165 | 0x5BE9      |       23529 |
|     166 | 0x5BEA      |       23530 |
|     167 | 0x5BEB      |       23531 |
|     168 | 0x5C18      |       23576 |
|     169 | 0x5C19      |       23577 |
|     170 | 0x5C1A      |       23578 |
|     171 | 0x5C1B      |       23579 |
|     172 | 0x5C1C      |       23580 |
|     173 | 0x5C1D      |       23581 |
|     174 | 0x5C1E      |       23582 |
|     175 | 0x5C1F      |       23583 |
|     176 | 0x5C20      |       23584 |
|     177 | 0x5C21      |       23585 |
|     178 | 0x5C22      |       23586 |
|     179 | 0x5C23      |       23587 |
|     180 | 0x5C24      |       23588 |
|     181 | 0x5C25      |       23589 |
|     182 | 0x5C26      |       23590 |
|     183 | 0x5C27      |       23591 |
|     184 | 0x5C28      |       23592 |
|     185 | 0x5C29      |       23593 |
|     186 | 0x5C2A      |       23594 |
|     187 | 0x5C2B      |       23595 |
|     188 | 0x5C2C      |       23596 |
|     189 | 0x5C2D      |       23597 |
|     190 | 0x5C2E      |       23598 |
|     191 | 0x5C5B      |       23643 |
|     192 | 0x5C5C      |       23644 |
|     193 | 0x5C5D      |       23645 |
|     194 | 0x5C5E      |       23646 |
|     195 | 0x5C5F      |       23647 |
|     196 | 0x5C60      |       23648 |
|     197 | 0x5C61      |       23649 |
|     198 | 0x5C62      |       23650 |
|     199 | 0x5C63      |       23651 |
|     200 | 0x5C64      |       23652 |
|     201 | 0x5C65      |       23653 |
|     202 | 0x5C66      |       23654 |
|     203 | 0x5C67      |       23655 |
|     204 | 0x5C68      |       23656 |
|     205 | 0x5C69      |       23657 |
|     206 | 0x5C6A      |       23658 |
|     207 | 0x5C6B      |       23659 |
|     208 | 0x5C6C      |       23660 |
|     209 | 0x5C6D      |       23661 |
|     210 | 0x5C6E      |       23662 |
|     211 | 0x5C6F      |       23663 |
|     212 | 0x5C70      |       23664 |
|     213 | 0x5C71      |       23665 |
|     214 | 0x5B66      |       23398 |
|     215 | 0x5B67      |       23399 |
|     216 | 0x5B68      |       23400 |
|     217 | 0x5B69      |       23401 |
|     218 | 0x5B6A      |       23402 |
|     219 | 0x5B6B      |       23403 |
|     220 | 0x5B6C      |       23404 |
|     221 | 0x5B6D      |       23405 |
|     222 | 0x5B6E      |       23406 |
|     223 | 0x5B6F      |       23407 |
|     224 | 0x5B70      |       23408 |
|     225 | 0x5B71      |       23409 |
|     226 | 0x5B72      |       23410 |
|     227 | 0x5B73      |       23411 |
|     228 | 0x5B74      |       23412 |
|     229 | 0x5B75      |       23413 |
|     230 | 0x5B76      |       23414 |
|     231 | 0x5B77      |       23415 |
|     232 | 0x5B78      |       23416 |
|     233 | 0x5B79      |       23417 |
|     234 | 0x5B7A      |       23418 |
|     235 | 0x5B7B      |       23419 |
|     236 | 0x5BA9      |       23465 |
|     237 | 0x5BAA      |       23466 |
|     238 | 0x5BAB      |       23467 |
|     239 | 0x5BAC      |       23468 |
|     240 | 0x5BAD      |       23469 |
|     241 | 0x5BAE      |       23470 |
|     242 | 0x5BAF      |       23471 |
|     243 | 0x5BB0      |       23472 |
|     244 | 0x5BB1      |       23473 |
|     245 | 0x5BB2      |       23474 |
|     246 | 0x5BB3      |       23475 |
|     247 | 0x5BB4      |       23476 |
|     248 | 0x5BB5      |       23477 |
|     249 | 0x5BB6      |       23478 |
|     250 | 0x5BB7      |       23479 |
|     251 | 0x5BB8      |       23480 |
|     252 | 0x5BB9      |       23481 |
|     253 | 0x5BBA      |       23482 |
|     254 | 0x5BBB      |       23483 |
|     255 | 0x5BBC      |       23484 |
|     256 | 0x5BBD      |       23485 |
|     257 | 0x5BBE      |       23486 |
|     258 | 0x5BEC      |       23532 |
|     259 | 0x5BED      |       23533 |
|     260 | 0x5BEE      |       23534 |
|     261 | 0x5BEF      |       23535 |
|     262 | 0x5BF0      |       23536 |
|     263 | 0x5BF1      |       23537 |
|     264 | 0x5BF2      |       23538 |
|     265 | 0x5BF3      |       23539 |
|     266 | 0x5BF4      |       23540 |
|     267 | 0x5BF5      |       23541 |
|     268 | 0x5BF6      |       23542 |
|     269 | 0x5BF7      |       23543 |
|     270 | 0x5BF8      |       23544 |
|     271 | 0x5BF9      |       23545 |
|     272 | 0x5BFA      |       23546 |
|     273 | 0x5BFB      |       23547 |
|     274 | 0x5BFC      |       23548 |
|     275 | 0x5BFD      |       23549 |
|     276 | 0x5BFE      |       23550 |
|     277 | 0x5BFF      |       23551 |
|     278 | 0x5C00      |       23552 |
|     279 | 0x5C01      |       23553 |
|     280 | 0x5C2F      |       23599 |
|     281 | 0x5C30      |       23600 |
|     282 | 0x5C31      |       23601 |
|     283 | 0x5C32      |       23602 |
|     284 | 0x5C33      |       23603 |
|     285 | 0x5C34      |       23604 |
|     286 | 0x5C35      |       23605 |
|     287 | 0x5C36      |       23606 |
|     288 | 0x5C37      |       23607 |
|     289 | 0x5C38      |       23608 |
|     290 | 0x5C39      |       23609 |
|     291 | 0x5C3A      |       23610 |
|     292 | 0x5C3B      |       23611 |
|     293 | 0x5C3C      |       23612 |
|     294 | 0x5C3D      |       23613 |
|     295 | 0x5C3E      |       23614 |
|     296 | 0x5C3F      |       23615 |
|     297 | 0x5C40      |       23616 |
|     298 | 0x5C41      |       23617 |
|     299 | 0x5C42      |       23618 |
|     300 | 0x5C43      |       23619 |
|     301 | 0x5C44      |       23620 |
|     302 | 0x5C72      |       23666 |
|     303 | 0x5C73      |       23667 |
|     304 | 0x5C74      |       23668 |
|     305 | 0x5C75      |       23669 |
|     306 | 0x5C76      |       23670 |
|     307 | 0x5C77      |       23671 |
|     308 | 0x5C78      |       23672 |
|     309 | 0x5C79      |       23673 |
|     310 | 0x5C7A      |       23674 |
|     311 | 0x5C7B      |       23675 |
|     312 | 0x5C7C      |       23676 |
|     313 | 0x5C7D      |       23677 |
|     314 | 0x5C7E      |       23678 |
|     315 | 0x5C7F      |       23679 |
|     316 | 0x5C80      |       23680 |
|     317 | 0x5C81      |       23681 |
|     318 | 0x5C82      |       23682 |
|     319 | 0x5C83      |       23683 |
|     320 | 0x5C84      |       23684 |
|     321 | 0x5C85      |       23685 |
|     322 | 0x5C86      |       23686 |
|     323 | 0x5C87      |       23687 |
|     324 | 0x5A2D      |       23085 |
|     325 | 0x5A2E      |       23086 |
|     326 | 0x5A2F      |       23087 |
|     327 | 0x5A30      |       23088 |
|     328 | 0x5A31      |       23089 |
|     329 | 0x5A32      |       23090 |
|     330 | 0x5A33      |       23091 |
|     331 | 0x5A34      |       23092 |
|     332 | 0x5A35      |       23093 |
|     333 | 0x5A36      |       23094 |
|     334 | 0x5A37      |       23095 |
|     335 | 0x5A38      |       23096 |
|     336 | 0x5A39      |       23097 |
|     337 | 0x5A3A      |       23098 |
|     338 | 0x5A3B      |       23099 |
|     339 | 0x5A3C      |       23100 |
|     340 | 0x5A3D      |       23101 |
|     341 | 0x5A3E      |       23102 |
|     342 | 0x5A3F      |       23103 |
|     343 | 0x5A40      |       23104 |
|     344 | 0x5A41      |       23105 |
|     345 | 0x5A42      |       23106 |
|     346 | 0x5A70      |       23152 |
|     347 | 0x5A71      |       23153 |
|     348 | 0x5A72      |       23154 |
|     349 | 0x5A73      |       23155 |
|     350 | 0x5A74      |       23156 |
|     351 | 0x5A75      |       23157 |
|     352 | 0x5A76      |       23158 |
|     353 | 0x5A77      |       23159 |
|     354 | 0x5A78      |       23160 |
|     355 | 0x5A79      |       23161 |
|     356 | 0x5A7A      |       23162 |
|     357 | 0x5A7B      |       23163 |
|     358 | 0x5A7C      |       23164 |
|     359 | 0x5A7D      |       23165 |
|     360 | 0x5A7E      |       23166 |
|     361 | 0x5A7F      |       23167 |
|     362 | 0x5A80      |       23168 |
|     363 | 0x5A81      |       23169 |
|     364 | 0x5A82      |       23170 |
|     365 | 0x5A83      |       23171 |
|     366 | 0x5A84      |       23172 |
|     367 | 0x5A85      |       23173 |
|     368 | 0x5AB3      |       23219 |
|     369 | 0x5AB4      |       23220 |
|     370 | 0x5AB5      |       23221 |
|     371 | 0x5AB6      |       23222 |
|     372 | 0x5AB7      |       23223 |
|     373 | 0x5AB8      |       23224 |
|     374 | 0x5AB9      |       23225 |
|     375 | 0x5ABA      |       23226 |
|     376 | 0x5ABB      |       23227 |
|     377 | 0x5ABC      |       23228 |
|     378 | 0x5ABD      |       23229 |
|     379 | 0x5ABE      |       23230 |
|     380 | 0x5ABF      |       23231 |
|     381 | 0x5AC0      |       23232 |
|     382 | 0x5AC1      |       23233 |
|     383 | 0x5AC2      |       23234 |
|     384 | 0x5AC3      |       23235 |
|     385 | 0x5AC4      |       23236 |
|     386 | 0x5AC5      |       23237 |
|     387 | 0x5AC6      |       23238 |
|     388 | 0x5AC7      |       23239 |
|     389 | 0x5AC8      |       23240 |
|     390 | 0x5AF6      |       23286 |
|     391 | 0x5AF7      |       23287 |
|     392 | 0x5AF8      |       23288 |
|     393 | 0x5AF9      |       23289 |
|     394 | 0x5AFA      |       23290 |
|     395 | 0x5AFB      |       23291 |
|     396 | 0x5AFC      |       23292 |
|     397 | 0x5AFD      |       23293 |
|     398 | 0x5AFE      |       23294 |
|     399 | 0x5AFF      |       23295 |
|     400 | 0x5B00      |       23296 |
|     401 | 0x5B01      |       23297 |
|     402 | 0x5B02      |       23298 |
|     403 | 0x5B03      |       23299 |
|     404 | 0x5B04      |       23300 |
|     405 | 0x5B05      |       23301 |
|     406 | 0x5B06      |       23302 |
|     407 | 0x5B07      |       23303 |
|     408 | 0x5B08      |       23304 |
|     409 | 0x5B09      |       23305 |
|     410 | 0x5B0A      |       23306 |
|     411 | 0x5B0B      |       23307 |
|     412 | 0x5B39      |       23353 |
|     413 | 0x5B3A      |       23354 |
|     414 | 0x5B3B      |       23355 |
|     415 | 0x5B3C      |       23356 |
|     416 | 0x5B3D      |       23357 |
|     417 | 0x5B3E      |       23358 |
|     418 | 0x5B3F      |       23359 |
|     419 | 0x5B40      |       23360 |
|     420 | 0x5B41      |       23361 |
|     421 | 0x5B42      |       23362 |
|     422 | 0x5B43      |       23363 |
|     423 | 0x5B44      |       23364 |
|     424 | 0x5B45      |       23365 |
|     425 | 0x5B46      |       23366 |
|     426 | 0x5B47      |       23367 |
|     427 | 0x5B48      |       23368 |
|     428 | 0x5B49      |       23369 |
|     429 | 0x5B4A      |       23370 |
|     430 | 0x5B4B      |       23371 |
|     431 | 0x5B4C      |       23372 |
|     432 | 0x5B4D      |       23373 |
|     433 | 0x5B4E      |       23374 |
|     434 | 0x0D0C      |        3340 |
|     435 | 0x0D0D      |        3341 |
|     436 | 0x0D0E      |        3342 |
|     437 | 0x0D11      |        3345 |
|     438 | 0x0D12      |        3346 |
|     439 | 0x0D13      |        3347 |
|     440 | 0x0D14      |        3348 |
|     441 | 0x0D17      |        3351 |
|     442 | 0x0D18      |        3352 |
|     443 | 0x0D1B      |        3355 |
|     444 | 0x0D19      |        3353 |
|     445 | 0x0D1A      |        3354 |
|     446 | 0x0D27      |        3367 |
|     447 | 0x0D2C      |        3372 |
|     448 | 0x0D2D      |        3373 |
|     449 | 0x0D2E      |        3374 |
|     450 | 0x5410      |       21520 |
|     451 | 0x5443      |       21571 |
|     452 | 0x5478      |       21624 |
|     453 | 0x54A2      |       21666 |
|     454 | 0x54D1      |       21713 |
|     455 | 0x550B      |       21771 |
|     456 | 0x554E      |       21838 |
|     457 | 0x5571      |       21873 |
|     458 | 0x5597      |       21911 |
|     459 | 0x55CA      |       21962 |
|     460 | 0x5625      |       22053 |
|     461 | 0x564A      |       22090 |
|     462 | 0x5682      |       22146 |
|     463 | 0x5695      |       22165 |
|     464 | 0x0B74      |        2932 |
|     465 | 0x0B70      |        2928 |
|     466 | 0x0B6F      |        2927 |
|     467 | 0x0B71      |        2929 |
|     468 | 0x0B72      |        2930 |
|     469 | 0x0B92      |        2962 |
|     470 | 0x0B93      |        2963 |
|     471 | 0x0B95      |        2965 |
|     472 | 0x0B94      |        2964 |
|     473 | 0x0B96      |        2966 |
|     474 | 0x0B97      |        2967 |
|     475 | 0x0CD7      |        3287 |
|     476 | 0x0CD8      |        3288 |
|     477 | 0x0CD9      |        3289 |
|     478 | 0x0CDC      |        3292 |
|     479 | 0x0CDA      |        3290 |
|     480 | 0x0CDB      |        3291 |
|     481 | 0x50C0      |       20672 |
|     482 | 0x5488      |       21640 |
|     483 | 0x5442      |       21570 |
|     484 | 0x55DC      |       21980 |
|     485 | 0x5418      |       21528 |
|     486 | 0x54DD      |       21725 |
|     487 | 0x5504      |       21764 |
|     488 | 0x5681      |       22145 |
|     489 | 0x56E9      |       22249 |
|     490 | 0x5536      |       21814 |
|     491 | 0x5655      |       22101 |
|     492 | 0x5441      |       21569 |
|     493 | 0x6778      |       26488 |
|     494 | 0x50C1      |       20673 |
|     495 | 0x55DD      |       21981 |
|     496 | 0x557D      |       21885 |
|     497 | 0x5419      |       21529 |
|     498 | 0x5489      |       21641 |
|     499 | 0x55A7      |       21927 |
|     500 | 0x54AC      |       21676 |
|     501 | 0x561A      |       22042 |
|     502 | 0x5688      |       22152 |

## String References

- **15667**: Trade me a Mog Bonanza prize exchange item and I'll gladly grant you a gorgeous gift of your choosing, kupo!
- **15668**: I'll exchange your $0! Go ahead and select an item from the list of prizes, kupo.
- **15669**: Decided on the prize you'd like to receive? Go ahead and select it from the list, kupo!
- **15670**: What will it be? [Nothing for now./$6./$6./$6./$6./$6./$6./$6./$6./$6./$6./$6./$6./$6./$6./$6./$6./$6./$6./$6./$6./$6./$6./$6./$6./$6./$6./$6./$6./$6./Next page./Previous page.]
- **15675**: I'm obliged to offer you a word of warning: there's no going back once I issue you your prize. Are you completely confident about your choice, kupo?
- **15676**: Is this what you really want? Hm? [By Altana, hand it over already!/On second thought...]
- **15677**: I understand. I'll let you hold on to this $3 until you make your decision, kupo.
- **15678**: I understand. Come talk to me again once you've made your decision, kupo.
- **15679**: You're the boss! Here you go, then. Congratulations, kupo!
- **15680**: Obtained key item: 3.
- **15683**: I shall issue you the following, kupo.
- **15684**: $39.
- **15703**: Selet a job. [Never mind./Warrior./Monk./White Mage./Black Mage./Red Mage./Thief./Paladin./Dark Knight./Beastmaster./Bard./Ranger./Samurai./Ninjaa./Dragoon./Summoner./Blue Mage./Corsair./Puppetmaster./Dancer./Scholar./Geomancer./Rune Fencer.]

## Events

### Event 65535

#### Metadata

| Field        | Value   |
|--------------|---------|
| Entrypoint   | 0x0000  |
| Data Size    | 1 bytes |
| Instructions | 1       |

```
      00 01 02 03 04 05 06 07  08 09 0A 0B 0C 0D 0E 0F
      -- -- -- -- -- -- -- --  -- -- -- -- -- -- -- --
0000: 00                                                .               
```

#### Opcodes

```
  0: 0x0000 [0x00] END_REQSTACK()
```

### Event 937

#### Metadata

| Field        | Value    |
|--------------|----------|
| Entrypoint   | 0x0001   |
| Data Size    | 11 bytes |
| Instructions | 5        |

```
      00 01 02 03 04 05 06 07  08 09 0A 0B 0C 0D 0E 0F
      -- -- -- -- -- -- -- --  -- -- -- -- -- -- -- --
0000:    1E F0 FF FF 7F 1D 00  80 23 21 00               ........#!.    
```

#### Opcodes

```
  0: 0x0001 [0x1E] EventEntity looks at LocalPlayer and starts talking
  1: 0x0006 [0x1D] PRINT_EVENT_MESSAGE(message_id=15667*)
    → "Trade me a Mog Bonanza prize exchange item and I'll gladly grant you a gorgeous gift of your choosing, kupo!"
  2: 0x0009 [0x23] WAIT_FOR_DIALOG_INTERACTION
  3: 0x000A [0x21] END_EVENT
  4: 0x000B [0x00] END_REQSTACK()
```

### Event 938

#### Metadata

| Field        | Value      |
|--------------|------------|
| Entrypoint   | 0x000C     |
| Data Size    | 8757 bytes |
| Instructions | 1560       |

```
      00 01 02 03 04 05 06 07  08 09 0A 0B 0C 0D 0E 0F
      -- -- -- -- -- -- -- --  -- -- -- -- -- -- -- --
0000:                                      42 03 0B 00              B...
0010: 09 10 03 0C 00 08 10 03  01 10 01 80 1E F0 FF FF  ................
0020: 7F 02 05 10 02 80 02 98  02 1A A5 04 1D 03 80 23  ...............#
0030: 03 0D 00 01 80 03 0E 00  01 80 03 0F 00 01 80 03  ................
0040: 42 10 01 80 03 43 10 01  80 05 02 00 02 02 00 01  B....C..........
0050: 80 01 95 02 1A 48 05 02  0D 00 01 80 80 E5 00 24  .....H.........$
0060: 04 80 42 10 04 00 25 02  00 10 01 80 00 81 00 06  ..B...%.........
0070: 02 00 1D 05 80 23 06 04  10 03 42 10 01 80 01 E2  .....#....B.....
0080: 00 02 00 10 06 80 00 99  00 03 0D 00 02 80 06 04  ................
0090: 10 03 42 10 01 80 01 E2  00 02 00 10 07 80 00 AC  ..B.............
00A0: 00 06 04 10 03 42 10 01  80 01 E2 00 03 42 10 00  .....B.......B..
00B0: 10 03 04 10 00 10 0C 04  10 02 04 10 01 80 03 C4  ................
00C0: 00 06 04 10 9D 00 FE 06  00 00 04 10 1A 32 06 02  .............2..
00D0: 00 00 01 80 01 DF 00 03  04 10 00 00 01 E2 00 06  ................
00E0: 04 10 01 E5 00 02 04 10  01 80 80 F0 00 01 92 02  ................
00F0: 02 04 10 02 80 80 0B 01  40 01 80 08 80 01 10 04  ........@.......
0100: 10 1D 09 80 23 1A 3E 07  01 92 02 02 04 10 0A 80  ....#.>.........
0110: 80 26 01 40 01 80 08 80  01 10 04 10 1D 09 80 23  .&.@...........#
0120: 1A F1 07 01 92 02 02 04  10 0B 80 80 41 01 40 01  ............A.@.
0130: 80 08 80 01 10 04 10 1D  09 80 23 1A A4 08 01 92  ..........#.....
0140: 02 02 04 10 0C 80 80 58  01 40 01 80 08 80 01 10  .......X.@......
0150: 04 10 1A 27 15 01 92 02  02 04 10 0D 80 80 6F 01  ...'..........o.
0160: 40 01 80 08 80 01 10 04  10 1A 27 15 01 92 02 02  @.........'.....
0170: 04 10 0E 80 80 8A 01 40  01 80 08 80 01 10 04 10  .......@........
0180: 1D 09 80 23 1A 57 09 01  92 02 02 04 10 08 80 80  ...#.W..........
0190: A5 01 40 01 80 08 80 01  10 04 10 1D 09 80 23 1A  ..@...........#.
01A0: 0A 0A 01 92 02 02 04 10  0F 80 80 C0 01 40 01 80  .............@..
01B0: 08 80 01 10 04 10 1D 09  80 23 1A BD 0A 01 92 02  .........#......
01C0: 02 04 10 10 80 80 DB 01  40 01 80 08 80 01 10 04  ........@.......
01D0: 10 1D 09 80 23 1A 70 0B  01 92 02 02 04 10 11 80  ....#.p.........
01E0: 80 F6 01 40 01 80 08 80  01 10 04 10 1D 09 80 23  ...@...........#
01F0: 1A 23 0C 01 92 02 02 04  10 12 80 80 11 02 40 01  .#............@.
0200: 80 08 80 01 10 04 10 1D  09 80 23 1A C7 0C 01 92  ..........#.....
0210: 02 02 04 10 13 80 80 2C  02 40 01 80 08 80 01 10  .......,.@......
0220: 04 10 1D 09 80 23 1A 7A  0D 01 92 02 02 04 10 14  .....#.z........
0230: 80 80 43 02 40 01 80 08  80 01 10 04 10 1A 27 15  ..C.@.........'.
0240: 01 92 02 02 04 10 15 80  80 5A 02 40 01 80 08 80  .........Z.@....
0250: 01 10 04 10 1A 2D 0E 01  92 02 02 04 10 16 80 80  .....-..........
0260: 76 02 40 01 80 08 80 01  10 04 10 03 07 00 02 80  v.@.............
0270: 1A 82 11 01 92 02 02 04  10 17 80 80 92 02 40 01  ..............@.
0280: 80 08 80 01 10 04 10 03  07 00 0A 80 1A 82 11 01  ................
0290: 92 02 01 4C 00 01 A3 04  40 01 80 08 80 01 10 04  ...L....@.......
02A0: 10 02 05 10 02 80 03 46  03 02 04 10 02 80 00 B8  .......F........
02B0: 02 1D 09 80 23 01 43 03  02 04 10 0A 80 00 C7 02  ....#.C.........
02C0: 1D 09 80 23 01 43 03 02  04 10 0B 80 00 D6 02 1D  ...#.C..........
02D0: 09 80 23 01 43 03 02 04  10 0E 80 00 E5 02 1D 09  ..#.C...........
02E0: 80 23 01 43 03 02 04 10  08 80 00 F4 02 1D 09 80  .#.C............
02F0: 23 01 43 03 02 04 10 0F  80 00 03 03 1D 09 80 23  #.C............#
0300: 01 43 03 02 04 10 10 80  00 12 03 1D 09 80 23 01  .C............#.
0310: 43 03 02 04 10 11 80 00  21 03 1D 09 80 23 01 43  C.......!....#.C
0320: 03 02 04 10 12 80 00 30  03 1D 09 80 23 01 43 03  .......0....#.C.
0330: 02 04 10 13 80 00 3F 03  1D 09 80 23 01 43 03 1D  ......?....#.C..
0340: 18 80 23 01 E0 03 02 04  10 02 80 00 55 03 1D 09  ..#.........U...
0350: 80 23 01 E0 03 02 04 10  0A 80 00 64 03 1D 09 80  .#.........d....
0360: 23 01 E0 03 02 04 10 0B  80 00 73 03 1D 09 80 23  #.........s....#
0370: 01 E0 03 02 04 10 0E 80  00 82 03 1D 09 80 23 01  ..............#.
0380: E0 03 02 04 10 08 80 00  91 03 1D 09 80 23 01 E0  .............#..
0390: 03 02 04 10 0F 80 00 A0  03 1D 09 80 23 01 E0 03  ............#...
03A0: 02 04 10 10 80 00 AF 03  1D 09 80 23 01 E0 03 02  ...........#....
03B0: 04 10 11 80 00 BE 03 1D  09 80 23 01 E0 03 02 04  ..........#.....
03C0: 10 12 80 00 CD 03 1D 09  80 23 01 E0 03 02 04 10  .........#......
03D0: 13 80 00 DC 03 1D 09 80  23 01 E0 03 1D 03 80 23  ........#......#
03E0: 02 04 10 02 80 80 EE 03  1A 3E 07 01 A3 04 02 04  .........>......
03F0: 10 0A 80 80 FC 03 1A F1  07 01 A3 04 02 04 10 0B  ................
0400: 80 80 0A 04 1A A4 08 01  A3 04 02 04 10 0E 80 80  ................
0410: 18 04 1A 57 09 01 A3 04  02 04 10 08 80 80 26 04  ...W..........&.
0420: 1A 0A 0A 01 A3 04 02 04  10 0F 80 80 34 04 1A BD  ............4...
0430: 0A 01 A3 04 02 04 10 10  80 80 42 04 1A 70 0B 01  ..........B..p..
0440: A3 04 02 04 10 11 80 80  50 04 1A 23 0C 01 A3 04  ........P..#....
0450: 02 04 10 12 80 80 5E 04  1A C7 0C 01 A3 04 02 04  ......^.........
0460: 10 13 80 80 6C 04 1A 7A  0D 01 A3 04 02 04 10 15  ....l..z........
0470: 80 80 7A 04 1A 2D 0E 01  A3 04 02 04 10 16 80 80  ..z..-..........
0480: 8D 04 03 07 00 02 80 1A  82 11 01 A3 04 02 04 10  ................
0490: 17 80 80 A0 04 03 07 00  0A 80 1A 82 11 01 A3 04  ................
04A0: 1A 27 15 21 00 06 01 00  02 01 00 19 80 03 C0 04  .'.!............
04B0: 9D 0F 7E 06 01 80 01 00  19 80 0B 01 00 01 A8 04  ..~.............
04C0: 06 01 00 02 01 00 1A 80  03 DB 04 9D 0F FE 06 01  ................
04D0: 80 01 00 1A 80 0B 01 00  01 C3 04 06 01 00 06 02  ................
04E0: 00 06 03 00 06 00 00 02  01 00 19 80 03 47 05 02  .............G..
04F0: 01 00 1A 80 03 03 05 41  01 00 01 00 0B 00 00 00  .......A........
0500: 01 16 05 03 02 00 01 00  08 02 00 1A 80 41 02 00  .............A..
0510: 02 00 0C 00 00 00 02 00  00 02 80 00 41 05 9D 0A  ............A...
0520: 01 21 00 00 01 00 19 80  40 17 80 07 80 00 00 01  .!......@.......
0530: 00 9D 0F 7E 06 00 00 03  00 19 80 0B 03 00 01 41  ...~...........A
0540: 05 0B 01 00 01 E7 04 1B  06 1D 17 02 1D 17 1A 80  ................
0550: 03 61 05 9D 05 FE 06 01  80 1D 17 0B 1D 17 01 4B  .a.............K
0560: 05 03 04 00 1B 80 3D 04  00 01 80 02 80 06 1D 17  ......=.........
0570: 02 0D 00 01 80 80 90 05  02 05 10 1C 80 05 83 05  ................
0580: 01 8A 05 3D 04 00 06 80  02 80 06 1D 17 01 DE 05  ...=............
0590: 02 0D 00 02 80 80 C0 05  02 05 10 1D 80 05 AA 05  ................
05A0: 3D 04 00 07 80 02 80 01  B8 05 3D 04 00 06 80 02  =.........=.....
05B0: 80 3D 04 00 07 80 02 80  03 1D 17 1C 80 01 DE 05  .=..............
05C0: 02 0D 00 0A 80 80 DE 05  3D 04 00 06 80 02 80 3D  ........=......=
05D0: 04 00 07 80 02 80 03 1D  17 1D 80 01 DE 05 03 1E  ................
05E0: 17 02 80 03 1F 17 01 80  02 1F 17 06 80 03 2E 06  ................
05F0: 9D 00 7E 06 00 00 1D 17  02 00 00 01 80 01 26 06  ..~...........&.
0600: 41 01 80 16 80 00 00 01  10 9D 0F FE 06 01 10 1F  A...............
0610: 17 1A 80 3D 04 00 1E 17  02 80 0B 1D 17 0B 1E 17  ...=............
0620: 0B 1F 17 01 2B 06 03 1F  17 07 80 01 E8 05 06 01  ....+...........
0630: 10 1B 05 1D 17 06 1E 17  02 1D 17 01 80 01 7D 06  ..............}.
0640: 9D 00 01 21 1F 17 1E 17  02 1F 17 00 00 00 66 06  ...!..........f.
0650: 03 00 00 1E 17 02 00 00  1A 80 04 60 06 0C 00 00  ...........`....
0660: 06 1D 17 01 7A 06 02 1E  17 19 80 03 74 06 0B 1E  ....z.......t...
0670: 17 01 7A 06 06 1D 17 06  00 00 01 38 06 1B 10 00  ..z........8....
0680: 11 00 12 00 13 00 14 00  15 00 16 00 17 00 18 00  ................
0690: 19 00 1A 00 1B 00 1C 00  1D 00 1E 00 1F 00 20 00  .............. .
06A0: 21 00 22 00 23 00 24 00  25 00 26 00 27 00 28 00  !.".#.$.%.&.'.(.
06B0: 29 00 2A 00 2B 00 2C 00  2D 00 2E 00 2F 00 30 00  ).*.+.,.-.../.0.
06C0: 31 00 32 00 33 00 34 00  35 00 36 00 37 00 38 00  1.2.3.4.5.6.7.8.
06D0: 39 00 3A 00 3B 00 3C 00  3D 00 3E 00 3F 00 40 00  9.:.;.<.=.>.?.@.
06E0: 41 00 42 00 43 00 44 00  45 00 46 00 47 00 48 00  A.B.C.D.E.F.G.H.
06F0: 49 00 4A 00 4B 00 4C 00  4D 00 4E 00 4F 00 00 17  I.J.K.L.M.N.O...
0700: 01 17 02 17 03 17 04 17  05 17 06 17 07 17 08 17  ................
0710: 09 17 0A 17 0B 17 0C 17  0D 17 0E 17 0F 17 10 17  ................
0720: 11 17 12 17 13 17 14 17  15 17 16 17 17 17 18 17  ................
0730: 19 17 1A 17 1B 17 1C 17  01 80 01 80 01 80 03 1F  ................
0740: 17 1E 80 93 1F 17 1D 1F  80 23 93 01 80 03 1F 17  .........#......
0750: 20 80 93 1F 17 1D 1F 80  23 93 01 80 03 1F 17 21   .......#......!
0760: 80 93 1F 17 1D 1F 80 23  93 01 80 03 1F 17 22 80  .......#......".
0770: 93 1F 17 1D 1F 80 23 93  01 80 03 1F 17 23 80 93  ......#......#..
0780: 1F 17 1D 1F 80 23 93 01  80 1D 24 80 23 24 25 80  .....#....$.#$%.
0790: 02 80 01 80 25 02 00 10  01 80 00 B3 07 06 01 00  ....%...........
07A0: 06 02 00 1D 26 80 23 40  0F 80 07 80 01 10 02 80  ....&.#@........
07B0: 01 F0 07 02 00 10 02 80  00 F0 07 02 05 10 01 80  ................
07C0: 00 D8 07 1D 27 80 23 03  02 10 03 10 48 28 80 06  ....'.#.....H(..
07D0: 01 00 06 02 00 01 E4 07  02 05 10 02 80 00 E4 07  ................
07E0: 1D 05 80 23 40 0F 80 07  80 01 10 01 80 01 F0 07  ...#@...........
07F0: 1B 03 1F 17 29 80 93 1F  17 1D 1F 80 23 93 01 80  ....).......#...
0800: 03 1F 17 2A 80 93 1F 17  1D 1F 80 23 93 01 80 03  ...*.......#....
0810: 1F 17 2B 80 93 1F 17 1D  1F 80 23 93 01 80 03 1F  ..+.......#.....
0820: 17 2C 80 93 1F 17 1D 1F  80 23 93 01 80 03 1F 17  .,.......#......
0830: 2D 80 93 1F 17 1D 1F 80  23 93 01 80 1D 24 80 23  -.......#....$.#
0840: 24 25 80 02 80 01 80 25  02 00 10 01 80 00 66 08  $%.....%......f.
0850: 06 01 00 06 02 00 1D 26  80 23 40 0F 80 07 80 01  .......&.#@.....
0860: 10 02 80 01 A3 08 02 00  10 02 80 00 A3 08 02 05  ................
0870: 10 01 80 00 8B 08 1D 27  80 23 03 02 10 03 10 48  .......'.#.....H
0880: 28 80 06 01 00 06 02 00  01 97 08 02 05 10 02 80  (...............
0890: 00 97 08 1D 05 80 23 40  0F 80 07 80 01 10 01 80  ......#@........
08A0: 01 A3 08 1B 03 1F 17 2E  80 93 1F 17 1D 1F 80 23  ...............#
08B0: 93 01 80 03 1F 17 2F 80  93 1F 17 1D 1F 80 23 93  ....../.......#.
08C0: 01 80 03 1F 17 30 80 93  1F 17 1D 1F 80 23 93 01  .....0.......#..
08D0: 80 03 1F 17 31 80 93 1F  17 1D 1F 80 23 93 01 80  ....1.......#...
08E0: 03 1F 17 32 80 93 1F 17  1D 1F 80 23 93 01 80 1D  ...2.......#....
08F0: 24 80 23 24 25 80 02 80  01 80 25 02 00 10 01 80  $.#$%.....%.....
0900: 00 19 09 06 01 00 06 02  00 1D 26 80 23 40 0F 80  ..........&.#@..
0910: 07 80 01 10 02 80 01 56  09 02 00 10 02 80 00 56  .......V.......V
0920: 09 02 05 10 01 80 00 3E  09 1D 27 80 23 03 02 10  .......>..'.#...
0930: 03 10 48 28 80 06 01 00  06 02 00 01 4A 09 02 05  ..H(........J...
0940: 10 02 80 00 4A 09 1D 05  80 23 40 0F 80 07 80 01  ....J....#@.....
0950: 10 01 80 01 56 09 1B 03  1F 17 33 80 93 1F 17 1D  ....V.....3.....
0960: 1F 80 23 93 01 80 03 1F  17 34 80 93 1F 17 1D 1F  ..#......4......
0970: 80 23 93 01 80 03 1F 17  35 80 93 1F 17 1D 1F 80  .#......5.......
0980: 23 93 01 80 03 1F 17 36  80 93 1F 17 1D 1F 80 23  #......6.......#
0990: 93 01 80 03 1F 17 37 80  93 1F 17 1D 1F 80 23 93  ......7.......#.
09A0: 01 80 1D 24 80 23 24 25  80 02 80 01 80 25 02 00  ...$.#$%.....%..
09B0: 10 01 80 00 CC 09 06 01  00 06 02 00 1D 26 80 23  .............&.#
09C0: 40 0F 80 07 80 01 10 02  80 01 09 0A 02 00 10 02  @...............
09D0: 80 00 09 0A 02 05 10 01  80 00 F1 09 1D 27 80 23  .............'.#
09E0: 03 02 10 03 10 48 28 80  06 01 00 06 02 00 01 FD  .....H(.........
09F0: 09 02 05 10 02 80 00 FD  09 1D 05 80 23 40 0F 80  ............#@..
0A00: 07 80 01 10 01 80 01 09  0A 1B 03 1F 17 38 80 93  .............8..
0A10: 1F 17 1D 1F 80 23 93 01  80 03 1F 17 39 80 93 1F  .....#......9...
0A20: 17 1D 1F 80 23 93 01 80  03 1F 17 3A 80 93 1F 17  ....#......:....
0A30: 1D 1F 80 23 93 01 80 03  1F 17 3B 80 93 1F 17 1D  ...#......;.....
0A40: 1F 80 23 93 01 80 03 1F  17 3C 80 93 1F 17 1D 1F  ..#......<......
0A50: 80 23 93 01 80 1D 24 80  23 24 25 80 02 80 01 80  .#....$.#$%.....
0A60: 25 02 00 10 01 80 00 7F  0A 06 01 00 06 02 00 1D  %...............
0A70: 26 80 23 40 0F 80 07 80  01 10 02 80 01 BC 0A 02  &.#@............
0A80: 00 10 02 80 00 BC 0A 02  05 10 01 80 00 A4 0A 1D  ................
0A90: 27 80 23 03 02 10 03 10  48 28 80 06 01 00 06 02  '.#.....H(......
0AA0: 00 01 B0 0A 02 05 10 02  80 00 B0 0A 1D 05 80 23  ...............#
0AB0: 40 0F 80 07 80 01 10 01  80 01 BC 0A 1B 03 1F 17  @...............
0AC0: 3D 80 93 1F 17 1D 1F 80  23 93 01 80 03 1F 17 3E  =.......#......>
0AD0: 80 93 1F 17 1D 1F 80 23  93 01 80 03 1F 17 3F 80  .......#......?.
0AE0: 93 1F 17 1D 1F 80 23 93  01 80 03 1F 17 40 80 93  ......#......@..
0AF0: 1F 17 1D 1F 80 23 93 01  80 03 1F 17 41 80 93 1F  .....#......A...
0B00: 17 1D 1F 80 23 93 01 80  1D 24 80 23 24 25 80 02  ....#....$.#$%..
0B10: 80 01 80 25 02 00 10 01  80 00 32 0B 06 01 00 06  ...%......2.....
0B20: 02 00 1D 26 80 23 40 0F  80 07 80 01 10 02 80 01  ...&.#@.........
0B30: 6F 0B 02 00 10 02 80 00  6F 0B 02 05 10 01 80 00  o.......o.......
0B40: 57 0B 1D 27 80 23 03 02  10 03 10 48 28 80 06 01  W..'.#.....H(...
0B50: 00 06 02 00 01 63 0B 02  05 10 02 80 00 63 0B 1D  .....c.......c..
0B60: 05 80 23 40 0F 80 07 80  01 10 01 80 01 6F 0B 1B  ..#@.........o..
0B70: 03 1F 17 42 80 93 1F 17  1D 1F 80 23 93 01 80 03  ...B.......#....
0B80: 1F 17 43 80 93 1F 17 1D  1F 80 23 93 01 80 03 1F  ..C.......#.....
0B90: 17 44 80 93 1F 17 1D 1F  80 23 93 01 80 03 1F 17  .D.......#......
0BA0: 45 80 93 1F 17 1D 1F 80  23 93 01 80 03 1F 17 46  E.......#......F
0BB0: 80 93 1F 17 1D 1F 80 23  93 01 80 1D 24 80 23 24  .......#....$.#$
0BC0: 25 80 02 80 01 80 25 02  00 10 01 80 00 E5 0B 06  %.....%.........
0BD0: 01 00 06 02 00 1D 26 80  23 40 0F 80 07 80 01 10  ......&.#@......
0BE0: 02 80 01 22 0C 02 00 10  02 80 00 22 0C 02 05 10  ..."......."....
0BF0: 01 80 00 0A 0C 1D 27 80  23 03 02 10 03 10 48 28  ......'.#.....H(
0C00: 80 06 01 00 06 02 00 01  16 0C 02 05 10 02 80 00  ................
0C10: 16 0C 1D 05 80 23 40 0F  80 07 80 01 10 01 80 01  .....#@.........
0C20: 22 0C 1B 03 1F 17 47 80  93 1F 17 1D 1F 80 23 93  ".....G.......#.
0C30: 01 80 03 1F 17 48 80 93  1F 17 1D 1F 80 23 93 01  .....H.......#..
0C40: 80 03 1F 17 49 80 93 1F  17 1D 1F 80 23 93 01 80  ....I.......#...
0C50: 03 1F 17 4A 80 93 1F 17  1D 1F 80 23 93 01 80 1D  ...J.......#....
0C60: 24 80 23 24 25 80 02 80  01 80 25 02 00 10 01 80  $.#$%.....%.....
0C70: 00 89 0C 06 01 00 06 02  00 1D 26 80 23 40 0F 80  ..........&.#@..
0C80: 07 80 01 10 02 80 01 C6  0C 02 00 10 02 80 00 C6  ................
0C90: 0C 02 05 10 01 80 00 AE  0C 1D 27 80 23 03 02 10  ..........'.#...
0CA0: 03 10 48 28 80 06 01 00  06 02 00 01 BA 0C 02 05  ..H(............
0CB0: 10 02 80 00 BA 0C 1D 05  80 23 40 0F 80 07 80 01  .........#@.....
0CC0: 10 01 80 01 C6 0C 1B 03  1F 17 4B 80 93 1F 17 1D  ..........K.....
0CD0: 1F 80 23 93 01 80 03 1F  17 4C 80 93 1F 17 1D 1F  ..#......L......
0CE0: 80 23 93 01 80 03 1F 17  4D 80 93 1F 17 1D 1F 80  .#......M.......
0CF0: 23 93 01 80 03 1F 17 4E  80 93 1F 17 1D 1F 80 23  #......N.......#
0D00: 93 01 80 03 1F 17 4F 80  93 1F 17 1D 1F 80 23 93  ......O.......#.
0D10: 01 80 1D 24 80 23 24 25  80 02 80 01 80 25 02 00  ...$.#$%.....%..
0D20: 10 01 80 00 3C 0D 06 01  00 06 02 00 1D 26 80 23  ....<........&.#
0D30: 40 0F 80 07 80 01 10 02  80 01 79 0D 02 00 10 02  @.........y.....
0D40: 80 00 79 0D 02 05 10 01  80 00 61 0D 1D 27 80 23  ..y.......a..'.#
0D50: 03 02 10 03 10 48 28 80  06 01 00 06 02 00 01 6D  .....H(........m
0D60: 0D 02 05 10 02 80 00 6D  0D 1D 05 80 23 40 0F 80  .......m....#@..
0D70: 07 80 01 10 01 80 01 79  0D 1B 03 1F 17 50 80 93  .......y.....P..
0D80: 1F 17 1D 1F 80 23 93 01  80 03 1F 17 51 80 93 1F  .....#......Q...
0D90: 17 1D 1F 80 23 93 01 80  03 1F 17 52 80 93 1F 17  ....#......R....
0DA0: 1D 1F 80 23 93 01 80 03  1F 17 53 80 93 1F 17 1D  ...#......S.....
0DB0: 1F 80 23 93 01 80 03 1F  17 54 80 93 1F 17 1D 1F  ..#......T......
0DC0: 80 23 93 01 80 1D 24 80  23 24 25 80 02 80 01 80  .#....$.#$%.....
0DD0: 25 02 00 10 01 80 00 EF  0D 06 01 00 06 02 00 1D  %...............
0DE0: 26 80 23 40 0F 80 07 80  01 10 02 80 01 2C 0E 02  &.#@.........,..
0DF0: 00 10 02 80 00 2C 0E 02  05 10 01 80 00 14 0E 1D  .....,..........
0E00: 27 80 23 03 02 10 03 10  48 28 80 06 01 00 06 02  '.#.....H(......
0E10: 00 01 20 0E 02 05 10 02  80 00 20 0E 1D 05 80 23  .. ....... ....#
0E20: 40 0F 80 07 80 01 10 01  80 01 2C 0E 1B 24 55 80  @.........,..$U.
0E30: 0E 00 01 80 25 02 00 10  01 80 00 66 0E 06 01 00  ....%......f....
0E40: 02 05 10 01 80 00 57 0E  1D 27 80 23 03 02 10 03  ......W..'.#....
0E50: 10 48 28 80 01 63 0E 02  05 10 02 80 00 63 0E 1D  .H(..c.......c..
0E60: 05 80 23 01 8C 10 02 00  10 02 80 00 7F 0E 40 0F  ..#...........@.
0E70: 80 07 80 01 10 00 10 03  0E 00 00 10 01 8C 10 02  ................
0E80: 00 10 0A 80 00 98 0E 40  0F 80 07 80 01 10 00 10  .......@........
0E90: 03 0E 00 00 10 01 8C 10  02 00 10 0B 80 00 B1 0E  ................
0EA0: 40 0F 80 07 80 01 10 00  10 03 0E 00 00 10 01 8C  @...............
0EB0: 10 02 00 10 0C 80 00 CA  0E 40 0F 80 07 80 01 10  .........@......
0EC0: 00 10 03 0E 00 00 10 01  8C 10 02 00 10 0D 80 00  ................
0ED0: E3 0E 40 0F 80 07 80 01  10 00 10 03 0E 00 00 10  ..@.............
0EE0: 01 8C 10 02 00 10 0E 80  00 FC 0E 40 0F 80 07 80  ...........@....
0EF0: 01 10 00 10 03 0E 00 00  10 01 8C 10 02 00 10 08  ................
0F00: 80 00 15 0F 40 0F 80 07  80 01 10 00 10 03 0E 00  ....@...........
0F10: 00 10 01 8C 10 02 00 10  0F 80 00 2E 0F 40 0F 80  .............@..
0F20: 07 80 01 10 00 10 03 0E  00 00 10 01 8C 10 02 00  ................
0F30: 10 10 80 00 47 0F 40 0F  80 07 80 01 10 00 10 03  ....G.@.........
0F40: 0E 00 00 10 01 8C 10 02  00 10 11 80 00 60 0F 40  .............`.@
0F50: 0F 80 07 80 01 10 00 10  03 0E 00 00 10 01 8C 10  ................
0F60: 02 00 10 12 80 00 79 0F  40 0F 80 07 80 01 10 00  ......y.@.......
0F70: 10 03 0E 00 00 10 01 8C  10 02 00 10 13 80 00 92  ................
0F80: 0F 40 0F 80 07 80 01 10  00 10 03 0E 00 00 10 01  .@..............
0F90: 8C 10 02 00 10 14 80 00  AB 0F 40 0F 80 07 80 01  ..........@.....
0FA0: 10 00 10 03 0E 00 00 10  01 8C 10 02 00 10 15 80  ................
0FB0: 00 C4 0F 40 0F 80 07 80  01 10 00 10 03 0E 00 00  ...@............
0FC0: 10 01 8C 10 02 00 10 16  80 00 DD 0F 40 0F 80 07  ............@...
0FD0: 80 01 10 00 10 03 0E 00  00 10 01 8C 10 02 00 10  ................
0FE0: 17 80 00 F6 0F 40 0F 80  07 80 01 10 00 10 03 0E  .....@..........
0FF0: 00 00 10 01 8C 10 02 00  10 56 80 00 0F 10 40 0F  .........V....@.
1000: 80 07 80 01 10 00 10 03  0E 00 00 10 01 8C 10 02  ................
1010: 00 10 57 80 00 28 10 40  0F 80 07 80 01 10 00 10  ..W..(.@........
1020: 03 0E 00 00 10 01 8C 10  02 00 10 58 80 00 41 10  ...........X..A.
1030: 40 0F 80 07 80 01 10 00  10 03 0E 00 00 10 01 8C  @...............
1040: 10 02 00 10 59 80 00 5A  10 40 0F 80 07 80 01 10  ....Y..Z.@......
1050: 00 10 03 0E 00 00 10 01  8C 10 02 00 10 5A 80 00  .............Z..
1060: 73 10 40 0F 80 07 80 01  10 00 10 03 0E 00 00 10  s.@.............
1070: 01 8C 10 02 00 10 5B 80  00 8C 10 40 0F 80 07 80  ......[....@....
1080: 01 10 00 10 03 0E 00 00  10 01 8C 10 41 0F 80 07  ............A...
1090: 80 01 10 00 00 02 00 00  01 80 01 81 11 1D 09 80  ................
10A0: 23 02 00 00 58 80 02 B1  10 07 00 00 02 80 01 C6  #...X...........
10B0: 10 02 00 00 58 80 00 C6  10 02 8B 7F 01 80 00 C6  ....X...........
10C0: 10 07 00 00 02 80 0C 00  00 9D 00 31 1E 1F 17 00  ...........1....
10D0: 00 93 1F 17 1D 1F 80 23  93 01 80 9D 00 61 1E 1F  .......#.....a..
10E0: 17 00 00 93 1F 17 1D 1F  80 23 93 01 80 9D 00 91  .........#......
10F0: 1E 1F 17 00 00 93 1F 17  1D 1F 80 23 93 01 80 9D  ...........#....
1100: 00 C1 1E 1F 17 00 00 93  1F 17 1D 1F 80 23 93 01  .............#..
1110: 80 9D 00 F1 1E 1F 17 00  00 93 1F 17 1D 1F 80 23  ...............#
1120: 93 01 80 1D 24 80 23 24  25 80 02 80 01 80 25 02  ....$.#$%.....%.
1130: 00 10 01 80 00 44 11 06  01 00 06 02 00 1D 26 80  .....D........&.
1140: 23 01 81 11 02 00 10 02  80 00 81 11 02 05 10 01  #...............
1150: 80 00 69 11 1D 27 80 23  03 02 10 03 10 48 28 80  ..i..'.#.....H(.
1160: 06 01 00 06 02 00 01 75  11 02 05 10 02 80 00 75  .......u.......u
1170: 11 1D 05 80 23 40 0F 80  07 80 01 10 01 80 01 81  ....#@..........
1180: 11 1B 02 07 00 0A 80 02  8D 11 01 9D 11 24 55 80  .............$U.
1190: 0E 00 01 80 25 02 00 10  01 80 00 C6 11 06 01 00  ....%...........
11A0: 02 05 10 01 80 00 B7 11  1D 27 80 23 03 02 10 03  .........'.#....
11B0: 10 48 28 80 01 C3 11 02  05 10 02 80 00 C3 11 1D  .H(.............
11C0: 05 80 23 01 EC 13 02 00  10 02 80 00 DF 11 40 0F  ..#...........@.
11D0: 80 07 80 01 10 00 10 03  0E 00 00 10 01 EC 13 02  ................
11E0: 00 10 0A 80 00 F8 11 40  0F 80 07 80 01 10 00 10  .......@........
11F0: 03 0E 00 00 10 01 EC 13  02 00 10 0B 80 00 11 12  ................
1200: 40 0F 80 07 80 01 10 00  10 03 0E 00 00 10 01 EC  @...............
1210: 13 02 00 10 0C 80 00 2A  12 40 0F 80 07 80 01 10  .......*.@......
1220: 00 10 03 0E 00 00 10 01  EC 13 02 00 10 0D 80 00  ................
1230: 43 12 40 0F 80 07 80 01  10 00 10 03 0E 00 00 10  C.@.............
1240: 01 EC 13 02 00 10 0E 80  00 5C 12 40 0F 80 07 80  .........\.@....
1250: 01 10 00 10 03 0E 00 00  10 01 EC 13 02 00 10 08  ................
1260: 80 00 75 12 40 0F 80 07  80 01 10 00 10 03 0E 00  ..u.@...........
1270: 00 10 01 EC 13 02 00 10  0F 80 00 8E 12 40 0F 80  .............@..
1280: 07 80 01 10 00 10 03 0E  00 00 10 01 EC 13 02 00  ................
1290: 10 10 80 00 A7 12 40 0F  80 07 80 01 10 00 10 03  ......@.........
12A0: 0E 00 00 10 01 EC 13 02  00 10 11 80 00 C0 12 40  ...............@
12B0: 0F 80 07 80 01 10 00 10  03 0E 00 00 10 01 EC 13  ................
12C0: 02 00 10 12 80 00 D9 12  40 0F 80 07 80 01 10 00  ........@.......
12D0: 10 03 0E 00 00 10 01 EC  13 02 00 10 13 80 00 F2  ................
12E0: 12 40 0F 80 07 80 01 10  00 10 03 0E 00 00 10 01  .@..............
12F0: EC 13 02 00 10 14 80 00  0B 13 40 0F 80 07 80 01  ..........@.....
1300: 10 00 10 03 0E 00 00 10  01 EC 13 02 00 10 15 80  ................
1310: 00 24 13 40 0F 80 07 80  01 10 00 10 03 0E 00 00  .$.@............
1320: 10 01 EC 13 02 00 10 16  80 00 3D 13 40 0F 80 07  ..........=.@...
1330: 80 01 10 00 10 03 0E 00  00 10 01 EC 13 02 00 10  ................
1340: 17 80 00 56 13 40 0F 80  07 80 01 10 00 10 03 0E  ...V.@..........
1350: 00 00 10 01 EC 13 02 00  10 56 80 00 6F 13 40 0F  .........V..o.@.
1360: 80 07 80 01 10 00 10 03  0E 00 00 10 01 EC 13 02  ................
1370: 00 10 57 80 00 88 13 40  0F 80 07 80 01 10 00 10  ..W....@........
1380: 03 0E 00 00 10 01 EC 13  02 00 10 58 80 00 A1 13  ...........X....
1390: 40 0F 80 07 80 01 10 00  10 03 0E 00 00 10 01 EC  @...............
13A0: 13 02 00 10 59 80 00 BA  13 40 0F 80 07 80 01 10  ....Y....@......
13B0: 00 10 03 0E 00 00 10 01  EC 13 02 00 10 5A 80 00  .............Z..
13C0: D3 13 40 0F 80 07 80 01  10 00 10 03 0E 00 00 10  ..@.............
13D0: 01 EC 13 02 00 10 5B 80  00 EC 13 40 0F 80 07 80  ......[....@....
13E0: 01 10 00 10 03 0E 00 00  10 01 EC 13 41 0F 80 07  ............A...
13F0: 80 01 10 00 00 02 00 00  01 80 01 26 15 1D 09 80  ...........&....
1400: 23 0C 00 00 02 07 00 02  80 00 66 14 9D 00 21 1F  #.........f...!.
1410: 1F 17 00 00 93 1F 17 1D  1F 80 23 93 01 80 9D 00  ..........#.....
1420: 51 1F 1F 17 00 00 93 1F  17 1D 1F 80 23 93 01 80  Q...........#...
1430: 9D 00 81 1F 1F 17 00 00  93 1F 17 1D 1F 80 23 93  ..............#.
1440: 01 80 9D 00 B1 1F 1F 17  00 00 93 1F 17 1D 1F 80  ................
1450: 23 93 01 80 9D 00 E1 1F  1F 17 00 00 93 1F 17 1D  #...............
1460: 1F 80 23 93 01 80 02 07  00 0A 80 00 C8 14 9D 00  ..#.............
1470: 11 20 1F 17 00 00 93 1F  17 1D 1F 80 23 93 01 80  . ..........#...
1480: 9D 00 41 20 1F 17 00 00  93 1F 17 1D 1F 80 23 93  ..A ..........#.
1490: 01 80 9D 00 71 20 1F 17  00 00 93 1F 17 1D 1F 80  ....q ..........
14A0: 23 93 01 80 9D 00 A1 20  1F 17 00 00 93 1F 17 1D  #...... ........
14B0: 1F 80 23 93 01 80 9D 00  D1 20 1F 17 00 00 93 1F  ..#...... ......
14C0: 17 1D 1F 80 23 93 01 80  1D 24 80 23 24 25 80 02  ....#....$.#$%..
14D0: 80 01 80 25 02 00 10 01  80 00 E9 14 06 01 00 06  ...%............
14E0: 02 00 1D 26 80 23 01 26  15 02 00 10 02 80 00 26  ...&.#.&.......&
14F0: 15 02 05 10 01 80 00 0E  15 1D 27 80 23 03 02 10  ..........'.#...
1500: 03 10 48 28 80 06 01 00  06 02 00 01 1A 15 02 05  ..H(............
1510: 10 02 80 00 1A 15 1D 05  80 23 40 0F 80 07 80 01  .........#@.....
1520: 10 01 80 01 26 15 1B 06  09 00 06 0A 00 06 0E 00  ....&...........
1530: 06 0F 00 06 43 10 06 44  10 05 01 00 02 01 00 01  ....C..D........
1540: 80 01 30 1E 03 44 10 0F  00 02 04 10 0C 80 80 F4  ..0..D..........
1550: 15 9D 0A C1 21 00 17 01  80 15 80 9D 0A C1 21 01  ....!.........!.
1560: 17 02 80 15 80 9D 0A C1  21 02 17 0A 80 15 80 9D  ........!.......
1570: 0A C1 21 03 17 0B 80 15  80 9D 0A C1 21 04 17 0C  ..!.........!...
1580: 80 15 80 9D 0A C1 21 05  17 0D 80 15 80 9D 0A C1  ......!.........
1590: 21 06 17 0E 80 15 80 9D  0A C1 21 07 17 08 80 15  !.........!.....
15A0: 80 9D 0A C1 21 08 17 0F  80 15 80 9D 0A C1 21 09  ....!.........!.
15B0: 17 10 80 15 80 9D 0A C1  21 0A 17 11 80 15 80 9D  ........!.......
15C0: 0A C1 21 0B 17 12 80 15  80 9D 0A C1 21 0C 17 13  ..!.........!...
15D0: 80 15 80 9D 0A C1 21 0D  17 14 80 15 80 03 04 00  ......!.........
15E0: 01 80 03 05 00 5C 80 0F  05 00 1B 80 03 06 00 01  .....\..........
15F0: 80 01 B8 17 02 04 10 0D  80 80 BD 16 9D 0A E1 21  ...............!
1600: 00 17 01 80 56 80 9D 0A  E1 21 01 17 02 80 56 80  ....V....!....V.
1610: 9D 0A E1 21 02 17 0A 80  56 80 9D 0A E1 21 03 17  ...!....V....!..
1620: 0B 80 56 80 9D 0A E1 21  04 17 0C 80 56 80 9D 0A  ..V....!....V...
1630: E1 21 05 17 0D 80 56 80  9D 0A E1 21 06 17 0E 80  .!....V....!....
1640: 56 80 9D 0A E1 21 07 17  08 80 56 80 9D 0A E1 21  V....!....V....!
1650: 08 17 0F 80 56 80 9D 0A  E1 21 09 17 10 80 56 80  ....V....!....V.
1660: 9D 0A E1 21 0A 17 11 80  56 80 9D 0A E1 21 0B 17  ...!....V....!..
1670: 12 80 56 80 9D 0A E1 21  0C 17 13 80 56 80 9D 0A  ..V....!....V...
1680: E1 21 0D 17 14 80 56 80  9D 0A E1 21 0E 17 15 80  .!....V....!....
1690: 56 80 9D 0A E1 21 0F 17  16 80 56 80 9D 0A E1 21  V....!....V....!
16A0: 10 17 17 80 56 80 03 04  00 01 80 03 05 00 5D 80  ....V.........].
16B0: 0F 05 00 1B 80 03 06 00  01 80 01 B8 17 02 04 10  ................
16C0: 14 80 80 B8 17 9D 0A 11  22 00 17 01 80 5B 80 9D  ........"....[..
16D0: 0A 11 22 01 17 02 80 5B  80 9D 0A 11 22 02 17 0A  .."....[...."...
16E0: 80 5B 80 9D 0A 11 22 03  17 0B 80 5B 80 9D 0A 11  .[...."....[....
16F0: 22 04 17 0C 80 5B 80 9D  0A 11 22 05 17 0D 80 5B  "....[...."....[
1700: 80 9D 0A 11 22 06 17 0E  80 5B 80 9D 0A 11 22 07  ...."....[....".
1710: 17 08 80 5B 80 9D 0A 11  22 08 17 0F 80 5B 80 9D  ...[...."....[..
1720: 0A 11 22 09 17 10 80 5B  80 9D 0A 11 22 0A 17 11  .."....[...."...
1730: 80 5B 80 9D 0A 11 22 0B  17 12 80 5B 80 9D 0A 11  .[...."....[....
1740: 22 0C 17 13 80 5B 80 9D  0A 11 22 0D 17 14 80 5B  "....[...."....[
1750: 80 9D 0A 11 22 0E 17 15  80 5B 80 9D 0A 11 22 0F  ...."....[....".
1760: 17 16 80 5B 80 9D 0A 11  22 10 17 17 80 5B 80 9D  ...[...."....[..
1770: 0A 11 22 11 17 56 80 5B  80 9D 0A 11 22 12 17 57  .."..V.[...."..W
1780: 80 5B 80 9D 0A 11 22 13  17 58 80 5B 80 9D 0A 11  .[...."..X.[....
1790: 22 14 17 59 80 5B 80 9D  0A 11 22 15 17 5A 80 5B  "..Y.[...."..Z.[
17A0: 80 03 04 00 01 80 03 05  00 01 80 03 06 00 5E 80  ..............^.
17B0: 0F 06 00 1B 80 01 B8 17  02 44 10 0F 00 01 C8 17  .........D......
17C0: 06 0E 00 03 43 10 01 80  02 43 10 01 80 80 D3 17  ....C....C......
17D0: 01 EF 17 02 43 10 02 80  80 E1 17 01 B4 19 01 EF  ....C...........
17E0: 17 02 43 10 0A 80 80 EF  17 01 C0 1B 01 EF 17 03  ..C.............
17F0: 43 10 01 80 D4 03 02 80  00 17 D4 03 0A 80 01 17  C...............
1800: D4 03 0B 80 02 17 D4 03  0C 80 03 17 D4 03 0D 80  ................
1810: 04 17 D4 03 0E 80 05 17  D4 03 08 80 06 17 D4 03  ................
1820: 0F 80 07 17 D4 03 10 80  08 17 D4 03 11 80 09 17  ................
1830: D4 02 5F 80 0E 00 04 00  25 02 00 10 01 80 00 7B  .._.....%......{
1840: 18 02 09 00 01 80 00 72  18 06 01 00 02 05 10 01  .......r........
1850: 80 00 63 18 1D 27 80 23  03 02 10 03 10 48 28 80  ..c..'.#.....H(.
1860: 01 6F 18 02 05 10 02 80  00 6F 18 1D 05 80 23 01  .o.......o....#.
1870: 78 18 06 0E 00 01 44 15  01 D8 1D 02 00 10 02 80  x.....D.........
1880: 00 99 18 03 1F 17 00 17  40 0F 80 07 80 01 10 00  ........@.......
1890: 10 03 0E 00 00 10 01 D8  1D 02 00 10 0A 80 00 B7  ................
18A0: 18 03 1F 17 01 17 40 0F  80 07 80 01 10 00 10 03  ......@.........
18B0: 0E 00 00 10 01 D8 1D 02  00 10 0B 80 00 D5 18 03  ................
18C0: 1F 17 02 17 40 0F 80 07  80 01 10 00 10 03 0E 00  ....@...........
18D0: 00 10 01 D8 1D 02 00 10  0C 80 00 F3 18 03 1F 17  ................
18E0: 03 17 40 0F 80 07 80 01  10 00 10 03 0E 00 00 10  ..@.............
18F0: 01 D8 1D 02 00 10 0D 80  00 11 19 03 1F 17 04 17  ................
1900: 40 0F 80 07 80 01 10 00  10 03 0E 00 00 10 01 D8  @...............
1910: 1D 02 00 10 0E 80 00 2F  19 03 1F 17 05 17 40 0F  ......./......@.
1920: 80 07 80 01 10 00 10 03  0E 00 00 10 01 D8 1D 02  ................
1930: 00 10 08 80 00 4D 19 03  1F 17 06 17 40 0F 80 07  .....M......@...
1940: 80 01 10 00 10 03 0E 00  00 10 01 D8 1D 02 00 10  ................
1950: 0F 80 00 6B 19 03 1F 17  07 17 40 0F 80 07 80 01  ...k......@.....
1960: 10 00 10 03 0E 00 00 10  01 D8 1D 02 00 10 10 80  ................
1970: 00 89 19 03 1F 17 08 17  40 0F 80 07 80 01 10 00  ........@.......
1980: 10 03 0E 00 00 10 01 D8  1D 02 00 10 11 80 00 A7  ................
1990: 19 03 1F 17 09 17 40 0F  80 07 80 01 10 00 10 03  ......@.........
19A0: 0E 00 00 10 01 D8 1D 02  00 10 12 80 00 D8 1D 03  ................
19B0: 0E 00 01 80 03 43 10 02  80 D4 03 02 80 0A 17 D4  .....C..........
19C0: 03 0A 80 0B 17 D4 03 0B  80 0C 17 D4 03 0C 80 0D  ................
19D0: 17 D4 03 0D 80 0E 17 D4  03 0E 80 0F 17 D4 03 08  ................
19E0: 80 10 17 D4 03 0F 80 11  17 D4 03 10 80 12 17 D4  ................
19F0: 03 11 80 13 17 D4 02 60  80 0E 00 05 00 25 02 00  .......`.....%..
1A00: 10 01 80 00 42 1A 02 09  00 01 80 00 37 1A 06 01  ....B.......7...
1A10: 00 02 05 10 01 80 00 28  1A 1D 27 80 23 03 02 10  .......(..'.#...
1A20: 03 10 48 28 80 01 34 1A  02 05 10 02 80 00 34 1A  ..H(..4.......4.
1A30: 1D 05 80 23 01 3F 1A 03  0E 00 01 80 01 44 15 01  ...#.?.......D..
1A40: D5 1D 02 00 10 02 80 00  65 1A 03 0E 00 00 10 03  ........e.......
1A50: 1F 17 0A 17 07 00 10 11  80 40 0F 80 07 80 01 10  .........@......
1A60: 00 10 01 D5 1D 02 00 10  0A 80 00 88 1A 03 0E 00  ................
1A70: 00 10 03 1F 17 0B 17 07  00 10 11 80 40 0F 80 07  ............@...
1A80: 80 01 10 00 10 01 D5 1D  02 00 10 0B 80 00 AB 1A  ................
1A90: 03 0E 00 00 10 03 1F 17  0C 17 07 00 10 11 80 40  ...............@
1AA0: 0F 80 07 80 01 10 00 10  01 D5 1D 02 00 10 0C 80  ................
1AB0: 00 CE 1A 03 0E 00 00 10  03 1F 17 0D 17 07 00 10  ................
1AC0: 11 80 40 0F 80 07 80 01  10 00 10 01 D5 1D 02 00  ..@.............
1AD0: 10 0D 80 00 F1 1A 03 0E  00 00 10 03 1F 17 0E 17  ................
1AE0: 07 00 10 11 80 40 0F 80  07 80 01 10 00 10 01 D5  .....@..........
1AF0: 1D 02 00 10 0E 80 00 14  1B 03 0E 00 00 10 03 1F  ................
1B00: 17 0F 17 07 00 10 11 80  40 0F 80 07 80 01 10 00  ........@.......
1B10: 10 01 D5 1D 02 00 10 08  80 00 37 1B 03 0E 00 00  ..........7.....
1B20: 10 03 1F 17 10 17 07 00  10 11 80 40 0F 80 07 80  ...........@....
1B30: 01 10 00 10 01 D5 1D 02  00 10 0F 80 00 5A 1B 03  .............Z..
1B40: 0E 00 00 10 03 1F 17 11  17 07 00 10 11 80 40 0F  ..............@.
1B50: 80 07 80 01 10 00 10 01  D5 1D 02 00 10 10 80 00  ................
1B60: 7D 1B 03 0E 00 00 10 03  1F 17 12 17 07 00 10 11  }...............
1B70: 80 40 0F 80 07 80 01 10  00 10 01 D5 1D 02 00 10  .@..............
1B80: 11 80 00 A0 1B 03 0E 00  00 10 03 1F 17 13 17 07  ................
1B90: 00 10 11 80 40 0F 80 07  80 01 10 00 10 01 D5 1D  ....@...........
1BA0: 02 00 10 12 80 00 B3 1B  03 0E 00 01 80 01 EF 17  ................
1BB0: 01 D5 1D 02 00 10 13 80  00 D5 1D 03 0E 00 01 80  ................
1BC0: 03 43 10 0A 80 D4 03 02  80 14 17 D4 03 0A 80 15  .C..............
1BD0: 17 D4 03 0B 80 16 17 D4  03 0C 80 17 17 D4 03 0D  ................
1BE0: 80 18 17 D4 03 0E 80 19  17 D4 03 08 80 1A 17 D4  ................
1BF0: 03 0F 80 1B 17 D4 03 10  80 1C 17 D4 03 11 80 1D  ................
1C00: 17 D4 02 61 80 0E 00 06  00 25 02 00 10 01 80 00  ...a.....%......
1C10: 4E 1C 02 09 00 01 80 00  43 1C 06 01 00 02 05 10  N.......C.......
1C20: 01 80 00 34 1C 1D 27 80  23 03 02 10 03 10 48 28  ...4..'.#.....H(
1C30: 80 01 40 1C 02 05 10 02  80 00 40 1C 1D 05 80 23  ..@.......@....#
1C40: 01 4B 1C 03 0E 00 01 80  01 44 15 01 D2 1D 02 00  .K.......D......
1C50: 10 02 80 00 71 1C 03 0E  00 00 10 03 1F 17 14 17  ....q...........
1C60: 07 00 10 59 80 40 0F 80  07 80 01 10 00 10 01 D2  ...Y.@..........
1C70: 1D 02 00 10 0A 80 00 94  1C 03 0E 00 00 10 03 1F  ................
1C80: 17 15 17 07 00 10 59 80  40 0F 80 07 80 01 10 00  ......Y.@.......
1C90: 10 01 D2 1D 02 00 10 0B  80 00 B7 1C 03 0E 00 00  ................
1CA0: 10 03 1F 17 16 17 07 00  10 59 80 40 0F 80 07 80  .........Y.@....
1CB0: 01 10 00 10 01 D2 1D 02  00 10 0C 80 00 DA 1C 03  ................
1CC0: 0E 00 00 10 03 1F 17 17  17 07 00 10 59 80 40 0F  ............Y.@.
1CD0: 80 07 80 01 10 00 10 01  D2 1D 02 00 10 0D 80 00  ................
1CE0: FD 1C 03 0E 00 00 10 03  1F 17 18 17 07 00 10 59  ...............Y
1CF0: 80 40 0F 80 07 80 01 10  00 10 01 D2 1D 02 00 10  .@..............
1D00: 0E 80 00 20 1D 03 0E 00  00 10 03 1F 17 19 17 07  ... ............
1D10: 00 10 59 80 40 0F 80 07  80 01 10 00 10 01 D2 1D  ..Y.@...........
1D20: 02 00 10 08 80 00 43 1D  03 0E 00 00 10 03 1F 17  ......C.........
1D30: 1A 17 07 00 10 59 80 40  0F 80 07 80 01 10 00 10  .....Y.@........
1D40: 01 D2 1D 02 00 10 0F 80  00 66 1D 03 0E 00 00 10  .........f......
1D50: 03 1F 17 1B 17 07 00 10  59 80 40 0F 80 07 80 01  ........Y.@.....
1D60: 10 00 10 01 D2 1D 02 00  10 10 80 00 89 1D 03 0E  ................
1D70: 00 00 10 03 1F 17 1C 17  07 00 10 59 80 40 0F 80  ...........Y.@..
1D80: 07 80 01 10 00 10 01 D2  1D 02 00 10 11 80 00 AC  ................
1D90: 1D 03 0E 00 00 10 03 1F  17 1D 17 07 00 10 59 80  ..............Y.
1DA0: 40 0F 80 07 80 01 10 00  10 01 D2 1D 02 00 10 12  @...............
1DB0: 80 00 BF 1D 03 0E 00 01  80 01 B4 19 01 D2 1D 02  ................
1DC0: 00 10 13 80 00 D2 1D 03  0E 00 01 80 01 EF 17 01  ................
1DD0: D2 1D 01 D5 1D 01 D8 1D  41 0F 80 07 80 01 10 00  ........A.......
1DE0: 00 02 00 00 01 80 01 2D  1E 93 1F 17 1D 24 80 23  .......-.....$.#
1DF0: 93 01 80 24 25 80 02 80  01 80 25 02 00 10 01 80  ...$%.....%.....
1E00: 00 19 1E 06 01 00 06 02  00 1D 26 80 23 40 62 80  ..........&.#@b.
1E10: 07 80 01 10 0A 00 01 2D  1E 02 00 10 02 80 00 2D  .......-.......-
1E20: 1E 40 0F 80 07 80 01 10  01 80 01 2D 1E 01 3C 15  .@.........-..<.
1E30: 1B 63 80 64 80 65 80 66  80 67 80 68 80 69 80 6A  .c.d.e.f.g.h.i.j
1E40: 80 6B 80 6C 80 6D 80 6E  80 6F 80 70 80 71 80 72  .k.l.m.n.o.p.q.r
1E50: 80 73 80 74 80 75 80 76  80 77 80 78 80 79 80 01  .s.t.u.v.w.x.y..
1E60: 80 7A 80 7B 80 7C 80 7D  80 7E 80 7F 80 80 80 81  .z.{.|.}.~......
1E70: 80 82 80 83 80 84 80 85  80 86 80 87 80 88 80 89  ................
1E80: 80 8A 80 8B 80 8C 80 8D  80 8E 80 8F 80 90 80 01  ................
1E90: 80 91 80 92 80 93 80 94  80 95 80 96 80 97 80 98  ................
1EA0: 80 99 80 9A 80 9B 80 9C  80 9D 80 9E 80 9F 80 A0  ................
1EB0: 80 A1 80 A2 80 A3 80 A4  80 A5 80 A6 80 A7 80 01  ................
1EC0: 80 A8 80 A9 80 AA 80 AB  80 AC 80 AD 80 AE 80 AF  ................
1ED0: 80 B0 80 B1 80 B2 80 B3  80 B4 80 B5 80 B6 80 B7  ................
1EE0: 80 B8 80 B9 80 BA 80 BB  80 BC 80 BD 80 BE 80 01  ................
1EF0: 80 BF 80 C0 80 C1 80 C2  80 C3 80 C4 80 C5 80 C6  ................
1F00: 80 C7 80 C8 80 C9 80 CA  80 CB 80 CC 80 CD 80 CE  ................
1F10: 80 CF 80 D0 80 D1 80 D2  80 D3 80 D4 80 D5 80 01  ................
1F20: 80 D6 80 D7 80 D8 80 D9  80 DA 80 DB 80 DC 80 DD  ................
1F30: 80 DE 80 DF 80 E0 80 E1  80 E2 80 E3 80 E4 80 E5  ................
1F40: 80 E6 80 E7 80 E8 80 E9  80 EA 80 EB 80 01 80 01  ................
1F50: 80 EC 80 ED 80 EE 80 EF  80 F0 80 F1 80 F2 80 F3  ................
1F60: 80 F4 80 F5 80 F6 80 F7  80 F8 80 F9 80 FA 80 FB  ................
1F70: 80 FC 80 FD 80 FE 80 FF  80 00 81 01 81 01 80 01  ................
1F80: 80 02 81 03 81 04 81 05  81 06 81 07 81 08 81 09  ................
1F90: 81 0A 81 0B 81 0C 81 0D  81 0E 81 0F 81 10 81 11  ................
1FA0: 81 12 81 13 81 14 81 15  81 16 81 17 81 01 80 01  ................
1FB0: 80 18 81 19 81 1A 81 1B  81 1C 81 1D 81 1E 81 1F  ................
1FC0: 81 20 81 21 81 22 81 23  81 24 81 25 81 26 81 27  . .!.".#.$.%.&.'
1FD0: 81 28 81 29 81 2A 81 2B  81 2C 81 2D 81 01 80 01  .(.).*.+.,.-....
1FE0: 80 2E 81 2F 81 30 81 31  81 32 81 33 81 34 81 35  .../.0.1.2.3.4.5
1FF0: 81 36 81 37 81 38 81 39  81 3A 81 3B 81 3C 81 3D  .6.7.8.9.:.;.<.=
2000: 81 3E 81 3F 81 40 81 41  81 42 81 43 81 01 80 01  .>.?.@.A.B.C....
2010: 80 44 81 45 81 46 81 47  81 48 81 49 81 4A 81 4B  .D.E.F.G.H.I.J.K
2020: 81 4C 81 4D 81 4E 81 4F  81 50 81 51 81 52 81 53  .L.M.N.O.P.Q.R.S
2030: 81 54 81 55 81 56 81 57  81 58 81 59 81 01 80 01  .T.U.V.W.X.Y....
2040: 80 5A 81 5B 81 5C 81 5D  81 5E 81 5F 81 60 81 61  .Z.[.\.].^._.`.a
2050: 81 62 81 63 81 64 81 65  81 66 81 67 81 68 81 69  .b.c.d.e.f.g.h.i
2060: 81 6A 81 6B 81 6C 81 6D  81 6E 81 6F 81 01 80 01  .j.k.l.m.n.o....
2070: 80 70 81 71 81 72 81 73  81 74 81 75 81 76 81 77  .p.q.r.s.t.u.v.w
2080: 81 78 81 79 81 7A 81 7B  81 7C 81 7D 81 7E 81 7F  .x.y.z.{.|.}.~..
2090: 81 80 81 81 81 82 81 83  81 84 81 85 81 01 80 01  ................
20A0: 80 86 81 87 81 88 81 89  81 8A 81 8B 81 8C 81 8D  ................
20B0: 81 8E 81 8F 81 90 81 91  81 92 81 93 81 94 81 95  ................
20C0: 81 96 81 97 81 98 81 99  81 9A 81 9B 81 01 80 01  ................
20D0: 80 9C 81 9D 81 9E 81 9F  81 A0 81 A1 81 A2 81 A3  ................
20E0: 81 A4 81 A5 81 A6 81 A7  81 A8 81 A9 81 AA 81 AB  ................
20F0: 81 AC 81 AD 81 AE 81 AF  81 B0 81 B1 81 01 80 01  ................
2100: 80 01 80 B2 81 B3 81 B4  81 B5 81 B6 81 B7 81 B8  ................
2110: 81 B9 81 BA 81 BB 81 BC  81 BD 81 BE 81 BF 81 C0  ................
2120: 81 C1 81 01 80 01 80 01  80 01 80 01 80 01 80 01  ................
2130: 80 01 80 01 80 01 80 01  80 01 80 01 80 01 80 01  ................
2140: 80 01 80 01 80 01 80 01  80 01 80 01 80 01 80 01  ................
2150: 80 01 80 01 80 01 80 01  80 01 80 01 80 01 80 01  ................
2160: 80 01 80 01 80 01 80 01  80 01 80 01 80 01 80 01  ................
2170: 80 01 80 01 80 01 80 01  80 01 80 01 80 01 80 01  ................
2180: 80 01 80 01 80 01 80 01  80 01 80 01 80 01 80 01  ................
2190: 80 01 80 01 80 01 80 01  80 01 80 01 80 01 80 01  ................
21A0: 80 01 80 01 80 01 80 01  80 01 80 01 80 01 80 01  ................
21B0: 80 01 80 01 80 01 80 01  80 01 80 01 80 01 80 01  ................
21C0: 80 C2 81 C3 81 C4 81 C5  81 C6 81 C7 81 C8 81 C9  ................
21D0: 81 CA 81 CB 81 CC 81 CD  81 CE 81 CF 81 01 80 01  ................
21E0: 80 D0 81 D1 81 D2 81 D3  81 D4 81 D5 81 D6 81 D7  ................
21F0: 81 D8 81 D9 81 DA 81 DB  81 DC 81 DD 81 DE 81 DF  ................
2200: 81 E0 81 01 80 01 80 01  80 01 80 01 80 01 80 01  ................
2210: 80 E1 81 E2 81 E3 81 E4  81 E5 81 E6 81 E7 81 E8  ................
2220: 81 E9 81 EA 81 EB 81 EC  81 ED 81 EE 81 EF 81 F0  ................
2230: 81 F1 81 F2 81 F3 81 F4  81 F5 81 F6 81 01 80 01  ................
2240: 80                                                .               
```

#### Opcodes

```
  0: 0x000C [0x42] SET_CLI_EVENT_CANCEL_DATA()
  1: 0x000D [0x03] ExtData[1]->WorkLocal[11] = Work_Zone[9]
  2: 0x0012 [0x03] ExtData[1]->WorkLocal[12] = Work_Zone[8]
  3: 0x0017 [0x03] Work_Zone[1] = 0*
  4: 0x001C [0x1E] EventEntity looks at LocalPlayer and starts talking
  5: 0x0021 [0x02] IF !(Work_Zone[5] <= 1*) GOTO 0x0298
  6: 0x0029 [0x1A] CALL_SUBROUTINE(address=0x04A5)
  7: 0x002C [0x1D] PRINT_EVENT_MESSAGE(message_id=15669*)
    → "Decided on the prize you'd like to receive? Go ahead and select it from the list, kupo!"
  8: 0x002F [0x23] WAIT_FOR_DIALOG_INTERACTION
  9: 0x0030 [0x03] ExtData[1]->WorkLocal[13] = 0*
 10: 0x0035 [0x03] ExtData[1]->WorkLocal[14] = 0*
 11: 0x003A [0x03] ExtData[1]->WorkLocal[15] = 0*
 12: 0x003F [0x03] Work_Zone[66] = 0*
 13: 0x0044 [0x03] Work_Zone[67] = 0*
 14: 0x0049 [0x05] ExtData[1]->WorkLocal[2] = 1
 15: 0x004C [0x02] IF !(ExtData[1]->WorkLocal[2] == 0*) GOTO 0x0295
 16: 0x0054 [0x1A] CALL_SUBROUTINE(address=0x0548)
 17: 0x0057 [0x02] IF !(ExtData[1]->WorkLocal[13] == 0*) GOTO 0x00E5
 18: 0x005F [0x24] CREATE_DIALOG(message_id=15670*, default_option=Work_Zone[66], option_flags=ExtData[1]->WorkLocal[4])
    → "What will it be? [Nothing for now./$6./$6./$6./$6./$6./$6./$6./$6./$6./$6./$6./$6./$6./$6./$6./$6./$6./$6./$6./$6./$6./$6./$6./$6./$6./$6./$6./$6./$6./Next page./Previous page.]"
 19: 0x0066 [0x25] WAIT_DIALOG_SELECT()
 20: 0x0067 [0x02] IF !(Work_Zone[0] == 0*) GOTO 0x0081
 21: 0x006F [0x06] ExtData[1]->WorkLocal[2] = 0
 22: 0x0072 [0x1D] PRINT_EVENT_MESSAGE(message_id=15678*)
    → "I understand. Come talk to me again once you've made your decision, kupo."
 23: 0x0075 [0x23] WAIT_FOR_DIALOG_INTERACTION
 24: 0x0076 [0x06] Work_Zone[4] = 0
 25: 0x0079 [0x03] Work_Zone[66] = 0*
 26: 0x007E [0x01] GOTO 0x00E2
 27: 0x0081 [0x02] IF !(Work_Zone[0] == 30*) GOTO 0x0099
 28: 0x0089 [0x03] ExtData[1]->WorkLocal[13] = 1*
 29: 0x008E [0x06] Work_Zone[4] = 0
 30: 0x0091 [0x03] Work_Zone[66] = 0*
 31: 0x0096 [0x01] GOTO 0x00E2
 32: 0x0099 [0x02] IF !(Work_Zone[0] == 31*) GOTO 0x00AC
 33: 0x00A1 [0x06] Work_Zone[4] = 0
 34: 0x00A4 [0x03] Work_Zone[66] = 0*
 35: 0x00A9 [0x01] GOTO 0x00E2
 36: 0x00AC [0x03] Work_Zone[66] = Work_Zone[0]
 37: 0x00B1 [0x03] Work_Zone[4] = Work_Zone[0]
 38: 0x00B6 [0x0C] Work_Zone[4]--
 39: 0x00B9 [0x02] IF !(Work_Zone[4] >= 0*) GOTO 0x00C4
 40: 0x00C1 [0x06] Work_Zone[4] = 0
 41: 0x00C4 [0x9D] ExtData[1]->WorkLocal[0] = 0x06FE[Work_Zone[4]] // Read WORD
 42: 0x00CC [0x1A] CALL_SUBROUTINE(address=0x0632)
 43: 0x00CF [0x02] IF !(ExtData[1]->WorkLocal[0] == 0*) GOTO 0x00DF
 44: 0x00D7 [0x03] Work_Zone[4] = ExtData[1]->WorkLocal[0]
 45: 0x00DC [0x01] GOTO 0x00E2
 46: 0x00DF [0x06] Work_Zone[4] = 0

SUBROUTINE_00E2:
 47: 0x00E2 [0x01] GOTO 0x00E5

SUBROUTINE_00E5:
 48: 0x00E5 [0x02] IF !(Work_Zone[4] == 0*) GOTO 0x00F0
 49: 0x00ED [0x01] GOTO 0x0292
 50: 0x00F0 [0x02] IF !(Work_Zone[4] == 1*) GOTO 0x010B
 51: 0x00F8 [0x40] SET_BIT_WORK_RANGE(start_bit=0*, end_bit=7*, target=Work_Zone[1], source=Work_Zone[4])
 52: 0x0101 [0x1D] PRINT_EVENT_MESSAGE(message_id=15683*)
    → "I shall issue you the following, kupo."
 53: 0x0104 [0x23] WAIT_FOR_DIALOG_INTERACTION
 54: 0x0105 [0x1A] CALL_SUBROUTINE(address=0x073E)
 55: 0x0108 [0x01] GOTO 0x0292
 56: 0x010B [0x02] IF !(Work_Zone[4] == 2*) GOTO 0x0126
 57: 0x0113 [0x40] SET_BIT_WORK_RANGE(start_bit=0*, end_bit=7*, target=Work_Zone[1], source=Work_Zone[4])
 58: 0x011C [0x1D] PRINT_EVENT_MESSAGE(message_id=15683*)
    → "I shall issue you the following, kupo."
 59: 0x011F [0x23] WAIT_FOR_DIALOG_INTERACTION
 60: 0x0120 [0x1A] CALL_SUBROUTINE(address=0x07F1)
 61: 0x0123 [0x01] GOTO 0x0292
 62: 0x0126 [0x02] IF !(Work_Zone[4] == 3*) GOTO 0x0141
 63: 0x012E [0x40] SET_BIT_WORK_RANGE(start_bit=0*, end_bit=7*, target=Work_Zone[1], source=Work_Zone[4])
 64: 0x0137 [0x1D] PRINT_EVENT_MESSAGE(message_id=15683*)
    → "I shall issue you the following, kupo."
 65: 0x013A [0x23] WAIT_FOR_DIALOG_INTERACTION
 66: 0x013B [0x1A] CALL_SUBROUTINE(address=0x08A4)
 67: 0x013E [0x01] GOTO 0x0292
 68: 0x0141 [0x02] IF !(Work_Zone[4] == 4*) GOTO 0x0158
 69: 0x0149 [0x40] SET_BIT_WORK_RANGE(start_bit=0*, end_bit=7*, target=Work_Zone[1], source=Work_Zone[4])
 70: 0x0152 [0x1A] CALL_SUBROUTINE(address=0x1527)
 71: 0x0155 [0x01] GOTO 0x0292
 72: 0x0158 [0x02] IF !(Work_Zone[4] == 5*) GOTO 0x016F
 73: 0x0160 [0x40] SET_BIT_WORK_RANGE(start_bit=0*, end_bit=7*, target=Work_Zone[1], source=Work_Zone[4])
 74: 0x0169 [0x1A] CALL_SUBROUTINE(address=0x1527)
 75: 0x016C [0x01] GOTO 0x0292
 76: 0x016F [0x02] IF !(Work_Zone[4] == 6*) GOTO 0x018A
 77: 0x0177 [0x40] SET_BIT_WORK_RANGE(start_bit=0*, end_bit=7*, target=Work_Zone[1], source=Work_Zone[4])

SUBROUTINE_0180:
 78: 0x0180 [0x1D] PRINT_EVENT_MESSAGE(message_id=15683*)
    → "I shall issue you the following, kupo."
 79: 0x0183 [0x23] WAIT_FOR_DIALOG_INTERACTION
 80: 0x0184 [0x1A] CALL_SUBROUTINE(address=0x0957)
 81: 0x0187 [0x01] GOTO 0x0292
 82: 0x018A [0x02] IF !(Work_Zone[4] == 7*) GOTO 0x01A5
 83: 0x0192 [0x40] SET_BIT_WORK_RANGE(start_bit=0*, end_bit=7*, target=Work_Zone[1], source=Work_Zone[4])
 84: 0x019B [0x1D] PRINT_EVENT_MESSAGE(message_id=15683*)
    → "I shall issue you the following, kupo."
 85: 0x019E [0x23] WAIT_FOR_DIALOG_INTERACTION
 86: 0x019F [0x1A] CALL_SUBROUTINE(address=0x0A0A)
 87: 0x01A2 [0x01] GOTO 0x0292
 88: 0x01A5 [0x02] IF !(Work_Zone[4] == 8*) GOTO 0x01C0
 89: 0x01AD [0x40] SET_BIT_WORK_RANGE(start_bit=0*, end_bit=7*, target=Work_Zone[1], source=Work_Zone[4])
 90: 0x01B6 [0x1D] PRINT_EVENT_MESSAGE(message_id=15683*)
    → "I shall issue you the following, kupo."
 91: 0x01B9 [0x23] WAIT_FOR_DIALOG_INTERACTION
 92: 0x01BA [0x1A] CALL_SUBROUTINE(address=0x0ABD)
 93: 0x01BD [0x01] GOTO 0x0292
 94: 0x01C0 [0x02] IF !(Work_Zone[4] == 9*) GOTO 0x01DB
 95: 0x01C8 [0x40] SET_BIT_WORK_RANGE(start_bit=0*, end_bit=7*, target=Work_Zone[1], source=Work_Zone[4])
 96: 0x01D1 [0x1D] PRINT_EVENT_MESSAGE(message_id=15683*)
    → "I shall issue you the following, kupo."
 97: 0x01D4 [0x23] WAIT_FOR_DIALOG_INTERACTION
 98: 0x01D5 [0x1A] CALL_SUBROUTINE(address=0x0B70)
 99: 0x01D8 [0x01] GOTO 0x0292
100: 0x01DB [0x02] IF !(Work_Zone[4] == 10*) GOTO 0x01F6
101: 0x01E3 [0x40] SET_BIT_WORK_RANGE(start_bit=0*, end_bit=7*, target=Work_Zone[1], source=Work_Zone[4])
102: 0x01EC [0x1D] PRINT_EVENT_MESSAGE(message_id=15683*)
    → "I shall issue you the following, kupo."
103: 0x01EF [0x23] WAIT_FOR_DIALOG_INTERACTION
104: 0x01F0 [0x1A] CALL_SUBROUTINE(address=0x0C23)
105: 0x01F3 [0x01] GOTO 0x0292
106: 0x01F6 [0x02] IF !(Work_Zone[4] == 11*) GOTO 0x0211
107: 0x01FE [0x40] SET_BIT_WORK_RANGE(start_bit=0*, end_bit=7*, target=Work_Zone[1], source=Work_Zone[4])
108: 0x0207 [0x1D] PRINT_EVENT_MESSAGE(message_id=15683*)
    → "I shall issue you the following, kupo."
109: 0x020A [0x23] WAIT_FOR_DIALOG_INTERACTION
110: 0x020B [0x1A] CALL_SUBROUTINE(address=0x0CC7)
111: 0x020E [0x01] GOTO 0x0292
112: 0x0211 [0x02] IF !(Work_Zone[4] == 12*) GOTO 0x022C
113: 0x0219 [0x40] SET_BIT_WORK_RANGE(start_bit=0*, end_bit=7*, target=Work_Zone[1], source=Work_Zone[4])
114: 0x0222 [0x1D] PRINT_EVENT_MESSAGE(message_id=15683*)
    → "I shall issue you the following, kupo."
115: 0x0225 [0x23] WAIT_FOR_DIALOG_INTERACTION
116: 0x0226 [0x1A] CALL_SUBROUTINE(address=0x0D7A)
117: 0x0229 [0x01] GOTO 0x0292
118: 0x022C [0x02] IF !(Work_Zone[4] == 13*) GOTO 0x0243
119: 0x0234 [0x40] SET_BIT_WORK_RANGE(start_bit=0*, end_bit=7*, target=Work_Zone[1], source=Work_Zone[4])
120: 0x023D [0x1A] CALL_SUBROUTINE(address=0x1527)
121: 0x0240 [0x01] GOTO 0x0292
122: 0x0243 [0x02] IF !(Work_Zone[4] == 14*) GOTO 0x025A
123: 0x024B [0x40] SET_BIT_WORK_RANGE(start_bit=0*, end_bit=7*, target=Work_Zone[1], source=Work_Zone[4])
124: 0x0254 [0x1A] CALL_SUBROUTINE(address=0x0E2D)
125: 0x0257 [0x01] GOTO 0x0292
126: 0x025A [0x02] IF !(Work_Zone[4] == 15*) GOTO 0x0276
127: 0x0262 [0x40] SET_BIT_WORK_RANGE(start_bit=0*, end_bit=7*, target=Work_Zone[1], source=Work_Zone[4])
128: 0x026B [0x03] ExtData[1]->WorkLocal[7] = 1*
129: 0x0270 [0x1A] CALL_SUBROUTINE(address=0x1182)
130: 0x0273 [0x01] GOTO 0x0292
131: 0x0276 [0x02] IF !(Work_Zone[4] == 16*) GOTO 0x0292
132: 0x027E [0x40] SET_BIT_WORK_RANGE(start_bit=0*, end_bit=7*, target=Work_Zone[1], source=Work_Zone[4])
133: 0x0287 [0x03] ExtData[1]->WorkLocal[7] = 2*
134: 0x028C [0x1A] CALL_SUBROUTINE(address=0x1182)
135: 0x028F [0x01] GOTO 0x0292

SUBROUTINE_0292:
136: 0x0292 [0x01] GOTO 0x004C
137: 0x0295 [0x01] GOTO 0x04A3
138: 0x0298 [0x40] SET_BIT_WORK_RANGE(start_bit=0*, end_bit=7*, target=Work_Zone[1], source=Work_Zone[4])
139: 0x02A1 [0x02] IF !(Work_Zone[5] >= 1*) GOTO 0x0346
140: 0x02A9 [0x02] IF !(Work_Zone[4] == 1*) GOTO 0x02B8
141: 0x02B1 [0x1D] PRINT_EVENT_MESSAGE(message_id=15683*)
    → "I shall issue you the following, kupo."
142: 0x02B4 [0x23] WAIT_FOR_DIALOG_INTERACTION
143: 0x02B5 [0x01] GOTO 0x0343
144: 0x02B8 [0x02] IF !(Work_Zone[4] == 2*) GOTO 0x02C7
145: 0x02C0 [0x1D] PRINT_EVENT_MESSAGE(message_id=15683*)
    → "I shall issue you the following, kupo."
146: 0x02C3 [0x23] WAIT_FOR_DIALOG_INTERACTION
147: 0x02C4 [0x01] GOTO 0x0343
148: 0x02C7 [0x02] IF !(Work_Zone[4] == 3*) GOTO 0x02D6
149: 0x02CF [0x1D] PRINT_EVENT_MESSAGE(message_id=15683*)
    → "I shall issue you the following, kupo."
150: 0x02D2 [0x23] WAIT_FOR_DIALOG_INTERACTION
151: 0x02D3 [0x01] GOTO 0x0343
152: 0x02D6 [0x02] IF !(Work_Zone[4] == 6*) GOTO 0x02E5
153: 0x02DE [0x1D] PRINT_EVENT_MESSAGE(message_id=15683*)
    → "I shall issue you the following, kupo."
154: 0x02E1 [0x23] WAIT_FOR_DIALOG_INTERACTION
155: 0x02E2 [0x01] GOTO 0x0343
156: 0x02E5 [0x02] IF !(Work_Zone[4] == 7*) GOTO 0x02F4
157: 0x02ED [0x1D] PRINT_EVENT_MESSAGE(message_id=15683*)
    → "I shall issue you the following, kupo."
158: 0x02F0 [0x23] WAIT_FOR_DIALOG_INTERACTION
159: 0x02F1 [0x01] GOTO 0x0343
160: 0x02F4 [0x02] IF !(Work_Zone[4] == 8*) GOTO 0x0303
161: 0x02FC [0x1D] PRINT_EVENT_MESSAGE(message_id=15683*)
    → "I shall issue you the following, kupo."
162: 0x02FF [0x23] WAIT_FOR_DIALOG_INTERACTION
163: 0x0300 [0x01] GOTO 0x0343
164: 0x0303 [0x02] IF !(Work_Zone[4] == 9*) GOTO 0x0312
165: 0x030B [0x1D] PRINT_EVENT_MESSAGE(message_id=15683*)
    → "I shall issue you the following, kupo."
166: 0x030E [0x23] WAIT_FOR_DIALOG_INTERACTION
167: 0x030F [0x01] GOTO 0x0343
168: 0x0312 [0x02] IF !(Work_Zone[4] == 10*) GOTO 0x0321
169: 0x031A [0x1D] PRINT_EVENT_MESSAGE(message_id=15683*)
    → "I shall issue you the following, kupo."
170: 0x031D [0x23] WAIT_FOR_DIALOG_INTERACTION
171: 0x031E [0x01] GOTO 0x0343
172: 0x0321 [0x02] IF !(Work_Zone[4] == 11*) GOTO 0x0330
173: 0x0329 [0x1D] PRINT_EVENT_MESSAGE(message_id=15683*)
    → "I shall issue you the following, kupo."
174: 0x032C [0x23] WAIT_FOR_DIALOG_INTERACTION
175: 0x032D [0x01] GOTO 0x0343
176: 0x0330 [0x02] IF !(Work_Zone[4] == 12*) GOTO 0x033F
177: 0x0338 [0x1D] PRINT_EVENT_MESSAGE(message_id=15683*)
    → "I shall issue you the following, kupo."
178: 0x033B [0x23] WAIT_FOR_DIALOG_INTERACTION
179: 0x033C [0x01] GOTO 0x0343
180: 0x033F [0x1D] PRINT_EVENT_MESSAGE(message_id=15668*)
    → "I'll exchange your $0! Go ahead and select an item from the list of prizes, kupo."
181: 0x0342 [0x23] WAIT_FOR_DIALOG_INTERACTION

SUBROUTINE_0343:
182: 0x0343 [0x01] GOTO 0x03E0
183: 0x0346 [0x02] IF !(Work_Zone[4] == 1*) GOTO 0x0355
184: 0x034E [0x1D] PRINT_EVENT_MESSAGE(message_id=15683*)
    → "I shall issue you the following, kupo."
185: 0x0351 [0x23] WAIT_FOR_DIALOG_INTERACTION
186: 0x0352 [0x01] GOTO 0x03E0
187: 0x0355 [0x02] IF !(Work_Zone[4] == 2*) GOTO 0x0364
188: 0x035D [0x1D] PRINT_EVENT_MESSAGE(message_id=15683*)
    → "I shall issue you the following, kupo."
189: 0x0360 [0x23] WAIT_FOR_DIALOG_INTERACTION
190: 0x0361 [0x01] GOTO 0x03E0
191: 0x0364 [0x02] IF !(Work_Zone[4] == 3*) GOTO 0x0373
192: 0x036C [0x1D] PRINT_EVENT_MESSAGE(message_id=15683*)
    → "I shall issue you the following, kupo."
193: 0x036F [0x23] WAIT_FOR_DIALOG_INTERACTION
194: 0x0370 [0x01] GOTO 0x03E0
195: 0x0373 [0x02] IF !(Work_Zone[4] == 6*) GOTO 0x0382
196: 0x037B [0x1D] PRINT_EVENT_MESSAGE(message_id=15683*)
    → "I shall issue you the following, kupo."
197: 0x037E [0x23] WAIT_FOR_DIALOG_INTERACTION
198: 0x037F [0x01] GOTO 0x03E0
199: 0x0382 [0x02] IF !(Work_Zone[4] == 7*) GOTO 0x0391
200: 0x038A [0x1D] PRINT_EVENT_MESSAGE(message_id=15683*)
    → "I shall issue you the following, kupo."
201: 0x038D [0x23] WAIT_FOR_DIALOG_INTERACTION
202: 0x038E [0x01] GOTO 0x03E0
203: 0x0391 [0x02] IF !(Work_Zone[4] == 8*) GOTO 0x03A0
204: 0x0399 [0x1D] PRINT_EVENT_MESSAGE(message_id=15683*)
    → "I shall issue you the following, kupo."
205: 0x039C [0x23] WAIT_FOR_DIALOG_INTERACTION
206: 0x039D [0x01] GOTO 0x03E0
207: 0x03A0 [0x02] IF !(Work_Zone[4] == 9*) GOTO 0x03AF
208: 0x03A8 [0x1D] PRINT_EVENT_MESSAGE(message_id=15683*)
    → "I shall issue you the following, kupo."
209: 0x03AB [0x23] WAIT_FOR_DIALOG_INTERACTION
210: 0x03AC [0x01] GOTO 0x03E0
211: 0x03AF [0x02] IF !(Work_Zone[4] == 10*) GOTO 0x03BE
212: 0x03B7 [0x1D] PRINT_EVENT_MESSAGE(message_id=15683*)
    → "I shall issue you the following, kupo."
213: 0x03BA [0x23] WAIT_FOR_DIALOG_INTERACTION
214: 0x03BB [0x01] GOTO 0x03E0
215: 0x03BE [0x02] IF !(Work_Zone[4] == 11*) GOTO 0x03CD
216: 0x03C6 [0x1D] PRINT_EVENT_MESSAGE(message_id=15683*)
    → "I shall issue you the following, kupo."
217: 0x03C9 [0x23] WAIT_FOR_DIALOG_INTERACTION
218: 0x03CA [0x01] GOTO 0x03E0
219: 0x03CD [0x02] IF !(Work_Zone[4] == 12*) GOTO 0x03DC
220: 0x03D5 [0x1D] PRINT_EVENT_MESSAGE(message_id=15683*)
    → "I shall issue you the following, kupo."
221: 0x03D8 [0x23] WAIT_FOR_DIALOG_INTERACTION
222: 0x03D9 [0x01] GOTO 0x03E0
223: 0x03DC [0x1D] PRINT_EVENT_MESSAGE(message_id=15669*)
    → "Decided on the prize you'd like to receive? Go ahead and select it from the list, kupo!"
224: 0x03DF [0x23] WAIT_FOR_DIALOG_INTERACTION

SUBROUTINE_03E0:
225: 0x03E0 [0x02] IF !(Work_Zone[4] == 1*) GOTO 0x03EE
226: 0x03E8 [0x1A] CALL_SUBROUTINE(address=0x073E)
227: 0x03EB [0x01] GOTO 0x04A3
228: 0x03EE [0x02] IF !(Work_Zone[4] == 2*) GOTO 0x03FC
229: 0x03F6 [0x1A] CALL_SUBROUTINE(address=0x07F1)
230: 0x03F9 [0x01] GOTO 0x04A3
231: 0x03FC [0x02] IF !(Work_Zone[4] == 3*) GOTO 0x040A
232: 0x0404 [0x1A] CALL_SUBROUTINE(address=0x08A4)
233: 0x0407 [0x01] GOTO 0x04A3
234: 0x040A [0x02] IF !(Work_Zone[4] == 6*) GOTO 0x0418
235: 0x0412 [0x1A] CALL_SUBROUTINE(address=0x0957)
236: 0x0415 [0x01] GOTO 0x04A3
237: 0x0418 [0x02] IF !(Work_Zone[4] == 7*) GOTO 0x0426
238: 0x0420 [0x1A] CALL_SUBROUTINE(address=0x0A0A)
239: 0x0423 [0x01] GOTO 0x04A3
240: 0x0426 [0x02] IF !(Work_Zone[4] == 8*) GOTO 0x0434
241: 0x042E [0x1A] CALL_SUBROUTINE(address=0x0ABD)
242: 0x0431 [0x01] GOTO 0x04A3
243: 0x0434 [0x02] IF !(Work_Zone[4] == 9*) GOTO 0x0442
244: 0x043C [0x1A] CALL_SUBROUTINE(address=0x0B70)
245: 0x043F [0x01] GOTO 0x04A3
246: 0x0442 [0x02] IF !(Work_Zone[4] == 10*) GOTO 0x0450
247: 0x044A [0x1A] CALL_SUBROUTINE(address=0x0C23)
248: 0x044D [0x01] GOTO 0x04A3
249: 0x0450 [0x02] IF !(Work_Zone[4] == 11*) GOTO 0x045E
250: 0x0458 [0x1A] CALL_SUBROUTINE(address=0x0CC7)
251: 0x045B [0x01] GOTO 0x04A3
252: 0x045E [0x02] IF !(Work_Zone[4] == 12*) GOTO 0x046C
253: 0x0466 [0x1A] CALL_SUBROUTINE(address=0x0D7A)
254: 0x0469 [0x01] GOTO 0x04A3
255: 0x046C [0x02] IF !(Work_Zone[4] == 14*) GOTO 0x047A
256: 0x0474 [0x1A] CALL_SUBROUTINE(address=0x0E2D)
257: 0x0477 [0x01] GOTO 0x04A3
258: 0x047A [0x02] IF !(Work_Zone[4] == 15*) GOTO 0x048D
259: 0x0482 [0x03] ExtData[1]->WorkLocal[7] = 1*
260: 0x0487 [0x1A] CALL_SUBROUTINE(address=0x1182)
261: 0x048A [0x01] GOTO 0x04A3
262: 0x048D [0x02] IF !(Work_Zone[4] == 16*) GOTO 0x04A0
263: 0x0495 [0x03] ExtData[1]->WorkLocal[7] = 2*
264: 0x049A [0x1A] CALL_SUBROUTINE(address=0x1182)
265: 0x049D [0x01] GOTO 0x04A3
266: 0x04A0 [0x1A] CALL_SUBROUTINE(address=0x1527)

SUBROUTINE_04A3:
267: 0x04A3 [0x21] END_EVENT
268: 0x04A4 [0x00] END_REQSTACK()

SUBROUTINE_04A5:
269: 0x04A5 [0x06] ExtData[1]->WorkLocal[1] = 0

SUBROUTINE_04A8:
270: 0x04A8 [0x02] IF !(ExtData[1]->WorkLocal[1] >= 64*) GOTO 0x04C0
271: 0x04B0 [0x9D] Table[0x067E] = 0* // p3=ExtData[1]->WorkLocal[1], p4=0x8019
272: 0x04BA [0x0B] ExtData[1]->WorkLocal[1]++
273: 0x04BD [0x01] GOTO 0x04A8
274: 0x04C0 [0x06] ExtData[1]->WorkLocal[1] = 0

SUBROUTINE_04C3:
275: 0x04C3 [0x02] IF !(ExtData[1]->WorkLocal[1] >= 32*) GOTO 0x04DB
276: 0x04CB [0x9D] Table[0x06FE] = 0* // p3=ExtData[1]->WorkLocal[1], p4=0x801A
277: 0x04D5 [0x0B] ExtData[1]->WorkLocal[1]++
278: 0x04D8 [0x01] GOTO 0x04C3
279: 0x04DB [0x06] ExtData[1]->WorkLocal[1] = 0
280: 0x04DE [0x06] ExtData[1]->WorkLocal[2] = 0
281: 0x04E1 [0x06] ExtData[1]->WorkLocal[3] = 0
282: 0x04E4 [0x06] ExtData[1]->WorkLocal[0] = 0

SUBROUTINE_04E7:
283: 0x04E7 [0x02] IF !(ExtData[1]->WorkLocal[1] >= 64*) GOTO 0x0547
284: 0x04EF [0x02] IF !(ExtData[1]->WorkLocal[1] >= 32*) GOTO 0x0503
285: 0x04F7 [0x41] ExtData[1]->WorkLocal[0] = ExtData[1]->WorkLocal[11] (bits ExtData[1]->WorkLocal[1]-ExtData[1]->WorkLocal[1])
286: 0x0500 [0x01] GOTO 0x0516
287: 0x0503 [0x03] ExtData[1]->WorkLocal[2] = ExtData[1]->WorkLocal[1]
288: 0x0508 [0x08] ExtData[1]->WorkLocal[2] -= 32*
289: 0x050D [0x41] ExtData[1]->WorkLocal[0] = ExtData[1]->WorkLocal[12] (bits ExtData[1]->WorkLocal[2]-ExtData[1]->WorkLocal[2])

SUBROUTINE_0516:
290: 0x0516 [0x02] IF !(ExtData[1]->WorkLocal[0] == 1*) GOTO 0x0541
291: 0x051E [0x9D] IF (0x2101) ExtData[1]->WorkLocal[1] = ExtData[1]->WorkLocal[0] // extra=0x8019
292: 0x0528 [0x40] SET_BIT_WORK_RANGE(start_bit=16*, end_bit=31*, target=ExtData[1]->WorkLocal[0], source=ExtData[1]->WorkLocal[1])
293: 0x0531 [0x9D] Table[0x067E] = ExtData[1]->WorkLocal[0] // p3=ExtData[1]->WorkLocal[3], p4=0x8019
294: 0x053B [0x0B] ExtData[1]->WorkLocal[3]++
295: 0x053E [0x01] GOTO 0x0541

SUBROUTINE_0541:
296: 0x0541 [0x0B] ExtData[1]->WorkLocal[1]++
297: 0x0544 [0x01] GOTO 0x04E7
298: 0x0547 [0x1B] RETURN

SUBROUTINE_0548:
299: 0x0548 [0x06] Work_Zone_1700[29] = 0

SUBROUTINE_054B:
300: 0x054B [0x02] IF !(Work_Zone_1700[29] >= 32*) GOTO 0x0561
301: 0x0553 [0x9D] 0x06FE[Work_Zone_1700[29] * 2] = 0* // Write WORD
302: 0x055B [0x0B] Work_Zone_1700[29]++
303: 0x055E [0x01] GOTO 0x054B
304: 0x0561 [0x03] ExtData[1]->WorkLocal[4] = 4294967295*
305: 0x0566 [0x3D] CLEAR_BIT_FLAG_CONDITIONAL(target_work_offset=ExtData[1]->WorkLocal[4], bit_index_work_offset=0*, condition_work_offset=1*)
306: 0x056D [0x06] Work_Zone_1700[29] = 0
307: 0x0570 [0x02] IF !(ExtData[1]->WorkLocal[13] == 0*) GOTO 0x0590
308: 0x0578 [0x02] IF !(Work_Zone[5] > 29*) GOTO 0x0583
309: 0x0580 [0x01] GOTO 0x058A
310: 0x0583 [0x3D] CLEAR_BIT_FLAG_CONDITIONAL(target_work_offset=ExtData[1]->WorkLocal[4], bit_index_work_offset=30*, condition_work_offset=1*)

SUBROUTINE_058A:
311: 0x058A [0x06] Work_Zone_1700[29] = 0
312: 0x058D [0x01] GOTO 0x05DE
313: 0x0590 [0x02] IF !(ExtData[1]->WorkLocal[13] == 1*) GOTO 0x05C0
314: 0x0598 [0x02] IF !(Work_Zone[5] > 58*) GOTO 0x05AA
315: 0x05A0 [0x3D] CLEAR_BIT_FLAG_CONDITIONAL(target_work_offset=ExtData[1]->WorkLocal[4], bit_index_work_offset=31*, condition_work_offset=1*)
316: 0x05A7 [0x01] GOTO 0x05B8
317: 0x05AA [0x3D] CLEAR_BIT_FLAG_CONDITIONAL(target_work_offset=ExtData[1]->WorkLocal[4], bit_index_work_offset=30*, condition_work_offset=1*)
318: 0x05B1 [0x3D] CLEAR_BIT_FLAG_CONDITIONAL(target_work_offset=ExtData[1]->WorkLocal[4], bit_index_work_offset=31*, condition_work_offset=1*)

SUBROUTINE_05B8:
319: 0x05B8 [0x03] Work_Zone_1700[29] = 29*
320: 0x05BD [0x01] GOTO 0x05DE
321: 0x05C0 [0x02] IF !(ExtData[1]->WorkLocal[13] == 2*) GOTO 0x05DE
322: 0x05C8 [0x3D] CLEAR_BIT_FLAG_CONDITIONAL(target_work_offset=ExtData[1]->WorkLocal[4], bit_index_work_offset=30*, condition_work_offset=1*)
323: 0x05CF [0x3D] CLEAR_BIT_FLAG_CONDITIONAL(target_work_offset=ExtData[1]->WorkLocal[4], bit_index_work_offset=31*, condition_work_offset=1*)
324: 0x05D6 [0x03] Work_Zone_1700[29] = 58*
325: 0x05DB [0x01] GOTO 0x05DE

SUBROUTINE_05DE:
326: 0x05DE [0x03] Work_Zone_1700[30] = 1*
327: 0x05E3 [0x03] Work_Zone_1700[31] = 0*

SUBROUTINE_05E8:
328: 0x05E8 [0x02] IF !(Work_Zone_1700[31] >= 30*) GOTO 0x062E
329: 0x05F0 [0x9D] ExtData[1]->WorkLocal[0] = 0x067E[Work_Zone_1700[29]] // Read WORD
330: 0x05F8 [0x02] IF !(ExtData[1]->WorkLocal[0] == 0*) GOTO 0x0626
331: 0x0600 [0x41] Work_Zone[1] = ExtData[1]->WorkLocal[0] (bits 0*-15*)
332: 0x0609 [0x9D] Table[0x06FE] = Work_Zone[1] // p3=Work_Zone_1700[31], p4=0x801A
333: 0x0613 [0x3D] CLEAR_BIT_FLAG_CONDITIONAL(target_work_offset=ExtData[1]->WorkLocal[4], bit_index_work_offset=Work_Zone_1700[30], condition_work_offset=1*)
334: 0x061A [0x0B] Work_Zone_1700[29]++
335: 0x061D [0x0B] Work_Zone_1700[30]++
336: 0x0620 [0x0B] Work_Zone_1700[31]++
337: 0x0623 [0x01] GOTO 0x062B
338: 0x0626 [0x03] Work_Zone_1700[31] = 31*

SUBROUTINE_062B:
339: 0x062B [0x01] GOTO 0x05E8
340: 0x062E [0x06] Work_Zone[1] = 0
341: 0x0631 [0x1B] RETURN

SUBROUTINE_0632:
342: 0x0632 [0x05] Work_Zone_1700[29] = 1
343: 0x0635 [0x06] Work_Zone_1700[30] = 0

SUBROUTINE_0638:
344: 0x0638 [0x02] IF !(Work_Zone_1700[29] == 0*) GOTO 0x067D
345: 0x0640 [0x9D] Work_Zone_1700[31] = 0x2101[Work_Zone_1700[30]] // Read WORD
346: 0x0648 [0x02] IF !(Work_Zone_1700[31] == ExtData[1]->WorkLocal[0]) GOTO 0x0666
347: 0x0650 [0x03] ExtData[1]->WorkLocal[0] = Work_Zone_1700[30]
348: 0x0655 [0x02] IF !(ExtData[1]->WorkLocal[0] < 32*) GOTO 0x0660
349: 0x065D [0x0C] ExtData[1]->WorkLocal[0]--
350: 0x0660 [0x06] Work_Zone_1700[29] = 0
351: 0x0663 [0x01] GOTO 0x067A
352: 0x0666 [0x02] IF !(Work_Zone_1700[30] >= 64*) GOTO 0x0674
353: 0x066E [0x0B] Work_Zone_1700[30]++
354: 0x0671 [0x01] GOTO 0x067A
355: 0x0674 [0x06] Work_Zone_1700[29] = 0
356: 0x0677 [0x06] ExtData[1]->WorkLocal[0] = 0

SUBROUTINE_067A:
357: 0x067A [0x01] GOTO 0x0638
358: 0x067D [0x1B] RETURN

SUBROUTINE_073E:
359: 0x073E [0x03] Work_Zone_1700[31] = 23812*
360: 0x0743 [0x93] DISPLAY_ITEM_INFO(item_id=Work_Zone_1700[31])
361: 0x0746 [0x1D] PRINT_EVENT_MESSAGE(message_id=15684*)
    → "$39."
362: 0x0749 [0x23] WAIT_FOR_DIALOG_INTERACTION
363: 0x074A [0x93] DISPLAY_ITEM_INFO(item_id=0*)
364: 0x074D [0x03] Work_Zone_1700[31] = 23813*
365: 0x0752 [0x93] DISPLAY_ITEM_INFO(item_id=Work_Zone_1700[31])
366: 0x0755 [0x1D] PRINT_EVENT_MESSAGE(message_id=15684*)
    → "$39."
367: 0x0758 [0x23] WAIT_FOR_DIALOG_INTERACTION
368: 0x0759 [0x93] DISPLAY_ITEM_INFO(item_id=0*)
369: 0x075C [0x03] Work_Zone_1700[31] = 23814*
370: 0x0761 [0x93] DISPLAY_ITEM_INFO(item_id=Work_Zone_1700[31])
371: 0x0764 [0x1D] PRINT_EVENT_MESSAGE(message_id=15684*)
    → "$39."
372: 0x0767 [0x23] WAIT_FOR_DIALOG_INTERACTION
373: 0x0768 [0x93] DISPLAY_ITEM_INFO(item_id=0*)
374: 0x076B [0x03] Work_Zone_1700[31] = 23815*
375: 0x0770 [0x93] DISPLAY_ITEM_INFO(item_id=Work_Zone_1700[31])
376: 0x0773 [0x1D] PRINT_EVENT_MESSAGE(message_id=15684*)
    → "$39."
377: 0x0776 [0x23] WAIT_FOR_DIALOG_INTERACTION
378: 0x0777 [0x93] DISPLAY_ITEM_INFO(item_id=0*)
379: 0x077A [0x03] Work_Zone_1700[31] = 23816*
380: 0x077F [0x93] DISPLAY_ITEM_INFO(item_id=Work_Zone_1700[31])
381: 0x0782 [0x1D] PRINT_EVENT_MESSAGE(message_id=15684*)
    → "$39."
382: 0x0785 [0x23] WAIT_FOR_DIALOG_INTERACTION
383: 0x0786 [0x93] DISPLAY_ITEM_INFO(item_id=0*)
384: 0x0789 [0x1D] PRINT_EVENT_MESSAGE(message_id=15675*)
    → "I'm obliged to offer you a word of warning: there's no going back once I issue you your prize. Are you completely confident about your choice, kupo?"
385: 0x078C [0x23] WAIT_FOR_DIALOG_INTERACTION
386: 0x078D [0x24] CREATE_DIALOG(message_id=15676*, default_option=1*, option_flags=0*)
    → "Is this what you really want? Hm? [By Altana, hand it over already!/On second thought...]"
387: 0x0794 [0x25] WAIT_DIALOG_SELECT()
388: 0x0795 [0x02] IF !(Work_Zone[0] == 0*) GOTO 0x07B3
389: 0x079D [0x06] ExtData[1]->WorkLocal[1] = 0
390: 0x07A0 [0x06] ExtData[1]->WorkLocal[2] = 0
391: 0x07A3 [0x1D] PRINT_EVENT_MESSAGE(message_id=15679*)
    → "You're the boss! Here you go, then. Congratulations, kupo!"
392: 0x07A6 [0x23] WAIT_FOR_DIALOG_INTERACTION
393: 0x07A7 [0x40] SET_BIT_WORK_RANGE(start_bit=8*, end_bit=31*, target=Work_Zone[1], source=1*)
394: 0x07B0 [0x01] GOTO 0x07F0
395: 0x07B3 [0x02] IF !(Work_Zone[0] == 1*) GOTO 0x07F0
396: 0x07BB [0x02] IF !(Work_Zone[5] == 0*) GOTO 0x07D8
397: 0x07C3 [0x1D] PRINT_EVENT_MESSAGE(message_id=15677*)
    → "I understand. I'll let you hold on to this $3 until you make your decision, kupo."
398: 0x07C6 [0x23] WAIT_FOR_DIALOG_INTERACTION
399: 0x07C7 [0x03] Work_Zone[2] = Work_Zone[3]
400: 0x07CC [0x48] [System] [15680*]:
    → "Obtained key item: 3."
401: 0x07CF [0x06] ExtData[1]->WorkLocal[1] = 0
402: 0x07D2 [0x06] ExtData[1]->WorkLocal[2] = 0
403: 0x07D5 [0x01] GOTO 0x07E4
404: 0x07D8 [0x02] IF !(Work_Zone[5] == 1*) GOTO 0x07E4
405: 0x07E0 [0x1D] PRINT_EVENT_MESSAGE(message_id=15678*)
    → "I understand. Come talk to me again once you've made your decision, kupo."
406: 0x07E3 [0x23] WAIT_FOR_DIALOG_INTERACTION

SUBROUTINE_07E4:
407: 0x07E4 [0x40] SET_BIT_WORK_RANGE(start_bit=8*, end_bit=31*, target=Work_Zone[1], source=0*)
408: 0x07ED [0x01] GOTO 0x07F0

SUBROUTINE_07F0:
409: 0x07F0 [0x1B] RETURN

SUBROUTINE_07F1:
410: 0x07F1 [0x03] Work_Zone_1700[31] = 23817*
411: 0x07F6 [0x93] DISPLAY_ITEM_INFO(item_id=Work_Zone_1700[31])
412: 0x07F9 [0x1D] PRINT_EVENT_MESSAGE(message_id=15684*)
    → "$39."
413: 0x07FC [0x23] WAIT_FOR_DIALOG_INTERACTION
414: 0x07FD [0x93] DISPLAY_ITEM_INFO(item_id=0*)
415: 0x0800 [0x03] Work_Zone_1700[31] = 23818*
416: 0x0805 [0x93] DISPLAY_ITEM_INFO(item_id=Work_Zone_1700[31])
417: 0x0808 [0x1D] PRINT_EVENT_MESSAGE(message_id=15684*)
    → "$39."
418: 0x080B [0x23] WAIT_FOR_DIALOG_INTERACTION
419: 0x080C [0x93] DISPLAY_ITEM_INFO(item_id=0*)
420: 0x080F [0x03] Work_Zone_1700[31] = 23819*
421: 0x0814 [0x93] DISPLAY_ITEM_INFO(item_id=Work_Zone_1700[31])
422: 0x0817 [0x1D] PRINT_EVENT_MESSAGE(message_id=15684*)
    → "$39."
423: 0x081A [0x23] WAIT_FOR_DIALOG_INTERACTION
424: 0x081B [0x93] DISPLAY_ITEM_INFO(item_id=0*)
425: 0x081E [0x03] Work_Zone_1700[31] = 23820*
426: 0x0823 [0x93] DISPLAY_ITEM_INFO(item_id=Work_Zone_1700[31])
427: 0x0826 [0x1D] PRINT_EVENT_MESSAGE(message_id=15684*)
    → "$39."
428: 0x0829 [0x23] WAIT_FOR_DIALOG_INTERACTION
429: 0x082A [0x93] DISPLAY_ITEM_INFO(item_id=0*)
430: 0x082D [0x03] Work_Zone_1700[31] = 23821*
431: 0x0832 [0x93] DISPLAY_ITEM_INFO(item_id=Work_Zone_1700[31])
432: 0x0835 [0x1D] PRINT_EVENT_MESSAGE(message_id=15684*)
    → "$39."
433: 0x0838 [0x23] WAIT_FOR_DIALOG_INTERACTION
434: 0x0839 [0x93] DISPLAY_ITEM_INFO(item_id=0*)
435: 0x083C [0x1D] PRINT_EVENT_MESSAGE(message_id=15675*)
    → "I'm obliged to offer you a word of warning: there's no going back once I issue you your prize. Are you completely confident about your choice, kupo?"
436: 0x083F [0x23] WAIT_FOR_DIALOG_INTERACTION
437: 0x0840 [0x24] CREATE_DIALOG(message_id=15676*, default_option=1*, option_flags=0*)
    → "Is this what you really want? Hm? [By Altana, hand it over already!/On second thought...]"
438: 0x0847 [0x25] WAIT_DIALOG_SELECT()
439: 0x0848 [0x02] IF !(Work_Zone[0] == 0*) GOTO 0x0866
440: 0x0850 [0x06] ExtData[1]->WorkLocal[1] = 0
441: 0x0853 [0x06] ExtData[1]->WorkLocal[2] = 0
442: 0x0856 [0x1D] PRINT_EVENT_MESSAGE(message_id=15679*)
    → "You're the boss! Here you go, then. Congratulations, kupo!"
443: 0x0859 [0x23] WAIT_FOR_DIALOG_INTERACTION
444: 0x085A [0x40] SET_BIT_WORK_RANGE(start_bit=8*, end_bit=31*, target=Work_Zone[1], source=1*)
445: 0x0863 [0x01] GOTO 0x08A3
446: 0x0866 [0x02] IF !(Work_Zone[0] == 1*) GOTO 0x08A3
447: 0x086E [0x02] IF !(Work_Zone[5] == 0*) GOTO 0x088B
448: 0x0876 [0x1D] PRINT_EVENT_MESSAGE(message_id=15677*)
    → "I understand. I'll let you hold on to this $3 until you make your decision, kupo."
449: 0x0879 [0x23] WAIT_FOR_DIALOG_INTERACTION
450: 0x087A [0x03] Work_Zone[2] = Work_Zone[3]
451: 0x087F [0x48] [System] [15680*]:
    → "Obtained key item: 3."
452: 0x0882 [0x06] ExtData[1]->WorkLocal[1] = 0
453: 0x0885 [0x06] ExtData[1]->WorkLocal[2] = 0
454: 0x0888 [0x01] GOTO 0x0897
455: 0x088B [0x02] IF !(Work_Zone[5] == 1*) GOTO 0x0897
456: 0x0893 [0x1D] PRINT_EVENT_MESSAGE(message_id=15678*)
    → "I understand. Come talk to me again once you've made your decision, kupo."
457: 0x0896 [0x23] WAIT_FOR_DIALOG_INTERACTION

SUBROUTINE_0897:
458: 0x0897 [0x40] SET_BIT_WORK_RANGE(start_bit=8*, end_bit=31*, target=Work_Zone[1], source=0*)
459: 0x08A0 [0x01] GOTO 0x08A3

SUBROUTINE_08A3:
460: 0x08A3 [0x1B] RETURN

SUBROUTINE_08A4:
461: 0x08A4 [0x03] Work_Zone_1700[31] = 23832*
462: 0x08A9 [0x93] DISPLAY_ITEM_INFO(item_id=Work_Zone_1700[31])
463: 0x08AC [0x1D] PRINT_EVENT_MESSAGE(message_id=15684*)
    → "$39."
464: 0x08AF [0x23] WAIT_FOR_DIALOG_INTERACTION
465: 0x08B0 [0x93] DISPLAY_ITEM_INFO(item_id=0*)
466: 0x08B3 [0x03] Work_Zone_1700[31] = 23833*
467: 0x08B8 [0x93] DISPLAY_ITEM_INFO(item_id=Work_Zone_1700[31])
468: 0x08BB [0x1D] PRINT_EVENT_MESSAGE(message_id=15684*)
    → "$39."
469: 0x08BE [0x23] WAIT_FOR_DIALOG_INTERACTION
470: 0x08BF [0x93] DISPLAY_ITEM_INFO(item_id=0*)
471: 0x08C2 [0x03] Work_Zone_1700[31] = 23834*
472: 0x08C7 [0x93] DISPLAY_ITEM_INFO(item_id=Work_Zone_1700[31])
473: 0x08CA [0x1D] PRINT_EVENT_MESSAGE(message_id=15684*)
    → "$39."
474: 0x08CD [0x23] WAIT_FOR_DIALOG_INTERACTION
475: 0x08CE [0x93] DISPLAY_ITEM_INFO(item_id=0*)
476: 0x08D1 [0x03] Work_Zone_1700[31] = 23835*
477: 0x08D6 [0x93] DISPLAY_ITEM_INFO(item_id=Work_Zone_1700[31])
478: 0x08D9 [0x1D] PRINT_EVENT_MESSAGE(message_id=15684*)
    → "$39."
479: 0x08DC [0x23] WAIT_FOR_DIALOG_INTERACTION
480: 0x08DD [0x93] DISPLAY_ITEM_INFO(item_id=0*)
481: 0x08E0 [0x03] Work_Zone_1700[31] = 23836*
482: 0x08E5 [0x93] DISPLAY_ITEM_INFO(item_id=Work_Zone_1700[31])
483: 0x08E8 [0x1D] PRINT_EVENT_MESSAGE(message_id=15684*)
    → "$39."
484: 0x08EB [0x23] WAIT_FOR_DIALOG_INTERACTION
485: 0x08EC [0x93] DISPLAY_ITEM_INFO(item_id=0*)
486: 0x08EF [0x1D] PRINT_EVENT_MESSAGE(message_id=15675*)
    → "I'm obliged to offer you a word of warning: there's no going back once I issue you your prize. Are you completely confident about your choice, kupo?"
487: 0x08F2 [0x23] WAIT_FOR_DIALOG_INTERACTION
488: 0x08F3 [0x24] CREATE_DIALOG(message_id=15676*, default_option=1*, option_flags=0*)
    → "Is this what you really want? Hm? [By Altana, hand it over already!/On second thought...]"
489: 0x08FA [0x25] WAIT_DIALOG_SELECT()
490: 0x08FB [0x02] IF !(Work_Zone[0] == 0*) GOTO 0x0919
491: 0x0903 [0x06] ExtData[1]->WorkLocal[1] = 0
492: 0x0906 [0x06] ExtData[1]->WorkLocal[2] = 0
493: 0x0909 [0x1D] PRINT_EVENT_MESSAGE(message_id=15679*)
    → "You're the boss! Here you go, then. Congratulations, kupo!"
494: 0x090C [0x23] WAIT_FOR_DIALOG_INTERACTION
495: 0x090D [0x40] SET_BIT_WORK_RANGE(start_bit=8*, end_bit=31*, target=Work_Zone[1], source=1*)
496: 0x0916 [0x01] GOTO 0x0956
497: 0x0919 [0x02] IF !(Work_Zone[0] == 1*) GOTO 0x0956
498: 0x0921 [0x02] IF !(Work_Zone[5] == 0*) GOTO 0x093E
499: 0x0929 [0x1D] PRINT_EVENT_MESSAGE(message_id=15677*)
    → "I understand. I'll let you hold on to this $3 until you make your decision, kupo."
500: 0x092C [0x23] WAIT_FOR_DIALOG_INTERACTION
501: 0x092D [0x03] Work_Zone[2] = Work_Zone[3]
502: 0x0932 [0x48] [System] [15680*]:
    → "Obtained key item: 3."
503: 0x0935 [0x06] ExtData[1]->WorkLocal[1] = 0
504: 0x0938 [0x06] ExtData[1]->WorkLocal[2] = 0
505: 0x093B [0x01] GOTO 0x094A
506: 0x093E [0x02] IF !(Work_Zone[5] == 1*) GOTO 0x094A
507: 0x0946 [0x1D] PRINT_EVENT_MESSAGE(message_id=15678*)
    → "I understand. Come talk to me again once you've made your decision, kupo."
508: 0x0949 [0x23] WAIT_FOR_DIALOG_INTERACTION

SUBROUTINE_094A:
509: 0x094A [0x40] SET_BIT_WORK_RANGE(start_bit=8*, end_bit=31*, target=Work_Zone[1], source=0*)
510: 0x0953 [0x01] GOTO 0x0956

SUBROUTINE_0956:
511: 0x0956 [0x1B] RETURN

SUBROUTINE_0957:
512: 0x0957 [0x03] Work_Zone_1700[31] = 23822*
513: 0x095C [0x93] DISPLAY_ITEM_INFO(item_id=Work_Zone_1700[31])
514: 0x095F [0x1D] PRINT_EVENT_MESSAGE(message_id=15684*)
    → "$39."
515: 0x0962 [0x23] WAIT_FOR_DIALOG_INTERACTION
516: 0x0963 [0x93] DISPLAY_ITEM_INFO(item_id=0*)
517: 0x0966 [0x03] Work_Zone_1700[31] = 23823*
518: 0x096B [0x93] DISPLAY_ITEM_INFO(item_id=Work_Zone_1700[31])
519: 0x096E [0x1D] PRINT_EVENT_MESSAGE(message_id=15684*)
    → "$39."
520: 0x0971 [0x23] WAIT_FOR_DIALOG_INTERACTION
521: 0x0972 [0x93] DISPLAY_ITEM_INFO(item_id=0*)
522: 0x0975 [0x03] Work_Zone_1700[31] = 23824*
523: 0x097A [0x93] DISPLAY_ITEM_INFO(item_id=Work_Zone_1700[31])
524: 0x097D [0x1D] PRINT_EVENT_MESSAGE(message_id=15684*)
    → "$39."
525: 0x0980 [0x23] WAIT_FOR_DIALOG_INTERACTION
526: 0x0981 [0x93] DISPLAY_ITEM_INFO(item_id=0*)
527: 0x0984 [0x03] Work_Zone_1700[31] = 23825*
528: 0x0989 [0x93] DISPLAY_ITEM_INFO(item_id=Work_Zone_1700[31])
529: 0x098C [0x1D] PRINT_EVENT_MESSAGE(message_id=15684*)
    → "$39."
530: 0x098F [0x23] WAIT_FOR_DIALOG_INTERACTION
531: 0x0990 [0x93] DISPLAY_ITEM_INFO(item_id=0*)
532: 0x0993 [0x03] Work_Zone_1700[31] = 23826*
533: 0x0998 [0x93] DISPLAY_ITEM_INFO(item_id=Work_Zone_1700[31])
534: 0x099B [0x1D] PRINT_EVENT_MESSAGE(message_id=15684*)
    → "$39."
535: 0x099E [0x23] WAIT_FOR_DIALOG_INTERACTION
536: 0x099F [0x93] DISPLAY_ITEM_INFO(item_id=0*)
537: 0x09A2 [0x1D] PRINT_EVENT_MESSAGE(message_id=15675*)
    → "I'm obliged to offer you a word of warning: there's no going back once I issue you your prize. Are you completely confident about your choice, kupo?"
538: 0x09A5 [0x23] WAIT_FOR_DIALOG_INTERACTION
539: 0x09A6 [0x24] CREATE_DIALOG(message_id=15676*, default_option=1*, option_flags=0*)
    → "Is this what you really want? Hm? [By Altana, hand it over already!/On second thought...]"
540: 0x09AD [0x25] WAIT_DIALOG_SELECT()
541: 0x09AE [0x02] IF !(Work_Zone[0] == 0*) GOTO 0x09CC
542: 0x09B6 [0x06] ExtData[1]->WorkLocal[1] = 0
543: 0x09B9 [0x06] ExtData[1]->WorkLocal[2] = 0
544: 0x09BC [0x1D] PRINT_EVENT_MESSAGE(message_id=15679*)
    → "You're the boss! Here you go, then. Congratulations, kupo!"
545: 0x09BF [0x23] WAIT_FOR_DIALOG_INTERACTION
546: 0x09C0 [0x40] SET_BIT_WORK_RANGE(start_bit=8*, end_bit=31*, target=Work_Zone[1], source=1*)
547: 0x09C9 [0x01] GOTO 0x0A09
548: 0x09CC [0x02] IF !(Work_Zone[0] == 1*) GOTO 0x0A09
549: 0x09D4 [0x02] IF !(Work_Zone[5] == 0*) GOTO 0x09F1
550: 0x09DC [0x1D] PRINT_EVENT_MESSAGE(message_id=15677*)
    → "I understand. I'll let you hold on to this $3 until you make your decision, kupo."
551: 0x09DF [0x23] WAIT_FOR_DIALOG_INTERACTION
552: 0x09E0 [0x03] Work_Zone[2] = Work_Zone[3]
553: 0x09E5 [0x48] [System] [15680*]:
    → "Obtained key item: 3."
554: 0x09E8 [0x06] ExtData[1]->WorkLocal[1] = 0
555: 0x09EB [0x06] ExtData[1]->WorkLocal[2] = 0
556: 0x09EE [0x01] GOTO 0x09FD
557: 0x09F1 [0x02] IF !(Work_Zone[5] == 1*) GOTO 0x09FD
558: 0x09F9 [0x1D] PRINT_EVENT_MESSAGE(message_id=15678*)
    → "I understand. Come talk to me again once you've made your decision, kupo."
559: 0x09FC [0x23] WAIT_FOR_DIALOG_INTERACTION

SUBROUTINE_09FD:
560: 0x09FD [0x40] SET_BIT_WORK_RANGE(start_bit=8*, end_bit=31*, target=Work_Zone[1], source=0*)
561: 0x0A06 [0x01] GOTO 0x0A09

SUBROUTINE_0A09:
562: 0x0A09 [0x1B] RETURN

SUBROUTINE_0A0A:
563: 0x0A0A [0x03] Work_Zone_1700[31] = 23827*
564: 0x0A0F [0x93] DISPLAY_ITEM_INFO(item_id=Work_Zone_1700[31])
565: 0x0A12 [0x1D] PRINT_EVENT_MESSAGE(message_id=15684*)
    → "$39."
566: 0x0A15 [0x23] WAIT_FOR_DIALOG_INTERACTION
567: 0x0A16 [0x93] DISPLAY_ITEM_INFO(item_id=0*)
568: 0x0A19 [0x03] Work_Zone_1700[31] = 23828*
569: 0x0A1E [0x93] DISPLAY_ITEM_INFO(item_id=Work_Zone_1700[31])
570: 0x0A21 [0x1D] PRINT_EVENT_MESSAGE(message_id=15684*)
    → "$39."
571: 0x0A24 [0x23] WAIT_FOR_DIALOG_INTERACTION
572: 0x0A25 [0x93] DISPLAY_ITEM_INFO(item_id=0*)
573: 0x0A28 [0x03] Work_Zone_1700[31] = 23829*
574: 0x0A2D [0x93] DISPLAY_ITEM_INFO(item_id=Work_Zone_1700[31])
575: 0x0A30 [0x1D] PRINT_EVENT_MESSAGE(message_id=15684*)
    → "$39."
576: 0x0A33 [0x23] WAIT_FOR_DIALOG_INTERACTION
577: 0x0A34 [0x93] DISPLAY_ITEM_INFO(item_id=0*)
578: 0x0A37 [0x03] Work_Zone_1700[31] = 23830*
579: 0x0A3C [0x93] DISPLAY_ITEM_INFO(item_id=Work_Zone_1700[31])
