# 17760420

## Common Data

| Field            | Value                   |
|------------------|-------------------------|
| Zone             | Port Windurst (ID: 240) |
| Block Size       | 272 bytes               |
| Total Events     | 7                       |
| References Count | 11                      |

## List of Events

| Event ID              | Entrypoint   |   Size |   Instructions |
|-----------------------|--------------|--------|----------------|
| [65535](#event-65535) | 0x0000       |      1 |              1 |
| [10002](#event-10002) | 0x0001       |    178 |             23 |
| [629](#event-629)     | 0x00B3       |      1 |              1 |
| [386](#event-386)     | 0x00B4       |      1 |              1 |
| [390](#event-390)     | 0x00B5       |      1 |              1 |
| [432](#event-432)     | 0x00B6       |      1 |              1 |
| [433](#event-433)     | 0x00B7       |      1 |              1 |

## DAT References (imed_data)

|   Index | Hex Value   |   Dec Value |
|---------|-------------|-------------|
|       0 | 0x0088      |         136 |
|       1 | 0x0000      |           0 |
|       2 | 0x0001      |           1 |
|       3 | 0x003C      |          60 |
|       4 | 0x0080      |         128 |
|       5 | 0x01A4      |         420 |
|       6 | 0x00C8      |         200 |
|       7 | 0x00BE      |         190 |
|       8 | 0x0258      |         600 |
|       9 | 0x021C      |         540 |
|      10 | 0x0078      |         120 |

## Events

### Event 65535

#### Metadata

| Field        | Value   |
|--------------|---------|
| Entrypoint   | 0x0000  |
| Data Size    | 1 bytes |
| Instructions | 1       |

```
      00 01 02 03 04 05 06 07  08 09 0A 0B 0C 0D 0E 0F
      -- -- -- -- -- -- -- --  -- -- -- -- -- -- -- --
0000: 00                                                .               
```

#### Opcodes

```
  0: 0x0000 [0x00] END_REQSTACK()
```

### Event 10002

#### Metadata

| Field        | Value     |
|--------------|-----------|
| Entrypoint   | 0x0001    |
| Data Size    | 178 bytes |
| Instructions | 23        |

```
      00 01 02 03 04 05 06 07  08 09 0A 0B 0C 0D 0E 0F
      -- -- -- -- -- -- -- --  -- -- -- -- -- -- -- --
0000:    42 46 01 45 00 80 A4  00 0F 01 A4 00 0F 01 73   BF.E..........s
0010: 73 68 70 01 80 4F 02 80  5D 01 80 03 80 1C 03 80  shp..O..].......
0020: 5C 00 04 80 5C 01 04 80  1C 05 80 45 06 80 A4 00  \...\......E....
0030: 0F 01 A4 00 0F 01 66 64  6F 31 01 80 1C 03 80 45  ......fdo1.....E
0040: 07 80 A4 00 0F 01 A4 00  0F 01 73 30 30 35 08 80  ..........s005..
0050: 45 06 80 A4 00 0F 01 A4  00 0F 01 66 64 69 31 01  E..........fdi1.
0060: 80 1C 09 80 45 06 80 A4  00 0F 01 A4 00 0F 01 66  ....E..........f
0070: 64 6F 31 01 80 1C 03 80  45 07 80 A4 00 0F 01 A4  do1.....E.......
0080: 00 0F 01 73 30 30 36 08  80 45 06 80 A4 00 0F 01  ...s006..E......
0090: A4 00 0F 01 66 64 69 31  01 80 1C 09 80 45 06 80  ....fdi1.....E..
00A0: F8 FF FF 7F F8 FF FF 7F  66 64 6F 32 01 80 1C 0A  ........fdo2....
00B0: 80 21 00                                          .!.             
```

#### Opcodes

```
  0: 0x0001 [0x42] SET_CLI_EVENT_CANCEL_DATA()
  1: 0x0002 [0x46] CAMERA_CONTROL: Disable user control
  2: 0x0004 [0x45] LOAD_SCHEDULED_TASK: Load scheduler "sshp" with entities [Unnamed NPC (ID: 17760420/0x010F00A4), Unnamed NPC (ID: 17760420/0x010F00A4)], work=[136*, 0*]
  3: 0x0015 [0x4F] EventEntity->StatusEvent = 1* // Custom event value
  4: 0x0018 [0x5D] SET_MUSIC_VOLUME(volume=0*, fade_time=60*)
  5: 0x001D [0x1C] WAIT(60* ticks)
  6: 0x0020 [0x5C] MUSIC_CONTROL: Set Idle (Day) music to song 128*
  7: 0x0024 [0x5C] MUSIC_CONTROL: Set Idle (Night) music to song 128*
  8: 0x0028 [0x1C] WAIT(420* ticks)
  9: 0x002B [0x45] LOAD_SCHEDULED_TASK: Load scheduler "fdo1" with entities [Unnamed NPC (ID: 17760420/0x010F00A4), Unnamed NPC (ID: 17760420/0x010F00A4)], work=[200*, 0*]
 10: 0x003C [0x1C] WAIT(60* ticks)
 11: 0x003F [0x45] LOAD_SCHEDULED_TASK: Load scheduler "s005" with entities [Unnamed NPC (ID: 17760420/0x010F00A4), Unnamed NPC (ID: 17760420/0x010F00A4)], work=[190*, 600*]
 12: 0x0050 [0x45] LOAD_SCHEDULED_TASK: Load scheduler "fdi1" with entities [Unnamed NPC (ID: 17760420/0x010F00A4), Unnamed NPC (ID: 17760420/0x010F00A4)], work=[200*, 0*]
 13: 0x0061 [0x1C] WAIT(540* ticks)
 14: 0x0064 [0x45] LOAD_SCHEDULED_TASK: Load scheduler "fdo1" with entities [Unnamed NPC (ID: 17760420/0x010F00A4), Unnamed NPC (ID: 17760420/0x010F00A4)], work=[200*, 0*]
 15: 0x0075 [0x1C] WAIT(60* ticks)
 16: 0x0078 [0x45] LOAD_SCHEDULED_TASK: Load scheduler "s006" with entities [Unnamed NPC (ID: 17760420/0x010F00A4), Unnamed NPC (ID: 17760420/0x010F00A4)], work=[190*, 600*]
 17: 0x0089 [0x45] LOAD_SCHEDULED_TASK: Load scheduler "fdi1" with entities [Unnamed NPC (ID: 17760420/0x010F00A4), Unnamed NPC (ID: 17760420/0x010F00A4)], work=[200*, 0*]
 18: 0x009A [0x1C] WAIT(540* ticks)
 19: 0x009D [0x45] LOAD_SCHEDULED_TASK: Load scheduler "fdo2" with entities [EventEntity, EventEntity], work=[200*, 0*]
 20: 0x00AE [0x1C] WAIT(120* ticks)
 21: 0x00B1 [0x21] END_EVENT
 22: 0x00B2 [0x00] END_REQSTACK()
```

### Event 629

#### Metadata

| Field        | Value   |
|--------------|---------|
| Entrypoint   | 0x00B3  |
| Data Size    | 1 bytes |
| Instructions | 1       |

```
      00 01 02 03 04 05 06 07  08 09 0A 0B 0C 0D 0E 0F
      -- -- -- -- -- -- -- --  -- -- -- -- -- -- -- --
00B0:          00                                          .            
```

#### Opcodes

```
  0: 0x00B3 [0x00] END_REQSTACK()
```

### Event 386

#### Metadata

| Field        | Value   |
|--------------|---------|
| Entrypoint   | 0x00B4  |
| Data Size    | 1 bytes |
| Instructions | 1       |

```
      00 01 02 03 04 05 06 07  08 09 0A 0B 0C 0D 0E 0F
      -- -- -- -- -- -- -- --  -- -- -- -- -- -- -- --
00B0:             00                                        .           
```

#### Opcodes

```
  0: 0x00B4 [0x00] END_REQSTACK()
```

### Event 390

#### Metadata

| Field        | Value   |
|--------------|---------|
| Entrypoint   | 0x00B5  |
| Data Size    | 1 bytes |
| Instructions | 1       |

```
      00 01 02 03 04 05 06 07  08 09 0A 0B 0C 0D 0E 0F
      -- -- -- -- -- -- -- --  -- -- -- -- -- -- -- --
00B0:                00                                      .          
```

#### Opcodes

```
  0: 0x00B5 [0x00] END_REQSTACK()
```

### Event 432

#### Metadata

| Field        | Value   |
|--------------|---------|
| Entrypoint   | 0x00B6  |
| Data Size    | 1 bytes |
| Instructions | 1       |

```
      00 01 02 03 04 05 06 07  08 09 0A 0B 0C 0D 0E 0F
      -- -- -- -- -- -- -- --  -- -- -- -- -- -- -- --
00B0:                   00                                    .         
```

#### Opcodes

```
  0: 0x00B6 [0x00] END_REQSTACK()
```

### Event 433

#### Metadata

| Field        | Value   |
|--------------|---------|
| Entrypoint   | 0x00B7  |
| Data Size    | 1 bytes |
| Instructions | 1       |

```
      00 01 02 03 04 05 06 07  08 09 0A 0B 0C 0D 0E 0F
      -- -- -- -- -- -- -- --  -- -- -- -- -- -- -- --
00B0:                      00                                  .        
```

#### Opcodes

```
  0: 0x00B7 [0x00] END_REQSTACK()
```
