# 17760345

## Common Data

| Field            | Value                   |
|------------------|-------------------------|
| Zone             | Port Windurst (ID: 240) |
| Block Size       | 104 bytes               |
| Total Events     | 7                       |
| References Count | 6                       |

## List of Events

| Event ID                 | Entrypoint   |   Size |   Instructions |
|--------------------------|--------------|--------|----------------|
| [65535](#event-65535)    | 0x0000       |      1 |              1 |
| [323](#event-323)        | 0x0001       |      1 |              1 |
| [386](#event-386)        | 0x0002       |      1 |              1 |
| [390](#event-390)        | 0x0003       |      1 |              1 |
| [65535.1](#event-655351) | 0x0004       |      9 |              3 |
| [65535.2](#event-655352) | 0x000D       |      9 |              3 |
| [584](#event-584)        | 0x0016       |     14 |              4 |

## DAT References (imed_data)

|   Index | Hex Value   |   Dec Value |
|---------|-------------|-------------|
|       0 | 0x0F91      |        3985 |
|       1 | 0x0F8E      |        3982 |
|       2 | 0xFFFFCAF5  |  4294953717 |
|       3 | 0x2E5B9     |      189881 |
|       4 | 0xFFFFC21D  |  4294951453 |
|       5 | 0x0122      |         290 |

## Events

### Event 65535

#### Metadata

| Field        | Value   |
|--------------|---------|
| Entrypoint   | 0x0000  |
| Data Size    | 1 bytes |
| Instructions | 1       |

```
      00 01 02 03 04 05 06 07  08 09 0A 0B 0C 0D 0E 0F
      -- -- -- -- -- -- -- --  -- -- -- -- -- -- -- --
0000: 00                                                .               
```

#### Opcodes

```
  0: 0x0000 [0x00] END_REQSTACK()
```

### Event 323

#### Metadata

| Field        | Value   |
|--------------|---------|
| Entrypoint   | 0x0001  |
| Data Size    | 1 bytes |
| Instructions | 1       |

```
      00 01 02 03 04 05 06 07  08 09 0A 0B 0C 0D 0E 0F
      -- -- -- -- -- -- -- --  -- -- -- -- -- -- -- --
0000:    00                                              .              
```

#### Opcodes

```
  0: 0x0001 [0x00] END_REQSTACK()
```

### Event 386

#### Metadata

| Field        | Value   |
|--------------|---------|
| Entrypoint   | 0x0002  |
| Data Size    | 1 bytes |
| Instructions | 1       |

```
      00 01 02 03 04 05 06 07  08 09 0A 0B 0C 0D 0E 0F
      -- -- -- -- -- -- -- --  -- -- -- -- -- -- -- --
0000:       00                                            .             
```

#### Opcodes

```
  0: 0x0002 [0x00] END_REQSTACK()
```

### Event 390

#### Metadata

| Field        | Value   |
|--------------|---------|
| Entrypoint   | 0x0003  |
| Data Size    | 1 bytes |
| Instructions | 1       |

```
      00 01 02 03 04 05 06 07  08 09 0A 0B 0C 0D 0E 0F
      -- -- -- -- -- -- -- --  -- -- -- -- -- -- -- --
0000:          00                                          .            
```

#### Opcodes

```
  0: 0x0003 [0x00] END_REQSTACK()
```

### Event 65535.1

#### Metadata

| Field        | Value   |
|--------------|---------|
| Entrypoint   | 0x0004  |
| Data Size    | 9 bytes |
| Instructions | 3       |

```
      00 01 02 03 04 05 06 07  08 09 0A 0B 0C 0D 0E 0F
      -- -- -- -- -- -- -- --  -- -- -- -- -- -- -- --
0000:             2B 52 00 0F  01 00 80 23 00               +R.....#.   
```

#### Opcodes

```
  0: 0x0004 [0x2B] Kohlo-Lakolo (ID: 17760338/0x010F0052) [3985*]:
    → "Run for your li`ves!"
  1: 0x000B [0x23] WAIT_FOR_DIALOG_INTERACTION
  2: 0x000C [0x00] END_REQSTACK()
```

### Event 65535.2

#### Metadata

| Field        | Value   |
|--------------|---------|
| Entrypoint   | 0x000D  |
| Data Size    | 9 bytes |
| Instructions | 3       |

```
      00 01 02 03 04 05 06 07  08 09 0A 0B 0C 0D 0E 0F
      -- -- -- -- -- -- -- --  -- -- -- -- -- -- -- --
0000:                                         2B 5A 00               +Z.
0010: 0F 01 01 80 23 00                                 ....#.          
```

#### Opcodes

```
  0: 0x000D [0x2B] Nanaa Mihgo (ID: 17760346/0x010F005A) [3982*]:
    → "Boy, am I going to get you!!!"
  1: 0x0014 [0x23] WAIT_FOR_DIALOG_INTERACTION
  2: 0x0015 [0x00] END_REQSTACK()
```

### Event 584

#### Metadata

| Field        | Value    |
|--------------|----------|
| Entrypoint   | 0x0016   |
| Data Size    | 14 bytes |
| Instructions | 4        |

```
      00 01 02 03 04 05 06 07  08 09 0A 0B 0C 0D 0E 0F
      -- -- -- -- -- -- -- --  -- -- -- -- -- -- -- --
0010:                   33 01  37 02 80 03 80 04 80 05        3.7.......
0020: 80 33 01 00                                       .3..            
```

#### Opcodes

```
  0: 0x0016 [0x33] EventEntity->Render.Flags0 |= 0x200000 // Bit 21 (flag=0x01)
  1: 0x0018 [0x37] UPDATE_EVENT_POSITION_AND_DIR: x=-13.579*, z=189.881*, y=-15.843*, direction=25.5°*
  2: 0x0021 [0x33] EventEntity->Render.Flags0 |= 0x200000 // Bit 21 (flag=0x01)
  3: 0x0023 [0x00] END_REQSTACK()
```
