# 17760537

## Common Data

| Field            | Value                   |
|------------------|-------------------------|
| Zone             | Port Windurst (ID: 240) |
| Block Size       | 28172 bytes             |
| Total Events     | 20                      |
| References Count | 400                     |

## List of Events

| Event ID              | Entrypoint   |   Size |   Instructions |
|-----------------------|--------------|--------|----------------|
| [65535](#event-65535) | 0x0000       |    658 |             62 |
| [915](#event-915)     | 0x0292       |   3606 |            503 |
| [916](#event-916)     | 0x10A8       |   8519 |           1183 |
| [917](#event-917)     | 0x31EF       |    158 |             32 |
| [918](#event-918)     | 0x328D       |    117 |             24 |
| [919](#event-919)     | 0x3302       |     75 |             15 |
| [920](#event-920)     | 0x334D       |    101 |             21 |
| [921](#event-921)     | 0x33B2       |    119 |             23 |
| [922](#event-922)     | 0x3429       |     96 |             20 |
| [923](#event-923)     | 0x3489       |    224 |             42 |
| [924](#event-924)     | 0x3569       |   2832 |            378 |
| [925](#event-925)     | 0x4079       |   3550 |            499 |
| [926](#event-926)     | 0x4E57       |    165 |             32 |
| [927](#event-927)     | 0x4EFC       |    122 |             25 |
| [928](#event-928)     | 0x4F76       |    130 |             25 |
| [929](#event-929)     | 0x4FF8       |    109 |             22 |
| [930](#event-930)     | 0x5065       |    146 |             29 |
| [931](#event-931)     | 0x50F7       |    146 |             29 |
| [932](#event-932)     | 0x5189       |    139 |             28 |
| [933](#event-933)     | 0x5214       |   5464 |            713 |

## DAT References (imed_data)

|   Index | Hex Value   |   Dec Value |
|---------|-------------|-------------|
|       0 | 0x00C8      |         200 |
|       1 | 0x0000      |           0 |
|       2 | 0x00C9      |         201 |
|       3 | 0x0001      |           1 |
|       4 | 0x002D      |          45 |
|       5 | 0x0002      |           2 |
|       6 | 0x001E      |          30 |
|       7 | 0x00D7      |         215 |
|       8 | 0x012C      |         300 |
|       9 | 0x0093      |         147 |
|      10 | 0xFFFFA339  |  4294943545 |
|      11 | 0x2E0E9     |      188649 |
|      12 | 0xFFFFE890  |  4294961296 |
|      13 | 0x09E6      |        2534 |
|      14 | 0xFFFFC4D1  |  4294952145 |
|      15 | 0x2DF11     |      188177 |
|      16 | 0x0871      |        2161 |
|      17 | 0xFFFF9EA9  |  4294942377 |
|      18 | 0x2E7EC     |      190444 |
|      19 | 0xFFFFE891  |  4294961297 |
|      20 | 0x0544      |        1348 |
|      21 | 0x00A3      |         163 |
|      22 | 0x007F      |         127 |
|      23 | 0x0005      |           5 |
|      24 | 0x0347      |         839 |
|      25 | 0x0006      |           6 |
|      26 | 0x40D2      |       16594 |
|      27 | 0x0028      |          40 |
|      28 | 0x0032      |          50 |
|      29 | 0xFFFF9EC4  |  4294942404 |
|      30 | 0x2E6A1     |      190113 |
|      31 | 0x07DB      |        2011 |
|      32 | 0x0C9E      |        3230 |
|      33 | 0x40D3      |       16595 |
|      34 | 0x000A      |          10 |
|      35 | 0x40D4      |       16596 |
|      36 | 0x0258      |         600 |
|      37 | 0x0C80      |        3200 |
|      38 | 0x40D5      |       16597 |
|      39 | 0x0008      |           8 |
|      40 | 0x40D6      |       16598 |
|      41 | 0xFFFF9FCE  |  4294942670 |
|      42 | 0x2EEA1     |      192161 |
|      43 | 0xFFFFA39A  |  4294943642 |
|      44 | 0x2ED80     |      191872 |
|      45 | 0x07CB      |        1995 |
|      46 | 0x40D7      |       16599 |
|      47 | 0x40D8      |       16600 |
|      48 | 0x40D9      |       16601 |
|      49 | 0x40DA      |       16602 |
|      50 | 0x40DB      |       16603 |
|      51 | 0x0C9F      |        3231 |
|      52 | 0x40DC      |       16604 |
|      53 | 0x40DD      |       16605 |
|      54 | 0xFFFFA2A3  |  4294943395 |
|      55 | 0x2E7D4     |      190420 |
|      56 | 0x40DE      |       16606 |
|      57 | 0x0014      |          20 |
|      58 | 0xFFFFA3CB  |  4294943691 |
|      59 | 0x2EAA3     |      191139 |
|      60 | 0x05AF      |        1455 |
|      61 | 0xFFFF9F07  |  4294942471 |
|      62 | 0x2E851     |      190545 |
|      63 | 0x40DF      |       16607 |
|      64 | 0x40E0      |       16608 |
|      65 | 0x0954      |        2388 |
|      66 | 0x0BD7      |        3031 |
|      67 | 0x07D0      |        2000 |
|      68 | 0x40E1      |       16609 |
|      69 | 0x40E2      |       16610 |
|      70 | 0x40E3      |       16611 |
|      71 | 0x0003      |           3 |
|      72 | 0x0A8C      |        2700 |
|      73 | 0x0064      |         100 |
|      74 | 0x40E4      |       16612 |
|      75 | 0x058E      |        1422 |
|      76 | 0x01F4      |         500 |
|      77 | 0x40E5      |       16613 |
|      78 | 0x40E6      |       16614 |
|      79 | 0x40E7      |       16615 |
|      80 | 0x40E8      |       16616 |
|      81 | 0x40E9      |       16617 |
|      82 | 0x0015      |          21 |
|      83 | 0x003C      |          60 |
|      84 | 0x40EA      |       16618 |
|      85 | 0x0097      |         151 |
|      86 | 0x000F      |          15 |
|      87 | 0xFFFFA95D  |  4294945117 |
|      88 | 0x2E1E0     |      188896 |
|      89 | 0x0831      |        2097 |
|      90 | 0xFFFF9882  |  4294940802 |
|      91 | 0x2E694     |      190100 |
|      92 | 0x0842      |        2114 |
|      93 | 0x40F9      |       16633 |
|      94 | 0x40FA      |       16634 |
|      95 | 0x40FE      |       16638 |
|      96 | 0x0004      |           4 |
|      97 | 0x40FB      |       16635 |
|      98 | 0x40FC      |       16636 |
|      99 | 0x40FD      |       16637 |
|     100 | 0x40FF      |       16639 |
|     101 | 0x4100      |       16640 |
|     102 | 0x0941      |        2369 |
|     103 | 0x0E2B      |        3627 |
|     104 | 0x0CE9      |        3305 |
|     105 | 0x4101      |       16641 |
|     106 | 0x00E1      |         225 |
|     107 | 0x4102      |       16642 |
|     108 | 0xFFFF9D15  |  4294941973 |
|     109 | 0x2E7C2     |      190402 |
|     110 | 0x4103      |       16643 |
|     111 | 0x0007      |           7 |
|     112 | 0x4104      |       16644 |
|     113 | 0x4105      |       16645 |
|     114 | 0x4106      |       16646 |
|     115 | 0x4107      |       16647 |
|     116 | 0x0BEE      |        3054 |
|     117 | 0x0B8F      |        2959 |
|     118 | 0x4108      |       16648 |
|     119 | 0x4109      |       16649 |
|     120 | 0x410A      |       16650 |
|     121 | 0x410B      |       16651 |
|     122 | 0x410C      |       16652 |
|     123 | 0x410D      |       16653 |
|     124 | 0x410E      |       16654 |
|     125 | 0x410F      |       16655 |
|     126 | 0x4110      |       16656 |
|     127 | 0x4111      |       16657 |
|     128 | 0x4112      |       16658 |
|     129 | 0x4113      |       16659 |
|     130 | 0x4114      |       16660 |
|     131 | 0x4115      |       16661 |
|     132 | 0x4116      |       16662 |
|     133 | 0x4117      |       16663 |
|     134 | 0x4118      |       16664 |
|     135 | 0x4119      |       16665 |
|     136 | 0x411A      |       16666 |
|     137 | 0x411B      |       16667 |
|     138 | 0x411C      |       16668 |
|     139 | 0x411D      |       16669 |
|     140 | 0x0FA0      |        4000 |
|     141 | 0x411E      |       16670 |
|     142 | 0x411F      |       16671 |
|     143 | 0x062B      |        1579 |
|     144 | 0x032B      |         811 |
|     145 | 0x002B      |          43 |
|     146 | 0x042B      |        1067 |
|     147 | 0x012B      |         299 |
|     148 | 0x052B      |        1323 |
|     149 | 0x022B      |         555 |
|     150 | 0x4120      |       16672 |
|     151 | 0x4121      |       16673 |
|     152 | 0x4122      |       16674 |
|     153 | 0x4123      |       16675 |
|     154 | 0x4124      |       16676 |
|     155 | 0x4125      |       16677 |
|     156 | 0x0078      |         120 |
|     157 | 0x005A      |          90 |
|     158 | 0x4126      |       16678 |
|     159 | 0x4127      |       16679 |
|     160 | 0x4128      |       16680 |
|     161 | 0x4129      |       16681 |
|     162 | 0x412A      |       16682 |
|     163 | 0x412B      |       16683 |
|     164 | 0x412C      |       16684 |
|     165 | 0x11F8      |        4600 |
|     166 | 0x412D      |       16685 |
|     167 | 0x412E      |       16686 |
|     168 | 0x412F      |       16687 |
|     169 | 0x4130      |       16688 |
|     170 | 0x4131      |       16689 |
|     171 | 0x4132      |       16690 |
|     172 | 0x4133      |       16691 |
|     173 | 0x0FD0      |        4048 |
|     174 | 0x4134      |       16692 |
|     175 | 0xFFFF9CF6  |  4294941942 |
|     176 | 0x2E655     |      190037 |
|     177 | 0x4135      |       16693 |
|     178 | 0x4136      |       16694 |
|     179 | 0xFFFF9DA0  |  4294942112 |
|     180 | 0x2E857     |      190551 |
|     181 | 0x07AA      |        1962 |
|     182 | 0x4137      |       16695 |
|     183 | 0x4138      |       16696 |
|     184 | 0x0CA0      |        3232 |
|     185 | 0x4139      |       16697 |
|     186 | 0x413A      |       16698 |
|     187 | 0x00B0      |         176 |
|     188 | 0x00AC      |         172 |
|     189 | 0x40EB      |       16619 |
|     190 | 0x40EC      |       16620 |
|     191 | 0x00AE      |         174 |
|     192 | 0x413B      |       16699 |
|     193 | 0x413C      |       16700 |
|     194 | 0x415A      |       16730 |
|     195 | 0x415B      |       16731 |
|     196 | 0x40ED      |       16621 |
|     197 | 0x40EE      |       16622 |
|     198 | 0x40EF      |       16623 |
|     199 | 0x413D      |       16701 |
|     200 | 0x413E      |       16702 |
|     201 | 0x40F0      |       16624 |
|     202 | 0x413F      |       16703 |
|     203 | 0x40F5      |       16629 |
|     204 | 0x40F6      |       16630 |
|     205 | 0x4144      |       16708 |
|     206 | 0x4145      |       16709 |
|     207 | 0x40F3      |       16627 |
|     208 | 0x40F4      |       16628 |
|     209 | 0x4142      |       16706 |
|     210 | 0x4143      |       16707 |
|     211 | 0x40F1      |       16625 |
|     212 | 0x40F2      |       16626 |
|     213 | 0x4140      |       16704 |
|     214 | 0x4141      |       16705 |
|     215 | 0x40F7      |       16631 |
|     216 | 0x40F8      |       16632 |
|     217 | 0x4146      |       16710 |
|     218 | 0x4147      |       16711 |
|     219 | 0x0019      |          25 |
|     220 | 0x4148      |       16712 |
|     221 | 0x4149      |       16713 |
|     222 | 0x414A      |       16714 |
|     223 | 0x414B      |       16715 |
|     224 | 0x414C      |       16716 |
|     225 | 0x414D      |       16717 |
|     226 | 0x414E      |       16718 |
|     227 | 0x08BA      |        2234 |
|     228 | 0x0080      |         128 |
|     229 | 0x414F      |       16719 |
|     230 | 0x4150      |       16720 |
|     231 | 0x4151      |       16721 |
|     232 | 0x4152      |       16722 |
|     233 | 0x0939      |        2361 |
|     234 | 0x03E8      |        1000 |
|     235 | 0x4153      |       16723 |
|     236 | 0x4154      |       16724 |
|     237 | 0x0EDD      |        3805 |
|     238 | 0x4155      |       16725 |
|     239 | 0x4156      |       16726 |
|     240 | 0x4157      |       16727 |
|     241 | 0x4158      |       16728 |
|     242 | 0x4159      |       16729 |
|     243 | 0xFFFFA0F7  |  4294942967 |
|     244 | 0x2E118     |      188696 |
|     245 | 0xFFFF9E00  |  4294942208 |
|     246 | 0x2EDD2     |      191954 |
|     247 | 0x0469      |        1129 |
|     248 | 0xFFFF9B70  |  4294941552 |
|     249 | 0x2E08F     |      188559 |
|     250 | 0x0B86      |        2950 |
|     251 | 0xFFFFA2B7  |  4294943415 |
|     252 | 0x2EB99     |      191385 |
|     253 | 0x0685      |        1669 |
|     254 | 0xFFFFB75E  |  4294948702 |
|     255 | 0x2D150     |      184656 |
|     256 | 0xFFFFCE0D  |  4294954509 |
|     257 | 0x08B1      |        2225 |
|     258 | 0xFFFFA3C8  |  4294943688 |
|     259 | 0x2E638     |      190008 |
|     260 | 0x07AB      |        1963 |
|     261 | 0x007B      |         123 |
|     262 | 0x415C      |       16732 |
|     263 | 0x0050      |          80 |
|     264 | 0x415D      |       16733 |
|     265 | 0x415E      |       16734 |
|     266 | 0x415F      |       16735 |
|     267 | 0x0514      |        1300 |
|     268 | 0x4160      |       16736 |
|     269 | 0x4161      |       16737 |
|     270 | 0x4162      |       16738 |
|     271 | 0x4163      |       16739 |
|     272 | 0x4164      |       16740 |
|     273 | 0x0BB8      |        3000 |
|     274 | 0x4165      |       16741 |
|     275 | 0x4166      |       16742 |
|     276 | 0x4167      |       16743 |
|     277 | 0x4168      |       16744 |
|     278 | 0x4169      |       16745 |
|     279 | 0x416A      |       16746 |
|     280 | 0x416B      |       16747 |
|     281 | 0x0384      |         900 |
|     282 | 0x416C      |       16748 |
|     283 | 0x416D      |       16749 |
|     284 | 0x416E      |       16750 |
|     285 | 0x416F      |       16751 |
|     286 | 0x4170      |       16752 |
|     287 | 0x4171      |       16753 |
|     288 | 0x044C      |        1100 |
|     289 | 0x006C      |         108 |
|     290 | 0x4172      |       16754 |
|     291 | 0x03B6      |         950 |
|     292 | 0x4173      |       16755 |
|     293 | 0x4174      |       16756 |
|     294 | 0x4175      |       16757 |
|     295 | 0x4176      |       16758 |
|     296 | 0x4177      |       16759 |
|     297 | 0x4178      |       16760 |
|     298 | 0x4179      |       16761 |
|     299 | 0x417A      |       16762 |
|     300 | 0x417B      |       16763 |
|     301 | 0x417C      |       16764 |
|     302 | 0x417D      |       16765 |
|     303 | 0x00B4      |         180 |
|     304 | 0x417E      |       16766 |
|     305 | 0x417F      |       16767 |
|     306 | 0x00B6      |         182 |
|     307 | 0x418B      |       16779 |
|     308 | 0x418C      |       16780 |
|     309 | 0x00BC      |         188 |
|     310 | 0x41BD      |       16829 |
|     311 | 0x41BE      |       16830 |
|     312 | 0x4180      |       16768 |
|     313 | 0x4181      |       16769 |
|     314 | 0x418D      |       16781 |
|     315 | 0x41BF      |       16831 |
|     316 | 0x41C0      |       16832 |
|     317 | 0x4182      |       16770 |
|     318 | 0x418E      |       16782 |
|     319 | 0x41C1      |       16833 |
|     320 | 0x41C2      |       16834 |
|     321 | 0x4187      |       16775 |
|     322 | 0x4188      |       16776 |
|     323 | 0x4193      |       16787 |
|     324 | 0x41C7      |       16839 |
|     325 | 0x4185      |       16773 |
|     326 | 0x4186      |       16774 |
|     327 | 0x4191      |       16785 |
|     328 | 0x4192      |       16786 |
|     329 | 0x41C5      |       16837 |
|     330 | 0x41C6      |       16838 |
|     331 | 0x4183      |       16771 |
|     332 | 0x4184      |       16772 |
|     333 | 0x418F      |       16783 |
|     334 | 0x4190      |       16784 |
|     335 | 0x41C3      |       16835 |
|     336 | 0x41C4      |       16836 |
|     337 | 0x4189      |       16777 |
|     338 | 0x418A      |       16778 |
|     339 | 0x4194      |       16788 |
|     340 | 0x4195      |       16789 |
|     341 | 0x41C8      |       16840 |
|     342 | 0x41C9      |       16841 |
|     343 | 0xFFFF9DF6  |  4294942198 |
|     344 | 0x2EB5C     |      191324 |
|     345 | 0x0C1C      |        3100 |
|     346 | 0x0AA6      |        2726 |
|     347 | 0x09DE      |        2526 |
|     348 | 0x0343      |         835 |
|     349 | 0x4196      |       16790 |
|     350 | 0x4197      |       16791 |
|     351 | 0x4198      |       16792 |
|     352 | 0x0C36      |        3126 |
|     353 | 0x0ED8      |        3800 |
|     354 | 0x4199      |       16793 |
|     355 | 0x419A      |       16794 |
|     356 | 0x07EA      |        2026 |
|     357 | 0x419B      |       16795 |
|     358 | 0x419C      |       16796 |
|     359 | 0x419D      |       16797 |
|     360 | 0x001C      |          28 |
|     361 | 0x419E      |       16798 |
|     362 | 0xFFFF9D36  |  4294942006 |
|     363 | 0x2E58E     |      189838 |
|     364 | 0x0B5A      |        2906 |
|     365 | 0x0BFF      |        3071 |
|     366 | 0x001B      |          27 |
|     367 | 0x419F      |       16799 |
|     368 | 0x41A0      |       16800 |
|     369 | 0x41A1      |       16801 |
|     370 | 0x41A2      |       16802 |
|     371 | 0x0B69      |        2921 |
|     372 | 0x41A3      |       16803 |
|     373 | 0x41A4      |       16804 |
|     374 | 0x41A5      |       16805 |
|     375 | 0x41A6      |       16806 |
|     376 | 0x41A7      |       16807 |
|     377 | 0x41A8      |       16808 |
|     378 | 0x0B06      |        2822 |
|     379 | 0x41A9      |       16809 |
|     380 | 0x41AA      |       16810 |
|     381 | 0x41AB      |       16811 |
|     382 | 0x41AC      |       16812 |
|     383 | 0x41AD      |       16813 |
|     384 | 0x0960      |        2400 |
|     385 | 0x41AE      |       16814 |
|     386 | 0x41AF      |       16815 |
|     387 | 0x41B0      |       16816 |
|     388 | 0x41B1      |       16817 |
|     389 | 0x41B2      |       16818 |
|     390 | 0x41B3      |       16819 |
|     391 | 0x41B4      |       16820 |
|     392 | 0x41B5      |       16821 |
|     393 | 0x41B6      |       16822 |
|     394 | 0x41B7      |       16823 |
|     395 | 0x41B8      |       16824 |
|     396 | 0x41B9      |       16825 |
|     397 | 0x41BA      |       16826 |
|     398 | 0x41BB      |       16827 |
|     399 | 0x41BC      |       16828 |

## String References

- **16634**: Did you decipher it? [Yup!/No...]
- **16645**: Have any idea? [Sure do./Not a clue.]
- **16671**: Who's with me? [I am!!!/...]
- **16752**: How do you respond? [Let me handle this!/It should be okay.]
- **16803**: Have you ever eaten Chaos? [Om nom./No...]
- **16808**: Should you feed it Chaos? [Sure. What could go wrong?/I don't even know where to start.]
- **16813**: Do you? [Sure do./Nope.]

## Events

### Event 65535

#### Metadata

| Field        | Value     |
|--------------|-----------|
| Entrypoint   | 0x0000    |
| Data Size    | 658 bytes |
| Instructions | 1         |

```
      00 01 02 03 04 05 06 07  08 09 0A 0B 0C 0D 0E 0F
      -- -- -- -- -- -- -- --  -- -- -- -- -- -- -- --
0000: 00 45 00 80 F0 FF FF 7F  F0 FF FF 7F 66 64 69 30  .E..........fdi0
0010: 01 80 55 00 80 F0 FF FF  7F F0 FF FF 7F 66 64 69  ..U..........fdi
0020: 30 1B 45 00 80 F0 FF FF  7F F0 FF FF 7F 66 64 6F  0.E..........fdo
0030: 30 01 80 55 00 80 F0 FF  FF 7F F0 FF FF 7F 66 64  0..U..........fd
0040: 6F 30 1B 45 00 80 F0 FF  FF 7F F0 FF FF 7F 66 64  o0.E..........fd
0050: 69 31 01 80 55 00 80 F0  FF FF 7F F0 FF FF 7F 66  i1..U..........f
0060: 64 69 31 1B 45 00 80 F0  FF FF 7F F0 FF FF 7F 66  di1.E..........f
0070: 64 6F 31 01 80 55 00 80  F0 FF FF 7F F0 FF FF 7F  do1..U..........
0080: 66 64 6F 31 1B 45 02 80  F0 FF FF 7F F0 FF FF 7F  fdo1.E..........
0090: 77 68 69 31 01 80 55 02  80 F0 FF FF 7F F0 FF FF  whi1..U.........
00A0: 7F 77 68 69 31 1B 45 02  80 F0 FF FF 7F F0 FF FF  .whi1.E.........
00B0: 7F 77 68 6F 31 01 80 55  02 80 F0 FF FF 7F F0 FF  .who1..U........
00C0: FF 7F 77 68 6F 31 1B 45  02 80 F0 FF FF 7F F0 FF  ..who1.E........
00D0: FF 7F 77 68 6F 32 01 80  55 02 80 F0 FF FF 7F F0  ..who2..U.......
00E0: FF FF 7F 77 68 6F 32 1B  45 02 80 F0 FF FF 7F F0  ...who2.E.......
00F0: FF FF 7F 77 68 6F 33 01  80 55 02 80 F0 FF FF 7F  ...who3..U......
0100: F0 FF FF 7F 77 68 6F 33  1B 62 03 80 F0 FF FF 7F  ....who3.b......
0110: F0 FF FF 7F 6D 61 69 6E  01 80 1C 04 80 45 00 80  ....main.....E..
0120: F0 FF FF 7F F0 FF FF 7F  66 64 6F 31 01 80 55 00  ........fdo1..U.
0130: 80 F0 FF FF 7F F0 FF FF  7F 66 64 6F 31 1B 45 00  .........fdo1.E.
0140: 80 F0 FF FF 7F F0 FF FF  7F 66 64 69 31 01 80 62  .........fdi1..b
0150: 05 80 F0 FF FF 7F F0 FF  FF 7F 6D 61 69 6E 01 80  ..........main..
0160: 1C 06 80 55 00 80 F0 FF  FF 7F F0 FF FF 7F 66 64  ...U..........fd
0170: 69 31 1B 45 00 80 F0 FF  FF 7F F0 FF FF 7F 62 6C  i1.E..........bl
0180: 6F 6E 01 80 45 02 80 F0  FF FF 7F F0 FF FF 7F 62  on..E..........b
0190: 6C 6F 6E 01 80 1B 45 02  80 F0 FF FF 7F F0 FF FF  lon...E.........
01A0: 7F 77 68 69 30 01 80 55  02 80 F0 FF FF 7F F0 FF  .whi0..U........
01B0: FF 7F 77 68 69 30 1B 45  02 80 F0 FF FF 7F F0 FF  ..whi0.E........
01C0: FF 7F 77 68 6F 30 01 80  55 02 80 F0 FF FF 7F F0  ..who0..U.......
01D0: FF FF 7F 77 68 6F 30 1B  45 07 80 F0 FF FF 7F F0  ...who0.E.......
01E0: FF FF 7F 65 66 6F 6E 01  80 55 07 80 F0 FF FF 7F  ...efon..U......
01F0: F0 FF FF 7F 65 66 6F 6E  1B 45 00 80 F0 FF FF 7F  ....efon.E......
0200: F0 FF FF 7F 66 64 69 73  01 80 1B 45 00 80 F0 FF  ....fdis...E....
0210: FF 7F F0 FF FF 7F 66 64  6F 73 01 80 55 00 80 F0  ......fdos..U...
0220: FF FF 7F F0 FF FF 7F 66  64 6F 73 1B 45 00 80 F0  .......fdos.E...
0230: FF FF 7F F0 FF FF 7F 66  64 69 66 01 80 1B 45 00  .......fdif...E.
0240: 80 F0 FF FF 7F F0 FF FF  7F 66 64 6F 66 01 80 55  .........fdof..U
0250: 00 80 F0 FF FF 7F F0 FF  FF 7F 66 64 6F 66 1B 45  ..........fdof.E
0260: 00 80 F0 FF FF 7F F0 FF  FF 7F 66 64 69 70 01 80  ..........fdip..
0270: 1B 45 00 80 F0 FF FF 7F  F0 FF FF 7F 66 64 6F 70  .E..........fdop
0280: 01 80 55 00 80 F0 FF FF  7F F0 FF FF 7F 66 64 6F  ..U..........fdo
0290: 70 1B                                             p.              
```

#### Opcodes

```
  0: 0x0000 [0x00] END_REQSTACK()
```

#### Data or dead code:

```
# Dead code (unreachable instructions):
     0x0001 [0x45] LOAD_SCHEDULED_TASK: Load scheduler "fdi0" with entities [LocalPlayer, LocalPlayer], work=[200*, 0*]
     0x0012 [0x55] WAIT_LOAD_SCHEDULER: Wait for scheduler "fdi0" with entities [LocalPlayer, LocalPlayer], work=200*
     0x0021 [0x1B] RETURN
     0x0022 [0x45] LOAD_SCHEDULED_TASK: Load scheduler "fdo0" with entities [LocalPlayer, LocalPlayer], work=[200*, 0*]
     0x0033 [0x55] WAIT_LOAD_SCHEDULER: Wait for scheduler "fdo0" with entities [LocalPlayer, LocalPlayer], work=200*
     0x0042 [0x1B] RETURN
     0x0043 [0x45] LOAD_SCHEDULED_TASK: Load scheduler "fdi1" with entities [LocalPlayer, LocalPlayer], work=[200*, 0*]
     0x0054 [0x55] WAIT_LOAD_SCHEDULER: Wait for scheduler "fdi1" with entities [LocalPlayer, LocalPlayer], work=200*
     0x0063 [0x1B] RETURN
     0x0064 [0x45] LOAD_SCHEDULED_TASK: Load scheduler "fdo1" with entities [LocalPlayer, LocalPlayer], work=[200*, 0*]
     0x0075 [0x55] WAIT_LOAD_SCHEDULER: Wait for scheduler "fdo1" with entities [LocalPlayer, LocalPlayer], work=200*
     0x0084 [0x1B] RETURN
     0x0085 [0x45] LOAD_SCHEDULED_TASK: Load scheduler "whi1" with entities [LocalPlayer, LocalPlayer], work=[201*, 0*]
     0x0096 [0x55] WAIT_LOAD_SCHEDULER: Wait for scheduler "whi1" with entities [LocalPlayer, LocalPlayer], work=201*
     0x00A5 [0x1B] RETURN
     0x00A6 [0x45] LOAD_SCHEDULED_TASK: Load scheduler "who1" with entities [LocalPlayer, LocalPlayer], work=[201*, 0*]
     0x00B7 [0x55] WAIT_LOAD_SCHEDULER: Wait for scheduler "who1" with entities [LocalPlayer, LocalPlayer], work=201*
     0x00C6 [0x1B] RETURN
     0x00C7 [0x45] LOAD_SCHEDULED_TASK: Load scheduler "who2" with entities [LocalPlayer, LocalPlayer], work=[201*, 0*]
     0x00D8 [0x55] WAIT_LOAD_SCHEDULER: Wait for scheduler "who2" with entities [LocalPlayer, LocalPlayer], work=201*
     0x00E7 [0x1B] RETURN
     0x00E8 [0x45] LOAD_SCHEDULED_TASK: Load scheduler "who3" with entities [LocalPlayer, LocalPlayer], work=[201*, 0*]
     0x00F9 [0x55] WAIT_LOAD_SCHEDULER: Wait for scheduler "who3" with entities [LocalPlayer, LocalPlayer], work=201*
     0x0108 [0x1B] RETURN
     0x0109 [0x62] LOAD_EVENT_SCHEDULER: Load scheduler "main" with entities [LocalPlayer, LocalPlayer], work=[1*, 0*]
     0x011A [0x1C] WAIT(45* ticks)
     0x011D [0x45] LOAD_SCHEDULED_TASK: Load scheduler "fdo1" with entities [LocalPlayer, LocalPlayer], work=[200*, 0*]
     0x012E [0x55] WAIT_LOAD_SCHEDULER: Wait for scheduler "fdo1" with entities [LocalPlayer, LocalPlayer], work=200*
     0x013D [0x1B] RETURN
     0x013E [0x45] LOAD_SCHEDULED_TASK: Load scheduler "fdi1" with entities [LocalPlayer, LocalPlayer], work=[200*, 0*]
     0x014F [0x62] LOAD_EVENT_SCHEDULER: Load scheduler "main" with entities [LocalPlayer, LocalPlayer], work=[2*, 0*]
     0x0160 [0x1C] WAIT(30* ticks)
     0x0163 [0x55] WAIT_LOAD_SCHEDULER: Wait for scheduler "fdi1" with entities [LocalPlayer, LocalPlayer], work=200*
     0x0172 [0x1B] RETURN
     0x0173 [0x45] LOAD_SCHEDULED_TASK: Load scheduler "blon" with entities [LocalPlayer, LocalPlayer], work=[200*, 0*]
     0x0184 [0x45] LOAD_SCHEDULED_TASK: Load scheduler "blon" with entities [LocalPlayer, LocalPlayer], work=[201*, 0*]
     0x0195 [0x1B] RETURN
     0x0196 [0x45] LOAD_SCHEDULED_TASK: Load scheduler "whi0" with entities [LocalPlayer, LocalPlayer], work=[201*, 0*]
     0x01A7 [0x55] WAIT_LOAD_SCHEDULER: Wait for scheduler "whi0" with entities [LocalPlayer, LocalPlayer], work=201*
     0x01B6 [0x1B] RETURN
     0x01B7 [0x45] LOAD_SCHEDULED_TASK: Load scheduler "who0" with entities [LocalPlayer, LocalPlayer], work=[201*, 0*]
     0x01C8 [0x55] WAIT_LOAD_SCHEDULER: Wait for scheduler "who0" with entities [LocalPlayer, LocalPlayer], work=201*
     0x01D7 [0x1B] RETURN
     0x01D8 [0x45] LOAD_SCHEDULED_TASK: Load scheduler "efon" with entities [LocalPlayer, LocalPlayer], work=[215*, 0*]
     0x01E9 [0x55] WAIT_LOAD_SCHEDULER: Wait for scheduler "efon" with entities [LocalPlayer, LocalPlayer], work=215*
     0x01F8 [0x1B] RETURN
     0x01F9 [0x45] LOAD_SCHEDULED_TASK: Load scheduler "fdis" with entities [LocalPlayer, LocalPlayer], work=[200*, 0*]
     0x020A [0x1B] RETURN
     0x020B [0x45] LOAD_SCHEDULED_TASK: Load scheduler "fdos" with entities [LocalPlayer, LocalPlayer], work=[200*, 0*]
     0x021C [0x55] WAIT_LOAD_SCHEDULER: Wait for scheduler "fdos" with entities [LocalPlayer, LocalPlayer], work=200*
     0x022B [0x1B] RETURN
     0x022C [0x45] LOAD_SCHEDULED_TASK: Load scheduler "fdif" with entities [LocalPlayer, LocalPlayer], work=[200*, 0*]
     0x023D [0x1B] RETURN
     0x023E [0x45] LOAD_SCHEDULED_TASK: Load scheduler "fdof" with entities [LocalPlayer, LocalPlayer], work=[200*, 0*]
     0x024F [0x55] WAIT_LOAD_SCHEDULER: Wait for scheduler "fdof" with entities [LocalPlayer, LocalPlayer], work=200*
     0x025E [0x1B] RETURN
     0x025F [0x45] LOAD_SCHEDULED_TASK: Load scheduler "fdip" with entities [LocalPlayer, LocalPlayer], work=[200*, 0*]
     0x0270 [0x1B] RETURN
     0x0271 [0x45] LOAD_SCHEDULED_TASK: Load scheduler "fdop" with entities [LocalPlayer, LocalPlayer], work=[200*, 0*]
     0x0282 [0x55] WAIT_LOAD_SCHEDULER: Wait for scheduler "fdop" with entities [LocalPlayer, LocalPlayer], work=200*
     0x0291 [0x1B] RETURN
```

### Event 915

#### Metadata

| Field        | Value      |
|--------------|------------|
| Entrypoint   | 0x0292     |
| Data Size    | 3606 bytes |
| Instructions | 503        |

```
      00 01 02 03 04 05 06 07  08 09 0A 0B 0C 0D 0E 0F
      -- -- -- -- -- -- -- --  -- -- -- -- -- -- -- --
0290:       42 03 01 00 03 10  03 02 00 04 10 5D 01 80    B..........]..
02A0: 08 80 1A 64 00 46 01 38  09 80 92 01 52 00 0F 01  ...d.F.8....R...
02B0: 92 01 53 00 0F 01 92 01  54 00 0F 01 92 01 55 00  ..S.....T.....U.
02C0: 0F 01 92 01 56 00 0F 01  92 01 57 00 0F 01 92 01  ....V.....W.....
02D0: 58 00 0F 01 94 01 52 00  0F 01 94 01 53 00 0F 01  X.....R.....S...
02E0: 94 01 54 00 0F 01 94 01  55 00 0F 01 94 01 56 00  ..T.....U.....V.
02F0: 0F 01 94 01 57 00 0F 01  94 01 58 00 0F 01 94 01  ....W.....X.....
0300: F0 FF FF 7F BA 54 00 0F  01 0A 80 0B 80 0C 80 0D  .....T..........
0310: 80 BA 58 00 0F 01 0E 80  0F 80 0C 80 10 80 BA F0  ..X.............
0320: FF FF 7F 11 80 12 80 13  80 14 80 80 52 00 0F 01  ............R...
0330: 80 53 00 0F 01 80 54 00  0F 01 80 55 00 0F 01 80  .S....T....U....
0340: 56 00 0F 01 80 57 00 0F  01 80 58 00 0F 01 80 F0  V....W....X.....
0350: FF FF 7F 79 00 52 00 0F  01 F0 FF FF 7F 79 00 58  ...y.R.......y.X
0360: 00 0F 01 52 00 0F 01 4A  56 00 0F 01 F0 FF FF 7F  ...R...JV.......
0370: 4A 57 00 0F 01 F0 FF FF  7F 79 00 53 00 0F 01 F0  JW.......y.S....
0380: FF FF 7F 4A 55 00 0F 01  F0 FF FF 7F 6F 76 56 00  ...JU.......ovV.
0390: 0F 01 6F 76 53 00 0F 01  6F 76 57 00 0F 01 6F 76  ..ovS...ovW...ov
03A0: 55 00 0F 01 29 08 F0 FF  FF 7F 0A 5C 00 15 80 5C  U...)......\...\
03B0: 01 15 80 9A 5D 16 80 03  80 27 0B F0 FF FF 7F 5E  ....]....'.....^
03C0: 02 09 10 17 80 00 DC 03  45 18 80 F8 FF FF 7F F8  ........E.......
03D0: FF FF 7F 73 30 32 30 01  80 01 09 04 02 09 10 19  ...s020.........
03E0: 80 00 F8 03 45 18 80 F8  FF FF 7F F8 FF FF 7F 73  ....E..........s
03F0: 30 32 30 01 80 01 09 04  45 18 80 F8 FF FF 7F F8  020.....E.......
0400: FF FF 7F 73 30 30 31 01  80 1A 43 00 2B 52 00 0F  ...s001...C.+R..
0410: 01 1A 80 1C 06 80 2A 0B  F0 FF FF 7F 23 29 0B F0  ......*.....#)..
0420: FF FF 7F 04 1C 1B 80 1A  64 00 02 09 10 17 80 00  ........d.......
0430: 44 04 52 18 80 F8 FF FF  7F F8 FF FF 7F 73 30 32  D.R..........s02
0440: 30 01 6D 04 02 09 10 19  80 00 5E 04 52 18 80 F8  0.m.......^.R...
0450: FF FF 7F F8 FF FF 7F 73  30 32 30 01 6D 04 52 18  .......s020.m.R.
0460: 80 F8 FF FF 7F F8 FF FF  7F 73 30 30 31 1C 1C 80  .........s001...
0470: BA F0 FF FF 7F 1D 80 1E  80 13 80 1F 80 02 09 10  ................
0480: 17 80 00 99 04 45 18 80  F8 FF FF 7F F8 FF FF 7F  .....E..........
0490: 73 30 32 31 01 80 01 C6  04 02 09 10 19 80 00 B5  s021............
04A0: 04 45 18 80 F8 FF FF 7F  F8 FF FF 7F 73 30 32 31  .E..........s021
04B0: 01 80 01 C6 04 45 18 80  F8 FF FF 7F F8 FF FF 7F  .....E..........
04C0: 73 30 30 30 01 80 1A 43  00 79 00 57 00 0F 01 52  s000...C.y.W...R
04D0: 00 0F 01 7B 52 00 0F 01  29 0B 52 00 0F 01 03 03  ...{R...).R.....
04E0: 03 10 20 80 2B 52 00 0F  01 21 80 23 29 0B 52 00  .. .+R...!.#).R.
04F0: 0F 01 04 27 0B 58 00 0F  01 34 1C 22 80 79 00 52  ...'.X...4.".y.R
0500: 00 0F 01 58 00 0F 01 29  0B 52 00 0F 01 05 02 09  ...X...).R......
0510: 10 17 80 00 28 05 52 18  80 F8 FF FF 7F F8 FF FF  ....(.R.........
0520: 7F 73 30 32 31 01 51 05  02 09 10 19 80 00 42 05  .s021.Q.......B.
0530: 52 18 80 F8 FF FF 7F F8  FF FF 7F 73 30 32 31 01  R..........s021.
0540: 51 05 52 18 80 F8 FF FF  7F F8 FF FF 7F 73 30 30  Q.R..........s00
0550: 30 45 18 80 F8 FF FF 7F  F8 FF FF 7F 73 30 30 32  0E..........s002
0560: 01 80 1C 22 80 2B 58 00  0F 01 23 80 1C 22 80 79  ...".+X...#..".y
0570: 00 53 00 0F 01 58 00 0F  01 79 00 F0 FF FF 7F 58  .S...X...y.....X
0580: 00 0F 01 4B F0 FF FF 7F  24 80 6F 76 F0 FF FF 7F  ...K....$.ov....
0590: 4A 57 00 0F 01 58 00 0F  01 4A 56 00 0F 01 58 00  JW...X...JV...X.
05A0: 0F 01 79 00 54 00 0F 01  58 00 0F 01 4B 54 00 0F  ..y.T...X...KT..
05B0: 01 25 80 6F 76 54 00 0F  01 6F 76 57 00 0F 01 6F  .%.ovT...ovW...o
05C0: 76 56 00 0F 01 6F 76 54  00 0F 01 4A 55 00 0F 01  vV...ovT...JU...
05D0: 58 00 0F 01 6F 76 55 00  0F 01 52 18 80 F8 FF FF  X...ovU...R.....
05E0: 7F F8 FF FF 7F 73 30 30  32 02 09 10 17 80 00 05  .....s002.......
05F0: 06 45 18 80 F8 FF FF 7F  F8 FF FF 7F 73 30 32 32  .E..........s022
0600: 01 80 01 32 06 02 09 10  19 80 00 21 06 45 18 80  ...2.......!.E..
0610: F8 FF FF 7F F8 FF FF 7F  73 30 32 32 01 80 01 32  ........s022...2
0620: 06 45 18 80 F8 FF FF 7F  F8 FF FF 7F 73 30 30 33  .E..........s003
0630: 01 80 23 2A 0B 58 00 0F  01 29 0B 52 00 0F 01 06  ..#*.X...).R....
0640: 29 0B 52 00 0F 01 0E 2B  52 00 0F 01 26 80 23 29  ).R....+R...&.#)
0650: 0B 52 00 0F 01 0F 4A 58  00 0F 01 F0 FF FF 7F 6F  .R....JX.......o
0660: 76 58 00 0F 01 02 09 10  17 80 00 7F 06 52 18 80  vX...........R..
0670: F8 FF FF 7F F8 FF FF 7F  73 30 32 32 01 A8 06 02  ........s022....
0680: 09 10 19 80 00 99 06 52  18 80 F8 FF FF 7F F8 FF  .......R........
0690: FF 7F 73 30 32 32 01 A8  06 52 18 80 F8 FF FF 7F  ..s022...R......
06A0: F8 FF FF 7F 73 30 30 33  02 09 10 27 80 00 C4 06  ....s003...'....
06B0: 45 18 80 F8 FF FF 7F F8  FF FF 7F 73 30 30 35 01  E..........s005.
06C0: 80 01 0D 07 02 09 10 17  80 00 E0 06 45 18 80 F8  ............E...
06D0: FF FF 7F F8 FF FF 7F 73  30 32 33 01 80 01 0D 07  .......s023.....
06E0: 02 09 10 19 80 00 FC 06  45 18 80 F8 FF FF 7F F8  ........E.......
06F0: FF FF 7F 73 30 32 33 01  80 01 0D 07 45 18 80 F8  ...s023.....E...
0700: FF FF 7F F8 FF FF 7F 73  30 31 38 01 80 4A 52 00  .......s018..JR.
0710: 0F 01 58 00 0F 01 4A 53  00 0F 01 58 00 0F 01 29  ..X...JS...X...)
0720: 08 58 00 0F 01 01 2B 58  00 0F 01 28 80 23 6F 76  .X....+X...(.#ov
0730: 52 00 0F 01 6F 76 53 00  0F 01 02 09 10 27 80 00  R...ovS......'..
0740: 54 07 52 18 80 F8 FF FF  7F F8 FF FF 7F 73 30 30  T.R..........s00
0750: 35 01 97 07 02 09 10 17  80 00 6E 07 52 18 80 F8  5.........n.R...
0760: FF FF 7F F8 FF FF 7F 73  30 32 33 01 97 07 02 09  .......s023.....
0770: 10 19 80 00 88 07 52 18  80 F8 FF FF 7F F8 FF FF  ......R.........
0780: 7F 73 30 32 33 01 97 07  52 18 80 F8 FF FF 7F F8  .s023...R.......
0790: FF FF 7F 73 30 31 38 45  18 80 F8 FF FF 7F F8 FF  ...s018E........
07A0: FF 7F 73 30 30 36 01 80  BA 55 00 0F 01 29 80 2A  ..s006...U...).*
07B0: 80 13 80 24 80 BA 57 00  0F 01 2B 80 2C 80 13 80  ...$..W...+.,...
07C0: 24 80 4A 57 00 0F 01 52  00 0F 01 79 00 53 00 0F  $.JW...R...y.S..
07D0: 01 52 00 0F 01 4A 55 00  0F 01 52 00 0F 01 4A 54  .R...JU...R...JT
07E0: 00 0F 01 58 00 0F 01 29  08 58 00 0F 01 02 4B F0  ...X...).X....K.
07F0: FF FF 7F 2D 80 29 0B 52  00 0F 01 12 2B 52 00 0F  ...-.).R....+R..
0800: 01 2E 80 23 2B 52 00 0F  01 2F 80 23 6F 76 F0 FF  ...#+R.../.#ov..
0810: FF 7F 6F 76 54 00 0F 01  6F 76 57 00 0F 01 6F 76  ..ovT...ovW...ov
0820: 55 00 0F 01 52 18 80 F8  FF FF 7F F8 FF FF 7F 73  U...R..........s
0830: 30 30 36 45 18 80 F8 FF  FF 7F F8 FF FF 7F 73 30  006E..........s0
0840: 30 37 01 80 79 00 52 00  0F 01 53 00 0F 01 7B 58  07..y.R...S...{X
0850: 00 0F 01 29 0B 53 00 0F  01 01 29 0B 52 00 0F 01  ...).S....).R...
0860: 13 2B 53 00 0F 01 30 80  23 29 0B 53 00 0F 01 02  .+S...0.#).S....
0870: 02 01 00 03 80 00 C0 08  52 18 80 F8 FF FF 7F F8  ........R.......
0880: FF FF 7F 73 30 30 37 45  18 80 F8 FF FF 7F F8 FF  ...s007E........
0890: FF 7F 73 30 31 37 01 80  29 0B 58 00 0F 01 0E 2B  ..s017..).X....+
08A0: 58 00 0F 01 31 80 23 29  0B 58 00 0F 01 0F 52 18  X...1.#).X....R.
08B0: 80 F8 FF FF 7F F8 FF FF  7F 73 30 31 37 01 BE 09  .........s017...
08C0: 79 00 F0 FF FF 7F 52 00  0F 01 4A 57 00 0F 01 52  y.....R...JW...R
08D0: 00 0F 01 29 0B 52 00 0F  01 01 2B 52 00 0F 01 32  ...).R....+R...2
08E0: 80 23 29 0B 52 00 0F 01  02 6F 76 57 00 0F 01 52  .#).R....ovW...R
08F0: 18 80 F8 FF FF 7F F8 FF  FF 7F 73 30 30 37 02 09  ..........s007..
0900: 10 17 80 00 1A 09 45 18  80 F8 FF FF 7F F8 FF FF  ......E.........
0910: 7F 73 30 32 34 01 80 01  47 09 02 09 10 19 80 00  .s024...G.......
0920: 36 09 45 18 80 F8 FF FF  7F F8 FF FF 7F 73 30 32  6.E..........s02
0930: 34 01 80 01 47 09 45 18  80 F8 FF FF 7F F8 FF FF  4...G.E.........
0940: 7F 73 30 30 38 01 80 4A  54 00 0F 01 58 00 0F 01  .s008..JT...X...
0950: 29 0B 57 00 0F 01 03 03  02 10 33 80 2B 57 00 0F  ).W.......3.+W..
0960: 01 34 80 79 00 52 00 0F  01 57 00 0F 01 23 29 0B  .4.y.R...W...#).
0970: 57 00 0F 01 04 6F 76 54  00 0F 01 02 09 10 17 80  W....ovT........
0980: 00 95 09 52 18 80 F8 FF  FF 7F F8 FF FF 7F 73 30  ...R..........s0
0990: 32 34 01 BE 09 02 09 10  19 80 00 AF 09 52 18 80  24...........R..
09A0: F8 FF FF 7F F8 FF FF 7F  73 30 32 34 01 BE 09 52  ........s024...R
09B0: 18 80 F8 FF FF 7F F8 FF  FF 7F 73 30 30 38 45 18  ..........s008E.
09C0: 80 F8 FF FF 7F F8 FF FF  7F 73 30 30 39 01 80 79  .........s009..y
09D0: 00 F0 FF FF 7F 58 00 0F  01 4A 52 00 0F 01 58 00  .....X...JR...X.
09E0: 0F 01 29 0B 58 00 0F 01  06 2B 58 00 0F 01 35 80  ..).X....+X...5.
09F0: 1C 22 80 29 0B 54 00 0F  01 17 23 4B F0 FF FF 7F  .".).T....#K....
0A00: 24 80 6F 76 F0 FF FF 7F  6F 76 52 00 0F 01 BA 55  $.ov....ovR....U
0A10: 00 0F 01 36 80 37 80 13  80 24 80 79 00 55 00 0F  ...6.7...$.y.U..
0A20: 01 58 00 0F 01 27 0B 55  00 0F 01 80 52 18 80 F8  .X...'.U....R...
0A30: FF FF 7F F8 FF FF 7F 73  30 30 39 45 18 80 F8 FF  .......s009E....
0A40: FF 7F F8 FF FF 7F 73 30  31 30 01 80 79 00 F0 FF  ......s010..y...
0A50: FF 7F 55 00 0F 01 2A 0B  55 00 0F 01 2B 55 00 0F  ..U...*.U...+U..
0A60: 01 38 80 1C 39 80 29 0B  55 00 0F 01 07 29 0B 55  .8..9.).U....).U
0A70: 00 0F 01 08 29 0B 58 00  0F 01 07 4A 58 00 0F 01  ....).X....JX...
0A80: 55 00 0F 01 6F 76 58 00  0F 01 29 0B 58 00 0F 01  U...ovX...).X...
0A90: 0C 29 0B 54 00 0F 01 18  29 0B 54 00 0F 01 07 23  .).T....).T....#
0AA0: 29 0B 54 00 0F 01 08 02  09 10 17 80 00 BF 0A BA  ).T.............
0AB0: 57 00 0F 01 3A 80 3B 80  13 80 3C 80 01 D7 0A 02  W...:.;...<.....
0AC0: 09 10 19 80 00 D7 0A BA  57 00 0F 01 3A 80 3B 80  ........W...:.;.
0AD0: 13 80 3C 80 01 D7 0A 52  18 80 F8 FF FF 7F F8 FF  ..<....R........
0AE0: FF 7F 73 30 31 30 02 09  10 17 80 00 02 0B 45 18  ..s010........E.
0AF0: 80 F8 FF FF 7F F8 FF FF  7F 73 30 31 31 01 80 01  .........s011...
0B00: 2F 0B 02 09 10 19 80 00  1E 0B 45 18 80 F8 FF FF  /.........E.....
0B10: 7F F8 FF FF 7F 73 30 31  31 01 80 01 2F 0B 45 18  .....s011.../.E.
0B20: 80 F8 FF FF 7F F8 FF FF  7F 73 30 32 37 01 80 02  .........s027...
0B30: 09 10 27 80 00 44 0B BA  F0 FF FF 7F 3D 80 3E 80  ..'..D......=.>.
0B40: 13 80 3C 80 4B F0 FF FF  7F 24 80 29 0B 57 00 0F  ..<.K....$.).W..
0B50: 01 0D 4A 52 00 0F 01 57  00 0F 01 03 02 10 33 80  ..JR...W......3.
0B60: 2B 57 00 0F 01 3F 80 1C  39 80 29 0B 55 00 0F 01  +W...?..9.).U...
0B70: 0B 23 6F 76 F0 FF FF 7F  6F 76 52 00 0F 01 02 09  .#ov....ovR.....
0B80: 10 17 80 00 98 0B 52 18  80 F8 FF FF 7F F8 FF FF  ......R.........
0B90: 7F 73 30 31 31 01 C1 0B  02 09 10 19 80 00 B2 0B  .s011...........
0BA0: 52 18 80 F8 FF FF 7F F8  FF FF 7F 73 30 31 31 01  R..........s011.
0BB0: C1 0B 52 18 80 F8 FF FF  7F F8 FF FF 7F 73 30 32  ..R..........s02
0BC0: 37 02 09 10 17 80 00 DD  0B 45 18 80 F8 FF FF 7F  7........E......
0BD0: F8 FF FF 7F 73 30 32 35  01 80 01 0A 0C 02 09 10  ....s025........
0BE0: 19 80 00 F9 0B 45 18 80  F8 FF FF 7F F8 FF FF 7F  .....E..........
0BF0: 73 30 32 35 01 80 01 0A  0C 45 18 80 F8 FF FF 7F  s025.....E......
0C00: F8 FF FF 7F 73 30 30 34  01 80 29 0B 57 00 0F 01  ....s004..).W...
0C10: 0E 03 02 10 33 80 03 03  10 02 00 29 0B 52 00 0F  ....3......).R..
0C20: 01 0A 2B 52 00 0F 01 40  80 1C 22 80 4B 54 00 0F  ..+R...@..".KT..
0C30: 01 41 80 79 00 54 00 0F  01 52 00 0F 01 79 00 58  .A.y.T...R...y.X
0C40: 00 0F 01 52 00 0F 01 79  00 56 00 0F 01 52 00 0F  ...R...y.V...R..
0C50: 01 29 0B 57 00 0F 01 07  1C 22 80 79 00 56 00 0F  .).W.....".y.V..
0C60: 01 52 00 0F 01 4B 56 00  0F 01 42 80 4B F0 FF FF  .R...KV...B.K...
0C70: 7F 3C 80 6F 76 56 00 0F  01 6F 76 F0 FF FF 7F 6F  .<.ovV...ov....o
0C80: 76 54 00 0F 01 79 00 F0  FF FF 7F 52 00 0F 01 29  vT...y.....R...)
0C90: 0B 55 00 0F 01 0C 1C 22  80 4B 58 00 0F 01 43 80  .U.....".KX...C.
0CA0: 1C 22 80 4A 55 00 0F 01  52 00 0F 01 6F 76 58 00  .".JU...R...ovX.
0CB0: 0F 01 23 02 09 10 17 80  00 CD 0C 52 18 80 F8 FF  ..#........R....
0CC0: FF 7F F8 FF FF 7F 73 30  32 35 01 F6 0C 02 09 10  ......s025......
0CD0: 19 80 00 E7 0C 52 18 80  F8 FF FF 7F F8 FF FF 7F  .....R..........
0CE0: 73 30 32 35 01 F6 0C 52  18 80 F8 FF FF 7F F8 FF  s025...R........
0CF0: FF 7F 73 30 30 34 45 18  80 F8 FF FF 7F F8 FF FF  ..s004E.........
0D00: 7F 73 30 31 32 01 80 7B  54 00 0F 01 29 0B 52 00  .s012..{T...).R.
0D10: 0F 01 0B 29 0B 57 00 0F  01 0B 4A 52 00 0F 01 F0  ...).W....JR....
0D20: FF FF 7F 29 0B 54 00 0F  01 12 03 02 10 33 80 2B  ...).T.......3.+
0D30: 54 00 0F 01 44 80 1C 39  80 79 00 56 00 0F 01 54  T...D..9.y.V...T
0D40: 00 0F 01 79 00 58 00 0F  01 54 00 0F 01 23 6F 76  ...y.X...T...#ov
0D50: 55 00 0F 01 29 0B 54 00  0F 01 13 29 0B 54 00 0F  U...).T....).T..
0D60: 01 14 29 0B 56 00 0F 01  01 4A 55 00 0F 01 F0 FF  ..).V....JU.....
0D70: FF 7F 2B 56 00 0F 01 45  80 1C 39 80 79 00 54 00  ..+V...E..9.y.T.
0D80: 0F 01 56 00 0F 01 79 00  58 00 0F 01 56 00 0F 01  ..V...y.X...V...
0D90: 4B F0 FF FF 7F 24 80 6F  76 F0 FF FF 7F 23 6F 76  K....$.ov....#ov
0DA0: 55 00 0F 01 6F 76 52 00  0F 01 52 18 80 F8 FF FF  U...ovR...R.....
0DB0: 7F F8 FF FF 7F 73 30 31  32 45 18 80 F8 FF FF 7F  .....s012E......
0DC0: F8 FF FF 7F 73 30 31 33  01 80 29 0B 56 00 0F 01  ....s013..).V...
0DD0: 02 79 00 53 00 0F 01 F0  FF FF 7F 2B 55 00 0F 01  .y.S.......+U...
0DE0: 46 80 1C 22 80 79 00 F0  FF FF 7F 55 00 0F 01 79  F..".y.....U...y
0DF0: 00 58 00 0F 01 55 00 0F  01 23 52 18 80 F8 FF FF  .X...U...#R.....
0E00: 7F F8 FF FF 7F 73 30 31  33 02 09 10 47 80 00 25  .....s013...G..%
0E10: 0E 45 18 80 F8 FF FF 7F  F8 FF FF 7F 73 30 31 36  .E..........s016
0E20: 01 80 01 8A 0E 02 09 10  17 80 00 41 0E 45 18 80  ...........A.E..
0E30: F8 FF FF 7F F8 FF FF 7F  73 30 32 36 01 80 01 8A  ........s026....
0E40: 0E 02 09 10 19 80 00 5D  0E 45 18 80 F8 FF FF 7F  .......].E......
0E50: F8 FF FF 7F 73 30 32 36  01 80 01 8A 0E 02 09 10  ....s026........
0E60: 27 80 00 79 0E 45 18 80  F8 FF FF 7F F8 FF FF 7F  '..y.E..........
0E70: 73 30 31 36 01 80 01 8A  0E 45 18 80 F8 FF FF 7F  s016.....E......
0E80: F8 FF FF 7F 73 30 31 39  01 80 79 00 56 00 0F 01  ....s019..y.V...
0E90: F0 FF FF 7F 4B 56 00 0F  01 48 80 79 00 52 00 0F  ....KV...H.y.R..
0EA0: 01 F0 FF FF 7F 1C 49 80  6F 76 56 00 0F 01 02 09  ......I.ovV.....
0EB0: 10 47 80 00 C8 0E 52 18  80 F8 FF FF 7F F8 FF FF  .G....R.........
0EC0: 7F 73 30 31 36 01 25 0F  02 09 10 17 80 00 E2 0E  .s016.%.........
0ED0: 52 18 80 F8 FF FF 7F F8  FF FF 7F 73 30 32 36 01  R..........s026.
0EE0: 25 0F 02 09 10 19 80 00  FC 0E 52 18 80 F8 FF FF  %.........R.....
0EF0: 7F F8 FF FF 7F 73 30 32  36 01 25 0F 02 09 10 27  .....s026.%....'
0F00: 80 00 16 0F 52 18 80 F8  FF FF 7F F8 FF FF 7F 73  ....R..........s
0F10: 30 31 36 01 25 0F 52 18  80 F8 FF FF 7F F8 FF FF  016.%.R.........
0F20: 7F 73 30 31 39 45 18 80  F8 FF FF 7F F8 FF FF 7F  .s019E..........
0F30: 73 30 31 34 01 80 29 0B  54 00 0F 01 15 03 02 10  s014..).T.......
0F40: 33 80 03 03 10 02 00 29  0B 52 00 0F 01 10 2B 52  3......).R....+R
0F50: 00 0F 01 4A 80 1C 39 80  4B F0 FF FF 7F 4B 80 79  ...J..9.K....K.y
0F60: 00 F0 FF FF 7F 52 00 0F  01 6F 76 F0 FF FF 7F 79  .....R...ov....y
0F70: 00 57 00 0F 01 52 00 0F  01 79 00 58 00 0F 01 52  .W...R...y.X...R
0F80: 00 0F 01 79 00 54 00 0F  01 52 00 0F 01 79 00 56  ...y.T...R...y.V
0F90: 00 0F 01 52 00 0F 01 23  29 0B 52 00 0F 01 11 52  ...R...#).R....R
0FA0: 18 80 F8 FF FF 7F F8 FF  FF 7F 73 30 31 34 45 18  ..........s014E.
0FB0: 80 F8 FF FF 7F F8 FF FF  7F 73 30 31 35 01 80 27  .........s015..'
0FC0: 08 53 00 0F 01 09 27 08  54 00 0F 01 05 27 08 57  .S....'.T....'.W
0FD0: 00 0F 01 03 27 08 56 00  0F 01 03 27 08 55 00 0F  ....'.V....'.U..
0FE0: 01 09 4B F0 FF FF 7F 4C  80 7B F0 FF FF 7F 2B 53  ..K....L.{....+S
0FF0: 00 0F 01 4D 80 23 2B 54  00 0F 01 4E 80 23 2B 57  ...M.#+T...N.#+W
1000: 00 0F 01 4F 80 23 2B 56  00 0F 01 50 80 23 2B 55  ...O.#+V...P.#+U
1010: 00 0F 01 51 80 23 2A 08  53 00 0F 01 2A 08 54 00  ...Q.#*.S...*.T.
1020: 0F 01 2A 08 57 00 0F 01  2A 08 56 00 0F 01 2A 08  ..*.W...*.V...*.
1030: 55 00 0F 01 1C 1B 80 6E  F0 FF FF 7F 52 80 99 F0  U......n....R...
1040: FF FF 7F 1C 53 80 27 08  58 00 0F 01 0C 2B 58 00  ....S.'.X....+X.
1050: 0F 01 54 80 23 2A 08 58  00 0F 01 1C 06 80 5D 01  ..T.#*.X......].
1060: 80 08 80 1A 64 00 52 18  80 F8 FF FF 7F F8 FF FF  ....d.R.........
1070: 7F 73 30 31 35 6F 76 F0  FF FF 7F 5C 00 55 80 5C  .s015ov....\.U.\
1080: 01 55 80 9A 5D 16 80 03  80 1C 56 80 AB 11 01 80  .U..].....V.....
1090: 1C 03 80 46 00 45 00 80  F8 FF FF 7F F8 FF FF 7F  ...F.E..........
10A0: 66 64 69 32 01 80 21 00                           fdi2..!.        
```

#### Opcodes

```
  0: 0x0292 [0x42] SET_CLI_EVENT_CANCEL_DATA()
  1: 0x0293 [0x03] ExtData[1]->WorkLocal[1] = Work_Zone[3]
  2: 0x0298 [0x03] ExtData[1]->WorkLocal[2] = Work_Zone[4]
  3: 0x029D [0x5D] SET_MUSIC_VOLUME(volume=0*, fade_time=300*)
  4: 0x02A2 [0x1A] CALL_SUBROUTINE(address=0x0064)
  5: 0x02A5 [0x46] CAMERA_CONTROL: Disable user control
  6: 0x02A7 [0x38] SET_CLIENT_EVENT_MODE(mode=147*)
  7: 0x02AA [0x92] Kohlo-Lakolo (ID: 17760338/0x010F0052)->Render.Flags3 ^= 0x01
  8: 0x02B0 [0x92] Papo-Hopo (ID: 17760339/0x010F0053)->Render.Flags3 ^= 0x01
  9: 0x02B6 [0x92] Gomada-Vulmada (ID: 17760340/0x010F0054)->Render.Flags3 ^= 0x01
 10: 0x02BC [0x92] Pichichi (ID: 17760341/0x010F0055)->Render.Flags3 ^= 0x01
 11: 0x02C2 [0x92] Yafa Yaa (ID: 17760342/0x010F0056)->Render.Flags3 ^= 0x01
 12: 0x02C8 [0x92] Pyo Nzon (ID: 17760343/0x010F0057)->Render.Flags3 ^= 0x01
 13: 0x02CE [0x92] Shanruru (ID: 17760344/0x010F0058)->Render.Flags3 ^= 0x01
 14: 0x02D4 [0x94] Kohlo-Lakolo (ID: 17760338/0x010F0052)->Render.Flags3 ^= 0x01
 15: 0x02DA [0x94] Papo-Hopo (ID: 17760339/0x010F0053)->Render.Flags3 ^= 0x01
 16: 0x02E0 [0x94] Gomada-Vulmada (ID: 17760340/0x010F0054)->Render.Flags3 ^= 0x01
 17: 0x02E6 [0x94] Pichichi (ID: 17760341/0x010F0055)->Render.Flags3 ^= 0x01
 18: 0x02EC [0x94] Yafa Yaa (ID: 17760342/0x010F0056)->Render.Flags3 ^= 0x01
 19: 0x02F2 [0x94] Pyo Nzon (ID: 17760343/0x010F0057)->Render.Flags3 ^= 0x01
 20: 0x02F8 [0x94] Shanruru (ID: 17760344/0x010F0058)->Render.Flags3 ^= 0x01
 21: 0x02FE [0x94] LocalPlayer->Render.Flags3 ^= 0x01
 22: 0x0304 [0xBA] SET_ENTITY_POSITION(entity_id=Gomada-Vulmada (ID: 17760340/0x010F0054), pos_x=-23.751*, pos_z=188.649*, pos_y=-6.000*, direction=222.7°*)
 23: 0x0311 [0xBA] SET_ENTITY_POSITION(entity_id=Shanruru (ID: 17760344/0x010F0058), pos_x=-15.151*, pos_z=188.177*, pos_y=-6.000*, direction=189.9°*)
 24: 0x031E [0xBA] SET_ENTITY_POSITION(entity_id=LocalPlayer, pos_x=-24.919*, pos_z=190.444*, pos_y=-5.999*, direction=118.5°*)
 25: 0x032B [0x80] LOAD_WAIT(entity=Kohlo-Lakolo (ID: 17760338/0x010F0052))
 26: 0x0330 [0x80] LOAD_WAIT(entity=Papo-Hopo (ID: 17760339/0x010F0053))
 27: 0x0335 [0x80] LOAD_WAIT(entity=Gomada-Vulmada (ID: 17760340/0x010F0054))
 28: 0x033A [0x80] LOAD_WAIT(entity=Pichichi (ID: 17760341/0x010F0055))
 29: 0x033F [0x80] LOAD_WAIT(entity=Yafa Yaa (ID: 17760342/0x010F0056))
 30: 0x0344 [0x80] LOAD_WAIT(entity=Pyo Nzon (ID: 17760343/0x010F0057))
 31: 0x0349 [0x80] LOAD_WAIT(entity=Shanruru (ID: 17760344/0x010F0058))
 32: 0x034E [0x80] LOAD_WAIT(entity=LocalPlayer)
 33: 0x0353 [0x79] Kohlo-Lakolo (ID: 17760338/0x010F0052) looks at LocalPlayer (Basic look)
 34: 0x035D [0x79] Shanruru (ID: 17760344/0x010F0058) looks at Kohlo-Lakolo (ID: 17760338/0x010F0052) (Basic look)
 35: 0x0367 [0x4A] Yafa Yaa (ID: 17760342/0x010F0056) looks at LocalPlayer
 36: 0x0370 [0x4A] Pyo Nzon (ID: 17760343/0x010F0057) looks at LocalPlayer
 37: 0x0379 [0x79] Papo-Hopo (ID: 17760339/0x010F0053) looks at LocalPlayer (Basic look)
 38: 0x0383 [0x4A] Pichichi (ID: 17760341/0x010F0055) looks at LocalPlayer
 39: 0x038C [0x6F] WAIT_FRAME_DELAY: Yield until WaitTime reaches zero
 40: 0x038D [0x76] CHECK_ENTITY_RENDER_FLAGS: Wait until Yafa Yaa (ID: 17760342/0x010F0056) Render.Flags0 and Render.Flags3 conditions are met
 41: 0x0392 [0x6F] WAIT_FRAME_DELAY: Yield until WaitTime reaches zero
 42: 0x0393 [0x76] CHECK_ENTITY_RENDER_FLAGS: Wait until Papo-Hopo (ID: 17760339/0x010F0053) Render.Flags0 and Render.Flags3 conditions are met
 43: 0x0398 [0x6F] WAIT_FRAME_DELAY: Yield until WaitTime reaches zero
 44: 0x0399 [0x76] CHECK_ENTITY_RENDER_FLAGS: Wait until Pyo Nzon (ID: 17760343/0x010F0057) Render.Flags0 and Render.Flags3 conditions are met
 45: 0x039E [0x6F] WAIT_FRAME_DELAY: Yield until WaitTime reaches zero
 46: 0x039F [0x76] CHECK_ENTITY_RENDER_FLAGS: Wait until Pichichi (ID: 17760341/0x010F0055) Render.Flags0 and Render.Flags3 conditions are met
 47: 0x03A4 [0x29] REQ_SET_WAIT(priority=0x08, entity_id=LocalPlayer, tag_num=0x0A)
 48: 0x03AB [0x5C] MUSIC_CONTROL: Set Idle (Day) music to song 163*
 49: 0x03AF [0x5C] MUSIC_CONTROL: Set Idle (Night) music to song 163*
 50: 0x03B3 [0x9A] WAIT_MUSIC_SERVER()
 51: 0x03B4 [0x5D] SET_MUSIC_VOLUME(volume=127*, fade_time=1*)
 52: 0x03B9 [0x27] REQ_SET(priority=0x0B, entity_id=LocalPlayer, tag_num=0x5E)
 53: 0x03C0 [0x02] IF !(Work_Zone[9] == 5*) GOTO 0x03DC
 54: 0x03C8 [0x45] LOAD_SCHEDULED_TASK: Load scheduler "s020" with entities [EventEntity, EventEntity], work=[839*, 0*]
 55: 0x03D9 [0x01] GOTO 0x0409
 56: 0x03DC [0x02] IF !(Work_Zone[9] == 6*) GOTO 0x03F8
 57: 0x03E4 [0x45] LOAD_SCHEDULED_TASK: Load scheduler "s020" with entities [EventEntity, EventEntity], work=[839*, 0*]
 58: 0x03F5 [0x01] GOTO 0x0409
 59: 0x03F8 [0x45] LOAD_SCHEDULED_TASK: Load scheduler "s001" with entities [EventEntity, EventEntity], work=[839*, 0*]

SUBROUTINE_0409:
 60: 0x0409 [0x1A] CALL_SUBROUTINE(address=0x0043)
 61: 0x040C [0x2B] Kohlo-Lakolo (ID: 17760338/0x010F0052) [16594*]:
    → "Hmm? Hmmm? What now?"
 62: 0x0413 [0x1C] WAIT(30* ticks)
 63: 0x0416 [0x2A] GET_REQ_LEVEL(level=11, entity_id=LocalPlayer)
 64: 0x041C [0x23] WAIT_FOR_DIALOG_INTERACTION
 65: 0x041D [0x29] REQ_SET_WAIT(priority=0x0B, entity_id=LocalPlayer, tag_num=0x04)
 66: 0x0424 [0x1C] WAIT(40* ticks)
 67: 0x0427 [0x1A] CALL_SUBROUTINE(address=0x0064)
 68: 0x042A [0x02] IF !(Work_Zone[9] == 5*) GOTO 0x0444
 69: 0x0432 [0x52] END_LOAD_SCHEDULER: End scheduler "s020" with entities [EventEntity, EventEntity], work=839*
 70: 0x0441 [0x01] GOTO 0x046D
 71: 0x0444 [0x02] IF !(Work_Zone[9] == 6*) GOTO 0x045E
 72: 0x044C [0x52] END_LOAD_SCHEDULER: End scheduler "s020" with entities [EventEntity, EventEntity], work=839*
 73: 0x045B [0x01] GOTO 0x046D
 74: 0x045E [0x52] END_LOAD_SCHEDULER: End scheduler "s001" with entities [EventEntity, EventEntity], work=839*

SUBROUTINE_046D:
 75: 0x046D [0x1C] WAIT(50* ticks)
 76: 0x0470 [0xBA] SET_ENTITY_POSITION(entity_id=LocalPlayer, pos_x=-24.892*, pos_z=190.113*, pos_y=-5.999*, direction=176.7°*)
 77: 0x047D [0x02] IF !(Work_Zone[9] == 5*) GOTO 0x0499
 78: 0x0485 [0x45] LOAD_SCHEDULED_TASK: Load scheduler "s021" with entities [EventEntity, EventEntity], work=[839*, 0*]
 79: 0x0496 [0x01] GOTO 0x04C6
 80: 0x0499 [0x02] IF !(Work_Zone[9] == 6*) GOTO 0x04B5
 81: 0x04A1 [0x45] LOAD_SCHEDULED_TASK: Load scheduler "s021" with entities [EventEntity, EventEntity], work=[839*, 0*]
 82: 0x04B2 [0x01] GOTO 0x04C6
 83: 0x04B5 [0x45] LOAD_SCHEDULED_TASK: Load scheduler "s000" with entities [EventEntity, EventEntity], work=[839*, 0*]

SUBROUTINE_04C6:
 84: 0x04C6 [0x1A] CALL_SUBROUTINE(address=0x0043)
 85: 0x04C9 [0x79] Pyo Nzon (ID: 17760343/0x010F0057) looks at Kohlo-Lakolo (ID: 17760338/0x010F0052) (Basic look)
 86: 0x04D3 [0x7B] Kohlo-Lakolo (ID: 17760338/0x010F0052) stops talking
 87: 0x04D8 [0x29] REQ_SET_WAIT(priority=0x0B, entity_id=Kohlo-Lakolo (ID: 17760338/0x010F0052), tag_num=0x03)
 88: 0x04DF [0x03] Work_Zone[3] = 3230*
 89: 0x04E4 [0x2B] Kohlo-Lakolo (ID: 17760338/0x010F0052) [16595*]:
    → "Hey! I reme`mber that!"
 90: 0x04EB [0x23] WAIT_FOR_DIALOG_INTERACTION
 91: 0x04EC [0x29] REQ_SET_WAIT(priority=0x0B, entity_id=Kohlo-Lakolo (ID: 17760338/0x010F0052), tag_num=0x04)
 92: 0x04F3 [0x27] REQ_SET(priority=0x0B, entity_id=Shanruru (ID: 17760344/0x010F0058), tag_num=0x34)
 93: 0x04FA [0x1C] WAIT(10* ticks)
 94: 0x04FD [0x79] Kohlo-Lakolo (ID: 17760338/0x010F0052) looks at Shanruru (ID: 17760344/0x010F0058) (Basic look)
 95: 0x0507 [0x29] REQ_SET_WAIT(priority=0x0B, entity_id=Kohlo-Lakolo (ID: 17760338/0x010F0052), tag_num=0x05)
 96: 0x050E [0x02] IF !(Work_Zone[9] == 5*) GOTO 0x0528
 97: 0x0516 [0x52] END_LOAD_SCHEDULER: End scheduler "s021" with entities [EventEntity, EventEntity], work=839*
 98: 0x0525 [0x01] GOTO 0x0551
 99: 0x0528 [0x02] IF !(Work_Zone[9] == 6*) GOTO 0x0542
100: 0x0530 [0x52] END_LOAD_SCHEDULER: End scheduler "s021" with entities [EventEntity, EventEntity], work=839*
101: 0x053F [0x01] GOTO 0x0551
102: 0x0542 [0x52] END_LOAD_SCHEDULER: End scheduler "s000" with entities [EventEntity, EventEntity], work=839*

SUBROUTINE_0551:
103: 0x0551 [0x45] LOAD_SCHEDULED_TASK: Load scheduler "s002" with entities [EventEntity, EventEntity], work=[839*, 0*]
104: 0x0562 [0x1C] WAIT(10* ticks)
105: 0x0565 [0x2B] Shanruru (ID: 17760344/0x010F0058) [16596*]:
    → "My doll!"
106: 0x056C [0x1C] WAIT(10* ticks)
107: 0x056F [0x79] Papo-Hopo (ID: 17760339/0x010F0053) looks at Shanruru (ID: 17760344/0x010F0058) (Basic look)
108: 0x0579 [0x79] LocalPlayer looks at Shanruru (ID: 17760344/0x010F0058) (Basic look)
109: 0x0583 [0x4B] UPDATE_ENTITY_YAW(entity=LocalPlayer, yaw=3.3°*)
110: 0x058A [0x6F] WAIT_FRAME_DELAY: Yield until WaitTime reaches zero
111: 0x058B [0x76] CHECK_ENTITY_RENDER_FLAGS: Wait until LocalPlayer Render.Flags0 and Render.Flags3 conditions are met
112: 0x0590 [0x4A] Pyo Nzon (ID: 17760343/0x010F0057) looks at Shanruru (ID: 17760344/0x010F0058)
113: 0x0599 [0x4A] Yafa Yaa (ID: 17760342/0x010F0056) looks at Shanruru (ID: 17760344/0x010F0058)
114: 0x05A2 [0x79] Gomada-Vulmada (ID: 17760340/0x010F0054) looks at Shanruru (ID: 17760344/0x010F0058) (Basic look)
115: 0x05AC [0x4B] UPDATE_ENTITY_YAW(entity=Gomada-Vulmada (ID: 17760340/0x010F0054), yaw=17.6°*)
116: 0x05B3 [0x6F] WAIT_FRAME_DELAY: Yield until WaitTime reaches zero
117: 0x05B4 [0x76] CHECK_ENTITY_RENDER_FLAGS: Wait until Gomada-Vulmada (ID: 17760340/0x010F0054) Render.Flags0 and Render.Flags3 conditions are met
118: 0x05B9 [0x6F] WAIT_FRAME_DELAY: Yield until WaitTime reaches zero
119: 0x05BA [0x76] CHECK_ENTITY_RENDER_FLAGS: Wait until Pyo Nzon (ID: 17760343/0x010F0057) Render.Flags0 and Render.Flags3 conditions are met
120: 0x05BF [0x6F] WAIT_FRAME_DELAY: Yield until WaitTime reaches zero
121: 0x05C0 [0x76] CHECK_ENTITY_RENDER_FLAGS: Wait until Yafa Yaa (ID: 17760342/0x010F0056) Render.Flags0 and Render.Flags3 conditions are met
122: 0x05C5 [0x6F] WAIT_FRAME_DELAY: Yield until WaitTime reaches zero
123: 0x05C6 [0x76] CHECK_ENTITY_RENDER_FLAGS: Wait until Gomada-Vulmada (ID: 17760340/0x010F0054) Render.Flags0 and Render.Flags3 conditions are met
124: 0x05CB [0x4A] Pichichi (ID: 17760341/0x010F0055) looks at Shanruru (ID: 17760344/0x010F0058)
125: 0x05D4 [0x6F] WAIT_FRAME_DELAY: Yield until WaitTime reaches zero
126: 0x05D5 [0x76] CHECK_ENTITY_RENDER_FLAGS: Wait until Pichichi (ID: 17760341/0x010F0055) Render.Flags0 and Render.Flags3 conditions are met
127: 0x05DA [0x52] END_LOAD_SCHEDULER: End scheduler "s002" with entities [EventEntity, EventEntity], work=839*
128: 0x05E9 [0x02] IF !(Work_Zone[9] == 5*) GOTO 0x0605
129: 0x05F1 [0x45] LOAD_SCHEDULED_TASK: Load scheduler "s022" with entities [EventEntity, EventEntity], work=[839*, 0*]
130: 0x0602 [0x01] GOTO 0x0632
131: 0x0605 [0x02] IF !(Work_Zone[9] == 6*) GOTO 0x0621
132: 0x060D [0x45] LOAD_SCHEDULED_TASK: Load scheduler "s022" with entities [EventEntity, EventEntity], work=[839*, 0*]
133: 0x061E [0x01] GOTO 0x0632
134: 0x0621 [0x45] LOAD_SCHEDULED_TASK: Load scheduler "s003" with entities [EventEntity, EventEntity], work=[839*, 0*]

SUBROUTINE_0632:
135: 0x0632 [0x23] WAIT_FOR_DIALOG_INTERACTION
136: 0x0633 [0x2A] GET_REQ_LEVEL(level=11, entity_id=Shanruru (ID: 17760344/0x010F0058))
137: 0x0639 [0x29] REQ_SET_WAIT(priority=0x0B, entity_id=Kohlo-Lakolo (ID: 17760338/0x010F0052), tag_num=0x06)
138: 0x0640 [0x29] REQ_SET_WAIT(priority=0x0B, entity_id=Kohlo-Lakolo (ID: 17760338/0x010F0052), tag_num=0x0E)
139: 0x0647 [0x2B] Kohlo-Lakolo (ID: 17760338/0x010F0052) [16597*]:
    → "Oh, it's yours, huh..."
140: 0x064E [0x23] WAIT_FOR_DIALOG_INTERACTION
141: 0x064F [0x29] REQ_SET_WAIT(priority=0x0B, entity_id=Kohlo-Lakolo (ID: 17760338/0x010F0052), tag_num=0x0F)
142: 0x0656 [0x4A] Shanruru (ID: 17760344/0x010F0058) looks at LocalPlayer
143: 0x065F [0x6F] WAIT_FRAME_DELAY: Yield until WaitTime reaches zero
144: 0x0660 [0x76] CHECK_ENTITY_RENDER_FLAGS: Wait until Shanruru (ID: 17760344/0x010F0058) Render.Flags0 and Render.Flags3 conditions are met
145: 0x0665 [0x02] IF !(Work_Zone[9] == 5*) GOTO 0x067F
146: 0x066D [0x52] END_LOAD_SCHEDULER: End scheduler "s022" with entities [EventEntity, EventEntity], work=839*
147: 0x067C [0x01] GOTO 0x06A8
148: 0x067F [0x02] IF !(Work_Zone[9] == 6*) GOTO 0x0699
149: 0x0687 [0x52] END_LOAD_SCHEDULER: End scheduler "s022" with entities [EventEntity, EventEntity], work=839*
150: 0x0696 [0x01] GOTO 0x06A8
151: 0x0699 [0x52] END_LOAD_SCHEDULER: End scheduler "s003" with entities [EventEntity, EventEntity], work=839*

SUBROUTINE_06A8:
152: 0x06A8 [0x02] IF !(Work_Zone[9] == 8*) GOTO 0x06C4
153: 0x06B0 [0x45] LOAD_SCHEDULED_TASK: Load scheduler "s005" with entities [EventEntity, EventEntity], work=[839*, 0*]
154: 0x06C1 [0x01] GOTO 0x070D
155: 0x06C4 [0x02] IF !(Work_Zone[9] == 5*) GOTO 0x06E0
156: 0x06CC [0x45] LOAD_SCHEDULED_TASK: Load scheduler "s023" with entities [EventEntity, EventEntity], work=[839*, 0*]
157: 0x06DD [0x01] GOTO 0x070D
158: 0x06E0 [0x02] IF !(Work_Zone[9] == 6*) GOTO 0x06FC
159: 0x06E8 [0x45] LOAD_SCHEDULED_TASK: Load scheduler "s023" with entities [EventEntity, EventEntity], work=[839*, 0*]
160: 0x06F9 [0x01] GOTO 0x070D
161: 0x06FC [0x45] LOAD_SCHEDULED_TASK: Load scheduler "s018" with entities [EventEntity, EventEntity], work=[839*, 0*]

SUBROUTINE_070D:
162: 0x070D [0x4A] Kohlo-Lakolo (ID: 17760338/0x010F0052) looks at Shanruru (ID: 17760344/0x010F0058)
163: 0x0716 [0x4A] Papo-Hopo (ID: 17760339/0x010F0053) looks at Shanruru (ID: 17760344/0x010F0058)
164: 0x071F [0x29] REQ_SET_WAIT(priority=0x08, entity_id=Shanruru (ID: 17760344/0x010F0058), tag_num=0x01)
165: 0x0726 [0x2B] Shanruru (ID: 17760344/0x010F0058) [16598*]:
    → "Thank you so much! The Mithra who took it treated it so terribly!"
166: 0x072D [0x23] WAIT_FOR_DIALOG_INTERACTION
167: 0x072E [0x6F] WAIT_FRAME_DELAY: Yield until WaitTime reaches zero
168: 0x072F [0x76] CHECK_ENTITY_RENDER_FLAGS: Wait until Kohlo-Lakolo (ID: 17760338/0x010F0052) Render.Flags0 and Render.Flags3 conditions are met
169: 0x0734 [0x6F] WAIT_FRAME_DELAY: Yield until WaitTime reaches zero
170: 0x0735 [0x76] CHECK_ENTITY_RENDER_FLAGS: Wait until Papo-Hopo (ID: 17760339/0x010F0053) Render.Flags0 and Render.Flags3 conditions are met
171: 0x073A [0x02] IF !(Work_Zone[9] == 8*) GOTO 0x0754
172: 0x0742 [0x52] END_LOAD_SCHEDULER: End scheduler "s005" with entities [EventEntity, EventEntity], work=839*
173: 0x0751 [0x01] GOTO 0x0797
174: 0x0754 [0x02] IF !(Work_Zone[9] == 5*) GOTO 0x076E
175: 0x075C [0x52] END_LOAD_SCHEDULER: End scheduler "s023" with entities [EventEntity, EventEntity], work=839*
176: 0x076B [0x01] GOTO 0x0797
177: 0x076E [0x02] IF !(Work_Zone[9] == 6*) GOTO 0x0788
178: 0x0776 [0x52] END_LOAD_SCHEDULER: End scheduler "s023" with entities [EventEntity, EventEntity], work=839*
179: 0x0785 [0x01] GOTO 0x0797
180: 0x0788 [0x52] END_LOAD_SCHEDULER: End scheduler "s018" with entities [EventEntity, EventEntity], work=839*

SUBROUTINE_0797:
181: 0x0797 [0x45] LOAD_SCHEDULED_TASK: Load scheduler "s006" with entities [EventEntity, EventEntity], work=[839*, 0*]
182: 0x07A8 [0xBA] SET_ENTITY_POSITION(entity_id=Pichichi (ID: 17760341/0x010F0055), pos_x=-24.626*, pos_z=192.161*, pos_y=-5.999*, direction=52.7°*)
183: 0x07B5 [0xBA] SET_ENTITY_POSITION(entity_id=Pyo Nzon (ID: 17760343/0x010F0057), pos_x=-23.654*, pos_z=191.872*, pos_y=-5.999*, direction=52.7°*)
184: 0x07C2 [0x4A] Pyo Nzon (ID: 17760343/0x010F0057) looks at Kohlo-Lakolo (ID: 17760338/0x010F0052)
185: 0x07CB [0x79] Papo-Hopo (ID: 17760339/0x010F0053) looks at Kohlo-Lakolo (ID: 17760338/0x010F0052) (Basic look)
186: 0x07D5 [0x4A] Pichichi (ID: 17760341/0x010F0055) looks at Kohlo-Lakolo (ID: 17760338/0x010F0052)
187: 0x07DE [0x4A] Gomada-Vulmada (ID: 17760340/0x010F0054) looks at Shanruru (ID: 17760344/0x010F0058)
188: 0x07E7 [0x29] REQ_SET_WAIT(priority=0x08, entity_id=Shanruru (ID: 17760344/0x010F0058), tag_num=0x02)
189: 0x07EE [0x4B] UPDATE_ENTITY_YAW(entity=LocalPlayer, yaw=11.0°*)
190: 0x07F5 [0x29] REQ_SET_WAIT(priority=0x0B, entity_id=Kohlo-Lakolo (ID: 17760338/0x010F0052), tag_num=0x12)
191: 0x07FC [0x2B] Kohlo-Lakolo (ID: 17760338/0x010F0052) [16599*]:
    → "Ah! You mean during the Mithra Thief Spy`ing Incident!"
192: 0x0803 [0x23] WAIT_FOR_DIALOG_INTERACTION
193: 0x0804 [0x2B] Kohlo-Lakolo (ID: 17760338/0x010F0052) [16600*]:
    → "The thief a`lways gets away before she can be caught, so we decided to go spying!"
194: 0x080B [0x23] WAIT_FOR_DIALOG_INTERACTION
195: 0x080C [0x6F] WAIT_FRAME_DELAY: Yield until WaitTime reaches zero
196: 0x080D [0x76] CHECK_ENTITY_RENDER_FLAGS: Wait until LocalPlayer Render.Flags0 and Render.Flags3 conditions are met
197: 0x0812 [0x6F] WAIT_FRAME_DELAY: Yield until WaitTime reaches zero
198: 0x0813 [0x76] CHECK_ENTITY_RENDER_FLAGS: Wait until Gomada-Vulmada (ID: 17760340/0x010F0054) Render.Flags0 and Render.Flags3 conditions are met
199: 0x0818 [0x6F] WAIT_FRAME_DELAY: Yield until WaitTime reaches zero
200: 0x0819 [0x76] CHECK_ENTITY_RENDER_FLAGS: Wait until Pyo Nzon (ID: 17760343/0x010F0057) Render.Flags0 and Render.Flags3 conditions are met
201: 0x081E [0x6F] WAIT_FRAME_DELAY: Yield until WaitTime reaches zero
202: 0x081F [0x76] CHECK_ENTITY_RENDER_FLAGS: Wait until Pichichi (ID: 17760341/0x010F0055) Render.Flags0 and Render.Flags3 conditions are met
203: 0x0824 [0x52] END_LOAD_SCHEDULER: End scheduler "s006" with entities [EventEntity, EventEntity], work=839*
204: 0x0833 [0x45] LOAD_SCHEDULED_TASK: Load scheduler "s007" with entities [EventEntity, EventEntity], work=[839*, 0*]
205: 0x0844 [0x79] Kohlo-Lakolo (ID: 17760338/0x010F0052) looks at Papo-Hopo (ID: 17760339/0x010F0053) (Basic look)
206: 0x084E [0x7B] Shanruru (ID: 17760344/0x010F0058) stops talking
207: 0x0853 [0x29] REQ_SET_WAIT(priority=0x0B, entity_id=Papo-Hopo (ID: 17760339/0x010F0053), tag_num=0x01)
208: 0x085A [0x29] REQ_SET_WAIT(priority=0x0B, entity_id=Kohlo-Lakolo (ID: 17760338/0x010F0052), tag_num=0x13)
209: 0x0861 [0x2B] Papo-Hopo (ID: 17760339/0x010F0053) [16601*]:
    → "And we found out all about Nanaa Mihgo because of Shanruru, too!"
210: 0x0868 [0x23] WAIT_FOR_DIALOG_INTERACTION
211: 0x0869 [0x29] REQ_SET_WAIT(priority=0x0B, entity_id=Papo-Hopo (ID: 17760339/0x010F0053), tag_num=0x02)
212: 0x0870 [0x02] IF !(ExtData[1]->WorkLocal[1] == 1*) GOTO 0x08C0
213: 0x0878 [0x52] END_LOAD_SCHEDULER: End scheduler "s007" with entities [EventEntity, EventEntity], work=839*
214: 0x0887 [0x45] LOAD_SCHEDULED_TASK: Load scheduler "s017" with entities [EventEntity, EventEntity], work=[839*, 0*]
215: 0x0898 [0x29] REQ_SET_WAIT(priority=0x0B, entity_id=Shanruru (ID: 17760344/0x010F0058), tag_num=0x0E)
216: 0x089F [0x2B] Shanruru (ID: 17760344/0x010F0058) [16602*]:
    → "Me? A spy?"
217: 0x08A6 [0x23] WAIT_FOR_DIALOG_INTERACTION
218: 0x08A7 [0x29] REQ_SET_WAIT(priority=0x0B, entity_id=Shanruru (ID: 17760344/0x010F0058), tag_num=0x0F)
219: 0x08AE [0x52] END_LOAD_SCHEDULER: End scheduler "s017" with entities [EventEntity, EventEntity], work=839*
220: 0x08BD [0x01] GOTO 0x09BE
221: 0x08C0 [0x79] LocalPlayer looks at Kohlo-Lakolo (ID: 17760338/0x010F0052) (Basic look)
222: 0x08CA [0x4A] Pyo Nzon (ID: 17760343/0x010F0057) looks at Kohlo-Lakolo (ID: 17760338/0x010F0052)
223: 0x08D3 [0x29] REQ_SET_WAIT(priority=0x0B, entity_id=Kohlo-Lakolo (ID: 17760338/0x010F0052), tag_num=0x01)
224: 0x08DA [0x2B] Kohlo-Lakolo (ID: 17760338/0x010F0052) [16603*]:
    → "I guess you did tra`il her...or was it that you were found out along the way?"
225: 0x08E1 [0x23] WAIT_FOR_DIALOG_INTERACTION
226: 0x08E2 [0x29] REQ_SET_WAIT(priority=0x0B, entity_id=Kohlo-Lakolo (ID: 17760338/0x010F0052), tag_num=0x02)
227: 0x08E9 [0x6F] WAIT_FRAME_DELAY: Yield until WaitTime reaches zero
228: 0x08EA [0x76] CHECK_ENTITY_RENDER_FLAGS: Wait until Pyo Nzon (ID: 17760343/0x010F0057) Render.Flags0 and Render.Flags3 conditions are met
229: 0x08EF [0x52] END_LOAD_SCHEDULER: End scheduler "s007" with entities [EventEntity, EventEntity], work=839*
230: 0x08FE [0x02] IF !(Work_Zone[9] == 5*) GOTO 0x091A
231: 0x0906 [0x45] LOAD_SCHEDULED_TASK: Load scheduler "s024" with entities [EventEntity, EventEntity], work=[839*, 0*]
232: 0x0917 [0x01] GOTO 0x0947
233: 0x091A [0x02] IF !(Work_Zone[9] == 6*) GOTO 0x0936
234: 0x0922 [0x45] LOAD_SCHEDULED_TASK: Load scheduler "s024" with entities [EventEntity, EventEntity], work=[839*, 0*]
235: 0x0933 [0x01] GOTO 0x0947
236: 0x0936 [0x45] LOAD_SCHEDULED_TASK: Load scheduler "s008" with entities [EventEntity, EventEntity], work=[839*, 0*]

SUBROUTINE_0947:
237: 0x0947 [0x4A] Gomada-Vulmada (ID: 17760340/0x010F0054) looks at Shanruru (ID: 17760344/0x010F0058)
238: 0x0950 [0x29] REQ_SET_WAIT(priority=0x0B, entity_id=Pyo Nzon (ID: 17760343/0x010F0057), tag_num=0x03)
239: 0x0957 [0x03] Work_Zone[2] = 3231*
240: 0x095C [0x2B] Pyo Nzon (ID: 17760343/0x010F0057) [16604*]:
    → "Well, I was able to find this wonderrrful $3 because Shanruru got caught!"
241: 0x0963 [0x79] Kohlo-Lakolo (ID: 17760338/0x010F0052) looks at Pyo Nzon (ID: 17760343/0x010F0057) (Basic look)
242: 0x096D [0x23] WAIT_FOR_DIALOG_INTERACTION
243: 0x096E [0x29] REQ_SET_WAIT(priority=0x0B, entity_id=Pyo Nzon (ID: 17760343/0x010F0057), tag_num=0x04)
244: 0x0975 [0x6F] WAIT_FRAME_DELAY: Yield until WaitTime reaches zero
245: 0x0976 [0x76] CHECK_ENTITY_RENDER_FLAGS: Wait until Gomada-Vulmada (ID: 17760340/0x010F0054) Render.Flags0 and Render.Flags3 conditions are met
246: 0x097B [0x02] IF !(Work_Zone[9] == 5*) GOTO 0x0995
247: 0x0983 [0x52] END_LOAD_SCHEDULER: End scheduler "s024" with entities [EventEntity, EventEntity], work=839*
248: 0x0992 [0x01] GOTO 0x09BE
249: 0x0995 [0x02] IF !(Work_Zone[9] == 6*) GOTO 0x09AF
250: 0x099D [0x52] END_LOAD_SCHEDULER: End scheduler "s024" with entities [EventEntity, EventEntity], work=839*
251: 0x09AC [0x01] GOTO 0x09BE
252: 0x09AF [0x52] END_LOAD_SCHEDULER: End scheduler "s008" with entities [EventEntity, EventEntity], work=839*

SUBROUTINE_09BE:
253: 0x09BE [0x45] LOAD_SCHEDULED_TASK: Load scheduler "s009" with entities [EventEntity, EventEntity], work=[839*, 0*]
254: 0x09CF [0x79] LocalPlayer looks at Shanruru (ID: 17760344/0x010F0058) (Basic look)
255: 0x09D9 [0x4A] Kohlo-Lakolo (ID: 17760338/0x010F0052) looks at Shanruru (ID: 17760344/0x010F0058)
256: 0x09E2 [0x29] REQ_SET_WAIT(priority=0x0B, entity_id=Shanruru (ID: 17760344/0x010F0058), tag_num=0x06)
257: 0x09E9 [0x2B] Shanruru (ID: 17760344/0x010F0058) [16605*]:
    → "But I dropped my doll somewhere along the way..."
258: 0x09F0 [0x1C] WAIT(10* ticks)
259: 0x09F3 [0x29] REQ_SET_WAIT(priority=0x0B, entity_id=Gomada-Vulmada (ID: 17760340/0x010F0054), tag_num=0x17)
260: 0x09FA [0x23] WAIT_FOR_DIALOG_INTERACTION
261: 0x09FB [0x4B] UPDATE_ENTITY_YAW(entity=LocalPlayer, yaw=3.3°*)
262: 0x0A02 [0x6F] WAIT_FRAME_DELAY: Yield until WaitTime reaches zero
263: 0x0A03 [0x76] CHECK_ENTITY_RENDER_FLAGS: Wait until LocalPlayer Render.Flags0 and Render.Flags3 conditions are met
264: 0x0A08 [0x6F] WAIT_FRAME_DELAY: Yield until WaitTime reaches zero
265: 0x0A09 [0x76] CHECK_ENTITY_RENDER_FLAGS: Wait until Kohlo-Lakolo (ID: 17760338/0x010F0052) Render.Flags0 and Render.Flags3 conditions are met
266: 0x0A0E [0xBA] SET_ENTITY_POSITION(entity_id=Pichichi (ID: 17760341/0x010F0055), pos_x=-23.901*, pos_z=190.420*, pos_y=-5.999*, direction=52.7°*)
267: 0x0A1B [0x79] Pichichi (ID: 17760341/0x010F0055) looks at Shanruru (ID: 17760344/0x010F0058) (Basic look)
268: 0x0A25 [0x27] REQ_SET(priority=0x0B, entity_id=Pichichi (ID: 17760341/0x010F0055), tag_num=0x80)
269: 0x0A2C [0x52] END_LOAD_SCHEDULER: End scheduler "s009" with entities [EventEntity, EventEntity], work=839*
270: 0x0A3B [0x45] LOAD_SCHEDULED_TASK: Load scheduler "s010" with entities [EventEntity, EventEntity], work=[839*, 0*]
271: 0x0A4C [0x79] LocalPlayer looks at Pichichi (ID: 17760341/0x010F0055) (Basic look)
272: 0x0A56 [0x2A] GET_REQ_LEVEL(level=11, entity_id=Pichichi (ID: 17760341/0x010F0055))
273: 0x0A5C [0x2B] Pichichi (ID: 17760341/0x010F0055) [16606*]:
    → "That'th why she tried to cheer you up!"
274: 0x0A63 [0x1C] WAIT(20* ticks)
275: 0x0A66 [0x29] REQ_SET_WAIT(priority=0x0B, entity_id=Pichichi (ID: 17760341/0x010F0055), tag_num=0x07)
276: 0x0A6D [0x29] REQ_SET_WAIT(priority=0x0B, entity_id=Pichichi (ID: 17760341/0x010F0055), tag_num=0x08)
277: 0x0A74 [0x29] REQ_SET_WAIT(priority=0x0B, entity_id=Shanruru (ID: 17760344/0x010F0058), tag_num=0x07)
278: 0x0A7B [0x4A] Shanruru (ID: 17760344/0x010F0058) looks at Pichichi (ID: 17760341/0x010F0055)
279: 0x0A84 [0x6F] WAIT_FRAME_DELAY: Yield until WaitTime reaches zero
280: 0x0A85 [0x76] CHECK_ENTITY_RENDER_FLAGS: Wait until Shanruru (ID: 17760344/0x010F0058) Render.Flags0 and Render.Flags3 conditions are met
281: 0x0A8A [0x29] REQ_SET_WAIT(priority=0x0B, entity_id=Shanruru (ID: 17760344/0x010F0058), tag_num=0x0C)
282: 0x0A91 [0x29] REQ_SET_WAIT(priority=0x0B, entity_id=Gomada-Vulmada (ID: 17760340/0x010F0054), tag_num=0x18)
283: 0x0A98 [0x29] REQ_SET_WAIT(priority=0x0B, entity_id=Gomada-Vulmada (ID: 17760340/0x010F0054), tag_num=0x07)
284: 0x0A9F [0x23] WAIT_FOR_DIALOG_INTERACTION
285: 0x0AA0 [0x29] REQ_SET_WAIT(priority=0x0B, entity_id=Gomada-Vulmada (ID: 17760340/0x010F0054), tag_num=0x08)
286: 0x0AA7 [0x02] IF !(Work_Zone[9] == 5*) GOTO 0x0ABF
287: 0x0AAF [0xBA] SET_ENTITY_POSITION(entity_id=Pyo Nzon (ID: 17760343/0x010F0057), pos_x=-23.605*, pos_z=191.139*, pos_y=-5.999*, direction=127.9°*)
288: 0x0ABC [0x01] GOTO 0x0AD7
289: 0x0ABF [0x02] IF !(Work_Zone[9] == 6*) GOTO 0x0AD7
290: 0x0AC7 [0xBA] SET_ENTITY_POSITION(entity_id=Pyo Nzon (ID: 17760343/0x010F0057), pos_x=-23.605*, pos_z=191.139*, pos_y=-5.999*, direction=127.9°*)
291: 0x0AD4 [0x01] GOTO 0x0AD7

SUBROUTINE_0AD7:
292: 0x0AD7 [0x52] END_LOAD_SCHEDULER: End scheduler "s010" with entities [EventEntity, EventEntity], work=839*
293: 0x0AE6 [0x02] IF !(Work_Zone[9] == 5*) GOTO 0x0B02
294: 0x0AEE [0x45] LOAD_SCHEDULED_TASK: Load scheduler "s011" with entities [EventEntity, EventEntity], work=[839*, 0*]
295: 0x0AFF [0x01] GOTO 0x0B2F
296: 0x0B02 [0x02] IF !(Work_Zone[9] == 6*) GOTO 0x0B1E
297: 0x0B0A [0x45] LOAD_SCHEDULED_TASK: Load scheduler "s011" with entities [EventEntity, EventEntity], work=[839*, 0*]
298: 0x0B1B [0x01] GOTO 0x0B2F
299: 0x0B1E [0x45] LOAD_SCHEDULED_TASK: Load scheduler "s027" with entities [EventEntity, EventEntity], work=[839*, 0*]

SUBROUTINE_0B2F:
300: 0x0B2F [0x02] IF !(Work_Zone[9] == 8*) GOTO 0x0B44
301: 0x0B37 [0xBA] SET_ENTITY_POSITION(entity_id=LocalPlayer, pos_x=-24.825*, pos_z=190.545*, pos_y=-5.999*, direction=127.9°*)
302: 0x0B44 [0x4B] UPDATE_ENTITY_YAW(entity=LocalPlayer, yaw=3.3°*)
303: 0x0B4B [0x29] REQ_SET_WAIT(priority=0x0B, entity_id=Pyo Nzon (ID: 17760343/0x010F0057), tag_num=0x0D)
304: 0x0B52 [0x4A] Kohlo-Lakolo (ID: 17760338/0x010F0052) looks at Pyo Nzon (ID: 17760343/0x010F0057)
305: 0x0B5B [0x03] Work_Zone[2] = 3231*
306: 0x0B60 [0x2B] Pyo Nzon (ID: 17760343/0x010F0057) [16607*]:
    → "I think I deserve some prrraise for getting this $3."
307: 0x0B67 [0x1C] WAIT(20* ticks)
308: 0x0B6A [0x29] REQ_SET_WAIT(priority=0x0B, entity_id=Pichichi (ID: 17760341/0x010F0055), tag_num=0x0B)
309: 0x0B71 [0x23] WAIT_FOR_DIALOG_INTERACTION
310: 0x0B72 [0x6F] WAIT_FRAME_DELAY: Yield until WaitTime reaches zero
311: 0x0B73 [0x76] CHECK_ENTITY_RENDER_FLAGS: Wait until LocalPlayer Render.Flags0 and Render.Flags3 conditions are met
312: 0x0B78 [0x6F] WAIT_FRAME_DELAY: Yield until WaitTime reaches zero
313: 0x0B79 [0x76] CHECK_ENTITY_RENDER_FLAGS: Wait until Kohlo-Lakolo (ID: 17760338/0x010F0052) Render.Flags0 and Render.Flags3 conditions are met
314: 0x0B7E [0x02] IF !(Work_Zone[9] == 5*) GOTO 0x0B98
315: 0x0B86 [0x52] END_LOAD_SCHEDULER: End scheduler "s011" with entities [EventEntity, EventEntity], work=839*
316: 0x0B95 [0x01] GOTO 0x0BC1
317: 0x0B98 [0x02] IF !(Work_Zone[9] == 6*) GOTO 0x0BB2
318: 0x0BA0 [0x52] END_LOAD_SCHEDULER: End scheduler "s011" with entities [EventEntity, EventEntity], work=839*
319: 0x0BAF [0x01] GOTO 0x0BC1
320: 0x0BB2 [0x52] END_LOAD_SCHEDULER: End scheduler "s027" with entities [EventEntity, EventEntity], work=839*

SUBROUTINE_0BC1:
321: 0x0BC1 [0x02] IF !(Work_Zone[9] == 5*) GOTO 0x0BDD
322: 0x0BC9 [0x45] LOAD_SCHEDULED_TASK: Load scheduler "s025" with entities [EventEntity, EventEntity], work=[839*, 0*]
323: 0x0BDA [0x01] GOTO 0x0C0A
324: 0x0BDD [0x02] IF !(Work_Zone[9] == 6*) GOTO 0x0BF9
325: 0x0BE5 [0x45] LOAD_SCHEDULED_TASK: Load scheduler "s025" with entities [EventEntity, EventEntity], work=[839*, 0*]
326: 0x0BF6 [0x01] GOTO 0x0C0A
327: 0x0BF9 [0x45] LOAD_SCHEDULED_TASK: Load scheduler "s004" with entities [EventEntity, EventEntity], work=[839*, 0*]

SUBROUTINE_0C0A:
328: 0x0C0A [0x29] REQ_SET_WAIT(priority=0x0B, entity_id=Pyo Nzon (ID: 17760343/0x010F0057), tag_num=0x0E)
329: 0x0C11 [0x03] Work_Zone[2] = 3231*
330: 0x0C16 [0x03] Work_Zone[3] = ExtData[1]->WorkLocal[2]
331: 0x0C1B [0x29] REQ_SET_WAIT(priority=0x0B, entity_id=Kohlo-Lakolo (ID: 17760338/0x010F0052), tag_num=0x0A)
332: 0x0C22 [0x2B] Kohlo-Lakolo (ID: 17760338/0x010F0052) [16608*]:
    → "Ah! That $3 [/is still under investiga`tion/is still a secret]!"
333: 0x0C29 [0x1C] WAIT(10* ticks)
334: 0x0C2C [0x4B] UPDATE_ENTITY_YAW(entity=Gomada-Vulmada (ID: 17760340/0x010F0054), yaw=13.1°*)
335: 0x0C33 [0x79] Gomada-Vulmada (ID: 17760340/0x010F0054) looks at Kohlo-Lakolo (ID: 17760338/0x010F0052) (Basic look)
336: 0x0C3D [0x79] Shanruru (ID: 17760344/0x010F0058) looks at Kohlo-Lakolo (ID: 17760338/0x010F0052) (Basic look)
337: 0x0C47 [0x79] Yafa Yaa (ID: 17760342/0x010F0056) looks at Kohlo-Lakolo (ID: 17760338/0x010F0052) (Basic look)
338: 0x0C51 [0x29] REQ_SET_WAIT(priority=0x0B, entity_id=Pyo Nzon (ID: 17760343/0x010F0057), tag_num=0x07)
339: 0x0C58 [0x1C] WAIT(10* ticks)
340: 0x0C5B [0x79] Yafa Yaa (ID: 17760342/0x010F0056) looks at Kohlo-Lakolo (ID: 17760338/0x010F0052) (Basic look)
341: 0x0C65 [0x4B] UPDATE_ENTITY_YAW(entity=Yafa Yaa (ID: 17760342/0x010F0056), yaw=16.6°*)
342: 0x0C6C [0x4B] UPDATE_ENTITY_YAW(entity=LocalPlayer, yaw=8.0°*)
343: 0x0C73 [0x6F] WAIT_FRAME_DELAY: Yield until WaitTime reaches zero
344: 0x0C74 [0x76] CHECK_ENTITY_RENDER_FLAGS: Wait until Yafa Yaa (ID: 17760342/0x010F0056) Render.Flags0 and Render.Flags3 conditions are met
345: 0x0C79 [0x6F] WAIT_FRAME_DELAY: Yield until WaitTime reaches zero
346: 0x0C7A [0x76] CHECK_ENTITY_RENDER_FLAGS: Wait until LocalPlayer Render.Flags0 and Render.Flags3 conditions are met
347: 0x0C7F [0x6F] WAIT_FRAME_DELAY: Yield until WaitTime reaches zero
348: 0x0C80 [0x76] CHECK_ENTITY_RENDER_FLAGS: Wait until Gomada-Vulmada (ID: 17760340/0x010F0054) Render.Flags0 and Render.Flags3 conditions are met
349: 0x0C85 [0x79] LocalPlayer looks at Kohlo-Lakolo (ID: 17760338/0x010F0052) (Basic look)
350: 0x0C8F [0x29] REQ_SET_WAIT(priority=0x0B, entity_id=Pichichi (ID: 17760341/0x010F0055), tag_num=0x0C)
351: 0x0C96 [0x1C] WAIT(10* ticks)
352: 0x0C99 [0x4B] UPDATE_ENTITY_YAW(entity=Shanruru (ID: 17760344/0x010F0058), yaw=11.0°*)
353: 0x0CA0 [0x1C] WAIT(10* ticks)
354: 0x0CA3 [0x4A] Pichichi (ID: 17760341/0x010F0055) looks at Kohlo-Lakolo (ID: 17760338/0x010F0052)
355: 0x0CAC [0x6F] WAIT_FRAME_DELAY: Yield until WaitTime reaches zero
356: 0x0CAD [0x76] CHECK_ENTITY_RENDER_FLAGS: Wait until Shanruru (ID: 17760344/0x010F0058) Render.Flags0 and Render.Flags3 conditions are met
357: 0x0CB2 [0x23] WAIT_FOR_DIALOG_INTERACTION
358: 0x0CB3 [0x02] IF !(Work_Zone[9] == 5*) GOTO 0x0CCD
359: 0x0CBB [0x52] END_LOAD_SCHEDULER: End scheduler "s025" with entities [EventEntity, EventEntity], work=839*
360: 0x0CCA [0x01] GOTO 0x0CF6
361: 0x0CCD [0x02] IF !(Work_Zone[9] == 6*) GOTO 0x0CE7
362: 0x0CD5 [0x52] END_LOAD_SCHEDULER: End scheduler "s025" with entities [EventEntity, EventEntity], work=839*
363: 0x0CE4 [0x01] GOTO 0x0CF6
364: 0x0CE7 [0x52] END_LOAD_SCHEDULER: End scheduler "s004" with entities [EventEntity, EventEntity], work=839*

SUBROUTINE_0CF6:
365: 0x0CF6 [0x45] LOAD_SCHEDULED_TASK: Load scheduler "s012" with entities [EventEntity, EventEntity], work=[839*, 0*]
366: 0x0D07 [0x7B] Gomada-Vulmada (ID: 17760340/0x010F0054) stops talking
367: 0x0D0C [0x29] REQ_SET_WAIT(priority=0x0B, entity_id=Kohlo-Lakolo (ID: 17760338/0x010F0052), tag_num=0x0B)
368: 0x0D13 [0x29] REQ_SET_WAIT(priority=0x0B, entity_id=Pyo Nzon (ID: 17760343/0x010F0057), tag_num=0x0B)
369: 0x0D1A [0x4A] Kohlo-Lakolo (ID: 17760338/0x010F0052) looks at LocalPlayer
370: 0x0D23 [0x29] REQ_SET_WAIT(priority=0x0B, entity_id=Gomada-Vulmada (ID: 17760340/0x010F0054), tag_num=0x12)
371: 0x0D2A [0x03] Work_Zone[2] = 3231*
372: 0x0D2F [0x2B] Gomada-Vulmada (ID: 17760340/0x010F0054) [16609*]:
    → "What's $6? Can you eat-weat it?"
373: 0x0D36 [0x1C] WAIT(20* ticks)
374: 0x0D39 [0x79] Yafa Yaa (ID: 17760342/0x010F0056) looks at Gomada-Vulmada (ID: 17760340/0x010F0054) (Basic look)
375: 0x0D43 [0x79] Shanruru (ID: 17760344/0x010F0058) looks at Gomada-Vulmada (ID: 17760340/0x010F0054) (Basic look)
376: 0x0D4D [0x23] WAIT_FOR_DIALOG_INTERACTION
377: 0x0D4E [0x6F] WAIT_FRAME_DELAY: Yield until WaitTime reaches zero
378: 0x0D4F [0x76] CHECK_ENTITY_RENDER_FLAGS: Wait until Pichichi (ID: 17760341/0x010F0055) Render.Flags0 and Render.Flags3 conditions are met
379: 0x0D54 [0x29] REQ_SET_WAIT(priority=0x0B, entity_id=Gomada-Vulmada (ID: 17760340/0x010F0054), tag_num=0x13)
380: 0x0D5B [0x29] REQ_SET_WAIT(priority=0x0B, entity_id=Gomada-Vulmada (ID: 17760340/0x010F0054), tag_num=0x14)
381: 0x0D62 [0x29] REQ_SET_WAIT(priority=0x0B, entity_id=Yafa Yaa (ID: 17760342/0x010F0056), tag_num=0x01)
382: 0x0D69 [0x4A] Pichichi (ID: 17760341/0x010F0055) looks at LocalPlayer
383: 0x0D72 [0x2B] Yafa Yaa (ID: 17760342/0x010F0056) [16610*]:
    → "It's part of a letterrr of some sort. But it's too hard for me to read."
384: 0x0D79 [0x1C] WAIT(20* ticks)
385: 0x0D7C [0x79] Gomada-Vulmada (ID: 17760340/0x010F0054) looks at Yafa Yaa (ID: 17760342/0x010F0056) (Basic look)
386: 0x0D86 [0x79] Shanruru (ID: 17760344/0x010F0058) looks at Yafa Yaa (ID: 17760342/0x010F0056) (Basic look)
387: 0x0D90 [0x4B] UPDATE_ENTITY_YAW(entity=LocalPlayer, yaw=3.3°*)
388: 0x0D97 [0x6F] WAIT_FRAME_DELAY: Yield until WaitTime reaches zero
389: 0x0D98 [0x76] CHECK_ENTITY_RENDER_FLAGS: Wait until LocalPlayer Render.Flags0 and Render.Flags3 conditions are met
390: 0x0D9D [0x23] WAIT_FOR_DIALOG_INTERACTION
391: 0x0D9E [0x6F] WAIT_FRAME_DELAY: Yield until WaitTime reaches zero
392: 0x0D9F [0x76] CHECK_ENTITY_RENDER_FLAGS: Wait until Pichichi (ID: 17760341/0x010F0055) Render.Flags0 and Render.Flags3 conditions are met
393: 0x0DA4 [0x6F] WAIT_FRAME_DELAY: Yield until WaitTime reaches zero
394: 0x0DA5 [0x76] CHECK_ENTITY_RENDER_FLAGS: Wait until Kohlo-Lakolo (ID: 17760338/0x010F0052) Render.Flags0 and Render.Flags3 conditions are met
395: 0x0DAA [0x52] END_LOAD_SCHEDULER: End scheduler "s012" with entities [EventEntity, EventEntity], work=839*
396: 0x0DB9 [0x45] LOAD_SCHEDULED_TASK: Load scheduler "s013" with entities [EventEntity, EventEntity], work=[839*, 0*]
397: 0x0DCA [0x29] REQ_SET_WAIT(priority=0x0B, entity_id=Yafa Yaa (ID: 17760342/0x010F0056), tag_num=0x02)
398: 0x0DD1 [0x79] Papo-Hopo (ID: 17760339/0x010F0053) looks at LocalPlayer (Basic look)
399: 0x0DDB [0x2B] Pichichi (ID: 17760341/0x010F0055) [16611*]:
    → "I bet an adult can read it!"
400: 0x0DE2 [0x1C] WAIT(10* ticks)
401: 0x0DE5 [0x79] LocalPlayer looks at Pichichi (ID: 17760341/0x010F0055) (Basic look)
402: 0x0DEF [0x79] Shanruru (ID: 17760344/0x010F0058) looks at Pichichi (ID: 17760341/0x010F0055) (Basic look)
403: 0x0DF9 [0x23] WAIT_FOR_DIALOG_INTERACTION
404: 0x0DFA [0x52] END_LOAD_SCHEDULER: End scheduler "s013" with entities [EventEntity, EventEntity], work=839*
405: 0x0E09 [0x02] IF !(Work_Zone[9] == 3*) GOTO 0x0E25
406: 0x0E11 [0x45] LOAD_SCHEDULED_TASK: Load scheduler "s016" with entities [EventEntity, EventEntity], work=[839*, 0*]
407: 0x0E22 [0x01] GOTO 0x0E8A
408: 0x0E25 [0x02] IF !(Work_Zone[9] == 5*) GOTO 0x0E41
409: 0x0E2D [0x45] LOAD_SCHEDULED_TASK: Load scheduler "s026" with entities [EventEntity, EventEntity], work=[839*, 0*]
410: 0x0E3E [0x01] GOTO 0x0E8A
411: 0x0E41 [0x02] IF !(Work_Zone[9] == 6*) GOTO 0x0E5D
412: 0x0E49 [0x45] LOAD_SCHEDULED_TASK: Load scheduler "s026" with entities [EventEntity, EventEntity], work=[839*, 0*]
413: 0x0E5A [0x01] GOTO 0x0E8A
414: 0x0E5D [0x02] IF !(Work_Zone[9] == 8*) GOTO 0x0E79
415: 0x0E65 [0x45] LOAD_SCHEDULED_TASK: Load scheduler "s016" with entities [EventEntity, EventEntity], work=[839*, 0*]
416: 0x0E76 [0x01] GOTO 0x0E8A
417: 0x0E79 [0x45] LOAD_SCHEDULED_TASK: Load scheduler "s019" with entities [EventEntity, EventEntity], work=[839*, 0*]

SUBROUTINE_0E8A:
418: 0x0E8A [0x79] Yafa Yaa (ID: 17760342/0x010F0056) looks at LocalPlayer (Basic look)
419: 0x0E94 [0x4B] UPDATE_ENTITY_YAW(entity=Yafa Yaa (ID: 17760342/0x010F0056), yaw=14.8°*)
420: 0x0E9B [0x79] Kohlo-Lakolo (ID: 17760338/0x010F0052) looks at LocalPlayer (Basic look)
421: 0x0EA5 [0x1C] WAIT(100* ticks)
422: 0x0EA8 [0x6F] WAIT_FRAME_DELAY: Yield until WaitTime reaches zero
423: 0x0EA9 [0x76] CHECK_ENTITY_RENDER_FLAGS: Wait until Yafa Yaa (ID: 17760342/0x010F0056) Render.Flags0 and Render.Flags3 conditions are met
424: 0x0EAE [0x02] IF !(Work_Zone[9] == 3*) GOTO 0x0EC8
425: 0x0EB6 [0x52] END_LOAD_SCHEDULER: End scheduler "s016" with entities [EventEntity, EventEntity], work=839*
426: 0x0EC5 [0x01] GOTO 0x0F25
427: 0x0EC8 [0x02] IF !(Work_Zone[9] == 5*) GOTO 0x0EE2
428: 0x0ED0 [0x52] END_LOAD_SCHEDULER: End scheduler "s026" with entities [EventEntity, EventEntity], work=839*
429: 0x0EDF [0x01] GOTO 0x0F25
430: 0x0EE2 [0x02] IF !(Work_Zone[9] == 6*) GOTO 0x0EFC
431: 0x0EEA [0x52] END_LOAD_SCHEDULER: End scheduler "s026" with entities [EventEntity, EventEntity], work=839*
432: 0x0EF9 [0x01] GOTO 0x0F25
433: 0x0EFC [0x02] IF !(Work_Zone[9] == 8*) GOTO 0x0F16
434: 0x0F04 [0x52] END_LOAD_SCHEDULER: End scheduler "s016" with entities [EventEntity, EventEntity], work=839*
435: 0x0F13 [0x01] GOTO 0x0F25
436: 0x0F16 [0x52] END_LOAD_SCHEDULER: End scheduler "s019" with entities [EventEntity, EventEntity], work=839*

SUBROUTINE_0F25:
437: 0x0F25 [0x45] LOAD_SCHEDULED_TASK: Load scheduler "s014" with entities [EventEntity, EventEntity], work=[839*, 0*]
438: 0x0F36 [0x29] REQ_SET_WAIT(priority=0x0B, entity_id=Gomada-Vulmada (ID: 17760340/0x010F0054), tag_num=0x15)
439: 0x0F3D [0x03] Work_Zone[2] = 3231*
440: 0x0F42 [0x03] Work_Zone[3] = ExtData[1]->WorkLocal[2]
441: 0x0F47 [0x29] REQ_SET_WAIT(priority=0x0B, entity_id=Kohlo-Lakolo (ID: 17760338/0x010F0052), tag_num=0x10)
442: 0x0F4E [0x2B] Kohlo-Lakolo (ID: 17760338/0x010F0052) [16612*]:
    → "Great idea! Okay, [friend/adult], you try to figure it out!"
443: 0x0F55 [0x1C] WAIT(20* ticks)
444: 0x0F58 [0x4B] UPDATE_ENTITY_YAW(entity=LocalPlayer, yaw=7.8°*)
445: 0x0F5F [0x79] LocalPlayer looks at Kohlo-Lakolo (ID: 17760338/0x010F0052) (Basic look)
446: 0x0F69 [0x6F] WAIT_FRAME_DELAY: Yield until WaitTime reaches zero
447: 0x0F6A [0x76] CHECK_ENTITY_RENDER_FLAGS: Wait until LocalPlayer Render.Flags0 and Render.Flags3 conditions are met
448: 0x0F6F [0x79] Pyo Nzon (ID: 17760343/0x010F0057) looks at Kohlo-Lakolo (ID: 17760338/0x010F0052) (Basic look)
449: 0x0F79 [0x79] Shanruru (ID: 17760344/0x010F0058) looks at Kohlo-Lakolo (ID: 17760338/0x010F0052) (Basic look)
450: 0x0F83 [0x79] Gomada-Vulmada (ID: 17760340/0x010F0054) looks at Kohlo-Lakolo (ID: 17760338/0x010F0052) (Basic look)
451: 0x0F8D [0x79] Yafa Yaa (ID: 17760342/0x010F0056) looks at Kohlo-Lakolo (ID: 17760338/0x010F0052) (Basic look)
452: 0x0F97 [0x23] WAIT_FOR_DIALOG_INTERACTION
453: 0x0F98 [0x29] REQ_SET_WAIT(priority=0x0B, entity_id=Kohlo-Lakolo (ID: 17760338/0x010F0052), tag_num=0x11)
454: 0x0F9F [0x52] END_LOAD_SCHEDULER: End scheduler "s014" with entities [EventEntity, EventEntity], work=839*
455: 0x0FAE [0x45] LOAD_SCHEDULED_TASK: Load scheduler "s015" with entities [EventEntity, EventEntity], work=[839*, 0*]
456: 0x0FBF [0x27] REQ_SET(priority=0x08, entity_id=Papo-Hopo (ID: 17760339/0x010F0053), tag_num=0x09)
457: 0x0FC6 [0x27] REQ_SET(priority=0x08, entity_id=Gomada-Vulmada (ID: 17760340/0x010F0054), tag_num=0x05)
458: 0x0FCD [0x27] REQ_SET(priority=0x08, entity_id=Pyo Nzon (ID: 17760343/0x010F0057), tag_num=0x03)
459: 0x0FD4 [0x27] REQ_SET(priority=0x08, entity_id=Yafa Yaa (ID: 17760342/0x010F0056), tag_num=0x03)
460: 0x0FDB [0x27] REQ_SET(priority=0x08, entity_id=Pichichi (ID: 17760341/0x010F0055), tag_num=0x09)
461: 0x0FE2 [0x4B] UPDATE_ENTITY_YAW(entity=LocalPlayer, yaw=2.7°*)
462: 0x0FE9 [0x7B] LocalPlayer stops talking
463: 0x0FEE [0x2B] Papo-Hopo (ID: 17760339/0x010F0053) [16613*]:
    → "Yippie!"
464: 0x0FF5 [0x23] WAIT_FOR_DIALOG_INTERACTION
465: 0x0FF6 [0x2B] Gomada-Vulmada (ID: 17760340/0x010F0054) [16614*]:
    → "Hooray!"
466: 0x0FFD [0x23] WAIT_FOR_DIALOG_INTERACTION
467: 0x0FFE [0x2B] Pyo Nzon (ID: 17760343/0x010F0057) [16615*]:
    → "Wheee!"
468: 0x1005 [0x23] WAIT_FOR_DIALOG_INTERACTION
469: 0x1006 [0x2B] Yafa Yaa (ID: 17760342/0x010F0056) [16616*]:
    → "Haha!"
470: 0x100D [0x23] WAIT_FOR_DIALOG_INTERACTION
471: 0x100E [0x2B] Pichichi (ID: 17760341/0x010F0055) [16617*]:
    → "Oooh!"
472: 0x1015 [0x23] WAIT_FOR_DIALOG_INTERACTION
473: 0x1016 [0x2A] GET_REQ_LEVEL(level=8, entity_id=Papo-Hopo (ID: 17760339/0x010F0053))
474: 0x101C [0x2A] GET_REQ_LEVEL(level=8, entity_id=Gomada-Vulmada (ID: 17760340/0x010F0054))
475: 0x1022 [0x2A] GET_REQ_LEVEL(level=8, entity_id=Pyo Nzon (ID: 17760343/0x010F0057))
476: 0x1028 [0x2A] GET_REQ_LEVEL(level=8, entity_id=Yafa Yaa (ID: 17760342/0x010F0056))
477: 0x102E [0x2A] GET_REQ_LEVEL(level=8, entity_id=Pichichi (ID: 17760341/0x010F0055))
478: 0x1034 [0x1C] WAIT(40* ticks)
479: 0x1037 [0x6E] LocalPlayer uses emote 21*
480: 0x103E [0x99] Wait for LocalPlayer animation to complete
481: 0x1043 [0x1C] WAIT(60* ticks)
482: 0x1046 [0x27] REQ_SET(priority=0x08, entity_id=Shanruru (ID: 17760344/0x010F0058), tag_num=0x0C)
483: 0x104D [0x2B] Shanruru (ID: 17760344/0x010F0058) [16618*]:
    → "Wooo!"
484: 0x1054 [0x23] WAIT_FOR_DIALOG_INTERACTION
485: 0x1055 [0x2A] GET_REQ_LEVEL(level=8, entity_id=Shanruru (ID: 17760344/0x010F0058))
486: 0x105B [0x1C] WAIT(30* ticks)
487: 0x105E [0x5D] SET_MUSIC_VOLUME(volume=0*, fade_time=300*)
488: 0x1063 [0x1A] CALL_SUBROUTINE(address=0x0064)
489: 0x1066 [0x52] END_LOAD_SCHEDULER: End scheduler "s015" with entities [EventEntity, EventEntity], work=839*
490: 0x1075 [0x6F] WAIT_FRAME_DELAY: Yield until WaitTime reaches zero
491: 0x1076 [0x76] CHECK_ENTITY_RENDER_FLAGS: Wait until LocalPlayer Render.Flags0 and Render.Flags3 conditions are met
492: 0x107B [0x5C] MUSIC_CONTROL: Set Idle (Day) music to song 151*
493: 0x107F [0x5C] MUSIC_CONTROL: Set Idle (Night) music to song 151*
494: 0x1083 [0x9A] WAIT_MUSIC_SERVER()
495: 0x1084 [0x5D] SET_MUSIC_VOLUME(volume=127*, fade_time=1*)
496: 0x1089 [0x1C] WAIT(15* ticks)
497: 0x108C [0xAB] EventEntity->DespawnValue = 0* // Set despawn value
498: 0x1090 [0x1C] WAIT(1* ticks)
499: 0x1093 [0x46] CAMERA_CONTROL: Restore default settings
500: 0x1095 [0x45] LOAD_SCHEDULED_TASK: Load scheduler "fdi2" with entities [EventEntity, EventEntity], work=[200*, 0*]
501: 0x10A6 [0x21] END_EVENT
502: 0x10A7 [0x00] END_REQSTACK()
```

### Event 916

#### Metadata

| Field        | Value      |
|--------------|------------|
| Entrypoint   | 0x10A8     |
| Data Size    | 8519 bytes |
| Instructions | 1183       |

```
      00 01 02 03 04 05 06 07  08 09 0A 0B 0C 0D 0E 0F
      -- -- -- -- -- -- -- --  -- -- -- -- -- -- -- --
10A0:                          42 03 01 00 03 10 03 02          B.......
10B0: 00 04 10 03 03 00 05 10  03 04 00 06 10 03 05 00  ................
10C0: 01 80 5D 01 80 08 80 1A  64 00 46 01 38 09 80 92  ..].....d.F.8...
10D0: 01 52 00 0F 01 92 01 53  00 0F 01 92 01 54 00 0F  .R.....S.....T..
10E0: 01 92 01 55 00 0F 01 92  01 56 00 0F 01 92 01 57  ...U.....V.....W
10F0: 00 0F 01 92 01 58 00 0F  01 94 01 52 00 0F 01 94  .....X.....R....
1100: 01 53 00 0F 01 94 01 54  00 0F 01 94 01 55 00 0F  .S.....T.....U..
1110: 01 94 01 56 00 0F 01 94  01 57 00 0F 01 94 01 58  ...V.....W.....X
1120: 00 0F 01 94 01 F0 FF FF  7F BA 54 00 0F 01 0A 80  ..........T.....
1130: 0B 80 0C 80 0D 80 BA 58  00 0F 01 57 80 58 80 0C  .......X...W.X..
1140: 80 59 80 BA F0 FF FF 7F  5A 80 5B 80 13 80 5C 80  .Y......Z.[...\.
1150: 80 52 00 0F 01 80 53 00  0F 01 80 54 00 0F 01 80  .R....S....T....
1160: 55 00 0F 01 80 56 00 0F  01 80 57 00 0F 01 80 58  U....V....W....X
1170: 00 0F 01 80 F0 FF FF 7F  79 00 52 00 0F 01 F0 FF  ........y.R.....
1180: FF 7F 79 00 53 00 0F 01  F0 FF FF 7F 4A F0 FF FF  ..y.S.......J...
1190: 7F 52 00 0F 01 4A 56 00  0F 01 F0 FF FF 7F 4A 57  .R...JV.......JW
11A0: 00 0F 01 F0 FF FF 7F 4A  55 00 0F 01 F0 FF FF 7F  .......JU.......
11B0: 6F 76 56 00 0F 01 6F 76  57 00 0F 01 6F 76 55 00  ovV...ovW...ovU.
11C0: 0F 01 6F 76 F0 FF FF 7F  29 08 F0 FF FF 7F 0A 5C  ..ov....)......\
11D0: 00 15 80 5C 01 15 80 9A  5D 16 80 03 80 45 18 80  ...\....]....E..
11E0: F8 FF FF 7F F8 FF FF 7F  73 30 38 33 01 80 1A 43  ........s083...C
11F0: 00 29 0B 52 00 0F 01 01  03 02 10 33 80 2B 52 00  .).R.......3.+R.
1200: 0F 01 5D 80 23 29 0B 52  00 0F 01 02 24 5E 80 01  ..].#).R....$^..
1210: 80 01 80 25 02 00 10 01  80 00 9E 12 52 18 80 F8  ...%........R...
1220: FF FF 7F F8 FF FF 7F 73  30 38 33 02 09 10 17 80  .......s083.....
1230: 00 47 12 45 18 80 F8 FF  FF 7F F8 FF FF 7F 73 30  .G.E..........s0
1240: 32 30 01 80 01 74 12 02  09 10 19 80 00 63 12 45  20...t.......c.E
1250: 18 80 F8 FF FF 7F F8 FF  FF 7F 73 30 32 30 01 80  ..........s020..
1260: 01 74 12 45 18 80 F8 FF  FF 7F F8 FF FF 7F 73 30  .t.E..........s0
1270: 30 31 01 80 29 0B F0 FF  FF 7F 5B 03 02 10 33 80  01..).....[...3.
1280: 7B 52 00 0F 01 29 0B 52  00 0F 01 03 2B 52 00 0F  {R...).R....+R..
1290: 01 5F 80 23 29 0B 52 00  0F 01 04 01 8B 14 02 00  ._.#).R.........
12A0: 10 03 80 00 8B 14 52 18  80 F8 FF FF 7F F8 FF FF  ......R.........
12B0: 7F 73 30 38 33 02 09 10  47 80 00 D1 12 45 18 80  .s083...G....E..
12C0: F8 FF FF 7F F8 FF FF 7F  73 30 35 35 01 80 01 52  ........s055...R
12D0: 13 02 09 10 60 80 00 ED  12 45 18 80 F8 FF FF 7F  ....`....E......
12E0: F8 FF FF 7F 73 30 35 35  01 80 01 52 13 02 09 10  ....s055...R....
12F0: 17 80 00 09 13 45 18 80  F8 FF FF 7F F8 FF FF 7F  .....E..........
1300: 73 31 30 32 01 80 01 52  13 02 09 10 19 80 00 25  s102...R.......%
1310: 13 45 18 80 F8 FF FF 7F  F8 FF FF 7F 73 31 30 32  .E..........s102
1320: 01 80 01 52 13 02 09 10  27 80 00 41 13 45 18 80  ...R....'..A.E..
1330: F8 FF FF 7F F8 FF FF 7F  73 30 35 35 01 80 01 52  ........s055...R
1340: 13 45 18 80 F8 FF FF 7F  F8 FF FF 7F 73 30 35 38  .E..........s058
1350: 01 80 6E F0 FF FF 7F 19  80 99 F0 FF FF 7F 1C 06  ..n.............
1360: 80 29 0B 52 00 0F 01 0E  2B 52 00 0F 01 61 80 23  .).R....+R...a.#
1370: 29 0B 52 00 0F 01 0F 29  0B 52 00 0F 01 03 2B 52  ).R....).R....+R
1380: 00 0F 01 62 80 23 29 0B  52 00 0F 01 04 1A 64 00  ...b.#).R.....d.
1390: 02 09 10 47 80 00 AA 13  52 18 80 F8 FF FF 7F F8  ...G....R.......
13A0: FF FF 7F 73 30 35 35 01  21 14 02 09 10 60 80 00  ...s055.!....`..
13B0: C4 13 52 18 80 F8 FF FF  7F F8 FF FF 7F 73 30 35  ..R..........s05
13C0: 35 01 21 14 02 09 10 17  80 00 DE 13 52 18 80 F8  5.!.........R...
13D0: FF FF 7F F8 FF FF 7F 73  31 30 32 01 21 14 02 09  .......s102.!...
13E0: 10 19 80 00 F8 13 52 18  80 F8 FF FF 7F F8 FF FF  ......R.........
13F0: 7F 73 31 30 32 01 21 14  02 09 10 27 80 00 12 14  .s102.!....'....
1400: 52 18 80 F8 FF FF 7F F8  FF FF 7F 73 30 35 35 01  R..........s055.
1410: 21 14 52 18 80 F8 FF FF  7F F8 FF FF 7F 73 30 35  !.R..........s05
1420: 38 02 09 10 17 80 00 3D  14 45 18 80 F8 FF FF 7F  8......=.E......
1430: F8 FF FF 7F 73 30 32 30  01 80 01 6A 14 02 09 10  ....s020...j....
1440: 19 80 00 59 14 45 18 80  F8 FF FF 7F F8 FF FF 7F  ...Y.E..........
1450: 73 30 32 30 01 80 01 6A  14 45 18 80 F8 FF FF 7F  s020...j.E......
1460: F8 FF FF 7F 73 30 30 31  01 80 1A 43 00 03 02 10  ....s001...C....
1470: 33 80 29 0B 52 00 0F 01  05 2B 52 00 0F 01 63 80  3.).R....+R...c.
1480: 23 29 0B 52 00 0F 01 06  01 8B 14 27 0B 58 00 0F  #).R.......'.X..
1490: 01 36 1C 22 80 02 09 10  17 80 00 AF 14 52 18 80  .6.".........R..
14A0: F8 FF FF 7F F8 FF FF 7F  73 30 32 30 01 D8 14 02  ........s020....
14B0: 09 10 19 80 00 C9 14 52  18 80 F8 FF FF 7F F8 FF  .......R........
14C0: FF 7F 73 30 32 30 01 D8  14 52 18 80 F8 FF FF 7F  ..s020...R......
14D0: F8 FF FF 7F 73 30 30 31  45 18 80 F8 FF FF 7F F8  ....s001E.......
14E0: FF FF 7F 73 30 31 37 01  80 79 00 53 00 0F 01 58  ...s017..y.S...X
14F0: 00 0F 01 79 00 F0 FF FF  7F 58 00 0F 01 2B 58 00  ...y.....X...+X.
1500: 0F 01 64 80 23 2A 0B 58  00 0F 01 52 18 80 F8 FF  ..d.#*.X...R....
1510: FF 7F F8 FF FF 7F 73 30  31 37 02 09 10 17 80 00  ......s017......
1520: 36 15 45 18 80 F8 FF FF  7F F8 FF FF 7F 73 30 35  6.E..........s05
1530: 39 01 80 01 63 15 02 09  10 19 80 00 52 15 45 18  9...c.......R.E.
1540: 80 F8 FF FF 7F F8 FF FF  7F 73 30 35 39 01 80 01  .........s059...
1550: 63 15 45 18 80 F8 FF FF  7F F8 FF FF 7F 73 30 32  c.E..........s02
1560: 38 01 80 79 00 53 00 0F  01 55 00 0F 01 29 0B 55  8..y.S...U...).U
1570: 00 0F 01 0F 2B 55 00 0F  01 65 80 1C 22 80 79 00  ....+U...e..".y.
1580: F0 FF FF 7F 55 00 0F 01  79 00 52 00 0F 01 55 00  ....U...y.R...U.
1590: 0F 01 4B F0 FF FF 7F 66  80 29 0B 52 00 0F 01 05  ..K....f.).R....
15A0: 29 0B 52 00 0F 01 06 4B  52 00 0F 01 67 80 6F 76  ).R....KR...g.ov
15B0: 52 00 0F 01 6F 76 F0 FF  FF 7F 23 29 0B 55 00 0F  R...ov....#).U..
15C0: 01 10 02 09 10 17 80 00  DC 15 52 18 80 F8 FF FF  ..........R.....
15D0: 7F F8 FF FF 7F 73 30 35  39 01 05 16 02 09 10 19  .....s059.......
15E0: 80 00 F6 15 52 18 80 F8  FF FF 7F F8 FF FF 7F 73  ....R..........s
15F0: 30 35 39 01 05 16 52 18  80 F8 FF FF 7F F8 FF FF  059...R.........
1600: 7F 73 30 32 38 45 18 80  F8 FF FF 7F F8 FF FF 7F  .s028E..........
1610: 73 30 34 39 01 80 4B 56  00 0F 01 68 80 29 0B 52  s049..KV...h.).R
1620: 00 0F 01 01 2B 52 00 0F  01 69 80 1C 22 80 79 00  ....+R...i..".y.
1630: 53 00 0F 01 52 00 0F 01  4B 53 00 0F 01 6A 80 6F  S...R...KS...j.o
1640: 76 53 00 0F 01 23 29 0B  52 00 0F 01 02 29 0B 53  vS...#).R....).S
1650: 00 0F 01 01 2B 53 00 0F  01 6B 80 1C 22 80 79 00  ....+S...k..".y.
1660: 52 00 0F 01 53 00 0F 01  23 29 0B 53 00 0F 01 02  R...S...#).S....
1670: 52 18 80 F8 FF FF 7F F8  FF FF 7F 73 30 34 39 45  R..........s049E
1680: 18 80 F8 FF FF 7F F8 FF  FF 7F 73 30 35 30 01 80  ..........s050..
1690: 02 09 10 17 80 00 A8 16  BA F0 FF FF 7F 6C 80 6D  .............l.m
16A0: 80 0C 80 1F 80 01 BD 16  02 09 10 19 80 00 BD 16  ................
16B0: BA F0 FF FF 7F 6C 80 6D  80 0C 80 1F 80 79 00 F0  .....l.m.....y..
16C0: FF FF 7F 54 00 0F 01 4B  F0 FF FF 7F 4B 80 4A 52  ...T...K....K.JR
16D0: 00 0F 01 F0 FF FF 7F 7B  54 00 0F 01 29 0B 54 00  .......{T...).T.
16E0: 0F 01 12 2B 54 00 0F 01  6E 80 1C 22 80 79 00 58  ...+T...n..".y.X
16F0: 00 0F 01 54 00 0F 01 79  00 56 00 0F 01 54 00 0F  ...T...y.V...T..
1700: 01 1C 39 80 29 0B 56 00  0F 01 06 29 0B 56 00 0F  ..9.).V....).V..
1710: 01 07 23 6F 76 56 00 0F  01 6F 76 F0 FF FF 7F 6F  ..#ovV...ov....o
1720: 76 52 00 0F 01 52 18 80  F8 FF FF 7F F8 FF FF 7F  vR...R..........
1730: 73 30 35 30 02 09 10 05  80 00 50 17 45 18 80 F8  s050......P.E...
1740: FF FF 7F F8 FF FF 7F 73  30 32 35 01 80 01 B5 17  .......s025.....
1750: 02 09 10 17 80 00 6C 17  45 18 80 F8 FF FF 7F F8  ......l.E.......
1760: FF FF 7F 73 30 32 35 01  80 01 B5 17 02 09 10 19  ...s025.........
1770: 80 00 88 17 45 18 80 F8  FF FF 7F F8 FF FF 7F 73  ....E..........s
1780: 30 32 35 01 80 01 B5 17  02 09 10 6F 80 00 A4 17  025........o....
1790: 45 18 80 F8 FF FF 7F F8  FF FF 7F 73 30 32 35 01  E..........s025.
17A0: 80 01 B5 17 45 18 80 F8  FF FF 7F F8 FF FF 7F 73  ....E..........s
17B0: 30 30 34 01 80 29 0B 54  00 0F 01 14 03 03 10 02  004..).T........
17C0: 00 29 0B 52 00 0F 01 01  2B 52 00 0F 01 70 80 1C  .).R....+R...p..
17D0: 22 80 79 00 F0 FF FF 7F  52 00 0F 01 79 00 54 00  ".y.....R...y.T.
17E0: 0F 01 F0 FF FF 7F 1C 22  80 79 00 58 00 0F 01 F0  .......".y.X....
17F0: FF FF 7F 79 00 56 00 0F  01 F0 FF FF 7F 23 29 0B  ...y.V.......#).
1800: 52 00 0F 01 02 29 0B 54  00 0F 01 15 03 06 00 01  R....).T........
1810: 80 03 00 10 03 80 02 00  10 01 80 01 07 1D 24 71  ..............$q
1820: 80 06 00 01 80 25 02 00  10 01 80 00 23 1A 79 00  .....%......#.y.
1830: 52 00 0F 01 F0 FF FF 7F  02 05 00 03 80 00 3D 19  R.............=.
1840: 6E F0 FF FF 7F 6F 80 99  F0 FF FF 7F 1C 53 80 02  n....o.......S..
1850: 09 10 05 80 00 69 18 52  18 80 F8 FF FF 7F F8 FF  .....i.R........
1860: FF 7F 73 30 32 35 01 C6  18 02 09 10 17 80 00 83  ..s025..........
1870: 18 52 18 80 F8 FF FF 7F  F8 FF FF 7F 73 30 32 35  .R..........s025
1880: 01 C6 18 02 09 10 19 80  00 9D 18 52 18 80 F8 FF  ...........R....
1890: FF 7F F8 FF FF 7F 73 30  32 35 01 C6 18 02 09 10  ......s025......
18A0: 6F 80 00 B7 18 52 18 80  F8 FF FF 7F F8 FF FF 7F  o....R..........
18B0: 73 30 32 35 01 C6 18 52  18 80 F8 FF FF 7F F8 FF  s025...R........
18C0: FF 7F 73 30 30 34 02 09  10 17 80 00 E2 18 45 18  ..s004........E.
18D0: 80 F8 FF FF 7F F8 FF FF  7F 73 30 36 30 01 80 01  .........s060...
18E0: 2B 19 02 09 10 19 80 00  FE 18 45 18 80 F8 FF FF  +.........E.....
18F0: 7F F8 FF FF 7F 73 30 36  30 01 80 01 2B 19 02 09  .....s060...+...
1900: 10 27 80 00 1A 19 45 18  80 F8 FF FF 7F F8 FF FF  .'....E.........
1910: 7F 73 30 33 37 01 80 01  2B 19 45 18 80 F8 FF FF  .s037...+.E.....
1920: 7F F8 FF FF 7F 73 30 35  36 01 80 4A F0 FF FF 7F  .....s056..J....
1930: 52 00 0F 01 6F 76 F0 FF  FF 7F 01 4C 19 6E F0 FF  R...ov.....L.n..
1940: FF 7F 6F 80 99 F0 FF FF  7F 1C 53 80 27 0B F0 FF  ..o.......S.'...
1950: FF 7F 5B 1C 1B 80 5D 01  80 08 80 1A 64 00 2A 0B  ..[...].....d.*.
1960: F0 FF FF 7F 02 05 00 03  80 00 CC 19 02 09 10 17  ................
1970: 80 00 86 19 52 18 80 F8  FF FF 7F F8 FF FF 7F 73  ....R..........s
1980: 30 36 30 01 C9 19 02 09  10 19 80 00 A0 19 52 18  060...........R.
1990: 80 F8 FF FF 7F F8 FF FF  7F 73 30 36 30 01 C9 19  .........s060...
19A0: 02 09 10 27 80 00 BA 19  52 18 80 F8 FF FF 7F F8  ...'....R.......
19B0: FF FF 7F 73 30 33 37 01  C9 19 52 18 80 F8 FF FF  ...s037...R.....
19C0: 7F F8 FF FF 7F 73 30 35  36 01 DB 19 52 18 80 F8  .....s056...R...
19D0: FF FF 7F F8 FF FF 7F 73  30 30 34 5C 00 16 80 5C  .......s004\...\
19E0: 01 16 80 9A 5D 16 80 03  80 4A F0 FF FF 7F 52 00  ....]....J....R.
19F0: 0F 01 4A 52 00 0F 01 58  00 0F 01 6F 76 52 00 0F  ..JR...X...ovR..
1A00: 01 6F 76 F0 FF FF 7F 7B  52 00 0F 01 45 18 80 F8  .ov....{R...E...
1A10: FF FF 7F F8 FF FF 7F 73  30 35 37 01 80 1A 43 00  .......s057...C.
1A20: 01 FF 1C 02 00 10 03 80  00 FF 1C 79 00 52 00 0F  ...........y.R..
1A30: 01 F0 FF FF 7F 6E F0 FF  FF 7F 19 80 99 F0 FF FF  .....n..........
1A40: 7F 1C 06 80 29 0B 52 00  0F 01 0E 1C 06 80 02 09  ....).R.........
1A50: 10 05 80 00 68 1A 52 18  80 F8 FF FF 7F F8 FF FF  ....h.R.........
1A60: 7F 73 30 32 35 01 C5 1A  02 09 10 17 80 00 82 1A  .s025...........
1A70: 52 18 80 F8 FF FF 7F F8  FF FF 7F 73 30 32 35 01  R..........s025.
1A80: C5 1A 02 09 10 19 80 00  9C 1A 52 18 80 F8 FF FF  ..........R.....
1A90: 7F F8 FF FF 7F 73 30 32  35 01 C5 1A 02 09 10 6F  .....s025......o
1AA0: 80 00 B6 1A 52 18 80 F8  FF FF 7F F8 FF FF 7F 73  ....R..........s
1AB0: 30 32 35 01 C5 1A 52 18  80 F8 FF FF 7F F8 FF FF  025...R.........
1AC0: 7F 73 30 30 34 02 05 00  03 80 00 E1 1A 45 18 80  .s004........E..
1AD0: F8 FF FF 7F F8 FF FF 7F  73 30 34 38 01 80 01 62  ........s048...b
1AE0: 1B 02 09 10 47 80 00 FD  1A 45 18 80 F8 FF FF 7F  ....G....E......
1AF0: F8 FF FF 7F 73 30 33 37  01 80 01 62 1B 02 09 10  ....s037...b....
1B00: 17 80 00 19 1B 45 18 80  F8 FF FF 7F F8 FF FF 7F  .....E..........
1B10: 73 30 36 30 01 80 01 62  1B 02 09 10 19 80 00 35  s060...b.......5
1B20: 1B 45 18 80 F8 FF FF 7F  F8 FF FF 7F 73 30 36 30  .E..........s060
1B30: 01 80 01 62 1B 02 09 10  27 80 00 51 1B 45 18 80  ...b....'..Q.E..
1B40: F8 FF FF 7F F8 FF FF 7F  73 30 33 37 01 80 01 62  ........s037...b
1B50: 1B 45 18 80 F8 FF FF 7F  F8 FF FF 7F 73 30 35 36  .E..........s056
1B60: 01 80 02 05 00 01 80 00  79 1B 4A F0 FF FF 7F 52  ........y.J....R
